PL6.E3A0      #001=COBOLRW File=COBOLRW.:Z8A6TSI                                 SAT 08/09/97 09:25 Page:1
        1        1        /*T***********************************************************/
        2        2        /*T*                                                         */
        3        3        /*T* Copyright (c) Bull HN Information Systems Inc., 1997    */
        4        4        /*T*                                                         */
        5        5        /*T***********************************************************/
        6        6        COBOLRW: PROC MAIN;   /* Z8ER */
        7        7        /*M*  Z8ER$RW_INIT -- Initialize the DNT with the reserved words. */
        8        8
        9        9        /*P*
       10       10               NAME:  Z8ER$RW_INIT
       11       11            PURPOSE:  Enter all of the reserved words into the DNT.
       12       12        */
       13       13
       14       14        /*D*
       15       15               NAME:  Z8ER$RW_INIT
       16       16               CALL:  CALL Z8ER$RW_INIT ;
       17       17
       18       18             OUTPUT:  The DNT entries in the DNT and they are also entered in BUCKETS.
       19       19            SCRATCH:  DNT$ -- Used to enter items in DNT.
       20       20
       21       21        DESCRIPTION:  The items are entered into the DNT and then are also linked
       22       22                      into BUCKETS so that they may be searched in Z8AH$SEARCH_.
       23       23        */
       24       24        %EJECT ;
PL6.E3A0      #001=COBOLRW File=COBOLRW.:Z8A6TSI                                 SAT 08/09/97 09:25 Page:2
       25       25
       26       26
       27       27        %SET PHASE = 1;
       28       28        %INCLUDE Z8A_DEFC ;
       29       96        %SET INITIALIZE = '1'B ;
       30       97        %INCLUDE Z8A_SUPP_MAC;
       31     2497        %INCLUDE Z8A_COMCOM ;
       32     3147        %INCLUDE Z8A_DNT ;
       33     3368        %INCLUDE Z8E_WINDOW ;
       34     5438        %INCLUDE Z8E_MACROS ;
       35     6113        %INCLUDE Z8E_STACKS;
       36     8379        %INCLUDE IOGLOBAL;
       37     8406
       38     8407        %INCLUDE CP_6;
       39    13967
       40    13968        %M$DCB(DCBN=M$OU,FUN=CREATE,ACS=SEQUEN,CTG=YES,ORG=CONSEC,
       41    13969               NAME='Z8E_RWORDS',ASN=FILE);
       42    14043
       43    14044    1   DCL   Z8AH$SEARCH_ ENTRY (0) ;
       44    14045
       45    14046    1   DCL DNT_BUCKETS (0:%(NUMBER_DNT_BUCKETS - 1)) PTR STATIC SYMDEF INIT(ADDR(NIL) * %
             14046            NUMBER_DNT_BUCKETS);
       46    14047
       47    14048    1   DCL BUCKETS_USED SBIN WORD;
       48    14049    1   DCL I UBIN WORD;
       49    14050    1   DCL NUMBER_OF_RESERVED_WORDS SBIN WORD STATIC INIT(0);
       50    14051
       51    14052
       52    14053    1   DCL DNT$_FROM_RSWNO(0:%(LAST_RW_NO)) UBIN WORD STATIC
       53    14054    1                INIT(0*%(LAST_RW_NO + 1));
       54    14055
       55    14056
       56    14057        /*V*
       57    14058            SEARCH -- The size of the reserved word is determined and then PART1
       58    14059                      is called to reserve the DNT item.  The reserved word is stored
       59    14060                      in DNT.TEXT.NAME and then PART2 is called to insert it into
       60    14061                      the BUCKETS linked list.  The reserved word number is then
PL6.E3A0      #001=COBOLRW File=COBOLRW.:Z8A6TSI                                 SAT 08/09/97 09:25 Page:3
       61    14062                      assigned to the DNT.
       62    14063        */
       63    14064
       64    14065        %MACRO SEARCH (RWD='RESERVED_WORD', RWNO=0, FIG_CONSTANT=FALSE, AREAA=FALSE,
       65    14066                       MUST_AREAA = FALSE);
       66    14067
       67    14068               %IF (RWNO ~= RSWD_NO);
       68    14069               %ERROR('*** This reserved word is out of sequence ***');
       69    14070               %ENDIF;
       70    14071
       71    14072               NUMBER_OF_RESERVED_WORDS = NUMBER_OF_RESERVED_WORDS + 1;
       72    14073               LEX_SYMBOL.SIZE = LENGTHC(RWD);
       73    14074               LEX_SYMBOL.SYMBOL = RWD;
       74    14075               CALL Z8AH$SEARCH_;
       75    14076               DNT$ -> DNT.B.RW = TRUE;
       76    14077               DNT$ -> DNT.B.USER_WORD = FALSE;
       77    14078               DNT$ -> DNT.B.ACCEPT_AREA_A = AREAA;
       78    14079               DNT$ -> DNT.B.MUST_AREA_A = MUST_AREAA;
       79    14080               DNT$->DNT.B.FIGURATIVE_CONSTANT = FIG_CONSTANT ;
       80    14081               DNT$->DNT.RW_NO = RWNO ;
       81    14082
       82    14083        %MEND;
       83    14084
       84    14085
       85    14086        %MACRO NEWRSW;
       86    14087          %SET RSWD_NO = RSWD_NO + 1;
       87    14088        %MEND;
       88    14089
       89    14090        %EJECT;
PL6.E3A0      #001=COBOLRW File=COBOLRW.:Z8A6TSI                                 SAT 08/09/97 09:25 Page:4
       90    14091
       91    14092        /*V*
       92    14093            ENTER_RESERVED_WORDS -- Reserved word items are in alphabetical order
       93    14094                                    and are entered into the DNT.
       94    14095        */
       95    14096
       96    14097        %SET RSWD_NO = FIRST_RW_NO ;
       97    14098        %SEARCH (RWD='ACCEPT',                 RWNO=%RSV_WRD_ACCEPT);
       98    14113        %NEWRSW;
       99    14116        %SEARCH (RWD='ACCESS',                 RWNO=%RSV_WRD_ACCESS);
      100    14131        %NEWRSW;
      101    14134        %SEARCH (RWD='ACTUAL',                 RWNO=%RSV_WRD_ACTUAL);
      102    14149        %NEWRSW;
      103    14152        %SEARCH (RWD='ADD',                    RWNO=%RSV_WRD_ADD);
      104    14167        %NEWRSW;
      105    14170        %SEARCH (RWD='ADDITIONAL',             RWNO=%RSV_WRD_ADDITIONAL);
      106    14185        %NEWRSW;
      107    14188        %SEARCH (RWD='ADDRESS',             RWNO=%RSV_WRD_ADDRESS);
      108    14203        %NEWRSW;
      109    14206        %SEARCH (RWD='ADVANCING',              RWNO=%RSV_WRD_ADVANCING);
      110    14221        %NEWRSW;
      111    14224        %SEARCH (RWD='AFTER',                  RWNO=%RSV_WRD_AFTER);
      112    14239        %NEWRSW;
      113    14242        %SEARCH (RWD='AGGREGATE',              RWNO=%RSV_WRD_AGGREGATE);
      114    14257        %NEWRSW;
      115    14260        %SEARCH (RWD='ALL',                    RWNO=%RSV_WRD_ALL);
      116    14275        %NEWRSW;
      117    14278        %SEARCH (RWD='ALPHABET',               RWNO=%RSV_WRD_ALPHABET);
      118    14293        %NEWRSW;
      119    14296        %SEARCH (RWD='ALPHABETIC',             RWNO=%RSV_WRD_ALPHABETIC);
      120    14311        %NEWRSW;
      121    14314        %SEARCH (RWD='ALPHABETIC-LOWER',       RWNO=%RSV_WRD_ALPHABETIC_LOWER);
      122    14329        %NEWRSW;
      123    14332        %SEARCH (RWD='ALPHABETIC-UPPER',       RWNO=%RSV_WRD_ALPHABETIC_UPPER);
      124    14347        %NEWRSW;
      125    14350        %SEARCH (RWD='ALPHANUMERIC',           RWNO=%RSV_WRD_ALPHANUMERIC);
      126    14365        %NEWRSW;
PL6.E3A0      #001=COBOLRW File=COBOLRW.:Z8A6TSI                                 SAT 08/09/97 09:25 Page:5
      127    14368        %SEARCH (RWD='ALPHANUMERIC-EDITED',    RWNO=%RSV_WRD_ALPHANUMERIC_EDITED);
      128    14383        %NEWRSW;
      129    14386        %SEARCH (RWD='ALSO',                   RWNO=%RSV_WRD_ALSO);
      130    14401        %NEWRSW;
      131    14404        %SEARCH (RWD='ALTER',                  RWNO=%RSV_WRD_ALTER);
      132    14419        %NEWRSW;
      133    14422        %SEARCH (RWD='ALTERNATE',              RWNO=%RSV_WRD_ALTERNATE);
      134    14437        %NEWRSW;
      135    14440        %SEARCH (RWD='AND',                    RWNO=%RSV_WRD_AND);
      136    14455        %NEWRSW;
      137    14458        %SEARCH (RWD='ANSI',                   RWNO=%RSV_WRD_ANSI);
      138    14473        %NEWRSW;
      139    14476        %SEARCH (RWD='ANY',                    RWNO=%RSV_WRD_ANY);
      140    14491        %NEWRSW;
      141    14494        %SEARCH (RWD='APPLY',                  RWNO=%RSV_WRD_APPLY);
      142    14509        %NEWRSW;
      143    14512        %SEARCH (RWD='ARE',                    RWNO=%RSV_WRD_ARE);
      144    14527        %NEWRSW;
      145    14530        %SEARCH (RWD='AREA',                   RWNO=%RSV_WRD_AREA);
      146    14545        %NEWRSW;
      147    14548        %SEARCH (RWD='AREAS',                  RWNO=%RSV_WRD_AREAS);
      148    14563        %NEWRSW;
      149    14566        %SEARCH (RWD='ASCENDING',              RWNO=%RSV_WRD_ASCENDING);
      150    14581        %NEWRSW;
      151    14584        %SEARCH (RWD='ASCII',                  RWNO=%RSV_WRD_ASCII);
      152    14599        %NEWRSW;
      153    14602        %SEARCH (RWD='ASSIGN',                 RWNO=%RSV_WRD_ASSIGN);
      154    14617        %NEWRSW;
      155    14620        %SEARCH (RWD='AT',                     RWNO=%RSV_WRD_AT);
      156    14635        %NEWRSW;
      157    14638        %SEARCH (RWD='ATTACH-OPTIONS',         RWNO=%RSV_WRD_ATTACH_OPTIONS);
      158    14653        %NEWRSW;
      159    14656        %SEARCH (RWD='AUTHOR',                 RWNO=%RSV_WRD_AUTHOR, MUST_AREAA=TRUE);
      160    14671        %NEWRSW;
      161    14674        %SEARCH (RWD='BEFORE',                 RWNO=%RSV_WRD_BEFORE);
      162    14689        %NEWRSW;
      163    14692        %SEARCH (RWD='BEGINNING',              RWNO=%RSV_WRD_BEGINNING);
PL6.E3A0      #001=COBOLRW File=COBOLRW.:Z8A6TSI                                 SAT 08/09/97 09:25 Page:6
      164    14707        %NEWRSW;
      165    14710        %SEARCH (RWD='BITS',                   RWNO=%RSV_WRD_BIT);
      166    14725        %SEARCH (RWD='BIT',                    RWNO=%RSV_WRD_BIT);
      167    14740        %NEWRSW;
      168    14743        %SEARCH (RWD='BLANK',                  RWNO=%RSV_WRD_BLANK);
      169    14758        %NEWRSW;
      170    14761        %SEARCH (RWD='BLOCK',                  RWNO=%RSV_WRD_BLOCK);
      171    14776        %NEWRSW;
      172    14779        %SEARCH (RWD='BLOCK-COUNT',            RWNO=%RSV_WRD_BLOCK_COUNT);
      173    14794        %NEWRSW;
      174    14797        %SEARCH (RWD='BOTTOM',                 RWNO=%RSV_WRD_BOTTOM);
      175    14812        %NEWRSW;
      176    14815        %SEARCH (RWD='BSN',                    RWNO=%RSV_WRD_BSN);
      177    14830        %NEWRSW;
      178    14833        %SEARCH (RWD='BY',                     RWNO=%RSV_WRD_BY);
      179    14848        %NEWRSW;
      180    14851        %SEARCH (RWD='C-6000',                 RWNO=%RSV_WRD_C_6000);
      181    14866        %NEWRSW;
      182    14869        %SEARCH (RWD='CALL',                   RWNO=%RSV_WRD_CALL);
      183    14884        %NEWRSW;
      184    14887        %SEARCH (RWD='CANCEL',                 RWNO=%RSV_WRD_CANCEL);
      185    14902        %NEWRSW;
      186    14905        %SEARCH (RWD='CATALOG-NAME',           RWNO=%RSV_WRD_CATALOG_NAME);
      187    14920        %NEWRSW;
      188    14923        %SEARCH (RWD='CATALOG-NAMES',          RWNO=%RSV_WRD_CATALOG_NAMES);
      189    14938        %NEWRSW;
      190    14941        %SEARCH (RWD='CD',                     RWNO=%RSV_WRD_CD);
      191    14956        %NEWRSW;
      192    14959        %SEARCH (RWD='CF',                     RWNO=%RSV_WRD_CF);
      193    14974        %NEWRSW;
      194    14977        %SEARCH (RWD='CH',                     RWNO=%RSV_WRD_CH);
      195    14992        %NEWRSW;
      196    14995        %SEARCH (RWD='CHANNEL-01',             RWNO=%RSV_WRD_CHANNEL_01);
      197    15010        %SEARCH (RWD='C01',                    RWNO=%RSV_WRD_CHANNEL_01);
      198    15025        %SEARCH (RWD='CHANNEL-02',             RWNO=%RSV_WRD_CHANNEL_01);
      199    15040        %SEARCH (RWD='C02',                    RWNO=%RSV_WRD_CHANNEL_01);
      200    15055        %SEARCH (RWD='CHANNEL-03',             RWNO=%RSV_WRD_CHANNEL_01);
PL6.E3A0      #001=COBOLRW File=COBOLRW.:Z8A6TSI                                 SAT 08/09/97 09:25 Page:7
      201    15070        %SEARCH (RWD='C03',                    RWNO=%RSV_WRD_CHANNEL_01);
      202    15085        %SEARCH (RWD='CHANNEL-04',             RWNO=%RSV_WRD_CHANNEL_01);
      203    15100        %SEARCH (RWD='C04',                    RWNO=%RSV_WRD_CHANNEL_01);
      204    15115        %SEARCH (RWD='CHANNEL-05',             RWNO=%RSV_WRD_CHANNEL_01);
      205    15130        %SEARCH (RWD='C05',                    RWNO=%RSV_WRD_CHANNEL_01);
      206    15145        %SEARCH (RWD='CHANNEL-06',             RWNO=%RSV_WRD_CHANNEL_01);
      207    15160        %SEARCH (RWD='C06',                    RWNO=%RSV_WRD_CHANNEL_01);
      208    15175        %SEARCH (RWD='CHANNEL-07',             RWNO=%RSV_WRD_CHANNEL_01);
      209    15190        %SEARCH (RWD='C07',                    RWNO=%RSV_WRD_CHANNEL_01);
      210    15205        %SEARCH (RWD='CHANNEL-08',             RWNO=%RSV_WRD_CHANNEL_01);
      211    15220        %SEARCH (RWD='C08',                    RWNO=%RSV_WRD_CHANNEL_01);
      212    15235        %SEARCH (RWD='CHANNEL-09',             RWNO=%RSV_WRD_CHANNEL_01);
      213    15250        %SEARCH (RWD='C09',                    RWNO=%RSV_WRD_CHANNEL_01);
      214    15265        %SEARCH (RWD='CHANNEL-10',             RWNO=%RSV_WRD_CHANNEL_01);
      215    15280        %SEARCH (RWD='C10',                    RWNO=%RSV_WRD_CHANNEL_01);
      216    15295        %SEARCH (RWD='CHANNEL-11',             RWNO=%RSV_WRD_CHANNEL_01);
      217    15310        %SEARCH (RWD='C11',                    RWNO=%RSV_WRD_CHANNEL_01);
      218    15325        %SEARCH (RWD='CHANNEL-12',             RWNO=%RSV_WRD_CHANNEL_01);
      219    15340        %SEARCH (RWD='C12',                    RWNO=%RSV_WRD_CHANNEL_01);
      220    15355        %SEARCH (RWD='CHANNEL-13',             RWNO=%RSV_WRD_CHANNEL_01);
      221    15370        %SEARCH (RWD='C13',                    RWNO=%RSV_WRD_CHANNEL_01);
      222    15385        %SEARCH (RWD='CHANNEL-14',             RWNO=%RSV_WRD_CHANNEL_01);
      223    15400        %SEARCH (RWD='C14',                    RWNO=%RSV_WRD_CHANNEL_01);
      224    15415        %SEARCH (RWD='CHANNEL-15',             RWNO=%RSV_WRD_CHANNEL_01);
      225    15430        %SEARCH (RWD='C15',                    RWNO=%RSV_WRD_CHANNEL_01);
      226    15445        %NEWRSW;
      227    15448        %SEARCH (RWD='CHARACTER',              RWNO=%RSV_WRD_CHARACTER);
      228    15463        %NEWRSW;
      229    15466        %SEARCH (RWD='CHARACTERS',             RWNO=%RSV_WRD_CHARACTERS);
      230    15481        %NEWRSW;
      231    15484        %SEARCH (RWD='CHECKPOINT-FILE',        RWNO=%RSV_WRD_CHECKPOINT_FILE);
      232    15499        %NEWRSW;
      233    15502        %SEARCH (RWD='CLASS',                  RWNO=%RSV_WRD_CLASS);
      234    15517        %NEWRSW;
      235    15520        %SEARCH (RWD='CLOCK-UNITS',            RWNO=%RSV_WRD_CLOCK_UNITS);
      236    15535        %NEWRSW;
      237    15538        %SEARCH (RWD='CLOSE',                  RWNO=%RSV_WRD_CLOSE);
PL6.E3A0      #001=COBOLRW File=COBOLRW.:Z8A6TSI                                 SAT 08/09/97 09:25 Page:8
      238    15553        %NEWRSW;
      239    15556        %SEARCH (RWD='COBOL',                  RWNO=%RSV_WRD_COBOL);
      240    15571        %NEWRSW;
      241    15574        %SEARCH (RWD='CODE',                   RWNO=%RSV_WRD_CODE);
      242    15589        %NEWRSW;
      243    15592        %SEARCH (RWD='CODE-SET',               RWNO=%RSV_WRD_CODE_SET);
      244    15607        %NEWRSW;
      245    15610        %SEARCH (RWD='COLLATING',              RWNO=%RSV_WRD_COLLATING);
      246    15625        %NEWRSW;
      247    15628        %SEARCH (RWD='COLUMN',                 RWNO=%RSV_WRD_COLUMN);
      248    15643        %NEWRSW;
      249    15646        %SEARCH (RWD='COMMA',                  RWNO=%RSV_WRD_COMMA);
      250    15661        %NEWRSW;
      251    15664        %SEARCH (RWD='COMMON',                 RWNO=%RSV_WRD_COMMON);
      252    15679        %NEWRSW;
      253    15682        %SEARCH (RWD='COMMUNICATION',          RWNO=%RSV_WRD_COMMUNICATION, MUST_AREAA=TRUE)
             15682            ;
      254    15697        %NEWRSW;
      255    15700        %SEARCH (RWD='COMP',                   RWNO=%RSV_WRD_COMP);
      256    15715        %SEARCH (RWD='COMPUTATIONAL',          RWNO=%RSV_WRD_COMP);
      257    15730        %SEARCH (RWD='PACKED-DECIMAL',         RWNO=%RSV_WRD_COMP);
      258    15745        %NEWRSW;
      259    15748        %SEARCH (RWD='COMP-1',                 RWNO=%RSV_WRD_COMP_1);
      260    15763        %SEARCH (RWD='COMPUTATIONAL-1',        RWNO=%RSV_WRD_COMP_1);
      261    15778        %NEWRSW;
      262    15781        %SEARCH (RWD='COMP-11',                RWNO=%RSV_WRD_COMP_11);
      263    15796        %SEARCH (RWD='COMPUTATIONAL-11',       RWNO=%RSV_WRD_COMP_11);
      264    15811        %NEWRSW;
      265    15814        %SEARCH (RWD='COMP-12',                RWNO=%RSV_WRD_COMP_12);
      266    15829        %SEARCH (RWD='COMPUTATIONAL-12',       RWNO=%RSV_WRD_COMP_12);
      267    15844        %NEWRSW;
      268    15847        %SEARCH (RWD='COMP-13',                RWNO=%RSV_WRD_COMP_13);
      269    15862        %SEARCH (RWD='COMPUTATIONAL-13',       RWNO=%RSV_WRD_COMP_13);
      270    15877        %NEWRSW;
      271    15880        %SEARCH (RWD='COMP-14',                RWNO=%RSV_WRD_COMP_14);
      272    15895        %SEARCH (RWD='COMPUTATIONAL-14',       RWNO=%RSV_WRD_COMP_14);
      273    15910        %NEWRSW;
PL6.E3A0      #001=COBOLRW File=COBOLRW.:Z8A6TSI                                 SAT 08/09/97 09:25 Page:9
      274    15913        %SEARCH (RWD='COMP-2',                 RWNO=%RSV_WRD_COMP_2);
      275    15928        %SEARCH (RWD='COMPUTATIONAL-2',        RWNO=%RSV_WRD_COMP_2);
      276    15943        %NEWRSW;
      277    15946        %SEARCH (RWD='COMP-3',                 RWNO=%RSV_WRD_COMP_3);
      278    15961        %SEARCH (RWD='COMPUTATIONAL-3',        RWNO=%RSV_WRD_COMP_3);
      279    15976        %NEWRSW;
      280    15979        %SEARCH (RWD='COMP-4',                 RWNO=%RSV_WRD_COMP_4);
      281    15994        %SEARCH (RWD='COMPUTATIONAL-4',        RWNO=%RSV_WRD_COMP_4);
      282    16009        %NEWRSW;
      283    16012        %SEARCH (RWD='COMP-5',                 RWNO=%RSV_WRD_COMP_5);
      284    16027        %SEARCH (RWD='COMPUTATIONAL-5',        RWNO=%RSV_WRD_COMP_5);
      285    16042        %NEWRSW;
      286    16045        %SEARCH (RWD='COMP-6',                 RWNO=%RSV_WRD_COMP_6);
      287    16060        %SEARCH (RWD='COMPUTATIONAL-6',        RWNO=%RSV_WRD_COMP_6);
      288    16075        %SEARCH (RWD='BINARY',                 RWNO=%RSV_WRD_COMP_6);
      289    16090        %NEWRSW;
      290    16093        %SEARCH (RWD='COMP-7',                 RWNO=%RSV_WRD_COMP_7);
      291    16108        %SEARCH (RWD='COMPUTATIONAL-7',        RWNO=%RSV_WRD_COMP_7);
      292    16123        %NEWRSW;
      293    16126        %SEARCH (RWD='COMP-8',                 RWNO=%RSV_WRD_COMP_8);
      294    16141        %SEARCH (RWD='COMPUTATIONAL-8',        RWNO=%RSV_WRD_COMP_8);
      295    16156        %NEWRSW;
      296    16159        %SEARCH (RWD='COMPUTE',                RWNO=%RSV_WRD_COMPUTE);
      297    16174        %NEWRSW;
      298    16177        %SEARCH (RWD='CONFIGURATION',          RWNO=%RSV_WRD_CONFIGURATION, MUST_AREAA=TRUE)
             16177            ;
      299    16192        %NEWRSW;
      300    16195        %SEARCH (RWD='CONNECT',                RWNO=%RSV_WRD_CONNECT);
      301    16210        %NEWRSW;
      302    16213        %SEARCH (RWD='CONSOLE',                RWNO=%RSV_WRD_CONSOLE);
      303    16228        %NEWRSW;
      304    16231        %SEARCH (RWD='CONTAINS',               RWNO=%RSV_WRD_CONTAINS);
      305    16246        %NEWRSW;
      306    16249        %SEARCH (RWD='CONTENT',                RWNO=%RSV_WRD_CONTENT);
      307    16264        %NEWRSW;
      308    16267        %SEARCH (RWD='CONTINUE',               RWNO=%RSV_WRD_CONTINUE);
      309    16282        %NEWRSW;
PL6.E3A0      #001=COBOLRW File=COBOLRW.:Z8A6TSI                                 SAT 08/09/97 09:25 Page:10
      310    16285        %SEARCH (RWD='CONTROL',                RWNO=%RSV_WRD_CONTROL);
      311    16300        %NEWRSW;
      312    16303        %SEARCH (RWD='CONTROLS',               RWNO=%RSV_WRD_CONTROLS);
      313    16318        %NEWRSW;
      314    16321        %SEARCH (RWD='CONVERSION',             RWNO=%RSV_WRD_CONVERSION);
      315    16336        %NEWRSW;
      316    16339        %SEARCH (RWD='CONVERTING',             RWNO=%RSV_WRD_CONVERTING);
      317    16354        %NEWRSW;
      318    16357        %SEARCH (RWD='CORRESPONDING',          RWNO=%RSV_WRD_CORRESPONDING);
      319    16372        %SEARCH (RWD='CORR',                   RWNO=%RSV_WRD_CORRESPONDING);
      320    16387        %NEWRSW;
      321    16390        %SEARCH (RWD='COUNT',                  RWNO=%RSV_WRD_COUNT);
      322    16405        %NEWRSW;
      323    16408        %SEARCH (RWD='CSP',                    RWNO=%RSV_WRD_CSP);
      324    16423        %NEWRSW;
      325    16426        %SEARCH (RWD='CURRENCY',               RWNO=%RSV_WRD_CURRENCY);
      326    16441        %NEWRSW;
      327    16444        %SEARCH (RWD='CURRENT',                RWNO=%RSV_WRD_CURRENT);
      328    16459        %NEWRSW;
      329    16462        %SEARCH (RWD='DATA',                   RWNO=%RSV_WRD_DATA);
      330    16477        %NEWRSW;
      331    16480        %SEARCH (RWD='DATE',                   RWNO=%RSV_WRD_DATE);
      332    16495        %NEWRSW;
      333    16498        %SEARCH (RWD='DATE-COMPILED',          RWNO=%RSV_WRD_DATE_COMPILED, MUST_AREAA=TRUE)
             16498            ;
      334    16513        %NEWRSW;
      335    16516        %SEARCH (RWD='DATE-WRITTEN',           RWNO=%RSV_WRD_DATE_WRITTEN, MUST_AREAA=TRUE);
      336    16531        %NEWRSW;
      337    16534        %SEARCH (RWD='DAY',                    RWNO=%RSV_WRD_DAY);
      338    16549        %NEWRSW;
      339    16552        %SEARCH (RWD='DAY-OF-WEEK',            RWNO=%RSV_WRD_DAY_OF_WEEK);
      340    16567        %NEWRSW;
      341    16570        %SEARCH (RWD='DB',                     RWNO=%RSV_WRD_DB);
      342    16585        %NEWRSW;
      343    16588        %SEARCH (RWD='DB-EXCEPTION',           RWNO=%RSV_WRD_DB_EXCEPTION);
      344    16603        %NEWRSW;
      345    16606        %SEARCH (RWD='DB-KEY',                 RWNO=%RSV_WRD_DB_KEY);
PL6.E3A0      #001=COBOLRW File=COBOLRW.:Z8A6TSI                                 SAT 08/09/97 09:25 Page:11
      346    16621        %NEWRSW;
      347    16624        %SEARCH (RWD='DE',                     RWNO=%RSV_WRD_DE);
      348    16639        %NEWRSW;
      349    16642        %SEARCH (RWD='DEBUGGING',              RWNO=%RSV_WRD_DEBUGGING);
      350    16657        %NEWRSW;
      351    16660        %SEARCH (RWD='DECIMAL-POINT',          RWNO=%RSV_WRD_DECIMAL_POINT);
      352    16675        %NEWRSW;
      353    16678        %SEARCH (RWD='DECLARATIVES',           RWNO=%RSV_WRD_DECLARATIVES, AREAA=TRUE);
      354    16693        %NEWRSW;
      355    16696        %SEARCH (RWD='DEFAULT',                RWNO=%RSV_WRD_DEFAULT);
      356    16711        %NEWRSW;
      357    16714        %SEARCH (RWD='DELETE',                 RWNO=%RSV_WRD_DELETE);
      358    16729        %NEWRSW;
      359    16732        %SEARCH (RWD='DELIMITED',              RWNO=%RSV_WRD_DELIMITED);
      360    16747        %NEWRSW;
      361    16750        %SEARCH (RWD='DELIMITER',              RWNO=%RSV_WRD_DELIMITER);
      362    16765        %NEWRSW;
      363    16768        %SEARCH (RWD='DENSITY',                RWNO=%RSV_WRD_DENSITY);
      364    16783        %NEWRSW;
      365    16786        %SEARCH (RWD='DEPENDING',              RWNO=%RSV_WRD_DEPENDING);
      366    16801        %NEWRSW;
      367    16804        %SEARCH (RWD='DESCENDING',             RWNO=%RSV_WRD_DESCENDING);
      368    16819        %NEWRSW;
      369    16822        %SEARCH (RWD='DESCRIPTORS',            RWNO=%RSV_WRD_DESCRIPTORS);
      370    16837        %NEWRSW;
      371    16840        %SEARCH (RWD='DESTINATION',            RWNO=%RSV_WRD_DESTINATION);
      372    16855        %NEWRSW;
      373    16858        %SEARCH (RWD='DETACH',                 RWNO=%RSV_WRD_DETACH);
      374    16873        %NEWRSW;
      375    16876        %SEARCH (RWD='DETAIL',                 RWNO=%RSV_WRD_DETAIL);
      376    16891        %NEWRSW;
      377    16894        %SEARCH (RWD='DEVICE',                 RWNO=%RSV_WRD_DEVICE);
      378    16909        %NEWRSW;
      379    16912        %SEARCH (RWD='DISABLE',                RWNO=%RSV_WRD_DISABLE);
      380    16927        %NEWRSW;
      381    16930        %SEARCH (RWD='DISCONNECT',             RWNO=%RSV_WRD_DISCONNECT);
      382    16945        %NEWRSW;
PL6.E3A0      #001=COBOLRW File=COBOLRW.:Z8A6TSI                                 SAT 08/09/97 09:25 Page:12
      383    16948        %SEARCH (RWD='DISPLAY',                RWNO=%RSV_WRD_DISPLAY);
      384    16963        %NEWRSW;
      385    16966        %SEARCH (RWD='DISPLAY_1',              RWNO=%RSV_WRD_DISPLAY_1);
      386    16981        %NEWRSW;
      387    16984        %SEARCH (RWD='DISPLAY-2',              RWNO=%RSV_WRD_DISPLAY_2);
      388    16999        %NEWRSW;
      389    17002        %SEARCH (RWD='DIVIDE',                 RWNO=%RSV_WRD_DIVIDE);
      390    17017        %NEWRSW;
      391    17020        %SEARCH (RWD='DIVISION',               RWNO=%RSV_WRD_DIVISION);
      392    17035        %NEWRSW;
      393    17038        %SEARCH (RWD='DOWN',                   RWNO=%RSV_WRD_DOWN);
      394    17053        %NEWRSW;
      395    17056        %SEARCH (RWD='DUPLICATE',              RWNO=%RSV_WRD_DUPLICATE);
      396    17071        %NEWRSW;
      397    17074        %SEARCH (RWD='DUPLICATES',             RWNO=%RSV_WRD_DUPLICATES);
      398    17089        %NEWRSW;
      399    17092        %SEARCH (RWD='DYNAMIC',                RWNO=%RSV_WRD_DYNAMIC);
      400    17107        %NEWRSW;
      401    17110        %SEARCH (RWD='EBCDIC',                 RWNO=%RSV_WRD_EBCDIC);
      402    17125        %NEWRSW;
      403    17128        %SEARCH (RWD='EGI',                    RWNO=%RSV_WRD_EGI);
      404    17143        %NEWRSW;
      405    17146        %SEARCH (RWD='ELSE',                   RWNO=%RSV_WRD_ELSE);
      406    17161        %SEARCH (RWD='OTHERWISE',              RWNO=%RSV_WRD_ELSE);
      407    17176        %NEWRSW;
      408    17179        %SEARCH (RWD='EMI',                    RWNO=%RSV_WRD_EMI);
      409    17194        %NEWRSW;
      410    17197        %SEARCH (RWD='EMPTY',                  RWNO=%RSV_WRD_EMPTY);
      411    17212        %NEWRSW;
      412    17215        %SEARCH (RWD='ENABLE',                 RWNO=%RSV_WRD_ENABLE);
      413    17230        %NEWRSW;
      414    17233        %SEARCH (RWD='END',                    RWNO=%RSV_WRD_END, AREAA=TRUE);
      415    17248        %NEWRSW;
      416    17251        %SEARCH (RWD='END-ADD',                RWNO=%RSV_WRD_END_ADD);
      417    17266        %NEWRSW;
      418    17269        %SEARCH (RWD='END-CALL',               RWNO=%RSV_WRD_END_CALL);
      419    17284        %NEWRSW;
PL6.E3A0      #001=COBOLRW File=COBOLRW.:Z8A6TSI                                 SAT 08/09/97 09:25 Page:13
      420    17287        %SEARCH (RWD='END-COMPUTE',            RWNO=%RSV_WRD_END_COMPUTE);
      421    17302        %NEWRSW;
      422    17305        %SEARCH (RWD='END-DELETE',             RWNO=%RSV_WRD_END_DELETE);
      423    17320        %NEWRSW;
      424    17323        %SEARCH (RWD='END-DIVIDE',             RWNO=%RSV_WRD_END_DIVIDE);
      425    17338        %NEWRSW;
      426    17341        %SEARCH (RWD='END-EVALUATE',           RWNO=%RSV_WRD_END_EVALUATE);
      427    17356        %NEWRSW;
      428    17359        %SEARCH (RWD='END-IF',                 RWNO=%RSV_WRD_END_IF);
      429    17374        %NEWRSW;
      430    17377        %SEARCH (RWD='END-MULTIPLY',           RWNO=%RSV_WRD_END_MULTIPLY);
      431    17392        %NEWRSW;
      432    17395        %SEARCH (RWD='END-OF-FILE',            RWNO=%RSV_WRD_END_OF_FILE);
      433    17410        %NEWRSW;
      434    17413        %SEARCH (RWD='END-OF-PAGE',            RWNO=%RSV_WRD_END_OF_PAGE);
      435    17428        %SEARCH (RWD='EOP',                    RWNO=%RSV_WRD_END_OF_PAGE) ;
      436    17443        %NEWRSW;
      437    17446        %SEARCH (RWD='END-OF-TAPE',            RWNO=%RSV_WRD_END_OF_TAPE);
      438    17461        %NEWRSW;
      439    17464        %SEARCH (RWD='END-PERFORM',            RWNO=%RSV_WRD_END_PERFORM);
      440    17479        %NEWRSW;
      441    17482        %SEARCH (RWD='END-READ',               RWNO=%RSV_WRD_END_READ);
      442    17497        %NEWRSW;
      443    17500        %SEARCH (RWD='END-RECEIVE',            RWNO=%RSV_WRD_END_RECEIVE);
      444    17515        %NEWRSW;
      445    17518        %SEARCH (RWD='END-RETURN',             RWNO=%RSV_WRD_END_RETURN);
      446    17533        %NEWRSW;
      447    17536        %SEARCH (RWD='END-REWRITE',            RWNO=%RSV_WRD_END_REWRITE);
      448    17551        %NEWRSW;
      449    17554        %SEARCH (RWD='END-SEARCH',             RWNO=%RSV_WRD_END_SEARCH);
      450    17569        %NEWRSW;
      451    17572        %SEARCH (RWD='END-START',              RWNO=%RSV_WRD_END_START);
      452    17587        %NEWRSW;
      453    17590        %SEARCH (RWD='END-STRING',             RWNO=%RSV_WRD_END_STRING);
      454    17605        %NEWRSW;
      455    17608        %SEARCH (RWD='END-SUBTRACT',           RWNO=%RSV_WRD_END_SUBTRACT);
      456    17623        %NEWRSW;
PL6.E3A0      #001=COBOLRW File=COBOLRW.:Z8A6TSI                                 SAT 08/09/97 09:25 Page:14
      457    17626        %SEARCH (RWD='END-UNSTRING',           RWNO=%RSV_WRD_END_UNSTRING);
      458    17641        %NEWRSW;
      459    17644        %SEARCH (RWD='END-WRITE',              RWNO=%RSV_WRD_END_WRITE);
      460    17659        %NEWRSW;
      461    17662        %SEARCH (RWD='ENDING',                 RWNO=%RSV_WRD_ENDING);
      462    17677        %NEWRSW;
      463    17680        %SEARCH (RWD='ENTRY',                  RWNO=%RSV_WRD_ENTRY);
      464    17695        %NEWRSW;
      465    17698        %SEARCH (RWD='ENVIRONMENT',            RWNO=%RSV_WRD_ENVIRONMENT, MUST_AREAA=TRUE);
      466    17713        %NEWRSW;
      467    17716        %SEARCH (RWD='EQUAL',                  RWNO=%RSV_WRD_EQUAL);
      468    17731        %SEARCH (RWD='EQUALS',                 RWNO=%RSV_WRD_EQUAL);
      469    17746        %NEWRSW;
      470    17749        %SEARCH (RWD='ERASE',                  RWNO=%RSV_WRD_ERASE);
      471    17764        %NEWRSW;
      472    17767        %SEARCH (RWD='ERROR',                  RWNO=%RSV_WRD_ERROR);
      473    17782        %NEWRSW;
      474    17785        %SEARCH (RWD='ESI',                    RWNO=%RSV_WRD_ESI);
      475    17800        %NEWRSW;
      476    17803        %SEARCH (RWD='EVALUATE',               RWNO=%RSV_WRD_EVALUATE);
      477    17818        %NEWRSW;
      478    17821        %SEARCH (RWD='EVERY',                  RWNO=%RSV_WRD_EVERY);
      479    17836        %NEWRSW;
      480    17839        %SEARCH (RWD='EXAMINE',                RWNO=%RSV_WRD_EXAMINE);
      481    17854        %NEWRSW;
      482    17857        %SEARCH (RWD='EXCEEDS',                RWNO=%RSV_WRD_EXCEEDS);
      483    17872        %NEWRSW;
      484    17875        %SEARCH (RWD='EXCEPTION',              RWNO=%RSV_WRD_EXCEPTION);
      485    17890        %NEWRSW;
      486    17893        %SEARCH (RWD='EXIT',                   RWNO=%RSV_WRD_EXIT);
      487    17908        %NEWRSW;
      488    17911        %SEARCH (RWD='EXTEND',                 RWNO=%RSV_WRD_EXTEND);
      489    17926        %NEWRSW;
      490    17929        %SEARCH (RWD='EXTERNAL',               RWNO=%RSV_WRD_EXTERNAL);
      491    17944        %NEWRSW;
      492    17947        %SEARCH (RWD='FALSE',                  RWNO=%RSV_WRD_FALSE);
      493    17962        %NEWRSW;
PL6.E3A0      #001=COBOLRW File=COBOLRW.:Z8A6TSI                                 SAT 08/09/97 09:25 Page:15
      494    17965        %SEARCH (RWD='FD',                     RWNO=%RSV_WRD_FD);
      495    17980        %NEWRSW;
      496    17983        %SEARCH (RWD='FILE',                   RWNO=%RSV_WRD_FILE);
      497    17998        %NEWRSW;
      498    18001        %SEARCH (RWD='FILE-CONTROL',           RWNO=%RSV_WRD_FILE_CONTROL, MUST_AREAA=TRUE);
      499    18016        %NEWRSW;
      500    18019        %SEARCH (RWD='FILE-ID',                RWNO=%RSV_WRD_FILE_ID);
      501    18034        %NEWRSW;
      502    18037        %SEARCH (RWD='FILE-SERIAL-NUMBER',     RWNO=%RSV_WRD_FILE_SERIAL_NUMBER);
      503    18052        %NEWRSW;
      504    18055        %SEARCH (RWD='FILLER',                 RWNO=%RSV_WRD_FILLER);
      505    18070        %NEWRSW;
      506    18073        %SEARCH (RWD='FINAL',                  RWNO=%RSV_WRD_FINAL);
      507    18088        %NEWRSW;
      508    18091        %SEARCH (RWD='FIND',                   RWNO=%RSV_WRD_FIND);
      509    18106        %NEWRSW;
      510    18109        %SEARCH (RWD='FINISH',                 RWNO=%RSV_WRD_FINISH);
      511    18124        %NEWRSW;
      512    18127        %SEARCH (RWD='FIRST',                  RWNO=%RSV_WRD_FIRST);
      513    18142        %NEWRSW;
      514    18145        %SEARCH (RWD='FLR',                    RWNO=%RSV_WRD_FLR);
      515    18160        %NEWRSW;
      516    18163        %SEARCH (RWD='FOOTING',                RWNO=%RSV_WRD_FOOTING);
      517    18178        %NEWRSW;
      518    18181        %SEARCH (RWD='FOR',                    RWNO=%RSV_WRD_FOR);
      519    18196        %NEWRSW;
      520    18199        %SEARCH (RWD='FORCE',                  RWNO=%RSV_WRD_FORCE);
      521    18214        %NEWRSW;
      522    18217        %SEARCH (RWD='FROM',                   RWNO=%RSV_WRD_FROM);
      523    18232        %NEWRSW;
      524    18235        %SEARCH (RWD='GBCD',                   RWNO=%RSV_WRD_GBCD);
      525    18250        %NEWRSW;
      526    18253        %SEARCH (RWD='GCOS',                   RWNO=%RSV_WRD_GCOS);
      527    18268        %NEWRSW;
      528    18271        %SEARCH (RWD='GENERATE',               RWNO=%RSV_WRD_GENERATE);
      529    18286        %NEWRSW;
      530    18289        %SEARCH (RWD='GENERATION',             RWNO=%RSV_WRD_GENERATION);
PL6.E3A0      #001=COBOLRW File=COBOLRW.:Z8A6TSI                                 SAT 08/09/97 09:25 Page:16
      531    18304        %NEWRSW;
      532    18307        %SEARCH (RWD='GET',                    RWNO=%RSV_WRD_GET);
      533    18322        %NEWRSW;
      534    18325        %SEARCH (RWD='GFRC',                   RWNO=%RSV_WRD_GFRC);
      535    18340        %NEWRSW;
      536    18343        %SEARCH (RWD='GIVING',                 RWNO=%RSV_WRD_GIVING);
      537    18358        %NEWRSW;
      538    18361        %SEARCH (RWD='GLOBAL',                 RWNO=%RSV_WRD_GLOBAL);
      539    18376        %NEWRSW;
      540    18379        %SEARCH (RWD='GO',                     RWNO=%RSV_WRD_GO);
      541    18394        %NEWRSW;
      542    18397        %SEARCH (RWD='GRAPHIC',                RWNO=%RSV_WRD_GRAPHIC);
      543    18412        %NEWRSW;
      544    18415        %SEARCH (RWD='GREATER',                RWNO=%RSV_WRD_GREATER);
      545    18430        %NEWRSW;
      546    18433        %SEARCH (RWD='GROUP',                  RWNO=%RSV_WRD_GROUP);
      547    18448        %NEWRSW;
      548    18451        %SEARCH (RWD='H-2000',                 RWNO=%RSV_WRD_H_2000);
      549    18466        %SEARCH (RWD='H-2004',                 RWNO=%RSV_WRD_H_2000);
      550    18481        %NEWRSW;
      551    18484        %SEARCH (RWD='HBCD',                   RWNO=%RSV_WRD_HBCD);
      552    18499        %NEWRSW;
      553    18502        %SEARCH (RWD='HEADING',                RWNO=%RSV_WRD_HEADING);
      554    18517        %NEWRSW;
      555    18520        %SEARCH (RWD='HIGH-VALUES',            RWNO=%RSV_WRD_HIGH_VALUES, FIG_CONSTANT=TRUE)
             18520            ;
      556    18535        %SEARCH (RWD='HIGH-VALUE',             RWNO=%RSV_WRD_HIGH_VALUES, FIG_CONSTANT=TRUE)
             18535            ;
      557    18550        %NEWRSW;
      558    18553        %SEARCH (RWD='HIS-SERIES-60',          RWNO=%RSV_WRD_HIS_SERIES_60);
      559    18568        %NEWRSW;
      560    18571        %SEARCH (RWD='IO8',                    RWNO=%RSV_WRD_IO8);
      561    18586        %NEWRSW;
      562    18589        %SEARCH (RWD='I-O',                    RWNO=%RSV_WRD_I_O);
      563    18604        %NEWRSW;
      564    18607        %SEARCH (RWD='I-O-CONTROL',            RWNO=%RSV_WRD_I_O_CONTROL, MUST_AREAA=TRUE);
      565    18622        %NEWRSW;
PL6.E3A0      #001=COBOLRW File=COBOLRW.:Z8A6TSI                                 SAT 08/09/97 09:25 Page:17
      566    18625        %SEARCH (RWD='IBM-DOS',                RWNO=%RSV_WRD_IBM_DOS);
      567    18640        %NEWRSW;
      568    18643        %SEARCH (RWD='IBM-OS',                 RWNO=%RSV_WRD_IBM_OS);
      569    18658        %NEWRSW;
      570    18661        %SEARCH (RWD='IDENTIFICATION',         RWNO=%RSV_WRD_IDENTIFICATION, MUST_AREAA=TRUE
             18661            );
      571    18676        %NEWRSW;
      572    18679        %SEARCH (RWD='IDS-II',                 RWNO=%RSV_WRD_IDS_II);
      573    18694        %NEWRSW;
      574    18697        %SEARCH (RWD='IF',                     RWNO=%RSV_WRD_IF);
      575    18712        %NEWRSW;
      576    18715        %SEARCH (RWD='IN',                     RWNO=%RSV_WRD_IN);
      577    18730        %NEWRSW;
      578    18733        %SEARCH (RWD='INCLUDING',              RWNO=%RSV_WRD_INCLUDING);
      579    18748        %NEWRSW;
      580    18751        %SEARCH (RWD='INDEX',                  RWNO=%RSV_WRD_INDEX);
      581    18766        %NEWRSW;
      582    18769        %SEARCH (RWD='INDEXED',                RWNO=%RSV_WRD_INDEXED);
      583    18784        %NEWRSW;
      584    18787        %SEARCH (RWD='INDICATE',               RWNO=%RSV_WRD_INDICATE);
      585    18802        %NEWRSW;
      586    18805        %SEARCH (RWD='INITIAL',                RWNO=%RSV_WRD_INITIAL);
      587    18820        %NEWRSW;
      588    18823        %SEARCH (RWD='INITIALIZE',             RWNO=%RSV_WRD_INITIALIZE);
      589    18838        %NEWRSW;
      590    18841        %SEARCH (RWD='INITIATE',               RWNO=%RSV_WRD_INITIATE);
      591    18856        %NEWRSW;
      592    18859        %SEARCH (RWD='INPUT',                  RWNO=%RSV_WRD_INPUT);
      593    18874        %NEWRSW;
      594    18877        %SEARCH (RWD='INPUT-OUTPUT',           RWNO=%RSV_WRD_INPUT_OUTPUT, MUST_AREAA=TRUE);
      595    18892        %NEWRSW;
      596    18895        %SEARCH (RWD='INSPECT',                RWNO=%RSV_WRD_INSPECT);
      597    18910        %NEWRSW;
      598    18913        %SEARCH (RWD='INSTALLATION',           RWNO=%RSV_WRD_INSTALLATION, MUST_AREAA=TRUE);
      599    18928        %NEWRSW;
      600    18931        %SEARCH (RWD='INTERCHANGE',            RWNO=%RSV_WRD_INTERCHANGE);
      601    18946        %NEWRSW;
PL6.E3A0      #001=COBOLRW File=COBOLRW.:Z8A6TSI                                 SAT 08/09/97 09:25 Page:18
      602    18949        %SEARCH (RWD='INTO',                   RWNO=%RSV_WRD_INTO);
      603    18964        %NEWRSW;
      604    18967        %SEARCH (RWD='INVALID',                RWNO=%RSV_WRD_INVALID);
      605    18982        %NEWRSW;
      606    18985        %SEARCH (RWD='IS',                     RWNO=%RSV_WRD_IS);
      607    19000        %NEWRSW;
      608    19003        %SEARCH (RWD='ISP',                    RWNO=%RSV_WRD_ISP);
      609    19018        %NEWRSW;
      610    19021        %SEARCH (RWD='JIS',                    RWNO=%RSV_WRD_JIS);
      611    19036        %NEWRSW;
      612    19039        %SEARCH (RWD='JUSTIFIED',              RWNO=%RSV_WRD_JUSTIFIED);
      613    19054        %SEARCH (RWD='JUST',                   RWNO=%RSV_WRD_JUSTIFIED);
      614    19069        %NEWRSW;
      615    19072        %SEARCH (RWD='KEY',                    RWNO=%RSV_WRD_KEY);
      616    19087        %NEWRSW;
      617    19090        %SEARCH (RWD='KEYED',                  RWNO=%RSV_WRD_KEYED);
      618    19105        %NEWRSW;
      619    19108        %SEARCH (RWD='LABEL',                  RWNO=%RSV_WRD_LABEL);
      620    19123        %NEWRSW;
      621    19126        %SEARCH (RWD='LABEL-DAY',              RWNO=%RSV_WRD_LABEL_DAY);
      622    19141        %NEWRSW;
      623    19144        %SEARCH (RWD='LABEL-IDENTIFIER',       RWNO=%RSV_WRD_LABEL_IDENTIFIER);
      624    19159        %NEWRSW;
      625    19162        %SEARCH (RWD='LABEL-YEAR',             RWNO=%RSV_WRD_LABEL_YEAR);
      626    19177        %NEWRSW;
      627    19180        %SEARCH (RWD='LAST',                   RWNO=%RSV_WRD_LAST);
      628    19195        %NEWRSW;
      629    19198        %SEARCH (RWD='LEADING',                RWNO=%RSV_WRD_LEADING);
      630    19213        %NEWRSW;
      631    19216        %SEARCH (RWD='LEFT',                   RWNO=%RSV_WRD_LEFT);
      632    19231        %NEWRSW;
      633    19234        %SEARCH (RWD='LENGTH',                 RWNO=%RSV_WRD_LENGTH);
      634    19249        %NEWRSW;
      635    19252        %SEARCH (RWD='LESS',                   RWNO=%RSV_WRD_LESS);
      636    19267        %NEWRSW;
      637    19270        %SEARCH (RWD='LEVEL-66-ASCII',         RWNO=%RSV_WRD_LEVEL_66_ASCII);
      638    19285        %SEARCH (RWD='CP-6',                   RWNO=%RSV_WRD_LEVEL_66_ASCII);
PL6.E3A0      #001=COBOLRW File=COBOLRW.:Z8A6TSI                                 SAT 08/09/97 09:25 Page:19
      639    19300        %SEARCH (RWD='DPS-8',                  RWNO=%RSV_WRD_LEVEL_66_ASCII);
      640    19315        %SEARCH (RWD='LEVEL-6',                RWNO=%RSV_WRD_LEVEL_66_ASCII);
      641    19330        %SEARCH (RWD='LEVEL-62',               RWNO=%RSV_WRD_LEVEL_66_ASCII);
      642    19345        %SEARCH (RWD='LEVEL-64',               RWNO=%RSV_WRD_LEVEL_66_ASCII);
      643    19360        %SEARCH (RWD='LEVEL-66',               RWNO=%RSV_WRD_LEVEL_66_ASCII);
      644    19375        %SEARCH (RWD='LEVEL-66-EBCDIC',        RWNO=%RSV_WRD_LEVEL_66_ASCII);
      645    19390        %SEARCH (RWD='LEVEL-68',               RWNO=%RSV_WRD_LEVEL_66_ASCII);
      646    19405        %SEARCH (RWD='LEVEL-68-ASCII',         RWNO=%RSV_WRD_LEVEL_66_ASCII);
      647    19420        %NEWRSW;
      648    19423        %SEARCH (RWD='LIMIT',                  RWNO=%RSV_WRD_LIMIT);
      649    19438        %NEWRSW;
      650    19441        %SEARCH (RWD='LIMITS',                 RWNO=%RSV_WRD_LIMITS);
      651    19456        %NEWRSW;
      652    19459        %SEARCH (RWD='LINAGE',                 RWNO=%RSV_WRD_LINAGE);
      653    19474        %NEWRSW;
      654    19477        %SEARCH (RWD='LINE',                   RWNO=%RSV_WRD_LINE);
      655    19492        %NEWRSW;
      656    19495        %SEARCH (RWD='LINES',                  RWNO=%RSV_WRD_LINES);
      657    19510        %NEWRSW;
      658    19513        %SEARCH (RWD='LINKAGE',                RWNO=%RSV_WRD_LINKAGE, MUST_AREAA=TRUE);
      659    19528        %NEWRSW;
      660    19531        %SEARCH (RWD='LOAD',                   RWNO=%RSV_WRD_LOAD);
      661    19546        %NEWRSW;
      662    19549        %SEARCH (RWD='LOCALLY',                RWNO=%RSV_WRD_LOCALLY);
      663    19564        %NEWRSW;
      664    19567        %SEARCH (RWD='LOCK',                   RWNO=%RSV_WRD_LOCK);
      665    19582        %NEWRSW;
      666    19585        %SEARCH (RWD='LOW-VALUES',             RWNO=%RSV_WRD_LOW_VALUES, FIG_CONSTANT=TRUE);
      667    19600        %SEARCH (RWD='LOW-VALUE',              RWNO=%RSV_WRD_LOW_VALUES, FIG_CONSTANT=TRUE);
      668    19615        %NEWRSW;
      669    19618        %SEARCH (RWD='MAXIMUM',                RWNO=%RSV_WRD_MAXIMUM);
      670    19633        %NEWRSW;
      671    19636        %SEARCH (RWD='MEMBER',                 RWNO=%RSV_WRD_MEMBER);
      672    19651        %NEWRSW;
      673    19654        %SEARCH (RWD='MEMBERS',                RWNO=%RSV_WRD_MEMBERS);
      674    19669        %NEWRSW;
      675    19672        %SEARCH (RWD='MEMBERSHIP',             RWNO=%RSV_WRD_MEMBERSHIP);
PL6.E3A0      #001=COBOLRW File=COBOLRW.:Z8A6TSI                                 SAT 08/09/97 09:25 Page:20
      676    19687        %NEWRSW;
      677    19690        %SEARCH (RWD='MEMORY',                 RWNO=%RSV_WRD_MEMORY);
      678    19705        %NEWRSW;
      679    19708        %SEARCH (RWD='MERGE',                  RWNO=%RSV_WRD_MERGE);
      680    19723        %NEWRSW;
      681    19726        %SEARCH (RWD='MESSAGE',                RWNO=%RSV_WRD_MESSAGE);
      682    19741        %NEWRSW;
      683    19744        %SEARCH (RWD='MODE',                   RWNO=%RSV_WRD_MODE);
      684    19759        %NEWRSW;
      685    19762        %SEARCH (RWD='MODIFICATION',           RWNO=%RSV_WRD_MODIFICATION);
      686    19777        %NEWRSW;
      687    19780        %SEARCH (RWD='MODIFY',                 RWNO=%RSV_WRD_MODIFY);
      688    19795        %NEWRSW;
      689    19798        %SEARCH (RWD='MODULES',                RWNO=%RSV_WRD_MODULES);
      690    19813        %NEWRSW;
      691    19816        %SEARCH (RWD='MOVE',                   RWNO=%RSV_WRD_MOVE);
      692    19831        %NEWRSW;
      693    19834        %SEARCH (RWD='MULTICS',                RWNO=%RSV_WRD_MULTICS);
      694    19849        %NEWRSW;
      695    19852        %SEARCH (RWD='MULTIPLE',               RWNO=%RSV_WRD_MULTIPLE);
      696    19867        %NEWRSW;
      697    19870        %SEARCH (RWD='MULTIPLY',               RWNO=%RSV_WRD_MULTIPLY);
      698    19885        %NEWRSW;
      699    19888        %SEARCH (RWD='NATIVE',                 RWNO=%RSV_WRD_NATIVE);
      700    19903        %NEWRSW;
      701    19906        %SEARCH (RWD='NEGATIVE',               RWNO=%RSV_WRD_NEGATIVE);
      702    19921        %NEWRSW;
      703    19924        %SEARCH (RWD='NEXT',                   RWNO=%RSV_WRD_NEXT);
      704    19939        %NEWRSW;
      705    19942        %SEARCH (RWD='NO',                     RWNO=%RSV_WRD_NO);
      706    19957        %NEWRSW;
      707    19960        %SEARCH (RWD='NOMINAL',                RWNO=%RSV_WRD_NOMINAL);
      708    19975        %NEWRSW;
      709    19978        %SEARCH (RWD='NOT',                    RWNO=%RSV_WRD_NOT);
      710    19993        %NEWRSW;
      711    19996        %SEARCH (RWD='NOT ON EXCEPTION',       RWNO=%RSV_WRD_NOT_ON_EXCEPTION);
      712    20011        %NEWRSW;
PL6.E3A0      #001=COBOLRW File=COBOLRW.:Z8A6TSI                                 SAT 08/09/97 09:25 Page:21
      713    20014        %SEARCH (RWD='NO DATA',                RWNO=%RSV_WRD_NO_DATA);
      714    20029        %NEWRSW;
      715    20032        %SEARCH (RWD='NULL',                   RWNO=%RSV_WRD_NULL);
      716    20047        %NEWRSW;
      717    20050        %SEARCH (RWD='NUMBER',                 RWNO=%RSV_WRD_NUMBER);
      718    20065        %NEWRSW;
      719    20068        %SEARCH (RWD='NUMERIC',                RWNO=%RSV_WRD_NUMERIC);
      720    20083        %NEWRSW;
      721    20086        %SEARCH (RWD='NUMERIC-EDITED',         RWNO=%RSV_WRD_NUMERIC_EDITED);
      722    20101        %NEWRSW;
      723    20104        %SEARCH (RWD='OBJECT',                 RWNO=%RSV_WRD_OBJECT);
      724    20119        %NEWRSW;
      725    20122        %SEARCH (RWD='OBJECT-COMPUTER',        RWNO=%RSV_WRD_OBJECT_COMPUTER, MUST_AREAA=
             20122            TRUE);
      726    20137        %NEWRSW;
      727    20140        %SEARCH (RWD='OCCURS',                 RWNO=%RSV_WRD_OCCURS);
      728    20155        %NEWRSW;
      729    20158        %SEARCH (RWD='OF',                     RWNO=%RSV_WRD_OF);
      730    20173        %NEWRSW;
      731    20176        %SEARCH (RWD='OFF',                    RWNO=%RSV_WRD_OFF);
      732    20191        %NEWRSW;
      733    20194        %SEARCH (RWD='OMITTED',                RWNO=%RSV_WRD_OMITTED);
      734    20209        %NEWRSW;
      735    20212        %SEARCH (RWD='ON',                     RWNO=%RSV_WRD_ON);
      736    20227        %NEWRSW;
      737    20230        %SEARCH (RWD='ONLY',                   RWNO=%RSV_WRD_ONLY);
      738    20245        %NEWRSW;
      739    20248        %SEARCH (RWD='OPEN',                   RWNO=%RSV_WRD_OPEN);
      740    20263        %NEWRSW;
      741    20266        %SEARCH (RWD='OPERATIONAL',            RWNO=%RSV_WRD_OPERATIONAL) ;
      742    20281        %NEWRSW;
      743    20284        %SEARCH (RWD='OPTIONAL',               RWNO=%RSV_WRD_OPTIONAL);
      744    20299        %NEWRSW;
      745    20302        %SEARCH (RWD='OR',                     RWNO=%RSV_WRD_OR);
      746    20317        %NEWRSW;
      747    20320        %SEARCH (RWD='ORDER',                  RWNO=%RSV_WRD_ORDER);
      748    20335        %NEWRSW;
PL6.E3A0      #001=COBOLRW File=COBOLRW.:Z8A6TSI                                 SAT 08/09/97 09:25 Page:22
      749    20338        %SEARCH (RWD='ORGANIZATION',           RWNO=%RSV_WRD_ORGANIZATION);
      750    20353        %NEWRSW;
      751    20356        %SEARCH (RWD='OTHER',                  RWNO=%RSV_WRD_OTHER);
      752    20371        %NEWRSW;
      753    20374        %SEARCH (RWD='OUTPUT',                 RWNO=%RSV_WRD_OUTPUT);
      754    20389        %NEWRSW;
      755    20392        %SEARCH (RWD='OUTPUT-MODE',            RWNO=%RSV_WRD_OUTPUT_MODE);
      756    20407        %NEWRSW;
      757    20410        %SEARCH (RWD='OVERFLOW',               RWNO=%RSV_WRD_OVERFLOW);
      758    20425        %NEWRSW;
      759    20428        %SEARCH (RWD='OWNER',                  RWNO=%RSV_WRD_OWNER);
      760    20443        %NEWRSW;
      761    20446        %SEARCH (RWD='PADDING',                RWNO=%RSV_WRD_PADDING);
      762    20461        %NEWRSW;
      763    20464        %SEARCH (RWD='PAGE',                   RWNO=%RSV_WRD_PAGE);
      764    20479        %SEARCH (RWD='H-HOF',                  RWNO=%RSV_WRD_PAGE);
      765    20494        %NEWRSW;
      766    20497        %SEARCH (RWD='PERFORM',                RWNO=%RSV_WRD_PERFORM);
      767    20512        %NEWRSW;
      768    20515        %SEARCH (RWD='PERMANENT',              RWNO=%RSV_WRD_PERMANENT);
      769    20530        %NEWRSW;
      770    20533        %SEARCH (RWD='PF',                     RWNO=%RSV_WRD_PF);
      771    20548        %NEWRSW;
      772    20551        %SEARCH (RWD='PH',                     RWNO=%RSV_WRD_PH);
      773    20566        %NEWRSW;
      774    20569        %SEARCH (RWD='PICTURE',                RWNO=%RSV_WRD_PICTURE);
      775    20584        %SEARCH (RWD='PIC',                    RWNO=%RSV_WRD_PICTURE);
      776    20599        %NEWRSW;
      777    20602        %SEARCH (RWD='PLUS',                   RWNO=%RSV_WRD_PLUS);
      778    20617        %NEWRSW;
      779    20620        %SEARCH (RWD='POINTER',                RWNO=%RSV_WRD_POINTER);
      780    20635        %NEWRSW;
      781    20638        %SEARCH (RWD='POSITION',               RWNO=%RSV_WRD_POSITION);
      782    20653        %NEWRSW;
      783    20656        %SEARCH (RWD='POSITIONING',            RWNO=%RSV_WRD_POSITIONING);
      784    20671        %NEWRSW;
      785    20674        %SEARCH (RWD='POSITIVE',               RWNO=%RSV_WRD_POSITIVE);
PL6.E3A0      #001=COBOLRW File=COBOLRW.:Z8A6TSI                                 SAT 08/09/97 09:25 Page:23
      786    20689        %NEWRSW;
      787    20692        %SEARCH (RWD='PRECALCULATE',           RWNO=%RSV_WRD_PRECALCULATE);
      788    20707        %NEWRSW;
      789    20710        %SEARCH (RWD='PRINTING',               RWNO=%RSV_WRD_PRINTING);
      790    20725        %NEWRSW;
      791    20728        %SEARCH (RWD='PRIOR',                  RWNO=%RSV_WRD_PRIOR);
      792    20743        %NEWRSW;
      793    20746        %SEARCH (RWD='PRIVACY',                RWNO=%RSV_WRD_PRIVACY);
      794    20761        %NEWRSW;
      795    20764        %SEARCH (RWD='PROCEDURE',              RWNO=%RSV_WRD_PROCEDURE);
      796    20779        %NEWRSW;
      797    20782        %SEARCH (RWD='PROCEDURES',             RWNO=%RSV_WRD_PROCEDURES);
      798    20797        %NEWRSW;
      799    20800        %SEARCH (RWD='PROCEED',                RWNO=%RSV_WRD_PROCEED);
      800    20815        %NEWRSW;
      801    20818        %SEARCH (RWD='PROCESS-AREA',           RWNO=%RSV_WRD_PROCESS_AREA);
      802    20833        %NEWRSW;
      803    20836        %SEARCH (RWD='PROGRAM',                RWNO=%RSV_WRD_PROGRAM);
      804    20851        %NEWRSW;
      805    20854        %SEARCH (RWD='PROGRAM-ID',             RWNO=%RSV_WRD_PROGRAM_ID, MUST_AREAA=TRUE);
      806    20869        %NEWRSW;
      807    20872        %SEARCH (RWD='PROTECT',                RWNO=%RSV_WRD_PROTECT);
      808    20887        %NEWRSW;
      809    20890        %SEARCH (RWD='PURGE',                  RWNO=%RSV_WRD_PURGE);
      810    20905        %NEWRSW;
      811    20908        %SEARCH (RWD='QUEUE',                  RWNO=%RSV_WRD_QUEUE);
      812    20923        %NEWRSW;
      813    20926        %SEARCH (RWD='QUOTES',                 RWNO=%RSV_WRD_QUOTES, FIG_CONSTANT=TRUE);
      814    20941        %SEARCH (RWD='QUOTE',                  RWNO=%RSV_WRD_QUOTES, FIG_CONSTANT=TRUE);
      815    20956        %NEWRSW;
      816    20959        %SEARCH (RWD='RANDOM',                 RWNO=%RSV_WRD_RANDOM);
      817    20974        %NEWRSW;
      818    20977        %SEARCH (RWD='RD',                     RWNO=%RSV_WRD_RD);
      819    20992        %NEWRSW;
      820    20995        %SEARCH (RWD='READ',                   RWNO=%RSV_WRD_READ);
      821    21010        %NEWRSW;
      822    21013        %SEARCH (RWD='READY',                  RWNO=%RSV_WRD_READY);
PL6.E3A0      #001=COBOLRW File=COBOLRW.:Z8A6TSI                                 SAT 08/09/97 09:25 Page:24
      823    21028        %NEWRSW;
      824    21031        %SEARCH (RWD='REALM',                  RWNO=%RSV_WRD_REALM);
      825    21046        %NEWRSW;
      826    21049        %SEARCH (RWD='REALM-NAME',             RWNO=%RSV_WRD_REALM_NAME);
      827    21064        %NEWRSW;
      828    21067        %SEARCH (RWD='REALMS',                 RWNO=%RSV_WRD_REALMS);
      829    21082        %NEWRSW;
      830    21085        %SEARCH (RWD='RECEIVE',                RWNO=%RSV_WRD_RECEIVE);
      831    21100        %NEWRSW;
      832    21103        %SEARCH (RWD='RECORD',                 RWNO=%RSV_WRD_RECORD);
      833    21118        %NEWRSW;
      834    21121        %SEARCH (RWD='RECORD-NAME',            RWNO=%RSV_WRD_RECORD_NAME);
      835    21136        %NEWRSW;
      836    21139        %SEARCH (RWD='RECORDS',                RWNO=%RSV_WRD_RECORDS);
      837    21154        %NEWRSW;
      838    21157        %SEARCH (RWD='REDEFINES',              RWNO=%RSV_WRD_REDEFINES);
      839    21172        %NEWRSW;
      840    21175        %SEARCH (RWD='REEL',                   RWNO=%RSV_WRD_REEL);
      841    21190        %NEWRSW;
      842    21193        %SEARCH (RWD='REEL-NUMBER',            RWNO=%RSV_WRD_REEL_NUMBER);
      843    21208        %NEWRSW;
      844    21211        %SEARCH (RWD='REEL-SERIAL-NUMBER',     RWNO=%RSV_WRD_REEL_SERIAL_NUMBER);
      845    21226        %NEWRSW;
      846    21229        %SEARCH (RWD='REFERENCE',              RWNO=%RSV_WRD_REFERENCE);
      847    21244        %NEWRSW;
      848    21247        %SEARCH (RWD='REFERENCES',             RWNO=%RSV_WRD_REFERENCES);
      849    21262        %NEWRSW;
      850    21265        %SEARCH (RWD='RELATIVE',               RWNO=%RSV_WRD_RELATIVE);
      851    21280        %NEWRSW;
      852    21283        %SEARCH (RWD='RELEASE',                RWNO=%RSV_WRD_RELEASE);
      853    21298        %NEWRSW;
      854    21301        %SEARCH (RWD='REMAINDER',              RWNO=%RSV_WRD_REMAINDER);
      855    21316        %NEWRSW;
      856    21319        %SEARCH (RWD='REMOVAL',                RWNO=%RSV_WRD_REMOVAL);
      857    21334        %NEWRSW;
      858    21337        %SEARCH (RWD='RENAMES',                RWNO=%RSV_WRD_RENAMES);
      859    21352        %NEWRSW;
PL6.E3A0      #001=COBOLRW File=COBOLRW.:Z8A6TSI                                 SAT 08/09/97 09:25 Page:25
      860    21355        %SEARCH (RWD='REPLACEMENT',            RWNO=%RSV_WRD_REPLACEMENT);
      861    21370        %NEWRSW;
      862    21373        %SEARCH (RWD='REPLACING',              RWNO=%RSV_WRD_REPLACING);
      863    21388        %NEWRSW;
      864    21391        %SEARCH (RWD='REPORT',                 RWNO=%RSV_WRD_REPORT);
      865    21406        %NEWRSW;
      866    21409        %SEARCH (RWD='REPORTING',              RWNO=%RSV_WRD_REPORTING);
      867    21424        %NEWRSW;
      868    21427        %SEARCH (RWD='REPORTS',                RWNO=%RSV_WRD_REPORTS);
      869    21442        %NEWRSW;
      870    21445        %SEARCH (RWD='RERUN',                  RWNO=%RSV_WRD_RERUN);
      871    21460        %NEWRSW;
      872    21463        %SEARCH (RWD='RESERVE',                RWNO=%RSV_WRD_RESERVE);
      873    21478        %NEWRSW;
      874    21481        %SEARCH (RWD='RESET',                  RWNO=%RSV_WRD_RESET);
      875    21496        %NEWRSW;
      876    21499        %SEARCH (RWD='RETAIN',                 RWNO=%RSV_WRD_RETAIN);
      877    21514        %NEWRSW;
      878    21517        %SEARCH (RWD='RETAINING',              RWNO=%RSV_WRD_RETAINING);
      879    21532        %NEWRSW;
      880    21535        %SEARCH (RWD='RETENTION',              RWNO=%RSV_WRD_RETENTION);
      881    21550        %NEWRSW;
      882    21553        %SEARCH (RWD='RETENTION-PERIOD',       RWNO=%RSV_WRD_RETENTION_PERIOD);
      883    21568        %NEWRSW;
      884    21571        %SEARCH (RWD='RETRIEVAL',              RWNO=%RSV_WRD_RETRIEVAL);
      885    21586        %NEWRSW;
      886    21589        %SEARCH (RWD='RETURN',                 RWNO=%RSV_WRD_RETURN);
      887    21604        %NEWRSW;
      888    21607        %SEARCH (RWD='REVERSED',               RWNO=%RSV_WRD_REVERSED);
      889    21622        %NEWRSW;
      890    21625        %SEARCH (RWD='REWIND',                 RWNO=%RSV_WRD_REWIND);
      891    21640        %NEWRSW;
      892    21643        %SEARCH (RWD='REWRITE',                RWNO=%RSV_WRD_REWRITE);
      893    21658        %NEWRSW;
      894    21661        %SEARCH (RWD='RF',                     RWNO=%RSV_WRD_RF);
      895    21676        %NEWRSW;
      896    21679        %SEARCH (RWD='RH',                     RWNO=%RSV_WRD_RH);
PL6.E3A0      #001=COBOLRW File=COBOLRW.:Z8A6TSI                                 SAT 08/09/97 09:25 Page:26
      897    21694        %NEWRSW;
      898    21697        %SEARCH (RWD='RIGHT',                  RWNO=%RSV_WRD_RIGHT);
      899    21712        %NEWRSW;
      900    21715        %SEARCH (RWD='ROLLBACK',               RWNO=%RSV_WRD_ROLLBACK);
      901    21730        %NEWRSW;
      902    21733        %SEARCH (RWD='ROUNDED',                RWNO=%RSV_WRD_ROUNDED);
      903    21748        %NEWRSW;
      904    21751        %SEARCH (RWD='RUN',                    RWNO=%RSV_WRD_RUN);
      905    21766        %NEWRSW;
      906    21769        %SEARCH (RWD='SAME',                   RWNO=%RSV_WRD_SAME);
      907    21784        %NEWRSW;
      908    21787        %SEARCH (RWD='SCALAR',                 RWNO=%RSV_WRD_SCALAR);
      909    21802        %NEWRSW;
      910    21805        %SEARCH (RWD='SD',                     RWNO=%RSV_WRD_SD);
      911    21820        %NEWRSW;
      912    21823        %SEARCH (RWD='SEARCH',                 RWNO=%RSV_WRD_SEARCH);
      913    21838        %NEWRSW;
      914    21841        %SEARCH (RWD='SECTION',                RWNO=%RSV_WRD_SECTION, AREAA=TRUE);
      915    21856        %NEWRSW;
      916    21859        %SEARCH (RWD='SECURITY',               RWNO=%RSV_WRD_SECURITY, MUST_AREAA=TRUE);
      917    21874        %NEWRSW;
      918    21877        %SEARCH (RWD='SEGMENT',                RWNO=%RSV_WRD_SEGMENT);
      919    21892        %NEWRSW;
      920    21895        %SEARCH (RWD='SEGMENT-LIMIT',          RWNO=%RSV_WRD_SEGMENT_LIMIT);
      921    21910        %NEWRSW;
      922    21913        %SEARCH (RWD='SELECT',                 RWNO=%RSV_WRD_SELECT);
      923    21928        %NEWRSW;
      924    21931        %SEARCH (RWD='SEND',                   RWNO=%RSV_WRD_SEND);
      925    21946        %NEWRSW;
      926    21949        %SEARCH (RWD='SENTENCE',               RWNO=%RSV_WRD_SENTENCE);
      927    21964        %NEWRSW;
      928    21967        %SEARCH (RWD='SENTINEL',               RWNO=%RSV_WRD_SENTINEL);
      929    21982        %NEWRSW;
      930    21985        %SEARCH (RWD='SEPARATE',               RWNO=%RSV_WRD_SEPARATE);
      931    22000        %NEWRSW;
      932    22003        %SEARCH (RWD='SEQUENCE',               RWNO=%RSV_WRD_SEQUENCE);
      933    22018        %NEWRSW;
PL6.E3A0      #001=COBOLRW File=COBOLRW.:Z8A6TSI                                 SAT 08/09/97 09:25 Page:27
      934    22021        %SEARCH (RWD='SEQUENTIAL',             RWNO=%RSV_WRD_SEQUENTIAL);
      935    22036        %NEWRSW;
      936    22039        %SEARCH (RWD='SET',                    RWNO=%RSV_WRD_SET);
      937    22054        %NEWRSW;
      938    22057        %SEARCH (RWD='SETS',                   RWNO=%RSV_WRD_SETS);
      939    22072        %NEWRSW;
      940    22075        %SEARCH (RWD='SIGN',                   RWNO=%RSV_WRD_SIGN);
      941    22090        %NEWRSW;
      942    22093        %SEARCH (RWD='SIZE',                   RWNO=%RSV_WRD_SIZE);
      943    22108        %NEWRSW;
      944    22111        %SEARCH (RWD='SORT',                   RWNO=%RSV_WRD_SORT);
      945    22126        %NEWRSW;
      946    22129        %SEARCH (RWD='SORT-MERGE',             RWNO=%RSV_WRD_SORT_MERGE);
      947    22144        %NEWRSW;
      948    22147        %SEARCH (RWD='SOURCE',                 RWNO=%RSV_WRD_SOURCE);
      949    22162        %NEWRSW;
      950    22165        %SEARCH (RWD='SOURCE-COMPUTER',        RWNO=%RSV_WRD_SOURCE_COMPUTER, MUST_AREAA=
             22165            TRUE);
      951    22180        %NEWRSW;
      952    22183        %SEARCH (RWD='SPACES',                 RWNO=%RSV_WRD_SPACES, FIG_CONSTANT=TRUE);
      953    22198        %SEARCH (RWD='SPACE',                  RWNO=%RSV_WRD_SPACES, FIG_CONSTANT=TRUE);
      954    22213        %NEWRSW;
      955    22216        %SEARCH (RWD='SPANNED',                RWNO=%RSV_WRD_SPANNED);
      956    22231        %NEWRSW;
      957    22234        %SEARCH (RWD='SPECIAL-NAMES',          RWNO=%RSV_WRD_SPECIAL_NAMES, MUST_AREAA=TRUE)
             22234            ;
      958    22249        %NEWRSW;
      959    22252        %SEARCH (RWD='SSF',                    RWNO=%RSV_WRD_SSF);
      960    22267        %NEWRSW;
      961    22270        %SEARCH (RWD='STANDARD',               RWNO=%RSV_WRD_STANDARD);
      962    22285        %NEWRSW;
      963    22288        %SEARCH (RWD='STANDARD-1',             RWNO=%RSV_WRD_STANDARD_1);
      964    22303        %NEWRSW;
      965    22306        %SEARCH (RWD='STANDARD-2',             RWNO=%RSV_WRD_STANDARD_2);
      966    22321        %NEWRSW;
      967    22324        %SEARCH (RWD='START',                  RWNO=%RSV_WRD_START);
      968    22339        %NEWRSW;
PL6.E3A0      #001=COBOLRW File=COBOLRW.:Z8A6TSI                                 SAT 08/09/97 09:25 Page:28
      969    22342        %SEARCH (RWD='STATUS',                 RWNO=%RSV_WRD_STATUS);
      970    22357        %NEWRSW;
      971    22360        %SEARCH (RWD='STOP',                   RWNO=%RSV_WRD_STOP);
      972    22375        %NEWRSW;
      973    22378        %SEARCH (RWD='STORE',                  RWNO=%RSV_WRD_STORE);
      974    22393        %NEWRSW;
      975    22396        %SEARCH (RWD='STREAM',                 RWNO=%RSV_WRD_STREAM);
      976    22411        %NEWRSW;
      977    22414        %SEARCH (RWD='STRING',                 RWNO=%RSV_WRD_STRING);
      978    22429        %NEWRSW;
      979    22432        %SEARCH (RWD='SUB-QUEUE-1',            RWNO=%RSV_WRD_SUB_QUEUE_1);
      980    22447        %NEWRSW;
      981    22450        %SEARCH (RWD='SUB-QUEUE-2',            RWNO=%RSV_WRD_SUB_QUEUE_2);
      982    22465        %NEWRSW;
      983    22468        %SEARCH (RWD='SUB-QUEUE-3',            RWNO=%RSV_WRD_SUB_QUEUE_3);
      984    22483        %NEWRSW;
      985    22486        %SEARCH (RWD='SUB-SCHEMA',             RWNO=%RSV_WRD_SUB_SCHEMA);
      986    22501        %NEWRSW;
      987    22504        %SEARCH (RWD='SUBSTITUTION',           RWNO=%RSV_WRD_SUBSTITUTION);
      988    22519        %NEWRSW;
      989    22522        %SEARCH (RWD='SUBTRACT',               RWNO=%RSV_WRD_SUBTRACT);
      990    22537        %NEWRSW;
      991    22540        %SEARCH (RWD='SUM',                    RWNO=%RSV_WRD_SUM);
      992    22555        %NEWRSW;
      993    22558        %SEARCH (RWD='SUPPRESS',               RWNO=%RSV_WRD_SUPPRESS);
      994    22573        %NEWRSW;
      995    22576        %SEARCH (RWD='SWITCH-0',               RWNO=%RSV_WRD_SWITCH);
      996    22591        %SEARCH (RWD='SWITCH-1',               RWNO=%RSV_WRD_SWITCH);
      997    22606        %SEARCH (RWD='SWITCH-10',              RWNO=%RSV_WRD_SWITCH);
      998    22621        %SEARCH (RWD='SWITCH-11',              RWNO=%RSV_WRD_SWITCH);
      999    22636        %SEARCH (RWD='SWITCH-12',              RWNO=%RSV_WRD_SWITCH);
     1000    22651        %SEARCH (RWD='SWITCH-13',              RWNO=%RSV_WRD_SWITCH);
     1001    22666        %SEARCH (RWD='SWITCH-14',              RWNO=%RSV_WRD_SWITCH);
     1002    22681        %SEARCH (RWD='SWITCH-15',              RWNO=%RSV_WRD_SWITCH);
     1003    22696        %SEARCH (RWD='SWITCH-16',              RWNO=%RSV_WRD_SWITCH);
     1004    22711        %SEARCH (RWD='SWITCH-17',              RWNO=%RSV_WRD_SWITCH);
     1005    22726        %SEARCH (RWD='SWITCH-18',              RWNO=%RSV_WRD_SWITCH);
PL6.E3A0      #001=COBOLRW File=COBOLRW.:Z8A6TSI                                 SAT 08/09/97 09:25 Page:29
     1006    22741        %SEARCH (RWD='SWITCH-19',              RWNO=%RSV_WRD_SWITCH);
     1007    22756        %SEARCH (RWD='SWITCH-2',               RWNO=%RSV_WRD_SWITCH);
     1008    22771        %SEARCH (RWD='SWITCH-20',              RWNO=%RSV_WRD_SWITCH);
     1009    22786        %SEARCH (RWD='SWITCH-21',              RWNO=%RSV_WRD_SWITCH);
     1010    22801        %SEARCH (RWD='SWITCH-22',              RWNO=%RSV_WRD_SWITCH);
     1011    22816        %SEARCH (RWD='SWITCH-23',              RWNO=%RSV_WRD_SWITCH);
     1012    22831        %SEARCH (RWD='SWITCH-24',              RWNO=%RSV_WRD_SWITCH);
     1013    22846        %SEARCH (RWD='SWITCH-25',              RWNO=%RSV_WRD_SWITCH);
     1014    22861        %SEARCH (RWD='SWITCH-26',              RWNO=%RSV_WRD_SWITCH);
     1015    22876        %SEARCH (RWD='SWITCH-27',              RWNO=%RSV_WRD_SWITCH);
     1016    22891        %SEARCH (RWD='SWITCH-28',              RWNO=%RSV_WRD_SWITCH);
     1017    22906        %SEARCH (RWD='SWITCH-29',              RWNO=%RSV_WRD_SWITCH);
     1018    22921        %SEARCH (RWD='SWITCH-3',               RWNO=%RSV_WRD_SWITCH);
     1019    22936        %SEARCH (RWD='SWITCH-30',              RWNO=%RSV_WRD_SWITCH);
     1020    22951        %SEARCH (RWD='SWITCH-31',              RWNO=%RSV_WRD_SWITCH);
     1021    22966        %SEARCH (RWD='SWITCH-32',              RWNO=%RSV_WRD_SWITCH);
     1022    22981        %SEARCH (RWD='SWITCH-33',              RWNO=%RSV_WRD_SWITCH);
     1023    22996        %SEARCH (RWD='SWITCH-34',              RWNO=%RSV_WRD_SWITCH);
     1024    23011        %SEARCH (RWD='SWITCH-35',              RWNO=%RSV_WRD_SWITCH);
     1025    23026        %SEARCH (RWD='SWITCH-4',               RWNO=%RSV_WRD_SWITCH);
     1026    23041        %SEARCH (RWD='SWITCH-5',               RWNO=%RSV_WRD_SWITCH);
     1027    23056        %SEARCH (RWD='SWITCH-6',               RWNO=%RSV_WRD_SWITCH);
     1028    23071        %SEARCH (RWD='SWITCH-7',               RWNO=%RSV_WRD_SWITCH);
     1029    23086        %SEARCH (RWD='SWITCH-8',               RWNO=%RSV_WRD_SWITCH);
     1030    23101        %SEARCH (RWD='SWITCH-9',               RWNO=%RSV_WRD_SWITCH);
     1031    23116        %NEWRSW;
     1032    23119        %SEARCH (RWD='SYMBOLIC',               RWNO=%RSV_WRD_SYMBOLIC);
     1033    23134        %NEWRSW;
     1034    23137        %SEARCH (RWD='SYNCHRONIZED',           RWNO=%RSV_WRD_SYNCHRONIZED);
     1035    23152        %SEARCH (RWD='SYNC',                   RWNO=%RSV_WRD_SYNCHRONIZED);
     1036    23167        %NEWRSW;
     1037    23170        %SEARCH (RWD='SYSIN',                  RWNO=%RSV_WRD_SYSIN);
     1038    23185        %SEARCH (RWD='SYSIPT',                 RWNO=%RSV_WRD_SYSIN);
     1039    23200        %NEWRSW;
     1040    23203        %SEARCH (RWD='SYSOUT',                 RWNO=%RSV_WRD_SYSOUT);
     1041    23218        %SEARCH (RWD='SYSLST',                 RWNO=%RSV_WRD_SYSOUT);
     1042    23233        %NEWRSW;
PL6.E3A0      #001=COBOLRW File=COBOLRW.:Z8A6TSI                                 SAT 08/09/97 09:25 Page:30
     1043    23236        %SEARCH (RWD='TABLE',                  RWNO=%RSV_WRD_TABLE);
     1044    23251        %NEWRSW;
     1045    23254        %SEARCH (RWD='TALLYING',               RWNO=%RSV_WRD_TALLYING);
     1046    23269        %NEWRSW;
     1047    23272        %SEARCH (RWD='TAPE',                   RWNO=%RSV_WRD_TAPE);
     1048    23287        %NEWRSW;
     1049    23290        %SEARCH (RWD='TAPE-OPTIONS',           RWNO=%RSV_WRD_TAPE_OPTIONS);
     1050    23305        %NEWRSW;
     1051    23308        %SEARCH (RWD='TEMPORARY',              RWNO=%RSV_WRD_TEMPORARY);
     1052    23323        %NEWRSW;
     1053    23326        %SEARCH (RWD='TENANT',                 RWNO=%RSV_WRD_TENANT);
     1054    23341        %NEWRSW;
     1055    23344        %SEARCH (RWD='TERMINAL',               RWNO=%RSV_WRD_TERMINAL);
     1056    23359        %NEWRSW;
     1057    23362        %SEARCH (RWD='TERMINATE',              RWNO=%RSV_WRD_TERMINATE);
     1058    23377        %NEWRSW;
     1059    23380        %SEARCH (RWD='TEST',                   RWNO=%RSV_WRD_TEST);
     1060    23395        %NEWRSW;
     1061    23398        %SEARCH (RWD='TEXT',                   RWNO=%RSV_WRD_TEXT);
     1062    23413        %NEWRSW;
     1063    23416        %SEARCH (RWD='THAN',                   RWNO=%RSV_WRD_THAN);
     1064    23431        %NEWRSW;
     1065    23434        %SEARCH (RWD='THEN',                   RWNO=%RSV_WRD_THEN);
     1066    23449        %NEWRSW;
     1067    23452        %SEARCH (RWD='THRU',                   RWNO=%RSV_WRD_THRU);
     1068    23467        %SEARCH (RWD='THROUGH',                RWNO=%RSV_WRD_THRU);
     1069    23482        %NEWRSW;
     1070    23485        %SEARCH (RWD='TIME',                   RWNO=%RSV_WRD_TIME);
     1071    23500        %NEWRSW;
     1072    23503        %SEARCH (RWD='TIMES',                  RWNO=%RSV_WRD_TIMES);
     1073    23518        %NEWRSW;
     1074    23521        %SEARCH (RWD='TO',                     RWNO=%RSV_WRD_TO);
     1075    23536        %NEWRSW;
     1076    23539        %SEARCH (RWD='TOP',                    RWNO=%RSV_WRD_TOP);
     1077    23554        %NEWRSW;
     1078    23557        %SEARCH (RWD='TRAILING',               RWNO=%RSV_WRD_TRAILING);
     1079    23572        %NEWRSW;
PL6.E3A0      #001=COBOLRW File=COBOLRW.:Z8A6TSI                                 SAT 08/09/97 09:25 Page:31
     1080    23575        %SEARCH (RWD='TRANSFORM',              RWNO=%RSV_WRD_TRANSFORM);
     1081    23590        %NEWRSW;
     1082    23593        %SEARCH (RWD='TRUE',                   RWNO=%RSV_WRD_TRUE);
     1083    23608        %NEWRSW;
     1084    23611        %SEARCH (RWD='TYPE',                   RWNO=%RSV_WRD_TYPE);
     1085    23626        %NEWRSW;
     1086    23629        %SEARCH (RWD='UFF',                    RWNO=%RSV_WRD_UFF);
     1087    23644        %SEARCH (RWD='UFAS',                   RWNO=%RSV_WRD_UFF);
     1088    23659        %NEWRSW;
     1089    23662        %SEARCH (RWD='UNBANNERED',             RWNO=%RSV_WRD_UNBANNERED);
     1090    23677        %NEWRSW;
     1091    23680        %SEARCH (RWD='UNEQUAL',                RWNO=%RSV_WRD_UNEQUAL);
     1092    23695        %NEWRSW;
     1093    23698        %SEARCH (RWD='UNIT',                   RWNO=%RSV_WRD_UNIT);
     1094    23713        %NEWRSW;
     1095    23716        %SEARCH (RWD='UNSTRING',               RWNO=%RSV_WRD_UNSTRING);
     1096    23731        %NEWRSW;
     1097    23734        %SEARCH (RWD='UNTIL',                  RWNO=%RSV_WRD_UNTIL);
     1098    23749        %NEWRSW;
     1099    23752        %SEARCH (RWD='UP',                     RWNO=%RSV_WRD_UP);
     1100    23767        %NEWRSW;
     1101    23770        %SEARCH (RWD='UPDATE',                 RWNO=%RSV_WRD_UPDATE);
     1102    23785        %NEWRSW;
     1103    23788        %SEARCH (RWD='UPON',                   RWNO=%RSV_WRD_UPON);
     1104    23803        %NEWRSW;
     1105    23806        %SEARCH (RWD='USAGE',                  RWNO=%RSV_WRD_USAGE);
     1106    23821        %NEWRSW;
     1107    23824        %SEARCH (RWD='USAGE-MODE',             RWNO=%RSV_WRD_USAGE_MODE);
     1108    23839        %NEWRSW;
     1109    23842        %SEARCH (RWD='USE',                    RWNO=%RSV_WRD_USE);
     1110    23857        %NEWRSW;
     1111    23860        %SEARCH (RWD='USER',                   RWNO=%RSV_WRD_USER);
     1112    23875        %NEWRSW;
     1113    23878        %SEARCH (RWD='USING',                  RWNO=%RSV_WRD_USING);
     1114    23893        %NEWRSW;
     1115    23896        %SEARCH (RWD='VALUE',                  RWNO=%RSV_WRD_VALUE);
     1116    23911        %NEWRSW;
PL6.E3A0      #001=COBOLRW File=COBOLRW.:Z8A6TSI                                 SAT 08/09/97 09:25 Page:32
     1117    23914        %SEARCH (RWD='VALUES',                 RWNO=%RSV_WRD_VALUES);
     1118    23929        %NEWRSW;
     1119    23932        %SEARCH (RWD='VARYING',                RWNO=%RSV_WRD_VARYING);
     1120    23947        %NEWRSW;
     1121    23950        %SEARCH (RWD='VFC',                    RWNO=%RSV_WRD_VFC);
     1122    23965        %NEWRSW;
     1123    23968        %SEARCH (RWD='VLR',                    RWNO=%RSV_WRD_VLR);
     1124    23983        %NEWRSW;
     1125    23986        %SEARCH (RWD='WHEN',                   RWNO=%RSV_WRD_WHEN);
     1126    24001        %NEWRSW;
     1127    24004        %SEARCH (RWD='WITH',                   RWNO=%RSV_WRD_WITH);
     1128    24019        %NEWRSW;
     1129    24022        %SEARCH (RWD='WITHIN',                 RWNO=%RSV_WRD_WITHIN);
     1130    24037        %NEWRSW;
     1131    24040        %SEARCH (RWD='WITH DATA',              RWNO=%RSV_WRD_WITH_DATA);
     1132    24055        %NEWRSW;
     1133    24058        %SEARCH (RWD='WORDS',                  RWNO=%RSV_WRD_WORDS);
     1134    24073        %NEWRSW;
     1135    24076        %SEARCH (RWD='WORKING-STORAGE',        RWNO=%RSV_WRD_WORKING_STORAGE, MUST_AREAA=
             24076            TRUE);
     1136    24091        %NEWRSW;
     1137    24094        %SEARCH (RWD='WRITE',                  RWNO=%RSV_WRD_WRITE);
     1138    24109        %NEWRSW;
     1139    24112        %SEARCH (RWD='ZEROES',                 RWNO=%RSV_WRD_ZEROES, FIG_CONSTANT=TRUE);
     1140    24127        %SEARCH (RWD='ZERO',                   RWNO=%RSV_WRD_ZEROES, FIG_CONSTANT=TRUE);
     1141    24142        %SEARCH (RWD='ZEROS',                  RWNO=%RSV_WRD_ZEROES, FIG_CONSTANT=TRUE);
     1142    24157
     1143    24158
     1144    24159        %EJECT;
PL6.E3A0      #001=COBOLRW File=COBOLRW.:Z8A6TSI                                 SAT 08/09/97 09:25 Page:33
     1145    24160    1   OUT_DCBN = DCBNUM(M$OU);
     1146    24161
     1147    24162
     1148    24163        %OUT_STR(S="'/* Number of reserved words = '");
     1149    24166    1   CALL OUT_DEC(NUMBER_OF_RESERVED_WORDS);
     1150    24167        %OUT_STR(S="' */'");
     1151    24170    1   CALL FLUSH;
     1152    24171
     1153    24172    1   BUCKETS_USED = 0;
     1154    24173    2   DO I = 0 TO %(NUMBER_DNT_BUCKETS - 1);
     1155    24174    2     IF DNT_BUCKETS(I) ~= ADDR(NIL) THEN
     1156    24175    2       BUCKETS_USED = BUCKETS_USED + 1;
     1157    24176    2   END;
     1158    24177
     1159    24178        %OUT_STR(S="'/* Number of buckets used = '");
     1160    24181    1   CALL OUT_DEC(BUCKETS_USED);
     1161    24182        %OUT_STR(S="' */'");
     1162    24185    1   CALL FLUSH;
     1163    24186
     1164    24187        %OUT_STR(S="'/* Percentage = '");
     1165    24190    1   CALL OUT_DEC(BUCKETS_USED*100/NUMBER_OF_RESERVED_WORDS);
     1166    24191        %OUT_STR(S="' */'");
     1167    24194    1   CALL FLUSH;
     1168    24195
     1169    24196
     1170    24197    1   NUMBER_OF_RESERVED_WORDS = 0;
     1171    24198
     1172    24199        %OUTLINE(S="' '");
     1173    24203
     1174    24204    2   DO I = 0 TO %(NUMBER_DNT_BUCKETS - 1);
     1175    24205
     1176    24206    2     DNT$ = DNT_BUCKETS(I);
     1177    24207
     1178    24208    3     DO WHILE DNT$ ~= ADDR(NIL);
     1179    24209
     1180    24210            %OUT_STR(S="'DCL 1 RSW'");
     1181    24213    3       CALL OUT_DEC(BINBIT(DNT$ -> DNT.RW_NO,36));
PL6.E3A0      #001=COBOLRW File=COBOLRW.:Z8A6TSI                                 SAT 08/09/97 09:25 Page:34
     1182    24214            %OUT_STR(S="'_'");
     1183    24217    3       NUMBER_OF_RESERVED_WORDS = NUMBER_OF_RESERVED_WORDS + 1;
     1184    24218    3       CALL OUT_DEC(NUMBER_OF_RESERVED_WORDS);
     1185    24219            %OUT_STR(S="' CONSTANT SYMDEF ALIGNED,'");
     1186    24222    3       CALL FLUSH;
     1187    24223
     1188    24224            %OUTLINE(S="'      2 ID UBIN(18) UNAL INIT(%LEXEME),'");
     1189    24228
     1190    24229            %OUT_STR(S="'      2 N UBIN(18) UNAL INIT('");
     1191    24232    3       CALL OUT_DEC(BINBIT(DNT$ -> DNT.N, 36));
     1192    24233            %OUT_STR(S="'),'");
     1193    24236    3       CALL FLUSH;
     1194    24237
     1195    24238            /* Use the N field to keep the unique reserved word number */
     1196    24239    3       DNT$ -> DNT.N = NUMBER_OF_RESERVED_WORDS;
     1197    24240            /* Keep track of the DNT$ belonging to the reserved word */
     1198    24241    3       IF DNT$_FROM_RSWNO(DNT$->DNT.RW_NO) = 0 THEN
     1199    24242    3         DNT$_FROM_RSWNO(DNT$ -> DNT.RW_NO) = NUMBER_OF_RESERVED_WORDS;
     1200    24243            %OUTLINE(S="'      2 ST$ PTR INIT(ADDR(NIL)),'");
     1201    24247
     1202    24248            %OUT_STR(S="'      2 NEXT PTR INIT(ADDR('");
     1203    24251    3       IF DNT$ -> DNT.NEXT = ADDR(NIL) THEN
     1204    24252              %OUT_STR(S="'NIL'");
     1205    24255    3       ELSE
     1206    24256    4         DO;
     1207    24257                %OUT_STR(S="'RSW'");
     1208    24260    4           CALL OUT_DEC(BINBIT(DNT$ -> DNT.NEXT -> DNT.RW_NO, 36));
     1209    24261                %OUT_STR(S="'_'");
     1210    24264    4           CALL OUT_DEC(NUMBER_OF_RESERVED_WORDS+1);
     1211    24265    4         END;
     1212    24266            %OUT_STR(S="')),'");
     1213    24269    3       CALL FLUSH;
     1214    24270
     1215    24271            %OUT_STR(S="'      2 ATTR UBIN(18) UNAL INIT('");
     1216    24274    3       CALL OUT_DEC(BITBIN(DNT$ -> DNT.ATTR));
     1217    24275            %OUT_STR(S="'),'");
     1218    24278    3       CALL FLUSH;
PL6.E3A0      #001=COBOLRW File=COBOLRW.:Z8A6TSI                                 SAT 08/09/97 09:25 Page:35
     1219    24279
     1220    24280            %OUT_STR(S="'      2 RW_NO UBIN(18) UNAL INIT('");
     1221    24283    3       CALL OUT_DEC(BINBIT(DNT$ -> DNT.RW_NO, 36));
     1222    24284            %OUT_STR(S="'),'");
     1223    24287    3       CALL FLUSH;
     1224    24288
     1225    24289            %OUTLINE(S="'      2 TEXT ALIGNED,'");
     1226    24293
     1227    24294            %OUT_STR(S="'        3 LENGTH UBIN(18) UNAL INIT('");
     1228    24297    3       CALL OUT_DEC(BINBIT(DNT$ -> DNT.TEXT.LENGTH, 36));
     1229    24298            %OUT_STR(S="'),'");
     1230    24301    3       CALL FLUSH;
     1231    24302
     1232    24303            %OUT_STR(S="'        3 NAME CHAR('");
     1233    24306    3       CALL OUT_DEC(BINBIT(DNT$ -> DNT.TEXT.LENGTH, 36));
     1234    24307            %OUT_STR(S="') INIT('''");
     1235    24310    3       CALL OUT_STR(DNT$ -> DNT.TEXT.NAME,
     1236    24311    3                    BINBIT(DNT$ -> DNT.TEXT.LENGTH, 36));
     1237    24312            %OUT_STR(S="''');'");
     1238    24315    3       CALL FLUSH;
     1239    24316
     1240    24317    3       DNT$ = DNT$ -> DNT.NEXT;
     1241    24318
     1242    24319    3     END;  /* DO WHILE */
     1243    24320
     1244    24321    2   END;
     1245    24322
     1246    24323        %OUTLINE(S="' '");
     1247    24327
     1248    24328        %OUT_STR(S="'DCL DNT_BUCKETS (0:'");
     1249    24331    1   CALL OUT_DEC(%(NUMBER_DNT_BUCKETS - 1));
     1250    24332        %OUT_STR(S="') PTR STATIC SYMDEF INIT('");
     1251    24335    1   CALL FLUSH;
     1252    24336
     1253    24337    2   DO I = 0 TO %(NUMBER_DNT_BUCKETS - 1);
     1254    24338
     1255    24339    2     IF I = 0 THEN
PL6.E3A0      #001=COBOLRW File=COBOLRW.:Z8A6TSI                                 SAT 08/09/97 09:25 Page:36
     1256    24340            %OUT_STR(S="'    ADDR('");
     1257    24343    2     ELSE
     1258    24344            %OUT_STR(S="'   ,ADDR('");
     1259    24347
     1260    24348    2     IF DNT_BUCKETS(I) = ADDR(NIL) THEN
     1261    24349            %OUT_STR(S="'NIL'");
     1262    24352    2     ELSE
     1263    24353    3       DO;
     1264    24354              %OUT_STR(S="'RSW'");
     1265    24357    3         CALL OUT_DEC(BINBIT(DNT_BUCKETS(I) -> DNT.RW_NO, 36));
     1266    24358              %OUT_STR(S="'_'");
     1267    24361              /* Get unique reserved word number out of N field */
     1268    24362    3         CALL OUT_DEC(BINBIT(DNT_BUCKETS(I) -> DNT.N, 36));
     1269    24363    3       END;
     1270    24364          %OUT_STR(S="')'");
     1271    24367    2     CALL FLUSH;
     1272    24368
     1273    24369    2   END;
     1274    24370
     1275    24371        %OUTLINE(S="'  );'");
     1276    24375
     1277    24376        %OUTLINE(S="' '");
     1278    24380        %OUT_STR(S="'DCL DNT$_FROM_RSWNO(0:'");
     1279    24383    1   CALL OUT_DEC(%LAST_RW_NO);
     1280    24384        %OUT_STR(S="') PTR CONSTANT SYMDEF INIT('");
     1281    24387    1   CALL FLUSH;
     1282    24388
     1283    24389    2   DO I = 0 TO %LAST_RW_NO;
     1284    24390
     1285    24391    2     IF I = 0 THEN
     1286    24392            %OUT_STR(S="'    ADDR('");
     1287    24395    2     ELSE
     1288    24396            %OUT_STR(S="'   ,ADDR('");
     1289    24399
     1290    24400    2     IF DNT$_FROM_RSWNO(I) = 0 THEN
     1291    24401            %OUT_STR(S="'NIL'");
     1292    24404    2     ELSE
PL6.E3A0      #001=COBOLRW File=COBOLRW.:Z8A6TSI                                 SAT 08/09/97 09:25 Page:37
     1293    24405    3       DO;
     1294    24406              %OUT_STR(S="'RSW'");
     1295    24409    3         CALL OUT_DEC(I);
     1296    24410              %OUT_STR(S="'_'");
     1297    24413    3         CALL OUT_DEC(DNT$_FROM_RSWNO(I));
     1298    24414    3       END;
     1299    24415          %OUT_STR(S="')'");
     1300    24418    2     CALL FLUSH;
     1301    24419
     1302    24420    2   END;
     1303    24421
     1304    24422        %OUTLINE(S="'  );'");
     1305    24426
     1306    24427
     1307    24428    1   END COBOLRW;

PL6.E3A0      #001=COBOLRW File=COBOLRW.:Z8A6TSI                                 SAT 08/09/97 09:25 Page:38
--  Include file information  --

   CP_6_C.:LIB_E04  is referenced.
   CP_6.:LIB_E04  cannot be made into a system file and is referenced.
   IOGLOBAL.:Z8A6TOU  cannot be made into a system file and is referenced.
   Z8A_LEX_SYMB.:Z8A6TOU  cannot be made into a system file and is referenced.
   Z8E_STACKS.:Z8A6TOU  cannot be made into a system file and is referenced.
   Z8E_NEW_ILL.:Z8A6TOU  is referenced.
   Z8E_MACROS.:Z8A6TOU  cannot be made into a system file and is referenced.
   Z8E_WINDOW.:Z8A6TOU  is referenced.
   Z8A_DNT.:Z8A6TOU  cannot be made into a system file and is referenced.
   Z8A_COMCOM.:Z8A6TOU  cannot be made into a system file and is referenced.
   X8A_COM_MACS.:X8A6TOU  is referenced.
   Z8A_NAMES.:Z8A6TOU  is referenced.
   Z8A_SUPP_MAC.:Z8A6TOU  is referenced.
   Z8A_DEFC.:Z8A6TOU  cannot be made into a system file and is referenced.
      No diagnostics issued in procedure COBOLRW.

   Procedure COBOLRW requires 13191 words for executable code.
   Procedure COBOLRW requires 10 words of local(AUTO) storage.

    No errors detected in file COBOLRW.:Z8A6TSI    .

PL6.E3A0      #001=COBOLRW File=COBOLRW.:Z8A6TSI                                 SAT 08/09/97 09:25 Page:39

 Object Unit name= COBOLRW                                    File name= COBOLRW.:Z8A6TOU
 UTS= AUG 09 '97 09:25:50.96 SAT                              Compiler= PL-6/E31         Sev=      00
 SharedLib= :SHARED_SYSTEM                                    Alt SharedLib=


    ****  Control sections  ****

 Sect   Type Bound  Init  Size OctSiz  Section name(segment info)
    0  LblCom even  none     1      1  ITERATION
    1   Data  even  none  1996   3714  COBOLRW
    2  LblCom even  none     1      1  DNT$
    3  LblCom even  none     5      5  DNT_
    4  LblCom even  none     1      1  DNT_BUCKET_NUMBER
    5  LblCom even  none     1      1  DNT_OF_1$
    6  LblCom even  none    90    132  LEX_SYMBOL
    7  LblCom even  none     1      1  CURRENT_LEX_SYMBOL$
    8  LblCom even  none    90    132  TEMP_LEX_SYMBOL
    9  LblCom even  none    90    132  TEMP_LEX_SYMBOL2
   10   DCB   even  none     0      0  M$LO
   11  LblCom even  none     1      1  OUT_DCBN
   12  LblCom even  none     1      1  LINELEN
   13  LblCom even  none    28     34  LINE
   14   DCB   even  none     0      0  M$UC
   15   DCB   even  none    98    142  M$OU
   16  RoData even  UTS   1367   2527  COBOLRW
   17   Proc  even  none 13191  31607  COBOLRW
   18  RoData even  none    99    143  COBOLRW

    ****  Entry defs  ****

                              Check   Calling
                             calling  sequence
  Sect OctLoc Primary Altret sequence   type   Parms  Name
    17      0   yes            yes      Main       0  COBOLRW
PL6.E3A0      #001=COBOLRW File=COBOLRW.:Z8A6TSI                                 SAT 08/09/97 09:25 Page:40

  ****  Data defs  ****

 Sect OctLoc  Name                           Sect OctLoc  Name
    1      0  COMCOM                             1    560  DNT_BUCKETS

  ****  Entry refs  ****

         Check        Calling
        calling       sequence
Altret sequence SRef   type   Args  Name
         yes           Std       0 Z8AH$SEARCH_
         yes           Std       2 OUT_STR
         yes           Std       0 FLUSH
         yes           Std       1 OUT_DEC
                       nStd      0 X66_MAUTO
                       nStd      0 X66_MARET

  ****  Data refs  ****

  Flags:  r = read only, s = secondary
Flgs Name                             Flgs Name                             Flgs Name
     M$LO                                  M$UC                                  M$OU

  ****  Segment refs  ****

  Flags:  r = read only, s = secondary
Flgs Name                             Flgs Name                             Flgs Name
     NULLSID                               ISSID
PL6.E3A0      #001=COBOLRW File=COBOLRW.:Z8A6TSI                                 SAT 08/09/97 09:25 Page:41


        1        1        /*T***********************************************************/
        2        2        /*T*                                                         */
        3        3        /*T* Copyright (c) Bull HN Information Systems Inc., 1997    */
        4        4        /*T*                                                         */
        5        5        /*T***********************************************************/
        6        6        COBOLRW: PROC MAIN;   /* Z8ER */

      6 17 000000   000000 700200 xent  COBOLRW      TSX0  ! X66_MAUTO
        17 000001   000012 000000                    ZERO    10,0

        7        7        /*M*  Z8ER$RW_INIT -- Initialize the DNT with the reserved words. */
        8        8
        9        9        /*P*
       10       10               NAME:  Z8ER$RW_INIT
       11       11            PURPOSE:  Enter all of the reserved words into the DNT.
       12       12        */
       13       13
       14       14        /*D*
       15       15               NAME:  Z8ER$RW_INIT
       16       16               CALL:  CALL Z8ER$RW_INIT ;
       17       17
       18       18             OUTPUT:  The DNT entries in the DNT and they are also entered in BUCKETS.
       19       19            SCRATCH:  DNT$ -- Used to enter items in DNT.
       20       20
       21       21        DESCRIPTION:  The items are entered into the DNT and then are also linked
       22       22                      into BUCKETS so that they may be searched in Z8AH$SEARCH_.
       23       23        */
       24       24        %EJECT ;
PL6.E3A0      #001=COBOLRW File=COBOLRW.:Z8A6TSI                                 SAT 08/09/97 09:25 Page:42
       25       25
       26       26
       27       27        %SET PHASE = 1;
       28       28        %INCLUDE Z8A_DEFC ;
       29       96        %SET INITIALIZE = '1'B ;
       30       97        %INCLUDE Z8A_SUPP_MAC;
       31     2497        %INCLUDE Z8A_COMCOM ;
       32     3147        %INCLUDE Z8A_DNT ;
       33     3368        %INCLUDE Z8E_WINDOW ;
       34     5438        %INCLUDE Z8E_MACROS ;
       35     6113        %INCLUDE Z8E_STACKS;
       36     8379        %INCLUDE IOGLOBAL;
       37     8406
       38     8407        %INCLUDE CP_6;
       39    13967
       40    13968        %M$DCB(DCBN=M$OU,FUN=CREATE,ACS=SEQUEN,CTG=YES,ORG=CONSEC,
       41    13969               NAME='Z8E_RWORDS',ASN=FILE);
       42    14043
       43    14044    1   DCL   Z8AH$SEARCH_ ENTRY (0) ;
       44    14045
       45    14046    1   DCL DNT_BUCKETS (0:%(NUMBER_DNT_BUCKETS - 1)) PTR STATIC SYMDEF INIT(ADDR(NIL) * %
             14046            NUMBER_DNT_BUCKETS);
       46    14047
       47    14048    1   DCL BUCKETS_USED SBIN WORD;
       48    14049    1   DCL I UBIN WORD;
       49    14050    1   DCL NUMBER_OF_RESERVED_WORDS SBIN WORD STATIC INIT(0);
       50    14051
       51    14052
       52    14053    1   DCL DNT$_FROM_RSWNO(0:%(LAST_RW_NO)) UBIN WORD STATIC
       53    14054    1                INIT(0*%(LAST_RW_NO + 1));
       54    14055
       55    14056
       56    14057        /*V*
       57    14058            SEARCH -- The size of the reserved word is determined and then PART1
       58    14059                      is called to reserve the DNT item.  The reserved word is stored
       59    14060                      in DNT.TEXT.NAME and then PART2 is called to insert it into
       60    14061                      the BUCKETS linked list.  The reserved word number is then
PL6.E3A0      #001=COBOLRW File=COBOLRW.:Z8A6TSI                                 SAT 08/09/97 09:25 Page:43
       61    14062                      assigned to the DNT.
       62    14063        */
       63    14064
       64    14065        %MACRO SEARCH (RWD='RESERVED_WORD', RWNO=0, FIG_CONSTANT=FALSE, AREAA=FALSE,
       65    14066                       MUST_AREAA = FALSE);
       66    14067
       67    14068               %IF (RWNO ~= RSWD_NO);
       68    14069               %ERROR('*** This reserved word is out of sequence ***');
       69    14070               %ENDIF;
       70    14071
       71    14072               NUMBER_OF_RESERVED_WORDS = NUMBER_OF_RESERVED_WORDS + 1;
       72    14073               LEX_SYMBOL.SIZE = LENGTHC(RWD);
       73    14074               LEX_SYMBOL.SYMBOL = RWD;
       74    14075               CALL Z8AH$SEARCH_;
       75    14076               DNT$ -> DNT.B.RW = TRUE;
       76    14077               DNT$ -> DNT.B.USER_WORD = FALSE;
       77    14078               DNT$ -> DNT.B.ACCEPT_AREA_A = AREAA;
       78    14079               DNT$ -> DNT.B.MUST_AREA_A = MUST_AREAA;
       79    14080               DNT$->DNT.B.FIGURATIVE_CONSTANT = FIG_CONSTANT ;
       80    14081               DNT$->DNT.RW_NO = RWNO ;
       81    14082
       82    14083        %MEND;
       83    14084
       84    14085
       85    14086        %MACRO NEWRSW;
       86    14087          %SET RSWD_NO = RSWD_NO + 1;
       87    14088        %MEND;
       88    14089
       89    14090        %EJECT;
PL6.E3A0      #001=COBOLRW File=COBOLRW.:Z8A6TSI                                 SAT 08/09/97 09:25 Page:44
       90    14091
       91    14092        /*V*
       92    14093            ENTER_RESERVED_WORDS -- Reserved word items are in alphabetical order
       93    14094                                    and are entered into the DNT.
       94    14095        */
       95    14096
       96    14097        %SET RSWD_NO = FIRST_RW_NO ;
       97    14098        %SEARCH (RWD='ACCEPT',                 RWNO=%RSV_WRD_ACCEPT);

  14102 17 000002   002731 054000 1                  AOS     NUMBER_OF_RESERVED_WORDS

  14103 17 000003   000006 235007                    LDA     6,DL
        17 000004   000010 755000 6                  STA     LEX_SYMBOL+8

  14104 17 000005   040000 100400                    MLR     fill='040'O
        17 000006   000000 000006 16                 ADSC9   0                        cn=0,n=6
        17 000007   000011 000504 6                  ADSC9   LEX_SYMBOL+9             cn=0,n=324

  14105 17 000010   000000 631400 18                 EPPR1   0
        17 000011   000000 701000 xent               TSX1    Z8AH$SEARCH_
        17 000012   000000 011000                    NOP     0

  14106 17 000013   000000 470400 2                  LDP0    DNT$
        17 000014   400000 236003                    LDQ     -131072,DU
        17 000015   000003 256100                    ORSQ    3,,PR0

  14107 17 000016   000001 236000 18                 LDQ     1
        17 000017   000003 356100                    ANSQ    3,,PR0

  14108 17 000020   000002 236000 18                 LDQ     2
        17 000021   000003 356100                    ANSQ    3,,PR0

  14109 17 000022   000003 236000 18                 LDQ     3
        17 000023   000003 356100                    ANSQ    3,,PR0

  14110 17 000024   000004 236000 18                 LDQ     4
        17 000025   000003 356100                    ANSQ    3,,PR0
PL6.E3A0      #001=COBOLRW File=COBOLRW.:Z8A6TSI                                 SAT 08/09/97 09:25 Page:45

  14111 17 000026   000035 220003                    LDX0    29,DU
        17 000027   000003 440100                    SXL0    3,,PR0

       98    14113        %NEWRSW;
       99    14116        %SEARCH (RWD='ACCESS',                 RWNO=%RSV_WRD_ACCESS);

  14120 17 000030   002731 054000 1                  AOS     NUMBER_OF_RESERVED_WORDS

  14121 17 000031   000006 235007                    LDA     6,DL
        17 000032   000010 755000 6                  STA     LEX_SYMBOL+8

  14122 17 000033   040000 100400                    MLR     fill='040'O
        17 000034   000002 000006 16                 ADSC9   2                        cn=0,n=6
        17 000035   000011 000504 6                  ADSC9   LEX_SYMBOL+9             cn=0,n=324

  14123 17 000036   000000 631400 18                 EPPR1   0
        17 000037   000000 701000 xent               TSX1    Z8AH$SEARCH_
        17 000040   000000 011000                    NOP     0

  14124 17 000041   000000 470400 2                  LDP0    DNT$
        17 000042   400000 236003                    LDQ     -131072,DU
        17 000043   000003 256100                    ORSQ    3,,PR0

  14125 17 000044   000001 236000 18                 LDQ     1
        17 000045   000003 356100                    ANSQ    3,,PR0

  14126 17 000046   000002 236000 18                 LDQ     2
        17 000047   000003 356100                    ANSQ    3,,PR0

  14127 17 000050   000003 236000 18                 LDQ     3
        17 000051   000003 356100                    ANSQ    3,,PR0

  14128 17 000052   000004 236000 18                 LDQ     4
        17 000053   000003 356100                    ANSQ    3,,PR0

  14129 17 000054   000036 220003                    LDX0    30,DU
PL6.E3A0      #001=COBOLRW File=COBOLRW.:Z8A6TSI                                 SAT 08/09/97 09:25 Page:46
        17 000055   000003 440100                    SXL0    3,,PR0

      100    14131        %NEWRSW;
      101    14134        %SEARCH (RWD='ACTUAL',                 RWNO=%RSV_WRD_ACTUAL);

  14138 17 000056   002731 054000 1                  AOS     NUMBER_OF_RESERVED_WORDS

  14139 17 000057   000006 235007                    LDA     6,DL
        17 000060   000010 755000 6                  STA     LEX_SYMBOL+8

  14140 17 000061   040000 100400                    MLR     fill='040'O
        17 000062   000004 000006 16                 ADSC9   4                        cn=0,n=6
        17 000063   000011 000504 6                  ADSC9   LEX_SYMBOL+9             cn=0,n=324

  14141 17 000064   000000 631400 18                 EPPR1   0
        17 000065   000000 701000 xent               TSX1    Z8AH$SEARCH_
        17 000066   000000 011000                    NOP     0

  14142 17 000067   000000 470400 2                  LDP0    DNT$
        17 000070   400000 236003                    LDQ     -131072,DU
        17 000071   000003 256100                    ORSQ    3,,PR0

  14143 17 000072   000001 236000 18                 LDQ     1
        17 000073   000003 356100                    ANSQ    3,,PR0

  14144 17 000074   000002 236000 18                 LDQ     2
        17 000075   000003 356100                    ANSQ    3,,PR0

  14145 17 000076   000003 236000 18                 LDQ     3
        17 000077   000003 356100                    ANSQ    3,,PR0

  14146 17 000100   000004 236000 18                 LDQ     4
        17 000101   000003 356100                    ANSQ    3,,PR0

  14147 17 000102   000037 220003                    LDX0    31,DU
        17 000103   000003 440100                    SXL0    3,,PR0

PL6.E3A0      #001=COBOLRW File=COBOLRW.:Z8A6TSI                                 SAT 08/09/97 09:25 Page:47
      102    14149        %NEWRSW;
      103    14152        %SEARCH (RWD='ADD',                    RWNO=%RSV_WRD_ADD);

  14156 17 000104   002731 054000 1                  AOS     NUMBER_OF_RESERVED_WORDS

  14157 17 000105   000003 235007                    LDA     3,DL
        17 000106   000010 755000 6                  STA     LEX_SYMBOL+8

  14158 17 000107   040000 100400                    MLR     fill='040'O
        17 000110   000006 000003 16                 ADSC9   6                        cn=0,n=3
        17 000111   000011 000504 6                  ADSC9   LEX_SYMBOL+9             cn=0,n=324

  14159 17 000112   000000 631400 18                 EPPR1   0
        17 000113   000000 701000 xent               TSX1    Z8AH$SEARCH_
        17 000114   000000 011000                    NOP     0

  14160 17 000115   000000 470400 2                  LDP0    DNT$
        17 000116   400000 236003                    LDQ     -131072,DU
        17 000117   000003 256100                    ORSQ    3,,PR0

  14161 17 000120   000001 236000 18                 LDQ     1
        17 000121   000003 356100                    ANSQ    3,,PR0

  14162 17 000122   000002 236000 18                 LDQ     2
        17 000123   000003 356100                    ANSQ    3,,PR0

  14163 17 000124   000003 236000 18                 LDQ     3
        17 000125   000003 356100                    ANSQ    3,,PR0

  14164 17 000126   000004 236000 18                 LDQ     4
        17 000127   000003 356100                    ANSQ    3,,PR0

  14165 17 000130   000040 220003                    LDX0    32,DU
        17 000131   000003 440100                    SXL0    3,,PR0

      104    14167        %NEWRSW;
      105    14170        %SEARCH (RWD='ADDITIONAL',             RWNO=%RSV_WRD_ADDITIONAL);
PL6.E3A0      #001=COBOLRW File=COBOLRW.:Z8A6TSI                                 SAT 08/09/97 09:25 Page:48

  14174 17 000132   002731 054000 1                  AOS     NUMBER_OF_RESERVED_WORDS

  14175 17 000133   000012 235007                    LDA     10,DL
        17 000134   000010 755000 6                  STA     LEX_SYMBOL+8

  14176 17 000135   040000 100400                    MLR     fill='040'O
        17 000136   000007 000012 16                 ADSC9   7                        cn=0,n=10
        17 000137   000011 000504 6                  ADSC9   LEX_SYMBOL+9             cn=0,n=324

  14177 17 000140   000000 631400 18                 EPPR1   0
        17 000141   000000 701000 xent               TSX1    Z8AH$SEARCH_
        17 000142   000000 011000                    NOP     0

  14178 17 000143   000000 470400 2                  LDP0    DNT$
        17 000144   400000 236003                    LDQ     -131072,DU
        17 000145   000003 256100                    ORSQ    3,,PR0

  14179 17 000146   000001 236000 18                 LDQ     1
        17 000147   000003 356100                    ANSQ    3,,PR0

  14180 17 000150   000002 236000 18                 LDQ     2
        17 000151   000003 356100                    ANSQ    3,,PR0

  14181 17 000152   000003 236000 18                 LDQ     3
        17 000153   000003 356100                    ANSQ    3,,PR0

  14182 17 000154   000004 236000 18                 LDQ     4
        17 000155   000003 356100                    ANSQ    3,,PR0

  14183 17 000156   000041 220003                    LDX0    33,DU
        17 000157   000003 440100                    SXL0    3,,PR0

      106    14185        %NEWRSW;
      107    14188        %SEARCH (RWD='ADDRESS',             RWNO=%RSV_WRD_ADDRESS);

  14192 17 000160   002731 054000 1                  AOS     NUMBER_OF_RESERVED_WORDS
PL6.E3A0      #001=COBOLRW File=COBOLRW.:Z8A6TSI                                 SAT 08/09/97 09:25 Page:49

  14193 17 000161   000007 235007                    LDA     7,DL
        17 000162   000010 755000 6                  STA     LEX_SYMBOL+8

  14194 17 000163   040000 100400                    MLR     fill='040'O
        17 000164   000012 000007 16                 ADSC9   10                       cn=0,n=7
        17 000165   000011 000504 6                  ADSC9   LEX_SYMBOL+9             cn=0,n=324

  14195 17 000166   000000 631400 18                 EPPR1   0
        17 000167   000000 701000 xent               TSX1    Z8AH$SEARCH_
        17 000170   000000 011000                    NOP     0

  14196 17 000171   000000 470400 2                  LDP0    DNT$
        17 000172   400000 236003                    LDQ     -131072,DU
        17 000173   000003 256100                    ORSQ    3,,PR0

  14197 17 000174   000001 236000 18                 LDQ     1
        17 000175   000003 356100                    ANSQ    3,,PR0

  14198 17 000176   000002 236000 18                 LDQ     2
        17 000177   000003 356100                    ANSQ    3,,PR0

  14199 17 000200   000003 236000 18                 LDQ     3
        17 000201   000003 356100                    ANSQ    3,,PR0

  14200 17 000202   000004 236000 18                 LDQ     4
        17 000203   000003 356100                    ANSQ    3,,PR0

  14201 17 000204   000042 220003                    LDX0    34,DU
        17 000205   000003 440100                    SXL0    3,,PR0

      108    14203        %NEWRSW;
      109    14206        %SEARCH (RWD='ADVANCING',              RWNO=%RSV_WRD_ADVANCING);

  14210 17 000206   002731 054000 1                  AOS     NUMBER_OF_RESERVED_WORDS

  14211 17 000207   000011 235007                    LDA     9,DL
PL6.E3A0      #001=COBOLRW File=COBOLRW.:Z8A6TSI                                 SAT 08/09/97 09:25 Page:50
        17 000210   000010 755000 6                  STA     LEX_SYMBOL+8

  14212 17 000211   040000 100400                    MLR     fill='040'O
        17 000212   000014 000011 16                 ADSC9   12                       cn=0,n=9
        17 000213   000011 000504 6                  ADSC9   LEX_SYMBOL+9             cn=0,n=324

  14213 17 000214   000000 631400 18                 EPPR1   0
        17 000215   000000 701000 xent               TSX1    Z8AH$SEARCH_
        17 000216   000000 011000                    NOP     0

  14214 17 000217   000000 470400 2                  LDP0    DNT$
        17 000220   400000 236003                    LDQ     -131072,DU
        17 000221   000003 256100                    ORSQ    3,,PR0

  14215 17 000222   000001 236000 18                 LDQ     1
        17 000223   000003 356100                    ANSQ    3,,PR0

  14216 17 000224   000002 236000 18                 LDQ     2
        17 000225   000003 356100                    ANSQ    3,,PR0

  14217 17 000226   000003 236000 18                 LDQ     3
        17 000227   000003 356100                    ANSQ    3,,PR0

  14218 17 000230   000004 236000 18                 LDQ     4
        17 000231   000003 356100                    ANSQ    3,,PR0

  14219 17 000232   000043 220003                    LDX0    35,DU
        17 000233   000003 440100                    SXL0    3,,PR0

      110    14221        %NEWRSW;
      111    14224        %SEARCH (RWD='AFTER',                  RWNO=%RSV_WRD_AFTER);

  14228 17 000234   002731 054000 1                  AOS     NUMBER_OF_RESERVED_WORDS

  14229 17 000235   000005 235007                    LDA     5,DL
        17 000236   000010 755000 6                  STA     LEX_SYMBOL+8

PL6.E3A0      #001=COBOLRW File=COBOLRW.:Z8A6TSI                                 SAT 08/09/97 09:25 Page:51
  14230 17 000237   040000 100400                    MLR     fill='040'O
        17 000240   000017 000005 16                 ADSC9   15                       cn=0,n=5
        17 000241   000011 000504 6                  ADSC9   LEX_SYMBOL+9             cn=0,n=324

  14231 17 000242   000000 631400 18                 EPPR1   0
        17 000243   000000 701000 xent               TSX1    Z8AH$SEARCH_
        17 000244   000000 011000                    NOP     0

  14232 17 000245   000000 470400 2                  LDP0    DNT$
        17 000246   400000 236003                    LDQ     -131072,DU
        17 000247   000003 256100                    ORSQ    3,,PR0

  14233 17 000250   000001 236000 18                 LDQ     1
        17 000251   000003 356100                    ANSQ    3,,PR0

  14234 17 000252   000002 236000 18                 LDQ     2
        17 000253   000003 356100                    ANSQ    3,,PR0

  14235 17 000254   000003 236000 18                 LDQ     3
        17 000255   000003 356100                    ANSQ    3,,PR0

  14236 17 000256   000004 236000 18                 LDQ     4
        17 000257   000003 356100                    ANSQ    3,,PR0

  14237 17 000260   000044 220003                    LDX0    36,DU
        17 000261   000003 440100                    SXL0    3,,PR0

      112    14239        %NEWRSW;
      113    14242        %SEARCH (RWD='AGGREGATE',              RWNO=%RSV_WRD_AGGREGATE);

  14246 17 000262   002731 054000 1                  AOS     NUMBER_OF_RESERVED_WORDS

  14247 17 000263   000011 235007                    LDA     9,DL
        17 000264   000010 755000 6                  STA     LEX_SYMBOL+8

  14248 17 000265   040000 100400                    MLR     fill='040'O
        17 000266   000021 000011 16                 ADSC9   17                       cn=0,n=9
PL6.E3A0      #001=COBOLRW File=COBOLRW.:Z8A6TSI                                 SAT 08/09/97 09:25 Page:52
        17 000267   000011 000504 6                  ADSC9   LEX_SYMBOL+9             cn=0,n=324

  14249 17 000270   000000 631400 18                 EPPR1   0
        17 000271   000000 701000 xent               TSX1    Z8AH$SEARCH_
        17 000272   000000 011000                    NOP     0

  14250 17 000273   000000 470400 2                  LDP0    DNT$
        17 000274   400000 236003                    LDQ     -131072,DU
        17 000275   000003 256100                    ORSQ    3,,PR0

  14251 17 000276   000001 236000 18                 LDQ     1
        17 000277   000003 356100                    ANSQ    3,,PR0

  14252 17 000300   000002 236000 18                 LDQ     2
        17 000301   000003 356100                    ANSQ    3,,PR0

  14253 17 000302   000003 236000 18                 LDQ     3
        17 000303   000003 356100                    ANSQ    3,,PR0

  14254 17 000304   000004 236000 18                 LDQ     4
        17 000305   000003 356100                    ANSQ    3,,PR0

  14255 17 000306   000045 220003                    LDX0    37,DU
        17 000307   000003 440100                    SXL0    3,,PR0

      114    14257        %NEWRSW;
      115    14260        %SEARCH (RWD='ALL',                    RWNO=%RSV_WRD_ALL);

  14264 17 000310   002731 054000 1                  AOS     NUMBER_OF_RESERVED_WORDS

  14265 17 000311   000003 235007                    LDA     3,DL
        17 000312   000010 755000 6                  STA     LEX_SYMBOL+8

  14266 17 000313   040000 100400                    MLR     fill='040'O
        17 000314   000024 000003 16                 ADSC9   20                       cn=0,n=3
        17 000315   000011 000504 6                  ADSC9   LEX_SYMBOL+9             cn=0,n=324

PL6.E3A0      #001=COBOLRW File=COBOLRW.:Z8A6TSI                                 SAT 08/09/97 09:25 Page:53
  14267 17 000316   000000 631400 18                 EPPR1   0
        17 000317   000000 701000 xent               TSX1    Z8AH$SEARCH_
        17 000320   000000 011000                    NOP     0

  14268 17 000321   000000 470400 2                  LDP0    DNT$
        17 000322   400000 236003                    LDQ     -131072,DU
        17 000323   000003 256100                    ORSQ    3,,PR0

  14269 17 000324   000001 236000 18                 LDQ     1
        17 000325   000003 356100                    ANSQ    3,,PR0

  14270 17 000326   000002 236000 18                 LDQ     2
        17 000327   000003 356100                    ANSQ    3,,PR0

  14271 17 000330   000003 236000 18                 LDQ     3
        17 000331   000003 356100                    ANSQ    3,,PR0

  14272 17 000332   000004 236000 18                 LDQ     4
        17 000333   000003 356100                    ANSQ    3,,PR0

  14273 17 000334   000046 220003                    LDX0    38,DU
        17 000335   000003 440100                    SXL0    3,,PR0

      116    14275        %NEWRSW;
      117    14278        %SEARCH (RWD='ALPHABET',               RWNO=%RSV_WRD_ALPHABET);

  14282 17 000336   002731 054000 1                  AOS     NUMBER_OF_RESERVED_WORDS

  14283 17 000337   000010 235007                    LDA     8,DL
        17 000340   000010 755000 6                  STA     LEX_SYMBOL+8

  14284 17 000341   040000 100400                    MLR     fill='040'O
        17 000342   000025 000010 16                 ADSC9   21                       cn=0,n=8
        17 000343   000011 000504 6                  ADSC9   LEX_SYMBOL+9             cn=0,n=324

  14285 17 000344   000000 631400 18                 EPPR1   0
        17 000345   000000 701000 xent               TSX1    Z8AH$SEARCH_
PL6.E3A0      #001=COBOLRW File=COBOLRW.:Z8A6TSI                                 SAT 08/09/97 09:25 Page:54
        17 000346   000000 011000                    NOP     0

  14286 17 000347   000000 470400 2                  LDP0    DNT$
        17 000350   400000 236003                    LDQ     -131072,DU
        17 000351   000003 256100                    ORSQ    3,,PR0

  14287 17 000352   000001 236000 18                 LDQ     1
        17 000353   000003 356100                    ANSQ    3,,PR0

  14288 17 000354   000002 236000 18                 LDQ     2
        17 000355   000003 356100                    ANSQ    3,,PR0

  14289 17 000356   000003 236000 18                 LDQ     3
        17 000357   000003 356100                    ANSQ    3,,PR0

  14290 17 000360   000004 236000 18                 LDQ     4
        17 000361   000003 356100                    ANSQ    3,,PR0

  14291 17 000362   000047 220003                    LDX0    39,DU
        17 000363   000003 440100                    SXL0    3,,PR0

      118    14293        %NEWRSW;
      119    14296        %SEARCH (RWD='ALPHABETIC',             RWNO=%RSV_WRD_ALPHABETIC);

  14300 17 000364   002731 054000 1                  AOS     NUMBER_OF_RESERVED_WORDS

  14301 17 000365   000012 235007                    LDA     10,DL
        17 000366   000010 755000 6                  STA     LEX_SYMBOL+8

  14302 17 000367   040000 100400                    MLR     fill='040'O
        17 000370   000027 000012 16                 ADSC9   23                       cn=0,n=10
        17 000371   000011 000504 6                  ADSC9   LEX_SYMBOL+9             cn=0,n=324

  14303 17 000372   000000 631400 18                 EPPR1   0
        17 000373   000000 701000 xent               TSX1    Z8AH$SEARCH_
        17 000374   000000 011000                    NOP     0

PL6.E3A0      #001=COBOLRW File=COBOLRW.:Z8A6TSI                                 SAT 08/09/97 09:25 Page:55
  14304 17 000375   000000 470400 2                  LDP0    DNT$
        17 000376   400000 236003                    LDQ     -131072,DU
        17 000377   000003 256100                    ORSQ    3,,PR0

  14305 17 000400   000001 236000 18                 LDQ     1
        17 000401   000003 356100                    ANSQ    3,,PR0

  14306 17 000402   000002 236000 18                 LDQ     2
        17 000403   000003 356100                    ANSQ    3,,PR0

  14307 17 000404   000003 236000 18                 LDQ     3
        17 000405   000003 356100                    ANSQ    3,,PR0

  14308 17 000406   000004 236000 18                 LDQ     4
        17 000407   000003 356100                    ANSQ    3,,PR0

  14309 17 000410   000050 220003                    LDX0    40,DU
        17 000411   000003 440100                    SXL0    3,,PR0

      120    14311        %NEWRSW;
      121    14314        %SEARCH (RWD='ALPHABETIC-LOWER',       RWNO=%RSV_WRD_ALPHABETIC_LOWER);

  14318 17 000412   002731 054000 1                  AOS     NUMBER_OF_RESERVED_WORDS

  14319 17 000413   000020 235007                    LDA     16,DL
        17 000414   000010 755000 6                  STA     LEX_SYMBOL+8

  14320 17 000415   040000 100400                    MLR     fill='040'O
        17 000416   000032 000020 16                 ADSC9   26                       cn=0,n=16
        17 000417   000011 000504 6                  ADSC9   LEX_SYMBOL+9             cn=0,n=324

  14321 17 000420   000000 631400 18                 EPPR1   0
        17 000421   000000 701000 xent               TSX1    Z8AH$SEARCH_
        17 000422   000000 011000                    NOP     0

  14322 17 000423   000000 470400 2                  LDP0    DNT$
        17 000424   400000 236003                    LDQ     -131072,DU
PL6.E3A0      #001=COBOLRW File=COBOLRW.:Z8A6TSI                                 SAT 08/09/97 09:25 Page:56
        17 000425   000003 256100                    ORSQ    3,,PR0

  14323 17 000426   000001 236000 18                 LDQ     1
        17 000427   000003 356100                    ANSQ    3,,PR0

  14324 17 000430   000002 236000 18                 LDQ     2
        17 000431   000003 356100                    ANSQ    3,,PR0

  14325 17 000432   000003 236000 18                 LDQ     3
        17 000433   000003 356100                    ANSQ    3,,PR0

  14326 17 000434   000004 236000 18                 LDQ     4
        17 000435   000003 356100                    ANSQ    3,,PR0

  14327 17 000436   000051 220003                    LDX0    41,DU
        17 000437   000003 440100                    SXL0    3,,PR0

      122    14329        %NEWRSW;
      123    14332        %SEARCH (RWD='ALPHABETIC-UPPER',       RWNO=%RSV_WRD_ALPHABETIC_UPPER);

  14336 17 000440   002731 054000 1                  AOS     NUMBER_OF_RESERVED_WORDS

  14337 17 000441   000020 235007                    LDA     16,DL
        17 000442   000010 755000 6                  STA     LEX_SYMBOL+8

  14338 17 000443   040000 100400                    MLR     fill='040'O
        17 000444   000036 000020 16                 ADSC9   30                       cn=0,n=16
        17 000445   000011 000504 6                  ADSC9   LEX_SYMBOL+9             cn=0,n=324

  14339 17 000446   000000 631400 18                 EPPR1   0
        17 000447   000000 701000 xent               TSX1    Z8AH$SEARCH_
        17 000450   000000 011000                    NOP     0

  14340 17 000451   000000 470400 2                  LDP0    DNT$
        17 000452   400000 236003                    LDQ     -131072,DU
        17 000453   000003 256100                    ORSQ    3,,PR0

PL6.E3A0      #001=COBOLRW File=COBOLRW.:Z8A6TSI                                 SAT 08/09/97 09:25 Page:57
  14341 17 000454   000001 236000 18                 LDQ     1
        17 000455   000003 356100                    ANSQ    3,,PR0

  14342 17 000456   000002 236000 18                 LDQ     2
        17 000457   000003 356100                    ANSQ    3,,PR0

  14343 17 000460   000003 236000 18                 LDQ     3
        17 000461   000003 356100                    ANSQ    3,,PR0

  14344 17 000462   000004 236000 18                 LDQ     4
        17 000463   000003 356100                    ANSQ    3,,PR0

  14345 17 000464   000052 220003                    LDX0    42,DU
        17 000465   000003 440100                    SXL0    3,,PR0

      124    14347        %NEWRSW;
      125    14350        %SEARCH (RWD='ALPHANUMERIC',           RWNO=%RSV_WRD_ALPHANUMERIC);

  14354 17 000466   002731 054000 1                  AOS     NUMBER_OF_RESERVED_WORDS

  14355 17 000467   000014 235007                    LDA     12,DL
        17 000470   000010 755000 6                  STA     LEX_SYMBOL+8

  14356 17 000471   040000 100400                    MLR     fill='040'O
        17 000472   000042 000014 16                 ADSC9   34                       cn=0,n=12
        17 000473   000011 000504 6                  ADSC9   LEX_SYMBOL+9             cn=0,n=324

  14357 17 000474   000000 631400 18                 EPPR1   0
        17 000475   000000 701000 xent               TSX1    Z8AH$SEARCH_
        17 000476   000000 011000                    NOP     0

  14358 17 000477   000000 470400 2                  LDP0    DNT$
        17 000500   400000 236003                    LDQ     -131072,DU
        17 000501   000003 256100                    ORSQ    3,,PR0

  14359 17 000502   000001 236000 18                 LDQ     1
        17 000503   000003 356100                    ANSQ    3,,PR0
PL6.E3A0      #001=COBOLRW File=COBOLRW.:Z8A6TSI                                 SAT 08/09/97 09:25 Page:58

  14360 17 000504   000002 236000 18                 LDQ     2
        17 000505   000003 356100                    ANSQ    3,,PR0

  14361 17 000506   000003 236000 18                 LDQ     3
        17 000507   000003 356100                    ANSQ    3,,PR0

  14362 17 000510   000004 236000 18                 LDQ     4
        17 000511   000003 356100                    ANSQ    3,,PR0

  14363 17 000512   000053 220003                    LDX0    43,DU
        17 000513   000003 440100                    SXL0    3,,PR0

      126    14365        %NEWRSW;
      127    14368        %SEARCH (RWD='ALPHANUMERIC-EDITED',    RWNO=%RSV_WRD_ALPHANUMERIC_EDITED);

  14372 17 000514   002731 054000 1                  AOS     NUMBER_OF_RESERVED_WORDS

  14373 17 000515   000023 235007                    LDA     19,DL
        17 000516   000010 755000 6                  STA     LEX_SYMBOL+8

  14374 17 000517   040000 100400                    MLR     fill='040'O
        17 000520   000045 000023 16                 ADSC9   37                       cn=0,n=19
        17 000521   000011 000504 6                  ADSC9   LEX_SYMBOL+9             cn=0,n=324

  14375 17 000522   000000 631400 18                 EPPR1   0
        17 000523   000000 701000 xent               TSX1    Z8AH$SEARCH_
        17 000524   000000 011000                    NOP     0

  14376 17 000525   000000 470400 2                  LDP0    DNT$
        17 000526   400000 236003                    LDQ     -131072,DU
        17 000527   000003 256100                    ORSQ    3,,PR0

  14377 17 000530   000001 236000 18                 LDQ     1
        17 000531   000003 356100                    ANSQ    3,,PR0

  14378 17 000532   000002 236000 18                 LDQ     2
PL6.E3A0      #001=COBOLRW File=COBOLRW.:Z8A6TSI                                 SAT 08/09/97 09:25 Page:59
        17 000533   000003 356100                    ANSQ    3,,PR0

  14379 17 000534   000003 236000 18                 LDQ     3
        17 000535   000003 356100                    ANSQ    3,,PR0

  14380 17 000536   000004 236000 18                 LDQ     4
        17 000537   000003 356100                    ANSQ    3,,PR0

  14381 17 000540   000054 220003                    LDX0    44,DU
        17 000541   000003 440100                    SXL0    3,,PR0

      128    14383        %NEWRSW;
      129    14386        %SEARCH (RWD='ALSO',                   RWNO=%RSV_WRD_ALSO);

  14390 17 000542   002731 054000 1                  AOS     NUMBER_OF_RESERVED_WORDS

  14391 17 000543   000004 235007                    LDA     4,DL
        17 000544   000010 755000 6                  STA     LEX_SYMBOL+8

  14392 17 000545   040000 100400                    MLR     fill='040'O
        17 000546   000052 000004 16                 ADSC9   42                       cn=0,n=4
        17 000547   000011 000504 6                  ADSC9   LEX_SYMBOL+9             cn=0,n=324

  14393 17 000550   000000 631400 18                 EPPR1   0
        17 000551   000000 701000 xent               TSX1    Z8AH$SEARCH_
        17 000552   000000 011000                    NOP     0

  14394 17 000553   000000 470400 2                  LDP0    DNT$
        17 000554   400000 236003                    LDQ     -131072,DU
        17 000555   000003 256100                    ORSQ    3,,PR0

  14395 17 000556   000001 236000 18                 LDQ     1
        17 000557   000003 356100                    ANSQ    3,,PR0

  14396 17 000560   000002 236000 18                 LDQ     2
        17 000561   000003 356100                    ANSQ    3,,PR0

PL6.E3A0      #001=COBOLRW File=COBOLRW.:Z8A6TSI                                 SAT 08/09/97 09:25 Page:60
  14397 17 000562   000003 236000 18                 LDQ     3
        17 000563   000003 356100                    ANSQ    3,,PR0

  14398 17 000564   000004 236000 18                 LDQ     4
        17 000565   000003 356100                    ANSQ    3,,PR0

  14399 17 000566   000055 220003                    LDX0    45,DU
        17 000567   000003 440100                    SXL0    3,,PR0

      130    14401        %NEWRSW;
      131    14404        %SEARCH (RWD='ALTER',                  RWNO=%RSV_WRD_ALTER);

  14408 17 000570   002731 054000 1                  AOS     NUMBER_OF_RESERVED_WORDS

  14409 17 000571   000005 235007                    LDA     5,DL
        17 000572   000010 755000 6                  STA     LEX_SYMBOL+8

  14410 17 000573   040000 100400                    MLR     fill='040'O
        17 000574   000053 000005 16                 ADSC9   43                       cn=0,n=5
        17 000575   000011 000504 6                  ADSC9   LEX_SYMBOL+9             cn=0,n=324

  14411 17 000576   000000 631400 18                 EPPR1   0
        17 000577   000000 701000 xent               TSX1    Z8AH$SEARCH_
        17 000600   000000 011000                    NOP     0

  14412 17 000601   000000 470400 2                  LDP0    DNT$
        17 000602   400000 236003                    LDQ     -131072,DU
        17 000603   000003 256100                    ORSQ    3,,PR0

  14413 17 000604   000001 236000 18                 LDQ     1
        17 000605   000003 356100                    ANSQ    3,,PR0

  14414 17 000606   000002 236000 18                 LDQ     2
        17 000607   000003 356100                    ANSQ    3,,PR0

  14415 17 000610   000003 236000 18                 LDQ     3
        17 000611   000003 356100                    ANSQ    3,,PR0
PL6.E3A0      #001=COBOLRW File=COBOLRW.:Z8A6TSI                                 SAT 08/09/97 09:25 Page:61

  14416 17 000612   000004 236000 18                 LDQ     4
        17 000613   000003 356100                    ANSQ    3,,PR0

  14417 17 000614   000056 220003                    LDX0    46,DU
        17 000615   000003 440100                    SXL0    3,,PR0

      132    14419        %NEWRSW;
      133    14422        %SEARCH (RWD='ALTERNATE',              RWNO=%RSV_WRD_ALTERNATE);

  14426 17 000616   002731 054000 1                  AOS     NUMBER_OF_RESERVED_WORDS

  14427 17 000617   000011 235007                    LDA     9,DL
        17 000620   000010 755000 6                  STA     LEX_SYMBOL+8

  14428 17 000621   040000 100400                    MLR     fill='040'O
        17 000622   000055 000011 16                 ADSC9   45                       cn=0,n=9
        17 000623   000011 000504 6                  ADSC9   LEX_SYMBOL+9             cn=0,n=324

  14429 17 000624   000000 631400 18                 EPPR1   0
        17 000625   000000 701000 xent               TSX1    Z8AH$SEARCH_
        17 000626   000000 011000                    NOP     0

  14430 17 000627   000000 470400 2                  LDP0    DNT$
        17 000630   400000 236003                    LDQ     -131072,DU
        17 000631   000003 256100                    ORSQ    3,,PR0

  14431 17 000632   000001 236000 18                 LDQ     1
        17 000633   000003 356100                    ANSQ    3,,PR0

  14432 17 000634   000002 236000 18                 LDQ     2
        17 000635   000003 356100                    ANSQ    3,,PR0

  14433 17 000636   000003 236000 18                 LDQ     3
        17 000637   000003 356100                    ANSQ    3,,PR0

  14434 17 000640   000004 236000 18                 LDQ     4
PL6.E3A0      #001=COBOLRW File=COBOLRW.:Z8A6TSI                                 SAT 08/09/97 09:25 Page:62
        17 000641   000003 356100                    ANSQ    3,,PR0

  14435 17 000642   000057 220003                    LDX0    47,DU
        17 000643   000003 440100                    SXL0    3,,PR0

      134    14437        %NEWRSW;
      135    14440        %SEARCH (RWD='AND',                    RWNO=%RSV_WRD_AND);

  14444 17 000644   002731 054000 1                  AOS     NUMBER_OF_RESERVED_WORDS

  14445 17 000645   000003 235007                    LDA     3,DL
        17 000646   000010 755000 6                  STA     LEX_SYMBOL+8

  14446 17 000647   040000 100400                    MLR     fill='040'O
        17 000650   000060 000003 16                 ADSC9   48                       cn=0,n=3
        17 000651   000011 000504 6                  ADSC9   LEX_SYMBOL+9             cn=0,n=324

  14447 17 000652   000000 631400 18                 EPPR1   0
        17 000653   000000 701000 xent               TSX1    Z8AH$SEARCH_
        17 000654   000000 011000                    NOP     0

  14448 17 000655   000000 470400 2                  LDP0    DNT$
        17 000656   400000 236003                    LDQ     -131072,DU
        17 000657   000003 256100                    ORSQ    3,,PR0

  14449 17 000660   000001 236000 18                 LDQ     1
        17 000661   000003 356100                    ANSQ    3,,PR0

  14450 17 000662   000002 236000 18                 LDQ     2
        17 000663   000003 356100                    ANSQ    3,,PR0

  14451 17 000664   000003 236000 18                 LDQ     3
        17 000665   000003 356100                    ANSQ    3,,PR0

  14452 17 000666   000004 236000 18                 LDQ     4
        17 000667   000003 356100                    ANSQ    3,,PR0

PL6.E3A0      #001=COBOLRW File=COBOLRW.:Z8A6TSI                                 SAT 08/09/97 09:25 Page:63
  14453 17 000670   000060 220003                    LDX0    48,DU
        17 000671   000003 440100                    SXL0    3,,PR0

      136    14455        %NEWRSW;
      137    14458        %SEARCH (RWD='ANSI',                   RWNO=%RSV_WRD_ANSI);

  14462 17 000672   002731 054000 1                  AOS     NUMBER_OF_RESERVED_WORDS

  14463 17 000673   000004 235007                    LDA     4,DL
        17 000674   000010 755000 6                  STA     LEX_SYMBOL+8

  14464 17 000675   040000 100400                    MLR     fill='040'O
        17 000676   000061 000004 16                 ADSC9   49                       cn=0,n=4
        17 000677   000011 000504 6                  ADSC9   LEX_SYMBOL+9             cn=0,n=324

  14465 17 000700   000000 631400 18                 EPPR1   0
        17 000701   000000 701000 xent               TSX1    Z8AH$SEARCH_
        17 000702   000000 011000                    NOP     0

  14466 17 000703   000000 470400 2                  LDP0    DNT$
        17 000704   400000 236003                    LDQ     -131072,DU
        17 000705   000003 256100                    ORSQ    3,,PR0

  14467 17 000706   000001 236000 18                 LDQ     1
        17 000707   000003 356100                    ANSQ    3,,PR0

  14468 17 000710   000002 236000 18                 LDQ     2
        17 000711   000003 356100                    ANSQ    3,,PR0

  14469 17 000712   000003 236000 18                 LDQ     3
        17 000713   000003 356100                    ANSQ    3,,PR0

  14470 17 000714   000004 236000 18                 LDQ     4
        17 000715   000003 356100                    ANSQ    3,,PR0

  14471 17 000716   000061 220003                    LDX0    49,DU
        17 000717   000003 440100                    SXL0    3,,PR0
PL6.E3A0      #001=COBOLRW File=COBOLRW.:Z8A6TSI                                 SAT 08/09/97 09:25 Page:64

      138    14473        %NEWRSW;
      139    14476        %SEARCH (RWD='ANY',                    RWNO=%RSV_WRD_ANY);

  14480 17 000720   002731 054000 1                  AOS     NUMBER_OF_RESERVED_WORDS

  14481 17 000721   000003 235007                    LDA     3,DL
        17 000722   000010 755000 6                  STA     LEX_SYMBOL+8

  14482 17 000723   040000 100400                    MLR     fill='040'O
        17 000724   000062 000003 16                 ADSC9   50                       cn=0,n=3
        17 000725   000011 000504 6                  ADSC9   LEX_SYMBOL+9             cn=0,n=324

  14483 17 000726   000000 631400 18                 EPPR1   0
        17 000727   000000 701000 xent               TSX1    Z8AH$SEARCH_
        17 000730   000000 011000                    NOP     0

  14484 17 000731   000000 470400 2                  LDP0    DNT$
        17 000732   400000 236003                    LDQ     -131072,DU
        17 000733   000003 256100                    ORSQ    3,,PR0

  14485 17 000734   000001 236000 18                 LDQ     1
        17 000735   000003 356100                    ANSQ    3,,PR0

  14486 17 000736   000002 236000 18                 LDQ     2
        17 000737   000003 356100                    ANSQ    3,,PR0

  14487 17 000740   000003 236000 18                 LDQ     3
        17 000741   000003 356100                    ANSQ    3,,PR0

  14488 17 000742   000004 236000 18                 LDQ     4
        17 000743   000003 356100                    ANSQ    3,,PR0

  14489 17 000744   000062 220003                    LDX0    50,DU
        17 000745   000003 440100                    SXL0    3,,PR0

      140    14491        %NEWRSW;
PL6.E3A0      #001=COBOLRW File=COBOLRW.:Z8A6TSI                                 SAT 08/09/97 09:25 Page:65
      141    14494        %SEARCH (RWD='APPLY',                  RWNO=%RSV_WRD_APPLY);

  14498 17 000746   002731 054000 1                  AOS     NUMBER_OF_RESERVED_WORDS

  14499 17 000747   000005 235007                    LDA     5,DL
        17 000750   000010 755000 6                  STA     LEX_SYMBOL+8

  14500 17 000751   040000 100400                    MLR     fill='040'O
        17 000752   000063 000005 16                 ADSC9   51                       cn=0,n=5
        17 000753   000011 000504 6                  ADSC9   LEX_SYMBOL+9             cn=0,n=324

  14501 17 000754   000000 631400 18                 EPPR1   0
        17 000755   000000 701000 xent               TSX1    Z8AH$SEARCH_
        17 000756   000000 011000                    NOP     0

  14502 17 000757   000000 470400 2                  LDP0    DNT$
        17 000760   400000 236003                    LDQ     -131072,DU
        17 000761   000003 256100                    ORSQ    3,,PR0

  14503 17 000762   000001 236000 18                 LDQ     1
        17 000763   000003 356100                    ANSQ    3,,PR0

  14504 17 000764   000002 236000 18                 LDQ     2
        17 000765   000003 356100                    ANSQ    3,,PR0

  14505 17 000766   000003 236000 18                 LDQ     3
        17 000767   000003 356100                    ANSQ    3,,PR0

  14506 17 000770   000004 236000 18                 LDQ     4
        17 000771   000003 356100                    ANSQ    3,,PR0

  14507 17 000772   000063 220003                    LDX0    51,DU
        17 000773   000003 440100                    SXL0    3,,PR0

      142    14509        %NEWRSW;
      143    14512        %SEARCH (RWD='ARE',                    RWNO=%RSV_WRD_ARE);

PL6.E3A0      #001=COBOLRW File=COBOLRW.:Z8A6TSI                                 SAT 08/09/97 09:25 Page:66
  14516 17 000774   002731 054000 1                  AOS     NUMBER_OF_RESERVED_WORDS

  14517 17 000775   000003 235007                    LDA     3,DL
        17 000776   000010 755000 6                  STA     LEX_SYMBOL+8

  14518 17 000777   040000 100400                    MLR     fill='040'O
        17 001000   000065 000003 16                 ADSC9   53                       cn=0,n=3
        17 001001   000011 000504 6                  ADSC9   LEX_SYMBOL+9             cn=0,n=324

  14519 17 001002   000000 631400 18                 EPPR1   0
        17 001003   000000 701000 xent               TSX1    Z8AH$SEARCH_
        17 001004   000000 011000                    NOP     0

  14520 17 001005   000000 470400 2                  LDP0    DNT$
        17 001006   400000 236003                    LDQ     -131072,DU
        17 001007   000003 256100                    ORSQ    3,,PR0

  14521 17 001010   000001 236000 18                 LDQ     1
        17 001011   000003 356100                    ANSQ    3,,PR0

  14522 17 001012   000002 236000 18                 LDQ     2
        17 001013   000003 356100                    ANSQ    3,,PR0

  14523 17 001014   000003 236000 18                 LDQ     3
        17 001015   000003 356100                    ANSQ    3,,PR0

  14524 17 001016   000004 236000 18                 LDQ     4
        17 001017   000003 356100                    ANSQ    3,,PR0

  14525 17 001020   000064 220003                    LDX0    52,DU
        17 001021   000003 440100                    SXL0    3,,PR0

      144    14527        %NEWRSW;
      145    14530        %SEARCH (RWD='AREA',                   RWNO=%RSV_WRD_AREA);

  14534 17 001022   002731 054000 1                  AOS     NUMBER_OF_RESERVED_WORDS

PL6.E3A0      #001=COBOLRW File=COBOLRW.:Z8A6TSI                                 SAT 08/09/97 09:25 Page:67
  14535 17 001023   000004 235007                    LDA     4,DL
        17 001024   000010 755000 6                  STA     LEX_SYMBOL+8

  14536 17 001025   040000 100400                    MLR     fill='040'O
        17 001026   000066 000004 16                 ADSC9   54                       cn=0,n=4
        17 001027   000011 000504 6                  ADSC9   LEX_SYMBOL+9             cn=0,n=324

  14537 17 001030   000000 631400 18                 EPPR1   0
        17 001031   000000 701000 xent               TSX1    Z8AH$SEARCH_
        17 001032   000000 011000                    NOP     0

  14538 17 001033   000000 470400 2                  LDP0    DNT$
        17 001034   400000 236003                    LDQ     -131072,DU
        17 001035   000003 256100                    ORSQ    3,,PR0

  14539 17 001036   000001 236000 18                 LDQ     1
        17 001037   000003 356100                    ANSQ    3,,PR0

  14540 17 001040   000002 236000 18                 LDQ     2
        17 001041   000003 356100                    ANSQ    3,,PR0

  14541 17 001042   000003 236000 18                 LDQ     3
        17 001043   000003 356100                    ANSQ    3,,PR0

  14542 17 001044   000004 236000 18                 LDQ     4
        17 001045   000003 356100                    ANSQ    3,,PR0

  14543 17 001046   000065 220003                    LDX0    53,DU
        17 001047   000003 440100                    SXL0    3,,PR0

      146    14545        %NEWRSW;
      147    14548        %SEARCH (RWD='AREAS',                  RWNO=%RSV_WRD_AREAS);

  14552 17 001050   002731 054000 1                  AOS     NUMBER_OF_RESERVED_WORDS

  14553 17 001051   000005 235007                    LDA     5,DL
        17 001052   000010 755000 6                  STA     LEX_SYMBOL+8
PL6.E3A0      #001=COBOLRW File=COBOLRW.:Z8A6TSI                                 SAT 08/09/97 09:25 Page:68

  14554 17 001053   040000 100400                    MLR     fill='040'O
        17 001054   000067 000005 16                 ADSC9   55                       cn=0,n=5
        17 001055   000011 000504 6                  ADSC9   LEX_SYMBOL+9             cn=0,n=324

  14555 17 001056   000000 631400 18                 EPPR1   0
        17 001057   000000 701000 xent               TSX1    Z8AH$SEARCH_
        17 001060   000000 011000                    NOP     0

  14556 17 001061   000000 470400 2                  LDP0    DNT$
        17 001062   400000 236003                    LDQ     -131072,DU
        17 001063   000003 256100                    ORSQ    3,,PR0

  14557 17 001064   000001 236000 18                 LDQ     1
        17 001065   000003 356100                    ANSQ    3,,PR0

  14558 17 001066   000002 236000 18                 LDQ     2
        17 001067   000003 356100                    ANSQ    3,,PR0

  14559 17 001070   000003 236000 18                 LDQ     3
        17 001071   000003 356100                    ANSQ    3,,PR0

  14560 17 001072   000004 236000 18                 LDQ     4
        17 001073   000003 356100                    ANSQ    3,,PR0

  14561 17 001074   000066 220003                    LDX0    54,DU
        17 001075   000003 440100                    SXL0    3,,PR0

      148    14563        %NEWRSW;
      149    14566        %SEARCH (RWD='ASCENDING',              RWNO=%RSV_WRD_ASCENDING);

  14570 17 001076   002731 054000 1                  AOS     NUMBER_OF_RESERVED_WORDS

  14571 17 001077   000011 235007                    LDA     9,DL
        17 001100   000010 755000 6                  STA     LEX_SYMBOL+8

  14572 17 001101   040000 100400                    MLR     fill='040'O
PL6.E3A0      #001=COBOLRW File=COBOLRW.:Z8A6TSI                                 SAT 08/09/97 09:25 Page:69
        17 001102   000071 000011 16                 ADSC9   57                       cn=0,n=9
        17 001103   000011 000504 6                  ADSC9   LEX_SYMBOL+9             cn=0,n=324

  14573 17 001104   000000 631400 18                 EPPR1   0
        17 001105   000000 701000 xent               TSX1    Z8AH$SEARCH_
        17 001106   000000 011000                    NOP     0

  14574 17 001107   000000 470400 2                  LDP0    DNT$
        17 001110   400000 236003                    LDQ     -131072,DU
        17 001111   000003 256100                    ORSQ    3,,PR0

  14575 17 001112   000001 236000 18                 LDQ     1
        17 001113   000003 356100                    ANSQ    3,,PR0

  14576 17 001114   000002 236000 18                 LDQ     2
        17 001115   000003 356100                    ANSQ    3,,PR0

  14577 17 001116   000003 236000 18                 LDQ     3
        17 001117   000003 356100                    ANSQ    3,,PR0

  14578 17 001120   000004 236000 18                 LDQ     4
        17 001121   000003 356100                    ANSQ    3,,PR0

  14579 17 001122   000067 220003                    LDX0    55,DU
        17 001123   000003 440100                    SXL0    3,,PR0

      150    14581        %NEWRSW;
      151    14584        %SEARCH (RWD='ASCII',                  RWNO=%RSV_WRD_ASCII);

  14588 17 001124   002731 054000 1                  AOS     NUMBER_OF_RESERVED_WORDS

  14589 17 001125   000005 235007                    LDA     5,DL
        17 001126   000010 755000 6                  STA     LEX_SYMBOL+8

  14590 17 001127   040000 100400                    MLR     fill='040'O
        17 001130   000074 000005 16                 ADSC9   60                       cn=0,n=5
        17 001131   000011 000504 6                  ADSC9   LEX_SYMBOL+9             cn=0,n=324
PL6.E3A0      #001=COBOLRW File=COBOLRW.:Z8A6TSI                                 SAT 08/09/97 09:25 Page:70

  14591 17 001132   000000 631400 18                 EPPR1   0
        17 001133   000000 701000 xent               TSX1    Z8AH$SEARCH_
        17 001134   000000 011000                    NOP     0

  14592 17 001135   000000 470400 2                  LDP0    DNT$
        17 001136   400000 236003                    LDQ     -131072,DU
        17 001137   000003 256100                    ORSQ    3,,PR0

  14593 17 001140   000001 236000 18                 LDQ     1
        17 001141   000003 356100                    ANSQ    3,,PR0

  14594 17 001142   000002 236000 18                 LDQ     2
        17 001143   000003 356100                    ANSQ    3,,PR0

  14595 17 001144   000003 236000 18                 LDQ     3
        17 001145   000003 356100                    ANSQ    3,,PR0

  14596 17 001146   000004 236000 18                 LDQ     4
        17 001147   000003 356100                    ANSQ    3,,PR0

  14597 17 001150   000070 220003                    LDX0    56,DU
        17 001151   000003 440100                    SXL0    3,,PR0

      152    14599        %NEWRSW;
      153    14602        %SEARCH (RWD='ASSIGN',                 RWNO=%RSV_WRD_ASSIGN);

  14606 17 001152   002731 054000 1                  AOS     NUMBER_OF_RESERVED_WORDS

  14607 17 001153   000006 235007                    LDA     6,DL
        17 001154   000010 755000 6                  STA     LEX_SYMBOL+8

  14608 17 001155   040000 100400                    MLR     fill='040'O
        17 001156   000076 000006 16                 ADSC9   62                       cn=0,n=6
        17 001157   000011 000504 6                  ADSC9   LEX_SYMBOL+9             cn=0,n=324

  14609 17 001160   000000 631400 18                 EPPR1   0
PL6.E3A0      #001=COBOLRW File=COBOLRW.:Z8A6TSI                                 SAT 08/09/97 09:25 Page:71
        17 001161   000000 701000 xent               TSX1    Z8AH$SEARCH_
        17 001162   000000 011000                    NOP     0

  14610 17 001163   000000 470400 2                  LDP0    DNT$
        17 001164   400000 236003                    LDQ     -131072,DU
        17 001165   000003 256100                    ORSQ    3,,PR0

  14611 17 001166   000001 236000 18                 LDQ     1
        17 001167   000003 356100                    ANSQ    3,,PR0

  14612 17 001170   000002 236000 18                 LDQ     2
        17 001171   000003 356100                    ANSQ    3,,PR0

  14613 17 001172   000003 236000 18                 LDQ     3
        17 001173   000003 356100                    ANSQ    3,,PR0

  14614 17 001174   000004 236000 18                 LDQ     4
        17 001175   000003 356100                    ANSQ    3,,PR0

  14615 17 001176   000071 220003                    LDX0    57,DU
        17 001177   000003 440100                    SXL0    3,,PR0

      154    14617        %NEWRSW;
      155    14620        %SEARCH (RWD='AT',                     RWNO=%RSV_WRD_AT);

  14624 17 001200   002731 054000 1                  AOS     NUMBER_OF_RESERVED_WORDS

  14625 17 001201   000002 235007                    LDA     2,DL
        17 001202   000010 755000 6                  STA     LEX_SYMBOL+8

  14626 17 001203   040000 100400                    MLR     fill='040'O
        17 001204   000100 000002 16                 ADSC9   64                       cn=0,n=2
        17 001205   000011 000504 6                  ADSC9   LEX_SYMBOL+9             cn=0,n=324

  14627 17 001206   000000 631400 18                 EPPR1   0
        17 001207   000000 701000 xent               TSX1    Z8AH$SEARCH_
        17 001210   000000 011000                    NOP     0
PL6.E3A0      #001=COBOLRW File=COBOLRW.:Z8A6TSI                                 SAT 08/09/97 09:25 Page:72

  14628 17 001211   000000 470400 2                  LDP0    DNT$
        17 001212   400000 236003                    LDQ     -131072,DU
        17 001213   000003 256100                    ORSQ    3,,PR0

  14629 17 001214   000001 236000 18                 LDQ     1
        17 001215   000003 356100                    ANSQ    3,,PR0

  14630 17 001216   000002 236000 18                 LDQ     2
        17 001217   000003 356100                    ANSQ    3,,PR0

  14631 17 001220   000003 236000 18                 LDQ     3
        17 001221   000003 356100                    ANSQ    3,,PR0

  14632 17 001222   000004 236000 18                 LDQ     4
        17 001223   000003 356100                    ANSQ    3,,PR0

  14633 17 001224   000072 220003                    LDX0    58,DU
        17 001225   000003 440100                    SXL0    3,,PR0

      156    14635        %NEWRSW;
      157    14638        %SEARCH (RWD='ATTACH-OPTIONS',         RWNO=%RSV_WRD_ATTACH_OPTIONS);

  14642 17 001226   002731 054000 1                  AOS     NUMBER_OF_RESERVED_WORDS

  14643 17 001227   000016 235007                    LDA     14,DL
        17 001230   000010 755000 6                  STA     LEX_SYMBOL+8

  14644 17 001231   040000 100400                    MLR     fill='040'O
        17 001232   000101 000016 16                 ADSC9   65                       cn=0,n=14
        17 001233   000011 000504 6                  ADSC9   LEX_SYMBOL+9             cn=0,n=324

  14645 17 001234   000000 631400 18                 EPPR1   0
        17 001235   000000 701000 xent               TSX1    Z8AH$SEARCH_
        17 001236   000000 011000                    NOP     0

  14646 17 001237   000000 470400 2                  LDP0    DNT$
PL6.E3A0      #001=COBOLRW File=COBOLRW.:Z8A6TSI                                 SAT 08/09/97 09:25 Page:73
        17 001240   400000 236003                    LDQ     -131072,DU
        17 001241   000003 256100                    ORSQ    3,,PR0

  14647 17 001242   000001 236000 18                 LDQ     1
        17 001243   000003 356100                    ANSQ    3,,PR0

  14648 17 001244   000002 236000 18                 LDQ     2
        17 001245   000003 356100                    ANSQ    3,,PR0

  14649 17 001246   000003 236000 18                 LDQ     3
        17 001247   000003 356100                    ANSQ    3,,PR0

  14650 17 001250   000004 236000 18                 LDQ     4
        17 001251   000003 356100                    ANSQ    3,,PR0

  14651 17 001252   000073 220003                    LDX0    59,DU
        17 001253   000003 440100                    SXL0    3,,PR0

      158    14653        %NEWRSW;
      159    14656        %SEARCH (RWD='AUTHOR',                 RWNO=%RSV_WRD_AUTHOR, MUST_AREAA=TRUE);

  14660 17 001254   002731 054000 1                  AOS     NUMBER_OF_RESERVED_WORDS

  14661 17 001255   000006 235007                    LDA     6,DL
        17 001256   000010 755000 6                  STA     LEX_SYMBOL+8

  14662 17 001257   040000 100400                    MLR     fill='040'O
        17 001260   000105 000006 16                 ADSC9   69                       cn=0,n=6
        17 001261   000011 000504 6                  ADSC9   LEX_SYMBOL+9             cn=0,n=324

  14663 17 001262   000000 631400 18                 EPPR1   0
        17 001263   000000 701000 xent               TSX1    Z8AH$SEARCH_
        17 001264   000000 011000                    NOP     0

  14664 17 001265   000000 470400 2                  LDP0    DNT$
        17 001266   400000 236003                    LDQ     -131072,DU
        17 001267   000003 256100                    ORSQ    3,,PR0
PL6.E3A0      #001=COBOLRW File=COBOLRW.:Z8A6TSI                                 SAT 08/09/97 09:25 Page:74

  14665 17 001270   000001 236000 18                 LDQ     1
        17 001271   000003 356100                    ANSQ    3,,PR0

  14666 17 001272   000002 236000 18                 LDQ     2
        17 001273   000003 356100                    ANSQ    3,,PR0

  14667 17 001274   000040 236003                    LDQ     32,DU
        17 001275   000003 256100                    ORSQ    3,,PR0

  14668 17 001276   000004 236000 18                 LDQ     4
        17 001277   000003 356100                    ANSQ    3,,PR0

  14669 17 001300   000074 220003                    LDX0    60,DU
        17 001301   000003 440100                    SXL0    3,,PR0

      160    14671        %NEWRSW;
      161    14674        %SEARCH (RWD='BEFORE',                 RWNO=%RSV_WRD_BEFORE);

  14678 17 001302   002731 054000 1                  AOS     NUMBER_OF_RESERVED_WORDS

  14679 17 001303   000006 235007                    LDA     6,DL
        17 001304   000010 755000 6                  STA     LEX_SYMBOL+8

  14680 17 001305   040000 100400                    MLR     fill='040'O
        17 001306   000107 000006 16                 ADSC9   71                       cn=0,n=6
        17 001307   000011 000504 6                  ADSC9   LEX_SYMBOL+9             cn=0,n=324

  14681 17 001310   000000 631400 18                 EPPR1   0
        17 001311   000000 701000 xent               TSX1    Z8AH$SEARCH_
        17 001312   000000 011000                    NOP     0

  14682 17 001313   000000 470400 2                  LDP0    DNT$
        17 001314   400000 236003                    LDQ     -131072,DU
        17 001315   000003 256100                    ORSQ    3,,PR0

  14683 17 001316   000001 236000 18                 LDQ     1
PL6.E3A0      #001=COBOLRW File=COBOLRW.:Z8A6TSI                                 SAT 08/09/97 09:25 Page:75
        17 001317   000003 356100                    ANSQ    3,,PR0

  14684 17 001320   000002 236000 18                 LDQ     2
        17 001321   000003 356100                    ANSQ    3,,PR0

  14685 17 001322   000003 236000 18                 LDQ     3
        17 001323   000003 356100                    ANSQ    3,,PR0

  14686 17 001324   000004 236000 18                 LDQ     4
        17 001325   000003 356100                    ANSQ    3,,PR0

  14687 17 001326   000075 220003                    LDX0    61,DU
        17 001327   000003 440100                    SXL0    3,,PR0

      162    14689        %NEWRSW;
      163    14692        %SEARCH (RWD='BEGINNING',              RWNO=%RSV_WRD_BEGINNING);

  14696 17 001330   002731 054000 1                  AOS     NUMBER_OF_RESERVED_WORDS

  14697 17 001331   000011 235007                    LDA     9,DL
        17 001332   000010 755000 6                  STA     LEX_SYMBOL+8

  14698 17 001333   040000 100400                    MLR     fill='040'O
        17 001334   000111 000011 16                 ADSC9   73                       cn=0,n=9
        17 001335   000011 000504 6                  ADSC9   LEX_SYMBOL+9             cn=0,n=324

  14699 17 001336   000000 631400 18                 EPPR1   0
        17 001337   000000 701000 xent               TSX1    Z8AH$SEARCH_
        17 001340   000000 011000                    NOP     0

  14700 17 001341   000000 470400 2                  LDP0    DNT$
        17 001342   400000 236003                    LDQ     -131072,DU
        17 001343   000003 256100                    ORSQ    3,,PR0

  14701 17 001344   000001 236000 18                 LDQ     1
        17 001345   000003 356100                    ANSQ    3,,PR0

PL6.E3A0      #001=COBOLRW File=COBOLRW.:Z8A6TSI                                 SAT 08/09/97 09:25 Page:76
  14702 17 001346   000002 236000 18                 LDQ     2
        17 001347   000003 356100                    ANSQ    3,,PR0

  14703 17 001350   000003 236000 18                 LDQ     3
        17 001351   000003 356100                    ANSQ    3,,PR0

  14704 17 001352   000004 236000 18                 LDQ     4
        17 001353   000003 356100                    ANSQ    3,,PR0

  14705 17 001354   000076 220003                    LDX0    62,DU
        17 001355   000003 440100                    SXL0    3,,PR0

      164    14707        %NEWRSW;
      165    14710        %SEARCH (RWD='BITS',                   RWNO=%RSV_WRD_BIT);

  14714 17 001356   002731 054000 1                  AOS     NUMBER_OF_RESERVED_WORDS

  14715 17 001357   000004 235007                    LDA     4,DL
        17 001360   000010 755000 6                  STA     LEX_SYMBOL+8

  14716 17 001361   040000 100400                    MLR     fill='040'O
        17 001362   000114 000004 16                 ADSC9   76                       cn=0,n=4
        17 001363   000011 000504 6                  ADSC9   LEX_SYMBOL+9             cn=0,n=324

  14717 17 001364   000000 631400 18                 EPPR1   0
        17 001365   000000 701000 xent               TSX1    Z8AH$SEARCH_
        17 001366   000000 011000                    NOP     0

  14718 17 001367   000000 470400 2                  LDP0    DNT$
        17 001370   400000 236003                    LDQ     -131072,DU
        17 001371   000003 256100                    ORSQ    3,,PR0

  14719 17 001372   000001 236000 18                 LDQ     1
        17 001373   000003 356100                    ANSQ    3,,PR0

  14720 17 001374   000002 236000 18                 LDQ     2
        17 001375   000003 356100                    ANSQ    3,,PR0
PL6.E3A0      #001=COBOLRW File=COBOLRW.:Z8A6TSI                                 SAT 08/09/97 09:25 Page:77

  14721 17 001376   000003 236000 18                 LDQ     3
        17 001377   000003 356100                    ANSQ    3,,PR0

  14722 17 001400   000004 236000 18                 LDQ     4
        17 001401   000003 356100                    ANSQ    3,,PR0

  14723 17 001402   000077 220003                    LDX0    63,DU
        17 001403   000003 440100                    SXL0    3,,PR0

      166    14725        %SEARCH (RWD='BIT',                    RWNO=%RSV_WRD_BIT);

  14729 17 001404   002731 054000 1                  AOS     NUMBER_OF_RESERVED_WORDS

  14730 17 001405   000003 235007                    LDA     3,DL
        17 001406   000010 755000 6                  STA     LEX_SYMBOL+8

  14731 17 001407   040000 100400                    MLR     fill='040'O
        17 001410   000114 000003 16                 ADSC9   76                       cn=0,n=3
        17 001411   000011 000504 6                  ADSC9   LEX_SYMBOL+9             cn=0,n=324

  14732 17 001412   000000 631400 18                 EPPR1   0
        17 001413   000000 701000 xent               TSX1    Z8AH$SEARCH_
        17 001414   000000 011000                    NOP     0

  14733 17 001415   000000 470400 2                  LDP0    DNT$
        17 001416   400000 236003                    LDQ     -131072,DU
        17 001417   000003 256100                    ORSQ    3,,PR0

  14734 17 001420   000001 236000 18                 LDQ     1
        17 001421   000003 356100                    ANSQ    3,,PR0

  14735 17 001422   000002 236000 18                 LDQ     2
        17 001423   000003 356100                    ANSQ    3,,PR0

  14736 17 001424   000003 236000 18                 LDQ     3
        17 001425   000003 356100                    ANSQ    3,,PR0
PL6.E3A0      #001=COBOLRW File=COBOLRW.:Z8A6TSI                                 SAT 08/09/97 09:25 Page:78

  14737 17 001426   000004 236000 18                 LDQ     4
        17 001427   000003 356100                    ANSQ    3,,PR0

  14738 17 001430   000077 220003                    LDX0    63,DU
        17 001431   000003 440100                    SXL0    3,,PR0

      167    14740        %NEWRSW;
      168    14743        %SEARCH (RWD='BLANK',                  RWNO=%RSV_WRD_BLANK);

  14747 17 001432   002731 054000 1                  AOS     NUMBER_OF_RESERVED_WORDS

  14748 17 001433   000005 235007                    LDA     5,DL
        17 001434   000010 755000 6                  STA     LEX_SYMBOL+8

  14749 17 001435   040000 100400                    MLR     fill='040'O
        17 001436   000115 000005 16                 ADSC9   77                       cn=0,n=5
        17 001437   000011 000504 6                  ADSC9   LEX_SYMBOL+9             cn=0,n=324

  14750 17 001440   000000 631400 18                 EPPR1   0
        17 001441   000000 701000 xent               TSX1    Z8AH$SEARCH_
        17 001442   000000 011000                    NOP     0

  14751 17 001443   000000 470400 2                  LDP0    DNT$
        17 001444   400000 236003                    LDQ     -131072,DU
        17 001445   000003 256100                    ORSQ    3,,PR0

  14752 17 001446   000001 236000 18                 LDQ     1
        17 001447   000003 356100                    ANSQ    3,,PR0

  14753 17 001450   000002 236000 18                 LDQ     2
        17 001451   000003 356100                    ANSQ    3,,PR0

  14754 17 001452   000003 236000 18                 LDQ     3
        17 001453   000003 356100                    ANSQ    3,,PR0

  14755 17 001454   000004 236000 18                 LDQ     4
PL6.E3A0      #001=COBOLRW File=COBOLRW.:Z8A6TSI                                 SAT 08/09/97 09:25 Page:79
        17 001455   000003 356100                    ANSQ    3,,PR0

  14756 17 001456   000100 220003                    LDX0    64,DU
        17 001457   000003 440100                    SXL0    3,,PR0

      169    14758        %NEWRSW;
      170    14761        %SEARCH (RWD='BLOCK',                  RWNO=%RSV_WRD_BLOCK);

  14765 17 001460   002731 054000 1                  AOS     NUMBER_OF_RESERVED_WORDS

  14766 17 001461   000005 235007                    LDA     5,DL
        17 001462   000010 755000 6                  STA     LEX_SYMBOL+8

  14767 17 001463   040000 100400                    MLR     fill='040'O
        17 001464   000117 000005 16                 ADSC9   79                       cn=0,n=5
        17 001465   000011 000504 6                  ADSC9   LEX_SYMBOL+9             cn=0,n=324

  14768 17 001466   000000 631400 18                 EPPR1   0
        17 001467   000000 701000 xent               TSX1    Z8AH$SEARCH_
        17 001470   000000 011000                    NOP     0

  14769 17 001471   000000 470400 2                  LDP0    DNT$
        17 001472   400000 236003                    LDQ     -131072,DU
        17 001473   000003 256100                    ORSQ    3,,PR0

  14770 17 001474   000001 236000 18                 LDQ     1
        17 001475   000003 356100                    ANSQ    3,,PR0

  14771 17 001476   000002 236000 18                 LDQ     2
        17 001477   000003 356100                    ANSQ    3,,PR0

  14772 17 001500   000003 236000 18                 LDQ     3
        17 001501   000003 356100                    ANSQ    3,,PR0

  14773 17 001502   000004 236000 18                 LDQ     4
        17 001503   000003 356100                    ANSQ    3,,PR0

PL6.E3A0      #001=COBOLRW File=COBOLRW.:Z8A6TSI                                 SAT 08/09/97 09:25 Page:80
  14774 17 001504   000101 220003                    LDX0    65,DU
        17 001505   000003 440100                    SXL0    3,,PR0

      171    14776        %NEWRSW;
      172    14779        %SEARCH (RWD='BLOCK-COUNT',            RWNO=%RSV_WRD_BLOCK_COUNT);

  14783 17 001506   002731 054000 1                  AOS     NUMBER_OF_RESERVED_WORDS

  14784 17 001507   000013 235007                    LDA     11,DL
        17 001510   000010 755000 6                  STA     LEX_SYMBOL+8

  14785 17 001511   040000 100400                    MLR     fill='040'O
        17 001512   000121 000013 16                 ADSC9   81                       cn=0,n=11
        17 001513   000011 000504 6                  ADSC9   LEX_SYMBOL+9             cn=0,n=324

  14786 17 001514   000000 631400 18                 EPPR1   0
        17 001515   000000 701000 xent               TSX1    Z8AH$SEARCH_
        17 001516   000000 011000                    NOP     0

  14787 17 001517   000000 470400 2                  LDP0    DNT$
        17 001520   400000 236003                    LDQ     -131072,DU
        17 001521   000003 256100                    ORSQ    3,,PR0

  14788 17 001522   000001 236000 18                 LDQ     1
        17 001523   000003 356100                    ANSQ    3,,PR0

  14789 17 001524   000002 236000 18                 LDQ     2
        17 001525   000003 356100                    ANSQ    3,,PR0

  14790 17 001526   000003 236000 18                 LDQ     3
        17 001527   000003 356100                    ANSQ    3,,PR0

  14791 17 001530   000004 236000 18                 LDQ     4
        17 001531   000003 356100                    ANSQ    3,,PR0

  14792 17 001532   000102 220003                    LDX0    66,DU
        17 001533   000003 440100                    SXL0    3,,PR0
PL6.E3A0      #001=COBOLRW File=COBOLRW.:Z8A6TSI                                 SAT 08/09/97 09:25 Page:81

      173    14794        %NEWRSW;
      174    14797        %SEARCH (RWD='BOTTOM',                 RWNO=%RSV_WRD_BOTTOM);

  14801 17 001534   002731 054000 1                  AOS     NUMBER_OF_RESERVED_WORDS

  14802 17 001535   000006 235007                    LDA     6,DL
        17 001536   000010 755000 6                  STA     LEX_SYMBOL+8

  14803 17 001537   040000 100400                    MLR     fill='040'O
        17 001540   000124 000006 16                 ADSC9   84                       cn=0,n=6
        17 001541   000011 000504 6                  ADSC9   LEX_SYMBOL+9             cn=0,n=324

  14804 17 001542   000000 631400 18                 EPPR1   0
        17 001543   000000 701000 xent               TSX1    Z8AH$SEARCH_
        17 001544   000000 011000                    NOP     0

  14805 17 001545   000000 470400 2                  LDP0    DNT$
        17 001546   400000 236003                    LDQ     -131072,DU
        17 001547   000003 256100                    ORSQ    3,,PR0

  14806 17 001550   000001 236000 18                 LDQ     1
        17 001551   000003 356100                    ANSQ    3,,PR0

  14807 17 001552   000002 236000 18                 LDQ     2
        17 001553   000003 356100                    ANSQ    3,,PR0

  14808 17 001554   000003 236000 18                 LDQ     3
        17 001555   000003 356100                    ANSQ    3,,PR0

  14809 17 001556   000004 236000 18                 LDQ     4
        17 001557   000003 356100                    ANSQ    3,,PR0

  14810 17 001560   000103 220003                    LDX0    67,DU
        17 001561   000003 440100                    SXL0    3,,PR0

      175    14812        %NEWRSW;
PL6.E3A0      #001=COBOLRW File=COBOLRW.:Z8A6TSI                                 SAT 08/09/97 09:25 Page:82
      176    14815        %SEARCH (RWD='BSN',                    RWNO=%RSV_WRD_BSN);

  14819 17 001562   002731 054000 1                  AOS     NUMBER_OF_RESERVED_WORDS

  14820 17 001563   000003 235007                    LDA     3,DL
        17 001564   000010 755000 6                  STA     LEX_SYMBOL+8

  14821 17 001565   040000 100400                    MLR     fill='040'O
        17 001566   000126 000003 16                 ADSC9   86                       cn=0,n=3
        17 001567   000011 000504 6                  ADSC9   LEX_SYMBOL+9             cn=0,n=324

  14822 17 001570   000000 631400 18                 EPPR1   0
        17 001571   000000 701000 xent               TSX1    Z8AH$SEARCH_
        17 001572   000000 011000                    NOP     0

  14823 17 001573   000000 470400 2                  LDP0    DNT$
        17 001574   400000 236003                    LDQ     -131072,DU
        17 001575   000003 256100                    ORSQ    3,,PR0

  14824 17 001576   000001 236000 18                 LDQ     1
        17 001577   000003 356100                    ANSQ    3,,PR0

  14825 17 001600   000002 236000 18                 LDQ     2
        17 001601   000003 356100                    ANSQ    3,,PR0

  14826 17 001602   000003 236000 18                 LDQ     3
        17 001603   000003 356100                    ANSQ    3,,PR0

  14827 17 001604   000004 236000 18                 LDQ     4
        17 001605   000003 356100                    ANSQ    3,,PR0

  14828 17 001606   000104 220003                    LDX0    68,DU
        17 001607   000003 440100                    SXL0    3,,PR0

      177    14830        %NEWRSW;
      178    14833        %SEARCH (RWD='BY',                     RWNO=%RSV_WRD_BY);

PL6.E3A0      #001=COBOLRW File=COBOLRW.:Z8A6TSI                                 SAT 08/09/97 09:25 Page:83
  14837 17 001610   002731 054000 1                  AOS     NUMBER_OF_RESERVED_WORDS

  14838 17 001611   000002 235007                    LDA     2,DL
        17 001612   000010 755000 6                  STA     LEX_SYMBOL+8

  14839 17 001613   040000 100400                    MLR     fill='040'O
        17 001614   000127 000002 16                 ADSC9   87                       cn=0,n=2
        17 001615   000011 000504 6                  ADSC9   LEX_SYMBOL+9             cn=0,n=324

  14840 17 001616   000000 631400 18                 EPPR1   0
        17 001617   000000 701000 xent               TSX1    Z8AH$SEARCH_
        17 001620   000000 011000                    NOP     0

  14841 17 001621   000000 470400 2                  LDP0    DNT$
        17 001622   400000 236003                    LDQ     -131072,DU
        17 001623   000003 256100                    ORSQ    3,,PR0

  14842 17 001624   000001 236000 18                 LDQ     1
        17 001625   000003 356100                    ANSQ    3,,PR0

  14843 17 001626   000002 236000 18                 LDQ     2
        17 001627   000003 356100                    ANSQ    3,,PR0

  14844 17 001630   000003 236000 18                 LDQ     3
        17 001631   000003 356100                    ANSQ    3,,PR0

  14845 17 001632   000004 236000 18                 LDQ     4
        17 001633   000003 356100                    ANSQ    3,,PR0

  14846 17 001634   000105 220003                    LDX0    69,DU
        17 001635   000003 440100                    SXL0    3,,PR0

      179    14848        %NEWRSW;
      180    14851        %SEARCH (RWD='C-6000',                 RWNO=%RSV_WRD_C_6000);

  14855 17 001636   002731 054000 1                  AOS     NUMBER_OF_RESERVED_WORDS

PL6.E3A0      #001=COBOLRW File=COBOLRW.:Z8A6TSI                                 SAT 08/09/97 09:25 Page:84
  14856 17 001637   000006 235007                    LDA     6,DL
        17 001640   000010 755000 6                  STA     LEX_SYMBOL+8

  14857 17 001641   040000 100400                    MLR     fill='040'O
        17 001642   000130 000006 16                 ADSC9   88                       cn=0,n=6
        17 001643   000011 000504 6                  ADSC9   LEX_SYMBOL+9             cn=0,n=324

  14858 17 001644   000000 631400 18                 EPPR1   0
        17 001645   000000 701000 xent               TSX1    Z8AH$SEARCH_
        17 001646   000000 011000                    NOP     0

  14859 17 001647   000000 470400 2                  LDP0    DNT$
        17 001650   400000 236003                    LDQ     -131072,DU
        17 001651   000003 256100                    ORSQ    3,,PR0

  14860 17 001652   000001 236000 18                 LDQ     1
        17 001653   000003 356100                    ANSQ    3,,PR0

  14861 17 001654   000002 236000 18                 LDQ     2
        17 001655   000003 356100                    ANSQ    3,,PR0

  14862 17 001656   000003 236000 18                 LDQ     3
        17 001657   000003 356100                    ANSQ    3,,PR0

  14863 17 001660   000004 236000 18                 LDQ     4
        17 001661   000003 356100                    ANSQ    3,,PR0

  14864 17 001662   000106 220003                    LDX0    70,DU
        17 001663   000003 440100                    SXL0    3,,PR0

      181    14866        %NEWRSW;
      182    14869        %SEARCH (RWD='CALL',                   RWNO=%RSV_WRD_CALL);

  14873 17 001664   002731 054000 1                  AOS     NUMBER_OF_RESERVED_WORDS

  14874 17 001665   000004 235007                    LDA     4,DL
        17 001666   000010 755000 6                  STA     LEX_SYMBOL+8
PL6.E3A0      #001=COBOLRW File=COBOLRW.:Z8A6TSI                                 SAT 08/09/97 09:25 Page:85

  14875 17 001667   040000 100400                    MLR     fill='040'O
        17 001670   000132 000004 16                 ADSC9   90                       cn=0,n=4
        17 001671   000011 000504 6                  ADSC9   LEX_SYMBOL+9             cn=0,n=324

  14876 17 001672   000000 631400 18                 EPPR1   0
        17 001673   000000 701000 xent               TSX1    Z8AH$SEARCH_
        17 001674   000000 011000                    NOP     0

  14877 17 001675   000000 470400 2                  LDP0    DNT$
        17 001676   400000 236003                    LDQ     -131072,DU
        17 001677   000003 256100                    ORSQ    3,,PR0

  14878 17 001700   000001 236000 18                 LDQ     1
        17 001701   000003 356100                    ANSQ    3,,PR0

  14879 17 001702   000002 236000 18                 LDQ     2
        17 001703   000003 356100                    ANSQ    3,,PR0

  14880 17 001704   000003 236000 18                 LDQ     3
        17 001705   000003 356100                    ANSQ    3,,PR0

  14881 17 001706   000004 236000 18                 LDQ     4
        17 001707   000003 356100                    ANSQ    3,,PR0

  14882 17 001710   000107 220003                    LDX0    71,DU
        17 001711   000003 440100                    SXL0    3,,PR0

      183    14884        %NEWRSW;
      184    14887        %SEARCH (RWD='CANCEL',                 RWNO=%RSV_WRD_CANCEL);

  14891 17 001712   002731 054000 1                  AOS     NUMBER_OF_RESERVED_WORDS

  14892 17 001713   000006 235007                    LDA     6,DL
        17 001714   000010 755000 6                  STA     LEX_SYMBOL+8

  14893 17 001715   040000 100400                    MLR     fill='040'O
PL6.E3A0      #001=COBOLRW File=COBOLRW.:Z8A6TSI                                 SAT 08/09/97 09:25 Page:86
        17 001716   000133 000006 16                 ADSC9   91                       cn=0,n=6
        17 001717   000011 000504 6                  ADSC9   LEX_SYMBOL+9             cn=0,n=324

  14894 17 001720   000000 631400 18                 EPPR1   0
        17 001721   000000 701000 xent               TSX1    Z8AH$SEARCH_
        17 001722   000000 011000                    NOP     0

  14895 17 001723   000000 470400 2                  LDP0    DNT$
        17 001724   400000 236003                    LDQ     -131072,DU
        17 001725   000003 256100                    ORSQ    3,,PR0

  14896 17 001726   000001 236000 18                 LDQ     1
        17 001727   000003 356100                    ANSQ    3,,PR0

  14897 17 001730   000002 236000 18                 LDQ     2
        17 001731   000003 356100                    ANSQ    3,,PR0

  14898 17 001732   000003 236000 18                 LDQ     3
        17 001733   000003 356100                    ANSQ    3,,PR0

  14899 17 001734   000004 236000 18                 LDQ     4
        17 001735   000003 356100                    ANSQ    3,,PR0

  14900 17 001736   000110 220003                    LDX0    72,DU
        17 001737   000003 440100                    SXL0    3,,PR0

      185    14902        %NEWRSW;
      186    14905        %SEARCH (RWD='CATALOG-NAME',           RWNO=%RSV_WRD_CATALOG_NAME);

  14909 17 001740   002731 054000 1                  AOS     NUMBER_OF_RESERVED_WORDS

  14910 17 001741   000014 235007                    LDA     12,DL
        17 001742   000010 755000 6                  STA     LEX_SYMBOL+8

  14911 17 001743   040000 100400                    MLR     fill='040'O
        17 001744   000135 000014 16                 ADSC9   93                       cn=0,n=12
        17 001745   000011 000504 6                  ADSC9   LEX_SYMBOL+9             cn=0,n=324
PL6.E3A0      #001=COBOLRW File=COBOLRW.:Z8A6TSI                                 SAT 08/09/97 09:25 Page:87

  14912 17 001746   000000 631400 18                 EPPR1   0
        17 001747   000000 701000 xent               TSX1    Z8AH$SEARCH_
        17 001750   000000 011000                    NOP     0

  14913 17 001751   000000 470400 2                  LDP0    DNT$
        17 001752   400000 236003                    LDQ     -131072,DU
        17 001753   000003 256100                    ORSQ    3,,PR0

  14914 17 001754   000001 236000 18                 LDQ     1
        17 001755   000003 356100                    ANSQ    3,,PR0

  14915 17 001756   000002 236000 18                 LDQ     2
        17 001757   000003 356100                    ANSQ    3,,PR0

  14916 17 001760   000003 236000 18                 LDQ     3
        17 001761   000003 356100                    ANSQ    3,,PR0

  14917 17 001762   000004 236000 18                 LDQ     4
        17 001763   000003 356100                    ANSQ    3,,PR0

  14918 17 001764   000111 220003                    LDX0    73,DU
        17 001765   000003 440100                    SXL0    3,,PR0

      187    14920        %NEWRSW;
      188    14923        %SEARCH (RWD='CATALOG-NAMES',          RWNO=%RSV_WRD_CATALOG_NAMES);

  14927 17 001766   002731 054000 1                  AOS     NUMBER_OF_RESERVED_WORDS

  14928 17 001767   000015 235007                    LDA     13,DL
        17 001770   000010 755000 6                  STA     LEX_SYMBOL+8

  14929 17 001771   040000 100400                    MLR     fill='040'O
        17 001772   000140 000015 16                 ADSC9   96                       cn=0,n=13
        17 001773   000011 000504 6                  ADSC9   LEX_SYMBOL+9             cn=0,n=324

  14930 17 001774   000000 631400 18                 EPPR1   0
PL6.E3A0      #001=COBOLRW File=COBOLRW.:Z8A6TSI                                 SAT 08/09/97 09:25 Page:88
        17 001775   000000 701000 xent               TSX1    Z8AH$SEARCH_
        17 001776   000000 011000                    NOP     0

  14931 17 001777   000000 470400 2                  LDP0    DNT$
        17 002000   400000 236003                    LDQ     -131072,DU
        17 002001   000003 256100                    ORSQ    3,,PR0

  14932 17 002002   000001 236000 18                 LDQ     1
        17 002003   000003 356100                    ANSQ    3,,PR0

  14933 17 002004   000002 236000 18                 LDQ     2
        17 002005   000003 356100                    ANSQ    3,,PR0

  14934 17 002006   000003 236000 18                 LDQ     3
        17 002007   000003 356100                    ANSQ    3,,PR0

  14935 17 002010   000004 236000 18                 LDQ     4
        17 002011   000003 356100                    ANSQ    3,,PR0

  14936 17 002012   000112 220003                    LDX0    74,DU
        17 002013   000003 440100                    SXL0    3,,PR0

      189    14938        %NEWRSW;
      190    14941        %SEARCH (RWD='CD',                     RWNO=%RSV_WRD_CD);

  14945 17 002014   002731 054000 1                  AOS     NUMBER_OF_RESERVED_WORDS

  14946 17 002015   000002 235007                    LDA     2,DL
        17 002016   000010 755000 6                  STA     LEX_SYMBOL+8

  14947 17 002017   040000 100400                    MLR     fill='040'O
        17 002020   000144 000002 16                 ADSC9   100                      cn=0,n=2
        17 002021   000011 000504 6                  ADSC9   LEX_SYMBOL+9             cn=0,n=324

  14948 17 002022   000000 631400 18                 EPPR1   0
        17 002023   000000 701000 xent               TSX1    Z8AH$SEARCH_
        17 002024   000000 011000                    NOP     0
PL6.E3A0      #001=COBOLRW File=COBOLRW.:Z8A6TSI                                 SAT 08/09/97 09:25 Page:89

  14949 17 002025   000000 470400 2                  LDP0    DNT$
        17 002026   400000 236003                    LDQ     -131072,DU
        17 002027   000003 256100                    ORSQ    3,,PR0

  14950 17 002030   000001 236000 18                 LDQ     1
        17 002031   000003 356100                    ANSQ    3,,PR0

  14951 17 002032   000002 236000 18                 LDQ     2
        17 002033   000003 356100                    ANSQ    3,,PR0

  14952 17 002034   000003 236000 18                 LDQ     3
        17 002035   000003 356100                    ANSQ    3,,PR0

  14953 17 002036   000004 236000 18                 LDQ     4
        17 002037   000003 356100                    ANSQ    3,,PR0

  14954 17 002040   000113 220003                    LDX0    75,DU
        17 002041   000003 440100                    SXL0    3,,PR0

      191    14956        %NEWRSW;
      192    14959        %SEARCH (RWD='CF',                     RWNO=%RSV_WRD_CF);

  14963 17 002042   002731 054000 1                  AOS     NUMBER_OF_RESERVED_WORDS

  14964 17 002043   000002 235007                    LDA     2,DL
        17 002044   000010 755000 6                  STA     LEX_SYMBOL+8

  14965 17 002045   040000 100400                    MLR     fill='040'O
        17 002046   000145 000002 16                 ADSC9   101                      cn=0,n=2
        17 002047   000011 000504 6                  ADSC9   LEX_SYMBOL+9             cn=0,n=324

  14966 17 002050   000000 631400 18                 EPPR1   0
        17 002051   000000 701000 xent               TSX1    Z8AH$SEARCH_
        17 002052   000000 011000                    NOP     0

  14967 17 002053   000000 470400 2                  LDP0    DNT$
PL6.E3A0      #001=COBOLRW File=COBOLRW.:Z8A6TSI                                 SAT 08/09/97 09:25 Page:90
        17 002054   400000 236003                    LDQ     -131072,DU
        17 002055   000003 256100                    ORSQ    3,,PR0

  14968 17 002056   000001 236000 18                 LDQ     1
        17 002057   000003 356100                    ANSQ    3,,PR0

  14969 17 002060   000002 236000 18                 LDQ     2
        17 002061   000003 356100                    ANSQ    3,,PR0

  14970 17 002062   000003 236000 18                 LDQ     3
        17 002063   000003 356100                    ANSQ    3,,PR0

  14971 17 002064   000004 236000 18                 LDQ     4
        17 002065   000003 356100                    ANSQ    3,,PR0

  14972 17 002066   000114 220003                    LDX0    76,DU
        17 002067   000003 440100                    SXL0    3,,PR0

      193    14974        %NEWRSW;
      194    14977        %SEARCH (RWD='CH',                     RWNO=%RSV_WRD_CH);

  14981 17 002070   002731 054000 1                  AOS     NUMBER_OF_RESERVED_WORDS

  14982 17 002071   000002 235007                    LDA     2,DL
        17 002072   000010 755000 6                  STA     LEX_SYMBOL+8

  14983 17 002073   040000 100400                    MLR     fill='040'O
        17 002074   000102 000002 16                 ADSC9   66                       cn=0,n=2
        17 002075   000011 000504 6                  ADSC9   LEX_SYMBOL+9             cn=0,n=324

  14984 17 002076   000000 631400 18                 EPPR1   0
        17 002077   000000 701000 xent               TSX1    Z8AH$SEARCH_
        17 002100   000000 011000                    NOP     0

  14985 17 002101   000000 470400 2                  LDP0    DNT$
        17 002102   400000 236003                    LDQ     -131072,DU
        17 002103   000003 256100                    ORSQ    3,,PR0
PL6.E3A0      #001=COBOLRW File=COBOLRW.:Z8A6TSI                                 SAT 08/09/97 09:25 Page:91

  14986 17 002104   000001 236000 18                 LDQ     1
        17 002105   000003 356100                    ANSQ    3,,PR0

  14987 17 002106   000002 236000 18                 LDQ     2
        17 002107   000003 356100                    ANSQ    3,,PR0

  14988 17 002110   000003 236000 18                 LDQ     3
        17 002111   000003 356100                    ANSQ    3,,PR0

  14989 17 002112   000004 236000 18                 LDQ     4
        17 002113   000003 356100                    ANSQ    3,,PR0

  14990 17 002114   000115 220003                    LDX0    77,DU
        17 002115   000003 440100                    SXL0    3,,PR0

      195    14992        %NEWRSW;
      196    14995        %SEARCH (RWD='CHANNEL-01',             RWNO=%RSV_WRD_CHANNEL_01);

  14999 17 002116   002731 054000 1                  AOS     NUMBER_OF_RESERVED_WORDS

  15000 17 002117   000012 235007                    LDA     10,DL
        17 002120   000010 755000 6                  STA     LEX_SYMBOL+8

  15001 17 002121   040000 100400                    MLR     fill='040'O
        17 002122   000146 000012 16                 ADSC9   102                      cn=0,n=10
        17 002123   000011 000504 6                  ADSC9   LEX_SYMBOL+9             cn=0,n=324

  15002 17 002124   000000 631400 18                 EPPR1   0
        17 002125   000000 701000 xent               TSX1    Z8AH$SEARCH_
        17 002126   000000 011000                    NOP     0

  15003 17 002127   000000 470400 2                  LDP0    DNT$
        17 002130   400000 236003                    LDQ     -131072,DU
        17 002131   000003 256100                    ORSQ    3,,PR0

  15004 17 002132   000001 236000 18                 LDQ     1
PL6.E3A0      #001=COBOLRW File=COBOLRW.:Z8A6TSI                                 SAT 08/09/97 09:25 Page:92
        17 002133   000003 356100                    ANSQ    3,,PR0

  15005 17 002134   000002 236000 18                 LDQ     2
        17 002135   000003 356100                    ANSQ    3,,PR0

  15006 17 002136   000003 236000 18                 LDQ     3
        17 002137   000003 356100                    ANSQ    3,,PR0

  15007 17 002140   000004 236000 18                 LDQ     4
        17 002141   000003 356100                    ANSQ    3,,PR0

  15008 17 002142   000116 220003                    LDX0    78,DU
        17 002143   000003 440100                    SXL0    3,,PR0

      197    15010        %SEARCH (RWD='C01',                    RWNO=%RSV_WRD_CHANNEL_01);

  15014 17 002144   002731 054000 1                  AOS     NUMBER_OF_RESERVED_WORDS

  15015 17 002145   000003 235007                    LDA     3,DL
        17 002146   000010 755000 6                  STA     LEX_SYMBOL+8

  15016 17 002147   040000 100400                    MLR     fill='040'O
        17 002150   000151 000003 16                 ADSC9   105                      cn=0,n=3
        17 002151   000011 000504 6                  ADSC9   LEX_SYMBOL+9             cn=0,n=324

  15017 17 002152   000000 631400 18                 EPPR1   0
        17 002153   000000 701000 xent               TSX1    Z8AH$SEARCH_
        17 002154   000000 011000                    NOP     0

  15018 17 002155   000000 470400 2                  LDP0    DNT$
        17 002156   400000 236003                    LDQ     -131072,DU
        17 002157   000003 256100                    ORSQ    3,,PR0

  15019 17 002160   000001 236000 18                 LDQ     1
        17 002161   000003 356100                    ANSQ    3,,PR0

  15020 17 002162   000002 236000 18                 LDQ     2
PL6.E3A0      #001=COBOLRW File=COBOLRW.:Z8A6TSI                                 SAT 08/09/97 09:25 Page:93
        17 002163   000003 356100                    ANSQ    3,,PR0

  15021 17 002164   000003 236000 18                 LDQ     3
        17 002165   000003 356100                    ANSQ    3,,PR0

  15022 17 002166   000004 236000 18                 LDQ     4
        17 002167   000003 356100                    ANSQ    3,,PR0

  15023 17 002170   000116 220003                    LDX0    78,DU
        17 002171   000003 440100                    SXL0    3,,PR0

      198    15025        %SEARCH (RWD='CHANNEL-02',             RWNO=%RSV_WRD_CHANNEL_01);

  15029 17 002172   002731 054000 1                  AOS     NUMBER_OF_RESERVED_WORDS

  15030 17 002173   000012 235007                    LDA     10,DL
        17 002174   000010 755000 6                  STA     LEX_SYMBOL+8

  15031 17 002175   040000 100400                    MLR     fill='040'O
        17 002176   000152 000012 16                 ADSC9   106                      cn=0,n=10
        17 002177   000011 000504 6                  ADSC9   LEX_SYMBOL+9             cn=0,n=324

  15032 17 002200   000000 631400 18                 EPPR1   0
        17 002201   000000 701000 xent               TSX1    Z8AH$SEARCH_
        17 002202   000000 011000                    NOP     0

  15033 17 002203   000000 470400 2                  LDP0    DNT$
        17 002204   400000 236003                    LDQ     -131072,DU
        17 002205   000003 256100                    ORSQ    3,,PR0

  15034 17 002206   000001 236000 18                 LDQ     1
        17 002207   000003 356100                    ANSQ    3,,PR0

  15035 17 002210   000002 236000 18                 LDQ     2
        17 002211   000003 356100                    ANSQ    3,,PR0

  15036 17 002212   000003 236000 18                 LDQ     3
PL6.E3A0      #001=COBOLRW File=COBOLRW.:Z8A6TSI                                 SAT 08/09/97 09:25 Page:94
        17 002213   000003 356100                    ANSQ    3,,PR0

  15037 17 002214   000004 236000 18                 LDQ     4
        17 002215   000003 356100                    ANSQ    3,,PR0

  15038 17 002216   000116 220003                    LDX0    78,DU
        17 002217   000003 440100                    SXL0    3,,PR0

      199    15040        %SEARCH (RWD='C02',                    RWNO=%RSV_WRD_CHANNEL_01);

  15044 17 002220   002731 054000 1                  AOS     NUMBER_OF_RESERVED_WORDS

  15045 17 002221   000003 235007                    LDA     3,DL
        17 002222   000010 755000 6                  STA     LEX_SYMBOL+8

  15046 17 002223   040000 100400                    MLR     fill='040'O
        17 002224   000155 000003 16                 ADSC9   109                      cn=0,n=3
        17 002225   000011 000504 6                  ADSC9   LEX_SYMBOL+9             cn=0,n=324

  15047 17 002226   000000 631400 18                 EPPR1   0
        17 002227   000000 701000 xent               TSX1    Z8AH$SEARCH_
        17 002230   000000 011000                    NOP     0

  15048 17 002231   000000 470400 2                  LDP0    DNT$
        17 002232   400000 236003                    LDQ     -131072,DU
        17 002233   000003 256100                    ORSQ    3,,PR0

  15049 17 002234   000001 236000 18                 LDQ     1
        17 002235   000003 356100                    ANSQ    3,,PR0

  15050 17 002236   000002 236000 18                 LDQ     2
        17 002237   000003 356100                    ANSQ    3,,PR0

  15051 17 002240   000003 236000 18                 LDQ     3
        17 002241   000003 356100                    ANSQ    3,,PR0

  15052 17 002242   000004 236000 18                 LDQ     4
PL6.E3A0      #001=COBOLRW File=COBOLRW.:Z8A6TSI                                 SAT 08/09/97 09:25 Page:95
        17 002243   000003 356100                    ANSQ    3,,PR0

  15053 17 002244   000116 220003                    LDX0    78,DU
        17 002245   000003 440100                    SXL0    3,,PR0

      200    15055        %SEARCH (RWD='CHANNEL-03',             RWNO=%RSV_WRD_CHANNEL_01);

  15059 17 002246   002731 054000 1                  AOS     NUMBER_OF_RESERVED_WORDS

  15060 17 002247   000012 235007                    LDA     10,DL
        17 002250   000010 755000 6                  STA     LEX_SYMBOL+8

  15061 17 002251   040000 100400                    MLR     fill='040'O
        17 002252   000156 000012 16                 ADSC9   110                      cn=0,n=10
        17 002253   000011 000504 6                  ADSC9   LEX_SYMBOL+9             cn=0,n=324

  15062 17 002254   000000 631400 18                 EPPR1   0
        17 002255   000000 701000 xent               TSX1    Z8AH$SEARCH_
        17 002256   000000 011000                    NOP     0

  15063 17 002257   000000 470400 2                  LDP0    DNT$
        17 002260   400000 236003                    LDQ     -131072,DU
        17 002261   000003 256100                    ORSQ    3,,PR0

  15064 17 002262   000001 236000 18                 LDQ     1
        17 002263   000003 356100                    ANSQ    3,,PR0

  15065 17 002264   000002 236000 18                 LDQ     2
        17 002265   000003 356100                    ANSQ    3,,PR0

  15066 17 002266   000003 236000 18                 LDQ     3
        17 002267   000003 356100                    ANSQ    3,,PR0

  15067 17 002270   000004 236000 18                 LDQ     4
        17 002271   000003 356100                    ANSQ    3,,PR0

  15068 17 002272   000116 220003                    LDX0    78,DU
PL6.E3A0      #001=COBOLRW File=COBOLRW.:Z8A6TSI                                 SAT 08/09/97 09:25 Page:96
        17 002273   000003 440100                    SXL0    3,,PR0

      201    15070        %SEARCH (RWD='C03',                    RWNO=%RSV_WRD_CHANNEL_01);

  15074 17 002274   002731 054000 1                  AOS     NUMBER_OF_RESERVED_WORDS

  15075 17 002275   000003 235007                    LDA     3,DL
        17 002276   000010 755000 6                  STA     LEX_SYMBOL+8

  15076 17 002277   040000 100400                    MLR     fill='040'O
        17 002300   000161 000003 16                 ADSC9   113                      cn=0,n=3
        17 002301   000011 000504 6                  ADSC9   LEX_SYMBOL+9             cn=0,n=324

  15077 17 002302   000000 631400 18                 EPPR1   0
        17 002303   000000 701000 xent               TSX1    Z8AH$SEARCH_
        17 002304   000000 011000                    NOP     0

  15078 17 002305   000000 470400 2                  LDP0    DNT$
        17 002306   400000 236003                    LDQ     -131072,DU
        17 002307   000003 256100                    ORSQ    3,,PR0

  15079 17 002310   000001 236000 18                 LDQ     1
        17 002311   000003 356100                    ANSQ    3,,PR0

  15080 17 002312   000002 236000 18                 LDQ     2
        17 002313   000003 356100                    ANSQ    3,,PR0

  15081 17 002314   000003 236000 18                 LDQ     3
        17 002315   000003 356100                    ANSQ    3,,PR0

  15082 17 002316   000004 236000 18                 LDQ     4
        17 002317   000003 356100                    ANSQ    3,,PR0

  15083 17 002320   000116 220003                    LDX0    78,DU
        17 002321   000003 440100                    SXL0    3,,PR0

      202    15085        %SEARCH (RWD='CHANNEL-04',             RWNO=%RSV_WRD_CHANNEL_01);
PL6.E3A0      #001=COBOLRW File=COBOLRW.:Z8A6TSI                                 SAT 08/09/97 09:25 Page:97

  15089 17 002322   002731 054000 1                  AOS     NUMBER_OF_RESERVED_WORDS

  15090 17 002323   000012 235007                    LDA     10,DL
        17 002324   000010 755000 6                  STA     LEX_SYMBOL+8

  15091 17 002325   040000 100400                    MLR     fill='040'O
        17 002326   000162 000012 16                 ADSC9   114                      cn=0,n=10
        17 002327   000011 000504 6                  ADSC9   LEX_SYMBOL+9             cn=0,n=324

  15092 17 002330   000000 631400 18                 EPPR1   0
        17 002331   000000 701000 xent               TSX1    Z8AH$SEARCH_
        17 002332   000000 011000                    NOP     0

  15093 17 002333   000000 470400 2                  LDP0    DNT$
        17 002334   400000 236003                    LDQ     -131072,DU
        17 002335   000003 256100                    ORSQ    3,,PR0

  15094 17 002336   000001 236000 18                 LDQ     1
        17 002337   000003 356100                    ANSQ    3,,PR0

  15095 17 002340   000002 236000 18                 LDQ     2
        17 002341   000003 356100                    ANSQ    3,,PR0

  15096 17 002342   000003 236000 18                 LDQ     3
        17 002343   000003 356100                    ANSQ    3,,PR0

  15097 17 002344   000004 236000 18                 LDQ     4
        17 002345   000003 356100                    ANSQ    3,,PR0

  15098 17 002346   000116 220003                    LDX0    78,DU
        17 002347   000003 440100                    SXL0    3,,PR0

      203    15100        %SEARCH (RWD='C04',                    RWNO=%RSV_WRD_CHANNEL_01);

  15104 17 002350   002731 054000 1                  AOS     NUMBER_OF_RESERVED_WORDS

PL6.E3A0      #001=COBOLRW File=COBOLRW.:Z8A6TSI                                 SAT 08/09/97 09:25 Page:98
  15105 17 002351   000003 235007                    LDA     3,DL
        17 002352   000010 755000 6                  STA     LEX_SYMBOL+8

  15106 17 002353   040000 100400                    MLR     fill='040'O
        17 002354   000165 000003 16                 ADSC9   117                      cn=0,n=3
        17 002355   000011 000504 6                  ADSC9   LEX_SYMBOL+9             cn=0,n=324

  15107 17 002356   000000 631400 18                 EPPR1   0
        17 002357   000000 701000 xent               TSX1    Z8AH$SEARCH_
        17 002360   000000 011000                    NOP     0

  15108 17 002361   000000 470400 2                  LDP0    DNT$
        17 002362   400000 236003                    LDQ     -131072,DU
        17 002363   000003 256100                    ORSQ    3,,PR0

  15109 17 002364   000001 236000 18                 LDQ     1
        17 002365   000003 356100                    ANSQ    3,,PR0

  15110 17 002366   000002 236000 18                 LDQ     2
        17 002367   000003 356100                    ANSQ    3,,PR0

  15111 17 002370   000003 236000 18                 LDQ     3
        17 002371   000003 356100                    ANSQ    3,,PR0

  15112 17 002372   000004 236000 18                 LDQ     4
        17 002373   000003 356100                    ANSQ    3,,PR0

  15113 17 002374   000116 220003                    LDX0    78,DU
        17 002375   000003 440100                    SXL0    3,,PR0

      204    15115        %SEARCH (RWD='CHANNEL-05',             RWNO=%RSV_WRD_CHANNEL_01);

  15119 17 002376   002731 054000 1                  AOS     NUMBER_OF_RESERVED_WORDS

  15120 17 002377   000012 235007                    LDA     10,DL
        17 002400   000010 755000 6                  STA     LEX_SYMBOL+8

PL6.E3A0      #001=COBOLRW File=COBOLRW.:Z8A6TSI                                 SAT 08/09/97 09:25 Page:99
  15121 17 002401   040000 100400                    MLR     fill='040'O
        17 002402   000166 000012 16                 ADSC9   118                      cn=0,n=10
        17 002403   000011 000504 6                  ADSC9   LEX_SYMBOL+9             cn=0,n=324

  15122 17 002404   000000 631400 18                 EPPR1   0
        17 002405   000000 701000 xent               TSX1    Z8AH$SEARCH_
        17 002406   000000 011000                    NOP     0

  15123 17 002407   000000 470400 2                  LDP0    DNT$
        17 002410   400000 236003                    LDQ     -131072,DU
        17 002411   000003 256100                    ORSQ    3,,PR0

  15124 17 002412   000001 236000 18                 LDQ     1
        17 002413   000003 356100                    ANSQ    3,,PR0

  15125 17 002414   000002 236000 18                 LDQ     2
        17 002415   000003 356100                    ANSQ    3,,PR0

  15126 17 002416   000003 236000 18                 LDQ     3
        17 002417   000003 356100                    ANSQ    3,,PR0

  15127 17 002420   000004 236000 18                 LDQ     4
        17 002421   000003 356100                    ANSQ    3,,PR0

  15128 17 002422   000116 220003                    LDX0    78,DU
        17 002423   000003 440100                    SXL0    3,,PR0

      205    15130        %SEARCH (RWD='C05',                    RWNO=%RSV_WRD_CHANNEL_01);

  15134 17 002424   002731 054000 1                  AOS     NUMBER_OF_RESERVED_WORDS

  15135 17 002425   000003 235007                    LDA     3,DL
        17 002426   000010 755000 6                  STA     LEX_SYMBOL+8

  15136 17 002427   040000 100400                    MLR     fill='040'O
        17 002430   000171 000003 16                 ADSC9   121                      cn=0,n=3
        17 002431   000011 000504 6                  ADSC9   LEX_SYMBOL+9             cn=0,n=324
PL6.E3A0      #001=COBOLRW File=COBOLRW.:Z8A6TSI                                 SAT 08/09/97 09:25 Page:100

  15137 17 002432   000000 631400 18                 EPPR1   0
        17 002433   000000 701000 xent               TSX1    Z8AH$SEARCH_
        17 002434   000000 011000                    NOP     0

  15138 17 002435   000000 470400 2                  LDP0    DNT$
        17 002436   400000 236003                    LDQ     -131072,DU
        17 002437   000003 256100                    ORSQ    3,,PR0

  15139 17 002440   000001 236000 18                 LDQ     1
        17 002441   000003 356100                    ANSQ    3,,PR0

  15140 17 002442   000002 236000 18                 LDQ     2
        17 002443   000003 356100                    ANSQ    3,,PR0

  15141 17 002444   000003 236000 18                 LDQ     3
        17 002445   000003 356100                    ANSQ    3,,PR0

  15142 17 002446   000004 236000 18                 LDQ     4
        17 002447   000003 356100                    ANSQ    3,,PR0

  15143 17 002450   000116 220003                    LDX0    78,DU
        17 002451   000003 440100                    SXL0    3,,PR0

      206    15145        %SEARCH (RWD='CHANNEL-06',             RWNO=%RSV_WRD_CHANNEL_01);

  15149 17 002452   002731 054000 1                  AOS     NUMBER_OF_RESERVED_WORDS

  15150 17 002453   000012 235007                    LDA     10,DL
        17 002454   000010 755000 6                  STA     LEX_SYMBOL+8

  15151 17 002455   040000 100400                    MLR     fill='040'O
        17 002456   000172 000012 16                 ADSC9   122                      cn=0,n=10
        17 002457   000011 000504 6                  ADSC9   LEX_SYMBOL+9             cn=0,n=324

  15152 17 002460   000000 631400 18                 EPPR1   0
        17 002461   000000 701000 xent               TSX1    Z8AH$SEARCH_
PL6.E3A0      #001=COBOLRW File=COBOLRW.:Z8A6TSI                                 SAT 08/09/97 09:25 Page:101
        17 002462   000000 011000                    NOP     0

  15153 17 002463   000000 470400 2                  LDP0    DNT$
        17 002464   400000 236003                    LDQ     -131072,DU
        17 002465   000003 256100                    ORSQ    3,,PR0

  15154 17 002466   000001 236000 18                 LDQ     1
        17 002467   000003 356100                    ANSQ    3,,PR0

  15155 17 002470   000002 236000 18                 LDQ     2
        17 002471   000003 356100                    ANSQ    3,,PR0

  15156 17 002472   000003 236000 18                 LDQ     3
        17 002473   000003 356100                    ANSQ    3,,PR0

  15157 17 002474   000004 236000 18                 LDQ     4
        17 002475   000003 356100                    ANSQ    3,,PR0

  15158 17 002476   000116 220003                    LDX0    78,DU
        17 002477   000003 440100                    SXL0    3,,PR0

      207    15160        %SEARCH (RWD='C06',                    RWNO=%RSV_WRD_CHANNEL_01);

  15164 17 002500   002731 054000 1                  AOS     NUMBER_OF_RESERVED_WORDS

  15165 17 002501   000003 235007                    LDA     3,DL
        17 002502   000010 755000 6                  STA     LEX_SYMBOL+8

  15166 17 002503   040000 100400                    MLR     fill='040'O
        17 002504   000175 000003 16                 ADSC9   125                      cn=0,n=3
        17 002505   000011 000504 6                  ADSC9   LEX_SYMBOL+9             cn=0,n=324

  15167 17 002506   000000 631400 18                 EPPR1   0
        17 002507   000000 701000 xent               TSX1    Z8AH$SEARCH_
        17 002510   000000 011000                    NOP     0

  15168 17 002511   000000 470400 2                  LDP0    DNT$
PL6.E3A0      #001=COBOLRW File=COBOLRW.:Z8A6TSI                                 SAT 08/09/97 09:25 Page:102
        17 002512   400000 236003                    LDQ     -131072,DU
        17 002513   000003 256100                    ORSQ    3,,PR0

  15169 17 002514   000001 236000 18                 LDQ     1
        17 002515   000003 356100                    ANSQ    3,,PR0

  15170 17 002516   000002 236000 18                 LDQ     2
        17 002517   000003 356100                    ANSQ    3,,PR0

  15171 17 002520   000003 236000 18                 LDQ     3
        17 002521   000003 356100                    ANSQ    3,,PR0

  15172 17 002522   000004 236000 18                 LDQ     4
        17 002523   000003 356100                    ANSQ    3,,PR0

  15173 17 002524   000116 220003                    LDX0    78,DU
        17 002525   000003 440100                    SXL0    3,,PR0

      208    15175        %SEARCH (RWD='CHANNEL-07',             RWNO=%RSV_WRD_CHANNEL_01);

  15179 17 002526   002731 054000 1                  AOS     NUMBER_OF_RESERVED_WORDS

  15180 17 002527   000012 235007                    LDA     10,DL
        17 002530   000010 755000 6                  STA     LEX_SYMBOL+8

  15181 17 002531   040000 100400                    MLR     fill='040'O
        17 002532   000176 000012 16                 ADSC9   126                      cn=0,n=10
        17 002533   000011 000504 6                  ADSC9   LEX_SYMBOL+9             cn=0,n=324

  15182 17 002534   000000 631400 18                 EPPR1   0
        17 002535   000000 701000 xent               TSX1    Z8AH$SEARCH_
        17 002536   000000 011000                    NOP     0

  15183 17 002537   000000 470400 2                  LDP0    DNT$
        17 002540   400000 236003                    LDQ     -131072,DU
        17 002541   000003 256100                    ORSQ    3,,PR0

PL6.E3A0      #001=COBOLRW File=COBOLRW.:Z8A6TSI                                 SAT 08/09/97 09:25 Page:103
  15184 17 002542   000001 236000 18                 LDQ     1
        17 002543   000003 356100                    ANSQ    3,,PR0

  15185 17 002544   000002 236000 18                 LDQ     2
        17 002545   000003 356100                    ANSQ    3,,PR0

  15186 17 002546   000003 236000 18                 LDQ     3
        17 002547   000003 356100                    ANSQ    3,,PR0

  15187 17 002550   000004 236000 18                 LDQ     4
        17 002551   000003 356100                    ANSQ    3,,PR0

  15188 17 002552   000116 220003                    LDX0    78,DU
        17 002553   000003 440100                    SXL0    3,,PR0

      209    15190        %SEARCH (RWD='C07',                    RWNO=%RSV_WRD_CHANNEL_01);

  15194 17 002554   002731 054000 1                  AOS     NUMBER_OF_RESERVED_WORDS

  15195 17 002555   000003 235007                    LDA     3,DL
        17 002556   000010 755000 6                  STA     LEX_SYMBOL+8

  15196 17 002557   040000 100400                    MLR     fill='040'O
        17 002560   000201 000003 16                 ADSC9   129                      cn=0,n=3
        17 002561   000011 000504 6                  ADSC9   LEX_SYMBOL+9             cn=0,n=324

  15197 17 002562   000000 631400 18                 EPPR1   0
        17 002563   000000 701000 xent               TSX1    Z8AH$SEARCH_
        17 002564   000000 011000                    NOP     0

  15198 17 002565   000000 470400 2                  LDP0    DNT$
        17 002566   400000 236003                    LDQ     -131072,DU
        17 002567   000003 256100                    ORSQ    3,,PR0

  15199 17 002570   000001 236000 18                 LDQ     1
        17 002571   000003 356100                    ANSQ    3,,PR0

PL6.E3A0      #001=COBOLRW File=COBOLRW.:Z8A6TSI                                 SAT 08/09/97 09:25 Page:104
  15200 17 002572   000002 236000 18                 LDQ     2
        17 002573   000003 356100                    ANSQ    3,,PR0

  15201 17 002574   000003 236000 18                 LDQ     3
        17 002575   000003 356100                    ANSQ    3,,PR0

  15202 17 002576   000004 236000 18                 LDQ     4
        17 002577   000003 356100                    ANSQ    3,,PR0

  15203 17 002600   000116 220003                    LDX0    78,DU
        17 002601   000003 440100                    SXL0    3,,PR0

      210    15205        %SEARCH (RWD='CHANNEL-08',             RWNO=%RSV_WRD_CHANNEL_01);

  15209 17 002602   002731 054000 1                  AOS     NUMBER_OF_RESERVED_WORDS

  15210 17 002603   000012 235007                    LDA     10,DL
        17 002604   000010 755000 6                  STA     LEX_SYMBOL+8

  15211 17 002605   040000 100400                    MLR     fill='040'O
        17 002606   000202 000012 16                 ADSC9   130                      cn=0,n=10
        17 002607   000011 000504 6                  ADSC9   LEX_SYMBOL+9             cn=0,n=324

  15212 17 002610   000000 631400 18                 EPPR1   0
        17 002611   000000 701000 xent               TSX1    Z8AH$SEARCH_
        17 002612   000000 011000                    NOP     0

  15213 17 002613   000000 470400 2                  LDP0    DNT$
        17 002614   400000 236003                    LDQ     -131072,DU
        17 002615   000003 256100                    ORSQ    3,,PR0

  15214 17 002616   000001 236000 18                 LDQ     1
        17 002617   000003 356100                    ANSQ    3,,PR0

  15215 17 002620   000002 236000 18                 LDQ     2
        17 002621   000003 356100                    ANSQ    3,,PR0

PL6.E3A0      #001=COBOLRW File=COBOLRW.:Z8A6TSI                                 SAT 08/09/97 09:25 Page:105
  15216 17 002622   000003 236000 18                 LDQ     3
        17 002623   000003 356100                    ANSQ    3,,PR0

  15217 17 002624   000004 236000 18                 LDQ     4
        17 002625   000003 356100                    ANSQ    3,,PR0

  15218 17 002626   000116 220003                    LDX0    78,DU
        17 002627   000003 440100                    SXL0    3,,PR0

      211    15220        %SEARCH (RWD='C08',                    RWNO=%RSV_WRD_CHANNEL_01);

  15224 17 002630   002731 054000 1                  AOS     NUMBER_OF_RESERVED_WORDS

  15225 17 002631   000003 235007                    LDA     3,DL
        17 002632   000010 755000 6                  STA     LEX_SYMBOL+8

  15226 17 002633   040000 100400                    MLR     fill='040'O
        17 002634   000205 000003 16                 ADSC9   133                      cn=0,n=3
        17 002635   000011 000504 6                  ADSC9   LEX_SYMBOL+9             cn=0,n=324

  15227 17 002636   000000 631400 18                 EPPR1   0
        17 002637   000000 701000 xent               TSX1    Z8AH$SEARCH_
        17 002640   000000 011000                    NOP     0

  15228 17 002641   000000 470400 2                  LDP0    DNT$
        17 002642   400000 236003                    LDQ     -131072,DU
        17 002643   000003 256100                    ORSQ    3,,PR0

  15229 17 002644   000001 236000 18                 LDQ     1
        17 002645   000003 356100                    ANSQ    3,,PR0

  15230 17 002646   000002 236000 18                 LDQ     2
        17 002647   000003 356100                    ANSQ    3,,PR0

  15231 17 002650   000003 236000 18                 LDQ     3
        17 002651   000003 356100                    ANSQ    3,,PR0

PL6.E3A0      #001=COBOLRW File=COBOLRW.:Z8A6TSI                                 SAT 08/09/97 09:25 Page:106
  15232 17 002652   000004 236000 18                 LDQ     4
        17 002653   000003 356100                    ANSQ    3,,PR0

  15233 17 002654   000116 220003                    LDX0    78,DU
        17 002655   000003 440100                    SXL0    3,,PR0

      212    15235        %SEARCH (RWD='CHANNEL-09',             RWNO=%RSV_WRD_CHANNEL_01);

  15239 17 002656   002731 054000 1                  AOS     NUMBER_OF_RESERVED_WORDS

  15240 17 002657   000012 235007                    LDA     10,DL
        17 002660   000010 755000 6                  STA     LEX_SYMBOL+8

  15241 17 002661   040000 100400                    MLR     fill='040'O
        17 002662   000206 000012 16                 ADSC9   134                      cn=0,n=10
        17 002663   000011 000504 6                  ADSC9   LEX_SYMBOL+9             cn=0,n=324

  15242 17 002664   000000 631400 18                 EPPR1   0
        17 002665   000000 701000 xent               TSX1    Z8AH$SEARCH_
        17 002666   000000 011000                    NOP     0

  15243 17 002667   000000 470400 2                  LDP0    DNT$
        17 002670   400000 236003                    LDQ     -131072,DU
        17 002671   000003 256100                    ORSQ    3,,PR0

  15244 17 002672   000001 236000 18                 LDQ     1
        17 002673   000003 356100                    ANSQ    3,,PR0

  15245 17 002674   000002 236000 18                 LDQ     2
        17 002675   000003 356100                    ANSQ    3,,PR0

  15246 17 002676   000003 236000 18                 LDQ     3
        17 002677   000003 356100                    ANSQ    3,,PR0

  15247 17 002700   000004 236000 18                 LDQ     4
        17 002701   000003 356100                    ANSQ    3,,PR0

PL6.E3A0      #001=COBOLRW File=COBOLRW.:Z8A6TSI                                 SAT 08/09/97 09:25 Page:107
  15248 17 002702   000116 220003                    LDX0    78,DU
        17 002703   000003 440100                    SXL0    3,,PR0

      213    15250        %SEARCH (RWD='C09',                    RWNO=%RSV_WRD_CHANNEL_01);

  15254 17 002704   002731 054000 1                  AOS     NUMBER_OF_RESERVED_WORDS

  15255 17 002705   000003 235007                    LDA     3,DL
        17 002706   000010 755000 6                  STA     LEX_SYMBOL+8

  15256 17 002707   040000 100400                    MLR     fill='040'O
        17 002710   000211 000003 16                 ADSC9   137                      cn=0,n=3
        17 002711   000011 000504 6                  ADSC9   LEX_SYMBOL+9             cn=0,n=324

  15257 17 002712   000000 631400 18                 EPPR1   0
        17 002713   000000 701000 xent               TSX1    Z8AH$SEARCH_
        17 002714   000000 011000                    NOP     0

  15258 17 002715   000000 470400 2                  LDP0    DNT$
        17 002716   400000 236003                    LDQ     -131072,DU
        17 002717   000003 256100                    ORSQ    3,,PR0

  15259 17 002720   000001 236000 18                 LDQ     1
        17 002721   000003 356100                    ANSQ    3,,PR0

  15260 17 002722   000002 236000 18                 LDQ     2
        17 002723   000003 356100                    ANSQ    3,,PR0

  15261 17 002724   000003 236000 18                 LDQ     3
        17 002725   000003 356100                    ANSQ    3,,PR0

  15262 17 002726   000004 236000 18                 LDQ     4
        17 002727   000003 356100                    ANSQ    3,,PR0

  15263 17 002730   000116 220003                    LDX0    78,DU
        17 002731   000003 440100                    SXL0    3,,PR0

PL6.E3A0      #001=COBOLRW File=COBOLRW.:Z8A6TSI                                 SAT 08/09/97 09:25 Page:108
      214    15265        %SEARCH (RWD='CHANNEL-10',             RWNO=%RSV_WRD_CHANNEL_01);

  15269 17 002732   002731 054000 1                  AOS     NUMBER_OF_RESERVED_WORDS

  15270 17 002733   000012 235007                    LDA     10,DL
        17 002734   000010 755000 6                  STA     LEX_SYMBOL+8

  15271 17 002735   040000 100400                    MLR     fill='040'O
        17 002736   000212 000012 16                 ADSC9   138                      cn=0,n=10
        17 002737   000011 000504 6                  ADSC9   LEX_SYMBOL+9             cn=0,n=324

  15272 17 002740   000000 631400 18                 EPPR1   0
        17 002741   000000 701000 xent               TSX1    Z8AH$SEARCH_
        17 002742   000000 011000                    NOP     0

  15273 17 002743   000000 470400 2                  LDP0    DNT$
        17 002744   400000 236003                    LDQ     -131072,DU
        17 002745   000003 256100                    ORSQ    3,,PR0

  15274 17 002746   000001 236000 18                 LDQ     1
        17 002747   000003 356100                    ANSQ    3,,PR0

  15275 17 002750   000002 236000 18                 LDQ     2
        17 002751   000003 356100                    ANSQ    3,,PR0

  15276 17 002752   000003 236000 18                 LDQ     3
        17 002753   000003 356100                    ANSQ    3,,PR0

  15277 17 002754   000004 236000 18                 LDQ     4
        17 002755   000003 356100                    ANSQ    3,,PR0

  15278 17 002756   000116 220003                    LDX0    78,DU
        17 002757   000003 440100                    SXL0    3,,PR0

      215    15280        %SEARCH (RWD='C10',                    RWNO=%RSV_WRD_CHANNEL_01);

  15284 17 002760   002731 054000 1                  AOS     NUMBER_OF_RESERVED_WORDS
PL6.E3A0      #001=COBOLRW File=COBOLRW.:Z8A6TSI                                 SAT 08/09/97 09:25 Page:109

  15285 17 002761   000003 235007                    LDA     3,DL
        17 002762   000010 755000 6                  STA     LEX_SYMBOL+8

  15286 17 002763   040000 100400                    MLR     fill='040'O
        17 002764   000215 000003 16                 ADSC9   141                      cn=0,n=3
        17 002765   000011 000504 6                  ADSC9   LEX_SYMBOL+9             cn=0,n=324

  15287 17 002766   000000 631400 18                 EPPR1   0
        17 002767   000000 701000 xent               TSX1    Z8AH$SEARCH_
        17 002770   000000 011000                    NOP     0

  15288 17 002771   000000 470400 2                  LDP0    DNT$
        17 002772   400000 236003                    LDQ     -131072,DU
        17 002773   000003 256100                    ORSQ    3,,PR0

  15289 17 002774   000001 236000 18                 LDQ     1
        17 002775   000003 356100                    ANSQ    3,,PR0

  15290 17 002776   000002 236000 18                 LDQ     2
        17 002777   000003 356100                    ANSQ    3,,PR0

  15291 17 003000   000003 236000 18                 LDQ     3
        17 003001   000003 356100                    ANSQ    3,,PR0

  15292 17 003002   000004 236000 18                 LDQ     4
        17 003003   000003 356100                    ANSQ    3,,PR0

  15293 17 003004   000116 220003                    LDX0    78,DU
        17 003005   000003 440100                    SXL0    3,,PR0

      216    15295        %SEARCH (RWD='CHANNEL-11',             RWNO=%RSV_WRD_CHANNEL_01);

  15299 17 003006   002731 054000 1                  AOS     NUMBER_OF_RESERVED_WORDS

  15300 17 003007   000012 235007                    LDA     10,DL
        17 003010   000010 755000 6                  STA     LEX_SYMBOL+8
PL6.E3A0      #001=COBOLRW File=COBOLRW.:Z8A6TSI                                 SAT 08/09/97 09:25 Page:110

  15301 17 003011   040000 100400                    MLR     fill='040'O
        17 003012   000216 000012 16                 ADSC9   142                      cn=0,n=10
        17 003013   000011 000504 6                  ADSC9   LEX_SYMBOL+9             cn=0,n=324

  15302 17 003014   000000 631400 18                 EPPR1   0
        17 003015   000000 701000 xent               TSX1    Z8AH$SEARCH_
        17 003016   000000 011000                    NOP     0

  15303 17 003017   000000 470400 2                  LDP0    DNT$
        17 003020   400000 236003                    LDQ     -131072,DU
        17 003021   000003 256100                    ORSQ    3,,PR0

  15304 17 003022   000001 236000 18                 LDQ     1
        17 003023   000003 356100                    ANSQ    3,,PR0

  15305 17 003024   000002 236000 18                 LDQ     2
        17 003025   000003 356100                    ANSQ    3,,PR0

  15306 17 003026   000003 236000 18                 LDQ     3
        17 003027   000003 356100                    ANSQ    3,,PR0

  15307 17 003030   000004 236000 18                 LDQ     4
        17 003031   000003 356100                    ANSQ    3,,PR0

  15308 17 003032   000116 220003                    LDX0    78,DU
        17 003033   000003 440100                    SXL0    3,,PR0

      217    15310        %SEARCH (RWD='C11',                    RWNO=%RSV_WRD_CHANNEL_01);

  15314 17 003034   002731 054000 1                  AOS     NUMBER_OF_RESERVED_WORDS

  15315 17 003035   000003 235007                    LDA     3,DL
        17 003036   000010 755000 6                  STA     LEX_SYMBOL+8

  15316 17 003037   040000 100400                    MLR     fill='040'O
        17 003040   000221 000003 16                 ADSC9   145                      cn=0,n=3
PL6.E3A0      #001=COBOLRW File=COBOLRW.:Z8A6TSI                                 SAT 08/09/97 09:25 Page:111
        17 003041   000011 000504 6                  ADSC9   LEX_SYMBOL+9             cn=0,n=324

  15317 17 003042   000000 631400 18                 EPPR1   0
        17 003043   000000 701000 xent               TSX1    Z8AH$SEARCH_
        17 003044   000000 011000                    NOP     0

  15318 17 003045   000000 470400 2                  LDP0    DNT$
        17 003046   400000 236003                    LDQ     -131072,DU
        17 003047   000003 256100                    ORSQ    3,,PR0

  15319 17 003050   000001 236000 18                 LDQ     1
        17 003051   000003 356100                    ANSQ    3,,PR0

  15320 17 003052   000002 236000 18                 LDQ     2
        17 003053   000003 356100                    ANSQ    3,,PR0

  15321 17 003054   000003 236000 18                 LDQ     3
        17 003055   000003 356100                    ANSQ    3,,PR0

  15322 17 003056   000004 236000 18                 LDQ     4
        17 003057   000003 356100                    ANSQ    3,,PR0

  15323 17 003060   000116 220003                    LDX0    78,DU
        17 003061   000003 440100                    SXL0    3,,PR0

      218    15325        %SEARCH (RWD='CHANNEL-12',             RWNO=%RSV_WRD_CHANNEL_01);

  15329 17 003062   002731 054000 1                  AOS     NUMBER_OF_RESERVED_WORDS

  15330 17 003063   000012 235007                    LDA     10,DL
        17 003064   000010 755000 6                  STA     LEX_SYMBOL+8

  15331 17 003065   040000 100400                    MLR     fill='040'O
        17 003066   000222 000012 16                 ADSC9   146                      cn=0,n=10
        17 003067   000011 000504 6                  ADSC9   LEX_SYMBOL+9             cn=0,n=324

  15332 17 003070   000000 631400 18                 EPPR1   0
PL6.E3A0      #001=COBOLRW File=COBOLRW.:Z8A6TSI                                 SAT 08/09/97 09:25 Page:112
        17 003071   000000 701000 xent               TSX1    Z8AH$SEARCH_
        17 003072   000000 011000                    NOP     0

  15333 17 003073   000000 470400 2                  LDP0    DNT$
        17 003074   400000 236003                    LDQ     -131072,DU
        17 003075   000003 256100                    ORSQ    3,,PR0

  15334 17 003076   000001 236000 18                 LDQ     1
        17 003077   000003 356100                    ANSQ    3,,PR0

  15335 17 003100   000002 236000 18                 LDQ     2
        17 003101   000003 356100                    ANSQ    3,,PR0

  15336 17 003102   000003 236000 18                 LDQ     3
        17 003103   000003 356100                    ANSQ    3,,PR0

  15337 17 003104   000004 236000 18                 LDQ     4
        17 003105   000003 356100                    ANSQ    3,,PR0

  15338 17 003106   000116 220003                    LDX0    78,DU
        17 003107   000003 440100                    SXL0    3,,PR0

      219    15340        %SEARCH (RWD='C12',                    RWNO=%RSV_WRD_CHANNEL_01);

  15344 17 003110   002731 054000 1                  AOS     NUMBER_OF_RESERVED_WORDS

  15345 17 003111   000003 235007                    LDA     3,DL
        17 003112   000010 755000 6                  STA     LEX_SYMBOL+8

  15346 17 003113   040000 100400                    MLR     fill='040'O
        17 003114   000225 000003 16                 ADSC9   149                      cn=0,n=3
        17 003115   000011 000504 6                  ADSC9   LEX_SYMBOL+9             cn=0,n=324

  15347 17 003116   000000 631400 18                 EPPR1   0
        17 003117   000000 701000 xent               TSX1    Z8AH$SEARCH_
        17 003120   000000 011000                    NOP     0

PL6.E3A0      #001=COBOLRW File=COBOLRW.:Z8A6TSI                                 SAT 08/09/97 09:25 Page:113
  15348 17 003121   000000 470400 2                  LDP0    DNT$
        17 003122   400000 236003                    LDQ     -131072,DU
        17 003123   000003 256100                    ORSQ    3,,PR0

  15349 17 003124   000001 236000 18                 LDQ     1
        17 003125   000003 356100                    ANSQ    3,,PR0

  15350 17 003126   000002 236000 18                 LDQ     2
        17 003127   000003 356100                    ANSQ    3,,PR0

  15351 17 003130   000003 236000 18                 LDQ     3
        17 003131   000003 356100                    ANSQ    3,,PR0

  15352 17 003132   000004 236000 18                 LDQ     4
        17 003133   000003 356100                    ANSQ    3,,PR0

  15353 17 003134   000116 220003                    LDX0    78,DU
        17 003135   000003 440100                    SXL0    3,,PR0

      220    15355        %SEARCH (RWD='CHANNEL-13',             RWNO=%RSV_WRD_CHANNEL_01);

  15359 17 003136   002731 054000 1                  AOS     NUMBER_OF_RESERVED_WORDS

  15360 17 003137   000012 235007                    LDA     10,DL
        17 003140   000010 755000 6                  STA     LEX_SYMBOL+8

  15361 17 003141   040000 100400                    MLR     fill='040'O
        17 003142   000226 000012 16                 ADSC9   150                      cn=0,n=10
        17 003143   000011 000504 6                  ADSC9   LEX_SYMBOL+9             cn=0,n=324

  15362 17 003144   000000 631400 18                 EPPR1   0
        17 003145   000000 701000 xent               TSX1    Z8AH$SEARCH_
        17 003146   000000 011000                    NOP     0

  15363 17 003147   000000 470400 2                  LDP0    DNT$
        17 003150   400000 236003                    LDQ     -131072,DU
        17 003151   000003 256100                    ORSQ    3,,PR0
PL6.E3A0      #001=COBOLRW File=COBOLRW.:Z8A6TSI                                 SAT 08/09/97 09:25 Page:114

  15364 17 003152   000001 236000 18                 LDQ     1
        17 003153   000003 356100                    ANSQ    3,,PR0

  15365 17 003154   000002 236000 18                 LDQ     2
        17 003155   000003 356100                    ANSQ    3,,PR0

  15366 17 003156   000003 236000 18                 LDQ     3
        17 003157   000003 356100                    ANSQ    3,,PR0

  15367 17 003160   000004 236000 18                 LDQ     4
        17 003161   000003 356100                    ANSQ    3,,PR0

  15368 17 003162   000116 220003                    LDX0    78,DU
        17 003163   000003 440100                    SXL0    3,,PR0

      221    15370        %SEARCH (RWD='C13',                    RWNO=%RSV_WRD_CHANNEL_01);

  15374 17 003164   002731 054000 1                  AOS     NUMBER_OF_RESERVED_WORDS

  15375 17 003165   000003 235007                    LDA     3,DL
        17 003166   000010 755000 6                  STA     LEX_SYMBOL+8

  15376 17 003167   040000 100400                    MLR     fill='040'O
        17 003170   000231 000003 16                 ADSC9   153                      cn=0,n=3
        17 003171   000011 000504 6                  ADSC9   LEX_SYMBOL+9             cn=0,n=324

  15377 17 003172   000000 631400 18                 EPPR1   0
        17 003173   000000 701000 xent               TSX1    Z8AH$SEARCH_
        17 003174   000000 011000                    NOP     0

  15378 17 003175   000000 470400 2                  LDP0    DNT$
        17 003176   400000 236003                    LDQ     -131072,DU
        17 003177   000003 256100                    ORSQ    3,,PR0

  15379 17 003200   000001 236000 18                 LDQ     1
        17 003201   000003 356100                    ANSQ    3,,PR0
PL6.E3A0      #001=COBOLRW File=COBOLRW.:Z8A6TSI                                 SAT 08/09/97 09:25 Page:115

  15380 17 003202   000002 236000 18                 LDQ     2
        17 003203   000003 356100                    ANSQ    3,,PR0

  15381 17 003204   000003 236000 18                 LDQ     3
        17 003205   000003 356100                    ANSQ    3,,PR0

  15382 17 003206   000004 236000 18                 LDQ     4
        17 003207   000003 356100                    ANSQ    3,,PR0

  15383 17 003210   000116 220003                    LDX0    78,DU
        17 003211   000003 440100                    SXL0    3,,PR0

      222    15385        %SEARCH (RWD='CHANNEL-14',             RWNO=%RSV_WRD_CHANNEL_01);

  15389 17 003212   002731 054000 1                  AOS     NUMBER_OF_RESERVED_WORDS

  15390 17 003213   000012 235007                    LDA     10,DL
        17 003214   000010 755000 6                  STA     LEX_SYMBOL+8

  15391 17 003215   040000 100400                    MLR     fill='040'O
        17 003216   000232 000012 16                 ADSC9   154                      cn=0,n=10
        17 003217   000011 000504 6                  ADSC9   LEX_SYMBOL+9             cn=0,n=324

  15392 17 003220   000000 631400 18                 EPPR1   0
        17 003221   000000 701000 xent               TSX1    Z8AH$SEARCH_
        17 003222   000000 011000                    NOP     0

  15393 17 003223   000000 470400 2                  LDP0    DNT$
        17 003224   400000 236003                    LDQ     -131072,DU
        17 003225   000003 256100                    ORSQ    3,,PR0

  15394 17 003226   000001 236000 18                 LDQ     1
        17 003227   000003 356100                    ANSQ    3,,PR0

  15395 17 003230   000002 236000 18                 LDQ     2
        17 003231   000003 356100                    ANSQ    3,,PR0
PL6.E3A0      #001=COBOLRW File=COBOLRW.:Z8A6TSI                                 SAT 08/09/97 09:25 Page:116

  15396 17 003232   000003 236000 18                 LDQ     3
        17 003233   000003 356100                    ANSQ    3,,PR0

  15397 17 003234   000004 236000 18                 LDQ     4
        17 003235   000003 356100                    ANSQ    3,,PR0

  15398 17 003236   000116 220003                    LDX0    78,DU
        17 003237   000003 440100                    SXL0    3,,PR0

      223    15400        %SEARCH (RWD='C14',                    RWNO=%RSV_WRD_CHANNEL_01);

  15404 17 003240   002731 054000 1                  AOS     NUMBER_OF_RESERVED_WORDS

  15405 17 003241   000003 235007                    LDA     3,DL
        17 003242   000010 755000 6                  STA     LEX_SYMBOL+8

  15406 17 003243   040000 100400                    MLR     fill='040'O
        17 003244   000235 000003 16                 ADSC9   157                      cn=0,n=3
        17 003245   000011 000504 6                  ADSC9   LEX_SYMBOL+9             cn=0,n=324

  15407 17 003246   000000 631400 18                 EPPR1   0
        17 003247   000000 701000 xent               TSX1    Z8AH$SEARCH_
        17 003250   000000 011000                    NOP     0

  15408 17 003251   000000 470400 2                  LDP0    DNT$
        17 003252   400000 236003                    LDQ     -131072,DU
        17 003253   000003 256100                    ORSQ    3,,PR0

  15409 17 003254   000001 236000 18                 LDQ     1
        17 003255   000003 356100                    ANSQ    3,,PR0

  15410 17 003256   000002 236000 18                 LDQ     2
        17 003257   000003 356100                    ANSQ    3,,PR0

  15411 17 003260   000003 236000 18                 LDQ     3
        17 003261   000003 356100                    ANSQ    3,,PR0
PL6.E3A0      #001=COBOLRW File=COBOLRW.:Z8A6TSI                                 SAT 08/09/97 09:25 Page:117

  15412 17 003262   000004 236000 18                 LDQ     4
        17 003263   000003 356100                    ANSQ    3,,PR0

  15413 17 003264   000116 220003                    LDX0    78,DU
        17 003265   000003 440100                    SXL0    3,,PR0

      224    15415        %SEARCH (RWD='CHANNEL-15',             RWNO=%RSV_WRD_CHANNEL_01);

  15419 17 003266   002731 054000 1                  AOS     NUMBER_OF_RESERVED_WORDS

  15420 17 003267   000012 235007                    LDA     10,DL
        17 003270   000010 755000 6                  STA     LEX_SYMBOL+8

  15421 17 003271   040000 100400                    MLR     fill='040'O
        17 003272   000236 000012 16                 ADSC9   158                      cn=0,n=10
        17 003273   000011 000504 6                  ADSC9   LEX_SYMBOL+9             cn=0,n=324

  15422 17 003274   000000 631400 18                 EPPR1   0
        17 003275   000000 701000 xent               TSX1    Z8AH$SEARCH_
        17 003276   000000 011000                    NOP     0

  15423 17 003277   000000 470400 2                  LDP0    DNT$
        17 003300   400000 236003                    LDQ     -131072,DU
        17 003301   000003 256100                    ORSQ    3,,PR0

  15424 17 003302   000001 236000 18                 LDQ     1
        17 003303   000003 356100                    ANSQ    3,,PR0

  15425 17 003304   000002 236000 18                 LDQ     2
        17 003305   000003 356100                    ANSQ    3,,PR0

  15426 17 003306   000003 236000 18                 LDQ     3
        17 003307   000003 356100                    ANSQ    3,,PR0

  15427 17 003310   000004 236000 18                 LDQ     4
        17 003311   000003 356100                    ANSQ    3,,PR0
PL6.E3A0      #001=COBOLRW File=COBOLRW.:Z8A6TSI                                 SAT 08/09/97 09:25 Page:118

  15428 17 003312   000116 220003                    LDX0    78,DU
        17 003313   000003 440100                    SXL0    3,,PR0

      225    15430        %SEARCH (RWD='C15',                    RWNO=%RSV_WRD_CHANNEL_01);

  15434 17 003314   002731 054000 1                  AOS     NUMBER_OF_RESERVED_WORDS

  15435 17 003315   000003 235007                    LDA     3,DL
        17 003316   000010 755000 6                  STA     LEX_SYMBOL+8

  15436 17 003317   040000 100400                    MLR     fill='040'O
        17 003320   000241 000003 16                 ADSC9   161                      cn=0,n=3
        17 003321   000011 000504 6                  ADSC9   LEX_SYMBOL+9             cn=0,n=324

  15437 17 003322   000000 631400 18                 EPPR1   0
        17 003323   000000 701000 xent               TSX1    Z8AH$SEARCH_
        17 003324   000000 011000                    NOP     0

  15438 17 003325   000000 470400 2                  LDP0    DNT$
        17 003326   400000 236003                    LDQ     -131072,DU
        17 003327   000003 256100                    ORSQ    3,,PR0

  15439 17 003330   000001 236000 18                 LDQ     1
        17 003331   000003 356100                    ANSQ    3,,PR0

  15440 17 003332   000002 236000 18                 LDQ     2
        17 003333   000003 356100                    ANSQ    3,,PR0

  15441 17 003334   000003 236000 18                 LDQ     3
        17 003335   000003 356100                    ANSQ    3,,PR0

  15442 17 003336   000004 236000 18                 LDQ     4
        17 003337   000003 356100                    ANSQ    3,,PR0

  15443 17 003340   000116 220003                    LDX0    78,DU
        17 003341   000003 440100                    SXL0    3,,PR0
PL6.E3A0      #001=COBOLRW File=COBOLRW.:Z8A6TSI                                 SAT 08/09/97 09:25 Page:119

      226    15445        %NEWRSW;
      227    15448        %SEARCH (RWD='CHARACTER',              RWNO=%RSV_WRD_CHARACTER);

  15452 17 003342   002731 054000 1                  AOS     NUMBER_OF_RESERVED_WORDS

  15453 17 003343   000011 235007                    LDA     9,DL
        17 003344   000010 755000 6                  STA     LEX_SYMBOL+8

  15454 17 003345   040000 100400                    MLR     fill='040'O
        17 003346   000242 000011 16                 ADSC9   162                      cn=0,n=9
        17 003347   000011 000504 6                  ADSC9   LEX_SYMBOL+9             cn=0,n=324

  15455 17 003350   000000 631400 18                 EPPR1   0
        17 003351   000000 701000 xent               TSX1    Z8AH$SEARCH_
        17 003352   000000 011000                    NOP     0

  15456 17 003353   000000 470400 2                  LDP0    DNT$
        17 003354   400000 236003                    LDQ     -131072,DU
        17 003355   000003 256100                    ORSQ    3,,PR0

  15457 17 003356   000001 236000 18                 LDQ     1
        17 003357   000003 356100                    ANSQ    3,,PR0

  15458 17 003360   000002 236000 18                 LDQ     2
        17 003361   000003 356100                    ANSQ    3,,PR0

  15459 17 003362   000003 236000 18                 LDQ     3
        17 003363   000003 356100                    ANSQ    3,,PR0

  15460 17 003364   000004 236000 18                 LDQ     4
        17 003365   000003 356100                    ANSQ    3,,PR0

  15461 17 003366   000117 220003                    LDX0    79,DU
        17 003367   000003 440100                    SXL0    3,,PR0

      228    15463        %NEWRSW;
PL6.E3A0      #001=COBOLRW File=COBOLRW.:Z8A6TSI                                 SAT 08/09/97 09:25 Page:120
      229    15466        %SEARCH (RWD='CHARACTERS',             RWNO=%RSV_WRD_CHARACTERS);

  15470 17 003370   002731 054000 1                  AOS     NUMBER_OF_RESERVED_WORDS

  15471 17 003371   000012 235007                    LDA     10,DL
        17 003372   000010 755000 6                  STA     LEX_SYMBOL+8

  15472 17 003373   040000 100400                    MLR     fill='040'O
        17 003374   000245 000012 16                 ADSC9   165                      cn=0,n=10
        17 003375   000011 000504 6                  ADSC9   LEX_SYMBOL+9             cn=0,n=324

  15473 17 003376   000000 631400 18                 EPPR1   0
        17 003377   000000 701000 xent               TSX1    Z8AH$SEARCH_
        17 003400   000000 011000                    NOP     0

  15474 17 003401   000000 470400 2                  LDP0    DNT$
        17 003402   400000 236003                    LDQ     -131072,DU
        17 003403   000003 256100                    ORSQ    3,,PR0

  15475 17 003404   000001 236000 18                 LDQ     1
        17 003405   000003 356100                    ANSQ    3,,PR0

  15476 17 003406   000002 236000 18                 LDQ     2
        17 003407   000003 356100                    ANSQ    3,,PR0

  15477 17 003410   000003 236000 18                 LDQ     3
        17 003411   000003 356100                    ANSQ    3,,PR0

  15478 17 003412   000004 236000 18                 LDQ     4
        17 003413   000003 356100                    ANSQ    3,,PR0

  15479 17 003414   000120 220003                    LDX0    80,DU
        17 003415   000003 440100                    SXL0    3,,PR0

      230    15481        %NEWRSW;
      231    15484        %SEARCH (RWD='CHECKPOINT-FILE',        RWNO=%RSV_WRD_CHECKPOINT_FILE);

PL6.E3A0      #001=COBOLRW File=COBOLRW.:Z8A6TSI                                 SAT 08/09/97 09:25 Page:121
  15488 17 003416   002731 054000 1                  AOS     NUMBER_OF_RESERVED_WORDS

  15489 17 003417   000017 235007                    LDA     15,DL
        17 003420   000010 755000 6                  STA     LEX_SYMBOL+8

  15490 17 003421   040000 100400                    MLR     fill='040'O
        17 003422   000250 000017 16                 ADSC9   168                      cn=0,n=15
        17 003423   000011 000504 6                  ADSC9   LEX_SYMBOL+9             cn=0,n=324

  15491 17 003424   000000 631400 18                 EPPR1   0
        17 003425   000000 701000 xent               TSX1    Z8AH$SEARCH_
        17 003426   000000 011000                    NOP     0

  15492 17 003427   000000 470400 2                  LDP0    DNT$
        17 003430   400000 236003                    LDQ     -131072,DU
        17 003431   000003 256100                    ORSQ    3,,PR0

  15493 17 003432   000001 236000 18                 LDQ     1
        17 003433   000003 356100                    ANSQ    3,,PR0

  15494 17 003434   000002 236000 18                 LDQ     2
        17 003435   000003 356100                    ANSQ    3,,PR0

  15495 17 003436   000003 236000 18                 LDQ     3
        17 003437   000003 356100                    ANSQ    3,,PR0

  15496 17 003440   000004 236000 18                 LDQ     4
        17 003441   000003 356100                    ANSQ    3,,PR0

  15497 17 003442   000121 220003                    LDX0    81,DU
        17 003443   000003 440100                    SXL0    3,,PR0

      232    15499        %NEWRSW;
      233    15502        %SEARCH (RWD='CLASS',                  RWNO=%RSV_WRD_CLASS);

  15506 17 003444   002731 054000 1                  AOS     NUMBER_OF_RESERVED_WORDS

PL6.E3A0      #001=COBOLRW File=COBOLRW.:Z8A6TSI                                 SAT 08/09/97 09:25 Page:122
  15507 17 003445   000005 235007                    LDA     5,DL
        17 003446   000010 755000 6                  STA     LEX_SYMBOL+8

  15508 17 003447   040000 100400                    MLR     fill='040'O
        17 003450   000254 000005 16                 ADSC9   172                      cn=0,n=5
        17 003451   000011 000504 6                  ADSC9   LEX_SYMBOL+9             cn=0,n=324

  15509 17 003452   000000 631400 18                 EPPR1   0
        17 003453   000000 701000 xent               TSX1    Z8AH$SEARCH_
        17 003454   000000 011000                    NOP     0

  15510 17 003455   000000 470400 2                  LDP0    DNT$
        17 003456   400000 236003                    LDQ     -131072,DU
        17 003457   000003 256100                    ORSQ    3,,PR0

  15511 17 003460   000001 236000 18                 LDQ     1
        17 003461   000003 356100                    ANSQ    3,,PR0

  15512 17 003462   000002 236000 18                 LDQ     2
        17 003463   000003 356100                    ANSQ    3,,PR0

  15513 17 003464   000003 236000 18                 LDQ     3
        17 003465   000003 356100                    ANSQ    3,,PR0

  15514 17 003466   000004 236000 18                 LDQ     4
        17 003467   000003 356100                    ANSQ    3,,PR0

  15515 17 003470   000122 220003                    LDX0    82,DU
        17 003471   000003 440100                    SXL0    3,,PR0

      234    15517        %NEWRSW;
      235    15520        %SEARCH (RWD='CLOCK-UNITS',            RWNO=%RSV_WRD_CLOCK_UNITS);

  15524 17 003472   002731 054000 1                  AOS     NUMBER_OF_RESERVED_WORDS

  15525 17 003473   000013 235007                    LDA     11,DL
        17 003474   000010 755000 6                  STA     LEX_SYMBOL+8
PL6.E3A0      #001=COBOLRW File=COBOLRW.:Z8A6TSI                                 SAT 08/09/97 09:25 Page:123

  15526 17 003475   040000 100400                    MLR     fill='040'O
        17 003476   000256 000013 16                 ADSC9   174                      cn=0,n=11
        17 003477   000011 000504 6                  ADSC9   LEX_SYMBOL+9             cn=0,n=324

  15527 17 003500   000000 631400 18                 EPPR1   0
        17 003501   000000 701000 xent               TSX1    Z8AH$SEARCH_
        17 003502   000000 011000                    NOP     0

  15528 17 003503   000000 470400 2                  LDP0    DNT$
        17 003504   400000 236003                    LDQ     -131072,DU
        17 003505   000003 256100                    ORSQ    3,,PR0

  15529 17 003506   000001 236000 18                 LDQ     1
        17 003507   000003 356100                    ANSQ    3,,PR0

  15530 17 003510   000002 236000 18                 LDQ     2
        17 003511   000003 356100                    ANSQ    3,,PR0

  15531 17 003512   000003 236000 18                 LDQ     3
        17 003513   000003 356100                    ANSQ    3,,PR0

  15532 17 003514   000004 236000 18                 LDQ     4
        17 003515   000003 356100                    ANSQ    3,,PR0

  15533 17 003516   000123 220003                    LDX0    83,DU
        17 003517   000003 440100                    SXL0    3,,PR0

      236    15535        %NEWRSW;
      237    15538        %SEARCH (RWD='CLOSE',                  RWNO=%RSV_WRD_CLOSE);

  15542 17 003520   002731 054000 1                  AOS     NUMBER_OF_RESERVED_WORDS

  15543 17 003521   000005 235007                    LDA     5,DL
        17 003522   000010 755000 6                  STA     LEX_SYMBOL+8

  15544 17 003523   040000 100400                    MLR     fill='040'O
PL6.E3A0      #001=COBOLRW File=COBOLRW.:Z8A6TSI                                 SAT 08/09/97 09:25 Page:124
        17 003524   000261 000005 16                 ADSC9   177                      cn=0,n=5
        17 003525   000011 000504 6                  ADSC9   LEX_SYMBOL+9             cn=0,n=324

  15545 17 003526   000000 631400 18                 EPPR1   0
        17 003527   000000 701000 xent               TSX1    Z8AH$SEARCH_
        17 003530   000000 011000                    NOP     0

  15546 17 003531   000000 470400 2                  LDP0    DNT$
        17 003532   400000 236003                    LDQ     -131072,DU
        17 003533   000003 256100                    ORSQ    3,,PR0

  15547 17 003534   000001 236000 18                 LDQ     1
        17 003535   000003 356100                    ANSQ    3,,PR0

  15548 17 003536   000002 236000 18                 LDQ     2
        17 003537   000003 356100                    ANSQ    3,,PR0

  15549 17 003540   000003 236000 18                 LDQ     3
        17 003541   000003 356100                    ANSQ    3,,PR0

  15550 17 003542   000004 236000 18                 LDQ     4
        17 003543   000003 356100                    ANSQ    3,,PR0

  15551 17 003544   000124 220003                    LDX0    84,DU
        17 003545   000003 440100                    SXL0    3,,PR0

      238    15553        %NEWRSW;
      239    15556        %SEARCH (RWD='COBOL',                  RWNO=%RSV_WRD_COBOL);

  15560 17 003546   002731 054000 1                  AOS     NUMBER_OF_RESERVED_WORDS

  15561 17 003547   000005 235007                    LDA     5,DL
        17 003550   000010 755000 6                  STA     LEX_SYMBOL+8

  15562 17 003551   040000 100400                    MLR     fill='040'O
        17 003552   000263 000005 16                 ADSC9   179                      cn=0,n=5
        17 003553   000011 000504 6                  ADSC9   LEX_SYMBOL+9             cn=0,n=324
PL6.E3A0      #001=COBOLRW File=COBOLRW.:Z8A6TSI                                 SAT 08/09/97 09:25 Page:125

  15563 17 003554   000000 631400 18                 EPPR1   0
        17 003555   000000 701000 xent               TSX1    Z8AH$SEARCH_
        17 003556   000000 011000                    NOP     0

  15564 17 003557   000000 470400 2                  LDP0    DNT$
        17 003560   400000 236003                    LDQ     -131072,DU
        17 003561   000003 256100                    ORSQ    3,,PR0

  15565 17 003562   000001 236000 18                 LDQ     1
        17 003563   000003 356100                    ANSQ    3,,PR0

  15566 17 003564   000002 236000 18                 LDQ     2
        17 003565   000003 356100                    ANSQ    3,,PR0

  15567 17 003566   000003 236000 18                 LDQ     3
        17 003567   000003 356100                    ANSQ    3,,PR0

  15568 17 003570   000004 236000 18                 LDQ     4
        17 003571   000003 356100                    ANSQ    3,,PR0

  15569 17 003572   000125 220003                    LDX0    85,DU
        17 003573   000003 440100                    SXL0    3,,PR0

      240    15571        %NEWRSW;
      241    15574        %SEARCH (RWD='CODE',                   RWNO=%RSV_WRD_CODE);

  15578 17 003574   002731 054000 1                  AOS     NUMBER_OF_RESERVED_WORDS

  15579 17 003575   000004 235007                    LDA     4,DL
        17 003576   000010 755000 6                  STA     LEX_SYMBOL+8

  15580 17 003577   040000 100400                    MLR     fill='040'O
        17 003600   000265 000004 16                 ADSC9   181                      cn=0,n=4
        17 003601   000011 000504 6                  ADSC9   LEX_SYMBOL+9             cn=0,n=324

  15581 17 003602   000000 631400 18                 EPPR1   0
PL6.E3A0      #001=COBOLRW File=COBOLRW.:Z8A6TSI                                 SAT 08/09/97 09:25 Page:126
        17 003603   000000 701000 xent               TSX1    Z8AH$SEARCH_
        17 003604   000000 011000                    NOP     0

  15582 17 003605   000000 470400 2                  LDP0    DNT$
        17 003606   400000 236003                    LDQ     -131072,DU
        17 003607   000003 256100                    ORSQ    3,,PR0

  15583 17 003610   000001 236000 18                 LDQ     1
        17 003611   000003 356100                    ANSQ    3,,PR0

  15584 17 003612   000002 236000 18                 LDQ     2
        17 003613   000003 356100                    ANSQ    3,,PR0

  15585 17 003614   000003 236000 18                 LDQ     3
        17 003615   000003 356100                    ANSQ    3,,PR0

  15586 17 003616   000004 236000 18                 LDQ     4
        17 003617   000003 356100                    ANSQ    3,,PR0

  15587 17 003620   000126 220003                    LDX0    86,DU
        17 003621   000003 440100                    SXL0    3,,PR0

      242    15589        %NEWRSW;
      243    15592        %SEARCH (RWD='CODE-SET',               RWNO=%RSV_WRD_CODE_SET);

  15596 17 003622   002731 054000 1                  AOS     NUMBER_OF_RESERVED_WORDS

  15597 17 003623   000010 235007                    LDA     8,DL
        17 003624   000010 755000 6                  STA     LEX_SYMBOL+8

  15598 17 003625   040000 100400                    MLR     fill='040'O
        17 003626   000266 000010 16                 ADSC9   182                      cn=0,n=8
        17 003627   000011 000504 6                  ADSC9   LEX_SYMBOL+9             cn=0,n=324

  15599 17 003630   000000 631400 18                 EPPR1   0
        17 003631   000000 701000 xent               TSX1    Z8AH$SEARCH_
        17 003632   000000 011000                    NOP     0
PL6.E3A0      #001=COBOLRW File=COBOLRW.:Z8A6TSI                                 SAT 08/09/97 09:25 Page:127

  15600 17 003633   000000 470400 2                  LDP0    DNT$
        17 003634   400000 236003                    LDQ     -131072,DU
        17 003635   000003 256100                    ORSQ    3,,PR0

  15601 17 003636   000001 236000 18                 LDQ     1
        17 003637   000003 356100                    ANSQ    3,,PR0

  15602 17 003640   000002 236000 18                 LDQ     2
        17 003641   000003 356100                    ANSQ    3,,PR0

  15603 17 003642   000003 236000 18                 LDQ     3
        17 003643   000003 356100                    ANSQ    3,,PR0

  15604 17 003644   000004 236000 18                 LDQ     4
        17 003645   000003 356100                    ANSQ    3,,PR0

  15605 17 003646   000127 220003                    LDX0    87,DU
        17 003647   000003 440100                    SXL0    3,,PR0

      244    15607        %NEWRSW;
      245    15610        %SEARCH (RWD='COLLATING',              RWNO=%RSV_WRD_COLLATING);

  15614 17 003650   002731 054000 1                  AOS     NUMBER_OF_RESERVED_WORDS

  15615 17 003651   000011 235007                    LDA     9,DL
        17 003652   000010 755000 6                  STA     LEX_SYMBOL+8

  15616 17 003653   040000 100400                    MLR     fill='040'O
        17 003654   000270 000011 16                 ADSC9   184                      cn=0,n=9
        17 003655   000011 000504 6                  ADSC9   LEX_SYMBOL+9             cn=0,n=324

  15617 17 003656   000000 631400 18                 EPPR1   0
        17 003657   000000 701000 xent               TSX1    Z8AH$SEARCH_
        17 003660   000000 011000                    NOP     0

  15618 17 003661   000000 470400 2                  LDP0    DNT$
PL6.E3A0      #001=COBOLRW File=COBOLRW.:Z8A6TSI                                 SAT 08/09/97 09:25 Page:128
        17 003662   400000 236003                    LDQ     -131072,DU
        17 003663   000003 256100                    ORSQ    3,,PR0

  15619 17 003664   000001 236000 18                 LDQ     1
        17 003665   000003 356100                    ANSQ    3,,PR0

  15620 17 003666   000002 236000 18                 LDQ     2
        17 003667   000003 356100                    ANSQ    3,,PR0

  15621 17 003670   000003 236000 18                 LDQ     3
        17 003671   000003 356100                    ANSQ    3,,PR0

  15622 17 003672   000004 236000 18                 LDQ     4
        17 003673   000003 356100                    ANSQ    3,,PR0

  15623 17 003674   000130 220003                    LDX0    88,DU
        17 003675   000003 440100                    SXL0    3,,PR0

      246    15625        %NEWRSW;
      247    15628        %SEARCH (RWD='COLUMN',                 RWNO=%RSV_WRD_COLUMN);

  15632 17 003676   002731 054000 1                  AOS     NUMBER_OF_RESERVED_WORDS

  15633 17 003677   000006 235007                    LDA     6,DL
        17 003700   000010 755000 6                  STA     LEX_SYMBOL+8

  15634 17 003701   040000 100400                    MLR     fill='040'O
        17 003702   000273 000006 16                 ADSC9   187                      cn=0,n=6
        17 003703   000011 000504 6                  ADSC9   LEX_SYMBOL+9             cn=0,n=324

  15635 17 003704   000000 631400 18                 EPPR1   0
        17 003705   000000 701000 xent               TSX1    Z8AH$SEARCH_
        17 003706   000000 011000                    NOP     0

  15636 17 003707   000000 470400 2                  LDP0    DNT$
        17 003710   400000 236003                    LDQ     -131072,DU
        17 003711   000003 256100                    ORSQ    3,,PR0
PL6.E3A0      #001=COBOLRW File=COBOLRW.:Z8A6TSI                                 SAT 08/09/97 09:25 Page:129

  15637 17 003712   000001 236000 18                 LDQ     1
        17 003713   000003 356100                    ANSQ    3,,PR0

  15638 17 003714   000002 236000 18                 LDQ     2
        17 003715   000003 356100                    ANSQ    3,,PR0

  15639 17 003716   000003 236000 18                 LDQ     3
        17 003717   000003 356100                    ANSQ    3,,PR0

  15640 17 003720   000004 236000 18                 LDQ     4
        17 003721   000003 356100                    ANSQ    3,,PR0

  15641 17 003722   000131 220003                    LDX0    89,DU
        17 003723   000003 440100                    SXL0    3,,PR0

      248    15643        %NEWRSW;
      249    15646        %SEARCH (RWD='COMMA',                  RWNO=%RSV_WRD_COMMA);

  15650 17 003724   002731 054000 1                  AOS     NUMBER_OF_RESERVED_WORDS

  15651 17 003725   000005 235007                    LDA     5,DL
        17 003726   000010 755000 6                  STA     LEX_SYMBOL+8

  15652 17 003727   040000 100400                    MLR     fill='040'O
        17 003730   000275 000005 16                 ADSC9   189                      cn=0,n=5
        17 003731   000011 000504 6                  ADSC9   LEX_SYMBOL+9             cn=0,n=324

  15653 17 003732   000000 631400 18                 EPPR1   0
        17 003733   000000 701000 xent               TSX1    Z8AH$SEARCH_
        17 003734   000000 011000                    NOP     0

  15654 17 003735   000000 470400 2                  LDP0    DNT$
        17 003736   400000 236003                    LDQ     -131072,DU
        17 003737   000003 256100                    ORSQ    3,,PR0

  15655 17 003740   000001 236000 18                 LDQ     1
PL6.E3A0      #001=COBOLRW File=COBOLRW.:Z8A6TSI                                 SAT 08/09/97 09:25 Page:130
        17 003741   000003 356100                    ANSQ    3,,PR0

  15656 17 003742   000002 236000 18                 LDQ     2
        17 003743   000003 356100                    ANSQ    3,,PR0

  15657 17 003744   000003 236000 18                 LDQ     3
        17 003745   000003 356100                    ANSQ    3,,PR0

  15658 17 003746   000004 236000 18                 LDQ     4
        17 003747   000003 356100                    ANSQ    3,,PR0

  15659 17 003750   000132 220003                    LDX0    90,DU
        17 003751   000003 440100                    SXL0    3,,PR0

      250    15661        %NEWRSW;
      251    15664        %SEARCH (RWD='COMMON',                 RWNO=%RSV_WRD_COMMON);

  15668 17 003752   002731 054000 1                  AOS     NUMBER_OF_RESERVED_WORDS

  15669 17 003753   000006 235007                    LDA     6,DL
        17 003754   000010 755000 6                  STA     LEX_SYMBOL+8

  15670 17 003755   040000 100400                    MLR     fill='040'O
        17 003756   000277 000006 16                 ADSC9   191                      cn=0,n=6
        17 003757   000011 000504 6                  ADSC9   LEX_SYMBOL+9             cn=0,n=324

  15671 17 003760   000000 631400 18                 EPPR1   0
        17 003761   000000 701000 xent               TSX1    Z8AH$SEARCH_
        17 003762   000000 011000                    NOP     0

  15672 17 003763   000000 470400 2                  LDP0    DNT$
        17 003764   400000 236003                    LDQ     -131072,DU
        17 003765   000003 256100                    ORSQ    3,,PR0

  15673 17 003766   000001 236000 18                 LDQ     1
        17 003767   000003 356100                    ANSQ    3,,PR0

PL6.E3A0      #001=COBOLRW File=COBOLRW.:Z8A6TSI                                 SAT 08/09/97 09:25 Page:131
  15674 17 003770   000002 236000 18                 LDQ     2
        17 003771   000003 356100                    ANSQ    3,,PR0

  15675 17 003772   000003 236000 18                 LDQ     3
        17 003773   000003 356100                    ANSQ    3,,PR0

  15676 17 003774   000004 236000 18                 LDQ     4
        17 003775   000003 356100                    ANSQ    3,,PR0

  15677 17 003776   000133 220003                    LDX0    91,DU
        17 003777   000003 440100                    SXL0    3,,PR0

      252    15679        %NEWRSW;
      253    15682        %SEARCH (RWD='COMMUNICATION',         RWNO=%RSV_WRD_COMMUNICATION, MUST_AREAA=TRUE)
             15682            ;

  15686 17 004000   002731 054000 1                  AOS     NUMBER_OF_RESERVED_WORDS

  15687 17 004001   000015 235007                    LDA     13,DL
        17 004002   000010 755000 6                  STA     LEX_SYMBOL+8

  15688 17 004003   040000 100400                    MLR     fill='040'O
        17 004004   000301 000015 16                 ADSC9   193                      cn=0,n=13
        17 004005   000011 000504 6                  ADSC9   LEX_SYMBOL+9             cn=0,n=324

  15689 17 004006   000000 631400 18                 EPPR1   0
        17 004007   000000 701000 xent               TSX1    Z8AH$SEARCH_
        17 004010   000000 011000                    NOP     0

  15690 17 004011   000000 470400 2                  LDP0    DNT$
        17 004012   400000 236003                    LDQ     -131072,DU
        17 004013   000003 256100                    ORSQ    3,,PR0

  15691 17 004014   000001 236000 18                 LDQ     1
        17 004015   000003 356100                    ANSQ    3,,PR0

  15692 17 004016   000002 236000 18                 LDQ     2
PL6.E3A0      #001=COBOLRW File=COBOLRW.:Z8A6TSI                                 SAT 08/09/97 09:25 Page:132
        17 004017   000003 356100                    ANSQ    3,,PR0

  15693 17 004020   000040 236003                    LDQ     32,DU
        17 004021   000003 256100                    ORSQ    3,,PR0

  15694 17 004022   000004 236000 18                 LDQ     4
        17 004023   000003 356100                    ANSQ    3,,PR0

  15695 17 004024   000134 220003                    LDX0    92,DU
        17 004025   000003 440100                    SXL0    3,,PR0

      254    15697        %NEWRSW;
      255    15700        %SEARCH (RWD='COMP',                   RWNO=%RSV_WRD_COMP);

  15704 17 004026   002731 054000 1                  AOS     NUMBER_OF_RESERVED_WORDS

  15705 17 004027   000004 235007                    LDA     4,DL
        17 004030   000010 755000 6                  STA     LEX_SYMBOL+8

  15706 17 004031   040000 100400                    MLR     fill='040'O
        17 004032   000305 000004 16                 ADSC9   197                      cn=0,n=4
        17 004033   000011 000504 6                  ADSC9   LEX_SYMBOL+9             cn=0,n=324

  15707 17 004034   000000 631400 18                 EPPR1   0
        17 004035   000000 701000 xent               TSX1    Z8AH$SEARCH_
        17 004036   000000 011000                    NOP     0

  15708 17 004037   000000 470400 2                  LDP0    DNT$
        17 004040   400000 236003                    LDQ     -131072,DU
        17 004041   000003 256100                    ORSQ    3,,PR0

  15709 17 004042   000001 236000 18                 LDQ     1
        17 004043   000003 356100                    ANSQ    3,,PR0

  15710 17 004044   000002 236000 18                 LDQ     2
        17 004045   000003 356100                    ANSQ    3,,PR0

PL6.E3A0      #001=COBOLRW File=COBOLRW.:Z8A6TSI                                 SAT 08/09/97 09:25 Page:133
  15711 17 004046   000003 236000 18                 LDQ     3
        17 004047   000003 356100                    ANSQ    3,,PR0

  15712 17 004050   000004 236000 18                 LDQ     4
        17 004051   000003 356100                    ANSQ    3,,PR0

  15713 17 004052   000135 220003                    LDX0    93,DU
        17 004053   000003 440100                    SXL0    3,,PR0

      256    15715        %SEARCH (RWD='COMPUTATIONAL',          RWNO=%RSV_WRD_COMP);

  15719 17 004054   002731 054000 1                  AOS     NUMBER_OF_RESERVED_WORDS

  15720 17 004055   000015 235007                    LDA     13,DL
        17 004056   000010 755000 6                  STA     LEX_SYMBOL+8

  15721 17 004057   040000 100400                    MLR     fill='040'O
        17 004060   000306 000015 16                 ADSC9   198                      cn=0,n=13
        17 004061   000011 000504 6                  ADSC9   LEX_SYMBOL+9             cn=0,n=324

  15722 17 004062   000000 631400 18                 EPPR1   0
        17 004063   000000 701000 xent               TSX1    Z8AH$SEARCH_
        17 004064   000000 011000                    NOP     0

  15723 17 004065   000000 470400 2                  LDP0    DNT$
        17 004066   400000 236003                    LDQ     -131072,DU
        17 004067   000003 256100                    ORSQ    3,,PR0

  15724 17 004070   000001 236000 18                 LDQ     1
        17 004071   000003 356100                    ANSQ    3,,PR0

  15725 17 004072   000002 236000 18                 LDQ     2
        17 004073   000003 356100                    ANSQ    3,,PR0

  15726 17 004074   000003 236000 18                 LDQ     3
        17 004075   000003 356100                    ANSQ    3,,PR0

PL6.E3A0      #001=COBOLRW File=COBOLRW.:Z8A6TSI                                 SAT 08/09/97 09:25 Page:134
  15727 17 004076   000004 236000 18                 LDQ     4
        17 004077   000003 356100                    ANSQ    3,,PR0

  15728 17 004100   000135 220003                    LDX0    93,DU
        17 004101   000003 440100                    SXL0    3,,PR0

      257    15730        %SEARCH (RWD='PACKED-DECIMAL',         RWNO=%RSV_WRD_COMP);

  15734 17 004102   002731 054000 1                  AOS     NUMBER_OF_RESERVED_WORDS

  15735 17 004103   000016 235007                    LDA     14,DL
        17 004104   000010 755000 6                  STA     LEX_SYMBOL+8

  15736 17 004105   040000 100400                    MLR     fill='040'O
        17 004106   000312 000016 16                 ADSC9   202                      cn=0,n=14
        17 004107   000011 000504 6                  ADSC9   LEX_SYMBOL+9             cn=0,n=324

  15737 17 004110   000000 631400 18                 EPPR1   0
        17 004111   000000 701000 xent               TSX1    Z8AH$SEARCH_
        17 004112   000000 011000                    NOP     0

  15738 17 004113   000000 470400 2                  LDP0    DNT$
        17 004114   400000 236003                    LDQ     -131072,DU
        17 004115   000003 256100                    ORSQ    3,,PR0

  15739 17 004116   000001 236000 18                 LDQ     1
        17 004117   000003 356100                    ANSQ    3,,PR0

  15740 17 004120   000002 236000 18                 LDQ     2
        17 004121   000003 356100                    ANSQ    3,,PR0

  15741 17 004122   000003 236000 18                 LDQ     3
        17 004123   000003 356100                    ANSQ    3,,PR0

  15742 17 004124   000004 236000 18                 LDQ     4
        17 004125   000003 356100                    ANSQ    3,,PR0

PL6.E3A0      #001=COBOLRW File=COBOLRW.:Z8A6TSI                                 SAT 08/09/97 09:25 Page:135
  15743 17 004126   000135 220003                    LDX0    93,DU
        17 004127   000003 440100                    SXL0    3,,PR0

      258    15745        %NEWRSW;
      259    15748        %SEARCH (RWD='COMP-1',                 RWNO=%RSV_WRD_COMP_1);

  15752 17 004130   002731 054000 1                  AOS     NUMBER_OF_RESERVED_WORDS

  15753 17 004131   000006 235007                    LDA     6,DL
        17 004132   000010 755000 6                  STA     LEX_SYMBOL+8

  15754 17 004133   040000 100400                    MLR     fill='040'O
        17 004134   000316 000006 16                 ADSC9   206                      cn=0,n=6
        17 004135   000011 000504 6                  ADSC9   LEX_SYMBOL+9             cn=0,n=324

  15755 17 004136   000000 631400 18                 EPPR1   0
        17 004137   000000 701000 xent               TSX1    Z8AH$SEARCH_
        17 004140   000000 011000                    NOP     0

  15756 17 004141   000000 470400 2                  LDP0    DNT$
        17 004142   400000 236003                    LDQ     -131072,DU
        17 004143   000003 256100                    ORSQ    3,,PR0

  15757 17 004144   000001 236000 18                 LDQ     1
        17 004145   000003 356100                    ANSQ    3,,PR0

  15758 17 004146   000002 236000 18                 LDQ     2
        17 004147   000003 356100                    ANSQ    3,,PR0

  15759 17 004150   000003 236000 18                 LDQ     3
        17 004151   000003 356100                    ANSQ    3,,PR0

  15760 17 004152   000004 236000 18                 LDQ     4
        17 004153   000003 356100                    ANSQ    3,,PR0

  15761 17 004154   000136 220003                    LDX0    94,DU
        17 004155   000003 440100                    SXL0    3,,PR0
PL6.E3A0      #001=COBOLRW File=COBOLRW.:Z8A6TSI                                 SAT 08/09/97 09:25 Page:136

      260    15763        %SEARCH (RWD='COMPUTATIONAL-1',        RWNO=%RSV_WRD_COMP_1);

  15767 17 004156   002731 054000 1                  AOS     NUMBER_OF_RESERVED_WORDS

  15768 17 004157   000017 235007                    LDA     15,DL
        17 004160   000010 755000 6                  STA     LEX_SYMBOL+8

  15769 17 004161   040000 100400                    MLR     fill='040'O
        17 004162   000320 000017 16                 ADSC9   208                      cn=0,n=15
        17 004163   000011 000504 6                  ADSC9   LEX_SYMBOL+9             cn=0,n=324

  15770 17 004164   000000 631400 18                 EPPR1   0
        17 004165   000000 701000 xent               TSX1    Z8AH$SEARCH_
        17 004166   000000 011000                    NOP     0

  15771 17 004167   000000 470400 2                  LDP0    DNT$
        17 004170   400000 236003                    LDQ     -131072,DU
        17 004171   000003 256100                    ORSQ    3,,PR0

  15772 17 004172   000001 236000 18                 LDQ     1
        17 004173   000003 356100                    ANSQ    3,,PR0

  15773 17 004174   000002 236000 18                 LDQ     2
        17 004175   000003 356100                    ANSQ    3,,PR0

  15774 17 004176   000003 236000 18                 LDQ     3
        17 004177   000003 356100                    ANSQ    3,,PR0

  15775 17 004200   000004 236000 18                 LDQ     4
        17 004201   000003 356100                    ANSQ    3,,PR0

  15776 17 004202   000136 220003                    LDX0    94,DU
        17 004203   000003 440100                    SXL0    3,,PR0

      261    15778        %NEWRSW;
      262    15781        %SEARCH (RWD='COMP-11',                RWNO=%RSV_WRD_COMP_11);
PL6.E3A0      #001=COBOLRW File=COBOLRW.:Z8A6TSI                                 SAT 08/09/97 09:25 Page:137

  15785 17 004204   002731 054000 1                  AOS     NUMBER_OF_RESERVED_WORDS

  15786 17 004205   000007 235007                    LDA     7,DL
        17 004206   000010 755000 6                  STA     LEX_SYMBOL+8

  15787 17 004207   040000 100400                    MLR     fill='040'O
        17 004210   000324 000007 16                 ADSC9   212                      cn=0,n=7
        17 004211   000011 000504 6                  ADSC9   LEX_SYMBOL+9             cn=0,n=324

  15788 17 004212   000000 631400 18                 EPPR1   0
        17 004213   000000 701000 xent               TSX1    Z8AH$SEARCH_
        17 004214   000000 011000                    NOP     0

  15789 17 004215   000000 470400 2                  LDP0    DNT$
        17 004216   400000 236003                    LDQ     -131072,DU
        17 004217   000003 256100                    ORSQ    3,,PR0

  15790 17 004220   000001 236000 18                 LDQ     1
        17 004221   000003 356100                    ANSQ    3,,PR0

  15791 17 004222   000002 236000 18                 LDQ     2
        17 004223   000003 356100                    ANSQ    3,,PR0

  15792 17 004224   000003 236000 18                 LDQ     3
        17 004225   000003 356100                    ANSQ    3,,PR0

  15793 17 004226   000004 236000 18                 LDQ     4
        17 004227   000003 356100                    ANSQ    3,,PR0

  15794 17 004230   000137 220003                    LDX0    95,DU
        17 004231   000003 440100                    SXL0    3,,PR0

      263    15796        %SEARCH (RWD='COMPUTATIONAL-11',       RWNO=%RSV_WRD_COMP_11);

  15800 17 004232   002731 054000 1                  AOS     NUMBER_OF_RESERVED_WORDS

PL6.E3A0      #001=COBOLRW File=COBOLRW.:Z8A6TSI                                 SAT 08/09/97 09:25 Page:138
  15801 17 004233   000020 235007                    LDA     16,DL
        17 004234   000010 755000 6                  STA     LEX_SYMBOL+8

  15802 17 004235   040000 100400                    MLR     fill='040'O
        17 004236   000326 000020 16                 ADSC9   214                      cn=0,n=16
        17 004237   000011 000504 6                  ADSC9   LEX_SYMBOL+9             cn=0,n=324

  15803 17 004240   000000 631400 18                 EPPR1   0
        17 004241   000000 701000 xent               TSX1    Z8AH$SEARCH_
        17 004242   000000 011000                    NOP     0

  15804 17 004243   000000 470400 2                  LDP0    DNT$
        17 004244   400000 236003                    LDQ     -131072,DU
        17 004245   000003 256100                    ORSQ    3,,PR0

  15805 17 004246   000001 236000 18                 LDQ     1
        17 004247   000003 356100                    ANSQ    3,,PR0

  15806 17 004250   000002 236000 18                 LDQ     2
        17 004251   000003 356100                    ANSQ    3,,PR0

  15807 17 004252   000003 236000 18                 LDQ     3
        17 004253   000003 356100                    ANSQ    3,,PR0

  15808 17 004254   000004 236000 18                 LDQ     4
        17 004255   000003 356100                    ANSQ    3,,PR0

  15809 17 004256   000137 220003                    LDX0    95,DU
        17 004257   000003 440100                    SXL0    3,,PR0

      264    15811        %NEWRSW;
      265    15814        %SEARCH (RWD='COMP-12',                RWNO=%RSV_WRD_COMP_12);

  15818 17 004260   002731 054000 1                  AOS     NUMBER_OF_RESERVED_WORDS

  15819 17 004261   000007 235007                    LDA     7,DL
        17 004262   000010 755000 6                  STA     LEX_SYMBOL+8
PL6.E3A0      #001=COBOLRW File=COBOLRW.:Z8A6TSI                                 SAT 08/09/97 09:25 Page:139

  15820 17 004263   040000 100400                    MLR     fill='040'O
        17 004264   000332 000007 16                 ADSC9   218                      cn=0,n=7
        17 004265   000011 000504 6                  ADSC9   LEX_SYMBOL+9             cn=0,n=324

  15821 17 004266   000000 631400 18                 EPPR1   0
        17 004267   000000 701000 xent               TSX1    Z8AH$SEARCH_
        17 004270   000000 011000                    NOP     0

  15822 17 004271   000000 470400 2                  LDP0    DNT$
        17 004272   400000 236003                    LDQ     -131072,DU
        17 004273   000003 256100                    ORSQ    3,,PR0

  15823 17 004274   000001 236000 18                 LDQ     1
        17 004275   000003 356100                    ANSQ    3,,PR0

  15824 17 004276   000002 236000 18                 LDQ     2
        17 004277   000003 356100                    ANSQ    3,,PR0

  15825 17 004300   000003 236000 18                 LDQ     3
        17 004301   000003 356100                    ANSQ    3,,PR0

  15826 17 004302   000004 236000 18                 LDQ     4
        17 004303   000003 356100                    ANSQ    3,,PR0

  15827 17 004304   000140 220003                    LDX0    96,DU
        17 004305   000003 440100                    SXL0    3,,PR0

      266    15829        %SEARCH (RWD='COMPUTATIONAL-12',       RWNO=%RSV_WRD_COMP_12);

  15833 17 004306   002731 054000 1                  AOS     NUMBER_OF_RESERVED_WORDS

  15834 17 004307   000020 235007                    LDA     16,DL
        17 004310   000010 755000 6                  STA     LEX_SYMBOL+8

  15835 17 004311   040000 100400                    MLR     fill='040'O
        17 004312   000334 000020 16                 ADSC9   220                      cn=0,n=16
PL6.E3A0      #001=COBOLRW File=COBOLRW.:Z8A6TSI                                 SAT 08/09/97 09:25 Page:140
        17 004313   000011 000504 6                  ADSC9   LEX_SYMBOL+9             cn=0,n=324

  15836 17 004314   000000 631400 18                 EPPR1   0
        17 004315   000000 701000 xent               TSX1    Z8AH$SEARCH_
        17 004316   000000 011000                    NOP     0

  15837 17 004317   000000 470400 2                  LDP0    DNT$
        17 004320   400000 236003                    LDQ     -131072,DU
        17 004321   000003 256100                    ORSQ    3,,PR0

  15838 17 004322   000001 236000 18                 LDQ     1
        17 004323   000003 356100                    ANSQ    3,,PR0

  15839 17 004324   000002 236000 18                 LDQ     2
        17 004325   000003 356100                    ANSQ    3,,PR0

  15840 17 004326   000003 236000 18                 LDQ     3
        17 004327   000003 356100                    ANSQ    3,,PR0

  15841 17 004330   000004 236000 18                 LDQ     4
        17 004331   000003 356100                    ANSQ    3,,PR0

  15842 17 004332   000140 220003                    LDX0    96,DU
        17 004333   000003 440100                    SXL0    3,,PR0

      267    15844        %NEWRSW;
      268    15847        %SEARCH (RWD='COMP-13',                RWNO=%RSV_WRD_COMP_13);

  15851 17 004334   002731 054000 1                  AOS     NUMBER_OF_RESERVED_WORDS

  15852 17 004335   000007 235007                    LDA     7,DL
        17 004336   000010 755000 6                  STA     LEX_SYMBOL+8

  15853 17 004337   040000 100400                    MLR     fill='040'O
        17 004340   000340 000007 16                 ADSC9   224                      cn=0,n=7
        17 004341   000011 000504 6                  ADSC9   LEX_SYMBOL+9             cn=0,n=324

PL6.E3A0      #001=COBOLRW File=COBOLRW.:Z8A6TSI                                 SAT 08/09/97 09:25 Page:141
  15854 17 004342   000000 631400 18                 EPPR1   0
        17 004343   000000 701000 xent               TSX1    Z8AH$SEARCH_
        17 004344   000000 011000                    NOP     0

  15855 17 004345   000000 470400 2                  LDP0    DNT$
        17 004346   400000 236003                    LDQ     -131072,DU
        17 004347   000003 256100                    ORSQ    3,,PR0

  15856 17 004350   000001 236000 18                 LDQ     1
        17 004351   000003 356100                    ANSQ    3,,PR0

  15857 17 004352   000002 236000 18                 LDQ     2
        17 004353   000003 356100                    ANSQ    3,,PR0

  15858 17 004354   000003 236000 18                 LDQ     3
        17 004355   000003 356100                    ANSQ    3,,PR0

  15859 17 004356   000004 236000 18                 LDQ     4
        17 004357   000003 356100                    ANSQ    3,,PR0

  15860 17 004360   000141 220003                    LDX0    97,DU
        17 004361   000003 440100                    SXL0    3,,PR0

      269    15862        %SEARCH (RWD='COMPUTATIONAL-13',       RWNO=%RSV_WRD_COMP_13);

  15866 17 004362   002731 054000 1                  AOS     NUMBER_OF_RESERVED_WORDS

  15867 17 004363   000020 235007                    LDA     16,DL
        17 004364   000010 755000 6                  STA     LEX_SYMBOL+8

  15868 17 004365   040000 100400                    MLR     fill='040'O
        17 004366   000342 000020 16                 ADSC9   226                      cn=0,n=16
        17 004367   000011 000504 6                  ADSC9   LEX_SYMBOL+9             cn=0,n=324

  15869 17 004370   000000 631400 18                 EPPR1   0
        17 004371   000000 701000 xent               TSX1    Z8AH$SEARCH_
        17 004372   000000 011000                    NOP     0
PL6.E3A0      #001=COBOLRW File=COBOLRW.:Z8A6TSI                                 SAT 08/09/97 09:25 Page:142

  15870 17 004373   000000 470400 2                  LDP0    DNT$
        17 004374   400000 236003                    LDQ     -131072,DU
        17 004375   000003 256100                    ORSQ    3,,PR0

  15871 17 004376   000001 236000 18                 LDQ     1
        17 004377   000003 356100                    ANSQ    3,,PR0

  15872 17 004400   000002 236000 18                 LDQ     2
        17 004401   000003 356100                    ANSQ    3,,PR0

  15873 17 004402   000003 236000 18                 LDQ     3
        17 004403   000003 356100                    ANSQ    3,,PR0

  15874 17 004404   000004 236000 18                 LDQ     4
        17 004405   000003 356100                    ANSQ    3,,PR0

  15875 17 004406   000141 220003                    LDX0    97,DU
        17 004407   000003 440100                    SXL0    3,,PR0

      270    15877        %NEWRSW;
      271    15880        %SEARCH (RWD='COMP-14',                RWNO=%RSV_WRD_COMP_14);

  15884 17 004410   002731 054000 1                  AOS     NUMBER_OF_RESERVED_WORDS

  15885 17 004411   000007 235007                    LDA     7,DL
        17 004412   000010 755000 6                  STA     LEX_SYMBOL+8

  15886 17 004413   040000 100400                    MLR     fill='040'O
        17 004414   000346 000007 16                 ADSC9   230                      cn=0,n=7
        17 004415   000011 000504 6                  ADSC9   LEX_SYMBOL+9             cn=0,n=324

  15887 17 004416   000000 631400 18                 EPPR1   0
        17 004417   000000 701000 xent               TSX1    Z8AH$SEARCH_
        17 004420   000000 011000                    NOP     0

  15888 17 004421   000000 470400 2                  LDP0    DNT$
PL6.E3A0      #001=COBOLRW File=COBOLRW.:Z8A6TSI                                 SAT 08/09/97 09:25 Page:143
        17 004422   400000 236003                    LDQ     -131072,DU
        17 004423   000003 256100                    ORSQ    3,,PR0

  15889 17 004424   000001 236000 18                 LDQ     1
        17 004425   000003 356100                    ANSQ    3,,PR0

  15890 17 004426   000002 236000 18                 LDQ     2
        17 004427   000003 356100                    ANSQ    3,,PR0

  15891 17 004430   000003 236000 18                 LDQ     3
        17 004431   000003 356100                    ANSQ    3,,PR0

  15892 17 004432   000004 236000 18                 LDQ     4
        17 004433   000003 356100                    ANSQ    3,,PR0

  15893 17 004434   000142 220003                    LDX0    98,DU
        17 004435   000003 440100                    SXL0    3,,PR0

      272    15895        %SEARCH (RWD='COMPUTATIONAL-14',       RWNO=%RSV_WRD_COMP_14);

  15899 17 004436   002731 054000 1                  AOS     NUMBER_OF_RESERVED_WORDS

  15900 17 004437   000020 235007                    LDA     16,DL
        17 004440   000010 755000 6                  STA     LEX_SYMBOL+8

  15901 17 004441   040000 100400                    MLR     fill='040'O
        17 004442   000350 000020 16                 ADSC9   232                      cn=0,n=16
        17 004443   000011 000504 6                  ADSC9   LEX_SYMBOL+9             cn=0,n=324

  15902 17 004444   000000 631400 18                 EPPR1   0
        17 004445   000000 701000 xent               TSX1    Z8AH$SEARCH_
        17 004446   000000 011000                    NOP     0

  15903 17 004447   000000 470400 2                  LDP0    DNT$
        17 004450   400000 236003                    LDQ     -131072,DU
        17 004451   000003 256100                    ORSQ    3,,PR0

PL6.E3A0      #001=COBOLRW File=COBOLRW.:Z8A6TSI                                 SAT 08/09/97 09:25 Page:144
  15904 17 004452   000001 236000 18                 LDQ     1
        17 004453   000003 356100                    ANSQ    3,,PR0

  15905 17 004454   000002 236000 18                 LDQ     2
        17 004455   000003 356100                    ANSQ    3,,PR0

  15906 17 004456   000003 236000 18                 LDQ     3
        17 004457   000003 356100                    ANSQ    3,,PR0

  15907 17 004460   000004 236000 18                 LDQ     4
        17 004461   000003 356100                    ANSQ    3,,PR0

  15908 17 004462   000142 220003                    LDX0    98,DU
        17 004463   000003 440100                    SXL0    3,,PR0

      273    15910        %NEWRSW;
      274    15913        %SEARCH (RWD='COMP-2',                 RWNO=%RSV_WRD_COMP_2);

  15917 17 004464   002731 054000 1                  AOS     NUMBER_OF_RESERVED_WORDS

  15918 17 004465   000006 235007                    LDA     6,DL
        17 004466   000010 755000 6                  STA     LEX_SYMBOL+8

  15919 17 004467   040000 100400                    MLR     fill='040'O
        17 004470   000354 000006 16                 ADSC9   236                      cn=0,n=6
        17 004471   000011 000504 6                  ADSC9   LEX_SYMBOL+9             cn=0,n=324

  15920 17 004472   000000 631400 18                 EPPR1   0
        17 004473   000000 701000 xent               TSX1    Z8AH$SEARCH_
        17 004474   000000 011000                    NOP     0

  15921 17 004475   000000 470400 2                  LDP0    DNT$
        17 004476   400000 236003                    LDQ     -131072,DU
        17 004477   000003 256100                    ORSQ    3,,PR0

  15922 17 004500   000001 236000 18                 LDQ     1
        17 004501   000003 356100                    ANSQ    3,,PR0
PL6.E3A0      #001=COBOLRW File=COBOLRW.:Z8A6TSI                                 SAT 08/09/97 09:25 Page:145

  15923 17 004502   000002 236000 18                 LDQ     2
        17 004503   000003 356100                    ANSQ    3,,PR0

  15924 17 004504   000003 236000 18                 LDQ     3
        17 004505   000003 356100                    ANSQ    3,,PR0

  15925 17 004506   000004 236000 18                 LDQ     4
        17 004507   000003 356100                    ANSQ    3,,PR0

  15926 17 004510   000143 220003                    LDX0    99,DU
        17 004511   000003 440100                    SXL0    3,,PR0

      275    15928        %SEARCH (RWD='COMPUTATIONAL-2',        RWNO=%RSV_WRD_COMP_2);

  15932 17 004512   002731 054000 1                  AOS     NUMBER_OF_RESERVED_WORDS

  15933 17 004513   000017 235007                    LDA     15,DL
        17 004514   000010 755000 6                  STA     LEX_SYMBOL+8

  15934 17 004515   040000 100400                    MLR     fill='040'O
        17 004516   000356 000017 16                 ADSC9   238                      cn=0,n=15
        17 004517   000011 000504 6                  ADSC9   LEX_SYMBOL+9             cn=0,n=324

  15935 17 004520   000000 631400 18                 EPPR1   0
        17 004521   000000 701000 xent               TSX1    Z8AH$SEARCH_
        17 004522   000000 011000                    NOP     0

  15936 17 004523   000000 470400 2                  LDP0    DNT$
        17 004524   400000 236003                    LDQ     -131072,DU
        17 004525   000003 256100                    ORSQ    3,,PR0

  15937 17 004526   000001 236000 18                 LDQ     1
        17 004527   000003 356100                    ANSQ    3,,PR0

  15938 17 004530   000002 236000 18                 LDQ     2
        17 004531   000003 356100                    ANSQ    3,,PR0
PL6.E3A0      #001=COBOLRW File=COBOLRW.:Z8A6TSI                                 SAT 08/09/97 09:25 Page:146

  15939 17 004532   000003 236000 18                 LDQ     3
        17 004533   000003 356100                    ANSQ    3,,PR0

  15940 17 004534   000004 236000 18                 LDQ     4
        17 004535   000003 356100                    ANSQ    3,,PR0

  15941 17 004536   000143 220003                    LDX0    99,DU
        17 004537   000003 440100                    SXL0    3,,PR0

      276    15943        %NEWRSW;
      277    15946        %SEARCH (RWD='COMP-3',                 RWNO=%RSV_WRD_COMP_3);

  15950 17 004540   002731 054000 1                  AOS     NUMBER_OF_RESERVED_WORDS

  15951 17 004541   000006 235007                    LDA     6,DL
        17 004542   000010 755000 6                  STA     LEX_SYMBOL+8

  15952 17 004543   040000 100400                    MLR     fill='040'O
        17 004544   000362 000006 16                 ADSC9   242                      cn=0,n=6
        17 004545   000011 000504 6                  ADSC9   LEX_SYMBOL+9             cn=0,n=324

  15953 17 004546   000000 631400 18                 EPPR1   0
        17 004547   000000 701000 xent               TSX1    Z8AH$SEARCH_
        17 004550   000000 011000                    NOP     0

  15954 17 004551   000000 470400 2                  LDP0    DNT$
        17 004552   400000 236003                    LDQ     -131072,DU
        17 004553   000003 256100                    ORSQ    3,,PR0

  15955 17 004554   000001 236000 18                 LDQ     1
        17 004555   000003 356100                    ANSQ    3,,PR0

  15956 17 004556   000002 236000 18                 LDQ     2
        17 004557   000003 356100                    ANSQ    3,,PR0

  15957 17 004560   000003 236000 18                 LDQ     3
PL6.E3A0      #001=COBOLRW File=COBOLRW.:Z8A6TSI                                 SAT 08/09/97 09:25 Page:147
        17 004561   000003 356100                    ANSQ    3,,PR0

  15958 17 004562   000004 236000 18                 LDQ     4
        17 004563   000003 356100                    ANSQ    3,,PR0

  15959 17 004564   000144 220003                    LDX0    100,DU
        17 004565   000003 440100                    SXL0    3,,PR0

      278    15961        %SEARCH (RWD='COMPUTATIONAL-3',        RWNO=%RSV_WRD_COMP_3);

  15965 17 004566   002731 054000 1                  AOS     NUMBER_OF_RESERVED_WORDS

  15966 17 004567   000017 235007                    LDA     15,DL
        17 004570   000010 755000 6                  STA     LEX_SYMBOL+8

  15967 17 004571   040000 100400                    MLR     fill='040'O
        17 004572   000364 000017 16                 ADSC9   244                      cn=0,n=15
        17 004573   000011 000504 6                  ADSC9   LEX_SYMBOL+9             cn=0,n=324

  15968 17 004574   000000 631400 18                 EPPR1   0
        17 004575   000000 701000 xent               TSX1    Z8AH$SEARCH_
        17 004576   000000 011000                    NOP     0

  15969 17 004577   000000 470400 2                  LDP0    DNT$
        17 004600   400000 236003                    LDQ     -131072,DU
        17 004601   000003 256100                    ORSQ    3,,PR0

  15970 17 004602   000001 236000 18                 LDQ     1
        17 004603   000003 356100                    ANSQ    3,,PR0

  15971 17 004604   000002 236000 18                 LDQ     2
        17 004605   000003 356100                    ANSQ    3,,PR0

  15972 17 004606   000003 236000 18                 LDQ     3
        17 004607   000003 356100                    ANSQ    3,,PR0

  15973 17 004610   000004 236000 18                 LDQ     4
PL6.E3A0      #001=COBOLRW File=COBOLRW.:Z8A6TSI                                 SAT 08/09/97 09:25 Page:148
        17 004611   000003 356100                    ANSQ    3,,PR0

  15974 17 004612   000144 220003                    LDX0    100,DU
        17 004613   000003 440100                    SXL0    3,,PR0

      279    15976        %NEWRSW;
      280    15979        %SEARCH (RWD='COMP-4',                 RWNO=%RSV_WRD_COMP_4);

  15983 17 004614   002731 054000 1                  AOS     NUMBER_OF_RESERVED_WORDS

  15984 17 004615   000006 235007                    LDA     6,DL
        17 004616   000010 755000 6                  STA     LEX_SYMBOL+8

  15985 17 004617   040000 100400                    MLR     fill='040'O
        17 004620   000370 000006 16                 ADSC9   248                      cn=0,n=6
        17 004621   000011 000504 6                  ADSC9   LEX_SYMBOL+9             cn=0,n=324

  15986 17 004622   000000 631400 18                 EPPR1   0
        17 004623   000000 701000 xent               TSX1    Z8AH$SEARCH_
        17 004624   000000 011000                    NOP     0

  15987 17 004625   000000 470400 2                  LDP0    DNT$
        17 004626   400000 236003                    LDQ     -131072,DU
        17 004627   000003 256100                    ORSQ    3,,PR0

  15988 17 004630   000001 236000 18                 LDQ     1
        17 004631   000003 356100                    ANSQ    3,,PR0

  15989 17 004632   000002 236000 18                 LDQ     2
        17 004633   000003 356100                    ANSQ    3,,PR0

  15990 17 004634   000003 236000 18                 LDQ     3
        17 004635   000003 356100                    ANSQ    3,,PR0

  15991 17 004636   000004 236000 18                 LDQ     4
        17 004637   000003 356100                    ANSQ    3,,PR0

PL6.E3A0      #001=COBOLRW File=COBOLRW.:Z8A6TSI                                 SAT 08/09/97 09:25 Page:149
  15992 17 004640   000145 220003                    LDX0    101,DU
        17 004641   000003 440100                    SXL0    3,,PR0

      281    15994        %SEARCH (RWD='COMPUTATIONAL-4',        RWNO=%RSV_WRD_COMP_4);

  15998 17 004642   002731 054000 1                  AOS     NUMBER_OF_RESERVED_WORDS

  15999 17 004643   000017 235007                    LDA     15,DL
        17 004644   000010 755000 6                  STA     LEX_SYMBOL+8

  16000 17 004645   040000 100400                    MLR     fill='040'O
        17 004646   000372 000017 16                 ADSC9   250                      cn=0,n=15
        17 004647   000011 000504 6                  ADSC9   LEX_SYMBOL+9             cn=0,n=324

  16001 17 004650   000000 631400 18                 EPPR1   0
        17 004651   000000 701000 xent               TSX1    Z8AH$SEARCH_
        17 004652   000000 011000                    NOP     0

  16002 17 004653   000000 470400 2                  LDP0    DNT$
        17 004654   400000 236003                    LDQ     -131072,DU
        17 004655   000003 256100                    ORSQ    3,,PR0

  16003 17 004656   000001 236000 18                 LDQ     1
        17 004657   000003 356100                    ANSQ    3,,PR0

  16004 17 004660   000002 236000 18                 LDQ     2
        17 004661   000003 356100                    ANSQ    3,,PR0

  16005 17 004662   000003 236000 18                 LDQ     3
        17 004663   000003 356100                    ANSQ    3,,PR0

  16006 17 004664   000004 236000 18                 LDQ     4
        17 004665   000003 356100                    ANSQ    3,,PR0

  16007 17 004666   000145 220003                    LDX0    101,DU
        17 004667   000003 440100                    SXL0    3,,PR0

PL6.E3A0      #001=COBOLRW File=COBOLRW.:Z8A6TSI                                 SAT 08/09/97 09:25 Page:150
      282    16009        %NEWRSW;
      283    16012        %SEARCH (RWD='COMP-5',                 RWNO=%RSV_WRD_COMP_5);

  16016 17 004670   002731 054000 1                  AOS     NUMBER_OF_RESERVED_WORDS

  16017 17 004671   000006 235007                    LDA     6,DL
        17 004672   000010 755000 6                  STA     LEX_SYMBOL+8

  16018 17 004673   040000 100400                    MLR     fill='040'O
        17 004674   000376 000006 16                 ADSC9   254                      cn=0,n=6
        17 004675   000011 000504 6                  ADSC9   LEX_SYMBOL+9             cn=0,n=324

  16019 17 004676   000000 631400 18                 EPPR1   0
        17 004677   000000 701000 xent               TSX1    Z8AH$SEARCH_
        17 004700   000000 011000                    NOP     0

  16020 17 004701   000000 470400 2                  LDP0    DNT$
        17 004702   400000 236003                    LDQ     -131072,DU
        17 004703   000003 256100                    ORSQ    3,,PR0

  16021 17 004704   000001 236000 18                 LDQ     1
        17 004705   000003 356100                    ANSQ    3,,PR0

  16022 17 004706   000002 236000 18                 LDQ     2
        17 004707   000003 356100                    ANSQ    3,,PR0

  16023 17 004710   000003 236000 18                 LDQ     3
        17 004711   000003 356100                    ANSQ    3,,PR0

  16024 17 004712   000004 236000 18                 LDQ     4
        17 004713   000003 356100                    ANSQ    3,,PR0

  16025 17 004714   000146 220003                    LDX0    102,DU
        17 004715   000003 440100                    SXL0    3,,PR0

      284    16027        %SEARCH (RWD='COMPUTATIONAL-5',        RWNO=%RSV_WRD_COMP_5);

PL6.E3A0      #001=COBOLRW File=COBOLRW.:Z8A6TSI                                 SAT 08/09/97 09:25 Page:151
  16031 17 004716   002731 054000 1                  AOS     NUMBER_OF_RESERVED_WORDS

  16032 17 004717   000017 235007                    LDA     15,DL
        17 004720   000010 755000 6                  STA     LEX_SYMBOL+8

  16033 17 004721   040000 100400                    MLR     fill='040'O
        17 004722   000400 000017 16                 ADSC9   256                      cn=0,n=15
        17 004723   000011 000504 6                  ADSC9   LEX_SYMBOL+9             cn=0,n=324

  16034 17 004724   000000 631400 18                 EPPR1   0
        17 004725   000000 701000 xent               TSX1    Z8AH$SEARCH_
        17 004726   000000 011000                    NOP     0

  16035 17 004727   000000 470400 2                  LDP0    DNT$
        17 004730   400000 236003                    LDQ     -131072,DU
        17 004731   000003 256100                    ORSQ    3,,PR0

  16036 17 004732   000001 236000 18                 LDQ     1
        17 004733   000003 356100                    ANSQ    3,,PR0

  16037 17 004734   000002 236000 18                 LDQ     2
        17 004735   000003 356100                    ANSQ    3,,PR0

  16038 17 004736   000003 236000 18                 LDQ     3
        17 004737   000003 356100                    ANSQ    3,,PR0

  16039 17 004740   000004 236000 18                 LDQ     4
        17 004741   000003 356100                    ANSQ    3,,PR0

  16040 17 004742   000146 220003                    LDX0    102,DU
        17 004743   000003 440100                    SXL0    3,,PR0

      285    16042        %NEWRSW;
      286    16045        %SEARCH (RWD='COMP-6',                 RWNO=%RSV_WRD_COMP_6);

  16049 17 004744   002731 054000 1                  AOS     NUMBER_OF_RESERVED_WORDS

PL6.E3A0      #001=COBOLRW File=COBOLRW.:Z8A6TSI                                 SAT 08/09/97 09:25 Page:152
  16050 17 004745   000006 235007                    LDA     6,DL
        17 004746   000010 755000 6                  STA     LEX_SYMBOL+8

  16051 17 004747   040000 100400                    MLR     fill='040'O
        17 004750   000404 000006 16                 ADSC9   260                      cn=0,n=6
        17 004751   000011 000504 6                  ADSC9   LEX_SYMBOL+9             cn=0,n=324

  16052 17 004752   000000 631400 18                 EPPR1   0
        17 004753   000000 701000 xent               TSX1    Z8AH$SEARCH_
        17 004754   000000 011000                    NOP     0

  16053 17 004755   000000 470400 2                  LDP0    DNT$
        17 004756   400000 236003                    LDQ     -131072,DU
        17 004757   000003 256100                    ORSQ    3,,PR0

  16054 17 004760   000001 236000 18                 LDQ     1
        17 004761   000003 356100                    ANSQ    3,,PR0

  16055 17 004762   000002 236000 18                 LDQ     2
        17 004763   000003 356100                    ANSQ    3,,PR0

  16056 17 004764   000003 236000 18                 LDQ     3
        17 004765   000003 356100                    ANSQ    3,,PR0

  16057 17 004766   000004 236000 18                 LDQ     4
        17 004767   000003 356100                    ANSQ    3,,PR0

  16058 17 004770   000147 220003                    LDX0    103,DU
        17 004771   000003 440100                    SXL0    3,,PR0

      287    16060        %SEARCH (RWD='COMPUTATIONAL-6',        RWNO=%RSV_WRD_COMP_6);

  16064 17 004772   002731 054000 1                  AOS     NUMBER_OF_RESERVED_WORDS

  16065 17 004773   000017 235007                    LDA     15,DL
        17 004774   000010 755000 6                  STA     LEX_SYMBOL+8

PL6.E3A0      #001=COBOLRW File=COBOLRW.:Z8A6TSI                                 SAT 08/09/97 09:25 Page:153
  16066 17 004775   040000 100400                    MLR     fill='040'O
        17 004776   000406 000017 16                 ADSC9   262                      cn=0,n=15
        17 004777   000011 000504 6                  ADSC9   LEX_SYMBOL+9             cn=0,n=324

  16067 17 005000   000000 631400 18                 EPPR1   0
        17 005001   000000 701000 xent               TSX1    Z8AH$SEARCH_
        17 005002   000000 011000                    NOP     0

  16068 17 005003   000000 470400 2                  LDP0    DNT$
        17 005004   400000 236003                    LDQ     -131072,DU
        17 005005   000003 256100                    ORSQ    3,,PR0

  16069 17 005006   000001 236000 18                 LDQ     1
        17 005007   000003 356100                    ANSQ    3,,PR0

  16070 17 005010   000002 236000 18                 LDQ     2
        17 005011   000003 356100                    ANSQ    3,,PR0

  16071 17 005012   000003 236000 18                 LDQ     3
        17 005013   000003 356100                    ANSQ    3,,PR0

  16072 17 005014   000004 236000 18                 LDQ     4
        17 005015   000003 356100                    ANSQ    3,,PR0

  16073 17 005016   000147 220003                    LDX0    103,DU
        17 005017   000003 440100                    SXL0    3,,PR0

      288    16075        %SEARCH (RWD='BINARY',                 RWNO=%RSV_WRD_COMP_6);

  16079 17 005020   002731 054000 1                  AOS     NUMBER_OF_RESERVED_WORDS

  16080 17 005021   000006 235007                    LDA     6,DL
        17 005022   000010 755000 6                  STA     LEX_SYMBOL+8

  16081 17 005023   040000 100400                    MLR     fill='040'O
        17 005024   000412 000006 16                 ADSC9   266                      cn=0,n=6
        17 005025   000011 000504 6                  ADSC9   LEX_SYMBOL+9             cn=0,n=324
PL6.E3A0      #001=COBOLRW File=COBOLRW.:Z8A6TSI                                 SAT 08/09/97 09:25 Page:154

  16082 17 005026   000000 631400 18                 EPPR1   0
        17 005027   000000 701000 xent               TSX1    Z8AH$SEARCH_
        17 005030   000000 011000                    NOP     0

  16083 17 005031   000000 470400 2                  LDP0    DNT$
        17 005032   400000 236003                    LDQ     -131072,DU
        17 005033   000003 256100                    ORSQ    3,,PR0

  16084 17 005034   000001 236000 18                 LDQ     1
        17 005035   000003 356100                    ANSQ    3,,PR0

  16085 17 005036   000002 236000 18                 LDQ     2
        17 005037   000003 356100                    ANSQ    3,,PR0

  16086 17 005040   000003 236000 18                 LDQ     3
        17 005041   000003 356100                    ANSQ    3,,PR0

  16087 17 005042   000004 236000 18                 LDQ     4
        17 005043   000003 356100                    ANSQ    3,,PR0

  16088 17 005044   000147 220003                    LDX0    103,DU
        17 005045   000003 440100                    SXL0    3,,PR0

      289    16090        %NEWRSW;
      290    16093        %SEARCH (RWD='COMP-7',                 RWNO=%RSV_WRD_COMP_7);

  16097 17 005046   002731 054000 1                  AOS     NUMBER_OF_RESERVED_WORDS

  16098 17 005047   000006 235007                    LDA     6,DL
        17 005050   000010 755000 6                  STA     LEX_SYMBOL+8

  16099 17 005051   040000 100400                    MLR     fill='040'O
        17 005052   000414 000006 16                 ADSC9   268                      cn=0,n=6
        17 005053   000011 000504 6                  ADSC9   LEX_SYMBOL+9             cn=0,n=324

  16100 17 005054   000000 631400 18                 EPPR1   0
PL6.E3A0      #001=COBOLRW File=COBOLRW.:Z8A6TSI                                 SAT 08/09/97 09:25 Page:155
        17 005055   000000 701000 xent               TSX1    Z8AH$SEARCH_
        17 005056   000000 011000                    NOP     0

  16101 17 005057   000000 470400 2                  LDP0    DNT$
        17 005060   400000 236003                    LDQ     -131072,DU
        17 005061   000003 256100                    ORSQ    3,,PR0

  16102 17 005062   000001 236000 18                 LDQ     1
        17 005063   000003 356100                    ANSQ    3,,PR0

  16103 17 005064   000002 236000 18                 LDQ     2
        17 005065   000003 356100                    ANSQ    3,,PR0

  16104 17 005066   000003 236000 18                 LDQ     3
        17 005067   000003 356100                    ANSQ    3,,PR0

  16105 17 005070   000004 236000 18                 LDQ     4
        17 005071   000003 356100                    ANSQ    3,,PR0

  16106 17 005072   000150 220003                    LDX0    104,DU
        17 005073   000003 440100                    SXL0    3,,PR0

      291    16108        %SEARCH (RWD='COMPUTATIONAL-7',        RWNO=%RSV_WRD_COMP_7);

  16112 17 005074   002731 054000 1                  AOS     NUMBER_OF_RESERVED_WORDS

  16113 17 005075   000017 235007                    LDA     15,DL
        17 005076   000010 755000 6                  STA     LEX_SYMBOL+8

  16114 17 005077   040000 100400                    MLR     fill='040'O
        17 005100   000416 000017 16                 ADSC9   270                      cn=0,n=15
        17 005101   000011 000504 6                  ADSC9   LEX_SYMBOL+9             cn=0,n=324

  16115 17 005102   000000 631400 18                 EPPR1   0
        17 005103   000000 701000 xent               TSX1    Z8AH$SEARCH_
        17 005104   000000 011000                    NOP     0

PL6.E3A0      #001=COBOLRW File=COBOLRW.:Z8A6TSI                                 SAT 08/09/97 09:25 Page:156
  16116 17 005105   000000 470400 2                  LDP0    DNT$
        17 005106   400000 236003                    LDQ     -131072,DU
        17 005107   000003 256100                    ORSQ    3,,PR0

  16117 17 005110   000001 236000 18                 LDQ     1
        17 005111   000003 356100                    ANSQ    3,,PR0

  16118 17 005112   000002 236000 18                 LDQ     2
        17 005113   000003 356100                    ANSQ    3,,PR0

  16119 17 005114   000003 236000 18                 LDQ     3
        17 005115   000003 356100                    ANSQ    3,,PR0

  16120 17 005116   000004 236000 18                 LDQ     4
        17 005117   000003 356100                    ANSQ    3,,PR0

  16121 17 005120   000150 220003                    LDX0    104,DU
        17 005121   000003 440100                    SXL0    3,,PR0

      292    16123        %NEWRSW;
      293    16126        %SEARCH (RWD='COMP-8',                 RWNO=%RSV_WRD_COMP_8);

  16130 17 005122   002731 054000 1                  AOS     NUMBER_OF_RESERVED_WORDS

  16131 17 005123   000006 235007                    LDA     6,DL
        17 005124   000010 755000 6                  STA     LEX_SYMBOL+8

  16132 17 005125   040000 100400                    MLR     fill='040'O
        17 005126   000422 000006 16                 ADSC9   274                      cn=0,n=6
        17 005127   000011 000504 6                  ADSC9   LEX_SYMBOL+9             cn=0,n=324

  16133 17 005130   000000 631400 18                 EPPR1   0
        17 005131   000000 701000 xent               TSX1    Z8AH$SEARCH_
        17 005132   000000 011000                    NOP     0

  16134 17 005133   000000 470400 2                  LDP0    DNT$
        17 005134   400000 236003                    LDQ     -131072,DU
PL6.E3A0      #001=COBOLRW File=COBOLRW.:Z8A6TSI                                 SAT 08/09/97 09:25 Page:157
        17 005135   000003 256100                    ORSQ    3,,PR0

  16135 17 005136   000001 236000 18                 LDQ     1
        17 005137   000003 356100                    ANSQ    3,,PR0

  16136 17 005140   000002 236000 18                 LDQ     2
        17 005141   000003 356100                    ANSQ    3,,PR0

  16137 17 005142   000003 236000 18                 LDQ     3
        17 005143   000003 356100                    ANSQ    3,,PR0

  16138 17 005144   000004 236000 18                 LDQ     4
        17 005145   000003 356100                    ANSQ    3,,PR0

  16139 17 005146   000151 220003                    LDX0    105,DU
        17 005147   000003 440100                    SXL0    3,,PR0

      294    16141        %SEARCH (RWD='COMPUTATIONAL-8',        RWNO=%RSV_WRD_COMP_8);

  16145 17 005150   002731 054000 1                  AOS     NUMBER_OF_RESERVED_WORDS

  16146 17 005151   000017 235007                    LDA     15,DL
        17 005152   000010 755000 6                  STA     LEX_SYMBOL+8

  16147 17 005153   040000 100400                    MLR     fill='040'O
        17 005154   000424 000017 16                 ADSC9   276                      cn=0,n=15
        17 005155   000011 000504 6                  ADSC9   LEX_SYMBOL+9             cn=0,n=324

  16148 17 005156   000000 631400 18                 EPPR1   0
        17 005157   000000 701000 xent               TSX1    Z8AH$SEARCH_
        17 005160   000000 011000                    NOP     0

  16149 17 005161   000000 470400 2                  LDP0    DNT$
        17 005162   400000 236003                    LDQ     -131072,DU
        17 005163   000003 256100                    ORSQ    3,,PR0

  16150 17 005164   000001 236000 18                 LDQ     1
PL6.E3A0      #001=COBOLRW File=COBOLRW.:Z8A6TSI                                 SAT 08/09/97 09:25 Page:158
        17 005165   000003 356100                    ANSQ    3,,PR0

  16151 17 005166   000002 236000 18                 LDQ     2
        17 005167   000003 356100                    ANSQ    3,,PR0

  16152 17 005170   000003 236000 18                 LDQ     3
        17 005171   000003 356100                    ANSQ    3,,PR0

  16153 17 005172   000004 236000 18                 LDQ     4
        17 005173   000003 356100                    ANSQ    3,,PR0

  16154 17 005174   000151 220003                    LDX0    105,DU
        17 005175   000003 440100                    SXL0    3,,PR0

      295    16156        %NEWRSW;
      296    16159        %SEARCH (RWD='COMPUTE',                RWNO=%RSV_WRD_COMPUTE);

  16163 17 005176   002731 054000 1                  AOS     NUMBER_OF_RESERVED_WORDS

  16164 17 005177   000007 235007                    LDA     7,DL
        17 005200   000010 755000 6                  STA     LEX_SYMBOL+8

  16165 17 005201   040000 100400                    MLR     fill='040'O
        17 005202   000430 000007 16                 ADSC9   280                      cn=0,n=7
        17 005203   000011 000504 6                  ADSC9   LEX_SYMBOL+9             cn=0,n=324

  16166 17 005204   000000 631400 18                 EPPR1   0
        17 005205   000000 701000 xent               TSX1    Z8AH$SEARCH_
        17 005206   000000 011000                    NOP     0

  16167 17 005207   000000 470400 2                  LDP0    DNT$
        17 005210   400000 236003                    LDQ     -131072,DU
        17 005211   000003 256100                    ORSQ    3,,PR0

  16168 17 005212   000001 236000 18                 LDQ     1
        17 005213   000003 356100                    ANSQ    3,,PR0

PL6.E3A0      #001=COBOLRW File=COBOLRW.:Z8A6TSI                                 SAT 08/09/97 09:25 Page:159
  16169 17 005214   000002 236000 18                 LDQ     2
        17 005215   000003 356100                    ANSQ    3,,PR0

  16170 17 005216   000003 236000 18                 LDQ     3
        17 005217   000003 356100                    ANSQ    3,,PR0

  16171 17 005220   000004 236000 18                 LDQ     4
        17 005221   000003 356100                    ANSQ    3,,PR0

  16172 17 005222   000152 220003                    LDX0    106,DU
        17 005223   000003 440100                    SXL0    3,,PR0

      297    16174        %NEWRSW;
      298    16177        %SEARCH (RWD='CONFIGURATION',         RWNO=%RSV_WRD_CONFIGURATION, MUST_AREAA=TRUE)
             16177            ;

  16181 17 005224   002731 054000 1                  AOS     NUMBER_OF_RESERVED_WORDS

  16182 17 005225   000015 235007                    LDA     13,DL
        17 005226   000010 755000 6                  STA     LEX_SYMBOL+8

  16183 17 005227   040000 100400                    MLR     fill='040'O
        17 005230   000432 000015 16                 ADSC9   282                      cn=0,n=13
        17 005231   000011 000504 6                  ADSC9   LEX_SYMBOL+9             cn=0,n=324

  16184 17 005232   000000 631400 18                 EPPR1   0
        17 005233   000000 701000 xent               TSX1    Z8AH$SEARCH_
        17 005234   000000 011000                    NOP     0

  16185 17 005235   000000 470400 2                  LDP0    DNT$
        17 005236   400000 236003                    LDQ     -131072,DU
        17 005237   000003 256100                    ORSQ    3,,PR0

  16186 17 005240   000001 236000 18                 LDQ     1
        17 005241   000003 356100                    ANSQ    3,,PR0

  16187 17 005242   000002 236000 18                 LDQ     2
PL6.E3A0      #001=COBOLRW File=COBOLRW.:Z8A6TSI                                 SAT 08/09/97 09:25 Page:160
        17 005243   000003 356100                    ANSQ    3,,PR0

  16188 17 005244   000040 236003                    LDQ     32,DU
        17 005245   000003 256100                    ORSQ    3,,PR0

  16189 17 005246   000004 236000 18                 LDQ     4
        17 005247   000003 356100                    ANSQ    3,,PR0

  16190 17 005250   000153 220003                    LDX0    107,DU
        17 005251   000003 440100                    SXL0    3,,PR0

      299    16192        %NEWRSW;
      300    16195        %SEARCH (RWD='CONNECT',                RWNO=%RSV_WRD_CONNECT);

  16199 17 005252   002731 054000 1                  AOS     NUMBER_OF_RESERVED_WORDS

  16200 17 005253   000007 235007                    LDA     7,DL
        17 005254   000010 755000 6                  STA     LEX_SYMBOL+8

  16201 17 005255   040000 100400                    MLR     fill='040'O
        17 005256   000436 000007 16                 ADSC9   286                      cn=0,n=7
        17 005257   000011 000504 6                  ADSC9   LEX_SYMBOL+9             cn=0,n=324

  16202 17 005260   000000 631400 18                 EPPR1   0
        17 005261   000000 701000 xent               TSX1    Z8AH$SEARCH_
        17 005262   000000 011000                    NOP     0

  16203 17 005263   000000 470400 2                  LDP0    DNT$
        17 005264   400000 236003                    LDQ     -131072,DU
        17 005265   000003 256100                    ORSQ    3,,PR0

  16204 17 005266   000001 236000 18                 LDQ     1
        17 005267   000003 356100                    ANSQ    3,,PR0

  16205 17 005270   000002 236000 18                 LDQ     2
        17 005271   000003 356100                    ANSQ    3,,PR0

PL6.E3A0      #001=COBOLRW File=COBOLRW.:Z8A6TSI                                 SAT 08/09/97 09:25 Page:161
  16206 17 005272   000003 236000 18                 LDQ     3
        17 005273   000003 356100                    ANSQ    3,,PR0

  16207 17 005274   000004 236000 18                 LDQ     4
        17 005275   000003 356100                    ANSQ    3,,PR0

  16208 17 005276   000154 220003                    LDX0    108,DU
        17 005277   000003 440100                    SXL0    3,,PR0

      301    16210        %NEWRSW;
      302    16213        %SEARCH (RWD='CONSOLE',                RWNO=%RSV_WRD_CONSOLE);

  16217 17 005300   002731 054000 1                  AOS     NUMBER_OF_RESERVED_WORDS

  16218 17 005301   000007 235007                    LDA     7,DL
        17 005302   000010 755000 6                  STA     LEX_SYMBOL+8

  16219 17 005303   040000 100400                    MLR     fill='040'O
        17 005304   000440 000007 16                 ADSC9   288                      cn=0,n=7
        17 005305   000011 000504 6                  ADSC9   LEX_SYMBOL+9             cn=0,n=324

  16220 17 005306   000000 631400 18                 EPPR1   0
        17 005307   000000 701000 xent               TSX1    Z8AH$SEARCH_
        17 005310   000000 011000                    NOP     0

  16221 17 005311   000000 470400 2                  LDP0    DNT$
        17 005312   400000 236003                    LDQ     -131072,DU
        17 005313   000003 256100                    ORSQ    3,,PR0

  16222 17 005314   000001 236000 18                 LDQ     1
        17 005315   000003 356100                    ANSQ    3,,PR0

  16223 17 005316   000002 236000 18                 LDQ     2
        17 005317   000003 356100                    ANSQ    3,,PR0

  16224 17 005320   000003 236000 18                 LDQ     3
        17 005321   000003 356100                    ANSQ    3,,PR0
PL6.E3A0      #001=COBOLRW File=COBOLRW.:Z8A6TSI                                 SAT 08/09/97 09:25 Page:162

  16225 17 005322   000004 236000 18                 LDQ     4
        17 005323   000003 356100                    ANSQ    3,,PR0

  16226 17 005324   000155 220003                    LDX0    109,DU
        17 005325   000003 440100                    SXL0    3,,PR0

      303    16228        %NEWRSW;
      304    16231        %SEARCH (RWD='CONTAINS',               RWNO=%RSV_WRD_CONTAINS);

  16235 17 005326   002731 054000 1                  AOS     NUMBER_OF_RESERVED_WORDS

  16236 17 005327   000010 235007                    LDA     8,DL
        17 005330   000010 755000 6                  STA     LEX_SYMBOL+8

  16237 17 005331   040000 100400                    MLR     fill='040'O
        17 005332   000442 000010 16                 ADSC9   290                      cn=0,n=8
        17 005333   000011 000504 6                  ADSC9   LEX_SYMBOL+9             cn=0,n=324

  16238 17 005334   000000 631400 18                 EPPR1   0
        17 005335   000000 701000 xent               TSX1    Z8AH$SEARCH_
        17 005336   000000 011000                    NOP     0

  16239 17 005337   000000 470400 2                  LDP0    DNT$
        17 005340   400000 236003                    LDQ     -131072,DU
        17 005341   000003 256100                    ORSQ    3,,PR0

  16240 17 005342   000001 236000 18                 LDQ     1
        17 005343   000003 356100                    ANSQ    3,,PR0

  16241 17 005344   000002 236000 18                 LDQ     2
        17 005345   000003 356100                    ANSQ    3,,PR0

  16242 17 005346   000003 236000 18                 LDQ     3
        17 005347   000003 356100                    ANSQ    3,,PR0

  16243 17 005350   000004 236000 18                 LDQ     4
PL6.E3A0      #001=COBOLRW File=COBOLRW.:Z8A6TSI                                 SAT 08/09/97 09:25 Page:163
        17 005351   000003 356100                    ANSQ    3,,PR0

  16244 17 005352   000156 220003                    LDX0    110,DU
        17 005353   000003 440100                    SXL0    3,,PR0

      305    16246        %NEWRSW;
      306    16249        %SEARCH (RWD='CONTENT',                RWNO=%RSV_WRD_CONTENT);

  16253 17 005354   002731 054000 1                  AOS     NUMBER_OF_RESERVED_WORDS

  16254 17 005355   000007 235007                    LDA     7,DL
        17 005356   000010 755000 6                  STA     LEX_SYMBOL+8

  16255 17 005357   040000 100400                    MLR     fill='040'O
        17 005360   000444 000007 16                 ADSC9   292                      cn=0,n=7
        17 005361   000011 000504 6                  ADSC9   LEX_SYMBOL+9             cn=0,n=324

  16256 17 005362   000000 631400 18                 EPPR1   0
        17 005363   000000 701000 xent               TSX1    Z8AH$SEARCH_
        17 005364   000000 011000                    NOP     0

  16257 17 005365   000000 470400 2                  LDP0    DNT$
        17 005366   400000 236003                    LDQ     -131072,DU
        17 005367   000003 256100                    ORSQ    3,,PR0

  16258 17 005370   000001 236000 18                 LDQ     1
        17 005371   000003 356100                    ANSQ    3,,PR0

  16259 17 005372   000002 236000 18                 LDQ     2
        17 005373   000003 356100                    ANSQ    3,,PR0

  16260 17 005374   000003 236000 18                 LDQ     3
        17 005375   000003 356100                    ANSQ    3,,PR0

  16261 17 005376   000004 236000 18                 LDQ     4
        17 005377   000003 356100                    ANSQ    3,,PR0

PL6.E3A0      #001=COBOLRW File=COBOLRW.:Z8A6TSI                                 SAT 08/09/97 09:25 Page:164
  16262 17 005400   000157 220003                    LDX0    111,DU
        17 005401   000003 440100                    SXL0    3,,PR0

      307    16264        %NEWRSW;
      308    16267        %SEARCH (RWD='CONTINUE',               RWNO=%RSV_WRD_CONTINUE);

  16271 17 005402   002731 054000 1                  AOS     NUMBER_OF_RESERVED_WORDS

  16272 17 005403   000010 235007                    LDA     8,DL
        17 005404   000010 755000 6                  STA     LEX_SYMBOL+8

  16273 17 005405   040000 100400                    MLR     fill='040'O
        17 005406   000446 000010 16                 ADSC9   294                      cn=0,n=8
        17 005407   000011 000504 6                  ADSC9   LEX_SYMBOL+9             cn=0,n=324

  16274 17 005410   000000 631400 18                 EPPR1   0
        17 005411   000000 701000 xent               TSX1    Z8AH$SEARCH_
        17 005412   000000 011000                    NOP     0

  16275 17 005413   000000 470400 2                  LDP0    DNT$
        17 005414   400000 236003                    LDQ     -131072,DU
        17 005415   000003 256100                    ORSQ    3,,PR0

  16276 17 005416   000001 236000 18                 LDQ     1
        17 005417   000003 356100                    ANSQ    3,,PR0

  16277 17 005420   000002 236000 18                 LDQ     2
        17 005421   000003 356100                    ANSQ    3,,PR0

  16278 17 005422   000003 236000 18                 LDQ     3
        17 005423   000003 356100                    ANSQ    3,,PR0

  16279 17 005424   000004 236000 18                 LDQ     4
        17 005425   000003 356100                    ANSQ    3,,PR0

  16280 17 005426   000160 220003                    LDX0    112,DU
        17 005427   000003 440100                    SXL0    3,,PR0
PL6.E3A0      #001=COBOLRW File=COBOLRW.:Z8A6TSI                                 SAT 08/09/97 09:25 Page:165

      309    16282        %NEWRSW;
      310    16285        %SEARCH (RWD='CONTROL',                RWNO=%RSV_WRD_CONTROL);

  16289 17 005430   002731 054000 1                  AOS     NUMBER_OF_RESERVED_WORDS

  16290 17 005431   000007 235007                    LDA     7,DL
        17 005432   000010 755000 6                  STA     LEX_SYMBOL+8

  16291 17 005433   040000 100400                    MLR     fill='040'O
        17 005434   000450 000007 16                 ADSC9   296                      cn=0,n=7
        17 005435   000011 000504 6                  ADSC9   LEX_SYMBOL+9             cn=0,n=324

  16292 17 005436   000000 631400 18                 EPPR1   0
        17 005437   000000 701000 xent               TSX1    Z8AH$SEARCH_
        17 005440   000000 011000                    NOP     0

  16293 17 005441   000000 470400 2                  LDP0    DNT$
        17 005442   400000 236003                    LDQ     -131072,DU
        17 005443   000003 256100                    ORSQ    3,,PR0

  16294 17 005444   000001 236000 18                 LDQ     1
        17 005445   000003 356100                    ANSQ    3,,PR0

  16295 17 005446   000002 236000 18                 LDQ     2
        17 005447   000003 356100                    ANSQ    3,,PR0

  16296 17 005450   000003 236000 18                 LDQ     3
        17 005451   000003 356100                    ANSQ    3,,PR0

  16297 17 005452   000004 236000 18                 LDQ     4
        17 005453   000003 356100                    ANSQ    3,,PR0

  16298 17 005454   000161 220003                    LDX0    113,DU
        17 005455   000003 440100                    SXL0    3,,PR0

      311    16300        %NEWRSW;
PL6.E3A0      #001=COBOLRW File=COBOLRW.:Z8A6TSI                                 SAT 08/09/97 09:25 Page:166
      312    16303        %SEARCH (RWD='CONTROLS',               RWNO=%RSV_WRD_CONTROLS);

  16307 17 005456   002731 054000 1                  AOS     NUMBER_OF_RESERVED_WORDS

  16308 17 005457   000010 235007                    LDA     8,DL
        17 005460   000010 755000 6                  STA     LEX_SYMBOL+8

  16309 17 005461   040000 100400                    MLR     fill='040'O
        17 005462   000452 000010 16                 ADSC9   298                      cn=0,n=8
        17 005463   000011 000504 6                  ADSC9   LEX_SYMBOL+9             cn=0,n=324

  16310 17 005464   000000 631400 18                 EPPR1   0
        17 005465   000000 701000 xent               TSX1    Z8AH$SEARCH_
        17 005466   000000 011000                    NOP     0

  16311 17 005467   000000 470400 2                  LDP0    DNT$
        17 005470   400000 236003                    LDQ     -131072,DU
        17 005471   000003 256100                    ORSQ    3,,PR0

  16312 17 005472   000001 236000 18                 LDQ     1
        17 005473   000003 356100                    ANSQ    3,,PR0

  16313 17 005474   000002 236000 18                 LDQ     2
        17 005475   000003 356100                    ANSQ    3,,PR0

  16314 17 005476   000003 236000 18                 LDQ     3
        17 005477   000003 356100                    ANSQ    3,,PR0

  16315 17 005500   000004 236000 18                 LDQ     4
        17 005501   000003 356100                    ANSQ    3,,PR0

  16316 17 005502   000162 220003                    LDX0    114,DU
        17 005503   000003 440100                    SXL0    3,,PR0

      313    16318        %NEWRSW;
      314    16321        %SEARCH (RWD='CONVERSION',             RWNO=%RSV_WRD_CONVERSION);

PL6.E3A0      #001=COBOLRW File=COBOLRW.:Z8A6TSI                                 SAT 08/09/97 09:25 Page:167
  16325 17 005504   002731 054000 1                  AOS     NUMBER_OF_RESERVED_WORDS

  16326 17 005505   000012 235007                    LDA     10,DL
        17 005506   000010 755000 6                  STA     LEX_SYMBOL+8

  16327 17 005507   040000 100400                    MLR     fill='040'O
        17 005510   000454 000012 16                 ADSC9   300                      cn=0,n=10
        17 005511   000011 000504 6                  ADSC9   LEX_SYMBOL+9             cn=0,n=324

  16328 17 005512   000000 631400 18                 EPPR1   0
        17 005513   000000 701000 xent               TSX1    Z8AH$SEARCH_
        17 005514   000000 011000                    NOP     0

  16329 17 005515   000000 470400 2                  LDP0    DNT$
        17 005516   400000 236003                    LDQ     -131072,DU
        17 005517   000003 256100                    ORSQ    3,,PR0

  16330 17 005520   000001 236000 18                 LDQ     1
        17 005521   000003 356100                    ANSQ    3,,PR0

  16331 17 005522   000002 236000 18                 LDQ     2
        17 005523   000003 356100                    ANSQ    3,,PR0

  16332 17 005524   000003 236000 18                 LDQ     3
        17 005525   000003 356100                    ANSQ    3,,PR0

  16333 17 005526   000004 236000 18                 LDQ     4
        17 005527   000003 356100                    ANSQ    3,,PR0

  16334 17 005530   000163 220003                    LDX0    115,DU
        17 005531   000003 440100                    SXL0    3,,PR0

      315    16336        %NEWRSW;
      316    16339        %SEARCH (RWD='CONVERTING',             RWNO=%RSV_WRD_CONVERTING);

  16343 17 005532   002731 054000 1                  AOS     NUMBER_OF_RESERVED_WORDS

PL6.E3A0      #001=COBOLRW File=COBOLRW.:Z8A6TSI                                 SAT 08/09/97 09:25 Page:168
  16344 17 005533   000012 235007                    LDA     10,DL
        17 005534   000010 755000 6                  STA     LEX_SYMBOL+8

  16345 17 005535   040000 100400                    MLR     fill='040'O
        17 005536   000457 000012 16                 ADSC9   303                      cn=0,n=10
        17 005537   000011 000504 6                  ADSC9   LEX_SYMBOL+9             cn=0,n=324

  16346 17 005540   000000 631400 18                 EPPR1   0
        17 005541   000000 701000 xent               TSX1    Z8AH$SEARCH_
        17 005542   000000 011000                    NOP     0

  16347 17 005543   000000 470400 2                  LDP0    DNT$
        17 005544   400000 236003                    LDQ     -131072,DU
        17 005545   000003 256100                    ORSQ    3,,PR0

  16348 17 005546   000001 236000 18                 LDQ     1
        17 005547   000003 356100                    ANSQ    3,,PR0

  16349 17 005550   000002 236000 18                 LDQ     2
        17 005551   000003 356100                    ANSQ    3,,PR0

  16350 17 005552   000003 236000 18                 LDQ     3
        17 005553   000003 356100                    ANSQ    3,,PR0

  16351 17 005554   000004 236000 18                 LDQ     4
        17 005555   000003 356100                    ANSQ    3,,PR0

  16352 17 005556   000164 220003                    LDX0    116,DU
        17 005557   000003 440100                    SXL0    3,,PR0

      317    16354        %NEWRSW;
      318    16357        %SEARCH (RWD='CORRESPONDING',          RWNO=%RSV_WRD_CORRESPONDING);

  16361 17 005560   002731 054000 1                  AOS     NUMBER_OF_RESERVED_WORDS

  16362 17 005561   000015 235007                    LDA     13,DL
        17 005562   000010 755000 6                  STA     LEX_SYMBOL+8
PL6.E3A0      #001=COBOLRW File=COBOLRW.:Z8A6TSI                                 SAT 08/09/97 09:25 Page:169

  16363 17 005563   040000 100400                    MLR     fill='040'O
        17 005564   000462 000015 16                 ADSC9   306                      cn=0,n=13
        17 005565   000011 000504 6                  ADSC9   LEX_SYMBOL+9             cn=0,n=324

  16364 17 005566   000000 631400 18                 EPPR1   0
        17 005567   000000 701000 xent               TSX1    Z8AH$SEARCH_
        17 005570   000000 011000                    NOP     0

  16365 17 005571   000000 470400 2                  LDP0    DNT$
        17 005572   400000 236003                    LDQ     -131072,DU
        17 005573   000003 256100                    ORSQ    3,,PR0

  16366 17 005574   000001 236000 18                 LDQ     1
        17 005575   000003 356100                    ANSQ    3,,PR0

  16367 17 005576   000002 236000 18                 LDQ     2
        17 005577   000003 356100                    ANSQ    3,,PR0

  16368 17 005600   000003 236000 18                 LDQ     3
        17 005601   000003 356100                    ANSQ    3,,PR0

  16369 17 005602   000004 236000 18                 LDQ     4
        17 005603   000003 356100                    ANSQ    3,,PR0

  16370 17 005604   000165 220003                    LDX0    117,DU
        17 005605   000003 440100                    SXL0    3,,PR0

      319    16372        %SEARCH (RWD='CORR',                   RWNO=%RSV_WRD_CORRESPONDING);

  16376 17 005606   002731 054000 1                  AOS     NUMBER_OF_RESERVED_WORDS

  16377 17 005607   000004 235007                    LDA     4,DL
        17 005610   000010 755000 6                  STA     LEX_SYMBOL+8

  16378 17 005611   040000 100400                    MLR     fill='040'O
        17 005612   000462 000004 16                 ADSC9   306                      cn=0,n=4
PL6.E3A0      #001=COBOLRW File=COBOLRW.:Z8A6TSI                                 SAT 08/09/97 09:25 Page:170
        17 005613   000011 000504 6                  ADSC9   LEX_SYMBOL+9             cn=0,n=324

  16379 17 005614   000000 631400 18                 EPPR1   0
        17 005615   000000 701000 xent               TSX1    Z8AH$SEARCH_
        17 005616   000000 011000                    NOP     0

  16380 17 005617   000000 470400 2                  LDP0    DNT$
        17 005620   400000 236003                    LDQ     -131072,DU
        17 005621   000003 256100                    ORSQ    3,,PR0

  16381 17 005622   000001 236000 18                 LDQ     1
        17 005623   000003 356100                    ANSQ    3,,PR0

  16382 17 005624   000002 236000 18                 LDQ     2
        17 005625   000003 356100                    ANSQ    3,,PR0

  16383 17 005626   000003 236000 18                 LDQ     3
        17 005627   000003 356100                    ANSQ    3,,PR0

  16384 17 005630   000004 236000 18                 LDQ     4
        17 005631   000003 356100                    ANSQ    3,,PR0

  16385 17 005632   000165 220003                    LDX0    117,DU
        17 005633   000003 440100                    SXL0    3,,PR0

      320    16387        %NEWRSW;
      321    16390        %SEARCH (RWD='COUNT',                  RWNO=%RSV_WRD_COUNT);

  16394 17 005634   002731 054000 1                  AOS     NUMBER_OF_RESERVED_WORDS

  16395 17 005635   000005 235007                    LDA     5,DL
        17 005636   000010 755000 6                  STA     LEX_SYMBOL+8

  16396 17 005637   040000 100400                    MLR     fill='040'O
        17 005640   000466 000005 16                 ADSC9   310                      cn=0,n=5
        17 005641   000011 000504 6                  ADSC9   LEX_SYMBOL+9             cn=0,n=324

PL6.E3A0      #001=COBOLRW File=COBOLRW.:Z8A6TSI                                 SAT 08/09/97 09:25 Page:171
  16397 17 005642   000000 631400 18                 EPPR1   0
        17 005643   000000 701000 xent               TSX1    Z8AH$SEARCH_
        17 005644   000000 011000                    NOP     0

  16398 17 005645   000000 470400 2                  LDP0    DNT$
        17 005646   400000 236003                    LDQ     -131072,DU
        17 005647   000003 256100                    ORSQ    3,,PR0

  16399 17 005650   000001 236000 18                 LDQ     1
        17 005651   000003 356100                    ANSQ    3,,PR0

  16400 17 005652   000002 236000 18                 LDQ     2
        17 005653   000003 356100                    ANSQ    3,,PR0

  16401 17 005654   000003 236000 18                 LDQ     3
        17 005655   000003 356100                    ANSQ    3,,PR0

  16402 17 005656   000004 236000 18                 LDQ     4
        17 005657   000003 356100                    ANSQ    3,,PR0

  16403 17 005660   000166 220003                    LDX0    118,DU
        17 005661   000003 440100                    SXL0    3,,PR0

      322    16405        %NEWRSW;
      323    16408        %SEARCH (RWD='CSP',                    RWNO=%RSV_WRD_CSP);

  16412 17 005662   002731 054000 1                  AOS     NUMBER_OF_RESERVED_WORDS

  16413 17 005663   000003 235007                    LDA     3,DL
        17 005664   000010 755000 6                  STA     LEX_SYMBOL+8

  16414 17 005665   040000 100400                    MLR     fill='040'O
        17 005666   000470 000003 16                 ADSC9   312                      cn=0,n=3
        17 005667   000011 000504 6                  ADSC9   LEX_SYMBOL+9             cn=0,n=324

  16415 17 005670   000000 631400 18                 EPPR1   0
        17 005671   000000 701000 xent               TSX1    Z8AH$SEARCH_
PL6.E3A0      #001=COBOLRW File=COBOLRW.:Z8A6TSI                                 SAT 08/09/97 09:25 Page:172
        17 005672   000000 011000                    NOP     0

  16416 17 005673   000000 470400 2                  LDP0    DNT$
        17 005674   400000 236003                    LDQ     -131072,DU
        17 005675   000003 256100                    ORSQ    3,,PR0

  16417 17 005676   000001 236000 18                 LDQ     1
        17 005677   000003 356100                    ANSQ    3,,PR0

  16418 17 005700   000002 236000 18                 LDQ     2
        17 005701   000003 356100                    ANSQ    3,,PR0

  16419 17 005702   000003 236000 18                 LDQ     3
        17 005703   000003 356100                    ANSQ    3,,PR0

  16420 17 005704   000004 236000 18                 LDQ     4
        17 005705   000003 356100                    ANSQ    3,,PR0

  16421 17 005706   000167 220003                    LDX0    119,DU
        17 005707   000003 440100                    SXL0    3,,PR0

      324    16423        %NEWRSW;
      325    16426        %SEARCH (RWD='CURRENCY',               RWNO=%RSV_WRD_CURRENCY);

  16430 17 005710   002731 054000 1                  AOS     NUMBER_OF_RESERVED_WORDS

  16431 17 005711   000010 235007                    LDA     8,DL
        17 005712   000010 755000 6                  STA     LEX_SYMBOL+8

  16432 17 005713   040000 100400                    MLR     fill='040'O
        17 005714   000471 000010 16                 ADSC9   313                      cn=0,n=8
        17 005715   000011 000504 6                  ADSC9   LEX_SYMBOL+9             cn=0,n=324

  16433 17 005716   000000 631400 18                 EPPR1   0
        17 005717   000000 701000 xent               TSX1    Z8AH$SEARCH_
        17 005720   000000 011000                    NOP     0

PL6.E3A0      #001=COBOLRW File=COBOLRW.:Z8A6TSI                                 SAT 08/09/97 09:25 Page:173
  16434 17 005721   000000 470400 2                  LDP0    DNT$
        17 005722   400000 236003                    LDQ     -131072,DU
        17 005723   000003 256100                    ORSQ    3,,PR0

  16435 17 005724   000001 236000 18                 LDQ     1
        17 005725   000003 356100                    ANSQ    3,,PR0

  16436 17 005726   000002 236000 18                 LDQ     2
        17 005727   000003 356100                    ANSQ    3,,PR0

  16437 17 005730   000003 236000 18                 LDQ     3
        17 005731   000003 356100                    ANSQ    3,,PR0

  16438 17 005732   000004 236000 18                 LDQ     4
        17 005733   000003 356100                    ANSQ    3,,PR0

  16439 17 005734   000170 220003                    LDX0    120,DU
        17 005735   000003 440100                    SXL0    3,,PR0

      326    16441        %NEWRSW;
      327    16444        %SEARCH (RWD='CURRENT',                RWNO=%RSV_WRD_CURRENT);

  16448 17 005736   002731 054000 1                  AOS     NUMBER_OF_RESERVED_WORDS

  16449 17 005737   000007 235007                    LDA     7,DL
        17 005740   000010 755000 6                  STA     LEX_SYMBOL+8

  16450 17 005741   040000 100400                    MLR     fill='040'O
        17 005742   000473 000007 16                 ADSC9   315                      cn=0,n=7
        17 005743   000011 000504 6                  ADSC9   LEX_SYMBOL+9             cn=0,n=324

  16451 17 005744   000000 631400 18                 EPPR1   0
        17 005745   000000 701000 xent               TSX1    Z8AH$SEARCH_
        17 005746   000000 011000                    NOP     0

  16452 17 005747   000000 470400 2                  LDP0    DNT$
        17 005750   400000 236003                    LDQ     -131072,DU
PL6.E3A0      #001=COBOLRW File=COBOLRW.:Z8A6TSI                                 SAT 08/09/97 09:25 Page:174
        17 005751   000003 256100                    ORSQ    3,,PR0

  16453 17 005752   000001 236000 18                 LDQ     1
        17 005753   000003 356100                    ANSQ    3,,PR0

  16454 17 005754   000002 236000 18                 LDQ     2
        17 005755   000003 356100                    ANSQ    3,,PR0

  16455 17 005756   000003 236000 18                 LDQ     3
        17 005757   000003 356100                    ANSQ    3,,PR0

  16456 17 005760   000004 236000 18                 LDQ     4
        17 005761   000003 356100                    ANSQ    3,,PR0

  16457 17 005762   000171 220003                    LDX0    121,DU
        17 005763   000003 440100                    SXL0    3,,PR0

      328    16459        %NEWRSW;
      329    16462        %SEARCH (RWD='DATA',                   RWNO=%RSV_WRD_DATA);

  16466 17 005764   002731 054000 1                  AOS     NUMBER_OF_RESERVED_WORDS

  16467 17 005765   000004 235007                    LDA     4,DL
        17 005766   000010 755000 6                  STA     LEX_SYMBOL+8

  16468 17 005767   040000 100400                    MLR     fill='040'O
        17 005770   000475 000004 16                 ADSC9   317                      cn=0,n=4
        17 005771   000011 000504 6                  ADSC9   LEX_SYMBOL+9             cn=0,n=324

  16469 17 005772   000000 631400 18                 EPPR1   0
        17 005773   000000 701000 xent               TSX1    Z8AH$SEARCH_
        17 005774   000000 011000                    NOP     0

  16470 17 005775   000000 470400 2                  LDP0    DNT$
        17 005776   400000 236003                    LDQ     -131072,DU
        17 005777   000003 256100                    ORSQ    3,,PR0

PL6.E3A0      #001=COBOLRW File=COBOLRW.:Z8A6TSI                                 SAT 08/09/97 09:25 Page:175
  16471 17 006000   000001 236000 18                 LDQ     1
        17 006001   000003 356100                    ANSQ    3,,PR0

  16472 17 006002   000002 236000 18                 LDQ     2
        17 006003   000003 356100                    ANSQ    3,,PR0

  16473 17 006004   000003 236000 18                 LDQ     3
        17 006005   000003 356100                    ANSQ    3,,PR0

  16474 17 006006   000004 236000 18                 LDQ     4
        17 006007   000003 356100                    ANSQ    3,,PR0

  16475 17 006010   000172 220003                    LDX0    122,DU
        17 006011   000003 440100                    SXL0    3,,PR0

      330    16477        %NEWRSW;
      331    16480        %SEARCH (RWD='DATE',                   RWNO=%RSV_WRD_DATE);

  16484 17 006012   002731 054000 1                  AOS     NUMBER_OF_RESERVED_WORDS

  16485 17 006013   000004 235007                    LDA     4,DL
        17 006014   000010 755000 6                  STA     LEX_SYMBOL+8

  16486 17 006015   040000 100400                    MLR     fill='040'O
        17 006016   000476 000004 16                 ADSC9   318                      cn=0,n=4
        17 006017   000011 000504 6                  ADSC9   LEX_SYMBOL+9             cn=0,n=324

  16487 17 006020   000000 631400 18                 EPPR1   0
        17 006021   000000 701000 xent               TSX1    Z8AH$SEARCH_
        17 006022   000000 011000                    NOP     0

  16488 17 006023   000000 470400 2                  LDP0    DNT$
        17 006024   400000 236003                    LDQ     -131072,DU
        17 006025   000003 256100                    ORSQ    3,,PR0

  16489 17 006026   000001 236000 18                 LDQ     1
        17 006027   000003 356100                    ANSQ    3,,PR0
PL6.E3A0      #001=COBOLRW File=COBOLRW.:Z8A6TSI                                 SAT 08/09/97 09:25 Page:176

  16490 17 006030   000002 236000 18                 LDQ     2
        17 006031   000003 356100                    ANSQ    3,,PR0

  16491 17 006032   000003 236000 18                 LDQ     3
        17 006033   000003 356100                    ANSQ    3,,PR0

  16492 17 006034   000004 236000 18                 LDQ     4
        17 006035   000003 356100                    ANSQ    3,,PR0

  16493 17 006036   000173 220003                    LDX0    123,DU
        17 006037   000003 440100                    SXL0    3,,PR0

      332    16495        %NEWRSW;
      333    16498        %SEARCH (RWD='DATE-COMPILED',         RWNO=%RSV_WRD_DATE_COMPILED, MUST_AREAA=TRUE)
             16498            ;

  16502 17 006040   002731 054000 1                  AOS     NUMBER_OF_RESERVED_WORDS

  16503 17 006041   000015 235007                    LDA     13,DL
        17 006042   000010 755000 6                  STA     LEX_SYMBOL+8

  16504 17 006043   040000 100400                    MLR     fill='040'O
        17 006044   000477 000015 16                 ADSC9   319                      cn=0,n=13
        17 006045   000011 000504 6                  ADSC9   LEX_SYMBOL+9             cn=0,n=324

  16505 17 006046   000000 631400 18                 EPPR1   0
        17 006047   000000 701000 xent               TSX1    Z8AH$SEARCH_
        17 006050   000000 011000                    NOP     0

  16506 17 006051   000000 470400 2                  LDP0    DNT$
        17 006052   400000 236003                    LDQ     -131072,DU
        17 006053   000003 256100                    ORSQ    3,,PR0

  16507 17 006054   000001 236000 18                 LDQ     1
        17 006055   000003 356100                    ANSQ    3,,PR0

PL6.E3A0      #001=COBOLRW File=COBOLRW.:Z8A6TSI                                 SAT 08/09/97 09:25 Page:177
  16508 17 006056   000002 236000 18                 LDQ     2
        17 006057   000003 356100                    ANSQ    3,,PR0

  16509 17 006060   000040 236003                    LDQ     32,DU
        17 006061   000003 256100                    ORSQ    3,,PR0

  16510 17 006062   000004 236000 18                 LDQ     4
        17 006063   000003 356100                    ANSQ    3,,PR0

  16511 17 006064   000174 220003                    LDX0    124,DU
        17 006065   000003 440100                    SXL0    3,,PR0

      334    16513        %NEWRSW;
      335    16516        %SEARCH (RWD='DATE-WRITTEN',          RWNO=%RSV_WRD_DATE_WRITTEN, MUST_AREAA=TRUE);

  16520 17 006066   002731 054000 1                  AOS     NUMBER_OF_RESERVED_WORDS

  16521 17 006067   000014 235007                    LDA     12,DL
        17 006070   000010 755000 6                  STA     LEX_SYMBOL+8

  16522 17 006071   040000 100400                    MLR     fill='040'O
        17 006072   000503 000014 16                 ADSC9   323                      cn=0,n=12
        17 006073   000011 000504 6                  ADSC9   LEX_SYMBOL+9             cn=0,n=324

  16523 17 006074   000000 631400 18                 EPPR1   0
        17 006075   000000 701000 xent               TSX1    Z8AH$SEARCH_
        17 006076   000000 011000                    NOP     0

  16524 17 006077   000000 470400 2                  LDP0    DNT$
        17 006100   400000 236003                    LDQ     -131072,DU
        17 006101   000003 256100                    ORSQ    3,,PR0

  16525 17 006102   000001 236000 18                 LDQ     1
        17 006103   000003 356100                    ANSQ    3,,PR0

  16526 17 006104   000002 236000 18                 LDQ     2
        17 006105   000003 356100                    ANSQ    3,,PR0
PL6.E3A0      #001=COBOLRW File=COBOLRW.:Z8A6TSI                                 SAT 08/09/97 09:25 Page:178

  16527 17 006106   000040 236003                    LDQ     32,DU
        17 006107   000003 256100                    ORSQ    3,,PR0

  16528 17 006110   000004 236000 18                 LDQ     4
        17 006111   000003 356100                    ANSQ    3,,PR0

  16529 17 006112   000175 220003                    LDX0    125,DU
        17 006113   000003 440100                    SXL0    3,,PR0

      336    16531        %NEWRSW;
      337    16534        %SEARCH (RWD='DAY',                    RWNO=%RSV_WRD_DAY);

  16538 17 006114   002731 054000 1                  AOS     NUMBER_OF_RESERVED_WORDS

  16539 17 006115   000003 235007                    LDA     3,DL
        17 006116   000010 755000 6                  STA     LEX_SYMBOL+8

  16540 17 006117   040000 100400                    MLR     fill='040'O
        17 006120   000506 000003 16                 ADSC9   326                      cn=0,n=3
        17 006121   000011 000504 6                  ADSC9   LEX_SYMBOL+9             cn=0,n=324

  16541 17 006122   000000 631400 18                 EPPR1   0
        17 006123   000000 701000 xent               TSX1    Z8AH$SEARCH_
        17 006124   000000 011000                    NOP     0

  16542 17 006125   000000 470400 2                  LDP0    DNT$
        17 006126   400000 236003                    LDQ     -131072,DU
        17 006127   000003 256100                    ORSQ    3,,PR0

  16543 17 006130   000001 236000 18                 LDQ     1
        17 006131   000003 356100                    ANSQ    3,,PR0

  16544 17 006132   000002 236000 18                 LDQ     2
        17 006133   000003 356100                    ANSQ    3,,PR0

  16545 17 006134   000003 236000 18                 LDQ     3
PL6.E3A0      #001=COBOLRW File=COBOLRW.:Z8A6TSI                                 SAT 08/09/97 09:25 Page:179
        17 006135   000003 356100                    ANSQ    3,,PR0

  16546 17 006136   000004 236000 18                 LDQ     4
        17 006137   000003 356100                    ANSQ    3,,PR0

  16547 17 006140   000176 220003                    LDX0    126,DU
        17 006141   000003 440100                    SXL0    3,,PR0

      338    16549        %NEWRSW;
      339    16552        %SEARCH (RWD='DAY-OF-WEEK',            RWNO=%RSV_WRD_DAY_OF_WEEK);

  16556 17 006142   002731 054000 1                  AOS     NUMBER_OF_RESERVED_WORDS

  16557 17 006143   000013 235007                    LDA     11,DL
        17 006144   000010 755000 6                  STA     LEX_SYMBOL+8

  16558 17 006145   040000 100400                    MLR     fill='040'O
        17 006146   000507 000013 16                 ADSC9   327                      cn=0,n=11
        17 006147   000011 000504 6                  ADSC9   LEX_SYMBOL+9             cn=0,n=324

  16559 17 006150   000000 631400 18                 EPPR1   0
        17 006151   000000 701000 xent               TSX1    Z8AH$SEARCH_
        17 006152   000000 011000                    NOP     0

  16560 17 006153   000000 470400 2                  LDP0    DNT$
        17 006154   400000 236003                    LDQ     -131072,DU
        17 006155   000003 256100                    ORSQ    3,,PR0

  16561 17 006156   000001 236000 18                 LDQ     1
        17 006157   000003 356100                    ANSQ    3,,PR0

  16562 17 006160   000002 236000 18                 LDQ     2
        17 006161   000003 356100                    ANSQ    3,,PR0

  16563 17 006162   000003 236000 18                 LDQ     3
        17 006163   000003 356100                    ANSQ    3,,PR0

PL6.E3A0      #001=COBOLRW File=COBOLRW.:Z8A6TSI                                 SAT 08/09/97 09:25 Page:180
  16564 17 006164   000004 236000 18                 LDQ     4
        17 006165   000003 356100                    ANSQ    3,,PR0

  16565 17 006166   000177 220003                    LDX0    127,DU
        17 006167   000003 440100                    SXL0    3,,PR0

      340    16567        %NEWRSW;
      341    16570        %SEARCH (RWD='DB',                     RWNO=%RSV_WRD_DB);

  16574 17 006170   002731 054000 1                  AOS     NUMBER_OF_RESERVED_WORDS

  16575 17 006171   000002 235007                    LDA     2,DL
        17 006172   000010 755000 6                  STA     LEX_SYMBOL+8

  16576 17 006173   040000 100400                    MLR     fill='040'O
        17 006174   000512 000002 16                 ADSC9   330                      cn=0,n=2
        17 006175   000011 000504 6                  ADSC9   LEX_SYMBOL+9             cn=0,n=324

  16577 17 006176   000000 631400 18                 EPPR1   0
        17 006177   000000 701000 xent               TSX1    Z8AH$SEARCH_
        17 006200   000000 011000                    NOP     0

  16578 17 006201   000000 470400 2                  LDP0    DNT$
        17 006202   400000 236003                    LDQ     -131072,DU
        17 006203   000003 256100                    ORSQ    3,,PR0

  16579 17 006204   000001 236000 18                 LDQ     1
        17 006205   000003 356100                    ANSQ    3,,PR0

  16580 17 006206   000002 236000 18                 LDQ     2
        17 006207   000003 356100                    ANSQ    3,,PR0

  16581 17 006210   000003 236000 18                 LDQ     3
        17 006211   000003 356100                    ANSQ    3,,PR0

  16582 17 006212   000004 236000 18                 LDQ     4
        17 006213   000003 356100                    ANSQ    3,,PR0
PL6.E3A0      #001=COBOLRW File=COBOLRW.:Z8A6TSI                                 SAT 08/09/97 09:25 Page:181

  16583 17 006214   000200 220003                    LDX0    128,DU
        17 006215   000003 440100                    SXL0    3,,PR0

      342    16585        %NEWRSW;
      343    16588        %SEARCH (RWD='DB-EXCEPTION',           RWNO=%RSV_WRD_DB_EXCEPTION);

  16592 17 006216   002731 054000 1                  AOS     NUMBER_OF_RESERVED_WORDS

  16593 17 006217   000014 235007                    LDA     12,DL
        17 006220   000010 755000 6                  STA     LEX_SYMBOL+8

  16594 17 006221   040000 100400                    MLR     fill='040'O
        17 006222   000513 000014 16                 ADSC9   331                      cn=0,n=12
        17 006223   000011 000504 6                  ADSC9   LEX_SYMBOL+9             cn=0,n=324

  16595 17 006224   000000 631400 18                 EPPR1   0
        17 006225   000000 701000 xent               TSX1    Z8AH$SEARCH_
        17 006226   000000 011000                    NOP     0

  16596 17 006227   000000 470400 2                  LDP0    DNT$
        17 006230   400000 236003                    LDQ     -131072,DU
        17 006231   000003 256100                    ORSQ    3,,PR0

  16597 17 006232   000001 236000 18                 LDQ     1
        17 006233   000003 356100                    ANSQ    3,,PR0

  16598 17 006234   000002 236000 18                 LDQ     2
        17 006235   000003 356100                    ANSQ    3,,PR0

  16599 17 006236   000003 236000 18                 LDQ     3
        17 006237   000003 356100                    ANSQ    3,,PR0

  16600 17 006240   000004 236000 18                 LDQ     4
        17 006241   000003 356100                    ANSQ    3,,PR0

  16601 17 006242   000201 220003                    LDX0    129,DU
PL6.E3A0      #001=COBOLRW File=COBOLRW.:Z8A6TSI                                 SAT 08/09/97 09:25 Page:182
        17 006243   000003 440100                    SXL0    3,,PR0

      344    16603        %NEWRSW;
      345    16606        %SEARCH (RWD='DB-KEY',                 RWNO=%RSV_WRD_DB_KEY);

  16610 17 006244   002731 054000 1                  AOS     NUMBER_OF_RESERVED_WORDS

  16611 17 006245   000006 235007                    LDA     6,DL
        17 006246   000010 755000 6                  STA     LEX_SYMBOL+8

  16612 17 006247   040000 100400                    MLR     fill='040'O
        17 006250   000516 000006 16                 ADSC9   334                      cn=0,n=6
        17 006251   000011 000504 6                  ADSC9   LEX_SYMBOL+9             cn=0,n=324

  16613 17 006252   000000 631400 18                 EPPR1   0
        17 006253   000000 701000 xent               TSX1    Z8AH$SEARCH_
        17 006254   000000 011000                    NOP     0

  16614 17 006255   000000 470400 2                  LDP0    DNT$
        17 006256   400000 236003                    LDQ     -131072,DU
        17 006257   000003 256100                    ORSQ    3,,PR0

  16615 17 006260   000001 236000 18                 LDQ     1
        17 006261   000003 356100                    ANSQ    3,,PR0

  16616 17 006262   000002 236000 18                 LDQ     2
        17 006263   000003 356100                    ANSQ    3,,PR0

  16617 17 006264   000003 236000 18                 LDQ     3
        17 006265   000003 356100                    ANSQ    3,,PR0

  16618 17 006266   000004 236000 18                 LDQ     4
        17 006267   000003 356100                    ANSQ    3,,PR0

  16619 17 006270   000202 220003                    LDX0    130,DU
        17 006271   000003 440100                    SXL0    3,,PR0

PL6.E3A0      #001=COBOLRW File=COBOLRW.:Z8A6TSI                                 SAT 08/09/97 09:25 Page:183
      346    16621        %NEWRSW;
      347    16624        %SEARCH (RWD='DE',                     RWNO=%RSV_WRD_DE);

  16628 17 006272   002731 054000 1                  AOS     NUMBER_OF_RESERVED_WORDS

  16629 17 006273   000002 235007                    LDA     2,DL
        17 006274   000010 755000 6                  STA     LEX_SYMBOL+8

  16630 17 006275   040000 100400                    MLR     fill='040'O
        17 006276   000520 000002 16                 ADSC9   336                      cn=0,n=2
        17 006277   000011 000504 6                  ADSC9   LEX_SYMBOL+9             cn=0,n=324

  16631 17 006300   000000 631400 18                 EPPR1   0
        17 006301   000000 701000 xent               TSX1    Z8AH$SEARCH_
        17 006302   000000 011000                    NOP     0

  16632 17 006303   000000 470400 2                  LDP0    DNT$
        17 006304   400000 236003                    LDQ     -131072,DU
        17 006305   000003 256100                    ORSQ    3,,PR0

  16633 17 006306   000001 236000 18                 LDQ     1
        17 006307   000003 356100                    ANSQ    3,,PR0

  16634 17 006310   000002 236000 18                 LDQ     2
        17 006311   000003 356100                    ANSQ    3,,PR0

  16635 17 006312   000003 236000 18                 LDQ     3
        17 006313   000003 356100                    ANSQ    3,,PR0

  16636 17 006314   000004 236000 18                 LDQ     4
        17 006315   000003 356100                    ANSQ    3,,PR0

  16637 17 006316   000203 220003                    LDX0    131,DU
        17 006317   000003 440100                    SXL0    3,,PR0

      348    16639        %NEWRSW;
      349    16642        %SEARCH (RWD='DEBUGGING',              RWNO=%RSV_WRD_DEBUGGING);
PL6.E3A0      #001=COBOLRW File=COBOLRW.:Z8A6TSI                                 SAT 08/09/97 09:25 Page:184

  16646 17 006320   002731 054000 1                  AOS     NUMBER_OF_RESERVED_WORDS

  16647 17 006321   000011 235007                    LDA     9,DL
        17 006322   000010 755000 6                  STA     LEX_SYMBOL+8

  16648 17 006323   040000 100400                    MLR     fill='040'O
        17 006324   000521 000011 16                 ADSC9   337                      cn=0,n=9
        17 006325   000011 000504 6                  ADSC9   LEX_SYMBOL+9             cn=0,n=324

  16649 17 006326   000000 631400 18                 EPPR1   0
        17 006327   000000 701000 xent               TSX1    Z8AH$SEARCH_
        17 006330   000000 011000                    NOP     0

  16650 17 006331   000000 470400 2                  LDP0    DNT$
        17 006332   400000 236003                    LDQ     -131072,DU
        17 006333   000003 256100                    ORSQ    3,,PR0

  16651 17 006334   000001 236000 18                 LDQ     1
        17 006335   000003 356100                    ANSQ    3,,PR0

  16652 17 006336   000002 236000 18                 LDQ     2
        17 006337   000003 356100                    ANSQ    3,,PR0

  16653 17 006340   000003 236000 18                 LDQ     3
        17 006341   000003 356100                    ANSQ    3,,PR0

  16654 17 006342   000004 236000 18                 LDQ     4
        17 006343   000003 356100                    ANSQ    3,,PR0

  16655 17 006344   000204 220003                    LDX0    132,DU
        17 006345   000003 440100                    SXL0    3,,PR0

      350    16657        %NEWRSW;
      351    16660        %SEARCH (RWD='DECIMAL-POINT',          RWNO=%RSV_WRD_DECIMAL_POINT);

  16664 17 006346   002731 054000 1                  AOS     NUMBER_OF_RESERVED_WORDS
PL6.E3A0      #001=COBOLRW File=COBOLRW.:Z8A6TSI                                 SAT 08/09/97 09:25 Page:185

  16665 17 006347   000015 235007                    LDA     13,DL
        17 006350   000010 755000 6                  STA     LEX_SYMBOL+8

  16666 17 006351   040000 100400                    MLR     fill='040'O
        17 006352   000524 000015 16                 ADSC9   340                      cn=0,n=13
        17 006353   000011 000504 6                  ADSC9   LEX_SYMBOL+9             cn=0,n=324

  16667 17 006354   000000 631400 18                 EPPR1   0
        17 006355   000000 701000 xent               TSX1    Z8AH$SEARCH_
        17 006356   000000 011000                    NOP     0

  16668 17 006357   000000 470400 2                  LDP0    DNT$
        17 006360   400000 236003                    LDQ     -131072,DU
        17 006361   000003 256100                    ORSQ    3,,PR0

  16669 17 006362   000001 236000 18                 LDQ     1
        17 006363   000003 356100                    ANSQ    3,,PR0

  16670 17 006364   000002 236000 18                 LDQ     2
        17 006365   000003 356100                    ANSQ    3,,PR0

  16671 17 006366   000003 236000 18                 LDQ     3
        17 006367   000003 356100                    ANSQ    3,,PR0

  16672 17 006370   000004 236000 18                 LDQ     4
        17 006371   000003 356100                    ANSQ    3,,PR0

  16673 17 006372   000205 220003                    LDX0    133,DU
        17 006373   000003 440100                    SXL0    3,,PR0

      352    16675        %NEWRSW;
      353    16678        %SEARCH (RWD='DECLARATIVES',           RWNO=%RSV_WRD_DECLARATIVES, AREAA=TRUE);

  16682 17 006374   002731 054000 1                  AOS     NUMBER_OF_RESERVED_WORDS

  16683 17 006375   000014 235007                    LDA     12,DL
PL6.E3A0      #001=COBOLRW File=COBOLRW.:Z8A6TSI                                 SAT 08/09/97 09:25 Page:186
        17 006376   000010 755000 6                  STA     LEX_SYMBOL+8

  16684 17 006377   040000 100400                    MLR     fill='040'O
        17 006400   000530 000014 16                 ADSC9   344                      cn=0,n=12
        17 006401   000011 000504 6                  ADSC9   LEX_SYMBOL+9             cn=0,n=324

  16685 17 006402   000000 631400 18                 EPPR1   0
        17 006403   000000 701000 xent               TSX1    Z8AH$SEARCH_
        17 006404   000000 011000                    NOP     0

  16686 17 006405   000000 470400 2                  LDP0    DNT$
        17 006406   400000 236003                    LDQ     -131072,DU
        17 006407   000003 256100                    ORSQ    3,,PR0

  16687 17 006410   000001 236000 18                 LDQ     1
        17 006411   000003 356100                    ANSQ    3,,PR0

  16688 17 006412   000200 236003                    LDQ     128,DU
        17 006413   000003 256100                    ORSQ    3,,PR0

  16689 17 006414   000003 236000 18                 LDQ     3
        17 006415   000003 356100                    ANSQ    3,,PR0

  16690 17 006416   000004 236000 18                 LDQ     4
        17 006417   000003 356100                    ANSQ    3,,PR0

  16691 17 006420   000206 220003                    LDX0    134,DU
        17 006421   000003 440100                    SXL0    3,,PR0

      354    16693        %NEWRSW;
      355    16696        %SEARCH (RWD='DEFAULT',                RWNO=%RSV_WRD_DEFAULT);

  16700 17 006422   002731 054000 1                  AOS     NUMBER_OF_RESERVED_WORDS

  16701 17 006423   000007 235007                    LDA     7,DL
        17 006424   000010 755000 6                  STA     LEX_SYMBOL+8

PL6.E3A0      #001=COBOLRW File=COBOLRW.:Z8A6TSI                                 SAT 08/09/97 09:25 Page:187
  16702 17 006425   040000 100400                    MLR     fill='040'O
        17 006426   000533 000007 16                 ADSC9   347                      cn=0,n=7
        17 006427   000011 000504 6                  ADSC9   LEX_SYMBOL+9             cn=0,n=324

  16703 17 006430   000000 631400 18                 EPPR1   0
        17 006431   000000 701000 xent               TSX1    Z8AH$SEARCH_
        17 006432   000000 011000                    NOP     0

  16704 17 006433   000000 470400 2                  LDP0    DNT$
        17 006434   400000 236003                    LDQ     -131072,DU
        17 006435   000003 256100                    ORSQ    3,,PR0

  16705 17 006436   000001 236000 18                 LDQ     1
        17 006437   000003 356100                    ANSQ    3,,PR0

  16706 17 006440   000002 236000 18                 LDQ     2
        17 006441   000003 356100                    ANSQ    3,,PR0

  16707 17 006442   000003 236000 18                 LDQ     3
        17 006443   000003 356100                    ANSQ    3,,PR0

  16708 17 006444   000004 236000 18                 LDQ     4
        17 006445   000003 356100                    ANSQ    3,,PR0

  16709 17 006446   000207 220003                    LDX0    135,DU
        17 006447   000003 440100                    SXL0    3,,PR0

      356    16711        %NEWRSW;
      357    16714        %SEARCH (RWD='DELETE',                 RWNO=%RSV_WRD_DELETE);

  16718 17 006450   002731 054000 1                  AOS     NUMBER_OF_RESERVED_WORDS

  16719 17 006451   000006 235007                    LDA     6,DL
        17 006452   000010 755000 6                  STA     LEX_SYMBOL+8

  16720 17 006453   040000 100400                    MLR     fill='040'O
        17 006454   000535 000006 16                 ADSC9   349                      cn=0,n=6
PL6.E3A0      #001=COBOLRW File=COBOLRW.:Z8A6TSI                                 SAT 08/09/97 09:25 Page:188
        17 006455   000011 000504 6                  ADSC9   LEX_SYMBOL+9             cn=0,n=324

  16721 17 006456   000000 631400 18                 EPPR1   0
        17 006457   000000 701000 xent               TSX1    Z8AH$SEARCH_
        17 006460   000000 011000                    NOP     0

  16722 17 006461   000000 470400 2                  LDP0    DNT$
        17 006462   400000 236003                    LDQ     -131072,DU
        17 006463   000003 256100                    ORSQ    3,,PR0

  16723 17 006464   000001 236000 18                 LDQ     1
        17 006465   000003 356100                    ANSQ    3,,PR0

  16724 17 006466   000002 236000 18                 LDQ     2
        17 006467   000003 356100                    ANSQ    3,,PR0

  16725 17 006470   000003 236000 18                 LDQ     3
        17 006471   000003 356100                    ANSQ    3,,PR0

  16726 17 006472   000004 236000 18                 LDQ     4
        17 006473   000003 356100                    ANSQ    3,,PR0

  16727 17 006474   000210 220003                    LDX0    136,DU
        17 006475   000003 440100                    SXL0    3,,PR0

      358    16729        %NEWRSW;
      359    16732        %SEARCH (RWD='DELIMITED',              RWNO=%RSV_WRD_DELIMITED);

  16736 17 006476   002731 054000 1                  AOS     NUMBER_OF_RESERVED_WORDS

  16737 17 006477   000011 235007                    LDA     9,DL
        17 006500   000010 755000 6                  STA     LEX_SYMBOL+8

  16738 17 006501   040000 100400                    MLR     fill='040'O
        17 006502   000537 000011 16                 ADSC9   351                      cn=0,n=9
        17 006503   000011 000504 6                  ADSC9   LEX_SYMBOL+9             cn=0,n=324

PL6.E3A0      #001=COBOLRW File=COBOLRW.:Z8A6TSI                                 SAT 08/09/97 09:25 Page:189
  16739 17 006504   000000 631400 18                 EPPR1   0
        17 006505   000000 701000 xent               TSX1    Z8AH$SEARCH_
        17 006506   000000 011000                    NOP     0

  16740 17 006507   000000 470400 2                  LDP0    DNT$
        17 006510   400000 236003                    LDQ     -131072,DU
        17 006511   000003 256100                    ORSQ    3,,PR0

  16741 17 006512   000001 236000 18                 LDQ     1
        17 006513   000003 356100                    ANSQ    3,,PR0

  16742 17 006514   000002 236000 18                 LDQ     2
        17 006515   000003 356100                    ANSQ    3,,PR0

  16743 17 006516   000003 236000 18                 LDQ     3
        17 006517   000003 356100                    ANSQ    3,,PR0

  16744 17 006520   000004 236000 18                 LDQ     4
        17 006521   000003 356100                    ANSQ    3,,PR0

  16745 17 006522   000211 220003                    LDX0    137,DU
        17 006523   000003 440100                    SXL0    3,,PR0

      360    16747        %NEWRSW;
      361    16750        %SEARCH (RWD='DELIMITER',              RWNO=%RSV_WRD_DELIMITER);

  16754 17 006524   002731 054000 1                  AOS     NUMBER_OF_RESERVED_WORDS

  16755 17 006525   000011 235007                    LDA     9,DL
        17 006526   000010 755000 6                  STA     LEX_SYMBOL+8

  16756 17 006527   040000 100400                    MLR     fill='040'O
        17 006530   000542 000011 16                 ADSC9   354                      cn=0,n=9
        17 006531   000011 000504 6                  ADSC9   LEX_SYMBOL+9             cn=0,n=324

  16757 17 006532   000000 631400 18                 EPPR1   0
        17 006533   000000 701000 xent               TSX1    Z8AH$SEARCH_
PL6.E3A0      #001=COBOLRW File=COBOLRW.:Z8A6TSI                                 SAT 08/09/97 09:25 Page:190
        17 006534   000000 011000                    NOP     0

  16758 17 006535   000000 470400 2                  LDP0    DNT$
        17 006536   400000 236003                    LDQ     -131072,DU
        17 006537   000003 256100                    ORSQ    3,,PR0

  16759 17 006540   000001 236000 18                 LDQ     1
        17 006541   000003 356100                    ANSQ    3,,PR0

  16760 17 006542   000002 236000 18                 LDQ     2
        17 006543   000003 356100                    ANSQ    3,,PR0

  16761 17 006544   000003 236000 18                 LDQ     3
        17 006545   000003 356100                    ANSQ    3,,PR0

  16762 17 006546   000004 236000 18                 LDQ     4
        17 006547   000003 356100                    ANSQ    3,,PR0

  16763 17 006550   000212 220003                    LDX0    138,DU
        17 006551   000003 440100                    SXL0    3,,PR0

      362    16765        %NEWRSW;
      363    16768        %SEARCH (RWD='DENSITY',                RWNO=%RSV_WRD_DENSITY);

  16772 17 006552   002731 054000 1                  AOS     NUMBER_OF_RESERVED_WORDS

  16773 17 006553   000007 235007                    LDA     7,DL
        17 006554   000010 755000 6                  STA     LEX_SYMBOL+8

  16774 17 006555   040000 100400                    MLR     fill='040'O
        17 006556   000545 000007 16                 ADSC9   357                      cn=0,n=7
        17 006557   000011 000504 6                  ADSC9   LEX_SYMBOL+9             cn=0,n=324

  16775 17 006560   000000 631400 18                 EPPR1   0
        17 006561   000000 701000 xent               TSX1    Z8AH$SEARCH_
        17 006562   000000 011000                    NOP     0

PL6.E3A0      #001=COBOLRW File=COBOLRW.:Z8A6TSI                                 SAT 08/09/97 09:25 Page:191
  16776 17 006563   000000 470400 2                  LDP0    DNT$
        17 006564   400000 236003                    LDQ     -131072,DU
        17 006565   000003 256100                    ORSQ    3,,PR0

  16777 17 006566   000001 236000 18                 LDQ     1
        17 006567   000003 356100                    ANSQ    3,,PR0

  16778 17 006570   000002 236000 18                 LDQ     2
        17 006571   000003 356100                    ANSQ    3,,PR0

  16779 17 006572   000003 236000 18                 LDQ     3
        17 006573   000003 356100                    ANSQ    3,,PR0

  16780 17 006574   000004 236000 18                 LDQ     4
        17 006575   000003 356100                    ANSQ    3,,PR0

  16781 17 006576   000213 220003                    LDX0    139,DU
        17 006577   000003 440100                    SXL0    3,,PR0

      364    16783        %NEWRSW;
      365    16786        %SEARCH (RWD='DEPENDING',              RWNO=%RSV_WRD_DEPENDING);

  16790 17 006600   002731 054000 1                  AOS     NUMBER_OF_RESERVED_WORDS

  16791 17 006601   000011 235007                    LDA     9,DL
        17 006602   000010 755000 6                  STA     LEX_SYMBOL+8

  16792 17 006603   040000 100400                    MLR     fill='040'O
        17 006604   000547 000011 16                 ADSC9   359                      cn=0,n=9
        17 006605   000011 000504 6                  ADSC9   LEX_SYMBOL+9             cn=0,n=324

  16793 17 006606   000000 631400 18                 EPPR1   0
        17 006607   000000 701000 xent               TSX1    Z8AH$SEARCH_
        17 006610   000000 011000                    NOP     0

  16794 17 006611   000000 470400 2                  LDP0    DNT$
        17 006612   400000 236003                    LDQ     -131072,DU
PL6.E3A0      #001=COBOLRW File=COBOLRW.:Z8A6TSI                                 SAT 08/09/97 09:25 Page:192
        17 006613   000003 256100                    ORSQ    3,,PR0

  16795 17 006614   000001 236000 18                 LDQ     1
        17 006615   000003 356100                    ANSQ    3,,PR0

  16796 17 006616   000002 236000 18                 LDQ     2
        17 006617   000003 356100                    ANSQ    3,,PR0

  16797 17 006620   000003 236000 18                 LDQ     3
        17 006621   000003 356100                    ANSQ    3,,PR0

  16798 17 006622   000004 236000 18                 LDQ     4
        17 006623   000003 356100                    ANSQ    3,,PR0

  16799 17 006624   000214 220003                    LDX0    140,DU
        17 006625   000003 440100                    SXL0    3,,PR0

      366    16801        %NEWRSW;
      367    16804        %SEARCH (RWD='DESCENDING',             RWNO=%RSV_WRD_DESCENDING);

  16808 17 006626   002731 054000 1                  AOS     NUMBER_OF_RESERVED_WORDS

  16809 17 006627   000012 235007                    LDA     10,DL
        17 006630   000010 755000 6                  STA     LEX_SYMBOL+8

  16810 17 006631   040000 100400                    MLR     fill='040'O
        17 006632   000552 000012 16                 ADSC9   362                      cn=0,n=10
        17 006633   000011 000504 6                  ADSC9   LEX_SYMBOL+9             cn=0,n=324

  16811 17 006634   000000 631400 18                 EPPR1   0
        17 006635   000000 701000 xent               TSX1    Z8AH$SEARCH_
        17 006636   000000 011000                    NOP     0

  16812 17 006637   000000 470400 2                  LDP0    DNT$
        17 006640   400000 236003                    LDQ     -131072,DU
        17 006641   000003 256100                    ORSQ    3,,PR0

PL6.E3A0      #001=COBOLRW File=COBOLRW.:Z8A6TSI                                 SAT 08/09/97 09:25 Page:193
  16813 17 006642   000001 236000 18                 LDQ     1
        17 006643   000003 356100                    ANSQ    3,,PR0

  16814 17 006644   000002 236000 18                 LDQ     2
        17 006645   000003 356100                    ANSQ    3,,PR0

  16815 17 006646   000003 236000 18                 LDQ     3
        17 006647   000003 356100                    ANSQ    3,,PR0

  16816 17 006650   000004 236000 18                 LDQ     4
        17 006651   000003 356100                    ANSQ    3,,PR0

  16817 17 006652   000215 220003                    LDX0    141,DU
        17 006653   000003 440100                    SXL0    3,,PR0

      368    16819        %NEWRSW;
      369    16822        %SEARCH (RWD='DESCRIPTORS',            RWNO=%RSV_WRD_DESCRIPTORS);

  16826 17 006654   002731 054000 1                  AOS     NUMBER_OF_RESERVED_WORDS

  16827 17 006655   000013 235007                    LDA     11,DL
        17 006656   000010 755000 6                  STA     LEX_SYMBOL+8

  16828 17 006657   040000 100400                    MLR     fill='040'O
        17 006660   000555 000013 16                 ADSC9   365                      cn=0,n=11
        17 006661   000011 000504 6                  ADSC9   LEX_SYMBOL+9             cn=0,n=324

  16829 17 006662   000000 631400 18                 EPPR1   0
        17 006663   000000 701000 xent               TSX1    Z8AH$SEARCH_
        17 006664   000000 011000                    NOP     0

  16830 17 006665   000000 470400 2                  LDP0    DNT$
        17 006666   400000 236003                    LDQ     -131072,DU
        17 006667   000003 256100                    ORSQ    3,,PR0

  16831 17 006670   000001 236000 18                 LDQ     1
        17 006671   000003 356100                    ANSQ    3,,PR0
PL6.E3A0      #001=COBOLRW File=COBOLRW.:Z8A6TSI                                 SAT 08/09/97 09:25 Page:194

  16832 17 006672   000002 236000 18                 LDQ     2
        17 006673   000003 356100                    ANSQ    3,,PR0

  16833 17 006674   000003 236000 18                 LDQ     3
        17 006675   000003 356100                    ANSQ    3,,PR0

  16834 17 006676   000004 236000 18                 LDQ     4
        17 006677   000003 356100                    ANSQ    3,,PR0

  16835 17 006700   000216 220003                    LDX0    142,DU
        17 006701   000003 440100                    SXL0    3,,PR0

      370    16837        %NEWRSW;
      371    16840        %SEARCH (RWD='DESTINATION',            RWNO=%RSV_WRD_DESTINATION);

  16844 17 006702   002731 054000 1                  AOS     NUMBER_OF_RESERVED_WORDS

  16845 17 006703   000013 235007                    LDA     11,DL
        17 006704   000010 755000 6                  STA     LEX_SYMBOL+8

  16846 17 006705   040000 100400                    MLR     fill='040'O
        17 006706   000560 000013 16                 ADSC9   368                      cn=0,n=11
        17 006707   000011 000504 6                  ADSC9   LEX_SYMBOL+9             cn=0,n=324

  16847 17 006710   000000 631400 18                 EPPR1   0
        17 006711   000000 701000 xent               TSX1    Z8AH$SEARCH_
        17 006712   000000 011000                    NOP     0

  16848 17 006713   000000 470400 2                  LDP0    DNT$
        17 006714   400000 236003                    LDQ     -131072,DU
        17 006715   000003 256100                    ORSQ    3,,PR0

  16849 17 006716   000001 236000 18                 LDQ     1
        17 006717   000003 356100                    ANSQ    3,,PR0

  16850 17 006720   000002 236000 18                 LDQ     2
PL6.E3A0      #001=COBOLRW File=COBOLRW.:Z8A6TSI                                 SAT 08/09/97 09:25 Page:195
        17 006721   000003 356100                    ANSQ    3,,PR0

  16851 17 006722   000003 236000 18                 LDQ     3
        17 006723   000003 356100                    ANSQ    3,,PR0

  16852 17 006724   000004 236000 18                 LDQ     4
        17 006725   000003 356100                    ANSQ    3,,PR0

  16853 17 006726   000217 220003                    LDX0    143,DU
        17 006727   000003 440100                    SXL0    3,,PR0

      372    16855        %NEWRSW;
      373    16858        %SEARCH (RWD='DETACH',                 RWNO=%RSV_WRD_DETACH);

  16862 17 006730   002731 054000 1                  AOS     NUMBER_OF_RESERVED_WORDS

  16863 17 006731   000006 235007                    LDA     6,DL
        17 006732   000010 755000 6                  STA     LEX_SYMBOL+8

  16864 17 006733   040000 100400                    MLR     fill='040'O
        17 006734   000563 000006 16                 ADSC9   371                      cn=0,n=6
        17 006735   000011 000504 6                  ADSC9   LEX_SYMBOL+9             cn=0,n=324

  16865 17 006736   000000 631400 18                 EPPR1   0
        17 006737   000000 701000 xent               TSX1    Z8AH$SEARCH_
        17 006740   000000 011000                    NOP     0

  16866 17 006741   000000 470400 2                  LDP0    DNT$
        17 006742   400000 236003                    LDQ     -131072,DU
        17 006743   000003 256100                    ORSQ    3,,PR0

  16867 17 006744   000001 236000 18                 LDQ     1
        17 006745   000003 356100                    ANSQ    3,,PR0

  16868 17 006746   000002 236000 18                 LDQ     2
        17 006747   000003 356100                    ANSQ    3,,PR0

PL6.E3A0      #001=COBOLRW File=COBOLRW.:Z8A6TSI                                 SAT 08/09/97 09:25 Page:196
  16869 17 006750   000003 236000 18                 LDQ     3
        17 006751   000003 356100                    ANSQ    3,,PR0

  16870 17 006752   000004 236000 18                 LDQ     4
        17 006753   000003 356100                    ANSQ    3,,PR0

  16871 17 006754   000220 220003                    LDX0    144,DU
        17 006755   000003 440100                    SXL0    3,,PR0

      374    16873        %NEWRSW;
      375    16876        %SEARCH (RWD='DETAIL',                 RWNO=%RSV_WRD_DETAIL);

  16880 17 006756   002731 054000 1                  AOS     NUMBER_OF_RESERVED_WORDS

  16881 17 006757   000006 235007                    LDA     6,DL
        17 006760   000010 755000 6                  STA     LEX_SYMBOL+8

  16882 17 006761   040000 100400                    MLR     fill='040'O
        17 006762   000565 000006 16                 ADSC9   373                      cn=0,n=6
        17 006763   000011 000504 6                  ADSC9   LEX_SYMBOL+9             cn=0,n=324

  16883 17 006764   000000 631400 18                 EPPR1   0
        17 006765   000000 701000 xent               TSX1    Z8AH$SEARCH_
        17 006766   000000 011000                    NOP     0

  16884 17 006767   000000 470400 2                  LDP0    DNT$
        17 006770   400000 236003                    LDQ     -131072,DU
        17 006771   000003 256100                    ORSQ    3,,PR0

  16885 17 006772   000001 236000 18                 LDQ     1
        17 006773   000003 356100                    ANSQ    3,,PR0

  16886 17 006774   000002 236000 18                 LDQ     2
        17 006775   000003 356100                    ANSQ    3,,PR0

  16887 17 006776   000003 236000 18                 LDQ     3
        17 006777   000003 356100                    ANSQ    3,,PR0
PL6.E3A0      #001=COBOLRW File=COBOLRW.:Z8A6TSI                                 SAT 08/09/97 09:25 Page:197

  16888 17 007000   000004 236000 18                 LDQ     4
        17 007001   000003 356100                    ANSQ    3,,PR0

  16889 17 007002   000221 220003                    LDX0    145,DU
        17 007003   000003 440100                    SXL0    3,,PR0

      376    16891        %NEWRSW;
      377    16894        %SEARCH (RWD='DEVICE',                 RWNO=%RSV_WRD_DEVICE);

  16898 17 007004   002731 054000 1                  AOS     NUMBER_OF_RESERVED_WORDS

  16899 17 007005   000006 235007                    LDA     6,DL
        17 007006   000010 755000 6                  STA     LEX_SYMBOL+8

  16900 17 007007   040000 100400                    MLR     fill='040'O
        17 007010   000567 000006 16                 ADSC9   375                      cn=0,n=6
        17 007011   000011 000504 6                  ADSC9   LEX_SYMBOL+9             cn=0,n=324

  16901 17 007012   000000 631400 18                 EPPR1   0
        17 007013   000000 701000 xent               TSX1    Z8AH$SEARCH_
        17 007014   000000 011000                    NOP     0

  16902 17 007015   000000 470400 2                  LDP0    DNT$
        17 007016   400000 236003                    LDQ     -131072,DU
        17 007017   000003 256100                    ORSQ    3,,PR0

  16903 17 007020   000001 236000 18                 LDQ     1
        17 007021   000003 356100                    ANSQ    3,,PR0

  16904 17 007022   000002 236000 18                 LDQ     2
        17 007023   000003 356100                    ANSQ    3,,PR0

  16905 17 007024   000003 236000 18                 LDQ     3
        17 007025   000003 356100                    ANSQ    3,,PR0

  16906 17 007026   000004 236000 18                 LDQ     4
PL6.E3A0      #001=COBOLRW File=COBOLRW.:Z8A6TSI                                 SAT 08/09/97 09:25 Page:198
        17 007027   000003 356100                    ANSQ    3,,PR0

  16907 17 007030   000222 220003                    LDX0    146,DU
        17 007031   000003 440100                    SXL0    3,,PR0

      378    16909        %NEWRSW;
      379    16912        %SEARCH (RWD='DISABLE',                RWNO=%RSV_WRD_DISABLE);

  16916 17 007032   002731 054000 1                  AOS     NUMBER_OF_RESERVED_WORDS

  16917 17 007033   000007 235007                    LDA     7,DL
        17 007034   000010 755000 6                  STA     LEX_SYMBOL+8

  16918 17 007035   040000 100400                    MLR     fill='040'O
        17 007036   000571 000007 16                 ADSC9   377                      cn=0,n=7
        17 007037   000011 000504 6                  ADSC9   LEX_SYMBOL+9             cn=0,n=324

  16919 17 007040   000000 631400 18                 EPPR1   0
        17 007041   000000 701000 xent               TSX1    Z8AH$SEARCH_
        17 007042   000000 011000                    NOP     0

  16920 17 007043   000000 470400 2                  LDP0    DNT$
        17 007044   400000 236003                    LDQ     -131072,DU
        17 007045   000003 256100                    ORSQ    3,,PR0

  16921 17 007046   000001 236000 18                 LDQ     1
        17 007047   000003 356100                    ANSQ    3,,PR0

  16922 17 007050   000002 236000 18                 LDQ     2
        17 007051   000003 356100                    ANSQ    3,,PR0

  16923 17 007052   000003 236000 18                 LDQ     3
        17 007053   000003 356100                    ANSQ    3,,PR0

  16924 17 007054   000004 236000 18                 LDQ     4
        17 007055   000003 356100                    ANSQ    3,,PR0

PL6.E3A0      #001=COBOLRW File=COBOLRW.:Z8A6TSI                                 SAT 08/09/97 09:25 Page:199
  16925 17 007056   000223 220003                    LDX0    147,DU
        17 007057   000003 440100                    SXL0    3,,PR0

      380    16927        %NEWRSW;
      381    16930        %SEARCH (RWD='DISCONNECT',             RWNO=%RSV_WRD_DISCONNECT);

  16934 17 007060   002731 054000 1                  AOS     NUMBER_OF_RESERVED_WORDS

  16935 17 007061   000012 235007                    LDA     10,DL
        17 007062   000010 755000 6                  STA     LEX_SYMBOL+8

  16936 17 007063   040000 100400                    MLR     fill='040'O
        17 007064   000573 000012 16                 ADSC9   379                      cn=0,n=10
        17 007065   000011 000504 6                  ADSC9   LEX_SYMBOL+9             cn=0,n=324

  16937 17 007066   000000 631400 18                 EPPR1   0
        17 007067   000000 701000 xent               TSX1    Z8AH$SEARCH_
        17 007070   000000 011000                    NOP     0

  16938 17 007071   000000 470400 2                  LDP0    DNT$
        17 007072   400000 236003                    LDQ     -131072,DU
        17 007073   000003 256100                    ORSQ    3,,PR0

  16939 17 007074   000001 236000 18                 LDQ     1
        17 007075   000003 356100                    ANSQ    3,,PR0

  16940 17 007076   000002 236000 18                 LDQ     2
        17 007077   000003 356100                    ANSQ    3,,PR0

  16941 17 007100   000003 236000 18                 LDQ     3
        17 007101   000003 356100                    ANSQ    3,,PR0

  16942 17 007102   000004 236000 18                 LDQ     4
        17 007103   000003 356100                    ANSQ    3,,PR0

  16943 17 007104   000224 220003                    LDX0    148,DU
        17 007105   000003 440100                    SXL0    3,,PR0
PL6.E3A0      #001=COBOLRW File=COBOLRW.:Z8A6TSI                                 SAT 08/09/97 09:25 Page:200

      382    16945        %NEWRSW;
      383    16948        %SEARCH (RWD='DISPLAY',                RWNO=%RSV_WRD_DISPLAY);

  16952 17 007106   002731 054000 1                  AOS     NUMBER_OF_RESERVED_WORDS

  16953 17 007107   000007 235007                    LDA     7,DL
        17 007110   000010 755000 6                  STA     LEX_SYMBOL+8

  16954 17 007111   040000 100400                    MLR     fill='040'O
        17 007112   000576 000007 16                 ADSC9   382                      cn=0,n=7
        17 007113   000011 000504 6                  ADSC9   LEX_SYMBOL+9             cn=0,n=324

  16955 17 007114   000000 631400 18                 EPPR1   0
        17 007115   000000 701000 xent               TSX1    Z8AH$SEARCH_
        17 007116   000000 011000                    NOP     0

  16956 17 007117   000000 470400 2                  LDP0    DNT$
        17 007120   400000 236003                    LDQ     -131072,DU
        17 007121   000003 256100                    ORSQ    3,,PR0

  16957 17 007122   000001 236000 18                 LDQ     1
        17 007123   000003 356100                    ANSQ    3,,PR0

  16958 17 007124   000002 236000 18                 LDQ     2
        17 007125   000003 356100                    ANSQ    3,,PR0

  16959 17 007126   000003 236000 18                 LDQ     3
        17 007127   000003 356100                    ANSQ    3,,PR0

  16960 17 007130   000004 236000 18                 LDQ     4
        17 007131   000003 356100                    ANSQ    3,,PR0

  16961 17 007132   000225 220003                    LDX0    149,DU
        17 007133   000003 440100                    SXL0    3,,PR0

      384    16963        %NEWRSW;
PL6.E3A0      #001=COBOLRW File=COBOLRW.:Z8A6TSI                                 SAT 08/09/97 09:25 Page:201
      385    16966        %SEARCH (RWD='DISPLAY_1',              RWNO=%RSV_WRD_DISPLAY_1);

  16970 17 007134   002731 054000 1                  AOS     NUMBER_OF_RESERVED_WORDS

  16971 17 007135   000011 235007                    LDA     9,DL
        17 007136   000010 755000 6                  STA     LEX_SYMBOL+8

  16972 17 007137   040000 100400                    MLR     fill='040'O
        17 007140   000600 000011 16                 ADSC9   384                      cn=0,n=9
        17 007141   000011 000504 6                  ADSC9   LEX_SYMBOL+9             cn=0,n=324

  16973 17 007142   000000 631400 18                 EPPR1   0
        17 007143   000000 701000 xent               TSX1    Z8AH$SEARCH_
        17 007144   000000 011000                    NOP     0

  16974 17 007145   000000 470400 2                  LDP0    DNT$
        17 007146   400000 236003                    LDQ     -131072,DU
        17 007147   000003 256100                    ORSQ    3,,PR0

  16975 17 007150   000001 236000 18                 LDQ     1
        17 007151   000003 356100                    ANSQ    3,,PR0

  16976 17 007152   000002 236000 18                 LDQ     2
        17 007153   000003 356100                    ANSQ    3,,PR0

  16977 17 007154   000003 236000 18                 LDQ     3
        17 007155   000003 356100                    ANSQ    3,,PR0

  16978 17 007156   000004 236000 18                 LDQ     4
        17 007157   000003 356100                    ANSQ    3,,PR0

  16979 17 007160   000226 220003                    LDX0    150,DU
        17 007161   000003 440100                    SXL0    3,,PR0

      386    16981        %NEWRSW;
      387    16984        %SEARCH (RWD='DISPLAY-2',              RWNO=%RSV_WRD_DISPLAY_2);

PL6.E3A0      #001=COBOLRW File=COBOLRW.:Z8A6TSI                                 SAT 08/09/97 09:25 Page:202
  16988 17 007162   002731 054000 1                  AOS     NUMBER_OF_RESERVED_WORDS

  16989 17 007163   000011 235007                    LDA     9,DL
        17 007164   000010 755000 6                  STA     LEX_SYMBOL+8

  16990 17 007165   040000 100400                    MLR     fill='040'O
        17 007166   000603 000011 16                 ADSC9   387                      cn=0,n=9
        17 007167   000011 000504 6                  ADSC9   LEX_SYMBOL+9             cn=0,n=324

  16991 17 007170   000000 631400 18                 EPPR1   0
        17 007171   000000 701000 xent               TSX1    Z8AH$SEARCH_
        17 007172   000000 011000                    NOP     0

  16992 17 007173   000000 470400 2                  LDP0    DNT$
        17 007174   400000 236003                    LDQ     -131072,DU
        17 007175   000003 256100                    ORSQ    3,,PR0

  16993 17 007176   000001 236000 18                 LDQ     1
        17 007177   000003 356100                    ANSQ    3,,PR0

  16994 17 007200   000002 236000 18                 LDQ     2
        17 007201   000003 356100                    ANSQ    3,,PR0

  16995 17 007202   000003 236000 18                 LDQ     3
        17 007203   000003 356100                    ANSQ    3,,PR0

  16996 17 007204   000004 236000 18                 LDQ     4
        17 007205   000003 356100                    ANSQ    3,,PR0

  16997 17 007206   000227 220003                    LDX0    151,DU
        17 007207   000003 440100                    SXL0    3,,PR0

      388    16999        %NEWRSW;
      389    17002        %SEARCH (RWD='DIVIDE',                 RWNO=%RSV_WRD_DIVIDE);

  17006 17 007210   002731 054000 1                  AOS     NUMBER_OF_RESERVED_WORDS

PL6.E3A0      #001=COBOLRW File=COBOLRW.:Z8A6TSI                                 SAT 08/09/97 09:25 Page:203
  17007 17 007211   000006 235007                    LDA     6,DL
        17 007212   000010 755000 6                  STA     LEX_SYMBOL+8

  17008 17 007213   040000 100400                    MLR     fill='040'O
        17 007214   000606 000006 16                 ADSC9   390                      cn=0,n=6
        17 007215   000011 000504 6                  ADSC9   LEX_SYMBOL+9             cn=0,n=324

  17009 17 007216   000000 631400 18                 EPPR1   0
        17 007217   000000 701000 xent               TSX1    Z8AH$SEARCH_
        17 007220   000000 011000                    NOP     0

  17010 17 007221   000000 470400 2                  LDP0    DNT$
        17 007222   400000 236003                    LDQ     -131072,DU
        17 007223   000003 256100                    ORSQ    3,,PR0

  17011 17 007224   000001 236000 18                 LDQ     1
        17 007225   000003 356100                    ANSQ    3,,PR0

  17012 17 007226   000002 236000 18                 LDQ     2
        17 007227   000003 356100                    ANSQ    3,,PR0

  17013 17 007230   000003 236000 18                 LDQ     3
        17 007231   000003 356100                    ANSQ    3,,PR0

  17014 17 007232   000004 236000 18                 LDQ     4
        17 007233   000003 356100                    ANSQ    3,,PR0

  17015 17 007234   000230 220003                    LDX0    152,DU
        17 007235   000003 440100                    SXL0    3,,PR0

      390    17017        %NEWRSW;
      391    17020        %SEARCH (RWD='DIVISION',               RWNO=%RSV_WRD_DIVISION);

  17024 17 007236   002731 054000 1                  AOS     NUMBER_OF_RESERVED_WORDS

  17025 17 007237   000010 235007                    LDA     8,DL
        17 007240   000010 755000 6                  STA     LEX_SYMBOL+8
PL6.E3A0      #001=COBOLRW File=COBOLRW.:Z8A6TSI                                 SAT 08/09/97 09:25 Page:204

  17026 17 007241   040000 100400                    MLR     fill='040'O
        17 007242   000610 000010 16                 ADSC9   392                      cn=0,n=8
        17 007243   000011 000504 6                  ADSC9   LEX_SYMBOL+9             cn=0,n=324

  17027 17 007244   000000 631400 18                 EPPR1   0
        17 007245   000000 701000 xent               TSX1    Z8AH$SEARCH_
        17 007246   000000 011000                    NOP     0

  17028 17 007247   000000 470400 2                  LDP0    DNT$
        17 007250   400000 236003                    LDQ     -131072,DU
        17 007251   000003 256100                    ORSQ    3,,PR0

  17029 17 007252   000001 236000 18                 LDQ     1
        17 007253   000003 356100                    ANSQ    3,,PR0

  17030 17 007254   000002 236000 18                 LDQ     2
        17 007255   000003 356100                    ANSQ    3,,PR0

  17031 17 007256   000003 236000 18                 LDQ     3
        17 007257   000003 356100                    ANSQ    3,,PR0

  17032 17 007260   000004 236000 18                 LDQ     4
        17 007261   000003 356100                    ANSQ    3,,PR0

  17033 17 007262   000231 220003                    LDX0    153,DU
        17 007263   000003 440100                    SXL0    3,,PR0

      392    17035        %NEWRSW;
      393    17038        %SEARCH (RWD='DOWN',                   RWNO=%RSV_WRD_DOWN);

  17042 17 007264   002731 054000 1                  AOS     NUMBER_OF_RESERVED_WORDS

  17043 17 007265   000004 235007                    LDA     4,DL
        17 007266   000010 755000 6                  STA     LEX_SYMBOL+8

  17044 17 007267   040000 100400                    MLR     fill='040'O
PL6.E3A0      #001=COBOLRW File=COBOLRW.:Z8A6TSI                                 SAT 08/09/97 09:25 Page:205
        17 007270   000612 000004 16                 ADSC9   394                      cn=0,n=4
        17 007271   000011 000504 6                  ADSC9   LEX_SYMBOL+9             cn=0,n=324

  17045 17 007272   000000 631400 18                 EPPR1   0
        17 007273   000000 701000 xent               TSX1    Z8AH$SEARCH_
        17 007274   000000 011000                    NOP     0

  17046 17 007275   000000 470400 2                  LDP0    DNT$
        17 007276   400000 236003                    LDQ     -131072,DU
        17 007277   000003 256100                    ORSQ    3,,PR0

  17047 17 007300   000001 236000 18                 LDQ     1
        17 007301   000003 356100                    ANSQ    3,,PR0

  17048 17 007302   000002 236000 18                 LDQ     2
        17 007303   000003 356100                    ANSQ    3,,PR0

  17049 17 007304   000003 236000 18                 LDQ     3
        17 007305   000003 356100                    ANSQ    3,,PR0

  17050 17 007306   000004 236000 18                 LDQ     4
        17 007307   000003 356100                    ANSQ    3,,PR0

  17051 17 007310   000232 220003                    LDX0    154,DU
        17 007311   000003 440100                    SXL0    3,,PR0

      394    17053        %NEWRSW;
      395    17056        %SEARCH (RWD='DUPLICATE',              RWNO=%RSV_WRD_DUPLICATE);

  17060 17 007312   002731 054000 1                  AOS     NUMBER_OF_RESERVED_WORDS

  17061 17 007313   000011 235007                    LDA     9,DL
        17 007314   000010 755000 6                  STA     LEX_SYMBOL+8

  17062 17 007315   040000 100400                    MLR     fill='040'O
        17 007316   000613 000011 16                 ADSC9   395                      cn=0,n=9
        17 007317   000011 000504 6                  ADSC9   LEX_SYMBOL+9             cn=0,n=324
PL6.E3A0      #001=COBOLRW File=COBOLRW.:Z8A6TSI                                 SAT 08/09/97 09:25 Page:206

  17063 17 007320   000000 631400 18                 EPPR1   0
        17 007321   000000 701000 xent               TSX1    Z8AH$SEARCH_
        17 007322   000000 011000                    NOP     0

  17064 17 007323   000000 470400 2                  LDP0    DNT$
        17 007324   400000 236003                    LDQ     -131072,DU
        17 007325   000003 256100                    ORSQ    3,,PR0

  17065 17 007326   000001 236000 18                 LDQ     1
        17 007327   000003 356100                    ANSQ    3,,PR0

  17066 17 007330   000002 236000 18                 LDQ     2
        17 007331   000003 356100                    ANSQ    3,,PR0

  17067 17 007332   000003 236000 18                 LDQ     3
        17 007333   000003 356100                    ANSQ    3,,PR0

  17068 17 007334   000004 236000 18                 LDQ     4
        17 007335   000003 356100                    ANSQ    3,,PR0

  17069 17 007336   000233 220003                    LDX0    155,DU
        17 007337   000003 440100                    SXL0    3,,PR0

      396    17071        %NEWRSW;
      397    17074        %SEARCH (RWD='DUPLICATES',             RWNO=%RSV_WRD_DUPLICATES);

  17078 17 007340   002731 054000 1                  AOS     NUMBER_OF_RESERVED_WORDS

  17079 17 007341   000012 235007                    LDA     10,DL
        17 007342   000010 755000 6                  STA     LEX_SYMBOL+8

  17080 17 007343   040000 100400                    MLR     fill='040'O
        17 007344   000616 000012 16                 ADSC9   398                      cn=0,n=10
        17 007345   000011 000504 6                  ADSC9   LEX_SYMBOL+9             cn=0,n=324

  17081 17 007346   000000 631400 18                 EPPR1   0
PL6.E3A0      #001=COBOLRW File=COBOLRW.:Z8A6TSI                                 SAT 08/09/97 09:25 Page:207
        17 007347   000000 701000 xent               TSX1    Z8AH$SEARCH_
        17 007350   000000 011000                    NOP     0

  17082 17 007351   000000 470400 2                  LDP0    DNT$
        17 007352   400000 236003                    LDQ     -131072,DU
        17 007353   000003 256100                    ORSQ    3,,PR0

  17083 17 007354   000001 236000 18                 LDQ     1
        17 007355   000003 356100                    ANSQ    3,,PR0

  17084 17 007356   000002 236000 18                 LDQ     2
        17 007357   000003 356100                    ANSQ    3,,PR0

  17085 17 007360   000003 236000 18                 LDQ     3
        17 007361   000003 356100                    ANSQ    3,,PR0

  17086 17 007362   000004 236000 18                 LDQ     4
        17 007363   000003 356100                    ANSQ    3,,PR0

  17087 17 007364   000234 220003                    LDX0    156,DU
        17 007365   000003 440100                    SXL0    3,,PR0

      398    17089        %NEWRSW;
      399    17092        %SEARCH (RWD='DYNAMIC',                RWNO=%RSV_WRD_DYNAMIC);

  17096 17 007366   002731 054000 1                  AOS     NUMBER_OF_RESERVED_WORDS

  17097 17 007367   000007 235007                    LDA     7,DL
        17 007370   000010 755000 6                  STA     LEX_SYMBOL+8

  17098 17 007371   040000 100400                    MLR     fill='040'O
        17 007372   000621 000007 16                 ADSC9   401                      cn=0,n=7
        17 007373   000011 000504 6                  ADSC9   LEX_SYMBOL+9             cn=0,n=324

  17099 17 007374   000000 631400 18                 EPPR1   0
        17 007375   000000 701000 xent               TSX1    Z8AH$SEARCH_
        17 007376   000000 011000                    NOP     0
PL6.E3A0      #001=COBOLRW File=COBOLRW.:Z8A6TSI                                 SAT 08/09/97 09:25 Page:208

  17100 17 007377   000000 470400 2                  LDP0    DNT$
        17 007400   400000 236003                    LDQ     -131072,DU
        17 007401   000003 256100                    ORSQ    3,,PR0

  17101 17 007402   000001 236000 18                 LDQ     1
        17 007403   000003 356100                    ANSQ    3,,PR0

  17102 17 007404   000002 236000 18                 LDQ     2
        17 007405   000003 356100                    ANSQ    3,,PR0

  17103 17 007406   000003 236000 18                 LDQ     3
        17 007407   000003 356100                    ANSQ    3,,PR0

  17104 17 007410   000004 236000 18                 LDQ     4
        17 007411   000003 356100                    ANSQ    3,,PR0

  17105 17 007412   000235 220003                    LDX0    157,DU
        17 007413   000003 440100                    SXL0    3,,PR0

      400    17107        %NEWRSW;
      401    17110        %SEARCH (RWD='EBCDIC',                 RWNO=%RSV_WRD_EBCDIC);

  17114 17 007414   002731 054000 1                  AOS     NUMBER_OF_RESERVED_WORDS

  17115 17 007415   000006 235007                    LDA     6,DL
        17 007416   000010 755000 6                  STA     LEX_SYMBOL+8

  17116 17 007417   040000 100400                    MLR     fill='040'O
        17 007420   000623 000006 16                 ADSC9   403                      cn=0,n=6
        17 007421   000011 000504 6                  ADSC9   LEX_SYMBOL+9             cn=0,n=324

  17117 17 007422   000000 631400 18                 EPPR1   0
        17 007423   000000 701000 xent               TSX1    Z8AH$SEARCH_
        17 007424   000000 011000                    NOP     0

  17118 17 007425   000000 470400 2                  LDP0    DNT$
PL6.E3A0      #001=COBOLRW File=COBOLRW.:Z8A6TSI                                 SAT 08/09/97 09:25 Page:209
        17 007426   400000 236003                    LDQ     -131072,DU
        17 007427   000003 256100                    ORSQ    3,,PR0

  17119 17 007430   000001 236000 18                 LDQ     1
        17 007431   000003 356100                    ANSQ    3,,PR0

  17120 17 007432   000002 236000 18                 LDQ     2
        17 007433   000003 356100                    ANSQ    3,,PR0

  17121 17 007434   000003 236000 18                 LDQ     3
        17 007435   000003 356100                    ANSQ    3,,PR0

  17122 17 007436   000004 236000 18                 LDQ     4
        17 007437   000003 356100                    ANSQ    3,,PR0

  17123 17 007440   000236 220003                    LDX0    158,DU
        17 007441   000003 440100                    SXL0    3,,PR0

      402    17125        %NEWRSW;
      403    17128        %SEARCH (RWD='EGI',                    RWNO=%RSV_WRD_EGI);

  17132 17 007442   002731 054000 1                  AOS     NUMBER_OF_RESERVED_WORDS

  17133 17 007443   000003 235007                    LDA     3,DL
        17 007444   000010 755000 6                  STA     LEX_SYMBOL+8

  17134 17 007445   040000 100400                    MLR     fill='040'O
        17 007446   000625 000003 16                 ADSC9   405                      cn=0,n=3
        17 007447   000011 000504 6                  ADSC9   LEX_SYMBOL+9             cn=0,n=324

  17135 17 007450   000000 631400 18                 EPPR1   0
        17 007451   000000 701000 xent               TSX1    Z8AH$SEARCH_
        17 007452   000000 011000                    NOP     0

  17136 17 007453   000000 470400 2                  LDP0    DNT$
        17 007454   400000 236003                    LDQ     -131072,DU
        17 007455   000003 256100                    ORSQ    3,,PR0
PL6.E3A0      #001=COBOLRW File=COBOLRW.:Z8A6TSI                                 SAT 08/09/97 09:25 Page:210

  17137 17 007456   000001 236000 18                 LDQ     1
        17 007457   000003 356100                    ANSQ    3,,PR0

  17138 17 007460   000002 236000 18                 LDQ     2
        17 007461   000003 356100                    ANSQ    3,,PR0

  17139 17 007462   000003 236000 18                 LDQ     3
        17 007463   000003 356100                    ANSQ    3,,PR0

  17140 17 007464   000004 236000 18                 LDQ     4
        17 007465   000003 356100                    ANSQ    3,,PR0

  17141 17 007466   000237 220003                    LDX0    159,DU
        17 007467   000003 440100                    SXL0    3,,PR0

      404    17143        %NEWRSW;
      405    17146        %SEARCH (RWD='ELSE',                   RWNO=%RSV_WRD_ELSE);

  17150 17 007470   002731 054000 1                  AOS     NUMBER_OF_RESERVED_WORDS

  17151 17 007471   000004 235007                    LDA     4,DL
        17 007472   000010 755000 6                  STA     LEX_SYMBOL+8

  17152 17 007473   040000 100400                    MLR     fill='040'O
        17 007474   000626 000004 16                 ADSC9   406                      cn=0,n=4
        17 007475   000011 000504 6                  ADSC9   LEX_SYMBOL+9             cn=0,n=324

  17153 17 007476   000000 631400 18                 EPPR1   0
        17 007477   000000 701000 xent               TSX1    Z8AH$SEARCH_
        17 007500   000000 011000                    NOP     0

  17154 17 007501   000000 470400 2                  LDP0    DNT$
        17 007502   400000 236003                    LDQ     -131072,DU
        17 007503   000003 256100                    ORSQ    3,,PR0

  17155 17 007504   000001 236000 18                 LDQ     1
PL6.E3A0      #001=COBOLRW File=COBOLRW.:Z8A6TSI                                 SAT 08/09/97 09:25 Page:211
        17 007505   000003 356100                    ANSQ    3,,PR0

  17156 17 007506   000002 236000 18                 LDQ     2
        17 007507   000003 356100                    ANSQ    3,,PR0

  17157 17 007510   000003 236000 18                 LDQ     3
        17 007511   000003 356100                    ANSQ    3,,PR0

  17158 17 007512   000004 236000 18                 LDQ     4
        17 007513   000003 356100                    ANSQ    3,,PR0

  17159 17 007514   000240 220003                    LDX0    160,DU
        17 007515   000003 440100                    SXL0    3,,PR0

      406    17161        %SEARCH (RWD='OTHERWISE',              RWNO=%RSV_WRD_ELSE);

  17165 17 007516   002731 054000 1                  AOS     NUMBER_OF_RESERVED_WORDS

  17166 17 007517   000011 235007                    LDA     9,DL
        17 007520   000010 755000 6                  STA     LEX_SYMBOL+8

  17167 17 007521   040000 100400                    MLR     fill='040'O
        17 007522   000627 000011 16                 ADSC9   407                      cn=0,n=9
        17 007523   000011 000504 6                  ADSC9   LEX_SYMBOL+9             cn=0,n=324

  17168 17 007524   000000 631400 18                 EPPR1   0
        17 007525   000000 701000 xent               TSX1    Z8AH$SEARCH_
        17 007526   000000 011000                    NOP     0

  17169 17 007527   000000 470400 2                  LDP0    DNT$
        17 007530   400000 236003                    LDQ     -131072,DU
        17 007531   000003 256100                    ORSQ    3,,PR0

  17170 17 007532   000001 236000 18                 LDQ     1
        17 007533   000003 356100                    ANSQ    3,,PR0

  17171 17 007534   000002 236000 18                 LDQ     2
PL6.E3A0      #001=COBOLRW File=COBOLRW.:Z8A6TSI                                 SAT 08/09/97 09:25 Page:212
        17 007535   000003 356100                    ANSQ    3,,PR0

  17172 17 007536   000003 236000 18                 LDQ     3
        17 007537   000003 356100                    ANSQ    3,,PR0

  17173 17 007540   000004 236000 18                 LDQ     4
        17 007541   000003 356100                    ANSQ    3,,PR0

  17174 17 007542   000240 220003                    LDX0    160,DU
        17 007543   000003 440100                    SXL0    3,,PR0

      407    17176        %NEWRSW;
      408    17179        %SEARCH (RWD='EMI',                    RWNO=%RSV_WRD_EMI);

  17183 17 007544   002731 054000 1                  AOS     NUMBER_OF_RESERVED_WORDS

  17184 17 007545   000003 235007                    LDA     3,DL
        17 007546   000010 755000 6                  STA     LEX_SYMBOL+8

  17185 17 007547   040000 100400                    MLR     fill='040'O
        17 007550   000632 000003 16                 ADSC9   410                      cn=0,n=3
        17 007551   000011 000504 6                  ADSC9   LEX_SYMBOL+9             cn=0,n=324

  17186 17 007552   000000 631400 18                 EPPR1   0
        17 007553   000000 701000 xent               TSX1    Z8AH$SEARCH_
        17 007554   000000 011000                    NOP     0

  17187 17 007555   000000 470400 2                  LDP0    DNT$
        17 007556   400000 236003                    LDQ     -131072,DU
        17 007557   000003 256100                    ORSQ    3,,PR0

  17188 17 007560   000001 236000 18                 LDQ     1
        17 007561   000003 356100                    ANSQ    3,,PR0

  17189 17 007562   000002 236000 18                 LDQ     2
        17 007563   000003 356100                    ANSQ    3,,PR0

PL6.E3A0      #001=COBOLRW File=COBOLRW.:Z8A6TSI                                 SAT 08/09/97 09:25 Page:213
  17190 17 007564   000003 236000 18                 LDQ     3
        17 007565   000003 356100                    ANSQ    3,,PR0

  17191 17 007566   000004 236000 18                 LDQ     4
        17 007567   000003 356100                    ANSQ    3,,PR0

  17192 17 007570   000241 220003                    LDX0    161,DU
        17 007571   000003 440100                    SXL0    3,,PR0

      409    17194        %NEWRSW;
      410    17197        %SEARCH (RWD='EMPTY',                  RWNO=%RSV_WRD_EMPTY);

  17201 17 007572   002731 054000 1                  AOS     NUMBER_OF_RESERVED_WORDS

  17202 17 007573   000005 235007                    LDA     5,DL
        17 007574   000010 755000 6                  STA     LEX_SYMBOL+8

  17203 17 007575   040000 100400                    MLR     fill='040'O
        17 007576   000633 000005 16                 ADSC9   411                      cn=0,n=5
        17 007577   000011 000504 6                  ADSC9   LEX_SYMBOL+9             cn=0,n=324

  17204 17 007600   000000 631400 18                 EPPR1   0
        17 007601   000000 701000 xent               TSX1    Z8AH$SEARCH_
        17 007602   000000 011000                    NOP     0

  17205 17 007603   000000 470400 2                  LDP0    DNT$
        17 007604   400000 236003                    LDQ     -131072,DU
        17 007605   000003 256100                    ORSQ    3,,PR0

  17206 17 007606   000001 236000 18                 LDQ     1
        17 007607   000003 356100                    ANSQ    3,,PR0

  17207 17 007610   000002 236000 18                 LDQ     2
        17 007611   000003 356100                    ANSQ    3,,PR0

  17208 17 007612   000003 236000 18                 LDQ     3
        17 007613   000003 356100                    ANSQ    3,,PR0
PL6.E3A0      #001=COBOLRW File=COBOLRW.:Z8A6TSI                                 SAT 08/09/97 09:25 Page:214

  17209 17 007614   000004 236000 18                 LDQ     4
        17 007615   000003 356100                    ANSQ    3,,PR0

  17210 17 007616   000242 220003                    LDX0    162,DU
        17 007617   000003 440100                    SXL0    3,,PR0

      411    17212        %NEWRSW;
      412    17215        %SEARCH (RWD='ENABLE',                 RWNO=%RSV_WRD_ENABLE);

  17219 17 007620   002731 054000 1                  AOS     NUMBER_OF_RESERVED_WORDS

  17220 17 007621   000006 235007                    LDA     6,DL
        17 007622   000010 755000 6                  STA     LEX_SYMBOL+8

  17221 17 007623   040000 100400                    MLR     fill='040'O
        17 007624   000635 000006 16                 ADSC9   413                      cn=0,n=6
        17 007625   000011 000504 6                  ADSC9   LEX_SYMBOL+9             cn=0,n=324

  17222 17 007626   000000 631400 18                 EPPR1   0
        17 007627   000000 701000 xent               TSX1    Z8AH$SEARCH_
        17 007630   000000 011000                    NOP     0

  17223 17 007631   000000 470400 2                  LDP0    DNT$
        17 007632   400000 236003                    LDQ     -131072,DU
        17 007633   000003 256100                    ORSQ    3,,PR0

  17224 17 007634   000001 236000 18                 LDQ     1
        17 007635   000003 356100                    ANSQ    3,,PR0

  17225 17 007636   000002 236000 18                 LDQ     2
        17 007637   000003 356100                    ANSQ    3,,PR0

  17226 17 007640   000003 236000 18                 LDQ     3
        17 007641   000003 356100                    ANSQ    3,,PR0

  17227 17 007642   000004 236000 18                 LDQ     4
PL6.E3A0      #001=COBOLRW File=COBOLRW.:Z8A6TSI                                 SAT 08/09/97 09:25 Page:215
        17 007643   000003 356100                    ANSQ    3,,PR0

  17228 17 007644   000243 220003                    LDX0    163,DU
        17 007645   000003 440100                    SXL0    3,,PR0

      413    17230        %NEWRSW;
      414    17233        %SEARCH (RWD='END',                    RWNO=%RSV_WRD_END, AREAA=TRUE);

  17237 17 007646   002731 054000 1                  AOS     NUMBER_OF_RESERVED_WORDS

  17238 17 007647   000003 235007                    LDA     3,DL
        17 007650   000010 755000 6                  STA     LEX_SYMBOL+8

  17239 17 007651   040000 100400                    MLR     fill='040'O
        17 007652   000637 000003 16                 ADSC9   415                      cn=0,n=3
        17 007653   000011 000504 6                  ADSC9   LEX_SYMBOL+9             cn=0,n=324

  17240 17 007654   000000 631400 18                 EPPR1   0
        17 007655   000000 701000 xent               TSX1    Z8AH$SEARCH_
        17 007656   000000 011000                    NOP     0

  17241 17 007657   000000 470400 2                  LDP0    DNT$
        17 007660   400000 236003                    LDQ     -131072,DU
        17 007661   000003 256100                    ORSQ    3,,PR0

  17242 17 007662   000001 236000 18                 LDQ     1
        17 007663   000003 356100                    ANSQ    3,,PR0

  17243 17 007664   000200 236003                    LDQ     128,DU
        17 007665   000003 256100                    ORSQ    3,,PR0

  17244 17 007666   000003 236000 18                 LDQ     3
        17 007667   000003 356100                    ANSQ    3,,PR0

  17245 17 007670   000004 236000 18                 LDQ     4
        17 007671   000003 356100                    ANSQ    3,,PR0

PL6.E3A0      #001=COBOLRW File=COBOLRW.:Z8A6TSI                                 SAT 08/09/97 09:25 Page:216
  17246 17 007672   000244 220003                    LDX0    164,DU
        17 007673   000003 440100                    SXL0    3,,PR0

      415    17248        %NEWRSW;
      416    17251        %SEARCH (RWD='END-ADD',                RWNO=%RSV_WRD_END_ADD);

  17255 17 007674   002731 054000 1                  AOS     NUMBER_OF_RESERVED_WORDS

  17256 17 007675   000007 235007                    LDA     7,DL
        17 007676   000010 755000 6                  STA     LEX_SYMBOL+8

  17257 17 007677   040000 100400                    MLR     fill='040'O
        17 007700   000640 000007 16                 ADSC9   416                      cn=0,n=7
        17 007701   000011 000504 6                  ADSC9   LEX_SYMBOL+9             cn=0,n=324

  17258 17 007702   000000 631400 18                 EPPR1   0
        17 007703   000000 701000 xent               TSX1    Z8AH$SEARCH_
        17 007704   000000 011000                    NOP     0

  17259 17 007705   000000 470400 2                  LDP0    DNT$
        17 007706   400000 236003                    LDQ     -131072,DU
        17 007707   000003 256100                    ORSQ    3,,PR0

  17260 17 007710   000001 236000 18                 LDQ     1
        17 007711   000003 356100                    ANSQ    3,,PR0

  17261 17 007712   000002 236000 18                 LDQ     2
        17 007713   000003 356100                    ANSQ    3,,PR0

  17262 17 007714   000003 236000 18                 LDQ     3
        17 007715   000003 356100                    ANSQ    3,,PR0

  17263 17 007716   000004 236000 18                 LDQ     4
        17 007717   000003 356100                    ANSQ    3,,PR0

  17264 17 007720   000245 220003                    LDX0    165,DU
        17 007721   000003 440100                    SXL0    3,,PR0
PL6.E3A0      #001=COBOLRW File=COBOLRW.:Z8A6TSI                                 SAT 08/09/97 09:25 Page:217

      417    17266        %NEWRSW;
      418    17269        %SEARCH (RWD='END-CALL',               RWNO=%RSV_WRD_END_CALL);

  17273 17 007722   002731 054000 1                  AOS     NUMBER_OF_RESERVED_WORDS

  17274 17 007723   000010 235007                    LDA     8,DL
        17 007724   000010 755000 6                  STA     LEX_SYMBOL+8

  17275 17 007725   040000 100400                    MLR     fill='040'O
        17 007726   000642 000010 16                 ADSC9   418                      cn=0,n=8
        17 007727   000011 000504 6                  ADSC9   LEX_SYMBOL+9             cn=0,n=324

  17276 17 007730   000000 631400 18                 EPPR1   0
        17 007731   000000 701000 xent               TSX1    Z8AH$SEARCH_
        17 007732   000000 011000                    NOP     0

  17277 17 007733   000000 470400 2                  LDP0    DNT$
        17 007734   400000 236003                    LDQ     -131072,DU
        17 007735   000003 256100                    ORSQ    3,,PR0

  17278 17 007736   000001 236000 18                 LDQ     1
        17 007737   000003 356100                    ANSQ    3,,PR0

  17279 17 007740   000002 236000 18                 LDQ     2
        17 007741   000003 356100                    ANSQ    3,,PR0

  17280 17 007742   000003 236000 18                 LDQ     3
        17 007743   000003 356100                    ANSQ    3,,PR0

  17281 17 007744   000004 236000 18                 LDQ     4
        17 007745   000003 356100                    ANSQ    3,,PR0

  17282 17 007746   000246 220003                    LDX0    166,DU
        17 007747   000003 440100                    SXL0    3,,PR0

      419    17284        %NEWRSW;
PL6.E3A0      #001=COBOLRW File=COBOLRW.:Z8A6TSI                                 SAT 08/09/97 09:25 Page:218
      420    17287        %SEARCH (RWD='END-COMPUTE',            RWNO=%RSV_WRD_END_COMPUTE);

  17291 17 007750   002731 054000 1                  AOS     NUMBER_OF_RESERVED_WORDS

  17292 17 007751   000013 235007                    LDA     11,DL
        17 007752   000010 755000 6                  STA     LEX_SYMBOL+8

  17293 17 007753   040000 100400                    MLR     fill='040'O
        17 007754   000644 000013 16                 ADSC9   420                      cn=0,n=11
        17 007755   000011 000504 6                  ADSC9   LEX_SYMBOL+9             cn=0,n=324

  17294 17 007756   000000 631400 18                 EPPR1   0
        17 007757   000000 701000 xent               TSX1    Z8AH$SEARCH_
        17 007760   000000 011000                    NOP     0

  17295 17 007761   000000 470400 2                  LDP0    DNT$
        17 007762   400000 236003                    LDQ     -131072,DU
        17 007763   000003 256100                    ORSQ    3,,PR0

  17296 17 007764   000001 236000 18                 LDQ     1
        17 007765   000003 356100                    ANSQ    3,,PR0

  17297 17 007766   000002 236000 18                 LDQ     2
        17 007767   000003 356100                    ANSQ    3,,PR0

  17298 17 007770   000003 236000 18                 LDQ     3
        17 007771   000003 356100                    ANSQ    3,,PR0

  17299 17 007772   000004 236000 18                 LDQ     4
        17 007773   000003 356100                    ANSQ    3,,PR0

  17300 17 007774   000247 220003                    LDX0    167,DU
        17 007775   000003 440100                    SXL0    3,,PR0

      421    17302        %NEWRSW;
      422    17305        %SEARCH (RWD='END-DELETE',             RWNO=%RSV_WRD_END_DELETE);

PL6.E3A0      #001=COBOLRW File=COBOLRW.:Z8A6TSI                                 SAT 08/09/97 09:25 Page:219
  17309 17 007776   002731 054000 1                  AOS     NUMBER_OF_RESERVED_WORDS

  17310 17 007777   000012 235007                    LDA     10,DL
        17 010000   000010 755000 6                  STA     LEX_SYMBOL+8

  17311 17 010001   040000 100400                    MLR     fill='040'O
        17 010002   000647 000012 16                 ADSC9   423                      cn=0,n=10
        17 010003   000011 000504 6                  ADSC9   LEX_SYMBOL+9             cn=0,n=324

  17312 17 010004   000000 631400 18                 EPPR1   0
        17 010005   000000 701000 xent               TSX1    Z8AH$SEARCH_
        17 010006   000000 011000                    NOP     0

  17313 17 010007   000000 470400 2                  LDP0    DNT$
        17 010010   400000 236003                    LDQ     -131072,DU
        17 010011   000003 256100                    ORSQ    3,,PR0

  17314 17 010012   000001 236000 18                 LDQ     1
        17 010013   000003 356100                    ANSQ    3,,PR0

  17315 17 010014   000002 236000 18                 LDQ     2
        17 010015   000003 356100                    ANSQ    3,,PR0

  17316 17 010016   000003 236000 18                 LDQ     3
        17 010017   000003 356100                    ANSQ    3,,PR0

  17317 17 010020   000004 236000 18                 LDQ     4
        17 010021   000003 356100                    ANSQ    3,,PR0

  17318 17 010022   000250 220003                    LDX0    168,DU
        17 010023   000003 440100                    SXL0    3,,PR0

      423    17320        %NEWRSW;
      424    17323        %SEARCH (RWD='END-DIVIDE',             RWNO=%RSV_WRD_END_DIVIDE);

  17327 17 010024   002731 054000 1                  AOS     NUMBER_OF_RESERVED_WORDS

PL6.E3A0      #001=COBOLRW File=COBOLRW.:Z8A6TSI                                 SAT 08/09/97 09:25 Page:220
  17328 17 010025   000012 235007                    LDA     10,DL
        17 010026   000010 755000 6                  STA     LEX_SYMBOL+8

  17329 17 010027   040000 100400                    MLR     fill='040'O
        17 010030   000652 000012 16                 ADSC9   426                      cn=0,n=10
        17 010031   000011 000504 6                  ADSC9   LEX_SYMBOL+9             cn=0,n=324

  17330 17 010032   000000 631400 18                 EPPR1   0
        17 010033   000000 701000 xent               TSX1    Z8AH$SEARCH_
        17 010034   000000 011000                    NOP     0

  17331 17 010035   000000 470400 2                  LDP0    DNT$
        17 010036   400000 236003                    LDQ     -131072,DU
        17 010037   000003 256100                    ORSQ    3,,PR0

  17332 17 010040   000001 236000 18                 LDQ     1
        17 010041   000003 356100                    ANSQ    3,,PR0

  17333 17 010042   000002 236000 18                 LDQ     2
        17 010043   000003 356100                    ANSQ    3,,PR0

  17334 17 010044   000003 236000 18                 LDQ     3
        17 010045   000003 356100                    ANSQ    3,,PR0

  17335 17 010046   000004 236000 18                 LDQ     4
        17 010047   000003 356100                    ANSQ    3,,PR0

  17336 17 010050   000251 220003                    LDX0    169,DU
        17 010051   000003 440100                    SXL0    3,,PR0

      425    17338        %NEWRSW;
      426    17341        %SEARCH (RWD='END-EVALUATE',           RWNO=%RSV_WRD_END_EVALUATE);

  17345 17 010052   002731 054000 1                  AOS     NUMBER_OF_RESERVED_WORDS

  17346 17 010053   000014 235007                    LDA     12,DL
        17 010054   000010 755000 6                  STA     LEX_SYMBOL+8
PL6.E3A0      #001=COBOLRW File=COBOLRW.:Z8A6TSI                                 SAT 08/09/97 09:25 Page:221

  17347 17 010055   040000 100400                    MLR     fill='040'O
        17 010056   000655 000014 16                 ADSC9   429                      cn=0,n=12
        17 010057   000011 000504 6                  ADSC9   LEX_SYMBOL+9             cn=0,n=324

  17348 17 010060   000000 631400 18                 EPPR1   0
        17 010061   000000 701000 xent               TSX1    Z8AH$SEARCH_
        17 010062   000000 011000                    NOP     0

  17349 17 010063   000000 470400 2                  LDP0    DNT$
        17 010064   400000 236003                    LDQ     -131072,DU
        17 010065   000003 256100                    ORSQ    3,,PR0

  17350 17 010066   000001 236000 18                 LDQ     1
        17 010067   000003 356100                    ANSQ    3,,PR0

  17351 17 010070   000002 236000 18                 LDQ     2
        17 010071   000003 356100                    ANSQ    3,,PR0

  17352 17 010072   000003 236000 18                 LDQ     3
        17 010073   000003 356100                    ANSQ    3,,PR0

  17353 17 010074   000004 236000 18                 LDQ     4
        17 010075   000003 356100                    ANSQ    3,,PR0

  17354 17 010076   000252 220003                    LDX0    170,DU
        17 010077   000003 440100                    SXL0    3,,PR0

      427    17356        %NEWRSW;
      428    17359        %SEARCH (RWD='END-IF',                 RWNO=%RSV_WRD_END_IF);

  17363 17 010100   002731 054000 1                  AOS     NUMBER_OF_RESERVED_WORDS

  17364 17 010101   000006 235007                    LDA     6,DL
        17 010102   000010 755000 6                  STA     LEX_SYMBOL+8

  17365 17 010103   040000 100400                    MLR     fill='040'O
PL6.E3A0      #001=COBOLRW File=COBOLRW.:Z8A6TSI                                 SAT 08/09/97 09:25 Page:222
        17 010104   000660 000006 16                 ADSC9   432                      cn=0,n=6
        17 010105   000011 000504 6                  ADSC9   LEX_SYMBOL+9             cn=0,n=324

  17366 17 010106   000000 631400 18                 EPPR1   0
        17 010107   000000 701000 xent               TSX1    Z8AH$SEARCH_
        17 010110   000000 011000                    NOP     0

  17367 17 010111   000000 470400 2                  LDP0    DNT$
        17 010112   400000 236003                    LDQ     -131072,DU
        17 010113   000003 256100                    ORSQ    3,,PR0

  17368 17 010114   000001 236000 18                 LDQ     1
        17 010115   000003 356100                    ANSQ    3,,PR0

  17369 17 010116   000002 236000 18                 LDQ     2
        17 010117   000003 356100                    ANSQ    3,,PR0

  17370 17 010120   000003 236000 18                 LDQ     3
        17 010121   000003 356100                    ANSQ    3,,PR0

  17371 17 010122   000004 236000 18                 LDQ     4
        17 010123   000003 356100                    ANSQ    3,,PR0

  17372 17 010124   000253 220003                    LDX0    171,DU
        17 010125   000003 440100                    SXL0    3,,PR0

      429    17374        %NEWRSW;
      430    17377        %SEARCH (RWD='END-MULTIPLY',           RWNO=%RSV_WRD_END_MULTIPLY);

  17381 17 010126   002731 054000 1                  AOS     NUMBER_OF_RESERVED_WORDS

  17382 17 010127   000014 235007                    LDA     12,DL
        17 010130   000010 755000 6                  STA     LEX_SYMBOL+8

  17383 17 010131   040000 100400                    MLR     fill='040'O
        17 010132   000662 000014 16                 ADSC9   434                      cn=0,n=12
        17 010133   000011 000504 6                  ADSC9   LEX_SYMBOL+9             cn=0,n=324
PL6.E3A0      #001=COBOLRW File=COBOLRW.:Z8A6TSI                                 SAT 08/09/97 09:25 Page:223

  17384 17 010134   000000 631400 18                 EPPR1   0
        17 010135   000000 701000 xent               TSX1    Z8AH$SEARCH_
        17 010136   000000 011000                    NOP     0

  17385 17 010137   000000 470400 2                  LDP0    DNT$
        17 010140   400000 236003                    LDQ     -131072,DU
        17 010141   000003 256100                    ORSQ    3,,PR0

  17386 17 010142   000001 236000 18                 LDQ     1
        17 010143   000003 356100                    ANSQ    3,,PR0

  17387 17 010144   000002 236000 18                 LDQ     2
        17 010145   000003 356100                    ANSQ    3,,PR0

  17388 17 010146   000003 236000 18                 LDQ     3
        17 010147   000003 356100                    ANSQ    3,,PR0

  17389 17 010150   000004 236000 18                 LDQ     4
        17 010151   000003 356100                    ANSQ    3,,PR0

  17390 17 010152   000254 220003                    LDX0    172,DU
        17 010153   000003 440100                    SXL0    3,,PR0

      431    17392        %NEWRSW;
      432    17395        %SEARCH (RWD='END-OF-FILE',            RWNO=%RSV_WRD_END_OF_FILE);

  17399 17 010154   002731 054000 1                  AOS     NUMBER_OF_RESERVED_WORDS

  17400 17 010155   000013 235007                    LDA     11,DL
        17 010156   000010 755000 6                  STA     LEX_SYMBOL+8

  17401 17 010157   040000 100400                    MLR     fill='040'O
        17 010160   000665 000013 16                 ADSC9   437                      cn=0,n=11
        17 010161   000011 000504 6                  ADSC9   LEX_SYMBOL+9             cn=0,n=324

  17402 17 010162   000000 631400 18                 EPPR1   0
PL6.E3A0      #001=COBOLRW File=COBOLRW.:Z8A6TSI                                 SAT 08/09/97 09:25 Page:224
        17 010163   000000 701000 xent               TSX1    Z8AH$SEARCH_
        17 010164   000000 011000                    NOP     0

  17403 17 010165   000000 470400 2                  LDP0    DNT$
        17 010166   400000 236003                    LDQ     -131072,DU
        17 010167   000003 256100                    ORSQ    3,,PR0

  17404 17 010170   000001 236000 18                 LDQ     1
        17 010171   000003 356100                    ANSQ    3,,PR0

  17405 17 010172   000002 236000 18                 LDQ     2
        17 010173   000003 356100                    ANSQ    3,,PR0

  17406 17 010174   000003 236000 18                 LDQ     3
        17 010175   000003 356100                    ANSQ    3,,PR0

  17407 17 010176   000004 236000 18                 LDQ     4
        17 010177   000003 356100                    ANSQ    3,,PR0

  17408 17 010200   000255 220003                    LDX0    173,DU
        17 010201   000003 440100                    SXL0    3,,PR0

      433    17410        %NEWRSW;
      434    17413        %SEARCH (RWD='END-OF-PAGE',            RWNO=%RSV_WRD_END_OF_PAGE);

  17417 17 010202   002731 054000 1                  AOS     NUMBER_OF_RESERVED_WORDS

  17418 17 010203   000013 235007                    LDA     11,DL
        17 010204   000010 755000 6                  STA     LEX_SYMBOL+8

  17419 17 010205   040000 100400                    MLR     fill='040'O
        17 010206   000670 000013 16                 ADSC9   440                      cn=0,n=11
        17 010207   000011 000504 6                  ADSC9   LEX_SYMBOL+9             cn=0,n=324

  17420 17 010210   000000 631400 18                 EPPR1   0
        17 010211   000000 701000 xent               TSX1    Z8AH$SEARCH_
        17 010212   000000 011000                    NOP     0
PL6.E3A0      #001=COBOLRW File=COBOLRW.:Z8A6TSI                                 SAT 08/09/97 09:25 Page:225

  17421 17 010213   000000 470400 2                  LDP0    DNT$
        17 010214   400000 236003                    LDQ     -131072,DU
        17 010215   000003 256100                    ORSQ    3,,PR0

  17422 17 010216   000001 236000 18                 LDQ     1
        17 010217   000003 356100                    ANSQ    3,,PR0

  17423 17 010220   000002 236000 18                 LDQ     2
        17 010221   000003 356100                    ANSQ    3,,PR0

  17424 17 010222   000003 236000 18                 LDQ     3
        17 010223   000003 356100                    ANSQ    3,,PR0

  17425 17 010224   000004 236000 18                 LDQ     4
        17 010225   000003 356100                    ANSQ    3,,PR0

  17426 17 010226   000256 220003                    LDX0    174,DU
        17 010227   000003 440100                    SXL0    3,,PR0

      435    17428        %SEARCH (RWD='EOP',                    RWNO=%RSV_WRD_END_OF_PAGE) ;

  17432 17 010230   002731 054000 1                  AOS     NUMBER_OF_RESERVED_WORDS

  17433 17 010231   000003 235007                    LDA     3,DL
        17 010232   000010 755000 6                  STA     LEX_SYMBOL+8

  17434 17 010233   040000 100400                    MLR     fill='040'O
        17 010234   000673 000003 16                 ADSC9   443                      cn=0,n=3
        17 010235   000011 000504 6                  ADSC9   LEX_SYMBOL+9             cn=0,n=324

  17435 17 010236   000000 631400 18                 EPPR1   0
        17 010237   000000 701000 xent               TSX1    Z8AH$SEARCH_
        17 010240   000000 011000                    NOP     0

  17436 17 010241   000000 470400 2                  LDP0    DNT$
        17 010242   400000 236003                    LDQ     -131072,DU
PL6.E3A0      #001=COBOLRW File=COBOLRW.:Z8A6TSI                                 SAT 08/09/97 09:25 Page:226
        17 010243   000003 256100                    ORSQ    3,,PR0

  17437 17 010244   000001 236000 18                 LDQ     1
        17 010245   000003 356100                    ANSQ    3,,PR0

  17438 17 010246   000002 236000 18                 LDQ     2
        17 010247   000003 356100                    ANSQ    3,,PR0

  17439 17 010250   000003 236000 18                 LDQ     3
        17 010251   000003 356100                    ANSQ    3,,PR0

  17440 17 010252   000004 236000 18                 LDQ     4
        17 010253   000003 356100                    ANSQ    3,,PR0

  17441 17 010254   000256 220003                    LDX0    174,DU
        17 010255   000003 440100                    SXL0    3,,PR0

      436    17443        %NEWRSW;
      437    17446        %SEARCH (RWD='END-OF-TAPE',            RWNO=%RSV_WRD_END_OF_TAPE);

  17450 17 010256   002731 054000 1                  AOS     NUMBER_OF_RESERVED_WORDS

  17451 17 010257   000013 235007                    LDA     11,DL
        17 010260   000010 755000 6                  STA     LEX_SYMBOL+8

  17452 17 010261   040000 100400                    MLR     fill='040'O
        17 010262   000674 000013 16                 ADSC9   444                      cn=0,n=11
        17 010263   000011 000504 6                  ADSC9   LEX_SYMBOL+9             cn=0,n=324

  17453 17 010264   000000 631400 18                 EPPR1   0
        17 010265   000000 701000 xent               TSX1    Z8AH$SEARCH_
        17 010266   000000 011000                    NOP     0

  17454 17 010267   000000 470400 2                  LDP0    DNT$
        17 010270   400000 236003                    LDQ     -131072,DU
        17 010271   000003 256100                    ORSQ    3,,PR0

PL6.E3A0      #001=COBOLRW File=COBOLRW.:Z8A6TSI                                 SAT 08/09/97 09:25 Page:227
  17455 17 010272   000001 236000 18                 LDQ     1
        17 010273   000003 356100                    ANSQ    3,,PR0

  17456 17 010274   000002 236000 18                 LDQ     2
        17 010275   000003 356100                    ANSQ    3,,PR0

  17457 17 010276   000003 236000 18                 LDQ     3
        17 010277   000003 356100                    ANSQ    3,,PR0

  17458 17 010300   000004 236000 18                 LDQ     4
        17 010301   000003 356100                    ANSQ    3,,PR0

  17459 17 010302   000257 220003                    LDX0    175,DU
        17 010303   000003 440100                    SXL0    3,,PR0

      438    17461        %NEWRSW;
      439    17464        %SEARCH (RWD='END-PERFORM',            RWNO=%RSV_WRD_END_PERFORM);

  17468 17 010304   002731 054000 1                  AOS     NUMBER_OF_RESERVED_WORDS

  17469 17 010305   000013 235007                    LDA     11,DL
        17 010306   000010 755000 6                  STA     LEX_SYMBOL+8

  17470 17 010307   040000 100400                    MLR     fill='040'O
        17 010310   000677 000013 16                 ADSC9   447                      cn=0,n=11
        17 010311   000011 000504 6                  ADSC9   LEX_SYMBOL+9             cn=0,n=324

  17471 17 010312   000000 631400 18                 EPPR1   0
        17 010313   000000 701000 xent               TSX1    Z8AH$SEARCH_
        17 010314   000000 011000                    NOP     0

  17472 17 010315   000000 470400 2                  LDP0    DNT$
        17 010316   400000 236003                    LDQ     -131072,DU
        17 010317   000003 256100                    ORSQ    3,,PR0

  17473 17 010320   000001 236000 18                 LDQ     1
        17 010321   000003 356100                    ANSQ    3,,PR0
PL6.E3A0      #001=COBOLRW File=COBOLRW.:Z8A6TSI                                 SAT 08/09/97 09:25 Page:228

  17474 17 010322   000002 236000 18                 LDQ     2
        17 010323   000003 356100                    ANSQ    3,,PR0

  17475 17 010324   000003 236000 18                 LDQ     3
        17 010325   000003 356100                    ANSQ    3,,PR0

  17476 17 010326   000004 236000 18                 LDQ     4
        17 010327   000003 356100                    ANSQ    3,,PR0

  17477 17 010330   000260 220003                    LDX0    176,DU
        17 010331   000003 440100                    SXL0    3,,PR0

      440    17479        %NEWRSW;
      441    17482        %SEARCH (RWD='END-READ',               RWNO=%RSV_WRD_END_READ);

  17486 17 010332   002731 054000 1                  AOS     NUMBER_OF_RESERVED_WORDS

  17487 17 010333   000010 235007                    LDA     8,DL
        17 010334   000010 755000 6                  STA     LEX_SYMBOL+8

  17488 17 010335   040000 100400                    MLR     fill='040'O
        17 010336   000702 000010 16                 ADSC9   450                      cn=0,n=8
        17 010337   000011 000504 6                  ADSC9   LEX_SYMBOL+9             cn=0,n=324

  17489 17 010340   000000 631400 18                 EPPR1   0
        17 010341   000000 701000 xent               TSX1    Z8AH$SEARCH_
        17 010342   000000 011000                    NOP     0

  17490 17 010343   000000 470400 2                  LDP0    DNT$
        17 010344   400000 236003                    LDQ     -131072,DU
        17 010345   000003 256100                    ORSQ    3,,PR0

  17491 17 010346   000001 236000 18                 LDQ     1
        17 010347   000003 356100                    ANSQ    3,,PR0

  17492 17 010350   000002 236000 18                 LDQ     2
PL6.E3A0      #001=COBOLRW File=COBOLRW.:Z8A6TSI                                 SAT 08/09/97 09:25 Page:229
        17 010351   000003 356100                    ANSQ    3,,PR0

  17493 17 010352   000003 236000 18                 LDQ     3
        17 010353   000003 356100                    ANSQ    3,,PR0

  17494 17 010354   000004 236000 18                 LDQ     4
        17 010355   000003 356100                    ANSQ    3,,PR0

  17495 17 010356   000261 220003                    LDX0    177,DU
        17 010357   000003 440100                    SXL0    3,,PR0

      442    17497        %NEWRSW;
      443    17500        %SEARCH (RWD='END-RECEIVE',            RWNO=%RSV_WRD_END_RECEIVE);

  17504 17 010360   002731 054000 1                  AOS     NUMBER_OF_RESERVED_WORDS

  17505 17 010361   000013 235007                    LDA     11,DL
        17 010362   000010 755000 6                  STA     LEX_SYMBOL+8

  17506 17 010363   040000 100400                    MLR     fill='040'O
        17 010364   000704 000013 16                 ADSC9   452                      cn=0,n=11
        17 010365   000011 000504 6                  ADSC9   LEX_SYMBOL+9             cn=0,n=324

  17507 17 010366   000000 631400 18                 EPPR1   0
        17 010367   000000 701000 xent               TSX1    Z8AH$SEARCH_
        17 010370   000000 011000                    NOP     0

  17508 17 010371   000000 470400 2                  LDP0    DNT$
        17 010372   400000 236003                    LDQ     -131072,DU
        17 010373   000003 256100                    ORSQ    3,,PR0

  17509 17 010374   000001 236000 18                 LDQ     1
        17 010375   000003 356100                    ANSQ    3,,PR0

  17510 17 010376   000002 236000 18                 LDQ     2
        17 010377   000003 356100                    ANSQ    3,,PR0

PL6.E3A0      #001=COBOLRW File=COBOLRW.:Z8A6TSI                                 SAT 08/09/97 09:25 Page:230
  17511 17 010400   000003 236000 18                 LDQ     3
        17 010401   000003 356100                    ANSQ    3,,PR0

  17512 17 010402   000004 236000 18                 LDQ     4
        17 010403   000003 356100                    ANSQ    3,,PR0

  17513 17 010404   000262 220003                    LDX0    178,DU
        17 010405   000003 440100                    SXL0    3,,PR0

      444    17515        %NEWRSW;
      445    17518        %SEARCH (RWD='END-RETURN',             RWNO=%RSV_WRD_END_RETURN);

  17522 17 010406   002731 054000 1                  AOS     NUMBER_OF_RESERVED_WORDS

  17523 17 010407   000012 235007                    LDA     10,DL
        17 010410   000010 755000 6                  STA     LEX_SYMBOL+8

  17524 17 010411   040000 100400                    MLR     fill='040'O
        17 010412   000707 000012 16                 ADSC9   455                      cn=0,n=10
        17 010413   000011 000504 6                  ADSC9   LEX_SYMBOL+9             cn=0,n=324

  17525 17 010414   000000 631400 18                 EPPR1   0
        17 010415   000000 701000 xent               TSX1    Z8AH$SEARCH_
        17 010416   000000 011000                    NOP     0

  17526 17 010417   000000 470400 2                  LDP0    DNT$
        17 010420   400000 236003                    LDQ     -131072,DU
        17 010421   000003 256100                    ORSQ    3,,PR0

  17527 17 010422   000001 236000 18                 LDQ     1
        17 010423   000003 356100                    ANSQ    3,,PR0

  17528 17 010424   000002 236000 18                 LDQ     2
        17 010425   000003 356100                    ANSQ    3,,PR0

  17529 17 010426   000003 236000 18                 LDQ     3
        17 010427   000003 356100                    ANSQ    3,,PR0
PL6.E3A0      #001=COBOLRW File=COBOLRW.:Z8A6TSI                                 SAT 08/09/97 09:25 Page:231

  17530 17 010430   000004 236000 18                 LDQ     4
        17 010431   000003 356100                    ANSQ    3,,PR0

  17531 17 010432   000263 220003                    LDX0    179,DU
        17 010433   000003 440100                    SXL0    3,,PR0

      446    17533        %NEWRSW;
      447    17536        %SEARCH (RWD='END-REWRITE',            RWNO=%RSV_WRD_END_REWRITE);

  17540 17 010434   002731 054000 1                  AOS     NUMBER_OF_RESERVED_WORDS

  17541 17 010435   000013 235007                    LDA     11,DL
        17 010436   000010 755000 6                  STA     LEX_SYMBOL+8

  17542 17 010437   040000 100400                    MLR     fill='040'O
        17 010440   000712 000013 16                 ADSC9   458                      cn=0,n=11
        17 010441   000011 000504 6                  ADSC9   LEX_SYMBOL+9             cn=0,n=324

  17543 17 010442   000000 631400 18                 EPPR1   0
        17 010443   000000 701000 xent               TSX1    Z8AH$SEARCH_
        17 010444   000000 011000                    NOP     0

  17544 17 010445   000000 470400 2                  LDP0    DNT$
        17 010446   400000 236003                    LDQ     -131072,DU
        17 010447   000003 256100                    ORSQ    3,,PR0

  17545 17 010450   000001 236000 18                 LDQ     1
        17 010451   000003 356100                    ANSQ    3,,PR0

  17546 17 010452   000002 236000 18                 LDQ     2
        17 010453   000003 356100                    ANSQ    3,,PR0

  17547 17 010454   000003 236000 18                 LDQ     3
        17 010455   000003 356100                    ANSQ    3,,PR0

  17548 17 010456   000004 236000 18                 LDQ     4
PL6.E3A0      #001=COBOLRW File=COBOLRW.:Z8A6TSI                                 SAT 08/09/97 09:25 Page:232
        17 010457   000003 356100                    ANSQ    3,,PR0

  17549 17 010460   000264 220003                    LDX0    180,DU
        17 010461   000003 440100                    SXL0    3,,PR0

      448    17551        %NEWRSW;
      449    17554        %SEARCH (RWD='END-SEARCH',             RWNO=%RSV_WRD_END_SEARCH);

  17558 17 010462   002731 054000 1                  AOS     NUMBER_OF_RESERVED_WORDS

  17559 17 010463   000012 235007                    LDA     10,DL
        17 010464   000010 755000 6                  STA     LEX_SYMBOL+8

  17560 17 010465   040000 100400                    MLR     fill='040'O
        17 010466   000715 000012 16                 ADSC9   461                      cn=0,n=10
        17 010467   000011 000504 6                  ADSC9   LEX_SYMBOL+9             cn=0,n=324

  17561 17 010470   000000 631400 18                 EPPR1   0
        17 010471   000000 701000 xent               TSX1    Z8AH$SEARCH_
        17 010472   000000 011000                    NOP     0

  17562 17 010473   000000 470400 2                  LDP0    DNT$
        17 010474   400000 236003                    LDQ     -131072,DU
        17 010475   000003 256100                    ORSQ    3,,PR0

  17563 17 010476   000001 236000 18                 LDQ     1
        17 010477   000003 356100                    ANSQ    3,,PR0

  17564 17 010500   000002 236000 18                 LDQ     2
        17 010501   000003 356100                    ANSQ    3,,PR0

  17565 17 010502   000003 236000 18                 LDQ     3
        17 010503   000003 356100                    ANSQ    3,,PR0

  17566 17 010504   000004 236000 18                 LDQ     4
        17 010505   000003 356100                    ANSQ    3,,PR0

PL6.E3A0      #001=COBOLRW File=COBOLRW.:Z8A6TSI                                 SAT 08/09/97 09:25 Page:233
  17567 17 010506   000265 220003                    LDX0    181,DU
        17 010507   000003 440100                    SXL0    3,,PR0

      450    17569        %NEWRSW;
      451    17572        %SEARCH (RWD='END-START',              RWNO=%RSV_WRD_END_START);

  17576 17 010510   002731 054000 1                  AOS     NUMBER_OF_RESERVED_WORDS

  17577 17 010511   000011 235007                    LDA     9,DL
        17 010512   000010 755000 6                  STA     LEX_SYMBOL+8

  17578 17 010513   040000 100400                    MLR     fill='040'O
        17 010514   000720 000011 16                 ADSC9   464                      cn=0,n=9
        17 010515   000011 000504 6                  ADSC9   LEX_SYMBOL+9             cn=0,n=324

  17579 17 010516   000000 631400 18                 EPPR1   0
        17 010517   000000 701000 xent               TSX1    Z8AH$SEARCH_
        17 010520   000000 011000                    NOP     0

  17580 17 010521   000000 470400 2                  LDP0    DNT$
        17 010522   400000 236003                    LDQ     -131072,DU
        17 010523   000003 256100                    ORSQ    3,,PR0

  17581 17 010524   000001 236000 18                 LDQ     1
        17 010525   000003 356100                    ANSQ    3,,PR0

  17582 17 010526   000002 236000 18                 LDQ     2
        17 010527   000003 356100                    ANSQ    3,,PR0

  17583 17 010530   000003 236000 18                 LDQ     3
        17 010531   000003 356100                    ANSQ    3,,PR0

  17584 17 010532   000004 236000 18                 LDQ     4
        17 010533   000003 356100                    ANSQ    3,,PR0

  17585 17 010534   000266 220003                    LDX0    182,DU
        17 010535   000003 440100                    SXL0    3,,PR0
PL6.E3A0      #001=COBOLRW File=COBOLRW.:Z8A6TSI                                 SAT 08/09/97 09:25 Page:234

      452    17587        %NEWRSW;
      453    17590        %SEARCH (RWD='END-STRING',             RWNO=%RSV_WRD_END_STRING);

  17594 17 010536   002731 054000 1                  AOS     NUMBER_OF_RESERVED_WORDS

  17595 17 010537   000012 235007                    LDA     10,DL
        17 010540   000010 755000 6                  STA     LEX_SYMBOL+8

  17596 17 010541   040000 100400                    MLR     fill='040'O
        17 010542   000723 000012 16                 ADSC9   467                      cn=0,n=10
        17 010543   000011 000504 6                  ADSC9   LEX_SYMBOL+9             cn=0,n=324

  17597 17 010544   000000 631400 18                 EPPR1   0
        17 010545   000000 701000 xent               TSX1    Z8AH$SEARCH_
        17 010546   000000 011000                    NOP     0

  17598 17 010547   000000 470400 2                  LDP0    DNT$
        17 010550   400000 236003                    LDQ     -131072,DU
        17 010551   000003 256100                    ORSQ    3,,PR0

  17599 17 010552   000001 236000 18                 LDQ     1
        17 010553   000003 356100                    ANSQ    3,,PR0

  17600 17 010554   000002 236000 18                 LDQ     2
        17 010555   000003 356100                    ANSQ    3,,PR0

  17601 17 010556   000003 236000 18                 LDQ     3
        17 010557   000003 356100                    ANSQ    3,,PR0

  17602 17 010560   000004 236000 18                 LDQ     4
        17 010561   000003 356100                    ANSQ    3,,PR0

  17603 17 010562   000267 220003                    LDX0    183,DU
        17 010563   000003 440100                    SXL0    3,,PR0

      454    17605        %NEWRSW;
PL6.E3A0      #001=COBOLRW File=COBOLRW.:Z8A6TSI                                 SAT 08/09/97 09:25 Page:235
      455    17608        %SEARCH (RWD='END-SUBTRACT',           RWNO=%RSV_WRD_END_SUBTRACT);

  17612 17 010564   002731 054000 1                  AOS     NUMBER_OF_RESERVED_WORDS

  17613 17 010565   000014 235007                    LDA     12,DL
        17 010566   000010 755000 6                  STA     LEX_SYMBOL+8

  17614 17 010567   040000 100400                    MLR     fill='040'O
        17 010570   000726 000014 16                 ADSC9   470                      cn=0,n=12
        17 010571   000011 000504 6                  ADSC9   LEX_SYMBOL+9             cn=0,n=324

  17615 17 010572   000000 631400 18                 EPPR1   0
        17 010573   000000 701000 xent               TSX1    Z8AH$SEARCH_
        17 010574   000000 011000                    NOP     0

  17616 17 010575   000000 470400 2                  LDP0    DNT$
        17 010576   400000 236003                    LDQ     -131072,DU
        17 010577   000003 256100                    ORSQ    3,,PR0

  17617 17 010600   000001 236000 18                 LDQ     1
        17 010601   000003 356100                    ANSQ    3,,PR0

  17618 17 010602   000002 236000 18                 LDQ     2
        17 010603   000003 356100                    ANSQ    3,,PR0

  17619 17 010604   000003 236000 18                 LDQ     3
        17 010605   000003 356100                    ANSQ    3,,PR0

  17620 17 010606   000004 236000 18                 LDQ     4
        17 010607   000003 356100                    ANSQ    3,,PR0

  17621 17 010610   000270 220003                    LDX0    184,DU
        17 010611   000003 440100                    SXL0    3,,PR0

      456    17623        %NEWRSW;
      457    17626        %SEARCH (RWD='END-UNSTRING',           RWNO=%RSV_WRD_END_UNSTRING);

PL6.E3A0      #001=COBOLRW File=COBOLRW.:Z8A6TSI                                 SAT 08/09/97 09:25 Page:236
  17630 17 010612   002731 054000 1                  AOS     NUMBER_OF_RESERVED_WORDS

  17631 17 010613   000014 235007                    LDA     12,DL
        17 010614   000010 755000 6                  STA     LEX_SYMBOL+8

  17632 17 010615   040000 100400                    MLR     fill='040'O
        17 010616   000731 000014 16                 ADSC9   473                      cn=0,n=12
        17 010617   000011 000504 6                  ADSC9   LEX_SYMBOL+9             cn=0,n=324

  17633 17 010620   000000 631400 18                 EPPR1   0
        17 010621   000000 701000 xent               TSX1    Z8AH$SEARCH_
        17 010622   000000 011000                    NOP     0

  17634 17 010623   000000 470400 2                  LDP0    DNT$
        17 010624   400000 236003                    LDQ     -131072,DU
        17 010625   000003 256100                    ORSQ    3,,PR0

  17635 17 010626   000001 236000 18                 LDQ     1
        17 010627   000003 356100                    ANSQ    3,,PR0

  17636 17 010630   000002 236000 18                 LDQ     2
        17 010631   000003 356100                    ANSQ    3,,PR0

  17637 17 010632   000003 236000 18                 LDQ     3
        17 010633   000003 356100                    ANSQ    3,,PR0

  17638 17 010634   000004 236000 18                 LDQ     4
        17 010635   000003 356100                    ANSQ    3,,PR0

  17639 17 010636   000271 220003                    LDX0    185,DU
        17 010637   000003 440100                    SXL0    3,,PR0

      458    17641        %NEWRSW;
      459    17644        %SEARCH (RWD='END-WRITE',              RWNO=%RSV_WRD_END_WRITE);

  17648 17 010640   002731 054000 1                  AOS     NUMBER_OF_RESERVED_WORDS

PL6.E3A0      #001=COBOLRW File=COBOLRW.:Z8A6TSI                                 SAT 08/09/97 09:25 Page:237
  17649 17 010641   000011 235007                    LDA     9,DL
        17 010642   000010 755000 6                  STA     LEX_SYMBOL+8

  17650 17 010643   040000 100400                    MLR     fill='040'O
        17 010644   000734 000011 16                 ADSC9   476                      cn=0,n=9
        17 010645   000011 000504 6                  ADSC9   LEX_SYMBOL+9             cn=0,n=324

  17651 17 010646   000000 631400 18                 EPPR1   0
        17 010647   000000 701000 xent               TSX1    Z8AH$SEARCH_
        17 010650   000000 011000                    NOP     0

  17652 17 010651   000000 470400 2                  LDP0    DNT$
        17 010652   400000 236003                    LDQ     -131072,DU
        17 010653   000003 256100                    ORSQ    3,,PR0

  17653 17 010654   000001 236000 18                 LDQ     1
        17 010655   000003 356100                    ANSQ    3,,PR0

  17654 17 010656   000002 236000 18                 LDQ     2
        17 010657   000003 356100                    ANSQ    3,,PR0

  17655 17 010660   000003 236000 18                 LDQ     3
        17 010661   000003 356100                    ANSQ    3,,PR0

  17656 17 010662   000004 236000 18                 LDQ     4
        17 010663   000003 356100                    ANSQ    3,,PR0

  17657 17 010664   000272 220003                    LDX0    186,DU
        17 010665   000003 440100                    SXL0    3,,PR0

      460    17659        %NEWRSW;
      461    17662        %SEARCH (RWD='ENDING',                 RWNO=%RSV_WRD_ENDING);

  17666 17 010666   002731 054000 1                  AOS     NUMBER_OF_RESERVED_WORDS

  17667 17 010667   000006 235007                    LDA     6,DL
        17 010670   000010 755000 6                  STA     LEX_SYMBOL+8
PL6.E3A0      #001=COBOLRW File=COBOLRW.:Z8A6TSI                                 SAT 08/09/97 09:25 Page:238

  17668 17 010671   040000 100400                    MLR     fill='040'O
        17 010672   000737 000006 16                 ADSC9   479                      cn=0,n=6
        17 010673   000011 000504 6                  ADSC9   LEX_SYMBOL+9             cn=0,n=324

  17669 17 010674   000000 631400 18                 EPPR1   0
        17 010675   000000 701000 xent               TSX1    Z8AH$SEARCH_
        17 010676   000000 011000                    NOP     0

  17670 17 010677   000000 470400 2                  LDP0    DNT$
        17 010700   400000 236003                    LDQ     -131072,DU
        17 010701   000003 256100                    ORSQ    3,,PR0

  17671 17 010702   000001 236000 18                 LDQ     1
        17 010703   000003 356100                    ANSQ    3,,PR0

  17672 17 010704   000002 236000 18                 LDQ     2
        17 010705   000003 356100                    ANSQ    3,,PR0

  17673 17 010706   000003 236000 18                 LDQ     3
        17 010707   000003 356100                    ANSQ    3,,PR0

  17674 17 010710   000004 236000 18                 LDQ     4
        17 010711   000003 356100                    ANSQ    3,,PR0

  17675 17 010712   000273 220003                    LDX0    187,DU
        17 010713   000003 440100                    SXL0    3,,PR0

      462    17677        %NEWRSW;
      463    17680        %SEARCH (RWD='ENTRY',                  RWNO=%RSV_WRD_ENTRY);

  17684 17 010714   002731 054000 1                  AOS     NUMBER_OF_RESERVED_WORDS

  17685 17 010715   000005 235007                    LDA     5,DL
        17 010716   000010 755000 6                  STA     LEX_SYMBOL+8

  17686 17 010717   040000 100400                    MLR     fill='040'O
PL6.E3A0      #001=COBOLRW File=COBOLRW.:Z8A6TSI                                 SAT 08/09/97 09:25 Page:239
        17 010720   000741 000005 16                 ADSC9   481                      cn=0,n=5
        17 010721   000011 000504 6                  ADSC9   LEX_SYMBOL+9             cn=0,n=324

  17687 17 010722   000000 631400 18                 EPPR1   0
        17 010723   000000 701000 xent               TSX1    Z8AH$SEARCH_
        17 010724   000000 011000                    NOP     0

  17688 17 010725   000000 470400 2                  LDP0    DNT$
        17 010726   400000 236003                    LDQ     -131072,DU
        17 010727   000003 256100                    ORSQ    3,,PR0

  17689 17 010730   000001 236000 18                 LDQ     1
        17 010731   000003 356100                    ANSQ    3,,PR0

  17690 17 010732   000002 236000 18                 LDQ     2
        17 010733   000003 356100                    ANSQ    3,,PR0

  17691 17 010734   000003 236000 18                 LDQ     3
        17 010735   000003 356100                    ANSQ    3,,PR0

  17692 17 010736   000004 236000 18                 LDQ     4
        17 010737   000003 356100                    ANSQ    3,,PR0

  17693 17 010740   000274 220003                    LDX0    188,DU
        17 010741   000003 440100                    SXL0    3,,PR0

      464    17695        %NEWRSW;
      465    17698        %SEARCH (RWD='ENVIRONMENT',            RWNO=%RSV_WRD_ENVIRONMENT, MUST_AREAA=TRUE);

  17702 17 010742   002731 054000 1                  AOS     NUMBER_OF_RESERVED_WORDS

  17703 17 010743   000013 235007                    LDA     11,DL
        17 010744   000010 755000 6                  STA     LEX_SYMBOL+8

  17704 17 010745   040000 100400                    MLR     fill='040'O
        17 010746   000743 000013 16                 ADSC9   483                      cn=0,n=11
        17 010747   000011 000504 6                  ADSC9   LEX_SYMBOL+9             cn=0,n=324
PL6.E3A0      #001=COBOLRW File=COBOLRW.:Z8A6TSI                                 SAT 08/09/97 09:25 Page:240

  17705 17 010750   000000 631400 18                 EPPR1   0
        17 010751   000000 701000 xent               TSX1    Z8AH$SEARCH_
        17 010752   000000 011000                    NOP     0

  17706 17 010753   000000 470400 2                  LDP0    DNT$
        17 010754   400000 236003                    LDQ     -131072,DU
        17 010755   000003 256100                    ORSQ    3,,PR0

  17707 17 010756   000001 236000 18                 LDQ     1
        17 010757   000003 356100                    ANSQ    3,,PR0

  17708 17 010760   000002 236000 18                 LDQ     2
        17 010761   000003 356100                    ANSQ    3,,PR0

  17709 17 010762   000040 236003                    LDQ     32,DU
        17 010763   000003 256100                    ORSQ    3,,PR0

  17710 17 010764   000004 236000 18                 LDQ     4
        17 010765   000003 356100                    ANSQ    3,,PR0

  17711 17 010766   000275 220003                    LDX0    189,DU
        17 010767   000003 440100                    SXL0    3,,PR0

      466    17713        %NEWRSW;
      467    17716        %SEARCH (RWD='EQUAL',                  RWNO=%RSV_WRD_EQUAL);

  17720 17 010770   002731 054000 1                  AOS     NUMBER_OF_RESERVED_WORDS

  17721 17 010771   000005 235007                    LDA     5,DL
        17 010772   000010 755000 6                  STA     LEX_SYMBOL+8

  17722 17 010773   040000 100400                    MLR     fill='040'O
        17 010774   000746 000005 16                 ADSC9   486                      cn=0,n=5
        17 010775   000011 000504 6                  ADSC9   LEX_SYMBOL+9             cn=0,n=324

  17723 17 010776   000000 631400 18                 EPPR1   0
PL6.E3A0      #001=COBOLRW File=COBOLRW.:Z8A6TSI                                 SAT 08/09/97 09:25 Page:241
        17 010777   000000 701000 xent               TSX1    Z8AH$SEARCH_
        17 011000   000000 011000                    NOP     0

  17724 17 011001   000000 470400 2                  LDP0    DNT$
        17 011002   400000 236003                    LDQ     -131072,DU
        17 011003   000003 256100                    ORSQ    3,,PR0

  17725 17 011004   000001 236000 18                 LDQ     1
        17 011005   000003 356100                    ANSQ    3,,PR0

  17726 17 011006   000002 236000 18                 LDQ     2
        17 011007   000003 356100                    ANSQ    3,,PR0

  17727 17 011010   000003 236000 18                 LDQ     3
        17 011011   000003 356100                    ANSQ    3,,PR0

  17728 17 011012   000004 236000 18                 LDQ     4
        17 011013   000003 356100                    ANSQ    3,,PR0

  17729 17 011014   000276 220003                    LDX0    190,DU
        17 011015   000003 440100                    SXL0    3,,PR0

      468    17731        %SEARCH (RWD='EQUALS',                 RWNO=%RSV_WRD_EQUAL);

  17735 17 011016   002731 054000 1                  AOS     NUMBER_OF_RESERVED_WORDS

  17736 17 011017   000006 235007                    LDA     6,DL
        17 011020   000010 755000 6                  STA     LEX_SYMBOL+8

  17737 17 011021   040000 100400                    MLR     fill='040'O
        17 011022   000750 000006 16                 ADSC9   488                      cn=0,n=6
        17 011023   000011 000504 6                  ADSC9   LEX_SYMBOL+9             cn=0,n=324

  17738 17 011024   000000 631400 18                 EPPR1   0
        17 011025   000000 701000 xent               TSX1    Z8AH$SEARCH_
        17 011026   000000 011000                    NOP     0

PL6.E3A0      #001=COBOLRW File=COBOLRW.:Z8A6TSI                                 SAT 08/09/97 09:25 Page:242
  17739 17 011027   000000 470400 2                  LDP0    DNT$
        17 011030   400000 236003                    LDQ     -131072,DU
        17 011031   000003 256100                    ORSQ    3,,PR0

  17740 17 011032   000001 236000 18                 LDQ     1
        17 011033   000003 356100                    ANSQ    3,,PR0

  17741 17 011034   000002 236000 18                 LDQ     2
        17 011035   000003 356100                    ANSQ    3,,PR0

  17742 17 011036   000003 236000 18                 LDQ     3
        17 011037   000003 356100                    ANSQ    3,,PR0

  17743 17 011040   000004 236000 18                 LDQ     4
        17 011041   000003 356100                    ANSQ    3,,PR0

  17744 17 011042   000276 220003                    LDX0    190,DU
        17 011043   000003 440100                    SXL0    3,,PR0

      469    17746        %NEWRSW;
      470    17749        %SEARCH (RWD='ERASE',                  RWNO=%RSV_WRD_ERASE);

  17753 17 011044   002731 054000 1                  AOS     NUMBER_OF_RESERVED_WORDS

  17754 17 011045   000005 235007                    LDA     5,DL
        17 011046   000010 755000 6                  STA     LEX_SYMBOL+8

  17755 17 011047   040000 100400                    MLR     fill='040'O
        17 011050   000752 000005 16                 ADSC9   490                      cn=0,n=5
        17 011051   000011 000504 6                  ADSC9   LEX_SYMBOL+9             cn=0,n=324

  17756 17 011052   000000 631400 18                 EPPR1   0
        17 011053   000000 701000 xent               TSX1    Z8AH$SEARCH_
        17 011054   000000 011000                    NOP     0

  17757 17 011055   000000 470400 2                  LDP0    DNT$
        17 011056   400000 236003                    LDQ     -131072,DU
PL6.E3A0      #001=COBOLRW File=COBOLRW.:Z8A6TSI                                 SAT 08/09/97 09:25 Page:243
        17 011057   000003 256100                    ORSQ    3,,PR0

  17758 17 011060   000001 236000 18                 LDQ     1
        17 011061   000003 356100                    ANSQ    3,,PR0

  17759 17 011062   000002 236000 18                 LDQ     2
        17 011063   000003 356100                    ANSQ    3,,PR0

  17760 17 011064   000003 236000 18                 LDQ     3
        17 011065   000003 356100                    ANSQ    3,,PR0

  17761 17 011066   000004 236000 18                 LDQ     4
        17 011067   000003 356100                    ANSQ    3,,PR0

  17762 17 011070   000277 220003                    LDX0    191,DU
        17 011071   000003 440100                    SXL0    3,,PR0

      471    17764        %NEWRSW;
      472    17767        %SEARCH (RWD='ERROR',                  RWNO=%RSV_WRD_ERROR);

  17771 17 011072   002731 054000 1                  AOS     NUMBER_OF_RESERVED_WORDS

  17772 17 011073   000005 235007                    LDA     5,DL
        17 011074   000010 755000 6                  STA     LEX_SYMBOL+8

  17773 17 011075   040000 100400                    MLR     fill='040'O
        17 011076   000754 000005 16                 ADSC9   492                      cn=0,n=5
        17 011077   000011 000504 6                  ADSC9   LEX_SYMBOL+9             cn=0,n=324

  17774 17 011100   000000 631400 18                 EPPR1   0
        17 011101   000000 701000 xent               TSX1    Z8AH$SEARCH_
        17 011102   000000 011000                    NOP     0

  17775 17 011103   000000 470400 2                  LDP0    DNT$
        17 011104   400000 236003                    LDQ     -131072,DU
        17 011105   000003 256100                    ORSQ    3,,PR0

PL6.E3A0      #001=COBOLRW File=COBOLRW.:Z8A6TSI                                 SAT 08/09/97 09:25 Page:244
  17776 17 011106   000001 236000 18                 LDQ     1
        17 011107   000003 356100                    ANSQ    3,,PR0

  17777 17 011110   000002 236000 18                 LDQ     2
        17 011111   000003 356100                    ANSQ    3,,PR0

  17778 17 011112   000003 236000 18                 LDQ     3
        17 011113   000003 356100                    ANSQ    3,,PR0

  17779 17 011114   000004 236000 18                 LDQ     4
        17 011115   000003 356100                    ANSQ    3,,PR0

  17780 17 011116   000300 220003                    LDX0    192,DU
        17 011117   000003 440100                    SXL0    3,,PR0

      473    17782        %NEWRSW;
      474    17785        %SEARCH (RWD='ESI',                    RWNO=%RSV_WRD_ESI);

  17789 17 011120   002731 054000 1                  AOS     NUMBER_OF_RESERVED_WORDS

  17790 17 011121   000003 235007                    LDA     3,DL
        17 011122   000010 755000 6                  STA     LEX_SYMBOL+8

  17791 17 011123   040000 100400                    MLR     fill='040'O
        17 011124   000756 000003 16                 ADSC9   494                      cn=0,n=3
        17 011125   000011 000504 6                  ADSC9   LEX_SYMBOL+9             cn=0,n=324

  17792 17 011126   000000 631400 18                 EPPR1   0
        17 011127   000000 701000 xent               TSX1    Z8AH$SEARCH_
        17 011130   000000 011000                    NOP     0

  17793 17 011131   000000 470400 2                  LDP0    DNT$
        17 011132   400000 236003                    LDQ     -131072,DU
        17 011133   000003 256100                    ORSQ    3,,PR0

  17794 17 011134   000001 236000 18                 LDQ     1
        17 011135   000003 356100                    ANSQ    3,,PR0
PL6.E3A0      #001=COBOLRW File=COBOLRW.:Z8A6TSI                                 SAT 08/09/97 09:25 Page:245

  17795 17 011136   000002 236000 18                 LDQ     2
        17 011137   000003 356100                    ANSQ    3,,PR0

  17796 17 011140   000003 236000 18                 LDQ     3
        17 011141   000003 356100                    ANSQ    3,,PR0

  17797 17 011142   000004 236000 18                 LDQ     4
        17 011143   000003 356100                    ANSQ    3,,PR0

  17798 17 011144   000301 220003                    LDX0    193,DU
        17 011145   000003 440100                    SXL0    3,,PR0

      475    17800        %NEWRSW;
      476    17803        %SEARCH (RWD='EVALUATE',               RWNO=%RSV_WRD_EVALUATE);

  17807 17 011146   002731 054000 1                  AOS     NUMBER_OF_RESERVED_WORDS

  17808 17 011147   000010 235007                    LDA     8,DL
        17 011150   000010 755000 6                  STA     LEX_SYMBOL+8

  17809 17 011151   040000 100400                    MLR     fill='040'O
        17 011152   000656 000010 16                 ADSC9   430                      cn=0,n=8
        17 011153   000011 000504 6                  ADSC9   LEX_SYMBOL+9             cn=0,n=324

  17810 17 011154   000000 631400 18                 EPPR1   0
        17 011155   000000 701000 xent               TSX1    Z8AH$SEARCH_
        17 011156   000000 011000                    NOP     0

  17811 17 011157   000000 470400 2                  LDP0    DNT$
        17 011160   400000 236003                    LDQ     -131072,DU
        17 011161   000003 256100                    ORSQ    3,,PR0

  17812 17 011162   000001 236000 18                 LDQ     1
        17 011163   000003 356100                    ANSQ    3,,PR0

  17813 17 011164   000002 236000 18                 LDQ     2
PL6.E3A0      #001=COBOLRW File=COBOLRW.:Z8A6TSI                                 SAT 08/09/97 09:25 Page:246
        17 011165   000003 356100                    ANSQ    3,,PR0

  17814 17 011166   000003 236000 18                 LDQ     3
        17 011167   000003 356100                    ANSQ    3,,PR0

  17815 17 011170   000004 236000 18                 LDQ     4
        17 011171   000003 356100                    ANSQ    3,,PR0

  17816 17 011172   000302 220003                    LDX0    194,DU
        17 011173   000003 440100                    SXL0    3,,PR0

      477    17818        %NEWRSW;
      478    17821        %SEARCH (RWD='EVERY',                  RWNO=%RSV_WRD_EVERY);

  17825 17 011174   002731 054000 1                  AOS     NUMBER_OF_RESERVED_WORDS

  17826 17 011175   000005 235007                    LDA     5,DL
        17 011176   000010 755000 6                  STA     LEX_SYMBOL+8

  17827 17 011177   040000 100400                    MLR     fill='040'O
        17 011200   000757 000005 16                 ADSC9   495                      cn=0,n=5
        17 011201   000011 000504 6                  ADSC9   LEX_SYMBOL+9             cn=0,n=324

  17828 17 011202   000000 631400 18                 EPPR1   0
        17 011203   000000 701000 xent               TSX1    Z8AH$SEARCH_
        17 011204   000000 011000                    NOP     0

  17829 17 011205   000000 470400 2                  LDP0    DNT$
        17 011206   400000 236003                    LDQ     -131072,DU
        17 011207   000003 256100                    ORSQ    3,,PR0

  17830 17 011210   000001 236000 18                 LDQ     1
        17 011211   000003 356100                    ANSQ    3,,PR0

  17831 17 011212   000002 236000 18                 LDQ     2
        17 011213   000003 356100                    ANSQ    3,,PR0

PL6.E3A0      #001=COBOLRW File=COBOLRW.:Z8A6TSI                                 SAT 08/09/97 09:25 Page:247
  17832 17 011214   000003 236000 18                 LDQ     3
        17 011215   000003 356100                    ANSQ    3,,PR0

  17833 17 011216   000004 236000 18                 LDQ     4
        17 011217   000003 356100                    ANSQ    3,,PR0

  17834 17 011220   000303 220003                    LDX0    195,DU
        17 011221   000003 440100                    SXL0    3,,PR0

      479    17836        %NEWRSW;
      480    17839        %SEARCH (RWD='EXAMINE',                RWNO=%RSV_WRD_EXAMINE);

  17843 17 011222   002731 054000 1                  AOS     NUMBER_OF_RESERVED_WORDS

  17844 17 011223   000007 235007                    LDA     7,DL
        17 011224   000010 755000 6                  STA     LEX_SYMBOL+8

  17845 17 011225   040000 100400                    MLR     fill='040'O
        17 011226   000761 000007 16                 ADSC9   497                      cn=0,n=7
        17 011227   000011 000504 6                  ADSC9   LEX_SYMBOL+9             cn=0,n=324

  17846 17 011230   000000 631400 18                 EPPR1   0
        17 011231   000000 701000 xent               TSX1    Z8AH$SEARCH_
        17 011232   000000 011000                    NOP     0

  17847 17 011233   000000 470400 2                  LDP0    DNT$
        17 011234   400000 236003                    LDQ     -131072,DU
        17 011235   000003 256100                    ORSQ    3,,PR0

  17848 17 011236   000001 236000 18                 LDQ     1
        17 011237   000003 356100                    ANSQ    3,,PR0

  17849 17 011240   000002 236000 18                 LDQ     2
        17 011241   000003 356100                    ANSQ    3,,PR0

  17850 17 011242   000003 236000 18                 LDQ     3
        17 011243   000003 356100                    ANSQ    3,,PR0
PL6.E3A0      #001=COBOLRW File=COBOLRW.:Z8A6TSI                                 SAT 08/09/97 09:25 Page:248

  17851 17 011244   000004 236000 18                 LDQ     4
        17 011245   000003 356100                    ANSQ    3,,PR0

  17852 17 011246   000304 220003                    LDX0    196,DU
        17 011247   000003 440100                    SXL0    3,,PR0

      481    17854        %NEWRSW;
      482    17857        %SEARCH (RWD='EXCEEDS',                RWNO=%RSV_WRD_EXCEEDS);

  17861 17 011250   002731 054000 1                  AOS     NUMBER_OF_RESERVED_WORDS

  17862 17 011251   000007 235007                    LDA     7,DL
        17 011252   000010 755000 6                  STA     LEX_SYMBOL+8

  17863 17 011253   040000 100400                    MLR     fill='040'O
        17 011254   000763 000007 16                 ADSC9   499                      cn=0,n=7
        17 011255   000011 000504 6                  ADSC9   LEX_SYMBOL+9             cn=0,n=324

  17864 17 011256   000000 631400 18                 EPPR1   0
        17 011257   000000 701000 xent               TSX1    Z8AH$SEARCH_
        17 011260   000000 011000                    NOP     0

  17865 17 011261   000000 470400 2                  LDP0    DNT$
        17 011262   400000 236003                    LDQ     -131072,DU
        17 011263   000003 256100                    ORSQ    3,,PR0

  17866 17 011264   000001 236000 18                 LDQ     1
        17 011265   000003 356100                    ANSQ    3,,PR0

  17867 17 011266   000002 236000 18                 LDQ     2
        17 011267   000003 356100                    ANSQ    3,,PR0

  17868 17 011270   000003 236000 18                 LDQ     3
        17 011271   000003 356100                    ANSQ    3,,PR0

  17869 17 011272   000004 236000 18                 LDQ     4
PL6.E3A0      #001=COBOLRW File=COBOLRW.:Z8A6TSI                                 SAT 08/09/97 09:25 Page:249
        17 011273   000003 356100                    ANSQ    3,,PR0

  17870 17 011274   000305 220003                    LDX0    197,DU
        17 011275   000003 440100                    SXL0    3,,PR0

      483    17872        %NEWRSW;
      484    17875        %SEARCH (RWD='EXCEPTION',              RWNO=%RSV_WRD_EXCEPTION);

  17879 17 011276   002731 054000 1                  AOS     NUMBER_OF_RESERVED_WORDS

  17880 17 011277   000011 235007                    LDA     9,DL
        17 011300   000010 755000 6                  STA     LEX_SYMBOL+8

  17881 17 011301   040000 100400                    MLR     fill='040'O
        17 011302   000765 000011 16                 ADSC9   501                      cn=0,n=9
        17 011303   000011 000504 6                  ADSC9   LEX_SYMBOL+9             cn=0,n=324

  17882 17 011304   000000 631400 18                 EPPR1   0
        17 011305   000000 701000 xent               TSX1    Z8AH$SEARCH_
        17 011306   000000 011000                    NOP     0

  17883 17 011307   000000 470400 2                  LDP0    DNT$
        17 011310   400000 236003                    LDQ     -131072,DU
        17 011311   000003 256100                    ORSQ    3,,PR0

  17884 17 011312   000001 236000 18                 LDQ     1
        17 011313   000003 356100                    ANSQ    3,,PR0

  17885 17 011314   000002 236000 18                 LDQ     2
        17 011315   000003 356100                    ANSQ    3,,PR0

  17886 17 011316   000003 236000 18                 LDQ     3
        17 011317   000003 356100                    ANSQ    3,,PR0

  17887 17 011320   000004 236000 18                 LDQ     4
        17 011321   000003 356100                    ANSQ    3,,PR0

PL6.E3A0      #001=COBOLRW File=COBOLRW.:Z8A6TSI                                 SAT 08/09/97 09:25 Page:250
  17888 17 011322   000306 220003                    LDX0    198,DU
        17 011323   000003 440100                    SXL0    3,,PR0

      485    17890        %NEWRSW;
      486    17893        %SEARCH (RWD='EXIT',                   RWNO=%RSV_WRD_EXIT);

  17897 17 011324   002731 054000 1                  AOS     NUMBER_OF_RESERVED_WORDS

  17898 17 011325   000004 235007                    LDA     4,DL
        17 011326   000010 755000 6                  STA     LEX_SYMBOL+8

  17899 17 011327   040000 100400                    MLR     fill='040'O
        17 011330   000770 000004 16                 ADSC9   504                      cn=0,n=4
        17 011331   000011 000504 6                  ADSC9   LEX_SYMBOL+9             cn=0,n=324

  17900 17 011332   000000 631400 18                 EPPR1   0
        17 011333   000000 701000 xent               TSX1    Z8AH$SEARCH_
        17 011334   000000 011000                    NOP     0

  17901 17 011335   000000 470400 2                  LDP0    DNT$
        17 011336   400000 236003                    LDQ     -131072,DU
        17 011337   000003 256100                    ORSQ    3,,PR0

  17902 17 011340   000001 236000 18                 LDQ     1
        17 011341   000003 356100                    ANSQ    3,,PR0

  17903 17 011342   000002 236000 18                 LDQ     2
        17 011343   000003 356100                    ANSQ    3,,PR0

  17904 17 011344   000003 236000 18                 LDQ     3
        17 011345   000003 356100                    ANSQ    3,,PR0

  17905 17 011346   000004 236000 18                 LDQ     4
        17 011347   000003 356100                    ANSQ    3,,PR0

  17906 17 011350   000307 220003                    LDX0    199,DU
        17 011351   000003 440100                    SXL0    3,,PR0
PL6.E3A0      #001=COBOLRW File=COBOLRW.:Z8A6TSI                                 SAT 08/09/97 09:25 Page:251

      487    17908        %NEWRSW;
      488    17911        %SEARCH (RWD='EXTEND',                 RWNO=%RSV_WRD_EXTEND);

  17915 17 011352   002731 054000 1                  AOS     NUMBER_OF_RESERVED_WORDS

  17916 17 011353   000006 235007                    LDA     6,DL
        17 011354   000010 755000 6                  STA     LEX_SYMBOL+8

  17917 17 011355   040000 100400                    MLR     fill='040'O
        17 011356   000771 000006 16                 ADSC9   505                      cn=0,n=6
        17 011357   000011 000504 6                  ADSC9   LEX_SYMBOL+9             cn=0,n=324

  17918 17 011360   000000 631400 18                 EPPR1   0
        17 011361   000000 701000 xent               TSX1    Z8AH$SEARCH_
        17 011362   000000 011000                    NOP     0

  17919 17 011363   000000 470400 2                  LDP0    DNT$
        17 011364   400000 236003                    LDQ     -131072,DU
        17 011365   000003 256100                    ORSQ    3,,PR0

  17920 17 011366   000001 236000 18                 LDQ     1
        17 011367   000003 356100                    ANSQ    3,,PR0

  17921 17 011370   000002 236000 18                 LDQ     2
        17 011371   000003 356100                    ANSQ    3,,PR0

  17922 17 011372   000003 236000 18                 LDQ     3
        17 011373   000003 356100                    ANSQ    3,,PR0

  17923 17 011374   000004 236000 18                 LDQ     4
        17 011375   000003 356100                    ANSQ    3,,PR0

  17924 17 011376   000310 220003                    LDX0    200,DU
        17 011377   000003 440100                    SXL0    3,,PR0

      489    17926        %NEWRSW;
PL6.E3A0      #001=COBOLRW File=COBOLRW.:Z8A6TSI                                 SAT 08/09/97 09:25 Page:252
      490    17929        %SEARCH (RWD='EXTERNAL',               RWNO=%RSV_WRD_EXTERNAL);

  17933 17 011400   002731 054000 1                  AOS     NUMBER_OF_RESERVED_WORDS

  17934 17 011401   000010 235007                    LDA     8,DL
        17 011402   000010 755000 6                  STA     LEX_SYMBOL+8

  17935 17 011403   040000 100400                    MLR     fill='040'O
        17 011404   000773 000010 16                 ADSC9   507                      cn=0,n=8
        17 011405   000011 000504 6                  ADSC9   LEX_SYMBOL+9             cn=0,n=324

  17936 17 011406   000000 631400 18                 EPPR1   0
        17 011407   000000 701000 xent               TSX1    Z8AH$SEARCH_
        17 011410   000000 011000                    NOP     0

  17937 17 011411   000000 470400 2                  LDP0    DNT$
        17 011412   400000 236003                    LDQ     -131072,DU
        17 011413   000003 256100                    ORSQ    3,,PR0

  17938 17 011414   000001 236000 18                 LDQ     1
        17 011415   000003 356100                    ANSQ    3,,PR0

  17939 17 011416   000002 236000 18                 LDQ     2
        17 011417   000003 356100                    ANSQ    3,,PR0

  17940 17 011420   000003 236000 18                 LDQ     3
        17 011421   000003 356100                    ANSQ    3,,PR0

  17941 17 011422   000004 236000 18                 LDQ     4
        17 011423   000003 356100                    ANSQ    3,,PR0

  17942 17 011424   000311 220003                    LDX0    201,DU
        17 011425   000003 440100                    SXL0    3,,PR0

      491    17944        %NEWRSW;
      492    17947        %SEARCH (RWD='FALSE',                  RWNO=%RSV_WRD_FALSE);

PL6.E3A0      #001=COBOLRW File=COBOLRW.:Z8A6TSI                                 SAT 08/09/97 09:25 Page:253
  17951 17 011426   002731 054000 1                  AOS     NUMBER_OF_RESERVED_WORDS

  17952 17 011427   000005 235007                    LDA     5,DL
        17 011430   000010 755000 6                  STA     LEX_SYMBOL+8

  17953 17 011431   040000 100400                    MLR     fill='040'O
        17 011432   000775 000005 16                 ADSC9   509                      cn=0,n=5
        17 011433   000011 000504 6                  ADSC9   LEX_SYMBOL+9             cn=0,n=324

  17954 17 011434   000000 631400 18                 EPPR1   0
        17 011435   000000 701000 xent               TSX1    Z8AH$SEARCH_
        17 011436   000000 011000                    NOP     0

  17955 17 011437   000000 470400 2                  LDP0    DNT$
        17 011440   400000 236003                    LDQ     -131072,DU
        17 011441   000003 256100                    ORSQ    3,,PR0

  17956 17 011442   000001 236000 18                 LDQ     1
        17 011443   000003 356100                    ANSQ    3,,PR0

  17957 17 011444   000002 236000 18                 LDQ     2
        17 011445   000003 356100                    ANSQ    3,,PR0

  17958 17 011446   000003 236000 18                 LDQ     3
        17 011447   000003 356100                    ANSQ    3,,PR0

  17959 17 011450   000004 236000 18                 LDQ     4
        17 011451   000003 356100                    ANSQ    3,,PR0

  17960 17 011452   000312 220003                    LDX0    202,DU
        17 011453   000003 440100                    SXL0    3,,PR0

      493    17962        %NEWRSW;
      494    17965        %SEARCH (RWD='FD',                     RWNO=%RSV_WRD_FD);

  17969 17 011454   002731 054000 1                  AOS     NUMBER_OF_RESERVED_WORDS

PL6.E3A0      #001=COBOLRW File=COBOLRW.:Z8A6TSI                                 SAT 08/09/97 09:25 Page:254
  17970 17 011455   000002 235007                    LDA     2,DL
        17 011456   000010 755000 6                  STA     LEX_SYMBOL+8

  17971 17 011457   040000 100400                    MLR     fill='040'O
        17 011460   000777 000002 16                 ADSC9   511                      cn=0,n=2
        17 011461   000011 000504 6                  ADSC9   LEX_SYMBOL+9             cn=0,n=324

  17972 17 011462   000000 631400 18                 EPPR1   0
        17 011463   000000 701000 xent               TSX1    Z8AH$SEARCH_
        17 011464   000000 011000                    NOP     0

  17973 17 011465   000000 470400 2                  LDP0    DNT$
        17 011466   400000 236003                    LDQ     -131072,DU
        17 011467   000003 256100                    ORSQ    3,,PR0

  17974 17 011470   000001 236000 18                 LDQ     1
        17 011471   000003 356100                    ANSQ    3,,PR0

  17975 17 011472   000002 236000 18                 LDQ     2
        17 011473   000003 356100                    ANSQ    3,,PR0

  17976 17 011474   000003 236000 18                 LDQ     3
        17 011475   000003 356100                    ANSQ    3,,PR0

  17977 17 011476   000004 236000 18                 LDQ     4
        17 011477   000003 356100                    ANSQ    3,,PR0

  17978 17 011500   000313 220003                    LDX0    203,DU
        17 011501   000003 440100                    SXL0    3,,PR0

      495    17980        %NEWRSW;
      496    17983        %SEARCH (RWD='FILE',                   RWNO=%RSV_WRD_FILE);

  17987 17 011502   002731 054000 1                  AOS     NUMBER_OF_RESERVED_WORDS

  17988 17 011503   000004 235007                    LDA     4,DL
        17 011504   000010 755000 6                  STA     LEX_SYMBOL+8
PL6.E3A0      #001=COBOLRW File=COBOLRW.:Z8A6TSI                                 SAT 08/09/97 09:25 Page:255

  17989 17 011505   040000 100400                    MLR     fill='040'O
        17 011506   001000 000004 16                 ADSC9   512                      cn=0,n=4
        17 011507   000011 000504 6                  ADSC9   LEX_SYMBOL+9             cn=0,n=324

  17990 17 011510   000000 631400 18                 EPPR1   0
        17 011511   000000 701000 xent               TSX1    Z8AH$SEARCH_
        17 011512   000000 011000                    NOP     0

  17991 17 011513   000000 470400 2                  LDP0    DNT$
        17 011514   400000 236003                    LDQ     -131072,DU
        17 011515   000003 256100                    ORSQ    3,,PR0

  17992 17 011516   000001 236000 18                 LDQ     1
        17 011517   000003 356100                    ANSQ    3,,PR0

  17993 17 011520   000002 236000 18                 LDQ     2
        17 011521   000003 356100                    ANSQ    3,,PR0

  17994 17 011522   000003 236000 18                 LDQ     3
        17 011523   000003 356100                    ANSQ    3,,PR0

  17995 17 011524   000004 236000 18                 LDQ     4
        17 011525   000003 356100                    ANSQ    3,,PR0

  17996 17 011526   000314 220003                    LDX0    204,DU
        17 011527   000003 440100                    SXL0    3,,PR0

      497    17998        %NEWRSW;
      498    18001        %SEARCH (RWD='FILE-CONTROL',          RWNO=%RSV_WRD_FILE_CONTROL, MUST_AREAA=TRUE);

  18005 17 011530   002731 054000 1                  AOS     NUMBER_OF_RESERVED_WORDS

  18006 17 011531   000014 235007                    LDA     12,DL
        17 011532   000010 755000 6                  STA     LEX_SYMBOL+8

  18007 17 011533   040000 100400                    MLR     fill='040'O
PL6.E3A0      #001=COBOLRW File=COBOLRW.:Z8A6TSI                                 SAT 08/09/97 09:25 Page:256
        17 011534   001001 000014 16                 ADSC9   513                      cn=0,n=12
        17 011535   000011 000504 6                  ADSC9   LEX_SYMBOL+9             cn=0,n=324

  18008 17 011536   000000 631400 18                 EPPR1   0
        17 011537   000000 701000 xent               TSX1    Z8AH$SEARCH_
        17 011540   000000 011000                    NOP     0

  18009 17 011541   000000 470400 2                  LDP0    DNT$
        17 011542   400000 236003                    LDQ     -131072,DU
        17 011543   000003 256100                    ORSQ    3,,PR0

  18010 17 011544   000001 236000 18                 LDQ     1
        17 011545   000003 356100                    ANSQ    3,,PR0

  18011 17 011546   000002 236000 18                 LDQ     2
        17 011547   000003 356100                    ANSQ    3,,PR0

  18012 17 011550   000040 236003                    LDQ     32,DU
        17 011551   000003 256100                    ORSQ    3,,PR0

  18013 17 011552   000004 236000 18                 LDQ     4
        17 011553   000003 356100                    ANSQ    3,,PR0

  18014 17 011554   000315 220003                    LDX0    205,DU
        17 011555   000003 440100                    SXL0    3,,PR0

      499    18016        %NEWRSW;
      500    18019        %SEARCH (RWD='FILE-ID',                RWNO=%RSV_WRD_FILE_ID);

  18023 17 011556   002731 054000 1                  AOS     NUMBER_OF_RESERVED_WORDS

  18024 17 011557   000007 235007                    LDA     7,DL
        17 011560   000010 755000 6                  STA     LEX_SYMBOL+8

  18025 17 011561   040000 100400                    MLR     fill='040'O
        17 011562   001004 000007 16                 ADSC9   516                      cn=0,n=7
        17 011563   000011 000504 6                  ADSC9   LEX_SYMBOL+9             cn=0,n=324
PL6.E3A0      #001=COBOLRW File=COBOLRW.:Z8A6TSI                                 SAT 08/09/97 09:25 Page:257

  18026 17 011564   000000 631400 18                 EPPR1   0
        17 011565   000000 701000 xent               TSX1    Z8AH$SEARCH_
        17 011566   000000 011000                    NOP     0

  18027 17 011567   000000 470400 2                  LDP0    DNT$
        17 011570   400000 236003                    LDQ     -131072,DU
        17 011571   000003 256100                    ORSQ    3,,PR0

  18028 17 011572   000001 236000 18                 LDQ     1
        17 011573   000003 356100                    ANSQ    3,,PR0

  18029 17 011574   000002 236000 18                 LDQ     2
        17 011575   000003 356100                    ANSQ    3,,PR0

  18030 17 011576   000003 236000 18                 LDQ     3
        17 011577   000003 356100                    ANSQ    3,,PR0

  18031 17 011600   000004 236000 18                 LDQ     4
        17 011601   000003 356100                    ANSQ    3,,PR0

  18032 17 011602   000316 220003                    LDX0    206,DU
        17 011603   000003 440100                    SXL0    3,,PR0

      501    18034        %NEWRSW;
      502    18037        %SEARCH (RWD='FILE-SERIAL-NUMBER',     RWNO=%RSV_WRD_FILE_SERIAL_NUMBER);

  18041 17 011604   002731 054000 1                  AOS     NUMBER_OF_RESERVED_WORDS

  18042 17 011605   000022 235007                    LDA     18,DL
        17 011606   000010 755000 6                  STA     LEX_SYMBOL+8

  18043 17 011607   040000 100400                    MLR     fill='040'O
        17 011610   001006 000022 16                 ADSC9   518                      cn=0,n=18
        17 011611   000011 000504 6                  ADSC9   LEX_SYMBOL+9             cn=0,n=324

  18044 17 011612   000000 631400 18                 EPPR1   0
PL6.E3A0      #001=COBOLRW File=COBOLRW.:Z8A6TSI                                 SAT 08/09/97 09:25 Page:258
        17 011613   000000 701000 xent               TSX1    Z8AH$SEARCH_
        17 011614   000000 011000                    NOP     0

  18045 17 011615   000000 470400 2                  LDP0    DNT$
        17 011616   400000 236003                    LDQ     -131072,DU
        17 011617   000003 256100                    ORSQ    3,,PR0

  18046 17 011620   000001 236000 18                 LDQ     1
        17 011621   000003 356100                    ANSQ    3,,PR0

  18047 17 011622   000002 236000 18                 LDQ     2
        17 011623   000003 356100                    ANSQ    3,,PR0

  18048 17 011624   000003 236000 18                 LDQ     3
        17 011625   000003 356100                    ANSQ    3,,PR0

  18049 17 011626   000004 236000 18                 LDQ     4
        17 011627   000003 356100                    ANSQ    3,,PR0

  18050 17 011630   000317 220003                    LDX0    207,DU
        17 011631   000003 440100                    SXL0    3,,PR0

      503    18052        %NEWRSW;
      504    18055        %SEARCH (RWD='FILLER',                 RWNO=%RSV_WRD_FILLER);

  18059 17 011632   002731 054000 1                  AOS     NUMBER_OF_RESERVED_WORDS

  18060 17 011633   000006 235007                    LDA     6,DL
        17 011634   000010 755000 6                  STA     LEX_SYMBOL+8

  18061 17 011635   040000 100400                    MLR     fill='040'O
        17 011636   001013 000006 16                 ADSC9   523                      cn=0,n=6
        17 011637   000011 000504 6                  ADSC9   LEX_SYMBOL+9             cn=0,n=324

  18062 17 011640   000000 631400 18                 EPPR1   0
        17 011641   000000 701000 xent               TSX1    Z8AH$SEARCH_
        17 011642   000000 011000                    NOP     0
PL6.E3A0      #001=COBOLRW File=COBOLRW.:Z8A6TSI                                 SAT 08/09/97 09:25 Page:259

  18063 17 011643   000000 470400 2                  LDP0    DNT$
        17 011644   400000 236003                    LDQ     -131072,DU
        17 011645   000003 256100                    ORSQ    3,,PR0

  18064 17 011646   000001 236000 18                 LDQ     1
        17 011647   000003 356100                    ANSQ    3,,PR0

  18065 17 011650   000002 236000 18                 LDQ     2
        17 011651   000003 356100                    ANSQ    3,,PR0

  18066 17 011652   000003 236000 18                 LDQ     3
        17 011653   000003 356100                    ANSQ    3,,PR0

  18067 17 011654   000004 236000 18                 LDQ     4
        17 011655   000003 356100                    ANSQ    3,,PR0

  18068 17 011656   000320 220003                    LDX0    208,DU
        17 011657   000003 440100                    SXL0    3,,PR0

      505    18070        %NEWRSW;
      506    18073        %SEARCH (RWD='FINAL',                  RWNO=%RSV_WRD_FINAL);

  18077 17 011660   002731 054000 1                  AOS     NUMBER_OF_RESERVED_WORDS

  18078 17 011661   000005 235007                    LDA     5,DL
        17 011662   000010 755000 6                  STA     LEX_SYMBOL+8

  18079 17 011663   040000 100400                    MLR     fill='040'O
        17 011664   001015 000005 16                 ADSC9   525                      cn=0,n=5
        17 011665   000011 000504 6                  ADSC9   LEX_SYMBOL+9             cn=0,n=324

  18080 17 011666   000000 631400 18                 EPPR1   0
        17 011667   000000 701000 xent               TSX1    Z8AH$SEARCH_
        17 011670   000000 011000                    NOP     0

  18081 17 011671   000000 470400 2                  LDP0    DNT$
PL6.E3A0      #001=COBOLRW File=COBOLRW.:Z8A6TSI                                 SAT 08/09/97 09:25 Page:260
        17 011672   400000 236003                    LDQ     -131072,DU
        17 011673   000003 256100                    ORSQ    3,,PR0

  18082 17 011674   000001 236000 18                 LDQ     1
        17 011675   000003 356100                    ANSQ    3,,PR0

  18083 17 011676   000002 236000 18                 LDQ     2
        17 011677   000003 356100                    ANSQ    3,,PR0

  18084 17 011700   000003 236000 18                 LDQ     3
        17 011701   000003 356100                    ANSQ    3,,PR0

  18085 17 011702   000004 236000 18                 LDQ     4
        17 011703   000003 356100                    ANSQ    3,,PR0

  18086 17 011704   000321 220003                    LDX0    209,DU
        17 011705   000003 440100                    SXL0    3,,PR0

      507    18088        %NEWRSW;
      508    18091        %SEARCH (RWD='FIND',                   RWNO=%RSV_WRD_FIND);

  18095 17 011706   002731 054000 1                  AOS     NUMBER_OF_RESERVED_WORDS

  18096 17 011707   000004 235007                    LDA     4,DL
        17 011710   000010 755000 6                  STA     LEX_SYMBOL+8

  18097 17 011711   040000 100400                    MLR     fill='040'O
        17 011712   001017 000004 16                 ADSC9   527                      cn=0,n=4
        17 011713   000011 000504 6                  ADSC9   LEX_SYMBOL+9             cn=0,n=324

  18098 17 011714   000000 631400 18                 EPPR1   0
        17 011715   000000 701000 xent               TSX1    Z8AH$SEARCH_
        17 011716   000000 011000                    NOP     0

  18099 17 011717   000000 470400 2                  LDP0    DNT$
        17 011720   400000 236003                    LDQ     -131072,DU
        17 011721   000003 256100                    ORSQ    3,,PR0
PL6.E3A0      #001=COBOLRW File=COBOLRW.:Z8A6TSI                                 SAT 08/09/97 09:25 Page:261

  18100 17 011722   000001 236000 18                 LDQ     1
        17 011723   000003 356100                    ANSQ    3,,PR0

  18101 17 011724   000002 236000 18                 LDQ     2
        17 011725   000003 356100                    ANSQ    3,,PR0

  18102 17 011726   000003 236000 18                 LDQ     3
        17 011727   000003 356100                    ANSQ    3,,PR0

  18103 17 011730   000004 236000 18                 LDQ     4
        17 011731   000003 356100                    ANSQ    3,,PR0

  18104 17 011732   000322 220003                    LDX0    210,DU
        17 011733   000003 440100                    SXL0    3,,PR0

      509    18106        %NEWRSW;
      510    18109        %SEARCH (RWD='FINISH',                 RWNO=%RSV_WRD_FINISH);

  18113 17 011734   002731 054000 1                  AOS     NUMBER_OF_RESERVED_WORDS

  18114 17 011735   000006 235007                    LDA     6,DL
        17 011736   000010 755000 6                  STA     LEX_SYMBOL+8

  18115 17 011737   040000 100400                    MLR     fill='040'O
        17 011740   001020 000006 16                 ADSC9   528                      cn=0,n=6
        17 011741   000011 000504 6                  ADSC9   LEX_SYMBOL+9             cn=0,n=324

  18116 17 011742   000000 631400 18                 EPPR1   0
        17 011743   000000 701000 xent               TSX1    Z8AH$SEARCH_
        17 011744   000000 011000                    NOP     0

  18117 17 011745   000000 470400 2                  LDP0    DNT$
        17 011746   400000 236003                    LDQ     -131072,DU
        17 011747   000003 256100                    ORSQ    3,,PR0

  18118 17 011750   000001 236000 18                 LDQ     1
PL6.E3A0      #001=COBOLRW File=COBOLRW.:Z8A6TSI                                 SAT 08/09/97 09:25 Page:262
        17 011751   000003 356100                    ANSQ    3,,PR0

  18119 17 011752   000002 236000 18                 LDQ     2
        17 011753   000003 356100                    ANSQ    3,,PR0

  18120 17 011754   000003 236000 18                 LDQ     3
        17 011755   000003 356100                    ANSQ    3,,PR0

  18121 17 011756   000004 236000 18                 LDQ     4
        17 011757   000003 356100                    ANSQ    3,,PR0

  18122 17 011760   000323 220003                    LDX0    211,DU
        17 011761   000003 440100                    SXL0    3,,PR0

      511    18124        %NEWRSW;
      512    18127        %SEARCH (RWD='FIRST',                  RWNO=%RSV_WRD_FIRST);

  18131 17 011762   002731 054000 1                  AOS     NUMBER_OF_RESERVED_WORDS

  18132 17 011763   000005 235007                    LDA     5,DL
        17 011764   000010 755000 6                  STA     LEX_SYMBOL+8

  18133 17 011765   040000 100400                    MLR     fill='040'O
        17 011766   001022 000005 16                 ADSC9   530                      cn=0,n=5
        17 011767   000011 000504 6                  ADSC9   LEX_SYMBOL+9             cn=0,n=324

  18134 17 011770   000000 631400 18                 EPPR1   0
        17 011771   000000 701000 xent               TSX1    Z8AH$SEARCH_
        17 011772   000000 011000                    NOP     0

  18135 17 011773   000000 470400 2                  LDP0    DNT$
        17 011774   400000 236003                    LDQ     -131072,DU
        17 011775   000003 256100                    ORSQ    3,,PR0

  18136 17 011776   000001 236000 18                 LDQ     1
        17 011777   000003 356100                    ANSQ    3,,PR0

PL6.E3A0      #001=COBOLRW File=COBOLRW.:Z8A6TSI                                 SAT 08/09/97 09:25 Page:263
  18137 17 012000   000002 236000 18                 LDQ     2
        17 012001   000003 356100                    ANSQ    3,,PR0

  18138 17 012002   000003 236000 18                 LDQ     3
        17 012003   000003 356100                    ANSQ    3,,PR0

  18139 17 012004   000004 236000 18                 LDQ     4
        17 012005   000003 356100                    ANSQ    3,,PR0

  18140 17 012006   000324 220003                    LDX0    212,DU
        17 012007   000003 440100                    SXL0    3,,PR0

      513    18142        %NEWRSW;
      514    18145        %SEARCH (RWD='FLR',                    RWNO=%RSV_WRD_FLR);

  18149 17 012010   002731 054000 1                  AOS     NUMBER_OF_RESERVED_WORDS

  18150 17 012011   000003 235007                    LDA     3,DL
        17 012012   000010 755000 6                  STA     LEX_SYMBOL+8

  18151 17 012013   040000 100400                    MLR     fill='040'O
        17 012014   001024 000003 16                 ADSC9   532                      cn=0,n=3
        17 012015   000011 000504 6                  ADSC9   LEX_SYMBOL+9             cn=0,n=324

  18152 17 012016   000000 631400 18                 EPPR1   0
        17 012017   000000 701000 xent               TSX1    Z8AH$SEARCH_
        17 012020   000000 011000                    NOP     0

  18153 17 012021   000000 470400 2                  LDP0    DNT$
        17 012022   400000 236003                    LDQ     -131072,DU
        17 012023   000003 256100                    ORSQ    3,,PR0

  18154 17 012024   000001 236000 18                 LDQ     1
        17 012025   000003 356100                    ANSQ    3,,PR0

  18155 17 012026   000002 236000 18                 LDQ     2
        17 012027   000003 356100                    ANSQ    3,,PR0
PL6.E3A0      #001=COBOLRW File=COBOLRW.:Z8A6TSI                                 SAT 08/09/97 09:25 Page:264

  18156 17 012030   000003 236000 18                 LDQ     3
        17 012031   000003 356100                    ANSQ    3,,PR0

  18157 17 012032   000004 236000 18                 LDQ     4
        17 012033   000003 356100                    ANSQ    3,,PR0

  18158 17 012034   000325 220003                    LDX0    213,DU
        17 012035   000003 440100                    SXL0    3,,PR0

      515    18160        %NEWRSW;
      516    18163        %SEARCH (RWD='FOOTING',                RWNO=%RSV_WRD_FOOTING);

  18167 17 012036   002731 054000 1                  AOS     NUMBER_OF_RESERVED_WORDS

  18168 17 012037   000007 235007                    LDA     7,DL
        17 012040   000010 755000 6                  STA     LEX_SYMBOL+8

  18169 17 012041   040000 100400                    MLR     fill='040'O
        17 012042   001025 000007 16                 ADSC9   533                      cn=0,n=7
        17 012043   000011 000504 6                  ADSC9   LEX_SYMBOL+9             cn=0,n=324

  18170 17 012044   000000 631400 18                 EPPR1   0
        17 012045   000000 701000 xent               TSX1    Z8AH$SEARCH_
        17 012046   000000 011000                    NOP     0

  18171 17 012047   000000 470400 2                  LDP0    DNT$
        17 012050   400000 236003                    LDQ     -131072,DU
        17 012051   000003 256100                    ORSQ    3,,PR0

  18172 17 012052   000001 236000 18                 LDQ     1
        17 012053   000003 356100                    ANSQ    3,,PR0

  18173 17 012054   000002 236000 18                 LDQ     2
        17 012055   000003 356100                    ANSQ    3,,PR0

  18174 17 012056   000003 236000 18                 LDQ     3
PL6.E3A0      #001=COBOLRW File=COBOLRW.:Z8A6TSI                                 SAT 08/09/97 09:25 Page:265
        17 012057   000003 356100                    ANSQ    3,,PR0

  18175 17 012060   000004 236000 18                 LDQ     4
        17 012061   000003 356100                    ANSQ    3,,PR0

  18176 17 012062   000326 220003                    LDX0    214,DU
        17 012063   000003 440100                    SXL0    3,,PR0

      517    18178        %NEWRSW;
      518    18181        %SEARCH (RWD='FOR',                    RWNO=%RSV_WRD_FOR);

  18185 17 012064   002731 054000 1                  AOS     NUMBER_OF_RESERVED_WORDS

  18186 17 012065   000003 235007                    LDA     3,DL
        17 012066   000010 755000 6                  STA     LEX_SYMBOL+8

  18187 17 012067   040000 100400                    MLR     fill='040'O
        17 012070   001027 000003 16                 ADSC9   535                      cn=0,n=3
        17 012071   000011 000504 6                  ADSC9   LEX_SYMBOL+9             cn=0,n=324

  18188 17 012072   000000 631400 18                 EPPR1   0
        17 012073   000000 701000 xent               TSX1    Z8AH$SEARCH_
        17 012074   000000 011000                    NOP     0

  18189 17 012075   000000 470400 2                  LDP0    DNT$
        17 012076   400000 236003                    LDQ     -131072,DU
        17 012077   000003 256100                    ORSQ    3,,PR0

  18190 17 012100   000001 236000 18                 LDQ     1
        17 012101   000003 356100                    ANSQ    3,,PR0

  18191 17 012102   000002 236000 18                 LDQ     2
        17 012103   000003 356100                    ANSQ    3,,PR0

  18192 17 012104   000003 236000 18                 LDQ     3
        17 012105   000003 356100                    ANSQ    3,,PR0

PL6.E3A0      #001=COBOLRW File=COBOLRW.:Z8A6TSI                                 SAT 08/09/97 09:25 Page:266
  18193 17 012106   000004 236000 18                 LDQ     4
        17 012107   000003 356100                    ANSQ    3,,PR0

  18194 17 012110   000327 220003                    LDX0    215,DU
        17 012111   000003 440100                    SXL0    3,,PR0

      519    18196        %NEWRSW;
      520    18199        %SEARCH (RWD='FORCE',                  RWNO=%RSV_WRD_FORCE);

  18203 17 012112   002731 054000 1                  AOS     NUMBER_OF_RESERVED_WORDS

  18204 17 012113   000005 235007                    LDA     5,DL
        17 012114   000010 755000 6                  STA     LEX_SYMBOL+8

  18205 17 012115   040000 100400                    MLR     fill='040'O
        17 012116   001030 000005 16                 ADSC9   536                      cn=0,n=5
        17 012117   000011 000504 6                  ADSC9   LEX_SYMBOL+9             cn=0,n=324

  18206 17 012120   000000 631400 18                 EPPR1   0
        17 012121   000000 701000 xent               TSX1    Z8AH$SEARCH_
        17 012122   000000 011000                    NOP     0

  18207 17 012123   000000 470400 2                  LDP0    DNT$
        17 012124   400000 236003                    LDQ     -131072,DU
        17 012125   000003 256100                    ORSQ    3,,PR0

  18208 17 012126   000001 236000 18                 LDQ     1
        17 012127   000003 356100                    ANSQ    3,,PR0

  18209 17 012130   000002 236000 18                 LDQ     2
        17 012131   000003 356100                    ANSQ    3,,PR0

  18210 17 012132   000003 236000 18                 LDQ     3
        17 012133   000003 356100                    ANSQ    3,,PR0

  18211 17 012134   000004 236000 18                 LDQ     4
        17 012135   000003 356100                    ANSQ    3,,PR0
PL6.E3A0      #001=COBOLRW File=COBOLRW.:Z8A6TSI                                 SAT 08/09/97 09:25 Page:267

  18212 17 012136   000330 220003                    LDX0    216,DU
        17 012137   000003 440100                    SXL0    3,,PR0

      521    18214        %NEWRSW;
      522    18217        %SEARCH (RWD='FROM',                   RWNO=%RSV_WRD_FROM);

  18221 17 012140   002731 054000 1                  AOS     NUMBER_OF_RESERVED_WORDS

  18222 17 012141   000004 235007                    LDA     4,DL
        17 012142   000010 755000 6                  STA     LEX_SYMBOL+8

  18223 17 012143   040000 100400                    MLR     fill='040'O
        17 012144   001032 000004 16                 ADSC9   538                      cn=0,n=4
        17 012145   000011 000504 6                  ADSC9   LEX_SYMBOL+9             cn=0,n=324

  18224 17 012146   000000 631400 18                 EPPR1   0
        17 012147   000000 701000 xent               TSX1    Z8AH$SEARCH_
        17 012150   000000 011000                    NOP     0

  18225 17 012151   000000 470400 2                  LDP0    DNT$
        17 012152   400000 236003                    LDQ     -131072,DU
        17 012153   000003 256100                    ORSQ    3,,PR0

  18226 17 012154   000001 236000 18                 LDQ     1
        17 012155   000003 356100                    ANSQ    3,,PR0

  18227 17 012156   000002 236000 18                 LDQ     2
        17 012157   000003 356100                    ANSQ    3,,PR0

  18228 17 012160   000003 236000 18                 LDQ     3
        17 012161   000003 356100                    ANSQ    3,,PR0

  18229 17 012162   000004 236000 18                 LDQ     4
        17 012163   000003 356100                    ANSQ    3,,PR0

  18230 17 012164   000331 220003                    LDX0    217,DU
PL6.E3A0      #001=COBOLRW File=COBOLRW.:Z8A6TSI                                 SAT 08/09/97 09:25 Page:268
        17 012165   000003 440100                    SXL0    3,,PR0

      523    18232        %NEWRSW;
      524    18235        %SEARCH (RWD='GBCD',                   RWNO=%RSV_WRD_GBCD);

  18239 17 012166   002731 054000 1                  AOS     NUMBER_OF_RESERVED_WORDS

  18240 17 012167   000004 235007                    LDA     4,DL
        17 012170   000010 755000 6                  STA     LEX_SYMBOL+8

  18241 17 012171   040000 100400                    MLR     fill='040'O
        17 012172   001033 000004 16                 ADSC9   539                      cn=0,n=4
        17 012173   000011 000504 6                  ADSC9   LEX_SYMBOL+9             cn=0,n=324

  18242 17 012174   000000 631400 18                 EPPR1   0
        17 012175   000000 701000 xent               TSX1    Z8AH$SEARCH_
        17 012176   000000 011000                    NOP     0

  18243 17 012177   000000 470400 2                  LDP0    DNT$
        17 012200   400000 236003                    LDQ     -131072,DU
        17 012201   000003 256100                    ORSQ    3,,PR0

  18244 17 012202   000001 236000 18                 LDQ     1
        17 012203   000003 356100                    ANSQ    3,,PR0

  18245 17 012204   000002 236000 18                 LDQ     2
        17 012205   000003 356100                    ANSQ    3,,PR0

  18246 17 012206   000003 236000 18                 LDQ     3
        17 012207   000003 356100                    ANSQ    3,,PR0

  18247 17 012210   000004 236000 18                 LDQ     4
        17 012211   000003 356100                    ANSQ    3,,PR0

  18248 17 012212   000332 220003                    LDX0    218,DU
        17 012213   000003 440100                    SXL0    3,,PR0

PL6.E3A0      #001=COBOLRW File=COBOLRW.:Z8A6TSI                                 SAT 08/09/97 09:25 Page:269
      525    18250        %NEWRSW;
      526    18253        %SEARCH (RWD='GCOS',                   RWNO=%RSV_WRD_GCOS);

  18257 17 012214   002731 054000 1                  AOS     NUMBER_OF_RESERVED_WORDS

  18258 17 012215   000004 235007                    LDA     4,DL
        17 012216   000010 755000 6                  STA     LEX_SYMBOL+8

  18259 17 012217   040000 100400                    MLR     fill='040'O
        17 012220   001034 000004 16                 ADSC9   540                      cn=0,n=4
        17 012221   000011 000504 6                  ADSC9   LEX_SYMBOL+9             cn=0,n=324

  18260 17 012222   000000 631400 18                 EPPR1   0
        17 012223   000000 701000 xent               TSX1    Z8AH$SEARCH_
        17 012224   000000 011000                    NOP     0

  18261 17 012225   000000 470400 2                  LDP0    DNT$
        17 012226   400000 236003                    LDQ     -131072,DU
        17 012227   000003 256100                    ORSQ    3,,PR0

  18262 17 012230   000001 236000 18                 LDQ     1
        17 012231   000003 356100                    ANSQ    3,,PR0

  18263 17 012232   000002 236000 18                 LDQ     2
        17 012233   000003 356100                    ANSQ    3,,PR0

  18264 17 012234   000003 236000 18                 LDQ     3
        17 012235   000003 356100                    ANSQ    3,,PR0

  18265 17 012236   000004 236000 18                 LDQ     4
        17 012237   000003 356100                    ANSQ    3,,PR0

  18266 17 012240   000333 220003                    LDX0    219,DU
        17 012241   000003 440100                    SXL0    3,,PR0

      527    18268        %NEWRSW;
      528    18271        %SEARCH (RWD='GENERATE',               RWNO=%RSV_WRD_GENERATE);
PL6.E3A0      #001=COBOLRW File=COBOLRW.:Z8A6TSI                                 SAT 08/09/97 09:25 Page:270

  18275 17 012242   002731 054000 1                  AOS     NUMBER_OF_RESERVED_WORDS

  18276 17 012243   000010 235007                    LDA     8,DL
        17 012244   000010 755000 6                  STA     LEX_SYMBOL+8

  18277 17 012245   040000 100400                    MLR     fill='040'O
        17 012246   001035 000010 16                 ADSC9   541                      cn=0,n=8
        17 012247   000011 000504 6                  ADSC9   LEX_SYMBOL+9             cn=0,n=324

  18278 17 012250   000000 631400 18                 EPPR1   0
        17 012251   000000 701000 xent               TSX1    Z8AH$SEARCH_
        17 012252   000000 011000                    NOP     0

  18279 17 012253   000000 470400 2                  LDP0    DNT$
        17 012254   400000 236003                    LDQ     -131072,DU
        17 012255   000003 256100                    ORSQ    3,,PR0

  18280 17 012256   000001 236000 18                 LDQ     1
        17 012257   000003 356100                    ANSQ    3,,PR0

  18281 17 012260   000002 236000 18                 LDQ     2
        17 012261   000003 356100                    ANSQ    3,,PR0

  18282 17 012262   000003 236000 18                 LDQ     3
        17 012263   000003 356100                    ANSQ    3,,PR0

  18283 17 012264   000004 236000 18                 LDQ     4
        17 012265   000003 356100                    ANSQ    3,,PR0

  18284 17 012266   000334 220003                    LDX0    220,DU
        17 012267   000003 440100                    SXL0    3,,PR0

      529    18286        %NEWRSW;
      530    18289        %SEARCH (RWD='GENERATION',             RWNO=%RSV_WRD_GENERATION);

  18293 17 012270   002731 054000 1                  AOS     NUMBER_OF_RESERVED_WORDS
PL6.E3A0      #001=COBOLRW File=COBOLRW.:Z8A6TSI                                 SAT 08/09/97 09:25 Page:271

  18294 17 012271   000012 235007                    LDA     10,DL
        17 012272   000010 755000 6                  STA     LEX_SYMBOL+8

  18295 17 012273   040000 100400                    MLR     fill='040'O
        17 012274   001037 000012 16                 ADSC9   543                      cn=0,n=10
        17 012275   000011 000504 6                  ADSC9   LEX_SYMBOL+9             cn=0,n=324

  18296 17 012276   000000 631400 18                 EPPR1   0
        17 012277   000000 701000 xent               TSX1    Z8AH$SEARCH_
        17 012300   000000 011000                    NOP     0

  18297 17 012301   000000 470400 2                  LDP0    DNT$
        17 012302   400000 236003                    LDQ     -131072,DU
        17 012303   000003 256100                    ORSQ    3,,PR0

  18298 17 012304   000001 236000 18                 LDQ     1
        17 012305   000003 356100                    ANSQ    3,,PR0

  18299 17 012306   000002 236000 18                 LDQ     2
        17 012307   000003 356100                    ANSQ    3,,PR0

  18300 17 012310   000003 236000 18                 LDQ     3
        17 012311   000003 356100                    ANSQ    3,,PR0

  18301 17 012312   000004 236000 18                 LDQ     4
        17 012313   000003 356100                    ANSQ    3,,PR0

  18302 17 012314   000335 220003                    LDX0    221,DU
        17 012315   000003 440100                    SXL0    3,,PR0

      531    18304        %NEWRSW;
      532    18307        %SEARCH (RWD='GET',                    RWNO=%RSV_WRD_GET);

  18311 17 012316   002731 054000 1                  AOS     NUMBER_OF_RESERVED_WORDS

  18312 17 012317   000003 235007                    LDA     3,DL
PL6.E3A0      #001=COBOLRW File=COBOLRW.:Z8A6TSI                                 SAT 08/09/97 09:25 Page:272
        17 012320   000010 755000 6                  STA     LEX_SYMBOL+8

  18313 17 012321   040000 100400                    MLR     fill='040'O
        17 012322   001042 000003 16                 ADSC9   546                      cn=0,n=3
        17 012323   000011 000504 6                  ADSC9   LEX_SYMBOL+9             cn=0,n=324

  18314 17 012324   000000 631400 18                 EPPR1   0
        17 012325   000000 701000 xent               TSX1    Z8AH$SEARCH_
        17 012326   000000 011000                    NOP     0

  18315 17 012327   000000 470400 2                  LDP0    DNT$
        17 012330   400000 236003                    LDQ     -131072,DU
        17 012331   000003 256100                    ORSQ    3,,PR0

  18316 17 012332   000001 236000 18                 LDQ     1
        17 012333   000003 356100                    ANSQ    3,,PR0

  18317 17 012334   000002 236000 18                 LDQ     2
        17 012335   000003 356100                    ANSQ    3,,PR0

  18318 17 012336   000003 236000 18                 LDQ     3
        17 012337   000003 356100                    ANSQ    3,,PR0

  18319 17 012340   000004 236000 18                 LDQ     4
        17 012341   000003 356100                    ANSQ    3,,PR0

  18320 17 012342   000336 220003                    LDX0    222,DU
        17 012343   000003 440100                    SXL0    3,,PR0

      533    18322        %NEWRSW;
      534    18325        %SEARCH (RWD='GFRC',                   RWNO=%RSV_WRD_GFRC);

  18329 17 012344   002731 054000 1                  AOS     NUMBER_OF_RESERVED_WORDS

  18330 17 012345   000004 235007                    LDA     4,DL
        17 012346   000010 755000 6                  STA     LEX_SYMBOL+8

PL6.E3A0      #001=COBOLRW File=COBOLRW.:Z8A6TSI                                 SAT 08/09/97 09:25 Page:273
  18331 17 012347   040000 100400                    MLR     fill='040'O
        17 012350   001043 000004 16                 ADSC9   547                      cn=0,n=4
        17 012351   000011 000504 6                  ADSC9   LEX_SYMBOL+9             cn=0,n=324

  18332 17 012352   000000 631400 18                 EPPR1   0
        17 012353   000000 701000 xent               TSX1    Z8AH$SEARCH_
        17 012354   000000 011000                    NOP     0

  18333 17 012355   000000 470400 2                  LDP0    DNT$
        17 012356   400000 236003                    LDQ     -131072,DU
        17 012357   000003 256100                    ORSQ    3,,PR0

  18334 17 012360   000001 236000 18                 LDQ     1
        17 012361   000003 356100                    ANSQ    3,,PR0

  18335 17 012362   000002 236000 18                 LDQ     2
        17 012363   000003 356100                    ANSQ    3,,PR0

  18336 17 012364   000003 236000 18                 LDQ     3
        17 012365   000003 356100                    ANSQ    3,,PR0

  18337 17 012366   000004 236000 18                 LDQ     4
        17 012367   000003 356100                    ANSQ    3,,PR0

  18338 17 012370   000337 220003                    LDX0    223,DU
        17 012371   000003 440100                    SXL0    3,,PR0

      535    18340        %NEWRSW;
      536    18343        %SEARCH (RWD='GIVING',                 RWNO=%RSV_WRD_GIVING);

  18347 17 012372   002731 054000 1                  AOS     NUMBER_OF_RESERVED_WORDS

  18348 17 012373   000006 235007                    LDA     6,DL
        17 012374   000010 755000 6                  STA     LEX_SYMBOL+8

  18349 17 012375   040000 100400                    MLR     fill='040'O
        17 012376   001044 000006 16                 ADSC9   548                      cn=0,n=6
PL6.E3A0      #001=COBOLRW File=COBOLRW.:Z8A6TSI                                 SAT 08/09/97 09:25 Page:274
        17 012377   000011 000504 6                  ADSC9   LEX_SYMBOL+9             cn=0,n=324

  18350 17 012400   000000 631400 18                 EPPR1   0
        17 012401   000000 701000 xent               TSX1    Z8AH$SEARCH_
        17 012402   000000 011000                    NOP     0

  18351 17 012403   000000 470400 2                  LDP0    DNT$
        17 012404   400000 236003                    LDQ     -131072,DU
        17 012405   000003 256100                    ORSQ    3,,PR0

  18352 17 012406   000001 236000 18                 LDQ     1
        17 012407   000003 356100                    ANSQ    3,,PR0

  18353 17 012410   000002 236000 18                 LDQ     2
        17 012411   000003 356100                    ANSQ    3,,PR0

  18354 17 012412   000003 236000 18                 LDQ     3
        17 012413   000003 356100                    ANSQ    3,,PR0

  18355 17 012414   000004 236000 18                 LDQ     4
        17 012415   000003 356100                    ANSQ    3,,PR0

  18356 17 012416   000340 220003                    LDX0    224,DU
        17 012417   000003 440100                    SXL0    3,,PR0

      537    18358        %NEWRSW;
      538    18361        %SEARCH (RWD='GLOBAL',                 RWNO=%RSV_WRD_GLOBAL);

  18365 17 012420   002731 054000 1                  AOS     NUMBER_OF_RESERVED_WORDS

  18366 17 012421   000006 235007                    LDA     6,DL
        17 012422   000010 755000 6                  STA     LEX_SYMBOL+8

  18367 17 012423   040000 100400                    MLR     fill='040'O
        17 012424   001046 000006 16                 ADSC9   550                      cn=0,n=6
        17 012425   000011 000504 6                  ADSC9   LEX_SYMBOL+9             cn=0,n=324

PL6.E3A0      #001=COBOLRW File=COBOLRW.:Z8A6TSI                                 SAT 08/09/97 09:25 Page:275
  18368 17 012426   000000 631400 18                 EPPR1   0
        17 012427   000000 701000 xent               TSX1    Z8AH$SEARCH_
        17 012430   000000 011000                    NOP     0

  18369 17 012431   000000 470400 2                  LDP0    DNT$
        17 012432   400000 236003                    LDQ     -131072,DU
        17 012433   000003 256100                    ORSQ    3,,PR0

  18370 17 012434   000001 236000 18                 LDQ     1
        17 012435   000003 356100                    ANSQ    3,,PR0

  18371 17 012436   000002 236000 18                 LDQ     2
        17 012437   000003 356100                    ANSQ    3,,PR0

  18372 17 012440   000003 236000 18                 LDQ     3
        17 012441   000003 356100                    ANSQ    3,,PR0

  18373 17 012442   000004 236000 18                 LDQ     4
        17 012443   000003 356100                    ANSQ    3,,PR0

  18374 17 012444   000341 220003                    LDX0    225,DU
        17 012445   000003 440100                    SXL0    3,,PR0

      539    18376        %NEWRSW;
      540    18379        %SEARCH (RWD='GO',                     RWNO=%RSV_WRD_GO);

  18383 17 012446   002731 054000 1                  AOS     NUMBER_OF_RESERVED_WORDS

  18384 17 012447   000002 235007                    LDA     2,DL
        17 012450   000010 755000 6                  STA     LEX_SYMBOL+8

  18385 17 012451   040000 100400                    MLR     fill='040'O
        17 012452   001050 000002 16                 ADSC9   552                      cn=0,n=2
        17 012453   000011 000504 6                  ADSC9   LEX_SYMBOL+9             cn=0,n=324

  18386 17 012454   000000 631400 18                 EPPR1   0
        17 012455   000000 701000 xent               TSX1    Z8AH$SEARCH_
PL6.E3A0      #001=COBOLRW File=COBOLRW.:Z8A6TSI                                 SAT 08/09/97 09:25 Page:276
        17 012456   000000 011000                    NOP     0

  18387 17 012457   000000 470400 2                  LDP0    DNT$
        17 012460   400000 236003                    LDQ     -131072,DU
        17 012461   000003 256100                    ORSQ    3,,PR0

  18388 17 012462   000001 236000 18                 LDQ     1
        17 012463   000003 356100                    ANSQ    3,,PR0

  18389 17 012464   000002 236000 18                 LDQ     2
        17 012465   000003 356100                    ANSQ    3,,PR0

  18390 17 012466   000003 236000 18                 LDQ     3
        17 012467   000003 356100                    ANSQ    3,,PR0

  18391 17 012470   000004 236000 18                 LDQ     4
        17 012471   000003 356100                    ANSQ    3,,PR0

  18392 17 012472   000342 220003                    LDX0    226,DU
        17 012473   000003 440100                    SXL0    3,,PR0

      541    18394        %NEWRSW;
      542    18397        %SEARCH (RWD='GRAPHIC',                RWNO=%RSV_WRD_GRAPHIC);

  18401 17 012474   002731 054000 1                  AOS     NUMBER_OF_RESERVED_WORDS

  18402 17 012475   000007 235007                    LDA     7,DL
        17 012476   000010 755000 6                  STA     LEX_SYMBOL+8

  18403 17 012477   040000 100400                    MLR     fill='040'O
        17 012500   001051 000007 16                 ADSC9   553                      cn=0,n=7
        17 012501   000011 000504 6                  ADSC9   LEX_SYMBOL+9             cn=0,n=324

  18404 17 012502   000000 631400 18                 EPPR1   0
        17 012503   000000 701000 xent               TSX1    Z8AH$SEARCH_
        17 012504   000000 011000                    NOP     0

PL6.E3A0      #001=COBOLRW File=COBOLRW.:Z8A6TSI                                 SAT 08/09/97 09:25 Page:277
  18405 17 012505   000000 470400 2                  LDP0    DNT$
        17 012506   400000 236003                    LDQ     -131072,DU
        17 012507   000003 256100                    ORSQ    3,,PR0

  18406 17 012510   000001 236000 18                 LDQ     1
        17 012511   000003 356100                    ANSQ    3,,PR0

  18407 17 012512   000002 236000 18                 LDQ     2
        17 012513   000003 356100                    ANSQ    3,,PR0

  18408 17 012514   000003 236000 18                 LDQ     3
        17 012515   000003 356100                    ANSQ    3,,PR0

  18409 17 012516   000004 236000 18                 LDQ     4
        17 012517   000003 356100                    ANSQ    3,,PR0

  18410 17 012520   000343 220003                    LDX0    227,DU
        17 012521   000003 440100                    SXL0    3,,PR0

      543    18412        %NEWRSW;
      544    18415        %SEARCH (RWD='GREATER',                RWNO=%RSV_WRD_GREATER);

  18419 17 012522   002731 054000 1                  AOS     NUMBER_OF_RESERVED_WORDS

  18420 17 012523   000007 235007                    LDA     7,DL
        17 012524   000010 755000 6                  STA     LEX_SYMBOL+8

  18421 17 012525   040000 100400                    MLR     fill='040'O
        17 012526   001053 000007 16                 ADSC9   555                      cn=0,n=7
        17 012527   000011 000504 6                  ADSC9   LEX_SYMBOL+9             cn=0,n=324

  18422 17 012530   000000 631400 18                 EPPR1   0
        17 012531   000000 701000 xent               TSX1    Z8AH$SEARCH_
        17 012532   000000 011000                    NOP     0

  18423 17 012533   000000 470400 2                  LDP0    DNT$
        17 012534   400000 236003                    LDQ     -131072,DU
PL6.E3A0      #001=COBOLRW File=COBOLRW.:Z8A6TSI                                 SAT 08/09/97 09:25 Page:278
        17 012535   000003 256100                    ORSQ    3,,PR0

  18424 17 012536   000001 236000 18                 LDQ     1
        17 012537   000003 356100                    ANSQ    3,,PR0

  18425 17 012540   000002 236000 18                 LDQ     2
        17 012541   000003 356100                    ANSQ    3,,PR0

  18426 17 012542   000003 236000 18                 LDQ     3
        17 012543   000003 356100                    ANSQ    3,,PR0

  18427 17 012544   000004 236000 18                 LDQ     4
        17 012545   000003 356100                    ANSQ    3,,PR0

  18428 17 012546   000344 220003                    LDX0    228,DU
        17 012547   000003 440100                    SXL0    3,,PR0

      545    18430        %NEWRSW;
      546    18433        %SEARCH (RWD='GROUP',                  RWNO=%RSV_WRD_GROUP);

  18437 17 012550   002731 054000 1                  AOS     NUMBER_OF_RESERVED_WORDS

  18438 17 012551   000005 235007                    LDA     5,DL
        17 012552   000010 755000 6                  STA     LEX_SYMBOL+8

  18439 17 012553   040000 100400                    MLR     fill='040'O
        17 012554   001055 000005 16                 ADSC9   557                      cn=0,n=5
        17 012555   000011 000504 6                  ADSC9   LEX_SYMBOL+9             cn=0,n=324

  18440 17 012556   000000 631400 18                 EPPR1   0
        17 012557   000000 701000 xent               TSX1    Z8AH$SEARCH_
        17 012560   000000 011000                    NOP     0

  18441 17 012561   000000 470400 2                  LDP0    DNT$
        17 012562   400000 236003                    LDQ     -131072,DU
        17 012563   000003 256100                    ORSQ    3,,PR0

PL6.E3A0      #001=COBOLRW File=COBOLRW.:Z8A6TSI                                 SAT 08/09/97 09:25 Page:279
  18442 17 012564   000001 236000 18                 LDQ     1
        17 012565   000003 356100                    ANSQ    3,,PR0

  18443 17 012566   000002 236000 18                 LDQ     2
        17 012567   000003 356100                    ANSQ    3,,PR0

  18444 17 012570   000003 236000 18                 LDQ     3
        17 012571   000003 356100                    ANSQ    3,,PR0

  18445 17 012572   000004 236000 18                 LDQ     4
        17 012573   000003 356100                    ANSQ    3,,PR0

  18446 17 012574   000345 220003                    LDX0    229,DU
        17 012575   000003 440100                    SXL0    3,,PR0

      547    18448        %NEWRSW;
      548    18451        %SEARCH (RWD='H-2000',                 RWNO=%RSV_WRD_H_2000);

  18455 17 012576   002731 054000 1                  AOS     NUMBER_OF_RESERVED_WORDS

  18456 17 012577   000006 235007                    LDA     6,DL
        17 012600   000010 755000 6                  STA     LEX_SYMBOL+8

  18457 17 012601   040000 100400                    MLR     fill='040'O
        17 012602   001057 000006 16                 ADSC9   559                      cn=0,n=6
        17 012603   000011 000504 6                  ADSC9   LEX_SYMBOL+9             cn=0,n=324

  18458 17 012604   000000 631400 18                 EPPR1   0
        17 012605   000000 701000 xent               TSX1    Z8AH$SEARCH_
        17 012606   000000 011000                    NOP     0

  18459 17 012607   000000 470400 2                  LDP0    DNT$
        17 012610   400000 236003                    LDQ     -131072,DU
        17 012611   000003 256100                    ORSQ    3,,PR0

  18460 17 012612   000001 236000 18                 LDQ     1
        17 012613   000003 356100                    ANSQ    3,,PR0
PL6.E3A0      #001=COBOLRW File=COBOLRW.:Z8A6TSI                                 SAT 08/09/97 09:25 Page:280

  18461 17 012614   000002 236000 18                 LDQ     2
        17 012615   000003 356100                    ANSQ    3,,PR0

  18462 17 012616   000003 236000 18                 LDQ     3
        17 012617   000003 356100                    ANSQ    3,,PR0

  18463 17 012620   000004 236000 18                 LDQ     4
        17 012621   000003 356100                    ANSQ    3,,PR0

  18464 17 012622   000346 220003                    LDX0    230,DU
        17 012623   000003 440100                    SXL0    3,,PR0

      549    18466        %SEARCH (RWD='H-2004',                 RWNO=%RSV_WRD_H_2000);

  18470 17 012624   002731 054000 1                  AOS     NUMBER_OF_RESERVED_WORDS

  18471 17 012625   000006 235007                    LDA     6,DL
        17 012626   000010 755000 6                  STA     LEX_SYMBOL+8

  18472 17 012627   040000 100400                    MLR     fill='040'O
        17 012630   001061 000006 16                 ADSC9   561                      cn=0,n=6
        17 012631   000011 000504 6                  ADSC9   LEX_SYMBOL+9             cn=0,n=324

  18473 17 012632   000000 631400 18                 EPPR1   0
        17 012633   000000 701000 xent               TSX1    Z8AH$SEARCH_
        17 012634   000000 011000                    NOP     0

  18474 17 012635   000000 470400 2                  LDP0    DNT$
        17 012636   400000 236003                    LDQ     -131072,DU
        17 012637   000003 256100                    ORSQ    3,,PR0

  18475 17 012640   000001 236000 18                 LDQ     1
        17 012641   000003 356100                    ANSQ    3,,PR0

  18476 17 012642   000002 236000 18                 LDQ     2
        17 012643   000003 356100                    ANSQ    3,,PR0
PL6.E3A0      #001=COBOLRW File=COBOLRW.:Z8A6TSI                                 SAT 08/09/97 09:25 Page:281

  18477 17 012644   000003 236000 18                 LDQ     3
        17 012645   000003 356100                    ANSQ    3,,PR0

  18478 17 012646   000004 236000 18                 LDQ     4
        17 012647   000003 356100                    ANSQ    3,,PR0

  18479 17 012650   000346 220003                    LDX0    230,DU
        17 012651   000003 440100                    SXL0    3,,PR0

      550    18481        %NEWRSW;
      551    18484        %SEARCH (RWD='HBCD',                   RWNO=%RSV_WRD_HBCD);

  18488 17 012652   002731 054000 1                  AOS     NUMBER_OF_RESERVED_WORDS

  18489 17 012653   000004 235007                    LDA     4,DL
        17 012654   000010 755000 6                  STA     LEX_SYMBOL+8

  18490 17 012655   040000 100400                    MLR     fill='040'O
        17 012656   001063 000004 16                 ADSC9   563                      cn=0,n=4
        17 012657   000011 000504 6                  ADSC9   LEX_SYMBOL+9             cn=0,n=324

  18491 17 012660   000000 631400 18                 EPPR1   0
        17 012661   000000 701000 xent               TSX1    Z8AH$SEARCH_
        17 012662   000000 011000                    NOP     0

  18492 17 012663   000000 470400 2                  LDP0    DNT$
        17 012664   400000 236003                    LDQ     -131072,DU
        17 012665   000003 256100                    ORSQ    3,,PR0

  18493 17 012666   000001 236000 18                 LDQ     1
        17 012667   000003 356100                    ANSQ    3,,PR0

  18494 17 012670   000002 236000 18                 LDQ     2
        17 012671   000003 356100                    ANSQ    3,,PR0

  18495 17 012672   000003 236000 18                 LDQ     3
PL6.E3A0      #001=COBOLRW File=COBOLRW.:Z8A6TSI                                 SAT 08/09/97 09:25 Page:282
        17 012673   000003 356100                    ANSQ    3,,PR0

  18496 17 012674   000004 236000 18                 LDQ     4
        17 012675   000003 356100                    ANSQ    3,,PR0

  18497 17 012676   000347 220003                    LDX0    231,DU
        17 012677   000003 440100                    SXL0    3,,PR0

      552    18499        %NEWRSW;
      553    18502        %SEARCH (RWD='HEADING',                RWNO=%RSV_WRD_HEADING);

  18506 17 012700   002731 054000 1                  AOS     NUMBER_OF_RESERVED_WORDS

  18507 17 012701   000007 235007                    LDA     7,DL
        17 012702   000010 755000 6                  STA     LEX_SYMBOL+8

  18508 17 012703   040000 100400                    MLR     fill='040'O
        17 012704   001064 000007 16                 ADSC9   564                      cn=0,n=7
        17 012705   000011 000504 6                  ADSC9   LEX_SYMBOL+9             cn=0,n=324

  18509 17 012706   000000 631400 18                 EPPR1   0
        17 012707   000000 701000 xent               TSX1    Z8AH$SEARCH_
        17 012710   000000 011000                    NOP     0

  18510 17 012711   000000 470400 2                  LDP0    DNT$
        17 012712   400000 236003                    LDQ     -131072,DU
        17 012713   000003 256100                    ORSQ    3,,PR0

  18511 17 012714   000001 236000 18                 LDQ     1
        17 012715   000003 356100                    ANSQ    3,,PR0

  18512 17 012716   000002 236000 18                 LDQ     2
        17 012717   000003 356100                    ANSQ    3,,PR0

  18513 17 012720   000003 236000 18                 LDQ     3
        17 012721   000003 356100                    ANSQ    3,,PR0

PL6.E3A0      #001=COBOLRW File=COBOLRW.:Z8A6TSI                                 SAT 08/09/97 09:25 Page:283
  18514 17 012722   000004 236000 18                 LDQ     4
        17 012723   000003 356100                    ANSQ    3,,PR0

  18515 17 012724   000350 220003                    LDX0    232,DU
        17 012725   000003 440100                    SXL0    3,,PR0

      554    18517        %NEWRSW;
      555    18520        %SEARCH (RWD='HIGH-VALUES',           RWNO=%RSV_WRD_HIGH_VALUES, FIG_CONSTANT=TRUE)
             18520            ;

  18524 17 012726   002731 054000 1                  AOS     NUMBER_OF_RESERVED_WORDS

  18525 17 012727   000013 235007                    LDA     11,DL
        17 012730   000010 755000 6                  STA     LEX_SYMBOL+8

  18526 17 012731   040000 100400                    MLR     fill='040'O
        17 012732   001066 000013 16                 ADSC9   566                      cn=0,n=11
        17 012733   000011 000504 6                  ADSC9   LEX_SYMBOL+9             cn=0,n=324

  18527 17 012734   000000 631400 18                 EPPR1   0
        17 012735   000000 701000 xent               TSX1    Z8AH$SEARCH_
        17 012736   000000 011000                    NOP     0

  18528 17 012737   000000 470400 2                  LDP0    DNT$
        17 012740   400000 236003                    LDQ     -131072,DU
        17 012741   000003 256100                    ORSQ    3,,PR0

  18529 17 012742   000001 236000 18                 LDQ     1
        17 012743   000003 356100                    ANSQ    3,,PR0

  18530 17 012744   000002 236000 18                 LDQ     2
        17 012745   000003 356100                    ANSQ    3,,PR0

  18531 17 012746   000003 236000 18                 LDQ     3
        17 012747   000003 356100                    ANSQ    3,,PR0

  18532 17 012750   002000 236003                    LDQ     1024,DU
PL6.E3A0      #001=COBOLRW File=COBOLRW.:Z8A6TSI                                 SAT 08/09/97 09:25 Page:284
        17 012751   000003 256100                    ORSQ    3,,PR0

  18533 17 012752   000351 220003                    LDX0    233,DU
        17 012753   000003 440100                    SXL0    3,,PR0

      556    18535        %SEARCH (RWD='HIGH-VALUE',            RWNO=%RSV_WRD_HIGH_VALUES, FIG_CONSTANT=TRUE)
             18535            ;

  18539 17 012754   002731 054000 1                  AOS     NUMBER_OF_RESERVED_WORDS

  18540 17 012755   000012 235007                    LDA     10,DL
        17 012756   000010 755000 6                  STA     LEX_SYMBOL+8

  18541 17 012757   040000 100400                    MLR     fill='040'O
        17 012760   001066 000012 16                 ADSC9   566                      cn=0,n=10
        17 012761   000011 000504 6                  ADSC9   LEX_SYMBOL+9             cn=0,n=324

  18542 17 012762   000000 631400 18                 EPPR1   0
        17 012763   000000 701000 xent               TSX1    Z8AH$SEARCH_
        17 012764   000000 011000                    NOP     0

  18543 17 012765   000000 470400 2                  LDP0    DNT$
        17 012766   400000 236003                    LDQ     -131072,DU
        17 012767   000003 256100                    ORSQ    3,,PR0

  18544 17 012770   000001 236000 18                 LDQ     1
        17 012771   000003 356100                    ANSQ    3,,PR0

  18545 17 012772   000002 236000 18                 LDQ     2
        17 012773   000003 356100                    ANSQ    3,,PR0

  18546 17 012774   000003 236000 18                 LDQ     3
        17 012775   000003 356100                    ANSQ    3,,PR0

  18547 17 012776   002000 236003                    LDQ     1024,DU
        17 012777   000003 256100                    ORSQ    3,,PR0

PL6.E3A0      #001=COBOLRW File=COBOLRW.:Z8A6TSI                                 SAT 08/09/97 09:25 Page:285
  18548 17 013000   000351 220003                    LDX0    233,DU
        17 013001   000003 440100                    SXL0    3,,PR0

      557    18550        %NEWRSW;
      558    18553        %SEARCH (RWD='HIS-SERIES-60',          RWNO=%RSV_WRD_HIS_SERIES_60);

  18557 17 013002   002731 054000 1                  AOS     NUMBER_OF_RESERVED_WORDS

  18558 17 013003   000015 235007                    LDA     13,DL
        17 013004   000010 755000 6                  STA     LEX_SYMBOL+8

  18559 17 013005   040000 100400                    MLR     fill='040'O
        17 013006   001071 000015 16                 ADSC9   569                      cn=0,n=13
        17 013007   000011 000504 6                  ADSC9   LEX_SYMBOL+9             cn=0,n=324

  18560 17 013010   000000 631400 18                 EPPR1   0
        17 013011   000000 701000 xent               TSX1    Z8AH$SEARCH_
        17 013012   000000 011000                    NOP     0

  18561 17 013013   000000 470400 2                  LDP0    DNT$
        17 013014   400000 236003                    LDQ     -131072,DU
        17 013015   000003 256100                    ORSQ    3,,PR0

  18562 17 013016   000001 236000 18                 LDQ     1
        17 013017   000003 356100                    ANSQ    3,,PR0

  18563 17 013020   000002 236000 18                 LDQ     2
        17 013021   000003 356100                    ANSQ    3,,PR0

  18564 17 013022   000003 236000 18                 LDQ     3
        17 013023   000003 356100                    ANSQ    3,,PR0

  18565 17 013024   000004 236000 18                 LDQ     4
        17 013025   000003 356100                    ANSQ    3,,PR0

  18566 17 013026   000352 220003                    LDX0    234,DU
        17 013027   000003 440100                    SXL0    3,,PR0
PL6.E3A0      #001=COBOLRW File=COBOLRW.:Z8A6TSI                                 SAT 08/09/97 09:25 Page:286

      559    18568        %NEWRSW;
      560    18571        %SEARCH (RWD='IO8',                    RWNO=%RSV_WRD_IO8);

  18575 17 013030   002731 054000 1                  AOS     NUMBER_OF_RESERVED_WORDS

  18576 17 013031   000003 235007                    LDA     3,DL
        17 013032   000010 755000 6                  STA     LEX_SYMBOL+8

  18577 17 013033   040000 100400                    MLR     fill='040'O
        17 013034   001075 000003 16                 ADSC9   573                      cn=0,n=3
        17 013035   000011 000504 6                  ADSC9   LEX_SYMBOL+9             cn=0,n=324

  18578 17 013036   000000 631400 18                 EPPR1   0
        17 013037   000000 701000 xent               TSX1    Z8AH$SEARCH_
        17 013040   000000 011000                    NOP     0

  18579 17 013041   000000 470400 2                  LDP0    DNT$
        17 013042   400000 236003                    LDQ     -131072,DU
        17 013043   000003 256100                    ORSQ    3,,PR0

  18580 17 013044   000001 236000 18                 LDQ     1
        17 013045   000003 356100                    ANSQ    3,,PR0

  18581 17 013046   000002 236000 18                 LDQ     2
        17 013047   000003 356100                    ANSQ    3,,PR0

  18582 17 013050   000003 236000 18                 LDQ     3
        17 013051   000003 356100                    ANSQ    3,,PR0

  18583 17 013052   000004 236000 18                 LDQ     4
        17 013053   000003 356100                    ANSQ    3,,PR0

  18584 17 013054   000353 220003                    LDX0    235,DU
        17 013055   000003 440100                    SXL0    3,,PR0

      561    18586        %NEWRSW;
PL6.E3A0      #001=COBOLRW File=COBOLRW.:Z8A6TSI                                 SAT 08/09/97 09:25 Page:287
      562    18589        %SEARCH (RWD='I-O',                    RWNO=%RSV_WRD_I_O);

  18593 17 013056   002731 054000 1                  AOS     NUMBER_OF_RESERVED_WORDS

  18594 17 013057   000003 235007                    LDA     3,DL
        17 013060   000010 755000 6                  STA     LEX_SYMBOL+8

  18595 17 013061   040000 100400                    MLR     fill='040'O
        17 013062   001076 000003 16                 ADSC9   574                      cn=0,n=3
        17 013063   000011 000504 6                  ADSC9   LEX_SYMBOL+9             cn=0,n=324

  18596 17 013064   000000 631400 18                 EPPR1   0
        17 013065   000000 701000 xent               TSX1    Z8AH$SEARCH_
        17 013066   000000 011000                    NOP     0

  18597 17 013067   000000 470400 2                  LDP0    DNT$
        17 013070   400000 236003                    LDQ     -131072,DU
        17 013071   000003 256100                    ORSQ    3,,PR0

  18598 17 013072   000001 236000 18                 LDQ     1
        17 013073   000003 356100                    ANSQ    3,,PR0

  18599 17 013074   000002 236000 18                 LDQ     2
        17 013075   000003 356100                    ANSQ    3,,PR0

  18600 17 013076   000003 236000 18                 LDQ     3
        17 013077   000003 356100                    ANSQ    3,,PR0

  18601 17 013100   000004 236000 18                 LDQ     4
        17 013101   000003 356100                    ANSQ    3,,PR0

  18602 17 013102   000354 220003                    LDX0    236,DU
        17 013103   000003 440100                    SXL0    3,,PR0

      563    18604        %NEWRSW;
      564    18607        %SEARCH (RWD='I-O-CONTROL',            RWNO=%RSV_WRD_I_O_CONTROL, MUST_AREAA=TRUE);

PL6.E3A0      #001=COBOLRW File=COBOLRW.:Z8A6TSI                                 SAT 08/09/97 09:25 Page:288
  18611 17 013104   002731 054000 1                  AOS     NUMBER_OF_RESERVED_WORDS

  18612 17 013105   000013 235007                    LDA     11,DL
        17 013106   000010 755000 6                  STA     LEX_SYMBOL+8

  18613 17 013107   040000 100400                    MLR     fill='040'O
        17 013110   001077 000013 16                 ADSC9   575                      cn=0,n=11
        17 013111   000011 000504 6                  ADSC9   LEX_SYMBOL+9             cn=0,n=324

  18614 17 013112   000000 631400 18                 EPPR1   0
        17 013113   000000 701000 xent               TSX1    Z8AH$SEARCH_
        17 013114   000000 011000                    NOP     0

  18615 17 013115   000000 470400 2                  LDP0    DNT$
        17 013116   400000 236003                    LDQ     -131072,DU
        17 013117   000003 256100                    ORSQ    3,,PR0

  18616 17 013120   000001 236000 18                 LDQ     1
        17 013121   000003 356100                    ANSQ    3,,PR0

  18617 17 013122   000002 236000 18                 LDQ     2
        17 013123   000003 356100                    ANSQ    3,,PR0

  18618 17 013124   000040 236003                    LDQ     32,DU
        17 013125   000003 256100                    ORSQ    3,,PR0

  18619 17 013126   000004 236000 18                 LDQ     4
        17 013127   000003 356100                    ANSQ    3,,PR0

  18620 17 013130   000355 220003                    LDX0    237,DU
        17 013131   000003 440100                    SXL0    3,,PR0

      565    18622        %NEWRSW;
      566    18625        %SEARCH (RWD='IBM-DOS',                RWNO=%RSV_WRD_IBM_DOS);

  18629 17 013132   002731 054000 1                  AOS     NUMBER_OF_RESERVED_WORDS

PL6.E3A0      #001=COBOLRW File=COBOLRW.:Z8A6TSI                                 SAT 08/09/97 09:25 Page:289
  18630 17 013133   000007 235007                    LDA     7,DL
        17 013134   000010 755000 6                  STA     LEX_SYMBOL+8

  18631 17 013135   040000 100400                    MLR     fill='040'O
        17 013136   001102 000007 16                 ADSC9   578                      cn=0,n=7
        17 013137   000011 000504 6                  ADSC9   LEX_SYMBOL+9             cn=0,n=324

  18632 17 013140   000000 631400 18                 EPPR1   0
        17 013141   000000 701000 xent               TSX1    Z8AH$SEARCH_
        17 013142   000000 011000                    NOP     0

  18633 17 013143   000000 470400 2                  LDP0    DNT$
        17 013144   400000 236003                    LDQ     -131072,DU
        17 013145   000003 256100                    ORSQ    3,,PR0

  18634 17 013146   000001 236000 18                 LDQ     1
        17 013147   000003 356100                    ANSQ    3,,PR0

  18635 17 013150   000002 236000 18                 LDQ     2
        17 013151   000003 356100                    ANSQ    3,,PR0

  18636 17 013152   000003 236000 18                 LDQ     3
        17 013153   000003 356100                    ANSQ    3,,PR0

  18637 17 013154   000004 236000 18                 LDQ     4
        17 013155   000003 356100                    ANSQ    3,,PR0

  18638 17 013156   000356 220003                    LDX0    238,DU
        17 013157   000003 440100                    SXL0    3,,PR0

      567    18640        %NEWRSW;
      568    18643        %SEARCH (RWD='IBM-OS',                 RWNO=%RSV_WRD_IBM_OS);

  18647 17 013160   002731 054000 1                  AOS     NUMBER_OF_RESERVED_WORDS

  18648 17 013161   000006 235007                    LDA     6,DL
        17 013162   000010 755000 6                  STA     LEX_SYMBOL+8
PL6.E3A0      #001=COBOLRW File=COBOLRW.:Z8A6TSI                                 SAT 08/09/97 09:25 Page:290

  18649 17 013163   040000 100400                    MLR     fill='040'O
        17 013164   001104 000006 16                 ADSC9   580                      cn=0,n=6
        17 013165   000011 000504 6                  ADSC9   LEX_SYMBOL+9             cn=0,n=324

  18650 17 013166   000000 631400 18                 EPPR1   0
        17 013167   000000 701000 xent               TSX1    Z8AH$SEARCH_
        17 013170   000000 011000                    NOP     0

  18651 17 013171   000000 470400 2                  LDP0    DNT$
        17 013172   400000 236003                    LDQ     -131072,DU
        17 013173   000003 256100                    ORSQ    3,,PR0

  18652 17 013174   000001 236000 18                 LDQ     1
        17 013175   000003 356100                    ANSQ    3,,PR0

  18653 17 013176   000002 236000 18                 LDQ     2
        17 013177   000003 356100                    ANSQ    3,,PR0

  18654 17 013200   000003 236000 18                 LDQ     3
        17 013201   000003 356100                    ANSQ    3,,PR0

  18655 17 013202   000004 236000 18                 LDQ     4
        17 013203   000003 356100                    ANSQ    3,,PR0

  18656 17 013204   000357 220003                    LDX0    239,DU
        17 013205   000003 440100                    SXL0    3,,PR0

      569    18658        %NEWRSW;
      570    18661        %SEARCH (RWD='IDENTIFICATION',        RWNO=%RSV_WRD_IDENTIFICATION, MUST_AREAA=TRUE
             18661            );

  18665 17 013206   002731 054000 1                  AOS     NUMBER_OF_RESERVED_WORDS

  18666 17 013207   000016 235007                    LDA     14,DL
        17 013210   000010 755000 6                  STA     LEX_SYMBOL+8

PL6.E3A0      #001=COBOLRW File=COBOLRW.:Z8A6TSI                                 SAT 08/09/97 09:25 Page:291
  18667 17 013211   040000 100400                    MLR     fill='040'O
        17 013212   001106 000016 16                 ADSC9   582                      cn=0,n=14
        17 013213   000011 000504 6                  ADSC9   LEX_SYMBOL+9             cn=0,n=324

  18668 17 013214   000000 631400 18                 EPPR1   0
        17 013215   000000 701000 xent               TSX1    Z8AH$SEARCH_
        17 013216   000000 011000                    NOP     0

  18669 17 013217   000000 470400 2                  LDP0    DNT$
        17 013220   400000 236003                    LDQ     -131072,DU
        17 013221   000003 256100                    ORSQ    3,,PR0

  18670 17 013222   000001 236000 18                 LDQ     1
        17 013223   000003 356100                    ANSQ    3,,PR0

  18671 17 013224   000002 236000 18                 LDQ     2
        17 013225   000003 356100                    ANSQ    3,,PR0

  18672 17 013226   000040 236003                    LDQ     32,DU
        17 013227   000003 256100                    ORSQ    3,,PR0

  18673 17 013230   000004 236000 18                 LDQ     4
        17 013231   000003 356100                    ANSQ    3,,PR0

  18674 17 013232   000360 220003                    LDX0    240,DU
        17 013233   000003 440100                    SXL0    3,,PR0

      571    18676        %NEWRSW;
      572    18679        %SEARCH (RWD='IDS-II',                 RWNO=%RSV_WRD_IDS_II);

  18683 17 013234   002731 054000 1                  AOS     NUMBER_OF_RESERVED_WORDS

  18684 17 013235   000006 235007                    LDA     6,DL
        17 013236   000010 755000 6                  STA     LEX_SYMBOL+8

  18685 17 013237   040000 100400                    MLR     fill='040'O
        17 013240   001112 000006 16                 ADSC9   586                      cn=0,n=6
PL6.E3A0      #001=COBOLRW File=COBOLRW.:Z8A6TSI                                 SAT 08/09/97 09:25 Page:292
        17 013241   000011 000504 6                  ADSC9   LEX_SYMBOL+9             cn=0,n=324

  18686 17 013242   000000 631400 18                 EPPR1   0
        17 013243   000000 701000 xent               TSX1    Z8AH$SEARCH_
        17 013244   000000 011000                    NOP     0

  18687 17 013245   000000 470400 2                  LDP0    DNT$
        17 013246   400000 236003                    LDQ     -131072,DU
        17 013247   000003 256100                    ORSQ    3,,PR0

  18688 17 013250   000001 236000 18                 LDQ     1
        17 013251   000003 356100                    ANSQ    3,,PR0

  18689 17 013252   000002 236000 18                 LDQ     2
        17 013253   000003 356100                    ANSQ    3,,PR0

  18690 17 013254   000003 236000 18                 LDQ     3
        17 013255   000003 356100                    ANSQ    3,,PR0

  18691 17 013256   000004 236000 18                 LDQ     4
        17 013257   000003 356100                    ANSQ    3,,PR0

  18692 17 013260   000361 220003                    LDX0    241,DU
        17 013261   000003 440100                    SXL0    3,,PR0

      573    18694        %NEWRSW;
      574    18697        %SEARCH (RWD='IF',                     RWNO=%RSV_WRD_IF);

  18701 17 013262   002731 054000 1                  AOS     NUMBER_OF_RESERVED_WORDS

  18702 17 013263   000002 235007                    LDA     2,DL
        17 013264   000010 755000 6                  STA     LEX_SYMBOL+8

  18703 17 013265   040000 100400                    MLR     fill='040'O
        17 013266   000661 000002 16                 ADSC9   433                      cn=0,n=2
        17 013267   000011 000504 6                  ADSC9   LEX_SYMBOL+9             cn=0,n=324

PL6.E3A0      #001=COBOLRW File=COBOLRW.:Z8A6TSI                                 SAT 08/09/97 09:25 Page:293
  18704 17 013270   000000 631400 18                 EPPR1   0
        17 013271   000000 701000 xent               TSX1    Z8AH$SEARCH_
        17 013272   000000 011000                    NOP     0

  18705 17 013273   000000 470400 2                  LDP0    DNT$
        17 013274   400000 236003                    LDQ     -131072,DU
        17 013275   000003 256100                    ORSQ    3,,PR0

  18706 17 013276   000001 236000 18                 LDQ     1
        17 013277   000003 356100                    ANSQ    3,,PR0

  18707 17 013300   000002 236000 18                 LDQ     2
        17 013301   000003 356100                    ANSQ    3,,PR0

  18708 17 013302   000003 236000 18                 LDQ     3
        17 013303   000003 356100                    ANSQ    3,,PR0

  18709 17 013304   000004 236000 18                 LDQ     4
        17 013305   000003 356100                    ANSQ    3,,PR0

  18710 17 013306   000362 220003                    LDX0    242,DU
        17 013307   000003 440100                    SXL0    3,,PR0

      575    18712        %NEWRSW;
      576    18715        %SEARCH (RWD='IN',                     RWNO=%RSV_WRD_IN);

  18719 17 013310   002731 054000 1                  AOS     NUMBER_OF_RESERVED_WORDS

  18720 17 013311   000002 235007                    LDA     2,DL
        17 013312   000010 755000 6                  STA     LEX_SYMBOL+8

  18721 17 013313   040000 100400                    MLR     fill='040'O
        17 013314   000762 000002 16                 ADSC9   498                      cn=0,n=2
        17 013315   000011 000504 6                  ADSC9   LEX_SYMBOL+9             cn=0,n=324

  18722 17 013316   000000 631400 18                 EPPR1   0
        17 013317   000000 701000 xent               TSX1    Z8AH$SEARCH_
PL6.E3A0      #001=COBOLRW File=COBOLRW.:Z8A6TSI                                 SAT 08/09/97 09:25 Page:294
        17 013320   000000 011000                    NOP     0

  18723 17 013321   000000 470400 2                  LDP0    DNT$
        17 013322   400000 236003                    LDQ     -131072,DU
        17 013323   000003 256100                    ORSQ    3,,PR0

  18724 17 013324   000001 236000 18                 LDQ     1
        17 013325   000003 356100                    ANSQ    3,,PR0

  18725 17 013326   000002 236000 18                 LDQ     2
        17 013327   000003 356100                    ANSQ    3,,PR0

  18726 17 013330   000003 236000 18                 LDQ     3
        17 013331   000003 356100                    ANSQ    3,,PR0

  18727 17 013332   000004 236000 18                 LDQ     4
        17 013333   000003 356100                    ANSQ    3,,PR0

  18728 17 013334   000363 220003                    LDX0    243,DU
        17 013335   000003 440100                    SXL0    3,,PR0

      577    18730        %NEWRSW;
      578    18733        %SEARCH (RWD='INCLUDING',              RWNO=%RSV_WRD_INCLUDING);

  18737 17 013336   002731 054000 1                  AOS     NUMBER_OF_RESERVED_WORDS

  18738 17 013337   000011 235007                    LDA     9,DL
        17 013340   000010 755000 6                  STA     LEX_SYMBOL+8

  18739 17 013341   040000 100400                    MLR     fill='040'O
        17 013342   001114 000011 16                 ADSC9   588                      cn=0,n=9
        17 013343   000011 000504 6                  ADSC9   LEX_SYMBOL+9             cn=0,n=324

  18740 17 013344   000000 631400 18                 EPPR1   0
        17 013345   000000 701000 xent               TSX1    Z8AH$SEARCH_
        17 013346   000000 011000                    NOP     0

PL6.E3A0      #001=COBOLRW File=COBOLRW.:Z8A6TSI                                 SAT 08/09/97 09:25 Page:295
  18741 17 013347   000000 470400 2                  LDP0    DNT$
        17 013350   400000 236003                    LDQ     -131072,DU
        17 013351   000003 256100                    ORSQ    3,,PR0

  18742 17 013352   000001 236000 18                 LDQ     1
        17 013353   000003 356100                    ANSQ    3,,PR0

  18743 17 013354   000002 236000 18                 LDQ     2
        17 013355   000003 356100                    ANSQ    3,,PR0

  18744 17 013356   000003 236000 18                 LDQ     3
        17 013357   000003 356100                    ANSQ    3,,PR0

  18745 17 013360   000004 236000 18                 LDQ     4
        17 013361   000003 356100                    ANSQ    3,,PR0

  18746 17 013362   000364 220003                    LDX0    244,DU
        17 013363   000003 440100                    SXL0    3,,PR0

      579    18748        %NEWRSW;
      580    18751        %SEARCH (RWD='INDEX',                  RWNO=%RSV_WRD_INDEX);

  18755 17 013364   002731 054000 1                  AOS     NUMBER_OF_RESERVED_WORDS

  18756 17 013365   000005 235007                    LDA     5,DL
        17 013366   000010 755000 6                  STA     LEX_SYMBOL+8

  18757 17 013367   040000 100400                    MLR     fill='040'O
        17 013370   001117 000005 16                 ADSC9   591                      cn=0,n=5
        17 013371   000011 000504 6                  ADSC9   LEX_SYMBOL+9             cn=0,n=324

  18758 17 013372   000000 631400 18                 EPPR1   0
        17 013373   000000 701000 xent               TSX1    Z8AH$SEARCH_
        17 013374   000000 011000                    NOP     0

  18759 17 013375   000000 470400 2                  LDP0    DNT$
        17 013376   400000 236003                    LDQ     -131072,DU
PL6.E3A0      #001=COBOLRW File=COBOLRW.:Z8A6TSI                                 SAT 08/09/97 09:25 Page:296
        17 013377   000003 256100                    ORSQ    3,,PR0

  18760 17 013400   000001 236000 18                 LDQ     1
        17 013401   000003 356100                    ANSQ    3,,PR0

  18761 17 013402   000002 236000 18                 LDQ     2
        17 013403   000003 356100                    ANSQ    3,,PR0

  18762 17 013404   000003 236000 18                 LDQ     3
        17 013405   000003 356100                    ANSQ    3,,PR0

  18763 17 013406   000004 236000 18                 LDQ     4
        17 013407   000003 356100                    ANSQ    3,,PR0

  18764 17 013410   000365 220003                    LDX0    245,DU
        17 013411   000003 440100                    SXL0    3,,PR0

      581    18766        %NEWRSW;
      582    18769        %SEARCH (RWD='INDEXED',                RWNO=%RSV_WRD_INDEXED);

  18773 17 013412   002731 054000 1                  AOS     NUMBER_OF_RESERVED_WORDS

  18774 17 013413   000007 235007                    LDA     7,DL
        17 013414   000010 755000 6                  STA     LEX_SYMBOL+8

  18775 17 013415   040000 100400                    MLR     fill='040'O
        17 013416   001121 000007 16                 ADSC9   593                      cn=0,n=7
        17 013417   000011 000504 6                  ADSC9   LEX_SYMBOL+9             cn=0,n=324

  18776 17 013420   000000 631400 18                 EPPR1   0
        17 013421   000000 701000 xent               TSX1    Z8AH$SEARCH_
        17 013422   000000 011000                    NOP     0

  18777 17 013423   000000 470400 2                  LDP0    DNT$
        17 013424   400000 236003                    LDQ     -131072,DU
        17 013425   000003 256100                    ORSQ    3,,PR0

PL6.E3A0      #001=COBOLRW File=COBOLRW.:Z8A6TSI                                 SAT 08/09/97 09:25 Page:297
  18778 17 013426   000001 236000 18                 LDQ     1
        17 013427   000003 356100                    ANSQ    3,,PR0

  18779 17 013430   000002 236000 18                 LDQ     2
        17 013431   000003 356100                    ANSQ    3,,PR0

  18780 17 013432   000003 236000 18                 LDQ     3
        17 013433   000003 356100                    ANSQ    3,,PR0

  18781 17 013434   000004 236000 18                 LDQ     4
        17 013435   000003 356100                    ANSQ    3,,PR0

  18782 17 013436   000366 220003                    LDX0    246,DU
        17 013437   000003 440100                    SXL0    3,,PR0

      583    18784        %NEWRSW;
      584    18787        %SEARCH (RWD='INDICATE',               RWNO=%RSV_WRD_INDICATE);

  18791 17 013440   002731 054000 1                  AOS     NUMBER_OF_RESERVED_WORDS

  18792 17 013441   000010 235007                    LDA     8,DL
        17 013442   000010 755000 6                  STA     LEX_SYMBOL+8

  18793 17 013443   040000 100400                    MLR     fill='040'O
        17 013444   001123 000010 16                 ADSC9   595                      cn=0,n=8
        17 013445   000011 000504 6                  ADSC9   LEX_SYMBOL+9             cn=0,n=324

  18794 17 013446   000000 631400 18                 EPPR1   0
        17 013447   000000 701000 xent               TSX1    Z8AH$SEARCH_
        17 013450   000000 011000                    NOP     0

  18795 17 013451   000000 470400 2                  LDP0    DNT$
        17 013452   400000 236003                    LDQ     -131072,DU
        17 013453   000003 256100                    ORSQ    3,,PR0

  18796 17 013454   000001 236000 18                 LDQ     1
        17 013455   000003 356100                    ANSQ    3,,PR0
PL6.E3A0      #001=COBOLRW File=COBOLRW.:Z8A6TSI                                 SAT 08/09/97 09:25 Page:298

  18797 17 013456   000002 236000 18                 LDQ     2
        17 013457   000003 356100                    ANSQ    3,,PR0

  18798 17 013460   000003 236000 18                 LDQ     3
        17 013461   000003 356100                    ANSQ    3,,PR0

  18799 17 013462   000004 236000 18                 LDQ     4
        17 013463   000003 356100                    ANSQ    3,,PR0

  18800 17 013464   000367 220003                    LDX0    247,DU
        17 013465   000003 440100                    SXL0    3,,PR0

      585    18802        %NEWRSW;
      586    18805        %SEARCH (RWD='INITIAL',                RWNO=%RSV_WRD_INITIAL);

  18809 17 013466   002731 054000 1                  AOS     NUMBER_OF_RESERVED_WORDS

  18810 17 013467   000007 235007                    LDA     7,DL
        17 013470   000010 755000 6                  STA     LEX_SYMBOL+8

  18811 17 013471   040000 100400                    MLR     fill='040'O
        17 013472   001125 000007 16                 ADSC9   597                      cn=0,n=7
        17 013473   000011 000504 6                  ADSC9   LEX_SYMBOL+9             cn=0,n=324

  18812 17 013474   000000 631400 18                 EPPR1   0
        17 013475   000000 701000 xent               TSX1    Z8AH$SEARCH_
        17 013476   000000 011000                    NOP     0

  18813 17 013477   000000 470400 2                  LDP0    DNT$
        17 013500   400000 236003                    LDQ     -131072,DU
        17 013501   000003 256100                    ORSQ    3,,PR0

  18814 17 013502   000001 236000 18                 LDQ     1
        17 013503   000003 356100                    ANSQ    3,,PR0

  18815 17 013504   000002 236000 18                 LDQ     2
PL6.E3A0      #001=COBOLRW File=COBOLRW.:Z8A6TSI                                 SAT 08/09/97 09:25 Page:299
        17 013505   000003 356100                    ANSQ    3,,PR0

  18816 17 013506   000003 236000 18                 LDQ     3
        17 013507   000003 356100                    ANSQ    3,,PR0

  18817 17 013510   000004 236000 18                 LDQ     4
        17 013511   000003 356100                    ANSQ    3,,PR0

  18818 17 013512   000370 220003                    LDX0    248,DU
        17 013513   000003 440100                    SXL0    3,,PR0

      587    18820        %NEWRSW;
      588    18823        %SEARCH (RWD='INITIALIZE',             RWNO=%RSV_WRD_INITIALIZE);

  18827 17 013514   002731 054000 1                  AOS     NUMBER_OF_RESERVED_WORDS

  18828 17 013515   000012 235007                    LDA     10,DL
        17 013516   000010 755000 6                  STA     LEX_SYMBOL+8

  18829 17 013517   040000 100400                    MLR     fill='040'O
        17 013520   001127 000012 16                 ADSC9   599                      cn=0,n=10
        17 013521   000011 000504 6                  ADSC9   LEX_SYMBOL+9             cn=0,n=324

  18830 17 013522   000000 631400 18                 EPPR1   0
        17 013523   000000 701000 xent               TSX1    Z8AH$SEARCH_
        17 013524   000000 011000                    NOP     0

  18831 17 013525   000000 470400 2                  LDP0    DNT$
        17 013526   400000 236003                    LDQ     -131072,DU
        17 013527   000003 256100                    ORSQ    3,,PR0

  18832 17 013530   000001 236000 18                 LDQ     1
        17 013531   000003 356100                    ANSQ    3,,PR0

  18833 17 013532   000002 236000 18                 LDQ     2
        17 013533   000003 356100                    ANSQ    3,,PR0

PL6.E3A0      #001=COBOLRW File=COBOLRW.:Z8A6TSI                                 SAT 08/09/97 09:25 Page:300
  18834 17 013534   000003 236000 18                 LDQ     3
        17 013535   000003 356100                    ANSQ    3,,PR0

  18835 17 013536   000004 236000 18                 LDQ     4
        17 013537   000003 356100                    ANSQ    3,,PR0

  18836 17 013540   000371 220003                    LDX0    249,DU
        17 013541   000003 440100                    SXL0    3,,PR0

      589    18838        %NEWRSW;
      590    18841        %SEARCH (RWD='INITIATE',               RWNO=%RSV_WRD_INITIATE);

  18845 17 013542   002731 054000 1                  AOS     NUMBER_OF_RESERVED_WORDS

  18846 17 013543   000010 235007                    LDA     8,DL
        17 013544   000010 755000 6                  STA     LEX_SYMBOL+8

  18847 17 013545   040000 100400                    MLR     fill='040'O
        17 013546   001132 000010 16                 ADSC9   602                      cn=0,n=8
        17 013547   000011 000504 6                  ADSC9   LEX_SYMBOL+9             cn=0,n=324

  18848 17 013550   000000 631400 18                 EPPR1   0
        17 013551   000000 701000 xent               TSX1    Z8AH$SEARCH_
        17 013552   000000 011000                    NOP     0

  18849 17 013553   000000 470400 2                  LDP0    DNT$
        17 013554   400000 236003                    LDQ     -131072,DU
        17 013555   000003 256100                    ORSQ    3,,PR0

  18850 17 013556   000001 236000 18                 LDQ     1
        17 013557   000003 356100                    ANSQ    3,,PR0

  18851 17 013560   000002 236000 18                 LDQ     2
        17 013561   000003 356100                    ANSQ    3,,PR0

  18852 17 013562   000003 236000 18                 LDQ     3
        17 013563   000003 356100                    ANSQ    3,,PR0
PL6.E3A0      #001=COBOLRW File=COBOLRW.:Z8A6TSI                                 SAT 08/09/97 09:25 Page:301

  18853 17 013564   000004 236000 18                 LDQ     4
        17 013565   000003 356100                    ANSQ    3,,PR0

  18854 17 013566   000372 220003                    LDX0    250,DU
        17 013567   000003 440100                    SXL0    3,,PR0

      591    18856        %NEWRSW;
      592    18859        %SEARCH (RWD='INPUT',                  RWNO=%RSV_WRD_INPUT);

  18863 17 013570   002731 054000 1                  AOS     NUMBER_OF_RESERVED_WORDS

  18864 17 013571   000005 235007                    LDA     5,DL
        17 013572   000010 755000 6                  STA     LEX_SYMBOL+8

  18865 17 013573   040000 100400                    MLR     fill='040'O
        17 013574   001134 000005 16                 ADSC9   604                      cn=0,n=5
        17 013575   000011 000504 6                  ADSC9   LEX_SYMBOL+9             cn=0,n=324

  18866 17 013576   000000 631400 18                 EPPR1   0
        17 013577   000000 701000 xent               TSX1    Z8AH$SEARCH_
        17 013600   000000 011000                    NOP     0

  18867 17 013601   000000 470400 2                  LDP0    DNT$
        17 013602   400000 236003                    LDQ     -131072,DU
        17 013603   000003 256100                    ORSQ    3,,PR0

  18868 17 013604   000001 236000 18                 LDQ     1
        17 013605   000003 356100                    ANSQ    3,,PR0

  18869 17 013606   000002 236000 18                 LDQ     2
        17 013607   000003 356100                    ANSQ    3,,PR0

  18870 17 013610   000003 236000 18                 LDQ     3
        17 013611   000003 356100                    ANSQ    3,,PR0

  18871 17 013612   000004 236000 18                 LDQ     4
PL6.E3A0      #001=COBOLRW File=COBOLRW.:Z8A6TSI                                 SAT 08/09/97 09:25 Page:302
        17 013613   000003 356100                    ANSQ    3,,PR0

  18872 17 013614   000373 220003                    LDX0    251,DU
        17 013615   000003 440100                    SXL0    3,,PR0

      593    18874        %NEWRSW;
      594    18877        %SEARCH (RWD='INPUT-OUTPUT',          RWNO=%RSV_WRD_INPUT_OUTPUT, MUST_AREAA=TRUE);

  18881 17 013616   002731 054000 1                  AOS     NUMBER_OF_RESERVED_WORDS

  18882 17 013617   000014 235007                    LDA     12,DL
        17 013620   000010 755000 6                  STA     LEX_SYMBOL+8

  18883 17 013621   040000 100400                    MLR     fill='040'O
        17 013622   001136 000014 16                 ADSC9   606                      cn=0,n=12
        17 013623   000011 000504 6                  ADSC9   LEX_SYMBOL+9             cn=0,n=324

  18884 17 013624   000000 631400 18                 EPPR1   0
        17 013625   000000 701000 xent               TSX1    Z8AH$SEARCH_
        17 013626   000000 011000                    NOP     0

  18885 17 013627   000000 470400 2                  LDP0    DNT$
        17 013630   400000 236003                    LDQ     -131072,DU
        17 013631   000003 256100                    ORSQ    3,,PR0

  18886 17 013632   000001 236000 18                 LDQ     1
        17 013633   000003 356100                    ANSQ    3,,PR0

  18887 17 013634   000002 236000 18                 LDQ     2
        17 013635   000003 356100                    ANSQ    3,,PR0

  18888 17 013636   000040 236003                    LDQ     32,DU
        17 013637   000003 256100                    ORSQ    3,,PR0

  18889 17 013640   000004 236000 18                 LDQ     4
        17 013641   000003 356100                    ANSQ    3,,PR0

PL6.E3A0      #001=COBOLRW File=COBOLRW.:Z8A6TSI                                 SAT 08/09/97 09:25 Page:303
  18890 17 013642   000374 220003                    LDX0    252,DU
        17 013643   000003 440100                    SXL0    3,,PR0

      595    18892        %NEWRSW;
      596    18895        %SEARCH (RWD='INSPECT',                RWNO=%RSV_WRD_INSPECT);

  18899 17 013644   002731 054000 1                  AOS     NUMBER_OF_RESERVED_WORDS

  18900 17 013645   000007 235007                    LDA     7,DL
        17 013646   000010 755000 6                  STA     LEX_SYMBOL+8

  18901 17 013647   040000 100400                    MLR     fill='040'O
        17 013650   001141 000007 16                 ADSC9   609                      cn=0,n=7
        17 013651   000011 000504 6                  ADSC9   LEX_SYMBOL+9             cn=0,n=324

  18902 17 013652   000000 631400 18                 EPPR1   0
        17 013653   000000 701000 xent               TSX1    Z8AH$SEARCH_
        17 013654   000000 011000                    NOP     0

  18903 17 013655   000000 470400 2                  LDP0    DNT$
        17 013656   400000 236003                    LDQ     -131072,DU
        17 013657   000003 256100                    ORSQ    3,,PR0

  18904 17 013660   000001 236000 18                 LDQ     1
        17 013661   000003 356100                    ANSQ    3,,PR0

  18905 17 013662   000002 236000 18                 LDQ     2
        17 013663   000003 356100                    ANSQ    3,,PR0

  18906 17 013664   000003 236000 18                 LDQ     3
        17 013665   000003 356100                    ANSQ    3,,PR0

  18907 17 013666   000004 236000 18                 LDQ     4
        17 013667   000003 356100                    ANSQ    3,,PR0

  18908 17 013670   000375 220003                    LDX0    253,DU
        17 013671   000003 440100                    SXL0    3,,PR0
PL6.E3A0      #001=COBOLRW File=COBOLRW.:Z8A6TSI                                 SAT 08/09/97 09:25 Page:304

      597    18910        %NEWRSW;
      598    18913        %SEARCH (RWD='INSTALLATION',          RWNO=%RSV_WRD_INSTALLATION, MUST_AREAA=TRUE);

  18917 17 013672   002731 054000 1                  AOS     NUMBER_OF_RESERVED_WORDS

  18918 17 013673   000014 235007                    LDA     12,DL
        17 013674   000010 755000 6                  STA     LEX_SYMBOL+8

  18919 17 013675   040000 100400                    MLR     fill='040'O
        17 013676   001143 000014 16                 ADSC9   611                      cn=0,n=12
        17 013677   000011 000504 6                  ADSC9   LEX_SYMBOL+9             cn=0,n=324

  18920 17 013700   000000 631400 18                 EPPR1   0
        17 013701   000000 701000 xent               TSX1    Z8AH$SEARCH_
        17 013702   000000 011000                    NOP     0

  18921 17 013703   000000 470400 2                  LDP0    DNT$
        17 013704   400000 236003                    LDQ     -131072,DU
        17 013705   000003 256100                    ORSQ    3,,PR0

  18922 17 013706   000001 236000 18                 LDQ     1
        17 013707   000003 356100                    ANSQ    3,,PR0

  18923 17 013710   000002 236000 18                 LDQ     2
        17 013711   000003 356100                    ANSQ    3,,PR0

  18924 17 013712   000040 236003                    LDQ     32,DU
        17 013713   000003 256100                    ORSQ    3,,PR0

  18925 17 013714   000004 236000 18                 LDQ     4
        17 013715   000003 356100                    ANSQ    3,,PR0

  18926 17 013716   000376 220003                    LDX0    254,DU
        17 013717   000003 440100                    SXL0    3,,PR0

      599    18928        %NEWRSW;
PL6.E3A0      #001=COBOLRW File=COBOLRW.:Z8A6TSI                                 SAT 08/09/97 09:25 Page:305
      600    18931        %SEARCH (RWD='INTERCHANGE',            RWNO=%RSV_WRD_INTERCHANGE);

  18935 17 013720   002731 054000 1                  AOS     NUMBER_OF_RESERVED_WORDS

  18936 17 013721   000013 235007                    LDA     11,DL
        17 013722   000010 755000 6                  STA     LEX_SYMBOL+8

  18937 17 013723   040000 100400                    MLR     fill='040'O
        17 013724   001146 000013 16                 ADSC9   614                      cn=0,n=11
        17 013725   000011 000504 6                  ADSC9   LEX_SYMBOL+9             cn=0,n=324

  18938 17 013726   000000 631400 18                 EPPR1   0
        17 013727   000000 701000 xent               TSX1    Z8AH$SEARCH_
        17 013730   000000 011000                    NOP     0

  18939 17 013731   000000 470400 2                  LDP0    DNT$
        17 013732   400000 236003                    LDQ     -131072,DU
        17 013733   000003 256100                    ORSQ    3,,PR0

  18940 17 013734   000001 236000 18                 LDQ     1
        17 013735   000003 356100                    ANSQ    3,,PR0

  18941 17 013736   000002 236000 18                 LDQ     2
        17 013737   000003 356100                    ANSQ    3,,PR0

  18942 17 013740   000003 236000 18                 LDQ     3
        17 013741   000003 356100                    ANSQ    3,,PR0

  18943 17 013742   000004 236000 18                 LDQ     4
        17 013743   000003 356100                    ANSQ    3,,PR0

  18944 17 013744   000377 220003                    LDX0    255,DU
        17 013745   000003 440100                    SXL0    3,,PR0

      601    18946        %NEWRSW;
      602    18949        %SEARCH (RWD='INTO',                   RWNO=%RSV_WRD_INTO);

PL6.E3A0      #001=COBOLRW File=COBOLRW.:Z8A6TSI                                 SAT 08/09/97 09:25 Page:306
  18953 17 013746   002731 054000 1                  AOS     NUMBER_OF_RESERVED_WORDS

  18954 17 013747   000004 235007                    LDA     4,DL
        17 013750   000010 755000 6                  STA     LEX_SYMBOL+8

  18955 17 013751   040000 100400                    MLR     fill='040'O
        17 013752   001151 000004 16                 ADSC9   617                      cn=0,n=4
        17 013753   000011 000504 6                  ADSC9   LEX_SYMBOL+9             cn=0,n=324

  18956 17 013754   000000 631400 18                 EPPR1   0
        17 013755   000000 701000 xent               TSX1    Z8AH$SEARCH_
        17 013756   000000 011000                    NOP     0

  18957 17 013757   000000 470400 2                  LDP0    DNT$
        17 013760   400000 236003                    LDQ     -131072,DU
        17 013761   000003 256100                    ORSQ    3,,PR0

  18958 17 013762   000001 236000 18                 LDQ     1
        17 013763   000003 356100                    ANSQ    3,,PR0

  18959 17 013764   000002 236000 18                 LDQ     2
        17 013765   000003 356100                    ANSQ    3,,PR0

  18960 17 013766   000003 236000 18                 LDQ     3
        17 013767   000003 356100                    ANSQ    3,,PR0

  18961 17 013770   000004 236000 18                 LDQ     4
        17 013771   000003 356100                    ANSQ    3,,PR0

  18962 17 013772   000400 220003                    LDX0    256,DU
        17 013773   000003 440100                    SXL0    3,,PR0

      603    18964        %NEWRSW;
      604    18967        %SEARCH (RWD='INVALID',                RWNO=%RSV_WRD_INVALID);

  18971 17 013774   002731 054000 1                  AOS     NUMBER_OF_RESERVED_WORDS

PL6.E3A0      #001=COBOLRW File=COBOLRW.:Z8A6TSI                                 SAT 08/09/97 09:25 Page:307
  18972 17 013775   000007 235007                    LDA     7,DL
        17 013776   000010 755000 6                  STA     LEX_SYMBOL+8

  18973 17 013777   040000 100400                    MLR     fill='040'O
        17 014000   001152 000007 16                 ADSC9   618                      cn=0,n=7
        17 014001   000011 000504 6                  ADSC9   LEX_SYMBOL+9             cn=0,n=324

  18974 17 014002   000000 631400 18                 EPPR1   0
        17 014003   000000 701000 xent               TSX1    Z8AH$SEARCH_
        17 014004   000000 011000                    NOP     0

  18975 17 014005   000000 470400 2                  LDP0    DNT$
        17 014006   400000 236003                    LDQ     -131072,DU
        17 014007   000003 256100                    ORSQ    3,,PR0

  18976 17 014010   000001 236000 18                 LDQ     1
        17 014011   000003 356100                    ANSQ    3,,PR0

  18977 17 014012   000002 236000 18                 LDQ     2
        17 014013   000003 356100                    ANSQ    3,,PR0

  18978 17 014014   000003 236000 18                 LDQ     3
        17 014015   000003 356100                    ANSQ    3,,PR0

  18979 17 014016   000004 236000 18                 LDQ     4
        17 014017   000003 356100                    ANSQ    3,,PR0

  18980 17 014020   000401 220003                    LDX0    257,DU
        17 014021   000003 440100                    SXL0    3,,PR0

      605    18982        %NEWRSW;
      606    18985        %SEARCH (RWD='IS',                     RWNO=%RSV_WRD_IS);

  18989 17 014022   002731 054000 1                  AOS     NUMBER_OF_RESERVED_WORDS

  18990 17 014023   000002 235007                    LDA     2,DL
        17 014024   000010 755000 6                  STA     LEX_SYMBOL+8
PL6.E3A0      #001=COBOLRW File=COBOLRW.:Z8A6TSI                                 SAT 08/09/97 09:25 Page:308

  18991 17 014025   040000 100400                    MLR     fill='040'O
        17 014026   001154 000002 16                 ADSC9   620                      cn=0,n=2
        17 014027   000011 000504 6                  ADSC9   LEX_SYMBOL+9             cn=0,n=324

  18992 17 014030   000000 631400 18                 EPPR1   0
        17 014031   000000 701000 xent               TSX1    Z8AH$SEARCH_
        17 014032   000000 011000                    NOP     0

  18993 17 014033   000000 470400 2                  LDP0    DNT$
        17 014034   400000 236003                    LDQ     -131072,DU
        17 014035   000003 256100                    ORSQ    3,,PR0

  18994 17 014036   000001 236000 18                 LDQ     1
        17 014037   000003 356100                    ANSQ    3,,PR0

  18995 17 014040   000002 236000 18                 LDQ     2
        17 014041   000003 356100                    ANSQ    3,,PR0

  18996 17 014042   000003 236000 18                 LDQ     3
        17 014043   000003 356100                    ANSQ    3,,PR0

  18997 17 014044   000004 236000 18                 LDQ     4
        17 014045   000003 356100                    ANSQ    3,,PR0

  18998 17 014046   000402 220003                    LDX0    258,DU
        17 014047   000003 440100                    SXL0    3,,PR0

      607    19000        %NEWRSW;
      608    19003        %SEARCH (RWD='ISP',                    RWNO=%RSV_WRD_ISP);

  19007 17 014050   002731 054000 1                  AOS     NUMBER_OF_RESERVED_WORDS

  19008 17 014051   000003 235007                    LDA     3,DL
        17 014052   000010 755000 6                  STA     LEX_SYMBOL+8

  19009 17 014053   040000 100400                    MLR     fill='040'O
PL6.E3A0      #001=COBOLRW File=COBOLRW.:Z8A6TSI                                 SAT 08/09/97 09:25 Page:309
        17 014054   001155 000003 16                 ADSC9   621                      cn=0,n=3
        17 014055   000011 000504 6                  ADSC9   LEX_SYMBOL+9             cn=0,n=324

  19010 17 014056   000000 631400 18                 EPPR1   0
        17 014057   000000 701000 xent               TSX1    Z8AH$SEARCH_
        17 014060   000000 011000                    NOP     0

  19011 17 014061   000000 470400 2                  LDP0    DNT$
        17 014062   400000 236003                    LDQ     -131072,DU
        17 014063   000003 256100                    ORSQ    3,,PR0

  19012 17 014064   000001 236000 18                 LDQ     1
        17 014065   000003 356100                    ANSQ    3,,PR0

  19013 17 014066   000002 236000 18                 LDQ     2
        17 014067   000003 356100                    ANSQ    3,,PR0

  19014 17 014070   000003 236000 18                 LDQ     3
        17 014071   000003 356100                    ANSQ    3,,PR0

  19015 17 014072   000004 236000 18                 LDQ     4
        17 014073   000003 356100                    ANSQ    3,,PR0

  19016 17 014074   000403 220003                    LDX0    259,DU
        17 014075   000003 440100                    SXL0    3,,PR0

      609    19018        %NEWRSW;
      610    19021        %SEARCH (RWD='JIS',                    RWNO=%RSV_WRD_JIS);

  19025 17 014076   002731 054000 1                  AOS     NUMBER_OF_RESERVED_WORDS

  19026 17 014077   000003 235007                    LDA     3,DL
        17 014100   000010 755000 6                  STA     LEX_SYMBOL+8

  19027 17 014101   040000 100400                    MLR     fill='040'O
        17 014102   001156 000003 16                 ADSC9   622                      cn=0,n=3
        17 014103   000011 000504 6                  ADSC9   LEX_SYMBOL+9             cn=0,n=324
PL6.E3A0      #001=COBOLRW File=COBOLRW.:Z8A6TSI                                 SAT 08/09/97 09:25 Page:310

  19028 17 014104   000000 631400 18                 EPPR1   0
        17 014105   000000 701000 xent               TSX1    Z8AH$SEARCH_
        17 014106   000000 011000                    NOP     0

  19029 17 014107   000000 470400 2                  LDP0    DNT$
        17 014110   400000 236003                    LDQ     -131072,DU
        17 014111   000003 256100                    ORSQ    3,,PR0

  19030 17 014112   000001 236000 18                 LDQ     1
        17 014113   000003 356100                    ANSQ    3,,PR0

  19031 17 014114   000002 236000 18                 LDQ     2
        17 014115   000003 356100                    ANSQ    3,,PR0

  19032 17 014116   000003 236000 18                 LDQ     3
        17 014117   000003 356100                    ANSQ    3,,PR0

  19033 17 014120   000004 236000 18                 LDQ     4
        17 014121   000003 356100                    ANSQ    3,,PR0

  19034 17 014122   000404 220003                    LDX0    260,DU
        17 014123   000003 440100                    SXL0    3,,PR0

      611    19036        %NEWRSW;
      612    19039        %SEARCH (RWD='JUSTIFIED',              RWNO=%RSV_WRD_JUSTIFIED);

  19043 17 014124   002731 054000 1                  AOS     NUMBER_OF_RESERVED_WORDS

  19044 17 014125   000011 235007                    LDA     9,DL
        17 014126   000010 755000 6                  STA     LEX_SYMBOL+8

  19045 17 014127   040000 100400                    MLR     fill='040'O
        17 014130   001157 000011 16                 ADSC9   623                      cn=0,n=9
        17 014131   000011 000504 6                  ADSC9   LEX_SYMBOL+9             cn=0,n=324

  19046 17 014132   000000 631400 18                 EPPR1   0
PL6.E3A0      #001=COBOLRW File=COBOLRW.:Z8A6TSI                                 SAT 08/09/97 09:25 Page:311
        17 014133   000000 701000 xent               TSX1    Z8AH$SEARCH_
        17 014134   000000 011000                    NOP     0

  19047 17 014135   000000 470400 2                  LDP0    DNT$
        17 014136   400000 236003                    LDQ     -131072,DU
        17 014137   000003 256100                    ORSQ    3,,PR0

  19048 17 014140   000001 236000 18                 LDQ     1
        17 014141   000003 356100                    ANSQ    3,,PR0

  19049 17 014142   000002 236000 18                 LDQ     2
        17 014143   000003 356100                    ANSQ    3,,PR0

  19050 17 014144   000003 236000 18                 LDQ     3
        17 014145   000003 356100                    ANSQ    3,,PR0

  19051 17 014146   000004 236000 18                 LDQ     4
        17 014147   000003 356100                    ANSQ    3,,PR0

  19052 17 014150   000405 220003                    LDX0    261,DU
        17 014151   000003 440100                    SXL0    3,,PR0

      613    19054        %SEARCH (RWD='JUST',                   RWNO=%RSV_WRD_JUSTIFIED);

  19058 17 014152   002731 054000 1                  AOS     NUMBER_OF_RESERVED_WORDS

  19059 17 014153   000004 235007                    LDA     4,DL
        17 014154   000010 755000 6                  STA     LEX_SYMBOL+8

  19060 17 014155   040000 100400                    MLR     fill='040'O
        17 014156   001157 000004 16                 ADSC9   623                      cn=0,n=4
        17 014157   000011 000504 6                  ADSC9   LEX_SYMBOL+9             cn=0,n=324

  19061 17 014160   000000 631400 18                 EPPR1   0
        17 014161   000000 701000 xent               TSX1    Z8AH$SEARCH_
        17 014162   000000 011000                    NOP     0

PL6.E3A0      #001=COBOLRW File=COBOLRW.:Z8A6TSI                                 SAT 08/09/97 09:25 Page:312
  19062 17 014163   000000 470400 2                  LDP0    DNT$
        17 014164   400000 236003                    LDQ     -131072,DU
        17 014165   000003 256100                    ORSQ    3,,PR0

  19063 17 014166   000001 236000 18                 LDQ     1
        17 014167   000003 356100                    ANSQ    3,,PR0

  19064 17 014170   000002 236000 18                 LDQ     2
        17 014171   000003 356100                    ANSQ    3,,PR0

  19065 17 014172   000003 236000 18                 LDQ     3
        17 014173   000003 356100                    ANSQ    3,,PR0

  19066 17 014174   000004 236000 18                 LDQ     4
        17 014175   000003 356100                    ANSQ    3,,PR0

  19067 17 014176   000405 220003                    LDX0    261,DU
        17 014177   000003 440100                    SXL0    3,,PR0

      614    19069        %NEWRSW;
      615    19072        %SEARCH (RWD='KEY',                    RWNO=%RSV_WRD_KEY);

  19076 17 014200   002731 054000 1                  AOS     NUMBER_OF_RESERVED_WORDS

  19077 17 014201   000003 235007                    LDA     3,DL
        17 014202   000010 755000 6                  STA     LEX_SYMBOL+8

  19078 17 014203   040000 100400                    MLR     fill='040'O
        17 014204   001162 000003 16                 ADSC9   626                      cn=0,n=3
        17 014205   000011 000504 6                  ADSC9   LEX_SYMBOL+9             cn=0,n=324

  19079 17 014206   000000 631400 18                 EPPR1   0
        17 014207   000000 701000 xent               TSX1    Z8AH$SEARCH_
        17 014210   000000 011000                    NOP     0

  19080 17 014211   000000 470400 2                  LDP0    DNT$
        17 014212   400000 236003                    LDQ     -131072,DU
PL6.E3A0      #001=COBOLRW File=COBOLRW.:Z8A6TSI                                 SAT 08/09/97 09:25 Page:313
        17 014213   000003 256100                    ORSQ    3,,PR0

  19081 17 014214   000001 236000 18                 LDQ     1
        17 014215   000003 356100                    ANSQ    3,,PR0

  19082 17 014216   000002 236000 18                 LDQ     2
        17 014217   000003 356100                    ANSQ    3,,PR0

  19083 17 014220   000003 236000 18                 LDQ     3
        17 014221   000003 356100                    ANSQ    3,,PR0

  19084 17 014222   000004 236000 18                 LDQ     4
        17 014223   000003 356100                    ANSQ    3,,PR0

  19085 17 014224   000406 220003                    LDX0    262,DU
        17 014225   000003 440100                    SXL0    3,,PR0

      616    19087        %NEWRSW;
      617    19090        %SEARCH (RWD='KEYED',                  RWNO=%RSV_WRD_KEYED);

  19094 17 014226   002731 054000 1                  AOS     NUMBER_OF_RESERVED_WORDS

  19095 17 014227   000005 235007                    LDA     5,DL
        17 014230   000010 755000 6                  STA     LEX_SYMBOL+8

  19096 17 014231   040000 100400                    MLR     fill='040'O
        17 014232   001163 000005 16                 ADSC9   627                      cn=0,n=5
        17 014233   000011 000504 6                  ADSC9   LEX_SYMBOL+9             cn=0,n=324

  19097 17 014234   000000 631400 18                 EPPR1   0
        17 014235   000000 701000 xent               TSX1    Z8AH$SEARCH_
        17 014236   000000 011000                    NOP     0

  19098 17 014237   000000 470400 2                  LDP0    DNT$
        17 014240   400000 236003                    LDQ     -131072,DU
        17 014241   000003 256100                    ORSQ    3,,PR0

PL6.E3A0      #001=COBOLRW File=COBOLRW.:Z8A6TSI                                 SAT 08/09/97 09:25 Page:314
  19099 17 014242   000001 236000 18                 LDQ     1
        17 014243   000003 356100                    ANSQ    3,,PR0

  19100 17 014244   000002 236000 18                 LDQ     2
        17 014245   000003 356100                    ANSQ    3,,PR0

  19101 17 014246   000003 236000 18                 LDQ     3
        17 014247   000003 356100                    ANSQ    3,,PR0

  19102 17 014250   000004 236000 18                 LDQ     4
        17 014251   000003 356100                    ANSQ    3,,PR0

  19103 17 014252   000407 220003                    LDX0    263,DU
        17 014253   000003 440100                    SXL0    3,,PR0

      618    19105        %NEWRSW;
      619    19108        %SEARCH (RWD='LABEL',                  RWNO=%RSV_WRD_LABEL);

  19112 17 014254   002731 054000 1                  AOS     NUMBER_OF_RESERVED_WORDS

  19113 17 014255   000005 235007                    LDA     5,DL
        17 014256   000010 755000 6                  STA     LEX_SYMBOL+8

  19114 17 014257   040000 100400                    MLR     fill='040'O
        17 014260   001165 000005 16                 ADSC9   629                      cn=0,n=5
        17 014261   000011 000504 6                  ADSC9   LEX_SYMBOL+9             cn=0,n=324

  19115 17 014262   000000 631400 18                 EPPR1   0
        17 014263   000000 701000 xent               TSX1    Z8AH$SEARCH_
        17 014264   000000 011000                    NOP     0

  19116 17 014265   000000 470400 2                  LDP0    DNT$
        17 014266   400000 236003                    LDQ     -131072,DU
        17 014267   000003 256100                    ORSQ    3,,PR0

  19117 17 014270   000001 236000 18                 LDQ     1
        17 014271   000003 356100                    ANSQ    3,,PR0
PL6.E3A0      #001=COBOLRW File=COBOLRW.:Z8A6TSI                                 SAT 08/09/97 09:25 Page:315

  19118 17 014272   000002 236000 18                 LDQ     2
        17 014273   000003 356100                    ANSQ    3,,PR0

  19119 17 014274   000003 236000 18                 LDQ     3
        17 014275   000003 356100                    ANSQ    3,,PR0

  19120 17 014276   000004 236000 18                 LDQ     4
        17 014277   000003 356100                    ANSQ    3,,PR0

  19121 17 014300   000410 220003                    LDX0    264,DU
        17 014301   000003 440100                    SXL0    3,,PR0

      620    19123        %NEWRSW;
      621    19126        %SEARCH (RWD='LABEL-DAY',              RWNO=%RSV_WRD_LABEL_DAY);

  19130 17 014302   002731 054000 1                  AOS     NUMBER_OF_RESERVED_WORDS

  19131 17 014303   000011 235007                    LDA     9,DL
        17 014304   000010 755000 6                  STA     LEX_SYMBOL+8

  19132 17 014305   040000 100400                    MLR     fill='040'O
        17 014306   001167 000011 16                 ADSC9   631                      cn=0,n=9
        17 014307   000011 000504 6                  ADSC9   LEX_SYMBOL+9             cn=0,n=324

  19133 17 014310   000000 631400 18                 EPPR1   0
        17 014311   000000 701000 xent               TSX1    Z8AH$SEARCH_
        17 014312   000000 011000                    NOP     0

  19134 17 014313   000000 470400 2                  LDP0    DNT$
        17 014314   400000 236003                    LDQ     -131072,DU
        17 014315   000003 256100                    ORSQ    3,,PR0

  19135 17 014316   000001 236000 18                 LDQ     1
        17 014317   000003 356100                    ANSQ    3,,PR0

  19136 17 014320   000002 236000 18                 LDQ     2
PL6.E3A0      #001=COBOLRW File=COBOLRW.:Z8A6TSI                                 SAT 08/09/97 09:25 Page:316
        17 014321   000003 356100                    ANSQ    3,,PR0

  19137 17 014322   000003 236000 18                 LDQ     3
        17 014323   000003 356100                    ANSQ    3,,PR0

  19138 17 014324   000004 236000 18                 LDQ     4
        17 014325   000003 356100                    ANSQ    3,,PR0

  19139 17 014326   000411 220003                    LDX0    265,DU
        17 014327   000003 440100                    SXL0    3,,PR0

      622    19141        %NEWRSW;
      623    19144        %SEARCH (RWD='LABEL-IDENTIFIER',       RWNO=%RSV_WRD_LABEL_IDENTIFIER);

  19148 17 014330   002731 054000 1                  AOS     NUMBER_OF_RESERVED_WORDS

  19149 17 014331   000020 235007                    LDA     16,DL
        17 014332   000010 755000 6                  STA     LEX_SYMBOL+8

  19150 17 014333   040000 100400                    MLR     fill='040'O
        17 014334   001172 000020 16                 ADSC9   634                      cn=0,n=16
        17 014335   000011 000504 6                  ADSC9   LEX_SYMBOL+9             cn=0,n=324

  19151 17 014336   000000 631400 18                 EPPR1   0
        17 014337   000000 701000 xent               TSX1    Z8AH$SEARCH_
        17 014340   000000 011000                    NOP     0

  19152 17 014341   000000 470400 2                  LDP0    DNT$
        17 014342   400000 236003                    LDQ     -131072,DU
        17 014343   000003 256100                    ORSQ    3,,PR0

  19153 17 014344   000001 236000 18                 LDQ     1
        17 014345   000003 356100                    ANSQ    3,,PR0

  19154 17 014346   000002 236000 18                 LDQ     2
        17 014347   000003 356100                    ANSQ    3,,PR0

PL6.E3A0      #001=COBOLRW File=COBOLRW.:Z8A6TSI                                 SAT 08/09/97 09:25 Page:317
  19155 17 014350   000003 236000 18                 LDQ     3
        17 014351   000003 356100                    ANSQ    3,,PR0

  19156 17 014352   000004 236000 18                 LDQ     4
        17 014353   000003 356100                    ANSQ    3,,PR0

  19157 17 014354   000412 220003                    LDX0    266,DU
        17 014355   000003 440100                    SXL0    3,,PR0

      624    19159        %NEWRSW;
      625    19162        %SEARCH (RWD='LABEL-YEAR',             RWNO=%RSV_WRD_LABEL_YEAR);

  19166 17 014356   002731 054000 1                  AOS     NUMBER_OF_RESERVED_WORDS

  19167 17 014357   000012 235007                    LDA     10,DL
        17 014360   000010 755000 6                  STA     LEX_SYMBOL+8

  19168 17 014361   040000 100400                    MLR     fill='040'O
        17 014362   001176 000012 16                 ADSC9   638                      cn=0,n=10
        17 014363   000011 000504 6                  ADSC9   LEX_SYMBOL+9             cn=0,n=324

  19169 17 014364   000000 631400 18                 EPPR1   0
        17 014365   000000 701000 xent               TSX1    Z8AH$SEARCH_
        17 014366   000000 011000                    NOP     0

  19170 17 014367   000000 470400 2                  LDP0    DNT$
        17 014370   400000 236003                    LDQ     -131072,DU
        17 014371   000003 256100                    ORSQ    3,,PR0

  19171 17 014372   000001 236000 18                 LDQ     1
        17 014373   000003 356100                    ANSQ    3,,PR0

  19172 17 014374   000002 236000 18                 LDQ     2
        17 014375   000003 356100                    ANSQ    3,,PR0

  19173 17 014376   000003 236000 18                 LDQ     3
        17 014377   000003 356100                    ANSQ    3,,PR0
PL6.E3A0      #001=COBOLRW File=COBOLRW.:Z8A6TSI                                 SAT 08/09/97 09:25 Page:318

  19174 17 014400   000004 236000 18                 LDQ     4
        17 014401   000003 356100                    ANSQ    3,,PR0

  19175 17 014402   000413 220003                    LDX0    267,DU
        17 014403   000003 440100                    SXL0    3,,PR0

      626    19177        %NEWRSW;
      627    19180        %SEARCH (RWD='LAST',                   RWNO=%RSV_WRD_LAST);

  19184 17 014404   002731 054000 1                  AOS     NUMBER_OF_RESERVED_WORDS

  19185 17 014405   000004 235007                    LDA     4,DL
        17 014406   000010 755000 6                  STA     LEX_SYMBOL+8

  19186 17 014407   040000 100400                    MLR     fill='040'O
        17 014410   001201 000004 16                 ADSC9   641                      cn=0,n=4
        17 014411   000011 000504 6                  ADSC9   LEX_SYMBOL+9             cn=0,n=324

  19187 17 014412   000000 631400 18                 EPPR1   0
        17 014413   000000 701000 xent               TSX1    Z8AH$SEARCH_
        17 014414   000000 011000                    NOP     0

  19188 17 014415   000000 470400 2                  LDP0    DNT$
        17 014416   400000 236003                    LDQ     -131072,DU
        17 014417   000003 256100                    ORSQ    3,,PR0

  19189 17 014420   000001 236000 18                 LDQ     1
        17 014421   000003 356100                    ANSQ    3,,PR0

  19190 17 014422   000002 236000 18                 LDQ     2
        17 014423   000003 356100                    ANSQ    3,,PR0

  19191 17 014424   000003 236000 18                 LDQ     3
        17 014425   000003 356100                    ANSQ    3,,PR0

  19192 17 014426   000004 236000 18                 LDQ     4
PL6.E3A0      #001=COBOLRW File=COBOLRW.:Z8A6TSI                                 SAT 08/09/97 09:25 Page:319
        17 014427   000003 356100                    ANSQ    3,,PR0

  19193 17 014430   000414 220003                    LDX0    268,DU
        17 014431   000003 440100                    SXL0    3,,PR0

      628    19195        %NEWRSW;
      629    19198        %SEARCH (RWD='LEADING',                RWNO=%RSV_WRD_LEADING);

  19202 17 014432   002731 054000 1                  AOS     NUMBER_OF_RESERVED_WORDS

  19203 17 014433   000007 235007                    LDA     7,DL
        17 014434   000010 755000 6                  STA     LEX_SYMBOL+8

  19204 17 014435   040000 100400                    MLR     fill='040'O
        17 014436   001202 000007 16                 ADSC9   642                      cn=0,n=7
        17 014437   000011 000504 6                  ADSC9   LEX_SYMBOL+9             cn=0,n=324

  19205 17 014440   000000 631400 18                 EPPR1   0
        17 014441   000000 701000 xent               TSX1    Z8AH$SEARCH_
        17 014442   000000 011000                    NOP     0

  19206 17 014443   000000 470400 2                  LDP0    DNT$
        17 014444   400000 236003                    LDQ     -131072,DU
        17 014445   000003 256100                    ORSQ    3,,PR0

  19207 17 014446   000001 236000 18                 LDQ     1
        17 014447   000003 356100                    ANSQ    3,,PR0

  19208 17 014450   000002 236000 18                 LDQ     2
        17 014451   000003 356100                    ANSQ    3,,PR0

  19209 17 014452   000003 236000 18                 LDQ     3
        17 014453   000003 356100                    ANSQ    3,,PR0

  19210 17 014454   000004 236000 18                 LDQ     4
        17 014455   000003 356100                    ANSQ    3,,PR0

PL6.E3A0      #001=COBOLRW File=COBOLRW.:Z8A6TSI                                 SAT 08/09/97 09:25 Page:320
  19211 17 014456   000415 220003                    LDX0    269,DU
        17 014457   000003 440100                    SXL0    3,,PR0

      630    19213        %NEWRSW;
      631    19216        %SEARCH (RWD='LEFT',                   RWNO=%RSV_WRD_LEFT);

  19220 17 014460   002731 054000 1                  AOS     NUMBER_OF_RESERVED_WORDS

  19221 17 014461   000004 235007                    LDA     4,DL
        17 014462   000010 755000 6                  STA     LEX_SYMBOL+8

  19222 17 014463   040000 100400                    MLR     fill='040'O
        17 014464   001204 000004 16                 ADSC9   644                      cn=0,n=4
        17 014465   000011 000504 6                  ADSC9   LEX_SYMBOL+9             cn=0,n=324

  19223 17 014466   000000 631400 18                 EPPR1   0
        17 014467   000000 701000 xent               TSX1    Z8AH$SEARCH_
        17 014470   000000 011000                    NOP     0

  19224 17 014471   000000 470400 2                  LDP0    DNT$
        17 014472   400000 236003                    LDQ     -131072,DU
        17 014473   000003 256100                    ORSQ    3,,PR0

  19225 17 014474   000001 236000 18                 LDQ     1
        17 014475   000003 356100                    ANSQ    3,,PR0

  19226 17 014476   000002 236000 18                 LDQ     2
        17 014477   000003 356100                    ANSQ    3,,PR0

  19227 17 014500   000003 236000 18                 LDQ     3
        17 014501   000003 356100                    ANSQ    3,,PR0

  19228 17 014502   000004 236000 18                 LDQ     4
        17 014503   000003 356100                    ANSQ    3,,PR0

  19229 17 014504   000416 220003                    LDX0    270,DU
        17 014505   000003 440100                    SXL0    3,,PR0
PL6.E3A0      #001=COBOLRW File=COBOLRW.:Z8A6TSI                                 SAT 08/09/97 09:25 Page:321

      632    19231        %NEWRSW;
      633    19234        %SEARCH (RWD='LENGTH',                 RWNO=%RSV_WRD_LENGTH);

  19238 17 014506   002731 054000 1                  AOS     NUMBER_OF_RESERVED_WORDS

  19239 17 014507   000006 235007                    LDA     6,DL
        17 014510   000010 755000 6                  STA     LEX_SYMBOL+8

  19240 17 014511   040000 100400                    MLR     fill='040'O
        17 014512   001205 000006 16                 ADSC9   645                      cn=0,n=6
        17 014513   000011 000504 6                  ADSC9   LEX_SYMBOL+9             cn=0,n=324

  19241 17 014514   000000 631400 18                 EPPR1   0
        17 014515   000000 701000 xent               TSX1    Z8AH$SEARCH_
        17 014516   000000 011000                    NOP     0

  19242 17 014517   000000 470400 2                  LDP0    DNT$
        17 014520   400000 236003                    LDQ     -131072,DU
        17 014521   000003 256100                    ORSQ    3,,PR0

  19243 17 014522   000001 236000 18                 LDQ     1
        17 014523   000003 356100                    ANSQ    3,,PR0

  19244 17 014524   000002 236000 18                 LDQ     2
        17 014525   000003 356100                    ANSQ    3,,PR0

  19245 17 014526   000003 236000 18                 LDQ     3
        17 014527   000003 356100                    ANSQ    3,,PR0

  19246 17 014530   000004 236000 18                 LDQ     4
        17 014531   000003 356100                    ANSQ    3,,PR0

  19247 17 014532   000417 220003                    LDX0    271,DU
        17 014533   000003 440100                    SXL0    3,,PR0

      634    19249        %NEWRSW;
PL6.E3A0      #001=COBOLRW File=COBOLRW.:Z8A6TSI                                 SAT 08/09/97 09:25 Page:322
      635    19252        %SEARCH (RWD='LESS',                   RWNO=%RSV_WRD_LESS);

  19256 17 014534   002731 054000 1                  AOS     NUMBER_OF_RESERVED_WORDS

  19257 17 014535   000004 235007                    LDA     4,DL
        17 014536   000010 755000 6                  STA     LEX_SYMBOL+8

  19258 17 014537   040000 100400                    MLR     fill='040'O
        17 014540   001207 000004 16                 ADSC9   647                      cn=0,n=4
        17 014541   000011 000504 6                  ADSC9   LEX_SYMBOL+9             cn=0,n=324

  19259 17 014542   000000 631400 18                 EPPR1   0
        17 014543   000000 701000 xent               TSX1    Z8AH$SEARCH_
        17 014544   000000 011000                    NOP     0

  19260 17 014545   000000 470400 2                  LDP0    DNT$
        17 014546   400000 236003                    LDQ     -131072,DU
        17 014547   000003 256100                    ORSQ    3,,PR0

  19261 17 014550   000001 236000 18                 LDQ     1
        17 014551   000003 356100                    ANSQ    3,,PR0

  19262 17 014552   000002 236000 18                 LDQ     2
        17 014553   000003 356100                    ANSQ    3,,PR0

  19263 17 014554   000003 236000 18                 LDQ     3
        17 014555   000003 356100                    ANSQ    3,,PR0

  19264 17 014556   000004 236000 18                 LDQ     4
        17 014557   000003 356100                    ANSQ    3,,PR0

  19265 17 014560   000420 220003                    LDX0    272,DU
        17 014561   000003 440100                    SXL0    3,,PR0

      636    19267        %NEWRSW;
      637    19270        %SEARCH (RWD='LEVEL-66-ASCII',         RWNO=%RSV_WRD_LEVEL_66_ASCII);

PL6.E3A0      #001=COBOLRW File=COBOLRW.:Z8A6TSI                                 SAT 08/09/97 09:25 Page:323
  19274 17 014562   002731 054000 1                  AOS     NUMBER_OF_RESERVED_WORDS

  19275 17 014563   000016 235007                    LDA     14,DL
        17 014564   000010 755000 6                  STA     LEX_SYMBOL+8

  19276 17 014565   040000 100400                    MLR     fill='040'O
        17 014566   001210 000016 16                 ADSC9   648                      cn=0,n=14
        17 014567   000011 000504 6                  ADSC9   LEX_SYMBOL+9             cn=0,n=324

  19277 17 014570   000000 631400 18                 EPPR1   0
        17 014571   000000 701000 xent               TSX1    Z8AH$SEARCH_
        17 014572   000000 011000                    NOP     0

  19278 17 014573   000000 470400 2                  LDP0    DNT$
        17 014574   400000 236003                    LDQ     -131072,DU
        17 014575   000003 256100                    ORSQ    3,,PR0

  19279 17 014576   000001 236000 18                 LDQ     1
        17 014577   000003 356100                    ANSQ    3,,PR0

  19280 17 014600   000002 236000 18                 LDQ     2
        17 014601   000003 356100                    ANSQ    3,,PR0

  19281 17 014602   000003 236000 18                 LDQ     3
        17 014603   000003 356100                    ANSQ    3,,PR0

  19282 17 014604   000004 236000 18                 LDQ     4
        17 014605   000003 356100                    ANSQ    3,,PR0

  19283 17 014606   000421 220003                    LDX0    273,DU
        17 014607   000003 440100                    SXL0    3,,PR0

      638    19285        %SEARCH (RWD='CP-6',                   RWNO=%RSV_WRD_LEVEL_66_ASCII);

  19289 17 014610   002731 054000 1                  AOS     NUMBER_OF_RESERVED_WORDS

  19290 17 014611   000004 235007                    LDA     4,DL
PL6.E3A0      #001=COBOLRW File=COBOLRW.:Z8A6TSI                                 SAT 08/09/97 09:25 Page:324
        17 014612   000010 755000 6                  STA     LEX_SYMBOL+8

  19291 17 014613   040000 100400                    MLR     fill='040'O
        17 014614   001214 000004 16                 ADSC9   652                      cn=0,n=4
        17 014615   000011 000504 6                  ADSC9   LEX_SYMBOL+9             cn=0,n=324

  19292 17 014616   000000 631400 18                 EPPR1   0
        17 014617   000000 701000 xent               TSX1    Z8AH$SEARCH_
        17 014620   000000 011000                    NOP     0

  19293 17 014621   000000 470400 2                  LDP0    DNT$
        17 014622   400000 236003                    LDQ     -131072,DU
        17 014623   000003 256100                    ORSQ    3,,PR0

  19294 17 014624   000001 236000 18                 LDQ     1
        17 014625   000003 356100                    ANSQ    3,,PR0

  19295 17 014626   000002 236000 18                 LDQ     2
        17 014627   000003 356100                    ANSQ    3,,PR0

  19296 17 014630   000003 236000 18                 LDQ     3
        17 014631   000003 356100                    ANSQ    3,,PR0

  19297 17 014632   000004 236000 18                 LDQ     4
        17 014633   000003 356100                    ANSQ    3,,PR0

  19298 17 014634   000421 220003                    LDX0    273,DU
        17 014635   000003 440100                    SXL0    3,,PR0

      639    19300        %SEARCH (RWD='DPS-8',                  RWNO=%RSV_WRD_LEVEL_66_ASCII);

  19304 17 014636   002731 054000 1                  AOS     NUMBER_OF_RESERVED_WORDS

  19305 17 014637   000005 235007                    LDA     5,DL
        17 014640   000010 755000 6                  STA     LEX_SYMBOL+8

  19306 17 014641   040000 100400                    MLR     fill='040'O
PL6.E3A0      #001=COBOLRW File=COBOLRW.:Z8A6TSI                                 SAT 08/09/97 09:25 Page:325
        17 014642   001215 000005 16                 ADSC9   653                      cn=0,n=5
        17 014643   000011 000504 6                  ADSC9   LEX_SYMBOL+9             cn=0,n=324

  19307 17 014644   000000 631400 18                 EPPR1   0
        17 014645   000000 701000 xent               TSX1    Z8AH$SEARCH_
        17 014646   000000 011000                    NOP     0

  19308 17 014647   000000 470400 2                  LDP0    DNT$
        17 014650   400000 236003                    LDQ     -131072,DU
        17 014651   000003 256100                    ORSQ    3,,PR0

  19309 17 014652   000001 236000 18                 LDQ     1
        17 014653   000003 356100                    ANSQ    3,,PR0

  19310 17 014654   000002 236000 18                 LDQ     2
        17 014655   000003 356100                    ANSQ    3,,PR0

  19311 17 014656   000003 236000 18                 LDQ     3
        17 014657   000003 356100                    ANSQ    3,,PR0

  19312 17 014660   000004 236000 18                 LDQ     4
        17 014661   000003 356100                    ANSQ    3,,PR0

  19313 17 014662   000421 220003                    LDX0    273,DU
        17 014663   000003 440100                    SXL0    3,,PR0

      640    19315        %SEARCH (RWD='LEVEL-6',                RWNO=%RSV_WRD_LEVEL_66_ASCII);

  19319 17 014664   002731 054000 1                  AOS     NUMBER_OF_RESERVED_WORDS

  19320 17 014665   000007 235007                    LDA     7,DL
        17 014666   000010 755000 6                  STA     LEX_SYMBOL+8

  19321 17 014667   040000 100400                    MLR     fill='040'O
        17 014670   001210 000007 16                 ADSC9   648                      cn=0,n=7
        17 014671   000011 000504 6                  ADSC9   LEX_SYMBOL+9             cn=0,n=324

PL6.E3A0      #001=COBOLRW File=COBOLRW.:Z8A6TSI                                 SAT 08/09/97 09:25 Page:326
  19322 17 014672   000000 631400 18                 EPPR1   0
        17 014673   000000 701000 xent               TSX1    Z8AH$SEARCH_
        17 014674   000000 011000                    NOP     0

  19323 17 014675   000000 470400 2                  LDP0    DNT$
        17 014676   400000 236003                    LDQ     -131072,DU
        17 014677   000003 256100                    ORSQ    3,,PR0

  19324 17 014700   000001 236000 18                 LDQ     1
        17 014701   000003 356100                    ANSQ    3,,PR0

  19325 17 014702   000002 236000 18                 LDQ     2
        17 014703   000003 356100                    ANSQ    3,,PR0

  19326 17 014704   000003 236000 18                 LDQ     3
        17 014705   000003 356100                    ANSQ    3,,PR0

  19327 17 014706   000004 236000 18                 LDQ     4
        17 014707   000003 356100                    ANSQ    3,,PR0

  19328 17 014710   000421 220003                    LDX0    273,DU
        17 014711   000003 440100                    SXL0    3,,PR0

      641    19330        %SEARCH (RWD='LEVEL-62',               RWNO=%RSV_WRD_LEVEL_66_ASCII);

  19334 17 014712   002731 054000 1                  AOS     NUMBER_OF_RESERVED_WORDS

  19335 17 014713   000010 235007                    LDA     8,DL
        17 014714   000010 755000 6                  STA     LEX_SYMBOL+8

  19336 17 014715   040000 100400                    MLR     fill='040'O
        17 014716   001217 000010 16                 ADSC9   655                      cn=0,n=8
        17 014717   000011 000504 6                  ADSC9   LEX_SYMBOL+9             cn=0,n=324

  19337 17 014720   000000 631400 18                 EPPR1   0
        17 014721   000000 701000 xent               TSX1    Z8AH$SEARCH_
        17 014722   000000 011000                    NOP     0
PL6.E3A0      #001=COBOLRW File=COBOLRW.:Z8A6TSI                                 SAT 08/09/97 09:25 Page:327

  19338 17 014723   000000 470400 2                  LDP0    DNT$
        17 014724   400000 236003                    LDQ     -131072,DU
        17 014725   000003 256100                    ORSQ    3,,PR0

  19339 17 014726   000001 236000 18                 LDQ     1
        17 014727   000003 356100                    ANSQ    3,,PR0

  19340 17 014730   000002 236000 18                 LDQ     2
        17 014731   000003 356100                    ANSQ    3,,PR0

  19341 17 014732   000003 236000 18                 LDQ     3
        17 014733   000003 356100                    ANSQ    3,,PR0

  19342 17 014734   000004 236000 18                 LDQ     4
        17 014735   000003 356100                    ANSQ    3,,PR0

  19343 17 014736   000421 220003                    LDX0    273,DU
        17 014737   000003 440100                    SXL0    3,,PR0

      642    19345        %SEARCH (RWD='LEVEL-64',               RWNO=%RSV_WRD_LEVEL_66_ASCII);

  19349 17 014740   002731 054000 1                  AOS     NUMBER_OF_RESERVED_WORDS

  19350 17 014741   000010 235007                    LDA     8,DL
        17 014742   000010 755000 6                  STA     LEX_SYMBOL+8

  19351 17 014743   040000 100400                    MLR     fill='040'O
        17 014744   001221 000010 16                 ADSC9   657                      cn=0,n=8
        17 014745   000011 000504 6                  ADSC9   LEX_SYMBOL+9             cn=0,n=324

  19352 17 014746   000000 631400 18                 EPPR1   0
        17 014747   000000 701000 xent               TSX1    Z8AH$SEARCH_
        17 014750   000000 011000                    NOP     0

  19353 17 014751   000000 470400 2                  LDP0    DNT$
        17 014752   400000 236003                    LDQ     -131072,DU
PL6.E3A0      #001=COBOLRW File=COBOLRW.:Z8A6TSI                                 SAT 08/09/97 09:25 Page:328
        17 014753   000003 256100                    ORSQ    3,,PR0

  19354 17 014754   000001 236000 18                 LDQ     1
        17 014755   000003 356100                    ANSQ    3,,PR0

  19355 17 014756   000002 236000 18                 LDQ     2
        17 014757   000003 356100                    ANSQ    3,,PR0

  19356 17 014760   000003 236000 18                 LDQ     3
        17 014761   000003 356100                    ANSQ    3,,PR0

  19357 17 014762   000004 236000 18                 LDQ     4
        17 014763   000003 356100                    ANSQ    3,,PR0

  19358 17 014764   000421 220003                    LDX0    273,DU
        17 014765   000003 440100                    SXL0    3,,PR0

      643    19360        %SEARCH (RWD='LEVEL-66',               RWNO=%RSV_WRD_LEVEL_66_ASCII);

  19364 17 014766   002731 054000 1                  AOS     NUMBER_OF_RESERVED_WORDS

  19365 17 014767   000010 235007                    LDA     8,DL
        17 014770   000010 755000 6                  STA     LEX_SYMBOL+8

  19366 17 014771   040000 100400                    MLR     fill='040'O
        17 014772   001210 000010 16                 ADSC9   648                      cn=0,n=8
        17 014773   000011 000504 6                  ADSC9   LEX_SYMBOL+9             cn=0,n=324

  19367 17 014774   000000 631400 18                 EPPR1   0
        17 014775   000000 701000 xent               TSX1    Z8AH$SEARCH_
        17 014776   000000 011000                    NOP     0

  19368 17 014777   000000 470400 2                  LDP0    DNT$
        17 015000   400000 236003                    LDQ     -131072,DU
        17 015001   000003 256100                    ORSQ    3,,PR0

  19369 17 015002   000001 236000 18                 LDQ     1
PL6.E3A0      #001=COBOLRW File=COBOLRW.:Z8A6TSI                                 SAT 08/09/97 09:25 Page:329
        17 015003   000003 356100                    ANSQ    3,,PR0

  19370 17 015004   000002 236000 18                 LDQ     2
        17 015005   000003 356100                    ANSQ    3,,PR0

  19371 17 015006   000003 236000 18                 LDQ     3
        17 015007   000003 356100                    ANSQ    3,,PR0

  19372 17 015010   000004 236000 18                 LDQ     4
        17 015011   000003 356100                    ANSQ    3,,PR0

  19373 17 015012   000421 220003                    LDX0    273,DU
        17 015013   000003 440100                    SXL0    3,,PR0

      644    19375        %SEARCH (RWD='LEVEL-66-EBCDIC',        RWNO=%RSV_WRD_LEVEL_66_ASCII);

  19379 17 015014   002731 054000 1                  AOS     NUMBER_OF_RESERVED_WORDS

  19380 17 015015   000017 235007                    LDA     15,DL
        17 015016   000010 755000 6                  STA     LEX_SYMBOL+8

  19381 17 015017   040000 100400                    MLR     fill='040'O
        17 015020   001223 000017 16                 ADSC9   659                      cn=0,n=15
        17 015021   000011 000504 6                  ADSC9   LEX_SYMBOL+9             cn=0,n=324

  19382 17 015022   000000 631400 18                 EPPR1   0
        17 015023   000000 701000 xent               TSX1    Z8AH$SEARCH_
        17 015024   000000 011000                    NOP     0

  19383 17 015025   000000 470400 2                  LDP0    DNT$
        17 015026   400000 236003                    LDQ     -131072,DU
        17 015027   000003 256100                    ORSQ    3,,PR0

  19384 17 015030   000001 236000 18                 LDQ     1
        17 015031   000003 356100                    ANSQ    3,,PR0

  19385 17 015032   000002 236000 18                 LDQ     2
PL6.E3A0      #001=COBOLRW File=COBOLRW.:Z8A6TSI                                 SAT 08/09/97 09:25 Page:330
        17 015033   000003 356100                    ANSQ    3,,PR0

  19386 17 015034   000003 236000 18                 LDQ     3
        17 015035   000003 356100                    ANSQ    3,,PR0

  19387 17 015036   000004 236000 18                 LDQ     4
        17 015037   000003 356100                    ANSQ    3,,PR0

  19388 17 015040   000421 220003                    LDX0    273,DU
        17 015041   000003 440100                    SXL0    3,,PR0

      645    19390        %SEARCH (RWD='LEVEL-68',               RWNO=%RSV_WRD_LEVEL_66_ASCII);

  19394 17 015042   002731 054000 1                  AOS     NUMBER_OF_RESERVED_WORDS

  19395 17 015043   000010 235007                    LDA     8,DL
        17 015044   000010 755000 6                  STA     LEX_SYMBOL+8

  19396 17 015045   040000 100400                    MLR     fill='040'O
        17 015046   001227 000010 16                 ADSC9   663                      cn=0,n=8
        17 015047   000011 000504 6                  ADSC9   LEX_SYMBOL+9             cn=0,n=324

  19397 17 015050   000000 631400 18                 EPPR1   0
        17 015051   000000 701000 xent               TSX1    Z8AH$SEARCH_
        17 015052   000000 011000                    NOP     0

  19398 17 015053   000000 470400 2                  LDP0    DNT$
        17 015054   400000 236003                    LDQ     -131072,DU
        17 015055   000003 256100                    ORSQ    3,,PR0

  19399 17 015056   000001 236000 18                 LDQ     1
        17 015057   000003 356100                    ANSQ    3,,PR0

  19400 17 015060   000002 236000 18                 LDQ     2
        17 015061   000003 356100                    ANSQ    3,,PR0

  19401 17 015062   000003 236000 18                 LDQ     3
PL6.E3A0      #001=COBOLRW File=COBOLRW.:Z8A6TSI                                 SAT 08/09/97 09:25 Page:331
        17 015063   000003 356100                    ANSQ    3,,PR0

  19402 17 015064   000004 236000 18                 LDQ     4
        17 015065   000003 356100                    ANSQ    3,,PR0

  19403 17 015066   000421 220003                    LDX0    273,DU
        17 015067   000003 440100                    SXL0    3,,PR0

      646    19405        %SEARCH (RWD='LEVEL-68-ASCII',         RWNO=%RSV_WRD_LEVEL_66_ASCII);

  19409 17 015070   002731 054000 1                  AOS     NUMBER_OF_RESERVED_WORDS

  19410 17 015071   000016 235007                    LDA     14,DL
        17 015072   000010 755000 6                  STA     LEX_SYMBOL+8

  19411 17 015073   040000 100400                    MLR     fill='040'O
        17 015074   001231 000016 16                 ADSC9   665                      cn=0,n=14
        17 015075   000011 000504 6                  ADSC9   LEX_SYMBOL+9             cn=0,n=324

  19412 17 015076   000000 631400 18                 EPPR1   0
        17 015077   000000 701000 xent               TSX1    Z8AH$SEARCH_
        17 015100   000000 011000                    NOP     0

  19413 17 015101   000000 470400 2                  LDP0    DNT$
        17 015102   400000 236003                    LDQ     -131072,DU
        17 015103   000003 256100                    ORSQ    3,,PR0

  19414 17 015104   000001 236000 18                 LDQ     1
        17 015105   000003 356100                    ANSQ    3,,PR0

  19415 17 015106   000002 236000 18                 LDQ     2
        17 015107   000003 356100                    ANSQ    3,,PR0

  19416 17 015110   000003 236000 18                 LDQ     3
        17 015111   000003 356100                    ANSQ    3,,PR0

  19417 17 015112   000004 236000 18                 LDQ     4
PL6.E3A0      #001=COBOLRW File=COBOLRW.:Z8A6TSI                                 SAT 08/09/97 09:25 Page:332
        17 015113   000003 356100                    ANSQ    3,,PR0

  19418 17 015114   000421 220003                    LDX0    273,DU
        17 015115   000003 440100                    SXL0    3,,PR0

      647    19420        %NEWRSW;
      648    19423        %SEARCH (RWD='LIMIT',                  RWNO=%RSV_WRD_LIMIT);

  19427 17 015116   002731 054000 1                  AOS     NUMBER_OF_RESERVED_WORDS

  19428 17 015117   000005 235007                    LDA     5,DL
        17 015120   000010 755000 6                  STA     LEX_SYMBOL+8

  19429 17 015121   040000 100400                    MLR     fill='040'O
        17 015122   001235 000005 16                 ADSC9   669                      cn=0,n=5
        17 015123   000011 000504 6                  ADSC9   LEX_SYMBOL+9             cn=0,n=324

  19430 17 015124   000000 631400 18                 EPPR1   0
        17 015125   000000 701000 xent               TSX1    Z8AH$SEARCH_
        17 015126   000000 011000                    NOP     0

  19431 17 015127   000000 470400 2                  LDP0    DNT$
        17 015130   400000 236003                    LDQ     -131072,DU
        17 015131   000003 256100                    ORSQ    3,,PR0

  19432 17 015132   000001 236000 18                 LDQ     1
        17 015133   000003 356100                    ANSQ    3,,PR0

  19433 17 015134   000002 236000 18                 LDQ     2
        17 015135   000003 356100                    ANSQ    3,,PR0

  19434 17 015136   000003 236000 18                 LDQ     3
        17 015137   000003 356100                    ANSQ    3,,PR0

  19435 17 015140   000004 236000 18                 LDQ     4
        17 015141   000003 356100                    ANSQ    3,,PR0

PL6.E3A0      #001=COBOLRW File=COBOLRW.:Z8A6TSI                                 SAT 08/09/97 09:25 Page:333
  19436 17 015142   000422 220003                    LDX0    274,DU
        17 015143   000003 440100                    SXL0    3,,PR0

      649    19438        %NEWRSW;
      650    19441        %SEARCH (RWD='LIMITS',                 RWNO=%RSV_WRD_LIMITS);

  19445 17 015144   002731 054000 1                  AOS     NUMBER_OF_RESERVED_WORDS

  19446 17 015145   000006 235007                    LDA     6,DL
        17 015146   000010 755000 6                  STA     LEX_SYMBOL+8

  19447 17 015147   040000 100400                    MLR     fill='040'O
        17 015150   001237 000006 16                 ADSC9   671                      cn=0,n=6
        17 015151   000011 000504 6                  ADSC9   LEX_SYMBOL+9             cn=0,n=324

  19448 17 015152   000000 631400 18                 EPPR1   0
        17 015153   000000 701000 xent               TSX1    Z8AH$SEARCH_
        17 015154   000000 011000                    NOP     0

  19449 17 015155   000000 470400 2                  LDP0    DNT$
        17 015156   400000 236003                    LDQ     -131072,DU
        17 015157   000003 256100                    ORSQ    3,,PR0

  19450 17 015160   000001 236000 18                 LDQ     1
        17 015161   000003 356100                    ANSQ    3,,PR0

  19451 17 015162   000002 236000 18                 LDQ     2
        17 015163   000003 356100                    ANSQ    3,,PR0

  19452 17 015164   000003 236000 18                 LDQ     3
        17 015165   000003 356100                    ANSQ    3,,PR0

  19453 17 015166   000004 236000 18                 LDQ     4
        17 015167   000003 356100                    ANSQ    3,,PR0

  19454 17 015170   000423 220003                    LDX0    275,DU
        17 015171   000003 440100                    SXL0    3,,PR0
PL6.E3A0      #001=COBOLRW File=COBOLRW.:Z8A6TSI                                 SAT 08/09/97 09:25 Page:334

      651    19456        %NEWRSW;
      652    19459        %SEARCH (RWD='LINAGE',                 RWNO=%RSV_WRD_LINAGE);

  19463 17 015172   002731 054000 1                  AOS     NUMBER_OF_RESERVED_WORDS

  19464 17 015173   000006 235007                    LDA     6,DL
        17 015174   000010 755000 6                  STA     LEX_SYMBOL+8

  19465 17 015175   040000 100400                    MLR     fill='040'O
        17 015176   001241 000006 16                 ADSC9   673                      cn=0,n=6
        17 015177   000011 000504 6                  ADSC9   LEX_SYMBOL+9             cn=0,n=324

  19466 17 015200   000000 631400 18                 EPPR1   0
        17 015201   000000 701000 xent               TSX1    Z8AH$SEARCH_
        17 015202   000000 011000                    NOP     0

  19467 17 015203   000000 470400 2                  LDP0    DNT$
        17 015204   400000 236003                    LDQ     -131072,DU
        17 015205   000003 256100                    ORSQ    3,,PR0

  19468 17 015206   000001 236000 18                 LDQ     1
        17 015207   000003 356100                    ANSQ    3,,PR0

  19469 17 015210   000002 236000 18                 LDQ     2
        17 015211   000003 356100                    ANSQ    3,,PR0

  19470 17 015212   000003 236000 18                 LDQ     3
        17 015213   000003 356100                    ANSQ    3,,PR0

  19471 17 015214   000004 236000 18                 LDQ     4
        17 015215   000003 356100                    ANSQ    3,,PR0

  19472 17 015216   000424 220003                    LDX0    276,DU
        17 015217   000003 440100                    SXL0    3,,PR0

      653    19474        %NEWRSW;
PL6.E3A0      #001=COBOLRW File=COBOLRW.:Z8A6TSI                                 SAT 08/09/97 09:25 Page:335
      654    19477        %SEARCH (RWD='LINE',                   RWNO=%RSV_WRD_LINE);

  19481 17 015220   002731 054000 1                  AOS     NUMBER_OF_RESERVED_WORDS

  19482 17 015221   000004 235007                    LDA     4,DL
        17 015222   000010 755000 6                  STA     LEX_SYMBOL+8

  19483 17 015223   040000 100400                    MLR     fill='040'O
        17 015224   001243 000004 16                 ADSC9   675                      cn=0,n=4
        17 015225   000011 000504 6                  ADSC9   LEX_SYMBOL+9             cn=0,n=324

  19484 17 015226   000000 631400 18                 EPPR1   0
        17 015227   000000 701000 xent               TSX1    Z8AH$SEARCH_
        17 015230   000000 011000                    NOP     0

  19485 17 015231   000000 470400 2                  LDP0    DNT$
        17 015232   400000 236003                    LDQ     -131072,DU
        17 015233   000003 256100                    ORSQ    3,,PR0

  19486 17 015234   000001 236000 18                 LDQ     1
        17 015235   000003 356100                    ANSQ    3,,PR0

  19487 17 015236   000002 236000 18                 LDQ     2
        17 015237   000003 356100                    ANSQ    3,,PR0

  19488 17 015240   000003 236000 18                 LDQ     3
        17 015241   000003 356100                    ANSQ    3,,PR0

  19489 17 015242   000004 236000 18                 LDQ     4
        17 015243   000003 356100                    ANSQ    3,,PR0

  19490 17 015244   000425 220003                    LDX0    277,DU
        17 015245   000003 440100                    SXL0    3,,PR0

      655    19492        %NEWRSW;
      656    19495        %SEARCH (RWD='LINES',                  RWNO=%RSV_WRD_LINES);

PL6.E3A0      #001=COBOLRW File=COBOLRW.:Z8A6TSI                                 SAT 08/09/97 09:25 Page:336
  19499 17 015246   002731 054000 1                  AOS     NUMBER_OF_RESERVED_WORDS

  19500 17 015247   000005 235007                    LDA     5,DL
        17 015250   000010 755000 6                  STA     LEX_SYMBOL+8

  19501 17 015251   040000 100400                    MLR     fill='040'O
        17 015252   001244 000005 16                 ADSC9   676                      cn=0,n=5
        17 015253   000011 000504 6                  ADSC9   LEX_SYMBOL+9             cn=0,n=324

  19502 17 015254   000000 631400 18                 EPPR1   0
        17 015255   000000 701000 xent               TSX1    Z8AH$SEARCH_
        17 015256   000000 011000                    NOP     0

  19503 17 015257   000000 470400 2                  LDP0    DNT$
        17 015260   400000 236003                    LDQ     -131072,DU
        17 015261   000003 256100                    ORSQ    3,,PR0

  19504 17 015262   000001 236000 18                 LDQ     1
        17 015263   000003 356100                    ANSQ    3,,PR0

  19505 17 015264   000002 236000 18                 LDQ     2
        17 015265   000003 356100                    ANSQ    3,,PR0

  19506 17 015266   000003 236000 18                 LDQ     3
        17 015267   000003 356100                    ANSQ    3,,PR0

  19507 17 015270   000004 236000 18                 LDQ     4
        17 015271   000003 356100                    ANSQ    3,,PR0

  19508 17 015272   000426 220003                    LDX0    278,DU
        17 015273   000003 440100                    SXL0    3,,PR0

      657    19510        %NEWRSW;
      658    19513        %SEARCH (RWD='LINKAGE',                RWNO=%RSV_WRD_LINKAGE, MUST_AREAA=TRUE);

  19517 17 015274   002731 054000 1                  AOS     NUMBER_OF_RESERVED_WORDS

PL6.E3A0      #001=COBOLRW File=COBOLRW.:Z8A6TSI                                 SAT 08/09/97 09:25 Page:337
  19518 17 015275   000007 235007                    LDA     7,DL
        17 015276   000010 755000 6                  STA     LEX_SYMBOL+8

  19519 17 015277   040000 100400                    MLR     fill='040'O
        17 015300   001246 000007 16                 ADSC9   678                      cn=0,n=7
        17 015301   000011 000504 6                  ADSC9   LEX_SYMBOL+9             cn=0,n=324

  19520 17 015302   000000 631400 18                 EPPR1   0
        17 015303   000000 701000 xent               TSX1    Z8AH$SEARCH_
        17 015304   000000 011000                    NOP     0

  19521 17 015305   000000 470400 2                  LDP0    DNT$
        17 015306   400000 236003                    LDQ     -131072,DU
        17 015307   000003 256100                    ORSQ    3,,PR0

  19522 17 015310   000001 236000 18                 LDQ     1
        17 015311   000003 356100                    ANSQ    3,,PR0

  19523 17 015312   000002 236000 18                 LDQ     2
        17 015313   000003 356100                    ANSQ    3,,PR0

  19524 17 015314   000040 236003                    LDQ     32,DU
        17 015315   000003 256100                    ORSQ    3,,PR0

  19525 17 015316   000004 236000 18                 LDQ     4
        17 015317   000003 356100                    ANSQ    3,,PR0

  19526 17 015320   000427 220003                    LDX0    279,DU
        17 015321   000003 440100                    SXL0    3,,PR0

      659    19528        %NEWRSW;
      660    19531        %SEARCH (RWD='LOAD',                   RWNO=%RSV_WRD_LOAD);

  19535 17 015322   002731 054000 1                  AOS     NUMBER_OF_RESERVED_WORDS

  19536 17 015323   000004 235007                    LDA     4,DL
        17 015324   000010 755000 6                  STA     LEX_SYMBOL+8
PL6.E3A0      #001=COBOLRW File=COBOLRW.:Z8A6TSI                                 SAT 08/09/97 09:25 Page:338

  19537 17 015325   040000 100400                    MLR     fill='040'O
        17 015326   001250 000004 16                 ADSC9   680                      cn=0,n=4
        17 015327   000011 000504 6                  ADSC9   LEX_SYMBOL+9             cn=0,n=324

  19538 17 015330   000000 631400 18                 EPPR1   0
        17 015331   000000 701000 xent               TSX1    Z8AH$SEARCH_
        17 015332   000000 011000                    NOP     0

  19539 17 015333   000000 470400 2                  LDP0    DNT$
        17 015334   400000 236003                    LDQ     -131072,DU
        17 015335   000003 256100                    ORSQ    3,,PR0

  19540 17 015336   000001 236000 18                 LDQ     1
        17 015337   000003 356100                    ANSQ    3,,PR0

  19541 17 015340   000002 236000 18                 LDQ     2
        17 015341   000003 356100                    ANSQ    3,,PR0

  19542 17 015342   000003 236000 18                 LDQ     3
        17 015343   000003 356100                    ANSQ    3,,PR0

  19543 17 015344   000004 236000 18                 LDQ     4
        17 015345   000003 356100                    ANSQ    3,,PR0

  19544 17 015346   000430 220003                    LDX0    280,DU
        17 015347   000003 440100                    SXL0    3,,PR0

      661    19546        %NEWRSW;
      662    19549        %SEARCH (RWD='LOCALLY',                RWNO=%RSV_WRD_LOCALLY);

  19553 17 015350   002731 054000 1                  AOS     NUMBER_OF_RESERVED_WORDS

  19554 17 015351   000007 235007                    LDA     7,DL
        17 015352   000010 755000 6                  STA     LEX_SYMBOL+8

  19555 17 015353   040000 100400                    MLR     fill='040'O
PL6.E3A0      #001=COBOLRW File=COBOLRW.:Z8A6TSI                                 SAT 08/09/97 09:25 Page:339
        17 015354   001251 000007 16                 ADSC9   681                      cn=0,n=7
        17 015355   000011 000504 6                  ADSC9   LEX_SYMBOL+9             cn=0,n=324

  19556 17 015356   000000 631400 18                 EPPR1   0
        17 015357   000000 701000 xent               TSX1    Z8AH$SEARCH_
        17 015360   000000 011000                    NOP     0

  19557 17 015361   000000 470400 2                  LDP0    DNT$
        17 015362   400000 236003                    LDQ     -131072,DU
        17 015363   000003 256100                    ORSQ    3,,PR0

  19558 17 015364   000001 236000 18                 LDQ     1
        17 015365   000003 356100                    ANSQ    3,,PR0

  19559 17 015366   000002 236000 18                 LDQ     2
        17 015367   000003 356100                    ANSQ    3,,PR0

  19560 17 015370   000003 236000 18                 LDQ     3
        17 015371   000003 356100                    ANSQ    3,,PR0

  19561 17 015372   000004 236000 18                 LDQ     4
        17 015373   000003 356100                    ANSQ    3,,PR0

  19562 17 015374   000431 220003                    LDX0    281,DU
        17 015375   000003 440100                    SXL0    3,,PR0

      663    19564        %NEWRSW;
      664    19567        %SEARCH (RWD='LOCK',                   RWNO=%RSV_WRD_LOCK);

  19571 17 015376   002731 054000 1                  AOS     NUMBER_OF_RESERVED_WORDS

  19572 17 015377   000004 235007                    LDA     4,DL
        17 015400   000010 755000 6                  STA     LEX_SYMBOL+8

  19573 17 015401   040000 100400                    MLR     fill='040'O
        17 015402   001253 000004 16                 ADSC9   683                      cn=0,n=4
        17 015403   000011 000504 6                  ADSC9   LEX_SYMBOL+9             cn=0,n=324
PL6.E3A0      #001=COBOLRW File=COBOLRW.:Z8A6TSI                                 SAT 08/09/97 09:25 Page:340

  19574 17 015404   000000 631400 18                 EPPR1   0
        17 015405   000000 701000 xent               TSX1    Z8AH$SEARCH_
        17 015406   000000 011000                    NOP     0

  19575 17 015407   000000 470400 2                  LDP0    DNT$
        17 015410   400000 236003                    LDQ     -131072,DU
        17 015411   000003 256100                    ORSQ    3,,PR0

  19576 17 015412   000001 236000 18                 LDQ     1
        17 015413   000003 356100                    ANSQ    3,,PR0

  19577 17 015414   000002 236000 18                 LDQ     2
        17 015415   000003 356100                    ANSQ    3,,PR0

  19578 17 015416   000003 236000 18                 LDQ     3
        17 015417   000003 356100                    ANSQ    3,,PR0

  19579 17 015420   000004 236000 18                 LDQ     4
        17 015421   000003 356100                    ANSQ    3,,PR0

  19580 17 015422   000432 220003                    LDX0    282,DU
        17 015423   000003 440100                    SXL0    3,,PR0

      665    19582        %NEWRSW;
      666    19585        %SEARCH (RWD='LOW-VALUES',            RWNO=%RSV_WRD_LOW_VALUES, FIG_CONSTANT=TRUE);

  19589 17 015424   002731 054000 1                  AOS     NUMBER_OF_RESERVED_WORDS

  19590 17 015425   000012 235007                    LDA     10,DL
        17 015426   000010 755000 6                  STA     LEX_SYMBOL+8

  19591 17 015427   040000 100400                    MLR     fill='040'O
        17 015430   001254 000012 16                 ADSC9   684                      cn=0,n=10
        17 015431   000011 000504 6                  ADSC9   LEX_SYMBOL+9             cn=0,n=324

  19592 17 015432   000000 631400 18                 EPPR1   0
PL6.E3A0      #001=COBOLRW File=COBOLRW.:Z8A6TSI                                 SAT 08/09/97 09:25 Page:341
        17 015433   000000 701000 xent               TSX1    Z8AH$SEARCH_
        17 015434   000000 011000                    NOP     0

  19593 17 015435   000000 470400 2                  LDP0    DNT$
        17 015436   400000 236003                    LDQ     -131072,DU
        17 015437   000003 256100                    ORSQ    3,,PR0

  19594 17 015440   000001 236000 18                 LDQ     1
        17 015441   000003 356100                    ANSQ    3,,PR0

  19595 17 015442   000002 236000 18                 LDQ     2
        17 015443   000003 356100                    ANSQ    3,,PR0

  19596 17 015444   000003 236000 18                 LDQ     3
        17 015445   000003 356100                    ANSQ    3,,PR0

  19597 17 015446   002000 236003                    LDQ     1024,DU
        17 015447   000003 256100                    ORSQ    3,,PR0

  19598 17 015450   000433 220003                    LDX0    283,DU
        17 015451   000003 440100                    SXL0    3,,PR0

      667    19600        %SEARCH (RWD='LOW-VALUE',             RWNO=%RSV_WRD_LOW_VALUES, FIG_CONSTANT=TRUE);

  19604 17 015452   002731 054000 1                  AOS     NUMBER_OF_RESERVED_WORDS

  19605 17 015453   000011 235007                    LDA     9,DL
        17 015454   000010 755000 6                  STA     LEX_SYMBOL+8

  19606 17 015455   040000 100400                    MLR     fill='040'O
        17 015456   001254 000011 16                 ADSC9   684                      cn=0,n=9
        17 015457   000011 000504 6                  ADSC9   LEX_SYMBOL+9             cn=0,n=324

  19607 17 015460   000000 631400 18                 EPPR1   0
        17 015461   000000 701000 xent               TSX1    Z8AH$SEARCH_
        17 015462   000000 011000                    NOP     0

PL6.E3A0      #001=COBOLRW File=COBOLRW.:Z8A6TSI                                 SAT 08/09/97 09:25 Page:342
  19608 17 015463   000000 470400 2                  LDP0    DNT$
        17 015464   400000 236003                    LDQ     -131072,DU
        17 015465   000003 256100                    ORSQ    3,,PR0

  19609 17 015466   000001 236000 18                 LDQ     1
        17 015467   000003 356100                    ANSQ    3,,PR0

  19610 17 015470   000002 236000 18                 LDQ     2
        17 015471   000003 356100                    ANSQ    3,,PR0

  19611 17 015472   000003 236000 18                 LDQ     3
        17 015473   000003 356100                    ANSQ    3,,PR0

  19612 17 015474   002000 236003                    LDQ     1024,DU
        17 015475   000003 256100                    ORSQ    3,,PR0

  19613 17 015476   000433 220003                    LDX0    283,DU
        17 015477   000003 440100                    SXL0    3,,PR0

      668    19615        %NEWRSW;
      669    19618        %SEARCH (RWD='MAXIMUM',                RWNO=%RSV_WRD_MAXIMUM);

  19622 17 015500   002731 054000 1                  AOS     NUMBER_OF_RESERVED_WORDS

  19623 17 015501   000007 235007                    LDA     7,DL
        17 015502   000010 755000 6                  STA     LEX_SYMBOL+8

  19624 17 015503   040000 100400                    MLR     fill='040'O
        17 015504   001257 000007 16                 ADSC9   687                      cn=0,n=7
        17 015505   000011 000504 6                  ADSC9   LEX_SYMBOL+9             cn=0,n=324

  19625 17 015506   000000 631400 18                 EPPR1   0
        17 015507   000000 701000 xent               TSX1    Z8AH$SEARCH_
        17 015510   000000 011000                    NOP     0

  19626 17 015511   000000 470400 2                  LDP0    DNT$
        17 015512   400000 236003                    LDQ     -131072,DU
PL6.E3A0      #001=COBOLRW File=COBOLRW.:Z8A6TSI                                 SAT 08/09/97 09:25 Page:343
        17 015513   000003 256100                    ORSQ    3,,PR0

  19627 17 015514   000001 236000 18                 LDQ     1
        17 015515   000003 356100                    ANSQ    3,,PR0

  19628 17 015516   000002 236000 18                 LDQ     2
        17 015517   000003 356100                    ANSQ    3,,PR0

  19629 17 015520   000003 236000 18                 LDQ     3
        17 015521   000003 356100                    ANSQ    3,,PR0

  19630 17 015522   000004 236000 18                 LDQ     4
        17 015523   000003 356100                    ANSQ    3,,PR0

  19631 17 015524   000434 220003                    LDX0    284,DU
        17 015525   000003 440100                    SXL0    3,,PR0

      670    19633        %NEWRSW;
      671    19636        %SEARCH (RWD='MEMBER',                 RWNO=%RSV_WRD_MEMBER);

  19640 17 015526   002731 054000 1                  AOS     NUMBER_OF_RESERVED_WORDS

  19641 17 015527   000006 235007                    LDA     6,DL
        17 015530   000010 755000 6                  STA     LEX_SYMBOL+8

  19642 17 015531   040000 100400                    MLR     fill='040'O
        17 015532   001261 000006 16                 ADSC9   689                      cn=0,n=6
        17 015533   000011 000504 6                  ADSC9   LEX_SYMBOL+9             cn=0,n=324

  19643 17 015534   000000 631400 18                 EPPR1   0
        17 015535   000000 701000 xent               TSX1    Z8AH$SEARCH_
        17 015536   000000 011000                    NOP     0

  19644 17 015537   000000 470400 2                  LDP0    DNT$
        17 015540   400000 236003                    LDQ     -131072,DU
        17 015541   000003 256100                    ORSQ    3,,PR0

PL6.E3A0      #001=COBOLRW File=COBOLRW.:Z8A6TSI                                 SAT 08/09/97 09:25 Page:344
  19645 17 015542   000001 236000 18                 LDQ     1
        17 015543   000003 356100                    ANSQ    3,,PR0

  19646 17 015544   000002 236000 18                 LDQ     2
        17 015545   000003 356100                    ANSQ    3,,PR0

  19647 17 015546   000003 236000 18                 LDQ     3
        17 015547   000003 356100                    ANSQ    3,,PR0

  19648 17 015550   000004 236000 18                 LDQ     4
        17 015551   000003 356100                    ANSQ    3,,PR0

  19649 17 015552   000435 220003                    LDX0    285,DU
        17 015553   000003 440100                    SXL0    3,,PR0

      672    19651        %NEWRSW;
      673    19654        %SEARCH (RWD='MEMBERS',                RWNO=%RSV_WRD_MEMBERS);

  19658 17 015554   002731 054000 1                  AOS     NUMBER_OF_RESERVED_WORDS

  19659 17 015555   000007 235007                    LDA     7,DL
        17 015556   000010 755000 6                  STA     LEX_SYMBOL+8

  19660 17 015557   040000 100400                    MLR     fill='040'O
        17 015560   001263 000007 16                 ADSC9   691                      cn=0,n=7
        17 015561   000011 000504 6                  ADSC9   LEX_SYMBOL+9             cn=0,n=324

  19661 17 015562   000000 631400 18                 EPPR1   0
        17 015563   000000 701000 xent               TSX1    Z8AH$SEARCH_
        17 015564   000000 011000                    NOP     0

  19662 17 015565   000000 470400 2                  LDP0    DNT$
        17 015566   400000 236003                    LDQ     -131072,DU
        17 015567   000003 256100                    ORSQ    3,,PR0

  19663 17 015570   000001 236000 18                 LDQ     1
        17 015571   000003 356100                    ANSQ    3,,PR0
PL6.E3A0      #001=COBOLRW File=COBOLRW.:Z8A6TSI                                 SAT 08/09/97 09:25 Page:345

  19664 17 015572   000002 236000 18                 LDQ     2
        17 015573   000003 356100                    ANSQ    3,,PR0

  19665 17 015574   000003 236000 18                 LDQ     3
        17 015575   000003 356100                    ANSQ    3,,PR0

  19666 17 015576   000004 236000 18                 LDQ     4
        17 015577   000003 356100                    ANSQ    3,,PR0

  19667 17 015600   000436 220003                    LDX0    286,DU
        17 015601   000003 440100                    SXL0    3,,PR0

      674    19669        %NEWRSW;
      675    19672        %SEARCH (RWD='MEMBERSHIP',             RWNO=%RSV_WRD_MEMBERSHIP);

  19676 17 015602   002731 054000 1                  AOS     NUMBER_OF_RESERVED_WORDS

  19677 17 015603   000012 235007                    LDA     10,DL
        17 015604   000010 755000 6                  STA     LEX_SYMBOL+8

  19678 17 015605   040000 100400                    MLR     fill='040'O
        17 015606   001265 000012 16                 ADSC9   693                      cn=0,n=10
        17 015607   000011 000504 6                  ADSC9   LEX_SYMBOL+9             cn=0,n=324

  19679 17 015610   000000 631400 18                 EPPR1   0
        17 015611   000000 701000 xent               TSX1    Z8AH$SEARCH_
        17 015612   000000 011000                    NOP     0

  19680 17 015613   000000 470400 2                  LDP0    DNT$
        17 015614   400000 236003                    LDQ     -131072,DU
        17 015615   000003 256100                    ORSQ    3,,PR0

  19681 17 015616   000001 236000 18                 LDQ     1
        17 015617   000003 356100                    ANSQ    3,,PR0

  19682 17 015620   000002 236000 18                 LDQ     2
PL6.E3A0      #001=COBOLRW File=COBOLRW.:Z8A6TSI                                 SAT 08/09/97 09:25 Page:346
        17 015621   000003 356100                    ANSQ    3,,PR0

  19683 17 015622   000003 236000 18                 LDQ     3
        17 015623   000003 356100                    ANSQ    3,,PR0

  19684 17 015624   000004 236000 18                 LDQ     4
        17 015625   000003 356100                    ANSQ    3,,PR0

  19685 17 015626   000437 220003                    LDX0    287,DU
        17 015627   000003 440100                    SXL0    3,,PR0

      676    19687        %NEWRSW;
      677    19690        %SEARCH (RWD='MEMORY',                 RWNO=%RSV_WRD_MEMORY);

  19694 17 015630   002731 054000 1                  AOS     NUMBER_OF_RESERVED_WORDS

  19695 17 015631   000006 235007                    LDA     6,DL
        17 015632   000010 755000 6                  STA     LEX_SYMBOL+8

  19696 17 015633   040000 100400                    MLR     fill='040'O
        17 015634   001270 000006 16                 ADSC9   696                      cn=0,n=6
        17 015635   000011 000504 6                  ADSC9   LEX_SYMBOL+9             cn=0,n=324

  19697 17 015636   000000 631400 18                 EPPR1   0
        17 015637   000000 701000 xent               TSX1    Z8AH$SEARCH_
        17 015640   000000 011000                    NOP     0

  19698 17 015641   000000 470400 2                  LDP0    DNT$
        17 015642   400000 236003                    LDQ     -131072,DU
        17 015643   000003 256100                    ORSQ    3,,PR0

  19699 17 015644   000001 236000 18                 LDQ     1
        17 015645   000003 356100                    ANSQ    3,,PR0

  19700 17 015646   000002 236000 18                 LDQ     2
        17 015647   000003 356100                    ANSQ    3,,PR0

PL6.E3A0      #001=COBOLRW File=COBOLRW.:Z8A6TSI                                 SAT 08/09/97 09:25 Page:347
  19701 17 015650   000003 236000 18                 LDQ     3
        17 015651   000003 356100                    ANSQ    3,,PR0

  19702 17 015652   000004 236000 18                 LDQ     4
        17 015653   000003 356100                    ANSQ    3,,PR0

  19703 17 015654   000440 220003                    LDX0    288,DU
        17 015655   000003 440100                    SXL0    3,,PR0

      678    19705        %NEWRSW;
      679    19708        %SEARCH (RWD='MERGE',                  RWNO=%RSV_WRD_MERGE);

  19712 17 015656   002731 054000 1                  AOS     NUMBER_OF_RESERVED_WORDS

  19713 17 015657   000005 235007                    LDA     5,DL
        17 015660   000010 755000 6                  STA     LEX_SYMBOL+8

  19714 17 015661   040000 100400                    MLR     fill='040'O
        17 015662   001272 000005 16                 ADSC9   698                      cn=0,n=5
        17 015663   000011 000504 6                  ADSC9   LEX_SYMBOL+9             cn=0,n=324

  19715 17 015664   000000 631400 18                 EPPR1   0
        17 015665   000000 701000 xent               TSX1    Z8AH$SEARCH_
        17 015666   000000 011000                    NOP     0

  19716 17 015667   000000 470400 2                  LDP0    DNT$
        17 015670   400000 236003                    LDQ     -131072,DU
        17 015671   000003 256100                    ORSQ    3,,PR0

  19717 17 015672   000001 236000 18                 LDQ     1
        17 015673   000003 356100                    ANSQ    3,,PR0

  19718 17 015674   000002 236000 18                 LDQ     2
        17 015675   000003 356100                    ANSQ    3,,PR0

  19719 17 015676   000003 236000 18                 LDQ     3
        17 015677   000003 356100                    ANSQ    3,,PR0
PL6.E3A0      #001=COBOLRW File=COBOLRW.:Z8A6TSI                                 SAT 08/09/97 09:25 Page:348

  19720 17 015700   000004 236000 18                 LDQ     4
        17 015701   000003 356100                    ANSQ    3,,PR0

  19721 17 015702   000441 220003                    LDX0    289,DU
        17 015703   000003 440100                    SXL0    3,,PR0

      680    19723        %NEWRSW;
      681    19726        %SEARCH (RWD='MESSAGE',                RWNO=%RSV_WRD_MESSAGE);

  19730 17 015704   002731 054000 1                  AOS     NUMBER_OF_RESERVED_WORDS

  19731 17 015705   000007 235007                    LDA     7,DL
        17 015706   000010 755000 6                  STA     LEX_SYMBOL+8

  19732 17 015707   040000 100400                    MLR     fill='040'O
        17 015710   001274 000007 16                 ADSC9   700                      cn=0,n=7
        17 015711   000011 000504 6                  ADSC9   LEX_SYMBOL+9             cn=0,n=324

  19733 17 015712   000000 631400 18                 EPPR1   0
        17 015713   000000 701000 xent               TSX1    Z8AH$SEARCH_
        17 015714   000000 011000                    NOP     0

  19734 17 015715   000000 470400 2                  LDP0    DNT$
        17 015716   400000 236003                    LDQ     -131072,DU
        17 015717   000003 256100                    ORSQ    3,,PR0

  19735 17 015720   000001 236000 18                 LDQ     1
        17 015721   000003 356100                    ANSQ    3,,PR0

  19736 17 015722   000002 236000 18                 LDQ     2
        17 015723   000003 356100                    ANSQ    3,,PR0

  19737 17 015724   000003 236000 18                 LDQ     3
        17 015725   000003 356100                    ANSQ    3,,PR0

  19738 17 015726   000004 236000 18                 LDQ     4
PL6.E3A0      #001=COBOLRW File=COBOLRW.:Z8A6TSI                                 SAT 08/09/97 09:25 Page:349
        17 015727   000003 356100                    ANSQ    3,,PR0

  19739 17 015730   000442 220003                    LDX0    290,DU
        17 015731   000003 440100                    SXL0    3,,PR0

      682    19741        %NEWRSW;
      683    19744        %SEARCH (RWD='MODE',                   RWNO=%RSV_WRD_MODE);

  19748 17 015732   002731 054000 1                  AOS     NUMBER_OF_RESERVED_WORDS

  19749 17 015733   000004 235007                    LDA     4,DL
        17 015734   000010 755000 6                  STA     LEX_SYMBOL+8

  19750 17 015735   040000 100400                    MLR     fill='040'O
        17 015736   001276 000004 16                 ADSC9   702                      cn=0,n=4
        17 015737   000011 000504 6                  ADSC9   LEX_SYMBOL+9             cn=0,n=324

  19751 17 015740   000000 631400 18                 EPPR1   0
        17 015741   000000 701000 xent               TSX1    Z8AH$SEARCH_
        17 015742   000000 011000                    NOP     0

  19752 17 015743   000000 470400 2                  LDP0    DNT$
        17 015744   400000 236003                    LDQ     -131072,DU
        17 015745   000003 256100                    ORSQ    3,,PR0

  19753 17 015746   000001 236000 18                 LDQ     1
        17 015747   000003 356100                    ANSQ    3,,PR0

  19754 17 015750   000002 236000 18                 LDQ     2
        17 015751   000003 356100                    ANSQ    3,,PR0

  19755 17 015752   000003 236000 18                 LDQ     3
        17 015753   000003 356100                    ANSQ    3,,PR0

  19756 17 015754   000004 236000 18                 LDQ     4
        17 015755   000003 356100                    ANSQ    3,,PR0

PL6.E3A0      #001=COBOLRW File=COBOLRW.:Z8A6TSI                                 SAT 08/09/97 09:25 Page:350
  19757 17 015756   000443 220003                    LDX0    291,DU
        17 015757   000003 440100                    SXL0    3,,PR0

      684    19759        %NEWRSW;
      685    19762        %SEARCH (RWD='MODIFICATION',           RWNO=%RSV_WRD_MODIFICATION);

  19766 17 015760   002731 054000 1                  AOS     NUMBER_OF_RESERVED_WORDS

  19767 17 015761   000014 235007                    LDA     12,DL
        17 015762   000010 755000 6                  STA     LEX_SYMBOL+8

  19768 17 015763   040000 100400                    MLR     fill='040'O
        17 015764   001277 000014 16                 ADSC9   703                      cn=0,n=12
        17 015765   000011 000504 6                  ADSC9   LEX_SYMBOL+9             cn=0,n=324

  19769 17 015766   000000 631400 18                 EPPR1   0
        17 015767   000000 701000 xent               TSX1    Z8AH$SEARCH_
        17 015770   000000 011000                    NOP     0

  19770 17 015771   000000 470400 2                  LDP0    DNT$
        17 015772   400000 236003                    LDQ     -131072,DU
        17 015773   000003 256100                    ORSQ    3,,PR0

  19771 17 015774   000001 236000 18                 LDQ     1
        17 015775   000003 356100                    ANSQ    3,,PR0

  19772 17 015776   000002 236000 18                 LDQ     2
        17 015777   000003 356100                    ANSQ    3,,PR0

  19773 17 016000   000003 236000 18                 LDQ     3
        17 016001   000003 356100                    ANSQ    3,,PR0

  19774 17 016002   000004 236000 18                 LDQ     4
        17 016003   000003 356100                    ANSQ    3,,PR0

  19775 17 016004   000444 220003                    LDX0    292,DU
        17 016005   000003 440100                    SXL0    3,,PR0
PL6.E3A0      #001=COBOLRW File=COBOLRW.:Z8A6TSI                                 SAT 08/09/97 09:25 Page:351

      686    19777        %NEWRSW;
      687    19780        %SEARCH (RWD='MODIFY',                 RWNO=%RSV_WRD_MODIFY);

  19784 17 016006   002731 054000 1                  AOS     NUMBER_OF_RESERVED_WORDS

  19785 17 016007   000006 235007                    LDA     6,DL
        17 016010   000010 755000 6                  STA     LEX_SYMBOL+8

  19786 17 016011   040000 100400                    MLR     fill='040'O
        17 016012   001302 000006 16                 ADSC9   706                      cn=0,n=6
        17 016013   000011 000504 6                  ADSC9   LEX_SYMBOL+9             cn=0,n=324

  19787 17 016014   000000 631400 18                 EPPR1   0
        17 016015   000000 701000 xent               TSX1    Z8AH$SEARCH_
        17 016016   000000 011000                    NOP     0

  19788 17 016017   000000 470400 2                  LDP0    DNT$
        17 016020   400000 236003                    LDQ     -131072,DU
        17 016021   000003 256100                    ORSQ    3,,PR0

  19789 17 016022   000001 236000 18                 LDQ     1
        17 016023   000003 356100                    ANSQ    3,,PR0

  19790 17 016024   000002 236000 18                 LDQ     2
        17 016025   000003 356100                    ANSQ    3,,PR0

  19791 17 016026   000003 236000 18                 LDQ     3
        17 016027   000003 356100                    ANSQ    3,,PR0

  19792 17 016030   000004 236000 18                 LDQ     4
        17 016031   000003 356100                    ANSQ    3,,PR0

  19793 17 016032   000445 220003                    LDX0    293,DU
        17 016033   000003 440100                    SXL0    3,,PR0

      688    19795        %NEWRSW;
PL6.E3A0      #001=COBOLRW File=COBOLRW.:Z8A6TSI                                 SAT 08/09/97 09:25 Page:352
      689    19798        %SEARCH (RWD='MODULES',                RWNO=%RSV_WRD_MODULES);

  19802 17 016034   002731 054000 1                  AOS     NUMBER_OF_RESERVED_WORDS

  19803 17 016035   000007 235007                    LDA     7,DL
        17 016036   000010 755000 6                  STA     LEX_SYMBOL+8

  19804 17 016037   040000 100400                    MLR     fill='040'O
        17 016040   001304 000007 16                 ADSC9   708                      cn=0,n=7
        17 016041   000011 000504 6                  ADSC9   LEX_SYMBOL+9             cn=0,n=324

  19805 17 016042   000000 631400 18                 EPPR1   0
        17 016043   000000 701000 xent               TSX1    Z8AH$SEARCH_
        17 016044   000000 011000                    NOP     0

  19806 17 016045   000000 470400 2                  LDP0    DNT$
        17 016046   400000 236003                    LDQ     -131072,DU
        17 016047   000003 256100                    ORSQ    3,,PR0

  19807 17 016050   000001 236000 18                 LDQ     1
        17 016051   000003 356100                    ANSQ    3,,PR0

  19808 17 016052   000002 236000 18                 LDQ     2
        17 016053   000003 356100                    ANSQ    3,,PR0

  19809 17 016054   000003 236000 18                 LDQ     3
        17 016055   000003 356100                    ANSQ    3,,PR0

  19810 17 016056   000004 236000 18                 LDQ     4
        17 016057   000003 356100                    ANSQ    3,,PR0

  19811 17 016060   000446 220003                    LDX0    294,DU
        17 016061   000003 440100                    SXL0    3,,PR0

      690    19813        %NEWRSW;
      691    19816        %SEARCH (RWD='MOVE',                   RWNO=%RSV_WRD_MOVE);

PL6.E3A0      #001=COBOLRW File=COBOLRW.:Z8A6TSI                                 SAT 08/09/97 09:25 Page:353
  19820 17 016062   002731 054000 1                  AOS     NUMBER_OF_RESERVED_WORDS

  19821 17 016063   000004 235007                    LDA     4,DL
        17 016064   000010 755000 6                  STA     LEX_SYMBOL+8

  19822 17 016065   040000 100400                    MLR     fill='040'O
        17 016066   001306 000004 16                 ADSC9   710                      cn=0,n=4
        17 016067   000011 000504 6                  ADSC9   LEX_SYMBOL+9             cn=0,n=324

  19823 17 016070   000000 631400 18                 EPPR1   0
        17 016071   000000 701000 xent               TSX1    Z8AH$SEARCH_
        17 016072   000000 011000                    NOP     0

  19824 17 016073   000000 470400 2                  LDP0    DNT$
        17 016074   400000 236003                    LDQ     -131072,DU
        17 016075   000003 256100                    ORSQ    3,,PR0

  19825 17 016076   000001 236000 18                 LDQ     1
        17 016077   000003 356100                    ANSQ    3,,PR0

  19826 17 016100   000002 236000 18                 LDQ     2
        17 016101   000003 356100                    ANSQ    3,,PR0

  19827 17 016102   000003 236000 18                 LDQ     3
        17 016103   000003 356100                    ANSQ    3,,PR0

  19828 17 016104   000004 236000 18                 LDQ     4
        17 016105   000003 356100                    ANSQ    3,,PR0

  19829 17 016106   000447 220003                    LDX0    295,DU
        17 016107   000003 440100                    SXL0    3,,PR0

      692    19831        %NEWRSW;
      693    19834        %SEARCH (RWD='MULTICS',                RWNO=%RSV_WRD_MULTICS);

  19838 17 016110   002731 054000 1                  AOS     NUMBER_OF_RESERVED_WORDS

PL6.E3A0      #001=COBOLRW File=COBOLRW.:Z8A6TSI                                 SAT 08/09/97 09:25 Page:354
  19839 17 016111   000007 235007                    LDA     7,DL
        17 016112   000010 755000 6                  STA     LEX_SYMBOL+8

  19840 17 016113   040000 100400                    MLR     fill='040'O
        17 016114   001307 000007 16                 ADSC9   711                      cn=0,n=7
        17 016115   000011 000504 6                  ADSC9   LEX_SYMBOL+9             cn=0,n=324

  19841 17 016116   000000 631400 18                 EPPR1   0
        17 016117   000000 701000 xent               TSX1    Z8AH$SEARCH_
        17 016120   000000 011000                    NOP     0

  19842 17 016121   000000 470400 2                  LDP0    DNT$
        17 016122   400000 236003                    LDQ     -131072,DU
        17 016123   000003 256100                    ORSQ    3,,PR0

  19843 17 016124   000001 236000 18                 LDQ     1
        17 016125   000003 356100                    ANSQ    3,,PR0

  19844 17 016126   000002 236000 18                 LDQ     2
        17 016127   000003 356100                    ANSQ    3,,PR0

  19845 17 016130   000003 236000 18                 LDQ     3
        17 016131   000003 356100                    ANSQ    3,,PR0

  19846 17 016132   000004 236000 18                 LDQ     4
        17 016133   000003 356100                    ANSQ    3,,PR0

  19847 17 016134   000450 220003                    LDX0    296,DU
        17 016135   000003 440100                    SXL0    3,,PR0

      694    19849        %NEWRSW;
      695    19852        %SEARCH (RWD='MULTIPLE',               RWNO=%RSV_WRD_MULTIPLE);

  19856 17 016136   002731 054000 1                  AOS     NUMBER_OF_RESERVED_WORDS

  19857 17 016137   000010 235007                    LDA     8,DL
        17 016140   000010 755000 6                  STA     LEX_SYMBOL+8
PL6.E3A0      #001=COBOLRW File=COBOLRW.:Z8A6TSI                                 SAT 08/09/97 09:25 Page:355

  19858 17 016141   040000 100400                    MLR     fill='040'O
        17 016142   001311 000010 16                 ADSC9   713                      cn=0,n=8
        17 016143   000011 000504 6                  ADSC9   LEX_SYMBOL+9             cn=0,n=324

  19859 17 016144   000000 631400 18                 EPPR1   0
        17 016145   000000 701000 xent               TSX1    Z8AH$SEARCH_
        17 016146   000000 011000                    NOP     0

  19860 17 016147   000000 470400 2                  LDP0    DNT$
        17 016150   400000 236003                    LDQ     -131072,DU
        17 016151   000003 256100                    ORSQ    3,,PR0

  19861 17 016152   000001 236000 18                 LDQ     1
        17 016153   000003 356100                    ANSQ    3,,PR0

  19862 17 016154   000002 236000 18                 LDQ     2
        17 016155   000003 356100                    ANSQ    3,,PR0

  19863 17 016156   000003 236000 18                 LDQ     3
        17 016157   000003 356100                    ANSQ    3,,PR0

  19864 17 016160   000004 236000 18                 LDQ     4
        17 016161   000003 356100                    ANSQ    3,,PR0

  19865 17 016162   000451 220003                    LDX0    297,DU
        17 016163   000003 440100                    SXL0    3,,PR0

      696    19867        %NEWRSW;
      697    19870        %SEARCH (RWD='MULTIPLY',               RWNO=%RSV_WRD_MULTIPLY);

  19874 17 016164   002731 054000 1                  AOS     NUMBER_OF_RESERVED_WORDS

  19875 17 016165   000010 235007                    LDA     8,DL
        17 016166   000010 755000 6                  STA     LEX_SYMBOL+8

  19876 17 016167   040000 100400                    MLR     fill='040'O
PL6.E3A0      #001=COBOLRW File=COBOLRW.:Z8A6TSI                                 SAT 08/09/97 09:25 Page:356
        17 016170   001313 000010 16                 ADSC9   715                      cn=0,n=8
        17 016171   000011 000504 6                  ADSC9   LEX_SYMBOL+9             cn=0,n=324

  19877 17 016172   000000 631400 18                 EPPR1   0
        17 016173   000000 701000 xent               TSX1    Z8AH$SEARCH_
        17 016174   000000 011000                    NOP     0

  19878 17 016175   000000 470400 2                  LDP0    DNT$
        17 016176   400000 236003                    LDQ     -131072,DU
        17 016177   000003 256100                    ORSQ    3,,PR0

  19879 17 016200   000001 236000 18                 LDQ     1
        17 016201   000003 356100                    ANSQ    3,,PR0

  19880 17 016202   000002 236000 18                 LDQ     2
        17 016203   000003 356100                    ANSQ    3,,PR0

  19881 17 016204   000003 236000 18                 LDQ     3
        17 016205   000003 356100                    ANSQ    3,,PR0

  19882 17 016206   000004 236000 18                 LDQ     4
        17 016207   000003 356100                    ANSQ    3,,PR0

  19883 17 016210   000452 220003                    LDX0    298,DU
        17 016211   000003 440100                    SXL0    3,,PR0

      698    19885        %NEWRSW;
      699    19888        %SEARCH (RWD='NATIVE',                 RWNO=%RSV_WRD_NATIVE);

  19892 17 016212   002731 054000 1                  AOS     NUMBER_OF_RESERVED_WORDS

  19893 17 016213   000006 235007                    LDA     6,DL
        17 016214   000010 755000 6                  STA     LEX_SYMBOL+8

  19894 17 016215   040000 100400                    MLR     fill='040'O
        17 016216   001315 000006 16                 ADSC9   717                      cn=0,n=6
        17 016217   000011 000504 6                  ADSC9   LEX_SYMBOL+9             cn=0,n=324
PL6.E3A0      #001=COBOLRW File=COBOLRW.:Z8A6TSI                                 SAT 08/09/97 09:25 Page:357

  19895 17 016220   000000 631400 18                 EPPR1   0
        17 016221   000000 701000 xent               TSX1    Z8AH$SEARCH_
        17 016222   000000 011000                    NOP     0

  19896 17 016223   000000 470400 2                  LDP0    DNT$
        17 016224   400000 236003                    LDQ     -131072,DU
        17 016225   000003 256100                    ORSQ    3,,PR0

  19897 17 016226   000001 236000 18                 LDQ     1
        17 016227   000003 356100                    ANSQ    3,,PR0

  19898 17 016230   000002 236000 18                 LDQ     2
        17 016231   000003 356100                    ANSQ    3,,PR0

  19899 17 016232   000003 236000 18                 LDQ     3
        17 016233   000003 356100                    ANSQ    3,,PR0

  19900 17 016234   000004 236000 18                 LDQ     4
        17 016235   000003 356100                    ANSQ    3,,PR0

  19901 17 016236   000453 220003                    LDX0    299,DU
        17 016237   000003 440100                    SXL0    3,,PR0

      700    19903        %NEWRSW;
      701    19906        %SEARCH (RWD='NEGATIVE',               RWNO=%RSV_WRD_NEGATIVE);

  19910 17 016240   002731 054000 1                  AOS     NUMBER_OF_RESERVED_WORDS

  19911 17 016241   000010 235007                    LDA     8,DL
        17 016242   000010 755000 6                  STA     LEX_SYMBOL+8

  19912 17 016243   040000 100400                    MLR     fill='040'O
        17 016244   001317 000010 16                 ADSC9   719                      cn=0,n=8
        17 016245   000011 000504 6                  ADSC9   LEX_SYMBOL+9             cn=0,n=324

  19913 17 016246   000000 631400 18                 EPPR1   0
PL6.E3A0      #001=COBOLRW File=COBOLRW.:Z8A6TSI                                 SAT 08/09/97 09:25 Page:358
        17 016247   000000 701000 xent               TSX1    Z8AH$SEARCH_
        17 016250   000000 011000                    NOP     0

  19914 17 016251   000000 470400 2                  LDP0    DNT$
        17 016252   400000 236003                    LDQ     -131072,DU
        17 016253   000003 256100                    ORSQ    3,,PR0

  19915 17 016254   000001 236000 18                 LDQ     1
        17 016255   000003 356100                    ANSQ    3,,PR0

  19916 17 016256   000002 236000 18                 LDQ     2
        17 016257   000003 356100                    ANSQ    3,,PR0

  19917 17 016260   000003 236000 18                 LDQ     3
        17 016261   000003 356100                    ANSQ    3,,PR0

  19918 17 016262   000004 236000 18                 LDQ     4
        17 016263   000003 356100                    ANSQ    3,,PR0

  19919 17 016264   000454 220003                    LDX0    300,DU
        17 016265   000003 440100                    SXL0    3,,PR0

      702    19921        %NEWRSW;
      703    19924        %SEARCH (RWD='NEXT',                   RWNO=%RSV_WRD_NEXT);

  19928 17 016266   002731 054000 1                  AOS     NUMBER_OF_RESERVED_WORDS

  19929 17 016267   000004 235007                    LDA     4,DL
        17 016270   000010 755000 6                  STA     LEX_SYMBOL+8

  19930 17 016271   040000 100400                    MLR     fill='040'O
        17 016272   001321 000004 16                 ADSC9   721                      cn=0,n=4
        17 016273   000011 000504 6                  ADSC9   LEX_SYMBOL+9             cn=0,n=324

  19931 17 016274   000000 631400 18                 EPPR1   0
        17 016275   000000 701000 xent               TSX1    Z8AH$SEARCH_
        17 016276   000000 011000                    NOP     0
PL6.E3A0      #001=COBOLRW File=COBOLRW.:Z8A6TSI                                 SAT 08/09/97 09:25 Page:359

  19932 17 016277   000000 470400 2                  LDP0    DNT$
        17 016300   400000 236003                    LDQ     -131072,DU
        17 016301   000003 256100                    ORSQ    3,,PR0

  19933 17 016302   000001 236000 18                 LDQ     1
        17 016303   000003 356100                    ANSQ    3,,PR0

  19934 17 016304   000002 236000 18                 LDQ     2
        17 016305   000003 356100                    ANSQ    3,,PR0

  19935 17 016306   000003 236000 18                 LDQ     3
        17 016307   000003 356100                    ANSQ    3,,PR0

  19936 17 016310   000004 236000 18                 LDQ     4
        17 016311   000003 356100                    ANSQ    3,,PR0

  19937 17 016312   000455 220003                    LDX0    301,DU
        17 016313   000003 440100                    SXL0    3,,PR0

      704    19939        %NEWRSW;
      705    19942        %SEARCH (RWD='NO',                     RWNO=%RSV_WRD_NO);

  19946 17 016314   002731 054000 1                  AOS     NUMBER_OF_RESERVED_WORDS

  19947 17 016315   000002 235007                    LDA     2,DL
        17 016316   000010 755000 6                  STA     LEX_SYMBOL+8

  19948 17 016317   040000 100400                    MLR     fill='040'O
        17 016320   001322 000002 16                 ADSC9   722                      cn=0,n=2
        17 016321   000011 000504 6                  ADSC9   LEX_SYMBOL+9             cn=0,n=324

  19949 17 016322   000000 631400 18                 EPPR1   0
        17 016323   000000 701000 xent               TSX1    Z8AH$SEARCH_
        17 016324   000000 011000                    NOP     0

  19950 17 016325   000000 470400 2                  LDP0    DNT$
PL6.E3A0      #001=COBOLRW File=COBOLRW.:Z8A6TSI                                 SAT 08/09/97 09:25 Page:360
        17 016326   400000 236003                    LDQ     -131072,DU
        17 016327   000003 256100                    ORSQ    3,,PR0

  19951 17 016330   000001 236000 18                 LDQ     1
        17 016331   000003 356100                    ANSQ    3,,PR0

  19952 17 016332   000002 236000 18                 LDQ     2
        17 016333   000003 356100                    ANSQ    3,,PR0

  19953 17 016334   000003 236000 18                 LDQ     3
        17 016335   000003 356100                    ANSQ    3,,PR0

  19954 17 016336   000004 236000 18                 LDQ     4
        17 016337   000003 356100                    ANSQ    3,,PR0

  19955 17 016340   000456 220003                    LDX0    302,DU
        17 016341   000003 440100                    SXL0    3,,PR0

      706    19957        %NEWRSW;
      707    19960        %SEARCH (RWD='NOMINAL',                RWNO=%RSV_WRD_NOMINAL);

  19964 17 016342   002731 054000 1                  AOS     NUMBER_OF_RESERVED_WORDS

  19965 17 016343   000007 235007                    LDA     7,DL
        17 016344   000010 755000 6                  STA     LEX_SYMBOL+8

  19966 17 016345   040000 100400                    MLR     fill='040'O
        17 016346   001323 000007 16                 ADSC9   723                      cn=0,n=7
        17 016347   000011 000504 6                  ADSC9   LEX_SYMBOL+9             cn=0,n=324

  19967 17 016350   000000 631400 18                 EPPR1   0
        17 016351   000000 701000 xent               TSX1    Z8AH$SEARCH_
        17 016352   000000 011000                    NOP     0

  19968 17 016353   000000 470400 2                  LDP0    DNT$
        17 016354   400000 236003                    LDQ     -131072,DU
        17 016355   000003 256100                    ORSQ    3,,PR0
PL6.E3A0      #001=COBOLRW File=COBOLRW.:Z8A6TSI                                 SAT 08/09/97 09:25 Page:361

  19969 17 016356   000001 236000 18                 LDQ     1
        17 016357   000003 356100                    ANSQ    3,,PR0

  19970 17 016360   000002 236000 18                 LDQ     2
        17 016361   000003 356100                    ANSQ    3,,PR0

  19971 17 016362   000003 236000 18                 LDQ     3
        17 016363   000003 356100                    ANSQ    3,,PR0

  19972 17 016364   000004 236000 18                 LDQ     4
        17 016365   000003 356100                    ANSQ    3,,PR0

  19973 17 016366   000457 220003                    LDX0    303,DU
        17 016367   000003 440100                    SXL0    3,,PR0

      708    19975        %NEWRSW;
      709    19978        %SEARCH (RWD='NOT',                    RWNO=%RSV_WRD_NOT);

  19982 17 016370   002731 054000 1                  AOS     NUMBER_OF_RESERVED_WORDS

  19983 17 016371   000003 235007                    LDA     3,DL
        17 016372   000010 755000 6                  STA     LEX_SYMBOL+8

  19984 17 016373   040000 100400                    MLR     fill='040'O
        17 016374   001325 000003 16                 ADSC9   725                      cn=0,n=3
        17 016375   000011 000504 6                  ADSC9   LEX_SYMBOL+9             cn=0,n=324

  19985 17 016376   000000 631400 18                 EPPR1   0
        17 016377   000000 701000 xent               TSX1    Z8AH$SEARCH_
        17 016400   000000 011000                    NOP     0

  19986 17 016401   000000 470400 2                  LDP0    DNT$
        17 016402   400000 236003                    LDQ     -131072,DU
        17 016403   000003 256100                    ORSQ    3,,PR0

  19987 17 016404   000001 236000 18                 LDQ     1
PL6.E3A0      #001=COBOLRW File=COBOLRW.:Z8A6TSI                                 SAT 08/09/97 09:25 Page:362
        17 016405   000003 356100                    ANSQ    3,,PR0

  19988 17 016406   000002 236000 18                 LDQ     2
        17 016407   000003 356100                    ANSQ    3,,PR0

  19989 17 016410   000003 236000 18                 LDQ     3
        17 016411   000003 356100                    ANSQ    3,,PR0

  19990 17 016412   000004 236000 18                 LDQ     4
        17 016413   000003 356100                    ANSQ    3,,PR0

  19991 17 016414   000460 220003                    LDX0    304,DU
        17 016415   000003 440100                    SXL0    3,,PR0

      710    19993        %NEWRSW;
      711    19996        %SEARCH (RWD='NOT ON EXCEPTION',       RWNO=%RSV_WRD_NOT_ON_EXCEPTION);

  20000 17 016416   002731 054000 1                  AOS     NUMBER_OF_RESERVED_WORDS

  20001 17 016417   000020 235007                    LDA     16,DL
        17 016420   000010 755000 6                  STA     LEX_SYMBOL+8

  20002 17 016421   040000 100400                    MLR     fill='040'O
        17 016422   001326 000020 16                 ADSC9   726                      cn=0,n=16
        17 016423   000011 000504 6                  ADSC9   LEX_SYMBOL+9             cn=0,n=324

  20003 17 016424   000000 631400 18                 EPPR1   0
        17 016425   000000 701000 xent               TSX1    Z8AH$SEARCH_
        17 016426   000000 011000                    NOP     0

  20004 17 016427   000000 470400 2                  LDP0    DNT$
        17 016430   400000 236003                    LDQ     -131072,DU
        17 016431   000003 256100                    ORSQ    3,,PR0

  20005 17 016432   000001 236000 18                 LDQ     1
        17 016433   000003 356100                    ANSQ    3,,PR0

PL6.E3A0      #001=COBOLRW File=COBOLRW.:Z8A6TSI                                 SAT 08/09/97 09:25 Page:363
  20006 17 016434   000002 236000 18                 LDQ     2
        17 016435   000003 356100                    ANSQ    3,,PR0

  20007 17 016436   000003 236000 18                 LDQ     3
        17 016437   000003 356100                    ANSQ    3,,PR0

  20008 17 016440   000004 236000 18                 LDQ     4
        17 016441   000003 356100                    ANSQ    3,,PR0

  20009 17 016442   000461 220003                    LDX0    305,DU
        17 016443   000003 440100                    SXL0    3,,PR0

      712    20011        %NEWRSW;
      713    20014        %SEARCH (RWD='NO DATA',                RWNO=%RSV_WRD_NO_DATA);

  20018 17 016444   002731 054000 1                  AOS     NUMBER_OF_RESERVED_WORDS

  20019 17 016445   000007 235007                    LDA     7,DL
        17 016446   000010 755000 6                  STA     LEX_SYMBOL+8

  20020 17 016447   040000 100400                    MLR     fill='040'O
        17 016450   001332 000007 16                 ADSC9   730                      cn=0,n=7
        17 016451   000011 000504 6                  ADSC9   LEX_SYMBOL+9             cn=0,n=324

  20021 17 016452   000000 631400 18                 EPPR1   0
        17 016453   000000 701000 xent               TSX1    Z8AH$SEARCH_
        17 016454   000000 011000                    NOP     0

  20022 17 016455   000000 470400 2                  LDP0    DNT$
        17 016456   400000 236003                    LDQ     -131072,DU
        17 016457   000003 256100                    ORSQ    3,,PR0

  20023 17 016460   000001 236000 18                 LDQ     1
        17 016461   000003 356100                    ANSQ    3,,PR0

  20024 17 016462   000002 236000 18                 LDQ     2
        17 016463   000003 356100                    ANSQ    3,,PR0
PL6.E3A0      #001=COBOLRW File=COBOLRW.:Z8A6TSI                                 SAT 08/09/97 09:25 Page:364

  20025 17 016464   000003 236000 18                 LDQ     3
        17 016465   000003 356100                    ANSQ    3,,PR0

  20026 17 016466   000004 236000 18                 LDQ     4
        17 016467   000003 356100                    ANSQ    3,,PR0

  20027 17 016470   000462 220003                    LDX0    306,DU
        17 016471   000003 440100                    SXL0    3,,PR0

      714    20029        %NEWRSW;
      715    20032        %SEARCH (RWD='NULL',                   RWNO=%RSV_WRD_NULL);

  20036 17 016472   002731 054000 1                  AOS     NUMBER_OF_RESERVED_WORDS

  20037 17 016473   000004 235007                    LDA     4,DL
        17 016474   000010 755000 6                  STA     LEX_SYMBOL+8

  20038 17 016475   040000 100400                    MLR     fill='040'O
        17 016476   001334 000004 16                 ADSC9   732                      cn=0,n=4
        17 016477   000011 000504 6                  ADSC9   LEX_SYMBOL+9             cn=0,n=324

  20039 17 016500   000000 631400 18                 EPPR1   0
        17 016501   000000 701000 xent               TSX1    Z8AH$SEARCH_
        17 016502   000000 011000                    NOP     0

  20040 17 016503   000000 470400 2                  LDP0    DNT$
        17 016504   400000 236003                    LDQ     -131072,DU
        17 016505   000003 256100                    ORSQ    3,,PR0

  20041 17 016506   000001 236000 18                 LDQ     1
        17 016507   000003 356100                    ANSQ    3,,PR0

  20042 17 016510   000002 236000 18                 LDQ     2
        17 016511   000003 356100                    ANSQ    3,,PR0

  20043 17 016512   000003 236000 18                 LDQ     3
PL6.E3A0      #001=COBOLRW File=COBOLRW.:Z8A6TSI                                 SAT 08/09/97 09:25 Page:365
        17 016513   000003 356100                    ANSQ    3,,PR0

  20044 17 016514   000004 236000 18                 LDQ     4
        17 016515   000003 356100                    ANSQ    3,,PR0

  20045 17 016516   000463 220003                    LDX0    307,DU
        17 016517   000003 440100                    SXL0    3,,PR0

      716    20047        %NEWRSW;
      717    20050        %SEARCH (RWD='NUMBER',                 RWNO=%RSV_WRD_NUMBER);

  20054 17 016520   002731 054000 1                  AOS     NUMBER_OF_RESERVED_WORDS

  20055 17 016521   000006 235007                    LDA     6,DL
        17 016522   000010 755000 6                  STA     LEX_SYMBOL+8

  20056 17 016523   040000 100400                    MLR     fill='040'O
        17 016524   001335 000006 16                 ADSC9   733                      cn=0,n=6
        17 016525   000011 000504 6                  ADSC9   LEX_SYMBOL+9             cn=0,n=324

  20057 17 016526   000000 631400 18                 EPPR1   0
        17 016527   000000 701000 xent               TSX1    Z8AH$SEARCH_
        17 016530   000000 011000                    NOP     0

  20058 17 016531   000000 470400 2                  LDP0    DNT$
        17 016532   400000 236003                    LDQ     -131072,DU
        17 016533   000003 256100                    ORSQ    3,,PR0

  20059 17 016534   000001 236000 18                 LDQ     1
        17 016535   000003 356100                    ANSQ    3,,PR0

  20060 17 016536   000002 236000 18                 LDQ     2
        17 016537   000003 356100                    ANSQ    3,,PR0

  20061 17 016540   000003 236000 18                 LDQ     3
        17 016541   000003 356100                    ANSQ    3,,PR0

PL6.E3A0      #001=COBOLRW File=COBOLRW.:Z8A6TSI                                 SAT 08/09/97 09:25 Page:366
  20062 17 016542   000004 236000 18                 LDQ     4
        17 016543   000003 356100                    ANSQ    3,,PR0

  20063 17 016544   000464 220003                    LDX0    308,DU
        17 016545   000003 440100                    SXL0    3,,PR0

      718    20065        %NEWRSW;
      719    20068        %SEARCH (RWD='NUMERIC',                RWNO=%RSV_WRD_NUMERIC);

  20072 17 016546   002731 054000 1                  AOS     NUMBER_OF_RESERVED_WORDS

  20073 17 016547   000007 235007                    LDA     7,DL
        17 016550   000010 755000 6                  STA     LEX_SYMBOL+8

  20074 17 016551   040000 100400                    MLR     fill='040'O
        17 016552   001337 000007 16                 ADSC9   735                      cn=0,n=7
        17 016553   000011 000504 6                  ADSC9   LEX_SYMBOL+9             cn=0,n=324

  20075 17 016554   000000 631400 18                 EPPR1   0
        17 016555   000000 701000 xent               TSX1    Z8AH$SEARCH_
        17 016556   000000 011000                    NOP     0

  20076 17 016557   000000 470400 2                  LDP0    DNT$
        17 016560   400000 236003                    LDQ     -131072,DU
        17 016561   000003 256100                    ORSQ    3,,PR0

  20077 17 016562   000001 236000 18                 LDQ     1
        17 016563   000003 356100                    ANSQ    3,,PR0

  20078 17 016564   000002 236000 18                 LDQ     2
        17 016565   000003 356100                    ANSQ    3,,PR0

  20079 17 016566   000003 236000 18                 LDQ     3
        17 016567   000003 356100                    ANSQ    3,,PR0

  20080 17 016570   000004 236000 18                 LDQ     4
        17 016571   000003 356100                    ANSQ    3,,PR0
PL6.E3A0      #001=COBOLRW File=COBOLRW.:Z8A6TSI                                 SAT 08/09/97 09:25 Page:367

  20081 17 016572   000465 220003                    LDX0    309,DU
        17 016573   000003 440100                    SXL0    3,,PR0

      720    20083        %NEWRSW;
      721    20086        %SEARCH (RWD='NUMERIC-EDITED',         RWNO=%RSV_WRD_NUMERIC_EDITED);

  20090 17 016574   002731 054000 1                  AOS     NUMBER_OF_RESERVED_WORDS

  20091 17 016575   000016 235007                    LDA     14,DL
        17 016576   000010 755000 6                  STA     LEX_SYMBOL+8

  20092 17 016577   040000 100400                    MLR     fill='040'O
        17 016600   001341 000016 16                 ADSC9   737                      cn=0,n=14
        17 016601   000011 000504 6                  ADSC9   LEX_SYMBOL+9             cn=0,n=324

  20093 17 016602   000000 631400 18                 EPPR1   0
        17 016603   000000 701000 xent               TSX1    Z8AH$SEARCH_
        17 016604   000000 011000                    NOP     0

  20094 17 016605   000000 470400 2                  LDP0    DNT$
        17 016606   400000 236003                    LDQ     -131072,DU
        17 016607   000003 256100                    ORSQ    3,,PR0

  20095 17 016610   000001 236000 18                 LDQ     1
        17 016611   000003 356100                    ANSQ    3,,PR0

  20096 17 016612   000002 236000 18                 LDQ     2
        17 016613   000003 356100                    ANSQ    3,,PR0

  20097 17 016614   000003 236000 18                 LDQ     3
        17 016615   000003 356100                    ANSQ    3,,PR0

  20098 17 016616   000004 236000 18                 LDQ     4
        17 016617   000003 356100                    ANSQ    3,,PR0

  20099 17 016620   000466 220003                    LDX0    310,DU
PL6.E3A0      #001=COBOLRW File=COBOLRW.:Z8A6TSI                                 SAT 08/09/97 09:25 Page:368
        17 016621   000003 440100                    SXL0    3,,PR0

      722    20101        %NEWRSW;
      723    20104        %SEARCH (RWD='OBJECT',                 RWNO=%RSV_WRD_OBJECT);

  20108 17 016622   002731 054000 1                  AOS     NUMBER_OF_RESERVED_WORDS

  20109 17 016623   000006 235007                    LDA     6,DL
        17 016624   000010 755000 6                  STA     LEX_SYMBOL+8

  20110 17 016625   040000 100400                    MLR     fill='040'O
        17 016626   001345 000006 16                 ADSC9   741                      cn=0,n=6
        17 016627   000011 000504 6                  ADSC9   LEX_SYMBOL+9             cn=0,n=324

  20111 17 016630   000000 631400 18                 EPPR1   0
        17 016631   000000 701000 xent               TSX1    Z8AH$SEARCH_
        17 016632   000000 011000                    NOP     0

  20112 17 016633   000000 470400 2                  LDP0    DNT$
        17 016634   400000 236003                    LDQ     -131072,DU
        17 016635   000003 256100                    ORSQ    3,,PR0

  20113 17 016636   000001 236000 18                 LDQ     1
        17 016637   000003 356100                    ANSQ    3,,PR0

  20114 17 016640   000002 236000 18                 LDQ     2
        17 016641   000003 356100                    ANSQ    3,,PR0

  20115 17 016642   000003 236000 18                 LDQ     3
        17 016643   000003 356100                    ANSQ    3,,PR0

  20116 17 016644   000004 236000 18                 LDQ     4
        17 016645   000003 356100                    ANSQ    3,,PR0

  20117 17 016646   000467 220003                    LDX0    311,DU
        17 016647   000003 440100                    SXL0    3,,PR0

PL6.E3A0      #001=COBOLRW File=COBOLRW.:Z8A6TSI                                 SAT 08/09/97 09:25 Page:369
      724    20119        %NEWRSW;
      725    20122        %SEARCH (RWD='OBJECT-COMPUTER',        RWNO=%RSV_WRD_OBJECT_COMPUTER, MUST_AREAA=
             20122            TRUE);

  20126 17 016650   002731 054000 1                  AOS     NUMBER_OF_RESERVED_WORDS

  20127 17 016651   000017 235007                    LDA     15,DL
        17 016652   000010 755000 6                  STA     LEX_SYMBOL+8

  20128 17 016653   040000 100400                    MLR     fill='040'O
        17 016654   001347 000017 16                 ADSC9   743                      cn=0,n=15
        17 016655   000011 000504 6                  ADSC9   LEX_SYMBOL+9             cn=0,n=324

  20129 17 016656   000000 631400 18                 EPPR1   0
        17 016657   000000 701000 xent               TSX1    Z8AH$SEARCH_
        17 016660   000000 011000                    NOP     0

  20130 17 016661   000000 470400 2                  LDP0    DNT$
        17 016662   400000 236003                    LDQ     -131072,DU
        17 016663   000003 256100                    ORSQ    3,,PR0

  20131 17 016664   000001 236000 18                 LDQ     1
        17 016665   000003 356100                    ANSQ    3,,PR0

  20132 17 016666   000002 236000 18                 LDQ     2
        17 016667   000003 356100                    ANSQ    3,,PR0

  20133 17 016670   000040 236003                    LDQ     32,DU
        17 016671   000003 256100                    ORSQ    3,,PR0

  20134 17 016672   000004 236000 18                 LDQ     4
        17 016673   000003 356100                    ANSQ    3,,PR0

  20135 17 016674   000470 220003                    LDX0    312,DU
        17 016675   000003 440100                    SXL0    3,,PR0

      726    20137        %NEWRSW;
PL6.E3A0      #001=COBOLRW File=COBOLRW.:Z8A6TSI                                 SAT 08/09/97 09:25 Page:370
      727    20140        %SEARCH (RWD='OCCURS',                 RWNO=%RSV_WRD_OCCURS);

  20144 17 016676   002731 054000 1                  AOS     NUMBER_OF_RESERVED_WORDS

  20145 17 016677   000006 235007                    LDA     6,DL
        17 016700   000010 755000 6                  STA     LEX_SYMBOL+8

  20146 17 016701   040000 100400                    MLR     fill='040'O
        17 016702   001353 000006 16                 ADSC9   747                      cn=0,n=6
        17 016703   000011 000504 6                  ADSC9   LEX_SYMBOL+9             cn=0,n=324

  20147 17 016704   000000 631400 18                 EPPR1   0
        17 016705   000000 701000 xent               TSX1    Z8AH$SEARCH_
        17 016706   000000 011000                    NOP     0

  20148 17 016707   000000 470400 2                  LDP0    DNT$
        17 016710   400000 236003                    LDQ     -131072,DU
        17 016711   000003 256100                    ORSQ    3,,PR0

  20149 17 016712   000001 236000 18                 LDQ     1
        17 016713   000003 356100                    ANSQ    3,,PR0

  20150 17 016714   000002 236000 18                 LDQ     2
        17 016715   000003 356100                    ANSQ    3,,PR0

  20151 17 016716   000003 236000 18                 LDQ     3
        17 016717   000003 356100                    ANSQ    3,,PR0

  20152 17 016720   000004 236000 18                 LDQ     4
        17 016721   000003 356100                    ANSQ    3,,PR0

  20153 17 016722   000471 220003                    LDX0    313,DU
        17 016723   000003 440100                    SXL0    3,,PR0

      728    20155        %NEWRSW;
      729    20158        %SEARCH (RWD='OF',                     RWNO=%RSV_WRD_OF);

PL6.E3A0      #001=COBOLRW File=COBOLRW.:Z8A6TSI                                 SAT 08/09/97 09:25 Page:371
  20162 17 016724   002731 054000 1                  AOS     NUMBER_OF_RESERVED_WORDS

  20163 17 016725   000002 235007                    LDA     2,DL
        17 016726   000010 755000 6                  STA     LEX_SYMBOL+8

  20164 17 016727   040000 100400                    MLR     fill='040'O
        17 016730   001355 000002 16                 ADSC9   749                      cn=0,n=2
        17 016731   000011 000504 6                  ADSC9   LEX_SYMBOL+9             cn=0,n=324

  20165 17 016732   000000 631400 18                 EPPR1   0
        17 016733   000000 701000 xent               TSX1    Z8AH$SEARCH_
        17 016734   000000 011000                    NOP     0

  20166 17 016735   000000 470400 2                  LDP0    DNT$
        17 016736   400000 236003                    LDQ     -131072,DU
        17 016737   000003 256100                    ORSQ    3,,PR0

  20167 17 016740   000001 236000 18                 LDQ     1
        17 016741   000003 356100                    ANSQ    3,,PR0

  20168 17 016742   000002 236000 18                 LDQ     2
        17 016743   000003 356100                    ANSQ    3,,PR0

  20169 17 016744   000003 236000 18                 LDQ     3
        17 016745   000003 356100                    ANSQ    3,,PR0

  20170 17 016746   000004 236000 18                 LDQ     4
        17 016747   000003 356100                    ANSQ    3,,PR0

  20171 17 016750   000472 220003                    LDX0    314,DU
        17 016751   000003 440100                    SXL0    3,,PR0

      730    20173        %NEWRSW;
      731    20176        %SEARCH (RWD='OFF',                    RWNO=%RSV_WRD_OFF);

  20180 17 016752   002731 054000 1                  AOS     NUMBER_OF_RESERVED_WORDS

PL6.E3A0      #001=COBOLRW File=COBOLRW.:Z8A6TSI                                 SAT 08/09/97 09:25 Page:372
  20181 17 016753   000003 235007                    LDA     3,DL
        17 016754   000010 755000 6                  STA     LEX_SYMBOL+8

  20182 17 016755   040000 100400                    MLR     fill='040'O
        17 016756   001356 000003 16                 ADSC9   750                      cn=0,n=3
        17 016757   000011 000504 6                  ADSC9   LEX_SYMBOL+9             cn=0,n=324

  20183 17 016760   000000 631400 18                 EPPR1   0
        17 016761   000000 701000 xent               TSX1    Z8AH$SEARCH_
        17 016762   000000 011000                    NOP     0

  20184 17 016763   000000 470400 2                  LDP0    DNT$
        17 016764   400000 236003                    LDQ     -131072,DU
        17 016765   000003 256100                    ORSQ    3,,PR0

  20185 17 016766   000001 236000 18                 LDQ     1
        17 016767   000003 356100                    ANSQ    3,,PR0

  20186 17 016770   000002 236000 18                 LDQ     2
        17 016771   000003 356100                    ANSQ    3,,PR0

  20187 17 016772   000003 236000 18                 LDQ     3
        17 016773   000003 356100                    ANSQ    3,,PR0

  20188 17 016774   000004 236000 18                 LDQ     4
        17 016775   000003 356100                    ANSQ    3,,PR0

  20189 17 016776   000473 220003                    LDX0    315,DU
        17 016777   000003 440100                    SXL0    3,,PR0

      732    20191        %NEWRSW;
      733    20194        %SEARCH (RWD='OMITTED',                RWNO=%RSV_WRD_OMITTED);

  20198 17 017000   002731 054000 1                  AOS     NUMBER_OF_RESERVED_WORDS

  20199 17 017001   000007 235007                    LDA     7,DL
        17 017002   000010 755000 6                  STA     LEX_SYMBOL+8
PL6.E3A0      #001=COBOLRW File=COBOLRW.:Z8A6TSI                                 SAT 08/09/97 09:25 Page:373

  20200 17 017003   040000 100400                    MLR     fill='040'O
        17 017004   001357 000007 16                 ADSC9   751                      cn=0,n=7
        17 017005   000011 000504 6                  ADSC9   LEX_SYMBOL+9             cn=0,n=324

  20201 17 017006   000000 631400 18                 EPPR1   0
        17 017007   000000 701000 xent               TSX1    Z8AH$SEARCH_
        17 017010   000000 011000                    NOP     0

  20202 17 017011   000000 470400 2                  LDP0    DNT$
        17 017012   400000 236003                    LDQ     -131072,DU
        17 017013   000003 256100                    ORSQ    3,,PR0

  20203 17 017014   000001 236000 18                 LDQ     1
        17 017015   000003 356100                    ANSQ    3,,PR0

  20204 17 017016   000002 236000 18                 LDQ     2
        17 017017   000003 356100                    ANSQ    3,,PR0

  20205 17 017020   000003 236000 18                 LDQ     3
        17 017021   000003 356100                    ANSQ    3,,PR0

  20206 17 017022   000004 236000 18                 LDQ     4
        17 017023   000003 356100                    ANSQ    3,,PR0

  20207 17 017024   000474 220003                    LDX0    316,DU
        17 017025   000003 440100                    SXL0    3,,PR0

      734    20209        %NEWRSW;
      735    20212        %SEARCH (RWD='ON',                     RWNO=%RSV_WRD_ON);

  20216 17 017026   002731 054000 1                  AOS     NUMBER_OF_RESERVED_WORDS

  20217 17 017027   000002 235007                    LDA     2,DL
        17 017030   000010 755000 6                  STA     LEX_SYMBOL+8

  20218 17 017031   040000 100400                    MLR     fill='040'O
PL6.E3A0      #001=COBOLRW File=COBOLRW.:Z8A6TSI                                 SAT 08/09/97 09:25 Page:374
        17 017032   001327 000002 16                 ADSC9   727                      cn=0,n=2
        17 017033   000011 000504 6                  ADSC9   LEX_SYMBOL+9             cn=0,n=324

  20219 17 017034   000000 631400 18                 EPPR1   0
        17 017035   000000 701000 xent               TSX1    Z8AH$SEARCH_
        17 017036   000000 011000                    NOP     0

  20220 17 017037   000000 470400 2                  LDP0    DNT$
        17 017040   400000 236003                    LDQ     -131072,DU
        17 017041   000003 256100                    ORSQ    3,,PR0

  20221 17 017042   000001 236000 18                 LDQ     1
        17 017043   000003 356100                    ANSQ    3,,PR0

  20222 17 017044   000002 236000 18                 LDQ     2
        17 017045   000003 356100                    ANSQ    3,,PR0

  20223 17 017046   000003 236000 18                 LDQ     3
        17 017047   000003 356100                    ANSQ    3,,PR0

  20224 17 017050   000004 236000 18                 LDQ     4
        17 017051   000003 356100                    ANSQ    3,,PR0

  20225 17 017052   000475 220003                    LDX0    317,DU
        17 017053   000003 440100                    SXL0    3,,PR0

      736    20227        %NEWRSW;
      737    20230        %SEARCH (RWD='ONLY',                   RWNO=%RSV_WRD_ONLY);

  20234 17 017054   002731 054000 1                  AOS     NUMBER_OF_RESERVED_WORDS

  20235 17 017055   000004 235007                    LDA     4,DL
        17 017056   000010 755000 6                  STA     LEX_SYMBOL+8

  20236 17 017057   040000 100400                    MLR     fill='040'O
        17 017060   001361 000004 16                 ADSC9   753                      cn=0,n=4
        17 017061   000011 000504 6                  ADSC9   LEX_SYMBOL+9             cn=0,n=324
PL6.E3A0      #001=COBOLRW File=COBOLRW.:Z8A6TSI                                 SAT 08/09/97 09:25 Page:375

  20237 17 017062   000000 631400 18                 EPPR1   0
        17 017063   000000 701000 xent               TSX1    Z8AH$SEARCH_
        17 017064   000000 011000                    NOP     0

  20238 17 017065   000000 470400 2                  LDP0    DNT$
        17 017066   400000 236003                    LDQ     -131072,DU
        17 017067   000003 256100                    ORSQ    3,,PR0

  20239 17 017070   000001 236000 18                 LDQ     1
        17 017071   000003 356100                    ANSQ    3,,PR0

  20240 17 017072   000002 236000 18                 LDQ     2
        17 017073   000003 356100                    ANSQ    3,,PR0

  20241 17 017074   000003 236000 18                 LDQ     3
        17 017075   000003 356100                    ANSQ    3,,PR0

  20242 17 017076   000004 236000 18                 LDQ     4
        17 017077   000003 356100                    ANSQ    3,,PR0

  20243 17 017100   000476 220003                    LDX0    318,DU
        17 017101   000003 440100                    SXL0    3,,PR0

      738    20245        %NEWRSW;
      739    20248        %SEARCH (RWD='OPEN',                   RWNO=%RSV_WRD_OPEN);

  20252 17 017102   002731 054000 1                  AOS     NUMBER_OF_RESERVED_WORDS

  20253 17 017103   000004 235007                    LDA     4,DL
        17 017104   000010 755000 6                  STA     LEX_SYMBOL+8

  20254 17 017105   040000 100400                    MLR     fill='040'O
        17 017106   001362 000004 16                 ADSC9   754                      cn=0,n=4
        17 017107   000011 000504 6                  ADSC9   LEX_SYMBOL+9             cn=0,n=324

  20255 17 017110   000000 631400 18                 EPPR1   0
PL6.E3A0      #001=COBOLRW File=COBOLRW.:Z8A6TSI                                 SAT 08/09/97 09:25 Page:376
        17 017111   000000 701000 xent               TSX1    Z8AH$SEARCH_
        17 017112   000000 011000                    NOP     0

  20256 17 017113   000000 470400 2                  LDP0    DNT$
        17 017114   400000 236003                    LDQ     -131072,DU
        17 017115   000003 256100                    ORSQ    3,,PR0

  20257 17 017116   000001 236000 18                 LDQ     1
        17 017117   000003 356100                    ANSQ    3,,PR0

  20258 17 017120   000002 236000 18                 LDQ     2
        17 017121   000003 356100                    ANSQ    3,,PR0

  20259 17 017122   000003 236000 18                 LDQ     3
        17 017123   000003 356100                    ANSQ    3,,PR0

  20260 17 017124   000004 236000 18                 LDQ     4
        17 017125   000003 356100                    ANSQ    3,,PR0

  20261 17 017126   000477 220003                    LDX0    319,DU
        17 017127   000003 440100                    SXL0    3,,PR0

      740    20263        %NEWRSW;
      741    20266        %SEARCH (RWD='OPERATIONAL',            RWNO=%RSV_WRD_OPERATIONAL) ;

  20270 17 017130   002731 054000 1                  AOS     NUMBER_OF_RESERVED_WORDS

  20271 17 017131   000013 235007                    LDA     11,DL
        17 017132   000010 755000 6                  STA     LEX_SYMBOL+8

  20272 17 017133   040000 100400                    MLR     fill='040'O
        17 017134   001363 000013 16                 ADSC9   755                      cn=0,n=11
        17 017135   000011 000504 6                  ADSC9   LEX_SYMBOL+9             cn=0,n=324

  20273 17 017136   000000 631400 18                 EPPR1   0
        17 017137   000000 701000 xent               TSX1    Z8AH$SEARCH_
        17 017140   000000 011000                    NOP     0
PL6.E3A0      #001=COBOLRW File=COBOLRW.:Z8A6TSI                                 SAT 08/09/97 09:25 Page:377

  20274 17 017141   000000 470400 2                  LDP0    DNT$
        17 017142   400000 236003                    LDQ     -131072,DU
        17 017143   000003 256100                    ORSQ    3,,PR0

  20275 17 017144   000001 236000 18                 LDQ     1
        17 017145   000003 356100                    ANSQ    3,,PR0

  20276 17 017146   000002 236000 18                 LDQ     2
        17 017147   000003 356100                    ANSQ    3,,PR0

  20277 17 017150   000003 236000 18                 LDQ     3
        17 017151   000003 356100                    ANSQ    3,,PR0

  20278 17 017152   000004 236000 18                 LDQ     4
        17 017153   000003 356100                    ANSQ    3,,PR0

  20279 17 017154   000500 220003                    LDX0    320,DU
        17 017155   000003 440100                    SXL0    3,,PR0

      742    20281        %NEWRSW;
      743    20284        %SEARCH (RWD='OPTIONAL',               RWNO=%RSV_WRD_OPTIONAL);

  20288 17 017156   002731 054000 1                  AOS     NUMBER_OF_RESERVED_WORDS

  20289 17 017157   000010 235007                    LDA     8,DL
        17 017160   000010 755000 6                  STA     LEX_SYMBOL+8

  20290 17 017161   040000 100400                    MLR     fill='040'O
        17 017162   001366 000010 16                 ADSC9   758                      cn=0,n=8
        17 017163   000011 000504 6                  ADSC9   LEX_SYMBOL+9             cn=0,n=324

  20291 17 017164   000000 631400 18                 EPPR1   0
        17 017165   000000 701000 xent               TSX1    Z8AH$SEARCH_
        17 017166   000000 011000                    NOP     0

  20292 17 017167   000000 470400 2                  LDP0    DNT$
PL6.E3A0      #001=COBOLRW File=COBOLRW.:Z8A6TSI                                 SAT 08/09/97 09:25 Page:378
        17 017170   400000 236003                    LDQ     -131072,DU
        17 017171   000003 256100                    ORSQ    3,,PR0

  20293 17 017172   000001 236000 18                 LDQ     1
        17 017173   000003 356100                    ANSQ    3,,PR0

  20294 17 017174   000002 236000 18                 LDQ     2
        17 017175   000003 356100                    ANSQ    3,,PR0

  20295 17 017176   000003 236000 18                 LDQ     3
        17 017177   000003 356100                    ANSQ    3,,PR0

  20296 17 017200   000004 236000 18                 LDQ     4
        17 017201   000003 356100                    ANSQ    3,,PR0

  20297 17 017202   000501 220003                    LDX0    321,DU
        17 017203   000003 440100                    SXL0    3,,PR0

      744    20299        %NEWRSW;
      745    20302        %SEARCH (RWD='OR',                     RWNO=%RSV_WRD_OR);

  20306 17 017204   002731 054000 1                  AOS     NUMBER_OF_RESERVED_WORDS

  20307 17 017205   000002 235007                    LDA     2,DL
        17 017206   000010 755000 6                  STA     LEX_SYMBOL+8

  20308 17 017207   040000 100400                    MLR     fill='040'O
        17 017210   001370 000002 16                 ADSC9   760                      cn=0,n=2
        17 017211   000011 000504 6                  ADSC9   LEX_SYMBOL+9             cn=0,n=324

  20309 17 017212   000000 631400 18                 EPPR1   0
        17 017213   000000 701000 xent               TSX1    Z8AH$SEARCH_
        17 017214   000000 011000                    NOP     0

  20310 17 017215   000000 470400 2                  LDP0    DNT$
        17 017216   400000 236003                    LDQ     -131072,DU
        17 017217   000003 256100                    ORSQ    3,,PR0
PL6.E3A0      #001=COBOLRW File=COBOLRW.:Z8A6TSI                                 SAT 08/09/97 09:25 Page:379

  20311 17 017220   000001 236000 18                 LDQ     1
        17 017221   000003 356100                    ANSQ    3,,PR0

  20312 17 017222   000002 236000 18                 LDQ     2
        17 017223   000003 356100                    ANSQ    3,,PR0

  20313 17 017224   000003 236000 18                 LDQ     3
        17 017225   000003 356100                    ANSQ    3,,PR0

  20314 17 017226   000004 236000 18                 LDQ     4
        17 017227   000003 356100                    ANSQ    3,,PR0

  20315 17 017230   000502 220003                    LDX0    322,DU
        17 017231   000003 440100                    SXL0    3,,PR0

      746    20317        %NEWRSW;
      747    20320        %SEARCH (RWD='ORDER',                  RWNO=%RSV_WRD_ORDER);

  20324 17 017232   002731 054000 1                  AOS     NUMBER_OF_RESERVED_WORDS

  20325 17 017233   000005 235007                    LDA     5,DL
        17 017234   000010 755000 6                  STA     LEX_SYMBOL+8

  20326 17 017235   040000 100400                    MLR     fill='040'O
        17 017236   001371 000005 16                 ADSC9   761                      cn=0,n=5
        17 017237   000011 000504 6                  ADSC9   LEX_SYMBOL+9             cn=0,n=324

  20327 17 017240   000000 631400 18                 EPPR1   0
        17 017241   000000 701000 xent               TSX1    Z8AH$SEARCH_
        17 017242   000000 011000                    NOP     0

  20328 17 017243   000000 470400 2                  LDP0    DNT$
        17 017244   400000 236003                    LDQ     -131072,DU
        17 017245   000003 256100                    ORSQ    3,,PR0

  20329 17 017246   000001 236000 18                 LDQ     1
PL6.E3A0      #001=COBOLRW File=COBOLRW.:Z8A6TSI                                 SAT 08/09/97 09:25 Page:380
        17 017247   000003 356100                    ANSQ    3,,PR0

  20330 17 017250   000002 236000 18                 LDQ     2
        17 017251   000003 356100                    ANSQ    3,,PR0

  20331 17 017252   000003 236000 18                 LDQ     3
        17 017253   000003 356100                    ANSQ    3,,PR0

  20332 17 017254   000004 236000 18                 LDQ     4
        17 017255   000003 356100                    ANSQ    3,,PR0

  20333 17 017256   000503 220003                    LDX0    323,DU
        17 017257   000003 440100                    SXL0    3,,PR0

      748    20335        %NEWRSW;
      749    20338        %SEARCH (RWD='ORGANIZATION',           RWNO=%RSV_WRD_ORGANIZATION);

  20342 17 017260   002731 054000 1                  AOS     NUMBER_OF_RESERVED_WORDS

  20343 17 017261   000014 235007                    LDA     12,DL
        17 017262   000010 755000 6                  STA     LEX_SYMBOL+8

  20344 17 017263   040000 100400                    MLR     fill='040'O
        17 017264   001373 000014 16                 ADSC9   763                      cn=0,n=12
        17 017265   000011 000504 6                  ADSC9   LEX_SYMBOL+9             cn=0,n=324

  20345 17 017266   000000 631400 18                 EPPR1   0
        17 017267   000000 701000 xent               TSX1    Z8AH$SEARCH_
        17 017270   000000 011000                    NOP     0

  20346 17 017271   000000 470400 2                  LDP0    DNT$
        17 017272   400000 236003                    LDQ     -131072,DU
        17 017273   000003 256100                    ORSQ    3,,PR0

  20347 17 017274   000001 236000 18                 LDQ     1
        17 017275   000003 356100                    ANSQ    3,,PR0

PL6.E3A0      #001=COBOLRW File=COBOLRW.:Z8A6TSI                                 SAT 08/09/97 09:25 Page:381
  20348 17 017276   000002 236000 18                 LDQ     2
        17 017277   000003 356100                    ANSQ    3,,PR0

  20349 17 017300   000003 236000 18                 LDQ     3
        17 017301   000003 356100                    ANSQ    3,,PR0

  20350 17 017302   000004 236000 18                 LDQ     4
        17 017303   000003 356100                    ANSQ    3,,PR0

  20351 17 017304   000504 220003                    LDX0    324,DU
        17 017305   000003 440100                    SXL0    3,,PR0

      750    20353        %NEWRSW;
      751    20356        %SEARCH (RWD='OTHER',                  RWNO=%RSV_WRD_OTHER);

  20360 17 017306   002731 054000 1                  AOS     NUMBER_OF_RESERVED_WORDS

  20361 17 017307   000005 235007                    LDA     5,DL
        17 017310   000010 755000 6                  STA     LEX_SYMBOL+8

  20362 17 017311   040000 100400                    MLR     fill='040'O
        17 017312   001376 000005 16                 ADSC9   766                      cn=0,n=5
        17 017313   000011 000504 6                  ADSC9   LEX_SYMBOL+9             cn=0,n=324

  20363 17 017314   000000 631400 18                 EPPR1   0
        17 017315   000000 701000 xent               TSX1    Z8AH$SEARCH_
        17 017316   000000 011000                    NOP     0

  20364 17 017317   000000 470400 2                  LDP0    DNT$
        17 017320   400000 236003                    LDQ     -131072,DU
        17 017321   000003 256100                    ORSQ    3,,PR0

  20365 17 017322   000001 236000 18                 LDQ     1
        17 017323   000003 356100                    ANSQ    3,,PR0

  20366 17 017324   000002 236000 18                 LDQ     2
        17 017325   000003 356100                    ANSQ    3,,PR0
PL6.E3A0      #001=COBOLRW File=COBOLRW.:Z8A6TSI                                 SAT 08/09/97 09:25 Page:382

  20367 17 017326   000003 236000 18                 LDQ     3
        17 017327   000003 356100                    ANSQ    3,,PR0

  20368 17 017330   000004 236000 18                 LDQ     4
        17 017331   000003 356100                    ANSQ    3,,PR0

  20369 17 017332   000505 220003                    LDX0    325,DU
        17 017333   000003 440100                    SXL0    3,,PR0

      752    20371        %NEWRSW;
      753    20374        %SEARCH (RWD='OUTPUT',                 RWNO=%RSV_WRD_OUTPUT);

  20378 17 017334   002731 054000 1                  AOS     NUMBER_OF_RESERVED_WORDS

  20379 17 017335   000006 235007                    LDA     6,DL
        17 017336   000010 755000 6                  STA     LEX_SYMBOL+8

  20380 17 017337   040000 100400                    MLR     fill='040'O
        17 017340   001400 000006 16                 ADSC9   768                      cn=0,n=6
        17 017341   000011 000504 6                  ADSC9   LEX_SYMBOL+9             cn=0,n=324

  20381 17 017342   000000 631400 18                 EPPR1   0
        17 017343   000000 701000 xent               TSX1    Z8AH$SEARCH_
        17 017344   000000 011000                    NOP     0

  20382 17 017345   000000 470400 2                  LDP0    DNT$
        17 017346   400000 236003                    LDQ     -131072,DU
        17 017347   000003 256100                    ORSQ    3,,PR0

  20383 17 017350   000001 236000 18                 LDQ     1
        17 017351   000003 356100                    ANSQ    3,,PR0

  20384 17 017352   000002 236000 18                 LDQ     2
        17 017353   000003 356100                    ANSQ    3,,PR0

  20385 17 017354   000003 236000 18                 LDQ     3
PL6.E3A0      #001=COBOLRW File=COBOLRW.:Z8A6TSI                                 SAT 08/09/97 09:25 Page:383
        17 017355   000003 356100                    ANSQ    3,,PR0

  20386 17 017356   000004 236000 18                 LDQ     4
        17 017357   000003 356100                    ANSQ    3,,PR0

  20387 17 017360   000506 220003                    LDX0    326,DU
        17 017361   000003 440100                    SXL0    3,,PR0

      754    20389        %NEWRSW;
      755    20392        %SEARCH (RWD='OUTPUT-MODE',            RWNO=%RSV_WRD_OUTPUT_MODE);

  20396 17 017362   002731 054000 1                  AOS     NUMBER_OF_RESERVED_WORDS

  20397 17 017363   000013 235007                    LDA     11,DL
        17 017364   000010 755000 6                  STA     LEX_SYMBOL+8

  20398 17 017365   040000 100400                    MLR     fill='040'O
        17 017366   001402 000013 16                 ADSC9   770                      cn=0,n=11
        17 017367   000011 000504 6                  ADSC9   LEX_SYMBOL+9             cn=0,n=324

  20399 17 017370   000000 631400 18                 EPPR1   0
        17 017371   000000 701000 xent               TSX1    Z8AH$SEARCH_
        17 017372   000000 011000                    NOP     0

  20400 17 017373   000000 470400 2                  LDP0    DNT$
        17 017374   400000 236003                    LDQ     -131072,DU
        17 017375   000003 256100                    ORSQ    3,,PR0

  20401 17 017376   000001 236000 18                 LDQ     1
        17 017377   000003 356100                    ANSQ    3,,PR0

  20402 17 017400   000002 236000 18                 LDQ     2
        17 017401   000003 356100                    ANSQ    3,,PR0

  20403 17 017402   000003 236000 18                 LDQ     3
        17 017403   000003 356100                    ANSQ    3,,PR0

PL6.E3A0      #001=COBOLRW File=COBOLRW.:Z8A6TSI                                 SAT 08/09/97 09:25 Page:384
  20404 17 017404   000004 236000 18                 LDQ     4
        17 017405   000003 356100                    ANSQ    3,,PR0

  20405 17 017406   000507 220003                    LDX0    327,DU
        17 017407   000003 440100                    SXL0    3,,PR0

      756    20407        %NEWRSW;
      757    20410        %SEARCH (RWD='OVERFLOW',               RWNO=%RSV_WRD_OVERFLOW);

  20414 17 017410   002731 054000 1                  AOS     NUMBER_OF_RESERVED_WORDS

  20415 17 017411   000010 235007                    LDA     8,DL
        17 017412   000010 755000 6                  STA     LEX_SYMBOL+8

  20416 17 017413   040000 100400                    MLR     fill='040'O
        17 017414   001405 000010 16                 ADSC9   773                      cn=0,n=8
        17 017415   000011 000504 6                  ADSC9   LEX_SYMBOL+9             cn=0,n=324

  20417 17 017416   000000 631400 18                 EPPR1   0
        17 017417   000000 701000 xent               TSX1    Z8AH$SEARCH_
        17 017420   000000 011000                    NOP     0

  20418 17 017421   000000 470400 2                  LDP0    DNT$
        17 017422   400000 236003                    LDQ     -131072,DU
        17 017423   000003 256100                    ORSQ    3,,PR0

  20419 17 017424   000001 236000 18                 LDQ     1
        17 017425   000003 356100                    ANSQ    3,,PR0

  20420 17 017426   000002 236000 18                 LDQ     2
        17 017427   000003 356100                    ANSQ    3,,PR0

  20421 17 017430   000003 236000 18                 LDQ     3
        17 017431   000003 356100                    ANSQ    3,,PR0

  20422 17 017432   000004 236000 18                 LDQ     4
        17 017433   000003 356100                    ANSQ    3,,PR0
PL6.E3A0      #001=COBOLRW File=COBOLRW.:Z8A6TSI                                 SAT 08/09/97 09:25 Page:385

  20423 17 017434   000510 220003                    LDX0    328,DU
        17 017435   000003 440100                    SXL0    3,,PR0

      758    20425        %NEWRSW;
      759    20428        %SEARCH (RWD='OWNER',                  RWNO=%RSV_WRD_OWNER);

  20432 17 017436   002731 054000 1                  AOS     NUMBER_OF_RESERVED_WORDS

  20433 17 017437   000005 235007                    LDA     5,DL
        17 017440   000010 755000 6                  STA     LEX_SYMBOL+8

  20434 17 017441   040000 100400                    MLR     fill='040'O
        17 017442   001407 000005 16                 ADSC9   775                      cn=0,n=5
        17 017443   000011 000504 6                  ADSC9   LEX_SYMBOL+9             cn=0,n=324

  20435 17 017444   000000 631400 18                 EPPR1   0
        17 017445   000000 701000 xent               TSX1    Z8AH$SEARCH_
        17 017446   000000 011000                    NOP     0

  20436 17 017447   000000 470400 2                  LDP0    DNT$
        17 017450   400000 236003                    LDQ     -131072,DU
        17 017451   000003 256100                    ORSQ    3,,PR0

  20437 17 017452   000001 236000 18                 LDQ     1
        17 017453   000003 356100                    ANSQ    3,,PR0

  20438 17 017454   000002 236000 18                 LDQ     2
        17 017455   000003 356100                    ANSQ    3,,PR0

  20439 17 017456   000003 236000 18                 LDQ     3
        17 017457   000003 356100                    ANSQ    3,,PR0

  20440 17 017460   000004 236000 18                 LDQ     4
        17 017461   000003 356100                    ANSQ    3,,PR0

  20441 17 017462   000511 220003                    LDX0    329,DU
PL6.E3A0      #001=COBOLRW File=COBOLRW.:Z8A6TSI                                 SAT 08/09/97 09:25 Page:386
        17 017463   000003 440100                    SXL0    3,,PR0

      760    20443        %NEWRSW;
      761    20446        %SEARCH (RWD='PADDING',                RWNO=%RSV_WRD_PADDING);

  20450 17 017464   002731 054000 1                  AOS     NUMBER_OF_RESERVED_WORDS

  20451 17 017465   000007 235007                    LDA     7,DL
        17 017466   000010 755000 6                  STA     LEX_SYMBOL+8

  20452 17 017467   040000 100400                    MLR     fill='040'O
        17 017470   001411 000007 16                 ADSC9   777                      cn=0,n=7
        17 017471   000011 000504 6                  ADSC9   LEX_SYMBOL+9             cn=0,n=324

  20453 17 017472   000000 631400 18                 EPPR1   0
        17 017473   000000 701000 xent               TSX1    Z8AH$SEARCH_
        17 017474   000000 011000                    NOP     0

  20454 17 017475   000000 470400 2                  LDP0    DNT$
        17 017476   400000 236003                    LDQ     -131072,DU
        17 017477   000003 256100                    ORSQ    3,,PR0

  20455 17 017500   000001 236000 18                 LDQ     1
        17 017501   000003 356100                    ANSQ    3,,PR0

  20456 17 017502   000002 236000 18                 LDQ     2
        17 017503   000003 356100                    ANSQ    3,,PR0

  20457 17 017504   000003 236000 18                 LDQ     3
        17 017505   000003 356100                    ANSQ    3,,PR0

  20458 17 017506   000004 236000 18                 LDQ     4
        17 017507   000003 356100                    ANSQ    3,,PR0

  20459 17 017510   000512 220003                    LDX0    330,DU
        17 017511   000003 440100                    SXL0    3,,PR0

PL6.E3A0      #001=COBOLRW File=COBOLRW.:Z8A6TSI                                 SAT 08/09/97 09:25 Page:387
      762    20461        %NEWRSW;
      763    20464        %SEARCH (RWD='PAGE',                   RWNO=%RSV_WRD_PAGE);

  20468 17 017512   002731 054000 1                  AOS     NUMBER_OF_RESERVED_WORDS

  20469 17 017513   000004 235007                    LDA     4,DL
        17 017514   000010 755000 6                  STA     LEX_SYMBOL+8

  20470 17 017515   040000 100400                    MLR     fill='040'O
        17 017516   001413 000004 16                 ADSC9   779                      cn=0,n=4
        17 017517   000011 000504 6                  ADSC9   LEX_SYMBOL+9             cn=0,n=324

  20471 17 017520   000000 631400 18                 EPPR1   0
        17 017521   000000 701000 xent               TSX1    Z8AH$SEARCH_
        17 017522   000000 011000                    NOP     0

  20472 17 017523   000000 470400 2                  LDP0    DNT$
        17 017524   400000 236003                    LDQ     -131072,DU
        17 017525   000003 256100                    ORSQ    3,,PR0

  20473 17 017526   000001 236000 18                 LDQ     1
        17 017527   000003 356100                    ANSQ    3,,PR0

  20474 17 017530   000002 236000 18                 LDQ     2
        17 017531   000003 356100                    ANSQ    3,,PR0

  20475 17 017532   000003 236000 18                 LDQ     3
        17 017533   000003 356100                    ANSQ    3,,PR0

  20476 17 017534   000004 236000 18                 LDQ     4
        17 017535   000003 356100                    ANSQ    3,,PR0

  20477 17 017536   000513 220003                    LDX0    331,DU
        17 017537   000003 440100                    SXL0    3,,PR0

      764    20479        %SEARCH (RWD='H-HOF',                  RWNO=%RSV_WRD_PAGE);

PL6.E3A0      #001=COBOLRW File=COBOLRW.:Z8A6TSI                                 SAT 08/09/97 09:25 Page:388
  20483 17 017540   002731 054000 1                  AOS     NUMBER_OF_RESERVED_WORDS

  20484 17 017541   000005 235007                    LDA     5,DL
        17 017542   000010 755000 6                  STA     LEX_SYMBOL+8

  20485 17 017543   040000 100400                    MLR     fill='040'O
        17 017544   001414 000005 16                 ADSC9   780                      cn=0,n=5
        17 017545   000011 000504 6                  ADSC9   LEX_SYMBOL+9             cn=0,n=324

  20486 17 017546   000000 631400 18                 EPPR1   0
        17 017547   000000 701000 xent               TSX1    Z8AH$SEARCH_
        17 017550   000000 011000                    NOP     0

  20487 17 017551   000000 470400 2                  LDP0    DNT$
        17 017552   400000 236003                    LDQ     -131072,DU
        17 017553   000003 256100                    ORSQ    3,,PR0

  20488 17 017554   000001 236000 18                 LDQ     1
        17 017555   000003 356100                    ANSQ    3,,PR0

  20489 17 017556   000002 236000 18                 LDQ     2
        17 017557   000003 356100                    ANSQ    3,,PR0

  20490 17 017560   000003 236000 18                 LDQ     3
        17 017561   000003 356100                    ANSQ    3,,PR0

  20491 17 017562   000004 236000 18                 LDQ     4
        17 017563   000003 356100                    ANSQ    3,,PR0

  20492 17 017564   000513 220003                    LDX0    331,DU
        17 017565   000003 440100                    SXL0    3,,PR0

      765    20494        %NEWRSW;
      766    20497        %SEARCH (RWD='PERFORM',                RWNO=%RSV_WRD_PERFORM);

  20501 17 017566   002731 054000 1                  AOS     NUMBER_OF_RESERVED_WORDS

PL6.E3A0      #001=COBOLRW File=COBOLRW.:Z8A6TSI                                 SAT 08/09/97 09:25 Page:389
  20502 17 017567   000007 235007                    LDA     7,DL
        17 017570   000010 755000 6                  STA     LEX_SYMBOL+8

  20503 17 017571   040000 100400                    MLR     fill='040'O
        17 017572   001416 000007 16                 ADSC9   782                      cn=0,n=7
        17 017573   000011 000504 6                  ADSC9   LEX_SYMBOL+9             cn=0,n=324

  20504 17 017574   000000 631400 18                 EPPR1   0
        17 017575   000000 701000 xent               TSX1    Z8AH$SEARCH_
        17 017576   000000 011000                    NOP     0

  20505 17 017577   000000 470400 2                  LDP0    DNT$
        17 017600   400000 236003                    LDQ     -131072,DU
        17 017601   000003 256100                    ORSQ    3,,PR0

  20506 17 017602   000001 236000 18                 LDQ     1
        17 017603   000003 356100                    ANSQ    3,,PR0

  20507 17 017604   000002 236000 18                 LDQ     2
        17 017605   000003 356100                    ANSQ    3,,PR0

  20508 17 017606   000003 236000 18                 LDQ     3
        17 017607   000003 356100                    ANSQ    3,,PR0

  20509 17 017610   000004 236000 18                 LDQ     4
        17 017611   000003 356100                    ANSQ    3,,PR0

  20510 17 017612   000514 220003                    LDX0    332,DU
        17 017613   000003 440100                    SXL0    3,,PR0

      767    20512        %NEWRSW;
      768    20515        %SEARCH (RWD='PERMANENT',              RWNO=%RSV_WRD_PERMANENT);

  20519 17 017614   002731 054000 1                  AOS     NUMBER_OF_RESERVED_WORDS

  20520 17 017615   000011 235007                    LDA     9,DL
        17 017616   000010 755000 6                  STA     LEX_SYMBOL+8
PL6.E3A0      #001=COBOLRW File=COBOLRW.:Z8A6TSI                                 SAT 08/09/97 09:25 Page:390

  20521 17 017617   040000 100400                    MLR     fill='040'O
        17 017620   001420 000011 16                 ADSC9   784                      cn=0,n=9
        17 017621   000011 000504 6                  ADSC9   LEX_SYMBOL+9             cn=0,n=324

  20522 17 017622   000000 631400 18                 EPPR1   0
        17 017623   000000 701000 xent               TSX1    Z8AH$SEARCH_
        17 017624   000000 011000                    NOP     0

  20523 17 017625   000000 470400 2                  LDP0    DNT$
        17 017626   400000 236003                    LDQ     -131072,DU
        17 017627   000003 256100                    ORSQ    3,,PR0

  20524 17 017630   000001 236000 18                 LDQ     1
        17 017631   000003 356100                    ANSQ    3,,PR0

  20525 17 017632   000002 236000 18                 LDQ     2
        17 017633   000003 356100                    ANSQ    3,,PR0

  20526 17 017634   000003 236000 18                 LDQ     3
        17 017635   000003 356100                    ANSQ    3,,PR0

  20527 17 017636   000004 236000 18                 LDQ     4
        17 017637   000003 356100                    ANSQ    3,,PR0

  20528 17 017640   000515 220003                    LDX0    333,DU
        17 017641   000003 440100                    SXL0    3,,PR0

      769    20530        %NEWRSW;
      770    20533        %SEARCH (RWD='PF',                     RWNO=%RSV_WRD_PF);

  20537 17 017642   002731 054000 1                  AOS     NUMBER_OF_RESERVED_WORDS

  20538 17 017643   000002 235007                    LDA     2,DL
        17 017644   000010 755000 6                  STA     LEX_SYMBOL+8

  20539 17 017645   040000 100400                    MLR     fill='040'O
PL6.E3A0      #001=COBOLRW File=COBOLRW.:Z8A6TSI                                 SAT 08/09/97 09:25 Page:391
        17 017646   001423 000002 16                 ADSC9   787                      cn=0,n=2
        17 017647   000011 000504 6                  ADSC9   LEX_SYMBOL+9             cn=0,n=324

  20540 17 017650   000000 631400 18                 EPPR1   0
        17 017651   000000 701000 xent               TSX1    Z8AH$SEARCH_
        17 017652   000000 011000                    NOP     0

  20541 17 017653   000000 470400 2                  LDP0    DNT$
        17 017654   400000 236003                    LDQ     -131072,DU
        17 017655   000003 256100                    ORSQ    3,,PR0

  20542 17 017656   000001 236000 18                 LDQ     1
        17 017657   000003 356100                    ANSQ    3,,PR0

  20543 17 017660   000002 236000 18                 LDQ     2
        17 017661   000003 356100                    ANSQ    3,,PR0

  20544 17 017662   000003 236000 18                 LDQ     3
        17 017663   000003 356100                    ANSQ    3,,PR0

  20545 17 017664   000004 236000 18                 LDQ     4
        17 017665   000003 356100                    ANSQ    3,,PR0

  20546 17 017666   000516 220003                    LDX0    334,DU
        17 017667   000003 440100                    SXL0    3,,PR0

      771    20548        %NEWRSW;
      772    20551        %SEARCH (RWD='PH',                     RWNO=%RSV_WRD_PH);

  20555 17 017670   002731 054000 1                  AOS     NUMBER_OF_RESERVED_WORDS

  20556 17 017671   000002 235007                    LDA     2,DL
        17 017672   000010 755000 6                  STA     LEX_SYMBOL+8

  20557 17 017673   040000 100400                    MLR     fill='040'O
        17 017674   001424 000002 16                 ADSC9   788                      cn=0,n=2
        17 017675   000011 000504 6                  ADSC9   LEX_SYMBOL+9             cn=0,n=324
PL6.E3A0      #001=COBOLRW File=COBOLRW.:Z8A6TSI                                 SAT 08/09/97 09:25 Page:392

  20558 17 017676   000000 631400 18                 EPPR1   0
        17 017677   000000 701000 xent               TSX1    Z8AH$SEARCH_
        17 017700   000000 011000                    NOP     0

  20559 17 017701   000000 470400 2                  LDP0    DNT$
        17 017702   400000 236003                    LDQ     -131072,DU
        17 017703   000003 256100                    ORSQ    3,,PR0

  20560 17 017704   000001 236000 18                 LDQ     1
        17 017705   000003 356100                    ANSQ    3,,PR0

  20561 17 017706   000002 236000 18                 LDQ     2
        17 017707   000003 356100                    ANSQ    3,,PR0

  20562 17 017710   000003 236000 18                 LDQ     3
        17 017711   000003 356100                    ANSQ    3,,PR0

  20563 17 017712   000004 236000 18                 LDQ     4
        17 017713   000003 356100                    ANSQ    3,,PR0

  20564 17 017714   000517 220003                    LDX0    335,DU
        17 017715   000003 440100                    SXL0    3,,PR0

      773    20566        %NEWRSW;
      774    20569        %SEARCH (RWD='PICTURE',                RWNO=%RSV_WRD_PICTURE);

  20573 17 017716   002731 054000 1                  AOS     NUMBER_OF_RESERVED_WORDS

  20574 17 017717   000007 235007                    LDA     7,DL
        17 017720   000010 755000 6                  STA     LEX_SYMBOL+8

  20575 17 017721   040000 100400                    MLR     fill='040'O
        17 017722   001425 000007 16                 ADSC9   789                      cn=0,n=7
        17 017723   000011 000504 6                  ADSC9   LEX_SYMBOL+9             cn=0,n=324

  20576 17 017724   000000 631400 18                 EPPR1   0
PL6.E3A0      #001=COBOLRW File=COBOLRW.:Z8A6TSI                                 SAT 08/09/97 09:25 Page:393
        17 017725   000000 701000 xent               TSX1    Z8AH$SEARCH_
        17 017726   000000 011000                    NOP     0

  20577 17 017727   000000 470400 2                  LDP0    DNT$
        17 017730   400000 236003                    LDQ     -131072,DU
        17 017731   000003 256100                    ORSQ    3,,PR0

  20578 17 017732   000001 236000 18                 LDQ     1
        17 017733   000003 356100                    ANSQ    3,,PR0

  20579 17 017734   000002 236000 18                 LDQ     2
        17 017735   000003 356100                    ANSQ    3,,PR0

  20580 17 017736   000003 236000 18                 LDQ     3
        17 017737   000003 356100                    ANSQ    3,,PR0

  20581 17 017740   000004 236000 18                 LDQ     4
        17 017741   000003 356100                    ANSQ    3,,PR0

  20582 17 017742   000520 220003                    LDX0    336,DU
        17 017743   000003 440100                    SXL0    3,,PR0

      775    20584        %SEARCH (RWD='PIC',                    RWNO=%RSV_WRD_PICTURE);

  20588 17 017744   002731 054000 1                  AOS     NUMBER_OF_RESERVED_WORDS

  20589 17 017745   000003 235007                    LDA     3,DL
        17 017746   000010 755000 6                  STA     LEX_SYMBOL+8

  20590 17 017747   040000 100400                    MLR     fill='040'O
        17 017750   001425 000003 16                 ADSC9   789                      cn=0,n=3
        17 017751   000011 000504 6                  ADSC9   LEX_SYMBOL+9             cn=0,n=324

  20591 17 017752   000000 631400 18                 EPPR1   0
        17 017753   000000 701000 xent               TSX1    Z8AH$SEARCH_
        17 017754   000000 011000                    NOP     0

PL6.E3A0      #001=COBOLRW File=COBOLRW.:Z8A6TSI                                 SAT 08/09/97 09:25 Page:394
  20592 17 017755   000000 470400 2                  LDP0    DNT$
        17 017756   400000 236003                    LDQ     -131072,DU
        17 017757   000003 256100                    ORSQ    3,,PR0

  20593 17 017760   000001 236000 18                 LDQ     1
        17 017761   000003 356100                    ANSQ    3,,PR0

  20594 17 017762   000002 236000 18                 LDQ     2
        17 017763   000003 356100                    ANSQ    3,,PR0

  20595 17 017764   000003 236000 18                 LDQ     3
        17 017765   000003 356100                    ANSQ    3,,PR0

  20596 17 017766   000004 236000 18                 LDQ     4
        17 017767   000003 356100                    ANSQ    3,,PR0

  20597 17 017770   000520 220003                    LDX0    336,DU
        17 017771   000003 440100                    SXL0    3,,PR0

      776    20599        %NEWRSW;
      777    20602        %SEARCH (RWD='PLUS',                   RWNO=%RSV_WRD_PLUS);

  20606 17 017772   002731 054000 1                  AOS     NUMBER_OF_RESERVED_WORDS

  20607 17 017773   000004 235007                    LDA     4,DL
        17 017774   000010 755000 6                  STA     LEX_SYMBOL+8

  20608 17 017775   040000 100400                    MLR     fill='040'O
        17 017776   001427 000004 16                 ADSC9   791                      cn=0,n=4
        17 017777   000011 000504 6                  ADSC9   LEX_SYMBOL+9             cn=0,n=324

  20609 17 020000   000000 631400 18                 EPPR1   0
        17 020001   000000 701000 xent               TSX1    Z8AH$SEARCH_
        17 020002   000000 011000                    NOP     0

  20610 17 020003   000000 470400 2                  LDP0    DNT$
        17 020004   400000 236003                    LDQ     -131072,DU
PL6.E3A0      #001=COBOLRW File=COBOLRW.:Z8A6TSI                                 SAT 08/09/97 09:25 Page:395
        17 020005   000003 256100                    ORSQ    3,,PR0

  20611 17 020006   000001 236000 18                 LDQ     1
        17 020007   000003 356100                    ANSQ    3,,PR0

  20612 17 020010   000002 236000 18                 LDQ     2
        17 020011   000003 356100                    ANSQ    3,,PR0

  20613 17 020012   000003 236000 18                 LDQ     3
        17 020013   000003 356100                    ANSQ    3,,PR0

  20614 17 020014   000004 236000 18                 LDQ     4
        17 020015   000003 356100                    ANSQ    3,,PR0

  20615 17 020016   000521 220003                    LDX0    337,DU
        17 020017   000003 440100                    SXL0    3,,PR0

      778    20617        %NEWRSW;
      779    20620        %SEARCH (RWD='POINTER',                RWNO=%RSV_WRD_POINTER);

  20624 17 020020   002731 054000 1                  AOS     NUMBER_OF_RESERVED_WORDS

  20625 17 020021   000007 235007                    LDA     7,DL
        17 020022   000010 755000 6                  STA     LEX_SYMBOL+8

  20626 17 020023   040000 100400                    MLR     fill='040'O
        17 020024   001430 000007 16                 ADSC9   792                      cn=0,n=7
        17 020025   000011 000504 6                  ADSC9   LEX_SYMBOL+9             cn=0,n=324

  20627 17 020026   000000 631400 18                 EPPR1   0
        17 020027   000000 701000 xent               TSX1    Z8AH$SEARCH_
        17 020030   000000 011000                    NOP     0

  20628 17 020031   000000 470400 2                  LDP0    DNT$
        17 020032   400000 236003                    LDQ     -131072,DU
        17 020033   000003 256100                    ORSQ    3,,PR0

PL6.E3A0      #001=COBOLRW File=COBOLRW.:Z8A6TSI                                 SAT 08/09/97 09:25 Page:396
  20629 17 020034   000001 236000 18                 LDQ     1
        17 020035   000003 356100                    ANSQ    3,,PR0

  20630 17 020036   000002 236000 18                 LDQ     2
        17 020037   000003 356100                    ANSQ    3,,PR0

  20631 17 020040   000003 236000 18                 LDQ     3
        17 020041   000003 356100                    ANSQ    3,,PR0

  20632 17 020042   000004 236000 18                 LDQ     4
        17 020043   000003 356100                    ANSQ    3,,PR0

  20633 17 020044   000522 220003                    LDX0    338,DU
        17 020045   000003 440100                    SXL0    3,,PR0

      780    20635        %NEWRSW;
      781    20638        %SEARCH (RWD='POSITION',               RWNO=%RSV_WRD_POSITION);

  20642 17 020046   002731 054000 1                  AOS     NUMBER_OF_RESERVED_WORDS

  20643 17 020047   000010 235007                    LDA     8,DL
        17 020050   000010 755000 6                  STA     LEX_SYMBOL+8

  20644 17 020051   040000 100400                    MLR     fill='040'O
        17 020052   001432 000010 16                 ADSC9   794                      cn=0,n=8
        17 020053   000011 000504 6                  ADSC9   LEX_SYMBOL+9             cn=0,n=324

  20645 17 020054   000000 631400 18                 EPPR1   0
        17 020055   000000 701000 xent               TSX1    Z8AH$SEARCH_
        17 020056   000000 011000                    NOP     0

  20646 17 020057   000000 470400 2                  LDP0    DNT$
        17 020060   400000 236003                    LDQ     -131072,DU
        17 020061   000003 256100                    ORSQ    3,,PR0

  20647 17 020062   000001 236000 18                 LDQ     1
        17 020063   000003 356100                    ANSQ    3,,PR0
PL6.E3A0      #001=COBOLRW File=COBOLRW.:Z8A6TSI                                 SAT 08/09/97 09:25 Page:397

  20648 17 020064   000002 236000 18                 LDQ     2
        17 020065   000003 356100                    ANSQ    3,,PR0

  20649 17 020066   000003 236000 18                 LDQ     3
        17 020067   000003 356100                    ANSQ    3,,PR0

  20650 17 020070   000004 236000 18                 LDQ     4
        17 020071   000003 356100                    ANSQ    3,,PR0

  20651 17 020072   000523 220003                    LDX0    339,DU
        17 020073   000003 440100                    SXL0    3,,PR0

      782    20653        %NEWRSW;
      783    20656        %SEARCH (RWD='POSITIONING',            RWNO=%RSV_WRD_POSITIONING);

  20660 17 020074   002731 054000 1                  AOS     NUMBER_OF_RESERVED_WORDS

  20661 17 020075   000013 235007                    LDA     11,DL
        17 020076   000010 755000 6                  STA     LEX_SYMBOL+8

  20662 17 020077   040000 100400                    MLR     fill='040'O
        17 020100   001434 000013 16                 ADSC9   796                      cn=0,n=11
        17 020101   000011 000504 6                  ADSC9   LEX_SYMBOL+9             cn=0,n=324

  20663 17 020102   000000 631400 18                 EPPR1   0
        17 020103   000000 701000 xent               TSX1    Z8AH$SEARCH_
        17 020104   000000 011000                    NOP     0

  20664 17 020105   000000 470400 2                  LDP0    DNT$
        17 020106   400000 236003                    LDQ     -131072,DU
        17 020107   000003 256100                    ORSQ    3,,PR0

  20665 17 020110   000001 236000 18                 LDQ     1
        17 020111   000003 356100                    ANSQ    3,,PR0

  20666 17 020112   000002 236000 18                 LDQ     2
PL6.E3A0      #001=COBOLRW File=COBOLRW.:Z8A6TSI                                 SAT 08/09/97 09:25 Page:398
        17 020113   000003 356100                    ANSQ    3,,PR0

  20667 17 020114   000003 236000 18                 LDQ     3
        17 020115   000003 356100                    ANSQ    3,,PR0

  20668 17 020116   000004 236000 18                 LDQ     4
        17 020117   000003 356100                    ANSQ    3,,PR0

  20669 17 020120   000524 220003                    LDX0    340,DU
        17 020121   000003 440100                    SXL0    3,,PR0

      784    20671        %NEWRSW;
      785    20674        %SEARCH (RWD='POSITIVE',               RWNO=%RSV_WRD_POSITIVE);

  20678 17 020122   002731 054000 1                  AOS     NUMBER_OF_RESERVED_WORDS

  20679 17 020123   000010 235007                    LDA     8,DL
        17 020124   000010 755000 6                  STA     LEX_SYMBOL+8

  20680 17 020125   040000 100400                    MLR     fill='040'O
        17 020126   001437 000010 16                 ADSC9   799                      cn=0,n=8
        17 020127   000011 000504 6                  ADSC9   LEX_SYMBOL+9             cn=0,n=324

  20681 17 020130   000000 631400 18                 EPPR1   0
        17 020131   000000 701000 xent               TSX1    Z8AH$SEARCH_
        17 020132   000000 011000                    NOP     0

  20682 17 020133   000000 470400 2                  LDP0    DNT$
        17 020134   400000 236003                    LDQ     -131072,DU
        17 020135   000003 256100                    ORSQ    3,,PR0

  20683 17 020136   000001 236000 18                 LDQ     1
        17 020137   000003 356100                    ANSQ    3,,PR0

  20684 17 020140   000002 236000 18                 LDQ     2
        17 020141   000003 356100                    ANSQ    3,,PR0

PL6.E3A0      #001=COBOLRW File=COBOLRW.:Z8A6TSI                                 SAT 08/09/97 09:25 Page:399
  20685 17 020142   000003 236000 18                 LDQ     3
        17 020143   000003 356100                    ANSQ    3,,PR0

  20686 17 020144   000004 236000 18                 LDQ     4
        17 020145   000003 356100                    ANSQ    3,,PR0

  20687 17 020146   000525 220003                    LDX0    341,DU
        17 020147   000003 440100                    SXL0    3,,PR0

      786    20689        %NEWRSW;
      787    20692        %SEARCH (RWD='PRECALCULATE',           RWNO=%RSV_WRD_PRECALCULATE);

  20696 17 020150   002731 054000 1                  AOS     NUMBER_OF_RESERVED_WORDS

  20697 17 020151   000014 235007                    LDA     12,DL
        17 020152   000010 755000 6                  STA     LEX_SYMBOL+8

  20698 17 020153   040000 100400                    MLR     fill='040'O
        17 020154   001441 000014 16                 ADSC9   801                      cn=0,n=12
        17 020155   000011 000504 6                  ADSC9   LEX_SYMBOL+9             cn=0,n=324

  20699 17 020156   000000 631400 18                 EPPR1   0
        17 020157   000000 701000 xent               TSX1    Z8AH$SEARCH_
        17 020160   000000 011000                    NOP     0

  20700 17 020161   000000 470400 2                  LDP0    DNT$
        17 020162   400000 236003                    LDQ     -131072,DU
        17 020163   000003 256100                    ORSQ    3,,PR0

  20701 17 020164   000001 236000 18                 LDQ     1
        17 020165   000003 356100                    ANSQ    3,,PR0

  20702 17 020166   000002 236000 18                 LDQ     2
        17 020167   000003 356100                    ANSQ    3,,PR0

  20703 17 020170   000003 236000 18                 LDQ     3
        17 020171   000003 356100                    ANSQ    3,,PR0
PL6.E3A0      #001=COBOLRW File=COBOLRW.:Z8A6TSI                                 SAT 08/09/97 09:25 Page:400

  20704 17 020172   000004 236000 18                 LDQ     4
        17 020173   000003 356100                    ANSQ    3,,PR0

  20705 17 020174   000526 220003                    LDX0    342,DU
        17 020175   000003 440100                    SXL0    3,,PR0

      788    20707        %NEWRSW;
      789    20710        %SEARCH (RWD='PRINTING',               RWNO=%RSV_WRD_PRINTING);

  20714 17 020176   002731 054000 1                  AOS     NUMBER_OF_RESERVED_WORDS

  20715 17 020177   000010 235007                    LDA     8,DL
        17 020200   000010 755000 6                  STA     LEX_SYMBOL+8

  20716 17 020201   040000 100400                    MLR     fill='040'O
        17 020202   001444 000010 16                 ADSC9   804                      cn=0,n=8
        17 020203   000011 000504 6                  ADSC9   LEX_SYMBOL+9             cn=0,n=324

  20717 17 020204   000000 631400 18                 EPPR1   0
        17 020205   000000 701000 xent               TSX1    Z8AH$SEARCH_
        17 020206   000000 011000                    NOP     0

  20718 17 020207   000000 470400 2                  LDP0    DNT$
        17 020210   400000 236003                    LDQ     -131072,DU
        17 020211   000003 256100                    ORSQ    3,,PR0

  20719 17 020212   000001 236000 18                 LDQ     1
        17 020213   000003 356100                    ANSQ    3,,PR0

  20720 17 020214   000002 236000 18                 LDQ     2
        17 020215   000003 356100                    ANSQ    3,,PR0

  20721 17 020216   000003 236000 18                 LDQ     3
        17 020217   000003 356100                    ANSQ    3,,PR0

  20722 17 020220   000004 236000 18                 LDQ     4
PL6.E3A0      #001=COBOLRW File=COBOLRW.:Z8A6TSI                                 SAT 08/09/97 09:25 Page:401
        17 020221   000003 356100                    ANSQ    3,,PR0

  20723 17 020222   000527 220003                    LDX0    343,DU
        17 020223   000003 440100                    SXL0    3,,PR0

      790    20725        %NEWRSW;
      791    20728        %SEARCH (RWD='PRIOR',                  RWNO=%RSV_WRD_PRIOR);

  20732 17 020224   002731 054000 1                  AOS     NUMBER_OF_RESERVED_WORDS

  20733 17 020225   000005 235007                    LDA     5,DL
        17 020226   000010 755000 6                  STA     LEX_SYMBOL+8

  20734 17 020227   040000 100400                    MLR     fill='040'O
        17 020230   001446 000005 16                 ADSC9   806                      cn=0,n=5
        17 020231   000011 000504 6                  ADSC9   LEX_SYMBOL+9             cn=0,n=324

  20735 17 020232   000000 631400 18                 EPPR1   0
        17 020233   000000 701000 xent               TSX1    Z8AH$SEARCH_
        17 020234   000000 011000                    NOP     0

  20736 17 020235   000000 470400 2                  LDP0    DNT$
        17 020236   400000 236003                    LDQ     -131072,DU
        17 020237   000003 256100                    ORSQ    3,,PR0

  20737 17 020240   000001 236000 18                 LDQ     1
        17 020241   000003 356100                    ANSQ    3,,PR0

  20738 17 020242   000002 236000 18                 LDQ     2
        17 020243   000003 356100                    ANSQ    3,,PR0

  20739 17 020244   000003 236000 18                 LDQ     3
        17 020245   000003 356100                    ANSQ    3,,PR0

  20740 17 020246   000004 236000 18                 LDQ     4
        17 020247   000003 356100                    ANSQ    3,,PR0

PL6.E3A0      #001=COBOLRW File=COBOLRW.:Z8A6TSI                                 SAT 08/09/97 09:25 Page:402
  20741 17 020250   000530 220003                    LDX0    344,DU
        17 020251   000003 440100                    SXL0    3,,PR0

      792    20743        %NEWRSW;
      793    20746        %SEARCH (RWD='PRIVACY',                RWNO=%RSV_WRD_PRIVACY);

  20750 17 020252   002731 054000 1                  AOS     NUMBER_OF_RESERVED_WORDS

  20751 17 020253   000007 235007                    LDA     7,DL
        17 020254   000010 755000 6                  STA     LEX_SYMBOL+8

  20752 17 020255   040000 100400                    MLR     fill='040'O
        17 020256   001450 000007 16                 ADSC9   808                      cn=0,n=7
        17 020257   000011 000504 6                  ADSC9   LEX_SYMBOL+9             cn=0,n=324

  20753 17 020260   000000 631400 18                 EPPR1   0
        17 020261   000000 701000 xent               TSX1    Z8AH$SEARCH_
        17 020262   000000 011000                    NOP     0

  20754 17 020263   000000 470400 2                  LDP0    DNT$
        17 020264   400000 236003                    LDQ     -131072,DU
        17 020265   000003 256100                    ORSQ    3,,PR0

  20755 17 020266   000001 236000 18                 LDQ     1
        17 020267   000003 356100                    ANSQ    3,,PR0

  20756 17 020270   000002 236000 18                 LDQ     2
        17 020271   000003 356100                    ANSQ    3,,PR0

  20757 17 020272   000003 236000 18                 LDQ     3
        17 020273   000003 356100                    ANSQ    3,,PR0

  20758 17 020274   000004 236000 18                 LDQ     4
        17 020275   000003 356100                    ANSQ    3,,PR0

  20759 17 020276   000531 220003                    LDX0    345,DU
        17 020277   000003 440100                    SXL0    3,,PR0
PL6.E3A0      #001=COBOLRW File=COBOLRW.:Z8A6TSI                                 SAT 08/09/97 09:25 Page:403

      794    20761        %NEWRSW;
      795    20764        %SEARCH (RWD='PROCEDURE',              RWNO=%RSV_WRD_PROCEDURE);

  20768 17 020300   002731 054000 1                  AOS     NUMBER_OF_RESERVED_WORDS

  20769 17 020301   000011 235007                    LDA     9,DL
        17 020302   000010 755000 6                  STA     LEX_SYMBOL+8

  20770 17 020303   040000 100400                    MLR     fill='040'O
        17 020304   001452 000011 16                 ADSC9   810                      cn=0,n=9
        17 020305   000011 000504 6                  ADSC9   LEX_SYMBOL+9             cn=0,n=324

  20771 17 020306   000000 631400 18                 EPPR1   0
        17 020307   000000 701000 xent               TSX1    Z8AH$SEARCH_
        17 020310   000000 011000                    NOP     0

  20772 17 020311   000000 470400 2                  LDP0    DNT$
        17 020312   400000 236003                    LDQ     -131072,DU
        17 020313   000003 256100                    ORSQ    3,,PR0

  20773 17 020314   000001 236000 18                 LDQ     1
        17 020315   000003 356100                    ANSQ    3,,PR0

  20774 17 020316   000002 236000 18                 LDQ     2
        17 020317   000003 356100                    ANSQ    3,,PR0

  20775 17 020320   000003 236000 18                 LDQ     3
        17 020321   000003 356100                    ANSQ    3,,PR0

  20776 17 020322   000004 236000 18                 LDQ     4
        17 020323   000003 356100                    ANSQ    3,,PR0

  20777 17 020324   000532 220003                    LDX0    346,DU
        17 020325   000003 440100                    SXL0    3,,PR0

      796    20779        %NEWRSW;
PL6.E3A0      #001=COBOLRW File=COBOLRW.:Z8A6TSI                                 SAT 08/09/97 09:25 Page:404
      797    20782        %SEARCH (RWD='PROCEDURES',             RWNO=%RSV_WRD_PROCEDURES);

  20786 17 020326   002731 054000 1                  AOS     NUMBER_OF_RESERVED_WORDS

  20787 17 020327   000012 235007                    LDA     10,DL
        17 020330   000010 755000 6                  STA     LEX_SYMBOL+8

  20788 17 020331   040000 100400                    MLR     fill='040'O
        17 020332   001455 000012 16                 ADSC9   813                      cn=0,n=10
        17 020333   000011 000504 6                  ADSC9   LEX_SYMBOL+9             cn=0,n=324

  20789 17 020334   000000 631400 18                 EPPR1   0
        17 020335   000000 701000 xent               TSX1    Z8AH$SEARCH_
        17 020336   000000 011000                    NOP     0

  20790 17 020337   000000 470400 2                  LDP0    DNT$
        17 020340   400000 236003                    LDQ     -131072,DU
        17 020341   000003 256100                    ORSQ    3,,PR0

  20791 17 020342   000001 236000 18                 LDQ     1
        17 020343   000003 356100                    ANSQ    3,,PR0

  20792 17 020344   000002 236000 18                 LDQ     2
        17 020345   000003 356100                    ANSQ    3,,PR0

  20793 17 020346   000003 236000 18                 LDQ     3
        17 020347   000003 356100                    ANSQ    3,,PR0

  20794 17 020350   000004 236000 18                 LDQ     4
        17 020351   000003 356100                    ANSQ    3,,PR0

  20795 17 020352   000533 220003                    LDX0    347,DU
        17 020353   000003 440100                    SXL0    3,,PR0

      798    20797        %NEWRSW;
      799    20800        %SEARCH (RWD='PROCEED',                RWNO=%RSV_WRD_PROCEED);

PL6.E3A0      #001=COBOLRW File=COBOLRW.:Z8A6TSI                                 SAT 08/09/97 09:25 Page:405
  20804 17 020354   002731 054000 1                  AOS     NUMBER_OF_RESERVED_WORDS

  20805 17 020355   000007 235007                    LDA     7,DL
        17 020356   000010 755000 6                  STA     LEX_SYMBOL+8

  20806 17 020357   040000 100400                    MLR     fill='040'O
        17 020360   001460 000007 16                 ADSC9   816                      cn=0,n=7
        17 020361   000011 000504 6                  ADSC9   LEX_SYMBOL+9             cn=0,n=324

  20807 17 020362   000000 631400 18                 EPPR1   0
        17 020363   000000 701000 xent               TSX1    Z8AH$SEARCH_
        17 020364   000000 011000                    NOP     0

  20808 17 020365   000000 470400 2                  LDP0    DNT$
        17 020366   400000 236003                    LDQ     -131072,DU
        17 020367   000003 256100                    ORSQ    3,,PR0

  20809 17 020370   000001 236000 18                 LDQ     1
        17 020371   000003 356100                    ANSQ    3,,PR0

  20810 17 020372   000002 236000 18                 LDQ     2
        17 020373   000003 356100                    ANSQ    3,,PR0

  20811 17 020374   000003 236000 18                 LDQ     3
        17 020375   000003 356100                    ANSQ    3,,PR0

  20812 17 020376   000004 236000 18                 LDQ     4
        17 020377   000003 356100                    ANSQ    3,,PR0

  20813 17 020400   000534 220003                    LDX0    348,DU
        17 020401   000003 440100                    SXL0    3,,PR0

      800    20815        %NEWRSW;
      801    20818        %SEARCH (RWD='PROCESS-AREA',           RWNO=%RSV_WRD_PROCESS_AREA);

  20822 17 020402   002731 054000 1                  AOS     NUMBER_OF_RESERVED_WORDS

PL6.E3A0      #001=COBOLRW File=COBOLRW.:Z8A6TSI                                 SAT 08/09/97 09:25 Page:406
  20823 17 020403   000014 235007                    LDA     12,DL
        17 020404   000010 755000 6                  STA     LEX_SYMBOL+8

  20824 17 020405   040000 100400                    MLR     fill='040'O
        17 020406   001462 000014 16                 ADSC9   818                      cn=0,n=12
        17 020407   000011 000504 6                  ADSC9   LEX_SYMBOL+9             cn=0,n=324

  20825 17 020410   000000 631400 18                 EPPR1   0
        17 020411   000000 701000 xent               TSX1    Z8AH$SEARCH_
        17 020412   000000 011000                    NOP     0

  20826 17 020413   000000 470400 2                  LDP0    DNT$
        17 020414   400000 236003                    LDQ     -131072,DU
        17 020415   000003 256100                    ORSQ    3,,PR0

  20827 17 020416   000001 236000 18                 LDQ     1
        17 020417   000003 356100                    ANSQ    3,,PR0

  20828 17 020420   000002 236000 18                 LDQ     2
        17 020421   000003 356100                    ANSQ    3,,PR0

  20829 17 020422   000003 236000 18                 LDQ     3
        17 020423   000003 356100                    ANSQ    3,,PR0

  20830 17 020424   000004 236000 18                 LDQ     4
        17 020425   000003 356100                    ANSQ    3,,PR0

  20831 17 020426   000535 220003                    LDX0    349,DU
        17 020427   000003 440100                    SXL0    3,,PR0

      802    20833        %NEWRSW;
      803    20836        %SEARCH (RWD='PROGRAM',                RWNO=%RSV_WRD_PROGRAM);

  20840 17 020430   002731 054000 1                  AOS     NUMBER_OF_RESERVED_WORDS

  20841 17 020431   000007 235007                    LDA     7,DL
        17 020432   000010 755000 6                  STA     LEX_SYMBOL+8
PL6.E3A0      #001=COBOLRW File=COBOLRW.:Z8A6TSI                                 SAT 08/09/97 09:25 Page:407

  20842 17 020433   040000 100400                    MLR     fill='040'O
        17 020434   001465 000007 16                 ADSC9   821                      cn=0,n=7
        17 020435   000011 000504 6                  ADSC9   LEX_SYMBOL+9             cn=0,n=324

  20843 17 020436   000000 631400 18                 EPPR1   0
        17 020437   000000 701000 xent               TSX1    Z8AH$SEARCH_
        17 020440   000000 011000                    NOP     0

  20844 17 020441   000000 470400 2                  LDP0    DNT$
        17 020442   400000 236003                    LDQ     -131072,DU
        17 020443   000003 256100                    ORSQ    3,,PR0

  20845 17 020444   000001 236000 18                 LDQ     1
        17 020445   000003 356100                    ANSQ    3,,PR0

  20846 17 020446   000002 236000 18                 LDQ     2
        17 020447   000003 356100                    ANSQ    3,,PR0

  20847 17 020450   000003 236000 18                 LDQ     3
        17 020451   000003 356100                    ANSQ    3,,PR0

  20848 17 020452   000004 236000 18                 LDQ     4
        17 020453   000003 356100                    ANSQ    3,,PR0

  20849 17 020454   000536 220003                    LDX0    350,DU
        17 020455   000003 440100                    SXL0    3,,PR0

      804    20851        %NEWRSW;
      805    20854        %SEARCH (RWD='PROGRAM-ID',             RWNO=%RSV_WRD_PROGRAM_ID, MUST_AREAA=TRUE);

  20858 17 020456   002731 054000 1                  AOS     NUMBER_OF_RESERVED_WORDS

  20859 17 020457   000012 235007                    LDA     10,DL
        17 020460   000010 755000 6                  STA     LEX_SYMBOL+8

  20860 17 020461   040000 100400                    MLR     fill='040'O
PL6.E3A0      #001=COBOLRW File=COBOLRW.:Z8A6TSI                                 SAT 08/09/97 09:25 Page:408
        17 020462   001467 000012 16                 ADSC9   823                      cn=0,n=10
        17 020463   000011 000504 6                  ADSC9   LEX_SYMBOL+9             cn=0,n=324

  20861 17 020464   000000 631400 18                 EPPR1   0
        17 020465   000000 701000 xent               TSX1    Z8AH$SEARCH_
        17 020466   000000 011000                    NOP     0

  20862 17 020467   000000 470400 2                  LDP0    DNT$
        17 020470   400000 236003                    LDQ     -131072,DU
        17 020471   000003 256100                    ORSQ    3,,PR0

  20863 17 020472   000001 236000 18                 LDQ     1
        17 020473   000003 356100                    ANSQ    3,,PR0

  20864 17 020474   000002 236000 18                 LDQ     2
        17 020475   000003 356100                    ANSQ    3,,PR0

  20865 17 020476   000040 236003                    LDQ     32,DU
        17 020477   000003 256100                    ORSQ    3,,PR0

  20866 17 020500   000004 236000 18                 LDQ     4
        17 020501   000003 356100                    ANSQ    3,,PR0

  20867 17 020502   000537 220003                    LDX0    351,DU
        17 020503   000003 440100                    SXL0    3,,PR0

      806    20869        %NEWRSW;
      807    20872        %SEARCH (RWD='PROTECT',                RWNO=%RSV_WRD_PROTECT);

  20876 17 020504   002731 054000 1                  AOS     NUMBER_OF_RESERVED_WORDS

  20877 17 020505   000007 235007                    LDA     7,DL
        17 020506   000010 755000 6                  STA     LEX_SYMBOL+8

  20878 17 020507   040000 100400                    MLR     fill='040'O
        17 020510   001472 000007 16                 ADSC9   826                      cn=0,n=7
        17 020511   000011 000504 6                  ADSC9   LEX_SYMBOL+9             cn=0,n=324
PL6.E3A0      #001=COBOLRW File=COBOLRW.:Z8A6TSI                                 SAT 08/09/97 09:25 Page:409

  20879 17 020512   000000 631400 18                 EPPR1   0
        17 020513   000000 701000 xent               TSX1    Z8AH$SEARCH_
        17 020514   000000 011000                    NOP     0

  20880 17 020515   000000 470400 2                  LDP0    DNT$
        17 020516   400000 236003                    LDQ     -131072,DU
        17 020517   000003 256100                    ORSQ    3,,PR0

  20881 17 020520   000001 236000 18                 LDQ     1
        17 020521   000003 356100                    ANSQ    3,,PR0

  20882 17 020522   000002 236000 18                 LDQ     2
        17 020523   000003 356100                    ANSQ    3,,PR0

  20883 17 020524   000003 236000 18                 LDQ     3
        17 020525   000003 356100                    ANSQ    3,,PR0

  20884 17 020526   000004 236000 18                 LDQ     4
        17 020527   000003 356100                    ANSQ    3,,PR0

  20885 17 020530   000540 220003                    LDX0    352,DU
        17 020531   000003 440100                    SXL0    3,,PR0

      808    20887        %NEWRSW;
      809    20890        %SEARCH (RWD='PURGE',                  RWNO=%RSV_WRD_PURGE);

  20894 17 020532   002731 054000 1                  AOS     NUMBER_OF_RESERVED_WORDS

  20895 17 020533   000005 235007                    LDA     5,DL
        17 020534   000010 755000 6                  STA     LEX_SYMBOL+8

  20896 17 020535   040000 100400                    MLR     fill='040'O
        17 020536   001474 000005 16                 ADSC9   828                      cn=0,n=5
        17 020537   000011 000504 6                  ADSC9   LEX_SYMBOL+9             cn=0,n=324

  20897 17 020540   000000 631400 18                 EPPR1   0
PL6.E3A0      #001=COBOLRW File=COBOLRW.:Z8A6TSI                                 SAT 08/09/97 09:25 Page:410
        17 020541   000000 701000 xent               TSX1    Z8AH$SEARCH_
        17 020542   000000 011000                    NOP     0

  20898 17 020543   000000 470400 2                  LDP0    DNT$
        17 020544   400000 236003                    LDQ     -131072,DU
        17 020545   000003 256100                    ORSQ    3,,PR0

  20899 17 020546   000001 236000 18                 LDQ     1
        17 020547   000003 356100                    ANSQ    3,,PR0

  20900 17 020550   000002 236000 18                 LDQ     2
        17 020551   000003 356100                    ANSQ    3,,PR0

  20901 17 020552   000003 236000 18                 LDQ     3
        17 020553   000003 356100                    ANSQ    3,,PR0

  20902 17 020554   000004 236000 18                 LDQ     4
        17 020555   000003 356100                    ANSQ    3,,PR0

  20903 17 020556   000541 220003                    LDX0    353,DU
        17 020557   000003 440100                    SXL0    3,,PR0

      810    20905        %NEWRSW;
      811    20908        %SEARCH (RWD='QUEUE',                  RWNO=%RSV_WRD_QUEUE);

  20912 17 020560   002731 054000 1                  AOS     NUMBER_OF_RESERVED_WORDS

  20913 17 020561   000005 235007                    LDA     5,DL
        17 020562   000010 755000 6                  STA     LEX_SYMBOL+8

  20914 17 020563   040000 100400                    MLR     fill='040'O
        17 020564   001476 000005 16                 ADSC9   830                      cn=0,n=5
        17 020565   000011 000504 6                  ADSC9   LEX_SYMBOL+9             cn=0,n=324

  20915 17 020566   000000 631400 18                 EPPR1   0
        17 020567   000000 701000 xent               TSX1    Z8AH$SEARCH_
        17 020570   000000 011000                    NOP     0
PL6.E3A0      #001=COBOLRW File=COBOLRW.:Z8A6TSI                                 SAT 08/09/97 09:25 Page:411

  20916 17 020571   000000 470400 2                  LDP0    DNT$
        17 020572   400000 236003                    LDQ     -131072,DU
        17 020573   000003 256100                    ORSQ    3,,PR0

  20917 17 020574   000001 236000 18                 LDQ     1
        17 020575   000003 356100                    ANSQ    3,,PR0

  20918 17 020576   000002 236000 18                 LDQ     2
        17 020577   000003 356100                    ANSQ    3,,PR0

  20919 17 020600   000003 236000 18                 LDQ     3
        17 020601   000003 356100                    ANSQ    3,,PR0

  20920 17 020602   000004 236000 18                 LDQ     4
        17 020603   000003 356100                    ANSQ    3,,PR0

  20921 17 020604   000542 220003                    LDX0    354,DU
        17 020605   000003 440100                    SXL0    3,,PR0

      812    20923        %NEWRSW;
      813    20926        %SEARCH (RWD='QUOTES',                 RWNO=%RSV_WRD_QUOTES, FIG_CONSTANT=TRUE);

  20930 17 020606   002731 054000 1                  AOS     NUMBER_OF_RESERVED_WORDS

  20931 17 020607   000006 235007                    LDA     6,DL
        17 020610   000010 755000 6                  STA     LEX_SYMBOL+8

  20932 17 020611   040000 100400                    MLR     fill='040'O
        17 020612   001500 000006 16                 ADSC9   832                      cn=0,n=6
        17 020613   000011 000504 6                  ADSC9   LEX_SYMBOL+9             cn=0,n=324

  20933 17 020614   000000 631400 18                 EPPR1   0
        17 020615   000000 701000 xent               TSX1    Z8AH$SEARCH_
        17 020616   000000 011000                    NOP     0

  20934 17 020617   000000 470400 2                  LDP0    DNT$
PL6.E3A0      #001=COBOLRW File=COBOLRW.:Z8A6TSI                                 SAT 08/09/97 09:25 Page:412
        17 020620   400000 236003                    LDQ     -131072,DU
        17 020621   000003 256100                    ORSQ    3,,PR0

  20935 17 020622   000001 236000 18                 LDQ     1
        17 020623   000003 356100                    ANSQ    3,,PR0

  20936 17 020624   000002 236000 18                 LDQ     2
        17 020625   000003 356100                    ANSQ    3,,PR0

  20937 17 020626   000003 236000 18                 LDQ     3
        17 020627   000003 356100                    ANSQ    3,,PR0

  20938 17 020630   002000 236003                    LDQ     1024,DU
        17 020631   000003 256100                    ORSQ    3,,PR0

  20939 17 020632   000543 220003                    LDX0    355,DU
        17 020633   000003 440100                    SXL0    3,,PR0

      814    20941        %SEARCH (RWD='QUOTE',                  RWNO=%RSV_WRD_QUOTES, FIG_CONSTANT=TRUE);

  20945 17 020634   002731 054000 1                  AOS     NUMBER_OF_RESERVED_WORDS

  20946 17 020635   000005 235007                    LDA     5,DL
        17 020636   000010 755000 6                  STA     LEX_SYMBOL+8

  20947 17 020637   040000 100400                    MLR     fill='040'O
        17 020640   001500 000005 16                 ADSC9   832                      cn=0,n=5
        17 020641   000011 000504 6                  ADSC9   LEX_SYMBOL+9             cn=0,n=324

  20948 17 020642   000000 631400 18                 EPPR1   0
        17 020643   000000 701000 xent               TSX1    Z8AH$SEARCH_
        17 020644   000000 011000                    NOP     0

  20949 17 020645   000000 470400 2                  LDP0    DNT$
        17 020646   400000 236003                    LDQ     -131072,DU
        17 020647   000003 256100                    ORSQ    3,,PR0

PL6.E3A0      #001=COBOLRW File=COBOLRW.:Z8A6TSI                                 SAT 08/09/97 09:25 Page:413
  20950 17 020650   000001 236000 18                 LDQ     1
        17 020651   000003 356100                    ANSQ    3,,PR0

  20951 17 020652   000002 236000 18                 LDQ     2
        17 020653   000003 356100                    ANSQ    3,,PR0

  20952 17 020654   000003 236000 18                 LDQ     3
        17 020655   000003 356100                    ANSQ    3,,PR0

  20953 17 020656   002000 236003                    LDQ     1024,DU
        17 020657   000003 256100                    ORSQ    3,,PR0

  20954 17 020660   000543 220003                    LDX0    355,DU
        17 020661   000003 440100                    SXL0    3,,PR0

      815    20956        %NEWRSW;
      816    20959        %SEARCH (RWD='RANDOM',                 RWNO=%RSV_WRD_RANDOM);

  20963 17 020662   002731 054000 1                  AOS     NUMBER_OF_RESERVED_WORDS

  20964 17 020663   000006 235007                    LDA     6,DL
        17 020664   000010 755000 6                  STA     LEX_SYMBOL+8

  20965 17 020665   040000 100400                    MLR     fill='040'O
        17 020666   001502 000006 16                 ADSC9   834                      cn=0,n=6
        17 020667   000011 000504 6                  ADSC9   LEX_SYMBOL+9             cn=0,n=324

  20966 17 020670   000000 631400 18                 EPPR1   0
        17 020671   000000 701000 xent               TSX1    Z8AH$SEARCH_
        17 020672   000000 011000                    NOP     0

  20967 17 020673   000000 470400 2                  LDP0    DNT$
        17 020674   400000 236003                    LDQ     -131072,DU
        17 020675   000003 256100                    ORSQ    3,,PR0

  20968 17 020676   000001 236000 18                 LDQ     1
        17 020677   000003 356100                    ANSQ    3,,PR0
PL6.E3A0      #001=COBOLRW File=COBOLRW.:Z8A6TSI                                 SAT 08/09/97 09:25 Page:414

  20969 17 020700   000002 236000 18                 LDQ     2
        17 020701   000003 356100                    ANSQ    3,,PR0

  20970 17 020702   000003 236000 18                 LDQ     3
        17 020703   000003 356100                    ANSQ    3,,PR0

  20971 17 020704   000004 236000 18                 LDQ     4
        17 020705   000003 356100                    ANSQ    3,,PR0

  20972 17 020706   000544 220003                    LDX0    356,DU
        17 020707   000003 440100                    SXL0    3,,PR0

      817    20974        %NEWRSW;
      818    20977        %SEARCH (RWD='RD',                     RWNO=%RSV_WRD_RD);

  20981 17 020710   002731 054000 1                  AOS     NUMBER_OF_RESERVED_WORDS

  20982 17 020711   000002 235007                    LDA     2,DL
        17 020712   000010 755000 6                  STA     LEX_SYMBOL+8

  20983 17 020713   040000 100400                    MLR     fill='040'O
        17 020714   001504 000002 16                 ADSC9   836                      cn=0,n=2
        17 020715   000011 000504 6                  ADSC9   LEX_SYMBOL+9             cn=0,n=324

  20984 17 020716   000000 631400 18                 EPPR1   0
        17 020717   000000 701000 xent               TSX1    Z8AH$SEARCH_
        17 020720   000000 011000                    NOP     0

  20985 17 020721   000000 470400 2                  LDP0    DNT$
        17 020722   400000 236003                    LDQ     -131072,DU
        17 020723   000003 256100                    ORSQ    3,,PR0

  20986 17 020724   000001 236000 18                 LDQ     1
        17 020725   000003 356100                    ANSQ    3,,PR0

  20987 17 020726   000002 236000 18                 LDQ     2
PL6.E3A0      #001=COBOLRW File=COBOLRW.:Z8A6TSI                                 SAT 08/09/97 09:25 Page:415
        17 020727   000003 356100                    ANSQ    3,,PR0

  20988 17 020730   000003 236000 18                 LDQ     3
        17 020731   000003 356100                    ANSQ    3,,PR0

  20989 17 020732   000004 236000 18                 LDQ     4
        17 020733   000003 356100                    ANSQ    3,,PR0

  20990 17 020734   000545 220003                    LDX0    357,DU
        17 020735   000003 440100                    SXL0    3,,PR0

      819    20992        %NEWRSW;
      820    20995        %SEARCH (RWD='READ',                   RWNO=%RSV_WRD_READ);

  20999 17 020736   002731 054000 1                  AOS     NUMBER_OF_RESERVED_WORDS

  21000 17 020737   000004 235007                    LDA     4,DL
        17 020740   000010 755000 6                  STA     LEX_SYMBOL+8

  21001 17 020741   040000 100400                    MLR     fill='040'O
        17 020742   001505 000004 16                 ADSC9   837                      cn=0,n=4
        17 020743   000011 000504 6                  ADSC9   LEX_SYMBOL+9             cn=0,n=324

  21002 17 020744   000000 631400 18                 EPPR1   0
        17 020745   000000 701000 xent               TSX1    Z8AH$SEARCH_
        17 020746   000000 011000                    NOP     0

  21003 17 020747   000000 470400 2                  LDP0    DNT$
        17 020750   400000 236003                    LDQ     -131072,DU
        17 020751   000003 256100                    ORSQ    3,,PR0

  21004 17 020752   000001 236000 18                 LDQ     1
        17 020753   000003 356100                    ANSQ    3,,PR0

  21005 17 020754   000002 236000 18                 LDQ     2
        17 020755   000003 356100                    ANSQ    3,,PR0

PL6.E3A0      #001=COBOLRW File=COBOLRW.:Z8A6TSI                                 SAT 08/09/97 09:25 Page:416
  21006 17 020756   000003 236000 18                 LDQ     3
        17 020757   000003 356100                    ANSQ    3,,PR0

  21007 17 020760   000004 236000 18                 LDQ     4
        17 020761   000003 356100                    ANSQ    3,,PR0

  21008 17 020762   000546 220003                    LDX0    358,DU
        17 020763   000003 440100                    SXL0    3,,PR0

      821    21010        %NEWRSW;
      822    21013        %SEARCH (RWD='READY',                  RWNO=%RSV_WRD_READY);

  21017 17 020764   002731 054000 1                  AOS     NUMBER_OF_RESERVED_WORDS

  21018 17 020765   000005 235007                    LDA     5,DL
        17 020766   000010 755000 6                  STA     LEX_SYMBOL+8

  21019 17 020767   040000 100400                    MLR     fill='040'O
        17 020770   001506 000005 16                 ADSC9   838                      cn=0,n=5
        17 020771   000011 000504 6                  ADSC9   LEX_SYMBOL+9             cn=0,n=324

  21020 17 020772   000000 631400 18                 EPPR1   0
        17 020773   000000 701000 xent               TSX1    Z8AH$SEARCH_
        17 020774   000000 011000                    NOP     0

  21021 17 020775   000000 470400 2                  LDP0    DNT$
        17 020776   400000 236003                    LDQ     -131072,DU
        17 020777   000003 256100                    ORSQ    3,,PR0

  21022 17 021000   000001 236000 18                 LDQ     1
        17 021001   000003 356100                    ANSQ    3,,PR0

  21023 17 021002   000002 236000 18                 LDQ     2
        17 021003   000003 356100                    ANSQ    3,,PR0

  21024 17 021004   000003 236000 18                 LDQ     3
        17 021005   000003 356100                    ANSQ    3,,PR0
PL6.E3A0      #001=COBOLRW File=COBOLRW.:Z8A6TSI                                 SAT 08/09/97 09:25 Page:417

  21025 17 021006   000004 236000 18                 LDQ     4
        17 021007   000003 356100                    ANSQ    3,,PR0

  21026 17 021010   000547 220003                    LDX0    359,DU
        17 021011   000003 440100                    SXL0    3,,PR0

      823    21028        %NEWRSW;
      824    21031        %SEARCH (RWD='REALM',                  RWNO=%RSV_WRD_REALM);

  21035 17 021012   002731 054000 1                  AOS     NUMBER_OF_RESERVED_WORDS

  21036 17 021013   000005 235007                    LDA     5,DL
        17 021014   000010 755000 6                  STA     LEX_SYMBOL+8

  21037 17 021015   040000 100400                    MLR     fill='040'O
        17 021016   001510 000005 16                 ADSC9   840                      cn=0,n=5
        17 021017   000011 000504 6                  ADSC9   LEX_SYMBOL+9             cn=0,n=324

  21038 17 021020   000000 631400 18                 EPPR1   0
        17 021021   000000 701000 xent               TSX1    Z8AH$SEARCH_
        17 021022   000000 011000                    NOP     0

  21039 17 021023   000000 470400 2                  LDP0    DNT$
        17 021024   400000 236003                    LDQ     -131072,DU
        17 021025   000003 256100                    ORSQ    3,,PR0

  21040 17 021026   000001 236000 18                 LDQ     1
        17 021027   000003 356100                    ANSQ    3,,PR0

  21041 17 021030   000002 236000 18                 LDQ     2
        17 021031   000003 356100                    ANSQ    3,,PR0

  21042 17 021032   000003 236000 18                 LDQ     3
        17 021033   000003 356100                    ANSQ    3,,PR0

  21043 17 021034   000004 236000 18                 LDQ     4
PL6.E3A0      #001=COBOLRW File=COBOLRW.:Z8A6TSI                                 SAT 08/09/97 09:25 Page:418
        17 021035   000003 356100                    ANSQ    3,,PR0

  21044 17 021036   000550 220003                    LDX0    360,DU
        17 021037   000003 440100                    SXL0    3,,PR0

      825    21046        %NEWRSW;
      826    21049        %SEARCH (RWD='REALM-NAME',             RWNO=%RSV_WRD_REALM_NAME);

  21053 17 021040   002731 054000 1                  AOS     NUMBER_OF_RESERVED_WORDS

  21054 17 021041   000012 235007                    LDA     10,DL
        17 021042   000010 755000 6                  STA     LEX_SYMBOL+8

  21055 17 021043   040000 100400                    MLR     fill='040'O
        17 021044   001512 000012 16                 ADSC9   842                      cn=0,n=10
        17 021045   000011 000504 6                  ADSC9   LEX_SYMBOL+9             cn=0,n=324

  21056 17 021046   000000 631400 18                 EPPR1   0
        17 021047   000000 701000 xent               TSX1    Z8AH$SEARCH_
        17 021050   000000 011000                    NOP     0

  21057 17 021051   000000 470400 2                  LDP0    DNT$
        17 021052   400000 236003                    LDQ     -131072,DU
        17 021053   000003 256100                    ORSQ    3,,PR0

  21058 17 021054   000001 236000 18                 LDQ     1
        17 021055   000003 356100                    ANSQ    3,,PR0

  21059 17 021056   000002 236000 18                 LDQ     2
        17 021057   000003 356100                    ANSQ    3,,PR0

  21060 17 021060   000003 236000 18                 LDQ     3
        17 021061   000003 356100                    ANSQ    3,,PR0

  21061 17 021062   000004 236000 18                 LDQ     4
        17 021063   000003 356100                    ANSQ    3,,PR0

PL6.E3A0      #001=COBOLRW File=COBOLRW.:Z8A6TSI                                 SAT 08/09/97 09:25 Page:419
  21062 17 021064   000551 220003                    LDX0    361,DU
        17 021065   000003 440100                    SXL0    3,,PR0

      827    21064        %NEWRSW;
      828    21067        %SEARCH (RWD='REALMS',                 RWNO=%RSV_WRD_REALMS);

  21071 17 021066   002731 054000 1                  AOS     NUMBER_OF_RESERVED_WORDS

  21072 17 021067   000006 235007                    LDA     6,DL
        17 021070   000010 755000 6                  STA     LEX_SYMBOL+8

  21073 17 021071   040000 100400                    MLR     fill='040'O
        17 021072   001515 000006 16                 ADSC9   845                      cn=0,n=6
        17 021073   000011 000504 6                  ADSC9   LEX_SYMBOL+9             cn=0,n=324

  21074 17 021074   000000 631400 18                 EPPR1   0
        17 021075   000000 701000 xent               TSX1    Z8AH$SEARCH_
        17 021076   000000 011000                    NOP     0

  21075 17 021077   000000 470400 2                  LDP0    DNT$
        17 021100   400000 236003                    LDQ     -131072,DU
        17 021101   000003 256100                    ORSQ    3,,PR0

  21076 17 021102   000001 236000 18                 LDQ     1
        17 021103   000003 356100                    ANSQ    3,,PR0

  21077 17 021104   000002 236000 18                 LDQ     2
        17 021105   000003 356100                    ANSQ    3,,PR0

  21078 17 021106   000003 236000 18                 LDQ     3
        17 021107   000003 356100                    ANSQ    3,,PR0

  21079 17 021110   000004 236000 18                 LDQ     4
        17 021111   000003 356100                    ANSQ    3,,PR0

  21080 17 021112   000552 220003                    LDX0    362,DU
        17 021113   000003 440100                    SXL0    3,,PR0
PL6.E3A0      #001=COBOLRW File=COBOLRW.:Z8A6TSI                                 SAT 08/09/97 09:25 Page:420

      829    21082        %NEWRSW;
      830    21085        %SEARCH (RWD='RECEIVE',                RWNO=%RSV_WRD_RECEIVE);

  21089 17 021114   002731 054000 1                  AOS     NUMBER_OF_RESERVED_WORDS

  21090 17 021115   000007 235007                    LDA     7,DL
        17 021116   000010 755000 6                  STA     LEX_SYMBOL+8

  21091 17 021117   040000 100400                    MLR     fill='040'O
        17 021120   001517 000007 16                 ADSC9   847                      cn=0,n=7
        17 021121   000011 000504 6                  ADSC9   LEX_SYMBOL+9             cn=0,n=324

  21092 17 021122   000000 631400 18                 EPPR1   0
        17 021123   000000 701000 xent               TSX1    Z8AH$SEARCH_
        17 021124   000000 011000                    NOP     0

  21093 17 021125   000000 470400 2                  LDP0    DNT$
        17 021126   400000 236003                    LDQ     -131072,DU
        17 021127   000003 256100                    ORSQ    3,,PR0

  21094 17 021130   000001 236000 18                 LDQ     1
        17 021131   000003 356100                    ANSQ    3,,PR0

  21095 17 021132   000002 236000 18                 LDQ     2
        17 021133   000003 356100                    ANSQ    3,,PR0

  21096 17 021134   000003 236000 18                 LDQ     3
        17 021135   000003 356100                    ANSQ    3,,PR0

  21097 17 021136   000004 236000 18                 LDQ     4
        17 021137   000003 356100                    ANSQ    3,,PR0

  21098 17 021140   000553 220003                    LDX0    363,DU
        17 021141   000003 440100                    SXL0    3,,PR0

      831    21100        %NEWRSW;
PL6.E3A0      #001=COBOLRW File=COBOLRW.:Z8A6TSI                                 SAT 08/09/97 09:25 Page:421
      832    21103        %SEARCH (RWD='RECORD',                 RWNO=%RSV_WRD_RECORD);

  21107 17 021142   002731 054000 1                  AOS     NUMBER_OF_RESERVED_WORDS

  21108 17 021143   000006 235007                    LDA     6,DL
        17 021144   000010 755000 6                  STA     LEX_SYMBOL+8

  21109 17 021145   040000 100400                    MLR     fill='040'O
        17 021146   001521 000006 16                 ADSC9   849                      cn=0,n=6
        17 021147   000011 000504 6                  ADSC9   LEX_SYMBOL+9             cn=0,n=324

  21110 17 021150   000000 631400 18                 EPPR1   0
        17 021151   000000 701000 xent               TSX1    Z8AH$SEARCH_
        17 021152   000000 011000                    NOP     0

  21111 17 021153   000000 470400 2                  LDP0    DNT$
        17 021154   400000 236003                    LDQ     -131072,DU
        17 021155   000003 256100                    ORSQ    3,,PR0

  21112 17 021156   000001 236000 18                 LDQ     1
        17 021157   000003 356100                    ANSQ    3,,PR0

  21113 17 021160   000002 236000 18                 LDQ     2
        17 021161   000003 356100                    ANSQ    3,,PR0

  21114 17 021162   000003 236000 18                 LDQ     3
        17 021163   000003 356100                    ANSQ    3,,PR0

  21115 17 021164   000004 236000 18                 LDQ     4
        17 021165   000003 356100                    ANSQ    3,,PR0

  21116 17 021166   000554 220003                    LDX0    364,DU
        17 021167   000003 440100                    SXL0    3,,PR0

      833    21118        %NEWRSW;
      834    21121        %SEARCH (RWD='RECORD-NAME',            RWNO=%RSV_WRD_RECORD_NAME);

PL6.E3A0      #001=COBOLRW File=COBOLRW.:Z8A6TSI                                 SAT 08/09/97 09:25 Page:422
  21125 17 021170   002731 054000 1                  AOS     NUMBER_OF_RESERVED_WORDS

  21126 17 021171   000013 235007                    LDA     11,DL
        17 021172   000010 755000 6                  STA     LEX_SYMBOL+8

  21127 17 021173   040000 100400                    MLR     fill='040'O
        17 021174   001523 000013 16                 ADSC9   851                      cn=0,n=11
        17 021175   000011 000504 6                  ADSC9   LEX_SYMBOL+9             cn=0,n=324

  21128 17 021176   000000 631400 18                 EPPR1   0
        17 021177   000000 701000 xent               TSX1    Z8AH$SEARCH_
        17 021200   000000 011000                    NOP     0

  21129 17 021201   000000 470400 2                  LDP0    DNT$
        17 021202   400000 236003                    LDQ     -131072,DU
        17 021203   000003 256100                    ORSQ    3,,PR0

  21130 17 021204   000001 236000 18                 LDQ     1
        17 021205   000003 356100                    ANSQ    3,,PR0

  21131 17 021206   000002 236000 18                 LDQ     2
        17 021207   000003 356100                    ANSQ    3,,PR0

  21132 17 021210   000003 236000 18                 LDQ     3
        17 021211   000003 356100                    ANSQ    3,,PR0

  21133 17 021212   000004 236000 18                 LDQ     4
        17 021213   000003 356100                    ANSQ    3,,PR0

  21134 17 021214   000555 220003                    LDX0    365,DU
        17 021215   000003 440100                    SXL0    3,,PR0

      835    21136        %NEWRSW;
      836    21139        %SEARCH (RWD='RECORDS',                RWNO=%RSV_WRD_RECORDS);

  21143 17 021216   002731 054000 1                  AOS     NUMBER_OF_RESERVED_WORDS

PL6.E3A0      #001=COBOLRW File=COBOLRW.:Z8A6TSI                                 SAT 08/09/97 09:25 Page:423
  21144 17 021217   000007 235007                    LDA     7,DL
        17 021220   000010 755000 6                  STA     LEX_SYMBOL+8

  21145 17 021221   040000 100400                    MLR     fill='040'O
        17 021222   001526 000007 16                 ADSC9   854                      cn=0,n=7
        17 021223   000011 000504 6                  ADSC9   LEX_SYMBOL+9             cn=0,n=324

  21146 17 021224   000000 631400 18                 EPPR1   0
        17 021225   000000 701000 xent               TSX1    Z8AH$SEARCH_
        17 021226   000000 011000                    NOP     0

  21147 17 021227   000000 470400 2                  LDP0    DNT$
        17 021230   400000 236003                    LDQ     -131072,DU
        17 021231   000003 256100                    ORSQ    3,,PR0

  21148 17 021232   000001 236000 18                 LDQ     1
        17 021233   000003 356100                    ANSQ    3,,PR0

  21149 17 021234   000002 236000 18                 LDQ     2
        17 021235   000003 356100                    ANSQ    3,,PR0

  21150 17 021236   000003 236000 18                 LDQ     3
        17 021237   000003 356100                    ANSQ    3,,PR0

  21151 17 021240   000004 236000 18                 LDQ     4
        17 021241   000003 356100                    ANSQ    3,,PR0

  21152 17 021242   000556 220003                    LDX0    366,DU
        17 021243   000003 440100                    SXL0    3,,PR0

      837    21154        %NEWRSW;
      838    21157        %SEARCH (RWD='REDEFINES',              RWNO=%RSV_WRD_REDEFINES);

  21161 17 021244   002731 054000 1                  AOS     NUMBER_OF_RESERVED_WORDS

  21162 17 021245   000011 235007                    LDA     9,DL
        17 021246   000010 755000 6                  STA     LEX_SYMBOL+8
PL6.E3A0      #001=COBOLRW File=COBOLRW.:Z8A6TSI                                 SAT 08/09/97 09:25 Page:424

  21163 17 021247   040000 100400                    MLR     fill='040'O
        17 021250   001530 000011 16                 ADSC9   856                      cn=0,n=9
        17 021251   000011 000504 6                  ADSC9   LEX_SYMBOL+9             cn=0,n=324

  21164 17 021252   000000 631400 18                 EPPR1   0
        17 021253   000000 701000 xent               TSX1    Z8AH$SEARCH_
        17 021254   000000 011000                    NOP     0

  21165 17 021255   000000 470400 2                  LDP0    DNT$
        17 021256   400000 236003                    LDQ     -131072,DU
        17 021257   000003 256100                    ORSQ    3,,PR0

  21166 17 021260   000001 236000 18                 LDQ     1
        17 021261   000003 356100                    ANSQ    3,,PR0

  21167 17 021262   000002 236000 18                 LDQ     2
        17 021263   000003 356100                    ANSQ    3,,PR0

  21168 17 021264   000003 236000 18                 LDQ     3
        17 021265   000003 356100                    ANSQ    3,,PR0

  21169 17 021266   000004 236000 18                 LDQ     4
        17 021267   000003 356100                    ANSQ    3,,PR0

  21170 17 021270   000557 220003                    LDX0    367,DU
        17 021271   000003 440100                    SXL0    3,,PR0

      839    21172        %NEWRSW;
      840    21175        %SEARCH (RWD='REEL',                   RWNO=%RSV_WRD_REEL);

  21179 17 021272   002731 054000 1                  AOS     NUMBER_OF_RESERVED_WORDS

  21180 17 021273   000004 235007                    LDA     4,DL
        17 021274   000010 755000 6                  STA     LEX_SYMBOL+8

  21181 17 021275   040000 100400                    MLR     fill='040'O
PL6.E3A0      #001=COBOLRW File=COBOLRW.:Z8A6TSI                                 SAT 08/09/97 09:25 Page:425
        17 021276   001533 000004 16                 ADSC9   859                      cn=0,n=4
        17 021277   000011 000504 6                  ADSC9   LEX_SYMBOL+9             cn=0,n=324

  21182 17 021300   000000 631400 18                 EPPR1   0
        17 021301   000000 701000 xent               TSX1    Z8AH$SEARCH_
        17 021302   000000 011000                    NOP     0

  21183 17 021303   000000 470400 2                  LDP0    DNT$
        17 021304   400000 236003                    LDQ     -131072,DU
        17 021305   000003 256100                    ORSQ    3,,PR0

  21184 17 021306   000001 236000 18                 LDQ     1
        17 021307   000003 356100                    ANSQ    3,,PR0

  21185 17 021310   000002 236000 18                 LDQ     2
        17 021311   000003 356100                    ANSQ    3,,PR0

  21186 17 021312   000003 236000 18                 LDQ     3
        17 021313   000003 356100                    ANSQ    3,,PR0

  21187 17 021314   000004 236000 18                 LDQ     4
        17 021315   000003 356100                    ANSQ    3,,PR0

  21188 17 021316   000560 220003                    LDX0    368,DU
        17 021317   000003 440100                    SXL0    3,,PR0

      841    21190        %NEWRSW;
      842    21193        %SEARCH (RWD='REEL-NUMBER',            RWNO=%RSV_WRD_REEL_NUMBER);

  21197 17 021320   002731 054000 1                  AOS     NUMBER_OF_RESERVED_WORDS

  21198 17 021321   000013 235007                    LDA     11,DL
        17 021322   000010 755000 6                  STA     LEX_SYMBOL+8

  21199 17 021323   040000 100400                    MLR     fill='040'O
        17 021324   001534 000013 16                 ADSC9   860                      cn=0,n=11
        17 021325   000011 000504 6                  ADSC9   LEX_SYMBOL+9             cn=0,n=324
PL6.E3A0      #001=COBOLRW File=COBOLRW.:Z8A6TSI                                 SAT 08/09/97 09:25 Page:426

  21200 17 021326   000000 631400 18                 EPPR1   0
        17 021327   000000 701000 xent               TSX1    Z8AH$SEARCH_
        17 021330   000000 011000                    NOP     0

  21201 17 021331   000000 470400 2                  LDP0    DNT$
        17 021332   400000 236003                    LDQ     -131072,DU
        17 021333   000003 256100                    ORSQ    3,,PR0

  21202 17 021334   000001 236000 18                 LDQ     1
        17 021335   000003 356100                    ANSQ    3,,PR0

  21203 17 021336   000002 236000 18                 LDQ     2
        17 021337   000003 356100                    ANSQ    3,,PR0

  21204 17 021340   000003 236000 18                 LDQ     3
        17 021341   000003 356100                    ANSQ    3,,PR0

  21205 17 021342   000004 236000 18                 LDQ     4
        17 021343   000003 356100                    ANSQ    3,,PR0

  21206 17 021344   000561 220003                    LDX0    369,DU
        17 021345   000003 440100                    SXL0    3,,PR0

      843    21208        %NEWRSW;
      844    21211        %SEARCH (RWD='REEL-SERIAL-NUMBER',     RWNO=%RSV_WRD_REEL_SERIAL_NUMBER);

  21215 17 021346   002731 054000 1                  AOS     NUMBER_OF_RESERVED_WORDS

  21216 17 021347   000022 235007                    LDA     18,DL
        17 021350   000010 755000 6                  STA     LEX_SYMBOL+8

  21217 17 021351   040000 100400                    MLR     fill='040'O
        17 021352   001537 000022 16                 ADSC9   863                      cn=0,n=18
        17 021353   000011 000504 6                  ADSC9   LEX_SYMBOL+9             cn=0,n=324

  21218 17 021354   000000 631400 18                 EPPR1   0
PL6.E3A0      #001=COBOLRW File=COBOLRW.:Z8A6TSI                                 SAT 08/09/97 09:25 Page:427
        17 021355   000000 701000 xent               TSX1    Z8AH$SEARCH_
        17 021356   000000 011000                    NOP     0

  21219 17 021357   000000 470400 2                  LDP0    DNT$
        17 021360   400000 236003                    LDQ     -131072,DU
        17 021361   000003 256100                    ORSQ    3,,PR0

  21220 17 021362   000001 236000 18                 LDQ     1
        17 021363   000003 356100                    ANSQ    3,,PR0

  21221 17 021364   000002 236000 18                 LDQ     2
        17 021365   000003 356100                    ANSQ    3,,PR0

  21222 17 021366   000003 236000 18                 LDQ     3
        17 021367   000003 356100                    ANSQ    3,,PR0

  21223 17 021370   000004 236000 18                 LDQ     4
        17 021371   000003 356100                    ANSQ    3,,PR0

  21224 17 021372   000562 220003                    LDX0    370,DU
        17 021373   000003 440100                    SXL0    3,,PR0

      845    21226        %NEWRSW;
      846    21229        %SEARCH (RWD='REFERENCE',              RWNO=%RSV_WRD_REFERENCE);

  21233 17 021374   002731 054000 1                  AOS     NUMBER_OF_RESERVED_WORDS

  21234 17 021375   000011 235007                    LDA     9,DL
        17 021376   000010 755000 6                  STA     LEX_SYMBOL+8

  21235 17 021377   040000 100400                    MLR     fill='040'O
        17 021400   001544 000011 16                 ADSC9   868                      cn=0,n=9
        17 021401   000011 000504 6                  ADSC9   LEX_SYMBOL+9             cn=0,n=324

  21236 17 021402   000000 631400 18                 EPPR1   0
        17 021403   000000 701000 xent               TSX1    Z8AH$SEARCH_
        17 021404   000000 011000                    NOP     0
PL6.E3A0      #001=COBOLRW File=COBOLRW.:Z8A6TSI                                 SAT 08/09/97 09:25 Page:428

  21237 17 021405   000000 470400 2                  LDP0    DNT$
        17 021406   400000 236003                    LDQ     -131072,DU
        17 021407   000003 256100                    ORSQ    3,,PR0

  21238 17 021410   000001 236000 18                 LDQ     1
        17 021411   000003 356100                    ANSQ    3,,PR0

  21239 17 021412   000002 236000 18                 LDQ     2
        17 021413   000003 356100                    ANSQ    3,,PR0

  21240 17 021414   000003 236000 18                 LDQ     3
        17 021415   000003 356100                    ANSQ    3,,PR0

  21241 17 021416   000004 236000 18                 LDQ     4
        17 021417   000003 356100                    ANSQ    3,,PR0

  21242 17 021420   000563 220003                    LDX0    371,DU
        17 021421   000003 440100                    SXL0    3,,PR0

      847    21244        %NEWRSW;
      848    21247        %SEARCH (RWD='REFERENCES',             RWNO=%RSV_WRD_REFERENCES);

  21251 17 021422   002731 054000 1                  AOS     NUMBER_OF_RESERVED_WORDS

  21252 17 021423   000012 235007                    LDA     10,DL
        17 021424   000010 755000 6                  STA     LEX_SYMBOL+8

  21253 17 021425   040000 100400                    MLR     fill='040'O
        17 021426   001547 000012 16                 ADSC9   871                      cn=0,n=10
        17 021427   000011 000504 6                  ADSC9   LEX_SYMBOL+9             cn=0,n=324

  21254 17 021430   000000 631400 18                 EPPR1   0
        17 021431   000000 701000 xent               TSX1    Z8AH$SEARCH_
        17 021432   000000 011000                    NOP     0

  21255 17 021433   000000 470400 2                  LDP0    DNT$
PL6.E3A0      #001=COBOLRW File=COBOLRW.:Z8A6TSI                                 SAT 08/09/97 09:25 Page:429
        17 021434   400000 236003                    LDQ     -131072,DU
        17 021435   000003 256100                    ORSQ    3,,PR0

  21256 17 021436   000001 236000 18                 LDQ     1
        17 021437   000003 356100                    ANSQ    3,,PR0

  21257 17 021440   000002 236000 18                 LDQ     2
        17 021441   000003 356100                    ANSQ    3,,PR0

  21258 17 021442   000003 236000 18                 LDQ     3
        17 021443   000003 356100                    ANSQ    3,,PR0

  21259 17 021444   000004 236000 18                 LDQ     4
        17 021445   000003 356100                    ANSQ    3,,PR0

  21260 17 021446   000564 220003                    LDX0    372,DU
        17 021447   000003 440100                    SXL0    3,,PR0

      849    21262        %NEWRSW;
      850    21265        %SEARCH (RWD='RELATIVE',               RWNO=%RSV_WRD_RELATIVE);

  21269 17 021450   002731 054000 1                  AOS     NUMBER_OF_RESERVED_WORDS

  21270 17 021451   000010 235007                    LDA     8,DL
        17 021452   000010 755000 6                  STA     LEX_SYMBOL+8

  21271 17 021453   040000 100400                    MLR     fill='040'O
        17 021454   001552 000010 16                 ADSC9   874                      cn=0,n=8
        17 021455   000011 000504 6                  ADSC9   LEX_SYMBOL+9             cn=0,n=324

  21272 17 021456   000000 631400 18                 EPPR1   0
        17 021457   000000 701000 xent               TSX1    Z8AH$SEARCH_
        17 021460   000000 011000                    NOP     0

  21273 17 021461   000000 470400 2                  LDP0    DNT$
        17 021462   400000 236003                    LDQ     -131072,DU
        17 021463   000003 256100                    ORSQ    3,,PR0
PL6.E3A0      #001=COBOLRW File=COBOLRW.:Z8A6TSI                                 SAT 08/09/97 09:25 Page:430

  21274 17 021464   000001 236000 18                 LDQ     1
        17 021465   000003 356100                    ANSQ    3,,PR0

  21275 17 021466   000002 236000 18                 LDQ     2
        17 021467   000003 356100                    ANSQ    3,,PR0

  21276 17 021470   000003 236000 18                 LDQ     3
        17 021471   000003 356100                    ANSQ    3,,PR0

  21277 17 021472   000004 236000 18                 LDQ     4
        17 021473   000003 356100                    ANSQ    3,,PR0

  21278 17 021474   000565 220003                    LDX0    373,DU
        17 021475   000003 440100                    SXL0    3,,PR0

      851    21280        %NEWRSW;
      852    21283        %SEARCH (RWD='RELEASE',                RWNO=%RSV_WRD_RELEASE);

  21287 17 021476   002731 054000 1                  AOS     NUMBER_OF_RESERVED_WORDS

  21288 17 021477   000007 235007                    LDA     7,DL
        17 021500   000010 755000 6                  STA     LEX_SYMBOL+8

  21289 17 021501   040000 100400                    MLR     fill='040'O
        17 021502   001554 000007 16                 ADSC9   876                      cn=0,n=7
        17 021503   000011 000504 6                  ADSC9   LEX_SYMBOL+9             cn=0,n=324

  21290 17 021504   000000 631400 18                 EPPR1   0
        17 021505   000000 701000 xent               TSX1    Z8AH$SEARCH_
        17 021506   000000 011000                    NOP     0

  21291 17 021507   000000 470400 2                  LDP0    DNT$
        17 021510   400000 236003                    LDQ     -131072,DU
        17 021511   000003 256100                    ORSQ    3,,PR0

  21292 17 021512   000001 236000 18                 LDQ     1
PL6.E3A0      #001=COBOLRW File=COBOLRW.:Z8A6TSI                                 SAT 08/09/97 09:25 Page:431
        17 021513   000003 356100                    ANSQ    3,,PR0

  21293 17 021514   000002 236000 18                 LDQ     2
        17 021515   000003 356100                    ANSQ    3,,PR0

  21294 17 021516   000003 236000 18                 LDQ     3
        17 021517   000003 356100                    ANSQ    3,,PR0

  21295 17 021520   000004 236000 18                 LDQ     4
        17 021521   000003 356100                    ANSQ    3,,PR0

  21296 17 021522   000566 220003                    LDX0    374,DU
        17 021523   000003 440100                    SXL0    3,,PR0

      853    21298        %NEWRSW;
      854    21301        %SEARCH (RWD='REMAINDER',              RWNO=%RSV_WRD_REMAINDER);

  21305 17 021524   002731 054000 1                  AOS     NUMBER_OF_RESERVED_WORDS

  21306 17 021525   000011 235007                    LDA     9,DL
        17 021526   000010 755000 6                  STA     LEX_SYMBOL+8

  21307 17 021527   040000 100400                    MLR     fill='040'O
        17 021530   001556 000011 16                 ADSC9   878                      cn=0,n=9
        17 021531   000011 000504 6                  ADSC9   LEX_SYMBOL+9             cn=0,n=324

  21308 17 021532   000000 631400 18                 EPPR1   0
        17 021533   000000 701000 xent               TSX1    Z8AH$SEARCH_
        17 021534   000000 011000                    NOP     0

  21309 17 021535   000000 470400 2                  LDP0    DNT$
        17 021536   400000 236003                    LDQ     -131072,DU
        17 021537   000003 256100                    ORSQ    3,,PR0

  21310 17 021540   000001 236000 18                 LDQ     1
        17 021541   000003 356100                    ANSQ    3,,PR0

PL6.E3A0      #001=COBOLRW File=COBOLRW.:Z8A6TSI                                 SAT 08/09/97 09:25 Page:432
  21311 17 021542   000002 236000 18                 LDQ     2
        17 021543   000003 356100                    ANSQ    3,,PR0

  21312 17 021544   000003 236000 18                 LDQ     3
        17 021545   000003 356100                    ANSQ    3,,PR0

  21313 17 021546   000004 236000 18                 LDQ     4
        17 021547   000003 356100                    ANSQ    3,,PR0

  21314 17 021550   000567 220003                    LDX0    375,DU
        17 021551   000003 440100                    SXL0    3,,PR0

      855    21316        %NEWRSW;
      856    21319        %SEARCH (RWD='REMOVAL',                RWNO=%RSV_WRD_REMOVAL);

  21323 17 021552   002731 054000 1                  AOS     NUMBER_OF_RESERVED_WORDS

  21324 17 021553   000007 235007                    LDA     7,DL
        17 021554   000010 755000 6                  STA     LEX_SYMBOL+8

  21325 17 021555   040000 100400                    MLR     fill='040'O
        17 021556   001561 000007 16                 ADSC9   881                      cn=0,n=7
        17 021557   000011 000504 6                  ADSC9   LEX_SYMBOL+9             cn=0,n=324

  21326 17 021560   000000 631400 18                 EPPR1   0
        17 021561   000000 701000 xent               TSX1    Z8AH$SEARCH_
        17 021562   000000 011000                    NOP     0

  21327 17 021563   000000 470400 2                  LDP0    DNT$
        17 021564   400000 236003                    LDQ     -131072,DU
        17 021565   000003 256100                    ORSQ    3,,PR0

  21328 17 021566   000001 236000 18                 LDQ     1
        17 021567   000003 356100                    ANSQ    3,,PR0

  21329 17 021570   000002 236000 18                 LDQ     2
        17 021571   000003 356100                    ANSQ    3,,PR0
PL6.E3A0      #001=COBOLRW File=COBOLRW.:Z8A6TSI                                 SAT 08/09/97 09:25 Page:433

  21330 17 021572   000003 236000 18                 LDQ     3
        17 021573   000003 356100                    ANSQ    3,,PR0

  21331 17 021574   000004 236000 18                 LDQ     4
        17 021575   000003 356100                    ANSQ    3,,PR0

  21332 17 021576   000570 220003                    LDX0    376,DU
        17 021577   000003 440100                    SXL0    3,,PR0

      857    21334        %NEWRSW;
      858    21337        %SEARCH (RWD='RENAMES',                RWNO=%RSV_WRD_RENAMES);

  21341 17 021600   002731 054000 1                  AOS     NUMBER_OF_RESERVED_WORDS

  21342 17 021601   000007 235007                    LDA     7,DL
        17 021602   000010 755000 6                  STA     LEX_SYMBOL+8

  21343 17 021603   040000 100400                    MLR     fill='040'O
        17 021604   001563 000007 16                 ADSC9   883                      cn=0,n=7
        17 021605   000011 000504 6                  ADSC9   LEX_SYMBOL+9             cn=0,n=324

  21344 17 021606   000000 631400 18                 EPPR1   0
        17 021607   000000 701000 xent               TSX1    Z8AH$SEARCH_
        17 021610   000000 011000                    NOP     0

  21345 17 021611   000000 470400 2                  LDP0    DNT$
        17 021612   400000 236003                    LDQ     -131072,DU
        17 021613   000003 256100                    ORSQ    3,,PR0

  21346 17 021614   000001 236000 18                 LDQ     1
        17 021615   000003 356100                    ANSQ    3,,PR0

  21347 17 021616   000002 236000 18                 LDQ     2
        17 021617   000003 356100                    ANSQ    3,,PR0

  21348 17 021620   000003 236000 18                 LDQ     3
PL6.E3A0      #001=COBOLRW File=COBOLRW.:Z8A6TSI                                 SAT 08/09/97 09:25 Page:434
        17 021621   000003 356100                    ANSQ    3,,PR0

  21349 17 021622   000004 236000 18                 LDQ     4
        17 021623   000003 356100                    ANSQ    3,,PR0

  21350 17 021624   000571 220003                    LDX0    377,DU
        17 021625   000003 440100                    SXL0    3,,PR0

      859    21352        %NEWRSW;
      860    21355        %SEARCH (RWD='REPLACEMENT',            RWNO=%RSV_WRD_REPLACEMENT);

  21359 17 021626   002731 054000 1                  AOS     NUMBER_OF_RESERVED_WORDS

  21360 17 021627   000013 235007                    LDA     11,DL
        17 021630   000010 755000 6                  STA     LEX_SYMBOL+8

  21361 17 021631   040000 100400                    MLR     fill='040'O
        17 021632   001565 000013 16                 ADSC9   885                      cn=0,n=11
        17 021633   000011 000504 6                  ADSC9   LEX_SYMBOL+9             cn=0,n=324

  21362 17 021634   000000 631400 18                 EPPR1   0
        17 021635   000000 701000 xent               TSX1    Z8AH$SEARCH_
        17 021636   000000 011000                    NOP     0

  21363 17 021637   000000 470400 2                  LDP0    DNT$
        17 021640   400000 236003                    LDQ     -131072,DU
        17 021641   000003 256100                    ORSQ    3,,PR0

  21364 17 021642   000001 236000 18                 LDQ     1
        17 021643   000003 356100                    ANSQ    3,,PR0

  21365 17 021644   000002 236000 18                 LDQ     2
        17 021645   000003 356100                    ANSQ    3,,PR0

  21366 17 021646   000003 236000 18                 LDQ     3
        17 021647   000003 356100                    ANSQ    3,,PR0

PL6.E3A0      #001=COBOLRW File=COBOLRW.:Z8A6TSI                                 SAT 08/09/97 09:25 Page:435
  21367 17 021650   000004 236000 18                 LDQ     4
        17 021651   000003 356100                    ANSQ    3,,PR0

  21368 17 021652   000572 220003                    LDX0    378,DU
        17 021653   000003 440100                    SXL0    3,,PR0

      861    21370        %NEWRSW;
      862    21373        %SEARCH (RWD='REPLACING',              RWNO=%RSV_WRD_REPLACING);

  21377 17 021654   002731 054000 1                  AOS     NUMBER_OF_RESERVED_WORDS

  21378 17 021655   000011 235007                    LDA     9,DL
        17 021656   000010 755000 6                  STA     LEX_SYMBOL+8

  21379 17 021657   040000 100400                    MLR     fill='040'O
        17 021660   001570 000011 16                 ADSC9   888                      cn=0,n=9
        17 021661   000011 000504 6                  ADSC9   LEX_SYMBOL+9             cn=0,n=324

  21380 17 021662   000000 631400 18                 EPPR1   0
        17 021663   000000 701000 xent               TSX1    Z8AH$SEARCH_
        17 021664   000000 011000                    NOP     0

  21381 17 021665   000000 470400 2                  LDP0    DNT$
        17 021666   400000 236003                    LDQ     -131072,DU
        17 021667   000003 256100                    ORSQ    3,,PR0

  21382 17 021670   000001 236000 18                 LDQ     1
        17 021671   000003 356100                    ANSQ    3,,PR0

  21383 17 021672   000002 236000 18                 LDQ     2
        17 021673   000003 356100                    ANSQ    3,,PR0

  21384 17 021674   000003 236000 18                 LDQ     3
        17 021675   000003 356100                    ANSQ    3,,PR0

  21385 17 021676   000004 236000 18                 LDQ     4
        17 021677   000003 356100                    ANSQ    3,,PR0
PL6.E3A0      #001=COBOLRW File=COBOLRW.:Z8A6TSI                                 SAT 08/09/97 09:25 Page:436

  21386 17 021700   000573 220003                    LDX0    379,DU
        17 021701   000003 440100                    SXL0    3,,PR0

      863    21388        %NEWRSW;
      864    21391        %SEARCH (RWD='REPORT',                 RWNO=%RSV_WRD_REPORT);

  21395 17 021702   002731 054000 1                  AOS     NUMBER_OF_RESERVED_WORDS

  21396 17 021703   000006 235007                    LDA     6,DL
        17 021704   000010 755000 6                  STA     LEX_SYMBOL+8

  21397 17 021705   040000 100400                    MLR     fill='040'O
        17 021706   001573 000006 16                 ADSC9   891                      cn=0,n=6
        17 021707   000011 000504 6                  ADSC9   LEX_SYMBOL+9             cn=0,n=324

  21398 17 021710   000000 631400 18                 EPPR1   0
        17 021711   000000 701000 xent               TSX1    Z8AH$SEARCH_
        17 021712   000000 011000                    NOP     0

  21399 17 021713   000000 470400 2                  LDP0    DNT$
        17 021714   400000 236003                    LDQ     -131072,DU
        17 021715   000003 256100                    ORSQ    3,,PR0

  21400 17 021716   000001 236000 18                 LDQ     1
        17 021717   000003 356100                    ANSQ    3,,PR0

  21401 17 021720   000002 236000 18                 LDQ     2
        17 021721   000003 356100                    ANSQ    3,,PR0

  21402 17 021722   000003 236000 18                 LDQ     3
        17 021723   000003 356100                    ANSQ    3,,PR0

  21403 17 021724   000004 236000 18                 LDQ     4
        17 021725   000003 356100                    ANSQ    3,,PR0

  21404 17 021726   000574 220003                    LDX0    380,DU
PL6.E3A0      #001=COBOLRW File=COBOLRW.:Z8A6TSI                                 SAT 08/09/97 09:25 Page:437
        17 021727   000003 440100                    SXL0    3,,PR0

      865    21406        %NEWRSW;
      866    21409        %SEARCH (RWD='REPORTING',              RWNO=%RSV_WRD_REPORTING);

  21413 17 021730   002731 054000 1                  AOS     NUMBER_OF_RESERVED_WORDS

  21414 17 021731   000011 235007                    LDA     9,DL
        17 021732   000010 755000 6                  STA     LEX_SYMBOL+8

  21415 17 021733   040000 100400                    MLR     fill='040'O
        17 021734   001575 000011 16                 ADSC9   893                      cn=0,n=9
        17 021735   000011 000504 6                  ADSC9   LEX_SYMBOL+9             cn=0,n=324

  21416 17 021736   000000 631400 18                 EPPR1   0
        17 021737   000000 701000 xent               TSX1    Z8AH$SEARCH_
        17 021740   000000 011000                    NOP     0

  21417 17 021741   000000 470400 2                  LDP0    DNT$
        17 021742   400000 236003                    LDQ     -131072,DU
        17 021743   000003 256100                    ORSQ    3,,PR0

  21418 17 021744   000001 236000 18                 LDQ     1
        17 021745   000003 356100                    ANSQ    3,,PR0

  21419 17 021746   000002 236000 18                 LDQ     2
        17 021747   000003 356100                    ANSQ    3,,PR0

  21420 17 021750   000003 236000 18                 LDQ     3
        17 021751   000003 356100                    ANSQ    3,,PR0

  21421 17 021752   000004 236000 18                 LDQ     4
        17 021753   000003 356100                    ANSQ    3,,PR0

  21422 17 021754   000575 220003                    LDX0    381,DU
        17 021755   000003 440100                    SXL0    3,,PR0

PL6.E3A0      #001=COBOLRW File=COBOLRW.:Z8A6TSI                                 SAT 08/09/97 09:25 Page:438
      867    21424        %NEWRSW;
      868    21427        %SEARCH (RWD='REPORTS',                RWNO=%RSV_WRD_REPORTS);

  21431 17 021756   002731 054000 1                  AOS     NUMBER_OF_RESERVED_WORDS

  21432 17 021757   000007 235007                    LDA     7,DL
        17 021760   000010 755000 6                  STA     LEX_SYMBOL+8

  21433 17 021761   040000 100400                    MLR     fill='040'O
        17 021762   001600 000007 16                 ADSC9   896                      cn=0,n=7
        17 021763   000011 000504 6                  ADSC9   LEX_SYMBOL+9             cn=0,n=324

  21434 17 021764   000000 631400 18                 EPPR1   0
        17 021765   000000 701000 xent               TSX1    Z8AH$SEARCH_
        17 021766   000000 011000                    NOP     0

  21435 17 021767   000000 470400 2                  LDP0    DNT$
        17 021770   400000 236003                    LDQ     -131072,DU
        17 021771   000003 256100                    ORSQ    3,,PR0

  21436 17 021772   000001 236000 18                 LDQ     1
        17 021773   000003 356100                    ANSQ    3,,PR0

  21437 17 021774   000002 236000 18                 LDQ     2
        17 021775   000003 356100                    ANSQ    3,,PR0

  21438 17 021776   000003 236000 18                 LDQ     3
        17 021777   000003 356100                    ANSQ    3,,PR0

  21439 17 022000   000004 236000 18                 LDQ     4
        17 022001   000003 356100                    ANSQ    3,,PR0

  21440 17 022002   000576 220003                    LDX0    382,DU
        17 022003   000003 440100                    SXL0    3,,PR0

      869    21442        %NEWRSW;
      870    21445        %SEARCH (RWD='RERUN',                  RWNO=%RSV_WRD_RERUN);
PL6.E3A0      #001=COBOLRW File=COBOLRW.:Z8A6TSI                                 SAT 08/09/97 09:25 Page:439

  21449 17 022004   002731 054000 1                  AOS     NUMBER_OF_RESERVED_WORDS

  21450 17 022005   000005 235007                    LDA     5,DL
        17 022006   000010 755000 6                  STA     LEX_SYMBOL+8

  21451 17 022007   040000 100400                    MLR     fill='040'O
        17 022010   001602 000005 16                 ADSC9   898                      cn=0,n=5
        17 022011   000011 000504 6                  ADSC9   LEX_SYMBOL+9             cn=0,n=324

  21452 17 022012   000000 631400 18                 EPPR1   0
        17 022013   000000 701000 xent               TSX1    Z8AH$SEARCH_
        17 022014   000000 011000                    NOP     0

  21453 17 022015   000000 470400 2                  LDP0    DNT$
        17 022016   400000 236003                    LDQ     -131072,DU
        17 022017   000003 256100                    ORSQ    3,,PR0

  21454 17 022020   000001 236000 18                 LDQ     1
        17 022021   000003 356100                    ANSQ    3,,PR0

  21455 17 022022   000002 236000 18                 LDQ     2
        17 022023   000003 356100                    ANSQ    3,,PR0

  21456 17 022024   000003 236000 18                 LDQ     3
        17 022025   000003 356100                    ANSQ    3,,PR0

  21457 17 022026   000004 236000 18                 LDQ     4
        17 022027   000003 356100                    ANSQ    3,,PR0

  21458 17 022030   000577 220003                    LDX0    383,DU
        17 022031   000003 440100                    SXL0    3,,PR0

      871    21460        %NEWRSW;
      872    21463        %SEARCH (RWD='RESERVE',                RWNO=%RSV_WRD_RESERVE);

  21467 17 022032   002731 054000 1                  AOS     NUMBER_OF_RESERVED_WORDS
PL6.E3A0      #001=COBOLRW File=COBOLRW.:Z8A6TSI                                 SAT 08/09/97 09:25 Page:440

  21468 17 022033   000007 235007                    LDA     7,DL
        17 022034   000010 755000 6                  STA     LEX_SYMBOL+8

  21469 17 022035   040000 100400                    MLR     fill='040'O
        17 022036   001604 000007 16                 ADSC9   900                      cn=0,n=7
        17 022037   000011 000504 6                  ADSC9   LEX_SYMBOL+9             cn=0,n=324

  21470 17 022040   000000 631400 18                 EPPR1   0
        17 022041   000000 701000 xent               TSX1    Z8AH$SEARCH_
        17 022042   000000 011000                    NOP     0

  21471 17 022043   000000 470400 2                  LDP0    DNT$
        17 022044   400000 236003                    LDQ     -131072,DU
        17 022045   000003 256100                    ORSQ    3,,PR0

  21472 17 022046   000001 236000 18                 LDQ     1
        17 022047   000003 356100                    ANSQ    3,,PR0

  21473 17 022050   000002 236000 18                 LDQ     2
        17 022051   000003 356100                    ANSQ    3,,PR0

  21474 17 022052   000003 236000 18                 LDQ     3
        17 022053   000003 356100                    ANSQ    3,,PR0

  21475 17 022054   000004 236000 18                 LDQ     4
        17 022055   000003 356100                    ANSQ    3,,PR0

  21476 17 022056   000600 220003                    LDX0    384,DU
        17 022057   000003 440100                    SXL0    3,,PR0

      873    21478        %NEWRSW;
      874    21481        %SEARCH (RWD='RESET',                  RWNO=%RSV_WRD_RESET);

  21485 17 022060   002731 054000 1                  AOS     NUMBER_OF_RESERVED_WORDS

  21486 17 022061   000005 235007                    LDA     5,DL
PL6.E3A0      #001=COBOLRW File=COBOLRW.:Z8A6TSI                                 SAT 08/09/97 09:25 Page:441
        17 022062   000010 755000 6                  STA     LEX_SYMBOL+8

  21487 17 022063   040000 100400                    MLR     fill='040'O
        17 022064   001606 000005 16                 ADSC9   902                      cn=0,n=5
        17 022065   000011 000504 6                  ADSC9   LEX_SYMBOL+9             cn=0,n=324

  21488 17 022066   000000 631400 18                 EPPR1   0
        17 022067   000000 701000 xent               TSX1    Z8AH$SEARCH_
        17 022070   000000 011000                    NOP     0

  21489 17 022071   000000 470400 2                  LDP0    DNT$
        17 022072   400000 236003                    LDQ     -131072,DU
        17 022073   000003 256100                    ORSQ    3,,PR0

  21490 17 022074   000001 236000 18                 LDQ     1
        17 022075   000003 356100                    ANSQ    3,,PR0

  21491 17 022076   000002 236000 18                 LDQ     2
        17 022077   000003 356100                    ANSQ    3,,PR0

  21492 17 022100   000003 236000 18                 LDQ     3
        17 022101   000003 356100                    ANSQ    3,,PR0

  21493 17 022102   000004 236000 18                 LDQ     4
        17 022103   000003 356100                    ANSQ    3,,PR0

  21494 17 022104   000601 220003                    LDX0    385,DU
        17 022105   000003 440100                    SXL0    3,,PR0

      875    21496        %NEWRSW;
      876    21499        %SEARCH (RWD='RETAIN',                 RWNO=%RSV_WRD_RETAIN);

  21503 17 022106   002731 054000 1                  AOS     NUMBER_OF_RESERVED_WORDS

  21504 17 022107   000006 235007                    LDA     6,DL
        17 022110   000010 755000 6                  STA     LEX_SYMBOL+8

PL6.E3A0      #001=COBOLRW File=COBOLRW.:Z8A6TSI                                 SAT 08/09/97 09:25 Page:442
  21505 17 022111   040000 100400                    MLR     fill='040'O
        17 022112   001610 000006 16                 ADSC9   904                      cn=0,n=6
        17 022113   000011 000504 6                  ADSC9   LEX_SYMBOL+9             cn=0,n=324

  21506 17 022114   000000 631400 18                 EPPR1   0
        17 022115   000000 701000 xent               TSX1    Z8AH$SEARCH_
        17 022116   000000 011000                    NOP     0

  21507 17 022117   000000 470400 2                  LDP0    DNT$
        17 022120   400000 236003                    LDQ     -131072,DU
        17 022121   000003 256100                    ORSQ    3,,PR0

  21508 17 022122   000001 236000 18                 LDQ     1
        17 022123   000003 356100                    ANSQ    3,,PR0

  21509 17 022124   000002 236000 18                 LDQ     2
        17 022125   000003 356100                    ANSQ    3,,PR0

  21510 17 022126   000003 236000 18                 LDQ     3
        17 022127   000003 356100                    ANSQ    3,,PR0

  21511 17 022130   000004 236000 18                 LDQ     4
        17 022131   000003 356100                    ANSQ    3,,PR0

  21512 17 022132   000602 220003                    LDX0    386,DU
        17 022133   000003 440100                    SXL0    3,,PR0

      877    21514        %NEWRSW;
      878    21517        %SEARCH (RWD='RETAINING',              RWNO=%RSV_WRD_RETAINING);

  21521 17 022134   002731 054000 1                  AOS     NUMBER_OF_RESERVED_WORDS

  21522 17 022135   000011 235007                    LDA     9,DL
        17 022136   000010 755000 6                  STA     LEX_SYMBOL+8

  21523 17 022137   040000 100400                    MLR     fill='040'O
        17 022140   001612 000011 16                 ADSC9   906                      cn=0,n=9
PL6.E3A0      #001=COBOLRW File=COBOLRW.:Z8A6TSI                                 SAT 08/09/97 09:25 Page:443
        17 022141   000011 000504 6                  ADSC9   LEX_SYMBOL+9             cn=0,n=324

  21524 17 022142   000000 631400 18                 EPPR1   0
        17 022143   000000 701000 xent               TSX1    Z8AH$SEARCH_
        17 022144   000000 011000                    NOP     0

  21525 17 022145   000000 470400 2                  LDP0    DNT$
        17 022146   400000 236003                    LDQ     -131072,DU
        17 022147   000003 256100                    ORSQ    3,,PR0

  21526 17 022150   000001 236000 18                 LDQ     1
        17 022151   000003 356100                    ANSQ    3,,PR0

  21527 17 022152   000002 236000 18                 LDQ     2
        17 022153   000003 356100                    ANSQ    3,,PR0

  21528 17 022154   000003 236000 18                 LDQ     3
        17 022155   000003 356100                    ANSQ    3,,PR0

  21529 17 022156   000004 236000 18                 LDQ     4
        17 022157   000003 356100                    ANSQ    3,,PR0

  21530 17 022160   000603 220003                    LDX0    387,DU
        17 022161   000003 440100                    SXL0    3,,PR0

      879    21532        %NEWRSW;
      880    21535        %SEARCH (RWD='RETENTION',              RWNO=%RSV_WRD_RETENTION);

  21539 17 022162   002731 054000 1                  AOS     NUMBER_OF_RESERVED_WORDS

  21540 17 022163   000011 235007                    LDA     9,DL
        17 022164   000010 755000 6                  STA     LEX_SYMBOL+8

  21541 17 022165   040000 100400                    MLR     fill='040'O
        17 022166   001615 000011 16                 ADSC9   909                      cn=0,n=9
        17 022167   000011 000504 6                  ADSC9   LEX_SYMBOL+9             cn=0,n=324

PL6.E3A0      #001=COBOLRW File=COBOLRW.:Z8A6TSI                                 SAT 08/09/97 09:25 Page:444
  21542 17 022170   000000 631400 18                 EPPR1   0
        17 022171   000000 701000 xent               TSX1    Z8AH$SEARCH_
        17 022172   000000 011000                    NOP     0

  21543 17 022173   000000 470400 2                  LDP0    DNT$
        17 022174   400000 236003                    LDQ     -131072,DU
        17 022175   000003 256100                    ORSQ    3,,PR0

  21544 17 022176   000001 236000 18                 LDQ     1
        17 022177   000003 356100                    ANSQ    3,,PR0

  21545 17 022200   000002 236000 18                 LDQ     2
        17 022201   000003 356100                    ANSQ    3,,PR0

  21546 17 022202   000003 236000 18                 LDQ     3
        17 022203   000003 356100                    ANSQ    3,,PR0

  21547 17 022204   000004 236000 18                 LDQ     4
        17 022205   000003 356100                    ANSQ    3,,PR0

  21548 17 022206   000604 220003                    LDX0    388,DU
        17 022207   000003 440100                    SXL0    3,,PR0

      881    21550        %NEWRSW;
      882    21553        %SEARCH (RWD='RETENTION-PERIOD',       RWNO=%RSV_WRD_RETENTION_PERIOD);

  21557 17 022210   002731 054000 1                  AOS     NUMBER_OF_RESERVED_WORDS

  21558 17 022211   000020 235007                    LDA     16,DL
        17 022212   000010 755000 6                  STA     LEX_SYMBOL+8

  21559 17 022213   040000 100400                    MLR     fill='040'O
        17 022214   001620 000020 16                 ADSC9   912                      cn=0,n=16
        17 022215   000011 000504 6                  ADSC9   LEX_SYMBOL+9             cn=0,n=324

  21560 17 022216   000000 631400 18                 EPPR1   0
        17 022217   000000 701000 xent               TSX1    Z8AH$SEARCH_
PL6.E3A0      #001=COBOLRW File=COBOLRW.:Z8A6TSI                                 SAT 08/09/97 09:25 Page:445
        17 022220   000000 011000                    NOP     0

  21561 17 022221   000000 470400 2                  LDP0    DNT$
        17 022222   400000 236003                    LDQ     -131072,DU
        17 022223   000003 256100                    ORSQ    3,,PR0

  21562 17 022224   000001 236000 18                 LDQ     1
        17 022225   000003 356100                    ANSQ    3,,PR0

  21563 17 022226   000002 236000 18                 LDQ     2
        17 022227   000003 356100                    ANSQ    3,,PR0

  21564 17 022230   000003 236000 18                 LDQ     3
        17 022231   000003 356100                    ANSQ    3,,PR0

  21565 17 022232   000004 236000 18                 LDQ     4
        17 022233   000003 356100                    ANSQ    3,,PR0

  21566 17 022234   000605 220003                    LDX0    389,DU
        17 022235   000003 440100                    SXL0    3,,PR0

      883    21568        %NEWRSW;
      884    21571        %SEARCH (RWD='RETRIEVAL',              RWNO=%RSV_WRD_RETRIEVAL);

  21575 17 022236   002731 054000 1                  AOS     NUMBER_OF_RESERVED_WORDS

  21576 17 022237   000011 235007                    LDA     9,DL
        17 022240   000010 755000 6                  STA     LEX_SYMBOL+8

  21577 17 022241   040000 100400                    MLR     fill='040'O
        17 022242   001624 000011 16                 ADSC9   916                      cn=0,n=9
        17 022243   000011 000504 6                  ADSC9   LEX_SYMBOL+9             cn=0,n=324

  21578 17 022244   000000 631400 18                 EPPR1   0
        17 022245   000000 701000 xent               TSX1    Z8AH$SEARCH_
        17 022246   000000 011000                    NOP     0

PL6.E3A0      #001=COBOLRW File=COBOLRW.:Z8A6TSI                                 SAT 08/09/97 09:25 Page:446
  21579 17 022247   000000 470400 2                  LDP0    DNT$
        17 022250   400000 236003                    LDQ     -131072,DU
        17 022251   000003 256100                    ORSQ    3,,PR0

  21580 17 022252   000001 236000 18                 LDQ     1
        17 022253   000003 356100                    ANSQ    3,,PR0

  21581 17 022254   000002 236000 18                 LDQ     2
        17 022255   000003 356100                    ANSQ    3,,PR0

  21582 17 022256   000003 236000 18                 LDQ     3
        17 022257   000003 356100                    ANSQ    3,,PR0

  21583 17 022260   000004 236000 18                 LDQ     4
        17 022261   000003 356100                    ANSQ    3,,PR0

  21584 17 022262   000606 220003                    LDX0    390,DU
        17 022263   000003 440100                    SXL0    3,,PR0

      885    21586        %NEWRSW;
      886    21589        %SEARCH (RWD='RETURN',                 RWNO=%RSV_WRD_RETURN);

  21593 17 022264   002731 054000 1                  AOS     NUMBER_OF_RESERVED_WORDS

  21594 17 022265   000006 235007                    LDA     6,DL
        17 022266   000010 755000 6                  STA     LEX_SYMBOL+8

  21595 17 022267   040000 100400                    MLR     fill='040'O
        17 022270   001627 000006 16                 ADSC9   919                      cn=0,n=6
        17 022271   000011 000504 6                  ADSC9   LEX_SYMBOL+9             cn=0,n=324

  21596 17 022272   000000 631400 18                 EPPR1   0
        17 022273   000000 701000 xent               TSX1    Z8AH$SEARCH_
        17 022274   000000 011000                    NOP     0

  21597 17 022275   000000 470400 2                  LDP0    DNT$
        17 022276   400000 236003                    LDQ     -131072,DU
PL6.E3A0      #001=COBOLRW File=COBOLRW.:Z8A6TSI                                 SAT 08/09/97 09:25 Page:447
        17 022277   000003 256100                    ORSQ    3,,PR0

  21598 17 022300   000001 236000 18                 LDQ     1
        17 022301   000003 356100                    ANSQ    3,,PR0

  21599 17 022302   000002 236000 18                 LDQ     2
        17 022303   000003 356100                    ANSQ    3,,PR0

  21600 17 022304   000003 236000 18                 LDQ     3
        17 022305   000003 356100                    ANSQ    3,,PR0

  21601 17 022306   000004 236000 18                 LDQ     4
        17 022307   000003 356100                    ANSQ    3,,PR0

  21602 17 022310   000607 220003                    LDX0    391,DU
        17 022311   000003 440100                    SXL0    3,,PR0

      887    21604        %NEWRSW;
      888    21607        %SEARCH (RWD='REVERSED',               RWNO=%RSV_WRD_REVERSED);

  21611 17 022312   002731 054000 1                  AOS     NUMBER_OF_RESERVED_WORDS

  21612 17 022313   000010 235007                    LDA     8,DL
        17 022314   000010 755000 6                  STA     LEX_SYMBOL+8

  21613 17 022315   040000 100400                    MLR     fill='040'O
        17 022316   001631 000010 16                 ADSC9   921                      cn=0,n=8
        17 022317   000011 000504 6                  ADSC9   LEX_SYMBOL+9             cn=0,n=324

  21614 17 022320   000000 631400 18                 EPPR1   0
        17 022321   000000 701000 xent               TSX1    Z8AH$SEARCH_
        17 022322   000000 011000                    NOP     0

  21615 17 022323   000000 470400 2                  LDP0    DNT$
        17 022324   400000 236003                    LDQ     -131072,DU
        17 022325   000003 256100                    ORSQ    3,,PR0

PL6.E3A0      #001=COBOLRW File=COBOLRW.:Z8A6TSI                                 SAT 08/09/97 09:25 Page:448
  21616 17 022326   000001 236000 18                 LDQ     1
        17 022327   000003 356100                    ANSQ    3,,PR0

  21617 17 022330   000002 236000 18                 LDQ     2
        17 022331   000003 356100                    ANSQ    3,,PR0

  21618 17 022332   000003 236000 18                 LDQ     3
        17 022333   000003 356100                    ANSQ    3,,PR0

  21619 17 022334   000004 236000 18                 LDQ     4
        17 022335   000003 356100                    ANSQ    3,,PR0

  21620 17 022336   000610 220003                    LDX0    392,DU
        17 022337   000003 440100                    SXL0    3,,PR0

      889    21622        %NEWRSW;
      890    21625        %SEARCH (RWD='REWIND',                 RWNO=%RSV_WRD_REWIND);

  21629 17 022340   002731 054000 1                  AOS     NUMBER_OF_RESERVED_WORDS

  21630 17 022341   000006 235007                    LDA     6,DL
        17 022342   000010 755000 6                  STA     LEX_SYMBOL+8

  21631 17 022343   040000 100400                    MLR     fill='040'O
        17 022344   001633 000006 16                 ADSC9   923                      cn=0,n=6
        17 022345   000011 000504 6                  ADSC9   LEX_SYMBOL+9             cn=0,n=324

  21632 17 022346   000000 631400 18                 EPPR1   0
        17 022347   000000 701000 xent               TSX1    Z8AH$SEARCH_
        17 022350   000000 011000                    NOP     0

  21633 17 022351   000000 470400 2                  LDP0    DNT$
        17 022352   400000 236003                    LDQ     -131072,DU
        17 022353   000003 256100                    ORSQ    3,,PR0

  21634 17 022354   000001 236000 18                 LDQ     1
        17 022355   000003 356100                    ANSQ    3,,PR0
PL6.E3A0      #001=COBOLRW File=COBOLRW.:Z8A6TSI                                 SAT 08/09/97 09:25 Page:449

  21635 17 022356   000002 236000 18                 LDQ     2
        17 022357   000003 356100                    ANSQ    3,,PR0

  21636 17 022360   000003 236000 18                 LDQ     3
        17 022361   000003 356100                    ANSQ    3,,PR0

  21637 17 022362   000004 236000 18                 LDQ     4
        17 022363   000003 356100                    ANSQ    3,,PR0

  21638 17 022364   000611 220003                    LDX0    393,DU
        17 022365   000003 440100                    SXL0    3,,PR0

      891    21640        %NEWRSW;
      892    21643        %SEARCH (RWD='REWRITE',                RWNO=%RSV_WRD_REWRITE);

  21647 17 022366   002731 054000 1                  AOS     NUMBER_OF_RESERVED_WORDS

  21648 17 022367   000007 235007                    LDA     7,DL
        17 022370   000010 755000 6                  STA     LEX_SYMBOL+8

  21649 17 022371   040000 100400                    MLR     fill='040'O
        17 022372   001635 000007 16                 ADSC9   925                      cn=0,n=7
        17 022373   000011 000504 6                  ADSC9   LEX_SYMBOL+9             cn=0,n=324

  21650 17 022374   000000 631400 18                 EPPR1   0
        17 022375   000000 701000 xent               TSX1    Z8AH$SEARCH_
        17 022376   000000 011000                    NOP     0

  21651 17 022377   000000 470400 2                  LDP0    DNT$
        17 022400   400000 236003                    LDQ     -131072,DU
        17 022401   000003 256100                    ORSQ    3,,PR0

  21652 17 022402   000001 236000 18                 LDQ     1
        17 022403   000003 356100                    ANSQ    3,,PR0

  21653 17 022404   000002 236000 18                 LDQ     2
PL6.E3A0      #001=COBOLRW File=COBOLRW.:Z8A6TSI                                 SAT 08/09/97 09:25 Page:450
        17 022405   000003 356100                    ANSQ    3,,PR0

  21654 17 022406   000003 236000 18                 LDQ     3
        17 022407   000003 356100                    ANSQ    3,,PR0

  21655 17 022410   000004 236000 18                 LDQ     4
        17 022411   000003 356100                    ANSQ    3,,PR0

  21656 17 022412   000612 220003                    LDX0    394,DU
        17 022413   000003 440100                    SXL0    3,,PR0

      893    21658        %NEWRSW;
      894    21661        %SEARCH (RWD='RF',                     RWNO=%RSV_WRD_RF);

  21665 17 022414   002731 054000 1                  AOS     NUMBER_OF_RESERVED_WORDS

  21666 17 022415   000002 235007                    LDA     2,DL
        17 022416   000010 755000 6                  STA     LEX_SYMBOL+8

  21667 17 022417   040000 100400                    MLR     fill='040'O
        17 022420   001637 000002 16                 ADSC9   927                      cn=0,n=2
        17 022421   000011 000504 6                  ADSC9   LEX_SYMBOL+9             cn=0,n=324

  21668 17 022422   000000 631400 18                 EPPR1   0
        17 022423   000000 701000 xent               TSX1    Z8AH$SEARCH_
        17 022424   000000 011000                    NOP     0

  21669 17 022425   000000 470400 2                  LDP0    DNT$
        17 022426   400000 236003                    LDQ     -131072,DU
        17 022427   000003 256100                    ORSQ    3,,PR0

  21670 17 022430   000001 236000 18                 LDQ     1
        17 022431   000003 356100                    ANSQ    3,,PR0

  21671 17 022432   000002 236000 18                 LDQ     2
        17 022433   000003 356100                    ANSQ    3,,PR0

PL6.E3A0      #001=COBOLRW File=COBOLRW.:Z8A6TSI                                 SAT 08/09/97 09:25 Page:451
  21672 17 022434   000003 236000 18                 LDQ     3
        17 022435   000003 356100                    ANSQ    3,,PR0

  21673 17 022436   000004 236000 18                 LDQ     4
        17 022437   000003 356100                    ANSQ    3,,PR0

  21674 17 022440   000613 220003                    LDX0    395,DU
        17 022441   000003 440100                    SXL0    3,,PR0

      895    21676        %NEWRSW;
      896    21679        %SEARCH (RWD='RH',                     RWNO=%RSV_WRD_RH);

  21683 17 022442   002731 054000 1                  AOS     NUMBER_OF_RESERVED_WORDS

  21684 17 022443   000002 235007                    LDA     2,DL
        17 022444   000010 755000 6                  STA     LEX_SYMBOL+8

  21685 17 022445   040000 100400                    MLR     fill='040'O
        17 022446   001640 000002 16                 ADSC9   928                      cn=0,n=2
        17 022447   000011 000504 6                  ADSC9   LEX_SYMBOL+9             cn=0,n=324

  21686 17 022450   000000 631400 18                 EPPR1   0
        17 022451   000000 701000 xent               TSX1    Z8AH$SEARCH_
        17 022452   000000 011000                    NOP     0

  21687 17 022453   000000 470400 2                  LDP0    DNT$
        17 022454   400000 236003                    LDQ     -131072,DU
        17 022455   000003 256100                    ORSQ    3,,PR0

  21688 17 022456   000001 236000 18                 LDQ     1
        17 022457   000003 356100                    ANSQ    3,,PR0

  21689 17 022460   000002 236000 18                 LDQ     2
        17 022461   000003 356100                    ANSQ    3,,PR0

  21690 17 022462   000003 236000 18                 LDQ     3
        17 022463   000003 356100                    ANSQ    3,,PR0
PL6.E3A0      #001=COBOLRW File=COBOLRW.:Z8A6TSI                                 SAT 08/09/97 09:25 Page:452

  21691 17 022464   000004 236000 18                 LDQ     4
        17 022465   000003 356100                    ANSQ    3,,PR0

  21692 17 022466   000614 220003                    LDX0    396,DU
        17 022467   000003 440100                    SXL0    3,,PR0

      897    21694        %NEWRSW;
      898    21697        %SEARCH (RWD='RIGHT',                  RWNO=%RSV_WRD_RIGHT);

  21701 17 022470   002731 054000 1                  AOS     NUMBER_OF_RESERVED_WORDS

  21702 17 022471   000005 235007                    LDA     5,DL
        17 022472   000010 755000 6                  STA     LEX_SYMBOL+8

  21703 17 022473   040000 100400                    MLR     fill='040'O
        17 022474   001641 000005 16                 ADSC9   929                      cn=0,n=5
        17 022475   000011 000504 6                  ADSC9   LEX_SYMBOL+9             cn=0,n=324

  21704 17 022476   000000 631400 18                 EPPR1   0
        17 022477   000000 701000 xent               TSX1    Z8AH$SEARCH_
        17 022500   000000 011000                    NOP     0

  21705 17 022501   000000 470400 2                  LDP0    DNT$
        17 022502   400000 236003                    LDQ     -131072,DU
        17 022503   000003 256100                    ORSQ    3,,PR0

  21706 17 022504   000001 236000 18                 LDQ     1
        17 022505   000003 356100                    ANSQ    3,,PR0

  21707 17 022506   000002 236000 18                 LDQ     2
        17 022507   000003 356100                    ANSQ    3,,PR0

  21708 17 022510   000003 236000 18                 LDQ     3
        17 022511   000003 356100                    ANSQ    3,,PR0

  21709 17 022512   000004 236000 18                 LDQ     4
PL6.E3A0      #001=COBOLRW File=COBOLRW.:Z8A6TSI                                 SAT 08/09/97 09:25 Page:453
        17 022513   000003 356100                    ANSQ    3,,PR0

  21710 17 022514   000615 220003                    LDX0    397,DU
        17 022515   000003 440100                    SXL0    3,,PR0

      899    21712        %NEWRSW;
      900    21715        %SEARCH (RWD='ROLLBACK',               RWNO=%RSV_WRD_ROLLBACK);

  21719 17 022516   002731 054000 1                  AOS     NUMBER_OF_RESERVED_WORDS

  21720 17 022517   000010 235007                    LDA     8,DL
        17 022520   000010 755000 6                  STA     LEX_SYMBOL+8

  21721 17 022521   040000 100400                    MLR     fill='040'O
        17 022522   001643 000010 16                 ADSC9   931                      cn=0,n=8
        17 022523   000011 000504 6                  ADSC9   LEX_SYMBOL+9             cn=0,n=324

  21722 17 022524   000000 631400 18                 EPPR1   0
        17 022525   000000 701000 xent               TSX1    Z8AH$SEARCH_
        17 022526   000000 011000                    NOP     0

  21723 17 022527   000000 470400 2                  LDP0    DNT$
        17 022530   400000 236003                    LDQ     -131072,DU
        17 022531   000003 256100                    ORSQ    3,,PR0

  21724 17 022532   000001 236000 18                 LDQ     1
        17 022533   000003 356100                    ANSQ    3,,PR0

  21725 17 022534   000002 236000 18                 LDQ     2
        17 022535   000003 356100                    ANSQ    3,,PR0

  21726 17 022536   000003 236000 18                 LDQ     3
        17 022537   000003 356100                    ANSQ    3,,PR0

  21727 17 022540   000004 236000 18                 LDQ     4
        17 022541   000003 356100                    ANSQ    3,,PR0

PL6.E3A0      #001=COBOLRW File=COBOLRW.:Z8A6TSI                                 SAT 08/09/97 09:25 Page:454
  21728 17 022542   000616 220003                    LDX0    398,DU
        17 022543   000003 440100                    SXL0    3,,PR0

      901    21730        %NEWRSW;
      902    21733        %SEARCH (RWD='ROUNDED',                RWNO=%RSV_WRD_ROUNDED);

  21737 17 022544   002731 054000 1                  AOS     NUMBER_OF_RESERVED_WORDS

  21738 17 022545   000007 235007                    LDA     7,DL
        17 022546   000010 755000 6                  STA     LEX_SYMBOL+8

  21739 17 022547   040000 100400                    MLR     fill='040'O
        17 022550   001645 000007 16                 ADSC9   933                      cn=0,n=7
        17 022551   000011 000504 6                  ADSC9   LEX_SYMBOL+9             cn=0,n=324

  21740 17 022552   000000 631400 18                 EPPR1   0
        17 022553   000000 701000 xent               TSX1    Z8AH$SEARCH_
        17 022554   000000 011000                    NOP     0

  21741 17 022555   000000 470400 2                  LDP0    DNT$
        17 022556   400000 236003                    LDQ     -131072,DU
        17 022557   000003 256100                    ORSQ    3,,PR0

  21742 17 022560   000001 236000 18                 LDQ     1
        17 022561   000003 356100                    ANSQ    3,,PR0

  21743 17 022562   000002 236000 18                 LDQ     2
        17 022563   000003 356100                    ANSQ    3,,PR0

  21744 17 022564   000003 236000 18                 LDQ     3
        17 022565   000003 356100                    ANSQ    3,,PR0

  21745 17 022566   000004 236000 18                 LDQ     4
        17 022567   000003 356100                    ANSQ    3,,PR0

  21746 17 022570   000617 220003                    LDX0    399,DU
        17 022571   000003 440100                    SXL0    3,,PR0
PL6.E3A0      #001=COBOLRW File=COBOLRW.:Z8A6TSI                                 SAT 08/09/97 09:25 Page:455

      903    21748        %NEWRSW;
      904    21751        %SEARCH (RWD='RUN',                    RWNO=%RSV_WRD_RUN);

  21755 17 022572   002731 054000 1                  AOS     NUMBER_OF_RESERVED_WORDS

  21756 17 022573   000003 235007                    LDA     3,DL
        17 022574   000010 755000 6                  STA     LEX_SYMBOL+8

  21757 17 022575   040000 100400                    MLR     fill='040'O
        17 022576   001647 000003 16                 ADSC9   935                      cn=0,n=3
        17 022577   000011 000504 6                  ADSC9   LEX_SYMBOL+9             cn=0,n=324

  21758 17 022600   000000 631400 18                 EPPR1   0
        17 022601   000000 701000 xent               TSX1    Z8AH$SEARCH_
        17 022602   000000 011000                    NOP     0

  21759 17 022603   000000 470400 2                  LDP0    DNT$
        17 022604   400000 236003                    LDQ     -131072,DU
        17 022605   000003 256100                    ORSQ    3,,PR0

  21760 17 022606   000001 236000 18                 LDQ     1
        17 022607   000003 356100                    ANSQ    3,,PR0

  21761 17 022610   000002 236000 18                 LDQ     2
        17 022611   000003 356100                    ANSQ    3,,PR0

  21762 17 022612   000003 236000 18                 LDQ     3
        17 022613   000003 356100                    ANSQ    3,,PR0

  21763 17 022614   000004 236000 18                 LDQ     4
        17 022615   000003 356100                    ANSQ    3,,PR0

  21764 17 022616   000620 220003                    LDX0    400,DU
        17 022617   000003 440100                    SXL0    3,,PR0

      905    21766        %NEWRSW;
PL6.E3A0      #001=COBOLRW File=COBOLRW.:Z8A6TSI                                 SAT 08/09/97 09:25 Page:456
      906    21769        %SEARCH (RWD='SAME',                   RWNO=%RSV_WRD_SAME);

  21773 17 022620   002731 054000 1                  AOS     NUMBER_OF_RESERVED_WORDS

  21774 17 022621   000004 235007                    LDA     4,DL
        17 022622   000010 755000 6                  STA     LEX_SYMBOL+8

  21775 17 022623   040000 100400                    MLR     fill='040'O
        17 022624   001650 000004 16                 ADSC9   936                      cn=0,n=4
        17 022625   000011 000504 6                  ADSC9   LEX_SYMBOL+9             cn=0,n=324

  21776 17 022626   000000 631400 18                 EPPR1   0
        17 022627   000000 701000 xent               TSX1    Z8AH$SEARCH_
        17 022630   000000 011000                    NOP     0

  21777 17 022631   000000 470400 2                  LDP0    DNT$
        17 022632   400000 236003                    LDQ     -131072,DU
        17 022633   000003 256100                    ORSQ    3,,PR0

  21778 17 022634   000001 236000 18                 LDQ     1
        17 022635   000003 356100                    ANSQ    3,,PR0

  21779 17 022636   000002 236000 18                 LDQ     2
        17 022637   000003 356100                    ANSQ    3,,PR0

  21780 17 022640   000003 236000 18                 LDQ     3
        17 022641   000003 356100                    ANSQ    3,,PR0

  21781 17 022642   000004 236000 18                 LDQ     4
        17 022643   000003 356100                    ANSQ    3,,PR0

  21782 17 022644   000621 220003                    LDX0    401,DU
        17 022645   000003 440100                    SXL0    3,,PR0

      907    21784        %NEWRSW;
      908    21787        %SEARCH (RWD='SCALAR',                 RWNO=%RSV_WRD_SCALAR);

PL6.E3A0      #001=COBOLRW File=COBOLRW.:Z8A6TSI                                 SAT 08/09/97 09:25 Page:457
  21791 17 022646   002731 054000 1                  AOS     NUMBER_OF_RESERVED_WORDS

  21792 17 022647   000006 235007                    LDA     6,DL
        17 022650   000010 755000 6                  STA     LEX_SYMBOL+8

  21793 17 022651   040000 100400                    MLR     fill='040'O
        17 022652   001651 000006 16                 ADSC9   937                      cn=0,n=6
        17 022653   000011 000504 6                  ADSC9   LEX_SYMBOL+9             cn=0,n=324

  21794 17 022654   000000 631400 18                 EPPR1   0
        17 022655   000000 701000 xent               TSX1    Z8AH$SEARCH_
        17 022656   000000 011000                    NOP     0

  21795 17 022657   000000 470400 2                  LDP0    DNT$
        17 022660   400000 236003                    LDQ     -131072,DU
        17 022661   000003 256100                    ORSQ    3,,PR0

  21796 17 022662   000001 236000 18                 LDQ     1
        17 022663   000003 356100                    ANSQ    3,,PR0

  21797 17 022664   000002 236000 18                 LDQ     2
        17 022665   000003 356100                    ANSQ    3,,PR0

  21798 17 022666   000003 236000 18                 LDQ     3
        17 022667   000003 356100                    ANSQ    3,,PR0

  21799 17 022670   000004 236000 18                 LDQ     4
        17 022671   000003 356100                    ANSQ    3,,PR0

  21800 17 022672   000622 220003                    LDX0    402,DU
        17 022673   000003 440100                    SXL0    3,,PR0

      909    21802        %NEWRSW;
      910    21805        %SEARCH (RWD='SD',                     RWNO=%RSV_WRD_SD);

  21809 17 022674   002731 054000 1                  AOS     NUMBER_OF_RESERVED_WORDS

PL6.E3A0      #001=COBOLRW File=COBOLRW.:Z8A6TSI                                 SAT 08/09/97 09:25 Page:458
  21810 17 022675   000002 235007                    LDA     2,DL
        17 022676   000010 755000 6                  STA     LEX_SYMBOL+8

  21811 17 022677   040000 100400                    MLR     fill='040'O
        17 022700   001653 000002 16                 ADSC9   939                      cn=0,n=2
        17 022701   000011 000504 6                  ADSC9   LEX_SYMBOL+9             cn=0,n=324

  21812 17 022702   000000 631400 18                 EPPR1   0
        17 022703   000000 701000 xent               TSX1    Z8AH$SEARCH_
        17 022704   000000 011000                    NOP     0

  21813 17 022705   000000 470400 2                  LDP0    DNT$
        17 022706   400000 236003                    LDQ     -131072,DU
        17 022707   000003 256100                    ORSQ    3,,PR0

  21814 17 022710   000001 236000 18                 LDQ     1
        17 022711   000003 356100                    ANSQ    3,,PR0

  21815 17 022712   000002 236000 18                 LDQ     2
        17 022713   000003 356100                    ANSQ    3,,PR0

  21816 17 022714   000003 236000 18                 LDQ     3
        17 022715   000003 356100                    ANSQ    3,,PR0

  21817 17 022716   000004 236000 18                 LDQ     4
        17 022717   000003 356100                    ANSQ    3,,PR0

  21818 17 022720   000623 220003                    LDX0    403,DU
        17 022721   000003 440100                    SXL0    3,,PR0

      911    21820        %NEWRSW;
      912    21823        %SEARCH (RWD='SEARCH',                 RWNO=%RSV_WRD_SEARCH);

  21827 17 022722   002731 054000 1                  AOS     NUMBER_OF_RESERVED_WORDS

  21828 17 022723   000006 235007                    LDA     6,DL
        17 022724   000010 755000 6                  STA     LEX_SYMBOL+8
PL6.E3A0      #001=COBOLRW File=COBOLRW.:Z8A6TSI                                 SAT 08/09/97 09:25 Page:459

  21829 17 022725   040000 100400                    MLR     fill='040'O
        17 022726   001654 000006 16                 ADSC9   940                      cn=0,n=6
        17 022727   000011 000504 6                  ADSC9   LEX_SYMBOL+9             cn=0,n=324

  21830 17 022730   000000 631400 18                 EPPR1   0
        17 022731   000000 701000 xent               TSX1    Z8AH$SEARCH_
        17 022732   000000 011000                    NOP     0

  21831 17 022733   000000 470400 2                  LDP0    DNT$
        17 022734   400000 236003                    LDQ     -131072,DU
        17 022735   000003 256100                    ORSQ    3,,PR0

  21832 17 022736   000001 236000 18                 LDQ     1
        17 022737   000003 356100                    ANSQ    3,,PR0

  21833 17 022740   000002 236000 18                 LDQ     2
        17 022741   000003 356100                    ANSQ    3,,PR0

  21834 17 022742   000003 236000 18                 LDQ     3
        17 022743   000003 356100                    ANSQ    3,,PR0

  21835 17 022744   000004 236000 18                 LDQ     4
        17 022745   000003 356100                    ANSQ    3,,PR0

  21836 17 022746   000624 220003                    LDX0    404,DU
        17 022747   000003 440100                    SXL0    3,,PR0

      913    21838        %NEWRSW;
      914    21841        %SEARCH (RWD='SECTION',                RWNO=%RSV_WRD_SECTION, AREAA=TRUE);

  21845 17 022750   002731 054000 1                  AOS     NUMBER_OF_RESERVED_WORDS

  21846 17 022751   000007 235007                    LDA     7,DL
        17 022752   000010 755000 6                  STA     LEX_SYMBOL+8

  21847 17 022753   040000 100400                    MLR     fill='040'O
PL6.E3A0      #001=COBOLRW File=COBOLRW.:Z8A6TSI                                 SAT 08/09/97 09:25 Page:460
        17 022754   001656 000007 16                 ADSC9   942                      cn=0,n=7
        17 022755   000011 000504 6                  ADSC9   LEX_SYMBOL+9             cn=0,n=324

  21848 17 022756   000000 631400 18                 EPPR1   0
        17 022757   000000 701000 xent               TSX1    Z8AH$SEARCH_
        17 022760   000000 011000                    NOP     0

  21849 17 022761   000000 470400 2                  LDP0    DNT$
        17 022762   400000 236003                    LDQ     -131072,DU
        17 022763   000003 256100                    ORSQ    3,,PR0

  21850 17 022764   000001 236000 18                 LDQ     1
        17 022765   000003 356100                    ANSQ    3,,PR0

  21851 17 022766   000200 236003                    LDQ     128,DU
        17 022767   000003 256100                    ORSQ    3,,PR0

  21852 17 022770   000003 236000 18                 LDQ     3
        17 022771   000003 356100                    ANSQ    3,,PR0

  21853 17 022772   000004 236000 18                 LDQ     4
        17 022773   000003 356100                    ANSQ    3,,PR0

  21854 17 022774   000625 220003                    LDX0    405,DU
        17 022775   000003 440100                    SXL0    3,,PR0

      915    21856        %NEWRSW;
      916    21859        %SEARCH (RWD='SECURITY',               RWNO=%RSV_WRD_SECURITY, MUST_AREAA=TRUE);

  21863 17 022776   002731 054000 1                  AOS     NUMBER_OF_RESERVED_WORDS

  21864 17 022777   000010 235007                    LDA     8,DL
        17 023000   000010 755000 6                  STA     LEX_SYMBOL+8

  21865 17 023001   040000 100400                    MLR     fill='040'O
        17 023002   001660 000010 16                 ADSC9   944                      cn=0,n=8
        17 023003   000011 000504 6                  ADSC9   LEX_SYMBOL+9             cn=0,n=324
PL6.E3A0      #001=COBOLRW File=COBOLRW.:Z8A6TSI                                 SAT 08/09/97 09:25 Page:461

  21866 17 023004   000000 631400 18                 EPPR1   0
        17 023005   000000 701000 xent               TSX1    Z8AH$SEARCH_
        17 023006   000000 011000                    NOP     0

  21867 17 023007   000000 470400 2                  LDP0    DNT$
        17 023010   400000 236003                    LDQ     -131072,DU
        17 023011   000003 256100                    ORSQ    3,,PR0

  21868 17 023012   000001 236000 18                 LDQ     1
        17 023013   000003 356100                    ANSQ    3,,PR0

  21869 17 023014   000002 236000 18                 LDQ     2
        17 023015   000003 356100                    ANSQ    3,,PR0

  21870 17 023016   000040 236003                    LDQ     32,DU
        17 023017   000003 256100                    ORSQ    3,,PR0

  21871 17 023020   000004 236000 18                 LDQ     4
        17 023021   000003 356100                    ANSQ    3,,PR0

  21872 17 023022   000626 220003                    LDX0    406,DU
        17 023023   000003 440100                    SXL0    3,,PR0

      917    21874        %NEWRSW;
      918    21877        %SEARCH (RWD='SEGMENT',                RWNO=%RSV_WRD_SEGMENT);

  21881 17 023024   002731 054000 1                  AOS     NUMBER_OF_RESERVED_WORDS

  21882 17 023025   000007 235007                    LDA     7,DL
        17 023026   000010 755000 6                  STA     LEX_SYMBOL+8

  21883 17 023027   040000 100400                    MLR     fill='040'O
        17 023030   001662 000007 16                 ADSC9   946                      cn=0,n=7
        17 023031   000011 000504 6                  ADSC9   LEX_SYMBOL+9             cn=0,n=324

  21884 17 023032   000000 631400 18                 EPPR1   0
PL6.E3A0      #001=COBOLRW File=COBOLRW.:Z8A6TSI                                 SAT 08/09/97 09:25 Page:462
        17 023033   000000 701000 xent               TSX1    Z8AH$SEARCH_
        17 023034   000000 011000                    NOP     0

  21885 17 023035   000000 470400 2                  LDP0    DNT$
        17 023036   400000 236003                    LDQ     -131072,DU
        17 023037   000003 256100                    ORSQ    3,,PR0

  21886 17 023040   000001 236000 18                 LDQ     1
        17 023041   000003 356100                    ANSQ    3,,PR0

  21887 17 023042   000002 236000 18                 LDQ     2
        17 023043   000003 356100                    ANSQ    3,,PR0

  21888 17 023044   000003 236000 18                 LDQ     3
        17 023045   000003 356100                    ANSQ    3,,PR0

  21889 17 023046   000004 236000 18                 LDQ     4
        17 023047   000003 356100                    ANSQ    3,,PR0

  21890 17 023050   000627 220003                    LDX0    407,DU
        17 023051   000003 440100                    SXL0    3,,PR0

      919    21892        %NEWRSW;
      920    21895        %SEARCH (RWD='SEGMENT-LIMIT',          RWNO=%RSV_WRD_SEGMENT_LIMIT);

  21899 17 023052   002731 054000 1                  AOS     NUMBER_OF_RESERVED_WORDS

  21900 17 023053   000015 235007                    LDA     13,DL
        17 023054   000010 755000 6                  STA     LEX_SYMBOL+8

  21901 17 023055   040000 100400                    MLR     fill='040'O
        17 023056   001664 000015 16                 ADSC9   948                      cn=0,n=13
        17 023057   000011 000504 6                  ADSC9   LEX_SYMBOL+9             cn=0,n=324

  21902 17 023060   000000 631400 18                 EPPR1   0
        17 023061   000000 701000 xent               TSX1    Z8AH$SEARCH_
        17 023062   000000 011000                    NOP     0
PL6.E3A0      #001=COBOLRW File=COBOLRW.:Z8A6TSI                                 SAT 08/09/97 09:25 Page:463

  21903 17 023063   000000 470400 2                  LDP0    DNT$
        17 023064   400000 236003                    LDQ     -131072,DU
        17 023065   000003 256100                    ORSQ    3,,PR0

  21904 17 023066   000001 236000 18                 LDQ     1
        17 023067   000003 356100                    ANSQ    3,,PR0

  21905 17 023070   000002 236000 18                 LDQ     2
        17 023071   000003 356100                    ANSQ    3,,PR0

  21906 17 023072   000003 236000 18                 LDQ     3
        17 023073   000003 356100                    ANSQ    3,,PR0

  21907 17 023074   000004 236000 18                 LDQ     4
        17 023075   000003 356100                    ANSQ    3,,PR0

  21908 17 023076   000630 220003                    LDX0    408,DU
        17 023077   000003 440100                    SXL0    3,,PR0

      921    21910        %NEWRSW;
      922    21913        %SEARCH (RWD='SELECT',                 RWNO=%RSV_WRD_SELECT);

  21917 17 023100   002731 054000 1                  AOS     NUMBER_OF_RESERVED_WORDS

  21918 17 023101   000006 235007                    LDA     6,DL
        17 023102   000010 755000 6                  STA     LEX_SYMBOL+8

  21919 17 023103   040000 100400                    MLR     fill='040'O
        17 023104   001670 000006 16                 ADSC9   952                      cn=0,n=6
        17 023105   000011 000504 6                  ADSC9   LEX_SYMBOL+9             cn=0,n=324

  21920 17 023106   000000 631400 18                 EPPR1   0
        17 023107   000000 701000 xent               TSX1    Z8AH$SEARCH_
        17 023110   000000 011000                    NOP     0

  21921 17 023111   000000 470400 2                  LDP0    DNT$
PL6.E3A0      #001=COBOLRW File=COBOLRW.:Z8A6TSI                                 SAT 08/09/97 09:25 Page:464
        17 023112   400000 236003                    LDQ     -131072,DU
        17 023113   000003 256100                    ORSQ    3,,PR0

  21922 17 023114   000001 236000 18                 LDQ     1
        17 023115   000003 356100                    ANSQ    3,,PR0

  21923 17 023116   000002 236000 18                 LDQ     2
        17 023117   000003 356100                    ANSQ    3,,PR0

  21924 17 023120   000003 236000 18                 LDQ     3
        17 023121   000003 356100                    ANSQ    3,,PR0

  21925 17 023122   000004 236000 18                 LDQ     4
        17 023123   000003 356100                    ANSQ    3,,PR0

  21926 17 023124   000631 220003                    LDX0    409,DU
        17 023125   000003 440100                    SXL0    3,,PR0

      923    21928        %NEWRSW;
      924    21931        %SEARCH (RWD='SEND',                   RWNO=%RSV_WRD_SEND);

  21935 17 023126   002731 054000 1                  AOS     NUMBER_OF_RESERVED_WORDS

  21936 17 023127   000004 235007                    LDA     4,DL
        17 023130   000010 755000 6                  STA     LEX_SYMBOL+8

  21937 17 023131   040000 100400                    MLR     fill='040'O
        17 023132   001672 000004 16                 ADSC9   954                      cn=0,n=4
        17 023133   000011 000504 6                  ADSC9   LEX_SYMBOL+9             cn=0,n=324

  21938 17 023134   000000 631400 18                 EPPR1   0
        17 023135   000000 701000 xent               TSX1    Z8AH$SEARCH_
        17 023136   000000 011000                    NOP     0

  21939 17 023137   000000 470400 2                  LDP0    DNT$
        17 023140   400000 236003                    LDQ     -131072,DU
        17 023141   000003 256100                    ORSQ    3,,PR0
PL6.E3A0      #001=COBOLRW File=COBOLRW.:Z8A6TSI                                 SAT 08/09/97 09:25 Page:465

  21940 17 023142   000001 236000 18                 LDQ     1
        17 023143   000003 356100                    ANSQ    3,,PR0

  21941 17 023144   000002 236000 18                 LDQ     2
        17 023145   000003 356100                    ANSQ    3,,PR0

  21942 17 023146   000003 236000 18                 LDQ     3
        17 023147   000003 356100                    ANSQ    3,,PR0

  21943 17 023150   000004 236000 18                 LDQ     4
        17 023151   000003 356100                    ANSQ    3,,PR0

  21944 17 023152   000632 220003                    LDX0    410,DU
        17 023153   000003 440100                    SXL0    3,,PR0

      925    21946        %NEWRSW;
      926    21949        %SEARCH (RWD='SENTENCE',               RWNO=%RSV_WRD_SENTENCE);

  21953 17 023154   002731 054000 1                  AOS     NUMBER_OF_RESERVED_WORDS

  21954 17 023155   000010 235007                    LDA     8,DL
        17 023156   000010 755000 6                  STA     LEX_SYMBOL+8

  21955 17 023157   040000 100400                    MLR     fill='040'O
        17 023160   001673 000010 16                 ADSC9   955                      cn=0,n=8
        17 023161   000011 000504 6                  ADSC9   LEX_SYMBOL+9             cn=0,n=324

  21956 17 023162   000000 631400 18                 EPPR1   0
        17 023163   000000 701000 xent               TSX1    Z8AH$SEARCH_
        17 023164   000000 011000                    NOP     0

  21957 17 023165   000000 470400 2                  LDP0    DNT$
        17 023166   400000 236003                    LDQ     -131072,DU
        17 023167   000003 256100                    ORSQ    3,,PR0

  21958 17 023170   000001 236000 18                 LDQ     1
PL6.E3A0      #001=COBOLRW File=COBOLRW.:Z8A6TSI                                 SAT 08/09/97 09:25 Page:466
        17 023171   000003 356100                    ANSQ    3,,PR0

  21959 17 023172   000002 236000 18                 LDQ     2
        17 023173   000003 356100                    ANSQ    3,,PR0

  21960 17 023174   000003 236000 18                 LDQ     3
        17 023175   000003 356100                    ANSQ    3,,PR0

  21961 17 023176   000004 236000 18                 LDQ     4
        17 023177   000003 356100                    ANSQ    3,,PR0

  21962 17 023200   000633 220003                    LDX0    411,DU
        17 023201   000003 440100                    SXL0    3,,PR0

      927    21964        %NEWRSW;
      928    21967        %SEARCH (RWD='SENTINEL',               RWNO=%RSV_WRD_SENTINEL);

  21971 17 023202   002731 054000 1                  AOS     NUMBER_OF_RESERVED_WORDS

  21972 17 023203   000010 235007                    LDA     8,DL
        17 023204   000010 755000 6                  STA     LEX_SYMBOL+8

  21973 17 023205   040000 100400                    MLR     fill='040'O
        17 023206   001675 000010 16                 ADSC9   957                      cn=0,n=8
        17 023207   000011 000504 6                  ADSC9   LEX_SYMBOL+9             cn=0,n=324

  21974 17 023210   000000 631400 18                 EPPR1   0
        17 023211   000000 701000 xent               TSX1    Z8AH$SEARCH_
        17 023212   000000 011000                    NOP     0

  21975 17 023213   000000 470400 2                  LDP0    DNT$
        17 023214   400000 236003                    LDQ     -131072,DU
        17 023215   000003 256100                    ORSQ    3,,PR0

  21976 17 023216   000001 236000 18                 LDQ     1
        17 023217   000003 356100                    ANSQ    3,,PR0

PL6.E3A0      #001=COBOLRW File=COBOLRW.:Z8A6TSI                                 SAT 08/09/97 09:25 Page:467
  21977 17 023220   000002 236000 18                 LDQ     2
        17 023221   000003 356100                    ANSQ    3,,PR0

  21978 17 023222   000003 236000 18                 LDQ     3
        17 023223   000003 356100                    ANSQ    3,,PR0

  21979 17 023224   000004 236000 18                 LDQ     4
        17 023225   000003 356100                    ANSQ    3,,PR0

  21980 17 023226   000634 220003                    LDX0    412,DU
        17 023227   000003 440100                    SXL0    3,,PR0

      929    21982        %NEWRSW;
      930    21985        %SEARCH (RWD='SEPARATE',               RWNO=%RSV_WRD_SEPARATE);

  21989 17 023230   002731 054000 1                  AOS     NUMBER_OF_RESERVED_WORDS

  21990 17 023231   000010 235007                    LDA     8,DL
        17 023232   000010 755000 6                  STA     LEX_SYMBOL+8

  21991 17 023233   040000 100400                    MLR     fill='040'O
        17 023234   001677 000010 16                 ADSC9   959                      cn=0,n=8
        17 023235   000011 000504 6                  ADSC9   LEX_SYMBOL+9             cn=0,n=324

  21992 17 023236   000000 631400 18                 EPPR1   0
        17 023237   000000 701000 xent               TSX1    Z8AH$SEARCH_
        17 023240   000000 011000                    NOP     0

  21993 17 023241   000000 470400 2                  LDP0    DNT$
        17 023242   400000 236003                    LDQ     -131072,DU
        17 023243   000003 256100                    ORSQ    3,,PR0

  21994 17 023244   000001 236000 18                 LDQ     1
        17 023245   000003 356100                    ANSQ    3,,PR0

  21995 17 023246   000002 236000 18                 LDQ     2
        17 023247   000003 356100                    ANSQ    3,,PR0
PL6.E3A0      #001=COBOLRW File=COBOLRW.:Z8A6TSI                                 SAT 08/09/97 09:25 Page:468

  21996 17 023250   000003 236000 18                 LDQ     3
        17 023251   000003 356100                    ANSQ    3,,PR0

  21997 17 023252   000004 236000 18                 LDQ     4
        17 023253   000003 356100                    ANSQ    3,,PR0

  21998 17 023254   000635 220003                    LDX0    413,DU
        17 023255   000003 440100                    SXL0    3,,PR0

      931    22000        %NEWRSW;
      932    22003        %SEARCH (RWD='SEQUENCE',               RWNO=%RSV_WRD_SEQUENCE);

  22007 17 023256   002731 054000 1                  AOS     NUMBER_OF_RESERVED_WORDS

  22008 17 023257   000010 235007                    LDA     8,DL
        17 023260   000010 755000 6                  STA     LEX_SYMBOL+8

  22009 17 023261   040000 100400                    MLR     fill='040'O
        17 023262   001701 000010 16                 ADSC9   961                      cn=0,n=8
        17 023263   000011 000504 6                  ADSC9   LEX_SYMBOL+9             cn=0,n=324

  22010 17 023264   000000 631400 18                 EPPR1   0
        17 023265   000000 701000 xent               TSX1    Z8AH$SEARCH_
        17 023266   000000 011000                    NOP     0

  22011 17 023267   000000 470400 2                  LDP0    DNT$
        17 023270   400000 236003                    LDQ     -131072,DU
        17 023271   000003 256100                    ORSQ    3,,PR0

  22012 17 023272   000001 236000 18                 LDQ     1
        17 023273   000003 356100                    ANSQ    3,,PR0

  22013 17 023274   000002 236000 18                 LDQ     2
        17 023275   000003 356100                    ANSQ    3,,PR0

  22014 17 023276   000003 236000 18                 LDQ     3
PL6.E3A0      #001=COBOLRW File=COBOLRW.:Z8A6TSI                                 SAT 08/09/97 09:25 Page:469
        17 023277   000003 356100                    ANSQ    3,,PR0

  22015 17 023300   000004 236000 18                 LDQ     4
        17 023301   000003 356100                    ANSQ    3,,PR0

  22016 17 023302   000636 220003                    LDX0    414,DU
        17 023303   000003 440100                    SXL0    3,,PR0

      933    22018        %NEWRSW;
      934    22021        %SEARCH (RWD='SEQUENTIAL',             RWNO=%RSV_WRD_SEQUENTIAL);

  22025 17 023304   002731 054000 1                  AOS     NUMBER_OF_RESERVED_WORDS

  22026 17 023305   000012 235007                    LDA     10,DL
        17 023306   000010 755000 6                  STA     LEX_SYMBOL+8

  22027 17 023307   040000 100400                    MLR     fill='040'O
        17 023310   001703 000012 16                 ADSC9   963                      cn=0,n=10
        17 023311   000011 000504 6                  ADSC9   LEX_SYMBOL+9             cn=0,n=324

  22028 17 023312   000000 631400 18                 EPPR1   0
        17 023313   000000 701000 xent               TSX1    Z8AH$SEARCH_
        17 023314   000000 011000                    NOP     0

  22029 17 023315   000000 470400 2                  LDP0    DNT$
        17 023316   400000 236003                    LDQ     -131072,DU
        17 023317   000003 256100                    ORSQ    3,,PR0

  22030 17 023320   000001 236000 18                 LDQ     1
        17 023321   000003 356100                    ANSQ    3,,PR0

  22031 17 023322   000002 236000 18                 LDQ     2
        17 023323   000003 356100                    ANSQ    3,,PR0

  22032 17 023324   000003 236000 18                 LDQ     3
        17 023325   000003 356100                    ANSQ    3,,PR0

PL6.E3A0      #001=COBOLRW File=COBOLRW.:Z8A6TSI                                 SAT 08/09/97 09:25 Page:470
  22033 17 023326   000004 236000 18                 LDQ     4
        17 023327   000003 356100                    ANSQ    3,,PR0

  22034 17 023330   000637 220003                    LDX0    415,DU
        17 023331   000003 440100                    SXL0    3,,PR0

      935    22036        %NEWRSW;
      936    22039        %SEARCH (RWD='SET',                    RWNO=%RSV_WRD_SET);

  22043 17 023332   002731 054000 1                  AOS     NUMBER_OF_RESERVED_WORDS

  22044 17 023333   000003 235007                    LDA     3,DL
        17 023334   000010 755000 6                  STA     LEX_SYMBOL+8

  22045 17 023335   040000 100400                    MLR     fill='040'O
        17 023336   001706 000003 16                 ADSC9   966                      cn=0,n=3
        17 023337   000011 000504 6                  ADSC9   LEX_SYMBOL+9             cn=0,n=324

  22046 17 023340   000000 631400 18                 EPPR1   0
        17 023341   000000 701000 xent               TSX1    Z8AH$SEARCH_
        17 023342   000000 011000                    NOP     0

  22047 17 023343   000000 470400 2                  LDP0    DNT$
        17 023344   400000 236003                    LDQ     -131072,DU
        17 023345   000003 256100                    ORSQ    3,,PR0

  22048 17 023346   000001 236000 18                 LDQ     1
        17 023347   000003 356100                    ANSQ    3,,PR0

  22049 17 023350   000002 236000 18                 LDQ     2
        17 023351   000003 356100                    ANSQ    3,,PR0

  22050 17 023352   000003 236000 18                 LDQ     3
        17 023353   000003 356100                    ANSQ    3,,PR0

  22051 17 023354   000004 236000 18                 LDQ     4
        17 023355   000003 356100                    ANSQ    3,,PR0
PL6.E3A0      #001=COBOLRW File=COBOLRW.:Z8A6TSI                                 SAT 08/09/97 09:25 Page:471

  22052 17 023356   000640 220003                    LDX0    416,DU
        17 023357   000003 440100                    SXL0    3,,PR0

      937    22054        %NEWRSW;
      938    22057        %SEARCH (RWD='SETS',                   RWNO=%RSV_WRD_SETS);

  22061 17 023360   002731 054000 1                  AOS     NUMBER_OF_RESERVED_WORDS

  22062 17 023361   000004 235007                    LDA     4,DL
        17 023362   000010 755000 6                  STA     LEX_SYMBOL+8

  22063 17 023363   040000 100400                    MLR     fill='040'O
        17 023364   001707 000004 16                 ADSC9   967                      cn=0,n=4
        17 023365   000011 000504 6                  ADSC9   LEX_SYMBOL+9             cn=0,n=324

  22064 17 023366   000000 631400 18                 EPPR1   0
        17 023367   000000 701000 xent               TSX1    Z8AH$SEARCH_
        17 023370   000000 011000                    NOP     0

  22065 17 023371   000000 470400 2                  LDP0    DNT$
        17 023372   400000 236003                    LDQ     -131072,DU
        17 023373   000003 256100                    ORSQ    3,,PR0

  22066 17 023374   000001 236000 18                 LDQ     1
        17 023375   000003 356100                    ANSQ    3,,PR0

  22067 17 023376   000002 236000 18                 LDQ     2
        17 023377   000003 356100                    ANSQ    3,,PR0

  22068 17 023400   000003 236000 18                 LDQ     3
        17 023401   000003 356100                    ANSQ    3,,PR0

  22069 17 023402   000004 236000 18                 LDQ     4
        17 023403   000003 356100                    ANSQ    3,,PR0

  22070 17 023404   000641 220003                    LDX0    417,DU
PL6.E3A0      #001=COBOLRW File=COBOLRW.:Z8A6TSI                                 SAT 08/09/97 09:25 Page:472
        17 023405   000003 440100                    SXL0    3,,PR0

      939    22072        %NEWRSW;
      940    22075        %SEARCH (RWD='SIGN',                   RWNO=%RSV_WRD_SIGN);

  22079 17 023406   002731 054000 1                  AOS     NUMBER_OF_RESERVED_WORDS

  22080 17 023407   000004 235007                    LDA     4,DL
        17 023410   000010 755000 6                  STA     LEX_SYMBOL+8

  22081 17 023411   040000 100400                    MLR     fill='040'O
        17 023412   001710 000004 16                 ADSC9   968                      cn=0,n=4
        17 023413   000011 000504 6                  ADSC9   LEX_SYMBOL+9             cn=0,n=324

  22082 17 023414   000000 631400 18                 EPPR1   0
        17 023415   000000 701000 xent               TSX1    Z8AH$SEARCH_
        17 023416   000000 011000                    NOP     0

  22083 17 023417   000000 470400 2                  LDP0    DNT$
        17 023420   400000 236003                    LDQ     -131072,DU
        17 023421   000003 256100                    ORSQ    3,,PR0

  22084 17 023422   000001 236000 18                 LDQ     1
        17 023423   000003 356100                    ANSQ    3,,PR0

  22085 17 023424   000002 236000 18                 LDQ     2
        17 023425   000003 356100                    ANSQ    3,,PR0

  22086 17 023426   000003 236000 18                 LDQ     3
        17 023427   000003 356100                    ANSQ    3,,PR0

  22087 17 023430   000004 236000 18                 LDQ     4
        17 023431   000003 356100                    ANSQ    3,,PR0

  22088 17 023432   000642 220003                    LDX0    418,DU
        17 023433   000003 440100                    SXL0    3,,PR0

PL6.E3A0      #001=COBOLRW File=COBOLRW.:Z8A6TSI                                 SAT 08/09/97 09:25 Page:473
      941    22090        %NEWRSW;
      942    22093        %SEARCH (RWD='SIZE',                   RWNO=%RSV_WRD_SIZE);

  22097 17 023434   002731 054000 1                  AOS     NUMBER_OF_RESERVED_WORDS

  22098 17 023435   000004 235007                    LDA     4,DL
        17 023436   000010 755000 6                  STA     LEX_SYMBOL+8

  22099 17 023437   040000 100400                    MLR     fill='040'O
        17 023440   001711 000004 16                 ADSC9   969                      cn=0,n=4
        17 023441   000011 000504 6                  ADSC9   LEX_SYMBOL+9             cn=0,n=324

  22100 17 023442   000000 631400 18                 EPPR1   0
        17 023443   000000 701000 xent               TSX1    Z8AH$SEARCH_
        17 023444   000000 011000                    NOP     0

  22101 17 023445   000000 470400 2                  LDP0    DNT$
        17 023446   400000 236003                    LDQ     -131072,DU
        17 023447   000003 256100                    ORSQ    3,,PR0

  22102 17 023450   000001 236000 18                 LDQ     1
        17 023451   000003 356100                    ANSQ    3,,PR0

  22103 17 023452   000002 236000 18                 LDQ     2
        17 023453   000003 356100                    ANSQ    3,,PR0

  22104 17 023454   000003 236000 18                 LDQ     3
        17 023455   000003 356100                    ANSQ    3,,PR0

  22105 17 023456   000004 236000 18                 LDQ     4
        17 023457   000003 356100                    ANSQ    3,,PR0

  22106 17 023460   000643 220003                    LDX0    419,DU
        17 023461   000003 440100                    SXL0    3,,PR0

      943    22108        %NEWRSW;
      944    22111        %SEARCH (RWD='SORT',                   RWNO=%RSV_WRD_SORT);
PL6.E3A0      #001=COBOLRW File=COBOLRW.:Z8A6TSI                                 SAT 08/09/97 09:25 Page:474

  22115 17 023462   002731 054000 1                  AOS     NUMBER_OF_RESERVED_WORDS

  22116 17 023463   000004 235007                    LDA     4,DL
        17 023464   000010 755000 6                  STA     LEX_SYMBOL+8

  22117 17 023465   040000 100400                    MLR     fill='040'O
        17 023466   001712 000004 16                 ADSC9   970                      cn=0,n=4
        17 023467   000011 000504 6                  ADSC9   LEX_SYMBOL+9             cn=0,n=324

  22118 17 023470   000000 631400 18                 EPPR1   0
        17 023471   000000 701000 xent               TSX1    Z8AH$SEARCH_
        17 023472   000000 011000                    NOP     0

  22119 17 023473   000000 470400 2                  LDP0    DNT$
        17 023474   400000 236003                    LDQ     -131072,DU
        17 023475   000003 256100                    ORSQ    3,,PR0

  22120 17 023476   000001 236000 18                 LDQ     1
        17 023477   000003 356100                    ANSQ    3,,PR0

  22121 17 023500   000002 236000 18                 LDQ     2
        17 023501   000003 356100                    ANSQ    3,,PR0

  22122 17 023502   000003 236000 18                 LDQ     3
        17 023503   000003 356100                    ANSQ    3,,PR0

  22123 17 023504   000004 236000 18                 LDQ     4
        17 023505   000003 356100                    ANSQ    3,,PR0

  22124 17 023506   000644 220003                    LDX0    420,DU
        17 023507   000003 440100                    SXL0    3,,PR0

      945    22126        %NEWRSW;
      946    22129        %SEARCH (RWD='SORT-MERGE',             RWNO=%RSV_WRD_SORT_MERGE);

  22133 17 023510   002731 054000 1                  AOS     NUMBER_OF_RESERVED_WORDS
PL6.E3A0      #001=COBOLRW File=COBOLRW.:Z8A6TSI                                 SAT 08/09/97 09:25 Page:475

  22134 17 023511   000012 235007                    LDA     10,DL
        17 023512   000010 755000 6                  STA     LEX_SYMBOL+8

  22135 17 023513   040000 100400                    MLR     fill='040'O
        17 023514   001713 000012 16                 ADSC9   971                      cn=0,n=10
        17 023515   000011 000504 6                  ADSC9   LEX_SYMBOL+9             cn=0,n=324

  22136 17 023516   000000 631400 18                 EPPR1   0
        17 023517   000000 701000 xent               TSX1    Z8AH$SEARCH_
        17 023520   000000 011000                    NOP     0

  22137 17 023521   000000 470400 2                  LDP0    DNT$
        17 023522   400000 236003                    LDQ     -131072,DU
        17 023523   000003 256100                    ORSQ    3,,PR0

  22138 17 023524   000001 236000 18                 LDQ     1
        17 023525   000003 356100                    ANSQ    3,,PR0

  22139 17 023526   000002 236000 18                 LDQ     2
        17 023527   000003 356100                    ANSQ    3,,PR0

  22140 17 023530   000003 236000 18                 LDQ     3
        17 023531   000003 356100                    ANSQ    3,,PR0

  22141 17 023532   000004 236000 18                 LDQ     4
        17 023533   000003 356100                    ANSQ    3,,PR0

  22142 17 023534   000645 220003                    LDX0    421,DU
        17 023535   000003 440100                    SXL0    3,,PR0

      947    22144        %NEWRSW;
      948    22147        %SEARCH (RWD='SOURCE',                 RWNO=%RSV_WRD_SOURCE);

  22151 17 023536   002731 054000 1                  AOS     NUMBER_OF_RESERVED_WORDS

  22152 17 023537   000006 235007                    LDA     6,DL
PL6.E3A0      #001=COBOLRW File=COBOLRW.:Z8A6TSI                                 SAT 08/09/97 09:25 Page:476
        17 023540   000010 755000 6                  STA     LEX_SYMBOL+8

  22153 17 023541   040000 100400                    MLR     fill='040'O
        17 023542   001716 000006 16                 ADSC9   974                      cn=0,n=6
        17 023543   000011 000504 6                  ADSC9   LEX_SYMBOL+9             cn=0,n=324

  22154 17 023544   000000 631400 18                 EPPR1   0
        17 023545   000000 701000 xent               TSX1    Z8AH$SEARCH_
        17 023546   000000 011000                    NOP     0

  22155 17 023547   000000 470400 2                  LDP0    DNT$
        17 023550   400000 236003                    LDQ     -131072,DU
        17 023551   000003 256100                    ORSQ    3,,PR0

  22156 17 023552   000001 236000 18                 LDQ     1
        17 023553   000003 356100                    ANSQ    3,,PR0

  22157 17 023554   000002 236000 18                 LDQ     2
        17 023555   000003 356100                    ANSQ    3,,PR0

  22158 17 023556   000003 236000 18                 LDQ     3
        17 023557   000003 356100                    ANSQ    3,,PR0

  22159 17 023560   000004 236000 18                 LDQ     4
        17 023561   000003 356100                    ANSQ    3,,PR0

  22160 17 023562   000646 220003                    LDX0    422,DU
        17 023563   000003 440100                    SXL0    3,,PR0

      949    22162        %NEWRSW;
      950    22165        %SEARCH (RWD='SOURCE-COMPUTER',        RWNO=%RSV_WRD_SOURCE_COMPUTER, MUST_AREAA=
             22165            TRUE);

  22169 17 023564   002731 054000 1                  AOS     NUMBER_OF_RESERVED_WORDS

  22170 17 023565   000017 235007                    LDA     15,DL
        17 023566   000010 755000 6                  STA     LEX_SYMBOL+8
PL6.E3A0      #001=COBOLRW File=COBOLRW.:Z8A6TSI                                 SAT 08/09/97 09:25 Page:477

  22171 17 023567   040000 100400                    MLR     fill='040'O
        17 023570   001720 000017 16                 ADSC9   976                      cn=0,n=15
        17 023571   000011 000504 6                  ADSC9   LEX_SYMBOL+9             cn=0,n=324

  22172 17 023572   000000 631400 18                 EPPR1   0
        17 023573   000000 701000 xent               TSX1    Z8AH$SEARCH_
        17 023574   000000 011000                    NOP     0

  22173 17 023575   000000 470400 2                  LDP0    DNT$
        17 023576   400000 236003                    LDQ     -131072,DU
        17 023577   000003 256100                    ORSQ    3,,PR0

  22174 17 023600   000001 236000 18                 LDQ     1
        17 023601   000003 356100                    ANSQ    3,,PR0

  22175 17 023602   000002 236000 18                 LDQ     2
        17 023603   000003 356100                    ANSQ    3,,PR0

  22176 17 023604   000040 236003                    LDQ     32,DU
        17 023605   000003 256100                    ORSQ    3,,PR0

  22177 17 023606   000004 236000 18                 LDQ     4
        17 023607   000003 356100                    ANSQ    3,,PR0

  22178 17 023610   000647 220003                    LDX0    423,DU
        17 023611   000003 440100                    SXL0    3,,PR0

      951    22180        %NEWRSW;
      952    22183        %SEARCH (RWD='SPACES',                 RWNO=%RSV_WRD_SPACES, FIG_CONSTANT=TRUE);

  22187 17 023612   002731 054000 1                  AOS     NUMBER_OF_RESERVED_WORDS

  22188 17 023613   000006 235007                    LDA     6,DL
        17 023614   000010 755000 6                  STA     LEX_SYMBOL+8

  22189 17 023615   040000 100400                    MLR     fill='040'O
PL6.E3A0      #001=COBOLRW File=COBOLRW.:Z8A6TSI                                 SAT 08/09/97 09:25 Page:478
        17 023616   001724 000006 16                 ADSC9   980                      cn=0,n=6
        17 023617   000011 000504 6                  ADSC9   LEX_SYMBOL+9             cn=0,n=324

  22190 17 023620   000000 631400 18                 EPPR1   0
        17 023621   000000 701000 xent               TSX1    Z8AH$SEARCH_
        17 023622   000000 011000                    NOP     0

  22191 17 023623   000000 470400 2                  LDP0    DNT$
        17 023624   400000 236003                    LDQ     -131072,DU
        17 023625   000003 256100                    ORSQ    3,,PR0

  22192 17 023626   000001 236000 18                 LDQ     1
        17 023627   000003 356100                    ANSQ    3,,PR0

  22193 17 023630   000002 236000 18                 LDQ     2
        17 023631   000003 356100                    ANSQ    3,,PR0

  22194 17 023632   000003 236000 18                 LDQ     3
        17 023633   000003 356100                    ANSQ    3,,PR0

  22195 17 023634   002000 236003                    LDQ     1024,DU
        17 023635   000003 256100                    ORSQ    3,,PR0

  22196 17 023636   000650 220003                    LDX0    424,DU
        17 023637   000003 440100                    SXL0    3,,PR0

      953    22198        %SEARCH (RWD='SPACE',                  RWNO=%RSV_WRD_SPACES, FIG_CONSTANT=TRUE);

  22202 17 023640   002731 054000 1                  AOS     NUMBER_OF_RESERVED_WORDS

  22203 17 023641   000005 235007                    LDA     5,DL
        17 023642   000010 755000 6                  STA     LEX_SYMBOL+8

  22204 17 023643   040000 100400                    MLR     fill='040'O
        17 023644   001724 000005 16                 ADSC9   980                      cn=0,n=5
        17 023645   000011 000504 6                  ADSC9   LEX_SYMBOL+9             cn=0,n=324

PL6.E3A0      #001=COBOLRW File=COBOLRW.:Z8A6TSI                                 SAT 08/09/97 09:25 Page:479
  22205 17 023646   000000 631400 18                 EPPR1   0
        17 023647   000000 701000 xent               TSX1    Z8AH$SEARCH_
        17 023650   000000 011000                    NOP     0

  22206 17 023651   000000 470400 2                  LDP0    DNT$
        17 023652   400000 236003                    LDQ     -131072,DU
        17 023653   000003 256100                    ORSQ    3,,PR0

  22207 17 023654   000001 236000 18                 LDQ     1
        17 023655   000003 356100                    ANSQ    3,,PR0

  22208 17 023656   000002 236000 18                 LDQ     2
        17 023657   000003 356100                    ANSQ    3,,PR0

  22209 17 023660   000003 236000 18                 LDQ     3
        17 023661   000003 356100                    ANSQ    3,,PR0

  22210 17 023662   002000 236003                    LDQ     1024,DU
        17 023663   000003 256100                    ORSQ    3,,PR0

  22211 17 023664   000650 220003                    LDX0    424,DU
        17 023665   000003 440100                    SXL0    3,,PR0

      954    22213        %NEWRSW;
      955    22216        %SEARCH (RWD='SPANNED',                RWNO=%RSV_WRD_SPANNED);

  22220 17 023666   002731 054000 1                  AOS     NUMBER_OF_RESERVED_WORDS

  22221 17 023667   000007 235007                    LDA     7,DL
        17 023670   000010 755000 6                  STA     LEX_SYMBOL+8

  22222 17 023671   040000 100400                    MLR     fill='040'O
        17 023672   001726 000007 16                 ADSC9   982                      cn=0,n=7
        17 023673   000011 000504 6                  ADSC9   LEX_SYMBOL+9             cn=0,n=324

  22223 17 023674   000000 631400 18                 EPPR1   0
        17 023675   000000 701000 xent               TSX1    Z8AH$SEARCH_
PL6.E3A0      #001=COBOLRW File=COBOLRW.:Z8A6TSI                                 SAT 08/09/97 09:25 Page:480
        17 023676   000000 011000                    NOP     0

  22224 17 023677   000000 470400 2                  LDP0    DNT$
        17 023700   400000 236003                    LDQ     -131072,DU
        17 023701   000003 256100                    ORSQ    3,,PR0

  22225 17 023702   000001 236000 18                 LDQ     1
        17 023703   000003 356100                    ANSQ    3,,PR0

  22226 17 023704   000002 236000 18                 LDQ     2
        17 023705   000003 356100                    ANSQ    3,,PR0

  22227 17 023706   000003 236000 18                 LDQ     3
        17 023707   000003 356100                    ANSQ    3,,PR0

  22228 17 023710   000004 236000 18                 LDQ     4
        17 023711   000003 356100                    ANSQ    3,,PR0

  22229 17 023712   000651 220003                    LDX0    425,DU
        17 023713   000003 440100                    SXL0    3,,PR0

      956    22231        %NEWRSW;
      957    22234        %SEARCH (RWD='SPECIAL-NAMES',         RWNO=%RSV_WRD_SPECIAL_NAMES, MUST_AREAA=TRUE)
             22234            ;

  22238 17 023714   002731 054000 1                  AOS     NUMBER_OF_RESERVED_WORDS

  22239 17 023715   000015 235007                    LDA     13,DL
        17 023716   000010 755000 6                  STA     LEX_SYMBOL+8

  22240 17 023717   040000 100400                    MLR     fill='040'O
        17 023720   001730 000015 16                 ADSC9   984                      cn=0,n=13
        17 023721   000011 000504 6                  ADSC9   LEX_SYMBOL+9             cn=0,n=324

  22241 17 023722   000000 631400 18                 EPPR1   0
        17 023723   000000 701000 xent               TSX1    Z8AH$SEARCH_
        17 023724   000000 011000                    NOP     0
PL6.E3A0      #001=COBOLRW File=COBOLRW.:Z8A6TSI                                 SAT 08/09/97 09:25 Page:481

  22242 17 023725   000000 470400 2                  LDP0    DNT$
        17 023726   400000 236003                    LDQ     -131072,DU
        17 023727   000003 256100                    ORSQ    3,,PR0

  22243 17 023730   000001 236000 18                 LDQ     1
        17 023731   000003 356100                    ANSQ    3,,PR0

  22244 17 023732   000002 236000 18                 LDQ     2
        17 023733   000003 356100                    ANSQ    3,,PR0

  22245 17 023734   000040 236003                    LDQ     32,DU
        17 023735   000003 256100                    ORSQ    3,,PR0

  22246 17 023736   000004 236000 18                 LDQ     4
        17 023737   000003 356100                    ANSQ    3,,PR0

  22247 17 023740   000652 220003                    LDX0    426,DU
        17 023741   000003 440100                    SXL0    3,,PR0

      958    22249        %NEWRSW;
      959    22252        %SEARCH (RWD='SSF',                    RWNO=%RSV_WRD_SSF);

  22256 17 023742   002731 054000 1                  AOS     NUMBER_OF_RESERVED_WORDS

  22257 17 023743   000003 235007                    LDA     3,DL
        17 023744   000010 755000 6                  STA     LEX_SYMBOL+8

  22258 17 023745   040000 100400                    MLR     fill='040'O
        17 023746   001734 000003 16                 ADSC9   988                      cn=0,n=3
        17 023747   000011 000504 6                  ADSC9   LEX_SYMBOL+9             cn=0,n=324

  22259 17 023750   000000 631400 18                 EPPR1   0
        17 023751   000000 701000 xent               TSX1    Z8AH$SEARCH_
        17 023752   000000 011000                    NOP     0

  22260 17 023753   000000 470400 2                  LDP0    DNT$
PL6.E3A0      #001=COBOLRW File=COBOLRW.:Z8A6TSI                                 SAT 08/09/97 09:25 Page:482
        17 023754   400000 236003                    LDQ     -131072,DU
        17 023755   000003 256100                    ORSQ    3,,PR0

  22261 17 023756   000001 236000 18                 LDQ     1
        17 023757   000003 356100                    ANSQ    3,,PR0

  22262 17 023760   000002 236000 18                 LDQ     2
        17 023761   000003 356100                    ANSQ    3,,PR0

  22263 17 023762   000003 236000 18                 LDQ     3
        17 023763   000003 356100                    ANSQ    3,,PR0

  22264 17 023764   000004 236000 18                 LDQ     4
        17 023765   000003 356100                    ANSQ    3,,PR0

  22265 17 023766   000653 220003                    LDX0    427,DU
        17 023767   000003 440100                    SXL0    3,,PR0

      960    22267        %NEWRSW;
      961    22270        %SEARCH (RWD='STANDARD',               RWNO=%RSV_WRD_STANDARD);

  22274 17 023770   002731 054000 1                  AOS     NUMBER_OF_RESERVED_WORDS

  22275 17 023771   000010 235007                    LDA     8,DL
        17 023772   000010 755000 6                  STA     LEX_SYMBOL+8

  22276 17 023773   040000 100400                    MLR     fill='040'O
        17 023774   001735 000010 16                 ADSC9   989                      cn=0,n=8
        17 023775   000011 000504 6                  ADSC9   LEX_SYMBOL+9             cn=0,n=324

  22277 17 023776   000000 631400 18                 EPPR1   0
        17 023777   000000 701000 xent               TSX1    Z8AH$SEARCH_
        17 024000   000000 011000                    NOP     0

  22278 17 024001   000000 470400 2                  LDP0    DNT$
        17 024002   400000 236003                    LDQ     -131072,DU
        17 024003   000003 256100                    ORSQ    3,,PR0
PL6.E3A0      #001=COBOLRW File=COBOLRW.:Z8A6TSI                                 SAT 08/09/97 09:25 Page:483

  22279 17 024004   000001 236000 18                 LDQ     1
        17 024005   000003 356100                    ANSQ    3,,PR0

  22280 17 024006   000002 236000 18                 LDQ     2
        17 024007   000003 356100                    ANSQ    3,,PR0

  22281 17 024010   000003 236000 18                 LDQ     3
        17 024011   000003 356100                    ANSQ    3,,PR0

  22282 17 024012   000004 236000 18                 LDQ     4
        17 024013   000003 356100                    ANSQ    3,,PR0

  22283 17 024014   000654 220003                    LDX0    428,DU
        17 024015   000003 440100                    SXL0    3,,PR0

      962    22285        %NEWRSW;
      963    22288        %SEARCH (RWD='STANDARD-1',             RWNO=%RSV_WRD_STANDARD_1);

  22292 17 024016   002731 054000 1                  AOS     NUMBER_OF_RESERVED_WORDS

  22293 17 024017   000012 235007                    LDA     10,DL
        17 024020   000010 755000 6                  STA     LEX_SYMBOL+8

  22294 17 024021   040000 100400                    MLR     fill='040'O
        17 024022   001737 000012 16                 ADSC9   991                      cn=0,n=10
        17 024023   000011 000504 6                  ADSC9   LEX_SYMBOL+9             cn=0,n=324

  22295 17 024024   000000 631400 18                 EPPR1   0
        17 024025   000000 701000 xent               TSX1    Z8AH$SEARCH_
        17 024026   000000 011000                    NOP     0

  22296 17 024027   000000 470400 2                  LDP0    DNT$
        17 024030   400000 236003                    LDQ     -131072,DU
        17 024031   000003 256100                    ORSQ    3,,PR0

  22297 17 024032   000001 236000 18                 LDQ     1
PL6.E3A0      #001=COBOLRW File=COBOLRW.:Z8A6TSI                                 SAT 08/09/97 09:25 Page:484
        17 024033   000003 356100                    ANSQ    3,,PR0

  22298 17 024034   000002 236000 18                 LDQ     2
        17 024035   000003 356100                    ANSQ    3,,PR0

  22299 17 024036   000003 236000 18                 LDQ     3
        17 024037   000003 356100                    ANSQ    3,,PR0

  22300 17 024040   000004 236000 18                 LDQ     4
        17 024041   000003 356100                    ANSQ    3,,PR0

  22301 17 024042   000655 220003                    LDX0    429,DU
        17 024043   000003 440100                    SXL0    3,,PR0

      964    22303        %NEWRSW;
      965    22306        %SEARCH (RWD='STANDARD-2',             RWNO=%RSV_WRD_STANDARD_2);

  22310 17 024044   002731 054000 1                  AOS     NUMBER_OF_RESERVED_WORDS

  22311 17 024045   000012 235007                    LDA     10,DL
        17 024046   000010 755000 6                  STA     LEX_SYMBOL+8

  22312 17 024047   040000 100400                    MLR     fill='040'O
        17 024050   001742 000012 16                 ADSC9   994                      cn=0,n=10
        17 024051   000011 000504 6                  ADSC9   LEX_SYMBOL+9             cn=0,n=324

  22313 17 024052   000000 631400 18                 EPPR1   0
        17 024053   000000 701000 xent               TSX1    Z8AH$SEARCH_
        17 024054   000000 011000                    NOP     0

  22314 17 024055   000000 470400 2                  LDP0    DNT$
        17 024056   400000 236003                    LDQ     -131072,DU
        17 024057   000003 256100                    ORSQ    3,,PR0

  22315 17 024060   000001 236000 18                 LDQ     1
        17 024061   000003 356100                    ANSQ    3,,PR0

PL6.E3A0      #001=COBOLRW File=COBOLRW.:Z8A6TSI                                 SAT 08/09/97 09:25 Page:485
  22316 17 024062   000002 236000 18                 LDQ     2
        17 024063   000003 356100                    ANSQ    3,,PR0

  22317 17 024064   000003 236000 18                 LDQ     3
        17 024065   000003 356100                    ANSQ    3,,PR0

  22318 17 024066   000004 236000 18                 LDQ     4
        17 024067   000003 356100                    ANSQ    3,,PR0

  22319 17 024070   000656 220003                    LDX0    430,DU
        17 024071   000003 440100                    SXL0    3,,PR0

      966    22321        %NEWRSW;
      967    22324        %SEARCH (RWD='START',                  RWNO=%RSV_WRD_START);

  22328 17 024072   002731 054000 1                  AOS     NUMBER_OF_RESERVED_WORDS

  22329 17 024073   000005 235007                    LDA     5,DL
        17 024074   000010 755000 6                  STA     LEX_SYMBOL+8

  22330 17 024075   040000 100400                    MLR     fill='040'O
        17 024076   001745 000005 16                 ADSC9   997                      cn=0,n=5
        17 024077   000011 000504 6                  ADSC9   LEX_SYMBOL+9             cn=0,n=324

  22331 17 024100   000000 631400 18                 EPPR1   0
        17 024101   000000 701000 xent               TSX1    Z8AH$SEARCH_
        17 024102   000000 011000                    NOP     0

  22332 17 024103   000000 470400 2                  LDP0    DNT$
        17 024104   400000 236003                    LDQ     -131072,DU
        17 024105   000003 256100                    ORSQ    3,,PR0

  22333 17 024106   000001 236000 18                 LDQ     1
        17 024107   000003 356100                    ANSQ    3,,PR0

  22334 17 024110   000002 236000 18                 LDQ     2
        17 024111   000003 356100                    ANSQ    3,,PR0
PL6.E3A0      #001=COBOLRW File=COBOLRW.:Z8A6TSI                                 SAT 08/09/97 09:25 Page:486

  22335 17 024112   000003 236000 18                 LDQ     3
        17 024113   000003 356100                    ANSQ    3,,PR0

  22336 17 024114   000004 236000 18                 LDQ     4
        17 024115   000003 356100                    ANSQ    3,,PR0

  22337 17 024116   000657 220003                    LDX0    431,DU
        17 024117   000003 440100                    SXL0    3,,PR0

      968    22339        %NEWRSW;
      969    22342        %SEARCH (RWD='STATUS',                 RWNO=%RSV_WRD_STATUS);

  22346 17 024120   002731 054000 1                  AOS     NUMBER_OF_RESERVED_WORDS

  22347 17 024121   000006 235007                    LDA     6,DL
        17 024122   000010 755000 6                  STA     LEX_SYMBOL+8

  22348 17 024123   040000 100400                    MLR     fill='040'O
        17 024124   001747 000006 16                 ADSC9   999                      cn=0,n=6
        17 024125   000011 000504 6                  ADSC9   LEX_SYMBOL+9             cn=0,n=324

  22349 17 024126   000000 631400 18                 EPPR1   0
        17 024127   000000 701000 xent               TSX1    Z8AH$SEARCH_
        17 024130   000000 011000                    NOP     0

  22350 17 024131   000000 470400 2                  LDP0    DNT$
        17 024132   400000 236003                    LDQ     -131072,DU
        17 024133   000003 256100                    ORSQ    3,,PR0

  22351 17 024134   000001 236000 18                 LDQ     1
        17 024135   000003 356100                    ANSQ    3,,PR0

  22352 17 024136   000002 236000 18                 LDQ     2
        17 024137   000003 356100                    ANSQ    3,,PR0

  22353 17 024140   000003 236000 18                 LDQ     3
PL6.E3A0      #001=COBOLRW File=COBOLRW.:Z8A6TSI                                 SAT 08/09/97 09:25 Page:487
        17 024141   000003 356100                    ANSQ    3,,PR0

  22354 17 024142   000004 236000 18                 LDQ     4
        17 024143   000003 356100                    ANSQ    3,,PR0

  22355 17 024144   000660 220003                    LDX0    432,DU
        17 024145   000003 440100                    SXL0    3,,PR0

      970    22357        %NEWRSW;
      971    22360        %SEARCH (RWD='STOP',                   RWNO=%RSV_WRD_STOP);

  22364 17 024146   002731 054000 1                  AOS     NUMBER_OF_RESERVED_WORDS

  22365 17 024147   000004 235007                    LDA     4,DL
        17 024150   000010 755000 6                  STA     LEX_SYMBOL+8

  22366 17 024151   040000 100400                    MLR     fill='040'O
        17 024152   001751 000004 16                 ADSC9   1001                     cn=0,n=4
        17 024153   000011 000504 6                  ADSC9   LEX_SYMBOL+9             cn=0,n=324

  22367 17 024154   000000 631400 18                 EPPR1   0
        17 024155   000000 701000 xent               TSX1    Z8AH$SEARCH_
        17 024156   000000 011000                    NOP     0

  22368 17 024157   000000 470400 2                  LDP0    DNT$
        17 024160   400000 236003                    LDQ     -131072,DU
        17 024161   000003 256100                    ORSQ    3,,PR0

  22369 17 024162   000001 236000 18                 LDQ     1
        17 024163   000003 356100                    ANSQ    3,,PR0

  22370 17 024164   000002 236000 18                 LDQ     2
        17 024165   000003 356100                    ANSQ    3,,PR0

  22371 17 024166   000003 236000 18                 LDQ     3
        17 024167   000003 356100                    ANSQ    3,,PR0

PL6.E3A0      #001=COBOLRW File=COBOLRW.:Z8A6TSI                                 SAT 08/09/97 09:25 Page:488
  22372 17 024170   000004 236000 18                 LDQ     4
        17 024171   000003 356100                    ANSQ    3,,PR0

  22373 17 024172   000661 220003                    LDX0    433,DU
        17 024173   000003 440100                    SXL0    3,,PR0

      972    22375        %NEWRSW;
      973    22378        %SEARCH (RWD='STORE',                  RWNO=%RSV_WRD_STORE);

  22382 17 024174   002731 054000 1                  AOS     NUMBER_OF_RESERVED_WORDS

  22383 17 024175   000005 235007                    LDA     5,DL
        17 024176   000010 755000 6                  STA     LEX_SYMBOL+8

  22384 17 024177   040000 100400                    MLR     fill='040'O
        17 024200   001752 000005 16                 ADSC9   1002                     cn=0,n=5
        17 024201   000011 000504 6                  ADSC9   LEX_SYMBOL+9             cn=0,n=324

  22385 17 024202   000000 631400 18                 EPPR1   0
        17 024203   000000 701000 xent               TSX1    Z8AH$SEARCH_
        17 024204   000000 011000                    NOP     0

  22386 17 024205   000000 470400 2                  LDP0    DNT$
        17 024206   400000 236003                    LDQ     -131072,DU
        17 024207   000003 256100                    ORSQ    3,,PR0

  22387 17 024210   000001 236000 18                 LDQ     1
        17 024211   000003 356100                    ANSQ    3,,PR0

  22388 17 024212   000002 236000 18                 LDQ     2
        17 024213   000003 356100                    ANSQ    3,,PR0

  22389 17 024214   000003 236000 18                 LDQ     3
        17 024215   000003 356100                    ANSQ    3,,PR0

  22390 17 024216   000004 236000 18                 LDQ     4
        17 024217   000003 356100                    ANSQ    3,,PR0
PL6.E3A0      #001=COBOLRW File=COBOLRW.:Z8A6TSI                                 SAT 08/09/97 09:25 Page:489

  22391 17 024220   000662 220003                    LDX0    434,DU
        17 024221   000003 440100                    SXL0    3,,PR0

      974    22393        %NEWRSW;
      975    22396        %SEARCH (RWD='STREAM',                 RWNO=%RSV_WRD_STREAM);

  22400 17 024222   002731 054000 1                  AOS     NUMBER_OF_RESERVED_WORDS

  22401 17 024223   000006 235007                    LDA     6,DL
        17 024224   000010 755000 6                  STA     LEX_SYMBOL+8

  22402 17 024225   040000 100400                    MLR     fill='040'O
        17 024226   001754 000006 16                 ADSC9   1004                     cn=0,n=6
        17 024227   000011 000504 6                  ADSC9   LEX_SYMBOL+9             cn=0,n=324

  22403 17 024230   000000 631400 18                 EPPR1   0
        17 024231   000000 701000 xent               TSX1    Z8AH$SEARCH_
        17 024232   000000 011000                    NOP     0

  22404 17 024233   000000 470400 2                  LDP0    DNT$
        17 024234   400000 236003                    LDQ     -131072,DU
        17 024235   000003 256100                    ORSQ    3,,PR0

  22405 17 024236   000001 236000 18                 LDQ     1
        17 024237   000003 356100                    ANSQ    3,,PR0

  22406 17 024240   000002 236000 18                 LDQ     2
        17 024241   000003 356100                    ANSQ    3,,PR0

  22407 17 024242   000003 236000 18                 LDQ     3
        17 024243   000003 356100                    ANSQ    3,,PR0

  22408 17 024244   000004 236000 18                 LDQ     4
        17 024245   000003 356100                    ANSQ    3,,PR0

  22409 17 024246   000663 220003                    LDX0    435,DU
PL6.E3A0      #001=COBOLRW File=COBOLRW.:Z8A6TSI                                 SAT 08/09/97 09:25 Page:490
        17 024247   000003 440100                    SXL0    3,,PR0

      976    22411        %NEWRSW;
      977    22414        %SEARCH (RWD='STRING',                 RWNO=%RSV_WRD_STRING);

  22418 17 024250   002731 054000 1                  AOS     NUMBER_OF_RESERVED_WORDS

  22419 17 024251   000006 235007                    LDA     6,DL
        17 024252   000010 755000 6                  STA     LEX_SYMBOL+8

  22420 17 024253   040000 100400                    MLR     fill='040'O
        17 024254   001756 000006 16                 ADSC9   1006                     cn=0,n=6
        17 024255   000011 000504 6                  ADSC9   LEX_SYMBOL+9             cn=0,n=324

  22421 17 024256   000000 631400 18                 EPPR1   0
        17 024257   000000 701000 xent               TSX1    Z8AH$SEARCH_
        17 024260   000000 011000                    NOP     0

  22422 17 024261   000000 470400 2                  LDP0    DNT$
        17 024262   400000 236003                    LDQ     -131072,DU
        17 024263   000003 256100                    ORSQ    3,,PR0

  22423 17 024264   000001 236000 18                 LDQ     1
        17 024265   000003 356100                    ANSQ    3,,PR0

  22424 17 024266   000002 236000 18                 LDQ     2
        17 024267   000003 356100                    ANSQ    3,,PR0

  22425 17 024270   000003 236000 18                 LDQ     3
        17 024271   000003 356100                    ANSQ    3,,PR0

  22426 17 024272   000004 236000 18                 LDQ     4
        17 024273   000003 356100                    ANSQ    3,,PR0

  22427 17 024274   000664 220003                    LDX0    436,DU
        17 024275   000003 440100                    SXL0    3,,PR0

PL6.E3A0      #001=COBOLRW File=COBOLRW.:Z8A6TSI                                 SAT 08/09/97 09:25 Page:491
      978    22429        %NEWRSW;
      979    22432        %SEARCH (RWD='SUB-QUEUE-1',            RWNO=%RSV_WRD_SUB_QUEUE_1);

  22436 17 024276   002731 054000 1                  AOS     NUMBER_OF_RESERVED_WORDS

  22437 17 024277   000013 235007                    LDA     11,DL
        17 024300   000010 755000 6                  STA     LEX_SYMBOL+8

  22438 17 024301   040000 100400                    MLR     fill='040'O
        17 024302   001760 000013 16                 ADSC9   1008                     cn=0,n=11
        17 024303   000011 000504 6                  ADSC9   LEX_SYMBOL+9             cn=0,n=324

  22439 17 024304   000000 631400 18                 EPPR1   0
        17 024305   000000 701000 xent               TSX1    Z8AH$SEARCH_
        17 024306   000000 011000                    NOP     0

  22440 17 024307   000000 470400 2                  LDP0    DNT$
        17 024310   400000 236003                    LDQ     -131072,DU
        17 024311   000003 256100                    ORSQ    3,,PR0

  22441 17 024312   000001 236000 18                 LDQ     1
        17 024313   000003 356100                    ANSQ    3,,PR0

  22442 17 024314   000002 236000 18                 LDQ     2
        17 024315   000003 356100                    ANSQ    3,,PR0

  22443 17 024316   000003 236000 18                 LDQ     3
        17 024317   000003 356100                    ANSQ    3,,PR0

  22444 17 024320   000004 236000 18                 LDQ     4
        17 024321   000003 356100                    ANSQ    3,,PR0

  22445 17 024322   000665 220003                    LDX0    437,DU
        17 024323   000003 440100                    SXL0    3,,PR0

      980    22447        %NEWRSW;
      981    22450        %SEARCH (RWD='SUB-QUEUE-2',            RWNO=%RSV_WRD_SUB_QUEUE_2);
PL6.E3A0      #001=COBOLRW File=COBOLRW.:Z8A6TSI                                 SAT 08/09/97 09:25 Page:492

  22454 17 024324   002731 054000 1                  AOS     NUMBER_OF_RESERVED_WORDS

  22455 17 024325   000013 235007                    LDA     11,DL
        17 024326   000010 755000 6                  STA     LEX_SYMBOL+8

  22456 17 024327   040000 100400                    MLR     fill='040'O
        17 024330   001763 000013 16                 ADSC9   1011                     cn=0,n=11
        17 024331   000011 000504 6                  ADSC9   LEX_SYMBOL+9             cn=0,n=324

  22457 17 024332   000000 631400 18                 EPPR1   0
        17 024333   000000 701000 xent               TSX1    Z8AH$SEARCH_
        17 024334   000000 011000                    NOP     0

  22458 17 024335   000000 470400 2                  LDP0    DNT$
        17 024336   400000 236003                    LDQ     -131072,DU
        17 024337   000003 256100                    ORSQ    3,,PR0

  22459 17 024340   000001 236000 18                 LDQ     1
        17 024341   000003 356100                    ANSQ    3,,PR0

  22460 17 024342   000002 236000 18                 LDQ     2
        17 024343   000003 356100                    ANSQ    3,,PR0

  22461 17 024344   000003 236000 18                 LDQ     3
        17 024345   000003 356100                    ANSQ    3,,PR0

  22462 17 024346   000004 236000 18                 LDQ     4
        17 024347   000003 356100                    ANSQ    3,,PR0

  22463 17 024350   000666 220003                    LDX0    438,DU
        17 024351   000003 440100                    SXL0    3,,PR0

      982    22465        %NEWRSW;
      983    22468        %SEARCH (RWD='SUB-QUEUE-3',            RWNO=%RSV_WRD_SUB_QUEUE_3);

  22472 17 024352   002731 054000 1                  AOS     NUMBER_OF_RESERVED_WORDS
PL6.E3A0      #001=COBOLRW File=COBOLRW.:Z8A6TSI                                 SAT 08/09/97 09:25 Page:493

  22473 17 024353   000013 235007                    LDA     11,DL
        17 024354   000010 755000 6                  STA     LEX_SYMBOL+8

  22474 17 024355   040000 100400                    MLR     fill='040'O
        17 024356   001766 000013 16                 ADSC9   1014                     cn=0,n=11
        17 024357   000011 000504 6                  ADSC9   LEX_SYMBOL+9             cn=0,n=324

  22475 17 024360   000000 631400 18                 EPPR1   0
        17 024361   000000 701000 xent               TSX1    Z8AH$SEARCH_
        17 024362   000000 011000                    NOP     0

  22476 17 024363   000000 470400 2                  LDP0    DNT$
        17 024364   400000 236003                    LDQ     -131072,DU
        17 024365   000003 256100                    ORSQ    3,,PR0

  22477 17 024366   000001 236000 18                 LDQ     1
        17 024367   000003 356100                    ANSQ    3,,PR0

  22478 17 024370   000002 236000 18                 LDQ     2
        17 024371   000003 356100                    ANSQ    3,,PR0

  22479 17 024372   000003 236000 18                 LDQ     3
        17 024373   000003 356100                    ANSQ    3,,PR0

  22480 17 024374   000004 236000 18                 LDQ     4
        17 024375   000003 356100                    ANSQ    3,,PR0

  22481 17 024376   000667 220003                    LDX0    439,DU
        17 024377   000003 440100                    SXL0    3,,PR0

      984    22483        %NEWRSW;
      985    22486        %SEARCH (RWD='SUB-SCHEMA',             RWNO=%RSV_WRD_SUB_SCHEMA);

  22490 17 024400   002731 054000 1                  AOS     NUMBER_OF_RESERVED_WORDS

  22491 17 024401   000012 235007                    LDA     10,DL
PL6.E3A0      #001=COBOLRW File=COBOLRW.:Z8A6TSI                                 SAT 08/09/97 09:25 Page:494
        17 024402   000010 755000 6                  STA     LEX_SYMBOL+8

  22492 17 024403   040000 100400                    MLR     fill='040'O
        17 024404   001771 000012 16                 ADSC9   1017                     cn=0,n=10
        17 024405   000011 000504 6                  ADSC9   LEX_SYMBOL+9             cn=0,n=324

  22493 17 024406   000000 631400 18                 EPPR1   0
        17 024407   000000 701000 xent               TSX1    Z8AH$SEARCH_
        17 024410   000000 011000                    NOP     0

  22494 17 024411   000000 470400 2                  LDP0    DNT$
        17 024412   400000 236003                    LDQ     -131072,DU
        17 024413   000003 256100                    ORSQ    3,,PR0

  22495 17 024414   000001 236000 18                 LDQ     1
        17 024415   000003 356100                    ANSQ    3,,PR0

  22496 17 024416   000002 236000 18                 LDQ     2
        17 024417   000003 356100                    ANSQ    3,,PR0

  22497 17 024420   000003 236000 18                 LDQ     3
        17 024421   000003 356100                    ANSQ    3,,PR0

  22498 17 024422   000004 236000 18                 LDQ     4
        17 024423   000003 356100                    ANSQ    3,,PR0

  22499 17 024424   000670 220003                    LDX0    440,DU
        17 024425   000003 440100                    SXL0    3,,PR0

      986    22501        %NEWRSW;
      987    22504        %SEARCH (RWD='SUBSTITUTION',           RWNO=%RSV_WRD_SUBSTITUTION);

  22508 17 024426   002731 054000 1                  AOS     NUMBER_OF_RESERVED_WORDS

  22509 17 024427   000014 235007                    LDA     12,DL
        17 024430   000010 755000 6                  STA     LEX_SYMBOL+8

PL6.E3A0      #001=COBOLRW File=COBOLRW.:Z8A6TSI                                 SAT 08/09/97 09:25 Page:495
  22510 17 024431   040000 100400                    MLR     fill='040'O
        17 024432   001774 000014 16                 ADSC9   1020                     cn=0,n=12
        17 024433   000011 000504 6                  ADSC9   LEX_SYMBOL+9             cn=0,n=324

  22511 17 024434   000000 631400 18                 EPPR1   0
        17 024435   000000 701000 xent               TSX1    Z8AH$SEARCH_
        17 024436   000000 011000                    NOP     0

  22512 17 024437   000000 470400 2                  LDP0    DNT$
        17 024440   400000 236003                    LDQ     -131072,DU
        17 024441   000003 256100                    ORSQ    3,,PR0

  22513 17 024442   000001 236000 18                 LDQ     1
        17 024443   000003 356100                    ANSQ    3,,PR0

  22514 17 024444   000002 236000 18                 LDQ     2
        17 024445   000003 356100                    ANSQ    3,,PR0

  22515 17 024446   000003 236000 18                 LDQ     3
        17 024447   000003 356100                    ANSQ    3,,PR0

  22516 17 024450   000004 236000 18                 LDQ     4
        17 024451   000003 356100                    ANSQ    3,,PR0

  22517 17 024452   000671 220003                    LDX0    441,DU
        17 024453   000003 440100                    SXL0    3,,PR0

      988    22519        %NEWRSW;
      989    22522        %SEARCH (RWD='SUBTRACT',               RWNO=%RSV_WRD_SUBTRACT);

  22526 17 024454   002731 054000 1                  AOS     NUMBER_OF_RESERVED_WORDS

  22527 17 024455   000010 235007                    LDA     8,DL
        17 024456   000010 755000 6                  STA     LEX_SYMBOL+8

  22528 17 024457   040000 100400                    MLR     fill='040'O
        17 024460   001777 000010 16                 ADSC9   1023                     cn=0,n=8
PL6.E3A0      #001=COBOLRW File=COBOLRW.:Z8A6TSI                                 SAT 08/09/97 09:25 Page:496
        17 024461   000011 000504 6                  ADSC9   LEX_SYMBOL+9             cn=0,n=324

  22529 17 024462   000000 631400 18                 EPPR1   0
        17 024463   000000 701000 xent               TSX1    Z8AH$SEARCH_
        17 024464   000000 011000                    NOP     0

  22530 17 024465   000000 470400 2                  LDP0    DNT$
        17 024466   400000 236003                    LDQ     -131072,DU
        17 024467   000003 256100                    ORSQ    3,,PR0

  22531 17 024470   000001 236000 18                 LDQ     1
        17 024471   000003 356100                    ANSQ    3,,PR0

  22532 17 024472   000002 236000 18                 LDQ     2
        17 024473   000003 356100                    ANSQ    3,,PR0

  22533 17 024474   000003 236000 18                 LDQ     3
        17 024475   000003 356100                    ANSQ    3,,PR0

  22534 17 024476   000004 236000 18                 LDQ     4
        17 024477   000003 356100                    ANSQ    3,,PR0

  22535 17 024500   000672 220003                    LDX0    442,DU
        17 024501   000003 440100                    SXL0    3,,PR0

      990    22537        %NEWRSW;
      991    22540        %SEARCH (RWD='SUM',                    RWNO=%RSV_WRD_SUM);

  22544 17 024502   002731 054000 1                  AOS     NUMBER_OF_RESERVED_WORDS

  22545 17 024503   000003 235007                    LDA     3,DL
        17 024504   000010 755000 6                  STA     LEX_SYMBOL+8

  22546 17 024505   040000 100400                    MLR     fill='040'O
        17 024506   002001 000003 16                 ADSC9   1025                     cn=0,n=3
        17 024507   000011 000504 6                  ADSC9   LEX_SYMBOL+9             cn=0,n=324

PL6.E3A0      #001=COBOLRW File=COBOLRW.:Z8A6TSI                                 SAT 08/09/97 09:25 Page:497
  22547 17 024510   000000 631400 18                 EPPR1   0
        17 024511   000000 701000 xent               TSX1    Z8AH$SEARCH_
        17 024512   000000 011000                    NOP     0

  22548 17 024513   000000 470400 2                  LDP0    DNT$
        17 024514   400000 236003                    LDQ     -131072,DU
        17 024515   000003 256100                    ORSQ    3,,PR0

  22549 17 024516   000001 236000 18                 LDQ     1
        17 024517   000003 356100                    ANSQ    3,,PR0

  22550 17 024520   000002 236000 18                 LDQ     2
        17 024521   000003 356100                    ANSQ    3,,PR0

  22551 17 024522   000003 236000 18                 LDQ     3
        17 024523   000003 356100                    ANSQ    3,,PR0

  22552 17 024524   000004 236000 18                 LDQ     4
        17 024525   000003 356100                    ANSQ    3,,PR0

  22553 17 024526   000673 220003                    LDX0    443,DU
        17 024527   000003 440100                    SXL0    3,,PR0

      992    22555        %NEWRSW;
      993    22558        %SEARCH (RWD='SUPPRESS',               RWNO=%RSV_WRD_SUPPRESS);

  22562 17 024530   002731 054000 1                  AOS     NUMBER_OF_RESERVED_WORDS

  22563 17 024531   000010 235007                    LDA     8,DL
        17 024532   000010 755000 6                  STA     LEX_SYMBOL+8

  22564 17 024533   040000 100400                    MLR     fill='040'O
        17 024534   002002 000010 16                 ADSC9   1026                     cn=0,n=8
        17 024535   000011 000504 6                  ADSC9   LEX_SYMBOL+9             cn=0,n=324

  22565 17 024536   000000 631400 18                 EPPR1   0
        17 024537   000000 701000 xent               TSX1    Z8AH$SEARCH_
PL6.E3A0      #001=COBOLRW File=COBOLRW.:Z8A6TSI                                 SAT 08/09/97 09:25 Page:498
        17 024540   000000 011000                    NOP     0

  22566 17 024541   000000 470400 2                  LDP0    DNT$
        17 024542   400000 236003                    LDQ     -131072,DU
        17 024543   000003 256100                    ORSQ    3,,PR0

  22567 17 024544   000001 236000 18                 LDQ     1
        17 024545   000003 356100                    ANSQ    3,,PR0

  22568 17 024546   000002 236000 18                 LDQ     2
        17 024547   000003 356100                    ANSQ    3,,PR0

  22569 17 024550   000003 236000 18                 LDQ     3
        17 024551   000003 356100                    ANSQ    3,,PR0

  22570 17 024552   000004 236000 18                 LDQ     4
        17 024553   000003 356100                    ANSQ    3,,PR0

  22571 17 024554   000674 220003                    LDX0    444,DU
        17 024555   000003 440100                    SXL0    3,,PR0

      994    22573        %NEWRSW;
      995    22576        %SEARCH (RWD='SWITCH-0',               RWNO=%RSV_WRD_SWITCH);

  22580 17 024556   002731 054000 1                  AOS     NUMBER_OF_RESERVED_WORDS

  22581 17 024557   000010 235007                    LDA     8,DL
        17 024560   000010 755000 6                  STA     LEX_SYMBOL+8

  22582 17 024561   040000 100400                    MLR     fill='040'O
        17 024562   002004 000010 16                 ADSC9   1028                     cn=0,n=8
        17 024563   000011 000504 6                  ADSC9   LEX_SYMBOL+9             cn=0,n=324

  22583 17 024564   000000 631400 18                 EPPR1   0
        17 024565   000000 701000 xent               TSX1    Z8AH$SEARCH_
        17 024566   000000 011000                    NOP     0

PL6.E3A0      #001=COBOLRW File=COBOLRW.:Z8A6TSI                                 SAT 08/09/97 09:25 Page:499
  22584 17 024567   000000 470400 2                  LDP0    DNT$
        17 024570   400000 236003                    LDQ     -131072,DU
        17 024571   000003 256100                    ORSQ    3,,PR0

  22585 17 024572   000001 236000 18                 LDQ     1
        17 024573   000003 356100                    ANSQ    3,,PR0

  22586 17 024574   000002 236000 18                 LDQ     2
        17 024575   000003 356100                    ANSQ    3,,PR0

  22587 17 024576   000003 236000 18                 LDQ     3
        17 024577   000003 356100                    ANSQ    3,,PR0

  22588 17 024600   000004 236000 18                 LDQ     4
        17 024601   000003 356100                    ANSQ    3,,PR0

  22589 17 024602   000675 220003                    LDX0    445,DU
        17 024603   000003 440100                    SXL0    3,,PR0

      996    22591        %SEARCH (RWD='SWITCH-1',               RWNO=%RSV_WRD_SWITCH);

  22595 17 024604   002731 054000 1                  AOS     NUMBER_OF_RESERVED_WORDS

  22596 17 024605   000010 235007                    LDA     8,DL
        17 024606   000010 755000 6                  STA     LEX_SYMBOL+8

  22597 17 024607   040000 100400                    MLR     fill='040'O
        17 024610   002006 000010 16                 ADSC9   1030                     cn=0,n=8
        17 024611   000011 000504 6                  ADSC9   LEX_SYMBOL+9             cn=0,n=324

  22598 17 024612   000000 631400 18                 EPPR1   0
        17 024613   000000 701000 xent               TSX1    Z8AH$SEARCH_
        17 024614   000000 011000                    NOP     0

  22599 17 024615   000000 470400 2                  LDP0    DNT$
        17 024616   400000 236003                    LDQ     -131072,DU
        17 024617   000003 256100                    ORSQ    3,,PR0
PL6.E3A0      #001=COBOLRW File=COBOLRW.:Z8A6TSI                                 SAT 08/09/97 09:25 Page:500

  22600 17 024620   000001 236000 18                 LDQ     1
        17 024621   000003 356100                    ANSQ    3,,PR0

  22601 17 024622   000002 236000 18                 LDQ     2
        17 024623   000003 356100                    ANSQ    3,,PR0

  22602 17 024624   000003 236000 18                 LDQ     3
        17 024625   000003 356100                    ANSQ    3,,PR0

  22603 17 024626   000004 236000 18                 LDQ     4
        17 024627   000003 356100                    ANSQ    3,,PR0

  22604 17 024630   000675 220003                    LDX0    445,DU
        17 024631   000003 440100                    SXL0    3,,PR0

      997    22606        %SEARCH (RWD='SWITCH-10',              RWNO=%RSV_WRD_SWITCH);

  22610 17 024632   002731 054000 1                  AOS     NUMBER_OF_RESERVED_WORDS

  22611 17 024633   000011 235007                    LDA     9,DL
        17 024634   000010 755000 6                  STA     LEX_SYMBOL+8

  22612 17 024635   040000 100400                    MLR     fill='040'O
        17 024636   002010 000011 16                 ADSC9   1032                     cn=0,n=9
        17 024637   000011 000504 6                  ADSC9   LEX_SYMBOL+9             cn=0,n=324

  22613 17 024640   000000 631400 18                 EPPR1   0
        17 024641   000000 701000 xent               TSX1    Z8AH$SEARCH_
        17 024642   000000 011000                    NOP     0

  22614 17 024643   000000 470400 2                  LDP0    DNT$
        17 024644   400000 236003                    LDQ     -131072,DU
        17 024645   000003 256100                    ORSQ    3,,PR0

  22615 17 024646   000001 236000 18                 LDQ     1
        17 024647   000003 356100                    ANSQ    3,,PR0
PL6.E3A0      #001=COBOLRW File=COBOLRW.:Z8A6TSI                                 SAT 08/09/97 09:25 Page:501

  22616 17 024650   000002 236000 18                 LDQ     2
        17 024651   000003 356100                    ANSQ    3,,PR0

  22617 17 024652   000003 236000 18                 LDQ     3
        17 024653   000003 356100                    ANSQ    3,,PR0

  22618 17 024654   000004 236000 18                 LDQ     4
        17 024655   000003 356100                    ANSQ    3,,PR0

  22619 17 024656   000675 220003                    LDX0    445,DU
        17 024657   000003 440100                    SXL0    3,,PR0

      998    22621        %SEARCH (RWD='SWITCH-11',              RWNO=%RSV_WRD_SWITCH);

  22625 17 024660   002731 054000 1                  AOS     NUMBER_OF_RESERVED_WORDS

  22626 17 024661   000011 235007                    LDA     9,DL
        17 024662   000010 755000 6                  STA     LEX_SYMBOL+8

  22627 17 024663   040000 100400                    MLR     fill='040'O
        17 024664   002013 000011 16                 ADSC9   1035                     cn=0,n=9
        17 024665   000011 000504 6                  ADSC9   LEX_SYMBOL+9             cn=0,n=324

  22628 17 024666   000000 631400 18                 EPPR1   0
        17 024667   000000 701000 xent               TSX1    Z8AH$SEARCH_
        17 024670   000000 011000                    NOP     0

  22629 17 024671   000000 470400 2                  LDP0    DNT$
        17 024672   400000 236003                    LDQ     -131072,DU
        17 024673   000003 256100                    ORSQ    3,,PR0

  22630 17 024674   000001 236000 18                 LDQ     1
        17 024675   000003 356100                    ANSQ    3,,PR0

  22631 17 024676   000002 236000 18                 LDQ     2
        17 024677   000003 356100                    ANSQ    3,,PR0
PL6.E3A0      #001=COBOLRW File=COBOLRW.:Z8A6TSI                                 SAT 08/09/97 09:25 Page:502

  22632 17 024700   000003 236000 18                 LDQ     3
        17 024701   000003 356100                    ANSQ    3,,PR0

  22633 17 024702   000004 236000 18                 LDQ     4
        17 024703   000003 356100                    ANSQ    3,,PR0

  22634 17 024704   000675 220003                    LDX0    445,DU
        17 024705   000003 440100                    SXL0    3,,PR0

      999    22636        %SEARCH (RWD='SWITCH-12',              RWNO=%RSV_WRD_SWITCH);

  22640 17 024706   002731 054000 1                  AOS     NUMBER_OF_RESERVED_WORDS

  22641 17 024707   000011 235007                    LDA     9,DL
        17 024710   000010 755000 6                  STA     LEX_SYMBOL+8

  22642 17 024711   040000 100400                    MLR     fill='040'O
        17 024712   002016 000011 16                 ADSC9   1038                     cn=0,n=9
        17 024713   000011 000504 6                  ADSC9   LEX_SYMBOL+9             cn=0,n=324

  22643 17 024714   000000 631400 18                 EPPR1   0
        17 024715   000000 701000 xent               TSX1    Z8AH$SEARCH_
        17 024716   000000 011000                    NOP     0

  22644 17 024717   000000 470400 2                  LDP0    DNT$
        17 024720   400000 236003                    LDQ     -131072,DU
        17 024721   000003 256100                    ORSQ    3,,PR0

  22645 17 024722   000001 236000 18                 LDQ     1
        17 024723   000003 356100                    ANSQ    3,,PR0

  22646 17 024724   000002 236000 18                 LDQ     2
        17 024725   000003 356100                    ANSQ    3,,PR0

  22647 17 024726   000003 236000 18                 LDQ     3
        17 024727   000003 356100                    ANSQ    3,,PR0
PL6.E3A0      #001=COBOLRW File=COBOLRW.:Z8A6TSI                                 SAT 08/09/97 09:25 Page:503

  22648 17 024730   000004 236000 18                 LDQ     4
        17 024731   000003 356100                    ANSQ    3,,PR0

  22649 17 024732   000675 220003                    LDX0    445,DU
        17 024733   000003 440100                    SXL0    3,,PR0

     1000    22651        %SEARCH (RWD='SWITCH-13',              RWNO=%RSV_WRD_SWITCH);

  22655 17 024734   002731 054000 1                  AOS     NUMBER_OF_RESERVED_WORDS

  22656 17 024735   000011 235007                    LDA     9,DL
        17 024736   000010 755000 6                  STA     LEX_SYMBOL+8

  22657 17 024737   040000 100400                    MLR     fill='040'O
        17 024740   002021 000011 16                 ADSC9   1041                     cn=0,n=9
        17 024741   000011 000504 6                  ADSC9   LEX_SYMBOL+9             cn=0,n=324

  22658 17 024742   000000 631400 18                 EPPR1   0
        17 024743   000000 701000 xent               TSX1    Z8AH$SEARCH_
        17 024744   000000 011000                    NOP     0

  22659 17 024745   000000 470400 2                  LDP0    DNT$
        17 024746   400000 236003                    LDQ     -131072,DU
        17 024747   000003 256100                    ORSQ    3,,PR0

  22660 17 024750   000001 236000 18                 LDQ     1
        17 024751   000003 356100                    ANSQ    3,,PR0

  22661 17 024752   000002 236000 18                 LDQ     2
        17 024753   000003 356100                    ANSQ    3,,PR0

  22662 17 024754   000003 236000 18                 LDQ     3
        17 024755   000003 356100                    ANSQ    3,,PR0

  22663 17 024756   000004 236000 18                 LDQ     4
        17 024757   000003 356100                    ANSQ    3,,PR0
PL6.E3A0      #001=COBOLRW File=COBOLRW.:Z8A6TSI                                 SAT 08/09/97 09:25 Page:504

  22664 17 024760   000675 220003                    LDX0    445,DU
        17 024761   000003 440100                    SXL0    3,,PR0

     1001    22666        %SEARCH (RWD='SWITCH-14',              RWNO=%RSV_WRD_SWITCH);

  22670 17 024762   002731 054000 1                  AOS     NUMBER_OF_RESERVED_WORDS

  22671 17 024763   000011 235007                    LDA     9,DL
        17 024764   000010 755000 6                  STA     LEX_SYMBOL+8

  22672 17 024765   040000 100400                    MLR     fill='040'O
        17 024766   002024 000011 16                 ADSC9   1044                     cn=0,n=9
        17 024767   000011 000504 6                  ADSC9   LEX_SYMBOL+9             cn=0,n=324

  22673 17 024770   000000 631400 18                 EPPR1   0
        17 024771   000000 701000 xent               TSX1    Z8AH$SEARCH_
        17 024772   000000 011000                    NOP     0

  22674 17 024773   000000 470400 2                  LDP0    DNT$
        17 024774   400000 236003                    LDQ     -131072,DU
        17 024775   000003 256100                    ORSQ    3,,PR0

  22675 17 024776   000001 236000 18                 LDQ     1
        17 024777   000003 356100                    ANSQ    3,,PR0

  22676 17 025000   000002 236000 18                 LDQ     2
        17 025001   000003 356100                    ANSQ    3,,PR0

  22677 17 025002   000003 236000 18                 LDQ     3
        17 025003   000003 356100                    ANSQ    3,,PR0

  22678 17 025004   000004 236000 18                 LDQ     4
        17 025005   000003 356100                    ANSQ    3,,PR0

  22679 17 025006   000675 220003                    LDX0    445,DU
        17 025007   000003 440100                    SXL0    3,,PR0
PL6.E3A0      #001=COBOLRW File=COBOLRW.:Z8A6TSI                                 SAT 08/09/97 09:25 Page:505

     1002    22681        %SEARCH (RWD='SWITCH-15',              RWNO=%RSV_WRD_SWITCH);

  22685 17 025010   002731 054000 1                  AOS     NUMBER_OF_RESERVED_WORDS

  22686 17 025011   000011 235007                    LDA     9,DL
        17 025012   000010 755000 6                  STA     LEX_SYMBOL+8

  22687 17 025013   040000 100400                    MLR     fill='040'O
        17 025014   002027 000011 16                 ADSC9   1047                     cn=0,n=9
        17 025015   000011 000504 6                  ADSC9   LEX_SYMBOL+9             cn=0,n=324

  22688 17 025016   000000 631400 18                 EPPR1   0
        17 025017   000000 701000 xent               TSX1    Z8AH$SEARCH_
        17 025020   000000 011000                    NOP     0

  22689 17 025021   000000 470400 2                  LDP0    DNT$
        17 025022   400000 236003                    LDQ     -131072,DU
        17 025023   000003 256100                    ORSQ    3,,PR0

  22690 17 025024   000001 236000 18                 LDQ     1
        17 025025   000003 356100                    ANSQ    3,,PR0

  22691 17 025026   000002 236000 18                 LDQ     2
        17 025027   000003 356100                    ANSQ    3,,PR0

  22692 17 025030   000003 236000 18                 LDQ     3
        17 025031   000003 356100                    ANSQ    3,,PR0

  22693 17 025032   000004 236000 18                 LDQ     4
        17 025033   000003 356100                    ANSQ    3,,PR0

  22694 17 025034   000675 220003                    LDX0    445,DU
        17 025035   000003 440100                    SXL0    3,,PR0

     1003    22696        %SEARCH (RWD='SWITCH-16',              RWNO=%RSV_WRD_SWITCH);

PL6.E3A0      #001=COBOLRW File=COBOLRW.:Z8A6TSI                                 SAT 08/09/97 09:25 Page:506
  22700 17 025036   002731 054000 1                  AOS     NUMBER_OF_RESERVED_WORDS

  22701 17 025037   000011 235007                    LDA     9,DL
        17 025040   000010 755000 6                  STA     LEX_SYMBOL+8

  22702 17 025041   040000 100400                    MLR     fill='040'O
        17 025042   002032 000011 16                 ADSC9   1050                     cn=0,n=9
        17 025043   000011 000504 6                  ADSC9   LEX_SYMBOL+9             cn=0,n=324

  22703 17 025044   000000 631400 18                 EPPR1   0
        17 025045   000000 701000 xent               TSX1    Z8AH$SEARCH_
        17 025046   000000 011000                    NOP     0

  22704 17 025047   000000 470400 2                  LDP0    DNT$
        17 025050   400000 236003                    LDQ     -131072,DU
        17 025051   000003 256100                    ORSQ    3,,PR0

  22705 17 025052   000001 236000 18                 LDQ     1
        17 025053   000003 356100                    ANSQ    3,,PR0

  22706 17 025054   000002 236000 18                 LDQ     2
        17 025055   000003 356100                    ANSQ    3,,PR0

  22707 17 025056   000003 236000 18                 LDQ     3
        17 025057   000003 356100                    ANSQ    3,,PR0

  22708 17 025060   000004 236000 18                 LDQ     4
        17 025061   000003 356100                    ANSQ    3,,PR0

  22709 17 025062   000675 220003                    LDX0    445,DU
        17 025063   000003 440100                    SXL0    3,,PR0

     1004    22711        %SEARCH (RWD='SWITCH-17',              RWNO=%RSV_WRD_SWITCH);

  22715 17 025064   002731 054000 1                  AOS     NUMBER_OF_RESERVED_WORDS

  22716 17 025065   000011 235007                    LDA     9,DL
PL6.E3A0      #001=COBOLRW File=COBOLRW.:Z8A6TSI                                 SAT 08/09/97 09:25 Page:507
        17 025066   000010 755000 6                  STA     LEX_SYMBOL+8

  22717 17 025067   040000 100400                    MLR     fill='040'O
        17 025070   002035 000011 16                 ADSC9   1053                     cn=0,n=9
        17 025071   000011 000504 6                  ADSC9   LEX_SYMBOL+9             cn=0,n=324

  22718 17 025072   000000 631400 18                 EPPR1   0
        17 025073   000000 701000 xent               TSX1    Z8AH$SEARCH_
        17 025074   000000 011000                    NOP     0

  22719 17 025075   000000 470400 2                  LDP0    DNT$
        17 025076   400000 236003                    LDQ     -131072,DU
        17 025077   000003 256100                    ORSQ    3,,PR0

  22720 17 025100   000001 236000 18                 LDQ     1
        17 025101   000003 356100                    ANSQ    3,,PR0

  22721 17 025102   000002 236000 18                 LDQ     2
        17 025103   000003 356100                    ANSQ    3,,PR0

  22722 17 025104   000003 236000 18                 LDQ     3
        17 025105   000003 356100                    ANSQ    3,,PR0

  22723 17 025106   000004 236000 18                 LDQ     4
        17 025107   000003 356100                    ANSQ    3,,PR0

  22724 17 025110   000675 220003                    LDX0    445,DU
        17 025111   000003 440100                    SXL0    3,,PR0

     1005    22726        %SEARCH (RWD='SWITCH-18',              RWNO=%RSV_WRD_SWITCH);

  22730 17 025112   002731 054000 1                  AOS     NUMBER_OF_RESERVED_WORDS

  22731 17 025113   000011 235007                    LDA     9,DL
        17 025114   000010 755000 6                  STA     LEX_SYMBOL+8

  22732 17 025115   040000 100400                    MLR     fill='040'O
PL6.E3A0      #001=COBOLRW File=COBOLRW.:Z8A6TSI                                 SAT 08/09/97 09:25 Page:508
        17 025116   002040 000011 16                 ADSC9   1056                     cn=0,n=9
        17 025117   000011 000504 6                  ADSC9   LEX_SYMBOL+9             cn=0,n=324

  22733 17 025120   000000 631400 18                 EPPR1   0
        17 025121   000000 701000 xent               TSX1    Z8AH$SEARCH_
        17 025122   000000 011000                    NOP     0

  22734 17 025123   000000 470400 2                  LDP0    DNT$
        17 025124   400000 236003                    LDQ     -131072,DU
        17 025125   000003 256100                    ORSQ    3,,PR0

  22735 17 025126   000001 236000 18                 LDQ     1
        17 025127   000003 356100                    ANSQ    3,,PR0

  22736 17 025130   000002 236000 18                 LDQ     2
        17 025131   000003 356100                    ANSQ    3,,PR0

  22737 17 025132   000003 236000 18                 LDQ     3
        17 025133   000003 356100                    ANSQ    3,,PR0

  22738 17 025134   000004 236000 18                 LDQ     4
        17 025135   000003 356100                    ANSQ    3,,PR0

  22739 17 025136   000675 220003                    LDX0    445,DU
        17 025137   000003 440100                    SXL0    3,,PR0

     1006    22741        %SEARCH (RWD='SWITCH-19',              RWNO=%RSV_WRD_SWITCH);

  22745 17 025140   002731 054000 1                  AOS     NUMBER_OF_RESERVED_WORDS

  22746 17 025141   000011 235007                    LDA     9,DL
        17 025142   000010 755000 6                  STA     LEX_SYMBOL+8

  22747 17 025143   040000 100400                    MLR     fill='040'O
        17 025144   002043 000011 16                 ADSC9   1059                     cn=0,n=9
        17 025145   000011 000504 6                  ADSC9   LEX_SYMBOL+9             cn=0,n=324

PL6.E3A0      #001=COBOLRW File=COBOLRW.:Z8A6TSI                                 SAT 08/09/97 09:25 Page:509
  22748 17 025146   000000 631400 18                 EPPR1   0
        17 025147   000000 701000 xent               TSX1    Z8AH$SEARCH_
        17 025150   000000 011000                    NOP     0

  22749 17 025151   000000 470400 2                  LDP0    DNT$
        17 025152   400000 236003                    LDQ     -131072,DU
        17 025153   000003 256100                    ORSQ    3,,PR0

  22750 17 025154   000001 236000 18                 LDQ     1
        17 025155   000003 356100                    ANSQ    3,,PR0

  22751 17 025156   000002 236000 18                 LDQ     2
        17 025157   000003 356100                    ANSQ    3,,PR0

  22752 17 025160   000003 236000 18                 LDQ     3
        17 025161   000003 356100                    ANSQ    3,,PR0

  22753 17 025162   000004 236000 18                 LDQ     4
        17 025163   000003 356100                    ANSQ    3,,PR0

  22754 17 025164   000675 220003                    LDX0    445,DU
        17 025165   000003 440100                    SXL0    3,,PR0

     1007    22756        %SEARCH (RWD='SWITCH-2',               RWNO=%RSV_WRD_SWITCH);

  22760 17 025166   002731 054000 1                  AOS     NUMBER_OF_RESERVED_WORDS

  22761 17 025167   000010 235007                    LDA     8,DL
        17 025170   000010 755000 6                  STA     LEX_SYMBOL+8

  22762 17 025171   040000 100400                    MLR     fill='040'O
        17 025172   002046 000010 16                 ADSC9   1062                     cn=0,n=8
        17 025173   000011 000504 6                  ADSC9   LEX_SYMBOL+9             cn=0,n=324

  22763 17 025174   000000 631400 18                 EPPR1   0
        17 025175   000000 701000 xent               TSX1    Z8AH$SEARCH_
        17 025176   000000 011000                    NOP     0
PL6.E3A0      #001=COBOLRW File=COBOLRW.:Z8A6TSI                                 SAT 08/09/97 09:25 Page:510

  22764 17 025177   000000 470400 2                  LDP0    DNT$
        17 025200   400000 236003                    LDQ     -131072,DU
        17 025201   000003 256100                    ORSQ    3,,PR0

  22765 17 025202   000001 236000 18                 LDQ     1
        17 025203   000003 356100                    ANSQ    3,,PR0

  22766 17 025204   000002 236000 18                 LDQ     2
        17 025205   000003 356100                    ANSQ    3,,PR0

  22767 17 025206   000003 236000 18                 LDQ     3
        17 025207   000003 356100                    ANSQ    3,,PR0

  22768 17 025210   000004 236000 18                 LDQ     4
        17 025211   000003 356100                    ANSQ    3,,PR0

  22769 17 025212   000675 220003                    LDX0    445,DU
        17 025213   000003 440100                    SXL0    3,,PR0

     1008    22771        %SEARCH (RWD='SWITCH-20',              RWNO=%RSV_WRD_SWITCH);

  22775 17 025214   002731 054000 1                  AOS     NUMBER_OF_RESERVED_WORDS

  22776 17 025215   000011 235007                    LDA     9,DL
        17 025216   000010 755000 6                  STA     LEX_SYMBOL+8

  22777 17 025217   040000 100400                    MLR     fill='040'O
        17 025220   002050 000011 16                 ADSC9   1064                     cn=0,n=9
        17 025221   000011 000504 6                  ADSC9   LEX_SYMBOL+9             cn=0,n=324

  22778 17 025222   000000 631400 18                 EPPR1   0
        17 025223   000000 701000 xent               TSX1    Z8AH$SEARCH_
        17 025224   000000 011000                    NOP     0

  22779 17 025225   000000 470400 2                  LDP0    DNT$
        17 025226   400000 236003                    LDQ     -131072,DU
PL6.E3A0      #001=COBOLRW File=COBOLRW.:Z8A6TSI                                 SAT 08/09/97 09:25 Page:511
        17 025227   000003 256100                    ORSQ    3,,PR0

  22780 17 025230   000001 236000 18                 LDQ     1
        17 025231   000003 356100                    ANSQ    3,,PR0

  22781 17 025232   000002 236000 18                 LDQ     2
        17 025233   000003 356100                    ANSQ    3,,PR0

  22782 17 025234   000003 236000 18                 LDQ     3
        17 025235   000003 356100                    ANSQ    3,,PR0

  22783 17 025236   000004 236000 18                 LDQ     4
        17 025237   000003 356100                    ANSQ    3,,PR0

  22784 17 025240   000675 220003                    LDX0    445,DU
        17 025241   000003 440100                    SXL0    3,,PR0

     1009    22786        %SEARCH (RWD='SWITCH-21',              RWNO=%RSV_WRD_SWITCH);

  22790 17 025242   002731 054000 1                  AOS     NUMBER_OF_RESERVED_WORDS

  22791 17 025243   000011 235007                    LDA     9,DL
        17 025244   000010 755000 6                  STA     LEX_SYMBOL+8

  22792 17 025245   040000 100400                    MLR     fill='040'O
        17 025246   002053 000011 16                 ADSC9   1067                     cn=0,n=9
        17 025247   000011 000504 6                  ADSC9   LEX_SYMBOL+9             cn=0,n=324

  22793 17 025250   000000 631400 18                 EPPR1   0
        17 025251   000000 701000 xent               TSX1    Z8AH$SEARCH_
        17 025252   000000 011000                    NOP     0

  22794 17 025253   000000 470400 2                  LDP0    DNT$
        17 025254   400000 236003                    LDQ     -131072,DU
        17 025255   000003 256100                    ORSQ    3,,PR0

  22795 17 025256   000001 236000 18                 LDQ     1
PL6.E3A0      #001=COBOLRW File=COBOLRW.:Z8A6TSI                                 SAT 08/09/97 09:25 Page:512
        17 025257   000003 356100                    ANSQ    3,,PR0

  22796 17 025260   000002 236000 18                 LDQ     2
        17 025261   000003 356100                    ANSQ    3,,PR0

  22797 17 025262   000003 236000 18                 LDQ     3
        17 025263   000003 356100                    ANSQ    3,,PR0

  22798 17 025264   000004 236000 18                 LDQ     4
        17 025265   000003 356100                    ANSQ    3,,PR0

  22799 17 025266   000675 220003                    LDX0    445,DU
        17 025267   000003 440100                    SXL0    3,,PR0

     1010    22801        %SEARCH (RWD='SWITCH-22',              RWNO=%RSV_WRD_SWITCH);

  22805 17 025270   002731 054000 1                  AOS     NUMBER_OF_RESERVED_WORDS

  22806 17 025271   000011 235007                    LDA     9,DL
        17 025272   000010 755000 6                  STA     LEX_SYMBOL+8

  22807 17 025273   040000 100400                    MLR     fill='040'O
        17 025274   002056 000011 16                 ADSC9   1070                     cn=0,n=9
        17 025275   000011 000504 6                  ADSC9   LEX_SYMBOL+9             cn=0,n=324

  22808 17 025276   000000 631400 18                 EPPR1   0
        17 025277   000000 701000 xent               TSX1    Z8AH$SEARCH_
        17 025300   000000 011000                    NOP     0

  22809 17 025301   000000 470400 2                  LDP0    DNT$
        17 025302   400000 236003                    LDQ     -131072,DU
        17 025303   000003 256100                    ORSQ    3,,PR0

  22810 17 025304   000001 236000 18                 LDQ     1
        17 025305   000003 356100                    ANSQ    3,,PR0

  22811 17 025306   000002 236000 18                 LDQ     2
PL6.E3A0      #001=COBOLRW File=COBOLRW.:Z8A6TSI                                 SAT 08/09/97 09:25 Page:513
        17 025307   000003 356100                    ANSQ    3,,PR0

  22812 17 025310   000003 236000 18                 LDQ     3
        17 025311   000003 356100                    ANSQ    3,,PR0

  22813 17 025312   000004 236000 18                 LDQ     4
        17 025313   000003 356100                    ANSQ    3,,PR0

  22814 17 025314   000675 220003                    LDX0    445,DU
        17 025315   000003 440100                    SXL0    3,,PR0

     1011    22816        %SEARCH (RWD='SWITCH-23',              RWNO=%RSV_WRD_SWITCH);

  22820 17 025316   002731 054000 1                  AOS     NUMBER_OF_RESERVED_WORDS

  22821 17 025317   000011 235007                    LDA     9,DL
        17 025320   000010 755000 6                  STA     LEX_SYMBOL+8

  22822 17 025321   040000 100400                    MLR     fill='040'O
        17 025322   002061 000011 16                 ADSC9   1073                     cn=0,n=9
        17 025323   000011 000504 6                  ADSC9   LEX_SYMBOL+9             cn=0,n=324

  22823 17 025324   000000 631400 18                 EPPR1   0
        17 025325   000000 701000 xent               TSX1    Z8AH$SEARCH_
        17 025326   000000 011000                    NOP     0

  22824 17 025327   000000 470400 2                  LDP0    DNT$
        17 025330   400000 236003                    LDQ     -131072,DU
        17 025331   000003 256100                    ORSQ    3,,PR0

  22825 17 025332   000001 236000 18                 LDQ     1
        17 025333   000003 356100                    ANSQ    3,,PR0

  22826 17 025334   000002 236000 18                 LDQ     2
        17 025335   000003 356100                    ANSQ    3,,PR0

  22827 17 025336   000003 236000 18                 LDQ     3
PL6.E3A0      #001=COBOLRW File=COBOLRW.:Z8A6TSI                                 SAT 08/09/97 09:25 Page:514
        17 025337   000003 356100                    ANSQ    3,,PR0

  22828 17 025340   000004 236000 18                 LDQ     4
        17 025341   000003 356100                    ANSQ    3,,PR0

  22829 17 025342   000675 220003                    LDX0    445,DU
        17 025343   000003 440100                    SXL0    3,,PR0

     1012    22831        %SEARCH (RWD='SWITCH-24',              RWNO=%RSV_WRD_SWITCH);

  22835 17 025344   002731 054000 1                  AOS     NUMBER_OF_RESERVED_WORDS

  22836 17 025345   000011 235007                    LDA     9,DL
        17 025346   000010 755000 6                  STA     LEX_SYMBOL+8

  22837 17 025347   040000 100400                    MLR     fill='040'O
        17 025350   002064 000011 16                 ADSC9   1076                     cn=0,n=9
        17 025351   000011 000504 6                  ADSC9   LEX_SYMBOL+9             cn=0,n=324

  22838 17 025352   000000 631400 18                 EPPR1   0
        17 025353   000000 701000 xent               TSX1    Z8AH$SEARCH_
        17 025354   000000 011000                    NOP     0

  22839 17 025355   000000 470400 2                  LDP0    DNT$
        17 025356   400000 236003                    LDQ     -131072,DU
        17 025357   000003 256100                    ORSQ    3,,PR0

  22840 17 025360   000001 236000 18                 LDQ     1
        17 025361   000003 356100                    ANSQ    3,,PR0

  22841 17 025362   000002 236000 18                 LDQ     2
        17 025363   000003 356100                    ANSQ    3,,PR0

  22842 17 025364   000003 236000 18                 LDQ     3
        17 025365   000003 356100                    ANSQ    3,,PR0

  22843 17 025366   000004 236000 18                 LDQ     4
PL6.E3A0      #001=COBOLRW File=COBOLRW.:Z8A6TSI                                 SAT 08/09/97 09:25 Page:515
        17 025367   000003 356100                    ANSQ    3,,PR0

  22844 17 025370   000675 220003                    LDX0    445,DU
        17 025371   000003 440100                    SXL0    3,,PR0

     1013    22846        %SEARCH (RWD='SWITCH-25',              RWNO=%RSV_WRD_SWITCH);

  22850 17 025372   002731 054000 1                  AOS     NUMBER_OF_RESERVED_WORDS

  22851 17 025373   000011 235007                    LDA     9,DL
        17 025374   000010 755000 6                  STA     LEX_SYMBOL+8

  22852 17 025375   040000 100400                    MLR     fill='040'O
        17 025376   002067 000011 16                 ADSC9   1079                     cn=0,n=9
        17 025377   000011 000504 6                  ADSC9   LEX_SYMBOL+9             cn=0,n=324

  22853 17 025400   000000 631400 18                 EPPR1   0
        17 025401   000000 701000 xent               TSX1    Z8AH$SEARCH_
        17 025402   000000 011000                    NOP     0

  22854 17 025403   000000 470400 2                  LDP0    DNT$
        17 025404   400000 236003                    LDQ     -131072,DU
        17 025405   000003 256100                    ORSQ    3,,PR0

  22855 17 025406   000001 236000 18                 LDQ     1
        17 025407   000003 356100                    ANSQ    3,,PR0

  22856 17 025410   000002 236000 18                 LDQ     2
        17 025411   000003 356100                    ANSQ    3,,PR0

  22857 17 025412   000003 236000 18                 LDQ     3
        17 025413   000003 356100                    ANSQ    3,,PR0

  22858 17 025414   000004 236000 18                 LDQ     4
        17 025415   000003 356100                    ANSQ    3,,PR0

  22859 17 025416   000675 220003                    LDX0    445,DU
PL6.E3A0      #001=COBOLRW File=COBOLRW.:Z8A6TSI                                 SAT 08/09/97 09:25 Page:516
        17 025417   000003 440100                    SXL0    3,,PR0

     1014    22861        %SEARCH (RWD='SWITCH-26',              RWNO=%RSV_WRD_SWITCH);

  22865 17 025420   002731 054000 1                  AOS     NUMBER_OF_RESERVED_WORDS

  22866 17 025421   000011 235007                    LDA     9,DL
        17 025422   000010 755000 6                  STA     LEX_SYMBOL+8

  22867 17 025423   040000 100400                    MLR     fill='040'O
        17 025424   002072 000011 16                 ADSC9   1082                     cn=0,n=9
        17 025425   000011 000504 6                  ADSC9   LEX_SYMBOL+9             cn=0,n=324

  22868 17 025426   000000 631400 18                 EPPR1   0
        17 025427   000000 701000 xent               TSX1    Z8AH$SEARCH_
        17 025430   000000 011000                    NOP     0

  22869 17 025431   000000 470400 2                  LDP0    DNT$
        17 025432   400000 236003                    LDQ     -131072,DU
        17 025433   000003 256100                    ORSQ    3,,PR0

  22870 17 025434   000001 236000 18                 LDQ     1
        17 025435   000003 356100                    ANSQ    3,,PR0

  22871 17 025436   000002 236000 18                 LDQ     2
        17 025437   000003 356100                    ANSQ    3,,PR0

  22872 17 025440   000003 236000 18                 LDQ     3
        17 025441   000003 356100                    ANSQ    3,,PR0

  22873 17 025442   000004 236000 18                 LDQ     4
        17 025443   000003 356100                    ANSQ    3,,PR0

  22874 17 025444   000675 220003                    LDX0    445,DU
        17 025445   000003 440100                    SXL0    3,,PR0

     1015    22876        %SEARCH (RWD='SWITCH-27',              RWNO=%RSV_WRD_SWITCH);
PL6.E3A0      #001=COBOLRW File=COBOLRW.:Z8A6TSI                                 SAT 08/09/97 09:25 Page:517

  22880 17 025446   002731 054000 1                  AOS     NUMBER_OF_RESERVED_WORDS

  22881 17 025447   000011 235007                    LDA     9,DL
        17 025450   000010 755000 6                  STA     LEX_SYMBOL+8

  22882 17 025451   040000 100400                    MLR     fill='040'O
        17 025452   002075 000011 16                 ADSC9   1085                     cn=0,n=9
        17 025453   000011 000504 6                  ADSC9   LEX_SYMBOL+9             cn=0,n=324

  22883 17 025454   000000 631400 18                 EPPR1   0
        17 025455   000000 701000 xent               TSX1    Z8AH$SEARCH_
        17 025456   000000 011000                    NOP     0

  22884 17 025457   000000 470400 2                  LDP0    DNT$
        17 025460   400000 236003                    LDQ     -131072,DU
        17 025461   000003 256100                    ORSQ    3,,PR0

  22885 17 025462   000001 236000 18                 LDQ     1
        17 025463   000003 356100                    ANSQ    3,,PR0

  22886 17 025464   000002 236000 18                 LDQ     2
        17 025465   000003 356100                    ANSQ    3,,PR0

  22887 17 025466   000003 236000 18                 LDQ     3
        17 025467   000003 356100                    ANSQ    3,,PR0

  22888 17 025470   000004 236000 18                 LDQ     4
        17 025471   000003 356100                    ANSQ    3,,PR0

  22889 17 025472   000675 220003                    LDX0    445,DU
        17 025473   000003 440100                    SXL0    3,,PR0

     1016    22891        %SEARCH (RWD='SWITCH-28',              RWNO=%RSV_WRD_SWITCH);

  22895 17 025474   002731 054000 1                  AOS     NUMBER_OF_RESERVED_WORDS

PL6.E3A0      #001=COBOLRW File=COBOLRW.:Z8A6TSI                                 SAT 08/09/97 09:25 Page:518
  22896 17 025475   000011 235007                    LDA     9,DL
        17 025476   000010 755000 6                  STA     LEX_SYMBOL+8

  22897 17 025477   040000 100400                    MLR     fill='040'O
        17 025500   002100 000011 16                 ADSC9   1088                     cn=0,n=9
        17 025501   000011 000504 6                  ADSC9   LEX_SYMBOL+9             cn=0,n=324

  22898 17 025502   000000 631400 18                 EPPR1   0
        17 025503   000000 701000 xent               TSX1    Z8AH$SEARCH_
        17 025504   000000 011000                    NOP     0

  22899 17 025505   000000 470400 2                  LDP0    DNT$
        17 025506   400000 236003                    LDQ     -131072,DU
        17 025507   000003 256100                    ORSQ    3,,PR0

  22900 17 025510   000001 236000 18                 LDQ     1
        17 025511   000003 356100                    ANSQ    3,,PR0

  22901 17 025512   000002 236000 18                 LDQ     2
        17 025513   000003 356100                    ANSQ    3,,PR0

  22902 17 025514   000003 236000 18                 LDQ     3
        17 025515   000003 356100                    ANSQ    3,,PR0

  22903 17 025516   000004 236000 18                 LDQ     4
        17 025517   000003 356100                    ANSQ    3,,PR0

  22904 17 025520   000675 220003                    LDX0    445,DU
        17 025521   000003 440100                    SXL0    3,,PR0

     1017    22906        %SEARCH (RWD='SWITCH-29',              RWNO=%RSV_WRD_SWITCH);

  22910 17 025522   002731 054000 1                  AOS     NUMBER_OF_RESERVED_WORDS

  22911 17 025523   000011 235007                    LDA     9,DL
        17 025524   000010 755000 6                  STA     LEX_SYMBOL+8

