PL6.E3A0      #001=COBOLRW File=COBOLRW.:Z8A6TSI                                 SAT 08/09/97 09:25 Page:519
  22912 17 025525   040000 100400                    MLR     fill='040'O
        17 025526   002103 000011 16                 ADSC9   1091                     cn=0,n=9
        17 025527   000011 000504 6                  ADSC9   LEX_SYMBOL+9             cn=0,n=324

  22913 17 025530   000000 631400 18                 EPPR1   0
        17 025531   000000 701000 xent               TSX1    Z8AH$SEARCH_
        17 025532   000000 011000                    NOP     0

  22914 17 025533   000000 470400 2                  LDP0    DNT$
        17 025534   400000 236003                    LDQ     -131072,DU
        17 025535   000003 256100                    ORSQ    3,,PR0

  22915 17 025536   000001 236000 18                 LDQ     1
        17 025537   000003 356100                    ANSQ    3,,PR0

  22916 17 025540   000002 236000 18                 LDQ     2
        17 025541   000003 356100                    ANSQ    3,,PR0

  22917 17 025542   000003 236000 18                 LDQ     3
        17 025543   000003 356100                    ANSQ    3,,PR0

  22918 17 025544   000004 236000 18                 LDQ     4
        17 025545   000003 356100                    ANSQ    3,,PR0

  22919 17 025546   000675 220003                    LDX0    445,DU
        17 025547   000003 440100                    SXL0    3,,PR0

     1018    22921        %SEARCH (RWD='SWITCH-3',               RWNO=%RSV_WRD_SWITCH);

  22925 17 025550   002731 054000 1                  AOS     NUMBER_OF_RESERVED_WORDS

  22926 17 025551   000010 235007                    LDA     8,DL
        17 025552   000010 755000 6                  STA     LEX_SYMBOL+8

  22927 17 025553   040000 100400                    MLR     fill='040'O
        17 025554   002106 000010 16                 ADSC9   1094                     cn=0,n=8
        17 025555   000011 000504 6                  ADSC9   LEX_SYMBOL+9             cn=0,n=324
PL6.E3A0      #001=COBOLRW File=COBOLRW.:Z8A6TSI                                 SAT 08/09/97 09:25 Page:520

  22928 17 025556   000000 631400 18                 EPPR1   0
        17 025557   000000 701000 xent               TSX1    Z8AH$SEARCH_
        17 025560   000000 011000                    NOP     0

  22929 17 025561   000000 470400 2                  LDP0    DNT$
        17 025562   400000 236003                    LDQ     -131072,DU
        17 025563   000003 256100                    ORSQ    3,,PR0

  22930 17 025564   000001 236000 18                 LDQ     1
        17 025565   000003 356100                    ANSQ    3,,PR0

  22931 17 025566   000002 236000 18                 LDQ     2
        17 025567   000003 356100                    ANSQ    3,,PR0

  22932 17 025570   000003 236000 18                 LDQ     3
        17 025571   000003 356100                    ANSQ    3,,PR0

  22933 17 025572   000004 236000 18                 LDQ     4
        17 025573   000003 356100                    ANSQ    3,,PR0

  22934 17 025574   000675 220003                    LDX0    445,DU
        17 025575   000003 440100                    SXL0    3,,PR0

     1019    22936        %SEARCH (RWD='SWITCH-30',              RWNO=%RSV_WRD_SWITCH);

  22940 17 025576   002731 054000 1                  AOS     NUMBER_OF_RESERVED_WORDS

  22941 17 025577   000011 235007                    LDA     9,DL
        17 025600   000010 755000 6                  STA     LEX_SYMBOL+8

  22942 17 025601   040000 100400                    MLR     fill='040'O
        17 025602   002110 000011 16                 ADSC9   1096                     cn=0,n=9
        17 025603   000011 000504 6                  ADSC9   LEX_SYMBOL+9             cn=0,n=324

  22943 17 025604   000000 631400 18                 EPPR1   0
        17 025605   000000 701000 xent               TSX1    Z8AH$SEARCH_
PL6.E3A0      #001=COBOLRW File=COBOLRW.:Z8A6TSI                                 SAT 08/09/97 09:25 Page:521
        17 025606   000000 011000                    NOP     0

  22944 17 025607   000000 470400 2                  LDP0    DNT$
        17 025610   400000 236003                    LDQ     -131072,DU
        17 025611   000003 256100                    ORSQ    3,,PR0

  22945 17 025612   000001 236000 18                 LDQ     1
        17 025613   000003 356100                    ANSQ    3,,PR0

  22946 17 025614   000002 236000 18                 LDQ     2
        17 025615   000003 356100                    ANSQ    3,,PR0

  22947 17 025616   000003 236000 18                 LDQ     3
        17 025617   000003 356100                    ANSQ    3,,PR0

  22948 17 025620   000004 236000 18                 LDQ     4
        17 025621   000003 356100                    ANSQ    3,,PR0

  22949 17 025622   000675 220003                    LDX0    445,DU
        17 025623   000003 440100                    SXL0    3,,PR0

     1020    22951        %SEARCH (RWD='SWITCH-31',              RWNO=%RSV_WRD_SWITCH);

  22955 17 025624   002731 054000 1                  AOS     NUMBER_OF_RESERVED_WORDS

  22956 17 025625   000011 235007                    LDA     9,DL
        17 025626   000010 755000 6                  STA     LEX_SYMBOL+8

  22957 17 025627   040000 100400                    MLR     fill='040'O
        17 025630   002113 000011 16                 ADSC9   1099                     cn=0,n=9
        17 025631   000011 000504 6                  ADSC9   LEX_SYMBOL+9             cn=0,n=324

  22958 17 025632   000000 631400 18                 EPPR1   0
        17 025633   000000 701000 xent               TSX1    Z8AH$SEARCH_
        17 025634   000000 011000                    NOP     0

  22959 17 025635   000000 470400 2                  LDP0    DNT$
PL6.E3A0      #001=COBOLRW File=COBOLRW.:Z8A6TSI                                 SAT 08/09/97 09:25 Page:522
        17 025636   400000 236003                    LDQ     -131072,DU
        17 025637   000003 256100                    ORSQ    3,,PR0

  22960 17 025640   000001 236000 18                 LDQ     1
        17 025641   000003 356100                    ANSQ    3,,PR0

  22961 17 025642   000002 236000 18                 LDQ     2
        17 025643   000003 356100                    ANSQ    3,,PR0

  22962 17 025644   000003 236000 18                 LDQ     3
        17 025645   000003 356100                    ANSQ    3,,PR0

  22963 17 025646   000004 236000 18                 LDQ     4
        17 025647   000003 356100                    ANSQ    3,,PR0

  22964 17 025650   000675 220003                    LDX0    445,DU
        17 025651   000003 440100                    SXL0    3,,PR0

     1021    22966        %SEARCH (RWD='SWITCH-32',              RWNO=%RSV_WRD_SWITCH);

  22970 17 025652   002731 054000 1                  AOS     NUMBER_OF_RESERVED_WORDS

  22971 17 025653   000011 235007                    LDA     9,DL
        17 025654   000010 755000 6                  STA     LEX_SYMBOL+8

  22972 17 025655   040000 100400                    MLR     fill='040'O
        17 025656   002116 000011 16                 ADSC9   1102                     cn=0,n=9
        17 025657   000011 000504 6                  ADSC9   LEX_SYMBOL+9             cn=0,n=324

  22973 17 025660   000000 631400 18                 EPPR1   0
        17 025661   000000 701000 xent               TSX1    Z8AH$SEARCH_
        17 025662   000000 011000                    NOP     0

  22974 17 025663   000000 470400 2                  LDP0    DNT$
        17 025664   400000 236003                    LDQ     -131072,DU
        17 025665   000003 256100                    ORSQ    3,,PR0

PL6.E3A0      #001=COBOLRW File=COBOLRW.:Z8A6TSI                                 SAT 08/09/97 09:25 Page:523
  22975 17 025666   000001 236000 18                 LDQ     1
        17 025667   000003 356100                    ANSQ    3,,PR0

  22976 17 025670   000002 236000 18                 LDQ     2
        17 025671   000003 356100                    ANSQ    3,,PR0

  22977 17 025672   000003 236000 18                 LDQ     3
        17 025673   000003 356100                    ANSQ    3,,PR0

  22978 17 025674   000004 236000 18                 LDQ     4
        17 025675   000003 356100                    ANSQ    3,,PR0

  22979 17 025676   000675 220003                    LDX0    445,DU
        17 025677   000003 440100                    SXL0    3,,PR0

     1022    22981        %SEARCH (RWD='SWITCH-33',              RWNO=%RSV_WRD_SWITCH);

  22985 17 025700   002731 054000 1                  AOS     NUMBER_OF_RESERVED_WORDS

  22986 17 025701   000011 235007                    LDA     9,DL
        17 025702   000010 755000 6                  STA     LEX_SYMBOL+8

  22987 17 025703   040000 100400                    MLR     fill='040'O
        17 025704   002121 000011 16                 ADSC9   1105                     cn=0,n=9
        17 025705   000011 000504 6                  ADSC9   LEX_SYMBOL+9             cn=0,n=324

  22988 17 025706   000000 631400 18                 EPPR1   0
        17 025707   000000 701000 xent               TSX1    Z8AH$SEARCH_
        17 025710   000000 011000                    NOP     0

  22989 17 025711   000000 470400 2                  LDP0    DNT$
        17 025712   400000 236003                    LDQ     -131072,DU
        17 025713   000003 256100                    ORSQ    3,,PR0

  22990 17 025714   000001 236000 18                 LDQ     1
        17 025715   000003 356100                    ANSQ    3,,PR0

PL6.E3A0      #001=COBOLRW File=COBOLRW.:Z8A6TSI                                 SAT 08/09/97 09:25 Page:524
  22991 17 025716   000002 236000 18                 LDQ     2
        17 025717   000003 356100                    ANSQ    3,,PR0

  22992 17 025720   000003 236000 18                 LDQ     3
        17 025721   000003 356100                    ANSQ    3,,PR0

  22993 17 025722   000004 236000 18                 LDQ     4
        17 025723   000003 356100                    ANSQ    3,,PR0

  22994 17 025724   000675 220003                    LDX0    445,DU
        17 025725   000003 440100                    SXL0    3,,PR0

     1023    22996        %SEARCH (RWD='SWITCH-34',              RWNO=%RSV_WRD_SWITCH);

  23000 17 025726   002731 054000 1                  AOS     NUMBER_OF_RESERVED_WORDS

  23001 17 025727   000011 235007                    LDA     9,DL
        17 025730   000010 755000 6                  STA     LEX_SYMBOL+8

  23002 17 025731   040000 100400                    MLR     fill='040'O
        17 025732   002124 000011 16                 ADSC9   1108                     cn=0,n=9
        17 025733   000011 000504 6                  ADSC9   LEX_SYMBOL+9             cn=0,n=324

  23003 17 025734   000000 631400 18                 EPPR1   0
        17 025735   000000 701000 xent               TSX1    Z8AH$SEARCH_
        17 025736   000000 011000                    NOP     0

  23004 17 025737   000000 470400 2                  LDP0    DNT$
        17 025740   400000 236003                    LDQ     -131072,DU
        17 025741   000003 256100                    ORSQ    3,,PR0

  23005 17 025742   000001 236000 18                 LDQ     1
        17 025743   000003 356100                    ANSQ    3,,PR0

  23006 17 025744   000002 236000 18                 LDQ     2
        17 025745   000003 356100                    ANSQ    3,,PR0

PL6.E3A0      #001=COBOLRW File=COBOLRW.:Z8A6TSI                                 SAT 08/09/97 09:25 Page:525
  23007 17 025746   000003 236000 18                 LDQ     3
        17 025747   000003 356100                    ANSQ    3,,PR0

  23008 17 025750   000004 236000 18                 LDQ     4
        17 025751   000003 356100                    ANSQ    3,,PR0

  23009 17 025752   000675 220003                    LDX0    445,DU
        17 025753   000003 440100                    SXL0    3,,PR0

     1024    23011        %SEARCH (RWD='SWITCH-35',              RWNO=%RSV_WRD_SWITCH);

  23015 17 025754   002731 054000 1                  AOS     NUMBER_OF_RESERVED_WORDS

  23016 17 025755   000011 235007                    LDA     9,DL
        17 025756   000010 755000 6                  STA     LEX_SYMBOL+8

  23017 17 025757   040000 100400                    MLR     fill='040'O
        17 025760   002127 000011 16                 ADSC9   1111                     cn=0,n=9
        17 025761   000011 000504 6                  ADSC9   LEX_SYMBOL+9             cn=0,n=324

  23018 17 025762   000000 631400 18                 EPPR1   0
        17 025763   000000 701000 xent               TSX1    Z8AH$SEARCH_
        17 025764   000000 011000                    NOP     0

  23019 17 025765   000000 470400 2                  LDP0    DNT$
        17 025766   400000 236003                    LDQ     -131072,DU
        17 025767   000003 256100                    ORSQ    3,,PR0

  23020 17 025770   000001 236000 18                 LDQ     1
        17 025771   000003 356100                    ANSQ    3,,PR0

  23021 17 025772   000002 236000 18                 LDQ     2
        17 025773   000003 356100                    ANSQ    3,,PR0

  23022 17 025774   000003 236000 18                 LDQ     3
        17 025775   000003 356100                    ANSQ    3,,PR0

PL6.E3A0      #001=COBOLRW File=COBOLRW.:Z8A6TSI                                 SAT 08/09/97 09:25 Page:526
  23023 17 025776   000004 236000 18                 LDQ     4
        17 025777   000003 356100                    ANSQ    3,,PR0

  23024 17 026000   000675 220003                    LDX0    445,DU
        17 026001   000003 440100                    SXL0    3,,PR0

     1025    23026        %SEARCH (RWD='SWITCH-4',               RWNO=%RSV_WRD_SWITCH);

  23030 17 026002   002731 054000 1                  AOS     NUMBER_OF_RESERVED_WORDS

  23031 17 026003   000010 235007                    LDA     8,DL
        17 026004   000010 755000 6                  STA     LEX_SYMBOL+8

  23032 17 026005   040000 100400                    MLR     fill='040'O
        17 026006   002132 000010 16                 ADSC9   1114                     cn=0,n=8
        17 026007   000011 000504 6                  ADSC9   LEX_SYMBOL+9             cn=0,n=324

  23033 17 026010   000000 631400 18                 EPPR1   0
        17 026011   000000 701000 xent               TSX1    Z8AH$SEARCH_
        17 026012   000000 011000                    NOP     0

  23034 17 026013   000000 470400 2                  LDP0    DNT$
        17 026014   400000 236003                    LDQ     -131072,DU
        17 026015   000003 256100                    ORSQ    3,,PR0

  23035 17 026016   000001 236000 18                 LDQ     1
        17 026017   000003 356100                    ANSQ    3,,PR0

  23036 17 026020   000002 236000 18                 LDQ     2
        17 026021   000003 356100                    ANSQ    3,,PR0

  23037 17 026022   000003 236000 18                 LDQ     3
        17 026023   000003 356100                    ANSQ    3,,PR0

  23038 17 026024   000004 236000 18                 LDQ     4
        17 026025   000003 356100                    ANSQ    3,,PR0

PL6.E3A0      #001=COBOLRW File=COBOLRW.:Z8A6TSI                                 SAT 08/09/97 09:25 Page:527
  23039 17 026026   000675 220003                    LDX0    445,DU
        17 026027   000003 440100                    SXL0    3,,PR0

     1026    23041        %SEARCH (RWD='SWITCH-5',               RWNO=%RSV_WRD_SWITCH);

  23045 17 026030   002731 054000 1                  AOS     NUMBER_OF_RESERVED_WORDS

  23046 17 026031   000010 235007                    LDA     8,DL
        17 026032   000010 755000 6                  STA     LEX_SYMBOL+8

  23047 17 026033   040000 100400                    MLR     fill='040'O
        17 026034   002134 000010 16                 ADSC9   1116                     cn=0,n=8
        17 026035   000011 000504 6                  ADSC9   LEX_SYMBOL+9             cn=0,n=324

  23048 17 026036   000000 631400 18                 EPPR1   0
        17 026037   000000 701000 xent               TSX1    Z8AH$SEARCH_
        17 026040   000000 011000                    NOP     0

  23049 17 026041   000000 470400 2                  LDP0    DNT$
        17 026042   400000 236003                    LDQ     -131072,DU
        17 026043   000003 256100                    ORSQ    3,,PR0

  23050 17 026044   000001 236000 18                 LDQ     1
        17 026045   000003 356100                    ANSQ    3,,PR0

  23051 17 026046   000002 236000 18                 LDQ     2
        17 026047   000003 356100                    ANSQ    3,,PR0

  23052 17 026050   000003 236000 18                 LDQ     3
        17 026051   000003 356100                    ANSQ    3,,PR0

  23053 17 026052   000004 236000 18                 LDQ     4
        17 026053   000003 356100                    ANSQ    3,,PR0

  23054 17 026054   000675 220003                    LDX0    445,DU
        17 026055   000003 440100                    SXL0    3,,PR0

PL6.E3A0      #001=COBOLRW File=COBOLRW.:Z8A6TSI                                 SAT 08/09/97 09:25 Page:528
     1027    23056        %SEARCH (RWD='SWITCH-6',               RWNO=%RSV_WRD_SWITCH);

  23060 17 026056   002731 054000 1                  AOS     NUMBER_OF_RESERVED_WORDS

  23061 17 026057   000010 235007                    LDA     8,DL
        17 026060   000010 755000 6                  STA     LEX_SYMBOL+8

  23062 17 026061   040000 100400                    MLR     fill='040'O
        17 026062   002136 000010 16                 ADSC9   1118                     cn=0,n=8
        17 026063   000011 000504 6                  ADSC9   LEX_SYMBOL+9             cn=0,n=324

  23063 17 026064   000000 631400 18                 EPPR1   0
        17 026065   000000 701000 xent               TSX1    Z8AH$SEARCH_
        17 026066   000000 011000                    NOP     0

  23064 17 026067   000000 470400 2                  LDP0    DNT$
        17 026070   400000 236003                    LDQ     -131072,DU
        17 026071   000003 256100                    ORSQ    3,,PR0

  23065 17 026072   000001 236000 18                 LDQ     1
        17 026073   000003 356100                    ANSQ    3,,PR0

  23066 17 026074   000002 236000 18                 LDQ     2
        17 026075   000003 356100                    ANSQ    3,,PR0

  23067 17 026076   000003 236000 18                 LDQ     3
        17 026077   000003 356100                    ANSQ    3,,PR0

  23068 17 026100   000004 236000 18                 LDQ     4
        17 026101   000003 356100                    ANSQ    3,,PR0

  23069 17 026102   000675 220003                    LDX0    445,DU
        17 026103   000003 440100                    SXL0    3,,PR0

     1028    23071        %SEARCH (RWD='SWITCH-7',               RWNO=%RSV_WRD_SWITCH);

  23075 17 026104   002731 054000 1                  AOS     NUMBER_OF_RESERVED_WORDS
PL6.E3A0      #001=COBOLRW File=COBOLRW.:Z8A6TSI                                 SAT 08/09/97 09:25 Page:529

  23076 17 026105   000010 235007                    LDA     8,DL
        17 026106   000010 755000 6                  STA     LEX_SYMBOL+8

  23077 17 026107   040000 100400                    MLR     fill='040'O
        17 026110   002140 000010 16                 ADSC9   1120                     cn=0,n=8
        17 026111   000011 000504 6                  ADSC9   LEX_SYMBOL+9             cn=0,n=324

  23078 17 026112   000000 631400 18                 EPPR1   0
        17 026113   000000 701000 xent               TSX1    Z8AH$SEARCH_
        17 026114   000000 011000                    NOP     0

  23079 17 026115   000000 470400 2                  LDP0    DNT$
        17 026116   400000 236003                    LDQ     -131072,DU
        17 026117   000003 256100                    ORSQ    3,,PR0

  23080 17 026120   000001 236000 18                 LDQ     1
        17 026121   000003 356100                    ANSQ    3,,PR0

  23081 17 026122   000002 236000 18                 LDQ     2
        17 026123   000003 356100                    ANSQ    3,,PR0

  23082 17 026124   000003 236000 18                 LDQ     3
        17 026125   000003 356100                    ANSQ    3,,PR0

  23083 17 026126   000004 236000 18                 LDQ     4
        17 026127   000003 356100                    ANSQ    3,,PR0

  23084 17 026130   000675 220003                    LDX0    445,DU
        17 026131   000003 440100                    SXL0    3,,PR0

     1029    23086        %SEARCH (RWD='SWITCH-8',               RWNO=%RSV_WRD_SWITCH);

  23090 17 026132   002731 054000 1                  AOS     NUMBER_OF_RESERVED_WORDS

  23091 17 026133   000010 235007                    LDA     8,DL
        17 026134   000010 755000 6                  STA     LEX_SYMBOL+8
PL6.E3A0      #001=COBOLRW File=COBOLRW.:Z8A6TSI                                 SAT 08/09/97 09:25 Page:530

  23092 17 026135   040000 100400                    MLR     fill='040'O
        17 026136   002142 000010 16                 ADSC9   1122                     cn=0,n=8
        17 026137   000011 000504 6                  ADSC9   LEX_SYMBOL+9             cn=0,n=324

  23093 17 026140   000000 631400 18                 EPPR1   0
        17 026141   000000 701000 xent               TSX1    Z8AH$SEARCH_
        17 026142   000000 011000                    NOP     0

  23094 17 026143   000000 470400 2                  LDP0    DNT$
        17 026144   400000 236003                    LDQ     -131072,DU
        17 026145   000003 256100                    ORSQ    3,,PR0

  23095 17 026146   000001 236000 18                 LDQ     1
        17 026147   000003 356100                    ANSQ    3,,PR0

  23096 17 026150   000002 236000 18                 LDQ     2
        17 026151   000003 356100                    ANSQ    3,,PR0

  23097 17 026152   000003 236000 18                 LDQ     3
        17 026153   000003 356100                    ANSQ    3,,PR0

  23098 17 026154   000004 236000 18                 LDQ     4
        17 026155   000003 356100                    ANSQ    3,,PR0

  23099 17 026156   000675 220003                    LDX0    445,DU
        17 026157   000003 440100                    SXL0    3,,PR0

     1030    23101        %SEARCH (RWD='SWITCH-9',               RWNO=%RSV_WRD_SWITCH);

  23105 17 026160   002731 054000 1                  AOS     NUMBER_OF_RESERVED_WORDS

  23106 17 026161   000010 235007                    LDA     8,DL
        17 026162   000010 755000 6                  STA     LEX_SYMBOL+8

  23107 17 026163   040000 100400                    MLR     fill='040'O
        17 026164   002144 000010 16                 ADSC9   1124                     cn=0,n=8
PL6.E3A0      #001=COBOLRW File=COBOLRW.:Z8A6TSI                                 SAT 08/09/97 09:25 Page:531
        17 026165   000011 000504 6                  ADSC9   LEX_SYMBOL+9             cn=0,n=324

  23108 17 026166   000000 631400 18                 EPPR1   0
        17 026167   000000 701000 xent               TSX1    Z8AH$SEARCH_
        17 026170   000000 011000                    NOP     0

  23109 17 026171   000000 470400 2                  LDP0    DNT$
        17 026172   400000 236003                    LDQ     -131072,DU
        17 026173   000003 256100                    ORSQ    3,,PR0

  23110 17 026174   000001 236000 18                 LDQ     1
        17 026175   000003 356100                    ANSQ    3,,PR0

  23111 17 026176   000002 236000 18                 LDQ     2
        17 026177   000003 356100                    ANSQ    3,,PR0

  23112 17 026200   000003 236000 18                 LDQ     3
        17 026201   000003 356100                    ANSQ    3,,PR0

  23113 17 026202   000004 236000 18                 LDQ     4
        17 026203   000003 356100                    ANSQ    3,,PR0

  23114 17 026204   000675 220003                    LDX0    445,DU
        17 026205   000003 440100                    SXL0    3,,PR0

     1031    23116        %NEWRSW;
     1032    23119        %SEARCH (RWD='SYMBOLIC',               RWNO=%RSV_WRD_SYMBOLIC);

  23123 17 026206   002731 054000 1                  AOS     NUMBER_OF_RESERVED_WORDS

  23124 17 026207   000010 235007                    LDA     8,DL
        17 026210   000010 755000 6                  STA     LEX_SYMBOL+8

  23125 17 026211   040000 100400                    MLR     fill='040'O
        17 026212   002146 000010 16                 ADSC9   1126                     cn=0,n=8
        17 026213   000011 000504 6                  ADSC9   LEX_SYMBOL+9             cn=0,n=324

PL6.E3A0      #001=COBOLRW File=COBOLRW.:Z8A6TSI                                 SAT 08/09/97 09:25 Page:532
  23126 17 026214   000000 631400 18                 EPPR1   0
        17 026215   000000 701000 xent               TSX1    Z8AH$SEARCH_
        17 026216   000000 011000                    NOP     0

  23127 17 026217   000000 470400 2                  LDP0    DNT$
        17 026220   400000 236003                    LDQ     -131072,DU
        17 026221   000003 256100                    ORSQ    3,,PR0

  23128 17 026222   000001 236000 18                 LDQ     1
        17 026223   000003 356100                    ANSQ    3,,PR0

  23129 17 026224   000002 236000 18                 LDQ     2
        17 026225   000003 356100                    ANSQ    3,,PR0

  23130 17 026226   000003 236000 18                 LDQ     3
        17 026227   000003 356100                    ANSQ    3,,PR0

  23131 17 026230   000004 236000 18                 LDQ     4
        17 026231   000003 356100                    ANSQ    3,,PR0

  23132 17 026232   000676 220003                    LDX0    446,DU
        17 026233   000003 440100                    SXL0    3,,PR0

     1033    23134        %NEWRSW;
     1034    23137        %SEARCH (RWD='SYNCHRONIZED',           RWNO=%RSV_WRD_SYNCHRONIZED);

  23141 17 026234   002731 054000 1                  AOS     NUMBER_OF_RESERVED_WORDS

  23142 17 026235   000014 235007                    LDA     12,DL
        17 026236   000010 755000 6                  STA     LEX_SYMBOL+8

  23143 17 026237   040000 100400                    MLR     fill='040'O
        17 026240   002150 000014 16                 ADSC9   1128                     cn=0,n=12
        17 026241   000011 000504 6                  ADSC9   LEX_SYMBOL+9             cn=0,n=324

  23144 17 026242   000000 631400 18                 EPPR1   0
        17 026243   000000 701000 xent               TSX1    Z8AH$SEARCH_
PL6.E3A0      #001=COBOLRW File=COBOLRW.:Z8A6TSI                                 SAT 08/09/97 09:25 Page:533
        17 026244   000000 011000                    NOP     0

  23145 17 026245   000000 470400 2                  LDP0    DNT$
        17 026246   400000 236003                    LDQ     -131072,DU
        17 026247   000003 256100                    ORSQ    3,,PR0

  23146 17 026250   000001 236000 18                 LDQ     1
        17 026251   000003 356100                    ANSQ    3,,PR0

  23147 17 026252   000002 236000 18                 LDQ     2
        17 026253   000003 356100                    ANSQ    3,,PR0

  23148 17 026254   000003 236000 18                 LDQ     3
        17 026255   000003 356100                    ANSQ    3,,PR0

  23149 17 026256   000004 236000 18                 LDQ     4
        17 026257   000003 356100                    ANSQ    3,,PR0

  23150 17 026260   000677 220003                    LDX0    447,DU
        17 026261   000003 440100                    SXL0    3,,PR0

     1035    23152        %SEARCH (RWD='SYNC',                   RWNO=%RSV_WRD_SYNCHRONIZED);

  23156 17 026262   002731 054000 1                  AOS     NUMBER_OF_RESERVED_WORDS

  23157 17 026263   000004 235007                    LDA     4,DL
        17 026264   000010 755000 6                  STA     LEX_SYMBOL+8

  23158 17 026265   040000 100400                    MLR     fill='040'O
        17 026266   002150 000004 16                 ADSC9   1128                     cn=0,n=4
        17 026267   000011 000504 6                  ADSC9   LEX_SYMBOL+9             cn=0,n=324

  23159 17 026270   000000 631400 18                 EPPR1   0
        17 026271   000000 701000 xent               TSX1    Z8AH$SEARCH_
        17 026272   000000 011000                    NOP     0

  23160 17 026273   000000 470400 2                  LDP0    DNT$
PL6.E3A0      #001=COBOLRW File=COBOLRW.:Z8A6TSI                                 SAT 08/09/97 09:25 Page:534
        17 026274   400000 236003                    LDQ     -131072,DU
        17 026275   000003 256100                    ORSQ    3,,PR0

  23161 17 026276   000001 236000 18                 LDQ     1
        17 026277   000003 356100                    ANSQ    3,,PR0

  23162 17 026300   000002 236000 18                 LDQ     2
        17 026301   000003 356100                    ANSQ    3,,PR0

  23163 17 026302   000003 236000 18                 LDQ     3
        17 026303   000003 356100                    ANSQ    3,,PR0

  23164 17 026304   000004 236000 18                 LDQ     4
        17 026305   000003 356100                    ANSQ    3,,PR0

  23165 17 026306   000677 220003                    LDX0    447,DU
        17 026307   000003 440100                    SXL0    3,,PR0

     1036    23167        %NEWRSW;
     1037    23170        %SEARCH (RWD='SYSIN',                  RWNO=%RSV_WRD_SYSIN);

  23174 17 026310   002731 054000 1                  AOS     NUMBER_OF_RESERVED_WORDS

  23175 17 026311   000005 235007                    LDA     5,DL
        17 026312   000010 755000 6                  STA     LEX_SYMBOL+8

  23176 17 026313   040000 100400                    MLR     fill='040'O
        17 026314   002153 000005 16                 ADSC9   1131                     cn=0,n=5
        17 026315   000011 000504 6                  ADSC9   LEX_SYMBOL+9             cn=0,n=324

  23177 17 026316   000000 631400 18                 EPPR1   0
        17 026317   000000 701000 xent               TSX1    Z8AH$SEARCH_
        17 026320   000000 011000                    NOP     0

  23178 17 026321   000000 470400 2                  LDP0    DNT$
        17 026322   400000 236003                    LDQ     -131072,DU
        17 026323   000003 256100                    ORSQ    3,,PR0
PL6.E3A0      #001=COBOLRW File=COBOLRW.:Z8A6TSI                                 SAT 08/09/97 09:25 Page:535

  23179 17 026324   000001 236000 18                 LDQ     1
        17 026325   000003 356100                    ANSQ    3,,PR0

  23180 17 026326   000002 236000 18                 LDQ     2
        17 026327   000003 356100                    ANSQ    3,,PR0

  23181 17 026330   000003 236000 18                 LDQ     3
        17 026331   000003 356100                    ANSQ    3,,PR0

  23182 17 026332   000004 236000 18                 LDQ     4
        17 026333   000003 356100                    ANSQ    3,,PR0

  23183 17 026334   000700 220003                    LDX0    448,DU
        17 026335   000003 440100                    SXL0    3,,PR0

     1038    23185        %SEARCH (RWD='SYSIPT',                 RWNO=%RSV_WRD_SYSIN);

  23189 17 026336   002731 054000 1                  AOS     NUMBER_OF_RESERVED_WORDS

  23190 17 026337   000006 235007                    LDA     6,DL
        17 026340   000010 755000 6                  STA     LEX_SYMBOL+8

  23191 17 026341   040000 100400                    MLR     fill='040'O
        17 026342   002155 000006 16                 ADSC9   1133                     cn=0,n=6
        17 026343   000011 000504 6                  ADSC9   LEX_SYMBOL+9             cn=0,n=324

  23192 17 026344   000000 631400 18                 EPPR1   0
        17 026345   000000 701000 xent               TSX1    Z8AH$SEARCH_
        17 026346   000000 011000                    NOP     0

  23193 17 026347   000000 470400 2                  LDP0    DNT$
        17 026350   400000 236003                    LDQ     -131072,DU
        17 026351   000003 256100                    ORSQ    3,,PR0

  23194 17 026352   000001 236000 18                 LDQ     1
        17 026353   000003 356100                    ANSQ    3,,PR0
PL6.E3A0      #001=COBOLRW File=COBOLRW.:Z8A6TSI                                 SAT 08/09/97 09:25 Page:536

  23195 17 026354   000002 236000 18                 LDQ     2
        17 026355   000003 356100                    ANSQ    3,,PR0

  23196 17 026356   000003 236000 18                 LDQ     3
        17 026357   000003 356100                    ANSQ    3,,PR0

  23197 17 026360   000004 236000 18                 LDQ     4
        17 026361   000003 356100                    ANSQ    3,,PR0

  23198 17 026362   000700 220003                    LDX0    448,DU
        17 026363   000003 440100                    SXL0    3,,PR0

     1039    23200        %NEWRSW;
     1040    23203        %SEARCH (RWD='SYSOUT',                 RWNO=%RSV_WRD_SYSOUT);

  23207 17 026364   002731 054000 1                  AOS     NUMBER_OF_RESERVED_WORDS

  23208 17 026365   000006 235007                    LDA     6,DL
        17 026366   000010 755000 6                  STA     LEX_SYMBOL+8

  23209 17 026367   040000 100400                    MLR     fill='040'O
        17 026370   002157 000006 16                 ADSC9   1135                     cn=0,n=6
        17 026371   000011 000504 6                  ADSC9   LEX_SYMBOL+9             cn=0,n=324

  23210 17 026372   000000 631400 18                 EPPR1   0
        17 026373   000000 701000 xent               TSX1    Z8AH$SEARCH_
        17 026374   000000 011000                    NOP     0

  23211 17 026375   000000 470400 2                  LDP0    DNT$
        17 026376   400000 236003                    LDQ     -131072,DU
        17 026377   000003 256100                    ORSQ    3,,PR0

  23212 17 026400   000001 236000 18                 LDQ     1
        17 026401   000003 356100                    ANSQ    3,,PR0

  23213 17 026402   000002 236000 18                 LDQ     2
PL6.E3A0      #001=COBOLRW File=COBOLRW.:Z8A6TSI                                 SAT 08/09/97 09:25 Page:537
        17 026403   000003 356100                    ANSQ    3,,PR0

  23214 17 026404   000003 236000 18                 LDQ     3
        17 026405   000003 356100                    ANSQ    3,,PR0

  23215 17 026406   000004 236000 18                 LDQ     4
        17 026407   000003 356100                    ANSQ    3,,PR0

  23216 17 026410   000701 220003                    LDX0    449,DU
        17 026411   000003 440100                    SXL0    3,,PR0

     1041    23218        %SEARCH (RWD='SYSLST',                 RWNO=%RSV_WRD_SYSOUT);

  23222 17 026412   002731 054000 1                  AOS     NUMBER_OF_RESERVED_WORDS

  23223 17 026413   000006 235007                    LDA     6,DL
        17 026414   000010 755000 6                  STA     LEX_SYMBOL+8

  23224 17 026415   040000 100400                    MLR     fill='040'O
        17 026416   002161 000006 16                 ADSC9   1137                     cn=0,n=6
        17 026417   000011 000504 6                  ADSC9   LEX_SYMBOL+9             cn=0,n=324

  23225 17 026420   000000 631400 18                 EPPR1   0
        17 026421   000000 701000 xent               TSX1    Z8AH$SEARCH_
        17 026422   000000 011000                    NOP     0

  23226 17 026423   000000 470400 2                  LDP0    DNT$
        17 026424   400000 236003                    LDQ     -131072,DU
        17 026425   000003 256100                    ORSQ    3,,PR0

  23227 17 026426   000001 236000 18                 LDQ     1
        17 026427   000003 356100                    ANSQ    3,,PR0

  23228 17 026430   000002 236000 18                 LDQ     2
        17 026431   000003 356100                    ANSQ    3,,PR0

  23229 17 026432   000003 236000 18                 LDQ     3
PL6.E3A0      #001=COBOLRW File=COBOLRW.:Z8A6TSI                                 SAT 08/09/97 09:25 Page:538
        17 026433   000003 356100                    ANSQ    3,,PR0

  23230 17 026434   000004 236000 18                 LDQ     4
        17 026435   000003 356100                    ANSQ    3,,PR0

  23231 17 026436   000701 220003                    LDX0    449,DU
        17 026437   000003 440100                    SXL0    3,,PR0

     1042    23233        %NEWRSW;
     1043    23236        %SEARCH (RWD='TABLE',                  RWNO=%RSV_WRD_TABLE);

  23240 17 026440   002731 054000 1                  AOS     NUMBER_OF_RESERVED_WORDS

  23241 17 026441   000005 235007                    LDA     5,DL
        17 026442   000010 755000 6                  STA     LEX_SYMBOL+8

  23242 17 026443   040000 100400                    MLR     fill='040'O
        17 026444   002163 000005 16                 ADSC9   1139                     cn=0,n=5
        17 026445   000011 000504 6                  ADSC9   LEX_SYMBOL+9             cn=0,n=324

  23243 17 026446   000000 631400 18                 EPPR1   0
        17 026447   000000 701000 xent               TSX1    Z8AH$SEARCH_
        17 026450   000000 011000                    NOP     0

  23244 17 026451   000000 470400 2                  LDP0    DNT$
        17 026452   400000 236003                    LDQ     -131072,DU
        17 026453   000003 256100                    ORSQ    3,,PR0

  23245 17 026454   000001 236000 18                 LDQ     1
        17 026455   000003 356100                    ANSQ    3,,PR0

  23246 17 026456   000002 236000 18                 LDQ     2
        17 026457   000003 356100                    ANSQ    3,,PR0

  23247 17 026460   000003 236000 18                 LDQ     3
        17 026461   000003 356100                    ANSQ    3,,PR0

PL6.E3A0      #001=COBOLRW File=COBOLRW.:Z8A6TSI                                 SAT 08/09/97 09:25 Page:539
  23248 17 026462   000004 236000 18                 LDQ     4
        17 026463   000003 356100                    ANSQ    3,,PR0

  23249 17 026464   000702 220003                    LDX0    450,DU
        17 026465   000003 440100                    SXL0    3,,PR0

     1044    23251        %NEWRSW;
     1045    23254        %SEARCH (RWD='TALLYING',               RWNO=%RSV_WRD_TALLYING);

  23258 17 026466   002731 054000 1                  AOS     NUMBER_OF_RESERVED_WORDS

  23259 17 026467   000010 235007                    LDA     8,DL
        17 026470   000010 755000 6                  STA     LEX_SYMBOL+8

  23260 17 026471   040000 100400                    MLR     fill='040'O
        17 026472   002165 000010 16                 ADSC9   1141                     cn=0,n=8
        17 026473   000011 000504 6                  ADSC9   LEX_SYMBOL+9             cn=0,n=324

  23261 17 026474   000000 631400 18                 EPPR1   0
        17 026475   000000 701000 xent               TSX1    Z8AH$SEARCH_
        17 026476   000000 011000                    NOP     0

  23262 17 026477   000000 470400 2                  LDP0    DNT$
        17 026500   400000 236003                    LDQ     -131072,DU
        17 026501   000003 256100                    ORSQ    3,,PR0

  23263 17 026502   000001 236000 18                 LDQ     1
        17 026503   000003 356100                    ANSQ    3,,PR0

  23264 17 026504   000002 236000 18                 LDQ     2
        17 026505   000003 356100                    ANSQ    3,,PR0

  23265 17 026506   000003 236000 18                 LDQ     3
        17 026507   000003 356100                    ANSQ    3,,PR0

  23266 17 026510   000004 236000 18                 LDQ     4
        17 026511   000003 356100                    ANSQ    3,,PR0
PL6.E3A0      #001=COBOLRW File=COBOLRW.:Z8A6TSI                                 SAT 08/09/97 09:25 Page:540

  23267 17 026512   000703 220003                    LDX0    451,DU
        17 026513   000003 440100                    SXL0    3,,PR0

     1046    23269        %NEWRSW;
     1047    23272        %SEARCH (RWD='TAPE',                   RWNO=%RSV_WRD_TAPE);

  23276 17 026514   002731 054000 1                  AOS     NUMBER_OF_RESERVED_WORDS

  23277 17 026515   000004 235007                    LDA     4,DL
        17 026516   000010 755000 6                  STA     LEX_SYMBOL+8

  23278 17 026517   040000 100400                    MLR     fill='040'O
        17 026520   002167 000004 16                 ADSC9   1143                     cn=0,n=4
        17 026521   000011 000504 6                  ADSC9   LEX_SYMBOL+9             cn=0,n=324

  23279 17 026522   000000 631400 18                 EPPR1   0
        17 026523   000000 701000 xent               TSX1    Z8AH$SEARCH_
        17 026524   000000 011000                    NOP     0

  23280 17 026525   000000 470400 2                  LDP0    DNT$
        17 026526   400000 236003                    LDQ     -131072,DU
        17 026527   000003 256100                    ORSQ    3,,PR0

  23281 17 026530   000001 236000 18                 LDQ     1
        17 026531   000003 356100                    ANSQ    3,,PR0

  23282 17 026532   000002 236000 18                 LDQ     2
        17 026533   000003 356100                    ANSQ    3,,PR0

  23283 17 026534   000003 236000 18                 LDQ     3
        17 026535   000003 356100                    ANSQ    3,,PR0

  23284 17 026536   000004 236000 18                 LDQ     4
        17 026537   000003 356100                    ANSQ    3,,PR0

  23285 17 026540   000704 220003                    LDX0    452,DU
PL6.E3A0      #001=COBOLRW File=COBOLRW.:Z8A6TSI                                 SAT 08/09/97 09:25 Page:541
        17 026541   000003 440100                    SXL0    3,,PR0

     1048    23287        %NEWRSW;
     1049    23290        %SEARCH (RWD='TAPE-OPTIONS',           RWNO=%RSV_WRD_TAPE_OPTIONS);

  23294 17 026542   002731 054000 1                  AOS     NUMBER_OF_RESERVED_WORDS

  23295 17 026543   000014 235007                    LDA     12,DL
        17 026544   000010 755000 6                  STA     LEX_SYMBOL+8

  23296 17 026545   040000 100400                    MLR     fill='040'O
        17 026546   002170 000014 16                 ADSC9   1144                     cn=0,n=12
        17 026547   000011 000504 6                  ADSC9   LEX_SYMBOL+9             cn=0,n=324

  23297 17 026550   000000 631400 18                 EPPR1   0
        17 026551   000000 701000 xent               TSX1    Z8AH$SEARCH_
        17 026552   000000 011000                    NOP     0

  23298 17 026553   000000 470400 2                  LDP0    DNT$
        17 026554   400000 236003                    LDQ     -131072,DU
        17 026555   000003 256100                    ORSQ    3,,PR0

  23299 17 026556   000001 236000 18                 LDQ     1
        17 026557   000003 356100                    ANSQ    3,,PR0

  23300 17 026560   000002 236000 18                 LDQ     2
        17 026561   000003 356100                    ANSQ    3,,PR0

  23301 17 026562   000003 236000 18                 LDQ     3
        17 026563   000003 356100                    ANSQ    3,,PR0

  23302 17 026564   000004 236000 18                 LDQ     4
        17 026565   000003 356100                    ANSQ    3,,PR0

  23303 17 026566   000705 220003                    LDX0    453,DU
        17 026567   000003 440100                    SXL0    3,,PR0

PL6.E3A0      #001=COBOLRW File=COBOLRW.:Z8A6TSI                                 SAT 08/09/97 09:25 Page:542
     1050    23305        %NEWRSW;
     1051    23308        %SEARCH (RWD='TEMPORARY',              RWNO=%RSV_WRD_TEMPORARY);

  23312 17 026570   002731 054000 1                  AOS     NUMBER_OF_RESERVED_WORDS

  23313 17 026571   000011 235007                    LDA     9,DL
        17 026572   000010 755000 6                  STA     LEX_SYMBOL+8

  23314 17 026573   040000 100400                    MLR     fill='040'O
        17 026574   002173 000011 16                 ADSC9   1147                     cn=0,n=9
        17 026575   000011 000504 6                  ADSC9   LEX_SYMBOL+9             cn=0,n=324

  23315 17 026576   000000 631400 18                 EPPR1   0
        17 026577   000000 701000 xent               TSX1    Z8AH$SEARCH_
        17 026600   000000 011000                    NOP     0

  23316 17 026601   000000 470400 2                  LDP0    DNT$
        17 026602   400000 236003                    LDQ     -131072,DU
        17 026603   000003 256100                    ORSQ    3,,PR0

  23317 17 026604   000001 236000 18                 LDQ     1
        17 026605   000003 356100                    ANSQ    3,,PR0

  23318 17 026606   000002 236000 18                 LDQ     2
        17 026607   000003 356100                    ANSQ    3,,PR0

  23319 17 026610   000003 236000 18                 LDQ     3
        17 026611   000003 356100                    ANSQ    3,,PR0

  23320 17 026612   000004 236000 18                 LDQ     4
        17 026613   000003 356100                    ANSQ    3,,PR0

  23321 17 026614   000706 220003                    LDX0    454,DU
        17 026615   000003 440100                    SXL0    3,,PR0

     1052    23323        %NEWRSW;
     1053    23326        %SEARCH (RWD='TENANT',                 RWNO=%RSV_WRD_TENANT);
PL6.E3A0      #001=COBOLRW File=COBOLRW.:Z8A6TSI                                 SAT 08/09/97 09:25 Page:543

  23330 17 026616   002731 054000 1                  AOS     NUMBER_OF_RESERVED_WORDS

  23331 17 026617   000006 235007                    LDA     6,DL
        17 026620   000010 755000 6                  STA     LEX_SYMBOL+8

  23332 17 026621   040000 100400                    MLR     fill='040'O
        17 026622   002176 000006 16                 ADSC9   1150                     cn=0,n=6
        17 026623   000011 000504 6                  ADSC9   LEX_SYMBOL+9             cn=0,n=324

  23333 17 026624   000000 631400 18                 EPPR1   0
        17 026625   000000 701000 xent               TSX1    Z8AH$SEARCH_
        17 026626   000000 011000                    NOP     0

  23334 17 026627   000000 470400 2                  LDP0    DNT$
        17 026630   400000 236003                    LDQ     -131072,DU
        17 026631   000003 256100                    ORSQ    3,,PR0

  23335 17 026632   000001 236000 18                 LDQ     1
        17 026633   000003 356100                    ANSQ    3,,PR0

  23336 17 026634   000002 236000 18                 LDQ     2
        17 026635   000003 356100                    ANSQ    3,,PR0

  23337 17 026636   000003 236000 18                 LDQ     3
        17 026637   000003 356100                    ANSQ    3,,PR0

  23338 17 026640   000004 236000 18                 LDQ     4
        17 026641   000003 356100                    ANSQ    3,,PR0

  23339 17 026642   000707 220003                    LDX0    455,DU
        17 026643   000003 440100                    SXL0    3,,PR0

     1054    23341        %NEWRSW;
     1055    23344        %SEARCH (RWD='TERMINAL',               RWNO=%RSV_WRD_TERMINAL);

  23348 17 026644   002731 054000 1                  AOS     NUMBER_OF_RESERVED_WORDS
PL6.E3A0      #001=COBOLRW File=COBOLRW.:Z8A6TSI                                 SAT 08/09/97 09:25 Page:544

  23349 17 026645   000010 235007                    LDA     8,DL
        17 026646   000010 755000 6                  STA     LEX_SYMBOL+8

  23350 17 026647   040000 100400                    MLR     fill='040'O
        17 026650   002200 000010 16                 ADSC9   1152                     cn=0,n=8
        17 026651   000011 000504 6                  ADSC9   LEX_SYMBOL+9             cn=0,n=324

  23351 17 026652   000000 631400 18                 EPPR1   0
        17 026653   000000 701000 xent               TSX1    Z8AH$SEARCH_
        17 026654   000000 011000                    NOP     0

  23352 17 026655   000000 470400 2                  LDP0    DNT$
        17 026656   400000 236003                    LDQ     -131072,DU
        17 026657   000003 256100                    ORSQ    3,,PR0

  23353 17 026660   000001 236000 18                 LDQ     1
        17 026661   000003 356100                    ANSQ    3,,PR0

  23354 17 026662   000002 236000 18                 LDQ     2
        17 026663   000003 356100                    ANSQ    3,,PR0

  23355 17 026664   000003 236000 18                 LDQ     3
        17 026665   000003 356100                    ANSQ    3,,PR0

  23356 17 026666   000004 236000 18                 LDQ     4
        17 026667   000003 356100                    ANSQ    3,,PR0

  23357 17 026670   000710 220003                    LDX0    456,DU
        17 026671   000003 440100                    SXL0    3,,PR0

     1056    23359        %NEWRSW;
     1057    23362        %SEARCH (RWD='TERMINATE',              RWNO=%RSV_WRD_TERMINATE);

  23366 17 026672   002731 054000 1                  AOS     NUMBER_OF_RESERVED_WORDS

  23367 17 026673   000011 235007                    LDA     9,DL
PL6.E3A0      #001=COBOLRW File=COBOLRW.:Z8A6TSI                                 SAT 08/09/97 09:25 Page:545
        17 026674   000010 755000 6                  STA     LEX_SYMBOL+8

  23368 17 026675   040000 100400                    MLR     fill='040'O
        17 026676   002202 000011 16                 ADSC9   1154                     cn=0,n=9
        17 026677   000011 000504 6                  ADSC9   LEX_SYMBOL+9             cn=0,n=324

  23369 17 026700   000000 631400 18                 EPPR1   0
        17 026701   000000 701000 xent               TSX1    Z8AH$SEARCH_
        17 026702   000000 011000                    NOP     0

  23370 17 026703   000000 470400 2                  LDP0    DNT$
        17 026704   400000 236003                    LDQ     -131072,DU
        17 026705   000003 256100                    ORSQ    3,,PR0

  23371 17 026706   000001 236000 18                 LDQ     1
        17 026707   000003 356100                    ANSQ    3,,PR0

  23372 17 026710   000002 236000 18                 LDQ     2
        17 026711   000003 356100                    ANSQ    3,,PR0

  23373 17 026712   000003 236000 18                 LDQ     3
        17 026713   000003 356100                    ANSQ    3,,PR0

  23374 17 026714   000004 236000 18                 LDQ     4
        17 026715   000003 356100                    ANSQ    3,,PR0

  23375 17 026716   000711 220003                    LDX0    457,DU
        17 026717   000003 440100                    SXL0    3,,PR0

     1058    23377        %NEWRSW;
     1059    23380        %SEARCH (RWD='TEST',                   RWNO=%RSV_WRD_TEST);

  23384 17 026720   002731 054000 1                  AOS     NUMBER_OF_RESERVED_WORDS

  23385 17 026721   000004 235007                    LDA     4,DL
        17 026722   000010 755000 6                  STA     LEX_SYMBOL+8

PL6.E3A0      #001=COBOLRW File=COBOLRW.:Z8A6TSI                                 SAT 08/09/97 09:25 Page:546
  23386 17 026723   040000 100400                    MLR     fill='040'O
        17 026724   002205 000004 16                 ADSC9   1157                     cn=0,n=4
        17 026725   000011 000504 6                  ADSC9   LEX_SYMBOL+9             cn=0,n=324

  23387 17 026726   000000 631400 18                 EPPR1   0
        17 026727   000000 701000 xent               TSX1    Z8AH$SEARCH_
        17 026730   000000 011000                    NOP     0

  23388 17 026731   000000 470400 2                  LDP0    DNT$
        17 026732   400000 236003                    LDQ     -131072,DU
        17 026733   000003 256100                    ORSQ    3,,PR0

  23389 17 026734   000001 236000 18                 LDQ     1
        17 026735   000003 356100                    ANSQ    3,,PR0

  23390 17 026736   000002 236000 18                 LDQ     2
        17 026737   000003 356100                    ANSQ    3,,PR0

  23391 17 026740   000003 236000 18                 LDQ     3
        17 026741   000003 356100                    ANSQ    3,,PR0

  23392 17 026742   000004 236000 18                 LDQ     4
        17 026743   000003 356100                    ANSQ    3,,PR0

  23393 17 026744   000712 220003                    LDX0    458,DU
        17 026745   000003 440100                    SXL0    3,,PR0

     1060    23395        %NEWRSW;
     1061    23398        %SEARCH (RWD='TEXT',                   RWNO=%RSV_WRD_TEXT);

  23402 17 026746   002731 054000 1                  AOS     NUMBER_OF_RESERVED_WORDS

  23403 17 026747   000004 235007                    LDA     4,DL
        17 026750   000010 755000 6                  STA     LEX_SYMBOL+8

  23404 17 026751   040000 100400                    MLR     fill='040'O
        17 026752   002206 000004 16                 ADSC9   1158                     cn=0,n=4
PL6.E3A0      #001=COBOLRW File=COBOLRW.:Z8A6TSI                                 SAT 08/09/97 09:25 Page:547
        17 026753   000011 000504 6                  ADSC9   LEX_SYMBOL+9             cn=0,n=324

  23405 17 026754   000000 631400 18                 EPPR1   0
        17 026755   000000 701000 xent               TSX1    Z8AH$SEARCH_
        17 026756   000000 011000                    NOP     0

  23406 17 026757   000000 470400 2                  LDP0    DNT$
        17 026760   400000 236003                    LDQ     -131072,DU
        17 026761   000003 256100                    ORSQ    3,,PR0

  23407 17 026762   000001 236000 18                 LDQ     1
        17 026763   000003 356100                    ANSQ    3,,PR0

  23408 17 026764   000002 236000 18                 LDQ     2
        17 026765   000003 356100                    ANSQ    3,,PR0

  23409 17 026766   000003 236000 18                 LDQ     3
        17 026767   000003 356100                    ANSQ    3,,PR0

  23410 17 026770   000004 236000 18                 LDQ     4
        17 026771   000003 356100                    ANSQ    3,,PR0

  23411 17 026772   000713 220003                    LDX0    459,DU
        17 026773   000003 440100                    SXL0    3,,PR0

     1062    23413        %NEWRSW;
     1063    23416        %SEARCH (RWD='THAN',                   RWNO=%RSV_WRD_THAN);

  23420 17 026774   002731 054000 1                  AOS     NUMBER_OF_RESERVED_WORDS

  23421 17 026775   000004 235007                    LDA     4,DL
        17 026776   000010 755000 6                  STA     LEX_SYMBOL+8

  23422 17 026777   040000 100400                    MLR     fill='040'O
        17 027000   002207 000004 16                 ADSC9   1159                     cn=0,n=4
        17 027001   000011 000504 6                  ADSC9   LEX_SYMBOL+9             cn=0,n=324

PL6.E3A0      #001=COBOLRW File=COBOLRW.:Z8A6TSI                                 SAT 08/09/97 09:25 Page:548
  23423 17 027002   000000 631400 18                 EPPR1   0
        17 027003   000000 701000 xent               TSX1    Z8AH$SEARCH_
        17 027004   000000 011000                    NOP     0

  23424 17 027005   000000 470400 2                  LDP0    DNT$
        17 027006   400000 236003                    LDQ     -131072,DU
        17 027007   000003 256100                    ORSQ    3,,PR0

  23425 17 027010   000001 236000 18                 LDQ     1
        17 027011   000003 356100                    ANSQ    3,,PR0

  23426 17 027012   000002 236000 18                 LDQ     2
        17 027013   000003 356100                    ANSQ    3,,PR0

  23427 17 027014   000003 236000 18                 LDQ     3
        17 027015   000003 356100                    ANSQ    3,,PR0

  23428 17 027016   000004 236000 18                 LDQ     4
        17 027017   000003 356100                    ANSQ    3,,PR0

  23429 17 027020   000714 220003                    LDX0    460,DU
        17 027021   000003 440100                    SXL0    3,,PR0

     1064    23431        %NEWRSW;
     1065    23434        %SEARCH (RWD='THEN',                   RWNO=%RSV_WRD_THEN);

  23438 17 027022   002731 054000 1                  AOS     NUMBER_OF_RESERVED_WORDS

  23439 17 027023   000004 235007                    LDA     4,DL
        17 027024   000010 755000 6                  STA     LEX_SYMBOL+8

  23440 17 027025   040000 100400                    MLR     fill='040'O
        17 027026   002210 000004 16                 ADSC9   1160                     cn=0,n=4
        17 027027   000011 000504 6                  ADSC9   LEX_SYMBOL+9             cn=0,n=324

  23441 17 027030   000000 631400 18                 EPPR1   0
        17 027031   000000 701000 xent               TSX1    Z8AH$SEARCH_
PL6.E3A0      #001=COBOLRW File=COBOLRW.:Z8A6TSI                                 SAT 08/09/97 09:25 Page:549
        17 027032   000000 011000                    NOP     0

  23442 17 027033   000000 470400 2                  LDP0    DNT$
        17 027034   400000 236003                    LDQ     -131072,DU
        17 027035   000003 256100                    ORSQ    3,,PR0

  23443 17 027036   000001 236000 18                 LDQ     1
        17 027037   000003 356100                    ANSQ    3,,PR0

  23444 17 027040   000002 236000 18                 LDQ     2
        17 027041   000003 356100                    ANSQ    3,,PR0

  23445 17 027042   000003 236000 18                 LDQ     3
        17 027043   000003 356100                    ANSQ    3,,PR0

  23446 17 027044   000004 236000 18                 LDQ     4
        17 027045   000003 356100                    ANSQ    3,,PR0

  23447 17 027046   000715 220003                    LDX0    461,DU
        17 027047   000003 440100                    SXL0    3,,PR0

     1066    23449        %NEWRSW;
     1067    23452        %SEARCH (RWD='THRU',                   RWNO=%RSV_WRD_THRU);

  23456 17 027050   002731 054000 1                  AOS     NUMBER_OF_RESERVED_WORDS

  23457 17 027051   000004 235007                    LDA     4,DL
        17 027052   000010 755000 6                  STA     LEX_SYMBOL+8

  23458 17 027053   040000 100400                    MLR     fill='040'O
        17 027054   002211 000004 16                 ADSC9   1161                     cn=0,n=4
        17 027055   000011 000504 6                  ADSC9   LEX_SYMBOL+9             cn=0,n=324

  23459 17 027056   000000 631400 18                 EPPR1   0
        17 027057   000000 701000 xent               TSX1    Z8AH$SEARCH_
        17 027060   000000 011000                    NOP     0

PL6.E3A0      #001=COBOLRW File=COBOLRW.:Z8A6TSI                                 SAT 08/09/97 09:25 Page:550
  23460 17 027061   000000 470400 2                  LDP0    DNT$
        17 027062   400000 236003                    LDQ     -131072,DU
        17 027063   000003 256100                    ORSQ    3,,PR0

  23461 17 027064   000001 236000 18                 LDQ     1
        17 027065   000003 356100                    ANSQ    3,,PR0

  23462 17 027066   000002 236000 18                 LDQ     2
        17 027067   000003 356100                    ANSQ    3,,PR0

  23463 17 027070   000003 236000 18                 LDQ     3
        17 027071   000003 356100                    ANSQ    3,,PR0

  23464 17 027072   000004 236000 18                 LDQ     4
        17 027073   000003 356100                    ANSQ    3,,PR0

  23465 17 027074   000716 220003                    LDX0    462,DU
        17 027075   000003 440100                    SXL0    3,,PR0

     1068    23467        %SEARCH (RWD='THROUGH',                RWNO=%RSV_WRD_THRU);

  23471 17 027076   002731 054000 1                  AOS     NUMBER_OF_RESERVED_WORDS

  23472 17 027077   000007 235007                    LDA     7,DL
        17 027100   000010 755000 6                  STA     LEX_SYMBOL+8

  23473 17 027101   040000 100400                    MLR     fill='040'O
        17 027102   002212 000007 16                 ADSC9   1162                     cn=0,n=7
        17 027103   000011 000504 6                  ADSC9   LEX_SYMBOL+9             cn=0,n=324

  23474 17 027104   000000 631400 18                 EPPR1   0
        17 027105   000000 701000 xent               TSX1    Z8AH$SEARCH_
        17 027106   000000 011000                    NOP     0

  23475 17 027107   000000 470400 2                  LDP0    DNT$
        17 027110   400000 236003                    LDQ     -131072,DU
        17 027111   000003 256100                    ORSQ    3,,PR0
PL6.E3A0      #001=COBOLRW File=COBOLRW.:Z8A6TSI                                 SAT 08/09/97 09:25 Page:551

  23476 17 027112   000001 236000 18                 LDQ     1
        17 027113   000003 356100                    ANSQ    3,,PR0

  23477 17 027114   000002 236000 18                 LDQ     2
        17 027115   000003 356100                    ANSQ    3,,PR0

  23478 17 027116   000003 236000 18                 LDQ     3
        17 027117   000003 356100                    ANSQ    3,,PR0

  23479 17 027120   000004 236000 18                 LDQ     4
        17 027121   000003 356100                    ANSQ    3,,PR0

  23480 17 027122   000716 220003                    LDX0    462,DU
        17 027123   000003 440100                    SXL0    3,,PR0

     1069    23482        %NEWRSW;
     1070    23485        %SEARCH (RWD='TIME',                   RWNO=%RSV_WRD_TIME);

  23489 17 027124   002731 054000 1                  AOS     NUMBER_OF_RESERVED_WORDS

  23490 17 027125   000004 235007                    LDA     4,DL
        17 027126   000010 755000 6                  STA     LEX_SYMBOL+8

  23491 17 027127   040000 100400                    MLR     fill='040'O
        17 027130   002214 000004 16                 ADSC9   1164                     cn=0,n=4
        17 027131   000011 000504 6                  ADSC9   LEX_SYMBOL+9             cn=0,n=324

  23492 17 027132   000000 631400 18                 EPPR1   0
        17 027133   000000 701000 xent               TSX1    Z8AH$SEARCH_
        17 027134   000000 011000                    NOP     0

  23493 17 027135   000000 470400 2                  LDP0    DNT$
        17 027136   400000 236003                    LDQ     -131072,DU
        17 027137   000003 256100                    ORSQ    3,,PR0

  23494 17 027140   000001 236000 18                 LDQ     1
PL6.E3A0      #001=COBOLRW File=COBOLRW.:Z8A6TSI                                 SAT 08/09/97 09:25 Page:552
        17 027141   000003 356100                    ANSQ    3,,PR0

  23495 17 027142   000002 236000 18                 LDQ     2
        17 027143   000003 356100                    ANSQ    3,,PR0

  23496 17 027144   000003 236000 18                 LDQ     3
        17 027145   000003 356100                    ANSQ    3,,PR0

  23497 17 027146   000004 236000 18                 LDQ     4
        17 027147   000003 356100                    ANSQ    3,,PR0

  23498 17 027150   000717 220003                    LDX0    463,DU
        17 027151   000003 440100                    SXL0    3,,PR0

     1071    23500        %NEWRSW;
     1072    23503        %SEARCH (RWD='TIMES',                  RWNO=%RSV_WRD_TIMES);

  23507 17 027152   002731 054000 1                  AOS     NUMBER_OF_RESERVED_WORDS

  23508 17 027153   000005 235007                    LDA     5,DL
        17 027154   000010 755000 6                  STA     LEX_SYMBOL+8

  23509 17 027155   040000 100400                    MLR     fill='040'O
        17 027156   002215 000005 16                 ADSC9   1165                     cn=0,n=5
        17 027157   000011 000504 6                  ADSC9   LEX_SYMBOL+9             cn=0,n=324

  23510 17 027160   000000 631400 18                 EPPR1   0
        17 027161   000000 701000 xent               TSX1    Z8AH$SEARCH_
        17 027162   000000 011000                    NOP     0

  23511 17 027163   000000 470400 2                  LDP0    DNT$
        17 027164   400000 236003                    LDQ     -131072,DU
        17 027165   000003 256100                    ORSQ    3,,PR0

  23512 17 027166   000001 236000 18                 LDQ     1
        17 027167   000003 356100                    ANSQ    3,,PR0

PL6.E3A0      #001=COBOLRW File=COBOLRW.:Z8A6TSI                                 SAT 08/09/97 09:25 Page:553
  23513 17 027170   000002 236000 18                 LDQ     2
        17 027171   000003 356100                    ANSQ    3,,PR0

  23514 17 027172   000003 236000 18                 LDQ     3
        17 027173   000003 356100                    ANSQ    3,,PR0

  23515 17 027174   000004 236000 18                 LDQ     4
        17 027175   000003 356100                    ANSQ    3,,PR0

  23516 17 027176   000720 220003                    LDX0    464,DU
        17 027177   000003 440100                    SXL0    3,,PR0

     1073    23518        %NEWRSW;
     1074    23521        %SEARCH (RWD='TO',                     RWNO=%RSV_WRD_TO);

  23525 17 027200   002731 054000 1                  AOS     NUMBER_OF_RESERVED_WORDS

  23526 17 027201   000002 235007                    LDA     2,DL
        17 027202   000010 755000 6                  STA     LEX_SYMBOL+8

  23527 17 027203   040000 100400                    MLR     fill='040'O
        17 027204   002217 000002 16                 ADSC9   1167                     cn=0,n=2
        17 027205   000011 000504 6                  ADSC9   LEX_SYMBOL+9             cn=0,n=324

  23528 17 027206   000000 631400 18                 EPPR1   0
        17 027207   000000 701000 xent               TSX1    Z8AH$SEARCH_
        17 027210   000000 011000                    NOP     0

  23529 17 027211   000000 470400 2                  LDP0    DNT$
        17 027212   400000 236003                    LDQ     -131072,DU
        17 027213   000003 256100                    ORSQ    3,,PR0

  23530 17 027214   000001 236000 18                 LDQ     1
        17 027215   000003 356100                    ANSQ    3,,PR0

  23531 17 027216   000002 236000 18                 LDQ     2
        17 027217   000003 356100                    ANSQ    3,,PR0
PL6.E3A0      #001=COBOLRW File=COBOLRW.:Z8A6TSI                                 SAT 08/09/97 09:25 Page:554

  23532 17 027220   000003 236000 18                 LDQ     3
        17 027221   000003 356100                    ANSQ    3,,PR0

  23533 17 027222   000004 236000 18                 LDQ     4
        17 027223   000003 356100                    ANSQ    3,,PR0

  23534 17 027224   000721 220003                    LDX0    465,DU
        17 027225   000003 440100                    SXL0    3,,PR0

     1075    23536        %NEWRSW;
     1076    23539        %SEARCH (RWD='TOP',                    RWNO=%RSV_WRD_TOP);

  23543 17 027226   002731 054000 1                  AOS     NUMBER_OF_RESERVED_WORDS

  23544 17 027227   000003 235007                    LDA     3,DL
        17 027230   000010 755000 6                  STA     LEX_SYMBOL+8

  23545 17 027231   040000 100400                    MLR     fill='040'O
        17 027232   002220 000003 16                 ADSC9   1168                     cn=0,n=3
        17 027233   000011 000504 6                  ADSC9   LEX_SYMBOL+9             cn=0,n=324

  23546 17 027234   000000 631400 18                 EPPR1   0
        17 027235   000000 701000 xent               TSX1    Z8AH$SEARCH_
        17 027236   000000 011000                    NOP     0

  23547 17 027237   000000 470400 2                  LDP0    DNT$
        17 027240   400000 236003                    LDQ     -131072,DU
        17 027241   000003 256100                    ORSQ    3,,PR0

  23548 17 027242   000001 236000 18                 LDQ     1
        17 027243   000003 356100                    ANSQ    3,,PR0

  23549 17 027244   000002 236000 18                 LDQ     2
        17 027245   000003 356100                    ANSQ    3,,PR0

  23550 17 027246   000003 236000 18                 LDQ     3
PL6.E3A0      #001=COBOLRW File=COBOLRW.:Z8A6TSI                                 SAT 08/09/97 09:25 Page:555
        17 027247   000003 356100                    ANSQ    3,,PR0

  23551 17 027250   000004 236000 18                 LDQ     4
        17 027251   000003 356100                    ANSQ    3,,PR0

  23552 17 027252   000722 220003                    LDX0    466,DU
        17 027253   000003 440100                    SXL0    3,,PR0

     1077    23554        %NEWRSW;
     1078    23557        %SEARCH (RWD='TRAILING',               RWNO=%RSV_WRD_TRAILING);

  23561 17 027254   002731 054000 1                  AOS     NUMBER_OF_RESERVED_WORDS

  23562 17 027255   000010 235007                    LDA     8,DL
        17 027256   000010 755000 6                  STA     LEX_SYMBOL+8

  23563 17 027257   040000 100400                    MLR     fill='040'O
        17 027260   002221 000010 16                 ADSC9   1169                     cn=0,n=8
        17 027261   000011 000504 6                  ADSC9   LEX_SYMBOL+9             cn=0,n=324

  23564 17 027262   000000 631400 18                 EPPR1   0
        17 027263   000000 701000 xent               TSX1    Z8AH$SEARCH_
        17 027264   000000 011000                    NOP     0

  23565 17 027265   000000 470400 2                  LDP0    DNT$
        17 027266   400000 236003                    LDQ     -131072,DU
        17 027267   000003 256100                    ORSQ    3,,PR0

  23566 17 027270   000001 236000 18                 LDQ     1
        17 027271   000003 356100                    ANSQ    3,,PR0

  23567 17 027272   000002 236000 18                 LDQ     2
        17 027273   000003 356100                    ANSQ    3,,PR0

  23568 17 027274   000003 236000 18                 LDQ     3
        17 027275   000003 356100                    ANSQ    3,,PR0

PL6.E3A0      #001=COBOLRW File=COBOLRW.:Z8A6TSI                                 SAT 08/09/97 09:25 Page:556
  23569 17 027276   000004 236000 18                 LDQ     4
        17 027277   000003 356100                    ANSQ    3,,PR0

  23570 17 027300   000723 220003                    LDX0    467,DU
        17 027301   000003 440100                    SXL0    3,,PR0

     1079    23572        %NEWRSW;
     1080    23575        %SEARCH (RWD='TRANSFORM',              RWNO=%RSV_WRD_TRANSFORM);

  23579 17 027302   002731 054000 1                  AOS     NUMBER_OF_RESERVED_WORDS

  23580 17 027303   000011 235007                    LDA     9,DL
        17 027304   000010 755000 6                  STA     LEX_SYMBOL+8

  23581 17 027305   040000 100400                    MLR     fill='040'O
        17 027306   002223 000011 16                 ADSC9   1171                     cn=0,n=9
        17 027307   000011 000504 6                  ADSC9   LEX_SYMBOL+9             cn=0,n=324

  23582 17 027310   000000 631400 18                 EPPR1   0
        17 027311   000000 701000 xent               TSX1    Z8AH$SEARCH_
        17 027312   000000 011000                    NOP     0

  23583 17 027313   000000 470400 2                  LDP0    DNT$
        17 027314   400000 236003                    LDQ     -131072,DU
        17 027315   000003 256100                    ORSQ    3,,PR0

  23584 17 027316   000001 236000 18                 LDQ     1
        17 027317   000003 356100                    ANSQ    3,,PR0

  23585 17 027320   000002 236000 18                 LDQ     2
        17 027321   000003 356100                    ANSQ    3,,PR0

  23586 17 027322   000003 236000 18                 LDQ     3
        17 027323   000003 356100                    ANSQ    3,,PR0

  23587 17 027324   000004 236000 18                 LDQ     4
        17 027325   000003 356100                    ANSQ    3,,PR0
PL6.E3A0      #001=COBOLRW File=COBOLRW.:Z8A6TSI                                 SAT 08/09/97 09:25 Page:557

  23588 17 027326   000724 220003                    LDX0    468,DU
        17 027327   000003 440100                    SXL0    3,,PR0

     1081    23590        %NEWRSW;
     1082    23593        %SEARCH (RWD='TRUE',                   RWNO=%RSV_WRD_TRUE);

  23597 17 027330   002731 054000 1                  AOS     NUMBER_OF_RESERVED_WORDS

  23598 17 027331   000004 235007                    LDA     4,DL
        17 027332   000010 755000 6                  STA     LEX_SYMBOL+8

  23599 17 027333   040000 100400                    MLR     fill='040'O
        17 027334   002226 000004 16                 ADSC9   1174                     cn=0,n=4
        17 027335   000011 000504 6                  ADSC9   LEX_SYMBOL+9             cn=0,n=324

  23600 17 027336   000000 631400 18                 EPPR1   0
        17 027337   000000 701000 xent               TSX1    Z8AH$SEARCH_
        17 027340   000000 011000                    NOP     0

  23601 17 027341   000000 470400 2                  LDP0    DNT$
        17 027342   400000 236003                    LDQ     -131072,DU
        17 027343   000003 256100                    ORSQ    3,,PR0

  23602 17 027344   000001 236000 18                 LDQ     1
        17 027345   000003 356100                    ANSQ    3,,PR0

  23603 17 027346   000002 236000 18                 LDQ     2
        17 027347   000003 356100                    ANSQ    3,,PR0

  23604 17 027350   000003 236000 18                 LDQ     3
        17 027351   000003 356100                    ANSQ    3,,PR0

  23605 17 027352   000004 236000 18                 LDQ     4
        17 027353   000003 356100                    ANSQ    3,,PR0

  23606 17 027354   000725 220003                    LDX0    469,DU
PL6.E3A0      #001=COBOLRW File=COBOLRW.:Z8A6TSI                                 SAT 08/09/97 09:25 Page:558
        17 027355   000003 440100                    SXL0    3,,PR0

     1083    23608        %NEWRSW;
     1084    23611        %SEARCH (RWD='TYPE',                   RWNO=%RSV_WRD_TYPE);

  23615 17 027356   002731 054000 1                  AOS     NUMBER_OF_RESERVED_WORDS

  23616 17 027357   000004 235007                    LDA     4,DL
        17 027360   000010 755000 6                  STA     LEX_SYMBOL+8

  23617 17 027361   040000 100400                    MLR     fill='040'O
        17 027362   002227 000004 16                 ADSC9   1175                     cn=0,n=4
        17 027363   000011 000504 6                  ADSC9   LEX_SYMBOL+9             cn=0,n=324

  23618 17 027364   000000 631400 18                 EPPR1   0
        17 027365   000000 701000 xent               TSX1    Z8AH$SEARCH_
        17 027366   000000 011000                    NOP     0

  23619 17 027367   000000 470400 2                  LDP0    DNT$
        17 027370   400000 236003                    LDQ     -131072,DU
        17 027371   000003 256100                    ORSQ    3,,PR0

  23620 17 027372   000001 236000 18                 LDQ     1
        17 027373   000003 356100                    ANSQ    3,,PR0

  23621 17 027374   000002 236000 18                 LDQ     2
        17 027375   000003 356100                    ANSQ    3,,PR0

  23622 17 027376   000003 236000 18                 LDQ     3
        17 027377   000003 356100                    ANSQ    3,,PR0

  23623 17 027400   000004 236000 18                 LDQ     4
        17 027401   000003 356100                    ANSQ    3,,PR0

  23624 17 027402   000726 220003                    LDX0    470,DU
        17 027403   000003 440100                    SXL0    3,,PR0

PL6.E3A0      #001=COBOLRW File=COBOLRW.:Z8A6TSI                                 SAT 08/09/97 09:25 Page:559
     1085    23626        %NEWRSW;
     1086    23629        %SEARCH (RWD='UFF',                    RWNO=%RSV_WRD_UFF);

  23633 17 027404   002731 054000 1                  AOS     NUMBER_OF_RESERVED_WORDS

  23634 17 027405   000003 235007                    LDA     3,DL
        17 027406   000010 755000 6                  STA     LEX_SYMBOL+8

  23635 17 027407   040000 100400                    MLR     fill='040'O
        17 027410   002230 000003 16                 ADSC9   1176                     cn=0,n=3
        17 027411   000011 000504 6                  ADSC9   LEX_SYMBOL+9             cn=0,n=324

  23636 17 027412   000000 631400 18                 EPPR1   0
        17 027413   000000 701000 xent               TSX1    Z8AH$SEARCH_
        17 027414   000000 011000                    NOP     0

  23637 17 027415   000000 470400 2                  LDP0    DNT$
        17 027416   400000 236003                    LDQ     -131072,DU
        17 027417   000003 256100                    ORSQ    3,,PR0

  23638 17 027420   000001 236000 18                 LDQ     1
        17 027421   000003 356100                    ANSQ    3,,PR0

  23639 17 027422   000002 236000 18                 LDQ     2
        17 027423   000003 356100                    ANSQ    3,,PR0

  23640 17 027424   000003 236000 18                 LDQ     3
        17 027425   000003 356100                    ANSQ    3,,PR0

  23641 17 027426   000004 236000 18                 LDQ     4
        17 027427   000003 356100                    ANSQ    3,,PR0

  23642 17 027430   000727 220003                    LDX0    471,DU
        17 027431   000003 440100                    SXL0    3,,PR0

     1087    23644        %SEARCH (RWD='UFAS',                   RWNO=%RSV_WRD_UFF);

PL6.E3A0      #001=COBOLRW File=COBOLRW.:Z8A6TSI                                 SAT 08/09/97 09:25 Page:560
  23648 17 027432   002731 054000 1                  AOS     NUMBER_OF_RESERVED_WORDS

  23649 17 027433   000004 235007                    LDA     4,DL
        17 027434   000010 755000 6                  STA     LEX_SYMBOL+8

  23650 17 027435   040000 100400                    MLR     fill='040'O
        17 027436   002231 000004 16                 ADSC9   1177                     cn=0,n=4
        17 027437   000011 000504 6                  ADSC9   LEX_SYMBOL+9             cn=0,n=324

  23651 17 027440   000000 631400 18                 EPPR1   0
        17 027441   000000 701000 xent               TSX1    Z8AH$SEARCH_
        17 027442   000000 011000                    NOP     0

  23652 17 027443   000000 470400 2                  LDP0    DNT$
        17 027444   400000 236003                    LDQ     -131072,DU
        17 027445   000003 256100                    ORSQ    3,,PR0

  23653 17 027446   000001 236000 18                 LDQ     1
        17 027447   000003 356100                    ANSQ    3,,PR0

  23654 17 027450   000002 236000 18                 LDQ     2
        17 027451   000003 356100                    ANSQ    3,,PR0

  23655 17 027452   000003 236000 18                 LDQ     3
        17 027453   000003 356100                    ANSQ    3,,PR0

  23656 17 027454   000004 236000 18                 LDQ     4
        17 027455   000003 356100                    ANSQ    3,,PR0

  23657 17 027456   000727 220003                    LDX0    471,DU
        17 027457   000003 440100                    SXL0    3,,PR0

     1088    23659        %NEWRSW;
     1089    23662        %SEARCH (RWD='UNBANNERED',             RWNO=%RSV_WRD_UNBANNERED);

  23666 17 027460   002731 054000 1                  AOS     NUMBER_OF_RESERVED_WORDS

PL6.E3A0      #001=COBOLRW File=COBOLRW.:Z8A6TSI                                 SAT 08/09/97 09:25 Page:561
  23667 17 027461   000012 235007                    LDA     10,DL
        17 027462   000010 755000 6                  STA     LEX_SYMBOL+8

  23668 17 027463   040000 100400                    MLR     fill='040'O
        17 027464   002232 000012 16                 ADSC9   1178                     cn=0,n=10
        17 027465   000011 000504 6                  ADSC9   LEX_SYMBOL+9             cn=0,n=324

  23669 17 027466   000000 631400 18                 EPPR1   0
        17 027467   000000 701000 xent               TSX1    Z8AH$SEARCH_
        17 027470   000000 011000                    NOP     0

  23670 17 027471   000000 470400 2                  LDP0    DNT$
        17 027472   400000 236003                    LDQ     -131072,DU
        17 027473   000003 256100                    ORSQ    3,,PR0

  23671 17 027474   000001 236000 18                 LDQ     1
        17 027475   000003 356100                    ANSQ    3,,PR0

  23672 17 027476   000002 236000 18                 LDQ     2
        17 027477   000003 356100                    ANSQ    3,,PR0

  23673 17 027500   000003 236000 18                 LDQ     3
        17 027501   000003 356100                    ANSQ    3,,PR0

  23674 17 027502   000004 236000 18                 LDQ     4
        17 027503   000003 356100                    ANSQ    3,,PR0

  23675 17 027504   000730 220003                    LDX0    472,DU
        17 027505   000003 440100                    SXL0    3,,PR0

     1090    23677        %NEWRSW;
     1091    23680        %SEARCH (RWD='UNEQUAL',                RWNO=%RSV_WRD_UNEQUAL);

  23684 17 027506   002731 054000 1                  AOS     NUMBER_OF_RESERVED_WORDS

  23685 17 027507   000007 235007                    LDA     7,DL
        17 027510   000010 755000 6                  STA     LEX_SYMBOL+8
PL6.E3A0      #001=COBOLRW File=COBOLRW.:Z8A6TSI                                 SAT 08/09/97 09:25 Page:562

  23686 17 027511   040000 100400                    MLR     fill='040'O
        17 027512   002235 000007 16                 ADSC9   1181                     cn=0,n=7
        17 027513   000011 000504 6                  ADSC9   LEX_SYMBOL+9             cn=0,n=324

  23687 17 027514   000000 631400 18                 EPPR1   0
        17 027515   000000 701000 xent               TSX1    Z8AH$SEARCH_
        17 027516   000000 011000                    NOP     0

  23688 17 027517   000000 470400 2                  LDP0    DNT$
        17 027520   400000 236003                    LDQ     -131072,DU
        17 027521   000003 256100                    ORSQ    3,,PR0

  23689 17 027522   000001 236000 18                 LDQ     1
        17 027523   000003 356100                    ANSQ    3,,PR0

  23690 17 027524   000002 236000 18                 LDQ     2
        17 027525   000003 356100                    ANSQ    3,,PR0

  23691 17 027526   000003 236000 18                 LDQ     3
        17 027527   000003 356100                    ANSQ    3,,PR0

  23692 17 027530   000004 236000 18                 LDQ     4
        17 027531   000003 356100                    ANSQ    3,,PR0

  23693 17 027532   000731 220003                    LDX0    473,DU
        17 027533   000003 440100                    SXL0    3,,PR0

     1092    23695        %NEWRSW;
     1093    23698        %SEARCH (RWD='UNIT',                   RWNO=%RSV_WRD_UNIT);

  23702 17 027534   002731 054000 1                  AOS     NUMBER_OF_RESERVED_WORDS

  23703 17 027535   000004 235007                    LDA     4,DL
        17 027536   000010 755000 6                  STA     LEX_SYMBOL+8

  23704 17 027537   040000 100400                    MLR     fill='040'O
PL6.E3A0      #001=COBOLRW File=COBOLRW.:Z8A6TSI                                 SAT 08/09/97 09:25 Page:563
        17 027540   002237 000004 16                 ADSC9   1183                     cn=0,n=4
        17 027541   000011 000504 6                  ADSC9   LEX_SYMBOL+9             cn=0,n=324

  23705 17 027542   000000 631400 18                 EPPR1   0
        17 027543   000000 701000 xent               TSX1    Z8AH$SEARCH_
        17 027544   000000 011000                    NOP     0

  23706 17 027545   000000 470400 2                  LDP0    DNT$
        17 027546   400000 236003                    LDQ     -131072,DU
        17 027547   000003 256100                    ORSQ    3,,PR0

  23707 17 027550   000001 236000 18                 LDQ     1
        17 027551   000003 356100                    ANSQ    3,,PR0

  23708 17 027552   000002 236000 18                 LDQ     2
        17 027553   000003 356100                    ANSQ    3,,PR0

  23709 17 027554   000003 236000 18                 LDQ     3
        17 027555   000003 356100                    ANSQ    3,,PR0

  23710 17 027556   000004 236000 18                 LDQ     4
        17 027557   000003 356100                    ANSQ    3,,PR0

  23711 17 027560   000732 220003                    LDX0    474,DU
        17 027561   000003 440100                    SXL0    3,,PR0

     1094    23713        %NEWRSW;
     1095    23716        %SEARCH (RWD='UNSTRING',               RWNO=%RSV_WRD_UNSTRING);

  23720 17 027562   002731 054000 1                  AOS     NUMBER_OF_RESERVED_WORDS

  23721 17 027563   000010 235007                    LDA     8,DL
        17 027564   000010 755000 6                  STA     LEX_SYMBOL+8

  23722 17 027565   040000 100400                    MLR     fill='040'O
        17 027566   002240 000010 16                 ADSC9   1184                     cn=0,n=8
        17 027567   000011 000504 6                  ADSC9   LEX_SYMBOL+9             cn=0,n=324
PL6.E3A0      #001=COBOLRW File=COBOLRW.:Z8A6TSI                                 SAT 08/09/97 09:25 Page:564

  23723 17 027570   000000 631400 18                 EPPR1   0
        17 027571   000000 701000 xent               TSX1    Z8AH$SEARCH_
        17 027572   000000 011000                    NOP     0

  23724 17 027573   000000 470400 2                  LDP0    DNT$
        17 027574   400000 236003                    LDQ     -131072,DU
        17 027575   000003 256100                    ORSQ    3,,PR0

  23725 17 027576   000001 236000 18                 LDQ     1
        17 027577   000003 356100                    ANSQ    3,,PR0

  23726 17 027600   000002 236000 18                 LDQ     2
        17 027601   000003 356100                    ANSQ    3,,PR0

  23727 17 027602   000003 236000 18                 LDQ     3
        17 027603   000003 356100                    ANSQ    3,,PR0

  23728 17 027604   000004 236000 18                 LDQ     4
        17 027605   000003 356100                    ANSQ    3,,PR0

  23729 17 027606   000733 220003                    LDX0    475,DU
        17 027607   000003 440100                    SXL0    3,,PR0

     1096    23731        %NEWRSW;
     1097    23734        %SEARCH (RWD='UNTIL',                  RWNO=%RSV_WRD_UNTIL);

  23738 17 027610   002731 054000 1                  AOS     NUMBER_OF_RESERVED_WORDS

  23739 17 027611   000005 235007                    LDA     5,DL
        17 027612   000010 755000 6                  STA     LEX_SYMBOL+8

  23740 17 027613   040000 100400                    MLR     fill='040'O
        17 027614   002242 000005 16                 ADSC9   1186                     cn=0,n=5
        17 027615   000011 000504 6                  ADSC9   LEX_SYMBOL+9             cn=0,n=324

  23741 17 027616   000000 631400 18                 EPPR1   0
PL6.E3A0      #001=COBOLRW File=COBOLRW.:Z8A6TSI                                 SAT 08/09/97 09:25 Page:565
        17 027617   000000 701000 xent               TSX1    Z8AH$SEARCH_
        17 027620   000000 011000                    NOP     0

  23742 17 027621   000000 470400 2                  LDP0    DNT$
        17 027622   400000 236003                    LDQ     -131072,DU
        17 027623   000003 256100                    ORSQ    3,,PR0

  23743 17 027624   000001 236000 18                 LDQ     1
        17 027625   000003 356100                    ANSQ    3,,PR0

  23744 17 027626   000002 236000 18                 LDQ     2
        17 027627   000003 356100                    ANSQ    3,,PR0

  23745 17 027630   000003 236000 18                 LDQ     3
        17 027631   000003 356100                    ANSQ    3,,PR0

  23746 17 027632   000004 236000 18                 LDQ     4
        17 027633   000003 356100                    ANSQ    3,,PR0

  23747 17 027634   000734 220003                    LDX0    476,DU
        17 027635   000003 440100                    SXL0    3,,PR0

     1098    23749        %NEWRSW;
     1099    23752        %SEARCH (RWD='UP',                     RWNO=%RSV_WRD_UP);

  23756 17 027636   002731 054000 1                  AOS     NUMBER_OF_RESERVED_WORDS

  23757 17 027637   000002 235007                    LDA     2,DL
        17 027640   000010 755000 6                  STA     LEX_SYMBOL+8

  23758 17 027641   040000 100400                    MLR     fill='040'O
        17 027642   002244 000002 16                 ADSC9   1188                     cn=0,n=2
        17 027643   000011 000504 6                  ADSC9   LEX_SYMBOL+9             cn=0,n=324

  23759 17 027644   000000 631400 18                 EPPR1   0
        17 027645   000000 701000 xent               TSX1    Z8AH$SEARCH_
        17 027646   000000 011000                    NOP     0
PL6.E3A0      #001=COBOLRW File=COBOLRW.:Z8A6TSI                                 SAT 08/09/97 09:25 Page:566

  23760 17 027647   000000 470400 2                  LDP0    DNT$
        17 027650   400000 236003                    LDQ     -131072,DU
        17 027651   000003 256100                    ORSQ    3,,PR0

  23761 17 027652   000001 236000 18                 LDQ     1
        17 027653   000003 356100                    ANSQ    3,,PR0

  23762 17 027654   000002 236000 18                 LDQ     2
        17 027655   000003 356100                    ANSQ    3,,PR0

  23763 17 027656   000003 236000 18                 LDQ     3
        17 027657   000003 356100                    ANSQ    3,,PR0

  23764 17 027660   000004 236000 18                 LDQ     4
        17 027661   000003 356100                    ANSQ    3,,PR0

  23765 17 027662   000735 220003                    LDX0    477,DU
        17 027663   000003 440100                    SXL0    3,,PR0

     1100    23767        %NEWRSW;
     1101    23770        %SEARCH (RWD='UPDATE',                 RWNO=%RSV_WRD_UPDATE);

  23774 17 027664   002731 054000 1                  AOS     NUMBER_OF_RESERVED_WORDS

  23775 17 027665   000006 235007                    LDA     6,DL
        17 027666   000010 755000 6                  STA     LEX_SYMBOL+8

  23776 17 027667   040000 100400                    MLR     fill='040'O
        17 027670   002245 000006 16                 ADSC9   1189                     cn=0,n=6
        17 027671   000011 000504 6                  ADSC9   LEX_SYMBOL+9             cn=0,n=324

  23777 17 027672   000000 631400 18                 EPPR1   0
        17 027673   000000 701000 xent               TSX1    Z8AH$SEARCH_
        17 027674   000000 011000                    NOP     0

  23778 17 027675   000000 470400 2                  LDP0    DNT$
PL6.E3A0      #001=COBOLRW File=COBOLRW.:Z8A6TSI                                 SAT 08/09/97 09:25 Page:567
        17 027676   400000 236003                    LDQ     -131072,DU
        17 027677   000003 256100                    ORSQ    3,,PR0

  23779 17 027700   000001 236000 18                 LDQ     1
        17 027701   000003 356100                    ANSQ    3,,PR0

  23780 17 027702   000002 236000 18                 LDQ     2
        17 027703   000003 356100                    ANSQ    3,,PR0

  23781 17 027704   000003 236000 18                 LDQ     3
        17 027705   000003 356100                    ANSQ    3,,PR0

  23782 17 027706   000004 236000 18                 LDQ     4
        17 027707   000003 356100                    ANSQ    3,,PR0

  23783 17 027710   000736 220003                    LDX0    478,DU
        17 027711   000003 440100                    SXL0    3,,PR0

     1102    23785        %NEWRSW;
     1103    23788        %SEARCH (RWD='UPON',                   RWNO=%RSV_WRD_UPON);

  23792 17 027712   002731 054000 1                  AOS     NUMBER_OF_RESERVED_WORDS

  23793 17 027713   000004 235007                    LDA     4,DL
        17 027714   000010 755000 6                  STA     LEX_SYMBOL+8

  23794 17 027715   040000 100400                    MLR     fill='040'O
        17 027716   002247 000004 16                 ADSC9   1191                     cn=0,n=4
        17 027717   000011 000504 6                  ADSC9   LEX_SYMBOL+9             cn=0,n=324

  23795 17 027720   000000 631400 18                 EPPR1   0
        17 027721   000000 701000 xent               TSX1    Z8AH$SEARCH_
        17 027722   000000 011000                    NOP     0

  23796 17 027723   000000 470400 2                  LDP0    DNT$
        17 027724   400000 236003                    LDQ     -131072,DU
        17 027725   000003 256100                    ORSQ    3,,PR0
PL6.E3A0      #001=COBOLRW File=COBOLRW.:Z8A6TSI                                 SAT 08/09/97 09:25 Page:568

  23797 17 027726   000001 236000 18                 LDQ     1
        17 027727   000003 356100                    ANSQ    3,,PR0

  23798 17 027730   000002 236000 18                 LDQ     2
        17 027731   000003 356100                    ANSQ    3,,PR0

  23799 17 027732   000003 236000 18                 LDQ     3
        17 027733   000003 356100                    ANSQ    3,,PR0

  23800 17 027734   000004 236000 18                 LDQ     4
        17 027735   000003 356100                    ANSQ    3,,PR0

  23801 17 027736   000737 220003                    LDX0    479,DU
        17 027737   000003 440100                    SXL0    3,,PR0

     1104    23803        %NEWRSW;
     1105    23806        %SEARCH (RWD='USAGE',                  RWNO=%RSV_WRD_USAGE);

  23810 17 027740   002731 054000 1                  AOS     NUMBER_OF_RESERVED_WORDS

  23811 17 027741   000005 235007                    LDA     5,DL
        17 027742   000010 755000 6                  STA     LEX_SYMBOL+8

  23812 17 027743   040000 100400                    MLR     fill='040'O
        17 027744   002250 000005 16                 ADSC9   1192                     cn=0,n=5
        17 027745   000011 000504 6                  ADSC9   LEX_SYMBOL+9             cn=0,n=324

  23813 17 027746   000000 631400 18                 EPPR1   0
        17 027747   000000 701000 xent               TSX1    Z8AH$SEARCH_
        17 027750   000000 011000                    NOP     0

  23814 17 027751   000000 470400 2                  LDP0    DNT$
        17 027752   400000 236003                    LDQ     -131072,DU
        17 027753   000003 256100                    ORSQ    3,,PR0

  23815 17 027754   000001 236000 18                 LDQ     1
PL6.E3A0      #001=COBOLRW File=COBOLRW.:Z8A6TSI                                 SAT 08/09/97 09:25 Page:569
        17 027755   000003 356100                    ANSQ    3,,PR0

  23816 17 027756   000002 236000 18                 LDQ     2
        17 027757   000003 356100                    ANSQ    3,,PR0

  23817 17 027760   000003 236000 18                 LDQ     3
        17 027761   000003 356100                    ANSQ    3,,PR0

  23818 17 027762   000004 236000 18                 LDQ     4
        17 027763   000003 356100                    ANSQ    3,,PR0

  23819 17 027764   000740 220003                    LDX0    480,DU
        17 027765   000003 440100                    SXL0    3,,PR0

     1106    23821        %NEWRSW;
     1107    23824        %SEARCH (RWD='USAGE-MODE',             RWNO=%RSV_WRD_USAGE_MODE);

  23828 17 027766   002731 054000 1                  AOS     NUMBER_OF_RESERVED_WORDS

  23829 17 027767   000012 235007                    LDA     10,DL
        17 027770   000010 755000 6                  STA     LEX_SYMBOL+8

  23830 17 027771   040000 100400                    MLR     fill='040'O
        17 027772   002252 000012 16                 ADSC9   1194                     cn=0,n=10
        17 027773   000011 000504 6                  ADSC9   LEX_SYMBOL+9             cn=0,n=324

  23831 17 027774   000000 631400 18                 EPPR1   0
        17 027775   000000 701000 xent               TSX1    Z8AH$SEARCH_
        17 027776   000000 011000                    NOP     0

  23832 17 027777   000000 470400 2                  LDP0    DNT$
        17 030000   400000 236003                    LDQ     -131072,DU
        17 030001   000003 256100                    ORSQ    3,,PR0

  23833 17 030002   000001 236000 18                 LDQ     1
        17 030003   000003 356100                    ANSQ    3,,PR0

PL6.E3A0      #001=COBOLRW File=COBOLRW.:Z8A6TSI                                 SAT 08/09/97 09:25 Page:570
  23834 17 030004   000002 236000 18                 LDQ     2
        17 030005   000003 356100                    ANSQ    3,,PR0

  23835 17 030006   000003 236000 18                 LDQ     3
        17 030007   000003 356100                    ANSQ    3,,PR0

  23836 17 030010   000004 236000 18                 LDQ     4
        17 030011   000003 356100                    ANSQ    3,,PR0

  23837 17 030012   000741 220003                    LDX0    481,DU
        17 030013   000003 440100                    SXL0    3,,PR0

     1108    23839        %NEWRSW;
     1109    23842        %SEARCH (RWD='USE',                    RWNO=%RSV_WRD_USE);

  23846 17 030014   002731 054000 1                  AOS     NUMBER_OF_RESERVED_WORDS

  23847 17 030015   000003 235007                    LDA     3,DL
        17 030016   000010 755000 6                  STA     LEX_SYMBOL+8

  23848 17 030017   040000 100400                    MLR     fill='040'O
        17 030020   002255 000003 16                 ADSC9   1197                     cn=0,n=3
        17 030021   000011 000504 6                  ADSC9   LEX_SYMBOL+9             cn=0,n=324

  23849 17 030022   000000 631400 18                 EPPR1   0
        17 030023   000000 701000 xent               TSX1    Z8AH$SEARCH_
        17 030024   000000 011000                    NOP     0

  23850 17 030025   000000 470400 2                  LDP0    DNT$
        17 030026   400000 236003                    LDQ     -131072,DU
        17 030027   000003 256100                    ORSQ    3,,PR0

  23851 17 030030   000001 236000 18                 LDQ     1
        17 030031   000003 356100                    ANSQ    3,,PR0

  23852 17 030032   000002 236000 18                 LDQ     2
        17 030033   000003 356100                    ANSQ    3,,PR0
PL6.E3A0      #001=COBOLRW File=COBOLRW.:Z8A6TSI                                 SAT 08/09/97 09:25 Page:571

  23853 17 030034   000003 236000 18                 LDQ     3
        17 030035   000003 356100                    ANSQ    3,,PR0

  23854 17 030036   000004 236000 18                 LDQ     4
        17 030037   000003 356100                    ANSQ    3,,PR0

  23855 17 030040   000742 220003                    LDX0    482,DU
        17 030041   000003 440100                    SXL0    3,,PR0

     1110    23857        %NEWRSW;
     1111    23860        %SEARCH (RWD='USER',                   RWNO=%RSV_WRD_USER);

  23864 17 030042   002731 054000 1                  AOS     NUMBER_OF_RESERVED_WORDS

  23865 17 030043   000004 235007                    LDA     4,DL
        17 030044   000010 755000 6                  STA     LEX_SYMBOL+8

  23866 17 030045   040000 100400                    MLR     fill='040'O
        17 030046   002256 000004 16                 ADSC9   1198                     cn=0,n=4
        17 030047   000011 000504 6                  ADSC9   LEX_SYMBOL+9             cn=0,n=324

  23867 17 030050   000000 631400 18                 EPPR1   0
        17 030051   000000 701000 xent               TSX1    Z8AH$SEARCH_
        17 030052   000000 011000                    NOP     0

  23868 17 030053   000000 470400 2                  LDP0    DNT$
        17 030054   400000 236003                    LDQ     -131072,DU
        17 030055   000003 256100                    ORSQ    3,,PR0

  23869 17 030056   000001 236000 18                 LDQ     1
        17 030057   000003 356100                    ANSQ    3,,PR0

  23870 17 030060   000002 236000 18                 LDQ     2
        17 030061   000003 356100                    ANSQ    3,,PR0

  23871 17 030062   000003 236000 18                 LDQ     3
PL6.E3A0      #001=COBOLRW File=COBOLRW.:Z8A6TSI                                 SAT 08/09/97 09:25 Page:572
        17 030063   000003 356100                    ANSQ    3,,PR0

  23872 17 030064   000004 236000 18                 LDQ     4
        17 030065   000003 356100                    ANSQ    3,,PR0

  23873 17 030066   000743 220003                    LDX0    483,DU
        17 030067   000003 440100                    SXL0    3,,PR0

     1112    23875        %NEWRSW;
     1113    23878        %SEARCH (RWD='USING',                  RWNO=%RSV_WRD_USING);

  23882 17 030070   002731 054000 1                  AOS     NUMBER_OF_RESERVED_WORDS

  23883 17 030071   000005 235007                    LDA     5,DL
        17 030072   000010 755000 6                  STA     LEX_SYMBOL+8

  23884 17 030073   040000 100400                    MLR     fill='040'O
        17 030074   002257 000005 16                 ADSC9   1199                     cn=0,n=5
        17 030075   000011 000504 6                  ADSC9   LEX_SYMBOL+9             cn=0,n=324

  23885 17 030076   000000 631400 18                 EPPR1   0
        17 030077   000000 701000 xent               TSX1    Z8AH$SEARCH_
        17 030100   000000 011000                    NOP     0

  23886 17 030101   000000 470400 2                  LDP0    DNT$
        17 030102   400000 236003                    LDQ     -131072,DU
        17 030103   000003 256100                    ORSQ    3,,PR0

  23887 17 030104   000001 236000 18                 LDQ     1
        17 030105   000003 356100                    ANSQ    3,,PR0

  23888 17 030106   000002 236000 18                 LDQ     2
        17 030107   000003 356100                    ANSQ    3,,PR0

  23889 17 030110   000003 236000 18                 LDQ     3
        17 030111   000003 356100                    ANSQ    3,,PR0

PL6.E3A0      #001=COBOLRW File=COBOLRW.:Z8A6TSI                                 SAT 08/09/97 09:25 Page:573
  23890 17 030112   000004 236000 18                 LDQ     4
        17 030113   000003 356100                    ANSQ    3,,PR0

  23891 17 030114   000744 220003                    LDX0    484,DU
        17 030115   000003 440100                    SXL0    3,,PR0

     1114    23893        %NEWRSW;
     1115    23896        %SEARCH (RWD='VALUE',                  RWNO=%RSV_WRD_VALUE);

  23900 17 030116   002731 054000 1                  AOS     NUMBER_OF_RESERVED_WORDS

  23901 17 030117   000005 235007                    LDA     5,DL
        17 030120   000010 755000 6                  STA     LEX_SYMBOL+8

  23902 17 030121   040000 100400                    MLR     fill='040'O
        17 030122   002261 000005 16                 ADSC9   1201                     cn=0,n=5
        17 030123   000011 000504 6                  ADSC9   LEX_SYMBOL+9             cn=0,n=324

  23903 17 030124   000000 631400 18                 EPPR1   0
        17 030125   000000 701000 xent               TSX1    Z8AH$SEARCH_
        17 030126   000000 011000                    NOP     0

  23904 17 030127   000000 470400 2                  LDP0    DNT$
        17 030130   400000 236003                    LDQ     -131072,DU
        17 030131   000003 256100                    ORSQ    3,,PR0

  23905 17 030132   000001 236000 18                 LDQ     1
        17 030133   000003 356100                    ANSQ    3,,PR0

  23906 17 030134   000002 236000 18                 LDQ     2
        17 030135   000003 356100                    ANSQ    3,,PR0

  23907 17 030136   000003 236000 18                 LDQ     3
        17 030137   000003 356100                    ANSQ    3,,PR0

  23908 17 030140   000004 236000 18                 LDQ     4
        17 030141   000003 356100                    ANSQ    3,,PR0
PL6.E3A0      #001=COBOLRW File=COBOLRW.:Z8A6TSI                                 SAT 08/09/97 09:25 Page:574

  23909 17 030142   000745 220003                    LDX0    485,DU
        17 030143   000003 440100                    SXL0    3,,PR0

     1116    23911        %NEWRSW;
     1117    23914        %SEARCH (RWD='VALUES',                 RWNO=%RSV_WRD_VALUES);

  23918 17 030144   002731 054000 1                  AOS     NUMBER_OF_RESERVED_WORDS

  23919 17 030145   000006 235007                    LDA     6,DL
        17 030146   000010 755000 6                  STA     LEX_SYMBOL+8

  23920 17 030147   040000 100400                    MLR     fill='040'O
        17 030150   002263 000006 16                 ADSC9   1203                     cn=0,n=6
        17 030151   000011 000504 6                  ADSC9   LEX_SYMBOL+9             cn=0,n=324

  23921 17 030152   000000 631400 18                 EPPR1   0
        17 030153   000000 701000 xent               TSX1    Z8AH$SEARCH_
        17 030154   000000 011000                    NOP     0

  23922 17 030155   000000 470400 2                  LDP0    DNT$
        17 030156   400000 236003                    LDQ     -131072,DU
        17 030157   000003 256100                    ORSQ    3,,PR0

  23923 17 030160   000001 236000 18                 LDQ     1
        17 030161   000003 356100                    ANSQ    3,,PR0

  23924 17 030162   000002 236000 18                 LDQ     2
        17 030163   000003 356100                    ANSQ    3,,PR0

  23925 17 030164   000003 236000 18                 LDQ     3
        17 030165   000003 356100                    ANSQ    3,,PR0

  23926 17 030166   000004 236000 18                 LDQ     4
        17 030167   000003 356100                    ANSQ    3,,PR0

  23927 17 030170   000746 220003                    LDX0    486,DU
PL6.E3A0      #001=COBOLRW File=COBOLRW.:Z8A6TSI                                 SAT 08/09/97 09:25 Page:575
        17 030171   000003 440100                    SXL0    3,,PR0

     1118    23929        %NEWRSW;
     1119    23932        %SEARCH (RWD='VARYING',                RWNO=%RSV_WRD_VARYING);

  23936 17 030172   002731 054000 1                  AOS     NUMBER_OF_RESERVED_WORDS

  23937 17 030173   000007 235007                    LDA     7,DL
        17 030174   000010 755000 6                  STA     LEX_SYMBOL+8

  23938 17 030175   040000 100400                    MLR     fill='040'O
        17 030176   002265 000007 16                 ADSC9   1205                     cn=0,n=7
        17 030177   000011 000504 6                  ADSC9   LEX_SYMBOL+9             cn=0,n=324

  23939 17 030200   000000 631400 18                 EPPR1   0
        17 030201   000000 701000 xent               TSX1    Z8AH$SEARCH_
        17 030202   000000 011000                    NOP     0

  23940 17 030203   000000 470400 2                  LDP0    DNT$
        17 030204   400000 236003                    LDQ     -131072,DU
        17 030205   000003 256100                    ORSQ    3,,PR0

  23941 17 030206   000001 236000 18                 LDQ     1
        17 030207   000003 356100                    ANSQ    3,,PR0

  23942 17 030210   000002 236000 18                 LDQ     2
        17 030211   000003 356100                    ANSQ    3,,PR0

  23943 17 030212   000003 236000 18                 LDQ     3
        17 030213   000003 356100                    ANSQ    3,,PR0

  23944 17 030214   000004 236000 18                 LDQ     4
        17 030215   000003 356100                    ANSQ    3,,PR0

  23945 17 030216   000747 220003                    LDX0    487,DU
        17 030217   000003 440100                    SXL0    3,,PR0

PL6.E3A0      #001=COBOLRW File=COBOLRW.:Z8A6TSI                                 SAT 08/09/97 09:25 Page:576
     1120    23947        %NEWRSW;
     1121    23950        %SEARCH (RWD='VFC',                    RWNO=%RSV_WRD_VFC);

  23954 17 030220   002731 054000 1                  AOS     NUMBER_OF_RESERVED_WORDS

  23955 17 030221   000003 235007                    LDA     3,DL
        17 030222   000010 755000 6                  STA     LEX_SYMBOL+8

  23956 17 030223   040000 100400                    MLR     fill='040'O
        17 030224   002267 000003 16                 ADSC9   1207                     cn=0,n=3
        17 030225   000011 000504 6                  ADSC9   LEX_SYMBOL+9             cn=0,n=324

  23957 17 030226   000000 631400 18                 EPPR1   0
        17 030227   000000 701000 xent               TSX1    Z8AH$SEARCH_
        17 030230   000000 011000                    NOP     0

  23958 17 030231   000000 470400 2                  LDP0    DNT$
        17 030232   400000 236003                    LDQ     -131072,DU
        17 030233   000003 256100                    ORSQ    3,,PR0

  23959 17 030234   000001 236000 18                 LDQ     1
        17 030235   000003 356100                    ANSQ    3,,PR0

  23960 17 030236   000002 236000 18                 LDQ     2
        17 030237   000003 356100                    ANSQ    3,,PR0

  23961 17 030240   000003 236000 18                 LDQ     3
        17 030241   000003 356100                    ANSQ    3,,PR0

  23962 17 030242   000004 236000 18                 LDQ     4
        17 030243   000003 356100                    ANSQ    3,,PR0

  23963 17 030244   000750 220003                    LDX0    488,DU
        17 030245   000003 440100                    SXL0    3,,PR0

     1122    23965        %NEWRSW;
     1123    23968        %SEARCH (RWD='VLR',                    RWNO=%RSV_WRD_VLR);
PL6.E3A0      #001=COBOLRW File=COBOLRW.:Z8A6TSI                                 SAT 08/09/97 09:25 Page:577

  23972 17 030246   002731 054000 1                  AOS     NUMBER_OF_RESERVED_WORDS

  23973 17 030247   000003 235007                    LDA     3,DL
        17 030250   000010 755000 6                  STA     LEX_SYMBOL+8

  23974 17 030251   040000 100400                    MLR     fill='040'O
        17 030252   002270 000003 16                 ADSC9   1208                     cn=0,n=3
        17 030253   000011 000504 6                  ADSC9   LEX_SYMBOL+9             cn=0,n=324

  23975 17 030254   000000 631400 18                 EPPR1   0
        17 030255   000000 701000 xent               TSX1    Z8AH$SEARCH_
        17 030256   000000 011000                    NOP     0

  23976 17 030257   000000 470400 2                  LDP0    DNT$
        17 030260   400000 236003                    LDQ     -131072,DU
        17 030261   000003 256100                    ORSQ    3,,PR0

  23977 17 030262   000001 236000 18                 LDQ     1
        17 030263   000003 356100                    ANSQ    3,,PR0

  23978 17 030264   000002 236000 18                 LDQ     2
        17 030265   000003 356100                    ANSQ    3,,PR0

  23979 17 030266   000003 236000 18                 LDQ     3
        17 030267   000003 356100                    ANSQ    3,,PR0

  23980 17 030270   000004 236000 18                 LDQ     4
        17 030271   000003 356100                    ANSQ    3,,PR0

  23981 17 030272   000751 220003                    LDX0    489,DU
        17 030273   000003 440100                    SXL0    3,,PR0

     1124    23983        %NEWRSW;
     1125    23986        %SEARCH (RWD='WHEN',                   RWNO=%RSV_WRD_WHEN);

  23990 17 030274   002731 054000 1                  AOS     NUMBER_OF_RESERVED_WORDS
PL6.E3A0      #001=COBOLRW File=COBOLRW.:Z8A6TSI                                 SAT 08/09/97 09:25 Page:578

  23991 17 030275   000004 235007                    LDA     4,DL
        17 030276   000010 755000 6                  STA     LEX_SYMBOL+8

  23992 17 030277   040000 100400                    MLR     fill='040'O
        17 030300   002271 000004 16                 ADSC9   1209                     cn=0,n=4
        17 030301   000011 000504 6                  ADSC9   LEX_SYMBOL+9             cn=0,n=324

  23993 17 030302   000000 631400 18                 EPPR1   0
        17 030303   000000 701000 xent               TSX1    Z8AH$SEARCH_
        17 030304   000000 011000                    NOP     0

  23994 17 030305   000000 470400 2                  LDP0    DNT$
        17 030306   400000 236003                    LDQ     -131072,DU
        17 030307   000003 256100                    ORSQ    3,,PR0

  23995 17 030310   000001 236000 18                 LDQ     1
        17 030311   000003 356100                    ANSQ    3,,PR0

  23996 17 030312   000002 236000 18                 LDQ     2
        17 030313   000003 356100                    ANSQ    3,,PR0

  23997 17 030314   000003 236000 18                 LDQ     3
        17 030315   000003 356100                    ANSQ    3,,PR0

  23998 17 030316   000004 236000 18                 LDQ     4
        17 030317   000003 356100                    ANSQ    3,,PR0

  23999 17 030320   000752 220003                    LDX0    490,DU
        17 030321   000003 440100                    SXL0    3,,PR0

     1126    24001        %NEWRSW;
     1127    24004        %SEARCH (RWD='WITH',                   RWNO=%RSV_WRD_WITH);

  24008 17 030322   002731 054000 1                  AOS     NUMBER_OF_RESERVED_WORDS

  24009 17 030323   000004 235007                    LDA     4,DL
PL6.E3A0      #001=COBOLRW File=COBOLRW.:Z8A6TSI                                 SAT 08/09/97 09:25 Page:579
        17 030324   000010 755000 6                  STA     LEX_SYMBOL+8

  24010 17 030325   040000 100400                    MLR     fill='040'O
        17 030326   002272 000004 16                 ADSC9   1210                     cn=0,n=4
        17 030327   000011 000504 6                  ADSC9   LEX_SYMBOL+9             cn=0,n=324

  24011 17 030330   000000 631400 18                 EPPR1   0
        17 030331   000000 701000 xent               TSX1    Z8AH$SEARCH_
        17 030332   000000 011000                    NOP     0

  24012 17 030333   000000 470400 2                  LDP0    DNT$
        17 030334   400000 236003                    LDQ     -131072,DU
        17 030335   000003 256100                    ORSQ    3,,PR0

  24013 17 030336   000001 236000 18                 LDQ     1
        17 030337   000003 356100                    ANSQ    3,,PR0

  24014 17 030340   000002 236000 18                 LDQ     2
        17 030341   000003 356100                    ANSQ    3,,PR0

  24015 17 030342   000003 236000 18                 LDQ     3
        17 030343   000003 356100                    ANSQ    3,,PR0

  24016 17 030344   000004 236000 18                 LDQ     4
        17 030345   000003 356100                    ANSQ    3,,PR0

  24017 17 030346   000753 220003                    LDX0    491,DU
        17 030347   000003 440100                    SXL0    3,,PR0

     1128    24019        %NEWRSW;
     1129    24022        %SEARCH (RWD='WITHIN',                 RWNO=%RSV_WRD_WITHIN);

  24026 17 030350   002731 054000 1                  AOS     NUMBER_OF_RESERVED_WORDS

  24027 17 030351   000006 235007                    LDA     6,DL
        17 030352   000010 755000 6                  STA     LEX_SYMBOL+8

PL6.E3A0      #001=COBOLRW File=COBOLRW.:Z8A6TSI                                 SAT 08/09/97 09:25 Page:580
  24028 17 030353   040000 100400                    MLR     fill='040'O
        17 030354   002273 000006 16                 ADSC9   1211                     cn=0,n=6
        17 030355   000011 000504 6                  ADSC9   LEX_SYMBOL+9             cn=0,n=324

  24029 17 030356   000000 631400 18                 EPPR1   0
        17 030357   000000 701000 xent               TSX1    Z8AH$SEARCH_
        17 030360   000000 011000                    NOP     0

  24030 17 030361   000000 470400 2                  LDP0    DNT$
        17 030362   400000 236003                    LDQ     -131072,DU
        17 030363   000003 256100                    ORSQ    3,,PR0

  24031 17 030364   000001 236000 18                 LDQ     1
        17 030365   000003 356100                    ANSQ    3,,PR0

  24032 17 030366   000002 236000 18                 LDQ     2
        17 030367   000003 356100                    ANSQ    3,,PR0

  24033 17 030370   000003 236000 18                 LDQ     3
        17 030371   000003 356100                    ANSQ    3,,PR0

  24034 17 030372   000004 236000 18                 LDQ     4
        17 030373   000003 356100                    ANSQ    3,,PR0

  24035 17 030374   000754 220003                    LDX0    492,DU
        17 030375   000003 440100                    SXL0    3,,PR0

     1130    24037        %NEWRSW;
     1131    24040        %SEARCH (RWD='WITH DATA',              RWNO=%RSV_WRD_WITH_DATA);

  24044 17 030376   002731 054000 1                  AOS     NUMBER_OF_RESERVED_WORDS

  24045 17 030377   000011 235007                    LDA     9,DL
        17 030400   000010 755000 6                  STA     LEX_SYMBOL+8

  24046 17 030401   040000 100400                    MLR     fill='040'O
        17 030402   002275 000011 16                 ADSC9   1213                     cn=0,n=9
PL6.E3A0      #001=COBOLRW File=COBOLRW.:Z8A6TSI                                 SAT 08/09/97 09:25 Page:581
        17 030403   000011 000504 6                  ADSC9   LEX_SYMBOL+9             cn=0,n=324

  24047 17 030404   000000 631400 18                 EPPR1   0
        17 030405   000000 701000 xent               TSX1    Z8AH$SEARCH_
        17 030406   000000 011000                    NOP     0

  24048 17 030407   000000 470400 2                  LDP0    DNT$
        17 030410   400000 236003                    LDQ     -131072,DU
        17 030411   000003 256100                    ORSQ    3,,PR0

  24049 17 030412   000001 236000 18                 LDQ     1
        17 030413   000003 356100                    ANSQ    3,,PR0

  24050 17 030414   000002 236000 18                 LDQ     2
        17 030415   000003 356100                    ANSQ    3,,PR0

  24051 17 030416   000003 236000 18                 LDQ     3
        17 030417   000003 356100                    ANSQ    3,,PR0

  24052 17 030420   000004 236000 18                 LDQ     4
        17 030421   000003 356100                    ANSQ    3,,PR0

  24053 17 030422   000755 220003                    LDX0    493,DU
        17 030423   000003 440100                    SXL0    3,,PR0

     1132    24055        %NEWRSW;
     1133    24058        %SEARCH (RWD='WORDS',                  RWNO=%RSV_WRD_WORDS);

  24062 17 030424   002731 054000 1                  AOS     NUMBER_OF_RESERVED_WORDS

  24063 17 030425   000005 235007                    LDA     5,DL
        17 030426   000010 755000 6                  STA     LEX_SYMBOL+8

  24064 17 030427   040000 100400                    MLR     fill='040'O
        17 030430   002300 000005 16                 ADSC9   1216                     cn=0,n=5
        17 030431   000011 000504 6                  ADSC9   LEX_SYMBOL+9             cn=0,n=324

PL6.E3A0      #001=COBOLRW File=COBOLRW.:Z8A6TSI                                 SAT 08/09/97 09:25 Page:582
  24065 17 030432   000000 631400 18                 EPPR1   0
        17 030433   000000 701000 xent               TSX1    Z8AH$SEARCH_
        17 030434   000000 011000                    NOP     0

  24066 17 030435   000000 470400 2                  LDP0    DNT$
        17 030436   400000 236003                    LDQ     -131072,DU
        17 030437   000003 256100                    ORSQ    3,,PR0

  24067 17 030440   000001 236000 18                 LDQ     1
        17 030441   000003 356100                    ANSQ    3,,PR0

  24068 17 030442   000002 236000 18                 LDQ     2
        17 030443   000003 356100                    ANSQ    3,,PR0

  24069 17 030444   000003 236000 18                 LDQ     3
        17 030445   000003 356100                    ANSQ    3,,PR0

  24070 17 030446   000004 236000 18                 LDQ     4
        17 030447   000003 356100                    ANSQ    3,,PR0

  24071 17 030450   000756 220003                    LDX0    494,DU
        17 030451   000003 440100                    SXL0    3,,PR0

     1134    24073        %NEWRSW;
     1135    24076        %SEARCH (RWD='WORKING-STORAGE',        RWNO=%RSV_WRD_WORKING_STORAGE, MUST_AREAA=
             24076            TRUE);

  24080 17 030452   002731 054000 1                  AOS     NUMBER_OF_RESERVED_WORDS

  24081 17 030453   000017 235007                    LDA     15,DL
        17 030454   000010 755000 6                  STA     LEX_SYMBOL+8

  24082 17 030455   040000 100400                    MLR     fill='040'O
        17 030456   002302 000017 16                 ADSC9   1218                     cn=0,n=15
        17 030457   000011 000504 6                  ADSC9   LEX_SYMBOL+9             cn=0,n=324

  24083 17 030460   000000 631400 18                 EPPR1   0
PL6.E3A0      #001=COBOLRW File=COBOLRW.:Z8A6TSI                                 SAT 08/09/97 09:25 Page:583
        17 030461   000000 701000 xent               TSX1    Z8AH$SEARCH_
        17 030462   000000 011000                    NOP     0

  24084 17 030463   000000 470400 2                  LDP0    DNT$
        17 030464   400000 236003                    LDQ     -131072,DU
        17 030465   000003 256100                    ORSQ    3,,PR0

  24085 17 030466   000001 236000 18                 LDQ     1
        17 030467   000003 356100                    ANSQ    3,,PR0

  24086 17 030470   000002 236000 18                 LDQ     2
        17 030471   000003 356100                    ANSQ    3,,PR0

  24087 17 030472   000040 236003                    LDQ     32,DU
        17 030473   000003 256100                    ORSQ    3,,PR0

  24088 17 030474   000004 236000 18                 LDQ     4
        17 030475   000003 356100                    ANSQ    3,,PR0

  24089 17 030476   000757 220003                    LDX0    495,DU
        17 030477   000003 440100                    SXL0    3,,PR0

     1136    24091        %NEWRSW;
     1137    24094        %SEARCH (RWD='WRITE',                  RWNO=%RSV_WRD_WRITE);

  24098 17 030500   002731 054000 1                  AOS     NUMBER_OF_RESERVED_WORDS

  24099 17 030501   000005 235007                    LDA     5,DL
        17 030502   000010 755000 6                  STA     LEX_SYMBOL+8

  24100 17 030503   040000 100400                    MLR     fill='040'O
        17 030504   002306 000005 16                 ADSC9   1222                     cn=0,n=5
        17 030505   000011 000504 6                  ADSC9   LEX_SYMBOL+9             cn=0,n=324

  24101 17 030506   000000 631400 18                 EPPR1   0
        17 030507   000000 701000 xent               TSX1    Z8AH$SEARCH_
        17 030510   000000 011000                    NOP     0
PL6.E3A0      #001=COBOLRW File=COBOLRW.:Z8A6TSI                                 SAT 08/09/97 09:25 Page:584

  24102 17 030511   000000 470400 2                  LDP0    DNT$
        17 030512   400000 236003                    LDQ     -131072,DU
        17 030513   000003 256100                    ORSQ    3,,PR0

  24103 17 030514   000001 236000 18                 LDQ     1
        17 030515   000003 356100                    ANSQ    3,,PR0

  24104 17 030516   000002 236000 18                 LDQ     2
        17 030517   000003 356100                    ANSQ    3,,PR0

  24105 17 030520   000003 236000 18                 LDQ     3
        17 030521   000003 356100                    ANSQ    3,,PR0

  24106 17 030522   000004 236000 18                 LDQ     4
        17 030523   000003 356100                    ANSQ    3,,PR0

  24107 17 030524   000760 220003                    LDX0    496,DU
        17 030525   000003 440100                    SXL0    3,,PR0

     1138    24109        %NEWRSW;
     1139    24112        %SEARCH (RWD='ZEROES',                 RWNO=%RSV_WRD_ZEROES, FIG_CONSTANT=TRUE);

  24116 17 030526   002731 054000 1                  AOS     NUMBER_OF_RESERVED_WORDS

  24117 17 030527   000006 235007                    LDA     6,DL
        17 030530   000010 755000 6                  STA     LEX_SYMBOL+8

  24118 17 030531   040000 100400                    MLR     fill='040'O
        17 030532   002310 000006 16                 ADSC9   1224                     cn=0,n=6
        17 030533   000011 000504 6                  ADSC9   LEX_SYMBOL+9             cn=0,n=324

  24119 17 030534   000000 631400 18                 EPPR1   0
        17 030535   000000 701000 xent               TSX1    Z8AH$SEARCH_
        17 030536   000000 011000                    NOP     0

  24120 17 030537   000000 470400 2                  LDP0    DNT$
PL6.E3A0      #001=COBOLRW File=COBOLRW.:Z8A6TSI                                 SAT 08/09/97 09:25 Page:585
        17 030540   400000 236003                    LDQ     -131072,DU
        17 030541   000003 256100                    ORSQ    3,,PR0

  24121 17 030542   000001 236000 18                 LDQ     1
        17 030543   000003 356100                    ANSQ    3,,PR0

  24122 17 030544   000002 236000 18                 LDQ     2
        17 030545   000003 356100                    ANSQ    3,,PR0

  24123 17 030546   000003 236000 18                 LDQ     3
        17 030547   000003 356100                    ANSQ    3,,PR0

  24124 17 030550   002000 236003                    LDQ     1024,DU
        17 030551   000003 256100                    ORSQ    3,,PR0

  24125 17 030552   000761 220003                    LDX0    497,DU
        17 030553   000003 440100                    SXL0    3,,PR0

     1140    24127        %SEARCH (RWD='ZERO',                   RWNO=%RSV_WRD_ZEROES, FIG_CONSTANT=TRUE);

  24131 17 030554   002731 054000 1                  AOS     NUMBER_OF_RESERVED_WORDS

  24132 17 030555   000004 235007                    LDA     4,DL
        17 030556   000010 755000 6                  STA     LEX_SYMBOL+8

  24133 17 030557   040000 100400                    MLR     fill='040'O
        17 030560   002310 000004 16                 ADSC9   1224                     cn=0,n=4
        17 030561   000011 000504 6                  ADSC9   LEX_SYMBOL+9             cn=0,n=324

  24134 17 030562   000000 631400 18                 EPPR1   0
        17 030563   000000 701000 xent               TSX1    Z8AH$SEARCH_
        17 030564   000000 011000                    NOP     0

  24135 17 030565   000000 470400 2                  LDP0    DNT$
        17 030566   400000 236003                    LDQ     -131072,DU
        17 030567   000003 256100                    ORSQ    3,,PR0

PL6.E3A0      #001=COBOLRW File=COBOLRW.:Z8A6TSI                                 SAT 08/09/97 09:25 Page:586
  24136 17 030570   000001 236000 18                 LDQ     1
        17 030571   000003 356100                    ANSQ    3,,PR0

  24137 17 030572   000002 236000 18                 LDQ     2
        17 030573   000003 356100                    ANSQ    3,,PR0

  24138 17 030574   000003 236000 18                 LDQ     3
        17 030575   000003 356100                    ANSQ    3,,PR0

  24139 17 030576   002000 236003                    LDQ     1024,DU
        17 030577   000003 256100                    ORSQ    3,,PR0

  24140 17 030600   000761 220003                    LDX0    497,DU
        17 030601   000003 440100                    SXL0    3,,PR0

     1141    24142        %SEARCH (RWD='ZEROS',                  RWNO=%RSV_WRD_ZEROES, FIG_CONSTANT=TRUE);

  24146 17 030602   002731 054000 1                  AOS     NUMBER_OF_RESERVED_WORDS

  24147 17 030603   000005 235007                    LDA     5,DL
        17 030604   000010 755000 6                  STA     LEX_SYMBOL+8

  24148 17 030605   040000 100400                    MLR     fill='040'O
        17 030606   002312 000005 16                 ADSC9   1226                     cn=0,n=5
        17 030607   000011 000504 6                  ADSC9   LEX_SYMBOL+9             cn=0,n=324

  24149 17 030610   000000 631400 18                 EPPR1   0
        17 030611   000000 701000 xent               TSX1    Z8AH$SEARCH_
        17 030612   000000 011000                    NOP     0

  24150 17 030613   000000 470400 2                  LDP0    DNT$
        17 030614   400000 236003                    LDQ     -131072,DU
        17 030615   000003 256100                    ORSQ    3,,PR0

  24151 17 030616   000001 236000 18                 LDQ     1
        17 030617   000003 356100                    ANSQ    3,,PR0

PL6.E3A0      #001=COBOLRW File=COBOLRW.:Z8A6TSI                                 SAT 08/09/97 09:25 Page:587
  24152 17 030620   000002 236000 18                 LDQ     2
        17 030621   000003 356100                    ANSQ    3,,PR0

  24153 17 030622   000003 236000 18                 LDQ     3
        17 030623   000003 356100                    ANSQ    3,,PR0

  24154 17 030624   002000 236003                    LDQ     1024,DU
        17 030625   000003 256100                    ORSQ    3,,PR0

  24155 17 030626   000761 220003                    LDX0    497,DU
        17 030627   000003 440100                    SXL0    3,,PR0

     1142    24157
     1143    24158
     1144    24159        %EJECT;
PL6.E3A0      #001=COBOLRW File=COBOLRW.:Z8A6TSI                                 SAT 08/09/97 09:25 Page:588
     1145    24160    1   OUT_DCBN = DCBNUM(M$OU);

  24160 17 030630   000000 236007 xsym               LDQ     M$OU,DL
        17 030631   000000 756000 11                 STQ     OUT_DCBN

     1146    24161
     1147    24162
     1148    24163        %OUT_STR(S="'/* Number of reserved words = '");

  24164 17 030632   000007 630400 18                 EPPR0   7
        17 030633   000005 631400 18                 EPPR1   5
        17 030634   000000 701000 xent               TSX1    OUT_STR
        17 030635   000000 011000                    NOP     0

     1149    24166    1   CALL OUT_DEC(NUMBER_OF_RESERVED_WORDS);

  24166 17 030636   000012 630400 18                 EPPR0   10
        17 030637   000011 631400 18                 EPPR1   9
        17 030640   000000 701000 xent               TSX1    OUT_DEC
        17 030641   000000 011000                    NOP     0

     1150    24167        %OUT_STR(S="' */'");

  24168 17 030642   000014 630400 18                 EPPR0   12
        17 030643   000005 631400 18                 EPPR1   5
        17 030644   000000 701000 xent               TSX1    OUT_STR
        17 030645   000000 011000                    NOP     0

     1151    24170    1   CALL FLUSH;

  24170 17 030646   000000 631400 18                 EPPR1   0
        17 030647   000000 701000 xent               TSX1    FLUSH
        17 030650   000000 011000                    NOP     0

     1152    24171
     1153    24172    1   BUCKETS_USED = 0;

PL6.E3A0      #001=COBOLRW File=COBOLRW.:Z8A6TSI                                 SAT 08/09/97 09:25 Page:589
  24172 17 030651   200003 450100                    STZ     BUCKETS_USED,,AUTO

     1154    24173    2   DO I = 0 TO %(NUMBER_DNT_BUCKETS - 1);

  24173 17 030652   200004 450100                    STZ     I,,AUTO

     1155    24174    2     IF DNT_BUCKETS(I) ~= ADDR(NIL) THEN

  24174 17 030653   200004 720100                    LXL0    I,,AUTO
        17 030654   000560 236010 1                  LDQ     DNT_BUCKETS,X0
        17 030655   000016 116000 18                 CMPQ    14
        17 030656   030660 600000 17                 TZE     s:24176

     1156    24175    2       BUCKETS_USED = BUCKETS_USED + 1;

  24175 17 030657   200003 054100                    AOS     BUCKETS_USED,,AUTO

     1157    24176    2   END;

  24176 17 030660   200004 235100                    LDA     I,,AUTO
        17 030661   000001 035007                    ADLA    1,DL
        17 030662   200004 755100                    STA     I,,AUTO
        17 030663   002151 115007                    CMPA    1129,DL
        17 030664   030653 602000 17                 TNC     s:24174

     1158    24177
     1159    24178        %OUT_STR(S="'/* Number of buckets used = '");

  24179 17 030665   000020 630400 18                 EPPR0   16
        17 030666   000005 631400 18                 EPPR1   5
        17 030667   000000 701000 xent               TSX1    OUT_STR
        17 030670   000000 011000                    NOP     0

     1160    24181    1   CALL OUT_DEC(BUCKETS_USED);

  24181 17 030671   200003 630500                    EPPR0   BUCKETS_USED,,AUTO
        17 030672   200006 450500                    STP0    I+2,,AUTO
PL6.E3A0      #001=COBOLRW File=COBOLRW.:Z8A6TSI                                 SAT 08/09/97 09:25 Page:590
        17 030673   200006 630500                    EPPR0   I+2,,AUTO
        17 030674   000011 631400 18                 EPPR1   9
        17 030675   000000 701000 xent               TSX1    OUT_DEC
        17 030676   000000 011000                    NOP     0

     1161    24182        %OUT_STR(S="' */'");

  24183 17 030677   000014 630400 18                 EPPR0   12
        17 030700   000005 631400 18                 EPPR1   5
        17 030701   000000 701000 xent               TSX1    OUT_STR
        17 030702   000000 011000                    NOP     0

     1162    24185    1   CALL FLUSH;

  24185 17 030703   000000 631400 18                 EPPR1   0
        17 030704   000000 701000 xent               TSX1    FLUSH
        17 030705   000000 011000                    NOP     0

     1163    24186
     1164    24187        %OUT_STR(S="'/* Percentage = '");

  24188 17 030706   000023 630400 18                 EPPR0   19
        17 030707   000005 631400 18                 EPPR1   5
        17 030710   000000 701000 xent               TSX1    OUT_STR
        17 030711   000000 011000                    NOP     0

     1165    24190    1   CALL OUT_DEC(BUCKETS_USED*100/NUMBER_OF_RESERVED_WORDS);

  24190 17 030712   200003 236100                    LDQ     BUCKETS_USED,,AUTO
        17 030713   000144 402007                    MPY     100,DL
        17 030714   002731 506000 1                  DIV     NUMBER_OF_RESERVED_WORDS
        17 030715   200006 756100                    STQ     I+2,,AUTO
        17 030716   200006 630500                    EPPR0   I+2,,AUTO
        17 030717   200007 450500                    STP0    I+3,,AUTO
        17 030720   200007 630500                    EPPR0   I+3,,AUTO
        17 030721   000011 631400 18                 EPPR1   9
        17 030722   000000 701000 xent               TSX1    OUT_DEC
PL6.E3A0      #001=COBOLRW File=COBOLRW.:Z8A6TSI                                 SAT 08/09/97 09:25 Page:591
        17 030723   000000 011000                    NOP     0

     1166    24191        %OUT_STR(S="' */'");

  24192 17 030724   000014 630400 18                 EPPR0   12
        17 030725   000005 631400 18                 EPPR1   5
        17 030726   000000 701000 xent               TSX1    OUT_STR
        17 030727   000000 011000                    NOP     0

     1167    24194    1   CALL FLUSH;

  24194 17 030730   000000 631400 18                 EPPR1   0
        17 030731   000000 701000 xent               TSX1    FLUSH
        17 030732   000000 011000                    NOP     0

     1168    24195
     1169    24196
     1170    24197    1   NUMBER_OF_RESERVED_WORDS = 0;

  24197 17 030733   002731 450000 1                  STZ     NUMBER_OF_RESERVED_WORDS

     1171    24198
     1172    24199        %OUTLINE(S="' '");

  24200 17 030734   000027 630400 18                 EPPR0   23
        17 030735   000005 631400 18                 EPPR1   5
        17 030736   000000 701000 xent               TSX1    OUT_STR
        17 030737   000000 011000                    NOP     0

  24201 17 030740   000000 631400 18                 EPPR1   0
        17 030741   000000 701000 xent               TSX1    FLUSH
        17 030742   000000 011000                    NOP     0

     1173    24203
     1174    24204    2   DO I = 0 TO %(NUMBER_DNT_BUCKETS - 1);

  24204 17 030743   200004 450100                    STZ     I,,AUTO
PL6.E3A0      #001=COBOLRW File=COBOLRW.:Z8A6TSI                                 SAT 08/09/97 09:25 Page:592

     1175    24205
     1176    24206    2     DNT$ = DNT_BUCKETS(I);

  24206 17 030744   200004 720100                    LXL0    I,,AUTO
        17 030745   000560 236010 1                  LDQ     DNT_BUCKETS,X0
        17 030746   000000 756000 2                  STQ     DNT$

     1177    24207
     1178    24208    3     DO WHILE DNT$ ~= ADDR(NIL);

  24208 17 030747   031321 710000 17                 TRA     s:24319

     1179    24209
     1180    24210            %OUT_STR(S="'DCL 1 RSW'");

  24211 17 030750   000032 630400 18                 EPPR0   26
        17 030751   000005 631400 18                 EPPR1   5
        17 030752   000000 701000 xent               TSX1    OUT_STR
        17 030753   000000 011000                    NOP     0

     1181    24213    3       CALL OUT_DEC(BINBIT(DNT$ -> DNT.RW_NO,36));

  24213 17 030754   000000 470400 2                  LDP0    DNT$
        17 030755   000003 236100                    LDQ     3,,PR0
        17 030756   777777 376007                    ANQ     -1,DL
        17 030757   200006 756100                    STQ     I+2,,AUTO
        17 030760   200006 631500                    EPPR1   I+2,,AUTO
        17 030761   200010 451500                    STP1    I+4,,AUTO
        17 030762   200010 630500                    EPPR0   I+4,,AUTO
        17 030763   000011 631400 18                 EPPR1   9
        17 030764   000000 701000 xent               TSX1    OUT_DEC
        17 030765   000000 011000                    NOP     0

     1182    24214            %OUT_STR(S="'_'");

  24215 17 030766   000035 630400 18                 EPPR0   29
PL6.E3A0      #001=COBOLRW File=COBOLRW.:Z8A6TSI                                 SAT 08/09/97 09:25 Page:593
        17 030767   000005 631400 18                 EPPR1   5
        17 030770   000000 701000 xent               TSX1    OUT_STR
        17 030771   000000 011000                    NOP     0

     1183    24217    3       NUMBER_OF_RESERVED_WORDS = NUMBER_OF_RESERVED_WORDS + 1;

  24217 17 030772   002731 054000 1                  AOS     NUMBER_OF_RESERVED_WORDS

     1184    24218    3       CALL OUT_DEC(NUMBER_OF_RESERVED_WORDS);

  24218 17 030773   000012 630400 18                 EPPR0   10
        17 030774   000011 631400 18                 EPPR1   9
        17 030775   000000 701000 xent               TSX1    OUT_DEC
        17 030776   000000 011000                    NOP     0

     1185    24219            %OUT_STR(S="' CONSTANT SYMDEF ALIGNED,'");

  24220 17 030777   000040 630400 18                 EPPR0   32
        17 031000   000005 631400 18                 EPPR1   5
        17 031001   000000 701000 xent               TSX1    OUT_STR
        17 031002   000000 011000                    NOP     0

     1186    24222    3       CALL FLUSH;

  24222 17 031003   000000 631400 18                 EPPR1   0
        17 031004   000000 701000 xent               TSX1    FLUSH
        17 031005   000000 011000                    NOP     0

     1187    24223
     1188    24224            %OUTLINE(S="'      2 ID UBIN(18) UNAL INIT(%LEXEME),'");

  24225 17 031006   000043 630400 18                 EPPR0   35
        17 031007   000005 631400 18                 EPPR1   5
        17 031010   000000 701000 xent               TSX1    OUT_STR
        17 031011   000000 011000                    NOP     0

  24226 17 031012   000000 631400 18                 EPPR1   0
PL6.E3A0      #001=COBOLRW File=COBOLRW.:Z8A6TSI                                 SAT 08/09/97 09:25 Page:594
        17 031013   000000 701000 xent               TSX1    FLUSH
        17 031014   000000 011000                    NOP     0

     1189    24228
     1190    24229            %OUT_STR(S="'      2 N UBIN(18) UNAL INIT('");

  24230 17 031015   000046 630400 18                 EPPR0   38
        17 031016   000005 631400 18                 EPPR1   5
        17 031017   000000 701000 xent               TSX1    OUT_STR
        17 031020   000000 011000                    NOP     0

     1191    24232    3       CALL OUT_DEC(BINBIT(DNT$ -> DNT.N, 36));

  24232 17 031021   000000 470400 2                  LDP0    DNT$
        17 031022   000000 236100                    LDQ     0,,PR0
        17 031023   777777 376007                    ANQ     -1,DL
        17 031024   200006 756100                    STQ     I+2,,AUTO
        17 031025   200006 631500                    EPPR1   I+2,,AUTO
        17 031026   200010 451500                    STP1    I+4,,AUTO
        17 031027   200010 630500                    EPPR0   I+4,,AUTO
        17 031030   000011 631400 18                 EPPR1   9
        17 031031   000000 701000 xent               TSX1    OUT_DEC
        17 031032   000000 011000                    NOP     0

     1192    24233            %OUT_STR(S="'),'");

  24234 17 031033   000051 630400 18                 EPPR0   41
        17 031034   000005 631400 18                 EPPR1   5
        17 031035   000000 701000 xent               TSX1    OUT_STR
        17 031036   000000 011000                    NOP     0

     1193    24236    3       CALL FLUSH;

  24236 17 031037   000000 631400 18                 EPPR1   0
        17 031040   000000 701000 xent               TSX1    FLUSH
        17 031041   000000 011000                    NOP     0

PL6.E3A0      #001=COBOLRW File=COBOLRW.:Z8A6TSI                                 SAT 08/09/97 09:25 Page:595
     1194    24237
     1195    24238            /* Use the N field to keep the unique reserved word number */
     1196    24239    3       DNT$ -> DNT.N = NUMBER_OF_RESERVED_WORDS;

  24239 17 031042   002731 720000 1                  LXL0    NUMBER_OF_RESERVED_WORDS
        17 031043   000000 470400 2                  LDP0    DNT$
        17 031044   000000 440100                    SXL0    0,,PR0

     1197    24240            /* Keep track of the DNT$ belonging to the reserved word */
     1198    24241    3       IF DNT$_FROM_RSWNO(DNT$->DNT.RW_NO) = 0 THEN

  24241 17 031045   000000 470400 2                  LDP0    DNT$
        17 031046   000003 720100                    LXL0    3,,PR0
        17 031047   002732 235010 1                  LDA     DNT$_FROM_RSWNO,X0
        17 031050   031053 601000 17                 TNZ     s:24244

     1199    24242    3         DNT$_FROM_RSWNO(DNT$ -> DNT.RW_NO) = NUMBER_OF_RESERVED_WORDS;

  24242 17 031051   002731 236000 1                  LDQ     NUMBER_OF_RESERVED_WORDS
        17 031052   002732 756010 1                  STQ     DNT$_FROM_RSWNO,X0

     1200    24243            %OUTLINE(S="'      2 ST$ PTR INIT(ADDR(NIL)),'");

  24244 17 031053   000054 630400 18                 EPPR0   44
        17 031054   000005 631400 18                 EPPR1   5
        17 031055   000000 701000 xent               TSX1    OUT_STR
        17 031056   000000 011000                    NOP     0

  24245 17 031057   000000 631400 18                 EPPR1   0
        17 031060   000000 701000 xent               TSX1    FLUSH
        17 031061   000000 011000                    NOP     0

     1201    24247
     1202    24248            %OUT_STR(S="'      2 NEXT PTR INIT(ADDR('");

  24249 17 031062   000057 630400 18                 EPPR0   47
        17 031063   000005 631400 18                 EPPR1   5
PL6.E3A0      #001=COBOLRW File=COBOLRW.:Z8A6TSI                                 SAT 08/09/97 09:25 Page:596
        17 031064   000000 701000 xent               TSX1    OUT_STR
        17 031065   000000 011000                    NOP     0

     1203    24251    3       IF DNT$ -> DNT.NEXT = ADDR(NIL) THEN

  24251 17 031066   000000 470400 2                  LDP0    DNT$
        17 031067   000002 236100                    LDQ     2,,PR0
        17 031070   000016 116000 18                 CMPQ    14
        17 031071   031077 601000 17                 TNZ     s:24258

     1204    24252              %OUT_STR(S="'NIL'");

  24253 17 031072   000061 630400 18                 EPPR0   49
        17 031073   000005 631400 18                 EPPR1   5
        17 031074   000000 701000 xent               TSX1    OUT_STR
        17 031075   000000 011000                    NOP     0
        17 031076   031133 710000 17                 TRA     s:24267

     1205    24255    3       ELSE
     1206    24256    4         DO;

     1207    24257                %OUT_STR(S="'RSW'");

  24258 17 031077   000063 630400 18                 EPPR0   51
        17 031100   000005 631400 18                 EPPR1   5
        17 031101   000000 701000 xent               TSX1    OUT_STR
        17 031102   000000 011000                    NOP     0

     1208    24260    4           CALL OUT_DEC(BINBIT(DNT$ -> DNT.NEXT -> DNT.RW_NO, 36));

  24260 17 031103   000000 470400 2                  LDP0    DNT$
        17 031104   000002 471500                    LDP1    2,,PR0
        17 031105   100003 236100                    LDQ     3,,PR1
        17 031106   777777 376007                    ANQ     -1,DL
        17 031107   200006 756100                    STQ     I+2,,AUTO
        17 031110   200006 631500                    EPPR1   I+2,,AUTO
        17 031111   200010 451500                    STP1    I+4,,AUTO
PL6.E3A0      #001=COBOLRW File=COBOLRW.:Z8A6TSI                                 SAT 08/09/97 09:25 Page:597
        17 031112   200010 630500                    EPPR0   I+4,,AUTO
        17 031113   000011 631400 18                 EPPR1   9
        17 031114   000000 701000 xent               TSX1    OUT_DEC
        17 031115   000000 011000                    NOP     0

     1209    24261                %OUT_STR(S="'_'");

  24262 17 031116   000035 630400 18                 EPPR0   29
        17 031117   000005 631400 18                 EPPR1   5
        17 031120   000000 701000 xent               TSX1    OUT_STR
        17 031121   000000 011000                    NOP     0

     1210    24264    4           CALL OUT_DEC(NUMBER_OF_RESERVED_WORDS+1);

  24264 17 031122   002731 235000 1                  LDA     NUMBER_OF_RESERVED_WORDS
        17 031123   000001 035007                    ADLA    1,DL
        17 031124   200006 755100                    STA     I+2,,AUTO
        17 031125   200006 630500                    EPPR0   I+2,,AUTO
        17 031126   200007 450500                    STP0    I+3,,AUTO
        17 031127   200007 630500                    EPPR0   I+3,,AUTO
        17 031130   000011 631400 18                 EPPR1   9
        17 031131   000000 701000 xent               TSX1    OUT_DEC
        17 031132   000000 011000                    NOP     0

     1211    24265    4         END;

     1212    24266            %OUT_STR(S="')),'");

  24267 17 031133   000065 630400 18                 EPPR0   53
        17 031134   000005 631400 18                 EPPR1   5
        17 031135   000000 701000 xent               TSX1    OUT_STR
        17 031136   000000 011000                    NOP     0

     1213    24269    3       CALL FLUSH;

  24269 17 031137   000000 631400 18                 EPPR1   0
        17 031140   000000 701000 xent               TSX1    FLUSH
PL6.E3A0      #001=COBOLRW File=COBOLRW.:Z8A6TSI                                 SAT 08/09/97 09:25 Page:598
        17 031141   000000 011000                    NOP     0

     1214    24270
     1215    24271            %OUT_STR(S="'      2 ATTR UBIN(18) UNAL INIT('");

  24272 17 031142   000067 630400 18                 EPPR0   55
        17 031143   000005 631400 18                 EPPR1   5
        17 031144   000000 701000 xent               TSX1    OUT_STR
        17 031145   000000 011000                    NOP     0

     1216    24274    3       CALL OUT_DEC(BITBIN(DNT$ -> DNT.ATTR));

  24274 17 031146   000000 470400 2                  LDP0    DNT$
        17 031147   000003 236100                    LDQ     3,,PR0
        17 031150   000022 772000                    QRL     18
        17 031151   200006 756100                    STQ     I+2,,AUTO
        17 031152   200006 631500                    EPPR1   I+2,,AUTO
        17 031153   200007 451500                    STP1    I+3,,AUTO
        17 031154   200007 630500                    EPPR0   I+3,,AUTO
        17 031155   000011 631400 18                 EPPR1   9
        17 031156   000000 701000 xent               TSX1    OUT_DEC
        17 031157   000000 011000                    NOP     0

     1217    24275            %OUT_STR(S="'),'");

  24276 17 031160   000051 630400 18                 EPPR0   41
        17 031161   000005 631400 18                 EPPR1   5
        17 031162   000000 701000 xent               TSX1    OUT_STR
        17 031163   000000 011000                    NOP     0

     1218    24278    3       CALL FLUSH;

  24278 17 031164   000000 631400 18                 EPPR1   0
        17 031165   000000 701000 xent               TSX1    FLUSH
        17 031166   000000 011000                    NOP     0

     1219    24279
PL6.E3A0      #001=COBOLRW File=COBOLRW.:Z8A6TSI                                 SAT 08/09/97 09:25 Page:599
     1220    24280            %OUT_STR(S="'      2 RW_NO UBIN(18) UNAL INIT('");

  24281 17 031167   000072 630400 18                 EPPR0   58
        17 031170   000005 631400 18                 EPPR1   5
        17 031171   000000 701000 xent               TSX1    OUT_STR
        17 031172   000000 011000                    NOP     0

     1221    24283    3       CALL OUT_DEC(BINBIT(DNT$ -> DNT.RW_NO, 36));

  24283 17 031173   000000 470400 2                  LDP0    DNT$
        17 031174   000003 236100                    LDQ     3,,PR0
        17 031175   777777 376007                    ANQ     -1,DL
        17 031176   200006 756100                    STQ     I+2,,AUTO
        17 031177   200006 631500                    EPPR1   I+2,,AUTO
        17 031200   200010 451500                    STP1    I+4,,AUTO
        17 031201   200010 630500                    EPPR0   I+4,,AUTO
        17 031202   000011 631400 18                 EPPR1   9
        17 031203   000000 701000 xent               TSX1    OUT_DEC
        17 031204   000000 011000                    NOP     0

     1222    24284            %OUT_STR(S="'),'");

  24285 17 031205   000051 630400 18                 EPPR0   41
        17 031206   000005 631400 18                 EPPR1   5
        17 031207   000000 701000 xent               TSX1    OUT_STR
        17 031210   000000 011000                    NOP     0

     1223    24287    3       CALL FLUSH;

  24287 17 031211   000000 631400 18                 EPPR1   0
        17 031212   000000 701000 xent               TSX1    FLUSH
        17 031213   000000 011000                    NOP     0

     1224    24288
     1225    24289            %OUTLINE(S="'      2 TEXT ALIGNED,'");

  24290 17 031214   000075 630400 18                 EPPR0   61
PL6.E3A0      #001=COBOLRW File=COBOLRW.:Z8A6TSI                                 SAT 08/09/97 09:25 Page:600
        17 031215   000005 631400 18                 EPPR1   5
        17 031216   000000 701000 xent               TSX1    OUT_STR
        17 031217   000000 011000                    NOP     0

  24291 17 031220   000000 631400 18                 EPPR1   0
        17 031221   000000 701000 xent               TSX1    FLUSH
        17 031222   000000 011000                    NOP     0

     1226    24293
     1227    24294            %OUT_STR(S="'        3 LENGTH UBIN(18) UNAL INIT('");

  24295 17 031223   000100 630400 18                 EPPR0   64
        17 031224   000005 631400 18                 EPPR1   5
        17 031225   000000 701000 xent               TSX1    OUT_STR
        17 031226   000000 011000                    NOP     0

     1228    24297    3       CALL OUT_DEC(BINBIT(DNT$ -> DNT.TEXT.LENGTH, 36));

  24297 17 031227   000000 470400 2                  LDP0    DNT$
        17 031230   000004 236100                    LDQ     4,,PR0
        17 031231   000022 772000                    QRL     18
        17 031232   200006 756100                    STQ     I+2,,AUTO
        17 031233   200006 631500                    EPPR1   I+2,,AUTO
        17 031234   200010 451500                    STP1    I+4,,AUTO
        17 031235   200010 630500                    EPPR0   I+4,,AUTO
        17 031236   000011 631400 18                 EPPR1   9
        17 031237   000000 701000 xent               TSX1    OUT_DEC
        17 031240   000000 011000                    NOP     0

     1229    24298            %OUT_STR(S="'),'");

  24299 17 031241   000051 630400 18                 EPPR0   41
        17 031242   000005 631400 18                 EPPR1   5
        17 031243   000000 701000 xent               TSX1    OUT_STR
        17 031244   000000 011000                    NOP     0

     1230    24301    3       CALL FLUSH;
PL6.E3A0      #001=COBOLRW File=COBOLRW.:Z8A6TSI                                 SAT 08/09/97 09:25 Page:601

  24301 17 031245   000000 631400 18                 EPPR1   0
        17 031246   000000 701000 xent               TSX1    FLUSH
        17 031247   000000 011000                    NOP     0

     1231    24302
     1232    24303            %OUT_STR(S="'        3 NAME CHAR('");

  24304 17 031250   000103 630400 18                 EPPR0   67
        17 031251   000005 631400 18                 EPPR1   5
        17 031252   000000 701000 xent               TSX1    OUT_STR
        17 031253   000000 011000                    NOP     0

     1233    24306    3       CALL OUT_DEC(BINBIT(DNT$ -> DNT.TEXT.LENGTH, 36));

  24306 17 031254   000000 470400 2                  LDP0    DNT$
        17 031255   000004 236100                    LDQ     4,,PR0
        17 031256   000022 772000                    QRL     18
        17 031257   200006 756100                    STQ     I+2,,AUTO
        17 031260   200006 631500                    EPPR1   I+2,,AUTO
        17 031261   200010 451500                    STP1    I+4,,AUTO
        17 031262   200010 630500                    EPPR0   I+4,,AUTO
        17 031263   000011 631400 18                 EPPR1   9
        17 031264   000000 701000 xent               TSX1    OUT_DEC
        17 031265   000000 011000                    NOP     0

     1234    24307            %OUT_STR(S="') INIT('''");

  24308 17 031266   000106 630400 18                 EPPR0   70
        17 031267   000005 631400 18                 EPPR1   5
        17 031270   000000 701000 xent               TSX1    OUT_STR
        17 031271   000000 011000                    NOP     0

     1235    24310    3       CALL OUT_STR(DNT$ -> DNT.TEXT.NAME,

  24310 17 031272   000000 470400 2                  LDP0    DNT$
        17 031273   000004 236100                    LDQ     4,,PR0
PL6.E3A0      #001=COBOLRW File=COBOLRW.:Z8A6TSI                                 SAT 08/09/97 09:25 Page:602
        17 031274   000022 772000                    QRL     18
        17 031275   200006 756100                    STQ     I+2,,AUTO
        17 031276   200006 631500                    EPPR1   I+2,,AUTO
        17 031277   200011 451500                    STP1    I+5,,AUTO
        17 031300   000000 236000 2                  LDQ     DNT$
        17 031301   000110 036000 18                 ADLQ    72
        17 031302   200010 756100                    STQ     I+4,,AUTO
        17 031303   200010 630500                    EPPR0   I+4,,AUTO
        17 031304   000005 631400 18                 EPPR1   5
        17 031305   000000 701000 xent               TSX1    OUT_STR
        17 031306   000000 011000                    NOP     0

     1236    24311    3                    BINBIT(DNT$ -> DNT.TEXT.LENGTH, 36));
     1237    24312            %OUT_STR(S="''');'");

  24313 17 031307   000111 630400 18                 EPPR0   73
        17 031310   000005 631400 18                 EPPR1   5
        17 031311   000000 701000 xent               TSX1    OUT_STR
        17 031312   000000 011000                    NOP     0

     1238    24315    3       CALL FLUSH;

  24315 17 031313   000000 631400 18                 EPPR1   0
        17 031314   000000 701000 xent               TSX1    FLUSH
        17 031315   000000 011000                    NOP     0

     1239    24316
     1240    24317    3       DNT$ = DNT$ -> DNT.NEXT;

  24317 17 031316   000000 470400 2                  LDP0    DNT$
        17 031317   000002 236100                    LDQ     2,,PR0
        17 031320   000000 756000 2                  STQ     DNT$

     1241    24318
     1242    24319    3     END;  /* DO WHILE */

  24319 17 031321   000016 116000 18                 CMPQ    14
PL6.E3A0      #001=COBOLRW File=COBOLRW.:Z8A6TSI                                 SAT 08/09/97 09:25 Page:603
        17 031322   030750 601000 17                 TNZ     s:24211

     1243    24320
     1244    24321    2   END;

  24321 17 031323   200004 235100                    LDA     I,,AUTO
        17 031324   000001 035007                    ADLA    1,DL
        17 031325   200004 755100                    STA     I,,AUTO
        17 031326   002151 115007                    CMPA    1129,DL
        17 031327   030744 602000 17                 TNC     s:24206

     1245    24322
     1246    24323        %OUTLINE(S="' '");

  24324 17 031330   000027 630400 18                 EPPR0   23
        17 031331   000005 631400 18                 EPPR1   5
        17 031332   000000 701000 xent               TSX1    OUT_STR
        17 031333   000000 011000                    NOP     0

  24325 17 031334   000000 631400 18                 EPPR1   0
        17 031335   000000 701000 xent               TSX1    FLUSH
        17 031336   000000 011000                    NOP     0

     1247    24327
     1248    24328        %OUT_STR(S="'DCL DNT_BUCKETS (0:'");

  24329 17 031337   000114 630400 18                 EPPR0   76
        17 031340   000005 631400 18                 EPPR1   5
        17 031341   000000 701000 xent               TSX1    OUT_STR
        17 031342   000000 011000                    NOP     0

     1249    24331    1   CALL OUT_DEC(%(NUMBER_DNT_BUCKETS - 1));

  24331 17 031343   000117 630400 18                 EPPR0   79
        17 031344   000011 631400 18                 EPPR1   9
        17 031345   000000 701000 xent               TSX1    OUT_DEC
        17 031346   000000 011000                    NOP     0
PL6.E3A0      #001=COBOLRW File=COBOLRW.:Z8A6TSI                                 SAT 08/09/97 09:25 Page:604

     1250    24332        %OUT_STR(S="') PTR STATIC SYMDEF INIT('");

  24333 17 031347   000120 630400 18                 EPPR0   80
        17 031350   000005 631400 18                 EPPR1   5
        17 031351   000000 701000 xent               TSX1    OUT_STR
        17 031352   000000 011000                    NOP     0

     1251    24335    1   CALL FLUSH;

  24335 17 031353   000000 631400 18                 EPPR1   0
        17 031354   000000 701000 xent               TSX1    FLUSH
        17 031355   000000 011000                    NOP     0

     1252    24336
     1253    24337    2   DO I = 0 TO %(NUMBER_DNT_BUCKETS - 1);

  24337 17 031356   200004 450100                    STZ     I,,AUTO

     1254    24338
     1255    24339    2     IF I = 0 THEN

  24339 17 031357   200004 235100                    LDA     I,,AUTO
        17 031360   031366 601000 17                 TNZ     s:24345

     1256    24340            %OUT_STR(S="'    ADDR('");

  24341 17 031361   000122 630400 18                 EPPR0   82
        17 031362   000005 631400 18                 EPPR1   5
        17 031363   000000 701000 xent               TSX1    OUT_STR
        17 031364   000000 011000                    NOP     0
        17 031365   031372 710000 17                 TRA     s:24348

     1257    24343    2     ELSE
     1258    24344            %OUT_STR(S="'   ,ADDR('");

  24345 17 031366   000124 630400 18                 EPPR0   84
PL6.E3A0      #001=COBOLRW File=COBOLRW.:Z8A6TSI                                 SAT 08/09/97 09:25 Page:605
        17 031367   000005 631400 18                 EPPR1   5
        17 031370   000000 701000 xent               TSX1    OUT_STR
        17 031371   000000 011000                    NOP     0

     1259    24347
     1260    24348    2     IF DNT_BUCKETS(I) = ADDR(NIL) THEN

  24348 17 031372   200004 720100                    LXL0    I,,AUTO
        17 031373   000560 236010 1                  LDQ     DNT_BUCKETS,X0
        17 031374   000016 116000 18                 CMPQ    14
        17 031375   031403 601000 17                 TNZ     s:24355

     1261    24349            %OUT_STR(S="'NIL'");

  24350 17 031376   000061 630400 18                 EPPR0   49
        17 031377   000005 631400 18                 EPPR1   5
        17 031400   000000 701000 xent               TSX1    OUT_STR
        17 031401   000000 011000                    NOP     0
        17 031402   031441 710000 17                 TRA     s:24365

     1262    24352    2     ELSE
     1263    24353    3       DO;

     1264    24354              %OUT_STR(S="'RSW'");

  24355 17 031403   000063 630400 18                 EPPR0   51
        17 031404   000005 631400 18                 EPPR1   5
        17 031405   000000 701000 xent               TSX1    OUT_STR
        17 031406   000000 011000                    NOP     0

     1265    24357    3         CALL OUT_DEC(BINBIT(DNT_BUCKETS(I) -> DNT.RW_NO, 36));

  24357 17 031407   200004 720100                    LXL0    I,,AUTO
        17 031410   000560 470410 1                  LDP0    DNT_BUCKETS,X0
        17 031411   000003 236100                    LDQ     3,,PR0
        17 031412   777777 376007                    ANQ     -1,DL
        17 031413   200006 756100                    STQ     I+2,,AUTO
PL6.E3A0      #001=COBOLRW File=COBOLRW.:Z8A6TSI                                 SAT 08/09/97 09:25 Page:606
        17 031414   200006 631500                    EPPR1   I+2,,AUTO
        17 031415   200010 451500                    STP1    I+4,,AUTO
        17 031416   200010 630500                    EPPR0   I+4,,AUTO
        17 031417   000011 631400 18                 EPPR1   9
        17 031420   000000 701000 xent               TSX1    OUT_DEC
        17 031421   000000 011000                    NOP     0

     1266    24358              %OUT_STR(S="'_'");

  24359 17 031422   000035 630400 18                 EPPR0   29
        17 031423   000005 631400 18                 EPPR1   5
        17 031424   000000 701000 xent               TSX1    OUT_STR
        17 031425   000000 011000                    NOP     0

     1267    24361              /* Get unique reserved word number out of N field */
     1268    24362    3         CALL OUT_DEC(BINBIT(DNT_BUCKETS(I) -> DNT.N, 36));

  24362 17 031426   200004 720100                    LXL0    I,,AUTO
        17 031427   000560 470410 1                  LDP0    DNT_BUCKETS,X0
        17 031430   000000 236100                    LDQ     0,,PR0
        17 031431   777777 376007                    ANQ     -1,DL
        17 031432   200006 756100                    STQ     I+2,,AUTO
        17 031433   200006 631500                    EPPR1   I+2,,AUTO
        17 031434   200010 451500                    STP1    I+4,,AUTO
        17 031435   200010 630500                    EPPR0   I+4,,AUTO
        17 031436   000011 631400 18                 EPPR1   9
        17 031437   000000 701000 xent               TSX1    OUT_DEC
        17 031440   000000 011000                    NOP     0

     1269    24363    3       END;

     1270    24364          %OUT_STR(S="')'");

  24365 17 031441   000127 630400 18                 EPPR0   87
        17 031442   000005 631400 18                 EPPR1   5
        17 031443   000000 701000 xent               TSX1    OUT_STR
        17 031444   000000 011000                    NOP     0
PL6.E3A0      #001=COBOLRW File=COBOLRW.:Z8A6TSI                                 SAT 08/09/97 09:25 Page:607

     1271    24367    2     CALL FLUSH;

  24367 17 031445   000000 631400 18                 EPPR1   0
        17 031446   000000 701000 xent               TSX1    FLUSH
        17 031447   000000 011000                    NOP     0

     1272    24368
     1273    24369    2   END;

  24369 17 031450   200004 235100                    LDA     I,,AUTO
        17 031451   000001 035007                    ADLA    1,DL
        17 031452   200004 755100                    STA     I,,AUTO
        17 031453   002151 115007                    CMPA    1129,DL
        17 031454   031357 602000 17                 TNC     s:24339

     1274    24370
     1275    24371        %OUTLINE(S="'  );'");

  24372 17 031455   000132 630400 18                 EPPR0   90
        17 031456   000005 631400 18                 EPPR1   5
        17 031457   000000 701000 xent               TSX1    OUT_STR
        17 031460   000000 011000                    NOP     0

  24373 17 031461   000000 631400 18                 EPPR1   0
        17 031462   000000 701000 xent               TSX1    FLUSH
        17 031463   000000 011000                    NOP     0

     1276    24375
     1277    24376        %OUTLINE(S="' '");

  24377 17 031464   000027 630400 18                 EPPR0   23
        17 031465   000005 631400 18                 EPPR1   5
        17 031466   000000 701000 xent               TSX1    OUT_STR
        17 031467   000000 011000                    NOP     0

  24378 17 031470   000000 631400 18                 EPPR1   0
PL6.E3A0      #001=COBOLRW File=COBOLRW.:Z8A6TSI                                 SAT 08/09/97 09:25 Page:608
        17 031471   000000 701000 xent               TSX1    FLUSH
        17 031472   000000 011000                    NOP     0

     1278    24380        %OUT_STR(S="'DCL DNT$_FROM_RSWNO(0:'");

  24381 17 031473   000135 630400 18                 EPPR0   93
        17 031474   000005 631400 18                 EPPR1   5
        17 031475   000000 701000 xent               TSX1    OUT_STR
        17 031476   000000 011000                    NOP     0

     1279    24383    1   CALL OUT_DEC(%LAST_RW_NO);

  24383 17 031477   000140 630400 18                 EPPR0   96
        17 031500   000011 631400 18                 EPPR1   9
        17 031501   000000 701000 xent               TSX1    OUT_DEC
        17 031502   000000 011000                    NOP     0

     1280    24384        %OUT_STR(S="') PTR CONSTANT SYMDEF INIT('");

  24385 17 031503   000141 630400 18                 EPPR0   97
        17 031504   000005 631400 18                 EPPR1   5
        17 031505   000000 701000 xent               TSX1    OUT_STR
        17 031506   000000 011000                    NOP     0

     1281    24387    1   CALL FLUSH;

  24387 17 031507   000000 631400 18                 EPPR1   0
        17 031510   000000 701000 xent               TSX1    FLUSH
        17 031511   000000 011000                    NOP     0

     1282    24388
     1283    24389    2   DO I = 0 TO %LAST_RW_NO;

  24389 17 031512   200004 450100                    STZ     I,,AUTO

     1284    24390
     1285    24391    2     IF I = 0 THEN
PL6.E3A0      #001=COBOLRW File=COBOLRW.:Z8A6TSI                                 SAT 08/09/97 09:25 Page:609

  24391 17 031513   200004 235100                    LDA     I,,AUTO
        17 031514   031522 601000 17                 TNZ     s:24397

     1286    24392            %OUT_STR(S="'    ADDR('");

  24393 17 031515   000122 630400 18                 EPPR0   82
        17 031516   000005 631400 18                 EPPR1   5
        17 031517   000000 701000 xent               TSX1    OUT_STR
        17 031520   000000 011000                    NOP     0
        17 031521   031526 710000 17                 TRA     s:24400

     1287    24395    2     ELSE
     1288    24396            %OUT_STR(S="'   ,ADDR('");

  24397 17 031522   000124 630400 18                 EPPR0   84
        17 031523   000005 631400 18                 EPPR1   5
        17 031524   000000 701000 xent               TSX1    OUT_STR
        17 031525   000000 011000                    NOP     0

     1289    24399
     1290    24400    2     IF DNT$_FROM_RSWNO(I) = 0 THEN

  24400 17 031526   200004 720100                    LXL0    I,,AUTO
        17 031527   002732 235010 1                  LDA     DNT$_FROM_RSWNO,X0
        17 031530   031536 601000 17                 TNZ     s:24407

     1291    24401            %OUT_STR(S="'NIL'");

  24402 17 031531   000061 630400 18                 EPPR0   49
        17 031532   000005 631400 18                 EPPR1   5
        17 031533   000000 701000 xent               TSX1    OUT_STR
        17 031534   000000 011000                    NOP     0
        17 031535   031563 710000 17                 TRA     s:24416

     1292    24404    2     ELSE
     1293    24405    3       DO;
PL6.E3A0      #001=COBOLRW File=COBOLRW.:Z8A6TSI                                 SAT 08/09/97 09:25 Page:610

     1294    24406              %OUT_STR(S="'RSW'");

  24407 17 031536   000063 630400 18                 EPPR0   51
        17 031537   000005 631400 18                 EPPR1   5
        17 031540   000000 701000 xent               TSX1    OUT_STR
        17 031541   000000 011000                    NOP     0

     1295    24409    3         CALL OUT_DEC(I);

  24409 17 031542   200004 630500                    EPPR0   I,,AUTO
        17 031543   200006 450500                    STP0    I+2,,AUTO
        17 031544   200006 630500                    EPPR0   I+2,,AUTO
        17 031545   000011 631400 18                 EPPR1   9
        17 031546   000000 701000 xent               TSX1    OUT_DEC
        17 031547   000000 011000                    NOP     0

     1296    24410              %OUT_STR(S="'_'");

  24411 17 031550   000035 630400 18                 EPPR0   29
        17 031551   000005 631400 18                 EPPR1   5
        17 031552   000000 701000 xent               TSX1    OUT_STR
        17 031553   000000 011000                    NOP     0

     1297    24413    3         CALL OUT_DEC(DNT$_FROM_RSWNO(I));

  24413 17 031554   200004 720100                    LXL0    I,,AUTO
        17 031555   002732 630410 1                  EPPR0   DNT$_FROM_RSWNO,X0
        17 031556   200006 450500                    STP0    I+2,,AUTO
        17 031557   200006 630500                    EPPR0   I+2,,AUTO
        17 031560   000011 631400 18                 EPPR1   9
        17 031561   000000 701000 xent               TSX1    OUT_DEC
        17 031562   000000 011000                    NOP     0

     1298    24414    3       END;

     1299    24415          %OUT_STR(S="')'");
PL6.E3A0      #001=COBOLRW File=COBOLRW.:Z8A6TSI                                 SAT 08/09/97 09:25 Page:611

  24416 17 031563   000127 630400 18                 EPPR0   87
        17 031564   000005 631400 18                 EPPR1   5
        17 031565   000000 701000 xent               TSX1    OUT_STR
        17 031566   000000 011000                    NOP     0

     1300    24418    2     CALL FLUSH;

  24418 17 031567   000000 631400 18                 EPPR1   0
        17 031570   000000 701000 xent               TSX1    FLUSH
        17 031571   000000 011000                    NOP     0

     1301    24419
     1302    24420    2   END;

  24420 17 031572   200004 235100                    LDA     I,,AUTO
        17 031573   000001 035007                    ADLA    1,DL
        17 031574   200004 755100                    STA     I,,AUTO
        17 031575   000762 115007                    CMPA    498,DL
        17 031576   031513 602000 17                 TNC     s:24391

     1303    24421
     1304    24422        %OUTLINE(S="'  );'");

  24423 17 031577   000132 630400 18                 EPPR0   90
        17 031600   000005 631400 18                 EPPR1   5
        17 031601   000000 701000 xent               TSX1    OUT_STR
        17 031602   000000 011000                    NOP     0

  24424 17 031603   000000 631400 18                 EPPR1   0
        17 031604   000000 701000 xent               TSX1    FLUSH
        17 031605   000000 011000                    NOP     0

     1305    24426
     1306    24427
     1307    24428    1   END COBOLRW;

PL6.E3A0      #001=COBOLRW File=COBOLRW.:Z8A6TSI                                 SAT 08/09/97 09:25 Page:612
  24428 17 031606   000000 702200 xent               TSX2  ! X66_MARET

PL6.E3A0      #001=COBOLRW File=COBOLRW.:Z8A6TSI                                 SAT 08/09/97 09:25 Page:613
--  Include file information  --

   CP_6_C.:LIB_E04  is referenced.
   CP_6.:LIB_E04  cannot be made into a system file and is referenced.
   IOGLOBAL.:Z8A6TOU  cannot be made into a system file and is referenced.
   Z8A_LEX_SYMB.:Z8A6TOU  cannot be made into a system file and is referenced.
   Z8E_STACKS.:Z8A6TOU  cannot be made into a system file and is referenced.
   Z8E_NEW_ILL.:Z8A6TOU  is referenced.
   Z8E_MACROS.:Z8A6TOU  cannot be made into a system file and is referenced.
   Z8E_WINDOW.:Z8A6TOU  is referenced.
   Z8A_DNT.:Z8A6TOU  cannot be made into a system file and is referenced.
   Z8A_COMCOM.:Z8A6TOU  cannot be made into a system file and is referenced.
   X8A_COM_MACS.:X8A6TOU  is referenced.
   Z8A_NAMES.:Z8A6TOU  is referenced.
   Z8A_SUPP_MAC.:Z8A6TOU  is referenced.
   Z8A_DEFC.:Z8A6TOU  cannot be made into a system file and is referenced.
      No diagnostics issued in procedure COBOLRW.
PL6.E3A0      #001=COBOLRW File=COBOLRW.:Z8A6TSI                                 SAT 08/09/97 09:25 Page:614

 **** Variables and constants ****

  ****  Section 000 LblCom ITERATION

  ****  Scalars and arrays  ****
OctLoc.c.b A Datatyp(siz) R M Lvl/name                 OctLoc.c.b A Datatyp(siz) R M Lvl/name

     0-0-0/w SBIN              1 ITERATION

  ****  Section 001  Data  COBOLRW

  ****  Scalars and arrays  ****
OctLoc.c.b A Datatyp(siz) R M Lvl/name                 OctLoc.c.b A Datatyp(siz) R M Lvl/name

     0-0-0/d STRC(13248)       1 COMCOM
  2732-0-0/w UBIN        r     1 DNT$_FROM_RSWNO(0:497)
   560-0-0/w PTR         r     1 DNT_BUCKETS(0:1128)
  2731-0-0/w SBIN        r     1 NUMBER_OF_RESERVED_WORDS

  ****  Section 002 LblCom DNT$

  ****  Scalars and arrays  ****
OctLoc.c.b A Datatyp(siz) R M Lvl/name                 OctLoc.c.b A Datatyp(siz) R M Lvl/name

     0-0-0/w PTR         r     1 DNT$

  ****  Section 003 LblCom DNT_

  ****  Scalars and arrays  ****
OctLoc.c.b A Datatyp(siz) R M Lvl/name                 OctLoc.c.b A Datatyp(siz) R M Lvl/name

     0-0-0/w STRC(180)         1 DNT_

  ****  Section 004 LblCom DNT_BUCKET_NUMBER

  ****  Scalars and arrays  ****
OctLoc.c.b A Datatyp(siz) R M Lvl/name                 OctLoc.c.b A Datatyp(siz) R M Lvl/name
PL6.E3A0      #001=COBOLRW File=COBOLRW.:Z8A6TSI                                 SAT 08/09/97 09:25 Page:615

     0-0-0/w UBIN              1 DNT_BUCKET_NUMBER

  ****  Section 005 LblCom DNT_OF_1$

  ****  Scalars and arrays  ****
OctLoc.c.b A Datatyp(siz) R M Lvl/name                 OctLoc.c.b A Datatyp(siz) R M Lvl/name

     0-0-0/w PTR               1 DNT_OF_1$

  ****  Section 006 LblCom LEX_SYMBOL

  ****  Scalars and arrays  ****
OctLoc.c.b A Datatyp(siz) R M Lvl/name                 OctLoc.c.b A Datatyp(siz) R M Lvl/name

     0-0-0/w STRC(3240)  r     1 LEX_SYMBOL                 0-0-0/w STRC(3240)        1 LEX_SYMBOL_WORDS

  ****  Section 007 LblCom CURRENT_LEX_SYMBOL$

  ****  Scalars and arrays  ****
OctLoc.c.b A Datatyp(siz) R M Lvl/name                 OctLoc.c.b A Datatyp(siz) R M Lvl/name

     0-0-0/w PTR         r     1 CURRENT_LEX_SYMBOL$

  ****  Section 008 LblCom TEMP_LEX_SYMBOL

  ****  Scalars and arrays  ****
OctLoc.c.b A Datatyp(siz) R M Lvl/name                 OctLoc.c.b A Datatyp(siz) R M Lvl/name

     0-0-0/w STRC(3240)        1 TEMP_LEX_SYMBOL

  ****  Section 009 LblCom TEMP_LEX_SYMBOL2

  ****  Scalars and arrays  ****
OctLoc.c.b A Datatyp(siz) R M Lvl/name                 OctLoc.c.b A Datatyp(siz) R M Lvl/name

     0-0-0/w STRC(3240)        1 TEMP_LEX_SYMBOL2
PL6.E3A0      #001=COBOLRW File=COBOLRW.:Z8A6TSI                                 SAT 08/09/97 09:25 Page:616

  ****  Section 011 LblCom OUT_DCBN

  ****  Scalars and arrays  ****
OctLoc.c.b A Datatyp(siz) R M Lvl/name                 OctLoc.c.b A Datatyp(siz) R M Lvl/name

     0-0-0/w SBIN        r     1 OUT_DCBN

  ****  Section 012 LblCom LINELEN

  ****  Scalars and arrays  ****
OctLoc.c.b A Datatyp(siz) R M Lvl/name                 OctLoc.c.b A Datatyp(siz) R M Lvl/name

     0-0-0/w SBIN              1 LINELEN

  ****  Section 013 LblCom LINE

  ****  Scalars and arrays  ****
OctLoc.c.b A Datatyp(siz) R M Lvl/name                 OctLoc.c.b A Datatyp(siz) R M Lvl/name

     0-0-0/c CHAR(109)         1 LINE

  ****  Auto variables  ****

  ****  Scalars and arrays  ****
OctLoc.c.b A Datatyp(siz) R M Lvl/name                 OctLoc.c.b A Datatyp(siz) R M Lvl/name

     3-0-0/w SBIN        r     1 BUCKETS_USED               4-0-0/w UBIN        r     1 I

  ****  BASED and DCB variables  ****

  ****  Scalars and arrays  ****
OctLoc.c.b A Datatyp(siz) R M Lvl/name                 OctLoc.c.b A Datatyp(siz) R M Lvl/name

     0-0-0/w STRC(288)         1 ADD_STMT                   0-0-0/w ASTR(324)   r     1 BASED_LEX_SYMBOL
     0-0-0/w STRC(360)         1 BASED_LEX_SYMBOL_WORDS
     0-0-0/w STRC(288)         1 BINARY_OP                  0-0-0/w STRC(288)         1 CALL_STMT
PL6.E3A0      #001=COBOLRW File=COBOLRW.:Z8A6TSI                                 SAT 08/09/97 09:25 Page:617
     0-0-0/w CHAR(4096)        1 CHARS                      0-0-0/w STRC(288)         1 COMPUTE_STMT
     0-0-0/w STRC(72)          1 CONT                       0-0-0/w STRC(288)         1 DEFERED_IDENTIFIER
     0-0-0/w STRC(252)         1 DEFERED_ID_TREE            0-0-0/w STRC(288)         1 DEFERED_QUAL_ID
     0-0-0/w STRC(288)         1 DEFERED_SUM_CLAUSE
     0-0-0/w STRC(288)         1 DEFERED_SUM_CLAUSE_LIST
     0-0-0/w STRC(288)         1 DELETE_STMT                0-0-0/w STRC(288)         1 DIVIDE_STMT
     0-0-0/w ASTR(180)   r     1 DNT                        0-0-0/w STRC(288)         1 ILS_LIST
     0-0-0/w STRC(288)         1 INSPECT_1_STMT             0-0-0/w STRC(288)         1 INSPECT_2_STMT
     0-0-0/w STRC(288)         1 INSPECT_4_STMT             0-0-0/w STRC(288)         1 LA_ITEM
     0-0-0/w STRC(504)         1 LX_CD_INPUT                0-0-0/w STRC(324)         1 LX_CD_I_O
     0-0-0/w STRC(396)         1 LX_CD_OUTPUT               0-0-0/w STRC(288)         1 LX_ETT_ITEM
     0-0-0/w STRC(288)         1 LX_ITEM                    0-0-0/w STRC(288)         1 LX_LARGE
     0-0-0/w STRC(288)         1 LX_LIST                    0-0-0/w STRC(1224)        1 LX_REC_DECL
     0-0-0/w STRC(864)         1 LX_REPORT_REC              0-0-0/w STRC(288)         1 LX_TERMINAL
     0-0-0N  NULL        r     1 M$LO                       0-0-0/d ASTR(3528)  r     1 M$OU
     0-0-0N  NULL        r     1 M$UC                       0-0-0/w STRC(288)         1 MULTIPLY_STMT
     0-0-0/w STRC(36864)       1 PAGE                       0-0-0/w STRC(288)         1 READ_STMT
     0-0-0/w STRC(288)         1 REWRITE_STMT               0-0-0/w STRC(288)         1 START_STMT
     0-0-0/w STRC(252)         1 STRING_STMT                0-0-0/w STRC(288)         1 SUBTRACT_STMT
     0-0-0/w STRC(288)         1 UNARY_OP                   0-0-0/w STRC(288)         1 UNSTRING_STMT
     0-0-0/w STRC(288)         1 WRITE_STMT


   Procedure COBOLRW requires 13191 words for executable code.
   Procedure COBOLRW requires 10 words of local(AUTO) storage.

    No errors detected in file COBOLRW.:Z8A6TSI    .
