VERSION A06

PL6.E3A0      #001=OUT_DEC File=IOPACKAGE.:Z8A6TSI                               SAT 08/09/97 09:25 Page:1
        1        1        /*T***********************************************************/
        2        2        /*T*                                                         */
        3        3        /*T* Copyright (c) Bull HN Information Systems Inc., 1997    */
        4        4        /*T*                                                         */
        5        5        /*T***********************************************************/
        6        6        OUT_DEC:PROC(SGN) NOAUTO;
        7        7
        8        8        /*D*
        9        9               NAME: OUT_DEC
       10       10            PURPOSE: APPEND A DECIMAL NUMBER TO THE OUTPUT LINE.
       11       11        */
       12       12
       13       13
       14       14    1   DCL N SBIN;
       15       15    1   DCL SGN SBIN;
       16       16    1   DCL DISP SBIN;
       17       17    1   DCL OSTR CHAR(16);
       18       18
       19       19    1   DCL M$LO DCB;
       20       20    1   DCL OUT_DCBN SBIN EXT;
       21       21    1   DCL OUT_STR ENTRY(2);
       22       22
       23       23    1   DCL LINELEN SBIN WORD EXT INIT(0);
       24       24        %SUB TEXTLIMIT = 109;
       25       25    1   DCL LINE CHAR(TEXTLIMIT) EXT;
       26       26
       27       27
       28       28
       29       29    1           N=SGN;
       30       30    1           IF SGN<0 THEN
       31       31    1              N=-SGN;
       32       32
       33       33    1           CALL BINCHAR(OSTR,N);
       34       34
       35       35    1           DISP=1;
       36       36
       37       37    2           DO WHILE(DISP<=14 AND SUBSTR(OSTR,DISP,1)='0');
PL6.E3A0      #001=OUT_DEC File=IOPACKAGE.:Z8A6TSI                               SAT 08/09/97 09:25 Page:2
       38       38    2              DISP=DISP+1;
       39       39    2              END;
       40       40
       41       41    1           IF SGN<0 THEN
       42       42    2           DO;
       43       43    2              DISP=DISP-1;
       44       44    2              CALL INSERT(OSTR,DISP,1,'-');
       45       45    2              END;
       46       46
       47       47    1           CALL OUT_STR(SUBSTR(OSTR,DISP,1),LENGTHC(OSTR)-DISP);
       48       48
       49       49    1   END OUT_DEC;
       50       50        %EOD;

PL6.E3A0      #001=OUT_DEC File=IOPACKAGE.:Z8A6TSI                               SAT 08/09/97 09:25 Page:3
      No diagnostics issued in procedure OUT_DEC.

   Procedure OUT_DEC requires 47 words for executable code.
   Procedure OUT_DEC is declared NOAUTO and requires 12 words of local(STATIC) storage.

PL6.E3A0      #001=OUT_DEC File=IOPACKAGE.:Z8A6TSI                               SAT 08/09/97 09:25 Page:4

 Object Unit name= OUT_DEC                                    File name= IOPACKAGE.:Z8A6TOU
 UTS= AUG 09 '97 09:25:46.80 SAT                              Compiler= PL-6/E31         Sev=      00
 SharedLib= :SHARED_SYSTEM                                    Alt SharedLib=


    ****  Control sections  ****

 Sect   Type Bound  Init  Size OctSiz  Section name(segment info)
    0   Data  even  none    12     14  OUT_DEC
    1   DCB   even  none     0      0  M$LO
    2  LblCom even  none     1      1  OUT_DCBN
    3  LblCom even  none     1      1  LINELEN
    4  LblCom even  none    28     34  LINE
    5   Proc  even  none    47     57  OUT_DEC
    6  RoData even  none     4      4  OUT_DEC

    ****  Entry defs  ****

                              Check   Calling
                             calling  sequence
  Sect OctLoc Primary Altret sequence   type   Parms  Name
     5      0   yes            yes      Std        1  OUT_DEC

  ****  Entry refs  ****

         Check        Calling
        calling       sequence
Altret sequence SRef   type   Args  Name
         yes           Std       2 OUT_STR
                       nStd      0 X66_STATIC_1

  ****  Data refs  ****

  Flags:  r = read only, s = secondary
Flgs Name                             Flgs Name                             Flgs Name
     M$LO
PL6.E3A0      #001=OUT_DEC File=IOPACKAGE.:Z8A6TSI                               SAT 08/09/97 09:25 Page:5

  ****  Segment refs  ****

  Flags:  r = read only, s = secondary
Flgs Name                             Flgs Name                             Flgs Name
     ISSID
PL6.E3A0      #001=OUT_DEC File=IOPACKAGE.:Z8A6TSI                               SAT 08/09/97 09:25 Page:6


        1        1        /*T***********************************************************/
        2        2        /*T*                                                         */
        3        3        /*T* Copyright (c) Bull HN Information Systems Inc., 1997    */
        4        4        /*T*                                                         */
        5        5        /*T***********************************************************/
        6        6        OUT_DEC:PROC(SGN) NOAUTO;

      6  5 000000   000000 700200 xent  OUT_DEC      TSX0  ! X66_STATIC_1
         5 000001   000000 000001 0                  ZERO    0,1

        7        7
        8        8        /*D*
        9        9               NAME: OUT_DEC
       10       10            PURPOSE: APPEND A DECIMAL NUMBER TO THE OUTPUT LINE.
       11       11        */
       12       12
       13       13
       14       14    1   DCL N SBIN;
       15       15    1   DCL SGN SBIN;
       16       16    1   DCL DISP SBIN;
       17       17    1   DCL OSTR CHAR(16);
       18       18
       19       19    1   DCL M$LO DCB;
       20       20    1   DCL OUT_DCBN SBIN EXT;
       21       21    1   DCL OUT_STR ENTRY(2);
       22       22
       23       23    1   DCL LINELEN SBIN WORD EXT INIT(0);
       24       24        %SUB TEXTLIMIT = 109;
       25       25    1   DCL LINE CHAR(TEXTLIMIT) EXT;
       26       26
       27       27
       28       28
       29       29    1           N=SGN;

     29  5 000002   000001 470400 0                  LDP0    @SGN
         5 000003   000000 235100                    LDA     0,,PR0
PL6.E3A0      #001=OUT_DEC File=IOPACKAGE.:Z8A6TSI                               SAT 08/09/97 09:25 Page:7
         5 000004   000002 755000 0                  STA     N

       30       30    1           IF SGN<0 THEN

     30  5 000005   000011 605000 5                  TPL     s:33

       31       31    1              N=-SGN;

     31  5 000006   000000 235100                    LDA     0,,PR0
         5 000007   000000 531000                    NEG     0
         5 000010   000002 755000 0                  STA     N

       32       32
       33       33    1           CALL BINCHAR(OSTR,N);

     33  5 000011   000000 301400                    BTD
         5 000012   000002 000004 0                  NDSC9   N                        cn=0,s=lsgnf,sf=0,n=4
         5 000013   000004 030020 0                  NDSC9   OSTR                     cn=0,s=nosgn,sf=0,n=16

       34       34
       35       35    1           DISP=1;

     35  5 000014   000001 236007                    LDQ     1,DL
         5 000015   000003 756000 0                  STQ     DISP

       36       36
       37       37    2           DO WHILE(DISP<=14 AND SUBSTR(OSTR,DISP,1)='0');

     37  5 000016   000020 710000 5                  TRA     s:39

       38       38    2              DISP=DISP+1;

     38  5 000017   000003 054000 0                  AOS     DISP

       39       39    2              END;

     39  5 000020   000003 235000 0                  LDA     DISP
PL6.E3A0      #001=OUT_DEC File=IOPACKAGE.:Z8A6TSI                               SAT 08/09/97 09:25 Page:8
         5 000021   000016 115007                    CMPA    14,DL
         5 000022   000027 605400 5                  TPNZ    s:41
         5 000023   040000 106405                    CMPC    fill='040'O
         5 000024   000004 000001 0                  ADSC9   OSTR,A                   cn=0,n=1
         5 000025   000000 000001 6                  ADSC9   0                        cn=0,n=1
         5 000026   000017 600000 5                  TZE     s:38

       40       40
       41       41    1           IF SGN<0 THEN

     41  5 000027   000001 470400 0                  LDP0    @SGN
         5 000030   000000 235100                    LDA     0,,PR0
         5 000031   000040 605000 5                  TPL     s:47

       42       42    2           DO;

       43       43    2              DISP=DISP-1;

     43  5 000032   000001 336007                    LCQ     1,DL
         5 000033   000003 056000 0                  ASQ     DISP

       44       44    2              CALL INSERT(OSTR,DISP,1,'-');

     44  5 000034   000003 235000 0                  LDA     DISP
         5 000035   040005 100400                    MLR     fill='040'O
         5 000036   000001 000001 6                  ADSC9   1                        cn=0,n=1
         5 000037   000004 000001 0                  ADSC9   OSTR,A                   cn=0,n=1

       45       45    2              END;

       46       46
       47       47    1           CALL OUT_STR(SUBSTR(OSTR,DISP,1),LENGTHC(OSTR)-DISP);

     47  5 000040   000020 235007                    LDA     16,DL
         5 000041   000003 135000 0                  SBLA    DISP
         5 000042   000010 755000 0                  STA     OSTR+4
         5 000043   000010 631400 0                  EPPR1   OSTR+4
PL6.E3A0      #001=OUT_DEC File=IOPACKAGE.:Z8A6TSI                               SAT 08/09/97 09:25 Page:9
         5 000044   000013 451400 0                  STP1    OSTR+7
         5 000045   000003 236000 0                  LDQ     DISP
         5 000046   000020 736000                    QLS     16
         5 000047   000003 036000 6                  ADLQ    3
         5 000050   000012 756000 0                  STQ     OSTR+6
         5 000051   000012 630400 0                  EPPR0   OSTR+6
         5 000052   000002 631400 6                  EPPR1   2
         5 000053   000000 701000 xent               TSX1    OUT_STR
         5 000054   000000 011000                    NOP     0

       48       48
       49       49    1   END OUT_DEC;

     49  5 000055   000000 221200 0                  LDX1  ! 0
         5 000056   000001 702211                    TSX2  ! 1,X1
       50       50        %EOD;

PL6.E3A0      #001=OUT_DEC File=IOPACKAGE.:Z8A6TSI                               SAT 08/09/97 09:25 Page:10
      No diagnostics issued in procedure OUT_DEC.
PL6.E3A0      #001=OUT_DEC File=IOPACKAGE.:Z8A6TSI                               SAT 08/09/97 09:25 Page:11

 **** Variables and constants ****

  ****  Section 000  Data  OUT_DEC

  ****  Scalars and arrays  ****
OctLoc.c.b A Datatyp(siz) R M Lvl/name                 OctLoc.c.b A Datatyp(siz) R M Lvl/name

     1-0-0/w PTR         r     1 @SGN                       3-0-0/w SBIN        r     1 DISP
     2-0-0/w SBIN        r     1 N                          4-0-0/c CHAR(16)    r     1 OSTR
    *0-0-0/w SBIN        r     1 SGN

  ****  Section 002 LblCom OUT_DCBN

  ****  Scalars and arrays  ****
OctLoc.c.b A Datatyp(siz) R M Lvl/name                 OctLoc.c.b A Datatyp(siz) R M Lvl/name

     0-0-0/w SBIN              1 OUT_DCBN

  ****  Section 003 LblCom LINELEN

  ****  Scalars and arrays  ****
OctLoc.c.b A Datatyp(siz) R M Lvl/name                 OctLoc.c.b A Datatyp(siz) R M Lvl/name

     0-0-0/w SBIN              1 LINELEN

  ****  Section 004 LblCom LINE

  ****  Scalars and arrays  ****
OctLoc.c.b A Datatyp(siz) R M Lvl/name                 OctLoc.c.b A Datatyp(siz) R M Lvl/name

     0-0-0/c CHAR(109)         1 LINE

  ****  BASED and DCB variables  ****

  ****  Scalars and arrays  ****
OctLoc.c.b A Datatyp(siz) R M Lvl/name                 OctLoc.c.b A Datatyp(siz) R M Lvl/name

PL6.E3A0      #001=OUT_DEC File=IOPACKAGE.:Z8A6TSI                               SAT 08/09/97 09:25 Page:12
     0-0-0N  NULL        r     1 M$LO


   Procedure OUT_DEC requires 47 words for executable code.
   Procedure OUT_DEC is declared NOAUTO and requires 12 words of local(STATIC) storage.

PL6.E3A0      #002=OUT_STR File=IOPACKAGE.:Z8A6TSI                               SAT 08/09/97 09:26 Page:13
       51        1        /*T***********************************************************/
       52        2        /*T*                                                         */
       53        3        /*T* Copyright (c) Bull HN Information Systems Inc., 1997    */
       54        4        /*T*                                                         */
       55        5        /*T***********************************************************/
       56        6        OUT_STR:PROC(STR,LEN) NOAUTO;
       57        7
       58        8        /*D*
       59        9               NAME: OUT_STR
       60       10            PURPOSE: APPEND A STRING ONTO THE CURRENT OUTPUT LINE.
       61       11                     IF THE STRING EXCEEDS THE LINE LENGTH,
       62       12                     PRINT THE LINE.
       63       13        */
       64       14
       65       15
       66       16    1   DCL STR CHAR(LEN);
       67       17    1   DCL LEN SBIN;
       68       18
       69       19    1   DCL M$LO DCB;
       70       20    1   DCL OUT_DCBN SBIN EXT;
       71       21    1   DCL OUTPUT ENTRY(2);
       72       22    1   DCL FLUSH ENTRY;
       73       23
       74       24    1   DCL LINELEN SBIN WORD EXT INIT(0);
       75       25        %SUB TEXTLIMIT = 109;
       76       26    1   DCL LINE CHAR(TEXTLIMIT) EXT;
       77       27
       78       28
       79       29    1           IF LEN+LINELEN>TEXTLIMIT THEN
       80       30    2             DO;
       81       31    2               CALL FLUSH;
       82       32    2               CALL INSERT(LINE, LINELEN, 20, '                    ');
       83       33    2               LINELEN = LINELEN + 20;
       84       34    2             END;
       85       35
       86       36    1           IF LINELEN + LEN > TEXTLIMIT THEN
       87       37    2             DO;
PL6.E3A0      #002=OUT_STR File=IOPACKAGE.:Z8A6TSI                               SAT 08/09/97 09:26 Page:14
       88       38    2               CALL OUTPUT(STR, LEN);
       89       39    2               LINELEN = 0;
       90       40    2             END;
       91       41    1           ELSE
       92       42    2             DO;
       93       43    2               CALL INSERT(LINE,LINELEN,LEN,STR);
       94       44    2               LINELEN=LINELEN+LEN;
       95       45    2             END;
       96       46
       97       47    1   END OUT_STR;
       98       48        %EOD;

PL6.E3A0      #002=OUT_STR File=IOPACKAGE.:Z8A6TSI                               SAT 08/09/97 09:26 Page:15
      No diagnostics issued in procedure OUT_STR.

   Procedure OUT_STR requires 40 words for executable code.
   Procedure OUT_STR is declared NOAUTO and requires 6 words of local(STATIC) storage.

PL6.E3A0      #002=OUT_STR File=IOPACKAGE.:Z8A6TSI                               SAT 08/09/97 09:26 Page:16

 Object Unit name= OUT_STR                                    File name= IOPACKAGE.:Z8A6TOU
 UTS= AUG 09 '97 09:26:11.68 SAT                              Compiler= PL-6/E31         Sev=      00
 SharedLib= :SHARED_SYSTEM                                    Alt SharedLib=


    ****  Control sections  ****

 Sect   Type Bound  Init  Size OctSiz  Section name(segment info)
    0   Data  even  none     6      6  OUT_STR
    1   DCB   even  none     0      0  M$LO
    2  LblCom even  none     1      1  OUT_DCBN
    3  LblCom even  none     1      1  LINELEN
    4  LblCom even  none    28     34  LINE
    5  RoData even  UTS      5      5  OUT_STR
    6   Proc  even  none    40     50  OUT_STR
    7  RoData even  none     2      2  OUT_STR

    ****  Entry defs  ****

                              Check   Calling
                             calling  sequence
  Sect OctLoc Primary Altret sequence   type   Parms  Name
     6      0   yes            yes      Std        2  OUT_STR

  ****  Entry refs  ****

         Check        Calling
        calling       sequence
Altret sequence SRef   type   Args  Name
         yes           Std       0 FLUSH
         yes           Std       2 OUTPUT
                       nStd      0 X66_STATIC_2
PL6.E3A0      #002=OUT_STR File=IOPACKAGE.:Z8A6TSI                               SAT 08/09/97 09:26 Page:17

  ****  Data refs  ****

  Flags:  r = read only, s = secondary
Flgs Name                             Flgs Name                             Flgs Name
     M$LO
PL6.E3A0      #002=OUT_STR File=IOPACKAGE.:Z8A6TSI                               SAT 08/09/97 09:26 Page:18


       51        1        /*T***********************************************************/
       52        2        /*T*                                                         */
       53        3        /*T* Copyright (c) Bull HN Information Systems Inc., 1997    */
       54        4        /*T*                                                         */
       55        5        /*T***********************************************************/
       56        6        OUT_STR:PROC(STR,LEN) NOAUTO;

      6  6 000000   000000 700200 xent  OUT_STR      TSX0  ! X66_STATIC_2
         6 000001   000000 000002 0                  ZERO    0,2

       57        7
       58        8        /*D*
       59        9               NAME: OUT_STR
       60       10            PURPOSE: APPEND A STRING ONTO THE CURRENT OUTPUT LINE.
       61       11                     IF THE STRING EXCEEDS THE LINE LENGTH,
       62       12                     PRINT THE LINE.
       63       13        */
       64       14
       65       15
       66       16    1   DCL STR CHAR(LEN);
       67       17    1   DCL LEN SBIN;
       68       18
       69       19    1   DCL M$LO DCB;
       70       20    1   DCL OUT_DCBN SBIN EXT;
       71       21    1   DCL OUTPUT ENTRY(2);
       72       22    1   DCL FLUSH ENTRY;
       73       23
       74       24    1   DCL LINELEN SBIN WORD EXT INIT(0);
       75       25        %SUB TEXTLIMIT = 109;
       76       26    1   DCL LINE CHAR(TEXTLIMIT) EXT;
       77       27
       78       28
       79       29    1           IF LEN+LINELEN>TEXTLIMIT THEN

     29  6 000002   000002 470400 0                  LDP0    @LEN
         6 000003   000000 236100                    LDQ     0,,PR0
PL6.E3A0      #002=OUT_STR File=IOPACKAGE.:Z8A6TSI                               SAT 08/09/97 09:26 Page:19
         6 000004   000000 036000 3                  ADLQ    LINELEN
         6 000005   000155 116007                    CMPQ    109,DL
         6 000006   000020 604400 6                  TMOZ    s:36

       80       30    2             DO;

       81       31    2               CALL FLUSH;

     31  6 000007   000000 631400 7                  EPPR1   0
         6 000010   000000 701000 xent               TSX1    FLUSH
         6 000011   000000 011000                    NOP     0

       82       32    2               CALL INSERT(LINE, LINELEN, 20, '                    ');

     32  6 000012   000000 235000 3                  LDA     LINELEN
         6 000013   040005 100400                    MLR     fill='040'O
         6 000014   000000 000024 5                  ADSC9   0                        cn=0,n=20
         6 000015   000000 000024 4                  ADSC9   LINE,A                   cn=0,n=20

       83       33    2               LINELEN = LINELEN + 20;

     33  6 000016   000024 236007                    LDQ     20,DL
         6 000017   000000 056000 3                  ASQ     LINELEN

       84       34    2             END;

       85       35
       86       36    1           IF LINELEN + LEN > TEXTLIMIT THEN

     36  6 000020   000002 470400 0                  LDP0    @LEN
         6 000021   000000 236000 3                  LDQ     LINELEN
         6 000022   000000 036100                    ADLQ    0,,PR0
         6 000023   000155 116007                    CMPQ    109,DL
         6 000024   000033 604400 6                  TMOZ    s:43

       87       37    2             DO;

PL6.E3A0      #002=OUT_STR File=IOPACKAGE.:Z8A6TSI                               SAT 08/09/97 09:26 Page:20
       88       38    2               CALL OUTPUT(STR, LEN);

     38  6 000025   000001 630400 0                  EPPR0   @STR
         6 000026   000001 631400 7                  EPPR1   1
         6 000027   000000 701000 xent               TSX1    OUTPUT
         6 000030   000000 011000                    NOP     0

       89       39    2               LINELEN = 0;

     39  6 000031   000000 450000 3                  STZ     LINELEN

       90       40    2             END;

     40  6 000032   000046 710000 6                  TRA     s:47

       91       41    1           ELSE
       92       42    2             DO;

       93       43    2               CALL INSERT(LINE,LINELEN,LEN,STR);

     43  6 000033   000000 720100                    LXL0    0,,PR0
         6 000034   000004 740000 0                  STX0    @LEN+2
         6 000035   000001 471400 0                  LDP1    @STR
         6 000036   000004 221000 0                  LDX1    @LEN+2
         6 000037   000000 235000 3                  LDA     LINELEN
         6 000040   040045 100540                    MLR     fill='040'O
         6 000041   100000 000011                    ADSC9   0,,PR1                   cn=0,n=*X1
         6 000042   000000 000010 4                  ADSC9   LINE,A                   cn=0,n=*X0

       94       44    2               LINELEN=LINELEN+LEN;

     44  6 000043   000000 236000 3                  LDQ     LINELEN
         6 000044   000000 036100                    ADLQ    0,,PR0
         6 000045   000000 756000 3                  STQ     LINELEN

       95       45    2             END;

PL6.E3A0      #002=OUT_STR File=IOPACKAGE.:Z8A6TSI                               SAT 08/09/97 09:26 Page:21
       96       46
       97       47    1   END OUT_STR;

     47  6 000046   000000 221200 0                  LDX1  ! 0
         6 000047   000001 702211                    TSX2  ! 1,X1
       98       48        %EOD;

PL6.E3A0      #002=OUT_STR File=IOPACKAGE.:Z8A6TSI                               SAT 08/09/97 09:26 Page:22
      No diagnostics issued in procedure OUT_STR.
PL6.E3A0      #002=OUT_STR File=IOPACKAGE.:Z8A6TSI                               SAT 08/09/97 09:26 Page:23

 **** Variables and constants ****

  ****  Section 000  Data  OUT_STR

  ****  Scalars and arrays  ****
OctLoc.c.b A Datatyp(siz) R M Lvl/name                 OctLoc.c.b A Datatyp(siz) R M Lvl/name

     2-0-0/w PTR         r     1 @LEN                       1-0-0/w PTR         r     1 @STR
    *0-0-0/w SBIN        r     1 LEN                       *0-0-0/c ACHR        r     1 STR

  ****  Section 002 LblCom OUT_DCBN

  ****  Scalars and arrays  ****
OctLoc.c.b A Datatyp(siz) R M Lvl/name                 OctLoc.c.b A Datatyp(siz) R M Lvl/name

     0-0-0/w SBIN              1 OUT_DCBN

  ****  Section 003 LblCom LINELEN

  ****  Scalars and arrays  ****
OctLoc.c.b A Datatyp(siz) R M Lvl/name                 OctLoc.c.b A Datatyp(siz) R M Lvl/name

     0-0-0/w SBIN        r     1 LINELEN

  ****  Section 004 LblCom LINE

  ****  Scalars and arrays  ****
OctLoc.c.b A Datatyp(siz) R M Lvl/name                 OctLoc.c.b A Datatyp(siz) R M Lvl/name

     0-0-0/c CHAR(109)   r     1 LINE

  ****  BASED and DCB variables  ****

  ****  Scalars and arrays  ****
OctLoc.c.b A Datatyp(siz) R M Lvl/name                 OctLoc.c.b A Datatyp(siz) R M Lvl/name

     0-0-0N  NULL        r     1 M$LO
PL6.E3A0      #002=OUT_STR File=IOPACKAGE.:Z8A6TSI                               SAT 08/09/97 09:26 Page:24


   Procedure OUT_STR requires 40 words for executable code.
   Procedure OUT_STR is declared NOAUTO and requires 6 words of local(STATIC) storage.

PL6.E3A0      #003=FLUSH File=IOPACKAGE.:Z8A6TSI                                 SAT 08/09/97 09:26 Page:25
       99        1        /*T***********************************************************/
      100        2        /*T*                                                         */
      101        3        /*T* Copyright (c) Bull HN Information Systems Inc., 1997    */
      102        4        /*T*                                                         */
      103        5        /*T***********************************************************/
      104        6        FLUSH:  PROC NOAUTO;
      105        7
      106        8        /*D*
      107        9               NAME: FLUSH
      108       10            PURPOSE: WRITE THE OUTPUT LINE TO THE CURRENT
      109       11                     OUTPUT FILE.
      110       12        */
      111       13
      112       14    1   DCL M$LO DCB;
      113       15    1   DCL OUT_DCBN SBIN EXT;
      114       16    1   DCL OUT_STR ENTRY(2);
      115       17
      116       18    1   DCL LINELEN SBIN WORD EXT INIT(0);
      117       19        %SUB TEXTLIMIT = 109;
      118       20    1   DCL LINE CHAR(TEXTLIMIT) EXT;
      119       21
      120       22        %INCLUDE CP_6;
      121     5582
      122     5583        %FPT_WRITE(FPTN=OUT_FPT);
      123     5614
      124     5615    1           IF LINELEN>0 THEN
      125     5616    2           DO;
      126     5617    2              OUT_FPT.V.DCB#=OUT_DCBN;
      127     5618    2              OUT_FPT.BUF_=VECTOR(SUBSTR(LINE,0,LINELEN));
      128     5619    2              CALL M$WRITE(OUT_FPT) ALTRET(OMIGOD);
      129     5620    2              END;
      130     5621    1           LINELEN=0;
      131     5622    1           RETURN;
      132     5623
      133     5624    1     OMIGOD:
      134     5625    1        CALL M$MERC;
      135     5626
PL6.E3A0      #003=FLUSH File=IOPACKAGE.:Z8A6TSI                                 SAT 08/09/97 09:26 Page:26
      136     5627    1   END FLUSH;
      137     5628        %EOD;

PL6.E3A0      #003=FLUSH File=IOPACKAGE.:Z8A6TSI                                 SAT 08/09/97 09:26 Page:27
--  Include file information  --

   CP_6_C.:LIB_E04  is referenced.
   CP_6.:LIB_E04  cannot be made into a system file and is referenced.
      No diagnostics issued in procedure FLUSH.

   Procedure FLUSH requires 20 words for executable code.
   Procedure FLUSH is declared NOAUTO and requires 14 words of local(STATIC) storage.

PL6.E3A0      #003=FLUSH File=IOPACKAGE.:Z8A6TSI                                 SAT 08/09/97 09:26 Page:28

 Object Unit name= FLUSH                                      File name= IOPACKAGE.:Z8A6TOU
 UTS= AUG 09 '97 09:26:18.84 SAT                              Compiler= PL-6/E31         Sev=      00
 SharedLib= :SHARED_SYSTEM                                    Alt SharedLib=


    ****  Control sections  ****

 Sect   Type Bound  Init  Size OctSiz  Section name(segment info)
    0   Data  even  none    14     16  FLUSH
    1   DCB   even  none     0      0  M$LO
    2  LblCom even  none     1      1  OUT_DCBN
    3  LblCom even  none     1      1  LINELEN
    4  LblCom even  none    28     34  LINE
    5   DCB   even  none     0      0  M$UC
    6   Proc  even  none    20     24  FLUSH
    7  RoData even  none     1      1  FLUSH

    ****  Entry defs  ****

                              Check   Calling
                             calling  sequence
  Sect OctLoc Primary Altret sequence   type   Parms  Name
     6      0   yes            yes      Std        0  FLUSH

  ****  Data refs  ****

  Flags:  r = read only, s = secondary
Flgs Name                             Flgs Name                             Flgs Name
     M$LO                                  M$UC

  ****  Segment refs  ****

  Flags:  r = read only, s = secondary
Flgs Name                             Flgs Name                             Flgs Name
     ISSID                                 NULLSID
PL6.E3A0      #003=FLUSH File=IOPACKAGE.:Z8A6TSI                                 SAT 08/09/97 09:26 Page:29


       99        1        /*T***********************************************************/
      100        2        /*T*                                                         */
      101        3        /*T* Copyright (c) Bull HN Information Systems Inc., 1997    */
      102        4        /*T*                                                         */
      103        5        /*T***********************************************************/
      104        6        FLUSH:  PROC NOAUTO;

      6  6 000000   000000 741200 0     FLUSH        STX1  ! 0

      105        7
      106        8        /*D*
      107        9               NAME: FLUSH
      108       10            PURPOSE: WRITE THE OUTPUT LINE TO THE CURRENT
      109       11                     OUTPUT FILE.
      110       12        */
      111       13
      112       14    1   DCL M$LO DCB;
      113       15    1   DCL OUT_DCBN SBIN EXT;
      114       16    1   DCL OUT_STR ENTRY(2);
      115       17
      116       18    1   DCL LINELEN SBIN WORD EXT INIT(0);
      117       19        %SUB TEXTLIMIT = 109;
      118       20    1   DCL LINE CHAR(TEXTLIMIT) EXT;
      119       21
      120       22        %INCLUDE CP_6;
      121     5582
      122     5583        %FPT_WRITE(FPTN=OUT_FPT);
      123     5614
      124     5615    1           IF LINELEN>0 THEN

   5615  6 000001   000000 235000 3                  LDA     LINELEN
         6 000002   000015 604400 6                  TMOZ    s:5621

      125     5616    2           DO;

      126     5617    2              OUT_FPT.V.DCB#=OUT_DCBN;
PL6.E3A0      #003=FLUSH File=IOPACKAGE.:Z8A6TSI                                 SAT 08/09/97 09:26 Page:30

   5617  6 000003   000000 720000 2                  LXL0    OUT_DCBN
         6 000004   000012 740000 0                  STX0    OUT_FPT+8

      127     5618    2              OUT_FPT.BUF_=VECTOR(SUBSTR(LINE,0,LINELEN));

   5618  6 000005   000020 735000                    ALS     16
         6 000006   000140 135007                    SBLA    96,DL
         6 000007   000000 236000 7                  LDQ     0
         6 000010   000006 757000 0                  STAQ    OUT_FPT+4

      128     5619    2              CALL M$WRITE(OUT_FPT) ALTRET(OMIGOD);

   5619  6 000011   000002 630400 0                  EPPR0   OUT_FPT
         6 000012   440001 713400                    CLIMB   alt,write
         6 000013   401400 401760                    pmme    nvectors=4
         6 000014   000020 702000 6                  TSX2    OMIGOD

      129     5620    2              END;

      130     5621    1           LINELEN=0;

   5621  6 000015   000000 450000 3                  STZ     LINELEN

      131     5622    1           RETURN;

   5622  6 000016   000000 221200 0                  LDX1  ! 0
         6 000017   000001 702211                    TSX2  ! 1,X1

      132     5623
      133     5624    1     OMIGOD:
      134     5625    1        CALL M$MERC;

   5625  6 000020   010007 713400       OMIGOD       CLIMB   4103
         6 000021   000000 401760                    pmme    nvectors=0

      135     5626
PL6.E3A0      #003=FLUSH File=IOPACKAGE.:Z8A6TSI                                 SAT 08/09/97 09:26 Page:31
      136     5627    1   END FLUSH;

   5627  6 000022   000000 221200 0                  LDX1  ! 0
         6 000023   000001 702211                    TSX2  ! 1,X1
      137     5628        %EOD;

PL6.E3A0      #003=FLUSH File=IOPACKAGE.:Z8A6TSI                                 SAT 08/09/97 09:26 Page:32
--  Include file information  --

   CP_6_C.:LIB_E04  is referenced.
   CP_6.:LIB_E04  cannot be made into a system file and is referenced.
      No diagnostics issued in procedure FLUSH.
PL6.E3A0      #003=FLUSH File=IOPACKAGE.:Z8A6TSI                                 SAT 08/09/97 09:26 Page:33

 **** Variables and constants ****

  ****  Section 000  Data  FLUSH

  ****  Scalars and arrays  ****
OctLoc.c.b A Datatyp(siz) R M Lvl/name                 OctLoc.c.b A Datatyp(siz) R M Lvl/name

     2-0-0/d STRC(432)   r     1 OUT_FPT

  ****  Section 002 LblCom OUT_DCBN

  ****  Scalars and arrays  ****
OctLoc.c.b A Datatyp(siz) R M Lvl/name                 OctLoc.c.b A Datatyp(siz) R M Lvl/name

     0-0-0/w SBIN        r     1 OUT_DCBN

  ****  Section 003 LblCom LINELEN

  ****  Scalars and arrays  ****
OctLoc.c.b A Datatyp(siz) R M Lvl/name                 OctLoc.c.b A Datatyp(siz) R M Lvl/name

     0-0-0/w SBIN        r     1 LINELEN

  ****  Section 004 LblCom LINE

  ****  Scalars and arrays  ****
OctLoc.c.b A Datatyp(siz) R M Lvl/name                 OctLoc.c.b A Datatyp(siz) R M Lvl/name

     0-0-0/c CHAR(109)   r     1 LINE

  ****  BASED and DCB variables  ****

  ****  Scalars and arrays  ****
OctLoc.c.b A Datatyp(siz) R M Lvl/name                 OctLoc.c.b A Datatyp(siz) R M Lvl/name

     0-0-0N  NULL        r     1 M$LO                       0-0-0N  NULL        r     1 M$UC

PL6.E3A0      #003=FLUSH File=IOPACKAGE.:Z8A6TSI                                 SAT 08/09/97 09:26 Page:34

   Procedure FLUSH requires 20 words for executable code.
   Procedure FLUSH is declared NOAUTO and requires 14 words of local(STATIC) storage.

PL6.E3A0      #004=OUTPUT File=IOPACKAGE.:Z8A6TSI                                SAT 08/09/97 09:26 Page:35
      138        1        /*T***********************************************************/
      139        2        /*T*                                                         */
      140        3        /*T* Copyright (c) Bull HN Information Systems Inc., 1997    */
      141        4        /*T*                                                         */
      142        5        /*T***********************************************************/
      143        6        OUTPUT: PROC(BUFFER,LEN) NOAUTO;
      144        7
      145        8        /*D*
      146        9               NAME: OUTPUT
      147       10            PURPOSE: WRITE THE BUFFER TO THE CURRENT OUTPUT FILE.
      148       11        */
      149       12
      150       13
      151       14    1   DCL LEN UBIN;
      152       15    1   DCL BUFFER CHAR(LEN);
      153       16
      154       17
      155       18        %INCLUDE CP_6;
      156     5578
      157     5579    1   DCL OUT_DCBN SBIN WORD EXT;
      158     5580
      159     5581        %FPT_WRITE;
      160     5612
      161     5613    1           IF LEN>0 THEN
      162     5614    2           DO;
      163     5615    2              FPT_WRITE.V.DCB# = OUT_DCBN;
      164     5616    2              FPT_WRITE.BUF_=VECTOR(BUFFER);
      165     5617
      166     5618    2              CALL M$WRITE(FPT_WRITE) ALTRET (OMIGOD);
      167     5619    2              END;
      168     5620
      169     5621    1           LEN = 0;
      170     5622    1           RETURN;
      171     5623
      172     5624    1   OMIGOD:
      173     5625    1           CALL M$MERC;
      174     5626
PL6.E3A0      #004=OUTPUT File=IOPACKAGE.:Z8A6TSI                                SAT 08/09/97 09:26 Page:36
      175     5627    1   END OUTPUT;

PL6.E3A0      #004=OUTPUT File=IOPACKAGE.:Z8A6TSI                                SAT 08/09/97 09:26 Page:37
--  Include file information  --

   CP_6_C.:LIB_E04  is referenced.
   CP_6.:LIB_E04  cannot be made into a system file and is referenced.
      No diagnostics issued in procedure OUTPUT.

   Procedure OUTPUT requires 25 words for executable code.
   Procedure OUTPUT is declared NOAUTO and requires 16 words of local(STATIC) storage.

    No errors detected in file IOPACKAGE.:Z8A6TSI    .

PL6.E3A0      #004=OUTPUT File=IOPACKAGE.:Z8A6TSI                                SAT 08/09/97 09:26 Page:38

 Object Unit name= OUTPUT                                     File name= IOPACKAGE.:Z8A6TOU
 UTS= AUG 09 '97 09:26:58.84 SAT                              Compiler= PL-6/E31         Sev=      00
 SharedLib= :SHARED_SYSTEM                                    Alt SharedLib=


    ****  Control sections  ****

 Sect   Type Bound  Init  Size OctSiz  Section name(segment info)
    0   Data  even  none    16     20  OUTPUT
    1   DCB   even  none     0      0  M$UC
    2  LblCom even  none     1      1  OUT_DCBN
    3   Proc  even  none    25     31  OUTPUT

    ****  Entry defs  ****

                              Check   Calling
                             calling  sequence
  Sect OctLoc Primary Altret sequence   type   Parms  Name
     3      0   yes            yes      Std        2  OUTPUT

  ****  Entry refs  ****

         Check        Calling
        calling       sequence
Altret sequence SRef   type   Args  Name
                       nStd      0 X66_STATIC_2

  ****  Data refs  ****

  Flags:  r = read only, s = secondary
Flgs Name                             Flgs Name                             Flgs Name
     M$UC
PL6.E3A0      #004=OUTPUT File=IOPACKAGE.:Z8A6TSI                                SAT 08/09/97 09:26 Page:39

  ****  Segment refs  ****

  Flags:  r = read only, s = secondary
Flgs Name                             Flgs Name                             Flgs Name
     ISSID                                 NULLSID
PL6.E3A0      #004=OUTPUT File=IOPACKAGE.:Z8A6TSI                                SAT 08/09/97 09:26 Page:40


      138        1        /*T***********************************************************/
      139        2        /*T*                                                         */
      140        3        /*T* Copyright (c) Bull HN Information Systems Inc., 1997    */
      141        4        /*T*                                                         */
      142        5        /*T***********************************************************/
      143        6        OUTPUT: PROC(BUFFER,LEN) NOAUTO;

      6  3 000000   000000 700200 xent  OUTPUT       TSX0  ! X66_STATIC_2
         3 000001   000000 000002 0                  ZERO    0,2

      144        7
      145        8        /*D*
      146        9               NAME: OUTPUT
      147       10            PURPOSE: WRITE THE BUFFER TO THE CURRENT OUTPUT FILE.
      148       11        */
      149       12
      150       13
      151       14    1   DCL LEN UBIN;
      152       15    1   DCL BUFFER CHAR(LEN);
      153       16
      154       17
      155       18        %INCLUDE CP_6;
      156     5578
      157     5579    1   DCL OUT_DCBN SBIN WORD EXT;
      158     5580
      159     5581        %FPT_WRITE;
      160     5612
      161     5613    1           IF LEN>0 THEN

   5613  3 000002   000002 470400 0                  LDP0    @LEN
         3 000003   000000 235100                    LDA     0,,PR0
         3 000004   000021 600000 3                  TZE     s:5621

      162     5614    2           DO;

      163     5615    2              FPT_WRITE.V.DCB# = OUT_DCBN;
PL6.E3A0      #004=OUTPUT File=IOPACKAGE.:Z8A6TSI                                SAT 08/09/97 09:26 Page:41

   5615  3 000005   000000 720000 2                  LXL0    OUT_DCBN
         3 000006   000014 740000 0                  STX0    FPT_WRITE+8

      164     5616    2              FPT_WRITE.BUF_=VECTOR(BUFFER);

   5616  3 000007   000000 721100                    LXL1    0,,PR0
         3 000010   000000 635011                    EAA     0,X1
         3 000011   000002 771000                    ARL     2
         3 000012   000140 135007                    SBLA    96,DL
         3 000013   000001 236000 0                  LDQ     @BUFFER
         3 000014   000010 757000 0                  STAQ    FPT_WRITE+4

      165     5617
      166     5618    2              CALL M$WRITE(FPT_WRITE) ALTRET (OMIGOD);

   5618  3 000015   000004 630400 0                  EPPR0   FPT_WRITE
         3 000016   440001 713400                    CLIMB   alt,write
         3 000017   401400 401760                    pmme    nvectors=4
         3 000020   000025 702000 3                  TSX2    OMIGOD

      167     5619    2              END;

      168     5620
      169     5621    1           LEN = 0;

   5621  3 000021   000002 470400 0                  LDP0    @LEN
         3 000022   000000 450100                    STZ     0,,PR0

      170     5622    1           RETURN;

   5622  3 000023   000000 221200 0                  LDX1  ! 0
         3 000024   000001 702211                    TSX2  ! 1,X1

      171     5623
      172     5624    1   OMIGOD:
      173     5625    1           CALL M$MERC;
PL6.E3A0      #004=OUTPUT File=IOPACKAGE.:Z8A6TSI                                SAT 08/09/97 09:26 Page:42

   5625  3 000025   010007 713400       OMIGOD       CLIMB   4103
         3 000026   000000 401760                    pmme    nvectors=0

      174     5626
      175     5627    1   END OUTPUT;

   5627  3 000027   000000 221200 0                  LDX1  ! 0
         3 000030   000001 702211                    TSX2  ! 1,X1

PL6.E3A0      #004=OUTPUT File=IOPACKAGE.:Z8A6TSI                                SAT 08/09/97 09:26 Page:43
--  Include file information  --

   CP_6_C.:LIB_E04  is referenced.
   CP_6.:LIB_E04  cannot be made into a system file and is referenced.
      No diagnostics issued in procedure OUTPUT.
PL6.E3A0      #004=OUTPUT File=IOPACKAGE.:Z8A6TSI                                SAT 08/09/97 09:26 Page:44

 **** Variables and constants ****

  ****  Section 000  Data  OUTPUT

  ****  Scalars and arrays  ****
OctLoc.c.b A Datatyp(siz) R M Lvl/name                 OctLoc.c.b A Datatyp(siz) R M Lvl/name

     1-0-0/w PTR         r     1 @BUFFER                    2-0-0/w PTR         r     1 @LEN
    *0-0-0/c ACHR        r     1 BUFFER                     4-0-0/d STRC(432)   r     1 FPT_WRITE
    *0-0-0/w UBIN        r     1 LEN

  ****  Section 002 LblCom OUT_DCBN

  ****  Scalars and arrays  ****
OctLoc.c.b A Datatyp(siz) R M Lvl/name                 OctLoc.c.b A Datatyp(siz) R M Lvl/name

     0-0-0/w SBIN        r     1 OUT_DCBN

  ****  BASED and DCB variables  ****

  ****  Scalars and arrays  ****
OctLoc.c.b A Datatyp(siz) R M Lvl/name                 OctLoc.c.b A Datatyp(siz) R M Lvl/name

     0-0-0N  NULL        r     1 M$UC


   Procedure OUTPUT requires 25 words for executable code.
   Procedure OUTPUT is declared NOAUTO and requires 16 words of local(STATIC) storage.

    No errors detected in file IOPACKAGE.:Z8A6TSI    .
