VERSION A06

PL6.E3A0      #001=BREAKOUT File=LALR1BT.:Z8A6TSI                                SAT 08/09/97 10:10 Page:1
        1        1        /*T***********************************************************/
        2        2        /*T*                                                         */
        3        3        /*T* Copyright (c) Bull HN Information Systems Inc., 1997    */
        4        4        /*T*                                                         */
        5        5        /*T***********************************************************/
        6        6        BREAKOUT : PROC MAIN;
        7        7
        8        8        /*
        9        9          This program splits up the tables generated by LALR1 for COBOL85.
       10       10          For correct table generation, this progrm should be run in the
       11       11          following format:
       12       12
       13       13               !TABLE_SPLIT. Z8E_DDPDA OVER Z8E_DDPDA_P   "DATA DIVISION"
       14       14               !TABLE_SPLIT. Z8E_PDPDA OVER Z8E_PDPDA_P   "PROC DIVISION"
       15       15
       16       16          The tables that are generated will be as follows:
       17       17
       18       18               Data division:
       19       19
       20       20                   Z8E_DDPDA_P
       21       21                   Z8E_DDPDA_E
       22       22
       23       23               Procedure division;
       24       24
       25       25                   Z8E_PDPDA_P
       26       26                   Z8E_PDPDA_E1
       27       27                   Z8E_PDPDA_E2
       28       28                   Z8E_PDPDA_E3
       29       29                   Z8E_PDPDA_E4
       30       30                   Z8E_PDPDA_E5
       31       31
       32       32          Future table manipulation can be obtained by changing the table
       33       33          numbers in the case statement.
       34       34
       35       35         */
       36       36
       37       37
PL6.E3A0      #001=BREAKOUT File=LALR1BT.:Z8A6TSI                                SAT 08/09/97 10:10 Page:2
       38       38    1   DCL M$SI DCB;
       39       39    1   DCL M$OU DCB;
       40       40
       41       41    1   DCL LOC(0:50) SBIN;
       42       42    1   DCL LOCN SBIN;
       43       43    1   DCL LFLOCN SBIN;
       44       44
       45       45        %INCLUDE XU_MACRO_C;
       46     3139        %INCLUDE XU_PERR_C;
       47     3330        %INCLUDE B_ERRORS_C;
       48     4456        %INCLUDE B$JIT;
       49     5059        %INCLUDE CP_6;
       50    10619
       51    10620    1   DCL XUU$OPEN ENTRY(1) ALTRET;
       52    10621    1   DCL XUU$CLOSE ENTRY(1) ALTRET;
       53    10622    1   DCL XUU$READ ENTRY(2) ALTRET;
       54    10623
       55    10624    1   DCL B$JIT$ PTR SYMREF;
       56    10625
       57    10626        %XUU_PARAM(BASE=YES);
       58    11061    1   DCL STR CHAR(512);
       59    11062    1   DCL CH CHAR(1);
       60    11063    1   DCL OU_TEXT CHAR(256) STATIC  /* FOR M$UNFID */;
       61    11064    1   DCL TABLES            UBIN;
       62    11065    1   DCL DATA              BIT(1);
       63    11066    1   DCL NEW_FILE          BIT(1);
       64    11067    1   DCL NEW_FILE#         UBIN;
       65    11068
       66    11069        %FPT_UNFID(DCB=M$OU,TEXTFID=OU_TEXT);
       67    11087
       68    11088        %FPT_FID(ACCT=VLP_ACCT,NAME=VLP_NAME,PASS=VLP_PASS,
       69    11089                 SN=VLP_SN,TEXTFID=OU_TEXT,WSN=VLP_WSN,
       70    11090                 RES=SO_OPEN.V.RES#,ASN=SO_OPEN.V.ASN#,
       71    11091                 RESULTS=VLR_FID);
       72    11114
       73    11115        %VLP_ACCT;
       74    11128        %VLP_NAME;
PL6.E3A0      #001=BREAKOUT File=LALR1BT.:Z8A6TSI                                SAT 08/09/97 10:10 Page:3
       75    11155        %VLP_PASS;
       76    11168        %VLP_SN;
       77    11181        %VLP_WSN;
       78    11194        %VLR_FID;
       79    11213
       80    11214        %FPT_OPEN(FPTN=OU_OPEN,FUN=CREATE,ACS=SEQUEN,CTG=YES,
       81    11215                  ORG=CONSEC,DCB=M$OU);
       82    11324
       83    11325        %FPT_OPEN(FPTN=SO_OPEN,FUN=CREATE,ACS=SEQUEN,CTG=YES,
       84    11326                  ORG=CONSEC,DCB=M$OU,ACCT=VLP_ACCT,NAME=VLP_NAME,
       85    11327                  PASS=VLP_PASS,SN=VLP_SN);
       86    11436        %FPT_CLOSE(FPTN=OU_CLOSE,DCB=M$OU);
       87    11478        %FPT_WRITE(FPTN=OUT_FPT);
       88    11509
       89    11510
       90    11511    1     CALL XUU$OPEN(XUU_PARAM) ALTRET(XUU_OPEN_2);
       91    11512    1   XUU_OPEN_2:
       92    11513    1     CALL M$OPEN(OU_OPEN);
       93    11514    1     CALL M$UNFID(FPT_UNFID);
       94    11515    1     CALL M$FID(FPT_FID);
       95    11516
       96    11517    1     NEW_FILE# = 0;
       97    11518    1     TABLES = 0;
       98    11519    1     IF SUBSTR( OU_TEXT, 4, 2 ) = 'DD'   THEN
       99    11520    1       DATA = '1'B;                             /*  DATA DIVISION  */
      100    11521    1     ELSE
      101    11522    1       DATA = '0'B;
      102    11523
      103    11524    1     CALL INSERT( VLP_NAME.NAME#, VLP_NAME.L#-1, 1, 'E' );
      104    11525    1     IF NOT DATA    THEN
      105    11526    1       VLP_NAME.L# = VLP_NAME.L# + 1;
      106    11527
      107    11528    2     DO WHILE '1'B;
      108    11529    2       CALL XUU$READ(XUU_PARAM, VECTOR(STR)) ALTRET(READ_ALT_2);
      109    11530
      110    11531    2       IF SUBSTR(STR,0,12) = '%START_TABLE' THEN
      111    11532    3         DO;
PL6.E3A0      #001=BREAKOUT File=LALR1BT.:Z8A6TSI                                SAT 08/09/97 10:10 Page:4
      112    11533
      113    11534    3           TABLES = TABLES + 1;
      114    11535
      115    11536    4           DO CASE( TABLES );
      116    11537
      117    11538    4             CASE( 6, 11, 12, 14, 15 );
      118    11539
      119    11540    4               NEW_FILE = '1'B;
      120    11541    4               IF TABLES ~= 6  AND  DATA      THEN
      121    11542    4                 NEW_FILE = '0'B;
      122    11543
      123    11544    4             CASE( ELSE );
      124    11545
      125    11546    4               NEW_FILE = '0'B;
      126    11547
      127    11548    4           END;
      128    11549
      129    11550    3           IF NEW_FILE   THEN
      130    11551    4             DO;
      131    11552    4               CALL M$CLOSE( OU_CLOSE );
      132    11553    4               NEW_FILE# = NEW_FILE# + 1;
      133    11554    4               IF NOT DATA  THEN
      134    11555    5                 DO;
      135    11556    5                   CALL BINCHAR(CH, NEW_FILE# );
      136    11557    5                   CALL INSERT( VLP_NAME.NAME#, VLP_NAME.L#-1, 1, CH );
      137    11558    5                 END;
      138    11559    4               CALL M$OPEN(SO_OPEN);
      139    11560    4             END;
      140    11561    3         END;
      141    11562    2       OUT_FPT.V.DCB# = DCBNUM(M$OU);
      142    11563    2       OUT_FPT.BUF_ = VECTOR(SUBSTR(STR,0,XUU_PARAM.ARS));
      143    11564    2       CALL M$WRITE(OUT_FPT);
      144    11565    2     END;
      145    11566    1   READ_ALT_2:
      146    11567
      147    11568    1   END BREAKOUT;

PL6.E3A0      #001=BREAKOUT File=LALR1BT.:Z8A6TSI                                SAT 08/09/97 10:10 Page:5
--  Include file information  --

   CP_6_C.:LIB_E04  is referenced.
   CP_6.:LIB_E04  cannot be made into a system file and is referenced.
   B$JIT_C.:LIB_E04  is referenced.
   B$JIT.:LIB_E04  cannot be made into a system file and is referenced.
   B_ERRORS_C.:LIB_E04  is referenced.
   XU_PERR_C.:LIB_E04  is referenced.
   XU_MACRO_C.:LIB_E04  is referenced.
      No diagnostics issued in procedure BREAKOUT.

   Procedure BREAKOUT requires 118 words for executable code.
   Procedure BREAKOUT requires 196 words of local(AUTO) storage.

    No errors detected in file LALR1BT.:Z8A6TSI    .

PL6.E3A0      #001=BREAKOUT File=LALR1BT.:Z8A6TSI                                SAT 08/09/97 10:10 Page:6

 Object Unit name= BREAKOUT                                   File name= LALR1BT.:Z8A6TOU
 UTS= AUG 09 '97 10:10:31.96 SAT                              Compiler= PL-6/E31         Sev=      00
 SharedLib= :SHARED_SYSTEM                                    Alt SharedLib=


    ****  Control sections  ****

 Sect   Type Bound  Init  Size OctSiz  Section name(segment info)
    0   DCB   even  none     0      0  M$SI
    1   DCB   even  none     0      0  M$OU
    2   DCB   even  none     0      0  M$UC
    3   Data  even  none   310    466  BREAKOUT
    4  RoData even  UTS      4      4  BREAKOUT
    5   Proc  even  none   118    166  BREAKOUT
    6  RoData even  none     5      5  BREAKOUT

    ****  Entry defs  ****

                              Check   Calling
                             calling  sequence
  Sect OctLoc Primary Altret sequence   type   Parms  Name
     5      0   yes            yes      Main       0  BREAKOUT

  ****  Entry refs  ****

         Check        Calling
        calling       sequence
Altret sequence SRef   type   Args  Name
 yes     yes           Std       1 XUU$OPEN
 yes     yes           Std       2 XUU$READ
                       nStd      0 X66_MAUTO
                       nStd      0 X66_MARET
PL6.E3A0      #001=BREAKOUT File=LALR1BT.:Z8A6TSI                                SAT 08/09/97 10:10 Page:7

  ****  Data refs  ****

  Flags:  r = read only, s = secondary
Flgs Name                             Flgs Name                             Flgs Name
     M$SI                                  M$OU                                  M$UC
     B$JIT$

  ****  Segment refs  ****

  Flags:  r = read only, s = secondary
Flgs Name                             Flgs Name                             Flgs Name
     ISSID                                 NULLSID
PL6.E3A0      #001=BREAKOUT File=LALR1BT.:Z8A6TSI                                SAT 08/09/97 10:10 Page:8


        1        1        /*T***********************************************************/
        2        2        /*T*                                                         */
        3        3        /*T* Copyright (c) Bull HN Information Systems Inc., 1997    */
        4        4        /*T*                                                         */
        5        5        /*T***********************************************************/
        6        6        BREAKOUT : PROC MAIN;

      6  5 000000   000000 700200 xent  BREAKOUT     TSX0  ! X66_MAUTO
         5 000001   000304 000000                    ZERO    196,0

        7        7
        8        8        /*
        9        9          This program splits up the tables generated by LALR1 for COBOL85.
       10       10          For correct table generation, this progrm should be run in the
       11       11          following format:
       12       12
       13       13               !TABLE_SPLIT. Z8E_DDPDA OVER Z8E_DDPDA_P   "DATA DIVISION"
       14       14               !TABLE_SPLIT. Z8E_PDPDA OVER Z8E_PDPDA_P   "PROC DIVISION"
       15       15
       16       16          The tables that are generated will be as follows:
       17       17
       18       18               Data division:
       19       19
       20       20                   Z8E_DDPDA_P
       21       21                   Z8E_DDPDA_E
       22       22
       23       23               Procedure division;
       24       24
       25       25                   Z8E_PDPDA_P
       26       26                   Z8E_PDPDA_E1
       27       27                   Z8E_PDPDA_E2
       28       28                   Z8E_PDPDA_E3
       29       29                   Z8E_PDPDA_E4
       30       30                   Z8E_PDPDA_E5
       31       31
       32       32          Future table manipulation can be obtained by changing the table
PL6.E3A0      #001=BREAKOUT File=LALR1BT.:Z8A6TSI                                SAT 08/09/97 10:10 Page:9
       33       33          numbers in the case statement.
       34       34
       35       35         */
       36       36
       37       37
       38       38    1   DCL M$SI DCB;
       39       39    1   DCL M$OU DCB;
       40       40
       41       41    1   DCL LOC(0:50) SBIN;
       42       42    1   DCL LOCN SBIN;
       43       43    1   DCL LFLOCN SBIN;
       44       44
       45       45        %INCLUDE XU_MACRO_C;
       46     3139        %INCLUDE XU_PERR_C;
       47     3330        %INCLUDE B_ERRORS_C;
       48     4456        %INCLUDE B$JIT;
       49     5059        %INCLUDE CP_6;
       50    10619
       51    10620    1   DCL XUU$OPEN ENTRY(1) ALTRET;
       52    10621    1   DCL XUU$CLOSE ENTRY(1) ALTRET;
       53    10622    1   DCL XUU$READ ENTRY(2) ALTRET;
       54    10623
       55    10624    1   DCL B$JIT$ PTR SYMREF;
       56    10625
       57    10626        %XUU_PARAM(BASE=YES);
       58    11061    1   DCL STR CHAR(512);
       59    11062    1   DCL CH CHAR(1);
       60    11063    1   DCL OU_TEXT CHAR(256) STATIC  /* FOR M$UNFID */;
       61    11064    1   DCL TABLES            UBIN;
       62    11065    1   DCL DATA              BIT(1);
       63    11066    1   DCL NEW_FILE          BIT(1);
       64    11067    1   DCL NEW_FILE#         UBIN;
       65    11068
       66    11069        %FPT_UNFID(DCB=M$OU,TEXTFID=OU_TEXT);
       67    11087
       68    11088        %FPT_FID(ACCT=VLP_ACCT,NAME=VLP_NAME,PASS=VLP_PASS,
       69    11089                 SN=VLP_SN,TEXTFID=OU_TEXT,WSN=VLP_WSN,
PL6.E3A0      #001=BREAKOUT File=LALR1BT.:Z8A6TSI                                SAT 08/09/97 10:10 Page:10
       70    11090                 RES=SO_OPEN.V.RES#,ASN=SO_OPEN.V.ASN#,
       71    11091                 RESULTS=VLR_FID);
       72    11114
       73    11115        %VLP_ACCT;
       74    11128        %VLP_NAME;
       75    11155        %VLP_PASS;
       76    11168        %VLP_SN;
       77    11181        %VLP_WSN;
       78    11194        %VLR_FID;
       79    11213
       80    11214        %FPT_OPEN(FPTN=OU_OPEN,FUN=CREATE,ACS=SEQUEN,CTG=YES,
       81    11215                  ORG=CONSEC,DCB=M$OU);
       82    11324
       83    11325        %FPT_OPEN(FPTN=SO_OPEN,FUN=CREATE,ACS=SEQUEN,CTG=YES,
       84    11326                  ORG=CONSEC,DCB=M$OU,ACCT=VLP_ACCT,NAME=VLP_NAME,
       85    11327                  PASS=VLP_PASS,SN=VLP_SN);
       86    11436        %FPT_CLOSE(FPTN=OU_CLOSE,DCB=M$OU);
       87    11478        %FPT_WRITE(FPTN=OUT_FPT);
       88    11509
       89    11510
       90    11511    1     CALL XUU$OPEN(XUU_PARAM) ALTRET(XUU_OPEN_2);

  11511  5 000002   000001 630400 6                  EPPR0   1
         5 000003   000000 631400 6                  EPPR1   0
         5 000004   000000 701000 xent               TSX1    XUU$OPEN
         5 000005   000006 702000 5                  TSX2    XUU_OPEN_2

       91    11512    1   XUU_OPEN_2:
       92    11513    1     CALL M$OPEN(OU_OPEN);

  11513  5 000006   000230 630400 3     XUU_OPEN_2   EPPR0   OU_OPEN
         5 000007   050000 713400                    CLIMB   open
         5 000010   410400 401760                    pmme    nvectors=18

       93    11514    1     CALL M$UNFID(FPT_UNFID);

  11514  5 000011   000116 630400 3                  EPPR0   FPT_UNFID
PL6.E3A0      #001=BREAKOUT File=LALR1BT.:Z8A6TSI                                SAT 08/09/97 10:10 Page:11
         5 000012   020021 713400                    CLIMB   8209
         5 000013   404400 401760                    pmme    nvectors=10

       94    11515    1     CALL M$FID(FPT_FID);

  11515  5 000014   000144 630400 3                  EPPR0   FPT_FID
         5 000015   020001 713400                    CLIMB   8193
         5 000016   404400 401760                    pmme    nvectors=10

       95    11516
       96    11517    1     NEW_FILE# = 0;

  11517  5 000017   200274 450100                    STZ     NEW_FILE#,,AUTO

       97    11518    1     TABLES = 0;

  11518  5 000020   200271 450100                    STZ     TABLES,,AUTO

       98    11519    1     IF SUBSTR( OU_TEXT, 4, 2 ) = 'DD'   THEN

  11519  5 000021   000017 220000 3                  LDX0    OU_TEXT+1
         5 000022   000000 100000 4                  CMPX0   0
         5 000023   000027 601000 5                  TNZ     s:11522

       99    11520    1       DATA = '1'B;                             /*  DATA DIVISION  */

  11520  5 000024   400000 236003                    LDQ     -131072,DU
         5 000025   200272 756100                    STQ     DATA,,AUTO
         5 000026   000030 710000 5                  TRA     s:11524

      100    11521    1     ELSE
      101    11522    1       DATA = '0'B;

  11522  5 000027   200272 450100                    STZ     DATA,,AUTO

      102    11523
      103    11524    1     CALL INSERT( VLP_NAME.NAME#, VLP_NAME.L#-1, 1, 'E' );
PL6.E3A0      #001=BREAKOUT File=LALR1BT.:Z8A6TSI                                SAT 08/09/97 10:10 Page:12

  11524  5 000030   000176 236000 3                  LDQ     VLP_NAME
         5 000031   000033 772000                    QRL     27
         5 000032   040006 100400                    MLR     fill='040'O
         5 000033   000002 000001 6                  ADSC9   2                        cn=0,n=1
         5 000034   000176 000001 3                  ADSC9   VLP_NAME,Q               cn=0,n=1

      104    11525    1     IF NOT DATA    THEN

  11525  5 000035   200272 234100                    SZN     DATA,,AUTO
         5 000036   000042 604000 5                  TMI     s:11529

      105    11526    1       VLP_NAME.L# = VLP_NAME.L# + 1;

  11526  5 000037   000176 236000 3                  LDQ     VLP_NAME
         5 000040   001000 036003                    ADLQ    512,DU
         5 000041   000176 552040 3                  STBQ    VLP_NAME,'40'O

      106    11527
      107    11528    2     DO WHILE '1'B;

      108    11529    2       CALL XUU$READ(XUU_PARAM, VECTOR(STR)) ALTRET(READ_ALT_2);

  11529  5 000042   000003 235000 6                  LDA     3
         5 000043   200276 452500                    STP2    NEW_FILE#+2,,AUTO
         5 000044   200276 236100                    LDQ     NEW_FILE#+2,,AUTO
         5 000045   000070 036003                    ADLQ    56,DU
         5 000046   200300 757100                    STAQ    NEW_FILE#+4,,AUTO
         5 000047   200300 630500                    EPPR0   NEW_FILE#+4,,AUTO
         5 000050   200303 450500                    STP0    NEW_FILE#+7,,AUTO
         5 000051   000001 236000 6                  LDQ     1
         5 000052   200302 756100                    STQ     NEW_FILE#+6,,AUTO
         5 000053   200302 630500                    EPPR0   NEW_FILE#+6,,AUTO
         5 000054   000004 631400 6                  EPPR1   4
         5 000055   000000 701000 xent               TSX1    XUU$READ
         5 000056   000165 702000 5                  TSX2    READ_ALT_2

PL6.E3A0      #001=BREAKOUT File=LALR1BT.:Z8A6TSI                                SAT 08/09/97 10:10 Page:13
      109    11530
      110    11531    2       IF SUBSTR(STR,0,12) = '%START_TABLE' THEN

  11531  5 000057   040000 106500                    CMPC    fill='040'O
         5 000060   200070 000014                    ADSC9   STR,,AUTO                cn=0,n=12
         5 000061   000001 000014 4                  ADSC9   1                        cn=0,n=12
         5 000062   000145 601000 5                  TNZ     s:11562

      111    11532    3         DO;

      112    11533
      113    11534    3           TABLES = TABLES + 1;

  11534  5 000063   200271 235100                    LDA     TABLES,,AUTO
         5 000064   000001 035007                    ADLA    1,DL
         5 000065   200271 755100                    STA     TABLES,,AUTO

      114    11535
      115    11536    4           DO CASE( TABLES );

  11536  5 000066   000006 135007                    SBLA    6,DL
         5 000067   000012 115007                    CMPA    10,DL
         5 000070   000072 602005 5                  TNC     s:11536+4,AL
         5 000071   000115 710000 5                  TRA     s:11546
         5 000072   000104 710000 5                  TRA     s:11540
         5 000073   000115 710000 5                  TRA     s:11546
         5 000074   000115 710000 5                  TRA     s:11546
         5 000075   000115 710000 5                  TRA     s:11546
         5 000076   000115 710000 5                  TRA     s:11546
         5 000077   000104 710000 5                  TRA     s:11540
         5 000100   000104 710000 5                  TRA     s:11540
         5 000101   000115 710000 5                  TRA     s:11546
         5 000102   000104 710000 5                  TRA     s:11540
         5 000103   000104 710000 5                  TRA     s:11540

      116    11537
      117    11538    4             CASE( 6, 11, 12, 14, 15 );
PL6.E3A0      #001=BREAKOUT File=LALR1BT.:Z8A6TSI                                SAT 08/09/97 10:10 Page:14

      118    11539
      119    11540    4               NEW_FILE = '1'B;

  11540  5 000104   400000 236003                    LDQ     -131072,DU
         5 000105   200273 756100                    STQ     NEW_FILE,,AUTO

      120    11541    4               IF TABLES ~= 6  AND  DATA      THEN

  11541  5 000106   200271 235100                    LDA     TABLES,,AUTO
         5 000107   000006 115007                    CMPA    6,DL
         5 000110   000116 600000 5                  TZE     s:11550
         5 000111   200272 234100                    SZN     DATA,,AUTO
         5 000112   000116 605000 5                  TPL     s:11550

      121    11542    4                 NEW_FILE = '0'B;

  11542  5 000113   200273 450100                    STZ     NEW_FILE,,AUTO
         5 000114   000116 710000 5                  TRA     s:11550

      122    11543
      123    11544    4             CASE( ELSE );

      124    11545
      125    11546    4               NEW_FILE = '0'B;

  11546  5 000115   200273 450100                    STZ     NEW_FILE,,AUTO

      126    11547
      127    11548    4           END;

      128    11549
      129    11550    3           IF NEW_FILE   THEN

  11550  5 000116   200273 234100                    SZN     NEW_FILE,,AUTO
         5 000117   000145 605000 5                  TPL     s:11562

PL6.E3A0      #001=BREAKOUT File=LALR1BT.:Z8A6TSI                                SAT 08/09/97 10:10 Page:15
      130    11551    4             DO;

      131    11552    4               CALL M$CLOSE( OU_CLOSE );

  11552  5 000120   000414 630400 3                  EPPR0   OU_CLOSE
         5 000121   050001 713400                    CLIMB   close
         5 000122   406000 401760                    pmme    nvectors=13

      132    11553    4               NEW_FILE# = NEW_FILE# + 1;

  11553  5 000123   200274 235100                    LDA     NEW_FILE#,,AUTO
         5 000124   000001 035007                    ADLA    1,DL
         5 000125   200274 755100                    STA     NEW_FILE#,,AUTO

      133    11554    4               IF NOT DATA  THEN

  11554  5 000126   200272 234100                    SZN     DATA,,AUTO
         5 000127   000142 604000 5                  TMI     s:11559

      134    11555    5                 DO;

      135    11556    5                   CALL BINCHAR(CH, NEW_FILE# );

  11556  5 000130   000044 773000                    LRL     36
         5 000131   200276 757100                    STAQ    NEW_FILE#+2,,AUTO
         5 000132   000100 301500                    BTD
         5 000133   200276 000010                    NDSC9   NEW_FILE#+2,,AUTO        cn=0,s=lsgnf,sf=0,n=8
         5 000134   200270 030001                    NDSC9   CH,,AUTO                 cn=0,s=nosgn,sf=0,n=1

      136    11557    5                   CALL INSERT( VLP_NAME.NAME#, VLP_NAME.L#-1, 1, CH );

  11557  5 000135   000176 236000 3                  LDQ     VLP_NAME
         5 000136   000033 772000                    QRL     27
         5 000137   040006 100500                    MLR     fill='040'O
         5 000140   200270 000001                    ADSC9   CH,,AUTO                 cn=0,n=1
         5 000141   000176 000001 3                  ADSC9   VLP_NAME,Q               cn=0,n=1

PL6.E3A0      #001=BREAKOUT File=LALR1BT.:Z8A6TSI                                SAT 08/09/97 10:10 Page:16
      137    11558    5                 END;

      138    11559    4               CALL M$OPEN(SO_OPEN);

  11559  5 000142   000322 630400 3                  EPPR0   SO_OPEN
         5 000143   050000 713400                    CLIMB   open
         5 000144   410400 401760                    pmme    nvectors=18

      139    11560    4             END;

      140    11561    3         END;

      141    11562    2       OUT_FPT.V.DCB# = DCBNUM(M$OU);

  11562  5 000145   000000 236007 xsym               LDQ     M$OU,DL
         5 000146   000000 620006                    EAX0    0,QL
         5 000147   000462 740000 3                  STX0    OUT_FPT+8

      142    11563    2       OUT_FPT.BUF_ = VECTOR(SUBSTR(STR,0,XUU_PARAM.ARS));

  11563  5 000150   000000 721000 3                  LXL1    XUU_PARAM
         5 000151   000777 361003                    ANX1    511,DU
         5 000152   000000 635011                    EAA     0,X1
         5 000153   000002 771000                    ARL     2
         5 000154   000140 135007                    SBLA    96,DL
         5 000155   200276 452500                    STP2    NEW_FILE#+2,,AUTO
         5 000156   200276 236100                    LDQ     NEW_FILE#+2,,AUTO
         5 000157   000070 036003                    ADLQ    56,DU
         5 000160   000456 757000 3                  STAQ    OUT_FPT+4

      143    11564    2       CALL M$WRITE(OUT_FPT);

  11564  5 000161   000452 630400 3                  EPPR0   OUT_FPT
         5 000162   040001 713400                    CLIMB   write
         5 000163   401400 401760                    pmme    nvectors=4

      144    11565    2     END;
PL6.E3A0      #001=BREAKOUT File=LALR1BT.:Z8A6TSI                                SAT 08/09/97 10:10 Page:17

  11565  5 000164   000042 710000 5                  TRA     s:11529

      145    11566    1   READ_ALT_2:
      146    11567
      147    11568    1   END BREAKOUT;

  11568  5 000165                       READ_ALT_2   null
  11568  5 000165   000000 702200 xent               TSX2  ! X66_MARET

PL6.E3A0      #001=BREAKOUT File=LALR1BT.:Z8A6TSI                                SAT 08/09/97 10:10 Page:18
--  Include file information  --

   CP_6_C.:LIB_E04  is referenced.
   CP_6.:LIB_E04  cannot be made into a system file and is referenced.
   B$JIT_C.:LIB_E04  is referenced.
   B$JIT.:LIB_E04  cannot be made into a system file and is referenced.
   B_ERRORS_C.:LIB_E04  is referenced.
   XU_PERR_C.:LIB_E04  is referenced.
   XU_MACRO_C.:LIB_E04  is referenced.
      No diagnostics issued in procedure BREAKOUT.
PL6.E3A0      #001=BREAKOUT File=LALR1BT.:Z8A6TSI                                SAT 08/09/97 10:10 Page:19

 **** Variables and constants ****

  ****  Section 003  Data  BREAKOUT

  ****  Scalars and arrays  ****
OctLoc.c.b A Datatyp(siz) R M Lvl/name                 OctLoc.c.b A Datatyp(siz) R M Lvl/name

   144-0-0/d STRC(864)   r     1 FPT_FID                  116-0-0/d STRC(792)   r     1 FPT_UNFID
   452-0-0/d STRC(432)   r     1 OUT_FPT                  414-0-0/d STRC(1080)  r     1 OU_CLOSE
   230-0-0/d STRC(2088)  r     1 OU_OPEN                   16-0-0/c CHAR(256)   r     1 OU_TEXT
   322-0-0/d STRC(2088)  r     1 SO_OPEN                  174-0-0/c STRC(72)    r     1 VLP_ACCT
   176-0-0/c STRC(288)   r     1 VLP_NAME                 206-0-0/c STRC(72)    r     1 VLP_PASS
   210-0-0/d STRC(90)    r     1 VLP_SN                   214-0-0/c STRC(72)    r     1 VLP_WSN
   216-0-0/d STRC(324)   r     1 VLR_FID                    0-0-0/w STRC(504)   r     1 XUU_PARAM

  ****  Auto variables  ****

  ****  Scalars and arrays  ****
OctLoc.c.b A Datatyp(siz) R M Lvl/name                 OctLoc.c.b A Datatyp(siz) R M Lvl/name

   270-0-0/c CHAR        r     1 CH                       272-0-0/b BIT         r     1 DATA
    67-0-0/w SBIN              1 LFLOCN                     3-0-0/w SBIN              1 LOC(0:50)
    66-0-0/w SBIN              1 LOCN                     273-0-0/b BIT         r     1 NEW_FILE
   274-0-0/w UBIN        r     1 NEW_FILE#                 70-0-0/c CHAR(512)   r     1 STR
   271-0-0/w UBIN        r     1 TABLES

  ****  SYMREF variables  ****

  ****  Scalars and arrays  ****
OctLoc.c.b A Datatyp(siz) R M Lvl/name                 OctLoc.c.b A Datatyp(siz) R M Lvl/name

     0-0-0/w PTR         r     1 B$JIT$

  ****  BASED and DCB variables  ****

  ****  Scalars and arrays  ****
OctLoc.c.b A Datatyp(siz) R M Lvl/name                 OctLoc.c.b A Datatyp(siz) R M Lvl/name
PL6.E3A0      #001=BREAKOUT File=LALR1BT.:Z8A6TSI                                SAT 08/09/97 10:10 Page:20

     0-0-0/d STRC(8856)        1 B$JIT                      0-0-0N  NULL        r     1 M$OU
     0-0-0N  NULL        r     1 M$SI                       0-0-0N  NULL        r     1 M$UC


   Procedure BREAKOUT requires 118 words for executable code.
   Procedure BREAKOUT requires 196 words of local(AUTO) storage.

    No errors detected in file LALR1BT.:Z8A6TSI    .
