VERSION A06

 09:25 08/09/97  FILE=LR_BITOPS.:Z8A6TSI                                                                 1    BMAP - B00
                                         1  *M*      IMPLEMENTS BIT OPERATIONS AND,OR,XOR AND NOT USING CSL INSTRUCTIONS
                                         2  *T***********************************************************
                                         3  *T*                                                         *
                                         4  *T* Copyright (c) Bull HN Information Systems Inc., 1997    *
                                         5  *T*                                                         *
                                         6  *T***********************************************************
                                         7  *P*      NAME: BITAND
                                         8  *P*      ARGUMENTS: A BIT(N) UNAL,B BIT(N) UNAL, N SBIN
                                         9  *P*      PURPOSE:   A=A & B AS A VARYING LENGTH BITSTRING
                                        10  *P*      SIMILAR ROUTINES: BITOR,BITXOR,BITNOT
                                        11  *
             000000000001               12  X1       EQU       1
             000000000002               13  X2       EQU       2
             000000000000               14  PR0      EQU       0
             000000000001               15  PR1      EQU       1
             000000000002               16  PR2      EQU       2
             000000000003               17  PR3      EQU       3
             000000000004               18  PR4      EQU       4
             000000000005               19  PR5      EQU       5
                                        20           ENTDEF    BITAND
 0 000000    0 00000 4735 00            21  BITAND   LDP3      0,,PR0
   000001    0 00001 4745 00            22           LDP4      1,,PR0
   000002    0 00002 4755 00            23           LDP5      2,,PR0
   000003    5 00000 7201 00            24           LXL0      0,,PR5
   000004    1 00 01 0 140 0605 40      25           CSL       (1,1),(1,1),1,1
   000005    4 00000 0 00 0010          26           BDSC      0,8,,,PR4     RIGHT HAND ARGUMENT LENGTH *X0
   000006    3 00000 0 00 0010          27           BDSC      0,8,,,PR3     LEFT HAND  ARGUMENT LENGTH *X0
   000007    000001 7020 11             28           TSX2      1,X1
                                        29           ENTDEF    BITOR
   000010    0 00000 4735 00            30  BITOR    LDP3      0,,PR0
   000011    0 00001 4745 00            31           LDP4      1,,PR0
   000012    0 00002 4755 00            32           LDP5      2,,PR0
   000013    5 00000 7201 00            33           LXL0      0,,PR5
   000014    1 00 07 0 140 0605 40      34           CSL       (1,1),(1,1),7,1
   000015    4 00000 0 00 0010          35           BDSC      0,8,,,PR4     RIGHT HAND ARGUMENT LENGTH *X0
   000016    3 00000 0 00 0010          36           BDSC      0,8,,,PR3     LEFT HAND  ARGUMENT LENGTH *X0
   000017    000001 7020 11             37           TSX2      1,X1
 09:25 08/09/97  FILE=LR_BITOPS.:Z8A6TSI                                                                 2    BMAP - B00
                                        38           ENTDEF    BITXOR
   000020    0 00000 4735 00            39  BITXOR   LDP3      0,,PR0
   000021    0 00001 4745 00            40           LDP4      1,,PR0
   000022    0 00002 4755 00            41           LDP5      2,,PR0
   000023    5 00000 7201 00            42           LXL0      0,,PR5
   000024    1 00 06 0 140 0605 40      43           CSL       (1,1),(1,1),6,1
   000025    4 00000 0 00 0010          44           BDSC      0,8,,,PR4     RIGHT HAND ARGUMENT LENGTH *X0
   000026    3 00000 0 00 0010          45           BDSC      0,8,,,PR3     LEFT HAND  ARGUMENT LENGTH *X0
   000027    000001 7020 11             46           TSX2      1,X1
                                        47           ENTDEF    BITNOT
   000030    0 00000 4735 00            48  BITNOT   LDP3      0,,PR0
   000031    0 00001 4745 00            49           LDP4      1,,PR0
   000032    0 00002 4755 00            50           LDP5      2,,PR0
   000033    5 00000 7201 00            51           LXL0      0,,PR5
   000034    1 00 14 0 140 0605 40      52           CSL       (1,1),(1,1),14,1
   000035    4 00000 0 00 0010          53           BDSC      0,8,,,PR4     RIGHT HAND ARGUMENT LENGTH *X0
   000036    3 00000 0 00 0010          54           BDSC      0,8,,,PR3     LEFT HAND  ARGUMENT LENGTH *X0
   000037    000001 7020 11             55           TSX2      1,X1
                                        56           END

  CONTROL SECTION TABLE

   0 CODE   EVEN  000040
   1 RODATA EVEN  000000 LITERALS

      12 SYMBOLS

       0 MACROS

    SYMBOL SPACE USED    84 WORDS
     MACRO SPACE USED     0 WORDS
   INPUT RECORDS READ   112
 STATEMENTS PROCESSED    54
         ELAPSED TIME  0:02.44
             CPU TIME     0.50 SEC.
        ASSEMBLY RATE  6480 STATEMENTS/CPU MIN.

 09:25 08/09/97  FILE=LR_BITOPS.:Z8A6TSI                                                                 3    BMAP - B00
      NO ERRORS

