VERSION A06

PL6.E3A0      #001=CPRNT File=LR_CPRNT.:Z8A6TSI                                  SAT 08/09/97 09:27 Page:1
        1        1        /*M* CPRNT => PRINT CONFIGURATION SETS */
        2        2        /*T***********************************************************/
        3        3        /*T*                                                         */
        4        4        /*T* Copyright (c) Bull HN Information Systems Inc., 1997    */
        5        5        /*T*                                                         */
        6        6        /*T***********************************************************/
        7        7
        8        8
        9        9
       10       10
       11       11        /*D*
       12       12               NAME: CPRNT
       13       13            PURPOSE: PRINT THE CONFIGURATION SETS(STATES) FOR THE
       14       14                     GRAMMAR BEING ANALYZED.
       15       15        */
       16       16
       17       17
       18       18        CPRNT:  PROC(CONFIG_NUM,PROD_NO,DOT_POS);
       19       19
       20       20        /* IF CONFIG_NUM = NIL, ALL CONFIGURATIONS SETS
       21       21           WILL BE PRINTED, OTHERWISE, ONLY THE ONE DESIGNATED.
       22       22        */
       23       23
       24       24        %INCLUDE LR_GRAM_EXT;
       25      563        %INCLUDE LR_CNFG_EXT;
       26      716
       27      717    1   DCL ENTER_LINE ENTRY(2);
       28      718    1   DCL PRINT_PROD ENTRY(3);
       29      719    1   DCL OUT_STR ENTRY(2);
       30      720    1   DCL OUT_TOKEN ENTRY(2);
       31      721    1   DCL OUT_SYMBOL ENTRY(1);
       32      722    1   DCL OUT_SYMBOL_TOKEN ENTRY(1);
       33      723    1   DCL FLUSH ENTRY;
       34      724    1   DCL PRINT_ITEM ENTRY(3);
       35      725
       36      726
       37      727    1   DCL CSLOW      SBIN;
PL6.E3A0      #001=CPRNT File=LR_CPRNT.:Z8A6TSI                                  SAT 08/09/97 09:27 Page:2
       38      728    1   DCL CSHI       SBIN;
       39      729    1   DCL CONFIG_NUM SBIN;
       40      730    1   DCL PROD_NO    SBIN;
       41      731    1   DCL DOT_POS    SBIN;
       42      732    1   DCL C          SBIN;
       43      733    1   DCL P          SBIN;   /* CURRENT PRODUCTION BEING PRINTED */
       44      734    1   DCL R          SBIN;   /* INDEX INTO RIGHT HAND ELEMENTS OF PRODUCTION P */
       45      735    1   DCL S          SBIN;   /* INDEX INTO SYM_PTRS (IE., A SYMBOL) */
       46      736    1   DCL LAS$       PTR;
       47      737    1   DCL KEY$       PTR;
       48      738    1   DCL KEY_POS    SBIN;
       49      739    1   DCL CONFIG_TEXT_NO CHAR(4);
       50      740
       51      741    1   DCL 1 FALIGN ALIGNED BASED(FSET$),
       52      742    1         2 FSET(0:35) BIT(1) UNAL;
       53      743    1   DCL FSET$ PTR;
       54      744
       55      745    1   DCL E  SBIN;
       56      746    1   DCL DP SBIN;
       57      747
       58      748        %EJECT;
PL6.E3A0      #001=CPRNT File=LR_CPRNT.:Z8A6TSI                                  SAT 08/09/97 09:27 Page:3
       59      749                 /* MAIN BODY OF CPRINT */
       60      750
       61      751        /* DETERMINE WHETHER ALL SETS WILL BE PRINTED OR JUST ONE */
       62      752
       63      753                %SELECT_LO;
       64      756
       65      757    1           IF ADDR(CONFIG_NUM)=ADDR(NIL) THEN
       66      758    2           DO;
       67      759                   %OUTLINE(S="' '");
       68      765                   %OUTLINE(S="' '");
       69      771                   %OUTLINE(S="'======'");
       70      777                   %OUTLINE(S="'STATES'");
       71      783                   %OUTLINE(S="'======'");
       72      789    2              CSLOW=0;
       73      790    2              CSHI=NR_CONFIG-1;
       74      791    2              END;
       75      792    1           ELSE
       76      793    2           DO;
       77      794    2              CSLOW=CONFIG_NUM;
       78      795    2              CSHI=CONFIG_NUM;
       79      796    2              END;
       80      797
       81      798    2           DO C=CSLOW TO CSHI;
       82      799                   %OUTLINE(S="' '");
       83      805
       84      806    2              CALL BINCHAR(CONFIG_TEXT_NO,C);
       85      807
       86      808    2              S=C#_TO_$(C)->C_SET_B.KEY$->KEY_B.W.SYM_AFTER;
       87      809
       88      810                   %OUT_STR(S="'State #'");
       89      813    2              CALL OUT_STR(CONFIG_TEXT_NO, LENGTHC(CONFIG_TEXT_NO));
       90      814                   %OUT_STR(S="' which is accessed by '");
       91      817    2              CALL OUT_SYMBOL(SYM_PTRS(S));
       92      818                   %OUTLINE(S="' is composed of the following items:'");
       93      824
       94      825
       95      826                   %OUTLINE(S="' '");
PL6.E3A0      #001=CPRNT File=LR_CPRNT.:Z8A6TSI                                  SAT 08/09/97 09:27 Page:4
       96      832
       97      833    3              DO E=0 TO C#_TO_$(C)->C_SET_B.NR_ELEM-1;
       98      834
       99      835    3                 KEY$=C#_TO_$(C)->C_SET_B.ELEM.KEY$(E);
      100      836
      101      837    4                 DO KEY_POS=0 TO KEY$->KEY_B.W.ELEM_COUNT-1;
      102      838
      103      839    4                    CALL PRINT_ITEM(C, E, KEY_POS);
      104      840
      105      841    4                    IF KEY$->KEY_B.W.SYM_AFTER=0 AND
      106      842    4                      KEY$->KEY_B.FOLLOW$->INCL_B.SET_STATE=
      107      843    4                      SET_STATE_CALC THEN
      108      844
      109      845    5                    DO;
      110      846
      111      847    5                       FSET$=ADDR(KEY$->KEY_B.FOLLOW$->INCL_B.SET);
      112      848
      113      849
      114      850                            %OUT_STR(S="' Lookahead Symbols:'");
      115      853    6                       DO R=1 TO NR_TERM;
      116      854    6                          IF FALIGN.FSET(R) THEN
      117      855    6                             CALL OUT_SYMBOL_TOKEN(SYM_PTRS(R));
      118      856    6                          END;
      119      857
      120      858    5                       CALL FLUSH;
      121      859
      122      860    5                       END;
      123      861
      124      862    4                    END /* KEY */;
      125      863    3                 END /* PRODUCTION */;
      126      864
      127      865    2              END /*CONFIG */;
      128      866
      129      867    1           RETURN;
      130      868
      131      869    1   END CPRNT;
      132      870        %EOD;
PL6.E3A0      #001=CPRNT File=LR_CPRNT.:Z8A6TSI                                  SAT 08/09/97 09:27 Page:5

PL6.E3A0      #001=CPRNT File=LR_CPRNT.:Z8A6TSI                                  SAT 08/09/97 09:27 Page:6
--  Include file information  --

   LR_CNFG_EXT.:Z8A6TOU  cannot be made into a system file and is referenced.
   LR_IO_EXT.:Z8A6TOU  cannot be made into a system file and is referenced.
   LR_GRAM_EXT.:Z8A6TOU  cannot be made into a system file and is referenced.
      No diagnostics issued in procedure CPRNT.

   Procedure CPRNT requires 184 words for executable code.
   Procedure CPRNT requires 24 words of local(AUTO) storage.

PL6.E3A0      #001=CPRNT File=LR_CPRNT.:Z8A6TSI                                  SAT 08/09/97 09:27 Page:7

 Object Unit name= CPRNT                                      File name= LR_CPRNT.:Z8A6TOU
 UTS= AUG 09 '97 09:27:33.84 SAT                              Compiler= PL-6/E31         Sev=      00
 SharedLib= :SHARED_SYSTEM                                    Alt SharedLib=


    ****  Control sections  ****

 Sect   Type Bound  Init  Size OctSiz  Section name(segment info)
    0  LblCom even  none     1      1  OUT_DCBN
    1   DCB   even  none     0      0  M$OU
    2   DCB   even  none     0      0  M$SO
    3   DCB   even  none     0      0  M$LO
    4   DCB   even  none     0      0  M$SI
    5   DCB   even  none     0      0  M$UI
    6  LblCom even  none  1401   2571  SYM_PTRS
    7  LblCom even  none  4001   7641  RIGHT_PARTS
    8  LblCom even  none  3002   5672  PROD
    9  LblCom even  none     1      1  NR_PROD
   10  LblCom even  none     1      1  NR_SYMS
   11  LblCom even  none     1      1  NR_TERM
   12  LblCom even  none     1      1  LAST_ACT
   13  LblCom even  none     1      1  LAST_NULL
   14  LblCom even  none     1      1  NR_ONRIGHT
   15  LblCom even  none     1      1  NR_NT
   16  LblCom even  none     1      1  PROD_LEN_MAX_EVER
   17  LblCom even  none     1      1  LAST_ORDER_SPECIFIED
   18  LblCom even  none     1      1  SEMANTIC_ORDERING
   19  LblCom even  none     1      1  ERR_SEV
   20  LblCom even  none     1      1  SET_LENGTHB
   21  LblCom even  none     1      1  SET_LENGTHW
   22  LblCom even  none     1      1  EOF_SYMBOL_PTR
   23  LblCom even  none     1      1  ERROR_SYMBOL_PTR
   24  LblCom even  none     1      1  BOF_SYMBOL_PTR
   25  LblCom even  none     1      1  OPTIONS
   26  LblCom even  none    26     32  OPTIONS_TEXT
   27  LblCom even  none   128    200  INSTR
   28  LblCom even  none     1      1  INSTR_LISTED
PL6.E3A0      #001=CPRNT File=LR_CPRNT.:Z8A6TSI                                  SAT 08/09/97 09:27 Page:8
   29  LblCom even  none     1      1  INSTR_LEN
   30  LblCom even  none     1      1  INSTR_INDX
   31  LblCom even  none     1      1  EOF_FLAG
   32  LblCom even  none     3      3  KEY_REC
   33  LblCom even  none    28     34  LINE
   34  LblCom even  none     1      1  LINELEN
   35  LblCom even  none   205    315  TSTATS
   36  LblCom even  none  2201   4231  C#_TO_$
   37  LblCom even  none     1      1  NR_CONFIG
   38  LblCom even  none     1      1  INIT_CONFIG
   39  LblCom even  none     1      1  MAX_BASIS_ITEMS
   40  LblCom even  none     1      1  MAX_TOTAL_ITEMS
   41  LblCom even  none     1      1  LAST_BINSRCH_ONLY
   42  LblCom even  none     1      1  LAST_BOTH_BITBIN
   43  RoData even  UTS     26     32  CPRNT
   44   Proc  even  none   184    270  CPRNT
   45  RoData even  none    28     34  CPRNT

    ****  Entry defs  ****

                              Check   Calling
                             calling  sequence
  Sect OctLoc Primary Altret sequence   type   Parms  Name
    44      0   yes            yes      Std        3  CPRNT

  ****  Entry refs  ****

         Check        Calling
        calling       sequence
Altret sequence SRef   type   Args  Name
         yes           Std       2 OUT_STR
         yes           Std       0 FLUSH
         yes           Std       1 OUT_SYMBOL
         yes           Std       3 PRINT_ITEM
         yes           Std       1 OUT_SYMBOL_TOKEN
                       nStd      0 X66_AUTO_3
                       nStd      0 X66_ARET
PL6.E3A0      #001=CPRNT File=LR_CPRNT.:Z8A6TSI                                  SAT 08/09/97 09:27 Page:9

  ****  Data refs  ****

  Flags:  r = read only, s = secondary
Flgs Name                             Flgs Name                             Flgs Name
     M$OU                                  M$SO                                  M$LO
     M$SI                                  M$UI

  ****  Segment refs  ****

  Flags:  r = read only, s = secondary
Flgs Name                             Flgs Name                             Flgs Name
     NULLSID                               ISSID
PL6.E3A0      #001=CPRNT File=LR_CPRNT.:Z8A6TSI                                  SAT 08/09/97 09:27 Page:10


        1        1        /*M* CPRNT => PRINT CONFIGURATION SETS */
        2        2        /*T***********************************************************/
        3        3        /*T*                                                         */
        4        4        /*T* Copyright (c) Bull HN Information Systems Inc., 1997    */
        5        5        /*T*                                                         */
        6        6        /*T***********************************************************/
        7        7
        8        8
        9        9
       10       10
       11       11        /*D*
       12       12               NAME: CPRNT
       13       13            PURPOSE: PRINT THE CONFIGURATION SETS(STATES) FOR THE
       14       14                     GRAMMAR BEING ANALYZED.
       15       15        */
       16       16
       17       17
       18       18        CPRNT:  PROC(CONFIG_NUM,PROD_NO,DOT_POS);

     18 44 000000   000000 700200 xent  CPRNT        TSX0  ! X66_AUTO_3
        44 000001   000030 000003                    ZERO    24,3

       19       19
       20       20        /* IF CONFIG_NUM = NIL, ALL CONFIGURATIONS SETS
       21       21           WILL BE PRINTED, OTHERWISE, ONLY THE ONE DESIGNATED.
       22       22        */
       23       23
       24       24        %INCLUDE LR_GRAM_EXT;
       25      563        %INCLUDE LR_CNFG_EXT;
       26      716
       27      717    1   DCL ENTER_LINE ENTRY(2);
       28      718    1   DCL PRINT_PROD ENTRY(3);
       29      719    1   DCL OUT_STR ENTRY(2);
       30      720    1   DCL OUT_TOKEN ENTRY(2);
       31      721    1   DCL OUT_SYMBOL ENTRY(1);
       32      722    1   DCL OUT_SYMBOL_TOKEN ENTRY(1);
PL6.E3A0      #001=CPRNT File=LR_CPRNT.:Z8A6TSI                                  SAT 08/09/97 09:27 Page:11
       33      723    1   DCL FLUSH ENTRY;
       34      724    1   DCL PRINT_ITEM ENTRY(3);
       35      725
       36      726
       37      727    1   DCL CSLOW      SBIN;
       38      728    1   DCL CSHI       SBIN;
       39      729    1   DCL CONFIG_NUM SBIN;
       40      730    1   DCL PROD_NO    SBIN;
       41      731    1   DCL DOT_POS    SBIN;
       42      732    1   DCL C          SBIN;
       43      733    1   DCL P          SBIN;   /* CURRENT PRODUCTION BEING PRINTED */
       44      734    1   DCL R          SBIN;   /* INDEX INTO RIGHT HAND ELEMENTS OF PRODUCTION P */
       45      735    1   DCL S          SBIN;   /* INDEX INTO SYM_PTRS (IE., A SYMBOL) */
       46      736    1   DCL LAS$       PTR;
       47      737    1   DCL KEY$       PTR;
       48      738    1   DCL KEY_POS    SBIN;
       49      739    1   DCL CONFIG_TEXT_NO CHAR(4);
       50      740
       51      741    1   DCL 1 FALIGN ALIGNED BASED(FSET$),
       52      742    1         2 FSET(0:35) BIT(1) UNAL;
       53      743    1   DCL FSET$ PTR;
       54      744
       55      745    1   DCL E  SBIN;
       56      746    1   DCL DP SBIN;
       57      747
       58      748        %EJECT;
PL6.E3A0      #001=CPRNT File=LR_CPRNT.:Z8A6TSI                                  SAT 08/09/97 09:27 Page:12
       59      749                 /* MAIN BODY OF CPRINT */
       60      750
       61      751        /* DETERMINE WHETHER ALL SETS WILL BE PRINTED OR JUST ONE */
       62      752
       63      753                %SELECT_LO;

    754 44 000002   000000 236007 xsym               LDQ     M$LO,DL
        44 000003   000000 756000 0                  STQ     OUT_DCBN

       64      756
       65      757    1           IF ADDR(CONFIG_NUM)=ADDR(NIL) THEN

    757 44 000004   200003 236100                    LDQ     @CONFIG_NUM,,AUTO
        44 000005   000000 116000 45                 CMPQ    0
        44 000006   000057 601000 44                 TNZ     s:794

       66      758    2           DO;

       67      759                   %OUTLINE(S="' '");

    761 44 000007   000004 630400 45                 EPPR0   4
        44 000010   000001 631400 45                 EPPR1   1
        44 000011   000000 701000 xent               TSX1    OUT_STR
        44 000012   000000 011000                    NOP     0

    762 44 000013   000006 631400 45                 EPPR1   6
        44 000014   000000 701000 xent               TSX1    FLUSH
        44 000015   000000 011000                    NOP     0

       68      765                   %OUTLINE(S="' '");

    767 44 000016   000004 630400 45                 EPPR0   4
        44 000017   000001 631400 45                 EPPR1   1
        44 000020   000000 701000 xent               TSX1    OUT_STR
        44 000021   000000 011000                    NOP     0

    768 44 000022   000006 631400 45                 EPPR1   6
PL6.E3A0      #001=CPRNT File=LR_CPRNT.:Z8A6TSI                                  SAT 08/09/97 09:27 Page:13
        44 000023   000000 701000 xent               TSX1    FLUSH
        44 000024   000000 011000                    NOP     0

       69      771                   %OUTLINE(S="'======'");

    773 44 000025   000010 630400 45                 EPPR0   8
        44 000026   000001 631400 45                 EPPR1   1
        44 000027   000000 701000 xent               TSX1    OUT_STR
        44 000030   000000 011000                    NOP     0

    774 44 000031   000006 631400 45                 EPPR1   6
        44 000032   000000 701000 xent               TSX1    FLUSH
        44 000033   000000 011000                    NOP     0

       70      777                   %OUTLINE(S="'STATES'");

    779 44 000034   000012 630400 45                 EPPR0   10
        44 000035   000001 631400 45                 EPPR1   1
        44 000036   000000 701000 xent               TSX1    OUT_STR
        44 000037   000000 011000                    NOP     0

    780 44 000040   000006 631400 45                 EPPR1   6
        44 000041   000000 701000 xent               TSX1    FLUSH
        44 000042   000000 011000                    NOP     0

       71      783                   %OUTLINE(S="'======'");

    785 44 000043   000010 630400 45                 EPPR0   8
        44 000044   000001 631400 45                 EPPR1   1
        44 000045   000000 701000 xent               TSX1    OUT_STR
        44 000046   000000 011000                    NOP     0

    786 44 000047   000006 631400 45                 EPPR1   6
        44 000050   000000 701000 xent               TSX1    FLUSH
        44 000051   000000 011000                    NOP     0

       72      789    2              CSLOW=0;
PL6.E3A0      #001=CPRNT File=LR_CPRNT.:Z8A6TSI                                  SAT 08/09/97 09:27 Page:14

    789 44 000052   200006 450100                    STZ     CSLOW,,AUTO

       73      790    2              CSHI=NR_CONFIG-1;

    790 44 000053   000000 235000 37                 LDA     NR_CONFIG
        44 000054   000001 135007                    SBLA    1,DL
        44 000055   200007 755100                    STA     CSHI,,AUTO

       74      791    2              END;

    791 44 000056   000063 710000 44                 TRA     s:798

       75      792    1           ELSE
       76      793    2           DO;

       77      794    2              CSLOW=CONFIG_NUM;

    794 44 000057   200003 470500                    LDP0    @CONFIG_NUM,,AUTO
        44 000060   000000 235100                    LDA     0,,PR0
        44 000061   200006 755100                    STA     CSLOW,,AUTO

       78      795    2              CSHI=CONFIG_NUM;

    795 44 000062   200007 755100                    STA     CSHI,,AUTO

       79      796    2              END;

       80      797
       81      798    2           DO C=CSLOW TO CSHI;

    798 44 000063   200006 236100                    LDQ     CSLOW,,AUTO
        44 000064   200010 756100                    STQ     C,,AUTO
        44 000065   000264 710000 44                 TRA     s:865+1

       82      799                   %OUTLINE(S="' '");

PL6.E3A0      #001=CPRNT File=LR_CPRNT.:Z8A6TSI                                  SAT 08/09/97 09:27 Page:15
    801 44 000066   000004 630400 45                 EPPR0   4
        44 000067   000001 631400 45                 EPPR1   1
        44 000070   000000 701000 xent               TSX1    OUT_STR
        44 000071   000000 011000                    NOP     0

    802 44 000072   000006 631400 45                 EPPR1   6
        44 000073   000000 701000 xent               TSX1    FLUSH
        44 000074   000000 011000                    NOP     0

       83      805
       84      806    2              CALL BINCHAR(CONFIG_TEXT_NO,C);

    806 44 000075   000100 301500                    BTD
        44 000076   200010 000004                    NDSC9   C,,AUTO                  cn=0,s=lsgnf,sf=0,n=4
        44 000077   200017 030004                    NDSC9   CONFIG_TEXT_NO,,AUTO     cn=0,s=nosgn,sf=0,n=4

       85      807
       86      808    2              S=C#_TO_$(C)->C_SET_B.KEY$->KEY_B.W.SYM_AFTER;

    808 44 000100   200010 720100                    LXL0    C,,AUTO
        44 000101   000000 470410 36                 LDP0    C#_TO_$,X0
        44 000102   000000 471500                    LDP1    0,,PR0
        44 000103   100004 235100                    LDA     4,,PR1
        44 000104   200013 755100                    STA     S,,AUTO

       87      809
       88      810                   %OUT_STR(S="'State #'");

    811 44 000105   000015 630400 45                 EPPR0   13
        44 000106   000001 631400 45                 EPPR1   1
        44 000107   000000 701000 xent               TSX1    OUT_STR
        44 000110   000000 011000                    NOP     0

       89      813    2              CALL OUT_STR(CONFIG_TEXT_NO, LENGTHC(CONFIG_TEXT_NO));

    813 44 000111   000020 236000 45                 LDQ     16
        44 000112   200025 756100                    STQ     DP+3,,AUTO
PL6.E3A0      #001=CPRNT File=LR_CPRNT.:Z8A6TSI                                  SAT 08/09/97 09:27 Page:16
        44 000113   200017 630500                    EPPR0   CONFIG_TEXT_NO,,AUTO
        44 000114   200024 450500                    STP0    DP+2,,AUTO
        44 000115   200024 630500                    EPPR0   DP+2,,AUTO
        44 000116   000001 631400 45                 EPPR1   1
        44 000117   000000 701000 xent               TSX1    OUT_STR
        44 000120   000000 011000                    NOP     0

       90      814                   %OUT_STR(S="' which is accessed by '");

    815 44 000121   000022 630400 45                 EPPR0   18
        44 000122   000001 631400 45                 EPPR1   1
        44 000123   000000 701000 xent               TSX1    OUT_STR
        44 000124   000000 011000                    NOP     0

       91      817    2              CALL OUT_SYMBOL(SYM_PTRS(S));

    817 44 000125   200013 720100                    LXL0    S,,AUTO
        44 000126   000000 630410 6                  EPPR0   SYM_PTRS,X0
        44 000127   200024 450500                    STP0    DP+2,,AUTO
        44 000130   200024 630500                    EPPR0   DP+2,,AUTO
        44 000131   000024 631400 45                 EPPR1   20
        44 000132   000000 701000 xent               TSX1    OUT_SYMBOL
        44 000133   000000 011000                    NOP     0

       92      818                   %OUTLINE(S="' is composed of the following items:'");

    820 44 000134   000026 630400 45                 EPPR0   22
        44 000135   000001 631400 45                 EPPR1   1
        44 000136   000000 701000 xent               TSX1    OUT_STR
        44 000137   000000 011000                    NOP     0

    821 44 000140   000006 631400 45                 EPPR1   6
        44 000141   000000 701000 xent               TSX1    FLUSH
        44 000142   000000 011000                    NOP     0

       93      824
       94      825
PL6.E3A0      #001=CPRNT File=LR_CPRNT.:Z8A6TSI                                  SAT 08/09/97 09:27 Page:17
       95      826                   %OUTLINE(S="' '");

    828 44 000143   000004 630400 45                 EPPR0   4
        44 000144   000001 631400 45                 EPPR1   1
        44 000145   000000 701000 xent               TSX1    OUT_STR
        44 000146   000000 011000                    NOP     0

    829 44 000147   000006 631400 45                 EPPR1   6
        44 000150   000000 701000 xent               TSX1    FLUSH
        44 000151   000000 011000                    NOP     0

       96      832
       97      833    3              DO E=0 TO C#_TO_$(C)->C_SET_B.NR_ELEM-1;

    833 44 000152   200021 450100                    STZ     E,,AUTO
        44 000153   000255 710000 44                 TRA     s:863+1

       98      834
       99      835    3                 KEY$=C#_TO_$(C)->C_SET_B.ELEM.KEY$(E);

    835 44 000154   200010 720100                    LXL0    C,,AUTO
        44 000155   000000 470410 36                 LDP0    C#_TO_$,X0
        44 000156   200021 235100                    LDA     E,,AUTO
        44 000157   000002 735000                    ALS     2
        44 000160   000004 236105                    LDQ     4,AL,PR0
        44 000161   200015 756100                    STQ     KEY$,,AUTO

      100      836
      101      837    4                 DO KEY_POS=0 TO KEY$->KEY_B.W.ELEM_COUNT-1;

    837 44 000162   200016 450100                    STZ     KEY_POS,,AUTO
        44 000163   000246 710000 44                 TRA     s:862+1

      102      838
      103      839    4                    CALL PRINT_ITEM(C, E, KEY_POS);

    839 44 000164   200016 630500                    EPPR0   KEY_POS,,AUTO
PL6.E3A0      #001=CPRNT File=LR_CPRNT.:Z8A6TSI                                  SAT 08/09/97 09:27 Page:18
        44 000165   200026 450500                    STP0    DP+4,,AUTO
        44 000166   200021 631500                    EPPR1   E,,AUTO
        44 000167   200025 451500                    STP1    DP+3,,AUTO
        44 000170   200010 633500                    EPPR3   C,,AUTO
        44 000171   200024 453500                    STP3    DP+2,,AUTO
        44 000172   200024 630500                    EPPR0   DP+2,,AUTO
        44 000173   000030 631400 45                 EPPR1   24
        44 000174   000000 701000 xent               TSX1    PRINT_ITEM
        44 000175   000000 011000                    NOP     0

      104      840
      105      841    4                    IF KEY$->KEY_B.W.SYM_AFTER=0 AND

    841 44 000176   200015 470500                    LDP0    KEY$,,AUTO
        44 000177   000004 235100                    LDA     4,,PR0
        44 000200   000245 601000 44                 TNZ     s:862
        44 000201   000003 471500                    LDP1    3,,PR0
        44 000202   100002 236100                    LDQ     2,,PR1
        44 000203   777000 376003                    ANQ     -512,DU
        44 000204   001000 116003                    CMPQ    512,DU
        44 000205   000245 601000 44                 TNZ     s:862

      106      842    4                      KEY$->KEY_B.FOLLOW$->INCL_B.SET_STATE=
      107      843    4                      SET_STATE_CALC THEN
      108      844
      109      845    5                    DO;

      110      846
      111      847    5                       FSET$=ADDR(KEY$->KEY_B.FOLLOW$->INCL_B.SET);

    847 44 000206   100003 633500                    EPPR3   3,,PR1
        44 000207   200020 453500                    STP3    FSET$,,AUTO

      112      848
      113      849
      114      850                            %OUT_STR(S="' Lookahead Symbols:'");

PL6.E3A0      #001=CPRNT File=LR_CPRNT.:Z8A6TSI                                  SAT 08/09/97 09:27 Page:19
    851 44 000210   000032 630400 45                 EPPR0   26
        44 000211   000001 631400 45                 EPPR1   1
        44 000212   000000 701000 xent               TSX1    OUT_STR
        44 000213   000000 011000                    NOP     0

      115      853    6                       DO R=1 TO NR_TERM;

    853 44 000214   000001 235007                    LDA     1,DL
        44 000215   200012 755100                    STA     R,,AUTO
        44 000216   000237 710000 44                 TRA     s:856+1

      116      854    6                          IF FALIGN.FSET(R) THEN

    854 44 000217   200012 235100                    LDA     R,,AUTO
        44 000220   000222 605000 44                 TPL     s:854+3
        44 000221   000044 035003                    ADLA    36,DU
        44 000222   200020 470500                    LDP0    FSET$,,AUTO
        44 000223   000000 066505                    CMPB    filb='0'B
        44 000224   000000 000001                    BDSC    0,A,PR0                  by=0,bit=0,n=1
        44 000225   000006 000022 45                 BDSC    6                        by=0,bit=0,n=18
        44 000226   000236 600000 44                 TZE     s:856

      117      855    6                             CALL OUT_SYMBOL_TOKEN(SYM_PTRS(R));

    855 44 000227   200012 720100                    LXL0    R,,AUTO
        44 000230   000000 631410 6                  EPPR1   SYM_PTRS,X0
        44 000231   200024 451500                    STP1    DP+2,,AUTO
        44 000232   200024 630500                    EPPR0   DP+2,,AUTO
        44 000233   000024 631400 45                 EPPR1   20
        44 000234   000000 701000 xent               TSX1    OUT_SYMBOL_TOKEN
        44 000235   000000 011000                    NOP     0

      118      856    6                          END;

    856 44 000236   200012 054100                    AOS     R,,AUTO
        44 000237   200012 236100                    LDQ     R,,AUTO
        44 000240   000000 116000 11                 CMPQ    NR_TERM
PL6.E3A0      #001=CPRNT File=LR_CPRNT.:Z8A6TSI                                  SAT 08/09/97 09:27 Page:20
        44 000241   000217 604400 44                 TMOZ    s:854

      119      857
      120      858    5                       CALL FLUSH;

    858 44 000242   000006 631400 45                 EPPR1   6
        44 000243   000000 701000 xent               TSX1    FLUSH
        44 000244   000000 011000                    NOP     0

      121      859
      122      860    5                       END;

      123      861
      124      862    4                    END /* KEY */;

    862 44 000245   200016 054100                    AOS     KEY_POS,,AUTO
        44 000246   200015 470500                    LDP0    KEY$,,AUTO
        44 000247   000005 236100                    LDQ     5,,PR0
        44 000250   000022 736000                    QLS     18
        44 000251   000022 732000                    QRS     18
        44 000252   200016 116100                    CMPQ    KEY_POS,,AUTO
        44 000253   000164 605400 44                 TPNZ    s:839

      125      863    3                 END /* PRODUCTION */;

    863 44 000254   200021 054100                    AOS     E,,AUTO
        44 000255   200010 720100                    LXL0    C,,AUTO
        44 000256   000000 470410 36                 LDP0    C#_TO_$,X0
        44 000257   000001 236100                    LDQ     1,,PR0
        44 000260   777777 376007                    ANQ     -1,DL
        44 000261   200021 116100                    CMPQ    E,,AUTO
        44 000262   000154 605400 44                 TPNZ    s:835

      126      864
      127      865    2              END /*CONFIG */;

    865 44 000263   200010 054100                    AOS     C,,AUTO
PL6.E3A0      #001=CPRNT File=LR_CPRNT.:Z8A6TSI                                  SAT 08/09/97 09:27 Page:21
        44 000264   200010 236100                    LDQ     C,,AUTO
        44 000265   200007 116100                    CMPQ    CSHI,,AUTO
        44 000266   000066 604400 44                 TMOZ    s:801

      128      866
      129      867    1           RETURN;

    867 44 000267   000000 702200 xent               TSX2  ! X66_ARET
      130      868
      131      869    1   END CPRNT;
      132      870        %EOD;

PL6.E3A0      #001=CPRNT File=LR_CPRNT.:Z8A6TSI                                  SAT 08/09/97 09:27 Page:22
--  Include file information  --

   LR_CNFG_EXT.:Z8A6TOU  cannot be made into a system file and is referenced.
   LR_IO_EXT.:Z8A6TOU  cannot be made into a system file and is referenced.
   LR_GRAM_EXT.:Z8A6TOU  cannot be made into a system file and is referenced.
      No diagnostics issued in procedure CPRNT.
PL6.E3A0      #001=CPRNT File=LR_CPRNT.:Z8A6TSI                                  SAT 08/09/97 09:27 Page:23

 **** Variables and constants ****

  ****  Section 000 LblCom OUT_DCBN

  ****  Scalars and arrays  ****
OctLoc.c.b A Datatyp(siz) R M Lvl/name                 OctLoc.c.b A Datatyp(siz) R M Lvl/name

     0-0-0/w SBIN        r     1 OUT_DCBN

  ****  Section 006 LblCom SYM_PTRS

  ****  Scalars and arrays  ****
OctLoc.c.b A Datatyp(siz) R M Lvl/name                 OctLoc.c.b A Datatyp(siz) R M Lvl/name

     0-0-0/w PTR         r     1 SYM_PTRS(0:1400)

  ****  Section 007 LblCom RIGHT_PARTS

  ****  Scalars and arrays  ****
OctLoc.c.b A Datatyp(siz) R M Lvl/name                 OctLoc.c.b A Datatyp(siz) R M Lvl/name

     0-0-0/h SBIN(18)          1 RIGHT_PARTS(0:8000)

  ****  Section 008 LblCom PROD

  ****  Scalars and arrays  ****
OctLoc.c.b A Datatyp(siz) R M Lvl/name                 OctLoc.c.b A Datatyp(siz) R M Lvl/name

     0-0-0/h STRC(72)          1 PROD(0:1500)

  ****  Section 009 LblCom NR_PROD

  ****  Scalars and arrays  ****
OctLoc.c.b A Datatyp(siz) R M Lvl/name                 OctLoc.c.b A Datatyp(siz) R M Lvl/name

     0-0-0/w SBIN              1 NR_PROD

PL6.E3A0      #001=CPRNT File=LR_CPRNT.:Z8A6TSI                                  SAT 08/09/97 09:27 Page:24
  ****  Section 010 LblCom NR_SYMS

  ****  Scalars and arrays  ****
OctLoc.c.b A Datatyp(siz) R M Lvl/name                 OctLoc.c.b A Datatyp(siz) R M Lvl/name

     0-0-0/w SBIN              1 NR_SYMS

  ****  Section 011 LblCom NR_TERM

  ****  Scalars and arrays  ****
OctLoc.c.b A Datatyp(siz) R M Lvl/name                 OctLoc.c.b A Datatyp(siz) R M Lvl/name

     0-0-0/w SBIN        r     1 NR_TERM

  ****  Section 012 LblCom LAST_ACT

  ****  Scalars and arrays  ****
OctLoc.c.b A Datatyp(siz) R M Lvl/name                 OctLoc.c.b A Datatyp(siz) R M Lvl/name

     0-0-0/w SBIN              1 LAST_ACT

  ****  Section 013 LblCom LAST_NULL

  ****  Scalars and arrays  ****
OctLoc.c.b A Datatyp(siz) R M Lvl/name                 OctLoc.c.b A Datatyp(siz) R M Lvl/name

     0-0-0/w SBIN              1 LAST_NULL

  ****  Section 014 LblCom NR_ONRIGHT

  ****  Scalars and arrays  ****
OctLoc.c.b A Datatyp(siz) R M Lvl/name                 OctLoc.c.b A Datatyp(siz) R M Lvl/name

     0-0-0/w SBIN              1 NR_ONRIGHT

  ****  Section 015 LblCom NR_NT

PL6.E3A0      #001=CPRNT File=LR_CPRNT.:Z8A6TSI                                  SAT 08/09/97 09:27 Page:25
  ****  Scalars and arrays  ****
OctLoc.c.b A Datatyp(siz) R M Lvl/name                 OctLoc.c.b A Datatyp(siz) R M Lvl/name

     0-0-0/w SBIN              1 NR_NT

  ****  Section 016 LblCom PROD_LEN_MAX_EVER

  ****  Scalars and arrays  ****
OctLoc.c.b A Datatyp(siz) R M Lvl/name                 OctLoc.c.b A Datatyp(siz) R M Lvl/name

     0-0-0/w SBIN              1 PROD_LEN_MAX_EVER

  ****  Section 017 LblCom LAST_ORDER_SPECIFIED

  ****  Scalars and arrays  ****
OctLoc.c.b A Datatyp(siz) R M Lvl/name                 OctLoc.c.b A Datatyp(siz) R M Lvl/name

     0-0-0/w SBIN              1 LAST_ORDER_SPECIFIED

  ****  Section 018 LblCom SEMANTIC_ORDERING

  ****  Scalars and arrays  ****
OctLoc.c.b A Datatyp(siz) R M Lvl/name                 OctLoc.c.b A Datatyp(siz) R M Lvl/name

     0-0-0/b BIT               1 SEMANTIC_ORDERING

  ****  Section 019 LblCom ERR_SEV

  ****  Scalars and arrays  ****
OctLoc.c.b A Datatyp(siz) R M Lvl/name                 OctLoc.c.b A Datatyp(siz) R M Lvl/name

     0-0-0/w SBIN              1 ERR_SEV

  ****  Section 020 LblCom SET_LENGTHB

  ****  Scalars and arrays  ****
OctLoc.c.b A Datatyp(siz) R M Lvl/name                 OctLoc.c.b A Datatyp(siz) R M Lvl/name
PL6.E3A0      #001=CPRNT File=LR_CPRNT.:Z8A6TSI                                  SAT 08/09/97 09:27 Page:26

     0-0-0/w SBIN              1 SET_LENGTHB

  ****  Section 021 LblCom SET_LENGTHW

  ****  Scalars and arrays  ****
OctLoc.c.b A Datatyp(siz) R M Lvl/name                 OctLoc.c.b A Datatyp(siz) R M Lvl/name

     0-0-0/w SBIN              1 SET_LENGTHW

  ****  Section 022 LblCom EOF_SYMBOL_PTR

  ****  Scalars and arrays  ****
OctLoc.c.b A Datatyp(siz) R M Lvl/name                 OctLoc.c.b A Datatyp(siz) R M Lvl/name

     0-0-0/w PTR               1 EOF_SYMBOL_PTR

  ****  Section 023 LblCom ERROR_SYMBOL_PTR

  ****  Scalars and arrays  ****
OctLoc.c.b A Datatyp(siz) R M Lvl/name                 OctLoc.c.b A Datatyp(siz) R M Lvl/name

     0-0-0/w PTR               1 ERROR_SYMBOL_PTR

  ****  Section 024 LblCom BOF_SYMBOL_PTR

  ****  Scalars and arrays  ****
OctLoc.c.b A Datatyp(siz) R M Lvl/name                 OctLoc.c.b A Datatyp(siz) R M Lvl/name

     0-0-0/w PTR               1 BOF_SYMBOL_PTR

  ****  Section 025 LblCom OPTIONS

  ****  Scalars and arrays  ****
OctLoc.c.b A Datatyp(siz) R M Lvl/name                 OctLoc.c.b A Datatyp(siz) R M Lvl/name

     0-0-0/b BIT               1 OPTIONS(0:25)
PL6.E3A0      #001=CPRNT File=LR_CPRNT.:Z8A6TSI                                  SAT 08/09/97 09:27 Page:27

  ****  Section 026 LblCom OPTIONS_TEXT

  ****  Scalars and arrays  ****
OctLoc.c.b A Datatyp(siz) R M Lvl/name                 OctLoc.c.b A Datatyp(siz) R M Lvl/name

     0-0-0/c CHAR(4)           1 OPTIONS_TEXT(0:25)

  ****  Section 027 LblCom INSTR

  ****  Scalars and arrays  ****
OctLoc.c.b A Datatyp(siz) R M Lvl/name                 OctLoc.c.b A Datatyp(siz) R M Lvl/name

     0-0-0/c CHAR              1 INSTR(0:511)               0-0-0/c CHAR(512)         1 INSTRCHR

  ****  Section 028 LblCom INSTR_LISTED

  ****  Scalars and arrays  ****
OctLoc.c.b A Datatyp(siz) R M Lvl/name                 OctLoc.c.b A Datatyp(siz) R M Lvl/name

     0-0-0/b BIT               1 INSTR_LISTED

  ****  Section 029 LblCom INSTR_LEN

  ****  Scalars and arrays  ****
OctLoc.c.b A Datatyp(siz) R M Lvl/name                 OctLoc.c.b A Datatyp(siz) R M Lvl/name

     0-0-0/w SBIN              1 INSTR_LEN

  ****  Section 030 LblCom INSTR_INDX

  ****  Scalars and arrays  ****
OctLoc.c.b A Datatyp(siz) R M Lvl/name                 OctLoc.c.b A Datatyp(siz) R M Lvl/name

     0-0-0/w SBIN              1 INSTR_INDX

  ****  Section 031 LblCom EOF_FLAG
PL6.E3A0      #001=CPRNT File=LR_CPRNT.:Z8A6TSI                                  SAT 08/09/97 09:27 Page:28

  ****  Scalars and arrays  ****
OctLoc.c.b A Datatyp(siz) R M Lvl/name                 OctLoc.c.b A Datatyp(siz) R M Lvl/name

     0-0-0/b BIT               1 EOF_FLAG

  ****  Section 032 LblCom KEY_REC

  ****  Scalars and arrays  ****
OctLoc.c.b A Datatyp(siz) R M Lvl/name                 OctLoc.c.b A Datatyp(siz) R M Lvl/name

     0-0-0/c CHAR(10)          1 KEY_REC

  ****  Section 033 LblCom LINE

  ****  Scalars and arrays  ****
OctLoc.c.b A Datatyp(siz) R M Lvl/name                 OctLoc.c.b A Datatyp(siz) R M Lvl/name

     0-0-0/c CHAR(109)         1 LINE

  ****  Section 034 LblCom LINELEN

  ****  Scalars and arrays  ****
OctLoc.c.b A Datatyp(siz) R M Lvl/name                 OctLoc.c.b A Datatyp(siz) R M Lvl/name

     0-0-0/w SBIN              1 LINELEN

  ****  Section 035 LblCom TSTATS

  ****  Scalars and arrays  ****
OctLoc.c.b A Datatyp(siz) R M Lvl/name                 OctLoc.c.b A Datatyp(siz) R M Lvl/name

     0-0-0/w STRC(7380)        1 TSTATS

  ****  Section 036 LblCom C#_TO_$

  ****  Scalars and arrays  ****
PL6.E3A0      #001=CPRNT File=LR_CPRNT.:Z8A6TSI                                  SAT 08/09/97 09:27 Page:29
OctLoc.c.b A Datatyp(siz) R M Lvl/name                 OctLoc.c.b A Datatyp(siz) R M Lvl/name

     0-0-0/w PTR         r     1 C#_TO_$(0:2200)

  ****  Section 037 LblCom NR_CONFIG

  ****  Scalars and arrays  ****
OctLoc.c.b A Datatyp(siz) R M Lvl/name                 OctLoc.c.b A Datatyp(siz) R M Lvl/name

     0-0-0/w SBIN        r     1 NR_CONFIG

  ****  Section 038 LblCom INIT_CONFIG

  ****  Scalars and arrays  ****
OctLoc.c.b A Datatyp(siz) R M Lvl/name                 OctLoc.c.b A Datatyp(siz) R M Lvl/name

     0-0-0/w SBIN              1 INIT_CONFIG

  ****  Section 039 LblCom MAX_BASIS_ITEMS

  ****  Scalars and arrays  ****
OctLoc.c.b A Datatyp(siz) R M Lvl/name                 OctLoc.c.b A Datatyp(siz) R M Lvl/name

     0-0-0/w SBIN              1 MAX_BASIS_ITEMS

  ****  Section 040 LblCom MAX_TOTAL_ITEMS

  ****  Scalars and arrays  ****
OctLoc.c.b A Datatyp(siz) R M Lvl/name                 OctLoc.c.b A Datatyp(siz) R M Lvl/name

     0-0-0/w SBIN              1 MAX_TOTAL_ITEMS

  ****  Section 041 LblCom LAST_BINSRCH_ONLY

  ****  Scalars and arrays  ****
OctLoc.c.b A Datatyp(siz) R M Lvl/name                 OctLoc.c.b A Datatyp(siz) R M Lvl/name

PL6.E3A0      #001=CPRNT File=LR_CPRNT.:Z8A6TSI                                  SAT 08/09/97 09:27 Page:30
     0-0-0/w SBIN              1 LAST_BINSRCH_ONLY

  ****  Section 042 LblCom LAST_BOTH_BITBIN

  ****  Scalars and arrays  ****
OctLoc.c.b A Datatyp(siz) R M Lvl/name                 OctLoc.c.b A Datatyp(siz) R M Lvl/name

     0-0-0/w SBIN              1 LAST_BOTH_BITBIN

  ****  Auto variables  ****

  ****  Scalars and arrays  ****
OctLoc.c.b A Datatyp(siz) R M Lvl/name                 OctLoc.c.b A Datatyp(siz) R M Lvl/name

     3-0-0/w PTR         r     1 @CONFIG_NUM                5-0-0/w PTR         r     1 @DOT_POS
     4-0-0/w PTR         r     1 @PROD_NO                  10-0-0/w SBIN        r     1 C
    *0-0-0/w SBIN        r     1 CONFIG_NUM                17-0-0/c CHAR(4)     r     1 CONFIG_TEXT_NO
     7-0-0/w SBIN        r     1 CSHI                       6-0-0/w SBIN        r     1 CSLOW
    *0-0-0/w SBIN        r     1 DOT_POS                   22-0-0/w SBIN              1 DP
    21-0-0/w SBIN        r     1 E                         20-0-0/w PTR         r     1 FSET$
    15-0-0/w PTR         r     1 KEY$                      16-0-0/w SBIN        r     1 KEY_POS
    14-0-0/w PTR               1 LAS$                      11-0-0/w SBIN              1 P
    *0-0-0/w SBIN        r     1 PROD_NO                   12-0-0/w SBIN        r     1 R
    13-0-0/w SBIN        r     1 S

  ****  BASED and DCB variables  ****

  ****  Scalars and arrays  ****
OctLoc.c.b A Datatyp(siz) R M Lvl/name                 OctLoc.c.b A Datatyp(siz) R M Lvl/name

     0-0-0/w STRC(57888) r     1 C_SET_B                    0-0-0/w STRC        r     1 FALIGN
     0-0-0/w STRC(72)          1 INCLUDES_B                 0-0-0/w STRC(144)   r     1 INCL_B
     0-0-0/w STRC(5436)        1 ITEM_B                     0-0-0/w STRC(5652)  r     1 KEY_B
     0-0-0N  NULL        r     1 M$LO                       0-0-0N  NULL        r     1 M$OU
     0-0-0N  NULL        r     1 M$SI                       0-0-0N  NULL        r     1 M$SO
     0-0-0N  NULL        r     1 M$UI                       0-0-0/w STRC(351)         1 SYMBOL

PL6.E3A0      #001=CPRNT File=LR_CPRNT.:Z8A6TSI                                  SAT 08/09/97 09:27 Page:31

   Procedure CPRNT requires 184 words for executable code.
   Procedure CPRNT requires 24 words of local(AUTO) storage.

PL6.E3A0      #002=PRINT_PROD File=LR_CPRNT.:Z8A6TSI                             SAT 08/09/97 09:27 Page:32
      133        1        /*T***********************************************************/
      134        2        /*T*                                                         */
      135        3        /*T* Copyright (c) Bull HN Information Systems Inc., 1997    */
      136        4        /*T*                                                         */
      137        5        /*T***********************************************************/
      138        6        /*D*
      139        7               NAME: PRINT_PROD
      140        8            PURPOSE: PRINT THE PRODUCTION SPECIFIED ON THE CURRENT
      141        9                     OUTPUT FILE.
      142       10        */
      143       11
      144       12        PRINT_PROD:PROC (P, DP, PDP);
      145       13
      146       14    1   DCL P    SBIN;
      147       15    1   DCL DP   SBIN;
      148       16    1   DCL PDP  BIT(1) ALIGNED;
      149       17
      150       18    1   DCL S   SBIN;
      151       19    1   DCL R   SBIN;
      152       20
      153       21        %INCLUDE LR_GRAM_EXT;
      154      560
      155      561    1   DCL OUT_TOKEN ENTRY(2);
      156      562    1   DCL OUT_STR   ENTRY(2);
      157      563    1   DCL FLUSH     ENTRY;
      158      564    1   DCL OUT_SYMBOL ENTRY(1);
      159      565    1   DCL OUT_SYMBOL_TOKEN ENTRY(1);
      160      566
      161      567    1           S=PROD.GOAL_SYM_INDX(P);
      162      568
      163      569    1           CALL OUT_SYMBOL(SYM_PTRS(S));
      164      570
      165      571                %OUT_TOKEN(S="'::='");
      166      574
      167      575    1           IF PROD.RIGHT_CNT(P) = 0 THEN
      168      576                  %OUT_TOKEN (S='=empty=');
      169      579
PL6.E3A0      #002=PRINT_PROD File=LR_CPRNT.:Z8A6TSI                             SAT 08/09/97 09:27 Page:33
      170      580    2           DO R=1 TO DP;
      171      581    2              S=RIGHT_PARTS(PROD.RIGHT_START(P)+R-1);
      172      582    2              CALL OUT_SYMBOL_TOKEN(SYM_PTRS(S));
      173      583    2              END;
      174      584
      175      585    1           IF PDP THEN
      176      586                  %OUT_TOKEN(S='"."');
      177      589
      178      590    2           DO R=DP+1 TO PROD.RIGHT_CNT(P);
      179      591    2              S=RIGHT_PARTS(PROD.RIGHT_START(P)+R-1);
      180      592    2              CALL OUT_SYMBOL_TOKEN(SYM_PTRS(S));
      181      593    2            END;
      182      594
      183      595    1            IF PROD.TRAILING_SEM_ACT(P) THEN
      184      596    1              CALL OUT_SYMBOL_TOKEN(SYM_PTRS(RIGHT_PARTS(PROD.RIGHT_START(P) +
      185      597    1                                    PROD.RIGHT_CNT(P))));
      186      598
      187      599    1           CALL FLUSH;
      188      600
      189      601    1   END;
      190      602        %EOD;

PL6.E3A0      #002=PRINT_PROD File=LR_CPRNT.:Z8A6TSI                             SAT 08/09/97 09:27 Page:34
--  Include file information  --

   LR_IO_EXT.:Z8A6TOU  cannot be made into a system file and is referenced.
   LR_GRAM_EXT.:Z8A6TOU  cannot be made into a system file and is referenced.
      No diagnostics issued in procedure PRINT_PROD.

   Procedure PRINT_PROD requires 129 words for executable code.
   Procedure PRINT_PROD requires 12 words of local(AUTO) storage.

PL6.E3A0      #002=PRINT_PROD File=LR_CPRNT.:Z8A6TSI                             SAT 08/09/97 09:27 Page:35

 Object Unit name= PRINT_PROD                                 File name= LR_CPRNT.:Z8A6TOU
 UTS= AUG 09 '97 09:27:54.64 SAT                              Compiler= PL-6/E31         Sev=      00
 SharedLib= :SHARED_SYSTEM                                    Alt SharedLib=


    ****  Control sections  ****

 Sect   Type Bound  Init  Size OctSiz  Section name(segment info)
    0  LblCom even  none     1      1  OUT_DCBN
    1   DCB   even  none     0      0  M$OU
    2   DCB   even  none     0      0  M$SO
    3   DCB   even  none     0      0  M$LO
    4   DCB   even  none     0      0  M$SI
    5   DCB   even  none     0      0  M$UI
    6  LblCom even  none  1401   2571  SYM_PTRS
    7  LblCom even  none  4001   7641  RIGHT_PARTS
    8  LblCom even  none  3002   5672  PROD
    9  LblCom even  none     1      1  NR_PROD
   10  LblCom even  none     1      1  NR_SYMS
   11  LblCom even  none     1      1  NR_TERM
   12  LblCom even  none     1      1  LAST_ACT
   13  LblCom even  none     1      1  LAST_NULL
   14  LblCom even  none     1      1  NR_ONRIGHT
   15  LblCom even  none     1      1  NR_NT
   16  LblCom even  none     1      1  PROD_LEN_MAX_EVER
   17  LblCom even  none     1      1  LAST_ORDER_SPECIFIED
   18  LblCom even  none     1      1  SEMANTIC_ORDERING
   19  LblCom even  none     1      1  ERR_SEV
   20  LblCom even  none     1      1  SET_LENGTHB
   21  LblCom even  none     1      1  SET_LENGTHW
   22  LblCom even  none     1      1  EOF_SYMBOL_PTR
   23  LblCom even  none     1      1  ERROR_SYMBOL_PTR
   24  LblCom even  none     1      1  BOF_SYMBOL_PTR
   25  LblCom even  none     1      1  OPTIONS
   26  LblCom even  none    26     32  OPTIONS_TEXT
   27  LblCom even  none   128    200  INSTR
   28  LblCom even  none     1      1  INSTR_LISTED
PL6.E3A0      #002=PRINT_PROD File=LR_CPRNT.:Z8A6TSI                             SAT 08/09/97 09:27 Page:36
   29  LblCom even  none     1      1  INSTR_LEN
   30  LblCom even  none     1      1  INSTR_INDX
   31  LblCom even  none     1      1  EOF_FLAG
   32  LblCom even  none     3      3  KEY_REC
   33  LblCom even  none    28     34  LINE
   34  LblCom even  none     1      1  LINELEN
   35  LblCom even  none   205    315  TSTATS
   36  RoData even  UTS      4      4  PRINT_PROD
   37   Proc  even  none   129    201  PRINT_PROD
   38  RoData even  none    11     13  PRINT_PROD

    ****  Entry defs  ****

                              Check   Calling
                             calling  sequence
  Sect OctLoc Primary Altret sequence   type   Parms  Name
    37      0   yes            yes      Std        3  PRINT_PROD

  ****  Entry refs  ****

         Check        Calling
        calling       sequence
Altret sequence SRef   type   Args  Name
         yes           Std       1 OUT_SYMBOL
         yes           Std       2 OUT_TOKEN
         yes           Std       1 OUT_SYMBOL_TOKEN
         yes           Std       0 FLUSH
                       nStd      0 X66_AUTO_3
                       nStd      0 X66_ARET

  ****  Data refs  ****

  Flags:  r = read only, s = secondary
Flgs Name                             Flgs Name                             Flgs Name
     M$OU                                  M$SO                                  M$LO
     M$SI                                  M$UI
PL6.E3A0      #002=PRINT_PROD File=LR_CPRNT.:Z8A6TSI                             SAT 08/09/97 09:27 Page:37

  ****  Segment refs  ****

  Flags:  r = read only, s = secondary
Flgs Name                             Flgs Name                             Flgs Name
     NULLSID                               ISSID
PL6.E3A0      #002=PRINT_PROD File=LR_CPRNT.:Z8A6TSI                             SAT 08/09/97 09:27 Page:38


      133        1        /*T***********************************************************/
      134        2        /*T*                                                         */
      135        3        /*T* Copyright (c) Bull HN Information Systems Inc., 1997    */
      136        4        /*T*                                                         */
      137        5        /*T***********************************************************/
      138        6        /*D*
      139        7               NAME: PRINT_PROD
      140        8            PURPOSE: PRINT THE PRODUCTION SPECIFIED ON THE CURRENT
      141        9                     OUTPUT FILE.
      142       10        */
      143       11
      144       12        PRINT_PROD:PROC (P, DP, PDP);

     12 37 000000   000000 700200 xent  PRINT_PROD   TSX0  ! X66_AUTO_3
        37 000001   000014 000003                    ZERO    12,3

      145       13
      146       14    1   DCL P    SBIN;
      147       15    1   DCL DP   SBIN;
      148       16    1   DCL PDP  BIT(1) ALIGNED;
      149       17
      150       18    1   DCL S   SBIN;
      151       19    1   DCL R   SBIN;
      152       20
      153       21        %INCLUDE LR_GRAM_EXT;
      154      560
      155      561    1   DCL OUT_TOKEN ENTRY(2);
      156      562    1   DCL OUT_STR   ENTRY(2);
      157      563    1   DCL FLUSH     ENTRY;
      158      564    1   DCL OUT_SYMBOL ENTRY(1);
      159      565    1   DCL OUT_SYMBOL_TOKEN ENTRY(1);
      160      566
      161      567    1           S=PROD.GOAL_SYM_INDX(P);

    567 37 000002   200003 470500                    LDP0    @P,,AUTO
        37 000003   000000 720100                    LXL0    0,,PR0
PL6.E3A0      #002=PRINT_PROD File=LR_CPRNT.:Z8A6TSI                             SAT 08/09/97 09:27 Page:39
        37 000004   000000 635010                    EAA     0,X0
        37 000005   000021 771000                    ARL     17
        37 000006   000000 236005 8                  LDQ     PROD,AL
        37 000007   000022 732000                    QRS     18
        37 000010   200006 756100                    STQ     S,,AUTO

      162      568
      163      569    1           CALL OUT_SYMBOL(SYM_PTRS(S));

    569 37 000011   000000 631406 6                  EPPR1   SYM_PTRS,QL
        37 000012   200010 451500                    STP1    R+1,,AUTO
        37 000013   200010 630500                    EPPR0   R+1,,AUTO
        37 000014   000000 631400 38                 EPPR1   0
        37 000015   000000 701000 xent               TSX1    OUT_SYMBOL
        37 000016   000000 011000                    NOP     0

      164      570
      165      571                %OUT_TOKEN(S="'::='");

    572 37 000017   000003 630400 38                 EPPR0   3
        37 000020   000001 631400 38                 EPPR1   1
        37 000021   000000 701000 xent               TSX1    OUT_TOKEN
        37 000022   000000 011000                    NOP     0

      166      574
      167      575    1           IF PROD.RIGHT_CNT(P) = 0 THEN

    575 37 000023   200003 470500                    LDP0    @P,,AUTO
        37 000024   000000 235100                    LDA     0,,PR0
        37 000025   000001 735000                    ALS     1
        37 000026   000001 220005 8                  LDX0    PROD+1,AL
        37 000027   000034 601000 37                 TNZ     s:580

      168      576                  %OUT_TOKEN (S='=empty=');

    577 37 000030   000006 630400 38                 EPPR0   6
        37 000031   000001 631400 38                 EPPR1   1
PL6.E3A0      #002=PRINT_PROD File=LR_CPRNT.:Z8A6TSI                             SAT 08/09/97 09:27 Page:40
        37 000032   000000 701000 xent               TSX1    OUT_TOKEN
        37 000033   000000 011000                    NOP     0

      169      579
      170      580    2           DO R=1 TO DP;

    580 37 000034   000001 235007                    LDA     1,DL
        37 000035   200007 755100                    STA     R,,AUTO
        37 000036   000064 710000 37                 TRA     s:583+1

      171      581    2              S=RIGHT_PARTS(PROD.RIGHT_START(P)+R-1);

    581 37 000037   200003 470500                    LDP0    @P,,AUTO
        37 000040   000000 235100                    LDA     0,,PR0
        37 000041   000001 735000                    ALS     1
        37 000042   000001 236005 8                  LDQ     PROD+1,AL
        37 000043   000022 736000                    QLS     18
        37 000044   000022 732000                    QRS     18
        37 000045   200007 036100                    ADLQ    R,,AUTO
        37 000046   000001 736000                    QLS     1
        37 000047   000100 100406                    MLR     fill='000'O
        37 000050   777777 400002 7                  ADSC9   RIGHT_PARTS-1,Q          cn=2,n=2
        37 000051   200010 000004                    ADSC9   R+1,,AUTO                cn=0,n=4
        37 000052   200010 236100                    LDQ     R+1,,AUTO
        37 000053   000022 732000                    QRS     18
        37 000054   200006 756100                    STQ     S,,AUTO

      172      582    2              CALL OUT_SYMBOL_TOKEN(SYM_PTRS(S));

    582 37 000055   000000 631406 6                  EPPR1   SYM_PTRS,QL
        37 000056   200010 451500                    STP1    R+1,,AUTO
        37 000057   200010 630500                    EPPR0   R+1,,AUTO
        37 000060   000000 631400 38                 EPPR1   0
        37 000061   000000 701000 xent               TSX1    OUT_SYMBOL_TOKEN
        37 000062   000000 011000                    NOP     0

      173      583    2              END;
PL6.E3A0      #002=PRINT_PROD File=LR_CPRNT.:Z8A6TSI                             SAT 08/09/97 09:27 Page:41

    583 37 000063   200007 054100                    AOS     R,,AUTO
        37 000064   200004 470500                    LDP0    @DP,,AUTO
        37 000065   200007 236100                    LDQ     R,,AUTO
        37 000066   000000 116100                    CMPQ    0,,PR0
        37 000067   000037 604400 37                 TMOZ    s:581

      174      584
      175      585    1           IF PDP THEN

    585 37 000070   200005 471500                    LDP1    @PDP,,AUTO
        37 000071   100000 234100                    SZN     0,,PR1
        37 000072   000077 605000 37                 TPL     s:590

      176      586                  %OUT_TOKEN(S='"."');

    587 37 000073   000010 630400 38                 EPPR0   8
        37 000074   000001 631400 38                 EPPR1   1
        37 000075   000000 701000 xent               TSX1    OUT_TOKEN
        37 000076   000000 011000                    NOP     0

      177      589
      178      590    2           DO R=DP+1 TO PROD.RIGHT_CNT(P);

    590 37 000077   200004 470500                    LDP0    @DP,,AUTO
        37 000100   000000 235100                    LDA     0,,PR0
        37 000101   000001 035007                    ADLA    1,DL
        37 000102   200007 755100                    STA     R,,AUTO
        37 000103   000131 710000 37                 TRA     s:593+1

      179      591    2              S=RIGHT_PARTS(PROD.RIGHT_START(P)+R-1);

    591 37 000104   200003 470500                    LDP0    @P,,AUTO
        37 000105   000000 235100                    LDA     0,,PR0
        37 000106   000001 735000                    ALS     1
        37 000107   000001 236005 8                  LDQ     PROD+1,AL
        37 000110   000022 736000                    QLS     18
PL6.E3A0      #002=PRINT_PROD File=LR_CPRNT.:Z8A6TSI                             SAT 08/09/97 09:27 Page:42
        37 000111   000022 732000                    QRS     18
        37 000112   200007 036100                    ADLQ    R,,AUTO
        37 000113   000001 736000                    QLS     1
        37 000114   000100 100406                    MLR     fill='000'O
        37 000115   777777 400002 7                  ADSC9   RIGHT_PARTS-1,Q          cn=2,n=2
        37 000116   200010 000004                    ADSC9   R+1,,AUTO                cn=0,n=4
        37 000117   200010 236100                    LDQ     R+1,,AUTO
        37 000120   000022 732000                    QRS     18
        37 000121   200006 756100                    STQ     S,,AUTO

      180      592    2              CALL OUT_SYMBOL_TOKEN(SYM_PTRS(S));

    592 37 000122   000000 631406 6                  EPPR1   SYM_PTRS,QL
        37 000123   200010 451500                    STP1    R+1,,AUTO
        37 000124   200010 630500                    EPPR0   R+1,,AUTO
        37 000125   000000 631400 38                 EPPR1   0
        37 000126   000000 701000 xent               TSX1    OUT_SYMBOL_TOKEN
        37 000127   000000 011000                    NOP     0

      181      593    2            END;

    593 37 000130   200007 054100                    AOS     R,,AUTO
        37 000131   200003 470500                    LDP0    @P,,AUTO
        37 000132   000000 235100                    LDA     0,,PR0
        37 000133   000001 735000                    ALS     1
        37 000134   000001 236005 8                  LDQ     PROD+1,AL
        37 000135   000022 732000                    QRS     18
        37 000136   200007 116100                    CMPQ    R,,AUTO
        37 000137   000104 605000 37                 TPL     s:591

      182      594
      183      595    1            IF PROD.TRAILING_SEM_ACT(P) THEN

    595 37 000140   000000 235100                    LDA     0,,PR0
        37 000141   000001 735000                    ALS     1
        37 000142   000000 236005 8                  LDQ     PROD,AL
        37 000143   400000 316007                    CANQ    -131072,DL
PL6.E3A0      #002=PRINT_PROD File=LR_CPRNT.:Z8A6TSI                             SAT 08/09/97 09:27 Page:43
        37 000144   000175 600000 37                 TZE     s:599

      184      596    1              CALL OUT_SYMBOL_TOKEN(SYM_PTRS(RIGHT_PARTS(PROD.RIGHT_START(P) +

    596 37 000145   000000 235100                    LDA     0,,PR0
        37 000146   200010 755100                    STA     R+1,,AUTO
        37 000147   000001 735000                    ALS     1
        37 000150   000001 236005 8                  LDQ     PROD+1,AL
        37 000151   000022 732000                    QRS     18
        37 000152   200011 756100                    STQ     R+2,,AUTO
        37 000153   200010 235100                    LDA     R+1,,AUTO
        37 000154   000001 735000                    ALS     1
        37 000155   000001 236005 8                  LDQ     PROD+1,AL
        37 000156   000022 736000                    QLS     18
        37 000157   000022 732000                    QRS     18
        37 000160   200011 036100                    ADLQ    R+2,,AUTO
        37 000161   000001 736000                    QLS     1
        37 000162   000100 100406                    MLR     fill='000'O
        37 000163   000000 000002 7                  ADSC9   RIGHT_PARTS,Q            cn=0,n=2
        37 000164   200012 000004                    ADSC9   R+3,,AUTO                cn=0,n=4
        37 000165   200012 236100                    LDQ     R+3,,AUTO
        37 000166   000022 732000                    QRS     18
        37 000167   000000 631406 6                  EPPR1   SYM_PTRS,QL
        37 000170   200013 451500                    STP1    R+4,,AUTO
        37 000171   200013 630500                    EPPR0   R+4,,AUTO
        37 000172   000000 631400 38                 EPPR1   0
        37 000173   000000 701000 xent               TSX1    OUT_SYMBOL_TOKEN
        37 000174   000000 011000                    NOP     0

      185      597    1                                    PROD.RIGHT_CNT(P))));
      186      598
      187      599    1           CALL FLUSH;

    599 37 000175   000012 631400 38                 EPPR1   10
        37 000176   000000 701000 xent               TSX1    FLUSH
        37 000177   000000 011000                    NOP     0

PL6.E3A0      #002=PRINT_PROD File=LR_CPRNT.:Z8A6TSI                             SAT 08/09/97 09:27 Page:44
      188      600
      189      601    1   END;

    601 37 000200   000000 702200 xent               TSX2  ! X66_ARET
      190      602        %EOD;

PL6.E3A0      #002=PRINT_PROD File=LR_CPRNT.:Z8A6TSI                             SAT 08/09/97 09:27 Page:45
--  Include file information  --

   LR_IO_EXT.:Z8A6TOU  cannot be made into a system file and is referenced.
   LR_GRAM_EXT.:Z8A6TOU  cannot be made into a system file and is referenced.
      No diagnostics issued in procedure PRINT_PROD.
PL6.E3A0      #002=PRINT_PROD File=LR_CPRNT.:Z8A6TSI                             SAT 08/09/97 09:27 Page:46

 **** Variables and constants ****

  ****  Section 000 LblCom OUT_DCBN

  ****  Scalars and arrays  ****
OctLoc.c.b A Datatyp(siz) R M Lvl/name                 OctLoc.c.b A Datatyp(siz) R M Lvl/name

     0-0-0/w SBIN              1 OUT_DCBN

  ****  Section 006 LblCom SYM_PTRS

  ****  Scalars and arrays  ****
OctLoc.c.b A Datatyp(siz) R M Lvl/name                 OctLoc.c.b A Datatyp(siz) R M Lvl/name

     0-0-0/w PTR         r     1 SYM_PTRS(0:1400)

  ****  Section 007 LblCom RIGHT_PARTS

  ****  Scalars and arrays  ****
OctLoc.c.b A Datatyp(siz) R M Lvl/name                 OctLoc.c.b A Datatyp(siz) R M Lvl/name

     0-0-0/h SBIN(18)    r     1 RIGHT_PARTS(0:8000)

  ****  Section 008 LblCom PROD

  ****  Scalars and arrays  ****
OctLoc.c.b A Datatyp(siz) R M Lvl/name                 OctLoc.c.b A Datatyp(siz) R M Lvl/name

     0-0-0/h STRC(72)    r     1 PROD(0:1500)

  ****  Section 009 LblCom NR_PROD

  ****  Scalars and arrays  ****
OctLoc.c.b A Datatyp(siz) R M Lvl/name                 OctLoc.c.b A Datatyp(siz) R M Lvl/name

     0-0-0/w SBIN              1 NR_PROD

PL6.E3A0      #002=PRINT_PROD File=LR_CPRNT.:Z8A6TSI                             SAT 08/09/97 09:27 Page:47
  ****  Section 010 LblCom NR_SYMS

  ****  Scalars and arrays  ****
OctLoc.c.b A Datatyp(siz) R M Lvl/name                 OctLoc.c.b A Datatyp(siz) R M Lvl/name

     0-0-0/w SBIN              1 NR_SYMS

  ****  Section 011 LblCom NR_TERM

  ****  Scalars and arrays  ****
OctLoc.c.b A Datatyp(siz) R M Lvl/name                 OctLoc.c.b A Datatyp(siz) R M Lvl/name

     0-0-0/w SBIN              1 NR_TERM

  ****  Section 012 LblCom LAST_ACT

  ****  Scalars and arrays  ****
OctLoc.c.b A Datatyp(siz) R M Lvl/name                 OctLoc.c.b A Datatyp(siz) R M Lvl/name

     0-0-0/w SBIN              1 LAST_ACT

  ****  Section 013 LblCom LAST_NULL

  ****  Scalars and arrays  ****
OctLoc.c.b A Datatyp(siz) R M Lvl/name                 OctLoc.c.b A Datatyp(siz) R M Lvl/name

     0-0-0/w SBIN              1 LAST_NULL

  ****  Section 014 LblCom NR_ONRIGHT

  ****  Scalars and arrays  ****
OctLoc.c.b A Datatyp(siz) R M Lvl/name                 OctLoc.c.b A Datatyp(siz) R M Lvl/name

     0-0-0/w SBIN              1 NR_ONRIGHT

  ****  Section 015 LblCom NR_NT

PL6.E3A0      #002=PRINT_PROD File=LR_CPRNT.:Z8A6TSI                             SAT 08/09/97 09:27 Page:48
  ****  Scalars and arrays  ****
OctLoc.c.b A Datatyp(siz) R M Lvl/name                 OctLoc.c.b A Datatyp(siz) R M Lvl/name

     0-0-0/w SBIN              1 NR_NT

  ****  Section 016 LblCom PROD_LEN_MAX_EVER

  ****  Scalars and arrays  ****
OctLoc.c.b A Datatyp(siz) R M Lvl/name                 OctLoc.c.b A Datatyp(siz) R M Lvl/name

     0-0-0/w SBIN              1 PROD_LEN_MAX_EVER

  ****  Section 017 LblCom LAST_ORDER_SPECIFIED

  ****  Scalars and arrays  ****
OctLoc.c.b A Datatyp(siz) R M Lvl/name                 OctLoc.c.b A Datatyp(siz) R M Lvl/name

     0-0-0/w SBIN              1 LAST_ORDER_SPECIFIED

  ****  Section 018 LblCom SEMANTIC_ORDERING

  ****  Scalars and arrays  ****
OctLoc.c.b A Datatyp(siz) R M Lvl/name                 OctLoc.c.b A Datatyp(siz) R M Lvl/name

     0-0-0/b BIT               1 SEMANTIC_ORDERING

  ****  Section 019 LblCom ERR_SEV

  ****  Scalars and arrays  ****
OctLoc.c.b A Datatyp(siz) R M Lvl/name                 OctLoc.c.b A Datatyp(siz) R M Lvl/name

     0-0-0/w SBIN              1 ERR_SEV

  ****  Section 020 LblCom SET_LENGTHB

  ****  Scalars and arrays  ****
OctLoc.c.b A Datatyp(siz) R M Lvl/name                 OctLoc.c.b A Datatyp(siz) R M Lvl/name
PL6.E3A0      #002=PRINT_PROD File=LR_CPRNT.:Z8A6TSI                             SAT 08/09/97 09:27 Page:49

     0-0-0/w SBIN              1 SET_LENGTHB

  ****  Section 021 LblCom SET_LENGTHW

  ****  Scalars and arrays  ****
OctLoc.c.b A Datatyp(siz) R M Lvl/name                 OctLoc.c.b A Datatyp(siz) R M Lvl/name

     0-0-0/w SBIN              1 SET_LENGTHW

  ****  Section 022 LblCom EOF_SYMBOL_PTR

  ****  Scalars and arrays  ****
OctLoc.c.b A Datatyp(siz) R M Lvl/name                 OctLoc.c.b A Datatyp(siz) R M Lvl/name

     0-0-0/w PTR               1 EOF_SYMBOL_PTR

  ****  Section 023 LblCom ERROR_SYMBOL_PTR

  ****  Scalars and arrays  ****
OctLoc.c.b A Datatyp(siz) R M Lvl/name                 OctLoc.c.b A Datatyp(siz) R M Lvl/name

     0-0-0/w PTR               1 ERROR_SYMBOL_PTR

  ****  Section 024 LblCom BOF_SYMBOL_PTR

  ****  Scalars and arrays  ****
OctLoc.c.b A Datatyp(siz) R M Lvl/name                 OctLoc.c.b A Datatyp(siz) R M Lvl/name

     0-0-0/w PTR               1 BOF_SYMBOL_PTR

  ****  Section 025 LblCom OPTIONS

  ****  Scalars and arrays  ****
OctLoc.c.b A Datatyp(siz) R M Lvl/name                 OctLoc.c.b A Datatyp(siz) R M Lvl/name

     0-0-0/b BIT               1 OPTIONS(0:25)
PL6.E3A0      #002=PRINT_PROD File=LR_CPRNT.:Z8A6TSI                             SAT 08/09/97 09:27 Page:50

  ****  Section 026 LblCom OPTIONS_TEXT

  ****  Scalars and arrays  ****
OctLoc.c.b A Datatyp(siz) R M Lvl/name                 OctLoc.c.b A Datatyp(siz) R M Lvl/name

     0-0-0/c CHAR(4)           1 OPTIONS_TEXT(0:25)

  ****  Section 027 LblCom INSTR

  ****  Scalars and arrays  ****
OctLoc.c.b A Datatyp(siz) R M Lvl/name                 OctLoc.c.b A Datatyp(siz) R M Lvl/name

     0-0-0/c CHAR              1 INSTR(0:511)               0-0-0/c CHAR(512)         1 INSTRCHR

  ****  Section 028 LblCom INSTR_LISTED

  ****  Scalars and arrays  ****
OctLoc.c.b A Datatyp(siz) R M Lvl/name                 OctLoc.c.b A Datatyp(siz) R M Lvl/name

     0-0-0/b BIT               1 INSTR_LISTED

  ****  Section 029 LblCom INSTR_LEN

  ****  Scalars and arrays  ****
OctLoc.c.b A Datatyp(siz) R M Lvl/name                 OctLoc.c.b A Datatyp(siz) R M Lvl/name

     0-0-0/w SBIN              1 INSTR_LEN

  ****  Section 030 LblCom INSTR_INDX

  ****  Scalars and arrays  ****
OctLoc.c.b A Datatyp(siz) R M Lvl/name                 OctLoc.c.b A Datatyp(siz) R M Lvl/name

     0-0-0/w SBIN              1 INSTR_INDX

  ****  Section 031 LblCom EOF_FLAG
PL6.E3A0      #002=PRINT_PROD File=LR_CPRNT.:Z8A6TSI                             SAT 08/09/97 09:27 Page:51

  ****  Scalars and arrays  ****
OctLoc.c.b A Datatyp(siz) R M Lvl/name                 OctLoc.c.b A Datatyp(siz) R M Lvl/name

     0-0-0/b BIT               1 EOF_FLAG

  ****  Section 032 LblCom KEY_REC

  ****  Scalars and arrays  ****
OctLoc.c.b A Datatyp(siz) R M Lvl/name                 OctLoc.c.b A Datatyp(siz) R M Lvl/name

     0-0-0/c CHAR(10)          1 KEY_REC

  ****  Section 033 LblCom LINE

  ****  Scalars and arrays  ****
OctLoc.c.b A Datatyp(siz) R M Lvl/name                 OctLoc.c.b A Datatyp(siz) R M Lvl/name

     0-0-0/c CHAR(109)         1 LINE

  ****  Section 034 LblCom LINELEN

  ****  Scalars and arrays  ****
OctLoc.c.b A Datatyp(siz) R M Lvl/name                 OctLoc.c.b A Datatyp(siz) R M Lvl/name

     0-0-0/w SBIN              1 LINELEN

  ****  Section 035 LblCom TSTATS

  ****  Scalars and arrays  ****
OctLoc.c.b A Datatyp(siz) R M Lvl/name                 OctLoc.c.b A Datatyp(siz) R M Lvl/name

     0-0-0/w STRC(7380)        1 TSTATS

  ****  Auto variables  ****

  ****  Scalars and arrays  ****
PL6.E3A0      #002=PRINT_PROD File=LR_CPRNT.:Z8A6TSI                             SAT 08/09/97 09:27 Page:52
OctLoc.c.b A Datatyp(siz) R M Lvl/name                 OctLoc.c.b A Datatyp(siz) R M Lvl/name

     4-0-0/w PTR         r     1 @DP                        3-0-0/w PTR         r     1 @P
     5-0-0/w PTR         r     1 @PDP                      *0-0-0/w SBIN        r     1 DP
    *0-0-0/w SBIN        r     1 P                         *0-0-0/w BIT         r     1 PDP
     7-0-0/w SBIN        r     1 R                          6-0-0/w SBIN        r     1 S

  ****  BASED and DCB variables  ****

  ****  Scalars and arrays  ****
OctLoc.c.b A Datatyp(siz) R M Lvl/name                 OctLoc.c.b A Datatyp(siz) R M Lvl/name

     0-0-0N  NULL        r     1 M$LO                       0-0-0N  NULL        r     1 M$OU
     0-0-0N  NULL        r     1 M$SI                       0-0-0N  NULL        r     1 M$SO
     0-0-0N  NULL        r     1 M$UI                       0-0-0/w STRC(351)         1 SYMBOL


   Procedure PRINT_PROD requires 129 words for executable code.
   Procedure PRINT_PROD requires 12 words of local(AUTO) storage.

PL6.E3A0      #003=PRINT_ITEM File=LR_CPRNT.:Z8A6TSI                             SAT 08/09/97 09:28 Page:53
      191        1        /*T***********************************************************/
      192        2        /*T*                                                         */
      193        3        /*T* Copyright (c) Bull HN Information Systems Inc., 1997    */
      194        4        /*T*                                                         */
      195        5        /*T***********************************************************/
      196        6        PRINT_ITEM : PROC (C, E, KEY_POS);
      197        7
      198        8        /*D*
      199        9               NAME: PRINT_ITEM
      200       10           PURPOSE: Print the item in state C, along with basis/closure info.
      201       11        */
      202       12
      203       13    1   DCL C SBIN WORD;
      204       14    1   DCL E SBIN WORD;
      205       15    1   DCL KEY_POS SBIN WORD;
      206       16
      207       17        %INCLUDE LR_GRAM_EXT;
      208      556        %INCLUDE LR_CNFG_EXT;
      209      709
      210      710    1   DCL OUT_STR ENTRY(2);
      211      711    1   DCL FLUSH ENTRY;
      212      712    1   DCL OUT_TOKEN ENTRY(2);
      213      713    1   DCL PRINT_PROD ENTRY(3);
      214      714
      215      715    1   DCL P SBIN WORD;
      216      716    1   DCL DP SBIN WORD;
      217      717    1   DCL KEY$ PTR;
      218      718
      219      719    1   DCL 1 PROD_TEXT STATIC,
      220      720    1         2 BC      CHAR(1),
      221      721    1         2 *       CHAR(1) INIT('I'),
      222      722    1         2 ITEM_NO CHAR(3),
      223      723    1         2 *       CHAR(1) INIT('('),
      224      724    1         2 *       CHAR(1) INIT('P'),
      225      725    1         2 NO      CHAR(4),
      226      726    1         2 *       CHAR(1) INIT(')');
      227      727
PL6.E3A0      #003=PRINT_ITEM File=LR_CPRNT.:Z8A6TSI                             SAT 08/09/97 09:28 Page:54
      228      728    1   DCL 1 CONFIG_TEXT STATIC,
      229      729    1         2 *       CHAR(1) INIT('C'),
      230      730    1         2 NO      CHAR(4),
      231      731    1         2 *       CHAR(1) INIT('('),
      232      732    1         2 ITEM_NO CHAR(3),
      233      733    1         2 *       CHAR(1) INIT(')');
      234      734
      235      735    1     KEY$ = C#_TO_$(C) -> C_SET_B.ELEM.KEY$(E);
      236      736
      237      737    1     P=KEY$->KEY_B.ELEM.PROD(KEY_POS);
      238      738    1     DP=KEY$->KEY_B.ELEM.DOT_POS(KEY_POS);
      239      739
      240      740    1     IF C#_TO_$(C)->C_SET_B.ELEM.ITEM$(E)->ITEM_B.ELEM.ITEM#(KEY_POS) <
      241      741    1         C#_TO_$(C)->C_SET_B.BASIS_COUNT THEN
      242      742    1       PROD_TEXT.BC = 'B';  /* BASIS */
      243      743    1     ELSE
      244      744    1       PROD_TEXT.BC = 'C';  /* CLOSURE */
      245      745
      246      746    1     CALL BINCHAR (PROD_TEXT.ITEM_NO,
      247      747    1                   C#_TO_$(C) -> C_SET_B.ELEM.ITEM$(E)->ITEM_B.ELEM.ITEM#(KEY_POS));
      248      748
      249      749    1     CALL BINCHAR(PROD_TEXT.NO,P+1);
      250      750
      251      751    1     CALL OUT_STR(PROD_TEXT,LENGTHC(PROD_TEXT));
      252      752
      253      753    1     IF KEY$->KEY_B.W.SYM_AFTER=0 THEN
      254      754    2     DO;
      255      755             %OUT_STR(S="'  (Reduce)      '");
      256      758
      257      759    2        END;
      258      760    1     ELSE
      259      761    2     DO;
      260      762    2        CALL BINCHAR(CONFIG_TEXT.ITEM_NO,
      261      763    2                     C#_TO_$(C)->C_SET_B.ELEM.ITEM$(E)->ITEM_B.ELEM.SUCC_ITEM#(KEY_POS)
               763                              );
      262      764    2        CALL BINCHAR(CONFIG_TEXT.NO,
      263      765    2          KEY$->KEY_B.KEY_VAL$->C_SET_B.C_SET#);
PL6.E3A0      #003=PRINT_ITEM File=LR_CPRNT.:Z8A6TSI                             SAT 08/09/97 09:28 Page:55
      264      766
      265      767             %OUT_STR(S="' => '");
      266      770    2        CALL OUT_TOKEN(CONFIG_TEXT,LENGTHC(CONFIG_TEXT));
      267      771             %OUT_STR(S="' '");
      268      774    2        END;
      269      775
      270      776
      271      777    1     CALL PRINT_PROD(P, DP, '1'B);
      272      778
      273      779
      274      780    1   END PRINT_ITEM;

PL6.E3A0      #003=PRINT_ITEM File=LR_CPRNT.:Z8A6TSI                             SAT 08/09/97 09:28 Page:56
--  Include file information  --

   LR_CNFG_EXT.:Z8A6TOU  cannot be made into a system file and is referenced.
   LR_IO_EXT.:Z8A6TOU  cannot be made into a system file and is referenced.
   LR_GRAM_EXT.:Z8A6TOU  cannot be made into a system file and is referenced.
      No diagnostics issued in procedure PRINT_ITEM.

   Procedure PRINT_ITEM requires 109 words for executable code.
   Procedure PRINT_ITEM requires 14 words of local(AUTO) storage.

    No errors detected in file LR_CPRNT.:Z8A6TSI    .

PL6.E3A0      #003=PRINT_ITEM File=LR_CPRNT.:Z8A6TSI                             SAT 08/09/97 09:28 Page:57

 Object Unit name= PRINT_ITEM                                 File name= LR_CPRNT.:Z8A6TOU
 UTS= AUG 09 '97 09:28:10.92 SAT                              Compiler= PL-6/E31         Sev=      00
 SharedLib= :SHARED_SYSTEM                                    Alt SharedLib=


    ****  Control sections  ****

 Sect   Type Bound  Init  Size OctSiz  Section name(segment info)
    0  LblCom even  none     1      1  OUT_DCBN
    1   DCB   even  none     0      0  M$OU
    2   DCB   even  none     0      0  M$SO
    3   DCB   even  none     0      0  M$LO
    4   DCB   even  none     0      0  M$SI
    5   DCB   even  none     0      0  M$UI
    6  LblCom even  none  1401   2571  SYM_PTRS
    7  LblCom even  none  4001   7641  RIGHT_PARTS
    8  LblCom even  none  3002   5672  PROD
    9  LblCom even  none     1      1  NR_PROD
   10  LblCom even  none     1      1  NR_SYMS
   11  LblCom even  none     1      1  NR_TERM
   12  LblCom even  none     1      1  LAST_ACT
   13  LblCom even  none     1      1  LAST_NULL
   14  LblCom even  none     1      1  NR_ONRIGHT
   15  LblCom even  none     1      1  NR_NT
   16  LblCom even  none     1      1  PROD_LEN_MAX_EVER
   17  LblCom even  none     1      1  LAST_ORDER_SPECIFIED
   18  LblCom even  none     1      1  SEMANTIC_ORDERING
   19  LblCom even  none     1      1  ERR_SEV
   20  LblCom even  none     1      1  SET_LENGTHB
   21  LblCom even  none     1      1  SET_LENGTHW
   22  LblCom even  none     1      1  EOF_SYMBOL_PTR
   23  LblCom even  none     1      1  ERROR_SYMBOL_PTR
   24  LblCom even  none     1      1  BOF_SYMBOL_PTR
   25  LblCom even  none     1      1  OPTIONS
   26  LblCom even  none    26     32  OPTIONS_TEXT
   27  LblCom even  none   128    200  INSTR
   28  LblCom even  none     1      1  INSTR_LISTED
PL6.E3A0      #003=PRINT_ITEM File=LR_CPRNT.:Z8A6TSI                             SAT 08/09/97 09:28 Page:58
   29  LblCom even  none     1      1  INSTR_LEN
   30  LblCom even  none     1      1  INSTR_INDX
   31  LblCom even  none     1      1  EOF_FLAG
   32  LblCom even  none     3      3  KEY_REC
   33  LblCom even  none    28     34  LINE
   34  LblCom even  none     1      1  LINELEN
   35  LblCom even  none   205    315  TSTATS
   36  LblCom even  none  2201   4231  C#_TO_$
   37  LblCom even  none     1      1  NR_CONFIG
   38  LblCom even  none     1      1  INIT_CONFIG
   39  LblCom even  none     1      1  MAX_BASIS_ITEMS
   40  LblCom even  none     1      1  MAX_TOTAL_ITEMS
   41  LblCom even  none     1      1  LAST_BINSRCH_ONLY
   42  LblCom even  none     1      1  LAST_BOTH_BITBIN
   43   Data  even  none     6      6  PRINT_ITEM
   44  RoData even  UTS      5      5  PRINT_ITEM
   45   Proc  even  none   109    155  PRINT_ITEM
   46  RoData even  none    20     24  PRINT_ITEM

    ****  Entry defs  ****

                              Check   Calling
                             calling  sequence
  Sect OctLoc Primary Altret sequence   type   Parms  Name
    45      0   yes            yes      Std        3  PRINT_ITEM

  ****  Entry refs  ****

         Check        Calling
        calling       sequence
Altret sequence SRef   type   Args  Name
         yes           Std       2 OUT_STR
         yes           Std       3 PRINT_PROD
         yes           Std       2 OUT_TOKEN
                       nStd      0 X66_AUTO_3
                       nStd      0 X66_ARET
PL6.E3A0      #003=PRINT_ITEM File=LR_CPRNT.:Z8A6TSI                             SAT 08/09/97 09:28 Page:59

  ****  Data refs  ****

  Flags:  r = read only, s = secondary
Flgs Name                             Flgs Name                             Flgs Name
     M$OU                                  M$SO                                  M$LO
     M$SI                                  M$UI

  ****  Segment refs  ****

  Flags:  r = read only, s = secondary
Flgs Name                             Flgs Name                             Flgs Name
     NULLSID                               ISSID
PL6.E3A0      #003=PRINT_ITEM File=LR_CPRNT.:Z8A6TSI                             SAT 08/09/97 09:28 Page:60


      191        1        /*T***********************************************************/
      192        2        /*T*                                                         */
      193        3        /*T* Copyright (c) Bull HN Information Systems Inc., 1997    */
      194        4        /*T*                                                         */
      195        5        /*T***********************************************************/
      196        6        PRINT_ITEM : PROC (C, E, KEY_POS);

      6 45 000000   000000 700200 xent  PRINT_ITEM   TSX0  ! X66_AUTO_3
        45 000001   000016 000003                    ZERO    14,3

      197        7
      198        8        /*D*
      199        9               NAME: PRINT_ITEM
      200       10           PURPOSE: Print the item in state C, along with basis/closure info.
      201       11        */
      202       12
      203       13    1   DCL C SBIN WORD;
      204       14    1   DCL E SBIN WORD;
      205       15    1   DCL KEY_POS SBIN WORD;
      206       16
      207       17        %INCLUDE LR_GRAM_EXT;
      208      556        %INCLUDE LR_CNFG_EXT;
      209      709
      210      710    1   DCL OUT_STR ENTRY(2);
      211      711    1   DCL FLUSH ENTRY;
      212      712    1   DCL OUT_TOKEN ENTRY(2);
      213      713    1   DCL PRINT_PROD ENTRY(3);
      214      714
      215      715    1   DCL P SBIN WORD;
      216      716    1   DCL DP SBIN WORD;
      217      717    1   DCL KEY$ PTR;
      218      718
      219      719    1   DCL 1 PROD_TEXT STATIC,
      220      720    1         2 BC      CHAR(1),
      221      721    1         2 *       CHAR(1) INIT('I'),
      222      722    1         2 ITEM_NO CHAR(3),
PL6.E3A0      #003=PRINT_ITEM File=LR_CPRNT.:Z8A6TSI                             SAT 08/09/97 09:28 Page:61
      223      723    1         2 *       CHAR(1) INIT('('),
      224      724    1         2 *       CHAR(1) INIT('P'),
      225      725    1         2 NO      CHAR(4),
      226      726    1         2 *       CHAR(1) INIT(')');
      227      727
      228      728    1   DCL 1 CONFIG_TEXT STATIC,
      229      729    1         2 *       CHAR(1) INIT('C'),
      230      730    1         2 NO      CHAR(4),
      231      731    1         2 *       CHAR(1) INIT('('),
      232      732    1         2 ITEM_NO CHAR(3),
      233      733    1         2 *       CHAR(1) INIT(')');
      234      734
      235      735    1     KEY$ = C#_TO_$(C) -> C_SET_B.ELEM.KEY$(E);

    735 45 000002   200003 470500                    LDP0    @C,,AUTO
        45 000003   000000 720100                    LXL0    0,,PR0
        45 000004   000000 471410 36                 LDP1    C#_TO_$,X0
        45 000005   200004 473500                    LDP3    @E,,AUTO
        45 000006   300000 235100                    LDA     0,,PR3
        45 000007   000002 735000                    ALS     2
        45 000010   100004 236105                    LDQ     4,AL,PR1
        45 000011   200010 756100                    STQ     KEY$,,AUTO

      236      736
      237      737    1     P=KEY$->KEY_B.ELEM.PROD(KEY_POS);

    737 45 000012   200005 471500                    LDP1    @KEY_POS,,AUTO
        45 000013   100000 235100                    LDA     0,,PR1
        45 000014   200010 474500                    LDP4    KEY$,,AUTO
        45 000015   400006 236105                    LDQ     6,AL,PR4
        45 000016   000022 772000                    QRL     18
        45 000017   200006 756100                    STQ     P,,AUTO

      238      738    1     DP=KEY$->KEY_B.ELEM.DOT_POS(KEY_POS);

    738 45 000020   100000 235100                    LDA     0,,PR1
        45 000021   400006 236105                    LDQ     6,AL,PR4
PL6.E3A0      #003=PRINT_ITEM File=LR_CPRNT.:Z8A6TSI                             SAT 08/09/97 09:28 Page:62
        45 000022   777777 376007                    ANQ     -1,DL
        45 000023   200007 756100                    STQ     DP,,AUTO

      239      739
      240      740    1     IF C#_TO_$(C)->C_SET_B.ELEM.ITEM$(E)->ITEM_B.ELEM.ITEM#(KEY_POS) <

    740 45 000024   000000 720100                    LXL0    0,,PR0
        45 000025   000000 475410 36                 LDP5    C#_TO_$,X0
        45 000026   300000 235100                    LDA     0,,PR3
        45 000027   000002 735000                    ALS     2
        45 000030   500006 476505                    LDP6    6,AL,PR5
        45 000031   100000 720100                    LXL0    0,,PR1
        45 000032   000000 721100                    LXL1    0,,PR0
        45 000033   000000 475411 36                 LDP5    C#_TO_$,X1
        45 000034   500002 721100                    LXL1    2,,PR5
        45 000035   600000 101110                    CMPX1   0,X0,PR6
        45 000036   000042 604400 45                 TMOZ    s:744

      241      741    1         C#_TO_$(C)->C_SET_B.BASIS_COUNT THEN
      242      742    1       PROD_TEXT.BC = 'B';  /* BASIS */

    742 45 000037   102000 236003                    LDQ     33792,DU
        45 000040   000000 552040 43                 STBQ    PROD_TEXT,'40'O
        45 000041   000044 710000 45                 TRA     s:746

      243      743    1     ELSE
      244      744    1       PROD_TEXT.BC = 'C';  /* CLOSURE */

    744 45 000042   103000 236003                    LDQ     34304,DU
        45 000043   000000 552040 43                 STBQ    PROD_TEXT,'40'O

      245      745
      246      746    1     CALL BINCHAR (PROD_TEXT.ITEM_NO,

    746 45 000044   000000 720100                    LXL0    0,,PR0
        45 000045   000000 475410 36                 LDP5    C#_TO_$,X0
        45 000046   300000 235100                    LDA     0,,PR3
PL6.E3A0      #003=PRINT_ITEM File=LR_CPRNT.:Z8A6TSI                             SAT 08/09/97 09:28 Page:63
        45 000047   000002 735000                    ALS     2
        45 000050   500006 476505                    LDP6    6,AL,PR5
        45 000051   100000 720100                    LXL0    0,,PR1
        45 000052   000000 635010                    EAA     0,X0
        45 000053   000020 771000                    ARL     16
        45 000054   000000 301505                    BTD
        45 000055   600000 000002                    NDSC9   0,A,PR6                  cn=0,s=lsgnf,sf=0,n=2
        45 000056   000000 430003 43                 NDSC9   PROD_TEXT                cn=2,s=nosgn,sf=0,n=3

      247      747    1                   C#_TO_$(C) -> C_SET_B.ELEM.ITEM$(E)->ITEM_B.ELEM.ITEM#(KEY_POS));
      248      748
      249      749    1     CALL BINCHAR(PROD_TEXT.NO,P+1);

    749 45 000057   200006 235100                    LDA     P,,AUTO
        45 000060   000001 035007                    ADLA    1,DL
        45 000061   200012 755100                    STA     KEY$+2,,AUTO
        45 000062   000000 301500                    BTD
        45 000063   200012 000004                    NDSC9   KEY$+2,,AUTO             cn=0,s=lsgnf,sf=0,n=4
        45 000064   000001 630004 43                 NDSC9   PROD_TEXT+1              cn=3,s=nosgn,sf=0,n=4

      250      750
      251      751    1     CALL OUT_STR(PROD_TEXT,LENGTHC(PROD_TEXT));

    751 45 000065   000002 630400 46                 EPPR0   2
        45 000066   000000 631400 46                 EPPR1   0
        45 000067   000000 701000 xent               TSX1    OUT_STR
        45 000070   000000 011000                    NOP     0

      252      752
      253      753    1     IF KEY$->KEY_B.W.SYM_AFTER=0 THEN

    753 45 000071   200010 470500                    LDP0    KEY$,,AUTO
        45 000072   000004 235100                    LDA     4,,PR0
        45 000073   000101 601000 45                 TNZ     s:762

      254      754    2     DO;

PL6.E3A0      #003=PRINT_ITEM File=LR_CPRNT.:Z8A6TSI                             SAT 08/09/97 09:28 Page:64
      255      755             %OUT_STR(S="'  (Reduce)      '");

    756 45 000074   000005 630400 46                 EPPR0   5
        45 000075   000000 631400 46                 EPPR1   0
        45 000076   000000 701000 xent               TSX1    OUT_STR
        45 000077   000000 011000                    NOP     0

      256      758
      257      759    2        END;

    759 45 000100   000142 710000 45                 TRA     s:777

      258      760    1     ELSE
      259      761    2     DO;

      260      762    2        CALL BINCHAR(CONFIG_TEXT.ITEM_NO,

    762 45 000101   200003 471500                    LDP1    @C,,AUTO
        45 000102   100000 720100                    LXL0    0,,PR1
        45 000103   000000 473410 36                 LDP3    C#_TO_$,X0
        45 000104   200004 474500                    LDP4    @E,,AUTO
        45 000105   400000 235100                    LDA     0,,PR4
        45 000106   000002 735000                    ALS     2
        45 000107   300006 475505                    LDP5    6,AL,PR3
        45 000110   200005 473500                    LDP3    @KEY_POS,,AUTO
        45 000111   300000 235100                    LDA     0,,PR3
        45 000112   000002 735000                    ALS     2
        45 000113   000000 301505                    BTD
        45 000114   500000 400002                    NDSC9   0,A,PR5                  cn=2,s=lsgnf,sf=0,n=2
        45 000115   000004 430003 43                 NDSC9   CONFIG_TEXT+1            cn=2,s=nosgn,sf=0,n=3

      261      763    2                    C#_TO_$(C)->C_SET_B.ELEM.ITEM$(E)->ITEM_B.ELEM.SUCC_ITEM#(KEY_POS)
               763                              );
      262      764    2        CALL BINCHAR(CONFIG_TEXT.NO,

    764 45 000116   000003 475500                    LDP5    3,,PR0
        45 000117   500001 236100                    LDQ     1,,PR5
PL6.E3A0      #003=PRINT_ITEM File=LR_CPRNT.:Z8A6TSI                             SAT 08/09/97 09:28 Page:65
        45 000120   000022 772000                    QRL     18
        45 000121   000000 235003                    LDA     0,DU
        45 000122   200012 757100                    STAQ    KEY$+2,,AUTO
        45 000123   000000 301500                    BTD
        45 000124   200012 000010                    NDSC9   KEY$+2,,AUTO             cn=0,s=lsgnf,sf=0,n=8
        45 000125   000003 230004 43                 NDSC9   CONFIG_TEXT              cn=1,s=nosgn,sf=0,n=4

      263      765    2          KEY$->KEY_B.KEY_VAL$->C_SET_B.C_SET#);
      264      766
      265      767             %OUT_STR(S="' => '");

    768 45 000126   000010 630400 46                 EPPR0   8
        45 000127   000000 631400 46                 EPPR1   0
        45 000130   000000 701000 xent               TSX1    OUT_STR
        45 000131   000000 011000                    NOP     0

      266      770    2        CALL OUT_TOKEN(CONFIG_TEXT,LENGTHC(CONFIG_TEXT));

    770 45 000132   000013 630400 46                 EPPR0   11
        45 000133   000000 631400 46                 EPPR1   0
        45 000134   000000 701000 xent               TSX1    OUT_TOKEN
        45 000135   000000 011000                    NOP     0

      267      771             %OUT_STR(S="' '");

    772 45 000136   000017 630400 46                 EPPR0   15
        45 000137   000000 631400 46                 EPPR1   0
        45 000140   000000 701000 xent               TSX1    OUT_STR
        45 000141   000000 011000                    NOP     0

      268      774    2        END;

      269      775
      270      776
      271      777    1     CALL PRINT_PROD(P, DP, '1'B);

    777 45 000142   000023 236000 46                 LDQ     19
PL6.E3A0      #003=PRINT_ITEM File=LR_CPRNT.:Z8A6TSI                             SAT 08/09/97 09:28 Page:66
        45 000143   200014 756100                    STQ     KEY$+4,,AUTO
        45 000144   200007 630500                    EPPR0   DP,,AUTO
        45 000145   200013 450500                    STP0    KEY$+3,,AUTO
        45 000146   200006 631500                    EPPR1   P,,AUTO
        45 000147   200012 451500                    STP1    KEY$+2,,AUTO
        45 000150   200012 630500                    EPPR0   KEY$+2,,AUTO
        45 000151   000021 631400 46                 EPPR1   17
        45 000152   000000 701000 xent               TSX1    PRINT_PROD
        45 000153   000000 011000                    NOP     0

      272      778
      273      779
      274      780    1   END PRINT_ITEM;

    780 45 000154   000000 702200 xent               TSX2  ! X66_ARET

PL6.E3A0      #003=PRINT_ITEM File=LR_CPRNT.:Z8A6TSI                             SAT 08/09/97 09:28 Page:67
--  Include file information  --

   LR_CNFG_EXT.:Z8A6TOU  cannot be made into a system file and is referenced.
   LR_IO_EXT.:Z8A6TOU  cannot be made into a system file and is referenced.
   LR_GRAM_EXT.:Z8A6TOU  cannot be made into a system file and is referenced.
      No diagnostics issued in procedure PRINT_ITEM.
PL6.E3A0      #003=PRINT_ITEM File=LR_CPRNT.:Z8A6TSI                             SAT 08/09/97 09:28 Page:68

 **** Variables and constants ****

  ****  Section 000 LblCom OUT_DCBN

  ****  Scalars and arrays  ****
OctLoc.c.b A Datatyp(siz) R M Lvl/name                 OctLoc.c.b A Datatyp(siz) R M Lvl/name

     0-0-0/w SBIN              1 OUT_DCBN

  ****  Section 006 LblCom SYM_PTRS

  ****  Scalars and arrays  ****
OctLoc.c.b A Datatyp(siz) R M Lvl/name                 OctLoc.c.b A Datatyp(siz) R M Lvl/name

     0-0-0/w PTR               1 SYM_PTRS(0:1400)

  ****  Section 007 LblCom RIGHT_PARTS

  ****  Scalars and arrays  ****
OctLoc.c.b A Datatyp(siz) R M Lvl/name                 OctLoc.c.b A Datatyp(siz) R M Lvl/name

     0-0-0/h SBIN(18)          1 RIGHT_PARTS(0:8000)

  ****  Section 008 LblCom PROD

  ****  Scalars and arrays  ****
OctLoc.c.b A Datatyp(siz) R M Lvl/name                 OctLoc.c.b A Datatyp(siz) R M Lvl/name

     0-0-0/h STRC(72)          1 PROD(0:1500)

  ****  Section 009 LblCom NR_PROD

  ****  Scalars and arrays  ****
OctLoc.c.b A Datatyp(siz) R M Lvl/name                 OctLoc.c.b A Datatyp(siz) R M Lvl/name

     0-0-0/w SBIN              1 NR_PROD

PL6.E3A0      #003=PRINT_ITEM File=LR_CPRNT.:Z8A6TSI                             SAT 08/09/97 09:28 Page:69
  ****  Section 010 LblCom NR_SYMS

  ****  Scalars and arrays  ****
OctLoc.c.b A Datatyp(siz) R M Lvl/name                 OctLoc.c.b A Datatyp(siz) R M Lvl/name

     0-0-0/w SBIN              1 NR_SYMS

  ****  Section 011 LblCom NR_TERM

  ****  Scalars and arrays  ****
OctLoc.c.b A Datatyp(siz) R M Lvl/name                 OctLoc.c.b A Datatyp(siz) R M Lvl/name

     0-0-0/w SBIN              1 NR_TERM

  ****  Section 012 LblCom LAST_ACT

  ****  Scalars and arrays  ****
OctLoc.c.b A Datatyp(siz) R M Lvl/name                 OctLoc.c.b A Datatyp(siz) R M Lvl/name

     0-0-0/w SBIN              1 LAST_ACT

  ****  Section 013 LblCom LAST_NULL

  ****  Scalars and arrays  ****
OctLoc.c.b A Datatyp(siz) R M Lvl/name                 OctLoc.c.b A Datatyp(siz) R M Lvl/name

     0-0-0/w SBIN              1 LAST_NULL

  ****  Section 014 LblCom NR_ONRIGHT

  ****  Scalars and arrays  ****
OctLoc.c.b A Datatyp(siz) R M Lvl/name                 OctLoc.c.b A Datatyp(siz) R M Lvl/name

     0-0-0/w SBIN              1 NR_ONRIGHT

  ****  Section 015 LblCom NR_NT

PL6.E3A0      #003=PRINT_ITEM File=LR_CPRNT.:Z8A6TSI                             SAT 08/09/97 09:28 Page:70
  ****  Scalars and arrays  ****
OctLoc.c.b A Datatyp(siz) R M Lvl/name                 OctLoc.c.b A Datatyp(siz) R M Lvl/name

     0-0-0/w SBIN              1 NR_NT

  ****  Section 016 LblCom PROD_LEN_MAX_EVER

  ****  Scalars and arrays  ****
OctLoc.c.b A Datatyp(siz) R M Lvl/name                 OctLoc.c.b A Datatyp(siz) R M Lvl/name

     0-0-0/w SBIN              1 PROD_LEN_MAX_EVER

  ****  Section 017 LblCom LAST_ORDER_SPECIFIED

  ****  Scalars and arrays  ****
OctLoc.c.b A Datatyp(siz) R M Lvl/name                 OctLoc.c.b A Datatyp(siz) R M Lvl/name

     0-0-0/w SBIN              1 LAST_ORDER_SPECIFIED

  ****  Section 018 LblCom SEMANTIC_ORDERING

  ****  Scalars and arrays  ****
OctLoc.c.b A Datatyp(siz) R M Lvl/name                 OctLoc.c.b A Datatyp(siz) R M Lvl/name

     0-0-0/b BIT               1 SEMANTIC_ORDERING

  ****  Section 019 LblCom ERR_SEV

  ****  Scalars and arrays  ****
OctLoc.c.b A Datatyp(siz) R M Lvl/name                 OctLoc.c.b A Datatyp(siz) R M Lvl/name

     0-0-0/w SBIN              1 ERR_SEV

  ****  Section 020 LblCom SET_LENGTHB

  ****  Scalars and arrays  ****
OctLoc.c.b A Datatyp(siz) R M Lvl/name                 OctLoc.c.b A Datatyp(siz) R M Lvl/name
PL6.E3A0      #003=PRINT_ITEM File=LR_CPRNT.:Z8A6TSI                             SAT 08/09/97 09:28 Page:71

     0-0-0/w SBIN              1 SET_LENGTHB

  ****  Section 021 LblCom SET_LENGTHW

  ****  Scalars and arrays  ****
OctLoc.c.b A Datatyp(siz) R M Lvl/name                 OctLoc.c.b A Datatyp(siz) R M Lvl/name

     0-0-0/w SBIN              1 SET_LENGTHW

  ****  Section 022 LblCom EOF_SYMBOL_PTR

  ****  Scalars and arrays  ****
OctLoc.c.b A Datatyp(siz) R M Lvl/name                 OctLoc.c.b A Datatyp(siz) R M Lvl/name

     0-0-0/w PTR               1 EOF_SYMBOL_PTR

  ****  Section 023 LblCom ERROR_SYMBOL_PTR

  ****  Scalars and arrays  ****
OctLoc.c.b A Datatyp(siz) R M Lvl/name                 OctLoc.c.b A Datatyp(siz) R M Lvl/name

     0-0-0/w PTR               1 ERROR_SYMBOL_PTR

  ****  Section 024 LblCom BOF_SYMBOL_PTR

  ****  Scalars and arrays  ****
OctLoc.c.b A Datatyp(siz) R M Lvl/name                 OctLoc.c.b A Datatyp(siz) R M Lvl/name

     0-0-0/w PTR               1 BOF_SYMBOL_PTR

  ****  Section 025 LblCom OPTIONS

  ****  Scalars and arrays  ****
OctLoc.c.b A Datatyp(siz) R M Lvl/name                 OctLoc.c.b A Datatyp(siz) R M Lvl/name

     0-0-0/b BIT               1 OPTIONS(0:25)
PL6.E3A0      #003=PRINT_ITEM File=LR_CPRNT.:Z8A6TSI                             SAT 08/09/97 09:28 Page:72

  ****  Section 026 LblCom OPTIONS_TEXT

  ****  Scalars and arrays  ****
OctLoc.c.b A Datatyp(siz) R M Lvl/name                 OctLoc.c.b A Datatyp(siz) R M Lvl/name

     0-0-0/c CHAR(4)           1 OPTIONS_TEXT(0:25)

  ****  Section 027 LblCom INSTR

  ****  Scalars and arrays  ****
OctLoc.c.b A Datatyp(siz) R M Lvl/name                 OctLoc.c.b A Datatyp(siz) R M Lvl/name

     0-0-0/c CHAR              1 INSTR(0:511)               0-0-0/c CHAR(512)         1 INSTRCHR

  ****  Section 028 LblCom INSTR_LISTED

  ****  Scalars and arrays  ****
OctLoc.c.b A Datatyp(siz) R M Lvl/name                 OctLoc.c.b A Datatyp(siz) R M Lvl/name

     0-0-0/b BIT               1 INSTR_LISTED

  ****  Section 029 LblCom INSTR_LEN

  ****  Scalars and arrays  ****
OctLoc.c.b A Datatyp(siz) R M Lvl/name                 OctLoc.c.b A Datatyp(siz) R M Lvl/name

     0-0-0/w SBIN              1 INSTR_LEN

  ****  Section 030 LblCom INSTR_INDX

  ****  Scalars and arrays  ****
OctLoc.c.b A Datatyp(siz) R M Lvl/name                 OctLoc.c.b A Datatyp(siz) R M Lvl/name

     0-0-0/w SBIN              1 INSTR_INDX

  ****  Section 031 LblCom EOF_FLAG
PL6.E3A0      #003=PRINT_ITEM File=LR_CPRNT.:Z8A6TSI                             SAT 08/09/97 09:28 Page:73

  ****  Scalars and arrays  ****
OctLoc.c.b A Datatyp(siz) R M Lvl/name                 OctLoc.c.b A Datatyp(siz) R M Lvl/name

     0-0-0/b BIT               1 EOF_FLAG

  ****  Section 032 LblCom KEY_REC

  ****  Scalars and arrays  ****
OctLoc.c.b A Datatyp(siz) R M Lvl/name                 OctLoc.c.b A Datatyp(siz) R M Lvl/name

     0-0-0/c CHAR(10)          1 KEY_REC

  ****  Section 033 LblCom LINE

  ****  Scalars and arrays  ****
OctLoc.c.b A Datatyp(siz) R M Lvl/name                 OctLoc.c.b A Datatyp(siz) R M Lvl/name

     0-0-0/c CHAR(109)         1 LINE

  ****  Section 034 LblCom LINELEN

  ****  Scalars and arrays  ****
OctLoc.c.b A Datatyp(siz) R M Lvl/name                 OctLoc.c.b A Datatyp(siz) R M Lvl/name

     0-0-0/w SBIN              1 LINELEN

  ****  Section 035 LblCom TSTATS

  ****  Scalars and arrays  ****
OctLoc.c.b A Datatyp(siz) R M Lvl/name                 OctLoc.c.b A Datatyp(siz) R M Lvl/name

     0-0-0/w STRC(7380)        1 TSTATS

  ****  Section 036 LblCom C#_TO_$

  ****  Scalars and arrays  ****
PL6.E3A0      #003=PRINT_ITEM File=LR_CPRNT.:Z8A6TSI                             SAT 08/09/97 09:28 Page:74
OctLoc.c.b A Datatyp(siz) R M Lvl/name                 OctLoc.c.b A Datatyp(siz) R M Lvl/name

     0-0-0/w PTR         r     1 C#_TO_$(0:2200)

  ****  Section 037 LblCom NR_CONFIG

  ****  Scalars and arrays  ****
OctLoc.c.b A Datatyp(siz) R M Lvl/name                 OctLoc.c.b A Datatyp(siz) R M Lvl/name

     0-0-0/w SBIN              1 NR_CONFIG

  ****  Section 038 LblCom INIT_CONFIG

  ****  Scalars and arrays  ****
OctLoc.c.b A Datatyp(siz) R M Lvl/name                 OctLoc.c.b A Datatyp(siz) R M Lvl/name

     0-0-0/w SBIN              1 INIT_CONFIG

  ****  Section 039 LblCom MAX_BASIS_ITEMS

  ****  Scalars and arrays  ****
OctLoc.c.b A Datatyp(siz) R M Lvl/name                 OctLoc.c.b A Datatyp(siz) R M Lvl/name

     0-0-0/w SBIN              1 MAX_BASIS_ITEMS

  ****  Section 040 LblCom MAX_TOTAL_ITEMS

  ****  Scalars and arrays  ****
OctLoc.c.b A Datatyp(siz) R M Lvl/name                 OctLoc.c.b A Datatyp(siz) R M Lvl/name

     0-0-0/w SBIN              1 MAX_TOTAL_ITEMS

  ****  Section 041 LblCom LAST_BINSRCH_ONLY

  ****  Scalars and arrays  ****
OctLoc.c.b A Datatyp(siz) R M Lvl/name                 OctLoc.c.b A Datatyp(siz) R M Lvl/name

PL6.E3A0      #003=PRINT_ITEM File=LR_CPRNT.:Z8A6TSI                             SAT 08/09/97 09:28 Page:75
     0-0-0/w SBIN              1 LAST_BINSRCH_ONLY

  ****  Section 042 LblCom LAST_BOTH_BITBIN

  ****  Scalars and arrays  ****
OctLoc.c.b A Datatyp(siz) R M Lvl/name                 OctLoc.c.b A Datatyp(siz) R M Lvl/name

     0-0-0/w SBIN              1 LAST_BOTH_BITBIN

  ****  Section 043  Data  PRINT_ITEM

  ****  Scalars and arrays  ****
OctLoc.c.b A Datatyp(siz) R M Lvl/name                 OctLoc.c.b A Datatyp(siz) R M Lvl/name

     3-0-0/c STRC(90)    r     1 CONFIG_TEXT                0-0-0/c STRC(108)   r     1 PROD_TEXT

  ****  Auto variables  ****

  ****  Scalars and arrays  ****
OctLoc.c.b A Datatyp(siz) R M Lvl/name                 OctLoc.c.b A Datatyp(siz) R M Lvl/name

     3-0-0/w PTR         r     1 @C                         4-0-0/w PTR         r     1 @E
     5-0-0/w PTR         r     1 @KEY_POS                  *0-0-0/w SBIN        r     1 C
     7-0-0/w SBIN        r     1 DP                        *0-0-0/w SBIN        r     1 E
    10-0-0/w PTR         r     1 KEY$                      *0-0-0/w SBIN        r     1 KEY_POS
     6-0-0/w SBIN        r     1 P

  ****  BASED and DCB variables  ****

  ****  Scalars and arrays  ****
OctLoc.c.b A Datatyp(siz) R M Lvl/name                 OctLoc.c.b A Datatyp(siz) R M Lvl/name

     0-0-0/w STRC(57888) r     1 C_SET_B                    0-0-0/w STRC(72)          1 INCLUDES_B
     0-0-0/w STRC(144)         1 INCL_B                     0-0-0/w STRC(5436)  r     1 ITEM_B
     0-0-0/w STRC(5652)  r     1 KEY_B                      0-0-0N  NULL        r     1 M$LO
     0-0-0N  NULL        r     1 M$OU                       0-0-0N  NULL        r     1 M$SI
     0-0-0N  NULL        r     1 M$SO                       0-0-0N  NULL        r     1 M$UI
PL6.E3A0      #003=PRINT_ITEM File=LR_CPRNT.:Z8A6TSI                             SAT 08/09/97 09:28 Page:76
     0-0-0/w STRC(351)         1 SYMBOL


   Procedure PRINT_ITEM requires 109 words for executable code.
   Procedure PRINT_ITEM requires 14 words of local(AUTO) storage.

    No errors detected in file LR_CPRNT.:Z8A6TSI    .
