VERSION A06

PL6.E3A0      #001=FINDLCPATHS File=LR_ERRPTH.:Z8A6TSI                           SAT 08/09/97 09:27 Page:1
        1        1        /*M* ERRPATHS => ERROR CORRECTION LOGIC FOR CLOSURE GRAPH PATHS */
        2        2        /*T***********************************************************/
        3        3        /*T*                                                         */
        4        4        /*T* Copyright (c) Bull HN Information Systems Inc., 1997    */
        5        5        /*T*                                                         */
        6        6        /*T***********************************************************/
        7        7
        8        8
        9        9
       10       10
       11       11        FINDLCPATHS : PROC;
       12       12
       13       13
       14       14        /*D*
       15       15               NAME: FINDLCPATHS
       16       16           PURPOSE: MAIN ROUTINE FOR FINDING THE LOCAL CONTEXT OF
       17       17                     EACH STATE.
       18       18        */
       19       19
       20       20
       21       21    1   DCL OUTPUT_BASIS        ENTRY(1);
       22       22    1   DCL FINDEDGECOSTS       ENTRY(1);
       23       23    1   DCL FINDLOCALCONTEXT    ENTRY(1);
       24       24    1   DCL ORDER_ITEMS         ENTRY(1);
       25       25    1   DCL OUTPUT_PATHS        ENTRY;
       26       26    1   DCL OUTPUT_PATH_STRINGS ENTRY;
       27       27    1   DCL OUTPUT_PATH_SYMREFS ENTRY;
       28       28    1   DCL OUTPUT_STATE_ITEMS  ENTRY;
       29       29
       30       30        %INCLUDE LR_GRAM_EXT;
       31      569        %INCLUDE LR_CNFG_EXT;
       32      722
       33      723    1   DCL STATE SBIN WORD;
       34      724
       35      725
       36      726
       37      727    2   DO STATE = 0 TO NR_CONFIG - 1;
PL6.E3A0      #001=FINDLCPATHS File=LR_ERRPTH.:Z8A6TSI                           SAT 08/09/97 09:27 Page:2
       38      728
       39      729    2     CALL ORDER_ITEMS     (STATE);
       40      730    2     CALL OUTPUT_BASIS    (STATE);
       41      731    2     CALL FINDEDGECOSTS   (STATE);
       42      732    2     CALL FINDLOCALCONTEXT(STATE);
       43      733
       44      734    2   END;
       45      735
       46      736    1   CALL OUTPUT_STATE_ITEMS;
       47      737    1   CALL OUTPUT_PATHS;
       48      738    1   CALL OUTPUT_PATH_STRINGS;
       49      739    1   CALL OUTPUT_PATH_SYMREFS;
       50      740
       51      741    1   END FINDLCPATHS;
       52      742        %EOD;

PL6.E3A0      #001=FINDLCPATHS File=LR_ERRPTH.:Z8A6TSI                           SAT 08/09/97 09:27 Page:3
--  Include file information  --

   LR_CNFG_EXT.:Z8A6TOU  cannot be made into a system file and is referenced.
   LR_IO_EXT.:Z8A6TOU  cannot be made into a system file and is referenced.
   LR_GRAM_EXT.:Z8A6TOU  cannot be made into a system file and is referenced.
      No diagnostics issued in procedure FINDLCPATHS.

   Procedure FINDLCPATHS requires 45 words for executable code.
   Procedure FINDLCPATHS requires 6 words of local(AUTO) storage.

PL6.E3A0      #001=FINDLCPATHS File=LR_ERRPTH.:Z8A6TSI                           SAT 08/09/97 09:27 Page:4

 Object Unit name= FINDLCPATHS                                File name= LR_ERRPTH.:Z8A6TOU
 UTS= AUG 09 '97 09:27:44.68 SAT                              Compiler= PL-6/E31         Sev=      00
 SharedLib= :SHARED_SYSTEM                                    Alt SharedLib=


    ****  Control sections  ****

 Sect   Type Bound  Init  Size OctSiz  Section name(segment info)
    0  LblCom even  none     1      1  OUT_DCBN
    1   DCB   even  none     0      0  M$OU
    2   DCB   even  none     0      0  M$SO
    3   DCB   even  none     0      0  M$LO
    4   DCB   even  none     0      0  M$SI
    5   DCB   even  none     0      0  M$UI
    6  LblCom even  none  1401   2571  SYM_PTRS
    7  LblCom even  none  4001   7641  RIGHT_PARTS
    8  LblCom even  none  3002   5672  PROD
    9  LblCom even  none     1      1  NR_PROD
   10  LblCom even  none     1      1  NR_SYMS
   11  LblCom even  none     1      1  NR_TERM
   12  LblCom even  none     1      1  LAST_ACT
   13  LblCom even  none     1      1  LAST_NULL
   14  LblCom even  none     1      1  NR_ONRIGHT
   15  LblCom even  none     1      1  NR_NT
   16  LblCom even  none     1      1  PROD_LEN_MAX_EVER
   17  LblCom even  none     1      1  LAST_ORDER_SPECIFIED
   18  LblCom even  none     1      1  SEMANTIC_ORDERING
   19  LblCom even  none     1      1  ERR_SEV
   20  LblCom even  none     1      1  SET_LENGTHB
   21  LblCom even  none     1      1  SET_LENGTHW
   22  LblCom even  none     1      1  EOF_SYMBOL_PTR
   23  LblCom even  none     1      1  ERROR_SYMBOL_PTR
   24  LblCom even  none     1      1  BOF_SYMBOL_PTR
   25  LblCom even  none     1      1  OPTIONS
   26  LblCom even  none    26     32  OPTIONS_TEXT
   27  LblCom even  none   128    200  INSTR
   28  LblCom even  none     1      1  INSTR_LISTED
PL6.E3A0      #001=FINDLCPATHS File=LR_ERRPTH.:Z8A6TSI                           SAT 08/09/97 09:27 Page:5
   29  LblCom even  none     1      1  INSTR_LEN
   30  LblCom even  none     1      1  INSTR_INDX
   31  LblCom even  none     1      1  EOF_FLAG
   32  LblCom even  none     3      3  KEY_REC
   33  LblCom even  none    28     34  LINE
   34  LblCom even  none     1      1  LINELEN
   35  LblCom even  none   205    315  TSTATS
   36  LblCom even  none  2201   4231  C#_TO_$
   37  LblCom even  none     1      1  NR_CONFIG
   38  LblCom even  none     1      1  INIT_CONFIG
   39  LblCom even  none     1      1  MAX_BASIS_ITEMS
   40  LblCom even  none     1      1  MAX_TOTAL_ITEMS
   41  LblCom even  none     1      1  LAST_BINSRCH_ONLY
   42  LblCom even  none     1      1  LAST_BOTH_BITBIN
   43   Proc  even  none    45     55  FINDLCPATHS
   44  RoData even  none     2      2  FINDLCPATHS

    ****  Entry defs  ****

                              Check   Calling
                             calling  sequence
  Sect OctLoc Primary Altret sequence   type   Parms  Name
    43      0   yes            yes      Std        0  FINDLCPATHS
PL6.E3A0      #001=FINDLCPATHS File=LR_ERRPTH.:Z8A6TSI                           SAT 08/09/97 09:27 Page:6

  ****  Entry refs  ****

         Check        Calling
        calling       sequence
Altret sequence SRef   type   Args  Name
         yes           Std       1 ORDER_ITEMS
         yes           Std       1 OUTPUT_BASIS
         yes           Std       1 FINDEDGECOSTS
         yes           Std       1 FINDLOCALCONTEXT
         yes           Std       0 OUTPUT_STATE_ITEMS
         yes           Std       0 OUTPUT_PATHS
         yes           Std       0 OUTPUT_PATH_STRINGS
         yes           Std       0 OUTPUT_PATH_SYMREFS
                       nStd      0 X66_AUTO_0
                       nStd      0 X66_ARET

  ****  Data refs  ****

  Flags:  r = read only, s = secondary
Flgs Name                             Flgs Name                             Flgs Name
     M$OU                                  M$SO                                  M$LO
     M$SI                                  M$UI

  ****  Segment refs  ****

  Flags:  r = read only, s = secondary
Flgs Name                             Flgs Name                             Flgs Name
     NULLSID
PL6.E3A0      #001=FINDLCPATHS File=LR_ERRPTH.:Z8A6TSI                           SAT 08/09/97 09:27 Page:7


        1        1        /*M* ERRPATHS => ERROR CORRECTION LOGIC FOR CLOSURE GRAPH PATHS */
        2        2        /*T***********************************************************/
        3        3        /*T*                                                         */
        4        4        /*T* Copyright (c) Bull HN Information Systems Inc., 1997    */
        5        5        /*T*                                                         */
        6        6        /*T***********************************************************/
        7        7
        8        8
        9        9
       10       10
       11       11        FINDLCPATHS : PROC;

     11 43 000000   000000 700200 xent  FINDLCPATHS  TSX0  ! X66_AUTO_0
        43 000001   000006 000000                    ZERO    6,0

       12       12
       13       13
       14       14        /*D*
       15       15               NAME: FINDLCPATHS
       16       16           PURPOSE: MAIN ROUTINE FOR FINDING THE LOCAL CONTEXT OF
       17       17                     EACH STATE.
       18       18        */
       19       19
       20       20
       21       21    1   DCL OUTPUT_BASIS        ENTRY(1);
       22       22    1   DCL FINDEDGECOSTS       ENTRY(1);
       23       23    1   DCL FINDLOCALCONTEXT    ENTRY(1);
       24       24    1   DCL ORDER_ITEMS         ENTRY(1);
       25       25    1   DCL OUTPUT_PATHS        ENTRY;
       26       26    1   DCL OUTPUT_PATH_STRINGS ENTRY;
       27       27    1   DCL OUTPUT_PATH_SYMREFS ENTRY;
       28       28    1   DCL OUTPUT_STATE_ITEMS  ENTRY;
       29       29
       30       30        %INCLUDE LR_GRAM_EXT;
       31      569        %INCLUDE LR_CNFG_EXT;
       32      722
PL6.E3A0      #001=FINDLCPATHS File=LR_ERRPTH.:Z8A6TSI                           SAT 08/09/97 09:27 Page:8
       33      723    1   DCL STATE SBIN WORD;
       34      724
       35      725
       36      726
       37      727    2   DO STATE = 0 TO NR_CONFIG - 1;

    727 43 000002   200003 450100                    STZ     STATE,,AUTO
        43 000003   000035 710000 43                 TRA     s:734+1

       38      728
       39      729    2     CALL ORDER_ITEMS     (STATE);

    729 43 000004   200003 630500                    EPPR0   STATE,,AUTO
        43 000005   200004 450500                    STP0    STATE+1,,AUTO
        43 000006   200004 630500                    EPPR0   STATE+1,,AUTO
        43 000007   000000 631400 44                 EPPR1   0
        43 000010   000000 701000 xent               TSX1    ORDER_ITEMS
        43 000011   000000 011000                    NOP     0

       40      730    2     CALL OUTPUT_BASIS    (STATE);

    730 43 000012   200003 630500                    EPPR0   STATE,,AUTO
        43 000013   200004 450500                    STP0    STATE+1,,AUTO
        43 000014   200004 630500                    EPPR0   STATE+1,,AUTO
        43 000015   000000 631400 44                 EPPR1   0
        43 000016   000000 701000 xent               TSX1    OUTPUT_BASIS
        43 000017   000000 011000                    NOP     0

       41      731    2     CALL FINDEDGECOSTS   (STATE);

    731 43 000020   200003 630500                    EPPR0   STATE,,AUTO
        43 000021   200004 450500                    STP0    STATE+1,,AUTO
        43 000022   200004 630500                    EPPR0   STATE+1,,AUTO
        43 000023   000000 631400 44                 EPPR1   0
        43 000024   000000 701000 xent               TSX1    FINDEDGECOSTS
        43 000025   000000 011000                    NOP     0

PL6.E3A0      #001=FINDLCPATHS File=LR_ERRPTH.:Z8A6TSI                           SAT 08/09/97 09:27 Page:9
       42      732    2     CALL FINDLOCALCONTEXT(STATE);

    732 43 000026   200003 630500                    EPPR0   STATE,,AUTO
        43 000027   200004 450500                    STP0    STATE+1,,AUTO
        43 000030   200004 630500                    EPPR0   STATE+1,,AUTO
        43 000031   000000 631400 44                 EPPR1   0
        43 000032   000000 701000 xent               TSX1    FINDLOCALCONTEXT
        43 000033   000000 011000                    NOP     0

       43      733
       44      734    2   END;

    734 43 000034   200003 054100                    AOS     STATE,,AUTO
        43 000035   200003 236100                    LDQ     STATE,,AUTO
        43 000036   000000 116000 37                 CMPQ    NR_CONFIG
        43 000037   000004 604000 43                 TMI     s:729

       45      735
       46      736    1   CALL OUTPUT_STATE_ITEMS;

    736 43 000040   000001 631400 44                 EPPR1   1
        43 000041   000000 701000 xent               TSX1    OUTPUT_STATE_ITEMS
        43 000042   000000 011000                    NOP     0

       47      737    1   CALL OUTPUT_PATHS;

    737 43 000043   000001 631400 44                 EPPR1   1
        43 000044   000000 701000 xent               TSX1    OUTPUT_PATHS
        43 000045   000000 011000                    NOP     0

       48      738    1   CALL OUTPUT_PATH_STRINGS;

    738 43 000046   000001 631400 44                 EPPR1   1
        43 000047   000000 701000 xent               TSX1    OUTPUT_PATH_STRINGS
        43 000050   000000 011000                    NOP     0

       49      739    1   CALL OUTPUT_PATH_SYMREFS;
PL6.E3A0      #001=FINDLCPATHS File=LR_ERRPTH.:Z8A6TSI                           SAT 08/09/97 09:27 Page:10

    739 43 000051   000001 631400 44                 EPPR1   1
        43 000052   000000 701000 xent               TSX1    OUTPUT_PATH_SYMREFS
        43 000053   000000 011000                    NOP     0

       50      740
       51      741    1   END FINDLCPATHS;

    741 43 000054   000000 702200 xent               TSX2  ! X66_ARET
       52      742        %EOD;

PL6.E3A0      #001=FINDLCPATHS File=LR_ERRPTH.:Z8A6TSI                           SAT 08/09/97 09:27 Page:11
--  Include file information  --

   LR_CNFG_EXT.:Z8A6TOU  cannot be made into a system file and is referenced.
   LR_IO_EXT.:Z8A6TOU  cannot be made into a system file and is referenced.
   LR_GRAM_EXT.:Z8A6TOU  cannot be made into a system file and is referenced.
      No diagnostics issued in procedure FINDLCPATHS.
PL6.E3A0      #001=FINDLCPATHS File=LR_ERRPTH.:Z8A6TSI                           SAT 08/09/97 09:27 Page:12

 **** Variables and constants ****

  ****  Section 000 LblCom OUT_DCBN

  ****  Scalars and arrays  ****
OctLoc.c.b A Datatyp(siz) R M Lvl/name                 OctLoc.c.b A Datatyp(siz) R M Lvl/name

     0-0-0/w SBIN              1 OUT_DCBN

  ****  Section 006 LblCom SYM_PTRS

  ****  Scalars and arrays  ****
OctLoc.c.b A Datatyp(siz) R M Lvl/name                 OctLoc.c.b A Datatyp(siz) R M Lvl/name

     0-0-0/w PTR               1 SYM_PTRS(0:1400)

  ****  Section 007 LblCom RIGHT_PARTS

  ****  Scalars and arrays  ****
OctLoc.c.b A Datatyp(siz) R M Lvl/name                 OctLoc.c.b A Datatyp(siz) R M Lvl/name

     0-0-0/h SBIN(18)          1 RIGHT_PARTS(0:8000)

  ****  Section 008 LblCom PROD

  ****  Scalars and arrays  ****
OctLoc.c.b A Datatyp(siz) R M Lvl/name                 OctLoc.c.b A Datatyp(siz) R M Lvl/name

     0-0-0/h STRC(72)          1 PROD(0:1500)

  ****  Section 009 LblCom NR_PROD

  ****  Scalars and arrays  ****
OctLoc.c.b A Datatyp(siz) R M Lvl/name                 OctLoc.c.b A Datatyp(siz) R M Lvl/name

     0-0-0/w SBIN              1 NR_PROD

PL6.E3A0      #001=FINDLCPATHS File=LR_ERRPTH.:Z8A6TSI                           SAT 08/09/97 09:27 Page:13
  ****  Section 010 LblCom NR_SYMS

  ****  Scalars and arrays  ****
OctLoc.c.b A Datatyp(siz) R M Lvl/name                 OctLoc.c.b A Datatyp(siz) R M Lvl/name

     0-0-0/w SBIN              1 NR_SYMS

  ****  Section 011 LblCom NR_TERM

  ****  Scalars and arrays  ****
OctLoc.c.b A Datatyp(siz) R M Lvl/name                 OctLoc.c.b A Datatyp(siz) R M Lvl/name

     0-0-0/w SBIN              1 NR_TERM

  ****  Section 012 LblCom LAST_ACT

  ****  Scalars and arrays  ****
OctLoc.c.b A Datatyp(siz) R M Lvl/name                 OctLoc.c.b A Datatyp(siz) R M Lvl/name

     0-0-0/w SBIN              1 LAST_ACT

  ****  Section 013 LblCom LAST_NULL

  ****  Scalars and arrays  ****
OctLoc.c.b A Datatyp(siz) R M Lvl/name                 OctLoc.c.b A Datatyp(siz) R M Lvl/name

     0-0-0/w SBIN              1 LAST_NULL

  ****  Section 014 LblCom NR_ONRIGHT

  ****  Scalars and arrays  ****
OctLoc.c.b A Datatyp(siz) R M Lvl/name                 OctLoc.c.b A Datatyp(siz) R M Lvl/name

     0-0-0/w SBIN              1 NR_ONRIGHT

  ****  Section 015 LblCom NR_NT

PL6.E3A0      #001=FINDLCPATHS File=LR_ERRPTH.:Z8A6TSI                           SAT 08/09/97 09:27 Page:14
  ****  Scalars and arrays  ****
OctLoc.c.b A Datatyp(siz) R M Lvl/name                 OctLoc.c.b A Datatyp(siz) R M Lvl/name

     0-0-0/w SBIN              1 NR_NT

  ****  Section 016 LblCom PROD_LEN_MAX_EVER

  ****  Scalars and arrays  ****
OctLoc.c.b A Datatyp(siz) R M Lvl/name                 OctLoc.c.b A Datatyp(siz) R M Lvl/name

     0-0-0/w SBIN              1 PROD_LEN_MAX_EVER

  ****  Section 017 LblCom LAST_ORDER_SPECIFIED

  ****  Scalars and arrays  ****
OctLoc.c.b A Datatyp(siz) R M Lvl/name                 OctLoc.c.b A Datatyp(siz) R M Lvl/name

     0-0-0/w SBIN              1 LAST_ORDER_SPECIFIED

  ****  Section 018 LblCom SEMANTIC_ORDERING

  ****  Scalars and arrays  ****
OctLoc.c.b A Datatyp(siz) R M Lvl/name                 OctLoc.c.b A Datatyp(siz) R M Lvl/name

     0-0-0/b BIT               1 SEMANTIC_ORDERING

  ****  Section 019 LblCom ERR_SEV

  ****  Scalars and arrays  ****
OctLoc.c.b A Datatyp(siz) R M Lvl/name                 OctLoc.c.b A Datatyp(siz) R M Lvl/name

     0-0-0/w SBIN              1 ERR_SEV

  ****  Section 020 LblCom SET_LENGTHB

  ****  Scalars and arrays  ****
OctLoc.c.b A Datatyp(siz) R M Lvl/name                 OctLoc.c.b A Datatyp(siz) R M Lvl/name
PL6.E3A0      #001=FINDLCPATHS File=LR_ERRPTH.:Z8A6TSI                           SAT 08/09/97 09:27 Page:15

     0-0-0/w SBIN              1 SET_LENGTHB

  ****  Section 021 LblCom SET_LENGTHW

  ****  Scalars and arrays  ****
OctLoc.c.b A Datatyp(siz) R M Lvl/name                 OctLoc.c.b A Datatyp(siz) R M Lvl/name

     0-0-0/w SBIN              1 SET_LENGTHW

  ****  Section 022 LblCom EOF_SYMBOL_PTR

  ****  Scalars and arrays  ****
OctLoc.c.b A Datatyp(siz) R M Lvl/name                 OctLoc.c.b A Datatyp(siz) R M Lvl/name

     0-0-0/w PTR               1 EOF_SYMBOL_PTR

  ****  Section 023 LblCom ERROR_SYMBOL_PTR

  ****  Scalars and arrays  ****
OctLoc.c.b A Datatyp(siz) R M Lvl/name                 OctLoc.c.b A Datatyp(siz) R M Lvl/name

     0-0-0/w PTR               1 ERROR_SYMBOL_PTR

  ****  Section 024 LblCom BOF_SYMBOL_PTR

  ****  Scalars and arrays  ****
OctLoc.c.b A Datatyp(siz) R M Lvl/name                 OctLoc.c.b A Datatyp(siz) R M Lvl/name

     0-0-0/w PTR               1 BOF_SYMBOL_PTR

  ****  Section 025 LblCom OPTIONS

  ****  Scalars and arrays  ****
OctLoc.c.b A Datatyp(siz) R M Lvl/name                 OctLoc.c.b A Datatyp(siz) R M Lvl/name

     0-0-0/b BIT               1 OPTIONS(0:25)
PL6.E3A0      #001=FINDLCPATHS File=LR_ERRPTH.:Z8A6TSI                           SAT 08/09/97 09:27 Page:16

  ****  Section 026 LblCom OPTIONS_TEXT

  ****  Scalars and arrays  ****
OctLoc.c.b A Datatyp(siz) R M Lvl/name                 OctLoc.c.b A Datatyp(siz) R M Lvl/name

     0-0-0/c CHAR(4)           1 OPTIONS_TEXT(0:25)

  ****  Section 027 LblCom INSTR

  ****  Scalars and arrays  ****
OctLoc.c.b A Datatyp(siz) R M Lvl/name                 OctLoc.c.b A Datatyp(siz) R M Lvl/name

     0-0-0/c CHAR              1 INSTR(0:511)               0-0-0/c CHAR(512)         1 INSTRCHR

  ****  Section 028 LblCom INSTR_LISTED

  ****  Scalars and arrays  ****
OctLoc.c.b A Datatyp(siz) R M Lvl/name                 OctLoc.c.b A Datatyp(siz) R M Lvl/name

     0-0-0/b BIT               1 INSTR_LISTED

  ****  Section 029 LblCom INSTR_LEN

  ****  Scalars and arrays  ****
OctLoc.c.b A Datatyp(siz) R M Lvl/name                 OctLoc.c.b A Datatyp(siz) R M Lvl/name

     0-0-0/w SBIN              1 INSTR_LEN

  ****  Section 030 LblCom INSTR_INDX

  ****  Scalars and arrays  ****
OctLoc.c.b A Datatyp(siz) R M Lvl/name                 OctLoc.c.b A Datatyp(siz) R M Lvl/name

     0-0-0/w SBIN              1 INSTR_INDX

  ****  Section 031 LblCom EOF_FLAG
PL6.E3A0      #001=FINDLCPATHS File=LR_ERRPTH.:Z8A6TSI                           SAT 08/09/97 09:27 Page:17

  ****  Scalars and arrays  ****
OctLoc.c.b A Datatyp(siz) R M Lvl/name                 OctLoc.c.b A Datatyp(siz) R M Lvl/name

     0-0-0/b BIT               1 EOF_FLAG

  ****  Section 032 LblCom KEY_REC

  ****  Scalars and arrays  ****
OctLoc.c.b A Datatyp(siz) R M Lvl/name                 OctLoc.c.b A Datatyp(siz) R M Lvl/name

     0-0-0/c CHAR(10)          1 KEY_REC

  ****  Section 033 LblCom LINE

  ****  Scalars and arrays  ****
OctLoc.c.b A Datatyp(siz) R M Lvl/name                 OctLoc.c.b A Datatyp(siz) R M Lvl/name

     0-0-0/c CHAR(109)         1 LINE

  ****  Section 034 LblCom LINELEN

  ****  Scalars and arrays  ****
OctLoc.c.b A Datatyp(siz) R M Lvl/name                 OctLoc.c.b A Datatyp(siz) R M Lvl/name

     0-0-0/w SBIN              1 LINELEN

  ****  Section 035 LblCom TSTATS

  ****  Scalars and arrays  ****
OctLoc.c.b A Datatyp(siz) R M Lvl/name                 OctLoc.c.b A Datatyp(siz) R M Lvl/name

     0-0-0/w STRC(7380)        1 TSTATS

  ****  Section 036 LblCom C#_TO_$

  ****  Scalars and arrays  ****
PL6.E3A0      #001=FINDLCPATHS File=LR_ERRPTH.:Z8A6TSI                           SAT 08/09/97 09:27 Page:18
OctLoc.c.b A Datatyp(siz) R M Lvl/name                 OctLoc.c.b A Datatyp(siz) R M Lvl/name

     0-0-0/w PTR               1 C#_TO_$(0:2200)

  ****  Section 037 LblCom NR_CONFIG

  ****  Scalars and arrays  ****
OctLoc.c.b A Datatyp(siz) R M Lvl/name                 OctLoc.c.b A Datatyp(siz) R M Lvl/name

     0-0-0/w SBIN        r     1 NR_CONFIG

  ****  Section 038 LblCom INIT_CONFIG

  ****  Scalars and arrays  ****
OctLoc.c.b A Datatyp(siz) R M Lvl/name                 OctLoc.c.b A Datatyp(siz) R M Lvl/name

     0-0-0/w SBIN              1 INIT_CONFIG

  ****  Section 039 LblCom MAX_BASIS_ITEMS

  ****  Scalars and arrays  ****
OctLoc.c.b A Datatyp(siz) R M Lvl/name                 OctLoc.c.b A Datatyp(siz) R M Lvl/name

     0-0-0/w SBIN              1 MAX_BASIS_ITEMS

  ****  Section 040 LblCom MAX_TOTAL_ITEMS

  ****  Scalars and arrays  ****
OctLoc.c.b A Datatyp(siz) R M Lvl/name                 OctLoc.c.b A Datatyp(siz) R M Lvl/name

     0-0-0/w SBIN              1 MAX_TOTAL_ITEMS

  ****  Section 041 LblCom LAST_BINSRCH_ONLY

  ****  Scalars and arrays  ****
OctLoc.c.b A Datatyp(siz) R M Lvl/name                 OctLoc.c.b A Datatyp(siz) R M Lvl/name

PL6.E3A0      #001=FINDLCPATHS File=LR_ERRPTH.:Z8A6TSI                           SAT 08/09/97 09:27 Page:19
     0-0-0/w SBIN              1 LAST_BINSRCH_ONLY

  ****  Section 042 LblCom LAST_BOTH_BITBIN

  ****  Scalars and arrays  ****
OctLoc.c.b A Datatyp(siz) R M Lvl/name                 OctLoc.c.b A Datatyp(siz) R M Lvl/name

     0-0-0/w SBIN              1 LAST_BOTH_BITBIN

  ****  Auto variables  ****

  ****  Scalars and arrays  ****
OctLoc.c.b A Datatyp(siz) R M Lvl/name                 OctLoc.c.b A Datatyp(siz) R M Lvl/name

     3-0-0/w SBIN        r     1 STATE

  ****  BASED and DCB variables  ****

  ****  Scalars and arrays  ****
OctLoc.c.b A Datatyp(siz) R M Lvl/name                 OctLoc.c.b A Datatyp(siz) R M Lvl/name

     0-0-0/w STRC(57888)       1 C_SET_B                    0-0-0/w STRC(72)          1 INCLUDES_B
     0-0-0/w STRC(144)         1 INCL_B                     0-0-0/w STRC(5436)        1 ITEM_B
     0-0-0/w STRC(5652)        1 KEY_B                      0-0-0N  NULL        r     1 M$LO
     0-0-0N  NULL        r     1 M$OU                       0-0-0N  NULL        r     1 M$SI
     0-0-0N  NULL        r     1 M$SO                       0-0-0N  NULL        r     1 M$UI
     0-0-0/w STRC(351)         1 SYMBOL


   Procedure FINDLCPATHS requires 45 words for executable code.
   Procedure FINDLCPATHS requires 6 words of local(AUTO) storage.

PL6.E3A0      #002=ORDER_ITEMS File=LR_ERRPTH.:Z8A6TSI                           SAT 08/09/97 09:27 Page:20
       53        1        /*T***********************************************************/
       54        2        /*T*                                                         */
       55        3        /*T* Copyright (c) Bull HN Information Systems Inc., 1997    */
       56        4        /*T*                                                         */
       57        5        /*T***********************************************************/
       58        6        ORDER_ITEMS : PROC (STATE) NOAUTO;
       59        7
       60        8        /*D*
       61        9               NAME: ORDER_ITEMS
       62       10            PURPOSE: ORDER THE ITEMS IN EACH STATE FOR EASY ACCESS
       63       11                     TO ANY SPECIFIC ITEM.
       64       12        */
       65       13
       66       14
       67       15
       68       16    1   DCL STATE SBIN WORD;
       69       17
       70       18        %INCLUDE LR_GRAM_EXT;
       71      557        %INCLUDE LR_CNFG_EXT;
       72      710        %INCLUDE LR_ERR_EXT;
       73      853
       74      854    1   DCL LIMCHK ENTRY(4);
       75      855
       76      856    1   DCL E    SBIN WORD;
       77      857    1   DCL I    SBIN WORD;
       78      858    1   DCL ITEM SBIN WORD;
       79      859
       80      860
       81      861    2   DO E = 0 TO C#_TO_$(STATE) -> C_SET_B.NR_ELEM - 1;
       82      862
       83      863    3     DO I = 0 TO C#_TO_$(STATE) -> C_SET_B.ELEM.KEY$(E) -> KEY_B.W.ELEM_COUNT - 1;
       84      864
       85      865    3       ITEM = C#_TO_$(STATE) -> C_SET_B.ELEM.ITEM$(E) -> ITEM_B.ELEM.ITEM#(I);
       86      866
       87      867    3       CALL LIMCHK (15, ITEM, %NR_ELEM_MAX,
       88      868    3         'The maximum size of a configuration set has been exceeded: %%');
       89      869
PL6.E3A0      #002=ORDER_ITEMS File=LR_ERRPTH.:Z8A6TSI                           SAT 08/09/97 09:27 Page:21
       90      870    3       ORDERED_ITEM.I(ITEM) = I;
       91      871    3       ORDERED_ITEM.E(ITEM) = E;
       92      872
       93      873    3     END;
       94      874    2   END;
       95      875
       96      876    1   END ORDER_ITEMS;
       97      877        %EOD;

PL6.E3A0      #002=ORDER_ITEMS File=LR_ERRPTH.:Z8A6TSI                           SAT 08/09/97 09:27 Page:22
--  Include file information  --

   LR_ERR_EXT.:Z8A6TOU  cannot be made into a system file and is referenced.
   LR_CNFG_EXT.:Z8A6TOU  cannot be made into a system file and is referenced.
   LR_IO_EXT.:Z8A6TOU  cannot be made into a system file and is referenced.
   LR_GRAM_EXT.:Z8A6TOU  cannot be made into a system file and is referenced.
      No diagnostics issued in procedure ORDER_ITEMS.

   Procedure ORDER_ITEMS requires 47 words for executable code.
   Procedure ORDER_ITEMS is declared NOAUTO and requires 6 words of local(STATIC) storage.

PL6.E3A0      #002=ORDER_ITEMS File=LR_ERRPTH.:Z8A6TSI                           SAT 08/09/97 09:27 Page:23

 Object Unit name= ORDER_ITEMS                                File name= LR_ERRPTH.:Z8A6TOU
 UTS= AUG 09 '97 09:27:59.28 SAT                              Compiler= PL-6/E31         Sev=      00
 SharedLib= :SHARED_SYSTEM                                    Alt SharedLib=


    ****  Control sections  ****

 Sect   Type Bound  Init  Size OctSiz  Section name(segment info)
    0   Data  even  none     6      6  ORDER_ITEMS
    1  LblCom even  none     1      1  OUT_DCBN
    2   DCB   even  none     0      0  M$OU
    3   DCB   even  none     0      0  M$SO
    4   DCB   even  none     0      0  M$LO
    5   DCB   even  none     0      0  M$SI
    6   DCB   even  none     0      0  M$UI
    7  LblCom even  none  1401   2571  SYM_PTRS
    8  LblCom even  none  4001   7641  RIGHT_PARTS
    9  LblCom even  none  3002   5672  PROD
   10  LblCom even  none     1      1  NR_PROD
   11  LblCom even  none     1      1  NR_SYMS
   12  LblCom even  none     1      1  NR_TERM
   13  LblCom even  none     1      1  LAST_ACT
   14  LblCom even  none     1      1  LAST_NULL
   15  LblCom even  none     1      1  NR_ONRIGHT
   16  LblCom even  none     1      1  NR_NT
   17  LblCom even  none     1      1  PROD_LEN_MAX_EVER
   18  LblCom even  none     1      1  LAST_ORDER_SPECIFIED
   19  LblCom even  none     1      1  SEMANTIC_ORDERING
   20  LblCom even  none     1      1  ERR_SEV
   21  LblCom even  none     1      1  SET_LENGTHB
   22  LblCom even  none     1      1  SET_LENGTHW
   23  LblCom even  none     1      1  EOF_SYMBOL_PTR
   24  LblCom even  none     1      1  ERROR_SYMBOL_PTR
   25  LblCom even  none     1      1  BOF_SYMBOL_PTR
   26  LblCom even  none     1      1  OPTIONS
   27  LblCom even  none    26     32  OPTIONS_TEXT
   28  LblCom even  none   128    200  INSTR
PL6.E3A0      #002=ORDER_ITEMS File=LR_ERRPTH.:Z8A6TSI                           SAT 08/09/97 09:27 Page:24
   29  LblCom even  none     1      1  INSTR_LISTED
   30  LblCom even  none     1      1  INSTR_LEN
   31  LblCom even  none     1      1  INSTR_INDX
   32  LblCom even  none     1      1  EOF_FLAG
   33  LblCom even  none     3      3  KEY_REC
   34  LblCom even  none    28     34  LINE
   35  LblCom even  none     1      1  LINELEN
   36  LblCom even  none   205    315  TSTATS
   37  LblCom even  none  2201   4231  C#_TO_$
   38  LblCom even  none     1      1  NR_CONFIG
   39  LblCom even  none     1      1  INIT_CONFIG
   40  LblCom even  none     1      1  MAX_BASIS_ITEMS
   41  LblCom even  none     1      1  MAX_TOTAL_ITEMS
   42  LblCom even  none     1      1  LAST_BINSRCH_ONLY
   43  LblCom even  none     1      1  LAST_BOTH_BITBIN
   44  LblCom even  none   101    145  GARBAGE
   45  LblCom even  none     1      1  AMT_GARBAGE
   46  LblCom even  none  1401   2571  LEAST_COST_STRING
   47  LblCom even  none  1401   2571  LEAST_COST_PREFIX
   48  LblCom even  none  5604  12744  CURRE
   49  LblCom even  none   701   1275  LCP_INDX
   50  LblCom even  none     1      1  COM_STRSP_LEN
   51  LblCom even  none     1      1  COM_SEARCH_STRING
   52  LblCom even  none     1      1  COM_SEARCH_STRING_LEN
   53  LblCom even  none     1      1  COM_STRING_SPACE_LEN
   54  LblCom even  none 12500  30324  COM_STRING_SPACE_H
   55  LblCom even  none     1      1  COM_STRING_SPACE$
   56  LblCom even  none     1      1  COM_STRING_PTR
   57  LblCom even  none     1      1  COM_STRING_INDX
   58  LblCom even  none     1      1  LCP_TABLE_LEN
   59  LblCom even  none  2201   4231  STATE_ITEM_INDEX
   60  LblCom even  none 17601  42301  PATH
   61  LblCom even  none     1      1  PATH_STRINGS_LEN
   62  LblCom even  none     1      1  PATH_ADDR$
   63  LblCom even  none     1      1  PATH_TABLE_LEN
   64  LblCom even  none   401    621  EDGECOST
   65  LblCom even  none     1      1  ITEM_TABLE_LEN
PL6.E3A0      #002=ORDER_ITEMS File=LR_ERRPTH.:Z8A6TSI                           SAT 08/09/97 09:27 Page:25
   66  LblCom even  none   401    621  ORDERED_ITEM
   67  LblCom even  none   401    621  NEIGHBOR
   68  LblCom even  none   802   1442  PATH_INFO
   69  LblCom even  none   401    621  CHOSEN
   70  LblCom even  none    12     14  REACHED
   71  LblCom even  none     1      1  EXP_PATH_INDX
   72  RoData even  UTS     16     20  ORDER_ITEMS
   73   Proc  even  none    47     57  ORDER_ITEMS
   74  RoData even  none     7      7  ORDER_ITEMS

    ****  Entry defs  ****

                              Check   Calling
                             calling  sequence
  Sect OctLoc Primary Altret sequence   type   Parms  Name
    73      0   yes            yes      Std        1  ORDER_ITEMS

  ****  Entry refs  ****

         Check        Calling
        calling       sequence
Altret sequence SRef   type   Args  Name
         yes           Std       4 LIMCHK
                       nStd      0 X66_STATIC_1

  ****  Data refs  ****

  Flags:  r = read only, s = secondary
Flgs Name                             Flgs Name                             Flgs Name
     M$OU                                  M$SO                                  M$LO
     M$SI                                  M$UI
PL6.E3A0      #002=ORDER_ITEMS File=LR_ERRPTH.:Z8A6TSI                           SAT 08/09/97 09:27 Page:26

  ****  Segment refs  ****

  Flags:  r = read only, s = secondary
Flgs Name                             Flgs Name                             Flgs Name
     NULLSID                               ISSID
PL6.E3A0      #002=ORDER_ITEMS File=LR_ERRPTH.:Z8A6TSI                           SAT 08/09/97 09:27 Page:27


       53        1        /*T***********************************************************/
       54        2        /*T*                                                         */
       55        3        /*T* Copyright (c) Bull HN Information Systems Inc., 1997    */
       56        4        /*T*                                                         */
       57        5        /*T***********************************************************/
       58        6        ORDER_ITEMS : PROC (STATE) NOAUTO;

      6 73 000000   000000 700200 xent  ORDER_ITEMS  TSX0  ! X66_STATIC_1
        73 000001   000000 000001 0                  ZERO    0,1

       59        7
       60        8        /*D*
       61        9               NAME: ORDER_ITEMS
       62       10            PURPOSE: ORDER THE ITEMS IN EACH STATE FOR EASY ACCESS
       63       11                     TO ANY SPECIFIC ITEM.
       64       12        */
       65       13
       66       14
       67       15
       68       16    1   DCL STATE SBIN WORD;
       69       17
       70       18        %INCLUDE LR_GRAM_EXT;
       71      557        %INCLUDE LR_CNFG_EXT;
       72      710        %INCLUDE LR_ERR_EXT;
       73      853
       74      854    1   DCL LIMCHK ENTRY(4);
       75      855
       76      856    1   DCL E    SBIN WORD;
       77      857    1   DCL I    SBIN WORD;
       78      858    1   DCL ITEM SBIN WORD;
       79      859
       80      860
       81      861    2   DO E = 0 TO C#_TO_$(STATE) -> C_SET_B.NR_ELEM - 1;

    861 73 000002   000002 450000 0                  STZ     E
        73 000003   000046 710000 73                 TRA     s:874+1
PL6.E3A0      #002=ORDER_ITEMS File=LR_ERRPTH.:Z8A6TSI                           SAT 08/09/97 09:27 Page:28

       82      862
       83      863    3     DO I = 0 TO C#_TO_$(STATE) -> C_SET_B.ELEM.KEY$(E) -> KEY_B.W.ELEM_COUNT - 1;

    863 73 000004   000003 450000 0                  STZ     I
        73 000005   000032 710000 73                 TRA     s:873+1

       84      864
       85      865    3       ITEM = C#_TO_$(STATE) -> C_SET_B.ELEM.ITEM$(E) -> ITEM_B.ELEM.ITEM#(I);

    865 73 000006   000001 470400 0                  LDP0    @STATE
        73 000007   000000 720100                    LXL0    0,,PR0
        73 000010   000000 471410 37                 LDP1    C#_TO_$,X0
        73 000011   000002 235000 0                  LDA     E
        73 000012   000002 735000                    ALS     2
        73 000013   100006 473505                    LDP3    6,AL,PR1
        73 000014   000003 720000 0                  LXL0    I
        73 000015   300000 236110                    LDQ     0,X0,PR3
        73 000016   000022 732000                    QRS     18
        73 000017   000004 756000 0                  STQ     ITEM

       86      866
       87      867    3       CALL LIMCHK (15, ITEM, %NR_ELEM_MAX,

    867 73 000020   000003 630400 74                 EPPR0   3
        73 000021   000000 631400 74                 EPPR1   0
        73 000022   000000 701000 xent               TSX1    LIMCHK
        73 000023   000000 011000                    NOP     0

       88      868    3         'The maximum size of a configuration set has been exceeded: %%');
       89      869
       90      870    3       ORDERED_ITEM.I(ITEM) = I;

    870 73 000024   000003 720000 0                  LXL0    I
        73 000025   000004 721000 0                  LXL1    ITEM
        73 000026   000000 440011 66                 SXL0    ORDERED_ITEM,X1

PL6.E3A0      #002=ORDER_ITEMS File=LR_ERRPTH.:Z8A6TSI                           SAT 08/09/97 09:27 Page:29
       91      871    3       ORDERED_ITEM.E(ITEM) = E;

    871 73 000027   000002 722000 0                  LXL2    E
        73 000030   000000 742011 66                 STX2    ORDERED_ITEM,X1

       92      872
       93      873    3     END;

    873 73 000031   000003 054000 0                  AOS     I
        73 000032   000001 470400 0                  LDP0    @STATE
        73 000033   000000 720100                    LXL0    0,,PR0
        73 000034   000000 471410 37                 LDP1    C#_TO_$,X0
        73 000035   000002 235000 0                  LDA     E
        73 000036   000002 735000                    ALS     2
        73 000037   100004 473505                    LDP3    4,AL,PR1
        73 000040   300005 236100                    LDQ     5,,PR3
        73 000041   000022 736000                    QLS     18
        73 000042   000022 732000                    QRS     18
        73 000043   000003 116000 0                  CMPQ    I
        73 000044   000006 605400 73                 TPNZ    s:865

       94      874    2   END;

    874 73 000045   000002 054000 0                  AOS     E
        73 000046   000001 470400 0                  LDP0    @STATE
        73 000047   000000 720100                    LXL0    0,,PR0
        73 000050   000000 471410 37                 LDP1    C#_TO_$,X0
        73 000051   100001 236100                    LDQ     1,,PR1
        73 000052   777777 376007                    ANQ     -1,DL
        73 000053   000002 116000 0                  CMPQ    E
        73 000054   000004 605400 73                 TPNZ    s:863

       95      875
       96      876    1   END ORDER_ITEMS;

    876 73 000055   000000 221200 0                  LDX1  ! 0
        73 000056   000001 702211                    TSX2  ! 1,X1
PL6.E3A0      #002=ORDER_ITEMS File=LR_ERRPTH.:Z8A6TSI                           SAT 08/09/97 09:27 Page:30
       97      877        %EOD;

PL6.E3A0      #002=ORDER_ITEMS File=LR_ERRPTH.:Z8A6TSI                           SAT 08/09/97 09:27 Page:31
--  Include file information  --

   LR_ERR_EXT.:Z8A6TOU  cannot be made into a system file and is referenced.
   LR_CNFG_EXT.:Z8A6TOU  cannot be made into a system file and is referenced.
   LR_IO_EXT.:Z8A6TOU  cannot be made into a system file and is referenced.
   LR_GRAM_EXT.:Z8A6TOU  cannot be made into a system file and is referenced.
      No diagnostics issued in procedure ORDER_ITEMS.
PL6.E3A0      #002=ORDER_ITEMS File=LR_ERRPTH.:Z8A6TSI                           SAT 08/09/97 09:27 Page:32

 **** Variables and constants ****

  ****  Section 000  Data  ORDER_ITEMS

  ****  Scalars and arrays  ****
OctLoc.c.b A Datatyp(siz) R M Lvl/name                 OctLoc.c.b A Datatyp(siz) R M Lvl/name

     1-0-0/w PTR         r     1 @STATE                     2-0-0/w SBIN        r     1 E
     3-0-0/w SBIN        r     1 I                          4-0-0/w SBIN        r     1 ITEM
    *0-0-0/w SBIN        r     1 STATE

  ****  Section 001 LblCom OUT_DCBN

  ****  Scalars and arrays  ****
OctLoc.c.b A Datatyp(siz) R M Lvl/name                 OctLoc.c.b A Datatyp(siz) R M Lvl/name

     0-0-0/w SBIN              1 OUT_DCBN

  ****  Section 007 LblCom SYM_PTRS

  ****  Scalars and arrays  ****
OctLoc.c.b A Datatyp(siz) R M Lvl/name                 OctLoc.c.b A Datatyp(siz) R M Lvl/name

     0-0-0/w PTR               1 SYM_PTRS(0:1400)

  ****  Section 008 LblCom RIGHT_PARTS

  ****  Scalars and arrays  ****
OctLoc.c.b A Datatyp(siz) R M Lvl/name                 OctLoc.c.b A Datatyp(siz) R M Lvl/name

     0-0-0/h SBIN(18)          1 RIGHT_PARTS(0:8000)

  ****  Section 009 LblCom PROD

  ****  Scalars and arrays  ****
OctLoc.c.b A Datatyp(siz) R M Lvl/name                 OctLoc.c.b A Datatyp(siz) R M Lvl/name

PL6.E3A0      #002=ORDER_ITEMS File=LR_ERRPTH.:Z8A6TSI                           SAT 08/09/97 09:27 Page:33
     0-0-0/h STRC(72)          1 PROD(0:1500)

  ****  Section 010 LblCom NR_PROD

  ****  Scalars and arrays  ****
OctLoc.c.b A Datatyp(siz) R M Lvl/name                 OctLoc.c.b A Datatyp(siz) R M Lvl/name

     0-0-0/w SBIN              1 NR_PROD

  ****  Section 011 LblCom NR_SYMS

  ****  Scalars and arrays  ****
OctLoc.c.b A Datatyp(siz) R M Lvl/name                 OctLoc.c.b A Datatyp(siz) R M Lvl/name

     0-0-0/w SBIN              1 NR_SYMS

  ****  Section 012 LblCom NR_TERM

  ****  Scalars and arrays  ****
OctLoc.c.b A Datatyp(siz) R M Lvl/name                 OctLoc.c.b A Datatyp(siz) R M Lvl/name

     0-0-0/w SBIN              1 NR_TERM

  ****  Section 013 LblCom LAST_ACT

  ****  Scalars and arrays  ****
OctLoc.c.b A Datatyp(siz) R M Lvl/name                 OctLoc.c.b A Datatyp(siz) R M Lvl/name

     0-0-0/w SBIN              1 LAST_ACT

  ****  Section 014 LblCom LAST_NULL

  ****  Scalars and arrays  ****
OctLoc.c.b A Datatyp(siz) R M Lvl/name                 OctLoc.c.b A Datatyp(siz) R M Lvl/name

     0-0-0/w SBIN              1 LAST_NULL

PL6.E3A0      #002=ORDER_ITEMS File=LR_ERRPTH.:Z8A6TSI                           SAT 08/09/97 09:27 Page:34
  ****  Section 015 LblCom NR_ONRIGHT

  ****  Scalars and arrays  ****
OctLoc.c.b A Datatyp(siz) R M Lvl/name                 OctLoc.c.b A Datatyp(siz) R M Lvl/name

     0-0-0/w SBIN              1 NR_ONRIGHT

  ****  Section 016 LblCom NR_NT

  ****  Scalars and arrays  ****
OctLoc.c.b A Datatyp(siz) R M Lvl/name                 OctLoc.c.b A Datatyp(siz) R M Lvl/name

     0-0-0/w SBIN              1 NR_NT

  ****  Section 017 LblCom PROD_LEN_MAX_EVER

  ****  Scalars and arrays  ****
OctLoc.c.b A Datatyp(siz) R M Lvl/name                 OctLoc.c.b A Datatyp(siz) R M Lvl/name

     0-0-0/w SBIN              1 PROD_LEN_MAX_EVER

  ****  Section 018 LblCom LAST_ORDER_SPECIFIED

  ****  Scalars and arrays  ****
OctLoc.c.b A Datatyp(siz) R M Lvl/name                 OctLoc.c.b A Datatyp(siz) R M Lvl/name

     0-0-0/w SBIN              1 LAST_ORDER_SPECIFIED

  ****  Section 019 LblCom SEMANTIC_ORDERING

  ****  Scalars and arrays  ****
OctLoc.c.b A Datatyp(siz) R M Lvl/name                 OctLoc.c.b A Datatyp(siz) R M Lvl/name

     0-0-0/b BIT               1 SEMANTIC_ORDERING

  ****  Section 020 LblCom ERR_SEV

PL6.E3A0      #002=ORDER_ITEMS File=LR_ERRPTH.:Z8A6TSI                           SAT 08/09/97 09:27 Page:35
  ****  Scalars and arrays  ****
OctLoc.c.b A Datatyp(siz) R M Lvl/name                 OctLoc.c.b A Datatyp(siz) R M Lvl/name

     0-0-0/w SBIN              1 ERR_SEV

  ****  Section 021 LblCom SET_LENGTHB

  ****  Scalars and arrays  ****
OctLoc.c.b A Datatyp(siz) R M Lvl/name                 OctLoc.c.b A Datatyp(siz) R M Lvl/name

     0-0-0/w SBIN              1 SET_LENGTHB

  ****  Section 022 LblCom SET_LENGTHW

  ****  Scalars and arrays  ****
OctLoc.c.b A Datatyp(siz) R M Lvl/name                 OctLoc.c.b A Datatyp(siz) R M Lvl/name

     0-0-0/w SBIN              1 SET_LENGTHW

  ****  Section 023 LblCom EOF_SYMBOL_PTR

  ****  Scalars and arrays  ****
OctLoc.c.b A Datatyp(siz) R M Lvl/name                 OctLoc.c.b A Datatyp(siz) R M Lvl/name

     0-0-0/w PTR               1 EOF_SYMBOL_PTR

  ****  Section 024 LblCom ERROR_SYMBOL_PTR

  ****  Scalars and arrays  ****
OctLoc.c.b A Datatyp(siz) R M Lvl/name                 OctLoc.c.b A Datatyp(siz) R M Lvl/name

     0-0-0/w PTR               1 ERROR_SYMBOL_PTR

  ****  Section 025 LblCom BOF_SYMBOL_PTR

  ****  Scalars and arrays  ****
OctLoc.c.b A Datatyp(siz) R M Lvl/name                 OctLoc.c.b A Datatyp(siz) R M Lvl/name
PL6.E3A0      #002=ORDER_ITEMS File=LR_ERRPTH.:Z8A6TSI                           SAT 08/09/97 09:27 Page:36

     0-0-0/w PTR               1 BOF_SYMBOL_PTR

  ****  Section 026 LblCom OPTIONS

  ****  Scalars and arrays  ****
OctLoc.c.b A Datatyp(siz) R M Lvl/name                 OctLoc.c.b A Datatyp(siz) R M Lvl/name

     0-0-0/b BIT               1 OPTIONS(0:25)

  ****  Section 027 LblCom OPTIONS_TEXT

  ****  Scalars and arrays  ****
OctLoc.c.b A Datatyp(siz) R M Lvl/name                 OctLoc.c.b A Datatyp(siz) R M Lvl/name

     0-0-0/c CHAR(4)           1 OPTIONS_TEXT(0:25)

  ****  Section 028 LblCom INSTR

  ****  Scalars and arrays  ****
OctLoc.c.b A Datatyp(siz) R M Lvl/name                 OctLoc.c.b A Datatyp(siz) R M Lvl/name

     0-0-0/c CHAR              1 INSTR(0:511)               0-0-0/c CHAR(512)         1 INSTRCHR

  ****  Section 029 LblCom INSTR_LISTED

  ****  Scalars and arrays  ****
OctLoc.c.b A Datatyp(siz) R M Lvl/name                 OctLoc.c.b A Datatyp(siz) R M Lvl/name

     0-0-0/b BIT               1 INSTR_LISTED

  ****  Section 030 LblCom INSTR_LEN

  ****  Scalars and arrays  ****
OctLoc.c.b A Datatyp(siz) R M Lvl/name                 OctLoc.c.b A Datatyp(siz) R M Lvl/name

     0-0-0/w SBIN              1 INSTR_LEN
PL6.E3A0      #002=ORDER_ITEMS File=LR_ERRPTH.:Z8A6TSI                           SAT 08/09/97 09:27 Page:37

  ****  Section 031 LblCom INSTR_INDX

  ****  Scalars and arrays  ****
OctLoc.c.b A Datatyp(siz) R M Lvl/name                 OctLoc.c.b A Datatyp(siz) R M Lvl/name

     0-0-0/w SBIN              1 INSTR_INDX

  ****  Section 032 LblCom EOF_FLAG

  ****  Scalars and arrays  ****
OctLoc.c.b A Datatyp(siz) R M Lvl/name                 OctLoc.c.b A Datatyp(siz) R M Lvl/name

     0-0-0/b BIT               1 EOF_FLAG

  ****  Section 033 LblCom KEY_REC

  ****  Scalars and arrays  ****
OctLoc.c.b A Datatyp(siz) R M Lvl/name                 OctLoc.c.b A Datatyp(siz) R M Lvl/name

     0-0-0/c CHAR(10)          1 KEY_REC

  ****  Section 034 LblCom LINE

  ****  Scalars and arrays  ****
OctLoc.c.b A Datatyp(siz) R M Lvl/name                 OctLoc.c.b A Datatyp(siz) R M Lvl/name

     0-0-0/c CHAR(109)         1 LINE

  ****  Section 035 LblCom LINELEN

  ****  Scalars and arrays  ****
OctLoc.c.b A Datatyp(siz) R M Lvl/name                 OctLoc.c.b A Datatyp(siz) R M Lvl/name

     0-0-0/w SBIN              1 LINELEN

  ****  Section 036 LblCom TSTATS
PL6.E3A0      #002=ORDER_ITEMS File=LR_ERRPTH.:Z8A6TSI                           SAT 08/09/97 09:27 Page:38

  ****  Scalars and arrays  ****
OctLoc.c.b A Datatyp(siz) R M Lvl/name                 OctLoc.c.b A Datatyp(siz) R M Lvl/name

     0-0-0/w STRC(7380)        1 TSTATS

  ****  Section 037 LblCom C#_TO_$

  ****  Scalars and arrays  ****
OctLoc.c.b A Datatyp(siz) R M Lvl/name                 OctLoc.c.b A Datatyp(siz) R M Lvl/name

     0-0-0/w PTR         r     1 C#_TO_$(0:2200)

  ****  Section 038 LblCom NR_CONFIG

  ****  Scalars and arrays  ****
OctLoc.c.b A Datatyp(siz) R M Lvl/name                 OctLoc.c.b A Datatyp(siz) R M Lvl/name

     0-0-0/w SBIN              1 NR_CONFIG

  ****  Section 039 LblCom INIT_CONFIG

  ****  Scalars and arrays  ****
OctLoc.c.b A Datatyp(siz) R M Lvl/name                 OctLoc.c.b A Datatyp(siz) R M Lvl/name

     0-0-0/w SBIN              1 INIT_CONFIG

  ****  Section 040 LblCom MAX_BASIS_ITEMS

  ****  Scalars and arrays  ****
OctLoc.c.b A Datatyp(siz) R M Lvl/name                 OctLoc.c.b A Datatyp(siz) R M Lvl/name

     0-0-0/w SBIN              1 MAX_BASIS_ITEMS

  ****  Section 041 LblCom MAX_TOTAL_ITEMS

  ****  Scalars and arrays  ****
PL6.E3A0      #002=ORDER_ITEMS File=LR_ERRPTH.:Z8A6TSI                           SAT 08/09/97 09:27 Page:39
OctLoc.c.b A Datatyp(siz) R M Lvl/name                 OctLoc.c.b A Datatyp(siz) R M Lvl/name

     0-0-0/w SBIN              1 MAX_TOTAL_ITEMS

  ****  Section 042 LblCom LAST_BINSRCH_ONLY

  ****  Scalars and arrays  ****
OctLoc.c.b A Datatyp(siz) R M Lvl/name                 OctLoc.c.b A Datatyp(siz) R M Lvl/name

     0-0-0/w SBIN              1 LAST_BINSRCH_ONLY

  ****  Section 043 LblCom LAST_BOTH_BITBIN

  ****  Scalars and arrays  ****
OctLoc.c.b A Datatyp(siz) R M Lvl/name                 OctLoc.c.b A Datatyp(siz) R M Lvl/name

     0-0-0/w SBIN              1 LAST_BOTH_BITBIN

  ****  Section 044 LblCom GARBAGE

  ****  Scalars and arrays  ****
OctLoc.c.b A Datatyp(siz) R M Lvl/name                 OctLoc.c.b A Datatyp(siz) R M Lvl/name

     0-0-0/w PTR               1 GARBAGE(0:100)

  ****  Section 045 LblCom AMT_GARBAGE

  ****  Scalars and arrays  ****
OctLoc.c.b A Datatyp(siz) R M Lvl/name                 OctLoc.c.b A Datatyp(siz) R M Lvl/name

     0-0-0/w SBIN              1 AMT_GARBAGE

  ****  Section 046 LblCom LEAST_COST_STRING

  ****  Scalars and arrays  ****
OctLoc.c.b A Datatyp(siz) R M Lvl/name                 OctLoc.c.b A Datatyp(siz) R M Lvl/name

PL6.E3A0      #002=ORDER_ITEMS File=LR_ERRPTH.:Z8A6TSI                           SAT 08/09/97 09:27 Page:40
     0-0-0/w PTR               1 LEAST_COST_STRING(0:1400)

  ****  Section 047 LblCom LEAST_COST_PREFIX

  ****  Scalars and arrays  ****
OctLoc.c.b A Datatyp(siz) R M Lvl/name                 OctLoc.c.b A Datatyp(siz) R M Lvl/name

     0-0-0/w PTR               1 LEAST_COST_PREFIX(0:1400)

  ****  Section 048 LblCom CURRE

  ****  Scalars and arrays  ****
OctLoc.c.b A Datatyp(siz) R M Lvl/name                 OctLoc.c.b A Datatyp(siz) R M Lvl/name

     0-0-0/d STRC(126)         1 CURRE(0:1400)

  ****  Section 049 LblCom LCP_INDX

  ****  Scalars and arrays  ****
OctLoc.c.b A Datatyp(siz) R M Lvl/name                 OctLoc.c.b A Datatyp(siz) R M Lvl/name

     0-0-0/h SBIN(18)          1 LCP_INDX(0:1400)

  ****  Section 050 LblCom COM_STRSP_LEN

  ****  Scalars and arrays  ****
OctLoc.c.b A Datatyp(siz) R M Lvl/name                 OctLoc.c.b A Datatyp(siz) R M Lvl/name

     0-0-0/w SBIN        r     1 COM_STRSP_LEN

  ****  Section 051 LblCom COM_SEARCH_STRING

  ****  Scalars and arrays  ****
OctLoc.c.b A Datatyp(siz) R M Lvl/name                 OctLoc.c.b A Datatyp(siz) R M Lvl/name

     0-0-0/w PTR         r     1 COM_SEARCH_STRING

PL6.E3A0      #002=ORDER_ITEMS File=LR_ERRPTH.:Z8A6TSI                           SAT 08/09/97 09:27 Page:41
  ****  Section 052 LblCom COM_SEARCH_STRING_LEN

  ****  Scalars and arrays  ****
OctLoc.c.b A Datatyp(siz) R M Lvl/name                 OctLoc.c.b A Datatyp(siz) R M Lvl/name

     0-0-0/w SBIN        r     1 COM_SEARCH_STRING_LEN

  ****  Section 053 LblCom COM_STRING_SPACE_LEN

  ****  Scalars and arrays  ****
OctLoc.c.b A Datatyp(siz) R M Lvl/name                 OctLoc.c.b A Datatyp(siz) R M Lvl/name

     0-0-0/w SBIN        r     1 COM_STRING_SPACE_LEN

  ****  Section 054 LblCom COM_STRING_SPACE_H

  ****  Scalars and arrays  ****
OctLoc.c.b A Datatyp(siz) R M Lvl/name                 OctLoc.c.b A Datatyp(siz) R M Lvl/name

     0-0-0/h SBIN(18)    r     1 COM_STRING_SPACE_H(0:24999)

  ****  Section 055 LblCom COM_STRING_SPACE$

  ****  Scalars and arrays  ****
OctLoc.c.b A Datatyp(siz) R M Lvl/name                 OctLoc.c.b A Datatyp(siz) R M Lvl/name

     0-0-0/w PTR         r     1 COM_STRING_SPACE$

  ****  Section 056 LblCom COM_STRING_PTR

  ****  Scalars and arrays  ****
OctLoc.c.b A Datatyp(siz) R M Lvl/name                 OctLoc.c.b A Datatyp(siz) R M Lvl/name

     0-0-0/w PTR         r     1 COM_STRING_PTR

  ****  Section 057 LblCom COM_STRING_INDX

PL6.E3A0      #002=ORDER_ITEMS File=LR_ERRPTH.:Z8A6TSI                           SAT 08/09/97 09:27 Page:42
  ****  Scalars and arrays  ****
OctLoc.c.b A Datatyp(siz) R M Lvl/name                 OctLoc.c.b A Datatyp(siz) R M Lvl/name

     0-0-0/w SBIN              1 COM_STRING_INDX

  ****  Section 058 LblCom LCP_TABLE_LEN

  ****  Scalars and arrays  ****
OctLoc.c.b A Datatyp(siz) R M Lvl/name                 OctLoc.c.b A Datatyp(siz) R M Lvl/name

     0-0-0/w SBIN              1 LCP_TABLE_LEN

  ****  Section 059 LblCom STATE_ITEM_INDEX

  ****  Scalars and arrays  ****
OctLoc.c.b A Datatyp(siz) R M Lvl/name                 OctLoc.c.b A Datatyp(siz) R M Lvl/name

     0-0-0/h STRC              1 STATE_ITEM_INDEX(0:2200)

  ****  Section 060 LblCom PATH

  ****  Scalars and arrays  ****
OctLoc.c.b A Datatyp(siz) R M Lvl/name                 OctLoc.c.b A Datatyp(siz) R M Lvl/name

     0-0-0/h STRC        r     1 PATH(0:17600)

  ****  Section 061 LblCom PATH_STRINGS_LEN

  ****  Scalars and arrays  ****
OctLoc.c.b A Datatyp(siz) R M Lvl/name                 OctLoc.c.b A Datatyp(siz) R M Lvl/name

     0-0-0/w SBIN        r     1 PATH_STRINGS_LEN

  ****  Section 062 LblCom PATH_ADDR$

  ****  Scalars and arrays  ****
OctLoc.c.b A Datatyp(siz) R M Lvl/name                 OctLoc.c.b A Datatyp(siz) R M Lvl/name
PL6.E3A0      #002=ORDER_ITEMS File=LR_ERRPTH.:Z8A6TSI                           SAT 08/09/97 09:27 Page:43

     0-0-0/w PTR         r     1 PATH_ADDR$

  ****  Section 063 LblCom PATH_TABLE_LEN

  ****  Scalars and arrays  ****
OctLoc.c.b A Datatyp(siz) R M Lvl/name                 OctLoc.c.b A Datatyp(siz) R M Lvl/name

     0-0-0/w SBIN              1 PATH_TABLE_LEN

  ****  Section 064 LblCom EDGECOST

  ****  Scalars and arrays  ****
OctLoc.c.b A Datatyp(siz) R M Lvl/name                 OctLoc.c.b A Datatyp(siz) R M Lvl/name

     0-0-0/w SBIN              1 EDGECOST(0:400)

  ****  Section 065 LblCom ITEM_TABLE_LEN

  ****  Scalars and arrays  ****
OctLoc.c.b A Datatyp(siz) R M Lvl/name                 OctLoc.c.b A Datatyp(siz) R M Lvl/name

     0-0-0/w SBIN              1 ITEM_TABLE_LEN

  ****  Section 066 LblCom ORDERED_ITEM

  ****  Scalars and arrays  ****
OctLoc.c.b A Datatyp(siz) R M Lvl/name                 OctLoc.c.b A Datatyp(siz) R M Lvl/name

     0-0-0/h STRC        r     1 ORDERED_ITEM(0:400)

  ****  Section 067 LblCom NEIGHBOR

  ****  Scalars and arrays  ****
OctLoc.c.b A Datatyp(siz) R M Lvl/name                 OctLoc.c.b A Datatyp(siz) R M Lvl/name

     0-0-0/w SBIN              1 NEIGHBOR(0:400)
PL6.E3A0      #002=ORDER_ITEMS File=LR_ERRPTH.:Z8A6TSI                           SAT 08/09/97 09:27 Page:44

  ****  Section 068 LblCom PATH_INFO

  ****  Scalars and arrays  ****
OctLoc.c.b A Datatyp(siz) R M Lvl/name                 OctLoc.c.b A Datatyp(siz) R M Lvl/name

     0-0-0/w STRC(28872)       1 PATH_INFO

  ****  Section 069 LblCom CHOSEN

  ****  Scalars and arrays  ****
OctLoc.c.b A Datatyp(siz) R M Lvl/name                 OctLoc.c.b A Datatyp(siz) R M Lvl/name

     0-0-0/w BIT               1 CHOSEN(0:400)

  ****  Section 070 LblCom REACHED

  ****  Scalars and arrays  ****
OctLoc.c.b A Datatyp(siz) R M Lvl/name                 OctLoc.c.b A Datatyp(siz) R M Lvl/name

     0-0-0/b BIT               1 REACHED(0:400)

  ****  Section 071 LblCom EXP_PATH_INDX

  ****  Scalars and arrays  ****
OctLoc.c.b A Datatyp(siz) R M Lvl/name                 OctLoc.c.b A Datatyp(siz) R M Lvl/name

     0-0-0/w SBIN              1 EXP_PATH_INDX

  ****  BASED and DCB variables  ****

  ****  Scalars and arrays  ****
OctLoc.c.b A Datatyp(siz) R M Lvl/name                 OctLoc.c.b A Datatyp(siz) R M Lvl/name

     0-0-0/w STRC(72)          1 CELL                       0-0-0/c ACHR              1 COM_STRINGS
     0-0-0/c ACHR              1 COM_STRING_SPACE           0-0-0/c ACHR              1 CSEARCH_STRING
     0-0-0/w STRC(57888) r     1 C_SET_B                    0-0-0/w STRC(72)          1 INCLUDES_B
PL6.E3A0      #002=ORDER_ITEMS File=LR_ERRPTH.:Z8A6TSI                           SAT 08/09/97 09:27 Page:45
     0-0-0/w STRC(144)         1 INCL_B                     0-0-0/w STRC(5436)  r     1 ITEM_B
     0-0-0/w STRC(5652)  r     1 KEY_B                      0-0-0N  NULL        r     1 M$LO
     0-0-0N  NULL        r     1 M$OU                       0-0-0N  NULL        r     1 M$SI
     0-0-0N  NULL        r     1 M$SO                       0-0-0N  NULL        r     1 M$UI
     0-0-0/c ACHR              1 PATH_STRINGS               0-0-0/w STRC(90)          1 PREFIX
     0-0-0/w ASTR(72)    r     1 PREFIXCHR                  0-0-0/w STRC              1 STRING
     0-0-0/w ASTR(18)    r     1 STRINGCHR                  0-0-0/w STRC(351)         1 SYMBOL


   Procedure ORDER_ITEMS requires 47 words for executable code.
   Procedure ORDER_ITEMS is declared NOAUTO and requires 6 words of local(STATIC) storage.

PL6.E3A0      #003=OUTPUT_BASIS File=LR_ERRPTH.:Z8A6TSI                          SAT 08/09/97 09:28 Page:46
       98        1        /*T***********************************************************/
       99        2        /*T*                                                         */
      100        3        /*T* Copyright (c) Bull HN Information Systems Inc., 1997    */
      101        4        /*T*                                                         */
      102        5        /*T***********************************************************/
      103        6        OUTPUT_BASIS : PROC(STATE) NOAUTO;
      104        7
      105        8        /*D*
      106        9               NAME: OUTPUT_BASIS
      107       10            PURPOSE: OUTPUT THE BASIS ITEMS FOR A STATE.
      108       11        */
      109       12
      110       13    1   DCL STATE SBIN WORD;
      111       14
      112       15        %INCLUDE LR_GRAM_EXT;
      113      554        %INCLUDE LR_CNFG_EXT;
      114      707        %INCLUDE LR_ERR_EXT;
      115      850
      116      851    1   DCL ITEM SBIN WORD;
      117      852    1   DCL E    SBIN WORD;
      118      853    1   DCL I    SBIN WORD;
      119      854    1   DCL P    SBIN WORD;
      120      855    1   DCL DP   SBIN WORD;
      121      856
      122      857
      123      858    1   IF STATE = 0 THEN   /* INITIALIZE BASIS OUTPUT */
      124      859    2     DO;
      125      860            %SELECT_OU;
      126      863
      127      864            %OUTLINE(S="'%START_TABLE_ITEM;'");
      128      870
      129      871    2       STATE_ITEM_INDEX.BASIS(0)   = 0;
      130      872    2       STATE_ITEM_INDEX.CLOSURE(0) = 0;
      131      873    2       ITEM_TABLE_LEN              = 0;
      132      874    2       COM_STRSP_LEN               = 2;
      133      875    2       COM_STRING_SPACE_H(0)       = 0;
      134      876    2       PATH.INDX(0)                = 0;
PL6.E3A0      #003=OUTPUT_BASIS File=LR_ERRPTH.:Z8A6TSI                          SAT 08/09/97 09:28 Page:47
      135      877    2       PATH.LEN(0)                 = 0;
      136      878    2       PATH_TABLE_LEN              = 1;
      137      879    2     END;  /* BASIS OUTPUT INITIALIZATION */
      138      880    1   ELSE
      139      881    2     DO;  /* 1<= STATE <= NR_CONFIG -1 */
      140      882    3       DO ITEM = 0 TO C#_TO_$(STATE) -> C_SET_B.BASIS_COUNT - 1;
      141      883
      142      884    3         E = ORDERED_ITEM.E(ITEM);
      143      885    3         I = ORDERED_ITEM.I(ITEM);
      144      886
      145      887              %OUT_STR(S="'  %ITEM(SS='");
      146      890    3         IF C#_TO_$(STATE) -> C_SET_B.ELEM.KEY$(E) -> KEY_B.W.SYM_AFTER = 0 THEN
      147      891    4           DO;
      148      892                  %OUT_STR(S="'-1,SI=0,I=0,L=0);'");
      149      895                  %BOUNDS(T=SSTATE,V="-1");
      150      901    4           END;
      151      902    3         ELSE
      152      903    4           DO;
      153      904    4             CALL OUT_DEC(BINBIT(C#_TO_$(STATE) -> C_SET_B.ELEM.KEY$(E) -> KEY_B.
               904                      KEY_VAL$ -> C_SET_B.C_SET#, 36));
      154      905
      155      906                  %BOUNDS(T=SSTATE, V=
               906                "C#_TO_$(STATE) -> C_SET_B.ELEM.KEY$(E) -> KEY_B.KEY_VAL$ -> C_SET_B.C_SET#"
               906                      );
      156      912
      157      913                  %OUT_STR(S="',SI='");
      158      916    4             CALL OUT_DEC(BINBIT(C#_TO_$(STATE) -> C_SET_B.ELEM.ITEM$(E) -> ITEM_B.ELEM
               916                      .SUCC_ITEM#(I), 36));
      159      917
      160      918                  %BOUNDS(T=SITEM, V=
               918                      "C#_TO_$(STATE) -> C_SET_B.ELEM.ITEM$(E) -> ITEM_B.ELEM.SUCC_ITEM#(I)"
               918                      );
      161      924
      162      925                  %OUT_STR(S="',I='");
      163      928
      164      929                  /* Insert least_cost_completer for basis item */
      165      930
PL6.E3A0      #003=OUTPUT_BASIS File=LR_ERRPTH.:Z8A6TSI                          SAT 08/09/97 09:28 Page:48
      166      931    4             P = C#_TO_$(STATE) -> C_SET_B.ELEM.KEY$(E) -> KEY_B.ELEM.PROD(I);
      167      932    4             DP = C#_TO_$(STATE) -> C_SET_B.ELEM.KEY$(E) -> KEY_B.ELEM.DOT_POS(I);
      168      933
      169      934    4             IF PROD.RIGHT_CNT(P) <= DP THEN
      170      935                    /* EMPTY STRING */
      171      936                    %OUT_STR(S="'0,L=0);'");
      172      939    4             ELSE
      173      940    5               DO;
      174      941    5                 COM_SEARCH_STRING_LEN = (PROD.RIGHT_CNT(P) - DP )*2;
      175      942    5                 COM_SEARCH_STRING = ADDR(RIGHT_PARTS(PROD.RIGHT_START(P) + DP ));
      176      943    5                 I = 0;
      177      944    6                 DO UNTIL (MOD(I,2) ~= 0);
      178      945
      179      946    6                   CALL INDEX(COM_STRING_INDX,
      180      947    6                              CSEARCH_STRING,
      181      948    6                              SUBSTR(COM_STRINGS, I, COM_STRSP_LEN - I));
      182      949    6                   I = I + COM_STRING_INDX + 1;
      183      950    6                 END;
      184      951
      185      952    5                 COM_STRING_INDX = I - 1;
      186      953
      187      954    5                 IF COM_STRING_INDX = COM_STRSP_LEN THEN
      188      955    6                   DO;
      189      956    6                     IF COM_SEARCH_STRING_LEN + COM_STRSP_LEN > %MAX_STRSP_LEN THEN
      190      957    6                       CALL DIAG (15,
               957               'ERROR => Least cost string space exhausted during error table generation.%%'
               957                                );
      191      958
      192      959    6                     CALL INSERT(COM_STRING_SPACE, COM_STRSP_LEN, COM_SEARCH_STRING_LEN
               959                              , CSEARCH_STRING);
      193      960    6                     COM_STRSP_LEN = COM_STRSP_LEN + COM_SEARCH_STRING_LEN;
      194      961    6                   END;
      195      962
      196      963    5                 CALL OUT_DEC(COM_STRING_INDX/2);
      197      964
      198      965                      %BOUNDS(T=IINDX, V="COM_STRING_INDX/2");
      199      971
PL6.E3A0      #003=OUTPUT_BASIS File=LR_ERRPTH.:Z8A6TSI                          SAT 08/09/97 09:28 Page:49
      200      972                      %OUT_STR(S="',L='");
      201      975    5                 CALL OUT_DEC(COM_SEARCH_STRING_LEN/2);
      202      976
      203      977                      %BOUNDS(T=ILEN, V="COM_SEARCH_STRING_LEN/2");
      204      983
      205      984                      %OUT_STR(S="');'");
      206      987    5               END;
      207      988    4             END;
      208      989
      209      990                  %OUT_STR(S="'  /* '");
      210      993    3             CALL OUT_DEC(STATE);
      211      994                  %OUT_STR(S="'  '");
      212      997    3             CALL OUT_DEC(ITEM);
      213      998                  %OUT_STR(S="' */'");
      214     1001    3             CALL FLUSH;
      215     1002
      216     1003    3             ITEM_TABLE_LEN = ITEM_TABLE_LEN + 1;
      217     1004    3       END;  /* DO ITEM */
      218     1005
      219     1006    2       STATE_ITEM_INDEX.BASIS(STATE) = ITEM_TABLE_LEN;
      220     1007
      221     1008    2     END;  /* STATE >= 1 */
      222     1009
      223     1010    1   END OUTPUT_BASIS;
      224     1011        %EOD;

PL6.E3A0      #003=OUTPUT_BASIS File=LR_ERRPTH.:Z8A6TSI                          SAT 08/09/97 09:28 Page:50
--  Include file information  --

   LR_ERR_EXT.:Z8A6TOU  cannot be made into a system file and is referenced.
   LR_CNFG_EXT.:Z8A6TOU  cannot be made into a system file and is referenced.
   LR_IO_EXT.:Z8A6TOU  cannot be made into a system file and is referenced.
   LR_GRAM_EXT.:Z8A6TOU  cannot be made into a system file and is referenced.
      No diagnostics issued in procedure OUTPUT_BASIS.

   Procedure OUTPUT_BASIS requires 322 words for executable code.
   Procedure OUTPUT_BASIS is declared NOAUTO and requires 12 words of local(STATIC) storage.

PL6.E3A0      #003=OUTPUT_BASIS File=LR_ERRPTH.:Z8A6TSI                          SAT 08/09/97 09:28 Page:51

 Object Unit name= OUTPUT_BASIS                               File name= LR_ERRPTH.:Z8A6TOU
 UTS= AUG 09 '97 09:28:21.28 SAT                              Compiler= PL-6/E31         Sev=      00
 SharedLib= :SHARED_SYSTEM                                    Alt SharedLib=


    ****  Control sections  ****

 Sect   Type Bound  Init  Size OctSiz  Section name(segment info)
    0   Data  even  none    12     14  OUTPUT_BASIS
    1  LblCom even  none     1      1  OUT_DCBN
    2   DCB   even  none     0      0  M$OU
    3   DCB   even  none     0      0  M$SO
    4   DCB   even  none     0      0  M$LO
    5   DCB   even  none     0      0  M$SI
    6   DCB   even  none     0      0  M$UI
    7  LblCom even  none  1401   2571  SYM_PTRS
    8  LblCom even  none  4001   7641  RIGHT_PARTS
    9  LblCom even  none  3002   5672  PROD
   10  LblCom even  none     1      1  NR_PROD
   11  LblCom even  none     1      1  NR_SYMS
   12  LblCom even  none     1      1  NR_TERM
   13  LblCom even  none     1      1  LAST_ACT
   14  LblCom even  none     1      1  LAST_NULL
   15  LblCom even  none     1      1  NR_ONRIGHT
   16  LblCom even  none     1      1  NR_NT
   17  LblCom even  none     1      1  PROD_LEN_MAX_EVER
   18  LblCom even  none     1      1  LAST_ORDER_SPECIFIED
   19  LblCom even  none     1      1  SEMANTIC_ORDERING
   20  LblCom even  none     1      1  ERR_SEV
   21  LblCom even  none     1      1  SET_LENGTHB
   22  LblCom even  none     1      1  SET_LENGTHW
   23  LblCom even  none     1      1  EOF_SYMBOL_PTR
   24  LblCom even  none     1      1  ERROR_SYMBOL_PTR
   25  LblCom even  none     1      1  BOF_SYMBOL_PTR
   26  LblCom even  none     1      1  OPTIONS
   27  LblCom even  none    26     32  OPTIONS_TEXT
   28  LblCom even  none   128    200  INSTR
PL6.E3A0      #003=OUTPUT_BASIS File=LR_ERRPTH.:Z8A6TSI                          SAT 08/09/97 09:28 Page:52
   29  LblCom even  none     1      1  INSTR_LISTED
   30  LblCom even  none     1      1  INSTR_LEN
   31  LblCom even  none     1      1  INSTR_INDX
   32  LblCom even  none     1      1  EOF_FLAG
   33  LblCom even  none     3      3  KEY_REC
   34  LblCom even  none    28     34  LINE
   35  LblCom even  none     1      1  LINELEN
   36  LblCom even  none   205    315  TSTATS
   37  LblCom even  none  2201   4231  C#_TO_$
   38  LblCom even  none     1      1  NR_CONFIG
   39  LblCom even  none     1      1  INIT_CONFIG
   40  LblCom even  none     1      1  MAX_BASIS_ITEMS
   41  LblCom even  none     1      1  MAX_TOTAL_ITEMS
   42  LblCom even  none     1      1  LAST_BINSRCH_ONLY
   43  LblCom even  none     1      1  LAST_BOTH_BITBIN
   44  LblCom even  none   101    145  GARBAGE
   45  LblCom even  none     1      1  AMT_GARBAGE
   46  LblCom even  none  1401   2571  LEAST_COST_STRING
   47  LblCom even  none  1401   2571  LEAST_COST_PREFIX
   48  LblCom even  none  5604  12744  CURRE
   49  LblCom even  none   701   1275  LCP_INDX
   50  LblCom even  none     1      1  COM_STRSP_LEN
   51  LblCom even  none     1      1  COM_SEARCH_STRING
   52  LblCom even  none     1      1  COM_SEARCH_STRING_LEN
   53  LblCom even  none     1      1  COM_STRING_SPACE_LEN
   54  LblCom even  none 12500  30324  COM_STRING_SPACE_H
   55  LblCom even  none     1      1  COM_STRING_SPACE$
   56  LblCom even  none     1      1  COM_STRING_PTR
   57  LblCom even  none     1      1  COM_STRING_INDX
   58  LblCom even  none     1      1  LCP_TABLE_LEN
   59  LblCom even  none  2201   4231  STATE_ITEM_INDEX
   60  LblCom even  none 17601  42301  PATH
   61  LblCom even  none     1      1  PATH_STRINGS_LEN
   62  LblCom even  none     1      1  PATH_ADDR$
   63  LblCom even  none     1      1  PATH_TABLE_LEN
   64  LblCom even  none   401    621  EDGECOST
   65  LblCom even  none     1      1  ITEM_TABLE_LEN
PL6.E3A0      #003=OUTPUT_BASIS File=LR_ERRPTH.:Z8A6TSI                          SAT 08/09/97 09:28 Page:53
   66  LblCom even  none   401    621  ORDERED_ITEM
   67  LblCom even  none   401    621  NEIGHBOR
   68  LblCom even  none   802   1442  PATH_INFO
   69  LblCom even  none   401    621  CHOSEN
   70  LblCom even  none    12     14  REACHED
   71  LblCom even  none     1      1  EXP_PATH_INDX
   72  RoData even  UTS     41     51  OUTPUT_BASIS
   73   Proc  even  none   322    502  OUTPUT_BASIS
   74  RoData even  none    38     46  OUTPUT_BASIS

    ****  Entry defs  ****

                              Check   Calling
                             calling  sequence
  Sect OctLoc Primary Altret sequence   type   Parms  Name
    73      0   yes            yes      Std        1  OUTPUT_BASIS

  ****  Entry refs  ****

         Check        Calling
        calling       sequence
Altret sequence SRef   type   Args  Name
         yes           Std       2 OUT_STR
         yes           Std       0 FLUSH
         yes           Std       6 DIAG
         yes           Std       1 OUT_DEC
                       nStd      0 X66_STATIC_1
                       nStd      0 X66_INDEX

  ****  Data refs  ****

  Flags:  r = read only, s = secondary
Flgs Name                             Flgs Name                             Flgs Name
     M$OU                                  M$SO                                  M$LO
     M$SI                                  M$UI
PL6.E3A0      #003=OUTPUT_BASIS File=LR_ERRPTH.:Z8A6TSI                          SAT 08/09/97 09:28 Page:54

  ****  Segment refs  ****

  Flags:  r = read only, s = secondary
Flgs Name                             Flgs Name                             Flgs Name
     NULLSID                               ISSID
PL6.E3A0      #003=OUTPUT_BASIS File=LR_ERRPTH.:Z8A6TSI                          SAT 08/09/97 09:28 Page:55


       98        1        /*T***********************************************************/
       99        2        /*T*                                                         */
      100        3        /*T* Copyright (c) Bull HN Information Systems Inc., 1997    */
      101        4        /*T*                                                         */
      102        5        /*T***********************************************************/
      103        6        OUTPUT_BASIS : PROC(STATE) NOAUTO;

      6 73 000000   000000 700200 xent  OUTPUT_BASIS TSX0  ! X66_STATIC_1
        73 000001   000000 000001 0                  ZERO    0,1

      104        7
      105        8        /*D*
      106        9               NAME: OUTPUT_BASIS
      107       10            PURPOSE: OUTPUT THE BASIS ITEMS FOR A STATE.
      108       11        */
      109       12
      110       13    1   DCL STATE SBIN WORD;
      111       14
      112       15        %INCLUDE LR_GRAM_EXT;
      113      554        %INCLUDE LR_CNFG_EXT;
      114      707        %INCLUDE LR_ERR_EXT;
      115      850
      116      851    1   DCL ITEM SBIN WORD;
      117      852    1   DCL E    SBIN WORD;
      118      853    1   DCL I    SBIN WORD;
      119      854    1   DCL P    SBIN WORD;
      120      855    1   DCL DP   SBIN WORD;
      121      856
      122      857
      123      858    1   IF STATE = 0 THEN   /* INITIALIZE BASIS OUTPUT */

    858 73 000002   000001 470400 0                  LDP0    @STATE
        73 000003   000000 235100                    LDA     0,,PR0
        73 000004   000032 601000 73                 TNZ     s:882

      124      859    2     DO;
PL6.E3A0      #003=OUTPUT_BASIS File=LR_ERRPTH.:Z8A6TSI                          SAT 08/09/97 09:28 Page:56

      125      860            %SELECT_OU;

    861 73 000005   000000 236007 xsym               LDQ     M$OU,DL
        73 000006   000000 756000 1                  STQ     OUT_DCBN

      126      863
      127      864            %OUTLINE(S="'%START_TABLE_ITEM;'");

    866 73 000007   000002 630400 74                 EPPR0   2
        73 000010   000000 631400 74                 EPPR1   0
        73 000011   000000 701000 xent               TSX1    OUT_STR
        73 000012   000000 011000                    NOP     0

    867 73 000013   000004 631400 74                 EPPR1   4
        73 000014   000000 701000 xent               TSX1    FLUSH
        73 000015   000000 011000                    NOP     0

      128      870
      129      871    2       STATE_ITEM_INDEX.BASIS(0)   = 0;

    871 73 000016   000000 220003                    LDX0    0,DU
        73 000017   000000 740000 59                 STX0    STATE_ITEM_INDEX

      130      872    2       STATE_ITEM_INDEX.CLOSURE(0) = 0;

    872 73 000020   000000 440000 59                 SXL0    STATE_ITEM_INDEX

      131      873    2       ITEM_TABLE_LEN              = 0;

    873 73 000021   000000 450000 65                 STZ     ITEM_TABLE_LEN

      132      874    2       COM_STRSP_LEN               = 2;

    874 73 000022   000002 235007                    LDA     2,DL
        73 000023   000000 755000 50                 STA     COM_STRSP_LEN

PL6.E3A0      #003=OUTPUT_BASIS File=LR_ERRPTH.:Z8A6TSI                          SAT 08/09/97 09:28 Page:57
      133      875    2       COM_STRING_SPACE_H(0)       = 0;

    875 73 000024   000000 740000 54                 STX0    COM_STRING_SPACE_H

      134      876    2       PATH.INDX(0)                = 0;

    876 73 000025   000000 740000 60                 STX0    PATH

      135      877    2       PATH.LEN(0)                 = 0;

    877 73 000026   000000 440000 60                 SXL0    PATH

      136      878    2       PATH_TABLE_LEN              = 1;

    878 73 000027   000001 236007                    LDQ     1,DL
        73 000030   000000 756000 63                 STQ     PATH_TABLE_LEN

      137      879    2     END;  /* BASIS OUTPUT INITIALIZATION */

    879 73 000031   000500 710000 73                 TRA     s:1010

      138      880    1   ELSE
      139      881    2     DO;  /* 1<= STATE <= NR_CONFIG -1 */

      140      882    3       DO ITEM = 0 TO C#_TO_$(STATE) -> C_SET_B.BASIS_COUNT - 1;

    882 73 000032   000002 450000 0                  STZ     ITEM
        73 000033   000465 710000 73                 TRA     s:1004+1

      141      883
      142      884    3         E = ORDERED_ITEM.E(ITEM);

    884 73 000034   000002 720000 0                  LXL0    ITEM
        73 000035   000000 236010 66                 LDQ     ORDERED_ITEM,X0
        73 000036   000022 732000                    QRS     18
        73 000037   000003 756000 0                  STQ     E

PL6.E3A0      #003=OUTPUT_BASIS File=LR_ERRPTH.:Z8A6TSI                          SAT 08/09/97 09:28 Page:58
      143      885    3         I = ORDERED_ITEM.I(ITEM);

    885 73 000040   000000 236010 66                 LDQ     ORDERED_ITEM,X0
        73 000041   000022 736000                    QLS     18
        73 000042   000022 732000                    QRS     18
        73 000043   000004 756000 0                  STQ     I

      144      886
      145      887              %OUT_STR(S="'  %ITEM(SS='");

    888 73 000044   000006 630400 74                 EPPR0   6
        73 000045   000000 631400 74                 EPPR1   0
        73 000046   000000 701000 xent               TSX1    OUT_STR
        73 000047   000000 011000                    NOP     0

      146      890    3         IF C#_TO_$(STATE) -> C_SET_B.ELEM.KEY$(E) -> KEY_B.W.SYM_AFTER = 0 THEN

    890 73 000050   000001 470400 0                  LDP0    @STATE
        73 000051   000000 720100                    LXL0    0,,PR0
        73 000052   000000 471410 37                 LDP1    C#_TO_$,X0
        73 000053   000003 235000 0                  LDA     E
        73 000054   000002 735000                    ALS     2
        73 000055   100004 473505                    LDP3    4,AL,PR1
        73 000056   300004 235100                    LDA     4,,PR3
        73 000057   000077 601000 73                 TNZ     s:904

      147      891    4           DO;

      148      892                  %OUT_STR(S="'-1,SI=0,I=0,L=0);'");

    893 73 000060   000011 630400 74                 EPPR0   9
        73 000061   000000 631400 74                 EPPR1   0
        73 000062   000000 701000 xent               TSX1    OUT_STR
        73 000063   000000 011000                    NOP     0

      149      895                  %BOUNDS(T=SSTATE,V="-1");

PL6.E3A0      #003=OUTPUT_BASIS File=LR_ERRPTH.:Z8A6TSI                          SAT 08/09/97 09:28 Page:59
    897 73 000064   000001 336007                    LCQ     1,DL
        73 000065   000104 116000 36                 CMPQ    TSTATS+68
        73 000066   000070 604400 73                 TMOZ    s:897+4
        73 000067   000104 236000 36                 LDQ     TSTATS+68
        73 000070   000104 756000 36                 STQ     TSTATS+68

    898 73 000071   000001 336007                    LCQ     1,DL
        73 000072   000103 116000 36                 CMPQ    TSTATS+67
        73 000073   000075 605000 73                 TPL     s:898+4
        73 000074   000103 236000 36                 LDQ     TSTATS+67
        73 000075   000103 756000 36                 STQ     TSTATS+67

      150      901    4           END;

    901 73 000076   000434 710000 73                 TRA     s:991

      151      902    3         ELSE
      152      903    4           DO;

      153      904    4             CALL OUT_DEC(BINBIT(C#_TO_$(STATE) -> C_SET_B.ELEM.KEY$(E) -> KEY_B.
               904                      KEY_VAL$ -> C_SET_B.C_SET#, 36));

    904 73 000077   000000 720100                    LXL0    0,,PR0
        73 000100   000000 471410 37                 LDP1    C#_TO_$,X0
        73 000101   000003 235000 0                  LDA     E
        73 000102   000002 735000                    ALS     2
        73 000103   100004 473505                    LDP3    4,AL,PR1
        73 000104   300003 471500                    LDP1    3,,PR3
        73 000105   100001 236100                    LDQ     1,,PR1
        73 000106   000022 772000                    QRL     18
        73 000107   000010 756000 0                  STQ     DP+2
        73 000110   000010 631400 0                  EPPR1   DP+2
        73 000111   000012 451400 0                  STP1    DP+4
        73 000112   000012 630400 0                  EPPR0   DP+4
        73 000113   000013 631400 74                 EPPR1   11
        73 000114   000000 701000 xent               TSX1    OUT_DEC
        73 000115   000000 011000                    NOP     0
PL6.E3A0      #003=OUTPUT_BASIS File=LR_ERRPTH.:Z8A6TSI                          SAT 08/09/97 09:28 Page:60

      154      905
      155      906                  %BOUNDS(T=SSTATE, V=
               906               "C#_TO_$(STATE) -> C_SET_B.ELEM.KEY$(E) -> KEY_B.KEY_VAL$ -> C_SET_B.C_SET#"
               906                      );

    908 73 000116   000001 470400 0                  LDP0    @STATE
        73 000117   000000 720100                    LXL0    0,,PR0
        73 000120   000000 471410 37                 LDP1    C#_TO_$,X0
        73 000121   000003 235000 0                  LDA     E
        73 000122   000002 735000                    ALS     2
        73 000123   100004 473505                    LDP3    4,AL,PR1
        73 000124   300003 471500                    LDP1    3,,PR3
        73 000125   100001 236100                    LDQ     1,,PR1
        73 000126   000022 772000                    QRL     18
        73 000127   000132 604000 73                 TMI     s:908+12
        73 000130   000104 116000 36                 CMPQ    TSTATS+68
        73 000131   000133 604400 73                 TMOZ    s:908+13
        73 000132   000104 236000 36                 LDQ     TSTATS+68
        73 000133   000104 756000 36                 STQ     TSTATS+68

    909 73 000134   000000 720100                    LXL0    0,,PR0
        73 000135   000000 471410 37                 LDP1    C#_TO_$,X0
        73 000136   100004 473505                    LDP3    4,AL,PR1
        73 000137   300003 471500                    LDP1    3,,PR3
        73 000140   100001 236100                    LDQ     1,,PR1
        73 000141   000022 772000                    QRL     18
        73 000142   000146 604000 73                 TMI     s:909+10
        73 000143   000103 116000 36                 CMPQ    TSTATS+67
        73 000144   000146 605000 73                 TPL     s:909+10
        73 000145   000103 236000 36                 LDQ     TSTATS+67
        73 000146   000103 756000 36                 STQ     TSTATS+67

      156      912
      157      913                  %OUT_STR(S="',SI='");

    914 73 000147   000015 630400 74                 EPPR0   13
PL6.E3A0      #003=OUTPUT_BASIS File=LR_ERRPTH.:Z8A6TSI                          SAT 08/09/97 09:28 Page:61
        73 000150   000000 631400 74                 EPPR1   0
        73 000151   000000 701000 xent               TSX1    OUT_STR
        73 000152   000000 011000                    NOP     0

      158      916    4            CALL OUT_DEC(BINBIT(C#_TO_$(STATE) -> C_SET_B.ELEM.ITEM$(E) -> ITEM_B.ELEM
               916                      .SUCC_ITEM#(I), 36));

    916 73 000153   000001 470400 0                  LDP0    @STATE
        73 000154   000000 720100                    LXL0    0,,PR0
        73 000155   000000 471410 37                 LDP1    C#_TO_$,X0
        73 000156   000003 235000 0                  LDA     E
        73 000157   000002 735000                    ALS     2
        73 000160   100006 473505                    LDP3    6,AL,PR1
        73 000161   000004 720000 0                  LXL0    I
        73 000162   300000 236110                    LDQ     0,X0,PR3
        73 000163   000022 736000                    QLS     18
        73 000164   000022 732000                    QRS     18
        73 000165   000010 756000 0                  STQ     DP+2
        73 000166   000010 631400 0                  EPPR1   DP+2
        73 000167   000012 451400 0                  STP1    DP+4
        73 000170   000012 630400 0                  EPPR0   DP+4
        73 000171   000013 631400 74                 EPPR1   11
        73 000172   000000 701000 xent               TSX1    OUT_DEC
        73 000173   000000 011000                    NOP     0

      159      917
      160      918                  %BOUNDS(T=SITEM, V=
               918                     "C#_TO_$(STATE) -> C_SET_B.ELEM.ITEM$(E) -> ITEM_B.ELEM.SUCC_ITEM#(I)"
               918                      );

    920 73 000174   000001 470400 0                  LDP0    @STATE
        73 000175   000000 720100                    LXL0    0,,PR0
        73 000176   000000 471410 37                 LDP1    C#_TO_$,X0
        73 000177   000003 235000 0                  LDA     E
        73 000200   000002 735000                    ALS     2
        73 000201   100006 473505                    LDP3    6,AL,PR1
        73 000202   000004 720000 0                  LXL0    I
PL6.E3A0      #003=OUTPUT_BASIS File=LR_ERRPTH.:Z8A6TSI                          SAT 08/09/97 09:28 Page:62
        73 000203   300000 236110                    LDQ     0,X0,PR3
        73 000204   000022 736000                    QLS     18
        73 000205   000022 732000                    QRS     18
        73 000206   000112 116000 36                 CMPQ    TSTATS+74
        73 000207   000211 604400 73                 TMOZ    s:920+13
        73 000210   000112 236000 36                 LDQ     TSTATS+74
        73 000211   000112 756000 36                 STQ     TSTATS+74

    921 73 000212   000000 721100                    LXL1    0,,PR0
        73 000213   000000 471411 37                 LDP1    C#_TO_$,X1
        73 000214   100006 473505                    LDP3    6,AL,PR1
        73 000215   300000 236110                    LDQ     0,X0,PR3
        73 000216   000022 736000                    QLS     18
        73 000217   000022 732000                    QRS     18
        73 000220   000111 116000 36                 CMPQ    TSTATS+73
        73 000221   000223 605000 73                 TPL     s:921+9
        73 000222   000111 236000 36                 LDQ     TSTATS+73
        73 000223   000111 756000 36                 STQ     TSTATS+73

      161      924
      162      925                  %OUT_STR(S="',I='");

    926 73 000224   000020 630400 74                 EPPR0   16
        73 000225   000000 631400 74                 EPPR1   0
        73 000226   000000 701000 xent               TSX1    OUT_STR
        73 000227   000000 011000                    NOP     0

      163      928
      164      929                  /* Insert least_cost_completer for basis item */
      165      930
      166      931    4             P = C#_TO_$(STATE) -> C_SET_B.ELEM.KEY$(E) -> KEY_B.ELEM.PROD(I);

    931 73 000230   000001 470400 0                  LDP0    @STATE
        73 000231   000000 720100                    LXL0    0,,PR0
        73 000232   000000 471410 37                 LDP1    C#_TO_$,X0
        73 000233   000003 235000 0                  LDA     E
        73 000234   000002 735000                    ALS     2
PL6.E3A0      #003=OUTPUT_BASIS File=LR_ERRPTH.:Z8A6TSI                          SAT 08/09/97 09:28 Page:63
        73 000235   100004 473505                    LDP3    4,AL,PR1
        73 000236   000004 720000 0                  LXL0    I
        73 000237   300006 236110                    LDQ     6,X0,PR3
        73 000240   000022 772000                    QRL     18
        73 000241   000005 756000 0                  STQ     P

      167      932    4             DP = C#_TO_$(STATE) -> C_SET_B.ELEM.KEY$(E) -> KEY_B.ELEM.DOT_POS(I);

    932 73 000242   000000 721100                    LXL1    0,,PR0
        73 000243   000000 471411 37                 LDP1    C#_TO_$,X1
        73 000244   100004 473505                    LDP3    4,AL,PR1
        73 000245   300006 236110                    LDQ     6,X0,PR3
        73 000246   777777 376007                    ANQ     -1,DL
        73 000247   000006 756000 0                  STQ     DP

      168      933
      169      934    4             IF PROD.RIGHT_CNT(P) <= DP THEN

    934 73 000250   000005 235000 0                  LDA     P
        73 000251   000001 735000                    ALS     1
        73 000252   000001 236005 9                  LDQ     PROD+1,AL
        73 000253   000022 732000                    QRS     18
        73 000254   000006 116000 0                  CMPQ    DP
        73 000255   000263 605400 73                 TPNZ    s:941

      170      935                    /* EMPTY STRING */
      171      936                    %OUT_STR(S="'0,L=0);'");

    937 73 000256   000023 630400 74                 EPPR0   19
        73 000257   000000 631400 74                 EPPR1   0
        73 000260   000000 701000 xent               TSX1    OUT_STR
        73 000261   000000 011000                    NOP     0
        73 000262   000434 710000 73                 TRA     s:991

      172      939    4             ELSE
      173      940    5               DO;

PL6.E3A0      #003=OUTPUT_BASIS File=LR_ERRPTH.:Z8A6TSI                          SAT 08/09/97 09:28 Page:64
      174      941    5                 COM_SEARCH_STRING_LEN = (PROD.RIGHT_CNT(P) - DP )*2;

    941 73 000263   000006 136000 0                  SBLQ    DP
        73 000264   000001 736000                    QLS     1
        73 000265   000000 756000 52                 STQ     COM_SEARCH_STRING_LEN

      175      942    5                 COM_SEARCH_STRING = ADDR(RIGHT_PARTS(PROD.RIGHT_START(P) + DP ));

    942 73 000266   000001 236005 9                  LDQ     PROD+1,AL
        73 000267   000022 736000                    QLS     18
        73 000270   000022 732000                    QRS     18
        73 000271   000006 036000 0                  ADLQ    DP
        73 000272   000021 736000                    QLS     17
        73 000273   000025 036000 74                 ADLQ    21
        73 000274   000000 756000 51                 STQ     COM_SEARCH_STRING

      176      943    5                 I = 0;

    943 73 000275   000004 450000 0                  STZ     I

      177      944    6                 DO UNTIL (MOD(I,2) ~= 0);

      178      945
      179      946    6                   CALL INDEX(COM_STRING_INDX,

    946 73 000276   000000 236000 50                 LDQ     COM_STRSP_LEN
        73 000277   000004 136000 0                  SBLQ    I
        73 000300   000000 631400 57                 EPPR1   COM_STRING_INDX
        73 000301   000000 473400 51                 LDP3    COM_SEARCH_STRING
        73 000302   000000 723000 52                 LXL3    COM_SEARCH_STRING_LEN
        73 000303   000000 470400 56                 LDP0    COM_STRING_PTR
        73 000304   000004 235000 0                  LDA     I
        73 000305   000000 500505                    A9BD    0,AL,PR0
        73 000306   000000 620006                    EAX0    0,QL
        73 000307   000000 236003                    LDQ     0,DU
        73 000310   000000 701000 xent               TSX1    X66_INDEX
        73 000311   000000 011000                    NOP     0
PL6.E3A0      #003=OUTPUT_BASIS File=LR_ERRPTH.:Z8A6TSI                          SAT 08/09/97 09:28 Page:65

      180      947    6                              CSEARCH_STRING,
      181      948    6                              SUBSTR(COM_STRINGS, I, COM_STRSP_LEN - I));
      182      949    6                   I = I + COM_STRING_INDX + 1;

    949 73 000312   000004 236000 0                  LDQ     I
        73 000313   000000 036000 57                 ADLQ    COM_STRING_INDX
        73 000314   000001 036007                    ADLQ    1,DL
        73 000315   000004 756000 0                  STQ     I

      183      950    6                 END;

    950 73 000316   000002 506007                    DIV     2,DL
        73 000317   000044 733000                    LRS     36
        73 000320   000000 116003                    CMPQ    0,DU
        73 000321   000276 600000 73                 TZE     s:946

      184      951
      185      952    5                 COM_STRING_INDX = I - 1;

    952 73 000322   000004 235000 0                  LDA     I
        73 000323   000001 135007                    SBLA    1,DL
        73 000324   000000 755000 57                 STA     COM_STRING_INDX

      186      953
      187      954    5                 IF COM_STRING_INDX = COM_STRSP_LEN THEN

    954 73 000325   000000 236000 57                 LDQ     COM_STRING_INDX
        73 000326   000000 116000 50                 CMPQ    COM_STRSP_LEN
        73 000327   000352 601000 73                 TNZ     s:963

      188      955    6                   DO;

      189      956    6                     IF COM_SEARCH_STRING_LEN + COM_STRSP_LEN > %MAX_STRSP_LEN THEN

    956 73 000330   000000 236000 52                 LDQ     COM_SEARCH_STRING_LEN
        73 000331   000000 036000 50                 ADLQ    COM_STRSP_LEN
PL6.E3A0      #003=OUTPUT_BASIS File=LR_ERRPTH.:Z8A6TSI                          SAT 08/09/97 09:28 Page:66
        73 000332   141520 116007                    CMPQ    50000,DL
        73 000333   000340 604400 73                 TMOZ    s:959

      190      957    6                       CALL DIAG (15,
               957              'ERROR => Least cost string space exhausted during error table generation.%%'
               957                                );

    957 73 000334   000027 630400 74                 EPPR0   23
        73 000335   000000 631400 74                 EPPR1   0
        73 000336   000000 701000 xent               TSX1    DIAG
        73 000337   000000 011000                    NOP     0

      191      958
      192      959    6                    CALL INSERT(COM_STRING_SPACE, COM_STRSP_LEN, COM_SEARCH_STRING_LEN
               959                              , CSEARCH_STRING);

    959 73 000340   000000 470400 51                 LDP0    COM_SEARCH_STRING
        73 000341   000000 720000 52                 LXL0    COM_SEARCH_STRING_LEN
        73 000342   000000 471400 55                 LDP1    COM_STRING_SPACE$
        73 000343   000000 235000 50                 LDA     COM_STRSP_LEN
        73 000344   040145 100540                    MLR     fill='040'O
        73 000345   000000 000010                    ADSC9   0,,PR0                   cn=0,n=*X0
        73 000346   100000 000010                    ADSC9   0,A,PR1                  cn=0,n=*X0

      193      960    6                     COM_STRSP_LEN = COM_STRSP_LEN + COM_SEARCH_STRING_LEN;

    960 73 000347   000000 236000 50                 LDQ     COM_STRSP_LEN
        73 000350   000000 036000 52                 ADLQ    COM_SEARCH_STRING_LEN
        73 000351   000000 756000 50                 STQ     COM_STRSP_LEN

      194      961    6                   END;

      195      962
      196      963    5                 CALL OUT_DEC(COM_STRING_INDX/2);

    963 73 000352   000000 236000 57                 LDQ     COM_STRING_INDX
        73 000353   000002 506007                    DIV     2,DL
PL6.E3A0      #003=OUTPUT_BASIS File=LR_ERRPTH.:Z8A6TSI                          SAT 08/09/97 09:28 Page:67
        73 000354   000010 756000 0                  STQ     DP+2
        73 000355   000010 630400 0                  EPPR0   DP+2
        73 000356   000011 450400 0                  STP0    DP+3
        73 000357   000011 630400 0                  EPPR0   DP+3
        73 000360   000013 631400 74                 EPPR1   11
        73 000361   000000 701000 xent               TSX1    OUT_DEC
        73 000362   000000 011000                    NOP     0

      197      964
      198      965                      %BOUNDS(T=IINDX, V="COM_STRING_INDX/2");

    967 73 000363   000000 236000 57                 LDQ     COM_STRING_INDX
        73 000364   000002 506007                    DIV     2,DL
        73 000365   000120 116000 36                 CMPQ    TSTATS+80
        73 000366   000370 604400 73                 TMOZ    s:967+5
        73 000367   000120 236000 36                 LDQ     TSTATS+80
        73 000370   000120 756000 36                 STQ     TSTATS+80

    968 73 000371   000000 236000 57                 LDQ     COM_STRING_INDX
        73 000372   000002 506007                    DIV     2,DL
        73 000373   000117 116000 36                 CMPQ    TSTATS+79
        73 000374   000376 605000 73                 TPL     s:968+5
        73 000375   000117 236000 36                 LDQ     TSTATS+79
        73 000376   000117 756000 36                 STQ     TSTATS+79

      199      971
      200      972                      %OUT_STR(S="',L='");

    973 73 000377   000031 630400 74                 EPPR0   25
        73 000400   000000 631400 74                 EPPR1   0
        73 000401   000000 701000 xent               TSX1    OUT_STR
        73 000402   000000 011000                    NOP     0

      201      975    5                 CALL OUT_DEC(COM_SEARCH_STRING_LEN/2);

    975 73 000403   000000 236000 52                 LDQ     COM_SEARCH_STRING_LEN
        73 000404   000002 506007                    DIV     2,DL
PL6.E3A0      #003=OUTPUT_BASIS File=LR_ERRPTH.:Z8A6TSI                          SAT 08/09/97 09:28 Page:68
        73 000405   000010 756000 0                  STQ     DP+2
        73 000406   000010 630400 0                  EPPR0   DP+2
        73 000407   000011 450400 0                  STP0    DP+3
        73 000410   000011 630400 0                  EPPR0   DP+3
        73 000411   000013 631400 74                 EPPR1   11
        73 000412   000000 701000 xent               TSX1    OUT_DEC
        73 000413   000000 011000                    NOP     0

      202      976
      203      977                      %BOUNDS(T=ILEN, V="COM_SEARCH_STRING_LEN/2");

    979 73 000414   000000 236000 52                 LDQ     COM_SEARCH_STRING_LEN
        73 000415   000002 506007                    DIV     2,DL
        73 000416   000126 116000 36                 CMPQ    TSTATS+86
        73 000417   000421 604400 73                 TMOZ    s:979+5
        73 000420   000126 236000 36                 LDQ     TSTATS+86
        73 000421   000126 756000 36                 STQ     TSTATS+86

    980 73 000422   000000 236000 52                 LDQ     COM_SEARCH_STRING_LEN
        73 000423   000002 506007                    DIV     2,DL
        73 000424   000125 116000 36                 CMPQ    TSTATS+85
        73 000425   000427 605000 73                 TPL     s:980+5
        73 000426   000125 236000 36                 LDQ     TSTATS+85
        73 000427   000125 756000 36                 STQ     TSTATS+85

      204      983
      205      984                      %OUT_STR(S="');'");

    985 73 000430   000034 630400 74                 EPPR0   28
        73 000431   000000 631400 74                 EPPR1   0
        73 000432   000000 701000 xent               TSX1    OUT_STR
        73 000433   000000 011000                    NOP     0

      206      987    5               END;

      207      988    4             END;

PL6.E3A0      #003=OUTPUT_BASIS File=LR_ERRPTH.:Z8A6TSI                          SAT 08/09/97 09:28 Page:69
      208      989
      209      990                  %OUT_STR(S="'  /* '");

    991 73 000434   000037 630400 74                 EPPR0   31
        73 000435   000000 631400 74                 EPPR1   0
        73 000436   000000 701000 xent               TSX1    OUT_STR
        73 000437   000000 011000                    NOP     0

      210      993    3             CALL OUT_DEC(STATE);

    993 73 000440   000001 630400 0                  EPPR0   @STATE
        73 000441   000013 631400 74                 EPPR1   11
        73 000442   000000 701000 xent               TSX1    OUT_DEC
        73 000443   000000 011000                    NOP     0

      211      994                  %OUT_STR(S="'  '");

    995 73 000444   000041 630400 74                 EPPR0   33
        73 000445   000000 631400 74                 EPPR1   0
        73 000446   000000 701000 xent               TSX1    OUT_STR
        73 000447   000000 011000                    NOP     0

      212      997    3             CALL OUT_DEC(ITEM);

    997 73 000450   000043 630400 74                 EPPR0   35
        73 000451   000013 631400 74                 EPPR1   11
        73 000452   000000 701000 xent               TSX1    OUT_DEC
        73 000453   000000 011000                    NOP     0

      213      998                  %OUT_STR(S="' */'");

    999 73 000454   000044 630400 74                 EPPR0   36
        73 000455   000000 631400 74                 EPPR1   0
        73 000456   000000 701000 xent               TSX1    OUT_STR
        73 000457   000000 011000                    NOP     0

      214     1001    3             CALL FLUSH;
PL6.E3A0      #003=OUTPUT_BASIS File=LR_ERRPTH.:Z8A6TSI                          SAT 08/09/97 09:28 Page:70

   1001 73 000460   000004 631400 74                 EPPR1   4
        73 000461   000000 701000 xent               TSX1    FLUSH
        73 000462   000000 011000                    NOP     0

      215     1002
      216     1003    3             ITEM_TABLE_LEN = ITEM_TABLE_LEN + 1;

   1003 73 000463   000000 054000 65                 AOS     ITEM_TABLE_LEN

      217     1004    3       END;  /* DO ITEM */

   1004 73 000464   000002 054000 0                  AOS     ITEM
        73 000465   000001 470400 0                  LDP0    @STATE
        73 000466   000000 720100                    LXL0    0,,PR0
        73 000467   000000 471410 37                 LDP1    C#_TO_$,X0
        73 000470   100002 236100                    LDQ     2,,PR1
        73 000471   000022 736000                    QLS     18
        73 000472   000022 732000                    QRS     18
        73 000473   000002 116000 0                  CMPQ    ITEM
        73 000474   000034 605400 73                 TPNZ    s:884

      218     1005
      219     1006    2       STATE_ITEM_INDEX.BASIS(STATE) = ITEM_TABLE_LEN;

   1006 73 000475   000000 720100                    LXL0    0,,PR0
        73 000476   000000 721000 65                 LXL1    ITEM_TABLE_LEN
        73 000477   000000 741010 59                 STX1    STATE_ITEM_INDEX,X0

      220     1007
      221     1008    2     END;  /* STATE >= 1 */

      222     1009
      223     1010    1   END OUTPUT_BASIS;

   1010 73 000500   000000 221200 0                  LDX1  ! 0
        73 000501   000001 702211                    TSX2  ! 1,X1
PL6.E3A0      #003=OUTPUT_BASIS File=LR_ERRPTH.:Z8A6TSI                          SAT 08/09/97 09:28 Page:71
      224     1011        %EOD;

PL6.E3A0      #003=OUTPUT_BASIS File=LR_ERRPTH.:Z8A6TSI                          SAT 08/09/97 09:28 Page:72
--  Include file information  --

   LR_ERR_EXT.:Z8A6TOU  cannot be made into a system file and is referenced.
   LR_CNFG_EXT.:Z8A6TOU  cannot be made into a system file and is referenced.
   LR_IO_EXT.:Z8A6TOU  cannot be made into a system file and is referenced.
   LR_GRAM_EXT.:Z8A6TOU  cannot be made into a system file and is referenced.
      No diagnostics issued in procedure OUTPUT_BASIS.
PL6.E3A0      #003=OUTPUT_BASIS File=LR_ERRPTH.:Z8A6TSI                          SAT 08/09/97 09:28 Page:73

 **** Variables and constants ****

  ****  Section 000  Data  OUTPUT_BASIS

  ****  Scalars and arrays  ****
OctLoc.c.b A Datatyp(siz) R M Lvl/name                 OctLoc.c.b A Datatyp(siz) R M Lvl/name

     1-0-0/w PTR         r     1 @STATE                     6-0-0/w SBIN        r     1 DP
     3-0-0/w SBIN        r     1 E                          4-0-0/w SBIN        r     1 I
     2-0-0/w SBIN        r     1 ITEM                       5-0-0/w SBIN        r     1 P
    *0-0-0/w SBIN        r     1 STATE

  ****  Section 001 LblCom OUT_DCBN

  ****  Scalars and arrays  ****
OctLoc.c.b A Datatyp(siz) R M Lvl/name                 OctLoc.c.b A Datatyp(siz) R M Lvl/name

     0-0-0/w SBIN        r     1 OUT_DCBN

  ****  Section 007 LblCom SYM_PTRS

  ****  Scalars and arrays  ****
OctLoc.c.b A Datatyp(siz) R M Lvl/name                 OctLoc.c.b A Datatyp(siz) R M Lvl/name

     0-0-0/w PTR               1 SYM_PTRS(0:1400)

  ****  Section 008 LblCom RIGHT_PARTS

  ****  Scalars and arrays  ****
OctLoc.c.b A Datatyp(siz) R M Lvl/name                 OctLoc.c.b A Datatyp(siz) R M Lvl/name

     0-0-0/h SBIN(18)    r     1 RIGHT_PARTS(0:8000)

  ****  Section 009 LblCom PROD

  ****  Scalars and arrays  ****
OctLoc.c.b A Datatyp(siz) R M Lvl/name                 OctLoc.c.b A Datatyp(siz) R M Lvl/name
PL6.E3A0      #003=OUTPUT_BASIS File=LR_ERRPTH.:Z8A6TSI                          SAT 08/09/97 09:28 Page:74

     0-0-0/h STRC(72)    r     1 PROD(0:1500)

  ****  Section 010 LblCom NR_PROD

  ****  Scalars and arrays  ****
OctLoc.c.b A Datatyp(siz) R M Lvl/name                 OctLoc.c.b A Datatyp(siz) R M Lvl/name

     0-0-0/w SBIN              1 NR_PROD

  ****  Section 011 LblCom NR_SYMS

  ****  Scalars and arrays  ****
OctLoc.c.b A Datatyp(siz) R M Lvl/name                 OctLoc.c.b A Datatyp(siz) R M Lvl/name

     0-0-0/w SBIN              1 NR_SYMS

  ****  Section 012 LblCom NR_TERM

  ****  Scalars and arrays  ****
OctLoc.c.b A Datatyp(siz) R M Lvl/name                 OctLoc.c.b A Datatyp(siz) R M Lvl/name

     0-0-0/w SBIN              1 NR_TERM

  ****  Section 013 LblCom LAST_ACT

  ****  Scalars and arrays  ****
OctLoc.c.b A Datatyp(siz) R M Lvl/name                 OctLoc.c.b A Datatyp(siz) R M Lvl/name

     0-0-0/w SBIN              1 LAST_ACT

  ****  Section 014 LblCom LAST_NULL

  ****  Scalars and arrays  ****
OctLoc.c.b A Datatyp(siz) R M Lvl/name                 OctLoc.c.b A Datatyp(siz) R M Lvl/name

     0-0-0/w SBIN              1 LAST_NULL
PL6.E3A0      #003=OUTPUT_BASIS File=LR_ERRPTH.:Z8A6TSI                          SAT 08/09/97 09:28 Page:75

  ****  Section 015 LblCom NR_ONRIGHT

  ****  Scalars and arrays  ****
OctLoc.c.b A Datatyp(siz) R M Lvl/name                 OctLoc.c.b A Datatyp(siz) R M Lvl/name

     0-0-0/w SBIN              1 NR_ONRIGHT

  ****  Section 016 LblCom NR_NT

  ****  Scalars and arrays  ****
OctLoc.c.b A Datatyp(siz) R M Lvl/name                 OctLoc.c.b A Datatyp(siz) R M Lvl/name

     0-0-0/w SBIN              1 NR_NT

  ****  Section 017 LblCom PROD_LEN_MAX_EVER

  ****  Scalars and arrays  ****
OctLoc.c.b A Datatyp(siz) R M Lvl/name                 OctLoc.c.b A Datatyp(siz) R M Lvl/name

     0-0-0/w SBIN              1 PROD_LEN_MAX_EVER

  ****  Section 018 LblCom LAST_ORDER_SPECIFIED

  ****  Scalars and arrays  ****
OctLoc.c.b A Datatyp(siz) R M Lvl/name                 OctLoc.c.b A Datatyp(siz) R M Lvl/name

     0-0-0/w SBIN              1 LAST_ORDER_SPECIFIED

  ****  Section 019 LblCom SEMANTIC_ORDERING

  ****  Scalars and arrays  ****
OctLoc.c.b A Datatyp(siz) R M Lvl/name                 OctLoc.c.b A Datatyp(siz) R M Lvl/name

     0-0-0/b BIT               1 SEMANTIC_ORDERING

  ****  Section 020 LblCom ERR_SEV
PL6.E3A0      #003=OUTPUT_BASIS File=LR_ERRPTH.:Z8A6TSI                          SAT 08/09/97 09:28 Page:76

  ****  Scalars and arrays  ****
OctLoc.c.b A Datatyp(siz) R M Lvl/name                 OctLoc.c.b A Datatyp(siz) R M Lvl/name

     0-0-0/w SBIN              1 ERR_SEV

  ****  Section 021 LblCom SET_LENGTHB

  ****  Scalars and arrays  ****
OctLoc.c.b A Datatyp(siz) R M Lvl/name                 OctLoc.c.b A Datatyp(siz) R M Lvl/name

     0-0-0/w SBIN              1 SET_LENGTHB

  ****  Section 022 LblCom SET_LENGTHW

  ****  Scalars and arrays  ****
OctLoc.c.b A Datatyp(siz) R M Lvl/name                 OctLoc.c.b A Datatyp(siz) R M Lvl/name

     0-0-0/w SBIN              1 SET_LENGTHW

  ****  Section 023 LblCom EOF_SYMBOL_PTR

  ****  Scalars and arrays  ****
OctLoc.c.b A Datatyp(siz) R M Lvl/name                 OctLoc.c.b A Datatyp(siz) R M Lvl/name

     0-0-0/w PTR               1 EOF_SYMBOL_PTR

  ****  Section 024 LblCom ERROR_SYMBOL_PTR

  ****  Scalars and arrays  ****
OctLoc.c.b A Datatyp(siz) R M Lvl/name                 OctLoc.c.b A Datatyp(siz) R M Lvl/name

     0-0-0/w PTR               1 ERROR_SYMBOL_PTR

  ****  Section 025 LblCom BOF_SYMBOL_PTR

  ****  Scalars and arrays  ****
PL6.E3A0      #003=OUTPUT_BASIS File=LR_ERRPTH.:Z8A6TSI                          SAT 08/09/97 09:28 Page:77
OctLoc.c.b A Datatyp(siz) R M Lvl/name                 OctLoc.c.b A Datatyp(siz) R M Lvl/name

     0-0-0/w PTR               1 BOF_SYMBOL_PTR

  ****  Section 026 LblCom OPTIONS

  ****  Scalars and arrays  ****
OctLoc.c.b A Datatyp(siz) R M Lvl/name                 OctLoc.c.b A Datatyp(siz) R M Lvl/name

     0-0-0/b BIT               1 OPTIONS(0:25)

  ****  Section 027 LblCom OPTIONS_TEXT

  ****  Scalars and arrays  ****
OctLoc.c.b A Datatyp(siz) R M Lvl/name                 OctLoc.c.b A Datatyp(siz) R M Lvl/name

     0-0-0/c CHAR(4)           1 OPTIONS_TEXT(0:25)

  ****  Section 028 LblCom INSTR

  ****  Scalars and arrays  ****
OctLoc.c.b A Datatyp(siz) R M Lvl/name                 OctLoc.c.b A Datatyp(siz) R M Lvl/name

     0-0-0/c CHAR              1 INSTR(0:511)               0-0-0/c CHAR(512)         1 INSTRCHR

  ****  Section 029 LblCom INSTR_LISTED

  ****  Scalars and arrays  ****
OctLoc.c.b A Datatyp(siz) R M Lvl/name                 OctLoc.c.b A Datatyp(siz) R M Lvl/name

     0-0-0/b BIT               1 INSTR_LISTED

  ****  Section 030 LblCom INSTR_LEN

  ****  Scalars and arrays  ****
OctLoc.c.b A Datatyp(siz) R M Lvl/name                 OctLoc.c.b A Datatyp(siz) R M Lvl/name

PL6.E3A0      #003=OUTPUT_BASIS File=LR_ERRPTH.:Z8A6TSI                          SAT 08/09/97 09:28 Page:78
     0-0-0/w SBIN              1 INSTR_LEN

  ****  Section 031 LblCom INSTR_INDX

  ****  Scalars and arrays  ****
OctLoc.c.b A Datatyp(siz) R M Lvl/name                 OctLoc.c.b A Datatyp(siz) R M Lvl/name

     0-0-0/w SBIN              1 INSTR_INDX

  ****  Section 032 LblCom EOF_FLAG

  ****  Scalars and arrays  ****
OctLoc.c.b A Datatyp(siz) R M Lvl/name                 OctLoc.c.b A Datatyp(siz) R M Lvl/name

     0-0-0/b BIT               1 EOF_FLAG

  ****  Section 033 LblCom KEY_REC

  ****  Scalars and arrays  ****
OctLoc.c.b A Datatyp(siz) R M Lvl/name                 OctLoc.c.b A Datatyp(siz) R M Lvl/name

     0-0-0/c CHAR(10)          1 KEY_REC

  ****  Section 034 LblCom LINE

  ****  Scalars and arrays  ****
OctLoc.c.b A Datatyp(siz) R M Lvl/name                 OctLoc.c.b A Datatyp(siz) R M Lvl/name

     0-0-0/c CHAR(109)         1 LINE

  ****  Section 035 LblCom LINELEN

  ****  Scalars and arrays  ****
OctLoc.c.b A Datatyp(siz) R M Lvl/name                 OctLoc.c.b A Datatyp(siz) R M Lvl/name

     0-0-0/w SBIN              1 LINELEN

PL6.E3A0      #003=OUTPUT_BASIS File=LR_ERRPTH.:Z8A6TSI                          SAT 08/09/97 09:28 Page:79
  ****  Section 036 LblCom TSTATS

  ****  Scalars and arrays  ****
OctLoc.c.b A Datatyp(siz) R M Lvl/name                 OctLoc.c.b A Datatyp(siz) R M Lvl/name

     0-0-0/w STRC(7380)  r     1 TSTATS

  ****  Section 037 LblCom C#_TO_$

  ****  Scalars and arrays  ****
OctLoc.c.b A Datatyp(siz) R M Lvl/name                 OctLoc.c.b A Datatyp(siz) R M Lvl/name

     0-0-0/w PTR         r     1 C#_TO_$(0:2200)

  ****  Section 038 LblCom NR_CONFIG

  ****  Scalars and arrays  ****
OctLoc.c.b A Datatyp(siz) R M Lvl/name                 OctLoc.c.b A Datatyp(siz) R M Lvl/name

     0-0-0/w SBIN              1 NR_CONFIG

  ****  Section 039 LblCom INIT_CONFIG

  ****  Scalars and arrays  ****
OctLoc.c.b A Datatyp(siz) R M Lvl/name                 OctLoc.c.b A Datatyp(siz) R M Lvl/name

     0-0-0/w SBIN              1 INIT_CONFIG

  ****  Section 040 LblCom MAX_BASIS_ITEMS

  ****  Scalars and arrays  ****
OctLoc.c.b A Datatyp(siz) R M Lvl/name                 OctLoc.c.b A Datatyp(siz) R M Lvl/name

     0-0-0/w SBIN              1 MAX_BASIS_ITEMS

  ****  Section 041 LblCom MAX_TOTAL_ITEMS

PL6.E3A0      #003=OUTPUT_BASIS File=LR_ERRPTH.:Z8A6TSI                          SAT 08/09/97 09:28 Page:80
  ****  Scalars and arrays  ****
OctLoc.c.b A Datatyp(siz) R M Lvl/name                 OctLoc.c.b A Datatyp(siz) R M Lvl/name

     0-0-0/w SBIN              1 MAX_TOTAL_ITEMS

  ****  Section 042 LblCom LAST_BINSRCH_ONLY

  ****  Scalars and arrays  ****
OctLoc.c.b A Datatyp(siz) R M Lvl/name                 OctLoc.c.b A Datatyp(siz) R M Lvl/name

     0-0-0/w SBIN              1 LAST_BINSRCH_ONLY

  ****  Section 043 LblCom LAST_BOTH_BITBIN

  ****  Scalars and arrays  ****
OctLoc.c.b A Datatyp(siz) R M Lvl/name                 OctLoc.c.b A Datatyp(siz) R M Lvl/name

     0-0-0/w SBIN              1 LAST_BOTH_BITBIN

  ****  Section 044 LblCom GARBAGE

  ****  Scalars and arrays  ****
OctLoc.c.b A Datatyp(siz) R M Lvl/name                 OctLoc.c.b A Datatyp(siz) R M Lvl/name

     0-0-0/w PTR               1 GARBAGE(0:100)

  ****  Section 045 LblCom AMT_GARBAGE

  ****  Scalars and arrays  ****
OctLoc.c.b A Datatyp(siz) R M Lvl/name                 OctLoc.c.b A Datatyp(siz) R M Lvl/name

     0-0-0/w SBIN              1 AMT_GARBAGE

  ****  Section 046 LblCom LEAST_COST_STRING

  ****  Scalars and arrays  ****
OctLoc.c.b A Datatyp(siz) R M Lvl/name                 OctLoc.c.b A Datatyp(siz) R M Lvl/name
PL6.E3A0      #003=OUTPUT_BASIS File=LR_ERRPTH.:Z8A6TSI                          SAT 08/09/97 09:28 Page:81

     0-0-0/w PTR               1 LEAST_COST_STRING(0:1400)

  ****  Section 047 LblCom LEAST_COST_PREFIX

  ****  Scalars and arrays  ****
OctLoc.c.b A Datatyp(siz) R M Lvl/name                 OctLoc.c.b A Datatyp(siz) R M Lvl/name

     0-0-0/w PTR               1 LEAST_COST_PREFIX(0:1400)

  ****  Section 048 LblCom CURRE

  ****  Scalars and arrays  ****
OctLoc.c.b A Datatyp(siz) R M Lvl/name                 OctLoc.c.b A Datatyp(siz) R M Lvl/name

     0-0-0/d STRC(126)         1 CURRE(0:1400)

  ****  Section 049 LblCom LCP_INDX

  ****  Scalars and arrays  ****
OctLoc.c.b A Datatyp(siz) R M Lvl/name                 OctLoc.c.b A Datatyp(siz) R M Lvl/name

     0-0-0/h SBIN(18)          1 LCP_INDX(0:1400)

  ****  Section 050 LblCom COM_STRSP_LEN

  ****  Scalars and arrays  ****
OctLoc.c.b A Datatyp(siz) R M Lvl/name                 OctLoc.c.b A Datatyp(siz) R M Lvl/name

     0-0-0/w SBIN        r     1 COM_STRSP_LEN

  ****  Section 051 LblCom COM_SEARCH_STRING

  ****  Scalars and arrays  ****
OctLoc.c.b A Datatyp(siz) R M Lvl/name                 OctLoc.c.b A Datatyp(siz) R M Lvl/name

     0-0-0/w PTR         r     1 COM_SEARCH_STRING
PL6.E3A0      #003=OUTPUT_BASIS File=LR_ERRPTH.:Z8A6TSI                          SAT 08/09/97 09:28 Page:82

  ****  Section 052 LblCom COM_SEARCH_STRING_LEN

  ****  Scalars and arrays  ****
OctLoc.c.b A Datatyp(siz) R M Lvl/name                 OctLoc.c.b A Datatyp(siz) R M Lvl/name

     0-0-0/w SBIN        r     1 COM_SEARCH_STRING_LEN

  ****  Section 053 LblCom COM_STRING_SPACE_LEN

  ****  Scalars and arrays  ****
OctLoc.c.b A Datatyp(siz) R M Lvl/name                 OctLoc.c.b A Datatyp(siz) R M Lvl/name

     0-0-0/w SBIN        r     1 COM_STRING_SPACE_LEN

  ****  Section 054 LblCom COM_STRING_SPACE_H

  ****  Scalars and arrays  ****
OctLoc.c.b A Datatyp(siz) R M Lvl/name                 OctLoc.c.b A Datatyp(siz) R M Lvl/name

     0-0-0/h SBIN(18)    r     1 COM_STRING_SPACE_H(0:24999)

  ****  Section 055 LblCom COM_STRING_SPACE$

  ****  Scalars and arrays  ****
OctLoc.c.b A Datatyp(siz) R M Lvl/name                 OctLoc.c.b A Datatyp(siz) R M Lvl/name

     0-0-0/w PTR         r     1 COM_STRING_SPACE$

  ****  Section 056 LblCom COM_STRING_PTR

  ****  Scalars and arrays  ****
OctLoc.c.b A Datatyp(siz) R M Lvl/name                 OctLoc.c.b A Datatyp(siz) R M Lvl/name

     0-0-0/w PTR         r     1 COM_STRING_PTR

  ****  Section 057 LblCom COM_STRING_INDX
PL6.E3A0      #003=OUTPUT_BASIS File=LR_ERRPTH.:Z8A6TSI                          SAT 08/09/97 09:28 Page:83

  ****  Scalars and arrays  ****
OctLoc.c.b A Datatyp(siz) R M Lvl/name                 OctLoc.c.b A Datatyp(siz) R M Lvl/name

     0-0-0/w SBIN        r     1 COM_STRING_INDX

  ****  Section 058 LblCom LCP_TABLE_LEN

  ****  Scalars and arrays  ****
OctLoc.c.b A Datatyp(siz) R M Lvl/name                 OctLoc.c.b A Datatyp(siz) R M Lvl/name

     0-0-0/w SBIN              1 LCP_TABLE_LEN

  ****  Section 059 LblCom STATE_ITEM_INDEX

  ****  Scalars and arrays  ****
OctLoc.c.b A Datatyp(siz) R M Lvl/name                 OctLoc.c.b A Datatyp(siz) R M Lvl/name

     0-0-0/h STRC        r     1 STATE_ITEM_INDEX(0:2200)

  ****  Section 060 LblCom PATH

  ****  Scalars and arrays  ****
OctLoc.c.b A Datatyp(siz) R M Lvl/name                 OctLoc.c.b A Datatyp(siz) R M Lvl/name

     0-0-0/h STRC        r     1 PATH(0:17600)

  ****  Section 061 LblCom PATH_STRINGS_LEN

  ****  Scalars and arrays  ****
OctLoc.c.b A Datatyp(siz) R M Lvl/name                 OctLoc.c.b A Datatyp(siz) R M Lvl/name

     0-0-0/w SBIN        r     1 PATH_STRINGS_LEN

  ****  Section 062 LblCom PATH_ADDR$

  ****  Scalars and arrays  ****
PL6.E3A0      #003=OUTPUT_BASIS File=LR_ERRPTH.:Z8A6TSI                          SAT 08/09/97 09:28 Page:84
OctLoc.c.b A Datatyp(siz) R M Lvl/name                 OctLoc.c.b A Datatyp(siz) R M Lvl/name

     0-0-0/w PTR         r     1 PATH_ADDR$

  ****  Section 063 LblCom PATH_TABLE_LEN

  ****  Scalars and arrays  ****
OctLoc.c.b A Datatyp(siz) R M Lvl/name                 OctLoc.c.b A Datatyp(siz) R M Lvl/name

     0-0-0/w SBIN        r     1 PATH_TABLE_LEN

  ****  Section 064 LblCom EDGECOST

  ****  Scalars and arrays  ****
OctLoc.c.b A Datatyp(siz) R M Lvl/name                 OctLoc.c.b A Datatyp(siz) R M Lvl/name

     0-0-0/w SBIN              1 EDGECOST(0:400)

  ****  Section 065 LblCom ITEM_TABLE_LEN

  ****  Scalars and arrays  ****
OctLoc.c.b A Datatyp(siz) R M Lvl/name                 OctLoc.c.b A Datatyp(siz) R M Lvl/name

     0-0-0/w SBIN        r     1 ITEM_TABLE_LEN

  ****  Section 066 LblCom ORDERED_ITEM

  ****  Scalars and arrays  ****
OctLoc.c.b A Datatyp(siz) R M Lvl/name                 OctLoc.c.b A Datatyp(siz) R M Lvl/name

     0-0-0/h STRC        r     1 ORDERED_ITEM(0:400)

  ****  Section 067 LblCom NEIGHBOR

  ****  Scalars and arrays  ****
OctLoc.c.b A Datatyp(siz) R M Lvl/name                 OctLoc.c.b A Datatyp(siz) R M Lvl/name

PL6.E3A0      #003=OUTPUT_BASIS File=LR_ERRPTH.:Z8A6TSI                          SAT 08/09/97 09:28 Page:85
     0-0-0/w SBIN              1 NEIGHBOR(0:400)

  ****  Section 068 LblCom PATH_INFO

  ****  Scalars and arrays  ****
OctLoc.c.b A Datatyp(siz) R M Lvl/name                 OctLoc.c.b A Datatyp(siz) R M Lvl/name

     0-0-0/w STRC(28872)       1 PATH_INFO

  ****  Section 069 LblCom CHOSEN

  ****  Scalars and arrays  ****
OctLoc.c.b A Datatyp(siz) R M Lvl/name                 OctLoc.c.b A Datatyp(siz) R M Lvl/name

     0-0-0/w BIT               1 CHOSEN(0:400)

  ****  Section 070 LblCom REACHED

  ****  Scalars and arrays  ****
OctLoc.c.b A Datatyp(siz) R M Lvl/name                 OctLoc.c.b A Datatyp(siz) R M Lvl/name

     0-0-0/b BIT               1 REACHED(0:400)

  ****  Section 071 LblCom EXP_PATH_INDX

  ****  Scalars and arrays  ****
OctLoc.c.b A Datatyp(siz) R M Lvl/name                 OctLoc.c.b A Datatyp(siz) R M Lvl/name

     0-0-0/w SBIN              1 EXP_PATH_INDX

  ****  BASED and DCB variables  ****

  ****  Scalars and arrays  ****
OctLoc.c.b A Datatyp(siz) R M Lvl/name                 OctLoc.c.b A Datatyp(siz) R M Lvl/name

     0-0-0/w STRC(72)          1 CELL                       0-0-0/c ACHR        r     1 COM_STRINGS
     0-0-0/c ACHR        r     1 COM_STRING_SPACE           0-0-0/c ACHR        r     1 CSEARCH_STRING
PL6.E3A0      #003=OUTPUT_BASIS File=LR_ERRPTH.:Z8A6TSI                          SAT 08/09/97 09:28 Page:86
     0-0-0/w STRC(57888) r     1 C_SET_B                    0-0-0/w STRC(72)          1 INCLUDES_B
     0-0-0/w STRC(144)         1 INCL_B                     0-0-0/w STRC(5436)  r     1 ITEM_B
     0-0-0/w STRC(5652)  r     1 KEY_B                      0-0-0N  NULL        r     1 M$LO
     0-0-0N  NULL        r     1 M$OU                       0-0-0N  NULL        r     1 M$SI
     0-0-0N  NULL        r     1 M$SO                       0-0-0N  NULL        r     1 M$UI
     0-0-0/c ACHR              1 PATH_STRINGS               0-0-0/w STRC(90)          1 PREFIX
     0-0-0/w ASTR(72)    r     1 PREFIXCHR                  0-0-0/w STRC              1 STRING
     0-0-0/w ASTR(18)    r     1 STRINGCHR                  0-0-0/w STRC(351)         1 SYMBOL


   Procedure OUTPUT_BASIS requires 322 words for executable code.
   Procedure OUTPUT_BASIS is declared NOAUTO and requires 12 words of local(STATIC) storage.

PL6.E3A0      #004=FINDEDGECOSTS File=LR_ERRPTH.:Z8A6TSI                         SAT 08/09/97 09:28 Page:87
      225        1        /*T***********************************************************/
      226        2        /*T*                                                         */
      227        3        /*T* Copyright (c) Bull HN Information Systems Inc., 1997    */
      228        4        /*T*                                                         */
      229        5        /*T***********************************************************/
      230        6        FINDEDGECOSTS : PROC (STATE) NOAUTO;
      231        7
      232        8        /*D*
      233        9               NAME: FINDEDGECOSTS
      234       10            PURPOSE: COMPUTE THE COSTS OF EDGES IN THE CLOSURE GRAPH FOR
      235       11                     EACH STATE.
      236       12        */
      237       13
      238       14    1   DCL STATE SBIN WORD;
      239       15
      240       16        %INCLUDE LR_GRAM_EXT;
      241      555        %INCLUDE LR_CNFG_EXT;
      242      708        %INCLUDE LR_ERR_EXT;
      243      851
      244      852    1   DCL ITEM SBIN WORD;
      245      853    1   DCL RP   SBIN WORD;
      246      854    1   DCL E    SBIN WORD;
      247      855    1   DCL I    SBIN WORD;
      248      856    1   DCL P    SBIN WORD;
      249      857    1   DCL DP   SBIN WORD;
      250      858
      251      859
      252      860    2   DO E = 0 TO C#_TO_$(STATE) -> C_SET_B.NR_ELEM - 1;
      253      861
      254      862    3     DO I = 0 TO C#_TO_$(STATE) -> C_SET_B.ELEM.KEY$(E) -> KEY_B.W.ELEM_COUNT - 1;
      255      863
      256      864    3       ITEM = C#_TO_$(STATE) -> C_SET_B.ELEM.ITEM$(E) -> ITEM_B.ELEM.ITEM#(I);
      257      865
      258      866    3       EDGECOST(ITEM) = 0;
      259      867    3       P = C#_TO_$(STATE) -> C_SET_B.ELEM.KEY$(E) -> KEY_B.ELEM.PROD(I);
      260      868    3       DP = C#_TO_$(STATE) -> C_SET_B.ELEM.KEY$(E) -> KEY_B.ELEM.DOT_POS(I) + 1;
      261      869
PL6.E3A0      #004=FINDEDGECOSTS File=LR_ERRPTH.:Z8A6TSI                         SAT 08/09/97 09:28 Page:88
      262      870    4       DO RP = PROD.RIGHT_START(P) + DP TO PROD.RIGHT_START(P) + PROD.RIGHT_CNT(P) - 1;
      263      871
      264      872    4       IF SYM_PTRS(RIGHT_PARTS(RP)) = EOF_SYMBOL_PTR THEN
      265      873    4         EDGECOST(ITEM) = EDGECOST(ITEM) + (SYM_PTRS(RIGHT_PARTS(RP))
      266      874    4                                               ->SYMBOL.COST.INS / 2);
      267      875    4       ELSE
      268      876    4         EDGECOST(ITEM) = EDGECOST(ITEM) + SYM_PTRS(RIGHT_PARTS(RP)) -> SYMBOL.COST.INS
               876                  ;
      269      877
      270      878    4       END;
      271      879
      272      880    3     END;
      273      881
      274      882    2   END;
      275      883
      276      884    1   END FINDEDGECOSTS;
      277      885        %EOD;

PL6.E3A0      #004=FINDEDGECOSTS File=LR_ERRPTH.:Z8A6TSI                         SAT 08/09/97 09:28 Page:89
--  Include file information  --

   LR_ERR_EXT.:Z8A6TOU  cannot be made into a system file and is referenced.
   LR_CNFG_EXT.:Z8A6TOU  cannot be made into a system file and is referenced.
   LR_IO_EXT.:Z8A6TOU  cannot be made into a system file and is referenced.
   LR_GRAM_EXT.:Z8A6TOU  cannot be made into a system file and is referenced.
      No diagnostics issued in procedure FINDEDGECOSTS.

   Procedure FINDEDGECOSTS requires 106 words for executable code.
   Procedure FINDEDGECOSTS is declared NOAUTO and requires 10 words of local(STATIC) storage.

PL6.E3A0      #004=FINDEDGECOSTS File=LR_ERRPTH.:Z8A6TSI                         SAT 08/09/97 09:28 Page:90

 Object Unit name= FINDEDGECOSTS                              File name= LR_ERRPTH.:Z8A6TOU
 UTS= AUG 09 '97 09:28:53.92 SAT                              Compiler= PL-6/E31         Sev=      00
 SharedLib= :SHARED_SYSTEM                                    Alt SharedLib=


    ****  Control sections  ****

 Sect   Type Bound  Init  Size OctSiz  Section name(segment info)
    0   Data  even  none    10     12  FINDEDGECOSTS
    1  LblCom even  none     1      1  OUT_DCBN
    2   DCB   even  none     0      0  M$OU
    3   DCB   even  none     0      0  M$SO
    4   DCB   even  none     0      0  M$LO
    5   DCB   even  none     0      0  M$SI
    6   DCB   even  none     0      0  M$UI
    7  LblCom even  none  1401   2571  SYM_PTRS
    8  LblCom even  none  4001   7641  RIGHT_PARTS
    9  LblCom even  none  3002   5672  PROD
   10  LblCom even  none     1      1  NR_PROD
   11  LblCom even  none     1      1  NR_SYMS
   12  LblCom even  none     1      1  NR_TERM
   13  LblCom even  none     1      1  LAST_ACT
   14  LblCom even  none     1      1  LAST_NULL
   15  LblCom even  none     1      1  NR_ONRIGHT
   16  LblCom even  none     1      1  NR_NT
   17  LblCom even  none     1      1  PROD_LEN_MAX_EVER
   18  LblCom even  none     1      1  LAST_ORDER_SPECIFIED
   19  LblCom even  none     1      1  SEMANTIC_ORDERING
   20  LblCom even  none     1      1  ERR_SEV
   21  LblCom even  none     1      1  SET_LENGTHB
   22  LblCom even  none     1      1  SET_LENGTHW
   23  LblCom even  none     1      1  EOF_SYMBOL_PTR
   24  LblCom even  none     1      1  ERROR_SYMBOL_PTR
   25  LblCom even  none     1      1  BOF_SYMBOL_PTR
   26  LblCom even  none     1      1  OPTIONS
   27  LblCom even  none    26     32  OPTIONS_TEXT
   28  LblCom even  none   128    200  INSTR
PL6.E3A0      #004=FINDEDGECOSTS File=LR_ERRPTH.:Z8A6TSI                         SAT 08/09/97 09:28 Page:91
   29  LblCom even  none     1      1  INSTR_LISTED
   30  LblCom even  none     1      1  INSTR_LEN
   31  LblCom even  none     1      1  INSTR_INDX
   32  LblCom even  none     1      1  EOF_FLAG
   33  LblCom even  none     3      3  KEY_REC
   34  LblCom even  none    28     34  LINE
   35  LblCom even  none     1      1  LINELEN
   36  LblCom even  none   205    315  TSTATS
   37  LblCom even  none  2201   4231  C#_TO_$
   38  LblCom even  none     1      1  NR_CONFIG
   39  LblCom even  none     1      1  INIT_CONFIG
   40  LblCom even  none     1      1  MAX_BASIS_ITEMS
   41  LblCom even  none     1      1  MAX_TOTAL_ITEMS
   42  LblCom even  none     1      1  LAST_BINSRCH_ONLY
   43  LblCom even  none     1      1  LAST_BOTH_BITBIN
   44  LblCom even  none   101    145  GARBAGE
   45  LblCom even  none     1      1  AMT_GARBAGE
   46  LblCom even  none  1401   2571  LEAST_COST_STRING
   47  LblCom even  none  1401   2571  LEAST_COST_PREFIX
   48  LblCom even  none  5604  12744  CURRE
   49  LblCom even  none   701   1275  LCP_INDX
   50  LblCom even  none     1      1  COM_STRSP_LEN
   51  LblCom even  none     1      1  COM_SEARCH_STRING
   52  LblCom even  none     1      1  COM_SEARCH_STRING_LEN
   53  LblCom even  none     1      1  COM_STRING_SPACE_LEN
   54  LblCom even  none 12500  30324  COM_STRING_SPACE_H
   55  LblCom even  none     1      1  COM_STRING_SPACE$
   56  LblCom even  none     1      1  COM_STRING_PTR
   57  LblCom even  none     1      1  COM_STRING_INDX
   58  LblCom even  none     1      1  LCP_TABLE_LEN
   59  LblCom even  none  2201   4231  STATE_ITEM_INDEX
   60  LblCom even  none 17601  42301  PATH
   61  LblCom even  none     1      1  PATH_STRINGS_LEN
   62  LblCom even  none     1      1  PATH_ADDR$
   63  LblCom even  none     1      1  PATH_TABLE_LEN
   64  LblCom even  none   401    621  EDGECOST
   65  LblCom even  none     1      1  ITEM_TABLE_LEN
PL6.E3A0      #004=FINDEDGECOSTS File=LR_ERRPTH.:Z8A6TSI                         SAT 08/09/97 09:28 Page:92
   66  LblCom even  none   401    621  ORDERED_ITEM
   67  LblCom even  none   401    621  NEIGHBOR
   68  LblCom even  none   802   1442  PATH_INFO
   69  LblCom even  none   401    621  CHOSEN
   70  LblCom even  none    12     14  REACHED
   71  LblCom even  none     1      1  EXP_PATH_INDX
   72   Proc  even  none   106    152  FINDEDGECOSTS

    ****  Entry defs  ****

                              Check   Calling
                             calling  sequence
  Sect OctLoc Primary Altret sequence   type   Parms  Name
    72      0   yes            yes      Std        1  FINDEDGECOSTS

  ****  Entry refs  ****

         Check        Calling
        calling       sequence
Altret sequence SRef   type   Args  Name
                       nStd      0 X66_STATIC_1

  ****  Data refs  ****

  Flags:  r = read only, s = secondary
Flgs Name                             Flgs Name                             Flgs Name
     M$OU                                  M$SO                                  M$LO
     M$SI                                  M$UI

  ****  Segment refs  ****

  Flags:  r = read only, s = secondary
Flgs Name                             Flgs Name                             Flgs Name
     NULLSID                               ISSID
PL6.E3A0      #004=FINDEDGECOSTS File=LR_ERRPTH.:Z8A6TSI                         SAT 08/09/97 09:28 Page:93


      225        1        /*T***********************************************************/
      226        2        /*T*                                                         */
      227        3        /*T* Copyright (c) Bull HN Information Systems Inc., 1997    */
      228        4        /*T*                                                         */
      229        5        /*T***********************************************************/
      230        6        FINDEDGECOSTS : PROC (STATE) NOAUTO;

      6 72 000000   000000 700200 xent  FINDEDGECOS* TSX0  ! X66_STATIC_1
        72 000001   000000 000001 0                  ZERO    0,1

      231        7
      232        8        /*D*
      233        9               NAME: FINDEDGECOSTS
      234       10            PURPOSE: COMPUTE THE COSTS OF EDGES IN THE CLOSURE GRAPH FOR
      235       11                     EACH STATE.
      236       12        */
      237       13
      238       14    1   DCL STATE SBIN WORD;
      239       15
      240       16        %INCLUDE LR_GRAM_EXT;
      241      555        %INCLUDE LR_CNFG_EXT;
      242      708        %INCLUDE LR_ERR_EXT;
      243      851
      244      852    1   DCL ITEM SBIN WORD;
      245      853    1   DCL RP   SBIN WORD;
      246      854    1   DCL E    SBIN WORD;
      247      855    1   DCL I    SBIN WORD;
      248      856    1   DCL P    SBIN WORD;
      249      857    1   DCL DP   SBIN WORD;
      250      858
      251      859
      252      860    2   DO E = 0 TO C#_TO_$(STATE) -> C_SET_B.NR_ELEM - 1;

    860 72 000002   000004 450000 0                  STZ     E
        72 000003   000141 710000 72                 TRA     s:882+1

PL6.E3A0      #004=FINDEDGECOSTS File=LR_ERRPTH.:Z8A6TSI                         SAT 08/09/97 09:28 Page:94
      253      861
      254      862    3     DO I = 0 TO C#_TO_$(STATE) -> C_SET_B.ELEM.KEY$(E) -> KEY_B.W.ELEM_COUNT - 1;

    862 72 000004   000005 450000 0                  STZ     I
        72 000005   000125 710000 72                 TRA     s:880+1

      255      863
      256      864    3       ITEM = C#_TO_$(STATE) -> C_SET_B.ELEM.ITEM$(E) -> ITEM_B.ELEM.ITEM#(I);

    864 72 000006   000001 470400 0                  LDP0    @STATE
        72 000007   000000 720100                    LXL0    0,,PR0
        72 000010   000000 471410 37                 LDP1    C#_TO_$,X0
        72 000011   000004 235000 0                  LDA     E
        72 000012   000002 735000                    ALS     2
        72 000013   100006 473505                    LDP3    6,AL,PR1
        72 000014   000005 720000 0                  LXL0    I
        72 000015   300000 236110                    LDQ     0,X0,PR3
        72 000016   000022 732000                    QRS     18
        72 000017   000002 756000 0                  STQ     ITEM

      257      865
      258      866    3       EDGECOST(ITEM) = 0;

    866 72 000020   000000 450006 64                 STZ     EDGECOST,QL

      259      867    3       P = C#_TO_$(STATE) -> C_SET_B.ELEM.KEY$(E) -> KEY_B.ELEM.PROD(I);

    867 72 000021   000000 721100                    LXL1    0,,PR0
        72 000022   000000 471411 37                 LDP1    C#_TO_$,X1
        72 000023   100004 473505                    LDP3    4,AL,PR1
        72 000024   300006 236110                    LDQ     6,X0,PR3
        72 000025   000022 772000                    QRL     18
        72 000026   000006 756000 0                  STQ     P

      260      868    3       DP = C#_TO_$(STATE) -> C_SET_B.ELEM.KEY$(E) -> KEY_B.ELEM.DOT_POS(I) + 1;

    868 72 000027   000000 721100                    LXL1    0,,PR0
PL6.E3A0      #004=FINDEDGECOSTS File=LR_ERRPTH.:Z8A6TSI                         SAT 08/09/97 09:28 Page:95
        72 000030   000000 471411 37                 LDP1    C#_TO_$,X1
        72 000031   100004 473505                    LDP3    4,AL,PR1
        72 000032   300006 236110                    LDQ     6,X0,PR3
        72 000033   777777 376007                    ANQ     -1,DL
        72 000034   000001 036007                    ADLQ    1,DL
        72 000035   000007 756000 0                  STQ     DP

      261      869
      262      870    4      DO RP = PROD.RIGHT_START(P) + DP TO PROD.RIGHT_START(P) + PROD.RIGHT_CNT(P) - 1;

    870 72 000036   000006 235000 0                  LDA     P
        72 000037   000001 735000                    ALS     1
        72 000040   000001 236005 9                  LDQ     PROD+1,AL
        72 000041   000022 736000                    QLS     18
        72 000042   000022 732000                    QRS     18
        72 000043   000007 036000 0                  ADLQ    DP
        72 000044   000003 756000 0                  STQ     RP
        72 000045   000111 710000 72                 TRA     s:878+1

      263      871
      264      872    4       IF SYM_PTRS(RIGHT_PARTS(RP)) = EOF_SYMBOL_PTR THEN

    872 72 000046   000003 235000 0                  LDA     RP
        72 000047   000001 735000                    ALS     1
        72 000050   000000 100405                    MLR     fill='000'O
        72 000051   000000 000002 8                  ADSC9   RIGHT_PARTS,A            cn=0,n=2
        72 000052   000010 000004 0                  ADSC9   DP+1                     cn=0,n=4
        72 000053   000010 236000 0                  LDQ     DP+1
        72 000054   000022 732000                    QRS     18
        72 000055   000000 236006 7                  LDQ     SYM_PTRS,QL
        72 000056   000000 116000 23                 CMPQ    EOF_SYMBOL_PTR
        72 000057   000075 601000 72                 TNZ     s:876

      265      873    4         EDGECOST(ITEM) = EDGECOST(ITEM) + (SYM_PTRS(RIGHT_PARTS(RP))

    873 72 000060   000000 100405                    MLR     fill='000'O
        72 000061   000000 000002 8                  ADSC9   RIGHT_PARTS,A            cn=0,n=2
PL6.E3A0      #004=FINDEDGECOSTS File=LR_ERRPTH.:Z8A6TSI                         SAT 08/09/97 09:28 Page:96
        72 000062   000010 000004 0                  ADSC9   DP+1                     cn=0,n=4
        72 000063   000010 236000 0                  LDQ     DP+1
        72 000064   000022 732000                    QRS     18
        72 000065   000000 470406 7                  LDP0    SYM_PTRS,QL
        72 000066   000005 236100                    LDQ     5,,PR0
        72 000067   000022 732000                    QRS     18
        72 000070   000002 506007                    DIV     2,DL
        72 000071   000002 720000 0                  LXL0    ITEM
        72 000072   000000 036010 64                 ADLQ    EDGECOST,X0
        72 000073   000000 756010 64                 STQ     EDGECOST,X0
        72 000074   000110 710000 72                 TRA     s:878

      266      874    4                                               ->SYMBOL.COST.INS / 2);
      267      875    4       ELSE
      268      876    4        EDGECOST(ITEM) = EDGECOST(ITEM) + SYM_PTRS(RIGHT_PARTS(RP)) -> SYMBOL.COST.INS
               876                  ;

    876 72 000075   000000 100405                    MLR     fill='000'O
        72 000076   000000 000002 8                  ADSC9   RIGHT_PARTS,A            cn=0,n=2
        72 000077   000010 000004 0                  ADSC9   DP+1                     cn=0,n=4
        72 000100   000010 236000 0                  LDQ     DP+1
        72 000101   000022 732000                    QRS     18
        72 000102   000000 470406 7                  LDP0    SYM_PTRS,QL
        72 000103   000002 720000 0                  LXL0    ITEM
        72 000104   000005 236100                    LDQ     5,,PR0
        72 000105   000022 732000                    QRS     18
        72 000106   000000 036010 64                 ADLQ    EDGECOST,X0
        72 000107   000000 756010 64                 STQ     EDGECOST,X0

      269      877
      270      878    4       END;

    878 72 000110   000003 054000 0                  AOS     RP
        72 000111   000006 235000 0                  LDA     P
        72 000112   000001 735000                    ALS     1
        72 000113   000001 236005 9                  LDQ     PROD+1,AL
        72 000114   000022 732000                    QRS     18
PL6.E3A0      #004=FINDEDGECOSTS File=LR_ERRPTH.:Z8A6TSI                         SAT 08/09/97 09:28 Page:97
        72 000115   000010 756000 0                  STQ     DP+1
        72 000116   000001 236005 9                  LDQ     PROD+1,AL
        72 000117   000022 736000                    QLS     18
        72 000120   000022 732000                    QRS     18
        72 000121   000010 036000 0                  ADLQ    DP+1
        72 000122   000003 116000 0                  CMPQ    RP
        72 000123   000046 605400 72                 TPNZ    s:872

      271      879
      272      880    3     END;

    880 72 000124   000005 054000 0                  AOS     I
        72 000125   000001 470400 0                  LDP0    @STATE
        72 000126   000000 720100                    LXL0    0,,PR0
        72 000127   000000 471410 37                 LDP1    C#_TO_$,X0
        72 000130   000004 235000 0                  LDA     E
        72 000131   000002 735000                    ALS     2
        72 000132   100004 473505                    LDP3    4,AL,PR1
        72 000133   300005 236100                    LDQ     5,,PR3
        72 000134   000022 736000                    QLS     18
        72 000135   000022 732000                    QRS     18
        72 000136   000005 116000 0                  CMPQ    I
        72 000137   000006 605400 72                 TPNZ    s:864

      273      881
      274      882    2   END;

    882 72 000140   000004 054000 0                  AOS     E
        72 000141   000001 470400 0                  LDP0    @STATE
        72 000142   000000 720100                    LXL0    0,,PR0
        72 000143   000000 471410 37                 LDP1    C#_TO_$,X0
        72 000144   100001 236100                    LDQ     1,,PR1
        72 000145   777777 376007                    ANQ     -1,DL
        72 000146   000004 116000 0                  CMPQ    E
        72 000147   000004 605400 72                 TPNZ    s:862

      275      883
PL6.E3A0      #004=FINDEDGECOSTS File=LR_ERRPTH.:Z8A6TSI                         SAT 08/09/97 09:28 Page:98
      276      884    1   END FINDEDGECOSTS;

    884 72 000150   000000 221200 0                  LDX1  ! 0
        72 000151   000001 702211                    TSX2  ! 1,X1
      277      885        %EOD;

PL6.E3A0      #004=FINDEDGECOSTS File=LR_ERRPTH.:Z8A6TSI                         SAT 08/09/97 09:28 Page:99
--  Include file information  --

   LR_ERR_EXT.:Z8A6TOU  cannot be made into a system file and is referenced.
   LR_CNFG_EXT.:Z8A6TOU  cannot be made into a system file and is referenced.
   LR_IO_EXT.:Z8A6TOU  cannot be made into a system file and is referenced.
   LR_GRAM_EXT.:Z8A6TOU  cannot be made into a system file and is referenced.
      No diagnostics issued in procedure FINDEDGECOSTS.
PL6.E3A0      #004=FINDEDGECOSTS File=LR_ERRPTH.:Z8A6TSI                         SAT 08/09/97 09:28 Page:100

 **** Variables and constants ****

  ****  Section 000  Data  FINDEDGECOSTS

  ****  Scalars and arrays  ****
OctLoc.c.b A Datatyp(siz) R M Lvl/name                 OctLoc.c.b A Datatyp(siz) R M Lvl/name

     1-0-0/w PTR         r     1 @STATE                     7-0-0/w SBIN        r     1 DP
     4-0-0/w SBIN        r     1 E                          5-0-0/w SBIN        r     1 I
     2-0-0/w SBIN        r     1 ITEM                       6-0-0/w SBIN        r     1 P
     3-0-0/w SBIN        r     1 RP                        *0-0-0/w SBIN        r     1 STATE

  ****  Section 001 LblCom OUT_DCBN

  ****  Scalars and arrays  ****
OctLoc.c.b A Datatyp(siz) R M Lvl/name                 OctLoc.c.b A Datatyp(siz) R M Lvl/name

     0-0-0/w SBIN              1 OUT_DCBN

  ****  Section 007 LblCom SYM_PTRS

  ****  Scalars and arrays  ****
OctLoc.c.b A Datatyp(siz) R M Lvl/name                 OctLoc.c.b A Datatyp(siz) R M Lvl/name

     0-0-0/w PTR         r     1 SYM_PTRS(0:1400)

  ****  Section 008 LblCom RIGHT_PARTS

  ****  Scalars and arrays  ****
OctLoc.c.b A Datatyp(siz) R M Lvl/name                 OctLoc.c.b A Datatyp(siz) R M Lvl/name

     0-0-0/h SBIN(18)    r     1 RIGHT_PARTS(0:8000)

  ****  Section 009 LblCom PROD

  ****  Scalars and arrays  ****
OctLoc.c.b A Datatyp(siz) R M Lvl/name                 OctLoc.c.b A Datatyp(siz) R M Lvl/name
PL6.E3A0      #004=FINDEDGECOSTS File=LR_ERRPTH.:Z8A6TSI                         SAT 08/09/97 09:28 Page:101

     0-0-0/h STRC(72)    r     1 PROD(0:1500)

  ****  Section 010 LblCom NR_PROD

  ****  Scalars and arrays  ****
OctLoc.c.b A Datatyp(siz) R M Lvl/name                 OctLoc.c.b A Datatyp(siz) R M Lvl/name

     0-0-0/w SBIN              1 NR_PROD

  ****  Section 011 LblCom NR_SYMS

  ****  Scalars and arrays  ****
OctLoc.c.b A Datatyp(siz) R M Lvl/name                 OctLoc.c.b A Datatyp(siz) R M Lvl/name

     0-0-0/w SBIN              1 NR_SYMS

  ****  Section 012 LblCom NR_TERM

  ****  Scalars and arrays  ****
OctLoc.c.b A Datatyp(siz) R M Lvl/name                 OctLoc.c.b A Datatyp(siz) R M Lvl/name

     0-0-0/w SBIN              1 NR_TERM

  ****  Section 013 LblCom LAST_ACT

  ****  Scalars and arrays  ****
OctLoc.c.b A Datatyp(siz) R M Lvl/name                 OctLoc.c.b A Datatyp(siz) R M Lvl/name

     0-0-0/w SBIN              1 LAST_ACT

  ****  Section 014 LblCom LAST_NULL

  ****  Scalars and arrays  ****
OctLoc.c.b A Datatyp(siz) R M Lvl/name                 OctLoc.c.b A Datatyp(siz) R M Lvl/name

     0-0-0/w SBIN              1 LAST_NULL
PL6.E3A0      #004=FINDEDGECOSTS File=LR_ERRPTH.:Z8A6TSI                         SAT 08/09/97 09:28 Page:102

  ****  Section 015 LblCom NR_ONRIGHT

  ****  Scalars and arrays  ****
OctLoc.c.b A Datatyp(siz) R M Lvl/name                 OctLoc.c.b A Datatyp(siz) R M Lvl/name

     0-0-0/w SBIN              1 NR_ONRIGHT

  ****  Section 016 LblCom NR_NT

  ****  Scalars and arrays  ****
OctLoc.c.b A Datatyp(siz) R M Lvl/name                 OctLoc.c.b A Datatyp(siz) R M Lvl/name

     0-0-0/w SBIN              1 NR_NT

  ****  Section 017 LblCom PROD_LEN_MAX_EVER

  ****  Scalars and arrays  ****
OctLoc.c.b A Datatyp(siz) R M Lvl/name                 OctLoc.c.b A Datatyp(siz) R M Lvl/name

     0-0-0/w SBIN              1 PROD_LEN_MAX_EVER

  ****  Section 018 LblCom LAST_ORDER_SPECIFIED

  ****  Scalars and arrays  ****
OctLoc.c.b A Datatyp(siz) R M Lvl/name                 OctLoc.c.b A Datatyp(siz) R M Lvl/name

     0-0-0/w SBIN              1 LAST_ORDER_SPECIFIED

  ****  Section 019 LblCom SEMANTIC_ORDERING

  ****  Scalars and arrays  ****
OctLoc.c.b A Datatyp(siz) R M Lvl/name                 OctLoc.c.b A Datatyp(siz) R M Lvl/name

     0-0-0/b BIT               1 SEMANTIC_ORDERING

  ****  Section 020 LblCom ERR_SEV
PL6.E3A0      #004=FINDEDGECOSTS File=LR_ERRPTH.:Z8A6TSI                         SAT 08/09/97 09:28 Page:103

  ****  Scalars and arrays  ****
OctLoc.c.b A Datatyp(siz) R M Lvl/name                 OctLoc.c.b A Datatyp(siz) R M Lvl/name

     0-0-0/w SBIN              1 ERR_SEV

  ****  Section 021 LblCom SET_LENGTHB

  ****  Scalars and arrays  ****
OctLoc.c.b A Datatyp(siz) R M Lvl/name                 OctLoc.c.b A Datatyp(siz) R M Lvl/name

     0-0-0/w SBIN              1 SET_LENGTHB

  ****  Section 022 LblCom SET_LENGTHW

  ****  Scalars and arrays  ****
OctLoc.c.b A Datatyp(siz) R M Lvl/name                 OctLoc.c.b A Datatyp(siz) R M Lvl/name

     0-0-0/w SBIN              1 SET_LENGTHW

  ****  Section 023 LblCom EOF_SYMBOL_PTR

  ****  Scalars and arrays  ****
OctLoc.c.b A Datatyp(siz) R M Lvl/name                 OctLoc.c.b A Datatyp(siz) R M Lvl/name

     0-0-0/w PTR         r     1 EOF_SYMBOL_PTR

  ****  Section 024 LblCom ERROR_SYMBOL_PTR

  ****  Scalars and arrays  ****
OctLoc.c.b A Datatyp(siz) R M Lvl/name                 OctLoc.c.b A Datatyp(siz) R M Lvl/name

     0-0-0/w PTR               1 ERROR_SYMBOL_PTR

  ****  Section 025 LblCom BOF_SYMBOL_PTR

  ****  Scalars and arrays  ****
PL6.E3A0      #004=FINDEDGECOSTS File=LR_ERRPTH.:Z8A6TSI                         SAT 08/09/97 09:28 Page:104
OctLoc.c.b A Datatyp(siz) R M Lvl/name                 OctLoc.c.b A Datatyp(siz) R M Lvl/name

     0-0-0/w PTR               1 BOF_SYMBOL_PTR

  ****  Section 026 LblCom OPTIONS

  ****  Scalars and arrays  ****
OctLoc.c.b A Datatyp(siz) R M Lvl/name                 OctLoc.c.b A Datatyp(siz) R M Lvl/name

     0-0-0/b BIT               1 OPTIONS(0:25)

  ****  Section 027 LblCom OPTIONS_TEXT

  ****  Scalars and arrays  ****
OctLoc.c.b A Datatyp(siz) R M Lvl/name                 OctLoc.c.b A Datatyp(siz) R M Lvl/name

     0-0-0/c CHAR(4)           1 OPTIONS_TEXT(0:25)

  ****  Section 028 LblCom INSTR

  ****  Scalars and arrays  ****
OctLoc.c.b A Datatyp(siz) R M Lvl/name                 OctLoc.c.b A Datatyp(siz) R M Lvl/name

     0-0-0/c CHAR              1 INSTR(0:511)               0-0-0/c CHAR(512)         1 INSTRCHR

  ****  Section 029 LblCom INSTR_LISTED

  ****  Scalars and arrays  ****
OctLoc.c.b A Datatyp(siz) R M Lvl/name                 OctLoc.c.b A Datatyp(siz) R M Lvl/name

     0-0-0/b BIT               1 INSTR_LISTED

  ****  Section 030 LblCom INSTR_LEN

  ****  Scalars and arrays  ****
OctLoc.c.b A Datatyp(siz) R M Lvl/name                 OctLoc.c.b A Datatyp(siz) R M Lvl/name

PL6.E3A0      #004=FINDEDGECOSTS File=LR_ERRPTH.:Z8A6TSI                         SAT 08/09/97 09:28 Page:105
     0-0-0/w SBIN              1 INSTR_LEN

  ****  Section 031 LblCom INSTR_INDX

  ****  Scalars and arrays  ****
OctLoc.c.b A Datatyp(siz) R M Lvl/name                 OctLoc.c.b A Datatyp(siz) R M Lvl/name

     0-0-0/w SBIN              1 INSTR_INDX

  ****  Section 032 LblCom EOF_FLAG

  ****  Scalars and arrays  ****
OctLoc.c.b A Datatyp(siz) R M Lvl/name                 OctLoc.c.b A Datatyp(siz) R M Lvl/name

     0-0-0/b BIT               1 EOF_FLAG

  ****  Section 033 LblCom KEY_REC

  ****  Scalars and arrays  ****
OctLoc.c.b A Datatyp(siz) R M Lvl/name                 OctLoc.c.b A Datatyp(siz) R M Lvl/name

     0-0-0/c CHAR(10)          1 KEY_REC

  ****  Section 034 LblCom LINE

  ****  Scalars and arrays  ****
OctLoc.c.b A Datatyp(siz) R M Lvl/name                 OctLoc.c.b A Datatyp(siz) R M Lvl/name

     0-0-0/c CHAR(109)         1 LINE

  ****  Section 035 LblCom LINELEN

  ****  Scalars and arrays  ****
OctLoc.c.b A Datatyp(siz) R M Lvl/name                 OctLoc.c.b A Datatyp(siz) R M Lvl/name

     0-0-0/w SBIN              1 LINELEN

PL6.E3A0      #004=FINDEDGECOSTS File=LR_ERRPTH.:Z8A6TSI                         SAT 08/09/97 09:28 Page:106
  ****  Section 036 LblCom TSTATS

  ****  Scalars and arrays  ****
OctLoc.c.b A Datatyp(siz) R M Lvl/name                 OctLoc.c.b A Datatyp(siz) R M Lvl/name

     0-0-0/w STRC(7380)        1 TSTATS

  ****  Section 037 LblCom C#_TO_$

  ****  Scalars and arrays  ****
OctLoc.c.b A Datatyp(siz) R M Lvl/name                 OctLoc.c.b A Datatyp(siz) R M Lvl/name

     0-0-0/w PTR         r     1 C#_TO_$(0:2200)

  ****  Section 038 LblCom NR_CONFIG

  ****  Scalars and arrays  ****
OctLoc.c.b A Datatyp(siz) R M Lvl/name                 OctLoc.c.b A Datatyp(siz) R M Lvl/name

     0-0-0/w SBIN              1 NR_CONFIG

  ****  Section 039 LblCom INIT_CONFIG

  ****  Scalars and arrays  ****
OctLoc.c.b A Datatyp(siz) R M Lvl/name                 OctLoc.c.b A Datatyp(siz) R M Lvl/name

     0-0-0/w SBIN              1 INIT_CONFIG

  ****  Section 040 LblCom MAX_BASIS_ITEMS

  ****  Scalars and arrays  ****
OctLoc.c.b A Datatyp(siz) R M Lvl/name                 OctLoc.c.b A Datatyp(siz) R M Lvl/name

     0-0-0/w SBIN              1 MAX_BASIS_ITEMS

  ****  Section 041 LblCom MAX_TOTAL_ITEMS

PL6.E3A0      #004=FINDEDGECOSTS File=LR_ERRPTH.:Z8A6TSI                         SAT 08/09/97 09:28 Page:107
  ****  Scalars and arrays  ****
OctLoc.c.b A Datatyp(siz) R M Lvl/name                 OctLoc.c.b A Datatyp(siz) R M Lvl/name

     0-0-0/w SBIN              1 MAX_TOTAL_ITEMS

  ****  Section 042 LblCom LAST_BINSRCH_ONLY

  ****  Scalars and arrays  ****
OctLoc.c.b A Datatyp(siz) R M Lvl/name                 OctLoc.c.b A Datatyp(siz) R M Lvl/name

     0-0-0/w SBIN              1 LAST_BINSRCH_ONLY

  ****  Section 043 LblCom LAST_BOTH_BITBIN

  ****  Scalars and arrays  ****
OctLoc.c.b A Datatyp(siz) R M Lvl/name                 OctLoc.c.b A Datatyp(siz) R M Lvl/name

     0-0-0/w SBIN              1 LAST_BOTH_BITBIN

  ****  Section 044 LblCom GARBAGE

  ****  Scalars and arrays  ****
OctLoc.c.b A Datatyp(siz) R M Lvl/name                 OctLoc.c.b A Datatyp(siz) R M Lvl/name

     0-0-0/w PTR               1 GARBAGE(0:100)

  ****  Section 045 LblCom AMT_GARBAGE

  ****  Scalars and arrays  ****
OctLoc.c.b A Datatyp(siz) R M Lvl/name                 OctLoc.c.b A Datatyp(siz) R M Lvl/name

     0-0-0/w SBIN              1 AMT_GARBAGE

  ****  Section 046 LblCom LEAST_COST_STRING

  ****  Scalars and arrays  ****
OctLoc.c.b A Datatyp(siz) R M Lvl/name                 OctLoc.c.b A Datatyp(siz) R M Lvl/name
PL6.E3A0      #004=FINDEDGECOSTS File=LR_ERRPTH.:Z8A6TSI                         SAT 08/09/97 09:28 Page:108

     0-0-0/w PTR               1 LEAST_COST_STRING(0:1400)

  ****  Section 047 LblCom LEAST_COST_PREFIX

  ****  Scalars and arrays  ****
OctLoc.c.b A Datatyp(siz) R M Lvl/name                 OctLoc.c.b A Datatyp(siz) R M Lvl/name

     0-0-0/w PTR               1 LEAST_COST_PREFIX(0:1400)

  ****  Section 048 LblCom CURRE

  ****  Scalars and arrays  ****
OctLoc.c.b A Datatyp(siz) R M Lvl/name                 OctLoc.c.b A Datatyp(siz) R M Lvl/name

     0-0-0/d STRC(126)         1 CURRE(0:1400)

  ****  Section 049 LblCom LCP_INDX

  ****  Scalars and arrays  ****
OctLoc.c.b A Datatyp(siz) R M Lvl/name                 OctLoc.c.b A Datatyp(siz) R M Lvl/name

     0-0-0/h SBIN(18)          1 LCP_INDX(0:1400)

  ****  Section 050 LblCom COM_STRSP_LEN

  ****  Scalars and arrays  ****
OctLoc.c.b A Datatyp(siz) R M Lvl/name                 OctLoc.c.b A Datatyp(siz) R M Lvl/name

     0-0-0/w SBIN        r     1 COM_STRSP_LEN

  ****  Section 051 LblCom COM_SEARCH_STRING

  ****  Scalars and arrays  ****
OctLoc.c.b A Datatyp(siz) R M Lvl/name                 OctLoc.c.b A Datatyp(siz) R M Lvl/name

     0-0-0/w PTR         r     1 COM_SEARCH_STRING
PL6.E3A0      #004=FINDEDGECOSTS File=LR_ERRPTH.:Z8A6TSI                         SAT 08/09/97 09:28 Page:109

  ****  Section 052 LblCom COM_SEARCH_STRING_LEN

  ****  Scalars and arrays  ****
OctLoc.c.b A Datatyp(siz) R M Lvl/name                 OctLoc.c.b A Datatyp(siz) R M Lvl/name

     0-0-0/w SBIN        r     1 COM_SEARCH_STRING_LEN

  ****  Section 053 LblCom COM_STRING_SPACE_LEN

  ****  Scalars and arrays  ****
OctLoc.c.b A Datatyp(siz) R M Lvl/name                 OctLoc.c.b A Datatyp(siz) R M Lvl/name

     0-0-0/w SBIN        r     1 COM_STRING_SPACE_LEN

  ****  Section 054 LblCom COM_STRING_SPACE_H

  ****  Scalars and arrays  ****
OctLoc.c.b A Datatyp(siz) R M Lvl/name                 OctLoc.c.b A Datatyp(siz) R M Lvl/name

     0-0-0/h SBIN(18)    r     1 COM_STRING_SPACE_H(0:24999)

  ****  Section 055 LblCom COM_STRING_SPACE$

  ****  Scalars and arrays  ****
OctLoc.c.b A Datatyp(siz) R M Lvl/name                 OctLoc.c.b A Datatyp(siz) R M Lvl/name

     0-0-0/w PTR         r     1 COM_STRING_SPACE$

  ****  Section 056 LblCom COM_STRING_PTR

  ****  Scalars and arrays  ****
OctLoc.c.b A Datatyp(siz) R M Lvl/name                 OctLoc.c.b A Datatyp(siz) R M Lvl/name

     0-0-0/w PTR         r     1 COM_STRING_PTR

  ****  Section 057 LblCom COM_STRING_INDX
PL6.E3A0      #004=FINDEDGECOSTS File=LR_ERRPTH.:Z8A6TSI                         SAT 08/09/97 09:28 Page:110

  ****  Scalars and arrays  ****
OctLoc.c.b A Datatyp(siz) R M Lvl/name                 OctLoc.c.b A Datatyp(siz) R M Lvl/name

     0-0-0/w SBIN              1 COM_STRING_INDX

  ****  Section 058 LblCom LCP_TABLE_LEN

  ****  Scalars and arrays  ****
OctLoc.c.b A Datatyp(siz) R M Lvl/name                 OctLoc.c.b A Datatyp(siz) R M Lvl/name

     0-0-0/w SBIN              1 LCP_TABLE_LEN

  ****  Section 059 LblCom STATE_ITEM_INDEX

  ****  Scalars and arrays  ****
OctLoc.c.b A Datatyp(siz) R M Lvl/name                 OctLoc.c.b A Datatyp(siz) R M Lvl/name

     0-0-0/h STRC              1 STATE_ITEM_INDEX(0:2200)

  ****  Section 060 LblCom PATH

  ****  Scalars and arrays  ****
OctLoc.c.b A Datatyp(siz) R M Lvl/name                 OctLoc.c.b A Datatyp(siz) R M Lvl/name

     0-0-0/h STRC        r     1 PATH(0:17600)

  ****  Section 061 LblCom PATH_STRINGS_LEN

  ****  Scalars and arrays  ****
OctLoc.c.b A Datatyp(siz) R M Lvl/name                 OctLoc.c.b A Datatyp(siz) R M Lvl/name

     0-0-0/w SBIN        r     1 PATH_STRINGS_LEN

  ****  Section 062 LblCom PATH_ADDR$

  ****  Scalars and arrays  ****
PL6.E3A0      #004=FINDEDGECOSTS File=LR_ERRPTH.:Z8A6TSI                         SAT 08/09/97 09:28 Page:111
OctLoc.c.b A Datatyp(siz) R M Lvl/name                 OctLoc.c.b A Datatyp(siz) R M Lvl/name

     0-0-0/w PTR         r     1 PATH_ADDR$

  ****  Section 063 LblCom PATH_TABLE_LEN

  ****  Scalars and arrays  ****
OctLoc.c.b A Datatyp(siz) R M Lvl/name                 OctLoc.c.b A Datatyp(siz) R M Lvl/name

     0-0-0/w SBIN              1 PATH_TABLE_LEN

  ****  Section 064 LblCom EDGECOST

  ****  Scalars and arrays  ****
OctLoc.c.b A Datatyp(siz) R M Lvl/name                 OctLoc.c.b A Datatyp(siz) R M Lvl/name

     0-0-0/w SBIN        r     1 EDGECOST(0:400)

  ****  Section 065 LblCom ITEM_TABLE_LEN

  ****  Scalars and arrays  ****
OctLoc.c.b A Datatyp(siz) R M Lvl/name                 OctLoc.c.b A Datatyp(siz) R M Lvl/name

     0-0-0/w SBIN              1 ITEM_TABLE_LEN

  ****  Section 066 LblCom ORDERED_ITEM

  ****  Scalars and arrays  ****
OctLoc.c.b A Datatyp(siz) R M Lvl/name                 OctLoc.c.b A Datatyp(siz) R M Lvl/name

     0-0-0/h STRC              1 ORDERED_ITEM(0:400)

  ****  Section 067 LblCom NEIGHBOR

  ****  Scalars and arrays  ****
OctLoc.c.b A Datatyp(siz) R M Lvl/name                 OctLoc.c.b A Datatyp(siz) R M Lvl/name

PL6.E3A0      #004=FINDEDGECOSTS File=LR_ERRPTH.:Z8A6TSI                         SAT 08/09/97 09:28 Page:112
     0-0-0/w SBIN              1 NEIGHBOR(0:400)

  ****  Section 068 LblCom PATH_INFO

  ****  Scalars and arrays  ****
OctLoc.c.b A Datatyp(siz) R M Lvl/name                 OctLoc.c.b A Datatyp(siz) R M Lvl/name

     0-0-0/w STRC(28872)       1 PATH_INFO

  ****  Section 069 LblCom CHOSEN

  ****  Scalars and arrays  ****
OctLoc.c.b A Datatyp(siz) R M Lvl/name                 OctLoc.c.b A Datatyp(siz) R M Lvl/name

     0-0-0/w BIT               1 CHOSEN(0:400)

  ****  Section 070 LblCom REACHED

  ****  Scalars and arrays  ****
OctLoc.c.b A Datatyp(siz) R M Lvl/name                 OctLoc.c.b A Datatyp(siz) R M Lvl/name

     0-0-0/b BIT               1 REACHED(0:400)

  ****  Section 071 LblCom EXP_PATH_INDX

  ****  Scalars and arrays  ****
OctLoc.c.b A Datatyp(siz) R M Lvl/name                 OctLoc.c.b A Datatyp(siz) R M Lvl/name

     0-0-0/w SBIN              1 EXP_PATH_INDX

  ****  BASED and DCB variables  ****

  ****  Scalars and arrays  ****
OctLoc.c.b A Datatyp(siz) R M Lvl/name                 OctLoc.c.b A Datatyp(siz) R M Lvl/name

     0-0-0/w STRC(72)          1 CELL                       0-0-0/c ACHR              1 COM_STRINGS
     0-0-0/c ACHR              1 COM_STRING_SPACE           0-0-0/c ACHR              1 CSEARCH_STRING
PL6.E3A0      #004=FINDEDGECOSTS File=LR_ERRPTH.:Z8A6TSI                         SAT 08/09/97 09:28 Page:113
     0-0-0/w STRC(57888) r     1 C_SET_B                    0-0-0/w STRC(72)          1 INCLUDES_B
     0-0-0/w STRC(144)         1 INCL_B                     0-0-0/w STRC(5436)  r     1 ITEM_B
     0-0-0/w STRC(5652)  r     1 KEY_B                      0-0-0N  NULL        r     1 M$LO
     0-0-0N  NULL        r     1 M$OU                       0-0-0N  NULL        r     1 M$SI
     0-0-0N  NULL        r     1 M$SO                       0-0-0N  NULL        r     1 M$UI
     0-0-0/c ACHR              1 PATH_STRINGS               0-0-0/w STRC(90)          1 PREFIX
     0-0-0/w ASTR(72)    r     1 PREFIXCHR                  0-0-0/w STRC              1 STRING
     0-0-0/w ASTR(18)    r     1 STRINGCHR                  0-0-0/w STRC(351)   r     1 SYMBOL


   Procedure FINDEDGECOSTS requires 106 words for executable code.
   Procedure FINDEDGECOSTS is declared NOAUTO and requires 10 words of local(STATIC) storage.

PL6.E3A0      #005=FINDLOCALCONTEXT File=LR_ERRPTH.:Z8A6TSI                      SAT 08/09/97 09:29 Page:114
      278        1        /*T***********************************************************/
      279        2        /*T*                                                         */
      280        3        /*T* Copyright (c) Bull HN Information Systems Inc., 1997    */
      281        4        /*T*                                                         */
      282        5        /*T***********************************************************/
      283        6        FINDLOCALCONTEXT : PROC (STATE) NOAUTO;
      284        7
      285        8        /*D*
      286        9            NAME: FINDLOCALCONTEXT
      287       10         PURPOSE:
      288       11           Find the regular expressions denoting the local right
      289       12           context of the items in the state.
      290       13
      291       14           This is done by finding least_cost_paths using DIHKSTRA's
      292       15           algorithm and following them, with branches, to get the regular
      293       16           expression.
      294       17        */
      295       18
      296       19    1   DCL STATE SBIN WORD;
      297       20
      298       21        %INCLUDE LR_GRAM_EXT;
      299      560        %INCLUDE LR_CNFG_EXT;
      300      713        %INCLUDE LR_ERR_EXT;
      301      856
      302      857    1   DCL FINDNEIGHBORS       ENTRY(1);
      303      858    1   DCL WRITE_LOCAL_CONTEXT ENTRY(2);
      304      859
      305      860    1   DCL ITEM    SBIN WORD;
      306      861    1   DCL TITEM   SBIN WORD;
      307      862    1   DCL N       SBIN WORD;
      308      863    1   DCL SOURCE  SBIN WORD;
      309      864    1   DCL NB      SBIN WORD;
      310      865    1   DCL DONE    BOOLEAN;
      311      866    1   DCL MINCOST SBIN WORD;
      312      867    1   DCL CHOICE  SBIN WORD;
      313      868
      314      869
PL6.E3A0      #005=FINDLOCALCONTEXT File=LR_ERRPTH.:Z8A6TSI                      SAT 08/09/97 09:29 Page:115
      315      870
      316      871    1   CALL FINDNEIGHBORS(STATE);
      317      872
      318      873
      319      874
      320      875    1   DO SOURCE = C#_TO_$(STATE) -> C_SET_B.BASIS_COUNT
      321      876    2                 TO C#_TO_$(STATE) -> C_SET_B.ITEM_COUNT - 1;
      322      877
      323      878
      324      879    3     DO ITEM = 0 TO C#_TO_$(STATE) -> C_SET_B.ITEM_COUNT - 1;
      325      880
      326      881    3       CHOSEN(ITEM)         = FALSE;
      327      882    3       PATH_INFO.DEST(ITEM) = 0;
      328      883    3       PATH_INFO.COST(ITEM) = INFINITE_COST;
      329      884
      330      885    3     END;
      331      886
      332      887    2     NB = NEIGHBOR(SOURCE);
      333      888
      334      889    3     DO N = 0 TO C#_TO_$(STATE) -> C_SET_B.ELEM.KEY$(NB) -> KEY_B.W.ELEM_COUNT - 1;
      335      890
      336      891    3       ITEM = C#_TO_$(STATE) -> C_SET_B.ELEM.ITEM$(NB) -> ITEM_B.ELEM.ITEM#(N);
      337      892    3       PATH_INFO.COST(ITEM) = EDGECOST(ITEM);
      338      893    3       PATH_INFO.DEST(ITEM) = SOURCE;
      339      894
      340      895    3     END;
      341      896
      342      897    3     DO UNTIL DONE;
      343      898
      344      899    3       DONE = TRUE;
      345      900
      346      901    3       MINCOST = INFINITE_COST;
      347      902
      348      903    3       N = C#_TO_$(STATE) -> C_SET_B.ITEM_COUNT - 1;
      349      904
      350      905    4       DO ITEM = 0 TO N;
      351      906
PL6.E3A0      #005=FINDLOCALCONTEXT File=LR_ERRPTH.:Z8A6TSI                      SAT 08/09/97 09:29 Page:116
      352      907    4         IF NOT CHOSEN(ITEM) THEN
      353      908    4           IF PATH_INFO.COST(ITEM) < MINCOST THEN
      354      909    5             DO;
      355      910    5               DONE    = FALSE;
      356      911    5               CHOICE  = ITEM;
      357      912    5               MINCOST = PATH_INFO.COST(ITEM);
      358      913    5             END;
      359      914
      360      915    4       END;
      361      916
      362      917    3       IF NOT DONE THEN
      363      918    4         DO;
      364      919    4           CHOSEN (CHOICE) = TRUE;
      365      920    4           NB = NEIGHBOR(CHOICE);
      366      921    4           IF NB >= 0 THEN
      367      922    5             DO N = 0 TO C#_TO_$(STATE) -> C_SET_B.ELEM.KEY$(NB) -> KEY_B.W.ELEM_COUNT
               922                      - 1;
      368      923
      369      924    5               TITEM = C#_TO_$(STATE) -> C_SET_B.ELEM.ITEM$(NB) ->
      370      925    5                            ITEM_B.ELEM.ITEM#(N);
      371      926
      372      927    5               IF PATH_INFO.COST(CHOICE) + EDGECOST(TITEM) < PATH_INFO.COST(TITEM) THEN
      373      928    6                 DO;
      374      929    6                   PATH_INFO.COST(TITEM) = PATH_INFO.COST(CHOICE) + EDGECOST(TITEM);
      375      930    6                   PATH_INFO.DEST(TITEM) = CHOICE;
      376      931    6                 END;
      377      932
      378      933    5             END;
      379      934    4         END;
      380      935    3     END;  /* DO UNTIL */
      381      936
      382      937          %OUT_STR(S="'  %ITEM(SS='");
      383      940    2     IF C#_TO_$(STATE) -> C_SET_B.ELEM.KEY$(ORDERED_ITEM.E(SOURCE)) ->
      384      941    2                              KEY_B.W.SYM_AFTER = 0 THEN
      385      942    3       DO;
      386      943              %OUT_STR(S="'-1,SI=0,I='");
      387      946              %BOUNDS(T=SSTATE, V="-1");
PL6.E3A0      #005=FINDLOCALCONTEXT File=LR_ERRPTH.:Z8A6TSI                      SAT 08/09/97 09:29 Page:117
      388      952    3       END;
      389      953    2     ELSE
      390      954    3       DO;
      391      955    3         CALL OUT_DEC(BINBIT(C#_TO_$(STATE) -> C_SET_B.ELEM.KEY$(ORDERED_ITEM.E(SOURCE)
               955                  ) ->
      392      956    3                                 KEY_B.KEY_VAL$ -> C_SET_B.C_SET#, 36));
      393      957
      394      958              %BOUNDS(T=SSTATE, V="C#_TO_$(STATE) -> C_SET_B.ELEM.KEY$(ORDERED_ITEM.E(SOURCE
               958        )) -> KEY_B.KEY_VAL$ -> C_SET_B.C_SET#");
      395      964              %OUT_STR(S="',SI='");
      396      967    3         CALL OUT_DEC(BINBIT(C#_TO_$(STATE) -> C_SET_B.ELEM.ITEM$(ORDERED_ITEM.E(SOURCE
               967                  )) ->
      397      968    3                                 ITEM_B.ELEM.SUCC_ITEM#(ORDERED_ITEM.I(SOURCE)), 36));
      398      969
      399      970              %BOUNDS(T=SITEM, V="C#_TO_$(STATE) -> C_SET_B.ELEM.ITEM$(ORDERED_ITEM.E(SOURCE
               970        )) ->ITEM_B.ELEM.SUCC_ITEM#(ORDERED_ITEM.I(SOURCE))");
      400      976
      401      977              %OUT_STR(S="',I='");
      402      980    3       END;
      403      981
      404      982    2     CALL WRITE_LOCAL_CONTEXT(STATE, SOURCE);
      405      983    2   END;  /* DO SOURCE */
      406      984
      407      985    1   STATE_ITEM_INDEX.CLOSURE(STATE) = ITEM_TABLE_LEN;
      408      986
      409      987
      410      988    1   END FINDLOCALCONTEXT;
      411      989        %EOD;

PL6.E3A0      #005=FINDLOCALCONTEXT File=LR_ERRPTH.:Z8A6TSI                      SAT 08/09/97 09:29 Page:118
--  Include file information  --

   LR_ERR_EXT.:Z8A6TOU  cannot be made into a system file and is referenced.
   LR_CNFG_EXT.:Z8A6TOU  cannot be made into a system file and is referenced.
   LR_IO_EXT.:Z8A6TOU  cannot be made into a system file and is referenced.
   LR_GRAM_EXT.:Z8A6TOU  cannot be made into a system file and is referenced.
      No diagnostics issued in procedure FINDLOCALCONTEXT.

   Procedure FINDLOCALCONTEXT requires 291 words for executable code.
   Procedure FINDLOCALCONTEXT is declared NOAUTO and requires 14 words of local(STATIC) storage.

PL6.E3A0      #005=FINDLOCALCONTEXT File=LR_ERRPTH.:Z8A6TSI                      SAT 08/09/97 09:29 Page:119

 Object Unit name= FINDLOCALCONTEXT                           File name= LR_ERRPTH.:Z8A6TOU
 UTS= AUG 09 '97 09:29:20.28 SAT                              Compiler= PL-6/E31         Sev=      00
 SharedLib= :SHARED_SYSTEM                                    Alt SharedLib=


    ****  Control sections  ****

 Sect   Type Bound  Init  Size OctSiz  Section name(segment info)
    0   Data  even  none    14     16  FINDLOCALCONTEXT
    1  LblCom even  none     1      1  OUT_DCBN
    2   DCB   even  none     0      0  M$OU
    3   DCB   even  none     0      0  M$SO
    4   DCB   even  none     0      0  M$LO
    5   DCB   even  none     0      0  M$SI
    6   DCB   even  none     0      0  M$UI
    7  LblCom even  none  1401   2571  SYM_PTRS
    8  LblCom even  none  4001   7641  RIGHT_PARTS
    9  LblCom even  none  3002   5672  PROD
   10  LblCom even  none     1      1  NR_PROD
   11  LblCom even  none     1      1  NR_SYMS
   12  LblCom even  none     1      1  NR_TERM
   13  LblCom even  none     1      1  LAST_ACT
   14  LblCom even  none     1      1  LAST_NULL
   15  LblCom even  none     1      1  NR_ONRIGHT
   16  LblCom even  none     1      1  NR_NT
   17  LblCom even  none     1      1  PROD_LEN_MAX_EVER
   18  LblCom even  none     1      1  LAST_ORDER_SPECIFIED
   19  LblCom even  none     1      1  SEMANTIC_ORDERING
   20  LblCom even  none     1      1  ERR_SEV
   21  LblCom even  none     1      1  SET_LENGTHB
   22  LblCom even  none     1      1  SET_LENGTHW
   23  LblCom even  none     1      1  EOF_SYMBOL_PTR
   24  LblCom even  none     1      1  ERROR_SYMBOL_PTR
   25  LblCom even  none     1      1  BOF_SYMBOL_PTR
   26  LblCom even  none     1      1  OPTIONS
   27  LblCom even  none    26     32  OPTIONS_TEXT
   28  LblCom even  none   128    200  INSTR
PL6.E3A0      #005=FINDLOCALCONTEXT File=LR_ERRPTH.:Z8A6TSI                      SAT 08/09/97 09:29 Page:120
   29  LblCom even  none     1      1  INSTR_LISTED
   30  LblCom even  none     1      1  INSTR_LEN
   31  LblCom even  none     1      1  INSTR_INDX
   32  LblCom even  none     1      1  EOF_FLAG
   33  LblCom even  none     3      3  KEY_REC
   34  LblCom even  none    28     34  LINE
   35  LblCom even  none     1      1  LINELEN
   36  LblCom even  none   205    315  TSTATS
   37  LblCom even  none  2201   4231  C#_TO_$
   38  LblCom even  none     1      1  NR_CONFIG
   39  LblCom even  none     1      1  INIT_CONFIG
   40  LblCom even  none     1      1  MAX_BASIS_ITEMS
   41  LblCom even  none     1      1  MAX_TOTAL_ITEMS
   42  LblCom even  none     1      1  LAST_BINSRCH_ONLY
   43  LblCom even  none     1      1  LAST_BOTH_BITBIN
   44  LblCom even  none   101    145  GARBAGE
   45  LblCom even  none     1      1  AMT_GARBAGE
   46  LblCom even  none  1401   2571  LEAST_COST_STRING
   47  LblCom even  none  1401   2571  LEAST_COST_PREFIX
   48  LblCom even  none  5604  12744  CURRE
   49  LblCom even  none   701   1275  LCP_INDX
   50  LblCom even  none     1      1  COM_STRSP_LEN
   51  LblCom even  none     1      1  COM_SEARCH_STRING
   52  LblCom even  none     1      1  COM_SEARCH_STRING_LEN
   53  LblCom even  none     1      1  COM_STRING_SPACE_LEN
   54  LblCom even  none 12500  30324  COM_STRING_SPACE_H
   55  LblCom even  none     1      1  COM_STRING_SPACE$
   56  LblCom even  none     1      1  COM_STRING_PTR
   57  LblCom even  none     1      1  COM_STRING_INDX
   58  LblCom even  none     1      1  LCP_TABLE_LEN
   59  LblCom even  none  2201   4231  STATE_ITEM_INDEX
   60  LblCom even  none 17601  42301  PATH
   61  LblCom even  none     1      1  PATH_STRINGS_LEN
   62  LblCom even  none     1      1  PATH_ADDR$
   63  LblCom even  none     1      1  PATH_TABLE_LEN
   64  LblCom even  none   401    621  EDGECOST
   65  LblCom even  none     1      1  ITEM_TABLE_LEN
PL6.E3A0      #005=FINDLOCALCONTEXT File=LR_ERRPTH.:Z8A6TSI                      SAT 08/09/97 09:29 Page:121
   66  LblCom even  none   401    621  ORDERED_ITEM
   67  LblCom even  none   401    621  NEIGHBOR
   68  LblCom even  none   802   1442  PATH_INFO
   69  LblCom even  none   401    621  CHOSEN
   70  LblCom even  none    12     14  REACHED
   71  LblCom even  none     1      1  EXP_PATH_INDX
   72  RoData even  UTS      8     10  FINDLOCALCONTEXT
   73   Proc  even  none   291    443  FINDLOCALCONTEXT
   74  RoData even  none    16     20  FINDLOCALCONTEXT

    ****  Entry defs  ****

                              Check   Calling
                             calling  sequence
  Sect OctLoc Primary Altret sequence   type   Parms  Name
    73      0   yes            yes      Std        1  FINDLOCALCONTEXT

  ****  Entry refs  ****

         Check        Calling
        calling       sequence
Altret sequence SRef   type   Args  Name
         yes           Std       1 FINDNEIGHBORS
         yes           Std       2 WRITE_LOCAL_CONTEXT
         yes           Std       2 OUT_STR
         yes           Std       1 OUT_DEC
                       nStd      0 X66_STATIC_1

  ****  Data refs  ****

  Flags:  r = read only, s = secondary
Flgs Name                             Flgs Name                             Flgs Name
     M$OU                                  M$SO                                  M$LO
     M$SI                                  M$UI
PL6.E3A0      #005=FINDLOCALCONTEXT File=LR_ERRPTH.:Z8A6TSI                      SAT 08/09/97 09:29 Page:122

  ****  Segment refs  ****

  Flags:  r = read only, s = secondary
Flgs Name                             Flgs Name                             Flgs Name
     NULLSID                               ISSID
PL6.E3A0      #005=FINDLOCALCONTEXT File=LR_ERRPTH.:Z8A6TSI                      SAT 08/09/97 09:29 Page:123


      278        1        /*T***********************************************************/
      279        2        /*T*                                                         */
      280        3        /*T* Copyright (c) Bull HN Information Systems Inc., 1997    */
      281        4        /*T*                                                         */
      282        5        /*T***********************************************************/
      283        6        FINDLOCALCONTEXT : PROC (STATE) NOAUTO;

      6 73 000000   000000 700200 xent  FINDLOCALCO* TSX0  ! X66_STATIC_1
        73 000001   000000 000001 0                  ZERO    0,1

      284        7
      285        8        /*D*
      286        9            NAME: FINDLOCALCONTEXT
      287       10         PURPOSE:
      288       11           Find the regular expressions denoting the local right
      289       12           context of the items in the state.
      290       13
      291       14           This is done by finding least_cost_paths using DIHKSTRA's
      292       15           algorithm and following them, with branches, to get the regular
      293       16           expression.
      294       17        */
      295       18
      296       19    1   DCL STATE SBIN WORD;
      297       20
      298       21        %INCLUDE LR_GRAM_EXT;
      299      560        %INCLUDE LR_CNFG_EXT;
      300      713        %INCLUDE LR_ERR_EXT;
      301      856
      302      857    1   DCL FINDNEIGHBORS       ENTRY(1);
      303      858    1   DCL WRITE_LOCAL_CONTEXT ENTRY(2);
      304      859
      305      860    1   DCL ITEM    SBIN WORD;
      306      861    1   DCL TITEM   SBIN WORD;
      307      862    1   DCL N       SBIN WORD;
      308      863    1   DCL SOURCE  SBIN WORD;
      309      864    1   DCL NB      SBIN WORD;
PL6.E3A0      #005=FINDLOCALCONTEXT File=LR_ERRPTH.:Z8A6TSI                      SAT 08/09/97 09:29 Page:124
      310      865    1   DCL DONE    BOOLEAN;
      311      866    1   DCL MINCOST SBIN WORD;
      312      867    1   DCL CHOICE  SBIN WORD;
      313      868
      314      869
      315      870
      316      871    1   CALL FINDNEIGHBORS(STATE);

    871 73 000002   000001 630400 0                  EPPR0   @STATE
        73 000003   000000 631400 74                 EPPR1   0
        73 000004   000000 701000 xent               TSX1    FINDNEIGHBORS
        73 000005   000000 011000                    NOP     0

      317      872
      318      873
      319      874
      320      875    1   DO SOURCE = C#_TO_$(STATE) -> C_SET_B.BASIS_COUNT
      321      876    2                 TO C#_TO_$(STATE) -> C_SET_B.ITEM_COUNT - 1;

    876 73 000006   000001 470400 0                  LDP0    @STATE
        73 000007   000000 720100                    LXL0    0,,PR0
        73 000010   000000 471410 37                 LDP1    C#_TO_$,X0
        73 000011   100002 236100                    LDQ     2,,PR1
        73 000012   000022 736000                    QLS     18
        73 000013   000022 732000                    QRS     18
        73 000014   000005 756000 0                  STQ     SOURCE
        73 000015   000427 710000 73                 TRA     s:983+1

      322      877
      323      878
      324      879    3     DO ITEM = 0 TO C#_TO_$(STATE) -> C_SET_B.ITEM_COUNT - 1;

    879 73 000016   000002 450000 0                  STZ     ITEM
        73 000017   000026 710000 73                 TRA     s:885+1

      325      880
      326      881    3       CHOSEN(ITEM)         = FALSE;
PL6.E3A0      #005=FINDLOCALCONTEXT File=LR_ERRPTH.:Z8A6TSI                      SAT 08/09/97 09:29 Page:125

    881 73 000020   000002 720000 0                  LXL0    ITEM
        73 000021   000000 450010 69                 STZ     CHOSEN,X0

      327      882    3       PATH_INFO.DEST(ITEM) = 0;

    882 73 000022   000000 450010 68                 STZ     PATH_INFO,X0

      328      883    3       PATH_INFO.COST(ITEM) = INFINITE_COST;

    883 73 000023   303237 235007                    LDA     99999,DL
        73 000024   000621 755010 68                 STA     PATH_INFO+401,X0

      329      884
      330      885    3     END;

    885 73 000025   000002 054000 0                  AOS     ITEM
        73 000026   000001 470400 0                  LDP0    @STATE
        73 000027   000000 720100                    LXL0    0,,PR0
        73 000030   000000 471410 37                 LDP1    C#_TO_$,X0
        73 000031   100003 236100                    LDQ     3,,PR1
        73 000032   000022 732000                    QRS     18
        73 000033   000002 116000 0                  CMPQ    ITEM
        73 000034   000020 605400 73                 TPNZ    s:881

      331      886
      332      887    2     NB = NEIGHBOR(SOURCE);

    887 73 000035   000005 720000 0                  LXL0    SOURCE
        73 000036   000000 235010 67                 LDA     NEIGHBOR,X0
        73 000037   000006 755000 0                  STA     NB

      333      888
      334      889    3     DO N = 0 TO C#_TO_$(STATE) -> C_SET_B.ELEM.KEY$(NB) -> KEY_B.W.ELEM_COUNT - 1;

    889 73 000040   000004 450000 0                  STZ     N
        73 000041   000062 710000 73                 TRA     s:895+1
PL6.E3A0      #005=FINDLOCALCONTEXT File=LR_ERRPTH.:Z8A6TSI                      SAT 08/09/97 09:29 Page:126

      335      890
      336      891    3       ITEM = C#_TO_$(STATE) -> C_SET_B.ELEM.ITEM$(NB) -> ITEM_B.ELEM.ITEM#(N);

    891 73 000042   000001 470400 0                  LDP0    @STATE
        73 000043   000000 720100                    LXL0    0,,PR0
        73 000044   000000 471410 37                 LDP1    C#_TO_$,X0
        73 000045   000006 235000 0                  LDA     NB
        73 000046   000002 735000                    ALS     2
        73 000047   100006 473505                    LDP3    6,AL,PR1
        73 000050   000004 720000 0                  LXL0    N
        73 000051   300000 236110                    LDQ     0,X0,PR3
        73 000052   000022 732000                    QRS     18
        73 000053   000002 756000 0                  STQ     ITEM

      337      892    3       PATH_INFO.COST(ITEM) = EDGECOST(ITEM);

    892 73 000054   000002 721000 0                  LXL1    ITEM
        73 000055   000000 235006 64                 LDA     EDGECOST,QL
        73 000056   000621 755011 68                 STA     PATH_INFO+401,X1

      338      893    3       PATH_INFO.DEST(ITEM) = SOURCE;

    893 73 000057   000005 236000 0                  LDQ     SOURCE
        73 000060   000000 756011 68                 STQ     PATH_INFO,X1

      339      894
      340      895    3     END;

    895 73 000061   000004 054000 0                  AOS     N
        73 000062   000000 720100                    LXL0    0,,PR0
        73 000063   000000 471410 37                 LDP1    C#_TO_$,X0
        73 000064   000006 235000 0                  LDA     NB
        73 000065   000002 735000                    ALS     2
        73 000066   100004 473505                    LDP3    4,AL,PR1
        73 000067   300005 236100                    LDQ     5,,PR3
        73 000070   000022 736000                    QLS     18
PL6.E3A0      #005=FINDLOCALCONTEXT File=LR_ERRPTH.:Z8A6TSI                      SAT 08/09/97 09:29 Page:127
        73 000071   000022 732000                    QRS     18
        73 000072   000004 116000 0                  CMPQ    N
        73 000073   000042 605400 73                 TPNZ    s:891

      341      896
      342      897    3     DO UNTIL DONE;

      343      898
      344      899    3       DONE = TRUE;

    899 73 000074   400000 236003                    LDQ     -131072,DU
        73 000075   000007 756000 0                  STQ     DONE

      345      900
      346      901    3       MINCOST = INFINITE_COST;

    901 73 000076   303237 235007                    LDA     99999,DL
        73 000077   000010 755000 0                  STA     MINCOST

      347      902
      348      903    3       N = C#_TO_$(STATE) -> C_SET_B.ITEM_COUNT - 1;

    903 73 000100   000001 470400 0                  LDP0    @STATE
        73 000101   000000 720100                    LXL0    0,,PR0
        73 000102   000000 471410 37                 LDP1    C#_TO_$,X0
        73 000103   100003 236100                    LDQ     3,,PR1
        73 000104   000022 732000                    QRS     18
        73 000105   000001 136007                    SBLQ    1,DL
        73 000106   000004 756000 0                  STQ     N

      349      904
      350      905    4       DO ITEM = 0 TO N;

    905 73 000107   000002 450000 0                  STZ     ITEM
        73 000110   000124 710000 73                 TRA     s:915+1

      351      906
PL6.E3A0      #005=FINDLOCALCONTEXT File=LR_ERRPTH.:Z8A6TSI                      SAT 08/09/97 09:29 Page:128
      352      907    4         IF NOT CHOSEN(ITEM) THEN

    907 73 000111   000002 720000 0                  LXL0    ITEM
        73 000112   000000 234010 69                 SZN     CHOSEN,X0
        73 000113   000123 604000 73                 TMI     s:915

      353      908    4           IF PATH_INFO.COST(ITEM) < MINCOST THEN

    908 73 000114   000621 236010 68                 LDQ     PATH_INFO+401,X0
        73 000115   000010 116000 0                  CMPQ    MINCOST
        73 000116   000123 605000 73                 TPL     s:915

      354      909    5             DO;

      355      910    5               DONE    = FALSE;

    910 73 000117   000007 450000 0                  STZ     DONE

      356      911    5               CHOICE  = ITEM;

    911 73 000120   000002 235000 0                  LDA     ITEM
        73 000121   000011 755000 0                  STA     CHOICE

      357      912    5               MINCOST = PATH_INFO.COST(ITEM);

    912 73 000122   000010 756000 0                  STQ     MINCOST

      358      913    5             END;

      359      914
      360      915    4       END;

    915 73 000123   000002 054000 0                  AOS     ITEM
        73 000124   000002 236000 0                  LDQ     ITEM
        73 000125   000004 116000 0                  CMPQ    N
        73 000126   000111 604400 73                 TMOZ    s:907

PL6.E3A0      #005=FINDLOCALCONTEXT File=LR_ERRPTH.:Z8A6TSI                      SAT 08/09/97 09:29 Page:129
      361      916
      362      917    3       IF NOT DONE THEN

    917 73 000127   000007 234000 0                  SZN     DONE
        73 000130   000203 604000 73                 TMI     s:935

      363      918    4         DO;

      364      919    4           CHOSEN (CHOICE) = TRUE;

    919 73 000131   400000 236003                    LDQ     -131072,DU
        73 000132   000011 720000 0                  LXL0    CHOICE
        73 000133   000000 756010 69                 STQ     CHOSEN,X0

      365      920    4           NB = NEIGHBOR(CHOICE);

    920 73 000134   000000 235010 67                 LDA     NEIGHBOR,X0
        73 000135   000006 755000 0                  STA     NB

      366      921    4           IF NB >= 0 THEN

    921 73 000136   000203 604000 73                 TMI     s:935

      367      922    5             DO N = 0 TO C#_TO_$(STATE) -> C_SET_B.ELEM.KEY$(NB) -> KEY_B.W.ELEM_COUNT
               922                      - 1;

    922 73 000137   000004 450000 0                  STZ     N
        73 000140   000170 710000 73                 TRA     s:933+1

      368      923
      369      924    5               TITEM = C#_TO_$(STATE) -> C_SET_B.ELEM.ITEM$(NB) ->

    924 73 000141   000001 470400 0                  LDP0    @STATE
        73 000142   000000 720100                    LXL0    0,,PR0
        73 000143   000000 471410 37                 LDP1    C#_TO_$,X0
        73 000144   000006 235000 0                  LDA     NB
        73 000145   000002 735000                    ALS     2
PL6.E3A0      #005=FINDLOCALCONTEXT File=LR_ERRPTH.:Z8A6TSI                      SAT 08/09/97 09:29 Page:130
        73 000146   100006 473505                    LDP3    6,AL,PR1
        73 000147   000004 720000 0                  LXL0    N
        73 000150   300000 236110                    LDQ     0,X0,PR3
        73 000151   000022 732000                    QRS     18
        73 000152   000003 756000 0                  STQ     TITEM

      370      925    5                            ITEM_B.ELEM.ITEM#(N);
      371      926
      372      927    5              IF PATH_INFO.COST(CHOICE) + EDGECOST(TITEM) < PATH_INFO.COST(TITEM) THEN

    927 73 000153   000000 621006                    EAX1    0,QL
        73 000154   000011 722000 0                  LXL2    CHOICE
        73 000155   000621 236012 68                 LDQ     PATH_INFO+401,X2
        73 000156   000000 036011 64                 ADLQ    EDGECOST,X1
        73 000157   000003 721000 0                  LXL1    TITEM
        73 000160   000621 116011 68                 CMPQ    PATH_INFO+401,X1
        73 000161   000167 605000 73                 TPL     s:933

      373      928    6                 DO;

      374      929    6                   PATH_INFO.COST(TITEM) = PATH_INFO.COST(CHOICE) + EDGECOST(TITEM);

    929 73 000162   000621 236012 68                 LDQ     PATH_INFO+401,X2
        73 000163   000000 036011 64                 ADLQ    EDGECOST,X1
        73 000164   000621 756011 68                 STQ     PATH_INFO+401,X1

      375      930    6                   PATH_INFO.DEST(TITEM) = CHOICE;

    930 73 000165   000011 235000 0                  LDA     CHOICE
        73 000166   000000 755011 68                 STA     PATH_INFO,X1

      376      931    6                 END;

      377      932
      378      933    5             END;

    933 73 000167   000004 054000 0                  AOS     N
PL6.E3A0      #005=FINDLOCALCONTEXT File=LR_ERRPTH.:Z8A6TSI                      SAT 08/09/97 09:29 Page:131
        73 000170   000001 470400 0                  LDP0    @STATE
        73 000171   000000 720100                    LXL0    0,,PR0
        73 000172   000000 471410 37                 LDP1    C#_TO_$,X0
        73 000173   000006 235000 0                  LDA     NB
        73 000174   000002 735000                    ALS     2
        73 000175   100004 473505                    LDP3    4,AL,PR1
        73 000176   300005 236100                    LDQ     5,,PR3
        73 000177   000022 736000                    QLS     18
        73 000200   000022 732000                    QRS     18
        73 000201   000004 116000 0                  CMPQ    N
        73 000202   000141 605400 73                 TPNZ    s:924

      379      934    4         END;

      380      935    3     END;  /* DO UNTIL */

    935 73 000203   000007 234000 0                  SZN     DONE
        73 000204   000074 605000 73                 TPL     s:899

      381      936
      382      937          %OUT_STR(S="'  %ITEM(SS='");

    938 73 000205   000003 630400 74                 EPPR0   3
        73 000206   000001 631400 74                 EPPR1   1
        73 000207   000000 701000 xent               TSX1    OUT_STR
        73 000210   000000 011000                    NOP     0

      383      940    2     IF C#_TO_$(STATE) -> C_SET_B.ELEM.KEY$(ORDERED_ITEM.E(SOURCE)) ->

    940 73 000211   000001 470400 0                  LDP0    @STATE
        73 000212   000000 720100                    LXL0    0,,PR0
        73 000213   000000 471410 37                 LDP1    C#_TO_$,X0
        73 000214   000005 720000 0                  LXL0    SOURCE
        73 000215   000000 236010 66                 LDQ     ORDERED_ITEM,X0
        73 000216   000020 732000                    QRS     16
        73 000217   000005 376000 74                 ANQ     5
        73 000220   100004 473506                    LDP3    4,QL,PR1
PL6.E3A0      #005=FINDLOCALCONTEXT File=LR_ERRPTH.:Z8A6TSI                      SAT 08/09/97 09:29 Page:132
        73 000221   300004 235100                    LDA     4,,PR3
        73 000222   000242 601000 73                 TNZ     s:955

      384      941    2                              KEY_B.W.SYM_AFTER = 0 THEN
      385      942    3       DO;

      386      943              %OUT_STR(S="'-1,SI=0,I='");

    944 73 000223   000007 630400 74                 EPPR0   7
        73 000224   000001 631400 74                 EPPR1   1
        73 000225   000000 701000 xent               TSX1    OUT_STR
        73 000226   000000 011000                    NOP     0

      387      946              %BOUNDS(T=SSTATE, V="-1");

    948 73 000227   000001 336007                    LCQ     1,DL
        73 000230   000104 116000 36                 CMPQ    TSTATS+68
        73 000231   000233 604400 73                 TMOZ    s:948+4
        73 000232   000104 236000 36                 LDQ     TSTATS+68
        73 000233   000104 756000 36                 STQ     TSTATS+68

    949 73 000234   000001 336007                    LCQ     1,DL
        73 000235   000103 116000 36                 CMPQ    TSTATS+67
        73 000236   000240 605000 73                 TPL     s:949+4
        73 000237   000103 236000 36                 LDQ     TSTATS+67
        73 000240   000103 756000 36                 STQ     TSTATS+67

      388      952    3       END;

    952 73 000241   000417 710000 73                 TRA     s:982

      389      953    2     ELSE
      390      954    3       DO;

      391      955    3        CALL OUT_DEC(BINBIT(C#_TO_$(STATE) -> C_SET_B.ELEM.KEY$(ORDERED_ITEM.E(SOURCE)
               955                  ) ->

PL6.E3A0      #005=FINDLOCALCONTEXT File=LR_ERRPTH.:Z8A6TSI                      SAT 08/09/97 09:29 Page:133
    955 73 000242   000000 721100                    LXL1    0,,PR0
        73 000243   000000 471411 37                 LDP1    C#_TO_$,X1
        73 000244   000000 236010 66                 LDQ     ORDERED_ITEM,X0
        73 000245   000020 732000                    QRS     16
        73 000246   000005 376000 74                 ANQ     5
        73 000247   100004 473506                    LDP3    4,QL,PR1
        73 000250   300003 471500                    LDP1    3,,PR3
        73 000251   100001 236100                    LDQ     1,,PR1
        73 000252   000022 772000                    QRL     18
        73 000253   000012 756000 0                  STQ     CHOICE+1
        73 000254   000012 631400 0                  EPPR1   CHOICE+1
        73 000255   000014 451400 0                  STP1    CHOICE+3
        73 000256   000014 630400 0                  EPPR0   CHOICE+3
        73 000257   000000 631400 74                 EPPR1   0
        73 000260   000000 701000 xent               TSX1    OUT_DEC
        73 000261   000000 011000                    NOP     0

      392      956    3                                 KEY_B.KEY_VAL$ -> C_SET_B.C_SET#, 36));
      393      957
      394      958             %BOUNDS(T=SSTATE, V="C#_TO_$(STATE) -> C_SET_B.ELEM.KEY$(ORDERED_ITEM.E(SOURCE
               958        )) -> KEY_B.KEY_VAL$ -> C_SET_B.C_SET#");

    960 73 000262   000001 470400 0                  LDP0    @STATE
        73 000263   000000 720100                    LXL0    0,,PR0
        73 000264   000000 471410 37                 LDP1    C#_TO_$,X0
        73 000265   000005 720000 0                  LXL0    SOURCE
        73 000266   000000 236010 66                 LDQ     ORDERED_ITEM,X0
        73 000267   000020 732000                    QRS     16
        73 000270   000005 376000 74                 ANQ     5
        73 000271   100004 473506                    LDP3    4,QL,PR1
        73 000272   300003 471500                    LDP1    3,,PR3
        73 000273   100001 236100                    LDQ     1,,PR1
        73 000274   000022 772000                    QRL     18
        73 000275   000300 604000 73                 TMI     s:960+14
        73 000276   000104 116000 36                 CMPQ    TSTATS+68
        73 000277   000301 604400 73                 TMOZ    s:960+15
        73 000300   000104 236000 36                 LDQ     TSTATS+68
PL6.E3A0      #005=FINDLOCALCONTEXT File=LR_ERRPTH.:Z8A6TSI                      SAT 08/09/97 09:29 Page:134
        73 000301   000104 756000 36                 STQ     TSTATS+68

    961 73 000302   000000 721100                    LXL1    0,,PR0
        73 000303   000000 471411 37                 LDP1    C#_TO_$,X1
        73 000304   000000 236010 66                 LDQ     ORDERED_ITEM,X0
        73 000305   000020 732000                    QRS     16
        73 000306   000005 376000 74                 ANQ     5
        73 000307   100004 473506                    LDP3    4,QL,PR1
        73 000310   300003 471500                    LDP1    3,,PR3
        73 000311   100001 236100                    LDQ     1,,PR1
        73 000312   000022 772000                    QRL     18
        73 000313   000317 604000 73                 TMI     s:961+13
        73 000314   000103 116000 36                 CMPQ    TSTATS+67
        73 000315   000317 605000 73                 TPL     s:961+13
        73 000316   000103 236000 36                 LDQ     TSTATS+67
        73 000317   000103 756000 36                 STQ     TSTATS+67

      395      964              %OUT_STR(S="',SI='");

    965 73 000320   000012 630400 74                 EPPR0   10
        73 000321   000001 631400 74                 EPPR1   1
        73 000322   000000 701000 xent               TSX1    OUT_STR
        73 000323   000000 011000                    NOP     0

      396      967    3        CALL OUT_DEC(BINBIT(C#_TO_$(STATE) -> C_SET_B.ELEM.ITEM$(ORDERED_ITEM.E(SOURCE
               967                  )) ->

    967 73 000324   000001 470400 0                  LDP0    @STATE
        73 000325   000000 720100                    LXL0    0,,PR0
        73 000326   000000 471410 37                 LDP1    C#_TO_$,X0
        73 000327   000005 720000 0                  LXL0    SOURCE
        73 000330   000000 236010 66                 LDQ     ORDERED_ITEM,X0
        73 000331   000020 732000                    QRS     16
        73 000332   000005 376000 74                 ANQ     5
        73 000333   100006 473506                    LDP3    6,QL,PR1
        73 000334   000000 236010 66                 LDQ     ORDERED_ITEM,X0
        73 000335   000022 736000                    QLS     18
PL6.E3A0      #005=FINDLOCALCONTEXT File=LR_ERRPTH.:Z8A6TSI                      SAT 08/09/97 09:29 Page:135
        73 000336   000022 732000                    QRS     18
        73 000337   300000 236106                    LDQ     0,QL,PR3
        73 000340   000022 736000                    QLS     18
        73 000341   000022 732000                    QRS     18
        73 000342   000012 756000 0                  STQ     CHOICE+1
        73 000343   000012 631400 0                  EPPR1   CHOICE+1
        73 000344   000014 451400 0                  STP1    CHOICE+3
        73 000345   000014 630400 0                  EPPR0   CHOICE+3
        73 000346   000000 631400 74                 EPPR1   0
        73 000347   000000 701000 xent               TSX1    OUT_DEC
        73 000350   000000 011000                    NOP     0

      397      968    3                                 ITEM_B.ELEM.SUCC_ITEM#(ORDERED_ITEM.I(SOURCE)), 36));
      398      969
      399      970             %BOUNDS(T=SITEM, V="C#_TO_$(STATE) -> C_SET_B.ELEM.ITEM$(ORDERED_ITEM.E(SOURCE
               970        )) ->ITEM_B.ELEM.SUCC_ITEM#(ORDERED_ITEM.I(SOURCE))");

    972 73 000351   000001 470400 0                  LDP0    @STATE
        73 000352   000000 720100                    LXL0    0,,PR0
        73 000353   000000 471410 37                 LDP1    C#_TO_$,X0
        73 000354   000005 720000 0                  LXL0    SOURCE
        73 000355   000000 236010 66                 LDQ     ORDERED_ITEM,X0
        73 000356   000020 732000                    QRS     16
        73 000357   000005 376000 74                 ANQ     5
        73 000360   100006 473506                    LDP3    6,QL,PR1
        73 000361   000000 236010 66                 LDQ     ORDERED_ITEM,X0
        73 000362   000022 736000                    QLS     18
        73 000363   000022 732000                    QRS     18
        73 000364   300000 236106                    LDQ     0,QL,PR3
        73 000365   000022 736000                    QLS     18
        73 000366   000022 732000                    QRS     18
        73 000367   000112 116000 36                 CMPQ    TSTATS+74
        73 000370   000372 604400 73                 TMOZ    s:972+17
        73 000371   000112 236000 36                 LDQ     TSTATS+74
        73 000372   000112 756000 36                 STQ     TSTATS+74

    973 73 000373   000000 721100                    LXL1    0,,PR0
PL6.E3A0      #005=FINDLOCALCONTEXT File=LR_ERRPTH.:Z8A6TSI                      SAT 08/09/97 09:29 Page:136
        73 000374   000000 471411 37                 LDP1    C#_TO_$,X1
        73 000375   000000 236010 66                 LDQ     ORDERED_ITEM,X0
        73 000376   000020 732000                    QRS     16
        73 000377   000005 376000 74                 ANQ     5
        73 000400   100006 473506                    LDP3    6,QL,PR1
        73 000401   000000 236010 66                 LDQ     ORDERED_ITEM,X0
        73 000402   000022 736000                    QLS     18
        73 000403   000022 732000                    QRS     18
        73 000404   300000 236106                    LDQ     0,QL,PR3
        73 000405   000022 736000                    QLS     18
        73 000406   000022 732000                    QRS     18
        73 000407   000111 116000 36                 CMPQ    TSTATS+73
        73 000410   000412 605000 73                 TPL     s:973+15
        73 000411   000111 236000 36                 LDQ     TSTATS+73
        73 000412   000111 756000 36                 STQ     TSTATS+73

      400      976
      401      977              %OUT_STR(S="',I='");

    978 73 000413   000015 630400 74                 EPPR0   13
        73 000414   000001 631400 74                 EPPR1   1
        73 000415   000000 701000 xent               TSX1    OUT_STR
        73 000416   000000 011000                    NOP     0

      402      980    3       END;

      403      981
      404      982    2     CALL WRITE_LOCAL_CONTEXT(STATE, SOURCE);

    982 73 000417   000017 236000 74                 LDQ     15
        73 000420   000001 235000 0                  LDA     @STATE
        73 000421   000012 757000 0                  STAQ    CHOICE+1
        73 000422   000012 630400 0                  EPPR0   CHOICE+1
        73 000423   000001 631400 74                 EPPR1   1
        73 000424   000000 701000 xent               TSX1    WRITE_LOCAL_CONTEXT
        73 000425   000000 011000                    NOP     0

PL6.E3A0      #005=FINDLOCALCONTEXT File=LR_ERRPTH.:Z8A6TSI                      SAT 08/09/97 09:29 Page:137
      405      983    2   END;  /* DO SOURCE */

    983 73 000426   000005 054000 0                  AOS     SOURCE
        73 000427   000001 470400 0                  LDP0    @STATE
        73 000430   000000 720100                    LXL0    0,,PR0
        73 000431   000000 471410 37                 LDP1    C#_TO_$,X0
        73 000432   100003 236100                    LDQ     3,,PR1
        73 000433   000022 732000                    QRS     18
        73 000434   000005 116000 0                  CMPQ    SOURCE
        73 000435   000016 605400 73                 TPNZ    s:879

      406      984
      407      985    1   STATE_ITEM_INDEX.CLOSURE(STATE) = ITEM_TABLE_LEN;

    985 73 000436   000000 235100                    LDA     0,,PR0
        73 000437   000000 720000 65                 LXL0    ITEM_TABLE_LEN
        73 000440   000000 440005 59                 SXL0    STATE_ITEM_INDEX,AL

      408      986
      409      987
      410      988    1   END FINDLOCALCONTEXT;

    988 73 000441   000000 221200 0                  LDX1  ! 0
        73 000442   000001 702211                    TSX2  ! 1,X1
      411      989        %EOD;

PL6.E3A0      #005=FINDLOCALCONTEXT File=LR_ERRPTH.:Z8A6TSI                      SAT 08/09/97 09:29 Page:138
--  Include file information  --

   LR_ERR_EXT.:Z8A6TOU  cannot be made into a system file and is referenced.
   LR_CNFG_EXT.:Z8A6TOU  cannot be made into a system file and is referenced.
   LR_IO_EXT.:Z8A6TOU  cannot be made into a system file and is referenced.
   LR_GRAM_EXT.:Z8A6TOU  cannot be made into a system file and is referenced.
      No diagnostics issued in procedure FINDLOCALCONTEXT.
PL6.E3A0      #005=FINDLOCALCONTEXT File=LR_ERRPTH.:Z8A6TSI                      SAT 08/09/97 09:29 Page:139

 **** Variables and constants ****

  ****  Section 000  Data  FINDLOCALCONTEXT

  ****  Scalars and arrays  ****
OctLoc.c.b A Datatyp(siz) R M Lvl/name                 OctLoc.c.b A Datatyp(siz) R M Lvl/name

     1-0-0/w PTR         r     1 @STATE                    11-0-0/w SBIN        r     1 CHOICE
     7-0-0/b BIT         r     1 DONE                       2-0-0/w SBIN        r     1 ITEM
    10-0-0/w SBIN        r     1 MINCOST                    4-0-0/w SBIN        r     1 N
     6-0-0/w SBIN        r     1 NB                         5-0-0/w SBIN        r     1 SOURCE
    *0-0-0/w SBIN        r     1 STATE                      3-0-0/w SBIN        r     1 TITEM

  ****  Section 001 LblCom OUT_DCBN

  ****  Scalars and arrays  ****
OctLoc.c.b A Datatyp(siz) R M Lvl/name                 OctLoc.c.b A Datatyp(siz) R M Lvl/name

     0-0-0/w SBIN              1 OUT_DCBN

  ****  Section 007 LblCom SYM_PTRS

  ****  Scalars and arrays  ****
OctLoc.c.b A Datatyp(siz) R M Lvl/name                 OctLoc.c.b A Datatyp(siz) R M Lvl/name

     0-0-0/w PTR               1 SYM_PTRS(0:1400)

  ****  Section 008 LblCom RIGHT_PARTS

  ****  Scalars and arrays  ****
OctLoc.c.b A Datatyp(siz) R M Lvl/name                 OctLoc.c.b A Datatyp(siz) R M Lvl/name

     0-0-0/h SBIN(18)          1 RIGHT_PARTS(0:8000)

  ****  Section 009 LblCom PROD

  ****  Scalars and arrays  ****
PL6.E3A0      #005=FINDLOCALCONTEXT File=LR_ERRPTH.:Z8A6TSI                      SAT 08/09/97 09:29 Page:140
OctLoc.c.b A Datatyp(siz) R M Lvl/name                 OctLoc.c.b A Datatyp(siz) R M Lvl/name

     0-0-0/h STRC(72)          1 PROD(0:1500)

  ****  Section 010 LblCom NR_PROD

  ****  Scalars and arrays  ****
OctLoc.c.b A Datatyp(siz) R M Lvl/name                 OctLoc.c.b A Datatyp(siz) R M Lvl/name

     0-0-0/w SBIN              1 NR_PROD

  ****  Section 011 LblCom NR_SYMS

  ****  Scalars and arrays  ****
OctLoc.c.b A Datatyp(siz) R M Lvl/name                 OctLoc.c.b A Datatyp(siz) R M Lvl/name

     0-0-0/w SBIN              1 NR_SYMS

  ****  Section 012 LblCom NR_TERM

  ****  Scalars and arrays  ****
OctLoc.c.b A Datatyp(siz) R M Lvl/name                 OctLoc.c.b A Datatyp(siz) R M Lvl/name

     0-0-0/w SBIN              1 NR_TERM

  ****  Section 013 LblCom LAST_ACT

  ****  Scalars and arrays  ****
OctLoc.c.b A Datatyp(siz) R M Lvl/name                 OctLoc.c.b A Datatyp(siz) R M Lvl/name

     0-0-0/w SBIN              1 LAST_ACT

  ****  Section 014 LblCom LAST_NULL

  ****  Scalars and arrays  ****
OctLoc.c.b A Datatyp(siz) R M Lvl/name                 OctLoc.c.b A Datatyp(siz) R M Lvl/name

PL6.E3A0      #005=FINDLOCALCONTEXT File=LR_ERRPTH.:Z8A6TSI                      SAT 08/09/97 09:29 Page:141
     0-0-0/w SBIN              1 LAST_NULL

  ****  Section 015 LblCom NR_ONRIGHT

  ****  Scalars and arrays  ****
OctLoc.c.b A Datatyp(siz) R M Lvl/name                 OctLoc.c.b A Datatyp(siz) R M Lvl/name

     0-0-0/w SBIN              1 NR_ONRIGHT

  ****  Section 016 LblCom NR_NT

  ****  Scalars and arrays  ****
OctLoc.c.b A Datatyp(siz) R M Lvl/name                 OctLoc.c.b A Datatyp(siz) R M Lvl/name

     0-0-0/w SBIN              1 NR_NT

  ****  Section 017 LblCom PROD_LEN_MAX_EVER

  ****  Scalars and arrays  ****
OctLoc.c.b A Datatyp(siz) R M Lvl/name                 OctLoc.c.b A Datatyp(siz) R M Lvl/name

     0-0-0/w SBIN              1 PROD_LEN_MAX_EVER

  ****  Section 018 LblCom LAST_ORDER_SPECIFIED

  ****  Scalars and arrays  ****
OctLoc.c.b A Datatyp(siz) R M Lvl/name                 OctLoc.c.b A Datatyp(siz) R M Lvl/name

     0-0-0/w SBIN              1 LAST_ORDER_SPECIFIED

  ****  Section 019 LblCom SEMANTIC_ORDERING

  ****  Scalars and arrays  ****
OctLoc.c.b A Datatyp(siz) R M Lvl/name                 OctLoc.c.b A Datatyp(siz) R M Lvl/name

     0-0-0/b BIT               1 SEMANTIC_ORDERING

PL6.E3A0      #005=FINDLOCALCONTEXT File=LR_ERRPTH.:Z8A6TSI                      SAT 08/09/97 09:29 Page:142
  ****  Section 020 LblCom ERR_SEV

  ****  Scalars and arrays  ****
OctLoc.c.b A Datatyp(siz) R M Lvl/name                 OctLoc.c.b A Datatyp(siz) R M Lvl/name

     0-0-0/w SBIN              1 ERR_SEV

  ****  Section 021 LblCom SET_LENGTHB

  ****  Scalars and arrays  ****
OctLoc.c.b A Datatyp(siz) R M Lvl/name                 OctLoc.c.b A Datatyp(siz) R M Lvl/name

     0-0-0/w SBIN              1 SET_LENGTHB

  ****  Section 022 LblCom SET_LENGTHW

  ****  Scalars and arrays  ****
OctLoc.c.b A Datatyp(siz) R M Lvl/name                 OctLoc.c.b A Datatyp(siz) R M Lvl/name

     0-0-0/w SBIN              1 SET_LENGTHW

  ****  Section 023 LblCom EOF_SYMBOL_PTR

  ****  Scalars and arrays  ****
OctLoc.c.b A Datatyp(siz) R M Lvl/name                 OctLoc.c.b A Datatyp(siz) R M Lvl/name

     0-0-0/w PTR               1 EOF_SYMBOL_PTR

  ****  Section 024 LblCom ERROR_SYMBOL_PTR

  ****  Scalars and arrays  ****
OctLoc.c.b A Datatyp(siz) R M Lvl/name                 OctLoc.c.b A Datatyp(siz) R M Lvl/name

     0-0-0/w PTR               1 ERROR_SYMBOL_PTR

  ****  Section 025 LblCom BOF_SYMBOL_PTR

PL6.E3A0      #005=FINDLOCALCONTEXT File=LR_ERRPTH.:Z8A6TSI                      SAT 08/09/97 09:29 Page:143
  ****  Scalars and arrays  ****
OctLoc.c.b A Datatyp(siz) R M Lvl/name                 OctLoc.c.b A Datatyp(siz) R M Lvl/name

     0-0-0/w PTR               1 BOF_SYMBOL_PTR

  ****  Section 026 LblCom OPTIONS

  ****  Scalars and arrays  ****
OctLoc.c.b A Datatyp(siz) R M Lvl/name                 OctLoc.c.b A Datatyp(siz) R M Lvl/name

     0-0-0/b BIT               1 OPTIONS(0:25)

  ****  Section 027 LblCom OPTIONS_TEXT

  ****  Scalars and arrays  ****
OctLoc.c.b A Datatyp(siz) R M Lvl/name                 OctLoc.c.b A Datatyp(siz) R M Lvl/name

     0-0-0/c CHAR(4)           1 OPTIONS_TEXT(0:25)

  ****  Section 028 LblCom INSTR

  ****  Scalars and arrays  ****
OctLoc.c.b A Datatyp(siz) R M Lvl/name                 OctLoc.c.b A Datatyp(siz) R M Lvl/name

     0-0-0/c CHAR              1 INSTR(0:511)               0-0-0/c CHAR(512)         1 INSTRCHR

  ****  Section 029 LblCom INSTR_LISTED

  ****  Scalars and arrays  ****
OctLoc.c.b A Datatyp(siz) R M Lvl/name                 OctLoc.c.b A Datatyp(siz) R M Lvl/name

     0-0-0/b BIT               1 INSTR_LISTED

  ****  Section 030 LblCom INSTR_LEN

  ****  Scalars and arrays  ****
OctLoc.c.b A Datatyp(siz) R M Lvl/name                 OctLoc.c.b A Datatyp(siz) R M Lvl/name
PL6.E3A0      #005=FINDLOCALCONTEXT File=LR_ERRPTH.:Z8A6TSI                      SAT 08/09/97 09:29 Page:144

     0-0-0/w SBIN              1 INSTR_LEN

  ****  Section 031 LblCom INSTR_INDX

  ****  Scalars and arrays  ****
OctLoc.c.b A Datatyp(siz) R M Lvl/name                 OctLoc.c.b A Datatyp(siz) R M Lvl/name

     0-0-0/w SBIN              1 INSTR_INDX

  ****  Section 032 LblCom EOF_FLAG

  ****  Scalars and arrays  ****
OctLoc.c.b A Datatyp(siz) R M Lvl/name                 OctLoc.c.b A Datatyp(siz) R M Lvl/name

     0-0-0/b BIT               1 EOF_FLAG

  ****  Section 033 LblCom KEY_REC

  ****  Scalars and arrays  ****
OctLoc.c.b A Datatyp(siz) R M Lvl/name                 OctLoc.c.b A Datatyp(siz) R M Lvl/name

     0-0-0/c CHAR(10)          1 KEY_REC

  ****  Section 034 LblCom LINE

  ****  Scalars and arrays  ****
OctLoc.c.b A Datatyp(siz) R M Lvl/name                 OctLoc.c.b A Datatyp(siz) R M Lvl/name

     0-0-0/c CHAR(109)         1 LINE

  ****  Section 035 LblCom LINELEN

  ****  Scalars and arrays  ****
OctLoc.c.b A Datatyp(siz) R M Lvl/name                 OctLoc.c.b A Datatyp(siz) R M Lvl/name

     0-0-0/w SBIN              1 LINELEN
PL6.E3A0      #005=FINDLOCALCONTEXT File=LR_ERRPTH.:Z8A6TSI                      SAT 08/09/97 09:29 Page:145

  ****  Section 036 LblCom TSTATS

  ****  Scalars and arrays  ****
OctLoc.c.b A Datatyp(siz) R M Lvl/name                 OctLoc.c.b A Datatyp(siz) R M Lvl/name

     0-0-0/w STRC(7380)  r     1 TSTATS

  ****  Section 037 LblCom C#_TO_$

  ****  Scalars and arrays  ****
OctLoc.c.b A Datatyp(siz) R M Lvl/name                 OctLoc.c.b A Datatyp(siz) R M Lvl/name

     0-0-0/w PTR         r     1 C#_TO_$(0:2200)

  ****  Section 038 LblCom NR_CONFIG

  ****  Scalars and arrays  ****
OctLoc.c.b A Datatyp(siz) R M Lvl/name                 OctLoc.c.b A Datatyp(siz) R M Lvl/name

     0-0-0/w SBIN              1 NR_CONFIG

  ****  Section 039 LblCom INIT_CONFIG

  ****  Scalars and arrays  ****
OctLoc.c.b A Datatyp(siz) R M Lvl/name                 OctLoc.c.b A Datatyp(siz) R M Lvl/name

     0-0-0/w SBIN              1 INIT_CONFIG

  ****  Section 040 LblCom MAX_BASIS_ITEMS

  ****  Scalars and arrays  ****
OctLoc.c.b A Datatyp(siz) R M Lvl/name                 OctLoc.c.b A Datatyp(siz) R M Lvl/name

     0-0-0/w SBIN              1 MAX_BASIS_ITEMS

  ****  Section 041 LblCom MAX_TOTAL_ITEMS
PL6.E3A0      #005=FINDLOCALCONTEXT File=LR_ERRPTH.:Z8A6TSI                      SAT 08/09/97 09:29 Page:146

  ****  Scalars and arrays  ****
OctLoc.c.b A Datatyp(siz) R M Lvl/name                 OctLoc.c.b A Datatyp(siz) R M Lvl/name

     0-0-0/w SBIN              1 MAX_TOTAL_ITEMS

  ****  Section 042 LblCom LAST_BINSRCH_ONLY

  ****  Scalars and arrays  ****
OctLoc.c.b A Datatyp(siz) R M Lvl/name                 OctLoc.c.b A Datatyp(siz) R M Lvl/name

     0-0-0/w SBIN              1 LAST_BINSRCH_ONLY

  ****  Section 043 LblCom LAST_BOTH_BITBIN

  ****  Scalars and arrays  ****
OctLoc.c.b A Datatyp(siz) R M Lvl/name                 OctLoc.c.b A Datatyp(siz) R M Lvl/name

     0-0-0/w SBIN              1 LAST_BOTH_BITBIN

  ****  Section 044 LblCom GARBAGE

  ****  Scalars and arrays  ****
OctLoc.c.b A Datatyp(siz) R M Lvl/name                 OctLoc.c.b A Datatyp(siz) R M Lvl/name

     0-0-0/w PTR               1 GARBAGE(0:100)

  ****  Section 045 LblCom AMT_GARBAGE

  ****  Scalars and arrays  ****
OctLoc.c.b A Datatyp(siz) R M Lvl/name                 OctLoc.c.b A Datatyp(siz) R M Lvl/name

     0-0-0/w SBIN              1 AMT_GARBAGE

  ****  Section 046 LblCom LEAST_COST_STRING

  ****  Scalars and arrays  ****
PL6.E3A0      #005=FINDLOCALCONTEXT File=LR_ERRPTH.:Z8A6TSI                      SAT 08/09/97 09:29 Page:147
OctLoc.c.b A Datatyp(siz) R M Lvl/name                 OctLoc.c.b A Datatyp(siz) R M Lvl/name

     0-0-0/w PTR               1 LEAST_COST_STRING(0:1400)

  ****  Section 047 LblCom LEAST_COST_PREFIX

  ****  Scalars and arrays  ****
OctLoc.c.b A Datatyp(siz) R M Lvl/name                 OctLoc.c.b A Datatyp(siz) R M Lvl/name

     0-0-0/w PTR               1 LEAST_COST_PREFIX(0:1400)

  ****  Section 048 LblCom CURRE

  ****  Scalars and arrays  ****
OctLoc.c.b A Datatyp(siz) R M Lvl/name                 OctLoc.c.b A Datatyp(siz) R M Lvl/name

     0-0-0/d STRC(126)         1 CURRE(0:1400)

  ****  Section 049 LblCom LCP_INDX

  ****  Scalars and arrays  ****
OctLoc.c.b A Datatyp(siz) R M Lvl/name                 OctLoc.c.b A Datatyp(siz) R M Lvl/name

     0-0-0/h SBIN(18)          1 LCP_INDX(0:1400)

  ****  Section 050 LblCom COM_STRSP_LEN

  ****  Scalars and arrays  ****
OctLoc.c.b A Datatyp(siz) R M Lvl/name                 OctLoc.c.b A Datatyp(siz) R M Lvl/name

     0-0-0/w SBIN        r     1 COM_STRSP_LEN

  ****  Section 051 LblCom COM_SEARCH_STRING

  ****  Scalars and arrays  ****
OctLoc.c.b A Datatyp(siz) R M Lvl/name                 OctLoc.c.b A Datatyp(siz) R M Lvl/name

PL6.E3A0      #005=FINDLOCALCONTEXT File=LR_ERRPTH.:Z8A6TSI                      SAT 08/09/97 09:29 Page:148
     0-0-0/w PTR         r     1 COM_SEARCH_STRING

  ****  Section 052 LblCom COM_SEARCH_STRING_LEN

  ****  Scalars and arrays  ****
OctLoc.c.b A Datatyp(siz) R M Lvl/name                 OctLoc.c.b A Datatyp(siz) R M Lvl/name

     0-0-0/w SBIN        r     1 COM_SEARCH_STRING_LEN

  ****  Section 053 LblCom COM_STRING_SPACE_LEN

  ****  Scalars and arrays  ****
OctLoc.c.b A Datatyp(siz) R M Lvl/name                 OctLoc.c.b A Datatyp(siz) R M Lvl/name

     0-0-0/w SBIN        r     1 COM_STRING_SPACE_LEN

  ****  Section 054 LblCom COM_STRING_SPACE_H

  ****  Scalars and arrays  ****
OctLoc.c.b A Datatyp(siz) R M Lvl/name                 OctLoc.c.b A Datatyp(siz) R M Lvl/name

     0-0-0/h SBIN(18)    r     1 COM_STRING_SPACE_H(0:24999)

  ****  Section 055 LblCom COM_STRING_SPACE$

  ****  Scalars and arrays  ****
OctLoc.c.b A Datatyp(siz) R M Lvl/name                 OctLoc.c.b A Datatyp(siz) R M Lvl/name

     0-0-0/w PTR         r     1 COM_STRING_SPACE$

  ****  Section 056 LblCom COM_STRING_PTR

  ****  Scalars and arrays  ****
OctLoc.c.b A Datatyp(siz) R M Lvl/name                 OctLoc.c.b A Datatyp(siz) R M Lvl/name

     0-0-0/w PTR         r     1 COM_STRING_PTR

PL6.E3A0      #005=FINDLOCALCONTEXT File=LR_ERRPTH.:Z8A6TSI                      SAT 08/09/97 09:29 Page:149
  ****  Section 057 LblCom COM_STRING_INDX

  ****  Scalars and arrays  ****
OctLoc.c.b A Datatyp(siz) R M Lvl/name                 OctLoc.c.b A Datatyp(siz) R M Lvl/name

     0-0-0/w SBIN              1 COM_STRING_INDX

  ****  Section 058 LblCom LCP_TABLE_LEN

  ****  Scalars and arrays  ****
OctLoc.c.b A Datatyp(siz) R M Lvl/name                 OctLoc.c.b A Datatyp(siz) R M Lvl/name

     0-0-0/w SBIN              1 LCP_TABLE_LEN

  ****  Section 059 LblCom STATE_ITEM_INDEX

  ****  Scalars and arrays  ****
OctLoc.c.b A Datatyp(siz) R M Lvl/name                 OctLoc.c.b A Datatyp(siz) R M Lvl/name

     0-0-0/h STRC        r     1 STATE_ITEM_INDEX(0:2200)

  ****  Section 060 LblCom PATH

  ****  Scalars and arrays  ****
OctLoc.c.b A Datatyp(siz) R M Lvl/name                 OctLoc.c.b A Datatyp(siz) R M Lvl/name

     0-0-0/h STRC        r     1 PATH(0:17600)

  ****  Section 061 LblCom PATH_STRINGS_LEN

  ****  Scalars and arrays  ****
OctLoc.c.b A Datatyp(siz) R M Lvl/name                 OctLoc.c.b A Datatyp(siz) R M Lvl/name

     0-0-0/w SBIN        r     1 PATH_STRINGS_LEN

  ****  Section 062 LblCom PATH_ADDR$

PL6.E3A0      #005=FINDLOCALCONTEXT File=LR_ERRPTH.:Z8A6TSI                      SAT 08/09/97 09:29 Page:150
  ****  Scalars and arrays  ****
OctLoc.c.b A Datatyp(siz) R M Lvl/name                 OctLoc.c.b A Datatyp(siz) R M Lvl/name

     0-0-0/w PTR         r     1 PATH_ADDR$

  ****  Section 063 LblCom PATH_TABLE_LEN

  ****  Scalars and arrays  ****
OctLoc.c.b A Datatyp(siz) R M Lvl/name                 OctLoc.c.b A Datatyp(siz) R M Lvl/name

     0-0-0/w SBIN              1 PATH_TABLE_LEN

  ****  Section 064 LblCom EDGECOST

  ****  Scalars and arrays  ****
OctLoc.c.b A Datatyp(siz) R M Lvl/name                 OctLoc.c.b A Datatyp(siz) R M Lvl/name

     0-0-0/w SBIN        r     1 EDGECOST(0:400)

  ****  Section 065 LblCom ITEM_TABLE_LEN

  ****  Scalars and arrays  ****
OctLoc.c.b A Datatyp(siz) R M Lvl/name                 OctLoc.c.b A Datatyp(siz) R M Lvl/name

     0-0-0/w SBIN        r     1 ITEM_TABLE_LEN

  ****  Section 066 LblCom ORDERED_ITEM

  ****  Scalars and arrays  ****
OctLoc.c.b A Datatyp(siz) R M Lvl/name                 OctLoc.c.b A Datatyp(siz) R M Lvl/name

     0-0-0/h STRC        r     1 ORDERED_ITEM(0:400)

  ****  Section 067 LblCom NEIGHBOR

  ****  Scalars and arrays  ****
OctLoc.c.b A Datatyp(siz) R M Lvl/name                 OctLoc.c.b A Datatyp(siz) R M Lvl/name
PL6.E3A0      #005=FINDLOCALCONTEXT File=LR_ERRPTH.:Z8A6TSI                      SAT 08/09/97 09:29 Page:151

     0-0-0/w SBIN        r     1 NEIGHBOR(0:400)

  ****  Section 068 LblCom PATH_INFO

  ****  Scalars and arrays  ****
OctLoc.c.b A Datatyp(siz) R M Lvl/name                 OctLoc.c.b A Datatyp(siz) R M Lvl/name

     0-0-0/w STRC(28872) r     1 PATH_INFO

  ****  Section 069 LblCom CHOSEN

  ****  Scalars and arrays  ****
OctLoc.c.b A Datatyp(siz) R M Lvl/name                 OctLoc.c.b A Datatyp(siz) R M Lvl/name

     0-0-0/w BIT         r     1 CHOSEN(0:400)

  ****  Section 070 LblCom REACHED

  ****  Scalars and arrays  ****
OctLoc.c.b A Datatyp(siz) R M Lvl/name                 OctLoc.c.b A Datatyp(siz) R M Lvl/name

     0-0-0/b BIT               1 REACHED(0:400)

  ****  Section 071 LblCom EXP_PATH_INDX

  ****  Scalars and arrays  ****
OctLoc.c.b A Datatyp(siz) R M Lvl/name                 OctLoc.c.b A Datatyp(siz) R M Lvl/name

     0-0-0/w SBIN              1 EXP_PATH_INDX

  ****  BASED and DCB variables  ****

  ****  Scalars and arrays  ****
OctLoc.c.b A Datatyp(siz) R M Lvl/name                 OctLoc.c.b A Datatyp(siz) R M Lvl/name

     0-0-0/w STRC(72)          1 CELL                       0-0-0/c ACHR              1 COM_STRINGS
PL6.E3A0      #005=FINDLOCALCONTEXT File=LR_ERRPTH.:Z8A6TSI                      SAT 08/09/97 09:29 Page:152
     0-0-0/c ACHR              1 COM_STRING_SPACE           0-0-0/c ACHR              1 CSEARCH_STRING
     0-0-0/w STRC(57888) r     1 C_SET_B                    0-0-0/w STRC(72)          1 INCLUDES_B
     0-0-0/w STRC(144)         1 INCL_B                     0-0-0/w STRC(5436)  r     1 ITEM_B
     0-0-0/w STRC(5652)  r     1 KEY_B                      0-0-0N  NULL        r     1 M$LO
     0-0-0N  NULL        r     1 M$OU                       0-0-0N  NULL        r     1 M$SI
     0-0-0N  NULL        r     1 M$SO                       0-0-0N  NULL        r     1 M$UI
     0-0-0/c ACHR              1 PATH_STRINGS               0-0-0/w STRC(90)          1 PREFIX
     0-0-0/w ASTR(72)    r     1 PREFIXCHR                  0-0-0/w STRC              1 STRING
     0-0-0/w ASTR(18)    r     1 STRINGCHR                  0-0-0/w STRC(351)         1 SYMBOL


   Procedure FINDLOCALCONTEXT requires 291 words for executable code.
   Procedure FINDLOCALCONTEXT is declared NOAUTO and requires 14 words of local(STATIC) storage.

PL6.E3A0      #006=EXPAND_PATH File=LR_ERRPTH.:Z8A6TSI                           SAT 08/09/97 09:29 Page:153
      412        1        /*T***********************************************************/
      413        2        /*T*                                                         */
      414        3        /*T* Copyright (c) Bull HN Information Systems Inc., 1997    */
      415        4        /*T*                                                         */
      416        5        /*T***********************************************************/
      417        6        EXPAND_PATH : PROC(STATE, ITEM, SOURCE);
      418        7
      419        8        /*D*
      420        9               NAME: EXPAND_PATH
      421       10            PURPOSE: EXPAND THE PATH IN THE STATE'S CLOSURE GRAPH
      422       11                     FROM THE SOURCE ITEM TO THE DESTINATION ITEM.
      423       12        */
      424       13
      425       14
      426       15    1   DCL STATE  SBIN WORD;
      427       16    1   DCL ITEM   SBIN WORD;
      428       17    1   DCL SOURCE SBIN WORD;
      429       18
      430       19        %INCLUDE LR_GRAM_EXT;
      431      558        %INCLUDE LR_CNFG_EXT;
      432      711        %INCLUDE LR_ERR_EXT;
      433      854
      434      855
      435      856    1   DCL DP SBIN WORD;
      436      857    1   DCL P  SBIN WORD;
      437      858    1   DCL RP SBIN WORD;
      438      859
      439      860
      440      861    1   IF PATH_INFO.DEST(ITEM) ~= SOURCE THEN
      441      862    1     CALL EXPAND_PATH (STATE, BINBIT(PATH_INFO.DEST(ITEM), 36), SOURCE);
      442      863
      443      864    1   DP = C#_TO_$(STATE) -> C_SET_B.ELEM.KEY$(ORDERED_ITEM.E(ITEM)) ->
      444      865    1                                   KEY_B.ELEM.DOT_POS(ORDERED_ITEM.I(ITEM)) + 1;
      445      866    1   P = C#_TO_$(STATE) -> C_SET_B.ELEM.KEY$(ORDERED_ITEM.E(ITEM)) ->
      446      867    1                         KEY_B.ELEM.PROD(ORDERED_ITEM.I(ITEM));
      447      868
      448      869    2   DO RP = PROD.RIGHT_START(P) + DP TO PROD.RIGHT_START(P) + PROD.RIGHT_CNT(P) - 1;
PL6.E3A0      #006=EXPAND_PATH File=LR_ERRPTH.:Z8A6TSI                           SAT 08/09/97 09:29 Page:154
      449      870
      450      871    2     IF EXP_PATH_INDX < %MAX_STRSP_LEN_H THEN
      451      872    3       DO;
      452      873    3         COM_STRING_SPACE_H (EXP_PATH_INDX) = RIGHT_PARTS(RP);
      453      874    3         EXP_PATH_INDX = EXP_PATH_INDX + 1;
      454      875    3       END;
      455      876    2     ELSE
      456      877    2       CALL DIAG (15,
               877               'ERROR => Closure item path space exhausted during error table generation.%%'
               877                );
      457      878    2   END;
      458      879
      459      880    1   REACHED(ITEM) = TRUE;
      460      881
      461      882    1   END EXPAND_PATH;
      462      883        %EOD;

PL6.E3A0      #006=EXPAND_PATH File=LR_ERRPTH.:Z8A6TSI                           SAT 08/09/97 09:29 Page:155
--  Include file information  --

   LR_ERR_EXT.:Z8A6TOU  cannot be made into a system file and is referenced.
   LR_CNFG_EXT.:Z8A6TOU  cannot be made into a system file and is referenced.
   LR_IO_EXT.:Z8A6TOU  cannot be made into a system file and is referenced.
   LR_GRAM_EXT.:Z8A6TOU  cannot be made into a system file and is referenced.
      No diagnostics issued in procedure EXPAND_PATH.

   Procedure EXPAND_PATH requires 93 words for executable code.
   Procedure EXPAND_PATH requires 14 words of local(AUTO) storage.

PL6.E3A0      #006=EXPAND_PATH File=LR_ERRPTH.:Z8A6TSI                           SAT 08/09/97 09:29 Page:156

 Object Unit name= EXPAND_PATH                                File name= LR_ERRPTH.:Z8A6TOU
 UTS= AUG 09 '97 09:29:56.92 SAT                              Compiler= PL-6/E31         Sev=      00
 SharedLib= :SHARED_SYSTEM                                    Alt SharedLib=


    ****  Control sections  ****

 Sect   Type Bound  Init  Size OctSiz  Section name(segment info)
    0  LblCom even  none     1      1  OUT_DCBN
    1   DCB   even  none     0      0  M$OU
    2   DCB   even  none     0      0  M$SO
    3   DCB   even  none     0      0  M$LO
    4   DCB   even  none     0      0  M$SI
    5   DCB   even  none     0      0  M$UI
    6  LblCom even  none  1401   2571  SYM_PTRS
    7  LblCom even  none  4001   7641  RIGHT_PARTS
    8  LblCom even  none  3002   5672  PROD
    9  LblCom even  none     1      1  NR_PROD
   10  LblCom even  none     1      1  NR_SYMS
   11  LblCom even  none     1      1  NR_TERM
   12  LblCom even  none     1      1  LAST_ACT
   13  LblCom even  none     1      1  LAST_NULL
   14  LblCom even  none     1      1  NR_ONRIGHT
   15  LblCom even  none     1      1  NR_NT
   16  LblCom even  none     1      1  PROD_LEN_MAX_EVER
   17  LblCom even  none     1      1  LAST_ORDER_SPECIFIED
   18  LblCom even  none     1      1  SEMANTIC_ORDERING
   19  LblCom even  none     1      1  ERR_SEV
   20  LblCom even  none     1      1  SET_LENGTHB
   21  LblCom even  none     1      1  SET_LENGTHW
   22  LblCom even  none     1      1  EOF_SYMBOL_PTR
   23  LblCom even  none     1      1  ERROR_SYMBOL_PTR
   24  LblCom even  none     1      1  BOF_SYMBOL_PTR
   25  LblCom even  none     1      1  OPTIONS
   26  LblCom even  none    26     32  OPTIONS_TEXT
   27  LblCom even  none   128    200  INSTR
   28  LblCom even  none     1      1  INSTR_LISTED
PL6.E3A0      #006=EXPAND_PATH File=LR_ERRPTH.:Z8A6TSI                           SAT 08/09/97 09:29 Page:157
   29  LblCom even  none     1      1  INSTR_LEN
   30  LblCom even  none     1      1  INSTR_INDX
   31  LblCom even  none     1      1  EOF_FLAG
   32  LblCom even  none     3      3  KEY_REC
   33  LblCom even  none    28     34  LINE
   34  LblCom even  none     1      1  LINELEN
   35  LblCom even  none   205    315  TSTATS
   36  LblCom even  none  2201   4231  C#_TO_$
   37  LblCom even  none     1      1  NR_CONFIG
   38  LblCom even  none     1      1  INIT_CONFIG
   39  LblCom even  none     1      1  MAX_BASIS_ITEMS
   40  LblCom even  none     1      1  MAX_TOTAL_ITEMS
   41  LblCom even  none     1      1  LAST_BINSRCH_ONLY
   42  LblCom even  none     1      1  LAST_BOTH_BITBIN
   43  LblCom even  none   101    145  GARBAGE
   44  LblCom even  none     1      1  AMT_GARBAGE
   45  LblCom even  none  1401   2571  LEAST_COST_STRING
   46  LblCom even  none  1401   2571  LEAST_COST_PREFIX
   47  LblCom even  none  5604  12744  CURRE
   48  LblCom even  none   701   1275  LCP_INDX
   49  LblCom even  none     1      1  COM_STRSP_LEN
   50  LblCom even  none     1      1  COM_SEARCH_STRING
   51  LblCom even  none     1      1  COM_SEARCH_STRING_LEN
   52  LblCom even  none     1      1  COM_STRING_SPACE_LEN
   53  LblCom even  none 12500  30324  COM_STRING_SPACE_H
   54  LblCom even  none     1      1  COM_STRING_SPACE$
   55  LblCom even  none     1      1  COM_STRING_PTR
   56  LblCom even  none     1      1  COM_STRING_INDX
   57  LblCom even  none     1      1  LCP_TABLE_LEN
   58  LblCom even  none  2201   4231  STATE_ITEM_INDEX
   59  LblCom even  none 17601  42301  PATH
   60  LblCom even  none     1      1  PATH_STRINGS_LEN
   61  LblCom even  none     1      1  PATH_ADDR$
   62  LblCom even  none     1      1  PATH_TABLE_LEN
   63  LblCom even  none   401    621  EDGECOST
   64  LblCom even  none     1      1  ITEM_TABLE_LEN
   65  LblCom even  none   401    621  ORDERED_ITEM
PL6.E3A0      #006=EXPAND_PATH File=LR_ERRPTH.:Z8A6TSI                           SAT 08/09/97 09:29 Page:158
   66  LblCom even  none   401    621  NEIGHBOR
   67  LblCom even  none   802   1442  PATH_INFO
   68  LblCom even  none   401    621  CHOSEN
   69  LblCom even  none    12     14  REACHED
   70  LblCom even  none     1      1  EXP_PATH_INDX
   71  RoData even  UTS     19     23  EXPAND_PATH
   72   Proc  even  none    93    135  EXPAND_PATH
   73  RoData even  none     7      7  EXPAND_PATH

    ****  Entry defs  ****

                              Check   Calling
                             calling  sequence
  Sect OctLoc Primary Altret sequence   type   Parms  Name
    72      0   yes            yes      Std        3  EXPAND_PATH

  ****  Entry refs  ****

         Check        Calling
        calling       sequence
Altret sequence SRef   type   Args  Name
         yes           Std       6 DIAG
                       nStd      0 X66_AUTO_3
                       nStd      0 X66_ARET

  ****  Data refs  ****

  Flags:  r = read only, s = secondary
Flgs Name                             Flgs Name                             Flgs Name
     M$OU                                  M$SO                                  M$LO
     M$SI                                  M$UI
PL6.E3A0      #006=EXPAND_PATH File=LR_ERRPTH.:Z8A6TSI                           SAT 08/09/97 09:29 Page:159

  ****  Segment refs  ****

  Flags:  r = read only, s = secondary
Flgs Name                             Flgs Name                             Flgs Name
     NULLSID                               ISSID
PL6.E3A0      #006=EXPAND_PATH File=LR_ERRPTH.:Z8A6TSI                           SAT 08/09/97 09:29 Page:160


      412        1        /*T***********************************************************/
      413        2        /*T*                                                         */
      414        3        /*T* Copyright (c) Bull HN Information Systems Inc., 1997    */
      415        4        /*T*                                                         */
      416        5        /*T***********************************************************/
      417        6        EXPAND_PATH : PROC(STATE, ITEM, SOURCE);

      6 72 000000   000000 700200 xent  EXPAND_PATH  TSX0  ! X66_AUTO_3
        72 000001   000016 000003                    ZERO    14,3

      418        7
      419        8        /*D*
      420        9               NAME: EXPAND_PATH
      421       10            PURPOSE: EXPAND THE PATH IN THE STATE'S CLOSURE GRAPH
      422       11                     FROM THE SOURCE ITEM TO THE DESTINATION ITEM.
      423       12        */
      424       13
      425       14
      426       15    1   DCL STATE  SBIN WORD;
      427       16    1   DCL ITEM   SBIN WORD;
      428       17    1   DCL SOURCE SBIN WORD;
      429       18
      430       19        %INCLUDE LR_GRAM_EXT;
      431      558        %INCLUDE LR_CNFG_EXT;
      432      711        %INCLUDE LR_ERR_EXT;
      433      854
      434      855
      435      856    1   DCL DP SBIN WORD;
      436      857    1   DCL P  SBIN WORD;
      437      858    1   DCL RP SBIN WORD;
      438      859
      439      860
      440      861    1   IF PATH_INFO.DEST(ITEM) ~= SOURCE THEN

    861 72 000002   200004 470500                    LDP0    @ITEM,,AUTO
        72 000003   000000 720100                    LXL0    0,,PR0
PL6.E3A0      #006=EXPAND_PATH File=LR_ERRPTH.:Z8A6TSI                           SAT 08/09/97 09:29 Page:161
        72 000004   200005 471500                    LDP1    @SOURCE,,AUTO
        72 000005   000000 236010 67                 LDQ     PATH_INFO,X0
        72 000006   100000 116100                    CMPQ    0,,PR1
        72 000007   000023 600000 72                 TZE     s:864

      441      862    1     CALL EXPAND_PATH (STATE, BINBIT(PATH_INFO.DEST(ITEM), 36), SOURCE);

    862 72 000010   000000 720100                    LXL0    0,,PR0
        72 000011   200005 236100                    LDQ     @SOURCE,,AUTO
        72 000012   200014 756100                    STQ     RP+4,,AUTO
        72 000013   000000 633410 67                 EPPR3   PATH_INFO,X0
        72 000014   200013 453500                    STP3    RP+3,,AUTO
        72 000015   200003 236100                    LDQ     @STATE,,AUTO
        72 000016   200012 756100                    STQ     RP+2,,AUTO
        72 000017   200012 630500                    EPPR0   RP+2,,AUTO
        72 000020   000000 631400 73                 EPPR1   0
        72 000021   000000 701000 72                 TSX1    s:6
        72 000022   000000 011000                    NOP     0

      442      863
      443      864    1   DP = C#_TO_$(STATE) -> C_SET_B.ELEM.KEY$(ORDERED_ITEM.E(ITEM)) ->

    864 72 000023   200003 470500                    LDP0    @STATE,,AUTO
        72 000024   000000 720100                    LXL0    0,,PR0
        72 000025   200004 471500                    LDP1    @ITEM,,AUTO
        72 000026   100000 721100                    LXL1    0,,PR1
        72 000027   000000 473410 36                 LDP3    C#_TO_$,X0
        72 000030   000000 236011 65                 LDQ     ORDERED_ITEM,X1
        72 000031   000020 732000                    QRS     16
        72 000032   000001 376000 73                 ANQ     1
        72 000033   100000 235100                    LDA     0,,PR1
        72 000034   300004 474506                    LDP4    4,QL,PR3
        72 000035   000000 236005 65                 LDQ     ORDERED_ITEM,AL
        72 000036   000022 736000                    QLS     18
        72 000037   000022 732000                    QRS     18
        72 000040   400006 236106                    LDQ     6,QL,PR4
        72 000041   777777 376007                    ANQ     -1,DL
PL6.E3A0      #006=EXPAND_PATH File=LR_ERRPTH.:Z8A6TSI                           SAT 08/09/97 09:29 Page:162
        72 000042   000001 036007                    ADLQ    1,DL
        72 000043   200006 756100                    STQ     DP,,AUTO

      444      865    1                                   KEY_B.ELEM.DOT_POS(ORDERED_ITEM.I(ITEM)) + 1;
      445      866    1   P = C#_TO_$(STATE) -> C_SET_B.ELEM.KEY$(ORDERED_ITEM.E(ITEM)) ->

    866 72 000044   000000 720100                    LXL0    0,,PR0
        72 000045   100000 721100                    LXL1    0,,PR1
        72 000046   000000 473410 36                 LDP3    C#_TO_$,X0
        72 000047   000000 236011 65                 LDQ     ORDERED_ITEM,X1
        72 000050   000020 732000                    QRS     16
        72 000051   000001 376000 73                 ANQ     1
        72 000052   100000 235100                    LDA     0,,PR1
        72 000053   300004 474506                    LDP4    4,QL,PR3
        72 000054   000000 236005 65                 LDQ     ORDERED_ITEM,AL
        72 000055   000022 736000                    QLS     18
        72 000056   000022 732000                    QRS     18
        72 000057   400006 236106                    LDQ     6,QL,PR4
        72 000060   000022 772000                    QRL     18
        72 000061   200007 756100                    STQ     P,,AUTO

      446      867    1                         KEY_B.ELEM.PROD(ORDERED_ITEM.I(ITEM));
      447      868
      448      869    2   DO RP = PROD.RIGHT_START(P) + DP TO PROD.RIGHT_START(P) + PROD.RIGHT_CNT(P) - 1;

    869 72 000062   200007 235100                    LDA     P,,AUTO
        72 000063   000001 735000                    ALS     1
        72 000064   000001 236005 8                  LDQ     PROD+1,AL
        72 000065   000022 736000                    QLS     18
        72 000066   000022 732000                    QRS     18
        72 000067   200006 036100                    ADLQ    DP,,AUTO
        72 000070   200010 756100                    STQ     RP,,AUTO
        72 000071   000112 710000 72                 TRA     s:878+1

      449      870
      450      871    2     IF EXP_PATH_INDX < %MAX_STRSP_LEN_H THEN

PL6.E3A0      #006=EXPAND_PATH File=LR_ERRPTH.:Z8A6TSI                           SAT 08/09/97 09:29 Page:163
    871 72 000072   000000 235000 70                 LDA     EXP_PATH_INDX
        72 000073   060647 115007                    CMPA    24999,DL
        72 000074   000105 605000 72                 TPL     s:877

      451      872    3       DO;

      452      873    3         COM_STRING_SPACE_H (EXP_PATH_INDX) = RIGHT_PARTS(RP);

    873 72 000075   200010 236100                    LDQ     RP,,AUTO
        72 000076   000001 736000                    QLS     1
        72 000077   000001 735000                    ALS     1
        72 000100   000005 100406                    MLR     fill='000'O
        72 000101   000000 000002 7                  ADSC9   RIGHT_PARTS,Q            cn=0,n=2
        72 000102   000000 000002 53                 ADSC9   COM_STRING_SPACE_H,A     cn=0,n=2

      453      874    3         EXP_PATH_INDX = EXP_PATH_INDX + 1;

    874 72 000103   000000 054000 70                 AOS     EXP_PATH_INDX

      454      875    3       END;

    875 72 000104   000111 710000 72                 TRA     s:878

      455      876    2     ELSE
      456      877    2       CALL DIAG (15,
               877              'ERROR => Closure item path space exhausted during error table generation.%%'
               877                );

    877 72 000105   000004 630400 73                 EPPR0   4
        72 000106   000002 631400 73                 EPPR1   2
        72 000107   000000 701000 xent               TSX1    DIAG
        72 000110   000000 011000                    NOP     0

      457      878    2   END;

    878 72 000111   200010 054100                    AOS     RP,,AUTO
        72 000112   200007 235100                    LDA     P,,AUTO
PL6.E3A0      #006=EXPAND_PATH File=LR_ERRPTH.:Z8A6TSI                           SAT 08/09/97 09:29 Page:164
        72 000113   000001 735000                    ALS     1
        72 000114   000001 236005 8                  LDQ     PROD+1,AL
        72 000115   000022 732000                    QRS     18
        72 000116   200012 756100                    STQ     RP+2,,AUTO
        72 000117   000001 236005 8                  LDQ     PROD+1,AL
        72 000120   000022 736000                    QLS     18
        72 000121   000022 732000                    QRS     18
        72 000122   200012 036100                    ADLQ    RP+2,,AUTO
        72 000123   200010 116100                    CMPQ    RP,,AUTO
        72 000124   000072 605400 72                 TPNZ    s:871

      458      879
      459      880    1   REACHED(ITEM) = TRUE;

    880 72 000125   200004 470500                    LDP0    @ITEM,,AUTO
        72 000126   000000 235100                    LDA     0,,PR0
        72 000127   000131 605000 72                 TPL     s:880+4
        72 000130   000044 035003                    ADLA    36,DU
        72 000131   003005 060400                    CSL     bolr='003'O
        72 000132   000006 000001 73                 BDSC    6                        by=0,bit=0,n=1
        72 000133   000000 000001 69                 BDSC    REACHED,A                by=0,bit=0,n=1

      460      881
      461      882    1   END EXPAND_PATH;

    882 72 000134   000000 702200 xent               TSX2  ! X66_ARET
      462      883        %EOD;

PL6.E3A0      #006=EXPAND_PATH File=LR_ERRPTH.:Z8A6TSI                           SAT 08/09/97 09:29 Page:165
--  Include file information  --

   LR_ERR_EXT.:Z8A6TOU  cannot be made into a system file and is referenced.
   LR_CNFG_EXT.:Z8A6TOU  cannot be made into a system file and is referenced.
   LR_IO_EXT.:Z8A6TOU  cannot be made into a system file and is referenced.
   LR_GRAM_EXT.:Z8A6TOU  cannot be made into a system file and is referenced.
      No diagnostics issued in procedure EXPAND_PATH.
PL6.E3A0      #006=EXPAND_PATH File=LR_ERRPTH.:Z8A6TSI                           SAT 08/09/97 09:29 Page:166

 **** Variables and constants ****

  ****  Section 000 LblCom OUT_DCBN

  ****  Scalars and arrays  ****
OctLoc.c.b A Datatyp(siz) R M Lvl/name                 OctLoc.c.b A Datatyp(siz) R M Lvl/name

     0-0-0/w SBIN              1 OUT_DCBN

  ****  Section 006 LblCom SYM_PTRS

  ****  Scalars and arrays  ****
OctLoc.c.b A Datatyp(siz) R M Lvl/name                 OctLoc.c.b A Datatyp(siz) R M Lvl/name

     0-0-0/w PTR               1 SYM_PTRS(0:1400)

  ****  Section 007 LblCom RIGHT_PARTS

  ****  Scalars and arrays  ****
OctLoc.c.b A Datatyp(siz) R M Lvl/name                 OctLoc.c.b A Datatyp(siz) R M Lvl/name

     0-0-0/h SBIN(18)    r     1 RIGHT_PARTS(0:8000)

  ****  Section 008 LblCom PROD

  ****  Scalars and arrays  ****
OctLoc.c.b A Datatyp(siz) R M Lvl/name                 OctLoc.c.b A Datatyp(siz) R M Lvl/name

     0-0-0/h STRC(72)    r     1 PROD(0:1500)

  ****  Section 009 LblCom NR_PROD

  ****  Scalars and arrays  ****
OctLoc.c.b A Datatyp(siz) R M Lvl/name                 OctLoc.c.b A Datatyp(siz) R M Lvl/name

     0-0-0/w SBIN              1 NR_PROD

PL6.E3A0      #006=EXPAND_PATH File=LR_ERRPTH.:Z8A6TSI                           SAT 08/09/97 09:29 Page:167
  ****  Section 010 LblCom NR_SYMS

  ****  Scalars and arrays  ****
OctLoc.c.b A Datatyp(siz) R M Lvl/name                 OctLoc.c.b A Datatyp(siz) R M Lvl/name

     0-0-0/w SBIN              1 NR_SYMS

  ****  Section 011 LblCom NR_TERM

  ****  Scalars and arrays  ****
OctLoc.c.b A Datatyp(siz) R M Lvl/name                 OctLoc.c.b A Datatyp(siz) R M Lvl/name

     0-0-0/w SBIN              1 NR_TERM

  ****  Section 012 LblCom LAST_ACT

  ****  Scalars and arrays  ****
OctLoc.c.b A Datatyp(siz) R M Lvl/name                 OctLoc.c.b A Datatyp(siz) R M Lvl/name

     0-0-0/w SBIN              1 LAST_ACT

  ****  Section 013 LblCom LAST_NULL

  ****  Scalars and arrays  ****
OctLoc.c.b A Datatyp(siz) R M Lvl/name                 OctLoc.c.b A Datatyp(siz) R M Lvl/name

     0-0-0/w SBIN              1 LAST_NULL

  ****  Section 014 LblCom NR_ONRIGHT

  ****  Scalars and arrays  ****
OctLoc.c.b A Datatyp(siz) R M Lvl/name                 OctLoc.c.b A Datatyp(siz) R M Lvl/name

     0-0-0/w SBIN              1 NR_ONRIGHT

  ****  Section 015 LblCom NR_NT

PL6.E3A0      #006=EXPAND_PATH File=LR_ERRPTH.:Z8A6TSI                           SAT 08/09/97 09:29 Page:168
  ****  Scalars and arrays  ****
OctLoc.c.b A Datatyp(siz) R M Lvl/name                 OctLoc.c.b A Datatyp(siz) R M Lvl/name

     0-0-0/w SBIN              1 NR_NT

  ****  Section 016 LblCom PROD_LEN_MAX_EVER

  ****  Scalars and arrays  ****
OctLoc.c.b A Datatyp(siz) R M Lvl/name                 OctLoc.c.b A Datatyp(siz) R M Lvl/name

     0-0-0/w SBIN              1 PROD_LEN_MAX_EVER

  ****  Section 017 LblCom LAST_ORDER_SPECIFIED

  ****  Scalars and arrays  ****
OctLoc.c.b A Datatyp(siz) R M Lvl/name                 OctLoc.c.b A Datatyp(siz) R M Lvl/name

     0-0-0/w SBIN              1 LAST_ORDER_SPECIFIED

  ****  Section 018 LblCom SEMANTIC_ORDERING

  ****  Scalars and arrays  ****
OctLoc.c.b A Datatyp(siz) R M Lvl/name                 OctLoc.c.b A Datatyp(siz) R M Lvl/name

     0-0-0/b BIT               1 SEMANTIC_ORDERING

  ****  Section 019 LblCom ERR_SEV

  ****  Scalars and arrays  ****
OctLoc.c.b A Datatyp(siz) R M Lvl/name                 OctLoc.c.b A Datatyp(siz) R M Lvl/name

     0-0-0/w SBIN              1 ERR_SEV

  ****  Section 020 LblCom SET_LENGTHB

  ****  Scalars and arrays  ****
OctLoc.c.b A Datatyp(siz) R M Lvl/name                 OctLoc.c.b A Datatyp(siz) R M Lvl/name
PL6.E3A0      #006=EXPAND_PATH File=LR_ERRPTH.:Z8A6TSI                           SAT 08/09/97 09:29 Page:169

     0-0-0/w SBIN              1 SET_LENGTHB

  ****  Section 021 LblCom SET_LENGTHW

  ****  Scalars and arrays  ****
OctLoc.c.b A Datatyp(siz) R M Lvl/name                 OctLoc.c.b A Datatyp(siz) R M Lvl/name

     0-0-0/w SBIN              1 SET_LENGTHW

  ****  Section 022 LblCom EOF_SYMBOL_PTR

  ****  Scalars and arrays  ****
OctLoc.c.b A Datatyp(siz) R M Lvl/name                 OctLoc.c.b A Datatyp(siz) R M Lvl/name

     0-0-0/w PTR               1 EOF_SYMBOL_PTR

  ****  Section 023 LblCom ERROR_SYMBOL_PTR

  ****  Scalars and arrays  ****
OctLoc.c.b A Datatyp(siz) R M Lvl/name                 OctLoc.c.b A Datatyp(siz) R M Lvl/name

     0-0-0/w PTR               1 ERROR_SYMBOL_PTR

  ****  Section 024 LblCom BOF_SYMBOL_PTR

  ****  Scalars and arrays  ****
OctLoc.c.b A Datatyp(siz) R M Lvl/name                 OctLoc.c.b A Datatyp(siz) R M Lvl/name

     0-0-0/w PTR               1 BOF_SYMBOL_PTR

  ****  Section 025 LblCom OPTIONS

  ****  Scalars and arrays  ****
OctLoc.c.b A Datatyp(siz) R M Lvl/name                 OctLoc.c.b A Datatyp(siz) R M Lvl/name

     0-0-0/b BIT               1 OPTIONS(0:25)
PL6.E3A0      #006=EXPAND_PATH File=LR_ERRPTH.:Z8A6TSI                           SAT 08/09/97 09:29 Page:170

  ****  Section 026 LblCom OPTIONS_TEXT

  ****  Scalars and arrays  ****
OctLoc.c.b A Datatyp(siz) R M Lvl/name                 OctLoc.c.b A Datatyp(siz) R M Lvl/name

     0-0-0/c CHAR(4)           1 OPTIONS_TEXT(0:25)

  ****  Section 027 LblCom INSTR

  ****  Scalars and arrays  ****
OctLoc.c.b A Datatyp(siz) R M Lvl/name                 OctLoc.c.b A Datatyp(siz) R M Lvl/name

     0-0-0/c CHAR              1 INSTR(0:511)               0-0-0/c CHAR(512)         1 INSTRCHR

  ****  Section 028 LblCom INSTR_LISTED

  ****  Scalars and arrays  ****
OctLoc.c.b A Datatyp(siz) R M Lvl/name                 OctLoc.c.b A Datatyp(siz) R M Lvl/name

     0-0-0/b BIT               1 INSTR_LISTED

  ****  Section 029 LblCom INSTR_LEN

  ****  Scalars and arrays  ****
OctLoc.c.b A Datatyp(siz) R M Lvl/name                 OctLoc.c.b A Datatyp(siz) R M Lvl/name

     0-0-0/w SBIN              1 INSTR_LEN

  ****  Section 030 LblCom INSTR_INDX

  ****  Scalars and arrays  ****
OctLoc.c.b A Datatyp(siz) R M Lvl/name                 OctLoc.c.b A Datatyp(siz) R M Lvl/name

     0-0-0/w SBIN              1 INSTR_INDX

  ****  Section 031 LblCom EOF_FLAG
PL6.E3A0      #006=EXPAND_PATH File=LR_ERRPTH.:Z8A6TSI                           SAT 08/09/97 09:29 Page:171

  ****  Scalars and arrays  ****
OctLoc.c.b A Datatyp(siz) R M Lvl/name                 OctLoc.c.b A Datatyp(siz) R M Lvl/name

     0-0-0/b BIT               1 EOF_FLAG

  ****  Section 032 LblCom KEY_REC

  ****  Scalars and arrays  ****
OctLoc.c.b A Datatyp(siz) R M Lvl/name                 OctLoc.c.b A Datatyp(siz) R M Lvl/name

     0-0-0/c CHAR(10)          1 KEY_REC

  ****  Section 033 LblCom LINE

  ****  Scalars and arrays  ****
OctLoc.c.b A Datatyp(siz) R M Lvl/name                 OctLoc.c.b A Datatyp(siz) R M Lvl/name

     0-0-0/c CHAR(109)         1 LINE

  ****  Section 034 LblCom LINELEN

  ****  Scalars and arrays  ****
OctLoc.c.b A Datatyp(siz) R M Lvl/name                 OctLoc.c.b A Datatyp(siz) R M Lvl/name

     0-0-0/w SBIN              1 LINELEN

  ****  Section 035 LblCom TSTATS

  ****  Scalars and arrays  ****
OctLoc.c.b A Datatyp(siz) R M Lvl/name                 OctLoc.c.b A Datatyp(siz) R M Lvl/name

     0-0-0/w STRC(7380)        1 TSTATS

  ****  Section 036 LblCom C#_TO_$

  ****  Scalars and arrays  ****
PL6.E3A0      #006=EXPAND_PATH File=LR_ERRPTH.:Z8A6TSI                           SAT 08/09/97 09:29 Page:172
OctLoc.c.b A Datatyp(siz) R M Lvl/name                 OctLoc.c.b A Datatyp(siz) R M Lvl/name

     0-0-0/w PTR         r     1 C#_TO_$(0:2200)

  ****  Section 037 LblCom NR_CONFIG

  ****  Scalars and arrays  ****
OctLoc.c.b A Datatyp(siz) R M Lvl/name                 OctLoc.c.b A Datatyp(siz) R M Lvl/name

     0-0-0/w SBIN              1 NR_CONFIG

  ****  Section 038 LblCom INIT_CONFIG

  ****  Scalars and arrays  ****
OctLoc.c.b A Datatyp(siz) R M Lvl/name                 OctLoc.c.b A Datatyp(siz) R M Lvl/name

     0-0-0/w SBIN              1 INIT_CONFIG

  ****  Section 039 LblCom MAX_BASIS_ITEMS

  ****  Scalars and arrays  ****
OctLoc.c.b A Datatyp(siz) R M Lvl/name                 OctLoc.c.b A Datatyp(siz) R M Lvl/name

     0-0-0/w SBIN              1 MAX_BASIS_ITEMS

  ****  Section 040 LblCom MAX_TOTAL_ITEMS

  ****  Scalars and arrays  ****
OctLoc.c.b A Datatyp(siz) R M Lvl/name                 OctLoc.c.b A Datatyp(siz) R M Lvl/name

     0-0-0/w SBIN              1 MAX_TOTAL_ITEMS

  ****  Section 041 LblCom LAST_BINSRCH_ONLY

  ****  Scalars and arrays  ****
OctLoc.c.b A Datatyp(siz) R M Lvl/name                 OctLoc.c.b A Datatyp(siz) R M Lvl/name

PL6.E3A0      #006=EXPAND_PATH File=LR_ERRPTH.:Z8A6TSI                           SAT 08/09/97 09:29 Page:173
     0-0-0/w SBIN              1 LAST_BINSRCH_ONLY

  ****  Section 042 LblCom LAST_BOTH_BITBIN

  ****  Scalars and arrays  ****
OctLoc.c.b A Datatyp(siz) R M Lvl/name                 OctLoc.c.b A Datatyp(siz) R M Lvl/name

     0-0-0/w SBIN              1 LAST_BOTH_BITBIN

  ****  Section 043 LblCom GARBAGE

  ****  Scalars and arrays  ****
OctLoc.c.b A Datatyp(siz) R M Lvl/name                 OctLoc.c.b A Datatyp(siz) R M Lvl/name

     0-0-0/w PTR               1 GARBAGE(0:100)

  ****  Section 044 LblCom AMT_GARBAGE

  ****  Scalars and arrays  ****
OctLoc.c.b A Datatyp(siz) R M Lvl/name                 OctLoc.c.b A Datatyp(siz) R M Lvl/name

     0-0-0/w SBIN              1 AMT_GARBAGE

  ****  Section 045 LblCom LEAST_COST_STRING

  ****  Scalars and arrays  ****
OctLoc.c.b A Datatyp(siz) R M Lvl/name                 OctLoc.c.b A Datatyp(siz) R M Lvl/name

     0-0-0/w PTR               1 LEAST_COST_STRING(0:1400)

  ****  Section 046 LblCom LEAST_COST_PREFIX

  ****  Scalars and arrays  ****
OctLoc.c.b A Datatyp(siz) R M Lvl/name                 OctLoc.c.b A Datatyp(siz) R M Lvl/name

     0-0-0/w PTR               1 LEAST_COST_PREFIX(0:1400)

PL6.E3A0      #006=EXPAND_PATH File=LR_ERRPTH.:Z8A6TSI                           SAT 08/09/97 09:29 Page:174
  ****  Section 047 LblCom CURRE

  ****  Scalars and arrays  ****
OctLoc.c.b A Datatyp(siz) R M Lvl/name                 OctLoc.c.b A Datatyp(siz) R M Lvl/name

     0-0-0/d STRC(126)         1 CURRE(0:1400)

  ****  Section 048 LblCom LCP_INDX

  ****  Scalars and arrays  ****
OctLoc.c.b A Datatyp(siz) R M Lvl/name                 OctLoc.c.b A Datatyp(siz) R M Lvl/name

     0-0-0/h SBIN(18)          1 LCP_INDX(0:1400)

  ****  Section 049 LblCom COM_STRSP_LEN

  ****  Scalars and arrays  ****
OctLoc.c.b A Datatyp(siz) R M Lvl/name                 OctLoc.c.b A Datatyp(siz) R M Lvl/name

     0-0-0/w SBIN        r     1 COM_STRSP_LEN

  ****  Section 050 LblCom COM_SEARCH_STRING

  ****  Scalars and arrays  ****
OctLoc.c.b A Datatyp(siz) R M Lvl/name                 OctLoc.c.b A Datatyp(siz) R M Lvl/name

     0-0-0/w PTR         r     1 COM_SEARCH_STRING

  ****  Section 051 LblCom COM_SEARCH_STRING_LEN

  ****  Scalars and arrays  ****
OctLoc.c.b A Datatyp(siz) R M Lvl/name                 OctLoc.c.b A Datatyp(siz) R M Lvl/name

     0-0-0/w SBIN        r     1 COM_SEARCH_STRING_LEN

  ****  Section 052 LblCom COM_STRING_SPACE_LEN

PL6.E3A0      #006=EXPAND_PATH File=LR_ERRPTH.:Z8A6TSI                           SAT 08/09/97 09:29 Page:175
  ****  Scalars and arrays  ****
OctLoc.c.b A Datatyp(siz) R M Lvl/name                 OctLoc.c.b A Datatyp(siz) R M Lvl/name

     0-0-0/w SBIN        r     1 COM_STRING_SPACE_LEN

  ****  Section 053 LblCom COM_STRING_SPACE_H

  ****  Scalars and arrays  ****
OctLoc.c.b A Datatyp(siz) R M Lvl/name                 OctLoc.c.b A Datatyp(siz) R M Lvl/name

     0-0-0/h SBIN(18)    r     1 COM_STRING_SPACE_H(0:24999)

  ****  Section 054 LblCom COM_STRING_SPACE$

  ****  Scalars and arrays  ****
OctLoc.c.b A Datatyp(siz) R M Lvl/name                 OctLoc.c.b A Datatyp(siz) R M Lvl/name

     0-0-0/w PTR         r     1 COM_STRING_SPACE$

  ****  Section 055 LblCom COM_STRING_PTR

  ****  Scalars and arrays  ****
OctLoc.c.b A Datatyp(siz) R M Lvl/name                 OctLoc.c.b A Datatyp(siz) R M Lvl/name

     0-0-0/w PTR         r     1 COM_STRING_PTR

  ****  Section 056 LblCom COM_STRING_INDX

  ****  Scalars and arrays  ****
OctLoc.c.b A Datatyp(siz) R M Lvl/name                 OctLoc.c.b A Datatyp(siz) R M Lvl/name

     0-0-0/w SBIN              1 COM_STRING_INDX

  ****  Section 057 LblCom LCP_TABLE_LEN

  ****  Scalars and arrays  ****
OctLoc.c.b A Datatyp(siz) R M Lvl/name                 OctLoc.c.b A Datatyp(siz) R M Lvl/name
PL6.E3A0      #006=EXPAND_PATH File=LR_ERRPTH.:Z8A6TSI                           SAT 08/09/97 09:29 Page:176

     0-0-0/w SBIN              1 LCP_TABLE_LEN

  ****  Section 058 LblCom STATE_ITEM_INDEX

  ****  Scalars and arrays  ****
OctLoc.c.b A Datatyp(siz) R M Lvl/name                 OctLoc.c.b A Datatyp(siz) R M Lvl/name

     0-0-0/h STRC              1 STATE_ITEM_INDEX(0:2200)

  ****  Section 059 LblCom PATH

  ****  Scalars and arrays  ****
OctLoc.c.b A Datatyp(siz) R M Lvl/name                 OctLoc.c.b A Datatyp(siz) R M Lvl/name

     0-0-0/h STRC        r     1 PATH(0:17600)

  ****  Section 060 LblCom PATH_STRINGS_LEN

  ****  Scalars and arrays  ****
OctLoc.c.b A Datatyp(siz) R M Lvl/name                 OctLoc.c.b A Datatyp(siz) R M Lvl/name

     0-0-0/w SBIN        r     1 PATH_STRINGS_LEN

  ****  Section 061 LblCom PATH_ADDR$

  ****  Scalars and arrays  ****
OctLoc.c.b A Datatyp(siz) R M Lvl/name                 OctLoc.c.b A Datatyp(siz) R M Lvl/name

     0-0-0/w PTR         r     1 PATH_ADDR$

  ****  Section 062 LblCom PATH_TABLE_LEN

  ****  Scalars and arrays  ****
OctLoc.c.b A Datatyp(siz) R M Lvl/name                 OctLoc.c.b A Datatyp(siz) R M Lvl/name

     0-0-0/w SBIN              1 PATH_TABLE_LEN
PL6.E3A0      #006=EXPAND_PATH File=LR_ERRPTH.:Z8A6TSI                           SAT 08/09/97 09:29 Page:177

  ****  Section 063 LblCom EDGECOST

  ****  Scalars and arrays  ****
OctLoc.c.b A Datatyp(siz) R M Lvl/name                 OctLoc.c.b A Datatyp(siz) R M Lvl/name

     0-0-0/w SBIN              1 EDGECOST(0:400)

  ****  Section 064 LblCom ITEM_TABLE_LEN

  ****  Scalars and arrays  ****
OctLoc.c.b A Datatyp(siz) R M Lvl/name                 OctLoc.c.b A Datatyp(siz) R M Lvl/name

     0-0-0/w SBIN              1 ITEM_TABLE_LEN

  ****  Section 065 LblCom ORDERED_ITEM

  ****  Scalars and arrays  ****
OctLoc.c.b A Datatyp(siz) R M Lvl/name                 OctLoc.c.b A Datatyp(siz) R M Lvl/name

     0-0-0/h STRC        r     1 ORDERED_ITEM(0:400)

  ****  Section 066 LblCom NEIGHBOR

  ****  Scalars and arrays  ****
OctLoc.c.b A Datatyp(siz) R M Lvl/name                 OctLoc.c.b A Datatyp(siz) R M Lvl/name

     0-0-0/w SBIN              1 NEIGHBOR(0:400)

  ****  Section 067 LblCom PATH_INFO

  ****  Scalars and arrays  ****
OctLoc.c.b A Datatyp(siz) R M Lvl/name                 OctLoc.c.b A Datatyp(siz) R M Lvl/name

     0-0-0/w STRC(28872) r     1 PATH_INFO

  ****  Section 068 LblCom CHOSEN
PL6.E3A0      #006=EXPAND_PATH File=LR_ERRPTH.:Z8A6TSI                           SAT 08/09/97 09:29 Page:178

  ****  Scalars and arrays  ****
OctLoc.c.b A Datatyp(siz) R M Lvl/name                 OctLoc.c.b A Datatyp(siz) R M Lvl/name

     0-0-0/w BIT               1 CHOSEN(0:400)

  ****  Section 069 LblCom REACHED

  ****  Scalars and arrays  ****
OctLoc.c.b A Datatyp(siz) R M Lvl/name                 OctLoc.c.b A Datatyp(siz) R M Lvl/name

     0-0-0/b BIT         r     1 REACHED(0:400)

  ****  Section 070 LblCom EXP_PATH_INDX

  ****  Scalars and arrays  ****
OctLoc.c.b A Datatyp(siz) R M Lvl/name                 OctLoc.c.b A Datatyp(siz) R M Lvl/name

     0-0-0/w SBIN        r     1 EXP_PATH_INDX

  ****  Auto variables  ****

  ****  Scalars and arrays  ****
OctLoc.c.b A Datatyp(siz) R M Lvl/name                 OctLoc.c.b A Datatyp(siz) R M Lvl/name

     4-0-0/w PTR         r     1 @ITEM                      5-0-0/w PTR         r     1 @SOURCE
     3-0-0/w PTR         r     1 @STATE                     6-0-0/w SBIN        r     1 DP
    *0-0-0/w SBIN        r     1 ITEM                       7-0-0/w SBIN        r     1 P
    10-0-0/w SBIN        r     1 RP                        *0-0-0/w SBIN        r     1 SOURCE
    *0-0-0/w SBIN        r     1 STATE

  ****  BASED and DCB variables  ****

  ****  Scalars and arrays  ****
OctLoc.c.b A Datatyp(siz) R M Lvl/name                 OctLoc.c.b A Datatyp(siz) R M Lvl/name

     0-0-0/w STRC(72)          1 CELL                       0-0-0/c ACHR              1 COM_STRINGS
PL6.E3A0      #006=EXPAND_PATH File=LR_ERRPTH.:Z8A6TSI                           SAT 08/09/97 09:29 Page:179
     0-0-0/c ACHR              1 COM_STRING_SPACE           0-0-0/c ACHR              1 CSEARCH_STRING
     0-0-0/w STRC(57888) r     1 C_SET_B                    0-0-0/w STRC(72)          1 INCLUDES_B
     0-0-0/w STRC(144)         1 INCL_B                     0-0-0/w STRC(5436)        1 ITEM_B
     0-0-0/w STRC(5652)  r     1 KEY_B                      0-0-0N  NULL        r     1 M$LO
     0-0-0N  NULL        r     1 M$OU                       0-0-0N  NULL        r     1 M$SI
     0-0-0N  NULL        r     1 M$SO                       0-0-0N  NULL        r     1 M$UI
     0-0-0/c ACHR              1 PATH_STRINGS               0-0-0/w STRC(90)          1 PREFIX
     0-0-0/w ASTR(72)    r     1 PREFIXCHR                  0-0-0/w STRC              1 STRING
     0-0-0/w ASTR(18)    r     1 STRINGCHR                  0-0-0/w STRC(351)         1 SYMBOL


   Procedure EXPAND_PATH requires 93 words for executable code.
   Procedure EXPAND_PATH requires 14 words of local(AUTO) storage.

PL6.E3A0      #007=FINDNEIGHBORS File=LR_ERRPTH.:Z8A6TSI                         SAT 08/09/97 09:30 Page:180
      463        1        /*T***********************************************************/
      464        2        /*T*                                                         */
      465        3        /*T* Copyright (c) Bull HN Information Systems Inc., 1997    */
      466        4        /*T*                                                         */
      467        5        /*T***********************************************************/
      468        6        FINDNEIGHBORS : PROC(STATE) NOAUTO;
      469        7
      470        8        /*D*
      471        9               NAME: FINDNEIGHBORS
      472       10            PURPOSE: DETERMINE THE CLOSURE GRAPH FOR THIS STATE
      473       11        */
      474       12
      475       13    1   DCL STATE SBIN WORD;
      476       14
      477       15        %INCLUDE LR_GRAM_EXT;
      478      554        %INCLUDE LR_CNFG_EXT;
      479      707        %INCLUDE LR_ERR_EXT;
      480      850
      481      851    1   DCL ITEM SBIN WORD;
      482      852    1   DCL NT   SBIN WORD;
      483      853    1   DCL E    SBIN WORD;
      484      854    1   DCL I    SBIN WORD;
      485      855    1   DCL E2   SBIN WORD;
      486      856
      487      857
      488      858        /* Set all neighbors to NIL */
      489      859
      490      860    2   DO ITEM = 0 TO C#_TO_$(STATE) -> C_SET_B.ITEM_COUNT - 1;
      491      861
      492      862    2     NEIGHBOR(ITEM) = -1;
      493      863
      494      864    2   END;
      495      865
      496      866    2   DO ITEM = 0 TO C#_TO_$(STATE) -> C_SET_B.ITEM_COUNT - 1;
      497      867
      498      868    2     E = ORDERED_ITEM.E(ITEM);
      499      869    2     I = ORDERED_ITEM.I(ITEM);
PL6.E3A0      #007=FINDNEIGHBORS File=LR_ERRPTH.:Z8A6TSI                         SAT 08/09/97 09:30 Page:181
      500      870
      501      871    2     IF C#_TO_$(STATE) -> C_SET_B.ELEM.KEY$(E) -> KEY_B.ELEM.DOT_POS(I) = 0 THEN
      502      872    3       DO;
      503      873
      504      874    3         NT = PROD.GOAL_SYM_INDX(C#_TO_$(STATE) -> C_SET_B.ELEM.KEY$(E) -> KEY_B.ELEM.
               874                  PROD(I));
      505      875
      506      876              /* Add all items which have sym_after = nt , since they must have generated
      507      877                 this item in closure calculations.
      508      878              */
      509      879
      510      880    3         E2 = 0;
      511      881
      512      882    4         DO WHILE C#_TO_$(STATE) -> C_SET_B.ELEM.KEY$(E2) -> KEY_B.W.SYM_AFTER ~= NT;
      513      883    4           E2 = E2 +1 ;
      514      884    4         END;
      515      885
      516      886    3         NEIGHBOR(ITEM) = E2;
      517      887
      518      888    3       END;  /* Closure item */
      519      889
      520      890    2   END;  /* DO ITEM */
      521      891
      522      892    1   END FINDNEIGHBORS;
      523      893        %EOD;

PL6.E3A0      #007=FINDNEIGHBORS File=LR_ERRPTH.:Z8A6TSI                         SAT 08/09/97 09:30 Page:182
--  Include file information  --

   LR_ERR_EXT.:Z8A6TOU  cannot be made into a system file and is referenced.
   LR_CNFG_EXT.:Z8A6TOU  cannot be made into a system file and is referenced.
   LR_IO_EXT.:Z8A6TOU  cannot be made into a system file and is referenced.
   LR_GRAM_EXT.:Z8A6TOU  cannot be made into a system file and is referenced.
      No diagnostics issued in procedure FINDNEIGHBORS.

   Procedure FINDNEIGHBORS requires 73 words for executable code.
   Procedure FINDNEIGHBORS is declared NOAUTO and requires 8 words of local(STATIC) storage.

PL6.E3A0      #007=FINDNEIGHBORS File=LR_ERRPTH.:Z8A6TSI                         SAT 08/09/97 09:30 Page:183

 Object Unit name= FINDNEIGHBORS                              File name= LR_ERRPTH.:Z8A6TOU
 UTS= AUG 09 '97 09:30:23.80 SAT                              Compiler= PL-6/E31         Sev=      00
 SharedLib= :SHARED_SYSTEM                                    Alt SharedLib=


    ****  Control sections  ****

 Sect   Type Bound  Init  Size OctSiz  Section name(segment info)
    0   Data  even  none     8     10  FINDNEIGHBORS
    1  LblCom even  none     1      1  OUT_DCBN
    2   DCB   even  none     0      0  M$OU
    3   DCB   even  none     0      0  M$SO
    4   DCB   even  none     0      0  M$LO
    5   DCB   even  none     0      0  M$SI
    6   DCB   even  none     0      0  M$UI
    7  LblCom even  none  1401   2571  SYM_PTRS
    8  LblCom even  none  4001   7641  RIGHT_PARTS
    9  LblCom even  none  3002   5672  PROD
   10  LblCom even  none     1      1  NR_PROD
   11  LblCom even  none     1      1  NR_SYMS
   12  LblCom even  none     1      1  NR_TERM
   13  LblCom even  none     1      1  LAST_ACT
   14  LblCom even  none     1      1  LAST_NULL
   15  LblCom even  none     1      1  NR_ONRIGHT
   16  LblCom even  none     1      1  NR_NT
   17  LblCom even  none     1      1  PROD_LEN_MAX_EVER
   18  LblCom even  none     1      1  LAST_ORDER_SPECIFIED
   19  LblCom even  none     1      1  SEMANTIC_ORDERING
   20  LblCom even  none     1      1  ERR_SEV
   21  LblCom even  none     1      1  SET_LENGTHB
   22  LblCom even  none     1      1  SET_LENGTHW
   23  LblCom even  none     1      1  EOF_SYMBOL_PTR
   24  LblCom even  none     1      1  ERROR_SYMBOL_PTR
   25  LblCom even  none     1      1  BOF_SYMBOL_PTR
   26  LblCom even  none     1      1  OPTIONS
   27  LblCom even  none    26     32  OPTIONS_TEXT
   28  LblCom even  none   128    200  INSTR
PL6.E3A0      #007=FINDNEIGHBORS File=LR_ERRPTH.:Z8A6TSI                         SAT 08/09/97 09:30 Page:184
   29  LblCom even  none     1      1  INSTR_LISTED
   30  LblCom even  none     1      1  INSTR_LEN
   31  LblCom even  none     1      1  INSTR_INDX
   32  LblCom even  none     1      1  EOF_FLAG
   33  LblCom even  none     3      3  KEY_REC
   34  LblCom even  none    28     34  LINE
   35  LblCom even  none     1      1  LINELEN
   36  LblCom even  none   205    315  TSTATS
   37  LblCom even  none  2201   4231  C#_TO_$
   38  LblCom even  none     1      1  NR_CONFIG
   39  LblCom even  none     1      1  INIT_CONFIG
   40  LblCom even  none     1      1  MAX_BASIS_ITEMS
   41  LblCom even  none     1      1  MAX_TOTAL_ITEMS
   42  LblCom even  none     1      1  LAST_BINSRCH_ONLY
   43  LblCom even  none     1      1  LAST_BOTH_BITBIN
   44  LblCom even  none   101    145  GARBAGE
   45  LblCom even  none     1      1  AMT_GARBAGE
   46  LblCom even  none  1401   2571  LEAST_COST_STRING
   47  LblCom even  none  1401   2571  LEAST_COST_PREFIX
   48  LblCom even  none  5604  12744  CURRE
   49  LblCom even  none   701   1275  LCP_INDX
   50  LblCom even  none     1      1  COM_STRSP_LEN
   51  LblCom even  none     1      1  COM_SEARCH_STRING
   52  LblCom even  none     1      1  COM_SEARCH_STRING_LEN
   53  LblCom even  none     1      1  COM_STRING_SPACE_LEN
   54  LblCom even  none 12500  30324  COM_STRING_SPACE_H
   55  LblCom even  none     1      1  COM_STRING_SPACE$
   56  LblCom even  none     1      1  COM_STRING_PTR
   57  LblCom even  none     1      1  COM_STRING_INDX
   58  LblCom even  none     1      1  LCP_TABLE_LEN
   59  LblCom even  none  2201   4231  STATE_ITEM_INDEX
   60  LblCom even  none 17601  42301  PATH
   61  LblCom even  none     1      1  PATH_STRINGS_LEN
   62  LblCom even  none     1      1  PATH_ADDR$
   63  LblCom even  none     1      1  PATH_TABLE_LEN
   64  LblCom even  none   401    621  EDGECOST
   65  LblCom even  none     1      1  ITEM_TABLE_LEN
PL6.E3A0      #007=FINDNEIGHBORS File=LR_ERRPTH.:Z8A6TSI                         SAT 08/09/97 09:30 Page:185
   66  LblCom even  none   401    621  ORDERED_ITEM
   67  LblCom even  none   401    621  NEIGHBOR
   68  LblCom even  none   802   1442  PATH_INFO
   69  LblCom even  none   401    621  CHOSEN
   70  LblCom even  none    12     14  REACHED
   71  LblCom even  none     1      1  EXP_PATH_INDX
   72   Proc  even  none    73    111  FINDNEIGHBORS

    ****  Entry defs  ****

                              Check   Calling
                             calling  sequence
  Sect OctLoc Primary Altret sequence   type   Parms  Name
    72      0   yes            yes      Std        1  FINDNEIGHBORS

  ****  Entry refs  ****

         Check        Calling
        calling       sequence
Altret sequence SRef   type   Args  Name
                       nStd      0 X66_STATIC_1

  ****  Data refs  ****

  Flags:  r = read only, s = secondary
Flgs Name                             Flgs Name                             Flgs Name
     M$OU                                  M$SO                                  M$LO
     M$SI                                  M$UI

  ****  Segment refs  ****

  Flags:  r = read only, s = secondary
Flgs Name                             Flgs Name                             Flgs Name
     NULLSID                               ISSID
PL6.E3A0      #007=FINDNEIGHBORS File=LR_ERRPTH.:Z8A6TSI                         SAT 08/09/97 09:30 Page:186


      463        1        /*T***********************************************************/
      464        2        /*T*                                                         */
      465        3        /*T* Copyright (c) Bull HN Information Systems Inc., 1997    */
      466        4        /*T*                                                         */
      467        5        /*T***********************************************************/
      468        6        FINDNEIGHBORS : PROC(STATE) NOAUTO;

      6 72 000000   000000 700200 xent  FINDNEIGHBO* TSX0  ! X66_STATIC_1
        72 000001   000000 000001 0                  ZERO    0,1

      469        7
      470        8        /*D*
      471        9               NAME: FINDNEIGHBORS
      472       10            PURPOSE: DETERMINE THE CLOSURE GRAPH FOR THIS STATE
      473       11        */
      474       12
      475       13    1   DCL STATE SBIN WORD;
      476       14
      477       15        %INCLUDE LR_GRAM_EXT;
      478      554        %INCLUDE LR_CNFG_EXT;
      479      707        %INCLUDE LR_ERR_EXT;
      480      850
      481      851    1   DCL ITEM SBIN WORD;
      482      852    1   DCL NT   SBIN WORD;
      483      853    1   DCL E    SBIN WORD;
      484      854    1   DCL I    SBIN WORD;
      485      855    1   DCL E2   SBIN WORD;
      486      856
      487      857
      488      858        /* Set all neighbors to NIL */
      489      859
      490      860    2   DO ITEM = 0 TO C#_TO_$(STATE) -> C_SET_B.ITEM_COUNT - 1;

    860 72 000002   000002 450000 0                  STZ     ITEM
        72 000003   000010 710000 72                 TRA     s:864+1

PL6.E3A0      #007=FINDNEIGHBORS File=LR_ERRPTH.:Z8A6TSI                         SAT 08/09/97 09:30 Page:187
      491      861
      492      862    2     NEIGHBOR(ITEM) = -1;

    862 72 000004   000001 335007                    LCA     1,DL
        72 000005   000002 720000 0                  LXL0    ITEM
        72 000006   000000 755010 67                 STA     NEIGHBOR,X0

      493      863
      494      864    2   END;

    864 72 000007   000002 054000 0                  AOS     ITEM
        72 000010   000001 470400 0                  LDP0    @STATE
        72 000011   000000 720100                    LXL0    0,,PR0
        72 000012   000000 471410 37                 LDP1    C#_TO_$,X0
        72 000013   100003 236100                    LDQ     3,,PR1
        72 000014   000022 732000                    QRS     18
        72 000015   000002 116000 0                  CMPQ    ITEM
        72 000016   000004 605400 72                 TPNZ    s:862

      495      865
      496      866    2   DO ITEM = 0 TO C#_TO_$(STATE) -> C_SET_B.ITEM_COUNT - 1;

    866 72 000017   000002 450000 0                  STZ     ITEM
        72 000020   000101 710000 72                 TRA     s:890+1

      497      867
      498      868    2     E = ORDERED_ITEM.E(ITEM);

    868 72 000021   000002 720000 0                  LXL0    ITEM
        72 000022   000000 236010 66                 LDQ     ORDERED_ITEM,X0
        72 000023   000022 732000                    QRS     18
        72 000024   000004 756000 0                  STQ     E

      499      869    2     I = ORDERED_ITEM.I(ITEM);

    869 72 000025   000000 236010 66                 LDQ     ORDERED_ITEM,X0
        72 000026   000022 736000                    QLS     18
PL6.E3A0      #007=FINDNEIGHBORS File=LR_ERRPTH.:Z8A6TSI                         SAT 08/09/97 09:30 Page:188
        72 000027   000022 732000                    QRS     18
        72 000030   000005 756000 0                  STQ     I

      500      870
      501      871    2     IF C#_TO_$(STATE) -> C_SET_B.ELEM.KEY$(E) -> KEY_B.ELEM.DOT_POS(I) = 0 THEN

    871 72 000031   000001 470400 0                  LDP0    @STATE
        72 000032   000000 721100                    LXL1    0,,PR0
        72 000033   000000 471411 37                 LDP1    C#_TO_$,X1
        72 000034   000004 235000 0                  LDA     E
        72 000035   000002 735000                    ALS     2
        72 000036   100004 473505                    LDP3    4,AL,PR1
        72 000037   300006 721106                    LXL1    6,QL,PR3
        72 000040   000100 601000 72                 TNZ     s:890

      502      872    3       DO;

      503      873
      504      874    3         NT = PROD.GOAL_SYM_INDX(C#_TO_$(STATE) -> C_SET_B.ELEM.KEY$(E) -> KEY_B.ELEM.
               874                  PROD(I));

    874 72 000041   000000 721100                    LXL1    0,,PR0
        72 000042   000000 471411 37                 LDP1    C#_TO_$,X1
        72 000043   100004 473505                    LDP3    4,AL,PR1
        72 000044   000005 721000 0                  LXL1    I
        72 000045   300006 222111                    LDX2    6,X1,PR3
        72 000046   000000 636012                    EAQ     0,X2
        72 000047   000021 772000                    QRL     17
        72 000050   000000 236006 9                  LDQ     PROD,QL
        72 000051   000022 732000                    QRS     18
        72 000052   000003 756000 0                  STQ     NT

      505      875
      506      876              /* Add all items which have sym_after = nt , since they must have generated
      507      877                 this item in closure calculations.
      508      878              */
      509      879
PL6.E3A0      #007=FINDNEIGHBORS File=LR_ERRPTH.:Z8A6TSI                         SAT 08/09/97 09:30 Page:189
      510      880    3         E2 = 0;

    880 72 000053   000006 450000 0                  STZ     E2

      511      881
      512      882    4         DO WHILE C#_TO_$(STATE) -> C_SET_B.ELEM.KEY$(E2) -> KEY_B.W.SYM_AFTER ~= NT;

    882 72 000054   000000 722100                    LXL2    0,,PR0
        72 000055   000000 471412 37                 LDP1    C#_TO_$,X2
        72 000056   000006 235000 0                  LDA     E2
        72 000057   000002 735000                    ALS     2
        72 000060   100004 473505                    LDP3    4,AL,PR1
        72 000061   300004 116100                    CMPQ    4,,PR3
        72 000062   000075 600000 72                 TZE     s:886

      513      883    4           E2 = E2 +1 ;

    883 72 000063   000006 054000 0                  AOS     E2

      514      884    4         END;

    884 72 000064   000001 470400 0                  LDP0    @STATE
        72 000065   000000 720100                    LXL0    0,,PR0
        72 000066   000000 471410 37                 LDP1    C#_TO_$,X0
        72 000067   000006 235000 0                  LDA     E2
        72 000070   000002 735000                    ALS     2
        72 000071   100004 473505                    LDP3    4,AL,PR1
        72 000072   300004 236100                    LDQ     4,,PR3
        72 000073   000003 116000 0                  CMPQ    NT
        72 000074   000063 601000 72                 TNZ     s:883

      515      885
      516      886    3         NEIGHBOR(ITEM) = E2;

    886 72 000075   000002 720000 0                  LXL0    ITEM
        72 000076   000006 236000 0                  LDQ     E2
        72 000077   000000 756010 67                 STQ     NEIGHBOR,X0
PL6.E3A0      #007=FINDNEIGHBORS File=LR_ERRPTH.:Z8A6TSI                         SAT 08/09/97 09:30 Page:190

      517      887
      518      888    3       END;  /* Closure item */

      519      889
      520      890    2   END;  /* DO ITEM */

    890 72 000100   000002 054000 0                  AOS     ITEM
        72 000101   000000 720100                    LXL0    0,,PR0
        72 000102   000000 471410 37                 LDP1    C#_TO_$,X0
        72 000103   100003 236100                    LDQ     3,,PR1
        72 000104   000022 732000                    QRS     18
        72 000105   000002 116000 0                  CMPQ    ITEM
        72 000106   000021 605400 72                 TPNZ    s:868

      521      891
      522      892    1   END FINDNEIGHBORS;

    892 72 000107   000000 221200 0                  LDX1  ! 0
        72 000110   000001 702211                    TSX2  ! 1,X1
      523      893        %EOD;

PL6.E3A0      #007=FINDNEIGHBORS File=LR_ERRPTH.:Z8A6TSI                         SAT 08/09/97 09:30 Page:191
--  Include file information  --

   LR_ERR_EXT.:Z8A6TOU  cannot be made into a system file and is referenced.
   LR_CNFG_EXT.:Z8A6TOU  cannot be made into a system file and is referenced.
   LR_IO_EXT.:Z8A6TOU  cannot be made into a system file and is referenced.
   LR_GRAM_EXT.:Z8A6TOU  cannot be made into a system file and is referenced.
      No diagnostics issued in procedure FINDNEIGHBORS.
PL6.E3A0      #007=FINDNEIGHBORS File=LR_ERRPTH.:Z8A6TSI                         SAT 08/09/97 09:30 Page:192

 **** Variables and constants ****

  ****  Section 000  Data  FINDNEIGHBORS

  ****  Scalars and arrays  ****
OctLoc.c.b A Datatyp(siz) R M Lvl/name                 OctLoc.c.b A Datatyp(siz) R M Lvl/name

     1-0-0/w PTR         r     1 @STATE                     4-0-0/w SBIN        r     1 E
     6-0-0/w SBIN        r     1 E2                         5-0-0/w SBIN        r     1 I
     2-0-0/w SBIN        r     1 ITEM                       3-0-0/w SBIN        r     1 NT
    *0-0-0/w SBIN        r     1 STATE

  ****  Section 001 LblCom OUT_DCBN

  ****  Scalars and arrays  ****
OctLoc.c.b A Datatyp(siz) R M Lvl/name                 OctLoc.c.b A Datatyp(siz) R M Lvl/name

     0-0-0/w SBIN              1 OUT_DCBN

  ****  Section 007 LblCom SYM_PTRS

  ****  Scalars and arrays  ****
OctLoc.c.b A Datatyp(siz) R M Lvl/name                 OctLoc.c.b A Datatyp(siz) R M Lvl/name

     0-0-0/w PTR               1 SYM_PTRS(0:1400)

  ****  Section 008 LblCom RIGHT_PARTS

  ****  Scalars and arrays  ****
OctLoc.c.b A Datatyp(siz) R M Lvl/name                 OctLoc.c.b A Datatyp(siz) R M Lvl/name

     0-0-0/h SBIN(18)          1 RIGHT_PARTS(0:8000)

  ****  Section 009 LblCom PROD

  ****  Scalars and arrays  ****
OctLoc.c.b A Datatyp(siz) R M Lvl/name                 OctLoc.c.b A Datatyp(siz) R M Lvl/name
PL6.E3A0      #007=FINDNEIGHBORS File=LR_ERRPTH.:Z8A6TSI                         SAT 08/09/97 09:30 Page:193

     0-0-0/h STRC(72)    r     1 PROD(0:1500)

  ****  Section 010 LblCom NR_PROD

  ****  Scalars and arrays  ****
OctLoc.c.b A Datatyp(siz) R M Lvl/name                 OctLoc.c.b A Datatyp(siz) R M Lvl/name

     0-0-0/w SBIN              1 NR_PROD

  ****  Section 011 LblCom NR_SYMS

  ****  Scalars and arrays  ****
OctLoc.c.b A Datatyp(siz) R M Lvl/name                 OctLoc.c.b A Datatyp(siz) R M Lvl/name

     0-0-0/w SBIN              1 NR_SYMS

  ****  Section 012 LblCom NR_TERM

  ****  Scalars and arrays  ****
OctLoc.c.b A Datatyp(siz) R M Lvl/name                 OctLoc.c.b A Datatyp(siz) R M Lvl/name

     0-0-0/w SBIN              1 NR_TERM

  ****  Section 013 LblCom LAST_ACT

  ****  Scalars and arrays  ****
OctLoc.c.b A Datatyp(siz) R M Lvl/name                 OctLoc.c.b A Datatyp(siz) R M Lvl/name

     0-0-0/w SBIN              1 LAST_ACT

  ****  Section 014 LblCom LAST_NULL

  ****  Scalars and arrays  ****
OctLoc.c.b A Datatyp(siz) R M Lvl/name                 OctLoc.c.b A Datatyp(siz) R M Lvl/name

     0-0-0/w SBIN              1 LAST_NULL
PL6.E3A0      #007=FINDNEIGHBORS File=LR_ERRPTH.:Z8A6TSI                         SAT 08/09/97 09:30 Page:194

  ****  Section 015 LblCom NR_ONRIGHT

  ****  Scalars and arrays  ****
OctLoc.c.b A Datatyp(siz) R M Lvl/name                 OctLoc.c.b A Datatyp(siz) R M Lvl/name

     0-0-0/w SBIN              1 NR_ONRIGHT

  ****  Section 016 LblCom NR_NT

  ****  Scalars and arrays  ****
OctLoc.c.b A Datatyp(siz) R M Lvl/name                 OctLoc.c.b A Datatyp(siz) R M Lvl/name

     0-0-0/w SBIN              1 NR_NT

  ****  Section 017 LblCom PROD_LEN_MAX_EVER

  ****  Scalars and arrays  ****
OctLoc.c.b A Datatyp(siz) R M Lvl/name                 OctLoc.c.b A Datatyp(siz) R M Lvl/name

     0-0-0/w SBIN              1 PROD_LEN_MAX_EVER

  ****  Section 018 LblCom LAST_ORDER_SPECIFIED

  ****  Scalars and arrays  ****
OctLoc.c.b A Datatyp(siz) R M Lvl/name                 OctLoc.c.b A Datatyp(siz) R M Lvl/name

     0-0-0/w SBIN              1 LAST_ORDER_SPECIFIED

  ****  Section 019 LblCom SEMANTIC_ORDERING

  ****  Scalars and arrays  ****
OctLoc.c.b A Datatyp(siz) R M Lvl/name                 OctLoc.c.b A Datatyp(siz) R M Lvl/name

     0-0-0/b BIT               1 SEMANTIC_ORDERING

  ****  Section 020 LblCom ERR_SEV
PL6.E3A0      #007=FINDNEIGHBORS File=LR_ERRPTH.:Z8A6TSI                         SAT 08/09/97 09:30 Page:195

  ****  Scalars and arrays  ****
OctLoc.c.b A Datatyp(siz) R M Lvl/name                 OctLoc.c.b A Datatyp(siz) R M Lvl/name

     0-0-0/w SBIN              1 ERR_SEV

  ****  Section 021 LblCom SET_LENGTHB

  ****  Scalars and arrays  ****
OctLoc.c.b A Datatyp(siz) R M Lvl/name                 OctLoc.c.b A Datatyp(siz) R M Lvl/name

     0-0-0/w SBIN              1 SET_LENGTHB

  ****  Section 022 LblCom SET_LENGTHW

  ****  Scalars and arrays  ****
OctLoc.c.b A Datatyp(siz) R M Lvl/name                 OctLoc.c.b A Datatyp(siz) R M Lvl/name

     0-0-0/w SBIN              1 SET_LENGTHW

  ****  Section 023 LblCom EOF_SYMBOL_PTR

  ****  Scalars and arrays  ****
OctLoc.c.b A Datatyp(siz) R M Lvl/name                 OctLoc.c.b A Datatyp(siz) R M Lvl/name

     0-0-0/w PTR               1 EOF_SYMBOL_PTR

  ****  Section 024 LblCom ERROR_SYMBOL_PTR

  ****  Scalars and arrays  ****
OctLoc.c.b A Datatyp(siz) R M Lvl/name                 OctLoc.c.b A Datatyp(siz) R M Lvl/name

     0-0-0/w PTR               1 ERROR_SYMBOL_PTR

  ****  Section 025 LblCom BOF_SYMBOL_PTR

  ****  Scalars and arrays  ****
PL6.E3A0      #007=FINDNEIGHBORS File=LR_ERRPTH.:Z8A6TSI                         SAT 08/09/97 09:30 Page:196
OctLoc.c.b A Datatyp(siz) R M Lvl/name                 OctLoc.c.b A Datatyp(siz) R M Lvl/name

     0-0-0/w PTR               1 BOF_SYMBOL_PTR

  ****  Section 026 LblCom OPTIONS

  ****  Scalars and arrays  ****
OctLoc.c.b A Datatyp(siz) R M Lvl/name                 OctLoc.c.b A Datatyp(siz) R M Lvl/name

     0-0-0/b BIT               1 OPTIONS(0:25)

  ****  Section 027 LblCom OPTIONS_TEXT

  ****  Scalars and arrays  ****
OctLoc.c.b A Datatyp(siz) R M Lvl/name                 OctLoc.c.b A Datatyp(siz) R M Lvl/name

     0-0-0/c CHAR(4)           1 OPTIONS_TEXT(0:25)

  ****  Section 028 LblCom INSTR

  ****  Scalars and arrays  ****
OctLoc.c.b A Datatyp(siz) R M Lvl/name                 OctLoc.c.b A Datatyp(siz) R M Lvl/name

     0-0-0/c CHAR              1 INSTR(0:511)               0-0-0/c CHAR(512)         1 INSTRCHR

  ****  Section 029 LblCom INSTR_LISTED

  ****  Scalars and arrays  ****
OctLoc.c.b A Datatyp(siz) R M Lvl/name                 OctLoc.c.b A Datatyp(siz) R M Lvl/name

     0-0-0/b BIT               1 INSTR_LISTED

  ****  Section 030 LblCom INSTR_LEN

  ****  Scalars and arrays  ****
OctLoc.c.b A Datatyp(siz) R M Lvl/name                 OctLoc.c.b A Datatyp(siz) R M Lvl/name

PL6.E3A0      #007=FINDNEIGHBORS File=LR_ERRPTH.:Z8A6TSI                         SAT 08/09/97 09:30 Page:197
     0-0-0/w SBIN              1 INSTR_LEN

  ****  Section 031 LblCom INSTR_INDX

  ****  Scalars and arrays  ****
OctLoc.c.b A Datatyp(siz) R M Lvl/name                 OctLoc.c.b A Datatyp(siz) R M Lvl/name

     0-0-0/w SBIN              1 INSTR_INDX

  ****  Section 032 LblCom EOF_FLAG

  ****  Scalars and arrays  ****
OctLoc.c.b A Datatyp(siz) R M Lvl/name                 OctLoc.c.b A Datatyp(siz) R M Lvl/name

     0-0-0/b BIT               1 EOF_FLAG

  ****  Section 033 LblCom KEY_REC

  ****  Scalars and arrays  ****
OctLoc.c.b A Datatyp(siz) R M Lvl/name                 OctLoc.c.b A Datatyp(siz) R M Lvl/name

     0-0-0/c CHAR(10)          1 KEY_REC

  ****  Section 034 LblCom LINE

  ****  Scalars and arrays  ****
OctLoc.c.b A Datatyp(siz) R M Lvl/name                 OctLoc.c.b A Datatyp(siz) R M Lvl/name

     0-0-0/c CHAR(109)         1 LINE

  ****  Section 035 LblCom LINELEN

  ****  Scalars and arrays  ****
OctLoc.c.b A Datatyp(siz) R M Lvl/name                 OctLoc.c.b A Datatyp(siz) R M Lvl/name

     0-0-0/w SBIN              1 LINELEN

PL6.E3A0      #007=FINDNEIGHBORS File=LR_ERRPTH.:Z8A6TSI                         SAT 08/09/97 09:30 Page:198
  ****  Section 036 LblCom TSTATS

  ****  Scalars and arrays  ****
OctLoc.c.b A Datatyp(siz) R M Lvl/name                 OctLoc.c.b A Datatyp(siz) R M Lvl/name

     0-0-0/w STRC(7380)        1 TSTATS

  ****  Section 037 LblCom C#_TO_$

  ****  Scalars and arrays  ****
OctLoc.c.b A Datatyp(siz) R M Lvl/name                 OctLoc.c.b A Datatyp(siz) R M Lvl/name

     0-0-0/w PTR         r     1 C#_TO_$(0:2200)

  ****  Section 038 LblCom NR_CONFIG

  ****  Scalars and arrays  ****
OctLoc.c.b A Datatyp(siz) R M Lvl/name                 OctLoc.c.b A Datatyp(siz) R M Lvl/name

     0-0-0/w SBIN              1 NR_CONFIG

  ****  Section 039 LblCom INIT_CONFIG

  ****  Scalars and arrays  ****
OctLoc.c.b A Datatyp(siz) R M Lvl/name                 OctLoc.c.b A Datatyp(siz) R M Lvl/name

     0-0-0/w SBIN              1 INIT_CONFIG

  ****  Section 040 LblCom MAX_BASIS_ITEMS

  ****  Scalars and arrays  ****
OctLoc.c.b A Datatyp(siz) R M Lvl/name                 OctLoc.c.b A Datatyp(siz) R M Lvl/name

     0-0-0/w SBIN              1 MAX_BASIS_ITEMS

  ****  Section 041 LblCom MAX_TOTAL_ITEMS

PL6.E3A0      #007=FINDNEIGHBORS File=LR_ERRPTH.:Z8A6TSI                         SAT 08/09/97 09:30 Page:199
  ****  Scalars and arrays  ****
OctLoc.c.b A Datatyp(siz) R M Lvl/name                 OctLoc.c.b A Datatyp(siz) R M Lvl/name

     0-0-0/w SBIN              1 MAX_TOTAL_ITEMS

  ****  Section 042 LblCom LAST_BINSRCH_ONLY

  ****  Scalars and arrays  ****
OctLoc.c.b A Datatyp(siz) R M Lvl/name                 OctLoc.c.b A Datatyp(siz) R M Lvl/name

     0-0-0/w SBIN              1 LAST_BINSRCH_ONLY

  ****  Section 043 LblCom LAST_BOTH_BITBIN

  ****  Scalars and arrays  ****
OctLoc.c.b A Datatyp(siz) R M Lvl/name                 OctLoc.c.b A Datatyp(siz) R M Lvl/name

     0-0-0/w SBIN              1 LAST_BOTH_BITBIN

  ****  Section 044 LblCom GARBAGE

  ****  Scalars and arrays  ****
OctLoc.c.b A Datatyp(siz) R M Lvl/name                 OctLoc.c.b A Datatyp(siz) R M Lvl/name

     0-0-0/w PTR               1 GARBAGE(0:100)

  ****  Section 045 LblCom AMT_GARBAGE

  ****  Scalars and arrays  ****
OctLoc.c.b A Datatyp(siz) R M Lvl/name                 OctLoc.c.b A Datatyp(siz) R M Lvl/name

     0-0-0/w SBIN              1 AMT_GARBAGE

  ****  Section 046 LblCom LEAST_COST_STRING

  ****  Scalars and arrays  ****
OctLoc.c.b A Datatyp(siz) R M Lvl/name                 OctLoc.c.b A Datatyp(siz) R M Lvl/name
PL6.E3A0      #007=FINDNEIGHBORS File=LR_ERRPTH.:Z8A6TSI                         SAT 08/09/97 09:30 Page:200

     0-0-0/w PTR               1 LEAST_COST_STRING(0:1400)

  ****  Section 047 LblCom LEAST_COST_PREFIX

  ****  Scalars and arrays  ****
OctLoc.c.b A Datatyp(siz) R M Lvl/name                 OctLoc.c.b A Datatyp(siz) R M Lvl/name

     0-0-0/w PTR               1 LEAST_COST_PREFIX(0:1400)

  ****  Section 048 LblCom CURRE

  ****  Scalars and arrays  ****
OctLoc.c.b A Datatyp(siz) R M Lvl/name                 OctLoc.c.b A Datatyp(siz) R M Lvl/name

     0-0-0/d STRC(126)         1 CURRE(0:1400)

  ****  Section 049 LblCom LCP_INDX

  ****  Scalars and arrays  ****
OctLoc.c.b A Datatyp(siz) R M Lvl/name                 OctLoc.c.b A Datatyp(siz) R M Lvl/name

     0-0-0/h SBIN(18)          1 LCP_INDX(0:1400)

  ****  Section 050 LblCom COM_STRSP_LEN

  ****  Scalars and arrays  ****
OctLoc.c.b A Datatyp(siz) R M Lvl/name                 OctLoc.c.b A Datatyp(siz) R M Lvl/name

     0-0-0/w SBIN        r     1 COM_STRSP_LEN

  ****  Section 051 LblCom COM_SEARCH_STRING

  ****  Scalars and arrays  ****
OctLoc.c.b A Datatyp(siz) R M Lvl/name                 OctLoc.c.b A Datatyp(siz) R M Lvl/name

     0-0-0/w PTR         r     1 COM_SEARCH_STRING
PL6.E3A0      #007=FINDNEIGHBORS File=LR_ERRPTH.:Z8A6TSI                         SAT 08/09/97 09:30 Page:201

  ****  Section 052 LblCom COM_SEARCH_STRING_LEN

  ****  Scalars and arrays  ****
OctLoc.c.b A Datatyp(siz) R M Lvl/name                 OctLoc.c.b A Datatyp(siz) R M Lvl/name

     0-0-0/w SBIN        r     1 COM_SEARCH_STRING_LEN

  ****  Section 053 LblCom COM_STRING_SPACE_LEN

  ****  Scalars and arrays  ****
OctLoc.c.b A Datatyp(siz) R M Lvl/name                 OctLoc.c.b A Datatyp(siz) R M Lvl/name

     0-0-0/w SBIN        r     1 COM_STRING_SPACE_LEN

  ****  Section 054 LblCom COM_STRING_SPACE_H

  ****  Scalars and arrays  ****
OctLoc.c.b A Datatyp(siz) R M Lvl/name                 OctLoc.c.b A Datatyp(siz) R M Lvl/name

     0-0-0/h SBIN(18)    r     1 COM_STRING_SPACE_H(0:24999)

  ****  Section 055 LblCom COM_STRING_SPACE$

  ****  Scalars and arrays  ****
OctLoc.c.b A Datatyp(siz) R M Lvl/name                 OctLoc.c.b A Datatyp(siz) R M Lvl/name

     0-0-0/w PTR         r     1 COM_STRING_SPACE$

  ****  Section 056 LblCom COM_STRING_PTR

  ****  Scalars and arrays  ****
OctLoc.c.b A Datatyp(siz) R M Lvl/name                 OctLoc.c.b A Datatyp(siz) R M Lvl/name

     0-0-0/w PTR         r     1 COM_STRING_PTR

  ****  Section 057 LblCom COM_STRING_INDX
PL6.E3A0      #007=FINDNEIGHBORS File=LR_ERRPTH.:Z8A6TSI                         SAT 08/09/97 09:30 Page:202

  ****  Scalars and arrays  ****
OctLoc.c.b A Datatyp(siz) R M Lvl/name                 OctLoc.c.b A Datatyp(siz) R M Lvl/name

     0-0-0/w SBIN              1 COM_STRING_INDX

  ****  Section 058 LblCom LCP_TABLE_LEN

  ****  Scalars and arrays  ****
OctLoc.c.b A Datatyp(siz) R M Lvl/name                 OctLoc.c.b A Datatyp(siz) R M Lvl/name

     0-0-0/w SBIN              1 LCP_TABLE_LEN

  ****  Section 059 LblCom STATE_ITEM_INDEX

  ****  Scalars and arrays  ****
OctLoc.c.b A Datatyp(siz) R M Lvl/name                 OctLoc.c.b A Datatyp(siz) R M Lvl/name

     0-0-0/h STRC              1 STATE_ITEM_INDEX(0:2200)

  ****  Section 060 LblCom PATH

  ****  Scalars and arrays  ****
OctLoc.c.b A Datatyp(siz) R M Lvl/name                 OctLoc.c.b A Datatyp(siz) R M Lvl/name

     0-0-0/h STRC        r     1 PATH(0:17600)

  ****  Section 061 LblCom PATH_STRINGS_LEN

  ****  Scalars and arrays  ****
OctLoc.c.b A Datatyp(siz) R M Lvl/name                 OctLoc.c.b A Datatyp(siz) R M Lvl/name

     0-0-0/w SBIN        r     1 PATH_STRINGS_LEN

  ****  Section 062 LblCom PATH_ADDR$

  ****  Scalars and arrays  ****
PL6.E3A0      #007=FINDNEIGHBORS File=LR_ERRPTH.:Z8A6TSI                         SAT 08/09/97 09:30 Page:203
OctLoc.c.b A Datatyp(siz) R M Lvl/name                 OctLoc.c.b A Datatyp(siz) R M Lvl/name

     0-0-0/w PTR         r     1 PATH_ADDR$

  ****  Section 063 LblCom PATH_TABLE_LEN

  ****  Scalars and arrays  ****
OctLoc.c.b A Datatyp(siz) R M Lvl/name                 OctLoc.c.b A Datatyp(siz) R M Lvl/name

     0-0-0/w SBIN              1 PATH_TABLE_LEN

  ****  Section 064 LblCom EDGECOST

  ****  Scalars and arrays  ****
OctLoc.c.b A Datatyp(siz) R M Lvl/name                 OctLoc.c.b A Datatyp(siz) R M Lvl/name

     0-0-0/w SBIN              1 EDGECOST(0:400)

  ****  Section 065 LblCom ITEM_TABLE_LEN

  ****  Scalars and arrays  ****
OctLoc.c.b A Datatyp(siz) R M Lvl/name                 OctLoc.c.b A Datatyp(siz) R M Lvl/name

     0-0-0/w SBIN              1 ITEM_TABLE_LEN

  ****  Section 066 LblCom ORDERED_ITEM

  ****  Scalars and arrays  ****
OctLoc.c.b A Datatyp(siz) R M Lvl/name                 OctLoc.c.b A Datatyp(siz) R M Lvl/name

     0-0-0/h STRC        r     1 ORDERED_ITEM(0:400)

  ****  Section 067 LblCom NEIGHBOR

  ****  Scalars and arrays  ****
OctLoc.c.b A Datatyp(siz) R M Lvl/name                 OctLoc.c.b A Datatyp(siz) R M Lvl/name

PL6.E3A0      #007=FINDNEIGHBORS File=LR_ERRPTH.:Z8A6TSI                         SAT 08/09/97 09:30 Page:204
     0-0-0/w SBIN        r     1 NEIGHBOR(0:400)

  ****  Section 068 LblCom PATH_INFO

  ****  Scalars and arrays  ****
OctLoc.c.b A Datatyp(siz) R M Lvl/name                 OctLoc.c.b A Datatyp(siz) R M Lvl/name

     0-0-0/w STRC(28872)       1 PATH_INFO

  ****  Section 069 LblCom CHOSEN

  ****  Scalars and arrays  ****
OctLoc.c.b A Datatyp(siz) R M Lvl/name                 OctLoc.c.b A Datatyp(siz) R M Lvl/name

     0-0-0/w BIT               1 CHOSEN(0:400)

  ****  Section 070 LblCom REACHED

  ****  Scalars and arrays  ****
OctLoc.c.b A Datatyp(siz) R M Lvl/name                 OctLoc.c.b A Datatyp(siz) R M Lvl/name

     0-0-0/b BIT               1 REACHED(0:400)

  ****  Section 071 LblCom EXP_PATH_INDX

  ****  Scalars and arrays  ****
OctLoc.c.b A Datatyp(siz) R M Lvl/name                 OctLoc.c.b A Datatyp(siz) R M Lvl/name

     0-0-0/w SBIN              1 EXP_PATH_INDX

  ****  BASED and DCB variables  ****

  ****  Scalars and arrays  ****
OctLoc.c.b A Datatyp(siz) R M Lvl/name                 OctLoc.c.b A Datatyp(siz) R M Lvl/name

     0-0-0/w STRC(72)          1 CELL                       0-0-0/c ACHR              1 COM_STRINGS
     0-0-0/c ACHR              1 COM_STRING_SPACE           0-0-0/c ACHR              1 CSEARCH_STRING
PL6.E3A0      #007=FINDNEIGHBORS File=LR_ERRPTH.:Z8A6TSI                         SAT 08/09/97 09:30 Page:205
     0-0-0/w STRC(57888) r     1 C_SET_B                    0-0-0/w STRC(72)          1 INCLUDES_B
     0-0-0/w STRC(144)         1 INCL_B                     0-0-0/w STRC(5436)        1 ITEM_B
     0-0-0/w STRC(5652)  r     1 KEY_B                      0-0-0N  NULL        r     1 M$LO
     0-0-0N  NULL        r     1 M$OU                       0-0-0N  NULL        r     1 M$SI
     0-0-0N  NULL        r     1 M$SO                       0-0-0N  NULL        r     1 M$UI
     0-0-0/c ACHR              1 PATH_STRINGS               0-0-0/w STRC(90)          1 PREFIX
     0-0-0/w ASTR(72)    r     1 PREFIXCHR                  0-0-0/w STRC              1 STRING
     0-0-0/w ASTR(18)    r     1 STRINGCHR                  0-0-0/w STRC(351)         1 SYMBOL


   Procedure FINDNEIGHBORS requires 73 words for executable code.
   Procedure FINDNEIGHBORS is declared NOAUTO and requires 8 words of local(STATIC) storage.

