PL6.E3A0      #008=WRITE_LOCAL_CONTEXT File=LR_ERRPTH.:Z8A6TSI                   SAT 08/09/97 09:30 Page:206
      524        1        /*T***********************************************************/
      525        2        /*T*                                                         */
      526        3        /*T* Copyright (c) Bull HN Information Systems Inc., 1997    */
      527        4        /*T*                                                         */
      528        5        /*T***********************************************************/
      529        6        WRITE_LOCAL_CONTEXT : PROC (STATE, SOURCE);
      530        7
      531        8        /*D*
      532        9               NAME: WRITE_LOCAL_CONTEXT
      533       10            PURPOSE: WRITE THE LOCAL CONTEXT INFORMATION FOR AN
      534       11                     ITEM IN A STATE; IN PARTICULAR, WRITE ALL PATHS
      535       12                     TO EVERY OTHER ITEM IN THE STATE.
      536       13        */
      537       14
      538       15    1   DCL STATE SBIN WORD;
      539       16    1   DCL SOURCE SBIN WORD;
      540       17
      541       18
      542       19        %INCLUDE LR_GRAM_EXT;
      543      558        %INCLUDE LR_CNFG_EXT;
      544      711        %INCLUDE LR_ERR_EXT;
      545      854
      546      855    1   DCL EXPAND_PATH ENTRY(3);
      547      856
      548      857    1   DCL PROPOSED_PATH_TABLE_LEN SBIN WORD;
      549      858
      550      859    1   DCL PATH_INDX SBIN WORD;
      551      860
      552      861    1   DCL I    SBIN WORD;
      553      862    1   DCL ITEM SBIN WORD;
      554      863
      555      864
      556      865        %EJECT;
PL6.E3A0      #008=WRITE_LOCAL_CONTEXT File=LR_ERRPTH.:Z8A6TSI                   SAT 08/09/97 09:30 Page:207
      557      866    1   INSERT_PATH_STRING : PROC;  /* IN WRITE_LOCAL_CONTEXT */
      558      867
      559      868        /* The string has been temporarily created at the end of
      560      869           the string space.  Search for a redundant string before expanding
      561      870           the space to actually include the string.
      562      871        */
      563      872
      564      873    2   IF PROPOSED_PATH_TABLE_LEN >= %PATH_LEN_MAX THEN
      565      874    2     CALL DIAG(15,
      566      875    2   'Path list space has been exhausted during error table generation%%');
      567      876
      568      877    2   COM_SEARCH_STRING_LEN = (EXP_PATH_INDX*2 - COM_STRSP_LEN);
      569      878    2   COM_SEARCH_STRING = ADDR(COM_STRING_SPACE_H(COM_STRSP_LEN/2));
      570      879
      571      880    2   I = 0;
      572      881    3   DO UNTIL (MOD(I,2) ~= 0);
      573      882
      574      883    3     CALL INDEX (COM_STRING_INDX,
      575      884    3                 CSEARCH_STRING,
      576      885    3                 SUBSTR(COM_STRINGS, I, COM_STRSP_LEN - I));
      577      886    3     I = I + COM_STRING_INDX + 1;
      578      887    3   END;
      579      888
      580      889    2   COM_STRING_INDX = I - 1;
      581      890
      582      891    2   IF COM_STRING_INDX = COM_STRSP_LEN THEN
      583      892    2     COM_STRSP_LEN = EXP_PATH_INDX * 2;
      584      893
      585      894    2   PATH.INDX(PROPOSED_PATH_TABLE_LEN) = COM_STRING_INDX/2;
      586      895    2   PATH.LEN(PROPOSED_PATH_TABLE_LEN) = COM_SEARCH_STRING_LEN / 2;
      587      896    2   PROPOSED_PATH_TABLE_LEN = PROPOSED_PATH_TABLE_LEN + 1;
      588      897
      589      898    2   END INSERT_PATH_STRING;
      590      899
      591      900
      592      901
      593      902        %EJECT;
PL6.E3A0      #008=WRITE_LOCAL_CONTEXT File=LR_ERRPTH.:Z8A6TSI                   SAT 08/09/97 09:30 Page:208
      594      903    1   INSERT_NULL_PATH : PROC;  /* IN WRITE_LOCAL_CONTEXT */
      595      904
      596      905        /* Insert a null string into the path table
      597      906        */
      598      907
      599      908    2   IF PROPOSED_PATH_TABLE_LEN >= %PATH_LEN_MAX THEN
      600      909    2     CALL DIAG(15,
      601      910    2   'Path list space has been exhausted during error table generation%%');
      602      911
      603      912    2   PATH.INDX(PROPOSED_PATH_TABLE_LEN) = -1;
      604      913    2   PATH.LEN (PROPOSED_PATH_TABLE_LEN) = 0;
      605      914    2   PROPOSED_PATH_TABLE_LEN = PROPOSED_PATH_TABLE_LEN + 1;
      606      915
      607      916    2   END INSERT_NULL_PATH;
      608      917
      609      918
      610      919        %EJECT;
PL6.E3A0      #008=WRITE_LOCAL_CONTEXT File=LR_ERRPTH.:Z8A6TSI                   SAT 08/09/97 09:30 Page:209
      611      920    1   INSERT_PATH_LIST : PROC;  /* IN WRITE_LOCAL_CONTEXT */
      612      921
      613      922        /* A path list has been built at the end of the array.
      614      923           Search for a redundant string before expanding the
      615      924           space to include the string.
      616      925        */
      617      926
      618      927    2   COM_SEARCH_STRING_LEN = (PROPOSED_PATH_TABLE_LEN - PATH_TABLE_LEN) * SIZEC(PATH(0));
      619      928    2   COM_SEARCH_STRING = ADDR(PATH(PATH_TABLE_LEN));
      620      929
      621      930    2   I = 0;
      622      931    3   DO UNTIL (MOD(I,SIZEC(PATH(0))) = 1);
      623      932
      624      933    3     CALL INDEX (PATH_INDX,
      625      934    3                 CSEARCH_STRING,
      626      935    3                 SUBSTR(PATH_STRINGS, I, PATH_TABLE_LEN*SIZEC(PATH(0)) - I));
      627      936    3     I = I + PATH_INDX + 1;
      628      937    3   END;
      629      938
      630      939    2   PATH_INDX = (I-1) / SIZEC(PATH(0));
      631      940
      632      941    2   IF PATH_INDX = PATH_TABLE_LEN THEN
      633      942    2     PATH_TABLE_LEN = PROPOSED_PATH_TABLE_LEN;
      634      943
      635      944    2   END INSERT_PATH_LIST;
      636      945
      637      946
      638      947        %EJECT;
PL6.E3A0      #008=WRITE_LOCAL_CONTEXT File=LR_ERRPTH.:Z8A6TSI                   SAT 08/09/97 09:30 Page:210
      639      948        /* MAIN BODY OF WRITE_LOCAL_CONTEXT */
      640      949
      641      950    2   DO ITEM = 0 TO C#_TO_$(STATE) -> C_SET_B.ITEM_COUNT - 1;
      642      951
      643      952    2     REACHED(ITEM) = FALSE;
      644      953
      645      954    2   END;
      646      955
      647      956
      648      957    1   PROPOSED_PATH_TABLE_LEN = PATH_TABLE_LEN;
      649      958
      650      959    2   DO ITEM = 0 TO C#_TO_$(STATE) -> C_SET_B.ITEM_COUNT - 1;
      651      960
      652      961    2     IF NOT REACHED(ITEM) THEN
      653      962    3       DO;
      654      963    3         IF PATH_INFO.COST(ITEM) < INFINITE_COST THEN
      655      964    4           DO;
      656      965    4             REACHED(ITEM) = TRUE;
      657      966    4             EXP_PATH_INDX = COM_STRSP_LEN / 2;
      658      967    4             CALL EXPAND_PATH(STATE, ITEM, SOURCE);
      659      968    4             CALL INSERT_PATH_STRING;
      660      969    4           END;
      661      970    3             ELSE
      662      971    3               IF ITEM < C#_TO_$(STATE) -> C_SET_B.BASIS_COUNT THEN
      663      972    3                  CALL INSERT_NULL_PATH;
      664      973    3       END;
      665      974
      666      975    2   END;
      667      976
      668      977    1   CALL INSERT_PATH_LIST;
      669      978
      670      979    1   CALL OUT_DEC(PATH_INDX);
      671      980
      672      981        %BOUNDS(T=IINDX, V=PATH_INDX);
      673      987
      674      988        %OUT_STR(S="',L='");
      675      991    1   CALL OUT_DEC(COM_SEARCH_STRING_LEN/SIZEC(PATH(0)));
PL6.E3A0      #008=WRITE_LOCAL_CONTEXT File=LR_ERRPTH.:Z8A6TSI                   SAT 08/09/97 09:30 Page:211
      676      992
      677      993        %BOUNDS(T=ILEN, V="COM_SEARCH_STRING_LEN/SIZEC(PATH(0))");
      678      999
      679     1000        %OUT_STR(S="'); /* '");
      680     1003    1   CALL OUT_DEC(STATE);
      681     1004        %OUT_STR(S="'  '");
      682     1007    1   CALL OUT_DEC(SOURCE);
      683     1008        %OUT_STR(S="'  CLOSURE */'");
      684     1011    1   CALL FLUSH;
      685     1012
      686     1013    1   ITEM_TABLE_LEN = ITEM_TABLE_LEN + 1;
      687     1014
      688     1015    1   END WRITE_LOCAL_CONTEXT;
      689     1016        %EOD;

PL6.E3A0      #008=WRITE_LOCAL_CONTEXT File=LR_ERRPTH.:Z8A6TSI                   SAT 08/09/97 09:30 Page:212
--  Include file information  --

   LR_ERR_EXT.:Z8A6TOU  cannot be made into a system file and is referenced.
   LR_CNFG_EXT.:Z8A6TOU  cannot be made into a system file and is referenced.
   LR_IO_EXT.:Z8A6TOU  cannot be made into a system file and is referenced.
   LR_GRAM_EXT.:Z8A6TOU  cannot be made into a system file and is referenced.
      No diagnostics issued in procedure WRITE_LOCAL_CONTEXT.

   Procedure WRITE_LOCAL_CONTEXT requires 259 words for executable code.
   Procedure WRITE_LOCAL_CONTEXT requires 16 words of local(AUTO) storage.

PL6.E3A0      #008=WRITE_LOCAL_CONTEXT File=LR_ERRPTH.:Z8A6TSI                   SAT 08/09/97 09:30 Page:213

 Object Unit name= WRITE_LOCAL_CONTEXT                        File name= LR_ERRPTH.:Z8A6TOU
 UTS= AUG 09 '97 09:30:47.08 SAT                              Compiler= PL-6/E31         Sev=      00
 SharedLib= :SHARED_SYSTEM                                    Alt SharedLib=


    ****  Control sections  ****

 Sect   Type Bound  Init  Size OctSiz  Section name(segment info)
    0  LblCom even  none     1      1  OUT_DCBN
    1   DCB   even  none     0      0  M$OU
    2   DCB   even  none     0      0  M$SO
    3   DCB   even  none     0      0  M$LO
    4   DCB   even  none     0      0  M$SI
    5   DCB   even  none     0      0  M$UI
    6  LblCom even  none  1401   2571  SYM_PTRS
    7  LblCom even  none  4001   7641  RIGHT_PARTS
    8  LblCom even  none  3002   5672  PROD
    9  LblCom even  none     1      1  NR_PROD
   10  LblCom even  none     1      1  NR_SYMS
   11  LblCom even  none     1      1  NR_TERM
   12  LblCom even  none     1      1  LAST_ACT
   13  LblCom even  none     1      1  LAST_NULL
   14  LblCom even  none     1      1  NR_ONRIGHT
   15  LblCom even  none     1      1  NR_NT
   16  LblCom even  none     1      1  PROD_LEN_MAX_EVER
   17  LblCom even  none     1      1  LAST_ORDER_SPECIFIED
   18  LblCom even  none     1      1  SEMANTIC_ORDERING
   19  LblCom even  none     1      1  ERR_SEV
   20  LblCom even  none     1      1  SET_LENGTHB
   21  LblCom even  none     1      1  SET_LENGTHW
   22  LblCom even  none     1      1  EOF_SYMBOL_PTR
   23  LblCom even  none     1      1  ERROR_SYMBOL_PTR
   24  LblCom even  none     1      1  BOF_SYMBOL_PTR
   25  LblCom even  none     1      1  OPTIONS
   26  LblCom even  none    26     32  OPTIONS_TEXT
   27  LblCom even  none   128    200  INSTR
   28  LblCom even  none     1      1  INSTR_LISTED
PL6.E3A0      #008=WRITE_LOCAL_CONTEXT File=LR_ERRPTH.:Z8A6TSI                   SAT 08/09/97 09:30 Page:214
   29  LblCom even  none     1      1  INSTR_LEN
   30  LblCom even  none     1      1  INSTR_INDX
   31  LblCom even  none     1      1  EOF_FLAG
   32  LblCom even  none     3      3  KEY_REC
   33  LblCom even  none    28     34  LINE
   34  LblCom even  none     1      1  LINELEN
   35  LblCom even  none   205    315  TSTATS
   36  LblCom even  none  2201   4231  C#_TO_$
   37  LblCom even  none     1      1  NR_CONFIG
   38  LblCom even  none     1      1  INIT_CONFIG
   39  LblCom even  none     1      1  MAX_BASIS_ITEMS
   40  LblCom even  none     1      1  MAX_TOTAL_ITEMS
   41  LblCom even  none     1      1  LAST_BINSRCH_ONLY
   42  LblCom even  none     1      1  LAST_BOTH_BITBIN
   43  LblCom even  none   101    145  GARBAGE
   44  LblCom even  none     1      1  AMT_GARBAGE
   45  LblCom even  none  1401   2571  LEAST_COST_STRING
   46  LblCom even  none  1401   2571  LEAST_COST_PREFIX
   47  LblCom even  none  5604  12744  CURRE
   48  LblCom even  none   701   1275  LCP_INDX
   49  LblCom even  none     1      1  COM_STRSP_LEN
   50  LblCom even  none     1      1  COM_SEARCH_STRING
   51  LblCom even  none     1      1  COM_SEARCH_STRING_LEN
   52  LblCom even  none     1      1  COM_STRING_SPACE_LEN
   53  LblCom even  none 12500  30324  COM_STRING_SPACE_H
   54  LblCom even  none     1      1  COM_STRING_SPACE$
   55  LblCom even  none     1      1  COM_STRING_PTR
   56  LblCom even  none     1      1  COM_STRING_INDX
   57  LblCom even  none     1      1  LCP_TABLE_LEN
   58  LblCom even  none  2201   4231  STATE_ITEM_INDEX
   59  LblCom even  none 17601  42301  PATH
   60  LblCom even  none     1      1  PATH_STRINGS_LEN
   61  LblCom even  none     1      1  PATH_ADDR$
   62  LblCom even  none     1      1  PATH_TABLE_LEN
   63  LblCom even  none   401    621  EDGECOST
   64  LblCom even  none     1      1  ITEM_TABLE_LEN
   65  LblCom even  none   401    621  ORDERED_ITEM
PL6.E3A0      #008=WRITE_LOCAL_CONTEXT File=LR_ERRPTH.:Z8A6TSI                   SAT 08/09/97 09:30 Page:215
   66  LblCom even  none   401    621  NEIGHBOR
   67  LblCom even  none   802   1442  PATH_INFO
   68  LblCom even  none   401    621  CHOSEN
   69  LblCom even  none    12     14  REACHED
   70  LblCom even  none     1      1  EXP_PATH_INDX
   71  RoData even  UTS     24     30  WRITE_LOCAL_CONTEXT
   72   Proc  even  none   259    403  WRITE_LOCAL_CONTEXT
   73  RoData even  none    22     26  WRITE_LOCAL_CONTEXT

    ****  Entry defs  ****

                              Check   Calling
                             calling  sequence
  Sect OctLoc Primary Altret sequence   type   Parms  Name
    72      0   yes            yes      Std        2  WRITE_LOCAL_CONTEXT

  ****  Entry refs  ****

         Check        Calling
        calling       sequence
Altret sequence SRef   type   Args  Name
         yes           Std       3 EXPAND_PATH
         yes           Std       2 OUT_STR
         yes           Std       0 FLUSH
         yes           Std       1 OUT_DEC
         yes           Std       6 DIAG
                       nStd      0 X66_AUTO_2
                       nStd      0 X66_INDEX
                       nStd      0 X66_ARET

  ****  Data refs  ****

  Flags:  r = read only, s = secondary
Flgs Name                             Flgs Name                             Flgs Name
     M$OU                                  M$SO                                  M$LO
     M$SI                                  M$UI
PL6.E3A0      #008=WRITE_LOCAL_CONTEXT File=LR_ERRPTH.:Z8A6TSI                   SAT 08/09/97 09:30 Page:216

  ****  Segment refs  ****

  Flags:  r = read only, s = secondary
Flgs Name                             Flgs Name                             Flgs Name
     NULLSID                               ISSID
PL6.E3A0      #008=WRITE_LOCAL_CONTEXT File=LR_ERRPTH.:Z8A6TSI                   SAT 08/09/97 09:30 Page:217


      524        1        /*T***********************************************************/
      525        2        /*T*                                                         */
      526        3        /*T* Copyright (c) Bull HN Information Systems Inc., 1997    */
      527        4        /*T*                                                         */
      528        5        /*T***********************************************************/
      529        6        WRITE_LOCAL_CONTEXT : PROC (STATE, SOURCE);

      6 72 000000   000000 700200 xent  WRITE_LOCAL* TSX0  ! X66_AUTO_2
        72 000001   000020 000002                    ZERO    16,2
        72 000002   000170 710000 72                 TRA     s:950

      530        7
      531        8        /*D*
      532        9               NAME: WRITE_LOCAL_CONTEXT
      533       10            PURPOSE: WRITE THE LOCAL CONTEXT INFORMATION FOR AN
      534       11                     ITEM IN A STATE; IN PARTICULAR, WRITE ALL PATHS
      535       12                     TO EVERY OTHER ITEM IN THE STATE.
      536       13        */
      537       14
      538       15    1   DCL STATE SBIN WORD;
      539       16    1   DCL SOURCE SBIN WORD;
      540       17
      541       18
      542       19        %INCLUDE LR_GRAM_EXT;
      543      558        %INCLUDE LR_CNFG_EXT;
      544      711        %INCLUDE LR_ERR_EXT;
      545      854
      546      855    1   DCL EXPAND_PATH ENTRY(3);
      547      856
      548      857    1   DCL PROPOSED_PATH_TABLE_LEN SBIN WORD;
      549      858
      550      859    1   DCL PATH_INDX SBIN WORD;
      551      860
      552      861    1   DCL I    SBIN WORD;
      553      862    1   DCL ITEM SBIN WORD;
      554      863
PL6.E3A0      #008=WRITE_LOCAL_CONTEXT File=LR_ERRPTH.:Z8A6TSI                   SAT 08/09/97 09:30 Page:218
      555      864
      556      865        %EJECT;
PL6.E3A0      #008=WRITE_LOCAL_CONTEXT File=LR_ERRPTH.:Z8A6TSI                   SAT 08/09/97 09:30 Page:219
      557      866    1   INSERT_PATH_STRING : PROC;  /* IN WRITE_LOCAL_CONTEXT */

    866 72 000003   200012 741300       INSERT_PATH* STX1  ! ITEM+2,,AUTO

      558      867
      559      868        /* The string has been temporarily created at the end of
      560      869           the string space.  Search for a redundant string before expanding
      561      870           the space to actually include the string.
      562      871        */
      563      872
      564      873    2   IF PROPOSED_PATH_TABLE_LEN >= %PATH_LEN_MAX THEN

    873 72 000004   200005 235100                    LDA     PROPOSED_PATH_TABLE_LEN,,AUTO
        72 000005   042300 115007                    CMPA    17600,DL
        72 000006   000013 604000 72                 TMI     s:877

      565      874    2     CALL DIAG(15,

    874 72 000007   000002 630400 73                 EPPR0   2
        72 000010   000000 631400 73                 EPPR1   0
        72 000011   000000 701000 xent               TSX1    DIAG
        72 000012   000000 011000                    NOP     0

      566      875    2   'Path list space has been exhausted during error table generation%%');
      567      876
      568      877    2   COM_SEARCH_STRING_LEN = (EXP_PATH_INDX*2 - COM_STRSP_LEN);

    877 72 000013   000000 336000 70                 LCQ     EXP_PATH_INDX
        72 000014   000001 736000                    QLS     1
        72 000015   000000 036000 49                 ADLQ    COM_STRSP_LEN
        72 000016   000004 676000 73                 ERQ     4
        72 000017   000001 036007                    ADLQ    1,DL
        72 000020   000000 756000 51                 STQ     COM_SEARCH_STRING_LEN

      569      878    2   COM_SEARCH_STRING = ADDR(COM_STRING_SPACE_H(COM_STRSP_LEN/2));

    878 72 000021   000000 236000 49                 LDQ     COM_STRSP_LEN
PL6.E3A0      #008=WRITE_LOCAL_CONTEXT File=LR_ERRPTH.:Z8A6TSI                   SAT 08/09/97 09:30 Page:220
        72 000022   000002 506007                    DIV     2,DL
        72 000023   000021 736000                    QLS     17
        72 000024   000005 036000 73                 ADLQ    5
        72 000025   000000 756000 50                 STQ     COM_SEARCH_STRING

      570      879
      571      880    2   I = 0;

    880 72 000026   200007 450100                    STZ     I,,AUTO

      572      881    3   DO UNTIL (MOD(I,2) ~= 0);

      573      882
      574      883    3     CALL INDEX (COM_STRING_INDX,

    883 72 000027   000000 236000 49                 LDQ     COM_STRSP_LEN
        72 000030   200007 136100                    SBLQ    I,,AUTO
        72 000031   000000 631400 56                 EPPR1   COM_STRING_INDX
        72 000032   000000 473400 50                 LDP3    COM_SEARCH_STRING
        72 000033   000000 723000 51                 LXL3    COM_SEARCH_STRING_LEN
        72 000034   000000 470400 55                 LDP0    COM_STRING_PTR
        72 000035   200007 235100                    LDA     I,,AUTO
        72 000036   000000 500505                    A9BD    0,AL,PR0
        72 000037   000000 620006                    EAX0    0,QL
        72 000040   000000 236003                    LDQ     0,DU
        72 000041   000000 701000 xent               TSX1    X66_INDEX
        72 000042   000000 011000                    NOP     0

      575      884    3                 CSEARCH_STRING,
      576      885    3                 SUBSTR(COM_STRINGS, I, COM_STRSP_LEN - I));
      577      886    3     I = I + COM_STRING_INDX + 1;

    886 72 000043   200007 236100                    LDQ     I,,AUTO
        72 000044   000000 036000 56                 ADLQ    COM_STRING_INDX
        72 000045   000001 036007                    ADLQ    1,DL
        72 000046   200007 756100                    STQ     I,,AUTO

PL6.E3A0      #008=WRITE_LOCAL_CONTEXT File=LR_ERRPTH.:Z8A6TSI                   SAT 08/09/97 09:30 Page:221
      578      887    3   END;

    887 72 000047   000002 506007                    DIV     2,DL
        72 000050   000044 733000                    LRS     36
        72 000051   000000 116003                    CMPQ    0,DU
        72 000052   000027 600000 72                 TZE     s:883

      579      888
      580      889    2   COM_STRING_INDX = I - 1;

    889 72 000053   200007 235100                    LDA     I,,AUTO
        72 000054   000001 135007                    SBLA    1,DL
        72 000055   000000 755000 56                 STA     COM_STRING_INDX

      581      890
      582      891    2   IF COM_STRING_INDX = COM_STRSP_LEN THEN

    891 72 000056   000000 236000 56                 LDQ     COM_STRING_INDX
        72 000057   000000 116000 49                 CMPQ    COM_STRSP_LEN
        72 000060   000064 601000 72                 TNZ     s:894

      583      892    2     COM_STRSP_LEN = EXP_PATH_INDX * 2;

    892 72 000061   000000 235000 70                 LDA     EXP_PATH_INDX
        72 000062   000001 735000                    ALS     1
        72 000063   000000 755000 49                 STA     COM_STRSP_LEN

      584      893
      585      894    2   PATH.INDX(PROPOSED_PATH_TABLE_LEN) = COM_STRING_INDX/2;

    894 72 000064   000002 506007                    DIV     2,DL
        72 000065   000000 620006                    EAX0    0,QL
        72 000066   200005 721100                    LXL1    PROPOSED_PATH_TABLE_LEN,,AUTO
        72 000067   000000 740011 59                 STX0    PATH,X1

      586      895    2   PATH.LEN(PROPOSED_PATH_TABLE_LEN) = COM_SEARCH_STRING_LEN / 2;

PL6.E3A0      #008=WRITE_LOCAL_CONTEXT File=LR_ERRPTH.:Z8A6TSI                   SAT 08/09/97 09:30 Page:222
    895 72 000070   000000 236000 51                 LDQ     COM_SEARCH_STRING_LEN
        72 000071   000002 506007                    DIV     2,DL
        72 000072   000000 622006                    EAX2    0,QL
        72 000073   000000 442011 59                 SXL2    PATH,X1

      587      896    2   PROPOSED_PATH_TABLE_LEN = PROPOSED_PATH_TABLE_LEN + 1;

    896 72 000074   200005 054100                    AOS     PROPOSED_PATH_TABLE_LEN,,AUTO

      588      897
      589      898    2   END INSERT_PATH_STRING;

    898 72 000075   200012 221300                    LDX1  ! ITEM+2,,AUTO
        72 000076   000001 702211                    TSX2  ! 1,X1

      590      899
      591      900
      592      901
      593      902        %EJECT;
PL6.E3A0      #008=WRITE_LOCAL_CONTEXT File=LR_ERRPTH.:Z8A6TSI                   SAT 08/09/97 09:30 Page:223
      594      903    1   INSERT_NULL_PATH : PROC;  /* IN WRITE_LOCAL_CONTEXT */

    903 72 000077   200012 741300       INSERT_NULL* STX1  ! ITEM+2,,AUTO

      595      904
      596      905        /* Insert a null string into the path table
      597      906        */
      598      907
      599      908    2   IF PROPOSED_PATH_TABLE_LEN >= %PATH_LEN_MAX THEN

    908 72 000100   200005 235100                    LDA     PROPOSED_PATH_TABLE_LEN,,AUTO
        72 000101   042300 115007                    CMPA    17600,DL
        72 000102   000107 604000 72                 TMI     s:912

      600      909    2     CALL DIAG(15,

    909 72 000103   000002 630400 73                 EPPR0   2
        72 000104   000000 631400 73                 EPPR1   0
        72 000105   000000 701000 xent               TSX1    DIAG
        72 000106   000000 011000                    NOP     0

      601      910    2   'Path list space has been exhausted during error table generation%%');
      602      911
      603      912    2   PATH.INDX(PROPOSED_PATH_TABLE_LEN) = -1;

    912 72 000107   777777 220003                    LDX0    -1,DU
        72 000110   200005 721100                    LXL1    PROPOSED_PATH_TABLE_LEN,,AUTO
        72 000111   000000 740011 59                 STX0    PATH,X1

      604      913    2   PATH.LEN (PROPOSED_PATH_TABLE_LEN) = 0;

    913 72 000112   000000 222003                    LDX2    0,DU
        72 000113   000000 442011 59                 SXL2    PATH,X1

      605      914    2   PROPOSED_PATH_TABLE_LEN = PROPOSED_PATH_TABLE_LEN + 1;

    914 72 000114   200005 054100                    AOS     PROPOSED_PATH_TABLE_LEN,,AUTO
PL6.E3A0      #008=WRITE_LOCAL_CONTEXT File=LR_ERRPTH.:Z8A6TSI                   SAT 08/09/97 09:30 Page:224

      606      915
      607      916    2   END INSERT_NULL_PATH;

    916 72 000115   200012 221300                    LDX1  ! ITEM+2,,AUTO
        72 000116   000001 702211                    TSX2  ! 1,X1

      608      917
      609      918
      610      919        %EJECT;
PL6.E3A0      #008=WRITE_LOCAL_CONTEXT File=LR_ERRPTH.:Z8A6TSI                   SAT 08/09/97 09:30 Page:225
      611      920    1   INSERT_PATH_LIST : PROC;  /* IN WRITE_LOCAL_CONTEXT */

    920 72 000117   200012 741300       INSERT_PATH* STX1  ! ITEM+2,,AUTO

      612      921
      613      922        /* A path list has been built at the end of the array.
      614      923           Search for a redundant string before expanding the
      615      924           space to include the string.
      616      925        */
      617      926
      618      927    2  COM_SEARCH_STRING_LEN = (PROPOSED_PATH_TABLE_LEN - PATH_TABLE_LEN) * SIZEC(PATH(0));

    927 72 000120   200005 236100                    LDQ     PROPOSED_PATH_TABLE_LEN,,AUTO
        72 000121   000000 136000 62                 SBLQ    PATH_TABLE_LEN
        72 000122   000002 736000                    QLS     2
        72 000123   000000 756000 51                 STQ     COM_SEARCH_STRING_LEN

      619      928    2   COM_SEARCH_STRING = ADDR(PATH(PATH_TABLE_LEN));

    928 72 000124   000000 720000 62                 LXL0    PATH_TABLE_LEN
        72 000125   000000 630410 59                 EPPR0   PATH,X0
        72 000126   000000 450400 50                 STP0    COM_SEARCH_STRING

      620      929
      621      930    2   I = 0;

    930 72 000127   200007 450100                    STZ     I,,AUTO

      622      931    3   DO UNTIL (MOD(I,SIZEC(PATH(0))) = 1);

      623      932
      624      933    3     CALL INDEX (PATH_INDX,

    933 72 000130   000000 336000 62                 LCQ     PATH_TABLE_LEN
        72 000131   000002 736000                    QLS     2
        72 000132   200007 036100                    ADLQ    I,,AUTO
        72 000133   200006 631500                    EPPR1   PATH_INDX,,AUTO
PL6.E3A0      #008=WRITE_LOCAL_CONTEXT File=LR_ERRPTH.:Z8A6TSI                   SAT 08/09/97 09:30 Page:226
        72 000134   000000 473400 50                 LDP3    COM_SEARCH_STRING
        72 000135   000000 723000 51                 LXL3    COM_SEARCH_STRING_LEN
        72 000136   000000 470400 61                 LDP0    PATH_ADDR$
        72 000137   200007 235100                    LDA     I,,AUTO
        72 000140   000000 500505                    A9BD    0,AL,PR0
        72 000141   777777 620006                    EAX0    -1,QL
        72 000142   777777 660003                    ERX0    -1,DU
        72 000143   000000 236003                    LDQ     0,DU
        72 000144   000000 701000 xent               TSX1    X66_INDEX
        72 000145   000000 011000                    NOP     0

      625      934    3                 CSEARCH_STRING,
      626      935    3                 SUBSTR(PATH_STRINGS, I, PATH_TABLE_LEN*SIZEC(PATH(0)) - I));
      627      936    3     I = I + PATH_INDX + 1;

    936 72 000146   200007 236100                    LDQ     I,,AUTO
        72 000147   200006 036100                    ADLQ    PATH_INDX,,AUTO
        72 000150   000001 036007                    ADLQ    1,DL
        72 000151   200007 756100                    STQ     I,,AUTO

      628      937    3   END;

    937 72 000152   000004 506007                    DIV     4,DL
        72 000153   000044 733000                    LRS     36
        72 000154   000001 116007                    CMPQ    1,DL
        72 000155   000130 601000 72                 TNZ     s:933

      629      938
      630      939    2   PATH_INDX = (I-1) / SIZEC(PATH(0));

    939 72 000156   200007 236100                    LDQ     I,,AUTO
        72 000157   000001 136007                    SBLQ    1,DL
        72 000160   000004 506007                    DIV     4,DL
        72 000161   200006 756100                    STQ     PATH_INDX,,AUTO

      631      940
      632      941    2   IF PATH_INDX = PATH_TABLE_LEN THEN
PL6.E3A0      #008=WRITE_LOCAL_CONTEXT File=LR_ERRPTH.:Z8A6TSI                   SAT 08/09/97 09:30 Page:227

    941 72 000162   000000 116000 62                 CMPQ    PATH_TABLE_LEN
        72 000163   000166 601000 72                 TNZ     s:944

      633      942    2     PATH_TABLE_LEN = PROPOSED_PATH_TABLE_LEN;

    942 72 000164   200005 235100                    LDA     PROPOSED_PATH_TABLE_LEN,,AUTO
        72 000165   000000 755000 62                 STA     PATH_TABLE_LEN

      634      943
      635      944    2   END INSERT_PATH_LIST;

    944 72 000166   200012 221300                    LDX1  ! ITEM+2,,AUTO
        72 000167   000001 702211                    TSX2  ! 1,X1

      636      945
      637      946
      638      947        %EJECT;
PL6.E3A0      #008=WRITE_LOCAL_CONTEXT File=LR_ERRPTH.:Z8A6TSI                   SAT 08/09/97 09:30 Page:228
      639      948        /* MAIN BODY OF WRITE_LOCAL_CONTEXT */
      640      949
      641      950    2   DO ITEM = 0 TO C#_TO_$(STATE) -> C_SET_B.ITEM_COUNT - 1;

    950 72 000170   200010 450100                    STZ     ITEM,,AUTO
        72 000171   000201 710000 72                 TRA     s:954+1

      642      951
      643      952    2     REACHED(ITEM) = FALSE;

    952 72 000172   200010 235100                    LDA     ITEM,,AUTO
        72 000173   000175 605000 72                 TPL     s:952+3
        72 000174   000044 035003                    ADLA    36,DU
        72 000175   003005 060400                    CSL     bolr='003'O
        72 000176   000006 000001 73                 BDSC    6                        by=0,bit=0,n=1
        72 000177   000000 000001 69                 BDSC    REACHED,A                by=0,bit=0,n=1

      644      953
      645      954    2   END;

    954 72 000200   200010 054100                    AOS     ITEM,,AUTO
        72 000201   200003 470500                    LDP0    @STATE,,AUTO
        72 000202   000000 720100                    LXL0    0,,PR0
        72 000203   000000 471410 36                 LDP1    C#_TO_$,X0
        72 000204   100003 236100                    LDQ     3,,PR1
        72 000205   000022 732000                    QRS     18
        72 000206   200010 116100                    CMPQ    ITEM,,AUTO
        72 000207   000172 605400 72                 TPNZ    s:952

      646      955
      647      956
      648      957    1   PROPOSED_PATH_TABLE_LEN = PATH_TABLE_LEN;

    957 72 000210   000000 235000 62                 LDA     PATH_TABLE_LEN
        72 000211   200005 755100                    STA     PROPOSED_PATH_TABLE_LEN,,AUTO

      649      958
PL6.E3A0      #008=WRITE_LOCAL_CONTEXT File=LR_ERRPTH.:Z8A6TSI                   SAT 08/09/97 09:30 Page:229
      650      959    2   DO ITEM = 0 TO C#_TO_$(STATE) -> C_SET_B.ITEM_COUNT - 1;

    959 72 000212   200010 450100                    STZ     ITEM,,AUTO
        72 000213   000270 710000 72                 TRA     s:975+1

      651      960
      652      961    2     IF NOT REACHED(ITEM) THEN

    961 72 000214   200010 235100                    LDA     ITEM,,AUTO
        72 000215   000217 605000 72                 TPL     s:961+3
        72 000216   000044 035003                    ADLA    36,DU
        72 000217   000000 066405                    CMPB    filb='0'B
        72 000220   000000 000001 69                 BDSC    REACHED,A                by=0,bit=0,n=1
        72 000221   000006 000022 73                 BDSC    6                        by=0,bit=0,n=18
        72 000222   000267 601000 72                 TNZ     s:975

      653      962    3       DO;

      654      963    3         IF PATH_INFO.COST(ITEM) < INFINITE_COST THEN

    963 72 000223   200010 720100                    LXL0    ITEM,,AUTO
        72 000224   000621 235010 67                 LDA     PATH_INFO+401,X0
        72 000225   303237 115007                    CMPA    99999,DL
        72 000226   000255 605000 72                 TPL     s:971

      655      964    4           DO;

      656      965    4             REACHED(ITEM) = TRUE;

    965 72 000227   200010 236100                    LDQ     ITEM,,AUTO
        72 000230   000232 605000 72                 TPL     s:965+3
        72 000231   000044 036003                    ADLQ    36,DU
        72 000232   003006 060400                    CSL     bolr='003'O
        72 000233   000007 000001 73                 BDSC    7                        by=0,bit=0,n=1
        72 000234   000000 000001 69                 BDSC    REACHED,Q                by=0,bit=0,n=1

      657      966    4             EXP_PATH_INDX = COM_STRSP_LEN / 2;
PL6.E3A0      #008=WRITE_LOCAL_CONTEXT File=LR_ERRPTH.:Z8A6TSI                   SAT 08/09/97 09:30 Page:230

    966 72 000235   000000 236000 49                 LDQ     COM_STRSP_LEN
        72 000236   000002 506007                    DIV     2,DL
        72 000237   000000 756000 70                 STQ     EXP_PATH_INDX

      658      967    4             CALL EXPAND_PATH(STATE, ITEM, SOURCE);

    967 72 000240   200004 236100                    LDQ     @SOURCE,,AUTO
        72 000241   200016 756100                    STQ     ITEM+6,,AUTO
        72 000242   200010 630500                    EPPR0   ITEM,,AUTO
        72 000243   200015 450500                    STP0    ITEM+5,,AUTO
        72 000244   200003 236100                    LDQ     @STATE,,AUTO
        72 000245   200014 756100                    STQ     ITEM+4,,AUTO
        72 000246   200014 630500                    EPPR0   ITEM+4,,AUTO
        72 000247   000010 631400 73                 EPPR1   8
        72 000250   000000 701000 xent               TSX1    EXPAND_PATH
        72 000251   000000 011000                    NOP     0

      659      968    4             CALL INSERT_PATH_STRING;

    968 72 000252   000003 701000 72                 TSX1    INSERT_PATH_STRING
        72 000253   000000 011000                    NOP     0

      660      969    4           END;

    969 72 000254   000267 710000 72                 TRA     s:975

      661      970    3             ELSE
      662      971    3               IF ITEM < C#_TO_$(STATE) -> C_SET_B.BASIS_COUNT THEN

    971 72 000255   200003 470500                    LDP0    @STATE,,AUTO
        72 000256   000000 721100                    LXL1    0,,PR0
        72 000257   000000 471411 36                 LDP1    C#_TO_$,X1
        72 000260   100002 236100                    LDQ     2,,PR1
        72 000261   000022 736000                    QLS     18
        72 000262   000022 732000                    QRS     18
        72 000263   200010 116100                    CMPQ    ITEM,,AUTO
PL6.E3A0      #008=WRITE_LOCAL_CONTEXT File=LR_ERRPTH.:Z8A6TSI                   SAT 08/09/97 09:30 Page:231
        72 000264   000267 604400 72                 TMOZ    s:975

      663      972    3                  CALL INSERT_NULL_PATH;

    972 72 000265   000077 701000 72                 TSX1    INSERT_NULL_PATH
        72 000266   000000 011000                    NOP     0

      664      973    3       END;

      665      974
      666      975    2   END;

    975 72 000267   200010 054100                    AOS     ITEM,,AUTO
        72 000270   200003 470500                    LDP0    @STATE,,AUTO
        72 000271   000000 720100                    LXL0    0,,PR0
        72 000272   000000 471410 36                 LDP1    C#_TO_$,X0
        72 000273   100003 236100                    LDQ     3,,PR1
        72 000274   000022 732000                    QRS     18
        72 000275   200010 116100                    CMPQ    ITEM,,AUTO
        72 000276   000214 605400 72                 TPNZ    s:961

      667      976
      668      977    1   CALL INSERT_PATH_LIST;

    977 72 000277   000117 701000 72                 TSX1    INSERT_PATH_LIST
        72 000300   000000 011000                    NOP     0

      669      978
      670      979    1   CALL OUT_DEC(PATH_INDX);

    979 72 000301   200006 630500                    EPPR0   PATH_INDX,,AUTO
        72 000302   200014 450500                    STP0    ITEM+4,,AUTO
        72 000303   200014 630500                    EPPR0   ITEM+4,,AUTO
        72 000304   000011 631400 73                 EPPR1   9
        72 000305   000000 701000 xent               TSX1    OUT_DEC
        72 000306   000000 011000                    NOP     0

PL6.E3A0      #008=WRITE_LOCAL_CONTEXT File=LR_ERRPTH.:Z8A6TSI                   SAT 08/09/97 09:30 Page:232
      671      980
      672      981        %BOUNDS(T=IINDX, V=PATH_INDX);

    983 72 000307   200006 236100                    LDQ     PATH_INDX,,AUTO
        72 000310   000120 116000 35                 CMPQ    TSTATS+80
        72 000311   000313 604400 72                 TMOZ    s:983+4
        72 000312   000120 236000 35                 LDQ     TSTATS+80
        72 000313   000120 756000 35                 STQ     TSTATS+80

    984 72 000314   200006 236100                    LDQ     PATH_INDX,,AUTO
        72 000315   000117 116000 35                 CMPQ    TSTATS+79
        72 000316   000320 605000 72                 TPL     s:984+4
        72 000317   000117 236000 35                 LDQ     TSTATS+79
        72 000320   000117 756000 35                 STQ     TSTATS+79

      673      987
      674      988        %OUT_STR(S="',L='");

    989 72 000321   000013 630400 73                 EPPR0   11
        72 000322   000000 631400 73                 EPPR1   0
        72 000323   000000 701000 xent               TSX1    OUT_STR
        72 000324   000000 011000                    NOP     0

      675      991    1   CALL OUT_DEC(COM_SEARCH_STRING_LEN/SIZEC(PATH(0)));

    991 72 000325   000000 236000 51                 LDQ     COM_SEARCH_STRING_LEN
        72 000326   000004 506007                    DIV     4,DL
        72 000327   200014 756100                    STQ     ITEM+4,,AUTO
        72 000330   200014 630500                    EPPR0   ITEM+4,,AUTO
        72 000331   200015 450500                    STP0    ITEM+5,,AUTO
        72 000332   200015 630500                    EPPR0   ITEM+5,,AUTO
        72 000333   000011 631400 73                 EPPR1   9
        72 000334   000000 701000 xent               TSX1    OUT_DEC
        72 000335   000000 011000                    NOP     0

      676      992
      677      993        %BOUNDS(T=ILEN, V="COM_SEARCH_STRING_LEN/SIZEC(PATH(0))");
PL6.E3A0      #008=WRITE_LOCAL_CONTEXT File=LR_ERRPTH.:Z8A6TSI                   SAT 08/09/97 09:30 Page:233

    995 72 000336   000000 236000 51                 LDQ     COM_SEARCH_STRING_LEN
        72 000337   000004 506007                    DIV     4,DL
        72 000340   000126 116000 35                 CMPQ    TSTATS+86
        72 000341   000343 604400 72                 TMOZ    s:995+5
        72 000342   000126 236000 35                 LDQ     TSTATS+86
        72 000343   000126 756000 35                 STQ     TSTATS+86

    996 72 000344   000000 236000 51                 LDQ     COM_SEARCH_STRING_LEN
        72 000345   000004 506007                    DIV     4,DL
        72 000346   000125 116000 35                 CMPQ    TSTATS+85
        72 000347   000351 605000 72                 TPL     s:996+5
        72 000350   000125 236000 35                 LDQ     TSTATS+85
        72 000351   000125 756000 35                 STQ     TSTATS+85

      678      999
      679     1000        %OUT_STR(S="'); /* '");

   1001 72 000352   000016 630400 73                 EPPR0   14
        72 000353   000000 631400 73                 EPPR1   0
        72 000354   000000 701000 xent               TSX1    OUT_STR
        72 000355   000000 011000                    NOP     0

      680     1003    1   CALL OUT_DEC(STATE);

   1003 72 000356   200003 630500                    EPPR0   @STATE,,AUTO
        72 000357   000011 631400 73                 EPPR1   9
        72 000360   000000 701000 xent               TSX1    OUT_DEC
        72 000361   000000 011000                    NOP     0

      681     1004        %OUT_STR(S="'  '");

   1005 72 000362   000021 630400 73                 EPPR0   17
        72 000363   000000 631400 73                 EPPR1   0
        72 000364   000000 701000 xent               TSX1    OUT_STR
        72 000365   000000 011000                    NOP     0

PL6.E3A0      #008=WRITE_LOCAL_CONTEXT File=LR_ERRPTH.:Z8A6TSI                   SAT 08/09/97 09:30 Page:234
      682     1007    1   CALL OUT_DEC(SOURCE);

   1007 72 000366   200004 630500                    EPPR0   @SOURCE,,AUTO
        72 000367   000011 631400 73                 EPPR1   9
        72 000370   000000 701000 xent               TSX1    OUT_DEC
        72 000371   000000 011000                    NOP     0

      683     1008        %OUT_STR(S="'  CLOSURE */'");

   1009 72 000372   000024 630400 73                 EPPR0   20
        72 000373   000000 631400 73                 EPPR1   0
        72 000374   000000 701000 xent               TSX1    OUT_STR
        72 000375   000000 011000                    NOP     0

      684     1011    1   CALL FLUSH;

   1011 72 000376   000006 631400 73                 EPPR1   6
        72 000377   000000 701000 xent               TSX1    FLUSH
        72 000400   000000 011000                    NOP     0

      685     1012
      686     1013    1   ITEM_TABLE_LEN = ITEM_TABLE_LEN + 1;

   1013 72 000401   000000 054000 64                 AOS     ITEM_TABLE_LEN

      687     1014
      688     1015    1   END WRITE_LOCAL_CONTEXT;

   1015 72 000402   000000 702200 xent               TSX2  ! X66_ARET
      689     1016        %EOD;

PL6.E3A0      #008=WRITE_LOCAL_CONTEXT File=LR_ERRPTH.:Z8A6TSI                   SAT 08/09/97 09:30 Page:235
--  Include file information  --

   LR_ERR_EXT.:Z8A6TOU  cannot be made into a system file and is referenced.
   LR_CNFG_EXT.:Z8A6TOU  cannot be made into a system file and is referenced.
   LR_IO_EXT.:Z8A6TOU  cannot be made into a system file and is referenced.
   LR_GRAM_EXT.:Z8A6TOU  cannot be made into a system file and is referenced.
      No diagnostics issued in procedure WRITE_LOCAL_CONTEXT.
PL6.E3A0      #008=WRITE_LOCAL_CONTEXT File=LR_ERRPTH.:Z8A6TSI                   SAT 08/09/97 09:30 Page:236

 **** Variables and constants ****

  ****  Section 000 LblCom OUT_DCBN

  ****  Scalars and arrays  ****
OctLoc.c.b A Datatyp(siz) R M Lvl/name                 OctLoc.c.b A Datatyp(siz) R M Lvl/name

     0-0-0/w SBIN              1 OUT_DCBN

  ****  Section 006 LblCom SYM_PTRS

  ****  Scalars and arrays  ****
OctLoc.c.b A Datatyp(siz) R M Lvl/name                 OctLoc.c.b A Datatyp(siz) R M Lvl/name

     0-0-0/w PTR               1 SYM_PTRS(0:1400)

  ****  Section 007 LblCom RIGHT_PARTS

  ****  Scalars and arrays  ****
OctLoc.c.b A Datatyp(siz) R M Lvl/name                 OctLoc.c.b A Datatyp(siz) R M Lvl/name

     0-0-0/h SBIN(18)          1 RIGHT_PARTS(0:8000)

  ****  Section 008 LblCom PROD

  ****  Scalars and arrays  ****
OctLoc.c.b A Datatyp(siz) R M Lvl/name                 OctLoc.c.b A Datatyp(siz) R M Lvl/name

     0-0-0/h STRC(72)          1 PROD(0:1500)

  ****  Section 009 LblCom NR_PROD

  ****  Scalars and arrays  ****
OctLoc.c.b A Datatyp(siz) R M Lvl/name                 OctLoc.c.b A Datatyp(siz) R M Lvl/name

     0-0-0/w SBIN              1 NR_PROD

PL6.E3A0      #008=WRITE_LOCAL_CONTEXT File=LR_ERRPTH.:Z8A6TSI                   SAT 08/09/97 09:30 Page:237
  ****  Section 010 LblCom NR_SYMS

  ****  Scalars and arrays  ****
OctLoc.c.b A Datatyp(siz) R M Lvl/name                 OctLoc.c.b A Datatyp(siz) R M Lvl/name

     0-0-0/w SBIN              1 NR_SYMS

  ****  Section 011 LblCom NR_TERM

  ****  Scalars and arrays  ****
OctLoc.c.b A Datatyp(siz) R M Lvl/name                 OctLoc.c.b A Datatyp(siz) R M Lvl/name

     0-0-0/w SBIN              1 NR_TERM

  ****  Section 012 LblCom LAST_ACT

  ****  Scalars and arrays  ****
OctLoc.c.b A Datatyp(siz) R M Lvl/name                 OctLoc.c.b A Datatyp(siz) R M Lvl/name

     0-0-0/w SBIN              1 LAST_ACT

  ****  Section 013 LblCom LAST_NULL

  ****  Scalars and arrays  ****
OctLoc.c.b A Datatyp(siz) R M Lvl/name                 OctLoc.c.b A Datatyp(siz) R M Lvl/name

     0-0-0/w SBIN              1 LAST_NULL

  ****  Section 014 LblCom NR_ONRIGHT

  ****  Scalars and arrays  ****
OctLoc.c.b A Datatyp(siz) R M Lvl/name                 OctLoc.c.b A Datatyp(siz) R M Lvl/name

     0-0-0/w SBIN              1 NR_ONRIGHT

  ****  Section 015 LblCom NR_NT

PL6.E3A0      #008=WRITE_LOCAL_CONTEXT File=LR_ERRPTH.:Z8A6TSI                   SAT 08/09/97 09:30 Page:238
  ****  Scalars and arrays  ****
OctLoc.c.b A Datatyp(siz) R M Lvl/name                 OctLoc.c.b A Datatyp(siz) R M Lvl/name

     0-0-0/w SBIN              1 NR_NT

  ****  Section 016 LblCom PROD_LEN_MAX_EVER

  ****  Scalars and arrays  ****
OctLoc.c.b A Datatyp(siz) R M Lvl/name                 OctLoc.c.b A Datatyp(siz) R M Lvl/name

     0-0-0/w SBIN              1 PROD_LEN_MAX_EVER

  ****  Section 017 LblCom LAST_ORDER_SPECIFIED

  ****  Scalars and arrays  ****
OctLoc.c.b A Datatyp(siz) R M Lvl/name                 OctLoc.c.b A Datatyp(siz) R M Lvl/name

     0-0-0/w SBIN              1 LAST_ORDER_SPECIFIED

  ****  Section 018 LblCom SEMANTIC_ORDERING

  ****  Scalars and arrays  ****
OctLoc.c.b A Datatyp(siz) R M Lvl/name                 OctLoc.c.b A Datatyp(siz) R M Lvl/name

     0-0-0/b BIT               1 SEMANTIC_ORDERING

  ****  Section 019 LblCom ERR_SEV

  ****  Scalars and arrays  ****
OctLoc.c.b A Datatyp(siz) R M Lvl/name                 OctLoc.c.b A Datatyp(siz) R M Lvl/name

     0-0-0/w SBIN              1 ERR_SEV

  ****  Section 020 LblCom SET_LENGTHB

  ****  Scalars and arrays  ****
OctLoc.c.b A Datatyp(siz) R M Lvl/name                 OctLoc.c.b A Datatyp(siz) R M Lvl/name
PL6.E3A0      #008=WRITE_LOCAL_CONTEXT File=LR_ERRPTH.:Z8A6TSI                   SAT 08/09/97 09:30 Page:239

     0-0-0/w SBIN              1 SET_LENGTHB

  ****  Section 021 LblCom SET_LENGTHW

  ****  Scalars and arrays  ****
OctLoc.c.b A Datatyp(siz) R M Lvl/name                 OctLoc.c.b A Datatyp(siz) R M Lvl/name

     0-0-0/w SBIN              1 SET_LENGTHW

  ****  Section 022 LblCom EOF_SYMBOL_PTR

  ****  Scalars and arrays  ****
OctLoc.c.b A Datatyp(siz) R M Lvl/name                 OctLoc.c.b A Datatyp(siz) R M Lvl/name

     0-0-0/w PTR               1 EOF_SYMBOL_PTR

  ****  Section 023 LblCom ERROR_SYMBOL_PTR

  ****  Scalars and arrays  ****
OctLoc.c.b A Datatyp(siz) R M Lvl/name                 OctLoc.c.b A Datatyp(siz) R M Lvl/name

     0-0-0/w PTR               1 ERROR_SYMBOL_PTR

  ****  Section 024 LblCom BOF_SYMBOL_PTR

  ****  Scalars and arrays  ****
OctLoc.c.b A Datatyp(siz) R M Lvl/name                 OctLoc.c.b A Datatyp(siz) R M Lvl/name

     0-0-0/w PTR               1 BOF_SYMBOL_PTR

  ****  Section 025 LblCom OPTIONS

  ****  Scalars and arrays  ****
OctLoc.c.b A Datatyp(siz) R M Lvl/name                 OctLoc.c.b A Datatyp(siz) R M Lvl/name

     0-0-0/b BIT               1 OPTIONS(0:25)
PL6.E3A0      #008=WRITE_LOCAL_CONTEXT File=LR_ERRPTH.:Z8A6TSI                   SAT 08/09/97 09:30 Page:240

  ****  Section 026 LblCom OPTIONS_TEXT

  ****  Scalars and arrays  ****
OctLoc.c.b A Datatyp(siz) R M Lvl/name                 OctLoc.c.b A Datatyp(siz) R M Lvl/name

     0-0-0/c CHAR(4)           1 OPTIONS_TEXT(0:25)

  ****  Section 027 LblCom INSTR

  ****  Scalars and arrays  ****
OctLoc.c.b A Datatyp(siz) R M Lvl/name                 OctLoc.c.b A Datatyp(siz) R M Lvl/name

     0-0-0/c CHAR              1 INSTR(0:511)               0-0-0/c CHAR(512)         1 INSTRCHR

  ****  Section 028 LblCom INSTR_LISTED

  ****  Scalars and arrays  ****
OctLoc.c.b A Datatyp(siz) R M Lvl/name                 OctLoc.c.b A Datatyp(siz) R M Lvl/name

     0-0-0/b BIT               1 INSTR_LISTED

  ****  Section 029 LblCom INSTR_LEN

  ****  Scalars and arrays  ****
OctLoc.c.b A Datatyp(siz) R M Lvl/name                 OctLoc.c.b A Datatyp(siz) R M Lvl/name

     0-0-0/w SBIN              1 INSTR_LEN

  ****  Section 030 LblCom INSTR_INDX

  ****  Scalars and arrays  ****
OctLoc.c.b A Datatyp(siz) R M Lvl/name                 OctLoc.c.b A Datatyp(siz) R M Lvl/name

     0-0-0/w SBIN              1 INSTR_INDX

  ****  Section 031 LblCom EOF_FLAG
PL6.E3A0      #008=WRITE_LOCAL_CONTEXT File=LR_ERRPTH.:Z8A6TSI                   SAT 08/09/97 09:30 Page:241

  ****  Scalars and arrays  ****
OctLoc.c.b A Datatyp(siz) R M Lvl/name                 OctLoc.c.b A Datatyp(siz) R M Lvl/name

     0-0-0/b BIT               1 EOF_FLAG

  ****  Section 032 LblCom KEY_REC

  ****  Scalars and arrays  ****
OctLoc.c.b A Datatyp(siz) R M Lvl/name                 OctLoc.c.b A Datatyp(siz) R M Lvl/name

     0-0-0/c CHAR(10)          1 KEY_REC

  ****  Section 033 LblCom LINE

  ****  Scalars and arrays  ****
OctLoc.c.b A Datatyp(siz) R M Lvl/name                 OctLoc.c.b A Datatyp(siz) R M Lvl/name

     0-0-0/c CHAR(109)         1 LINE

  ****  Section 034 LblCom LINELEN

  ****  Scalars and arrays  ****
OctLoc.c.b A Datatyp(siz) R M Lvl/name                 OctLoc.c.b A Datatyp(siz) R M Lvl/name

     0-0-0/w SBIN              1 LINELEN

  ****  Section 035 LblCom TSTATS

  ****  Scalars and arrays  ****
OctLoc.c.b A Datatyp(siz) R M Lvl/name                 OctLoc.c.b A Datatyp(siz) R M Lvl/name

     0-0-0/w STRC(7380)  r     1 TSTATS

  ****  Section 036 LblCom C#_TO_$

  ****  Scalars and arrays  ****
PL6.E3A0      #008=WRITE_LOCAL_CONTEXT File=LR_ERRPTH.:Z8A6TSI                   SAT 08/09/97 09:30 Page:242
OctLoc.c.b A Datatyp(siz) R M Lvl/name                 OctLoc.c.b A Datatyp(siz) R M Lvl/name

     0-0-0/w PTR         r     1 C#_TO_$(0:2200)

  ****  Section 037 LblCom NR_CONFIG

  ****  Scalars and arrays  ****
OctLoc.c.b A Datatyp(siz) R M Lvl/name                 OctLoc.c.b A Datatyp(siz) R M Lvl/name

     0-0-0/w SBIN              1 NR_CONFIG

  ****  Section 038 LblCom INIT_CONFIG

  ****  Scalars and arrays  ****
OctLoc.c.b A Datatyp(siz) R M Lvl/name                 OctLoc.c.b A Datatyp(siz) R M Lvl/name

     0-0-0/w SBIN              1 INIT_CONFIG

  ****  Section 039 LblCom MAX_BASIS_ITEMS

  ****  Scalars and arrays  ****
OctLoc.c.b A Datatyp(siz) R M Lvl/name                 OctLoc.c.b A Datatyp(siz) R M Lvl/name

     0-0-0/w SBIN              1 MAX_BASIS_ITEMS

  ****  Section 040 LblCom MAX_TOTAL_ITEMS

  ****  Scalars and arrays  ****
OctLoc.c.b A Datatyp(siz) R M Lvl/name                 OctLoc.c.b A Datatyp(siz) R M Lvl/name

     0-0-0/w SBIN              1 MAX_TOTAL_ITEMS

  ****  Section 041 LblCom LAST_BINSRCH_ONLY

  ****  Scalars and arrays  ****
OctLoc.c.b A Datatyp(siz) R M Lvl/name                 OctLoc.c.b A Datatyp(siz) R M Lvl/name

PL6.E3A0      #008=WRITE_LOCAL_CONTEXT File=LR_ERRPTH.:Z8A6TSI                   SAT 08/09/97 09:30 Page:243
     0-0-0/w SBIN              1 LAST_BINSRCH_ONLY

  ****  Section 042 LblCom LAST_BOTH_BITBIN

  ****  Scalars and arrays  ****
OctLoc.c.b A Datatyp(siz) R M Lvl/name                 OctLoc.c.b A Datatyp(siz) R M Lvl/name

     0-0-0/w SBIN              1 LAST_BOTH_BITBIN

  ****  Section 043 LblCom GARBAGE

  ****  Scalars and arrays  ****
OctLoc.c.b A Datatyp(siz) R M Lvl/name                 OctLoc.c.b A Datatyp(siz) R M Lvl/name

     0-0-0/w PTR               1 GARBAGE(0:100)

  ****  Section 044 LblCom AMT_GARBAGE

  ****  Scalars and arrays  ****
OctLoc.c.b A Datatyp(siz) R M Lvl/name                 OctLoc.c.b A Datatyp(siz) R M Lvl/name

     0-0-0/w SBIN              1 AMT_GARBAGE

  ****  Section 045 LblCom LEAST_COST_STRING

  ****  Scalars and arrays  ****
OctLoc.c.b A Datatyp(siz) R M Lvl/name                 OctLoc.c.b A Datatyp(siz) R M Lvl/name

     0-0-0/w PTR               1 LEAST_COST_STRING(0:1400)

  ****  Section 046 LblCom LEAST_COST_PREFIX

  ****  Scalars and arrays  ****
OctLoc.c.b A Datatyp(siz) R M Lvl/name                 OctLoc.c.b A Datatyp(siz) R M Lvl/name

     0-0-0/w PTR               1 LEAST_COST_PREFIX(0:1400)

PL6.E3A0      #008=WRITE_LOCAL_CONTEXT File=LR_ERRPTH.:Z8A6TSI                   SAT 08/09/97 09:30 Page:244
  ****  Section 047 LblCom CURRE

  ****  Scalars and arrays  ****
OctLoc.c.b A Datatyp(siz) R M Lvl/name                 OctLoc.c.b A Datatyp(siz) R M Lvl/name

     0-0-0/d STRC(126)         1 CURRE(0:1400)

  ****  Section 048 LblCom LCP_INDX

  ****  Scalars and arrays  ****
OctLoc.c.b A Datatyp(siz) R M Lvl/name                 OctLoc.c.b A Datatyp(siz) R M Lvl/name

     0-0-0/h SBIN(18)          1 LCP_INDX(0:1400)

  ****  Section 049 LblCom COM_STRSP_LEN

  ****  Scalars and arrays  ****
OctLoc.c.b A Datatyp(siz) R M Lvl/name                 OctLoc.c.b A Datatyp(siz) R M Lvl/name

     0-0-0/w SBIN        r     1 COM_STRSP_LEN

  ****  Section 050 LblCom COM_SEARCH_STRING

  ****  Scalars and arrays  ****
OctLoc.c.b A Datatyp(siz) R M Lvl/name                 OctLoc.c.b A Datatyp(siz) R M Lvl/name

     0-0-0/w PTR         r     1 COM_SEARCH_STRING

  ****  Section 051 LblCom COM_SEARCH_STRING_LEN

  ****  Scalars and arrays  ****
OctLoc.c.b A Datatyp(siz) R M Lvl/name                 OctLoc.c.b A Datatyp(siz) R M Lvl/name

     0-0-0/w SBIN        r     1 COM_SEARCH_STRING_LEN

  ****  Section 052 LblCom COM_STRING_SPACE_LEN

PL6.E3A0      #008=WRITE_LOCAL_CONTEXT File=LR_ERRPTH.:Z8A6TSI                   SAT 08/09/97 09:30 Page:245
  ****  Scalars and arrays  ****
OctLoc.c.b A Datatyp(siz) R M Lvl/name                 OctLoc.c.b A Datatyp(siz) R M Lvl/name

     0-0-0/w SBIN        r     1 COM_STRING_SPACE_LEN

  ****  Section 053 LblCom COM_STRING_SPACE_H

  ****  Scalars and arrays  ****
OctLoc.c.b A Datatyp(siz) R M Lvl/name                 OctLoc.c.b A Datatyp(siz) R M Lvl/name

     0-0-0/h SBIN(18)    r     1 COM_STRING_SPACE_H(0:24999)

  ****  Section 054 LblCom COM_STRING_SPACE$

  ****  Scalars and arrays  ****
OctLoc.c.b A Datatyp(siz) R M Lvl/name                 OctLoc.c.b A Datatyp(siz) R M Lvl/name

     0-0-0/w PTR         r     1 COM_STRING_SPACE$

  ****  Section 055 LblCom COM_STRING_PTR

  ****  Scalars and arrays  ****
OctLoc.c.b A Datatyp(siz) R M Lvl/name                 OctLoc.c.b A Datatyp(siz) R M Lvl/name

     0-0-0/w PTR         r     1 COM_STRING_PTR

  ****  Section 056 LblCom COM_STRING_INDX

  ****  Scalars and arrays  ****
OctLoc.c.b A Datatyp(siz) R M Lvl/name                 OctLoc.c.b A Datatyp(siz) R M Lvl/name

     0-0-0/w SBIN        r     1 COM_STRING_INDX

  ****  Section 057 LblCom LCP_TABLE_LEN

  ****  Scalars and arrays  ****
OctLoc.c.b A Datatyp(siz) R M Lvl/name                 OctLoc.c.b A Datatyp(siz) R M Lvl/name
PL6.E3A0      #008=WRITE_LOCAL_CONTEXT File=LR_ERRPTH.:Z8A6TSI                   SAT 08/09/97 09:30 Page:246

     0-0-0/w SBIN              1 LCP_TABLE_LEN

  ****  Section 058 LblCom STATE_ITEM_INDEX

  ****  Scalars and arrays  ****
OctLoc.c.b A Datatyp(siz) R M Lvl/name                 OctLoc.c.b A Datatyp(siz) R M Lvl/name

     0-0-0/h STRC              1 STATE_ITEM_INDEX(0:2200)

  ****  Section 059 LblCom PATH

  ****  Scalars and arrays  ****
OctLoc.c.b A Datatyp(siz) R M Lvl/name                 OctLoc.c.b A Datatyp(siz) R M Lvl/name

     0-0-0/h STRC        r     1 PATH(0:17600)

  ****  Section 060 LblCom PATH_STRINGS_LEN

  ****  Scalars and arrays  ****
OctLoc.c.b A Datatyp(siz) R M Lvl/name                 OctLoc.c.b A Datatyp(siz) R M Lvl/name

     0-0-0/w SBIN        r     1 PATH_STRINGS_LEN

  ****  Section 061 LblCom PATH_ADDR$

  ****  Scalars and arrays  ****
OctLoc.c.b A Datatyp(siz) R M Lvl/name                 OctLoc.c.b A Datatyp(siz) R M Lvl/name

     0-0-0/w PTR         r     1 PATH_ADDR$

  ****  Section 062 LblCom PATH_TABLE_LEN

  ****  Scalars and arrays  ****
OctLoc.c.b A Datatyp(siz) R M Lvl/name                 OctLoc.c.b A Datatyp(siz) R M Lvl/name

     0-0-0/w SBIN        r     1 PATH_TABLE_LEN
PL6.E3A0      #008=WRITE_LOCAL_CONTEXT File=LR_ERRPTH.:Z8A6TSI                   SAT 08/09/97 09:30 Page:247

  ****  Section 063 LblCom EDGECOST

  ****  Scalars and arrays  ****
OctLoc.c.b A Datatyp(siz) R M Lvl/name                 OctLoc.c.b A Datatyp(siz) R M Lvl/name

     0-0-0/w SBIN              1 EDGECOST(0:400)

  ****  Section 064 LblCom ITEM_TABLE_LEN

  ****  Scalars and arrays  ****
OctLoc.c.b A Datatyp(siz) R M Lvl/name                 OctLoc.c.b A Datatyp(siz) R M Lvl/name

     0-0-0/w SBIN        r     1 ITEM_TABLE_LEN

  ****  Section 065 LblCom ORDERED_ITEM

  ****  Scalars and arrays  ****
OctLoc.c.b A Datatyp(siz) R M Lvl/name                 OctLoc.c.b A Datatyp(siz) R M Lvl/name

     0-0-0/h STRC              1 ORDERED_ITEM(0:400)

  ****  Section 066 LblCom NEIGHBOR

  ****  Scalars and arrays  ****
OctLoc.c.b A Datatyp(siz) R M Lvl/name                 OctLoc.c.b A Datatyp(siz) R M Lvl/name

     0-0-0/w SBIN              1 NEIGHBOR(0:400)

  ****  Section 067 LblCom PATH_INFO

  ****  Scalars and arrays  ****
OctLoc.c.b A Datatyp(siz) R M Lvl/name                 OctLoc.c.b A Datatyp(siz) R M Lvl/name

     0-0-0/w STRC(28872) r     1 PATH_INFO

  ****  Section 068 LblCom CHOSEN
PL6.E3A0      #008=WRITE_LOCAL_CONTEXT File=LR_ERRPTH.:Z8A6TSI                   SAT 08/09/97 09:30 Page:248

  ****  Scalars and arrays  ****
OctLoc.c.b A Datatyp(siz) R M Lvl/name                 OctLoc.c.b A Datatyp(siz) R M Lvl/name

     0-0-0/w BIT               1 CHOSEN(0:400)

  ****  Section 069 LblCom REACHED

  ****  Scalars and arrays  ****
OctLoc.c.b A Datatyp(siz) R M Lvl/name                 OctLoc.c.b A Datatyp(siz) R M Lvl/name

     0-0-0/b BIT         r     1 REACHED(0:400)

  ****  Section 070 LblCom EXP_PATH_INDX

  ****  Scalars and arrays  ****
OctLoc.c.b A Datatyp(siz) R M Lvl/name                 OctLoc.c.b A Datatyp(siz) R M Lvl/name

     0-0-0/w SBIN        r     1 EXP_PATH_INDX

  ****  Auto variables  ****

  ****  Scalars and arrays  ****
OctLoc.c.b A Datatyp(siz) R M Lvl/name                 OctLoc.c.b A Datatyp(siz) R M Lvl/name

     4-0-0/w PTR         r     1 @SOURCE                    3-0-0/w PTR         r     1 @STATE
     7-0-0/w SBIN        r     1 I                         10-0-0/w SBIN        r     1 ITEM
     6-0-0/w SBIN        r     1 PATH_INDX
     5-0-0/w SBIN        r     1 PROPOSED_PATH_TABLE_LEN
    *0-0-0/w SBIN        r     1 SOURCE                    *0-0-0/w SBIN        r     1 STATE

  ****  BASED and DCB variables  ****

  ****  Scalars and arrays  ****
OctLoc.c.b A Datatyp(siz) R M Lvl/name                 OctLoc.c.b A Datatyp(siz) R M Lvl/name

     0-0-0/w STRC(72)          1 CELL                       0-0-0/c ACHR        r     1 COM_STRINGS
PL6.E3A0      #008=WRITE_LOCAL_CONTEXT File=LR_ERRPTH.:Z8A6TSI                   SAT 08/09/97 09:30 Page:249
     0-0-0/c ACHR              1 COM_STRING_SPACE           0-0-0/c ACHR        r     1 CSEARCH_STRING
     0-0-0/w STRC(57888) r     1 C_SET_B                    0-0-0/w STRC(72)          1 INCLUDES_B
     0-0-0/w STRC(144)         1 INCL_B                     0-0-0/w STRC(5436)        1 ITEM_B
     0-0-0/w STRC(5652)        1 KEY_B                      0-0-0N  NULL        r     1 M$LO
     0-0-0N  NULL        r     1 M$OU                       0-0-0N  NULL        r     1 M$SI
     0-0-0N  NULL        r     1 M$SO                       0-0-0N  NULL        r     1 M$UI
     0-0-0/c ACHR        r     1 PATH_STRINGS               0-0-0/w STRC(90)          1 PREFIX
     0-0-0/w ASTR(72)    r     1 PREFIXCHR                  0-0-0/w STRC              1 STRING
     0-0-0/w ASTR(18)    r     1 STRINGCHR                  0-0-0/w STRC(351)         1 SYMBOL


   Procedure WRITE_LOCAL_CONTEXT requires 259 words for executable code.
   Procedure WRITE_LOCAL_CONTEXT requires 16 words of local(AUTO) storage.

PL6.E3A0      #009=OUTPUT_STATE_ITEMS File=LR_ERRPTH.:Z8A6TSI                    SAT 08/09/97 09:31 Page:250
      690        1        /*T***********************************************************/
      691        2        /*T*                                                         */
      692        3        /*T* Copyright (c) Bull HN Information Systems Inc., 1997    */
      693        4        /*T*                                                         */
      694        5        /*T***********************************************************/
      695        6        OUTPUT_STATE_ITEMS : PROC;
      696        7
      697        8        /*D*
      698        9               NAME: OUTPUT_STATE_ITEMS
      699       10            PURPOSE: OUTPUT THE INDICIES INTO THE ITEM TABLE FOR EACH
      700       11                     STATE.
      701       12        */
      702       13
      703       14        %INCLUDE LR_GRAM_EXT;
      704      553        %INCLUDE LR_CNFG_EXT;
      705      706        %INCLUDE LR_ERR_EXT;
      706      849
      707      850    1   DCL STATE SBIN WORD;
      708      851
      709      852
      710      853        %SELECT_SUBS;
      711      856        %OUT_STR(S="'%EQU STATE_ITEM_LEN = '");
      712      859    1   CALL OUT_DEC(NR_CONFIG - 1);
      713      860        %OUT_STR(S="';'");
      714      863    1   CALL FLUSH;
      715      864
      716      865        %STAT_LENGTH(T=SI_BASIS,V="NR_CONFIG");
      717      868        %STAT_LENGTH(T=SI_CLOSURE,V="NR_CONFIG");
      718      871
      719      872        %SELECT_OU;
      720      875
      721      876        /* FINISH UP ITEM LIST FROM WRITE_LOCAL_CONTEXT */
      722      877
      723      878        %OUTLINE(S="'%END_TABLE_ITEM;'");
      724      884
      725      885        %OUTLINE(S="'%START_TABLE_STATE_ITEM;'");
      726      891
PL6.E3A0      #009=OUTPUT_STATE_ITEMS File=LR_ERRPTH.:Z8A6TSI                    SAT 08/09/97 09:31 Page:251
      727      892    2   DO STATE = 1 TO NR_CONFIG - 1;
      728      893
      729      894          %OUT_STR(S="'  %STINDX(B='");
      730      897    2     CALL OUT_DEC(BINBIT(STATE_ITEM_INDEX.BASIS(STATE),36));
      731      898
      732      899          %BOUNDS(T=SI_BASIS, V="STATE_ITEM_INDEX.BASIS(STATE)");
      733      905
      734      906          %OUT_STR(S="',C='");
      735      909    2     CALL OUT_DEC(BINBIT(STATE_ITEM_INDEX.CLOSURE(STATE), 36));
      736      910
      737      911          %BOUNDS(T=SI_CLOSURE, V="STATE_ITEM_INDEX.CLOSURE(STATE)");
      738      917
      739      918          %OUT_STR(S="');  /* '");
      740      921    2     CALL OUT_DEC(STATE);
      741      922          %OUT_STR(S="' */'");
      742      925    2     CALL FLUSH;
      743      926
      744      927    2   END;
      745      928
      746      929        %OUTLINE(S="'%END_TABLE_STATE_ITEM;'");
      747      935
      748      936    1   END OUTPUT_STATE_ITEMS;
      749      937        %EOD;

PL6.E3A0      #009=OUTPUT_STATE_ITEMS File=LR_ERRPTH.:Z8A6TSI                    SAT 08/09/97 09:31 Page:252
--  Include file information  --

   LR_ERR_EXT.:Z8A6TOU  cannot be made into a system file and is referenced.
   LR_CNFG_EXT.:Z8A6TOU  cannot be made into a system file and is referenced.
   LR_IO_EXT.:Z8A6TOU  cannot be made into a system file and is referenced.
   LR_GRAM_EXT.:Z8A6TOU  cannot be made into a system file and is referenced.
      No diagnostics issued in procedure OUTPUT_STATE_ITEMS.

   Procedure OUTPUT_STATE_ITEMS requires 132 words for executable code.
   Procedure OUTPUT_STATE_ITEMS requires 8 words of local(AUTO) storage.

PL6.E3A0      #009=OUTPUT_STATE_ITEMS File=LR_ERRPTH.:Z8A6TSI                    SAT 08/09/97 09:31 Page:253

 Object Unit name= OUTPUT_STATE_ITEMS                         File name= LR_ERRPTH.:Z8A6TOU
 UTS= AUG 09 '97 09:31:17.48 SAT                              Compiler= PL-6/E31         Sev=      00
 SharedLib= :SHARED_SYSTEM                                    Alt SharedLib=


    ****  Control sections  ****

 Sect   Type Bound  Init  Size OctSiz  Section name(segment info)
    0  LblCom even  none     1      1  OUT_DCBN
    1   DCB   even  none     0      0  M$OU
    2   DCB   even  none     0      0  M$SO
    3   DCB   even  none     0      0  M$LO
    4   DCB   even  none     0      0  M$SI
    5   DCB   even  none     0      0  M$UI
    6  LblCom even  none  1401   2571  SYM_PTRS
    7  LblCom even  none  4001   7641  RIGHT_PARTS
    8  LblCom even  none  3002   5672  PROD
    9  LblCom even  none     1      1  NR_PROD
   10  LblCom even  none     1      1  NR_SYMS
   11  LblCom even  none     1      1  NR_TERM
   12  LblCom even  none     1      1  LAST_ACT
   13  LblCom even  none     1      1  LAST_NULL
   14  LblCom even  none     1      1  NR_ONRIGHT
   15  LblCom even  none     1      1  NR_NT
   16  LblCom even  none     1      1  PROD_LEN_MAX_EVER
   17  LblCom even  none     1      1  LAST_ORDER_SPECIFIED
   18  LblCom even  none     1      1  SEMANTIC_ORDERING
   19  LblCom even  none     1      1  ERR_SEV
   20  LblCom even  none     1      1  SET_LENGTHB
   21  LblCom even  none     1      1  SET_LENGTHW
   22  LblCom even  none     1      1  EOF_SYMBOL_PTR
   23  LblCom even  none     1      1  ERROR_SYMBOL_PTR
   24  LblCom even  none     1      1  BOF_SYMBOL_PTR
   25  LblCom even  none     1      1  OPTIONS
   26  LblCom even  none    26     32  OPTIONS_TEXT
   27  LblCom even  none   128    200  INSTR
   28  LblCom even  none     1      1  INSTR_LISTED
PL6.E3A0      #009=OUTPUT_STATE_ITEMS File=LR_ERRPTH.:Z8A6TSI                    SAT 08/09/97 09:31 Page:254
   29  LblCom even  none     1      1  INSTR_LEN
   30  LblCom even  none     1      1  INSTR_INDX
   31  LblCom even  none     1      1  EOF_FLAG
   32  LblCom even  none     3      3  KEY_REC
   33  LblCom even  none    28     34  LINE
   34  LblCom even  none     1      1  LINELEN
   35  LblCom even  none   205    315  TSTATS
   36  LblCom even  none  2201   4231  C#_TO_$
   37  LblCom even  none     1      1  NR_CONFIG
   38  LblCom even  none     1      1  INIT_CONFIG
   39  LblCom even  none     1      1  MAX_BASIS_ITEMS
   40  LblCom even  none     1      1  MAX_TOTAL_ITEMS
   41  LblCom even  none     1      1  LAST_BINSRCH_ONLY
   42  LblCom even  none     1      1  LAST_BOTH_BITBIN
   43  LblCom even  none   101    145  GARBAGE
   44  LblCom even  none     1      1  AMT_GARBAGE
   45  LblCom even  none  1401   2571  LEAST_COST_STRING
   46  LblCom even  none  1401   2571  LEAST_COST_PREFIX
   47  LblCom even  none  5604  12744  CURRE
   48  LblCom even  none   701   1275  LCP_INDX
   49  LblCom even  none     1      1  COM_STRSP_LEN
   50  LblCom even  none     1      1  COM_SEARCH_STRING
   51  LblCom even  none     1      1  COM_SEARCH_STRING_LEN
   52  LblCom even  none     1      1  COM_STRING_SPACE_LEN
   53  LblCom even  none 12500  30324  COM_STRING_SPACE_H
   54  LblCom even  none     1      1  COM_STRING_SPACE$
   55  LblCom even  none     1      1  COM_STRING_PTR
   56  LblCom even  none     1      1  COM_STRING_INDX
   57  LblCom even  none     1      1  LCP_TABLE_LEN
   58  LblCom even  none  2201   4231  STATE_ITEM_INDEX
   59  LblCom even  none 17601  42301  PATH
   60  LblCom even  none     1      1  PATH_STRINGS_LEN
   61  LblCom even  none     1      1  PATH_ADDR$
   62  LblCom even  none     1      1  PATH_TABLE_LEN
   63  LblCom even  none   401    621  EDGECOST
   64  LblCom even  none     1      1  ITEM_TABLE_LEN
   65  LblCom even  none   401    621  ORDERED_ITEM
PL6.E3A0      #009=OUTPUT_STATE_ITEMS File=LR_ERRPTH.:Z8A6TSI                    SAT 08/09/97 09:31 Page:255
   66  LblCom even  none   401    621  NEIGHBOR
   67  LblCom even  none   802   1442  PATH_INFO
   68  LblCom even  none   401    621  CHOSEN
   69  LblCom even  none    12     14  REACHED
   70  LblCom even  none     1      1  EXP_PATH_INDX
   71  RoData even  UTS     29     35  OUTPUT_STATE_ITEMS
   72   Proc  even  none   132    204  OUTPUT_STATE_ITEMS
   73  RoData even  none    29     35  OUTPUT_STATE_ITEMS

    ****  Entry defs  ****

                              Check   Calling
                             calling  sequence
  Sect OctLoc Primary Altret sequence   type   Parms  Name
    72      0   yes            yes      Std        0  OUTPUT_STATE_ITEMS

  ****  Entry refs  ****

         Check        Calling
        calling       sequence
Altret sequence SRef   type   Args  Name
         yes           Std       2 OUT_STR
         yes           Std       0 FLUSH
         yes           Std       1 OUT_DEC
                       nStd      0 X66_AUTO_0
                       nStd      0 X66_ARET

  ****  Data refs  ****

  Flags:  r = read only, s = secondary
Flgs Name                             Flgs Name                             Flgs Name
     M$OU                                  M$SO                                  M$LO
     M$SI                                  M$UI
PL6.E3A0      #009=OUTPUT_STATE_ITEMS File=LR_ERRPTH.:Z8A6TSI                    SAT 08/09/97 09:31 Page:256

  ****  Segment refs  ****

  Flags:  r = read only, s = secondary
Flgs Name                             Flgs Name                             Flgs Name
     NULLSID                               ISSID
PL6.E3A0      #009=OUTPUT_STATE_ITEMS File=LR_ERRPTH.:Z8A6TSI                    SAT 08/09/97 09:31 Page:257


      690        1        /*T***********************************************************/
      691        2        /*T*                                                         */
      692        3        /*T* Copyright (c) Bull HN Information Systems Inc., 1997    */
      693        4        /*T*                                                         */
      694        5        /*T***********************************************************/
      695        6        OUTPUT_STATE_ITEMS : PROC;

      6 72 000000   000000 700200 xent  OUTPUT_STAT* TSX0  ! X66_AUTO_0
        72 000001   000010 000000                    ZERO    8,0

      696        7
      697        8        /*D*
      698        9               NAME: OUTPUT_STATE_ITEMS
      699       10            PURPOSE: OUTPUT THE INDICIES INTO THE ITEM TABLE FOR EACH
      700       11                     STATE.
      701       12        */
      702       13
      703       14        %INCLUDE LR_GRAM_EXT;
      704      553        %INCLUDE LR_CNFG_EXT;
      705      706        %INCLUDE LR_ERR_EXT;
      706      849
      707      850    1   DCL STATE SBIN WORD;
      708      851
      709      852
      710      853        %SELECT_SUBS;

    854 72 000002   000000 236007 xsym               LDQ     M$SO,DL
        72 000003   000000 756000 0                  STQ     OUT_DCBN

      711      856        %OUT_STR(S="'%EQU STATE_ITEM_LEN = '");

    857 72 000004   000002 630400 73                 EPPR0   2
        72 000005   000000 631400 73                 EPPR1   0
        72 000006   000000 701000 xent               TSX1    OUT_STR
        72 000007   000000 011000                    NOP     0

PL6.E3A0      #009=OUTPUT_STATE_ITEMS File=LR_ERRPTH.:Z8A6TSI                    SAT 08/09/97 09:31 Page:258
      712      859    1   CALL OUT_DEC(NR_CONFIG - 1);

    859 72 000010   000000 235000 37                 LDA     NR_CONFIG
        72 000011   000001 135007                    SBLA    1,DL
        72 000012   200004 755100                    STA     STATE+1,,AUTO
        72 000013   200004 630500                    EPPR0   STATE+1,,AUTO
        72 000014   200005 450500                    STP0    STATE+2,,AUTO
        72 000015   200005 630500                    EPPR0   STATE+2,,AUTO
        72 000016   000004 631400 73                 EPPR1   4
        72 000017   000000 701000 xent               TSX1    OUT_DEC
        72 000020   000000 011000                    NOP     0

      713      860        %OUT_STR(S="';'");

    861 72 000021   000007 630400 73                 EPPR0   7
        72 000022   000000 631400 73                 EPPR1   0
        72 000023   000000 701000 xent               TSX1    OUT_STR
        72 000024   000000 011000                    NOP     0

      714      863    1   CALL FLUSH;

    863 72 000025   000011 631400 73                 EPPR1   9
        72 000026   000000 701000 xent               TSX1    FLUSH
        72 000027   000000 011000                    NOP     0

      715      864
      716      865        %STAT_LENGTH(T=SI_BASIS,V="NR_CONFIG");

    866 72 000030   000000 235000 37                 LDA     NR_CONFIG
        72 000031   000135 755000 35                 STA     TSTATS+93

      717      868        %STAT_LENGTH(T=SI_CLOSURE,V="NR_CONFIG");

    869 72 000032   000143 755000 35                 STA     TSTATS+99

      718      871
      719      872        %SELECT_OU;
PL6.E3A0      #009=OUTPUT_STATE_ITEMS File=LR_ERRPTH.:Z8A6TSI                    SAT 08/09/97 09:31 Page:259

    873 72 000033   000000 236007 xsym               LDQ     M$OU,DL
        72 000034   000000 756000 0                  STQ     OUT_DCBN

      720      875
      721      876        /* FINISH UP ITEM LIST FROM WRITE_LOCAL_CONTEXT */
      722      877
      723      878        %OUTLINE(S="'%END_TABLE_ITEM;'");

    880 72 000035   000013 630400 73                 EPPR0   11
        72 000036   000000 631400 73                 EPPR1   0
        72 000037   000000 701000 xent               TSX1    OUT_STR
        72 000040   000000 011000                    NOP     0

    881 72 000041   000011 631400 73                 EPPR1   9
        72 000042   000000 701000 xent               TSX1    FLUSH
        72 000043   000000 011000                    NOP     0

      724      884
      725      885        %OUTLINE(S="'%START_TABLE_STATE_ITEM;'");

    887 72 000044   000016 630400 73                 EPPR0   14
        72 000045   000000 631400 73                 EPPR1   0
        72 000046   000000 701000 xent               TSX1    OUT_STR
        72 000047   000000 011000                    NOP     0

    888 72 000050   000011 631400 73                 EPPR1   9
        72 000051   000000 701000 xent               TSX1    FLUSH
        72 000052   000000 011000                    NOP     0

      726      891
      727      892    2   DO STATE = 1 TO NR_CONFIG - 1;

    892 72 000053   000001 235007                    LDA     1,DL
        72 000054   200003 755100                    STA     STATE,,AUTO
        72 000055   000171 710000 72                 TRA     s:927+1

PL6.E3A0      #009=OUTPUT_STATE_ITEMS File=LR_ERRPTH.:Z8A6TSI                    SAT 08/09/97 09:31 Page:260
      728      893
      729      894          %OUT_STR(S="'  %STINDX(B='");

    895 72 000056   000021 630400 73                 EPPR0   17
        72 000057   000000 631400 73                 EPPR1   0
        72 000060   000000 701000 xent               TSX1    OUT_STR
        72 000061   000000 011000                    NOP     0

      730      897    2     CALL OUT_DEC(BINBIT(STATE_ITEM_INDEX.BASIS(STATE),36));

    897 72 000062   200003 720100                    LXL0    STATE,,AUTO
        72 000063   000000 236010 58                 LDQ     STATE_ITEM_INDEX,X0
        72 000064   000022 732000                    QRS     18
        72 000065   200004 756100                    STQ     STATE+1,,AUTO
        72 000066   200004 630500                    EPPR0   STATE+1,,AUTO
        72 000067   200006 450500                    STP0    STATE+3,,AUTO
        72 000070   200006 630500                    EPPR0   STATE+3,,AUTO
        72 000071   000004 631400 73                 EPPR1   4
        72 000072   000000 701000 xent               TSX1    OUT_DEC
        72 000073   000000 011000                    NOP     0

      731      898
      732      899          %BOUNDS(T=SI_BASIS, V="STATE_ITEM_INDEX.BASIS(STATE)");

    901 72 000074   200003 720100                    LXL0    STATE,,AUTO
        72 000075   000000 236010 58                 LDQ     STATE_ITEM_INDEX,X0
        72 000076   000022 732000                    QRS     18
        72 000077   000134 116000 35                 CMPQ    TSTATS+92
        72 000100   000102 604400 72                 TMOZ    s:901+6
        72 000101   000134 236000 35                 LDQ     TSTATS+92
        72 000102   000134 756000 35                 STQ     TSTATS+92

    902 72 000103   000000 236010 58                 LDQ     STATE_ITEM_INDEX,X0
        72 000104   000022 732000                    QRS     18
        72 000105   000133 116000 35                 CMPQ    TSTATS+91
        72 000106   000110 605000 72                 TPL     s:902+5
        72 000107   000133 236000 35                 LDQ     TSTATS+91
PL6.E3A0      #009=OUTPUT_STATE_ITEMS File=LR_ERRPTH.:Z8A6TSI                    SAT 08/09/97 09:31 Page:261
        72 000110   000133 756000 35                 STQ     TSTATS+91

      733      905
      734      906          %OUT_STR(S="',C='");

    907 72 000111   000024 630400 73                 EPPR0   20
        72 000112   000000 631400 73                 EPPR1   0
        72 000113   000000 701000 xent               TSX1    OUT_STR
        72 000114   000000 011000                    NOP     0

      735      909    2     CALL OUT_DEC(BINBIT(STATE_ITEM_INDEX.CLOSURE(STATE), 36));

    909 72 000115   200003 720100                    LXL0    STATE,,AUTO
        72 000116   000000 236010 58                 LDQ     STATE_ITEM_INDEX,X0
        72 000117   000022 736000                    QLS     18
        72 000120   000022 732000                    QRS     18
        72 000121   200004 756100                    STQ     STATE+1,,AUTO
        72 000122   200004 630500                    EPPR0   STATE+1,,AUTO
        72 000123   200006 450500                    STP0    STATE+3,,AUTO
        72 000124   200006 630500                    EPPR0   STATE+3,,AUTO
        72 000125   000004 631400 73                 EPPR1   4
        72 000126   000000 701000 xent               TSX1    OUT_DEC
        72 000127   000000 011000                    NOP     0

      736      910
      737      911          %BOUNDS(T=SI_CLOSURE, V="STATE_ITEM_INDEX.CLOSURE(STATE)");

    913 72 000130   200003 720100                    LXL0    STATE,,AUTO
        72 000131   000000 236010 58                 LDQ     STATE_ITEM_INDEX,X0
        72 000132   000022 736000                    QLS     18
        72 000133   000022 732000                    QRS     18
        72 000134   000142 116000 35                 CMPQ    TSTATS+98
        72 000135   000137 604400 72                 TMOZ    s:913+7
        72 000136   000142 236000 35                 LDQ     TSTATS+98
        72 000137   000142 756000 35                 STQ     TSTATS+98

    914 72 000140   000000 236010 58                 LDQ     STATE_ITEM_INDEX,X0
PL6.E3A0      #009=OUTPUT_STATE_ITEMS File=LR_ERRPTH.:Z8A6TSI                    SAT 08/09/97 09:31 Page:262
        72 000141   000022 736000                    QLS     18
        72 000142   000022 732000                    QRS     18
        72 000143   000141 116000 35                 CMPQ    TSTATS+97
        72 000144   000146 605000 72                 TPL     s:914+6
        72 000145   000141 236000 35                 LDQ     TSTATS+97
        72 000146   000141 756000 35                 STQ     TSTATS+97

      738      917
      739      918          %OUT_STR(S="');  /* '");

    919 72 000147   000027 630400 73                 EPPR0   23
        72 000150   000000 631400 73                 EPPR1   0
        72 000151   000000 701000 xent               TSX1    OUT_STR
        72 000152   000000 011000                    NOP     0

      740      921    2     CALL OUT_DEC(STATE);

    921 72 000153   200003 630500                    EPPR0   STATE,,AUTO
        72 000154   200004 450500                    STP0    STATE+1,,AUTO
        72 000155   200004 630500                    EPPR0   STATE+1,,AUTO
        72 000156   000004 631400 73                 EPPR1   4
        72 000157   000000 701000 xent               TSX1    OUT_DEC
        72 000160   000000 011000                    NOP     0

      741      922          %OUT_STR(S="' */'");

    923 72 000161   000031 630400 73                 EPPR0   25
        72 000162   000000 631400 73                 EPPR1   0
        72 000163   000000 701000 xent               TSX1    OUT_STR
        72 000164   000000 011000                    NOP     0

      742      925    2     CALL FLUSH;

    925 72 000165   000011 631400 73                 EPPR1   9
        72 000166   000000 701000 xent               TSX1    FLUSH
        72 000167   000000 011000                    NOP     0

PL6.E3A0      #009=OUTPUT_STATE_ITEMS File=LR_ERRPTH.:Z8A6TSI                    SAT 08/09/97 09:31 Page:263
      743      926
      744      927    2   END;

    927 72 000170   200003 054100                    AOS     STATE,,AUTO
        72 000171   200003 236100                    LDQ     STATE,,AUTO
        72 000172   000000 116000 37                 CMPQ    NR_CONFIG
        72 000173   000056 604000 72                 TMI     s:895

      745      928
      746      929        %OUTLINE(S="'%END_TABLE_STATE_ITEM;'");

    931 72 000174   000033 630400 73                 EPPR0   27
        72 000175   000000 631400 73                 EPPR1   0
        72 000176   000000 701000 xent               TSX1    OUT_STR
        72 000177   000000 011000                    NOP     0

    932 72 000200   000011 631400 73                 EPPR1   9
        72 000201   000000 701000 xent               TSX1    FLUSH
        72 000202   000000 011000                    NOP     0

      747      935
      748      936    1   END OUTPUT_STATE_ITEMS;

    936 72 000203   000000 702200 xent               TSX2  ! X66_ARET
      749      937        %EOD;

PL6.E3A0      #009=OUTPUT_STATE_ITEMS File=LR_ERRPTH.:Z8A6TSI                    SAT 08/09/97 09:31 Page:264
--  Include file information  --

   LR_ERR_EXT.:Z8A6TOU  cannot be made into a system file and is referenced.
   LR_CNFG_EXT.:Z8A6TOU  cannot be made into a system file and is referenced.
   LR_IO_EXT.:Z8A6TOU  cannot be made into a system file and is referenced.
   LR_GRAM_EXT.:Z8A6TOU  cannot be made into a system file and is referenced.
      No diagnostics issued in procedure OUTPUT_STATE_ITEMS.
PL6.E3A0      #009=OUTPUT_STATE_ITEMS File=LR_ERRPTH.:Z8A6TSI                    SAT 08/09/97 09:31 Page:265

 **** Variables and constants ****

  ****  Section 000 LblCom OUT_DCBN

  ****  Scalars and arrays  ****
OctLoc.c.b A Datatyp(siz) R M Lvl/name                 OctLoc.c.b A Datatyp(siz) R M Lvl/name

     0-0-0/w SBIN        r     1 OUT_DCBN

  ****  Section 006 LblCom SYM_PTRS

  ****  Scalars and arrays  ****
OctLoc.c.b A Datatyp(siz) R M Lvl/name                 OctLoc.c.b A Datatyp(siz) R M Lvl/name

     0-0-0/w PTR               1 SYM_PTRS(0:1400)

  ****  Section 007 LblCom RIGHT_PARTS

  ****  Scalars and arrays  ****
OctLoc.c.b A Datatyp(siz) R M Lvl/name                 OctLoc.c.b A Datatyp(siz) R M Lvl/name

     0-0-0/h SBIN(18)          1 RIGHT_PARTS(0:8000)

  ****  Section 008 LblCom PROD

  ****  Scalars and arrays  ****
OctLoc.c.b A Datatyp(siz) R M Lvl/name                 OctLoc.c.b A Datatyp(siz) R M Lvl/name

     0-0-0/h STRC(72)          1 PROD(0:1500)

  ****  Section 009 LblCom NR_PROD

  ****  Scalars and arrays  ****
OctLoc.c.b A Datatyp(siz) R M Lvl/name                 OctLoc.c.b A Datatyp(siz) R M Lvl/name

     0-0-0/w SBIN              1 NR_PROD

PL6.E3A0      #009=OUTPUT_STATE_ITEMS File=LR_ERRPTH.:Z8A6TSI                    SAT 08/09/97 09:31 Page:266
  ****  Section 010 LblCom NR_SYMS

  ****  Scalars and arrays  ****
OctLoc.c.b A Datatyp(siz) R M Lvl/name                 OctLoc.c.b A Datatyp(siz) R M Lvl/name

     0-0-0/w SBIN              1 NR_SYMS

  ****  Section 011 LblCom NR_TERM

  ****  Scalars and arrays  ****
OctLoc.c.b A Datatyp(siz) R M Lvl/name                 OctLoc.c.b A Datatyp(siz) R M Lvl/name

     0-0-0/w SBIN              1 NR_TERM

  ****  Section 012 LblCom LAST_ACT

  ****  Scalars and arrays  ****
OctLoc.c.b A Datatyp(siz) R M Lvl/name                 OctLoc.c.b A Datatyp(siz) R M Lvl/name

     0-0-0/w SBIN              1 LAST_ACT

  ****  Section 013 LblCom LAST_NULL

  ****  Scalars and arrays  ****
OctLoc.c.b A Datatyp(siz) R M Lvl/name                 OctLoc.c.b A Datatyp(siz) R M Lvl/name

     0-0-0/w SBIN              1 LAST_NULL

  ****  Section 014 LblCom NR_ONRIGHT

  ****  Scalars and arrays  ****
OctLoc.c.b A Datatyp(siz) R M Lvl/name                 OctLoc.c.b A Datatyp(siz) R M Lvl/name

     0-0-0/w SBIN              1 NR_ONRIGHT

  ****  Section 015 LblCom NR_NT

PL6.E3A0      #009=OUTPUT_STATE_ITEMS File=LR_ERRPTH.:Z8A6TSI                    SAT 08/09/97 09:31 Page:267
  ****  Scalars and arrays  ****
OctLoc.c.b A Datatyp(siz) R M Lvl/name                 OctLoc.c.b A Datatyp(siz) R M Lvl/name

     0-0-0/w SBIN              1 NR_NT

  ****  Section 016 LblCom PROD_LEN_MAX_EVER

  ****  Scalars and arrays  ****
OctLoc.c.b A Datatyp(siz) R M Lvl/name                 OctLoc.c.b A Datatyp(siz) R M Lvl/name

     0-0-0/w SBIN              1 PROD_LEN_MAX_EVER

  ****  Section 017 LblCom LAST_ORDER_SPECIFIED

  ****  Scalars and arrays  ****
OctLoc.c.b A Datatyp(siz) R M Lvl/name                 OctLoc.c.b A Datatyp(siz) R M Lvl/name

     0-0-0/w SBIN              1 LAST_ORDER_SPECIFIED

  ****  Section 018 LblCom SEMANTIC_ORDERING

  ****  Scalars and arrays  ****
OctLoc.c.b A Datatyp(siz) R M Lvl/name                 OctLoc.c.b A Datatyp(siz) R M Lvl/name

     0-0-0/b BIT               1 SEMANTIC_ORDERING

  ****  Section 019 LblCom ERR_SEV

  ****  Scalars and arrays  ****
OctLoc.c.b A Datatyp(siz) R M Lvl/name                 OctLoc.c.b A Datatyp(siz) R M Lvl/name

     0-0-0/w SBIN              1 ERR_SEV

  ****  Section 020 LblCom SET_LENGTHB

  ****  Scalars and arrays  ****
OctLoc.c.b A Datatyp(siz) R M Lvl/name                 OctLoc.c.b A Datatyp(siz) R M Lvl/name
PL6.E3A0      #009=OUTPUT_STATE_ITEMS File=LR_ERRPTH.:Z8A6TSI                    SAT 08/09/97 09:31 Page:268

     0-0-0/w SBIN              1 SET_LENGTHB

  ****  Section 021 LblCom SET_LENGTHW

  ****  Scalars and arrays  ****
OctLoc.c.b A Datatyp(siz) R M Lvl/name                 OctLoc.c.b A Datatyp(siz) R M Lvl/name

     0-0-0/w SBIN              1 SET_LENGTHW

  ****  Section 022 LblCom EOF_SYMBOL_PTR

  ****  Scalars and arrays  ****
OctLoc.c.b A Datatyp(siz) R M Lvl/name                 OctLoc.c.b A Datatyp(siz) R M Lvl/name

     0-0-0/w PTR               1 EOF_SYMBOL_PTR

  ****  Section 023 LblCom ERROR_SYMBOL_PTR

  ****  Scalars and arrays  ****
OctLoc.c.b A Datatyp(siz) R M Lvl/name                 OctLoc.c.b A Datatyp(siz) R M Lvl/name

     0-0-0/w PTR               1 ERROR_SYMBOL_PTR

  ****  Section 024 LblCom BOF_SYMBOL_PTR

  ****  Scalars and arrays  ****
OctLoc.c.b A Datatyp(siz) R M Lvl/name                 OctLoc.c.b A Datatyp(siz) R M Lvl/name

     0-0-0/w PTR               1 BOF_SYMBOL_PTR

  ****  Section 025 LblCom OPTIONS

  ****  Scalars and arrays  ****
OctLoc.c.b A Datatyp(siz) R M Lvl/name                 OctLoc.c.b A Datatyp(siz) R M Lvl/name

     0-0-0/b BIT               1 OPTIONS(0:25)
PL6.E3A0      #009=OUTPUT_STATE_ITEMS File=LR_ERRPTH.:Z8A6TSI                    SAT 08/09/97 09:31 Page:269

  ****  Section 026 LblCom OPTIONS_TEXT

  ****  Scalars and arrays  ****
OctLoc.c.b A Datatyp(siz) R M Lvl/name                 OctLoc.c.b A Datatyp(siz) R M Lvl/name

     0-0-0/c CHAR(4)           1 OPTIONS_TEXT(0:25)

  ****  Section 027 LblCom INSTR

  ****  Scalars and arrays  ****
OctLoc.c.b A Datatyp(siz) R M Lvl/name                 OctLoc.c.b A Datatyp(siz) R M Lvl/name

     0-0-0/c CHAR              1 INSTR(0:511)               0-0-0/c CHAR(512)         1 INSTRCHR

  ****  Section 028 LblCom INSTR_LISTED

  ****  Scalars and arrays  ****
OctLoc.c.b A Datatyp(siz) R M Lvl/name                 OctLoc.c.b A Datatyp(siz) R M Lvl/name

     0-0-0/b BIT               1 INSTR_LISTED

  ****  Section 029 LblCom INSTR_LEN

  ****  Scalars and arrays  ****
OctLoc.c.b A Datatyp(siz) R M Lvl/name                 OctLoc.c.b A Datatyp(siz) R M Lvl/name

     0-0-0/w SBIN              1 INSTR_LEN

  ****  Section 030 LblCom INSTR_INDX

  ****  Scalars and arrays  ****
OctLoc.c.b A Datatyp(siz) R M Lvl/name                 OctLoc.c.b A Datatyp(siz) R M Lvl/name

     0-0-0/w SBIN              1 INSTR_INDX

  ****  Section 031 LblCom EOF_FLAG
PL6.E3A0      #009=OUTPUT_STATE_ITEMS File=LR_ERRPTH.:Z8A6TSI                    SAT 08/09/97 09:31 Page:270

  ****  Scalars and arrays  ****
OctLoc.c.b A Datatyp(siz) R M Lvl/name                 OctLoc.c.b A Datatyp(siz) R M Lvl/name

     0-0-0/b BIT               1 EOF_FLAG

  ****  Section 032 LblCom KEY_REC

  ****  Scalars and arrays  ****
OctLoc.c.b A Datatyp(siz) R M Lvl/name                 OctLoc.c.b A Datatyp(siz) R M Lvl/name

     0-0-0/c CHAR(10)          1 KEY_REC

  ****  Section 033 LblCom LINE

  ****  Scalars and arrays  ****
OctLoc.c.b A Datatyp(siz) R M Lvl/name                 OctLoc.c.b A Datatyp(siz) R M Lvl/name

     0-0-0/c CHAR(109)         1 LINE

  ****  Section 034 LblCom LINELEN

  ****  Scalars and arrays  ****
OctLoc.c.b A Datatyp(siz) R M Lvl/name                 OctLoc.c.b A Datatyp(siz) R M Lvl/name

     0-0-0/w SBIN              1 LINELEN

  ****  Section 035 LblCom TSTATS

  ****  Scalars and arrays  ****
OctLoc.c.b A Datatyp(siz) R M Lvl/name                 OctLoc.c.b A Datatyp(siz) R M Lvl/name

     0-0-0/w STRC(7380)  r     1 TSTATS

  ****  Section 036 LblCom C#_TO_$

  ****  Scalars and arrays  ****
PL6.E3A0      #009=OUTPUT_STATE_ITEMS File=LR_ERRPTH.:Z8A6TSI                    SAT 08/09/97 09:31 Page:271
OctLoc.c.b A Datatyp(siz) R M Lvl/name                 OctLoc.c.b A Datatyp(siz) R M Lvl/name

     0-0-0/w PTR               1 C#_TO_$(0:2200)

  ****  Section 037 LblCom NR_CONFIG

  ****  Scalars and arrays  ****
OctLoc.c.b A Datatyp(siz) R M Lvl/name                 OctLoc.c.b A Datatyp(siz) R M Lvl/name

     0-0-0/w SBIN        r     1 NR_CONFIG

  ****  Section 038 LblCom INIT_CONFIG

  ****  Scalars and arrays  ****
OctLoc.c.b A Datatyp(siz) R M Lvl/name                 OctLoc.c.b A Datatyp(siz) R M Lvl/name

     0-0-0/w SBIN              1 INIT_CONFIG

  ****  Section 039 LblCom MAX_BASIS_ITEMS

  ****  Scalars and arrays  ****
OctLoc.c.b A Datatyp(siz) R M Lvl/name                 OctLoc.c.b A Datatyp(siz) R M Lvl/name

     0-0-0/w SBIN              1 MAX_BASIS_ITEMS

  ****  Section 040 LblCom MAX_TOTAL_ITEMS

  ****  Scalars and arrays  ****
OctLoc.c.b A Datatyp(siz) R M Lvl/name                 OctLoc.c.b A Datatyp(siz) R M Lvl/name

     0-0-0/w SBIN              1 MAX_TOTAL_ITEMS

  ****  Section 041 LblCom LAST_BINSRCH_ONLY

  ****  Scalars and arrays  ****
OctLoc.c.b A Datatyp(siz) R M Lvl/name                 OctLoc.c.b A Datatyp(siz) R M Lvl/name

PL6.E3A0      #009=OUTPUT_STATE_ITEMS File=LR_ERRPTH.:Z8A6TSI                    SAT 08/09/97 09:31 Page:272
     0-0-0/w SBIN              1 LAST_BINSRCH_ONLY

  ****  Section 042 LblCom LAST_BOTH_BITBIN

  ****  Scalars and arrays  ****
OctLoc.c.b A Datatyp(siz) R M Lvl/name                 OctLoc.c.b A Datatyp(siz) R M Lvl/name

     0-0-0/w SBIN              1 LAST_BOTH_BITBIN

  ****  Section 043 LblCom GARBAGE

  ****  Scalars and arrays  ****
OctLoc.c.b A Datatyp(siz) R M Lvl/name                 OctLoc.c.b A Datatyp(siz) R M Lvl/name

     0-0-0/w PTR               1 GARBAGE(0:100)

  ****  Section 044 LblCom AMT_GARBAGE

  ****  Scalars and arrays  ****
OctLoc.c.b A Datatyp(siz) R M Lvl/name                 OctLoc.c.b A Datatyp(siz) R M Lvl/name

     0-0-0/w SBIN              1 AMT_GARBAGE

  ****  Section 045 LblCom LEAST_COST_STRING

  ****  Scalars and arrays  ****
OctLoc.c.b A Datatyp(siz) R M Lvl/name                 OctLoc.c.b A Datatyp(siz) R M Lvl/name

     0-0-0/w PTR               1 LEAST_COST_STRING(0:1400)

  ****  Section 046 LblCom LEAST_COST_PREFIX

  ****  Scalars and arrays  ****
OctLoc.c.b A Datatyp(siz) R M Lvl/name                 OctLoc.c.b A Datatyp(siz) R M Lvl/name

     0-0-0/w PTR               1 LEAST_COST_PREFIX(0:1400)

PL6.E3A0      #009=OUTPUT_STATE_ITEMS File=LR_ERRPTH.:Z8A6TSI                    SAT 08/09/97 09:31 Page:273
  ****  Section 047 LblCom CURRE

  ****  Scalars and arrays  ****
OctLoc.c.b A Datatyp(siz) R M Lvl/name                 OctLoc.c.b A Datatyp(siz) R M Lvl/name

     0-0-0/d STRC(126)         1 CURRE(0:1400)

  ****  Section 048 LblCom LCP_INDX

  ****  Scalars and arrays  ****
OctLoc.c.b A Datatyp(siz) R M Lvl/name                 OctLoc.c.b A Datatyp(siz) R M Lvl/name

     0-0-0/h SBIN(18)          1 LCP_INDX(0:1400)

  ****  Section 049 LblCom COM_STRSP_LEN

  ****  Scalars and arrays  ****
OctLoc.c.b A Datatyp(siz) R M Lvl/name                 OctLoc.c.b A Datatyp(siz) R M Lvl/name

     0-0-0/w SBIN        r     1 COM_STRSP_LEN

  ****  Section 050 LblCom COM_SEARCH_STRING

  ****  Scalars and arrays  ****
OctLoc.c.b A Datatyp(siz) R M Lvl/name                 OctLoc.c.b A Datatyp(siz) R M Lvl/name

     0-0-0/w PTR         r     1 COM_SEARCH_STRING

  ****  Section 051 LblCom COM_SEARCH_STRING_LEN

  ****  Scalars and arrays  ****
OctLoc.c.b A Datatyp(siz) R M Lvl/name                 OctLoc.c.b A Datatyp(siz) R M Lvl/name

     0-0-0/w SBIN        r     1 COM_SEARCH_STRING_LEN

  ****  Section 052 LblCom COM_STRING_SPACE_LEN

PL6.E3A0      #009=OUTPUT_STATE_ITEMS File=LR_ERRPTH.:Z8A6TSI                    SAT 08/09/97 09:31 Page:274
  ****  Scalars and arrays  ****
OctLoc.c.b A Datatyp(siz) R M Lvl/name                 OctLoc.c.b A Datatyp(siz) R M Lvl/name

     0-0-0/w SBIN        r     1 COM_STRING_SPACE_LEN

  ****  Section 053 LblCom COM_STRING_SPACE_H

  ****  Scalars and arrays  ****
OctLoc.c.b A Datatyp(siz) R M Lvl/name                 OctLoc.c.b A Datatyp(siz) R M Lvl/name

     0-0-0/h SBIN(18)    r     1 COM_STRING_SPACE_H(0:24999)

  ****  Section 054 LblCom COM_STRING_SPACE$

  ****  Scalars and arrays  ****
OctLoc.c.b A Datatyp(siz) R M Lvl/name                 OctLoc.c.b A Datatyp(siz) R M Lvl/name

     0-0-0/w PTR         r     1 COM_STRING_SPACE$

  ****  Section 055 LblCom COM_STRING_PTR

  ****  Scalars and arrays  ****
OctLoc.c.b A Datatyp(siz) R M Lvl/name                 OctLoc.c.b A Datatyp(siz) R M Lvl/name

     0-0-0/w PTR         r     1 COM_STRING_PTR

  ****  Section 056 LblCom COM_STRING_INDX

  ****  Scalars and arrays  ****
OctLoc.c.b A Datatyp(siz) R M Lvl/name                 OctLoc.c.b A Datatyp(siz) R M Lvl/name

     0-0-0/w SBIN              1 COM_STRING_INDX

  ****  Section 057 LblCom LCP_TABLE_LEN

  ****  Scalars and arrays  ****
OctLoc.c.b A Datatyp(siz) R M Lvl/name                 OctLoc.c.b A Datatyp(siz) R M Lvl/name
PL6.E3A0      #009=OUTPUT_STATE_ITEMS File=LR_ERRPTH.:Z8A6TSI                    SAT 08/09/97 09:31 Page:275

     0-0-0/w SBIN              1 LCP_TABLE_LEN

  ****  Section 058 LblCom STATE_ITEM_INDEX

  ****  Scalars and arrays  ****
OctLoc.c.b A Datatyp(siz) R M Lvl/name                 OctLoc.c.b A Datatyp(siz) R M Lvl/name

     0-0-0/h STRC        r     1 STATE_ITEM_INDEX(0:2200)

  ****  Section 059 LblCom PATH

  ****  Scalars and arrays  ****
OctLoc.c.b A Datatyp(siz) R M Lvl/name                 OctLoc.c.b A Datatyp(siz) R M Lvl/name

     0-0-0/h STRC        r     1 PATH(0:17600)

  ****  Section 060 LblCom PATH_STRINGS_LEN

  ****  Scalars and arrays  ****
OctLoc.c.b A Datatyp(siz) R M Lvl/name                 OctLoc.c.b A Datatyp(siz) R M Lvl/name

     0-0-0/w SBIN        r     1 PATH_STRINGS_LEN

  ****  Section 061 LblCom PATH_ADDR$

  ****  Scalars and arrays  ****
OctLoc.c.b A Datatyp(siz) R M Lvl/name                 OctLoc.c.b A Datatyp(siz) R M Lvl/name

     0-0-0/w PTR         r     1 PATH_ADDR$

  ****  Section 062 LblCom PATH_TABLE_LEN

  ****  Scalars and arrays  ****
OctLoc.c.b A Datatyp(siz) R M Lvl/name                 OctLoc.c.b A Datatyp(siz) R M Lvl/name

     0-0-0/w SBIN              1 PATH_TABLE_LEN
PL6.E3A0      #009=OUTPUT_STATE_ITEMS File=LR_ERRPTH.:Z8A6TSI                    SAT 08/09/97 09:31 Page:276

  ****  Section 063 LblCom EDGECOST

  ****  Scalars and arrays  ****
OctLoc.c.b A Datatyp(siz) R M Lvl/name                 OctLoc.c.b A Datatyp(siz) R M Lvl/name

     0-0-0/w SBIN              1 EDGECOST(0:400)

  ****  Section 064 LblCom ITEM_TABLE_LEN

  ****  Scalars and arrays  ****
OctLoc.c.b A Datatyp(siz) R M Lvl/name                 OctLoc.c.b A Datatyp(siz) R M Lvl/name

     0-0-0/w SBIN              1 ITEM_TABLE_LEN

  ****  Section 065 LblCom ORDERED_ITEM

  ****  Scalars and arrays  ****
OctLoc.c.b A Datatyp(siz) R M Lvl/name                 OctLoc.c.b A Datatyp(siz) R M Lvl/name

     0-0-0/h STRC              1 ORDERED_ITEM(0:400)

  ****  Section 066 LblCom NEIGHBOR

  ****  Scalars and arrays  ****
OctLoc.c.b A Datatyp(siz) R M Lvl/name                 OctLoc.c.b A Datatyp(siz) R M Lvl/name

     0-0-0/w SBIN              1 NEIGHBOR(0:400)

  ****  Section 067 LblCom PATH_INFO

  ****  Scalars and arrays  ****
OctLoc.c.b A Datatyp(siz) R M Lvl/name                 OctLoc.c.b A Datatyp(siz) R M Lvl/name

     0-0-0/w STRC(28872)       1 PATH_INFO

  ****  Section 068 LblCom CHOSEN
PL6.E3A0      #009=OUTPUT_STATE_ITEMS File=LR_ERRPTH.:Z8A6TSI                    SAT 08/09/97 09:31 Page:277

  ****  Scalars and arrays  ****
OctLoc.c.b A Datatyp(siz) R M Lvl/name                 OctLoc.c.b A Datatyp(siz) R M Lvl/name

     0-0-0/w BIT               1 CHOSEN(0:400)

  ****  Section 069 LblCom REACHED

  ****  Scalars and arrays  ****
OctLoc.c.b A Datatyp(siz) R M Lvl/name                 OctLoc.c.b A Datatyp(siz) R M Lvl/name

     0-0-0/b BIT               1 REACHED(0:400)

  ****  Section 070 LblCom EXP_PATH_INDX

  ****  Scalars and arrays  ****
OctLoc.c.b A Datatyp(siz) R M Lvl/name                 OctLoc.c.b A Datatyp(siz) R M Lvl/name

     0-0-0/w SBIN              1 EXP_PATH_INDX

  ****  Auto variables  ****

  ****  Scalars and arrays  ****
OctLoc.c.b A Datatyp(siz) R M Lvl/name                 OctLoc.c.b A Datatyp(siz) R M Lvl/name

     3-0-0/w SBIN        r     1 STATE

  ****  BASED and DCB variables  ****

  ****  Scalars and arrays  ****
OctLoc.c.b A Datatyp(siz) R M Lvl/name                 OctLoc.c.b A Datatyp(siz) R M Lvl/name

     0-0-0/w STRC(72)          1 CELL                       0-0-0/c ACHR              1 COM_STRINGS
     0-0-0/c ACHR              1 COM_STRING_SPACE           0-0-0/c ACHR              1 CSEARCH_STRING
     0-0-0/w STRC(57888)       1 C_SET_B                    0-0-0/w STRC(72)          1 INCLUDES_B
     0-0-0/w STRC(144)         1 INCL_B                     0-0-0/w STRC(5436)        1 ITEM_B
     0-0-0/w STRC(5652)        1 KEY_B                      0-0-0N  NULL        r     1 M$LO
PL6.E3A0      #009=OUTPUT_STATE_ITEMS File=LR_ERRPTH.:Z8A6TSI                    SAT 08/09/97 09:31 Page:278
     0-0-0N  NULL        r     1 M$OU                       0-0-0N  NULL        r     1 M$SI
     0-0-0N  NULL        r     1 M$SO                       0-0-0N  NULL        r     1 M$UI
     0-0-0/c ACHR              1 PATH_STRINGS               0-0-0/w STRC(90)          1 PREFIX
     0-0-0/w ASTR(72)    r     1 PREFIXCHR                  0-0-0/w STRC              1 STRING
     0-0-0/w ASTR(18)    r     1 STRINGCHR                  0-0-0/w STRC(351)         1 SYMBOL


   Procedure OUTPUT_STATE_ITEMS requires 132 words for executable code.
   Procedure OUTPUT_STATE_ITEMS requires 8 words of local(AUTO) storage.

PL6.E3A0      #010=OUTPUT_PATHS File=LR_ERRPTH.:Z8A6TSI                          SAT 08/09/97 09:31 Page:279
      750        1        /*T***********************************************************/
      751        2        /*T*                                                         */
      752        3        /*T* Copyright (c) Bull HN Information Systems Inc., 1997    */
      753        4        /*T*                                                         */
      754        5        /*T***********************************************************/
      755        6        OUTPUT_PATHS : PROC ;
      756        7
      757        8        /*D*
      758        9               NAME: OUTPUT_PATHS
      759       10            PURPOSE: OUTPUT THE PATH TABLE FOR ALL STATES.
      760       11        */
      761       12
      762       13
      763       14        %INCLUDE LR_GRAM_EXT;
      764      553        %INCLUDE LR_CNFG_EXT;
      765      706        %INCLUDE LR_ERR_EXT;
      766      849
      767      850
      768      851    1   DCL I SBIN WORD;
      769      852
      770      853
      771      854
      772      855        %SELECT_SUBS;
      773      858
      774      859        %OUT_STR(S="'%EQU ITEM_LEN = '");
      775      862    1   CALL OUT_DEC(ITEM_TABLE_LEN);
      776      863        %OUT_STR(S="';'");
      777      866    1   CALL FLUSH;
      778      867
      779      868        %STAT_LENGTH(T=IINDX,V="ITEM_TABLE_LEN+ 1");
      780      871        %STAT_LENGTH(T=ILEN,V="ITEM_TABLE_LEN+1");
      781      874        %STAT_LENGTH(T=SSTATE,V="ITEM_TABLE_LEN+1");
      782      877        %STAT_LENGTH(T=SITEM,V="ITEM_TABLE_LEN+1");
      783      880
      784      881        /* OUTPUT PATHS */
      785      882
      786      883        %OUT_STR(S="'%EQU PATH_LEN = '");
PL6.E3A0      #010=OUTPUT_PATHS File=LR_ERRPTH.:Z8A6TSI                          SAT 08/09/97 09:31 Page:280
      787      886    1   CALL OUT_DEC(PATH_TABLE_LEN - 1);
      788      887        %OUT_STR(S="';'");
      789      890    1   CALL FLUSH;
      790      891
      791      892        %STAT_LENGTH(T=P_INDX,V="PATH_TABLE_LEN");
      792      895        %STAT_LENGTH(T=P_LEN,V="PATH_TABLE_LEN");
      793      898
      794      899        %SELECT_OU;
      795      902
      796      903        %OUTLINE(S="'%START_TABLE_PATH;'");
      797      909
      798      910    2   DO I = 1 TO PATH_TABLE_LEN - 1;
      799      911
      800      912          %OUT_STR(S="'  %PATH(I='");
      801      915
      802      916          %BOUNDS(T=P_INDX, V="PATH.INDX(I)");
      803      922
      804      923    2     CALL OUT_DEC(BINBIT(PATH.INDX(I), 36));
      805      924          %OUT_STR(S="',L='");
      806      927    2     CALL OUT_DEC(BINBIT(PATH.LEN(I), 36));
      807      928
      808      929          %BOUNDS(T=P_LEN, V="PATH.LEN(I)");
      809      935
      810      936          %OUT_STR(S="');  /* '");
      811      939    2     CALL OUT_DEC(I);
      812      940          %OUT_STR(S="' */'");
      813      943    2     CALL FLUSH;
      814      944
      815      945    2   END;
      816      946
      817      947        %OUTLINE(S="'%END_TABLE_PATH;'");
      818      953
      819      954    1   END OUTPUT_PATHS;
      820      955        %EOD;

PL6.E3A0      #010=OUTPUT_PATHS File=LR_ERRPTH.:Z8A6TSI                          SAT 08/09/97 09:31 Page:281
--  Include file information  --

   LR_ERR_EXT.:Z8A6TOU  cannot be made into a system file and is referenced.
   LR_CNFG_EXT.:Z8A6TOU  cannot be made into a system file and is referenced.
   LR_IO_EXT.:Z8A6TOU  cannot be made into a system file and is referenced.
   LR_GRAM_EXT.:Z8A6TOU  cannot be made into a system file and is referenced.
      No diagnostics issued in procedure OUTPUT_PATHS.

   Procedure OUTPUT_PATHS requires 145 words for executable code.
   Procedure OUTPUT_PATHS requires 8 words of local(AUTO) storage.

PL6.E3A0      #010=OUTPUT_PATHS File=LR_ERRPTH.:Z8A6TSI                          SAT 08/09/97 09:31 Page:282

 Object Unit name= OUTPUT_PATHS                               File name= LR_ERRPTH.:Z8A6TOU
 UTS= AUG 09 '97 09:31:41.68 SAT                              Compiler= PL-6/E31         Sev=      00
 SharedLib= :SHARED_SYSTEM                                    Alt SharedLib=


    ****  Control sections  ****

 Sect   Type Bound  Init  Size OctSiz  Section name(segment info)
    0  LblCom even  none     1      1  OUT_DCBN
    1   DCB   even  none     0      0  M$OU
    2   DCB   even  none     0      0  M$SO
    3   DCB   even  none     0      0  M$LO
    4   DCB   even  none     0      0  M$SI
    5   DCB   even  none     0      0  M$UI
    6  LblCom even  none  1401   2571  SYM_PTRS
    7  LblCom even  none  4001   7641  RIGHT_PARTS
    8  LblCom even  none  3002   5672  PROD
    9  LblCom even  none     1      1  NR_PROD
   10  LblCom even  none     1      1  NR_SYMS
   11  LblCom even  none     1      1  NR_TERM
   12  LblCom even  none     1      1  LAST_ACT
   13  LblCom even  none     1      1  LAST_NULL
   14  LblCom even  none     1      1  NR_ONRIGHT
   15  LblCom even  none     1      1  NR_NT
   16  LblCom even  none     1      1  PROD_LEN_MAX_EVER
   17  LblCom even  none     1      1  LAST_ORDER_SPECIFIED
   18  LblCom even  none     1      1  SEMANTIC_ORDERING
   19  LblCom even  none     1      1  ERR_SEV
   20  LblCom even  none     1      1  SET_LENGTHB
   21  LblCom even  none     1      1  SET_LENGTHW
   22  LblCom even  none     1      1  EOF_SYMBOL_PTR
   23  LblCom even  none     1      1  ERROR_SYMBOL_PTR
   24  LblCom even  none     1      1  BOF_SYMBOL_PTR
   25  LblCom even  none     1      1  OPTIONS
   26  LblCom even  none    26     32  OPTIONS_TEXT
   27  LblCom even  none   128    200  INSTR
   28  LblCom even  none     1      1  INSTR_LISTED
PL6.E3A0      #010=OUTPUT_PATHS File=LR_ERRPTH.:Z8A6TSI                          SAT 08/09/97 09:31 Page:283
   29  LblCom even  none     1      1  INSTR_LEN
   30  LblCom even  none     1      1  INSTR_INDX
   31  LblCom even  none     1      1  EOF_FLAG
   32  LblCom even  none     3      3  KEY_REC
   33  LblCom even  none    28     34  LINE
   34  LblCom even  none     1      1  LINELEN
   35  LblCom even  none   205    315  TSTATS
   36  LblCom even  none  2201   4231  C#_TO_$
   37  LblCom even  none     1      1  NR_CONFIG
   38  LblCom even  none     1      1  INIT_CONFIG
   39  LblCom even  none     1      1  MAX_BASIS_ITEMS
   40  LblCom even  none     1      1  MAX_TOTAL_ITEMS
   41  LblCom even  none     1      1  LAST_BINSRCH_ONLY
   42  LblCom even  none     1      1  LAST_BOTH_BITBIN
   43  LblCom even  none   101    145  GARBAGE
   44  LblCom even  none     1      1  AMT_GARBAGE
   45  LblCom even  none  1401   2571  LEAST_COST_STRING
   46  LblCom even  none  1401   2571  LEAST_COST_PREFIX
   47  LblCom even  none  5604  12744  CURRE
   48  LblCom even  none   701   1275  LCP_INDX
   49  LblCom even  none     1      1  COM_STRSP_LEN
   50  LblCom even  none     1      1  COM_SEARCH_STRING
   51  LblCom even  none     1      1  COM_SEARCH_STRING_LEN
   52  LblCom even  none     1      1  COM_STRING_SPACE_LEN
   53  LblCom even  none 12500  30324  COM_STRING_SPACE_H
   54  LblCom even  none     1      1  COM_STRING_SPACE$
   55  LblCom even  none     1      1  COM_STRING_PTR
   56  LblCom even  none     1      1  COM_STRING_INDX
   57  LblCom even  none     1      1  LCP_TABLE_LEN
   58  LblCom even  none  2201   4231  STATE_ITEM_INDEX
   59  LblCom even  none 17601  42301  PATH
   60  LblCom even  none     1      1  PATH_STRINGS_LEN
   61  LblCom even  none     1      1  PATH_ADDR$
   62  LblCom even  none     1      1  PATH_TABLE_LEN
   63  LblCom even  none   401    621  EDGECOST
   64  LblCom even  none     1      1  ITEM_TABLE_LEN
   65  LblCom even  none   401    621  ORDERED_ITEM
PL6.E3A0      #010=OUTPUT_PATHS File=LR_ERRPTH.:Z8A6TSI                          SAT 08/09/97 09:31 Page:284
   66  LblCom even  none   401    621  NEIGHBOR
   67  LblCom even  none   802   1442  PATH_INFO
   68  LblCom even  none   401    621  CHOSEN
   69  LblCom even  none    12     14  REACHED
   70  LblCom even  none     1      1  EXP_PATH_INDX
   71  RoData even  UTS     24     30  OUTPUT_PATHS
   72   Proc  even  none   145    221  OUTPUT_PATHS
   73  RoData even  none    29     35  OUTPUT_PATHS

    ****  Entry defs  ****

                              Check   Calling
                             calling  sequence
  Sect OctLoc Primary Altret sequence   type   Parms  Name
    72      0   yes            yes      Std        0  OUTPUT_PATHS

  ****  Entry refs  ****

         Check        Calling
        calling       sequence
Altret sequence SRef   type   Args  Name
         yes           Std       2 OUT_STR
         yes           Std       0 FLUSH
         yes           Std       1 OUT_DEC
                       nStd      0 X66_AUTO_0
                       nStd      0 X66_ARET

  ****  Data refs  ****

  Flags:  r = read only, s = secondary
Flgs Name                             Flgs Name                             Flgs Name
     M$OU                                  M$SO                                  M$LO
     M$SI                                  M$UI
PL6.E3A0      #010=OUTPUT_PATHS File=LR_ERRPTH.:Z8A6TSI                          SAT 08/09/97 09:31 Page:285

  ****  Segment refs  ****

  Flags:  r = read only, s = secondary
Flgs Name                             Flgs Name                             Flgs Name
     NULLSID                               ISSID
PL6.E3A0      #010=OUTPUT_PATHS File=LR_ERRPTH.:Z8A6TSI                          SAT 08/09/97 09:31 Page:286


      750        1        /*T***********************************************************/
      751        2        /*T*                                                         */
      752        3        /*T* Copyright (c) Bull HN Information Systems Inc., 1997    */
      753        4        /*T*                                                         */
      754        5        /*T***********************************************************/
      755        6        OUTPUT_PATHS : PROC ;

      6 72 000000   000000 700200 xent  OUTPUT_PATHS TSX0  ! X66_AUTO_0
        72 000001   000010 000000                    ZERO    8,0

      756        7
      757        8        /*D*
      758        9               NAME: OUTPUT_PATHS
      759       10            PURPOSE: OUTPUT THE PATH TABLE FOR ALL STATES.
      760       11        */
      761       12
      762       13
      763       14        %INCLUDE LR_GRAM_EXT;
      764      553        %INCLUDE LR_CNFG_EXT;
      765      706        %INCLUDE LR_ERR_EXT;
      766      849
      767      850
      768      851    1   DCL I SBIN WORD;
      769      852
      770      853
      771      854
      772      855        %SELECT_SUBS;

    856 72 000002   000000 236007 xsym               LDQ     M$SO,DL
        72 000003   000000 756000 0                  STQ     OUT_DCBN

      773      858
      774      859        %OUT_STR(S="'%EQU ITEM_LEN = '");

    860 72 000004   000002 630400 73                 EPPR0   2
        72 000005   000000 631400 73                 EPPR1   0
PL6.E3A0      #010=OUTPUT_PATHS File=LR_ERRPTH.:Z8A6TSI                          SAT 08/09/97 09:31 Page:287
        72 000006   000000 701000 xent               TSX1    OUT_STR
        72 000007   000000 011000                    NOP     0

      775      862    1   CALL OUT_DEC(ITEM_TABLE_LEN);

    862 72 000010   000005 630400 73                 EPPR0   5
        72 000011   000004 631400 73                 EPPR1   4
        72 000012   000000 701000 xent               TSX1    OUT_DEC
        72 000013   000000 011000                    NOP     0

      776      863        %OUT_STR(S="';'");

    864 72 000014   000010 630400 73                 EPPR0   8
        72 000015   000000 631400 73                 EPPR1   0
        72 000016   000000 701000 xent               TSX1    OUT_STR
        72 000017   000000 011000                    NOP     0

      777      866    1   CALL FLUSH;

    866 72 000020   000012 631400 73                 EPPR1   10
        72 000021   000000 701000 xent               TSX1    FLUSH
        72 000022   000000 011000                    NOP     0

      778      867
      779      868        %STAT_LENGTH(T=IINDX,V="ITEM_TABLE_LEN+ 1");

    869 72 000023   000000 235000 64                 LDA     ITEM_TABLE_LEN
        72 000024   000001 035007                    ADLA    1,DL
        72 000025   000121 755000 35                 STA     TSTATS+81

      780      871        %STAT_LENGTH(T=ILEN,V="ITEM_TABLE_LEN+1");

    872 72 000026   000127 755000 35                 STA     TSTATS+87

      781      874        %STAT_LENGTH(T=SSTATE,V="ITEM_TABLE_LEN+1");

    875 72 000027   000105 755000 35                 STA     TSTATS+69
PL6.E3A0      #010=OUTPUT_PATHS File=LR_ERRPTH.:Z8A6TSI                          SAT 08/09/97 09:31 Page:288

      782      877        %STAT_LENGTH(T=SITEM,V="ITEM_TABLE_LEN+1");

    878 72 000030   000113 755000 35                 STA     TSTATS+75

      783      880
      784      881        /* OUTPUT PATHS */
      785      882
      786      883        %OUT_STR(S="'%EQU PATH_LEN = '");

    884 72 000031   000013 630400 73                 EPPR0   11
        72 000032   000000 631400 73                 EPPR1   0
        72 000033   000000 701000 xent               TSX1    OUT_STR
        72 000034   000000 011000                    NOP     0

      787      886    1   CALL OUT_DEC(PATH_TABLE_LEN - 1);

    886 72 000035   000000 235000 62                 LDA     PATH_TABLE_LEN
        72 000036   000001 135007                    SBLA    1,DL
        72 000037   200004 755100                    STA     I+1,,AUTO
        72 000040   200004 630500                    EPPR0   I+1,,AUTO
        72 000041   200005 450500                    STP0    I+2,,AUTO
        72 000042   200005 630500                    EPPR0   I+2,,AUTO
        72 000043   000004 631400 73                 EPPR1   4
        72 000044   000000 701000 xent               TSX1    OUT_DEC
        72 000045   000000 011000                    NOP     0

      788      887        %OUT_STR(S="';'");

    888 72 000046   000010 630400 73                 EPPR0   8
        72 000047   000000 631400 73                 EPPR1   0
        72 000050   000000 701000 xent               TSX1    OUT_STR
        72 000051   000000 011000                    NOP     0

      789      890    1   CALL FLUSH;

    890 72 000052   000012 631400 73                 EPPR1   10
PL6.E3A0      #010=OUTPUT_PATHS File=LR_ERRPTH.:Z8A6TSI                          SAT 08/09/97 09:31 Page:289
        72 000053   000000 701000 xent               TSX1    FLUSH
        72 000054   000000 011000                    NOP     0

      790      891
      791      892        %STAT_LENGTH(T=P_INDX,V="PATH_TABLE_LEN");

    893 72 000055   000000 235000 62                 LDA     PATH_TABLE_LEN
        72 000056   000151 755000 35                 STA     TSTATS+105

      792      895        %STAT_LENGTH(T=P_LEN,V="PATH_TABLE_LEN");

    896 72 000057   000157 755000 35                 STA     TSTATS+111

      793      898
      794      899        %SELECT_OU;

    900 72 000060   000000 236007 xsym               LDQ     M$OU,DL
        72 000061   000000 756000 0                  STQ     OUT_DCBN

      795      902
      796      903        %OUTLINE(S="'%START_TABLE_PATH;'");

    905 72 000062   000016 630400 73                 EPPR0   14
        72 000063   000000 631400 73                 EPPR1   0
        72 000064   000000 701000 xent               TSX1    OUT_STR
        72 000065   000000 011000                    NOP     0

    906 72 000066   000012 631400 73                 EPPR1   10
        72 000067   000000 701000 xent               TSX1    FLUSH
        72 000070   000000 011000                    NOP     0

      797      909
      798      910    2   DO I = 1 TO PATH_TABLE_LEN - 1;

    910 72 000071   000001 235007                    LDA     1,DL
        72 000072   200003 755100                    STA     I,,AUTO
        72 000073   000206 710000 72                 TRA     s:945+1
PL6.E3A0      #010=OUTPUT_PATHS File=LR_ERRPTH.:Z8A6TSI                          SAT 08/09/97 09:31 Page:290

      799      911
      800      912          %OUT_STR(S="'  %PATH(I='");

    913 72 000074   000021 630400 73                 EPPR0   17
        72 000075   000000 631400 73                 EPPR1   0
        72 000076   000000 701000 xent               TSX1    OUT_STR
        72 000077   000000 011000                    NOP     0

      801      915
      802      916          %BOUNDS(T=P_INDX, V="PATH.INDX(I)");

    918 72 000100   200003 720100                    LXL0    I,,AUTO
        72 000101   000000 236010 59                 LDQ     PATH,X0
        72 000102   000022 732000                    QRS     18
        72 000103   000150 116000 35                 CMPQ    TSTATS+104
        72 000104   000106 604400 72                 TMOZ    s:918+6
        72 000105   000150 236000 35                 LDQ     TSTATS+104
        72 000106   000150 756000 35                 STQ     TSTATS+104

    919 72 000107   000000 236010 59                 LDQ     PATH,X0
        72 000110   000022 732000                    QRS     18
        72 000111   000147 116000 35                 CMPQ    TSTATS+103
        72 000112   000114 605000 72                 TPL     s:919+5
        72 000113   000147 236000 35                 LDQ     TSTATS+103
        72 000114   000147 756000 35                 STQ     TSTATS+103

      803      922
      804      923    2     CALL OUT_DEC(BINBIT(PATH.INDX(I), 36));

    923 72 000115   000000 236010 59                 LDQ     PATH,X0
        72 000116   000022 732000                    QRS     18
        72 000117   200004 756100                    STQ     I+1,,AUTO
        72 000120   200004 630500                    EPPR0   I+1,,AUTO
        72 000121   200006 450500                    STP0    I+3,,AUTO
        72 000122   200006 630500                    EPPR0   I+3,,AUTO
        72 000123   000004 631400 73                 EPPR1   4
PL6.E3A0      #010=OUTPUT_PATHS File=LR_ERRPTH.:Z8A6TSI                          SAT 08/09/97 09:31 Page:291
        72 000124   000000 701000 xent               TSX1    OUT_DEC
        72 000125   000000 011000                    NOP     0

      805      924          %OUT_STR(S="',L='");

    925 72 000126   000024 630400 73                 EPPR0   20
        72 000127   000000 631400 73                 EPPR1   0
        72 000130   000000 701000 xent               TSX1    OUT_STR
        72 000131   000000 011000                    NOP     0

      806      927    2     CALL OUT_DEC(BINBIT(PATH.LEN(I), 36));

    927 72 000132   200003 720100                    LXL0    I,,AUTO
        72 000133   000000 236010 59                 LDQ     PATH,X0
        72 000134   000022 736000                    QLS     18
        72 000135   000022 732000                    QRS     18
        72 000136   200004 756100                    STQ     I+1,,AUTO
        72 000137   200004 630500                    EPPR0   I+1,,AUTO
        72 000140   200006 450500                    STP0    I+3,,AUTO
        72 000141   200006 630500                    EPPR0   I+3,,AUTO
        72 000142   000004 631400 73                 EPPR1   4
        72 000143   000000 701000 xent               TSX1    OUT_DEC
        72 000144   000000 011000                    NOP     0

      807      928
      808      929          %BOUNDS(T=P_LEN, V="PATH.LEN(I)");

    931 72 000145   200003 720100                    LXL0    I,,AUTO
        72 000146   000000 236010 59                 LDQ     PATH,X0
        72 000147   000022 736000                    QLS     18
        72 000150   000022 732000                    QRS     18
        72 000151   000156 116000 35                 CMPQ    TSTATS+110
        72 000152   000154 604400 72                 TMOZ    s:931+7
        72 000153   000156 236000 35                 LDQ     TSTATS+110
        72 000154   000156 756000 35                 STQ     TSTATS+110

    932 72 000155   000000 236010 59                 LDQ     PATH,X0
PL6.E3A0      #010=OUTPUT_PATHS File=LR_ERRPTH.:Z8A6TSI                          SAT 08/09/97 09:31 Page:292
        72 000156   000022 736000                    QLS     18
        72 000157   000022 732000                    QRS     18
        72 000160   000155 116000 35                 CMPQ    TSTATS+109
        72 000161   000163 605000 72                 TPL     s:932+6
        72 000162   000155 236000 35                 LDQ     TSTATS+109
        72 000163   000155 756000 35                 STQ     TSTATS+109

      809      935
      810      936          %OUT_STR(S="');  /* '");

    937 72 000164   000027 630400 73                 EPPR0   23
        72 000165   000000 631400 73                 EPPR1   0
        72 000166   000000 701000 xent               TSX1    OUT_STR
        72 000167   000000 011000                    NOP     0

      811      939    2     CALL OUT_DEC(I);

    939 72 000170   200003 630500                    EPPR0   I,,AUTO
        72 000171   200004 450500                    STP0    I+1,,AUTO
        72 000172   200004 630500                    EPPR0   I+1,,AUTO
        72 000173   000004 631400 73                 EPPR1   4
        72 000174   000000 701000 xent               TSX1    OUT_DEC
        72 000175   000000 011000                    NOP     0

      812      940          %OUT_STR(S="' */'");

    941 72 000176   000031 630400 73                 EPPR0   25
        72 000177   000000 631400 73                 EPPR1   0
        72 000200   000000 701000 xent               TSX1    OUT_STR
        72 000201   000000 011000                    NOP     0

      813      943    2     CALL FLUSH;

    943 72 000202   000012 631400 73                 EPPR1   10
        72 000203   000000 701000 xent               TSX1    FLUSH
        72 000204   000000 011000                    NOP     0

PL6.E3A0      #010=OUTPUT_PATHS File=LR_ERRPTH.:Z8A6TSI                          SAT 08/09/97 09:31 Page:293
      814      944
      815      945    2   END;

    945 72 000205   200003 054100                    AOS     I,,AUTO
        72 000206   200003 236100                    LDQ     I,,AUTO
        72 000207   000000 116000 62                 CMPQ    PATH_TABLE_LEN
        72 000210   000074 604000 72                 TMI     s:913

      816      946
      817      947        %OUTLINE(S="'%END_TABLE_PATH;'");

    949 72 000211   000033 630400 73                 EPPR0   27
        72 000212   000000 631400 73                 EPPR1   0
        72 000213   000000 701000 xent               TSX1    OUT_STR
        72 000214   000000 011000                    NOP     0

    950 72 000215   000012 631400 73                 EPPR1   10
        72 000216   000000 701000 xent               TSX1    FLUSH
        72 000217   000000 011000                    NOP     0

      818      953
      819      954    1   END OUTPUT_PATHS;

    954 72 000220   000000 702200 xent               TSX2  ! X66_ARET
      820      955        %EOD;

PL6.E3A0      #010=OUTPUT_PATHS File=LR_ERRPTH.:Z8A6TSI                          SAT 08/09/97 09:31 Page:294
--  Include file information  --

   LR_ERR_EXT.:Z8A6TOU  cannot be made into a system file and is referenced.
   LR_CNFG_EXT.:Z8A6TOU  cannot be made into a system file and is referenced.
   LR_IO_EXT.:Z8A6TOU  cannot be made into a system file and is referenced.
   LR_GRAM_EXT.:Z8A6TOU  cannot be made into a system file and is referenced.
      No diagnostics issued in procedure OUTPUT_PATHS.
PL6.E3A0      #010=OUTPUT_PATHS File=LR_ERRPTH.:Z8A6TSI                          SAT 08/09/97 09:31 Page:295

 **** Variables and constants ****

  ****  Section 000 LblCom OUT_DCBN

  ****  Scalars and arrays  ****
OctLoc.c.b A Datatyp(siz) R M Lvl/name                 OctLoc.c.b A Datatyp(siz) R M Lvl/name

     0-0-0/w SBIN        r     1 OUT_DCBN

  ****  Section 006 LblCom SYM_PTRS

  ****  Scalars and arrays  ****
OctLoc.c.b A Datatyp(siz) R M Lvl/name                 OctLoc.c.b A Datatyp(siz) R M Lvl/name

     0-0-0/w PTR               1 SYM_PTRS(0:1400)

  ****  Section 007 LblCom RIGHT_PARTS

  ****  Scalars and arrays  ****
OctLoc.c.b A Datatyp(siz) R M Lvl/name                 OctLoc.c.b A Datatyp(siz) R M Lvl/name

     0-0-0/h SBIN(18)          1 RIGHT_PARTS(0:8000)

  ****  Section 008 LblCom PROD

  ****  Scalars and arrays  ****
OctLoc.c.b A Datatyp(siz) R M Lvl/name                 OctLoc.c.b A Datatyp(siz) R M Lvl/name

     0-0-0/h STRC(72)          1 PROD(0:1500)

  ****  Section 009 LblCom NR_PROD

  ****  Scalars and arrays  ****
OctLoc.c.b A Datatyp(siz) R M Lvl/name                 OctLoc.c.b A Datatyp(siz) R M Lvl/name

     0-0-0/w SBIN              1 NR_PROD

PL6.E3A0      #010=OUTPUT_PATHS File=LR_ERRPTH.:Z8A6TSI                          SAT 08/09/97 09:31 Page:296
  ****  Section 010 LblCom NR_SYMS

  ****  Scalars and arrays  ****
OctLoc.c.b A Datatyp(siz) R M Lvl/name                 OctLoc.c.b A Datatyp(siz) R M Lvl/name

     0-0-0/w SBIN              1 NR_SYMS

  ****  Section 011 LblCom NR_TERM

  ****  Scalars and arrays  ****
OctLoc.c.b A Datatyp(siz) R M Lvl/name                 OctLoc.c.b A Datatyp(siz) R M Lvl/name

     0-0-0/w SBIN              1 NR_TERM

  ****  Section 012 LblCom LAST_ACT

  ****  Scalars and arrays  ****
OctLoc.c.b A Datatyp(siz) R M Lvl/name                 OctLoc.c.b A Datatyp(siz) R M Lvl/name

     0-0-0/w SBIN              1 LAST_ACT

  ****  Section 013 LblCom LAST_NULL

  ****  Scalars and arrays  ****
OctLoc.c.b A Datatyp(siz) R M Lvl/name                 OctLoc.c.b A Datatyp(siz) R M Lvl/name

     0-0-0/w SBIN              1 LAST_NULL

  ****  Section 014 LblCom NR_ONRIGHT

  ****  Scalars and arrays  ****
OctLoc.c.b A Datatyp(siz) R M Lvl/name                 OctLoc.c.b A Datatyp(siz) R M Lvl/name

     0-0-0/w SBIN              1 NR_ONRIGHT

  ****  Section 015 LblCom NR_NT

PL6.E3A0      #010=OUTPUT_PATHS File=LR_ERRPTH.:Z8A6TSI                          SAT 08/09/97 09:31 Page:297
  ****  Scalars and arrays  ****
OctLoc.c.b A Datatyp(siz) R M Lvl/name                 OctLoc.c.b A Datatyp(siz) R M Lvl/name

     0-0-0/w SBIN              1 NR_NT

  ****  Section 016 LblCom PROD_LEN_MAX_EVER

  ****  Scalars and arrays  ****
OctLoc.c.b A Datatyp(siz) R M Lvl/name                 OctLoc.c.b A Datatyp(siz) R M Lvl/name

     0-0-0/w SBIN              1 PROD_LEN_MAX_EVER

  ****  Section 017 LblCom LAST_ORDER_SPECIFIED

  ****  Scalars and arrays  ****
OctLoc.c.b A Datatyp(siz) R M Lvl/name                 OctLoc.c.b A Datatyp(siz) R M Lvl/name

     0-0-0/w SBIN              1 LAST_ORDER_SPECIFIED

  ****  Section 018 LblCom SEMANTIC_ORDERING

  ****  Scalars and arrays  ****
OctLoc.c.b A Datatyp(siz) R M Lvl/name                 OctLoc.c.b A Datatyp(siz) R M Lvl/name

     0-0-0/b BIT               1 SEMANTIC_ORDERING

  ****  Section 019 LblCom ERR_SEV

  ****  Scalars and arrays  ****
OctLoc.c.b A Datatyp(siz) R M Lvl/name                 OctLoc.c.b A Datatyp(siz) R M Lvl/name

     0-0-0/w SBIN              1 ERR_SEV

  ****  Section 020 LblCom SET_LENGTHB

  ****  Scalars and arrays  ****
OctLoc.c.b A Datatyp(siz) R M Lvl/name                 OctLoc.c.b A Datatyp(siz) R M Lvl/name
PL6.E3A0      #010=OUTPUT_PATHS File=LR_ERRPTH.:Z8A6TSI                          SAT 08/09/97 09:31 Page:298

     0-0-0/w SBIN              1 SET_LENGTHB

  ****  Section 021 LblCom SET_LENGTHW

  ****  Scalars and arrays  ****
OctLoc.c.b A Datatyp(siz) R M Lvl/name                 OctLoc.c.b A Datatyp(siz) R M Lvl/name

     0-0-0/w SBIN              1 SET_LENGTHW

  ****  Section 022 LblCom EOF_SYMBOL_PTR

  ****  Scalars and arrays  ****
OctLoc.c.b A Datatyp(siz) R M Lvl/name                 OctLoc.c.b A Datatyp(siz) R M Lvl/name

     0-0-0/w PTR               1 EOF_SYMBOL_PTR

  ****  Section 023 LblCom ERROR_SYMBOL_PTR

  ****  Scalars and arrays  ****
OctLoc.c.b A Datatyp(siz) R M Lvl/name                 OctLoc.c.b A Datatyp(siz) R M Lvl/name

     0-0-0/w PTR               1 ERROR_SYMBOL_PTR

  ****  Section 024 LblCom BOF_SYMBOL_PTR

  ****  Scalars and arrays  ****
OctLoc.c.b A Datatyp(siz) R M Lvl/name                 OctLoc.c.b A Datatyp(siz) R M Lvl/name

     0-0-0/w PTR               1 BOF_SYMBOL_PTR

  ****  Section 025 LblCom OPTIONS

  ****  Scalars and arrays  ****
OctLoc.c.b A Datatyp(siz) R M Lvl/name                 OctLoc.c.b A Datatyp(siz) R M Lvl/name

     0-0-0/b BIT               1 OPTIONS(0:25)
PL6.E3A0      #010=OUTPUT_PATHS File=LR_ERRPTH.:Z8A6TSI                          SAT 08/09/97 09:31 Page:299

  ****  Section 026 LblCom OPTIONS_TEXT

  ****  Scalars and arrays  ****
OctLoc.c.b A Datatyp(siz) R M Lvl/name                 OctLoc.c.b A Datatyp(siz) R M Lvl/name

     0-0-0/c CHAR(4)           1 OPTIONS_TEXT(0:25)

  ****  Section 027 LblCom INSTR

  ****  Scalars and arrays  ****
OctLoc.c.b A Datatyp(siz) R M Lvl/name                 OctLoc.c.b A Datatyp(siz) R M Lvl/name

     0-0-0/c CHAR              1 INSTR(0:511)               0-0-0/c CHAR(512)         1 INSTRCHR

  ****  Section 028 LblCom INSTR_LISTED

  ****  Scalars and arrays  ****
OctLoc.c.b A Datatyp(siz) R M Lvl/name                 OctLoc.c.b A Datatyp(siz) R M Lvl/name

     0-0-0/b BIT               1 INSTR_LISTED

  ****  Section 029 LblCom INSTR_LEN

  ****  Scalars and arrays  ****
OctLoc.c.b A Datatyp(siz) R M Lvl/name                 OctLoc.c.b A Datatyp(siz) R M Lvl/name

     0-0-0/w SBIN              1 INSTR_LEN

  ****  Section 030 LblCom INSTR_INDX

  ****  Scalars and arrays  ****
OctLoc.c.b A Datatyp(siz) R M Lvl/name                 OctLoc.c.b A Datatyp(siz) R M Lvl/name

     0-0-0/w SBIN              1 INSTR_INDX

  ****  Section 031 LblCom EOF_FLAG
PL6.E3A0      #010=OUTPUT_PATHS File=LR_ERRPTH.:Z8A6TSI                          SAT 08/09/97 09:31 Page:300

  ****  Scalars and arrays  ****
OctLoc.c.b A Datatyp(siz) R M Lvl/name                 OctLoc.c.b A Datatyp(siz) R M Lvl/name

     0-0-0/b BIT               1 EOF_FLAG

  ****  Section 032 LblCom KEY_REC

  ****  Scalars and arrays  ****
OctLoc.c.b A Datatyp(siz) R M Lvl/name                 OctLoc.c.b A Datatyp(siz) R M Lvl/name

     0-0-0/c CHAR(10)          1 KEY_REC

  ****  Section 033 LblCom LINE

  ****  Scalars and arrays  ****
OctLoc.c.b A Datatyp(siz) R M Lvl/name                 OctLoc.c.b A Datatyp(siz) R M Lvl/name

     0-0-0/c CHAR(109)         1 LINE

  ****  Section 034 LblCom LINELEN

  ****  Scalars and arrays  ****
OctLoc.c.b A Datatyp(siz) R M Lvl/name                 OctLoc.c.b A Datatyp(siz) R M Lvl/name

     0-0-0/w SBIN              1 LINELEN

  ****  Section 035 LblCom TSTATS

  ****  Scalars and arrays  ****
OctLoc.c.b A Datatyp(siz) R M Lvl/name                 OctLoc.c.b A Datatyp(siz) R M Lvl/name

     0-0-0/w STRC(7380)  r     1 TSTATS

  ****  Section 036 LblCom C#_TO_$

  ****  Scalars and arrays  ****
PL6.E3A0      #010=OUTPUT_PATHS File=LR_ERRPTH.:Z8A6TSI                          SAT 08/09/97 09:31 Page:301
OctLoc.c.b A Datatyp(siz) R M Lvl/name                 OctLoc.c.b A Datatyp(siz) R M Lvl/name

     0-0-0/w PTR               1 C#_TO_$(0:2200)

  ****  Section 037 LblCom NR_CONFIG

  ****  Scalars and arrays  ****
OctLoc.c.b A Datatyp(siz) R M Lvl/name                 OctLoc.c.b A Datatyp(siz) R M Lvl/name

     0-0-0/w SBIN              1 NR_CONFIG

  ****  Section 038 LblCom INIT_CONFIG

  ****  Scalars and arrays  ****
OctLoc.c.b A Datatyp(siz) R M Lvl/name                 OctLoc.c.b A Datatyp(siz) R M Lvl/name

     0-0-0/w SBIN              1 INIT_CONFIG

  ****  Section 039 LblCom MAX_BASIS_ITEMS

  ****  Scalars and arrays  ****
OctLoc.c.b A Datatyp(siz) R M Lvl/name                 OctLoc.c.b A Datatyp(siz) R M Lvl/name

     0-0-0/w SBIN              1 MAX_BASIS_ITEMS

  ****  Section 040 LblCom MAX_TOTAL_ITEMS

  ****  Scalars and arrays  ****
OctLoc.c.b A Datatyp(siz) R M Lvl/name                 OctLoc.c.b A Datatyp(siz) R M Lvl/name

     0-0-0/w SBIN              1 MAX_TOTAL_ITEMS

  ****  Section 041 LblCom LAST_BINSRCH_ONLY

  ****  Scalars and arrays  ****
OctLoc.c.b A Datatyp(siz) R M Lvl/name                 OctLoc.c.b A Datatyp(siz) R M Lvl/name

PL6.E3A0      #010=OUTPUT_PATHS File=LR_ERRPTH.:Z8A6TSI                          SAT 08/09/97 09:31 Page:302
     0-0-0/w SBIN              1 LAST_BINSRCH_ONLY

  ****  Section 042 LblCom LAST_BOTH_BITBIN

  ****  Scalars and arrays  ****
OctLoc.c.b A Datatyp(siz) R M Lvl/name                 OctLoc.c.b A Datatyp(siz) R M Lvl/name

     0-0-0/w SBIN              1 LAST_BOTH_BITBIN

  ****  Section 043 LblCom GARBAGE

  ****  Scalars and arrays  ****
OctLoc.c.b A Datatyp(siz) R M Lvl/name                 OctLoc.c.b A Datatyp(siz) R M Lvl/name

     0-0-0/w PTR               1 GARBAGE(0:100)

  ****  Section 044 LblCom AMT_GARBAGE

  ****  Scalars and arrays  ****
OctLoc.c.b A Datatyp(siz) R M Lvl/name                 OctLoc.c.b A Datatyp(siz) R M Lvl/name

     0-0-0/w SBIN              1 AMT_GARBAGE

  ****  Section 045 LblCom LEAST_COST_STRING

  ****  Scalars and arrays  ****
OctLoc.c.b A Datatyp(siz) R M Lvl/name                 OctLoc.c.b A Datatyp(siz) R M Lvl/name

     0-0-0/w PTR               1 LEAST_COST_STRING(0:1400)

  ****  Section 046 LblCom LEAST_COST_PREFIX

  ****  Scalars and arrays  ****
OctLoc.c.b A Datatyp(siz) R M Lvl/name                 OctLoc.c.b A Datatyp(siz) R M Lvl/name

     0-0-0/w PTR               1 LEAST_COST_PREFIX(0:1400)

PL6.E3A0      #010=OUTPUT_PATHS File=LR_ERRPTH.:Z8A6TSI                          SAT 08/09/97 09:31 Page:303
  ****  Section 047 LblCom CURRE

  ****  Scalars and arrays  ****
OctLoc.c.b A Datatyp(siz) R M Lvl/name                 OctLoc.c.b A Datatyp(siz) R M Lvl/name

     0-0-0/d STRC(126)         1 CURRE(0:1400)

  ****  Section 048 LblCom LCP_INDX

  ****  Scalars and arrays  ****
OctLoc.c.b A Datatyp(siz) R M Lvl/name                 OctLoc.c.b A Datatyp(siz) R M Lvl/name

     0-0-0/h SBIN(18)          1 LCP_INDX(0:1400)

  ****  Section 049 LblCom COM_STRSP_LEN

  ****  Scalars and arrays  ****
OctLoc.c.b A Datatyp(siz) R M Lvl/name                 OctLoc.c.b A Datatyp(siz) R M Lvl/name

     0-0-0/w SBIN        r     1 COM_STRSP_LEN

  ****  Section 050 LblCom COM_SEARCH_STRING

  ****  Scalars and arrays  ****
OctLoc.c.b A Datatyp(siz) R M Lvl/name                 OctLoc.c.b A Datatyp(siz) R M Lvl/name

     0-0-0/w PTR         r     1 COM_SEARCH_STRING

  ****  Section 051 LblCom COM_SEARCH_STRING_LEN

  ****  Scalars and arrays  ****
OctLoc.c.b A Datatyp(siz) R M Lvl/name                 OctLoc.c.b A Datatyp(siz) R M Lvl/name

     0-0-0/w SBIN        r     1 COM_SEARCH_STRING_LEN

  ****  Section 052 LblCom COM_STRING_SPACE_LEN

PL6.E3A0      #010=OUTPUT_PATHS File=LR_ERRPTH.:Z8A6TSI                          SAT 08/09/97 09:31 Page:304
  ****  Scalars and arrays  ****
OctLoc.c.b A Datatyp(siz) R M Lvl/name                 OctLoc.c.b A Datatyp(siz) R M Lvl/name

     0-0-0/w SBIN        r     1 COM_STRING_SPACE_LEN

  ****  Section 053 LblCom COM_STRING_SPACE_H

  ****  Scalars and arrays  ****
OctLoc.c.b A Datatyp(siz) R M Lvl/name                 OctLoc.c.b A Datatyp(siz) R M Lvl/name

     0-0-0/h SBIN(18)    r     1 COM_STRING_SPACE_H(0:24999)

  ****  Section 054 LblCom COM_STRING_SPACE$

  ****  Scalars and arrays  ****
OctLoc.c.b A Datatyp(siz) R M Lvl/name                 OctLoc.c.b A Datatyp(siz) R M Lvl/name

     0-0-0/w PTR         r     1 COM_STRING_SPACE$

  ****  Section 055 LblCom COM_STRING_PTR

  ****  Scalars and arrays  ****
OctLoc.c.b A Datatyp(siz) R M Lvl/name                 OctLoc.c.b A Datatyp(siz) R M Lvl/name

     0-0-0/w PTR         r     1 COM_STRING_PTR

  ****  Section 056 LblCom COM_STRING_INDX

  ****  Scalars and arrays  ****
OctLoc.c.b A Datatyp(siz) R M Lvl/name                 OctLoc.c.b A Datatyp(siz) R M Lvl/name

     0-0-0/w SBIN              1 COM_STRING_INDX

  ****  Section 057 LblCom LCP_TABLE_LEN

  ****  Scalars and arrays  ****
OctLoc.c.b A Datatyp(siz) R M Lvl/name                 OctLoc.c.b A Datatyp(siz) R M Lvl/name
PL6.E3A0      #010=OUTPUT_PATHS File=LR_ERRPTH.:Z8A6TSI                          SAT 08/09/97 09:31 Page:305

     0-0-0/w SBIN              1 LCP_TABLE_LEN

  ****  Section 058 LblCom STATE_ITEM_INDEX

  ****  Scalars and arrays  ****
OctLoc.c.b A Datatyp(siz) R M Lvl/name                 OctLoc.c.b A Datatyp(siz) R M Lvl/name

     0-0-0/h STRC              1 STATE_ITEM_INDEX(0:2200)

  ****  Section 059 LblCom PATH

  ****  Scalars and arrays  ****
OctLoc.c.b A Datatyp(siz) R M Lvl/name                 OctLoc.c.b A Datatyp(siz) R M Lvl/name

     0-0-0/h STRC        r     1 PATH(0:17600)

  ****  Section 060 LblCom PATH_STRINGS_LEN

  ****  Scalars and arrays  ****
OctLoc.c.b A Datatyp(siz) R M Lvl/name                 OctLoc.c.b A Datatyp(siz) R M Lvl/name

     0-0-0/w SBIN        r     1 PATH_STRINGS_LEN

  ****  Section 061 LblCom PATH_ADDR$

  ****  Scalars and arrays  ****
OctLoc.c.b A Datatyp(siz) R M Lvl/name                 OctLoc.c.b A Datatyp(siz) R M Lvl/name

     0-0-0/w PTR         r     1 PATH_ADDR$

  ****  Section 062 LblCom PATH_TABLE_LEN

  ****  Scalars and arrays  ****
OctLoc.c.b A Datatyp(siz) R M Lvl/name                 OctLoc.c.b A Datatyp(siz) R M Lvl/name

     0-0-0/w SBIN        r     1 PATH_TABLE_LEN
PL6.E3A0      #010=OUTPUT_PATHS File=LR_ERRPTH.:Z8A6TSI                          SAT 08/09/97 09:31 Page:306

  ****  Section 063 LblCom EDGECOST

  ****  Scalars and arrays  ****
OctLoc.c.b A Datatyp(siz) R M Lvl/name                 OctLoc.c.b A Datatyp(siz) R M Lvl/name

     0-0-0/w SBIN              1 EDGECOST(0:400)

  ****  Section 064 LblCom ITEM_TABLE_LEN

  ****  Scalars and arrays  ****
OctLoc.c.b A Datatyp(siz) R M Lvl/name                 OctLoc.c.b A Datatyp(siz) R M Lvl/name

     0-0-0/w SBIN        r     1 ITEM_TABLE_LEN

  ****  Section 065 LblCom ORDERED_ITEM

  ****  Scalars and arrays  ****
OctLoc.c.b A Datatyp(siz) R M Lvl/name                 OctLoc.c.b A Datatyp(siz) R M Lvl/name

     0-0-0/h STRC              1 ORDERED_ITEM(0:400)

  ****  Section 066 LblCom NEIGHBOR

  ****  Scalars and arrays  ****
OctLoc.c.b A Datatyp(siz) R M Lvl/name                 OctLoc.c.b A Datatyp(siz) R M Lvl/name

     0-0-0/w SBIN              1 NEIGHBOR(0:400)

  ****  Section 067 LblCom PATH_INFO

  ****  Scalars and arrays  ****
OctLoc.c.b A Datatyp(siz) R M Lvl/name                 OctLoc.c.b A Datatyp(siz) R M Lvl/name

     0-0-0/w STRC(28872)       1 PATH_INFO

  ****  Section 068 LblCom CHOSEN
PL6.E3A0      #010=OUTPUT_PATHS File=LR_ERRPTH.:Z8A6TSI                          SAT 08/09/97 09:31 Page:307

  ****  Scalars and arrays  ****
OctLoc.c.b A Datatyp(siz) R M Lvl/name                 OctLoc.c.b A Datatyp(siz) R M Lvl/name

     0-0-0/w BIT               1 CHOSEN(0:400)

  ****  Section 069 LblCom REACHED

  ****  Scalars and arrays  ****
OctLoc.c.b A Datatyp(siz) R M Lvl/name                 OctLoc.c.b A Datatyp(siz) R M Lvl/name

     0-0-0/b BIT               1 REACHED(0:400)

  ****  Section 070 LblCom EXP_PATH_INDX

  ****  Scalars and arrays  ****
OctLoc.c.b A Datatyp(siz) R M Lvl/name                 OctLoc.c.b A Datatyp(siz) R M Lvl/name

     0-0-0/w SBIN              1 EXP_PATH_INDX

  ****  Auto variables  ****

  ****  Scalars and arrays  ****
OctLoc.c.b A Datatyp(siz) R M Lvl/name                 OctLoc.c.b A Datatyp(siz) R M Lvl/name

     3-0-0/w SBIN        r     1 I

  ****  BASED and DCB variables  ****

  ****  Scalars and arrays  ****
OctLoc.c.b A Datatyp(siz) R M Lvl/name                 OctLoc.c.b A Datatyp(siz) R M Lvl/name

     0-0-0/w STRC(72)          1 CELL                       0-0-0/c ACHR              1 COM_STRINGS
     0-0-0/c ACHR              1 COM_STRING_SPACE           0-0-0/c ACHR              1 CSEARCH_STRING
     0-0-0/w STRC(57888)       1 C_SET_B                    0-0-0/w STRC(72)          1 INCLUDES_B
     0-0-0/w STRC(144)         1 INCL_B                     0-0-0/w STRC(5436)        1 ITEM_B
     0-0-0/w STRC(5652)        1 KEY_B                      0-0-0N  NULL        r     1 M$LO
PL6.E3A0      #010=OUTPUT_PATHS File=LR_ERRPTH.:Z8A6TSI                          SAT 08/09/97 09:31 Page:308
     0-0-0N  NULL        r     1 M$OU                       0-0-0N  NULL        r     1 M$SI
     0-0-0N  NULL        r     1 M$SO                       0-0-0N  NULL        r     1 M$UI
     0-0-0/c ACHR              1 PATH_STRINGS               0-0-0/w STRC(90)          1 PREFIX
     0-0-0/w ASTR(72)    r     1 PREFIXCHR                  0-0-0/w STRC              1 STRING
     0-0-0/w ASTR(18)    r     1 STRINGCHR                  0-0-0/w STRC(351)         1 SYMBOL


   Procedure OUTPUT_PATHS requires 145 words for executable code.
   Procedure OUTPUT_PATHS requires 8 words of local(AUTO) storage.

PL6.E3A0      #011=OUTPUT_PATH_STRINGS File=LR_ERRPTH.:Z8A6TSI                   SAT 08/09/97 09:32 Page:309
      821        1        /*T***********************************************************/
      822        2        /*T*                                                         */
      823        3        /*T* Copyright (c) Bull HN Information Systems Inc., 1997    */
      824        4        /*T*                                                         */
      825        5        /*T***********************************************************/
      826        6        OUTPUT_PATH_STRINGS : PROC;
      827        7
      828        8        /*D*
      829        9              NAME: OUTPUT_PATH_STRINGS
      830       10           PURPOSE: OUTPUT THE PATH STRINGS TABLE.
      831       11        */
      832       12
      833       13
      834       14        %INCLUDE LR_GRAM_EXT;
      835      553        %INCLUDE LR_CNFG_EXT;
      836      706        %INCLUDE LR_ERR_EXT;
      837      849
      838      850
      839      851    1   DCL I SBIN WORD;
      840      852
      841      853
      842      854        %SELECT_SUBS;
      843      857
      844      858        %OUT_STR(S="'%EQU PATH_ELEM_LEN = '");
      845      861    1   CALL OUT_DEC(COM_STRSP_LEN/2 - 1);
      846      862        %OUT_STR(S="';'");
      847      865    1   CALL FLUSH;
      848      866
      849      867        %STAT_LENGTH(T=PATH_ELEM,V="COM_STRSP_LEN/2");
      850      870
      851      871        %SELECT_OU;
      852      874
      853      875        %OUTLINE(S="'%START_TABLE_PATH_ELEM;'");
      854      881
      855      882    2   DO I = 1 TO COM_STRSP_LEN/2 -1;
      856      883
      857      884          %OUT_STR(S="'  %PATHE(E='");
PL6.E3A0      #011=OUTPUT_PATH_STRINGS File=LR_ERRPTH.:Z8A6TSI                   SAT 08/09/97 09:32 Page:310
      858      887    2     CALL OUT_DEC(BINBIT(COM_STRING_SPACE_H(I), 36));
      859      888          %OUT_STR(S="');'");
      860      891          %OUT_STR(S="'  /* '");
      861      894    2     CALL OUT_DEC(I);
      862      895          %OUT_STR(S="' */'");
      863      898    2     CALL FLUSH;
      864      899
      865      900          %BOUNDS(T=PATH_ELEM, V="COM_STRING_SPACE_H(I)");
      866      906
      867      907    2   END;
      868      908
      869      909
      870      910        %OUTLINE(S="'%END_TABLE_PATH_ELEM;'");
      871      916
      872      917    1   END OUTPUT_PATH_STRINGS;
      873      918        %EOD;

PL6.E3A0      #011=OUTPUT_PATH_STRINGS File=LR_ERRPTH.:Z8A6TSI                   SAT 08/09/97 09:32 Page:311
--  Include file information  --

   LR_ERR_EXT.:Z8A6TOU  cannot be made into a system file and is referenced.
   LR_CNFG_EXT.:Z8A6TOU  cannot be made into a system file and is referenced.
   LR_IO_EXT.:Z8A6TOU  cannot be made into a system file and is referenced.
   LR_GRAM_EXT.:Z8A6TOU  cannot be made into a system file and is referenced.
      No diagnostics issued in procedure OUTPUT_PATH_STRINGS.

   Procedure OUTPUT_PATH_STRINGS requires 112 words for executable code.
   Procedure OUTPUT_PATH_STRINGS requires 10 words of local(AUTO) storage.

PL6.E3A0      #011=OUTPUT_PATH_STRINGS File=LR_ERRPTH.:Z8A6TSI                   SAT 08/09/97 09:32 Page:312

 Object Unit name= OUTPUT_PATH_STRINGS                        File name= LR_ERRPTH.:Z8A6TOU
 UTS= AUG 09 '97 09:32:05.96 SAT                              Compiler= PL-6/E31         Sev=      00
 SharedLib= :SHARED_SYSTEM                                    Alt SharedLib=


    ****  Control sections  ****

 Sect   Type Bound  Init  Size OctSiz  Section name(segment info)
    0  LblCom even  none     1      1  OUT_DCBN
    1   DCB   even  none     0      0  M$OU
    2   DCB   even  none     0      0  M$SO
    3   DCB   even  none     0      0  M$LO
    4   DCB   even  none     0      0  M$SI
    5   DCB   even  none     0      0  M$UI
    6  LblCom even  none  1401   2571  SYM_PTRS
    7  LblCom even  none  4001   7641  RIGHT_PARTS
    8  LblCom even  none  3002   5672  PROD
    9  LblCom even  none     1      1  NR_PROD
   10  LblCom even  none     1      1  NR_SYMS
   11  LblCom even  none     1      1  NR_TERM
   12  LblCom even  none     1      1  LAST_ACT
   13  LblCom even  none     1      1  LAST_NULL
   14  LblCom even  none     1      1  NR_ONRIGHT
   15  LblCom even  none     1      1  NR_NT
   16  LblCom even  none     1      1  PROD_LEN_MAX_EVER
   17  LblCom even  none     1      1  LAST_ORDER_SPECIFIED
   18  LblCom even  none     1      1  SEMANTIC_ORDERING
   19  LblCom even  none     1      1  ERR_SEV
   20  LblCom even  none     1      1  SET_LENGTHB
   21  LblCom even  none     1      1  SET_LENGTHW
   22  LblCom even  none     1      1  EOF_SYMBOL_PTR
   23  LblCom even  none     1      1  ERROR_SYMBOL_PTR
   24  LblCom even  none     1      1  BOF_SYMBOL_PTR
   25  LblCom even  none     1      1  OPTIONS
   26  LblCom even  none    26     32  OPTIONS_TEXT
   27  LblCom even  none   128    200  INSTR
   28  LblCom even  none     1      1  INSTR_LISTED
PL6.E3A0      #011=OUTPUT_PATH_STRINGS File=LR_ERRPTH.:Z8A6TSI                   SAT 08/09/97 09:32 Page:313
   29  LblCom even  none     1      1  INSTR_LEN
   30  LblCom even  none     1      1  INSTR_INDX
   31  LblCom even  none     1      1  EOF_FLAG
   32  LblCom even  none     3      3  KEY_REC
   33  LblCom even  none    28     34  LINE
   34  LblCom even  none     1      1  LINELEN
   35  LblCom even  none   205    315  TSTATS
   36  LblCom even  none  2201   4231  C#_TO_$
   37  LblCom even  none     1      1  NR_CONFIG
   38  LblCom even  none     1      1  INIT_CONFIG
   39  LblCom even  none     1      1  MAX_BASIS_ITEMS
   40  LblCom even  none     1      1  MAX_TOTAL_ITEMS
   41  LblCom even  none     1      1  LAST_BINSRCH_ONLY
   42  LblCom even  none     1      1  LAST_BOTH_BITBIN
   43  LblCom even  none   101    145  GARBAGE
   44  LblCom even  none     1      1  AMT_GARBAGE
   45  LblCom even  none  1401   2571  LEAST_COST_STRING
   46  LblCom even  none  1401   2571  LEAST_COST_PREFIX
   47  LblCom even  none  5604  12744  CURRE
   48  LblCom even  none   701   1275  LCP_INDX
   49  LblCom even  none     1      1  COM_STRSP_LEN
   50  LblCom even  none     1      1  COM_SEARCH_STRING
   51  LblCom even  none     1      1  COM_SEARCH_STRING_LEN
   52  LblCom even  none     1      1  COM_STRING_SPACE_LEN
   53  LblCom even  none 12500  30324  COM_STRING_SPACE_H
   54  LblCom even  none     1      1  COM_STRING_SPACE$
   55  LblCom even  none     1      1  COM_STRING_PTR
   56  LblCom even  none     1      1  COM_STRING_INDX
   57  LblCom even  none     1      1  LCP_TABLE_LEN
   58  LblCom even  none  2201   4231  STATE_ITEM_INDEX
   59  LblCom even  none 17601  42301  PATH
   60  LblCom even  none     1      1  PATH_STRINGS_LEN
   61  LblCom even  none     1      1  PATH_ADDR$
   62  LblCom even  none     1      1  PATH_TABLE_LEN
   63  LblCom even  none   401    621  EDGECOST
   64  LblCom even  none     1      1  ITEM_TABLE_LEN
   65  LblCom even  none   401    621  ORDERED_ITEM
PL6.E3A0      #011=OUTPUT_PATH_STRINGS File=LR_ERRPTH.:Z8A6TSI                   SAT 08/09/97 09:32 Page:314
   66  LblCom even  none   401    621  NEIGHBOR
   67  LblCom even  none   802   1442  PATH_INFO
   68  LblCom even  none   401    621  CHOSEN
   69  LblCom even  none    12     14  REACHED
   70  LblCom even  none     1      1  EXP_PATH_INDX
   71  RoData even  UTS     25     31  OUTPUT_PATH_STRINGS
   72   Proc  even  none   112    160  OUTPUT_PATH_STRINGS
   73  RoData even  none    27     33  OUTPUT_PATH_STRINGS

    ****  Entry defs  ****

                              Check   Calling
                             calling  sequence
  Sect OctLoc Primary Altret sequence   type   Parms  Name
    72      0   yes            yes      Std        0  OUTPUT_PATH_STRINGS

  ****  Entry refs  ****

         Check        Calling
        calling       sequence
Altret sequence SRef   type   Args  Name
         yes           Std       2 OUT_STR
         yes           Std       0 FLUSH
         yes           Std       1 OUT_DEC
                       nStd      0 X66_AUTO_0
                       nStd      0 X66_ARET

  ****  Data refs  ****

  Flags:  r = read only, s = secondary
Flgs Name                             Flgs Name                             Flgs Name
     M$OU                                  M$SO                                  M$LO
     M$SI                                  M$UI
PL6.E3A0      #011=OUTPUT_PATH_STRINGS File=LR_ERRPTH.:Z8A6TSI                   SAT 08/09/97 09:32 Page:315

  ****  Segment refs  ****

  Flags:  r = read only, s = secondary
Flgs Name                             Flgs Name                             Flgs Name
     NULLSID                               ISSID
PL6.E3A0      #011=OUTPUT_PATH_STRINGS File=LR_ERRPTH.:Z8A6TSI                   SAT 08/09/97 09:32 Page:316


      821        1        /*T***********************************************************/
      822        2        /*T*                                                         */
      823        3        /*T* Copyright (c) Bull HN Information Systems Inc., 1997    */
      824        4        /*T*                                                         */
      825        5        /*T***********************************************************/
      826        6        OUTPUT_PATH_STRINGS : PROC;

      6 72 000000   000000 700200 xent  OUTPUT_PATH* TSX0  ! X66_AUTO_0
        72 000001   000012 000000                    ZERO    10,0

      827        7
      828        8        /*D*
      829        9              NAME: OUTPUT_PATH_STRINGS
      830       10           PURPOSE: OUTPUT THE PATH STRINGS TABLE.
      831       11        */
      832       12
      833       13
      834       14        %INCLUDE LR_GRAM_EXT;
      835      553        %INCLUDE LR_CNFG_EXT;
      836      706        %INCLUDE LR_ERR_EXT;
      837      849
      838      850
      839      851    1   DCL I SBIN WORD;
      840      852
      841      853
      842      854        %SELECT_SUBS;

    855 72 000002   000000 236007 xsym               LDQ     M$SO,DL
        72 000003   000000 756000 0                  STQ     OUT_DCBN

      843      857
      844      858        %OUT_STR(S="'%EQU PATH_ELEM_LEN = '");

    859 72 000004   000002 630400 73                 EPPR0   2
        72 000005   000000 631400 73                 EPPR1   0
        72 000006   000000 701000 xent               TSX1    OUT_STR
PL6.E3A0      #011=OUTPUT_PATH_STRINGS File=LR_ERRPTH.:Z8A6TSI                   SAT 08/09/97 09:32 Page:317
        72 000007   000000 011000                    NOP     0

      845      861    1   CALL OUT_DEC(COM_STRSP_LEN/2 - 1);

    861 72 000010   000000 236000 49                 LDQ     COM_STRSP_LEN
        72 000011   000002 506007                    DIV     2,DL
        72 000012   000001 136007                    SBLQ    1,DL
        72 000013   200004 756100                    STQ     I+1,,AUTO
        72 000014   200004 630500                    EPPR0   I+1,,AUTO
        72 000015   200005 450500                    STP0    I+2,,AUTO
        72 000016   200005 630500                    EPPR0   I+2,,AUTO
        72 000017   000004 631400 73                 EPPR1   4
        72 000020   000000 701000 xent               TSX1    OUT_DEC
        72 000021   000000 011000                    NOP     0

      846      862        %OUT_STR(S="';'");

    863 72 000022   000007 630400 73                 EPPR0   7
        72 000023   000000 631400 73                 EPPR1   0
        72 000024   000000 701000 xent               TSX1    OUT_STR
        72 000025   000000 011000                    NOP     0

      847      865    1   CALL FLUSH;

    865 72 000026   000011 631400 73                 EPPR1   9
        72 000027   000000 701000 xent               TSX1    FLUSH
        72 000030   000000 011000                    NOP     0

      848      866
      849      867        %STAT_LENGTH(T=PATH_ELEM,V="COM_STRSP_LEN/2");

    868 72 000031   000000 236000 49                 LDQ     COM_STRSP_LEN
        72 000032   000002 506007                    DIV     2,DL
        72 000033   000165 756000 35                 STQ     TSTATS+117

      850      870
      851      871        %SELECT_OU;
PL6.E3A0      #011=OUTPUT_PATH_STRINGS File=LR_ERRPTH.:Z8A6TSI                   SAT 08/09/97 09:32 Page:318

    872 72 000034   000000 236007 xsym               LDQ     M$OU,DL
        72 000035   000000 756000 0                  STQ     OUT_DCBN

      852      874
      853      875        %OUTLINE(S="'%START_TABLE_PATH_ELEM;'");

    877 72 000036   000013 630400 73                 EPPR0   11
        72 000037   000000 631400 73                 EPPR1   0
        72 000040   000000 701000 xent               TSX1    OUT_STR
        72 000041   000000 011000                    NOP     0

    878 72 000042   000011 631400 73                 EPPR1   9
        72 000043   000000 701000 xent               TSX1    FLUSH
        72 000044   000000 011000                    NOP     0

      854      881
      855      882    2   DO I = 1 TO COM_STRSP_LEN/2 -1;

    882 72 000045   000001 235007                    LDA     1,DL
        72 000046   200003 755100                    STA     I,,AUTO
        72 000047   000144 710000 72                 TRA     s:907+1

      856      883
      857      884          %OUT_STR(S="'  %PATHE(E='");

    885 72 000050   000016 630400 73                 EPPR0   14
        72 000051   000000 631400 73                 EPPR1   0
        72 000052   000000 701000 xent               TSX1    OUT_STR
        72 000053   000000 011000                    NOP     0

      858      887    2     CALL OUT_DEC(BINBIT(COM_STRING_SPACE_H(I), 36));

    887 72 000054   200003 235100                    LDA     I,,AUTO
        72 000055   000001 735000                    ALS     1
        72 000056   000100 100405                    MLR     fill='000'O
        72 000057   000000 000002 53                 ADSC9   COM_STRING_SPACE_H,A     cn=0,n=2
PL6.E3A0      #011=OUTPUT_PATH_STRINGS File=LR_ERRPTH.:Z8A6TSI                   SAT 08/09/97 09:32 Page:319
        72 000060   200004 000004                    ADSC9   I+1,,AUTO                cn=0,n=4
        72 000061   200004 236100                    LDQ     I+1,,AUTO
        72 000062   000022 732000                    QRS     18
        72 000063   200006 756100                    STQ     I+3,,AUTO
        72 000064   200006 630500                    EPPR0   I+3,,AUTO
        72 000065   200010 450500                    STP0    I+5,,AUTO
        72 000066   200010 630500                    EPPR0   I+5,,AUTO
        72 000067   000004 631400 73                 EPPR1   4
        72 000070   000000 701000 xent               TSX1    OUT_DEC
        72 000071   000000 011000                    NOP     0

      859      888          %OUT_STR(S="');'");

    889 72 000072   000021 630400 73                 EPPR0   17
        72 000073   000000 631400 73                 EPPR1   0
        72 000074   000000 701000 xent               TSX1    OUT_STR
        72 000075   000000 011000                    NOP     0

      860      891          %OUT_STR(S="'  /* '");

    892 72 000076   000024 630400 73                 EPPR0   20
        72 000077   000000 631400 73                 EPPR1   0
        72 000100   000000 701000 xent               TSX1    OUT_STR
        72 000101   000000 011000                    NOP     0

      861      894    2     CALL OUT_DEC(I);

    894 72 000102   200003 630500                    EPPR0   I,,AUTO
        72 000103   200004 450500                    STP0    I+1,,AUTO
        72 000104   200004 630500                    EPPR0   I+1,,AUTO
        72 000105   000004 631400 73                 EPPR1   4
        72 000106   000000 701000 xent               TSX1    OUT_DEC
        72 000107   000000 011000                    NOP     0

      862      895          %OUT_STR(S="' */'");

    896 72 000110   000027 630400 73                 EPPR0   23
PL6.E3A0      #011=OUTPUT_PATH_STRINGS File=LR_ERRPTH.:Z8A6TSI                   SAT 08/09/97 09:32 Page:320
        72 000111   000000 631400 73                 EPPR1   0
        72 000112   000000 701000 xent               TSX1    OUT_STR
        72 000113   000000 011000                    NOP     0

      863      898    2     CALL FLUSH;

    898 72 000114   000011 631400 73                 EPPR1   9
        72 000115   000000 701000 xent               TSX1    FLUSH
        72 000116   000000 011000                    NOP     0

      864      899
      865      900          %BOUNDS(T=PATH_ELEM, V="COM_STRING_SPACE_H(I)");

    902 72 000117   200003 235100                    LDA     I,,AUTO
        72 000120   000001 735000                    ALS     1
        72 000121   000100 100405                    MLR     fill='000'O
        72 000122   000000 000002 53                 ADSC9   COM_STRING_SPACE_H,A     cn=0,n=2
        72 000123   200004 000004                    ADSC9   I+1,,AUTO                cn=0,n=4
        72 000124   200004 236100                    LDQ     I+1,,AUTO
        72 000125   000022 732000                    QRS     18
        72 000126   000164 116000 35                 CMPQ    TSTATS+116
        72 000127   000131 604400 72                 TMOZ    s:902+10
        72 000130   000164 236000 35                 LDQ     TSTATS+116
        72 000131   000164 756000 35                 STQ     TSTATS+116

    903 72 000132   000100 100405                    MLR     fill='000'O
        72 000133   000000 000002 53                 ADSC9   COM_STRING_SPACE_H,A     cn=0,n=2
        72 000134   200004 000004                    ADSC9   I+1,,AUTO                cn=0,n=4
        72 000135   200004 236100                    LDQ     I+1,,AUTO
        72 000136   000022 732000                    QRS     18
        72 000137   000163 116000 35                 CMPQ    TSTATS+115
        72 000140   000142 605000 72                 TPL     s:903+8
        72 000141   000163 236000 35                 LDQ     TSTATS+115
        72 000142   000163 756000 35                 STQ     TSTATS+115

      866      906
      867      907    2   END;
PL6.E3A0      #011=OUTPUT_PATH_STRINGS File=LR_ERRPTH.:Z8A6TSI                   SAT 08/09/97 09:32 Page:321

    907 72 000143   200003 054100                    AOS     I,,AUTO
        72 000144   000000 236000 49                 LDQ     COM_STRSP_LEN
        72 000145   000002 506007                    DIV     2,DL
        72 000146   200003 116100                    CMPQ    I,,AUTO
        72 000147   000050 605400 72                 TPNZ    s:885

      868      908
      869      909
      870      910        %OUTLINE(S="'%END_TABLE_PATH_ELEM;'");

    912 72 000150   000031 630400 73                 EPPR0   25
        72 000151   000000 631400 73                 EPPR1   0
        72 000152   000000 701000 xent               TSX1    OUT_STR
        72 000153   000000 011000                    NOP     0

    913 72 000154   000011 631400 73                 EPPR1   9
        72 000155   000000 701000 xent               TSX1    FLUSH
        72 000156   000000 011000                    NOP     0

      871      916
      872      917    1   END OUTPUT_PATH_STRINGS;

    917 72 000157   000000 702200 xent               TSX2  ! X66_ARET
      873      918        %EOD;

PL6.E3A0      #011=OUTPUT_PATH_STRINGS File=LR_ERRPTH.:Z8A6TSI                   SAT 08/09/97 09:32 Page:322
--  Include file information  --

   LR_ERR_EXT.:Z8A6TOU  cannot be made into a system file and is referenced.
   LR_CNFG_EXT.:Z8A6TOU  cannot be made into a system file and is referenced.
   LR_IO_EXT.:Z8A6TOU  cannot be made into a system file and is referenced.
   LR_GRAM_EXT.:Z8A6TOU  cannot be made into a system file and is referenced.
      No diagnostics issued in procedure OUTPUT_PATH_STRINGS.
PL6.E3A0      #011=OUTPUT_PATH_STRINGS File=LR_ERRPTH.:Z8A6TSI                   SAT 08/09/97 09:32 Page:323

 **** Variables and constants ****

  ****  Section 000 LblCom OUT_DCBN

  ****  Scalars and arrays  ****
OctLoc.c.b A Datatyp(siz) R M Lvl/name                 OctLoc.c.b A Datatyp(siz) R M Lvl/name

     0-0-0/w SBIN        r     1 OUT_DCBN

  ****  Section 006 LblCom SYM_PTRS

  ****  Scalars and arrays  ****
OctLoc.c.b A Datatyp(siz) R M Lvl/name                 OctLoc.c.b A Datatyp(siz) R M Lvl/name

     0-0-0/w PTR               1 SYM_PTRS(0:1400)

  ****  Section 007 LblCom RIGHT_PARTS

  ****  Scalars and arrays  ****
OctLoc.c.b A Datatyp(siz) R M Lvl/name                 OctLoc.c.b A Datatyp(siz) R M Lvl/name

     0-0-0/h SBIN(18)          1 RIGHT_PARTS(0:8000)

  ****  Section 008 LblCom PROD

  ****  Scalars and arrays  ****
OctLoc.c.b A Datatyp(siz) R M Lvl/name                 OctLoc.c.b A Datatyp(siz) R M Lvl/name

     0-0-0/h STRC(72)          1 PROD(0:1500)

  ****  Section 009 LblCom NR_PROD

  ****  Scalars and arrays  ****
OctLoc.c.b A Datatyp(siz) R M Lvl/name                 OctLoc.c.b A Datatyp(siz) R M Lvl/name

     0-0-0/w SBIN              1 NR_PROD

PL6.E3A0      #011=OUTPUT_PATH_STRINGS File=LR_ERRPTH.:Z8A6TSI                   SAT 08/09/97 09:32 Page:324
  ****  Section 010 LblCom NR_SYMS

  ****  Scalars and arrays  ****
OctLoc.c.b A Datatyp(siz) R M Lvl/name                 OctLoc.c.b A Datatyp(siz) R M Lvl/name

     0-0-0/w SBIN              1 NR_SYMS

  ****  Section 011 LblCom NR_TERM

  ****  Scalars and arrays  ****
OctLoc.c.b A Datatyp(siz) R M Lvl/name                 OctLoc.c.b A Datatyp(siz) R M Lvl/name

     0-0-0/w SBIN              1 NR_TERM

  ****  Section 012 LblCom LAST_ACT

  ****  Scalars and arrays  ****
OctLoc.c.b A Datatyp(siz) R M Lvl/name                 OctLoc.c.b A Datatyp(siz) R M Lvl/name

     0-0-0/w SBIN              1 LAST_ACT

  ****  Section 013 LblCom LAST_NULL

  ****  Scalars and arrays  ****
OctLoc.c.b A Datatyp(siz) R M Lvl/name                 OctLoc.c.b A Datatyp(siz) R M Lvl/name

     0-0-0/w SBIN              1 LAST_NULL

  ****  Section 014 LblCom NR_ONRIGHT

  ****  Scalars and arrays  ****
OctLoc.c.b A Datatyp(siz) R M Lvl/name                 OctLoc.c.b A Datatyp(siz) R M Lvl/name

     0-0-0/w SBIN              1 NR_ONRIGHT

  ****  Section 015 LblCom NR_NT

PL6.E3A0      #011=OUTPUT_PATH_STRINGS File=LR_ERRPTH.:Z8A6TSI                   SAT 08/09/97 09:32 Page:325
  ****  Scalars and arrays  ****
OctLoc.c.b A Datatyp(siz) R M Lvl/name                 OctLoc.c.b A Datatyp(siz) R M Lvl/name

     0-0-0/w SBIN              1 NR_NT

  ****  Section 016 LblCom PROD_LEN_MAX_EVER

  ****  Scalars and arrays  ****
OctLoc.c.b A Datatyp(siz) R M Lvl/name                 OctLoc.c.b A Datatyp(siz) R M Lvl/name

     0-0-0/w SBIN              1 PROD_LEN_MAX_EVER

  ****  Section 017 LblCom LAST_ORDER_SPECIFIED

  ****  Scalars and arrays  ****
OctLoc.c.b A Datatyp(siz) R M Lvl/name                 OctLoc.c.b A Datatyp(siz) R M Lvl/name

     0-0-0/w SBIN              1 LAST_ORDER_SPECIFIED

  ****  Section 018 LblCom SEMANTIC_ORDERING

  ****  Scalars and arrays  ****
OctLoc.c.b A Datatyp(siz) R M Lvl/name                 OctLoc.c.b A Datatyp(siz) R M Lvl/name

     0-0-0/b BIT               1 SEMANTIC_ORDERING

  ****  Section 019 LblCom ERR_SEV

  ****  Scalars and arrays  ****
OctLoc.c.b A Datatyp(siz) R M Lvl/name                 OctLoc.c.b A Datatyp(siz) R M Lvl/name

     0-0-0/w SBIN              1 ERR_SEV

  ****  Section 020 LblCom SET_LENGTHB

  ****  Scalars and arrays  ****
OctLoc.c.b A Datatyp(siz) R M Lvl/name                 OctLoc.c.b A Datatyp(siz) R M Lvl/name
PL6.E3A0      #011=OUTPUT_PATH_STRINGS File=LR_ERRPTH.:Z8A6TSI                   SAT 08/09/97 09:32 Page:326

     0-0-0/w SBIN              1 SET_LENGTHB

  ****  Section 021 LblCom SET_LENGTHW

  ****  Scalars and arrays  ****
OctLoc.c.b A Datatyp(siz) R M Lvl/name                 OctLoc.c.b A Datatyp(siz) R M Lvl/name

     0-0-0/w SBIN              1 SET_LENGTHW

  ****  Section 022 LblCom EOF_SYMBOL_PTR

  ****  Scalars and arrays  ****
OctLoc.c.b A Datatyp(siz) R M Lvl/name                 OctLoc.c.b A Datatyp(siz) R M Lvl/name

     0-0-0/w PTR               1 EOF_SYMBOL_PTR

  ****  Section 023 LblCom ERROR_SYMBOL_PTR

  ****  Scalars and arrays  ****
OctLoc.c.b A Datatyp(siz) R M Lvl/name                 OctLoc.c.b A Datatyp(siz) R M Lvl/name

     0-0-0/w PTR               1 ERROR_SYMBOL_PTR

  ****  Section 024 LblCom BOF_SYMBOL_PTR

  ****  Scalars and arrays  ****
OctLoc.c.b A Datatyp(siz) R M Lvl/name                 OctLoc.c.b A Datatyp(siz) R M Lvl/name

     0-0-0/w PTR               1 BOF_SYMBOL_PTR

  ****  Section 025 LblCom OPTIONS

  ****  Scalars and arrays  ****
OctLoc.c.b A Datatyp(siz) R M Lvl/name                 OctLoc.c.b A Datatyp(siz) R M Lvl/name

     0-0-0/b BIT               1 OPTIONS(0:25)
PL6.E3A0      #011=OUTPUT_PATH_STRINGS File=LR_ERRPTH.:Z8A6TSI                   SAT 08/09/97 09:32 Page:327

  ****  Section 026 LblCom OPTIONS_TEXT

  ****  Scalars and arrays  ****
OctLoc.c.b A Datatyp(siz) R M Lvl/name                 OctLoc.c.b A Datatyp(siz) R M Lvl/name

     0-0-0/c CHAR(4)           1 OPTIONS_TEXT(0:25)

  ****  Section 027 LblCom INSTR

  ****  Scalars and arrays  ****
OctLoc.c.b A Datatyp(siz) R M Lvl/name                 OctLoc.c.b A Datatyp(siz) R M Lvl/name

     0-0-0/c CHAR              1 INSTR(0:511)               0-0-0/c CHAR(512)         1 INSTRCHR

  ****  Section 028 LblCom INSTR_LISTED

  ****  Scalars and arrays  ****
OctLoc.c.b A Datatyp(siz) R M Lvl/name                 OctLoc.c.b A Datatyp(siz) R M Lvl/name

     0-0-0/b BIT               1 INSTR_LISTED

  ****  Section 029 LblCom INSTR_LEN

  ****  Scalars and arrays  ****
OctLoc.c.b A Datatyp(siz) R M Lvl/name                 OctLoc.c.b A Datatyp(siz) R M Lvl/name

     0-0-0/w SBIN              1 INSTR_LEN

  ****  Section 030 LblCom INSTR_INDX

  ****  Scalars and arrays  ****
OctLoc.c.b A Datatyp(siz) R M Lvl/name                 OctLoc.c.b A Datatyp(siz) R M Lvl/name

     0-0-0/w SBIN              1 INSTR_INDX

  ****  Section 031 LblCom EOF_FLAG
PL6.E3A0      #011=OUTPUT_PATH_STRINGS File=LR_ERRPTH.:Z8A6TSI                   SAT 08/09/97 09:32 Page:328

  ****  Scalars and arrays  ****
OctLoc.c.b A Datatyp(siz) R M Lvl/name                 OctLoc.c.b A Datatyp(siz) R M Lvl/name

     0-0-0/b BIT               1 EOF_FLAG

  ****  Section 032 LblCom KEY_REC

  ****  Scalars and arrays  ****
OctLoc.c.b A Datatyp(siz) R M Lvl/name                 OctLoc.c.b A Datatyp(siz) R M Lvl/name

     0-0-0/c CHAR(10)          1 KEY_REC

  ****  Section 033 LblCom LINE

  ****  Scalars and arrays  ****
OctLoc.c.b A Datatyp(siz) R M Lvl/name                 OctLoc.c.b A Datatyp(siz) R M Lvl/name

     0-0-0/c CHAR(109)         1 LINE

  ****  Section 034 LblCom LINELEN

  ****  Scalars and arrays  ****
OctLoc.c.b A Datatyp(siz) R M Lvl/name                 OctLoc.c.b A Datatyp(siz) R M Lvl/name

     0-0-0/w SBIN              1 LINELEN

  ****  Section 035 LblCom TSTATS

  ****  Scalars and arrays  ****
OctLoc.c.b A Datatyp(siz) R M Lvl/name                 OctLoc.c.b A Datatyp(siz) R M Lvl/name

     0-0-0/w STRC(7380)  r     1 TSTATS

  ****  Section 036 LblCom C#_TO_$

  ****  Scalars and arrays  ****
PL6.E3A0      #011=OUTPUT_PATH_STRINGS File=LR_ERRPTH.:Z8A6TSI                   SAT 08/09/97 09:32 Page:329
OctLoc.c.b A Datatyp(siz) R M Lvl/name                 OctLoc.c.b A Datatyp(siz) R M Lvl/name

     0-0-0/w PTR               1 C#_TO_$(0:2200)

  ****  Section 037 LblCom NR_CONFIG

  ****  Scalars and arrays  ****
OctLoc.c.b A Datatyp(siz) R M Lvl/name                 OctLoc.c.b A Datatyp(siz) R M Lvl/name

     0-0-0/w SBIN              1 NR_CONFIG

  ****  Section 038 LblCom INIT_CONFIG

  ****  Scalars and arrays  ****
OctLoc.c.b A Datatyp(siz) R M Lvl/name                 OctLoc.c.b A Datatyp(siz) R M Lvl/name

     0-0-0/w SBIN              1 INIT_CONFIG

  ****  Section 039 LblCom MAX_BASIS_ITEMS

  ****  Scalars and arrays  ****
OctLoc.c.b A Datatyp(siz) R M Lvl/name                 OctLoc.c.b A Datatyp(siz) R M Lvl/name

     0-0-0/w SBIN              1 MAX_BASIS_ITEMS

  ****  Section 040 LblCom MAX_TOTAL_ITEMS

  ****  Scalars and arrays  ****
OctLoc.c.b A Datatyp(siz) R M Lvl/name                 OctLoc.c.b A Datatyp(siz) R M Lvl/name

     0-0-0/w SBIN              1 MAX_TOTAL_ITEMS

  ****  Section 041 LblCom LAST_BINSRCH_ONLY

  ****  Scalars and arrays  ****
OctLoc.c.b A Datatyp(siz) R M Lvl/name                 OctLoc.c.b A Datatyp(siz) R M Lvl/name

PL6.E3A0      #011=OUTPUT_PATH_STRINGS File=LR_ERRPTH.:Z8A6TSI                   SAT 08/09/97 09:32 Page:330
     0-0-0/w SBIN              1 LAST_BINSRCH_ONLY

  ****  Section 042 LblCom LAST_BOTH_BITBIN

  ****  Scalars and arrays  ****
OctLoc.c.b A Datatyp(siz) R M Lvl/name                 OctLoc.c.b A Datatyp(siz) R M Lvl/name

     0-0-0/w SBIN              1 LAST_BOTH_BITBIN

  ****  Section 043 LblCom GARBAGE

  ****  Scalars and arrays  ****
OctLoc.c.b A Datatyp(siz) R M Lvl/name                 OctLoc.c.b A Datatyp(siz) R M Lvl/name

     0-0-0/w PTR               1 GARBAGE(0:100)

  ****  Section 044 LblCom AMT_GARBAGE

  ****  Scalars and arrays  ****
OctLoc.c.b A Datatyp(siz) R M Lvl/name                 OctLoc.c.b A Datatyp(siz) R M Lvl/name

     0-0-0/w SBIN              1 AMT_GARBAGE

  ****  Section 045 LblCom LEAST_COST_STRING

  ****  Scalars and arrays  ****
OctLoc.c.b A Datatyp(siz) R M Lvl/name                 OctLoc.c.b A Datatyp(siz) R M Lvl/name

     0-0-0/w PTR               1 LEAST_COST_STRING(0:1400)

  ****  Section 046 LblCom LEAST_COST_PREFIX

  ****  Scalars and arrays  ****
OctLoc.c.b A Datatyp(siz) R M Lvl/name                 OctLoc.c.b A Datatyp(siz) R M Lvl/name

     0-0-0/w PTR               1 LEAST_COST_PREFIX(0:1400)

PL6.E3A0      #011=OUTPUT_PATH_STRINGS File=LR_ERRPTH.:Z8A6TSI                   SAT 08/09/97 09:32 Page:331
  ****  Section 047 LblCom CURRE

  ****  Scalars and arrays  ****
OctLoc.c.b A Datatyp(siz) R M Lvl/name                 OctLoc.c.b A Datatyp(siz) R M Lvl/name

     0-0-0/d STRC(126)         1 CURRE(0:1400)

  ****  Section 048 LblCom LCP_INDX

  ****  Scalars and arrays  ****
OctLoc.c.b A Datatyp(siz) R M Lvl/name                 OctLoc.c.b A Datatyp(siz) R M Lvl/name

     0-0-0/h SBIN(18)          1 LCP_INDX(0:1400)

  ****  Section 049 LblCom COM_STRSP_LEN

  ****  Scalars and arrays  ****
OctLoc.c.b A Datatyp(siz) R M Lvl/name                 OctLoc.c.b A Datatyp(siz) R M Lvl/name

     0-0-0/w SBIN        r     1 COM_STRSP_LEN

  ****  Section 050 LblCom COM_SEARCH_STRING

  ****  Scalars and arrays  ****
OctLoc.c.b A Datatyp(siz) R M Lvl/name                 OctLoc.c.b A Datatyp(siz) R M Lvl/name

     0-0-0/w PTR         r     1 COM_SEARCH_STRING

  ****  Section 051 LblCom COM_SEARCH_STRING_LEN

  ****  Scalars and arrays  ****
OctLoc.c.b A Datatyp(siz) R M Lvl/name                 OctLoc.c.b A Datatyp(siz) R M Lvl/name

     0-0-0/w SBIN        r     1 COM_SEARCH_STRING_LEN

  ****  Section 052 LblCom COM_STRING_SPACE_LEN

PL6.E3A0      #011=OUTPUT_PATH_STRINGS File=LR_ERRPTH.:Z8A6TSI                   SAT 08/09/97 09:32 Page:332
  ****  Scalars and arrays  ****
OctLoc.c.b A Datatyp(siz) R M Lvl/name                 OctLoc.c.b A Datatyp(siz) R M Lvl/name

     0-0-0/w SBIN        r     1 COM_STRING_SPACE_LEN

  ****  Section 053 LblCom COM_STRING_SPACE_H

  ****  Scalars and arrays  ****
OctLoc.c.b A Datatyp(siz) R M Lvl/name                 OctLoc.c.b A Datatyp(siz) R M Lvl/name

     0-0-0/h SBIN(18)    r     1 COM_STRING_SPACE_H(0:24999)

  ****  Section 054 LblCom COM_STRING_SPACE$

  ****  Scalars and arrays  ****
OctLoc.c.b A Datatyp(siz) R M Lvl/name                 OctLoc.c.b A Datatyp(siz) R M Lvl/name

     0-0-0/w PTR         r     1 COM_STRING_SPACE$

  ****  Section 055 LblCom COM_STRING_PTR

  ****  Scalars and arrays  ****
OctLoc.c.b A Datatyp(siz) R M Lvl/name                 OctLoc.c.b A Datatyp(siz) R M Lvl/name

     0-0-0/w PTR         r     1 COM_STRING_PTR

  ****  Section 056 LblCom COM_STRING_INDX

  ****  Scalars and arrays  ****
OctLoc.c.b A Datatyp(siz) R M Lvl/name                 OctLoc.c.b A Datatyp(siz) R M Lvl/name

     0-0-0/w SBIN              1 COM_STRING_INDX

  ****  Section 057 LblCom LCP_TABLE_LEN

  ****  Scalars and arrays  ****
OctLoc.c.b A Datatyp(siz) R M Lvl/name                 OctLoc.c.b A Datatyp(siz) R M Lvl/name
PL6.E3A0      #011=OUTPUT_PATH_STRINGS File=LR_ERRPTH.:Z8A6TSI                   SAT 08/09/97 09:32 Page:333

     0-0-0/w SBIN              1 LCP_TABLE_LEN

  ****  Section 058 LblCom STATE_ITEM_INDEX

  ****  Scalars and arrays  ****
OctLoc.c.b A Datatyp(siz) R M Lvl/name                 OctLoc.c.b A Datatyp(siz) R M Lvl/name

     0-0-0/h STRC              1 STATE_ITEM_INDEX(0:2200)

  ****  Section 059 LblCom PATH

  ****  Scalars and arrays  ****
OctLoc.c.b A Datatyp(siz) R M Lvl/name                 OctLoc.c.b A Datatyp(siz) R M Lvl/name

     0-0-0/h STRC        r     1 PATH(0:17600)

  ****  Section 060 LblCom PATH_STRINGS_LEN

  ****  Scalars and arrays  ****
OctLoc.c.b A Datatyp(siz) R M Lvl/name                 OctLoc.c.b A Datatyp(siz) R M Lvl/name

     0-0-0/w SBIN        r     1 PATH_STRINGS_LEN

  ****  Section 061 LblCom PATH_ADDR$

  ****  Scalars and arrays  ****
OctLoc.c.b A Datatyp(siz) R M Lvl/name                 OctLoc.c.b A Datatyp(siz) R M Lvl/name

     0-0-0/w PTR         r     1 PATH_ADDR$

  ****  Section 062 LblCom PATH_TABLE_LEN

  ****  Scalars and arrays  ****
OctLoc.c.b A Datatyp(siz) R M Lvl/name                 OctLoc.c.b A Datatyp(siz) R M Lvl/name

     0-0-0/w SBIN              1 PATH_TABLE_LEN
PL6.E3A0      #011=OUTPUT_PATH_STRINGS File=LR_ERRPTH.:Z8A6TSI                   SAT 08/09/97 09:32 Page:334

  ****  Section 063 LblCom EDGECOST

  ****  Scalars and arrays  ****
OctLoc.c.b A Datatyp(siz) R M Lvl/name                 OctLoc.c.b A Datatyp(siz) R M Lvl/name

     0-0-0/w SBIN              1 EDGECOST(0:400)

  ****  Section 064 LblCom ITEM_TABLE_LEN

  ****  Scalars and arrays  ****
OctLoc.c.b A Datatyp(siz) R M Lvl/name                 OctLoc.c.b A Datatyp(siz) R M Lvl/name

     0-0-0/w SBIN              1 ITEM_TABLE_LEN

  ****  Section 065 LblCom ORDERED_ITEM

  ****  Scalars and arrays  ****
OctLoc.c.b A Datatyp(siz) R M Lvl/name                 OctLoc.c.b A Datatyp(siz) R M Lvl/name

     0-0-0/h STRC              1 ORDERED_ITEM(0:400)

  ****  Section 066 LblCom NEIGHBOR

  ****  Scalars and arrays  ****
OctLoc.c.b A Datatyp(siz) R M Lvl/name                 OctLoc.c.b A Datatyp(siz) R M Lvl/name

     0-0-0/w SBIN              1 NEIGHBOR(0:400)

  ****  Section 067 LblCom PATH_INFO

  ****  Scalars and arrays  ****
OctLoc.c.b A Datatyp(siz) R M Lvl/name                 OctLoc.c.b A Datatyp(siz) R M Lvl/name

     0-0-0/w STRC(28872)       1 PATH_INFO

  ****  Section 068 LblCom CHOSEN
PL6.E3A0      #011=OUTPUT_PATH_STRINGS File=LR_ERRPTH.:Z8A6TSI                   SAT 08/09/97 09:32 Page:335

  ****  Scalars and arrays  ****
OctLoc.c.b A Datatyp(siz) R M Lvl/name                 OctLoc.c.b A Datatyp(siz) R M Lvl/name

     0-0-0/w BIT               1 CHOSEN(0:400)

  ****  Section 069 LblCom REACHED

  ****  Scalars and arrays  ****
OctLoc.c.b A Datatyp(siz) R M Lvl/name                 OctLoc.c.b A Datatyp(siz) R M Lvl/name

     0-0-0/b BIT               1 REACHED(0:400)

  ****  Section 070 LblCom EXP_PATH_INDX

  ****  Scalars and arrays  ****
OctLoc.c.b A Datatyp(siz) R M Lvl/name                 OctLoc.c.b A Datatyp(siz) R M Lvl/name

     0-0-0/w SBIN              1 EXP_PATH_INDX

  ****  Auto variables  ****

  ****  Scalars and arrays  ****
OctLoc.c.b A Datatyp(siz) R M Lvl/name                 OctLoc.c.b A Datatyp(siz) R M Lvl/name

     3-0-0/w SBIN        r     1 I

  ****  BASED and DCB variables  ****

  ****  Scalars and arrays  ****
OctLoc.c.b A Datatyp(siz) R M Lvl/name                 OctLoc.c.b A Datatyp(siz) R M Lvl/name

     0-0-0/w STRC(72)          1 CELL                       0-0-0/c ACHR              1 COM_STRINGS
     0-0-0/c ACHR              1 COM_STRING_SPACE           0-0-0/c ACHR              1 CSEARCH_STRING
     0-0-0/w STRC(57888)       1 C_SET_B                    0-0-0/w STRC(72)          1 INCLUDES_B
     0-0-0/w STRC(144)         1 INCL_B                     0-0-0/w STRC(5436)        1 ITEM_B
     0-0-0/w STRC(5652)        1 KEY_B                      0-0-0N  NULL        r     1 M$LO
PL6.E3A0      #011=OUTPUT_PATH_STRINGS File=LR_ERRPTH.:Z8A6TSI                   SAT 08/09/97 09:32 Page:336
     0-0-0N  NULL        r     1 M$OU                       0-0-0N  NULL        r     1 M$SI
     0-0-0N  NULL        r     1 M$SO                       0-0-0N  NULL        r     1 M$UI
     0-0-0/c ACHR              1 PATH_STRINGS               0-0-0/w STRC(90)          1 PREFIX
     0-0-0/w ASTR(72)    r     1 PREFIXCHR                  0-0-0/w STRC              1 STRING
     0-0-0/w ASTR(18)    r     1 STRINGCHR                  0-0-0/w STRC(351)         1 SYMBOL


   Procedure OUTPUT_PATH_STRINGS requires 112 words for executable code.
   Procedure OUTPUT_PATH_STRINGS requires 10 words of local(AUTO) storage.

PL6.E3A0      #012=OUTPUT_PATH_SYMREFS File=LR_ERRPTH.:Z8A6TSI                   SAT 08/09/97 09:32 Page:337
      874        1        /*T***********************************************************/
      875        2        /*T*                                                         */
      876        3        /*T* Copyright (c) Bull HN Information Systems Inc., 1997    */
      877        4        /*T*                                                         */
      878        5        /*T***********************************************************/
      879        6        OUTPUT_PATH_SYMREFS : PROC;
      880        7
      881        8        /*D*
      882        9               NAME: OUTPUT_PATH_SYMREFS
      883       10            PURPOSE: OUTPUT THE MACRO CONTAINING THE TABLE DECLARATION
      884       11        */
      885       12
      886       13
      887       14        %INCLUDE LR_GRAM_EXT;
      888      553        %INCLUDE LR_CNFG_EXT;
      889      706        %INCLUDE LR_ERR_EXT;
      890      849
      891      850    1   DCL GENTYPE ENTRY(1);
      892      851    1   DCL OUTPUT_BITS ENTRY(3);
      893      852    1   DCL OUTPUT_MIN_MAX_BITS ENTRY(3);
      894      853
      895      854        %MACRO OUTPUT_MMB  (N=" " , TS=);
      896      855          DO;
      897      856            CALL OUTPUT_MIN_MAX_BITS ( N,
      898      857                                       %(LENGTHC(N)),
      899      858                                       TS);
      900      859          END;
      901      860        %MEND;
      902      861
      903      862        %MACRO OUTPUT_BITS(N=" ", V=);
      904      863          DO;
      905      864            CALL OUTPUT_BITS ( N,
      906      865                               %(LENGTHC(N)),
      907      866                               V);
      908      867          END;
      909      868        %MEND;
      910      869
PL6.E3A0      #012=OUTPUT_PATH_SYMREFS File=LR_ERRPTH.:Z8A6TSI                   SAT 08/09/97 09:32 Page:338
      911      870
      912      871        %MACRO OUTSIGN(V=ERR);
      913      872          IF TSTATS.V.SIGNED THEN
      914      873            %OUT_STR(S="'S'");
      915      874          ELSE
      916      875            %OUT_STR(S="'U'");
      917      876        %MEND;
      918      877
      919      878
      920      879
      921      880    1   CALL GENTYPE(TSTATS.SSTATE);
      922      881    1   CALL GENTYPE(TSTATS.SITEM);
      923      882    1   CALL GENTYPE(TSTATS.IINDX);
      924      883    1   CALL GENTYPE(TSTATS.ILEN);
      925      884    1   CALL GENTYPE(TSTATS.SI_BASIS);
      926      885    1   CALL GENTYPE(TSTATS.SI_CLOSURE);
      927      886    1   CALL GENTYPE(TSTATS.P_INDX);
      928      887    1   CALL GENTYPE(TSTATS.P_LEN);
      929      888    1   CALL GENTYPE(TSTATS.PATH_ELEM);
      930      889
      931      890        %SELECT_SUBS;
      932      893
      933      894        %OUTPUT_MMB(N="'SSTATE'", TS=TSTATS.SSTATE);
      934      901        %OUTPUT_MMB(N="'SITEM'", TS=TSTATS.SITEM);
      935      908        %OUTPUT_MMB(N="'IINDX'", TS=TSTATS.IINDX);
      936      915        %OUTPUT_MMB(N="'ILEN'", TS=TSTATS.ILEN);
      937      922        %OUTPUT_BITS(N="'ITEM'", V=
               922         "TSTATS.SSTATE.NBITS + TSTATS.SITEM.NBITS + TSTATS.IINDX.NBITS + TSTATS.ILEN.NBITS"
               922            );
      938      929
      939      930        %OUTLINE(S="'%MACRO START_TABLE_ITEM;'");
      940      936        %OUTLINE(S=
               936            "'DCL 1 ITEM(0:%ITEM_LEN) BIT(%BITS_ITEM) UNAL CONSTANT SYMDEF INIT(''0''B'");
      941      942        %OUTLINE(S="'%MEND;'");
      942      948
      943      949        %OUTLINE(S="'%MACRO ITEM(SS=0,SI=0,I=0,L=0);'");
      944      955        %OUTLINE(S="',%(CONCAT(BINBIT(SS,%BITS_SSTATE),BINBIT(SI,%BITS_SITEM),BINBIT(I,%BITS
PL6.E3A0      #012=OUTPUT_PATH_SYMREFS File=LR_ERRPTH.:Z8A6TSI                   SAT 08/09/97 09:32 Page:339
               955        _IINDX),BINBIT(L,%BITS_ILEN)))'");
      945      961        %OUTLINE(S="'%MEND;'");
      946      967
      947      968        %OUTLINE(S="'%MACRO END_TABLE_ITEM;'");
      948      974        %OUTLINE(S="'    );'");
      949      980        %OUTLINE(S="'%MEND;'");
      950      986
      951      987        %OUTPUT_MMB(N="'SI_BASIS'", TS=TSTATS.SI_BASIS);
      952      994        %OUTPUT_MMB(N="'SI_CLOSURE'", TS=TSTATS.SI_CLOSURE);
      953     1001        %OUTPUT_BITS(N="'STATE_ITEM'", V="TSTATS.SI_BASIS.NBITS + TSTATS.SI_CLOSURE.NBITS");
      954     1008
      955     1009        %OUTLINE(S="'%MACRO START_TABLE_STATE_ITEM;'");
      956     1015        %OUTLINE(S="'DCL 1 STATE_ITEM(0:%STATE_ITEM_LEN) BIT(%BITS_STATE_ITEM) UNAL CONSTANT
              1015         SYMDEF INIT(''0''B'");
      957     1021        %OUTLINE(S="'%MEND;'");
      958     1027
      959     1028        %OUTLINE(S="'%MACRO STINDX(B=0,C=0);'");
      960     1034        %OUTLINE(S="',%(CONCAT(BINBIT(B,%BITS_SI_BASIS),BINBIT(C,%BITS_SI_CLOSURE)))'");
      961     1040        %OUTLINE(S="'%MEND;'");
      962     1046
      963     1047        %OUTLINE(S="'%MACRO END_TABLE_STATE_ITEM;'");
      964     1053        %OUTLINE(S="'    );'");
      965     1059        %OUTLINE(S="'%MEND;'");
      966     1065
      967     1066        %OUTPUT_MMB(N="'P_INDX'", TS=TSTATS.P_INDX);
      968     1073        %OUTPUT_MMB(N="'P_LEN'",  TS=TSTATS.P_LEN);
      969     1080        %OUTPUT_BITS(N="'PATH'", V="TSTATS.P_INDX.NBITS + TSTATS.P_LEN.NBITS");
      970     1087
      971     1088        %OUTLINE(S="'%MACRO START_TABLE_PATH;'");
      972     1094        %OUTLINE(S=
              1094            "'DCL  PATH(0:%PATH_LEN) BIT(%BITS_PATH) UNAL CONSTANT SYMDEF INIT(''0''B'");
      973     1100        %OUTLINE(S="'%MEND;'");
      974     1106
      975     1107        %OUTLINE(S="'%MACRO PATH(I=0,L=0);'");
      976     1113        %OUTLINE(S="',%(CONCAT(BINBIT(I,%BITS_P_INDX),BINBIT(L,%BITS_P_LEN)))'");
      977     1119        %OUTLINE(S="'%MEND;'");
      978     1125
PL6.E3A0      #012=OUTPUT_PATH_SYMREFS File=LR_ERRPTH.:Z8A6TSI                   SAT 08/09/97 09:32 Page:340
      979     1126        %OUTLINE(S="'%MACRO END_TABLE_PATH;'");
      980     1132        %OUTLINE(S="'    );'");
      981     1138        %OUTLINE(S="'%MEND;'");
      982     1144
      983     1145        %OUTPUT_MMB(N="'PATH_ELEM'", TS=TSTATS.PATH_ELEM);
      984     1152
      985     1153        %OUTLINE(S="'%MACRO START_TABLE_PATH_ELEM;'");
      986     1159        %OUTLINE(S="'DCL PATH_ELEM(0:%PATH_ELEM_LEN) UBIN(%BITS_PATH_ELEM) UNAL CONSTANT SYM
              1159        DEF INIT(0'");
      987     1165        %OUTLINE(S="'%MEND;'");
      988     1171
      989     1172        %OUTLINE(S="'%MACRO PATHE(E=0);'");
      990     1178        %OUTLINE(S="',E'");
      991     1184        %OUTLINE(S="'%MEND;'");
      992     1190
      993     1191        %OUTLINE(S="'%MACRO END_TABLE_PATH_ELEM;'");
      994     1197        %OUTLINE(S="'    );'");
      995     1203        %OUTLINE(S="'%MEND;'");
      996     1209
      997     1210        %OUTLINE(S="'%MACRO ERROR_PATH_SYMREFS;'");
      998     1216        %OUTLINE(S="'DCL 1 ITEM(0:%ITEM_LEN) UNAL SYMREF READONLY,'");
      999     1222        %OUT_STR(S="'      2 SUCC_STATE '");
     1000     1225        %OUTSIGN(V=SSTATE);
     1001     1235        %OUTLINE(S="'BIN(%BITS_SSTATE) UNAL,'");
     1002     1241        %OUT_STR(S="'      2 SUCC_ITEM '");
     1003     1244        %OUTSIGN(V=SITEM);
     1004     1254        %OUTLINE(S="'BIN(%BITS_SITEM) UNAL,'");
     1005     1260        %OUT_STR(S="'      2 INDX '");
     1006     1263        %OUTSIGN(V=IINDX);
     1007     1273        %OUTLINE(S="'BIN(%BITS_IINDX) UNAL,'");
     1008     1279        %OUT_STR(S="'      2 LEN '");
     1009     1282        %OUTSIGN(V=ILEN);
     1010     1292        %OUTLINE(S="'BIN(%BITS_ILEN) UNAL;'");
     1011     1298        %OUTLINE(S="'DCL 1 STATE_ITEM(0:%STATE_ITEM_LEN) UNAL SYMREF READONLY,'");
     1012     1304        %OUT_STR(S="'      2 BASIS '");
     1013     1307        %OUTSIGN(V=SI_BASIS);
     1014     1317        %OUTLINE(S="'BIN(%BITS_SI_BASIS) UNAL,'");
PL6.E3A0      #012=OUTPUT_PATH_SYMREFS File=LR_ERRPTH.:Z8A6TSI                   SAT 08/09/97 09:32 Page:341
     1015     1323        %OUT_STR(S="'      2 CLOSURE '");
     1016     1326        %OUTSIGN(V=SI_CLOSURE);
     1017     1336        %OUTLINE(S="'BIN(%BITS_SI_CLOSURE) UNAL;'");
     1018     1342        %OUTLINE(S="'DCL 1 PATH(0:%PATH_LEN) UNAL SYMREF READONLY,'");
     1019     1348        %OUT_STR(S="'      2 INDX '");
     1020     1351        %OUTSIGN(V=P_INDX);
     1021     1361        %OUTLINE(S="'BIN(%BITS_P_INDX) UNAL,'");
     1022     1367        %OUT_STR(S="'      2 LEN '");
     1023     1370        %OUTSIGN(V=P_LEN);
     1024     1380        %OUTLINE(S="'BIN(%BITS_P_LEN) UNAL;'");
     1025     1386        %OUT_STR(S="'DCL PATH_ELEM(0:%PATH_ELEM_LEN) '");
     1026     1389        %OUTSIGN(V=PATH_ELEM);
     1027     1399        %OUTLINE(S="'BIN(%BITS_PATH_ELEM) UNAL SYMREF READONLY;'");
     1028     1405        %OUTLINE(S="'%MEND;'");
     1029     1411
     1030     1412    1   END OUTPUT_PATH_SYMREFS;

PL6.E3A0      #012=OUTPUT_PATH_SYMREFS File=LR_ERRPTH.:Z8A6TSI                   SAT 08/09/97 09:32 Page:342
--  Include file information  --

   LR_ERR_EXT.:Z8A6TOU  cannot be made into a system file and is referenced.
   LR_CNFG_EXT.:Z8A6TOU  cannot be made into a system file and is referenced.
   LR_IO_EXT.:Z8A6TOU  cannot be made into a system file and is referenced.
   LR_GRAM_EXT.:Z8A6TOU  cannot be made into a system file and is referenced.
      No diagnostics issued in procedure OUTPUT_PATH_SYMREFS.

   Procedure OUTPUT_PATH_SYMREFS requires 603 words for executable code.
   Procedure OUTPUT_PATH_SYMREFS requires 8 words of local(AUTO) storage.

    No errors detected in file LR_ERRPTH.:Z8A6TSI    .

PL6.E3A0      #012=OUTPUT_PATH_SYMREFS File=LR_ERRPTH.:Z8A6TSI                   SAT 08/09/97 09:32 Page:343

 Object Unit name= OUTPUT_PATH_SYMREFS                        File name= LR_ERRPTH.:Z8A6TOU
 UTS= AUG 09 '97 09:32:28.28 SAT                              Compiler= PL-6/E31         Sev=      00
 SharedLib= :SHARED_SYSTEM                                    Alt SharedLib=


    ****  Control sections  ****

 Sect   Type Bound  Init  Size OctSiz  Section name(segment info)
    0  LblCom even  none     1      1  OUT_DCBN
    1   DCB   even  none     0      0  M$OU
    2   DCB   even  none     0      0  M$SO
    3   DCB   even  none     0      0  M$LO
    4   DCB   even  none     0      0  M$SI
    5   DCB   even  none     0      0  M$UI
    6  LblCom even  none  1401   2571  SYM_PTRS
    7  LblCom even  none  4001   7641  RIGHT_PARTS
    8  LblCom even  none  3002   5672  PROD
    9  LblCom even  none     1      1  NR_PROD
   10  LblCom even  none     1      1  NR_SYMS
   11  LblCom even  none     1      1  NR_TERM
   12  LblCom even  none     1      1  LAST_ACT
   13  LblCom even  none     1      1  LAST_NULL
   14  LblCom even  none     1      1  NR_ONRIGHT
   15  LblCom even  none     1      1  NR_NT
   16  LblCom even  none     1      1  PROD_LEN_MAX_EVER
   17  LblCom even  none     1      1  LAST_ORDER_SPECIFIED
   18  LblCom even  none     1      1  SEMANTIC_ORDERING
   19  LblCom even  none     1      1  ERR_SEV
   20  LblCom even  none     1      1  SET_LENGTHB
   21  LblCom even  none     1      1  SET_LENGTHW
   22  LblCom even  none     1      1  EOF_SYMBOL_PTR
   23  LblCom even  none     1      1  ERROR_SYMBOL_PTR
   24  LblCom even  none     1      1  BOF_SYMBOL_PTR
   25  LblCom even  none     1      1  OPTIONS
   26  LblCom even  none    26     32  OPTIONS_TEXT
   27  LblCom even  none   128    200  INSTR
   28  LblCom even  none     1      1  INSTR_LISTED
PL6.E3A0      #012=OUTPUT_PATH_SYMREFS File=LR_ERRPTH.:Z8A6TSI                   SAT 08/09/97 09:32 Page:344
   29  LblCom even  none     1      1  INSTR_LEN
   30  LblCom even  none     1      1  INSTR_INDX
   31  LblCom even  none     1      1  EOF_FLAG
   32  LblCom even  none     3      3  KEY_REC
   33  LblCom even  none    28     34  LINE
   34  LblCom even  none     1      1  LINELEN
   35  LblCom even  none   205    315  TSTATS
   36  LblCom even  none  2201   4231  C#_TO_$
   37  LblCom even  none     1      1  NR_CONFIG
   38  LblCom even  none     1      1  INIT_CONFIG
   39  LblCom even  none     1      1  MAX_BASIS_ITEMS
   40  LblCom even  none     1      1  MAX_TOTAL_ITEMS
   41  LblCom even  none     1      1  LAST_BINSRCH_ONLY
   42  LblCom even  none     1      1  LAST_BOTH_BITBIN
   43  LblCom even  none   101    145  GARBAGE
   44  LblCom even  none     1      1  AMT_GARBAGE
   45  LblCom even  none  1401   2571  LEAST_COST_STRING
   46  LblCom even  none  1401   2571  LEAST_COST_PREFIX
   47  LblCom even  none  5604  12744  CURRE
   48  LblCom even  none   701   1275  LCP_INDX
   49  LblCom even  none     1      1  COM_STRSP_LEN
   50  LblCom even  none     1      1  COM_SEARCH_STRING
   51  LblCom even  none     1      1  COM_SEARCH_STRING_LEN
   52  LblCom even  none     1      1  COM_STRING_SPACE_LEN
   53  LblCom even  none 12500  30324  COM_STRING_SPACE_H
   54  LblCom even  none     1      1  COM_STRING_SPACE$
   55  LblCom even  none     1      1  COM_STRING_PTR
   56  LblCom even  none     1      1  COM_STRING_INDX
   57  LblCom even  none     1      1  LCP_TABLE_LEN
   58  LblCom even  none  2201   4231  STATE_ITEM_INDEX
   59  LblCom even  none 17601  42301  PATH
   60  LblCom even  none     1      1  PATH_STRINGS_LEN
   61  LblCom even  none     1      1  PATH_ADDR$
   62  LblCom even  none     1      1  PATH_TABLE_LEN
   63  LblCom even  none   401    621  EDGECOST
   64  LblCom even  none     1      1  ITEM_TABLE_LEN
   65  LblCom even  none   401    621  ORDERED_ITEM
PL6.E3A0      #012=OUTPUT_PATH_SYMREFS File=LR_ERRPTH.:Z8A6TSI                   SAT 08/09/97 09:32 Page:345
   66  LblCom even  none   401    621  NEIGHBOR
   67  LblCom even  none   802   1442  PATH_INFO
   68  LblCom even  none   401    621  CHOSEN
   69  LblCom even  none    12     14  REACHED
   70  LblCom even  none     1      1  EXP_PATH_INDX
   71  RoData even  UTS    379    573  OUTPUT_PATH_SYMREFS
   72   Proc  even  none   603   1133  OUTPUT_PATH_SYMREFS
   73  RoData even  none   173    255  OUTPUT_PATH_SYMREFS

    ****  Entry defs  ****

                              Check   Calling
                             calling  sequence
  Sect OctLoc Primary Altret sequence   type   Parms  Name
    72      0   yes            yes      Std        0  OUTPUT_PATH_SYMREFS

  ****  Entry refs  ****

         Check        Calling
        calling       sequence
Altret sequence SRef   type   Args  Name
         yes           Std       1 GENTYPE
         yes           Std       3 OUTPUT_MIN_MAX_BITS
         yes           Std       3 OUTPUT_BITS
         yes           Std       2 OUT_STR
         yes           Std       0 FLUSH
                       nStd      0 X66_AUTO_0
                       nStd      0 X66_ARET

  ****  Data refs  ****

  Flags:  r = read only, s = secondary
Flgs Name                             Flgs Name                             Flgs Name
     M$OU                                  M$SO                                  M$LO
     M$SI                                  M$UI
PL6.E3A0      #012=OUTPUT_PATH_SYMREFS File=LR_ERRPTH.:Z8A6TSI                   SAT 08/09/97 09:32 Page:346

  ****  Segment refs  ****

  Flags:  r = read only, s = secondary
Flgs Name                             Flgs Name                             Flgs Name
     NULLSID                               ISSID
PL6.E3A0      #012=OUTPUT_PATH_SYMREFS File=LR_ERRPTH.:Z8A6TSI                   SAT 08/09/97 09:32 Page:347


      874        1        /*T***********************************************************/
      875        2        /*T*                                                         */
      876        3        /*T* Copyright (c) Bull HN Information Systems Inc., 1997    */
      877        4        /*T*                                                         */
      878        5        /*T***********************************************************/
      879        6        OUTPUT_PATH_SYMREFS : PROC;

      6 72 000000   000000 700200 xent  OUTPUT_PATH* TSX0  ! X66_AUTO_0
        72 000001   000010 000000                    ZERO    8,0

      880        7
      881        8        /*D*
      882        9               NAME: OUTPUT_PATH_SYMREFS
      883       10            PURPOSE: OUTPUT THE MACRO CONTAINING THE TABLE DECLARATION
      884       11        */
      885       12
      886       13
      887       14        %INCLUDE LR_GRAM_EXT;
      888      553        %INCLUDE LR_CNFG_EXT;
      889      706        %INCLUDE LR_ERR_EXT;
      890      849
      891      850    1   DCL GENTYPE ENTRY(1);
      892      851    1   DCL OUTPUT_BITS ENTRY(3);
      893      852    1   DCL OUTPUT_MIN_MAX_BITS ENTRY(3);
      894      853
      895      854        %MACRO OUTPUT_MMB  (N=" " , TS=);
      896      855          DO;
      897      856            CALL OUTPUT_MIN_MAX_BITS ( N,
      898      857                                       %(LENGTHC(N)),
      899      858                                       TS);
      900      859          END;
      901      860        %MEND;
      902      861
      903      862        %MACRO OUTPUT_BITS(N=" ", V=);
      904      863          DO;
      905      864            CALL OUTPUT_BITS ( N,
PL6.E3A0      #012=OUTPUT_PATH_SYMREFS File=LR_ERRPTH.:Z8A6TSI                   SAT 08/09/97 09:32 Page:348
      906      865                               %(LENGTHC(N)),
      907      866                               V);
      908      867          END;
      909      868        %MEND;
      910      869
      911      870
      912      871        %MACRO OUTSIGN(V=ERR);
      913      872          IF TSTATS.V.SIGNED THEN
      914      873            %OUT_STR(S="'S'");
      915      874          ELSE
      916      875            %OUT_STR(S="'U'");
      917      876        %MEND;
      918      877
      919      878
      920      879
      921      880    1   CALL GENTYPE(TSTATS.SSTATE);

    880 72 000002   000001 630400 73                 EPPR0   1
        72 000003   000000 631400 73                 EPPR1   0
        72 000004   000000 701000 xent               TSX1    GENTYPE
        72 000005   000000 011000                    NOP     0

      922      881    1   CALL GENTYPE(TSTATS.SITEM);

    881 72 000006   000002 630400 73                 EPPR0   2
        72 000007   000000 631400 73                 EPPR1   0
        72 000010   000000 701000 xent               TSX1    GENTYPE
        72 000011   000000 011000                    NOP     0

      923      882    1   CALL GENTYPE(TSTATS.IINDX);

    882 72 000012   000003 630400 73                 EPPR0   3
        72 000013   000000 631400 73                 EPPR1   0
        72 000014   000000 701000 xent               TSX1    GENTYPE
        72 000015   000000 011000                    NOP     0

      924      883    1   CALL GENTYPE(TSTATS.ILEN);
PL6.E3A0      #012=OUTPUT_PATH_SYMREFS File=LR_ERRPTH.:Z8A6TSI                   SAT 08/09/97 09:32 Page:349

    883 72 000016   000004 630400 73                 EPPR0   4
        72 000017   000000 631400 73                 EPPR1   0
        72 000020   000000 701000 xent               TSX1    GENTYPE
        72 000021   000000 011000                    NOP     0

      925      884    1   CALL GENTYPE(TSTATS.SI_BASIS);

    884 72 000022   000005 630400 73                 EPPR0   5
        72 000023   000000 631400 73                 EPPR1   0
        72 000024   000000 701000 xent               TSX1    GENTYPE
        72 000025   000000 011000                    NOP     0

      926      885    1   CALL GENTYPE(TSTATS.SI_CLOSURE);

    885 72 000026   000006 630400 73                 EPPR0   6
        72 000027   000000 631400 73                 EPPR1   0
        72 000030   000000 701000 xent               TSX1    GENTYPE
        72 000031   000000 011000                    NOP     0

      927      886    1   CALL GENTYPE(TSTATS.P_INDX);

    886 72 000032   000007 630400 73                 EPPR0   7
        72 000033   000000 631400 73                 EPPR1   0
        72 000034   000000 701000 xent               TSX1    GENTYPE
        72 000035   000000 011000                    NOP     0

      928      887    1   CALL GENTYPE(TSTATS.P_LEN);

    887 72 000036   000010 630400 73                 EPPR0   8
        72 000037   000000 631400 73                 EPPR1   0
        72 000040   000000 701000 xent               TSX1    GENTYPE
        72 000041   000000 011000                    NOP     0

      929      888    1   CALL GENTYPE(TSTATS.PATH_ELEM);

    888 72 000042   000011 630400 73                 EPPR0   9
PL6.E3A0      #012=OUTPUT_PATH_SYMREFS File=LR_ERRPTH.:Z8A6TSI                   SAT 08/09/97 09:32 Page:350
        72 000043   000000 631400 73                 EPPR1   0
        72 000044   000000 701000 xent               TSX1    GENTYPE
        72 000045   000000 011000                    NOP     0

      930      889
      931      890        %SELECT_SUBS;

    891 72 000046   000000 236007 xsym               LDQ     M$SO,DL
        72 000047   000000 756000 0                  STQ     OUT_DCBN

      932      893
      933      894        %OUTPUT_MMB(N="'SSTATE'", TS=TSTATS.SSTATE);

    896 72 000050   000014 630400 73                 EPPR0   12
        72 000051   000012 631400 73                 EPPR1   10
        72 000052   000000 701000 xent               TSX1    OUTPUT_MIN_MAX_BITS
        72 000053   000000 011000                    NOP     0

      934      901        %OUTPUT_MMB(N="'SITEM'", TS=TSTATS.SITEM);

    903 72 000054   000020 630400 73                 EPPR0   16
        72 000055   000012 631400 73                 EPPR1   10
        72 000056   000000 701000 xent               TSX1    OUTPUT_MIN_MAX_BITS
        72 000057   000000 011000                    NOP     0

      935      908        %OUTPUT_MMB(N="'IINDX'", TS=TSTATS.IINDX);

    910 72 000060   000023 630400 73                 EPPR0   19
        72 000061   000012 631400 73                 EPPR1   10
        72 000062   000000 701000 xent               TSX1    OUTPUT_MIN_MAX_BITS
        72 000063   000000 011000                    NOP     0

      936      915        %OUTPUT_MMB(N="'ILEN'", TS=TSTATS.ILEN);

    917 72 000064   000027 630400 73                 EPPR0   23
        72 000065   000012 631400 73                 EPPR1   10
        72 000066   000000 701000 xent               TSX1    OUTPUT_MIN_MAX_BITS
PL6.E3A0      #012=OUTPUT_PATH_SYMREFS File=LR_ERRPTH.:Z8A6TSI                   SAT 08/09/97 09:32 Page:351
        72 000067   000000 011000                    NOP     0

      937      922        %OUTPUT_BITS(N="'ITEM'", V=
               922        "TSTATS.SSTATE.NBITS + TSTATS.SITEM.NBITS + TSTATS.IINDX.NBITS + TSTATS.ILEN.NBITS"
               922            );

    924 72 000070   000107 236000 35                 LDQ     TSTATS+71
        72 000071   000115 036000 35                 ADLQ    TSTATS+77
        72 000072   000123 036000 35                 ADLQ    TSTATS+83
        72 000073   000131 036000 35                 ADLQ    TSTATS+89
        72 000074   200004 756100                    STQ     4,,AUTO
        72 000075   200004 630500                    EPPR0   4,,AUTO
        72 000076   200007 450500                    STP0    7,,AUTO
        72 000077   000030 236000 73                 LDQ     24
        72 000100   200006 756100                    STQ     6,,AUTO
        72 000101   000032 236000 73                 LDQ     26
        72 000102   200005 756100                    STQ     5,,AUTO
        72 000103   200005 630500                    EPPR0   5,,AUTO
        72 000104   000012 631400 73                 EPPR1   10
        72 000105   000000 701000 xent               TSX1    OUTPUT_BITS
        72 000106   000000 011000                    NOP     0

      938      929
      939      930        %OUTLINE(S="'%MACRO START_TABLE_ITEM;'");

    932 72 000107   000035 630400 73                 EPPR0   29
        72 000110   000033 631400 73                 EPPR1   27
        72 000111   000000 701000 xent               TSX1    OUT_STR
        72 000112   000000 011000                    NOP     0

    933 72 000113   000037 631400 73                 EPPR1   31
        72 000114   000000 701000 xent               TSX1    FLUSH
        72 000115   000000 011000                    NOP     0

      940      936        %OUTLINE(S=
               936            "'DCL 1 ITEM(0:%ITEM_LEN) BIT(%BITS_ITEM) UNAL CONSTANT SYMDEF INIT(''0''B'");

PL6.E3A0      #012=OUTPUT_PATH_SYMREFS File=LR_ERRPTH.:Z8A6TSI                   SAT 08/09/97 09:32 Page:352
    938 72 000116   000041 630400 73                 EPPR0   33
        72 000117   000033 631400 73                 EPPR1   27
        72 000120   000000 701000 xent               TSX1    OUT_STR
        72 000121   000000 011000                    NOP     0

    939 72 000122   000037 631400 73                 EPPR1   31
        72 000123   000000 701000 xent               TSX1    FLUSH
        72 000124   000000 011000                    NOP     0

      941      942        %OUTLINE(S="'%MEND;'");

    944 72 000125   000043 630400 73                 EPPR0   35
        72 000126   000033 631400 73                 EPPR1   27
        72 000127   000000 701000 xent               TSX1    OUT_STR
        72 000130   000000 011000                    NOP     0

    945 72 000131   000037 631400 73                 EPPR1   31
        72 000132   000000 701000 xent               TSX1    FLUSH
        72 000133   000000 011000                    NOP     0

      942      948
      943      949        %OUTLINE(S="'%MACRO ITEM(SS=0,SI=0,I=0,L=0);'");

    951 72 000134   000046 630400 73                 EPPR0   38
        72 000135   000033 631400 73                 EPPR1   27
        72 000136   000000 701000 xent               TSX1    OUT_STR
        72 000137   000000 011000                    NOP     0

    952 72 000140   000037 631400 73                 EPPR1   31
        72 000141   000000 701000 xent               TSX1    FLUSH
        72 000142   000000 011000                    NOP     0

      944      955       %OUTLINE(S="',%(CONCAT(BINBIT(SS,%BITS_SSTATE),BINBIT(SI,%BITS_SITEM),BINBIT(I,%BITS
               955        _IINDX),BINBIT(L,%BITS_ILEN)))'");

    957 72 000143   000051 630400 73                 EPPR0   41
        72 000144   000033 631400 73                 EPPR1   27
PL6.E3A0      #012=OUTPUT_PATH_SYMREFS File=LR_ERRPTH.:Z8A6TSI                   SAT 08/09/97 09:32 Page:353
        72 000145   000000 701000 xent               TSX1    OUT_STR
        72 000146   000000 011000                    NOP     0

    958 72 000147   000037 631400 73                 EPPR1   31
        72 000150   000000 701000 xent               TSX1    FLUSH
        72 000151   000000 011000                    NOP     0

      945      961        %OUTLINE(S="'%MEND;'");

    963 72 000152   000043 630400 73                 EPPR0   35
        72 000153   000033 631400 73                 EPPR1   27
        72 000154   000000 701000 xent               TSX1    OUT_STR
        72 000155   000000 011000                    NOP     0

    964 72 000156   000037 631400 73                 EPPR1   31
        72 000157   000000 701000 xent               TSX1    FLUSH
        72 000160   000000 011000                    NOP     0

      946      967
      947      968        %OUTLINE(S="'%MACRO END_TABLE_ITEM;'");

    970 72 000161   000054 630400 73                 EPPR0   44
        72 000162   000033 631400 73                 EPPR1   27
        72 000163   000000 701000 xent               TSX1    OUT_STR
        72 000164   000000 011000                    NOP     0

    971 72 000165   000037 631400 73                 EPPR1   31
        72 000166   000000 701000 xent               TSX1    FLUSH
        72 000167   000000 011000                    NOP     0

      948      974        %OUTLINE(S="'    );'");

    976 72 000170   000056 630400 73                 EPPR0   46
        72 000171   000033 631400 73                 EPPR1   27
        72 000172   000000 701000 xent               TSX1    OUT_STR
        72 000173   000000 011000                    NOP     0

PL6.E3A0      #012=OUTPUT_PATH_SYMREFS File=LR_ERRPTH.:Z8A6TSI                   SAT 08/09/97 09:32 Page:354
    977 72 000174   000037 631400 73                 EPPR1   31
        72 000175   000000 701000 xent               TSX1    FLUSH
        72 000176   000000 011000                    NOP     0

      949      980        %OUTLINE(S="'%MEND;'");

    982 72 000177   000043 630400 73                 EPPR0   35
        72 000200   000033 631400 73                 EPPR1   27
        72 000201   000000 701000 xent               TSX1    OUT_STR
        72 000202   000000 011000                    NOP     0

    983 72 000203   000037 631400 73                 EPPR1   31
        72 000204   000000 701000 xent               TSX1    FLUSH
        72 000205   000000 011000                    NOP     0

      950      986
      951      987        %OUTPUT_MMB(N="'SI_BASIS'", TS=TSTATS.SI_BASIS);

    989 72 000206   000061 630400 73                 EPPR0   49
        72 000207   000012 631400 73                 EPPR1   10
        72 000210   000000 701000 xent               TSX1    OUTPUT_MIN_MAX_BITS
        72 000211   000000 011000                    NOP     0

      952      994        %OUTPUT_MMB(N="'SI_CLOSURE'", TS=TSTATS.SI_CLOSURE);

    996 72 000212   000065 630400 73                 EPPR0   53
        72 000213   000012 631400 73                 EPPR1   10
        72 000214   000000 701000 xent               TSX1    OUTPUT_MIN_MAX_BITS
        72 000215   000000 011000                    NOP     0

      953     1001       %OUTPUT_BITS(N="'STATE_ITEM'", V="TSTATS.SI_BASIS.NBITS + TSTATS.SI_CLOSURE.NBITS");

   1003 72 000216   000137 236000 35                 LDQ     TSTATS+95
        72 000217   000145 036000 35                 ADLQ    TSTATS+101
        72 000220   200004 756100                    STQ     4,,AUTO
        72 000221   200004 630500                    EPPR0   4,,AUTO
        72 000222   200007 450500                    STP0    7,,AUTO
PL6.E3A0      #012=OUTPUT_PATH_SYMREFS File=LR_ERRPTH.:Z8A6TSI                   SAT 08/09/97 09:32 Page:355
        72 000223   000066 236000 73                 LDQ     54
        72 000224   200006 756100                    STQ     6,,AUTO
        72 000225   000070 236000 73                 LDQ     56
        72 000226   200005 756100                    STQ     5,,AUTO
        72 000227   200005 630500                    EPPR0   5,,AUTO
        72 000230   000012 631400 73                 EPPR1   10
        72 000231   000000 701000 xent               TSX1    OUTPUT_BITS
        72 000232   000000 011000                    NOP     0

      954     1008
      955     1009        %OUTLINE(S="'%MACRO START_TABLE_STATE_ITEM;'");

   1011 72 000233   000072 630400 73                 EPPR0   58
        72 000234   000033 631400 73                 EPPR1   27
        72 000235   000000 701000 xent               TSX1    OUT_STR
        72 000236   000000 011000                    NOP     0

   1012 72 000237   000037 631400 73                 EPPR1   31
        72 000240   000000 701000 xent               TSX1    FLUSH
        72 000241   000000 011000                    NOP     0

      956     1015       %OUTLINE(S="'DCL 1 STATE_ITEM(0:%STATE_ITEM_LEN) BIT(%BITS_STATE_ITEM) UNAL CONSTANT
              1015         SYMDEF INIT(''0''B'");

   1017 72 000242   000075 630400 73                 EPPR0   61
        72 000243   000033 631400 73                 EPPR1   27
        72 000244   000000 701000 xent               TSX1    OUT_STR
        72 000245   000000 011000                    NOP     0

   1018 72 000246   000037 631400 73                 EPPR1   31
        72 000247   000000 701000 xent               TSX1    FLUSH
        72 000250   000000 011000                    NOP     0

      957     1021        %OUTLINE(S="'%MEND;'");

   1023 72 000251   000043 630400 73                 EPPR0   35
        72 000252   000033 631400 73                 EPPR1   27
PL6.E3A0      #012=OUTPUT_PATH_SYMREFS File=LR_ERRPTH.:Z8A6TSI                   SAT 08/09/97 09:32 Page:356
        72 000253   000000 701000 xent               TSX1    OUT_STR
        72 000254   000000 011000                    NOP     0

   1024 72 000255   000037 631400 73                 EPPR1   31
        72 000256   000000 701000 xent               TSX1    FLUSH
        72 000257   000000 011000                    NOP     0

      958     1027
      959     1028        %OUTLINE(S="'%MACRO STINDX(B=0,C=0);'");

   1030 72 000260   000100 630400 73                 EPPR0   64
        72 000261   000033 631400 73                 EPPR1   27
        72 000262   000000 701000 xent               TSX1    OUT_STR
        72 000263   000000 011000                    NOP     0

   1031 72 000264   000037 631400 73                 EPPR1   31
        72 000265   000000 701000 xent               TSX1    FLUSH
        72 000266   000000 011000                    NOP     0

      960     1034        %OUTLINE(S="',%(CONCAT(BINBIT(B,%BITS_SI_BASIS),BINBIT(C,%BITS_SI_CLOSURE)))'");

   1036 72 000267   000103 630400 73                 EPPR0   67
        72 000270   000033 631400 73                 EPPR1   27
        72 000271   000000 701000 xent               TSX1    OUT_STR
        72 000272   000000 011000                    NOP     0

   1037 72 000273   000037 631400 73                 EPPR1   31
        72 000274   000000 701000 xent               TSX1    FLUSH
        72 000275   000000 011000                    NOP     0

      961     1040        %OUTLINE(S="'%MEND;'");

   1042 72 000276   000043 630400 73                 EPPR0   35
        72 000277   000033 631400 73                 EPPR1   27
        72 000300   000000 701000 xent               TSX1    OUT_STR
        72 000301   000000 011000                    NOP     0

PL6.E3A0      #012=OUTPUT_PATH_SYMREFS File=LR_ERRPTH.:Z8A6TSI                   SAT 08/09/97 09:32 Page:357
   1043 72 000302   000037 631400 73                 EPPR1   31
        72 000303   000000 701000 xent               TSX1    FLUSH
        72 000304   000000 011000                    NOP     0

      962     1046
      963     1047        %OUTLINE(S="'%MACRO END_TABLE_STATE_ITEM;'");

   1049 72 000305   000106 630400 73                 EPPR0   70
        72 000306   000033 631400 73                 EPPR1   27
        72 000307   000000 701000 xent               TSX1    OUT_STR
        72 000310   000000 011000                    NOP     0

   1050 72 000311   000037 631400 73                 EPPR1   31
        72 000312   000000 701000 xent               TSX1    FLUSH
        72 000313   000000 011000                    NOP     0

      964     1053        %OUTLINE(S="'    );'");

   1055 72 000314   000056 630400 73                 EPPR0   46
        72 000315   000033 631400 73                 EPPR1   27
        72 000316   000000 701000 xent               TSX1    OUT_STR
        72 000317   000000 011000                    NOP     0

   1056 72 000320   000037 631400 73                 EPPR1   31
        72 000321   000000 701000 xent               TSX1    FLUSH
        72 000322   000000 011000                    NOP     0

      965     1059        %OUTLINE(S="'%MEND;'");

   1061 72 000323   000043 630400 73                 EPPR0   35
        72 000324   000033 631400 73                 EPPR1   27
        72 000325   000000 701000 xent               TSX1    OUT_STR
        72 000326   000000 011000                    NOP     0

   1062 72 000327   000037 631400 73                 EPPR1   31
        72 000330   000000 701000 xent               TSX1    FLUSH
        72 000331   000000 011000                    NOP     0
PL6.E3A0      #012=OUTPUT_PATH_SYMREFS File=LR_ERRPTH.:Z8A6TSI                   SAT 08/09/97 09:32 Page:358

      966     1065
      967     1066        %OUTPUT_MMB(N="'P_INDX'", TS=TSTATS.P_INDX);

   1068 72 000332   000110 630400 73                 EPPR0   72
        72 000333   000012 631400 73                 EPPR1   10
        72 000334   000000 701000 xent               TSX1    OUTPUT_MIN_MAX_BITS
        72 000335   000000 011000                    NOP     0

      968     1073        %OUTPUT_MMB(N="'P_LEN'",  TS=TSTATS.P_LEN);

   1075 72 000336   000113 630400 73                 EPPR0   75
        72 000337   000012 631400 73                 EPPR1   10
        72 000340   000000 701000 xent               TSX1    OUTPUT_MIN_MAX_BITS
        72 000341   000000 011000                    NOP     0

      969     1080        %OUTPUT_BITS(N="'PATH'", V="TSTATS.P_INDX.NBITS + TSTATS.P_LEN.NBITS");

   1082 72 000342   000153 236000 35                 LDQ     TSTATS+107
        72 000343   000161 036000 35                 ADLQ    TSTATS+113
        72 000344   200004 756100                    STQ     4,,AUTO
        72 000345   200004 630500                    EPPR0   4,,AUTO
        72 000346   200007 450500                    STP0    7,,AUTO
        72 000347   000030 236000 73                 LDQ     24
        72 000350   200006 756100                    STQ     6,,AUTO
        72 000351   000116 236000 73                 LDQ     78
        72 000352   200005 756100                    STQ     5,,AUTO
        72 000353   200005 630500                    EPPR0   5,,AUTO
        72 000354   000012 631400 73                 EPPR1   10
        72 000355   000000 701000 xent               TSX1    OUTPUT_BITS
        72 000356   000000 011000                    NOP     0

      970     1087
      971     1088        %OUTLINE(S="'%MACRO START_TABLE_PATH;'");

   1090 72 000357   000117 630400 73                 EPPR0   79
        72 000360   000033 631400 73                 EPPR1   27
PL6.E3A0      #012=OUTPUT_PATH_SYMREFS File=LR_ERRPTH.:Z8A6TSI                   SAT 08/09/97 09:32 Page:359
        72 000361   000000 701000 xent               TSX1    OUT_STR
        72 000362   000000 011000                    NOP     0

   1091 72 000363   000037 631400 73                 EPPR1   31
        72 000364   000000 701000 xent               TSX1    FLUSH
        72 000365   000000 011000                    NOP     0

      972     1094        %OUTLINE(S=
              1094            "'DCL  PATH(0:%PATH_LEN) BIT(%BITS_PATH) UNAL CONSTANT SYMDEF INIT(''0''B'");

   1096 72 000366   000122 630400 73                 EPPR0   82
        72 000367   000033 631400 73                 EPPR1   27
        72 000370   000000 701000 xent               TSX1    OUT_STR
        72 000371   000000 011000                    NOP     0

   1097 72 000372   000037 631400 73                 EPPR1   31
        72 000373   000000 701000 xent               TSX1    FLUSH
        72 000374   000000 011000                    NOP     0

      973     1100        %OUTLINE(S="'%MEND;'");

   1102 72 000375   000043 630400 73                 EPPR0   35
        72 000376   000033 631400 73                 EPPR1   27
        72 000377   000000 701000 xent               TSX1    OUT_STR
        72 000400   000000 011000                    NOP     0

   1103 72 000401   000037 631400 73                 EPPR1   31
        72 000402   000000 701000 xent               TSX1    FLUSH
        72 000403   000000 011000                    NOP     0

      974     1106
      975     1107        %OUTLINE(S="'%MACRO PATH(I=0,L=0);'");

   1109 72 000404   000125 630400 73                 EPPR0   85
        72 000405   000033 631400 73                 EPPR1   27
        72 000406   000000 701000 xent               TSX1    OUT_STR
        72 000407   000000 011000                    NOP     0
PL6.E3A0      #012=OUTPUT_PATH_SYMREFS File=LR_ERRPTH.:Z8A6TSI                   SAT 08/09/97 09:32 Page:360

   1110 72 000410   000037 631400 73                 EPPR1   31
        72 000411   000000 701000 xent               TSX1    FLUSH
        72 000412   000000 011000                    NOP     0

      976     1113        %OUTLINE(S="',%(CONCAT(BINBIT(I,%BITS_P_INDX),BINBIT(L,%BITS_P_LEN)))'");

   1115 72 000413   000130 630400 73                 EPPR0   88
        72 000414   000033 631400 73                 EPPR1   27
        72 000415   000000 701000 xent               TSX1    OUT_STR
        72 000416   000000 011000                    NOP     0

   1116 72 000417   000037 631400 73                 EPPR1   31
        72 000420   000000 701000 xent               TSX1    FLUSH
        72 000421   000000 011000                    NOP     0

      977     1119        %OUTLINE(S="'%MEND;'");

   1121 72 000422   000043 630400 73                 EPPR0   35
        72 000423   000033 631400 73                 EPPR1   27
        72 000424   000000 701000 xent               TSX1    OUT_STR
        72 000425   000000 011000                    NOP     0

   1122 72 000426   000037 631400 73                 EPPR1   31
        72 000427   000000 701000 xent               TSX1    FLUSH
        72 000430   000000 011000                    NOP     0

      978     1125
      979     1126        %OUTLINE(S="'%MACRO END_TABLE_PATH;'");

   1128 72 000431   000132 630400 73                 EPPR0   90
        72 000432   000033 631400 73                 EPPR1   27
        72 000433   000000 701000 xent               TSX1    OUT_STR
        72 000434   000000 011000                    NOP     0

   1129 72 000435   000037 631400 73                 EPPR1   31
        72 000436   000000 701000 xent               TSX1    FLUSH
PL6.E3A0      #012=OUTPUT_PATH_SYMREFS File=LR_ERRPTH.:Z8A6TSI                   SAT 08/09/97 09:32 Page:361
        72 000437   000000 011000                    NOP     0

      980     1132        %OUTLINE(S="'    );'");

   1134 72 000440   000056 630400 73                 EPPR0   46
        72 000441   000033 631400 73                 EPPR1   27
        72 000442   000000 701000 xent               TSX1    OUT_STR
        72 000443   000000 011000                    NOP     0

   1135 72 000444   000037 631400 73                 EPPR1   31
        72 000445   000000 701000 xent               TSX1    FLUSH
        72 000446   000000 011000                    NOP     0

      981     1138        %OUTLINE(S="'%MEND;'");

   1140 72 000447   000043 630400 73                 EPPR0   35
        72 000450   000033 631400 73                 EPPR1   27
        72 000451   000000 701000 xent               TSX1    OUT_STR
        72 000452   000000 011000                    NOP     0

   1141 72 000453   000037 631400 73                 EPPR1   31
        72 000454   000000 701000 xent               TSX1    FLUSH
        72 000455   000000 011000                    NOP     0

      982     1144
      983     1145        %OUTPUT_MMB(N="'PATH_ELEM'", TS=TSTATS.PATH_ELEM);

   1147 72 000456   000135 630400 73                 EPPR0   93
        72 000457   000012 631400 73                 EPPR1   10
        72 000460   000000 701000 xent               TSX1    OUTPUT_MIN_MAX_BITS
        72 000461   000000 011000                    NOP     0

      984     1152
      985     1153        %OUTLINE(S="'%MACRO START_TABLE_PATH_ELEM;'");

   1155 72 000462   000141 630400 73                 EPPR0   97
        72 000463   000033 631400 73                 EPPR1   27
PL6.E3A0      #012=OUTPUT_PATH_SYMREFS File=LR_ERRPTH.:Z8A6TSI                   SAT 08/09/97 09:32 Page:362
        72 000464   000000 701000 xent               TSX1    OUT_STR
        72 000465   000000 011000                    NOP     0

   1156 72 000466   000037 631400 73                 EPPR1   31
        72 000467   000000 701000 xent               TSX1    FLUSH
        72 000470   000000 011000                    NOP     0

      986     1159       %OUTLINE(S="'DCL PATH_ELEM(0:%PATH_ELEM_LEN) UBIN(%BITS_PATH_ELEM) UNAL CONSTANT SYM
              1159        DEF INIT(0'");

   1161 72 000471   000144 630400 73                 EPPR0   100
        72 000472   000033 631400 73                 EPPR1   27
        72 000473   000000 701000 xent               TSX1    OUT_STR
        72 000474   000000 011000                    NOP     0

   1162 72 000475   000037 631400 73                 EPPR1   31
        72 000476   000000 701000 xent               TSX1    FLUSH
        72 000477   000000 011000                    NOP     0

      987     1165        %OUTLINE(S="'%MEND;'");

   1167 72 000500   000146 630400 73                 EPPR0   102
        72 000501   000033 631400 73                 EPPR1   27
        72 000502   000000 701000 xent               TSX1    OUT_STR
        72 000503   000000 011000                    NOP     0

   1168 72 000504   000037 631400 73                 EPPR1   31
        72 000505   000000 701000 xent               TSX1    FLUSH
        72 000506   000000 011000                    NOP     0

      988     1171
      989     1172        %OUTLINE(S="'%MACRO PATHE(E=0);'");

   1174 72 000507   000151 630400 73                 EPPR0   105
        72 000510   000033 631400 73                 EPPR1   27
        72 000511   000000 701000 xent               TSX1    OUT_STR
        72 000512   000000 011000                    NOP     0
PL6.E3A0      #012=OUTPUT_PATH_SYMREFS File=LR_ERRPTH.:Z8A6TSI                   SAT 08/09/97 09:32 Page:363

   1175 72 000513   000037 631400 73                 EPPR1   31
        72 000514   000000 701000 xent               TSX1    FLUSH
        72 000515   000000 011000                    NOP     0

      990     1178        %OUTLINE(S="',E'");

   1180 72 000516   000154 630400 73                 EPPR0   108
        72 000517   000033 631400 73                 EPPR1   27
        72 000520   000000 701000 xent               TSX1    OUT_STR
        72 000521   000000 011000                    NOP     0

   1181 72 000522   000037 631400 73                 EPPR1   31
        72 000523   000000 701000 xent               TSX1    FLUSH
        72 000524   000000 011000                    NOP     0

      991     1184        %OUTLINE(S="'%MEND;'");

   1186 72 000525   000146 630400 73                 EPPR0   102
        72 000526   000033 631400 73                 EPPR1   27
        72 000527   000000 701000 xent               TSX1    OUT_STR
        72 000530   000000 011000                    NOP     0

   1187 72 000531   000037 631400 73                 EPPR1   31
        72 000532   000000 701000 xent               TSX1    FLUSH
        72 000533   000000 011000                    NOP     0

      992     1190
      993     1191        %OUTLINE(S="'%MACRO END_TABLE_PATH_ELEM;'");

   1193 72 000534   000157 630400 73                 EPPR0   111
        72 000535   000033 631400 73                 EPPR1   27
        72 000536   000000 701000 xent               TSX1    OUT_STR
        72 000537   000000 011000                    NOP     0

   1194 72 000540   000037 631400 73                 EPPR1   31
        72 000541   000000 701000 xent               TSX1    FLUSH
PL6.E3A0      #012=OUTPUT_PATH_SYMREFS File=LR_ERRPTH.:Z8A6TSI                   SAT 08/09/97 09:32 Page:364
        72 000542   000000 011000                    NOP     0

      994     1197        %OUTLINE(S="'    );'");

   1199 72 000543   000161 630400 73                 EPPR0   113
        72 000544   000033 631400 73                 EPPR1   27
        72 000545   000000 701000 xent               TSX1    OUT_STR
        72 000546   000000 011000                    NOP     0

   1200 72 000547   000037 631400 73                 EPPR1   31
        72 000550   000000 701000 xent               TSX1    FLUSH
        72 000551   000000 011000                    NOP     0

      995     1203        %OUTLINE(S="'%MEND;'");

   1205 72 000552   000146 630400 73                 EPPR0   102
        72 000553   000033 631400 73                 EPPR1   27
        72 000554   000000 701000 xent               TSX1    OUT_STR
        72 000555   000000 011000                    NOP     0

   1206 72 000556   000037 631400 73                 EPPR1   31
        72 000557   000000 701000 xent               TSX1    FLUSH
        72 000560   000000 011000                    NOP     0

      996     1209
      997     1210        %OUTLINE(S="'%MACRO ERROR_PATH_SYMREFS;'");

   1212 72 000561   000164 630400 73                 EPPR0   116
        72 000562   000033 631400 73                 EPPR1   27
        72 000563   000000 701000 xent               TSX1    OUT_STR
        72 000564   000000 011000                    NOP     0

   1213 72 000565   000037 631400 73                 EPPR1   31
        72 000566   000000 701000 xent               TSX1    FLUSH
        72 000567   000000 011000                    NOP     0

      998     1216        %OUTLINE(S="'DCL 1 ITEM(0:%ITEM_LEN) UNAL SYMREF READONLY,'");
PL6.E3A0      #012=OUTPUT_PATH_SYMREFS File=LR_ERRPTH.:Z8A6TSI                   SAT 08/09/97 09:32 Page:365

   1218 72 000570   000167 630400 73                 EPPR0   119
        72 000571   000033 631400 73                 EPPR1   27
        72 000572   000000 701000 xent               TSX1    OUT_STR
        72 000573   000000 011000                    NOP     0

   1219 72 000574   000037 631400 73                 EPPR1   31
        72 000575   000000 701000 xent               TSX1    FLUSH
        72 000576   000000 011000                    NOP     0

      999     1222        %OUT_STR(S="'      2 SUCC_STATE '");

   1223 72 000577   000172 630400 73                 EPPR0   122
        72 000600   000033 631400 73                 EPPR1   27
        72 000601   000000 701000 xent               TSX1    OUT_STR
        72 000602   000000 011000                    NOP     0

     1000     1225        %OUTSIGN(V=SSTATE);

   1226 72 000603   000106 234000 35                 SZN     TSTATS+70
        72 000604   000612 605000 72                 TPL     s:1232

   1228 72 000605   000176 630400 73                 EPPR0   126
        72 000606   000033 631400 73                 EPPR1   27
        72 000607   000000 701000 xent               TSX1    OUT_STR
        72 000610   000000 011000                    NOP     0
        72 000611   000616 710000 72                 TRA     s:1237

   1232 72 000612   000201 630400 73                 EPPR0   129
        72 000613   000033 631400 73                 EPPR1   27
        72 000614   000000 701000 xent               TSX1    OUT_STR
        72 000615   000000 011000                    NOP     0

     1001     1235        %OUTLINE(S="'BIN(%BITS_SSTATE) UNAL,'");

   1237 72 000616   000203 630400 73                 EPPR0   131
        72 000617   000033 631400 73                 EPPR1   27
PL6.E3A0      #012=OUTPUT_PATH_SYMREFS File=LR_ERRPTH.:Z8A6TSI                   SAT 08/09/97 09:32 Page:366
        72 000620   000000 701000 xent               TSX1    OUT_STR
        72 000621   000000 011000                    NOP     0

   1238 72 000622   000037 631400 73                 EPPR1   31
        72 000623   000000 701000 xent               TSX1    FLUSH
        72 000624   000000 011000                    NOP     0

     1002     1241        %OUT_STR(S="'      2 SUCC_ITEM '");

   1242 72 000625   000205 630400 73                 EPPR0   133
        72 000626   000033 631400 73                 EPPR1   27
        72 000627   000000 701000 xent               TSX1    OUT_STR
        72 000630   000000 011000                    NOP     0

     1003     1244        %OUTSIGN(V=SITEM);

   1245 72 000631   000114 234000 35                 SZN     TSTATS+76
        72 000632   000640 605000 72                 TPL     s:1251

   1247 72 000633   000176 630400 73                 EPPR0   126
        72 000634   000033 631400 73                 EPPR1   27
        72 000635   000000 701000 xent               TSX1    OUT_STR
        72 000636   000000 011000                    NOP     0
        72 000637   000644 710000 72                 TRA     s:1256

   1251 72 000640   000201 630400 73                 EPPR0   129
        72 000641   000033 631400 73                 EPPR1   27
        72 000642   000000 701000 xent               TSX1    OUT_STR
        72 000643   000000 011000                    NOP     0

     1004     1254        %OUTLINE(S="'BIN(%BITS_SITEM) UNAL,'");

   1256 72 000644   000207 630400 73                 EPPR0   135
        72 000645   000033 631400 73                 EPPR1   27
        72 000646   000000 701000 xent               TSX1    OUT_STR
        72 000647   000000 011000                    NOP     0

PL6.E3A0      #012=OUTPUT_PATH_SYMREFS File=LR_ERRPTH.:Z8A6TSI                   SAT 08/09/97 09:32 Page:367
   1257 72 000650   000037 631400 73                 EPPR1   31
        72 000651   000000 701000 xent               TSX1    FLUSH
        72 000652   000000 011000                    NOP     0

     1005     1260        %OUT_STR(S="'      2 INDX '");

   1261 72 000653   000212 630400 73                 EPPR0   138
        72 000654   000033 631400 73                 EPPR1   27
        72 000655   000000 701000 xent               TSX1    OUT_STR
        72 000656   000000 011000                    NOP     0

     1006     1263        %OUTSIGN(V=IINDX);

   1264 72 000657   000122 234000 35                 SZN     TSTATS+82
        72 000660   000666 605000 72                 TPL     s:1270

   1266 72 000661   000176 630400 73                 EPPR0   126
        72 000662   000033 631400 73                 EPPR1   27
        72 000663   000000 701000 xent               TSX1    OUT_STR
        72 000664   000000 011000                    NOP     0
        72 000665   000672 710000 72                 TRA     s:1275

   1270 72 000666   000201 630400 73                 EPPR0   129
        72 000667   000033 631400 73                 EPPR1   27
        72 000670   000000 701000 xent               TSX1    OUT_STR
        72 000671   000000 011000                    NOP     0

     1007     1273        %OUTLINE(S="'BIN(%BITS_IINDX) UNAL,'");

   1275 72 000672   000214 630400 73                 EPPR0   140
        72 000673   000033 631400 73                 EPPR1   27
        72 000674   000000 701000 xent               TSX1    OUT_STR
        72 000675   000000 011000                    NOP     0

   1276 72 000676   000037 631400 73                 EPPR1   31
        72 000677   000000 701000 xent               TSX1    FLUSH
        72 000700   000000 011000                    NOP     0
PL6.E3A0      #012=OUTPUT_PATH_SYMREFS File=LR_ERRPTH.:Z8A6TSI                   SAT 08/09/97 09:32 Page:368

     1008     1279        %OUT_STR(S="'      2 LEN '");

   1280 72 000701   000217 630400 73                 EPPR0   143
        72 000702   000033 631400 73                 EPPR1   27
        72 000703   000000 701000 xent               TSX1    OUT_STR
        72 000704   000000 011000                    NOP     0

     1009     1282        %OUTSIGN(V=ILEN);

   1283 72 000705   000130 234000 35                 SZN     TSTATS+88
        72 000706   000714 605000 72                 TPL     s:1289

   1285 72 000707   000176 630400 73                 EPPR0   126
        72 000710   000033 631400 73                 EPPR1   27
        72 000711   000000 701000 xent               TSX1    OUT_STR
        72 000712   000000 011000                    NOP     0
        72 000713   000720 710000 72                 TRA     s:1294

   1289 72 000714   000201 630400 73                 EPPR0   129
        72 000715   000033 631400 73                 EPPR1   27
        72 000716   000000 701000 xent               TSX1    OUT_STR
        72 000717   000000 011000                    NOP     0

     1010     1292        %OUTLINE(S="'BIN(%BITS_ILEN) UNAL;'");

   1294 72 000720   000221 630400 73                 EPPR0   145
        72 000721   000033 631400 73                 EPPR1   27
        72 000722   000000 701000 xent               TSX1    OUT_STR
        72 000723   000000 011000                    NOP     0

   1295 72 000724   000037 631400 73                 EPPR1   31
        72 000725   000000 701000 xent               TSX1    FLUSH
        72 000726   000000 011000                    NOP     0

     1011     1298        %OUTLINE(S="'DCL 1 STATE_ITEM(0:%STATE_ITEM_LEN) UNAL SYMREF READONLY,'");

PL6.E3A0      #012=OUTPUT_PATH_SYMREFS File=LR_ERRPTH.:Z8A6TSI                   SAT 08/09/97 09:32 Page:369
   1300 72 000727   000224 630400 73                 EPPR0   148
        72 000730   000033 631400 73                 EPPR1   27
        72 000731   000000 701000 xent               TSX1    OUT_STR
        72 000732   000000 011000                    NOP     0

   1301 72 000733   000037 631400 73                 EPPR1   31
        72 000734   000000 701000 xent               TSX1    FLUSH
        72 000735   000000 011000                    NOP     0

     1012     1304        %OUT_STR(S="'      2 BASIS '");

   1305 72 000736   000227 630400 73                 EPPR0   151
        72 000737   000033 631400 73                 EPPR1   27
        72 000740   000000 701000 xent               TSX1    OUT_STR
        72 000741   000000 011000                    NOP     0

     1013     1307        %OUTSIGN(V=SI_BASIS);

   1308 72 000742   000136 234000 35                 SZN     TSTATS+94
        72 000743   000751 605000 72                 TPL     s:1314

   1310 72 000744   000176 630400 73                 EPPR0   126
        72 000745   000033 631400 73                 EPPR1   27
        72 000746   000000 701000 xent               TSX1    OUT_STR
        72 000747   000000 011000                    NOP     0
        72 000750   000755 710000 72                 TRA     s:1319

   1314 72 000751   000201 630400 73                 EPPR0   129
        72 000752   000033 631400 73                 EPPR1   27
        72 000753   000000 701000 xent               TSX1    OUT_STR
        72 000754   000000 011000                    NOP     0

     1014     1317        %OUTLINE(S="'BIN(%BITS_SI_BASIS) UNAL,'");

   1319 72 000755   000232 630400 73                 EPPR0   154
        72 000756   000033 631400 73                 EPPR1   27
        72 000757   000000 701000 xent               TSX1    OUT_STR
PL6.E3A0      #012=OUTPUT_PATH_SYMREFS File=LR_ERRPTH.:Z8A6TSI                   SAT 08/09/97 09:32 Page:370
        72 000760   000000 011000                    NOP     0

   1320 72 000761   000037 631400 73                 EPPR1   31
        72 000762   000000 701000 xent               TSX1    FLUSH
        72 000763   000000 011000                    NOP     0

     1015     1323        %OUT_STR(S="'      2 CLOSURE '");

   1324 72 000764   000235 630400 73                 EPPR0   157
        72 000765   000033 631400 73                 EPPR1   27
        72 000766   000000 701000 xent               TSX1    OUT_STR
        72 000767   000000 011000                    NOP     0

     1016     1326        %OUTSIGN(V=SI_CLOSURE);

   1327 72 000770   000144 234000 35                 SZN     TSTATS+100
        72 000771   000777 605000 72                 TPL     s:1333

   1329 72 000772   000176 630400 73                 EPPR0   126
        72 000773   000033 631400 73                 EPPR1   27
        72 000774   000000 701000 xent               TSX1    OUT_STR
        72 000775   000000 011000                    NOP     0
        72 000776   001003 710000 72                 TRA     s:1338

   1333 72 000777   000201 630400 73                 EPPR0   129
        72 001000   000033 631400 73                 EPPR1   27
        72 001001   000000 701000 xent               TSX1    OUT_STR
        72 001002   000000 011000                    NOP     0

     1017     1336        %OUTLINE(S="'BIN(%BITS_SI_CLOSURE) UNAL;'");

   1338 72 001003   000237 630400 73                 EPPR0   159
        72 001004   000033 631400 73                 EPPR1   27
        72 001005   000000 701000 xent               TSX1    OUT_STR
        72 001006   000000 011000                    NOP     0

   1339 72 001007   000037 631400 73                 EPPR1   31
PL6.E3A0      #012=OUTPUT_PATH_SYMREFS File=LR_ERRPTH.:Z8A6TSI                   SAT 08/09/97 09:32 Page:371
        72 001010   000000 701000 xent               TSX1    FLUSH
        72 001011   000000 011000                    NOP     0

     1018     1342        %OUTLINE(S="'DCL 1 PATH(0:%PATH_LEN) UNAL SYMREF READONLY,'");

   1344 72 001012   000241 630400 73                 EPPR0   161
        72 001013   000033 631400 73                 EPPR1   27
        72 001014   000000 701000 xent               TSX1    OUT_STR
        72 001015   000000 011000                    NOP     0

   1345 72 001016   000037 631400 73                 EPPR1   31
        72 001017   000000 701000 xent               TSX1    FLUSH
        72 001020   000000 011000                    NOP     0

     1019     1348        %OUT_STR(S="'      2 INDX '");

   1349 72 001021   000212 630400 73                 EPPR0   138
        72 001022   000033 631400 73                 EPPR1   27
        72 001023   000000 701000 xent               TSX1    OUT_STR
        72 001024   000000 011000                    NOP     0

     1020     1351        %OUTSIGN(V=P_INDX);

   1352 72 001025   000152 234000 35                 SZN     TSTATS+106
        72 001026   001034 605000 72                 TPL     s:1358

   1354 72 001027   000176 630400 73                 EPPR0   126
        72 001030   000033 631400 73                 EPPR1   27
        72 001031   000000 701000 xent               TSX1    OUT_STR
        72 001032   000000 011000                    NOP     0
        72 001033   001040 710000 72                 TRA     s:1363

   1358 72 001034   000201 630400 73                 EPPR0   129
        72 001035   000033 631400 73                 EPPR1   27
        72 001036   000000 701000 xent               TSX1    OUT_STR
        72 001037   000000 011000                    NOP     0

PL6.E3A0      #012=OUTPUT_PATH_SYMREFS File=LR_ERRPTH.:Z8A6TSI                   SAT 08/09/97 09:32 Page:372
     1021     1361        %OUTLINE(S="'BIN(%BITS_P_INDX) UNAL,'");

   1363 72 001040   000243 630400 73                 EPPR0   163
        72 001041   000033 631400 73                 EPPR1   27
        72 001042   000000 701000 xent               TSX1    OUT_STR
        72 001043   000000 011000                    NOP     0

   1364 72 001044   000037 631400 73                 EPPR1   31
        72 001045   000000 701000 xent               TSX1    FLUSH
        72 001046   000000 011000                    NOP     0

     1022     1367        %OUT_STR(S="'      2 LEN '");

   1368 72 001047   000217 630400 73                 EPPR0   143
        72 001050   000033 631400 73                 EPPR1   27
        72 001051   000000 701000 xent               TSX1    OUT_STR
        72 001052   000000 011000                    NOP     0

     1023     1370        %OUTSIGN(V=P_LEN);

   1371 72 001053   000160 234000 35                 SZN     TSTATS+112
        72 001054   001062 605000 72                 TPL     s:1377

   1373 72 001055   000176 630400 73                 EPPR0   126
        72 001056   000033 631400 73                 EPPR1   27
        72 001057   000000 701000 xent               TSX1    OUT_STR
        72 001060   000000 011000                    NOP     0
        72 001061   001066 710000 72                 TRA     s:1382

   1377 72 001062   000201 630400 73                 EPPR0   129
        72 001063   000033 631400 73                 EPPR1   27
        72 001064   000000 701000 xent               TSX1    OUT_STR
        72 001065   000000 011000                    NOP     0

     1024     1380        %OUTLINE(S="'BIN(%BITS_P_LEN) UNAL;'");

   1382 72 001066   000245 630400 73                 EPPR0   165
PL6.E3A0      #012=OUTPUT_PATH_SYMREFS File=LR_ERRPTH.:Z8A6TSI                   SAT 08/09/97 09:32 Page:373
        72 001067   000033 631400 73                 EPPR1   27
        72 001070   000000 701000 xent               TSX1    OUT_STR
        72 001071   000000 011000                    NOP     0

   1383 72 001072   000037 631400 73                 EPPR1   31
        72 001073   000000 701000 xent               TSX1    FLUSH
        72 001074   000000 011000                    NOP     0

     1025     1386        %OUT_STR(S="'DCL PATH_ELEM(0:%PATH_ELEM_LEN) '");

   1387 72 001075   000250 630400 73                 EPPR0   168
        72 001076   000033 631400 73                 EPPR1   27
        72 001077   000000 701000 xent               TSX1    OUT_STR
        72 001100   000000 011000                    NOP     0

     1026     1389        %OUTSIGN(V=PATH_ELEM);

   1390 72 001101   000166 234000 35                 SZN     TSTATS+118
        72 001102   001110 605000 72                 TPL     s:1396

   1392 72 001103   000176 630400 73                 EPPR0   126
        72 001104   000033 631400 73                 EPPR1   27
        72 001105   000000 701000 xent               TSX1    OUT_STR
        72 001106   000000 011000                    NOP     0
        72 001107   001114 710000 72                 TRA     s:1401

   1396 72 001110   000201 630400 73                 EPPR0   129
        72 001111   000033 631400 73                 EPPR1   27
        72 001112   000000 701000 xent               TSX1    OUT_STR
        72 001113   000000 011000                    NOP     0

     1027     1399        %OUTLINE(S="'BIN(%BITS_PATH_ELEM) UNAL SYMREF READONLY;'");

   1401 72 001114   000253 630400 73                 EPPR0   171
        72 001115   000033 631400 73                 EPPR1   27
        72 001116   000000 701000 xent               TSX1    OUT_STR
        72 001117   000000 011000                    NOP     0
PL6.E3A0      #012=OUTPUT_PATH_SYMREFS File=LR_ERRPTH.:Z8A6TSI                   SAT 08/09/97 09:32 Page:374

   1402 72 001120   000037 631400 73                 EPPR1   31
        72 001121   000000 701000 xent               TSX1    FLUSH
        72 001122   000000 011000                    NOP     0

     1028     1405        %OUTLINE(S="'%MEND;'");

   1407 72 001123   000146 630400 73                 EPPR0   102
        72 001124   000033 631400 73                 EPPR1   27
        72 001125   000000 701000 xent               TSX1    OUT_STR
        72 001126   000000 011000                    NOP     0

   1408 72 001127   000037 631400 73                 EPPR1   31
        72 001130   000000 701000 xent               TSX1    FLUSH
        72 001131   000000 011000                    NOP     0

     1029     1411
     1030     1412    1   END OUTPUT_PATH_SYMREFS;

   1412 72 001132   000000 702200 xent               TSX2  ! X66_ARET

PL6.E3A0      #012=OUTPUT_PATH_SYMREFS File=LR_ERRPTH.:Z8A6TSI                   SAT 08/09/97 09:32 Page:375
--  Include file information  --

   LR_ERR_EXT.:Z8A6TOU  cannot be made into a system file and is referenced.
   LR_CNFG_EXT.:Z8A6TOU  cannot be made into a system file and is referenced.
   LR_IO_EXT.:Z8A6TOU  cannot be made into a system file and is referenced.
   LR_GRAM_EXT.:Z8A6TOU  cannot be made into a system file and is referenced.
      No diagnostics issued in procedure OUTPUT_PATH_SYMREFS.
PL6.E3A0      #012=OUTPUT_PATH_SYMREFS File=LR_ERRPTH.:Z8A6TSI                   SAT 08/09/97 09:32 Page:376

 **** Variables and constants ****

  ****  Section 000 LblCom OUT_DCBN

  ****  Scalars and arrays  ****
OctLoc.c.b A Datatyp(siz) R M Lvl/name                 OctLoc.c.b A Datatyp(siz) R M Lvl/name

     0-0-0/w SBIN        r     1 OUT_DCBN

  ****  Section 006 LblCom SYM_PTRS

  ****  Scalars and arrays  ****
OctLoc.c.b A Datatyp(siz) R M Lvl/name                 OctLoc.c.b A Datatyp(siz) R M Lvl/name

     0-0-0/w PTR               1 SYM_PTRS(0:1400)

  ****  Section 007 LblCom RIGHT_PARTS

  ****  Scalars and arrays  ****
OctLoc.c.b A Datatyp(siz) R M Lvl/name                 OctLoc.c.b A Datatyp(siz) R M Lvl/name

     0-0-0/h SBIN(18)          1 RIGHT_PARTS(0:8000)

  ****  Section 008 LblCom PROD

  ****  Scalars and arrays  ****
OctLoc.c.b A Datatyp(siz) R M Lvl/name                 OctLoc.c.b A Datatyp(siz) R M Lvl/name

     0-0-0/h STRC(72)          1 PROD(0:1500)

  ****  Section 009 LblCom NR_PROD

  ****  Scalars and arrays  ****
OctLoc.c.b A Datatyp(siz) R M Lvl/name                 OctLoc.c.b A Datatyp(siz) R M Lvl/name

     0-0-0/w SBIN              1 NR_PROD

PL6.E3A0      #012=OUTPUT_PATH_SYMREFS File=LR_ERRPTH.:Z8A6TSI                   SAT 08/09/97 09:32 Page:377
  ****  Section 010 LblCom NR_SYMS

  ****  Scalars and arrays  ****
OctLoc.c.b A Datatyp(siz) R M Lvl/name                 OctLoc.c.b A Datatyp(siz) R M Lvl/name

     0-0-0/w SBIN              1 NR_SYMS

  ****  Section 011 LblCom NR_TERM

  ****  Scalars and arrays  ****
OctLoc.c.b A Datatyp(siz) R M Lvl/name                 OctLoc.c.b A Datatyp(siz) R M Lvl/name

     0-0-0/w SBIN              1 NR_TERM

  ****  Section 012 LblCom LAST_ACT

  ****  Scalars and arrays  ****
OctLoc.c.b A Datatyp(siz) R M Lvl/name                 OctLoc.c.b A Datatyp(siz) R M Lvl/name

     0-0-0/w SBIN              1 LAST_ACT

  ****  Section 013 LblCom LAST_NULL

  ****  Scalars and arrays  ****
OctLoc.c.b A Datatyp(siz) R M Lvl/name                 OctLoc.c.b A Datatyp(siz) R M Lvl/name

     0-0-0/w SBIN              1 LAST_NULL

  ****  Section 014 LblCom NR_ONRIGHT

  ****  Scalars and arrays  ****
OctLoc.c.b A Datatyp(siz) R M Lvl/name                 OctLoc.c.b A Datatyp(siz) R M Lvl/name

     0-0-0/w SBIN              1 NR_ONRIGHT

  ****  Section 015 LblCom NR_NT

PL6.E3A0      #012=OUTPUT_PATH_SYMREFS File=LR_ERRPTH.:Z8A6TSI                   SAT 08/09/97 09:32 Page:378
  ****  Scalars and arrays  ****
OctLoc.c.b A Datatyp(siz) R M Lvl/name                 OctLoc.c.b A Datatyp(siz) R M Lvl/name

     0-0-0/w SBIN              1 NR_NT

  ****  Section 016 LblCom PROD_LEN_MAX_EVER

  ****  Scalars and arrays  ****
OctLoc.c.b A Datatyp(siz) R M Lvl/name                 OctLoc.c.b A Datatyp(siz) R M Lvl/name

     0-0-0/w SBIN              1 PROD_LEN_MAX_EVER

  ****  Section 017 LblCom LAST_ORDER_SPECIFIED

  ****  Scalars and arrays  ****
OctLoc.c.b A Datatyp(siz) R M Lvl/name                 OctLoc.c.b A Datatyp(siz) R M Lvl/name

     0-0-0/w SBIN              1 LAST_ORDER_SPECIFIED

  ****  Section 018 LblCom SEMANTIC_ORDERING

  ****  Scalars and arrays  ****
OctLoc.c.b A Datatyp(siz) R M Lvl/name                 OctLoc.c.b A Datatyp(siz) R M Lvl/name

     0-0-0/b BIT               1 SEMANTIC_ORDERING

  ****  Section 019 LblCom ERR_SEV

  ****  Scalars and arrays  ****
OctLoc.c.b A Datatyp(siz) R M Lvl/name                 OctLoc.c.b A Datatyp(siz) R M Lvl/name

     0-0-0/w SBIN              1 ERR_SEV

  ****  Section 020 LblCom SET_LENGTHB

  ****  Scalars and arrays  ****
OctLoc.c.b A Datatyp(siz) R M Lvl/name                 OctLoc.c.b A Datatyp(siz) R M Lvl/name
PL6.E3A0      #012=OUTPUT_PATH_SYMREFS File=LR_ERRPTH.:Z8A6TSI                   SAT 08/09/97 09:32 Page:379

     0-0-0/w SBIN              1 SET_LENGTHB

  ****  Section 021 LblCom SET_LENGTHW

  ****  Scalars and arrays  ****
OctLoc.c.b A Datatyp(siz) R M Lvl/name                 OctLoc.c.b A Datatyp(siz) R M Lvl/name

     0-0-0/w SBIN              1 SET_LENGTHW

  ****  Section 022 LblCom EOF_SYMBOL_PTR

  ****  Scalars and arrays  ****
OctLoc.c.b A Datatyp(siz) R M Lvl/name                 OctLoc.c.b A Datatyp(siz) R M Lvl/name

     0-0-0/w PTR               1 EOF_SYMBOL_PTR

  ****  Section 023 LblCom ERROR_SYMBOL_PTR

  ****  Scalars and arrays  ****
OctLoc.c.b A Datatyp(siz) R M Lvl/name                 OctLoc.c.b A Datatyp(siz) R M Lvl/name

     0-0-0/w PTR               1 ERROR_SYMBOL_PTR

  ****  Section 024 LblCom BOF_SYMBOL_PTR

  ****  Scalars and arrays  ****
OctLoc.c.b A Datatyp(siz) R M Lvl/name                 OctLoc.c.b A Datatyp(siz) R M Lvl/name

     0-0-0/w PTR               1 BOF_SYMBOL_PTR

  ****  Section 025 LblCom OPTIONS

  ****  Scalars and arrays  ****
OctLoc.c.b A Datatyp(siz) R M Lvl/name                 OctLoc.c.b A Datatyp(siz) R M Lvl/name

     0-0-0/b BIT               1 OPTIONS(0:25)
PL6.E3A0      #012=OUTPUT_PATH_SYMREFS File=LR_ERRPTH.:Z8A6TSI                   SAT 08/09/97 09:32 Page:380

  ****  Section 026 LblCom OPTIONS_TEXT

  ****  Scalars and arrays  ****
OctLoc.c.b A Datatyp(siz) R M Lvl/name                 OctLoc.c.b A Datatyp(siz) R M Lvl/name

     0-0-0/c CHAR(4)           1 OPTIONS_TEXT(0:25)

  ****  Section 027 LblCom INSTR

  ****  Scalars and arrays  ****
OctLoc.c.b A Datatyp(siz) R M Lvl/name                 OctLoc.c.b A Datatyp(siz) R M Lvl/name

     0-0-0/c CHAR              1 INSTR(0:511)               0-0-0/c CHAR(512)         1 INSTRCHR

  ****  Section 028 LblCom INSTR_LISTED

  ****  Scalars and arrays  ****
OctLoc.c.b A Datatyp(siz) R M Lvl/name                 OctLoc.c.b A Datatyp(siz) R M Lvl/name

     0-0-0/b BIT               1 INSTR_LISTED

  ****  Section 029 LblCom INSTR_LEN

  ****  Scalars and arrays  ****
OctLoc.c.b A Datatyp(siz) R M Lvl/name                 OctLoc.c.b A Datatyp(siz) R M Lvl/name

     0-0-0/w SBIN              1 INSTR_LEN

  ****  Section 030 LblCom INSTR_INDX

  ****  Scalars and arrays  ****
OctLoc.c.b A Datatyp(siz) R M Lvl/name                 OctLoc.c.b A Datatyp(siz) R M Lvl/name

     0-0-0/w SBIN              1 INSTR_INDX

  ****  Section 031 LblCom EOF_FLAG
PL6.E3A0      #012=OUTPUT_PATH_SYMREFS File=LR_ERRPTH.:Z8A6TSI                   SAT 08/09/97 09:32 Page:381

  ****  Scalars and arrays  ****
OctLoc.c.b A Datatyp(siz) R M Lvl/name                 OctLoc.c.b A Datatyp(siz) R M Lvl/name

     0-0-0/b BIT               1 EOF_FLAG

  ****  Section 032 LblCom KEY_REC

  ****  Scalars and arrays  ****
OctLoc.c.b A Datatyp(siz) R M Lvl/name                 OctLoc.c.b A Datatyp(siz) R M Lvl/name

     0-0-0/c CHAR(10)          1 KEY_REC

  ****  Section 033 LblCom LINE

  ****  Scalars and arrays  ****
OctLoc.c.b A Datatyp(siz) R M Lvl/name                 OctLoc.c.b A Datatyp(siz) R M Lvl/name

     0-0-0/c CHAR(109)         1 LINE

  ****  Section 034 LblCom LINELEN

  ****  Scalars and arrays  ****
OctLoc.c.b A Datatyp(siz) R M Lvl/name                 OctLoc.c.b A Datatyp(siz) R M Lvl/name

     0-0-0/w SBIN              1 LINELEN

  ****  Section 035 LblCom TSTATS

  ****  Scalars and arrays  ****
OctLoc.c.b A Datatyp(siz) R M Lvl/name                 OctLoc.c.b A Datatyp(siz) R M Lvl/name

     0-0-0/w STRC(7380)  r     1 TSTATS

  ****  Section 036 LblCom C#_TO_$

  ****  Scalars and arrays  ****
PL6.E3A0      #012=OUTPUT_PATH_SYMREFS File=LR_ERRPTH.:Z8A6TSI                   SAT 08/09/97 09:32 Page:382
OctLoc.c.b A Datatyp(siz) R M Lvl/name                 OctLoc.c.b A Datatyp(siz) R M Lvl/name

     0-0-0/w PTR               1 C#_TO_$(0:2200)

  ****  Section 037 LblCom NR_CONFIG

  ****  Scalars and arrays  ****
OctLoc.c.b A Datatyp(siz) R M Lvl/name                 OctLoc.c.b A Datatyp(siz) R M Lvl/name

     0-0-0/w SBIN              1 NR_CONFIG

  ****  Section 038 LblCom INIT_CONFIG

  ****  Scalars and arrays  ****
OctLoc.c.b A Datatyp(siz) R M Lvl/name                 OctLoc.c.b A Datatyp(siz) R M Lvl/name

     0-0-0/w SBIN              1 INIT_CONFIG

  ****  Section 039 LblCom MAX_BASIS_ITEMS

  ****  Scalars and arrays  ****
OctLoc.c.b A Datatyp(siz) R M Lvl/name                 OctLoc.c.b A Datatyp(siz) R M Lvl/name

     0-0-0/w SBIN              1 MAX_BASIS_ITEMS

  ****  Section 040 LblCom MAX_TOTAL_ITEMS

  ****  Scalars and arrays  ****
OctLoc.c.b A Datatyp(siz) R M Lvl/name                 OctLoc.c.b A Datatyp(siz) R M Lvl/name

     0-0-0/w SBIN              1 MAX_TOTAL_ITEMS

  ****  Section 041 LblCom LAST_BINSRCH_ONLY

  ****  Scalars and arrays  ****
OctLoc.c.b A Datatyp(siz) R M Lvl/name                 OctLoc.c.b A Datatyp(siz) R M Lvl/name

PL6.E3A0      #012=OUTPUT_PATH_SYMREFS File=LR_ERRPTH.:Z8A6TSI                   SAT 08/09/97 09:32 Page:383
     0-0-0/w SBIN              1 LAST_BINSRCH_ONLY

  ****  Section 042 LblCom LAST_BOTH_BITBIN

  ****  Scalars and arrays  ****
OctLoc.c.b A Datatyp(siz) R M Lvl/name                 OctLoc.c.b A Datatyp(siz) R M Lvl/name

     0-0-0/w SBIN              1 LAST_BOTH_BITBIN

  ****  Section 043 LblCom GARBAGE

  ****  Scalars and arrays  ****
OctLoc.c.b A Datatyp(siz) R M Lvl/name                 OctLoc.c.b A Datatyp(siz) R M Lvl/name

     0-0-0/w PTR               1 GARBAGE(0:100)

  ****  Section 044 LblCom AMT_GARBAGE

  ****  Scalars and arrays  ****
OctLoc.c.b A Datatyp(siz) R M Lvl/name                 OctLoc.c.b A Datatyp(siz) R M Lvl/name

     0-0-0/w SBIN              1 AMT_GARBAGE

  ****  Section 045 LblCom LEAST_COST_STRING

  ****  Scalars and arrays  ****
OctLoc.c.b A Datatyp(siz) R M Lvl/name                 OctLoc.c.b A Datatyp(siz) R M Lvl/name

     0-0-0/w PTR               1 LEAST_COST_STRING(0:1400)

  ****  Section 046 LblCom LEAST_COST_PREFIX

  ****  Scalars and arrays  ****
OctLoc.c.b A Datatyp(siz) R M Lvl/name                 OctLoc.c.b A Datatyp(siz) R M Lvl/name

     0-0-0/w PTR               1 LEAST_COST_PREFIX(0:1400)

PL6.E3A0      #012=OUTPUT_PATH_SYMREFS File=LR_ERRPTH.:Z8A6TSI                   SAT 08/09/97 09:32 Page:384
  ****  Section 047 LblCom CURRE

  ****  Scalars and arrays  ****
OctLoc.c.b A Datatyp(siz) R M Lvl/name                 OctLoc.c.b A Datatyp(siz) R M Lvl/name

     0-0-0/d STRC(126)         1 CURRE(0:1400)

  ****  Section 048 LblCom LCP_INDX

  ****  Scalars and arrays  ****
OctLoc.c.b A Datatyp(siz) R M Lvl/name                 OctLoc.c.b A Datatyp(siz) R M Lvl/name

     0-0-0/h SBIN(18)          1 LCP_INDX(0:1400)

  ****  Section 049 LblCom COM_STRSP_LEN

  ****  Scalars and arrays  ****
OctLoc.c.b A Datatyp(siz) R M Lvl/name                 OctLoc.c.b A Datatyp(siz) R M Lvl/name

     0-0-0/w SBIN        r     1 COM_STRSP_LEN

  ****  Section 050 LblCom COM_SEARCH_STRING

  ****  Scalars and arrays  ****
OctLoc.c.b A Datatyp(siz) R M Lvl/name                 OctLoc.c.b A Datatyp(siz) R M Lvl/name

     0-0-0/w PTR         r     1 COM_SEARCH_STRING

  ****  Section 051 LblCom COM_SEARCH_STRING_LEN

  ****  Scalars and arrays  ****
OctLoc.c.b A Datatyp(siz) R M Lvl/name                 OctLoc.c.b A Datatyp(siz) R M Lvl/name

     0-0-0/w SBIN        r     1 COM_SEARCH_STRING_LEN

  ****  Section 052 LblCom COM_STRING_SPACE_LEN

PL6.E3A0      #012=OUTPUT_PATH_SYMREFS File=LR_ERRPTH.:Z8A6TSI                   SAT 08/09/97 09:32 Page:385
  ****  Scalars and arrays  ****
OctLoc.c.b A Datatyp(siz) R M Lvl/name                 OctLoc.c.b A Datatyp(siz) R M Lvl/name

     0-0-0/w SBIN        r     1 COM_STRING_SPACE_LEN

  ****  Section 053 LblCom COM_STRING_SPACE_H

  ****  Scalars and arrays  ****
OctLoc.c.b A Datatyp(siz) R M Lvl/name                 OctLoc.c.b A Datatyp(siz) R M Lvl/name

     0-0-0/h SBIN(18)    r     1 COM_STRING_SPACE_H(0:24999)

  ****  Section 054 LblCom COM_STRING_SPACE$

  ****  Scalars and arrays  ****
OctLoc.c.b A Datatyp(siz) R M Lvl/name                 OctLoc.c.b A Datatyp(siz) R M Lvl/name

     0-0-0/w PTR         r     1 COM_STRING_SPACE$

  ****  Section 055 LblCom COM_STRING_PTR

  ****  Scalars and arrays  ****
OctLoc.c.b A Datatyp(siz) R M Lvl/name                 OctLoc.c.b A Datatyp(siz) R M Lvl/name

     0-0-0/w PTR         r     1 COM_STRING_PTR

  ****  Section 056 LblCom COM_STRING_INDX

  ****  Scalars and arrays  ****
OctLoc.c.b A Datatyp(siz) R M Lvl/name                 OctLoc.c.b A Datatyp(siz) R M Lvl/name

     0-0-0/w SBIN              1 COM_STRING_INDX

  ****  Section 057 LblCom LCP_TABLE_LEN

  ****  Scalars and arrays  ****
OctLoc.c.b A Datatyp(siz) R M Lvl/name                 OctLoc.c.b A Datatyp(siz) R M Lvl/name
PL6.E3A0      #012=OUTPUT_PATH_SYMREFS File=LR_ERRPTH.:Z8A6TSI                   SAT 08/09/97 09:32 Page:386

     0-0-0/w SBIN              1 LCP_TABLE_LEN

  ****  Section 058 LblCom STATE_ITEM_INDEX

  ****  Scalars and arrays  ****
OctLoc.c.b A Datatyp(siz) R M Lvl/name                 OctLoc.c.b A Datatyp(siz) R M Lvl/name

     0-0-0/h STRC              1 STATE_ITEM_INDEX(0:2200)

  ****  Section 059 LblCom PATH

  ****  Scalars and arrays  ****
OctLoc.c.b A Datatyp(siz) R M Lvl/name                 OctLoc.c.b A Datatyp(siz) R M Lvl/name

     0-0-0/h STRC        r     1 PATH(0:17600)

  ****  Section 060 LblCom PATH_STRINGS_LEN

  ****  Scalars and arrays  ****
OctLoc.c.b A Datatyp(siz) R M Lvl/name                 OctLoc.c.b A Datatyp(siz) R M Lvl/name

     0-0-0/w SBIN        r     1 PATH_STRINGS_LEN

  ****  Section 061 LblCom PATH_ADDR$

  ****  Scalars and arrays  ****
OctLoc.c.b A Datatyp(siz) R M Lvl/name                 OctLoc.c.b A Datatyp(siz) R M Lvl/name

     0-0-0/w PTR         r     1 PATH_ADDR$

  ****  Section 062 LblCom PATH_TABLE_LEN

  ****  Scalars and arrays  ****
OctLoc.c.b A Datatyp(siz) R M Lvl/name                 OctLoc.c.b A Datatyp(siz) R M Lvl/name

     0-0-0/w SBIN              1 PATH_TABLE_LEN
PL6.E3A0      #012=OUTPUT_PATH_SYMREFS File=LR_ERRPTH.:Z8A6TSI                   SAT 08/09/97 09:32 Page:387

  ****  Section 063 LblCom EDGECOST

  ****  Scalars and arrays  ****
OctLoc.c.b A Datatyp(siz) R M Lvl/name                 OctLoc.c.b A Datatyp(siz) R M Lvl/name

     0-0-0/w SBIN              1 EDGECOST(0:400)

  ****  Section 064 LblCom ITEM_TABLE_LEN

  ****  Scalars and arrays  ****
OctLoc.c.b A Datatyp(siz) R M Lvl/name                 OctLoc.c.b A Datatyp(siz) R M Lvl/name

     0-0-0/w SBIN              1 ITEM_TABLE_LEN

  ****  Section 065 LblCom ORDERED_ITEM

  ****  Scalars and arrays  ****
OctLoc.c.b A Datatyp(siz) R M Lvl/name                 OctLoc.c.b A Datatyp(siz) R M Lvl/name

     0-0-0/h STRC              1 ORDERED_ITEM(0:400)

  ****  Section 066 LblCom NEIGHBOR

  ****  Scalars and arrays  ****
OctLoc.c.b A Datatyp(siz) R M Lvl/name                 OctLoc.c.b A Datatyp(siz) R M Lvl/name

     0-0-0/w SBIN              1 NEIGHBOR(0:400)

  ****  Section 067 LblCom PATH_INFO

  ****  Scalars and arrays  ****
OctLoc.c.b A Datatyp(siz) R M Lvl/name                 OctLoc.c.b A Datatyp(siz) R M Lvl/name

     0-0-0/w STRC(28872)       1 PATH_INFO

  ****  Section 068 LblCom CHOSEN
PL6.E3A0      #012=OUTPUT_PATH_SYMREFS File=LR_ERRPTH.:Z8A6TSI                   SAT 08/09/97 09:32 Page:388

  ****  Scalars and arrays  ****
OctLoc.c.b A Datatyp(siz) R M Lvl/name                 OctLoc.c.b A Datatyp(siz) R M Lvl/name

     0-0-0/w BIT               1 CHOSEN(0:400)

  ****  Section 069 LblCom REACHED

  ****  Scalars and arrays  ****
OctLoc.c.b A Datatyp(siz) R M Lvl/name                 OctLoc.c.b A Datatyp(siz) R M Lvl/name

     0-0-0/b BIT               1 REACHED(0:400)

  ****  Section 070 LblCom EXP_PATH_INDX

  ****  Scalars and arrays  ****
OctLoc.c.b A Datatyp(siz) R M Lvl/name                 OctLoc.c.b A Datatyp(siz) R M Lvl/name

     0-0-0/w SBIN              1 EXP_PATH_INDX

  ****  BASED and DCB variables  ****

  ****  Scalars and arrays  ****
OctLoc.c.b A Datatyp(siz) R M Lvl/name                 OctLoc.c.b A Datatyp(siz) R M Lvl/name

     0-0-0/w STRC(72)          1 CELL                       0-0-0/c ACHR              1 COM_STRINGS
     0-0-0/c ACHR              1 COM_STRING_SPACE           0-0-0/c ACHR              1 CSEARCH_STRING
     0-0-0/w STRC(57888)       1 C_SET_B                    0-0-0/w STRC(72)          1 INCLUDES_B
     0-0-0/w STRC(144)         1 INCL_B                     0-0-0/w STRC(5436)        1 ITEM_B
     0-0-0/w STRC(5652)        1 KEY_B                      0-0-0N  NULL        r     1 M$LO
     0-0-0N  NULL        r     1 M$OU                       0-0-0N  NULL        r     1 M$SI
     0-0-0N  NULL        r     1 M$SO                       0-0-0N  NULL        r     1 M$UI
     0-0-0/c ACHR              1 PATH_STRINGS               0-0-0/w STRC(90)          1 PREFIX
     0-0-0/w ASTR(72)    r     1 PREFIXCHR                  0-0-0/w STRC              1 STRING
     0-0-0/w ASTR(18)    r     1 STRINGCHR                  0-0-0/w STRC(351)         1 SYMBOL

PL6.E3A0      #012=OUTPUT_PATH_SYMREFS File=LR_ERRPTH.:Z8A6TSI                   SAT 08/09/97 09:32 Page:389

   Procedure OUTPUT_PATH_SYMREFS requires 603 words for executable code.
   Procedure OUTPUT_PATH_SYMREFS requires 8 words of local(AUTO) storage.

    No errors detected in file LR_ERRPTH.:Z8A6TSI    .
