PL6.E3A0      #011=OUTPUT_COST_SYMREFS File=LR_ERRREC.:Z8A6TSI                   SAT 08/09/97 09:32 Page:333
     1082        1        /*T***********************************************************/
     1083        2        /*T*                                                         */
     1084        3        /*T* Copyright (c) Bull HN Information Systems Inc., 1997    */
     1085        4        /*T*                                                         */
     1086        5        /*T***********************************************************/
     1087        6        OUTPUT_COST_SYMREFS : PROC;
     1088        7
     1089        8        /*D*
     1090        9               NAME: OUTPUT_COST_SYMREFS
     1091       10            PURPOSE: OUTPUT THE TABLE DECLARATIONS FOR ERROR COSTS.
     1092       11        */
     1093       12
     1094       13
     1095       14        %INCLUDE LR_GRAM_EXT;
     1096      553        %INCLUDE LR_CNFG_EXT;
     1097      706        %INCLUDE LR_ERR_EXT;
     1098      849
     1099      850    1   DCL GENTYPE ENTRY(1);
     1100      851    1   DCL OUTPUT_BITS ENTRY(3);
     1101      852    1   DCL OUTPUT_MIN_MAX_BITS ENTRY(3);
     1102      853
     1103      854        %MACRO OUTPUT_MMB  (N=" " , TS=);
     1104      855          DO;
     1105      856            CALL OUTPUT_MIN_MAX_BITS ( N,
     1106      857                                       %(LENGTHC(N)),
     1107      858                                       TS);
     1108      859          END;
     1109      860        %MEND;
     1110      861
     1111      862        %MACRO OUTPUT_BITS(N=" ", V=);
     1112      863          DO;
     1113      864            CALL OUTPUT_BITS ( N,
     1114      865                               %(LENGTHC(N)),
     1115      866                               V);
     1116      867          END;
     1117      868        %MEND;
     1118      869
PL6.E3A0      #011=OUTPUT_COST_SYMREFS File=LR_ERRREC.:Z8A6TSI                   SAT 08/09/97 09:32 Page:334
     1119      870        %MACRO OUTSIGN(V=" ");
     1120      871          IF TSTATS.V.SIGNED THEN
     1121      872            %OUT_STR(S="'S'");
     1122      873          ELSE
     1123      874            %OUT_STR(S="'U'");
     1124      875        %MEND;
     1125      876
     1126      877
     1127      878    1   CALL GENTYPE(TSTATS.DEL_COST);
     1128      879    1   CALL GENTYPE(TSTATS.LCS_COST);
     1129      880    1   CALL GENTYPE(TSTATS.LCS_INDX);
     1130      881    1   CALL GENTYPE(TSTATS.LCS_LEN);
     1131      882    1   CALL GENTYPE(TSTATS.LCS_ELEM);
     1132      883    1   CALL GENTYPE(TSTATS.LCP_NT);
     1133      884    1   CALL GENTYPE(TSTATS.LCP_COST);
     1134      885    1   CALL GENTYPE(TSTATS.LCP_LEN);
     1135      886    1   CALL GENTYPE(TSTATS.LCP_INDX);
     1136      887    1   CALL GENTYPE(TSTATS.LCP_UBOUND);
     1137      888    1   CALL GENTYPE(TSTATS.LCP_ELEM);
     1138      889
     1139      890
     1140      891
     1141      892        %SELECT_SUBS;
     1142      895
     1143      896        %OUT_STR(S="'%EQU INFINITE_COST = '");
     1144      899    1   CALL OUT_DEC(INFINITE_COST);
     1145      900        %OUTLINE(S="';'");
     1146      906
     1147      907        %OUT_STR(S="'%EQU NR_BASIS_MAX = '");
     1148      910    1   CALL OUT_DEC(MAX_BASIS_ITEMS);
     1149      911        %OUTLINE(S="';'");
     1150      917
     1151      918        %OUTPUT_MMB (N="'DEL_COST'", TS=TSTATS.DEL_COST);
     1152      925
     1153      926        %OUTLINE(S="'%MACRO START_TABLE_DEL_COST;'");
     1154      932        %OUTLINE(S=
               932          "'DCL DEL_COST(0:%DEL_COST_LEN) UBIN(%BITS_DEL_COST) UNAL CONSTANT SYMDEF INIT(0'"
PL6.E3A0      #011=OUTPUT_COST_SYMREFS File=LR_ERRREC.:Z8A6TSI                   SAT 08/09/97 09:32 Page:335
               932            );
     1155      938        %OUTLINE(S="'%MEND;'");
     1156      944
     1157      945        %OUTLINE(S="'%MACRO DELC(C=0);'");
     1158      951        %OUTLINE(S="',C'");
     1159      957        %OUTLINE(S="'%MEND;'");
     1160      963
     1161      964        %OUTLINE(S="'%MACRO END_TABLE_DEL_COST;'");
     1162      970        %OUTLINE(S="'    );'");
     1163      976        %OUTLINE(S="'%MEND;'");
     1164      982
     1165      983        %OUTPUT_MMB(N="'LCS_COST'", TS=TSTATS.LCS_COST);
     1166      990        %OUTPUT_MMB(N="'LCS_INDX'", TS=TSTATS.LCS_INDX);
     1167      997        %OUTPUT_MMB(N="'LCS_LEN'",  TS=TSTATS.LCS_LEN);
     1168     1004        %OUTPUT_BITS(N="'LCS'", V=
              1004            "TSTATS.LCS_COST.NBITS + TSTATS.LCS_INDX.NBITS + TSTATS.LCS_LEN.NBITS");
     1169     1011
     1170     1012        %OUTLINE(S="'%MACRO START_TABLE_LCS;'");
     1171     1018        %OUTLINE(S="'DCL 1 LCS(0:%LCS_LEN) BIT(%BITS_LCS) UNAL CONSTANT SYMDEF INIT(''0''B'"
              1018            );
     1172     1024        %OUTLINE(S="'%MEND;'");
     1173     1030
     1174     1031        %OUTLINE(S="'%MACRO LCS(C=0,I=0,L=0);'");
     1175     1037        %OUTLINE(S="',%(CONCAT(BINBIT(C,%BITS_LCS_COST),BINBIT(I,%BITS_LCS_INDX),BINBIT(L,%B
              1037        ITS_LCS_LEN)))'");
     1176     1043        %OUTLINE(S="'%MEND;'");
     1177     1049
     1178     1050        %OUTLINE(S="'%MACRO END_TABLE_LCS;'");
     1179     1056        %OUTLINE(S="'    );'");
     1180     1062        %OUTLINE(S="'%MEND;'");
     1181     1068
     1182     1069        %OUTPUT_MMB(N="'LCS_ELEM'", TS=TSTATS.LCS_ELEM);
     1183     1076
     1184     1077        %OUTLINE(S="'%MACRO START_TABLE_LCS_ELEM;'");
     1185     1083        %OUTLINE(S=
              1083          "'DCL LCS_ELEM(0:%LCS_ELEM_LEN) UBIN(%BITS_LCS_ELEM) UNAL CONSTANT SYMDEF INIT(0'"
              1083            );
PL6.E3A0      #011=OUTPUT_COST_SYMREFS File=LR_ERRREC.:Z8A6TSI                   SAT 08/09/97 09:32 Page:336
     1186     1089        %OUTLINE(S="'%MEND;'");
     1187     1095
     1188     1096        %OUTLINE(S="'%MACRO LCSE(E=0);'");
     1189     1102        %OUTLINE(S="',E'");
     1190     1108        %OUTLINE(S="'%MEND;'");
     1191     1114
     1192     1115        %OUTLINE(S="'%MACRO END_TABLE_LCS_ELEM;'");
     1193     1121        %OUTLINE(S="'    );'");
     1194     1127        %OUTLINE(S="'%MEND;'");
     1195     1133
     1196     1134        %OUTPUT_MMB(N="'LCP_NT'", TS=TSTATS.LCP_NT);
     1197     1141        %OUTPUT_MMB(N="'LCP_COST'", TS=TSTATS.LCP_COST);
     1198     1148        %OUTPUT_MMB(N="'LCP_LEN'", TS=TSTATS.LCP_LEN);
     1199     1155        %OUTPUT_MMB(N="'LCP_INDX'", TS=TSTATS.LCP_INDX);
     1200     1162        %OUTPUT_BITS(N="'LCP'", V="TSTATS.LCP_NT.NBITS + TSTATS.LCP_COST.NBITS + TSTATS.LCP_
              1162        LEN.NBITS +TSTATS.LCP_INDX.NBITS");
     1201     1169
     1202     1170        %OUTLINE(S="'%MACRO START_TABLE_LCP;'");
     1203     1176        %OUTLINE(S="'DCL 1 LCP(0:%LCP_LEN) BIT(%BITS_LCP) UNAL CONSTANT SYMDEF INIT(''0''B'"
              1176            );
     1204     1182        %OUTLINE(S="'%MEND;'");
     1205     1188
     1206     1189        %OUTLINE(S="'%MACRO LCP(NT=0,C=0,I=0,L=0);'");
     1207     1195        %OUTLINE(S="',%(CONCAT(BINBIT(NT,%BITS_LCP_NT),BINBIT(C,%BITS_LCP_COST),BINBIT(I,%BI
              1195        TS_LCP_INDX),BINBIT(L,%BITS_LCP_LEN)))'");
     1208     1201        %OUTLINE(S="'%MEND;'");
     1209     1207
     1210     1208        %OUTLINE(S="'%MACRO END_TABLE_LCP;'");
     1211     1214        %OUTLINE(S="'    );'");
     1212     1220        %OUTLINE(S="'%MEND;'");
     1213     1226
     1214     1227        %OUTPUT_MMB(N="'LCP_UBOUND'", TS=TSTATS.LCP_UBOUND);
     1215     1234
     1216     1235        %OUTLINE(S="'%MACRO START_TABLE_LCP_UBOUND;'");
     1217     1241        %OUTLINE(S="'DCL LCP_UBOUND(0:%LCP_UBOUND_LEN) UBIN(%BITS_LCP_UBOUND) UNAL CONSTANT
              1241        SYMDEF INIT(0'");
     1218     1247        %OUTLINE(S="'%MEND;'");
PL6.E3A0      #011=OUTPUT_COST_SYMREFS File=LR_ERRREC.:Z8A6TSI                   SAT 08/09/97 09:32 Page:337
     1219     1253
     1220     1254        %OUTLINE(S="'%MACRO LCPUB(U=0);'");
     1221     1260        %OUTLINE(S="',U'");
     1222     1266        %OUTLINE(S="'%MEND;'");
     1223     1272
     1224     1273        %OUTLINE(S="'%MACRO END_TABLE_LCP_UBOUND;'");
     1225     1279        %OUTLINE(S="'    );'");
     1226     1285        %OUTLINE(S="'%MEND;'");
     1227     1291
     1228     1292        %OUTPUT_MMB(N="'LCP_ELEM'", TS=TSTATS.LCP_ELEM);
     1229     1299
     1230     1300
     1231     1301        %OUTLINE(S="'%MACRO START_TABLE_LCP_ELEM;'");
     1232     1307        %OUTLINE(S=
              1307          "'DCL LCP_ELEM(0:%LCP_ELEM_LEN) UBIN(%BITS_LCP_ELEM) UNAL CONSTANT SYMDEF INIT(0'"
              1307            );
     1233     1313        %OUTLINE(S="'%MEND;'");
     1234     1319
     1235     1320        %OUTLINE(S="'%MACRO LCPE(E=0);'");
     1236     1326        %OUTLINE(S="',E'");
     1237     1332        %OUTLINE(S="'%MEND;'");
     1238     1338
     1239     1339        %OUTLINE(S="'%MACRO END_TABLE_LCP_ELEM;'");
     1240     1345        %OUTLINE(S="'    );'");
     1241     1351        %OUTLINE(S="'%MEND;'");
     1242     1357
     1243     1358
     1244     1359
     1245     1360        %OUTLINE(S="'%MACRO ERROR_COST_SYMREFS;'");
     1246     1366
     1247     1367        %OUT_STR(S="'DCL DEL_COST(0:%DEL_COST_LEN) '");
     1248     1370        %OUTSIGN(V=DEL_COST);
     1249     1380        %OUTLINE(S="'BIN(%BITS_DEL_COST) UNAL SYMREF READONLY;'");
     1250     1386
     1251     1387        %OUTLINE(S="'DCL 1 LCS(0:%LCS_LEN) UNAL SYMREF READONLY,'");
     1252     1393        %OUT_STR(S="'      2 COST '");
     1253     1396        %OUTSIGN(V=LCS_COST);
PL6.E3A0      #011=OUTPUT_COST_SYMREFS File=LR_ERRREC.:Z8A6TSI                   SAT 08/09/97 09:32 Page:338
     1254     1406        %OUTLINE(S="'BIN(%BITS_LCS_COST) UNAL,'");
     1255     1412        %OUT_STR(S="'      2 INDX '");
     1256     1415        %OUTSIGN(V=LCS_INDX);
     1257     1425        %OUTLINE(S="'BIN(%BITS_LCS_INDX) UNAL,'");
     1258     1431        %OUT_STR(S="'      2 LEN '");
     1259     1434        %OUTSIGN(V=LCS_LEN);
     1260     1444        %OUTLINE(S="'BIN(%BITS_LCS_LEN) UNAL;'");
     1261     1450        %OUT_STR(S="'DCL LCS_ELEM(0:%LCS_ELEM_LEN) '");
     1262     1453        %OUTSIGN(V=LCS_ELEM);
     1263     1463        %OUTLINE(S="'BIN(%BITS_LCS_ELEM) UNAL SYMREF READONLY;'");
     1264     1469        %OUTLINE(S="'DCL 1 LCP(0:%LCP_LEN) UNAL SYMREF READONLY,'");
     1265     1475        %OUT_STR(S="'      2 NT '");
     1266     1478        %OUTSIGN(V=LCP_NT);
     1267     1488        %OUTLINE(S="'BIN(%BITS_LCP_NT) UNAL,'");
     1268     1494        %OUT_STR(S="'      2 COST '");
     1269     1497        %OUTSIGN(V=LCP_COST);
     1270     1507        %OUTLINE(S="'BIN(%BITS_LCP_COST) UNAL,'");
     1271     1513        %OUT_STR(S="'      2 INDX '");
     1272     1516        %OUTSIGN(V=LCP_INDX);
     1273     1526        %OUTLINE(S="'BIN(%BITS_LCP_INDX) UNAL,'");
     1274     1532        %OUT_STR(S="'      2 LEN '");
     1275     1535        %OUTSIGN(V=LCP_LEN);
     1276     1545        %OUTLINE(S="'BIN(%BITS_LCP_LEN) UNAL;'");
     1277     1551        %OUT_STR(S="'DCL LCP_UBOUND(0:%LCP_UBOUND_LEN) '");
     1278     1554        %OUTSIGN(V=LCP_UBOUND);
     1279     1564        %OUTLINE(S="'BIN(%BITS_LCP_UBOUND) UNAL SYMREF READONLY;'");
     1280     1570        %OUT_STR(S="'DCL LCP_ELEM(0:%LCP_ELEM_LEN) '");
     1281     1573        %OUTSIGN(V=LCP_ELEM);
     1282     1583        %OUTLINE(S="'BIN(%BITS_LCP_ELEM) UNAL SYMREF READONLY;'");
     1283     1589        %OUTLINE(S="'%MEND;'");
     1284     1595
     1285     1596    1   END OUTPUT_COST_SYMREFS;

PL6.E3A0      #011=OUTPUT_COST_SYMREFS File=LR_ERRREC.:Z8A6TSI                   SAT 08/09/97 09:32 Page:339
--  Include file information  --

   LR_ERR_EXT.:Z8A6TOU  cannot be made into a system file and is referenced.
   LR_CNFG_EXT.:Z8A6TOU  cannot be made into a system file and is referenced.
   LR_IO_EXT.:Z8A6TOU  cannot be made into a system file and is referenced.
   LR_GRAM_EXT.:Z8A6TOU  cannot be made into a system file and is referenced.
      No diagnostics issued in procedure OUTPUT_COST_SYMREFS.

   Procedure OUTPUT_COST_SYMREFS requires 800 words for executable code.
   Procedure OUTPUT_COST_SYMREFS requires 8 words of local(AUTO) storage.

    No errors detected in file LR_ERRREC.:Z8A6TSI    .

PL6.E3A0      #011=OUTPUT_COST_SYMREFS File=LR_ERRREC.:Z8A6TSI                   SAT 08/09/97 09:32 Page:340

 Object Unit name= OUTPUT_COST_SYMREFS                        File name= LR_ERRREC.:Z8A6TOU
 UTS= AUG 09 '97 09:32:39.72 SAT                              Compiler= PL-6/E31         Sev=      00
 SharedLib= :SHARED_SYSTEM                                    Alt SharedLib=


    ****  Control sections  ****

 Sect   Type Bound  Init  Size OctSiz  Section name(segment info)
    0  LblCom even  none     1      1  OUT_DCBN
    1   DCB   even  none     0      0  M$OU
    2   DCB   even  none     0      0  M$SO
    3   DCB   even  none     0      0  M$LO
    4   DCB   even  none     0      0  M$SI
    5   DCB   even  none     0      0  M$UI
    6  LblCom even  none  1401   2571  SYM_PTRS
    7  LblCom even  none  4001   7641  RIGHT_PARTS
    8  LblCom even  none  3002   5672  PROD
    9  LblCom even  none     1      1  NR_PROD
   10  LblCom even  none     1      1  NR_SYMS
   11  LblCom even  none     1      1  NR_TERM
   12  LblCom even  none     1      1  LAST_ACT
   13  LblCom even  none     1      1  LAST_NULL
   14  LblCom even  none     1      1  NR_ONRIGHT
   15  LblCom even  none     1      1  NR_NT
   16  LblCom even  none     1      1  PROD_LEN_MAX_EVER
   17  LblCom even  none     1      1  LAST_ORDER_SPECIFIED
   18  LblCom even  none     1      1  SEMANTIC_ORDERING
   19  LblCom even  none     1      1  ERR_SEV
   20  LblCom even  none     1      1  SET_LENGTHB
   21  LblCom even  none     1      1  SET_LENGTHW
   22  LblCom even  none     1      1  EOF_SYMBOL_PTR
   23  LblCom even  none     1      1  ERROR_SYMBOL_PTR
   24  LblCom even  none     1      1  BOF_SYMBOL_PTR
   25  LblCom even  none     1      1  OPTIONS
   26  LblCom even  none    26     32  OPTIONS_TEXT
   27  LblCom even  none   128    200  INSTR
   28  LblCom even  none     1      1  INSTR_LISTED
PL6.E3A0      #011=OUTPUT_COST_SYMREFS File=LR_ERRREC.:Z8A6TSI                   SAT 08/09/97 09:32 Page:341
   29  LblCom even  none     1      1  INSTR_LEN
   30  LblCom even  none     1      1  INSTR_INDX
   31  LblCom even  none     1      1  EOF_FLAG
   32  LblCom even  none     3      3  KEY_REC
   33  LblCom even  none    28     34  LINE
   34  LblCom even  none     1      1  LINELEN
   35  LblCom even  none   205    315  TSTATS
   36  LblCom even  none  2201   4231  C#_TO_$
   37  LblCom even  none     1      1  NR_CONFIG
   38  LblCom even  none     1      1  INIT_CONFIG
   39  LblCom even  none     1      1  MAX_BASIS_ITEMS
   40  LblCom even  none     1      1  MAX_TOTAL_ITEMS
   41  LblCom even  none     1      1  LAST_BINSRCH_ONLY
   42  LblCom even  none     1      1  LAST_BOTH_BITBIN
   43  LblCom even  none   101    145  GARBAGE
   44  LblCom even  none     1      1  AMT_GARBAGE
   45  LblCom even  none  1401   2571  LEAST_COST_STRING
   46  LblCom even  none  1401   2571  LEAST_COST_PREFIX
   47  LblCom even  none  5604  12744  CURRE
   48  LblCom even  none   701   1275  LCP_INDX
   49  LblCom even  none     1      1  COM_STRSP_LEN
   50  LblCom even  none     1      1  COM_SEARCH_STRING
   51  LblCom even  none     1      1  COM_SEARCH_STRING_LEN
   52  LblCom even  none     1      1  COM_STRING_SPACE_LEN
   53  LblCom even  none 12500  30324  COM_STRING_SPACE_H
   54  LblCom even  none     1      1  COM_STRING_SPACE$
   55  LblCom even  none     1      1  COM_STRING_PTR
   56  LblCom even  none     1      1  COM_STRING_INDX
   57  LblCom even  none     1      1  LCP_TABLE_LEN
   58  LblCom even  none  2201   4231  STATE_ITEM_INDEX
   59  LblCom even  none 17601  42301  PATH
   60  LblCom even  none     1      1  PATH_STRINGS_LEN
   61  LblCom even  none     1      1  PATH_ADDR$
   62  LblCom even  none     1      1  PATH_TABLE_LEN
   63  LblCom even  none   401    621  EDGECOST
   64  LblCom even  none     1      1  ITEM_TABLE_LEN
   65  LblCom even  none   401    621  ORDERED_ITEM
PL6.E3A0      #011=OUTPUT_COST_SYMREFS File=LR_ERRREC.:Z8A6TSI                   SAT 08/09/97 09:32 Page:342
   66  LblCom even  none   401    621  NEIGHBOR
   67  LblCom even  none   802   1442  PATH_INFO
   68  LblCom even  none   401    621  CHOSEN
   69  LblCom even  none    12     14  REACHED
   70  LblCom even  none     1      1  EXP_PATH_INDX
   71  RoData even  UTS    505    771  OUTPUT_COST_SYMREFS
   72   Proc  even  none   800   1440  OUTPUT_COST_SYMREFS
   73  RoData even  none   214    326  OUTPUT_COST_SYMREFS

    ****  Entry defs  ****

                              Check   Calling
                             calling  sequence
  Sect OctLoc Primary Altret sequence   type   Parms  Name
    72      0   yes            yes      Std        0  OUTPUT_COST_SYMREFS

  ****  Entry refs  ****

         Check        Calling
        calling       sequence
Altret sequence SRef   type   Args  Name
         yes           Std       1 GENTYPE
         yes           Std       3 OUTPUT_MIN_MAX_BITS
         yes           Std       3 OUTPUT_BITS
         yes           Std       2 OUT_STR
         yes           Std       0 FLUSH
         yes           Std       1 OUT_DEC
                       nStd      0 X66_AUTO_0
                       nStd      0 X66_ARET

  ****  Data refs  ****

  Flags:  r = read only, s = secondary
Flgs Name                             Flgs Name                             Flgs Name
     M$OU                                  M$SO                                  M$LO
     M$SI                                  M$UI
PL6.E3A0      #011=OUTPUT_COST_SYMREFS File=LR_ERRREC.:Z8A6TSI                   SAT 08/09/97 09:32 Page:343

  ****  Segment refs  ****

  Flags:  r = read only, s = secondary
Flgs Name                             Flgs Name                             Flgs Name
     NULLSID                               ISSID
PL6.E3A0      #011=OUTPUT_COST_SYMREFS File=LR_ERRREC.:Z8A6TSI                   SAT 08/09/97 09:32 Page:344


     1082        1        /*T***********************************************************/
     1083        2        /*T*                                                         */
     1084        3        /*T* Copyright (c) Bull HN Information Systems Inc., 1997    */
     1085        4        /*T*                                                         */
     1086        5        /*T***********************************************************/
     1087        6        OUTPUT_COST_SYMREFS : PROC;

      6 72 000000   000000 700200 xent  OUTPUT_COST* TSX0  ! X66_AUTO_0
        72 000001   000010 000000                    ZERO    8,0

     1088        7
     1089        8        /*D*
     1090        9               NAME: OUTPUT_COST_SYMREFS
     1091       10            PURPOSE: OUTPUT THE TABLE DECLARATIONS FOR ERROR COSTS.
     1092       11        */
     1093       12
     1094       13
     1095       14        %INCLUDE LR_GRAM_EXT;
     1096      553        %INCLUDE LR_CNFG_EXT;
     1097      706        %INCLUDE LR_ERR_EXT;
     1098      849
     1099      850    1   DCL GENTYPE ENTRY(1);
     1100      851    1   DCL OUTPUT_BITS ENTRY(3);
     1101      852    1   DCL OUTPUT_MIN_MAX_BITS ENTRY(3);
     1102      853
     1103      854        %MACRO OUTPUT_MMB  (N=" " , TS=);
     1104      855          DO;
     1105      856            CALL OUTPUT_MIN_MAX_BITS ( N,
     1106      857                                       %(LENGTHC(N)),
     1107      858                                       TS);
     1108      859          END;
     1109      860        %MEND;
     1110      861
     1111      862        %MACRO OUTPUT_BITS(N=" ", V=);
     1112      863          DO;
     1113      864            CALL OUTPUT_BITS ( N,
PL6.E3A0      #011=OUTPUT_COST_SYMREFS File=LR_ERRREC.:Z8A6TSI                   SAT 08/09/97 09:32 Page:345
     1114      865                               %(LENGTHC(N)),
     1115      866                               V);
     1116      867          END;
     1117      868        %MEND;
     1118      869
     1119      870        %MACRO OUTSIGN(V=" ");
     1120      871          IF TSTATS.V.SIGNED THEN
     1121      872            %OUT_STR(S="'S'");
     1122      873          ELSE
     1123      874            %OUT_STR(S="'U'");
     1124      875        %MEND;
     1125      876
     1126      877
     1127      878    1   CALL GENTYPE(TSTATS.DEL_COST);

    878 72 000002   000001 630400 73                 EPPR0   1
        72 000003   000000 631400 73                 EPPR1   0
        72 000004   000000 701000 xent               TSX1    GENTYPE
        72 000005   000000 011000                    NOP     0

     1128      879    1   CALL GENTYPE(TSTATS.LCS_COST);

    879 72 000006   000002 630400 73                 EPPR0   2
        72 000007   000000 631400 73                 EPPR1   0
        72 000010   000000 701000 xent               TSX1    GENTYPE
        72 000011   000000 011000                    NOP     0

     1129      880    1   CALL GENTYPE(TSTATS.LCS_INDX);

    880 72 000012   000003 630400 73                 EPPR0   3
        72 000013   000000 631400 73                 EPPR1   0
        72 000014   000000 701000 xent               TSX1    GENTYPE
        72 000015   000000 011000                    NOP     0

     1130      881    1   CALL GENTYPE(TSTATS.LCS_LEN);

    881 72 000016   000004 630400 73                 EPPR0   4
PL6.E3A0      #011=OUTPUT_COST_SYMREFS File=LR_ERRREC.:Z8A6TSI                   SAT 08/09/97 09:32 Page:346
        72 000017   000000 631400 73                 EPPR1   0
        72 000020   000000 701000 xent               TSX1    GENTYPE
        72 000021   000000 011000                    NOP     0

     1131      882    1   CALL GENTYPE(TSTATS.LCS_ELEM);

    882 72 000022   000005 630400 73                 EPPR0   5
        72 000023   000000 631400 73                 EPPR1   0
        72 000024   000000 701000 xent               TSX1    GENTYPE
        72 000025   000000 011000                    NOP     0

     1132      883    1   CALL GENTYPE(TSTATS.LCP_NT);

    883 72 000026   000006 630400 73                 EPPR0   6
        72 000027   000000 631400 73                 EPPR1   0
        72 000030   000000 701000 xent               TSX1    GENTYPE
        72 000031   000000 011000                    NOP     0

     1133      884    1   CALL GENTYPE(TSTATS.LCP_COST);

    884 72 000032   000007 630400 73                 EPPR0   7
        72 000033   000000 631400 73                 EPPR1   0
        72 000034   000000 701000 xent               TSX1    GENTYPE
        72 000035   000000 011000                    NOP     0

     1134      885    1   CALL GENTYPE(TSTATS.LCP_LEN);

    885 72 000036   000010 630400 73                 EPPR0   8
        72 000037   000000 631400 73                 EPPR1   0
        72 000040   000000 701000 xent               TSX1    GENTYPE
        72 000041   000000 011000                    NOP     0

     1135      886    1   CALL GENTYPE(TSTATS.LCP_INDX);

    886 72 000042   000011 630400 73                 EPPR0   9
        72 000043   000000 631400 73                 EPPR1   0
        72 000044   000000 701000 xent               TSX1    GENTYPE
PL6.E3A0      #011=OUTPUT_COST_SYMREFS File=LR_ERRREC.:Z8A6TSI                   SAT 08/09/97 09:32 Page:347
        72 000045   000000 011000                    NOP     0

     1136      887    1   CALL GENTYPE(TSTATS.LCP_UBOUND);

    887 72 000046   000012 630400 73                 EPPR0   10
        72 000047   000000 631400 73                 EPPR1   0
        72 000050   000000 701000 xent               TSX1    GENTYPE
        72 000051   000000 011000                    NOP     0

     1137      888    1   CALL GENTYPE(TSTATS.LCP_ELEM);

    888 72 000052   000013 630400 73                 EPPR0   11
        72 000053   000000 631400 73                 EPPR1   0
        72 000054   000000 701000 xent               TSX1    GENTYPE
        72 000055   000000 011000                    NOP     0

     1138      889
     1139      890
     1140      891
     1141      892        %SELECT_SUBS;

    893 72 000056   000000 236007 xsym               LDQ     M$SO,DL
        72 000057   000000 756000 0                  STQ     OUT_DCBN

     1142      895
     1143      896        %OUT_STR(S="'%EQU INFINITE_COST = '");

    897 72 000060   000016 630400 73                 EPPR0   14
        72 000061   000014 631400 73                 EPPR1   12
        72 000062   000000 701000 xent               TSX1    OUT_STR
        72 000063   000000 011000                    NOP     0

     1144      899    1   CALL OUT_DEC(INFINITE_COST);

    899 72 000064   000021 630400 73                 EPPR0   17
        72 000065   000000 631400 73                 EPPR1   0
        72 000066   000000 701000 xent               TSX1    OUT_DEC
PL6.E3A0      #011=OUTPUT_COST_SYMREFS File=LR_ERRREC.:Z8A6TSI                   SAT 08/09/97 09:32 Page:348
        72 000067   000000 011000                    NOP     0

     1145      900        %OUTLINE(S="';'");

    902 72 000070   000024 630400 73                 EPPR0   20
        72 000071   000014 631400 73                 EPPR1   12
        72 000072   000000 701000 xent               TSX1    OUT_STR
        72 000073   000000 011000                    NOP     0

    903 72 000074   000026 631400 73                 EPPR1   22
        72 000075   000000 701000 xent               TSX1    FLUSH
        72 000076   000000 011000                    NOP     0

     1146      906
     1147      907        %OUT_STR(S="'%EQU NR_BASIS_MAX = '");

    908 72 000077   000030 630400 73                 EPPR0   24
        72 000100   000014 631400 73                 EPPR1   12
        72 000101   000000 701000 xent               TSX1    OUT_STR
        72 000102   000000 011000                    NOP     0

     1148      910    1   CALL OUT_DEC(MAX_BASIS_ITEMS);

    910 72 000103   000032 630400 73                 EPPR0   26
        72 000104   000000 631400 73                 EPPR1   0
        72 000105   000000 701000 xent               TSX1    OUT_DEC
        72 000106   000000 011000                    NOP     0

     1149      911        %OUTLINE(S="';'");

    913 72 000107   000024 630400 73                 EPPR0   20
        72 000110   000014 631400 73                 EPPR1   12
        72 000111   000000 701000 xent               TSX1    OUT_STR
        72 000112   000000 011000                    NOP     0

    914 72 000113   000026 631400 73                 EPPR1   22
        72 000114   000000 701000 xent               TSX1    FLUSH
PL6.E3A0      #011=OUTPUT_COST_SYMREFS File=LR_ERRREC.:Z8A6TSI                   SAT 08/09/97 09:32 Page:349
        72 000115   000000 011000                    NOP     0

     1150      917
     1151      918        %OUTPUT_MMB (N="'DEL_COST'", TS=TSTATS.DEL_COST);

    920 72 000116   000035 630400 73                 EPPR0   29
        72 000117   000033 631400 73                 EPPR1   27
        72 000120   000000 701000 xent               TSX1    OUTPUT_MIN_MAX_BITS
        72 000121   000000 011000                    NOP     0

     1152      925
     1153      926        %OUTLINE(S="'%MACRO START_TABLE_DEL_COST;'");

    928 72 000122   000041 630400 73                 EPPR0   33
        72 000123   000014 631400 73                 EPPR1   12
        72 000124   000000 701000 xent               TSX1    OUT_STR
        72 000125   000000 011000                    NOP     0

    929 72 000126   000026 631400 73                 EPPR1   22
        72 000127   000000 701000 xent               TSX1    FLUSH
        72 000130   000000 011000                    NOP     0

     1154      932        %OUTLINE(S=
               932         "'DCL DEL_COST(0:%DEL_COST_LEN) UBIN(%BITS_DEL_COST) UNAL CONSTANT SYMDEF INIT(0'"
               932            );

    934 72 000131   000044 630400 73                 EPPR0   36
        72 000132   000014 631400 73                 EPPR1   12
        72 000133   000000 701000 xent               TSX1    OUT_STR
        72 000134   000000 011000                    NOP     0

    935 72 000135   000026 631400 73                 EPPR1   22
        72 000136   000000 701000 xent               TSX1    FLUSH
        72 000137   000000 011000                    NOP     0

     1155      938        %OUTLINE(S="'%MEND;'");

PL6.E3A0      #011=OUTPUT_COST_SYMREFS File=LR_ERRREC.:Z8A6TSI                   SAT 08/09/97 09:32 Page:350
    940 72 000140   000047 630400 73                 EPPR0   39
        72 000141   000014 631400 73                 EPPR1   12
        72 000142   000000 701000 xent               TSX1    OUT_STR
        72 000143   000000 011000                    NOP     0

    941 72 000144   000026 631400 73                 EPPR1   22
        72 000145   000000 701000 xent               TSX1    FLUSH
        72 000146   000000 011000                    NOP     0

     1156      944
     1157      945        %OUTLINE(S="'%MACRO DELC(C=0);'");

    947 72 000147   000052 630400 73                 EPPR0   42
        72 000150   000014 631400 73                 EPPR1   12
        72 000151   000000 701000 xent               TSX1    OUT_STR
        72 000152   000000 011000                    NOP     0

    948 72 000153   000026 631400 73                 EPPR1   22
        72 000154   000000 701000 xent               TSX1    FLUSH
        72 000155   000000 011000                    NOP     0

     1158      951        %OUTLINE(S="',C'");

    953 72 000156   000055 630400 73                 EPPR0   45
        72 000157   000014 631400 73                 EPPR1   12
        72 000160   000000 701000 xent               TSX1    OUT_STR
        72 000161   000000 011000                    NOP     0

    954 72 000162   000026 631400 73                 EPPR1   22
        72 000163   000000 701000 xent               TSX1    FLUSH
        72 000164   000000 011000                    NOP     0

     1159      957        %OUTLINE(S="'%MEND;'");

    959 72 000165   000047 630400 73                 EPPR0   39
        72 000166   000014 631400 73                 EPPR1   12
        72 000167   000000 701000 xent               TSX1    OUT_STR
PL6.E3A0      #011=OUTPUT_COST_SYMREFS File=LR_ERRREC.:Z8A6TSI                   SAT 08/09/97 09:32 Page:351
        72 000170   000000 011000                    NOP     0

    960 72 000171   000026 631400 73                 EPPR1   22
        72 000172   000000 701000 xent               TSX1    FLUSH
        72 000173   000000 011000                    NOP     0

     1160      963
     1161      964        %OUTLINE(S="'%MACRO END_TABLE_DEL_COST;'");

    966 72 000174   000060 630400 73                 EPPR0   48
        72 000175   000014 631400 73                 EPPR1   12
        72 000176   000000 701000 xent               TSX1    OUT_STR
        72 000177   000000 011000                    NOP     0

    967 72 000200   000026 631400 73                 EPPR1   22
        72 000201   000000 701000 xent               TSX1    FLUSH
        72 000202   000000 011000                    NOP     0

     1162      970        %OUTLINE(S="'    );'");

    972 72 000203   000062 630400 73                 EPPR0   50
        72 000204   000014 631400 73                 EPPR1   12
        72 000205   000000 701000 xent               TSX1    OUT_STR
        72 000206   000000 011000                    NOP     0

    973 72 000207   000026 631400 73                 EPPR1   22
        72 000210   000000 701000 xent               TSX1    FLUSH
        72 000211   000000 011000                    NOP     0

     1163      976        %OUTLINE(S="'%MEND;'");

    978 72 000212   000047 630400 73                 EPPR0   39
        72 000213   000014 631400 73                 EPPR1   12
        72 000214   000000 701000 xent               TSX1    OUT_STR
        72 000215   000000 011000                    NOP     0

    979 72 000216   000026 631400 73                 EPPR1   22
PL6.E3A0      #011=OUTPUT_COST_SYMREFS File=LR_ERRREC.:Z8A6TSI                   SAT 08/09/97 09:32 Page:352
        72 000217   000000 701000 xent               TSX1    FLUSH
        72 000220   000000 011000                    NOP     0

     1164      982
     1165      983        %OUTPUT_MMB(N="'LCS_COST'", TS=TSTATS.LCS_COST);

    985 72 000221   000064 630400 73                 EPPR0   52
        72 000222   000033 631400 73                 EPPR1   27
        72 000223   000000 701000 xent               TSX1    OUTPUT_MIN_MAX_BITS
        72 000224   000000 011000                    NOP     0

     1166      990        %OUTPUT_MMB(N="'LCS_INDX'", TS=TSTATS.LCS_INDX);

    992 72 000225   000067 630400 73                 EPPR0   55
        72 000226   000033 631400 73                 EPPR1   27
        72 000227   000000 701000 xent               TSX1    OUTPUT_MIN_MAX_BITS
        72 000230   000000 011000                    NOP     0

     1167      997        %OUTPUT_MMB(N="'LCS_LEN'",  TS=TSTATS.LCS_LEN);

    999 72 000231   000073 630400 73                 EPPR0   59
        72 000232   000033 631400 73                 EPPR1   27
        72 000233   000000 701000 xent               TSX1    OUTPUT_MIN_MAX_BITS
        72 000234   000000 011000                    NOP     0

     1168     1004        %OUTPUT_BITS(N="'LCS'", V=
              1004            "TSTATS.LCS_COST.NBITS + TSTATS.LCS_INDX.NBITS + TSTATS.LCS_LEN.NBITS");

   1006 72 000235   000225 236000 35                 LDQ     TSTATS+149
        72 000236   000233 036000 35                 ADLQ    TSTATS+155
        72 000237   000241 036000 35                 ADLQ    TSTATS+161
        72 000240   200004 756100                    STQ     4,,AUTO
        72 000241   200004 630500                    EPPR0   4,,AUTO
        72 000242   200007 450500                    STP0    7,,AUTO
        72 000243   000077 236000 73                 LDQ     63
        72 000244   200006 756100                    STQ     6,,AUTO
        72 000245   000064 236000 73                 LDQ     52
PL6.E3A0      #011=OUTPUT_COST_SYMREFS File=LR_ERRREC.:Z8A6TSI                   SAT 08/09/97 09:32 Page:353
        72 000246   200005 756100                    STQ     5,,AUTO
        72 000247   200005 630500                    EPPR0   5,,AUTO
        72 000250   000033 631400 73                 EPPR1   27
        72 000251   000000 701000 xent               TSX1    OUTPUT_BITS
        72 000252   000000 011000                    NOP     0

     1169     1011
     1170     1012        %OUTLINE(S="'%MACRO START_TABLE_LCS;'");

   1014 72 000253   000101 630400 73                 EPPR0   65
        72 000254   000014 631400 73                 EPPR1   12
        72 000255   000000 701000 xent               TSX1    OUT_STR
        72 000256   000000 011000                    NOP     0

   1015 72 000257   000026 631400 73                 EPPR1   22
        72 000260   000000 701000 xent               TSX1    FLUSH
        72 000261   000000 011000                    NOP     0

     1171     1018       %OUTLINE(S="'DCL 1 LCS(0:%LCS_LEN) BIT(%BITS_LCS) UNAL CONSTANT SYMDEF INIT(''0''B'"
              1018            );

   1020 72 000262   000104 630400 73                 EPPR0   68
        72 000263   000014 631400 73                 EPPR1   12
        72 000264   000000 701000 xent               TSX1    OUT_STR
        72 000265   000000 011000                    NOP     0

   1021 72 000266   000026 631400 73                 EPPR1   22
        72 000267   000000 701000 xent               TSX1    FLUSH
        72 000270   000000 011000                    NOP     0

     1172     1024        %OUTLINE(S="'%MEND;'");

   1026 72 000271   000047 630400 73                 EPPR0   39
        72 000272   000014 631400 73                 EPPR1   12
        72 000273   000000 701000 xent               TSX1    OUT_STR
        72 000274   000000 011000                    NOP     0

PL6.E3A0      #011=OUTPUT_COST_SYMREFS File=LR_ERRREC.:Z8A6TSI                   SAT 08/09/97 09:32 Page:354
   1027 72 000275   000026 631400 73                 EPPR1   22
        72 000276   000000 701000 xent               TSX1    FLUSH
        72 000277   000000 011000                    NOP     0

     1173     1030
     1174     1031        %OUTLINE(S="'%MACRO LCS(C=0,I=0,L=0);'");

   1033 72 000300   000107 630400 73                 EPPR0   71
        72 000301   000014 631400 73                 EPPR1   12
        72 000302   000000 701000 xent               TSX1    OUT_STR
        72 000303   000000 011000                    NOP     0

   1034 72 000304   000026 631400 73                 EPPR1   22
        72 000305   000000 701000 xent               TSX1    FLUSH
        72 000306   000000 011000                    NOP     0

     1175     1037       %OUTLINE(S="',%(CONCAT(BINBIT(C,%BITS_LCS_COST),BINBIT(I,%BITS_LCS_INDX),BINBIT(L,%B
              1037        ITS_LCS_LEN)))'");

   1039 72 000307   000112 630400 73                 EPPR0   74
        72 000310   000014 631400 73                 EPPR1   12
        72 000311   000000 701000 xent               TSX1    OUT_STR
        72 000312   000000 011000                    NOP     0

   1040 72 000313   000026 631400 73                 EPPR1   22
        72 000314   000000 701000 xent               TSX1    FLUSH
        72 000315   000000 011000                    NOP     0

     1176     1043        %OUTLINE(S="'%MEND;'");

   1045 72 000316   000047 630400 73                 EPPR0   39
        72 000317   000014 631400 73                 EPPR1   12
        72 000320   000000 701000 xent               TSX1    OUT_STR
        72 000321   000000 011000                    NOP     0

   1046 72 000322   000026 631400 73                 EPPR1   22
        72 000323   000000 701000 xent               TSX1    FLUSH
PL6.E3A0      #011=OUTPUT_COST_SYMREFS File=LR_ERRREC.:Z8A6TSI                   SAT 08/09/97 09:32 Page:355
        72 000324   000000 011000                    NOP     0

     1177     1049
     1178     1050        %OUTLINE(S="'%MACRO END_TABLE_LCS;'");

   1052 72 000325   000114 630400 73                 EPPR0   76
        72 000326   000014 631400 73                 EPPR1   12
        72 000327   000000 701000 xent               TSX1    OUT_STR
        72 000330   000000 011000                    NOP     0

   1053 72 000331   000026 631400 73                 EPPR1   22
        72 000332   000000 701000 xent               TSX1    FLUSH
        72 000333   000000 011000                    NOP     0

     1179     1056        %OUTLINE(S="'    );'");

   1058 72 000334   000062 630400 73                 EPPR0   50
        72 000335   000014 631400 73                 EPPR1   12
        72 000336   000000 701000 xent               TSX1    OUT_STR
        72 000337   000000 011000                    NOP     0

   1059 72 000340   000026 631400 73                 EPPR1   22
        72 000341   000000 701000 xent               TSX1    FLUSH
        72 000342   000000 011000                    NOP     0

     1180     1062        %OUTLINE(S="'%MEND;'");

   1064 72 000343   000047 630400 73                 EPPR0   39
        72 000344   000014 631400 73                 EPPR1   12
        72 000345   000000 701000 xent               TSX1    OUT_STR
        72 000346   000000 011000                    NOP     0

   1065 72 000347   000026 631400 73                 EPPR1   22
        72 000350   000000 701000 xent               TSX1    FLUSH
        72 000351   000000 011000                    NOP     0

     1181     1068
PL6.E3A0      #011=OUTPUT_COST_SYMREFS File=LR_ERRREC.:Z8A6TSI                   SAT 08/09/97 09:32 Page:356
     1182     1069        %OUTPUT_MMB(N="'LCS_ELEM'", TS=TSTATS.LCS_ELEM);

   1071 72 000352   000116 630400 73                 EPPR0   78
        72 000353   000033 631400 73                 EPPR1   27
        72 000354   000000 701000 xent               TSX1    OUTPUT_MIN_MAX_BITS
        72 000355   000000 011000                    NOP     0

     1183     1076
     1184     1077        %OUTLINE(S="'%MACRO START_TABLE_LCS_ELEM;'");

   1079 72 000356   000121 630400 73                 EPPR0   81
        72 000357   000014 631400 73                 EPPR1   12
        72 000360   000000 701000 xent               TSX1    OUT_STR
        72 000361   000000 011000                    NOP     0

   1080 72 000362   000026 631400 73                 EPPR1   22
        72 000363   000000 701000 xent               TSX1    FLUSH
        72 000364   000000 011000                    NOP     0

     1185     1083        %OUTLINE(S=
              1083         "'DCL LCS_ELEM(0:%LCS_ELEM_LEN) UBIN(%BITS_LCS_ELEM) UNAL CONSTANT SYMDEF INIT(0'"
              1083            );

   1085 72 000365   000123 630400 73                 EPPR0   83
        72 000366   000014 631400 73                 EPPR1   12
        72 000367   000000 701000 xent               TSX1    OUT_STR
        72 000370   000000 011000                    NOP     0

   1086 72 000371   000026 631400 73                 EPPR1   22
        72 000372   000000 701000 xent               TSX1    FLUSH
        72 000373   000000 011000                    NOP     0

     1186     1089        %OUTLINE(S="'%MEND;'");

   1091 72 000374   000047 630400 73                 EPPR0   39
        72 000375   000014 631400 73                 EPPR1   12
        72 000376   000000 701000 xent               TSX1    OUT_STR
PL6.E3A0      #011=OUTPUT_COST_SYMREFS File=LR_ERRREC.:Z8A6TSI                   SAT 08/09/97 09:32 Page:357
        72 000377   000000 011000                    NOP     0

   1092 72 000400   000026 631400 73                 EPPR1   22
        72 000401   000000 701000 xent               TSX1    FLUSH
        72 000402   000000 011000                    NOP     0

     1187     1095
     1188     1096        %OUTLINE(S="'%MACRO LCSE(E=0);'");

   1098 72 000403   000125 630400 73                 EPPR0   85
        72 000404   000014 631400 73                 EPPR1   12
        72 000405   000000 701000 xent               TSX1    OUT_STR
        72 000406   000000 011000                    NOP     0

   1099 72 000407   000026 631400 73                 EPPR1   22
        72 000410   000000 701000 xent               TSX1    FLUSH
        72 000411   000000 011000                    NOP     0

     1189     1102        %OUTLINE(S="',E'");

   1104 72 000412   000127 630400 73                 EPPR0   87
        72 000413   000014 631400 73                 EPPR1   12
        72 000414   000000 701000 xent               TSX1    OUT_STR
        72 000415   000000 011000                    NOP     0

   1105 72 000416   000026 631400 73                 EPPR1   22
        72 000417   000000 701000 xent               TSX1    FLUSH
        72 000420   000000 011000                    NOP     0

     1190     1108        %OUTLINE(S="'%MEND;'");

   1110 72 000421   000047 630400 73                 EPPR0   39
        72 000422   000014 631400 73                 EPPR1   12
        72 000423   000000 701000 xent               TSX1    OUT_STR
        72 000424   000000 011000                    NOP     0

   1111 72 000425   000026 631400 73                 EPPR1   22
PL6.E3A0      #011=OUTPUT_COST_SYMREFS File=LR_ERRREC.:Z8A6TSI                   SAT 08/09/97 09:32 Page:358
        72 000426   000000 701000 xent               TSX1    FLUSH
        72 000427   000000 011000                    NOP     0

     1191     1114
     1192     1115        %OUTLINE(S="'%MACRO END_TABLE_LCS_ELEM;'");

   1117 72 000430   000131 630400 73                 EPPR0   89
        72 000431   000014 631400 73                 EPPR1   12
        72 000432   000000 701000 xent               TSX1    OUT_STR
        72 000433   000000 011000                    NOP     0

   1118 72 000434   000026 631400 73                 EPPR1   22
        72 000435   000000 701000 xent               TSX1    FLUSH
        72 000436   000000 011000                    NOP     0

     1193     1121        %OUTLINE(S="'    );'");

   1123 72 000437   000062 630400 73                 EPPR0   50
        72 000440   000014 631400 73                 EPPR1   12
        72 000441   000000 701000 xent               TSX1    OUT_STR
        72 000442   000000 011000                    NOP     0

   1124 72 000443   000026 631400 73                 EPPR1   22
        72 000444   000000 701000 xent               TSX1    FLUSH
        72 000445   000000 011000                    NOP     0

     1194     1127        %OUTLINE(S="'%MEND;'");

   1129 72 000446   000047 630400 73                 EPPR0   39
        72 000447   000014 631400 73                 EPPR1   12
        72 000450   000000 701000 xent               TSX1    OUT_STR
        72 000451   000000 011000                    NOP     0

   1130 72 000452   000026 631400 73                 EPPR1   22
        72 000453   000000 701000 xent               TSX1    FLUSH
        72 000454   000000 011000                    NOP     0

PL6.E3A0      #011=OUTPUT_COST_SYMREFS File=LR_ERRREC.:Z8A6TSI                   SAT 08/09/97 09:32 Page:359
     1195     1133
     1196     1134        %OUTPUT_MMB(N="'LCP_NT'", TS=TSTATS.LCP_NT);

   1136 72 000455   000133 630400 73                 EPPR0   91
        72 000456   000033 631400 73                 EPPR1   27
        72 000457   000000 701000 xent               TSX1    OUTPUT_MIN_MAX_BITS
        72 000460   000000 011000                    NOP     0

     1197     1141        %OUTPUT_MMB(N="'LCP_COST'", TS=TSTATS.LCP_COST);

   1143 72 000461   000136 630400 73                 EPPR0   94
        72 000462   000033 631400 73                 EPPR1   27
        72 000463   000000 701000 xent               TSX1    OUTPUT_MIN_MAX_BITS
        72 000464   000000 011000                    NOP     0

     1198     1148        %OUTPUT_MMB(N="'LCP_LEN'", TS=TSTATS.LCP_LEN);

   1150 72 000465   000141 630400 73                 EPPR0   97
        72 000466   000033 631400 73                 EPPR1   27
        72 000467   000000 701000 xent               TSX1    OUTPUT_MIN_MAX_BITS
        72 000470   000000 011000                    NOP     0

     1199     1155        %OUTPUT_MMB(N="'LCP_INDX'", TS=TSTATS.LCP_INDX);

   1157 72 000471   000144 630400 73                 EPPR0   100
        72 000472   000033 631400 73                 EPPR1   27
        72 000473   000000 701000 xent               TSX1    OUTPUT_MIN_MAX_BITS
        72 000474   000000 011000                    NOP     0

     1200     1162       %OUTPUT_BITS(N="'LCP'", V="TSTATS.LCP_NT.NBITS + TSTATS.LCP_COST.NBITS + TSTATS.LCP_
              1162        LEN.NBITS +TSTATS.LCP_INDX.NBITS");

   1164 72 000475   000255 236000 35                 LDQ     TSTATS+173
        72 000476   000263 036000 35                 ADLQ    TSTATS+179
        72 000477   000271 036000 35                 ADLQ    TSTATS+185
        72 000500   000277 036000 35                 ADLQ    TSTATS+191
        72 000501   200004 756100                    STQ     4,,AUTO
PL6.E3A0      #011=OUTPUT_COST_SYMREFS File=LR_ERRREC.:Z8A6TSI                   SAT 08/09/97 09:32 Page:360
        72 000502   200004 630500                    EPPR0   4,,AUTO
        72 000503   200007 450500                    STP0    7,,AUTO
        72 000504   000077 236000 73                 LDQ     63
        72 000505   200006 756100                    STQ     6,,AUTO
        72 000506   000133 236000 73                 LDQ     91
        72 000507   200005 756100                    STQ     5,,AUTO
        72 000510   200005 630500                    EPPR0   5,,AUTO
        72 000511   000033 631400 73                 EPPR1   27
        72 000512   000000 701000 xent               TSX1    OUTPUT_BITS
        72 000513   000000 011000                    NOP     0

     1201     1169
     1202     1170        %OUTLINE(S="'%MACRO START_TABLE_LCP;'");

   1172 72 000514   000147 630400 73                 EPPR0   103
        72 000515   000014 631400 73                 EPPR1   12
        72 000516   000000 701000 xent               TSX1    OUT_STR
        72 000517   000000 011000                    NOP     0

   1173 72 000520   000026 631400 73                 EPPR1   22
        72 000521   000000 701000 xent               TSX1    FLUSH
        72 000522   000000 011000                    NOP     0

     1203     1176       %OUTLINE(S="'DCL 1 LCP(0:%LCP_LEN) BIT(%BITS_LCP) UNAL CONSTANT SYMDEF INIT(''0''B'"
              1176            );

   1178 72 000523   000151 630400 73                 EPPR0   105
        72 000524   000014 631400 73                 EPPR1   12
        72 000525   000000 701000 xent               TSX1    OUT_STR
        72 000526   000000 011000                    NOP     0

   1179 72 000527   000026 631400 73                 EPPR1   22
        72 000530   000000 701000 xent               TSX1    FLUSH
        72 000531   000000 011000                    NOP     0

     1204     1182        %OUTLINE(S="'%MEND;'");

PL6.E3A0      #011=OUTPUT_COST_SYMREFS File=LR_ERRREC.:Z8A6TSI                   SAT 08/09/97 09:32 Page:361
   1184 72 000532   000047 630400 73                 EPPR0   39
        72 000533   000014 631400 73                 EPPR1   12
        72 000534   000000 701000 xent               TSX1    OUT_STR
        72 000535   000000 011000                    NOP     0

   1185 72 000536   000026 631400 73                 EPPR1   22
        72 000537   000000 701000 xent               TSX1    FLUSH
        72 000540   000000 011000                    NOP     0

     1205     1188
     1206     1189        %OUTLINE(S="'%MACRO LCP(NT=0,C=0,I=0,L=0);'");

   1191 72 000541   000154 630400 73                 EPPR0   108
        72 000542   000014 631400 73                 EPPR1   12
        72 000543   000000 701000 xent               TSX1    OUT_STR
        72 000544   000000 011000                    NOP     0

   1192 72 000545   000026 631400 73                 EPPR1   22
        72 000546   000000 701000 xent               TSX1    FLUSH
        72 000547   000000 011000                    NOP     0

     1207     1195       %OUTLINE(S="',%(CONCAT(BINBIT(NT,%BITS_LCP_NT),BINBIT(C,%BITS_LCP_COST),BINBIT(I,%BI
              1195        TS_LCP_INDX),BINBIT(L,%BITS_LCP_LEN)))'");

   1197 72 000550   000157 630400 73                 EPPR0   111
        72 000551   000014 631400 73                 EPPR1   12
        72 000552   000000 701000 xent               TSX1    OUT_STR
        72 000553   000000 011000                    NOP     0

   1198 72 000554   000026 631400 73                 EPPR1   22
        72 000555   000000 701000 xent               TSX1    FLUSH
        72 000556   000000 011000                    NOP     0

     1208     1201        %OUTLINE(S="'%MEND;'");

   1203 72 000557   000161 630400 73                 EPPR0   113
        72 000560   000014 631400 73                 EPPR1   12
PL6.E3A0      #011=OUTPUT_COST_SYMREFS File=LR_ERRREC.:Z8A6TSI                   SAT 08/09/97 09:32 Page:362
        72 000561   000000 701000 xent               TSX1    OUT_STR
        72 000562   000000 011000                    NOP     0

   1204 72 000563   000026 631400 73                 EPPR1   22
        72 000564   000000 701000 xent               TSX1    FLUSH
        72 000565   000000 011000                    NOP     0

     1209     1207
     1210     1208        %OUTLINE(S="'%MACRO END_TABLE_LCP;'");

   1210 72 000566   000163 630400 73                 EPPR0   115
        72 000567   000014 631400 73                 EPPR1   12
        72 000570   000000 701000 xent               TSX1    OUT_STR
        72 000571   000000 011000                    NOP     0

   1211 72 000572   000026 631400 73                 EPPR1   22
        72 000573   000000 701000 xent               TSX1    FLUSH
        72 000574   000000 011000                    NOP     0

     1211     1214        %OUTLINE(S="'    );'");

   1216 72 000575   000165 630400 73                 EPPR0   117
        72 000576   000014 631400 73                 EPPR1   12
        72 000577   000000 701000 xent               TSX1    OUT_STR
        72 000600   000000 011000                    NOP     0

   1217 72 000601   000026 631400 73                 EPPR1   22
        72 000602   000000 701000 xent               TSX1    FLUSH
        72 000603   000000 011000                    NOP     0

     1212     1220        %OUTLINE(S="'%MEND;'");

   1222 72 000604   000161 630400 73                 EPPR0   113
        72 000605   000014 631400 73                 EPPR1   12
        72 000606   000000 701000 xent               TSX1    OUT_STR
        72 000607   000000 011000                    NOP     0

PL6.E3A0      #011=OUTPUT_COST_SYMREFS File=LR_ERRREC.:Z8A6TSI                   SAT 08/09/97 09:32 Page:363
   1223 72 000610   000026 631400 73                 EPPR1   22
        72 000611   000000 701000 xent               TSX1    FLUSH
        72 000612   000000 011000                    NOP     0

     1213     1226
     1214     1227        %OUTPUT_MMB(N="'LCP_UBOUND'", TS=TSTATS.LCP_UBOUND);

   1229 72 000613   000170 630400 73                 EPPR0   120
        72 000614   000033 631400 73                 EPPR1   27
        72 000615   000000 701000 xent               TSX1    OUTPUT_MIN_MAX_BITS
        72 000616   000000 011000                    NOP     0

     1215     1234
     1216     1235        %OUTLINE(S="'%MACRO START_TABLE_LCP_UBOUND;'");

   1237 72 000617   000174 630400 73                 EPPR0   124
        72 000620   000014 631400 73                 EPPR1   12
        72 000621   000000 701000 xent               TSX1    OUT_STR
        72 000622   000000 011000                    NOP     0

   1238 72 000623   000026 631400 73                 EPPR1   22
        72 000624   000000 701000 xent               TSX1    FLUSH
        72 000625   000000 011000                    NOP     0

     1217     1241        %OUTLINE(S="'DCL LCP_UBOUND(0:%LCP_UBOUND_LEN) UBIN(%BITS_LCP_UBOUND) UNAL CONSTANT
              1241        SYMDEF INIT(0'");

   1243 72 000626   000177 630400 73                 EPPR0   127
        72 000627   000014 631400 73                 EPPR1   12
        72 000630   000000 701000 xent               TSX1    OUT_STR
        72 000631   000000 011000                    NOP     0

   1244 72 000632   000026 631400 73                 EPPR1   22
        72 000633   000000 701000 xent               TSX1    FLUSH
        72 000634   000000 011000                    NOP     0

     1218     1247        %OUTLINE(S="'%MEND;'");
PL6.E3A0      #011=OUTPUT_COST_SYMREFS File=LR_ERRREC.:Z8A6TSI                   SAT 08/09/97 09:32 Page:364

   1249 72 000635   000161 630400 73                 EPPR0   113
        72 000636   000014 631400 73                 EPPR1   12
        72 000637   000000 701000 xent               TSX1    OUT_STR
        72 000640   000000 011000                    NOP     0

   1250 72 000641   000026 631400 73                 EPPR1   22
        72 000642   000000 701000 xent               TSX1    FLUSH
        72 000643   000000 011000                    NOP     0

     1219     1253
     1220     1254        %OUTLINE(S="'%MACRO LCPUB(U=0);'");

   1256 72 000644   000202 630400 73                 EPPR0   130
        72 000645   000014 631400 73                 EPPR1   12
        72 000646   000000 701000 xent               TSX1    OUT_STR
        72 000647   000000 011000                    NOP     0

   1257 72 000650   000026 631400 73                 EPPR1   22
        72 000651   000000 701000 xent               TSX1    FLUSH
        72 000652   000000 011000                    NOP     0

     1221     1260        %OUTLINE(S="',U'");

   1262 72 000653   000204 630400 73                 EPPR0   132
        72 000654   000014 631400 73                 EPPR1   12
        72 000655   000000 701000 xent               TSX1    OUT_STR
        72 000656   000000 011000                    NOP     0

   1263 72 000657   000026 631400 73                 EPPR1   22
        72 000660   000000 701000 xent               TSX1    FLUSH
        72 000661   000000 011000                    NOP     0

     1222     1266        %OUTLINE(S="'%MEND;'");

   1268 72 000662   000161 630400 73                 EPPR0   113
        72 000663   000014 631400 73                 EPPR1   12
PL6.E3A0      #011=OUTPUT_COST_SYMREFS File=LR_ERRREC.:Z8A6TSI                   SAT 08/09/97 09:32 Page:365
        72 000664   000000 701000 xent               TSX1    OUT_STR
        72 000665   000000 011000                    NOP     0

   1269 72 000666   000026 631400 73                 EPPR1   22
        72 000667   000000 701000 xent               TSX1    FLUSH
        72 000670   000000 011000                    NOP     0

     1223     1272
     1224     1273        %OUTLINE(S="'%MACRO END_TABLE_LCP_UBOUND;'");

   1275 72 000671   000206 630400 73                 EPPR0   134
        72 000672   000014 631400 73                 EPPR1   12
        72 000673   000000 701000 xent               TSX1    OUT_STR
        72 000674   000000 011000                    NOP     0

   1276 72 000675   000026 631400 73                 EPPR1   22
        72 000676   000000 701000 xent               TSX1    FLUSH
        72 000677   000000 011000                    NOP     0

     1225     1279        %OUTLINE(S="'    );'");

   1281 72 000700   000165 630400 73                 EPPR0   117
        72 000701   000014 631400 73                 EPPR1   12
        72 000702   000000 701000 xent               TSX1    OUT_STR
        72 000703   000000 011000                    NOP     0

   1282 72 000704   000026 631400 73                 EPPR1   22
        72 000705   000000 701000 xent               TSX1    FLUSH
        72 000706   000000 011000                    NOP     0

     1226     1285        %OUTLINE(S="'%MEND;'");

   1287 72 000707   000161 630400 73                 EPPR0   113
        72 000710   000014 631400 73                 EPPR1   12
        72 000711   000000 701000 xent               TSX1    OUT_STR
        72 000712   000000 011000                    NOP     0

PL6.E3A0      #011=OUTPUT_COST_SYMREFS File=LR_ERRREC.:Z8A6TSI                   SAT 08/09/97 09:32 Page:366
   1288 72 000713   000026 631400 73                 EPPR1   22
        72 000714   000000 701000 xent               TSX1    FLUSH
        72 000715   000000 011000                    NOP     0

     1227     1291
     1228     1292        %OUTPUT_MMB(N="'LCP_ELEM'", TS=TSTATS.LCP_ELEM);

   1294 72 000716   000210 630400 73                 EPPR0   136
        72 000717   000033 631400 73                 EPPR1   27
        72 000720   000000 701000 xent               TSX1    OUTPUT_MIN_MAX_BITS
        72 000721   000000 011000                    NOP     0

     1229     1299
     1230     1300
     1231     1301        %OUTLINE(S="'%MACRO START_TABLE_LCP_ELEM;'");

   1303 72 000722   000213 630400 73                 EPPR0   139
        72 000723   000014 631400 73                 EPPR1   12
        72 000724   000000 701000 xent               TSX1    OUT_STR
        72 000725   000000 011000                    NOP     0

   1304 72 000726   000026 631400 73                 EPPR1   22
        72 000727   000000 701000 xent               TSX1    FLUSH
        72 000730   000000 011000                    NOP     0

     1232     1307        %OUTLINE(S=
              1307         "'DCL LCP_ELEM(0:%LCP_ELEM_LEN) UBIN(%BITS_LCP_ELEM) UNAL CONSTANT SYMDEF INIT(0'"
              1307            );

   1309 72 000731   000215 630400 73                 EPPR0   141
        72 000732   000014 631400 73                 EPPR1   12
        72 000733   000000 701000 xent               TSX1    OUT_STR
        72 000734   000000 011000                    NOP     0

   1310 72 000735   000026 631400 73                 EPPR1   22
        72 000736   000000 701000 xent               TSX1    FLUSH
        72 000737   000000 011000                    NOP     0
PL6.E3A0      #011=OUTPUT_COST_SYMREFS File=LR_ERRREC.:Z8A6TSI                   SAT 08/09/97 09:32 Page:367

     1233     1313        %OUTLINE(S="'%MEND;'");

   1315 72 000740   000161 630400 73                 EPPR0   113
        72 000741   000014 631400 73                 EPPR1   12
        72 000742   000000 701000 xent               TSX1    OUT_STR
        72 000743   000000 011000                    NOP     0

   1316 72 000744   000026 631400 73                 EPPR1   22
        72 000745   000000 701000 xent               TSX1    FLUSH
        72 000746   000000 011000                    NOP     0

     1234     1319
     1235     1320        %OUTLINE(S="'%MACRO LCPE(E=0);'");

   1322 72 000747   000217 630400 73                 EPPR0   143
        72 000750   000014 631400 73                 EPPR1   12
        72 000751   000000 701000 xent               TSX1    OUT_STR
        72 000752   000000 011000                    NOP     0

   1323 72 000753   000026 631400 73                 EPPR1   22
        72 000754   000000 701000 xent               TSX1    FLUSH
        72 000755   000000 011000                    NOP     0

     1236     1326        %OUTLINE(S="',E'");

   1328 72 000756   000221 630400 73                 EPPR0   145
        72 000757   000014 631400 73                 EPPR1   12
        72 000760   000000 701000 xent               TSX1    OUT_STR
        72 000761   000000 011000                    NOP     0

   1329 72 000762   000026 631400 73                 EPPR1   22
        72 000763   000000 701000 xent               TSX1    FLUSH
        72 000764   000000 011000                    NOP     0

     1237     1332        %OUTLINE(S="'%MEND;'");

PL6.E3A0      #011=OUTPUT_COST_SYMREFS File=LR_ERRREC.:Z8A6TSI                   SAT 08/09/97 09:32 Page:368
   1334 72 000765   000161 630400 73                 EPPR0   113
        72 000766   000014 631400 73                 EPPR1   12
        72 000767   000000 701000 xent               TSX1    OUT_STR
        72 000770   000000 011000                    NOP     0

   1335 72 000771   000026 631400 73                 EPPR1   22
        72 000772   000000 701000 xent               TSX1    FLUSH
        72 000773   000000 011000                    NOP     0

     1238     1338
     1239     1339        %OUTLINE(S="'%MACRO END_TABLE_LCP_ELEM;'");

   1341 72 000774   000223 630400 73                 EPPR0   147
        72 000775   000014 631400 73                 EPPR1   12
        72 000776   000000 701000 xent               TSX1    OUT_STR
        72 000777   000000 011000                    NOP     0

   1342 72 001000   000026 631400 73                 EPPR1   22
        72 001001   000000 701000 xent               TSX1    FLUSH
        72 001002   000000 011000                    NOP     0

     1240     1345        %OUTLINE(S="'    );'");

   1347 72 001003   000165 630400 73                 EPPR0   117
        72 001004   000014 631400 73                 EPPR1   12
        72 001005   000000 701000 xent               TSX1    OUT_STR
        72 001006   000000 011000                    NOP     0

   1348 72 001007   000026 631400 73                 EPPR1   22
        72 001010   000000 701000 xent               TSX1    FLUSH
        72 001011   000000 011000                    NOP     0

     1241     1351        %OUTLINE(S="'%MEND;'");

   1353 72 001012   000161 630400 73                 EPPR0   113
        72 001013   000014 631400 73                 EPPR1   12
        72 001014   000000 701000 xent               TSX1    OUT_STR
PL6.E3A0      #011=OUTPUT_COST_SYMREFS File=LR_ERRREC.:Z8A6TSI                   SAT 08/09/97 09:32 Page:369
        72 001015   000000 011000                    NOP     0

   1354 72 001016   000026 631400 73                 EPPR1   22
        72 001017   000000 701000 xent               TSX1    FLUSH
        72 001020   000000 011000                    NOP     0

     1242     1357
     1243     1358
     1244     1359
     1245     1360        %OUTLINE(S="'%MACRO ERROR_COST_SYMREFS;'");

   1362 72 001021   000225 630400 73                 EPPR0   149
        72 001022   000014 631400 73                 EPPR1   12
        72 001023   000000 701000 xent               TSX1    OUT_STR
        72 001024   000000 011000                    NOP     0

   1363 72 001025   000026 631400 73                 EPPR1   22
        72 001026   000000 701000 xent               TSX1    FLUSH
        72 001027   000000 011000                    NOP     0

     1246     1366
     1247     1367        %OUT_STR(S="'DCL DEL_COST(0:%DEL_COST_LEN) '");

   1368 72 001030   000227 630400 73                 EPPR0   151
        72 001031   000014 631400 73                 EPPR1   12
        72 001032   000000 701000 xent               TSX1    OUT_STR
        72 001033   000000 011000                    NOP     0

     1248     1370        %OUTSIGN(V=DEL_COST);

   1371 72 001034   000216 234000 35                 SZN     TSTATS+142
        72 001035   001043 605000 72                 TPL     s:1377

   1373 72 001036   000232 630400 73                 EPPR0   154
        72 001037   000014 631400 73                 EPPR1   12
        72 001040   000000 701000 xent               TSX1    OUT_STR
        72 001041   000000 011000                    NOP     0
PL6.E3A0      #011=OUTPUT_COST_SYMREFS File=LR_ERRREC.:Z8A6TSI                   SAT 08/09/97 09:32 Page:370
        72 001042   001047 710000 72                 TRA     s:1382

   1377 72 001043   000235 630400 73                 EPPR0   157
        72 001044   000014 631400 73                 EPPR1   12
        72 001045   000000 701000 xent               TSX1    OUT_STR
        72 001046   000000 011000                    NOP     0

     1249     1380        %OUTLINE(S="'BIN(%BITS_DEL_COST) UNAL SYMREF READONLY;'");

   1382 72 001047   000240 630400 73                 EPPR0   160
        72 001050   000014 631400 73                 EPPR1   12
        72 001051   000000 701000 xent               TSX1    OUT_STR
        72 001052   000000 011000                    NOP     0

   1383 72 001053   000026 631400 73                 EPPR1   22
        72 001054   000000 701000 xent               TSX1    FLUSH
        72 001055   000000 011000                    NOP     0

     1250     1386
     1251     1387        %OUTLINE(S="'DCL 1 LCS(0:%LCS_LEN) UNAL SYMREF READONLY,'");

   1389 72 001056   000243 630400 73                 EPPR0   163
        72 001057   000014 631400 73                 EPPR1   12
        72 001060   000000 701000 xent               TSX1    OUT_STR
        72 001061   000000 011000                    NOP     0

   1390 72 001062   000026 631400 73                 EPPR1   22
        72 001063   000000 701000 xent               TSX1    FLUSH
        72 001064   000000 011000                    NOP     0

     1252     1393        %OUT_STR(S="'      2 COST '");

   1394 72 001065   000246 630400 73                 EPPR0   166
        72 001066   000014 631400 73                 EPPR1   12
        72 001067   000000 701000 xent               TSX1    OUT_STR
        72 001070   000000 011000                    NOP     0

PL6.E3A0      #011=OUTPUT_COST_SYMREFS File=LR_ERRREC.:Z8A6TSI                   SAT 08/09/97 09:32 Page:371
     1253     1396        %OUTSIGN(V=LCS_COST);

   1397 72 001071   000224 234000 35                 SZN     TSTATS+148
        72 001072   001100 605000 72                 TPL     s:1403

   1399 72 001073   000232 630400 73                 EPPR0   154
        72 001074   000014 631400 73                 EPPR1   12
        72 001075   000000 701000 xent               TSX1    OUT_STR
        72 001076   000000 011000                    NOP     0
        72 001077   001104 710000 72                 TRA     s:1408

   1403 72 001100   000235 630400 73                 EPPR0   157
        72 001101   000014 631400 73                 EPPR1   12
        72 001102   000000 701000 xent               TSX1    OUT_STR
        72 001103   000000 011000                    NOP     0

     1254     1406        %OUTLINE(S="'BIN(%BITS_LCS_COST) UNAL,'");

   1408 72 001104   000251 630400 73                 EPPR0   169
        72 001105   000014 631400 73                 EPPR1   12
        72 001106   000000 701000 xent               TSX1    OUT_STR
        72 001107   000000 011000                    NOP     0

   1409 72 001110   000026 631400 73                 EPPR1   22
        72 001111   000000 701000 xent               TSX1    FLUSH
        72 001112   000000 011000                    NOP     0

     1255     1412        %OUT_STR(S="'      2 INDX '");

   1413 72 001113   000253 630400 73                 EPPR0   171
        72 001114   000014 631400 73                 EPPR1   12
        72 001115   000000 701000 xent               TSX1    OUT_STR
        72 001116   000000 011000                    NOP     0

     1256     1415        %OUTSIGN(V=LCS_INDX);

   1416 72 001117   000232 234000 35                 SZN     TSTATS+154
PL6.E3A0      #011=OUTPUT_COST_SYMREFS File=LR_ERRREC.:Z8A6TSI                   SAT 08/09/97 09:32 Page:372
        72 001120   001126 605000 72                 TPL     s:1422

   1418 72 001121   000232 630400 73                 EPPR0   154
        72 001122   000014 631400 73                 EPPR1   12
        72 001123   000000 701000 xent               TSX1    OUT_STR
        72 001124   000000 011000                    NOP     0
        72 001125   001132 710000 72                 TRA     s:1427

   1422 72 001126   000235 630400 73                 EPPR0   157
        72 001127   000014 631400 73                 EPPR1   12
        72 001130   000000 701000 xent               TSX1    OUT_STR
        72 001131   000000 011000                    NOP     0

     1257     1425        %OUTLINE(S="'BIN(%BITS_LCS_INDX) UNAL,'");

   1427 72 001132   000255 630400 73                 EPPR0   173
        72 001133   000014 631400 73                 EPPR1   12
        72 001134   000000 701000 xent               TSX1    OUT_STR
        72 001135   000000 011000                    NOP     0

   1428 72 001136   000026 631400 73                 EPPR1   22
        72 001137   000000 701000 xent               TSX1    FLUSH
        72 001140   000000 011000                    NOP     0

     1258     1431        %OUT_STR(S="'      2 LEN '");

   1432 72 001141   000260 630400 73                 EPPR0   176
        72 001142   000014 631400 73                 EPPR1   12
        72 001143   000000 701000 xent               TSX1    OUT_STR
        72 001144   000000 011000                    NOP     0

     1259     1434        %OUTSIGN(V=LCS_LEN);

   1435 72 001145   000240 234000 35                 SZN     TSTATS+160
        72 001146   001154 605000 72                 TPL     s:1441

   1437 72 001147   000232 630400 73                 EPPR0   154
PL6.E3A0      #011=OUTPUT_COST_SYMREFS File=LR_ERRREC.:Z8A6TSI                   SAT 08/09/97 09:32 Page:373
        72 001150   000014 631400 73                 EPPR1   12
        72 001151   000000 701000 xent               TSX1    OUT_STR
        72 001152   000000 011000                    NOP     0
        72 001153   001160 710000 72                 TRA     s:1446

   1441 72 001154   000235 630400 73                 EPPR0   157
        72 001155   000014 631400 73                 EPPR1   12
        72 001156   000000 701000 xent               TSX1    OUT_STR
        72 001157   000000 011000                    NOP     0

     1260     1444        %OUTLINE(S="'BIN(%BITS_LCS_LEN) UNAL;'");

   1446 72 001160   000262 630400 73                 EPPR0   178
        72 001161   000014 631400 73                 EPPR1   12
        72 001162   000000 701000 xent               TSX1    OUT_STR
        72 001163   000000 011000                    NOP     0

   1447 72 001164   000026 631400 73                 EPPR1   22
        72 001165   000000 701000 xent               TSX1    FLUSH
        72 001166   000000 011000                    NOP     0

     1261     1450        %OUT_STR(S="'DCL LCS_ELEM(0:%LCS_ELEM_LEN) '");

   1451 72 001167   000264 630400 73                 EPPR0   180
        72 001170   000014 631400 73                 EPPR1   12
        72 001171   000000 701000 xent               TSX1    OUT_STR
        72 001172   000000 011000                    NOP     0

     1262     1453        %OUTSIGN(V=LCS_ELEM);

   1454 72 001173   000246 234000 35                 SZN     TSTATS+166
        72 001174   001202 605000 72                 TPL     s:1460

   1456 72 001175   000232 630400 73                 EPPR0   154
        72 001176   000014 631400 73                 EPPR1   12
        72 001177   000000 701000 xent               TSX1    OUT_STR
        72 001200   000000 011000                    NOP     0
PL6.E3A0      #011=OUTPUT_COST_SYMREFS File=LR_ERRREC.:Z8A6TSI                   SAT 08/09/97 09:32 Page:374
        72 001201   001206 710000 72                 TRA     s:1465

   1460 72 001202   000235 630400 73                 EPPR0   157
        72 001203   000014 631400 73                 EPPR1   12
        72 001204   000000 701000 xent               TSX1    OUT_STR
        72 001205   000000 011000                    NOP     0

     1263     1463        %OUTLINE(S="'BIN(%BITS_LCS_ELEM) UNAL SYMREF READONLY;'");

   1465 72 001206   000266 630400 73                 EPPR0   182
        72 001207   000014 631400 73                 EPPR1   12
        72 001210   000000 701000 xent               TSX1    OUT_STR
        72 001211   000000 011000                    NOP     0

   1466 72 001212   000026 631400 73                 EPPR1   22
        72 001213   000000 701000 xent               TSX1    FLUSH
        72 001214   000000 011000                    NOP     0

     1264     1469        %OUTLINE(S="'DCL 1 LCP(0:%LCP_LEN) UNAL SYMREF READONLY,'");

   1471 72 001215   000270 630400 73                 EPPR0   184
        72 001216   000014 631400 73                 EPPR1   12
        72 001217   000000 701000 xent               TSX1    OUT_STR
        72 001220   000000 011000                    NOP     0

   1472 72 001221   000026 631400 73                 EPPR1   22
        72 001222   000000 701000 xent               TSX1    FLUSH
        72 001223   000000 011000                    NOP     0

     1265     1475        %OUT_STR(S="'      2 NT '");

   1476 72 001224   000273 630400 73                 EPPR0   187
        72 001225   000014 631400 73                 EPPR1   12
        72 001226   000000 701000 xent               TSX1    OUT_STR
        72 001227   000000 011000                    NOP     0

     1266     1478        %OUTSIGN(V=LCP_NT);
PL6.E3A0      #011=OUTPUT_COST_SYMREFS File=LR_ERRREC.:Z8A6TSI                   SAT 08/09/97 09:32 Page:375

   1479 72 001230   000254 234000 35                 SZN     TSTATS+172
        72 001231   001237 605000 72                 TPL     s:1485

   1481 72 001232   000232 630400 73                 EPPR0   154
        72 001233   000014 631400 73                 EPPR1   12
        72 001234   000000 701000 xent               TSX1    OUT_STR
        72 001235   000000 011000                    NOP     0
        72 001236   001243 710000 72                 TRA     s:1490

   1485 72 001237   000235 630400 73                 EPPR0   157
        72 001240   000014 631400 73                 EPPR1   12
        72 001241   000000 701000 xent               TSX1    OUT_STR
        72 001242   000000 011000                    NOP     0

     1267     1488        %OUTLINE(S="'BIN(%BITS_LCP_NT) UNAL,'");

   1490 72 001243   000275 630400 73                 EPPR0   189
        72 001244   000014 631400 73                 EPPR1   12
        72 001245   000000 701000 xent               TSX1    OUT_STR
        72 001246   000000 011000                    NOP     0

   1491 72 001247   000026 631400 73                 EPPR1   22
        72 001250   000000 701000 xent               TSX1    FLUSH
        72 001251   000000 011000                    NOP     0

     1268     1494        %OUT_STR(S="'      2 COST '");

   1495 72 001252   000277 630400 73                 EPPR0   191
        72 001253   000014 631400 73                 EPPR1   12
        72 001254   000000 701000 xent               TSX1    OUT_STR
        72 001255   000000 011000                    NOP     0

     1269     1497        %OUTSIGN(V=LCP_COST);

   1498 72 001256   000262 234000 35                 SZN     TSTATS+178
        72 001257   001265 605000 72                 TPL     s:1504
PL6.E3A0      #011=OUTPUT_COST_SYMREFS File=LR_ERRREC.:Z8A6TSI                   SAT 08/09/97 09:32 Page:376

   1500 72 001260   000232 630400 73                 EPPR0   154
        72 001261   000014 631400 73                 EPPR1   12
        72 001262   000000 701000 xent               TSX1    OUT_STR
        72 001263   000000 011000                    NOP     0
        72 001264   001271 710000 72                 TRA     s:1509

   1504 72 001265   000235 630400 73                 EPPR0   157
        72 001266   000014 631400 73                 EPPR1   12
        72 001267   000000 701000 xent               TSX1    OUT_STR
        72 001270   000000 011000                    NOP     0

     1270     1507        %OUTLINE(S="'BIN(%BITS_LCP_COST) UNAL,'");

   1509 72 001271   000301 630400 73                 EPPR0   193
        72 001272   000014 631400 73                 EPPR1   12
        72 001273   000000 701000 xent               TSX1    OUT_STR
        72 001274   000000 011000                    NOP     0

   1510 72 001275   000026 631400 73                 EPPR1   22
        72 001276   000000 701000 xent               TSX1    FLUSH
        72 001277   000000 011000                    NOP     0

     1271     1513        %OUT_STR(S="'      2 INDX '");

   1514 72 001300   000303 630400 73                 EPPR0   195
        72 001301   000014 631400 73                 EPPR1   12
        72 001302   000000 701000 xent               TSX1    OUT_STR
        72 001303   000000 011000                    NOP     0

     1272     1516        %OUTSIGN(V=LCP_INDX);

   1517 72 001304   000276 234000 35                 SZN     TSTATS+190
        72 001305   001313 605000 72                 TPL     s:1523

   1519 72 001306   000232 630400 73                 EPPR0   154
        72 001307   000014 631400 73                 EPPR1   12
PL6.E3A0      #011=OUTPUT_COST_SYMREFS File=LR_ERRREC.:Z8A6TSI                   SAT 08/09/97 09:32 Page:377
        72 001310   000000 701000 xent               TSX1    OUT_STR
        72 001311   000000 011000                    NOP     0
        72 001312   001317 710000 72                 TRA     s:1528

   1523 72 001313   000235 630400 73                 EPPR0   157
        72 001314   000014 631400 73                 EPPR1   12
        72 001315   000000 701000 xent               TSX1    OUT_STR
        72 001316   000000 011000                    NOP     0

     1273     1526        %OUTLINE(S="'BIN(%BITS_LCP_INDX) UNAL,'");

   1528 72 001317   000305 630400 73                 EPPR0   197
        72 001320   000014 631400 73                 EPPR1   12
        72 001321   000000 701000 xent               TSX1    OUT_STR
        72 001322   000000 011000                    NOP     0

   1529 72 001323   000026 631400 73                 EPPR1   22
        72 001324   000000 701000 xent               TSX1    FLUSH
        72 001325   000000 011000                    NOP     0

     1274     1532        %OUT_STR(S="'      2 LEN '");

   1533 72 001326   000307 630400 73                 EPPR0   199
        72 001327   000014 631400 73                 EPPR1   12
        72 001330   000000 701000 xent               TSX1    OUT_STR
        72 001331   000000 011000                    NOP     0

     1275     1535        %OUTSIGN(V=LCP_LEN);

   1536 72 001332   000270 234000 35                 SZN     TSTATS+184
        72 001333   001341 605000 72                 TPL     s:1542

   1538 72 001334   000232 630400 73                 EPPR0   154
        72 001335   000014 631400 73                 EPPR1   12
        72 001336   000000 701000 xent               TSX1    OUT_STR
        72 001337   000000 011000                    NOP     0
        72 001340   001345 710000 72                 TRA     s:1547
PL6.E3A0      #011=OUTPUT_COST_SYMREFS File=LR_ERRREC.:Z8A6TSI                   SAT 08/09/97 09:32 Page:378

   1542 72 001341   000235 630400 73                 EPPR0   157
        72 001342   000014 631400 73                 EPPR1   12
        72 001343   000000 701000 xent               TSX1    OUT_STR
        72 001344   000000 011000                    NOP     0

     1276     1545        %OUTLINE(S="'BIN(%BITS_LCP_LEN) UNAL;'");

   1547 72 001345   000311 630400 73                 EPPR0   201
        72 001346   000014 631400 73                 EPPR1   12
        72 001347   000000 701000 xent               TSX1    OUT_STR
        72 001350   000000 011000                    NOP     0

   1548 72 001351   000026 631400 73                 EPPR1   22
        72 001352   000000 701000 xent               TSX1    FLUSH
        72 001353   000000 011000                    NOP     0

     1277     1551        %OUT_STR(S="'DCL LCP_UBOUND(0:%LCP_UBOUND_LEN) '");

   1552 72 001354   000314 630400 73                 EPPR0   204
        72 001355   000014 631400 73                 EPPR1   12
        72 001356   000000 701000 xent               TSX1    OUT_STR
        72 001357   000000 011000                    NOP     0

     1278     1554        %OUTSIGN(V=LCP_UBOUND);

   1555 72 001360   000304 234000 35                 SZN     TSTATS+196
        72 001361   001367 605000 72                 TPL     s:1561

   1557 72 001362   000232 630400 73                 EPPR0   154
        72 001363   000014 631400 73                 EPPR1   12
        72 001364   000000 701000 xent               TSX1    OUT_STR
        72 001365   000000 011000                    NOP     0
        72 001366   001373 710000 72                 TRA     s:1566

   1561 72 001367   000235 630400 73                 EPPR0   157
        72 001370   000014 631400 73                 EPPR1   12
PL6.E3A0      #011=OUTPUT_COST_SYMREFS File=LR_ERRREC.:Z8A6TSI                   SAT 08/09/97 09:32 Page:379
        72 001371   000000 701000 xent               TSX1    OUT_STR
        72 001372   000000 011000                    NOP     0

     1279     1564        %OUTLINE(S="'BIN(%BITS_LCP_UBOUND) UNAL SYMREF READONLY;'");

   1566 72 001373   000316 630400 73                 EPPR0   206
        72 001374   000014 631400 73                 EPPR1   12
        72 001375   000000 701000 xent               TSX1    OUT_STR
        72 001376   000000 011000                    NOP     0

   1567 72 001377   000026 631400 73                 EPPR1   22
        72 001400   000000 701000 xent               TSX1    FLUSH
        72 001401   000000 011000                    NOP     0

     1280     1570        %OUT_STR(S="'DCL LCP_ELEM(0:%LCP_ELEM_LEN) '");

   1571 72 001402   000320 630400 73                 EPPR0   208
        72 001403   000014 631400 73                 EPPR1   12
        72 001404   000000 701000 xent               TSX1    OUT_STR
        72 001405   000000 011000                    NOP     0

     1281     1573        %OUTSIGN(V=LCP_ELEM);

   1574 72 001406   000312 234000 35                 SZN     TSTATS+202
        72 001407   001415 605000 72                 TPL     s:1580

   1576 72 001410   000232 630400 73                 EPPR0   154
        72 001411   000014 631400 73                 EPPR1   12
        72 001412   000000 701000 xent               TSX1    OUT_STR
        72 001413   000000 011000                    NOP     0
        72 001414   001421 710000 72                 TRA     s:1585

   1580 72 001415   000235 630400 73                 EPPR0   157
        72 001416   000014 631400 73                 EPPR1   12
        72 001417   000000 701000 xent               TSX1    OUT_STR
        72 001420   000000 011000                    NOP     0

PL6.E3A0      #011=OUTPUT_COST_SYMREFS File=LR_ERRREC.:Z8A6TSI                   SAT 08/09/97 09:32 Page:380
     1282     1583        %OUTLINE(S="'BIN(%BITS_LCP_ELEM) UNAL SYMREF READONLY;'");

   1585 72 001421   000322 630400 73                 EPPR0   210
        72 001422   000014 631400 73                 EPPR1   12
        72 001423   000000 701000 xent               TSX1    OUT_STR
        72 001424   000000 011000                    NOP     0

   1586 72 001425   000026 631400 73                 EPPR1   22
        72 001426   000000 701000 xent               TSX1    FLUSH
        72 001427   000000 011000                    NOP     0

     1283     1589        %OUTLINE(S="'%MEND;'");

   1591 72 001430   000324 630400 73                 EPPR0   212
        72 001431   000014 631400 73                 EPPR1   12
        72 001432   000000 701000 xent               TSX1    OUT_STR
        72 001433   000000 011000                    NOP     0

   1592 72 001434   000026 631400 73                 EPPR1   22
        72 001435   000000 701000 xent               TSX1    FLUSH
        72 001436   000000 011000                    NOP     0

     1284     1595
     1285     1596    1   END OUTPUT_COST_SYMREFS;

   1596 72 001437   000000 702200 xent               TSX2  ! X66_ARET

PL6.E3A0      #011=OUTPUT_COST_SYMREFS File=LR_ERRREC.:Z8A6TSI                   SAT 08/09/97 09:32 Page:381
--  Include file information  --

   LR_ERR_EXT.:Z8A6TOU  cannot be made into a system file and is referenced.
   LR_CNFG_EXT.:Z8A6TOU  cannot be made into a system file and is referenced.
   LR_IO_EXT.:Z8A6TOU  cannot be made into a system file and is referenced.
   LR_GRAM_EXT.:Z8A6TOU  cannot be made into a system file and is referenced.
      No diagnostics issued in procedure OUTPUT_COST_SYMREFS.
PL6.E3A0      #011=OUTPUT_COST_SYMREFS File=LR_ERRREC.:Z8A6TSI                   SAT 08/09/97 09:32 Page:382

 **** Variables and constants ****

  ****  Section 000 LblCom OUT_DCBN

  ****  Scalars and arrays  ****
OctLoc.c.b A Datatyp(siz) R M Lvl/name                 OctLoc.c.b A Datatyp(siz) R M Lvl/name

     0-0-0/w SBIN        r     1 OUT_DCBN

  ****  Section 006 LblCom SYM_PTRS

  ****  Scalars and arrays  ****
OctLoc.c.b A Datatyp(siz) R M Lvl/name                 OctLoc.c.b A Datatyp(siz) R M Lvl/name

     0-0-0/w PTR               1 SYM_PTRS(0:1400)

  ****  Section 007 LblCom RIGHT_PARTS

  ****  Scalars and arrays  ****
OctLoc.c.b A Datatyp(siz) R M Lvl/name                 OctLoc.c.b A Datatyp(siz) R M Lvl/name

     0-0-0/h SBIN(18)          1 RIGHT_PARTS(0:8000)

  ****  Section 008 LblCom PROD

  ****  Scalars and arrays  ****
OctLoc.c.b A Datatyp(siz) R M Lvl/name                 OctLoc.c.b A Datatyp(siz) R M Lvl/name

     0-0-0/h STRC(72)          1 PROD(0:1500)

  ****  Section 009 LblCom NR_PROD

  ****  Scalars and arrays  ****
OctLoc.c.b A Datatyp(siz) R M Lvl/name                 OctLoc.c.b A Datatyp(siz) R M Lvl/name

     0-0-0/w SBIN              1 NR_PROD

PL6.E3A0      #011=OUTPUT_COST_SYMREFS File=LR_ERRREC.:Z8A6TSI                   SAT 08/09/97 09:32 Page:383
  ****  Section 010 LblCom NR_SYMS

  ****  Scalars and arrays  ****
OctLoc.c.b A Datatyp(siz) R M Lvl/name                 OctLoc.c.b A Datatyp(siz) R M Lvl/name

     0-0-0/w SBIN              1 NR_SYMS

  ****  Section 011 LblCom NR_TERM

  ****  Scalars and arrays  ****
OctLoc.c.b A Datatyp(siz) R M Lvl/name                 OctLoc.c.b A Datatyp(siz) R M Lvl/name

     0-0-0/w SBIN              1 NR_TERM

  ****  Section 012 LblCom LAST_ACT

  ****  Scalars and arrays  ****
OctLoc.c.b A Datatyp(siz) R M Lvl/name                 OctLoc.c.b A Datatyp(siz) R M Lvl/name

     0-0-0/w SBIN              1 LAST_ACT

  ****  Section 013 LblCom LAST_NULL

  ****  Scalars and arrays  ****
OctLoc.c.b A Datatyp(siz) R M Lvl/name                 OctLoc.c.b A Datatyp(siz) R M Lvl/name

     0-0-0/w SBIN              1 LAST_NULL

  ****  Section 014 LblCom NR_ONRIGHT

  ****  Scalars and arrays  ****
OctLoc.c.b A Datatyp(siz) R M Lvl/name                 OctLoc.c.b A Datatyp(siz) R M Lvl/name

     0-0-0/w SBIN              1 NR_ONRIGHT

  ****  Section 015 LblCom NR_NT

PL6.E3A0      #011=OUTPUT_COST_SYMREFS File=LR_ERRREC.:Z8A6TSI                   SAT 08/09/97 09:32 Page:384
  ****  Scalars and arrays  ****
OctLoc.c.b A Datatyp(siz) R M Lvl/name                 OctLoc.c.b A Datatyp(siz) R M Lvl/name

     0-0-0/w SBIN              1 NR_NT

  ****  Section 016 LblCom PROD_LEN_MAX_EVER

  ****  Scalars and arrays  ****
OctLoc.c.b A Datatyp(siz) R M Lvl/name                 OctLoc.c.b A Datatyp(siz) R M Lvl/name

     0-0-0/w SBIN              1 PROD_LEN_MAX_EVER

  ****  Section 017 LblCom LAST_ORDER_SPECIFIED

  ****  Scalars and arrays  ****
OctLoc.c.b A Datatyp(siz) R M Lvl/name                 OctLoc.c.b A Datatyp(siz) R M Lvl/name

     0-0-0/w SBIN              1 LAST_ORDER_SPECIFIED

  ****  Section 018 LblCom SEMANTIC_ORDERING

  ****  Scalars and arrays  ****
OctLoc.c.b A Datatyp(siz) R M Lvl/name                 OctLoc.c.b A Datatyp(siz) R M Lvl/name

     0-0-0/b BIT               1 SEMANTIC_ORDERING

  ****  Section 019 LblCom ERR_SEV

  ****  Scalars and arrays  ****
OctLoc.c.b A Datatyp(siz) R M Lvl/name                 OctLoc.c.b A Datatyp(siz) R M Lvl/name

     0-0-0/w SBIN              1 ERR_SEV

  ****  Section 020 LblCom SET_LENGTHB

  ****  Scalars and arrays  ****
OctLoc.c.b A Datatyp(siz) R M Lvl/name                 OctLoc.c.b A Datatyp(siz) R M Lvl/name
PL6.E3A0      #011=OUTPUT_COST_SYMREFS File=LR_ERRREC.:Z8A6TSI                   SAT 08/09/97 09:32 Page:385

     0-0-0/w SBIN              1 SET_LENGTHB

  ****  Section 021 LblCom SET_LENGTHW

  ****  Scalars and arrays  ****
OctLoc.c.b A Datatyp(siz) R M Lvl/name                 OctLoc.c.b A Datatyp(siz) R M Lvl/name

     0-0-0/w SBIN              1 SET_LENGTHW

  ****  Section 022 LblCom EOF_SYMBOL_PTR

  ****  Scalars and arrays  ****
OctLoc.c.b A Datatyp(siz) R M Lvl/name                 OctLoc.c.b A Datatyp(siz) R M Lvl/name

     0-0-0/w PTR               1 EOF_SYMBOL_PTR

  ****  Section 023 LblCom ERROR_SYMBOL_PTR

  ****  Scalars and arrays  ****
OctLoc.c.b A Datatyp(siz) R M Lvl/name                 OctLoc.c.b A Datatyp(siz) R M Lvl/name

     0-0-0/w PTR               1 ERROR_SYMBOL_PTR

  ****  Section 024 LblCom BOF_SYMBOL_PTR

  ****  Scalars and arrays  ****
OctLoc.c.b A Datatyp(siz) R M Lvl/name                 OctLoc.c.b A Datatyp(siz) R M Lvl/name

     0-0-0/w PTR               1 BOF_SYMBOL_PTR

  ****  Section 025 LblCom OPTIONS

  ****  Scalars and arrays  ****
OctLoc.c.b A Datatyp(siz) R M Lvl/name                 OctLoc.c.b A Datatyp(siz) R M Lvl/name

     0-0-0/b BIT               1 OPTIONS(0:25)
PL6.E3A0      #011=OUTPUT_COST_SYMREFS File=LR_ERRREC.:Z8A6TSI                   SAT 08/09/97 09:32 Page:386

  ****  Section 026 LblCom OPTIONS_TEXT

  ****  Scalars and arrays  ****
OctLoc.c.b A Datatyp(siz) R M Lvl/name                 OctLoc.c.b A Datatyp(siz) R M Lvl/name

     0-0-0/c CHAR(4)           1 OPTIONS_TEXT(0:25)

  ****  Section 027 LblCom INSTR

  ****  Scalars and arrays  ****
OctLoc.c.b A Datatyp(siz) R M Lvl/name                 OctLoc.c.b A Datatyp(siz) R M Lvl/name

     0-0-0/c CHAR              1 INSTR(0:511)               0-0-0/c CHAR(512)         1 INSTRCHR

  ****  Section 028 LblCom INSTR_LISTED

  ****  Scalars and arrays  ****
OctLoc.c.b A Datatyp(siz) R M Lvl/name                 OctLoc.c.b A Datatyp(siz) R M Lvl/name

     0-0-0/b BIT               1 INSTR_LISTED

  ****  Section 029 LblCom INSTR_LEN

  ****  Scalars and arrays  ****
OctLoc.c.b A Datatyp(siz) R M Lvl/name                 OctLoc.c.b A Datatyp(siz) R M Lvl/name

     0-0-0/w SBIN              1 INSTR_LEN

  ****  Section 030 LblCom INSTR_INDX

  ****  Scalars and arrays  ****
OctLoc.c.b A Datatyp(siz) R M Lvl/name                 OctLoc.c.b A Datatyp(siz) R M Lvl/name

     0-0-0/w SBIN              1 INSTR_INDX

  ****  Section 031 LblCom EOF_FLAG
PL6.E3A0      #011=OUTPUT_COST_SYMREFS File=LR_ERRREC.:Z8A6TSI                   SAT 08/09/97 09:32 Page:387

  ****  Scalars and arrays  ****
OctLoc.c.b A Datatyp(siz) R M Lvl/name                 OctLoc.c.b A Datatyp(siz) R M Lvl/name

     0-0-0/b BIT               1 EOF_FLAG

  ****  Section 032 LblCom KEY_REC

  ****  Scalars and arrays  ****
OctLoc.c.b A Datatyp(siz) R M Lvl/name                 OctLoc.c.b A Datatyp(siz) R M Lvl/name

     0-0-0/c CHAR(10)          1 KEY_REC

  ****  Section 033 LblCom LINE

  ****  Scalars and arrays  ****
OctLoc.c.b A Datatyp(siz) R M Lvl/name                 OctLoc.c.b A Datatyp(siz) R M Lvl/name

     0-0-0/c CHAR(109)         1 LINE

  ****  Section 034 LblCom LINELEN

  ****  Scalars and arrays  ****
OctLoc.c.b A Datatyp(siz) R M Lvl/name                 OctLoc.c.b A Datatyp(siz) R M Lvl/name

     0-0-0/w SBIN              1 LINELEN

  ****  Section 035 LblCom TSTATS

  ****  Scalars and arrays  ****
OctLoc.c.b A Datatyp(siz) R M Lvl/name                 OctLoc.c.b A Datatyp(siz) R M Lvl/name

     0-0-0/w STRC(7380)  r     1 TSTATS

  ****  Section 036 LblCom C#_TO_$

  ****  Scalars and arrays  ****
PL6.E3A0      #011=OUTPUT_COST_SYMREFS File=LR_ERRREC.:Z8A6TSI                   SAT 08/09/97 09:32 Page:388
OctLoc.c.b A Datatyp(siz) R M Lvl/name                 OctLoc.c.b A Datatyp(siz) R M Lvl/name

     0-0-0/w PTR               1 C#_TO_$(0:2200)

  ****  Section 037 LblCom NR_CONFIG

  ****  Scalars and arrays  ****
OctLoc.c.b A Datatyp(siz) R M Lvl/name                 OctLoc.c.b A Datatyp(siz) R M Lvl/name

     0-0-0/w SBIN              1 NR_CONFIG

  ****  Section 038 LblCom INIT_CONFIG

  ****  Scalars and arrays  ****
OctLoc.c.b A Datatyp(siz) R M Lvl/name                 OctLoc.c.b A Datatyp(siz) R M Lvl/name

     0-0-0/w SBIN              1 INIT_CONFIG

  ****  Section 039 LblCom MAX_BASIS_ITEMS

  ****  Scalars and arrays  ****
OctLoc.c.b A Datatyp(siz) R M Lvl/name                 OctLoc.c.b A Datatyp(siz) R M Lvl/name

     0-0-0/w SBIN        r     1 MAX_BASIS_ITEMS

  ****  Section 040 LblCom MAX_TOTAL_ITEMS

  ****  Scalars and arrays  ****
OctLoc.c.b A Datatyp(siz) R M Lvl/name                 OctLoc.c.b A Datatyp(siz) R M Lvl/name

     0-0-0/w SBIN              1 MAX_TOTAL_ITEMS

  ****  Section 041 LblCom LAST_BINSRCH_ONLY

  ****  Scalars and arrays  ****
OctLoc.c.b A Datatyp(siz) R M Lvl/name                 OctLoc.c.b A Datatyp(siz) R M Lvl/name

PL6.E3A0      #011=OUTPUT_COST_SYMREFS File=LR_ERRREC.:Z8A6TSI                   SAT 08/09/97 09:32 Page:389
     0-0-0/w SBIN              1 LAST_BINSRCH_ONLY

  ****  Section 042 LblCom LAST_BOTH_BITBIN

  ****  Scalars and arrays  ****
OctLoc.c.b A Datatyp(siz) R M Lvl/name                 OctLoc.c.b A Datatyp(siz) R M Lvl/name

     0-0-0/w SBIN              1 LAST_BOTH_BITBIN

  ****  Section 043 LblCom GARBAGE

  ****  Scalars and arrays  ****
OctLoc.c.b A Datatyp(siz) R M Lvl/name                 OctLoc.c.b A Datatyp(siz) R M Lvl/name

     0-0-0/w PTR               1 GARBAGE(0:100)

  ****  Section 044 LblCom AMT_GARBAGE

  ****  Scalars and arrays  ****
OctLoc.c.b A Datatyp(siz) R M Lvl/name                 OctLoc.c.b A Datatyp(siz) R M Lvl/name

     0-0-0/w SBIN              1 AMT_GARBAGE

  ****  Section 045 LblCom LEAST_COST_STRING

  ****  Scalars and arrays  ****
OctLoc.c.b A Datatyp(siz) R M Lvl/name                 OctLoc.c.b A Datatyp(siz) R M Lvl/name

     0-0-0/w PTR               1 LEAST_COST_STRING(0:1400)

  ****  Section 046 LblCom LEAST_COST_PREFIX

  ****  Scalars and arrays  ****
OctLoc.c.b A Datatyp(siz) R M Lvl/name                 OctLoc.c.b A Datatyp(siz) R M Lvl/name

     0-0-0/w PTR               1 LEAST_COST_PREFIX(0:1400)

PL6.E3A0      #011=OUTPUT_COST_SYMREFS File=LR_ERRREC.:Z8A6TSI                   SAT 08/09/97 09:32 Page:390
  ****  Section 047 LblCom CURRE

  ****  Scalars and arrays  ****
OctLoc.c.b A Datatyp(siz) R M Lvl/name                 OctLoc.c.b A Datatyp(siz) R M Lvl/name

     0-0-0/d STRC(126)         1 CURRE(0:1400)

  ****  Section 048 LblCom LCP_INDX

  ****  Scalars and arrays  ****
OctLoc.c.b A Datatyp(siz) R M Lvl/name                 OctLoc.c.b A Datatyp(siz) R M Lvl/name

     0-0-0/h SBIN(18)          1 LCP_INDX(0:1400)

  ****  Section 049 LblCom COM_STRSP_LEN

  ****  Scalars and arrays  ****
OctLoc.c.b A Datatyp(siz) R M Lvl/name                 OctLoc.c.b A Datatyp(siz) R M Lvl/name

     0-0-0/w SBIN        r     1 COM_STRSP_LEN

  ****  Section 050 LblCom COM_SEARCH_STRING

  ****  Scalars and arrays  ****
OctLoc.c.b A Datatyp(siz) R M Lvl/name                 OctLoc.c.b A Datatyp(siz) R M Lvl/name

     0-0-0/w PTR         r     1 COM_SEARCH_STRING

  ****  Section 051 LblCom COM_SEARCH_STRING_LEN

  ****  Scalars and arrays  ****
OctLoc.c.b A Datatyp(siz) R M Lvl/name                 OctLoc.c.b A Datatyp(siz) R M Lvl/name

     0-0-0/w SBIN        r     1 COM_SEARCH_STRING_LEN

  ****  Section 052 LblCom COM_STRING_SPACE_LEN

PL6.E3A0      #011=OUTPUT_COST_SYMREFS File=LR_ERRREC.:Z8A6TSI                   SAT 08/09/97 09:32 Page:391
  ****  Scalars and arrays  ****
OctLoc.c.b A Datatyp(siz) R M Lvl/name                 OctLoc.c.b A Datatyp(siz) R M Lvl/name

     0-0-0/w SBIN        r     1 COM_STRING_SPACE_LEN

  ****  Section 053 LblCom COM_STRING_SPACE_H

  ****  Scalars and arrays  ****
OctLoc.c.b A Datatyp(siz) R M Lvl/name                 OctLoc.c.b A Datatyp(siz) R M Lvl/name

     0-0-0/h SBIN(18)    r     1 COM_STRING_SPACE_H(0:24999)

  ****  Section 054 LblCom COM_STRING_SPACE$

  ****  Scalars and arrays  ****
OctLoc.c.b A Datatyp(siz) R M Lvl/name                 OctLoc.c.b A Datatyp(siz) R M Lvl/name

     0-0-0/w PTR         r     1 COM_STRING_SPACE$

  ****  Section 055 LblCom COM_STRING_PTR

  ****  Scalars and arrays  ****
OctLoc.c.b A Datatyp(siz) R M Lvl/name                 OctLoc.c.b A Datatyp(siz) R M Lvl/name

     0-0-0/w PTR         r     1 COM_STRING_PTR

  ****  Section 056 LblCom COM_STRING_INDX

  ****  Scalars and arrays  ****
OctLoc.c.b A Datatyp(siz) R M Lvl/name                 OctLoc.c.b A Datatyp(siz) R M Lvl/name

     0-0-0/w SBIN              1 COM_STRING_INDX

  ****  Section 057 LblCom LCP_TABLE_LEN

  ****  Scalars and arrays  ****
OctLoc.c.b A Datatyp(siz) R M Lvl/name                 OctLoc.c.b A Datatyp(siz) R M Lvl/name
PL6.E3A0      #011=OUTPUT_COST_SYMREFS File=LR_ERRREC.:Z8A6TSI                   SAT 08/09/97 09:32 Page:392

     0-0-0/w SBIN              1 LCP_TABLE_LEN

  ****  Section 058 LblCom STATE_ITEM_INDEX

  ****  Scalars and arrays  ****
OctLoc.c.b A Datatyp(siz) R M Lvl/name                 OctLoc.c.b A Datatyp(siz) R M Lvl/name

     0-0-0/h STRC              1 STATE_ITEM_INDEX(0:2200)

  ****  Section 059 LblCom PATH

  ****  Scalars and arrays  ****
OctLoc.c.b A Datatyp(siz) R M Lvl/name                 OctLoc.c.b A Datatyp(siz) R M Lvl/name

     0-0-0/h STRC        r     1 PATH(0:17600)

  ****  Section 060 LblCom PATH_STRINGS_LEN

  ****  Scalars and arrays  ****
OctLoc.c.b A Datatyp(siz) R M Lvl/name                 OctLoc.c.b A Datatyp(siz) R M Lvl/name

     0-0-0/w SBIN        r     1 PATH_STRINGS_LEN

  ****  Section 061 LblCom PATH_ADDR$

  ****  Scalars and arrays  ****
OctLoc.c.b A Datatyp(siz) R M Lvl/name                 OctLoc.c.b A Datatyp(siz) R M Lvl/name

     0-0-0/w PTR         r     1 PATH_ADDR$

  ****  Section 062 LblCom PATH_TABLE_LEN

  ****  Scalars and arrays  ****
OctLoc.c.b A Datatyp(siz) R M Lvl/name                 OctLoc.c.b A Datatyp(siz) R M Lvl/name

     0-0-0/w SBIN              1 PATH_TABLE_LEN
PL6.E3A0      #011=OUTPUT_COST_SYMREFS File=LR_ERRREC.:Z8A6TSI                   SAT 08/09/97 09:32 Page:393

  ****  Section 063 LblCom EDGECOST

  ****  Scalars and arrays  ****
OctLoc.c.b A Datatyp(siz) R M Lvl/name                 OctLoc.c.b A Datatyp(siz) R M Lvl/name

     0-0-0/w SBIN              1 EDGECOST(0:400)

  ****  Section 064 LblCom ITEM_TABLE_LEN

  ****  Scalars and arrays  ****
OctLoc.c.b A Datatyp(siz) R M Lvl/name                 OctLoc.c.b A Datatyp(siz) R M Lvl/name

     0-0-0/w SBIN              1 ITEM_TABLE_LEN

  ****  Section 065 LblCom ORDERED_ITEM

  ****  Scalars and arrays  ****
OctLoc.c.b A Datatyp(siz) R M Lvl/name                 OctLoc.c.b A Datatyp(siz) R M Lvl/name

     0-0-0/h STRC              1 ORDERED_ITEM(0:400)

  ****  Section 066 LblCom NEIGHBOR

  ****  Scalars and arrays  ****
OctLoc.c.b A Datatyp(siz) R M Lvl/name                 OctLoc.c.b A Datatyp(siz) R M Lvl/name

     0-0-0/w SBIN              1 NEIGHBOR(0:400)

  ****  Section 067 LblCom PATH_INFO

  ****  Scalars and arrays  ****
OctLoc.c.b A Datatyp(siz) R M Lvl/name                 OctLoc.c.b A Datatyp(siz) R M Lvl/name

     0-0-0/w STRC(28872)       1 PATH_INFO

  ****  Section 068 LblCom CHOSEN
PL6.E3A0      #011=OUTPUT_COST_SYMREFS File=LR_ERRREC.:Z8A6TSI                   SAT 08/09/97 09:32 Page:394

  ****  Scalars and arrays  ****
OctLoc.c.b A Datatyp(siz) R M Lvl/name                 OctLoc.c.b A Datatyp(siz) R M Lvl/name

     0-0-0/w BIT               1 CHOSEN(0:400)

  ****  Section 069 LblCom REACHED

  ****  Scalars and arrays  ****
OctLoc.c.b A Datatyp(siz) R M Lvl/name                 OctLoc.c.b A Datatyp(siz) R M Lvl/name

     0-0-0/b BIT               1 REACHED(0:400)

  ****  Section 070 LblCom EXP_PATH_INDX

  ****  Scalars and arrays  ****
OctLoc.c.b A Datatyp(siz) R M Lvl/name                 OctLoc.c.b A Datatyp(siz) R M Lvl/name

     0-0-0/w SBIN              1 EXP_PATH_INDX

  ****  BASED and DCB variables  ****

  ****  Scalars and arrays  ****
OctLoc.c.b A Datatyp(siz) R M Lvl/name                 OctLoc.c.b A Datatyp(siz) R M Lvl/name

     0-0-0/w STRC(72)          1 CELL                       0-0-0/c ACHR              1 COM_STRINGS
     0-0-0/c ACHR              1 COM_STRING_SPACE           0-0-0/c ACHR              1 CSEARCH_STRING
     0-0-0/w STRC(57888)       1 C_SET_B                    0-0-0/w STRC(72)          1 INCLUDES_B
     0-0-0/w STRC(144)         1 INCL_B                     0-0-0/w STRC(5436)        1 ITEM_B
     0-0-0/w STRC(5652)        1 KEY_B                      0-0-0N  NULL        r     1 M$LO
     0-0-0N  NULL        r     1 M$OU                       0-0-0N  NULL        r     1 M$SI
     0-0-0N  NULL        r     1 M$SO                       0-0-0N  NULL        r     1 M$UI
     0-0-0/c ACHR              1 PATH_STRINGS               0-0-0/w STRC(90)          1 PREFIX
     0-0-0/w ASTR(72)    r     1 PREFIXCHR                  0-0-0/w STRC              1 STRING
     0-0-0/w ASTR(18)    r     1 STRINGCHR                  0-0-0/w STRC(351)         1 SYMBOL

PL6.E3A0      #011=OUTPUT_COST_SYMREFS File=LR_ERRREC.:Z8A6TSI                   SAT 08/09/97 09:32 Page:395

   Procedure OUTPUT_COST_SYMREFS requires 800 words for executable code.
   Procedure OUTPUT_COST_SYMREFS requires 8 words of local(AUTO) storage.

    No errors detected in file LR_ERRREC.:Z8A6TSI    .
