VERSION A06

PL6.E3A0      #001=CALC_ERROR_CORRECTION_INFO File=LR_ERRREC.:Z8A6TSI            SAT 08/09/97 09:28 Page:1
        1        1        /*M* ERRREC => ERROR CORRECTION LOGIC FOR CORRECTION COSTS */
        2        2        /*T***********************************************************/
        3        3        /*T*                                                         */
        4        4        /*T* Copyright (c) Bull HN Information Systems Inc., 1997    */
        5        5        /*T*                                                         */
        6        6        /*T***********************************************************/
        7        7
        8        8
        9        9
       10       10
       11       11
       12       12        CALC_ERROR_CORRECTION_INFO : PROC;
       13       13
       14       14        /*D*
       15       15               NAME: CALC_ERROR_CORRECTION_INFO
       16       16            PURPOSE: MAIN ROUTINE FOR CALUCLATION OF ALL ERROR TABLES.
       17       17        */
       18       18
       19       19        %INCLUDE LR_GRAM_EXT;
       20      558
       21      559
       22      560    1   DCL RECLAIM_CONFIG_MEM       ENTRY;
       23      561    1   DCL CALC_LEAST_COST_STRINGS  ENTRY;
       24      562    1   DCL CALC_LEAST_COST_PREFIX   ENTRY;
       25      563    1   DCL OUTPUT_DELETION_COSTS    ENTRY;
       26      564    1   DCL OUTPUT_LCS               ENTRY;
       27      565    1   DCL OUTPUT_COST_SYMREFS      ENTRY;
       28      566    1   DCL FINDLCPATHS              ENTRY;
       29      567
       30      568
       31      569
       32      570    1   IF NOT OPTIONS(ERROR_TABLE_OPT) THEN
       33      571    1     RETURN;
       34      572
       35      573    1   CALL RECLAIM_CONFIG_MEM;
       36      574
       37      575    1   CALL OUTPUT_DELETION_COSTS;
PL6.E3A0      #001=CALC_ERROR_CORRECTION_INFO File=LR_ERRREC.:Z8A6TSI            SAT 08/09/97 09:28 Page:2
       38      576    1   CALL CALC_LEAST_COST_STRINGS;
       39      577    1   CALL OUTPUT_LCS;
       40      578    1   CALL CALC_LEAST_COST_PREFIX;
       41      579    1   CALL OUTPUT_COST_SYMREFS;
       42      580    1   CALL FINDLCPATHS;
       43      581
       44      582
       45      583    1   END CALC_ERROR_CORRECTION_INFO;
       46      584        %EOD;

PL6.E3A0      #001=CALC_ERROR_CORRECTION_INFO File=LR_ERRREC.:Z8A6TSI            SAT 08/09/97 09:28 Page:3
--  Include file information  --

   LR_IO_EXT.:Z8A6TOU  cannot be made into a system file and is referenced.
   LR_GRAM_EXT.:Z8A6TOU  cannot be made into a system file and is referenced.
      No diagnostics issued in procedure CALC_ERROR_CORRECTION_INFO.

   Procedure CALC_ERROR_CORRECTION_INFO requires 28 words for executable code.
   Procedure CALC_ERROR_CORRECTION_INFO requires 4 words of local(AUTO) storage.

PL6.E3A0      #001=CALC_ERROR_CORRECTION_INFO File=LR_ERRREC.:Z8A6TSI            SAT 08/09/97 09:28 Page:4

 Object Unit name= CALC_ERROR_CORRECTION_INFO                 File name= LR_ERRREC.:Z8A6TOU
 UTS= AUG 09 '97 09:28:01.84 SAT                              Compiler= PL-6/E31         Sev=      00
 SharedLib= :SHARED_SYSTEM                                    Alt SharedLib=


    ****  Control sections  ****

 Sect   Type Bound  Init  Size OctSiz  Section name(segment info)
    0  LblCom even  none     1      1  OUT_DCBN
    1   DCB   even  none     0      0  M$OU
    2   DCB   even  none     0      0  M$SO
    3   DCB   even  none     0      0  M$LO
    4   DCB   even  none     0      0  M$SI
    5   DCB   even  none     0      0  M$UI
    6  LblCom even  none  1401   2571  SYM_PTRS
    7  LblCom even  none  4001   7641  RIGHT_PARTS
    8  LblCom even  none  3002   5672  PROD
    9  LblCom even  none     1      1  NR_PROD
   10  LblCom even  none     1      1  NR_SYMS
   11  LblCom even  none     1      1  NR_TERM
   12  LblCom even  none     1      1  LAST_ACT
   13  LblCom even  none     1      1  LAST_NULL
   14  LblCom even  none     1      1  NR_ONRIGHT
   15  LblCom even  none     1      1  NR_NT
   16  LblCom even  none     1      1  PROD_LEN_MAX_EVER
   17  LblCom even  none     1      1  LAST_ORDER_SPECIFIED
   18  LblCom even  none     1      1  SEMANTIC_ORDERING
   19  LblCom even  none     1      1  ERR_SEV
   20  LblCom even  none     1      1  SET_LENGTHB
   21  LblCom even  none     1      1  SET_LENGTHW
   22  LblCom even  none     1      1  EOF_SYMBOL_PTR
   23  LblCom even  none     1      1  ERROR_SYMBOL_PTR
   24  LblCom even  none     1      1  BOF_SYMBOL_PTR
   25  LblCom even  none     1      1  OPTIONS
   26  LblCom even  none    26     32  OPTIONS_TEXT
   27  LblCom even  none   128    200  INSTR
   28  LblCom even  none     1      1  INSTR_LISTED
PL6.E3A0      #001=CALC_ERROR_CORRECTION_INFO File=LR_ERRREC.:Z8A6TSI            SAT 08/09/97 09:28 Page:5
   29  LblCom even  none     1      1  INSTR_LEN
   30  LblCom even  none     1      1  INSTR_INDX
   31  LblCom even  none     1      1  EOF_FLAG
   32  LblCom even  none     3      3  KEY_REC
   33  LblCom even  none    28     34  LINE
   34  LblCom even  none     1      1  LINELEN
   35  LblCom even  none   205    315  TSTATS
   36   Proc  even  none    28     34  CALC_ERROR_CORRECTION_INFO
   37  RoData even  none     1      1  CALC_ERROR_CORRECTION_INFO

    ****  Entry defs  ****

                              Check   Calling
                             calling  sequence
  Sect OctLoc Primary Altret sequence   type   Parms  Name
    36      0   yes            yes      Std        0  CALC_ERROR_CORRECTION_INFO

  ****  Entry refs  ****

         Check        Calling
        calling       sequence
Altret sequence SRef   type   Args  Name
         yes           Std       0 RECLAIM_CONFIG_MEM
         yes           Std       0 CALC_LEAST_COST_STRINGS
         yes           Std       0 OUTPUT_DELETION_COSTS
         yes           Std       0 OUTPUT_LCS
         yes           Std       0 FINDLCPATHS
         yes           Std       0 CALC_LEAST_COST_PREFIX
         yes           Std       0 OUTPUT_COST_SYMREFS
                       nStd      0 X66_AUTO_0
                       nStd      0 X66_ARET
PL6.E3A0      #001=CALC_ERROR_CORRECTION_INFO File=LR_ERRREC.:Z8A6TSI            SAT 08/09/97 09:28 Page:6

  ****  Data refs  ****

  Flags:  r = read only, s = secondary
Flgs Name                             Flgs Name                             Flgs Name
     M$OU                                  M$SO                                  M$LO
     M$SI                                  M$UI

  ****  Segment refs  ****

  Flags:  r = read only, s = secondary
Flgs Name                             Flgs Name                             Flgs Name
     NULLSID
PL6.E3A0      #001=CALC_ERROR_CORRECTION_INFO File=LR_ERRREC.:Z8A6TSI            SAT 08/09/97 09:28 Page:7


        1        1        /*M* ERRREC => ERROR CORRECTION LOGIC FOR CORRECTION COSTS */
        2        2        /*T***********************************************************/
        3        3        /*T*                                                         */
        4        4        /*T* Copyright (c) Bull HN Information Systems Inc., 1997    */
        5        5        /*T*                                                         */
        6        6        /*T***********************************************************/
        7        7
        8        8
        9        9
       10       10
       11       11
       12       12        CALC_ERROR_CORRECTION_INFO : PROC;

     12 36 000000   000000 700200 xent  CALC_ERROR_* TSX0  ! X66_AUTO_0
        36 000001   000004 000000                    ZERO    4,0

       13       13
       14       14        /*D*
       15       15               NAME: CALC_ERROR_CORRECTION_INFO
       16       16            PURPOSE: MAIN ROUTINE FOR CALUCLATION OF ALL ERROR TABLES.
       17       17        */
       18       18
       19       19        %INCLUDE LR_GRAM_EXT;
       20      558
       21      559
       22      560    1   DCL RECLAIM_CONFIG_MEM       ENTRY;
       23      561    1   DCL CALC_LEAST_COST_STRINGS  ENTRY;
       24      562    1   DCL CALC_LEAST_COST_PREFIX   ENTRY;
       25      563    1   DCL OUTPUT_DELETION_COSTS    ENTRY;
       26      564    1   DCL OUTPUT_LCS               ENTRY;
       27      565    1   DCL OUTPUT_COST_SYMREFS      ENTRY;
       28      566    1   DCL FINDLCPATHS              ENTRY;
       29      567
       30      568
       31      569
       32      570    1   IF NOT OPTIONS(ERROR_TABLE_OPT) THEN
PL6.E3A0      #001=CALC_ERROR_CORRECTION_INFO File=LR_ERRREC.:Z8A6TSI            SAT 08/09/97 09:28 Page:8

    570 36 000002   000000 236000 25                 LDQ     OPTIONS
        36 000003   000100 316003                    CANQ    64,DU
        36 000004   000006 601000 36                 TNZ     s:573

       33      571    1     RETURN;

    571 36 000005   000000 702200 xent               TSX2  ! X66_ARET

       34      572
       35      573    1   CALL RECLAIM_CONFIG_MEM;

    573 36 000006   000000 631400 37                 EPPR1   0
        36 000007   000000 701000 xent               TSX1    RECLAIM_CONFIG_MEM
        36 000010   000000 011000                    NOP     0

       36      574
       37      575    1   CALL OUTPUT_DELETION_COSTS;

    575 36 000011   000000 631400 37                 EPPR1   0
        36 000012   000000 701000 xent               TSX1    OUTPUT_DELETION_COSTS
        36 000013   000000 011000                    NOP     0

       38      576    1   CALL CALC_LEAST_COST_STRINGS;

    576 36 000014   000000 631400 37                 EPPR1   0
        36 000015   000000 701000 xent               TSX1    CALC_LEAST_COST_STRINGS
        36 000016   000000 011000                    NOP     0

       39      577    1   CALL OUTPUT_LCS;

    577 36 000017   000000 631400 37                 EPPR1   0
        36 000020   000000 701000 xent               TSX1    OUTPUT_LCS
        36 000021   000000 011000                    NOP     0

       40      578    1   CALL CALC_LEAST_COST_PREFIX;

PL6.E3A0      #001=CALC_ERROR_CORRECTION_INFO File=LR_ERRREC.:Z8A6TSI            SAT 08/09/97 09:28 Page:9
    578 36 000022   000000 631400 37                 EPPR1   0
        36 000023   000000 701000 xent               TSX1    CALC_LEAST_COST_PREFIX
        36 000024   000000 011000                    NOP     0

       41      579    1   CALL OUTPUT_COST_SYMREFS;

    579 36 000025   000000 631400 37                 EPPR1   0
        36 000026   000000 701000 xent               TSX1    OUTPUT_COST_SYMREFS
        36 000027   000000 011000                    NOP     0

       42      580    1   CALL FINDLCPATHS;

    580 36 000030   000000 631400 37                 EPPR1   0
        36 000031   000000 701000 xent               TSX1    FINDLCPATHS
        36 000032   000000 011000                    NOP     0

       43      581
       44      582
       45      583    1   END CALC_ERROR_CORRECTION_INFO;

    583 36 000033   000000 702200 xent               TSX2  ! X66_ARET
       46      584        %EOD;

PL6.E3A0      #001=CALC_ERROR_CORRECTION_INFO File=LR_ERRREC.:Z8A6TSI            SAT 08/09/97 09:28 Page:10
--  Include file information  --

   LR_IO_EXT.:Z8A6TOU  cannot be made into a system file and is referenced.
   LR_GRAM_EXT.:Z8A6TOU  cannot be made into a system file and is referenced.
      No diagnostics issued in procedure CALC_ERROR_CORRECTION_INFO.
PL6.E3A0      #001=CALC_ERROR_CORRECTION_INFO File=LR_ERRREC.:Z8A6TSI            SAT 08/09/97 09:28 Page:11

 **** Variables and constants ****

  ****  Section 000 LblCom OUT_DCBN

  ****  Scalars and arrays  ****
OctLoc.c.b A Datatyp(siz) R M Lvl/name                 OctLoc.c.b A Datatyp(siz) R M Lvl/name

     0-0-0/w SBIN              1 OUT_DCBN

  ****  Section 006 LblCom SYM_PTRS

  ****  Scalars and arrays  ****
OctLoc.c.b A Datatyp(siz) R M Lvl/name                 OctLoc.c.b A Datatyp(siz) R M Lvl/name

     0-0-0/w PTR               1 SYM_PTRS(0:1400)

  ****  Section 007 LblCom RIGHT_PARTS

  ****  Scalars and arrays  ****
OctLoc.c.b A Datatyp(siz) R M Lvl/name                 OctLoc.c.b A Datatyp(siz) R M Lvl/name

     0-0-0/h SBIN(18)          1 RIGHT_PARTS(0:8000)

  ****  Section 008 LblCom PROD

  ****  Scalars and arrays  ****
OctLoc.c.b A Datatyp(siz) R M Lvl/name                 OctLoc.c.b A Datatyp(siz) R M Lvl/name

     0-0-0/h STRC(72)          1 PROD(0:1500)

  ****  Section 009 LblCom NR_PROD

  ****  Scalars and arrays  ****
OctLoc.c.b A Datatyp(siz) R M Lvl/name                 OctLoc.c.b A Datatyp(siz) R M Lvl/name

     0-0-0/w SBIN              1 NR_PROD

PL6.E3A0      #001=CALC_ERROR_CORRECTION_INFO File=LR_ERRREC.:Z8A6TSI            SAT 08/09/97 09:28 Page:12
  ****  Section 010 LblCom NR_SYMS

  ****  Scalars and arrays  ****
OctLoc.c.b A Datatyp(siz) R M Lvl/name                 OctLoc.c.b A Datatyp(siz) R M Lvl/name

     0-0-0/w SBIN              1 NR_SYMS

  ****  Section 011 LblCom NR_TERM

  ****  Scalars and arrays  ****
OctLoc.c.b A Datatyp(siz) R M Lvl/name                 OctLoc.c.b A Datatyp(siz) R M Lvl/name

     0-0-0/w SBIN              1 NR_TERM

  ****  Section 012 LblCom LAST_ACT

  ****  Scalars and arrays  ****
OctLoc.c.b A Datatyp(siz) R M Lvl/name                 OctLoc.c.b A Datatyp(siz) R M Lvl/name

     0-0-0/w SBIN              1 LAST_ACT

  ****  Section 013 LblCom LAST_NULL

  ****  Scalars and arrays  ****
OctLoc.c.b A Datatyp(siz) R M Lvl/name                 OctLoc.c.b A Datatyp(siz) R M Lvl/name

     0-0-0/w SBIN              1 LAST_NULL

  ****  Section 014 LblCom NR_ONRIGHT

  ****  Scalars and arrays  ****
OctLoc.c.b A Datatyp(siz) R M Lvl/name                 OctLoc.c.b A Datatyp(siz) R M Lvl/name

     0-0-0/w SBIN              1 NR_ONRIGHT

  ****  Section 015 LblCom NR_NT

PL6.E3A0      #001=CALC_ERROR_CORRECTION_INFO File=LR_ERRREC.:Z8A6TSI            SAT 08/09/97 09:28 Page:13
  ****  Scalars and arrays  ****
OctLoc.c.b A Datatyp(siz) R M Lvl/name                 OctLoc.c.b A Datatyp(siz) R M Lvl/name

     0-0-0/w SBIN              1 NR_NT

  ****  Section 016 LblCom PROD_LEN_MAX_EVER

  ****  Scalars and arrays  ****
OctLoc.c.b A Datatyp(siz) R M Lvl/name                 OctLoc.c.b A Datatyp(siz) R M Lvl/name

     0-0-0/w SBIN              1 PROD_LEN_MAX_EVER

  ****  Section 017 LblCom LAST_ORDER_SPECIFIED

  ****  Scalars and arrays  ****
OctLoc.c.b A Datatyp(siz) R M Lvl/name                 OctLoc.c.b A Datatyp(siz) R M Lvl/name

     0-0-0/w SBIN              1 LAST_ORDER_SPECIFIED

  ****  Section 018 LblCom SEMANTIC_ORDERING

  ****  Scalars and arrays  ****
OctLoc.c.b A Datatyp(siz) R M Lvl/name                 OctLoc.c.b A Datatyp(siz) R M Lvl/name

     0-0-0/b BIT               1 SEMANTIC_ORDERING

  ****  Section 019 LblCom ERR_SEV

  ****  Scalars and arrays  ****
OctLoc.c.b A Datatyp(siz) R M Lvl/name                 OctLoc.c.b A Datatyp(siz) R M Lvl/name

     0-0-0/w SBIN              1 ERR_SEV

  ****  Section 020 LblCom SET_LENGTHB

  ****  Scalars and arrays  ****
OctLoc.c.b A Datatyp(siz) R M Lvl/name                 OctLoc.c.b A Datatyp(siz) R M Lvl/name
PL6.E3A0      #001=CALC_ERROR_CORRECTION_INFO File=LR_ERRREC.:Z8A6TSI            SAT 08/09/97 09:28 Page:14

     0-0-0/w SBIN              1 SET_LENGTHB

  ****  Section 021 LblCom SET_LENGTHW

  ****  Scalars and arrays  ****
OctLoc.c.b A Datatyp(siz) R M Lvl/name                 OctLoc.c.b A Datatyp(siz) R M Lvl/name

     0-0-0/w SBIN              1 SET_LENGTHW

  ****  Section 022 LblCom EOF_SYMBOL_PTR

  ****  Scalars and arrays  ****
OctLoc.c.b A Datatyp(siz) R M Lvl/name                 OctLoc.c.b A Datatyp(siz) R M Lvl/name

     0-0-0/w PTR               1 EOF_SYMBOL_PTR

  ****  Section 023 LblCom ERROR_SYMBOL_PTR

  ****  Scalars and arrays  ****
OctLoc.c.b A Datatyp(siz) R M Lvl/name                 OctLoc.c.b A Datatyp(siz) R M Lvl/name

     0-0-0/w PTR               1 ERROR_SYMBOL_PTR

  ****  Section 024 LblCom BOF_SYMBOL_PTR

  ****  Scalars and arrays  ****
OctLoc.c.b A Datatyp(siz) R M Lvl/name                 OctLoc.c.b A Datatyp(siz) R M Lvl/name

     0-0-0/w PTR               1 BOF_SYMBOL_PTR

  ****  Section 025 LblCom OPTIONS

  ****  Scalars and arrays  ****
OctLoc.c.b A Datatyp(siz) R M Lvl/name                 OctLoc.c.b A Datatyp(siz) R M Lvl/name

     0-0-0/b BIT         r     1 OPTIONS(0:25)
PL6.E3A0      #001=CALC_ERROR_CORRECTION_INFO File=LR_ERRREC.:Z8A6TSI            SAT 08/09/97 09:28 Page:15

  ****  Section 026 LblCom OPTIONS_TEXT

  ****  Scalars and arrays  ****
OctLoc.c.b A Datatyp(siz) R M Lvl/name                 OctLoc.c.b A Datatyp(siz) R M Lvl/name

     0-0-0/c CHAR(4)           1 OPTIONS_TEXT(0:25)

  ****  Section 027 LblCom INSTR

  ****  Scalars and arrays  ****
OctLoc.c.b A Datatyp(siz) R M Lvl/name                 OctLoc.c.b A Datatyp(siz) R M Lvl/name

     0-0-0/c CHAR              1 INSTR(0:511)               0-0-0/c CHAR(512)         1 INSTRCHR

  ****  Section 028 LblCom INSTR_LISTED

  ****  Scalars and arrays  ****
OctLoc.c.b A Datatyp(siz) R M Lvl/name                 OctLoc.c.b A Datatyp(siz) R M Lvl/name

     0-0-0/b BIT               1 INSTR_LISTED

  ****  Section 029 LblCom INSTR_LEN

  ****  Scalars and arrays  ****
OctLoc.c.b A Datatyp(siz) R M Lvl/name                 OctLoc.c.b A Datatyp(siz) R M Lvl/name

     0-0-0/w SBIN              1 INSTR_LEN

  ****  Section 030 LblCom INSTR_INDX

  ****  Scalars and arrays  ****
OctLoc.c.b A Datatyp(siz) R M Lvl/name                 OctLoc.c.b A Datatyp(siz) R M Lvl/name

     0-0-0/w SBIN              1 INSTR_INDX

  ****  Section 031 LblCom EOF_FLAG
PL6.E3A0      #001=CALC_ERROR_CORRECTION_INFO File=LR_ERRREC.:Z8A6TSI            SAT 08/09/97 09:28 Page:16

  ****  Scalars and arrays  ****
OctLoc.c.b A Datatyp(siz) R M Lvl/name                 OctLoc.c.b A Datatyp(siz) R M Lvl/name

     0-0-0/b BIT               1 EOF_FLAG

  ****  Section 032 LblCom KEY_REC

  ****  Scalars and arrays  ****
OctLoc.c.b A Datatyp(siz) R M Lvl/name                 OctLoc.c.b A Datatyp(siz) R M Lvl/name

     0-0-0/c CHAR(10)          1 KEY_REC

  ****  Section 033 LblCom LINE

  ****  Scalars and arrays  ****
OctLoc.c.b A Datatyp(siz) R M Lvl/name                 OctLoc.c.b A Datatyp(siz) R M Lvl/name

     0-0-0/c CHAR(109)         1 LINE

  ****  Section 034 LblCom LINELEN

  ****  Scalars and arrays  ****
OctLoc.c.b A Datatyp(siz) R M Lvl/name                 OctLoc.c.b A Datatyp(siz) R M Lvl/name

     0-0-0/w SBIN              1 LINELEN

  ****  Section 035 LblCom TSTATS

  ****  Scalars and arrays  ****
OctLoc.c.b A Datatyp(siz) R M Lvl/name                 OctLoc.c.b A Datatyp(siz) R M Lvl/name

     0-0-0/w STRC(7380)        1 TSTATS

  ****  BASED and DCB variables  ****

  ****  Scalars and arrays  ****
PL6.E3A0      #001=CALC_ERROR_CORRECTION_INFO File=LR_ERRREC.:Z8A6TSI            SAT 08/09/97 09:28 Page:17
OctLoc.c.b A Datatyp(siz) R M Lvl/name                 OctLoc.c.b A Datatyp(siz) R M Lvl/name

     0-0-0N  NULL        r     1 M$LO                       0-0-0N  NULL        r     1 M$OU
     0-0-0N  NULL        r     1 M$SI                       0-0-0N  NULL        r     1 M$SO
     0-0-0N  NULL        r     1 M$UI                       0-0-0/w STRC(351)         1 SYMBOL


   Procedure CALC_ERROR_CORRECTION_INFO requires 28 words for executable code.
   Procedure CALC_ERROR_CORRECTION_INFO requires 4 words of local(AUTO) storage.

PL6.E3A0      #002=RECLAIM_CONFIG_MEM File=LR_ERRREC.:Z8A6TSI                    SAT 08/09/97 09:28 Page:18
       47        1        /*T***********************************************************/
       48        2        /*T*                                                         */
       49        3        /*T* Copyright (c) Bull HN Information Systems Inc., 1997    */
       50        4        /*T*                                                         */
       51        5        /*T***********************************************************/
       52        6        RECLAIM_CONFIG_MEM : PROC;
       53        7
       54        8        /*D*
       55        9               NAME: RECLAIM_CONFIG_MEM
       56       10            PURPOSE:
       57       11
       58       12           RECLAIM ALL MEMORY USED BUILDING CONFIGURATION SETS THAT
       59       13           WE CAN REUSE FOR THE ERROR CORRECTION CALCULATIONS.
       60       14        */
       61       15
       62       16        %INCLUDE LR_GRAM_EXT;
       63      555        %INCLUDE LR_CNFG_EXT;
       64      708        %INCLUDE LR_ERR_EXT;
       65      851
       66      852    1   DCL COLLECT_GARBAGE ENTRY (1);
       67      853
       68      854    1   DCL I        SBIN WORD;
       69      855    1   DCL K        SBIN WORD;
       70      856    1   DCL C$       PTR;
       71      857    1   DCL KEYN$    PTR;
       72      858    1   DCL INCL_LEN SBIN WORD;
       73      859    1   DCL SET_LEN  SBIN WORD;
       74      860
       75      861
       76      862
       77      863    1   INCL_LEN = (LENGTHW(INCL_B) + SET_LENGTHW - 1) * 2 - 1;
       78      864    1   SET_LEN  = SET_LENGTHW * 2 - 1;
       79      865
       80      866        /* Reclaim state INCL space */
       81      867
       82      868    2   DO I = 0 TO NR_CONFIG - 1;
       83      869
PL6.E3A0      #002=RECLAIM_CONFIG_MEM File=LR_ERRREC.:Z8A6TSI                    SAT 08/09/97 09:28 Page:19
       84      870    2     C$ = C#_TO_$(I);
       85      871
       86      872    3     DO K = 0 TO C$ -> C_SET_B.NR_ELEM - 1;
       87      873
       88      874    3       IF C$ -> C_SET_B.ELEM.INCL$(K) ~= ADDR(NIL) THEN
       89      875    4         DO;
       90      876    4           C$ -> C_SET_B.ELEM.INCL$(K) -> STRING.LEN_IN_H = INCL_LEN;
       91      877    4           CALL COLLECT_GARBAGE (C$ -> C_SET_B.ELEM.INCL$(K));
       92      878    4           C$ -> C_SET_B.ELEM.INCL$(K) = ADDR(NIL);
       93      879    4         END;
       94      880
       95      881    3       KEYN$ = C$ -> C_SET_B.ELEM.KEY$(K);
       96      882
       97      883    3       IF KEYN$ -> KEY_B.SET$ ~= ADDR(NIL) THEN
       98      884    4         DO;
       99      885    4           KEYN$ -> KEY_B.SET$ -> STRING.LEN_IN_H = SET_LEN;
      100      886    4           CALL COLLECT_GARBAGE(KEYN$ -> KEY_B.SET$);
      101      887    4           KEYN$ -> KEY_B.SET$ = ADDR(NIL);
      102      888    4         END;
      103      889
      104      890    3       IF KEYN$ -> KEY_B.W.SYM_AFTER = 0 THEN
      105      891    3         IF KEYN$ -> KEY_B.FOLLOW$ ~= ADDR(NIL) THEN
      106      892    4           DO;
      107      893    4             KEYN$ -> KEY_B.FOLLOW$ -> STRING.LEN_IN_H = INCL_LEN;
      108      894    4             CALL COLLECT_GARBAGE (KEYN$ -> KEY_B.FOLLOW$);
      109      895    4             KEYN$ -> KEY_B.FOLLOW$ = ADDR(NIL);
      110      896    4           END;
      111      897    3     END;
      112      898    2   END;
      113      899
      114      900    1   END RECLAIM_CONFIG_MEM;
      115      901        %EOD;

PL6.E3A0      #002=RECLAIM_CONFIG_MEM File=LR_ERRREC.:Z8A6TSI                    SAT 08/09/97 09:28 Page:20
--  Include file information  --

   LR_ERR_EXT.:Z8A6TOU  cannot be made into a system file and is referenced.
   LR_CNFG_EXT.:Z8A6TOU  cannot be made into a system file and is referenced.
   LR_IO_EXT.:Z8A6TOU  cannot be made into a system file and is referenced.
   LR_GRAM_EXT.:Z8A6TOU  cannot be made into a system file and is referenced.
      No diagnostics issued in procedure RECLAIM_CONFIG_MEM.

   Procedure RECLAIM_CONFIG_MEM requires 89 words for executable code.
   Procedure RECLAIM_CONFIG_MEM requires 12 words of local(AUTO) storage.

PL6.E3A0      #002=RECLAIM_CONFIG_MEM File=LR_ERRREC.:Z8A6TSI                    SAT 08/09/97 09:28 Page:21

 Object Unit name= RECLAIM_CONFIG_MEM                         File name= LR_ERRREC.:Z8A6TOU
 UTS= AUG 09 '97 09:28:16.44 SAT                              Compiler= PL-6/E31         Sev=      00
 SharedLib= :SHARED_SYSTEM                                    Alt SharedLib=


    ****  Control sections  ****

 Sect   Type Bound  Init  Size OctSiz  Section name(segment info)
    0  LblCom even  none     1      1  OUT_DCBN
    1   DCB   even  none     0      0  M$OU
    2   DCB   even  none     0      0  M$SO
    3   DCB   even  none     0      0  M$LO
    4   DCB   even  none     0      0  M$SI
    5   DCB   even  none     0      0  M$UI
    6  LblCom even  none  1401   2571  SYM_PTRS
    7  LblCom even  none  4001   7641  RIGHT_PARTS
    8  LblCom even  none  3002   5672  PROD
    9  LblCom even  none     1      1  NR_PROD
   10  LblCom even  none     1      1  NR_SYMS
   11  LblCom even  none     1      1  NR_TERM
   12  LblCom even  none     1      1  LAST_ACT
   13  LblCom even  none     1      1  LAST_NULL
   14  LblCom even  none     1      1  NR_ONRIGHT
   15  LblCom even  none     1      1  NR_NT
   16  LblCom even  none     1      1  PROD_LEN_MAX_EVER
   17  LblCom even  none     1      1  LAST_ORDER_SPECIFIED
   18  LblCom even  none     1      1  SEMANTIC_ORDERING
   19  LblCom even  none     1      1  ERR_SEV
   20  LblCom even  none     1      1  SET_LENGTHB
   21  LblCom even  none     1      1  SET_LENGTHW
   22  LblCom even  none     1      1  EOF_SYMBOL_PTR
   23  LblCom even  none     1      1  ERROR_SYMBOL_PTR
   24  LblCom even  none     1      1  BOF_SYMBOL_PTR
   25  LblCom even  none     1      1  OPTIONS
   26  LblCom even  none    26     32  OPTIONS_TEXT
   27  LblCom even  none   128    200  INSTR
   28  LblCom even  none     1      1  INSTR_LISTED
PL6.E3A0      #002=RECLAIM_CONFIG_MEM File=LR_ERRREC.:Z8A6TSI                    SAT 08/09/97 09:28 Page:22
   29  LblCom even  none     1      1  INSTR_LEN
   30  LblCom even  none     1      1  INSTR_INDX
   31  LblCom even  none     1      1  EOF_FLAG
   32  LblCom even  none     3      3  KEY_REC
   33  LblCom even  none    28     34  LINE
   34  LblCom even  none     1      1  LINELEN
   35  LblCom even  none   205    315  TSTATS
   36  LblCom even  none  2201   4231  C#_TO_$
   37  LblCom even  none     1      1  NR_CONFIG
   38  LblCom even  none     1      1  INIT_CONFIG
   39  LblCom even  none     1      1  MAX_BASIS_ITEMS
   40  LblCom even  none     1      1  MAX_TOTAL_ITEMS
   41  LblCom even  none     1      1  LAST_BINSRCH_ONLY
   42  LblCom even  none     1      1  LAST_BOTH_BITBIN
   43  LblCom even  none   101    145  GARBAGE
   44  LblCom even  none     1      1  AMT_GARBAGE
   45  LblCom even  none  1401   2571  LEAST_COST_STRING
   46  LblCom even  none  1401   2571  LEAST_COST_PREFIX
   47  LblCom even  none  5604  12744  CURRE
   48  LblCom even  none   701   1275  LCP_INDX
   49  LblCom even  none     1      1  COM_STRSP_LEN
   50  LblCom even  none     1      1  COM_SEARCH_STRING
   51  LblCom even  none     1      1  COM_SEARCH_STRING_LEN
   52  LblCom even  none     1      1  COM_STRING_SPACE_LEN
   53  LblCom even  none 12500  30324  COM_STRING_SPACE_H
   54  LblCom even  none     1      1  COM_STRING_SPACE$
   55  LblCom even  none     1      1  COM_STRING_PTR
   56  LblCom even  none     1      1  COM_STRING_INDX
   57  LblCom even  none     1      1  LCP_TABLE_LEN
   58  LblCom even  none  2201   4231  STATE_ITEM_INDEX
   59  LblCom even  none 17601  42301  PATH
   60  LblCom even  none     1      1  PATH_STRINGS_LEN
   61  LblCom even  none     1      1  PATH_ADDR$
   62  LblCom even  none     1      1  PATH_TABLE_LEN
   63  LblCom even  none   401    621  EDGECOST
   64  LblCom even  none     1      1  ITEM_TABLE_LEN
   65  LblCom even  none   401    621  ORDERED_ITEM
PL6.E3A0      #002=RECLAIM_CONFIG_MEM File=LR_ERRREC.:Z8A6TSI                    SAT 08/09/97 09:28 Page:23
   66  LblCom even  none   401    621  NEIGHBOR
   67  LblCom even  none   802   1442  PATH_INFO
   68  LblCom even  none   401    621  CHOSEN
   69  LblCom even  none    12     14  REACHED
   70  LblCom even  none     1      1  EXP_PATH_INDX
   71   Proc  even  none    89    131  RECLAIM_CONFIG_MEM
   72  RoData even  none     2      2  RECLAIM_CONFIG_MEM

    ****  Entry defs  ****

                              Check   Calling
                             calling  sequence
  Sect OctLoc Primary Altret sequence   type   Parms  Name
    71      0   yes            yes      Std        0  RECLAIM_CONFIG_MEM

  ****  Entry refs  ****

         Check        Calling
        calling       sequence
Altret sequence SRef   type   Args  Name
         yes           Std       1 COLLECT_GARBAGE
                       nStd      0 X66_AUTO_0
                       nStd      0 X66_ARET

  ****  Data refs  ****

  Flags:  r = read only, s = secondary
Flgs Name                             Flgs Name                             Flgs Name
     M$OU                                  M$SO                                  M$LO
     M$SI                                  M$UI

  ****  Segment refs  ****

  Flags:  r = read only, s = secondary
Flgs Name                             Flgs Name                             Flgs Name
     NULLSID                               ISSID
PL6.E3A0      #002=RECLAIM_CONFIG_MEM File=LR_ERRREC.:Z8A6TSI                    SAT 08/09/97 09:28 Page:24


       47        1        /*T***********************************************************/
       48        2        /*T*                                                         */
       49        3        /*T* Copyright (c) Bull HN Information Systems Inc., 1997    */
       50        4        /*T*                                                         */
       51        5        /*T***********************************************************/
       52        6        RECLAIM_CONFIG_MEM : PROC;

      6 71 000000   000000 700200 xent  RECLAIM_CON* TSX0  ! X66_AUTO_0
        71 000001   000014 000000                    ZERO    12,0

       53        7
       54        8        /*D*
       55        9               NAME: RECLAIM_CONFIG_MEM
       56       10            PURPOSE:
       57       11
       58       12           RECLAIM ALL MEMORY USED BUILDING CONFIGURATION SETS THAT
       59       13           WE CAN REUSE FOR THE ERROR CORRECTION CALCULATIONS.
       60       14        */
       61       15
       62       16        %INCLUDE LR_GRAM_EXT;
       63      555        %INCLUDE LR_CNFG_EXT;
       64      708        %INCLUDE LR_ERR_EXT;
       65      851
       66      852    1   DCL COLLECT_GARBAGE ENTRY (1);
       67      853
       68      854    1   DCL I        SBIN WORD;
       69      855    1   DCL K        SBIN WORD;
       70      856    1   DCL C$       PTR;
       71      857    1   DCL KEYN$    PTR;
       72      858    1   DCL INCL_LEN SBIN WORD;
       73      859    1   DCL SET_LEN  SBIN WORD;
       74      860
       75      861
       76      862
       77      863    1   INCL_LEN = (LENGTHW(INCL_B) + SET_LENGTHW - 1) * 2 - 1;

PL6.E3A0      #002=RECLAIM_CONFIG_MEM File=LR_ERRREC.:Z8A6TSI                    SAT 08/09/97 09:28 Page:25
    863 71 000002   000000 235000 21                 LDA     SET_LENGTHW
        71 000003   000001 735000                    ALS     1
        71 000004   000005 035007                    ADLA    5,DL
        71 000005   200007 755100                    STA     INCL_LEN,,AUTO

       78      864    1   SET_LEN  = SET_LENGTHW * 2 - 1;

    864 71 000006   000000 236000 21                 LDQ     SET_LENGTHW
        71 000007   000001 736000                    QLS     1
        71 000010   000001 136007                    SBLQ    1,DL
        71 000011   200010 756100                    STQ     SET_LEN,,AUTO

       79      865
       80      866        /* Reclaim state INCL space */
       81      867
       82      868    2   DO I = 0 TO NR_CONFIG - 1;

    868 71 000012   200003 450100                    STZ     I,,AUTO
        71 000013   000125 710000 71                 TRA     s:898+1

       83      869
       84      870    2     C$ = C#_TO_$(I);

    870 71 000014   200003 720100                    LXL0    I,,AUTO
        71 000015   000000 236010 36                 LDQ     C#_TO_$,X0
        71 000016   200005 756100                    STQ     C$,,AUTO

       85      871
       86      872    3     DO K = 0 TO C$ -> C_SET_B.NR_ELEM - 1;

    872 71 000017   200004 450100                    STZ     K,,AUTO
        71 000020   000117 710000 71                 TRA     s:897+1

       87      873
       88      874    3       IF C$ -> C_SET_B.ELEM.INCL$(K) ~= ADDR(NIL) THEN

    874 71 000021   200004 235100                    LDA     K,,AUTO
PL6.E3A0      #002=RECLAIM_CONFIG_MEM File=LR_ERRREC.:Z8A6TSI                    SAT 08/09/97 09:28 Page:26
        71 000022   000002 735000                    ALS     2
        71 000023   200005 470500                    LDP0    C$,,AUTO
        71 000024   000005 236105                    LDQ     5,AL,PR0
        71 000025   000000 116000 72                 CMPQ    0
        71 000026   000050 600000 71                 TZE     s:881

       89      875    4         DO;

       90      876    4           C$ -> C_SET_B.ELEM.INCL$(K) -> STRING.LEN_IN_H = INCL_LEN;

    876 71 000027   000005 471505                    LDP1    5,AL,PR0
        71 000030   200007 720100                    LXL0    INCL_LEN,,AUTO
        71 000031   100000 740100                    STX0    0,,PR1

       91      877    4           CALL COLLECT_GARBAGE (C$ -> C_SET_B.ELEM.INCL$(K));

    877 71 000032   200004 236100                    LDQ     K,,AUTO
        71 000033   000024 736000                    QLS     20
        71 000034   000005 036003                    ADLQ    5,DU
        71 000035   200005 036100                    ADLQ    C$,,AUTO
        71 000036   200012 756100                    STQ     SET_LEN+2,,AUTO
        71 000037   200012 630500                    EPPR0   SET_LEN+2,,AUTO
        71 000040   000001 631400 72                 EPPR1   1
        71 000041   000000 701000 xent               TSX1    COLLECT_GARBAGE
        71 000042   000000 011000                    NOP     0

       92      878    4           C$ -> C_SET_B.ELEM.INCL$(K) = ADDR(NIL);

    878 71 000043   200004 235100                    LDA     K,,AUTO
        71 000044   000002 735000                    ALS     2
        71 000045   000000 236000 72                 LDQ     0
        71 000046   200005 470500                    LDP0    C$,,AUTO
        71 000047   000005 756105                    STQ     5,AL,PR0

       93      879    4         END;

       94      880
PL6.E3A0      #002=RECLAIM_CONFIG_MEM File=LR_ERRREC.:Z8A6TSI                    SAT 08/09/97 09:28 Page:27
       95      881    3       KEYN$ = C$ -> C_SET_B.ELEM.KEY$(K);

    881 71 000050   000004 236105                    LDQ     4,AL,PR0
        71 000051   200006 756100                    STQ     KEYN$,,AUTO

       96      882
       97      883    3       IF KEYN$ -> KEY_B.SET$ ~= ADDR(NIL) THEN

    883 71 000052   200006 471500                    LDP1    KEYN$,,AUTO
        71 000053   100002 236100                    LDQ     2,,PR1
        71 000054   000000 116000 72                 CMPQ    0
        71 000055   000073 600000 71                 TZE     s:890

       98      884    4         DO;

       99      885    4           KEYN$ -> KEY_B.SET$ -> STRING.LEN_IN_H = SET_LEN;

    885 71 000056   100002 473500                    LDP3    2,,PR1
        71 000057   200010 720100                    LXL0    SET_LEN,,AUTO
        71 000060   300000 740100                    STX0    0,,PR3

      100      886    4           CALL COLLECT_GARBAGE(KEYN$ -> KEY_B.SET$);

    886 71 000061   200006 236100                    LDQ     KEYN$,,AUTO
        71 000062   000002 036003                    ADLQ    2,DU
        71 000063   200012 756100                    STQ     SET_LEN+2,,AUTO
        71 000064   200012 630500                    EPPR0   SET_LEN+2,,AUTO
        71 000065   000001 631400 72                 EPPR1   1
        71 000066   000000 701000 xent               TSX1    COLLECT_GARBAGE
        71 000067   000000 011000                    NOP     0

      101      887    4           KEYN$ -> KEY_B.SET$ = ADDR(NIL);

    887 71 000070   000000 236000 72                 LDQ     0
        71 000071   200006 470500                    LDP0    KEYN$,,AUTO
        71 000072   000002 756100                    STQ     2,,PR0

PL6.E3A0      #002=RECLAIM_CONFIG_MEM File=LR_ERRREC.:Z8A6TSI                    SAT 08/09/97 09:28 Page:28
      102      888    4         END;

      103      889
      104      890    3       IF KEYN$ -> KEY_B.W.SYM_AFTER = 0 THEN

    890 71 000073   200006 470500                    LDP0    KEYN$,,AUTO
        71 000074   000004 235100                    LDA     4,,PR0
        71 000075   000116 601000 71                 TNZ     s:897

      105      891    3         IF KEYN$ -> KEY_B.FOLLOW$ ~= ADDR(NIL) THEN

    891 71 000076   000003 236100                    LDQ     3,,PR0
        71 000077   000000 116000 72                 CMPQ    0
        71 000100   000116 600000 71                 TZE     s:897

      106      892    4           DO;

      107      893    4             KEYN$ -> KEY_B.FOLLOW$ -> STRING.LEN_IN_H = INCL_LEN;

    893 71 000101   000003 471500                    LDP1    3,,PR0
        71 000102   200007 720100                    LXL0    INCL_LEN,,AUTO
        71 000103   100000 740100                    STX0    0,,PR1

      108      894    4             CALL COLLECT_GARBAGE (KEYN$ -> KEY_B.FOLLOW$);

    894 71 000104   200006 236100                    LDQ     KEYN$,,AUTO
        71 000105   000003 036003                    ADLQ    3,DU
        71 000106   200012 756100                    STQ     SET_LEN+2,,AUTO
        71 000107   200012 630500                    EPPR0   SET_LEN+2,,AUTO
        71 000110   000001 631400 72                 EPPR1   1
        71 000111   000000 701000 xent               TSX1    COLLECT_GARBAGE
        71 000112   000000 011000                    NOP     0

      109      895    4             KEYN$ -> KEY_B.FOLLOW$ = ADDR(NIL);

    895 71 000113   000000 236000 72                 LDQ     0
        71 000114   200006 470500                    LDP0    KEYN$,,AUTO
PL6.E3A0      #002=RECLAIM_CONFIG_MEM File=LR_ERRREC.:Z8A6TSI                    SAT 08/09/97 09:28 Page:29
        71 000115   000003 756100                    STQ     3,,PR0

      110      896    4           END;

      111      897    3     END;

    897 71 000116   200004 054100                    AOS     K,,AUTO
        71 000117   200005 470500                    LDP0    C$,,AUTO
        71 000120   000001 236100                    LDQ     1,,PR0
        71 000121   777777 376007                    ANQ     -1,DL
        71 000122   200004 116100                    CMPQ    K,,AUTO
        71 000123   000021 605400 71                 TPNZ    s:874

      112      898    2   END;

    898 71 000124   200003 054100                    AOS     I,,AUTO
        71 000125   200003 236100                    LDQ     I,,AUTO
        71 000126   000000 116000 37                 CMPQ    NR_CONFIG
        71 000127   000014 604000 71                 TMI     s:870

      113      899
      114      900    1   END RECLAIM_CONFIG_MEM;

    900 71 000130   000000 702200 xent               TSX2  ! X66_ARET
      115      901        %EOD;

PL6.E3A0      #002=RECLAIM_CONFIG_MEM File=LR_ERRREC.:Z8A6TSI                    SAT 08/09/97 09:28 Page:30
--  Include file information  --

   LR_ERR_EXT.:Z8A6TOU  cannot be made into a system file and is referenced.
   LR_CNFG_EXT.:Z8A6TOU  cannot be made into a system file and is referenced.
   LR_IO_EXT.:Z8A6TOU  cannot be made into a system file and is referenced.
   LR_GRAM_EXT.:Z8A6TOU  cannot be made into a system file and is referenced.
      No diagnostics issued in procedure RECLAIM_CONFIG_MEM.
PL6.E3A0      #002=RECLAIM_CONFIG_MEM File=LR_ERRREC.:Z8A6TSI                    SAT 08/09/97 09:28 Page:31

 **** Variables and constants ****

  ****  Section 000 LblCom OUT_DCBN

  ****  Scalars and arrays  ****
OctLoc.c.b A Datatyp(siz) R M Lvl/name                 OctLoc.c.b A Datatyp(siz) R M Lvl/name

     0-0-0/w SBIN              1 OUT_DCBN

  ****  Section 006 LblCom SYM_PTRS

  ****  Scalars and arrays  ****
OctLoc.c.b A Datatyp(siz) R M Lvl/name                 OctLoc.c.b A Datatyp(siz) R M Lvl/name

     0-0-0/w PTR               1 SYM_PTRS(0:1400)

  ****  Section 007 LblCom RIGHT_PARTS

  ****  Scalars and arrays  ****
OctLoc.c.b A Datatyp(siz) R M Lvl/name                 OctLoc.c.b A Datatyp(siz) R M Lvl/name

     0-0-0/h SBIN(18)          1 RIGHT_PARTS(0:8000)

  ****  Section 008 LblCom PROD

  ****  Scalars and arrays  ****
OctLoc.c.b A Datatyp(siz) R M Lvl/name                 OctLoc.c.b A Datatyp(siz) R M Lvl/name

     0-0-0/h STRC(72)          1 PROD(0:1500)

  ****  Section 009 LblCom NR_PROD

  ****  Scalars and arrays  ****
OctLoc.c.b A Datatyp(siz) R M Lvl/name                 OctLoc.c.b A Datatyp(siz) R M Lvl/name

     0-0-0/w SBIN              1 NR_PROD

PL6.E3A0      #002=RECLAIM_CONFIG_MEM File=LR_ERRREC.:Z8A6TSI                    SAT 08/09/97 09:28 Page:32
  ****  Section 010 LblCom NR_SYMS

  ****  Scalars and arrays  ****
OctLoc.c.b A Datatyp(siz) R M Lvl/name                 OctLoc.c.b A Datatyp(siz) R M Lvl/name

     0-0-0/w SBIN              1 NR_SYMS

  ****  Section 011 LblCom NR_TERM

  ****  Scalars and arrays  ****
OctLoc.c.b A Datatyp(siz) R M Lvl/name                 OctLoc.c.b A Datatyp(siz) R M Lvl/name

     0-0-0/w SBIN              1 NR_TERM

  ****  Section 012 LblCom LAST_ACT

  ****  Scalars and arrays  ****
OctLoc.c.b A Datatyp(siz) R M Lvl/name                 OctLoc.c.b A Datatyp(siz) R M Lvl/name

     0-0-0/w SBIN              1 LAST_ACT

  ****  Section 013 LblCom LAST_NULL

  ****  Scalars and arrays  ****
OctLoc.c.b A Datatyp(siz) R M Lvl/name                 OctLoc.c.b A Datatyp(siz) R M Lvl/name

     0-0-0/w SBIN              1 LAST_NULL

  ****  Section 014 LblCom NR_ONRIGHT

  ****  Scalars and arrays  ****
OctLoc.c.b A Datatyp(siz) R M Lvl/name                 OctLoc.c.b A Datatyp(siz) R M Lvl/name

     0-0-0/w SBIN              1 NR_ONRIGHT

  ****  Section 015 LblCom NR_NT

PL6.E3A0      #002=RECLAIM_CONFIG_MEM File=LR_ERRREC.:Z8A6TSI                    SAT 08/09/97 09:28 Page:33
  ****  Scalars and arrays  ****
OctLoc.c.b A Datatyp(siz) R M Lvl/name                 OctLoc.c.b A Datatyp(siz) R M Lvl/name

     0-0-0/w SBIN              1 NR_NT

  ****  Section 016 LblCom PROD_LEN_MAX_EVER

  ****  Scalars and arrays  ****
OctLoc.c.b A Datatyp(siz) R M Lvl/name                 OctLoc.c.b A Datatyp(siz) R M Lvl/name

     0-0-0/w SBIN              1 PROD_LEN_MAX_EVER

  ****  Section 017 LblCom LAST_ORDER_SPECIFIED

  ****  Scalars and arrays  ****
OctLoc.c.b A Datatyp(siz) R M Lvl/name                 OctLoc.c.b A Datatyp(siz) R M Lvl/name

     0-0-0/w SBIN              1 LAST_ORDER_SPECIFIED

  ****  Section 018 LblCom SEMANTIC_ORDERING

  ****  Scalars and arrays  ****
OctLoc.c.b A Datatyp(siz) R M Lvl/name                 OctLoc.c.b A Datatyp(siz) R M Lvl/name

     0-0-0/b BIT               1 SEMANTIC_ORDERING

  ****  Section 019 LblCom ERR_SEV

  ****  Scalars and arrays  ****
OctLoc.c.b A Datatyp(siz) R M Lvl/name                 OctLoc.c.b A Datatyp(siz) R M Lvl/name

     0-0-0/w SBIN              1 ERR_SEV

  ****  Section 020 LblCom SET_LENGTHB

  ****  Scalars and arrays  ****
OctLoc.c.b A Datatyp(siz) R M Lvl/name                 OctLoc.c.b A Datatyp(siz) R M Lvl/name
PL6.E3A0      #002=RECLAIM_CONFIG_MEM File=LR_ERRREC.:Z8A6TSI                    SAT 08/09/97 09:28 Page:34

     0-0-0/w SBIN              1 SET_LENGTHB

  ****  Section 021 LblCom SET_LENGTHW

  ****  Scalars and arrays  ****
OctLoc.c.b A Datatyp(siz) R M Lvl/name                 OctLoc.c.b A Datatyp(siz) R M Lvl/name

     0-0-0/w SBIN        r     1 SET_LENGTHW

  ****  Section 022 LblCom EOF_SYMBOL_PTR

  ****  Scalars and arrays  ****
OctLoc.c.b A Datatyp(siz) R M Lvl/name                 OctLoc.c.b A Datatyp(siz) R M Lvl/name

     0-0-0/w PTR               1 EOF_SYMBOL_PTR

  ****  Section 023 LblCom ERROR_SYMBOL_PTR

  ****  Scalars and arrays  ****
OctLoc.c.b A Datatyp(siz) R M Lvl/name                 OctLoc.c.b A Datatyp(siz) R M Lvl/name

     0-0-0/w PTR               1 ERROR_SYMBOL_PTR

  ****  Section 024 LblCom BOF_SYMBOL_PTR

  ****  Scalars and arrays  ****
OctLoc.c.b A Datatyp(siz) R M Lvl/name                 OctLoc.c.b A Datatyp(siz) R M Lvl/name

     0-0-0/w PTR               1 BOF_SYMBOL_PTR

  ****  Section 025 LblCom OPTIONS

  ****  Scalars and arrays  ****
OctLoc.c.b A Datatyp(siz) R M Lvl/name                 OctLoc.c.b A Datatyp(siz) R M Lvl/name

     0-0-0/b BIT               1 OPTIONS(0:25)
PL6.E3A0      #002=RECLAIM_CONFIG_MEM File=LR_ERRREC.:Z8A6TSI                    SAT 08/09/97 09:28 Page:35

  ****  Section 026 LblCom OPTIONS_TEXT

  ****  Scalars and arrays  ****
OctLoc.c.b A Datatyp(siz) R M Lvl/name                 OctLoc.c.b A Datatyp(siz) R M Lvl/name

     0-0-0/c CHAR(4)           1 OPTIONS_TEXT(0:25)

  ****  Section 027 LblCom INSTR

  ****  Scalars and arrays  ****
OctLoc.c.b A Datatyp(siz) R M Lvl/name                 OctLoc.c.b A Datatyp(siz) R M Lvl/name

     0-0-0/c CHAR              1 INSTR(0:511)               0-0-0/c CHAR(512)         1 INSTRCHR

  ****  Section 028 LblCom INSTR_LISTED

  ****  Scalars and arrays  ****
OctLoc.c.b A Datatyp(siz) R M Lvl/name                 OctLoc.c.b A Datatyp(siz) R M Lvl/name

     0-0-0/b BIT               1 INSTR_LISTED

  ****  Section 029 LblCom INSTR_LEN

  ****  Scalars and arrays  ****
OctLoc.c.b A Datatyp(siz) R M Lvl/name                 OctLoc.c.b A Datatyp(siz) R M Lvl/name

     0-0-0/w SBIN              1 INSTR_LEN

  ****  Section 030 LblCom INSTR_INDX

  ****  Scalars and arrays  ****
OctLoc.c.b A Datatyp(siz) R M Lvl/name                 OctLoc.c.b A Datatyp(siz) R M Lvl/name

     0-0-0/w SBIN              1 INSTR_INDX

  ****  Section 031 LblCom EOF_FLAG
PL6.E3A0      #002=RECLAIM_CONFIG_MEM File=LR_ERRREC.:Z8A6TSI                    SAT 08/09/97 09:28 Page:36

  ****  Scalars and arrays  ****
OctLoc.c.b A Datatyp(siz) R M Lvl/name                 OctLoc.c.b A Datatyp(siz) R M Lvl/name

     0-0-0/b BIT               1 EOF_FLAG

  ****  Section 032 LblCom KEY_REC

  ****  Scalars and arrays  ****
OctLoc.c.b A Datatyp(siz) R M Lvl/name                 OctLoc.c.b A Datatyp(siz) R M Lvl/name

     0-0-0/c CHAR(10)          1 KEY_REC

  ****  Section 033 LblCom LINE

  ****  Scalars and arrays  ****
OctLoc.c.b A Datatyp(siz) R M Lvl/name                 OctLoc.c.b A Datatyp(siz) R M Lvl/name

     0-0-0/c CHAR(109)         1 LINE

  ****  Section 034 LblCom LINELEN

  ****  Scalars and arrays  ****
OctLoc.c.b A Datatyp(siz) R M Lvl/name                 OctLoc.c.b A Datatyp(siz) R M Lvl/name

     0-0-0/w SBIN              1 LINELEN

  ****  Section 035 LblCom TSTATS

  ****  Scalars and arrays  ****
OctLoc.c.b A Datatyp(siz) R M Lvl/name                 OctLoc.c.b A Datatyp(siz) R M Lvl/name

     0-0-0/w STRC(7380)        1 TSTATS

  ****  Section 036 LblCom C#_TO_$

  ****  Scalars and arrays  ****
PL6.E3A0      #002=RECLAIM_CONFIG_MEM File=LR_ERRREC.:Z8A6TSI                    SAT 08/09/97 09:28 Page:37
OctLoc.c.b A Datatyp(siz) R M Lvl/name                 OctLoc.c.b A Datatyp(siz) R M Lvl/name

     0-0-0/w PTR         r     1 C#_TO_$(0:2200)

  ****  Section 037 LblCom NR_CONFIG

  ****  Scalars and arrays  ****
OctLoc.c.b A Datatyp(siz) R M Lvl/name                 OctLoc.c.b A Datatyp(siz) R M Lvl/name

     0-0-0/w SBIN        r     1 NR_CONFIG

  ****  Section 038 LblCom INIT_CONFIG

  ****  Scalars and arrays  ****
OctLoc.c.b A Datatyp(siz) R M Lvl/name                 OctLoc.c.b A Datatyp(siz) R M Lvl/name

     0-0-0/w SBIN              1 INIT_CONFIG

  ****  Section 039 LblCom MAX_BASIS_ITEMS

  ****  Scalars and arrays  ****
OctLoc.c.b A Datatyp(siz) R M Lvl/name                 OctLoc.c.b A Datatyp(siz) R M Lvl/name

     0-0-0/w SBIN              1 MAX_BASIS_ITEMS

  ****  Section 040 LblCom MAX_TOTAL_ITEMS

  ****  Scalars and arrays  ****
OctLoc.c.b A Datatyp(siz) R M Lvl/name                 OctLoc.c.b A Datatyp(siz) R M Lvl/name

     0-0-0/w SBIN              1 MAX_TOTAL_ITEMS

  ****  Section 041 LblCom LAST_BINSRCH_ONLY

  ****  Scalars and arrays  ****
OctLoc.c.b A Datatyp(siz) R M Lvl/name                 OctLoc.c.b A Datatyp(siz) R M Lvl/name

PL6.E3A0      #002=RECLAIM_CONFIG_MEM File=LR_ERRREC.:Z8A6TSI                    SAT 08/09/97 09:28 Page:38
     0-0-0/w SBIN              1 LAST_BINSRCH_ONLY

  ****  Section 042 LblCom LAST_BOTH_BITBIN

  ****  Scalars and arrays  ****
OctLoc.c.b A Datatyp(siz) R M Lvl/name                 OctLoc.c.b A Datatyp(siz) R M Lvl/name

     0-0-0/w SBIN              1 LAST_BOTH_BITBIN

  ****  Section 043 LblCom GARBAGE

  ****  Scalars and arrays  ****
OctLoc.c.b A Datatyp(siz) R M Lvl/name                 OctLoc.c.b A Datatyp(siz) R M Lvl/name

     0-0-0/w PTR               1 GARBAGE(0:100)

  ****  Section 044 LblCom AMT_GARBAGE

  ****  Scalars and arrays  ****
OctLoc.c.b A Datatyp(siz) R M Lvl/name                 OctLoc.c.b A Datatyp(siz) R M Lvl/name

     0-0-0/w SBIN              1 AMT_GARBAGE

  ****  Section 045 LblCom LEAST_COST_STRING

  ****  Scalars and arrays  ****
OctLoc.c.b A Datatyp(siz) R M Lvl/name                 OctLoc.c.b A Datatyp(siz) R M Lvl/name

     0-0-0/w PTR               1 LEAST_COST_STRING(0:1400)

  ****  Section 046 LblCom LEAST_COST_PREFIX

  ****  Scalars and arrays  ****
OctLoc.c.b A Datatyp(siz) R M Lvl/name                 OctLoc.c.b A Datatyp(siz) R M Lvl/name

     0-0-0/w PTR               1 LEAST_COST_PREFIX(0:1400)

PL6.E3A0      #002=RECLAIM_CONFIG_MEM File=LR_ERRREC.:Z8A6TSI                    SAT 08/09/97 09:28 Page:39
  ****  Section 047 LblCom CURRE

  ****  Scalars and arrays  ****
OctLoc.c.b A Datatyp(siz) R M Lvl/name                 OctLoc.c.b A Datatyp(siz) R M Lvl/name

     0-0-0/d STRC(126)         1 CURRE(0:1400)

  ****  Section 048 LblCom LCP_INDX

  ****  Scalars and arrays  ****
OctLoc.c.b A Datatyp(siz) R M Lvl/name                 OctLoc.c.b A Datatyp(siz) R M Lvl/name

     0-0-0/h SBIN(18)          1 LCP_INDX(0:1400)

  ****  Section 049 LblCom COM_STRSP_LEN

  ****  Scalars and arrays  ****
OctLoc.c.b A Datatyp(siz) R M Lvl/name                 OctLoc.c.b A Datatyp(siz) R M Lvl/name

     0-0-0/w SBIN        r     1 COM_STRSP_LEN

  ****  Section 050 LblCom COM_SEARCH_STRING

  ****  Scalars and arrays  ****
OctLoc.c.b A Datatyp(siz) R M Lvl/name                 OctLoc.c.b A Datatyp(siz) R M Lvl/name

     0-0-0/w PTR         r     1 COM_SEARCH_STRING

  ****  Section 051 LblCom COM_SEARCH_STRING_LEN

  ****  Scalars and arrays  ****
OctLoc.c.b A Datatyp(siz) R M Lvl/name                 OctLoc.c.b A Datatyp(siz) R M Lvl/name

     0-0-0/w SBIN        r     1 COM_SEARCH_STRING_LEN

  ****  Section 052 LblCom COM_STRING_SPACE_LEN

PL6.E3A0      #002=RECLAIM_CONFIG_MEM File=LR_ERRREC.:Z8A6TSI                    SAT 08/09/97 09:28 Page:40
  ****  Scalars and arrays  ****
OctLoc.c.b A Datatyp(siz) R M Lvl/name                 OctLoc.c.b A Datatyp(siz) R M Lvl/name

     0-0-0/w SBIN        r     1 COM_STRING_SPACE_LEN

  ****  Section 053 LblCom COM_STRING_SPACE_H

  ****  Scalars and arrays  ****
OctLoc.c.b A Datatyp(siz) R M Lvl/name                 OctLoc.c.b A Datatyp(siz) R M Lvl/name

     0-0-0/h SBIN(18)    r     1 COM_STRING_SPACE_H(0:24999)

  ****  Section 054 LblCom COM_STRING_SPACE$

  ****  Scalars and arrays  ****
OctLoc.c.b A Datatyp(siz) R M Lvl/name                 OctLoc.c.b A Datatyp(siz) R M Lvl/name

     0-0-0/w PTR         r     1 COM_STRING_SPACE$

  ****  Section 055 LblCom COM_STRING_PTR

  ****  Scalars and arrays  ****
OctLoc.c.b A Datatyp(siz) R M Lvl/name                 OctLoc.c.b A Datatyp(siz) R M Lvl/name

     0-0-0/w PTR         r     1 COM_STRING_PTR

  ****  Section 056 LblCom COM_STRING_INDX

  ****  Scalars and arrays  ****
OctLoc.c.b A Datatyp(siz) R M Lvl/name                 OctLoc.c.b A Datatyp(siz) R M Lvl/name

     0-0-0/w SBIN              1 COM_STRING_INDX

  ****  Section 057 LblCom LCP_TABLE_LEN

  ****  Scalars and arrays  ****
OctLoc.c.b A Datatyp(siz) R M Lvl/name                 OctLoc.c.b A Datatyp(siz) R M Lvl/name
PL6.E3A0      #002=RECLAIM_CONFIG_MEM File=LR_ERRREC.:Z8A6TSI                    SAT 08/09/97 09:28 Page:41

     0-0-0/w SBIN              1 LCP_TABLE_LEN

  ****  Section 058 LblCom STATE_ITEM_INDEX

  ****  Scalars and arrays  ****
OctLoc.c.b A Datatyp(siz) R M Lvl/name                 OctLoc.c.b A Datatyp(siz) R M Lvl/name

     0-0-0/h STRC              1 STATE_ITEM_INDEX(0:2200)

  ****  Section 059 LblCom PATH

  ****  Scalars and arrays  ****
OctLoc.c.b A Datatyp(siz) R M Lvl/name                 OctLoc.c.b A Datatyp(siz) R M Lvl/name

     0-0-0/h STRC        r     1 PATH(0:17600)

  ****  Section 060 LblCom PATH_STRINGS_LEN

  ****  Scalars and arrays  ****
OctLoc.c.b A Datatyp(siz) R M Lvl/name                 OctLoc.c.b A Datatyp(siz) R M Lvl/name

     0-0-0/w SBIN        r     1 PATH_STRINGS_LEN

  ****  Section 061 LblCom PATH_ADDR$

  ****  Scalars and arrays  ****
OctLoc.c.b A Datatyp(siz) R M Lvl/name                 OctLoc.c.b A Datatyp(siz) R M Lvl/name

     0-0-0/w PTR         r     1 PATH_ADDR$

  ****  Section 062 LblCom PATH_TABLE_LEN

  ****  Scalars and arrays  ****
OctLoc.c.b A Datatyp(siz) R M Lvl/name                 OctLoc.c.b A Datatyp(siz) R M Lvl/name

     0-0-0/w SBIN              1 PATH_TABLE_LEN
PL6.E3A0      #002=RECLAIM_CONFIG_MEM File=LR_ERRREC.:Z8A6TSI                    SAT 08/09/97 09:28 Page:42

  ****  Section 063 LblCom EDGECOST

  ****  Scalars and arrays  ****
OctLoc.c.b A Datatyp(siz) R M Lvl/name                 OctLoc.c.b A Datatyp(siz) R M Lvl/name

     0-0-0/w SBIN              1 EDGECOST(0:400)

  ****  Section 064 LblCom ITEM_TABLE_LEN

  ****  Scalars and arrays  ****
OctLoc.c.b A Datatyp(siz) R M Lvl/name                 OctLoc.c.b A Datatyp(siz) R M Lvl/name

     0-0-0/w SBIN              1 ITEM_TABLE_LEN

  ****  Section 065 LblCom ORDERED_ITEM

  ****  Scalars and arrays  ****
OctLoc.c.b A Datatyp(siz) R M Lvl/name                 OctLoc.c.b A Datatyp(siz) R M Lvl/name

     0-0-0/h STRC              1 ORDERED_ITEM(0:400)

  ****  Section 066 LblCom NEIGHBOR

  ****  Scalars and arrays  ****
OctLoc.c.b A Datatyp(siz) R M Lvl/name                 OctLoc.c.b A Datatyp(siz) R M Lvl/name

     0-0-0/w SBIN              1 NEIGHBOR(0:400)

  ****  Section 067 LblCom PATH_INFO

  ****  Scalars and arrays  ****
OctLoc.c.b A Datatyp(siz) R M Lvl/name                 OctLoc.c.b A Datatyp(siz) R M Lvl/name

     0-0-0/w STRC(28872)       1 PATH_INFO

  ****  Section 068 LblCom CHOSEN
PL6.E3A0      #002=RECLAIM_CONFIG_MEM File=LR_ERRREC.:Z8A6TSI                    SAT 08/09/97 09:28 Page:43

  ****  Scalars and arrays  ****
OctLoc.c.b A Datatyp(siz) R M Lvl/name                 OctLoc.c.b A Datatyp(siz) R M Lvl/name

     0-0-0/w BIT               1 CHOSEN(0:400)

  ****  Section 069 LblCom REACHED

  ****  Scalars and arrays  ****
OctLoc.c.b A Datatyp(siz) R M Lvl/name                 OctLoc.c.b A Datatyp(siz) R M Lvl/name

     0-0-0/b BIT               1 REACHED(0:400)

  ****  Section 070 LblCom EXP_PATH_INDX

  ****  Scalars and arrays  ****
OctLoc.c.b A Datatyp(siz) R M Lvl/name                 OctLoc.c.b A Datatyp(siz) R M Lvl/name

     0-0-0/w SBIN              1 EXP_PATH_INDX

  ****  Auto variables  ****

  ****  Scalars and arrays  ****
OctLoc.c.b A Datatyp(siz) R M Lvl/name                 OctLoc.c.b A Datatyp(siz) R M Lvl/name

     5-0-0/w PTR         r     1 C$                         3-0-0/w SBIN        r     1 I
     7-0-0/w SBIN        r     1 INCL_LEN                   4-0-0/w SBIN        r     1 K
     6-0-0/w PTR         r     1 KEYN$                     10-0-0/w SBIN        r     1 SET_LEN

  ****  BASED and DCB variables  ****

  ****  Scalars and arrays  ****
OctLoc.c.b A Datatyp(siz) R M Lvl/name                 OctLoc.c.b A Datatyp(siz) R M Lvl/name

     0-0-0/w STRC(72)          1 CELL                       0-0-0/c ACHR              1 COM_STRINGS
     0-0-0/c ACHR              1 COM_STRING_SPACE           0-0-0/c ACHR              1 CSEARCH_STRING
     0-0-0/w STRC(57888) r     1 C_SET_B                    0-0-0/w STRC(72)          1 INCLUDES_B
PL6.E3A0      #002=RECLAIM_CONFIG_MEM File=LR_ERRREC.:Z8A6TSI                    SAT 08/09/97 09:28 Page:44
     0-0-0/w STRC(144)   r     1 INCL_B                     0-0-0/w STRC(5436)        1 ITEM_B
     0-0-0/w STRC(5652)  r     1 KEY_B                      0-0-0N  NULL        r     1 M$LO
     0-0-0N  NULL        r     1 M$OU                       0-0-0N  NULL        r     1 M$SI
     0-0-0N  NULL        r     1 M$SO                       0-0-0N  NULL        r     1 M$UI
     0-0-0/c ACHR              1 PATH_STRINGS               0-0-0/w STRC(90)          1 PREFIX
     0-0-0/w ASTR(72)    r     1 PREFIXCHR                  0-0-0/w STRC        r     1 STRING
     0-0-0/w ASTR(18)    r     1 STRINGCHR                  0-0-0/w STRC(351)         1 SYMBOL


   Procedure RECLAIM_CONFIG_MEM requires 89 words for executable code.
   Procedure RECLAIM_CONFIG_MEM requires 12 words of local(AUTO) storage.

PL6.E3A0      #003=CALC_LEAST_COST_STRINGS File=LR_ERRREC.:Z8A6TSI               SAT 08/09/97 09:28 Page:45
      116        1        /*T***********************************************************/
      117        2        /*T*                                                         */
      118        3        /*T* Copyright (c) Bull HN Information Systems Inc., 1997    */
      119        4        /*T*                                                         */
      120        5        /*T***********************************************************/
      121        6        CALC_LEAST_COST_STRINGS : PROC;
      122        7
      123        8        /*D*
      124        9               NAME: CALC_LEAST_COST_STRINGS
      125       10            PURPOSE:
      126       11
      127       12           Calculate all least cost strings S(A), where A is a
      128       13           non_terminal.  The algorithm used is:
      129       14
      130       15             For all non_terminals, A
      131       16               Do C(A) := Infinite;
      132       17
      133       18             Repeat
      134       19               Nochange := true;
      135       20               For all productions P = (A --> x1, ...xn) Do
      136       21                 If C(x1...xn) < C(A) then
      137       22                   Begin
      138       23                     C(A) := C(x1...xn);
      139       24                     S(A) := S(x1...xn);
      140       25                     Nochange := False;
      141       26                   End
      142       27             Until nochange;
      143       28
      144       29        */
      145       30
      146       31        %INCLUDE LR_GRAM_EXT;
      147      570        %INCLUDE LR_CNFG_EXT;
      148      723        %INCLUDE LR_ERR_EXT;
      149      866
      150      867    1   DCL GET_STRING_MEM             ENTRY(2);
      151      868    1   DCL COLLECT_GARBAGE            ENTRY(1);
      152      869    1   DCL OUT_TOKEN                  ENTRY(2);
PL6.E3A0      #003=CALC_LEAST_COST_STRINGS File=LR_ERRREC.:Z8A6TSI               SAT 08/09/97 09:28 Page:46
      153      870    1   DCL CREATE_LEAST_COST_STRING   ENTRY(1);
      154      871    1   DCL OUT_SYMBOL ENTRY(1);
      155      872    1   DCL OUT_SYMBOL_TOKEN ENTRY(1);
      156      873
      157      874    1   DCL NT SBIN WORD;   /* Non terminal number */
      158      875    1   DCL NP SBIN WORD;  /* Prod Num */
      159      876    1   DCL CP SBIN WORD;  /* Cost of Production */
      160      877    1   DCL RP SBIN WORD;   /* Right part in produc */
      161      878    1   DCL I  SBIN WORD;
      162      879
      163      880    1   DCL NOCHANGE BOOLEAN;
      164      881
      165      882        /* Initialize least cost strings:
      166      883              terminal -> terminal
      167      884             Non term  -> null string
      168      885        */
      169      886
      170      887    2   DO I = 1 TO NR_TERM;
      171      888
      172      889    2     CALL GET_STRING_MEM(LEAST_COST_STRING(I), 1);
      173      890    2     LEAST_COST_STRING(I) -> STRING.TOK(0) = I;
      174      891
      175      892    2   END;
      176      893
      177      894    2   DO NT = NR_TERM + 1 TO LAST_NULL;
      178      895
      179      896    2     LEAST_COST_STRING(NT) = ADDR(NIL);
      180      897
      181      898        /* Set all non_terminal costs to infinite */
      182      899
      183      900    2     SYM_PTRS(NT) -> SYMBOL.COST.NT = INFINITE_COST;
      184      901    2     SYM_PTRS(NT) -> SYMBOL.COST.PROD = -1; /* NO PRODUCTION ASSOCIATED */
      185      902
      186      903    2   END;
      187      904
      188      905        /* Iterate over all productions */
      189      906
PL6.E3A0      #003=CALC_LEAST_COST_STRINGS File=LR_ERRREC.:Z8A6TSI               SAT 08/09/97 09:28 Page:47
      190      907    1   NOCHANGE = FALSE;
      191      908
      192      909    2   DO WHILE (NOT NOCHANGE);
      193      910
      194      911    2     NOCHANGE = TRUE;
      195      912
      196      913    3     DO NP = 0 TO NR_PROD - 1;
      197      914
      198      915            /* Calculate production cost */
      199      916    3       CP = 0;
      200      917
      201      918    4       DO RP = PROD.RIGHT_START(NP) TO PROD.RIGHT_START(NP) + PROD.RIGHT_CNT(NP) - 1;
      202      919
      203      920    4         CP = CP + SYM_PTRS(RIGHT_PARTS(RP)) -> SYMBOL.COST.INS;
      204      921
      205      922    4       END;
      206      923
      207      924    3       IF CP < INFINITE_COST THEN
      208      925    3         IF CP < SYM_PTRS(PROD.GOAL_SYM_INDX(NP)) -> SYMBOL.COST.INS THEN
      209      926    4           DO;
      210      927
      211      928    4             SYM_PTRS(PROD.GOAL_SYM_INDX(NP)) -> SYMBOL.COST.INS = CP;
      212      929
      213      930    4             SYM_PTRS(PROD.GOAL_SYM_INDX(NP)) -> SYMBOL.COST.PROD = NP;
      214      931    4             NOCHANGE = FALSE;
      215      932
      216      933    4           END;
      217      934    3     END;
      218      935    2   END;
      219      936
      220      937        /* ACTUALLY CREATE THE STRINGS FOR EACH NON_TERMINAL */
      221      938
      222      939    2   DO NT = NR_TERM + 1 TO LAST_NULL;
      223      940    2     IF LEAST_COST_STRING(NT) = ADDR(NIL) THEN
      224      941    2       CALL CREATE_LEAST_COST_STRING(NT);
      225      942    2   END;
      226      943
PL6.E3A0      #003=CALC_LEAST_COST_STRINGS File=LR_ERRREC.:Z8A6TSI               SAT 08/09/97 09:28 Page:48
      227      944
      228      945    1   IF OPTIONS(ERROR_LIST_S_OPT) THEN
      229      946    2     DO;
      230      947            %SELECT_LO;
      231      950
      232      951          /* Print out all least cost strings */
      233      952
      234      953          %OUTLINE(S="' '");
      235      959          %OUTLINE(S="' '");
      236      965          %OUTLINE(S="'=================='");
      237      971          %OUTLINE(S="'LEAST COST STRINGS'");
      238      977          %OUTLINE(S="'=================='");
      239      983          %OUTLINE(S="' '");
      240      989
      241      990    3     DO NT = NR_TERM + 1 TO LAST_NULL;
      242      991
      243      992    3       CALL OUT_SYMBOL_TOKEN(SYM_PTRS(NT));
      244      993    3       IF LINELEN < 15 THEN
      245      994    3         CALL OUT_STR('               ',15-LINELEN);
      246      995            %OUT_TOKEN(S="'-->'");
      247      998    4       DO I = 1 TO LEAST_COST_STRING(NT)->STRING.LEN_IN_H;
      248      999    4         CALL OUT_SYMBOL_TOKEN(SYM_PTRS(LEAST_COST_STRING(NT)->STRING.TOK(I-1)));
      249     1000    4       END;
      250     1001    3       CALL FLUSH;
      251     1002
      252     1003    3     END;
      253     1004    2     END;
      254     1005
      255     1006    1   END CALC_LEAST_COST_STRINGS;
      256     1007        %EOD;

PL6.E3A0      #003=CALC_LEAST_COST_STRINGS File=LR_ERRREC.:Z8A6TSI               SAT 08/09/97 09:28 Page:49
--  Include file information  --

   LR_ERR_EXT.:Z8A6TOU  cannot be made into a system file and is referenced.
   LR_CNFG_EXT.:Z8A6TOU  cannot be made into a system file and is referenced.
   LR_IO_EXT.:Z8A6TOU  cannot be made into a system file and is referenced.
   LR_GRAM_EXT.:Z8A6TOU  cannot be made into a system file and is referenced.
      No diagnostics issued in procedure CALC_LEAST_COST_STRINGS.

   Procedure CALC_LEAST_COST_STRINGS requires 227 words for executable code.
   Procedure CALC_LEAST_COST_STRINGS requires 14 words of local(AUTO) storage.

PL6.E3A0      #003=CALC_LEAST_COST_STRINGS File=LR_ERRREC.:Z8A6TSI               SAT 08/09/97 09:28 Page:50

 Object Unit name= CALC_LEAST_COST_STRINGS                    File name= LR_ERRREC.:Z8A6TOU
 UTS= AUG 09 '97 09:28:39.28 SAT                              Compiler= PL-6/E31         Sev=      00
 SharedLib= :SHARED_SYSTEM                                    Alt SharedLib=


    ****  Control sections  ****

 Sect   Type Bound  Init  Size OctSiz  Section name(segment info)
    0  LblCom even  none     1      1  OUT_DCBN
    1   DCB   even  none     0      0  M$OU
    2   DCB   even  none     0      0  M$SO
    3   DCB   even  none     0      0  M$LO
    4   DCB   even  none     0      0  M$SI
    5   DCB   even  none     0      0  M$UI
    6  LblCom even  none  1401   2571  SYM_PTRS
    7  LblCom even  none  4001   7641  RIGHT_PARTS
    8  LblCom even  none  3002   5672  PROD
    9  LblCom even  none     1      1  NR_PROD
   10  LblCom even  none     1      1  NR_SYMS
   11  LblCom even  none     1      1  NR_TERM
   12  LblCom even  none     1      1  LAST_ACT
   13  LblCom even  none     1      1  LAST_NULL
   14  LblCom even  none     1      1  NR_ONRIGHT
   15  LblCom even  none     1      1  NR_NT
   16  LblCom even  none     1      1  PROD_LEN_MAX_EVER
   17  LblCom even  none     1      1  LAST_ORDER_SPECIFIED
   18  LblCom even  none     1      1  SEMANTIC_ORDERING
   19  LblCom even  none     1      1  ERR_SEV
   20  LblCom even  none     1      1  SET_LENGTHB
   21  LblCom even  none     1      1  SET_LENGTHW
   22  LblCom even  none     1      1  EOF_SYMBOL_PTR
   23  LblCom even  none     1      1  ERROR_SYMBOL_PTR
   24  LblCom even  none     1      1  BOF_SYMBOL_PTR
   25  LblCom even  none     1      1  OPTIONS
   26  LblCom even  none    26     32  OPTIONS_TEXT
   27  LblCom even  none   128    200  INSTR
   28  LblCom even  none     1      1  INSTR_LISTED
PL6.E3A0      #003=CALC_LEAST_COST_STRINGS File=LR_ERRREC.:Z8A6TSI               SAT 08/09/97 09:28 Page:51
   29  LblCom even  none     1      1  INSTR_LEN
   30  LblCom even  none     1      1  INSTR_INDX
   31  LblCom even  none     1      1  EOF_FLAG
   32  LblCom even  none     3      3  KEY_REC
   33  LblCom even  none    28     34  LINE
   34  LblCom even  none     1      1  LINELEN
   35  LblCom even  none   205    315  TSTATS
   36  LblCom even  none  2201   4231  C#_TO_$
   37  LblCom even  none     1      1  NR_CONFIG
   38  LblCom even  none     1      1  INIT_CONFIG
   39  LblCom even  none     1      1  MAX_BASIS_ITEMS
   40  LblCom even  none     1      1  MAX_TOTAL_ITEMS
   41  LblCom even  none     1      1  LAST_BINSRCH_ONLY
   42  LblCom even  none     1      1  LAST_BOTH_BITBIN
   43  LblCom even  none   101    145  GARBAGE
   44  LblCom even  none     1      1  AMT_GARBAGE
   45  LblCom even  none  1401   2571  LEAST_COST_STRING
   46  LblCom even  none  1401   2571  LEAST_COST_PREFIX
   47  LblCom even  none  5604  12744  CURRE
   48  LblCom even  none   701   1275  LCP_INDX
   49  LblCom even  none     1      1  COM_STRSP_LEN
   50  LblCom even  none     1      1  COM_SEARCH_STRING
   51  LblCom even  none     1      1  COM_SEARCH_STRING_LEN
   52  LblCom even  none     1      1  COM_STRING_SPACE_LEN
   53  LblCom even  none 12500  30324  COM_STRING_SPACE_H
   54  LblCom even  none     1      1  COM_STRING_SPACE$
   55  LblCom even  none     1      1  COM_STRING_PTR
   56  LblCom even  none     1      1  COM_STRING_INDX
   57  LblCom even  none     1      1  LCP_TABLE_LEN
   58  LblCom even  none  2201   4231  STATE_ITEM_INDEX
   59  LblCom even  none 17601  42301  PATH
   60  LblCom even  none     1      1  PATH_STRINGS_LEN
   61  LblCom even  none     1      1  PATH_ADDR$
   62  LblCom even  none     1      1  PATH_TABLE_LEN
   63  LblCom even  none   401    621  EDGECOST
   64  LblCom even  none     1      1  ITEM_TABLE_LEN
   65  LblCom even  none   401    621  ORDERED_ITEM
PL6.E3A0      #003=CALC_LEAST_COST_STRINGS File=LR_ERRREC.:Z8A6TSI               SAT 08/09/97 09:28 Page:52
   66  LblCom even  none   401    621  NEIGHBOR
   67  LblCom even  none   802   1442  PATH_INFO
   68  LblCom even  none   401    621  CHOSEN
   69  LblCom even  none    12     14  REACHED
   70  LblCom even  none     1      1  EXP_PATH_INDX
   71  RoData even  UTS     15     17  CALC_LEAST_COST_STRINGS
   72   Proc  even  none   227    343  CALC_LEAST_COST_STRINGS
   73  RoData even  none    19     23  CALC_LEAST_COST_STRINGS

    ****  Entry defs  ****

                              Check   Calling
                             calling  sequence
  Sect OctLoc Primary Altret sequence   type   Parms  Name
    72      0   yes            yes      Std        0  CALC_LEAST_COST_STRINGS

  ****  Entry refs  ****

         Check        Calling
        calling       sequence
Altret sequence SRef   type   Args  Name
         yes           Std       2 GET_STRING_MEM
         yes           Std       1 CREATE_LEAST_COST_STRING
         yes           Std       1 OUT_SYMBOL_TOKEN
         yes           Std       0 FLUSH
         yes           Std       2 OUT_STR
         yes           Std       2 OUT_TOKEN
                       nStd      0 X66_AUTO_0
                       nStd      0 X66_ARET

  ****  Data refs  ****

  Flags:  r = read only, s = secondary
Flgs Name                             Flgs Name                             Flgs Name
     M$OU                                  M$SO                                  M$LO
     M$SI                                  M$UI
PL6.E3A0      #003=CALC_LEAST_COST_STRINGS File=LR_ERRREC.:Z8A6TSI               SAT 08/09/97 09:28 Page:53

  ****  Segment refs  ****

  Flags:  r = read only, s = secondary
Flgs Name                             Flgs Name                             Flgs Name
     NULLSID                               ISSID
PL6.E3A0      #003=CALC_LEAST_COST_STRINGS File=LR_ERRREC.:Z8A6TSI               SAT 08/09/97 09:28 Page:54


      116        1        /*T***********************************************************/
      117        2        /*T*                                                         */
      118        3        /*T* Copyright (c) Bull HN Information Systems Inc., 1997    */
      119        4        /*T*                                                         */
      120        5        /*T***********************************************************/
      121        6        CALC_LEAST_COST_STRINGS : PROC;

      6 72 000000   000000 700200 xent  CALC_LEAST_* TSX0  ! X66_AUTO_0
        72 000001   000016 000000                    ZERO    14,0

      122        7
      123        8        /*D*
      124        9               NAME: CALC_LEAST_COST_STRINGS
      125       10            PURPOSE:
      126       11
      127       12           Calculate all least cost strings S(A), where A is a
      128       13           non_terminal.  The algorithm used is:
      129       14
      130       15             For all non_terminals, A
      131       16               Do C(A) := Infinite;
      132       17
      133       18             Repeat
      134       19               Nochange := true;
      135       20               For all productions P = (A --> x1, ...xn) Do
      136       21                 If C(x1...xn) < C(A) then
      137       22                   Begin
      138       23                     C(A) := C(x1...xn);
      139       24                     S(A) := S(x1...xn);
      140       25                     Nochange := False;
      141       26                   End
      142       27             Until nochange;
      143       28
      144       29        */
      145       30
      146       31        %INCLUDE LR_GRAM_EXT;
      147      570        %INCLUDE LR_CNFG_EXT;
PL6.E3A0      #003=CALC_LEAST_COST_STRINGS File=LR_ERRREC.:Z8A6TSI               SAT 08/09/97 09:28 Page:55
      148      723        %INCLUDE LR_ERR_EXT;
      149      866
      150      867    1   DCL GET_STRING_MEM             ENTRY(2);
      151      868    1   DCL COLLECT_GARBAGE            ENTRY(1);
      152      869    1   DCL OUT_TOKEN                  ENTRY(2);
      153      870    1   DCL CREATE_LEAST_COST_STRING   ENTRY(1);
      154      871    1   DCL OUT_SYMBOL ENTRY(1);
      155      872    1   DCL OUT_SYMBOL_TOKEN ENTRY(1);
      156      873
      157      874    1   DCL NT SBIN WORD;   /* Non terminal number */
      158      875    1   DCL NP SBIN WORD;  /* Prod Num */
      159      876    1   DCL CP SBIN WORD;  /* Cost of Production */
      160      877    1   DCL RP SBIN WORD;   /* Right part in produc */
      161      878    1   DCL I  SBIN WORD;
      162      879
      163      880    1   DCL NOCHANGE BOOLEAN;
      164      881
      165      882        /* Initialize least cost strings:
      166      883              terminal -> terminal
      167      884             Non term  -> null string
      168      885        */
      169      886
      170      887    2   DO I = 1 TO NR_TERM;

    887 72 000002   000001 235007                    LDA     1,DL
        72 000003   200007 755100                    STA     I,,AUTO
        72 000004   000022 710000 72                 TRA     s:892+1

      171      888
      172      889    2     CALL GET_STRING_MEM(LEAST_COST_STRING(I), 1);

    889 72 000005   000002 236000 73                 LDQ     2
        72 000006   200013 756100                    STQ     NOCHANGE+3,,AUTO
        72 000007   200007 720100                    LXL0    I,,AUTO
        72 000010   000000 630410 45                 EPPR0   LEAST_COST_STRING,X0
        72 000011   200012 450500                    STP0    NOCHANGE+2,,AUTO
        72 000012   200012 630500                    EPPR0   NOCHANGE+2,,AUTO
PL6.E3A0      #003=CALC_LEAST_COST_STRINGS File=LR_ERRREC.:Z8A6TSI               SAT 08/09/97 09:28 Page:56
        72 000013   000000 631400 73                 EPPR1   0
        72 000014   000000 701000 xent               TSX1    GET_STRING_MEM
        72 000015   000000 011000                    NOP     0

      173      890    2     LEAST_COST_STRING(I) -> STRING.TOK(0) = I;

    890 72 000016   200007 720100                    LXL0    I,,AUTO
        72 000017   000000 470410 45                 LDP0    LEAST_COST_STRING,X0
        72 000020   000000 440100                    SXL0    0,,PR0

      174      891
      175      892    2   END;

    892 72 000021   200007 054100                    AOS     I,,AUTO
        72 000022   200007 236100                    LDQ     I,,AUTO
        72 000023   000000 116000 11                 CMPQ    NR_TERM
        72 000024   000005 604400 72                 TMOZ    s:889

      176      893
      177      894    2   DO NT = NR_TERM + 1 TO LAST_NULL;

    894 72 000025   000000 235000 11                 LDA     NR_TERM
        72 000026   000001 035007                    ADLA    1,DL
        72 000027   200003 755100                    STA     NT,,AUTO
        72 000030   000043 710000 72                 TRA     s:903+1

      178      895
      179      896    2     LEAST_COST_STRING(NT) = ADDR(NIL);

    896 72 000031   000003 236000 73                 LDQ     3
        72 000032   200003 720100                    LXL0    NT,,AUTO
        72 000033   000000 756010 45                 STQ     LEAST_COST_STRING,X0

      180      897
      181      898        /* Set all non_terminal costs to infinite */
      182      899
      183      900    2     SYM_PTRS(NT) -> SYMBOL.COST.NT = INFINITE_COST;
PL6.E3A0      #003=CALC_LEAST_COST_STRINGS File=LR_ERRREC.:Z8A6TSI               SAT 08/09/97 09:28 Page:57

    900 72 000034   000000 470410 6                  LDP0    SYM_PTRS,X0
        72 000035   303237 221003                    LDX1    99999,DU
        72 000036   000005 741100                    STX1    5,,PR0

      184      901    2     SYM_PTRS(NT) -> SYMBOL.COST.PROD = -1; /* NO PRODUCTION ASSOCIATED */

    901 72 000037   000000 470410 6                  LDP0    SYM_PTRS,X0
        72 000040   777777 222003                    LDX2    -1,DU
        72 000041   000005 442100                    SXL2    5,,PR0

      185      902
      186      903    2   END;

    903 72 000042   200003 054100                    AOS     NT,,AUTO
        72 000043   200003 236100                    LDQ     NT,,AUTO
        72 000044   000000 116000 13                 CMPQ    LAST_NULL
        72 000045   000031 604400 72                 TMOZ    s:896

      187      904
      188      905        /* Iterate over all productions */
      189      906
      190      907    1   NOCHANGE = FALSE;

    907 72 000046   200010 450100                    STZ     NOCHANGE,,AUTO

      191      908
      192      909    2   DO WHILE (NOT NOCHANGE);

    909 72 000047   000142 710000 72                 TRA     s:935

      193      910
      194      911    2     NOCHANGE = TRUE;

    911 72 000050   400000 236003                    LDQ     -131072,DU
        72 000051   200010 756100                    STQ     NOCHANGE,,AUTO

PL6.E3A0      #003=CALC_LEAST_COST_STRINGS File=LR_ERRREC.:Z8A6TSI               SAT 08/09/97 09:28 Page:58
      195      912
      196      913    3     DO NP = 0 TO NR_PROD - 1;

    913 72 000052   200004 450100                    STZ     NP,,AUTO
        72 000053   000137 710000 72                 TRA     s:934+1

      197      914
      198      915            /* Calculate production cost */
      199      916    3       CP = 0;

    916 72 000054   200005 450100                    STZ     CP,,AUTO

      200      917
      201      918    4       DO RP = PROD.RIGHT_START(NP) TO PROD.RIGHT_START(NP) + PROD.RIGHT_CNT(NP) - 1;

    918 72 000055   200004 235100                    LDA     NP,,AUTO
        72 000056   000001 735000                    ALS     1
        72 000057   000001 236005 8                  LDQ     PROD+1,AL
        72 000060   000022 736000                    QLS     18
        72 000061   000022 732000                    QRS     18
        72 000062   200006 756100                    STQ     RP,,AUTO
        72 000063   000101 710000 72                 TRA     s:922+1

      202      919
      203      920    4         CP = CP + SYM_PTRS(RIGHT_PARTS(RP)) -> SYMBOL.COST.INS;

    920 72 000064   200006 235100                    LDA     RP,,AUTO
        72 000065   000001 735000                    ALS     1
        72 000066   000100 100405                    MLR     fill='000'O
        72 000067   000000 000002 7                  ADSC9   RIGHT_PARTS,A            cn=0,n=2
        72 000070   200012 000004                    ADSC9   NOCHANGE+2,,AUTO         cn=0,n=4
        72 000071   200012 236100                    LDQ     NOCHANGE+2,,AUTO
        72 000072   000022 732000                    QRS     18
        72 000073   000000 470406 6                  LDP0    SYM_PTRS,QL
        72 000074   000005 236100                    LDQ     5,,PR0
        72 000075   000022 732000                    QRS     18
        72 000076   200005 036100                    ADLQ    CP,,AUTO
PL6.E3A0      #003=CALC_LEAST_COST_STRINGS File=LR_ERRREC.:Z8A6TSI               SAT 08/09/97 09:28 Page:59
        72 000077   200005 756100                    STQ     CP,,AUTO

      204      921
      205      922    4       END;

    922 72 000100   200006 054100                    AOS     RP,,AUTO
        72 000101   200004 235100                    LDA     NP,,AUTO
        72 000102   000001 735000                    ALS     1
        72 000103   000001 236005 8                  LDQ     PROD+1,AL
        72 000104   000022 732000                    QRS     18
        72 000105   200012 756100                    STQ     NOCHANGE+2,,AUTO
        72 000106   000001 236005 8                  LDQ     PROD+1,AL
        72 000107   000022 736000                    QLS     18
        72 000110   000022 732000                    QRS     18
        72 000111   200012 036100                    ADLQ    NOCHANGE+2,,AUTO
        72 000112   200006 116100                    CMPQ    RP,,AUTO
        72 000113   000064 605400 72                 TPNZ    s:920

      206      923
      207      924    3       IF CP < INFINITE_COST THEN

    924 72 000114   200005 236100                    LDQ     CP,,AUTO
        72 000115   303237 116007                    CMPQ    99999,DL
        72 000116   000136 605000 72                 TPL     s:934

      208      925    3         IF CP < SYM_PTRS(PROD.GOAL_SYM_INDX(NP)) -> SYMBOL.COST.INS THEN

    925 72 000117   000000 220005 8                  LDX0    PROD,AL
        72 000120   000000 470410 6                  LDP0    SYM_PTRS,X0
        72 000121   000005 236100                    LDQ     5,,PR0
        72 000122   000022 732000                    QRS     18
        72 000123   200005 116100                    CMPQ    CP,,AUTO
        72 000124   000136 604400 72                 TMOZ    s:934

      209      926    4           DO;

      210      927
PL6.E3A0      #003=CALC_LEAST_COST_STRINGS File=LR_ERRREC.:Z8A6TSI               SAT 08/09/97 09:28 Page:60
      211      928    4             SYM_PTRS(PROD.GOAL_SYM_INDX(NP)) -> SYMBOL.COST.INS = CP;

    928 72 000125   000000 220005 8                  LDX0    PROD,AL
        72 000126   000000 470410 6                  LDP0    SYM_PTRS,X0
        72 000127   200005 720100                    LXL0    CP,,AUTO
        72 000130   000005 740100                    STX0    5,,PR0

      212      929
      213      930    4             SYM_PTRS(PROD.GOAL_SYM_INDX(NP)) -> SYMBOL.COST.PROD = NP;

    930 72 000131   000000 221005 8                  LDX1    PROD,AL
        72 000132   000000 470411 6                  LDP0    SYM_PTRS,X1
        72 000133   200004 721100                    LXL1    NP,,AUTO
        72 000134   000005 441100                    SXL1    5,,PR0

      214      931    4             NOCHANGE = FALSE;

    931 72 000135   200010 450100                    STZ     NOCHANGE,,AUTO

      215      932
      216      933    4           END;

      217      934    3     END;

    934 72 000136   200004 054100                    AOS     NP,,AUTO
        72 000137   200004 236100                    LDQ     NP,,AUTO
        72 000140   000000 116000 9                  CMPQ    NR_PROD
        72 000141   000054 604000 72                 TMI     s:916

      218      935    2   END;

    935 72 000142   200010 234100                    SZN     NOCHANGE,,AUTO
        72 000143   000050 605000 72                 TPL     s:911

      219      936
      220      937        /* ACTUALLY CREATE THE STRINGS FOR EACH NON_TERMINAL */
      221      938
PL6.E3A0      #003=CALC_LEAST_COST_STRINGS File=LR_ERRREC.:Z8A6TSI               SAT 08/09/97 09:28 Page:61
      222      939    2   DO NT = NR_TERM + 1 TO LAST_NULL;

    939 72 000144   000000 235000 11                 LDA     NR_TERM
        72 000145   000001 035007                    ADLA    1,DL
        72 000146   200003 755100                    STA     NT,,AUTO
        72 000147   000163 710000 72                 TRA     s:942+1

      223      940    2     IF LEAST_COST_STRING(NT) = ADDR(NIL) THEN

    940 72 000150   200003 720100                    LXL0    NT,,AUTO
        72 000151   000000 236010 45                 LDQ     LEAST_COST_STRING,X0
        72 000152   000003 116000 73                 CMPQ    3
        72 000153   000162 601000 72                 TNZ     s:942

      224      941    2       CALL CREATE_LEAST_COST_STRING(NT);

    941 72 000154   200003 630500                    EPPR0   NT,,AUTO
        72 000155   200012 450500                    STP0    NOCHANGE+2,,AUTO
        72 000156   200012 630500                    EPPR0   NOCHANGE+2,,AUTO
        72 000157   000004 631400 73                 EPPR1   4
        72 000160   000000 701000 xent               TSX1    CREATE_LEAST_COST_STRING
        72 000161   000000 011000                    NOP     0

      225      942    2   END;

    942 72 000162   200003 054100                    AOS     NT,,AUTO
        72 000163   200003 236100                    LDQ     NT,,AUTO
        72 000164   000000 116000 13                 CMPQ    LAST_NULL
        72 000165   000150 604400 72                 TMOZ    s:940

      226      943
      227      944
      228      945    1   IF OPTIONS(ERROR_LIST_S_OPT) THEN

    945 72 000166   000000 236000 25                 LDQ     OPTIONS
        72 000167   000040 316003                    CANQ    32,DU
        72 000170   000342 600000 72                 TZE     s:1006
PL6.E3A0      #003=CALC_LEAST_COST_STRINGS File=LR_ERRREC.:Z8A6TSI               SAT 08/09/97 09:28 Page:62

      229      946    2     DO;

      230      947            %SELECT_LO;

    948 72 000171   000000 236007 xsym               LDQ     M$LO,DL
        72 000172   000000 756000 0                  STQ     OUT_DCBN

      231      950
      232      951          /* Print out all least cost strings */
      233      952
      234      953          %OUTLINE(S="' '");

    955 72 000173   000006 630400 73                 EPPR0   6
        72 000174   000000 631400 73                 EPPR1   0
        72 000175   000000 701000 xent               TSX1    OUT_STR
        72 000176   000000 011000                    NOP     0

    956 72 000177   000010 631400 73                 EPPR1   8
        72 000200   000000 701000 xent               TSX1    FLUSH
        72 000201   000000 011000                    NOP     0

      235      959          %OUTLINE(S="' '");

    961 72 000202   000006 630400 73                 EPPR0   6
        72 000203   000000 631400 73                 EPPR1   0
        72 000204   000000 701000 xent               TSX1    OUT_STR
        72 000205   000000 011000                    NOP     0

    962 72 000206   000010 631400 73                 EPPR1   8
        72 000207   000000 701000 xent               TSX1    FLUSH
        72 000210   000000 011000                    NOP     0

      236      965          %OUTLINE(S="'=================='");

    967 72 000211   000012 630400 73                 EPPR0   10
        72 000212   000000 631400 73                 EPPR1   0
PL6.E3A0      #003=CALC_LEAST_COST_STRINGS File=LR_ERRREC.:Z8A6TSI               SAT 08/09/97 09:28 Page:63
        72 000213   000000 701000 xent               TSX1    OUT_STR
        72 000214   000000 011000                    NOP     0

    968 72 000215   000010 631400 73                 EPPR1   8
        72 000216   000000 701000 xent               TSX1    FLUSH
        72 000217   000000 011000                    NOP     0

      237      971          %OUTLINE(S="'LEAST COST STRINGS'");

    973 72 000220   000014 630400 73                 EPPR0   12
        72 000221   000000 631400 73                 EPPR1   0
        72 000222   000000 701000 xent               TSX1    OUT_STR
        72 000223   000000 011000                    NOP     0

    974 72 000224   000010 631400 73                 EPPR1   8
        72 000225   000000 701000 xent               TSX1    FLUSH
        72 000226   000000 011000                    NOP     0

      238      977          %OUTLINE(S="'=================='");

    979 72 000227   000012 630400 73                 EPPR0   10
        72 000230   000000 631400 73                 EPPR1   0
        72 000231   000000 701000 xent               TSX1    OUT_STR
        72 000232   000000 011000                    NOP     0

    980 72 000233   000010 631400 73                 EPPR1   8
        72 000234   000000 701000 xent               TSX1    FLUSH
        72 000235   000000 011000                    NOP     0

      239      983          %OUTLINE(S="' '");

    985 72 000236   000006 630400 73                 EPPR0   6
        72 000237   000000 631400 73                 EPPR1   0
        72 000240   000000 701000 xent               TSX1    OUT_STR
        72 000241   000000 011000                    NOP     0

    986 72 000242   000010 631400 73                 EPPR1   8
PL6.E3A0      #003=CALC_LEAST_COST_STRINGS File=LR_ERRREC.:Z8A6TSI               SAT 08/09/97 09:28 Page:64
        72 000243   000000 701000 xent               TSX1    FLUSH
        72 000244   000000 011000                    NOP     0

      240      989
      241      990    3     DO NT = NR_TERM + 1 TO LAST_NULL;

    990 72 000245   000000 235000 11                 LDA     NR_TERM
        72 000246   000001 035007                    ADLA    1,DL
        72 000247   200003 755100                    STA     NT,,AUTO
        72 000250   000337 710000 72                 TRA     s:1003+1

      242      991
      243      992    3       CALL OUT_SYMBOL_TOKEN(SYM_PTRS(NT));

    992 72 000251   200003 720100                    LXL0    NT,,AUTO
        72 000252   000000 630410 6                  EPPR0   SYM_PTRS,X0
        72 000253   200012 450500                    STP0    NOCHANGE+2,,AUTO
        72 000254   200012 630500                    EPPR0   NOCHANGE+2,,AUTO
        72 000255   000004 631400 73                 EPPR1   4
        72 000256   000000 701000 xent               TSX1    OUT_SYMBOL_TOKEN
        72 000257   000000 011000                    NOP     0

      244      993    3       IF LINELEN < 15 THEN

    993 72 000260   000000 235000 34                 LDA     LINELEN
        72 000261   000017 115007                    CMPA    15,DL
        72 000262   000276 605000 72                 TPL     s:996

      245      994    3         CALL OUT_STR('               ',15-LINELEN);

    994 72 000263   000016 675000 73                 ERA     14
        72 000264   000020 035007                    ADLA    16,DL
        72 000265   200012 755100                    STA     NOCHANGE+2,,AUTO
        72 000266   200012 630500                    EPPR0   NOCHANGE+2,,AUTO
        72 000267   200015 450500                    STP0    NOCHANGE+5,,AUTO
        72 000270   000017 236000 73                 LDQ     15
        72 000271   200014 756100                    STQ     NOCHANGE+4,,AUTO
PL6.E3A0      #003=CALC_LEAST_COST_STRINGS File=LR_ERRREC.:Z8A6TSI               SAT 08/09/97 09:28 Page:65
        72 000272   200014 630500                    EPPR0   NOCHANGE+4,,AUTO
        72 000273   000000 631400 73                 EPPR1   0
        72 000274   000000 701000 xent               TSX1    OUT_STR
        72 000275   000000 011000                    NOP     0

      246      995            %OUT_TOKEN(S="'-->'");

    996 72 000276   000021 630400 73                 EPPR0   17
        72 000277   000000 631400 73                 EPPR1   0
        72 000300   000000 701000 xent               TSX1    OUT_TOKEN
        72 000301   000000 011000                    NOP     0

      247      998    4       DO I = 1 TO LEAST_COST_STRING(NT)->STRING.LEN_IN_H;

    998 72 000302   000001 235007                    LDA     1,DL
        72 000303   200007 755100                    STA     I,,AUTO
        72 000304   000325 710000 72                 TRA     s:1000+1

      248      999    4         CALL OUT_SYMBOL_TOKEN(SYM_PTRS(LEAST_COST_STRING(NT)->STRING.TOK(I-1)));

    999 72 000305   200003 720100                    LXL0    NT,,AUTO
        72 000306   000000 470410 45                 LDP0    LEAST_COST_STRING,X0
        72 000307   200007 235100                    LDA     I,,AUTO
        72 000310   000001 735000                    ALS     1
        72 000311   000100 100505                    MLR     fill='000'O
        72 000312   000000 000002                    ADSC9   0,A,PR0                  cn=0,n=2
        72 000313   200012 000004                    ADSC9   NOCHANGE+2,,AUTO         cn=0,n=4
        72 000314   200012 236100                    LDQ     NOCHANGE+2,,AUTO
        72 000315   000022 732000                    QRS     18
        72 000316   000000 631406 6                  EPPR1   SYM_PTRS,QL
        72 000317   200013 451500                    STP1    NOCHANGE+3,,AUTO
        72 000320   200013 630500                    EPPR0   NOCHANGE+3,,AUTO
        72 000321   000004 631400 73                 EPPR1   4
        72 000322   000000 701000 xent               TSX1    OUT_SYMBOL_TOKEN
        72 000323   000000 011000                    NOP     0

      249     1000    4       END;
PL6.E3A0      #003=CALC_LEAST_COST_STRINGS File=LR_ERRREC.:Z8A6TSI               SAT 08/09/97 09:28 Page:66

   1000 72 000324   200007 054100                    AOS     I,,AUTO
        72 000325   200003 720100                    LXL0    NT,,AUTO
        72 000326   000000 470410 45                 LDP0    LEAST_COST_STRING,X0
        72 000327   000000 236100                    LDQ     0,,PR0
        72 000330   000022 772000                    QRL     18
        72 000331   200007 116100                    CMPQ    I,,AUTO
        72 000332   000305 605000 72                 TPL     s:999

      250     1001    3       CALL FLUSH;

   1001 72 000333   000010 631400 73                 EPPR1   8
        72 000334   000000 701000 xent               TSX1    FLUSH
        72 000335   000000 011000                    NOP     0

      251     1002
      252     1003    3     END;

   1003 72 000336   200003 054100                    AOS     NT,,AUTO
        72 000337   200003 236100                    LDQ     NT,,AUTO
        72 000340   000000 116000 13                 CMPQ    LAST_NULL
        72 000341   000251 604400 72                 TMOZ    s:992

      253     1004    2     END;

      254     1005
      255     1006    1   END CALC_LEAST_COST_STRINGS;

   1006 72 000342   000000 702200 xent               TSX2  ! X66_ARET
      256     1007        %EOD;

PL6.E3A0      #003=CALC_LEAST_COST_STRINGS File=LR_ERRREC.:Z8A6TSI               SAT 08/09/97 09:28 Page:67
--  Include file information  --

   LR_ERR_EXT.:Z8A6TOU  cannot be made into a system file and is referenced.
   LR_CNFG_EXT.:Z8A6TOU  cannot be made into a system file and is referenced.
   LR_IO_EXT.:Z8A6TOU  cannot be made into a system file and is referenced.
   LR_GRAM_EXT.:Z8A6TOU  cannot be made into a system file and is referenced.
      No diagnostics issued in procedure CALC_LEAST_COST_STRINGS.
PL6.E3A0      #003=CALC_LEAST_COST_STRINGS File=LR_ERRREC.:Z8A6TSI               SAT 08/09/97 09:28 Page:68

 **** Variables and constants ****

  ****  Section 000 LblCom OUT_DCBN

  ****  Scalars and arrays  ****
OctLoc.c.b A Datatyp(siz) R M Lvl/name                 OctLoc.c.b A Datatyp(siz) R M Lvl/name

     0-0-0/w SBIN        r     1 OUT_DCBN

  ****  Section 006 LblCom SYM_PTRS

  ****  Scalars and arrays  ****
OctLoc.c.b A Datatyp(siz) R M Lvl/name                 OctLoc.c.b A Datatyp(siz) R M Lvl/name

     0-0-0/w PTR         r     1 SYM_PTRS(0:1400)

  ****  Section 007 LblCom RIGHT_PARTS

  ****  Scalars and arrays  ****
OctLoc.c.b A Datatyp(siz) R M Lvl/name                 OctLoc.c.b A Datatyp(siz) R M Lvl/name

     0-0-0/h SBIN(18)    r     1 RIGHT_PARTS(0:8000)

  ****  Section 008 LblCom PROD

  ****  Scalars and arrays  ****
OctLoc.c.b A Datatyp(siz) R M Lvl/name                 OctLoc.c.b A Datatyp(siz) R M Lvl/name

     0-0-0/h STRC(72)    r     1 PROD(0:1500)

  ****  Section 009 LblCom NR_PROD

  ****  Scalars and arrays  ****
OctLoc.c.b A Datatyp(siz) R M Lvl/name                 OctLoc.c.b A Datatyp(siz) R M Lvl/name

     0-0-0/w SBIN        r     1 NR_PROD

PL6.E3A0      #003=CALC_LEAST_COST_STRINGS File=LR_ERRREC.:Z8A6TSI               SAT 08/09/97 09:28 Page:69
  ****  Section 010 LblCom NR_SYMS

  ****  Scalars and arrays  ****
OctLoc.c.b A Datatyp(siz) R M Lvl/name                 OctLoc.c.b A Datatyp(siz) R M Lvl/name

     0-0-0/w SBIN              1 NR_SYMS

  ****  Section 011 LblCom NR_TERM

  ****  Scalars and arrays  ****
OctLoc.c.b A Datatyp(siz) R M Lvl/name                 OctLoc.c.b A Datatyp(siz) R M Lvl/name

     0-0-0/w SBIN        r     1 NR_TERM

  ****  Section 012 LblCom LAST_ACT

  ****  Scalars and arrays  ****
OctLoc.c.b A Datatyp(siz) R M Lvl/name                 OctLoc.c.b A Datatyp(siz) R M Lvl/name

     0-0-0/w SBIN              1 LAST_ACT

  ****  Section 013 LblCom LAST_NULL

  ****  Scalars and arrays  ****
OctLoc.c.b A Datatyp(siz) R M Lvl/name                 OctLoc.c.b A Datatyp(siz) R M Lvl/name

     0-0-0/w SBIN        r     1 LAST_NULL

  ****  Section 014 LblCom NR_ONRIGHT

  ****  Scalars and arrays  ****
OctLoc.c.b A Datatyp(siz) R M Lvl/name                 OctLoc.c.b A Datatyp(siz) R M Lvl/name

     0-0-0/w SBIN              1 NR_ONRIGHT

  ****  Section 015 LblCom NR_NT

PL6.E3A0      #003=CALC_LEAST_COST_STRINGS File=LR_ERRREC.:Z8A6TSI               SAT 08/09/97 09:28 Page:70
  ****  Scalars and arrays  ****
OctLoc.c.b A Datatyp(siz) R M Lvl/name                 OctLoc.c.b A Datatyp(siz) R M Lvl/name

     0-0-0/w SBIN              1 NR_NT

  ****  Section 016 LblCom PROD_LEN_MAX_EVER

  ****  Scalars and arrays  ****
OctLoc.c.b A Datatyp(siz) R M Lvl/name                 OctLoc.c.b A Datatyp(siz) R M Lvl/name

     0-0-0/w SBIN              1 PROD_LEN_MAX_EVER

  ****  Section 017 LblCom LAST_ORDER_SPECIFIED

  ****  Scalars and arrays  ****
OctLoc.c.b A Datatyp(siz) R M Lvl/name                 OctLoc.c.b A Datatyp(siz) R M Lvl/name

     0-0-0/w SBIN              1 LAST_ORDER_SPECIFIED

  ****  Section 018 LblCom SEMANTIC_ORDERING

  ****  Scalars and arrays  ****
OctLoc.c.b A Datatyp(siz) R M Lvl/name                 OctLoc.c.b A Datatyp(siz) R M Lvl/name

     0-0-0/b BIT               1 SEMANTIC_ORDERING

  ****  Section 019 LblCom ERR_SEV

  ****  Scalars and arrays  ****
OctLoc.c.b A Datatyp(siz) R M Lvl/name                 OctLoc.c.b A Datatyp(siz) R M Lvl/name

     0-0-0/w SBIN              1 ERR_SEV

  ****  Section 020 LblCom SET_LENGTHB

  ****  Scalars and arrays  ****
OctLoc.c.b A Datatyp(siz) R M Lvl/name                 OctLoc.c.b A Datatyp(siz) R M Lvl/name
PL6.E3A0      #003=CALC_LEAST_COST_STRINGS File=LR_ERRREC.:Z8A6TSI               SAT 08/09/97 09:28 Page:71

     0-0-0/w SBIN              1 SET_LENGTHB

  ****  Section 021 LblCom SET_LENGTHW

  ****  Scalars and arrays  ****
OctLoc.c.b A Datatyp(siz) R M Lvl/name                 OctLoc.c.b A Datatyp(siz) R M Lvl/name

     0-0-0/w SBIN              1 SET_LENGTHW

  ****  Section 022 LblCom EOF_SYMBOL_PTR

  ****  Scalars and arrays  ****
OctLoc.c.b A Datatyp(siz) R M Lvl/name                 OctLoc.c.b A Datatyp(siz) R M Lvl/name

     0-0-0/w PTR               1 EOF_SYMBOL_PTR

  ****  Section 023 LblCom ERROR_SYMBOL_PTR

  ****  Scalars and arrays  ****
OctLoc.c.b A Datatyp(siz) R M Lvl/name                 OctLoc.c.b A Datatyp(siz) R M Lvl/name

     0-0-0/w PTR               1 ERROR_SYMBOL_PTR

  ****  Section 024 LblCom BOF_SYMBOL_PTR

  ****  Scalars and arrays  ****
OctLoc.c.b A Datatyp(siz) R M Lvl/name                 OctLoc.c.b A Datatyp(siz) R M Lvl/name

     0-0-0/w PTR               1 BOF_SYMBOL_PTR

  ****  Section 025 LblCom OPTIONS

  ****  Scalars and arrays  ****
OctLoc.c.b A Datatyp(siz) R M Lvl/name                 OctLoc.c.b A Datatyp(siz) R M Lvl/name

     0-0-0/b BIT         r     1 OPTIONS(0:25)
PL6.E3A0      #003=CALC_LEAST_COST_STRINGS File=LR_ERRREC.:Z8A6TSI               SAT 08/09/97 09:28 Page:72

  ****  Section 026 LblCom OPTIONS_TEXT

  ****  Scalars and arrays  ****
OctLoc.c.b A Datatyp(siz) R M Lvl/name                 OctLoc.c.b A Datatyp(siz) R M Lvl/name

     0-0-0/c CHAR(4)           1 OPTIONS_TEXT(0:25)

  ****  Section 027 LblCom INSTR

  ****  Scalars and arrays  ****
OctLoc.c.b A Datatyp(siz) R M Lvl/name                 OctLoc.c.b A Datatyp(siz) R M Lvl/name

     0-0-0/c CHAR              1 INSTR(0:511)               0-0-0/c CHAR(512)         1 INSTRCHR

  ****  Section 028 LblCom INSTR_LISTED

  ****  Scalars and arrays  ****
OctLoc.c.b A Datatyp(siz) R M Lvl/name                 OctLoc.c.b A Datatyp(siz) R M Lvl/name

     0-0-0/b BIT               1 INSTR_LISTED

  ****  Section 029 LblCom INSTR_LEN

  ****  Scalars and arrays  ****
OctLoc.c.b A Datatyp(siz) R M Lvl/name                 OctLoc.c.b A Datatyp(siz) R M Lvl/name

     0-0-0/w SBIN              1 INSTR_LEN

  ****  Section 030 LblCom INSTR_INDX

  ****  Scalars and arrays  ****
OctLoc.c.b A Datatyp(siz) R M Lvl/name                 OctLoc.c.b A Datatyp(siz) R M Lvl/name

     0-0-0/w SBIN              1 INSTR_INDX

  ****  Section 031 LblCom EOF_FLAG
PL6.E3A0      #003=CALC_LEAST_COST_STRINGS File=LR_ERRREC.:Z8A6TSI               SAT 08/09/97 09:28 Page:73

  ****  Scalars and arrays  ****
OctLoc.c.b A Datatyp(siz) R M Lvl/name                 OctLoc.c.b A Datatyp(siz) R M Lvl/name

     0-0-0/b BIT               1 EOF_FLAG

  ****  Section 032 LblCom KEY_REC

  ****  Scalars and arrays  ****
OctLoc.c.b A Datatyp(siz) R M Lvl/name                 OctLoc.c.b A Datatyp(siz) R M Lvl/name

     0-0-0/c CHAR(10)          1 KEY_REC

  ****  Section 033 LblCom LINE

  ****  Scalars and arrays  ****
OctLoc.c.b A Datatyp(siz) R M Lvl/name                 OctLoc.c.b A Datatyp(siz) R M Lvl/name

     0-0-0/c CHAR(109)         1 LINE

  ****  Section 034 LblCom LINELEN

  ****  Scalars and arrays  ****
OctLoc.c.b A Datatyp(siz) R M Lvl/name                 OctLoc.c.b A Datatyp(siz) R M Lvl/name

     0-0-0/w SBIN        r     1 LINELEN

  ****  Section 035 LblCom TSTATS

  ****  Scalars and arrays  ****
OctLoc.c.b A Datatyp(siz) R M Lvl/name                 OctLoc.c.b A Datatyp(siz) R M Lvl/name

     0-0-0/w STRC(7380)        1 TSTATS

  ****  Section 036 LblCom C#_TO_$

  ****  Scalars and arrays  ****
PL6.E3A0      #003=CALC_LEAST_COST_STRINGS File=LR_ERRREC.:Z8A6TSI               SAT 08/09/97 09:28 Page:74
OctLoc.c.b A Datatyp(siz) R M Lvl/name                 OctLoc.c.b A Datatyp(siz) R M Lvl/name

     0-0-0/w PTR               1 C#_TO_$(0:2200)

  ****  Section 037 LblCom NR_CONFIG

  ****  Scalars and arrays  ****
OctLoc.c.b A Datatyp(siz) R M Lvl/name                 OctLoc.c.b A Datatyp(siz) R M Lvl/name

     0-0-0/w SBIN              1 NR_CONFIG

  ****  Section 038 LblCom INIT_CONFIG

  ****  Scalars and arrays  ****
OctLoc.c.b A Datatyp(siz) R M Lvl/name                 OctLoc.c.b A Datatyp(siz) R M Lvl/name

     0-0-0/w SBIN              1 INIT_CONFIG

  ****  Section 039 LblCom MAX_BASIS_ITEMS

  ****  Scalars and arrays  ****
OctLoc.c.b A Datatyp(siz) R M Lvl/name                 OctLoc.c.b A Datatyp(siz) R M Lvl/name

     0-0-0/w SBIN              1 MAX_BASIS_ITEMS

  ****  Section 040 LblCom MAX_TOTAL_ITEMS

  ****  Scalars and arrays  ****
OctLoc.c.b A Datatyp(siz) R M Lvl/name                 OctLoc.c.b A Datatyp(siz) R M Lvl/name

     0-0-0/w SBIN              1 MAX_TOTAL_ITEMS

  ****  Section 041 LblCom LAST_BINSRCH_ONLY

  ****  Scalars and arrays  ****
OctLoc.c.b A Datatyp(siz) R M Lvl/name                 OctLoc.c.b A Datatyp(siz) R M Lvl/name

PL6.E3A0      #003=CALC_LEAST_COST_STRINGS File=LR_ERRREC.:Z8A6TSI               SAT 08/09/97 09:28 Page:75
     0-0-0/w SBIN              1 LAST_BINSRCH_ONLY

  ****  Section 042 LblCom LAST_BOTH_BITBIN

  ****  Scalars and arrays  ****
OctLoc.c.b A Datatyp(siz) R M Lvl/name                 OctLoc.c.b A Datatyp(siz) R M Lvl/name

     0-0-0/w SBIN              1 LAST_BOTH_BITBIN

  ****  Section 043 LblCom GARBAGE

  ****  Scalars and arrays  ****
OctLoc.c.b A Datatyp(siz) R M Lvl/name                 OctLoc.c.b A Datatyp(siz) R M Lvl/name

     0-0-0/w PTR               1 GARBAGE(0:100)

  ****  Section 044 LblCom AMT_GARBAGE

  ****  Scalars and arrays  ****
OctLoc.c.b A Datatyp(siz) R M Lvl/name                 OctLoc.c.b A Datatyp(siz) R M Lvl/name

     0-0-0/w SBIN              1 AMT_GARBAGE

  ****  Section 045 LblCom LEAST_COST_STRING

  ****  Scalars and arrays  ****
OctLoc.c.b A Datatyp(siz) R M Lvl/name                 OctLoc.c.b A Datatyp(siz) R M Lvl/name

     0-0-0/w PTR         r     1 LEAST_COST_STRING(0:1400)

  ****  Section 046 LblCom LEAST_COST_PREFIX

  ****  Scalars and arrays  ****
OctLoc.c.b A Datatyp(siz) R M Lvl/name                 OctLoc.c.b A Datatyp(siz) R M Lvl/name

     0-0-0/w PTR               1 LEAST_COST_PREFIX(0:1400)

PL6.E3A0      #003=CALC_LEAST_COST_STRINGS File=LR_ERRREC.:Z8A6TSI               SAT 08/09/97 09:28 Page:76
  ****  Section 047 LblCom CURRE

  ****  Scalars and arrays  ****
OctLoc.c.b A Datatyp(siz) R M Lvl/name                 OctLoc.c.b A Datatyp(siz) R M Lvl/name

     0-0-0/d STRC(126)         1 CURRE(0:1400)

  ****  Section 048 LblCom LCP_INDX

  ****  Scalars and arrays  ****
OctLoc.c.b A Datatyp(siz) R M Lvl/name                 OctLoc.c.b A Datatyp(siz) R M Lvl/name

     0-0-0/h SBIN(18)          1 LCP_INDX(0:1400)

  ****  Section 049 LblCom COM_STRSP_LEN

  ****  Scalars and arrays  ****
OctLoc.c.b A Datatyp(siz) R M Lvl/name                 OctLoc.c.b A Datatyp(siz) R M Lvl/name

     0-0-0/w SBIN        r     1 COM_STRSP_LEN

  ****  Section 050 LblCom COM_SEARCH_STRING

  ****  Scalars and arrays  ****
OctLoc.c.b A Datatyp(siz) R M Lvl/name                 OctLoc.c.b A Datatyp(siz) R M Lvl/name

     0-0-0/w PTR         r     1 COM_SEARCH_STRING

  ****  Section 051 LblCom COM_SEARCH_STRING_LEN

  ****  Scalars and arrays  ****
OctLoc.c.b A Datatyp(siz) R M Lvl/name                 OctLoc.c.b A Datatyp(siz) R M Lvl/name

     0-0-0/w SBIN        r     1 COM_SEARCH_STRING_LEN

  ****  Section 052 LblCom COM_STRING_SPACE_LEN

PL6.E3A0      #003=CALC_LEAST_COST_STRINGS File=LR_ERRREC.:Z8A6TSI               SAT 08/09/97 09:28 Page:77
  ****  Scalars and arrays  ****
OctLoc.c.b A Datatyp(siz) R M Lvl/name                 OctLoc.c.b A Datatyp(siz) R M Lvl/name

     0-0-0/w SBIN        r     1 COM_STRING_SPACE_LEN

  ****  Section 053 LblCom COM_STRING_SPACE_H

  ****  Scalars and arrays  ****
OctLoc.c.b A Datatyp(siz) R M Lvl/name                 OctLoc.c.b A Datatyp(siz) R M Lvl/name

     0-0-0/h SBIN(18)    r     1 COM_STRING_SPACE_H(0:24999)

  ****  Section 054 LblCom COM_STRING_SPACE$

  ****  Scalars and arrays  ****
OctLoc.c.b A Datatyp(siz) R M Lvl/name                 OctLoc.c.b A Datatyp(siz) R M Lvl/name

     0-0-0/w PTR         r     1 COM_STRING_SPACE$

  ****  Section 055 LblCom COM_STRING_PTR

  ****  Scalars and arrays  ****
OctLoc.c.b A Datatyp(siz) R M Lvl/name                 OctLoc.c.b A Datatyp(siz) R M Lvl/name

     0-0-0/w PTR         r     1 COM_STRING_PTR

  ****  Section 056 LblCom COM_STRING_INDX

  ****  Scalars and arrays  ****
OctLoc.c.b A Datatyp(siz) R M Lvl/name                 OctLoc.c.b A Datatyp(siz) R M Lvl/name

     0-0-0/w SBIN              1 COM_STRING_INDX

  ****  Section 057 LblCom LCP_TABLE_LEN

  ****  Scalars and arrays  ****
OctLoc.c.b A Datatyp(siz) R M Lvl/name                 OctLoc.c.b A Datatyp(siz) R M Lvl/name
PL6.E3A0      #003=CALC_LEAST_COST_STRINGS File=LR_ERRREC.:Z8A6TSI               SAT 08/09/97 09:28 Page:78

     0-0-0/w SBIN              1 LCP_TABLE_LEN

  ****  Section 058 LblCom STATE_ITEM_INDEX

  ****  Scalars and arrays  ****
OctLoc.c.b A Datatyp(siz) R M Lvl/name                 OctLoc.c.b A Datatyp(siz) R M Lvl/name

     0-0-0/h STRC              1 STATE_ITEM_INDEX(0:2200)

  ****  Section 059 LblCom PATH

  ****  Scalars and arrays  ****
OctLoc.c.b A Datatyp(siz) R M Lvl/name                 OctLoc.c.b A Datatyp(siz) R M Lvl/name

     0-0-0/h STRC        r     1 PATH(0:17600)

  ****  Section 060 LblCom PATH_STRINGS_LEN

  ****  Scalars and arrays  ****
OctLoc.c.b A Datatyp(siz) R M Lvl/name                 OctLoc.c.b A Datatyp(siz) R M Lvl/name

     0-0-0/w SBIN        r     1 PATH_STRINGS_LEN

  ****  Section 061 LblCom PATH_ADDR$

  ****  Scalars and arrays  ****
OctLoc.c.b A Datatyp(siz) R M Lvl/name                 OctLoc.c.b A Datatyp(siz) R M Lvl/name

     0-0-0/w PTR         r     1 PATH_ADDR$

  ****  Section 062 LblCom PATH_TABLE_LEN

  ****  Scalars and arrays  ****
OctLoc.c.b A Datatyp(siz) R M Lvl/name                 OctLoc.c.b A Datatyp(siz) R M Lvl/name

     0-0-0/w SBIN              1 PATH_TABLE_LEN
PL6.E3A0      #003=CALC_LEAST_COST_STRINGS File=LR_ERRREC.:Z8A6TSI               SAT 08/09/97 09:28 Page:79

  ****  Section 063 LblCom EDGECOST

  ****  Scalars and arrays  ****
OctLoc.c.b A Datatyp(siz) R M Lvl/name                 OctLoc.c.b A Datatyp(siz) R M Lvl/name

     0-0-0/w SBIN              1 EDGECOST(0:400)

  ****  Section 064 LblCom ITEM_TABLE_LEN

  ****  Scalars and arrays  ****
OctLoc.c.b A Datatyp(siz) R M Lvl/name                 OctLoc.c.b A Datatyp(siz) R M Lvl/name

     0-0-0/w SBIN              1 ITEM_TABLE_LEN

  ****  Section 065 LblCom ORDERED_ITEM

  ****  Scalars and arrays  ****
OctLoc.c.b A Datatyp(siz) R M Lvl/name                 OctLoc.c.b A Datatyp(siz) R M Lvl/name

     0-0-0/h STRC              1 ORDERED_ITEM(0:400)

  ****  Section 066 LblCom NEIGHBOR

  ****  Scalars and arrays  ****
OctLoc.c.b A Datatyp(siz) R M Lvl/name                 OctLoc.c.b A Datatyp(siz) R M Lvl/name

     0-0-0/w SBIN              1 NEIGHBOR(0:400)

  ****  Section 067 LblCom PATH_INFO

  ****  Scalars and arrays  ****
OctLoc.c.b A Datatyp(siz) R M Lvl/name                 OctLoc.c.b A Datatyp(siz) R M Lvl/name

     0-0-0/w STRC(28872)       1 PATH_INFO

  ****  Section 068 LblCom CHOSEN
PL6.E3A0      #003=CALC_LEAST_COST_STRINGS File=LR_ERRREC.:Z8A6TSI               SAT 08/09/97 09:28 Page:80

  ****  Scalars and arrays  ****
OctLoc.c.b A Datatyp(siz) R M Lvl/name                 OctLoc.c.b A Datatyp(siz) R M Lvl/name

     0-0-0/w BIT               1 CHOSEN(0:400)

  ****  Section 069 LblCom REACHED

  ****  Scalars and arrays  ****
OctLoc.c.b A Datatyp(siz) R M Lvl/name                 OctLoc.c.b A Datatyp(siz) R M Lvl/name

     0-0-0/b BIT               1 REACHED(0:400)

  ****  Section 070 LblCom EXP_PATH_INDX

  ****  Scalars and arrays  ****
OctLoc.c.b A Datatyp(siz) R M Lvl/name                 OctLoc.c.b A Datatyp(siz) R M Lvl/name

     0-0-0/w SBIN              1 EXP_PATH_INDX

  ****  Auto variables  ****

  ****  Scalars and arrays  ****
OctLoc.c.b A Datatyp(siz) R M Lvl/name                 OctLoc.c.b A Datatyp(siz) R M Lvl/name

     5-0-0/w SBIN        r     1 CP                         7-0-0/w SBIN        r     1 I
    10-0-0/b BIT         r     1 NOCHANGE                   4-0-0/w SBIN        r     1 NP
     3-0-0/w SBIN        r     1 NT                         6-0-0/w SBIN        r     1 RP

  ****  BASED and DCB variables  ****

  ****  Scalars and arrays  ****
OctLoc.c.b A Datatyp(siz) R M Lvl/name                 OctLoc.c.b A Datatyp(siz) R M Lvl/name

     0-0-0/w STRC(72)          1 CELL                       0-0-0/c ACHR              1 COM_STRINGS
     0-0-0/c ACHR              1 COM_STRING_SPACE           0-0-0/c ACHR              1 CSEARCH_STRING
     0-0-0/w STRC(57888)       1 C_SET_B                    0-0-0/w STRC(72)          1 INCLUDES_B
PL6.E3A0      #003=CALC_LEAST_COST_STRINGS File=LR_ERRREC.:Z8A6TSI               SAT 08/09/97 09:28 Page:81
     0-0-0/w STRC(144)         1 INCL_B                     0-0-0/w STRC(5436)        1 ITEM_B
     0-0-0/w STRC(5652)        1 KEY_B                      0-0-0N  NULL        r     1 M$LO
     0-0-0N  NULL        r     1 M$OU                       0-0-0N  NULL        r     1 M$SI
     0-0-0N  NULL        r     1 M$SO                       0-0-0N  NULL        r     1 M$UI
     0-0-0/c ACHR              1 PATH_STRINGS               0-0-0/w STRC(90)          1 PREFIX
     0-0-0/w ASTR(72)    r     1 PREFIXCHR                  0-0-0/w STRC        r     1 STRING
     0-0-0/w ASTR(18)    r     1 STRINGCHR                  0-0-0/w STRC(351)   r     1 SYMBOL


   Procedure CALC_LEAST_COST_STRINGS requires 227 words for executable code.
   Procedure CALC_LEAST_COST_STRINGS requires 14 words of local(AUTO) storage.

PL6.E3A0      #004=CREATE_LEAST_COST_STRING File=LR_ERRREC.:Z8A6TSI              SAT 08/09/97 09:29 Page:82
      257        1        /*T***********************************************************/
      258        2        /*T*                                                         */
      259        3        /*T* Copyright (c) Bull HN Information Systems Inc., 1997    */
      260        4        /*T*                                                         */
      261        5        /*T***********************************************************/
      262        6        CREATE_LEAST_COST_STRING : PROC(NT);
      263        7
      264        8        /*D*
      265        9               NAME: CREATE_LEAST_COST_STRING
      266       10            PURPOSE:
      267       11
      268       12           CREATE THE LEAST COST STRING FROM THE PRODUCTION WHICH
      269       13           WAS FOUND TO BE LEAST COST BY CALC_LEAST_COST_STRING.
      270       14        */
      271       15
      272       16    1   DCL NT SBIN WORD;
      273       17
      274       18    1   DCL STRLEN SBIN WORD;
      275       19    1   DCL RP     SBIN WORD;
      276       20
      277       21        %INCLUDE LR_GRAM_EXT;
      278      560        %INCLUDE LR_CNFG_EXT;
      279      713        %INCLUDE LR_ERR_EXT;
      280      856
      281      857    1   DCL GET_STRING_MEM ENTRY(2);
      282      858
      283      859
      284      860    1   STRLEN = 0;
      285      861
      286      862    1   IF SYM_PTRS(NT) -> SYMBOL.COST.PROD >= 0 THEN
      287      863
      288      864    2     DO;
      289      865    2       DO RP = PROD.RIGHT_START(SYM_PTRS(NT) -> SYMBOL.COST.PROD)
      290      866    3                 TO PROD.RIGHT_START(SYM_PTRS(NT) -> SYMBOL.COST.PROD)
      291      867    3                     + PROD.RIGHT_CNT(SYM_PTRS(NT) -> SYMBOL.COST.PROD)
      292      868    3                     - 1;
      293      869
PL6.E3A0      #004=CREATE_LEAST_COST_STRING File=LR_ERRREC.:Z8A6TSI              SAT 08/09/97 09:29 Page:83
      294      870    3         IF LEAST_COST_STRING(RIGHT_PARTS(RP)) = ADDR(NIL) THEN
      295      871    3           CALL CREATE_LEAST_COST_STRING(BINBIT(RIGHT_PARTS(RP), 36));
      296      872
      297      873    3         STRLEN = STRLEN + LEAST_COST_STRING(RIGHT_PARTS(RP)) -> STRING.LEN_IN_H;
      298      874
      299      875    3       END;
      300      876
      301      877    2       CALL GET_STRING_MEM(LEAST_COST_STRING(NT), STRLEN);
      302      878
      303      879    2       LEAST_COST_STRING(NT) -> STRING.LEN_IN_H = 0;
      304      880
      305      881    2       DO RP = PROD.RIGHT_START(SYM_PTRS(NT) -> SYMBOL.COST.PROD)
      306      882    3                 TO PROD.RIGHT_START(SYM_PTRS(NT) -> SYMBOL.COST.PROD)
      307      883    3                     + PROD.RIGHT_CNT(SYM_PTRS(NT) -> SYMBOL.COST.PROD)
      308      884    3                     - 1;
      309      885
      310      886              %APPEND_STRING (S1="LEAST_COST_STRING(RIGHT_PARTS(RP))",
      311      887                              S2="LEAST_COST_STRING(NT)");
      312      901
      313      902    3       END;
      314      903    2     END;
      315      904    1   ELSE
      316      905    1     CALL GET_STRING_MEM(LEAST_COST_STRING(NT), 0); /* NULL STRING */
      317      906
      318      907    1   END CREATE_LEAST_COST_STRING;
      319      908        %EOD;

PL6.E3A0      #004=CREATE_LEAST_COST_STRING File=LR_ERRREC.:Z8A6TSI              SAT 08/09/97 09:29 Page:84
--  Include file information  --

   LR_ERR_EXT.:Z8A6TOU  cannot be made into a system file and is referenced.
   LR_CNFG_EXT.:Z8A6TOU  cannot be made into a system file and is referenced.
   LR_IO_EXT.:Z8A6TOU  cannot be made into a system file and is referenced.
   LR_GRAM_EXT.:Z8A6TOU  cannot be made into a system file and is referenced.
      No diagnostics issued in procedure CREATE_LEAST_COST_STRING.

   Procedure CREATE_LEAST_COST_STRING requires 204 words for executable code.
   Procedure CREATE_LEAST_COST_STRING requires 12 words of local(AUTO) storage.

PL6.E3A0      #004=CREATE_LEAST_COST_STRING File=LR_ERRREC.:Z8A6TSI              SAT 08/09/97 09:29 Page:85

 Object Unit name= CREATE_LEAST_COST_STRING                   File name= LR_ERRREC.:Z8A6TOU
 UTS= AUG 09 '97 09:29:10.52 SAT                              Compiler= PL-6/E31         Sev=      00
 SharedLib= :SHARED_SYSTEM                                    Alt SharedLib=


    ****  Control sections  ****

 Sect   Type Bound  Init  Size OctSiz  Section name(segment info)
    0  LblCom even  none     1      1  OUT_DCBN
    1   DCB   even  none     0      0  M$OU
    2   DCB   even  none     0      0  M$SO
    3   DCB   even  none     0      0  M$LO
    4   DCB   even  none     0      0  M$SI
    5   DCB   even  none     0      0  M$UI
    6  LblCom even  none  1401   2571  SYM_PTRS
    7  LblCom even  none  4001   7641  RIGHT_PARTS
    8  LblCom even  none  3002   5672  PROD
    9  LblCom even  none     1      1  NR_PROD
   10  LblCom even  none     1      1  NR_SYMS
   11  LblCom even  none     1      1  NR_TERM
   12  LblCom even  none     1      1  LAST_ACT
   13  LblCom even  none     1      1  LAST_NULL
   14  LblCom even  none     1      1  NR_ONRIGHT
   15  LblCom even  none     1      1  NR_NT
   16  LblCom even  none     1      1  PROD_LEN_MAX_EVER
   17  LblCom even  none     1      1  LAST_ORDER_SPECIFIED
   18  LblCom even  none     1      1  SEMANTIC_ORDERING
   19  LblCom even  none     1      1  ERR_SEV
   20  LblCom even  none     1      1  SET_LENGTHB
   21  LblCom even  none     1      1  SET_LENGTHW
   22  LblCom even  none     1      1  EOF_SYMBOL_PTR
   23  LblCom even  none     1      1  ERROR_SYMBOL_PTR
   24  LblCom even  none     1      1  BOF_SYMBOL_PTR
   25  LblCom even  none     1      1  OPTIONS
   26  LblCom even  none    26     32  OPTIONS_TEXT
   27  LblCom even  none   128    200  INSTR
   28  LblCom even  none     1      1  INSTR_LISTED
PL6.E3A0      #004=CREATE_LEAST_COST_STRING File=LR_ERRREC.:Z8A6TSI              SAT 08/09/97 09:29 Page:86
   29  LblCom even  none     1      1  INSTR_LEN
   30  LblCom even  none     1      1  INSTR_INDX
   31  LblCom even  none     1      1  EOF_FLAG
   32  LblCom even  none     3      3  KEY_REC
   33  LblCom even  none    28     34  LINE
   34  LblCom even  none     1      1  LINELEN
   35  LblCom even  none   205    315  TSTATS
   36  LblCom even  none  2201   4231  C#_TO_$
   37  LblCom even  none     1      1  NR_CONFIG
   38  LblCom even  none     1      1  INIT_CONFIG
   39  LblCom even  none     1      1  MAX_BASIS_ITEMS
   40  LblCom even  none     1      1  MAX_TOTAL_ITEMS
   41  LblCom even  none     1      1  LAST_BINSRCH_ONLY
   42  LblCom even  none     1      1  LAST_BOTH_BITBIN
   43  LblCom even  none   101    145  GARBAGE
   44  LblCom even  none     1      1  AMT_GARBAGE
   45  LblCom even  none  1401   2571  LEAST_COST_STRING
   46  LblCom even  none  1401   2571  LEAST_COST_PREFIX
   47  LblCom even  none  5604  12744  CURRE
   48  LblCom even  none   701   1275  LCP_INDX
   49  LblCom even  none     1      1  COM_STRSP_LEN
   50  LblCom even  none     1      1  COM_SEARCH_STRING
   51  LblCom even  none     1      1  COM_SEARCH_STRING_LEN
   52  LblCom even  none     1      1  COM_STRING_SPACE_LEN
   53  LblCom even  none 12500  30324  COM_STRING_SPACE_H
   54  LblCom even  none     1      1  COM_STRING_SPACE$
   55  LblCom even  none     1      1  COM_STRING_PTR
   56  LblCom even  none     1      1  COM_STRING_INDX
   57  LblCom even  none     1      1  LCP_TABLE_LEN
   58  LblCom even  none  2201   4231  STATE_ITEM_INDEX
   59  LblCom even  none 17601  42301  PATH
   60  LblCom even  none     1      1  PATH_STRINGS_LEN
   61  LblCom even  none     1      1  PATH_ADDR$
   62  LblCom even  none     1      1  PATH_TABLE_LEN
   63  LblCom even  none   401    621  EDGECOST
   64  LblCom even  none     1      1  ITEM_TABLE_LEN
   65  LblCom even  none   401    621  ORDERED_ITEM
PL6.E3A0      #004=CREATE_LEAST_COST_STRING File=LR_ERRREC.:Z8A6TSI              SAT 08/09/97 09:29 Page:87
   66  LblCom even  none   401    621  NEIGHBOR
   67  LblCom even  none   802   1442  PATH_INFO
   68  LblCom even  none   401    621  CHOSEN
   69  LblCom even  none    12     14  REACHED
   70  LblCom even  none     1      1  EXP_PATH_INDX
   71   Proc  even  none   204    314  CREATE_LEAST_COST_STRING
   72  RoData even  none     5      5  CREATE_LEAST_COST_STRING

    ****  Entry defs  ****

                              Check   Calling
                             calling  sequence
  Sect OctLoc Primary Altret sequence   type   Parms  Name
    71      0   yes            yes      Std        1  CREATE_LEAST_COST_STRING

  ****  Entry refs  ****

         Check        Calling
        calling       sequence
Altret sequence SRef   type   Args  Name
         yes           Std       2 GET_STRING_MEM
                       nStd      0 X66_AUTO_1
                       nStd      0 X66_ARET

  ****  Data refs  ****

  Flags:  r = read only, s = secondary
Flgs Name                             Flgs Name                             Flgs Name
     M$OU                                  M$SO                                  M$LO
     M$SI                                  M$UI

  ****  Segment refs  ****

  Flags:  r = read only, s = secondary
Flgs Name                             Flgs Name                             Flgs Name
     NULLSID                               ISSID
PL6.E3A0      #004=CREATE_LEAST_COST_STRING File=LR_ERRREC.:Z8A6TSI              SAT 08/09/97 09:29 Page:88


      257        1        /*T***********************************************************/
      258        2        /*T*                                                         */
      259        3        /*T* Copyright (c) Bull HN Information Systems Inc., 1997    */
      260        4        /*T*                                                         */
      261        5        /*T***********************************************************/
      262        6        CREATE_LEAST_COST_STRING : PROC(NT);

      6 71 000000   000000 700200 xent  CREATE_LEAS* TSX0  ! X66_AUTO_1
        71 000001   000014 000001                    ZERO    12,1

      263        7
      264        8        /*D*
      265        9               NAME: CREATE_LEAST_COST_STRING
      266       10            PURPOSE:
      267       11
      268       12           CREATE THE LEAST COST STRING FROM THE PRODUCTION WHICH
      269       13           WAS FOUND TO BE LEAST COST BY CALC_LEAST_COST_STRING.
      270       14        */
      271       15
      272       16    1   DCL NT SBIN WORD;
      273       17
      274       18    1   DCL STRLEN SBIN WORD;
      275       19    1   DCL RP     SBIN WORD;
      276       20
      277       21        %INCLUDE LR_GRAM_EXT;
      278      560        %INCLUDE LR_CNFG_EXT;
      279      713        %INCLUDE LR_ERR_EXT;
      280      856
      281      857    1   DCL GET_STRING_MEM ENTRY(2);
      282      858
      283      859
      284      860    1   STRLEN = 0;

    860 71 000002   200004 450100                    STZ     STRLEN,,AUTO

      285      861
PL6.E3A0      #004=CREATE_LEAST_COST_STRING File=LR_ERRREC.:Z8A6TSI              SAT 08/09/97 09:29 Page:89
      286      862    1   IF SYM_PTRS(NT) -> SYMBOL.COST.PROD >= 0 THEN

    862 71 000003   200003 470500                    LDP0    @NT,,AUTO
        71 000004   000000 720100                    LXL0    0,,PR0
        71 000005   000000 471410 6                  LDP1    SYM_PTRS,X0
        71 000006   100005 720100                    LXL0    5,,PR1
        71 000007   000302 604000 71                 TMI     s:905

      287      863
      288      864    2     DO;

      289      865    2       DO RP = PROD.RIGHT_START(SYM_PTRS(NT) -> SYMBOL.COST.PROD)
      290      866    3                 TO PROD.RIGHT_START(SYM_PTRS(NT) -> SYMBOL.COST.PROD)

    866 71 000010   000000 720100                    LXL0    0,,PR0
        71 000011   000000 471410 6                  LDP1    SYM_PTRS,X0
        71 000012   100005 236100                    LDQ     5,,PR1
        71 000013   000022 736000                    QLS     18
        71 000014   000022 732000                    QRS     18
        71 000015   000001 736000                    QLS     1
        71 000016   000001 236006 8                  LDQ     PROD+1,QL
        71 000017   000022 736000                    QLS     18
        71 000020   000022 732000                    QRS     18
        71 000021   200005 756100                    STQ     RP,,AUTO
        71 000022   000066 710000 71                 TRA     s:875+1

      291      867    3                     + PROD.RIGHT_CNT(SYM_PTRS(NT) -> SYMBOL.COST.PROD)
      292      868    3                     - 1;
      293      869
      294      870    3         IF LEAST_COST_STRING(RIGHT_PARTS(RP)) = ADDR(NIL) THEN

    870 71 000023   200005 235100                    LDA     RP,,AUTO
        71 000024   000001 735000                    ALS     1
        71 000025   000100 100405                    MLR     fill='000'O
        71 000026   000000 000002 7                  ADSC9   RIGHT_PARTS,A            cn=0,n=2
        71 000027   200006 000004                    ADSC9   RP+1,,AUTO               cn=0,n=4
        71 000030   200006 236100                    LDQ     RP+1,,AUTO
PL6.E3A0      #004=CREATE_LEAST_COST_STRING File=LR_ERRREC.:Z8A6TSI              SAT 08/09/97 09:29 Page:90
        71 000031   000022 732000                    QRS     18
        71 000032   000000 236006 45                 LDQ     LEAST_COST_STRING,QL
        71 000033   000000 116000 72                 CMPQ    0
        71 000034   000051 601000 71                 TNZ     s:873

      295      871    3           CALL CREATE_LEAST_COST_STRING(BINBIT(RIGHT_PARTS(RP), 36));

    871 71 000035   000100 100405                    MLR     fill='000'O
        71 000036   000000 000002 7                  ADSC9   RIGHT_PARTS,A            cn=0,n=2
        71 000037   200006 000004                    ADSC9   RP+1,,AUTO               cn=0,n=4
        71 000040   200006 236100                    LDQ     RP+1,,AUTO
        71 000041   000022 732000                    QRS     18
        71 000042   200010 756100                    STQ     RP+3,,AUTO
        71 000043   200010 630500                    EPPR0   RP+3,,AUTO
        71 000044   200012 450500                    STP0    RP+5,,AUTO
        71 000045   200012 630500                    EPPR0   RP+5,,AUTO
        71 000046   000001 631400 72                 EPPR1   1
        71 000047   000000 701000 71                 TSX1    s:6
        71 000050   000000 011000                    NOP     0

      296      872
      297      873    3         STRLEN = STRLEN + LEAST_COST_STRING(RIGHT_PARTS(RP)) -> STRING.LEN_IN_H;

    873 71 000051   200005 235100                    LDA     RP,,AUTO
        71 000052   000001 735000                    ALS     1
        71 000053   000100 100405                    MLR     fill='000'O
        71 000054   000000 000002 7                  ADSC9   RIGHT_PARTS,A            cn=0,n=2
        71 000055   200006 000004                    ADSC9   RP+1,,AUTO               cn=0,n=4
        71 000056   200006 236100                    LDQ     RP+1,,AUTO
        71 000057   000022 732000                    QRS     18
        71 000060   000000 470406 45                 LDP0    LEAST_COST_STRING,QL
        71 000061   000000 236100                    LDQ     0,,PR0
        71 000062   000022 772000                    QRL     18
        71 000063   200004 036100                    ADLQ    STRLEN,,AUTO
        71 000064   200004 756100                    STQ     STRLEN,,AUTO

      298      874
PL6.E3A0      #004=CREATE_LEAST_COST_STRING File=LR_ERRREC.:Z8A6TSI              SAT 08/09/97 09:29 Page:91
      299      875    3       END;

    875 71 000065   200005 054100                    AOS     RP,,AUTO
        71 000066   200003 470500                    LDP0    @NT,,AUTO
        71 000067   000000 720100                    LXL0    0,,PR0
        71 000070   000000 471410 6                  LDP1    SYM_PTRS,X0
        71 000071   100005 236100                    LDQ     5,,PR1
        71 000072   000022 736000                    QLS     18
        71 000073   000022 732000                    QRS     18
        71 000074   000000 720100                    LXL0    0,,PR0
        71 000075   000000 471410 6                  LDP1    SYM_PTRS,X0
        71 000076   200006 756100                    STQ     RP+1,,AUTO
        71 000077   100005 236100                    LDQ     5,,PR1
        71 000100   000022 736000                    QLS     18
        71 000101   000022 732000                    QRS     18
        71 000102   000001 736000                    QLS     1
        71 000103   000001 236006 8                  LDQ     PROD+1,QL
        71 000104   000022 732000                    QRS     18
        71 000105   200007 756100                    STQ     RP+2,,AUTO
        71 000106   200006 235100                    LDA     RP+1,,AUTO
        71 000107   000001 735000                    ALS     1
        71 000110   000001 236005 8                  LDQ     PROD+1,AL
        71 000111   000022 736000                    QLS     18
        71 000112   000022 732000                    QRS     18
        71 000113   200007 036100                    ADLQ    RP+2,,AUTO
        71 000114   200005 116100                    CMPQ    RP,,AUTO
        71 000115   000023 605400 71                 TPNZ    s:870

      300      876
      301      877    2       CALL GET_STRING_MEM(LEAST_COST_STRING(NT), STRLEN);

    877 71 000116   000000 720100                    LXL0    0,,PR0
        71 000117   200004 631500                    EPPR1   STRLEN,,AUTO
        71 000120   200007 451500                    STP1    RP+2,,AUTO
        71 000121   000000 633410 45                 EPPR3   LEAST_COST_STRING,X0
        71 000122   200006 453500                    STP3    RP+1,,AUTO
        71 000123   200006 630500                    EPPR0   RP+1,,AUTO
PL6.E3A0      #004=CREATE_LEAST_COST_STRING File=LR_ERRREC.:Z8A6TSI              SAT 08/09/97 09:29 Page:92
        71 000124   000002 631400 72                 EPPR1   2
        71 000125   000000 701000 xent               TSX1    GET_STRING_MEM
        71 000126   000000 011000                    NOP     0

      302      878
      303      879    2       LEAST_COST_STRING(NT) -> STRING.LEN_IN_H = 0;

    879 71 000127   200003 470500                    LDP0    @NT,,AUTO
        71 000130   000000 720100                    LXL0    0,,PR0
        71 000131   000000 471410 45                 LDP1    LEAST_COST_STRING,X0
        71 000132   000000 220003                    LDX0    0,DU
        71 000133   100000 740100                    STX0    0,,PR1

      304      880
      305      881    2       DO RP = PROD.RIGHT_START(SYM_PTRS(NT) -> SYMBOL.COST.PROD)
      306      882    3                 TO PROD.RIGHT_START(SYM_PTRS(NT) -> SYMBOL.COST.PROD)

    882 71 000134   000000 721100                    LXL1    0,,PR0
        71 000135   000000 471411 6                  LDP1    SYM_PTRS,X1
        71 000136   100005 236100                    LDQ     5,,PR1
        71 000137   000022 736000                    QLS     18
        71 000140   000022 732000                    QRS     18
        71 000141   000001 736000                    QLS     1
        71 000142   000001 236006 8                  LDQ     PROD+1,QL
        71 000143   000022 736000                    QLS     18
        71 000144   000022 732000                    QRS     18
        71 000145   200005 756100                    STQ     RP,,AUTO
        71 000146   000252 710000 71                 TRA     s:902+1

      307      883    3                     + PROD.RIGHT_CNT(SYM_PTRS(NT) -> SYMBOL.COST.PROD)
      308      884    3                     - 1;
      309      885
      310      886              %APPEND_STRING (S1="LEAST_COST_STRING(RIGHT_PARTS(RP))",
      311      887                              S2="LEAST_COST_STRING(NT)");

    892 71 000147   200003 470500                    LDP0    @NT,,AUTO
        71 000150   000000 720100                    LXL0    0,,PR0
PL6.E3A0      #004=CREATE_LEAST_COST_STRING File=LR_ERRREC.:Z8A6TSI              SAT 08/09/97 09:29 Page:93
        71 000151   000000 721100                    LXL1    0,,PR0
        71 000152   000000 471411 45                 LDP1    LEAST_COST_STRING,X1
        71 000153   000000 473410 45                 LDP3    LEAST_COST_STRING,X0
        71 000154   100000 220100                    LDX0    0,,PR1
        71 000155   000000 721100                    LXL1    0,,PR0
        71 000156   000000 471411 45                 LDP1    LEAST_COST_STRING,X1
        71 000157   200005 235100                    LDA     RP,,AUTO
        71 000160   000001 735000                    ALS     1
        71 000161   000100 100405                    MLR     fill='000'O
        71 000162   000000 000002 7                  ADSC9   RIGHT_PARTS,A            cn=0,n=2
        71 000163   200006 000004                    ADSC9   RP+1,,AUTO               cn=0,n=4
        71 000164   200006 236100                    LDQ     RP+1,,AUTO
        71 000165   000022 732000                    QRS     18
        71 000166   000000 474406 45                 LDP4    LEAST_COST_STRING,QL
        71 000167   100000 236100                    LDQ     0,,PR1
        71 000170   000022 772000                    QRL     18
        71 000171   400000 220100                    LDX0    0,,PR4
        71 000172   400000 020100                    ADLX0   0,,PR4
        71 000173   000100 100405                    MLR     fill='000'O
        71 000174   000000 000002 7                  ADSC9   RIGHT_PARTS,A            cn=0,n=2
        71 000175   200007 000004                    ADSC9   RP+2,,AUTO               cn=0,n=4
        71 000176   200010 756100                    STQ     RP+3,,AUTO
        71 000177   200007 236100                    LDQ     RP+2,,AUTO
        71 000200   000022 732000                    QRS     18
        71 000201   000100 100405                    MLR     fill='000'O
        71 000202   000000 000002 7                  ADSC9   RIGHT_PARTS,A            cn=0,n=2
        71 000203   200011 000004                    ADSC9   RP+4,,AUTO               cn=0,n=4
        71 000204   000000 621006                    EAX1    0,QL
        71 000205   200011 236100                    LDQ     RP+4,,AUTO
        71 000206   000022 732000                    QRS     18
        71 000207   000000 471406 45                 LDP1    LEAST_COST_STRING,QL
        71 000210   000000 474411 45                 LDP4    LEAST_COST_STRING,X1
        71 000211   100000 221100                    LDX1    0,,PR1
        71 000212   000100 100405                    MLR     fill='000'O
        71 000213   000000 000002 7                  ADSC9   RIGHT_PARTS,A            cn=0,n=2
        71 000214   200012 000004                    ADSC9   RP+5,,AUTO               cn=0,n=4
        71 000215   200012 236100                    LDQ     RP+5,,AUTO
PL6.E3A0      #004=CREATE_LEAST_COST_STRING File=LR_ERRREC.:Z8A6TSI              SAT 08/09/97 09:29 Page:94
        71 000216   000022 732000                    QRS     18
        71 000217   000000 471406 45                 LDP1    LEAST_COST_STRING,QL
        71 000220   100000 221100                    LDX1    0,,PR1
        71 000221   100000 021100                    ADLX1   0,,PR1
        71 000222   200010 236100                    LDQ     RP+3,,AUTO
        71 000223   000001 736000                    QLS     1
        71 000224   040146 100540                    MLR     fill='040'O
        71 000225   400000 400011                    ADSC9   0,,PR4                   cn=2,n=*X1
        71 000226   300000 400010                    ADSC9   0,Q,PR3                  cn=2,n=*X0

    898 71 000227   000000 720100                    LXL0    0,,PR0
        71 000230   000000 471410 45                 LDP1    LEAST_COST_STRING,X0
        71 000231   000100 100405                    MLR     fill='000'O
        71 000232   000000 000002 7                  ADSC9   RIGHT_PARTS,A            cn=0,n=2
        71 000233   200006 000004                    ADSC9   RP+1,,AUTO               cn=0,n=4
        71 000234   200006 236100                    LDQ     RP+1,,AUTO
        71 000235   000022 732000                    QRS     18
        71 000236   000000 473406 45                 LDP3    LEAST_COST_STRING,QL
        71 000237   000000 720100                    LXL0    0,,PR0
        71 000240   000000 474410 45                 LDP4    LEAST_COST_STRING,X0
        71 000241   400000 236100                    LDQ     0,,PR4
        71 000242   000022 772000                    QRL     18
        71 000243   200007 756100                    STQ     RP+2,,AUTO
        71 000244   300000 236100                    LDQ     0,,PR3
        71 000245   000022 772000                    QRL     18
        71 000246   200007 036100                    ADLQ    RP+2,,AUTO
        71 000247   000000 620006                    EAX0    0,QL
        71 000250   100000 740100                    STX0    0,,PR1

      312      901
      313      902    3       END;

    902 71 000251   200005 054100                    AOS     RP,,AUTO
        71 000252   000000 720100                    LXL0    0,,PR0
        71 000253   000000 471410 6                  LDP1    SYM_PTRS,X0
        71 000254   100005 236100                    LDQ     5,,PR1
        71 000255   000022 736000                    QLS     18
PL6.E3A0      #004=CREATE_LEAST_COST_STRING File=LR_ERRREC.:Z8A6TSI              SAT 08/09/97 09:29 Page:95
        71 000256   000022 732000                    QRS     18
        71 000257   000000 720100                    LXL0    0,,PR0
        71 000260   000000 471410 6                  LDP1    SYM_PTRS,X0
        71 000261   200006 756100                    STQ     RP+1,,AUTO
        71 000262   100005 236100                    LDQ     5,,PR1
        71 000263   000022 736000                    QLS     18
        71 000264   000022 732000                    QRS     18
        71 000265   000001 736000                    QLS     1
        71 000266   000001 236006 8                  LDQ     PROD+1,QL
        71 000267   000022 732000                    QRS     18
        71 000270   200007 756100                    STQ     RP+2,,AUTO
        71 000271   200006 235100                    LDA     RP+1,,AUTO
        71 000272   000001 735000                    ALS     1
        71 000273   000001 236005 8                  LDQ     PROD+1,AL
        71 000274   000022 736000                    QLS     18
        71 000275   000022 732000                    QRS     18
        71 000276   200007 036100                    ADLQ    RP+2,,AUTO
        71 000277   200005 116100                    CMPQ    RP,,AUTO
        71 000300   000147 605400 71                 TPNZ    s:892

      314      903    2     END;

    903 71 000301   000313 710000 71                 TRA     s:907

      315      904    1   ELSE
      316      905    1     CALL GET_STRING_MEM(LEAST_COST_STRING(NT), 0); /* NULL STRING */

    905 71 000302   000000 720100                    LXL0    0,,PR0
        71 000303   000004 236000 72                 LDQ     4
        71 000304   200007 756100                    STQ     RP+2,,AUTO
        71 000305   000000 631410 45                 EPPR1   LEAST_COST_STRING,X0
        71 000306   200006 451500                    STP1    RP+1,,AUTO
        71 000307   200006 630500                    EPPR0   RP+1,,AUTO
        71 000310   000002 631400 72                 EPPR1   2
        71 000311   000000 701000 xent               TSX1    GET_STRING_MEM
        71 000312   000000 011000                    NOP     0

PL6.E3A0      #004=CREATE_LEAST_COST_STRING File=LR_ERRREC.:Z8A6TSI              SAT 08/09/97 09:29 Page:96
      317      906
      318      907    1   END CREATE_LEAST_COST_STRING;

    907 71 000313   000000 702200 xent               TSX2  ! X66_ARET
      319      908        %EOD;

PL6.E3A0      #004=CREATE_LEAST_COST_STRING File=LR_ERRREC.:Z8A6TSI              SAT 08/09/97 09:29 Page:97
--  Include file information  --

   LR_ERR_EXT.:Z8A6TOU  cannot be made into a system file and is referenced.
   LR_CNFG_EXT.:Z8A6TOU  cannot be made into a system file and is referenced.
   LR_IO_EXT.:Z8A6TOU  cannot be made into a system file and is referenced.
   LR_GRAM_EXT.:Z8A6TOU  cannot be made into a system file and is referenced.
      No diagnostics issued in procedure CREATE_LEAST_COST_STRING.
PL6.E3A0      #004=CREATE_LEAST_COST_STRING File=LR_ERRREC.:Z8A6TSI              SAT 08/09/97 09:29 Page:98

 **** Variables and constants ****

  ****  Section 000 LblCom OUT_DCBN

  ****  Scalars and arrays  ****
OctLoc.c.b A Datatyp(siz) R M Lvl/name                 OctLoc.c.b A Datatyp(siz) R M Lvl/name

     0-0-0/w SBIN              1 OUT_DCBN

  ****  Section 006 LblCom SYM_PTRS

  ****  Scalars and arrays  ****
OctLoc.c.b A Datatyp(siz) R M Lvl/name                 OctLoc.c.b A Datatyp(siz) R M Lvl/name

     0-0-0/w PTR         r     1 SYM_PTRS(0:1400)

  ****  Section 007 LblCom RIGHT_PARTS

  ****  Scalars and arrays  ****
OctLoc.c.b A Datatyp(siz) R M Lvl/name                 OctLoc.c.b A Datatyp(siz) R M Lvl/name

     0-0-0/h SBIN(18)    r     1 RIGHT_PARTS(0:8000)

  ****  Section 008 LblCom PROD

  ****  Scalars and arrays  ****
OctLoc.c.b A Datatyp(siz) R M Lvl/name                 OctLoc.c.b A Datatyp(siz) R M Lvl/name

     0-0-0/h STRC(72)    r     1 PROD(0:1500)

  ****  Section 009 LblCom NR_PROD

  ****  Scalars and arrays  ****
OctLoc.c.b A Datatyp(siz) R M Lvl/name                 OctLoc.c.b A Datatyp(siz) R M Lvl/name

     0-0-0/w SBIN              1 NR_PROD

PL6.E3A0      #004=CREATE_LEAST_COST_STRING File=LR_ERRREC.:Z8A6TSI              SAT 08/09/97 09:29 Page:99
  ****  Section 010 LblCom NR_SYMS

  ****  Scalars and arrays  ****
OctLoc.c.b A Datatyp(siz) R M Lvl/name                 OctLoc.c.b A Datatyp(siz) R M Lvl/name

     0-0-0/w SBIN              1 NR_SYMS

  ****  Section 011 LblCom NR_TERM

  ****  Scalars and arrays  ****
OctLoc.c.b A Datatyp(siz) R M Lvl/name                 OctLoc.c.b A Datatyp(siz) R M Lvl/name

     0-0-0/w SBIN              1 NR_TERM

  ****  Section 012 LblCom LAST_ACT

  ****  Scalars and arrays  ****
OctLoc.c.b A Datatyp(siz) R M Lvl/name                 OctLoc.c.b A Datatyp(siz) R M Lvl/name

     0-0-0/w SBIN              1 LAST_ACT

  ****  Section 013 LblCom LAST_NULL

  ****  Scalars and arrays  ****
OctLoc.c.b A Datatyp(siz) R M Lvl/name                 OctLoc.c.b A Datatyp(siz) R M Lvl/name

     0-0-0/w SBIN              1 LAST_NULL

  ****  Section 014 LblCom NR_ONRIGHT

  ****  Scalars and arrays  ****
OctLoc.c.b A Datatyp(siz) R M Lvl/name                 OctLoc.c.b A Datatyp(siz) R M Lvl/name

     0-0-0/w SBIN              1 NR_ONRIGHT

  ****  Section 015 LblCom NR_NT

PL6.E3A0      #004=CREATE_LEAST_COST_STRING File=LR_ERRREC.:Z8A6TSI              SAT 08/09/97 09:29 Page:100
  ****  Scalars and arrays  ****
OctLoc.c.b A Datatyp(siz) R M Lvl/name                 OctLoc.c.b A Datatyp(siz) R M Lvl/name

     0-0-0/w SBIN              1 NR_NT

  ****  Section 016 LblCom PROD_LEN_MAX_EVER

  ****  Scalars and arrays  ****
OctLoc.c.b A Datatyp(siz) R M Lvl/name                 OctLoc.c.b A Datatyp(siz) R M Lvl/name

     0-0-0/w SBIN              1 PROD_LEN_MAX_EVER

  ****  Section 017 LblCom LAST_ORDER_SPECIFIED

  ****  Scalars and arrays  ****
OctLoc.c.b A Datatyp(siz) R M Lvl/name                 OctLoc.c.b A Datatyp(siz) R M Lvl/name

     0-0-0/w SBIN              1 LAST_ORDER_SPECIFIED

  ****  Section 018 LblCom SEMANTIC_ORDERING

  ****  Scalars and arrays  ****
OctLoc.c.b A Datatyp(siz) R M Lvl/name                 OctLoc.c.b A Datatyp(siz) R M Lvl/name

     0-0-0/b BIT               1 SEMANTIC_ORDERING

  ****  Section 019 LblCom ERR_SEV

  ****  Scalars and arrays  ****
OctLoc.c.b A Datatyp(siz) R M Lvl/name                 OctLoc.c.b A Datatyp(siz) R M Lvl/name

     0-0-0/w SBIN              1 ERR_SEV

  ****  Section 020 LblCom SET_LENGTHB

  ****  Scalars and arrays  ****
OctLoc.c.b A Datatyp(siz) R M Lvl/name                 OctLoc.c.b A Datatyp(siz) R M Lvl/name
PL6.E3A0      #004=CREATE_LEAST_COST_STRING File=LR_ERRREC.:Z8A6TSI              SAT 08/09/97 09:29 Page:101

     0-0-0/w SBIN              1 SET_LENGTHB

  ****  Section 021 LblCom SET_LENGTHW

  ****  Scalars and arrays  ****
OctLoc.c.b A Datatyp(siz) R M Lvl/name                 OctLoc.c.b A Datatyp(siz) R M Lvl/name

     0-0-0/w SBIN              1 SET_LENGTHW

  ****  Section 022 LblCom EOF_SYMBOL_PTR

  ****  Scalars and arrays  ****
OctLoc.c.b A Datatyp(siz) R M Lvl/name                 OctLoc.c.b A Datatyp(siz) R M Lvl/name

     0-0-0/w PTR               1 EOF_SYMBOL_PTR

  ****  Section 023 LblCom ERROR_SYMBOL_PTR

  ****  Scalars and arrays  ****
OctLoc.c.b A Datatyp(siz) R M Lvl/name                 OctLoc.c.b A Datatyp(siz) R M Lvl/name

     0-0-0/w PTR               1 ERROR_SYMBOL_PTR

  ****  Section 024 LblCom BOF_SYMBOL_PTR

  ****  Scalars and arrays  ****
OctLoc.c.b A Datatyp(siz) R M Lvl/name                 OctLoc.c.b A Datatyp(siz) R M Lvl/name

     0-0-0/w PTR               1 BOF_SYMBOL_PTR

  ****  Section 025 LblCom OPTIONS

  ****  Scalars and arrays  ****
OctLoc.c.b A Datatyp(siz) R M Lvl/name                 OctLoc.c.b A Datatyp(siz) R M Lvl/name

     0-0-0/b BIT               1 OPTIONS(0:25)
PL6.E3A0      #004=CREATE_LEAST_COST_STRING File=LR_ERRREC.:Z8A6TSI              SAT 08/09/97 09:29 Page:102

  ****  Section 026 LblCom OPTIONS_TEXT

  ****  Scalars and arrays  ****
OctLoc.c.b A Datatyp(siz) R M Lvl/name                 OctLoc.c.b A Datatyp(siz) R M Lvl/name

     0-0-0/c CHAR(4)           1 OPTIONS_TEXT(0:25)

  ****  Section 027 LblCom INSTR

  ****  Scalars and arrays  ****
OctLoc.c.b A Datatyp(siz) R M Lvl/name                 OctLoc.c.b A Datatyp(siz) R M Lvl/name

     0-0-0/c CHAR              1 INSTR(0:511)               0-0-0/c CHAR(512)         1 INSTRCHR

  ****  Section 028 LblCom INSTR_LISTED

  ****  Scalars and arrays  ****
OctLoc.c.b A Datatyp(siz) R M Lvl/name                 OctLoc.c.b A Datatyp(siz) R M Lvl/name

     0-0-0/b BIT               1 INSTR_LISTED

  ****  Section 029 LblCom INSTR_LEN

  ****  Scalars and arrays  ****
OctLoc.c.b A Datatyp(siz) R M Lvl/name                 OctLoc.c.b A Datatyp(siz) R M Lvl/name

     0-0-0/w SBIN              1 INSTR_LEN

  ****  Section 030 LblCom INSTR_INDX

  ****  Scalars and arrays  ****
OctLoc.c.b A Datatyp(siz) R M Lvl/name                 OctLoc.c.b A Datatyp(siz) R M Lvl/name

     0-0-0/w SBIN              1 INSTR_INDX

  ****  Section 031 LblCom EOF_FLAG
PL6.E3A0      #004=CREATE_LEAST_COST_STRING File=LR_ERRREC.:Z8A6TSI              SAT 08/09/97 09:29 Page:103

  ****  Scalars and arrays  ****
OctLoc.c.b A Datatyp(siz) R M Lvl/name                 OctLoc.c.b A Datatyp(siz) R M Lvl/name

     0-0-0/b BIT               1 EOF_FLAG

  ****  Section 032 LblCom KEY_REC

  ****  Scalars and arrays  ****
OctLoc.c.b A Datatyp(siz) R M Lvl/name                 OctLoc.c.b A Datatyp(siz) R M Lvl/name

     0-0-0/c CHAR(10)          1 KEY_REC

  ****  Section 033 LblCom LINE

  ****  Scalars and arrays  ****
OctLoc.c.b A Datatyp(siz) R M Lvl/name                 OctLoc.c.b A Datatyp(siz) R M Lvl/name

     0-0-0/c CHAR(109)         1 LINE

  ****  Section 034 LblCom LINELEN

  ****  Scalars and arrays  ****
OctLoc.c.b A Datatyp(siz) R M Lvl/name                 OctLoc.c.b A Datatyp(siz) R M Lvl/name

     0-0-0/w SBIN              1 LINELEN

  ****  Section 035 LblCom TSTATS

  ****  Scalars and arrays  ****
OctLoc.c.b A Datatyp(siz) R M Lvl/name                 OctLoc.c.b A Datatyp(siz) R M Lvl/name

     0-0-0/w STRC(7380)        1 TSTATS

  ****  Section 036 LblCom C#_TO_$

  ****  Scalars and arrays  ****
PL6.E3A0      #004=CREATE_LEAST_COST_STRING File=LR_ERRREC.:Z8A6TSI              SAT 08/09/97 09:29 Page:104
OctLoc.c.b A Datatyp(siz) R M Lvl/name                 OctLoc.c.b A Datatyp(siz) R M Lvl/name

     0-0-0/w PTR               1 C#_TO_$(0:2200)

  ****  Section 037 LblCom NR_CONFIG

  ****  Scalars and arrays  ****
OctLoc.c.b A Datatyp(siz) R M Lvl/name                 OctLoc.c.b A Datatyp(siz) R M Lvl/name

     0-0-0/w SBIN              1 NR_CONFIG

  ****  Section 038 LblCom INIT_CONFIG

  ****  Scalars and arrays  ****
OctLoc.c.b A Datatyp(siz) R M Lvl/name                 OctLoc.c.b A Datatyp(siz) R M Lvl/name

     0-0-0/w SBIN              1 INIT_CONFIG

  ****  Section 039 LblCom MAX_BASIS_ITEMS

  ****  Scalars and arrays  ****
OctLoc.c.b A Datatyp(siz) R M Lvl/name                 OctLoc.c.b A Datatyp(siz) R M Lvl/name

     0-0-0/w SBIN              1 MAX_BASIS_ITEMS

  ****  Section 040 LblCom MAX_TOTAL_ITEMS

  ****  Scalars and arrays  ****
OctLoc.c.b A Datatyp(siz) R M Lvl/name                 OctLoc.c.b A Datatyp(siz) R M Lvl/name

     0-0-0/w SBIN              1 MAX_TOTAL_ITEMS

  ****  Section 041 LblCom LAST_BINSRCH_ONLY

  ****  Scalars and arrays  ****
OctLoc.c.b A Datatyp(siz) R M Lvl/name                 OctLoc.c.b A Datatyp(siz) R M Lvl/name

PL6.E3A0      #004=CREATE_LEAST_COST_STRING File=LR_ERRREC.:Z8A6TSI              SAT 08/09/97 09:29 Page:105
     0-0-0/w SBIN              1 LAST_BINSRCH_ONLY

  ****  Section 042 LblCom LAST_BOTH_BITBIN

  ****  Scalars and arrays  ****
OctLoc.c.b A Datatyp(siz) R M Lvl/name                 OctLoc.c.b A Datatyp(siz) R M Lvl/name

     0-0-0/w SBIN              1 LAST_BOTH_BITBIN

  ****  Section 043 LblCom GARBAGE

  ****  Scalars and arrays  ****
OctLoc.c.b A Datatyp(siz) R M Lvl/name                 OctLoc.c.b A Datatyp(siz) R M Lvl/name

     0-0-0/w PTR               1 GARBAGE(0:100)

  ****  Section 044 LblCom AMT_GARBAGE

  ****  Scalars and arrays  ****
OctLoc.c.b A Datatyp(siz) R M Lvl/name                 OctLoc.c.b A Datatyp(siz) R M Lvl/name

     0-0-0/w SBIN              1 AMT_GARBAGE

  ****  Section 045 LblCom LEAST_COST_STRING

  ****  Scalars and arrays  ****
OctLoc.c.b A Datatyp(siz) R M Lvl/name                 OctLoc.c.b A Datatyp(siz) R M Lvl/name

     0-0-0/w PTR         r     1 LEAST_COST_STRING(0:1400)

  ****  Section 046 LblCom LEAST_COST_PREFIX

  ****  Scalars and arrays  ****
OctLoc.c.b A Datatyp(siz) R M Lvl/name                 OctLoc.c.b A Datatyp(siz) R M Lvl/name

     0-0-0/w PTR               1 LEAST_COST_PREFIX(0:1400)

PL6.E3A0      #004=CREATE_LEAST_COST_STRING File=LR_ERRREC.:Z8A6TSI              SAT 08/09/97 09:29 Page:106
  ****  Section 047 LblCom CURRE

  ****  Scalars and arrays  ****
OctLoc.c.b A Datatyp(siz) R M Lvl/name                 OctLoc.c.b A Datatyp(siz) R M Lvl/name

     0-0-0/d STRC(126)         1 CURRE(0:1400)

  ****  Section 048 LblCom LCP_INDX

  ****  Scalars and arrays  ****
OctLoc.c.b A Datatyp(siz) R M Lvl/name                 OctLoc.c.b A Datatyp(siz) R M Lvl/name

     0-0-0/h SBIN(18)          1 LCP_INDX(0:1400)

  ****  Section 049 LblCom COM_STRSP_LEN

  ****  Scalars and arrays  ****
OctLoc.c.b A Datatyp(siz) R M Lvl/name                 OctLoc.c.b A Datatyp(siz) R M Lvl/name

     0-0-0/w SBIN        r     1 COM_STRSP_LEN

  ****  Section 050 LblCom COM_SEARCH_STRING

  ****  Scalars and arrays  ****
OctLoc.c.b A Datatyp(siz) R M Lvl/name                 OctLoc.c.b A Datatyp(siz) R M Lvl/name

     0-0-0/w PTR         r     1 COM_SEARCH_STRING

  ****  Section 051 LblCom COM_SEARCH_STRING_LEN

  ****  Scalars and arrays  ****
OctLoc.c.b A Datatyp(siz) R M Lvl/name                 OctLoc.c.b A Datatyp(siz) R M Lvl/name

     0-0-0/w SBIN        r     1 COM_SEARCH_STRING_LEN

  ****  Section 052 LblCom COM_STRING_SPACE_LEN

PL6.E3A0      #004=CREATE_LEAST_COST_STRING File=LR_ERRREC.:Z8A6TSI              SAT 08/09/97 09:29 Page:107
  ****  Scalars and arrays  ****
OctLoc.c.b A Datatyp(siz) R M Lvl/name                 OctLoc.c.b A Datatyp(siz) R M Lvl/name

     0-0-0/w SBIN        r     1 COM_STRING_SPACE_LEN

  ****  Section 053 LblCom COM_STRING_SPACE_H

  ****  Scalars and arrays  ****
OctLoc.c.b A Datatyp(siz) R M Lvl/name                 OctLoc.c.b A Datatyp(siz) R M Lvl/name

     0-0-0/h SBIN(18)    r     1 COM_STRING_SPACE_H(0:24999)

  ****  Section 054 LblCom COM_STRING_SPACE$

  ****  Scalars and arrays  ****
OctLoc.c.b A Datatyp(siz) R M Lvl/name                 OctLoc.c.b A Datatyp(siz) R M Lvl/name

     0-0-0/w PTR         r     1 COM_STRING_SPACE$

  ****  Section 055 LblCom COM_STRING_PTR

  ****  Scalars and arrays  ****
OctLoc.c.b A Datatyp(siz) R M Lvl/name                 OctLoc.c.b A Datatyp(siz) R M Lvl/name

     0-0-0/w PTR         r     1 COM_STRING_PTR

  ****  Section 056 LblCom COM_STRING_INDX

  ****  Scalars and arrays  ****
OctLoc.c.b A Datatyp(siz) R M Lvl/name                 OctLoc.c.b A Datatyp(siz) R M Lvl/name

     0-0-0/w SBIN              1 COM_STRING_INDX

  ****  Section 057 LblCom LCP_TABLE_LEN

  ****  Scalars and arrays  ****
OctLoc.c.b A Datatyp(siz) R M Lvl/name                 OctLoc.c.b A Datatyp(siz) R M Lvl/name
PL6.E3A0      #004=CREATE_LEAST_COST_STRING File=LR_ERRREC.:Z8A6TSI              SAT 08/09/97 09:29 Page:108

     0-0-0/w SBIN              1 LCP_TABLE_LEN

  ****  Section 058 LblCom STATE_ITEM_INDEX

  ****  Scalars and arrays  ****
OctLoc.c.b A Datatyp(siz) R M Lvl/name                 OctLoc.c.b A Datatyp(siz) R M Lvl/name

     0-0-0/h STRC              1 STATE_ITEM_INDEX(0:2200)

  ****  Section 059 LblCom PATH

  ****  Scalars and arrays  ****
OctLoc.c.b A Datatyp(siz) R M Lvl/name                 OctLoc.c.b A Datatyp(siz) R M Lvl/name

     0-0-0/h STRC        r     1 PATH(0:17600)

  ****  Section 060 LblCom PATH_STRINGS_LEN

  ****  Scalars and arrays  ****
OctLoc.c.b A Datatyp(siz) R M Lvl/name                 OctLoc.c.b A Datatyp(siz) R M Lvl/name

     0-0-0/w SBIN        r     1 PATH_STRINGS_LEN

  ****  Section 061 LblCom PATH_ADDR$

  ****  Scalars and arrays  ****
OctLoc.c.b A Datatyp(siz) R M Lvl/name                 OctLoc.c.b A Datatyp(siz) R M Lvl/name

     0-0-0/w PTR         r     1 PATH_ADDR$

  ****  Section 062 LblCom PATH_TABLE_LEN

  ****  Scalars and arrays  ****
OctLoc.c.b A Datatyp(siz) R M Lvl/name                 OctLoc.c.b A Datatyp(siz) R M Lvl/name

     0-0-0/w SBIN              1 PATH_TABLE_LEN
PL6.E3A0      #004=CREATE_LEAST_COST_STRING File=LR_ERRREC.:Z8A6TSI              SAT 08/09/97 09:29 Page:109

  ****  Section 063 LblCom EDGECOST

  ****  Scalars and arrays  ****
OctLoc.c.b A Datatyp(siz) R M Lvl/name                 OctLoc.c.b A Datatyp(siz) R M Lvl/name

     0-0-0/w SBIN              1 EDGECOST(0:400)

  ****  Section 064 LblCom ITEM_TABLE_LEN

  ****  Scalars and arrays  ****
OctLoc.c.b A Datatyp(siz) R M Lvl/name                 OctLoc.c.b A Datatyp(siz) R M Lvl/name

     0-0-0/w SBIN              1 ITEM_TABLE_LEN

  ****  Section 065 LblCom ORDERED_ITEM

  ****  Scalars and arrays  ****
OctLoc.c.b A Datatyp(siz) R M Lvl/name                 OctLoc.c.b A Datatyp(siz) R M Lvl/name

     0-0-0/h STRC              1 ORDERED_ITEM(0:400)

  ****  Section 066 LblCom NEIGHBOR

  ****  Scalars and arrays  ****
OctLoc.c.b A Datatyp(siz) R M Lvl/name                 OctLoc.c.b A Datatyp(siz) R M Lvl/name

     0-0-0/w SBIN              1 NEIGHBOR(0:400)

  ****  Section 067 LblCom PATH_INFO

  ****  Scalars and arrays  ****
OctLoc.c.b A Datatyp(siz) R M Lvl/name                 OctLoc.c.b A Datatyp(siz) R M Lvl/name

     0-0-0/w STRC(28872)       1 PATH_INFO

  ****  Section 068 LblCom CHOSEN
PL6.E3A0      #004=CREATE_LEAST_COST_STRING File=LR_ERRREC.:Z8A6TSI              SAT 08/09/97 09:29 Page:110

  ****  Scalars and arrays  ****
OctLoc.c.b A Datatyp(siz) R M Lvl/name                 OctLoc.c.b A Datatyp(siz) R M Lvl/name

     0-0-0/w BIT               1 CHOSEN(0:400)

  ****  Section 069 LblCom REACHED

  ****  Scalars and arrays  ****
OctLoc.c.b A Datatyp(siz) R M Lvl/name                 OctLoc.c.b A Datatyp(siz) R M Lvl/name

     0-0-0/b BIT               1 REACHED(0:400)

  ****  Section 070 LblCom EXP_PATH_INDX

  ****  Scalars and arrays  ****
OctLoc.c.b A Datatyp(siz) R M Lvl/name                 OctLoc.c.b A Datatyp(siz) R M Lvl/name

     0-0-0/w SBIN              1 EXP_PATH_INDX

  ****  Auto variables  ****

  ****  Scalars and arrays  ****
OctLoc.c.b A Datatyp(siz) R M Lvl/name                 OctLoc.c.b A Datatyp(siz) R M Lvl/name

     3-0-0/w PTR         r     1 @NT                       *0-0-0/w SBIN        r     1 NT
     5-0-0/w SBIN        r     1 RP                         4-0-0/w SBIN        r     1 STRLEN

  ****  BASED and DCB variables  ****

  ****  Scalars and arrays  ****
OctLoc.c.b A Datatyp(siz) R M Lvl/name                 OctLoc.c.b A Datatyp(siz) R M Lvl/name

     0-0-0/w STRC(72)          1 CELL                       0-0-0/c ACHR              1 COM_STRINGS
     0-0-0/c ACHR              1 COM_STRING_SPACE           0-0-0/c ACHR              1 CSEARCH_STRING
     0-0-0/w STRC(57888)       1 C_SET_B                    0-0-0/w STRC(72)          1 INCLUDES_B
     0-0-0/w STRC(144)         1 INCL_B                     0-0-0/w STRC(5436)        1 ITEM_B
PL6.E3A0      #004=CREATE_LEAST_COST_STRING File=LR_ERRREC.:Z8A6TSI              SAT 08/09/97 09:29 Page:111
     0-0-0/w STRC(5652)        1 KEY_B                      0-0-0N  NULL        r     1 M$LO
     0-0-0N  NULL        r     1 M$OU                       0-0-0N  NULL        r     1 M$SI
     0-0-0N  NULL        r     1 M$SO                       0-0-0N  NULL        r     1 M$UI
     0-0-0/c ACHR              1 PATH_STRINGS               0-0-0/w STRC(90)          1 PREFIX
     0-0-0/w ASTR(72)    r     1 PREFIXCHR                  0-0-0/w STRC        r     1 STRING
     0-0-0/w ASTR(18)    r     1 STRINGCHR                  0-0-0/w STRC(351)   r     1 SYMBOL


   Procedure CREATE_LEAST_COST_STRING requires 204 words for executable code.
   Procedure CREATE_LEAST_COST_STRING requires 12 words of local(AUTO) storage.

PL6.E3A0      #005=CALC_LEAST_COST_PREFIX File=LR_ERRREC.:Z8A6TSI                SAT 08/09/97 09:29 Page:112
      320        1        /*T***********************************************************/
      321        2        /*T*                                                         */
      322        3        /*T* Copyright (c) Bull HN Information Systems Inc., 1997    */
      323        4        /*T*                                                         */
      324        5        /*T***********************************************************/
      325        6        CALC_LEAST_COST_PREFIX : PROC;
      326        7
      327        8        /*D*
      328        9               NAME: CALC_LEAST_COST_PREFIX
      329       10            PURPOSE:
      330       11
      331       12           Calculate all least cost prefixes E(A,b),
      332       13             where A is a terminal or a non_terminal, and
      333       14              b is a terminal.  Refer to:
      334       15
      335       16                 A LOCALLY LEAST COST LR ERROR CORRECTOR
      336       17                    by  FISCHER
      337       18                        COMPUTER SCIENCES DEPT REPORT #363
      338       19                        UNIV OF WISC
      339       20        */
      340       21
      341       22
      342       23        %INCLUDE LR_GRAM_EXT;
      343      562        %INCLUDE LR_CNFG_EXT;
      344      715        %INCLUDE LR_ERR_EXT;
      345      858
      346      859    1   DCL GET_STRING_MEM              ENTRY(2);
      347      860    1   DCL EXPAND_PREFIX               ENTRY(2);
      348      861    1   DCL PRINT_PREFIXES_FOR_TERMINAL ENTRY(1);
      349      862    1   DCL COLLECT_GARBAGE             ENTRY(1);
      350      863    1   DCL OUTPUT_LCP                  ENTRY(1);
      351      864
      352      865    1   DCL T        SBIN WORD;   /* TERMINAL */
      353      866    1   DCL NT       SBIN WORD;  /* NON_TERMINAL */
      354      867    1   DCL PN       SBIN WORD;
      355      868    1   DCL TP        PTR;
      356      869    1   DCL TEMPCOST SBIN WORD;
PL6.E3A0      #005=CALC_LEAST_COST_PREFIX File=LR_ERRREC.:Z8A6TSI                SAT 08/09/97 09:29 Page:113
      357      870    1   DCL MINC     SBIN WORD;
      358      871    1   DCL I        SBIN WORD;
      359      872    1   DCL R        SBIN WORD;
      360      873    1   DCL S        SBIN WORD;
      361      874
      362      875        /* The character string NT tells which non_terminal prefixes have
      363      876           changed.  The character indexed by the NT is 'T' if changes
      364      877           or blank otherwise. */
      365      878
      366      879    1   DCL NT_CHANGED CHAR(%(NR_SYMS_MAX+1));
      367      880
      368      881    1   DCL NT_REF(0:NR_SYMS_MAX) PTR;
      369      882
      370      883    1   DCL 1 PRODREF ALIGNED BASED,
      371      884    1         2 LEN_IN_H UBIN HALF HALIGNED,
      372      885    1         2 PROD     SBIN HALF HALIGNED,
      373      886    1         2 POS      SBIN HALF HALIGNED,
      374      887    1         2 *        SBIN HALF HALIGNED,
      375      888    1         2 LINK     PTR ALIGNED;
      376      889
      377      890
      378      891
      379      892
      380      893
      381      894    1   IF OPTIONS(ERROR_LIST_E_OPT) THEN
      382      895    2     DO;
      383      896            %SELECT_LO;
      384      899            %OUTLINE(S="' '");
      385      905            %OUTLINE(S="' '");
      386      911            %OUTLINE(S="'==================='");
      387      917            %OUTLINE(S="'LEAST COST PREFIXES'");
      388      923            %OUTLINE(S="'==================='");
      389      929    2     END;
      390      930
      391      931        /* Initialize all terminal least cost prefixes */
      392      932    2   DO T = 1 TO NR_TERM;
      393      933
PL6.E3A0      #005=CALC_LEAST_COST_PREFIX File=LR_ERRREC.:Z8A6TSI                SAT 08/09/97 09:29 Page:114
      394      934    2     CURRE.COST(T)     = INFINITE_COST;
      395      935    2     CURRE.PROD(T)     = -1;
      396      936    2     CURRE.INDX(T)     = -1;
      397      937    2     CURRE.EXPANDED(T) = FALSE;
      398      938
      399      939    2     LEAST_COST_PREFIX(T) = ADDR(NIL);
      400      940    2     NT_REF(T) = ADDR(NIL);
      401      941
      402      942
      403      943    2   END;
      404      944
      405      945    2   DO NT = NR_TERM + 1 TO LAST_NULL;
      406      946
      407      947    2     LEAST_COST_PREFIX(NT) = ADDR(NIL);
      408      948    2     NT_REF(NT) = ADDR(NIL);
      409      949
      410      950    2   END;
      411      951
      412      952        /* Build NT reference lists */
      413      953
      414      954    2   DO I = 0 TO NR_PROD - 1;
      415      955
      416      956    3     DO R = PROD.RIGHT_START(I) TO PROD.RIGHT_START(I) + PROD.RIGHT_CNT(I) - 1;
      417      957
      418      958    3       S = RIGHT_PARTS(R);
      419      959    3       TP = NT_REF(S);
      420      960    3       CALL GET_STRING_MEM(NT_REF(S), LENGTHW(PRODREF) * 2 - 1);
      421      961    3       NT_REF(S) -> PRODREF.LINK = TP;
      422      962    3       NT_REF(S) -> PRODREF.PROD = I;
      423      963    3       NT_REF(S) -> PRODREF.POS = R - PROD.RIGHT_START(I);
      424      964
      425      965    3     END;
      426      966    2   END;
      427      967
      428      968
      429      969        /* START THE ALGORITHM PROPER */
      430      970
PL6.E3A0      #005=CALC_LEAST_COST_PREFIX File=LR_ERRREC.:Z8A6TSI                SAT 08/09/97 09:29 Page:115
      431      971    2   DO T = 1 TO NR_TERM;
      432      972
      433      973    2     CURRE.COST(T)     = 0;
      434      974    2     CURRE.PROD(T)     = -1;
      435      975    2     CURRE.INDX(T)     = -1;
      436      976    2     CURRE.EXPANDED(T) = TRUE;
      437      977
      438      978    2     CALL GET_STRING_MEM(LEAST_COST_PREFIX(T), 3);
      439      979    2     LEAST_COST_PREFIX(T) -> PREFIX.TERM = T;
      440      980    2     LEAST_COST_PREFIX(T) -> PREFIX.LINK = ADDR(NIL);
      441      981
      442      982    2     NT_CHANGED = ' ';
      443      983
      444      984          /* Set all non_terminal costs to Infinite for this terminal */
      445      985
      446      986    3     DO NT = NR_TERM + 1 TO LAST_NULL;
      447      987
      448      988    3       CURRE.COST(NT) = INFINITE_COST;
      449      989    3       CURRE.PROD(NT)    = -1;
      450      990    3       CURRE.INDX(NT)    = -1;
      451      991    3       CURRE.EXPANDED(NT)= FALSE;
      452      992
      453      993    3     END;
      454      994
      455      995
      456      996          /* Initialize stack with terminal */
      457      997
      458      998    2     NT = T;
      459      999
      460     1000    3     DO WHILE NT < LENGTHC(NT_CHANGED);
      461     1001
      462     1002    3       SUBSTR(NT_CHANGED, NT, 1) = ' ';
      463     1003
      464     1004    3       TP = NT_REF(NT);
      465     1005
      466     1006    4       DO WHILE TP  ~= ADDR(NIL);
      467     1007
PL6.E3A0      #005=CALC_LEAST_COST_PREFIX File=LR_ERRREC.:Z8A6TSI                SAT 08/09/97 09:29 Page:116
      468     1008    4         PN = TP -> PRODREF.PROD;
      469     1009    4         MINC = CURRE.COST(PROD.GOAL_SYM_INDX(PN));
      470     1010    4         TEMPCOST = 0;
      471     1011
      472     1012    5         DO R = PROD.RIGHT_START(PN) TO PROD.RIGHT_START(PN) + TP->PRODREF.POS - 1;
      473     1013
      474     1014    5           TEMPCOST = TEMPCOST + SYM_PTRS(RIGHT_PARTS(R)) -> SYMBOL.COST.INS;
      475     1015
      476     1016    5         END;
      477     1017
      478     1018    4         TEMPCOST = TEMPCOST + CURRE.COST(RIGHT_PARTS(PROD.RIGHT_START(PN) + TP->
              1018                  PRODREF.POS));
      479     1019    4         IF TEMPCOST < MINC THEN
      480     1020    5           DO;
      481     1021    5             CURRE.COST(PROD.GOAL_SYM_INDX(PN)) = TEMPCOST;
      482     1022    5             CURRE.PROD(PROD.GOAL_SYM_INDX(PN)) = PN;
      483     1023    5             CURRE.INDX(PROD.GOAL_SYM_INDX(PN)) = TP->PRODREF.POS;
      484     1024    5             SUBSTR(NT_CHANGED, PROD.GOAL_SYM_INDX(PN), 1) = 'T';
      485     1025    5           END;
      486     1026
      487     1027    4         TP = TP ->PRODREF.LINK;
      488     1028
      489     1029    4       END;
      490     1030
      491     1031            /* Find next non_terminal whose value has changed */
      492     1032
      493     1033    3       CALL INDEX(NT, 'T', NT_CHANGED);
      494     1034
      495     1035    3     END;  /* WHILE */
      496     1036
      497     1037
      498     1038          /* Transfer the current least cost prefix values to the permanent
      499     1039             table of a list of strings of least cost prefixes.
      500     1040          */
      501     1041
      502     1042    3     DO NT = NR_TERM + 1 TO LAST_NULL;
      503     1043
PL6.E3A0      #005=CALC_LEAST_COST_PREFIX File=LR_ERRREC.:Z8A6TSI                SAT 08/09/97 09:29 Page:117
      504     1044    3       IF NOT CURRE.EXPANDED (NT) THEN
      505     1045    3         IF CURRE.COST(NT) < INFINITE_COST THEN
      506     1046    3           CALL EXPAND_PREFIX (NT,T);
      507     1047
      508     1048    3     END;
      509     1049
      510     1050          /* Print out results if request */
      511     1051    2     IF OPTIONS(ERROR_LIST_E_OPT) THEN
      512     1052    2       CALL PRINT_PREFIXES_FOR_TERMINAL(T);
      513     1053
      514     1054          /* Output table slice */
      515     1055    2     CALL OUTPUT_LCP(T);
      516     1056
      517     1057          /* Reclaim string space */
      518     1058    2     CALL COLLECT_GARBAGE(LEAST_COST_PREFIX(T));
      519     1059    2     LEAST_COST_PREFIX(T) = ADDR(NIL);
      520     1060
      521     1061    2     CURRE.COST(T)     = INFINITE_COST;
      522     1062    2     CURRE.PROD(T)     = -1;
      523     1063    2     CURRE.INDX(T)     = -1;
      524     1064    2     CURRE.EXPANDED(T) = FALSE;
      525     1065
      526     1066    3     DO NT = NR_TERM + 1 TO LAST_NULL;
      527     1067
      528     1068    3       IF LEAST_COST_PREFIX(NT) ~= ADDR(NIL) THEN
      529     1069    4         DO;
      530     1070    4           CALL COLLECT_GARBAGE(LEAST_COST_PREFIX(NT));
      531     1071    4           LEAST_COST_PREFIX(NT) = ADDR(NIL);
      532     1072    4         END;
      533     1073
      534     1074    3     END;
      535     1075
      536     1076    2   END;  /* DO ON TERMINALS */
      537     1077
      538     1078        /* COLLECT ALL  REFERENCE LIST SPACE */
      539     1079
      540     1080    2   DO I = 1 TO LAST_NULL;
PL6.E3A0      #005=CALC_LEAST_COST_PREFIX File=LR_ERRREC.:Z8A6TSI                SAT 08/09/97 09:29 Page:118
      541     1081    3     DO WHILE NT_REF(I) ~= ADDR(NIL);
      542     1082    3       TP = NT_REF(I) -> PRODREF.LINK;
      543     1083    3       CALL COLLECT_GARBAGE(NT_REF(I));
      544     1084    3       NT_REF(I) = TP;
      545     1085    3     END;
      546     1086    2   END;
      547     1087
      548     1088
      549     1089    1   END CALC_LEAST_COST_PREFIX;
      550     1090        %EOD;

PL6.E3A0      #005=CALC_LEAST_COST_PREFIX File=LR_ERRREC.:Z8A6TSI                SAT 08/09/97 09:29 Page:119
--  Include file information  --

   LR_ERR_EXT.:Z8A6TOU  cannot be made into a system file and is referenced.
   LR_CNFG_EXT.:Z8A6TOU  cannot be made into a system file and is referenced.
   LR_IO_EXT.:Z8A6TOU  cannot be made into a system file and is referenced.
   LR_GRAM_EXT.:Z8A6TOU  cannot be made into a system file and is referenced.
      No diagnostics issued in procedure CALC_LEAST_COST_PREFIX.

   Procedure CALC_LEAST_COST_PREFIX requires 401 words for executable code.
   Procedure CALC_LEAST_COST_PREFIX requires 1766 words of local(AUTO) storage.

PL6.E3A0      #005=CALC_LEAST_COST_PREFIX File=LR_ERRREC.:Z8A6TSI                SAT 08/09/97 09:29 Page:120

 Object Unit name= CALC_LEAST_COST_PREFIX                     File name= LR_ERRREC.:Z8A6TOU
 UTS= AUG 09 '97 09:29:39.48 SAT                              Compiler= PL-6/E31         Sev=      00
 SharedLib= :SHARED_SYSTEM                                    Alt SharedLib=


    ****  Control sections  ****

 Sect   Type Bound  Init  Size OctSiz  Section name(segment info)
    0  LblCom even  none     1      1  OUT_DCBN
    1   DCB   even  none     0      0  M$OU
    2   DCB   even  none     0      0  M$SO
    3   DCB   even  none     0      0  M$LO
    4   DCB   even  none     0      0  M$SI
    5   DCB   even  none     0      0  M$UI
    6  LblCom even  none  1401   2571  SYM_PTRS
    7  LblCom even  none  4001   7641  RIGHT_PARTS
    8  LblCom even  none  3002   5672  PROD
    9  LblCom even  none     1      1  NR_PROD
   10  LblCom even  none     1      1  NR_SYMS
   11  LblCom even  none     1      1  NR_TERM
   12  LblCom even  none     1      1  LAST_ACT
   13  LblCom even  none     1      1  LAST_NULL
   14  LblCom even  none     1      1  NR_ONRIGHT
   15  LblCom even  none     1      1  NR_NT
   16  LblCom even  none     1      1  PROD_LEN_MAX_EVER
   17  LblCom even  none     1      1  LAST_ORDER_SPECIFIED
   18  LblCom even  none     1      1  SEMANTIC_ORDERING
   19  LblCom even  none     1      1  ERR_SEV
   20  LblCom even  none     1      1  SET_LENGTHB
   21  LblCom even  none     1      1  SET_LENGTHW
   22  LblCom even  none     1      1  EOF_SYMBOL_PTR
   23  LblCom even  none     1      1  ERROR_SYMBOL_PTR
   24  LblCom even  none     1      1  BOF_SYMBOL_PTR
   25  LblCom even  none     1      1  OPTIONS
   26  LblCom even  none    26     32  OPTIONS_TEXT
   27  LblCom even  none   128    200  INSTR
   28  LblCom even  none     1      1  INSTR_LISTED
PL6.E3A0      #005=CALC_LEAST_COST_PREFIX File=LR_ERRREC.:Z8A6TSI                SAT 08/09/97 09:29 Page:121
   29  LblCom even  none     1      1  INSTR_LEN
   30  LblCom even  none     1      1  INSTR_INDX
   31  LblCom even  none     1      1  EOF_FLAG
   32  LblCom even  none     3      3  KEY_REC
   33  LblCom even  none    28     34  LINE
   34  LblCom even  none     1      1  LINELEN
   35  LblCom even  none   205    315  TSTATS
   36  LblCom even  none  2201   4231  C#_TO_$
   37  LblCom even  none     1      1  NR_CONFIG
   38  LblCom even  none     1      1  INIT_CONFIG
   39  LblCom even  none     1      1  MAX_BASIS_ITEMS
   40  LblCom even  none     1      1  MAX_TOTAL_ITEMS
   41  LblCom even  none     1      1  LAST_BINSRCH_ONLY
   42  LblCom even  none     1      1  LAST_BOTH_BITBIN
   43  LblCom even  none   101    145  GARBAGE
   44  LblCom even  none     1      1  AMT_GARBAGE
   45  LblCom even  none  1401   2571  LEAST_COST_STRING
   46  LblCom even  none  1401   2571  LEAST_COST_PREFIX
   47  LblCom even  none  5604  12744  CURRE
   48  LblCom even  none   701   1275  LCP_INDX
   49  LblCom even  none     1      1  COM_STRSP_LEN
   50  LblCom even  none     1      1  COM_SEARCH_STRING
   51  LblCom even  none     1      1  COM_SEARCH_STRING_LEN
   52  LblCom even  none     1      1  COM_STRING_SPACE_LEN
   53  LblCom even  none 12500  30324  COM_STRING_SPACE_H
   54  LblCom even  none     1      1  COM_STRING_SPACE$
   55  LblCom even  none     1      1  COM_STRING_PTR
   56  LblCom even  none     1      1  COM_STRING_INDX
   57  LblCom even  none     1      1  LCP_TABLE_LEN
   58  LblCom even  none  2201   4231  STATE_ITEM_INDEX
   59  LblCom even  none 17601  42301  PATH
   60  LblCom even  none     1      1  PATH_STRINGS_LEN
   61  LblCom even  none     1      1  PATH_ADDR$
   62  LblCom even  none     1      1  PATH_TABLE_LEN
   63  LblCom even  none   401    621  EDGECOST
   64  LblCom even  none     1      1  ITEM_TABLE_LEN
   65  LblCom even  none   401    621  ORDERED_ITEM
PL6.E3A0      #005=CALC_LEAST_COST_PREFIX File=LR_ERRREC.:Z8A6TSI                SAT 08/09/97 09:29 Page:122
   66  LblCom even  none   401    621  NEIGHBOR
   67  LblCom even  none   802   1442  PATH_INFO
   68  LblCom even  none   401    621  CHOSEN
   69  LblCom even  none    12     14  REACHED
   70  LblCom even  none     1      1  EXP_PATH_INDX
   71  RoData even  UTS     10     12  CALC_LEAST_COST_PREFIX
   72   Proc  even  none   401    621  CALC_LEAST_COST_PREFIX
   73  RoData even  none    19     23  CALC_LEAST_COST_PREFIX

    ****  Entry defs  ****

                              Check   Calling
                             calling  sequence
  Sect OctLoc Primary Altret sequence   type   Parms  Name
    72      0   yes            yes      Std        0  CALC_LEAST_COST_PREFIX

  ****  Entry refs  ****

         Check        Calling
        calling       sequence
Altret sequence SRef   type   Args  Name
         yes           Std       2 OUT_STR
         yes           Std       0 FLUSH
         yes           Std       2 EXPAND_PREFIX
         yes           Std       1 PRINT_PREFIXES_FOR_TERMINAL
         yes           Std       2 GET_STRING_MEM
         yes           Std       1 OUTPUT_LCP
         yes           Std       1 COLLECT_GARBAGE
                       nStd      0 X66_AUTO_0
                       nStd      0 X66_ARET
PL6.E3A0      #005=CALC_LEAST_COST_PREFIX File=LR_ERRREC.:Z8A6TSI                SAT 08/09/97 09:29 Page:123

  ****  Data refs  ****

  Flags:  r = read only, s = secondary
Flgs Name                             Flgs Name                             Flgs Name
     M$OU                                  M$SO                                  M$LO
     M$SI                                  M$UI

  ****  Segment refs  ****

  Flags:  r = read only, s = secondary
Flgs Name                             Flgs Name                             Flgs Name
     NULLSID                               ISSID
PL6.E3A0      #005=CALC_LEAST_COST_PREFIX File=LR_ERRREC.:Z8A6TSI                SAT 08/09/97 09:29 Page:124


      320        1        /*T***********************************************************/
      321        2        /*T*                                                         */
      322        3        /*T* Copyright (c) Bull HN Information Systems Inc., 1997    */
      323        4        /*T*                                                         */
      324        5        /*T***********************************************************/
      325        6        CALC_LEAST_COST_PREFIX : PROC;

      6 72 000000   000000 700200 xent  CALC_LEAST_* TSX0  ! X66_AUTO_0
        72 000001   003346 000000                    ZERO    1766,0

      326        7
      327        8        /*D*
      328        9               NAME: CALC_LEAST_COST_PREFIX
      329       10            PURPOSE:
      330       11
      331       12           Calculate all least cost prefixes E(A,b),
      332       13             where A is a terminal or a non_terminal, and
      333       14              b is a terminal.  Refer to:
      334       15
      335       16                 A LOCALLY LEAST COST LR ERROR CORRECTOR
      336       17                    by  FISCHER
      337       18                        COMPUTER SCIENCES DEPT REPORT #363
      338       19                        UNIV OF WISC
      339       20        */
      340       21
      341       22
      342       23        %INCLUDE LR_GRAM_EXT;
      343      562        %INCLUDE LR_CNFG_EXT;
      344      715        %INCLUDE LR_ERR_EXT;
      345      858
      346      859    1   DCL GET_STRING_MEM              ENTRY(2);
      347      860    1   DCL EXPAND_PREFIX               ENTRY(2);
      348      861    1   DCL PRINT_PREFIXES_FOR_TERMINAL ENTRY(1);
      349      862    1   DCL COLLECT_GARBAGE             ENTRY(1);
      350      863    1   DCL OUTPUT_LCP                  ENTRY(1);
      351      864
PL6.E3A0      #005=CALC_LEAST_COST_PREFIX File=LR_ERRREC.:Z8A6TSI                SAT 08/09/97 09:29 Page:125
      352      865    1   DCL T        SBIN WORD;   /* TERMINAL */
      353      866    1   DCL NT       SBIN WORD;  /* NON_TERMINAL */
      354      867    1   DCL PN       SBIN WORD;
      355      868    1   DCL TP        PTR;
      356      869    1   DCL TEMPCOST SBIN WORD;
      357      870    1   DCL MINC     SBIN WORD;
      358      871    1   DCL I        SBIN WORD;
      359      872    1   DCL R        SBIN WORD;
      360      873    1   DCL S        SBIN WORD;
      361      874
      362      875        /* The character string NT tells which non_terminal prefixes have
      363      876           changed.  The character indexed by the NT is 'T' if changes
      364      877           or blank otherwise. */
      365      878
      366      879    1   DCL NT_CHANGED CHAR(%(NR_SYMS_MAX+1));
      367      880
      368      881    1   DCL NT_REF(0:NR_SYMS_MAX) PTR;
      369      882
      370      883    1   DCL 1 PRODREF ALIGNED BASED,
      371      884    1         2 LEN_IN_H UBIN HALF HALIGNED,
      372      885    1         2 PROD     SBIN HALF HALIGNED,
      373      886    1         2 POS      SBIN HALF HALIGNED,
      374      887    1         2 *        SBIN HALF HALIGNED,
      375      888    1         2 LINK     PTR ALIGNED;
      376      889
      377      890
      378      891
      379      892
      380      893
      381      894    1   IF OPTIONS(ERROR_LIST_E_OPT) THEN

    894 72 000002   000000 236000 25                 LDQ     OPTIONS
        72 000003   000020 316003                    CANQ    16,DU
        72 000004   000052 600000 72                 TZE     s:932

      382      895    2     DO;

PL6.E3A0      #005=CALC_LEAST_COST_PREFIX File=LR_ERRREC.:Z8A6TSI                SAT 08/09/97 09:29 Page:126
      383      896            %SELECT_LO;

    897 72 000005   000000 236007 xsym               LDQ     M$LO,DL
        72 000006   000000 756000 0                  STQ     OUT_DCBN

      384      899            %OUTLINE(S="' '");

    901 72 000007   000003 630400 73                 EPPR0   3
        72 000010   000000 631400 73                 EPPR1   0
        72 000011   000000 701000 xent               TSX1    OUT_STR
        72 000012   000000 011000                    NOP     0

    902 72 000013   000005 631400 73                 EPPR1   5
        72 000014   000000 701000 xent               TSX1    FLUSH
        72 000015   000000 011000                    NOP     0

      385      905            %OUTLINE(S="' '");

    907 72 000016   000003 630400 73                 EPPR0   3
        72 000017   000000 631400 73                 EPPR1   0
        72 000020   000000 701000 xent               TSX1    OUT_STR
        72 000021   000000 011000                    NOP     0

    908 72 000022   000005 631400 73                 EPPR1   5
        72 000023   000000 701000 xent               TSX1    FLUSH
        72 000024   000000 011000                    NOP     0

      386      911            %OUTLINE(S="'==================='");

    913 72 000025   000007 630400 73                 EPPR0   7
        72 000026   000000 631400 73                 EPPR1   0
        72 000027   000000 701000 xent               TSX1    OUT_STR
        72 000030   000000 011000                    NOP     0

    914 72 000031   000005 631400 73                 EPPR1   5
        72 000032   000000 701000 xent               TSX1    FLUSH
        72 000033   000000 011000                    NOP     0
PL6.E3A0      #005=CALC_LEAST_COST_PREFIX File=LR_ERRREC.:Z8A6TSI                SAT 08/09/97 09:29 Page:127

      387      917            %OUTLINE(S="'LEAST COST PREFIXES'");

    919 72 000034   000011 630400 73                 EPPR0   9
        72 000035   000000 631400 73                 EPPR1   0
        72 000036   000000 701000 xent               TSX1    OUT_STR
        72 000037   000000 011000                    NOP     0

    920 72 000040   000005 631400 73                 EPPR1   5
        72 000041   000000 701000 xent               TSX1    FLUSH
        72 000042   000000 011000                    NOP     0

      388      923            %OUTLINE(S="'==================='");

    925 72 000043   000007 630400 73                 EPPR0   7
        72 000044   000000 631400 73                 EPPR1   0
        72 000045   000000 701000 xent               TSX1    OUT_STR
        72 000046   000000 011000                    NOP     0

    926 72 000047   000005 631400 73                 EPPR1   5
        72 000050   000000 701000 xent               TSX1    FLUSH
        72 000051   000000 011000                    NOP     0

      389      929    2     END;

      390      930
      391      931        /* Initialize all terminal least cost prefixes */
      392      932    2   DO T = 1 TO NR_TERM;

    932 72 000052   000001 235007                    LDA     1,DL
        72 000053   200003 755100                    STA     T,,AUTO
        72 000054   000072 710000 72                 TRA     s:943+1

      393      933
      394      934    2     CURRE.COST(T)     = INFINITE_COST;

    934 72 000055   200003 235100                    LDA     T,,AUTO
PL6.E3A0      #005=CALC_LEAST_COST_PREFIX File=LR_ERRREC.:Z8A6TSI                SAT 08/09/97 09:29 Page:128
        72 000056   000002 735000                    ALS     2
        72 000057   303237 220003                    LDX0    99999,DU
        72 000060   000000 740005 47                 STX0    CURRE,AL

      395      935    2     CURRE.PROD(T)     = -1;

    935 72 000061   777777 221003                    LDX1    -1,DU
        72 000062   000002 741005 47                 STX1    CURRE+2,AL

      396      936    2     CURRE.INDX(T)     = -1;

    936 72 000063   000002 441005 47                 SXL1    CURRE+2,AL

      397      937    2     CURRE.EXPANDED(T) = FALSE;

    937 72 000064   000003 450005 47                 STZ     CURRE+3,AL

      398      938
      399      939    2     LEAST_COST_PREFIX(T) = ADDR(NIL);

    939 72 000065   000013 236000 73                 LDQ     11
        72 000066   200003 722100                    LXL2    T,,AUTO
        72 000067   000000 756012 46                 STQ     LEAST_COST_PREFIX,X2

      400      940    2     NT_REF(T) = ADDR(NIL);

    940 72 000070   200553 756112                    STQ     NT_REF,X2,AUTO

      401      941
      402      942
      403      943    2   END;

    943 72 000071   200003 054100                    AOS     T,,AUTO
        72 000072   200003 236100                    LDQ     T,,AUTO
        72 000073   000000 116000 11                 CMPQ    NR_TERM
        72 000074   000055 604400 72                 TMOZ    s:934

PL6.E3A0      #005=CALC_LEAST_COST_PREFIX File=LR_ERRREC.:Z8A6TSI                SAT 08/09/97 09:29 Page:129
      404      944
      405      945    2   DO NT = NR_TERM + 1 TO LAST_NULL;

    945 72 000075   000000 235000 11                 LDA     NR_TERM
        72 000076   000001 035007                    ADLA    1,DL
        72 000077   200004 755100                    STA     NT,,AUTO
        72 000100   000106 710000 72                 TRA     s:950+1

      406      946
      407      947    2     LEAST_COST_PREFIX(NT) = ADDR(NIL);

    947 72 000101   000013 236000 73                 LDQ     11
        72 000102   200004 720100                    LXL0    NT,,AUTO
        72 000103   000000 756010 46                 STQ     LEAST_COST_PREFIX,X0

      408      948    2     NT_REF(NT) = ADDR(NIL);

    948 72 000104   200553 756110                    STQ     NT_REF,X0,AUTO

      409      949
      410      950    2   END;

    950 72 000105   200004 054100                    AOS     NT,,AUTO
        72 000106   200004 236100                    LDQ     NT,,AUTO
        72 000107   000000 116000 13                 CMPQ    LAST_NULL
        72 000110   000101 604400 72                 TMOZ    s:947

      411      951
      412      952        /* Build NT reference lists */
      413      953
      414      954    2   DO I = 0 TO NR_PROD - 1;

    954 72 000111   200011 450100                    STZ     I,,AUTO
        72 000112   000202 710000 72                 TRA     s:966+1

      415      955
      416      956    3     DO R = PROD.RIGHT_START(I) TO PROD.RIGHT_START(I) + PROD.RIGHT_CNT(I) - 1;
PL6.E3A0      #005=CALC_LEAST_COST_PREFIX File=LR_ERRREC.:Z8A6TSI                SAT 08/09/97 09:29 Page:130

    956 72 000113   200011 235100                    LDA     I,,AUTO
        72 000114   000001 735000                    ALS     1
        72 000115   000001 236005 8                  LDQ     PROD+1,AL
        72 000116   000022 736000                    QLS     18
        72 000117   000022 732000                    QRS     18
        72 000120   200012 756100                    STQ     R,,AUTO
        72 000121   000170 710000 72                 TRA     s:965+1

      417      957
      418      958    3       S = RIGHT_PARTS(R);

    958 72 000122   200012 235100                    LDA     R,,AUTO
        72 000123   000001 735000                    ALS     1
        72 000124   000100 100405                    MLR     fill='000'O
        72 000125   000000 000002 7                  ADSC9   RIGHT_PARTS,A            cn=0,n=2
        72 000126   203344 000004                    ADSC9   NT_REF+1401,,AUTO        cn=0,n=4
        72 000127   203344 236100                    LDQ     NT_REF+1401,,AUTO
        72 000130   000022 732000                    QRS     18
        72 000131   200013 756100                    STQ     S,,AUTO

      419      959    3       TP = NT_REF(S);

    959 72 000132   200553 236106                    LDQ     NT_REF,QL,AUTO
        72 000133   200006 756100                    STQ     TP,,AUTO

      420      960    3       CALL GET_STRING_MEM(NT_REF(S), LENGTHW(PRODREF) * 2 - 1);

    960 72 000134   000015 236000 73                 LDQ     13
        72 000135   203345 756100                    STQ     NT_REF+1402,,AUTO
        72 000136   200013 720100                    LXL0    S,,AUTO
        72 000137   200553 630510                    EPPR0   NT_REF,X0,AUTO
        72 000140   203344 450500                    STP0    NT_REF+1401,,AUTO
        72 000141   203344 630500                    EPPR0   NT_REF+1401,,AUTO
        72 000142   000000 631400 73                 EPPR1   0
        72 000143   000000 701000 xent               TSX1    GET_STRING_MEM
        72 000144   000000 011000                    NOP     0
PL6.E3A0      #005=CALC_LEAST_COST_PREFIX File=LR_ERRREC.:Z8A6TSI                SAT 08/09/97 09:29 Page:131

      421      961    3       NT_REF(S) -> PRODREF.LINK = TP;

    961 72 000145   200013 720100                    LXL0    S,,AUTO
        72 000146   200553 470510                    LDP0    NT_REF,X0,AUTO
        72 000147   200006 236100                    LDQ     TP,,AUTO
        72 000150   000002 756100                    STQ     2,,PR0

      422      962    3       NT_REF(S) -> PRODREF.PROD = I;

    962 72 000151   200553 470510                    LDP0    NT_REF,X0,AUTO
        72 000152   200011 721100                    LXL1    I,,AUTO
        72 000153   000000 441100                    SXL1    0,,PR0

      423      963    3       NT_REF(S) -> PRODREF.POS = R - PROD.RIGHT_START(I);

    963 72 000154   200553 470510                    LDP0    NT_REF,X0,AUTO
        72 000155   200011 235100                    LDA     I,,AUTO
        72 000156   000001 735000                    ALS     1
        72 000157   000001 236005 8                  LDQ     PROD+1,AL
        72 000160   000022 736000                    QLS     18
        72 000161   000022 732000                    QRS     18
        72 000162   203344 756100                    STQ     NT_REF+1401,,AUTO
        72 000163   200012 236100                    LDQ     R,,AUTO
        72 000164   203344 136100                    SBLQ    NT_REF+1401,,AUTO
        72 000165   000000 622006                    EAX2    0,QL
        72 000166   000001 742100                    STX2    1,,PR0

      424      964
      425      965    3     END;

    965 72 000167   200012 054100                    AOS     R,,AUTO
        72 000170   000001 236005 8                  LDQ     PROD+1,AL
        72 000171   000022 732000                    QRS     18
        72 000172   203344 756100                    STQ     NT_REF+1401,,AUTO
        72 000173   000001 236005 8                  LDQ     PROD+1,AL
        72 000174   000022 736000                    QLS     18
PL6.E3A0      #005=CALC_LEAST_COST_PREFIX File=LR_ERRREC.:Z8A6TSI                SAT 08/09/97 09:29 Page:132
        72 000175   000022 732000                    QRS     18
        72 000176   203344 036100                    ADLQ    NT_REF+1401,,AUTO
        72 000177   200012 116100                    CMPQ    R,,AUTO
        72 000200   000122 605400 72                 TPNZ    s:958

      426      966    2   END;

    966 72 000201   200011 054100                    AOS     I,,AUTO
        72 000202   200011 236100                    LDQ     I,,AUTO
        72 000203   000000 116000 9                  CMPQ    NR_PROD
        72 000204   000113 604000 72                 TMI     s:956

      427      967
      428      968
      429      969        /* START THE ALGORITHM PROPER */
      430      970
      431      971    2   DO T = 1 TO NR_TERM;

    971 72 000205   000001 235007                    LDA     1,DL
        72 000206   200003 755100                    STA     T,,AUTO
        72 000207   000564 710000 72                 TRA     s:1076+1

      432      972
      433      973    2     CURRE.COST(T)     = 0;

    973 72 000210   200003 235100                    LDA     T,,AUTO
        72 000211   000002 735000                    ALS     2
        72 000212   000000 220003                    LDX0    0,DU
        72 000213   000000 740005 47                 STX0    CURRE,AL

      434      974    2     CURRE.PROD(T)     = -1;

    974 72 000214   777777 221003                    LDX1    -1,DU
        72 000215   000002 741005 47                 STX1    CURRE+2,AL

      435      975    2     CURRE.INDX(T)     = -1;

PL6.E3A0      #005=CALC_LEAST_COST_PREFIX File=LR_ERRREC.:Z8A6TSI                SAT 08/09/97 09:29 Page:133
    975 72 000216   000002 441005 47                 SXL1    CURRE+2,AL

      436      976    2     CURRE.EXPANDED(T) = TRUE;

    976 72 000217   400000 236003                    LDQ     -131072,DU
        72 000220   000003 756005 47                 STQ     CURRE+3,AL

      437      977
      438      978    2     CALL GET_STRING_MEM(LEAST_COST_PREFIX(T), 3);

    978 72 000221   000017 236000 73                 LDQ     15
        72 000222   203345 756100                    STQ     NT_REF+1402,,AUTO
        72 000223   200003 722100                    LXL2    T,,AUTO
        72 000224   000000 630412 46                 EPPR0   LEAST_COST_PREFIX,X2
        72 000225   203344 450500                    STP0    NT_REF+1401,,AUTO
        72 000226   203344 630500                    EPPR0   NT_REF+1401,,AUTO
        72 000227   000000 631400 73                 EPPR1   0
        72 000230   000000 701000 xent               TSX1    GET_STRING_MEM
        72 000231   000000 011000                    NOP     0

      439      979    2     LEAST_COST_PREFIX(T) -> PREFIX.TERM = T;

    979 72 000232   200003 720100                    LXL0    T,,AUTO
        72 000233   000000 470410 46                 LDP0    LEAST_COST_PREFIX,X0
        72 000234   000000 440100                    SXL0    0,,PR0

      440      980    2     LEAST_COST_PREFIX(T) -> PREFIX.LINK = ADDR(NIL);

    980 72 000235   200003 720100                    LXL0    T,,AUTO
        72 000236   000000 470410 46                 LDP0    LEAST_COST_PREFIX,X0
        72 000237   000013 236000 73                 LDQ     11
        72 000240   000001 756100                    STQ     1,,PR0

      441      981
      442      982    2     NT_CHANGED = ' ';

    982 72 000241   040100 100400                    MLR     fill='040'O
PL6.E3A0      #005=CALC_LEAST_COST_PREFIX File=LR_ERRREC.:Z8A6TSI                SAT 08/09/97 09:29 Page:134
        72 000242   000001 000001 73                 ADSC9   1                        cn=0,n=1
        72 000243   200014 002571                    ADSC9   NT_CHANGED,,AUTO         cn=0,n=1401

      443      983
      444      984          /* Set all non_terminal costs to Infinite for this terminal */
      445      985
      446      986    3     DO NT = NR_TERM + 1 TO LAST_NULL;

    986 72 000244   000000 235000 11                 LDA     NR_TERM
        72 000245   000001 035007                    ADLA    1,DL
        72 000246   200004 755100                    STA     NT,,AUTO
        72 000247   000261 710000 72                 TRA     s:993+1

      447      987
      448      988    3       CURRE.COST(NT) = INFINITE_COST;

    988 72 000250   200004 235100                    LDA     NT,,AUTO
        72 000251   000002 735000                    ALS     2
        72 000252   303237 220003                    LDX0    99999,DU
        72 000253   000000 740005 47                 STX0    CURRE,AL

      449      989    3       CURRE.PROD(NT)    = -1;

    989 72 000254   777777 221003                    LDX1    -1,DU
        72 000255   000002 741005 47                 STX1    CURRE+2,AL

      450      990    3       CURRE.INDX(NT)    = -1;

    990 72 000256   000002 441005 47                 SXL1    CURRE+2,AL

      451      991    3       CURRE.EXPANDED(NT)= FALSE;

    991 72 000257   000003 450005 47                 STZ     CURRE+3,AL

      452      992
      453      993    3     END;

PL6.E3A0      #005=CALC_LEAST_COST_PREFIX File=LR_ERRREC.:Z8A6TSI                SAT 08/09/97 09:29 Page:135
    993 72 000260   200004 054100                    AOS     NT,,AUTO
        72 000261   200004 236100                    LDQ     NT,,AUTO
        72 000262   000000 116000 13                 CMPQ    LAST_NULL
        72 000263   000250 604400 72                 TMOZ    s:988

      454      994
      455      995
      456      996          /* Initialize stack with terminal */
      457      997
      458      998    2     NT = T;

    998 72 000264   200003 235100                    LDA     T,,AUTO
        72 000265   200004 755100                    STA     NT,,AUTO

      459      999
      460     1000    3     DO WHILE NT < LENGTHC(NT_CHANGED);

   1000 72 000266   000443 710000 72                 TRA     s:1035

      461     1001
      462     1002    3       SUBSTR(NT_CHANGED, NT, 1) = ' ';

   1002 72 000267   200004 235100                    LDA     NT,,AUTO
        72 000270   040105 100400                    MLR     fill='040'O
        72 000271   000001 000001 73                 ADSC9   1                        cn=0,n=1
        72 000272   200014 000001                    ADSC9   NT_CHANGED,A,AUTO        cn=0,n=1

      463     1003
      464     1004    3       TP = NT_REF(NT);

   1004 72 000273   200553 236105                    LDQ     NT_REF,AL,AUTO
        72 000274   200006 756100                    STQ     TP,,AUTO

      465     1005
      466     1006    4       DO WHILE TP  ~= ADDR(NIL);

   1006 72 000275   000435 710000 72                 TRA     s:1029
PL6.E3A0      #005=CALC_LEAST_COST_PREFIX File=LR_ERRREC.:Z8A6TSI                SAT 08/09/97 09:29 Page:136

      467     1007
      468     1008    4         PN = TP -> PRODREF.PROD;

   1008 72 000276   200006 470500                    LDP0    TP,,AUTO
        72 000277   000000 236100                    LDQ     0,,PR0
        72 000300   000022 736000                    QLS     18
        72 000301   000022 732000                    QRS     18
        72 000302   200005 756100                    STQ     PN,,AUTO

      469     1009    4         MINC = CURRE.COST(PROD.GOAL_SYM_INDX(PN));

   1009 72 000303   200005 235100                    LDA     PN,,AUTO
        72 000304   000001 735000                    ALS     1
        72 000305   000000 220005 8                  LDX0    PROD,AL
        72 000306   000000 020005 8                  ADLX0   PROD,AL
        72 000307   000000 635010                    EAA     0,X0
        72 000310   000021 771000                    ARL     17
        72 000311   000000 236005 47                 LDQ     CURRE,AL
        72 000312   000022 732000                    QRS     18
        72 000313   200010 756100                    STQ     MINC,,AUTO

      470     1010    4         TEMPCOST = 0;

   1010 72 000314   200007 450100                    STZ     TEMPCOST,,AUTO

      471     1011
      472     1012    5         DO R = PROD.RIGHT_START(PN) TO PROD.RIGHT_START(PN) + TP->PRODREF.POS - 1;

   1012 72 000315   200005 235100                    LDA     PN,,AUTO
        72 000316   000001 735000                    ALS     1
        72 000317   000001 236005 8                  LDQ     PROD+1,AL
        72 000320   000022 736000                    QLS     18
        72 000321   000022 732000                    QRS     18
        72 000322   200012 756100                    STQ     R,,AUTO
        72 000323   000341 710000 72                 TRA     s:1016+1

PL6.E3A0      #005=CALC_LEAST_COST_PREFIX File=LR_ERRREC.:Z8A6TSI                SAT 08/09/97 09:29 Page:137
      473     1013
      474     1014    5           TEMPCOST = TEMPCOST + SYM_PTRS(RIGHT_PARTS(R)) -> SYMBOL.COST.INS;

   1014 72 000324   200012 235100                    LDA     R,,AUTO
        72 000325   000001 735000                    ALS     1
        72 000326   000100 100405                    MLR     fill='000'O
        72 000327   000000 000002 7                  ADSC9   RIGHT_PARTS,A            cn=0,n=2
        72 000330   203344 000004                    ADSC9   NT_REF+1401,,AUTO        cn=0,n=4
        72 000331   203344 236100                    LDQ     NT_REF+1401,,AUTO
        72 000332   000022 732000                    QRS     18
        72 000333   000000 470406 6                  LDP0    SYM_PTRS,QL
        72 000334   000005 236100                    LDQ     5,,PR0
        72 000335   000022 732000                    QRS     18
        72 000336   200007 036100                    ADLQ    TEMPCOST,,AUTO
        72 000337   200007 756100                    STQ     TEMPCOST,,AUTO

      475     1015
      476     1016    5         END;

   1016 72 000340   200012 054100                    AOS     R,,AUTO
        72 000341   200006 470500                    LDP0    TP,,AUTO
        72 000342   000001 236100                    LDQ     1,,PR0
        72 000343   000022 732000                    QRS     18
        72 000344   203344 756100                    STQ     NT_REF+1401,,AUTO
        72 000345   200005 235100                    LDA     PN,,AUTO
        72 000346   000001 735000                    ALS     1
        72 000347   000001 236005 8                  LDQ     PROD+1,AL
        72 000350   000022 736000                    QLS     18
        72 000351   000022 732000                    QRS     18
        72 000352   203344 036100                    ADLQ    NT_REF+1401,,AUTO
        72 000353   200012 116100                    CMPQ    R,,AUTO
        72 000354   000324 605400 72                 TPNZ    s:1014

      477     1017
      478     1018    4         TEMPCOST = TEMPCOST + CURRE.COST(RIGHT_PARTS(PROD.RIGHT_START(PN) + TP->
              1018                  PRODREF.POS));

PL6.E3A0      #005=CALC_LEAST_COST_PREFIX File=LR_ERRREC.:Z8A6TSI                SAT 08/09/97 09:29 Page:138
   1018 72 000355   000001 236100                    LDQ     1,,PR0
        72 000356   000022 732000                    QRS     18
        72 000357   203344 756100                    STQ     NT_REF+1401,,AUTO
        72 000360   000001 236005 8                  LDQ     PROD+1,AL
        72 000361   000022 736000                    QLS     18
        72 000362   000022 732000                    QRS     18
        72 000363   203344 036100                    ADLQ    NT_REF+1401,,AUTO
        72 000364   000001 736000                    QLS     1
        72 000365   000100 100406                    MLR     fill='000'O
        72 000366   000000 000002 7                  ADSC9   RIGHT_PARTS,Q            cn=0,n=2
        72 000367   203345 000004                    ADSC9   NT_REF+1402,,AUTO        cn=0,n=4
        72 000370   203345 236100                    LDQ     NT_REF+1402,,AUTO
        72 000371   000022 732000                    QRS     18
        72 000372   000001 736000                    QLS     1
        72 000373   000001 736000                    QLS     1
        72 000374   000000 236006 47                 LDQ     CURRE,QL
        72 000375   000022 732000                    QRS     18
        72 000376   200007 036100                    ADLQ    TEMPCOST,,AUTO
        72 000377   200007 756100                    STQ     TEMPCOST,,AUTO

      479     1019    4         IF TEMPCOST < MINC THEN

   1019 72 000400   200010 116100                    CMPQ    MINC,,AUTO
        72 000401   000433 605000 72                 TPL     s:1027

      480     1020    5           DO;

      481     1021    5             CURRE.COST(PROD.GOAL_SYM_INDX(PN)) = TEMPCOST;

   1021 72 000402   000000 220005 8                  LDX0    PROD,AL
        72 000403   000000 020005 8                  ADLX0   PROD,AL
        72 000404   000000 635010                    EAA     0,X0
        72 000405   000021 771000                    ARL     17
        72 000406   000000 620006                    EAX0    0,QL
        72 000407   000000 740005 47                 STX0    CURRE,AL

      482     1022    5             CURRE.PROD(PROD.GOAL_SYM_INDX(PN)) = PN;
PL6.E3A0      #005=CALC_LEAST_COST_PREFIX File=LR_ERRREC.:Z8A6TSI                SAT 08/09/97 09:29 Page:139

   1022 72 000410   200005 235100                    LDA     PN,,AUTO
        72 000411   000001 735000                    ALS     1
        72 000412   000000 236005 8                  LDQ     PROD,AL
        72 000413   000021 732000                    QRS     17
        72 000414   000020 376000 73                 ANQ     16
        72 000415   000001 736000                    QLS     1
        72 000416   200005 720100                    LXL0    PN,,AUTO
        72 000417   000002 740006 47                 STX0    CURRE+2,QL

      483     1023    5             CURRE.INDX(PROD.GOAL_SYM_INDX(PN)) = TP->PRODREF.POS;

   1023 72 000420   000000 236005 8                  LDQ     PROD,AL
        72 000421   000021 732000                    QRS     17
        72 000422   000020 376000 73                 ANQ     16
        72 000423   000001 736000                    QLS     1
        72 000424   000001 221100                    LDX1    1,,PR0
        72 000425   000002 441006 47                 SXL1    CURRE+2,QL

      484     1024    5             SUBSTR(NT_CHANGED, PROD.GOAL_SYM_INDX(PN), 1) = 'T';

   1024 72 000426   000000 236005 8                  LDQ     PROD,AL
        72 000427   000022 732000                    QRS     18
        72 000430   040106 100400                    MLR     fill='040'O
        72 000431   000021 000001 73                 ADSC9   17                       cn=0,n=1
        72 000432   200014 000001                    ADSC9   NT_CHANGED,Q,AUTO        cn=0,n=1

      485     1025    5           END;

      486     1026
      487     1027    4         TP = TP ->PRODREF.LINK;

   1027 72 000433   000002 236100                    LDQ     2,,PR0
        72 000434   200006 756100                    STQ     TP,,AUTO

      488     1028
      489     1029    4       END;
PL6.E3A0      #005=CALC_LEAST_COST_PREFIX File=LR_ERRREC.:Z8A6TSI                SAT 08/09/97 09:29 Page:140

   1029 72 000435   000013 116000 73                 CMPQ    11
        72 000436   000276 601000 72                 TNZ     s:1008

      490     1030
      491     1031            /* Find next non_terminal whose value has changed */
      492     1032
      493     1033    3       CALL INDEX(NT, 'T', NT_CHANGED);

   1033 72 000437   000000 124500                    SCM     mask='000'O
        72 000440   200014 002571                    ADSC9   NT_CHANGED,,AUTO         cn=0,n=1401
        72 000441   000021 000001 73                 ADSC9   17                       cn=0,n=1
        72 000442   200004 000100                    ARG     NT,,AUTO

      494     1034
      495     1035    3     END;  /* WHILE */

   1035 72 000443   200004 235100                    LDA     NT,,AUTO
        72 000444   002571 115007                    CMPA    1401,DL
        72 000445   000267 604000 72                 TMI     s:1002

      496     1036
      497     1037
      498     1038          /* Transfer the current least cost prefix values to the permanent
      499     1039             table of a list of strings of least cost prefixes.
      500     1040          */
      501     1041
      502     1042    3     DO NT = NR_TERM + 1 TO LAST_NULL;

   1042 72 000446   000000 236000 11                 LDQ     NR_TERM
        72 000447   000001 036007                    ADLQ    1,DL
        72 000450   200004 756100                    STQ     NT,,AUTO
        72 000451   000472 710000 72                 TRA     s:1048+1

      503     1043
      504     1044    3       IF NOT CURRE.EXPANDED (NT) THEN

PL6.E3A0      #005=CALC_LEAST_COST_PREFIX File=LR_ERRREC.:Z8A6TSI                SAT 08/09/97 09:29 Page:141
   1044 72 000452   200004 235100                    LDA     NT,,AUTO
        72 000453   000002 735000                    ALS     2
        72 000454   000003 234005 47                 SZN     CURRE+3,AL
        72 000455   000471 604000 72                 TMI     s:1048

      505     1045    3         IF CURRE.COST(NT) < INFINITE_COST THEN

   1045 72 000456   000000 220005 47                 LDX0    CURRE,AL
        72 000457   303237 100003                    CMPX0   99999,DU
        72 000460   000471 605000 72                 TPL     s:1048

      506     1046    3           CALL EXPAND_PREFIX (NT,T);

   1046 72 000461   200003 630500                    EPPR0   T,,AUTO
        72 000462   203345 450500                    STP0    NT_REF+1402,,AUTO
        72 000463   200004 631500                    EPPR1   NT,,AUTO
        72 000464   203344 451500                    STP1    NT_REF+1401,,AUTO
        72 000465   203344 630500                    EPPR0   NT_REF+1401,,AUTO
        72 000466   000000 631400 73                 EPPR1   0
        72 000467   000000 701000 xent               TSX1    EXPAND_PREFIX
        72 000470   000000 011000                    NOP     0

      507     1047
      508     1048    3     END;

   1048 72 000471   200004 054100                    AOS     NT,,AUTO
        72 000472   200004 236100                    LDQ     NT,,AUTO
        72 000473   000000 116000 13                 CMPQ    LAST_NULL
        72 000474   000452 604400 72                 TMOZ    s:1044

      509     1049
      510     1050          /* Print out results if request */
      511     1051    2     IF OPTIONS(ERROR_LIST_E_OPT) THEN

   1051 72 000475   000000 236000 25                 LDQ     OPTIONS
        72 000476   000020 316003                    CANQ    16,DU
        72 000477   000506 600000 72                 TZE     s:1055
PL6.E3A0      #005=CALC_LEAST_COST_PREFIX File=LR_ERRREC.:Z8A6TSI                SAT 08/09/97 09:29 Page:142

      512     1052    2       CALL PRINT_PREFIXES_FOR_TERMINAL(T);

   1052 72 000500   200003 630500                    EPPR0   T,,AUTO
        72 000501   203344 450500                    STP0    NT_REF+1401,,AUTO
        72 000502   203344 630500                    EPPR0   NT_REF+1401,,AUTO
        72 000503   000022 631400 73                 EPPR1   18
        72 000504   000000 701000 xent               TSX1    PRINT_PREFIXES_FOR_TERMINAL
        72 000505   000000 011000                    NOP     0

      513     1053
      514     1054          /* Output table slice */
      515     1055    2     CALL OUTPUT_LCP(T);

   1055 72 000506   200003 630500                    EPPR0   T,,AUTO
        72 000507   203344 450500                    STP0    NT_REF+1401,,AUTO
        72 000510   203344 630500                    EPPR0   NT_REF+1401,,AUTO
        72 000511   000022 631400 73                 EPPR1   18
        72 000512   000000 701000 xent               TSX1    OUTPUT_LCP
        72 000513   000000 011000                    NOP     0

      516     1056
      517     1057          /* Reclaim string space */
      518     1058    2     CALL COLLECT_GARBAGE(LEAST_COST_PREFIX(T));

   1058 72 000514   200003 720100                    LXL0    T,,AUTO
        72 000515   000000 630410 46                 EPPR0   LEAST_COST_PREFIX,X0
        72 000516   203344 450500                    STP0    NT_REF+1401,,AUTO
        72 000517   203344 630500                    EPPR0   NT_REF+1401,,AUTO
        72 000520   000022 631400 73                 EPPR1   18
        72 000521   000000 701000 xent               TSX1    COLLECT_GARBAGE
        72 000522   000000 011000                    NOP     0

      519     1059    2     LEAST_COST_PREFIX(T) = ADDR(NIL);

   1059 72 000523   000013 236000 73                 LDQ     11
        72 000524   200003 720100                    LXL0    T,,AUTO
PL6.E3A0      #005=CALC_LEAST_COST_PREFIX File=LR_ERRREC.:Z8A6TSI                SAT 08/09/97 09:29 Page:143
        72 000525   000000 756010 46                 STQ     LEAST_COST_PREFIX,X0

      520     1060
      521     1061    2     CURRE.COST(T)     = INFINITE_COST;

   1061 72 000526   200003 235100                    LDA     T,,AUTO
        72 000527   000002 735000                    ALS     2
        72 000530   303237 221003                    LDX1    99999,DU
        72 000531   000000 741005 47                 STX1    CURRE,AL

      522     1062    2     CURRE.PROD(T)     = -1;

   1062 72 000532   777777 222003                    LDX2    -1,DU
        72 000533   000002 742005 47                 STX2    CURRE+2,AL

      523     1063    2     CURRE.INDX(T)     = -1;

   1063 72 000534   000002 442005 47                 SXL2    CURRE+2,AL

      524     1064    2     CURRE.EXPANDED(T) = FALSE;

   1064 72 000535   000003 450005 47                 STZ     CURRE+3,AL

      525     1065
      526     1066    3     DO NT = NR_TERM + 1 TO LAST_NULL;

   1066 72 000536   000000 235000 11                 LDA     NR_TERM
        72 000537   000001 035007                    ADLA    1,DL
        72 000540   200004 755100                    STA     NT,,AUTO
        72 000541   000560 710000 72                 TRA     s:1074+1

      527     1067
      528     1068    3       IF LEAST_COST_PREFIX(NT) ~= ADDR(NIL) THEN

   1068 72 000542   200004 720100                    LXL0    NT,,AUTO
        72 000543   000000 236010 46                 LDQ     LEAST_COST_PREFIX,X0
        72 000544   000013 116000 73                 CMPQ    11
PL6.E3A0      #005=CALC_LEAST_COST_PREFIX File=LR_ERRREC.:Z8A6TSI                SAT 08/09/97 09:29 Page:144
        72 000545   000557 600000 72                 TZE     s:1074

      529     1069    4         DO;

      530     1070    4           CALL COLLECT_GARBAGE(LEAST_COST_PREFIX(NT));

   1070 72 000546   000000 630410 46                 EPPR0   LEAST_COST_PREFIX,X0
        72 000547   203344 450500                    STP0    NT_REF+1401,,AUTO
        72 000550   203344 630500                    EPPR0   NT_REF+1401,,AUTO
        72 000551   000022 631400 73                 EPPR1   18
        72 000552   000000 701000 xent               TSX1    COLLECT_GARBAGE
        72 000553   000000 011000                    NOP     0

      531     1071    4           LEAST_COST_PREFIX(NT) = ADDR(NIL);

   1071 72 000554   000013 236000 73                 LDQ     11
        72 000555   200004 720100                    LXL0    NT,,AUTO
        72 000556   000000 756010 46                 STQ     LEAST_COST_PREFIX,X0

      532     1072    4         END;

      533     1073
      534     1074    3     END;

   1074 72 000557   200004 054100                    AOS     NT,,AUTO
        72 000560   200004 236100                    LDQ     NT,,AUTO
        72 000561   000000 116000 13                 CMPQ    LAST_NULL
        72 000562   000542 604400 72                 TMOZ    s:1068

      535     1075
      536     1076    2   END;  /* DO ON TERMINALS */

   1076 72 000563   200003 054100                    AOS     T,,AUTO
        72 000564   200003 236100                    LDQ     T,,AUTO
        72 000565   000000 116000 11                 CMPQ    NR_TERM
        72 000566   000210 604400 72                 TMOZ    s:973

PL6.E3A0      #005=CALC_LEAST_COST_PREFIX File=LR_ERRREC.:Z8A6TSI                SAT 08/09/97 09:29 Page:145
      537     1077
      538     1078        /* COLLECT ALL  REFERENCE LIST SPACE */
      539     1079
      540     1080    2   DO I = 1 TO LAST_NULL;

   1080 72 000567   000001 235007                    LDA     1,DL
        72 000570   200011 755100                    STA     I,,AUTO
        72 000571   000615 710000 72                 TRA     s:1086+1

      541     1081    3     DO WHILE NT_REF(I) ~= ADDR(NIL);

   1081 72 000572   000610 710000 72                 TRA     s:1085

      542     1082    3       TP = NT_REF(I) -> PRODREF.LINK;

   1082 72 000573   200011 720100                    LXL0    I,,AUTO
        72 000574   200553 470510                    LDP0    NT_REF,X0,AUTO
        72 000575   000002 236100                    LDQ     2,,PR0
        72 000576   200006 756100                    STQ     TP,,AUTO

      543     1083    3       CALL COLLECT_GARBAGE(NT_REF(I));

   1083 72 000577   200553 631510                    EPPR1   NT_REF,X0,AUTO
        72 000600   203344 451500                    STP1    NT_REF+1401,,AUTO
        72 000601   203344 630500                    EPPR0   NT_REF+1401,,AUTO
        72 000602   000022 631400 73                 EPPR1   18
        72 000603   000000 701000 xent               TSX1    COLLECT_GARBAGE
        72 000604   000000 011000                    NOP     0

      544     1084    3       NT_REF(I) = TP;

   1084 72 000605   200006 236100                    LDQ     TP,,AUTO
        72 000606   200011 720100                    LXL0    I,,AUTO
        72 000607   200553 756110                    STQ     NT_REF,X0,AUTO

      545     1085    3     END;

PL6.E3A0      #005=CALC_LEAST_COST_PREFIX File=LR_ERRREC.:Z8A6TSI                SAT 08/09/97 09:29 Page:146
   1085 72 000610   200011 720100                    LXL0    I,,AUTO
        72 000611   200553 236110                    LDQ     NT_REF,X0,AUTO
        72 000612   000013 116000 73                 CMPQ    11
        72 000613   000573 601000 72                 TNZ     s:1082

      546     1086    2   END;

   1086 72 000614   200011 054100                    AOS     I,,AUTO
        72 000615   200011 236100                    LDQ     I,,AUTO
        72 000616   000000 116000 13                 CMPQ    LAST_NULL
        72 000617   000572 604400 72                 TMOZ    s:1081

      547     1087
      548     1088
      549     1089    1   END CALC_LEAST_COST_PREFIX;

   1089 72 000620   000000 702200 xent               TSX2  ! X66_ARET
      550     1090        %EOD;

PL6.E3A0      #005=CALC_LEAST_COST_PREFIX File=LR_ERRREC.:Z8A6TSI                SAT 08/09/97 09:29 Page:147
--  Include file information  --

   LR_ERR_EXT.:Z8A6TOU  cannot be made into a system file and is referenced.
   LR_CNFG_EXT.:Z8A6TOU  cannot be made into a system file and is referenced.
   LR_IO_EXT.:Z8A6TOU  cannot be made into a system file and is referenced.
   LR_GRAM_EXT.:Z8A6TOU  cannot be made into a system file and is referenced.
      No diagnostics issued in procedure CALC_LEAST_COST_PREFIX.
PL6.E3A0      #005=CALC_LEAST_COST_PREFIX File=LR_ERRREC.:Z8A6TSI                SAT 08/09/97 09:29 Page:148

 **** Variables and constants ****

  ****  Section 000 LblCom OUT_DCBN

  ****  Scalars and arrays  ****
OctLoc.c.b A Datatyp(siz) R M Lvl/name                 OctLoc.c.b A Datatyp(siz) R M Lvl/name

     0-0-0/w SBIN        r     1 OUT_DCBN

  ****  Section 006 LblCom SYM_PTRS

  ****  Scalars and arrays  ****
OctLoc.c.b A Datatyp(siz) R M Lvl/name                 OctLoc.c.b A Datatyp(siz) R M Lvl/name

     0-0-0/w PTR         r     1 SYM_PTRS(0:1400)

  ****  Section 007 LblCom RIGHT_PARTS

  ****  Scalars and arrays  ****
OctLoc.c.b A Datatyp(siz) R M Lvl/name                 OctLoc.c.b A Datatyp(siz) R M Lvl/name

     0-0-0/h SBIN(18)    r     1 RIGHT_PARTS(0:8000)

  ****  Section 008 LblCom PROD

  ****  Scalars and arrays  ****
OctLoc.c.b A Datatyp(siz) R M Lvl/name                 OctLoc.c.b A Datatyp(siz) R M Lvl/name

     0-0-0/h STRC(72)    r     1 PROD(0:1500)

  ****  Section 009 LblCom NR_PROD

  ****  Scalars and arrays  ****
OctLoc.c.b A Datatyp(siz) R M Lvl/name                 OctLoc.c.b A Datatyp(siz) R M Lvl/name

     0-0-0/w SBIN        r     1 NR_PROD

PL6.E3A0      #005=CALC_LEAST_COST_PREFIX File=LR_ERRREC.:Z8A6TSI                SAT 08/09/97 09:29 Page:149
  ****  Section 010 LblCom NR_SYMS

  ****  Scalars and arrays  ****
OctLoc.c.b A Datatyp(siz) R M Lvl/name                 OctLoc.c.b A Datatyp(siz) R M Lvl/name

     0-0-0/w SBIN              1 NR_SYMS

  ****  Section 011 LblCom NR_TERM

  ****  Scalars and arrays  ****
OctLoc.c.b A Datatyp(siz) R M Lvl/name                 OctLoc.c.b A Datatyp(siz) R M Lvl/name

     0-0-0/w SBIN        r     1 NR_TERM

  ****  Section 012 LblCom LAST_ACT

  ****  Scalars and arrays  ****
OctLoc.c.b A Datatyp(siz) R M Lvl/name                 OctLoc.c.b A Datatyp(siz) R M Lvl/name

     0-0-0/w SBIN              1 LAST_ACT

  ****  Section 013 LblCom LAST_NULL

  ****  Scalars and arrays  ****
OctLoc.c.b A Datatyp(siz) R M Lvl/name                 OctLoc.c.b A Datatyp(siz) R M Lvl/name

     0-0-0/w SBIN        r     1 LAST_NULL

  ****  Section 014 LblCom NR_ONRIGHT

  ****  Scalars and arrays  ****
OctLoc.c.b A Datatyp(siz) R M Lvl/name                 OctLoc.c.b A Datatyp(siz) R M Lvl/name

     0-0-0/w SBIN              1 NR_ONRIGHT

  ****  Section 015 LblCom NR_NT

PL6.E3A0      #005=CALC_LEAST_COST_PREFIX File=LR_ERRREC.:Z8A6TSI                SAT 08/09/97 09:29 Page:150
  ****  Scalars and arrays  ****
OctLoc.c.b A Datatyp(siz) R M Lvl/name                 OctLoc.c.b A Datatyp(siz) R M Lvl/name

     0-0-0/w SBIN              1 NR_NT

  ****  Section 016 LblCom PROD_LEN_MAX_EVER

  ****  Scalars and arrays  ****
OctLoc.c.b A Datatyp(siz) R M Lvl/name                 OctLoc.c.b A Datatyp(siz) R M Lvl/name

     0-0-0/w SBIN              1 PROD_LEN_MAX_EVER

  ****  Section 017 LblCom LAST_ORDER_SPECIFIED

  ****  Scalars and arrays  ****
OctLoc.c.b A Datatyp(siz) R M Lvl/name                 OctLoc.c.b A Datatyp(siz) R M Lvl/name

     0-0-0/w SBIN              1 LAST_ORDER_SPECIFIED

  ****  Section 018 LblCom SEMANTIC_ORDERING

  ****  Scalars and arrays  ****
OctLoc.c.b A Datatyp(siz) R M Lvl/name                 OctLoc.c.b A Datatyp(siz) R M Lvl/name

     0-0-0/b BIT               1 SEMANTIC_ORDERING

  ****  Section 019 LblCom ERR_SEV

  ****  Scalars and arrays  ****
OctLoc.c.b A Datatyp(siz) R M Lvl/name                 OctLoc.c.b A Datatyp(siz) R M Lvl/name

     0-0-0/w SBIN              1 ERR_SEV

  ****  Section 020 LblCom SET_LENGTHB

  ****  Scalars and arrays  ****
OctLoc.c.b A Datatyp(siz) R M Lvl/name                 OctLoc.c.b A Datatyp(siz) R M Lvl/name
PL6.E3A0      #005=CALC_LEAST_COST_PREFIX File=LR_ERRREC.:Z8A6TSI                SAT 08/09/97 09:29 Page:151

     0-0-0/w SBIN              1 SET_LENGTHB

  ****  Section 021 LblCom SET_LENGTHW

  ****  Scalars and arrays  ****
OctLoc.c.b A Datatyp(siz) R M Lvl/name                 OctLoc.c.b A Datatyp(siz) R M Lvl/name

     0-0-0/w SBIN              1 SET_LENGTHW

  ****  Section 022 LblCom EOF_SYMBOL_PTR

  ****  Scalars and arrays  ****
OctLoc.c.b A Datatyp(siz) R M Lvl/name                 OctLoc.c.b A Datatyp(siz) R M Lvl/name

     0-0-0/w PTR               1 EOF_SYMBOL_PTR

  ****  Section 023 LblCom ERROR_SYMBOL_PTR

  ****  Scalars and arrays  ****
OctLoc.c.b A Datatyp(siz) R M Lvl/name                 OctLoc.c.b A Datatyp(siz) R M Lvl/name

     0-0-0/w PTR               1 ERROR_SYMBOL_PTR

  ****  Section 024 LblCom BOF_SYMBOL_PTR

  ****  Scalars and arrays  ****
OctLoc.c.b A Datatyp(siz) R M Lvl/name                 OctLoc.c.b A Datatyp(siz) R M Lvl/name

     0-0-0/w PTR               1 BOF_SYMBOL_PTR

  ****  Section 025 LblCom OPTIONS

  ****  Scalars and arrays  ****
OctLoc.c.b A Datatyp(siz) R M Lvl/name                 OctLoc.c.b A Datatyp(siz) R M Lvl/name

     0-0-0/b BIT         r     1 OPTIONS(0:25)
PL6.E3A0      #005=CALC_LEAST_COST_PREFIX File=LR_ERRREC.:Z8A6TSI                SAT 08/09/97 09:29 Page:152

  ****  Section 026 LblCom OPTIONS_TEXT

  ****  Scalars and arrays  ****
OctLoc.c.b A Datatyp(siz) R M Lvl/name                 OctLoc.c.b A Datatyp(siz) R M Lvl/name

     0-0-0/c CHAR(4)           1 OPTIONS_TEXT(0:25)

  ****  Section 027 LblCom INSTR

  ****  Scalars and arrays  ****
OctLoc.c.b A Datatyp(siz) R M Lvl/name                 OctLoc.c.b A Datatyp(siz) R M Lvl/name

     0-0-0/c CHAR              1 INSTR(0:511)               0-0-0/c CHAR(512)         1 INSTRCHR

  ****  Section 028 LblCom INSTR_LISTED

  ****  Scalars and arrays  ****
OctLoc.c.b A Datatyp(siz) R M Lvl/name                 OctLoc.c.b A Datatyp(siz) R M Lvl/name

     0-0-0/b BIT               1 INSTR_LISTED

  ****  Section 029 LblCom INSTR_LEN

  ****  Scalars and arrays  ****
OctLoc.c.b A Datatyp(siz) R M Lvl/name                 OctLoc.c.b A Datatyp(siz) R M Lvl/name

     0-0-0/w SBIN              1 INSTR_LEN

  ****  Section 030 LblCom INSTR_INDX

  ****  Scalars and arrays  ****
OctLoc.c.b A Datatyp(siz) R M Lvl/name                 OctLoc.c.b A Datatyp(siz) R M Lvl/name

     0-0-0/w SBIN              1 INSTR_INDX

  ****  Section 031 LblCom EOF_FLAG
PL6.E3A0      #005=CALC_LEAST_COST_PREFIX File=LR_ERRREC.:Z8A6TSI                SAT 08/09/97 09:29 Page:153

  ****  Scalars and arrays  ****
OctLoc.c.b A Datatyp(siz) R M Lvl/name                 OctLoc.c.b A Datatyp(siz) R M Lvl/name

     0-0-0/b BIT               1 EOF_FLAG

  ****  Section 032 LblCom KEY_REC

  ****  Scalars and arrays  ****
OctLoc.c.b A Datatyp(siz) R M Lvl/name                 OctLoc.c.b A Datatyp(siz) R M Lvl/name

     0-0-0/c CHAR(10)          1 KEY_REC

  ****  Section 033 LblCom LINE

  ****  Scalars and arrays  ****
OctLoc.c.b A Datatyp(siz) R M Lvl/name                 OctLoc.c.b A Datatyp(siz) R M Lvl/name

     0-0-0/c CHAR(109)         1 LINE

  ****  Section 034 LblCom LINELEN

  ****  Scalars and arrays  ****
OctLoc.c.b A Datatyp(siz) R M Lvl/name                 OctLoc.c.b A Datatyp(siz) R M Lvl/name

     0-0-0/w SBIN              1 LINELEN

  ****  Section 035 LblCom TSTATS

  ****  Scalars and arrays  ****
OctLoc.c.b A Datatyp(siz) R M Lvl/name                 OctLoc.c.b A Datatyp(siz) R M Lvl/name

     0-0-0/w STRC(7380)        1 TSTATS

  ****  Section 036 LblCom C#_TO_$

  ****  Scalars and arrays  ****
PL6.E3A0      #005=CALC_LEAST_COST_PREFIX File=LR_ERRREC.:Z8A6TSI                SAT 08/09/97 09:29 Page:154
OctLoc.c.b A Datatyp(siz) R M Lvl/name                 OctLoc.c.b A Datatyp(siz) R M Lvl/name

     0-0-0/w PTR               1 C#_TO_$(0:2200)

  ****  Section 037 LblCom NR_CONFIG

  ****  Scalars and arrays  ****
OctLoc.c.b A Datatyp(siz) R M Lvl/name                 OctLoc.c.b A Datatyp(siz) R M Lvl/name

     0-0-0/w SBIN              1 NR_CONFIG

  ****  Section 038 LblCom INIT_CONFIG

  ****  Scalars and arrays  ****
OctLoc.c.b A Datatyp(siz) R M Lvl/name                 OctLoc.c.b A Datatyp(siz) R M Lvl/name

     0-0-0/w SBIN              1 INIT_CONFIG

  ****  Section 039 LblCom MAX_BASIS_ITEMS

  ****  Scalars and arrays  ****
OctLoc.c.b A Datatyp(siz) R M Lvl/name                 OctLoc.c.b A Datatyp(siz) R M Lvl/name

     0-0-0/w SBIN              1 MAX_BASIS_ITEMS

  ****  Section 040 LblCom MAX_TOTAL_ITEMS

  ****  Scalars and arrays  ****
OctLoc.c.b A Datatyp(siz) R M Lvl/name                 OctLoc.c.b A Datatyp(siz) R M Lvl/name

     0-0-0/w SBIN              1 MAX_TOTAL_ITEMS

  ****  Section 041 LblCom LAST_BINSRCH_ONLY

  ****  Scalars and arrays  ****
OctLoc.c.b A Datatyp(siz) R M Lvl/name                 OctLoc.c.b A Datatyp(siz) R M Lvl/name

PL6.E3A0      #005=CALC_LEAST_COST_PREFIX File=LR_ERRREC.:Z8A6TSI                SAT 08/09/97 09:29 Page:155
     0-0-0/w SBIN              1 LAST_BINSRCH_ONLY

  ****  Section 042 LblCom LAST_BOTH_BITBIN

  ****  Scalars and arrays  ****
OctLoc.c.b A Datatyp(siz) R M Lvl/name                 OctLoc.c.b A Datatyp(siz) R M Lvl/name

     0-0-0/w SBIN              1 LAST_BOTH_BITBIN

  ****  Section 043 LblCom GARBAGE

  ****  Scalars and arrays  ****
OctLoc.c.b A Datatyp(siz) R M Lvl/name                 OctLoc.c.b A Datatyp(siz) R M Lvl/name

     0-0-0/w PTR               1 GARBAGE(0:100)

  ****  Section 044 LblCom AMT_GARBAGE

  ****  Scalars and arrays  ****
OctLoc.c.b A Datatyp(siz) R M Lvl/name                 OctLoc.c.b A Datatyp(siz) R M Lvl/name

     0-0-0/w SBIN              1 AMT_GARBAGE

  ****  Section 045 LblCom LEAST_COST_STRING

  ****  Scalars and arrays  ****
OctLoc.c.b A Datatyp(siz) R M Lvl/name                 OctLoc.c.b A Datatyp(siz) R M Lvl/name

     0-0-0/w PTR               1 LEAST_COST_STRING(0:1400)

  ****  Section 046 LblCom LEAST_COST_PREFIX

  ****  Scalars and arrays  ****
OctLoc.c.b A Datatyp(siz) R M Lvl/name                 OctLoc.c.b A Datatyp(siz) R M Lvl/name

     0-0-0/w PTR         r     1 LEAST_COST_PREFIX(0:1400)

PL6.E3A0      #005=CALC_LEAST_COST_PREFIX File=LR_ERRREC.:Z8A6TSI                SAT 08/09/97 09:29 Page:156
  ****  Section 047 LblCom CURRE

  ****  Scalars and arrays  ****
OctLoc.c.b A Datatyp(siz) R M Lvl/name                 OctLoc.c.b A Datatyp(siz) R M Lvl/name

     0-0-0/d STRC(126)   r     1 CURRE(0:1400)

  ****  Section 048 LblCom LCP_INDX

  ****  Scalars and arrays  ****
OctLoc.c.b A Datatyp(siz) R M Lvl/name                 OctLoc.c.b A Datatyp(siz) R M Lvl/name

     0-0-0/h SBIN(18)          1 LCP_INDX(0:1400)

  ****  Section 049 LblCom COM_STRSP_LEN

  ****  Scalars and arrays  ****
OctLoc.c.b A Datatyp(siz) R M Lvl/name                 OctLoc.c.b A Datatyp(siz) R M Lvl/name

     0-0-0/w SBIN        r     1 COM_STRSP_LEN

  ****  Section 050 LblCom COM_SEARCH_STRING

  ****  Scalars and arrays  ****
OctLoc.c.b A Datatyp(siz) R M Lvl/name                 OctLoc.c.b A Datatyp(siz) R M Lvl/name

     0-0-0/w PTR         r     1 COM_SEARCH_STRING

  ****  Section 051 LblCom COM_SEARCH_STRING_LEN

  ****  Scalars and arrays  ****
OctLoc.c.b A Datatyp(siz) R M Lvl/name                 OctLoc.c.b A Datatyp(siz) R M Lvl/name

     0-0-0/w SBIN        r     1 COM_SEARCH_STRING_LEN

  ****  Section 052 LblCom COM_STRING_SPACE_LEN

PL6.E3A0      #005=CALC_LEAST_COST_PREFIX File=LR_ERRREC.:Z8A6TSI                SAT 08/09/97 09:29 Page:157
  ****  Scalars and arrays  ****
OctLoc.c.b A Datatyp(siz) R M Lvl/name                 OctLoc.c.b A Datatyp(siz) R M Lvl/name

     0-0-0/w SBIN        r     1 COM_STRING_SPACE_LEN

  ****  Section 053 LblCom COM_STRING_SPACE_H

  ****  Scalars and arrays  ****
OctLoc.c.b A Datatyp(siz) R M Lvl/name                 OctLoc.c.b A Datatyp(siz) R M Lvl/name

     0-0-0/h SBIN(18)    r     1 COM_STRING_SPACE_H(0:24999)

  ****  Section 054 LblCom COM_STRING_SPACE$

  ****  Scalars and arrays  ****
OctLoc.c.b A Datatyp(siz) R M Lvl/name                 OctLoc.c.b A Datatyp(siz) R M Lvl/name

     0-0-0/w PTR         r     1 COM_STRING_SPACE$

  ****  Section 055 LblCom COM_STRING_PTR

  ****  Scalars and arrays  ****
OctLoc.c.b A Datatyp(siz) R M Lvl/name                 OctLoc.c.b A Datatyp(siz) R M Lvl/name

     0-0-0/w PTR         r     1 COM_STRING_PTR

  ****  Section 056 LblCom COM_STRING_INDX

  ****  Scalars and arrays  ****
OctLoc.c.b A Datatyp(siz) R M Lvl/name                 OctLoc.c.b A Datatyp(siz) R M Lvl/name

     0-0-0/w SBIN              1 COM_STRING_INDX

  ****  Section 057 LblCom LCP_TABLE_LEN

  ****  Scalars and arrays  ****
OctLoc.c.b A Datatyp(siz) R M Lvl/name                 OctLoc.c.b A Datatyp(siz) R M Lvl/name
PL6.E3A0      #005=CALC_LEAST_COST_PREFIX File=LR_ERRREC.:Z8A6TSI                SAT 08/09/97 09:29 Page:158

     0-0-0/w SBIN              1 LCP_TABLE_LEN

  ****  Section 058 LblCom STATE_ITEM_INDEX

  ****  Scalars and arrays  ****
OctLoc.c.b A Datatyp(siz) R M Lvl/name                 OctLoc.c.b A Datatyp(siz) R M Lvl/name

     0-0-0/h STRC              1 STATE_ITEM_INDEX(0:2200)

  ****  Section 059 LblCom PATH

  ****  Scalars and arrays  ****
OctLoc.c.b A Datatyp(siz) R M Lvl/name                 OctLoc.c.b A Datatyp(siz) R M Lvl/name

     0-0-0/h STRC        r     1 PATH(0:17600)

  ****  Section 060 LblCom PATH_STRINGS_LEN

  ****  Scalars and arrays  ****
OctLoc.c.b A Datatyp(siz) R M Lvl/name                 OctLoc.c.b A Datatyp(siz) R M Lvl/name

     0-0-0/w SBIN        r     1 PATH_STRINGS_LEN

  ****  Section 061 LblCom PATH_ADDR$

  ****  Scalars and arrays  ****
OctLoc.c.b A Datatyp(siz) R M Lvl/name                 OctLoc.c.b A Datatyp(siz) R M Lvl/name

     0-0-0/w PTR         r     1 PATH_ADDR$

  ****  Section 062 LblCom PATH_TABLE_LEN

  ****  Scalars and arrays  ****
OctLoc.c.b A Datatyp(siz) R M Lvl/name                 OctLoc.c.b A Datatyp(siz) R M Lvl/name

     0-0-0/w SBIN              1 PATH_TABLE_LEN
PL6.E3A0      #005=CALC_LEAST_COST_PREFIX File=LR_ERRREC.:Z8A6TSI                SAT 08/09/97 09:29 Page:159

  ****  Section 063 LblCom EDGECOST

  ****  Scalars and arrays  ****
OctLoc.c.b A Datatyp(siz) R M Lvl/name                 OctLoc.c.b A Datatyp(siz) R M Lvl/name

     0-0-0/w SBIN              1 EDGECOST(0:400)

  ****  Section 064 LblCom ITEM_TABLE_LEN

  ****  Scalars and arrays  ****
OctLoc.c.b A Datatyp(siz) R M Lvl/name                 OctLoc.c.b A Datatyp(siz) R M Lvl/name

     0-0-0/w SBIN              1 ITEM_TABLE_LEN

  ****  Section 065 LblCom ORDERED_ITEM

  ****  Scalars and arrays  ****
OctLoc.c.b A Datatyp(siz) R M Lvl/name                 OctLoc.c.b A Datatyp(siz) R M Lvl/name

     0-0-0/h STRC              1 ORDERED_ITEM(0:400)

  ****  Section 066 LblCom NEIGHBOR

  ****  Scalars and arrays  ****
OctLoc.c.b A Datatyp(siz) R M Lvl/name                 OctLoc.c.b A Datatyp(siz) R M Lvl/name

     0-0-0/w SBIN              1 NEIGHBOR(0:400)

  ****  Section 067 LblCom PATH_INFO

  ****  Scalars and arrays  ****
OctLoc.c.b A Datatyp(siz) R M Lvl/name                 OctLoc.c.b A Datatyp(siz) R M Lvl/name

     0-0-0/w STRC(28872)       1 PATH_INFO

  ****  Section 068 LblCom CHOSEN
PL6.E3A0      #005=CALC_LEAST_COST_PREFIX File=LR_ERRREC.:Z8A6TSI                SAT 08/09/97 09:29 Page:160

  ****  Scalars and arrays  ****
OctLoc.c.b A Datatyp(siz) R M Lvl/name                 OctLoc.c.b A Datatyp(siz) R M Lvl/name

     0-0-0/w BIT               1 CHOSEN(0:400)

  ****  Section 069 LblCom REACHED

  ****  Scalars and arrays  ****
OctLoc.c.b A Datatyp(siz) R M Lvl/name                 OctLoc.c.b A Datatyp(siz) R M Lvl/name

     0-0-0/b BIT               1 REACHED(0:400)

  ****  Section 070 LblCom EXP_PATH_INDX

  ****  Scalars and arrays  ****
OctLoc.c.b A Datatyp(siz) R M Lvl/name                 OctLoc.c.b A Datatyp(siz) R M Lvl/name

     0-0-0/w SBIN              1 EXP_PATH_INDX

  ****  Auto variables  ****

  ****  Scalars and arrays  ****
OctLoc.c.b A Datatyp(siz) R M Lvl/name                 OctLoc.c.b A Datatyp(siz) R M Lvl/name

    11-0-0/w SBIN        r     1 I                         10-0-0/w SBIN        r     1 MINC
     4-0-0/w SBIN        r     1 NT                        14-0-0/c CHAR(1401)  r     1 NT_CHANGED
   553-0-0/w PTR         r     1 NT_REF(0:1400)             5-0-0/w SBIN        r     1 PN
    12-0-0/w SBIN        r     1 R                         13-0-0/w SBIN        r     1 S
     3-0-0/w SBIN        r     1 T                          7-0-0/w SBIN        r     1 TEMPCOST
     6-0-0/w PTR         r     1 TP

  ****  BASED and DCB variables  ****

  ****  Scalars and arrays  ****
OctLoc.c.b A Datatyp(siz) R M Lvl/name                 OctLoc.c.b A Datatyp(siz) R M Lvl/name

PL6.E3A0      #005=CALC_LEAST_COST_PREFIX File=LR_ERRREC.:Z8A6TSI                SAT 08/09/97 09:29 Page:161
     0-0-0/w STRC(72)          1 CELL                       0-0-0/c ACHR              1 COM_STRINGS
     0-0-0/c ACHR              1 COM_STRING_SPACE           0-0-0/c ACHR              1 CSEARCH_STRING
     0-0-0/w STRC(57888)       1 C_SET_B                    0-0-0/w STRC(72)          1 INCLUDES_B
     0-0-0/w STRC(144)         1 INCL_B                     0-0-0/w STRC(5436)        1 ITEM_B
     0-0-0/w STRC(5652)        1 KEY_B                      0-0-0N  NULL        r     1 M$LO
     0-0-0N  NULL        r     1 M$OU                       0-0-0N  NULL        r     1 M$SI
     0-0-0N  NULL        r     1 M$SO                       0-0-0N  NULL        r     1 M$UI
     0-0-0/c ACHR              1 PATH_STRINGS               0-0-0/w STRC(90)    r     1 PREFIX
     0-0-0/w ASTR(72)    r     1 PREFIXCHR                  0-0-0/w STRC(108)   r     1 PRODREF
     0-0-0/w STRC              1 STRING                     0-0-0/w ASTR(18)    r     1 STRINGCHR
     0-0-0/w STRC(351)   r     1 SYMBOL


   Procedure CALC_LEAST_COST_PREFIX requires 401 words for executable code.
   Procedure CALC_LEAST_COST_PREFIX requires 1766 words of local(AUTO) storage.

PL6.E3A0      #006=PRINT_PREFIXES_FOR_TERMINAL File=LR_ERRREC.:Z8A6TSI           SAT 08/09/97 09:30 Page:162
      551        1        /*T***********************************************************/
      552        2        /*T*                                                         */
      553        3        /*T* Copyright (c) Bull HN Information Systems Inc., 1997    */
      554        4        /*T*                                                         */
      555        5        /*T***********************************************************/
      556        6        PRINT_PREFIXES_FOR_TERMINAL : PROC (T);
      557        7
      558        8        /*D*
      559        9               NAME: PRINT_PREFIXES_FOR_TERMINAL
      560       10            PURPOSE:
      561       11
      562       12           Print all least cost prefixes for a particular
      563       13           terminal
      564       14        */
      565       15
      566       16    1   DCL T SBIN WORD;
      567       17
      568       18        %INCLUDE LR_GRAM_EXT;
      569      557        %INCLUDE LR_CNFG_EXT;
      570      710        %INCLUDE LR_ERR_EXT;
      571      853
      572      854    1   DCL OUT_TOKEN ENTRY(2);
      573      855    1   DCL OUT_SYMBOL ENTRY(1);
      574      856    1   DCL OUT_SYMBOL_TOKEN ENTRY(1);
      575      857    1   DCL NT SBIN WORD;
      576      858
      577      859
      578      860        %EJECT;
PL6.E3A0      #006=PRINT_PREFIXES_FOR_TERMINAL File=LR_ERRREC.:Z8A6TSI           SAT 08/09/97 09:30 Page:163
      579      861    1   PRINT_PREFIX_STRING : PROC (SP);  /* OF PRINT_PREFIXES_FOR_TERMINAL */
      580      862
      581      863    2   DCL SP PTR;
      582      864
      583      865    2   DCL I    SBIN WORD;
      584      866    2   DCL J    SBIN WORD;
      585      867    2   DCL LCSI SBIN WORD;
      586      868
      587      869
      588      870    3   DO I = 0 TO SP->PREFIX.LEN_IN_H - 4;
      589      871
      590      872    3     LCSI = SP->PREFIX.TOK(I);
      591      873
      592      874    4     DO J = 0 TO LEAST_COST_STRING(LCSI)-> STRING.LEN_IN_H - 1;
      593      875
      594      876    4       CALL OUT_SYMBOL_TOKEN(SYM_PTRS(LEAST_COST_STRING(LCSI) ->STRING.TOK(J)));
      595      877
      596      878    4     END;
      597      879    3   END;
      598      880
      599      881    2   CALL FLUSH;
      600      882
      601      883    2   END PRINT_PREFIX_STRING;
      602      884
      603      885        %EJECT;
PL6.E3A0      #006=PRINT_PREFIXES_FOR_TERMINAL File=LR_ERRREC.:Z8A6TSI           SAT 08/09/97 09:30 Page:164
      604      886         /* Start of Print_prefixes_for_terminal */
      605      887
      606      888        %SELECT_LO;
      607      891
      608      892        %OUTLINE(S="' '");
      609      898
      610      899        %OUT_STR(S="'Least cost prefixes for terminal '");
      611      902    1   CALL OUT_SYMBOL (SYM_PTRS(T));
      612      903    1   CALL FLUSH;
      613      904
      614      905        %OUTLINE(S="' '");
      615      911
      616      912    2   DO NT = NR_TERM + 1 TO LAST_NULL;
      617      913
      618      914    2     IF LEAST_COST_PREFIX(NT) ~= ADDR(NIL) THEN
      619      915    3       DO;
      620      916    3         CALL OUT_SYMBOL_TOKEN(SYM_PTRS(NT));
      621      917    3         IF LINELEN < 15 THEN
      622      918    3           CALL OUT_STR('               ',15-LINELEN);
      623      919              %OUT_STR(S="'-->'");
      624      922    3         CALL PRINT_PREFIX_STRING(LEAST_COST_PREFIX(NT));
      625      923    3       END;
      626      924
      627      925    2   END;
      628      926
      629      927    1   END PRINT_PREFIXES_FOR_TERMINAL;
      630      928        %EOD;

PL6.E3A0      #006=PRINT_PREFIXES_FOR_TERMINAL File=LR_ERRREC.:Z8A6TSI           SAT 08/09/97 09:30 Page:165
--  Include file information  --

   LR_ERR_EXT.:Z8A6TOU  cannot be made into a system file and is referenced.
   LR_CNFG_EXT.:Z8A6TOU  cannot be made into a system file and is referenced.
   LR_IO_EXT.:Z8A6TOU  cannot be made into a system file and is referenced.
   LR_GRAM_EXT.:Z8A6TOU  cannot be made into a system file and is referenced.
      No diagnostics issued in procedure PRINT_PREFIXES_FOR_TERMINAL.

   Procedure PRINT_PREFIXES_FOR_TERMINAL requires 126 words for executable code.
   Procedure PRINT_PREFIXES_FOR_TERMINAL requires 16 words of local(AUTO) storage.

PL6.E3A0      #006=PRINT_PREFIXES_FOR_TERMINAL File=LR_ERRREC.:Z8A6TSI           SAT 08/09/97 09:30 Page:166

 Object Unit name= PRINT_PREFIXES_FOR_TERMINAL                File name= LR_ERRREC.:Z8A6TOU
 UTS= AUG 09 '97 09:30:21.96 SAT                              Compiler= PL-6/E31         Sev=      00
 SharedLib= :SHARED_SYSTEM                                    Alt SharedLib=


    ****  Control sections  ****

 Sect   Type Bound  Init  Size OctSiz  Section name(segment info)
    0  LblCom even  none     1      1  OUT_DCBN
    1   DCB   even  none     0      0  M$OU
    2   DCB   even  none     0      0  M$SO
    3   DCB   even  none     0      0  M$LO
    4   DCB   even  none     0      0  M$SI
    5   DCB   even  none     0      0  M$UI
    6  LblCom even  none  1401   2571  SYM_PTRS
    7  LblCom even  none  4001   7641  RIGHT_PARTS
    8  LblCom even  none  3002   5672  PROD
    9  LblCom even  none     1      1  NR_PROD
   10  LblCom even  none     1      1  NR_SYMS
   11  LblCom even  none     1      1  NR_TERM
   12  LblCom even  none     1      1  LAST_ACT
   13  LblCom even  none     1      1  LAST_NULL
   14  LblCom even  none     1      1  NR_ONRIGHT
   15  LblCom even  none     1      1  NR_NT
   16  LblCom even  none     1      1  PROD_LEN_MAX_EVER
   17  LblCom even  none     1      1  LAST_ORDER_SPECIFIED
   18  LblCom even  none     1      1  SEMANTIC_ORDERING
   19  LblCom even  none     1      1  ERR_SEV
   20  LblCom even  none     1      1  SET_LENGTHB
   21  LblCom even  none     1      1  SET_LENGTHW
   22  LblCom even  none     1      1  EOF_SYMBOL_PTR
   23  LblCom even  none     1      1  ERROR_SYMBOL_PTR
   24  LblCom even  none     1      1  BOF_SYMBOL_PTR
   25  LblCom even  none     1      1  OPTIONS
   26  LblCom even  none    26     32  OPTIONS_TEXT
   27  LblCom even  none   128    200  INSTR
   28  LblCom even  none     1      1  INSTR_LISTED
PL6.E3A0      #006=PRINT_PREFIXES_FOR_TERMINAL File=LR_ERRREC.:Z8A6TSI           SAT 08/09/97 09:30 Page:167
   29  LblCom even  none     1      1  INSTR_LEN
   30  LblCom even  none     1      1  INSTR_INDX
   31  LblCom even  none     1      1  EOF_FLAG
   32  LblCom even  none     3      3  KEY_REC
   33  LblCom even  none    28     34  LINE
   34  LblCom even  none     1      1  LINELEN
   35  LblCom even  none   205    315  TSTATS
   36  LblCom even  none  2201   4231  C#_TO_$
   37  LblCom even  none     1      1  NR_CONFIG
   38  LblCom even  none     1      1  INIT_CONFIG
   39  LblCom even  none     1      1  MAX_BASIS_ITEMS
   40  LblCom even  none     1      1  MAX_TOTAL_ITEMS
   41  LblCom even  none     1      1  LAST_BINSRCH_ONLY
   42  LblCom even  none     1      1  LAST_BOTH_BITBIN
   43  LblCom even  none   101    145  GARBAGE
   44  LblCom even  none     1      1  AMT_GARBAGE
   45  LblCom even  none  1401   2571  LEAST_COST_STRING
   46  LblCom even  none  1401   2571  LEAST_COST_PREFIX
   47  LblCom even  none  5604  12744  CURRE
   48  LblCom even  none   701   1275  LCP_INDX
   49  LblCom even  none     1      1  COM_STRSP_LEN
   50  LblCom even  none     1      1  COM_SEARCH_STRING
   51  LblCom even  none     1      1  COM_SEARCH_STRING_LEN
   52  LblCom even  none     1      1  COM_STRING_SPACE_LEN
   53  LblCom even  none 12500  30324  COM_STRING_SPACE_H
   54  LblCom even  none     1      1  COM_STRING_SPACE$
   55  LblCom even  none     1      1  COM_STRING_PTR
   56  LblCom even  none     1      1  COM_STRING_INDX
   57  LblCom even  none     1      1  LCP_TABLE_LEN
   58  LblCom even  none  2201   4231  STATE_ITEM_INDEX
   59  LblCom even  none 17601  42301  PATH
   60  LblCom even  none     1      1  PATH_STRINGS_LEN
   61  LblCom even  none     1      1  PATH_ADDR$
   62  LblCom even  none     1      1  PATH_TABLE_LEN
   63  LblCom even  none   401    621  EDGECOST
   64  LblCom even  none     1      1  ITEM_TABLE_LEN
   65  LblCom even  none   401    621  ORDERED_ITEM
PL6.E3A0      #006=PRINT_PREFIXES_FOR_TERMINAL File=LR_ERRREC.:Z8A6TSI           SAT 08/09/97 09:30 Page:168
   66  LblCom even  none   401    621  NEIGHBOR
   67  LblCom even  none   802   1442  PATH_INFO
   68  LblCom even  none   401    621  CHOSEN
   69  LblCom even  none    12     14  REACHED
   70  LblCom even  none     1      1  EXP_PATH_INDX
   71  RoData even  UTS     14     16  PRINT_PREFIXES_FOR_TERMINAL
   72   Proc  even  none   126    176  PRINT_PREFIXES_FOR_TERMINAL
   73  RoData even  none    16     20  PRINT_PREFIXES_FOR_TERMINAL

    ****  Entry defs  ****

                              Check   Calling
                             calling  sequence
  Sect OctLoc Primary Altret sequence   type   Parms  Name
    72      0   yes            yes      Std        1  PRINT_PREFIXES_FOR_TERMINAL

  ****  Entry refs  ****

         Check        Calling
        calling       sequence
Altret sequence SRef   type   Args  Name
         yes           Std       2 OUT_STR
         yes           Std       0 FLUSH
         yes           Std       1 OUT_SYMBOL
         yes           Std       1 OUT_SYMBOL_TOKEN
                       nStd      0 X66_AUTO_1
                       nStd      0 X66_ARET

  ****  Data refs  ****

  Flags:  r = read only, s = secondary
Flgs Name                             Flgs Name                             Flgs Name
     M$OU                                  M$SO                                  M$LO
     M$SI                                  M$UI
PL6.E3A0      #006=PRINT_PREFIXES_FOR_TERMINAL File=LR_ERRREC.:Z8A6TSI           SAT 08/09/97 09:30 Page:169

  ****  Segment refs  ****

  Flags:  r = read only, s = secondary
Flgs Name                             Flgs Name                             Flgs Name
     NULLSID                               ISSID
PL6.E3A0      #006=PRINT_PREFIXES_FOR_TERMINAL File=LR_ERRREC.:Z8A6TSI           SAT 08/09/97 09:30 Page:170


      551        1        /*T***********************************************************/
      552        2        /*T*                                                         */
      553        3        /*T* Copyright (c) Bull HN Information Systems Inc., 1997    */
      554        4        /*T*                                                         */
      555        5        /*T***********************************************************/
      556        6        PRINT_PREFIXES_FOR_TERMINAL : PROC (T);

      6 72 000000   000000 700200 xent  PRINT_PREFI* TSX0  ! X66_AUTO_1
        72 000001   000020 000001                    ZERO    16,1
        72 000002   000065 710000 72                 TRA     s:889

      557        7
      558        8        /*D*
      559        9               NAME: PRINT_PREFIXES_FOR_TERMINAL
      560       10            PURPOSE:
      561       11
      562       12           Print all least cost prefixes for a particular
      563       13           terminal
      564       14        */
      565       15
      566       16    1   DCL T SBIN WORD;
      567       17
      568       18        %INCLUDE LR_GRAM_EXT;
      569      557        %INCLUDE LR_CNFG_EXT;
      570      710        %INCLUDE LR_ERR_EXT;
      571      853
      572      854    1   DCL OUT_TOKEN ENTRY(2);
      573      855    1   DCL OUT_SYMBOL ENTRY(1);
      574      856    1   DCL OUT_SYMBOL_TOKEN ENTRY(1);
      575      857    1   DCL NT SBIN WORD;
      576      858
      577      859
      578      860        %EJECT;
PL6.E3A0      #006=PRINT_PREFIXES_FOR_TERMINAL File=LR_ERRREC.:Z8A6TSI           SAT 08/09/97 09:30 Page:171
      579      861    1   PRINT_PREFIX_STRING : PROC (SP);  /* OF PRINT_PREFIXES_FOR_TERMINAL */

    861 72 000003   200006 741300       PRINT_PREFI* STX1  ! NT+2,,AUTO

      580      862
      581      863    2   DCL SP PTR;
      582      864
      583      865    2   DCL I    SBIN WORD;
      584      866    2   DCL J    SBIN WORD;
      585      867    2   DCL LCSI SBIN WORD;
      586      868
      587      869
      588      870    3   DO I = 0 TO SP->PREFIX.LEN_IN_H - 4;

    870 72 000004   200010 450100                    STZ     I,,AUTO
        72 000005   000051 710000 72                 TRA     s:879+1

      589      871
      590      872    3     LCSI = SP->PREFIX.TOK(I);

    872 72 000006   200007 470500                    LDP0    @SP,,AUTO
        72 000007   000000 471500                    LDP1    0,,PR0
        72 000010   200010 235100                    LDA     I,,AUTO
        72 000011   000001 735000                    ALS     1
        72 000012   000100 100505                    MLR     fill='000'O
        72 000013   100002 000002                    ADSC9   2,A,PR1                  cn=0,n=2
        72 000014   200014 000004                    ADSC9   LCSI+2,,AUTO             cn=0,n=4
        72 000015   200014 236100                    LDQ     LCSI+2,,AUTO
        72 000016   000022 732000                    QRS     18
        72 000017   200012 756100                    STQ     LCSI,,AUTO

      591      873
      592      874    4     DO J = 0 TO LEAST_COST_STRING(LCSI)-> STRING.LEN_IN_H - 1;

    874 72 000020   200011 450100                    STZ     J,,AUTO
        72 000021   000042 710000 72                 TRA     s:878+1

PL6.E3A0      #006=PRINT_PREFIXES_FOR_TERMINAL File=LR_ERRREC.:Z8A6TSI           SAT 08/09/97 09:30 Page:172
      593      875
      594      876    4       CALL OUT_SYMBOL_TOKEN(SYM_PTRS(LEAST_COST_STRING(LCSI) ->STRING.TOK(J)));

    876 72 000022   200012 720100                    LXL0    LCSI,,AUTO
        72 000023   000000 470410 45                 LDP0    LEAST_COST_STRING,X0
        72 000024   200011 235100                    LDA     J,,AUTO
        72 000025   000001 735000                    ALS     1
        72 000026   000100 100505                    MLR     fill='000'O
        72 000027   000000 400002                    ADSC9   0,A,PR0                  cn=2,n=2
        72 000030   200014 000004                    ADSC9   LCSI+2,,AUTO             cn=0,n=4
        72 000031   200014 236100                    LDQ     LCSI+2,,AUTO
        72 000032   000022 732000                    QRS     18
        72 000033   000000 631406 6                  EPPR1   SYM_PTRS,QL
        72 000034   200015 451500                    STP1    LCSI+3,,AUTO
        72 000035   200015 630500                    EPPR0   LCSI+3,,AUTO
        72 000036   000000 631400 73                 EPPR1   0
        72 000037   000000 701000 xent               TSX1    OUT_SYMBOL_TOKEN
        72 000040   000000 011000                    NOP     0

      595      877
      596      878    4     END;

    878 72 000041   200011 054100                    AOS     J,,AUTO
        72 000042   200012 720100                    LXL0    LCSI,,AUTO
        72 000043   000000 470410 45                 LDP0    LEAST_COST_STRING,X0
        72 000044   000000 236100                    LDQ     0,,PR0
        72 000045   000022 772000                    QRL     18
        72 000046   200011 116100                    CMPQ    J,,AUTO
        72 000047   000022 605400 72                 TPNZ    s:876

      597      879    3   END;

    879 72 000050   200010 054100                    AOS     I,,AUTO
        72 000051   200007 470500                    LDP0    @SP,,AUTO
        72 000052   000000 471500                    LDP1    0,,PR0
        72 000053   100000 236100                    LDQ     0,,PR1
        72 000054   000022 772000                    QRL     18
PL6.E3A0      #006=PRINT_PREFIXES_FOR_TERMINAL File=LR_ERRREC.:Z8A6TSI           SAT 08/09/97 09:30 Page:173
        72 000055   000004 136007                    SBLQ    4,DL
        72 000056   200010 116100                    CMPQ    I,,AUTO
        72 000057   000006 605000 72                 TPL     s:872

      598      880
      599      881    2   CALL FLUSH;

    881 72 000060   000001 631400 73                 EPPR1   1
        72 000061   000000 701000 xent               TSX1    FLUSH
        72 000062   000000 011000                    NOP     0

      600      882
      601      883    2   END PRINT_PREFIX_STRING;

    883 72 000063   200006 221300                    LDX1  ! NT+2,,AUTO
        72 000064   000001 702211                    TSX2  ! 1,X1

      602      884
      603      885        %EJECT;
PL6.E3A0      #006=PRINT_PREFIXES_FOR_TERMINAL File=LR_ERRREC.:Z8A6TSI           SAT 08/09/97 09:30 Page:174
      604      886         /* Start of Print_prefixes_for_terminal */
      605      887
      606      888        %SELECT_LO;

    889 72 000065   000000 236007 xsym               LDQ     M$LO,DL
        72 000066   000000 756000 0                  STQ     OUT_DCBN

      607      891
      608      892        %OUTLINE(S="' '");

    894 72 000067   000005 630400 73                 EPPR0   5
        72 000070   000002 631400 73                 EPPR1   2
        72 000071   000000 701000 xent               TSX1    OUT_STR
        72 000072   000000 011000                    NOP     0

    895 72 000073   000001 631400 73                 EPPR1   1
        72 000074   000000 701000 xent               TSX1    FLUSH
        72 000075   000000 011000                    NOP     0

      609      898
      610      899        %OUT_STR(S="'Least cost prefixes for terminal '");

    900 72 000076   000010 630400 73                 EPPR0   8
        72 000077   000002 631400 73                 EPPR1   2
        72 000100   000000 701000 xent               TSX1    OUT_STR
        72 000101   000000 011000                    NOP     0

      611      902    1   CALL OUT_SYMBOL (SYM_PTRS(T));

    902 72 000102   200003 470500                    LDP0    @T,,AUTO
        72 000103   000000 720100                    LXL0    0,,PR0
        72 000104   000000 631410 6                  EPPR1   SYM_PTRS,X0
        72 000105   200014 451500                    STP1    LCSI+2,,AUTO
        72 000106   200014 630500                    EPPR0   LCSI+2,,AUTO
        72 000107   000000 631400 73                 EPPR1   0
        72 000110   000000 701000 xent               TSX1    OUT_SYMBOL
        72 000111   000000 011000                    NOP     0
PL6.E3A0      #006=PRINT_PREFIXES_FOR_TERMINAL File=LR_ERRREC.:Z8A6TSI           SAT 08/09/97 09:30 Page:175

      612      903    1   CALL FLUSH;

    903 72 000112   000001 631400 73                 EPPR1   1
        72 000113   000000 701000 xent               TSX1    FLUSH
        72 000114   000000 011000                    NOP     0

      613      904
      614      905        %OUTLINE(S="' '");

    907 72 000115   000005 630400 73                 EPPR0   5
        72 000116   000002 631400 73                 EPPR1   2
        72 000117   000000 701000 xent               TSX1    OUT_STR
        72 000120   000000 011000                    NOP     0

    908 72 000121   000001 631400 73                 EPPR1   1
        72 000122   000000 701000 xent               TSX1    FLUSH
        72 000123   000000 011000                    NOP     0

      615      911
      616      912    2   DO NT = NR_TERM + 1 TO LAST_NULL;

    912 72 000124   000000 235000 11                 LDA     NR_TERM
        72 000125   000001 035007                    ADLA    1,DL
        72 000126   200004 755100                    STA     NT,,AUTO
        72 000127   000172 710000 72                 TRA     s:925+1

      617      913
      618      914    2     IF LEAST_COST_PREFIX(NT) ~= ADDR(NIL) THEN

    914 72 000130   200004 720100                    LXL0    NT,,AUTO
        72 000131   000000 236010 46                 LDQ     LEAST_COST_PREFIX,X0
        72 000132   000012 116000 73                 CMPQ    10
        72 000133   000171 600000 72                 TZE     s:925

      619      915    3       DO;

PL6.E3A0      #006=PRINT_PREFIXES_FOR_TERMINAL File=LR_ERRREC.:Z8A6TSI           SAT 08/09/97 09:30 Page:176
      620      916    3         CALL OUT_SYMBOL_TOKEN(SYM_PTRS(NT));

    916 72 000134   000000 630410 6                  EPPR0   SYM_PTRS,X0
        72 000135   200014 450500                    STP0    LCSI+2,,AUTO
        72 000136   200014 630500                    EPPR0   LCSI+2,,AUTO
        72 000137   000000 631400 73                 EPPR1   0
        72 000140   000000 701000 xent               TSX1    OUT_SYMBOL_TOKEN
        72 000141   000000 011000                    NOP     0

      621      917    3         IF LINELEN < 15 THEN

    917 72 000142   000000 235000 34                 LDA     LINELEN
        72 000143   000017 115007                    CMPA    15,DL
        72 000144   000160 605000 72                 TPL     s:920

      622      918    3           CALL OUT_STR('               ',15-LINELEN);

    918 72 000145   000013 675000 73                 ERA     11
        72 000146   000020 035007                    ADLA    16,DL
        72 000147   200014 755100                    STA     LCSI+2,,AUTO
        72 000150   200014 630500                    EPPR0   LCSI+2,,AUTO
        72 000151   200017 450500                    STP0    LCSI+5,,AUTO
        72 000152   000014 236000 73                 LDQ     12
        72 000153   200016 756100                    STQ     LCSI+4,,AUTO
        72 000154   200016 630500                    EPPR0   LCSI+4,,AUTO
        72 000155   000002 631400 73                 EPPR1   2
        72 000156   000000 701000 xent               TSX1    OUT_STR
        72 000157   000000 011000                    NOP     0

      623      919              %OUT_STR(S="'-->'");

    920 72 000160   000016 630400 73                 EPPR0   14
        72 000161   000002 631400 73                 EPPR1   2
        72 000162   000000 701000 xent               TSX1    OUT_STR
        72 000163   000000 011000                    NOP     0

      624      922    3         CALL PRINT_PREFIX_STRING(LEAST_COST_PREFIX(NT));
PL6.E3A0      #006=PRINT_PREFIXES_FOR_TERMINAL File=LR_ERRREC.:Z8A6TSI           SAT 08/09/97 09:30 Page:177

    922 72 000164   200004 720100                    LXL0    NT,,AUTO
        72 000165   000000 630410 46                 EPPR0   LEAST_COST_PREFIX,X0
        72 000166   200007 450500                    STP0    NT+3,,AUTO
        72 000167   000003 701000 72                 TSX1    PRINT_PREFIX_STRING
        72 000170   000000 011000                    NOP     0

      625      923    3       END;

      626      924
      627      925    2   END;

    925 72 000171   200004 054100                    AOS     NT,,AUTO
        72 000172   200004 236100                    LDQ     NT,,AUTO
        72 000173   000000 116000 13                 CMPQ    LAST_NULL
        72 000174   000130 604400 72                 TMOZ    s:914

      628      926
      629      927    1   END PRINT_PREFIXES_FOR_TERMINAL;

    927 72 000175   000000 702200 xent               TSX2  ! X66_ARET
      630      928        %EOD;

PL6.E3A0      #006=PRINT_PREFIXES_FOR_TERMINAL File=LR_ERRREC.:Z8A6TSI           SAT 08/09/97 09:30 Page:178
--  Include file information  --

   LR_ERR_EXT.:Z8A6TOU  cannot be made into a system file and is referenced.
   LR_CNFG_EXT.:Z8A6TOU  cannot be made into a system file and is referenced.
   LR_IO_EXT.:Z8A6TOU  cannot be made into a system file and is referenced.
   LR_GRAM_EXT.:Z8A6TOU  cannot be made into a system file and is referenced.
      No diagnostics issued in procedure PRINT_PREFIXES_FOR_TERMINAL.
PL6.E3A0      #006=PRINT_PREFIXES_FOR_TERMINAL File=LR_ERRREC.:Z8A6TSI           SAT 08/09/97 09:30 Page:179

 **** Variables and constants ****

  ****  Section 000 LblCom OUT_DCBN

  ****  Scalars and arrays  ****
OctLoc.c.b A Datatyp(siz) R M Lvl/name                 OctLoc.c.b A Datatyp(siz) R M Lvl/name

     0-0-0/w SBIN        r     1 OUT_DCBN

  ****  Section 006 LblCom SYM_PTRS

  ****  Scalars and arrays  ****
OctLoc.c.b A Datatyp(siz) R M Lvl/name                 OctLoc.c.b A Datatyp(siz) R M Lvl/name

     0-0-0/w PTR         r     1 SYM_PTRS(0:1400)

  ****  Section 007 LblCom RIGHT_PARTS

  ****  Scalars and arrays  ****
OctLoc.c.b A Datatyp(siz) R M Lvl/name                 OctLoc.c.b A Datatyp(siz) R M Lvl/name

     0-0-0/h SBIN(18)          1 RIGHT_PARTS(0:8000)

  ****  Section 008 LblCom PROD

  ****  Scalars and arrays  ****
OctLoc.c.b A Datatyp(siz) R M Lvl/name                 OctLoc.c.b A Datatyp(siz) R M Lvl/name

     0-0-0/h STRC(72)          1 PROD(0:1500)

  ****  Section 009 LblCom NR_PROD

  ****  Scalars and arrays  ****
OctLoc.c.b A Datatyp(siz) R M Lvl/name                 OctLoc.c.b A Datatyp(siz) R M Lvl/name

     0-0-0/w SBIN              1 NR_PROD

PL6.E3A0      #006=PRINT_PREFIXES_FOR_TERMINAL File=LR_ERRREC.:Z8A6TSI           SAT 08/09/97 09:30 Page:180
  ****  Section 010 LblCom NR_SYMS

  ****  Scalars and arrays  ****
OctLoc.c.b A Datatyp(siz) R M Lvl/name                 OctLoc.c.b A Datatyp(siz) R M Lvl/name

     0-0-0/w SBIN              1 NR_SYMS

  ****  Section 011 LblCom NR_TERM

  ****  Scalars and arrays  ****
OctLoc.c.b A Datatyp(siz) R M Lvl/name                 OctLoc.c.b A Datatyp(siz) R M Lvl/name

     0-0-0/w SBIN        r     1 NR_TERM

  ****  Section 012 LblCom LAST_ACT

  ****  Scalars and arrays  ****
OctLoc.c.b A Datatyp(siz) R M Lvl/name                 OctLoc.c.b A Datatyp(siz) R M Lvl/name

     0-0-0/w SBIN              1 LAST_ACT

  ****  Section 013 LblCom LAST_NULL

  ****  Scalars and arrays  ****
OctLoc.c.b A Datatyp(siz) R M Lvl/name                 OctLoc.c.b A Datatyp(siz) R M Lvl/name

     0-0-0/w SBIN        r     1 LAST_NULL

  ****  Section 014 LblCom NR_ONRIGHT

  ****  Scalars and arrays  ****
OctLoc.c.b A Datatyp(siz) R M Lvl/name                 OctLoc.c.b A Datatyp(siz) R M Lvl/name

     0-0-0/w SBIN              1 NR_ONRIGHT

  ****  Section 015 LblCom NR_NT

PL6.E3A0      #006=PRINT_PREFIXES_FOR_TERMINAL File=LR_ERRREC.:Z8A6TSI           SAT 08/09/97 09:30 Page:181
  ****  Scalars and arrays  ****
OctLoc.c.b A Datatyp(siz) R M Lvl/name                 OctLoc.c.b A Datatyp(siz) R M Lvl/name

     0-0-0/w SBIN              1 NR_NT

  ****  Section 016 LblCom PROD_LEN_MAX_EVER

  ****  Scalars and arrays  ****
OctLoc.c.b A Datatyp(siz) R M Lvl/name                 OctLoc.c.b A Datatyp(siz) R M Lvl/name

     0-0-0/w SBIN              1 PROD_LEN_MAX_EVER

  ****  Section 017 LblCom LAST_ORDER_SPECIFIED

  ****  Scalars and arrays  ****
OctLoc.c.b A Datatyp(siz) R M Lvl/name                 OctLoc.c.b A Datatyp(siz) R M Lvl/name

     0-0-0/w SBIN              1 LAST_ORDER_SPECIFIED

  ****  Section 018 LblCom SEMANTIC_ORDERING

  ****  Scalars and arrays  ****
OctLoc.c.b A Datatyp(siz) R M Lvl/name                 OctLoc.c.b A Datatyp(siz) R M Lvl/name

     0-0-0/b BIT               1 SEMANTIC_ORDERING

  ****  Section 019 LblCom ERR_SEV

  ****  Scalars and arrays  ****
OctLoc.c.b A Datatyp(siz) R M Lvl/name                 OctLoc.c.b A Datatyp(siz) R M Lvl/name

     0-0-0/w SBIN              1 ERR_SEV

  ****  Section 020 LblCom SET_LENGTHB

  ****  Scalars and arrays  ****
OctLoc.c.b A Datatyp(siz) R M Lvl/name                 OctLoc.c.b A Datatyp(siz) R M Lvl/name
PL6.E3A0      #006=PRINT_PREFIXES_FOR_TERMINAL File=LR_ERRREC.:Z8A6TSI           SAT 08/09/97 09:30 Page:182

     0-0-0/w SBIN              1 SET_LENGTHB

  ****  Section 021 LblCom SET_LENGTHW

  ****  Scalars and arrays  ****
OctLoc.c.b A Datatyp(siz) R M Lvl/name                 OctLoc.c.b A Datatyp(siz) R M Lvl/name

     0-0-0/w SBIN              1 SET_LENGTHW

  ****  Section 022 LblCom EOF_SYMBOL_PTR

  ****  Scalars and arrays  ****
OctLoc.c.b A Datatyp(siz) R M Lvl/name                 OctLoc.c.b A Datatyp(siz) R M Lvl/name

     0-0-0/w PTR               1 EOF_SYMBOL_PTR

  ****  Section 023 LblCom ERROR_SYMBOL_PTR

  ****  Scalars and arrays  ****
OctLoc.c.b A Datatyp(siz) R M Lvl/name                 OctLoc.c.b A Datatyp(siz) R M Lvl/name

     0-0-0/w PTR               1 ERROR_SYMBOL_PTR

  ****  Section 024 LblCom BOF_SYMBOL_PTR

  ****  Scalars and arrays  ****
OctLoc.c.b A Datatyp(siz) R M Lvl/name                 OctLoc.c.b A Datatyp(siz) R M Lvl/name

     0-0-0/w PTR               1 BOF_SYMBOL_PTR

  ****  Section 025 LblCom OPTIONS

  ****  Scalars and arrays  ****
OctLoc.c.b A Datatyp(siz) R M Lvl/name                 OctLoc.c.b A Datatyp(siz) R M Lvl/name

     0-0-0/b BIT               1 OPTIONS(0:25)
PL6.E3A0      #006=PRINT_PREFIXES_FOR_TERMINAL File=LR_ERRREC.:Z8A6TSI           SAT 08/09/97 09:30 Page:183

  ****  Section 026 LblCom OPTIONS_TEXT

  ****  Scalars and arrays  ****
OctLoc.c.b A Datatyp(siz) R M Lvl/name                 OctLoc.c.b A Datatyp(siz) R M Lvl/name

     0-0-0/c CHAR(4)           1 OPTIONS_TEXT(0:25)

  ****  Section 027 LblCom INSTR

  ****  Scalars and arrays  ****
OctLoc.c.b A Datatyp(siz) R M Lvl/name                 OctLoc.c.b A Datatyp(siz) R M Lvl/name

     0-0-0/c CHAR              1 INSTR(0:511)               0-0-0/c CHAR(512)         1 INSTRCHR

  ****  Section 028 LblCom INSTR_LISTED

  ****  Scalars and arrays  ****
OctLoc.c.b A Datatyp(siz) R M Lvl/name                 OctLoc.c.b A Datatyp(siz) R M Lvl/name

     0-0-0/b BIT               1 INSTR_LISTED

  ****  Section 029 LblCom INSTR_LEN

  ****  Scalars and arrays  ****
OctLoc.c.b A Datatyp(siz) R M Lvl/name                 OctLoc.c.b A Datatyp(siz) R M Lvl/name

     0-0-0/w SBIN              1 INSTR_LEN

  ****  Section 030 LblCom INSTR_INDX

  ****  Scalars and arrays  ****
OctLoc.c.b A Datatyp(siz) R M Lvl/name                 OctLoc.c.b A Datatyp(siz) R M Lvl/name

     0-0-0/w SBIN              1 INSTR_INDX

  ****  Section 031 LblCom EOF_FLAG
PL6.E3A0      #006=PRINT_PREFIXES_FOR_TERMINAL File=LR_ERRREC.:Z8A6TSI           SAT 08/09/97 09:30 Page:184

  ****  Scalars and arrays  ****
OctLoc.c.b A Datatyp(siz) R M Lvl/name                 OctLoc.c.b A Datatyp(siz) R M Lvl/name

     0-0-0/b BIT               1 EOF_FLAG

  ****  Section 032 LblCom KEY_REC

  ****  Scalars and arrays  ****
OctLoc.c.b A Datatyp(siz) R M Lvl/name                 OctLoc.c.b A Datatyp(siz) R M Lvl/name

     0-0-0/c CHAR(10)          1 KEY_REC

  ****  Section 033 LblCom LINE

  ****  Scalars and arrays  ****
OctLoc.c.b A Datatyp(siz) R M Lvl/name                 OctLoc.c.b A Datatyp(siz) R M Lvl/name

     0-0-0/c CHAR(109)         1 LINE

  ****  Section 034 LblCom LINELEN

  ****  Scalars and arrays  ****
OctLoc.c.b A Datatyp(siz) R M Lvl/name                 OctLoc.c.b A Datatyp(siz) R M Lvl/name

     0-0-0/w SBIN        r     1 LINELEN

  ****  Section 035 LblCom TSTATS

  ****  Scalars and arrays  ****
OctLoc.c.b A Datatyp(siz) R M Lvl/name                 OctLoc.c.b A Datatyp(siz) R M Lvl/name

     0-0-0/w STRC(7380)        1 TSTATS

  ****  Section 036 LblCom C#_TO_$

  ****  Scalars and arrays  ****
PL6.E3A0      #006=PRINT_PREFIXES_FOR_TERMINAL File=LR_ERRREC.:Z8A6TSI           SAT 08/09/97 09:30 Page:185
OctLoc.c.b A Datatyp(siz) R M Lvl/name                 OctLoc.c.b A Datatyp(siz) R M Lvl/name

     0-0-0/w PTR               1 C#_TO_$(0:2200)

  ****  Section 037 LblCom NR_CONFIG

  ****  Scalars and arrays  ****
OctLoc.c.b A Datatyp(siz) R M Lvl/name                 OctLoc.c.b A Datatyp(siz) R M Lvl/name

     0-0-0/w SBIN              1 NR_CONFIG

  ****  Section 038 LblCom INIT_CONFIG

  ****  Scalars and arrays  ****
OctLoc.c.b A Datatyp(siz) R M Lvl/name                 OctLoc.c.b A Datatyp(siz) R M Lvl/name

     0-0-0/w SBIN              1 INIT_CONFIG

  ****  Section 039 LblCom MAX_BASIS_ITEMS

  ****  Scalars and arrays  ****
OctLoc.c.b A Datatyp(siz) R M Lvl/name                 OctLoc.c.b A Datatyp(siz) R M Lvl/name

     0-0-0/w SBIN              1 MAX_BASIS_ITEMS

  ****  Section 040 LblCom MAX_TOTAL_ITEMS

  ****  Scalars and arrays  ****
OctLoc.c.b A Datatyp(siz) R M Lvl/name                 OctLoc.c.b A Datatyp(siz) R M Lvl/name

     0-0-0/w SBIN              1 MAX_TOTAL_ITEMS

  ****  Section 041 LblCom LAST_BINSRCH_ONLY

  ****  Scalars and arrays  ****
OctLoc.c.b A Datatyp(siz) R M Lvl/name                 OctLoc.c.b A Datatyp(siz) R M Lvl/name

PL6.E3A0      #006=PRINT_PREFIXES_FOR_TERMINAL File=LR_ERRREC.:Z8A6TSI           SAT 08/09/97 09:30 Page:186
     0-0-0/w SBIN              1 LAST_BINSRCH_ONLY

  ****  Section 042 LblCom LAST_BOTH_BITBIN

  ****  Scalars and arrays  ****
OctLoc.c.b A Datatyp(siz) R M Lvl/name                 OctLoc.c.b A Datatyp(siz) R M Lvl/name

     0-0-0/w SBIN              1 LAST_BOTH_BITBIN

  ****  Section 043 LblCom GARBAGE

  ****  Scalars and arrays  ****
OctLoc.c.b A Datatyp(siz) R M Lvl/name                 OctLoc.c.b A Datatyp(siz) R M Lvl/name

     0-0-0/w PTR               1 GARBAGE(0:100)

  ****  Section 044 LblCom AMT_GARBAGE

  ****  Scalars and arrays  ****
OctLoc.c.b A Datatyp(siz) R M Lvl/name                 OctLoc.c.b A Datatyp(siz) R M Lvl/name

     0-0-0/w SBIN              1 AMT_GARBAGE

  ****  Section 045 LblCom LEAST_COST_STRING

  ****  Scalars and arrays  ****
OctLoc.c.b A Datatyp(siz) R M Lvl/name                 OctLoc.c.b A Datatyp(siz) R M Lvl/name

     0-0-0/w PTR         r     1 LEAST_COST_STRING(0:1400)

  ****  Section 046 LblCom LEAST_COST_PREFIX

  ****  Scalars and arrays  ****
OctLoc.c.b A Datatyp(siz) R M Lvl/name                 OctLoc.c.b A Datatyp(siz) R M Lvl/name

     0-0-0/w PTR         r     1 LEAST_COST_PREFIX(0:1400)

PL6.E3A0      #006=PRINT_PREFIXES_FOR_TERMINAL File=LR_ERRREC.:Z8A6TSI           SAT 08/09/97 09:30 Page:187
  ****  Section 047 LblCom CURRE

  ****  Scalars and arrays  ****
OctLoc.c.b A Datatyp(siz) R M Lvl/name                 OctLoc.c.b A Datatyp(siz) R M Lvl/name

     0-0-0/d STRC(126)         1 CURRE(0:1400)

  ****  Section 048 LblCom LCP_INDX

  ****  Scalars and arrays  ****
OctLoc.c.b A Datatyp(siz) R M Lvl/name                 OctLoc.c.b A Datatyp(siz) R M Lvl/name

     0-0-0/h SBIN(18)          1 LCP_INDX(0:1400)

  ****  Section 049 LblCom COM_STRSP_LEN

  ****  Scalars and arrays  ****
OctLoc.c.b A Datatyp(siz) R M Lvl/name                 OctLoc.c.b A Datatyp(siz) R M Lvl/name

     0-0-0/w SBIN        r     1 COM_STRSP_LEN

  ****  Section 050 LblCom COM_SEARCH_STRING

  ****  Scalars and arrays  ****
OctLoc.c.b A Datatyp(siz) R M Lvl/name                 OctLoc.c.b A Datatyp(siz) R M Lvl/name

     0-0-0/w PTR         r     1 COM_SEARCH_STRING

  ****  Section 051 LblCom COM_SEARCH_STRING_LEN

  ****  Scalars and arrays  ****
OctLoc.c.b A Datatyp(siz) R M Lvl/name                 OctLoc.c.b A Datatyp(siz) R M Lvl/name

     0-0-0/w SBIN        r     1 COM_SEARCH_STRING_LEN

  ****  Section 052 LblCom COM_STRING_SPACE_LEN

PL6.E3A0      #006=PRINT_PREFIXES_FOR_TERMINAL File=LR_ERRREC.:Z8A6TSI           SAT 08/09/97 09:30 Page:188
  ****  Scalars and arrays  ****
OctLoc.c.b A Datatyp(siz) R M Lvl/name                 OctLoc.c.b A Datatyp(siz) R M Lvl/name

     0-0-0/w SBIN        r     1 COM_STRING_SPACE_LEN

  ****  Section 053 LblCom COM_STRING_SPACE_H

  ****  Scalars and arrays  ****
OctLoc.c.b A Datatyp(siz) R M Lvl/name                 OctLoc.c.b A Datatyp(siz) R M Lvl/name

     0-0-0/h SBIN(18)    r     1 COM_STRING_SPACE_H(0:24999)

  ****  Section 054 LblCom COM_STRING_SPACE$

  ****  Scalars and arrays  ****
OctLoc.c.b A Datatyp(siz) R M Lvl/name                 OctLoc.c.b A Datatyp(siz) R M Lvl/name

     0-0-0/w PTR         r     1 COM_STRING_SPACE$

  ****  Section 055 LblCom COM_STRING_PTR

  ****  Scalars and arrays  ****
OctLoc.c.b A Datatyp(siz) R M Lvl/name                 OctLoc.c.b A Datatyp(siz) R M Lvl/name

     0-0-0/w PTR         r     1 COM_STRING_PTR

  ****  Section 056 LblCom COM_STRING_INDX

  ****  Scalars and arrays  ****
OctLoc.c.b A Datatyp(siz) R M Lvl/name                 OctLoc.c.b A Datatyp(siz) R M Lvl/name

     0-0-0/w SBIN              1 COM_STRING_INDX

  ****  Section 057 LblCom LCP_TABLE_LEN

  ****  Scalars and arrays  ****
OctLoc.c.b A Datatyp(siz) R M Lvl/name                 OctLoc.c.b A Datatyp(siz) R M Lvl/name
PL6.E3A0      #006=PRINT_PREFIXES_FOR_TERMINAL File=LR_ERRREC.:Z8A6TSI           SAT 08/09/97 09:30 Page:189

     0-0-0/w SBIN              1 LCP_TABLE_LEN

  ****  Section 058 LblCom STATE_ITEM_INDEX

  ****  Scalars and arrays  ****
OctLoc.c.b A Datatyp(siz) R M Lvl/name                 OctLoc.c.b A Datatyp(siz) R M Lvl/name

     0-0-0/h STRC              1 STATE_ITEM_INDEX(0:2200)

  ****  Section 059 LblCom PATH

  ****  Scalars and arrays  ****
OctLoc.c.b A Datatyp(siz) R M Lvl/name                 OctLoc.c.b A Datatyp(siz) R M Lvl/name

     0-0-0/h STRC        r     1 PATH(0:17600)

  ****  Section 060 LblCom PATH_STRINGS_LEN

  ****  Scalars and arrays  ****
OctLoc.c.b A Datatyp(siz) R M Lvl/name                 OctLoc.c.b A Datatyp(siz) R M Lvl/name

     0-0-0/w SBIN        r     1 PATH_STRINGS_LEN

  ****  Section 061 LblCom PATH_ADDR$

  ****  Scalars and arrays  ****
OctLoc.c.b A Datatyp(siz) R M Lvl/name                 OctLoc.c.b A Datatyp(siz) R M Lvl/name

     0-0-0/w PTR         r     1 PATH_ADDR$

  ****  Section 062 LblCom PATH_TABLE_LEN

  ****  Scalars and arrays  ****
OctLoc.c.b A Datatyp(siz) R M Lvl/name                 OctLoc.c.b A Datatyp(siz) R M Lvl/name

     0-0-0/w SBIN              1 PATH_TABLE_LEN
PL6.E3A0      #006=PRINT_PREFIXES_FOR_TERMINAL File=LR_ERRREC.:Z8A6TSI           SAT 08/09/97 09:30 Page:190

  ****  Section 063 LblCom EDGECOST

  ****  Scalars and arrays  ****
OctLoc.c.b A Datatyp(siz) R M Lvl/name                 OctLoc.c.b A Datatyp(siz) R M Lvl/name

     0-0-0/w SBIN              1 EDGECOST(0:400)

  ****  Section 064 LblCom ITEM_TABLE_LEN

  ****  Scalars and arrays  ****
OctLoc.c.b A Datatyp(siz) R M Lvl/name                 OctLoc.c.b A Datatyp(siz) R M Lvl/name

     0-0-0/w SBIN              1 ITEM_TABLE_LEN

  ****  Section 065 LblCom ORDERED_ITEM

  ****  Scalars and arrays  ****
OctLoc.c.b A Datatyp(siz) R M Lvl/name                 OctLoc.c.b A Datatyp(siz) R M Lvl/name

     0-0-0/h STRC              1 ORDERED_ITEM(0:400)

  ****  Section 066 LblCom NEIGHBOR

  ****  Scalars and arrays  ****
OctLoc.c.b A Datatyp(siz) R M Lvl/name                 OctLoc.c.b A Datatyp(siz) R M Lvl/name

     0-0-0/w SBIN              1 NEIGHBOR(0:400)

  ****  Section 067 LblCom PATH_INFO

  ****  Scalars and arrays  ****
OctLoc.c.b A Datatyp(siz) R M Lvl/name                 OctLoc.c.b A Datatyp(siz) R M Lvl/name

     0-0-0/w STRC(28872)       1 PATH_INFO

  ****  Section 068 LblCom CHOSEN
PL6.E3A0      #006=PRINT_PREFIXES_FOR_TERMINAL File=LR_ERRREC.:Z8A6TSI           SAT 08/09/97 09:30 Page:191

  ****  Scalars and arrays  ****
OctLoc.c.b A Datatyp(siz) R M Lvl/name                 OctLoc.c.b A Datatyp(siz) R M Lvl/name

     0-0-0/w BIT               1 CHOSEN(0:400)

  ****  Section 069 LblCom REACHED

  ****  Scalars and arrays  ****
OctLoc.c.b A Datatyp(siz) R M Lvl/name                 OctLoc.c.b A Datatyp(siz) R M Lvl/name

     0-0-0/b BIT               1 REACHED(0:400)

  ****  Section 070 LblCom EXP_PATH_INDX

  ****  Scalars and arrays  ****
OctLoc.c.b A Datatyp(siz) R M Lvl/name                 OctLoc.c.b A Datatyp(siz) R M Lvl/name

     0-0-0/w SBIN              1 EXP_PATH_INDX

  ****  Auto variables  ****

  ****  Scalars and arrays  ****
OctLoc.c.b A Datatyp(siz) R M Lvl/name                 OctLoc.c.b A Datatyp(siz) R M Lvl/name

     7-0-0/w PTR         r     1 @SP                        3-0-0/w PTR         r     1 @T
    10-0-0/w SBIN        r     1 I                         11-0-0/w SBIN        r     1 J
    12-0-0/w SBIN        r     1 LCSI                       4-0-0/w SBIN        r     1 NT
    *0-0-0/w PTR         r     1 SP                        *0-0-0/w SBIN        r     1 T

  ****  BASED and DCB variables  ****

  ****  Scalars and arrays  ****
OctLoc.c.b A Datatyp(siz) R M Lvl/name                 OctLoc.c.b A Datatyp(siz) R M Lvl/name

     0-0-0/w STRC(72)          1 CELL                       0-0-0/c ACHR              1 COM_STRINGS
     0-0-0/c ACHR              1 COM_STRING_SPACE           0-0-0/c ACHR              1 CSEARCH_STRING
PL6.E3A0      #006=PRINT_PREFIXES_FOR_TERMINAL File=LR_ERRREC.:Z8A6TSI           SAT 08/09/97 09:30 Page:192
     0-0-0/w STRC(57888)       1 C_SET_B                    0-0-0/w STRC(72)          1 INCLUDES_B
     0-0-0/w STRC(144)         1 INCL_B                     0-0-0/w STRC(5436)        1 ITEM_B
     0-0-0/w STRC(5652)        1 KEY_B                      0-0-0N  NULL        r     1 M$LO
     0-0-0N  NULL        r     1 M$OU                       0-0-0N  NULL        r     1 M$SI
     0-0-0N  NULL        r     1 M$SO                       0-0-0N  NULL        r     1 M$UI
     0-0-0/c ACHR              1 PATH_STRINGS               0-0-0/w STRC(90)    r     1 PREFIX
     0-0-0/w ASTR(72)    r     1 PREFIXCHR                  0-0-0/w STRC        r     1 STRING
     0-0-0/w ASTR(18)    r     1 STRINGCHR                  0-0-0/w STRC(351)         1 SYMBOL


   Procedure PRINT_PREFIXES_FOR_TERMINAL requires 126 words for executable code.
   Procedure PRINT_PREFIXES_FOR_TERMINAL requires 16 words of local(AUTO) storage.

