PL6.E3A0      #007=EXPAND_PREFIX File=LR_ERRREC.:Z8A6TSI                         SAT 08/09/97 09:30 Page:193
      631        1        /*T***********************************************************/
      632        2        /*T*                                                         */
      633        3        /*T* Copyright (c) Bull HN Information Systems Inc., 1997    */
      634        4        /*T*                                                         */
      635        5        /*T***********************************************************/
      636        6        EXPAND_PREFIX : PROC (NT, T);
      637        7
      638        8        /*D*
      639        9               NAME: EXPAND_PREFIX
      640       10            PURPOSE:
      641       11
      642       12           Expand the current prefix entry (NT) into
      643       13           references to least_cost_strings.  Link this string into
      644       14           the LEAST_COST_PREFIX lists.
      645       15           Format of the prefix string is:
      646       16
      647       17               half word
      648       18               ----------
      649       19                   0    - string length (N)
      650       20                   1    - terminal index
      651       21                   2-3  - link to next_entry (terminal) for this non_terminal
      652       22                   4-N  - Indicies to least cost strings forming prefix
      653       23
      654       24        */
      655       25
      656       26    1   DCL NT SBIN WORD;
      657       27    1   DCL T SBIN WORD;
      658       28
      659       29        %INCLUDE LR_GRAM_EXT;
      660      568        %INCLUDE LR_CNFG_EXT;
      661      721        %INCLUDE LR_ERR_EXT;
      662      864
      663      865    1   DCL GET_STRING_MEM ENTRY(2);
      664      866
      665      867    1   DCL RP     SBIN WORD;
      666      868    1   DCL STRLEN SBIN WORD;
      667      869    1   DCL SYM    SBIN WORD;
PL6.E3A0      #007=EXPAND_PREFIX File=LR_ERRREC.:Z8A6TSI                         SAT 08/09/97 09:30 Page:194
      668      870    1   DCL SP     PTR;
      669      871
      670      872
      671      873    1   SYM = RIGHT_PARTS(PROD.RIGHT_START(CURRE.PROD(NT)) + CURRE.INDX(NT));
      672      874
      673      875    1   IF NOT CURRE.EXPANDED(SYM) THEN
      674      876    1     CALL EXPAND_PREFIX (SYM, T);
      675      877
      676      878    1   STRLEN = LEAST_COST_PREFIX(SYM) -> PREFIX.LEN_IN_H + CURRE.INDX(NT);
      677      879
      678      880    1   CALL GET_STRING_MEM (SP, STRLEN);
      679      881
      680      882    1   SP -> PREFIX.LINK     = LEAST_COST_PREFIX(NT);
      681      883    1   LEAST_COST_PREFIX(NT) = SP;
      682      884    1   SP -> PREFIX.TERM     = T;
      683      885
      684      886    2   DO RP = 0 TO CURRE.INDX(NT) - 1;
      685      887
      686      888    2     SP -> PREFIX.TOK(RP) = RIGHT_PARTS(RP + PROD.RIGHT_START(CURRE.PROD(NT)));
      687      889
      688      890    2   END;
      689      891
      690      892    1   SUBSTR( SP -> PREFIXCHR.TOKCHR,
      691      893    1             CURRE.INDX(NT) * 2,
      692      894    1           (LEAST_COST_PREFIX(SYM) -> PREFIX.LEN_IN_H - 3) * 2)
      693      895    1        = SUBSTR (LEAST_COST_PREFIX(SYM) -> PREFIXCHR.TOKCHR,
      694      896    1                  0,
      695      897    1                  (LEAST_COST_PREFIX(SYM) -> PREFIX.LEN_IN_H -3) * 2);
      696      898
      697      899    1   CURRE.EXPANDED(NT) = TRUE;
      698      900
      699      901    1   END EXPAND_PREFIX;
      700      902        %EOD;

PL6.E3A0      #007=EXPAND_PREFIX File=LR_ERRREC.:Z8A6TSI                         SAT 08/09/97 09:30 Page:195
--  Include file information  --

   LR_ERR_EXT.:Z8A6TOU  cannot be made into a system file and is referenced.
   LR_CNFG_EXT.:Z8A6TOU  cannot be made into a system file and is referenced.
   LR_IO_EXT.:Z8A6TOU  cannot be made into a system file and is referenced.
   LR_GRAM_EXT.:Z8A6TOU  cannot be made into a system file and is referenced.
      No diagnostics issued in procedure EXPAND_PREFIX.

   Procedure EXPAND_PREFIX requires 131 words for executable code.
   Procedure EXPAND_PREFIX requires 14 words of local(AUTO) storage.

PL6.E3A0      #007=EXPAND_PREFIX File=LR_ERRREC.:Z8A6TSI                         SAT 08/09/97 09:30 Page:196

 Object Unit name= EXPAND_PREFIX                              File name= LR_ERRREC.:Z8A6TOU
 UTS= AUG 09 '97 09:30:48.72 SAT                              Compiler= PL-6/E31         Sev=      00
 SharedLib= :SHARED_SYSTEM                                    Alt SharedLib=


    ****  Control sections  ****

 Sect   Type Bound  Init  Size OctSiz  Section name(segment info)
    0  LblCom even  none     1      1  OUT_DCBN
    1   DCB   even  none     0      0  M$OU
    2   DCB   even  none     0      0  M$SO
    3   DCB   even  none     0      0  M$LO
    4   DCB   even  none     0      0  M$SI
    5   DCB   even  none     0      0  M$UI
    6  LblCom even  none  1401   2571  SYM_PTRS
    7  LblCom even  none  4001   7641  RIGHT_PARTS
    8  LblCom even  none  3002   5672  PROD
    9  LblCom even  none     1      1  NR_PROD
   10  LblCom even  none     1      1  NR_SYMS
   11  LblCom even  none     1      1  NR_TERM
   12  LblCom even  none     1      1  LAST_ACT
   13  LblCom even  none     1      1  LAST_NULL
   14  LblCom even  none     1      1  NR_ONRIGHT
   15  LblCom even  none     1      1  NR_NT
   16  LblCom even  none     1      1  PROD_LEN_MAX_EVER
   17  LblCom even  none     1      1  LAST_ORDER_SPECIFIED
   18  LblCom even  none     1      1  SEMANTIC_ORDERING
   19  LblCom even  none     1      1  ERR_SEV
   20  LblCom even  none     1      1  SET_LENGTHB
   21  LblCom even  none     1      1  SET_LENGTHW
   22  LblCom even  none     1      1  EOF_SYMBOL_PTR
   23  LblCom even  none     1      1  ERROR_SYMBOL_PTR
   24  LblCom even  none     1      1  BOF_SYMBOL_PTR
   25  LblCom even  none     1      1  OPTIONS
   26  LblCom even  none    26     32  OPTIONS_TEXT
   27  LblCom even  none   128    200  INSTR
   28  LblCom even  none     1      1  INSTR_LISTED
PL6.E3A0      #007=EXPAND_PREFIX File=LR_ERRREC.:Z8A6TSI                         SAT 08/09/97 09:30 Page:197
   29  LblCom even  none     1      1  INSTR_LEN
   30  LblCom even  none     1      1  INSTR_INDX
   31  LblCom even  none     1      1  EOF_FLAG
   32  LblCom even  none     3      3  KEY_REC
   33  LblCom even  none    28     34  LINE
   34  LblCom even  none     1      1  LINELEN
   35  LblCom even  none   205    315  TSTATS
   36  LblCom even  none  2201   4231  C#_TO_$
   37  LblCom even  none     1      1  NR_CONFIG
   38  LblCom even  none     1      1  INIT_CONFIG
   39  LblCom even  none     1      1  MAX_BASIS_ITEMS
   40  LblCom even  none     1      1  MAX_TOTAL_ITEMS
   41  LblCom even  none     1      1  LAST_BINSRCH_ONLY
   42  LblCom even  none     1      1  LAST_BOTH_BITBIN
   43  LblCom even  none   101    145  GARBAGE
   44  LblCom even  none     1      1  AMT_GARBAGE
   45  LblCom even  none  1401   2571  LEAST_COST_STRING
   46  LblCom even  none  1401   2571  LEAST_COST_PREFIX
   47  LblCom even  none  5604  12744  CURRE
   48  LblCom even  none   701   1275  LCP_INDX
   49  LblCom even  none     1      1  COM_STRSP_LEN
   50  LblCom even  none     1      1  COM_SEARCH_STRING
   51  LblCom even  none     1      1  COM_SEARCH_STRING_LEN
   52  LblCom even  none     1      1  COM_STRING_SPACE_LEN
   53  LblCom even  none 12500  30324  COM_STRING_SPACE_H
   54  LblCom even  none     1      1  COM_STRING_SPACE$
   55  LblCom even  none     1      1  COM_STRING_PTR
   56  LblCom even  none     1      1  COM_STRING_INDX
   57  LblCom even  none     1      1  LCP_TABLE_LEN
   58  LblCom even  none  2201   4231  STATE_ITEM_INDEX
   59  LblCom even  none 17601  42301  PATH
   60  LblCom even  none     1      1  PATH_STRINGS_LEN
   61  LblCom even  none     1      1  PATH_ADDR$
   62  LblCom even  none     1      1  PATH_TABLE_LEN
   63  LblCom even  none   401    621  EDGECOST
   64  LblCom even  none     1      1  ITEM_TABLE_LEN
   65  LblCom even  none   401    621  ORDERED_ITEM
PL6.E3A0      #007=EXPAND_PREFIX File=LR_ERRREC.:Z8A6TSI                         SAT 08/09/97 09:30 Page:198
   66  LblCom even  none   401    621  NEIGHBOR
   67  LblCom even  none   802   1442  PATH_INFO
   68  LblCom even  none   401    621  CHOSEN
   69  LblCom even  none    12     14  REACHED
   70  LblCom even  none     1      1  EXP_PATH_INDX
   71   Proc  even  none   131    203  EXPAND_PREFIX
   72  RoData even  none     1      1  EXPAND_PREFIX

    ****  Entry defs  ****

                              Check   Calling
                             calling  sequence
  Sect OctLoc Primary Altret sequence   type   Parms  Name
    71      0   yes            yes      Std        2  EXPAND_PREFIX

  ****  Entry refs  ****

         Check        Calling
        calling       sequence
Altret sequence SRef   type   Args  Name
         yes           Std       2 GET_STRING_MEM
                       nStd      0 X66_AUTO_2
                       nStd      0 X66_ARET

  ****  Data refs  ****

  Flags:  r = read only, s = secondary
Flgs Name                             Flgs Name                             Flgs Name
     M$OU                                  M$SO                                  M$LO
     M$SI                                  M$UI

  ****  Segment refs  ****

  Flags:  r = read only, s = secondary
Flgs Name                             Flgs Name                             Flgs Name
     NULLSID                               ISSID
PL6.E3A0      #007=EXPAND_PREFIX File=LR_ERRREC.:Z8A6TSI                         SAT 08/09/97 09:30 Page:199


      631        1        /*T***********************************************************/
      632        2        /*T*                                                         */
      633        3        /*T* Copyright (c) Bull HN Information Systems Inc., 1997    */
      634        4        /*T*                                                         */
      635        5        /*T***********************************************************/
      636        6        EXPAND_PREFIX : PROC (NT, T);

      6 71 000000   000000 700200 xent  EXPAND_PREF* TSX0  ! X66_AUTO_2
        71 000001   000016 000002                    ZERO    14,2

      637        7
      638        8        /*D*
      639        9               NAME: EXPAND_PREFIX
      640       10            PURPOSE:
      641       11
      642       12           Expand the current prefix entry (NT) into
      643       13           references to least_cost_strings.  Link this string into
      644       14           the LEAST_COST_PREFIX lists.
      645       15           Format of the prefix string is:
      646       16
      647       17               half word
      648       18               ----------
      649       19                   0    - string length (N)
      650       20                   1    - terminal index
      651       21                   2-3  - link to next_entry (terminal) for this non_terminal
      652       22                   4-N  - Indicies to least cost strings forming prefix
      653       23
      654       24        */
      655       25
      656       26    1   DCL NT SBIN WORD;
      657       27    1   DCL T SBIN WORD;
      658       28
      659       29        %INCLUDE LR_GRAM_EXT;
      660      568        %INCLUDE LR_CNFG_EXT;
      661      721        %INCLUDE LR_ERR_EXT;
      662      864
PL6.E3A0      #007=EXPAND_PREFIX File=LR_ERRREC.:Z8A6TSI                         SAT 08/09/97 09:30 Page:200
      663      865    1   DCL GET_STRING_MEM ENTRY(2);
      664      866
      665      867    1   DCL RP     SBIN WORD;
      666      868    1   DCL STRLEN SBIN WORD;
      667      869    1   DCL SYM    SBIN WORD;
      668      870    1   DCL SP     PTR;
      669      871
      670      872
      671      873    1   SYM = RIGHT_PARTS(PROD.RIGHT_START(CURRE.PROD(NT)) + CURRE.INDX(NT));

    873 71 000002   200003 470500                    LDP0    @NT,,AUTO
        71 000003   000000 235100                    LDA     0,,PR0
        71 000004   000001 735000                    ALS     1
        71 000005   000001 735000                    ALS     1
        71 000006   000002 236005 47                 LDQ     CURRE+2,AL
        71 000007   000022 732000                    QRS     18
        71 000010   000000 235100                    LDA     0,,PR0
        71 000011   000001 735000                    ALS     1
        71 000012   000001 735000                    ALS     1
        71 000013   200012 756100                    STQ     SP+2,,AUTO
        71 000014   000002 236005 47                 LDQ     CURRE+2,AL
        71 000015   000022 736000                    QLS     18
        71 000016   000022 732000                    QRS     18
        71 000017   200013 756100                    STQ     SP+3,,AUTO
        71 000020   200012 235100                    LDA     SP+2,,AUTO
        71 000021   000001 735000                    ALS     1
        71 000022   000001 236005 8                  LDQ     PROD+1,AL
        71 000023   000022 736000                    QLS     18
        71 000024   000022 732000                    QRS     18
        71 000025   200013 036100                    ADLQ    SP+3,,AUTO
        71 000026   000001 736000                    QLS     1
        71 000027   000100 100406                    MLR     fill='000'O
        71 000030   000000 000002 7                  ADSC9   RIGHT_PARTS,Q            cn=0,n=2
        71 000031   200014 000004                    ADSC9   SP+4,,AUTO               cn=0,n=4
        71 000032   200014 236100                    LDQ     SP+4,,AUTO
        71 000033   000022 732000                    QRS     18
        71 000034   200007 756100                    STQ     SYM,,AUTO
PL6.E3A0      #007=EXPAND_PREFIX File=LR_ERRREC.:Z8A6TSI                         SAT 08/09/97 09:30 Page:201

      672      874
      673      875    1   IF NOT CURRE.EXPANDED(SYM) THEN

    875 71 000035   200007 235100                    LDA     SYM,,AUTO
        71 000036   000002 735000                    ALS     2
        71 000037   000003 234005 47                 SZN     CURRE+3,AL
        71 000040   000051 604000 71                 TMI     s:878

      674      876    1     CALL EXPAND_PREFIX (SYM, T);

    876 71 000041   200004 236100                    LDQ     @T,,AUTO
        71 000042   200013 756100                    STQ     SP+3,,AUTO
        71 000043   200007 631500                    EPPR1   SYM,,AUTO
        71 000044   200012 451500                    STP1    SP+2,,AUTO
        71 000045   200012 630500                    EPPR0   SP+2,,AUTO
        71 000046   000000 631400 72                 EPPR1   0
        71 000047   000000 701000 71                 TSX1    s:6
        71 000050   000000 011000                    NOP     0

      675      877
      676      878    1   STRLEN = LEAST_COST_PREFIX(SYM) -> PREFIX.LEN_IN_H + CURRE.INDX(NT);

    878 71 000051   200007 720100                    LXL0    SYM,,AUTO
        71 000052   000000 470410 46                 LDP0    LEAST_COST_PREFIX,X0
        71 000053   200003 471500                    LDP1    @NT,,AUTO
        71 000054   100000 235100                    LDA     0,,PR1
        71 000055   000001 735000                    ALS     1
        71 000056   000001 735000                    ALS     1
        71 000057   000002 236005 47                 LDQ     CURRE+2,AL
        71 000060   000022 736000                    QLS     18
        71 000061   000022 732000                    QRS     18
        71 000062   200012 756100                    STQ     SP+2,,AUTO
        71 000063   000000 236100                    LDQ     0,,PR0
        71 000064   000022 772000                    QRL     18
        71 000065   200012 036100                    ADLQ    SP+2,,AUTO
        71 000066   200006 756100                    STQ     STRLEN,,AUTO
PL6.E3A0      #007=EXPAND_PREFIX File=LR_ERRREC.:Z8A6TSI                         SAT 08/09/97 09:30 Page:202

      677      879
      678      880    1   CALL GET_STRING_MEM (SP, STRLEN);

    880 71 000067   200006 633500                    EPPR3   STRLEN,,AUTO
        71 000070   200013 453500                    STP3    SP+3,,AUTO
        71 000071   200010 634500                    EPPR4   SP,,AUTO
        71 000072   200012 454500                    STP4    SP+2,,AUTO
        71 000073   200012 630500                    EPPR0   SP+2,,AUTO
        71 000074   000000 631400 72                 EPPR1   0
        71 000075   000000 701000 xent               TSX1    GET_STRING_MEM
        71 000076   000000 011000                    NOP     0

      679      881
      680      882    1   SP -> PREFIX.LINK     = LEAST_COST_PREFIX(NT);

    882 71 000077   200003 470500                    LDP0    @NT,,AUTO
        71 000100   000000 720100                    LXL0    0,,PR0
        71 000101   000000 236010 46                 LDQ     LEAST_COST_PREFIX,X0
        71 000102   200010 471500                    LDP1    SP,,AUTO
        71 000103   100001 756100                    STQ     1,,PR1

      681      883    1   LEAST_COST_PREFIX(NT) = SP;

    883 71 000104   000000 720100                    LXL0    0,,PR0
        71 000105   200010 236100                    LDQ     SP,,AUTO
        71 000106   000000 756010 46                 STQ     LEAST_COST_PREFIX,X0

      682      884    1   SP -> PREFIX.TERM     = T;

    884 71 000107   200004 471500                    LDP1    @T,,AUTO
        71 000110   100000 720100                    LXL0    0,,PR1
        71 000111   200010 473500                    LDP3    SP,,AUTO
        71 000112   300000 440100                    SXL0    0,,PR3

      683      885
      684      886    2   DO RP = 0 TO CURRE.INDX(NT) - 1;
PL6.E3A0      #007=EXPAND_PREFIX File=LR_ERRREC.:Z8A6TSI                         SAT 08/09/97 09:30 Page:203

    886 71 000113   200005 450100                    STZ     RP,,AUTO
        71 000114   000140 710000 71                 TRA     s:890+1

      685      887
      686      888    2     SP -> PREFIX.TOK(RP) = RIGHT_PARTS(RP + PROD.RIGHT_START(CURRE.PROD(NT)));

    888 71 000115   200003 470500                    LDP0    @NT,,AUTO
        71 000116   000000 235100                    LDA     0,,PR0
        71 000117   000001 735000                    ALS     1
        71 000120   000001 735000                    ALS     1
        71 000121   000002 236005 47                 LDQ     CURRE+2,AL
        71 000122   000022 732000                    QRS     18
        71 000123   000001 736000                    QLS     1
        71 000124   000001 236006 8                  LDQ     PROD+1,QL
        71 000125   000022 736000                    QLS     18
        71 000126   000022 732000                    QRS     18
        71 000127   200005 036100                    ADLQ    RP,,AUTO
        71 000130   000001 736000                    QLS     1
        71 000131   200005 235100                    LDA     RP,,AUTO
        71 000132   000001 735000                    ALS     1
        71 000133   200010 471500                    LDP1    SP,,AUTO
        71 000134   000105 100406                    MLR     fill='000'O
        71 000135   000000 000002 7                  ADSC9   RIGHT_PARTS,Q            cn=0,n=2
        71 000136   100002 000002                    ADSC9   2,A,PR1                  cn=0,n=2

      687      889
      688      890    2   END;

    890 71 000137   200005 054100                    AOS     RP,,AUTO
        71 000140   000000 235100                    LDA     0,,PR0
        71 000141   000001 735000                    ALS     1
        71 000142   000001 735000                    ALS     1
        71 000143   000002 236005 47                 LDQ     CURRE+2,AL
        71 000144   000022 736000                    QLS     18
        71 000145   000022 732000                    QRS     18
        71 000146   200005 116100                    CMPQ    RP,,AUTO
PL6.E3A0      #007=EXPAND_PREFIX File=LR_ERRREC.:Z8A6TSI                         SAT 08/09/97 09:30 Page:204
        71 000147   000115 605400 71                 TPNZ    s:888

      689      891
      690      892    1   SUBSTR( SP -> PREFIXCHR.TOKCHR,

    892 71 000150   200010 471500                    LDP1    SP,,AUTO
        71 000151   100000 220100                    LDX0    0,,PR1
        71 000152   000000 235100                    LDA     0,,PR0
        71 000153   000001 735000                    ALS     1
        71 000154   200007 721100                    LXL1    SYM,,AUTO
        71 000155   000000 473411 46                 LDP3    LEAST_COST_PREFIX,X1
        71 000156   000001 735000                    ALS     1
        71 000157   000002 236005 47                 LDQ     CURRE+2,AL
        71 000160   000022 736000                    QLS     18
        71 000161   000022 732000                    QRS     18
        71 000162   300000 222100                    LDX2    0,,PR3
        71 000163   300000 022100                    ADLX2   0,,PR3
        71 000164   777772 623012                    EAX3    -6,X2
        71 000165   300000 222100                    LDX2    0,,PR3
        71 000166   300000 224100                    LDX4    0,,PR3
        71 000167   300000 024100                    ADLX4   0,,PR3
        71 000170   777772 625014                    EAX5    -6,X4
        71 000171   000001 736000                    QLS     1
        71 000172   040146 100540                    MLR     fill='040'O
        71 000173   300002 000015                    ADSC9   2,,PR3                   cn=0,n=*X5
        71 000174   100002 000013                    ADSC9   2,Q,PR1                  cn=0,n=*X3

      691      893    1             CURRE.INDX(NT) * 2,
      692      894    1           (LEAST_COST_PREFIX(SYM) -> PREFIX.LEN_IN_H - 3) * 2)
      693      895    1        = SUBSTR (LEAST_COST_PREFIX(SYM) -> PREFIXCHR.TOKCHR,
      694      896    1                  0,
      695      897    1                  (LEAST_COST_PREFIX(SYM) -> PREFIX.LEN_IN_H -3) * 2);
      696      898
      697      899    1   CURRE.EXPANDED(NT) = TRUE;

    899 71 000175   000000 235100                    LDA     0,,PR0
        71 000176   000001 735000                    ALS     1
PL6.E3A0      #007=EXPAND_PREFIX File=LR_ERRREC.:Z8A6TSI                         SAT 08/09/97 09:30 Page:205
        71 000177   000001 735000                    ALS     1
        71 000200   400000 236003                    LDQ     -131072,DU
        71 000201   000003 756005 47                 STQ     CURRE+3,AL

      698      900
      699      901    1   END EXPAND_PREFIX;

    901 71 000202   000000 702200 xent               TSX2  ! X66_ARET
      700      902        %EOD;

PL6.E3A0      #007=EXPAND_PREFIX File=LR_ERRREC.:Z8A6TSI                         SAT 08/09/97 09:30 Page:206
--  Include file information  --

   LR_ERR_EXT.:Z8A6TOU  cannot be made into a system file and is referenced.
   LR_CNFG_EXT.:Z8A6TOU  cannot be made into a system file and is referenced.
   LR_IO_EXT.:Z8A6TOU  cannot be made into a system file and is referenced.
   LR_GRAM_EXT.:Z8A6TOU  cannot be made into a system file and is referenced.
      No diagnostics issued in procedure EXPAND_PREFIX.
PL6.E3A0      #007=EXPAND_PREFIX File=LR_ERRREC.:Z8A6TSI                         SAT 08/09/97 09:30 Page:207

 **** Variables and constants ****

  ****  Section 000 LblCom OUT_DCBN

  ****  Scalars and arrays  ****
OctLoc.c.b A Datatyp(siz) R M Lvl/name                 OctLoc.c.b A Datatyp(siz) R M Lvl/name

     0-0-0/w SBIN              1 OUT_DCBN

  ****  Section 006 LblCom SYM_PTRS

  ****  Scalars and arrays  ****
OctLoc.c.b A Datatyp(siz) R M Lvl/name                 OctLoc.c.b A Datatyp(siz) R M Lvl/name

     0-0-0/w PTR               1 SYM_PTRS(0:1400)

  ****  Section 007 LblCom RIGHT_PARTS

  ****  Scalars and arrays  ****
OctLoc.c.b A Datatyp(siz) R M Lvl/name                 OctLoc.c.b A Datatyp(siz) R M Lvl/name

     0-0-0/h SBIN(18)    r     1 RIGHT_PARTS(0:8000)

  ****  Section 008 LblCom PROD

  ****  Scalars and arrays  ****
OctLoc.c.b A Datatyp(siz) R M Lvl/name                 OctLoc.c.b A Datatyp(siz) R M Lvl/name

     0-0-0/h STRC(72)    r     1 PROD(0:1500)

  ****  Section 009 LblCom NR_PROD

  ****  Scalars and arrays  ****
OctLoc.c.b A Datatyp(siz) R M Lvl/name                 OctLoc.c.b A Datatyp(siz) R M Lvl/name

     0-0-0/w SBIN              1 NR_PROD

PL6.E3A0      #007=EXPAND_PREFIX File=LR_ERRREC.:Z8A6TSI                         SAT 08/09/97 09:30 Page:208
  ****  Section 010 LblCom NR_SYMS

  ****  Scalars and arrays  ****
OctLoc.c.b A Datatyp(siz) R M Lvl/name                 OctLoc.c.b A Datatyp(siz) R M Lvl/name

     0-0-0/w SBIN              1 NR_SYMS

  ****  Section 011 LblCom NR_TERM

  ****  Scalars and arrays  ****
OctLoc.c.b A Datatyp(siz) R M Lvl/name                 OctLoc.c.b A Datatyp(siz) R M Lvl/name

     0-0-0/w SBIN              1 NR_TERM

  ****  Section 012 LblCom LAST_ACT

  ****  Scalars and arrays  ****
OctLoc.c.b A Datatyp(siz) R M Lvl/name                 OctLoc.c.b A Datatyp(siz) R M Lvl/name

     0-0-0/w SBIN              1 LAST_ACT

  ****  Section 013 LblCom LAST_NULL

  ****  Scalars and arrays  ****
OctLoc.c.b A Datatyp(siz) R M Lvl/name                 OctLoc.c.b A Datatyp(siz) R M Lvl/name

     0-0-0/w SBIN              1 LAST_NULL

  ****  Section 014 LblCom NR_ONRIGHT

  ****  Scalars and arrays  ****
OctLoc.c.b A Datatyp(siz) R M Lvl/name                 OctLoc.c.b A Datatyp(siz) R M Lvl/name

     0-0-0/w SBIN              1 NR_ONRIGHT

  ****  Section 015 LblCom NR_NT

PL6.E3A0      #007=EXPAND_PREFIX File=LR_ERRREC.:Z8A6TSI                         SAT 08/09/97 09:30 Page:209
  ****  Scalars and arrays  ****
OctLoc.c.b A Datatyp(siz) R M Lvl/name                 OctLoc.c.b A Datatyp(siz) R M Lvl/name

     0-0-0/w SBIN              1 NR_NT

  ****  Section 016 LblCom PROD_LEN_MAX_EVER

  ****  Scalars and arrays  ****
OctLoc.c.b A Datatyp(siz) R M Lvl/name                 OctLoc.c.b A Datatyp(siz) R M Lvl/name

     0-0-0/w SBIN              1 PROD_LEN_MAX_EVER

  ****  Section 017 LblCom LAST_ORDER_SPECIFIED

  ****  Scalars and arrays  ****
OctLoc.c.b A Datatyp(siz) R M Lvl/name                 OctLoc.c.b A Datatyp(siz) R M Lvl/name

     0-0-0/w SBIN              1 LAST_ORDER_SPECIFIED

  ****  Section 018 LblCom SEMANTIC_ORDERING

  ****  Scalars and arrays  ****
OctLoc.c.b A Datatyp(siz) R M Lvl/name                 OctLoc.c.b A Datatyp(siz) R M Lvl/name

     0-0-0/b BIT               1 SEMANTIC_ORDERING

  ****  Section 019 LblCom ERR_SEV

  ****  Scalars and arrays  ****
OctLoc.c.b A Datatyp(siz) R M Lvl/name                 OctLoc.c.b A Datatyp(siz) R M Lvl/name

     0-0-0/w SBIN              1 ERR_SEV

  ****  Section 020 LblCom SET_LENGTHB

  ****  Scalars and arrays  ****
OctLoc.c.b A Datatyp(siz) R M Lvl/name                 OctLoc.c.b A Datatyp(siz) R M Lvl/name
PL6.E3A0      #007=EXPAND_PREFIX File=LR_ERRREC.:Z8A6TSI                         SAT 08/09/97 09:30 Page:210

     0-0-0/w SBIN              1 SET_LENGTHB

  ****  Section 021 LblCom SET_LENGTHW

  ****  Scalars and arrays  ****
OctLoc.c.b A Datatyp(siz) R M Lvl/name                 OctLoc.c.b A Datatyp(siz) R M Lvl/name

     0-0-0/w SBIN              1 SET_LENGTHW

  ****  Section 022 LblCom EOF_SYMBOL_PTR

  ****  Scalars and arrays  ****
OctLoc.c.b A Datatyp(siz) R M Lvl/name                 OctLoc.c.b A Datatyp(siz) R M Lvl/name

     0-0-0/w PTR               1 EOF_SYMBOL_PTR

  ****  Section 023 LblCom ERROR_SYMBOL_PTR

  ****  Scalars and arrays  ****
OctLoc.c.b A Datatyp(siz) R M Lvl/name                 OctLoc.c.b A Datatyp(siz) R M Lvl/name

     0-0-0/w PTR               1 ERROR_SYMBOL_PTR

  ****  Section 024 LblCom BOF_SYMBOL_PTR

  ****  Scalars and arrays  ****
OctLoc.c.b A Datatyp(siz) R M Lvl/name                 OctLoc.c.b A Datatyp(siz) R M Lvl/name

     0-0-0/w PTR               1 BOF_SYMBOL_PTR

  ****  Section 025 LblCom OPTIONS

  ****  Scalars and arrays  ****
OctLoc.c.b A Datatyp(siz) R M Lvl/name                 OctLoc.c.b A Datatyp(siz) R M Lvl/name

     0-0-0/b BIT               1 OPTIONS(0:25)
PL6.E3A0      #007=EXPAND_PREFIX File=LR_ERRREC.:Z8A6TSI                         SAT 08/09/97 09:30 Page:211

  ****  Section 026 LblCom OPTIONS_TEXT

  ****  Scalars and arrays  ****
OctLoc.c.b A Datatyp(siz) R M Lvl/name                 OctLoc.c.b A Datatyp(siz) R M Lvl/name

     0-0-0/c CHAR(4)           1 OPTIONS_TEXT(0:25)

  ****  Section 027 LblCom INSTR

  ****  Scalars and arrays  ****
OctLoc.c.b A Datatyp(siz) R M Lvl/name                 OctLoc.c.b A Datatyp(siz) R M Lvl/name

     0-0-0/c CHAR              1 INSTR(0:511)               0-0-0/c CHAR(512)         1 INSTRCHR

  ****  Section 028 LblCom INSTR_LISTED

  ****  Scalars and arrays  ****
OctLoc.c.b A Datatyp(siz) R M Lvl/name                 OctLoc.c.b A Datatyp(siz) R M Lvl/name

     0-0-0/b BIT               1 INSTR_LISTED

  ****  Section 029 LblCom INSTR_LEN

  ****  Scalars and arrays  ****
OctLoc.c.b A Datatyp(siz) R M Lvl/name                 OctLoc.c.b A Datatyp(siz) R M Lvl/name

     0-0-0/w SBIN              1 INSTR_LEN

  ****  Section 030 LblCom INSTR_INDX

  ****  Scalars and arrays  ****
OctLoc.c.b A Datatyp(siz) R M Lvl/name                 OctLoc.c.b A Datatyp(siz) R M Lvl/name

     0-0-0/w SBIN              1 INSTR_INDX

  ****  Section 031 LblCom EOF_FLAG
PL6.E3A0      #007=EXPAND_PREFIX File=LR_ERRREC.:Z8A6TSI                         SAT 08/09/97 09:30 Page:212

  ****  Scalars and arrays  ****
OctLoc.c.b A Datatyp(siz) R M Lvl/name                 OctLoc.c.b A Datatyp(siz) R M Lvl/name

     0-0-0/b BIT               1 EOF_FLAG

  ****  Section 032 LblCom KEY_REC

  ****  Scalars and arrays  ****
OctLoc.c.b A Datatyp(siz) R M Lvl/name                 OctLoc.c.b A Datatyp(siz) R M Lvl/name

     0-0-0/c CHAR(10)          1 KEY_REC

  ****  Section 033 LblCom LINE

  ****  Scalars and arrays  ****
OctLoc.c.b A Datatyp(siz) R M Lvl/name                 OctLoc.c.b A Datatyp(siz) R M Lvl/name

     0-0-0/c CHAR(109)         1 LINE

  ****  Section 034 LblCom LINELEN

  ****  Scalars and arrays  ****
OctLoc.c.b A Datatyp(siz) R M Lvl/name                 OctLoc.c.b A Datatyp(siz) R M Lvl/name

     0-0-0/w SBIN              1 LINELEN

  ****  Section 035 LblCom TSTATS

  ****  Scalars and arrays  ****
OctLoc.c.b A Datatyp(siz) R M Lvl/name                 OctLoc.c.b A Datatyp(siz) R M Lvl/name

     0-0-0/w STRC(7380)        1 TSTATS

  ****  Section 036 LblCom C#_TO_$

  ****  Scalars and arrays  ****
PL6.E3A0      #007=EXPAND_PREFIX File=LR_ERRREC.:Z8A6TSI                         SAT 08/09/97 09:30 Page:213
OctLoc.c.b A Datatyp(siz) R M Lvl/name                 OctLoc.c.b A Datatyp(siz) R M Lvl/name

     0-0-0/w PTR               1 C#_TO_$(0:2200)

  ****  Section 037 LblCom NR_CONFIG

  ****  Scalars and arrays  ****
OctLoc.c.b A Datatyp(siz) R M Lvl/name                 OctLoc.c.b A Datatyp(siz) R M Lvl/name

     0-0-0/w SBIN              1 NR_CONFIG

  ****  Section 038 LblCom INIT_CONFIG

  ****  Scalars and arrays  ****
OctLoc.c.b A Datatyp(siz) R M Lvl/name                 OctLoc.c.b A Datatyp(siz) R M Lvl/name

     0-0-0/w SBIN              1 INIT_CONFIG

  ****  Section 039 LblCom MAX_BASIS_ITEMS

  ****  Scalars and arrays  ****
OctLoc.c.b A Datatyp(siz) R M Lvl/name                 OctLoc.c.b A Datatyp(siz) R M Lvl/name

     0-0-0/w SBIN              1 MAX_BASIS_ITEMS

  ****  Section 040 LblCom MAX_TOTAL_ITEMS

  ****  Scalars and arrays  ****
OctLoc.c.b A Datatyp(siz) R M Lvl/name                 OctLoc.c.b A Datatyp(siz) R M Lvl/name

     0-0-0/w SBIN              1 MAX_TOTAL_ITEMS

  ****  Section 041 LblCom LAST_BINSRCH_ONLY

  ****  Scalars and arrays  ****
OctLoc.c.b A Datatyp(siz) R M Lvl/name                 OctLoc.c.b A Datatyp(siz) R M Lvl/name

PL6.E3A0      #007=EXPAND_PREFIX File=LR_ERRREC.:Z8A6TSI                         SAT 08/09/97 09:30 Page:214
     0-0-0/w SBIN              1 LAST_BINSRCH_ONLY

  ****  Section 042 LblCom LAST_BOTH_BITBIN

  ****  Scalars and arrays  ****
OctLoc.c.b A Datatyp(siz) R M Lvl/name                 OctLoc.c.b A Datatyp(siz) R M Lvl/name

     0-0-0/w SBIN              1 LAST_BOTH_BITBIN

  ****  Section 043 LblCom GARBAGE

  ****  Scalars and arrays  ****
OctLoc.c.b A Datatyp(siz) R M Lvl/name                 OctLoc.c.b A Datatyp(siz) R M Lvl/name

     0-0-0/w PTR               1 GARBAGE(0:100)

  ****  Section 044 LblCom AMT_GARBAGE

  ****  Scalars and arrays  ****
OctLoc.c.b A Datatyp(siz) R M Lvl/name                 OctLoc.c.b A Datatyp(siz) R M Lvl/name

     0-0-0/w SBIN              1 AMT_GARBAGE

  ****  Section 045 LblCom LEAST_COST_STRING

  ****  Scalars and arrays  ****
OctLoc.c.b A Datatyp(siz) R M Lvl/name                 OctLoc.c.b A Datatyp(siz) R M Lvl/name

     0-0-0/w PTR               1 LEAST_COST_STRING(0:1400)

  ****  Section 046 LblCom LEAST_COST_PREFIX

  ****  Scalars and arrays  ****
OctLoc.c.b A Datatyp(siz) R M Lvl/name                 OctLoc.c.b A Datatyp(siz) R M Lvl/name

     0-0-0/w PTR         r     1 LEAST_COST_PREFIX(0:1400)

PL6.E3A0      #007=EXPAND_PREFIX File=LR_ERRREC.:Z8A6TSI                         SAT 08/09/97 09:30 Page:215
  ****  Section 047 LblCom CURRE

  ****  Scalars and arrays  ****
OctLoc.c.b A Datatyp(siz) R M Lvl/name                 OctLoc.c.b A Datatyp(siz) R M Lvl/name

     0-0-0/d STRC(126)   r     1 CURRE(0:1400)

  ****  Section 048 LblCom LCP_INDX

  ****  Scalars and arrays  ****
OctLoc.c.b A Datatyp(siz) R M Lvl/name                 OctLoc.c.b A Datatyp(siz) R M Lvl/name

     0-0-0/h SBIN(18)          1 LCP_INDX(0:1400)

  ****  Section 049 LblCom COM_STRSP_LEN

  ****  Scalars and arrays  ****
OctLoc.c.b A Datatyp(siz) R M Lvl/name                 OctLoc.c.b A Datatyp(siz) R M Lvl/name

     0-0-0/w SBIN        r     1 COM_STRSP_LEN

  ****  Section 050 LblCom COM_SEARCH_STRING

  ****  Scalars and arrays  ****
OctLoc.c.b A Datatyp(siz) R M Lvl/name                 OctLoc.c.b A Datatyp(siz) R M Lvl/name

     0-0-0/w PTR         r     1 COM_SEARCH_STRING

  ****  Section 051 LblCom COM_SEARCH_STRING_LEN

  ****  Scalars and arrays  ****
OctLoc.c.b A Datatyp(siz) R M Lvl/name                 OctLoc.c.b A Datatyp(siz) R M Lvl/name

     0-0-0/w SBIN        r     1 COM_SEARCH_STRING_LEN

  ****  Section 052 LblCom COM_STRING_SPACE_LEN

PL6.E3A0      #007=EXPAND_PREFIX File=LR_ERRREC.:Z8A6TSI                         SAT 08/09/97 09:30 Page:216
  ****  Scalars and arrays  ****
OctLoc.c.b A Datatyp(siz) R M Lvl/name                 OctLoc.c.b A Datatyp(siz) R M Lvl/name

     0-0-0/w SBIN        r     1 COM_STRING_SPACE_LEN

  ****  Section 053 LblCom COM_STRING_SPACE_H

  ****  Scalars and arrays  ****
OctLoc.c.b A Datatyp(siz) R M Lvl/name                 OctLoc.c.b A Datatyp(siz) R M Lvl/name

     0-0-0/h SBIN(18)    r     1 COM_STRING_SPACE_H(0:24999)

  ****  Section 054 LblCom COM_STRING_SPACE$

  ****  Scalars and arrays  ****
OctLoc.c.b A Datatyp(siz) R M Lvl/name                 OctLoc.c.b A Datatyp(siz) R M Lvl/name

     0-0-0/w PTR         r     1 COM_STRING_SPACE$

  ****  Section 055 LblCom COM_STRING_PTR

  ****  Scalars and arrays  ****
OctLoc.c.b A Datatyp(siz) R M Lvl/name                 OctLoc.c.b A Datatyp(siz) R M Lvl/name

     0-0-0/w PTR         r     1 COM_STRING_PTR

  ****  Section 056 LblCom COM_STRING_INDX

  ****  Scalars and arrays  ****
OctLoc.c.b A Datatyp(siz) R M Lvl/name                 OctLoc.c.b A Datatyp(siz) R M Lvl/name

     0-0-0/w SBIN              1 COM_STRING_INDX

  ****  Section 057 LblCom LCP_TABLE_LEN

  ****  Scalars and arrays  ****
OctLoc.c.b A Datatyp(siz) R M Lvl/name                 OctLoc.c.b A Datatyp(siz) R M Lvl/name
PL6.E3A0      #007=EXPAND_PREFIX File=LR_ERRREC.:Z8A6TSI                         SAT 08/09/97 09:30 Page:217

     0-0-0/w SBIN              1 LCP_TABLE_LEN

  ****  Section 058 LblCom STATE_ITEM_INDEX

  ****  Scalars and arrays  ****
OctLoc.c.b A Datatyp(siz) R M Lvl/name                 OctLoc.c.b A Datatyp(siz) R M Lvl/name

     0-0-0/h STRC              1 STATE_ITEM_INDEX(0:2200)

  ****  Section 059 LblCom PATH

  ****  Scalars and arrays  ****
OctLoc.c.b A Datatyp(siz) R M Lvl/name                 OctLoc.c.b A Datatyp(siz) R M Lvl/name

     0-0-0/h STRC        r     1 PATH(0:17600)

  ****  Section 060 LblCom PATH_STRINGS_LEN

  ****  Scalars and arrays  ****
OctLoc.c.b A Datatyp(siz) R M Lvl/name                 OctLoc.c.b A Datatyp(siz) R M Lvl/name

     0-0-0/w SBIN        r     1 PATH_STRINGS_LEN

  ****  Section 061 LblCom PATH_ADDR$

  ****  Scalars and arrays  ****
OctLoc.c.b A Datatyp(siz) R M Lvl/name                 OctLoc.c.b A Datatyp(siz) R M Lvl/name

     0-0-0/w PTR         r     1 PATH_ADDR$

  ****  Section 062 LblCom PATH_TABLE_LEN

  ****  Scalars and arrays  ****
OctLoc.c.b A Datatyp(siz) R M Lvl/name                 OctLoc.c.b A Datatyp(siz) R M Lvl/name

     0-0-0/w SBIN              1 PATH_TABLE_LEN
PL6.E3A0      #007=EXPAND_PREFIX File=LR_ERRREC.:Z8A6TSI                         SAT 08/09/97 09:30 Page:218

  ****  Section 063 LblCom EDGECOST

  ****  Scalars and arrays  ****
OctLoc.c.b A Datatyp(siz) R M Lvl/name                 OctLoc.c.b A Datatyp(siz) R M Lvl/name

     0-0-0/w SBIN              1 EDGECOST(0:400)

  ****  Section 064 LblCom ITEM_TABLE_LEN

  ****  Scalars and arrays  ****
OctLoc.c.b A Datatyp(siz) R M Lvl/name                 OctLoc.c.b A Datatyp(siz) R M Lvl/name

     0-0-0/w SBIN              1 ITEM_TABLE_LEN

  ****  Section 065 LblCom ORDERED_ITEM

  ****  Scalars and arrays  ****
OctLoc.c.b A Datatyp(siz) R M Lvl/name                 OctLoc.c.b A Datatyp(siz) R M Lvl/name

     0-0-0/h STRC              1 ORDERED_ITEM(0:400)

  ****  Section 066 LblCom NEIGHBOR

  ****  Scalars and arrays  ****
OctLoc.c.b A Datatyp(siz) R M Lvl/name                 OctLoc.c.b A Datatyp(siz) R M Lvl/name

     0-0-0/w SBIN              1 NEIGHBOR(0:400)

  ****  Section 067 LblCom PATH_INFO

  ****  Scalars and arrays  ****
OctLoc.c.b A Datatyp(siz) R M Lvl/name                 OctLoc.c.b A Datatyp(siz) R M Lvl/name

     0-0-0/w STRC(28872)       1 PATH_INFO

  ****  Section 068 LblCom CHOSEN
PL6.E3A0      #007=EXPAND_PREFIX File=LR_ERRREC.:Z8A6TSI                         SAT 08/09/97 09:30 Page:219

  ****  Scalars and arrays  ****
OctLoc.c.b A Datatyp(siz) R M Lvl/name                 OctLoc.c.b A Datatyp(siz) R M Lvl/name

     0-0-0/w BIT               1 CHOSEN(0:400)

  ****  Section 069 LblCom REACHED

  ****  Scalars and arrays  ****
OctLoc.c.b A Datatyp(siz) R M Lvl/name                 OctLoc.c.b A Datatyp(siz) R M Lvl/name

     0-0-0/b BIT               1 REACHED(0:400)

  ****  Section 070 LblCom EXP_PATH_INDX

  ****  Scalars and arrays  ****
OctLoc.c.b A Datatyp(siz) R M Lvl/name                 OctLoc.c.b A Datatyp(siz) R M Lvl/name

     0-0-0/w SBIN              1 EXP_PATH_INDX

  ****  Auto variables  ****

  ****  Scalars and arrays  ****
OctLoc.c.b A Datatyp(siz) R M Lvl/name                 OctLoc.c.b A Datatyp(siz) R M Lvl/name

     3-0-0/w PTR         r     1 @NT                        4-0-0/w PTR         r     1 @T
    *0-0-0/w SBIN        r     1 NT                         5-0-0/w SBIN        r     1 RP
    10-0-0/w PTR         r     1 SP                         6-0-0/w SBIN        r     1 STRLEN
     7-0-0/w SBIN        r     1 SYM                       *0-0-0/w SBIN        r     1 T

  ****  BASED and DCB variables  ****

  ****  Scalars and arrays  ****
OctLoc.c.b A Datatyp(siz) R M Lvl/name                 OctLoc.c.b A Datatyp(siz) R M Lvl/name

     0-0-0/w STRC(72)          1 CELL                       0-0-0/c ACHR              1 COM_STRINGS
     0-0-0/c ACHR              1 COM_STRING_SPACE           0-0-0/c ACHR              1 CSEARCH_STRING
PL6.E3A0      #007=EXPAND_PREFIX File=LR_ERRREC.:Z8A6TSI                         SAT 08/09/97 09:30 Page:220
     0-0-0/w STRC(57888)       1 C_SET_B                    0-0-0/w STRC(72)          1 INCLUDES_B
     0-0-0/w STRC(144)         1 INCL_B                     0-0-0/w STRC(5436)        1 ITEM_B
     0-0-0/w STRC(5652)        1 KEY_B                      0-0-0N  NULL        r     1 M$LO
     0-0-0N  NULL        r     1 M$OU                       0-0-0N  NULL        r     1 M$SI
     0-0-0N  NULL        r     1 M$SO                       0-0-0N  NULL        r     1 M$UI
     0-0-0/c ACHR              1 PATH_STRINGS               0-0-0/w STRC(90)    r     1 PREFIX
     0-0-0/w ASTR(72)    r     1 PREFIXCHR                  0-0-0/w STRC              1 STRING
     0-0-0/w ASTR(18)    r     1 STRINGCHR                  0-0-0/w STRC(351)         1 SYMBOL


   Procedure EXPAND_PREFIX requires 131 words for executable code.
   Procedure EXPAND_PREFIX requires 14 words of local(AUTO) storage.

PL6.E3A0      #008=OUTPUT_DELETION_COSTS File=LR_ERRREC.:Z8A6TSI                 SAT 08/09/97 09:31 Page:221
      701        1        /*T***********************************************************/
      702        2        /*T*                                                         */
      703        3        /*T* Copyright (c) Bull HN Information Systems Inc., 1997    */
      704        4        /*T*                                                         */
      705        5        /*T***********************************************************/
      706        6        OUTPUT_DELETION_COSTS : PROC;
      707        7
      708        8        /*D*
      709        9               NAME: OUTPUT_DELETION_COSTS
      710       10            PURPOSE: OUTPUT A VECTOR OF DELETION COSTS INDEXED BY
      711       11                     TERMINAL NUMBER.
      712       12        */
      713       13
      714       14        %INCLUDE LR_GRAM_EXT;
      715      553
      716      554    1   DCL OUT_STR ENTRY(2);
      717      555    1   DCL OUT_DEC ENTRY(1);
      718      556    1   DCL OUT_SYMBOL ENTRY(1);
      719      557    1   DCL OUT_SYMBOL_TOKEN ENTRY(1);
      720      558    1   DCL FLUSH   ENTRY;
      721      559
      722      560    1   DCL T SBIN WORD;
      723      561
      724      562
      725      563        %SELECT_SUBS;
      726      566
      727      567        %OUT_STR(S="'%EQU DEL_COST_LEN = '");
      728      570    1   CALL OUT_DEC(NR_TERM);
      729      571        %OUT_STR(S="';'");
      730      574    1   CALL FLUSH;
      731      575
      732      576        %STAT_LENGTH(T=DEL_COST, V="NR_TERM+1");
      733      579
      734      580        %SELECT_OU;
      735      583
      736      584        %OUTLINE(S="'%START_TABLE_DEL_COST;'");
      737      590
PL6.E3A0      #008=OUTPUT_DELETION_COSTS File=LR_ERRREC.:Z8A6TSI                 SAT 08/09/97 09:31 Page:222
      738      591    2   DO T = 1 TO NR_TERM;
      739      592
      740      593          %OUT_STR(S="'  %DELC(C='");
      741      596    2     CALL OUT_DEC(BINBIT(SYM_PTRS(T) -> SYMBOL.COST.DEL,36));
      742      597
      743      598          %BOUNDS(T=DEL_COST, V="SYM_PTRS(T) -> SYMBOL.COST.DEL");
      744      604
      745      605          %OUT_STR(S="');  /* '");
      746      608    2     CALL OUT_SYMBOL(SYM_PTRS(T));
      747      609          %OUT_STR(S="' */'");
      748      612    2     CALL FLUSH;
      749      613
      750      614    2   END;
      751      615
      752      616        %OUTLINE(S="'%END_TABLE_DEL_COST;'");
      753      622
      754      623    1   END OUTPUT_DELETION_COSTS;
      755      624        %EOD;

PL6.E3A0      #008=OUTPUT_DELETION_COSTS File=LR_ERRREC.:Z8A6TSI                 SAT 08/09/97 09:31 Page:223
--  Include file information  --

   LR_IO_EXT.:Z8A6TOU  cannot be made into a system file and is referenced.
   LR_GRAM_EXT.:Z8A6TOU  cannot be made into a system file and is referenced.
      No diagnostics issued in procedure OUTPUT_DELETION_COSTS.

   Procedure OUTPUT_DELETION_COSTS requires 96 words for executable code.
   Procedure OUTPUT_DELETION_COSTS requires 8 words of local(AUTO) storage.

PL6.E3A0      #008=OUTPUT_DELETION_COSTS File=LR_ERRREC.:Z8A6TSI                 SAT 08/09/97 09:31 Page:224

 Object Unit name= OUTPUT_DELETION_COSTS                      File name= LR_ERRREC.:Z8A6TOU
 UTS= AUG 09 '97 09:31:13.88 SAT                              Compiler= PL-6/E31         Sev=      00
 SharedLib= :SHARED_SYSTEM                                    Alt SharedLib=


    ****  Control sections  ****

 Sect   Type Bound  Init  Size OctSiz  Section name(segment info)
    0  LblCom even  none     1      1  OUT_DCBN
    1   DCB   even  none     0      0  M$OU
    2   DCB   even  none     0      0  M$SO
    3   DCB   even  none     0      0  M$LO
    4   DCB   even  none     0      0  M$SI
    5   DCB   even  none     0      0  M$UI
    6  LblCom even  none  1401   2571  SYM_PTRS
    7  LblCom even  none  4001   7641  RIGHT_PARTS
    8  LblCom even  none  3002   5672  PROD
    9  LblCom even  none     1      1  NR_PROD
   10  LblCom even  none     1      1  NR_SYMS
   11  LblCom even  none     1      1  NR_TERM
   12  LblCom even  none     1      1  LAST_ACT
   13  LblCom even  none     1      1  LAST_NULL
   14  LblCom even  none     1      1  NR_ONRIGHT
   15  LblCom even  none     1      1  NR_NT
   16  LblCom even  none     1      1  PROD_LEN_MAX_EVER
   17  LblCom even  none     1      1  LAST_ORDER_SPECIFIED
   18  LblCom even  none     1      1  SEMANTIC_ORDERING
   19  LblCom even  none     1      1  ERR_SEV
   20  LblCom even  none     1      1  SET_LENGTHB
   21  LblCom even  none     1      1  SET_LENGTHW
   22  LblCom even  none     1      1  EOF_SYMBOL_PTR
   23  LblCom even  none     1      1  ERROR_SYMBOL_PTR
   24  LblCom even  none     1      1  BOF_SYMBOL_PTR
   25  LblCom even  none     1      1  OPTIONS
   26  LblCom even  none    26     32  OPTIONS_TEXT
   27  LblCom even  none   128    200  INSTR
   28  LblCom even  none     1      1  INSTR_LISTED
PL6.E3A0      #008=OUTPUT_DELETION_COSTS File=LR_ERRREC.:Z8A6TSI                 SAT 08/09/97 09:31 Page:225
   29  LblCom even  none     1      1  INSTR_LEN
   30  LblCom even  none     1      1  INSTR_INDX
   31  LblCom even  none     1      1  EOF_FLAG
   32  LblCom even  none     3      3  KEY_REC
   33  LblCom even  none    28     34  LINE
   34  LblCom even  none     1      1  LINELEN
   35  LblCom even  none   205    315  TSTATS
   36  RoData even  UTS     22     26  OUTPUT_DELETION_COSTS
   37   Proc  even  none    96    140  OUTPUT_DELETION_COSTS
   38  RoData even  none    25     31  OUTPUT_DELETION_COSTS

    ****  Entry defs  ****

                              Check   Calling
                             calling  sequence
  Sect OctLoc Primary Altret sequence   type   Parms  Name
    37      0   yes            yes      Std        0  OUTPUT_DELETION_COSTS

  ****  Entry refs  ****

         Check        Calling
        calling       sequence
Altret sequence SRef   type   Args  Name
         yes           Std       2 OUT_STR
         yes           Std       0 FLUSH
         yes           Std       1 OUT_SYMBOL
         yes           Std       1 OUT_DEC
                       nStd      0 X66_AUTO_0
                       nStd      0 X66_ARET

  ****  Data refs  ****

  Flags:  r = read only, s = secondary
Flgs Name                             Flgs Name                             Flgs Name
     M$OU                                  M$SO                                  M$LO
     M$SI                                  M$UI
PL6.E3A0      #008=OUTPUT_DELETION_COSTS File=LR_ERRREC.:Z8A6TSI                 SAT 08/09/97 09:31 Page:226

  ****  Segment refs  ****

  Flags:  r = read only, s = secondary
Flgs Name                             Flgs Name                             Flgs Name
     NULLSID                               ISSID
PL6.E3A0      #008=OUTPUT_DELETION_COSTS File=LR_ERRREC.:Z8A6TSI                 SAT 08/09/97 09:31 Page:227


      701        1        /*T***********************************************************/
      702        2        /*T*                                                         */
      703        3        /*T* Copyright (c) Bull HN Information Systems Inc., 1997    */
      704        4        /*T*                                                         */
      705        5        /*T***********************************************************/
      706        6        OUTPUT_DELETION_COSTS : PROC;

      6 37 000000   000000 700200 xent  OUTPUT_DELE* TSX0  ! X66_AUTO_0
        37 000001   000010 000000                    ZERO    8,0

      707        7
      708        8        /*D*
      709        9               NAME: OUTPUT_DELETION_COSTS
      710       10            PURPOSE: OUTPUT A VECTOR OF DELETION COSTS INDEXED BY
      711       11                     TERMINAL NUMBER.
      712       12        */
      713       13
      714       14        %INCLUDE LR_GRAM_EXT;
      715      553
      716      554    1   DCL OUT_STR ENTRY(2);
      717      555    1   DCL OUT_DEC ENTRY(1);
      718      556    1   DCL OUT_SYMBOL ENTRY(1);
      719      557    1   DCL OUT_SYMBOL_TOKEN ENTRY(1);
      720      558    1   DCL FLUSH   ENTRY;
      721      559
      722      560    1   DCL T SBIN WORD;
      723      561
      724      562
      725      563        %SELECT_SUBS;

    564 37 000002   000000 236007 xsym               LDQ     M$SO,DL
        37 000003   000000 756000 0                  STQ     OUT_DCBN

      726      566
      727      567        %OUT_STR(S="'%EQU DEL_COST_LEN = '");

PL6.E3A0      #008=OUTPUT_DELETION_COSTS File=LR_ERRREC.:Z8A6TSI                 SAT 08/09/97 09:31 Page:228
    568 37 000004   000002 630400 38                 EPPR0   2
        37 000005   000000 631400 38                 EPPR1   0
        37 000006   000000 701000 xent               TSX1    OUT_STR
        37 000007   000000 011000                    NOP     0

      728      570    1   CALL OUT_DEC(NR_TERM);

    570 37 000010   000005 630400 38                 EPPR0   5
        37 000011   000004 631400 38                 EPPR1   4
        37 000012   000000 701000 xent               TSX1    OUT_DEC
        37 000013   000000 011000                    NOP     0

      729      571        %OUT_STR(S="';'");

    572 37 000014   000010 630400 38                 EPPR0   8
        37 000015   000000 631400 38                 EPPR1   0
        37 000016   000000 701000 xent               TSX1    OUT_STR
        37 000017   000000 011000                    NOP     0

      730      574    1   CALL FLUSH;

    574 37 000020   000012 631400 38                 EPPR1   10
        37 000021   000000 701000 xent               TSX1    FLUSH
        37 000022   000000 011000                    NOP     0

      731      575
      732      576        %STAT_LENGTH(T=DEL_COST, V="NR_TERM+1");

    577 37 000023   000000 235000 11                 LDA     NR_TERM
        37 000024   000001 035007                    ADLA    1,DL
        37 000025   000215 755000 35                 STA     TSTATS+141

      733      579
      734      580        %SELECT_OU;

    581 37 000026   000000 236007 xsym               LDQ     M$OU,DL
        37 000027   000000 756000 0                  STQ     OUT_DCBN
PL6.E3A0      #008=OUTPUT_DELETION_COSTS File=LR_ERRREC.:Z8A6TSI                 SAT 08/09/97 09:31 Page:229

      735      583
      736      584        %OUTLINE(S="'%START_TABLE_DEL_COST;'");

    586 37 000030   000014 630400 38                 EPPR0   12
        37 000031   000000 631400 38                 EPPR1   0
        37 000032   000000 701000 xent               TSX1    OUT_STR
        37 000033   000000 011000                    NOP     0

    587 37 000034   000012 631400 38                 EPPR1   10
        37 000035   000000 701000 xent               TSX1    FLUSH
        37 000036   000000 011000                    NOP     0

      737      590
      738      591    2   DO T = 1 TO NR_TERM;

    591 37 000037   000001 235007                    LDA     1,DL
        37 000040   200003 755100                    STA     T,,AUTO
        37 000041   000125 710000 37                 TRA     s:614+1

      739      592
      740      593          %OUT_STR(S="'  %DELC(C='");

    594 37 000042   000017 630400 38                 EPPR0   15
        37 000043   000000 631400 38                 EPPR1   0
        37 000044   000000 701000 xent               TSX1    OUT_STR
        37 000045   000000 011000                    NOP     0

      741      596    2     CALL OUT_DEC(BINBIT(SYM_PTRS(T) -> SYMBOL.COST.DEL,36));

    596 37 000046   200003 720100                    LXL0    T,,AUTO
        37 000047   000000 470410 6                  LDP0    SYM_PTRS,X0
        37 000050   000005 236100                    LDQ     5,,PR0
        37 000051   000022 736000                    QLS     18
        37 000052   000022 732000                    QRS     18
        37 000053   200004 756100                    STQ     T+1,,AUTO
        37 000054   200004 631500                    EPPR1   T+1,,AUTO
PL6.E3A0      #008=OUTPUT_DELETION_COSTS File=LR_ERRREC.:Z8A6TSI                 SAT 08/09/97 09:31 Page:230
        37 000055   200006 451500                    STP1    T+3,,AUTO
        37 000056   200006 630500                    EPPR0   T+3,,AUTO
        37 000057   000004 631400 38                 EPPR1   4
        37 000060   000000 701000 xent               TSX1    OUT_DEC
        37 000061   000000 011000                    NOP     0

      742      597
      743      598          %BOUNDS(T=DEL_COST, V="SYM_PTRS(T) -> SYMBOL.COST.DEL");

    600 37 000062   200003 720100                    LXL0    T,,AUTO
        37 000063   000000 470410 6                  LDP0    SYM_PTRS,X0
        37 000064   000005 236100                    LDQ     5,,PR0
        37 000065   000022 736000                    QLS     18
        37 000066   000022 732000                    QRS     18
        37 000067   000214 116000 35                 CMPQ    TSTATS+140
        37 000070   000072 604400 37                 TMOZ    s:600+8
        37 000071   000214 236000 35                 LDQ     TSTATS+140
        37 000072   000214 756000 35                 STQ     TSTATS+140

    601 37 000073   000005 236100                    LDQ     5,,PR0
        37 000074   000022 736000                    QLS     18
        37 000075   000022 732000                    QRS     18
        37 000076   000213 116000 35                 CMPQ    TSTATS+139
        37 000077   000101 605000 37                 TPL     s:601+6
        37 000100   000213 236000 35                 LDQ     TSTATS+139
        37 000101   000213 756000 35                 STQ     TSTATS+139

      744      604
      745      605          %OUT_STR(S="');  /* '");

    606 37 000102   000022 630400 38                 EPPR0   18
        37 000103   000000 631400 38                 EPPR1   0
        37 000104   000000 701000 xent               TSX1    OUT_STR
        37 000105   000000 011000                    NOP     0

      746      608    2     CALL OUT_SYMBOL(SYM_PTRS(T));

PL6.E3A0      #008=OUTPUT_DELETION_COSTS File=LR_ERRREC.:Z8A6TSI                 SAT 08/09/97 09:31 Page:231
    608 37 000106   200003 720100                    LXL0    T,,AUTO
        37 000107   000000 630410 6                  EPPR0   SYM_PTRS,X0
        37 000110   200004 450500                    STP0    T+1,,AUTO
        37 000111   200004 630500                    EPPR0   T+1,,AUTO
        37 000112   000004 631400 38                 EPPR1   4
        37 000113   000000 701000 xent               TSX1    OUT_SYMBOL
        37 000114   000000 011000                    NOP     0

      747      609          %OUT_STR(S="' */'");

    610 37 000115   000025 630400 38                 EPPR0   21
        37 000116   000000 631400 38                 EPPR1   0
        37 000117   000000 701000 xent               TSX1    OUT_STR
        37 000120   000000 011000                    NOP     0

      748      612    2     CALL FLUSH;

    612 37 000121   000012 631400 38                 EPPR1   10
        37 000122   000000 701000 xent               TSX1    FLUSH
        37 000123   000000 011000                    NOP     0

      749      613
      750      614    2   END;

    614 37 000124   200003 054100                    AOS     T,,AUTO
        37 000125   200003 236100                    LDQ     T,,AUTO
        37 000126   000000 116000 11                 CMPQ    NR_TERM
        37 000127   000042 604400 37                 TMOZ    s:594

      751      615
      752      616        %OUTLINE(S="'%END_TABLE_DEL_COST;'");

    618 37 000130   000027 630400 38                 EPPR0   23
        37 000131   000000 631400 38                 EPPR1   0
        37 000132   000000 701000 xent               TSX1    OUT_STR
        37 000133   000000 011000                    NOP     0

PL6.E3A0      #008=OUTPUT_DELETION_COSTS File=LR_ERRREC.:Z8A6TSI                 SAT 08/09/97 09:31 Page:232
    619 37 000134   000012 631400 38                 EPPR1   10
        37 000135   000000 701000 xent               TSX1    FLUSH
        37 000136   000000 011000                    NOP     0

      753      622
      754      623    1   END OUTPUT_DELETION_COSTS;

    623 37 000137   000000 702200 xent               TSX2  ! X66_ARET
      755      624        %EOD;

PL6.E3A0      #008=OUTPUT_DELETION_COSTS File=LR_ERRREC.:Z8A6TSI                 SAT 08/09/97 09:31 Page:233
--  Include file information  --

   LR_IO_EXT.:Z8A6TOU  cannot be made into a system file and is referenced.
   LR_GRAM_EXT.:Z8A6TOU  cannot be made into a system file and is referenced.
      No diagnostics issued in procedure OUTPUT_DELETION_COSTS.
PL6.E3A0      #008=OUTPUT_DELETION_COSTS File=LR_ERRREC.:Z8A6TSI                 SAT 08/09/97 09:31 Page:234

 **** Variables and constants ****

  ****  Section 000 LblCom OUT_DCBN

  ****  Scalars and arrays  ****
OctLoc.c.b A Datatyp(siz) R M Lvl/name                 OctLoc.c.b A Datatyp(siz) R M Lvl/name

     0-0-0/w SBIN        r     1 OUT_DCBN

  ****  Section 006 LblCom SYM_PTRS

  ****  Scalars and arrays  ****
OctLoc.c.b A Datatyp(siz) R M Lvl/name                 OctLoc.c.b A Datatyp(siz) R M Lvl/name

     0-0-0/w PTR         r     1 SYM_PTRS(0:1400)

  ****  Section 007 LblCom RIGHT_PARTS

  ****  Scalars and arrays  ****
OctLoc.c.b A Datatyp(siz) R M Lvl/name                 OctLoc.c.b A Datatyp(siz) R M Lvl/name

     0-0-0/h SBIN(18)          1 RIGHT_PARTS(0:8000)

  ****  Section 008 LblCom PROD

  ****  Scalars and arrays  ****
OctLoc.c.b A Datatyp(siz) R M Lvl/name                 OctLoc.c.b A Datatyp(siz) R M Lvl/name

     0-0-0/h STRC(72)          1 PROD(0:1500)

  ****  Section 009 LblCom NR_PROD

  ****  Scalars and arrays  ****
OctLoc.c.b A Datatyp(siz) R M Lvl/name                 OctLoc.c.b A Datatyp(siz) R M Lvl/name

     0-0-0/w SBIN              1 NR_PROD

PL6.E3A0      #008=OUTPUT_DELETION_COSTS File=LR_ERRREC.:Z8A6TSI                 SAT 08/09/97 09:31 Page:235
  ****  Section 010 LblCom NR_SYMS

  ****  Scalars and arrays  ****
OctLoc.c.b A Datatyp(siz) R M Lvl/name                 OctLoc.c.b A Datatyp(siz) R M Lvl/name

     0-0-0/w SBIN              1 NR_SYMS

  ****  Section 011 LblCom NR_TERM

  ****  Scalars and arrays  ****
OctLoc.c.b A Datatyp(siz) R M Lvl/name                 OctLoc.c.b A Datatyp(siz) R M Lvl/name

     0-0-0/w SBIN        r     1 NR_TERM

  ****  Section 012 LblCom LAST_ACT

  ****  Scalars and arrays  ****
OctLoc.c.b A Datatyp(siz) R M Lvl/name                 OctLoc.c.b A Datatyp(siz) R M Lvl/name

     0-0-0/w SBIN              1 LAST_ACT

  ****  Section 013 LblCom LAST_NULL

  ****  Scalars and arrays  ****
OctLoc.c.b A Datatyp(siz) R M Lvl/name                 OctLoc.c.b A Datatyp(siz) R M Lvl/name

     0-0-0/w SBIN              1 LAST_NULL

  ****  Section 014 LblCom NR_ONRIGHT

  ****  Scalars and arrays  ****
OctLoc.c.b A Datatyp(siz) R M Lvl/name                 OctLoc.c.b A Datatyp(siz) R M Lvl/name

     0-0-0/w SBIN              1 NR_ONRIGHT

  ****  Section 015 LblCom NR_NT

PL6.E3A0      #008=OUTPUT_DELETION_COSTS File=LR_ERRREC.:Z8A6TSI                 SAT 08/09/97 09:31 Page:236
  ****  Scalars and arrays  ****
OctLoc.c.b A Datatyp(siz) R M Lvl/name                 OctLoc.c.b A Datatyp(siz) R M Lvl/name

     0-0-0/w SBIN              1 NR_NT

  ****  Section 016 LblCom PROD_LEN_MAX_EVER

  ****  Scalars and arrays  ****
OctLoc.c.b A Datatyp(siz) R M Lvl/name                 OctLoc.c.b A Datatyp(siz) R M Lvl/name

     0-0-0/w SBIN              1 PROD_LEN_MAX_EVER

  ****  Section 017 LblCom LAST_ORDER_SPECIFIED

  ****  Scalars and arrays  ****
OctLoc.c.b A Datatyp(siz) R M Lvl/name                 OctLoc.c.b A Datatyp(siz) R M Lvl/name

     0-0-0/w SBIN              1 LAST_ORDER_SPECIFIED

  ****  Section 018 LblCom SEMANTIC_ORDERING

  ****  Scalars and arrays  ****
OctLoc.c.b A Datatyp(siz) R M Lvl/name                 OctLoc.c.b A Datatyp(siz) R M Lvl/name

     0-0-0/b BIT               1 SEMANTIC_ORDERING

  ****  Section 019 LblCom ERR_SEV

  ****  Scalars and arrays  ****
OctLoc.c.b A Datatyp(siz) R M Lvl/name                 OctLoc.c.b A Datatyp(siz) R M Lvl/name

     0-0-0/w SBIN              1 ERR_SEV

  ****  Section 020 LblCom SET_LENGTHB

  ****  Scalars and arrays  ****
OctLoc.c.b A Datatyp(siz) R M Lvl/name                 OctLoc.c.b A Datatyp(siz) R M Lvl/name
PL6.E3A0      #008=OUTPUT_DELETION_COSTS File=LR_ERRREC.:Z8A6TSI                 SAT 08/09/97 09:31 Page:237

     0-0-0/w SBIN              1 SET_LENGTHB

  ****  Section 021 LblCom SET_LENGTHW

  ****  Scalars and arrays  ****
OctLoc.c.b A Datatyp(siz) R M Lvl/name                 OctLoc.c.b A Datatyp(siz) R M Lvl/name

     0-0-0/w SBIN              1 SET_LENGTHW

  ****  Section 022 LblCom EOF_SYMBOL_PTR

  ****  Scalars and arrays  ****
OctLoc.c.b A Datatyp(siz) R M Lvl/name                 OctLoc.c.b A Datatyp(siz) R M Lvl/name

     0-0-0/w PTR               1 EOF_SYMBOL_PTR

  ****  Section 023 LblCom ERROR_SYMBOL_PTR

  ****  Scalars and arrays  ****
OctLoc.c.b A Datatyp(siz) R M Lvl/name                 OctLoc.c.b A Datatyp(siz) R M Lvl/name

     0-0-0/w PTR               1 ERROR_SYMBOL_PTR

  ****  Section 024 LblCom BOF_SYMBOL_PTR

  ****  Scalars and arrays  ****
OctLoc.c.b A Datatyp(siz) R M Lvl/name                 OctLoc.c.b A Datatyp(siz) R M Lvl/name

     0-0-0/w PTR               1 BOF_SYMBOL_PTR

  ****  Section 025 LblCom OPTIONS

  ****  Scalars and arrays  ****
OctLoc.c.b A Datatyp(siz) R M Lvl/name                 OctLoc.c.b A Datatyp(siz) R M Lvl/name

     0-0-0/b BIT               1 OPTIONS(0:25)
PL6.E3A0      #008=OUTPUT_DELETION_COSTS File=LR_ERRREC.:Z8A6TSI                 SAT 08/09/97 09:31 Page:238

  ****  Section 026 LblCom OPTIONS_TEXT

  ****  Scalars and arrays  ****
OctLoc.c.b A Datatyp(siz) R M Lvl/name                 OctLoc.c.b A Datatyp(siz) R M Lvl/name

     0-0-0/c CHAR(4)           1 OPTIONS_TEXT(0:25)

  ****  Section 027 LblCom INSTR

  ****  Scalars and arrays  ****
OctLoc.c.b A Datatyp(siz) R M Lvl/name                 OctLoc.c.b A Datatyp(siz) R M Lvl/name

     0-0-0/c CHAR              1 INSTR(0:511)               0-0-0/c CHAR(512)         1 INSTRCHR

  ****  Section 028 LblCom INSTR_LISTED

  ****  Scalars and arrays  ****
OctLoc.c.b A Datatyp(siz) R M Lvl/name                 OctLoc.c.b A Datatyp(siz) R M Lvl/name

     0-0-0/b BIT               1 INSTR_LISTED

  ****  Section 029 LblCom INSTR_LEN

  ****  Scalars and arrays  ****
OctLoc.c.b A Datatyp(siz) R M Lvl/name                 OctLoc.c.b A Datatyp(siz) R M Lvl/name

     0-0-0/w SBIN              1 INSTR_LEN

  ****  Section 030 LblCom INSTR_INDX

  ****  Scalars and arrays  ****
OctLoc.c.b A Datatyp(siz) R M Lvl/name                 OctLoc.c.b A Datatyp(siz) R M Lvl/name

     0-0-0/w SBIN              1 INSTR_INDX

  ****  Section 031 LblCom EOF_FLAG
PL6.E3A0      #008=OUTPUT_DELETION_COSTS File=LR_ERRREC.:Z8A6TSI                 SAT 08/09/97 09:31 Page:239

  ****  Scalars and arrays  ****
OctLoc.c.b A Datatyp(siz) R M Lvl/name                 OctLoc.c.b A Datatyp(siz) R M Lvl/name

     0-0-0/b BIT               1 EOF_FLAG

  ****  Section 032 LblCom KEY_REC

  ****  Scalars and arrays  ****
OctLoc.c.b A Datatyp(siz) R M Lvl/name                 OctLoc.c.b A Datatyp(siz) R M Lvl/name

     0-0-0/c CHAR(10)          1 KEY_REC

  ****  Section 033 LblCom LINE

  ****  Scalars and arrays  ****
OctLoc.c.b A Datatyp(siz) R M Lvl/name                 OctLoc.c.b A Datatyp(siz) R M Lvl/name

     0-0-0/c CHAR(109)         1 LINE

  ****  Section 034 LblCom LINELEN

  ****  Scalars and arrays  ****
OctLoc.c.b A Datatyp(siz) R M Lvl/name                 OctLoc.c.b A Datatyp(siz) R M Lvl/name

     0-0-0/w SBIN              1 LINELEN

  ****  Section 035 LblCom TSTATS

  ****  Scalars and arrays  ****
OctLoc.c.b A Datatyp(siz) R M Lvl/name                 OctLoc.c.b A Datatyp(siz) R M Lvl/name

     0-0-0/w STRC(7380)  r     1 TSTATS

  ****  Auto variables  ****

  ****  Scalars and arrays  ****
PL6.E3A0      #008=OUTPUT_DELETION_COSTS File=LR_ERRREC.:Z8A6TSI                 SAT 08/09/97 09:31 Page:240
OctLoc.c.b A Datatyp(siz) R M Lvl/name                 OctLoc.c.b A Datatyp(siz) R M Lvl/name

     3-0-0/w SBIN        r     1 T

  ****  BASED and DCB variables  ****

  ****  Scalars and arrays  ****
OctLoc.c.b A Datatyp(siz) R M Lvl/name                 OctLoc.c.b A Datatyp(siz) R M Lvl/name

     0-0-0N  NULL        r     1 M$LO                       0-0-0N  NULL        r     1 M$OU
     0-0-0N  NULL        r     1 M$SI                       0-0-0N  NULL        r     1 M$SO
     0-0-0N  NULL        r     1 M$UI                       0-0-0/w STRC(351)   r     1 SYMBOL


   Procedure OUTPUT_DELETION_COSTS requires 96 words for executable code.
   Procedure OUTPUT_DELETION_COSTS requires 8 words of local(AUTO) storage.

PL6.E3A0      #009=OUTPUT_LCS File=LR_ERRREC.:Z8A6TSI                            SAT 08/09/97 09:31 Page:241
      756        1        /*T***********************************************************/
      757        2        /*T*                                                         */
      758        3        /*T* Copyright (c) Bull HN Information Systems Inc., 1997    */
      759        4        /*T*                                                         */
      760        5        /*T***********************************************************/
      761        6        OUTPUT_LCS : PROC;
      762        7
      763        8        /*D*
      764        9               NAME: OUTPUT_LCS
      765       10            PURPOSE: OUTPUT LEAST COST STRINGS
      766       11        */
      767       12
      768       13        %INCLUDE LR_GRAM_EXT;
      769      552        %INCLUDE LR_CNFG_EXT;
      770      705        %INCLUDE LR_ERR_EXT;
      771      848
      772      849    1   DCL OUT_SYMBOL ENTRY(1);
      773      850    1   DCL OUT_SYMBOL_TOKEN ENTRY(1);
      774      851
      775      852    1   DCL T SBIN WORD;
      776      853    1   DCL I SBIN WORD;
      777      854
      778      855
      779      856    1   DCL 1 LCS(0:NR_SYMS_MAX),
      780      857    1         2 INDX SBIN HALF HALIGNED,
      781      858    1         2 LEN SBIN HALF HALIGNED;
      782      859
      783      860
      784      861    1   COM_STRING_PTR = ADDR(COM_STRING_SPACE);
      785      862
      786      863        %SELECT_SUBS;
      787      866
      788      867        %OUT_STR(S="'%EQU LCS_LEN = '");
      789      870    1   CALL OUT_DEC(LAST_NULL);
      790      871        %OUT_STR(S="';'");
      791      874    1   CALL FLUSH;
      792      875
PL6.E3A0      #009=OUTPUT_LCS File=LR_ERRREC.:Z8A6TSI                            SAT 08/09/97 09:31 Page:242
      793      876        %STAT_LENGTH(T=LCS_LEN,V="LAST_NULL+1");
      794      879        %STAT_LENGTH(T=LCS_COST,V="LAST_NULL+1");
      795      882        %STAT_LENGTH(T=LCS_INDX,V="LAST_NULL+1");
      796      885
      797      886
      798      887        %SELECT_OU;
      799      890
      800      891        %OUTLINE(S="'%START_TABLE_LCS;'");
      801      897
      802      898    1   COM_STRSP_LEN = 2;
      803      899    1   COM_STRING_SPACE_H (0) = 0;
      804      900
      805      901    2   DO T = LAST_NULL DOWNTO 1;
      806      902
      807      903    2     COM_SEARCH_STRING_LEN    = (LEAST_COST_STRING(T) -> STRING.LEN_IN_H) * 2;
      808      904    2     COM_SEARCH_STRING = ADDR(LEAST_COST_STRING(T) -> STRING.TOK(0));
      809      905
      810      906    2     I = 0;
      811      907    3     DO UNTIL (MOD(I, 2) ~= 0);
      812      908
      813      909    3       CALL INDEX (COM_STRING_INDX,
      814      910    3                   CSEARCH_STRING,
      815      911    3                   SUBSTR(COM_STRINGS, I, COM_STRSP_LEN - I));
      816      912    3       I = I + COM_STRING_INDX + 1;
      817      913    3     END;
      818      914
      819      915    2     COM_STRING_INDX = I - 1;
      820      916
      821      917    2     IF COM_STRING_INDX = COM_STRSP_LEN THEN
      822      918    3       DO;
      823      919    3         IF COM_SEARCH_STRING_LEN + COM_STRSP_LEN > %MAX_STRSP_LEN THEN
      824      920    3           CALL DIAG(15,
               920               'ERROR => Least cost string space exhausted during error table generation.%%'
               920                    );
      825      921
      826      922    3         CALL INSERT (COM_STRING_SPACE, COM_STRSP_LEN ,COM_SEARCH_STRING_LEN,
               922                  CSEARCH_STRING);
PL6.E3A0      #009=OUTPUT_LCS File=LR_ERRREC.:Z8A6TSI                            SAT 08/09/97 09:31 Page:243
      827      923    3         COM_STRSP_LEN = COM_STRSP_LEN + COM_SEARCH_STRING_LEN;
      828      924    3       END;
      829      925
      830      926    2     LCS.INDX(T) = COM_STRING_INDX/2;
      831      927    2     LCS.LEN(T)  = COM_SEARCH_STRING_LEN/2;
      832      928
      833      929    2   END;
      834      930
      835      931
      836      932    2   DO T = 1 TO LAST_NULL;
      837      933
      838      934
      839      935          %OUT_STR(S="'  %LCS(C='");
      840      938    2     CALL OUT_DEC(BINBIT(SYM_PTRS(T) -> SYMBOL.COST.INS,36));
      841      939
      842      940          %BOUNDS(T=LCS_COST, V="SYM_PTRS(T) -> SYMBOL.COST.INS");
      843      946
      844      947          %OUT_STR(S="',I='");
      845      950    2     CALL OUT_DEC(BINBIT(LCS.INDX(T),36));
      846      951
      847      952          %BOUNDS(T=LCS_INDX, V="LCS.INDX(T)");
      848      958
      849      959          %OUT_STR(S="',L='");
      850      962    2     CALL OUT_DEC(BINBIT(LCS.LEN(T), 36));
      851      963
      852      964          %BOUNDS(T=LCS_LEN, V="LCS.LEN(T)");
      853      970
      854      971          %OUT_STR(S="');  /* '");
      855      974    2     CALL OUT_DEC(T);
      856      975          %OUT_STR(S="' '");
      857      978    2     CALL OUT_SYMBOL(SYM_PTRS(T));
      858      979          %OUT_STR(S="' */'");
      859      982    2     CALL FLUSH;
      860      983    2   END;
      861      984
      862      985        %OUTLINE(S="'%END_TABLE_LCS;'");
      863      991
PL6.E3A0      #009=OUTPUT_LCS File=LR_ERRREC.:Z8A6TSI                            SAT 08/09/97 09:31 Page:244
      864      992    1   COM_STRING_INDX = COM_STRSP_LEN / 2 - 1;
      865      993        %OUTLINE(S="'%START_TABLE_LCS_ELEM;'");
      866      999
      867     1000    2   DO I = 1 TO COM_STRING_INDX;
      868     1001
      869     1002          %OUT_STR(S="'  %LCSE(E='");
      870     1005    2     CALL OUT_DEC(BINBIT(COM_STRING_SPACE_H(I),36));
      871     1006          %OUT_STR(S="');'");
      872     1009          %OUT_STR(S="'  /* '");
      873     1012    2     CALL OUT_DEC(I);
      874     1013          %OUT_STR(S="' */'");
      875     1016    2     CALL FLUSH;
      876     1017
      877     1018          %BOUNDS(T=LCS_ELEM, V="COM_STRING_SPACE_H(I)");
      878     1024
      879     1025    2   END;
      880     1026
      881     1027        %OUTLINE(S="'%END_TABLE_LCS_ELEM;'");
      882     1033
      883     1034        %SELECT_SUBS;
      884     1037
      885     1038        %OUT_STR(S="'%EQU LCS_ELEM_LEN = '");
      886     1041    1   CALL OUT_DEC(COM_STRING_INDX);
      887     1042        %OUT_STR(S="';'");
      888     1045    1   CALL FLUSH;
      889     1046
      890     1047        %STAT_LENGTH(T=LCS_ELEM, V="COM_STRING_INDX+1");
      891     1050
      892     1051
      893     1052
      894     1053    1   END OUTPUT_LCS;
      895     1054        %EOD;

PL6.E3A0      #009=OUTPUT_LCS File=LR_ERRREC.:Z8A6TSI                            SAT 08/09/97 09:31 Page:245
--  Include file information  --

   LR_ERR_EXT.:Z8A6TOU  cannot be made into a system file and is referenced.
   LR_CNFG_EXT.:Z8A6TOU  cannot be made into a system file and is referenced.
   LR_IO_EXT.:Z8A6TOU  cannot be made into a system file and is referenced.
   LR_GRAM_EXT.:Z8A6TOU  cannot be made into a system file and is referenced.
      No diagnostics issued in procedure OUTPUT_LCS.

   Procedure OUTPUT_LCS requires 343 words for executable code.
   Procedure OUTPUT_LCS requires 1412 words of local(AUTO) storage.

PL6.E3A0      #009=OUTPUT_LCS File=LR_ERRREC.:Z8A6TSI                            SAT 08/09/97 09:31 Page:246

 Object Unit name= OUTPUT_LCS                                 File name= LR_ERRREC.:Z8A6TOU
 UTS= AUG 09 '97 09:31:33.04 SAT                              Compiler= PL-6/E31         Sev=      00
 SharedLib= :SHARED_SYSTEM                                    Alt SharedLib=


    ****  Control sections  ****

 Sect   Type Bound  Init  Size OctSiz  Section name(segment info)
    0  LblCom even  none     1      1  OUT_DCBN
    1   DCB   even  none     0      0  M$OU
    2   DCB   even  none     0      0  M$SO
    3   DCB   even  none     0      0  M$LO
    4   DCB   even  none     0      0  M$SI
    5   DCB   even  none     0      0  M$UI
    6  LblCom even  none  1401   2571  SYM_PTRS
    7  LblCom even  none  4001   7641  RIGHT_PARTS
    8  LblCom even  none  3002   5672  PROD
    9  LblCom even  none     1      1  NR_PROD
   10  LblCom even  none     1      1  NR_SYMS
   11  LblCom even  none     1      1  NR_TERM
   12  LblCom even  none     1      1  LAST_ACT
   13  LblCom even  none     1      1  LAST_NULL
   14  LblCom even  none     1      1  NR_ONRIGHT
   15  LblCom even  none     1      1  NR_NT
   16  LblCom even  none     1      1  PROD_LEN_MAX_EVER
   17  LblCom even  none     1      1  LAST_ORDER_SPECIFIED
   18  LblCom even  none     1      1  SEMANTIC_ORDERING
   19  LblCom even  none     1      1  ERR_SEV
   20  LblCom even  none     1      1  SET_LENGTHB
   21  LblCom even  none     1      1  SET_LENGTHW
   22  LblCom even  none     1      1  EOF_SYMBOL_PTR
   23  LblCom even  none     1      1  ERROR_SYMBOL_PTR
   24  LblCom even  none     1      1  BOF_SYMBOL_PTR
   25  LblCom even  none     1      1  OPTIONS
   26  LblCom even  none    26     32  OPTIONS_TEXT
   27  LblCom even  none   128    200  INSTR
   28  LblCom even  none     1      1  INSTR_LISTED
PL6.E3A0      #009=OUTPUT_LCS File=LR_ERRREC.:Z8A6TSI                            SAT 08/09/97 09:31 Page:247
   29  LblCom even  none     1      1  INSTR_LEN
   30  LblCom even  none     1      1  INSTR_INDX
   31  LblCom even  none     1      1  EOF_FLAG
   32  LblCom even  none     3      3  KEY_REC
   33  LblCom even  none    28     34  LINE
   34  LblCom even  none     1      1  LINELEN
   35  LblCom even  none   205    315  TSTATS
   36  LblCom even  none  2201   4231  C#_TO_$
   37  LblCom even  none     1      1  NR_CONFIG
   38  LblCom even  none     1      1  INIT_CONFIG
   39  LblCom even  none     1      1  MAX_BASIS_ITEMS
   40  LblCom even  none     1      1  MAX_TOTAL_ITEMS
   41  LblCom even  none     1      1  LAST_BINSRCH_ONLY
   42  LblCom even  none     1      1  LAST_BOTH_BITBIN
   43  LblCom even  none   101    145  GARBAGE
   44  LblCom even  none     1      1  AMT_GARBAGE
   45  LblCom even  none  1401   2571  LEAST_COST_STRING
   46  LblCom even  none  1401   2571  LEAST_COST_PREFIX
   47  LblCom even  none  5604  12744  CURRE
   48  LblCom even  none   701   1275  LCP_INDX
   49  LblCom even  none     1      1  COM_STRSP_LEN
   50  LblCom even  none     1      1  COM_SEARCH_STRING
   51  LblCom even  none     1      1  COM_SEARCH_STRING_LEN
   52  LblCom even  none     1      1  COM_STRING_SPACE_LEN
   53  LblCom even  none 12500  30324  COM_STRING_SPACE_H
   54  LblCom even  none     1      1  COM_STRING_SPACE$
   55  LblCom even  none     1      1  COM_STRING_PTR
   56  LblCom even  none     1      1  COM_STRING_INDX
   57  LblCom even  none     1      1  LCP_TABLE_LEN
   58  LblCom even  none  2201   4231  STATE_ITEM_INDEX
   59  LblCom even  none 17601  42301  PATH
   60  LblCom even  none     1      1  PATH_STRINGS_LEN
   61  LblCom even  none     1      1  PATH_ADDR$
   62  LblCom even  none     1      1  PATH_TABLE_LEN
   63  LblCom even  none   401    621  EDGECOST
   64  LblCom even  none     1      1  ITEM_TABLE_LEN
   65  LblCom even  none   401    621  ORDERED_ITEM
PL6.E3A0      #009=OUTPUT_LCS File=LR_ERRREC.:Z8A6TSI                            SAT 08/09/97 09:31 Page:248
   66  LblCom even  none   401    621  NEIGHBOR
   67  LblCom even  none   802   1442  PATH_INFO
   68  LblCom even  none   401    621  CHOSEN
   69  LblCom even  none    12     14  REACHED
   70  LblCom even  none     1      1  EXP_PATH_INDX
   71  RoData even  UTS     61     75  OUTPUT_LCS
   72   Proc  even  none   343    527  OUTPUT_LCS
   73  RoData even  none    53     65  OUTPUT_LCS

    ****  Entry defs  ****

                              Check   Calling
                             calling  sequence
  Sect OctLoc Primary Altret sequence   type   Parms  Name
    72      0   yes            yes      Std        0  OUTPUT_LCS

  ****  Entry refs  ****

         Check        Calling
        calling       sequence
Altret sequence SRef   type   Args  Name
         yes           Std       2 OUT_STR
         yes           Std       0 FLUSH
         yes           Std       6 DIAG
         yes           Std       1 OUT_SYMBOL
         yes           Std       1 OUT_DEC
                       nStd      0 X66_AUTO_0
                       nStd      0 X66_INDEX
                       nStd      0 X66_ARET

  ****  Data refs  ****

  Flags:  r = read only, s = secondary
Flgs Name                             Flgs Name                             Flgs Name
     M$OU                                  M$SO                                  M$LO
     M$SI                                  M$UI
PL6.E3A0      #009=OUTPUT_LCS File=LR_ERRREC.:Z8A6TSI                            SAT 08/09/97 09:31 Page:249

  ****  Segment refs  ****

  Flags:  r = read only, s = secondary
Flgs Name                             Flgs Name                             Flgs Name
     NULLSID                               ISSID
PL6.E3A0      #009=OUTPUT_LCS File=LR_ERRREC.:Z8A6TSI                            SAT 08/09/97 09:31 Page:250


      756        1        /*T***********************************************************/
      757        2        /*T*                                                         */
      758        3        /*T* Copyright (c) Bull HN Information Systems Inc., 1997    */
      759        4        /*T*                                                         */
      760        5        /*T***********************************************************/
      761        6        OUTPUT_LCS : PROC;

      6 72 000000   000000 700200 xent  OUTPUT_LCS   TSX0  ! X66_AUTO_0
        72 000001   002604 000000                    ZERO    1412,0

      762        7
      763        8        /*D*
      764        9               NAME: OUTPUT_LCS
      765       10            PURPOSE: OUTPUT LEAST COST STRINGS
      766       11        */
      767       12
      768       13        %INCLUDE LR_GRAM_EXT;
      769      552        %INCLUDE LR_CNFG_EXT;
      770      705        %INCLUDE LR_ERR_EXT;
      771      848
      772      849    1   DCL OUT_SYMBOL ENTRY(1);
      773      850    1   DCL OUT_SYMBOL_TOKEN ENTRY(1);
      774      851
      775      852    1   DCL T SBIN WORD;
      776      853    1   DCL I SBIN WORD;
      777      854
      778      855
      779      856    1   DCL 1 LCS(0:NR_SYMS_MAX),
      780      857    1         2 INDX SBIN HALF HALIGNED,
      781      858    1         2 LEN SBIN HALF HALIGNED;
      782      859
      783      860
      784      861    1   COM_STRING_PTR = ADDR(COM_STRING_SPACE);

    861 72 000002   000000 236000 54                 LDQ     COM_STRING_SPACE$
        72 000003   000000 756000 55                 STQ     COM_STRING_PTR
PL6.E3A0      #009=OUTPUT_LCS File=LR_ERRREC.:Z8A6TSI                            SAT 08/09/97 09:31 Page:251

      785      862
      786      863        %SELECT_SUBS;

    864 72 000004   000000 236007 xsym               LDQ     M$SO,DL
        72 000005   000000 756000 0                  STQ     OUT_DCBN

      787      866
      788      867        %OUT_STR(S="'%EQU LCS_LEN = '");

    868 72 000006   000002 630400 73                 EPPR0   2
        72 000007   000000 631400 73                 EPPR1   0
        72 000010   000000 701000 xent               TSX1    OUT_STR
        72 000011   000000 011000                    NOP     0

      789      870    1   CALL OUT_DEC(LAST_NULL);

    870 72 000012   000005 630400 73                 EPPR0   5
        72 000013   000004 631400 73                 EPPR1   4
        72 000014   000000 701000 xent               TSX1    OUT_DEC
        72 000015   000000 011000                    NOP     0

      790      871        %OUT_STR(S="';'");

    872 72 000016   000010 630400 73                 EPPR0   8
        72 000017   000000 631400 73                 EPPR1   0
        72 000020   000000 701000 xent               TSX1    OUT_STR
        72 000021   000000 011000                    NOP     0

      791      874    1   CALL FLUSH;

    874 72 000022   000012 631400 73                 EPPR1   10
        72 000023   000000 701000 xent               TSX1    FLUSH
        72 000024   000000 011000                    NOP     0

      792      875
      793      876        %STAT_LENGTH(T=LCS_LEN,V="LAST_NULL+1");
PL6.E3A0      #009=OUTPUT_LCS File=LR_ERRREC.:Z8A6TSI                            SAT 08/09/97 09:31 Page:252

    877 72 000025   000000 235000 13                 LDA     LAST_NULL
        72 000026   000001 035007                    ADLA    1,DL
        72 000027   000237 755000 35                 STA     TSTATS+159

      794      879        %STAT_LENGTH(T=LCS_COST,V="LAST_NULL+1");

    880 72 000030   000223 755000 35                 STA     TSTATS+147

      795      882        %STAT_LENGTH(T=LCS_INDX,V="LAST_NULL+1");

    883 72 000031   000231 755000 35                 STA     TSTATS+153

      796      885
      797      886
      798      887        %SELECT_OU;

    888 72 000032   000000 236007 xsym               LDQ     M$OU,DL
        72 000033   000000 756000 0                  STQ     OUT_DCBN

      799      890
      800      891        %OUTLINE(S="'%START_TABLE_LCS;'");

    893 72 000034   000014 630400 73                 EPPR0   12
        72 000035   000000 631400 73                 EPPR1   0
        72 000036   000000 701000 xent               TSX1    OUT_STR
        72 000037   000000 011000                    NOP     0

    894 72 000040   000012 631400 73                 EPPR1   10
        72 000041   000000 701000 xent               TSX1    FLUSH
        72 000042   000000 011000                    NOP     0

      801      897
      802      898    1   COM_STRSP_LEN = 2;

    898 72 000043   000002 235007                    LDA     2,DL
        72 000044   000000 755000 49                 STA     COM_STRSP_LEN
PL6.E3A0      #009=OUTPUT_LCS File=LR_ERRREC.:Z8A6TSI                            SAT 08/09/97 09:31 Page:253

      803      899    1   COM_STRING_SPACE_H (0) = 0;

    899 72 000045   000000 220003                    LDX0    0,DU
        72 000046   000000 740000 53                 STX0    COM_STRING_SPACE_H

      804      900
      805      901    2   DO T = LAST_NULL DOWNTO 1;

    901 72 000047   000000 236000 13                 LDQ     LAST_NULL
        72 000050   200003 756100                    STQ     T,,AUTO
        72 000051   000154 710000 72                 TRA     s:929+2

      806      902
      807      903    2     COM_SEARCH_STRING_LEN    = (LEAST_COST_STRING(T) -> STRING.LEN_IN_H) * 2;

    903 72 000052   200003 720100                    LXL0    T,,AUTO
        72 000053   000000 470410 45                 LDP0    LEAST_COST_STRING,X0
        72 000054   000000 236100                    LDQ     0,,PR0
        72 000055   000021 772000                    QRL     17
        72 000056   000016 376000 73                 ANQ     14
        72 000057   000000 756000 51                 STQ     COM_SEARCH_STRING_LEN

      808      904    2     COM_SEARCH_STRING = ADDR(LEAST_COST_STRING(T) -> STRING.TOK(0));

    904 72 000060   202576 450500                    STP0    LCS+1401,,AUTO
        72 000061   202576 236100                    LDQ     LCS+1401,,AUTO
        72 000062   400000 036007                    ADLQ    -131072,DL
        72 000063   000000 756000 50                 STQ     COM_SEARCH_STRING

      809      905
      810      906    2     I = 0;

    906 72 000064   200004 450100                    STZ     I,,AUTO

      811      907    3     DO UNTIL (MOD(I, 2) ~= 0);

PL6.E3A0      #009=OUTPUT_LCS File=LR_ERRREC.:Z8A6TSI                            SAT 08/09/97 09:31 Page:254
      812      908
      813      909    3       CALL INDEX (COM_STRING_INDX,

    909 72 000065   000000 236000 49                 LDQ     COM_STRSP_LEN
        72 000066   200004 136100                    SBLQ    I,,AUTO
        72 000067   000000 631400 56                 EPPR1   COM_STRING_INDX
        72 000070   000000 473400 50                 LDP3    COM_SEARCH_STRING
        72 000071   000000 723000 51                 LXL3    COM_SEARCH_STRING_LEN
        72 000072   000000 470400 55                 LDP0    COM_STRING_PTR
        72 000073   200004 235100                    LDA     I,,AUTO
        72 000074   000000 500505                    A9BD    0,AL,PR0
        72 000075   000000 620006                    EAX0    0,QL
        72 000076   000000 236003                    LDQ     0,DU
        72 000077   000000 701000 xent               TSX1    X66_INDEX
        72 000100   000000 011000                    NOP     0

      814      910    3                   CSEARCH_STRING,
      815      911    3                   SUBSTR(COM_STRINGS, I, COM_STRSP_LEN - I));
      816      912    3       I = I + COM_STRING_INDX + 1;

    912 72 000101   200004 236100                    LDQ     I,,AUTO
        72 000102   000000 036000 56                 ADLQ    COM_STRING_INDX
        72 000103   000001 036007                    ADLQ    1,DL
        72 000104   200004 756100                    STQ     I,,AUTO

      817      913    3     END;

    913 72 000105   000002 506007                    DIV     2,DL
        72 000106   000044 733000                    LRS     36
        72 000107   000000 116003                    CMPQ    0,DU
        72 000110   000065 600000 72                 TZE     s:909

      818      914
      819      915    2     COM_STRING_INDX = I - 1;

    915 72 000111   200004 235100                    LDA     I,,AUTO
        72 000112   000001 135007                    SBLA    1,DL
PL6.E3A0      #009=OUTPUT_LCS File=LR_ERRREC.:Z8A6TSI                            SAT 08/09/97 09:31 Page:255
        72 000113   000000 755000 56                 STA     COM_STRING_INDX

      820      916
      821      917    2     IF COM_STRING_INDX = COM_STRSP_LEN THEN

    917 72 000114   000000 236000 56                 LDQ     COM_STRING_INDX
        72 000115   000000 116000 49                 CMPQ    COM_STRSP_LEN
        72 000116   000141 601000 72                 TNZ     s:926

      822      918    3       DO;

      823      919    3         IF COM_SEARCH_STRING_LEN + COM_STRSP_LEN > %MAX_STRSP_LEN THEN

    919 72 000117   000000 236000 51                 LDQ     COM_SEARCH_STRING_LEN
        72 000120   000000 036000 49                 ADLQ    COM_STRSP_LEN
        72 000121   141520 116007                    CMPQ    50000,DL
        72 000122   000127 604400 72                 TMOZ    s:922

      824      920    3           CALL DIAG(15,
               920              'ERROR => Least cost string space exhausted during error table generation.%%'
               920                    );

    920 72 000123   000017 630400 73                 EPPR0   15
        72 000124   000000 631400 73                 EPPR1   0
        72 000125   000000 701000 xent               TSX1    DIAG
        72 000126   000000 011000                    NOP     0

      825      921
      826      922    3         CALL INSERT (COM_STRING_SPACE, COM_STRSP_LEN ,COM_SEARCH_STRING_LEN,
               922                  CSEARCH_STRING);

    922 72 000127   000000 470400 50                 LDP0    COM_SEARCH_STRING
        72 000130   000000 720000 51                 LXL0    COM_SEARCH_STRING_LEN
        72 000131   000000 471400 54                 LDP1    COM_STRING_SPACE$
        72 000132   000000 235000 49                 LDA     COM_STRSP_LEN
        72 000133   040145 100540                    MLR     fill='040'O
        72 000134   000000 000010                    ADSC9   0,,PR0                   cn=0,n=*X0
PL6.E3A0      #009=OUTPUT_LCS File=LR_ERRREC.:Z8A6TSI                            SAT 08/09/97 09:31 Page:256
        72 000135   100000 000010                    ADSC9   0,A,PR1                  cn=0,n=*X0

      827      923    3         COM_STRSP_LEN = COM_STRSP_LEN + COM_SEARCH_STRING_LEN;

    923 72 000136   000000 236000 49                 LDQ     COM_STRSP_LEN
        72 000137   000000 036000 51                 ADLQ    COM_SEARCH_STRING_LEN
        72 000140   000000 756000 49                 STQ     COM_STRSP_LEN

      828      924    3       END;

      829      925
      830      926    2     LCS.INDX(T) = COM_STRING_INDX/2;

    926 72 000141   000000 236000 56                 LDQ     COM_STRING_INDX
        72 000142   000002 506007                    DIV     2,DL
        72 000143   000000 620006                    EAX0    0,QL
        72 000144   200003 721100                    LXL1    T,,AUTO
        72 000145   200005 740111                    STX0    LCS,X1,AUTO

      831      927    2     LCS.LEN(T)  = COM_SEARCH_STRING_LEN/2;

    927 72 000146   000000 236000 51                 LDQ     COM_SEARCH_STRING_LEN
        72 000147   000002 506007                    DIV     2,DL
        72 000150   000000 622006                    EAX2    0,QL
        72 000151   200005 442111                    SXL2    LCS,X1,AUTO

      832      928
      833      929    2   END;

    929 72 000152   000001 336007                    LCQ     1,DL
        72 000153   200003 056100                    ASQ     T,,AUTO
        72 000154   200003 235100                    LDA     T,,AUTO
        72 000155   000052 605400 72                 TPNZ    s:903

      834      930
      835      931
      836      932    2   DO T = 1 TO LAST_NULL;
PL6.E3A0      #009=OUTPUT_LCS File=LR_ERRREC.:Z8A6TSI                            SAT 08/09/97 09:31 Page:257

    932 72 000156   000001 236007                    LDQ     1,DL
        72 000157   200003 756100                    STQ     T,,AUTO
        72 000160   000344 710000 72                 TRA     s:983+1

      837      933
      838      934
      839      935          %OUT_STR(S="'  %LCS(C='");

    936 72 000161   000022 630400 73                 EPPR0   18
        72 000162   000000 631400 73                 EPPR1   0
        72 000163   000000 701000 xent               TSX1    OUT_STR
        72 000164   000000 011000                    NOP     0

      840      938    2     CALL OUT_DEC(BINBIT(SYM_PTRS(T) -> SYMBOL.COST.INS,36));

    938 72 000165   200003 720100                    LXL0    T,,AUTO
        72 000166   000000 470410 6                  LDP0    SYM_PTRS,X0
        72 000167   000005 236100                    LDQ     5,,PR0
        72 000170   000022 732000                    QRS     18
        72 000171   202576 756100                    STQ     LCS+1401,,AUTO
        72 000172   202576 631500                    EPPR1   LCS+1401,,AUTO
        72 000173   202600 451500                    STP1    LCS+1403,,AUTO
        72 000174   202600 630500                    EPPR0   LCS+1403,,AUTO
        72 000175   000004 631400 73                 EPPR1   4
        72 000176   000000 701000 xent               TSX1    OUT_DEC
        72 000177   000000 011000                    NOP     0

      841      939
      842      940          %BOUNDS(T=LCS_COST, V="SYM_PTRS(T) -> SYMBOL.COST.INS");

    942 72 000200   200003 720100                    LXL0    T,,AUTO
        72 000201   000000 470410 6                  LDP0    SYM_PTRS,X0
        72 000202   000005 236100                    LDQ     5,,PR0
        72 000203   000022 732000                    QRS     18
        72 000204   000222 116000 35                 CMPQ    TSTATS+146
        72 000205   000207 604400 72                 TMOZ    s:942+7
PL6.E3A0      #009=OUTPUT_LCS File=LR_ERRREC.:Z8A6TSI                            SAT 08/09/97 09:31 Page:258
        72 000206   000222 236000 35                 LDQ     TSTATS+146
        72 000207   000222 756000 35                 STQ     TSTATS+146

    943 72 000210   000005 236100                    LDQ     5,,PR0
        72 000211   000022 732000                    QRS     18
        72 000212   000221 116000 35                 CMPQ    TSTATS+145
        72 000213   000215 605000 72                 TPL     s:943+5
        72 000214   000221 236000 35                 LDQ     TSTATS+145
        72 000215   000221 756000 35                 STQ     TSTATS+145

      843      946
      844      947          %OUT_STR(S="',I='");

    948 72 000216   000025 630400 73                 EPPR0   21
        72 000217   000000 631400 73                 EPPR1   0
        72 000220   000000 701000 xent               TSX1    OUT_STR
        72 000221   000000 011000                    NOP     0

      845      950    2     CALL OUT_DEC(BINBIT(LCS.INDX(T),36));

    950 72 000222   200003 720100                    LXL0    T,,AUTO
        72 000223   200005 236110                    LDQ     LCS,X0,AUTO
        72 000224   000022 732000                    QRS     18
        72 000225   202576 756100                    STQ     LCS+1401,,AUTO
        72 000226   202576 630500                    EPPR0   LCS+1401,,AUTO
        72 000227   202600 450500                    STP0    LCS+1403,,AUTO
        72 000230   202600 630500                    EPPR0   LCS+1403,,AUTO
        72 000231   000004 631400 73                 EPPR1   4
        72 000232   000000 701000 xent               TSX1    OUT_DEC
        72 000233   000000 011000                    NOP     0

      846      951
      847      952          %BOUNDS(T=LCS_INDX, V="LCS.INDX(T)");

    954 72 000234   200003 720100                    LXL0    T,,AUTO
        72 000235   200005 236110                    LDQ     LCS,X0,AUTO
        72 000236   000022 732000                    QRS     18
PL6.E3A0      #009=OUTPUT_LCS File=LR_ERRREC.:Z8A6TSI                            SAT 08/09/97 09:31 Page:259
        72 000237   000230 116000 35                 CMPQ    TSTATS+152
        72 000240   000242 604400 72                 TMOZ    s:954+6
        72 000241   000230 236000 35                 LDQ     TSTATS+152
        72 000242   000230 756000 35                 STQ     TSTATS+152

    955 72 000243   200005 236110                    LDQ     LCS,X0,AUTO
        72 000244   000022 732000                    QRS     18
        72 000245   000227 116000 35                 CMPQ    TSTATS+151
        72 000246   000250 605000 72                 TPL     s:955+5
        72 000247   000227 236000 35                 LDQ     TSTATS+151
        72 000250   000227 756000 35                 STQ     TSTATS+151

      848      958
      849      959          %OUT_STR(S="',L='");

    960 72 000251   000027 630400 73                 EPPR0   23
        72 000252   000000 631400 73                 EPPR1   0
        72 000253   000000 701000 xent               TSX1    OUT_STR
        72 000254   000000 011000                    NOP     0

      850      962    2     CALL OUT_DEC(BINBIT(LCS.LEN(T), 36));

    962 72 000255   200003 720100                    LXL0    T,,AUTO
        72 000256   200005 236110                    LDQ     LCS,X0,AUTO
        72 000257   000022 736000                    QLS     18
        72 000260   000022 732000                    QRS     18
        72 000261   202576 756100                    STQ     LCS+1401,,AUTO
        72 000262   202576 630500                    EPPR0   LCS+1401,,AUTO
        72 000263   202600 450500                    STP0    LCS+1403,,AUTO
        72 000264   202600 630500                    EPPR0   LCS+1403,,AUTO
        72 000265   000004 631400 73                 EPPR1   4
        72 000266   000000 701000 xent               TSX1    OUT_DEC
        72 000267   000000 011000                    NOP     0

      851      963
      852      964          %BOUNDS(T=LCS_LEN, V="LCS.LEN(T)");

PL6.E3A0      #009=OUTPUT_LCS File=LR_ERRREC.:Z8A6TSI                            SAT 08/09/97 09:31 Page:260
    966 72 000270   200003 720100                    LXL0    T,,AUTO
        72 000271   200005 236110                    LDQ     LCS,X0,AUTO
        72 000272   000022 736000                    QLS     18
        72 000273   000022 732000                    QRS     18
        72 000274   000236 116000 35                 CMPQ    TSTATS+158
        72 000275   000277 604400 72                 TMOZ    s:966+7
        72 000276   000236 236000 35                 LDQ     TSTATS+158
        72 000277   000236 756000 35                 STQ     TSTATS+158

    967 72 000300   200005 236110                    LDQ     LCS,X0,AUTO
        72 000301   000022 736000                    QLS     18
        72 000302   000022 732000                    QRS     18
        72 000303   000235 116000 35                 CMPQ    TSTATS+157
        72 000304   000306 605000 72                 TPL     s:967+6
        72 000305   000235 236000 35                 LDQ     TSTATS+157
        72 000306   000235 756000 35                 STQ     TSTATS+157

      853      970
      854      971          %OUT_STR(S="');  /* '");

    972 72 000307   000032 630400 73                 EPPR0   26
        72 000310   000000 631400 73                 EPPR1   0
        72 000311   000000 701000 xent               TSX1    OUT_STR
        72 000312   000000 011000                    NOP     0

      855      974    2     CALL OUT_DEC(T);

    974 72 000313   200003 630500                    EPPR0   T,,AUTO
        72 000314   202576 450500                    STP0    LCS+1401,,AUTO
        72 000315   202576 630500                    EPPR0   LCS+1401,,AUTO
        72 000316   000004 631400 73                 EPPR1   4
        72 000317   000000 701000 xent               TSX1    OUT_DEC
        72 000320   000000 011000                    NOP     0

      856      975          %OUT_STR(S="' '");

    976 72 000321   000035 630400 73                 EPPR0   29
PL6.E3A0      #009=OUTPUT_LCS File=LR_ERRREC.:Z8A6TSI                            SAT 08/09/97 09:31 Page:261
        72 000322   000000 631400 73                 EPPR1   0
        72 000323   000000 701000 xent               TSX1    OUT_STR
        72 000324   000000 011000                    NOP     0

      857      978    2     CALL OUT_SYMBOL(SYM_PTRS(T));

    978 72 000325   200003 720100                    LXL0    T,,AUTO
        72 000326   000000 630410 6                  EPPR0   SYM_PTRS,X0
        72 000327   202576 450500                    STP0    LCS+1401,,AUTO
        72 000330   202576 630500                    EPPR0   LCS+1401,,AUTO
        72 000331   000004 631400 73                 EPPR1   4
        72 000332   000000 701000 xent               TSX1    OUT_SYMBOL
        72 000333   000000 011000                    NOP     0

      858      979          %OUT_STR(S="' */'");

    980 72 000334   000037 630400 73                 EPPR0   31
        72 000335   000000 631400 73                 EPPR1   0
        72 000336   000000 701000 xent               TSX1    OUT_STR
        72 000337   000000 011000                    NOP     0

      859      982    2     CALL FLUSH;

    982 72 000340   000012 631400 73                 EPPR1   10
        72 000341   000000 701000 xent               TSX1    FLUSH
        72 000342   000000 011000                    NOP     0

      860      983    2   END;

    983 72 000343   200003 054100                    AOS     T,,AUTO
        72 000344   200003 236100                    LDQ     T,,AUTO
        72 000345   000000 116000 13                 CMPQ    LAST_NULL
        72 000346   000161 604400 72                 TMOZ    s:936

      861      984
      862      985        %OUTLINE(S="'%END_TABLE_LCS;'");

PL6.E3A0      #009=OUTPUT_LCS File=LR_ERRREC.:Z8A6TSI                            SAT 08/09/97 09:31 Page:262
    987 72 000347   000041 630400 73                 EPPR0   33
        72 000350   000000 631400 73                 EPPR1   0
        72 000351   000000 701000 xent               TSX1    OUT_STR
        72 000352   000000 011000                    NOP     0

    988 72 000353   000012 631400 73                 EPPR1   10
        72 000354   000000 701000 xent               TSX1    FLUSH
        72 000355   000000 011000                    NOP     0

      863      991
      864      992    1   COM_STRING_INDX = COM_STRSP_LEN / 2 - 1;

    992 72 000356   000000 236000 49                 LDQ     COM_STRSP_LEN
        72 000357   000002 506007                    DIV     2,DL
        72 000360   000001 136007                    SBLQ    1,DL
        72 000361   000000 756000 56                 STQ     COM_STRING_INDX

      865      993        %OUTLINE(S="'%START_TABLE_LCS_ELEM;'");

    995 72 000362   000044 630400 73                 EPPR0   36
        72 000363   000000 631400 73                 EPPR1   0
        72 000364   000000 701000 xent               TSX1    OUT_STR
        72 000365   000000 011000                    NOP     0

    996 72 000366   000012 631400 73                 EPPR1   10
        72 000367   000000 701000 xent               TSX1    FLUSH
        72 000370   000000 011000                    NOP     0

      866      999
      867     1000    2   DO I = 1 TO COM_STRING_INDX;

   1000 72 000371   000001 235007                    LDA     1,DL
        72 000372   200004 755100                    STA     I,,AUTO
        72 000373   000470 710000 72                 TRA     s:1025+1

      868     1001
      869     1002          %OUT_STR(S="'  %LCSE(E='");
PL6.E3A0      #009=OUTPUT_LCS File=LR_ERRREC.:Z8A6TSI                            SAT 08/09/97 09:31 Page:263

   1003 72 000374   000047 630400 73                 EPPR0   39
        72 000375   000000 631400 73                 EPPR1   0
        72 000376   000000 701000 xent               TSX1    OUT_STR
        72 000377   000000 011000                    NOP     0

      870     1005    2     CALL OUT_DEC(BINBIT(COM_STRING_SPACE_H(I),36));

   1005 72 000400   200004 235100                    LDA     I,,AUTO
        72 000401   000001 735000                    ALS     1
        72 000402   000100 100405                    MLR     fill='000'O
        72 000403   000000 000002 53                 ADSC9   COM_STRING_SPACE_H,A     cn=0,n=2
        72 000404   202576 000004                    ADSC9   LCS+1401,,AUTO           cn=0,n=4
        72 000405   202576 236100                    LDQ     LCS+1401,,AUTO
        72 000406   000022 732000                    QRS     18
        72 000407   202600 756100                    STQ     LCS+1403,,AUTO
        72 000410   202600 630500                    EPPR0   LCS+1403,,AUTO
        72 000411   202602 450500                    STP0    LCS+1405,,AUTO
        72 000412   202602 630500                    EPPR0   LCS+1405,,AUTO
        72 000413   000004 631400 73                 EPPR1   4
        72 000414   000000 701000 xent               TSX1    OUT_DEC
        72 000415   000000 011000                    NOP     0

      871     1006          %OUT_STR(S="');'");

   1007 72 000416   000052 630400 73                 EPPR0   42
        72 000417   000000 631400 73                 EPPR1   0
        72 000420   000000 701000 xent               TSX1    OUT_STR
        72 000421   000000 011000                    NOP     0

      872     1009          %OUT_STR(S="'  /* '");

   1010 72 000422   000055 630400 73                 EPPR0   45
        72 000423   000000 631400 73                 EPPR1   0
        72 000424   000000 701000 xent               TSX1    OUT_STR
        72 000425   000000 011000                    NOP     0

PL6.E3A0      #009=OUTPUT_LCS File=LR_ERRREC.:Z8A6TSI                            SAT 08/09/97 09:31 Page:264
      873     1012    2     CALL OUT_DEC(I);

   1012 72 000426   200004 630500                    EPPR0   I,,AUTO
        72 000427   202576 450500                    STP0    LCS+1401,,AUTO
        72 000430   202576 630500                    EPPR0   LCS+1401,,AUTO
        72 000431   000004 631400 73                 EPPR1   4
        72 000432   000000 701000 xent               TSX1    OUT_DEC
        72 000433   000000 011000                    NOP     0

      874     1013          %OUT_STR(S="' */'");

   1014 72 000434   000037 630400 73                 EPPR0   31
        72 000435   000000 631400 73                 EPPR1   0
        72 000436   000000 701000 xent               TSX1    OUT_STR
        72 000437   000000 011000                    NOP     0

      875     1016    2     CALL FLUSH;

   1016 72 000440   000012 631400 73                 EPPR1   10
        72 000441   000000 701000 xent               TSX1    FLUSH
        72 000442   000000 011000                    NOP     0

      876     1017
      877     1018          %BOUNDS(T=LCS_ELEM, V="COM_STRING_SPACE_H(I)");

   1020 72 000443   200004 235100                    LDA     I,,AUTO
        72 000444   000001 735000                    ALS     1
        72 000445   000100 100405                    MLR     fill='000'O
        72 000446   000000 000002 53                 ADSC9   COM_STRING_SPACE_H,A     cn=0,n=2
        72 000447   202576 000004                    ADSC9   LCS+1401,,AUTO           cn=0,n=4
        72 000450   202576 236100                    LDQ     LCS+1401,,AUTO
        72 000451   000022 732000                    QRS     18
        72 000452   000244 116000 35                 CMPQ    TSTATS+164
        72 000453   000455 604400 72                 TMOZ    s:1020+10
        72 000454   000244 236000 35                 LDQ     TSTATS+164
        72 000455   000244 756000 35                 STQ     TSTATS+164

PL6.E3A0      #009=OUTPUT_LCS File=LR_ERRREC.:Z8A6TSI                            SAT 08/09/97 09:31 Page:265
   1021 72 000456   000100 100405                    MLR     fill='000'O
        72 000457   000000 000002 53                 ADSC9   COM_STRING_SPACE_H,A     cn=0,n=2
        72 000460   202576 000004                    ADSC9   LCS+1401,,AUTO           cn=0,n=4
        72 000461   202576 236100                    LDQ     LCS+1401,,AUTO
        72 000462   000022 732000                    QRS     18
        72 000463   000243 116000 35                 CMPQ    TSTATS+163
        72 000464   000466 605000 72                 TPL     s:1021+8
        72 000465   000243 236000 35                 LDQ     TSTATS+163
        72 000466   000243 756000 35                 STQ     TSTATS+163

      878     1024
      879     1025    2   END;

   1025 72 000467   200004 054100                    AOS     I,,AUTO
        72 000470   200004 236100                    LDQ     I,,AUTO
        72 000471   000000 116000 56                 CMPQ    COM_STRING_INDX
        72 000472   000374 604400 72                 TMOZ    s:1003

      880     1026
      881     1027        %OUTLINE(S="'%END_TABLE_LCS_ELEM;'");

   1029 72 000473   000060 630400 73                 EPPR0   48
        72 000474   000000 631400 73                 EPPR1   0
        72 000475   000000 701000 xent               TSX1    OUT_STR
        72 000476   000000 011000                    NOP     0

   1030 72 000477   000012 631400 73                 EPPR1   10
        72 000500   000000 701000 xent               TSX1    FLUSH
        72 000501   000000 011000                    NOP     0

      882     1033
      883     1034        %SELECT_SUBS;

   1035 72 000502   000000 236007 xsym               LDQ     M$SO,DL
        72 000503   000000 756000 0                  STQ     OUT_DCBN

      884     1037
PL6.E3A0      #009=OUTPUT_LCS File=LR_ERRREC.:Z8A6TSI                            SAT 08/09/97 09:31 Page:266
      885     1038        %OUT_STR(S="'%EQU LCS_ELEM_LEN = '");

   1039 72 000504   000062 630400 73                 EPPR0   50
        72 000505   000000 631400 73                 EPPR1   0
        72 000506   000000 701000 xent               TSX1    OUT_STR
        72 000507   000000 011000                    NOP     0

      886     1041    1   CALL OUT_DEC(COM_STRING_INDX);

   1041 72 000510   000064 630400 73                 EPPR0   52
        72 000511   000004 631400 73                 EPPR1   4
        72 000512   000000 701000 xent               TSX1    OUT_DEC
        72 000513   000000 011000                    NOP     0

      887     1042        %OUT_STR(S="';'");

   1043 72 000514   000010 630400 73                 EPPR0   8
        72 000515   000000 631400 73                 EPPR1   0
        72 000516   000000 701000 xent               TSX1    OUT_STR
        72 000517   000000 011000                    NOP     0

      888     1045    1   CALL FLUSH;

   1045 72 000520   000012 631400 73                 EPPR1   10
        72 000521   000000 701000 xent               TSX1    FLUSH
        72 000522   000000 011000                    NOP     0

      889     1046
      890     1047        %STAT_LENGTH(T=LCS_ELEM, V="COM_STRING_INDX+1");

   1048 72 000523   000000 235000 56                 LDA     COM_STRING_INDX
        72 000524   000001 035007                    ADLA    1,DL
        72 000525   000245 755000 35                 STA     TSTATS+165

      891     1050
      892     1051
      893     1052
PL6.E3A0      #009=OUTPUT_LCS File=LR_ERRREC.:Z8A6TSI                            SAT 08/09/97 09:31 Page:267
      894     1053    1   END OUTPUT_LCS;

   1053 72 000526   000000 702200 xent               TSX2  ! X66_ARET
      895     1054        %EOD;

PL6.E3A0      #009=OUTPUT_LCS File=LR_ERRREC.:Z8A6TSI                            SAT 08/09/97 09:31 Page:268
--  Include file information  --

   LR_ERR_EXT.:Z8A6TOU  cannot be made into a system file and is referenced.
   LR_CNFG_EXT.:Z8A6TOU  cannot be made into a system file and is referenced.
   LR_IO_EXT.:Z8A6TOU  cannot be made into a system file and is referenced.
   LR_GRAM_EXT.:Z8A6TOU  cannot be made into a system file and is referenced.
      No diagnostics issued in procedure OUTPUT_LCS.
PL6.E3A0      #009=OUTPUT_LCS File=LR_ERRREC.:Z8A6TSI                            SAT 08/09/97 09:31 Page:269

 **** Variables and constants ****

  ****  Section 000 LblCom OUT_DCBN

  ****  Scalars and arrays  ****
OctLoc.c.b A Datatyp(siz) R M Lvl/name                 OctLoc.c.b A Datatyp(siz) R M Lvl/name

     0-0-0/w SBIN        r     1 OUT_DCBN

  ****  Section 006 LblCom SYM_PTRS

  ****  Scalars and arrays  ****
OctLoc.c.b A Datatyp(siz) R M Lvl/name                 OctLoc.c.b A Datatyp(siz) R M Lvl/name

     0-0-0/w PTR         r     1 SYM_PTRS(0:1400)

  ****  Section 007 LblCom RIGHT_PARTS

  ****  Scalars and arrays  ****
OctLoc.c.b A Datatyp(siz) R M Lvl/name                 OctLoc.c.b A Datatyp(siz) R M Lvl/name

     0-0-0/h SBIN(18)          1 RIGHT_PARTS(0:8000)

  ****  Section 008 LblCom PROD

  ****  Scalars and arrays  ****
OctLoc.c.b A Datatyp(siz) R M Lvl/name                 OctLoc.c.b A Datatyp(siz) R M Lvl/name

     0-0-0/h STRC(72)          1 PROD(0:1500)

  ****  Section 009 LblCom NR_PROD

  ****  Scalars and arrays  ****
OctLoc.c.b A Datatyp(siz) R M Lvl/name                 OctLoc.c.b A Datatyp(siz) R M Lvl/name

     0-0-0/w SBIN              1 NR_PROD

PL6.E3A0      #009=OUTPUT_LCS File=LR_ERRREC.:Z8A6TSI                            SAT 08/09/97 09:31 Page:270
  ****  Section 010 LblCom NR_SYMS

  ****  Scalars and arrays  ****
OctLoc.c.b A Datatyp(siz) R M Lvl/name                 OctLoc.c.b A Datatyp(siz) R M Lvl/name

     0-0-0/w SBIN              1 NR_SYMS

  ****  Section 011 LblCom NR_TERM

  ****  Scalars and arrays  ****
OctLoc.c.b A Datatyp(siz) R M Lvl/name                 OctLoc.c.b A Datatyp(siz) R M Lvl/name

     0-0-0/w SBIN              1 NR_TERM

  ****  Section 012 LblCom LAST_ACT

  ****  Scalars and arrays  ****
OctLoc.c.b A Datatyp(siz) R M Lvl/name                 OctLoc.c.b A Datatyp(siz) R M Lvl/name

     0-0-0/w SBIN              1 LAST_ACT

  ****  Section 013 LblCom LAST_NULL

  ****  Scalars and arrays  ****
OctLoc.c.b A Datatyp(siz) R M Lvl/name                 OctLoc.c.b A Datatyp(siz) R M Lvl/name

     0-0-0/w SBIN        r     1 LAST_NULL

  ****  Section 014 LblCom NR_ONRIGHT

  ****  Scalars and arrays  ****
OctLoc.c.b A Datatyp(siz) R M Lvl/name                 OctLoc.c.b A Datatyp(siz) R M Lvl/name

     0-0-0/w SBIN              1 NR_ONRIGHT

  ****  Section 015 LblCom NR_NT

PL6.E3A0      #009=OUTPUT_LCS File=LR_ERRREC.:Z8A6TSI                            SAT 08/09/97 09:31 Page:271
  ****  Scalars and arrays  ****
OctLoc.c.b A Datatyp(siz) R M Lvl/name                 OctLoc.c.b A Datatyp(siz) R M Lvl/name

     0-0-0/w SBIN              1 NR_NT

  ****  Section 016 LblCom PROD_LEN_MAX_EVER

  ****  Scalars and arrays  ****
OctLoc.c.b A Datatyp(siz) R M Lvl/name                 OctLoc.c.b A Datatyp(siz) R M Lvl/name

     0-0-0/w SBIN              1 PROD_LEN_MAX_EVER

  ****  Section 017 LblCom LAST_ORDER_SPECIFIED

  ****  Scalars and arrays  ****
OctLoc.c.b A Datatyp(siz) R M Lvl/name                 OctLoc.c.b A Datatyp(siz) R M Lvl/name

     0-0-0/w SBIN              1 LAST_ORDER_SPECIFIED

  ****  Section 018 LblCom SEMANTIC_ORDERING

  ****  Scalars and arrays  ****
OctLoc.c.b A Datatyp(siz) R M Lvl/name                 OctLoc.c.b A Datatyp(siz) R M Lvl/name

     0-0-0/b BIT               1 SEMANTIC_ORDERING

  ****  Section 019 LblCom ERR_SEV

  ****  Scalars and arrays  ****
OctLoc.c.b A Datatyp(siz) R M Lvl/name                 OctLoc.c.b A Datatyp(siz) R M Lvl/name

     0-0-0/w SBIN              1 ERR_SEV

  ****  Section 020 LblCom SET_LENGTHB

  ****  Scalars and arrays  ****
OctLoc.c.b A Datatyp(siz) R M Lvl/name                 OctLoc.c.b A Datatyp(siz) R M Lvl/name
PL6.E3A0      #009=OUTPUT_LCS File=LR_ERRREC.:Z8A6TSI                            SAT 08/09/97 09:31 Page:272

     0-0-0/w SBIN              1 SET_LENGTHB

  ****  Section 021 LblCom SET_LENGTHW

  ****  Scalars and arrays  ****
OctLoc.c.b A Datatyp(siz) R M Lvl/name                 OctLoc.c.b A Datatyp(siz) R M Lvl/name

     0-0-0/w SBIN              1 SET_LENGTHW

  ****  Section 022 LblCom EOF_SYMBOL_PTR

  ****  Scalars and arrays  ****
OctLoc.c.b A Datatyp(siz) R M Lvl/name                 OctLoc.c.b A Datatyp(siz) R M Lvl/name

     0-0-0/w PTR               1 EOF_SYMBOL_PTR

  ****  Section 023 LblCom ERROR_SYMBOL_PTR

  ****  Scalars and arrays  ****
OctLoc.c.b A Datatyp(siz) R M Lvl/name                 OctLoc.c.b A Datatyp(siz) R M Lvl/name

     0-0-0/w PTR               1 ERROR_SYMBOL_PTR

  ****  Section 024 LblCom BOF_SYMBOL_PTR

  ****  Scalars and arrays  ****
OctLoc.c.b A Datatyp(siz) R M Lvl/name                 OctLoc.c.b A Datatyp(siz) R M Lvl/name

     0-0-0/w PTR               1 BOF_SYMBOL_PTR

  ****  Section 025 LblCom OPTIONS

  ****  Scalars and arrays  ****
OctLoc.c.b A Datatyp(siz) R M Lvl/name                 OctLoc.c.b A Datatyp(siz) R M Lvl/name

     0-0-0/b BIT               1 OPTIONS(0:25)
PL6.E3A0      #009=OUTPUT_LCS File=LR_ERRREC.:Z8A6TSI                            SAT 08/09/97 09:31 Page:273

  ****  Section 026 LblCom OPTIONS_TEXT

  ****  Scalars and arrays  ****
OctLoc.c.b A Datatyp(siz) R M Lvl/name                 OctLoc.c.b A Datatyp(siz) R M Lvl/name

     0-0-0/c CHAR(4)           1 OPTIONS_TEXT(0:25)

  ****  Section 027 LblCom INSTR

  ****  Scalars and arrays  ****
OctLoc.c.b A Datatyp(siz) R M Lvl/name                 OctLoc.c.b A Datatyp(siz) R M Lvl/name

     0-0-0/c CHAR              1 INSTR(0:511)               0-0-0/c CHAR(512)         1 INSTRCHR

  ****  Section 028 LblCom INSTR_LISTED

  ****  Scalars and arrays  ****
OctLoc.c.b A Datatyp(siz) R M Lvl/name                 OctLoc.c.b A Datatyp(siz) R M Lvl/name

     0-0-0/b BIT               1 INSTR_LISTED

  ****  Section 029 LblCom INSTR_LEN

  ****  Scalars and arrays  ****
OctLoc.c.b A Datatyp(siz) R M Lvl/name                 OctLoc.c.b A Datatyp(siz) R M Lvl/name

     0-0-0/w SBIN              1 INSTR_LEN

  ****  Section 030 LblCom INSTR_INDX

  ****  Scalars and arrays  ****
OctLoc.c.b A Datatyp(siz) R M Lvl/name                 OctLoc.c.b A Datatyp(siz) R M Lvl/name

     0-0-0/w SBIN              1 INSTR_INDX

  ****  Section 031 LblCom EOF_FLAG
PL6.E3A0      #009=OUTPUT_LCS File=LR_ERRREC.:Z8A6TSI                            SAT 08/09/97 09:31 Page:274

  ****  Scalars and arrays  ****
OctLoc.c.b A Datatyp(siz) R M Lvl/name                 OctLoc.c.b A Datatyp(siz) R M Lvl/name

     0-0-0/b BIT               1 EOF_FLAG

  ****  Section 032 LblCom KEY_REC

  ****  Scalars and arrays  ****
OctLoc.c.b A Datatyp(siz) R M Lvl/name                 OctLoc.c.b A Datatyp(siz) R M Lvl/name

     0-0-0/c CHAR(10)          1 KEY_REC

  ****  Section 033 LblCom LINE

  ****  Scalars and arrays  ****
OctLoc.c.b A Datatyp(siz) R M Lvl/name                 OctLoc.c.b A Datatyp(siz) R M Lvl/name

     0-0-0/c CHAR(109)         1 LINE

  ****  Section 034 LblCom LINELEN

  ****  Scalars and arrays  ****
OctLoc.c.b A Datatyp(siz) R M Lvl/name                 OctLoc.c.b A Datatyp(siz) R M Lvl/name

     0-0-0/w SBIN              1 LINELEN

  ****  Section 035 LblCom TSTATS

  ****  Scalars and arrays  ****
OctLoc.c.b A Datatyp(siz) R M Lvl/name                 OctLoc.c.b A Datatyp(siz) R M Lvl/name

     0-0-0/w STRC(7380)  r     1 TSTATS

  ****  Section 036 LblCom C#_TO_$

  ****  Scalars and arrays  ****
PL6.E3A0      #009=OUTPUT_LCS File=LR_ERRREC.:Z8A6TSI                            SAT 08/09/97 09:31 Page:275
OctLoc.c.b A Datatyp(siz) R M Lvl/name                 OctLoc.c.b A Datatyp(siz) R M Lvl/name

     0-0-0/w PTR               1 C#_TO_$(0:2200)

  ****  Section 037 LblCom NR_CONFIG

  ****  Scalars and arrays  ****
OctLoc.c.b A Datatyp(siz) R M Lvl/name                 OctLoc.c.b A Datatyp(siz) R M Lvl/name

     0-0-0/w SBIN              1 NR_CONFIG

  ****  Section 038 LblCom INIT_CONFIG

  ****  Scalars and arrays  ****
OctLoc.c.b A Datatyp(siz) R M Lvl/name                 OctLoc.c.b A Datatyp(siz) R M Lvl/name

     0-0-0/w SBIN              1 INIT_CONFIG

  ****  Section 039 LblCom MAX_BASIS_ITEMS

  ****  Scalars and arrays  ****
OctLoc.c.b A Datatyp(siz) R M Lvl/name                 OctLoc.c.b A Datatyp(siz) R M Lvl/name

     0-0-0/w SBIN              1 MAX_BASIS_ITEMS

  ****  Section 040 LblCom MAX_TOTAL_ITEMS

  ****  Scalars and arrays  ****
OctLoc.c.b A Datatyp(siz) R M Lvl/name                 OctLoc.c.b A Datatyp(siz) R M Lvl/name

     0-0-0/w SBIN              1 MAX_TOTAL_ITEMS

  ****  Section 041 LblCom LAST_BINSRCH_ONLY

  ****  Scalars and arrays  ****
OctLoc.c.b A Datatyp(siz) R M Lvl/name                 OctLoc.c.b A Datatyp(siz) R M Lvl/name

PL6.E3A0      #009=OUTPUT_LCS File=LR_ERRREC.:Z8A6TSI                            SAT 08/09/97 09:31 Page:276
     0-0-0/w SBIN              1 LAST_BINSRCH_ONLY

  ****  Section 042 LblCom LAST_BOTH_BITBIN

  ****  Scalars and arrays  ****
OctLoc.c.b A Datatyp(siz) R M Lvl/name                 OctLoc.c.b A Datatyp(siz) R M Lvl/name

     0-0-0/w SBIN              1 LAST_BOTH_BITBIN

  ****  Section 043 LblCom GARBAGE

  ****  Scalars and arrays  ****
OctLoc.c.b A Datatyp(siz) R M Lvl/name                 OctLoc.c.b A Datatyp(siz) R M Lvl/name

     0-0-0/w PTR               1 GARBAGE(0:100)

  ****  Section 044 LblCom AMT_GARBAGE

  ****  Scalars and arrays  ****
OctLoc.c.b A Datatyp(siz) R M Lvl/name                 OctLoc.c.b A Datatyp(siz) R M Lvl/name

     0-0-0/w SBIN              1 AMT_GARBAGE

  ****  Section 045 LblCom LEAST_COST_STRING

  ****  Scalars and arrays  ****
OctLoc.c.b A Datatyp(siz) R M Lvl/name                 OctLoc.c.b A Datatyp(siz) R M Lvl/name

     0-0-0/w PTR         r     1 LEAST_COST_STRING(0:1400)

  ****  Section 046 LblCom LEAST_COST_PREFIX

  ****  Scalars and arrays  ****
OctLoc.c.b A Datatyp(siz) R M Lvl/name                 OctLoc.c.b A Datatyp(siz) R M Lvl/name

     0-0-0/w PTR               1 LEAST_COST_PREFIX(0:1400)

PL6.E3A0      #009=OUTPUT_LCS File=LR_ERRREC.:Z8A6TSI                            SAT 08/09/97 09:31 Page:277
  ****  Section 047 LblCom CURRE

  ****  Scalars and arrays  ****
OctLoc.c.b A Datatyp(siz) R M Lvl/name                 OctLoc.c.b A Datatyp(siz) R M Lvl/name

     0-0-0/d STRC(126)         1 CURRE(0:1400)

  ****  Section 048 LblCom LCP_INDX

  ****  Scalars and arrays  ****
OctLoc.c.b A Datatyp(siz) R M Lvl/name                 OctLoc.c.b A Datatyp(siz) R M Lvl/name

     0-0-0/h SBIN(18)          1 LCP_INDX(0:1400)

  ****  Section 049 LblCom COM_STRSP_LEN

  ****  Scalars and arrays  ****
OctLoc.c.b A Datatyp(siz) R M Lvl/name                 OctLoc.c.b A Datatyp(siz) R M Lvl/name

     0-0-0/w SBIN        r     1 COM_STRSP_LEN

  ****  Section 050 LblCom COM_SEARCH_STRING

  ****  Scalars and arrays  ****
OctLoc.c.b A Datatyp(siz) R M Lvl/name                 OctLoc.c.b A Datatyp(siz) R M Lvl/name

     0-0-0/w PTR         r     1 COM_SEARCH_STRING

  ****  Section 051 LblCom COM_SEARCH_STRING_LEN

  ****  Scalars and arrays  ****
OctLoc.c.b A Datatyp(siz) R M Lvl/name                 OctLoc.c.b A Datatyp(siz) R M Lvl/name

     0-0-0/w SBIN        r     1 COM_SEARCH_STRING_LEN

  ****  Section 052 LblCom COM_STRING_SPACE_LEN

PL6.E3A0      #009=OUTPUT_LCS File=LR_ERRREC.:Z8A6TSI                            SAT 08/09/97 09:31 Page:278
  ****  Scalars and arrays  ****
OctLoc.c.b A Datatyp(siz) R M Lvl/name                 OctLoc.c.b A Datatyp(siz) R M Lvl/name

     0-0-0/w SBIN        r     1 COM_STRING_SPACE_LEN

  ****  Section 053 LblCom COM_STRING_SPACE_H

  ****  Scalars and arrays  ****
OctLoc.c.b A Datatyp(siz) R M Lvl/name                 OctLoc.c.b A Datatyp(siz) R M Lvl/name

     0-0-0/h SBIN(18)    r     1 COM_STRING_SPACE_H(0:24999)

  ****  Section 054 LblCom COM_STRING_SPACE$

  ****  Scalars and arrays  ****
OctLoc.c.b A Datatyp(siz) R M Lvl/name                 OctLoc.c.b A Datatyp(siz) R M Lvl/name

     0-0-0/w PTR         r     1 COM_STRING_SPACE$

  ****  Section 055 LblCom COM_STRING_PTR

  ****  Scalars and arrays  ****
OctLoc.c.b A Datatyp(siz) R M Lvl/name                 OctLoc.c.b A Datatyp(siz) R M Lvl/name

     0-0-0/w PTR         r     1 COM_STRING_PTR

  ****  Section 056 LblCom COM_STRING_INDX

  ****  Scalars and arrays  ****
OctLoc.c.b A Datatyp(siz) R M Lvl/name                 OctLoc.c.b A Datatyp(siz) R M Lvl/name

     0-0-0/w SBIN        r     1 COM_STRING_INDX

  ****  Section 057 LblCom LCP_TABLE_LEN

  ****  Scalars and arrays  ****
OctLoc.c.b A Datatyp(siz) R M Lvl/name                 OctLoc.c.b A Datatyp(siz) R M Lvl/name
PL6.E3A0      #009=OUTPUT_LCS File=LR_ERRREC.:Z8A6TSI                            SAT 08/09/97 09:31 Page:279

     0-0-0/w SBIN              1 LCP_TABLE_LEN

  ****  Section 058 LblCom STATE_ITEM_INDEX

  ****  Scalars and arrays  ****
OctLoc.c.b A Datatyp(siz) R M Lvl/name                 OctLoc.c.b A Datatyp(siz) R M Lvl/name

     0-0-0/h STRC              1 STATE_ITEM_INDEX(0:2200)

  ****  Section 059 LblCom PATH

  ****  Scalars and arrays  ****
OctLoc.c.b A Datatyp(siz) R M Lvl/name                 OctLoc.c.b A Datatyp(siz) R M Lvl/name

     0-0-0/h STRC        r     1 PATH(0:17600)

  ****  Section 060 LblCom PATH_STRINGS_LEN

  ****  Scalars and arrays  ****
OctLoc.c.b A Datatyp(siz) R M Lvl/name                 OctLoc.c.b A Datatyp(siz) R M Lvl/name

     0-0-0/w SBIN        r     1 PATH_STRINGS_LEN

  ****  Section 061 LblCom PATH_ADDR$

  ****  Scalars and arrays  ****
OctLoc.c.b A Datatyp(siz) R M Lvl/name                 OctLoc.c.b A Datatyp(siz) R M Lvl/name

     0-0-0/w PTR         r     1 PATH_ADDR$

  ****  Section 062 LblCom PATH_TABLE_LEN

  ****  Scalars and arrays  ****
OctLoc.c.b A Datatyp(siz) R M Lvl/name                 OctLoc.c.b A Datatyp(siz) R M Lvl/name

     0-0-0/w SBIN              1 PATH_TABLE_LEN
PL6.E3A0      #009=OUTPUT_LCS File=LR_ERRREC.:Z8A6TSI                            SAT 08/09/97 09:31 Page:280

  ****  Section 063 LblCom EDGECOST

  ****  Scalars and arrays  ****
OctLoc.c.b A Datatyp(siz) R M Lvl/name                 OctLoc.c.b A Datatyp(siz) R M Lvl/name

     0-0-0/w SBIN              1 EDGECOST(0:400)

  ****  Section 064 LblCom ITEM_TABLE_LEN

  ****  Scalars and arrays  ****
OctLoc.c.b A Datatyp(siz) R M Lvl/name                 OctLoc.c.b A Datatyp(siz) R M Lvl/name

     0-0-0/w SBIN              1 ITEM_TABLE_LEN

  ****  Section 065 LblCom ORDERED_ITEM

  ****  Scalars and arrays  ****
OctLoc.c.b A Datatyp(siz) R M Lvl/name                 OctLoc.c.b A Datatyp(siz) R M Lvl/name

     0-0-0/h STRC              1 ORDERED_ITEM(0:400)

  ****  Section 066 LblCom NEIGHBOR

  ****  Scalars and arrays  ****
OctLoc.c.b A Datatyp(siz) R M Lvl/name                 OctLoc.c.b A Datatyp(siz) R M Lvl/name

     0-0-0/w SBIN              1 NEIGHBOR(0:400)

  ****  Section 067 LblCom PATH_INFO

  ****  Scalars and arrays  ****
OctLoc.c.b A Datatyp(siz) R M Lvl/name                 OctLoc.c.b A Datatyp(siz) R M Lvl/name

     0-0-0/w STRC(28872)       1 PATH_INFO

  ****  Section 068 LblCom CHOSEN
PL6.E3A0      #009=OUTPUT_LCS File=LR_ERRREC.:Z8A6TSI                            SAT 08/09/97 09:31 Page:281

  ****  Scalars and arrays  ****
OctLoc.c.b A Datatyp(siz) R M Lvl/name                 OctLoc.c.b A Datatyp(siz) R M Lvl/name

     0-0-0/w BIT               1 CHOSEN(0:400)

  ****  Section 069 LblCom REACHED

  ****  Scalars and arrays  ****
OctLoc.c.b A Datatyp(siz) R M Lvl/name                 OctLoc.c.b A Datatyp(siz) R M Lvl/name

     0-0-0/b BIT               1 REACHED(0:400)

  ****  Section 070 LblCom EXP_PATH_INDX

  ****  Scalars and arrays  ****
OctLoc.c.b A Datatyp(siz) R M Lvl/name                 OctLoc.c.b A Datatyp(siz) R M Lvl/name

     0-0-0/w SBIN              1 EXP_PATH_INDX

  ****  Auto variables  ****

  ****  Scalars and arrays  ****
OctLoc.c.b A Datatyp(siz) R M Lvl/name                 OctLoc.c.b A Datatyp(siz) R M Lvl/name

     4-0-0/w SBIN        r     1 I                          5-0-0/h STRC        r     1 LCS(0:1400)
     3-0-0/w SBIN        r     1 T

  ****  BASED and DCB variables  ****

  ****  Scalars and arrays  ****
OctLoc.c.b A Datatyp(siz) R M Lvl/name                 OctLoc.c.b A Datatyp(siz) R M Lvl/name

     0-0-0/w STRC(72)          1 CELL                       0-0-0/c ACHR        r     1 COM_STRINGS
     0-0-0/c ACHR        r     1 COM_STRING_SPACE           0-0-0/c ACHR        r     1 CSEARCH_STRING
     0-0-0/w STRC(57888)       1 C_SET_B                    0-0-0/w STRC(72)          1 INCLUDES_B
     0-0-0/w STRC(144)         1 INCL_B                     0-0-0/w STRC(5436)        1 ITEM_B
PL6.E3A0      #009=OUTPUT_LCS File=LR_ERRREC.:Z8A6TSI                            SAT 08/09/97 09:31 Page:282
     0-0-0/w STRC(5652)        1 KEY_B                      0-0-0N  NULL        r     1 M$LO
     0-0-0N  NULL        r     1 M$OU                       0-0-0N  NULL        r     1 M$SI
     0-0-0N  NULL        r     1 M$SO                       0-0-0N  NULL        r     1 M$UI
     0-0-0/c ACHR              1 PATH_STRINGS               0-0-0/w STRC(90)          1 PREFIX
     0-0-0/w ASTR(72)    r     1 PREFIXCHR                  0-0-0/w STRC        r     1 STRING
     0-0-0/w ASTR(18)    r     1 STRINGCHR                  0-0-0/w STRC(351)   r     1 SYMBOL


   Procedure OUTPUT_LCS requires 343 words for executable code.
   Procedure OUTPUT_LCS requires 1412 words of local(AUTO) storage.

PL6.E3A0      #010=OUTPUT_LCP File=LR_ERRREC.:Z8A6TSI                            SAT 08/09/97 09:32 Page:283
      896        1        /*T***********************************************************/
      897        2        /*T*                                                         */
      898        3        /*T* Copyright (c) Bull HN Information Systems Inc., 1997    */
      899        4        /*T*                                                         */
      900        5        /*T***********************************************************/
      901        6        OUTPUT_LCP : PROC(T) NOAUTO;
      902        7
      903        8        /*D*
      904        9               NAME: OUTPUT_LCP
      905       10            PURPOSE: OUTPUT A SLICE OF THE LEAST_COST_PREFIXES FOR TERMINAL T.
      906       11        */
      907       12
      908       13    1   DCL T SBIN WORD;
      909       14
      910       15        %INCLUDE LR_GRAM_EXT;
      911      554        %INCLUDE LR_CNFG_EXT;
      912      707        %INCLUDE LR_ERR_EXT;
      913      850
      914      851    1   DCL OUT_SYMBOL ENTRY(1);
      915      852    1   DCL OUT_SYMBOL_TOKEN ENTRY(1);
      916      853
      917      854
      918      855    1   DCL FIRST_CALLED BOOLEAN STATIC INIT(TRUE);
      919      856
      920      857    1   DCL I SBIN WORD;
      921      858    1   DCL TNT SBIN WORD;
      922      859
      923      860
      924      861    1   IF FIRST_CALLED THEN
      925      862    2     DO;
      926      863    2       FIRST_CALLED = FALSE;
      927      864
      928      865
      929      866            %SELECT_OU;
      930      869
      931      870            %OUTLINE(S="'%START_TABLE_LCP;'");
      932      876
PL6.E3A0      #010=OUTPUT_LCP File=LR_ERRREC.:Z8A6TSI                            SAT 08/09/97 09:32 Page:284
      933      877    2       LCP_INDX(0) = 0;
      934      878    2       LCP_TABLE_LEN = 0;
      935      879
      936      880    2       COM_STRSP_LEN = 2;
      937      881    2       COM_STRING_SPACE_H(0) = 0;
      938      882    2     END;
      939      883
      940      884        /* Main body of work which is done every time OUTPUT_LCP is called */
      941      885
      942      886    2   DO TNT = 1 TO LAST_NULL;
      943      887
      944      888    2     IF LEAST_COST_PREFIX(TNT) ~= ADDR(NIL) THEN
      945      889    3       DO;
      946      890    3         COM_SEARCH_STRING_LEN = (LEAST_COST_PREFIX(TNT) -> PREFIX.LEN_IN_H - 3)*2;
      947      891    3         COM_SEARCH_STRING = ADDR(LEAST_COST_PREFIX(TNT) -> PREFIX.TOK(0));
      948      892
      949      893    3         I = 0;
      950      894    4         DO UNTIL (MOD(I,2) ~= 0);
      951      895
      952      896    4           CALL INDEX (COM_STRING_INDX,
      953      897    4                       CSEARCH_STRING,
      954      898    4                       SUBSTR(COM_STRINGS, I, COM_STRSP_LEN - I));
      955      899    4           I = I + COM_STRING_INDX + 1;
      956      900
      957      901    4         END;
      958      902
      959      903    3         COM_STRING_INDX = I -1;
      960      904
      961      905    3         IF COM_STRING_INDX = COM_STRSP_LEN THEN
      962      906    4           DO;
      963      907    4             IF COM_SEARCH_STRING_LEN + COM_STRSP_LEN > %MAX_STRSP_LEN THEN
      964      908    4               CALL DIAG(15,
               908               'ERROR => Least cost prefix space exhausted during error table generation.%%'
               908                        );
      965      909
      966      910    4             CALL INSERT(COM_STRING_SPACE,
      967      911    4                         COM_STRSP_LEN,
PL6.E3A0      #010=OUTPUT_LCP File=LR_ERRREC.:Z8A6TSI                            SAT 08/09/97 09:32 Page:285
      968      912    4                         COM_SEARCH_STRING_LEN,
      969      913    4                         CSEARCH_STRING);
      970      914    4             COM_STRSP_LEN = COM_STRSP_LEN + COM_SEARCH_STRING_LEN;
      971      915    4           END;
      972      916
      973      917              %SELECT_OU;
      974      920
      975      921              %OUT_STR(S="'  %LCP(NT='");
      976      924    3         CALL OUT_DEC(TNT);
      977      925
      978      926              %BOUNDS(T=LCP_NT, V=TNT);
      979      932
      980      933              %OUT_STR(S="',C='");
      981      936    3         CALL OUT_DEC(BINBIT(CURRE.COST(TNT), 36));
      982      937
      983      938              %BOUNDS(T=LCP_COST, V="CURRE.COST(TNT)");
      984      944
      985      945              %OUT_STR(S="',I='");
      986      948    3         CALL OUT_DEC(COM_STRING_INDX/2);
      987      949
      988      950               %BOUNDS(T=LCP_INDX, V="COM_STRING_INDX/2");
      989      956
      990      957              %OUT_STR(S="',L='");
      991      960    3         CALL OUT_DEC(COM_SEARCH_STRING_LEN/2);
      992      961
      993      962              %BOUNDS(T=LCP_LEN, V="COM_SEARCH_STRING_LEN/2");
      994      968
      995      969              %OUT_STR(S="');  /* '");
      996      972    3         CALL OUT_SYMBOL(SYM_PTRS(TNT));
      997      973              %OUT_STR(S="' , '");
      998      976    3         CALL OUT_SYMBOL(SYM_PTRS(T));
      999      977              %OUT_STR(S="' */'");
     1000      980    3         CALL FLUSH;
     1001      981
     1002      982    3         LCP_TABLE_LEN = LCP_TABLE_LEN + 1;
     1003      983    3       END;
     1004      984    2   END;
PL6.E3A0      #010=OUTPUT_LCP File=LR_ERRREC.:Z8A6TSI                            SAT 08/09/97 09:32 Page:286
     1005      985
     1006      986
     1007      987    1     LCP_INDX(T) = LCP_TABLE_LEN;
     1008      988
     1009      989    1     IF T = NR_TERM THEN
     1010      990    2       DO;  /* Close out LCP table */
     1011      991
     1012      992              %SELECT_SUBS;
     1013      995
     1014      996            %OUT_STR(S="'%EQU LCP_LEN = '");
     1015      999    2       CALL OUT_DEC(LCP_TABLE_LEN);
     1016     1000            %OUT_STR(S="';'");
     1017     1003    2       CALL FLUSH;
     1018     1004
     1019     1005        %STAT_LENGTH(T=LCP_LEN,V="LCP_TABLE_LEN+1");
     1020     1008        %STAT_LENGTH(T=LCP_INDX,V="LCP_TABLE_LEN+1");
     1021     1011        %STAT_LENGTH(T=LCP_COST,V="LCP_TABLE_LEN+1");
     1022     1014        %STAT_LENGTH(T=LCP_NT,V="LCP_TABLE_LEN+1");
     1023     1017
     1024     1018            %OUT_STR(S="'%EQU LCP_UBOUND_LEN = '");
     1025     1021    2       CALL OUT_DEC(NR_TERM);
     1026     1022            %OUT_STR(S="';'");
     1027     1025    2       CALL FLUSH;
     1028     1026
     1029     1027        %STAT_LENGTH(T=LCP_UBOUND, V="NR_TERM+1");
     1030     1030
     1031     1031        %OUT_STR(S="'%EQU LCP_ELEM_LEN = '");
     1032     1034    2   CALL OUT_DEC(COM_STRSP_LEN/2 - 1);
     1033     1035        %OUT_STR(S="';'");
     1034     1038    2   CALL FLUSH;
     1035     1039
     1036     1040        %STAT_LENGTH(T=LCP_ELEM, V="COM_STRSP_LEN/2");
     1037     1043
     1038     1044        %SELECT_OU;
     1039     1047
     1040     1048        %OUTLINE(S="'%END_TABLE_LCP;'");
     1041     1054
PL6.E3A0      #010=OUTPUT_LCP File=LR_ERRREC.:Z8A6TSI                            SAT 08/09/97 09:32 Page:287
     1042     1055        %OUTLINE(S="'%START_TABLE_LCP_UBOUND;'");
     1043     1061
     1044     1062    3         DO I = 1 TO NR_TERM;
     1045     1063
     1046     1064                %OUT_STR(S="'  %LCPUB(U='");
     1047     1067    3           CALL OUT_DEC(BINBIT(LCP_INDX(I), 36));
     1048     1068                %OUT_STR(S="');'");
     1049     1071                %OUT_STR(S="'  /* '");
     1050     1074    3           CALL OUT_SYMBOL(SYM_PTRS(I));
     1051     1075                %OUT_STR(S="' */'");
     1052     1078    3           CALL FLUSH;
     1053     1079
     1054     1080                %BOUNDS(T=LCP_UBOUND, V="LCP_INDX(I)");
     1055     1086
     1056     1087
     1057     1088    3         END;
     1058     1089
     1059     1090              %OUTLINE(S="'%END_TABLE_LCP_UBOUND;'");
     1060     1096
     1061     1097              %OUTLINE(S="'%START_TABLE_LCP_ELEM;'");
     1062     1103
     1063     1104    3         DO I = 1 TO COM_STRSP_LEN/2 -1;
     1064     1105
     1065     1106                %OUT_STR(S="'  %LCPE(E='");
     1066     1109    3           CALL OUT_DEC(BINBIT(COM_STRING_SPACE_H(I),36));
     1067     1110                %OUT_STR(S="');'");
     1068     1113                %OUT_STR(S="'  /* '");
     1069     1116    3           CALL OUT_DEC(I);
     1070     1117                %OUT_STR(S="' */'");
     1071     1120    3           CALL FLUSH;
     1072     1121
     1073     1122                %BOUNDS(T=LCP_ELEM, V="COM_STRING_SPACE_H(I)");
     1074     1128
     1075     1129    3         END;
     1076     1130
     1077     1131              %OUTLINE(S="'%END_TABLE_LCP_ELEM;'");
     1078     1137
PL6.E3A0      #010=OUTPUT_LCP File=LR_ERRREC.:Z8A6TSI                            SAT 08/09/97 09:32 Page:288
     1079     1138    2       END;
     1080     1139    1   END OUTPUT_LCP;
     1081     1140        %EOD;

PL6.E3A0      #010=OUTPUT_LCP File=LR_ERRREC.:Z8A6TSI                            SAT 08/09/97 09:32 Page:289
--  Include file information  --

   LR_ERR_EXT.:Z8A6TOU  cannot be made into a system file and is referenced.
   LR_CNFG_EXT.:Z8A6TOU  cannot be made into a system file and is referenced.
   LR_IO_EXT.:Z8A6TOU  cannot be made into a system file and is referenced.
   LR_GRAM_EXT.:Z8A6TOU  cannot be made into a system file and is referenced.
      No diagnostics issued in procedure OUTPUT_LCP.

   Procedure OUTPUT_LCP requires 459 words for executable code.
   Procedure OUTPUT_LCP is declared NOAUTO and requires 12 words of local(STATIC) storage.

PL6.E3A0      #010=OUTPUT_LCP File=LR_ERRREC.:Z8A6TSI                            SAT 08/09/97 09:32 Page:290

 Object Unit name= OUTPUT_LCP                                 File name= LR_ERRREC.:Z8A6TOU
 UTS= AUG 09 '97 09:32:04.40 SAT                              Compiler= PL-6/E31         Sev=      00
 SharedLib= :SHARED_SYSTEM                                    Alt SharedLib=


    ****  Control sections  ****

 Sect   Type Bound  Init  Size OctSiz  Section name(segment info)
    0   Data  even  none    12     14  OUTPUT_LCP
    1  LblCom even  none     1      1  OUT_DCBN
    2   DCB   even  none     0      0  M$OU
    3   DCB   even  none     0      0  M$SO
    4   DCB   even  none     0      0  M$LO
    5   DCB   even  none     0      0  M$SI
    6   DCB   even  none     0      0  M$UI
    7  LblCom even  none  1401   2571  SYM_PTRS
    8  LblCom even  none  4001   7641  RIGHT_PARTS
    9  LblCom even  none  3002   5672  PROD
   10  LblCom even  none     1      1  NR_PROD
   11  LblCom even  none     1      1  NR_SYMS
   12  LblCom even  none     1      1  NR_TERM
   13  LblCom even  none     1      1  LAST_ACT
   14  LblCom even  none     1      1  LAST_NULL
   15  LblCom even  none     1      1  NR_ONRIGHT
   16  LblCom even  none     1      1  NR_NT
   17  LblCom even  none     1      1  PROD_LEN_MAX_EVER
   18  LblCom even  none     1      1  LAST_ORDER_SPECIFIED
   19  LblCom even  none     1      1  SEMANTIC_ORDERING
   20  LblCom even  none     1      1  ERR_SEV
   21  LblCom even  none     1      1  SET_LENGTHB
   22  LblCom even  none     1      1  SET_LENGTHW
   23  LblCom even  none     1      1  EOF_SYMBOL_PTR
   24  LblCom even  none     1      1  ERROR_SYMBOL_PTR
   25  LblCom even  none     1      1  BOF_SYMBOL_PTR
   26  LblCom even  none     1      1  OPTIONS
   27  LblCom even  none    26     32  OPTIONS_TEXT
   28  LblCom even  none   128    200  INSTR
PL6.E3A0      #010=OUTPUT_LCP File=LR_ERRREC.:Z8A6TSI                            SAT 08/09/97 09:32 Page:291
   29  LblCom even  none     1      1  INSTR_LISTED
   30  LblCom even  none     1      1  INSTR_LEN
   31  LblCom even  none     1      1  INSTR_INDX
   32  LblCom even  none     1      1  EOF_FLAG
   33  LblCom even  none     3      3  KEY_REC
   34  LblCom even  none    28     34  LINE
   35  LblCom even  none     1      1  LINELEN
   36  LblCom even  none   205    315  TSTATS
   37  LblCom even  none  2201   4231  C#_TO_$
   38  LblCom even  none     1      1  NR_CONFIG
   39  LblCom even  none     1      1  INIT_CONFIG
   40  LblCom even  none     1      1  MAX_BASIS_ITEMS
   41  LblCom even  none     1      1  MAX_TOTAL_ITEMS
   42  LblCom even  none     1      1  LAST_BINSRCH_ONLY
   43  LblCom even  none     1      1  LAST_BOTH_BITBIN
   44  LblCom even  none   101    145  GARBAGE
   45  LblCom even  none     1      1  AMT_GARBAGE
   46  LblCom even  none  1401   2571  LEAST_COST_STRING
   47  LblCom even  none  1401   2571  LEAST_COST_PREFIX
   48  LblCom even  none  5604  12744  CURRE
   49  LblCom even  none   701   1275  LCP_INDX
   50  LblCom even  none     1      1  COM_STRSP_LEN
   51  LblCom even  none     1      1  COM_SEARCH_STRING
   52  LblCom even  none     1      1  COM_SEARCH_STRING_LEN
   53  LblCom even  none     1      1  COM_STRING_SPACE_LEN
   54  LblCom even  none 12500  30324  COM_STRING_SPACE_H
   55  LblCom even  none     1      1  COM_STRING_SPACE$
   56  LblCom even  none     1      1  COM_STRING_PTR
   57  LblCom even  none     1      1  COM_STRING_INDX
   58  LblCom even  none     1      1  LCP_TABLE_LEN
   59  LblCom even  none  2201   4231  STATE_ITEM_INDEX
   60  LblCom even  none 17601  42301  PATH
   61  LblCom even  none     1      1  PATH_STRINGS_LEN
   62  LblCom even  none     1      1  PATH_ADDR$
   63  LblCom even  none     1      1  PATH_TABLE_LEN
   64  LblCom even  none   401    621  EDGECOST
   65  LblCom even  none     1      1  ITEM_TABLE_LEN
PL6.E3A0      #010=OUTPUT_LCP File=LR_ERRREC.:Z8A6TSI                            SAT 08/09/97 09:32 Page:292
   66  LblCom even  none   401    621  ORDERED_ITEM
   67  LblCom even  none   401    621  NEIGHBOR
   68  LblCom even  none   802   1442  PATH_INFO
   69  LblCom even  none   401    621  CHOSEN
   70  LblCom even  none    12     14  REACHED
   71  LblCom even  none     1      1  EXP_PATH_INDX
   72  RoData even  UTS     84    124  OUTPUT_LCP
   73   Proc  even  none   459    713  OUTPUT_LCP
   74  RoData even  none    66    102  OUTPUT_LCP

    ****  Entry defs  ****

                              Check   Calling
                             calling  sequence
  Sect OctLoc Primary Altret sequence   type   Parms  Name
    73      0   yes            yes      Std        1  OUTPUT_LCP

  ****  Entry refs  ****

         Check        Calling
        calling       sequence
Altret sequence SRef   type   Args  Name
         yes           Std       2 OUT_STR
         yes           Std       0 FLUSH
         yes           Std       6 DIAG
         yes           Std       1 OUT_SYMBOL
         yes           Std       1 OUT_DEC
                       nStd      0 X66_STATIC_1
                       nStd      0 X66_INDEX

  ****  Data refs  ****

  Flags:  r = read only, s = secondary
Flgs Name                             Flgs Name                             Flgs Name
     M$OU                                  M$SO                                  M$LO
     M$SI                                  M$UI
PL6.E3A0      #010=OUTPUT_LCP File=LR_ERRREC.:Z8A6TSI                            SAT 08/09/97 09:32 Page:293

  ****  Segment refs  ****

  Flags:  r = read only, s = secondary
Flgs Name                             Flgs Name                             Flgs Name
     NULLSID                               ISSID
PL6.E3A0      #010=OUTPUT_LCP File=LR_ERRREC.:Z8A6TSI                            SAT 08/09/97 09:32 Page:294


      896        1        /*T***********************************************************/
      897        2        /*T*                                                         */
      898        3        /*T* Copyright (c) Bull HN Information Systems Inc., 1997    */
      899        4        /*T*                                                         */
      900        5        /*T***********************************************************/
      901        6        OUTPUT_LCP : PROC(T) NOAUTO;

      6 73 000000   000000 700200 xent  OUTPUT_LCP   TSX0  ! X66_STATIC_1
        73 000001   000000 000001 0                  ZERO    0,1

      902        7
      903        8        /*D*
      904        9               NAME: OUTPUT_LCP
      905       10            PURPOSE: OUTPUT A SLICE OF THE LEAST_COST_PREFIXES FOR TERMINAL T.
      906       11        */
      907       12
      908       13    1   DCL T SBIN WORD;
      909       14
      910       15        %INCLUDE LR_GRAM_EXT;
      911      554        %INCLUDE LR_CNFG_EXT;
      912      707        %INCLUDE LR_ERR_EXT;
      913      850
      914      851    1   DCL OUT_SYMBOL ENTRY(1);
      915      852    1   DCL OUT_SYMBOL_TOKEN ENTRY(1);
      916      853
      917      854
      918      855    1   DCL FIRST_CALLED BOOLEAN STATIC INIT(TRUE);
      919      856
      920      857    1   DCL I SBIN WORD;
      921      858    1   DCL TNT SBIN WORD;
      922      859
      923      860
      924      861    1   IF FIRST_CALLED THEN

    861 73 000002   000002 234000 0                  SZN     FIRST_CALLED
        73 000003   000024 605000 73                 TPL     s:886
PL6.E3A0      #010=OUTPUT_LCP File=LR_ERRREC.:Z8A6TSI                            SAT 08/09/97 09:32 Page:295

      925      862    2     DO;

      926      863    2       FIRST_CALLED = FALSE;

    863 73 000004   000002 450000 0                  STZ     FIRST_CALLED

      927      864
      928      865
      929      866            %SELECT_OU;

    867 73 000005   000000 236007 xsym               LDQ     M$OU,DL
        73 000006   000000 756000 1                  STQ     OUT_DCBN

      930      869
      931      870            %OUTLINE(S="'%START_TABLE_LCP;'");

    872 73 000007   000002 630400 74                 EPPR0   2
        73 000010   000000 631400 74                 EPPR1   0
        73 000011   000000 701000 xent               TSX1    OUT_STR
        73 000012   000000 011000                    NOP     0

    873 73 000013   000004 631400 74                 EPPR1   4
        73 000014   000000 701000 xent               TSX1    FLUSH
        73 000015   000000 011000                    NOP     0

      932      876
      933      877    2       LCP_INDX(0) = 0;

    877 73 000016   000000 220003                    LDX0    0,DU
        73 000017   000000 740000 49                 STX0    LCP_INDX

      934      878    2       LCP_TABLE_LEN = 0;

    878 73 000020   000000 450000 58                 STZ     LCP_TABLE_LEN

      935      879
PL6.E3A0      #010=OUTPUT_LCP File=LR_ERRREC.:Z8A6TSI                            SAT 08/09/97 09:32 Page:296
      936      880    2       COM_STRSP_LEN = 2;

    880 73 000021   000002 235007                    LDA     2,DL
        73 000022   000000 755000 50                 STA     COM_STRSP_LEN

      937      881    2       COM_STRING_SPACE_H(0) = 0;

    881 73 000023   000000 740000 54                 STX0    COM_STRING_SPACE_H

      938      882    2     END;

      939      883
      940      884        /* Main body of work which is done every time OUTPUT_LCP is called */
      941      885
      942      886    2   DO TNT = 1 TO LAST_NULL;

    886 73 000024   000001 235007                    LDA     1,DL
        73 000025   000004 755000 0                  STA     TNT
        73 000026   000323 710000 73                 TRA     s:984+1

      943      887
      944      888    2     IF LEAST_COST_PREFIX(TNT) ~= ADDR(NIL) THEN

    888 73 000027   000004 720000 0                  LXL0    TNT
        73 000030   000000 236010 47                 LDQ     LEAST_COST_PREFIX,X0
        73 000031   000005 116000 74                 CMPQ    5
        73 000032   000322 600000 73                 TZE     s:984

      945      889    3       DO;

      946      890    3         COM_SEARCH_STRING_LEN = (LEAST_COST_PREFIX(TNT) -> PREFIX.LEN_IN_H - 3)*2;

    890 73 000033   000000 470410 47                 LDP0    LEAST_COST_PREFIX,X0
        73 000034   000000 236100                    LDQ     0,,PR0
        73 000035   000021 772000                    QRL     17
        73 000036   000006 376000 74                 ANQ     6
        73 000037   000006 136007                    SBLQ    6,DL
PL6.E3A0      #010=OUTPUT_LCP File=LR_ERRREC.:Z8A6TSI                            SAT 08/09/97 09:32 Page:297
        73 000040   000000 756000 52                 STQ     COM_SEARCH_STRING_LEN

      947      891    3         COM_SEARCH_STRING = ADDR(LEAST_COST_PREFIX(TNT) -> PREFIX.TOK(0));

    891 73 000041   000002 631500                    EPPR1   2,,PR0
        73 000042   000000 451400 51                 STP1    COM_SEARCH_STRING

      948      892
      949      893    3         I = 0;

    893 73 000043   000003 450000 0                  STZ     I

      950      894    4         DO UNTIL (MOD(I,2) ~= 0);

      951      895
      952      896    4           CALL INDEX (COM_STRING_INDX,

    896 73 000044   000000 236000 50                 LDQ     COM_STRSP_LEN
        73 000045   000003 136000 0                  SBLQ    I
        73 000046   000000 631400 57                 EPPR1   COM_STRING_INDX
        73 000047   000000 473400 51                 LDP3    COM_SEARCH_STRING
        73 000050   000000 723000 52                 LXL3    COM_SEARCH_STRING_LEN
        73 000051   000000 470400 56                 LDP0    COM_STRING_PTR
        73 000052   000003 235000 0                  LDA     I
        73 000053   000000 500505                    A9BD    0,AL,PR0
        73 000054   000000 620006                    EAX0    0,QL
        73 000055   000000 236003                    LDQ     0,DU
        73 000056   000000 701000 xent               TSX1    X66_INDEX
        73 000057   000000 011000                    NOP     0

      953      897    4                       CSEARCH_STRING,
      954      898    4                       SUBSTR(COM_STRINGS, I, COM_STRSP_LEN - I));
      955      899    4           I = I + COM_STRING_INDX + 1;

    899 73 000060   000003 236000 0                  LDQ     I
        73 000061   000000 036000 57                 ADLQ    COM_STRING_INDX
        73 000062   000001 036007                    ADLQ    1,DL
PL6.E3A0      #010=OUTPUT_LCP File=LR_ERRREC.:Z8A6TSI                            SAT 08/09/97 09:32 Page:298
        73 000063   000003 756000 0                  STQ     I

      956      900
      957      901    4         END;

    901 73 000064   000002 506007                    DIV     2,DL
        73 000065   000044 733000                    LRS     36
        73 000066   000000 116003                    CMPQ    0,DU
        73 000067   000044 600000 73                 TZE     s:896

      958      902
      959      903    3         COM_STRING_INDX = I -1;

    903 73 000070   000003 235000 0                  LDA     I
        73 000071   000001 135007                    SBLA    1,DL
        73 000072   000000 755000 57                 STA     COM_STRING_INDX

      960      904
      961      905    3         IF COM_STRING_INDX = COM_STRSP_LEN THEN

    905 73 000073   000000 236000 57                 LDQ     COM_STRING_INDX
        73 000074   000000 116000 50                 CMPQ    COM_STRSP_LEN
        73 000075   000120 601000 73                 TNZ     s:918

      962      906    4           DO;

      963      907    4             IF COM_SEARCH_STRING_LEN + COM_STRSP_LEN > %MAX_STRSP_LEN THEN

    907 73 000076   000000 236000 52                 LDQ     COM_SEARCH_STRING_LEN
        73 000077   000000 036000 50                 ADLQ    COM_STRSP_LEN
        73 000100   141520 116007                    CMPQ    50000,DL
        73 000101   000106 604400 73                 TMOZ    s:910

      964      908    4               CALL DIAG(15,
               908              'ERROR => Least cost prefix space exhausted during error table generation.%%'
               908                        );

PL6.E3A0      #010=OUTPUT_LCP File=LR_ERRREC.:Z8A6TSI                            SAT 08/09/97 09:32 Page:299
    908 73 000102   000010 630400 74                 EPPR0   8
        73 000103   000000 631400 74                 EPPR1   0
        73 000104   000000 701000 xent               TSX1    DIAG
        73 000105   000000 011000                    NOP     0

      965      909
      966      910    4             CALL INSERT(COM_STRING_SPACE,

    910 73 000106   000000 470400 51                 LDP0    COM_SEARCH_STRING
        73 000107   000000 720000 52                 LXL0    COM_SEARCH_STRING_LEN
        73 000110   000000 471400 55                 LDP1    COM_STRING_SPACE$
        73 000111   000000 235000 50                 LDA     COM_STRSP_LEN
        73 000112   040145 100540                    MLR     fill='040'O
        73 000113   000000 000010                    ADSC9   0,,PR0                   cn=0,n=*X0
        73 000114   100000 000010                    ADSC9   0,A,PR1                  cn=0,n=*X0

      967      911    4                         COM_STRSP_LEN,
      968      912    4                         COM_SEARCH_STRING_LEN,
      969      913    4                         CSEARCH_STRING);
      970      914    4             COM_STRSP_LEN = COM_STRSP_LEN + COM_SEARCH_STRING_LEN;

    914 73 000115   000000 236000 50                 LDQ     COM_STRSP_LEN
        73 000116   000000 036000 52                 ADLQ    COM_SEARCH_STRING_LEN
        73 000117   000000 756000 50                 STQ     COM_STRSP_LEN

      971      915    4           END;

      972      916
      973      917              %SELECT_OU;

    918 73 000120   000000 236007 xsym               LDQ     M$OU,DL
        73 000121   000000 756000 1                  STQ     OUT_DCBN

      974      920
      975      921              %OUT_STR(S="'  %LCP(NT='");

    922 73 000122   000013 630400 74                 EPPR0   11
PL6.E3A0      #010=OUTPUT_LCP File=LR_ERRREC.:Z8A6TSI                            SAT 08/09/97 09:32 Page:300
        73 000123   000000 631400 74                 EPPR1   0
        73 000124   000000 701000 xent               TSX1    OUT_STR
        73 000125   000000 011000                    NOP     0

      976      924    3         CALL OUT_DEC(TNT);

    924 73 000126   000016 630400 74                 EPPR0   14
        73 000127   000015 631400 74                 EPPR1   13
        73 000130   000000 701000 xent               TSX1    OUT_DEC
        73 000131   000000 011000                    NOP     0

      977      925
      978      926              %BOUNDS(T=LCP_NT, V=TNT);

    928 73 000132   000004 236000 0                  LDQ     TNT
        73 000133   000252 116000 36                 CMPQ    TSTATS+170
        73 000134   000136 604400 73                 TMOZ    s:928+4
        73 000135   000252 236000 36                 LDQ     TSTATS+170
        73 000136   000252 756000 36                 STQ     TSTATS+170

    929 73 000137   000004 236000 0                  LDQ     TNT
        73 000140   000251 116000 36                 CMPQ    TSTATS+169
        73 000141   000143 605000 73                 TPL     s:929+4
        73 000142   000251 236000 36                 LDQ     TSTATS+169
        73 000143   000251 756000 36                 STQ     TSTATS+169

      979      932
      980      933              %OUT_STR(S="',C='");

    934 73 000144   000020 630400 74                 EPPR0   16
        73 000145   000000 631400 74                 EPPR1   0
        73 000146   000000 701000 xent               TSX1    OUT_STR
        73 000147   000000 011000                    NOP     0

      981      936    3         CALL OUT_DEC(BINBIT(CURRE.COST(TNT), 36));

    936 73 000150   000004 235000 0                  LDA     TNT
PL6.E3A0      #010=OUTPUT_LCP File=LR_ERRREC.:Z8A6TSI                            SAT 08/09/97 09:32 Page:301
        73 000151   000002 735000                    ALS     2
        73 000152   000000 236005 48                 LDQ     CURRE,AL
        73 000153   000022 732000                    QRS     18
        73 000154   000006 756000 0                  STQ     TNT+2
        73 000155   000006 630400 0                  EPPR0   TNT+2
        73 000156   000010 450400 0                  STP0    TNT+4
        73 000157   000010 630400 0                  EPPR0   TNT+4
        73 000160   000015 631400 74                 EPPR1   13
        73 000161   000000 701000 xent               TSX1    OUT_DEC
        73 000162   000000 011000                    NOP     0

      982      937
      983      938              %BOUNDS(T=LCP_COST, V="CURRE.COST(TNT)");

    940 73 000163   000004 235000 0                  LDA     TNT
        73 000164   000002 735000                    ALS     2
        73 000165   000000 236005 48                 LDQ     CURRE,AL
        73 000166   000022 732000                    QRS     18
        73 000167   000260 116000 36                 CMPQ    TSTATS+176
        73 000170   000172 604400 73                 TMOZ    s:940+7
        73 000171   000260 236000 36                 LDQ     TSTATS+176
        73 000172   000260 756000 36                 STQ     TSTATS+176

    941 73 000173   000000 236005 48                 LDQ     CURRE,AL
        73 000174   000022 732000                    QRS     18
        73 000175   000257 116000 36                 CMPQ    TSTATS+175
        73 000176   000200 605000 73                 TPL     s:941+5
        73 000177   000257 236000 36                 LDQ     TSTATS+175
        73 000200   000257 756000 36                 STQ     TSTATS+175

      984      944
      985      945              %OUT_STR(S="',I='");

    946 73 000201   000022 630400 74                 EPPR0   18
        73 000202   000000 631400 74                 EPPR1   0
        73 000203   000000 701000 xent               TSX1    OUT_STR
        73 000204   000000 011000                    NOP     0
PL6.E3A0      #010=OUTPUT_LCP File=LR_ERRREC.:Z8A6TSI                            SAT 08/09/97 09:32 Page:302

      986      948    3         CALL OUT_DEC(COM_STRING_INDX/2);

    948 73 000205   000000 236000 57                 LDQ     COM_STRING_INDX
        73 000206   000002 506007                    DIV     2,DL
        73 000207   000006 756000 0                  STQ     TNT+2
        73 000210   000006 630400 0                  EPPR0   TNT+2
        73 000211   000007 450400 0                  STP0    TNT+3
        73 000212   000007 630400 0                  EPPR0   TNT+3
        73 000213   000015 631400 74                 EPPR1   13
        73 000214   000000 701000 xent               TSX1    OUT_DEC
        73 000215   000000 011000                    NOP     0

      987      949
      988      950               %BOUNDS(T=LCP_INDX, V="COM_STRING_INDX/2");

    952 73 000216   000000 236000 57                 LDQ     COM_STRING_INDX
        73 000217   000002 506007                    DIV     2,DL
        73 000220   000274 116000 36                 CMPQ    TSTATS+188
        73 000221   000223 604400 73                 TMOZ    s:952+5
        73 000222   000274 236000 36                 LDQ     TSTATS+188
        73 000223   000274 756000 36                 STQ     TSTATS+188

    953 73 000224   000000 236000 57                 LDQ     COM_STRING_INDX
        73 000225   000002 506007                    DIV     2,DL
        73 000226   000273 116000 36                 CMPQ    TSTATS+187
        73 000227   000231 605000 73                 TPL     s:953+5
        73 000230   000273 236000 36                 LDQ     TSTATS+187
        73 000231   000273 756000 36                 STQ     TSTATS+187

      989      956
      990      957              %OUT_STR(S="',L='");

    958 73 000232   000024 630400 74                 EPPR0   20
        73 000233   000000 631400 74                 EPPR1   0
        73 000234   000000 701000 xent               TSX1    OUT_STR
        73 000235   000000 011000                    NOP     0
PL6.E3A0      #010=OUTPUT_LCP File=LR_ERRREC.:Z8A6TSI                            SAT 08/09/97 09:32 Page:303

      991      960    3         CALL OUT_DEC(COM_SEARCH_STRING_LEN/2);

    960 73 000236   000000 236000 52                 LDQ     COM_SEARCH_STRING_LEN
        73 000237   000002 506007                    DIV     2,DL
        73 000240   000006 756000 0                  STQ     TNT+2
        73 000241   000006 630400 0                  EPPR0   TNT+2
        73 000242   000007 450400 0                  STP0    TNT+3
        73 000243   000007 630400 0                  EPPR0   TNT+3
        73 000244   000015 631400 74                 EPPR1   13
        73 000245   000000 701000 xent               TSX1    OUT_DEC
        73 000246   000000 011000                    NOP     0

      992      961
      993      962              %BOUNDS(T=LCP_LEN, V="COM_SEARCH_STRING_LEN/2");

    964 73 000247   000000 236000 52                 LDQ     COM_SEARCH_STRING_LEN
        73 000250   000002 506007                    DIV     2,DL
        73 000251   000266 116000 36                 CMPQ    TSTATS+182
        73 000252   000254 604400 73                 TMOZ    s:964+5
        73 000253   000266 236000 36                 LDQ     TSTATS+182
        73 000254   000266 756000 36                 STQ     TSTATS+182

    965 73 000255   000000 236000 52                 LDQ     COM_SEARCH_STRING_LEN
        73 000256   000002 506007                    DIV     2,DL
        73 000257   000265 116000 36                 CMPQ    TSTATS+181
        73 000260   000262 605000 73                 TPL     s:965+5
        73 000261   000265 236000 36                 LDQ     TSTATS+181
        73 000262   000265 756000 36                 STQ     TSTATS+181

      994      968
      995      969              %OUT_STR(S="');  /* '");

    970 73 000263   000027 630400 74                 EPPR0   23
        73 000264   000000 631400 74                 EPPR1   0
        73 000265   000000 701000 xent               TSX1    OUT_STR
        73 000266   000000 011000                    NOP     0
PL6.E3A0      #010=OUTPUT_LCP File=LR_ERRREC.:Z8A6TSI                            SAT 08/09/97 09:32 Page:304

      996      972    3         CALL OUT_SYMBOL(SYM_PTRS(TNT));

    972 73 000267   000004 720000 0                  LXL0    TNT
        73 000270   000000 630410 7                  EPPR0   SYM_PTRS,X0
        73 000271   000006 450400 0                  STP0    TNT+2
        73 000272   000006 630400 0                  EPPR0   TNT+2
        73 000273   000015 631400 74                 EPPR1   13
        73 000274   000000 701000 xent               TSX1    OUT_SYMBOL
        73 000275   000000 011000                    NOP     0

      997      973              %OUT_STR(S="' , '");

    974 73 000276   000031 630400 74                 EPPR0   25
        73 000277   000000 631400 74                 EPPR1   0
        73 000300   000000 701000 xent               TSX1    OUT_STR
        73 000301   000000 011000                    NOP     0

      998      976    3         CALL OUT_SYMBOL(SYM_PTRS(T));

    976 73 000302   000001 470400 0                  LDP0    @T
        73 000303   000000 720100                    LXL0    0,,PR0
        73 000304   000000 631410 7                  EPPR1   SYM_PTRS,X0
        73 000305   000006 451400 0                  STP1    TNT+2
        73 000306   000006 630400 0                  EPPR0   TNT+2
        73 000307   000015 631400 74                 EPPR1   13
        73 000310   000000 701000 xent               TSX1    OUT_SYMBOL
        73 000311   000000 011000                    NOP     0

      999      977              %OUT_STR(S="' */'");

    978 73 000312   000033 630400 74                 EPPR0   27
        73 000313   000000 631400 74                 EPPR1   0
        73 000314   000000 701000 xent               TSX1    OUT_STR
        73 000315   000000 011000                    NOP     0

     1000      980    3         CALL FLUSH;
PL6.E3A0      #010=OUTPUT_LCP File=LR_ERRREC.:Z8A6TSI                            SAT 08/09/97 09:32 Page:305

    980 73 000316   000004 631400 74                 EPPR1   4
        73 000317   000000 701000 xent               TSX1    FLUSH
        73 000320   000000 011000                    NOP     0

     1001      981
     1002      982    3         LCP_TABLE_LEN = LCP_TABLE_LEN + 1;

    982 73 000321   000000 054000 58                 AOS     LCP_TABLE_LEN

     1003      983    3       END;

     1004      984    2   END;

    984 73 000322   000004 054000 0                  AOS     TNT
        73 000323   000004 236000 0                  LDQ     TNT
        73 000324   000000 116000 14                 CMPQ    LAST_NULL
        73 000325   000027 604400 73                 TMOZ    s:888

     1005      985
     1006      986
     1007      987    1     LCP_INDX(T) = LCP_TABLE_LEN;

    987 73 000326   000001 470400 0                  LDP0    @T
        73 000327   000000 235100                    LDA     0,,PR0
        73 000330   000001 735000                    ALS     1
        73 000331   000005 101400                    MRL     fill='000'O
        73 000332   000000 000004 58                 ADSC9   LCP_TABLE_LEN            cn=0,n=4
        73 000333   000000 000002 49                 ADSC9   LCP_INDX,A               cn=0,n=2

     1008      988
     1009      989    1     IF T = NR_TERM THEN

    989 73 000334   000000 236100                    LDQ     0,,PR0
        73 000335   000000 116000 12                 CMPQ    NR_TERM
        73 000336   000711 601000 73                 TNZ     s:1139

PL6.E3A0      #010=OUTPUT_LCP File=LR_ERRREC.:Z8A6TSI                            SAT 08/09/97 09:32 Page:306
     1010      990    2       DO;  /* Close out LCP table */

     1011      991
     1012      992              %SELECT_SUBS;

    993 73 000337   000000 236007 xsym               LDQ     M$SO,DL
        73 000340   000000 756000 1                  STQ     OUT_DCBN

     1013      995
     1014      996            %OUT_STR(S="'%EQU LCP_LEN = '");

    997 73 000341   000035 630400 74                 EPPR0   29
        73 000342   000000 631400 74                 EPPR1   0
        73 000343   000000 701000 xent               TSX1    OUT_STR
        73 000344   000000 011000                    NOP     0

     1015      999    2       CALL OUT_DEC(LCP_TABLE_LEN);

    999 73 000345   000037 630400 74                 EPPR0   31
        73 000346   000015 631400 74                 EPPR1   13
        73 000347   000000 701000 xent               TSX1    OUT_DEC
        73 000350   000000 011000                    NOP     0

     1016     1000            %OUT_STR(S="';'");

   1001 73 000351   000042 630400 74                 EPPR0   34
        73 000352   000000 631400 74                 EPPR1   0
        73 000353   000000 701000 xent               TSX1    OUT_STR
        73 000354   000000 011000                    NOP     0

     1017     1003    2       CALL FLUSH;

   1003 73 000355   000004 631400 74                 EPPR1   4
        73 000356   000000 701000 xent               TSX1    FLUSH
        73 000357   000000 011000                    NOP     0

     1018     1004
PL6.E3A0      #010=OUTPUT_LCP File=LR_ERRREC.:Z8A6TSI                            SAT 08/09/97 09:32 Page:307
     1019     1005        %STAT_LENGTH(T=LCP_LEN,V="LCP_TABLE_LEN+1");

   1006 73 000360   000000 235000 58                 LDA     LCP_TABLE_LEN
        73 000361   000001 035007                    ADLA    1,DL
        73 000362   000267 755000 36                 STA     TSTATS+183

     1020     1008        %STAT_LENGTH(T=LCP_INDX,V="LCP_TABLE_LEN+1");

   1009 73 000363   000275 755000 36                 STA     TSTATS+189

     1021     1011        %STAT_LENGTH(T=LCP_COST,V="LCP_TABLE_LEN+1");

   1012 73 000364   000261 755000 36                 STA     TSTATS+177

     1022     1014        %STAT_LENGTH(T=LCP_NT,V="LCP_TABLE_LEN+1");

   1015 73 000365   000253 755000 36                 STA     TSTATS+171

     1023     1017
     1024     1018            %OUT_STR(S="'%EQU LCP_UBOUND_LEN = '");

   1019 73 000366   000045 630400 74                 EPPR0   37
        73 000367   000000 631400 74                 EPPR1   0
        73 000370   000000 701000 xent               TSX1    OUT_STR
        73 000371   000000 011000                    NOP     0

     1025     1021    2       CALL OUT_DEC(NR_TERM);

   1021 73 000372   000047 630400 74                 EPPR0   39
        73 000373   000015 631400 74                 EPPR1   13
        73 000374   000000 701000 xent               TSX1    OUT_DEC
        73 000375   000000 011000                    NOP     0

     1026     1022            %OUT_STR(S="';'");

   1023 73 000376   000042 630400 74                 EPPR0   34
        73 000377   000000 631400 74                 EPPR1   0
PL6.E3A0      #010=OUTPUT_LCP File=LR_ERRREC.:Z8A6TSI                            SAT 08/09/97 09:32 Page:308
        73 000400   000000 701000 xent               TSX1    OUT_STR
        73 000401   000000 011000                    NOP     0

     1027     1025    2       CALL FLUSH;

   1025 73 000402   000004 631400 74                 EPPR1   4
        73 000403   000000 701000 xent               TSX1    FLUSH
        73 000404   000000 011000                    NOP     0

     1028     1026
     1029     1027        %STAT_LENGTH(T=LCP_UBOUND, V="NR_TERM+1");

   1028 73 000405   000000 235000 12                 LDA     NR_TERM
        73 000406   000001 035007                    ADLA    1,DL
        73 000407   000303 755000 36                 STA     TSTATS+195

     1030     1030
     1031     1031        %OUT_STR(S="'%EQU LCP_ELEM_LEN = '");

   1032 73 000410   000051 630400 74                 EPPR0   41
        73 000411   000000 631400 74                 EPPR1   0
        73 000412   000000 701000 xent               TSX1    OUT_STR
        73 000413   000000 011000                    NOP     0

     1032     1034    2   CALL OUT_DEC(COM_STRSP_LEN/2 - 1);

   1034 73 000414   000000 236000 50                 LDQ     COM_STRSP_LEN
        73 000415   000002 506007                    DIV     2,DL
        73 000416   000001 136007                    SBLQ    1,DL
        73 000417   000006 756000 0                  STQ     TNT+2
        73 000420   000006 630400 0                  EPPR0   TNT+2
        73 000421   000007 450400 0                  STP0    TNT+3
        73 000422   000007 630400 0                  EPPR0   TNT+3
        73 000423   000015 631400 74                 EPPR1   13
        73 000424   000000 701000 xent               TSX1    OUT_DEC
        73 000425   000000 011000                    NOP     0

PL6.E3A0      #010=OUTPUT_LCP File=LR_ERRREC.:Z8A6TSI                            SAT 08/09/97 09:32 Page:309
     1033     1035        %OUT_STR(S="';'");

   1036 73 000426   000042 630400 74                 EPPR0   34
        73 000427   000000 631400 74                 EPPR1   0
        73 000430   000000 701000 xent               TSX1    OUT_STR
        73 000431   000000 011000                    NOP     0

     1034     1038    2   CALL FLUSH;

   1038 73 000432   000004 631400 74                 EPPR1   4
        73 000433   000000 701000 xent               TSX1    FLUSH
        73 000434   000000 011000                    NOP     0

     1035     1039
     1036     1040        %STAT_LENGTH(T=LCP_ELEM, V="COM_STRSP_LEN/2");

   1041 73 000435   000000 236000 50                 LDQ     COM_STRSP_LEN
        73 000436   000002 506007                    DIV     2,DL
        73 000437   000311 756000 36                 STQ     TSTATS+201

     1037     1043
     1038     1044        %SELECT_OU;

   1045 73 000440   000000 236007 xsym               LDQ     M$OU,DL
        73 000441   000000 756000 1                  STQ     OUT_DCBN

     1039     1047
     1040     1048        %OUTLINE(S="'%END_TABLE_LCP;'");

   1050 73 000442   000053 630400 74                 EPPR0   43
        73 000443   000000 631400 74                 EPPR1   0
        73 000444   000000 701000 xent               TSX1    OUT_STR
        73 000445   000000 011000                    NOP     0

   1051 73 000446   000004 631400 74                 EPPR1   4
        73 000447   000000 701000 xent               TSX1    FLUSH
        73 000450   000000 011000                    NOP     0
PL6.E3A0      #010=OUTPUT_LCP File=LR_ERRREC.:Z8A6TSI                            SAT 08/09/97 09:32 Page:310

     1041     1054
     1042     1055        %OUTLINE(S="'%START_TABLE_LCP_UBOUND;'");

   1057 73 000451   000056 630400 74                 EPPR0   46
        73 000452   000000 631400 74                 EPPR1   0
        73 000453   000000 701000 xent               TSX1    OUT_STR
        73 000454   000000 011000                    NOP     0

   1058 73 000455   000004 631400 74                 EPPR1   4
        73 000456   000000 701000 xent               TSX1    FLUSH
        73 000457   000000 011000                    NOP     0

     1043     1061
     1044     1062    3         DO I = 1 TO NR_TERM;

   1062 73 000460   000001 235007                    LDA     1,DL
        73 000461   000003 755000 0                  STA     I
        73 000462   000560 710000 73                 TRA     s:1088+1

     1045     1063
     1046     1064                %OUT_STR(S="'  %LCPUB(U='");

   1065 73 000463   000061 630400 74                 EPPR0   49
        73 000464   000000 631400 74                 EPPR1   0
        73 000465   000000 701000 xent               TSX1    OUT_STR
        73 000466   000000 011000                    NOP     0

     1047     1067    3           CALL OUT_DEC(BINBIT(LCP_INDX(I), 36));

   1067 73 000467   000003 235000 0                  LDA     I
        73 000470   000001 735000                    ALS     1
        73 000471   000000 100405                    MLR     fill='000'O
        73 000472   000000 000002 49                 ADSC9   LCP_INDX,A               cn=0,n=2
        73 000473   000006 000004 0                  ADSC9   TNT+2                    cn=0,n=4
        73 000474   000006 236000 0                  LDQ     TNT+2
        73 000475   000022 732000                    QRS     18
PL6.E3A0      #010=OUTPUT_LCP File=LR_ERRREC.:Z8A6TSI                            SAT 08/09/97 09:32 Page:311
        73 000476   000010 756000 0                  STQ     TNT+4
        73 000477   000010 630400 0                  EPPR0   TNT+4
        73 000500   000012 450400 0                  STP0    TNT+6
        73 000501   000012 630400 0                  EPPR0   TNT+6
        73 000502   000015 631400 74                 EPPR1   13
        73 000503   000000 701000 xent               TSX1    OUT_DEC
        73 000504   000000 011000                    NOP     0

     1048     1068                %OUT_STR(S="');'");

   1069 73 000505   000064 630400 74                 EPPR0   52
        73 000506   000000 631400 74                 EPPR1   0
        73 000507   000000 701000 xent               TSX1    OUT_STR
        73 000510   000000 011000                    NOP     0

     1049     1071                %OUT_STR(S="'  /* '");

   1072 73 000511   000067 630400 74                 EPPR0   55
        73 000512   000000 631400 74                 EPPR1   0
        73 000513   000000 701000 xent               TSX1    OUT_STR
        73 000514   000000 011000                    NOP     0

     1050     1074    3           CALL OUT_SYMBOL(SYM_PTRS(I));

   1074 73 000515   000003 720000 0                  LXL0    I
        73 000516   000000 630410 7                  EPPR0   SYM_PTRS,X0
        73 000517   000006 450400 0                  STP0    TNT+2
        73 000520   000006 630400 0                  EPPR0   TNT+2
        73 000521   000015 631400 74                 EPPR1   13
        73 000522   000000 701000 xent               TSX1    OUT_SYMBOL
        73 000523   000000 011000                    NOP     0

     1051     1075                %OUT_STR(S="' */'");

   1076 73 000524   000033 630400 74                 EPPR0   27
        73 000525   000000 631400 74                 EPPR1   0
        73 000526   000000 701000 xent               TSX1    OUT_STR
PL6.E3A0      #010=OUTPUT_LCP File=LR_ERRREC.:Z8A6TSI                            SAT 08/09/97 09:32 Page:312
        73 000527   000000 011000                    NOP     0

     1052     1078    3           CALL FLUSH;

   1078 73 000530   000004 631400 74                 EPPR1   4
        73 000531   000000 701000 xent               TSX1    FLUSH
        73 000532   000000 011000                    NOP     0

     1053     1079
     1054     1080                %BOUNDS(T=LCP_UBOUND, V="LCP_INDX(I)");

   1082 73 000533   000003 235000 0                  LDA     I
        73 000534   000001 735000                    ALS     1
        73 000535   000000 100405                    MLR     fill='000'O
        73 000536   000000 000002 49                 ADSC9   LCP_INDX,A               cn=0,n=2
        73 000537   000006 000004 0                  ADSC9   TNT+2                    cn=0,n=4
        73 000540   000006 236000 0                  LDQ     TNT+2
        73 000541   000022 732000                    QRS     18
        73 000542   000302 116000 36                 CMPQ    TSTATS+194
        73 000543   000545 604400 73                 TMOZ    s:1082+10
        73 000544   000302 236000 36                 LDQ     TSTATS+194
        73 000545   000302 756000 36                 STQ     TSTATS+194

   1083 73 000546   000000 100405                    MLR     fill='000'O
        73 000547   000000 000002 49                 ADSC9   LCP_INDX,A               cn=0,n=2
        73 000550   000006 000004 0                  ADSC9   TNT+2                    cn=0,n=4
        73 000551   000006 236000 0                  LDQ     TNT+2
        73 000552   000022 732000                    QRS     18
        73 000553   000301 116000 36                 CMPQ    TSTATS+193
        73 000554   000556 605000 73                 TPL     s:1083+8
        73 000555   000301 236000 36                 LDQ     TSTATS+193
        73 000556   000301 756000 36                 STQ     TSTATS+193

     1055     1086
     1056     1087
     1057     1088    3         END;

PL6.E3A0      #010=OUTPUT_LCP File=LR_ERRREC.:Z8A6TSI                            SAT 08/09/97 09:32 Page:313
   1088 73 000557   000003 054000 0                  AOS     I
        73 000560   000003 236000 0                  LDQ     I
        73 000561   000000 116000 12                 CMPQ    NR_TERM
        73 000562   000463 604400 73                 TMOZ    s:1065

     1058     1089
     1059     1090              %OUTLINE(S="'%END_TABLE_LCP_UBOUND;'");

   1092 73 000563   000071 630400 74                 EPPR0   57
        73 000564   000000 631400 74                 EPPR1   0
        73 000565   000000 701000 xent               TSX1    OUT_STR
        73 000566   000000 011000                    NOP     0

   1093 73 000567   000004 631400 74                 EPPR1   4
        73 000570   000000 701000 xent               TSX1    FLUSH
        73 000571   000000 011000                    NOP     0

     1060     1096
     1061     1097              %OUTLINE(S="'%START_TABLE_LCP_ELEM;'");

   1099 73 000572   000073 630400 74                 EPPR0   59
        73 000573   000000 631400 74                 EPPR1   0
        73 000574   000000 701000 xent               TSX1    OUT_STR
        73 000575   000000 011000                    NOP     0

   1100 73 000576   000004 631400 74                 EPPR1   4
        73 000577   000000 701000 xent               TSX1    FLUSH
        73 000600   000000 011000                    NOP     0

     1062     1103
     1063     1104    3         DO I = 1 TO COM_STRSP_LEN/2 -1;

   1104 73 000601   000001 235007                    LDA     1,DL
        73 000602   000003 755000 0                  STA     I
        73 000603   000676 710000 73                 TRA     s:1129+1

     1064     1105
PL6.E3A0      #010=OUTPUT_LCP File=LR_ERRREC.:Z8A6TSI                            SAT 08/09/97 09:32 Page:314
     1065     1106                %OUT_STR(S="'  %LCPE(E='");

   1107 73 000604   000075 630400 74                 EPPR0   61
        73 000605   000000 631400 74                 EPPR1   0
        73 000606   000000 701000 xent               TSX1    OUT_STR
        73 000607   000000 011000                    NOP     0

     1066     1109    3           CALL OUT_DEC(BINBIT(COM_STRING_SPACE_H(I),36));

   1109 73 000610   000003 235000 0                  LDA     I
        73 000611   000001 735000                    ALS     1
        73 000612   000000 100405                    MLR     fill='000'O
        73 000613   000000 000002 54                 ADSC9   COM_STRING_SPACE_H,A     cn=0,n=2
        73 000614   000006 000004 0                  ADSC9   TNT+2                    cn=0,n=4
        73 000615   000006 236000 0                  LDQ     TNT+2
        73 000616   000022 732000                    QRS     18
        73 000617   000010 756000 0                  STQ     TNT+4
        73 000620   000010 630400 0                  EPPR0   TNT+4
        73 000621   000012 450400 0                  STP0    TNT+6
        73 000622   000012 630400 0                  EPPR0   TNT+6
        73 000623   000015 631400 74                 EPPR1   13
        73 000624   000000 701000 xent               TSX1    OUT_DEC
        73 000625   000000 011000                    NOP     0

     1067     1110                %OUT_STR(S="');'");

   1111 73 000626   000064 630400 74                 EPPR0   52
        73 000627   000000 631400 74                 EPPR1   0
        73 000630   000000 701000 xent               TSX1    OUT_STR
        73 000631   000000 011000                    NOP     0

     1068     1113                %OUT_STR(S="'  /* '");

   1114 73 000632   000067 630400 74                 EPPR0   55
        73 000633   000000 631400 74                 EPPR1   0
        73 000634   000000 701000 xent               TSX1    OUT_STR
        73 000635   000000 011000                    NOP     0
PL6.E3A0      #010=OUTPUT_LCP File=LR_ERRREC.:Z8A6TSI                            SAT 08/09/97 09:32 Page:315

     1069     1116    3           CALL OUT_DEC(I);

   1116 73 000636   000077 630400 74                 EPPR0   63
        73 000637   000015 631400 74                 EPPR1   13
        73 000640   000000 701000 xent               TSX1    OUT_DEC
        73 000641   000000 011000                    NOP     0

     1070     1117                %OUT_STR(S="' */'");

   1118 73 000642   000033 630400 74                 EPPR0   27
        73 000643   000000 631400 74                 EPPR1   0
        73 000644   000000 701000 xent               TSX1    OUT_STR
        73 000645   000000 011000                    NOP     0

     1071     1120    3           CALL FLUSH;

   1120 73 000646   000004 631400 74                 EPPR1   4
        73 000647   000000 701000 xent               TSX1    FLUSH
        73 000650   000000 011000                    NOP     0

     1072     1121
     1073     1122                %BOUNDS(T=LCP_ELEM, V="COM_STRING_SPACE_H(I)");

   1124 73 000651   000003 235000 0                  LDA     I
        73 000652   000001 735000                    ALS     1
        73 000653   000000 100405                    MLR     fill='000'O
        73 000654   000000 000002 54                 ADSC9   COM_STRING_SPACE_H,A     cn=0,n=2
        73 000655   000006 000004 0                  ADSC9   TNT+2                    cn=0,n=4
        73 000656   000006 236000 0                  LDQ     TNT+2
        73 000657   000022 732000                    QRS     18
        73 000660   000310 116000 36                 CMPQ    TSTATS+200
        73 000661   000663 604400 73                 TMOZ    s:1124+10
        73 000662   000310 236000 36                 LDQ     TSTATS+200
        73 000663   000310 756000 36                 STQ     TSTATS+200

   1125 73 000664   000000 100405                    MLR     fill='000'O
PL6.E3A0      #010=OUTPUT_LCP File=LR_ERRREC.:Z8A6TSI                            SAT 08/09/97 09:32 Page:316
        73 000665   000000 000002 54                 ADSC9   COM_STRING_SPACE_H,A     cn=0,n=2
        73 000666   000006 000004 0                  ADSC9   TNT+2                    cn=0,n=4
        73 000667   000006 236000 0                  LDQ     TNT+2
        73 000670   000022 732000                    QRS     18
        73 000671   000307 116000 36                 CMPQ    TSTATS+199
        73 000672   000674 605000 73                 TPL     s:1125+8
        73 000673   000307 236000 36                 LDQ     TSTATS+199
        73 000674   000307 756000 36                 STQ     TSTATS+199

     1074     1128
     1075     1129    3         END;

   1129 73 000675   000003 054000 0                  AOS     I
        73 000676   000000 236000 50                 LDQ     COM_STRSP_LEN
        73 000677   000002 506007                    DIV     2,DL
        73 000700   000003 116000 0                  CMPQ    I
        73 000701   000604 605400 73                 TPNZ    s:1107

     1076     1130
     1077     1131              %OUTLINE(S="'%END_TABLE_LCP_ELEM;'");

   1133 73 000702   000100 630400 74                 EPPR0   64
        73 000703   000000 631400 74                 EPPR1   0
        73 000704   000000 701000 xent               TSX1    OUT_STR
        73 000705   000000 011000                    NOP     0

   1134 73 000706   000004 631400 74                 EPPR1   4
        73 000707   000000 701000 xent               TSX1    FLUSH
        73 000710   000000 011000                    NOP     0

     1078     1137
     1079     1138    2       END;

     1080     1139    1   END OUTPUT_LCP;

   1139 73 000711   000000 221200 0                  LDX1  ! 0
        73 000712   000001 702211                    TSX2  ! 1,X1
PL6.E3A0      #010=OUTPUT_LCP File=LR_ERRREC.:Z8A6TSI                            SAT 08/09/97 09:32 Page:317
     1081     1140        %EOD;

PL6.E3A0      #010=OUTPUT_LCP File=LR_ERRREC.:Z8A6TSI                            SAT 08/09/97 09:32 Page:318
--  Include file information  --

   LR_ERR_EXT.:Z8A6TOU  cannot be made into a system file and is referenced.
   LR_CNFG_EXT.:Z8A6TOU  cannot be made into a system file and is referenced.
   LR_IO_EXT.:Z8A6TOU  cannot be made into a system file and is referenced.
   LR_GRAM_EXT.:Z8A6TOU  cannot be made into a system file and is referenced.
      No diagnostics issued in procedure OUTPUT_LCP.
PL6.E3A0      #010=OUTPUT_LCP File=LR_ERRREC.:Z8A6TSI                            SAT 08/09/97 09:32 Page:319

 **** Variables and constants ****

  ****  Section 000  Data  OUTPUT_LCP

  ****  Scalars and arrays  ****
OctLoc.c.b A Datatyp(siz) R M Lvl/name                 OctLoc.c.b A Datatyp(siz) R M Lvl/name

     1-0-0/w PTR         r     1 @T                         2-0-0/b BIT         r     1 FIRST_CALLED
     3-0-0/w SBIN        r     1 I                         *0-0-0/w SBIN        r     1 T
     4-0-0/w SBIN        r     1 TNT

  ****  Section 001 LblCom OUT_DCBN

  ****  Scalars and arrays  ****
OctLoc.c.b A Datatyp(siz) R M Lvl/name                 OctLoc.c.b A Datatyp(siz) R M Lvl/name

     0-0-0/w SBIN        r     1 OUT_DCBN

  ****  Section 007 LblCom SYM_PTRS

  ****  Scalars and arrays  ****
OctLoc.c.b A Datatyp(siz) R M Lvl/name                 OctLoc.c.b A Datatyp(siz) R M Lvl/name

     0-0-0/w PTR         r     1 SYM_PTRS(0:1400)

  ****  Section 008 LblCom RIGHT_PARTS

  ****  Scalars and arrays  ****
OctLoc.c.b A Datatyp(siz) R M Lvl/name                 OctLoc.c.b A Datatyp(siz) R M Lvl/name

     0-0-0/h SBIN(18)          1 RIGHT_PARTS(0:8000)

  ****  Section 009 LblCom PROD

  ****  Scalars and arrays  ****
OctLoc.c.b A Datatyp(siz) R M Lvl/name                 OctLoc.c.b A Datatyp(siz) R M Lvl/name

PL6.E3A0      #010=OUTPUT_LCP File=LR_ERRREC.:Z8A6TSI                            SAT 08/09/97 09:32 Page:320
     0-0-0/h STRC(72)          1 PROD(0:1500)

  ****  Section 010 LblCom NR_PROD

  ****  Scalars and arrays  ****
OctLoc.c.b A Datatyp(siz) R M Lvl/name                 OctLoc.c.b A Datatyp(siz) R M Lvl/name

     0-0-0/w SBIN              1 NR_PROD

  ****  Section 011 LblCom NR_SYMS

  ****  Scalars and arrays  ****
OctLoc.c.b A Datatyp(siz) R M Lvl/name                 OctLoc.c.b A Datatyp(siz) R M Lvl/name

     0-0-0/w SBIN              1 NR_SYMS

  ****  Section 012 LblCom NR_TERM

  ****  Scalars and arrays  ****
OctLoc.c.b A Datatyp(siz) R M Lvl/name                 OctLoc.c.b A Datatyp(siz) R M Lvl/name

     0-0-0/w SBIN        r     1 NR_TERM

  ****  Section 013 LblCom LAST_ACT

  ****  Scalars and arrays  ****
OctLoc.c.b A Datatyp(siz) R M Lvl/name                 OctLoc.c.b A Datatyp(siz) R M Lvl/name

     0-0-0/w SBIN              1 LAST_ACT

  ****  Section 014 LblCom LAST_NULL

  ****  Scalars and arrays  ****
OctLoc.c.b A Datatyp(siz) R M Lvl/name                 OctLoc.c.b A Datatyp(siz) R M Lvl/name

     0-0-0/w SBIN        r     1 LAST_NULL

PL6.E3A0      #010=OUTPUT_LCP File=LR_ERRREC.:Z8A6TSI                            SAT 08/09/97 09:32 Page:321
  ****  Section 015 LblCom NR_ONRIGHT

  ****  Scalars and arrays  ****
OctLoc.c.b A Datatyp(siz) R M Lvl/name                 OctLoc.c.b A Datatyp(siz) R M Lvl/name

     0-0-0/w SBIN              1 NR_ONRIGHT

  ****  Section 016 LblCom NR_NT

  ****  Scalars and arrays  ****
OctLoc.c.b A Datatyp(siz) R M Lvl/name                 OctLoc.c.b A Datatyp(siz) R M Lvl/name

     0-0-0/w SBIN              1 NR_NT

  ****  Section 017 LblCom PROD_LEN_MAX_EVER

  ****  Scalars and arrays  ****
OctLoc.c.b A Datatyp(siz) R M Lvl/name                 OctLoc.c.b A Datatyp(siz) R M Lvl/name

     0-0-0/w SBIN              1 PROD_LEN_MAX_EVER

  ****  Section 018 LblCom LAST_ORDER_SPECIFIED

  ****  Scalars and arrays  ****
OctLoc.c.b A Datatyp(siz) R M Lvl/name                 OctLoc.c.b A Datatyp(siz) R M Lvl/name

     0-0-0/w SBIN              1 LAST_ORDER_SPECIFIED

  ****  Section 019 LblCom SEMANTIC_ORDERING

  ****  Scalars and arrays  ****
OctLoc.c.b A Datatyp(siz) R M Lvl/name                 OctLoc.c.b A Datatyp(siz) R M Lvl/name

     0-0-0/b BIT               1 SEMANTIC_ORDERING

  ****  Section 020 LblCom ERR_SEV

PL6.E3A0      #010=OUTPUT_LCP File=LR_ERRREC.:Z8A6TSI                            SAT 08/09/97 09:32 Page:322
  ****  Scalars and arrays  ****
OctLoc.c.b A Datatyp(siz) R M Lvl/name                 OctLoc.c.b A Datatyp(siz) R M Lvl/name

     0-0-0/w SBIN              1 ERR_SEV

  ****  Section 021 LblCom SET_LENGTHB

  ****  Scalars and arrays  ****
OctLoc.c.b A Datatyp(siz) R M Lvl/name                 OctLoc.c.b A Datatyp(siz) R M Lvl/name

     0-0-0/w SBIN              1 SET_LENGTHB

  ****  Section 022 LblCom SET_LENGTHW

  ****  Scalars and arrays  ****
OctLoc.c.b A Datatyp(siz) R M Lvl/name                 OctLoc.c.b A Datatyp(siz) R M Lvl/name

     0-0-0/w SBIN              1 SET_LENGTHW

  ****  Section 023 LblCom EOF_SYMBOL_PTR

  ****  Scalars and arrays  ****
OctLoc.c.b A Datatyp(siz) R M Lvl/name                 OctLoc.c.b A Datatyp(siz) R M Lvl/name

     0-0-0/w PTR               1 EOF_SYMBOL_PTR

  ****  Section 024 LblCom ERROR_SYMBOL_PTR

  ****  Scalars and arrays  ****
OctLoc.c.b A Datatyp(siz) R M Lvl/name                 OctLoc.c.b A Datatyp(siz) R M Lvl/name

     0-0-0/w PTR               1 ERROR_SYMBOL_PTR

  ****  Section 025 LblCom BOF_SYMBOL_PTR

  ****  Scalars and arrays  ****
OctLoc.c.b A Datatyp(siz) R M Lvl/name                 OctLoc.c.b A Datatyp(siz) R M Lvl/name
PL6.E3A0      #010=OUTPUT_LCP File=LR_ERRREC.:Z8A6TSI                            SAT 08/09/97 09:32 Page:323

     0-0-0/w PTR               1 BOF_SYMBOL_PTR

  ****  Section 026 LblCom OPTIONS

  ****  Scalars and arrays  ****
OctLoc.c.b A Datatyp(siz) R M Lvl/name                 OctLoc.c.b A Datatyp(siz) R M Lvl/name

     0-0-0/b BIT               1 OPTIONS(0:25)

  ****  Section 027 LblCom OPTIONS_TEXT

  ****  Scalars and arrays  ****
OctLoc.c.b A Datatyp(siz) R M Lvl/name                 OctLoc.c.b A Datatyp(siz) R M Lvl/name

     0-0-0/c CHAR(4)           1 OPTIONS_TEXT(0:25)

  ****  Section 028 LblCom INSTR

  ****  Scalars and arrays  ****
OctLoc.c.b A Datatyp(siz) R M Lvl/name                 OctLoc.c.b A Datatyp(siz) R M Lvl/name

     0-0-0/c CHAR              1 INSTR(0:511)               0-0-0/c CHAR(512)         1 INSTRCHR

  ****  Section 029 LblCom INSTR_LISTED

  ****  Scalars and arrays  ****
OctLoc.c.b A Datatyp(siz) R M Lvl/name                 OctLoc.c.b A Datatyp(siz) R M Lvl/name

     0-0-0/b BIT               1 INSTR_LISTED

  ****  Section 030 LblCom INSTR_LEN

  ****  Scalars and arrays  ****
OctLoc.c.b A Datatyp(siz) R M Lvl/name                 OctLoc.c.b A Datatyp(siz) R M Lvl/name

     0-0-0/w SBIN              1 INSTR_LEN
PL6.E3A0      #010=OUTPUT_LCP File=LR_ERRREC.:Z8A6TSI                            SAT 08/09/97 09:32 Page:324

  ****  Section 031 LblCom INSTR_INDX

  ****  Scalars and arrays  ****
OctLoc.c.b A Datatyp(siz) R M Lvl/name                 OctLoc.c.b A Datatyp(siz) R M Lvl/name

     0-0-0/w SBIN              1 INSTR_INDX

  ****  Section 032 LblCom EOF_FLAG

  ****  Scalars and arrays  ****
OctLoc.c.b A Datatyp(siz) R M Lvl/name                 OctLoc.c.b A Datatyp(siz) R M Lvl/name

     0-0-0/b BIT               1 EOF_FLAG

  ****  Section 033 LblCom KEY_REC

  ****  Scalars and arrays  ****
OctLoc.c.b A Datatyp(siz) R M Lvl/name                 OctLoc.c.b A Datatyp(siz) R M Lvl/name

     0-0-0/c CHAR(10)          1 KEY_REC

  ****  Section 034 LblCom LINE

  ****  Scalars and arrays  ****
OctLoc.c.b A Datatyp(siz) R M Lvl/name                 OctLoc.c.b A Datatyp(siz) R M Lvl/name

     0-0-0/c CHAR(109)         1 LINE

  ****  Section 035 LblCom LINELEN

  ****  Scalars and arrays  ****
OctLoc.c.b A Datatyp(siz) R M Lvl/name                 OctLoc.c.b A Datatyp(siz) R M Lvl/name

     0-0-0/w SBIN              1 LINELEN

  ****  Section 036 LblCom TSTATS
PL6.E3A0      #010=OUTPUT_LCP File=LR_ERRREC.:Z8A6TSI                            SAT 08/09/97 09:32 Page:325

  ****  Scalars and arrays  ****
OctLoc.c.b A Datatyp(siz) R M Lvl/name                 OctLoc.c.b A Datatyp(siz) R M Lvl/name

     0-0-0/w STRC(7380)  r     1 TSTATS

  ****  Section 037 LblCom C#_TO_$

  ****  Scalars and arrays  ****
OctLoc.c.b A Datatyp(siz) R M Lvl/name                 OctLoc.c.b A Datatyp(siz) R M Lvl/name

     0-0-0/w PTR               1 C#_TO_$(0:2200)

  ****  Section 038 LblCom NR_CONFIG

  ****  Scalars and arrays  ****
OctLoc.c.b A Datatyp(siz) R M Lvl/name                 OctLoc.c.b A Datatyp(siz) R M Lvl/name

     0-0-0/w SBIN              1 NR_CONFIG

  ****  Section 039 LblCom INIT_CONFIG

  ****  Scalars and arrays  ****
OctLoc.c.b A Datatyp(siz) R M Lvl/name                 OctLoc.c.b A Datatyp(siz) R M Lvl/name

     0-0-0/w SBIN              1 INIT_CONFIG

  ****  Section 040 LblCom MAX_BASIS_ITEMS

  ****  Scalars and arrays  ****
OctLoc.c.b A Datatyp(siz) R M Lvl/name                 OctLoc.c.b A Datatyp(siz) R M Lvl/name

     0-0-0/w SBIN              1 MAX_BASIS_ITEMS

  ****  Section 041 LblCom MAX_TOTAL_ITEMS

  ****  Scalars and arrays  ****
PL6.E3A0      #010=OUTPUT_LCP File=LR_ERRREC.:Z8A6TSI                            SAT 08/09/97 09:32 Page:326
OctLoc.c.b A Datatyp(siz) R M Lvl/name                 OctLoc.c.b A Datatyp(siz) R M Lvl/name

     0-0-0/w SBIN              1 MAX_TOTAL_ITEMS

  ****  Section 042 LblCom LAST_BINSRCH_ONLY

  ****  Scalars and arrays  ****
OctLoc.c.b A Datatyp(siz) R M Lvl/name                 OctLoc.c.b A Datatyp(siz) R M Lvl/name

     0-0-0/w SBIN              1 LAST_BINSRCH_ONLY

  ****  Section 043 LblCom LAST_BOTH_BITBIN

  ****  Scalars and arrays  ****
OctLoc.c.b A Datatyp(siz) R M Lvl/name                 OctLoc.c.b A Datatyp(siz) R M Lvl/name

     0-0-0/w SBIN              1 LAST_BOTH_BITBIN

  ****  Section 044 LblCom GARBAGE

  ****  Scalars and arrays  ****
OctLoc.c.b A Datatyp(siz) R M Lvl/name                 OctLoc.c.b A Datatyp(siz) R M Lvl/name

     0-0-0/w PTR               1 GARBAGE(0:100)

  ****  Section 045 LblCom AMT_GARBAGE

  ****  Scalars and arrays  ****
OctLoc.c.b A Datatyp(siz) R M Lvl/name                 OctLoc.c.b A Datatyp(siz) R M Lvl/name

     0-0-0/w SBIN              1 AMT_GARBAGE

  ****  Section 046 LblCom LEAST_COST_STRING

  ****  Scalars and arrays  ****
OctLoc.c.b A Datatyp(siz) R M Lvl/name                 OctLoc.c.b A Datatyp(siz) R M Lvl/name

PL6.E3A0      #010=OUTPUT_LCP File=LR_ERRREC.:Z8A6TSI                            SAT 08/09/97 09:32 Page:327
     0-0-0/w PTR               1 LEAST_COST_STRING(0:1400)

  ****  Section 047 LblCom LEAST_COST_PREFIX

  ****  Scalars and arrays  ****
OctLoc.c.b A Datatyp(siz) R M Lvl/name                 OctLoc.c.b A Datatyp(siz) R M Lvl/name

     0-0-0/w PTR         r     1 LEAST_COST_PREFIX(0:1400)

  ****  Section 048 LblCom CURRE

  ****  Scalars and arrays  ****
OctLoc.c.b A Datatyp(siz) R M Lvl/name                 OctLoc.c.b A Datatyp(siz) R M Lvl/name

     0-0-0/d STRC(126)   r     1 CURRE(0:1400)

  ****  Section 049 LblCom LCP_INDX

  ****  Scalars and arrays  ****
OctLoc.c.b A Datatyp(siz) R M Lvl/name                 OctLoc.c.b A Datatyp(siz) R M Lvl/name

     0-0-0/h SBIN(18)    r     1 LCP_INDX(0:1400)

  ****  Section 050 LblCom COM_STRSP_LEN

  ****  Scalars and arrays  ****
OctLoc.c.b A Datatyp(siz) R M Lvl/name                 OctLoc.c.b A Datatyp(siz) R M Lvl/name

     0-0-0/w SBIN        r     1 COM_STRSP_LEN

  ****  Section 051 LblCom COM_SEARCH_STRING

  ****  Scalars and arrays  ****
OctLoc.c.b A Datatyp(siz) R M Lvl/name                 OctLoc.c.b A Datatyp(siz) R M Lvl/name

     0-0-0/w PTR         r     1 COM_SEARCH_STRING

PL6.E3A0      #010=OUTPUT_LCP File=LR_ERRREC.:Z8A6TSI                            SAT 08/09/97 09:32 Page:328
  ****  Section 052 LblCom COM_SEARCH_STRING_LEN

  ****  Scalars and arrays  ****
OctLoc.c.b A Datatyp(siz) R M Lvl/name                 OctLoc.c.b A Datatyp(siz) R M Lvl/name

     0-0-0/w SBIN        r     1 COM_SEARCH_STRING_LEN

  ****  Section 053 LblCom COM_STRING_SPACE_LEN

  ****  Scalars and arrays  ****
OctLoc.c.b A Datatyp(siz) R M Lvl/name                 OctLoc.c.b A Datatyp(siz) R M Lvl/name

     0-0-0/w SBIN        r     1 COM_STRING_SPACE_LEN

  ****  Section 054 LblCom COM_STRING_SPACE_H

  ****  Scalars and arrays  ****
OctLoc.c.b A Datatyp(siz) R M Lvl/name                 OctLoc.c.b A Datatyp(siz) R M Lvl/name

     0-0-0/h SBIN(18)    r     1 COM_STRING_SPACE_H(0:24999)

  ****  Section 055 LblCom COM_STRING_SPACE$

  ****  Scalars and arrays  ****
OctLoc.c.b A Datatyp(siz) R M Lvl/name                 OctLoc.c.b A Datatyp(siz) R M Lvl/name

     0-0-0/w PTR         r     1 COM_STRING_SPACE$

  ****  Section 056 LblCom COM_STRING_PTR

  ****  Scalars and arrays  ****
OctLoc.c.b A Datatyp(siz) R M Lvl/name                 OctLoc.c.b A Datatyp(siz) R M Lvl/name

     0-0-0/w PTR         r     1 COM_STRING_PTR

  ****  Section 057 LblCom COM_STRING_INDX

PL6.E3A0      #010=OUTPUT_LCP File=LR_ERRREC.:Z8A6TSI                            SAT 08/09/97 09:32 Page:329
  ****  Scalars and arrays  ****
OctLoc.c.b A Datatyp(siz) R M Lvl/name                 OctLoc.c.b A Datatyp(siz) R M Lvl/name

     0-0-0/w SBIN        r     1 COM_STRING_INDX

  ****  Section 058 LblCom LCP_TABLE_LEN

  ****  Scalars and arrays  ****
OctLoc.c.b A Datatyp(siz) R M Lvl/name                 OctLoc.c.b A Datatyp(siz) R M Lvl/name

     0-0-0/w SBIN        r     1 LCP_TABLE_LEN

  ****  Section 059 LblCom STATE_ITEM_INDEX

  ****  Scalars and arrays  ****
OctLoc.c.b A Datatyp(siz) R M Lvl/name                 OctLoc.c.b A Datatyp(siz) R M Lvl/name

     0-0-0/h STRC              1 STATE_ITEM_INDEX(0:2200)

  ****  Section 060 LblCom PATH

  ****  Scalars and arrays  ****
OctLoc.c.b A Datatyp(siz) R M Lvl/name                 OctLoc.c.b A Datatyp(siz) R M Lvl/name

     0-0-0/h STRC        r     1 PATH(0:17600)

  ****  Section 061 LblCom PATH_STRINGS_LEN

  ****  Scalars and arrays  ****
OctLoc.c.b A Datatyp(siz) R M Lvl/name                 OctLoc.c.b A Datatyp(siz) R M Lvl/name

     0-0-0/w SBIN        r     1 PATH_STRINGS_LEN

  ****  Section 062 LblCom PATH_ADDR$

  ****  Scalars and arrays  ****
OctLoc.c.b A Datatyp(siz) R M Lvl/name                 OctLoc.c.b A Datatyp(siz) R M Lvl/name
PL6.E3A0      #010=OUTPUT_LCP File=LR_ERRREC.:Z8A6TSI                            SAT 08/09/97 09:32 Page:330

     0-0-0/w PTR         r     1 PATH_ADDR$

  ****  Section 063 LblCom PATH_TABLE_LEN

  ****  Scalars and arrays  ****
OctLoc.c.b A Datatyp(siz) R M Lvl/name                 OctLoc.c.b A Datatyp(siz) R M Lvl/name

     0-0-0/w SBIN              1 PATH_TABLE_LEN

  ****  Section 064 LblCom EDGECOST

  ****  Scalars and arrays  ****
OctLoc.c.b A Datatyp(siz) R M Lvl/name                 OctLoc.c.b A Datatyp(siz) R M Lvl/name

     0-0-0/w SBIN              1 EDGECOST(0:400)

  ****  Section 065 LblCom ITEM_TABLE_LEN

  ****  Scalars and arrays  ****
OctLoc.c.b A Datatyp(siz) R M Lvl/name                 OctLoc.c.b A Datatyp(siz) R M Lvl/name

     0-0-0/w SBIN              1 ITEM_TABLE_LEN

  ****  Section 066 LblCom ORDERED_ITEM

  ****  Scalars and arrays  ****
OctLoc.c.b A Datatyp(siz) R M Lvl/name                 OctLoc.c.b A Datatyp(siz) R M Lvl/name

     0-0-0/h STRC              1 ORDERED_ITEM(0:400)

  ****  Section 067 LblCom NEIGHBOR

  ****  Scalars and arrays  ****
OctLoc.c.b A Datatyp(siz) R M Lvl/name                 OctLoc.c.b A Datatyp(siz) R M Lvl/name

     0-0-0/w SBIN              1 NEIGHBOR(0:400)
PL6.E3A0      #010=OUTPUT_LCP File=LR_ERRREC.:Z8A6TSI                            SAT 08/09/97 09:32 Page:331

  ****  Section 068 LblCom PATH_INFO

  ****  Scalars and arrays  ****
OctLoc.c.b A Datatyp(siz) R M Lvl/name                 OctLoc.c.b A Datatyp(siz) R M Lvl/name

     0-0-0/w STRC(28872)       1 PATH_INFO

  ****  Section 069 LblCom CHOSEN

  ****  Scalars and arrays  ****
OctLoc.c.b A Datatyp(siz) R M Lvl/name                 OctLoc.c.b A Datatyp(siz) R M Lvl/name

     0-0-0/w BIT               1 CHOSEN(0:400)

  ****  Section 070 LblCom REACHED

  ****  Scalars and arrays  ****
OctLoc.c.b A Datatyp(siz) R M Lvl/name                 OctLoc.c.b A Datatyp(siz) R M Lvl/name

     0-0-0/b BIT               1 REACHED(0:400)

  ****  Section 071 LblCom EXP_PATH_INDX

  ****  Scalars and arrays  ****
OctLoc.c.b A Datatyp(siz) R M Lvl/name                 OctLoc.c.b A Datatyp(siz) R M Lvl/name

     0-0-0/w SBIN              1 EXP_PATH_INDX

  ****  BASED and DCB variables  ****

  ****  Scalars and arrays  ****
OctLoc.c.b A Datatyp(siz) R M Lvl/name                 OctLoc.c.b A Datatyp(siz) R M Lvl/name

     0-0-0/w STRC(72)          1 CELL                       0-0-0/c ACHR        r     1 COM_STRINGS
     0-0-0/c ACHR        r     1 COM_STRING_SPACE           0-0-0/c ACHR        r     1 CSEARCH_STRING
     0-0-0/w STRC(57888)       1 C_SET_B                    0-0-0/w STRC(72)          1 INCLUDES_B
PL6.E3A0      #010=OUTPUT_LCP File=LR_ERRREC.:Z8A6TSI                            SAT 08/09/97 09:32 Page:332
     0-0-0/w STRC(144)         1 INCL_B                     0-0-0/w STRC(5436)        1 ITEM_B
     0-0-0/w STRC(5652)        1 KEY_B                      0-0-0N  NULL        r     1 M$LO
     0-0-0N  NULL        r     1 M$OU                       0-0-0N  NULL        r     1 M$SI
     0-0-0N  NULL        r     1 M$SO                       0-0-0N  NULL        r     1 M$UI
     0-0-0/c ACHR              1 PATH_STRINGS               0-0-0/w STRC(90)    r     1 PREFIX
     0-0-0/w ASTR(72)    r     1 PREFIXCHR                  0-0-0/w STRC              1 STRING
     0-0-0/w ASTR(18)    r     1 STRINGCHR                  0-0-0/w STRC(351)         1 SYMBOL


   Procedure OUTPUT_LCP requires 459 words for executable code.
   Procedure OUTPUT_LCP is declared NOAUTO and requires 12 words of local(STATIC) storage.

