VERSION A06

PL6.E3A0      #001=GRAM File=LR_GRAM.:Z8A6TSI                                    SAT 08/09/97 09:28 Page:1
        1        1        /*M* GRAM => PARSER GENERATOR MAIN PROGRAM */
        2        2        /*T***********************************************************/
        3        3        /*T*                                                         */
        4        4        /*T* Copyright (c) Bull HN Information Systems Inc., 1997    */
        5        5        /*T*                                                         */
        6        6        /*T***********************************************************/
        7        7
        8        8
        9        9
       10       10
       11       11
       12       12
       13       13
       14       14
       15       15
       16       16        GRAM:   PROC MAIN;
       17       17
       18       18        %INCLUDE LR_GRAM_EXT;
       19      557        %INCLUDE LR_CNFG_EXT;
       20      710
       21      711    1   DCL DIAG ENTRY(6);
       22      712    1   DCL RGRAM  ENTRY;
       23      713    1   DCL CNFG   ENTRY;
       24      714    1   DCL OGRAM  ENTRY;
       25      715    1   DCL LASET  ENTRY;
       26      716    1   DCL CPRNT  ENTRY(3);
       27      717    1   DCL TABLES ENTRY;
       28      718    1   DCL OPEN_TABLES ENTRY;
       29      719    1   DCL CLOSE_TABLES ENTRY;
       30      720    1   DCL CALC_ERROR_CORRECTION_INFO ENTRY;
       31      721    1   DCL LIST_GRAMMAR ENTRY;
       32      722    1   DCL OUTPUT_XREF ENTRY;
       33      723    1   DCL OUTPUT_STATS ENTRY;
       34      724
       35      725    1           CALL RGRAM;      /* READ IN GRAMMAR & OPTIONS   */
       36      726    1           CALL OGRAM; /* SORT SYMBOLS & FIND EVENTUAL GOAL */
       37      727    1           IF ERR_SEV <= 1 THEN
PL6.E3A0      #001=GRAM File=LR_GRAM.:Z8A6TSI                                    SAT 08/09/97 09:28 Page:2
       38      728    1             CALL CNFG;            /* ANALYZE THE GRAMMAR    */
       39      729    1           IF OPTIONS(XREF_OPT) OR OPTIONS(LG_OPT) THEN
       40      730    1             CALL LIST_GRAMMAR;
       41      731    1           IF OPTIONS(XREF_OPT) THEN
       42      732    1             CALL OUTPUT_XREF;
       43      733    1           IF ERR_SEV <= 1 THEN
       44      734    2             DO;
       45      735    2               CALL LASET;      /* CALCULATE LOOKAHEAD SETS    */
       46      736    2               IF OPTIONS(CS_OPT) THEN
       47      737    2                  CALL CPRNT;             /* DISPLAY RESULTS   */
       48      738    2             END;
       49      739    1           IF ERR_SEV > 1 THEN
       50      740    2             DO;
       51      741    2               CALL DIAG(0,' %%');
       52      742    2               CALL DIAG(15,
               742                        'PROCESSING TERMINATED DUE TO ERRORS - NO TABLES GENERATED.%%');
       53      743    2             END;
       54      744    1           IF OPTIONS(OU_OPT) THEN
       55      745    2             DO;
       56      746    2               CALL OPEN_TABLES;
       57      747    2               CALL TABLES;/* generate files on M$OU and M$SO if requested */
       58      748    2               IF OPTIONS(ERROR_TABLE_OPT) THEN
       59      749    2                 CALL CALC_ERROR_CORRECTION_INFO;
       60      750    2               CALL CLOSE_TABLES;
       61      751    2             END;
       62      752    1           IF OPTIONS(ST_OPT) THEN
       63      753    1             CALL OUTPUT_STATS;
       64      754    1   END GRAM;

PL6.E3A0      #001=GRAM File=LR_GRAM.:Z8A6TSI                                    SAT 08/09/97 09:28 Page:3
--  Include file information  --

   LR_CNFG_EXT.:Z8A6TOU  cannot be made into a system file and is referenced.
   LR_IO_EXT.:Z8A6TOU  cannot be made into a system file and is referenced.
   LR_GRAM_EXT.:Z8A6TOU  cannot be made into a system file and is referenced.
      No diagnostics issued in procedure GRAM.

   Procedure GRAM requires 76 words for executable code.
   Procedure GRAM requires 4 words of local(AUTO) storage.

    No errors detected in file LR_GRAM.:Z8A6TSI    .

PL6.E3A0      #001=GRAM File=LR_GRAM.:Z8A6TSI                                    SAT 08/09/97 09:28 Page:4

 Object Unit name= GRAM                                       File name= LR_GRAM.:Z8A6TOU
 UTS= AUG 09 '97 09:28:56.88 SAT                              Compiler= PL-6/E31         Sev=      00
 SharedLib= :SHARED_SYSTEM                                    Alt SharedLib=


    ****  Control sections  ****

 Sect   Type Bound  Init  Size OctSiz  Section name(segment info)
    0  LblCom even  none     1      1  OUT_DCBN
    1   DCB   even  none     0      0  M$OU
    2   DCB   even  none     0      0  M$SO
    3   DCB   even  none     0      0  M$LO
    4   DCB   even  none     0      0  M$SI
    5   DCB   even  none     0      0  M$UI
    6  LblCom even  none  1401   2571  SYM_PTRS
    7  LblCom even  none  4001   7641  RIGHT_PARTS
    8  LblCom even  none  3002   5672  PROD
    9  LblCom even  none     1      1  NR_PROD
   10  LblCom even  none     1      1  NR_SYMS
   11  LblCom even  none     1      1  NR_TERM
   12  LblCom even  none     1      1  LAST_ACT
   13  LblCom even  none     1      1  LAST_NULL
   14  LblCom even  none     1      1  NR_ONRIGHT
   15  LblCom even  none     1      1  NR_NT
   16  LblCom even  none     1      1  PROD_LEN_MAX_EVER
   17  LblCom even  none     1      1  LAST_ORDER_SPECIFIED
   18  LblCom even  none     1      1  SEMANTIC_ORDERING
   19  LblCom even  none     1      1  ERR_SEV
   20  LblCom even  none     1      1  SET_LENGTHB
   21  LblCom even  none     1      1  SET_LENGTHW
   22  LblCom even  none     1      1  EOF_SYMBOL_PTR
   23  LblCom even  none     1      1  ERROR_SYMBOL_PTR
   24  LblCom even  none     1      1  BOF_SYMBOL_PTR
   25  LblCom even  none     1      1  OPTIONS
   26  LblCom even  none    26     32  OPTIONS_TEXT
   27  LblCom even  none   128    200  INSTR
   28  LblCom even  none     1      1  INSTR_LISTED
PL6.E3A0      #001=GRAM File=LR_GRAM.:Z8A6TSI                                    SAT 08/09/97 09:28 Page:5
   29  LblCom even  none     1      1  INSTR_LEN
   30  LblCom even  none     1      1  INSTR_INDX
   31  LblCom even  none     1      1  EOF_FLAG
   32  LblCom even  none     3      3  KEY_REC
   33  LblCom even  none    28     34  LINE
   34  LblCom even  none     1      1  LINELEN
   35  LblCom even  none   205    315  TSTATS
   36  LblCom even  none  2201   4231  C#_TO_$
   37  LblCom even  none     1      1  NR_CONFIG
   38  LblCom even  none     1      1  INIT_CONFIG
   39  LblCom even  none     1      1  MAX_BASIS_ITEMS
   40  LblCom even  none     1      1  MAX_TOTAL_ITEMS
   41  LblCom even  none     1      1  LAST_BINSRCH_ONLY
   42  LblCom even  none     1      1  LAST_BOTH_BITBIN
   43  RoData even  UTS     16     20  GRAM
   44   Proc  even  none    76    114  GRAM
   45  RoData even  none     7      7  GRAM

    ****  Entry defs  ****

                              Check   Calling
                             calling  sequence
  Sect OctLoc Primary Altret sequence   type   Parms  Name
    44      0   yes            yes      Main       0  GRAM
PL6.E3A0      #001=GRAM File=LR_GRAM.:Z8A6TSI                                    SAT 08/09/97 09:28 Page:6

  ****  Entry refs  ****

         Check        Calling
        calling       sequence
Altret sequence SRef   type   Args  Name
         yes           Std       0 RGRAM
         yes           Std       0 OGRAM
         yes           Std       0 CNFG
         yes           Std       0 OUTPUT_XREF
         yes           Std       0 CALC_ERROR_CORRECTION_INFO
         yes           Std       6 DIAG
         yes           Std       0 OPEN_TABLES
         yes           Std       0 TABLES
         yes           Std       0 OUTPUT_STATS
         yes           Std       0 LIST_GRAMMAR
         yes           Std       0 LASET
         yes           Std       3 CPRNT
         yes           Std       0 CLOSE_TABLES
                       nStd      0 X66_MAUTO
                       nStd      0 X66_MARET

  ****  Data refs  ****

  Flags:  r = read only, s = secondary
Flgs Name                             Flgs Name                             Flgs Name
     M$OU                                  M$SO                                  M$LO
     M$SI                                  M$UI

  ****  Segment refs  ****

  Flags:  r = read only, s = secondary
Flgs Name                             Flgs Name                             Flgs Name
     NULLSID                               ISSID
PL6.E3A0      #001=GRAM File=LR_GRAM.:Z8A6TSI                                    SAT 08/09/97 09:28 Page:7


        1        1        /*M* GRAM => PARSER GENERATOR MAIN PROGRAM */
        2        2        /*T***********************************************************/
        3        3        /*T*                                                         */
        4        4        /*T* Copyright (c) Bull HN Information Systems Inc., 1997    */
        5        5        /*T*                                                         */
        6        6        /*T***********************************************************/
        7        7
        8        8
        9        9
       10       10
       11       11
       12       12
       13       13
       14       14
       15       15
       16       16        GRAM:   PROC MAIN;

     16 44 000000   000000 700200 xent  GRAM         TSX0  ! X66_MAUTO
        44 000001   000004 000000                    ZERO    4,0

       17       17
       18       18        %INCLUDE LR_GRAM_EXT;
       19      557        %INCLUDE LR_CNFG_EXT;
       20      710
       21      711    1   DCL DIAG ENTRY(6);
       22      712    1   DCL RGRAM  ENTRY;
       23      713    1   DCL CNFG   ENTRY;
       24      714    1   DCL OGRAM  ENTRY;
       25      715    1   DCL LASET  ENTRY;
       26      716    1   DCL CPRNT  ENTRY(3);
       27      717    1   DCL TABLES ENTRY;
       28      718    1   DCL OPEN_TABLES ENTRY;
       29      719    1   DCL CLOSE_TABLES ENTRY;
       30      720    1   DCL CALC_ERROR_CORRECTION_INFO ENTRY;
       31      721    1   DCL LIST_GRAMMAR ENTRY;
       32      722    1   DCL OUTPUT_XREF ENTRY;
PL6.E3A0      #001=GRAM File=LR_GRAM.:Z8A6TSI                                    SAT 08/09/97 09:28 Page:8
       33      723    1   DCL OUTPUT_STATS ENTRY;
       34      724
       35      725    1           CALL RGRAM;      /* READ IN GRAMMAR & OPTIONS   */

    725 44 000002   000000 631400 45                 EPPR1   0
        44 000003   000000 701000 xent               TSX1    RGRAM
        44 000004   000000 011000                    NOP     0

       36      726    1           CALL OGRAM; /* SORT SYMBOLS & FIND EVENTUAL GOAL */

    726 44 000005   000000 631400 45                 EPPR1   0
        44 000006   000000 701000 xent               TSX1    OGRAM
        44 000007   000000 011000                    NOP     0

       37      727    1           IF ERR_SEV <= 1 THEN

    727 44 000010   000000 235000 19                 LDA     ERR_SEV
        44 000011   000001 115007                    CMPA    1,DL
        44 000012   000016 605400 44                 TPNZ    s:729

       38      728    1             CALL CNFG;            /* ANALYZE THE GRAMMAR    */

    728 44 000013   000000 631400 45                 EPPR1   0
        44 000014   000000 701000 xent               TSX1    CNFG
        44 000015   000000 011000                    NOP     0

       39      729    1           IF OPTIONS(XREF_OPT) OR OPTIONS(LG_OPT) THEN

    729 44 000016   000000 236000 25                 LDQ     OPTIONS
        44 000017   000200 316003                    CANQ    128,DU
        44 000020   000023 601000 44                 TNZ     s:730
        44 000021   200000 316003                    CANQ    65536,DU
        44 000022   000026 600000 44                 TZE     s:731

       40      730    1             CALL LIST_GRAMMAR;

    730 44 000023   000000 631400 45                 EPPR1   0
PL6.E3A0      #001=GRAM File=LR_GRAM.:Z8A6TSI                                    SAT 08/09/97 09:28 Page:9
        44 000024   000000 701000 xent               TSX1    LIST_GRAMMAR
        44 000025   000000 011000                    NOP     0

       41      731    1           IF OPTIONS(XREF_OPT) THEN

    731 44 000026   000000 236000 25                 LDQ     OPTIONS
        44 000027   000200 316003                    CANQ    128,DU
        44 000030   000034 600000 44                 TZE     s:733

       42      732    1             CALL OUTPUT_XREF;

    732 44 000031   000000 631400 45                 EPPR1   0
        44 000032   000000 701000 xent               TSX1    OUTPUT_XREF
        44 000033   000000 011000                    NOP     0

       43      733    1           IF ERR_SEV <= 1 THEN

    733 44 000034   000000 235000 19                 LDA     ERR_SEV
        44 000035   000001 115007                    CMPA    1,DL
        44 000036   000050 605400 44                 TPNZ    s:739

       44      734    2             DO;

       45      735    2               CALL LASET;      /* CALCULATE LOOKAHEAD SETS    */

    735 44 000037   000000 631400 45                 EPPR1   0
        44 000040   000000 701000 xent               TSX1    LASET
        44 000041   000000 011000                    NOP     0

       46      736    2               IF OPTIONS(CS_OPT) THEN

    736 44 000042   000000 236000 25                 LDQ     OPTIONS
        44 000043   040000 316003                    CANQ    16384,DU
        44 000044   000050 600000 44                 TZE     s:739

       47      737    2                  CALL CPRNT;             /* DISPLAY RESULTS   */

PL6.E3A0      #001=GRAM File=LR_GRAM.:Z8A6TSI                                    SAT 08/09/97 09:28 Page:10
    737 44 000045   000000 631400 45                 EPPR1   0
        44 000046   000000 701000 xent               TSX1    CPRNT
        44 000047   000000 011000                    NOP     0

       48      738    2             END;

       49      739    1           IF ERR_SEV > 1 THEN

    739 44 000050   000000 235000 19                 LDA     ERR_SEV
        44 000051   000001 115007                    CMPA    1,DL
        44 000052   000063 604400 44                 TMOZ    s:744

       50      740    2             DO;

       51      741    2               CALL DIAG(0,' %%');

    741 44 000053   000002 630400 45                 EPPR0   2
        44 000054   000001 631400 45                 EPPR1   1
        44 000055   000000 701000 xent               TSX1    DIAG
        44 000056   000000 011000                    NOP     0

       52      742    2               CALL DIAG(15,
               742                        'PROCESSING TERMINATED DUE TO ERRORS - NO TABLES GENERATED.%%');

    742 44 000057   000005 630400 45                 EPPR0   5
        44 000060   000001 631400 45                 EPPR1   1
        44 000061   000000 701000 xent               TSX1    DIAG
        44 000062   000000 011000                    NOP     0

       53      743    2             END;

       54      744    1           IF OPTIONS(OU_OPT) THEN

    744 44 000063   000000 236000 25                 LDQ     OPTIONS
        44 000064   100000 316003                    CANQ    32768,DU
        44 000065   000105 600000 44                 TZE     s:752

PL6.E3A0      #001=GRAM File=LR_GRAM.:Z8A6TSI                                    SAT 08/09/97 09:28 Page:11
       55      745    2             DO;

       56      746    2               CALL OPEN_TABLES;

    746 44 000066   000000 631400 45                 EPPR1   0
        44 000067   000000 701000 xent               TSX1    OPEN_TABLES
        44 000070   000000 011000                    NOP     0

       57      747    2               CALL TABLES;/* generate files on M$OU and M$SO if requested */

    747 44 000071   000000 631400 45                 EPPR1   0
        44 000072   000000 701000 xent               TSX1    TABLES
        44 000073   000000 011000                    NOP     0

       58      748    2               IF OPTIONS(ERROR_TABLE_OPT) THEN

    748 44 000074   000000 236000 25                 LDQ     OPTIONS
        44 000075   000100 316003                    CANQ    64,DU
        44 000076   000102 600000 44                 TZE     s:750

       59      749    2                 CALL CALC_ERROR_CORRECTION_INFO;

    749 44 000077   000000 631400 45                 EPPR1   0
        44 000100   000000 701000 xent               TSX1    CALC_ERROR_CORRECTION_INFO
        44 000101   000000 011000                    NOP     0

       60      750    2               CALL CLOSE_TABLES;

    750 44 000102   000000 631400 45                 EPPR1   0
        44 000103   000000 701000 xent               TSX1    CLOSE_TABLES
        44 000104   000000 011000                    NOP     0

       61      751    2             END;

       62      752    1           IF OPTIONS(ST_OPT) THEN

    752 44 000105   000000 236000 25                 LDQ     OPTIONS
PL6.E3A0      #001=GRAM File=LR_GRAM.:Z8A6TSI                                    SAT 08/09/97 09:28 Page:12
        44 000106   002000 316003                    CANQ    1024,DU
        44 000107   000113 600000 44                 TZE     s:754

       63      753    1             CALL OUTPUT_STATS;

    753 44 000110   000000 631400 45                 EPPR1   0
        44 000111   000000 701000 xent               TSX1    OUTPUT_STATS
        44 000112   000000 011000                    NOP     0

       64      754    1   END GRAM;

    754 44 000113   000000 702200 xent               TSX2  ! X66_MARET

PL6.E3A0      #001=GRAM File=LR_GRAM.:Z8A6TSI                                    SAT 08/09/97 09:28 Page:13
--  Include file information  --

   LR_CNFG_EXT.:Z8A6TOU  cannot be made into a system file and is referenced.
   LR_IO_EXT.:Z8A6TOU  cannot be made into a system file and is referenced.
   LR_GRAM_EXT.:Z8A6TOU  cannot be made into a system file and is referenced.
      No diagnostics issued in procedure GRAM.
PL6.E3A0      #001=GRAM File=LR_GRAM.:Z8A6TSI                                    SAT 08/09/97 09:28 Page:14

 **** Variables and constants ****

  ****  Section 000 LblCom OUT_DCBN

  ****  Scalars and arrays  ****
OctLoc.c.b A Datatyp(siz) R M Lvl/name                 OctLoc.c.b A Datatyp(siz) R M Lvl/name

     0-0-0/w SBIN              1 OUT_DCBN

  ****  Section 006 LblCom SYM_PTRS

  ****  Scalars and arrays  ****
OctLoc.c.b A Datatyp(siz) R M Lvl/name                 OctLoc.c.b A Datatyp(siz) R M Lvl/name

     0-0-0/w PTR               1 SYM_PTRS(0:1400)

  ****  Section 007 LblCom RIGHT_PARTS

  ****  Scalars and arrays  ****
OctLoc.c.b A Datatyp(siz) R M Lvl/name                 OctLoc.c.b A Datatyp(siz) R M Lvl/name

     0-0-0/h SBIN(18)          1 RIGHT_PARTS(0:8000)

  ****  Section 008 LblCom PROD

  ****  Scalars and arrays  ****
OctLoc.c.b A Datatyp(siz) R M Lvl/name                 OctLoc.c.b A Datatyp(siz) R M Lvl/name

     0-0-0/h STRC(72)          1 PROD(0:1500)

  ****  Section 009 LblCom NR_PROD

  ****  Scalars and arrays  ****
OctLoc.c.b A Datatyp(siz) R M Lvl/name                 OctLoc.c.b A Datatyp(siz) R M Lvl/name

     0-0-0/w SBIN              1 NR_PROD

PL6.E3A0      #001=GRAM File=LR_GRAM.:Z8A6TSI                                    SAT 08/09/97 09:28 Page:15
  ****  Section 010 LblCom NR_SYMS

  ****  Scalars and arrays  ****
OctLoc.c.b A Datatyp(siz) R M Lvl/name                 OctLoc.c.b A Datatyp(siz) R M Lvl/name

     0-0-0/w SBIN              1 NR_SYMS

  ****  Section 011 LblCom NR_TERM

  ****  Scalars and arrays  ****
OctLoc.c.b A Datatyp(siz) R M Lvl/name                 OctLoc.c.b A Datatyp(siz) R M Lvl/name

     0-0-0/w SBIN              1 NR_TERM

  ****  Section 012 LblCom LAST_ACT

  ****  Scalars and arrays  ****
OctLoc.c.b A Datatyp(siz) R M Lvl/name                 OctLoc.c.b A Datatyp(siz) R M Lvl/name

     0-0-0/w SBIN              1 LAST_ACT

  ****  Section 013 LblCom LAST_NULL

  ****  Scalars and arrays  ****
OctLoc.c.b A Datatyp(siz) R M Lvl/name                 OctLoc.c.b A Datatyp(siz) R M Lvl/name

     0-0-0/w SBIN              1 LAST_NULL

  ****  Section 014 LblCom NR_ONRIGHT

  ****  Scalars and arrays  ****
OctLoc.c.b A Datatyp(siz) R M Lvl/name                 OctLoc.c.b A Datatyp(siz) R M Lvl/name

     0-0-0/w SBIN              1 NR_ONRIGHT

  ****  Section 015 LblCom NR_NT

PL6.E3A0      #001=GRAM File=LR_GRAM.:Z8A6TSI                                    SAT 08/09/97 09:28 Page:16
  ****  Scalars and arrays  ****
OctLoc.c.b A Datatyp(siz) R M Lvl/name                 OctLoc.c.b A Datatyp(siz) R M Lvl/name

     0-0-0/w SBIN              1 NR_NT

  ****  Section 016 LblCom PROD_LEN_MAX_EVER

  ****  Scalars and arrays  ****
OctLoc.c.b A Datatyp(siz) R M Lvl/name                 OctLoc.c.b A Datatyp(siz) R M Lvl/name

     0-0-0/w SBIN              1 PROD_LEN_MAX_EVER

  ****  Section 017 LblCom LAST_ORDER_SPECIFIED

  ****  Scalars and arrays  ****
OctLoc.c.b A Datatyp(siz) R M Lvl/name                 OctLoc.c.b A Datatyp(siz) R M Lvl/name

     0-0-0/w SBIN              1 LAST_ORDER_SPECIFIED

  ****  Section 018 LblCom SEMANTIC_ORDERING

  ****  Scalars and arrays  ****
OctLoc.c.b A Datatyp(siz) R M Lvl/name                 OctLoc.c.b A Datatyp(siz) R M Lvl/name

     0-0-0/b BIT               1 SEMANTIC_ORDERING

  ****  Section 019 LblCom ERR_SEV

  ****  Scalars and arrays  ****
OctLoc.c.b A Datatyp(siz) R M Lvl/name                 OctLoc.c.b A Datatyp(siz) R M Lvl/name

     0-0-0/w SBIN        r     1 ERR_SEV

  ****  Section 020 LblCom SET_LENGTHB

  ****  Scalars and arrays  ****
OctLoc.c.b A Datatyp(siz) R M Lvl/name                 OctLoc.c.b A Datatyp(siz) R M Lvl/name
PL6.E3A0      #001=GRAM File=LR_GRAM.:Z8A6TSI                                    SAT 08/09/97 09:28 Page:17

     0-0-0/w SBIN              1 SET_LENGTHB

  ****  Section 021 LblCom SET_LENGTHW

  ****  Scalars and arrays  ****
OctLoc.c.b A Datatyp(siz) R M Lvl/name                 OctLoc.c.b A Datatyp(siz) R M Lvl/name

     0-0-0/w SBIN              1 SET_LENGTHW

  ****  Section 022 LblCom EOF_SYMBOL_PTR

  ****  Scalars and arrays  ****
OctLoc.c.b A Datatyp(siz) R M Lvl/name                 OctLoc.c.b A Datatyp(siz) R M Lvl/name

     0-0-0/w PTR               1 EOF_SYMBOL_PTR

  ****  Section 023 LblCom ERROR_SYMBOL_PTR

  ****  Scalars and arrays  ****
OctLoc.c.b A Datatyp(siz) R M Lvl/name                 OctLoc.c.b A Datatyp(siz) R M Lvl/name

     0-0-0/w PTR               1 ERROR_SYMBOL_PTR

  ****  Section 024 LblCom BOF_SYMBOL_PTR

  ****  Scalars and arrays  ****
OctLoc.c.b A Datatyp(siz) R M Lvl/name                 OctLoc.c.b A Datatyp(siz) R M Lvl/name

     0-0-0/w PTR               1 BOF_SYMBOL_PTR

  ****  Section 025 LblCom OPTIONS

  ****  Scalars and arrays  ****
OctLoc.c.b A Datatyp(siz) R M Lvl/name                 OctLoc.c.b A Datatyp(siz) R M Lvl/name

     0-0-0/b BIT         r     1 OPTIONS(0:25)
PL6.E3A0      #001=GRAM File=LR_GRAM.:Z8A6TSI                                    SAT 08/09/97 09:28 Page:18

  ****  Section 026 LblCom OPTIONS_TEXT

  ****  Scalars and arrays  ****
OctLoc.c.b A Datatyp(siz) R M Lvl/name                 OctLoc.c.b A Datatyp(siz) R M Lvl/name

     0-0-0/c CHAR(4)           1 OPTIONS_TEXT(0:25)

  ****  Section 027 LblCom INSTR

  ****  Scalars and arrays  ****
OctLoc.c.b A Datatyp(siz) R M Lvl/name                 OctLoc.c.b A Datatyp(siz) R M Lvl/name

     0-0-0/c CHAR              1 INSTR(0:511)               0-0-0/c CHAR(512)         1 INSTRCHR

  ****  Section 028 LblCom INSTR_LISTED

  ****  Scalars and arrays  ****
OctLoc.c.b A Datatyp(siz) R M Lvl/name                 OctLoc.c.b A Datatyp(siz) R M Lvl/name

     0-0-0/b BIT               1 INSTR_LISTED

  ****  Section 029 LblCom INSTR_LEN

  ****  Scalars and arrays  ****
OctLoc.c.b A Datatyp(siz) R M Lvl/name                 OctLoc.c.b A Datatyp(siz) R M Lvl/name

     0-0-0/w SBIN              1 INSTR_LEN

  ****  Section 030 LblCom INSTR_INDX

  ****  Scalars and arrays  ****
OctLoc.c.b A Datatyp(siz) R M Lvl/name                 OctLoc.c.b A Datatyp(siz) R M Lvl/name

     0-0-0/w SBIN              1 INSTR_INDX

  ****  Section 031 LblCom EOF_FLAG
PL6.E3A0      #001=GRAM File=LR_GRAM.:Z8A6TSI                                    SAT 08/09/97 09:28 Page:19

  ****  Scalars and arrays  ****
OctLoc.c.b A Datatyp(siz) R M Lvl/name                 OctLoc.c.b A Datatyp(siz) R M Lvl/name

     0-0-0/b BIT               1 EOF_FLAG

  ****  Section 032 LblCom KEY_REC

  ****  Scalars and arrays  ****
OctLoc.c.b A Datatyp(siz) R M Lvl/name                 OctLoc.c.b A Datatyp(siz) R M Lvl/name

     0-0-0/c CHAR(10)          1 KEY_REC

  ****  Section 033 LblCom LINE

  ****  Scalars and arrays  ****
OctLoc.c.b A Datatyp(siz) R M Lvl/name                 OctLoc.c.b A Datatyp(siz) R M Lvl/name

     0-0-0/c CHAR(109)         1 LINE

  ****  Section 034 LblCom LINELEN

  ****  Scalars and arrays  ****
OctLoc.c.b A Datatyp(siz) R M Lvl/name                 OctLoc.c.b A Datatyp(siz) R M Lvl/name

     0-0-0/w SBIN              1 LINELEN

  ****  Section 035 LblCom TSTATS

  ****  Scalars and arrays  ****
OctLoc.c.b A Datatyp(siz) R M Lvl/name                 OctLoc.c.b A Datatyp(siz) R M Lvl/name

     0-0-0/w STRC(7380)        1 TSTATS

  ****  Section 036 LblCom C#_TO_$

  ****  Scalars and arrays  ****
PL6.E3A0      #001=GRAM File=LR_GRAM.:Z8A6TSI                                    SAT 08/09/97 09:28 Page:20
OctLoc.c.b A Datatyp(siz) R M Lvl/name                 OctLoc.c.b A Datatyp(siz) R M Lvl/name

     0-0-0/w PTR               1 C#_TO_$(0:2200)

  ****  Section 037 LblCom NR_CONFIG

  ****  Scalars and arrays  ****
OctLoc.c.b A Datatyp(siz) R M Lvl/name                 OctLoc.c.b A Datatyp(siz) R M Lvl/name

     0-0-0/w SBIN              1 NR_CONFIG

  ****  Section 038 LblCom INIT_CONFIG

  ****  Scalars and arrays  ****
OctLoc.c.b A Datatyp(siz) R M Lvl/name                 OctLoc.c.b A Datatyp(siz) R M Lvl/name

     0-0-0/w SBIN              1 INIT_CONFIG

  ****  Section 039 LblCom MAX_BASIS_ITEMS

  ****  Scalars and arrays  ****
OctLoc.c.b A Datatyp(siz) R M Lvl/name                 OctLoc.c.b A Datatyp(siz) R M Lvl/name

     0-0-0/w SBIN              1 MAX_BASIS_ITEMS

  ****  Section 040 LblCom MAX_TOTAL_ITEMS

  ****  Scalars and arrays  ****
OctLoc.c.b A Datatyp(siz) R M Lvl/name                 OctLoc.c.b A Datatyp(siz) R M Lvl/name

     0-0-0/w SBIN              1 MAX_TOTAL_ITEMS

  ****  Section 041 LblCom LAST_BINSRCH_ONLY

  ****  Scalars and arrays  ****
OctLoc.c.b A Datatyp(siz) R M Lvl/name                 OctLoc.c.b A Datatyp(siz) R M Lvl/name

PL6.E3A0      #001=GRAM File=LR_GRAM.:Z8A6TSI                                    SAT 08/09/97 09:28 Page:21
     0-0-0/w SBIN              1 LAST_BINSRCH_ONLY

  ****  Section 042 LblCom LAST_BOTH_BITBIN

  ****  Scalars and arrays  ****
OctLoc.c.b A Datatyp(siz) R M Lvl/name                 OctLoc.c.b A Datatyp(siz) R M Lvl/name

     0-0-0/w SBIN              1 LAST_BOTH_BITBIN

  ****  BASED and DCB variables  ****

  ****  Scalars and arrays  ****
OctLoc.c.b A Datatyp(siz) R M Lvl/name                 OctLoc.c.b A Datatyp(siz) R M Lvl/name

     0-0-0/w STRC(57888)       1 C_SET_B                    0-0-0/w STRC(72)          1 INCLUDES_B
     0-0-0/w STRC(144)         1 INCL_B                     0-0-0/w STRC(5436)        1 ITEM_B
     0-0-0/w STRC(5652)        1 KEY_B                      0-0-0N  NULL        r     1 M$LO
     0-0-0N  NULL        r     1 M$OU                       0-0-0N  NULL        r     1 M$SI
     0-0-0N  NULL        r     1 M$SO                       0-0-0N  NULL        r     1 M$UI
     0-0-0/w STRC(351)         1 SYMBOL


   Procedure GRAM requires 76 words for executable code.
   Procedure GRAM requires 4 words of local(AUTO) storage.

    No errors detected in file LR_GRAM.:Z8A6TSI    .
