PL6.E3A0      #006=PRINT_PRED File=LR_LASET.:Z8A6TSI                             SAT 08/09/97 09:35 Page:173
      949        1        /*T***********************************************************/
      950        2        /*T*                                                         */
      951        3        /*T* Copyright (c) Bull HN Information Systems Inc., 1997    */
      952        4        /*T*                                                         */
      953        5        /*T***********************************************************/
      954        6        PRINT_PRED : PROC (STATE, E, I, CLASHED_TERM);
      955        7
      956        8    1   DCL STATE SBIN WORD;
      957        9    1   DCL E SBIN WORD;
      958       10    1   DCL I SBIN WORD;
      959       11    1   DCL CLASHED_TERM SBIN WORD;
      960       12
      961       13        %INCLUDE LR_GRAM_EXT;
      962      552        %INCLUDE LR_CNFG_EXT;
      963      705        %INCLUDE LR_ERR_EXT;
      964      848
      965      849    1   DCL GET_STRING_MEM ENTRY(2);
      966      850    1   DCL PRINT_ITEM ENTRY(3);
      967      851    1   DCL ORDER_ITEMS ENTRY(1);
      968      852    1   DCL FINDNEIGHBORS ENTRY(1);
      969      853    1   DCL EXPAND_DERIV ENTRY(4);
      970      854    1   DCL DERIV_COST ENTRY(6);
      971      855
      972      856    1   DCL PSTATE SBIN WORD;
      973      857    1   DCL PE     SBIN WORD;
      974      858    1   DCL PI     SBIN WORD;
      975      859
      976      860    1   DCL TPTR PTR;
      977      861
      978      862    1   DCL 1 SB ALIGNED BASED,
      979      863    1         2 SET_B(0:1) BOOLEAN UNAL;
      980      864    1   DCL ITEM SBIN WORD;
      981      865    1   DCL NB SBIN WORD;
      982      866    1   DCL N SBIN WORD;
      983      867    1   DCL DONE BOOLEAN;
      984      868    1   DCL SOURCE SBIN WORD;
      985      869    1   DCL MINCOST SBIN WORD;
PL6.E3A0      #006=PRINT_PRED File=LR_LASET.:Z8A6TSI                             SAT 08/09/97 09:35 Page:174
      986      870    1   DCL TCOST SBIN WORD;
      987      871    1   DCL LS SBIN WORD;
      988      872    1   DCL LE SBIN WORD;
      989      873    1   DCL LI SBIN WORD;
      990      874    1   DCL CHOICE SBIN WORD;
      991      875    1   DCL TITEM SBIN WORD;
      992      876
      993      877    1   DCL MARKED_ITEM$ PTR EXT;
      994      878    1   DCL 1 MARKED_ITEM BASED ALIGNED,
      995      879    1         2 LEN_IN_H SBIN HALF HALIGNED,
      996      880    1         2 STATE    SBIN HALF HALIGNED,
      997      881    1         2 E        SBIN HALF HALIGNED,
      998      882    1         2 I        SBIN HALF HALIGNED,
      999      883    1         2 LINK     PTR;
     1000      884
     1001      885    1   DCL ALPHAS CHAR(4);
     1002      886
     1003      887
     1004      888        /* Make sure this item has not been visited */
     1005      889
     1006      890    1   TPTR = MARKED_ITEM$;
     1007      891
     1008      892    2   DO WHILE TPTR ~= ADDR(NIL);
     1009      893    2     IF (TPTR->MARKED_ITEM.STATE = STATE)
     1010      894    2       AND (TPTR -> MARKED_ITEM.E = E)
     1011      895    2       AND (TPTR -> MARKED_ITEM.I = I) THEN
     1012      896    2      RETURN;
     1013      897    2     TPTR = TPTR -> MARKED_ITEM.LINK;
     1014      898    2    END;
     1015      899
     1016      900        /* Check to see whether follow set or include set contains
     1017      901           the clashed terminal , when the item is a basis item.  If not,
     1018      902           then print the item and quit looking at predecessors.  If the
     1019      903           item is a closure item, trace it up to a basis item.
     1020      904        */
     1021      905    1   IF C#_TO_$(STATE) -> C_SET_B.ELEM.ITEM$(E) -> ITEM_B.ELEM.ITEM#(I)
     1022      906    1            < C#_TO_$(STATE) -> C_SET_B.BASIS_COUNT THEN
PL6.E3A0      #006=PRINT_PRED File=LR_LASET.:Z8A6TSI                             SAT 08/09/97 09:35 Page:175
     1023      907          /* basis item */
     1024      908    1     IF C#_TO_$(STATE) -> C_SET_B.ELEM.KEY$(E) ->
     1025      909    1         KEY_B.W.SYM_AFTER = 0 THEN
     1026      910    1       IF NOT C#_TO_$(STATE) -> C_SET_B.ELEM.KEY$(E) ->
     1027      911    1             KEY_B.FOLLOW$ -> INCL_B.SET(CLASHED_TERM) THEN
     1028      912    1         GOTO END_PRED;
     1029      913    1       ELSE ;
     1030      914    1     ELSE
     1031      915    1       IF C#_TO_$(STATE) -> C_SET_B.ELEM.KEY$(E) ->
     1032      916    1            KEY_B.W.SYM_AFTER > NR_TERM THEN
     1033      917    1         IF NOT C#_TO_$(STATE) -> C_SET_B.ELEM.KEY$(E) ->
     1034      918    1                KEY_B.SET$ -> SB.SET_B(CLASHED_TERM) THEN
     1035      919    1           GOTO END_PRED;
     1036      920    1         ELSE ;
     1037      921    1       ELSE
     1038      922    1         IF C#_TO_$(STATE) -> C_SET_B.ELEM.KEY$(E) ->
     1039      923    1               KEY_B.W.SYM_AFTER ~= CLASHED_TERM THEN
     1040      924    1           GOTO END_PRED;
     1041      925
     1042      926        /* Mark this item so loops are not traversed.
     1043      927        */
     1044      928
     1045      929    1   CALL GET_STRING_MEM(TPTR, LENGTHC(MARKED_ITEM)/2 -1 );
     1046      930    1   TPTR -> MARKED_ITEM.STATE = STATE;
     1047      931    1   TPTR -> MARKED_ITEM.E = E;
     1048      932    1   TPTR -> MARKED_ITEM.I = I;
     1049      933    1   TPTR -> MARKED_ITEM.LINK = MARKED_ITEM$;
     1050      934    1   MARKED_ITEM$ = TPTR;
     1051      935
     1052      936        /* Find the predecessors of this item.
     1053      937        */
     1054      938    1   IF C#_TO_$(STATE) -> C_SET_B.ELEM.ITEM$(E) -> ITEM_B.ELEM.ITEM#(I)
     1055      939    1            < C#_TO_$(STATE) -> C_SET_B.BASIS_COUNT  THEN
     1056      940          /* Basis item */
     1057      941    2     DO;
     1058      942    2       MINCOST = INFINITE_COST;
     1059      943    3       DO PSTATE = 0 TO NR_CONFIG - 1;
PL6.E3A0      #006=PRINT_PRED File=LR_LASET.:Z8A6TSI                             SAT 08/09/97 09:35 Page:176
     1060      944    4         DO PE = 0 TO C#_TO_$(PSTATE) -> C_SET_B.NR_ELEM - 1;
     1061      945    4           IF C#_TO_$(PSTATE) -> C_SET_B.ELEM.KEY$(PE) -> KEY_B.KEY_VAL$
     1062      946    4                      -> C_SET_B.C_SET# = STATE THEN
     1063      947    5             DO PI = 0 TO C#_TO_$(PSTATE) -> C_SET_B.ELEM.KEY$(PE) ->
     1064      948    5                         KEY_B.W.ELEM_COUNT - 1;
     1065      949    5               IF C#_TO_$(PSTATE) -> C_SET_B.ELEM.ITEM$(PE) -> ITEM_B.ELEM.SUCC_ITEM#(
               949                        PI)
     1066      950    5                     = C#_TO_$(STATE) -> C_SET_B.ELEM.ITEM$(E) -> ITEM_B.ELEM.ITEM#(I)
               950                              THEN
     1067      951    6                 DO;
     1068      952    6                   CALL DERIV_COST(PSTATE, PE, PI, CLASHED_TERM, 0, TCOST);
     1069      953    6                   IF TCOST < MINCOST THEN
     1070      954    7                     DO;
     1071      955    7                       LS = PSTATE;
     1072      956    7                       LE = PE;
     1073      957    7                       LI = PI;
     1074      958    7                       MINCOST = TCOST;
     1075      959    7                     END;
     1076      960    6                 END;
     1077      961    5             END;
     1078      962    4         END;
     1079      963    3       END;
     1080      964    2       IF MINCOST < INFINITE_COST THEN
     1081      965    2         CALL PRINT_PRED(LS, LE, LI, CLASHED_TERM);
     1082      966    2     END_PRED:
     1083      967            %OUT_STR (S="'          State '");
     1084      970    2       CALL BINCHAR(ALPHAS, STATE);
     1085      971    2       CALL OUT_STR(ALPHAS, LENGTHC(ALPHAS));
     1086      972            %OUT_STR(S="' '");
     1087      975    2       CALL PRINT_ITEM(STATE, E, I);
     1088      976    2     END;
     1089      977    1   ELSE
     1090      978            /* Closure */
     1091      979    2     DO;
     1092      980    2       CALL ORDER_ITEMS(STATE);
     1093      981
     1094      982    2       SOURCE = C#_TO_$(STATE) -> C_SET_B.ELEM.ITEM$(E) -> ITEM_B.ELEM.ITEM#(I);
PL6.E3A0      #006=PRINT_PRED File=LR_LASET.:Z8A6TSI                             SAT 08/09/97 09:35 Page:177
     1095      983
     1096      984            /* Set edge costs to 1 */
     1097      985    3       DO PE = 0 TO C#_TO_$(STATE) -> C_SET_B.NR_ELEM - 1;
     1098      986    4         DO PI = 0 TO C#_TO_$(STATE) -> C_SET_B.ELEM.KEY$(PE) ->
     1099      987    4                     KEY_B.W.ELEM_COUNT - 1;
     1100      988    4           CALL DERIV_COST(STATE, PE, PI, CLASHED_TERM, 0, MINCOST);
     1101      989    4           EDGECOST(C#_TO_$(STATE) -> C_SET_B.ELEM.ITEM$(PE) ->
     1102      990    4                      ITEM_B.ELEM.ITEM#(PI)) = MINCOST;
     1103      991    4         END;
     1104      992    3       END;
     1105      993
     1106      994    2       CALL FINDNEIGHBORS(STATE);
     1107      995
     1108      996            /* Calculate least cost path from closure item
     1109      997                   to any basis item */
     1110      998
     1111      999    3       DO ITEM = 0 TO C#_TO_$(STATE) -> C_SET_B.ITEM_COUNT - 1;
     1112     1000
     1113     1001    3         CHOSEN(ITEM)         = FALSE;
     1114     1002    3         PATH_INFO.DEST(ITEM) = 0;
     1115     1003    3         PATH_INFO.COST(ITEM) = INFINITE_COST;
     1116     1004
     1117     1005    3       END;
     1118     1006
     1119     1007    2       NB = NEIGHBOR(SOURCE);
     1120     1008
     1121     1009    3       DO N = 0 TO C#_TO_$(STATE) -> C_SET_B.ELEM.KEY$(NB) -> KEY_B.W.ELEM_COUNT - 1;
     1122     1010
     1123     1011    3         ITEM = C#_TO_$(STATE) -> C_SET_B.ELEM.ITEM$(NB) -> ITEM_B.ELEM.ITEM#(N);
     1124     1012    3         PATH_INFO.COST(ITEM) = EDGECOST(ITEM);
     1125     1013    3         PATH_INFO.DEST(ITEM) = SOURCE;
     1126     1014
     1127     1015    3       END;
     1128     1016
     1129     1017    3       DO UNTIL DONE;
     1130     1018
     1131     1019    3         DONE = TRUE;
PL6.E3A0      #006=PRINT_PRED File=LR_LASET.:Z8A6TSI                             SAT 08/09/97 09:35 Page:178
     1132     1020
     1133     1021    3         MINCOST = INFINITE_COST;
     1134     1022
     1135     1023    3         N = C#_TO_$(STATE) -> C_SET_B.ITEM_COUNT - 1;
     1136     1024
     1137     1025    4         DO ITEM = 0 TO N;
     1138     1026
     1139     1027    4           IF NOT CHOSEN(ITEM) THEN
     1140     1028    4             IF PATH_INFO.COST(ITEM) < MINCOST THEN
     1141     1029    5               DO;
     1142     1030    5                 DONE    = FALSE;
     1143     1031    5                 CHOICE  = ITEM;
     1144     1032    5                 MINCOST = PATH_INFO.COST(ITEM);
     1145     1033    5               END;
     1146     1034
     1147     1035    4         END;
     1148     1036
     1149     1037    3         IF NOT DONE THEN
     1150     1038    4           DO;
     1151     1039    4             CHOSEN (CHOICE) = TRUE;
     1152     1040    4             NB = NEIGHBOR(CHOICE);
     1153     1041    4             IF NB >= 0 THEN
     1154     1042    5               DO N = 0 TO C#_TO_$(STATE) -> C_SET_B.ELEM.KEY$(NB) -> KEY_B.W.
              1042                        ELEM_COUNT - 1;
     1155     1043
     1156     1044    5                 TITEM = C#_TO_$(STATE) -> C_SET_B.ELEM.ITEM$(NB) ->
     1157     1045    5                              ITEM_B.ELEM.ITEM#(N);
     1158     1046
     1159     1047    5                 IF PATH_INFO.COST(CHOICE) + EDGECOST(TITEM) < PATH_INFO.COST(TITEM)
              1047                          THEN
     1160     1048    6                   DO;
     1161     1049    6                     PATH_INFO.COST(TITEM) = PATH_INFO.COST(CHOICE) + EDGECOST(TITEM);
     1162     1050    6                     PATH_INFO.DEST(TITEM) = CHOICE;
     1163     1051    6                   END;
     1164     1052
     1165     1053    5               END;
     1166     1054    4           END;
PL6.E3A0      #006=PRINT_PRED File=LR_LASET.:Z8A6TSI                             SAT 08/09/97 09:35 Page:179
     1167     1055    3       END;  /* DO UNTIL */
     1168     1056
     1169     1057    2     MINCOST = INFINITE_COST;
     1170     1058    3     DO TITEM = 0 TO C#_TO_$(STATE) -> C_SET_B.BASIS_COUNT - 1;
     1171     1059    3       IF PATH_INFO.COST(TITEM) < MINCOST THEN
     1172     1060    4         DO;
     1173     1061    4           ITEM = TITEM;
     1174     1062    4           MINCOST = PATH_INFO.COST(TITEM);
     1175     1063    4         END;
     1176     1064    3     END;
     1177     1065
     1178     1066    2       CALL EXPAND_DERIV(STATE, ITEM,
     1179     1067    2                        BINBIT(C#_TO_$(STATE) -> C_SET_B.ELEM.ITEM$(E) ->
     1180     1068    2                                  ITEM_B.ELEM.ITEM#(I), 36),
     1181     1069    2                         CLASHED_TERM);
     1182     1070    2     END;
     1183     1071
     1184     1072
     1185     1073    1   END PRINT_PRED;
     1186     1074        %EOD;

PL6.E3A0      #006=PRINT_PRED File=LR_LASET.:Z8A6TSI                             SAT 08/09/97 09:35 Page:180
--  Include file information  --

   LR_ERR_EXT.:Z8A6TOU  cannot be made into a system file and is referenced.
   LR_CNFG_EXT.:Z8A6TOU  cannot be made into a system file and is referenced.
   LR_IO_EXT.:Z8A6TOU  cannot be made into a system file and is referenced.
   LR_GRAM_EXT.:Z8A6TOU  cannot be made into a system file and is referenced.
      No diagnostics issued in procedure PRINT_PRED.

   Procedure PRINT_PRED requires 489 words for executable code.
   Procedure PRINT_PRED requires 30 words of local(AUTO) storage.

PL6.E3A0      #006=PRINT_PRED File=LR_LASET.:Z8A6TSI                             SAT 08/09/97 09:35 Page:181

 Object Unit name= PRINT_PRED                                 File name= LR_LASET.:Z8A6TOU
 UTS= AUG 09 '97 09:35:24.56 SAT                              Compiler= PL-6/E31         Sev=      00
 SharedLib= :SHARED_SYSTEM                                    Alt SharedLib=


    ****  Control sections  ****

 Sect   Type Bound  Init  Size OctSiz  Section name(segment info)
    0  LblCom even  none     1      1  OUT_DCBN
    1   DCB   even  none     0      0  M$OU
    2   DCB   even  none     0      0  M$SO
    3   DCB   even  none     0      0  M$LO
    4   DCB   even  none     0      0  M$SI
    5   DCB   even  none     0      0  M$UI
    6  LblCom even  none  1401   2571  SYM_PTRS
    7  LblCom even  none  4001   7641  RIGHT_PARTS
    8  LblCom even  none  3002   5672  PROD
    9  LblCom even  none     1      1  NR_PROD
   10  LblCom even  none     1      1  NR_SYMS
   11  LblCom even  none     1      1  NR_TERM
   12  LblCom even  none     1      1  LAST_ACT
   13  LblCom even  none     1      1  LAST_NULL
   14  LblCom even  none     1      1  NR_ONRIGHT
   15  LblCom even  none     1      1  NR_NT
   16  LblCom even  none     1      1  PROD_LEN_MAX_EVER
   17  LblCom even  none     1      1  LAST_ORDER_SPECIFIED
   18  LblCom even  none     1      1  SEMANTIC_ORDERING
   19  LblCom even  none     1      1  ERR_SEV
   20  LblCom even  none     1      1  SET_LENGTHB
   21  LblCom even  none     1      1  SET_LENGTHW
   22  LblCom even  none     1      1  EOF_SYMBOL_PTR
   23  LblCom even  none     1      1  ERROR_SYMBOL_PTR
   24  LblCom even  none     1      1  BOF_SYMBOL_PTR
   25  LblCom even  none     1      1  OPTIONS
   26  LblCom even  none    26     32  OPTIONS_TEXT
   27  LblCom even  none   128    200  INSTR
   28  LblCom even  none     1      1  INSTR_LISTED
PL6.E3A0      #006=PRINT_PRED File=LR_LASET.:Z8A6TSI                             SAT 08/09/97 09:35 Page:182
   29  LblCom even  none     1      1  INSTR_LEN
   30  LblCom even  none     1      1  INSTR_INDX
   31  LblCom even  none     1      1  EOF_FLAG
   32  LblCom even  none     3      3  KEY_REC
   33  LblCom even  none    28     34  LINE
   34  LblCom even  none     1      1  LINELEN
   35  LblCom even  none   205    315  TSTATS
   36  LblCom even  none  2201   4231  C#_TO_$
   37  LblCom even  none     1      1  NR_CONFIG
   38  LblCom even  none     1      1  INIT_CONFIG
   39  LblCom even  none     1      1  MAX_BASIS_ITEMS
   40  LblCom even  none     1      1  MAX_TOTAL_ITEMS
   41  LblCom even  none     1      1  LAST_BINSRCH_ONLY
   42  LblCom even  none     1      1  LAST_BOTH_BITBIN
   43  LblCom even  none   101    145  GARBAGE
   44  LblCom even  none     1      1  AMT_GARBAGE
   45  LblCom even  none  1401   2571  LEAST_COST_STRING
   46  LblCom even  none  1401   2571  LEAST_COST_PREFIX
   47  LblCom even  none  5604  12744  CURRE
   48  LblCom even  none   701   1275  LCP_INDX
   49  LblCom even  none     1      1  COM_STRSP_LEN
   50  LblCom even  none     1      1  COM_SEARCH_STRING
   51  LblCom even  none     1      1  COM_SEARCH_STRING_LEN
   52  LblCom even  none     1      1  COM_STRING_SPACE_LEN
   53  LblCom even  none 12500  30324  COM_STRING_SPACE_H
   54  LblCom even  none     1      1  COM_STRING_SPACE$
   55  LblCom even  none     1      1  COM_STRING_PTR
   56  LblCom even  none     1      1  COM_STRING_INDX
   57  LblCom even  none     1      1  LCP_TABLE_LEN
   58  LblCom even  none  2201   4231  STATE_ITEM_INDEX
   59  LblCom even  none 17601  42301  PATH
   60  LblCom even  none     1      1  PATH_STRINGS_LEN
   61  LblCom even  none     1      1  PATH_ADDR$
   62  LblCom even  none     1      1  PATH_TABLE_LEN
   63  LblCom even  none   401    621  EDGECOST
   64  LblCom even  none     1      1  ITEM_TABLE_LEN
   65  LblCom even  none   401    621  ORDERED_ITEM
PL6.E3A0      #006=PRINT_PRED File=LR_LASET.:Z8A6TSI                             SAT 08/09/97 09:35 Page:183
   66  LblCom even  none   401    621  NEIGHBOR
   67  LblCom even  none   802   1442  PATH_INFO
   68  LblCom even  none   401    621  CHOSEN
   69  LblCom even  none    12     14  REACHED
   70  LblCom even  none     1      1  EXP_PATH_INDX
   71  LblCom even  none     1      1  MARKED_ITEM$
   72  RoData even  UTS      4      4  PRINT_PRED
   73   Proc  even  none   489    751  PRINT_PRED
   74  RoData even  none    19     23  PRINT_PRED

    ****  Entry defs  ****

                              Check   Calling
                             calling  sequence
  Sect OctLoc Primary Altret sequence   type   Parms  Name
    73      0   yes            yes      Std        4  PRINT_PRED

  ****  Entry refs  ****

         Check        Calling
        calling       sequence
Altret sequence SRef   type   Args  Name
         yes           Std       2 GET_STRING_MEM
         yes           Std       3 PRINT_ITEM
         yes           Std       4 EXPAND_DERIV
         yes           Std       1 FINDNEIGHBORS
         yes           Std       6 DERIV_COST
         yes           Std       2 OUT_STR
         yes           Std       1 ORDER_ITEMS
                       nStd      0 X66_AUTO_4
                       nStd      0 X66_ARET
PL6.E3A0      #006=PRINT_PRED File=LR_LASET.:Z8A6TSI                             SAT 08/09/97 09:35 Page:184

  ****  Data refs  ****

  Flags:  r = read only, s = secondary
Flgs Name                             Flgs Name                             Flgs Name
     M$OU                                  M$SO                                  M$LO
     M$SI                                  M$UI

  ****  Segment refs  ****

  Flags:  r = read only, s = secondary
Flgs Name                             Flgs Name                             Flgs Name
     NULLSID                               ISSID
PL6.E3A0      #006=PRINT_PRED File=LR_LASET.:Z8A6TSI                             SAT 08/09/97 09:35 Page:185


      949        1        /*T***********************************************************/
      950        2        /*T*                                                         */
      951        3        /*T* Copyright (c) Bull HN Information Systems Inc., 1997    */
      952        4        /*T*                                                         */
      953        5        /*T***********************************************************/
      954        6        PRINT_PRED : PROC (STATE, E, I, CLASHED_TERM);

      6 73 000000   000000 700200 xent  PRINT_PRED   TSX0  ! X66_AUTO_4
        73 000001   000036 000004                    ZERO    30,4

      955        7
      956        8    1   DCL STATE SBIN WORD;
      957        9    1   DCL E SBIN WORD;
      958       10    1   DCL I SBIN WORD;
      959       11    1   DCL CLASHED_TERM SBIN WORD;
      960       12
      961       13        %INCLUDE LR_GRAM_EXT;
      962      552        %INCLUDE LR_CNFG_EXT;
      963      705        %INCLUDE LR_ERR_EXT;
      964      848
      965      849    1   DCL GET_STRING_MEM ENTRY(2);
      966      850    1   DCL PRINT_ITEM ENTRY(3);
      967      851    1   DCL ORDER_ITEMS ENTRY(1);
      968      852    1   DCL FINDNEIGHBORS ENTRY(1);
      969      853    1   DCL EXPAND_DERIV ENTRY(4);
      970      854    1   DCL DERIV_COST ENTRY(6);
      971      855
      972      856    1   DCL PSTATE SBIN WORD;
      973      857    1   DCL PE     SBIN WORD;
      974      858    1   DCL PI     SBIN WORD;
      975      859
      976      860    1   DCL TPTR PTR;
      977      861
      978      862    1   DCL 1 SB ALIGNED BASED,
      979      863    1         2 SET_B(0:1) BOOLEAN UNAL;
      980      864    1   DCL ITEM SBIN WORD;
PL6.E3A0      #006=PRINT_PRED File=LR_LASET.:Z8A6TSI                             SAT 08/09/97 09:35 Page:186
      981      865    1   DCL NB SBIN WORD;
      982      866    1   DCL N SBIN WORD;
      983      867    1   DCL DONE BOOLEAN;
      984      868    1   DCL SOURCE SBIN WORD;
      985      869    1   DCL MINCOST SBIN WORD;
      986      870    1   DCL TCOST SBIN WORD;
      987      871    1   DCL LS SBIN WORD;
      988      872    1   DCL LE SBIN WORD;
      989      873    1   DCL LI SBIN WORD;
      990      874    1   DCL CHOICE SBIN WORD;
      991      875    1   DCL TITEM SBIN WORD;
      992      876
      993      877    1   DCL MARKED_ITEM$ PTR EXT;
      994      878    1   DCL 1 MARKED_ITEM BASED ALIGNED,
      995      879    1         2 LEN_IN_H SBIN HALF HALIGNED,
      996      880    1         2 STATE    SBIN HALF HALIGNED,
      997      881    1         2 E        SBIN HALF HALIGNED,
      998      882    1         2 I        SBIN HALF HALIGNED,
      999      883    1         2 LINK     PTR;
     1000      884
     1001      885    1   DCL ALPHAS CHAR(4);
     1002      886
     1003      887
     1004      888        /* Make sure this item has not been visited */
     1005      889
     1006      890    1   TPTR = MARKED_ITEM$;

    890 73 000002   000000 236000 71                 LDQ     MARKED_ITEM$
        73 000003   200012 756100                    STQ     TPTR,,AUTO

     1007      891
     1008      892    2   DO WHILE TPTR ~= ADDR(NIL);

    892 73 000004   000032 710000 73                 TRA     s:898

     1009      893    2     IF (TPTR->MARKED_ITEM.STATE = STATE)

PL6.E3A0      #006=PRINT_PRED File=LR_LASET.:Z8A6TSI                             SAT 08/09/97 09:35 Page:187
    893 73 000005   200003 470500                    LDP0    @STATE,,AUTO
        73 000006   200012 471500                    LDP1    TPTR,,AUTO
        73 000007   100000 236100                    LDQ     0,,PR1
        73 000010   000022 736000                    QLS     18
        73 000011   000022 732000                    QRS     18
        73 000012   000000 116100                    CMPQ    0,,PR0
        73 000013   000030 601000 73                 TNZ     s:897
        73 000014   200004 473500                    LDP3    @E,,AUTO
        73 000015   100001 236100                    LDQ     1,,PR1
        73 000016   000022 732000                    QRS     18
        73 000017   300000 116100                    CMPQ    0,,PR3
        73 000020   000030 601000 73                 TNZ     s:897
        73 000021   200005 474500                    LDP4    @I,,AUTO
        73 000022   100001 236100                    LDQ     1,,PR1
        73 000023   000022 736000                    QLS     18
        73 000024   000022 732000                    QRS     18
        73 000025   400000 116100                    CMPQ    0,,PR4
        73 000026   000030 601000 73                 TNZ     s:897

     1010      894    2       AND (TPTR -> MARKED_ITEM.E = E)
     1011      895    2       AND (TPTR -> MARKED_ITEM.I = I) THEN
     1012      896    2      RETURN;

    896 73 000027   000000 702200 xent               TSX2  ! X66_ARET

     1013      897    2     TPTR = TPTR -> MARKED_ITEM.LINK;

    897 73 000030   100002 236100                    LDQ     2,,PR1
        73 000031   200012 756100                    STQ     TPTR,,AUTO

     1014      898    2    END;

    898 73 000032   000000 116000 74                 CMPQ    0
        73 000033   000005 601000 73                 TNZ     s:893

     1015      899
     1016      900        /* Check to see whether follow set or include set contains
PL6.E3A0      #006=PRINT_PRED File=LR_LASET.:Z8A6TSI                             SAT 08/09/97 09:35 Page:188
     1017      901           the clashed terminal , when the item is a basis item.  If not,
     1018      902           then print the item and quit looking at predecessors.  If the
     1019      903           item is a closure item, trace it up to a basis item.
     1020      904        */
     1021      905    1   IF C#_TO_$(STATE) -> C_SET_B.ELEM.ITEM$(E) -> ITEM_B.ELEM.ITEM#(I)

    905 73 000034   200003 470500                    LDP0    @STATE,,AUTO
        73 000035   000000 720100                    LXL0    0,,PR0
        73 000036   000000 471410 36                 LDP1    C#_TO_$,X0
        73 000037   200004 473500                    LDP3    @E,,AUTO
        73 000040   300000 235100                    LDA     0,,PR3
        73 000041   000002 735000                    ALS     2
        73 000042   100006 474505                    LDP4    6,AL,PR1
        73 000043   200005 471500                    LDP1    @I,,AUTO
        73 000044   100000 720100                    LXL0    0,,PR1
        73 000045   000000 721100                    LXL1    0,,PR0
        73 000046   000000 475411 36                 LDP5    C#_TO_$,X1
        73 000047   500002 721100                    LXL1    2,,PR5
        73 000050   400000 101110                    CMPX1   0,X0,PR4
        73 000051   000140 604400 73                 TMOZ    s:929

     1022      906    1            < C#_TO_$(STATE) -> C_SET_B.BASIS_COUNT THEN
     1023      907          /* basis item */
     1024      908    1     IF C#_TO_$(STATE) -> C_SET_B.ELEM.KEY$(E) ->

    908 73 000052   000000 720100                    LXL0    0,,PR0
        73 000053   000000 474410 36                 LDP4    C#_TO_$,X0
        73 000054   300000 235100                    LDA     0,,PR3
        73 000055   000002 735000                    ALS     2
        73 000056   400004 475505                    LDP5    4,AL,PR4
        73 000057   500004 235100                    LDA     4,,PR5
        73 000060   000100 601000 73                 TNZ     s:915

     1025      909    1         KEY_B.W.SYM_AFTER = 0 THEN
     1026      910    1       IF NOT C#_TO_$(STATE) -> C_SET_B.ELEM.KEY$(E) ->

    910 73 000061   000000 720100                    LXL0    0,,PR0
PL6.E3A0      #006=PRINT_PRED File=LR_LASET.:Z8A6TSI                             SAT 08/09/97 09:35 Page:189
        73 000062   000000 474410 36                 LDP4    C#_TO_$,X0
        73 000063   300000 235100                    LDA     0,,PR3
        73 000064   000002 735000                    ALS     2
        73 000065   400004 475505                    LDP5    4,AL,PR4
        73 000066   500003 474500                    LDP4    3,,PR5
        73 000067   200006 475500                    LDP5    @CLASHED_TERM,,AUTO
        73 000070   500000 235100                    LDA     0,,PR5
        73 000071   000073 605000 73                 TPL     s:910+10
        73 000072   000044 035003                    ADLA    36,DU
        73 000073   000000 066505                    CMPB    filb='0'B
        73 000074   400003 000001                    BDSC    3,A,PR4                  by=0,bit=0,n=1
        73 000075   000001 000022 74                 BDSC    1                        by=0,bit=0,n=18
        73 000076   000350 600000 73                 TZE     END_PRED
        73 000077   000140 710000 73                 TRA     s:929

     1027      911    1             KEY_B.FOLLOW$ -> INCL_B.SET(CLASHED_TERM) THEN
     1028      912    1         GOTO END_PRED;
     1029      913    1       ELSE ;
     1030      914    1     ELSE
     1031      915    1       IF C#_TO_$(STATE) -> C_SET_B.ELEM.KEY$(E) ->

    915 73 000100   000000 720100                    LXL0    0,,PR0
        73 000101   000000 474410 36                 LDP4    C#_TO_$,X0
        73 000102   300000 235100                    LDA     0,,PR3
        73 000103   000002 735000                    ALS     2
        73 000104   400004 475505                    LDP5    4,AL,PR4
        73 000105   500004 236100                    LDQ     4,,PR5
        73 000106   000000 116000 11                 CMPQ    NR_TERM
        73 000107   000127 604400 73                 TMOZ    s:922

     1032      916    1            KEY_B.W.SYM_AFTER > NR_TERM THEN
     1033      917    1         IF NOT C#_TO_$(STATE) -> C_SET_B.ELEM.KEY$(E) ->

    917 73 000110   000000 720100                    LXL0    0,,PR0
        73 000111   000000 474410 36                 LDP4    C#_TO_$,X0
        73 000112   300000 235100                    LDA     0,,PR3
        73 000113   000002 735000                    ALS     2
PL6.E3A0      #006=PRINT_PRED File=LR_LASET.:Z8A6TSI                             SAT 08/09/97 09:35 Page:190
        73 000114   400004 475505                    LDP5    4,AL,PR4
        73 000115   500002 474500                    LDP4    2,,PR5
        73 000116   200006 475500                    LDP5    @CLASHED_TERM,,AUTO
        73 000117   500000 235100                    LDA     0,,PR5
        73 000120   000122 605000 73                 TPL     s:917+10
        73 000121   000044 035003                    ADLA    36,DU
        73 000122   000000 066505                    CMPB    filb='0'B
        73 000123   400000 000001                    BDSC    0,A,PR4                  by=0,bit=0,n=1
        73 000124   000001 000022 74                 BDSC    1                        by=0,bit=0,n=18
        73 000125   000350 600000 73                 TZE     END_PRED
        73 000126   000140 710000 73                 TRA     s:929

     1034      918    1                KEY_B.SET$ -> SB.SET_B(CLASHED_TERM) THEN
     1035      919    1           GOTO END_PRED;
     1036      920    1         ELSE ;
     1037      921    1       ELSE
     1038      922    1         IF C#_TO_$(STATE) -> C_SET_B.ELEM.KEY$(E) ->

    922 73 000127   000000 720100                    LXL0    0,,PR0
        73 000130   000000 474410 36                 LDP4    C#_TO_$,X0
        73 000131   300000 235100                    LDA     0,,PR3
        73 000132   000002 735000                    ALS     2
        73 000133   400004 475505                    LDP5    4,AL,PR4
        73 000134   200006 474500                    LDP4    @CLASHED_TERM,,AUTO
        73 000135   500004 236100                    LDQ     4,,PR5
        73 000136   400000 116100                    CMPQ    0,,PR4
        73 000137   000350 601000 73                 TNZ     END_PRED

     1039      923    1               KEY_B.W.SYM_AFTER ~= CLASHED_TERM THEN
     1040      924    1           GOTO END_PRED;
     1041      925
     1042      926        /* Mark this item so loops are not traversed.
     1043      927        */
     1044      928
     1045      929    1   CALL GET_STRING_MEM(TPTR, LENGTHC(MARKED_ITEM)/2 -1 );

    929 73 000140   000004 236000 74                 LDQ     4
PL6.E3A0      #006=PRINT_PRED File=LR_LASET.:Z8A6TSI                             SAT 08/09/97 09:35 Page:191
        73 000141   200031 756100                    STQ     ALPHAS+2,,AUTO
        73 000142   200012 634500                    EPPR4   TPTR,,AUTO
        73 000143   200030 454500                    STP4    ALPHAS+1,,AUTO
        73 000144   200030 630500                    EPPR0   ALPHAS+1,,AUTO
        73 000145   000002 631400 74                 EPPR1   2
        73 000146   000000 701000 xent               TSX1    GET_STRING_MEM
        73 000147   000000 011000                    NOP     0

     1046      930    1   TPTR -> MARKED_ITEM.STATE = STATE;

    930 73 000150   200003 470500                    LDP0    @STATE,,AUTO
        73 000151   000000 720100                    LXL0    0,,PR0
        73 000152   200012 471500                    LDP1    TPTR,,AUTO
        73 000153   100000 440100                    SXL0    0,,PR1

     1047      931    1   TPTR -> MARKED_ITEM.E = E;

    931 73 000154   200004 471500                    LDP1    @E,,AUTO
        73 000155   100000 720100                    LXL0    0,,PR1
        73 000156   200012 473500                    LDP3    TPTR,,AUTO
        73 000157   300001 740100                    STX0    1,,PR3

     1048      932    1   TPTR -> MARKED_ITEM.I = I;

    932 73 000160   200005 473500                    LDP3    @I,,AUTO
        73 000161   300000 720100                    LXL0    0,,PR3
        73 000162   200012 474500                    LDP4    TPTR,,AUTO
        73 000163   400001 440100                    SXL0    1,,PR4

     1049      933    1   TPTR -> MARKED_ITEM.LINK = MARKED_ITEM$;

    933 73 000164   000000 236000 71                 LDQ     MARKED_ITEM$
        73 000165   200012 474500                    LDP4    TPTR,,AUTO
        73 000166   400002 756100                    STQ     2,,PR4

     1050      934    1   MARKED_ITEM$ = TPTR;

PL6.E3A0      #006=PRINT_PRED File=LR_LASET.:Z8A6TSI                             SAT 08/09/97 09:35 Page:192
    934 73 000167   200012 236100                    LDQ     TPTR,,AUTO
        73 000170   000000 756000 71                 STQ     MARKED_ITEM$

     1051      935
     1052      936        /* Find the predecessors of this item.
     1053      937        */
     1054      938    1   IF C#_TO_$(STATE) -> C_SET_B.ELEM.ITEM$(E) -> ITEM_B.ELEM.ITEM#(I)

    938 73 000171   000000 720100                    LXL0    0,,PR0
        73 000172   000000 474410 36                 LDP4    C#_TO_$,X0
        73 000173   100000 235100                    LDA     0,,PR1
        73 000174   000002 735000                    ALS     2
        73 000175   400006 475505                    LDP5    6,AL,PR4
        73 000176   300000 720100                    LXL0    0,,PR3
        73 000177   000000 721100                    LXL1    0,,PR0
        73 000200   000000 474411 36                 LDP4    C#_TO_$,X1
        73 000201   400002 721100                    LXL1    2,,PR4
        73 000202   500000 101110                    CMPX1   0,X0,PR5
        73 000203   000401 604400 73                 TMOZ    s:980

     1055      939    1            < C#_TO_$(STATE) -> C_SET_B.BASIS_COUNT  THEN
     1056      940          /* Basis item */
     1057      941    2     DO;

     1058      942    2       MINCOST = INFINITE_COST;

    942 73 000204   303237 235007                    LDA     99999,DL
        73 000205   200020 755100                    STA     MINCOST,,AUTO

     1059      943    3       DO PSTATE = 0 TO NR_CONFIG - 1;

    943 73 000206   200007 450100                    STZ     PSTATE,,AUTO
        73 000207   000326 710000 73                 TRA     s:963+1

     1060      944    4         DO PE = 0 TO C#_TO_$(PSTATE) -> C_SET_B.NR_ELEM - 1;

    944 73 000210   200010 450100                    STZ     PE,,AUTO
PL6.E3A0      #006=PRINT_PRED File=LR_LASET.:Z8A6TSI                             SAT 08/09/97 09:35 Page:193
        73 000211   000317 710000 73                 TRA     s:962+1

     1061      945    4           IF C#_TO_$(PSTATE) -> C_SET_B.ELEM.KEY$(PE) -> KEY_B.KEY_VAL$

    945 73 000212   200007 720100                    LXL0    PSTATE,,AUTO
        73 000213   000000 470410 36                 LDP0    C#_TO_$,X0
        73 000214   200010 235100                    LDA     PE,,AUTO
        73 000215   000002 735000                    ALS     2
        73 000216   000004 471505                    LDP1    4,AL,PR0
        73 000217   100003 473500                    LDP3    3,,PR1
        73 000220   200003 474500                    LDP4    @STATE,,AUTO
        73 000221   300001 236100                    LDQ     1,,PR3
        73 000222   000022 772000                    QRL     18
        73 000223   400000 116100                    CMPQ    0,,PR4
        73 000224   000316 601000 73                 TNZ     s:962

     1062      946    4                      -> C_SET_B.C_SET# = STATE THEN
     1063      947    5             DO PI = 0 TO C#_TO_$(PSTATE) -> C_SET_B.ELEM.KEY$(PE) ->

    947 73 000225   200011 450100                    STZ     PI,,AUTO
        73 000226   000304 710000 73                 TRA     s:961+1

     1064      948    5                         KEY_B.W.ELEM_COUNT - 1;
     1065      949    5               IF C#_TO_$(PSTATE) -> C_SET_B.ELEM.ITEM$(PE) -> ITEM_B.ELEM.SUCC_ITEM#(
               949                        PI)

    949 73 000227   200007 720100                    LXL0    PSTATE,,AUTO
        73 000230   000000 470410 36                 LDP0    C#_TO_$,X0
        73 000231   200010 235100                    LDA     PE,,AUTO
        73 000232   000002 735000                    ALS     2
        73 000233   000006 471505                    LDP1    6,AL,PR0
        73 000234   200003 473500                    LDP3    @STATE,,AUTO
        73 000235   300000 721100                    LXL1    0,,PR3
        73 000236   000000 474411 36                 LDP4    C#_TO_$,X1
        73 000237   200004 475500                    LDP5    @E,,AUTO
        73 000240   500000 235100                    LDA     0,,PR5
        73 000241   000002 735000                    ALS     2
PL6.E3A0      #006=PRINT_PRED File=LR_LASET.:Z8A6TSI                             SAT 08/09/97 09:35 Page:194
        73 000242   400006 476505                    LDP6    6,AL,PR4
        73 000243   200005 474500                    LDP4    @I,,AUTO
        73 000244   400000 721100                    LXL1    0,,PR4
        73 000245   200011 722100                    LXL2    PI,,AUTO
        73 000246   100000 723112                    LXL3    0,X2,PR1
        73 000247   600000 103111                    CMPX3   0,X1,PR6
        73 000250   000303 601000 73                 TNZ     s:961

     1066      950    5                     = C#_TO_$(STATE) -> C_SET_B.ELEM.ITEM$(E) -> ITEM_B.ELEM.ITEM#(I)
               950                              THEN
     1067      951    6                 DO;

     1068      952    6                   CALL DERIV_COST(PSTATE, PE, PI, CLASHED_TERM, 0, TCOST);

    952 73 000251   200021 631500                    EPPR1   TCOST,,AUTO
        73 000252   200035 451500                    STP1    ALPHAS+6,,AUTO
        73 000253   000006 236000 74                 LDQ     6
        73 000254   200034 756100                    STQ     ALPHAS+5,,AUTO
        73 000255   200006 236100                    LDQ     @CLASHED_TERM,,AUTO
        73 000256   200033 756100                    STQ     ALPHAS+4,,AUTO
        73 000257   200011 636500                    EPPR6   PI,,AUTO
        73 000260   200032 456500                    STP6    ALPHAS+3,,AUTO
        73 000261   200010 637500                    EPPR7   PE,,AUTO
        73 000262   200031 457500                    STP7    ALPHAS+2,,AUTO
        73 000263   200007 630500                    EPPR0   PSTATE,,AUTO
        73 000264   200030 450500                    STP0    ALPHAS+1,,AUTO
        73 000265   200030 630500                    EPPR0   ALPHAS+1,,AUTO
        73 000266   000005 631400 74                 EPPR1   5
        73 000267   000000 701000 xent               TSX1    DERIV_COST
        73 000270   000000 011000                    NOP     0

     1069      953    6                   IF TCOST < MINCOST THEN

    953 73 000271   200021 236100                    LDQ     TCOST,,AUTO
        73 000272   200020 116100                    CMPQ    MINCOST,,AUTO
        73 000273   000303 605000 73                 TPL     s:961

PL6.E3A0      #006=PRINT_PRED File=LR_LASET.:Z8A6TSI                             SAT 08/09/97 09:35 Page:195
     1070      954    7                     DO;

     1071      955    7                       LS = PSTATE;

    955 73 000274   200007 235100                    LDA     PSTATE,,AUTO
        73 000275   200022 755100                    STA     LS,,AUTO

     1072      956    7                       LE = PE;

    956 73 000276   200010 235100                    LDA     PE,,AUTO
        73 000277   200023 755100                    STA     LE,,AUTO

     1073      957    7                       LI = PI;

    957 73 000300   200011 235100                    LDA     PI,,AUTO
        73 000301   200024 755100                    STA     LI,,AUTO

     1074      958    7                       MINCOST = TCOST;

    958 73 000302   200020 756100                    STQ     MINCOST,,AUTO

     1075      959    7                     END;

     1076      960    6                 END;

     1077      961    5             END;

    961 73 000303   200011 054100                    AOS     PI,,AUTO
        73 000304   200007 720100                    LXL0    PSTATE,,AUTO
        73 000305   000000 470410 36                 LDP0    C#_TO_$,X0
        73 000306   200010 235100                    LDA     PE,,AUTO
        73 000307   000002 735000                    ALS     2
        73 000310   000004 471505                    LDP1    4,AL,PR0
        73 000311   100005 236100                    LDQ     5,,PR1
        73 000312   000022 736000                    QLS     18
        73 000313   000022 732000                    QRS     18
        73 000314   200011 116100                    CMPQ    PI,,AUTO
PL6.E3A0      #006=PRINT_PRED File=LR_LASET.:Z8A6TSI                             SAT 08/09/97 09:35 Page:196
        73 000315   000227 605400 73                 TPNZ    s:949

     1078      962    4         END;

    962 73 000316   200010 054100                    AOS     PE,,AUTO
        73 000317   200007 720100                    LXL0    PSTATE,,AUTO
        73 000320   000000 470410 36                 LDP0    C#_TO_$,X0
        73 000321   000001 236100                    LDQ     1,,PR0
        73 000322   777777 376007                    ANQ     -1,DL
        73 000323   200010 116100                    CMPQ    PE,,AUTO
        73 000324   000212 605400 73                 TPNZ    s:945

     1079      963    3       END;

    963 73 000325   200007 054100                    AOS     PSTATE,,AUTO
        73 000326   200007 236100                    LDQ     PSTATE,,AUTO
        73 000327   000000 116000 37                 CMPQ    NR_CONFIG
        73 000330   000210 604000 73                 TMI     s:944

     1080      964    2       IF MINCOST < INFINITE_COST THEN

    964 73 000331   200020 235100                    LDA     MINCOST,,AUTO
        73 000332   303237 115007                    CMPA    99999,DL
        73 000333   000350 605000 73                 TPL     END_PRED

     1081      965    2         CALL PRINT_PRED(LS, LE, LI, CLASHED_TERM);

    965 73 000334   200006 236100                    LDQ     @CLASHED_TERM,,AUTO
        73 000335   200033 756100                    STQ     ALPHAS+4,,AUTO
        73 000336   200024 630500                    EPPR0   LI,,AUTO
        73 000337   200032 450500                    STP0    ALPHAS+3,,AUTO
        73 000340   200023 631500                    EPPR1   LE,,AUTO
        73 000341   200031 451500                    STP1    ALPHAS+2,,AUTO
        73 000342   200022 633500                    EPPR3   LS,,AUTO
        73 000343   200030 453500                    STP3    ALPHAS+1,,AUTO
        73 000344   200030 630500                    EPPR0   ALPHAS+1,,AUTO
        73 000345   000007 631400 74                 EPPR1   7
PL6.E3A0      #006=PRINT_PRED File=LR_LASET.:Z8A6TSI                             SAT 08/09/97 09:35 Page:197
        73 000346   000000 701000 73                 TSX1    s:6
        73 000347   000000 011000                    NOP     0

     1082      966    2     END_PRED:
     1083      967            %OUT_STR (S="'          State '");

    968 73 000350   000011 630400 74    END_PRED     EPPR0   9
        73 000351   000002 631400 74                 EPPR1   2
        73 000352   000000 701000 xent               TSX1    OUT_STR
        73 000353   000000 011000                    NOP     0

     1084      970    2       CALL BINCHAR(ALPHAS, STATE);

    970 73 000354   200003 470500                    LDP0    @STATE,,AUTO
        73 000355   000100 301500                    BTD
        73 000356   000000 000004                    NDSC9   0,,PR0                   cn=0,s=lsgnf,sf=0,n=4
        73 000357   200027 030004                    NDSC9   ALPHAS,,AUTO             cn=0,s=nosgn,sf=0,n=4

     1085      971    2       CALL OUT_STR(ALPHAS, LENGTHC(ALPHAS));

    971 73 000360   000014 236000 74                 LDQ     12
        73 000361   200031 756100                    STQ     ALPHAS+2,,AUTO
        73 000362   200027 631500                    EPPR1   ALPHAS,,AUTO
        73 000363   200030 451500                    STP1    ALPHAS+1,,AUTO
        73 000364   200030 630500                    EPPR0   ALPHAS+1,,AUTO
        73 000365   000002 631400 74                 EPPR1   2
        73 000366   000000 701000 xent               TSX1    OUT_STR
        73 000367   000000 011000                    NOP     0

     1086      972            %OUT_STR(S="' '");

    973 73 000370   000017 630400 74                 EPPR0   15
        73 000371   000002 631400 74                 EPPR1   2
        73 000372   000000 701000 xent               TSX1    OUT_STR
        73 000373   000000 011000                    NOP     0

     1087      975    2       CALL PRINT_ITEM(STATE, E, I);
PL6.E3A0      #006=PRINT_PRED File=LR_LASET.:Z8A6TSI                             SAT 08/09/97 09:35 Page:198

    975 73 000374   200003 630500                    EPPR0   @STATE,,AUTO
        73 000375   000021 631400 74                 EPPR1   17
        73 000376   000000 701000 xent               TSX1    PRINT_ITEM
        73 000377   000000 011000                    NOP     0

     1088      976    2     END;

    976 73 000400   000750 710000 73                 TRA     s:1073

     1089      977    1   ELSE
     1090      978            /* Closure */
     1091      979    2     DO;

     1092      980    2       CALL ORDER_ITEMS(STATE);

    980 73 000401   200003 630500                    EPPR0   @STATE,,AUTO
        73 000402   000022 631400 74                 EPPR1   18
        73 000403   000000 701000 xent               TSX1    ORDER_ITEMS
        73 000404   000000 011000                    NOP     0

     1093      981
     1094      982    2       SOURCE = C#_TO_$(STATE) -> C_SET_B.ELEM.ITEM$(E) -> ITEM_B.ELEM.ITEM#(I);

    982 73 000405   200003 470500                    LDP0    @STATE,,AUTO
        73 000406   000000 720100                    LXL0    0,,PR0
        73 000407   000000 471410 36                 LDP1    C#_TO_$,X0
        73 000410   200004 473500                    LDP3    @E,,AUTO
        73 000411   300000 235100                    LDA     0,,PR3
        73 000412   000002 735000                    ALS     2
        73 000413   100006 474505                    LDP4    6,AL,PR1
        73 000414   200005 471500                    LDP1    @I,,AUTO
        73 000415   100000 720100                    LXL0    0,,PR1
        73 000416   400000 236110                    LDQ     0,X0,PR4
        73 000417   000022 732000                    QRS     18
        73 000420   200017 756100                    STQ     SOURCE,,AUTO

PL6.E3A0      #006=PRINT_PRED File=LR_LASET.:Z8A6TSI                             SAT 08/09/97 09:35 Page:199
     1095      983
     1096      984            /* Set edge costs to 1 */
     1097      985    3       DO PE = 0 TO C#_TO_$(STATE) -> C_SET_B.NR_ELEM - 1;

    985 73 000421   200010 450100                    STZ     PE,,AUTO
        73 000422   000474 710000 73                 TRA     s:992+1

     1098      986    4         DO PI = 0 TO C#_TO_$(STATE) -> C_SET_B.ELEM.KEY$(PE) ->

    986 73 000423   200011 450100                    STZ     PI,,AUTO
        73 000424   000460 710000 73                 TRA     s:991+1

     1099      987    4                     KEY_B.W.ELEM_COUNT - 1;
     1100      988    4           CALL DERIV_COST(STATE, PE, PI, CLASHED_TERM, 0, MINCOST);

    988 73 000425   200020 630500                    EPPR0   MINCOST,,AUTO
        73 000426   200035 450500                    STP0    ALPHAS+6,,AUTO
        73 000427   000006 236000 74                 LDQ     6
        73 000430   200034 756100                    STQ     ALPHAS+5,,AUTO
        73 000431   200006 236100                    LDQ     @CLASHED_TERM,,AUTO
        73 000432   200033 756100                    STQ     ALPHAS+4,,AUTO
        73 000433   200011 631500                    EPPR1   PI,,AUTO
        73 000434   200032 451500                    STP1    ALPHAS+3,,AUTO
        73 000435   200010 633500                    EPPR3   PE,,AUTO
        73 000436   200031 453500                    STP3    ALPHAS+2,,AUTO
        73 000437   200003 236100                    LDQ     @STATE,,AUTO
        73 000440   200030 756100                    STQ     ALPHAS+1,,AUTO
        73 000441   200030 630500                    EPPR0   ALPHAS+1,,AUTO
        73 000442   000005 631400 74                 EPPR1   5
        73 000443   000000 701000 xent               TSX1    DERIV_COST
        73 000444   000000 011000                    NOP     0

     1101      989    4           EDGECOST(C#_TO_$(STATE) -> C_SET_B.ELEM.ITEM$(PE) ->

    989 73 000445   200003 470500                    LDP0    @STATE,,AUTO
        73 000446   000000 720100                    LXL0    0,,PR0
        73 000447   000000 471410 36                 LDP1    C#_TO_$,X0
PL6.E3A0      #006=PRINT_PRED File=LR_LASET.:Z8A6TSI                             SAT 08/09/97 09:35 Page:200
        73 000450   200010 235100                    LDA     PE,,AUTO
        73 000451   000002 735000                    ALS     2
        73 000452   100006 473505                    LDP3    6,AL,PR1
        73 000453   200011 720100                    LXL0    PI,,AUTO
        73 000454   300000 221110                    LDX1    0,X0,PR3
        73 000455   200020 236100                    LDQ     MINCOST,,AUTO
        73 000456   000000 756011 63                 STQ     EDGECOST,X1

     1102      990    4                      ITEM_B.ELEM.ITEM#(PI)) = MINCOST;
     1103      991    4         END;

    991 73 000457   200011 054100                    AOS     PI,,AUTO
        73 000460   200003 470500                    LDP0    @STATE,,AUTO
        73 000461   000000 720100                    LXL0    0,,PR0
        73 000462   000000 471410 36                 LDP1    C#_TO_$,X0
        73 000463   200010 235100                    LDA     PE,,AUTO
        73 000464   000002 735000                    ALS     2
        73 000465   100004 473505                    LDP3    4,AL,PR1
        73 000466   300005 236100                    LDQ     5,,PR3
        73 000467   000022 736000                    QLS     18
        73 000470   000022 732000                    QRS     18
        73 000471   200011 116100                    CMPQ    PI,,AUTO
        73 000472   000425 605400 73                 TPNZ    s:988

     1104      992    3       END;

    992 73 000473   200010 054100                    AOS     PE,,AUTO
        73 000474   000000 720100                    LXL0    0,,PR0
        73 000475   000000 471410 36                 LDP1    C#_TO_$,X0
        73 000476   100001 236100                    LDQ     1,,PR1
        73 000477   777777 376007                    ANQ     -1,DL
        73 000500   200010 116100                    CMPQ    PE,,AUTO
        73 000501   000423 605400 73                 TPNZ    s:986

     1105      993
     1106      994    2       CALL FINDNEIGHBORS(STATE);

PL6.E3A0      #006=PRINT_PRED File=LR_LASET.:Z8A6TSI                             SAT 08/09/97 09:35 Page:201
    994 73 000502   200003 630500                    EPPR0   @STATE,,AUTO
        73 000503   000022 631400 74                 EPPR1   18
        73 000504   000000 701000 xent               TSX1    FINDNEIGHBORS
        73 000505   000000 011000                    NOP     0

     1107      995
     1108      996            /* Calculate least cost path from closure item
     1109      997                   to any basis item */
     1110      998
     1111      999    3       DO ITEM = 0 TO C#_TO_$(STATE) -> C_SET_B.ITEM_COUNT - 1;

    999 73 000506   200013 450100                    STZ     ITEM,,AUTO
        73 000507   000516 710000 73                 TRA     s:1005+1

     1112     1000
     1113     1001    3         CHOSEN(ITEM)         = FALSE;

   1001 73 000510   200013 720100                    LXL0    ITEM,,AUTO
        73 000511   000000 450010 68                 STZ     CHOSEN,X0

     1114     1002    3         PATH_INFO.DEST(ITEM) = 0;

   1002 73 000512   000000 450010 67                 STZ     PATH_INFO,X0

     1115     1003    3         PATH_INFO.COST(ITEM) = INFINITE_COST;

   1003 73 000513   303237 235007                    LDA     99999,DL
        73 000514   000621 755010 67                 STA     PATH_INFO+401,X0

     1116     1004
     1117     1005    3       END;

   1005 73 000515   200013 054100                    AOS     ITEM,,AUTO
        73 000516   200003 470500                    LDP0    @STATE,,AUTO
        73 000517   000000 720100                    LXL0    0,,PR0
        73 000520   000000 471410 36                 LDP1    C#_TO_$,X0
        73 000521   100003 236100                    LDQ     3,,PR1
PL6.E3A0      #006=PRINT_PRED File=LR_LASET.:Z8A6TSI                             SAT 08/09/97 09:35 Page:202
        73 000522   000022 732000                    QRS     18
        73 000523   200013 116100                    CMPQ    ITEM,,AUTO
        73 000524   000510 605400 73                 TPNZ    s:1001

     1118     1006
     1119     1007    2       NB = NEIGHBOR(SOURCE);

   1007 73 000525   200017 720100                    LXL0    SOURCE,,AUTO
        73 000526   000000 235010 66                 LDA     NEIGHBOR,X0
        73 000527   200014 755100                    STA     NB,,AUTO

     1120     1008
     1121     1009    3       DO N = 0 TO C#_TO_$(STATE) -> C_SET_B.ELEM.KEY$(NB) -> KEY_B.W.ELEM_COUNT - 1;

   1009 73 000530   200015 450100                    STZ     N,,AUTO
        73 000531   000552 710000 73                 TRA     s:1015+1

     1122     1010
     1123     1011    3         ITEM = C#_TO_$(STATE) -> C_SET_B.ELEM.ITEM$(NB) -> ITEM_B.ELEM.ITEM#(N);

   1011 73 000532   200003 470500                    LDP0    @STATE,,AUTO
        73 000533   000000 720100                    LXL0    0,,PR0
        73 000534   000000 471410 36                 LDP1    C#_TO_$,X0
        73 000535   200014 235100                    LDA     NB,,AUTO
        73 000536   000002 735000                    ALS     2
        73 000537   100006 473505                    LDP3    6,AL,PR1
        73 000540   200015 720100                    LXL0    N,,AUTO
        73 000541   300000 236110                    LDQ     0,X0,PR3
        73 000542   000022 732000                    QRS     18
        73 000543   200013 756100                    STQ     ITEM,,AUTO

     1124     1012    3         PATH_INFO.COST(ITEM) = EDGECOST(ITEM);

   1012 73 000544   200013 721100                    LXL1    ITEM,,AUTO
        73 000545   000000 235006 63                 LDA     EDGECOST,QL
        73 000546   000621 755011 67                 STA     PATH_INFO+401,X1

PL6.E3A0      #006=PRINT_PRED File=LR_LASET.:Z8A6TSI                             SAT 08/09/97 09:35 Page:203
     1125     1013    3         PATH_INFO.DEST(ITEM) = SOURCE;

   1013 73 000547   200017 236100                    LDQ     SOURCE,,AUTO
        73 000550   000000 756011 67                 STQ     PATH_INFO,X1

     1126     1014
     1127     1015    3       END;

   1015 73 000551   200015 054100                    AOS     N,,AUTO
        73 000552   000000 720100                    LXL0    0,,PR0
        73 000553   000000 471410 36                 LDP1    C#_TO_$,X0
        73 000554   200014 235100                    LDA     NB,,AUTO
        73 000555   000002 735000                    ALS     2
        73 000556   100004 473505                    LDP3    4,AL,PR1
        73 000557   300005 236100                    LDQ     5,,PR3
        73 000560   000022 736000                    QLS     18
        73 000561   000022 732000                    QRS     18
        73 000562   200015 116100                    CMPQ    N,,AUTO
        73 000563   000532 605400 73                 TPNZ    s:1011

     1128     1016
     1129     1017    3       DO UNTIL DONE;

     1130     1018
     1131     1019    3         DONE = TRUE;

   1019 73 000564   400000 236003                    LDQ     -131072,DU
        73 000565   200016 756100                    STQ     DONE,,AUTO

     1132     1020
     1133     1021    3         MINCOST = INFINITE_COST;

   1021 73 000566   303237 235007                    LDA     99999,DL
        73 000567   200020 755100                    STA     MINCOST,,AUTO

     1134     1022
     1135     1023    3         N = C#_TO_$(STATE) -> C_SET_B.ITEM_COUNT - 1;
PL6.E3A0      #006=PRINT_PRED File=LR_LASET.:Z8A6TSI                             SAT 08/09/97 09:35 Page:204

   1023 73 000570   200003 470500                    LDP0    @STATE,,AUTO
        73 000571   000000 720100                    LXL0    0,,PR0
        73 000572   000000 471410 36                 LDP1    C#_TO_$,X0
        73 000573   100003 236100                    LDQ     3,,PR1
        73 000574   000022 732000                    QRS     18
        73 000575   000001 136007                    SBLQ    1,DL
        73 000576   200015 756100                    STQ     N,,AUTO

     1136     1024
     1137     1025    4         DO ITEM = 0 TO N;

   1025 73 000577   200013 450100                    STZ     ITEM,,AUTO
        73 000600   000614 710000 73                 TRA     s:1035+1

     1138     1026
     1139     1027    4           IF NOT CHOSEN(ITEM) THEN

   1027 73 000601   200013 720100                    LXL0    ITEM,,AUTO
        73 000602   000000 234010 68                 SZN     CHOSEN,X0
        73 000603   000613 604000 73                 TMI     s:1035

     1140     1028    4             IF PATH_INFO.COST(ITEM) < MINCOST THEN

   1028 73 000604   000621 236010 67                 LDQ     PATH_INFO+401,X0
        73 000605   200020 116100                    CMPQ    MINCOST,,AUTO
        73 000606   000613 605000 73                 TPL     s:1035

     1141     1029    5               DO;

     1142     1030    5                 DONE    = FALSE;

   1030 73 000607   200016 450100                    STZ     DONE,,AUTO

     1143     1031    5                 CHOICE  = ITEM;

   1031 73 000610   200013 235100                    LDA     ITEM,,AUTO
PL6.E3A0      #006=PRINT_PRED File=LR_LASET.:Z8A6TSI                             SAT 08/09/97 09:35 Page:205
        73 000611   200025 755100                    STA     CHOICE,,AUTO

     1144     1032    5                 MINCOST = PATH_INFO.COST(ITEM);

   1032 73 000612   200020 756100                    STQ     MINCOST,,AUTO

     1145     1033    5               END;

     1146     1034
     1147     1035    4         END;

   1035 73 000613   200013 054100                    AOS     ITEM,,AUTO
        73 000614   200013 236100                    LDQ     ITEM,,AUTO
        73 000615   200015 116100                    CMPQ    N,,AUTO
        73 000616   000601 604400 73                 TMOZ    s:1027

     1148     1036
     1149     1037    3         IF NOT DONE THEN

   1037 73 000617   200016 234100                    SZN     DONE,,AUTO
        73 000620   000673 604000 73                 TMI     s:1055

     1150     1038    4           DO;

     1151     1039    4             CHOSEN (CHOICE) = TRUE;

   1039 73 000621   400000 236003                    LDQ     -131072,DU
        73 000622   200025 720100                    LXL0    CHOICE,,AUTO
        73 000623   000000 756010 68                 STQ     CHOSEN,X0

     1152     1040    4             NB = NEIGHBOR(CHOICE);

   1040 73 000624   000000 235010 66                 LDA     NEIGHBOR,X0
        73 000625   200014 755100                    STA     NB,,AUTO

     1153     1041    4             IF NB >= 0 THEN

PL6.E3A0      #006=PRINT_PRED File=LR_LASET.:Z8A6TSI                             SAT 08/09/97 09:35 Page:206
   1041 73 000626   000673 604000 73                 TMI     s:1055

     1154     1042    5               DO N = 0 TO C#_TO_$(STATE) -> C_SET_B.ELEM.KEY$(NB) -> KEY_B.W.
              1042                        ELEM_COUNT - 1;

   1042 73 000627   200015 450100                    STZ     N,,AUTO
        73 000630   000660 710000 73                 TRA     s:1053+1

     1155     1043
     1156     1044    5                 TITEM = C#_TO_$(STATE) -> C_SET_B.ELEM.ITEM$(NB) ->

   1044 73 000631   200003 470500                    LDP0    @STATE,,AUTO
        73 000632   000000 720100                    LXL0    0,,PR0
        73 000633   000000 471410 36                 LDP1    C#_TO_$,X0
        73 000634   200014 235100                    LDA     NB,,AUTO
        73 000635   000002 735000                    ALS     2
        73 000636   100006 473505                    LDP3    6,AL,PR1
        73 000637   200015 720100                    LXL0    N,,AUTO
        73 000640   300000 236110                    LDQ     0,X0,PR3
        73 000641   000022 732000                    QRS     18
        73 000642   200026 756100                    STQ     TITEM,,AUTO

     1157     1045    5                              ITEM_B.ELEM.ITEM#(N);
     1158     1046
     1159     1047    5                 IF PATH_INFO.COST(CHOICE) + EDGECOST(TITEM) < PATH_INFO.COST(TITEM)
              1047                          THEN

   1047 73 000643   000000 621006                    EAX1    0,QL
        73 000644   200025 722100                    LXL2    CHOICE,,AUTO
        73 000645   000621 236012 67                 LDQ     PATH_INFO+401,X2
        73 000646   000000 036011 63                 ADLQ    EDGECOST,X1
        73 000647   200026 721100                    LXL1    TITEM,,AUTO
        73 000650   000621 116011 67                 CMPQ    PATH_INFO+401,X1
        73 000651   000657 605000 73                 TPL     s:1053

     1160     1048    6                   DO;

PL6.E3A0      #006=PRINT_PRED File=LR_LASET.:Z8A6TSI                             SAT 08/09/97 09:35 Page:207
     1161     1049    6                     PATH_INFO.COST(TITEM) = PATH_INFO.COST(CHOICE) + EDGECOST(TITEM);

   1049 73 000652   000621 236012 67                 LDQ     PATH_INFO+401,X2
        73 000653   000000 036011 63                 ADLQ    EDGECOST,X1
        73 000654   000621 756011 67                 STQ     PATH_INFO+401,X1

     1162     1050    6                     PATH_INFO.DEST(TITEM) = CHOICE;

   1050 73 000655   200025 235100                    LDA     CHOICE,,AUTO
        73 000656   000000 755011 67                 STA     PATH_INFO,X1

     1163     1051    6                   END;

     1164     1052
     1165     1053    5               END;

   1053 73 000657   200015 054100                    AOS     N,,AUTO
        73 000660   200003 470500                    LDP0    @STATE,,AUTO
        73 000661   000000 720100                    LXL0    0,,PR0
        73 000662   000000 471410 36                 LDP1    C#_TO_$,X0
        73 000663   200014 235100                    LDA     NB,,AUTO
        73 000664   000002 735000                    ALS     2
        73 000665   100004 473505                    LDP3    4,AL,PR1
        73 000666   300005 236100                    LDQ     5,,PR3
        73 000667   000022 736000                    QLS     18
        73 000670   000022 732000                    QRS     18
        73 000671   200015 116100                    CMPQ    N,,AUTO
        73 000672   000631 605400 73                 TPNZ    s:1044

     1166     1054    4           END;

     1167     1055    3       END;  /* DO UNTIL */

   1055 73 000673   200016 234100                    SZN     DONE,,AUTO
        73 000674   000564 605000 73                 TPL     s:1019

     1168     1056
PL6.E3A0      #006=PRINT_PRED File=LR_LASET.:Z8A6TSI                             SAT 08/09/97 09:35 Page:208
     1169     1057    2     MINCOST = INFINITE_COST;

   1057 73 000675   303237 235007                    LDA     99999,DL
        73 000676   200020 755100                    STA     MINCOST,,AUTO

     1170     1058    3     DO TITEM = 0 TO C#_TO_$(STATE) -> C_SET_B.BASIS_COUNT - 1;

   1058 73 000677   200026 450100                    STZ     TITEM,,AUTO
        73 000700   000711 710000 73                 TRA     s:1064+1

     1171     1059    3       IF PATH_INFO.COST(TITEM) < MINCOST THEN

   1059 73 000701   200026 720100                    LXL0    TITEM,,AUTO
        73 000702   000621 236010 67                 LDQ     PATH_INFO+401,X0
        73 000703   200020 116100                    CMPQ    MINCOST,,AUTO
        73 000704   000710 605000 73                 TPL     s:1064

     1172     1060    4         DO;

     1173     1061    4           ITEM = TITEM;

   1061 73 000705   200026 235100                    LDA     TITEM,,AUTO
        73 000706   200013 755100                    STA     ITEM,,AUTO

     1174     1062    4           MINCOST = PATH_INFO.COST(TITEM);

   1062 73 000707   200020 756100                    STQ     MINCOST,,AUTO

     1175     1063    4         END;

     1176     1064    3     END;

   1064 73 000710   200026 054100                    AOS     TITEM,,AUTO
        73 000711   200003 470500                    LDP0    @STATE,,AUTO
        73 000712   000000 720100                    LXL0    0,,PR0
        73 000713   000000 471410 36                 LDP1    C#_TO_$,X0
        73 000714   100002 236100                    LDQ     2,,PR1
PL6.E3A0      #006=PRINT_PRED File=LR_LASET.:Z8A6TSI                             SAT 08/09/97 09:35 Page:209
        73 000715   000022 736000                    QLS     18
        73 000716   000022 732000                    QRS     18
        73 000717   200026 116100                    CMPQ    TITEM,,AUTO
        73 000720   000701 605400 73                 TPNZ    s:1059

     1177     1065
     1178     1066    2       CALL EXPAND_DERIV(STATE, ITEM,

   1066 73 000721   000000 720100                    LXL0    0,,PR0
        73 000722   000000 471410 36                 LDP1    C#_TO_$,X0
        73 000723   200004 473500                    LDP3    @E,,AUTO
        73 000724   300000 235100                    LDA     0,,PR3
        73 000725   000002 735000                    ALS     2
        73 000726   100006 474505                    LDP4    6,AL,PR1
        73 000727   200005 471500                    LDP1    @I,,AUTO
        73 000730   100000 720100                    LXL0    0,,PR1
        73 000731   400000 236110                    LDQ     0,X0,PR4
        73 000732   000022 732000                    QRS     18
        73 000733   200030 756100                    STQ     ALPHAS+1,,AUTO
        73 000734   200006 236100                    LDQ     @CLASHED_TERM,,AUTO
        73 000735   200035 756100                    STQ     ALPHAS+6,,AUTO
        73 000736   200030 634500                    EPPR4   ALPHAS+1,,AUTO
        73 000737   200034 454500                    STP4    ALPHAS+5,,AUTO
        73 000740   200013 635500                    EPPR5   ITEM,,AUTO
        73 000741   200033 455500                    STP5    ALPHAS+4,,AUTO
        73 000742   200003 236100                    LDQ     @STATE,,AUTO
        73 000743   200032 756100                    STQ     ALPHAS+3,,AUTO
        73 000744   200032 630500                    EPPR0   ALPHAS+3,,AUTO
        73 000745   000007 631400 74                 EPPR1   7
        73 000746   000000 701000 xent               TSX1    EXPAND_DERIV
        73 000747   000000 011000                    NOP     0

     1179     1067    2                        BINBIT(C#_TO_$(STATE) -> C_SET_B.ELEM.ITEM$(E) ->
     1180     1068    2                                  ITEM_B.ELEM.ITEM#(I), 36),
     1181     1069    2                         CLASHED_TERM);
     1182     1070    2     END;

PL6.E3A0      #006=PRINT_PRED File=LR_LASET.:Z8A6TSI                             SAT 08/09/97 09:35 Page:210
     1183     1071
     1184     1072
     1185     1073    1   END PRINT_PRED;

   1073 73 000750   000000 702200 xent               TSX2  ! X66_ARET
     1186     1074        %EOD;

PL6.E3A0      #006=PRINT_PRED File=LR_LASET.:Z8A6TSI                             SAT 08/09/97 09:35 Page:211
--  Include file information  --

   LR_ERR_EXT.:Z8A6TOU  cannot be made into a system file and is referenced.
   LR_CNFG_EXT.:Z8A6TOU  cannot be made into a system file and is referenced.
   LR_IO_EXT.:Z8A6TOU  cannot be made into a system file and is referenced.
   LR_GRAM_EXT.:Z8A6TOU  cannot be made into a system file and is referenced.
      No diagnostics issued in procedure PRINT_PRED.
PL6.E3A0      #006=PRINT_PRED File=LR_LASET.:Z8A6TSI                             SAT 08/09/97 09:35 Page:212

 **** Variables and constants ****

  ****  Section 000 LblCom OUT_DCBN

  ****  Scalars and arrays  ****
OctLoc.c.b A Datatyp(siz) R M Lvl/name                 OctLoc.c.b A Datatyp(siz) R M Lvl/name

     0-0-0/w SBIN              1 OUT_DCBN

  ****  Section 006 LblCom SYM_PTRS

  ****  Scalars and arrays  ****
OctLoc.c.b A Datatyp(siz) R M Lvl/name                 OctLoc.c.b A Datatyp(siz) R M Lvl/name

     0-0-0/w PTR               1 SYM_PTRS(0:1400)

  ****  Section 007 LblCom RIGHT_PARTS

  ****  Scalars and arrays  ****
OctLoc.c.b A Datatyp(siz) R M Lvl/name                 OctLoc.c.b A Datatyp(siz) R M Lvl/name

     0-0-0/h SBIN(18)          1 RIGHT_PARTS(0:8000)

  ****  Section 008 LblCom PROD

  ****  Scalars and arrays  ****
OctLoc.c.b A Datatyp(siz) R M Lvl/name                 OctLoc.c.b A Datatyp(siz) R M Lvl/name

     0-0-0/h STRC(72)          1 PROD(0:1500)

  ****  Section 009 LblCom NR_PROD

  ****  Scalars and arrays  ****
OctLoc.c.b A Datatyp(siz) R M Lvl/name                 OctLoc.c.b A Datatyp(siz) R M Lvl/name

     0-0-0/w SBIN              1 NR_PROD

PL6.E3A0      #006=PRINT_PRED File=LR_LASET.:Z8A6TSI                             SAT 08/09/97 09:35 Page:213
  ****  Section 010 LblCom NR_SYMS

  ****  Scalars and arrays  ****
OctLoc.c.b A Datatyp(siz) R M Lvl/name                 OctLoc.c.b A Datatyp(siz) R M Lvl/name

     0-0-0/w SBIN              1 NR_SYMS

  ****  Section 011 LblCom NR_TERM

  ****  Scalars and arrays  ****
OctLoc.c.b A Datatyp(siz) R M Lvl/name                 OctLoc.c.b A Datatyp(siz) R M Lvl/name

     0-0-0/w SBIN        r     1 NR_TERM

  ****  Section 012 LblCom LAST_ACT

  ****  Scalars and arrays  ****
OctLoc.c.b A Datatyp(siz) R M Lvl/name                 OctLoc.c.b A Datatyp(siz) R M Lvl/name

     0-0-0/w SBIN              1 LAST_ACT

  ****  Section 013 LblCom LAST_NULL

  ****  Scalars and arrays  ****
OctLoc.c.b A Datatyp(siz) R M Lvl/name                 OctLoc.c.b A Datatyp(siz) R M Lvl/name

     0-0-0/w SBIN              1 LAST_NULL

  ****  Section 014 LblCom NR_ONRIGHT

  ****  Scalars and arrays  ****
OctLoc.c.b A Datatyp(siz) R M Lvl/name                 OctLoc.c.b A Datatyp(siz) R M Lvl/name

     0-0-0/w SBIN              1 NR_ONRIGHT

  ****  Section 015 LblCom NR_NT

PL6.E3A0      #006=PRINT_PRED File=LR_LASET.:Z8A6TSI                             SAT 08/09/97 09:35 Page:214
  ****  Scalars and arrays  ****
OctLoc.c.b A Datatyp(siz) R M Lvl/name                 OctLoc.c.b A Datatyp(siz) R M Lvl/name

     0-0-0/w SBIN              1 NR_NT

  ****  Section 016 LblCom PROD_LEN_MAX_EVER

  ****  Scalars and arrays  ****
OctLoc.c.b A Datatyp(siz) R M Lvl/name                 OctLoc.c.b A Datatyp(siz) R M Lvl/name

     0-0-0/w SBIN              1 PROD_LEN_MAX_EVER

  ****  Section 017 LblCom LAST_ORDER_SPECIFIED

  ****  Scalars and arrays  ****
OctLoc.c.b A Datatyp(siz) R M Lvl/name                 OctLoc.c.b A Datatyp(siz) R M Lvl/name

     0-0-0/w SBIN              1 LAST_ORDER_SPECIFIED

  ****  Section 018 LblCom SEMANTIC_ORDERING

  ****  Scalars and arrays  ****
OctLoc.c.b A Datatyp(siz) R M Lvl/name                 OctLoc.c.b A Datatyp(siz) R M Lvl/name

     0-0-0/b BIT               1 SEMANTIC_ORDERING

  ****  Section 019 LblCom ERR_SEV

  ****  Scalars and arrays  ****
OctLoc.c.b A Datatyp(siz) R M Lvl/name                 OctLoc.c.b A Datatyp(siz) R M Lvl/name

     0-0-0/w SBIN              1 ERR_SEV

  ****  Section 020 LblCom SET_LENGTHB

  ****  Scalars and arrays  ****
OctLoc.c.b A Datatyp(siz) R M Lvl/name                 OctLoc.c.b A Datatyp(siz) R M Lvl/name
PL6.E3A0      #006=PRINT_PRED File=LR_LASET.:Z8A6TSI                             SAT 08/09/97 09:35 Page:215

     0-0-0/w SBIN              1 SET_LENGTHB

  ****  Section 021 LblCom SET_LENGTHW

  ****  Scalars and arrays  ****
OctLoc.c.b A Datatyp(siz) R M Lvl/name                 OctLoc.c.b A Datatyp(siz) R M Lvl/name

     0-0-0/w SBIN              1 SET_LENGTHW

  ****  Section 022 LblCom EOF_SYMBOL_PTR

  ****  Scalars and arrays  ****
OctLoc.c.b A Datatyp(siz) R M Lvl/name                 OctLoc.c.b A Datatyp(siz) R M Lvl/name

     0-0-0/w PTR               1 EOF_SYMBOL_PTR

  ****  Section 023 LblCom ERROR_SYMBOL_PTR

  ****  Scalars and arrays  ****
OctLoc.c.b A Datatyp(siz) R M Lvl/name                 OctLoc.c.b A Datatyp(siz) R M Lvl/name

     0-0-0/w PTR               1 ERROR_SYMBOL_PTR

  ****  Section 024 LblCom BOF_SYMBOL_PTR

  ****  Scalars and arrays  ****
OctLoc.c.b A Datatyp(siz) R M Lvl/name                 OctLoc.c.b A Datatyp(siz) R M Lvl/name

     0-0-0/w PTR               1 BOF_SYMBOL_PTR

  ****  Section 025 LblCom OPTIONS

  ****  Scalars and arrays  ****
OctLoc.c.b A Datatyp(siz) R M Lvl/name                 OctLoc.c.b A Datatyp(siz) R M Lvl/name

     0-0-0/b BIT               1 OPTIONS(0:25)
PL6.E3A0      #006=PRINT_PRED File=LR_LASET.:Z8A6TSI                             SAT 08/09/97 09:35 Page:216

  ****  Section 026 LblCom OPTIONS_TEXT

  ****  Scalars and arrays  ****
OctLoc.c.b A Datatyp(siz) R M Lvl/name                 OctLoc.c.b A Datatyp(siz) R M Lvl/name

     0-0-0/c CHAR(4)           1 OPTIONS_TEXT(0:25)

  ****  Section 027 LblCom INSTR

  ****  Scalars and arrays  ****
OctLoc.c.b A Datatyp(siz) R M Lvl/name                 OctLoc.c.b A Datatyp(siz) R M Lvl/name

     0-0-0/c CHAR              1 INSTR(0:511)               0-0-0/c CHAR(512)         1 INSTRCHR

  ****  Section 028 LblCom INSTR_LISTED

  ****  Scalars and arrays  ****
OctLoc.c.b A Datatyp(siz) R M Lvl/name                 OctLoc.c.b A Datatyp(siz) R M Lvl/name

     0-0-0/b BIT               1 INSTR_LISTED

  ****  Section 029 LblCom INSTR_LEN

  ****  Scalars and arrays  ****
OctLoc.c.b A Datatyp(siz) R M Lvl/name                 OctLoc.c.b A Datatyp(siz) R M Lvl/name

     0-0-0/w SBIN              1 INSTR_LEN

  ****  Section 030 LblCom INSTR_INDX

  ****  Scalars and arrays  ****
OctLoc.c.b A Datatyp(siz) R M Lvl/name                 OctLoc.c.b A Datatyp(siz) R M Lvl/name

     0-0-0/w SBIN              1 INSTR_INDX

  ****  Section 031 LblCom EOF_FLAG
PL6.E3A0      #006=PRINT_PRED File=LR_LASET.:Z8A6TSI                             SAT 08/09/97 09:35 Page:217

  ****  Scalars and arrays  ****
OctLoc.c.b A Datatyp(siz) R M Lvl/name                 OctLoc.c.b A Datatyp(siz) R M Lvl/name

     0-0-0/b BIT               1 EOF_FLAG

  ****  Section 032 LblCom KEY_REC

  ****  Scalars and arrays  ****
OctLoc.c.b A Datatyp(siz) R M Lvl/name                 OctLoc.c.b A Datatyp(siz) R M Lvl/name

     0-0-0/c CHAR(10)          1 KEY_REC

  ****  Section 033 LblCom LINE

  ****  Scalars and arrays  ****
OctLoc.c.b A Datatyp(siz) R M Lvl/name                 OctLoc.c.b A Datatyp(siz) R M Lvl/name

     0-0-0/c CHAR(109)         1 LINE

  ****  Section 034 LblCom LINELEN

  ****  Scalars and arrays  ****
OctLoc.c.b A Datatyp(siz) R M Lvl/name                 OctLoc.c.b A Datatyp(siz) R M Lvl/name

     0-0-0/w SBIN              1 LINELEN

  ****  Section 035 LblCom TSTATS

  ****  Scalars and arrays  ****
OctLoc.c.b A Datatyp(siz) R M Lvl/name                 OctLoc.c.b A Datatyp(siz) R M Lvl/name

     0-0-0/w STRC(7380)        1 TSTATS

  ****  Section 036 LblCom C#_TO_$

  ****  Scalars and arrays  ****
PL6.E3A0      #006=PRINT_PRED File=LR_LASET.:Z8A6TSI                             SAT 08/09/97 09:35 Page:218
OctLoc.c.b A Datatyp(siz) R M Lvl/name                 OctLoc.c.b A Datatyp(siz) R M Lvl/name

     0-0-0/w PTR         r     1 C#_TO_$(0:2200)

  ****  Section 037 LblCom NR_CONFIG

  ****  Scalars and arrays  ****
OctLoc.c.b A Datatyp(siz) R M Lvl/name                 OctLoc.c.b A Datatyp(siz) R M Lvl/name

     0-0-0/w SBIN        r     1 NR_CONFIG

  ****  Section 038 LblCom INIT_CONFIG

  ****  Scalars and arrays  ****
OctLoc.c.b A Datatyp(siz) R M Lvl/name                 OctLoc.c.b A Datatyp(siz) R M Lvl/name

     0-0-0/w SBIN              1 INIT_CONFIG

  ****  Section 039 LblCom MAX_BASIS_ITEMS

  ****  Scalars and arrays  ****
OctLoc.c.b A Datatyp(siz) R M Lvl/name                 OctLoc.c.b A Datatyp(siz) R M Lvl/name

     0-0-0/w SBIN              1 MAX_BASIS_ITEMS

  ****  Section 040 LblCom MAX_TOTAL_ITEMS

  ****  Scalars and arrays  ****
OctLoc.c.b A Datatyp(siz) R M Lvl/name                 OctLoc.c.b A Datatyp(siz) R M Lvl/name

     0-0-0/w SBIN              1 MAX_TOTAL_ITEMS

  ****  Section 041 LblCom LAST_BINSRCH_ONLY

  ****  Scalars and arrays  ****
OctLoc.c.b A Datatyp(siz) R M Lvl/name                 OctLoc.c.b A Datatyp(siz) R M Lvl/name

PL6.E3A0      #006=PRINT_PRED File=LR_LASET.:Z8A6TSI                             SAT 08/09/97 09:35 Page:219
     0-0-0/w SBIN              1 LAST_BINSRCH_ONLY

  ****  Section 042 LblCom LAST_BOTH_BITBIN

  ****  Scalars and arrays  ****
OctLoc.c.b A Datatyp(siz) R M Lvl/name                 OctLoc.c.b A Datatyp(siz) R M Lvl/name

     0-0-0/w SBIN              1 LAST_BOTH_BITBIN

  ****  Section 043 LblCom GARBAGE

  ****  Scalars and arrays  ****
OctLoc.c.b A Datatyp(siz) R M Lvl/name                 OctLoc.c.b A Datatyp(siz) R M Lvl/name

     0-0-0/w PTR               1 GARBAGE(0:100)

  ****  Section 044 LblCom AMT_GARBAGE

  ****  Scalars and arrays  ****
OctLoc.c.b A Datatyp(siz) R M Lvl/name                 OctLoc.c.b A Datatyp(siz) R M Lvl/name

     0-0-0/w SBIN              1 AMT_GARBAGE

  ****  Section 045 LblCom LEAST_COST_STRING

  ****  Scalars and arrays  ****
OctLoc.c.b A Datatyp(siz) R M Lvl/name                 OctLoc.c.b A Datatyp(siz) R M Lvl/name

     0-0-0/w PTR               1 LEAST_COST_STRING(0:1400)

  ****  Section 046 LblCom LEAST_COST_PREFIX

  ****  Scalars and arrays  ****
OctLoc.c.b A Datatyp(siz) R M Lvl/name                 OctLoc.c.b A Datatyp(siz) R M Lvl/name

     0-0-0/w PTR               1 LEAST_COST_PREFIX(0:1400)

PL6.E3A0      #006=PRINT_PRED File=LR_LASET.:Z8A6TSI                             SAT 08/09/97 09:35 Page:220
  ****  Section 047 LblCom CURRE

  ****  Scalars and arrays  ****
OctLoc.c.b A Datatyp(siz) R M Lvl/name                 OctLoc.c.b A Datatyp(siz) R M Lvl/name

     0-0-0/d STRC(126)         1 CURRE(0:1400)

  ****  Section 048 LblCom LCP_INDX

  ****  Scalars and arrays  ****
OctLoc.c.b A Datatyp(siz) R M Lvl/name                 OctLoc.c.b A Datatyp(siz) R M Lvl/name

     0-0-0/h SBIN(18)          1 LCP_INDX(0:1400)

  ****  Section 049 LblCom COM_STRSP_LEN

  ****  Scalars and arrays  ****
OctLoc.c.b A Datatyp(siz) R M Lvl/name                 OctLoc.c.b A Datatyp(siz) R M Lvl/name

     0-0-0/w SBIN        r     1 COM_STRSP_LEN

  ****  Section 050 LblCom COM_SEARCH_STRING

  ****  Scalars and arrays  ****
OctLoc.c.b A Datatyp(siz) R M Lvl/name                 OctLoc.c.b A Datatyp(siz) R M Lvl/name

     0-0-0/w PTR         r     1 COM_SEARCH_STRING

  ****  Section 051 LblCom COM_SEARCH_STRING_LEN

  ****  Scalars and arrays  ****
OctLoc.c.b A Datatyp(siz) R M Lvl/name                 OctLoc.c.b A Datatyp(siz) R M Lvl/name

     0-0-0/w SBIN        r     1 COM_SEARCH_STRING_LEN

  ****  Section 052 LblCom COM_STRING_SPACE_LEN

PL6.E3A0      #006=PRINT_PRED File=LR_LASET.:Z8A6TSI                             SAT 08/09/97 09:35 Page:221
  ****  Scalars and arrays  ****
OctLoc.c.b A Datatyp(siz) R M Lvl/name                 OctLoc.c.b A Datatyp(siz) R M Lvl/name

     0-0-0/w SBIN        r     1 COM_STRING_SPACE_LEN

  ****  Section 053 LblCom COM_STRING_SPACE_H

  ****  Scalars and arrays  ****
OctLoc.c.b A Datatyp(siz) R M Lvl/name                 OctLoc.c.b A Datatyp(siz) R M Lvl/name

     0-0-0/h SBIN(18)    r     1 COM_STRING_SPACE_H(0:24999)

  ****  Section 054 LblCom COM_STRING_SPACE$

  ****  Scalars and arrays  ****
OctLoc.c.b A Datatyp(siz) R M Lvl/name                 OctLoc.c.b A Datatyp(siz) R M Lvl/name

     0-0-0/w PTR         r     1 COM_STRING_SPACE$

  ****  Section 055 LblCom COM_STRING_PTR

  ****  Scalars and arrays  ****
OctLoc.c.b A Datatyp(siz) R M Lvl/name                 OctLoc.c.b A Datatyp(siz) R M Lvl/name

     0-0-0/w PTR         r     1 COM_STRING_PTR

  ****  Section 056 LblCom COM_STRING_INDX

  ****  Scalars and arrays  ****
OctLoc.c.b A Datatyp(siz) R M Lvl/name                 OctLoc.c.b A Datatyp(siz) R M Lvl/name

     0-0-0/w SBIN              1 COM_STRING_INDX

  ****  Section 057 LblCom LCP_TABLE_LEN

  ****  Scalars and arrays  ****
OctLoc.c.b A Datatyp(siz) R M Lvl/name                 OctLoc.c.b A Datatyp(siz) R M Lvl/name
PL6.E3A0      #006=PRINT_PRED File=LR_LASET.:Z8A6TSI                             SAT 08/09/97 09:35 Page:222

     0-0-0/w SBIN              1 LCP_TABLE_LEN

  ****  Section 058 LblCom STATE_ITEM_INDEX

  ****  Scalars and arrays  ****
OctLoc.c.b A Datatyp(siz) R M Lvl/name                 OctLoc.c.b A Datatyp(siz) R M Lvl/name

     0-0-0/h STRC              1 STATE_ITEM_INDEX(0:2200)

  ****  Section 059 LblCom PATH

  ****  Scalars and arrays  ****
OctLoc.c.b A Datatyp(siz) R M Lvl/name                 OctLoc.c.b A Datatyp(siz) R M Lvl/name

     0-0-0/h STRC        r     1 PATH(0:17600)

  ****  Section 060 LblCom PATH_STRINGS_LEN

  ****  Scalars and arrays  ****
OctLoc.c.b A Datatyp(siz) R M Lvl/name                 OctLoc.c.b A Datatyp(siz) R M Lvl/name

     0-0-0/w SBIN        r     1 PATH_STRINGS_LEN

  ****  Section 061 LblCom PATH_ADDR$

  ****  Scalars and arrays  ****
OctLoc.c.b A Datatyp(siz) R M Lvl/name                 OctLoc.c.b A Datatyp(siz) R M Lvl/name

     0-0-0/w PTR         r     1 PATH_ADDR$

  ****  Section 062 LblCom PATH_TABLE_LEN

  ****  Scalars and arrays  ****
OctLoc.c.b A Datatyp(siz) R M Lvl/name                 OctLoc.c.b A Datatyp(siz) R M Lvl/name

     0-0-0/w SBIN              1 PATH_TABLE_LEN
PL6.E3A0      #006=PRINT_PRED File=LR_LASET.:Z8A6TSI                             SAT 08/09/97 09:35 Page:223

  ****  Section 063 LblCom EDGECOST

  ****  Scalars and arrays  ****
OctLoc.c.b A Datatyp(siz) R M Lvl/name                 OctLoc.c.b A Datatyp(siz) R M Lvl/name

     0-0-0/w SBIN        r     1 EDGECOST(0:400)

  ****  Section 064 LblCom ITEM_TABLE_LEN

  ****  Scalars and arrays  ****
OctLoc.c.b A Datatyp(siz) R M Lvl/name                 OctLoc.c.b A Datatyp(siz) R M Lvl/name

     0-0-0/w SBIN              1 ITEM_TABLE_LEN

  ****  Section 065 LblCom ORDERED_ITEM

  ****  Scalars and arrays  ****
OctLoc.c.b A Datatyp(siz) R M Lvl/name                 OctLoc.c.b A Datatyp(siz) R M Lvl/name

     0-0-0/h STRC              1 ORDERED_ITEM(0:400)

  ****  Section 066 LblCom NEIGHBOR

  ****  Scalars and arrays  ****
OctLoc.c.b A Datatyp(siz) R M Lvl/name                 OctLoc.c.b A Datatyp(siz) R M Lvl/name

     0-0-0/w SBIN        r     1 NEIGHBOR(0:400)

  ****  Section 067 LblCom PATH_INFO

  ****  Scalars and arrays  ****
OctLoc.c.b A Datatyp(siz) R M Lvl/name                 OctLoc.c.b A Datatyp(siz) R M Lvl/name

     0-0-0/w STRC(28872) r     1 PATH_INFO

  ****  Section 068 LblCom CHOSEN
PL6.E3A0      #006=PRINT_PRED File=LR_LASET.:Z8A6TSI                             SAT 08/09/97 09:35 Page:224

  ****  Scalars and arrays  ****
OctLoc.c.b A Datatyp(siz) R M Lvl/name                 OctLoc.c.b A Datatyp(siz) R M Lvl/name

     0-0-0/w BIT         r     1 CHOSEN(0:400)

  ****  Section 069 LblCom REACHED

  ****  Scalars and arrays  ****
OctLoc.c.b A Datatyp(siz) R M Lvl/name                 OctLoc.c.b A Datatyp(siz) R M Lvl/name

     0-0-0/b BIT               1 REACHED(0:400)

  ****  Section 070 LblCom EXP_PATH_INDX

  ****  Scalars and arrays  ****
OctLoc.c.b A Datatyp(siz) R M Lvl/name                 OctLoc.c.b A Datatyp(siz) R M Lvl/name

     0-0-0/w SBIN              1 EXP_PATH_INDX

  ****  Section 071 LblCom MARKED_ITEM$

  ****  Scalars and arrays  ****
OctLoc.c.b A Datatyp(siz) R M Lvl/name                 OctLoc.c.b A Datatyp(siz) R M Lvl/name

     0-0-0/w PTR         r     1 MARKED_ITEM$

  ****  Auto variables  ****

  ****  Scalars and arrays  ****
OctLoc.c.b A Datatyp(siz) R M Lvl/name                 OctLoc.c.b A Datatyp(siz) R M Lvl/name

     6-0-0/w PTR         r     1 @CLASHED_TERM              4-0-0/w PTR         r     1 @E
     5-0-0/w PTR         r     1 @I                         3-0-0/w PTR         r     1 @STATE
    27-0-0/c CHAR(4)     r     1 ALPHAS                    25-0-0/w SBIN        r     1 CHOICE
    *0-0-0/w SBIN        r     1 CLASHED_TERM              16-0-0/b BIT         r     1 DONE
    *0-0-0/w SBIN        r     1 E                         *0-0-0/w SBIN        r     1 I
PL6.E3A0      #006=PRINT_PRED File=LR_LASET.:Z8A6TSI                             SAT 08/09/97 09:35 Page:225
    13-0-0/w SBIN        r     1 ITEM                      23-0-0/w SBIN        r     1 LE
    24-0-0/w SBIN        r     1 LI                        22-0-0/w SBIN        r     1 LS
    20-0-0/w SBIN        r     1 MINCOST                   15-0-0/w SBIN        r     1 N
    14-0-0/w SBIN        r     1 NB                        10-0-0/w SBIN        r     1 PE
    11-0-0/w SBIN        r     1 PI                         7-0-0/w SBIN        r     1 PSTATE
    17-0-0/w SBIN        r     1 SOURCE                    *0-0-0/w SBIN        r     1 STATE
    21-0-0/w SBIN        r     1 TCOST                     26-0-0/w SBIN        r     1 TITEM
    12-0-0/w PTR         r     1 TPTR

  ****  BASED and DCB variables  ****

  ****  Scalars and arrays  ****
OctLoc.c.b A Datatyp(siz) R M Lvl/name                 OctLoc.c.b A Datatyp(siz) R M Lvl/name

     0-0-0/w STRC(72)          1 CELL                       0-0-0/c ACHR              1 COM_STRINGS
     0-0-0/c ACHR              1 COM_STRING_SPACE           0-0-0/c ACHR              1 CSEARCH_STRING
     0-0-0/w STRC(57888) r     1 C_SET_B                    0-0-0/w STRC(72)          1 INCLUDES_B
     0-0-0/w STRC(144)   r     1 INCL_B                     0-0-0/w STRC(5436)  r     1 ITEM_B
     0-0-0/w STRC(5652)  r     1 KEY_B                      0-0-0N  NULL        r     1 M$LO
     0-0-0N  NULL        r     1 M$OU                       0-0-0N  NULL        r     1 M$SI
     0-0-0N  NULL        r     1 M$SO                       0-0-0N  NULL        r     1 M$UI
     0-0-0/w STRC(108)   r     1 MARKED_ITEM                0-0-0/c ACHR              1 PATH_STRINGS
     0-0-0/w STRC(90)          1 PREFIX                     0-0-0/w ASTR(72)    r     1 PREFIXCHR
     0-0-0/w STRC(2)     r     1 SB                         0-0-0/w STRC              1 STRING
     0-0-0/w ASTR(18)    r     1 STRINGCHR                  0-0-0/w STRC(351)         1 SYMBOL


   Procedure PRINT_PRED requires 489 words for executable code.
   Procedure PRINT_PRED requires 30 words of local(AUTO) storage.

PL6.E3A0      #007=EXPAND_DERIV File=LR_LASET.:Z8A6TSI                           SAT 08/09/97 09:36 Page:226
     1187        1        /*T***********************************************************/
     1188        2        /*T*                                                         */
     1189        3        /*T* Copyright (c) Bull HN Information Systems Inc., 1997    */
     1190        4        /*T*                                                         */
     1191        5        /*T***********************************************************/
     1192        6        EXPAND_DERIV : PROC (STATE, DEST, SOURCE, CLASHED_TERM);
     1193        7
     1194        8    1   DCL STATE SBIN WORD;
     1195        9    1   DCL DEST SBIN WORD;
     1196       10    1   DCL SOURCE SBIN WORD;
     1197       11    1   DCL CLASHED_TERM SBIN WORD;
     1198       12
     1199       13        %INCLUDE LR_GRAM_EXT;
     1200      552        %INCLUDE LR_CNFG_EXT;
     1201      705        %INCLUDE LR_ERR_EXT;
     1202      848
     1203      849    1   DCL PRINT_PRED ENTRY(4);
     1204      850    1   DCL PRINT_ITEM ENTRY(3);
     1205      851
     1206      852    1   DCL SE SBIN WORD;
     1207      853    1   DCL SI SBIN WORD;
     1208      854
     1209      855    1   DCL ITEM SBIN WORD;
     1210      856    1   DCL ALPHAS CHAR(4);
     1211      857
     1212      858
     1213      859    1   SE = ORDERED_ITEM.E(SOURCE);
     1214      860    1   SI = ORDERED_ITEM.I(SOURCE);
     1215      861
     1216      862    1   IF PATH_INFO.DEST(DEST) = SOURCE THEN
     1217      863    1     CALL PRINT_PRED (STATE,
     1218      864    1                      BINBIT(ORDERED_ITEM.E(DEST), 36),
     1219      865    1                      BINBIT(ORDERED_ITEM.I(DEST), 36),
     1220      866    1                      CLASHED_TERM);
     1221      867    1   ELSE
     1222      868    2     DO;
     1223      869    2       ITEM = DEST;
PL6.E3A0      #007=EXPAND_DERIV File=LR_LASET.:Z8A6TSI                           SAT 08/09/97 09:36 Page:227
     1224      870    3       DO WHILE PATH_INFO.DEST(ITEM) ~= SOURCE;
     1225      871    3         ITEM = PATH_INFO.DEST(ITEM);
     1226      872    3       END;
     1227      873    2       CALL EXPAND_DERIV (STATE, DEST, ITEM, CLASHED_TERM);
     1228      874    2     END;
     1229      875          %OUT_STR(S="'          State '");
     1230      878    1     CALL BINCHAR(ALPHAS, STATE);
     1231      879    1     CALL OUT_STR(ALPHAS,LENGTHC(ALPHAS));
     1232      880          %OUT_STR(S="' '");
     1233      883    1     CALL PRINT_ITEM(STATE, SE, SI);
     1234      884
     1235      885    1   END EXPAND_DERIV;
     1236      886        %EOD;

PL6.E3A0      #007=EXPAND_DERIV File=LR_LASET.:Z8A6TSI                           SAT 08/09/97 09:36 Page:228
--  Include file information  --

   LR_ERR_EXT.:Z8A6TOU  cannot be made into a system file and is referenced.
   LR_CNFG_EXT.:Z8A6TOU  cannot be made into a system file and is referenced.
   LR_IO_EXT.:Z8A6TOU  cannot be made into a system file and is referenced.
   LR_GRAM_EXT.:Z8A6TOU  cannot be made into a system file and is referenced.
      No diagnostics issued in procedure EXPAND_DERIV.

   Procedure EXPAND_DERIV requires 97 words for executable code.
   Procedure EXPAND_DERIV requires 24 words of local(AUTO) storage.

PL6.E3A0      #007=EXPAND_DERIV File=LR_LASET.:Z8A6TSI                           SAT 08/09/97 09:36 Page:229

 Object Unit name= EXPAND_DERIV                               File name= LR_LASET.:Z8A6TOU
 UTS= AUG 09 '97 09:36:02.12 SAT                              Compiler= PL-6/E31         Sev=      00
 SharedLib= :SHARED_SYSTEM                                    Alt SharedLib=


    ****  Control sections  ****

 Sect   Type Bound  Init  Size OctSiz  Section name(segment info)
    0  LblCom even  none     1      1  OUT_DCBN
    1   DCB   even  none     0      0  M$OU
    2   DCB   even  none     0      0  M$SO
    3   DCB   even  none     0      0  M$LO
    4   DCB   even  none     0      0  M$SI
    5   DCB   even  none     0      0  M$UI
    6  LblCom even  none  1401   2571  SYM_PTRS
    7  LblCom even  none  4001   7641  RIGHT_PARTS
    8  LblCom even  none  3002   5672  PROD
    9  LblCom even  none     1      1  NR_PROD
   10  LblCom even  none     1      1  NR_SYMS
   11  LblCom even  none     1      1  NR_TERM
   12  LblCom even  none     1      1  LAST_ACT
   13  LblCom even  none     1      1  LAST_NULL
   14  LblCom even  none     1      1  NR_ONRIGHT
   15  LblCom even  none     1      1  NR_NT
   16  LblCom even  none     1      1  PROD_LEN_MAX_EVER
   17  LblCom even  none     1      1  LAST_ORDER_SPECIFIED
   18  LblCom even  none     1      1  SEMANTIC_ORDERING
   19  LblCom even  none     1      1  ERR_SEV
   20  LblCom even  none     1      1  SET_LENGTHB
   21  LblCom even  none     1      1  SET_LENGTHW
   22  LblCom even  none     1      1  EOF_SYMBOL_PTR
   23  LblCom even  none     1      1  ERROR_SYMBOL_PTR
   24  LblCom even  none     1      1  BOF_SYMBOL_PTR
   25  LblCom even  none     1      1  OPTIONS
   26  LblCom even  none    26     32  OPTIONS_TEXT
   27  LblCom even  none   128    200  INSTR
   28  LblCom even  none     1      1  INSTR_LISTED
PL6.E3A0      #007=EXPAND_DERIV File=LR_LASET.:Z8A6TSI                           SAT 08/09/97 09:36 Page:230
   29  LblCom even  none     1      1  INSTR_LEN
   30  LblCom even  none     1      1  INSTR_INDX
   31  LblCom even  none     1      1  EOF_FLAG
   32  LblCom even  none     3      3  KEY_REC
   33  LblCom even  none    28     34  LINE
   34  LblCom even  none     1      1  LINELEN
   35  LblCom even  none   205    315  TSTATS
   36  LblCom even  none  2201   4231  C#_TO_$
   37  LblCom even  none     1      1  NR_CONFIG
   38  LblCom even  none     1      1  INIT_CONFIG
   39  LblCom even  none     1      1  MAX_BASIS_ITEMS
   40  LblCom even  none     1      1  MAX_TOTAL_ITEMS
   41  LblCom even  none     1      1  LAST_BINSRCH_ONLY
   42  LblCom even  none     1      1  LAST_BOTH_BITBIN
   43  LblCom even  none   101    145  GARBAGE
   44  LblCom even  none     1      1  AMT_GARBAGE
   45  LblCom even  none  1401   2571  LEAST_COST_STRING
   46  LblCom even  none  1401   2571  LEAST_COST_PREFIX
   47  LblCom even  none  5604  12744  CURRE
   48  LblCom even  none   701   1275  LCP_INDX
   49  LblCom even  none     1      1  COM_STRSP_LEN
   50  LblCom even  none     1      1  COM_SEARCH_STRING
   51  LblCom even  none     1      1  COM_SEARCH_STRING_LEN
   52  LblCom even  none     1      1  COM_STRING_SPACE_LEN
   53  LblCom even  none 12500  30324  COM_STRING_SPACE_H
   54  LblCom even  none     1      1  COM_STRING_SPACE$
   55  LblCom even  none     1      1  COM_STRING_PTR
   56  LblCom even  none     1      1  COM_STRING_INDX
   57  LblCom even  none     1      1  LCP_TABLE_LEN
   58  LblCom even  none  2201   4231  STATE_ITEM_INDEX
   59  LblCom even  none 17601  42301  PATH
   60  LblCom even  none     1      1  PATH_STRINGS_LEN
   61  LblCom even  none     1      1  PATH_ADDR$
   62  LblCom even  none     1      1  PATH_TABLE_LEN
   63  LblCom even  none   401    621  EDGECOST
   64  LblCom even  none     1      1  ITEM_TABLE_LEN
   65  LblCom even  none   401    621  ORDERED_ITEM
PL6.E3A0      #007=EXPAND_DERIV File=LR_LASET.:Z8A6TSI                           SAT 08/09/97 09:36 Page:231
   66  LblCom even  none   401    621  NEIGHBOR
   67  LblCom even  none   802   1442  PATH_INFO
   68  LblCom even  none   401    621  CHOSEN
   69  LblCom even  none    12     14  REACHED
   70  LblCom even  none     1      1  EXP_PATH_INDX
   71  RoData even  UTS      4      4  EXPAND_DERIV
   72   Proc  even  none    97    141  EXPAND_DERIV
   73  RoData even  none    12     14  EXPAND_DERIV

    ****  Entry defs  ****

                              Check   Calling
                             calling  sequence
  Sect OctLoc Primary Altret sequence   type   Parms  Name
    72      0   yes            yes      Std        4  EXPAND_DERIV

  ****  Entry refs  ****

         Check        Calling
        calling       sequence
Altret sequence SRef   type   Args  Name
         yes           Std       4 PRINT_PRED
         yes           Std       3 PRINT_ITEM
         yes           Std       2 OUT_STR
                       nStd      0 X66_AUTO_4
                       nStd      0 X66_ARET

  ****  Data refs  ****

  Flags:  r = read only, s = secondary
Flgs Name                             Flgs Name                             Flgs Name
     M$OU                                  M$SO                                  M$LO
     M$SI                                  M$UI
PL6.E3A0      #007=EXPAND_DERIV File=LR_LASET.:Z8A6TSI                           SAT 08/09/97 09:36 Page:232

  ****  Segment refs  ****

  Flags:  r = read only, s = secondary
Flgs Name                             Flgs Name                             Flgs Name
     NULLSID                               ISSID
PL6.E3A0      #007=EXPAND_DERIV File=LR_LASET.:Z8A6TSI                           SAT 08/09/97 09:36 Page:233


     1187        1        /*T***********************************************************/
     1188        2        /*T*                                                         */
     1189        3        /*T* Copyright (c) Bull HN Information Systems Inc., 1997    */
     1190        4        /*T*                                                         */
     1191        5        /*T***********************************************************/
     1192        6        EXPAND_DERIV : PROC (STATE, DEST, SOURCE, CLASHED_TERM);

      6 72 000000   000000 700200 xent  EXPAND_DERIV TSX0  ! X66_AUTO_4
        72 000001   000030 000004                    ZERO    24,4

     1193        7
     1194        8    1   DCL STATE SBIN WORD;
     1195        9    1   DCL DEST SBIN WORD;
     1196       10    1   DCL SOURCE SBIN WORD;
     1197       11    1   DCL CLASHED_TERM SBIN WORD;
     1198       12
     1199       13        %INCLUDE LR_GRAM_EXT;
     1200      552        %INCLUDE LR_CNFG_EXT;
     1201      705        %INCLUDE LR_ERR_EXT;
     1202      848
     1203      849    1   DCL PRINT_PRED ENTRY(4);
     1204      850    1   DCL PRINT_ITEM ENTRY(3);
     1205      851
     1206      852    1   DCL SE SBIN WORD;
     1207      853    1   DCL SI SBIN WORD;
     1208      854
     1209      855    1   DCL ITEM SBIN WORD;
     1210      856    1   DCL ALPHAS CHAR(4);
     1211      857
     1212      858
     1213      859    1   SE = ORDERED_ITEM.E(SOURCE);

    859 72 000002   200005 470500                    LDP0    @SOURCE,,AUTO
        72 000003   000000 720100                    LXL0    0,,PR0
        72 000004   000000 236010 65                 LDQ     ORDERED_ITEM,X0
        72 000005   000022 732000                    QRS     18
PL6.E3A0      #007=EXPAND_DERIV File=LR_LASET.:Z8A6TSI                           SAT 08/09/97 09:36 Page:234
        72 000006   200007 756100                    STQ     SE,,AUTO

     1214      860    1   SI = ORDERED_ITEM.I(SOURCE);

    860 72 000007   000000 235100                    LDA     0,,PR0
        72 000010   000000 236005 65                 LDQ     ORDERED_ITEM,AL
        72 000011   000022 736000                    QLS     18
        72 000012   000022 732000                    QRS     18
        72 000013   200010 756100                    STQ     SI,,AUTO

     1215      861
     1216      862    1   IF PATH_INFO.DEST(DEST) = SOURCE THEN

    862 72 000014   200004 471500                    LDP1    @DEST,,AUTO
        72 000015   100000 720100                    LXL0    0,,PR1
        72 000016   000000 236010 67                 LDQ     PATH_INFO,X0
        72 000017   000000 116100                    CMPQ    0,,PR0
        72 000020   000053 601000 72                 TNZ     s:869

     1217      863    1     CALL PRINT_PRED (STATE,

    863 72 000021   100000 720100                    LXL0    0,,PR1
        72 000022   000000 236010 65                 LDQ     ORDERED_ITEM,X0
        72 000023   000022 732000                    QRS     18
        72 000024   100000 235100                    LDA     0,,PR1
        72 000025   200014 756100                    STQ     ALPHAS+2,,AUTO
        72 000026   000000 236005 65                 LDQ     ORDERED_ITEM,AL
        72 000027   000022 736000                    QLS     18
        72 000030   000022 732000                    QRS     18
        72 000031   200020 756100                    STQ     ALPHAS+6,,AUTO
        72 000032   200014 236100                    LDQ     ALPHAS+2,,AUTO
        72 000033   200016 756100                    STQ     ALPHAS+4,,AUTO
        72 000034   200020 236100                    LDQ     ALPHAS+6,,AUTO
        72 000035   200022 756100                    STQ     ALPHAS+8,,AUTO
        72 000036   200006 236100                    LDQ     @CLASHED_TERM,,AUTO
        72 000037   200027 756100                    STQ     ALPHAS+13,,AUTO
        72 000040   200022 633500                    EPPR3   ALPHAS+8,,AUTO
PL6.E3A0      #007=EXPAND_DERIV File=LR_LASET.:Z8A6TSI                           SAT 08/09/97 09:36 Page:235
        72 000041   200026 453500                    STP3    ALPHAS+12,,AUTO
        72 000042   200016 634500                    EPPR4   ALPHAS+4,,AUTO
        72 000043   200025 454500                    STP4    ALPHAS+11,,AUTO
        72 000044   200003 236100                    LDQ     @STATE,,AUTO
        72 000045   200024 756100                    STQ     ALPHAS+10,,AUTO
        72 000046   200024 630500                    EPPR0   ALPHAS+10,,AUTO
        72 000047   000000 631400 73                 EPPR1   0
        72 000050   000000 701000 xent               TSX1    PRINT_PRED
        72 000051   000000 011000                    NOP     0
        72 000052   000102 710000 72                 TRA     s:876

     1218      864    1                      BINBIT(ORDERED_ITEM.E(DEST), 36),
     1219      865    1                      BINBIT(ORDERED_ITEM.I(DEST), 36),
     1220      866    1                      CLASHED_TERM);
     1221      867    1   ELSE
     1222      868    2     DO;

     1223      869    2       ITEM = DEST;

    869 72 000053   100000 235100                    LDA     0,,PR1
        72 000054   200011 755100                    STA     ITEM,,AUTO

     1224      870    3       DO WHILE PATH_INFO.DEST(ITEM) ~= SOURCE;

    870 72 000055   000000 236005 67                 LDQ     PATH_INFO,AL
        72 000056   000000 116100                    CMPQ    0,,PR0
        72 000057   000067 600000 72                 TZE     s:873

     1225      871    3         ITEM = PATH_INFO.DEST(ITEM);

    871 72 000060   200011 720100                    LXL0    ITEM,,AUTO
        72 000061   000000 235010 67                 LDA     PATH_INFO,X0
        72 000062   200011 755100                    STA     ITEM,,AUTO

     1226      872    3       END;

    872 72 000063   200005 470500                    LDP0    @SOURCE,,AUTO
PL6.E3A0      #007=EXPAND_DERIV File=LR_LASET.:Z8A6TSI                           SAT 08/09/97 09:36 Page:236
        72 000064   000000 236005 67                 LDQ     PATH_INFO,AL
        72 000065   000000 116100                    CMPQ    0,,PR0
        72 000066   000060 601000 72                 TNZ     s:871

     1227      873    2       CALL EXPAND_DERIV (STATE, DEST, ITEM, CLASHED_TERM);

    873 72 000067   200006 236100                    LDQ     @CLASHED_TERM,,AUTO
        72 000070   200017 756100                    STQ     ALPHAS+5,,AUTO
        72 000071   200011 631500                    EPPR1   ITEM,,AUTO
        72 000072   200016 451500                    STP1    ALPHAS+4,,AUTO
        72 000073   200004 236100                    LDQ     @DEST,,AUTO
        72 000074   200003 235100                    LDA     @STATE,,AUTO
        72 000075   200014 757100                    STAQ    ALPHAS+2,,AUTO
        72 000076   200014 630500                    EPPR0   ALPHAS+2,,AUTO
        72 000077   000000 631400 73                 EPPR1   0
        72 000100   000000 701000 72                 TSX1    s:6
        72 000101   000000 011000                    NOP     0

     1228      874    2     END;

     1229      875          %OUT_STR(S="'          State '");

    876 72 000102   000003 630400 73                 EPPR0   3
        72 000103   000001 631400 73                 EPPR1   1
        72 000104   000000 701000 xent               TSX1    OUT_STR
        72 000105   000000 011000                    NOP     0

     1230      878    1     CALL BINCHAR(ALPHAS, STATE);

    878 72 000106   200003 470500                    LDP0    @STATE,,AUTO
        72 000107   000100 301500                    BTD
        72 000110   000000 000004                    NDSC9   0,,PR0                   cn=0,s=lsgnf,sf=0,n=4
        72 000111   200012 030004                    NDSC9   ALPHAS,,AUTO             cn=0,s=nosgn,sf=0,n=4

     1231      879    1     CALL OUT_STR(ALPHAS,LENGTHC(ALPHAS));

    879 72 000112   000006 236000 73                 LDQ     6
PL6.E3A0      #007=EXPAND_DERIV File=LR_LASET.:Z8A6TSI                           SAT 08/09/97 09:36 Page:237
        72 000113   200015 756100                    STQ     ALPHAS+3,,AUTO
        72 000114   200012 631500                    EPPR1   ALPHAS,,AUTO
        72 000115   200014 451500                    STP1    ALPHAS+2,,AUTO
        72 000116   200014 630500                    EPPR0   ALPHAS+2,,AUTO
        72 000117   000001 631400 73                 EPPR1   1
        72 000120   000000 701000 xent               TSX1    OUT_STR
        72 000121   000000 011000                    NOP     0

     1232      880          %OUT_STR(S="' '");

    881 72 000122   000011 630400 73                 EPPR0   9
        72 000123   000001 631400 73                 EPPR1   1
        72 000124   000000 701000 xent               TSX1    OUT_STR
        72 000125   000000 011000                    NOP     0

     1233      883    1     CALL PRINT_ITEM(STATE, SE, SI);

    883 72 000126   200010 630500                    EPPR0   SI,,AUTO
        72 000127   200016 450500                    STP0    ALPHAS+4,,AUTO
        72 000130   200007 631500                    EPPR1   SE,,AUTO
        72 000131   200015 451500                    STP1    ALPHAS+3,,AUTO
        72 000132   200003 236100                    LDQ     @STATE,,AUTO
        72 000133   200014 756100                    STQ     ALPHAS+2,,AUTO
        72 000134   200014 630500                    EPPR0   ALPHAS+2,,AUTO
        72 000135   000013 631400 73                 EPPR1   11
        72 000136   000000 701000 xent               TSX1    PRINT_ITEM
        72 000137   000000 011000                    NOP     0

     1234      884
     1235      885    1   END EXPAND_DERIV;

    885 72 000140   000000 702200 xent               TSX2  ! X66_ARET
     1236      886        %EOD;

PL6.E3A0      #007=EXPAND_DERIV File=LR_LASET.:Z8A6TSI                           SAT 08/09/97 09:36 Page:238
--  Include file information  --

   LR_ERR_EXT.:Z8A6TOU  cannot be made into a system file and is referenced.
   LR_CNFG_EXT.:Z8A6TOU  cannot be made into a system file and is referenced.
   LR_IO_EXT.:Z8A6TOU  cannot be made into a system file and is referenced.
   LR_GRAM_EXT.:Z8A6TOU  cannot be made into a system file and is referenced.
      No diagnostics issued in procedure EXPAND_DERIV.
PL6.E3A0      #007=EXPAND_DERIV File=LR_LASET.:Z8A6TSI                           SAT 08/09/97 09:36 Page:239

 **** Variables and constants ****

  ****  Section 000 LblCom OUT_DCBN

  ****  Scalars and arrays  ****
OctLoc.c.b A Datatyp(siz) R M Lvl/name                 OctLoc.c.b A Datatyp(siz) R M Lvl/name

     0-0-0/w SBIN              1 OUT_DCBN

  ****  Section 006 LblCom SYM_PTRS

  ****  Scalars and arrays  ****
OctLoc.c.b A Datatyp(siz) R M Lvl/name                 OctLoc.c.b A Datatyp(siz) R M Lvl/name

     0-0-0/w PTR               1 SYM_PTRS(0:1400)

  ****  Section 007 LblCom RIGHT_PARTS

  ****  Scalars and arrays  ****
OctLoc.c.b A Datatyp(siz) R M Lvl/name                 OctLoc.c.b A Datatyp(siz) R M Lvl/name

     0-0-0/h SBIN(18)          1 RIGHT_PARTS(0:8000)

  ****  Section 008 LblCom PROD

  ****  Scalars and arrays  ****
OctLoc.c.b A Datatyp(siz) R M Lvl/name                 OctLoc.c.b A Datatyp(siz) R M Lvl/name

     0-0-0/h STRC(72)          1 PROD(0:1500)

  ****  Section 009 LblCom NR_PROD

  ****  Scalars and arrays  ****
OctLoc.c.b A Datatyp(siz) R M Lvl/name                 OctLoc.c.b A Datatyp(siz) R M Lvl/name

     0-0-0/w SBIN              1 NR_PROD

PL6.E3A0      #007=EXPAND_DERIV File=LR_LASET.:Z8A6TSI                           SAT 08/09/97 09:36 Page:240
  ****  Section 010 LblCom NR_SYMS

  ****  Scalars and arrays  ****
OctLoc.c.b A Datatyp(siz) R M Lvl/name                 OctLoc.c.b A Datatyp(siz) R M Lvl/name

     0-0-0/w SBIN              1 NR_SYMS

  ****  Section 011 LblCom NR_TERM

  ****  Scalars and arrays  ****
OctLoc.c.b A Datatyp(siz) R M Lvl/name                 OctLoc.c.b A Datatyp(siz) R M Lvl/name

     0-0-0/w SBIN              1 NR_TERM

  ****  Section 012 LblCom LAST_ACT

  ****  Scalars and arrays  ****
OctLoc.c.b A Datatyp(siz) R M Lvl/name                 OctLoc.c.b A Datatyp(siz) R M Lvl/name

     0-0-0/w SBIN              1 LAST_ACT

  ****  Section 013 LblCom LAST_NULL

  ****  Scalars and arrays  ****
OctLoc.c.b A Datatyp(siz) R M Lvl/name                 OctLoc.c.b A Datatyp(siz) R M Lvl/name

     0-0-0/w SBIN              1 LAST_NULL

  ****  Section 014 LblCom NR_ONRIGHT

  ****  Scalars and arrays  ****
OctLoc.c.b A Datatyp(siz) R M Lvl/name                 OctLoc.c.b A Datatyp(siz) R M Lvl/name

     0-0-0/w SBIN              1 NR_ONRIGHT

  ****  Section 015 LblCom NR_NT

PL6.E3A0      #007=EXPAND_DERIV File=LR_LASET.:Z8A6TSI                           SAT 08/09/97 09:36 Page:241
  ****  Scalars and arrays  ****
OctLoc.c.b A Datatyp(siz) R M Lvl/name                 OctLoc.c.b A Datatyp(siz) R M Lvl/name

     0-0-0/w SBIN              1 NR_NT

  ****  Section 016 LblCom PROD_LEN_MAX_EVER

  ****  Scalars and arrays  ****
OctLoc.c.b A Datatyp(siz) R M Lvl/name                 OctLoc.c.b A Datatyp(siz) R M Lvl/name

     0-0-0/w SBIN              1 PROD_LEN_MAX_EVER

  ****  Section 017 LblCom LAST_ORDER_SPECIFIED

  ****  Scalars and arrays  ****
OctLoc.c.b A Datatyp(siz) R M Lvl/name                 OctLoc.c.b A Datatyp(siz) R M Lvl/name

     0-0-0/w SBIN              1 LAST_ORDER_SPECIFIED

  ****  Section 018 LblCom SEMANTIC_ORDERING

  ****  Scalars and arrays  ****
OctLoc.c.b A Datatyp(siz) R M Lvl/name                 OctLoc.c.b A Datatyp(siz) R M Lvl/name

     0-0-0/b BIT               1 SEMANTIC_ORDERING

  ****  Section 019 LblCom ERR_SEV

  ****  Scalars and arrays  ****
OctLoc.c.b A Datatyp(siz) R M Lvl/name                 OctLoc.c.b A Datatyp(siz) R M Lvl/name

     0-0-0/w SBIN              1 ERR_SEV

  ****  Section 020 LblCom SET_LENGTHB

  ****  Scalars and arrays  ****
OctLoc.c.b A Datatyp(siz) R M Lvl/name                 OctLoc.c.b A Datatyp(siz) R M Lvl/name
PL6.E3A0      #007=EXPAND_DERIV File=LR_LASET.:Z8A6TSI                           SAT 08/09/97 09:36 Page:242

     0-0-0/w SBIN              1 SET_LENGTHB

  ****  Section 021 LblCom SET_LENGTHW

  ****  Scalars and arrays  ****
OctLoc.c.b A Datatyp(siz) R M Lvl/name                 OctLoc.c.b A Datatyp(siz) R M Lvl/name

     0-0-0/w SBIN              1 SET_LENGTHW

  ****  Section 022 LblCom EOF_SYMBOL_PTR

  ****  Scalars and arrays  ****
OctLoc.c.b A Datatyp(siz) R M Lvl/name                 OctLoc.c.b A Datatyp(siz) R M Lvl/name

     0-0-0/w PTR               1 EOF_SYMBOL_PTR

  ****  Section 023 LblCom ERROR_SYMBOL_PTR

  ****  Scalars and arrays  ****
OctLoc.c.b A Datatyp(siz) R M Lvl/name                 OctLoc.c.b A Datatyp(siz) R M Lvl/name

     0-0-0/w PTR               1 ERROR_SYMBOL_PTR

  ****  Section 024 LblCom BOF_SYMBOL_PTR

  ****  Scalars and arrays  ****
OctLoc.c.b A Datatyp(siz) R M Lvl/name                 OctLoc.c.b A Datatyp(siz) R M Lvl/name

     0-0-0/w PTR               1 BOF_SYMBOL_PTR

  ****  Section 025 LblCom OPTIONS

  ****  Scalars and arrays  ****
OctLoc.c.b A Datatyp(siz) R M Lvl/name                 OctLoc.c.b A Datatyp(siz) R M Lvl/name

     0-0-0/b BIT               1 OPTIONS(0:25)
PL6.E3A0      #007=EXPAND_DERIV File=LR_LASET.:Z8A6TSI                           SAT 08/09/97 09:36 Page:243

  ****  Section 026 LblCom OPTIONS_TEXT

  ****  Scalars and arrays  ****
OctLoc.c.b A Datatyp(siz) R M Lvl/name                 OctLoc.c.b A Datatyp(siz) R M Lvl/name

     0-0-0/c CHAR(4)           1 OPTIONS_TEXT(0:25)

  ****  Section 027 LblCom INSTR

  ****  Scalars and arrays  ****
OctLoc.c.b A Datatyp(siz) R M Lvl/name                 OctLoc.c.b A Datatyp(siz) R M Lvl/name

     0-0-0/c CHAR              1 INSTR(0:511)               0-0-0/c CHAR(512)         1 INSTRCHR

  ****  Section 028 LblCom INSTR_LISTED

  ****  Scalars and arrays  ****
OctLoc.c.b A Datatyp(siz) R M Lvl/name                 OctLoc.c.b A Datatyp(siz) R M Lvl/name

     0-0-0/b BIT               1 INSTR_LISTED

  ****  Section 029 LblCom INSTR_LEN

  ****  Scalars and arrays  ****
OctLoc.c.b A Datatyp(siz) R M Lvl/name                 OctLoc.c.b A Datatyp(siz) R M Lvl/name

     0-0-0/w SBIN              1 INSTR_LEN

  ****  Section 030 LblCom INSTR_INDX

  ****  Scalars and arrays  ****
OctLoc.c.b A Datatyp(siz) R M Lvl/name                 OctLoc.c.b A Datatyp(siz) R M Lvl/name

     0-0-0/w SBIN              1 INSTR_INDX

  ****  Section 031 LblCom EOF_FLAG
PL6.E3A0      #007=EXPAND_DERIV File=LR_LASET.:Z8A6TSI                           SAT 08/09/97 09:36 Page:244

  ****  Scalars and arrays  ****
OctLoc.c.b A Datatyp(siz) R M Lvl/name                 OctLoc.c.b A Datatyp(siz) R M Lvl/name

     0-0-0/b BIT               1 EOF_FLAG

  ****  Section 032 LblCom KEY_REC

  ****  Scalars and arrays  ****
OctLoc.c.b A Datatyp(siz) R M Lvl/name                 OctLoc.c.b A Datatyp(siz) R M Lvl/name

     0-0-0/c CHAR(10)          1 KEY_REC

  ****  Section 033 LblCom LINE

  ****  Scalars and arrays  ****
OctLoc.c.b A Datatyp(siz) R M Lvl/name                 OctLoc.c.b A Datatyp(siz) R M Lvl/name

     0-0-0/c CHAR(109)         1 LINE

  ****  Section 034 LblCom LINELEN

  ****  Scalars and arrays  ****
OctLoc.c.b A Datatyp(siz) R M Lvl/name                 OctLoc.c.b A Datatyp(siz) R M Lvl/name

     0-0-0/w SBIN              1 LINELEN

  ****  Section 035 LblCom TSTATS

  ****  Scalars and arrays  ****
OctLoc.c.b A Datatyp(siz) R M Lvl/name                 OctLoc.c.b A Datatyp(siz) R M Lvl/name

     0-0-0/w STRC(7380)        1 TSTATS

  ****  Section 036 LblCom C#_TO_$

  ****  Scalars and arrays  ****
PL6.E3A0      #007=EXPAND_DERIV File=LR_LASET.:Z8A6TSI                           SAT 08/09/97 09:36 Page:245
OctLoc.c.b A Datatyp(siz) R M Lvl/name                 OctLoc.c.b A Datatyp(siz) R M Lvl/name

     0-0-0/w PTR               1 C#_TO_$(0:2200)

  ****  Section 037 LblCom NR_CONFIG

  ****  Scalars and arrays  ****
OctLoc.c.b A Datatyp(siz) R M Lvl/name                 OctLoc.c.b A Datatyp(siz) R M Lvl/name

     0-0-0/w SBIN              1 NR_CONFIG

  ****  Section 038 LblCom INIT_CONFIG

  ****  Scalars and arrays  ****
OctLoc.c.b A Datatyp(siz) R M Lvl/name                 OctLoc.c.b A Datatyp(siz) R M Lvl/name

     0-0-0/w SBIN              1 INIT_CONFIG

  ****  Section 039 LblCom MAX_BASIS_ITEMS

  ****  Scalars and arrays  ****
OctLoc.c.b A Datatyp(siz) R M Lvl/name                 OctLoc.c.b A Datatyp(siz) R M Lvl/name

     0-0-0/w SBIN              1 MAX_BASIS_ITEMS

  ****  Section 040 LblCom MAX_TOTAL_ITEMS

  ****  Scalars and arrays  ****
OctLoc.c.b A Datatyp(siz) R M Lvl/name                 OctLoc.c.b A Datatyp(siz) R M Lvl/name

     0-0-0/w SBIN              1 MAX_TOTAL_ITEMS

  ****  Section 041 LblCom LAST_BINSRCH_ONLY

  ****  Scalars and arrays  ****
OctLoc.c.b A Datatyp(siz) R M Lvl/name                 OctLoc.c.b A Datatyp(siz) R M Lvl/name

PL6.E3A0      #007=EXPAND_DERIV File=LR_LASET.:Z8A6TSI                           SAT 08/09/97 09:36 Page:246
     0-0-0/w SBIN              1 LAST_BINSRCH_ONLY

  ****  Section 042 LblCom LAST_BOTH_BITBIN

  ****  Scalars and arrays  ****
OctLoc.c.b A Datatyp(siz) R M Lvl/name                 OctLoc.c.b A Datatyp(siz) R M Lvl/name

     0-0-0/w SBIN              1 LAST_BOTH_BITBIN

  ****  Section 043 LblCom GARBAGE

  ****  Scalars and arrays  ****
OctLoc.c.b A Datatyp(siz) R M Lvl/name                 OctLoc.c.b A Datatyp(siz) R M Lvl/name

     0-0-0/w PTR               1 GARBAGE(0:100)

  ****  Section 044 LblCom AMT_GARBAGE

  ****  Scalars and arrays  ****
OctLoc.c.b A Datatyp(siz) R M Lvl/name                 OctLoc.c.b A Datatyp(siz) R M Lvl/name

     0-0-0/w SBIN              1 AMT_GARBAGE

  ****  Section 045 LblCom LEAST_COST_STRING

  ****  Scalars and arrays  ****
OctLoc.c.b A Datatyp(siz) R M Lvl/name                 OctLoc.c.b A Datatyp(siz) R M Lvl/name

     0-0-0/w PTR               1 LEAST_COST_STRING(0:1400)

  ****  Section 046 LblCom LEAST_COST_PREFIX

  ****  Scalars and arrays  ****
OctLoc.c.b A Datatyp(siz) R M Lvl/name                 OctLoc.c.b A Datatyp(siz) R M Lvl/name

     0-0-0/w PTR               1 LEAST_COST_PREFIX(0:1400)

PL6.E3A0      #007=EXPAND_DERIV File=LR_LASET.:Z8A6TSI                           SAT 08/09/97 09:36 Page:247
  ****  Section 047 LblCom CURRE

  ****  Scalars and arrays  ****
OctLoc.c.b A Datatyp(siz) R M Lvl/name                 OctLoc.c.b A Datatyp(siz) R M Lvl/name

     0-0-0/d STRC(126)         1 CURRE(0:1400)

  ****  Section 048 LblCom LCP_INDX

  ****  Scalars and arrays  ****
OctLoc.c.b A Datatyp(siz) R M Lvl/name                 OctLoc.c.b A Datatyp(siz) R M Lvl/name

     0-0-0/h SBIN(18)          1 LCP_INDX(0:1400)

  ****  Section 049 LblCom COM_STRSP_LEN

  ****  Scalars and arrays  ****
OctLoc.c.b A Datatyp(siz) R M Lvl/name                 OctLoc.c.b A Datatyp(siz) R M Lvl/name

     0-0-0/w SBIN        r     1 COM_STRSP_LEN

  ****  Section 050 LblCom COM_SEARCH_STRING

  ****  Scalars and arrays  ****
OctLoc.c.b A Datatyp(siz) R M Lvl/name                 OctLoc.c.b A Datatyp(siz) R M Lvl/name

     0-0-0/w PTR         r     1 COM_SEARCH_STRING

  ****  Section 051 LblCom COM_SEARCH_STRING_LEN

  ****  Scalars and arrays  ****
OctLoc.c.b A Datatyp(siz) R M Lvl/name                 OctLoc.c.b A Datatyp(siz) R M Lvl/name

     0-0-0/w SBIN        r     1 COM_SEARCH_STRING_LEN

  ****  Section 052 LblCom COM_STRING_SPACE_LEN

PL6.E3A0      #007=EXPAND_DERIV File=LR_LASET.:Z8A6TSI                           SAT 08/09/97 09:36 Page:248
  ****  Scalars and arrays  ****
OctLoc.c.b A Datatyp(siz) R M Lvl/name                 OctLoc.c.b A Datatyp(siz) R M Lvl/name

     0-0-0/w SBIN        r     1 COM_STRING_SPACE_LEN

  ****  Section 053 LblCom COM_STRING_SPACE_H

  ****  Scalars and arrays  ****
OctLoc.c.b A Datatyp(siz) R M Lvl/name                 OctLoc.c.b A Datatyp(siz) R M Lvl/name

     0-0-0/h SBIN(18)    r     1 COM_STRING_SPACE_H(0:24999)

  ****  Section 054 LblCom COM_STRING_SPACE$

  ****  Scalars and arrays  ****
OctLoc.c.b A Datatyp(siz) R M Lvl/name                 OctLoc.c.b A Datatyp(siz) R M Lvl/name

     0-0-0/w PTR         r     1 COM_STRING_SPACE$

  ****  Section 055 LblCom COM_STRING_PTR

  ****  Scalars and arrays  ****
OctLoc.c.b A Datatyp(siz) R M Lvl/name                 OctLoc.c.b A Datatyp(siz) R M Lvl/name

     0-0-0/w PTR         r     1 COM_STRING_PTR

  ****  Section 056 LblCom COM_STRING_INDX

  ****  Scalars and arrays  ****
OctLoc.c.b A Datatyp(siz) R M Lvl/name                 OctLoc.c.b A Datatyp(siz) R M Lvl/name

     0-0-0/w SBIN              1 COM_STRING_INDX

  ****  Section 057 LblCom LCP_TABLE_LEN

  ****  Scalars and arrays  ****
OctLoc.c.b A Datatyp(siz) R M Lvl/name                 OctLoc.c.b A Datatyp(siz) R M Lvl/name
PL6.E3A0      #007=EXPAND_DERIV File=LR_LASET.:Z8A6TSI                           SAT 08/09/97 09:36 Page:249

     0-0-0/w SBIN              1 LCP_TABLE_LEN

  ****  Section 058 LblCom STATE_ITEM_INDEX

  ****  Scalars and arrays  ****
OctLoc.c.b A Datatyp(siz) R M Lvl/name                 OctLoc.c.b A Datatyp(siz) R M Lvl/name

     0-0-0/h STRC              1 STATE_ITEM_INDEX(0:2200)

  ****  Section 059 LblCom PATH

  ****  Scalars and arrays  ****
OctLoc.c.b A Datatyp(siz) R M Lvl/name                 OctLoc.c.b A Datatyp(siz) R M Lvl/name

     0-0-0/h STRC        r     1 PATH(0:17600)

  ****  Section 060 LblCom PATH_STRINGS_LEN

  ****  Scalars and arrays  ****
OctLoc.c.b A Datatyp(siz) R M Lvl/name                 OctLoc.c.b A Datatyp(siz) R M Lvl/name

     0-0-0/w SBIN        r     1 PATH_STRINGS_LEN

  ****  Section 061 LblCom PATH_ADDR$

  ****  Scalars and arrays  ****
OctLoc.c.b A Datatyp(siz) R M Lvl/name                 OctLoc.c.b A Datatyp(siz) R M Lvl/name

     0-0-0/w PTR         r     1 PATH_ADDR$

  ****  Section 062 LblCom PATH_TABLE_LEN

  ****  Scalars and arrays  ****
OctLoc.c.b A Datatyp(siz) R M Lvl/name                 OctLoc.c.b A Datatyp(siz) R M Lvl/name

     0-0-0/w SBIN              1 PATH_TABLE_LEN
PL6.E3A0      #007=EXPAND_DERIV File=LR_LASET.:Z8A6TSI                           SAT 08/09/97 09:36 Page:250

  ****  Section 063 LblCom EDGECOST

  ****  Scalars and arrays  ****
OctLoc.c.b A Datatyp(siz) R M Lvl/name                 OctLoc.c.b A Datatyp(siz) R M Lvl/name

     0-0-0/w SBIN              1 EDGECOST(0:400)

  ****  Section 064 LblCom ITEM_TABLE_LEN

  ****  Scalars and arrays  ****
OctLoc.c.b A Datatyp(siz) R M Lvl/name                 OctLoc.c.b A Datatyp(siz) R M Lvl/name

     0-0-0/w SBIN              1 ITEM_TABLE_LEN

  ****  Section 065 LblCom ORDERED_ITEM

  ****  Scalars and arrays  ****
OctLoc.c.b A Datatyp(siz) R M Lvl/name                 OctLoc.c.b A Datatyp(siz) R M Lvl/name

     0-0-0/h STRC        r     1 ORDERED_ITEM(0:400)

  ****  Section 066 LblCom NEIGHBOR

  ****  Scalars and arrays  ****
OctLoc.c.b A Datatyp(siz) R M Lvl/name                 OctLoc.c.b A Datatyp(siz) R M Lvl/name

     0-0-0/w SBIN              1 NEIGHBOR(0:400)

  ****  Section 067 LblCom PATH_INFO

  ****  Scalars and arrays  ****
OctLoc.c.b A Datatyp(siz) R M Lvl/name                 OctLoc.c.b A Datatyp(siz) R M Lvl/name

     0-0-0/w STRC(28872) r     1 PATH_INFO

  ****  Section 068 LblCom CHOSEN
PL6.E3A0      #007=EXPAND_DERIV File=LR_LASET.:Z8A6TSI                           SAT 08/09/97 09:36 Page:251

  ****  Scalars and arrays  ****
OctLoc.c.b A Datatyp(siz) R M Lvl/name                 OctLoc.c.b A Datatyp(siz) R M Lvl/name

     0-0-0/w BIT               1 CHOSEN(0:400)

  ****  Section 069 LblCom REACHED

  ****  Scalars and arrays  ****
OctLoc.c.b A Datatyp(siz) R M Lvl/name                 OctLoc.c.b A Datatyp(siz) R M Lvl/name

     0-0-0/b BIT               1 REACHED(0:400)

  ****  Section 070 LblCom EXP_PATH_INDX

  ****  Scalars and arrays  ****
OctLoc.c.b A Datatyp(siz) R M Lvl/name                 OctLoc.c.b A Datatyp(siz) R M Lvl/name

     0-0-0/w SBIN              1 EXP_PATH_INDX

  ****  Auto variables  ****

  ****  Scalars and arrays  ****
OctLoc.c.b A Datatyp(siz) R M Lvl/name                 OctLoc.c.b A Datatyp(siz) R M Lvl/name

     6-0-0/w PTR         r     1 @CLASHED_TERM              4-0-0/w PTR         r     1 @DEST
     5-0-0/w PTR         r     1 @SOURCE                    3-0-0/w PTR         r     1 @STATE
    12-0-0/c CHAR(4)     r     1 ALPHAS                    *0-0-0/w SBIN        r     1 CLASHED_TERM
    *0-0-0/w SBIN        r     1 DEST                      11-0-0/w SBIN        r     1 ITEM
     7-0-0/w SBIN        r     1 SE                        10-0-0/w SBIN        r     1 SI
    *0-0-0/w SBIN        r     1 SOURCE                    *0-0-0/w SBIN        r     1 STATE

  ****  BASED and DCB variables  ****

  ****  Scalars and arrays  ****
OctLoc.c.b A Datatyp(siz) R M Lvl/name                 OctLoc.c.b A Datatyp(siz) R M Lvl/name

PL6.E3A0      #007=EXPAND_DERIV File=LR_LASET.:Z8A6TSI                           SAT 08/09/97 09:36 Page:252
     0-0-0/w STRC(72)          1 CELL                       0-0-0/c ACHR              1 COM_STRINGS
     0-0-0/c ACHR              1 COM_STRING_SPACE           0-0-0/c ACHR              1 CSEARCH_STRING
     0-0-0/w STRC(57888)       1 C_SET_B                    0-0-0/w STRC(72)          1 INCLUDES_B
     0-0-0/w STRC(144)         1 INCL_B                     0-0-0/w STRC(5436)        1 ITEM_B
     0-0-0/w STRC(5652)        1 KEY_B                      0-0-0N  NULL        r     1 M$LO
     0-0-0N  NULL        r     1 M$OU                       0-0-0N  NULL        r     1 M$SI
     0-0-0N  NULL        r     1 M$SO                       0-0-0N  NULL        r     1 M$UI
     0-0-0/c ACHR              1 PATH_STRINGS               0-0-0/w STRC(90)          1 PREFIX
     0-0-0/w ASTR(72)    r     1 PREFIXCHR                  0-0-0/w STRC              1 STRING
     0-0-0/w ASTR(18)    r     1 STRINGCHR                  0-0-0/w STRC(351)         1 SYMBOL


   Procedure EXPAND_DERIV requires 97 words for executable code.
   Procedure EXPAND_DERIV requires 24 words of local(AUTO) storage.

PL6.E3A0      #008=DERIV_COST File=LR_LASET.:Z8A6TSI                             SAT 08/09/97 09:36 Page:253
     1237        1        /*T***********************************************************/
     1238        2        /*T*                                                         */
     1239        3        /*T* Copyright (c) Bull HN Information Systems Inc., 1997    */
     1240        4        /*T*                                                         */
     1241        5        /*T***********************************************************/
     1242        6        DERIV_COST : PROC (STATE, E, I, CLASHED_TERM, LEV, COST);
     1243        7
     1244        8    1   DCL STATE SBIN WORD;
     1245        9    1   DCL E SBIN WORD;
     1246       10    1   DCL I SBIN WORD;
     1247       11    1   DCL CLASHED_TERM SBIN WORD;
     1248       12    1   DCL LEV SBIN WORD;
     1249       13    1   DCL COST SBIN WORD;
     1250       14
     1251       15        %INCLUDE LR_GRAM_EXT;
     1252      554        %INCLUDE LR_CNFG_EXT;
     1253      707        %INCLUDE LR_ERR_EXT;
     1254      850
     1255      851    1   DCL PE SBIN WORD;
     1256      852    1   DCL PI SBIN WORD;
     1257      853    1   DCL PS SBIN WORD;
     1258      854
     1259      855
     1260      856    1   DCL 1 SB ALIGNED BASED,
     1261      857    1         2 SET_B(0:1) BOOLEAN UNAL;
     1262      858
     1263      859    1     COST = 10;
     1264      860
     1265      861    1     IF C#_TO_$(STATE) -> C_SET_B.ELEM.KEY$(E) -> KEY_B.W.SYM_AFTER = 0 THEN
     1266      862    2       DO;
     1267      863    2         IF  C#_TO_$(STATE) -> C_SET_B.ELEM.KEY$(E) -> KEY_B.FOLLOW$ ->
     1268      864    2                    INCL_B.SET(CLASHED_TERM) THEN
     1269      865    2           COST = 4;
     1270      866    2       END;
     1271      867    1     ELSE
     1272      868    1       IF C#_TO_$(STATE) -> C_SET_B.ELEM.KEY$(E) -> KEY_B.W.SYM_AFTER > NR_TERM THEN
     1273      869    1         IF C#_TO_$(STATE) -> C_SET_B.ELEM.KEY$(E) -> KEY_B.SET$
PL6.E3A0      #008=DERIV_COST File=LR_LASET.:Z8A6TSI                             SAT 08/09/97 09:36 Page:254
     1274      870    1                     -> SB.SET_B(CLASHED_TERM) THEN
     1275      871    1           COST = 1;
     1276      872    1         ELSE
     1277      873    2           DO;
     1278      874    2             IF LEV = 0 THEN
     1279      875    3               DO;
     1280      876    3                 PS = C#_TO_$(STATE) -> C_SET_B.ELEM.KEY$(E) -> KEY_B.KEY_VAL$ ->
               876                          C_SET_B.C_SET#;
     1281      877    4                 DO PE = 0 TO C#_TO_$(PS) -> C_SET_B.NR_ELEM - 1;
     1282      878    5                   DO PI = 0 TO C#_TO_$(PS) -> C_SET_B.ELEM.KEY$(PE) -> KEY_B.W.
               878                            ELEM_COUNT - 1;
     1283      879    5                     IF C#_TO_$(PS) -> C_SET_B.ELEM.ITEM$(PE) -> ITEM_B.ELEM.ITEM#(PI)
     1284      880    5                         = C#_TO_$(STATE) -> C_SET_B.ELEM.ITEM$(E) -> ITEM_B.ELEM.
               880                                  SUCC_ITEM#(I) THEN
     1285      881    6                       DO;
     1286      882    6                         CALL DERIV_COST (PS,
     1287      883    6                                          PE,
     1288      884    6                                          PI,
     1289      885    6                                          CLASHED_TERM,
     1290      886    6                                          1,
     1291      887    6                                          COST);
     1292      888    6                         RETURN;
     1293      889    6                      END;
     1294      890    5                   END;
     1295      891    4                 END;
     1296      892    3               END;
     1297      893    2           END;
     1298      894    1       ELSE
     1299      895    1         IF C#_TO_$(STATE) -> C_SET_B.ELEM.KEY$(E) ->
     1300      896    1                    KEY_B.W.SYM_AFTER = CLASHED_TERM THEN
     1301      897    1           COST = 1;
     1302      898
     1303      899    1   END DERIV_COST;

PL6.E3A0      #008=DERIV_COST File=LR_LASET.:Z8A6TSI                             SAT 08/09/97 09:36 Page:255
--  Include file information  --

   LR_ERR_EXT.:Z8A6TOU  cannot be made into a system file and is referenced.
   LR_CNFG_EXT.:Z8A6TOU  cannot be made into a system file and is referenced.
   LR_IO_EXT.:Z8A6TOU  cannot be made into a system file and is referenced.
   LR_GRAM_EXT.:Z8A6TOU  cannot be made into a system file and is referenced.
      No diagnostics issued in procedure DERIV_COST.

   Procedure DERIV_COST requires 137 words for executable code.
   Procedure DERIV_COST requires 18 words of local(AUTO) storage.

    No errors detected in file LR_LASET.:Z8A6TSI    .

PL6.E3A0      #008=DERIV_COST File=LR_LASET.:Z8A6TSI                             SAT 08/09/97 09:36 Page:256

 Object Unit name= DERIV_COST                                 File name= LR_LASET.:Z8A6TOU
 UTS= AUG 09 '97 09:36:19.64 SAT                              Compiler= PL-6/E31         Sev=      00
 SharedLib= :SHARED_SYSTEM                                    Alt SharedLib=


    ****  Control sections  ****

 Sect   Type Bound  Init  Size OctSiz  Section name(segment info)
    0  LblCom even  none     1      1  OUT_DCBN
    1   DCB   even  none     0      0  M$OU
    2   DCB   even  none     0      0  M$SO
    3   DCB   even  none     0      0  M$LO
    4   DCB   even  none     0      0  M$SI
    5   DCB   even  none     0      0  M$UI
    6  LblCom even  none  1401   2571  SYM_PTRS
    7  LblCom even  none  4001   7641  RIGHT_PARTS
    8  LblCom even  none  3002   5672  PROD
    9  LblCom even  none     1      1  NR_PROD
   10  LblCom even  none     1      1  NR_SYMS
   11  LblCom even  none     1      1  NR_TERM
   12  LblCom even  none     1      1  LAST_ACT
   13  LblCom even  none     1      1  LAST_NULL
   14  LblCom even  none     1      1  NR_ONRIGHT
   15  LblCom even  none     1      1  NR_NT
   16  LblCom even  none     1      1  PROD_LEN_MAX_EVER
   17  LblCom even  none     1      1  LAST_ORDER_SPECIFIED
   18  LblCom even  none     1      1  SEMANTIC_ORDERING
   19  LblCom even  none     1      1  ERR_SEV
   20  LblCom even  none     1      1  SET_LENGTHB
   21  LblCom even  none     1      1  SET_LENGTHW
   22  LblCom even  none     1      1  EOF_SYMBOL_PTR
   23  LblCom even  none     1      1  ERROR_SYMBOL_PTR
   24  LblCom even  none     1      1  BOF_SYMBOL_PTR
   25  LblCom even  none     1      1  OPTIONS
   26  LblCom even  none    26     32  OPTIONS_TEXT
   27  LblCom even  none   128    200  INSTR
   28  LblCom even  none     1      1  INSTR_LISTED
PL6.E3A0      #008=DERIV_COST File=LR_LASET.:Z8A6TSI                             SAT 08/09/97 09:36 Page:257
   29  LblCom even  none     1      1  INSTR_LEN
   30  LblCom even  none     1      1  INSTR_INDX
   31  LblCom even  none     1      1  EOF_FLAG
   32  LblCom even  none     3      3  KEY_REC
   33  LblCom even  none    28     34  LINE
   34  LblCom even  none     1      1  LINELEN
   35  LblCom even  none   205    315  TSTATS
   36  LblCom even  none  2201   4231  C#_TO_$
   37  LblCom even  none     1      1  NR_CONFIG
   38  LblCom even  none     1      1  INIT_CONFIG
   39  LblCom even  none     1      1  MAX_BASIS_ITEMS
   40  LblCom even  none     1      1  MAX_TOTAL_ITEMS
   41  LblCom even  none     1      1  LAST_BINSRCH_ONLY
   42  LblCom even  none     1      1  LAST_BOTH_BITBIN
   43  LblCom even  none   101    145  GARBAGE
   44  LblCom even  none     1      1  AMT_GARBAGE
   45  LblCom even  none  1401   2571  LEAST_COST_STRING
   46  LblCom even  none  1401   2571  LEAST_COST_PREFIX
   47  LblCom even  none  5604  12744  CURRE
   48  LblCom even  none   701   1275  LCP_INDX
   49  LblCom even  none     1      1  COM_STRSP_LEN
   50  LblCom even  none     1      1  COM_SEARCH_STRING
   51  LblCom even  none     1      1  COM_SEARCH_STRING_LEN
   52  LblCom even  none     1      1  COM_STRING_SPACE_LEN
   53  LblCom even  none 12500  30324  COM_STRING_SPACE_H
   54  LblCom even  none     1      1  COM_STRING_SPACE$
   55  LblCom even  none     1      1  COM_STRING_PTR
   56  LblCom even  none     1      1  COM_STRING_INDX
   57  LblCom even  none     1      1  LCP_TABLE_LEN
   58  LblCom even  none  2201   4231  STATE_ITEM_INDEX
   59  LblCom even  none 17601  42301  PATH
   60  LblCom even  none     1      1  PATH_STRINGS_LEN
   61  LblCom even  none     1      1  PATH_ADDR$
   62  LblCom even  none     1      1  PATH_TABLE_LEN
   63  LblCom even  none   401    621  EDGECOST
   64  LblCom even  none     1      1  ITEM_TABLE_LEN
   65  LblCom even  none   401    621  ORDERED_ITEM
PL6.E3A0      #008=DERIV_COST File=LR_LASET.:Z8A6TSI                             SAT 08/09/97 09:36 Page:258
   66  LblCom even  none   401    621  NEIGHBOR
   67  LblCom even  none   802   1442  PATH_INFO
   68  LblCom even  none   401    621  CHOSEN
   69  LblCom even  none    12     14  REACHED
   70  LblCom even  none     1      1  EXP_PATH_INDX
   71   Proc  even  none   137    211  DERIV_COST
   72  RoData even  none     4      4  DERIV_COST

    ****  Entry defs  ****

                              Check   Calling
                             calling  sequence
  Sect OctLoc Primary Altret sequence   type   Parms  Name
    71      0   yes            yes      Std        6  DERIV_COST

  ****  Entry refs  ****

         Check        Calling
        calling       sequence
Altret sequence SRef   type   Args  Name
                       nStd      0 X66_AUTO_N
                       nStd      0 X66_ARET

  ****  Data refs  ****

  Flags:  r = read only, s = secondary
Flgs Name                             Flgs Name                             Flgs Name
     M$OU                                  M$SO                                  M$LO
     M$SI                                  M$UI

  ****  Segment refs  ****

  Flags:  r = read only, s = secondary
Flgs Name                             Flgs Name                             Flgs Name
     NULLSID                               ISSID
PL6.E3A0      #008=DERIV_COST File=LR_LASET.:Z8A6TSI                             SAT 08/09/97 09:36 Page:259


     1237        1        /*T***********************************************************/
     1238        2        /*T*                                                         */
     1239        3        /*T* Copyright (c) Bull HN Information Systems Inc., 1997    */
     1240        4        /*T*                                                         */
     1241        5        /*T***********************************************************/
     1242        6        DERIV_COST : PROC (STATE, E, I, CLASHED_TERM, LEV, COST);

      6 71 000000   000000 700200 xent  DERIV_COST   TSX0  ! X66_AUTO_N
        71 000001   000022 000006                    ZERO    18,6

     1243        7
     1244        8    1   DCL STATE SBIN WORD;
     1245        9    1   DCL E SBIN WORD;
     1246       10    1   DCL I SBIN WORD;
     1247       11    1   DCL CLASHED_TERM SBIN WORD;
     1248       12    1   DCL LEV SBIN WORD;
     1249       13    1   DCL COST SBIN WORD;
     1250       14
     1251       15        %INCLUDE LR_GRAM_EXT;
     1252      554        %INCLUDE LR_CNFG_EXT;
     1253      707        %INCLUDE LR_ERR_EXT;
     1254      850
     1255      851    1   DCL PE SBIN WORD;
     1256      852    1   DCL PI SBIN WORD;
     1257      853    1   DCL PS SBIN WORD;
     1258      854
     1259      855
     1260      856    1   DCL 1 SB ALIGNED BASED,
     1261      857    1         2 SET_B(0:1) BOOLEAN UNAL;
     1262      858
     1263      859    1     COST = 10;

    859 71 000002   000012 235007                    LDA     10,DL
        71 000003   200010 470500                    LDP0    @COST,,AUTO
        71 000004   000000 755100                    STA     0,,PR0

PL6.E3A0      #008=DERIV_COST File=LR_LASET.:Z8A6TSI                             SAT 08/09/97 09:36 Page:260
     1264      860
     1265      861    1     IF C#_TO_$(STATE) -> C_SET_B.ELEM.KEY$(E) -> KEY_B.W.SYM_AFTER = 0 THEN

    861 71 000005   200003 471500                    LDP1    @STATE,,AUTO
        71 000006   100000 720100                    LXL0    0,,PR1
        71 000007   000000 473410 36                 LDP3    C#_TO_$,X0
        71 000010   200004 474500                    LDP4    @E,,AUTO
        71 000011   400000 235100                    LDA     0,,PR4
        71 000012   000002 735000                    ALS     2
        71 000013   300004 475505                    LDP5    4,AL,PR3
        71 000014   500004 235100                    LDA     4,,PR5
        71 000015   000037 601000 71                 TNZ     s:868

     1266      862    2       DO;

     1267      863    2         IF  C#_TO_$(STATE) -> C_SET_B.ELEM.KEY$(E) -> KEY_B.FOLLOW$ ->

    863 71 000016   100000 720100                    LXL0    0,,PR1
        71 000017   000000 473410 36                 LDP3    C#_TO_$,X0
        71 000020   400000 235100                    LDA     0,,PR4
        71 000021   000002 735000                    ALS     2
        71 000022   300004 475505                    LDP5    4,AL,PR3
        71 000023   500003 473500                    LDP3    3,,PR5
        71 000024   200006 475500                    LDP5    @CLASHED_TERM,,AUTO
        71 000025   500000 235100                    LDA     0,,PR5
        71 000026   000030 605000 71                 TPL     s:863+10
        71 000027   000044 035003                    ADLA    36,DU
        71 000030   000000 066505                    CMPB    filb='0'B
        71 000031   300003 000001                    BDSC    3,A,PR3                  by=0,bit=0,n=1
        71 000032   000000 000022 72                 BDSC    0                        by=0,bit=0,n=18
        71 000033   000210 600000 71                 TZE     s:899

     1268      864    2                    INCL_B.SET(CLASHED_TERM) THEN
     1269      865    2           COST = 4;

    865 71 000034   000004 235007                    LDA     4,DL
        71 000035   000000 755100                    STA     0,,PR0
PL6.E3A0      #008=DERIV_COST File=LR_LASET.:Z8A6TSI                             SAT 08/09/97 09:36 Page:261

     1270      866    2       END;

    866 71 000036   000210 710000 71                 TRA     s:899

     1271      867    1     ELSE
     1272      868    1       IF C#_TO_$(STATE) -> C_SET_B.ELEM.KEY$(E) -> KEY_B.W.SYM_AFTER > NR_TERM THEN

    868 71 000037   100000 720100                    LXL0    0,,PR1
        71 000040   000000 473410 36                 LDP3    C#_TO_$,X0
        71 000041   400000 235100                    LDA     0,,PR4
        71 000042   000002 735000                    ALS     2
        71 000043   300004 475505                    LDP5    4,AL,PR3
        71 000044   500004 236100                    LDQ     4,,PR5
        71 000045   000000 116000 11                 CMPQ    NR_TERM
        71 000046   000175 604400 71                 TMOZ    s:895

     1273      869    1         IF C#_TO_$(STATE) -> C_SET_B.ELEM.KEY$(E) -> KEY_B.SET$

    869 71 000047   100000 720100                    LXL0    0,,PR1
        71 000050   000000 473410 36                 LDP3    C#_TO_$,X0
        71 000051   400000 235100                    LDA     0,,PR4
        71 000052   000002 735000                    ALS     2
        71 000053   300004 475505                    LDP5    4,AL,PR3
        71 000054   500002 473500                    LDP3    2,,PR5
        71 000055   200006 475500                    LDP5    @CLASHED_TERM,,AUTO
        71 000056   500000 235100                    LDA     0,,PR5
        71 000057   000061 605000 71                 TPL     s:869+10
        71 000060   000044 035003                    ADLA    36,DU
        71 000061   000000 066505                    CMPB    filb='0'B
        71 000062   300000 000001                    BDSC    0,A,PR3                  by=0,bit=0,n=1
        71 000063   000000 000022 72                 BDSC    0                        by=0,bit=0,n=18
        71 000064   000070 600000 71                 TZE     s:874

     1274      870    1                     -> SB.SET_B(CLASHED_TERM) THEN
     1275      871    1           COST = 1;

PL6.E3A0      #008=DERIV_COST File=LR_LASET.:Z8A6TSI                             SAT 08/09/97 09:36 Page:262
    871 71 000065   000001 235007                    LDA     1,DL
        71 000066   000000 755100                    STA     0,,PR0
        71 000067   000210 710000 71                 TRA     s:899

     1276      872    1         ELSE
     1277      873    2           DO;

     1278      874    2             IF LEV = 0 THEN

    874 71 000070   200007 473500                    LDP3    @LEV,,AUTO
        71 000071   300000 235100                    LDA     0,,PR3
        71 000072   000210 601000 71                 TNZ     s:899

     1279      875    3               DO;

     1280      876    3                 PS = C#_TO_$(STATE) -> C_SET_B.ELEM.KEY$(E) -> KEY_B.KEY_VAL$ ->
               876                          C_SET_B.C_SET#;

    876 71 000073   100000 720100                    LXL0    0,,PR1
        71 000074   000000 476410 36                 LDP6    C#_TO_$,X0
        71 000075   400000 235100                    LDA     0,,PR4
        71 000076   000002 735000                    ALS     2
        71 000077   600004 477505                    LDP7    4,AL,PR6
        71 000100   700003 476500                    LDP6    3,,PR7
        71 000101   600001 236100                    LDQ     1,,PR6
        71 000102   000022 772000                    QRL     18
        71 000103   200013 756100                    STQ     PS,,AUTO

     1281      877    4                 DO PE = 0 TO C#_TO_$(PS) -> C_SET_B.NR_ELEM - 1;

    877 71 000104   200011 450100                    STZ     PE,,AUTO
        71 000105   000166 710000 71                 TRA     s:891+1

     1282      878    5                   DO PI = 0 TO C#_TO_$(PS) -> C_SET_B.ELEM.KEY$(PE) -> KEY_B.W.
               878                            ELEM_COUNT - 1;

    878 71 000106   200012 450100                    STZ     PI,,AUTO
PL6.E3A0      #008=DERIV_COST File=LR_LASET.:Z8A6TSI                             SAT 08/09/97 09:36 Page:263
        71 000107   000153 710000 71                 TRA     s:890+1

     1283      879    5                     IF C#_TO_$(PS) -> C_SET_B.ELEM.ITEM$(PE) -> ITEM_B.ELEM.ITEM#(PI)

    879 71 000110   200013 720100                    LXL0    PS,,AUTO
        71 000111   000000 470410 36                 LDP0    C#_TO_$,X0
        71 000112   200011 235100                    LDA     PE,,AUTO
        71 000113   000002 735000                    ALS     2
        71 000114   000006 471505                    LDP1    6,AL,PR0
        71 000115   200003 473500                    LDP3    @STATE,,AUTO
        71 000116   300000 721100                    LXL1    0,,PR3
        71 000117   000000 474411 36                 LDP4    C#_TO_$,X1
        71 000120   200004 475500                    LDP5    @E,,AUTO
        71 000121   500000 235100                    LDA     0,,PR5
        71 000122   000002 735000                    ALS     2
        71 000123   400006 476505                    LDP6    6,AL,PR4
        71 000124   200005 474500                    LDP4    @I,,AUTO
        71 000125   400000 235100                    LDA     0,,PR4
        71 000126   600000 721105                    LXL1    0,AL,PR6
        71 000127   200012 722100                    LXL2    PI,,AUTO
        71 000130   100000 101112                    CMPX1   0,X2,PR1
        71 000131   000152 601000 71                 TNZ     s:890

     1284      880    5                         = C#_TO_$(STATE) -> C_SET_B.ELEM.ITEM$(E) -> ITEM_B.ELEM.
               880                                  SUCC_ITEM#(I) THEN
     1285      881    6                       DO;

     1286      882    6                         CALL DERIV_COST (PS,

    882 71 000132   200010 236100                    LDQ     @COST,,AUTO
        71 000133   000003 235000 72                 LDA     3
        71 000134   200020 757100                    STAQ    PS+5,,AUTO
        71 000135   200006 236100                    LDQ     @CLASHED_TERM,,AUTO
        71 000136   200017 756100                    STQ     PS+4,,AUTO
        71 000137   200012 631500                    EPPR1   PI,,AUTO
        71 000140   200016 451500                    STP1    PS+3,,AUTO
        71 000141   200011 636500                    EPPR6   PE,,AUTO
PL6.E3A0      #008=DERIV_COST File=LR_LASET.:Z8A6TSI                             SAT 08/09/97 09:36 Page:264
        71 000142   200015 456500                    STP6    PS+2,,AUTO
        71 000143   200013 637500                    EPPR7   PS,,AUTO
        71 000144   200014 457500                    STP7    PS+1,,AUTO
        71 000145   200014 630500                    EPPR0   PS+1,,AUTO
        71 000146   000001 631400 72                 EPPR1   1
        71 000147   000000 701000 71                 TSX1    s:6
        71 000150   000000 011000                    NOP     0

     1287      883    6                                          PE,
     1288      884    6                                          PI,
     1289      885    6                                          CLASHED_TERM,
     1290      886    6                                          1,
     1291      887    6                                          COST);
     1292      888    6                         RETURN;

    888 71 000151   000000 702200 xent               TSX2  ! X66_ARET

     1293      889    6                      END;
     1294      890    5                   END;

    890 71 000152   200012 054100                    AOS     PI,,AUTO
        71 000153   200013 720100                    LXL0    PS,,AUTO
        71 000154   000000 470410 36                 LDP0    C#_TO_$,X0
        71 000155   200011 235100                    LDA     PE,,AUTO
        71 000156   000002 735000                    ALS     2
        71 000157   000004 471505                    LDP1    4,AL,PR0
        71 000160   100005 236100                    LDQ     5,,PR1
        71 000161   000022 736000                    QLS     18
        71 000162   000022 732000                    QRS     18
        71 000163   200012 116100                    CMPQ    PI,,AUTO
        71 000164   000110 605400 71                 TPNZ    s:879

     1295      891    4                 END;

    891 71 000165   200011 054100                    AOS     PE,,AUTO
        71 000166   200013 720100                    LXL0    PS,,AUTO
        71 000167   000000 470410 36                 LDP0    C#_TO_$,X0
PL6.E3A0      #008=DERIV_COST File=LR_LASET.:Z8A6TSI                             SAT 08/09/97 09:36 Page:265
        71 000170   000001 236100                    LDQ     1,,PR0
        71 000171   777777 376007                    ANQ     -1,DL
        71 000172   200011 116100                    CMPQ    PE,,AUTO
        71 000173   000106 605400 71                 TPNZ    s:878

     1296      892    3               END;

     1297      893    2           END;

    893 71 000174   000210 710000 71                 TRA     s:899

     1298      894    1       ELSE
     1299      895    1         IF C#_TO_$(STATE) -> C_SET_B.ELEM.KEY$(E) ->

    895 71 000175   100000 720100                    LXL0    0,,PR1
        71 000176   000000 473410 36                 LDP3    C#_TO_$,X0
        71 000177   400000 235100                    LDA     0,,PR4
        71 000200   000002 735000                    ALS     2
        71 000201   300004 475505                    LDP5    4,AL,PR3
        71 000202   200006 473500                    LDP3    @CLASHED_TERM,,AUTO
        71 000203   500004 236100                    LDQ     4,,PR5
        71 000204   300000 116100                    CMPQ    0,,PR3
        71 000205   000210 601000 71                 TNZ     s:899

     1300      896    1                    KEY_B.W.SYM_AFTER = CLASHED_TERM THEN
     1301      897    1           COST = 1;

    897 71 000206   000001 235007                    LDA     1,DL
        71 000207   000000 755100                    STA     0,,PR0

     1302      898
     1303      899    1   END DERIV_COST;

    899 71 000210   000000 702200 xent               TSX2  ! X66_ARET

PL6.E3A0      #008=DERIV_COST File=LR_LASET.:Z8A6TSI                             SAT 08/09/97 09:36 Page:266
--  Include file information  --

   LR_ERR_EXT.:Z8A6TOU  cannot be made into a system file and is referenced.
   LR_CNFG_EXT.:Z8A6TOU  cannot be made into a system file and is referenced.
   LR_IO_EXT.:Z8A6TOU  cannot be made into a system file and is referenced.
   LR_GRAM_EXT.:Z8A6TOU  cannot be made into a system file and is referenced.
      No diagnostics issued in procedure DERIV_COST.
PL6.E3A0      #008=DERIV_COST File=LR_LASET.:Z8A6TSI                             SAT 08/09/97 09:36 Page:267

 **** Variables and constants ****

  ****  Section 000 LblCom OUT_DCBN

  ****  Scalars and arrays  ****
OctLoc.c.b A Datatyp(siz) R M Lvl/name                 OctLoc.c.b A Datatyp(siz) R M Lvl/name

     0-0-0/w SBIN              1 OUT_DCBN

  ****  Section 006 LblCom SYM_PTRS

  ****  Scalars and arrays  ****
OctLoc.c.b A Datatyp(siz) R M Lvl/name                 OctLoc.c.b A Datatyp(siz) R M Lvl/name

     0-0-0/w PTR               1 SYM_PTRS(0:1400)

  ****  Section 007 LblCom RIGHT_PARTS

  ****  Scalars and arrays  ****
OctLoc.c.b A Datatyp(siz) R M Lvl/name                 OctLoc.c.b A Datatyp(siz) R M Lvl/name

     0-0-0/h SBIN(18)          1 RIGHT_PARTS(0:8000)

  ****  Section 008 LblCom PROD

  ****  Scalars and arrays  ****
OctLoc.c.b A Datatyp(siz) R M Lvl/name                 OctLoc.c.b A Datatyp(siz) R M Lvl/name

     0-0-0/h STRC(72)          1 PROD(0:1500)

  ****  Section 009 LblCom NR_PROD

  ****  Scalars and arrays  ****
OctLoc.c.b A Datatyp(siz) R M Lvl/name                 OctLoc.c.b A Datatyp(siz) R M Lvl/name

     0-0-0/w SBIN              1 NR_PROD

PL6.E3A0      #008=DERIV_COST File=LR_LASET.:Z8A6TSI                             SAT 08/09/97 09:36 Page:268
  ****  Section 010 LblCom NR_SYMS

  ****  Scalars and arrays  ****
OctLoc.c.b A Datatyp(siz) R M Lvl/name                 OctLoc.c.b A Datatyp(siz) R M Lvl/name

     0-0-0/w SBIN              1 NR_SYMS

  ****  Section 011 LblCom NR_TERM

  ****  Scalars and arrays  ****
OctLoc.c.b A Datatyp(siz) R M Lvl/name                 OctLoc.c.b A Datatyp(siz) R M Lvl/name

     0-0-0/w SBIN        r     1 NR_TERM

  ****  Section 012 LblCom LAST_ACT

  ****  Scalars and arrays  ****
OctLoc.c.b A Datatyp(siz) R M Lvl/name                 OctLoc.c.b A Datatyp(siz) R M Lvl/name

     0-0-0/w SBIN              1 LAST_ACT

  ****  Section 013 LblCom LAST_NULL

  ****  Scalars and arrays  ****
OctLoc.c.b A Datatyp(siz) R M Lvl/name                 OctLoc.c.b A Datatyp(siz) R M Lvl/name

     0-0-0/w SBIN              1 LAST_NULL

  ****  Section 014 LblCom NR_ONRIGHT

  ****  Scalars and arrays  ****
OctLoc.c.b A Datatyp(siz) R M Lvl/name                 OctLoc.c.b A Datatyp(siz) R M Lvl/name

     0-0-0/w SBIN              1 NR_ONRIGHT

  ****  Section 015 LblCom NR_NT

PL6.E3A0      #008=DERIV_COST File=LR_LASET.:Z8A6TSI                             SAT 08/09/97 09:36 Page:269
  ****  Scalars and arrays  ****
OctLoc.c.b A Datatyp(siz) R M Lvl/name                 OctLoc.c.b A Datatyp(siz) R M Lvl/name

     0-0-0/w SBIN              1 NR_NT

  ****  Section 016 LblCom PROD_LEN_MAX_EVER

  ****  Scalars and arrays  ****
OctLoc.c.b A Datatyp(siz) R M Lvl/name                 OctLoc.c.b A Datatyp(siz) R M Lvl/name

     0-0-0/w SBIN              1 PROD_LEN_MAX_EVER

  ****  Section 017 LblCom LAST_ORDER_SPECIFIED

  ****  Scalars and arrays  ****
OctLoc.c.b A Datatyp(siz) R M Lvl/name                 OctLoc.c.b A Datatyp(siz) R M Lvl/name

     0-0-0/w SBIN              1 LAST_ORDER_SPECIFIED

  ****  Section 018 LblCom SEMANTIC_ORDERING

  ****  Scalars and arrays  ****
OctLoc.c.b A Datatyp(siz) R M Lvl/name                 OctLoc.c.b A Datatyp(siz) R M Lvl/name

     0-0-0/b BIT               1 SEMANTIC_ORDERING

  ****  Section 019 LblCom ERR_SEV

  ****  Scalars and arrays  ****
OctLoc.c.b A Datatyp(siz) R M Lvl/name                 OctLoc.c.b A Datatyp(siz) R M Lvl/name

     0-0-0/w SBIN              1 ERR_SEV

  ****  Section 020 LblCom SET_LENGTHB

  ****  Scalars and arrays  ****
OctLoc.c.b A Datatyp(siz) R M Lvl/name                 OctLoc.c.b A Datatyp(siz) R M Lvl/name
PL6.E3A0      #008=DERIV_COST File=LR_LASET.:Z8A6TSI                             SAT 08/09/97 09:36 Page:270

     0-0-0/w SBIN              1 SET_LENGTHB

  ****  Section 021 LblCom SET_LENGTHW

  ****  Scalars and arrays  ****
OctLoc.c.b A Datatyp(siz) R M Lvl/name                 OctLoc.c.b A Datatyp(siz) R M Lvl/name

     0-0-0/w SBIN              1 SET_LENGTHW

  ****  Section 022 LblCom EOF_SYMBOL_PTR

  ****  Scalars and arrays  ****
OctLoc.c.b A Datatyp(siz) R M Lvl/name                 OctLoc.c.b A Datatyp(siz) R M Lvl/name

     0-0-0/w PTR               1 EOF_SYMBOL_PTR

  ****  Section 023 LblCom ERROR_SYMBOL_PTR

  ****  Scalars and arrays  ****
OctLoc.c.b A Datatyp(siz) R M Lvl/name                 OctLoc.c.b A Datatyp(siz) R M Lvl/name

     0-0-0/w PTR               1 ERROR_SYMBOL_PTR

  ****  Section 024 LblCom BOF_SYMBOL_PTR

  ****  Scalars and arrays  ****
OctLoc.c.b A Datatyp(siz) R M Lvl/name                 OctLoc.c.b A Datatyp(siz) R M Lvl/name

     0-0-0/w PTR               1 BOF_SYMBOL_PTR

  ****  Section 025 LblCom OPTIONS

  ****  Scalars and arrays  ****
OctLoc.c.b A Datatyp(siz) R M Lvl/name                 OctLoc.c.b A Datatyp(siz) R M Lvl/name

     0-0-0/b BIT               1 OPTIONS(0:25)
PL6.E3A0      #008=DERIV_COST File=LR_LASET.:Z8A6TSI                             SAT 08/09/97 09:36 Page:271

  ****  Section 026 LblCom OPTIONS_TEXT

  ****  Scalars and arrays  ****
OctLoc.c.b A Datatyp(siz) R M Lvl/name                 OctLoc.c.b A Datatyp(siz) R M Lvl/name

     0-0-0/c CHAR(4)           1 OPTIONS_TEXT(0:25)

  ****  Section 027 LblCom INSTR

  ****  Scalars and arrays  ****
OctLoc.c.b A Datatyp(siz) R M Lvl/name                 OctLoc.c.b A Datatyp(siz) R M Lvl/name

     0-0-0/c CHAR              1 INSTR(0:511)               0-0-0/c CHAR(512)         1 INSTRCHR

  ****  Section 028 LblCom INSTR_LISTED

  ****  Scalars and arrays  ****
OctLoc.c.b A Datatyp(siz) R M Lvl/name                 OctLoc.c.b A Datatyp(siz) R M Lvl/name

     0-0-0/b BIT               1 INSTR_LISTED

  ****  Section 029 LblCom INSTR_LEN

  ****  Scalars and arrays  ****
OctLoc.c.b A Datatyp(siz) R M Lvl/name                 OctLoc.c.b A Datatyp(siz) R M Lvl/name

     0-0-0/w SBIN              1 INSTR_LEN

  ****  Section 030 LblCom INSTR_INDX

  ****  Scalars and arrays  ****
OctLoc.c.b A Datatyp(siz) R M Lvl/name                 OctLoc.c.b A Datatyp(siz) R M Lvl/name

     0-0-0/w SBIN              1 INSTR_INDX

  ****  Section 031 LblCom EOF_FLAG
PL6.E3A0      #008=DERIV_COST File=LR_LASET.:Z8A6TSI                             SAT 08/09/97 09:36 Page:272

  ****  Scalars and arrays  ****
OctLoc.c.b A Datatyp(siz) R M Lvl/name                 OctLoc.c.b A Datatyp(siz) R M Lvl/name

     0-0-0/b BIT               1 EOF_FLAG

  ****  Section 032 LblCom KEY_REC

  ****  Scalars and arrays  ****
OctLoc.c.b A Datatyp(siz) R M Lvl/name                 OctLoc.c.b A Datatyp(siz) R M Lvl/name

     0-0-0/c CHAR(10)          1 KEY_REC

  ****  Section 033 LblCom LINE

  ****  Scalars and arrays  ****
OctLoc.c.b A Datatyp(siz) R M Lvl/name                 OctLoc.c.b A Datatyp(siz) R M Lvl/name

     0-0-0/c CHAR(109)         1 LINE

  ****  Section 034 LblCom LINELEN

  ****  Scalars and arrays  ****
OctLoc.c.b A Datatyp(siz) R M Lvl/name                 OctLoc.c.b A Datatyp(siz) R M Lvl/name

     0-0-0/w SBIN              1 LINELEN

  ****  Section 035 LblCom TSTATS

  ****  Scalars and arrays  ****
OctLoc.c.b A Datatyp(siz) R M Lvl/name                 OctLoc.c.b A Datatyp(siz) R M Lvl/name

     0-0-0/w STRC(7380)        1 TSTATS

  ****  Section 036 LblCom C#_TO_$

  ****  Scalars and arrays  ****
PL6.E3A0      #008=DERIV_COST File=LR_LASET.:Z8A6TSI                             SAT 08/09/97 09:36 Page:273
OctLoc.c.b A Datatyp(siz) R M Lvl/name                 OctLoc.c.b A Datatyp(siz) R M Lvl/name

     0-0-0/w PTR         r     1 C#_TO_$(0:2200)

  ****  Section 037 LblCom NR_CONFIG

  ****  Scalars and arrays  ****
OctLoc.c.b A Datatyp(siz) R M Lvl/name                 OctLoc.c.b A Datatyp(siz) R M Lvl/name

     0-0-0/w SBIN              1 NR_CONFIG

  ****  Section 038 LblCom INIT_CONFIG

  ****  Scalars and arrays  ****
OctLoc.c.b A Datatyp(siz) R M Lvl/name                 OctLoc.c.b A Datatyp(siz) R M Lvl/name

     0-0-0/w SBIN              1 INIT_CONFIG

  ****  Section 039 LblCom MAX_BASIS_ITEMS

  ****  Scalars and arrays  ****
OctLoc.c.b A Datatyp(siz) R M Lvl/name                 OctLoc.c.b A Datatyp(siz) R M Lvl/name

     0-0-0/w SBIN              1 MAX_BASIS_ITEMS

  ****  Section 040 LblCom MAX_TOTAL_ITEMS

  ****  Scalars and arrays  ****
OctLoc.c.b A Datatyp(siz) R M Lvl/name                 OctLoc.c.b A Datatyp(siz) R M Lvl/name

     0-0-0/w SBIN              1 MAX_TOTAL_ITEMS

  ****  Section 041 LblCom LAST_BINSRCH_ONLY

  ****  Scalars and arrays  ****
OctLoc.c.b A Datatyp(siz) R M Lvl/name                 OctLoc.c.b A Datatyp(siz) R M Lvl/name

PL6.E3A0      #008=DERIV_COST File=LR_LASET.:Z8A6TSI                             SAT 08/09/97 09:36 Page:274
     0-0-0/w SBIN              1 LAST_BINSRCH_ONLY

  ****  Section 042 LblCom LAST_BOTH_BITBIN

  ****  Scalars and arrays  ****
OctLoc.c.b A Datatyp(siz) R M Lvl/name                 OctLoc.c.b A Datatyp(siz) R M Lvl/name

     0-0-0/w SBIN              1 LAST_BOTH_BITBIN

  ****  Section 043 LblCom GARBAGE

  ****  Scalars and arrays  ****
OctLoc.c.b A Datatyp(siz) R M Lvl/name                 OctLoc.c.b A Datatyp(siz) R M Lvl/name

     0-0-0/w PTR               1 GARBAGE(0:100)

  ****  Section 044 LblCom AMT_GARBAGE

  ****  Scalars and arrays  ****
OctLoc.c.b A Datatyp(siz) R M Lvl/name                 OctLoc.c.b A Datatyp(siz) R M Lvl/name

     0-0-0/w SBIN              1 AMT_GARBAGE

  ****  Section 045 LblCom LEAST_COST_STRING

  ****  Scalars and arrays  ****
OctLoc.c.b A Datatyp(siz) R M Lvl/name                 OctLoc.c.b A Datatyp(siz) R M Lvl/name

     0-0-0/w PTR               1 LEAST_COST_STRING(0:1400)

  ****  Section 046 LblCom LEAST_COST_PREFIX

  ****  Scalars and arrays  ****
OctLoc.c.b A Datatyp(siz) R M Lvl/name                 OctLoc.c.b A Datatyp(siz) R M Lvl/name

     0-0-0/w PTR               1 LEAST_COST_PREFIX(0:1400)

PL6.E3A0      #008=DERIV_COST File=LR_LASET.:Z8A6TSI                             SAT 08/09/97 09:36 Page:275
  ****  Section 047 LblCom CURRE

  ****  Scalars and arrays  ****
OctLoc.c.b A Datatyp(siz) R M Lvl/name                 OctLoc.c.b A Datatyp(siz) R M Lvl/name

     0-0-0/d STRC(126)         1 CURRE(0:1400)

  ****  Section 048 LblCom LCP_INDX

  ****  Scalars and arrays  ****
OctLoc.c.b A Datatyp(siz) R M Lvl/name                 OctLoc.c.b A Datatyp(siz) R M Lvl/name

     0-0-0/h SBIN(18)          1 LCP_INDX(0:1400)

  ****  Section 049 LblCom COM_STRSP_LEN

  ****  Scalars and arrays  ****
OctLoc.c.b A Datatyp(siz) R M Lvl/name                 OctLoc.c.b A Datatyp(siz) R M Lvl/name

     0-0-0/w SBIN        r     1 COM_STRSP_LEN

  ****  Section 050 LblCom COM_SEARCH_STRING

  ****  Scalars and arrays  ****
OctLoc.c.b A Datatyp(siz) R M Lvl/name                 OctLoc.c.b A Datatyp(siz) R M Lvl/name

     0-0-0/w PTR         r     1 COM_SEARCH_STRING

  ****  Section 051 LblCom COM_SEARCH_STRING_LEN

  ****  Scalars and arrays  ****
OctLoc.c.b A Datatyp(siz) R M Lvl/name                 OctLoc.c.b A Datatyp(siz) R M Lvl/name

     0-0-0/w SBIN        r     1 COM_SEARCH_STRING_LEN

  ****  Section 052 LblCom COM_STRING_SPACE_LEN

PL6.E3A0      #008=DERIV_COST File=LR_LASET.:Z8A6TSI                             SAT 08/09/97 09:36 Page:276
  ****  Scalars and arrays  ****
OctLoc.c.b A Datatyp(siz) R M Lvl/name                 OctLoc.c.b A Datatyp(siz) R M Lvl/name

     0-0-0/w SBIN        r     1 COM_STRING_SPACE_LEN

  ****  Section 053 LblCom COM_STRING_SPACE_H

  ****  Scalars and arrays  ****
OctLoc.c.b A Datatyp(siz) R M Lvl/name                 OctLoc.c.b A Datatyp(siz) R M Lvl/name

     0-0-0/h SBIN(18)    r     1 COM_STRING_SPACE_H(0:24999)

  ****  Section 054 LblCom COM_STRING_SPACE$

  ****  Scalars and arrays  ****
OctLoc.c.b A Datatyp(siz) R M Lvl/name                 OctLoc.c.b A Datatyp(siz) R M Lvl/name

     0-0-0/w PTR         r     1 COM_STRING_SPACE$

  ****  Section 055 LblCom COM_STRING_PTR

  ****  Scalars and arrays  ****
OctLoc.c.b A Datatyp(siz) R M Lvl/name                 OctLoc.c.b A Datatyp(siz) R M Lvl/name

     0-0-0/w PTR         r     1 COM_STRING_PTR

  ****  Section 056 LblCom COM_STRING_INDX

  ****  Scalars and arrays  ****
OctLoc.c.b A Datatyp(siz) R M Lvl/name                 OctLoc.c.b A Datatyp(siz) R M Lvl/name

     0-0-0/w SBIN              1 COM_STRING_INDX

  ****  Section 057 LblCom LCP_TABLE_LEN

  ****  Scalars and arrays  ****
OctLoc.c.b A Datatyp(siz) R M Lvl/name                 OctLoc.c.b A Datatyp(siz) R M Lvl/name
PL6.E3A0      #008=DERIV_COST File=LR_LASET.:Z8A6TSI                             SAT 08/09/97 09:36 Page:277

     0-0-0/w SBIN              1 LCP_TABLE_LEN

  ****  Section 058 LblCom STATE_ITEM_INDEX

  ****  Scalars and arrays  ****
OctLoc.c.b A Datatyp(siz) R M Lvl/name                 OctLoc.c.b A Datatyp(siz) R M Lvl/name

     0-0-0/h STRC              1 STATE_ITEM_INDEX(0:2200)

  ****  Section 059 LblCom PATH

  ****  Scalars and arrays  ****
OctLoc.c.b A Datatyp(siz) R M Lvl/name                 OctLoc.c.b A Datatyp(siz) R M Lvl/name

     0-0-0/h STRC        r     1 PATH(0:17600)

  ****  Section 060 LblCom PATH_STRINGS_LEN

  ****  Scalars and arrays  ****
OctLoc.c.b A Datatyp(siz) R M Lvl/name                 OctLoc.c.b A Datatyp(siz) R M Lvl/name

     0-0-0/w SBIN        r     1 PATH_STRINGS_LEN

  ****  Section 061 LblCom PATH_ADDR$

  ****  Scalars and arrays  ****
OctLoc.c.b A Datatyp(siz) R M Lvl/name                 OctLoc.c.b A Datatyp(siz) R M Lvl/name

     0-0-0/w PTR         r     1 PATH_ADDR$

  ****  Section 062 LblCom PATH_TABLE_LEN

  ****  Scalars and arrays  ****
OctLoc.c.b A Datatyp(siz) R M Lvl/name                 OctLoc.c.b A Datatyp(siz) R M Lvl/name

     0-0-0/w SBIN              1 PATH_TABLE_LEN
PL6.E3A0      #008=DERIV_COST File=LR_LASET.:Z8A6TSI                             SAT 08/09/97 09:36 Page:278

  ****  Section 063 LblCom EDGECOST

  ****  Scalars and arrays  ****
OctLoc.c.b A Datatyp(siz) R M Lvl/name                 OctLoc.c.b A Datatyp(siz) R M Lvl/name

     0-0-0/w SBIN              1 EDGECOST(0:400)

  ****  Section 064 LblCom ITEM_TABLE_LEN

  ****  Scalars and arrays  ****
OctLoc.c.b A Datatyp(siz) R M Lvl/name                 OctLoc.c.b A Datatyp(siz) R M Lvl/name

     0-0-0/w SBIN              1 ITEM_TABLE_LEN

  ****  Section 065 LblCom ORDERED_ITEM

  ****  Scalars and arrays  ****
OctLoc.c.b A Datatyp(siz) R M Lvl/name                 OctLoc.c.b A Datatyp(siz) R M Lvl/name

     0-0-0/h STRC              1 ORDERED_ITEM(0:400)

  ****  Section 066 LblCom NEIGHBOR

  ****  Scalars and arrays  ****
OctLoc.c.b A Datatyp(siz) R M Lvl/name                 OctLoc.c.b A Datatyp(siz) R M Lvl/name

     0-0-0/w SBIN              1 NEIGHBOR(0:400)

  ****  Section 067 LblCom PATH_INFO

  ****  Scalars and arrays  ****
OctLoc.c.b A Datatyp(siz) R M Lvl/name                 OctLoc.c.b A Datatyp(siz) R M Lvl/name

     0-0-0/w STRC(28872)       1 PATH_INFO

  ****  Section 068 LblCom CHOSEN
PL6.E3A0      #008=DERIV_COST File=LR_LASET.:Z8A6TSI                             SAT 08/09/97 09:36 Page:279

  ****  Scalars and arrays  ****
OctLoc.c.b A Datatyp(siz) R M Lvl/name                 OctLoc.c.b A Datatyp(siz) R M Lvl/name

     0-0-0/w BIT               1 CHOSEN(0:400)

  ****  Section 069 LblCom REACHED

  ****  Scalars and arrays  ****
OctLoc.c.b A Datatyp(siz) R M Lvl/name                 OctLoc.c.b A Datatyp(siz) R M Lvl/name

     0-0-0/b BIT               1 REACHED(0:400)

  ****  Section 070 LblCom EXP_PATH_INDX

  ****  Scalars and arrays  ****
OctLoc.c.b A Datatyp(siz) R M Lvl/name                 OctLoc.c.b A Datatyp(siz) R M Lvl/name

     0-0-0/w SBIN              1 EXP_PATH_INDX

  ****  Auto variables  ****

  ****  Scalars and arrays  ****
OctLoc.c.b A Datatyp(siz) R M Lvl/name                 OctLoc.c.b A Datatyp(siz) R M Lvl/name

     6-0-0/w PTR         r     1 @CLASHED_TERM             10-0-0/w PTR         r     1 @COST
     4-0-0/w PTR         r     1 @E                         5-0-0/w PTR         r     1 @I
     7-0-0/w PTR         r     1 @LEV                       3-0-0/w PTR         r     1 @STATE
    *0-0-0/w SBIN        r     1 CLASHED_TERM              *0-0-0/w SBIN        r     1 COST
    *0-0-0/w SBIN        r     1 E                         *0-0-0/w SBIN        r     1 I
    *0-0-0/w SBIN        r     1 LEV                       11-0-0/w SBIN        r     1 PE
    12-0-0/w SBIN        r     1 PI                        13-0-0/w SBIN        r     1 PS
    *0-0-0/w SBIN        r     1 STATE

  ****  BASED and DCB variables  ****

  ****  Scalars and arrays  ****
PL6.E3A0      #008=DERIV_COST File=LR_LASET.:Z8A6TSI                             SAT 08/09/97 09:36 Page:280
OctLoc.c.b A Datatyp(siz) R M Lvl/name                 OctLoc.c.b A Datatyp(siz) R M Lvl/name

     0-0-0/w STRC(72)          1 CELL                       0-0-0/c ACHR              1 COM_STRINGS
     0-0-0/c ACHR              1 COM_STRING_SPACE           0-0-0/c ACHR              1 CSEARCH_STRING
     0-0-0/w STRC(57888) r     1 C_SET_B                    0-0-0/w STRC(72)          1 INCLUDES_B
     0-0-0/w STRC(144)   r     1 INCL_B                     0-0-0/w STRC(5436)  r     1 ITEM_B
     0-0-0/w STRC(5652)  r     1 KEY_B                      0-0-0N  NULL        r     1 M$LO
     0-0-0N  NULL        r     1 M$OU                       0-0-0N  NULL        r     1 M$SI
     0-0-0N  NULL        r     1 M$SO                       0-0-0N  NULL        r     1 M$UI
     0-0-0/c ACHR              1 PATH_STRINGS               0-0-0/w STRC(90)          1 PREFIX
     0-0-0/w ASTR(72)    r     1 PREFIXCHR                  0-0-0/w STRC(2)     r     1 SB
     0-0-0/w STRC              1 STRING                     0-0-0/w ASTR(18)    r     1 STRINGCHR
     0-0-0/w STRC(351)         1 SYMBOL


   Procedure DERIV_COST requires 137 words for executable code.
   Procedure DERIV_COST requires 18 words of local(AUTO) storage.

    No errors detected in file LR_LASET.:Z8A6TSI    .
