PL6.E3A0      #002=SEMANTICS File=LR_NRGRAM.:Z8A6TSI                             SAT 08/09/97 09:39 Page:124
       84        1        /*M* SEMANTICS FOR THE SYNTACTICAL PARSER */
       85        2        /*T***********************************************************/
       86        3        /*T*                                                         */
       87        4        /*T* Copyright (c) Bull HN Information Systems Inc., 1997    */
       88        5        /*T*                                                         */
       89        6        /*T***********************************************************/
       90        7
       91        8
       92        9        /*P*
       93       10             NAME: SEMANTICS
       94       11          PURPOSE: Provide the semantics actions needed by the syntactical
       95       12                   parser.  They are specified by the grammar.
       96       13        */
       97       14
       98       15
       99       16
      100       17
      101       18         SEMANTICS:PROC(ACTION);
      102       19
      103       20
      104       21
      105       22        /*D*
      106       23               NAME: SEMANTICS
      107       24        DESCRIPTION: Semantic actions are needed to:
      108       25                     1. convert quoted strings into a nonquoted string format.
      109       26                     2. add symbols to the symbol table.
      110       27                     3. build the internal representation of the grammar that
      111       28                        is needed by other phases.
      112       29
      113       30        */
      114       31
      115       32    1    DCL ACTION SBIN;
      116       33
      117       34         %INCLUDE PADPDA_SUBS;
      118      396         %INCLUDE PARSER_DNT;
      119      412         %INCLUDE PARSER_STATE;
      120      468        %SET KLUDGE_FLAG = '1'B;
PL6.E3A0      #002=SEMANTICS File=LR_NRGRAM.:Z8A6TSI                             SAT 08/09/97 09:39 Page:125
      121      469         %INCLUDE PARSER_STACK;
      122      523          %INCLUDE LR_GRAM_EXT;
      123     1062
      124     1063    1    DCL OUT_STR ENTRY(2);
      125     1064    1    DCL FLUSH ENTRY;
      126     1065    1    DCL DIAG ENTRY(6);
      127     1066    1    DCL LIMCHK ENTRY(4);
      128     1067    1    DCL STRIP_PL6 ENTRY;
      129     1068    1    DCL RESET_SCANNER ENTRY;
      130     1069
      131     1070    1    DCL LX_INDEX SBIN ; /* INDEX IN LX_STK */
      132     1071    1    DCL LHS_INDEX SBIN STATIC INIT(-1); /* INDEX IN SYM_PTRS FOR CURRENT LHS TOKEN */
      133     1072    1    DCL TARGET SBIN; /* INDEX IN SYM_PTRS FOR CURRENT TOKEN */
      134     1073    1    DCL SYM_PTR PTR; /* POINTER TO SYMBOL TABLE ENTRY */
      135     1074
      136     1075    1    DCL DNT_PTR PTR; /* POINTER TO NAME */
      137     1076
      138     1077    1    DCL EMPTY_SYMBOL_PTR PTR STATIC INIT(ADDR(EMPTY_SYMBOL_PTR));
      139     1078
      140     1079    1    DCL LAST_INS_COST SBIN WORD STATIC INIT(DEFAULT_INS_COST);
      141     1080    1    DCL LAST_DEL_COST SBIN WORD STATIC INIT(DEFAULT_DEL_COST);
      142     1081    1    DCL LAST_LEFT_ASSOC BOOLEAN STATIC INIT(FALSE);
      143     1082    1    DCL LAST_RIGHT_ASSOC BOOLEAN STATIC INIT(FALSE);
      144     1083    1    DCL ORDER_SYM_PTR PTR STATIC;
      145     1084
      146     1085    1   DCL FORCE_LIST ENTRY;
      147     1086    1   DCL II SBIN;
      148     1087        %MACRO INDICATE_ERROR(C=1);
      149     1088           CALL FORCE_LIST;
      150     1089           CALL FLUSH;
      151     1090            DO II = 1 TO C - 1 + LENGTHC(KEY_REC);
      152     1091              %OUT_STR(S="' '");
      153     1092           END;
      154     1093           %OUT_STR(S="'1'");
      155     1094           CALL FLUSH;
      156     1095        %MEND;
      157     1096    1    DCL SSSCOMMENT BOOLEAN STATIC INIT(TRUE);
PL6.E3A0      #002=SEMANTICS File=LR_NRGRAM.:Z8A6TSI                             SAT 08/09/97 09:39 Page:126
      158     1097
      159     1098
      160     1099        /* FIX_QUOTED_STRING */
      161     1100
      162     1101
      163     1102
      164     1103    1   FIX_QUOTED_STRING: PROC(LENGTH,TEXT);
      165     1104    2   DCL LENGTH SBIN WORD;
      166     1105    2   DCL TEXT CHAR(140);
      167     1106
      168     1107    2   DCL START SBIN WORD;
      169     1108    2   DCL STOP SBIN WORD;
      170     1109    2   DCL NEWSTART SBIN WORD;
      171     1110    2   DCL NEWTEXT CHAR(140);
      172     1111
      173     1112    2   START = 1 ; /* SKIP INITIAL QUOTE */
      174     1113    2   STOP = LENGTH - 2; /* SKIP FINAL QUOTE */
      175     1114    2   NEWSTART = 0;
      176     1115
      177     1116    3   DO WHILE START <= STOP;
      178     1117    3      IF SUBSTR(TEXT,START,1) = ''''
      179     1118    3      THEN START = START + 1; /* SKIP A QUOTE */
      180     1119    3      SUBSTR(NEWTEXT,NEWSTART,1) = SUBSTR(TEXT,START,1);
      181     1120    3      NEWSTART = NEWSTART + 1;
      182     1121    3      START = START + 1;
      183     1122    3   END;
      184     1123
      185     1124    2   LENGTH = NEWSTART;
      186     1125    2   CALL INSERT(TEXT,,,SUBSTR(NEWTEXT,0,LENGTH),'%%  ');
      187     1126
      188     1127    2   END FIX_QUOTED_STRING;
      189     1128
      190     1129
      191     1130        /* LOOK_UP_SYMBOL */
      192     1131
      193     1132
      194     1133    1    LOOK_UP_SYMBOL: PROC(SYM_TYPE);
PL6.E3A0      #002=SEMANTICS File=LR_NRGRAM.:Z8A6TSI                             SAT 08/09/97 09:39 Page:127
      195     1134    2    DCL SYM_TYPE SBIN; /* SYMBOL TYPE */
      196     1135
      197     1136    2    DCL SYMLEN SBIN; /* NUMBER OF CHARACTERS IN NAME */
      198     1137    2    DCL NEWLEN SBIN;
      199     1138    2    DCL HASHVAL SBIN;
      200     1139    2    DCL I SBIN; /* THE EVER PRESENT DO LOOP VARIABLE */
      201     1140
      202     1141    2    DCL FOUND BOOLEAN;
      203     1142    2    DCL QUOTED_REP BOOLEAN;
      204     1143
      205     1144    2    DCL P$ PTR; /* SYMBOL TABLE LOOKUP */
      206     1145    2    DCL NEW$ PTR; /* SYMBOL POINTER */
      207     1146
      208     1147    2    DCL TEXTCHAR CHAR(140); /* TEMP TO HOLD STRING */
      209     1148    2    DCL TEXTWORD(0:34) REDEF TEXTCHAR SBIN WORD;
      210     1149
      211     1150    2    DCL HASH_HEADS(0:HASH_MOD) PTR EXT;
      212     1151
      213     1152    2    SYMLEN = LX_STK.DNTPTR(LX_INDEX)->DNT.TEXT.LENGTH - 2; /* DON'T COUNT %% */
      214     1153    2    CALL INSERT(TEXTCHAR,,,LX_STK.DNTPTR(LX_INDEX)->DNT.TEXT.NAME);
      215     1154    2    IF SYMLEN > 1 AND
      216     1155    2       SUBSTR(TEXTCHAR,0,1) = ''''
      217     1156    3    THEN DO;
      218     1157    3         QUOTED_REP = TRUE;
      219     1158    3         CALL FIX_QUOTED_STRING(SYMLEN,TEXTCHAR);
      220     1159    3    END;
      221     1160    2    ELSE QUOTED_REP = FALSE;
      222     1161    2    HASHVAL = SYMLEN;
      223     1162    3    DO I = (SYMLEN+3)/4 + 1 DOWNTO 0;
      224     1163    3       HASHVAL = MOD(HASHVAL*13 + TEXTWORD(I), HASH_MOD);
      225     1164    3       HASHVAL = MOD(HASHVAL*HASH_MUL+TEXTWORD(I), HASH_MOD);
      226     1165    3    END;
      227     1166
      228     1167    2    P$ = HASH_HEADS(HASHVAL);
      229     1168    2    FOUND = FALSE;
      230     1169
      231     1170    3    DO WHILE( NOT (P$=ADDR(NIL)));
PL6.E3A0      #002=SEMANTICS File=LR_NRGRAM.:Z8A6TSI                             SAT 08/09/97 09:39 Page:128
      232     1171    3       IF (P$ = ERROR_SYMBOL_PTR  OR
      233     1172    3           P$ = EMPTY_SYMBOL_PTR  OR
      234     1173    3           P$ = EOF_SYMBOL_PTR    OR
      235     1174    3           P$ = BOF_SYMBOL_PTR  )
      236     1175    3       THEN IF QUOTED_REP
      237     1176    3            THEN P$ = P$->SYMBOL.HASH_FLINK; /* NOT PREDEFINED SYMBOL */
      238     1177    3            ELSE IF (P$->SYMBOL.SYMLEN = SYMLEN) AND
      239     1178    3                     SUBSTR(P$->SYMBOL.TEXTCHR,0,P$->SYMBOL.SYMLEN) =
      240     1179    3                         SUBSTR(TEXTCHAR,0,SYMLEN)
      241     1180    4                 THEN DO; /* FOUND A PREDEFINED SYMBOL */
      242     1181    4                      FOUND = TRUE;
      243     1182    4                      LX_STK.SYMPTR(LX_INDEX) = P$;
      244     1183    4                      TARGET = P$->SYMBOL.SYM_INDX;
      245     1184    4                      SYM_PTR = P$;
      246     1185    4                      P$ =ADDR(NIL);
      247     1186    4                 END;
      248     1187    3                 ELSE P$ = P$->SYMBOL.HASH_FLINK; /* ONLY HASHED TO SAME PLACE */
      249     1188    3       ELSE IF (P$->SYMBOL.SYMLEN = SYMLEN) AND
      250     1189    3                SUBSTR(P$->SYMBOL.TEXTCHR,0,P$->SYMBOL.SYMLEN) =
      251     1190    3                  SUBSTR(TEXTCHAR,0,SYMLEN)
      252     1191    3            THEN IF P$->SYMBOL.QUOTED_REP = QUOTED_REP
      253     1192    4                 THEN DO; /* EXACT SAME SYMBOL */
      254     1193    4                      FOUND = TRUE;
      255     1194    4                      LX_STK.SYMPTR(LX_INDEX) = P$;
      256     1195    4                      TARGET = P$->SYMBOL.SYM_INDX;
      257     1196    4                      SYM_PTR = P$;
      258     1197    4                      P$ = ADDR(NIL);
      259     1198    4                 END;
      260     1199    3                 ELSE IF SUBSTR(TEXTCHAR,0,SYMLEN) = '=ERROR='
      261     1200    3                           OR SUBSTR(TEXTCHAR,0,SYMLEN) = '=EMPTY='
      262     1201    3                           OR SUBSTR(TEXTCHAR,0,SYMLEN) = '=END_OF_FILE='
      263     1202    3                           OR SUBSTR(TEXTCHAR,0,SYMLEN) = '=BEGINNING_OF_FILE='
      264     1203    3                      THEN P$ = P$->SYMBOL.HASH_FLINK; /* NOT EXACT SYMBOL */
      265     1204    4                      ELSE DO; /* NOT EXACT BUT CLOSE ENOUGH */
      266     1205                                %INDICATE_ERROR(C="LX_STK.COLUMN(LX_INDEX)");
      267     1218    4                           CALL DIAG(1,
              1218                                 ' WARNING => Symbol used with and without apostrophes : %%'
PL6.E3A0      #002=SEMANTICS File=LR_NRGRAM.:Z8A6TSI                             SAT 08/09/97 09:39 Page:129
              1218                                    ,
      268     1219    4                                     P$->SYMBOL.TEXTCHR);
      269     1220    4                           FOUND = TRUE;
      270     1221    4                           LX_STK.SYMPTR(LX_INDEX) = P$;
      271     1222    4                           TARGET = P$->SYMBOL.SYM_INDX;
      272     1223    4                           SYM_PTR = P$;
      273     1224    4                           P$ = ADDR(NIL);
      274     1225    4                      END;
      275     1226    3            ELSE P$ = P$->SYMBOL.HASH_FLINK; /* ONLY HASHED TO SAME PLACE */
      276     1227    3    END; /* OF CHECKING SYMBOL TABLE */
      277     1228    2    IF NOT FOUND
      278     1229    3    THEN DO ;/* PUT IT IN THE SYMBOL TABLE */
      279     1230    3         P$ = HASH_HEADS(HASHVAL);
      280     1231    3         NEWLEN = (LENGTHC(SYMBOL) - LENGTHC(SYMBOL.TEXTCHR) + SYMLEN + 7)/4;
      281     1232    3         CALL GETNEW(NEW$,NEWLEN);
      282     1233    3         NEW$->SYMBOL.HASH_FLINK = P$;
      283     1234    3         HASH_HEADS(HASHVAL) = NEW$;
      284     1235    3         CALL INSERT(NEW$->SYMBOL.TEXTCHR,0,SYMLEN+2,TEXTCHAR);
      285     1236    3         NEW$->SYMBOL.SYM_TYPE = SYM_TYPE;
      286     1237    3         NEW$->SYMBOL.SYMLEN = SYMLEN;
      287     1238    3         NEW$->SYMBOL.ORDER_SPECIFIED = FALSE;
      288     1239    3         NEW$->SYMBOL.COSTS_SPECIFIED = FALSE;
      289     1240    3         NEW$->SYMBOL.ORDER = 0;
      290     1241    3         NEW$->SYMBOL.SEM_PROD_REQ = FALSE;
      291     1242    3         NEW$->SYMBOL.LEFT_ASSOC = FALSE;
      292     1243    3         NEW$->SYMBOL.RIGHT_ASSOC = FALSE;
      293     1244    3         NEW$->SYMBOL.QUOTED_REP = QUOTED_REP;
      294     1245    3         NR_SYMS = NR_SYMS + 1;
      295     1246    3         CALL LIMCHK(15,NR_SYMS,NR_SYMS_MAX,
      296     1247    3                     'Symbol table space exhausted %%');
      297     1248    3         NEW$->SYMBOL.SYM_INDX = NR_SYMS;
      298     1249    3         SYM_PTRS(NR_SYMS) = NEW$;
      299     1250    3         TARGET = NR_SYMS;
      300     1251    3         SYM_PTR = NEW$;
      301     1252    3         LX_STK.SYMPTR(LX_INDEX) = NEW$;
      302     1253              /* CHECK FOR SPECIAL TOKENS */
      303     1254
PL6.E3A0      #002=SEMANTICS File=LR_NRGRAM.:Z8A6TSI                             SAT 08/09/97 09:39 Page:130
      304     1255    3         IF NOT QUOTED_REP
      305     1256    3         THEN
      306     1257    3              IF SYMLEN = 13
      307     1258    3              THEN IF '=END_OF_FILE=' = SUBSTR(TEXTCHAR,0,SYMLEN)
      308     1259    3                   THEN EOF_SYMBOL_PTR = NEW$;
      309     1260    3                   ELSE;
      310     1261    3              ELSE IF SYMLEN = 7
      311     1262    3                   THEN IF '=ERROR=' = SUBSTR(TEXTCHAR,0,SYMLEN)
      312     1263    3                        THEN ERROR_SYMBOL_PTR = NEW$;
      313     1264    3                        ELSE;
      314     1265    3                   ELSE IF SYMLEN = 19
      315     1266    3                        THEN IF '=BEGINNING_OF_FILE=' = SUBSTR(TEXTCHAR,0,SYMLEN)
      316     1267    3                             THEN BOF_SYMBOL_PTR = NEW$;
      317     1268    3     END; /* OF ADDING TO SYMBOL TABLE */
      318     1269
      319     1270    2    END LOOK_UP_SYMBOL;
      320     1271        %EJECT;
PL6.E3A0      #002=SEMANTICS File=LR_NRGRAM.:Z8A6TSI                             SAT 08/09/97 09:39 Page:131
      321     1272         %MACRO FINISH_CURRENT_RULE;
      322     1273
      323     1274         %MEND;
      324     1275
      325     1276
      326     1277         %MACRO NEW_PRODUCTION;
      327     1278            CALL LIMCHK(15,NR_PROD,NR_PROD_MAX,
      328     1279                              'Too many productions %%');
      329     1280            PROD.GOAL_SYM_INDX(NR_PROD) = LHS_INDEX;
      330     1281            PROD.RIGHT_CNT(NR_PROD) = 0;
      331     1282            PROD.RIGHT_START(NR_PROD) = NR_ONRIGHT +1;
      332     1283            SYM_PTRS(LHS_INDEX)->SYMBOL.PROD_CNT =
      333     1284                SYM_PTRS(LHS_INDEX)->SYMBOL.PROD_CNT + 1;
      334     1285            NR_PROD = NR_PROD + 1;
      335     1286         %MEND;
      336     1287
      337     1288         %MACRO ADD_TOKEN_TO_RULE;
      338     1289            IF SYM_PTR ~= EMPTY_SYMBOL_PTR /* IF CURRENT TOKEN NOT =EMPTY= */
      339     1290            THEN DO;
      340     1291                 NR_ONRIGHT = NR_ONRIGHT + 1;
      341     1292                 CALL LIMCHK(15,NR_ONRIGHT,NR_RIGHT_MAX,
      342     1293                                'Right_parts table overflow %%');
      343     1294                 RIGHT_PARTS(NR_ONRIGHT) = SYM_PTR->SYMBOL.SYM_INDX;
      344     1295                 SYM_PTR->SYMBOL.ON_RIGHT = TRUE;
      345     1296                 PROD.RIGHT_CNT(NR_PROD-1) = PROD.RIGHT_CNT(NR_PROD-1) + 1;
      346     1297            END; /* OF NOT HAVING =EMPTY= */
      347     1298         %MEND;
      348     1299
      349     1300        %EJECT;
PL6.E3A0      #002=SEMANTICS File=LR_NRGRAM.:Z8A6TSI                             SAT 08/09/97 09:39 Page:132
      350     1301    2   DO CASE(ACTION);
      351     1302    2   CASE(%START_PROD);
      352     1303            %FINISH_CURRENT_RULE;
      353     1305    2       LX_INDEX = LX_TOP - 1;
      354     1306    2       SYM_PTR = LX_STK.SYMPTR(LX_INDEX);
      355     1307             %NEW_PRODUCTION;
      356     1317    2   CASE(%ADD_TO_RULE);
      357     1318    2       LX_INDEX = LX_TOP;
      358     1319    2       SYM_PTR = LX_STK.SYMPTR(LX_INDEX);
      359     1320            %ADD_TOKEN_TO_RULE;
      360     1331    2   CASE(%NEXT_RULE);
      361     1332            %FINISH_CURRENT_RULE;
      362     1334            %NEW_PRODUCTION;
      363     1344    2   CASE(%LHSTOKEN_ACTION);
      364     1345    2       LX_INDEX = LX_TOP;
      365     1346    2       CALL LOOK_UP_SYMBOL(SYM_TYPE_TERM);
      366     1347            /* VERIFY ITS SUITABLITY FOR BEING ON LHS */
      367     1348    3       DO CASE( SYM_PTR->SYMBOL.SYM_TYPE);
      368     1349    3          CASE(SYM_TYPE_TERM);
      369     1350    3              SYM_PTR->SYMBOL.SYM_TYPE = SYM_TYPE_NT;
      370     1351    3              SYM_PTR->SYMBOL.PROD_INDX = NR_PROD;
      371     1352    3              SYM_PTR->SYMBOL.PROD_CNT = 0;
      372     1353    3              LHS_INDEX = TARGET;
      373     1354    3          CASE(SYM_TYPE_NT);
      374     1355                   /* DUPLICATE DEFINITION */
      375     1356                   %INDICATE_ERROR(C="LX_STK.COLUMN(LX_INDEX)");
      376     1369    3              CALL DIAG(6,' ERROR => Duplicate definition for : %%',
      377     1370    3                          SYM_PTR->SYMBOL.TEXTCHR);
      378     1371    3       END; /* CASE ON SYM TYPE */
      379     1372    2       SYM_PTR->SYMBOL.ON_LEFT = TRUE;
      380     1373    2   CASE(%RHSTOKEN_ACTION);
      381     1374    2       LX_INDEX = LX_TOP;
      382     1375    2       CALL LOOK_UP_SYMBOL(SYM_TYPE_TERM);
      383     1376    2   CASE(%SEMANTIC_ACTION);
      384     1377    2       LX_INDEX = LX_TOP;
      385     1378    2       CALL LOOK_UP_SYMBOL(SYM_TYPE_ACT);
      386     1379    2       ORDER_SYM_PTR = LX_STK.SYMPTR(LX_TOP);
PL6.E3A0      #002=SEMANTICS File=LR_NRGRAM.:Z8A6TSI                             SAT 08/09/97 09:39 Page:133
      387     1380    2   CASE(%TERMINAL_ACTION);
      388     1381    2      LX_INDEX = LX_TOP;
      389     1382    2      CALL LOOK_UP_SYMBOL(SYM_TYPE_TERM);
      390     1383    2      ORDER_SYM_PTR = LX_STK.SYMPTR(LX_TOP);
      391     1384    2   CASE(%ORDER_ACTION);
      392     1385    2      IF ORDER_SYM_PTR->SYMBOL.ORDER_SPECIFIED
      393     1386    3      THEN DO;
      394     1387                %INDICATE_ERROR(C="LX_STK.COLUMN(LX_TOP)");
      395     1400    3           CALL DIAG(7,
      396     1401    3                 ' ERROR => Ordering already specified for terminal symbol : %%',
      397     1402    3                     ORDER_SYM_PTR -> SYMBOL.TEXTCHR);
      398     1403    3      END;
      399     1404    2      LAST_ORDER_SPECIFIED = LAST_ORDER_SPECIFIED + 1;
      400     1405    2      ORDER_SYM_PTR->SYMBOL.ORDER_SPECIFIED = TRUE;
      401     1406    2      ORDER_SYM_PTR->SYMBOL.ORDER = LAST_ORDER_SPECIFIED;
      402     1407    2      ORDER_SYM_PTR->SYMBOL.COST.INS = LAST_INS_COST;
      403     1408    2      ORDER_SYM_PTR->SYMBOL.COST.DEL = LAST_DEL_COST;
      404     1409    2      ORDER_SYM_PTR->SYMBOL.COSTS_SPECIFIED = TRUE;
      405     1410    2      ORDER_SYM_PTR->SYMBOL.LEFT_ASSOC = LAST_LEFT_ASSOC;
      406     1411    2      ORDER_SYM_PTR->SYMBOL.RIGHT_ASSOC = LAST_RIGHT_ASSOC;
      407     1412    2      LAST_INS_COST = DEFAULT_INS_COST;
      408     1413    2      LAST_DEL_COST = DEFAULT_DEL_COST;
      409     1414    2      LAST_LEFT_ASSOC = FALSE;
      410     1415    2      LAST_RIGHT_ASSOC = FALSE;
      411     1416    2   CASE(%INSERT_ACTION);
      412     1417    2      DNT_PTR = LX_STK.DNTPTR(LX_TOP);
      413     1418    2      CALL CHARBIN(LAST_INS_COST,
      414     1419    2             SUBSTR(DNT_PTR->DNT.TEXT.NAME,0,DNT_PTR->DNT.TEXT.LENGTH-2));
      415     1420    2   CASE(%DELETE_ACTION);
      416     1421    2      DNT_PTR = LX_STK.DNTPTR(LX_TOP);
      417     1422    2      CALL CHARBIN(LAST_DEL_COST,
      418     1423    2                   SUBSTR(DNT_PTR->DNT.TEXT.NAME,0,DNT_PTR->DNT.TEXT.LENGTH-2));
      419     1424    2   CASE(%LEFT_ACTION);
      420     1425    2      LAST_LEFT_ASSOC = TRUE;
      421     1426    2      LAST_RIGHT_ASSOC = FALSE;
      422     1427    2   CASE(%RIGHT_ACTION);
      423     1428    2      LAST_LEFT_ASSOC = FALSE;
PL6.E3A0      #002=SEMANTICS File=LR_NRGRAM.:Z8A6TSI                             SAT 08/09/97 09:39 Page:134
      424     1429    2      LAST_RIGHT_ASSOC = TRUE;
      425     1430    2   CASE(%EMPTY_TOKEN_ACTION);
      426     1431    2      LX_STK.SYMPTR(LX_TOP) = EMPTY_SYMBOL_PTR;
      427     1432    2   CASE(%SSS_ACTION);
      428     1433    2      SSSCOMMENT = ~ SSSCOMMENT;
      429     1434    2      IF SSSCOMMENT
      430     1435    3      THEN DO;
      431     1436    3           CALL STRIP_PL6;
      432     1437    3           CALL RESET_SCANNER;
      433     1438    3      END;
      434     1439    2   CASE(%SSMS_ACTION);
      435     1440    2      SSSCOMMENT = TRUE;
      436     1441    2      CALL STRIP_PL6;
      437     1442    2      CALL RESET_SCANNER;
      438     1443    2   CASE(%ORDER_SEMANTIC_ACTION);
      439     1444    2      IF ORDER_SYM_PTR -> SYMBOL.ORDER_SPECIFIED THEN
      440     1445    3        DO;
      441     1446               %INDICATE_ERROR (C="LX_STK.COLUMN(LX_TOP)");
      442     1459    3          CALL DIAG(7,
      443     1460    3                 ' ERROR => Ordering already specified for semantic action symbol : %%'
              1460                          ,
      444     1461    3                 ORDER_SYM_PTR -> SYMBOL.TEXTCHR);
      445     1462    3        END;
      446     1463    2      SEMANTIC_ORDERING = TRUE;
      447     1464    2      DNT_PTR = LX_STK.DNTPTR(LX_TOP);
      448     1465    2      CALL CHARBIN (II,
      449     1466    2                    SUBSTR(DNT_PTR -> DNT.TEXT.NAME,
      450     1467    2                           0,
      451     1468    2                           DNT_PTR -> DNT.TEXT.LENGTH - 2));
      452     1469    2      ORDER_SYM_PTR -> SYMBOL.ORDER_SPECIFIED = TRUE;
      453     1470    2      ORDER_SYM_PTR -> SYMBOL.ORDER = II;
      454     1471    2   END /* OF CASE ON ACTION */ ;
      455     1472    1    END SEMANTICS;
      456     1473        %EOD;

PL6.E3A0      #002=SEMANTICS File=LR_NRGRAM.:Z8A6TSI                             SAT 08/09/97 09:39 Page:135
--  Include file information  --

   LR_IO_EXT.:Z8A6TOU  cannot be made into a system file and is referenced.
   LR_GRAM_EXT.:Z8A6TOU  cannot be made into a system file and is referenced.
   PARSER_STACK.:Z8A6TOU  cannot be made into a system file and is referenced.
   PARSER_STATE.:Z8A6TOU  cannot be made into a system file and is referenced.
   PARSER_DNT.:Z8A6TOU  cannot be made into a system file and is referenced.
   PADPDA_SUBS.:Z8A6TOU  is referenced.
      No diagnostics issued in procedure SEMANTICS.

   Procedure SEMANTICS requires 724 words for executable code.
   Procedure SEMANTICS requires 102 words of local(AUTO) storage.

PL6.E3A0      #002=SEMANTICS File=LR_NRGRAM.:Z8A6TSI                             SAT 08/09/97 09:39 Page:136

 Object Unit name= SEMANTICS                                  File name= LR_NRGRAM.:Z8A6TOU
 UTS= AUG 09 '97 09:39:04.68 SAT                              Compiler= PL-6/E31         Sev=      00
 SharedLib= :SHARED_SYSTEM                                    Alt SharedLib=


    ****  Control sections  ****

 Sect   Type Bound  Init  Size OctSiz  Section name(segment info)
    0  LblCom even  none     1      1  STATE
    1  LblCom even  none     1      1  LA_CNT
    2  LblCom even  none     1      1  LA_PUT
    3  LblCom even  none     1      1  LA_GET
    4  LblCom even  none     1      1  REDUCTION
    5  LblCom even  none   501    765  PARSE_STACK
    6  LblCom even  none     1      1  PARSE_STACK_IDX
    7  LblCom even  none     1      1  ERRLINE
    8  LblCom even  none     1      1  ERRCOL
    9  LblCom even  none     1      1  ERR_LA_GET
   10  LblCom even  none     1      1  ERR_LA_PUT
   11  LblCom even  none     1      1  ERR_LA_CNT
   12  LblCom even  none     1      1  ERR_RECOVERY_IN_PROGRESS
   13  LblCom even  none     1      1  PARSE_ERROR_COUNT
   14  LblCom even  none   501    765  ALT_PARSE_STACK
   15  LblCom even  none     1      1  ALT_PARSE_STACK_IDX
   16  LblCom even  none   501    765  RED_STACK
   17  LblCom even  none     1      1  RED_STACK_TOP
   18  LblCom even  none     1      1  IED_FLAG
   19  LblCom even  none     1      1  ALT_LX_TOP
   20  LblCom even  none    53     65  CORRECTION
   21  LblCom even  none   306    462  LA_STK
   22  LblCom even  none     1      1  LX_TOP
   23  LblCom even  none   306    462  LX_STK
   24  LblCom even  none     1      1  OUT_DCBN
   25   DCB   even  none     0      0  M$OU
   26   DCB   even  none     0      0  M$SO
   27   DCB   even  none     0      0  M$LO
   28   DCB   even  none     0      0  M$SI
PL6.E3A0      #002=SEMANTICS File=LR_NRGRAM.:Z8A6TSI                             SAT 08/09/97 09:39 Page:137
   29   DCB   even  none     0      0  M$UI
   30  LblCom even  none  1401   2571  SYM_PTRS
   31  LblCom even  none  4001   7641  RIGHT_PARTS
   32  LblCom even  none  3002   5672  PROD
   33  LblCom even  none     1      1  NR_PROD
   34  LblCom even  none     1      1  NR_SYMS
   35  LblCom even  none     1      1  NR_TERM
   36  LblCom even  none     1      1  LAST_ACT
   37  LblCom even  none     1      1  LAST_NULL
   38  LblCom even  none     1      1  NR_ONRIGHT
   39  LblCom even  none     1      1  NR_NT
   40  LblCom even  none     1      1  PROD_LEN_MAX_EVER
   41  LblCom even  none     1      1  LAST_ORDER_SPECIFIED
   42  LblCom even  none     1      1  SEMANTIC_ORDERING
   43  LblCom even  none     1      1  ERR_SEV
   44  LblCom even  none     1      1  SET_LENGTHB
   45  LblCom even  none     1      1  SET_LENGTHW
   46  LblCom even  none     1      1  EOF_SYMBOL_PTR
   47  LblCom even  none     1      1  ERROR_SYMBOL_PTR
   48  LblCom even  none     1      1  BOF_SYMBOL_PTR
   49  LblCom even  none     1      1  OPTIONS
   50  LblCom even  none    26     32  OPTIONS_TEXT
   51  LblCom even  none   128    200  INSTR
   52  LblCom even  none     1      1  INSTR_LISTED
   53  LblCom even  none     1      1  INSTR_LEN
   54  LblCom even  none     1      1  INSTR_INDX
   55  LblCom even  none     1      1  EOF_FLAG
   56  LblCom even  none     3      3  KEY_REC
   57  LblCom even  none    28     34  LINE
   58  LblCom even  none     1      1  LINELEN
   59  LblCom even  none   205    315  TSTATS
   60   Data  even  none     8     10  SEMANTICS
   61  LblCom even  none   258    402  HASH_HEADS
   62  RoData even  UTS     94    136  SEMANTICS
   63   Proc  even  none   724   1324  SEMANTICS
   64  RoData even  none    48     60  SEMANTICS
PL6.E3A0      #002=SEMANTICS File=LR_NRGRAM.:Z8A6TSI                             SAT 08/09/97 09:39 Page:138

    ****  Entry defs  ****

                              Check   Calling
                             calling  sequence
  Sect OctLoc Primary Altret sequence   type   Parms  Name
    63      0   yes            yes      Std        1  SEMANTICS

  ****  Entry refs  ****

         Check        Calling
        calling       sequence
Altret sequence SRef   type   Args  Name
         yes           Std       4 LIMCHK
         yes           Std       6 DIAG
         yes           Std       0 RESET_SCANNER
         yes           Std       0 FORCE_LIST
         yes           Std       0 FLUSH
         yes           Std       0 STRIP_PL6
         yes           Std       2 OUT_STR
         yes           Std       2 GETNEW
                       nStd      0 X66_AUTO_1
                       nStd      0 X66_ARET

  ****  Data refs  ****

  Flags:  r = read only, s = secondary
Flgs Name                             Flgs Name                             Flgs Name
     M$OU                                  M$SO                                  M$LO
     M$SI                                  M$UI

  ****  Segment refs  ****

  Flags:  r = read only, s = secondary
Flgs Name                             Flgs Name                             Flgs Name
     NULLSID                               ISSID
PL6.E3A0      #002=SEMANTICS File=LR_NRGRAM.:Z8A6TSI                             SAT 08/09/97 09:39 Page:139


       84        1        /*M* SEMANTICS FOR THE SYNTACTICAL PARSER */
       85        2        /*T***********************************************************/
       86        3        /*T*                                                         */
       87        4        /*T* Copyright (c) Bull HN Information Systems Inc., 1997    */
       88        5        /*T*                                                         */
       89        6        /*T***********************************************************/
       90        7
       91        8
       92        9        /*P*
       93       10             NAME: SEMANTICS
       94       11          PURPOSE: Provide the semantics actions needed by the syntactical
       95       12                   parser.  They are specified by the grammar.
       96       13        */
       97       14
       98       15
       99       16
      100       17
      101       18         SEMANTICS:PROC(ACTION);

     18 63 000000   000000 700200 xent  SEMANTICS    TSX0  ! X66_AUTO_1
        63 000001   000146 000001                    ZERO    102,1
        63 000002   000547 710000 63                 TRA     s:1301

      102       19
      103       20
      104       21
      105       22        /*D*
      106       23               NAME: SEMANTICS
      107       24        DESCRIPTION: Semantic actions are needed to:
      108       25                     1. convert quoted strings into a nonquoted string format.
      109       26                     2. add symbols to the symbol table.
      110       27                     3. build the internal representation of the grammar that
      111       28                        is needed by other phases.
      112       29
      113       30        */
      114       31
PL6.E3A0      #002=SEMANTICS File=LR_NRGRAM.:Z8A6TSI                             SAT 08/09/97 09:39 Page:140
      115       32    1    DCL ACTION SBIN;
      116       33
      117       34         %INCLUDE PADPDA_SUBS;
      118      396         %INCLUDE PARSER_DNT;
      119      412         %INCLUDE PARSER_STATE;
      120      468        %SET KLUDGE_FLAG = '1'B;
      121      469         %INCLUDE PARSER_STACK;
      122      523          %INCLUDE LR_GRAM_EXT;
      123     1062
      124     1063    1    DCL OUT_STR ENTRY(2);
      125     1064    1    DCL FLUSH ENTRY;
      126     1065    1    DCL DIAG ENTRY(6);
      127     1066    1    DCL LIMCHK ENTRY(4);
      128     1067    1    DCL STRIP_PL6 ENTRY;
      129     1068    1    DCL RESET_SCANNER ENTRY;
      130     1069
      131     1070    1    DCL LX_INDEX SBIN ; /* INDEX IN LX_STK */
      132     1071    1    DCL LHS_INDEX SBIN STATIC INIT(-1); /* INDEX IN SYM_PTRS FOR CURRENT LHS TOKEN */
      133     1072    1    DCL TARGET SBIN; /* INDEX IN SYM_PTRS FOR CURRENT TOKEN */
      134     1073    1    DCL SYM_PTR PTR; /* POINTER TO SYMBOL TABLE ENTRY */
      135     1074
      136     1075    1    DCL DNT_PTR PTR; /* POINTER TO NAME */
      137     1076
      138     1077    1    DCL EMPTY_SYMBOL_PTR PTR STATIC INIT(ADDR(EMPTY_SYMBOL_PTR));
      139     1078
      140     1079    1    DCL LAST_INS_COST SBIN WORD STATIC INIT(DEFAULT_INS_COST);
      141     1080    1    DCL LAST_DEL_COST SBIN WORD STATIC INIT(DEFAULT_DEL_COST);
      142     1081    1    DCL LAST_LEFT_ASSOC BOOLEAN STATIC INIT(FALSE);
      143     1082    1    DCL LAST_RIGHT_ASSOC BOOLEAN STATIC INIT(FALSE);
      144     1083    1    DCL ORDER_SYM_PTR PTR STATIC;
      145     1084
      146     1085    1   DCL FORCE_LIST ENTRY;
      147     1086    1   DCL II SBIN;
      148     1087        %MACRO INDICATE_ERROR(C=1);
      149     1088           CALL FORCE_LIST;
      150     1089           CALL FLUSH;
      151     1090            DO II = 1 TO C - 1 + LENGTHC(KEY_REC);
PL6.E3A0      #002=SEMANTICS File=LR_NRGRAM.:Z8A6TSI                             SAT 08/09/97 09:39 Page:141
      152     1091              %OUT_STR(S="' '");
      153     1092           END;
      154     1093           %OUT_STR(S="'1'");
      155     1094           CALL FLUSH;
      156     1095        %MEND;
      157     1096    1    DCL SSSCOMMENT BOOLEAN STATIC INIT(TRUE);
      158     1097
      159     1098
      160     1099        /* FIX_QUOTED_STRING */
      161     1100
      162     1101
      163     1102
      164     1103    1   FIX_QUOTED_STRING: PROC(LENGTH,TEXT);

   1103 63 000003   200070 741300       FIX_QUOTED_* STX1  ! TEXTCHAR+36,,AUTO

      165     1104    2   DCL LENGTH SBIN WORD;
      166     1105    2   DCL TEXT CHAR(140);
      167     1106
      168     1107    2   DCL START SBIN WORD;
      169     1108    2   DCL STOP SBIN WORD;
      170     1109    2   DCL NEWSTART SBIN WORD;
      171     1110    2   DCL NEWTEXT CHAR(140);
      172     1111
      173     1112    2   START = 1 ; /* SKIP INITIAL QUOTE */

   1112 63 000004   000001 235007                    LDA     1,DL
        63 000005   200073 755100                    STA     START,,AUTO

      174     1113    2   STOP = LENGTH - 2; /* SKIP FINAL QUOTE */

   1113 63 000006   200071 470500                    LDP0    @LENGTH,,AUTO
        63 000007   000000 235100                    LDA     0,,PR0
        63 000010   000002 135007                    SBLA    2,DL
        63 000011   200074 755100                    STA     STOP,,AUTO

      175     1114    2   NEWSTART = 0;
PL6.E3A0      #002=SEMANTICS File=LR_NRGRAM.:Z8A6TSI                             SAT 08/09/97 09:39 Page:142

   1114 63 000012   200075 450100                    STZ     NEWSTART,,AUTO

      176     1115
      177     1116    3   DO WHILE START <= STOP;

   1116 63 000013   200073 236100                    LDQ     START,,AUTO
        63 000014   200074 116100                    CMPQ    STOP,,AUTO
        63 000015   000037 605400 63                 TPNZ    s:1124

      178     1117    3      IF SUBSTR(TEXT,START,1) = ''''

   1117 63 000016   200072 470500                    LDP0    @TEXT,,AUTO
        63 000017   200073 235100                    LDA     START,,AUTO
        63 000020   040000 106505                    CMPC    fill='040'O
        63 000021   000000 000001                    ADSC9   0,A,PR0                  cn=0,n=1
        63 000022   000000 000001 64                 ADSC9   0                        cn=0,n=1
        63 000023   000025 601000 63                 TNZ     s:1119

      179     1118    3      THEN START = START + 1; /* SKIP A QUOTE */

   1118 63 000024   200073 054100                    AOS     START,,AUTO

      180     1119    3      SUBSTR(NEWTEXT,NEWSTART,1) = SUBSTR(TEXT,START,1);

   1119 63 000025   200073 235100                    LDA     START,,AUTO
        63 000026   200075 236100                    LDQ     NEWSTART,,AUTO
        63 000027   040106 100505                    MLR     fill='040'O
        63 000030   000000 000001                    ADSC9   0,A,PR0                  cn=0,n=1
        63 000031   200076 000001                    ADSC9   NEWTEXT,Q,AUTO           cn=0,n=1

      181     1120    3      NEWSTART = NEWSTART + 1;

   1120 63 000032   200075 054100                    AOS     NEWSTART,,AUTO

      182     1121    3      START = START + 1;

PL6.E3A0      #002=SEMANTICS File=LR_NRGRAM.:Z8A6TSI                             SAT 08/09/97 09:39 Page:143
   1121 63 000033   200073 054100                    AOS     START,,AUTO

      183     1122    3   END;

   1122 63 000034   200073 236100                    LDQ     START,,AUTO
        63 000035   200074 116100                    CMPQ    STOP,,AUTO
        63 000036   000016 604400 63                 TMOZ    s:1117

      184     1123
      185     1124    2   LENGTH = NEWSTART;

   1124 63 000037   200071 470500                    LDP0    @LENGTH,,AUTO
        63 000040   200075 235100                    LDA     NEWSTART,,AUTO
        63 000041   000000 755100                    STA     0,,PR0

      186     1125    2   CALL INSERT(TEXT,,,SUBSTR(NEWTEXT,0,LENGTH),'%%  ');

   1125 63 000042   000000 720100                    LXL0    0,,PR0
        63 000043   200072 471500                    LDP1    @TEXT,,AUTO
        63 000044   040100 100540                    MLR     fill='040'O
        63 000045   200076 000010                    ADSC9   NEWTEXT,,AUTO            cn=0,n=*X0
        63 000046   100000 000214                    ADSC9   0,,PR1                   cn=0,n=140
        63 000047   000000 636010                    EAQ     0,X0
        63 000050   000022 772000                    QRL     18
        63 000051   000214 116007                    CMPQ    140,DL
        63 000052   000063 603000 63                 TRC     s:1127
        63 000053   200142 740100                    STX0    NEWTEXT+36,,AUTO
        63 000054   777563 620010                    EAX0    -141,X0
        63 000055   777777 660003                    ERX0    -1,DU
        63 000056   200142 236100                    LDQ     NEWTEXT+36,,AUTO
        63 000057   000022 772000                    QRL     18
        63 000060   040146 100400                    MLR     fill='040'O
        63 000061   000000 000004 62                 ADSC9   0                        cn=0,n=4
        63 000062   100000 000010                    ADSC9   0,Q,PR1                  cn=0,n=*X0

      187     1126
      188     1127    2   END FIX_QUOTED_STRING;
PL6.E3A0      #002=SEMANTICS File=LR_NRGRAM.:Z8A6TSI                             SAT 08/09/97 09:39 Page:144

   1127 63 000063   200070 221300                    LDX1  ! TEXTCHAR+36,,AUTO
        63 000064   000001 702211                    TSX2  ! 1,X1

      189     1128
      190     1129
      191     1130        /* LOOK_UP_SYMBOL */
      192     1131
      193     1132
      194     1133    1    LOOK_UP_SYMBOL: PROC(SYM_TYPE);

   1133 63 000065   200012 741300       LOOK_UP_SYM* STX1  ! II+1,,AUTO

      195     1134    2    DCL SYM_TYPE SBIN; /* SYMBOL TYPE */
      196     1135
      197     1136    2    DCL SYMLEN SBIN; /* NUMBER OF CHARACTERS IN NAME */
      198     1137    2    DCL NEWLEN SBIN;
      199     1138    2    DCL HASHVAL SBIN;
      200     1139    2    DCL I SBIN; /* THE EVER PRESENT DO LOOP VARIABLE */
      201     1140
      202     1141    2    DCL FOUND BOOLEAN;
      203     1142    2    DCL QUOTED_REP BOOLEAN;
      204     1143
      205     1144    2    DCL P$ PTR; /* SYMBOL TABLE LOOKUP */
      206     1145    2    DCL NEW$ PTR; /* SYMBOL POINTER */
      207     1146
      208     1147    2    DCL TEXTCHAR CHAR(140); /* TEMP TO HOLD STRING */
      209     1148    2    DCL TEXTWORD(0:34) REDEF TEXTCHAR SBIN WORD;
      210     1149
      211     1150    2    DCL HASH_HEADS(0:HASH_MOD) PTR EXT;
      212     1151
      213     1152    2    SYMLEN = LX_STK.DNTPTR(LX_INDEX)->DNT.TEXT.LENGTH - 2; /* DON'T COUNT %% */

   1152 63 000066   200005 236100                    LDQ     LX_INDEX,,AUTO
        63 000067   000006 402007                    MPY     6,DL
        63 000070   000003 470406 23                 LDP0    LX_STK+3,QL
        63 000071   000000 235100                    LDA     0,,PR0
PL6.E3A0      #002=SEMANTICS File=LR_NRGRAM.:Z8A6TSI                             SAT 08/09/97 09:39 Page:145
        63 000072   000002 135007                    SBLA    2,DL
        63 000073   200014 755100                    STA     SYMLEN,,AUTO

      214     1153    2    CALL INSERT(TEXTCHAR,,,LX_STK.DNTPTR(LX_INDEX)->DNT.TEXT.NAME);

   1153 63 000074   000000 720100                    LXL0    0,,PR0
        63 000075   040100 100540                    MLR     fill='040'O
        63 000076   000001 000010                    ADSC9   1,,PR0                   cn=0,n=*X0
        63 000077   200024 000214                    ADSC9   TEXTCHAR,,AUTO           cn=0,n=140

      215     1154    2    IF SYMLEN > 1 AND

   1154 63 000100   000001 115007                    CMPA    1,DL
        63 000101   000117 604400 63                 TMOZ    s:1160
        63 000102   200024 236100                    LDQ     TEXTCHAR,,AUTO
        63 000103   777000 376003                    ANQ     -512,DU
        63 000104   047000 116003                    CMPQ    19968,DU
        63 000105   000117 601000 63                 TNZ     s:1160

      216     1155    2       SUBSTR(TEXTCHAR,0,1) = ''''
      217     1156    3    THEN DO;

      218     1157    3         QUOTED_REP = TRUE;

   1157 63 000106   400000 236003                    LDQ     -131072,DU
        63 000107   200021 756100                    STQ     QUOTED_REP,,AUTO

      219     1158    3         CALL FIX_QUOTED_STRING(SYMLEN,TEXTCHAR);

   1158 63 000110   200024 630500                    EPPR0   TEXTCHAR,,AUTO
        63 000111   200072 450500                    STP0    @TEXT,,AUTO
        63 000112   200014 631500                    EPPR1   SYMLEN,,AUTO
        63 000113   200071 451500                    STP1    @LENGTH,,AUTO
        63 000114   000003 701000 63                 TSX1    FIX_QUOTED_STRING
        63 000115   000000 011000                    NOP     0

      220     1159    3    END;
PL6.E3A0      #002=SEMANTICS File=LR_NRGRAM.:Z8A6TSI                             SAT 08/09/97 09:39 Page:146

   1159 63 000116   000120 710000 63                 TRA     s:1161

      221     1160    2    ELSE QUOTED_REP = FALSE;

   1160 63 000117   200021 450100                    STZ     QUOTED_REP,,AUTO

      222     1161    2    HASHVAL = SYMLEN;

   1161 63 000120   200014 235100                    LDA     SYMLEN,,AUTO
        63 000121   200016 755100                    STA     HASHVAL,,AUTO

      223     1162    3    DO I = (SYMLEN+3)/4 + 1 DOWNTO 0;

   1162 63 000122   200014 236100                    LDQ     SYMLEN,,AUTO
        63 000123   000003 036007                    ADLQ    3,DL
        63 000124   000004 506007                    DIV     4,DL
        63 000125   000001 036007                    ADLQ    1,DL
        63 000126   200017 756100                    STQ     I,,AUTO
        63 000127   000145 710000 63                 TRA     s:1165+2

      224     1163    3       HASHVAL = MOD(HASHVAL*13 + TEXTWORD(I), HASH_MOD);

   1163 63 000130   200017 720100                    LXL0    I,,AUTO
        63 000131   200016 236100                    LDQ     HASHVAL,,AUTO
        63 000132   000015 402007                    MPY     13,DL
        63 000133   200024 036110                    ADLQ    TEXTCHAR,X0,AUTO
        63 000134   000401 506007                    DIV     257,DL
        63 000135   200016 755100                    STA     HASHVAL,,AUTO

      225     1164    3       HASHVAL = MOD(HASHVAL*HASH_MUL+TEXTWORD(I), HASH_MOD);

   1164 63 000136   200016 236100                    LDQ     HASHVAL,,AUTO
        63 000137   000057 402007                    MPY     47,DL
        63 000140   200024 036110                    ADLQ    TEXTCHAR,X0,AUTO
        63 000141   000401 506007                    DIV     257,DL
        63 000142   200016 755100                    STA     HASHVAL,,AUTO
PL6.E3A0      #002=SEMANTICS File=LR_NRGRAM.:Z8A6TSI                             SAT 08/09/97 09:39 Page:147

      226     1165    3    END;

   1165 63 000143   000001 336007                    LCQ     1,DL
        63 000144   200017 056100                    ASQ     I,,AUTO
        63 000145   200017 235100                    LDA     I,,AUTO
        63 000146   000130 605000 63                 TPL     s:1163

      227     1166
      228     1167    2    P$ = HASH_HEADS(HASHVAL);

   1167 63 000147   200016 720100                    LXL0    HASHVAL,,AUTO
        63 000150   000000 236010 61                 LDQ     HASH_HEADS,X0
        63 000151   200022 756100                    STQ     P$,,AUTO

      229     1168    2    FOUND = FALSE;

   1168 63 000152   200020 450100                    STZ     FOUND,,AUTO

      230     1169
      231     1170    3    DO WHILE( NOT (P$=ADDR(NIL)));

   1170 63 000153   000370 710000 63                 TRA     s:1227

      232     1171    3       IF (P$ = ERROR_SYMBOL_PTR  OR

   1171 63 000154   200022 236100                    LDQ     P$,,AUTO
        63 000155   000000 116000 47                 CMPQ    ERROR_SYMBOL_PTR
        63 000156   000165 600000 63                 TZE     s:1175
        63 000157   000001 116000 60                 CMPQ    EMPTY_SYMBOL_PTR
        63 000160   000165 600000 63                 TZE     s:1175
        63 000161   000000 116000 46                 CMPQ    EOF_SYMBOL_PTR
        63 000162   000165 600000 63                 TZE     s:1175
        63 000163   000000 116000 48                 CMPQ    BOF_SYMBOL_PTR
        63 000164   000225 601000 63                 TNZ     s:1188

      233     1172    3           P$ = EMPTY_SYMBOL_PTR  OR
PL6.E3A0      #002=SEMANTICS File=LR_NRGRAM.:Z8A6TSI                             SAT 08/09/97 09:39 Page:148
      234     1173    3           P$ = EOF_SYMBOL_PTR    OR
      235     1174    3           P$ = BOF_SYMBOL_PTR  )
      236     1175    3       THEN IF QUOTED_REP

   1175 63 000165   200021 234100                    SZN     QUOTED_REP,,AUTO
        63 000166   000173 605000 63                 TPL     s:1177

      237     1176    3            THEN P$ = P$->SYMBOL.HASH_FLINK; /* NOT PREDEFINED SYMBOL */

   1176 63 000167   200022 470500                    LDP0    P$,,AUTO
        63 000170   000000 236100                    LDQ     0,,PR0
        63 000171   200022 756100                    STQ     P$,,AUTO
        63 000172   000370 710000 63                 TRA     s:1227

      238     1177    3            ELSE IF (P$->SYMBOL.SYMLEN = SYMLEN) AND

   1177 63 000173   200022 470500                    LDP0    P$,,AUTO
        63 000174   000010 236100                    LDQ     8,,PR0
        63 000175   200014 116100                    CMPQ    SYMLEN,,AUTO
        63 000176   000222 601000 63                 TNZ     s:1187
        63 000177   000010 720100                    LXL0    8,,PR0
        63 000200   200014 721100                    LXL1    SYMLEN,,AUTO
        63 000201   040140 106540                    CMPC    fill='040'O
        63 000202   000011 000010                    ADSC9   9,,PR0                   cn=0,n=*X0
        63 000203   200024 000011                    ADSC9   TEXTCHAR,,AUTO           cn=0,n=*X1
        63 000204   000222 601000 63                 TNZ     s:1187

      239     1178    3                     SUBSTR(P$->SYMBOL.TEXTCHR,0,P$->SYMBOL.SYMLEN) =
      240     1179    3                         SUBSTR(TEXTCHAR,0,SYMLEN)
      241     1180    4                 THEN DO; /* FOUND A PREDEFINED SYMBOL */

      242     1181    4                      FOUND = TRUE;

   1181 63 000205   400000 236003                    LDQ     -131072,DU
        63 000206   200020 756100                    STQ     FOUND,,AUTO

      243     1182    4                      LX_STK.SYMPTR(LX_INDEX) = P$;
PL6.E3A0      #002=SEMANTICS File=LR_NRGRAM.:Z8A6TSI                             SAT 08/09/97 09:39 Page:149

   1182 63 000207   200005 236100                    LDQ     LX_INDEX,,AUTO
        63 000210   000006 402007                    MPY     6,DL
        63 000211   000000 620006                    EAX0    0,QL
        63 000212   200022 236100                    LDQ     P$,,AUTO
        63 000213   000004 756010 23                 STQ     LX_STK+4,X0

      244     1183    4                      TARGET = P$->SYMBOL.SYM_INDX;

   1183 63 000214   000001 235100                    LDA     1,,PR0
        63 000215   200006 755100                    STA     TARGET,,AUTO

      245     1184    4                      SYM_PTR = P$;

   1184 63 000216   200007 756100                    STQ     SYM_PTR,,AUTO

      246     1185    4                      P$ =ADDR(NIL);

   1185 63 000217   000001 236000 64                 LDQ     1
        63 000220   200022 756100                    STQ     P$,,AUTO

      247     1186    4                 END;

   1186 63 000221   000370 710000 63                 TRA     s:1227

      248     1187    3                 ELSE P$ = P$->SYMBOL.HASH_FLINK; /* ONLY HASHED TO SAME PLACE */

   1187 63 000222   000000 236100                    LDQ     0,,PR0
        63 000223   200022 756100                    STQ     P$,,AUTO
        63 000224   000370 710000 63                 TRA     s:1227

      249     1188    3       ELSE IF (P$->SYMBOL.SYMLEN = SYMLEN) AND

   1188 63 000225   200022 470500                    LDP0    P$,,AUTO
        63 000226   000010 236100                    LDQ     8,,PR0
        63 000227   200014 116100                    CMPQ    SYMLEN,,AUTO
        63 000230   000366 601000 63                 TNZ     s:1226
PL6.E3A0      #002=SEMANTICS File=LR_NRGRAM.:Z8A6TSI                             SAT 08/09/97 09:39 Page:150
        63 000231   000010 720100                    LXL0    8,,PR0
        63 000232   200014 721100                    LXL1    SYMLEN,,AUTO
        63 000233   040140 106540                    CMPC    fill='040'O
        63 000234   000011 000010                    ADSC9   9,,PR0                   cn=0,n=*X0
        63 000235   200024 000011                    ADSC9   TEXTCHAR,,AUTO           cn=0,n=*X1
        63 000236   000366 601000 63                 TNZ     s:1226

      250     1189    3                SUBSTR(P$->SYMBOL.TEXTCHR,0,P$->SYMBOL.SYMLEN) =
      251     1190    3                  SUBSTR(TEXTCHAR,0,SYMLEN)
      252     1191    3            THEN IF P$->SYMBOL.QUOTED_REP = QUOTED_REP

   1191 63 000237   000100 066500                    CMPB    filb='0'B
        63 000240   000004 100001                    BDSC    4,,PR0                   by=0,bit=8,n=1
        63 000241   200021 000001                    BDSC    QUOTED_REP,,AUTO         by=0,bit=0,n=1
        63 000242   000260 601000 63                 TNZ     s:1199

      253     1192    4                 THEN DO; /* EXACT SAME SYMBOL */

      254     1193    4                      FOUND = TRUE;

   1193 63 000243   400000 236003                    LDQ     -131072,DU
        63 000244   200020 756100                    STQ     FOUND,,AUTO

      255     1194    4                      LX_STK.SYMPTR(LX_INDEX) = P$;

   1194 63 000245   200005 236100                    LDQ     LX_INDEX,,AUTO
        63 000246   000006 402007                    MPY     6,DL
        63 000247   000000 620006                    EAX0    0,QL
        63 000250   200022 236100                    LDQ     P$,,AUTO
        63 000251   000004 756010 23                 STQ     LX_STK+4,X0

      256     1195    4                      TARGET = P$->SYMBOL.SYM_INDX;

   1195 63 000252   000001 235100                    LDA     1,,PR0
        63 000253   200006 755100                    STA     TARGET,,AUTO

      257     1196    4                      SYM_PTR = P$;
PL6.E3A0      #002=SEMANTICS File=LR_NRGRAM.:Z8A6TSI                             SAT 08/09/97 09:39 Page:151

   1196 63 000254   200007 756100                    STQ     SYM_PTR,,AUTO

      258     1197    4                      P$ = ADDR(NIL);

   1197 63 000255   000001 236000 64                 LDQ     1
        63 000256   200022 756100                    STQ     P$,,AUTO

      259     1198    4                 END;

   1198 63 000257   000370 710000 63                 TRA     s:1227

      260     1199    3                 ELSE IF SUBSTR(TEXTCHAR,0,SYMLEN) = '=ERROR='

   1199 63 000260   040000 106540                    CMPC    fill='040'O
        63 000261   200024 000011                    ADSC9   TEXTCHAR,,AUTO           cn=0,n=*X1
        63 000262   000001 000007 62                 ADSC9   1                        cn=0,n=7
        63 000263   000300 600000 63                 TZE     s:1203
        63 000264   040000 106540                    CMPC    fill='040'O
        63 000265   200024 000011                    ADSC9   TEXTCHAR,,AUTO           cn=0,n=*X1
        63 000266   000003 000007 62                 ADSC9   3                        cn=0,n=7
        63 000267   000300 600000 63                 TZE     s:1203
        63 000270   040000 106540                    CMPC    fill='040'O
        63 000271   200024 000011                    ADSC9   TEXTCHAR,,AUTO           cn=0,n=*X1
        63 000272   000005 000015 62                 ADSC9   5                        cn=0,n=13
        63 000273   000300 600000 63                 TZE     s:1203
        63 000274   040000 106540                    CMPC    fill='040'O
        63 000275   200024 000011                    ADSC9   TEXTCHAR,,AUTO           cn=0,n=*X1
        63 000276   000011 000023 62                 ADSC9   9                        cn=0,n=19
        63 000277   000303 601000 63                 TNZ     s:1206

      261     1200    3                           OR SUBSTR(TEXTCHAR,0,SYMLEN) = '=EMPTY='
      262     1201    3                           OR SUBSTR(TEXTCHAR,0,SYMLEN) = '=END_OF_FILE='
      263     1202    3                           OR SUBSTR(TEXTCHAR,0,SYMLEN) = '=BEGINNING_OF_FILE='
      264     1203    3                      THEN P$ = P$->SYMBOL.HASH_FLINK; /* NOT EXACT SYMBOL */

   1203 63 000300   000000 236100                    LDQ     0,,PR0
PL6.E3A0      #002=SEMANTICS File=LR_NRGRAM.:Z8A6TSI                             SAT 08/09/97 09:39 Page:152
        63 000301   200022 756100                    STQ     P$,,AUTO
        63 000302   000370 710000 63                 TRA     s:1227

      265     1204    4                      ELSE DO; /* NOT EXACT BUT CLOSE ENOUGH */

      266     1205                                %INDICATE_ERROR(C="LX_STK.COLUMN(LX_INDEX)");

   1206 63 000303   000002 631400 64                 EPPR1   2
        63 000304   000000 701000 xent               TSX1    FORCE_LIST
        63 000305   000000 011000                    NOP     0

   1207 63 000306   000002 631400 64                 EPPR1   2
        63 000307   000000 701000 xent               TSX1    FLUSH
        63 000310   000000 011000                    NOP     0

   1208 63 000311   000001 235007                    LDA     1,DL
        63 000312   200011 755100                    STA     II,,AUTO
        63 000313   000321 710000 63                 TRA     s:1212+1

   1210 63 000314   000006 630400 64                 EPPR0   6
        63 000315   000003 631400 64                 EPPR1   3
        63 000316   000000 701000 xent               TSX1    OUT_STR
        63 000317   000000 011000                    NOP     0

   1212 63 000320   200011 054100                    AOS     II,,AUTO
        63 000321   200005 236100                    LDQ     LX_INDEX,,AUTO
        63 000322   000006 402007                    MPY     6,DL
        63 000323   000002 236006 23                 LDQ     LX_STK+2,QL
        63 000324   000011 036007                    ADLQ    9,DL
        63 000325   000314 604000 63                 TMI     s:1210
        63 000326   200011 116100                    CMPQ    II,,AUTO
        63 000327   000314 605000 63                 TPL     s:1210

   1214 63 000330   000011 630400 64                 EPPR0   9
        63 000331   000003 631400 64                 EPPR1   3
        63 000332   000000 701000 xent               TSX1    OUT_STR
        63 000333   000000 011000                    NOP     0
PL6.E3A0      #002=SEMANTICS File=LR_NRGRAM.:Z8A6TSI                             SAT 08/09/97 09:39 Page:153

   1216 63 000334   000002 631400 64                 EPPR1   2
        63 000335   000000 701000 xent               TSX1    FLUSH
        63 000336   000000 011000                    NOP     0

      267     1218    4                           CALL DIAG(1,
              1218                                ' WARNING => Symbol used with and without apostrophes : %%'
              1218                                    ,

   1218 63 000337   200022 236100                    LDQ     P$,,AUTO
        63 000340   000011 036003                    ADLQ    9,DU
        63 000341   200144 756100                    STQ     NEWTEXT+38,,AUTO
        63 000342   000014 237000 64                 LDAQ    12
        63 000343   200142 757100                    STAQ    NEWTEXT+36,,AUTO
        63 000344   200142 630500                    EPPR0   NEWTEXT+36,,AUTO
        63 000345   000013 631400 64                 EPPR1   11
        63 000346   000000 701000 xent               TSX1    DIAG
        63 000347   000000 011000                    NOP     0

      268     1219    4                                     P$->SYMBOL.TEXTCHR);
      269     1220    4                           FOUND = TRUE;

   1220 63 000350   400000 236003                    LDQ     -131072,DU
        63 000351   200020 756100                    STQ     FOUND,,AUTO

      270     1221    4                           LX_STK.SYMPTR(LX_INDEX) = P$;

   1221 63 000352   200005 236100                    LDQ     LX_INDEX,,AUTO
        63 000353   000006 402007                    MPY     6,DL
        63 000354   000000 620006                    EAX0    0,QL
        63 000355   200022 236100                    LDQ     P$,,AUTO
        63 000356   000004 756010 23                 STQ     LX_STK+4,X0

      271     1222    4                           TARGET = P$->SYMBOL.SYM_INDX;

   1222 63 000357   200022 470500                    LDP0    P$,,AUTO
        63 000360   000001 235100                    LDA     1,,PR0
PL6.E3A0      #002=SEMANTICS File=LR_NRGRAM.:Z8A6TSI                             SAT 08/09/97 09:39 Page:154
        63 000361   200006 755100                    STA     TARGET,,AUTO

      272     1223    4                           SYM_PTR = P$;

   1223 63 000362   200007 756100                    STQ     SYM_PTR,,AUTO

      273     1224    4                           P$ = ADDR(NIL);

   1224 63 000363   000001 236000 64                 LDQ     1
        63 000364   200022 756100                    STQ     P$,,AUTO

      274     1225    4                      END;

   1225 63 000365   000370 710000 63                 TRA     s:1227

      275     1226    3            ELSE P$ = P$->SYMBOL.HASH_FLINK; /* ONLY HASHED TO SAME PLACE */

   1226 63 000366   000000 236100                    LDQ     0,,PR0
        63 000367   200022 756100                    STQ     P$,,AUTO

      276     1227    3    END; /* OF CHECKING SYMBOL TABLE */

   1227 63 000370   000001 116000 64                 CMPQ    1
        63 000371   000154 601000 63                 TNZ     s:1171

      277     1228    2    IF NOT FOUND

   1228 63 000372   200020 234100                    SZN     FOUND,,AUTO
        63 000373   000545 604000 63                 TMI     s:1270

      278     1229    3    THEN DO ;/* PUT IT IN THE SYMBOL TABLE */

      279     1230    3         P$ = HASH_HEADS(HASHVAL);

   1230 63 000374   200016 720100                    LXL0    HASHVAL,,AUTO
        63 000375   000000 236010 61                 LDQ     HASH_HEADS,X0
        63 000376   200022 756100                    STQ     P$,,AUTO
PL6.E3A0      #002=SEMANTICS File=LR_NRGRAM.:Z8A6TSI                             SAT 08/09/97 09:39 Page:155

      280     1231    3         NEWLEN = (LENGTHC(SYMBOL) - LENGTHC(SYMBOL.TEXTCHR) + SYMLEN + 7)/4;

   1231 63 000377   200014 236100                    LDQ     SYMLEN,,AUTO
        63 000400   000053 036007                    ADLQ    43,DL
        63 000401   000004 506007                    DIV     4,DL
        63 000402   200015 756100                    STQ     NEWLEN,,AUTO

      281     1232    3         CALL GETNEW(NEW$,NEWLEN);

   1232 63 000403   200015 630500                    EPPR0   NEWLEN,,AUTO
        63 000404   200143 450500                    STP0    NEWTEXT+37,,AUTO
        63 000405   200023 631500                    EPPR1   NEW$,,AUTO
        63 000406   200142 451500                    STP1    NEWTEXT+36,,AUTO
        63 000407   200142 630500                    EPPR0   NEWTEXT+36,,AUTO
        63 000410   000003 631400 64                 EPPR1   3
        63 000411   000000 701000 xent               TSX1    GETNEW
        63 000412   000000 011000                    NOP     0

      282     1233    3         NEW$->SYMBOL.HASH_FLINK = P$;

   1233 63 000413   200022 236100                    LDQ     P$,,AUTO
        63 000414   200023 470500                    LDP0    NEW$,,AUTO
        63 000415   000000 756100                    STQ     0,,PR0

      283     1234    3         HASH_HEADS(HASHVAL) = NEW$;

   1234 63 000416   200023 236100                    LDQ     NEW$,,AUTO
        63 000417   200016 720100                    LXL0    HASHVAL,,AUTO
        63 000420   000000 756010 61                 STQ     HASH_HEADS,X0

      284     1235    3         CALL INSERT(NEW$->SYMBOL.TEXTCHR,0,SYMLEN+2,TEXTCHAR);

   1235 63 000421   200014 721100                    LXL1    SYMLEN,,AUTO
        63 000422   000002 622011                    EAX2    2,X1
        63 000423   200023 470500                    LDP0    NEW$,,AUTO
        63 000424   040140 100500                    MLR     fill='040'O
PL6.E3A0      #002=SEMANTICS File=LR_NRGRAM.:Z8A6TSI                             SAT 08/09/97 09:39 Page:156
        63 000425   200024 000214                    ADSC9   TEXTCHAR,,AUTO           cn=0,n=140
        63 000426   000011 000012                    ADSC9   9,,PR0                   cn=0,n=*X2

      285     1236    3         NEW$->SYMBOL.SYM_TYPE = SYM_TYPE;

   1236 63 000427   200013 470500                    LDP0    @SYM_TYPE,,AUTO
        63 000430   200023 471500                    LDP1    NEW$,,AUTO
        63 000431   000000 235100                    LDA     0,,PR0
        63 000432   100002 755100                    STA     2,,PR1

      286     1237    3         NEW$->SYMBOL.SYMLEN = SYMLEN;

   1237 63 000433   200023 471500                    LDP1    NEW$,,AUTO
        63 000434   200014 235100                    LDA     SYMLEN,,AUTO
        63 000435   100010 755100                    STA     8,,PR1

      287     1238    3         NEW$->SYMBOL.ORDER_SPECIFIED = FALSE;

   1238 63 000436   200023 471500                    LDP1    NEW$,,AUTO
        63 000437   000016 236000 64                 LDQ     14
        63 000440   100004 356100                    ANSQ    4,,PR1

      288     1239    3         NEW$->SYMBOL.COSTS_SPECIFIED = FALSE;

   1239 63 000441   200023 471500                    LDP1    NEW$,,AUTO
        63 000442   000017 236000 64                 LDQ     15
        63 000443   100004 356100                    ANSQ    4,,PR1

      289     1240    3         NEW$->SYMBOL.ORDER = 0;

   1240 63 000444   000000 221003                    LDX1    0,DU
        63 000445   200023 471500                    LDP1    NEW$,,AUTO
        63 000446   100004 441100                    SXL1    4,,PR1

      290     1241    3         NEW$->SYMBOL.SEM_PROD_REQ = FALSE;

   1241 63 000447   200023 471500                    LDP1    NEW$,,AUTO
PL6.E3A0      #002=SEMANTICS File=LR_NRGRAM.:Z8A6TSI                             SAT 08/09/97 09:39 Page:157
        63 000450   000020 236000 64                 LDQ     16
        63 000451   100004 356100                    ANSQ    4,,PR1

      291     1242    3         NEW$->SYMBOL.LEFT_ASSOC = FALSE;

   1242 63 000452   200023 471500                    LDP1    NEW$,,AUTO
        63 000453   000021 236000 64                 LDQ     17
        63 000454   100004 356100                    ANSQ    4,,PR1

      292     1243    3         NEW$->SYMBOL.RIGHT_ASSOC = FALSE;

   1243 63 000455   200023 471500                    LDP1    NEW$,,AUTO
        63 000456   000022 236000 64                 LDQ     18
        63 000457   100004 356100                    ANSQ    4,,PR1

      293     1244    3         NEW$->SYMBOL.QUOTED_REP = QUOTED_REP;

   1244 63 000460   200023 471500                    LDP1    NEW$,,AUTO
        63 000461   200021 236100                    LDQ     QUOTED_REP,,AUTO
        63 000462   000010 772000                    QRL     8
        63 000463   100004 676100                    ERQ     4,,PR1
        63 000464   001000 376003                    ANQ     512,DU
        63 000465   100004 656100                    ERSQ    4,,PR1

      294     1245    3         NR_SYMS = NR_SYMS + 1;

   1245 63 000466   000000 054000 34                 AOS     NR_SYMS

      295     1246    3         CALL LIMCHK(15,NR_SYMS,NR_SYMS_MAX,

   1246 63 000467   000026 630400 64                 EPPR0   22
        63 000470   000023 631400 64                 EPPR1   19
        63 000471   000000 701000 xent               TSX1    LIMCHK
        63 000472   000000 011000                    NOP     0

      296     1247    3                     'Symbol table space exhausted %%');
      297     1248    3         NEW$->SYMBOL.SYM_INDX = NR_SYMS;
PL6.E3A0      #002=SEMANTICS File=LR_NRGRAM.:Z8A6TSI                             SAT 08/09/97 09:39 Page:158

   1248 63 000473   200023 470500                    LDP0    NEW$,,AUTO
        63 000474   000000 235000 34                 LDA     NR_SYMS
        63 000475   000001 755100                    STA     1,,PR0

      298     1249    3         SYM_PTRS(NR_SYMS) = NEW$;

   1249 63 000476   200023 236100                    LDQ     NEW$,,AUTO
        63 000477   000000 756005 30                 STQ     SYM_PTRS,AL

      299     1250    3         TARGET = NR_SYMS;

   1250 63 000500   000000 235000 34                 LDA     NR_SYMS
        63 000501   200006 755100                    STA     TARGET,,AUTO

      300     1251    3         SYM_PTR = NEW$;

   1251 63 000502   200007 756100                    STQ     SYM_PTR,,AUTO

      301     1252    3         LX_STK.SYMPTR(LX_INDEX) = NEW$;

   1252 63 000503   200005 236100                    LDQ     LX_INDEX,,AUTO
        63 000504   000006 402007                    MPY     6,DL
        63 000505   000000 620006                    EAX0    0,QL
        63 000506   200023 236100                    LDQ     NEW$,,AUTO
        63 000507   000004 756010 23                 STQ     LX_STK+4,X0

      302     1253              /* CHECK FOR SPECIAL TOKENS */
      303     1254
      304     1255    3         IF NOT QUOTED_REP

   1255 63 000510   200021 234100                    SZN     QUOTED_REP,,AUTO
        63 000511   000545 604000 63                 TMI     s:1270

      305     1256    3         THEN
      306     1257    3              IF SYMLEN = 13

PL6.E3A0      #002=SEMANTICS File=LR_NRGRAM.:Z8A6TSI                             SAT 08/09/97 09:39 Page:159
   1257 63 000512   200014 235100                    LDA     SYMLEN,,AUTO
        63 000513   000015 115007                    CMPA    13,DL
        63 000514   000524 601000 63                 TNZ     s:1261

      307     1258    3              THEN IF '=END_OF_FILE=' = SUBSTR(TEXTCHAR,0,SYMLEN)

   1258 63 000515   000000 621005                    EAX1    0,AL
        63 000516   040140 106400                    CMPC    fill='040'O
        63 000517   000005 000015 62                 ADSC9   5                        cn=0,n=13
        63 000520   200024 000011                    ADSC9   TEXTCHAR,,AUTO           cn=0,n=*X1
        63 000521   000545 601000 63                 TNZ     s:1270

      308     1259    3                   THEN EOF_SYMBOL_PTR = NEW$;

   1259 63 000522   000000 756000 46                 STQ     EOF_SYMBOL_PTR
        63 000523   000545 710000 63                 TRA     s:1270

      309     1260    3                   ELSE;
      310     1261    3              ELSE IF SYMLEN = 7

   1261 63 000524   000007 115007                    CMPA    7,DL
        63 000525   000535 601000 63                 TNZ     s:1265

      311     1262    3                   THEN IF '=ERROR=' = SUBSTR(TEXTCHAR,0,SYMLEN)

   1262 63 000526   000000 621005                    EAX1    0,AL
        63 000527   040140 106400                    CMPC    fill='040'O
        63 000530   000001 000007 62                 ADSC9   1                        cn=0,n=7
        63 000531   200024 000011                    ADSC9   TEXTCHAR,,AUTO           cn=0,n=*X1
        63 000532   000545 601000 63                 TNZ     s:1270

      312     1263    3                        THEN ERROR_SYMBOL_PTR = NEW$;

   1263 63 000533   000000 756000 47                 STQ     ERROR_SYMBOL_PTR
        63 000534   000545 710000 63                 TRA     s:1270

      313     1264    3                        ELSE;
PL6.E3A0      #002=SEMANTICS File=LR_NRGRAM.:Z8A6TSI                             SAT 08/09/97 09:39 Page:160
      314     1265    3                   ELSE IF SYMLEN = 19

   1265 63 000535   000023 115007                    CMPA    19,DL
        63 000536   000545 601000 63                 TNZ     s:1270

      315     1266    3                        THEN IF '=BEGINNING_OF_FILE=' = SUBSTR(TEXTCHAR,0,SYMLEN)

   1266 63 000537   000000 621005                    EAX1    0,AL
        63 000540   040140 106400                    CMPC    fill='040'O
        63 000541   000011 000023 62                 ADSC9   9                        cn=0,n=19
        63 000542   200024 000011                    ADSC9   TEXTCHAR,,AUTO           cn=0,n=*X1
        63 000543   000545 601000 63                 TNZ     s:1270

      316     1267    3                             THEN BOF_SYMBOL_PTR = NEW$;

   1267 63 000544   000000 756000 48                 STQ     BOF_SYMBOL_PTR

      317     1268    3     END; /* OF ADDING TO SYMBOL TABLE */

      318     1269
      319     1270    2    END LOOK_UP_SYMBOL;

   1270 63 000545   200012 221300                    LDX1  ! II+1,,AUTO
        63 000546   000001 702211                    TSX2  ! 1,X1

      320     1271        %EJECT;
PL6.E3A0      #002=SEMANTICS File=LR_NRGRAM.:Z8A6TSI                             SAT 08/09/97 09:39 Page:161
      321     1272         %MACRO FINISH_CURRENT_RULE;
      322     1273
      323     1274         %MEND;
      324     1275
      325     1276
      326     1277         %MACRO NEW_PRODUCTION;
      327     1278            CALL LIMCHK(15,NR_PROD,NR_PROD_MAX,
      328     1279                              'Too many productions %%');
      329     1280            PROD.GOAL_SYM_INDX(NR_PROD) = LHS_INDEX;
      330     1281            PROD.RIGHT_CNT(NR_PROD) = 0;
      331     1282            PROD.RIGHT_START(NR_PROD) = NR_ONRIGHT +1;
      332     1283            SYM_PTRS(LHS_INDEX)->SYMBOL.PROD_CNT =
      333     1284                SYM_PTRS(LHS_INDEX)->SYMBOL.PROD_CNT + 1;
      334     1285            NR_PROD = NR_PROD + 1;
      335     1286         %MEND;
      336     1287
      337     1288         %MACRO ADD_TOKEN_TO_RULE;
      338     1289            IF SYM_PTR ~= EMPTY_SYMBOL_PTR /* IF CURRENT TOKEN NOT =EMPTY= */
      339     1290            THEN DO;
      340     1291                 NR_ONRIGHT = NR_ONRIGHT + 1;
      341     1292                 CALL LIMCHK(15,NR_ONRIGHT,NR_RIGHT_MAX,
      342     1293                                'Right_parts table overflow %%');
      343     1294                 RIGHT_PARTS(NR_ONRIGHT) = SYM_PTR->SYMBOL.SYM_INDX;
      344     1295                 SYM_PTR->SYMBOL.ON_RIGHT = TRUE;
      345     1296                 PROD.RIGHT_CNT(NR_PROD-1) = PROD.RIGHT_CNT(NR_PROD-1) + 1;
      346     1297            END; /* OF NOT HAVING =EMPTY= */
      347     1298         %MEND;
      348     1299
      349     1300        %EJECT;
PL6.E3A0      #002=SEMANTICS File=LR_NRGRAM.:Z8A6TSI                             SAT 08/09/97 09:39 Page:162
      350     1301    2   DO CASE(ACTION);

   1301 63 000547   200003 470500                    LDP0    @ACTION,,AUTO
        63 000550   000000 235100                    LDA     0,,PR0
        63 000551   000021 115007                    CMPA    17,DL
        63 000552   000554 602005 63                 TNC     s:1301+5,AL
        63 000553   001323 710000 63                 TRA     s:1472
        63 000554   001323 710000 63                 TRA     s:1472
        63 000555   000575 710000 63                 TRA     s:1305
        63 000556   000624 710000 63                 TRA     s:1318
        63 000557   000656 710000 63                 TRA     s:1335
        63 000560   001203 710000 63                 TRA     s:1433
        63 000561   001220 710000 63                 TRA     s:1440
        63 000562   001032 710000 63                 TRA     s:1385
        63 000563   001137 710000 63                 TRA     s:1417
        63 000564   001152 710000 63                 TRA     s:1421
        63 000565   001004 710000 63                 TRA     s:1377
        63 000566   001231 710000 63                 TRA     s:1444
        63 000567   001171 710000 63                 TRA     s:1428
        63 000570   001165 710000 63                 TRA     s:1425
        63 000571   001017 710000 63                 TRA     s:1381
        63 000572   000677 710000 63                 TRA     s:1345
        63 000573   000775 710000 63                 TRA     s:1374
        63 000574   001175 710000 63                 TRA     s:1431

      351     1302    2   CASE(%START_PROD);

      352     1303            %FINISH_CURRENT_RULE;
      353     1305    2       LX_INDEX = LX_TOP - 1;

   1305 63 000575   000000 236000 22                 LDQ     LX_TOP
        63 000576   000001 136007                    SBLQ    1,DL
        63 000577   200005 756100                    STQ     LX_INDEX,,AUTO

      354     1306    2       SYM_PTR = LX_STK.SYMPTR(LX_INDEX);

   1306 63 000600   000006 402007                    MPY     6,DL
PL6.E3A0      #002=SEMANTICS File=LR_NRGRAM.:Z8A6TSI                             SAT 08/09/97 09:39 Page:163
        63 000601   000004 236006 23                 LDQ     LX_STK+4,QL
        63 000602   200007 756100                    STQ     SYM_PTR,,AUTO

      355     1307             %NEW_PRODUCTION;

   1308 63 000603   000033 630400 64                 EPPR0   27
        63 000604   000023 631400 64                 EPPR1   19
        63 000605   000000 701000 xent               TSX1    LIMCHK
        63 000606   000000 011000                    NOP     0

   1310 63 000607   000000 235000 33                 LDA     NR_PROD
        63 000610   000001 735000                    ALS     1
        63 000611   000000 720000 60                 LXL0    LHS_INDEX
        63 000612   000000 740005 32                 STX0    PROD,AL

   1311 63 000613   000000 221003                    LDX1    0,DU
        63 000614   000001 741005 32                 STX1    PROD+1,AL

   1312 63 000615   000000 722000 38                 LXL2    NR_ONRIGHT
        63 000616   000001 623012                    EAX3    1,X2
        63 000617   000001 443005 32                 SXL3    PROD+1,AL

   1313 63 000620   000000 470410 30                 LDP0    SYM_PTRS,X0
        63 000621   000007 054100                    AOS     7,,PR0

   1315 63 000622   000000 054000 33                 AOS     NR_PROD
        63 000623   001323 710000 63                 TRA     s:1472

      356     1317    2   CASE(%ADD_TO_RULE);

      357     1318    2       LX_INDEX = LX_TOP;

   1318 63 000624   000000 236000 22                 LDQ     LX_TOP
        63 000625   200005 756100                    STQ     LX_INDEX,,AUTO

      358     1319    2       SYM_PTR = LX_STK.SYMPTR(LX_INDEX);

PL6.E3A0      #002=SEMANTICS File=LR_NRGRAM.:Z8A6TSI                             SAT 08/09/97 09:39 Page:164
   1319 63 000626   000006 402007                    MPY     6,DL
        63 000627   000004 236006 23                 LDQ     LX_STK+4,QL
        63 000630   200007 756100                    STQ     SYM_PTR,,AUTO

      359     1320            %ADD_TOKEN_TO_RULE;

   1321 63 000631   000001 116000 60                 CMPQ    EMPTY_SYMBOL_PTR
        63 000632   001323 600000 63                 TZE     s:1472

   1323 63 000633   000000 054000 38                 AOS     NR_ONRIGHT

   1324 63 000634   000040 630400 64                 EPPR0   32
        63 000635   000023 631400 64                 EPPR1   19
        63 000636   000000 701000 xent               TSX1    LIMCHK
        63 000637   000000 011000                    NOP     0

   1326 63 000640   000000 235000 38                 LDA     NR_ONRIGHT
        63 000641   000001 735000                    ALS     1
        63 000642   200007 470500                    LDP0    SYM_PTR,,AUTO
        63 000643   000005 101500                    MRL     fill='000'O
        63 000644   000001 000004                    ADSC9   1,,PR0                   cn=0,n=4
        63 000645   000000 000002 31                 ADSC9   RIGHT_PARTS,A            cn=0,n=2

   1327 63 000646   100000 236003                    LDQ     32768,DU
        63 000647   000004 256100                    ORSQ    4,,PR0

   1328 63 000650   000000 235000 33                 LDA     NR_PROD
        63 000651   000001 735000                    ALS     1
        63 000652   777777 220005 32                 LDX0    PROD-1,AL
        63 000653   000001 621010                    EAX1    1,X0
        63 000654   777777 741005 32                 STX1    PROD-1,AL

   1329 63 000655   001323 710000 63                 TRA     s:1472

      360     1331    2   CASE(%NEXT_RULE);

      361     1332            %FINISH_CURRENT_RULE;
PL6.E3A0      #002=SEMANTICS File=LR_NRGRAM.:Z8A6TSI                             SAT 08/09/97 09:39 Page:165
      362     1334            %NEW_PRODUCTION;

   1335 63 000656   000033 630400 64                 EPPR0   27
        63 000657   000023 631400 64                 EPPR1   19
        63 000660   000000 701000 xent               TSX1    LIMCHK
        63 000661   000000 011000                    NOP     0

   1337 63 000662   000000 235000 33                 LDA     NR_PROD
        63 000663   000001 735000                    ALS     1
        63 000664   000000 720000 60                 LXL0    LHS_INDEX
        63 000665   000000 740005 32                 STX0    PROD,AL

   1338 63 000666   000000 221003                    LDX1    0,DU
        63 000667   000001 741005 32                 STX1    PROD+1,AL

   1339 63 000670   000000 722000 38                 LXL2    NR_ONRIGHT
        63 000671   000001 623012                    EAX3    1,X2
        63 000672   000001 443005 32                 SXL3    PROD+1,AL

   1340 63 000673   000000 470410 30                 LDP0    SYM_PTRS,X0
        63 000674   000007 054100                    AOS     7,,PR0

   1342 63 000675   000000 054000 33                 AOS     NR_PROD
        63 000676   001323 710000 63                 TRA     s:1472

      363     1344    2   CASE(%LHSTOKEN_ACTION);

      364     1345    2       LX_INDEX = LX_TOP;

   1345 63 000677   000000 236000 22                 LDQ     LX_TOP
        63 000700   200005 756100                    STQ     LX_INDEX,,AUTO

      365     1346    2       CALL LOOK_UP_SYMBOL(SYM_TYPE_TERM);

   1346 63 000701   000044 236000 64                 LDQ     36
        63 000702   200013 756100                    STQ     II+2,,AUTO
        63 000703   000065 701000 63                 TSX1    LOOK_UP_SYMBOL
PL6.E3A0      #002=SEMANTICS File=LR_NRGRAM.:Z8A6TSI                             SAT 08/09/97 09:39 Page:166
        63 000704   000000 011000                    NOP     0

      366     1347            /* VERIFY ITS SUITABLITY FOR BEING ON LHS */
      367     1348    3       DO CASE( SYM_PTR->SYMBOL.SYM_TYPE);

   1348 63 000705   200007 470500                    LDP0    SYM_PTR,,AUTO
        63 000706   000002 235100                    LDA     2,,PR0
        63 000707   000002 115007                    CMPA    2,DL
        63 000710   000712 602005 63                 TNC     s:1348+5,AL
        63 000711   000771 710000 63                 TRA     s:1372
        63 000712   000714 710000 63                 TRA     s:1350
        63 000713   000724 710000 63                 TRA     s:1357

      368     1349    3          CASE(SYM_TYPE_TERM);

      369     1350    3              SYM_PTR->SYMBOL.SYM_TYPE = SYM_TYPE_NT;

   1350 63 000714   000001 236007                    LDQ     1,DL
        63 000715   000002 756100                    STQ     2,,PR0

      370     1351    3              SYM_PTR->SYMBOL.PROD_INDX = NR_PROD;

   1351 63 000716   000000 235000 33                 LDA     NR_PROD
        63 000717   000006 755100                    STA     6,,PR0

      371     1352    3              SYM_PTR->SYMBOL.PROD_CNT = 0;

   1352 63 000720   000007 450100                    STZ     7,,PR0

      372     1353    3              LHS_INDEX = TARGET;

   1353 63 000721   200006 235100                    LDA     TARGET,,AUTO
        63 000722   000000 755000 60                 STA     LHS_INDEX
        63 000723   000771 710000 63                 TRA     s:1372

      373     1354    3          CASE(SYM_TYPE_NT);

PL6.E3A0      #002=SEMANTICS File=LR_NRGRAM.:Z8A6TSI                             SAT 08/09/97 09:39 Page:167
      374     1355                   /* DUPLICATE DEFINITION */
      375     1356                   %INDICATE_ERROR(C="LX_STK.COLUMN(LX_INDEX)");

   1357 63 000724   000002 631400 64                 EPPR1   2
        63 000725   000000 701000 xent               TSX1    FORCE_LIST
        63 000726   000000 011000                    NOP     0

   1358 63 000727   000002 631400 64                 EPPR1   2
        63 000730   000000 701000 xent               TSX1    FLUSH
        63 000731   000000 011000                    NOP     0

   1359 63 000732   000001 235007                    LDA     1,DL
        63 000733   200011 755100                    STA     II,,AUTO
        63 000734   000742 710000 63                 TRA     s:1363+1

   1361 63 000735   000006 630400 64                 EPPR0   6
        63 000736   000003 631400 64                 EPPR1   3
        63 000737   000000 701000 xent               TSX1    OUT_STR
        63 000740   000000 011000                    NOP     0

   1363 63 000741   200011 054100                    AOS     II,,AUTO
        63 000742   200005 236100                    LDQ     LX_INDEX,,AUTO
        63 000743   000006 402007                    MPY     6,DL
        63 000744   000002 236006 23                 LDQ     LX_STK+2,QL
        63 000745   000011 036007                    ADLQ    9,DL
        63 000746   000735 604000 63                 TMI     s:1361
        63 000747   200011 116100                    CMPQ    II,,AUTO
        63 000750   000735 605000 63                 TPL     s:1361

   1365 63 000751   000011 630400 64                 EPPR0   9
        63 000752   000003 631400 64                 EPPR1   3
        63 000753   000000 701000 xent               TSX1    OUT_STR
        63 000754   000000 011000                    NOP     0

   1367 63 000755   000002 631400 64                 EPPR1   2
        63 000756   000000 701000 xent               TSX1    FLUSH
        63 000757   000000 011000                    NOP     0
PL6.E3A0      #002=SEMANTICS File=LR_NRGRAM.:Z8A6TSI                             SAT 08/09/97 09:39 Page:168

      376     1369    3              CALL DIAG(6,' ERROR => Duplicate definition for : %%',

   1369 63 000760   200007 236100                    LDQ     SYM_PTR,,AUTO
        63 000761   000011 036003                    ADLQ    9,DU
        63 000762   200144 756100                    STQ     NEWTEXT+38,,AUTO
        63 000763   000046 237000 64                 LDAQ    38
        63 000764   200142 757100                    STAQ    NEWTEXT+36,,AUTO
        63 000765   200142 630500                    EPPR0   NEWTEXT+36,,AUTO
        63 000766   000013 631400 64                 EPPR1   11
        63 000767   000000 701000 xent               TSX1    DIAG
        63 000770   000000 011000                    NOP     0

      377     1370    3                          SYM_PTR->SYMBOL.TEXTCHR);
      378     1371    3       END; /* CASE ON SYM TYPE */

      379     1372    2       SYM_PTR->SYMBOL.ON_LEFT = TRUE;

   1372 63 000771   200007 470500                    LDP0    SYM_PTR,,AUTO
        63 000772   200000 236003                    LDQ     65536,DU
        63 000773   000004 256100                    ORSQ    4,,PR0
        63 000774   001323 710000 63                 TRA     s:1472

      380     1373    2   CASE(%RHSTOKEN_ACTION);

      381     1374    2       LX_INDEX = LX_TOP;

   1374 63 000775   000000 236000 22                 LDQ     LX_TOP
        63 000776   200005 756100                    STQ     LX_INDEX,,AUTO

      382     1375    2       CALL LOOK_UP_SYMBOL(SYM_TYPE_TERM);

   1375 63 000777   000044 236000 64                 LDQ     36
        63 001000   200013 756100                    STQ     II+2,,AUTO
        63 001001   000065 701000 63                 TSX1    LOOK_UP_SYMBOL
        63 001002   000000 011000                    NOP     0
        63 001003   001323 710000 63                 TRA     s:1472
PL6.E3A0      #002=SEMANTICS File=LR_NRGRAM.:Z8A6TSI                             SAT 08/09/97 09:39 Page:169

      383     1376    2   CASE(%SEMANTIC_ACTION);

      384     1377    2       LX_INDEX = LX_TOP;

   1377 63 001004   000000 236000 22                 LDQ     LX_TOP
        63 001005   200005 756100                    STQ     LX_INDEX,,AUTO

      385     1378    2       CALL LOOK_UP_SYMBOL(SYM_TYPE_ACT);

   1378 63 001006   000051 236000 64                 LDQ     41
        63 001007   200013 756100                    STQ     II+2,,AUTO
        63 001010   000065 701000 63                 TSX1    LOOK_UP_SYMBOL
        63 001011   000000 011000                    NOP     0

      386     1379    2       ORDER_SYM_PTR = LX_STK.SYMPTR(LX_TOP);

   1379 63 001012   000000 236000 22                 LDQ     LX_TOP
        63 001013   000006 402007                    MPY     6,DL
        63 001014   000004 236006 23                 LDQ     LX_STK+4,QL
        63 001015   000006 756000 60                 STQ     ORDER_SYM_PTR
        63 001016   001323 710000 63                 TRA     s:1472

      387     1380    2   CASE(%TERMINAL_ACTION);

      388     1381    2      LX_INDEX = LX_TOP;

   1381 63 001017   000000 236000 22                 LDQ     LX_TOP
        63 001020   200005 756100                    STQ     LX_INDEX,,AUTO

      389     1382    2      CALL LOOK_UP_SYMBOL(SYM_TYPE_TERM);

   1382 63 001021   000044 236000 64                 LDQ     36
        63 001022   200013 756100                    STQ     II+2,,AUTO
        63 001023   000065 701000 63                 TSX1    LOOK_UP_SYMBOL
        63 001024   000000 011000                    NOP     0

PL6.E3A0      #002=SEMANTICS File=LR_NRGRAM.:Z8A6TSI                             SAT 08/09/97 09:39 Page:170
      390     1383    2      ORDER_SYM_PTR = LX_STK.SYMPTR(LX_TOP);

   1383 63 001025   000000 236000 22                 LDQ     LX_TOP
        63 001026   000006 402007                    MPY     6,DL
        63 001027   000004 236006 23                 LDQ     LX_STK+4,QL
        63 001030   000006 756000 60                 STQ     ORDER_SYM_PTR
        63 001031   001323 710000 63                 TRA     s:1472

      391     1384    2   CASE(%ORDER_ACTION);

      392     1385    2      IF ORDER_SYM_PTR->SYMBOL.ORDER_SPECIFIED

   1385 63 001032   000006 471400 60                 LDP1    ORDER_SYM_PTR
        63 001033   100004 236100                    LDQ     4,,PR1
        63 001034   040000 316003                    CANQ    16384,DU
        63 001035   001103 600000 63                 TZE     s:1404

      393     1386    3      THEN DO;

      394     1387                %INDICATE_ERROR(C="LX_STK.COLUMN(LX_TOP)");

   1388 63 001036   000002 631400 64                 EPPR1   2
        63 001037   000000 701000 xent               TSX1    FORCE_LIST
        63 001040   000000 011000                    NOP     0

   1389 63 001041   000002 631400 64                 EPPR1   2
        63 001042   000000 701000 xent               TSX1    FLUSH
        63 001043   000000 011000                    NOP     0

   1390 63 001044   000001 235007                    LDA     1,DL
        63 001045   200011 755100                    STA     II,,AUTO
        63 001046   001054 710000 63                 TRA     s:1394+1

   1392 63 001047   000006 630400 64                 EPPR0   6
        63 001050   000003 631400 64                 EPPR1   3
        63 001051   000000 701000 xent               TSX1    OUT_STR
        63 001052   000000 011000                    NOP     0
PL6.E3A0      #002=SEMANTICS File=LR_NRGRAM.:Z8A6TSI                             SAT 08/09/97 09:39 Page:171

   1394 63 001053   200011 054100                    AOS     II,,AUTO
        63 001054   000000 236000 22                 LDQ     LX_TOP
        63 001055   000006 402007                    MPY     6,DL
        63 001056   000002 236006 23                 LDQ     LX_STK+2,QL
        63 001057   000011 036007                    ADLQ    9,DL
        63 001060   001047 604000 63                 TMI     s:1392
        63 001061   200011 116100                    CMPQ    II,,AUTO
        63 001062   001047 605000 63                 TPL     s:1392

   1396 63 001063   000011 630400 64                 EPPR0   9
        63 001064   000003 631400 64                 EPPR1   3
        63 001065   000000 701000 xent               TSX1    OUT_STR
        63 001066   000000 011000                    NOP     0

   1398 63 001067   000002 631400 64                 EPPR1   2
        63 001070   000000 701000 xent               TSX1    FLUSH
        63 001071   000000 011000                    NOP     0

      395     1400    3           CALL DIAG(7,

   1400 63 001072   000006 236000 60                 LDQ     ORDER_SYM_PTR
        63 001073   000011 036003                    ADLQ    9,DU
        63 001074   200144 756100                    STQ     NEWTEXT+38,,AUTO
        63 001075   000054 237000 64                 LDAQ    44
        63 001076   200142 757100                    STAQ    NEWTEXT+36,,AUTO
        63 001077   200142 630500                    EPPR0   NEWTEXT+36,,AUTO
        63 001100   000013 631400 64                 EPPR1   11
        63 001101   000000 701000 xent               TSX1    DIAG
        63 001102   000000 011000                    NOP     0

      396     1401    3                 ' ERROR => Ordering already specified for terminal symbol : %%',
      397     1402    3                     ORDER_SYM_PTR -> SYMBOL.TEXTCHR);
      398     1403    3      END;

      399     1404    2      LAST_ORDER_SPECIFIED = LAST_ORDER_SPECIFIED + 1;

PL6.E3A0      #002=SEMANTICS File=LR_NRGRAM.:Z8A6TSI                             SAT 08/09/97 09:39 Page:172
   1404 63 001103   000000 054000 41                 AOS     LAST_ORDER_SPECIFIED

      400     1405    2      ORDER_SYM_PTR->SYMBOL.ORDER_SPECIFIED = TRUE;

   1405 63 001104   000006 470400 60                 LDP0    ORDER_SYM_PTR
        63 001105   040000 236003                    LDQ     16384,DU
        63 001106   000004 256100                    ORSQ    4,,PR0

      401     1406    2      ORDER_SYM_PTR->SYMBOL.ORDER = LAST_ORDER_SPECIFIED;

   1406 63 001107   000000 720000 41                 LXL0    LAST_ORDER_SPECIFIED
        63 001110   000004 440100                    SXL0    4,,PR0

      402     1407    2      ORDER_SYM_PTR->SYMBOL.COST.INS = LAST_INS_COST;

   1407 63 001111   000002 721000 60                 LXL1    LAST_INS_COST
        63 001112   000005 741100                    STX1    5,,PR0

      403     1408    2      ORDER_SYM_PTR->SYMBOL.COST.DEL = LAST_DEL_COST;

   1408 63 001113   000003 722000 60                 LXL2    LAST_DEL_COST
        63 001114   000005 442100                    SXL2    5,,PR0

      404     1409    2      ORDER_SYM_PTR->SYMBOL.COSTS_SPECIFIED = TRUE;

   1409 63 001115   020000 236003                    LDQ     8192,DU
        63 001116   000004 256100                    ORSQ    4,,PR0

      405     1410    2      ORDER_SYM_PTR->SYMBOL.LEFT_ASSOC = LAST_LEFT_ASSOC;

   1410 63 001117   000004 236000 60                 LDQ     LAST_LEFT_ASSOC
        63 001120   000006 772000                    QRL     6
        63 001121   000004 676100                    ERQ     4,,PR0
        63 001122   004000 376003                    ANQ     2048,DU
        63 001123   000004 656100                    ERSQ    4,,PR0

      406     1411    2      ORDER_SYM_PTR->SYMBOL.RIGHT_ASSOC = LAST_RIGHT_ASSOC;
PL6.E3A0      #002=SEMANTICS File=LR_NRGRAM.:Z8A6TSI                             SAT 08/09/97 09:39 Page:173

   1411 63 001124   000005 236000 60                 LDQ     LAST_RIGHT_ASSOC
        63 001125   000007 772000                    QRL     7
        63 001126   000004 676100                    ERQ     4,,PR0
        63 001127   002000 376003                    ANQ     1024,DU
        63 001130   000004 656100                    ERSQ    4,,PR0

      407     1412    2      LAST_INS_COST = DEFAULT_INS_COST;

   1412 63 001131   000012 235007                    LDA     10,DL
        63 001132   000002 755000 60                 STA     LAST_INS_COST

      408     1413    2      LAST_DEL_COST = DEFAULT_DEL_COST;

   1413 63 001133   000003 755000 60                 STA     LAST_DEL_COST

      409     1414    2      LAST_LEFT_ASSOC = FALSE;

   1414 63 001134   000004 450000 60                 STZ     LAST_LEFT_ASSOC

      410     1415    2      LAST_RIGHT_ASSOC = FALSE;

   1415 63 001135   000005 450000 60                 STZ     LAST_RIGHT_ASSOC
        63 001136   001323 710000 63                 TRA     s:1472

      411     1416    2   CASE(%INSERT_ACTION);

      412     1417    2      DNT_PTR = LX_STK.DNTPTR(LX_TOP);

   1417 63 001137   000000 236000 22                 LDQ     LX_TOP
        63 001140   000006 402007                    MPY     6,DL
        63 001141   000003 236006 23                 LDQ     LX_STK+3,QL
        63 001142   200010 756100                    STQ     DNT_PTR,,AUTO

      413     1418    2      CALL CHARBIN(LAST_INS_COST,

   1418 63 001143   200010 471500                    LDP1    DNT_PTR,,AUTO
PL6.E3A0      #002=SEMANTICS File=LR_NRGRAM.:Z8A6TSI                             SAT 08/09/97 09:39 Page:174
        63 001144   100000 720100                    LXL0    0,,PR1
        63 001145   777776 621010                    EAX1    -2,X0
        63 001146   000000 305540                    DTB
        63 001147   100001 030011                    NDSC9   1,,PR1                   cn=0,s=nosgn,sf=0,n=*X1
        63 001150   000002 000004 60                 NDSC9   LAST_INS_COST            cn=0,s=lsgnf,sf=0,n=4
        63 001151   001323 710000 63                 TRA     s:1472

      414     1419    2             SUBSTR(DNT_PTR->DNT.TEXT.NAME,0,DNT_PTR->DNT.TEXT.LENGTH-2));
      415     1420    2   CASE(%DELETE_ACTION);

      416     1421    2      DNT_PTR = LX_STK.DNTPTR(LX_TOP);

   1421 63 001152   000000 236000 22                 LDQ     LX_TOP
        63 001153   000006 402007                    MPY     6,DL
        63 001154   000003 236006 23                 LDQ     LX_STK+3,QL
        63 001155   200010 756100                    STQ     DNT_PTR,,AUTO

      417     1422    2      CALL CHARBIN(LAST_DEL_COST,

   1422 63 001156   200010 471500                    LDP1    DNT_PTR,,AUTO
        63 001157   100000 720100                    LXL0    0,,PR1
        63 001160   777776 621010                    EAX1    -2,X0
        63 001161   000000 305540                    DTB
        63 001162   100001 030011                    NDSC9   1,,PR1                   cn=0,s=nosgn,sf=0,n=*X1
        63 001163   000003 000004 60                 NDSC9   LAST_DEL_COST            cn=0,s=lsgnf,sf=0,n=4
        63 001164   001323 710000 63                 TRA     s:1472

      418     1423    2                   SUBSTR(DNT_PTR->DNT.TEXT.NAME,0,DNT_PTR->DNT.TEXT.LENGTH-2));
      419     1424    2   CASE(%LEFT_ACTION);

      420     1425    2      LAST_LEFT_ASSOC = TRUE;

   1425 63 001165   400000 236003                    LDQ     -131072,DU
        63 001166   000004 756000 60                 STQ     LAST_LEFT_ASSOC

      421     1426    2      LAST_RIGHT_ASSOC = FALSE;

PL6.E3A0      #002=SEMANTICS File=LR_NRGRAM.:Z8A6TSI                             SAT 08/09/97 09:39 Page:175
   1426 63 001167   000005 450000 60                 STZ     LAST_RIGHT_ASSOC
        63 001170   001323 710000 63                 TRA     s:1472

      422     1427    2   CASE(%RIGHT_ACTION);

      423     1428    2      LAST_LEFT_ASSOC = FALSE;

   1428 63 001171   000004 450000 60                 STZ     LAST_LEFT_ASSOC

      424     1429    2      LAST_RIGHT_ASSOC = TRUE;

   1429 63 001172   400000 236003                    LDQ     -131072,DU
        63 001173   000005 756000 60                 STQ     LAST_RIGHT_ASSOC
        63 001174   001323 710000 63                 TRA     s:1472

      425     1430    2   CASE(%EMPTY_TOKEN_ACTION);

      426     1431    2      LX_STK.SYMPTR(LX_TOP) = EMPTY_SYMBOL_PTR;

   1431 63 001175   000000 236000 22                 LDQ     LX_TOP
        63 001176   000006 402007                    MPY     6,DL
        63 001177   000000 620006                    EAX0    0,QL
        63 001200   000001 236000 60                 LDQ     EMPTY_SYMBOL_PTR
        63 001201   000004 756010 23                 STQ     LX_STK+4,X0
        63 001202   001323 710000 63                 TRA     s:1472

      427     1432    2   CASE(%SSS_ACTION);

      428     1433    2      SSSCOMMENT = ~ SSSCOMMENT;

   1433 63 001203   000007 236000 60                 LDQ     SSSCOMMENT
        63 001204   400000 376003                    ANQ     -131072,DU
        63 001205   400000 676003                    ERQ     -131072,DU
        63 001206   000007 756000 60                 STQ     SSSCOMMENT

      429     1434    2      IF SSSCOMMENT

PL6.E3A0      #002=SEMANTICS File=LR_NRGRAM.:Z8A6TSI                             SAT 08/09/97 09:39 Page:176
   1434 63 001207   000007 234000 60                 SZN     SSSCOMMENT
        63 001210   001323 605000 63                 TPL     s:1472

      430     1435    3      THEN DO;

      431     1436    3           CALL STRIP_PL6;

   1436 63 001211   000002 631400 64                 EPPR1   2
        63 001212   000000 701000 xent               TSX1    STRIP_PL6
        63 001213   000000 011000                    NOP     0

      432     1437    3           CALL RESET_SCANNER;

   1437 63 001214   000002 631400 64                 EPPR1   2
        63 001215   000000 701000 xent               TSX1    RESET_SCANNER
        63 001216   000000 011000                    NOP     0

      433     1438    3      END;

   1438 63 001217   001323 710000 63                 TRA     s:1472

      434     1439    2   CASE(%SSMS_ACTION);

      435     1440    2      SSSCOMMENT = TRUE;

   1440 63 001220   400000 236003                    LDQ     -131072,DU
        63 001221   000007 756000 60                 STQ     SSSCOMMENT

      436     1441    2      CALL STRIP_PL6;

   1441 63 001222   000002 631400 64                 EPPR1   2
        63 001223   000000 701000 xent               TSX1    STRIP_PL6
        63 001224   000000 011000                    NOP     0

      437     1442    2      CALL RESET_SCANNER;

   1442 63 001225   000002 631400 64                 EPPR1   2
PL6.E3A0      #002=SEMANTICS File=LR_NRGRAM.:Z8A6TSI                             SAT 08/09/97 09:39 Page:177
        63 001226   000000 701000 xent               TSX1    RESET_SCANNER
        63 001227   000000 011000                    NOP     0
        63 001230   001323 710000 63                 TRA     s:1472

      438     1443    2   CASE(%ORDER_SEMANTIC_ACTION);

      439     1444    2      IF ORDER_SYM_PTR -> SYMBOL.ORDER_SPECIFIED THEN

   1444 63 001231   000006 471400 60                 LDP1    ORDER_SYM_PTR
        63 001232   100004 236100                    LDQ     4,,PR1
        63 001233   040000 316003                    CANQ    16384,DU
        63 001234   001302 600000 63                 TZE     s:1463

      440     1445    3        DO;

      441     1446               %INDICATE_ERROR (C="LX_STK.COLUMN(LX_TOP)");

   1447 63 001235   000002 631400 64                 EPPR1   2
        63 001236   000000 701000 xent               TSX1    FORCE_LIST
        63 001237   000000 011000                    NOP     0

   1448 63 001240   000002 631400 64                 EPPR1   2
        63 001241   000000 701000 xent               TSX1    FLUSH
        63 001242   000000 011000                    NOP     0

   1449 63 001243   000001 235007                    LDA     1,DL
        63 001244   200011 755100                    STA     II,,AUTO
        63 001245   001253 710000 63                 TRA     s:1453+1

   1451 63 001246   000006 630400 64                 EPPR0   6
        63 001247   000003 631400 64                 EPPR1   3
        63 001250   000000 701000 xent               TSX1    OUT_STR
        63 001251   000000 011000                    NOP     0

   1453 63 001252   200011 054100                    AOS     II,,AUTO
        63 001253   000000 236000 22                 LDQ     LX_TOP
        63 001254   000006 402007                    MPY     6,DL
PL6.E3A0      #002=SEMANTICS File=LR_NRGRAM.:Z8A6TSI                             SAT 08/09/97 09:39 Page:178
        63 001255   000002 236006 23                 LDQ     LX_STK+2,QL
        63 001256   000011 036007                    ADLQ    9,DL
        63 001257   001246 604000 63                 TMI     s:1451
        63 001260   200011 116100                    CMPQ    II,,AUTO
        63 001261   001246 605000 63                 TPL     s:1451

   1455 63 001262   000011 630400 64                 EPPR0   9
        63 001263   000003 631400 64                 EPPR1   3
        63 001264   000000 701000 xent               TSX1    OUT_STR
        63 001265   000000 011000                    NOP     0

   1457 63 001266   000002 631400 64                 EPPR1   2
        63 001267   000000 701000 xent               TSX1    FLUSH
        63 001270   000000 011000                    NOP     0

      442     1459    3          CALL DIAG(7,

   1459 63 001271   000006 236000 60                 LDQ     ORDER_SYM_PTR
        63 001272   000011 036003                    ADLQ    9,DU
        63 001273   200144 756100                    STQ     NEWTEXT+38,,AUTO
        63 001274   000056 237000 64                 LDAQ    46
        63 001275   200142 757100                    STAQ    NEWTEXT+36,,AUTO
        63 001276   200142 630500                    EPPR0   NEWTEXT+36,,AUTO
        63 001277   000013 631400 64                 EPPR1   11
        63 001300   000000 701000 xent               TSX1    DIAG
        63 001301   000000 011000                    NOP     0

      443     1460    3                ' ERROR => Ordering already specified for semantic action symbol : %%'
              1460                          ,
      444     1461    3                 ORDER_SYM_PTR -> SYMBOL.TEXTCHR);
      445     1462    3        END;

      446     1463    2      SEMANTIC_ORDERING = TRUE;

   1463 63 001302   400000 236003                    LDQ     -131072,DU
        63 001303   000000 756000 42                 STQ     SEMANTIC_ORDERING

PL6.E3A0      #002=SEMANTICS File=LR_NRGRAM.:Z8A6TSI                             SAT 08/09/97 09:39 Page:179
      447     1464    2      DNT_PTR = LX_STK.DNTPTR(LX_TOP);

   1464 63 001304   000000 236000 22                 LDQ     LX_TOP
        63 001305   000006 402007                    MPY     6,DL
        63 001306   000003 236006 23                 LDQ     LX_STK+3,QL
        63 001307   200010 756100                    STQ     DNT_PTR,,AUTO

      448     1465    2      CALL CHARBIN (II,

   1465 63 001310   200010 470500                    LDP0    DNT_PTR,,AUTO
        63 001311   000000 720100                    LXL0    0,,PR0
        63 001312   777776 621010                    EAX1    -2,X0
        63 001313   000100 305540                    DTB
        63 001314   000001 030011                    NDSC9   1,,PR0                   cn=0,s=nosgn,sf=0,n=*X1
        63 001315   200011 000004                    NDSC9   II,,AUTO                 cn=0,s=lsgnf,sf=0,n=4

      449     1466    2                    SUBSTR(DNT_PTR -> DNT.TEXT.NAME,
      450     1467    2                           0,
      451     1468    2                           DNT_PTR -> DNT.TEXT.LENGTH - 2));
      452     1469    2      ORDER_SYM_PTR -> SYMBOL.ORDER_SPECIFIED = TRUE;

   1469 63 001316   000006 471400 60                 LDP1    ORDER_SYM_PTR
        63 001317   040000 236003                    LDQ     16384,DU
        63 001320   100004 256100                    ORSQ    4,,PR1

      453     1470    2      ORDER_SYM_PTR -> SYMBOL.ORDER = II;

   1470 63 001321   200011 720100                    LXL0    II,,AUTO
        63 001322   100004 440100                    SXL0    4,,PR1

      454     1471    2   END /* OF CASE ON ACTION */ ;

      455     1472    1    END SEMANTICS;

   1472 63 001323   000000 702200 xent               TSX2  ! X66_ARET
      456     1473        %EOD;

PL6.E3A0      #002=SEMANTICS File=LR_NRGRAM.:Z8A6TSI                             SAT 08/09/97 09:39 Page:180
--  Include file information  --

   LR_IO_EXT.:Z8A6TOU  cannot be made into a system file and is referenced.
   LR_GRAM_EXT.:Z8A6TOU  cannot be made into a system file and is referenced.
   PARSER_STACK.:Z8A6TOU  cannot be made into a system file and is referenced.
   PARSER_STATE.:Z8A6TOU  cannot be made into a system file and is referenced.
   PARSER_DNT.:Z8A6TOU  cannot be made into a system file and is referenced.
   PADPDA_SUBS.:Z8A6TOU  is referenced.
      No diagnostics issued in procedure SEMANTICS.
PL6.E3A0      #002=SEMANTICS File=LR_NRGRAM.:Z8A6TSI                             SAT 08/09/97 09:39 Page:181

 **** Variables and constants ****

  ****  Section 000 LblCom STATE

  ****  Scalars and arrays  ****
OctLoc.c.b A Datatyp(siz) R M Lvl/name                 OctLoc.c.b A Datatyp(siz) R M Lvl/name

     0-0-0/w SBIN(18)          1 STATE

  ****  Section 001 LblCom LA_CNT

  ****  Scalars and arrays  ****
OctLoc.c.b A Datatyp(siz) R M Lvl/name                 OctLoc.c.b A Datatyp(siz) R M Lvl/name

     0-0-0/w SBIN              1 LA_CNT

  ****  Section 002 LblCom LA_PUT

  ****  Scalars and arrays  ****
OctLoc.c.b A Datatyp(siz) R M Lvl/name                 OctLoc.c.b A Datatyp(siz) R M Lvl/name

     0-0-0/w SBIN              1 LA_PUT

  ****  Section 003 LblCom LA_GET

  ****  Scalars and arrays  ****
OctLoc.c.b A Datatyp(siz) R M Lvl/name                 OctLoc.c.b A Datatyp(siz) R M Lvl/name

     0-0-0/w SBIN              1 LA_GET

  ****  Section 004 LblCom REDUCTION

  ****  Scalars and arrays  ****
OctLoc.c.b A Datatyp(siz) R M Lvl/name                 OctLoc.c.b A Datatyp(siz) R M Lvl/name

     0-0-0/w SBIN              1 REDUCTION

PL6.E3A0      #002=SEMANTICS File=LR_NRGRAM.:Z8A6TSI                             SAT 08/09/97 09:39 Page:182
  ****  Section 005 LblCom PARSE_STACK

  ****  Scalars and arrays  ****
OctLoc.c.b A Datatyp(siz) R M Lvl/name                 OctLoc.c.b A Datatyp(siz) R M Lvl/name

     0-0-0/w SBIN              1 PARSE_STACK(0:500)

  ****  Section 006 LblCom PARSE_STACK_IDX

  ****  Scalars and arrays  ****
OctLoc.c.b A Datatyp(siz) R M Lvl/name                 OctLoc.c.b A Datatyp(siz) R M Lvl/name

     0-0-0/w SBIN(18)          1 PARSE_STACK_IDX

  ****  Section 007 LblCom ERRLINE

  ****  Scalars and arrays  ****
OctLoc.c.b A Datatyp(siz) R M Lvl/name                 OctLoc.c.b A Datatyp(siz) R M Lvl/name

     0-0-0/w SBIN              1 ERRLINE

  ****  Section 008 LblCom ERRCOL

  ****  Scalars and arrays  ****
OctLoc.c.b A Datatyp(siz) R M Lvl/name                 OctLoc.c.b A Datatyp(siz) R M Lvl/name

     0-0-0/w SBIN              1 ERRCOL

  ****  Section 009 LblCom ERR_LA_GET

  ****  Scalars and arrays  ****
OctLoc.c.b A Datatyp(siz) R M Lvl/name                 OctLoc.c.b A Datatyp(siz) R M Lvl/name

     0-0-0/w SBIN              1 ERR_LA_GET

  ****  Section 010 LblCom ERR_LA_PUT

PL6.E3A0      #002=SEMANTICS File=LR_NRGRAM.:Z8A6TSI                             SAT 08/09/97 09:39 Page:183
  ****  Scalars and arrays  ****
OctLoc.c.b A Datatyp(siz) R M Lvl/name                 OctLoc.c.b A Datatyp(siz) R M Lvl/name

     0-0-0/w SBIN              1 ERR_LA_PUT

  ****  Section 011 LblCom ERR_LA_CNT

  ****  Scalars and arrays  ****
OctLoc.c.b A Datatyp(siz) R M Lvl/name                 OctLoc.c.b A Datatyp(siz) R M Lvl/name

     0-0-0/w SBIN              1 ERR_LA_CNT

  ****  Section 012 LblCom ERR_RECOVERY_IN_PROGRESS

  ****  Scalars and arrays  ****
OctLoc.c.b A Datatyp(siz) R M Lvl/name                 OctLoc.c.b A Datatyp(siz) R M Lvl/name

     0-0-0/b BIT               1 ERR_RECOVERY_IN_PROGRESS

  ****  Section 013 LblCom PARSE_ERROR_COUNT

  ****  Scalars and arrays  ****
OctLoc.c.b A Datatyp(siz) R M Lvl/name                 OctLoc.c.b A Datatyp(siz) R M Lvl/name

     0-0-0/w SBIN              1 PARSE_ERROR_COUNT

  ****  Section 014 LblCom ALT_PARSE_STACK

  ****  Scalars and arrays  ****
OctLoc.c.b A Datatyp(siz) R M Lvl/name                 OctLoc.c.b A Datatyp(siz) R M Lvl/name

     0-0-0/w SBIN              1 ALT_PARSE_STACK(0:500)

  ****  Section 015 LblCom ALT_PARSE_STACK_IDX

  ****  Scalars and arrays  ****
OctLoc.c.b A Datatyp(siz) R M Lvl/name                 OctLoc.c.b A Datatyp(siz) R M Lvl/name
PL6.E3A0      #002=SEMANTICS File=LR_NRGRAM.:Z8A6TSI                             SAT 08/09/97 09:39 Page:184

     0-0-0/w SBIN              1 ALT_PARSE_STACK_IDX

  ****  Section 016 LblCom RED_STACK

  ****  Scalars and arrays  ****
OctLoc.c.b A Datatyp(siz) R M Lvl/name                 OctLoc.c.b A Datatyp(siz) R M Lvl/name

     0-0-0/w SBIN              1 RED_STACK(0:500)

  ****  Section 017 LblCom RED_STACK_TOP

  ****  Scalars and arrays  ****
OctLoc.c.b A Datatyp(siz) R M Lvl/name                 OctLoc.c.b A Datatyp(siz) R M Lvl/name

     0-0-0/w SBIN              1 RED_STACK_TOP

  ****  Section 018 LblCom IED_FLAG

  ****  Scalars and arrays  ****
OctLoc.c.b A Datatyp(siz) R M Lvl/name                 OctLoc.c.b A Datatyp(siz) R M Lvl/name

     0-0-0/b BIT               1 IED_FLAG

  ****  Section 019 LblCom ALT_LX_TOP

  ****  Scalars and arrays  ****
OctLoc.c.b A Datatyp(siz) R M Lvl/name                 OctLoc.c.b A Datatyp(siz) R M Lvl/name

     0-0-0/w SBIN              1 ALT_LX_TOP

  ****  Section 020 LblCom CORRECTION

  ****  Scalars and arrays  ****
OctLoc.c.b A Datatyp(siz) R M Lvl/name                 OctLoc.c.b A Datatyp(siz) R M Lvl/name

     0-0-0/w STRC(1890)        1 CORRECTION
PL6.E3A0      #002=SEMANTICS File=LR_NRGRAM.:Z8A6TSI                             SAT 08/09/97 09:39 Page:185

  ****  Section 021 LblCom LA_STK

  ****  Scalars and arrays  ****
OctLoc.c.b A Datatyp(siz) R M Lvl/name                 OctLoc.c.b A Datatyp(siz) R M Lvl/name

     0-0-0/w STRC(216)         1 LA_STK(0:50)

  ****  Section 022 LblCom LX_TOP

  ****  Scalars and arrays  ****
OctLoc.c.b A Datatyp(siz) R M Lvl/name                 OctLoc.c.b A Datatyp(siz) R M Lvl/name

     0-0-0/w SBIN        r     1 LX_TOP

  ****  Section 023 LblCom LX_STK

  ****  Scalars and arrays  ****
OctLoc.c.b A Datatyp(siz) R M Lvl/name                 OctLoc.c.b A Datatyp(siz) R M Lvl/name

     0-0-0/w STRC(216)   r     1 LX_STK(0:50)

  ****  Section 024 LblCom OUT_DCBN

  ****  Scalars and arrays  ****
OctLoc.c.b A Datatyp(siz) R M Lvl/name                 OctLoc.c.b A Datatyp(siz) R M Lvl/name

     0-0-0/w SBIN              1 OUT_DCBN

  ****  Section 030 LblCom SYM_PTRS

  ****  Scalars and arrays  ****
OctLoc.c.b A Datatyp(siz) R M Lvl/name                 OctLoc.c.b A Datatyp(siz) R M Lvl/name

     0-0-0/w PTR         r     1 SYM_PTRS(0:1400)

  ****  Section 031 LblCom RIGHT_PARTS
PL6.E3A0      #002=SEMANTICS File=LR_NRGRAM.:Z8A6TSI                             SAT 08/09/97 09:39 Page:186

  ****  Scalars and arrays  ****
OctLoc.c.b A Datatyp(siz) R M Lvl/name                 OctLoc.c.b A Datatyp(siz) R M Lvl/name

     0-0-0/h SBIN(18)    r     1 RIGHT_PARTS(0:8000)

  ****  Section 032 LblCom PROD

  ****  Scalars and arrays  ****
OctLoc.c.b A Datatyp(siz) R M Lvl/name                 OctLoc.c.b A Datatyp(siz) R M Lvl/name

     0-0-0/h STRC(72)    r     1 PROD(0:1500)

  ****  Section 033 LblCom NR_PROD

  ****  Scalars and arrays  ****
OctLoc.c.b A Datatyp(siz) R M Lvl/name                 OctLoc.c.b A Datatyp(siz) R M Lvl/name

     0-0-0/w SBIN        r     1 NR_PROD

  ****  Section 034 LblCom NR_SYMS

  ****  Scalars and arrays  ****
OctLoc.c.b A Datatyp(siz) R M Lvl/name                 OctLoc.c.b A Datatyp(siz) R M Lvl/name

     0-0-0/w SBIN        r     1 NR_SYMS

  ****  Section 035 LblCom NR_TERM

  ****  Scalars and arrays  ****
OctLoc.c.b A Datatyp(siz) R M Lvl/name                 OctLoc.c.b A Datatyp(siz) R M Lvl/name

     0-0-0/w SBIN              1 NR_TERM

  ****  Section 036 LblCom LAST_ACT

  ****  Scalars and arrays  ****
PL6.E3A0      #002=SEMANTICS File=LR_NRGRAM.:Z8A6TSI                             SAT 08/09/97 09:39 Page:187
OctLoc.c.b A Datatyp(siz) R M Lvl/name                 OctLoc.c.b A Datatyp(siz) R M Lvl/name

     0-0-0/w SBIN              1 LAST_ACT

  ****  Section 037 LblCom LAST_NULL

  ****  Scalars and arrays  ****
OctLoc.c.b A Datatyp(siz) R M Lvl/name                 OctLoc.c.b A Datatyp(siz) R M Lvl/name

     0-0-0/w SBIN              1 LAST_NULL

  ****  Section 038 LblCom NR_ONRIGHT

  ****  Scalars and arrays  ****
OctLoc.c.b A Datatyp(siz) R M Lvl/name                 OctLoc.c.b A Datatyp(siz) R M Lvl/name

     0-0-0/w SBIN        r     1 NR_ONRIGHT

  ****  Section 039 LblCom NR_NT

  ****  Scalars and arrays  ****
OctLoc.c.b A Datatyp(siz) R M Lvl/name                 OctLoc.c.b A Datatyp(siz) R M Lvl/name

     0-0-0/w SBIN              1 NR_NT

  ****  Section 040 LblCom PROD_LEN_MAX_EVER

  ****  Scalars and arrays  ****
OctLoc.c.b A Datatyp(siz) R M Lvl/name                 OctLoc.c.b A Datatyp(siz) R M Lvl/name

     0-0-0/w SBIN              1 PROD_LEN_MAX_EVER

  ****  Section 041 LblCom LAST_ORDER_SPECIFIED

  ****  Scalars and arrays  ****
OctLoc.c.b A Datatyp(siz) R M Lvl/name                 OctLoc.c.b A Datatyp(siz) R M Lvl/name

PL6.E3A0      #002=SEMANTICS File=LR_NRGRAM.:Z8A6TSI                             SAT 08/09/97 09:39 Page:188
     0-0-0/w SBIN        r     1 LAST_ORDER_SPECIFIED

  ****  Section 042 LblCom SEMANTIC_ORDERING

  ****  Scalars and arrays  ****
OctLoc.c.b A Datatyp(siz) R M Lvl/name                 OctLoc.c.b A Datatyp(siz) R M Lvl/name

     0-0-0/b BIT         r     1 SEMANTIC_ORDERING

  ****  Section 043 LblCom ERR_SEV

  ****  Scalars and arrays  ****
OctLoc.c.b A Datatyp(siz) R M Lvl/name                 OctLoc.c.b A Datatyp(siz) R M Lvl/name

     0-0-0/w SBIN              1 ERR_SEV

  ****  Section 044 LblCom SET_LENGTHB

  ****  Scalars and arrays  ****
OctLoc.c.b A Datatyp(siz) R M Lvl/name                 OctLoc.c.b A Datatyp(siz) R M Lvl/name

     0-0-0/w SBIN              1 SET_LENGTHB

  ****  Section 045 LblCom SET_LENGTHW

  ****  Scalars and arrays  ****
OctLoc.c.b A Datatyp(siz) R M Lvl/name                 OctLoc.c.b A Datatyp(siz) R M Lvl/name

     0-0-0/w SBIN              1 SET_LENGTHW

  ****  Section 046 LblCom EOF_SYMBOL_PTR

  ****  Scalars and arrays  ****
OctLoc.c.b A Datatyp(siz) R M Lvl/name                 OctLoc.c.b A Datatyp(siz) R M Lvl/name

     0-0-0/w PTR         r     1 EOF_SYMBOL_PTR

PL6.E3A0      #002=SEMANTICS File=LR_NRGRAM.:Z8A6TSI                             SAT 08/09/97 09:39 Page:189
  ****  Section 047 LblCom ERROR_SYMBOL_PTR

  ****  Scalars and arrays  ****
OctLoc.c.b A Datatyp(siz) R M Lvl/name                 OctLoc.c.b A Datatyp(siz) R M Lvl/name

     0-0-0/w PTR         r     1 ERROR_SYMBOL_PTR

  ****  Section 048 LblCom BOF_SYMBOL_PTR

  ****  Scalars and arrays  ****
OctLoc.c.b A Datatyp(siz) R M Lvl/name                 OctLoc.c.b A Datatyp(siz) R M Lvl/name

     0-0-0/w PTR         r     1 BOF_SYMBOL_PTR

  ****  Section 049 LblCom OPTIONS

  ****  Scalars and arrays  ****
OctLoc.c.b A Datatyp(siz) R M Lvl/name                 OctLoc.c.b A Datatyp(siz) R M Lvl/name

     0-0-0/b BIT               1 OPTIONS(0:25)

  ****  Section 050 LblCom OPTIONS_TEXT

  ****  Scalars and arrays  ****
OctLoc.c.b A Datatyp(siz) R M Lvl/name                 OctLoc.c.b A Datatyp(siz) R M Lvl/name

     0-0-0/c CHAR(4)           1 OPTIONS_TEXT(0:25)

  ****  Section 051 LblCom INSTR

  ****  Scalars and arrays  ****
OctLoc.c.b A Datatyp(siz) R M Lvl/name                 OctLoc.c.b A Datatyp(siz) R M Lvl/name

     0-0-0/c CHAR              1 INSTR(0:511)               0-0-0/c CHAR(512)         1 INSTRCHR

  ****  Section 052 LblCom INSTR_LISTED

PL6.E3A0      #002=SEMANTICS File=LR_NRGRAM.:Z8A6TSI                             SAT 08/09/97 09:39 Page:190
  ****  Scalars and arrays  ****
OctLoc.c.b A Datatyp(siz) R M Lvl/name                 OctLoc.c.b A Datatyp(siz) R M Lvl/name

     0-0-0/b BIT               1 INSTR_LISTED

  ****  Section 053 LblCom INSTR_LEN

  ****  Scalars and arrays  ****
OctLoc.c.b A Datatyp(siz) R M Lvl/name                 OctLoc.c.b A Datatyp(siz) R M Lvl/name

     0-0-0/w SBIN              1 INSTR_LEN

  ****  Section 054 LblCom INSTR_INDX

  ****  Scalars and arrays  ****
OctLoc.c.b A Datatyp(siz) R M Lvl/name                 OctLoc.c.b A Datatyp(siz) R M Lvl/name

     0-0-0/w SBIN              1 INSTR_INDX

  ****  Section 055 LblCom EOF_FLAG

  ****  Scalars and arrays  ****
OctLoc.c.b A Datatyp(siz) R M Lvl/name                 OctLoc.c.b A Datatyp(siz) R M Lvl/name

     0-0-0/b BIT               1 EOF_FLAG

  ****  Section 056 LblCom KEY_REC

  ****  Scalars and arrays  ****
OctLoc.c.b A Datatyp(siz) R M Lvl/name                 OctLoc.c.b A Datatyp(siz) R M Lvl/name

     0-0-0/c CHAR(10)    r     1 KEY_REC

  ****  Section 057 LblCom LINE

  ****  Scalars and arrays  ****
OctLoc.c.b A Datatyp(siz) R M Lvl/name                 OctLoc.c.b A Datatyp(siz) R M Lvl/name
PL6.E3A0      #002=SEMANTICS File=LR_NRGRAM.:Z8A6TSI                             SAT 08/09/97 09:39 Page:191

     0-0-0/c CHAR(109)         1 LINE

  ****  Section 058 LblCom LINELEN

  ****  Scalars and arrays  ****
OctLoc.c.b A Datatyp(siz) R M Lvl/name                 OctLoc.c.b A Datatyp(siz) R M Lvl/name

     0-0-0/w SBIN              1 LINELEN

  ****  Section 059 LblCom TSTATS

  ****  Scalars and arrays  ****
OctLoc.c.b A Datatyp(siz) R M Lvl/name                 OctLoc.c.b A Datatyp(siz) R M Lvl/name

     0-0-0/w STRC(7380)        1 TSTATS

  ****  Section 060  Data  SEMANTICS

  ****  Scalars and arrays  ****
OctLoc.c.b A Datatyp(siz) R M Lvl/name                 OctLoc.c.b A Datatyp(siz) R M Lvl/name

     1-0-0/w PTR         r     1 EMPTY_SYMBOL_PTR           3-0-0/w SBIN        r     1 LAST_DEL_COST
     2-0-0/w SBIN        r     1 LAST_INS_COST              4-0-0/b BIT         r     1 LAST_LEFT_ASSOC
     5-0-0/b BIT         r     1 LAST_RIGHT_ASSOC           0-0-0/w SBIN        r     1 LHS_INDEX
     6-0-0/w PTR         r     1 ORDER_SYM_PTR              7-0-0/b BIT         r     1 SSSCOMMENT

  ****  Section 061 LblCom HASH_HEADS

  ****  Scalars and arrays  ****
OctLoc.c.b A Datatyp(siz) R M Lvl/name                 OctLoc.c.b A Datatyp(siz) R M Lvl/name

     0-0-0/w PTR         r     1 HASH_HEADS(0:257)

  ****  Auto variables  ****

  ****  Scalars and arrays  ****
PL6.E3A0      #002=SEMANTICS File=LR_NRGRAM.:Z8A6TSI                             SAT 08/09/97 09:39 Page:192
OctLoc.c.b A Datatyp(siz) R M Lvl/name                 OctLoc.c.b A Datatyp(siz) R M Lvl/name

     3-0-0/w PTR         r     1 @ACTION                   71-0-0/w PTR         r     1 @LENGTH
    13-0-0/w PTR         r     1 @SYM_TYPE                 72-0-0/w PTR         r     1 @TEXT
    *0-0-0/w SBIN        r     1 ACTION                    10-0-0/w PTR         r     1 DNT_PTR
    20-0-0/b BIT         r     1 FOUND                     16-0-0/w SBIN        r     1 HASHVAL
    17-0-0/w SBIN        r     1 I                         11-0-0/w SBIN        r     1 II
    *0-0-0/w SBIN        r     1 LENGTH                     5-0-0/w SBIN        r     1 LX_INDEX
    23-0-0/w PTR         r     1 NEW$                      15-0-0/w SBIN        r     1 NEWLEN
    75-0-0/w SBIN        r     1 NEWSTART                  76-0-0/c CHAR(140)   r     1 NEWTEXT
    22-0-0/w PTR         r     1 P$
     4-0-0/w SBIN        r     1 PARSE_STACK_IDX_IN_CHARS
    21-0-0/b BIT         r     1 QUOTED_REP                73-0-0/w SBIN        r     1 START
    74-0-0/w SBIN        r     1 STOP                      14-0-0/w SBIN        r     1 SYMLEN
     7-0-0/w PTR         r     1 SYM_PTR                   *0-0-0/w SBIN        r     1 SYM_TYPE
     6-0-0/w SBIN        r     1 TARGET                    *0-0-0/c CHAR(140)   r     1 TEXT
    24-0-0/c CHAR(140)   r     1 TEXTCHAR
    24-0-0/w SBIN        r     1 TEXTWORD(0:34)

  ****  BASED and DCB variables  ****

  ****  Scalars and arrays  ****
OctLoc.c.b A Datatyp(siz) R M Lvl/name                 OctLoc.c.b A Datatyp(siz) R M Lvl/name

     0-0-0/w ASTR        r     1 DNT                        0-0-0/w STRC(216)         1 LX_ITEM
     0-0-0N  NULL        r     1 M$LO                       0-0-0N  NULL        r     1 M$OU
     0-0-0N  NULL        r     1 M$SI                       0-0-0N  NULL        r     1 M$SO
     0-0-0N  NULL        r     1 M$UI                       0-0-0/c ACHR              1 PARSE_STACK_USED
     0-0-0/w STRC(351)   r     1 SYMBOL


   Procedure SEMANTICS requires 724 words for executable code.
   Procedure SEMANTICS requires 102 words of local(AUTO) storage.

PL6.E3A0      #003=SCANNER File=LR_NRGRAM.:Z8A6TSI                               SAT 08/09/97 09:39 Page:193
      457        1        /*M* DRIVER FOR THE SCANNER */
      458        2        /*T***********************************************************/
      459        3        /*T*                                                         */
      460        4        /*T* Copyright (c) Bull HN Information Systems Inc., 1997    */
      461        5        /*T*                                                         */
      462        6        /*T***********************************************************/
      463        7
      464        8
      465        9        /*P*
      466       10             NAME: SCANNER
      467       11          PURPOSE: Provide the driving routine for the scanner .
      468       12        */
      469       13
      470       14
      471       15
      472       16        SCANNER: PROC(TOKEN);
      473       17
      474       18
      475       19
      476       20        /*D*
      477       21                   NAME: SCANNER
      478       22        DESCRIPTION: The scanner is also a LALR(1) parser.  This fuctions
      479       23                     as the driver.  Whenever a token in recognized, the
      480       24                     lexical semantics will UNWIND back to the routine.
      481       25
      482       26                    Unfortunately this could not be accomplished using
      483       27                     coroutines because PL6 does not support them.
      484       28        */
      485       29
      486       30    1   DCL TOKEN PTR;
      487       31
      488       32        %INCLUDE LR_GRAM_EXT;
      489      571        %INCLUDE LRX_SUBS;
      490      619
      491      620    1   DCL LEX_REMEMBER REMEMBER EXT;
      492      621    1   DCL P_TOKEN PTR EXT;
      493      622
PL6.E3A0      #003=SCANNER File=LR_NRGRAM.:Z8A6TSI                               SAT 08/09/97 09:39 Page:194
      494      623         %INCLUDE LR_PARSER_SI;
      495    20499         %INCLUDE PARSER_SUBS;
      496    20546
      497    20547    1   P_TOKEN = TOKEN;
      498    20548    1   REMEMBER LEX_FINISHED IN LEX_REMEMBER;
      499    20549    1   CALL PARSER;
      500    20550    1   LEX_FINISHED: ;
      501    20551    1   END SCANNER;
      502    20552        %EOD;

PL6.E3A0      #003=SCANNER File=LR_NRGRAM.:Z8A6TSI                               SAT 08/09/97 09:39 Page:195
--  Include file information  --

   PARSER_SUBS.:Z8A6TOU  is referenced.
   PARSER_EC_SI.:Z8A6TOU  is referenced.
   PARSER_STATS.:Z8A6TOU  is referenced.
   PARSER_MACROS.:Z8A6TOU  cannot be made into a system file and is referenced.
   CP_6_C.:LIB_E04  is referenced.
   CP_6.:LIB_E04  cannot be made into a system file and is referenced.
   PARSER_STATE.:Z8A6TOU  cannot be made into a system file and is referenced.
   PARSER_STACK.:Z8A6TOU  cannot be made into a system file and is referenced.
   LRXDPDA_SUBS.:Z8A6TOU  is referenced.
   LR_PARSER_SI.:Z8A6TOU  cannot be made into a system file and is referenced.
   LRX_SUBS.:Z8A6TOU  is referenced.
   LR_IO_EXT.:Z8A6TOU  cannot be made into a system file and is referenced.
   LR_GRAM_EXT.:Z8A6TOU  cannot be made into a system file and is referenced.
      No diagnostics issued in procedure SCANNER.

   Procedure SCANNER requires 723 words for executable code.
   Procedure SCANNER requires 90 words of local(AUTO) storage.

PL6.E3A0      #003=SCANNER File=LR_NRGRAM.:Z8A6TSI                               SAT 08/09/97 09:39 Page:196

 Object Unit name= SCANNER                                    File name= LR_NRGRAM.:Z8A6TOU
 UTS= AUG 09 '97 09:39:53.76 SAT                              Compiler= PL-6/E31         Sev=      00
 SharedLib= :SHARED_SYSTEM                                    Alt SharedLib=


    ****  Control sections  ****

 Sect   Type Bound  Init  Size OctSiz  Section name(segment info)
    0  LblCom even  none     1      1  OUT_DCBN
    1   DCB   even  none     0      0  M$OU
    2   DCB   even  none     0      0  M$SO
    3   DCB   even  none     0      0  M$LO
    4   DCB   even  none     0      0  M$SI
    5   DCB   even  none     0      0  M$UI
    6  LblCom even  none  1401   2571  SYM_PTRS
    7  LblCom even  none  4001   7641  RIGHT_PARTS
    8  LblCom even  none  3002   5672  PROD
    9  LblCom even  none     1      1  NR_PROD
   10  LblCom even  none     1      1  NR_SYMS
   11  LblCom even  none     1      1  NR_TERM
   12  LblCom even  none     1      1  LAST_ACT
   13  LblCom even  none     1      1  LAST_NULL
   14  LblCom even  none     1      1  NR_ONRIGHT
   15  LblCom even  none     1      1  NR_NT
   16  LblCom even  none     1      1  PROD_LEN_MAX_EVER
   17  LblCom even  none     1      1  LAST_ORDER_SPECIFIED
   18  LblCom even  none     1      1  SEMANTIC_ORDERING
   19  LblCom even  none     1      1  ERR_SEV
   20  LblCom even  none     1      1  SET_LENGTHB
   21  LblCom even  none     1      1  SET_LENGTHW
   22  LblCom even  none     1      1  EOF_SYMBOL_PTR
   23  LblCom even  none     1      1  ERROR_SYMBOL_PTR
   24  LblCom even  none     1      1  BOF_SYMBOL_PTR
   25  LblCom even  none     1      1  OPTIONS
   26  LblCom even  none    26     32  OPTIONS_TEXT
   27  LblCom even  none   128    200  INSTR
   28  LblCom even  none     1      1  INSTR_LISTED
PL6.E3A0      #003=SCANNER File=LR_NRGRAM.:Z8A6TSI                               SAT 08/09/97 09:39 Page:197
   29  LblCom even  none     1      1  INSTR_LEN
   30  LblCom even  none     1      1  INSTR_INDX
   31  LblCom even  none     1      1  EOF_FLAG
   32  LblCom even  none     3      3  KEY_REC
   33  LblCom even  none    28     34  LINE
   34  LblCom even  none     1      1  LINELEN
   35  LblCom even  none   205    315  TSTATS
   36  LblCom even  none     2      2  LEX_REMEMBER
   37  LblCom even  none     1      1  P_TOKEN
   38  LblCom even  none     1      1  LASTCARD
   39  LblCom even  none     1      1  LASTCOLUMN
   40  LblCom even  none   306    462  LEX_LA_STK
   41  LblCom even  none     1      1  LEX_LX_TOP
   42  LblCom even  none   306    462  LEX_LX_STK
   43  LblCom even  none     1      1  LEX_STATE
   44  LblCom even  none     1      1  LEX_LA_CNT
   45  LblCom even  none     1      1  LEX_LA_PUT
   46  LblCom even  none     1      1  LEX_LA_GET
   47  LblCom even  none     1      1  REDUCTION
   48  LblCom even  none   501    765  LEX_PARSE_STACK
   49  LblCom even  none     1      1  LEX_PARSE_STACK_IDX
   50  LblCom even  none     1      1  LEX_ERRLINE
   51  LblCom even  none     1      1  LEX_ERRCOL
   52  LblCom even  none     1      1  ERR_LEX_LA_GET
   53  LblCom even  none     1      1  ERR_LEX_LA_PUT
   54  LblCom even  none     1      1  ERR_LEX_LA_CNT
   55  LblCom even  none     1      1  LEX_ERR_RECOVERY_IN_PROGRESS
   56  LblCom even  none     1      1  LEX_PARSE_ERROR_COUNT
   57   DCB   even  none     0      0  M$UC
   58   Data  even  none     1      1  SCANNER
   59  RoData even  UTS     35     43  SCANNER
   60   Proc  even  none   723   1323  SCANNER
   61  RoData even  none    21     25  SCANNER
PL6.E3A0      #003=SCANNER File=LR_NRGRAM.:Z8A6TSI                               SAT 08/09/97 09:39 Page:198

    ****  Entry defs  ****

                              Check   Calling
                             calling  sequence
  Sect OctLoc Primary Altret sequence   type   Parms  Name
    60      0   yes            yes      Std        1  SCANNER

  ****  Entry refs  ****

         Check        Calling
        calling       sequence
Altret sequence SRef   type   Args  Name
         yes           Std       1 SCAN
         yes           Std       1 LEX_SEMANTICS
         yes           Std       6 DIAG
                       nStd      0 X66_AUTO_1
                       nStd      0 X66_ARET

  ****  Data refs  ****

  Flags:  r = read only, s = secondary
Flgs Name                             Flgs Name                             Flgs Name
     M$OU                                  M$SO                                  M$LO
     M$SI                                  M$UI                                  M$UC
r    LEX_PRODR                        r    LEX_ACTION_COL                   r    LEX_ACTION_ROW
r    LEX_GOTO_COL                     r    LEX_GOTO_ROW

  ****  Segment refs  ****

  Flags:  r = read only, s = secondary
Flgs Name                             Flgs Name                             Flgs Name
     NULLSID                               ISSID
PL6.E3A0      #003=SCANNER File=LR_NRGRAM.:Z8A6TSI                               SAT 08/09/97 09:39 Page:199


      457        1        /*M* DRIVER FOR THE SCANNER */
      458        2        /*T***********************************************************/
      459        3        /*T*                                                         */
      460        4        /*T* Copyright (c) Bull HN Information Systems Inc., 1997    */
      461        5        /*T*                                                         */
      462        6        /*T***********************************************************/
      463        7
      464        8
      465        9        /*P*
      466       10             NAME: SCANNER
      467       11          PURPOSE: Provide the driving routine for the scanner .
      468       12        */
      469       13
      470       14
      471       15
      472       16        SCANNER: PROC(TOKEN);

     16 60 000000   000000 700200 xent  SCANNER      TSX0  ! X66_AUTO_1
        60 000001   000132 000001                    ZERO    90,1
        60 000002   001312 710000 60                 TRA     s:20547

      473       17
      474       18
      475       19
      476       20        /*D*
      477       21                   NAME: SCANNER
      478       22        DESCRIPTION: The scanner is also a LALR(1) parser.  This fuctions
      479       23                     as the driver.  Whenever a token in recognized, the
      480       24                     lexical semantics will UNWIND back to the routine.
      481       25
      482       26                    Unfortunately this could not be accomplished using
      483       27                     coroutines because PL6 does not support them.
      484       28        */
      485       29
      486       30    1   DCL TOKEN PTR;
      487       31
PL6.E3A0      #003=SCANNER File=LR_NRGRAM.:Z8A6TSI                               SAT 08/09/97 09:39 Page:200
      488       32        %INCLUDE LR_GRAM_EXT;
      489      571        %INCLUDE LRX_SUBS;
      490      619
      491      620    1   DCL LEX_REMEMBER REMEMBER EXT;
      492      621    1   DCL P_TOKEN PTR EXT;
      493      622
      494      623         %INCLUDE LR_PARSER_SI;

    640 60 000003   200004 741300       PARSER       STX1  ! @TOKEN+1,,AUTO
        60 000004   000037 710000 60                 TRA     s:19871

  19731 60 000005   200012 741300       ERROR        STX1  ! INDX+1,,AUTO

  19751 60 000006   200013 470500                    LDP0    @ERROR_TYPE,,AUTO
        60 000007   000000 235100                    LDA     0,,PR0
        60 000010   000003 115007                    CMPA    3,DL
        60 000011   000013 602005 60                 TNC     s:19751+5,AL
        60 000012   000035 710000 60                 TRA     s:19835
        60 000013   000016 710000 60                 TRA     s:19755
        60 000014   000023 710000 60                 TRA     s:19762
        60 000015   000030 710000 60                 TRA     s:19769

  19755 60 000016   000002 630400 61                 EPPR0   2
        60 000017   000000 631400 61                 EPPR1   0
        60 000020   000000 701000 xent               TSX1    DIAG
        60 000021   000000 011000                    NOP     0
        60 000022   000035 710000 60                 TRA     s:19835

  19762 60 000023   000004 630400 61                 EPPR0   4
        60 000024   000000 631400 61                 EPPR1   0
        60 000025   000000 701000 xent               TSX1    DIAG
        60 000026   000000 011000                    NOP     0
        60 000027   000035 710000 60                 TRA     s:19835

  19769 60 000030   000006 630400 61                 EPPR0   6
        60 000031   000000 631400 61                 EPPR1   0
        60 000032   000000 701000 xent               TSX1    DIAG
PL6.E3A0      #003=SCANNER File=LR_NRGRAM.:Z8A6TSI                               SAT 08/09/97 09:39 Page:201
        60 000033   000000 011000                    NOP     0
        60 000034   000035 710000 60                 TRA     s:19835

  19835 60 000035   200012 221300                    LDX1  ! INDX+1,,AUTO
        60 000036   000001 702211                    TSX2  ! 1,X1

  19871 60 000037   000000 220003                    LDX0    0,DU
        60 000040   200011 740100                    STX0    INDX,,AUTO
        60 000041   000053 710000 60                 TRA     s:19873+2

  19872 60 000042   200011 236100                    LDQ     INDX,,AUTO
        60 000043   000022 732000                    QRS     18
        60 000044   000006 402007                    MPY     6,DL
        60 000045   200011 235100                    LDA     INDX,,AUTO
        60 000046   000022 731000                    ARS     18
        60 000047   000001 035007                    ADLA    1,DL
        60 000050   000005 755006 40                 STA     LEX_LA_STK+5,QL

  19873 60 000051   000000 620005                    EAX0    0,AL
        60 000052   200011 740100                    STX0    INDX,,AUTO
        60 000053   000061 100003                    CMPX0   49,DU
        60 000054   000042 604400 60                 TMOZ    s:19872

  19874 60 000055   000461 450000 40                 STZ     LEX_LA_STK+305

  19881 60 000056   000000 221003                    LDX1    0,DU
        60 000057   000000 741000 49                 STX1    LEX_PARSE_STACK_IDX

  19882 60 000060   000001 222003                    LDX2    1,DU
        60 000061   000000 742000 43                 STX2    LEX_STATE

  19883 60 000062   000000 450000 41                 STZ     LEX_LX_TOP

  19884 60 000063   000000 235000 43                 LDA     LEX_STATE
        60 000064   000022 731000                    ARS     18
        60 000065   000000 755011 48                 STA     LEX_PARSE_STACK,X1

PL6.E3A0      #003=SCANNER File=LR_NRGRAM.:Z8A6TSI                               SAT 08/09/97 09:39 Page:202
  19893 60 000066   000000 220000 43                 LDX0    LEX_STATE
        60 000067   000000 721010 xsym               LXL1    LEX_ACTION_COL,X0
        60 000070   000074 601000 60                 TNZ     s:19932

  19898 60 000071   000000 222010 xsym               LDX2    LEX_ACTION_COL,X0
        60 000072   200010 742100                    STX2    ACTION,,AUTO

  19899 60 000073   000312 710000 60                 TRA     s:20035

  19932 60 000074   000000 235000 44                 LDA     LEX_LA_CNT
        60 000075   000252 605400 60                 TPNZ    s:19992

  19933 60 000076   000000 234000 58                 SZN     PANIC_MODE_IN_PROGRESS
        60 000077   000121 604000 60                 TMI     s:19946

  19939 60 000100   000000 236000 45                 LDQ     LEX_LA_PUT
        60 000101   000006 402003                    MPY     6,DU
        60 000102   000011 036000 61                 ADLQ    9
        60 000103   200126 756100                    STQ     TEXTCHAR2+36,,AUTO
        60 000104   200126 630500                    EPPR0   TEXTCHAR2+36,,AUTO
        60 000105   200127 450500                    STP0    TEXTCHAR2+37,,AUTO
        60 000106   200127 630500                    EPPR0   TEXTCHAR2+37,,AUTO
        60 000107   000010 631400 61                 EPPR1   8
        60 000110   000000 701000 xent               TSX1    SCAN
        60 000111   000000 011000                    NOP     0

  19941 60 000112   000000 236000 45                 LDQ     LEX_LA_PUT
        60 000113   000006 402007                    MPY     6,DL
        60 000114   000005 235006 40                 LDA     LEX_LA_STK+5,QL
        60 000115   000000 755000 45                 STA     LEX_LA_PUT

  19942 60 000116   000001 236007                    LDQ     1,DL
        60 000117   000000 756000 44                 STQ     LEX_LA_CNT

  19943 60 000120   000252 710000 60                 TRA     s:19992

  19946 60 000121   000000 236000 54                 LDQ     ERR_LEX_LA_CNT
PL6.E3A0      #003=SCANNER File=LR_NRGRAM.:Z8A6TSI                               SAT 08/09/97 09:39 Page:203
        60 000122   000000 756000 44                 STQ     LEX_LA_CNT

  19947 60 000123   000000 235000 53                 LDA     ERR_LEX_LA_PUT
        60 000124   000000 755000 45                 STA     LEX_LA_PUT

  19948 60 000125   000000 235000 52                 LDA     ERR_LEX_LA_GET
        60 000126   000000 755000 46                 STA     LEX_LA_GET

  19949 60 000127   000000 236000 46                 LDQ     LEX_LA_GET
        60 000130   000006 402007                    MPY     6,DL
        60 000131   000000 622006                    EAX2    0,QL
        60 000132   000000 236010 xsym               LDQ     LEX_ACTION_COL,X0
        60 000133   777777 376007                    ANQ     -1,DL
        60 000134   000000 036012 40                 ADLQ    LEX_LA_STK,X2
        60 000135   000000 235000 43                 LDA     LEX_STATE
        60 000136   000022 731000                    ARS     18
        60 000137   200126 755100                    STA     TEXTCHAR2+36,,AUTO
        60 000140   000000 236006 xsym               LDQ     LEX_ACTION_ROW,QL
        60 000141   777777 376007                    ANQ     -1,DL
        60 000142   200126 116100                    CMPQ    TEXTCHAR2+36,,AUTO
        60 000143   000234 600000 60                 TZE     s:19979

  19950 60 000144   000000 236000 46                 LDQ     LEX_LA_GET
        60 000145   000006 402007                    MPY     6,DL
        60 000146   000000 235006 40                 LDA     LEX_LA_STK,QL
        60 000147   000143 115007                    CMPA    99,DL
        60 000150   000166 601000 60                 TNZ     s:19965

  19955 60 000151   000001 235006 40                 LDA     LEX_LA_STK+1,QL
        60 000152   000000 755000 50                 STA     LEX_ERRLINE

  19956 60 000153   000002 235006 40                 LDA     LEX_LA_STK+2,QL
        60 000154   000000 755000 51                 STA     LEX_ERRCOL

  19959 60 000155   000013 236000 61                 LDQ     11
        60 000156   000013 235000 61                 LDA     11
        60 000157   200014 757100                    STAQ    @ERROR_TYPE+1,,AUTO
PL6.E3A0      #003=SCANNER File=LR_NRGRAM.:Z8A6TSI                               SAT 08/09/97 09:39 Page:204
        60 000160   000014 236000 61                 LDQ     12
        60 000161   200013 756100                    STQ     INDX+2,,AUTO
        60 000162   000005 701000 60                 TSX1    ERROR
        60 000163   000000 011000                    NOP     0

  19962 60 000164   000002 713400                    CLIMB   err
        60 000165   000000 401760                    pmme    nvectors=0

  19965 60 000166   000001 336007                    LCQ     1,DL
        60 000167   000000 056000 44                 ASQ     LEX_LA_CNT

  19966 60 000170   000000 236000 46                 LDQ     LEX_LA_GET
        60 000171   000006 402007                    MPY     6,DL
        60 000172   000005 235006 40                 LDA     LEX_LA_STK+5,QL
        60 000173   000000 755000 46                 STA     LEX_LA_GET

  19967 60 000174   000000 236000 44                 LDQ     LEX_LA_CNT
        60 000175   000216 605400 60                 TPNZ    s:19978

  19973 60 000176   000000 236000 45                 LDQ     LEX_LA_PUT
        60 000177   000006 402003                    MPY     6,DU
        60 000200   000011 036000 61                 ADLQ    9
        60 000201   200126 756100                    STQ     TEXTCHAR2+36,,AUTO
        60 000202   200126 630500                    EPPR0   TEXTCHAR2+36,,AUTO
        60 000203   200127 450500                    STP0    TEXTCHAR2+37,,AUTO
        60 000204   200127 630500                    EPPR0   TEXTCHAR2+37,,AUTO
        60 000205   000010 631400 61                 EPPR1   8
        60 000206   000000 701000 xent               TSX1    SCAN
        60 000207   000000 011000                    NOP     0

  19975 60 000210   000000 236000 45                 LDQ     LEX_LA_PUT
        60 000211   000006 402007                    MPY     6,DL
        60 000212   000005 235006 40                 LDA     LEX_LA_STK+5,QL
        60 000213   000000 755000 45                 STA     LEX_LA_PUT

  19976 60 000214   000001 236007                    LDQ     1,DL
        60 000215   000000 756000 44                 STQ     LEX_LA_CNT
PL6.E3A0      #003=SCANNER File=LR_NRGRAM.:Z8A6TSI                               SAT 08/09/97 09:39 Page:205

  19978 60 000216   000000 236000 46                 LDQ     LEX_LA_GET
        60 000217   000006 402007                    MPY     6,DL
        60 000220   000000 620006                    EAX0    0,QL
        60 000221   000000 221000 43                 LDX1    LEX_STATE
        60 000222   000000 236011 xsym               LDQ     LEX_ACTION_COL,X1
        60 000223   777777 376007                    ANQ     -1,DL
        60 000224   000000 036010 40                 ADLQ    LEX_LA_STK,X0
        60 000225   000000 235000 43                 LDA     LEX_STATE
        60 000226   000022 731000                    ARS     18
        60 000227   200126 755100                    STA     TEXTCHAR2+36,,AUTO
        60 000230   000000 236006 xsym               LDQ     LEX_ACTION_ROW,QL
        60 000231   777777 376007                    ANQ     -1,DL
        60 000232   200126 116100                    CMPQ    TEXTCHAR2+36,,AUTO
        60 000233   000144 601000 60                 TNZ     s:19950

  19979 60 000234   000000 450000 58                 STZ     PANIC_MODE_IN_PROGRESS

  19983 60 000235   000000 236000 46                 LDQ     LEX_LA_GET
        60 000236   000006 402007                    MPY     6,DL
        60 000237   000001 235006 40                 LDA     LEX_LA_STK+1,QL
        60 000240   000000 755000 50                 STA     LEX_ERRLINE

  19984 60 000241   000002 235006 40                 LDA     LEX_LA_STK+2,QL
        60 000242   000000 755000 51                 STA     LEX_ERRCOL

  19987 60 000243   000013 236000 61                 LDQ     11
        60 000244   000013 235000 61                 LDA     11
        60 000245   200014 757100                    STAQ    @ERROR_TYPE+1,,AUTO
        60 000246   000016 236000 61                 LDQ     14
        60 000247   200013 756100                    STQ     INDX+2,,AUTO
        60 000250   000005 701000 60                 TSX1    ERROR
        60 000251   000000 011000                    NOP     0

  19992 60 000252   000000 236000 46                 LDQ     LEX_LA_GET
        60 000253   000006 402007                    MPY     6,DL
        60 000254   000000 620006                    EAX0    0,QL
PL6.E3A0      #003=SCANNER File=LR_NRGRAM.:Z8A6TSI                               SAT 08/09/97 09:39 Page:206
        60 000255   000000 221000 43                 LDX1    LEX_STATE
        60 000256   000000 236011 xsym               LDQ     LEX_ACTION_COL,X1
        60 000257   777777 376007                    ANQ     -1,DL
        60 000260   000000 036010 40                 ADLQ    LEX_LA_STK,X0
        60 000261   000000 622006                    EAX2    0,QL
        60 000262   200011 742100                    STX2    INDX,,AUTO

  19993 60 000263   000000 235000 43                 LDA     LEX_STATE
        60 000264   000022 731000                    ARS     18
        60 000265   200126 755100                    STA     TEXTCHAR2+36,,AUTO
        60 000266   000000 236012 xsym               LDQ     LEX_ACTION_ROW,X2
        60 000267   777777 376007                    ANQ     -1,DL
        60 000270   200126 116100                    CMPQ    TEXTCHAR2+36,,AUTO
        60 000271   000310 601000 60                 TNZ     s:20031

  19998 60 000272   000000 223012 xsym               LDX3    LEX_ACTION_ROW,X2
        60 000273   200010 743100                    STX3    ACTION,,AUTO

  19999 60 000274   000312 601000 60                 TNZ     s:20035

  20015 60 000275   000001 235010 40                 LDA     LEX_LA_STK+1,X0
        60 000276   000000 755000 50                 STA     LEX_ERRLINE

  20016 60 000277   000002 235010 40                 LDA     LEX_LA_STK+2,X0
        60 000300   000000 755000 51                 STA     LEX_ERRCOL

  20018 60 000301   000001 235010 40                 LDA     LEX_LA_STK+1,X0
        60 000302   000000 755000 38                 STA     LASTCARD

  20019 60 000303   000002 235010 40                 LDA     LEX_LA_STK+2,X0
        60 000304   000001 135007                    SBLA    1,DL
        60 000305   000000 755000 39                 STA     LASTCOLUMN

  20023 60 000306   200004 221300                    LDX1  ! @TOKEN+1,,AUTO
        60 000307   000001 702211                    TSX2  ! 1,X1

  20031 60 000310   000000 223011 xsym               LDX3    LEX_ACTION_COL,X1
PL6.E3A0      #003=SCANNER File=LR_NRGRAM.:Z8A6TSI                               SAT 08/09/97 09:39 Page:207
        60 000311   200010 743100                    STX3    ACTION,,AUTO

  20035 60 000312   200010 220100                    LDX0    ACTION,,AUTO
        60 000313   000647 605000 60                 TPL     s:20225

  20045 60 000314   777777 620010                    EAX0    -1,X0
        60 000315   777777 660003                    ERX0    -1,DU
        60 000316   200010 740100                    STX0    ACTION,,AUTO

  20052 60 000317   200010 236100                    LDQ     ACTION,,AUTO
        60 000320   000022 732000                    QRS     18
        60 000321   000006 402007                    MPY     6,DL
        60 000322   000100 101406                    MRL     fill='000'O
        60 000323   000000 400002 xsym               ADSC9   LEX_PRODR,Q              cn=2,n=2
        60 000324   200126 000004                    ADSC9   TEXTCHAR2+36,,AUTO       cn=0,n=4
        60 000325   200126 236100                    LDQ     TEXTCHAR2+36,,AUTO
        60 000326   000000 116003                    CMPQ    0,DU
        60 000327   000333 601000 60                 TNZ     s:20063

  20054 60 000330   000000 054000 41                 AOS     LEX_LX_TOP

  20061 60 000331   000001 336007                    LCQ     1,DL
        60 000332   000000 056000 41                 ASQ     LEX_LX_TOP

  20063 60 000333   200010 236100                    LDQ     ACTION,,AUTO
        60 000334   000022 732000                    QRS     18
        60 000335   000006 402007                    MPY     6,DL
        60 000336   000100 101406                    MRL     fill='000'O
        60 000337   000001 000002 xsym               ADSC9   LEX_PRODR+1,Q            cn=0,n=2
        60 000340   200126 000004                    ADSC9   TEXTCHAR2+36,,AUTO       cn=0,n=4
        60 000341   200126 236100                    LDQ     TEXTCHAR2+36,,AUTO
        60 000342   000000 116003                    CMPQ    0,DU
        60 000343   000364 600000 60                 TZE     s:20076

  20065 60 000344   200010 235100                    LDA     ACTION,,AUTO
        60 000345   000022 731000                    ARS     18
        60 000346   000000 755000 47                 STA     REDUCTION
PL6.E3A0      #003=SCANNER File=LR_NRGRAM.:Z8A6TSI                               SAT 08/09/97 09:39 Page:208

  20069 60 000347   000000 236000 47                 LDQ     REDUCTION
        60 000350   000006 402007                    MPY     6,DL
        60 000351   000100 101406                    MRL     fill='000'O
        60 000352   000001 000002 xsym               ADSC9   LEX_PRODR+1,Q            cn=0,n=2
        60 000353   200126 000004                    ADSC9   TEXTCHAR2+36,,AUTO       cn=0,n=4
        60 000354   200126 236100                    LDQ     TEXTCHAR2+36,,AUTO
        60 000355   200127 756100                    STQ     TEXTCHAR2+37,,AUTO
        60 000356   200127 630500                    EPPR0   TEXTCHAR2+37,,AUTO
        60 000357   200130 450500                    STP0    TEXTCHAR2+38,,AUTO
        60 000360   200130 630500                    EPPR0   TEXTCHAR2+38,,AUTO
        60 000361   000010 631400 61                 EPPR1   8
        60 000362   000000 701000 xent               TSX1    LEX_SEMANTICS
        60 000363   000000 011000                    NOP     0

  20076 60 000364   200010 236100                    LDQ     ACTION,,AUTO
        60 000365   000022 732000                    QRS     18
        60 000366   000006 402007                    MPY     6,DL
        60 000367   000100 101406                    MRL     fill='000'O
        60 000370   000000 400002 xsym               ADSC9   LEX_PRODR,Q              cn=2,n=2
        60 000371   200126 000004                    ADSC9   TEXTCHAR2+36,,AUTO       cn=0,n=4
        60 000372   000000 236000 49                 LDQ     LEX_PARSE_STACK_IDX
        60 000373   000022 732000                    QRS     18
        60 000374   200126 136100                    SBLQ    TEXTCHAR2+36,,AUTO
        60 000375   000000 620006                    EAX0    0,QL
        60 000376   000000 740000 49                 STX0    LEX_PARSE_STACK_IDX

  20077 60 000377   000000 235000 49                 LDA     LEX_PARSE_STACK_IDX
        60 000400   000022 731000                    ARS     18
        60 000401   000001 035007                    ADLA    1,DL
        60 000402   000000 755000 41                 STA     LEX_LX_TOP

  20079 60 000403   200010 236100                    LDQ     ACTION,,AUTO
        60 000404   000022 732000                    QRS     18
        60 000405   000006 402007                    MPY     6,DL
        60 000406   000100 100406                    MLR     fill='000'O
        60 000407   000000 000002 xsym               ADSC9   LEX_PRODR,Q              cn=0,n=2
PL6.E3A0      #003=SCANNER File=LR_NRGRAM.:Z8A6TSI                               SAT 08/09/97 09:39 Page:209
        60 000410   200007 000002                    ADSC9   NT,,AUTO                 cn=0,n=2

  20080 60 000411   200007 221100                    LDX1    NT,,AUTO
        60 000412   000000 722011 xsym               LXL2    LEX_GOTO_COL,X1
        60 000413   000417 601000 60                 TNZ     s:20089

  20085 60 000414   000000 223011 xsym               LDX3    LEX_GOTO_COL,X1
        60 000415   000000 743000 43                 STX3    LEX_STATE

  20086 60 000416   000440 710000 60                 TRA     s:20106

  20089 60 000417   000000 236011 xsym               LDQ     LEX_GOTO_COL,X1
        60 000420   777777 376007                    ANQ     -1,DL
        60 000421   000000 036010 48                 ADLQ    LEX_PARSE_STACK,X0
        60 000422   000000 623006                    EAX3    0,QL
        60 000423   200011 743100                    STX3    INDX,,AUTO

  20090 60 000424   200007 235100                    LDA     NT,,AUTO
        60 000425   000022 731000                    ARS     18
        60 000426   200126 755100                    STA     TEXTCHAR2+36,,AUTO
        60 000427   000000 236013 xsym               LDQ     LEX_GOTO_ROW,X3
        60 000430   777777 376007                    ANQ     -1,DL
        60 000431   200126 116100                    CMPQ    TEXTCHAR2+36,,AUTO
        60 000432   000436 601000 60                 TNZ     s:20102

  20095 60 000433   000000 224013 xsym               LDX4    LEX_GOTO_ROW,X3
        60 000434   000000 744000 43                 STX4    LEX_STATE

  20096 60 000435   000440 710000 60                 TRA     s:20106

  20102 60 000436   000000 224011 xsym               LDX4    LEX_GOTO_COL,X1
        60 000437   000000 744000 43                 STX4    LEX_STATE

  20106 60 000440   000764 100003                    CMPX0   500,DU
        60 000441   000641 601000 60                 TNZ     s:20219

  20138 60 000442   000000 235000 44                 LDA     LEX_LA_CNT
PL6.E3A0      #003=SCANNER File=LR_NRGRAM.:Z8A6TSI                               SAT 08/09/97 09:39 Page:210
        60 000443   000621 605400 60                 TPNZ    s:20205

  20139 60 000444   000000 234000 58                 SZN     PANIC_MODE_IN_PROGRESS
        60 000445   000467 604000 60                 TMI     s:20152

  20145 60 000446   000000 236000 45                 LDQ     LEX_LA_PUT
        60 000447   000006 402003                    MPY     6,DU
        60 000450   000011 036000 61                 ADLQ    9
        60 000451   200126 756100                    STQ     TEXTCHAR2+36,,AUTO
        60 000452   200126 630500                    EPPR0   TEXTCHAR2+36,,AUTO
        60 000453   200127 450500                    STP0    TEXTCHAR2+37,,AUTO
        60 000454   200127 630500                    EPPR0   TEXTCHAR2+37,,AUTO
        60 000455   000010 631400 61                 EPPR1   8
        60 000456   000000 701000 xent               TSX1    SCAN
        60 000457   000000 011000                    NOP     0

  20147 60 000460   000000 236000 45                 LDQ     LEX_LA_PUT
        60 000461   000006 402007                    MPY     6,DL
        60 000462   000005 235006 40                 LDA     LEX_LA_STK+5,QL
        60 000463   000000 755000 45                 STA     LEX_LA_PUT

  20148 60 000464   000001 236007                    LDQ     1,DL
        60 000465   000000 756000 44                 STQ     LEX_LA_CNT

  20149 60 000466   000621 710000 60                 TRA     s:20205

  20152 60 000467   000000 236000 54                 LDQ     ERR_LEX_LA_CNT
        60 000470   000000 756000 44                 STQ     LEX_LA_CNT

  20153 60 000471   000000 235000 53                 LDA     ERR_LEX_LA_PUT
        60 000472   000000 755000 45                 STA     LEX_LA_PUT

  20154 60 000473   000000 235000 52                 LDA     ERR_LEX_LA_GET
        60 000474   000000 755000 46                 STA     LEX_LA_GET

  20155 60 000475   000000 236000 46                 LDQ     LEX_LA_GET
        60 000476   000006 402007                    MPY     6,DL
PL6.E3A0      #003=SCANNER File=LR_NRGRAM.:Z8A6TSI                               SAT 08/09/97 09:39 Page:211
        60 000477   000000 623006                    EAX3    0,QL
        60 000500   000000 224000 43                 LDX4    LEX_STATE
        60 000501   000000 236014 xsym               LDQ     LEX_ACTION_COL,X4
        60 000502   777777 376007                    ANQ     -1,DL
        60 000503   000000 036013 40                 ADLQ    LEX_LA_STK,X3
        60 000504   000000 235000 43                 LDA     LEX_STATE
        60 000505   000022 731000                    ARS     18
        60 000506   200126 755100                    STA     TEXTCHAR2+36,,AUTO
        60 000507   000000 236006 xsym               LDQ     LEX_ACTION_ROW,QL
        60 000510   777777 376007                    ANQ     -1,DL
        60 000511   200126 116100                    CMPQ    TEXTCHAR2+36,,AUTO
        60 000512   000603 600000 60                 TZE     s:20185

  20156 60 000513   000000 236000 46                 LDQ     LEX_LA_GET
        60 000514   000006 402007                    MPY     6,DL
        60 000515   000000 235006 40                 LDA     LEX_LA_STK,QL
        60 000516   000143 115007                    CMPA    99,DL
        60 000517   000535 601000 60                 TNZ     s:20171

  20161 60 000520   000001 235006 40                 LDA     LEX_LA_STK+1,QL
        60 000521   000000 755000 50                 STA     LEX_ERRLINE

  20162 60 000522   000002 235006 40                 LDA     LEX_LA_STK+2,QL
        60 000523   000000 755000 51                 STA     LEX_ERRCOL

  20165 60 000524   000013 236000 61                 LDQ     11
        60 000525   000013 235000 61                 LDA     11
        60 000526   200014 757100                    STAQ    @ERROR_TYPE+1,,AUTO
        60 000527   000014 236000 61                 LDQ     12
        60 000530   200013 756100                    STQ     INDX+2,,AUTO
        60 000531   000005 701000 60                 TSX1    ERROR
        60 000532   000000 011000                    NOP     0

  20168 60 000533   000002 713400                    CLIMB   err
        60 000534   000000 401760                    pmme    nvectors=0

  20171 60 000535   000001 336007                    LCQ     1,DL
PL6.E3A0      #003=SCANNER File=LR_NRGRAM.:Z8A6TSI                               SAT 08/09/97 09:39 Page:212
        60 000536   000000 056000 44                 ASQ     LEX_LA_CNT

  20172 60 000537   000000 236000 46                 LDQ     LEX_LA_GET
        60 000540   000006 402007                    MPY     6,DL
        60 000541   000005 235006 40                 LDA     LEX_LA_STK+5,QL
        60 000542   000000 755000 46                 STA     LEX_LA_GET

  20173 60 000543   000000 236000 44                 LDQ     LEX_LA_CNT
        60 000544   000565 605400 60                 TPNZ    s:20184

  20179 60 000545   000000 236000 45                 LDQ     LEX_LA_PUT
        60 000546   000006 402003                    MPY     6,DU
        60 000547   000011 036000 61                 ADLQ    9
        60 000550   200126 756100                    STQ     TEXTCHAR2+36,,AUTO
        60 000551   200126 630500                    EPPR0   TEXTCHAR2+36,,AUTO
        60 000552   200127 450500                    STP0    TEXTCHAR2+37,,AUTO
        60 000553   200127 630500                    EPPR0   TEXTCHAR2+37,,AUTO
        60 000554   000010 631400 61                 EPPR1   8
        60 000555   000000 701000 xent               TSX1    SCAN
        60 000556   000000 011000                    NOP     0

  20181 60 000557   000000 236000 45                 LDQ     LEX_LA_PUT
        60 000560   000006 402007                    MPY     6,DL
        60 000561   000005 235006 40                 LDA     LEX_LA_STK+5,QL
        60 000562   000000 755000 45                 STA     LEX_LA_PUT

  20182 60 000563   000001 236007                    LDQ     1,DL
        60 000564   000000 756000 44                 STQ     LEX_LA_CNT

  20184 60 000565   000000 236000 46                 LDQ     LEX_LA_GET
        60 000566   000006 402007                    MPY     6,DL
        60 000567   000000 620006                    EAX0    0,QL
        60 000570   000000 221000 43                 LDX1    LEX_STATE
        60 000571   000000 236011 xsym               LDQ     LEX_ACTION_COL,X1
        60 000572   777777 376007                    ANQ     -1,DL
        60 000573   000000 036010 40                 ADLQ    LEX_LA_STK,X0
        60 000574   000000 235000 43                 LDA     LEX_STATE
PL6.E3A0      #003=SCANNER File=LR_NRGRAM.:Z8A6TSI                               SAT 08/09/97 09:39 Page:213
        60 000575   000022 731000                    ARS     18
        60 000576   200126 755100                    STA     TEXTCHAR2+36,,AUTO
        60 000577   000000 236006 xsym               LDQ     LEX_ACTION_ROW,QL
        60 000600   777777 376007                    ANQ     -1,DL
        60 000601   200126 116100                    CMPQ    TEXTCHAR2+36,,AUTO
        60 000602   000513 601000 60                 TNZ     s:20156

  20185 60 000603   000000 450000 58                 STZ     PANIC_MODE_IN_PROGRESS

  20189 60 000604   000000 236000 46                 LDQ     LEX_LA_GET
        60 000605   000006 402007                    MPY     6,DL
        60 000606   000001 235006 40                 LDA     LEX_LA_STK+1,QL
        60 000607   000000 755000 50                 STA     LEX_ERRLINE

  20190 60 000610   000002 235006 40                 LDA     LEX_LA_STK+2,QL
        60 000611   000000 755000 51                 STA     LEX_ERRCOL

  20193 60 000612   000013 236000 61                 LDQ     11
        60 000613   000013 235000 61                 LDA     11
        60 000614   200014 757100                    STAQ    @ERROR_TYPE+1,,AUTO
        60 000615   000016 236000 61                 LDQ     14
        60 000616   200013 756100                    STQ     INDX+2,,AUTO
        60 000617   000005 701000 60                 TSX1    ERROR
        60 000620   000000 011000                    NOP     0

  20205 60 000621   000000 236000 46                 LDQ     LEX_LA_GET
        60 000622   000006 402007                    MPY     6,DL
        60 000623   000001 235006 40                 LDA     LEX_LA_STK+1,QL
        60 000624   000000 755000 50                 STA     LEX_ERRLINE

  20206 60 000625   000002 235006 40                 LDA     LEX_LA_STK+2,QL
        60 000626   000000 755000 51                 STA     LEX_ERRCOL

  20209 60 000627   000013 236000 61                 LDQ     11
        60 000630   000013 235000 61                 LDA     11
        60 000631   200014 757100                    STAQ    @ERROR_TYPE+1,,AUTO
        60 000632   000020 236000 61                 LDQ     16
PL6.E3A0      #003=SCANNER File=LR_NRGRAM.:Z8A6TSI                               SAT 08/09/97 09:39 Page:214
        60 000633   200013 756100                    STQ     INDX+2,,AUTO
        60 000634   000005 701000 60                 TSX1    ERROR
        60 000635   000000 011000                    NOP     0

  20212 60 000636   000002 713400                    CLIMB   err
        60 000637   000000 401760                    pmme    nvectors=0

  20216 60 000640   000066 710000 60                 TRA     s:19893

  20219 60 000641   000001 623010                    EAX3    1,X0
        60 000642   000000 743000 49                 STX3    LEX_PARSE_STACK_IDX

  20220 60 000643   000000 235000 43                 LDA     LEX_STATE
        60 000644   000022 731000                    ARS     18
        60 000645   000000 755013 48                 STA     LEX_PARSE_STACK,X3

  20222 60 000646   000066 710000 60                 TRA     s:19893

  20225 60 000647   001144 604400 60                 TMOZ    s:20401

  20266 60 000650   000000 235000 44                 LDA     LEX_LA_CNT
        60 000651   001027 605400 60                 TPNZ    s:20326

  20267 60 000652   000000 234000 58                 SZN     PANIC_MODE_IN_PROGRESS
        60 000653   000675 604000 60                 TMI     s:20280

  20273 60 000654   000000 236000 45                 LDQ     LEX_LA_PUT
        60 000655   000006 402003                    MPY     6,DU
        60 000656   000011 036000 61                 ADLQ    9
        60 000657   200126 756100                    STQ     TEXTCHAR2+36,,AUTO
        60 000660   200126 630500                    EPPR0   TEXTCHAR2+36,,AUTO
        60 000661   200127 450500                    STP0    TEXTCHAR2+37,,AUTO
        60 000662   200127 630500                    EPPR0   TEXTCHAR2+37,,AUTO
        60 000663   000010 631400 61                 EPPR1   8
        60 000664   000000 701000 xent               TSX1    SCAN
        60 000665   000000 011000                    NOP     0

PL6.E3A0      #003=SCANNER File=LR_NRGRAM.:Z8A6TSI                               SAT 08/09/97 09:39 Page:215
  20275 60 000666   000000 236000 45                 LDQ     LEX_LA_PUT
        60 000667   000006 402007                    MPY     6,DL
        60 000670   000005 235006 40                 LDA     LEX_LA_STK+5,QL
        60 000671   000000 755000 45                 STA     LEX_LA_PUT

  20276 60 000672   000001 236007                    LDQ     1,DL
        60 000673   000000 756000 44                 STQ     LEX_LA_CNT

  20277 60 000674   001027 710000 60                 TRA     s:20326

  20280 60 000675   000000 236000 54                 LDQ     ERR_LEX_LA_CNT
        60 000676   000000 756000 44                 STQ     LEX_LA_CNT

  20281 60 000677   000000 235000 53                 LDA     ERR_LEX_LA_PUT
        60 000700   000000 755000 45                 STA     LEX_LA_PUT

  20282 60 000701   000000 235000 52                 LDA     ERR_LEX_LA_GET
        60 000702   000000 755000 46                 STA     LEX_LA_GET

  20283 60 000703   000000 236000 46                 LDQ     LEX_LA_GET
        60 000704   000006 402007                    MPY     6,DL
        60 000705   000000 621006                    EAX1    0,QL
        60 000706   000000 222000 43                 LDX2    LEX_STATE
        60 000707   000000 236012 xsym               LDQ     LEX_ACTION_COL,X2
        60 000710   777777 376007                    ANQ     -1,DL
        60 000711   000000 036011 40                 ADLQ    LEX_LA_STK,X1
        60 000712   000000 235000 43                 LDA     LEX_STATE
        60 000713   000022 731000                    ARS     18
        60 000714   200126 755100                    STA     TEXTCHAR2+36,,AUTO
        60 000715   000000 236006 xsym               LDQ     LEX_ACTION_ROW,QL
        60 000716   777777 376007                    ANQ     -1,DL
        60 000717   200126 116100                    CMPQ    TEXTCHAR2+36,,AUTO
        60 000720   001011 600000 60                 TZE     s:20313

  20284 60 000721   000000 236000 46                 LDQ     LEX_LA_GET
        60 000722   000006 402007                    MPY     6,DL
        60 000723   000000 235006 40                 LDA     LEX_LA_STK,QL
PL6.E3A0      #003=SCANNER File=LR_NRGRAM.:Z8A6TSI                               SAT 08/09/97 09:39 Page:216
        60 000724   000143 115007                    CMPA    99,DL
        60 000725   000743 601000 60                 TNZ     s:20299

  20289 60 000726   000001 235006 40                 LDA     LEX_LA_STK+1,QL
        60 000727   000000 755000 50                 STA     LEX_ERRLINE

  20290 60 000730   000002 235006 40                 LDA     LEX_LA_STK+2,QL
        60 000731   000000 755000 51                 STA     LEX_ERRCOL

  20293 60 000732   000013 236000 61                 LDQ     11
        60 000733   000013 235000 61                 LDA     11
        60 000734   200014 757100                    STAQ    @ERROR_TYPE+1,,AUTO
        60 000735   000014 236000 61                 LDQ     12
        60 000736   200013 756100                    STQ     INDX+2,,AUTO
        60 000737   000005 701000 60                 TSX1    ERROR
        60 000740   000000 011000                    NOP     0

  20296 60 000741   000002 713400                    CLIMB   err
        60 000742   000000 401760                    pmme    nvectors=0

  20299 60 000743   000001 336007                    LCQ     1,DL
        60 000744   000000 056000 44                 ASQ     LEX_LA_CNT

  20300 60 000745   000000 236000 46                 LDQ     LEX_LA_GET
        60 000746   000006 402007                    MPY     6,DL
        60 000747   000005 235006 40                 LDA     LEX_LA_STK+5,QL
        60 000750   000000 755000 46                 STA     LEX_LA_GET

  20301 60 000751   000000 236000 44                 LDQ     LEX_LA_CNT
        60 000752   000773 605400 60                 TPNZ    s:20312

  20307 60 000753   000000 236000 45                 LDQ     LEX_LA_PUT
        60 000754   000006 402003                    MPY     6,DU
        60 000755   000011 036000 61                 ADLQ    9
        60 000756   200126 756100                    STQ     TEXTCHAR2+36,,AUTO
        60 000757   200126 630500                    EPPR0   TEXTCHAR2+36,,AUTO
        60 000760   200127 450500                    STP0    TEXTCHAR2+37,,AUTO
PL6.E3A0      #003=SCANNER File=LR_NRGRAM.:Z8A6TSI                               SAT 08/09/97 09:39 Page:217
        60 000761   200127 630500                    EPPR0   TEXTCHAR2+37,,AUTO
        60 000762   000010 631400 61                 EPPR1   8
        60 000763   000000 701000 xent               TSX1    SCAN
        60 000764   000000 011000                    NOP     0

  20309 60 000765   000000 236000 45                 LDQ     LEX_LA_PUT
        60 000766   000006 402007                    MPY     6,DL
        60 000767   000005 235006 40                 LDA     LEX_LA_STK+5,QL
        60 000770   000000 755000 45                 STA     LEX_LA_PUT

  20310 60 000771   000001 236007                    LDQ     1,DL
        60 000772   000000 756000 44                 STQ     LEX_LA_CNT

  20312 60 000773   000000 236000 46                 LDQ     LEX_LA_GET
        60 000774   000006 402007                    MPY     6,DL
        60 000775   000000 620006                    EAX0    0,QL
        60 000776   000000 221000 43                 LDX1    LEX_STATE
        60 000777   000000 236011 xsym               LDQ     LEX_ACTION_COL,X1
        60 001000   777777 376007                    ANQ     -1,DL
        60 001001   000000 036010 40                 ADLQ    LEX_LA_STK,X0
        60 001002   000000 235000 43                 LDA     LEX_STATE
        60 001003   000022 731000                    ARS     18
        60 001004   200126 755100                    STA     TEXTCHAR2+36,,AUTO
        60 001005   000000 236006 xsym               LDQ     LEX_ACTION_ROW,QL
        60 001006   777777 376007                    ANQ     -1,DL
        60 001007   200126 116100                    CMPQ    TEXTCHAR2+36,,AUTO
        60 001010   000721 601000 60                 TNZ     s:20284

  20313 60 001011   000000 450000 58                 STZ     PANIC_MODE_IN_PROGRESS

  20317 60 001012   000000 236000 46                 LDQ     LEX_LA_GET
        60 001013   000006 402007                    MPY     6,DL
        60 001014   000001 235006 40                 LDA     LEX_LA_STK+1,QL
        60 001015   000000 755000 50                 STA     LEX_ERRLINE

  20318 60 001016   000002 235006 40                 LDA     LEX_LA_STK+2,QL
        60 001017   000000 755000 51                 STA     LEX_ERRCOL
PL6.E3A0      #003=SCANNER File=LR_NRGRAM.:Z8A6TSI                               SAT 08/09/97 09:39 Page:218

  20321 60 001020   000013 236000 61                 LDQ     11
        60 001021   000013 235000 61                 LDA     11
        60 001022   200014 757100                    STAQ    @ERROR_TYPE+1,,AUTO
        60 001023   000016 236000 61                 LDQ     14
        60 001024   200013 756100                    STQ     INDX+2,,AUTO
        60 001025   000005 701000 60                 TSX1    ERROR
        60 001026   000000 011000                    NOP     0

  20326 60 001027   000000 235000 41                 LDA     LEX_LX_TOP
        60 001030   000062 115007                    CMPA    50,DL
        60 001031   001053 601000 60                 TNZ     s:20347

  20335 60 001032   000000 236000 46                 LDQ     LEX_LA_GET
        60 001033   000006 402007                    MPY     6,DL
        60 001034   000001 235006 40                 LDA     LEX_LA_STK+1,QL
        60 001035   000000 755000 50                 STA     LEX_ERRLINE

  20336 60 001036   000002 235006 40                 LDA     LEX_LA_STK+2,QL
        60 001037   000000 755000 51                 STA     LEX_ERRCOL

  20339 60 001040   000013 236000 61                 LDQ     11
        60 001041   000013 235000 61                 LDA     11
        60 001042   200014 757100                    STAQ    @ERROR_TYPE+1,,AUTO
        60 001043   000022 236000 61                 LDQ     18
        60 001044   200013 756100                    STQ     INDX+2,,AUTO
        60 001045   000005 701000 60                 TSX1    ERROR
        60 001046   000000 011000                    NOP     0

  20342 60 001047   000002 713400                    CLIMB   err
        60 001050   000000 401760                    pmme    nvectors=0

  20344 60 001051   200004 221300                    LDX1  ! @TOKEN+1,,AUTO
        60 001052   000001 702211                    TSX2  ! 1,X1

  20347 60 001053   000000 054000 41                 AOS     LEX_LX_TOP

PL6.E3A0      #003=SCANNER File=LR_NRGRAM.:Z8A6TSI                               SAT 08/09/97 09:39 Page:219
  20348 60 001054   000000 236000 46                 LDQ     LEX_LA_GET
        60 001055   000030 402007                    MPY     24,DL
        60 001056   200126 756100                    STQ     TEXTCHAR2+36,,AUTO
        60 001057   000000 236000 41                 LDQ     LEX_LX_TOP
        60 001060   000030 402007                    MPY     24,DL
        60 001061   200126 235100                    LDA     TEXTCHAR2+36,,AUTO
        60 001062   000006 100405                    MLR     fill='000'O
        60 001063   000000 000030 40                 ADSC9   LEX_LA_STK,A             cn=0,n=24
        60 001064   000000 000030 42                 ADSC9   LEX_LX_STK,Q             cn=0,n=24

  20349 60 001065   000000 236000 41                 LDQ     LEX_LX_TOP
        60 001066   000006 402007                    MPY     6,DL
        60 001067   000000 620006                    EAX0    0,QL
        60 001070   000013 236000 61                 LDQ     11
        60 001071   000005 756010 42                 STQ     LEX_LX_STK+5,X0

  20356 60 001072   000000 236000 46                 LDQ     LEX_LA_GET
        60 001073   000006 402007                    MPY     6,DL
        60 001074   000001 235006 40                 LDA     LEX_LA_STK+1,QL
        60 001075   000000 755000 50                 STA     LEX_ERRLINE

  20357 60 001076   000002 235006 40                 LDA     LEX_LA_STK+2,QL
        60 001077   000000 755000 51                 STA     LEX_ERRCOL

  20359 60 001100   000001 235006 40                 LDA     LEX_LA_STK+1,QL
        60 001101   000000 755000 38                 STA     LASTCARD

  20360 60 001102   000002 235006 40                 LDA     LEX_LA_STK+2,QL
        60 001103   000001 135007                    SBLA    1,DL
        60 001104   000000 755000 39                 STA     LASTCOLUMN

  20364 60 001105   000000 221000 49                 LDX1    LEX_PARSE_STACK_IDX
        60 001106   000764 101003                    CMPX1   500,DU
        60 001107   001126 601000 60                 TNZ     s:20385

  20372 60 001110   000001 235006 40                 LDA     LEX_LA_STK+1,QL
        60 001111   000000 755000 50                 STA     LEX_ERRLINE
PL6.E3A0      #003=SCANNER File=LR_NRGRAM.:Z8A6TSI                               SAT 08/09/97 09:39 Page:220

  20373 60 001112   000002 235006 40                 LDA     LEX_LA_STK+2,QL
        60 001113   000000 755000 51                 STA     LEX_ERRCOL

  20376 60 001114   000013 236000 61                 LDQ     11
        60 001115   000013 235000 61                 LDA     11
        60 001116   200014 757100                    STAQ    @ERROR_TYPE+1,,AUTO
        60 001117   000020 236000 61                 LDQ     16
        60 001120   200013 756100                    STQ     INDX+2,,AUTO
        60 001121   000005 701000 60                 TSX1    ERROR
        60 001122   000000 011000                    NOP     0

  20379 60 001123   000002 713400                    CLIMB   err
        60 001124   000000 401760                    pmme    nvectors=0

  20381 60 001125   000066 710000 60                 TRA     s:19893

  20385 60 001126   000001 336007                    LCQ     1,DL
        60 001127   000000 056000 44                 ASQ     LEX_LA_CNT

  20386 60 001130   000000 236000 46                 LDQ     LEX_LA_GET
        60 001131   000006 402007                    MPY     6,DL
        60 001132   000005 235006 40                 LDA     LEX_LA_STK+5,QL
        60 001133   000000 755000 46                 STA     LEX_LA_GET

  20387 60 001134   200010 222100                    LDX2    ACTION,,AUTO
        60 001135   000000 742000 43                 STX2    LEX_STATE

  20388 60 001136   000001 623011                    EAX3    1,X1
        60 001137   000000 743000 49                 STX3    LEX_PARSE_STACK_IDX

  20389 60 001140   000000 236000 43                 LDQ     LEX_STATE
        60 001141   000022 732000                    QRS     18
        60 001142   000000 756013 48                 STQ     LEX_PARSE_STACK,X3

  20391 60 001143   000066 710000 60                 TRA     s:19893

PL6.E3A0      #003=SCANNER File=LR_NRGRAM.:Z8A6TSI                               SAT 08/09/97 09:39 Page:221
  20401 60 001144   400000 236003                    LDQ     -131072,DU
        60 001145   000000 756000 55                 STQ     LEX_ERR_RECOVERY_IN_PROGRESS

  20402 60 001146   000000 054000 56                 AOS     LEX_PARSE_ERROR_COUNT

  20414 60 001147   000000 236000 46                 LDQ     LEX_LA_GET
        60 001150   000006 402007                    MPY     6,DL
        60 001151   000001 235006 40                 LDA     LEX_LA_STK+1,QL
        60 001152   000000 755000 50                 STA     LEX_ERRLINE

  20415 60 001153   000002 235006 40                 LDA     LEX_LA_STK+2,QL
        60 001154   000000 755000 51                 STA     LEX_ERRCOL

  20418 60 001155   000013 236000 61                 LDQ     11
        60 001156   000013 235000 61                 LDA     11
        60 001157   200014 757100                    STAQ    @ERROR_TYPE+1,,AUTO
        60 001160   000024 236000 61                 LDQ     20
        60 001161   200013 756100                    STQ     INDX+2,,AUTO
        60 001162   000005 701000 60                 TSX1    ERROR
        60 001163   000000 011000                    NOP     0

  20419 60 001164   000000 220000 49                 LDX0    LEX_PARSE_STACK_IDX
        60 001165   000001 621010                    EAX1    1,X0
        60 001166   200006 741100                    STX1    PSI,,AUTO

  20421 60 001167   200006 220100                    LDX0    PSI,,AUTO
        60 001170   777777 621010                    EAX1    -1,X0
        60 001171   200006 741100                    STX1    PSI,,AUTO

  20422 60 001172   000000 235011 48                 LDA     LEX_PARSE_STACK,X1
        60 001173   000000 720005 xsym               LXL0    LEX_ACTION_COL,AL
        60 001174   000144 622010                    EAX2    100,X0
        60 001175   200011 742100                    STX2    INDX,,AUTO

  20423 60 001176   000000 236012 xsym               LDQ     LEX_ACTION_ROW,X2
        60 001177   777777 376007                    ANQ     -1,DL
        60 001200   000000 116011 48                 CMPQ    LEX_PARSE_STACK,X1
PL6.E3A0      #003=SCANNER File=LR_NRGRAM.:Z8A6TSI                               SAT 08/09/97 09:39 Page:222
        60 001201   001204 600000 60                 TZE     s:20424
        60 001202   000000 101003                    CMPX1   0,DU
        60 001203   001167 601000 60                 TNZ     s:20421

  20424 60 001204   000000 116011 48                 CMPQ    LEX_PARSE_STACK,X1
        60 001205   001271 601000 60                 TNZ     s:20471

  20427 60 001206   000764 101003                    CMPX1   500,DU
        60 001207   001230 601000 60                 TNZ     s:20448

  20435 60 001210   000000 236000 46                 LDQ     LEX_LA_GET
        60 001211   000006 402007                    MPY     6,DL
        60 001212   000001 235006 40                 LDA     LEX_LA_STK+1,QL
        60 001213   000000 755000 50                 STA     LEX_ERRLINE

  20436 60 001214   000002 235006 40                 LDA     LEX_LA_STK+2,QL
        60 001215   000000 755000 51                 STA     LEX_ERRCOL

  20439 60 001216   000013 236000 61                 LDQ     11
        60 001217   000013 235000 61                 LDA     11
        60 001220   200014 757100                    STAQ    @ERROR_TYPE+1,,AUTO
        60 001221   000020 236000 61                 LDQ     16
        60 001222   200013 756100                    STQ     INDX+2,,AUTO
        60 001223   000005 701000 60                 TSX1    ERROR
        60 001224   000000 011000                    NOP     0

  20442 60 001225   000002 713400                    CLIMB   err
        60 001226   000000 401760                    pmme    nvectors=0

  20444 60 001227   001310 710000 60                 TRA     s:20484

  20448 60 001230   000000 741000 49                 STX1    LEX_PARSE_STACK_IDX

  20449 60 001231   000000 720011 48                 LXL0    LEX_PARSE_STACK,X1
        60 001232   000000 740000 43                 STX0    LEX_STATE

  20450 60 001233   000000 235000 49                 LDA     LEX_PARSE_STACK_IDX
PL6.E3A0      #003=SCANNER File=LR_NRGRAM.:Z8A6TSI                               SAT 08/09/97 09:39 Page:223
        60 001234   000022 731000                    ARS     18
        60 001235   000000 755000 41                 STA     LEX_LX_TOP

  20451 60 001236   000000 235000 44                 LDA     LEX_LA_CNT
        60 001237   000000 755000 54                 STA     ERR_LEX_LA_CNT

  20452 60 001240   000000 235000 45                 LDA     LEX_LA_PUT
        60 001241   000000 755000 53                 STA     ERR_LEX_LA_PUT

  20453 60 001242   000000 235000 46                 LDA     LEX_LA_GET
        60 001243   000000 755000 52                 STA     ERR_LEX_LA_GET

  20454 60 001244   400000 236003                    LDQ     -131072,DU
        60 001245   000000 756000 58                 STQ     PANIC_MODE_IN_PROGRESS

  20456 60 001246   000000 236000 45                 LDQ     LEX_LA_PUT
        60 001247   000006 402007                    MPY     6,DL
        60 001250   000144 235007                    LDA     100,DL
        60 001251   000000 755006 40                 STA     LEX_LA_STK,QL

  20457 60 001252   000000 623006                    EAX3    0,QL
        60 001253   000013 236000 61                 LDQ     11
        60 001254   000003 756013 40                 STQ     LEX_LA_STK+3,X3

  20458 60 001255   000004 756013 40                 STQ     LEX_LA_STK+4,X3

  20459 60 001256   000000 235000 50                 LDA     LEX_ERRLINE
        60 001257   000001 755013 40                 STA     LEX_LA_STK+1,X3

  20460 60 001260   000000 235000 51                 LDA     LEX_ERRCOL
        60 001261   000002 755013 40                 STA     LEX_LA_STK+2,X3

  20461 60 001262   000001 235007                    LDA     1,DL
        60 001263   000000 755000 44                 STA     LEX_LA_CNT

  20462 60 001264   000000 235000 45                 LDA     LEX_LA_PUT
        60 001265   000000 755000 46                 STA     LEX_LA_GET
PL6.E3A0      #003=SCANNER File=LR_NRGRAM.:Z8A6TSI                               SAT 08/09/97 09:39 Page:224

  20463 60 001266   000005 235013 40                 LDA     LEX_LA_STK+5,X3
        60 001267   000000 755000 45                 STA     LEX_LA_PUT

  20465 60 001270   001310 710000 60                 TRA     s:20484

  20471 60 001271   000000 236000 46                 LDQ     LEX_LA_GET
        60 001272   000006 402007                    MPY     6,DL
        60 001273   000001 235006 40                 LDA     LEX_LA_STK+1,QL
        60 001274   000000 755000 50                 STA     LEX_ERRLINE

  20472 60 001275   000002 235006 40                 LDA     LEX_LA_STK+2,QL
        60 001276   000000 755000 51                 STA     LEX_ERRCOL

  20475 60 001277   000013 236000 61                 LDQ     11
        60 001300   000013 235000 61                 LDA     11
        60 001301   200014 757100                    STAQ    @ERROR_TYPE+1,,AUTO
        60 001302   000014 236000 61                 LDQ     12
        60 001303   200013 756100                    STQ     INDX+2,,AUTO
        60 001304   000005 701000 60                 TSX1    ERROR
        60 001305   000000 011000                    NOP     0

  20478 60 001306   000002 713400                    CLIMB   err
        60 001307   000000 401760                    pmme    nvectors=0

  20484 60 001310   000000 450000 55                 STZ     LEX_ERR_RECOVERY_IN_PROGRESS

  20487 60 001311   000066 710000 60                 TRA     s:19893

      495    20499         %INCLUDE PARSER_SUBS;
      496    20546
      497    20547    1   P_TOKEN = TOKEN;

  20547 60 001312   200003 470500                    LDP0    @TOKEN,,AUTO
        60 001313   000000 236100                    LDQ     0,,PR0
        60 001314   000000 756000 37                 STQ     P_TOKEN

PL6.E3A0      #003=SCANNER File=LR_NRGRAM.:Z8A6TSI                               SAT 08/09/97 09:39 Page:225
      498    20548    1   REMEMBER LEX_FINISHED IN LEX_REMEMBER;

  20548 60 001315   001322 635000 60                 EAA     LEX_FINISHED
        60 001316   000000 452400 36                 STP2    LEX_REMEMBER
        60 001317   000001 755000 36                 STA     LEX_REMEMBER+1

      499    20549    1   CALL PARSER;

  20549 60 001320   000003 701000 60                 TSX1    PARSER
        60 001321   000000 011000                    NOP     0

  20547 60 001322                       LEX_FINISHED null
      500    20550    1   LEX_FINISHED: ;
      501    20551    1   END SCANNER;

  20551 60 001322   000000 702200 xent               TSX2  ! X66_ARET
      502    20552        %EOD;

PL6.E3A0      #003=SCANNER File=LR_NRGRAM.:Z8A6TSI                               SAT 08/09/97 09:39 Page:226
--  Include file information  --

   PARSER_SUBS.:Z8A6TOU  is referenced.
   PARSER_EC_SI.:Z8A6TOU  is referenced.
   PARSER_STATS.:Z8A6TOU  is referenced.
   PARSER_MACROS.:Z8A6TOU  cannot be made into a system file and is referenced.
   CP_6_C.:LIB_E04  is referenced.
   CP_6.:LIB_E04  cannot be made into a system file and is referenced.
   PARSER_STATE.:Z8A6TOU  cannot be made into a system file and is referenced.
   PARSER_STACK.:Z8A6TOU  cannot be made into a system file and is referenced.
   LRXDPDA_SUBS.:Z8A6TOU  is referenced.
   LR_PARSER_SI.:Z8A6TOU  cannot be made into a system file and is referenced.
   LRX_SUBS.:Z8A6TOU  is referenced.
   LR_IO_EXT.:Z8A6TOU  cannot be made into a system file and is referenced.
   LR_GRAM_EXT.:Z8A6TOU  cannot be made into a system file and is referenced.
      No diagnostics issued in procedure SCANNER.
PL6.E3A0      #003=SCANNER File=LR_NRGRAM.:Z8A6TSI                               SAT 08/09/97 09:39 Page:227

 **** Variables and constants ****

  ****  Section 000 LblCom OUT_DCBN

  ****  Scalars and arrays  ****
OctLoc.c.b A Datatyp(siz) R M Lvl/name                 OctLoc.c.b A Datatyp(siz) R M Lvl/name

     0-0-0/w SBIN              1 OUT_DCBN

  ****  Section 006 LblCom SYM_PTRS

  ****  Scalars and arrays  ****
OctLoc.c.b A Datatyp(siz) R M Lvl/name                 OctLoc.c.b A Datatyp(siz) R M Lvl/name

     0-0-0/w PTR               1 SYM_PTRS(0:1400)

  ****  Section 007 LblCom RIGHT_PARTS

  ****  Scalars and arrays  ****
OctLoc.c.b A Datatyp(siz) R M Lvl/name                 OctLoc.c.b A Datatyp(siz) R M Lvl/name

     0-0-0/h SBIN(18)          1 RIGHT_PARTS(0:8000)

  ****  Section 008 LblCom PROD

  ****  Scalars and arrays  ****
OctLoc.c.b A Datatyp(siz) R M Lvl/name                 OctLoc.c.b A Datatyp(siz) R M Lvl/name

     0-0-0/h STRC(72)          1 PROD(0:1500)

  ****  Section 009 LblCom NR_PROD

  ****  Scalars and arrays  ****
OctLoc.c.b A Datatyp(siz) R M Lvl/name                 OctLoc.c.b A Datatyp(siz) R M Lvl/name

     0-0-0/w SBIN              1 NR_PROD

PL6.E3A0      #003=SCANNER File=LR_NRGRAM.:Z8A6TSI                               SAT 08/09/97 09:39 Page:228
  ****  Section 010 LblCom NR_SYMS

  ****  Scalars and arrays  ****
OctLoc.c.b A Datatyp(siz) R M Lvl/name                 OctLoc.c.b A Datatyp(siz) R M Lvl/name

     0-0-0/w SBIN              1 NR_SYMS

  ****  Section 011 LblCom NR_TERM

  ****  Scalars and arrays  ****
OctLoc.c.b A Datatyp(siz) R M Lvl/name                 OctLoc.c.b A Datatyp(siz) R M Lvl/name

     0-0-0/w SBIN              1 NR_TERM

  ****  Section 012 LblCom LAST_ACT

  ****  Scalars and arrays  ****
OctLoc.c.b A Datatyp(siz) R M Lvl/name                 OctLoc.c.b A Datatyp(siz) R M Lvl/name

     0-0-0/w SBIN              1 LAST_ACT

  ****  Section 013 LblCom LAST_NULL

  ****  Scalars and arrays  ****
OctLoc.c.b A Datatyp(siz) R M Lvl/name                 OctLoc.c.b A Datatyp(siz) R M Lvl/name

     0-0-0/w SBIN              1 LAST_NULL

  ****  Section 014 LblCom NR_ONRIGHT

  ****  Scalars and arrays  ****
OctLoc.c.b A Datatyp(siz) R M Lvl/name                 OctLoc.c.b A Datatyp(siz) R M Lvl/name

     0-0-0/w SBIN              1 NR_ONRIGHT

  ****  Section 015 LblCom NR_NT

PL6.E3A0      #003=SCANNER File=LR_NRGRAM.:Z8A6TSI                               SAT 08/09/97 09:39 Page:229
  ****  Scalars and arrays  ****
OctLoc.c.b A Datatyp(siz) R M Lvl/name                 OctLoc.c.b A Datatyp(siz) R M Lvl/name

     0-0-0/w SBIN              1 NR_NT

  ****  Section 016 LblCom PROD_LEN_MAX_EVER

  ****  Scalars and arrays  ****
OctLoc.c.b A Datatyp(siz) R M Lvl/name                 OctLoc.c.b A Datatyp(siz) R M Lvl/name

     0-0-0/w SBIN              1 PROD_LEN_MAX_EVER

  ****  Section 017 LblCom LAST_ORDER_SPECIFIED

  ****  Scalars and arrays  ****
OctLoc.c.b A Datatyp(siz) R M Lvl/name                 OctLoc.c.b A Datatyp(siz) R M Lvl/name

     0-0-0/w SBIN              1 LAST_ORDER_SPECIFIED

  ****  Section 018 LblCom SEMANTIC_ORDERING

  ****  Scalars and arrays  ****
OctLoc.c.b A Datatyp(siz) R M Lvl/name                 OctLoc.c.b A Datatyp(siz) R M Lvl/name

     0-0-0/b BIT               1 SEMANTIC_ORDERING

  ****  Section 019 LblCom ERR_SEV

  ****  Scalars and arrays  ****
OctLoc.c.b A Datatyp(siz) R M Lvl/name                 OctLoc.c.b A Datatyp(siz) R M Lvl/name

     0-0-0/w SBIN              1 ERR_SEV

  ****  Section 020 LblCom SET_LENGTHB

  ****  Scalars and arrays  ****
OctLoc.c.b A Datatyp(siz) R M Lvl/name                 OctLoc.c.b A Datatyp(siz) R M Lvl/name
PL6.E3A0      #003=SCANNER File=LR_NRGRAM.:Z8A6TSI                               SAT 08/09/97 09:39 Page:230

     0-0-0/w SBIN              1 SET_LENGTHB

  ****  Section 021 LblCom SET_LENGTHW

  ****  Scalars and arrays  ****
OctLoc.c.b A Datatyp(siz) R M Lvl/name                 OctLoc.c.b A Datatyp(siz) R M Lvl/name

     0-0-0/w SBIN              1 SET_LENGTHW

  ****  Section 022 LblCom EOF_SYMBOL_PTR

  ****  Scalars and arrays  ****
OctLoc.c.b A Datatyp(siz) R M Lvl/name                 OctLoc.c.b A Datatyp(siz) R M Lvl/name

     0-0-0/w PTR               1 EOF_SYMBOL_PTR

  ****  Section 023 LblCom ERROR_SYMBOL_PTR

  ****  Scalars and arrays  ****
OctLoc.c.b A Datatyp(siz) R M Lvl/name                 OctLoc.c.b A Datatyp(siz) R M Lvl/name

     0-0-0/w PTR               1 ERROR_SYMBOL_PTR

  ****  Section 024 LblCom BOF_SYMBOL_PTR

  ****  Scalars and arrays  ****
OctLoc.c.b A Datatyp(siz) R M Lvl/name                 OctLoc.c.b A Datatyp(siz) R M Lvl/name

     0-0-0/w PTR               1 BOF_SYMBOL_PTR

  ****  Section 025 LblCom OPTIONS

  ****  Scalars and arrays  ****
OctLoc.c.b A Datatyp(siz) R M Lvl/name                 OctLoc.c.b A Datatyp(siz) R M Lvl/name

     0-0-0/b BIT               1 OPTIONS(0:25)
PL6.E3A0      #003=SCANNER File=LR_NRGRAM.:Z8A6TSI                               SAT 08/09/97 09:39 Page:231

  ****  Section 026 LblCom OPTIONS_TEXT

  ****  Scalars and arrays  ****
OctLoc.c.b A Datatyp(siz) R M Lvl/name                 OctLoc.c.b A Datatyp(siz) R M Lvl/name

     0-0-0/c CHAR(4)           1 OPTIONS_TEXT(0:25)

  ****  Section 027 LblCom INSTR

  ****  Scalars and arrays  ****
OctLoc.c.b A Datatyp(siz) R M Lvl/name                 OctLoc.c.b A Datatyp(siz) R M Lvl/name

     0-0-0/c CHAR              1 INSTR(0:511)               0-0-0/c CHAR(512)         1 INSTRCHR

  ****  Section 028 LblCom INSTR_LISTED

  ****  Scalars and arrays  ****
OctLoc.c.b A Datatyp(siz) R M Lvl/name                 OctLoc.c.b A Datatyp(siz) R M Lvl/name

     0-0-0/b BIT               1 INSTR_LISTED

  ****  Section 029 LblCom INSTR_LEN

  ****  Scalars and arrays  ****
OctLoc.c.b A Datatyp(siz) R M Lvl/name                 OctLoc.c.b A Datatyp(siz) R M Lvl/name

     0-0-0/w SBIN              1 INSTR_LEN

  ****  Section 030 LblCom INSTR_INDX

  ****  Scalars and arrays  ****
OctLoc.c.b A Datatyp(siz) R M Lvl/name                 OctLoc.c.b A Datatyp(siz) R M Lvl/name

     0-0-0/w SBIN              1 INSTR_INDX

  ****  Section 031 LblCom EOF_FLAG
PL6.E3A0      #003=SCANNER File=LR_NRGRAM.:Z8A6TSI                               SAT 08/09/97 09:39 Page:232

  ****  Scalars and arrays  ****
OctLoc.c.b A Datatyp(siz) R M Lvl/name                 OctLoc.c.b A Datatyp(siz) R M Lvl/name

     0-0-0/b BIT               1 EOF_FLAG

  ****  Section 032 LblCom KEY_REC

  ****  Scalars and arrays  ****
OctLoc.c.b A Datatyp(siz) R M Lvl/name                 OctLoc.c.b A Datatyp(siz) R M Lvl/name

     0-0-0/c CHAR(10)          1 KEY_REC

  ****  Section 033 LblCom LINE

  ****  Scalars and arrays  ****
OctLoc.c.b A Datatyp(siz) R M Lvl/name                 OctLoc.c.b A Datatyp(siz) R M Lvl/name

     0-0-0/c CHAR(109)         1 LINE

  ****  Section 034 LblCom LINELEN

  ****  Scalars and arrays  ****
OctLoc.c.b A Datatyp(siz) R M Lvl/name                 OctLoc.c.b A Datatyp(siz) R M Lvl/name

     0-0-0/w SBIN              1 LINELEN

  ****  Section 035 LblCom TSTATS

  ****  Scalars and arrays  ****
OctLoc.c.b A Datatyp(siz) R M Lvl/name                 OctLoc.c.b A Datatyp(siz) R M Lvl/name

     0-0-0/w STRC(7380)        1 TSTATS

  ****  Section 036 LblCom LEX_REMEMBER

  ****  Scalars and arrays  ****
PL6.E3A0      #003=SCANNER File=LR_NRGRAM.:Z8A6TSI                               SAT 08/09/97 09:39 Page:233
OctLoc.c.b A Datatyp(siz) R M Lvl/name                 OctLoc.c.b A Datatyp(siz) R M Lvl/name

     0-0-0/d REMB        r     1 LEX_REMEMBER

  ****  Section 037 LblCom P_TOKEN

  ****  Scalars and arrays  ****
OctLoc.c.b A Datatyp(siz) R M Lvl/name                 OctLoc.c.b A Datatyp(siz) R M Lvl/name

     0-0-0/w PTR         r     1 P_TOKEN

  ****  Section 038 LblCom LASTCARD

  ****  Scalars and arrays  ****
OctLoc.c.b A Datatyp(siz) R M Lvl/name                 OctLoc.c.b A Datatyp(siz) R M Lvl/name

     0-0-0/w SBIN        r     1 LASTCARD

  ****  Section 039 LblCom LASTCOLUMN

  ****  Scalars and arrays  ****
OctLoc.c.b A Datatyp(siz) R M Lvl/name                 OctLoc.c.b A Datatyp(siz) R M Lvl/name

     0-0-0/w SBIN        r     1 LASTCOLUMN

  ****  Section 040 LblCom LEX_LA_STK

  ****  Scalars and arrays  ****
OctLoc.c.b A Datatyp(siz) R M Lvl/name                 OctLoc.c.b A Datatyp(siz) R M Lvl/name

     0-0-0/w STRC(216)   r     1 LEX_LA_STK(0:50)

  ****  Section 041 LblCom LEX_LX_TOP

  ****  Scalars and arrays  ****
OctLoc.c.b A Datatyp(siz) R M Lvl/name                 OctLoc.c.b A Datatyp(siz) R M Lvl/name

PL6.E3A0      #003=SCANNER File=LR_NRGRAM.:Z8A6TSI                               SAT 08/09/97 09:39 Page:234
     0-0-0/w SBIN        r     1 LEX_LX_TOP

  ****  Section 042 LblCom LEX_LX_STK

  ****  Scalars and arrays  ****
OctLoc.c.b A Datatyp(siz) R M Lvl/name                 OctLoc.c.b A Datatyp(siz) R M Lvl/name

     0-0-0/w STRC(216)   r     1 LEX_LX_STK(0:50)

  ****  Section 043 LblCom LEX_STATE

  ****  Scalars and arrays  ****
OctLoc.c.b A Datatyp(siz) R M Lvl/name                 OctLoc.c.b A Datatyp(siz) R M Lvl/name

     0-0-0/w SBIN(18)    r     1 LEX_STATE

  ****  Section 044 LblCom LEX_LA_CNT

  ****  Scalars and arrays  ****
OctLoc.c.b A Datatyp(siz) R M Lvl/name                 OctLoc.c.b A Datatyp(siz) R M Lvl/name

     0-0-0/w SBIN        r     1 LEX_LA_CNT

  ****  Section 045 LblCom LEX_LA_PUT

  ****  Scalars and arrays  ****
OctLoc.c.b A Datatyp(siz) R M Lvl/name                 OctLoc.c.b A Datatyp(siz) R M Lvl/name

     0-0-0/w SBIN        r     1 LEX_LA_PUT

  ****  Section 046 LblCom LEX_LA_GET

  ****  Scalars and arrays  ****
OctLoc.c.b A Datatyp(siz) R M Lvl/name                 OctLoc.c.b A Datatyp(siz) R M Lvl/name

     0-0-0/w SBIN        r     1 LEX_LA_GET

PL6.E3A0      #003=SCANNER File=LR_NRGRAM.:Z8A6TSI                               SAT 08/09/97 09:39 Page:235
  ****  Section 047 LblCom REDUCTION

  ****  Scalars and arrays  ****
OctLoc.c.b A Datatyp(siz) R M Lvl/name                 OctLoc.c.b A Datatyp(siz) R M Lvl/name

     0-0-0/w SBIN        r     1 REDUCTION

  ****  Section 048 LblCom LEX_PARSE_STACK

  ****  Scalars and arrays  ****
OctLoc.c.b A Datatyp(siz) R M Lvl/name                 OctLoc.c.b A Datatyp(siz) R M Lvl/name

     0-0-0/w SBIN        r     1 LEX_PARSE_STACK(0:500)

  ****  Section 049 LblCom LEX_PARSE_STACK_IDX

  ****  Scalars and arrays  ****
OctLoc.c.b A Datatyp(siz) R M Lvl/name                 OctLoc.c.b A Datatyp(siz) R M Lvl/name

     0-0-0/w SBIN(18)    r     1 LEX_PARSE_STACK_IDX

  ****  Section 050 LblCom LEX_ERRLINE

  ****  Scalars and arrays  ****
OctLoc.c.b A Datatyp(siz) R M Lvl/name                 OctLoc.c.b A Datatyp(siz) R M Lvl/name

     0-0-0/w SBIN        r     1 LEX_ERRLINE

  ****  Section 051 LblCom LEX_ERRCOL

  ****  Scalars and arrays  ****
OctLoc.c.b A Datatyp(siz) R M Lvl/name                 OctLoc.c.b A Datatyp(siz) R M Lvl/name

     0-0-0/w SBIN        r     1 LEX_ERRCOL

  ****  Section 052 LblCom ERR_LEX_LA_GET

PL6.E3A0      #003=SCANNER File=LR_NRGRAM.:Z8A6TSI                               SAT 08/09/97 09:39 Page:236
  ****  Scalars and arrays  ****
OctLoc.c.b A Datatyp(siz) R M Lvl/name                 OctLoc.c.b A Datatyp(siz) R M Lvl/name

     0-0-0/w SBIN        r     1 ERR_LEX_LA_GET

  ****  Section 053 LblCom ERR_LEX_LA_PUT

  ****  Scalars and arrays  ****
OctLoc.c.b A Datatyp(siz) R M Lvl/name                 OctLoc.c.b A Datatyp(siz) R M Lvl/name

     0-0-0/w SBIN        r     1 ERR_LEX_LA_PUT

  ****  Section 054 LblCom ERR_LEX_LA_CNT

  ****  Scalars and arrays  ****
OctLoc.c.b A Datatyp(siz) R M Lvl/name                 OctLoc.c.b A Datatyp(siz) R M Lvl/name

     0-0-0/w SBIN        r     1 ERR_LEX_LA_CNT

  ****  Section 055 LblCom LEX_ERR_RECOVERY_IN_PROGRESS

  ****  Scalars and arrays  ****
OctLoc.c.b A Datatyp(siz) R M Lvl/name                 OctLoc.c.b A Datatyp(siz) R M Lvl/name

     0-0-0/b BIT         r     1 LEX_ERR_RECOVERY_IN_PROGRESS

  ****  Section 056 LblCom LEX_PARSE_ERROR_COUNT

  ****  Scalars and arrays  ****
OctLoc.c.b A Datatyp(siz) R M Lvl/name                 OctLoc.c.b A Datatyp(siz) R M Lvl/name

     0-0-0/w SBIN        r     1 LEX_PARSE_ERROR_COUNT

  ****  Section 058  Data  SCANNER

  ****  Scalars and arrays  ****
OctLoc.c.b A Datatyp(siz) R M Lvl/name                 OctLoc.c.b A Datatyp(siz) R M Lvl/name
PL6.E3A0      #003=SCANNER File=LR_NRGRAM.:Z8A6TSI                               SAT 08/09/97 09:39 Page:237

     0-0-0/w BIT         r     1 PANIC_MODE_IN_PROGRESS

  ****  Auto variables  ****

  ****  Scalars and arrays  ****
OctLoc.c.b A Datatyp(siz) R M Lvl/name                 OctLoc.c.b A Datatyp(siz) R M Lvl/name

    13-0-0/w PTR         r     1 @ERROR_TYPE               14-0-0/w PTR         r     1 @PLUG1$
    15-0-0/w PTR         r     1 @PLUG2$                    3-0-0/w PTR         r     1 @TOKEN
    10-0-0/w SBIN(18)    r     1 ACTION                    *0-0-0/w SBIN        r     1 ERROR_TYPE
    16-0-0/w SBIN              1 I                         11-0-0/w SBIN(18)    r     1 INDX
     7-0-0/w SBIN(18)    r     1 NT
     5-0-0/w SBIN        r     1 PARSE_STACK_IDX_IN_CHARS
    *0-0-0/w PTR         r     1 PLUG1$                    *0-0-0/w PTR         r     1 PLUG2$
     6-0-0/w SBIN(18)    r     1 PSI                       17-0-0/c CHAR(140)         1 TEXTCHAR1
    62-0-0/c CHAR(140)         1 TEXTCHAR2                 *0-0-0/w PTR         r     1 TOKEN

  ****  SYMREF variables  ****

  ****  Scalars and arrays  ****
OctLoc.c.b A Datatyp(siz) R M Lvl/name                 OctLoc.c.b A Datatyp(siz) R M Lvl/name

     0-0-0/b STRC        r     1 LEX_ACTION_COL(0:703)
     0-0-0/b STRC        r     1 LEX_ACTION_ROW(0:1848)
     0-0-0/b STRC        r     1 LEX_GOTO_COL(0:98)
     0-0-0/b STRC        r     1 LEX_GOTO_ROW(0:438)
     0-0-0/b STRC(54)    r     1 LEX_PRODR(0:293)

  ****  BASED and DCB variables  ****

  ****  Scalars and arrays  ****
OctLoc.c.b A Datatyp(siz) R M Lvl/name                 OctLoc.c.b A Datatyp(siz) R M Lvl/name

     0-0-0/w ASTR        r     1 DNT                        0-0-0/w STRC(216)         1 LEX_LX_ITEM
     0-0-0N  NULL        r     1 M$LO                       0-0-0N  NULL        r     1 M$OU
     0-0-0N  NULL        r     1 M$SI                       0-0-0N  NULL        r     1 M$SO
PL6.E3A0      #003=SCANNER File=LR_NRGRAM.:Z8A6TSI                               SAT 08/09/97 09:39 Page:238
     0-0-0N  NULL        r     1 M$UC                       0-0-0N  NULL        r     1 M$UI
     0-0-0/c ACHR              1 PARSE_STACK_USED           0-0-0/w STRC(351)         1 SYMBOL


   Procedure SCANNER requires 723 words for executable code.
   Procedure SCANNER requires 90 words of local(AUTO) storage.

PL6.E3A0      #004=RESET_SCANNER File=LR_NRGRAM.:Z8A6TSI                         SAT 08/09/97 09:41 Page:239
      503        1        /*M* RECOVER FROM READING PL6 CODE */
      504        2        /*T***********************************************************/
      505        3        /*T*                                                         */
      506        4        /*T* Copyright (c) Bull HN Information Systems Inc., 1997    */
      507        5        /*T*                                                         */
      508        6        /*T***********************************************************/
      509        7
      510        8
      511        9
      512       10        /*P*
      513       11             NAME: RESET_SCANNER
      514       12          PURPOSE: RESET THE SCANNER AFTER READING PL6 CODE
      515       13        */
      516       14
      517       15
      518       16
      519       17        RESET_SCANNER:PROC;
      520       18        %INCLUDE LRX_SUBS;
      521       66        %INCLUDE LRXDPDA_SUBS;
      522      262        %INCLUDE PARSER_STATE;
      523      318
      524      319    1   LEX_LA_CNT = 0; /*TO FORCE A SCAN ON NEXT CALL TO SCANNER */
      525      320    1   LEX_LA_GET = LEX_LA_PUT;
      526      321    1   END RESET_SCANNER;
      527      322        %EOD;

PL6.E3A0      #004=RESET_SCANNER File=LR_NRGRAM.:Z8A6TSI                         SAT 08/09/97 09:41 Page:240
--  Include file information  --

   PARSER_STATE.:Z8A6TOU  cannot be made into a system file and is referenced.
   LRXDPDA_SUBS.:Z8A6TOU  is referenced.
   LRX_SUBS.:Z8A6TOU  is referenced.
      No diagnostics issued in procedure RESET_SCANNER.

   Procedure RESET_SCANNER requires 6 words for executable code.
   Procedure RESET_SCANNER requires 4 words of local(AUTO) storage.

PL6.E3A0      #004=RESET_SCANNER File=LR_NRGRAM.:Z8A6TSI                         SAT 08/09/97 09:41 Page:241

 Object Unit name= RESET_SCANNER                              File name= LR_NRGRAM.:Z8A6TOU
 UTS= AUG 09 '97 09:41:53.68 SAT                              Compiler= PL-6/E31         Sev=      00
 SharedLib= :SHARED_SYSTEM                                    Alt SharedLib=


    ****  Control sections  ****

 Sect   Type Bound  Init  Size OctSiz  Section name(segment info)
    0  LblCom even  none     1      1  LEX_STATE
    1  LblCom even  none     1      1  LEX_LA_CNT
    2  LblCom even  none     1      1  LEX_LA_PUT
    3  LblCom even  none     1      1  LEX_LA_GET
    4  LblCom even  none     1      1  REDUCTION
    5  LblCom even  none   501    765  LEX_PARSE_STACK
    6  LblCom even  none     1      1  LEX_PARSE_STACK_IDX
    7  LblCom even  none     1      1  LEX_ERRLINE
    8  LblCom even  none     1      1  LEX_ERRCOL
    9  LblCom even  none     1      1  ERR_LEX_LA_GET
   10  LblCom even  none     1      1  ERR_LEX_LA_PUT
   11  LblCom even  none     1      1  ERR_LEX_LA_CNT
   12  LblCom even  none     1      1  LEX_ERR_RECOVERY_IN_PROGRESS
   13  LblCom even  none     1      1  LEX_PARSE_ERROR_COUNT
   14   Proc  even  none     6      6  RESET_SCANNER

    ****  Entry defs  ****

                              Check   Calling
                             calling  sequence
  Sect OctLoc Primary Altret sequence   type   Parms  Name
    14      0   yes            yes      Std        0  RESET_SCANNER
PL6.E3A0      #004=RESET_SCANNER File=LR_NRGRAM.:Z8A6TSI                         SAT 08/09/97 09:41 Page:242

  ****  Entry refs  ****

         Check        Calling
        calling       sequence
Altret sequence SRef   type   Args  Name
                       nStd      0 X66_AUTO_0
                       nStd      0 X66_ARET
PL6.E3A0      #004=RESET_SCANNER File=LR_NRGRAM.:Z8A6TSI                         SAT 08/09/97 09:41 Page:243


      503        1        /*M* RECOVER FROM READING PL6 CODE */
      504        2        /*T***********************************************************/
      505        3        /*T*                                                         */
      506        4        /*T* Copyright (c) Bull HN Information Systems Inc., 1997    */
      507        5        /*T*                                                         */
      508        6        /*T***********************************************************/
      509        7
      510        8
      511        9
      512       10        /*P*
      513       11             NAME: RESET_SCANNER
      514       12          PURPOSE: RESET THE SCANNER AFTER READING PL6 CODE
      515       13        */
      516       14
      517       15
      518       16
      519       17        RESET_SCANNER:PROC;

     17 14 000000   000000 700200 xent  RESET_SCANN* TSX0  ! X66_AUTO_0
        14 000001   000004 000000                    ZERO    4,0

      520       18        %INCLUDE LRX_SUBS;
      521       66        %INCLUDE LRXDPDA_SUBS;
      522      262        %INCLUDE PARSER_STATE;
      523      318
      524      319    1   LEX_LA_CNT = 0; /*TO FORCE A SCAN ON NEXT CALL TO SCANNER */

    319 14 000002   000000 450000 1                  STZ     LEX_LA_CNT

      525      320    1   LEX_LA_GET = LEX_LA_PUT;

    320 14 000003   000000 235000 2                  LDA     LEX_LA_PUT
        14 000004   000000 755000 3                  STA     LEX_LA_GET

      526      321    1   END RESET_SCANNER;

PL6.E3A0      #004=RESET_SCANNER File=LR_NRGRAM.:Z8A6TSI                         SAT 08/09/97 09:41 Page:244
    321 14 000005   000000 702200 xent               TSX2  ! X66_ARET
      527      322        %EOD;

PL6.E3A0      #004=RESET_SCANNER File=LR_NRGRAM.:Z8A6TSI                         SAT 08/09/97 09:41 Page:245
--  Include file information  --

   PARSER_STATE.:Z8A6TOU  cannot be made into a system file and is referenced.
   LRXDPDA_SUBS.:Z8A6TOU  is referenced.
   LRX_SUBS.:Z8A6TOU  is referenced.
      No diagnostics issued in procedure RESET_SCANNER.
PL6.E3A0      #004=RESET_SCANNER File=LR_NRGRAM.:Z8A6TSI                         SAT 08/09/97 09:41 Page:246

 **** Variables and constants ****

  ****  Section 000 LblCom LEX_STATE

  ****  Scalars and arrays  ****
OctLoc.c.b A Datatyp(siz) R M Lvl/name                 OctLoc.c.b A Datatyp(siz) R M Lvl/name

     0-0-0/w SBIN(18)          1 LEX_STATE

  ****  Section 001 LblCom LEX_LA_CNT

  ****  Scalars and arrays  ****
OctLoc.c.b A Datatyp(siz) R M Lvl/name                 OctLoc.c.b A Datatyp(siz) R M Lvl/name

     0-0-0/w SBIN        r     1 LEX_LA_CNT

  ****  Section 002 LblCom LEX_LA_PUT

  ****  Scalars and arrays  ****
OctLoc.c.b A Datatyp(siz) R M Lvl/name                 OctLoc.c.b A Datatyp(siz) R M Lvl/name

     0-0-0/w SBIN        r     1 LEX_LA_PUT

  ****  Section 003 LblCom LEX_LA_GET

  ****  Scalars and arrays  ****
OctLoc.c.b A Datatyp(siz) R M Lvl/name                 OctLoc.c.b A Datatyp(siz) R M Lvl/name

     0-0-0/w SBIN        r     1 LEX_LA_GET

  ****  Section 004 LblCom REDUCTION

  ****  Scalars and arrays  ****
OctLoc.c.b A Datatyp(siz) R M Lvl/name                 OctLoc.c.b A Datatyp(siz) R M Lvl/name

     0-0-0/w SBIN              1 REDUCTION

PL6.E3A0      #004=RESET_SCANNER File=LR_NRGRAM.:Z8A6TSI                         SAT 08/09/97 09:41 Page:247
  ****  Section 005 LblCom LEX_PARSE_STACK

  ****  Scalars and arrays  ****
OctLoc.c.b A Datatyp(siz) R M Lvl/name                 OctLoc.c.b A Datatyp(siz) R M Lvl/name

     0-0-0/w SBIN              1 LEX_PARSE_STACK(0:500)

  ****  Section 006 LblCom LEX_PARSE_STACK_IDX

  ****  Scalars and arrays  ****
OctLoc.c.b A Datatyp(siz) R M Lvl/name                 OctLoc.c.b A Datatyp(siz) R M Lvl/name

     0-0-0/w SBIN(18)          1 LEX_PARSE_STACK_IDX

  ****  Section 007 LblCom LEX_ERRLINE

  ****  Scalars and arrays  ****
OctLoc.c.b A Datatyp(siz) R M Lvl/name                 OctLoc.c.b A Datatyp(siz) R M Lvl/name

     0-0-0/w SBIN              1 LEX_ERRLINE

  ****  Section 008 LblCom LEX_ERRCOL

  ****  Scalars and arrays  ****
OctLoc.c.b A Datatyp(siz) R M Lvl/name                 OctLoc.c.b A Datatyp(siz) R M Lvl/name

     0-0-0/w SBIN              1 LEX_ERRCOL

  ****  Section 009 LblCom ERR_LEX_LA_GET

  ****  Scalars and arrays  ****
OctLoc.c.b A Datatyp(siz) R M Lvl/name                 OctLoc.c.b A Datatyp(siz) R M Lvl/name

     0-0-0/w SBIN              1 ERR_LEX_LA_GET

  ****  Section 010 LblCom ERR_LEX_LA_PUT

PL6.E3A0      #004=RESET_SCANNER File=LR_NRGRAM.:Z8A6TSI                         SAT 08/09/97 09:41 Page:248
  ****  Scalars and arrays  ****
OctLoc.c.b A Datatyp(siz) R M Lvl/name                 OctLoc.c.b A Datatyp(siz) R M Lvl/name

     0-0-0/w SBIN              1 ERR_LEX_LA_PUT

  ****  Section 011 LblCom ERR_LEX_LA_CNT

  ****  Scalars and arrays  ****
OctLoc.c.b A Datatyp(siz) R M Lvl/name                 OctLoc.c.b A Datatyp(siz) R M Lvl/name

     0-0-0/w SBIN              1 ERR_LEX_LA_CNT

  ****  Section 012 LblCom LEX_ERR_RECOVERY_IN_PROGRESS

  ****  Scalars and arrays  ****
OctLoc.c.b A Datatyp(siz) R M Lvl/name                 OctLoc.c.b A Datatyp(siz) R M Lvl/name

     0-0-0/b BIT               1 LEX_ERR_RECOVERY_IN_PROGRESS

  ****  Section 013 LblCom LEX_PARSE_ERROR_COUNT

  ****  Scalars and arrays  ****
OctLoc.c.b A Datatyp(siz) R M Lvl/name                 OctLoc.c.b A Datatyp(siz) R M Lvl/name

     0-0-0/w SBIN              1 LEX_PARSE_ERROR_COUNT

  ****  Auto variables  ****

  ****  Scalars and arrays  ****
OctLoc.c.b A Datatyp(siz) R M Lvl/name                 OctLoc.c.b A Datatyp(siz) R M Lvl/name

     3-0-0/w SBIN        r     1 PARSE_STACK_IDX_IN_CHARS

  ****  BASED and DCB variables  ****

  ****  Scalars and arrays  ****
OctLoc.c.b A Datatyp(siz) R M Lvl/name                 OctLoc.c.b A Datatyp(siz) R M Lvl/name
PL6.E3A0      #004=RESET_SCANNER File=LR_NRGRAM.:Z8A6TSI                         SAT 08/09/97 09:41 Page:249

     0-0-0/c ACHR              1 PARSE_STACK_USED


   Procedure RESET_SCANNER requires 6 words for executable code.
   Procedure RESET_SCANNER requires 4 words of local(AUTO) storage.

