PL6.E3A0      #005=LEX_SEMANTICS File=LR_NRGRAM.:Z8A6TSI                         SAT 08/09/97 09:41 Page:250
      528        1        /*M* SEMANTICS FOR LEXICAL ANALYZER */
      529        2        /*T***********************************************************/
      530        3        /*T*                                                         */
      531        4        /*T* Copyright (c) Bull HN Information Systems Inc., 1997    */
      532        5        /*T*                                                         */
      533        6        /*T***********************************************************/
      534        7
      535        8
      536        9        /*P*
      537       10             NAME: LEX_SEMANTICS
      538       11          PURPOSE: Provide the semantics called for in the lexical grammar.
      539       12        */
      540       13
      541       14
      542       15
      543       16         LEX_SEMANTICS:PROC(ACTION);
      544       17
      545       18
      546       19        /*D*
      547       20               NAME: LEX_SEMANTICS
      548       21        DESCRIPTION: Since the lexical analyzer (or scanner) is implemented via
      549       22                     a LALR(1) grammar, some semantic actions are needed like*
      550       23                     1. making the basic "token holder" to pass back to the
      551       24                        syntactical parser.
      552       25                     2. make sure semantic action names are <= 30 characters
      553       26                        (PL6 id restriction ).
      554       27                     3. keep track of last column of the token name.
      555       28        */
      556       29
      557       30    1    DCL ACTION SBIN;
      558       31
      559       32        %SET KLUDGE_FLAG = '1'B;
      560       33        %INCLUDE PARSER_DNT;
      561       49         %INCLUDE PARSER_STACK;
      562      103         %INCLUDE LRX_SUBS;
      563      151         %INCLUDE LRXDPDA_SUBS;
      564      347         %INCLUDE PARSER_STACK;
PL6.E3A0      #005=LEX_SEMANTICS File=LR_NRGRAM.:Z8A6TSI                         SAT 08/09/97 09:41 Page:251
      565      401         %INCLUDE PARSER_SUBS;
      566      448         %INCLUDE LR_GRAM_EXT;
      567      987
      568      988    1    DCL LEX_REMEMBER REMEMBER EXT;
      569      989    1    DCL P_TOKEN PTR EXT;
      570      990    1    DCL SYMSTART SBIN WORD EXT;
      571      991    1    DCL SYMBOL_START SBIN WORD; /* START COLUMN OF TOKEN */
      572      992    1    DCL SYMLEN SBIN WORD; /* NUMBER OF CHAR OF TOKEN */
      573      993    1    DCL LASTCOLUMN SBIN WORD EXT; /* LAST COLUMN OF TOKEN */
      574      994    1    DCL LASTCARD SBIN WORD EXT; /* LAST CARD OF TOKEN */
      575      995
      576      996    1    DCL TEXTCHAR CHAR(140); /*TEMP TO HOLD TOKEN STRING */
      577      997    1    DCL TEXTWORD(0:34) REDEF TEXTCHAR SBIN WORD;
      578      998
      579      999    1    DCL NEW$ PTR; /* POINTER TO SYMBOL TABLE ENTRY */
      580     1000
      581     1001    1    DCL COLUMN_CHAR CHAR(5);
      582     1002    1    DCL DIAG ENTRY(6);
      583     1003    1    DCL FORCE_LIST ENTRY;
      584     1004    1    DCL I SBIN;
      585     1005
      586     1006        /* Define terminals for next level grammar */
      587     1007        %EQU TERM_SLASH_STAR_SLASH = 1;
      588     1008        %EQU TERM_NUMERIC_STRING   = 2;
      589     1009        %EQU TERM_ALPHANUMERIC_STRING = 3;
      590     1010        %EQU TERM_VARIABLE         = 4;
      591     1011        %EQU TERM_SEMANTIC_ACTION  = 5;
      592     1012        %EQU TERM_EXCLAMATION_POINT = 6;
      593     1013        %EQU TERM_PRODUCTION_SYMBOL = 7;
      594     1014        %EQU TERM_ERROR_SYMBOL      = 8;
      595     1015        %EQU TERM_EMPTY_SYMBOL      = 9;
      596     1016        %EQU TERM_SPECIAL_CHAR      = 10;
      597     1017        %EQU TERM_QUOTED_STRING     = 11;
      598     1018        %EQU TERM_ORDER_SYMBOL      = 12;
      599     1019        %EQU TERM_ENDORDER_SYMBOL   = 13;
      600     1020        %EQU TERM_LEFT_SYMBOL       = 14;
      601     1021        %EQU TERM_RIGHT_SYMBOL      = 15;
PL6.E3A0      #005=LEX_SEMANTICS File=LR_NRGRAM.:Z8A6TSI                         SAT 08/09/97 09:41 Page:252
      602     1022        %EQU TERM_INVALID_TOKEN     = 16;
      603     1023        %EQU TERM_BEGINNING_OF_FILE = 17;
      604     1024        %EQU TERM_END_OF_FILE       = 18;
      605     1025        %EQU TERM_SLASH_STAR_M_STAR = 19;
      606     1026        %EQU TERM_ORDER_ACTIONS     = 20;
      607     1027        %EQU TERM_ENDORDER_ACTIONS  = 21;
      608     1028
      609     1029
      610     1030
      611     1031
      612     1032    1    DCL NEWLEN SBIN;
      613     1033
      614     1034         %MACRO MAKE_LX_ITEM(TYPE=0);
      615     1035             P_TOKEN -> LX_ITEM.SYMPTR = ADDR(NIL);
      616     1036             P_TOKEN -> LX_ITEM.SYMBOL = TYPE;
      617     1037             P_TOKEN -> LX_ITEM.LINE =
      618     1038                  LEX_LX_STK.LINE(LEX_LX_TOP);
      619     1039             P_TOKEN -> LX_ITEM.COLUMN =
      620     1040                  LEX_LX_STK.COLUMN(LEX_LX_TOP);
      621     1041             SYMBOL_START = SYMSTART;
      622     1042             SYMLEN = LASTCOLUMN - SYMBOL_START + 1;
      623     1043             CALL INSERT(TEXTCHAR,,,SUBSTR(INSTR(0),SYMBOL_START,SYMLEN),
      624     1044                            '%%     ');
      625     1045             NEWLEN = (LENGTHC(DNT.TEXT.LENGTH) + SYMLEN + 7)/4;
      626     1046             CALL GETNEW(NEW$,NEWLEN);
      627     1047             NEW$->DNT.TEXT.LENGTH = SYMLEN + 2; /* DON'T FORGET THE %% */
      628     1048             NEW$->DNT.TEXT.NAME = SUBSTR(TEXTCHAR,0,SYMLEN+2);
      629     1049             P_TOKEN->LX_ITEM.DNTPTR = NEW$;
      630     1050         %MEND;
      631     1051
      632     1052        %MACRO MAKE_LX_ITEM_NO_DNT(TYPE=0);
      633     1053             P_TOKEN -> LX_ITEM.SYMPTR = ADDR(NIL);
      634     1054             P_TOKEN -> LX_ITEM.DNTPTR = ADDR(NIL);
      635     1055             P_TOKEN -> LX_ITEM.LINE = LEX_LX_STK.LINE(LEX_LX_TOP);
      636     1056             P_TOKEN -> LX_ITEM.COLUMN = LEX_LX_STK.COLUMN(LEX_LX_TOP);
      637     1057             P_TOKEN -> LX_ITEM.SYMBOL = TYPE;
      638     1058        %MEND;
PL6.E3A0      #005=LEX_SEMANTICS File=LR_NRGRAM.:Z8A6TSI                         SAT 08/09/97 09:41 Page:253
      639     1059
      640     1060        %MACRO MAKE_DNT(D="' '");
      641     1061             SYMLEN = LENGTHC(D);
      642     1062             CALL INSERT(TEXTCHAR,,,D,'%%     ');
      643     1063             NEWLEN = (LENGTHC(DNT.TEXT.LENGTH) + SYMLEN + 7) / 4;
      644     1064             CALL GETNEW(NEW$,NEWLEN);
      645     1065             NEW$ -> DNT.TEXT.LENGTH = SYMLEN + 2;
      646     1066             NEW$ -> DNT.TEXT.NAME = SUBSTR(TEXTCHAR,0,SYMLEN+2);
      647     1067             P_TOKEN -> LX_ITEM.DNTPTR = NEW$;
      648     1068        %MEND;
      649     1069
      650     1070    1    DCL OUT_STR ENTRY(2);
      651     1071    1    DCL FLUSH ENTRY;
      652     1072
      653     1073        %EJECT;
PL6.E3A0      #005=LEX_SEMANTICS File=LR_NRGRAM.:Z8A6TSI                         SAT 08/09/97 09:41 Page:254
      654     1074    2   DO CASE(ACTION);
      655     1075    2   CASE(%SLASH_STAR_SLASH_ACTION);
      656     1076           %MAKE_LX_ITEM(TYPE=%TERM_SLASH_STAR_SLASH);
      657     1093    2   CASE(%NUMERIC_STRING_ACTION);
      658     1094           %MAKE_LX_ITEM(TYPE=%TERM_NUMERIC_STRING);
      659     1111    2   CASE(%ALPHANUMERIC_STRING_ACTION);
      660     1112           %MAKE_LX_ITEM(TYPE=%TERM_ALPHANUMERIC_STRING);
      661     1129    2   CASE(%NONTERMINAL_ACTION);
      662     1130           %MAKE_LX_ITEM(TYPE=%TERM_VARIABLE);
      663     1147    2   CASE(%EOF_NT_ACTION);
      664     1148           %MAKE_LX_ITEM_NO_DNT(TYPE=%TERM_VARIABLE);
      665     1155           %MAKE_DNT(D="'=END_OF_FILE='");
      666     1164    2   CASE(%BOF_NT_ACTION);
      667     1165           %MAKE_LX_ITEM_NO_DNT(TYPE=%TERM_VARIABLE);
      668     1172           %MAKE_DNT(D="'=BEGINNING_OF_FILE='");
      669     1181    2   CASE(%EOL_NT_ACTION);
      670     1182           %MAKE_LX_ITEM_NO_DNT(TYPE=%TERM_VARIABLE);
      671     1189           %MAKE_DNT(D="'=END_OF_LINE='");
      672     1198    2   CASE(%SEMANTIC_ACTION_ACTION);
      673     1199           %MAKE_LX_ITEM(TYPE=%TERM_SEMANTIC_ACTION);
      674     1216    2      IF SYMLEN > 32 /* DON'T FORGET { AND } */
      675     1217    2      THEN CALL DIAG(6,
              1217               'ERROR => Semantic action name is greater than 30 characters : %%',
      676     1218    2                     P_TOKEN->LX_ITEM.DNTPTR->DNT.TEXT.NAME);
      677     1219    2   CASE(%ALTERNATION_ACTION);
      678     1220    2      LASTCOLUMN = LEX_LX_STK.COLUMN(LEX_LX_TOP) - 1;
      679     1221           %MAKE_LX_ITEM(TYPE=%TERM_EXCLAMATION_POINT);
      680     1238    2   CASE(%PRODUCES_ACTION);
      681     1239           %MAKE_LX_ITEM(TYPE=%TERM_PRODUCTION_SYMBOL);
      682     1256    2   CASE(%ERROR_ACTION);
      683     1257           %MAKE_LX_ITEM_NO_DNT(TYPE=%TERM_ERROR_SYMBOL);
      684     1264           %MAKE_DNT(D="'=ERROR='");
      685     1273    2   CASE(%EMPTY_ACTION);
      686     1274           %MAKE_LX_ITEM_NO_DNT(TYPE=%TERM_EMPTY_SYMBOL);
      687     1281           %MAKE_DNT(D="'=EMPTY='");
      688     1290    2   CASE(%SPECIAL_CHARS_ACTION);
      689     1291    2      LASTCOLUMN = LEX_LX_STK.COLUMN(LEX_LX_TOP) - 1;
PL6.E3A0      #005=LEX_SEMANTICS File=LR_NRGRAM.:Z8A6TSI                         SAT 08/09/97 09:41 Page:255
      690     1292           %MAKE_LX_ITEM(TYPE=%TERM_SPECIAL_CHAR);
      691     1309    2   CASE(%QUOTED_STRING_ACTION);
      692     1310           %MAKE_LX_ITEM(TYPE=%TERM_QUOTED_STRING);
      693     1327    2   CASE(%LIST_ACTION);
      694     1328    2      OPTIONS(LS_OPT) = TRUE;
      695     1329           %OUTLINE(S="'============='");
      696     1335           %OUTLINE(S="'INPUT LISTING'");
      697     1341           %OUTLINE(S="'============='");
      698     1347           %OUTLINE(S="' '");
      699     1353    2    CASE(%GRAMMAR);
      700     1354    2      OPTIONS(LG_OPT) = TRUE;
      701     1355    2   CASE(%CONFIG_ACTION);
      702     1356    2      OPTIONS(CS_OPT) = TRUE;
      703     1357    2   CASE(%STAT_ACTION);
      704     1358    2      OPTIONS(ST_OPT) = TRUE;
      705     1359    2   CASE(%NOLIST_ACTION);
      706     1360    2      OPTIONS(LS_OPT) = FALSE;
      707     1361    2   CASE(%XREF_ACTION);
      708     1362    2      OPTIONS(XREF_OPT) = TRUE;
      709     1363    2   CASE(%ERRORTABLE_ACTION);
      710     1364    2      OPTIONS(ERROR_TABLE_OPT) = TRUE;
      711     1365    2   CASE(%NOREPAIR_ACTION);
      712     1366    2      OPTIONS(ERROR_TABLE_OPT) = FALSE;
      713     1367    2   CASE(%LCSTRING_ACTION);
      714     1368    2      OPTIONS(ERROR_LIST_S_OPT) = TRUE;
      715     1369    2   CASE(%LCPREFIX_ACTION);
      716     1370    2      OPTIONS(ERROR_LIST_E_OPT) = TRUE;
      717     1371    2   CASE(%SPACE_ACTION);
      718     1372    2       OPTIONS(OS_OPT) = TRUE;
      719     1373    2       OPTIONS(OT_OPT) = FALSE;
      720     1374    2   CASE(%TIME_ACTION);
      721     1375    2       OPTIONS(OT_OPT) = TRUE;
      722     1376    2       OPTIONS(OS_OPT) = FALSE;
      723     1377    2   CASE(%DELETETS_ACTION);
      724     1378    2       OPTIONS(DTS_OPT) = TRUE;
      725     1379    2   CASE(%NUMERIC_ACTIONS_ACTION);
      726     1380    2       OPTIONS(AN_OPT) = TRUE;
PL6.E3A0      #005=LEX_SEMANTICS File=LR_NRGRAM.:Z8A6TSI                         SAT 08/09/97 09:41 Page:256
      727     1381    2   CASE(%ORDER_START_ACTION);
      728     1382           %MAKE_LX_ITEM_NO_DNT(TYPE=%TERM_ORDER_SYMBOL);
      729     1389           %MAKE_DNT(D="'=ORDER='");
      730     1398    2   CASE(%ORDER_END_ACTION);
      731     1399           %MAKE_LX_ITEM_NO_DNT(TYPE=%TERM_ENDORDER_SYMBOL);
      732     1406           %MAKE_DNT(D="'=ENDORDER='");
      733     1415    2   CASE(%ORDER_ACTIONS_ACTION);
      734     1416            %MAKE_LX_ITEM_NO_DNT(TYPE=%TERM_ORDER_ACTIONS);
      735     1423            %MAKE_DNT(D="'=ORDER_ACTIONS='");
      736     1432    2   CASE(%ENDORDER_ACTIONS_ACTION);
      737     1433             %MAKE_LX_ITEM_NO_DNT(TYPE=%TERM_ENDORDER_ACTIONS);
      738     1440             %MAKE_DNT(D="'=ENDORDER_ACTIONS='");
      739     1449    2   CASE(%LEFT_ACTION);
      740     1450           %MAKE_LX_ITEM_NO_DNT(TYPE=%TERM_LEFT_SYMBOL);
      741     1457           %MAKE_DNT(D="'=LEFT='");
      742     1466    2   CASE(%RIGHT_ACTION);
      743     1467           %MAKE_LX_ITEM_NO_DNT(TYPE=%TERM_RIGHT_SYMBOL);
      744     1474           %MAKE_DNT(D="'=RIGHT='");
      745     1483    2   CASE(%NONPRINTABLE_ACTION);
      746     1484           %MAKE_LX_ITEM(TYPE=%TERM_INVALID_TOKEN);
      747     1501    2        CALL BINCHAR(SUBSTR(COLUMN_CHAR,0,3),
      748     1502    2                     P_TOKEN->LX_ITEM.COLUMN);
      749     1503    2        SUBSTR(COLUMN_CHAR,3,2) = '%%';
      750     1504    2        CALL DIAG(6,' ERROR => Nonprintable character found in column %%',
      751     1505    2                  COLUMN_CHAR);
      752     1506    2   CASE(%ACCEPT_ACTION);
      753     1507    2       SYMSTART = LASTCOLUMN + 1;
      754     1508    2       UNWIND TO LEX_REMEMBER;
      755     1509    2   CASE(%ACCEPT_EOF);
      756     1510    2       P_TOKEN->LX_ITEM.SYMPTR = ADDR(NIL);
      757     1511    2       P_TOKEN->LX_ITEM.DNTPTR = ADDR(NIL);
      758     1512    2       P_TOKEN->LX_ITEM.LINE = LEX_LX_STK.LINE(LEX_LX_TOP);
      759     1513    2       P_TOKEN->LX_ITEM.COLUMN = LEX_LX_STK.COLUMN(LEX_LX_TOP);
      760     1514    2       P_TOKEN->LX_ITEM.SYMBOL = %TERM_END_OF_FILE;
      761     1515    2       UNWIND TO LEX_REMEMBER;
      762     1516    2   CASE(%INVALID_TOKEN_ACTION);
      763     1517            %MAKE_LX_ITEM(TYPE=%TERM_INVALID_TOKEN);
PL6.E3A0      #005=LEX_SEMANTICS File=LR_NRGRAM.:Z8A6TSI                         SAT 08/09/97 09:41 Page:257
      764     1534    2       CALL FORCE_LIST;
      765     1535    2       CALL FLUSH;
      766     1536    3       DO I = 1 TO SYMSTART  + LENGTHC(KEY_REC);
      767     1537                %OUT_STR(S="' '");
      768     1540    3       END;
      769     1541            %OUT_STR(S="'1'");
      770     1544    2       CALL FLUSH;
      771     1545    2       CALL DIAG(6,' ERROR => Illegal token : %%',
      772     1546    2                 P_TOKEN->LX_ITEM.DNTPTR->DNT.TEXT.NAME,
      773     1547    2                 ' . Tokens beginning with =, <, {, /, and : should be%%',
      774     1548    2                 ' enclosed in apostrophes.%%');
      775     1549    2   CASE(%SLASH_STAR_M_STAR_ACTION);
      776     1550            %MAKE_LX_ITEM(TYPE=%TERM_SLASH_STAR_M_STAR);
      777     1567    2   CASE(%END_OF_LINE_ACTION);
      778     1568    2       LASTCOLUMN = -1;
      779     1569    2   CASE(%START_OF_TOKEN_ACTION);
      780     1570    2       SYMSTART = LASTCOLUMN + 1;
      781     1571    2   END /* OF CASE ON ACTION */ ;
      782     1572    1    END LEX_SEMANTICS;
      783     1573        %EOD;

PL6.E3A0      #005=LEX_SEMANTICS File=LR_NRGRAM.:Z8A6TSI                         SAT 08/09/97 09:41 Page:258
--  Include file information  --

   LR_IO_EXT.:Z8A6TOU  cannot be made into a system file and is referenced.
   LR_GRAM_EXT.:Z8A6TOU  cannot be made into a system file and is referenced.
   PARSER_SUBS.:Z8A6TOU  is referenced.
   LRXDPDA_SUBS.:Z8A6TOU  is referenced.
   LRX_SUBS.:Z8A6TOU  is referenced.
   PARSER_STACK.:Z8A6TOU  cannot be made into a system file and is referenced.
   PARSER_DNT.:Z8A6TOU  cannot be made into a system file and is referenced.
      No diagnostics issued in procedure LEX_SEMANTICS.

   Procedure LEX_SEMANTICS requires 1395 words for executable code.
   Procedure LEX_SEMANTICS requires 52 words of local(AUTO) storage.

PL6.E3A0      #005=LEX_SEMANTICS File=LR_NRGRAM.:Z8A6TSI                         SAT 08/09/97 09:41 Page:259

 Object Unit name= LEX_SEMANTICS                              File name= LR_NRGRAM.:Z8A6TOU
 UTS= AUG 09 '97 09:41:58.72 SAT                              Compiler= PL-6/E31         Sev=      00
 SharedLib= :SHARED_SYSTEM                                    Alt SharedLib=


    ****  Control sections  ****

 Sect   Type Bound  Init  Size OctSiz  Section name(segment info)
    0  LblCom even  none   306    462  LA_STK
    1  LblCom even  none     1      1  LX_TOP
    2  LblCom even  none   306    462  LX_STK
    3  LblCom even  none   306    462  LEX_LA_STK
    4  LblCom even  none     1      1  LEX_LX_TOP
    5  LblCom even  none   306    462  LEX_LX_STK
    6  LblCom even  none     1      1  OUT_DCBN
    7   DCB   even  none     0      0  M$OU
    8   DCB   even  none     0      0  M$SO
    9   DCB   even  none     0      0  M$LO
   10   DCB   even  none     0      0  M$SI
   11   DCB   even  none     0      0  M$UI
   12  LblCom even  none  1401   2571  SYM_PTRS
   13  LblCom even  none  4001   7641  RIGHT_PARTS
   14  LblCom even  none  3002   5672  PROD
   15  LblCom even  none     1      1  NR_PROD
   16  LblCom even  none     1      1  NR_SYMS
   17  LblCom even  none     1      1  NR_TERM
   18  LblCom even  none     1      1  LAST_ACT
   19  LblCom even  none     1      1  LAST_NULL
   20  LblCom even  none     1      1  NR_ONRIGHT
   21  LblCom even  none     1      1  NR_NT
   22  LblCom even  none     1      1  PROD_LEN_MAX_EVER
   23  LblCom even  none     1      1  LAST_ORDER_SPECIFIED
   24  LblCom even  none     1      1  SEMANTIC_ORDERING
   25  LblCom even  none     1      1  ERR_SEV
   26  LblCom even  none     1      1  SET_LENGTHB
   27  LblCom even  none     1      1  SET_LENGTHW
   28  LblCom even  none     1      1  EOF_SYMBOL_PTR
PL6.E3A0      #005=LEX_SEMANTICS File=LR_NRGRAM.:Z8A6TSI                         SAT 08/09/97 09:41 Page:260
   29  LblCom even  none     1      1  ERROR_SYMBOL_PTR
   30  LblCom even  none     1      1  BOF_SYMBOL_PTR
   31  LblCom even  none     1      1  OPTIONS
   32  LblCom even  none    26     32  OPTIONS_TEXT
   33  LblCom even  none   128    200  INSTR
   34  LblCom even  none     1      1  INSTR_LISTED
   35  LblCom even  none     1      1  INSTR_LEN
   36  LblCom even  none     1      1  INSTR_INDX
   37  LblCom even  none     1      1  EOF_FLAG
   38  LblCom even  none     3      3  KEY_REC
   39  LblCom even  none    28     34  LINE
   40  LblCom even  none     1      1  LINELEN
   41  LblCom even  none   205    315  TSTATS
   42  LblCom even  none     2      2  LEX_REMEMBER
   43  LblCom even  none     1      1  P_TOKEN
   44  LblCom even  none     1      1  SYMSTART
   45  LblCom even  none     1      1  LASTCOLUMN
   46  LblCom even  none     1      1  LASTCARD
   47  RoData even  UTS    102    146  LEX_SEMANTICS
   48   Proc  even  none  1395   2563  LEX_SEMANTICS
   49  RoData even  none    30     36  LEX_SEMANTICS

    ****  Entry defs  ****

                              Check   Calling
                             calling  sequence
  Sect OctLoc Primary Altret sequence   type   Parms  Name
    48      0   yes            yes      Std        1  LEX_SEMANTICS
PL6.E3A0      #005=LEX_SEMANTICS File=LR_NRGRAM.:Z8A6TSI                         SAT 08/09/97 09:41 Page:261

  ****  Entry refs  ****

         Check        Calling
        calling       sequence
Altret sequence SRef   type   Args  Name
         yes           Std       2 GETNEW
         yes           Std       6 DIAG
         yes           Std       2 OUT_STR
         yes           Std       0 FLUSH
         yes           Std       0 FORCE_LIST
                       nStd      0 X66_AUTO_1
                       nStd      0 X66_AUNWIND
                       nStd      0 X66_ARET

  ****  Data refs  ****

  Flags:  r = read only, s = secondary
Flgs Name                             Flgs Name                             Flgs Name
     M$OU                                  M$SO                                  M$LO
     M$SI                                  M$UI

  ****  Segment refs  ****

  Flags:  r = read only, s = secondary
Flgs Name                             Flgs Name                             Flgs Name
     NULLSID                               ISSID
PL6.E3A0      #005=LEX_SEMANTICS File=LR_NRGRAM.:Z8A6TSI                         SAT 08/09/97 09:41 Page:262


      528        1        /*M* SEMANTICS FOR LEXICAL ANALYZER */
      529        2        /*T***********************************************************/
      530        3        /*T*                                                         */
      531        4        /*T* Copyright (c) Bull HN Information Systems Inc., 1997    */
      532        5        /*T*                                                         */
      533        6        /*T***********************************************************/
      534        7
      535        8
      536        9        /*P*
      537       10             NAME: LEX_SEMANTICS
      538       11          PURPOSE: Provide the semantics called for in the lexical grammar.
      539       12        */
      540       13
      541       14
      542       15
      543       16         LEX_SEMANTICS:PROC(ACTION);

     16 48 000000   000000 700200 xent  LEX_SEMANTI* TSX0  ! X66_AUTO_1
        48 000001   000064 000001                    ZERO    52,1

      544       17
      545       18
      546       19        /*D*
      547       20               NAME: LEX_SEMANTICS
      548       21        DESCRIPTION: Since the lexical analyzer (or scanner) is implemented via
      549       22                     a LALR(1) grammar, some semantic actions are needed like*
      550       23                     1. making the basic "token holder" to pass back to the
      551       24                        syntactical parser.
      552       25                     2. make sure semantic action names are <= 30 characters
      553       26                        (PL6 id restriction ).
      554       27                     3. keep track of last column of the token name.
      555       28        */
      556       29
      557       30    1    DCL ACTION SBIN;
      558       31
      559       32        %SET KLUDGE_FLAG = '1'B;
PL6.E3A0      #005=LEX_SEMANTICS File=LR_NRGRAM.:Z8A6TSI                         SAT 08/09/97 09:41 Page:263
      560       33        %INCLUDE PARSER_DNT;
      561       49         %INCLUDE PARSER_STACK;
      562      103         %INCLUDE LRX_SUBS;
      563      151         %INCLUDE LRXDPDA_SUBS;
      564      347         %INCLUDE PARSER_STACK;
      565      401         %INCLUDE PARSER_SUBS;
      566      448         %INCLUDE LR_GRAM_EXT;
      567      987
      568      988    1    DCL LEX_REMEMBER REMEMBER EXT;
      569      989    1    DCL P_TOKEN PTR EXT;
      570      990    1    DCL SYMSTART SBIN WORD EXT;
      571      991    1    DCL SYMBOL_START SBIN WORD; /* START COLUMN OF TOKEN */
      572      992    1    DCL SYMLEN SBIN WORD; /* NUMBER OF CHAR OF TOKEN */
      573      993    1    DCL LASTCOLUMN SBIN WORD EXT; /* LAST COLUMN OF TOKEN */
      574      994    1    DCL LASTCARD SBIN WORD EXT; /* LAST CARD OF TOKEN */
      575      995
      576      996    1    DCL TEXTCHAR CHAR(140); /*TEMP TO HOLD TOKEN STRING */
      577      997    1    DCL TEXTWORD(0:34) REDEF TEXTCHAR SBIN WORD;
      578      998
      579      999    1    DCL NEW$ PTR; /* POINTER TO SYMBOL TABLE ENTRY */
      580     1000
      581     1001    1    DCL COLUMN_CHAR CHAR(5);
      582     1002    1    DCL DIAG ENTRY(6);
      583     1003    1    DCL FORCE_LIST ENTRY;
      584     1004    1    DCL I SBIN;
      585     1005
      586     1006        /* Define terminals for next level grammar */
      587     1007        %EQU TERM_SLASH_STAR_SLASH = 1;
      588     1008        %EQU TERM_NUMERIC_STRING   = 2;
      589     1009        %EQU TERM_ALPHANUMERIC_STRING = 3;
      590     1010        %EQU TERM_VARIABLE         = 4;
      591     1011        %EQU TERM_SEMANTIC_ACTION  = 5;
      592     1012        %EQU TERM_EXCLAMATION_POINT = 6;
      593     1013        %EQU TERM_PRODUCTION_SYMBOL = 7;
      594     1014        %EQU TERM_ERROR_SYMBOL      = 8;
      595     1015        %EQU TERM_EMPTY_SYMBOL      = 9;
      596     1016        %EQU TERM_SPECIAL_CHAR      = 10;
PL6.E3A0      #005=LEX_SEMANTICS File=LR_NRGRAM.:Z8A6TSI                         SAT 08/09/97 09:41 Page:264
      597     1017        %EQU TERM_QUOTED_STRING     = 11;
      598     1018        %EQU TERM_ORDER_SYMBOL      = 12;
      599     1019        %EQU TERM_ENDORDER_SYMBOL   = 13;
      600     1020        %EQU TERM_LEFT_SYMBOL       = 14;
      601     1021        %EQU TERM_RIGHT_SYMBOL      = 15;
      602     1022        %EQU TERM_INVALID_TOKEN     = 16;
      603     1023        %EQU TERM_BEGINNING_OF_FILE = 17;
      604     1024        %EQU TERM_END_OF_FILE       = 18;
      605     1025        %EQU TERM_SLASH_STAR_M_STAR = 19;
      606     1026        %EQU TERM_ORDER_ACTIONS     = 20;
      607     1027        %EQU TERM_ENDORDER_ACTIONS  = 21;
      608     1028
      609     1029
      610     1030
      611     1031
      612     1032    1    DCL NEWLEN SBIN;
      613     1033
      614     1034         %MACRO MAKE_LX_ITEM(TYPE=0);
      615     1035             P_TOKEN -> LX_ITEM.SYMPTR = ADDR(NIL);
      616     1036             P_TOKEN -> LX_ITEM.SYMBOL = TYPE;
      617     1037             P_TOKEN -> LX_ITEM.LINE =
      618     1038                  LEX_LX_STK.LINE(LEX_LX_TOP);
      619     1039             P_TOKEN -> LX_ITEM.COLUMN =
      620     1040                  LEX_LX_STK.COLUMN(LEX_LX_TOP);
      621     1041             SYMBOL_START = SYMSTART;
      622     1042             SYMLEN = LASTCOLUMN - SYMBOL_START + 1;
      623     1043             CALL INSERT(TEXTCHAR,,,SUBSTR(INSTR(0),SYMBOL_START,SYMLEN),
      624     1044                            '%%     ');
      625     1045             NEWLEN = (LENGTHC(DNT.TEXT.LENGTH) + SYMLEN + 7)/4;
      626     1046             CALL GETNEW(NEW$,NEWLEN);
      627     1047             NEW$->DNT.TEXT.LENGTH = SYMLEN + 2; /* DON'T FORGET THE %% */
      628     1048             NEW$->DNT.TEXT.NAME = SUBSTR(TEXTCHAR,0,SYMLEN+2);
      629     1049             P_TOKEN->LX_ITEM.DNTPTR = NEW$;
      630     1050         %MEND;
      631     1051
      632     1052        %MACRO MAKE_LX_ITEM_NO_DNT(TYPE=0);
      633     1053             P_TOKEN -> LX_ITEM.SYMPTR = ADDR(NIL);
PL6.E3A0      #005=LEX_SEMANTICS File=LR_NRGRAM.:Z8A6TSI                         SAT 08/09/97 09:41 Page:265
      634     1054             P_TOKEN -> LX_ITEM.DNTPTR = ADDR(NIL);
      635     1055             P_TOKEN -> LX_ITEM.LINE = LEX_LX_STK.LINE(LEX_LX_TOP);
      636     1056             P_TOKEN -> LX_ITEM.COLUMN = LEX_LX_STK.COLUMN(LEX_LX_TOP);
      637     1057             P_TOKEN -> LX_ITEM.SYMBOL = TYPE;
      638     1058        %MEND;
      639     1059
      640     1060        %MACRO MAKE_DNT(D="' '");
      641     1061             SYMLEN = LENGTHC(D);
      642     1062             CALL INSERT(TEXTCHAR,,,D,'%%     ');
      643     1063             NEWLEN = (LENGTHC(DNT.TEXT.LENGTH) + SYMLEN + 7) / 4;
      644     1064             CALL GETNEW(NEW$,NEWLEN);
      645     1065             NEW$ -> DNT.TEXT.LENGTH = SYMLEN + 2;
      646     1066             NEW$ -> DNT.TEXT.NAME = SUBSTR(TEXTCHAR,0,SYMLEN+2);
      647     1067             P_TOKEN -> LX_ITEM.DNTPTR = NEW$;
      648     1068        %MEND;
      649     1069
      650     1070    1    DCL OUT_STR ENTRY(2);
      651     1071    1    DCL FLUSH ENTRY;
      652     1072
      653     1073        %EJECT;
PL6.E3A0      #005=LEX_SEMANTICS File=LR_NRGRAM.:Z8A6TSI                         SAT 08/09/97 09:41 Page:266
      654     1074    2   DO CASE(ACTION);

   1074 48 000002   200003 470500                    LDP0    @ACTION,,AUTO
        48 000003   000000 235100                    LDA     0,,PR0
        48 000004   000052 115007                    CMPA    42,DL
        48 000005   000007 602005 48                 TNC     s:1074+5,AL
        48 000006   002562 710000 48                 TRA     s:1572
        48 000007   002562 710000 48                 TRA     s:1572
        48 000010   002302 710000 48                 TRA     s:1507
        48 000011   002310 710000 48                 TRA     s:1510
        48 000012   002327 710000 48                 TRA     s:1518
        48 000013   002557 710000 48                 TRA     s:1570
        48 000014   002554 710000 48                 TRA     s:1568
        48 000015   001434 710000 48                 TRA     s:1328
        48 000016   001504 710000 48                 TRA     s:1360
        48 000017   001473 710000 48                 TRA     s:1354
        48 000020   001476 710000 48                 TRA     s:1356
        48 000021   001501 710000 48                 TRA     s:1358
        48 000022   001507 710000 48                 TRA     s:1362
        48 000023   001512 710000 48                 TRA     s:1364
        48 000024   001520 710000 48                 TRA     s:1368
        48 000025   001523 710000 48                 TRA     s:1370
        48 000026   001526 710000 48                 TRA     s:1372
        48 000027   001533 710000 48                 TRA     s:1375
        48 000030   001515 710000 48                 TRA     s:1366
        48 000031   001540 710000 48                 TRA     s:1378
        48 000032   001543 710000 48                 TRA     s:1380
        48 000033   000061 710000 48                 TRA     s:1077
        48 000034   002465 710000 48                 TRA     s:1551
        48 000035   000150 710000 48                 TRA     s:1095
        48 000036   000237 710000 48                 TRA     s:1113
        48 000037   000326 710000 48                 TRA     s:1131
        48 000040   000627 710000 48                 TRA     s:1200
        48 000041   000732 710000 48                 TRA     s:1220
        48 000042   001026 710000 48                 TRA     s:1240
        48 000043   001115 710000 48                 TRA     s:1258
        48 000044   001173 710000 48                 TRA     s:1275
PL6.E3A0      #005=LEX_SEMANTICS File=LR_NRGRAM.:Z8A6TSI                         SAT 08/09/97 09:41 Page:267
        48 000045   001251 710000 48                 TRA     s:1291
        48 000046   001345 710000 48                 TRA     s:1311
        48 000047   001546 710000 48                 TRA     s:1383
        48 000050   001624 710000 48                 TRA     s:1400
        48 000051   002036 710000 48                 TRA     s:1451
        48 000052   002114 710000 48                 TRA     s:1468
        48 000053   002172 710000 48                 TRA     s:1485
        48 000054   000473 710000 48                 TRA     s:1166
        48 000055   000415 710000 48                 TRA     s:1149
        48 000056   000551 710000 48                 TRA     s:1183
        48 000057   001702 710000 48                 TRA     s:1417
        48 000060   001760 710000 48                 TRA     s:1434

      655     1075    2   CASE(%SLASH_STAR_SLASH_ACTION);

      656     1076           %MAKE_LX_ITEM(TYPE=%TERM_SLASH_STAR_SLASH);

   1077 48 000061   000000 236000 49                 LDQ     0
        48 000062   000000 471400 43                 LDP1    P_TOKEN
        48 000063   100004 756100                    STQ     4,,PR1

   1078 48 000064   000001 235007                    LDA     1,DL
        48 000065   100000 755100                    STA     0,,PR1

   1079 48 000066   000000 236000 4                  LDQ     LEX_LX_TOP
        48 000067   000006 402007                    MPY     6,DL
        48 000070   000000 471400 43                 LDP1    P_TOKEN
        48 000071   000001 235006 5                  LDA     LEX_LX_STK+1,QL
        48 000072   100001 755100                    STA     1,,PR1

   1081 48 000073   000002 235006 5                  LDA     LEX_LX_STK+2,QL
        48 000074   100002 755100                    STA     2,,PR1

   1083 48 000075   000000 235000 44                 LDA     SYMSTART
        48 000076   200004 755100                    STA     SYMBOL_START,,AUTO

   1084 48 000077   000000 236000 45                 LDQ     LASTCOLUMN
PL6.E3A0      #005=LEX_SEMANTICS File=LR_NRGRAM.:Z8A6TSI                         SAT 08/09/97 09:41 Page:268
        48 000100   200004 136100                    SBLQ    SYMBOL_START,,AUTO
        48 000101   000001 036007                    ADLQ    1,DL
        48 000102   200005 756100                    STQ     SYMLEN,,AUTO

   1085 48 000103   000000 620006                    EAX0    0,QL
        48 000104   040100 100445                    MLR     fill='040'O
        48 000105   000000 000010 33                 ADSC9   INSTR,A                  cn=0,n=*X0
        48 000106   200006 000214                    ADSC9   TEXTCHAR,,AUTO           cn=0,n=140
        48 000107   200005 236100                    LDQ     SYMLEN,,AUTO
        48 000110   000214 116007                    CMPQ    140,DL
        48 000111   000117 605000 48                 TPL     s:1087
        48 000112   777563 620006                    EAX0    -141,QL
        48 000113   777777 660003                    ERX0    -1,DU
        48 000114   040146 100400                    MLR     fill='040'O
        48 000115   000000 000007 47                 ADSC9   0                        cn=0,n=7
        48 000116   200006 000010                    ADSC9   TEXTCHAR,Q,AUTO          cn=0,n=*X0

   1087 48 000117   000013 036007                    ADLQ    11,DL
        48 000120   000004 506007                    DIV     4,DL
        48 000121   200055 756100                    STQ     NEWLEN,,AUTO

   1088 48 000122   200055 633500                    EPPR3   NEWLEN,,AUTO
        48 000123   200057 453500                    STP3    NEWLEN+2,,AUTO
        48 000124   200051 634500                    EPPR4   NEW$,,AUTO
        48 000125   200056 454500                    STP4    NEWLEN+1,,AUTO
        48 000126   200056 630500                    EPPR0   NEWLEN+1,,AUTO
        48 000127   000001 631400 49                 EPPR1   1
        48 000130   000000 701000 xent               TSX1    GETNEW
        48 000131   000000 011000                    NOP     0

   1089 48 000132   200051 470500                    LDP0    NEW$,,AUTO
        48 000133   200005 235100                    LDA     SYMLEN,,AUTO
        48 000134   000002 035007                    ADLA    2,DL
        48 000135   000000 755100                    STA     0,,PR0

   1090 48 000136   200051 470500                    LDP0    NEW$,,AUTO
        48 000137   000000 720100                    LXL0    0,,PR0
PL6.E3A0      #005=LEX_SEMANTICS File=LR_NRGRAM.:Z8A6TSI                         SAT 08/09/97 09:41 Page:269
        48 000140   000000 621005                    EAX1    0,AL
        48 000141   040140 100540                    MLR     fill='040'O
        48 000142   200006 000011                    ADSC9   TEXTCHAR,,AUTO           cn=0,n=*X1
        48 000143   000001 000010                    ADSC9   1,,PR0                   cn=0,n=*X0

   1091 48 000144   200051 236100                    LDQ     NEW$,,AUTO
        48 000145   000000 470400 43                 LDP0    P_TOKEN
        48 000146   000003 756100                    STQ     3,,PR0
        48 000147   002562 710000 48                 TRA     s:1572

      657     1093    2   CASE(%NUMERIC_STRING_ACTION);

      658     1094           %MAKE_LX_ITEM(TYPE=%TERM_NUMERIC_STRING);

   1095 48 000150   000000 236000 49                 LDQ     0
        48 000151   000000 471400 43                 LDP1    P_TOKEN
        48 000152   100004 756100                    STQ     4,,PR1

   1096 48 000153   000002 235007                    LDA     2,DL
        48 000154   100000 755100                    STA     0,,PR1

   1097 48 000155   000000 236000 4                  LDQ     LEX_LX_TOP
        48 000156   000006 402007                    MPY     6,DL
        48 000157   000000 471400 43                 LDP1    P_TOKEN
        48 000160   000001 235006 5                  LDA     LEX_LX_STK+1,QL
        48 000161   100001 755100                    STA     1,,PR1

   1099 48 000162   000002 235006 5                  LDA     LEX_LX_STK+2,QL
        48 000163   100002 755100                    STA     2,,PR1

   1101 48 000164   000000 235000 44                 LDA     SYMSTART
        48 000165   200004 755100                    STA     SYMBOL_START,,AUTO

   1102 48 000166   000000 236000 45                 LDQ     LASTCOLUMN
        48 000167   200004 136100                    SBLQ    SYMBOL_START,,AUTO
        48 000170   000001 036007                    ADLQ    1,DL
        48 000171   200005 756100                    STQ     SYMLEN,,AUTO
PL6.E3A0      #005=LEX_SEMANTICS File=LR_NRGRAM.:Z8A6TSI                         SAT 08/09/97 09:41 Page:270

   1103 48 000172   000000 620006                    EAX0    0,QL
        48 000173   040100 100445                    MLR     fill='040'O
        48 000174   000000 000010 33                 ADSC9   INSTR,A                  cn=0,n=*X0
        48 000175   200006 000214                    ADSC9   TEXTCHAR,,AUTO           cn=0,n=140
        48 000176   200005 236100                    LDQ     SYMLEN,,AUTO
        48 000177   000214 116007                    CMPQ    140,DL
        48 000200   000206 605000 48                 TPL     s:1105
        48 000201   777563 620006                    EAX0    -141,QL
        48 000202   777777 660003                    ERX0    -1,DU
        48 000203   040146 100400                    MLR     fill='040'O
        48 000204   000000 000007 47                 ADSC9   0                        cn=0,n=7
        48 000205   200006 000010                    ADSC9   TEXTCHAR,Q,AUTO          cn=0,n=*X0

   1105 48 000206   000013 036007                    ADLQ    11,DL
        48 000207   000004 506007                    DIV     4,DL
        48 000210   200055 756100                    STQ     NEWLEN,,AUTO

   1106 48 000211   200055 633500                    EPPR3   NEWLEN,,AUTO
        48 000212   200057 453500                    STP3    NEWLEN+2,,AUTO
        48 000213   200051 634500                    EPPR4   NEW$,,AUTO
        48 000214   200056 454500                    STP4    NEWLEN+1,,AUTO
        48 000215   200056 630500                    EPPR0   NEWLEN+1,,AUTO
        48 000216   000001 631400 49                 EPPR1   1
        48 000217   000000 701000 xent               TSX1    GETNEW
        48 000220   000000 011000                    NOP     0

   1107 48 000221   200051 470500                    LDP0    NEW$,,AUTO
        48 000222   200005 235100                    LDA     SYMLEN,,AUTO
        48 000223   000002 035007                    ADLA    2,DL
        48 000224   000000 755100                    STA     0,,PR0

   1108 48 000225   200051 470500                    LDP0    NEW$,,AUTO
        48 000226   000000 720100                    LXL0    0,,PR0
        48 000227   000000 621005                    EAX1    0,AL
        48 000230   040140 100540                    MLR     fill='040'O
        48 000231   200006 000011                    ADSC9   TEXTCHAR,,AUTO           cn=0,n=*X1
PL6.E3A0      #005=LEX_SEMANTICS File=LR_NRGRAM.:Z8A6TSI                         SAT 08/09/97 09:41 Page:271
        48 000232   000001 000010                    ADSC9   1,,PR0                   cn=0,n=*X0

   1109 48 000233   200051 236100                    LDQ     NEW$,,AUTO
        48 000234   000000 470400 43                 LDP0    P_TOKEN
        48 000235   000003 756100                    STQ     3,,PR0
        48 000236   002562 710000 48                 TRA     s:1572

      659     1111    2   CASE(%ALPHANUMERIC_STRING_ACTION);

      660     1112           %MAKE_LX_ITEM(TYPE=%TERM_ALPHANUMERIC_STRING);

   1113 48 000237   000000 236000 49                 LDQ     0
        48 000240   000000 471400 43                 LDP1    P_TOKEN
        48 000241   100004 756100                    STQ     4,,PR1

   1114 48 000242   000003 235007                    LDA     3,DL
        48 000243   100000 755100                    STA     0,,PR1

   1115 48 000244   000000 236000 4                  LDQ     LEX_LX_TOP
        48 000245   000006 402007                    MPY     6,DL
        48 000246   000000 471400 43                 LDP1    P_TOKEN
        48 000247   000001 235006 5                  LDA     LEX_LX_STK+1,QL
        48 000250   100001 755100                    STA     1,,PR1

   1117 48 000251   000002 235006 5                  LDA     LEX_LX_STK+2,QL
        48 000252   100002 755100                    STA     2,,PR1

   1119 48 000253   000000 235000 44                 LDA     SYMSTART
        48 000254   200004 755100                    STA     SYMBOL_START,,AUTO

   1120 48 000255   000000 236000 45                 LDQ     LASTCOLUMN
        48 000256   200004 136100                    SBLQ    SYMBOL_START,,AUTO
        48 000257   000001 036007                    ADLQ    1,DL
        48 000260   200005 756100                    STQ     SYMLEN,,AUTO

   1121 48 000261   000000 620006                    EAX0    0,QL
        48 000262   040100 100445                    MLR     fill='040'O
PL6.E3A0      #005=LEX_SEMANTICS File=LR_NRGRAM.:Z8A6TSI                         SAT 08/09/97 09:41 Page:272
        48 000263   000000 000010 33                 ADSC9   INSTR,A                  cn=0,n=*X0
        48 000264   200006 000214                    ADSC9   TEXTCHAR,,AUTO           cn=0,n=140
        48 000265   200005 236100                    LDQ     SYMLEN,,AUTO
        48 000266   000214 116007                    CMPQ    140,DL
        48 000267   000275 605000 48                 TPL     s:1123
        48 000270   777563 620006                    EAX0    -141,QL
        48 000271   777777 660003                    ERX0    -1,DU
        48 000272   040146 100400                    MLR     fill='040'O
        48 000273   000000 000007 47                 ADSC9   0                        cn=0,n=7
        48 000274   200006 000010                    ADSC9   TEXTCHAR,Q,AUTO          cn=0,n=*X0

   1123 48 000275   000013 036007                    ADLQ    11,DL
        48 000276   000004 506007                    DIV     4,DL
        48 000277   200055 756100                    STQ     NEWLEN,,AUTO

   1124 48 000300   200055 633500                    EPPR3   NEWLEN,,AUTO
        48 000301   200057 453500                    STP3    NEWLEN+2,,AUTO
        48 000302   200051 634500                    EPPR4   NEW$,,AUTO
        48 000303   200056 454500                    STP4    NEWLEN+1,,AUTO
        48 000304   200056 630500                    EPPR0   NEWLEN+1,,AUTO
        48 000305   000001 631400 49                 EPPR1   1
        48 000306   000000 701000 xent               TSX1    GETNEW
        48 000307   000000 011000                    NOP     0

   1125 48 000310   200051 470500                    LDP0    NEW$,,AUTO
        48 000311   200005 235100                    LDA     SYMLEN,,AUTO
        48 000312   000002 035007                    ADLA    2,DL
        48 000313   000000 755100                    STA     0,,PR0

   1126 48 000314   200051 470500                    LDP0    NEW$,,AUTO
        48 000315   000000 720100                    LXL0    0,,PR0
        48 000316   000000 621005                    EAX1    0,AL
        48 000317   040140 100540                    MLR     fill='040'O
        48 000320   200006 000011                    ADSC9   TEXTCHAR,,AUTO           cn=0,n=*X1
        48 000321   000001 000010                    ADSC9   1,,PR0                   cn=0,n=*X0

   1127 48 000322   200051 236100                    LDQ     NEW$,,AUTO
PL6.E3A0      #005=LEX_SEMANTICS File=LR_NRGRAM.:Z8A6TSI                         SAT 08/09/97 09:41 Page:273
        48 000323   000000 470400 43                 LDP0    P_TOKEN
        48 000324   000003 756100                    STQ     3,,PR0
        48 000325   002562 710000 48                 TRA     s:1572

      661     1129    2   CASE(%NONTERMINAL_ACTION);

      662     1130           %MAKE_LX_ITEM(TYPE=%TERM_VARIABLE);

   1131 48 000326   000000 236000 49                 LDQ     0
        48 000327   000000 471400 43                 LDP1    P_TOKEN
        48 000330   100004 756100                    STQ     4,,PR1

   1132 48 000331   000004 235007                    LDA     4,DL
        48 000332   100000 755100                    STA     0,,PR1

   1133 48 000333   000000 236000 4                  LDQ     LEX_LX_TOP
        48 000334   000006 402007                    MPY     6,DL
        48 000335   000000 471400 43                 LDP1    P_TOKEN
        48 000336   000001 235006 5                  LDA     LEX_LX_STK+1,QL
        48 000337   100001 755100                    STA     1,,PR1

   1135 48 000340   000002 235006 5                  LDA     LEX_LX_STK+2,QL
        48 000341   100002 755100                    STA     2,,PR1

   1137 48 000342   000000 235000 44                 LDA     SYMSTART
        48 000343   200004 755100                    STA     SYMBOL_START,,AUTO

   1138 48 000344   000000 236000 45                 LDQ     LASTCOLUMN
        48 000345   200004 136100                    SBLQ    SYMBOL_START,,AUTO
        48 000346   000001 036007                    ADLQ    1,DL
        48 000347   200005 756100                    STQ     SYMLEN,,AUTO

   1139 48 000350   000000 620006                    EAX0    0,QL
        48 000351   040100 100445                    MLR     fill='040'O
        48 000352   000000 000010 33                 ADSC9   INSTR,A                  cn=0,n=*X0
        48 000353   200006 000214                    ADSC9   TEXTCHAR,,AUTO           cn=0,n=140
        48 000354   200005 236100                    LDQ     SYMLEN,,AUTO
PL6.E3A0      #005=LEX_SEMANTICS File=LR_NRGRAM.:Z8A6TSI                         SAT 08/09/97 09:41 Page:274
        48 000355   000214 116007                    CMPQ    140,DL
        48 000356   000364 605000 48                 TPL     s:1141
        48 000357   777563 620006                    EAX0    -141,QL
        48 000360   777777 660003                    ERX0    -1,DU
        48 000361   040146 100400                    MLR     fill='040'O
        48 000362   000000 000007 47                 ADSC9   0                        cn=0,n=7
        48 000363   200006 000010                    ADSC9   TEXTCHAR,Q,AUTO          cn=0,n=*X0

   1141 48 000364   000013 036007                    ADLQ    11,DL
        48 000365   000004 506007                    DIV     4,DL
        48 000366   200055 756100                    STQ     NEWLEN,,AUTO

   1142 48 000367   200055 633500                    EPPR3   NEWLEN,,AUTO
        48 000370   200057 453500                    STP3    NEWLEN+2,,AUTO
        48 000371   200051 634500                    EPPR4   NEW$,,AUTO
        48 000372   200056 454500                    STP4    NEWLEN+1,,AUTO
        48 000373   200056 630500                    EPPR0   NEWLEN+1,,AUTO
        48 000374   000001 631400 49                 EPPR1   1
        48 000375   000000 701000 xent               TSX1    GETNEW
        48 000376   000000 011000                    NOP     0

   1143 48 000377   200051 470500                    LDP0    NEW$,,AUTO
        48 000400   200005 235100                    LDA     SYMLEN,,AUTO
        48 000401   000002 035007                    ADLA    2,DL
        48 000402   000000 755100                    STA     0,,PR0

   1144 48 000403   200051 470500                    LDP0    NEW$,,AUTO
        48 000404   000000 720100                    LXL0    0,,PR0
        48 000405   000000 621005                    EAX1    0,AL
        48 000406   040140 100540                    MLR     fill='040'O
        48 000407   200006 000011                    ADSC9   TEXTCHAR,,AUTO           cn=0,n=*X1
        48 000410   000001 000010                    ADSC9   1,,PR0                   cn=0,n=*X0

   1145 48 000411   200051 236100                    LDQ     NEW$,,AUTO
        48 000412   000000 470400 43                 LDP0    P_TOKEN
        48 000413   000003 756100                    STQ     3,,PR0
        48 000414   002562 710000 48                 TRA     s:1572
PL6.E3A0      #005=LEX_SEMANTICS File=LR_NRGRAM.:Z8A6TSI                         SAT 08/09/97 09:41 Page:275

      663     1147    2   CASE(%EOF_NT_ACTION);

      664     1148           %MAKE_LX_ITEM_NO_DNT(TYPE=%TERM_VARIABLE);

   1149 48 000415   000000 236000 49                 LDQ     0
        48 000416   000000 471400 43                 LDP1    P_TOKEN
        48 000417   100004 756100                    STQ     4,,PR1

   1150 48 000420   100003 756100                    STQ     3,,PR1

   1151 48 000421   000000 236000 4                  LDQ     LEX_LX_TOP
        48 000422   000006 402007                    MPY     6,DL
        48 000423   000001 235006 5                  LDA     LEX_LX_STK+1,QL
        48 000424   100001 755100                    STA     1,,PR1

   1152 48 000425   000002 235006 5                  LDA     LEX_LX_STK+2,QL
        48 000426   100002 755100                    STA     2,,PR1

   1153 48 000427   000004 235007                    LDA     4,DL
        48 000430   100000 755100                    STA     0,,PR1

      665     1155           %MAKE_DNT(D="'=END_OF_FILE='");

   1156 48 000431   000015 236007                    LDQ     13,DL
        48 000432   200005 756100                    STQ     SYMLEN,,AUTO

   1157 48 000433   040100 100400                    MLR     fill='040'O
        48 000434   000002 000015 47                 ADSC9   2                        cn=0,n=13
        48 000435   200006 000015                    ADSC9   TEXTCHAR,,AUTO           cn=0,n=13
        48 000436   040100 100400                    MLR     fill='040'O
        48 000437   000000 000007 47                 ADSC9   0                        cn=0,n=7
        48 000440   200011 200177                    ADSC9   TEXTCHAR+3,,AUTO         cn=1,n=127

   1158 48 000441   200005 236100                    LDQ     SYMLEN,,AUTO
        48 000442   000013 036007                    ADLQ    11,DL
        48 000443   000004 506007                    DIV     4,DL
PL6.E3A0      #005=LEX_SEMANTICS File=LR_NRGRAM.:Z8A6TSI                         SAT 08/09/97 09:41 Page:276
        48 000444   200055 756100                    STQ     NEWLEN,,AUTO

   1159 48 000445   200055 630500                    EPPR0   NEWLEN,,AUTO
        48 000446   200057 450500                    STP0    NEWLEN+2,,AUTO
        48 000447   200051 631500                    EPPR1   NEW$,,AUTO
        48 000450   200056 451500                    STP1    NEWLEN+1,,AUTO
        48 000451   200056 630500                    EPPR0   NEWLEN+1,,AUTO
        48 000452   000001 631400 49                 EPPR1   1
        48 000453   000000 701000 xent               TSX1    GETNEW
        48 000454   000000 011000                    NOP     0

   1160 48 000455   200051 470500                    LDP0    NEW$,,AUTO
        48 000456   200005 235100                    LDA     SYMLEN,,AUTO
        48 000457   000002 035007                    ADLA    2,DL
        48 000460   000000 755100                    STA     0,,PR0

   1161 48 000461   200051 470500                    LDP0    NEW$,,AUTO
        48 000462   000000 720100                    LXL0    0,,PR0
        48 000463   000000 621005                    EAX1    0,AL
        48 000464   040140 100540                    MLR     fill='040'O
        48 000465   200006 000011                    ADSC9   TEXTCHAR,,AUTO           cn=0,n=*X1
        48 000466   000001 000010                    ADSC9   1,,PR0                   cn=0,n=*X0

   1162 48 000467   200051 236100                    LDQ     NEW$,,AUTO
        48 000470   000000 470400 43                 LDP0    P_TOKEN
        48 000471   000003 756100                    STQ     3,,PR0
        48 000472   002562 710000 48                 TRA     s:1572

      666     1164    2   CASE(%BOF_NT_ACTION);

      667     1165           %MAKE_LX_ITEM_NO_DNT(TYPE=%TERM_VARIABLE);

   1166 48 000473   000000 236000 49                 LDQ     0
        48 000474   000000 471400 43                 LDP1    P_TOKEN
        48 000475   100004 756100                    STQ     4,,PR1

   1167 48 000476   100003 756100                    STQ     3,,PR1
PL6.E3A0      #005=LEX_SEMANTICS File=LR_NRGRAM.:Z8A6TSI                         SAT 08/09/97 09:41 Page:277

   1168 48 000477   000000 236000 4                  LDQ     LEX_LX_TOP
        48 000500   000006 402007                    MPY     6,DL
        48 000501   000001 235006 5                  LDA     LEX_LX_STK+1,QL
        48 000502   100001 755100                    STA     1,,PR1

   1169 48 000503   000002 235006 5                  LDA     LEX_LX_STK+2,QL
        48 000504   100002 755100                    STA     2,,PR1

   1170 48 000505   000004 235007                    LDA     4,DL
        48 000506   100000 755100                    STA     0,,PR1

      668     1172           %MAKE_DNT(D="'=BEGINNING_OF_FILE='");

   1173 48 000507   000023 236007                    LDQ     19,DL
        48 000510   200005 756100                    STQ     SYMLEN,,AUTO

   1174 48 000511   040100 100400                    MLR     fill='040'O
        48 000512   000006 000023 47                 ADSC9   6                        cn=0,n=19
        48 000513   200006 000023                    ADSC9   TEXTCHAR,,AUTO           cn=0,n=19
        48 000514   040100 100400                    MLR     fill='040'O
        48 000515   000000 000007 47                 ADSC9   0                        cn=0,n=7
        48 000516   200012 600171                    ADSC9   TEXTCHAR+4,,AUTO         cn=3,n=121

   1175 48 000517   200005 236100                    LDQ     SYMLEN,,AUTO
        48 000520   000013 036007                    ADLQ    11,DL
        48 000521   000004 506007                    DIV     4,DL
        48 000522   200055 756100                    STQ     NEWLEN,,AUTO

   1176 48 000523   200055 630500                    EPPR0   NEWLEN,,AUTO
        48 000524   200057 450500                    STP0    NEWLEN+2,,AUTO
        48 000525   200051 631500                    EPPR1   NEW$,,AUTO
        48 000526   200056 451500                    STP1    NEWLEN+1,,AUTO
        48 000527   200056 630500                    EPPR0   NEWLEN+1,,AUTO
        48 000530   000001 631400 49                 EPPR1   1
        48 000531   000000 701000 xent               TSX1    GETNEW
        48 000532   000000 011000                    NOP     0
PL6.E3A0      #005=LEX_SEMANTICS File=LR_NRGRAM.:Z8A6TSI                         SAT 08/09/97 09:41 Page:278

   1177 48 000533   200051 470500                    LDP0    NEW$,,AUTO
        48 000534   200005 235100                    LDA     SYMLEN,,AUTO
        48 000535   000002 035007                    ADLA    2,DL
        48 000536   000000 755100                    STA     0,,PR0

   1178 48 000537   200051 470500                    LDP0    NEW$,,AUTO
        48 000540   000000 720100                    LXL0    0,,PR0
        48 000541   000000 621005                    EAX1    0,AL
        48 000542   040140 100540                    MLR     fill='040'O
        48 000543   200006 000011                    ADSC9   TEXTCHAR,,AUTO           cn=0,n=*X1
        48 000544   000001 000010                    ADSC9   1,,PR0                   cn=0,n=*X0

   1179 48 000545   200051 236100                    LDQ     NEW$,,AUTO
        48 000546   000000 470400 43                 LDP0    P_TOKEN
        48 000547   000003 756100                    STQ     3,,PR0
        48 000550   002562 710000 48                 TRA     s:1572

      669     1181    2   CASE(%EOL_NT_ACTION);

      670     1182           %MAKE_LX_ITEM_NO_DNT(TYPE=%TERM_VARIABLE);

   1183 48 000551   000000 236000 49                 LDQ     0
        48 000552   000000 471400 43                 LDP1    P_TOKEN
        48 000553   100004 756100                    STQ     4,,PR1

   1184 48 000554   100003 756100                    STQ     3,,PR1

   1185 48 000555   000000 236000 4                  LDQ     LEX_LX_TOP
        48 000556   000006 402007                    MPY     6,DL
        48 000557   000001 235006 5                  LDA     LEX_LX_STK+1,QL
        48 000560   100001 755100                    STA     1,,PR1

   1186 48 000561   000002 235006 5                  LDA     LEX_LX_STK+2,QL
        48 000562   100002 755100                    STA     2,,PR1

   1187 48 000563   000004 235007                    LDA     4,DL
PL6.E3A0      #005=LEX_SEMANTICS File=LR_NRGRAM.:Z8A6TSI                         SAT 08/09/97 09:41 Page:279
        48 000564   100000 755100                    STA     0,,PR1

      671     1189           %MAKE_DNT(D="'=END_OF_LINE='");

   1190 48 000565   000015 236007                    LDQ     13,DL
        48 000566   200005 756100                    STQ     SYMLEN,,AUTO

   1191 48 000567   040100 100400                    MLR     fill='040'O
        48 000570   000013 000015 47                 ADSC9   11                       cn=0,n=13
        48 000571   200006 000015                    ADSC9   TEXTCHAR,,AUTO           cn=0,n=13
        48 000572   040100 100400                    MLR     fill='040'O
        48 000573   000000 000007 47                 ADSC9   0                        cn=0,n=7
        48 000574   200011 200177                    ADSC9   TEXTCHAR+3,,AUTO         cn=1,n=127

   1192 48 000575   200005 236100                    LDQ     SYMLEN,,AUTO
        48 000576   000013 036007                    ADLQ    11,DL
        48 000577   000004 506007                    DIV     4,DL
        48 000600   200055 756100                    STQ     NEWLEN,,AUTO

   1193 48 000601   200055 630500                    EPPR0   NEWLEN,,AUTO
        48 000602   200057 450500                    STP0    NEWLEN+2,,AUTO
        48 000603   200051 631500                    EPPR1   NEW$,,AUTO
        48 000604   200056 451500                    STP1    NEWLEN+1,,AUTO
        48 000605   200056 630500                    EPPR0   NEWLEN+1,,AUTO
        48 000606   000001 631400 49                 EPPR1   1
        48 000607   000000 701000 xent               TSX1    GETNEW
        48 000610   000000 011000                    NOP     0

   1194 48 000611   200051 470500                    LDP0    NEW$,,AUTO
        48 000612   200005 235100                    LDA     SYMLEN,,AUTO
        48 000613   000002 035007                    ADLA    2,DL
        48 000614   000000 755100                    STA     0,,PR0

   1195 48 000615   200051 470500                    LDP0    NEW$,,AUTO
        48 000616   000000 720100                    LXL0    0,,PR0
        48 000617   000000 621005                    EAX1    0,AL
        48 000620   040140 100540                    MLR     fill='040'O
PL6.E3A0      #005=LEX_SEMANTICS File=LR_NRGRAM.:Z8A6TSI                         SAT 08/09/97 09:41 Page:280
        48 000621   200006 000011                    ADSC9   TEXTCHAR,,AUTO           cn=0,n=*X1
        48 000622   000001 000010                    ADSC9   1,,PR0                   cn=0,n=*X0

   1196 48 000623   200051 236100                    LDQ     NEW$,,AUTO
        48 000624   000000 470400 43                 LDP0    P_TOKEN
        48 000625   000003 756100                    STQ     3,,PR0
        48 000626   002562 710000 48                 TRA     s:1572

      672     1198    2   CASE(%SEMANTIC_ACTION_ACTION);

      673     1199           %MAKE_LX_ITEM(TYPE=%TERM_SEMANTIC_ACTION);

   1200 48 000627   000000 236000 49                 LDQ     0
        48 000630   000000 471400 43                 LDP1    P_TOKEN
        48 000631   100004 756100                    STQ     4,,PR1

   1201 48 000632   000005 235007                    LDA     5,DL
        48 000633   100000 755100                    STA     0,,PR1

   1202 48 000634   000000 236000 4                  LDQ     LEX_LX_TOP
        48 000635   000006 402007                    MPY     6,DL
        48 000636   000000 471400 43                 LDP1    P_TOKEN
        48 000637   000001 235006 5                  LDA     LEX_LX_STK+1,QL
        48 000640   100001 755100                    STA     1,,PR1

   1204 48 000641   000002 235006 5                  LDA     LEX_LX_STK+2,QL
        48 000642   100002 755100                    STA     2,,PR1

   1206 48 000643   000000 235000 44                 LDA     SYMSTART
        48 000644   200004 755100                    STA     SYMBOL_START,,AUTO

   1207 48 000645   000000 236000 45                 LDQ     LASTCOLUMN
        48 000646   200004 136100                    SBLQ    SYMBOL_START,,AUTO
        48 000647   000001 036007                    ADLQ    1,DL
        48 000650   200005 756100                    STQ     SYMLEN,,AUTO

   1208 48 000651   000000 620006                    EAX0    0,QL
PL6.E3A0      #005=LEX_SEMANTICS File=LR_NRGRAM.:Z8A6TSI                         SAT 08/09/97 09:41 Page:281
        48 000652   040100 100445                    MLR     fill='040'O
        48 000653   000000 000010 33                 ADSC9   INSTR,A                  cn=0,n=*X0
        48 000654   200006 000214                    ADSC9   TEXTCHAR,,AUTO           cn=0,n=140
        48 000655   200005 236100                    LDQ     SYMLEN,,AUTO
        48 000656   000214 116007                    CMPQ    140,DL
        48 000657   000665 605000 48                 TPL     s:1210
        48 000660   777563 620006                    EAX0    -141,QL
        48 000661   777777 660003                    ERX0    -1,DU
        48 000662   040146 100400                    MLR     fill='040'O
        48 000663   000000 000007 47                 ADSC9   0                        cn=0,n=7
        48 000664   200006 000010                    ADSC9   TEXTCHAR,Q,AUTO          cn=0,n=*X0

   1210 48 000665   000013 036007                    ADLQ    11,DL
        48 000666   000004 506007                    DIV     4,DL
        48 000667   200055 756100                    STQ     NEWLEN,,AUTO

   1211 48 000670   200055 633500                    EPPR3   NEWLEN,,AUTO
        48 000671   200057 453500                    STP3    NEWLEN+2,,AUTO
        48 000672   200051 634500                    EPPR4   NEW$,,AUTO
        48 000673   200056 454500                    STP4    NEWLEN+1,,AUTO
        48 000674   200056 630500                    EPPR0   NEWLEN+1,,AUTO
        48 000675   000001 631400 49                 EPPR1   1
        48 000676   000000 701000 xent               TSX1    GETNEW
        48 000677   000000 011000                    NOP     0

   1212 48 000700   200051 470500                    LDP0    NEW$,,AUTO
        48 000701   200005 235100                    LDA     SYMLEN,,AUTO
        48 000702   000002 035007                    ADLA    2,DL
        48 000703   000000 755100                    STA     0,,PR0

   1213 48 000704   200051 470500                    LDP0    NEW$,,AUTO
        48 000705   000000 720100                    LXL0    0,,PR0
        48 000706   000000 621005                    EAX1    0,AL
        48 000707   040140 100540                    MLR     fill='040'O
        48 000710   200006 000011                    ADSC9   TEXTCHAR,,AUTO           cn=0,n=*X1
        48 000711   000001 000010                    ADSC9   1,,PR0                   cn=0,n=*X0

PL6.E3A0      #005=LEX_SEMANTICS File=LR_NRGRAM.:Z8A6TSI                         SAT 08/09/97 09:41 Page:282
   1214 48 000712   200051 236100                    LDQ     NEW$,,AUTO
        48 000713   000000 470400 43                 LDP0    P_TOKEN
        48 000714   000003 756100                    STQ     3,,PR0

      674     1216    2      IF SYMLEN > 32 /* DON'T FORGET { AND } */

   1216 48 000715   200005 235100                    LDA     SYMLEN,,AUTO
        48 000716   000040 115007                    CMPA    32,DL
        48 000717   002562 604400 48                 TMOZ    s:1572

      675     1217    2      THEN CALL DIAG(6,
              1217               'ERROR => Semantic action name is greater than 30 characters : %%',

   1217 48 000720   000003 471500                    LDP1    3,,PR0
        48 000721   100001 633500                    EPPR3   1,,PR1
        48 000722   200060 453500                    STP3    NEWLEN+3,,AUTO
        48 000723   000004 237000 49                 LDAQ    4
        48 000724   200056 757100                    STAQ    NEWLEN+1,,AUTO
        48 000725   200056 630500                    EPPR0   NEWLEN+1,,AUTO
        48 000726   000002 631400 49                 EPPR1   2
        48 000727   000000 701000 xent               TSX1    DIAG
        48 000730   000000 011000                    NOP     0
        48 000731   002562 710000 48                 TRA     s:1572

      676     1218    2                     P_TOKEN->LX_ITEM.DNTPTR->DNT.TEXT.NAME);
      677     1219    2   CASE(%ALTERNATION_ACTION);

      678     1220    2      LASTCOLUMN = LEX_LX_STK.COLUMN(LEX_LX_TOP) - 1;

   1220 48 000732   000000 236000 4                  LDQ     LEX_LX_TOP
        48 000733   000006 402007                    MPY     6,DL
        48 000734   000002 235006 5                  LDA     LEX_LX_STK+2,QL
        48 000735   000001 135007                    SBLA    1,DL
        48 000736   000000 755000 45                 STA     LASTCOLUMN

      679     1221           %MAKE_LX_ITEM(TYPE=%TERM_EXCLAMATION_POINT);

PL6.E3A0      #005=LEX_SEMANTICS File=LR_NRGRAM.:Z8A6TSI                         SAT 08/09/97 09:41 Page:283
   1222 48 000737   000000 236000 49                 LDQ     0
        48 000740   000000 471400 43                 LDP1    P_TOKEN
        48 000741   100004 756100                    STQ     4,,PR1

   1223 48 000742   000006 235007                    LDA     6,DL
        48 000743   100000 755100                    STA     0,,PR1

   1224 48 000744   000000 236000 4                  LDQ     LEX_LX_TOP
        48 000745   000006 402007                    MPY     6,DL
        48 000746   000000 471400 43                 LDP1    P_TOKEN
        48 000747   000001 235006 5                  LDA     LEX_LX_STK+1,QL
        48 000750   100001 755100                    STA     1,,PR1

   1226 48 000751   000002 235006 5                  LDA     LEX_LX_STK+2,QL
        48 000752   100002 755100                    STA     2,,PR1

   1228 48 000753   000000 235000 44                 LDA     SYMSTART
        48 000754   200004 755100                    STA     SYMBOL_START,,AUTO

   1229 48 000755   000000 236000 45                 LDQ     LASTCOLUMN
        48 000756   200004 136100                    SBLQ    SYMBOL_START,,AUTO
        48 000757   000001 036007                    ADLQ    1,DL
        48 000760   200005 756100                    STQ     SYMLEN,,AUTO

   1230 48 000761   000000 620006                    EAX0    0,QL
        48 000762   040100 100445                    MLR     fill='040'O
        48 000763   000000 000010 33                 ADSC9   INSTR,A                  cn=0,n=*X0
        48 000764   200006 000214                    ADSC9   TEXTCHAR,,AUTO           cn=0,n=140
        48 000765   200005 236100                    LDQ     SYMLEN,,AUTO
        48 000766   000214 116007                    CMPQ    140,DL
        48 000767   000775 605000 48                 TPL     s:1232
        48 000770   777563 620006                    EAX0    -141,QL
        48 000771   777777 660003                    ERX0    -1,DU
        48 000772   040146 100400                    MLR     fill='040'O
        48 000773   000000 000007 47                 ADSC9   0                        cn=0,n=7
        48 000774   200006 000010                    ADSC9   TEXTCHAR,Q,AUTO          cn=0,n=*X0

PL6.E3A0      #005=LEX_SEMANTICS File=LR_NRGRAM.:Z8A6TSI                         SAT 08/09/97 09:41 Page:284
   1232 48 000775   000013 036007                    ADLQ    11,DL
        48 000776   000004 506007                    DIV     4,DL
        48 000777   200055 756100                    STQ     NEWLEN,,AUTO

   1233 48 001000   200055 633500                    EPPR3   NEWLEN,,AUTO
        48 001001   200057 453500                    STP3    NEWLEN+2,,AUTO
        48 001002   200051 634500                    EPPR4   NEW$,,AUTO
        48 001003   200056 454500                    STP4    NEWLEN+1,,AUTO
        48 001004   200056 630500                    EPPR0   NEWLEN+1,,AUTO
        48 001005   000001 631400 49                 EPPR1   1
        48 001006   000000 701000 xent               TSX1    GETNEW
        48 001007   000000 011000                    NOP     0

   1234 48 001010   200051 470500                    LDP0    NEW$,,AUTO
        48 001011   200005 235100                    LDA     SYMLEN,,AUTO
        48 001012   000002 035007                    ADLA    2,DL
        48 001013   000000 755100                    STA     0,,PR0

   1235 48 001014   200051 470500                    LDP0    NEW$,,AUTO
        48 001015   000000 720100                    LXL0    0,,PR0
        48 001016   000000 621005                    EAX1    0,AL
        48 001017   040140 100540                    MLR     fill='040'O
        48 001020   200006 000011                    ADSC9   TEXTCHAR,,AUTO           cn=0,n=*X1
        48 001021   000001 000010                    ADSC9   1,,PR0                   cn=0,n=*X0

   1236 48 001022   200051 236100                    LDQ     NEW$,,AUTO
        48 001023   000000 470400 43                 LDP0    P_TOKEN
        48 001024   000003 756100                    STQ     3,,PR0
        48 001025   002562 710000 48                 TRA     s:1572

      680     1238    2   CASE(%PRODUCES_ACTION);

      681     1239           %MAKE_LX_ITEM(TYPE=%TERM_PRODUCTION_SYMBOL);

   1240 48 001026   000000 236000 49                 LDQ     0
        48 001027   000000 471400 43                 LDP1    P_TOKEN
        48 001030   100004 756100                    STQ     4,,PR1
PL6.E3A0      #005=LEX_SEMANTICS File=LR_NRGRAM.:Z8A6TSI                         SAT 08/09/97 09:41 Page:285

   1241 48 001031   000007 235007                    LDA     7,DL
        48 001032   100000 755100                    STA     0,,PR1

   1242 48 001033   000000 236000 4                  LDQ     LEX_LX_TOP
        48 001034   000006 402007                    MPY     6,DL
        48 001035   000000 471400 43                 LDP1    P_TOKEN
        48 001036   000001 235006 5                  LDA     LEX_LX_STK+1,QL
        48 001037   100001 755100                    STA     1,,PR1

   1244 48 001040   000002 235006 5                  LDA     LEX_LX_STK+2,QL
        48 001041   100002 755100                    STA     2,,PR1

   1246 48 001042   000000 235000 44                 LDA     SYMSTART
        48 001043   200004 755100                    STA     SYMBOL_START,,AUTO

   1247 48 001044   000000 236000 45                 LDQ     LASTCOLUMN
        48 001045   200004 136100                    SBLQ    SYMBOL_START,,AUTO
        48 001046   000001 036007                    ADLQ    1,DL
        48 001047   200005 756100                    STQ     SYMLEN,,AUTO

   1248 48 001050   000000 620006                    EAX0    0,QL
        48 001051   040100 100445                    MLR     fill='040'O
        48 001052   000000 000010 33                 ADSC9   INSTR,A                  cn=0,n=*X0
        48 001053   200006 000214                    ADSC9   TEXTCHAR,,AUTO           cn=0,n=140
        48 001054   200005 236100                    LDQ     SYMLEN,,AUTO
        48 001055   000214 116007                    CMPQ    140,DL
        48 001056   001064 605000 48                 TPL     s:1250
        48 001057   777563 620006                    EAX0    -141,QL
        48 001060   777777 660003                    ERX0    -1,DU
        48 001061   040146 100400                    MLR     fill='040'O
        48 001062   000000 000007 47                 ADSC9   0                        cn=0,n=7
        48 001063   200006 000010                    ADSC9   TEXTCHAR,Q,AUTO          cn=0,n=*X0

   1250 48 001064   000013 036007                    ADLQ    11,DL
        48 001065   000004 506007                    DIV     4,DL
        48 001066   200055 756100                    STQ     NEWLEN,,AUTO
PL6.E3A0      #005=LEX_SEMANTICS File=LR_NRGRAM.:Z8A6TSI                         SAT 08/09/97 09:41 Page:286

   1251 48 001067   200055 633500                    EPPR3   NEWLEN,,AUTO
        48 001070   200057 453500                    STP3    NEWLEN+2,,AUTO
        48 001071   200051 634500                    EPPR4   NEW$,,AUTO
        48 001072   200056 454500                    STP4    NEWLEN+1,,AUTO
        48 001073   200056 630500                    EPPR0   NEWLEN+1,,AUTO
        48 001074   000001 631400 49                 EPPR1   1
        48 001075   000000 701000 xent               TSX1    GETNEW
        48 001076   000000 011000                    NOP     0

   1252 48 001077   200051 470500                    LDP0    NEW$,,AUTO
        48 001100   200005 235100                    LDA     SYMLEN,,AUTO
        48 001101   000002 035007                    ADLA    2,DL
        48 001102   000000 755100                    STA     0,,PR0

   1253 48 001103   200051 470500                    LDP0    NEW$,,AUTO
        48 001104   000000 720100                    LXL0    0,,PR0
        48 001105   000000 621005                    EAX1    0,AL
        48 001106   040140 100540                    MLR     fill='040'O
        48 001107   200006 000011                    ADSC9   TEXTCHAR,,AUTO           cn=0,n=*X1
        48 001110   000001 000010                    ADSC9   1,,PR0                   cn=0,n=*X0

   1254 48 001111   200051 236100                    LDQ     NEW$,,AUTO
        48 001112   000000 470400 43                 LDP0    P_TOKEN
        48 001113   000003 756100                    STQ     3,,PR0
        48 001114   002562 710000 48                 TRA     s:1572

      682     1256    2   CASE(%ERROR_ACTION);

      683     1257           %MAKE_LX_ITEM_NO_DNT(TYPE=%TERM_ERROR_SYMBOL);

   1258 48 001115   000000 236000 49                 LDQ     0
        48 001116   000000 471400 43                 LDP1    P_TOKEN
        48 001117   100004 756100                    STQ     4,,PR1

   1259 48 001120   100003 756100                    STQ     3,,PR1

PL6.E3A0      #005=LEX_SEMANTICS File=LR_NRGRAM.:Z8A6TSI                         SAT 08/09/97 09:41 Page:287
   1260 48 001121   000000 236000 4                  LDQ     LEX_LX_TOP
        48 001122   000006 402007                    MPY     6,DL
        48 001123   000001 235006 5                  LDA     LEX_LX_STK+1,QL
        48 001124   100001 755100                    STA     1,,PR1

   1261 48 001125   000002 235006 5                  LDA     LEX_LX_STK+2,QL
        48 001126   100002 755100                    STA     2,,PR1

   1262 48 001127   000010 235007                    LDA     8,DL
        48 001130   100000 755100                    STA     0,,PR1

      684     1264           %MAKE_DNT(D="'=ERROR='");

   1265 48 001131   000007 236007                    LDQ     7,DL
        48 001132   200005 756100                    STQ     SYMLEN,,AUTO

   1266 48 001133   040100 100400                    MLR     fill='040'O
        48 001134   000037 000007 47                 ADSC9   31                       cn=0,n=7
        48 001135   200006 000007                    ADSC9   TEXTCHAR,,AUTO           cn=0,n=7
        48 001136   040100 100400                    MLR     fill='040'O
        48 001137   000000 000007 47                 ADSC9   0                        cn=0,n=7
        48 001140   200007 600205                    ADSC9   TEXTCHAR+1,,AUTO         cn=3,n=133

   1267 48 001141   200005 236100                    LDQ     SYMLEN,,AUTO
        48 001142   000013 036007                    ADLQ    11,DL
        48 001143   000004 506007                    DIV     4,DL
        48 001144   200055 756100                    STQ     NEWLEN,,AUTO

   1268 48 001145   200055 630500                    EPPR0   NEWLEN,,AUTO
        48 001146   200057 450500                    STP0    NEWLEN+2,,AUTO
        48 001147   200051 631500                    EPPR1   NEW$,,AUTO
        48 001150   200056 451500                    STP1    NEWLEN+1,,AUTO
        48 001151   200056 630500                    EPPR0   NEWLEN+1,,AUTO
        48 001152   000001 631400 49                 EPPR1   1
        48 001153   000000 701000 xent               TSX1    GETNEW
        48 001154   000000 011000                    NOP     0

PL6.E3A0      #005=LEX_SEMANTICS File=LR_NRGRAM.:Z8A6TSI                         SAT 08/09/97 09:41 Page:288
   1269 48 001155   200051 470500                    LDP0    NEW$,,AUTO
        48 001156   200005 235100                    LDA     SYMLEN,,AUTO
        48 001157   000002 035007                    ADLA    2,DL
        48 001160   000000 755100                    STA     0,,PR0

   1270 48 001161   200051 470500                    LDP0    NEW$,,AUTO
        48 001162   000000 720100                    LXL0    0,,PR0
        48 001163   000000 621005                    EAX1    0,AL
        48 001164   040140 100540                    MLR     fill='040'O
        48 001165   200006 000011                    ADSC9   TEXTCHAR,,AUTO           cn=0,n=*X1
        48 001166   000001 000010                    ADSC9   1,,PR0                   cn=0,n=*X0

   1271 48 001167   200051 236100                    LDQ     NEW$,,AUTO
        48 001170   000000 470400 43                 LDP0    P_TOKEN
        48 001171   000003 756100                    STQ     3,,PR0
        48 001172   002562 710000 48                 TRA     s:1572

      685     1273    2   CASE(%EMPTY_ACTION);

      686     1274           %MAKE_LX_ITEM_NO_DNT(TYPE=%TERM_EMPTY_SYMBOL);

   1275 48 001173   000000 236000 49                 LDQ     0
        48 001174   000000 471400 43                 LDP1    P_TOKEN
        48 001175   100004 756100                    STQ     4,,PR1

   1276 48 001176   100003 756100                    STQ     3,,PR1

   1277 48 001177   000000 236000 4                  LDQ     LEX_LX_TOP
        48 001200   000006 402007                    MPY     6,DL
        48 001201   000001 235006 5                  LDA     LEX_LX_STK+1,QL
        48 001202   100001 755100                    STA     1,,PR1

   1278 48 001203   000002 235006 5                  LDA     LEX_LX_STK+2,QL
        48 001204   100002 755100                    STA     2,,PR1

   1279 48 001205   000011 235007                    LDA     9,DL
        48 001206   100000 755100                    STA     0,,PR1
PL6.E3A0      #005=LEX_SEMANTICS File=LR_NRGRAM.:Z8A6TSI                         SAT 08/09/97 09:41 Page:289

      687     1281           %MAKE_DNT(D="'=EMPTY='");

   1282 48 001207   000007 236007                    LDQ     7,DL
        48 001210   200005 756100                    STQ     SYMLEN,,AUTO

   1283 48 001211   040100 100400                    MLR     fill='040'O
        48 001212   000041 000007 47                 ADSC9   33                       cn=0,n=7
        48 001213   200006 000007                    ADSC9   TEXTCHAR,,AUTO           cn=0,n=7
        48 001214   040100 100400                    MLR     fill='040'O
        48 001215   000000 000007 47                 ADSC9   0                        cn=0,n=7
        48 001216   200007 600205                    ADSC9   TEXTCHAR+1,,AUTO         cn=3,n=133

   1284 48 001217   200005 236100                    LDQ     SYMLEN,,AUTO
        48 001220   000013 036007                    ADLQ    11,DL
        48 001221   000004 506007                    DIV     4,DL
        48 001222   200055 756100                    STQ     NEWLEN,,AUTO

   1285 48 001223   200055 630500                    EPPR0   NEWLEN,,AUTO
        48 001224   200057 450500                    STP0    NEWLEN+2,,AUTO
        48 001225   200051 631500                    EPPR1   NEW$,,AUTO
        48 001226   200056 451500                    STP1    NEWLEN+1,,AUTO
        48 001227   200056 630500                    EPPR0   NEWLEN+1,,AUTO
        48 001230   000001 631400 49                 EPPR1   1
        48 001231   000000 701000 xent               TSX1    GETNEW
        48 001232   000000 011000                    NOP     0

   1286 48 001233   200051 470500                    LDP0    NEW$,,AUTO
        48 001234   200005 235100                    LDA     SYMLEN,,AUTO
        48 001235   000002 035007                    ADLA    2,DL
        48 001236   000000 755100                    STA     0,,PR0

   1287 48 001237   200051 470500                    LDP0    NEW$,,AUTO
        48 001240   000000 720100                    LXL0    0,,PR0
        48 001241   000000 621005                    EAX1    0,AL
        48 001242   040140 100540                    MLR     fill='040'O
        48 001243   200006 000011                    ADSC9   TEXTCHAR,,AUTO           cn=0,n=*X1
PL6.E3A0      #005=LEX_SEMANTICS File=LR_NRGRAM.:Z8A6TSI                         SAT 08/09/97 09:41 Page:290
        48 001244   000001 000010                    ADSC9   1,,PR0                   cn=0,n=*X0

   1288 48 001245   200051 236100                    LDQ     NEW$,,AUTO
        48 001246   000000 470400 43                 LDP0    P_TOKEN
        48 001247   000003 756100                    STQ     3,,PR0
        48 001250   002562 710000 48                 TRA     s:1572

      688     1290    2   CASE(%SPECIAL_CHARS_ACTION);

      689     1291    2      LASTCOLUMN = LEX_LX_STK.COLUMN(LEX_LX_TOP) - 1;

   1291 48 001251   000000 236000 4                  LDQ     LEX_LX_TOP
        48 001252   000006 402007                    MPY     6,DL
        48 001253   000002 235006 5                  LDA     LEX_LX_STK+2,QL
        48 001254   000001 135007                    SBLA    1,DL
        48 001255   000000 755000 45                 STA     LASTCOLUMN

      690     1292           %MAKE_LX_ITEM(TYPE=%TERM_SPECIAL_CHAR);

   1293 48 001256   000000 236000 49                 LDQ     0
        48 001257   000000 471400 43                 LDP1    P_TOKEN
        48 001260   100004 756100                    STQ     4,,PR1

   1294 48 001261   000012 235007                    LDA     10,DL
        48 001262   100000 755100                    STA     0,,PR1

   1295 48 001263   000000 236000 4                  LDQ     LEX_LX_TOP
        48 001264   000006 402007                    MPY     6,DL
        48 001265   000000 471400 43                 LDP1    P_TOKEN
        48 001266   000001 235006 5                  LDA     LEX_LX_STK+1,QL
        48 001267   100001 755100                    STA     1,,PR1

   1297 48 001270   000002 235006 5                  LDA     LEX_LX_STK+2,QL
        48 001271   100002 755100                    STA     2,,PR1

   1299 48 001272   000000 235000 44                 LDA     SYMSTART
        48 001273   200004 755100                    STA     SYMBOL_START,,AUTO
PL6.E3A0      #005=LEX_SEMANTICS File=LR_NRGRAM.:Z8A6TSI                         SAT 08/09/97 09:41 Page:291

   1300 48 001274   000000 236000 45                 LDQ     LASTCOLUMN
        48 001275   200004 136100                    SBLQ    SYMBOL_START,,AUTO
        48 001276   000001 036007                    ADLQ    1,DL
        48 001277   200005 756100                    STQ     SYMLEN,,AUTO

   1301 48 001300   000000 620006                    EAX0    0,QL
        48 001301   040100 100445                    MLR     fill='040'O
        48 001302   000000 000010 33                 ADSC9   INSTR,A                  cn=0,n=*X0
        48 001303   200006 000214                    ADSC9   TEXTCHAR,,AUTO           cn=0,n=140
        48 001304   200005 236100                    LDQ     SYMLEN,,AUTO
        48 001305   000214 116007                    CMPQ    140,DL
        48 001306   001314 605000 48                 TPL     s:1303
        48 001307   777563 620006                    EAX0    -141,QL
        48 001310   777777 660003                    ERX0    -1,DU
        48 001311   040146 100400                    MLR     fill='040'O
        48 001312   000000 000007 47                 ADSC9   0                        cn=0,n=7
        48 001313   200006 000010                    ADSC9   TEXTCHAR,Q,AUTO          cn=0,n=*X0

   1303 48 001314   000013 036007                    ADLQ    11,DL
        48 001315   000004 506007                    DIV     4,DL
        48 001316   200055 756100                    STQ     NEWLEN,,AUTO

   1304 48 001317   200055 633500                    EPPR3   NEWLEN,,AUTO
        48 001320   200057 453500                    STP3    NEWLEN+2,,AUTO
        48 001321   200051 634500                    EPPR4   NEW$,,AUTO
        48 001322   200056 454500                    STP4    NEWLEN+1,,AUTO
        48 001323   200056 630500                    EPPR0   NEWLEN+1,,AUTO
        48 001324   000001 631400 49                 EPPR1   1
        48 001325   000000 701000 xent               TSX1    GETNEW
        48 001326   000000 011000                    NOP     0

   1305 48 001327   200051 470500                    LDP0    NEW$,,AUTO
        48 001330   200005 235100                    LDA     SYMLEN,,AUTO
        48 001331   000002 035007                    ADLA    2,DL
        48 001332   000000 755100                    STA     0,,PR0

PL6.E3A0      #005=LEX_SEMANTICS File=LR_NRGRAM.:Z8A6TSI                         SAT 08/09/97 09:41 Page:292
   1306 48 001333   200051 470500                    LDP0    NEW$,,AUTO
        48 001334   000000 720100                    LXL0    0,,PR0
        48 001335   000000 621005                    EAX1    0,AL
        48 001336   040140 100540                    MLR     fill='040'O
        48 001337   200006 000011                    ADSC9   TEXTCHAR,,AUTO           cn=0,n=*X1
        48 001340   000001 000010                    ADSC9   1,,PR0                   cn=0,n=*X0

   1307 48 001341   200051 236100                    LDQ     NEW$,,AUTO
        48 001342   000000 470400 43                 LDP0    P_TOKEN
        48 001343   000003 756100                    STQ     3,,PR0
        48 001344   002562 710000 48                 TRA     s:1572

      691     1309    2   CASE(%QUOTED_STRING_ACTION);

      692     1310           %MAKE_LX_ITEM(TYPE=%TERM_QUOTED_STRING);

   1311 48 001345   000000 236000 49                 LDQ     0
        48 001346   000000 471400 43                 LDP1    P_TOKEN
        48 001347   100004 756100                    STQ     4,,PR1

   1312 48 001350   000013 235007                    LDA     11,DL
        48 001351   100000 755100                    STA     0,,PR1

   1313 48 001352   000000 236000 4                  LDQ     LEX_LX_TOP
        48 001353   000006 402007                    MPY     6,DL
        48 001354   000000 471400 43                 LDP1    P_TOKEN
        48 001355   000001 235006 5                  LDA     LEX_LX_STK+1,QL
        48 001356   100001 755100                    STA     1,,PR1

   1315 48 001357   000002 235006 5                  LDA     LEX_LX_STK+2,QL
        48 001360   100002 755100                    STA     2,,PR1

   1317 48 001361   000000 235000 44                 LDA     SYMSTART
        48 001362   200004 755100                    STA     SYMBOL_START,,AUTO

   1318 48 001363   000000 236000 45                 LDQ     LASTCOLUMN
        48 001364   200004 136100                    SBLQ    SYMBOL_START,,AUTO
PL6.E3A0      #005=LEX_SEMANTICS File=LR_NRGRAM.:Z8A6TSI                         SAT 08/09/97 09:41 Page:293
        48 001365   000001 036007                    ADLQ    1,DL
        48 001366   200005 756100                    STQ     SYMLEN,,AUTO

   1319 48 001367   000000 620006                    EAX0    0,QL
        48 001370   040100 100445                    MLR     fill='040'O
        48 001371   000000 000010 33                 ADSC9   INSTR,A                  cn=0,n=*X0
        48 001372   200006 000214                    ADSC9   TEXTCHAR,,AUTO           cn=0,n=140
        48 001373   200005 236100                    LDQ     SYMLEN,,AUTO
        48 001374   000214 116007                    CMPQ    140,DL
        48 001375   001403 605000 48                 TPL     s:1321
        48 001376   777563 620006                    EAX0    -141,QL
        48 001377   777777 660003                    ERX0    -1,DU
        48 001400   040146 100400                    MLR     fill='040'O
        48 001401   000000 000007 47                 ADSC9   0                        cn=0,n=7
        48 001402   200006 000010                    ADSC9   TEXTCHAR,Q,AUTO          cn=0,n=*X0

   1321 48 001403   000013 036007                    ADLQ    11,DL
        48 001404   000004 506007                    DIV     4,DL
        48 001405   200055 756100                    STQ     NEWLEN,,AUTO

   1322 48 001406   200055 633500                    EPPR3   NEWLEN,,AUTO
        48 001407   200057 453500                    STP3    NEWLEN+2,,AUTO
        48 001410   200051 634500                    EPPR4   NEW$,,AUTO
        48 001411   200056 454500                    STP4    NEWLEN+1,,AUTO
        48 001412   200056 630500                    EPPR0   NEWLEN+1,,AUTO
        48 001413   000001 631400 49                 EPPR1   1
        48 001414   000000 701000 xent               TSX1    GETNEW
        48 001415   000000 011000                    NOP     0

   1323 48 001416   200051 470500                    LDP0    NEW$,,AUTO
        48 001417   200005 235100                    LDA     SYMLEN,,AUTO
        48 001420   000002 035007                    ADLA    2,DL
        48 001421   000000 755100                    STA     0,,PR0

   1324 48 001422   200051 470500                    LDP0    NEW$,,AUTO
        48 001423   000000 720100                    LXL0    0,,PR0
        48 001424   000000 621005                    EAX1    0,AL
PL6.E3A0      #005=LEX_SEMANTICS File=LR_NRGRAM.:Z8A6TSI                         SAT 08/09/97 09:41 Page:294
        48 001425   040140 100540                    MLR     fill='040'O
        48 001426   200006 000011                    ADSC9   TEXTCHAR,,AUTO           cn=0,n=*X1
        48 001427   000001 000010                    ADSC9   1,,PR0                   cn=0,n=*X0

   1325 48 001430   200051 236100                    LDQ     NEW$,,AUTO
        48 001431   000000 470400 43                 LDP0    P_TOKEN
        48 001432   000003 756100                    STQ     3,,PR0
        48 001433   002562 710000 48                 TRA     s:1572

      693     1327    2   CASE(%LIST_ACTION);

      694     1328    2      OPTIONS(LS_OPT) = TRUE;

   1328 48 001434   400000 236003                    LDQ     -131072,DU
        48 001435   000000 256000 31                 ORSQ    OPTIONS

      695     1329           %OUTLINE(S="'============='");

   1331 48 001436   000007 630400 49                 EPPR0   7
        48 001437   000001 631400 49                 EPPR1   1
        48 001440   000000 701000 xent               TSX1    OUT_STR
        48 001441   000000 011000                    NOP     0

   1332 48 001442   000011 631400 49                 EPPR1   9
        48 001443   000000 701000 xent               TSX1    FLUSH
        48 001444   000000 011000                    NOP     0

      696     1335           %OUTLINE(S="'INPUT LISTING'");

   1337 48 001445   000012 630400 49                 EPPR0   10
        48 001446   000001 631400 49                 EPPR1   1
        48 001447   000000 701000 xent               TSX1    OUT_STR
        48 001450   000000 011000                    NOP     0

   1338 48 001451   000011 631400 49                 EPPR1   9
        48 001452   000000 701000 xent               TSX1    FLUSH
        48 001453   000000 011000                    NOP     0
PL6.E3A0      #005=LEX_SEMANTICS File=LR_NRGRAM.:Z8A6TSI                         SAT 08/09/97 09:41 Page:295

      697     1341           %OUTLINE(S="'============='");

   1343 48 001454   000007 630400 49                 EPPR0   7
        48 001455   000001 631400 49                 EPPR1   1
        48 001456   000000 701000 xent               TSX1    OUT_STR
        48 001457   000000 011000                    NOP     0

   1344 48 001460   000011 631400 49                 EPPR1   9
        48 001461   000000 701000 xent               TSX1    FLUSH
        48 001462   000000 011000                    NOP     0

      698     1347           %OUTLINE(S="' '");

   1349 48 001463   000016 630400 49                 EPPR0   14
        48 001464   000001 631400 49                 EPPR1   1
        48 001465   000000 701000 xent               TSX1    OUT_STR
        48 001466   000000 011000                    NOP     0

   1350 48 001467   000011 631400 49                 EPPR1   9
        48 001470   000000 701000 xent               TSX1    FLUSH
        48 001471   000000 011000                    NOP     0

   1351 48 001472   002562 710000 48                 TRA     s:1572

      699     1353    2    CASE(%GRAMMAR);

      700     1354    2      OPTIONS(LG_OPT) = TRUE;

   1354 48 001473   200000 236003                    LDQ     65536,DU
        48 001474   000000 256000 31                 ORSQ    OPTIONS
        48 001475   002562 710000 48                 TRA     s:1572

      701     1355    2   CASE(%CONFIG_ACTION);

      702     1356    2      OPTIONS(CS_OPT) = TRUE;

PL6.E3A0      #005=LEX_SEMANTICS File=LR_NRGRAM.:Z8A6TSI                         SAT 08/09/97 09:41 Page:296
   1356 48 001476   040000 236003                    LDQ     16384,DU
        48 001477   000000 256000 31                 ORSQ    OPTIONS
        48 001500   002562 710000 48                 TRA     s:1572

      703     1357    2   CASE(%STAT_ACTION);

      704     1358    2      OPTIONS(ST_OPT) = TRUE;

   1358 48 001501   002000 236003                    LDQ     1024,DU
        48 001502   000000 256000 31                 ORSQ    OPTIONS
        48 001503   002562 710000 48                 TRA     s:1572

      705     1359    2   CASE(%NOLIST_ACTION);

      706     1360    2      OPTIONS(LS_OPT) = FALSE;

   1360 48 001504   000020 236000 49                 LDQ     16
        48 001505   000000 356000 31                 ANSQ    OPTIONS
        48 001506   002562 710000 48                 TRA     s:1572

      707     1361    2   CASE(%XREF_ACTION);

      708     1362    2      OPTIONS(XREF_OPT) = TRUE;

   1362 48 001507   000200 236003                    LDQ     128,DU
        48 001510   000000 256000 31                 ORSQ    OPTIONS
        48 001511   002562 710000 48                 TRA     s:1572

      709     1363    2   CASE(%ERRORTABLE_ACTION);

      710     1364    2      OPTIONS(ERROR_TABLE_OPT) = TRUE;

   1364 48 001512   000100 236003                    LDQ     64,DU
        48 001513   000000 256000 31                 ORSQ    OPTIONS
        48 001514   002562 710000 48                 TRA     s:1572

      711     1365    2   CASE(%NOREPAIR_ACTION);
PL6.E3A0      #005=LEX_SEMANTICS File=LR_NRGRAM.:Z8A6TSI                         SAT 08/09/97 09:41 Page:297

      712     1366    2      OPTIONS(ERROR_TABLE_OPT) = FALSE;

   1366 48 001515   000021 236000 49                 LDQ     17
        48 001516   000000 356000 31                 ANSQ    OPTIONS
        48 001517   002562 710000 48                 TRA     s:1572

      713     1367    2   CASE(%LCSTRING_ACTION);

      714     1368    2      OPTIONS(ERROR_LIST_S_OPT) = TRUE;

   1368 48 001520   000040 236003                    LDQ     32,DU
        48 001521   000000 256000 31                 ORSQ    OPTIONS
        48 001522   002562 710000 48                 TRA     s:1572

      715     1369    2   CASE(%LCPREFIX_ACTION);

      716     1370    2      OPTIONS(ERROR_LIST_E_OPT) = TRUE;

   1370 48 001523   000020 236003                    LDQ     16,DU
        48 001524   000000 256000 31                 ORSQ    OPTIONS
        48 001525   002562 710000 48                 TRA     s:1572

      717     1371    2   CASE(%SPACE_ACTION);

      718     1372    2       OPTIONS(OS_OPT) = TRUE;

   1372 48 001526   000010 236003                    LDQ     8,DU
        48 001527   000000 256000 31                 ORSQ    OPTIONS

      719     1373    2       OPTIONS(OT_OPT) = FALSE;

   1373 48 001530   000022 236000 49                 LDQ     18
        48 001531   000000 356000 31                 ANSQ    OPTIONS
        48 001532   002562 710000 48                 TRA     s:1572

      720     1374    2   CASE(%TIME_ACTION);
PL6.E3A0      #005=LEX_SEMANTICS File=LR_NRGRAM.:Z8A6TSI                         SAT 08/09/97 09:41 Page:298

      721     1375    2       OPTIONS(OT_OPT) = TRUE;

   1375 48 001533   000004 236003                    LDQ     4,DU
        48 001534   000000 256000 31                 ORSQ    OPTIONS

      722     1376    2       OPTIONS(OS_OPT) = FALSE;

   1376 48 001535   000023 236000 49                 LDQ     19
        48 001536   000000 356000 31                 ANSQ    OPTIONS
        48 001537   002562 710000 48                 TRA     s:1572

      723     1377    2   CASE(%DELETETS_ACTION);

      724     1378    2       OPTIONS(DTS_OPT) = TRUE;

   1378 48 001540   020000 236003                    LDQ     8192,DU
        48 001541   000000 256000 31                 ORSQ    OPTIONS
        48 001542   002562 710000 48                 TRA     s:1572

      725     1379    2   CASE(%NUMERIC_ACTIONS_ACTION);

      726     1380    2       OPTIONS(AN_OPT) = TRUE;

   1380 48 001543   010000 236003                    LDQ     4096,DU
        48 001544   000000 256000 31                 ORSQ    OPTIONS
        48 001545   002562 710000 48                 TRA     s:1572

      727     1381    2   CASE(%ORDER_START_ACTION);

      728     1382           %MAKE_LX_ITEM_NO_DNT(TYPE=%TERM_ORDER_SYMBOL);

   1383 48 001546   000000 236000 49                 LDQ     0
        48 001547   000000 471400 43                 LDP1    P_TOKEN
        48 001550   100004 756100                    STQ     4,,PR1

   1384 48 001551   100003 756100                    STQ     3,,PR1
PL6.E3A0      #005=LEX_SEMANTICS File=LR_NRGRAM.:Z8A6TSI                         SAT 08/09/97 09:41 Page:299

   1385 48 001552   000000 236000 4                  LDQ     LEX_LX_TOP
        48 001553   000006 402007                    MPY     6,DL
        48 001554   000001 235006 5                  LDA     LEX_LX_STK+1,QL
        48 001555   100001 755100                    STA     1,,PR1

   1386 48 001556   000002 235006 5                  LDA     LEX_LX_STK+2,QL
        48 001557   100002 755100                    STA     2,,PR1

   1387 48 001560   000014 235007                    LDA     12,DL
        48 001561   100000 755100                    STA     0,,PR1

      729     1389           %MAKE_DNT(D="'=ORDER='");

   1390 48 001562   000007 236007                    LDQ     7,DL
        48 001563   200005 756100                    STQ     SYMLEN,,AUTO

   1391 48 001564   040100 100400                    MLR     fill='040'O
        48 001565   000053 000007 47                 ADSC9   43                       cn=0,n=7
        48 001566   200006 000007                    ADSC9   TEXTCHAR,,AUTO           cn=0,n=7
        48 001567   040100 100400                    MLR     fill='040'O
        48 001570   000000 000007 47                 ADSC9   0                        cn=0,n=7
        48 001571   200007 600205                    ADSC9   TEXTCHAR+1,,AUTO         cn=3,n=133

   1392 48 001572   200005 236100                    LDQ     SYMLEN,,AUTO
        48 001573   000013 036007                    ADLQ    11,DL
        48 001574   000004 506007                    DIV     4,DL
        48 001575   200055 756100                    STQ     NEWLEN,,AUTO

   1393 48 001576   200055 630500                    EPPR0   NEWLEN,,AUTO
        48 001577   200057 450500                    STP0    NEWLEN+2,,AUTO
        48 001600   200051 631500                    EPPR1   NEW$,,AUTO
        48 001601   200056 451500                    STP1    NEWLEN+1,,AUTO
        48 001602   200056 630500                    EPPR0   NEWLEN+1,,AUTO
        48 001603   000001 631400 49                 EPPR1   1
        48 001604   000000 701000 xent               TSX1    GETNEW
        48 001605   000000 011000                    NOP     0
PL6.E3A0      #005=LEX_SEMANTICS File=LR_NRGRAM.:Z8A6TSI                         SAT 08/09/97 09:41 Page:300

   1394 48 001606   200051 470500                    LDP0    NEW$,,AUTO
        48 001607   200005 235100                    LDA     SYMLEN,,AUTO
        48 001610   000002 035007                    ADLA    2,DL
        48 001611   000000 755100                    STA     0,,PR0

   1395 48 001612   200051 470500                    LDP0    NEW$,,AUTO
        48 001613   000000 720100                    LXL0    0,,PR0
        48 001614   000000 621005                    EAX1    0,AL
        48 001615   040140 100540                    MLR     fill='040'O
        48 001616   200006 000011                    ADSC9   TEXTCHAR,,AUTO           cn=0,n=*X1
        48 001617   000001 000010                    ADSC9   1,,PR0                   cn=0,n=*X0

   1396 48 001620   200051 236100                    LDQ     NEW$,,AUTO
        48 001621   000000 470400 43                 LDP0    P_TOKEN
        48 001622   000003 756100                    STQ     3,,PR0
        48 001623   002562 710000 48                 TRA     s:1572

      730     1398    2   CASE(%ORDER_END_ACTION);

      731     1399           %MAKE_LX_ITEM_NO_DNT(TYPE=%TERM_ENDORDER_SYMBOL);

   1400 48 001624   000000 236000 49                 LDQ     0
        48 001625   000000 471400 43                 LDP1    P_TOKEN
        48 001626   100004 756100                    STQ     4,,PR1

   1401 48 001627   100003 756100                    STQ     3,,PR1

   1402 48 001630   000000 236000 4                  LDQ     LEX_LX_TOP
        48 001631   000006 402007                    MPY     6,DL
        48 001632   000001 235006 5                  LDA     LEX_LX_STK+1,QL
        48 001633   100001 755100                    STA     1,,PR1

   1403 48 001634   000002 235006 5                  LDA     LEX_LX_STK+2,QL
        48 001635   100002 755100                    STA     2,,PR1

   1404 48 001636   000015 235007                    LDA     13,DL
PL6.E3A0      #005=LEX_SEMANTICS File=LR_NRGRAM.:Z8A6TSI                         SAT 08/09/97 09:41 Page:301
        48 001637   100000 755100                    STA     0,,PR1

      732     1406           %MAKE_DNT(D="'=ENDORDER='");

   1407 48 001640   000012 236007                    LDQ     10,DL
        48 001641   200005 756100                    STQ     SYMLEN,,AUTO

   1408 48 001642   040100 100400                    MLR     fill='040'O
        48 001643   000055 000012 47                 ADSC9   45                       cn=0,n=10
        48 001644   200006 000012                    ADSC9   TEXTCHAR,,AUTO           cn=0,n=10
        48 001645   040100 100400                    MLR     fill='040'O
        48 001646   000000 000007 47                 ADSC9   0                        cn=0,n=7
        48 001647   200010 400202                    ADSC9   TEXTCHAR+2,,AUTO         cn=2,n=130

   1409 48 001650   200005 236100                    LDQ     SYMLEN,,AUTO
        48 001651   000013 036007                    ADLQ    11,DL
        48 001652   000004 506007                    DIV     4,DL
        48 001653   200055 756100                    STQ     NEWLEN,,AUTO

   1410 48 001654   200055 630500                    EPPR0   NEWLEN,,AUTO
        48 001655   200057 450500                    STP0    NEWLEN+2,,AUTO
        48 001656   200051 631500                    EPPR1   NEW$,,AUTO
        48 001657   200056 451500                    STP1    NEWLEN+1,,AUTO
        48 001660   200056 630500                    EPPR0   NEWLEN+1,,AUTO
        48 001661   000001 631400 49                 EPPR1   1
        48 001662   000000 701000 xent               TSX1    GETNEW
        48 001663   000000 011000                    NOP     0

   1411 48 001664   200051 470500                    LDP0    NEW$,,AUTO
        48 001665   200005 235100                    LDA     SYMLEN,,AUTO
        48 001666   000002 035007                    ADLA    2,DL
        48 001667   000000 755100                    STA     0,,PR0

   1412 48 001670   200051 470500                    LDP0    NEW$,,AUTO
        48 001671   000000 720100                    LXL0    0,,PR0
        48 001672   000000 621005                    EAX1    0,AL
        48 001673   040140 100540                    MLR     fill='040'O
PL6.E3A0      #005=LEX_SEMANTICS File=LR_NRGRAM.:Z8A6TSI                         SAT 08/09/97 09:41 Page:302
        48 001674   200006 000011                    ADSC9   TEXTCHAR,,AUTO           cn=0,n=*X1
        48 001675   000001 000010                    ADSC9   1,,PR0                   cn=0,n=*X0

   1413 48 001676   200051 236100                    LDQ     NEW$,,AUTO
        48 001677   000000 470400 43                 LDP0    P_TOKEN
        48 001700   000003 756100                    STQ     3,,PR0
        48 001701   002562 710000 48                 TRA     s:1572

      733     1415    2   CASE(%ORDER_ACTIONS_ACTION);

      734     1416            %MAKE_LX_ITEM_NO_DNT(TYPE=%TERM_ORDER_ACTIONS);

   1417 48 001702   000000 236000 49                 LDQ     0
        48 001703   000000 471400 43                 LDP1    P_TOKEN
        48 001704   100004 756100                    STQ     4,,PR1

   1418 48 001705   100003 756100                    STQ     3,,PR1

   1419 48 001706   000000 236000 4                  LDQ     LEX_LX_TOP
        48 001707   000006 402007                    MPY     6,DL
        48 001710   000001 235006 5                  LDA     LEX_LX_STK+1,QL
        48 001711   100001 755100                    STA     1,,PR1

   1420 48 001712   000002 235006 5                  LDA     LEX_LX_STK+2,QL
        48 001713   100002 755100                    STA     2,,PR1

   1421 48 001714   000024 235007                    LDA     20,DL
        48 001715   100000 755100                    STA     0,,PR1

      735     1423            %MAKE_DNT(D="'=ORDER_ACTIONS='");

   1424 48 001716   000017 236007                    LDQ     15,DL
        48 001717   200005 756100                    STQ     SYMLEN,,AUTO

   1425 48 001720   040100 100400                    MLR     fill='040'O
        48 001721   000060 000017 47                 ADSC9   48                       cn=0,n=15
        48 001722   200006 000017                    ADSC9   TEXTCHAR,,AUTO           cn=0,n=15
PL6.E3A0      #005=LEX_SEMANTICS File=LR_NRGRAM.:Z8A6TSI                         SAT 08/09/97 09:41 Page:303
        48 001723   040100 100400                    MLR     fill='040'O
        48 001724   000000 000007 47                 ADSC9   0                        cn=0,n=7
        48 001725   200011 600175                    ADSC9   TEXTCHAR+3,,AUTO         cn=3,n=125

   1426 48 001726   200005 236100                    LDQ     SYMLEN,,AUTO
        48 001727   000013 036007                    ADLQ    11,DL
        48 001730   000004 506007                    DIV     4,DL
        48 001731   200055 756100                    STQ     NEWLEN,,AUTO

   1427 48 001732   200055 630500                    EPPR0   NEWLEN,,AUTO
        48 001733   200057 450500                    STP0    NEWLEN+2,,AUTO
        48 001734   200051 631500                    EPPR1   NEW$,,AUTO
        48 001735   200056 451500                    STP1    NEWLEN+1,,AUTO
        48 001736   200056 630500                    EPPR0   NEWLEN+1,,AUTO
        48 001737   000001 631400 49                 EPPR1   1
        48 001740   000000 701000 xent               TSX1    GETNEW
        48 001741   000000 011000                    NOP     0

   1428 48 001742   200051 470500                    LDP0    NEW$,,AUTO
        48 001743   200005 235100                    LDA     SYMLEN,,AUTO
        48 001744   000002 035007                    ADLA    2,DL
        48 001745   000000 755100                    STA     0,,PR0

   1429 48 001746   200051 470500                    LDP0    NEW$,,AUTO
        48 001747   000000 720100                    LXL0    0,,PR0
        48 001750   000000 621005                    EAX1    0,AL
        48 001751   040140 100540                    MLR     fill='040'O
        48 001752   200006 000011                    ADSC9   TEXTCHAR,,AUTO           cn=0,n=*X1
        48 001753   000001 000010                    ADSC9   1,,PR0                   cn=0,n=*X0

   1430 48 001754   200051 236100                    LDQ     NEW$,,AUTO
        48 001755   000000 470400 43                 LDP0    P_TOKEN
        48 001756   000003 756100                    STQ     3,,PR0
        48 001757   002562 710000 48                 TRA     s:1572

      736     1432    2   CASE(%ENDORDER_ACTIONS_ACTION);

PL6.E3A0      #005=LEX_SEMANTICS File=LR_NRGRAM.:Z8A6TSI                         SAT 08/09/97 09:41 Page:304
      737     1433             %MAKE_LX_ITEM_NO_DNT(TYPE=%TERM_ENDORDER_ACTIONS);

   1434 48 001760   000000 236000 49                 LDQ     0
        48 001761   000000 471400 43                 LDP1    P_TOKEN
        48 001762   100004 756100                    STQ     4,,PR1

   1435 48 001763   100003 756100                    STQ     3,,PR1

   1436 48 001764   000000 236000 4                  LDQ     LEX_LX_TOP
        48 001765   000006 402007                    MPY     6,DL
        48 001766   000001 235006 5                  LDA     LEX_LX_STK+1,QL
        48 001767   100001 755100                    STA     1,,PR1

   1437 48 001770   000002 235006 5                  LDA     LEX_LX_STK+2,QL
        48 001771   100002 755100                    STA     2,,PR1

   1438 48 001772   000025 235007                    LDA     21,DL
        48 001773   100000 755100                    STA     0,,PR1

      738     1440             %MAKE_DNT(D="'=ENDORDER_ACTIONS='");

   1441 48 001774   000022 236007                    LDQ     18,DL
        48 001775   200005 756100                    STQ     SYMLEN,,AUTO

   1442 48 001776   040100 100400                    MLR     fill='040'O
        48 001777   000064 000022 47                 ADSC9   52                       cn=0,n=18
        48 002000   200006 000022                    ADSC9   TEXTCHAR,,AUTO           cn=0,n=18
        48 002001   040100 100400                    MLR     fill='040'O
        48 002002   000000 000007 47                 ADSC9   0                        cn=0,n=7
        48 002003   200012 400172                    ADSC9   TEXTCHAR+4,,AUTO         cn=2,n=122

   1443 48 002004   200005 236100                    LDQ     SYMLEN,,AUTO
        48 002005   000013 036007                    ADLQ    11,DL
        48 002006   000004 506007                    DIV     4,DL
        48 002007   200055 756100                    STQ     NEWLEN,,AUTO

   1444 48 002010   200055 630500                    EPPR0   NEWLEN,,AUTO
PL6.E3A0      #005=LEX_SEMANTICS File=LR_NRGRAM.:Z8A6TSI                         SAT 08/09/97 09:41 Page:305
        48 002011   200057 450500                    STP0    NEWLEN+2,,AUTO
        48 002012   200051 631500                    EPPR1   NEW$,,AUTO
        48 002013   200056 451500                    STP1    NEWLEN+1,,AUTO
        48 002014   200056 630500                    EPPR0   NEWLEN+1,,AUTO
        48 002015   000001 631400 49                 EPPR1   1
        48 002016   000000 701000 xent               TSX1    GETNEW
        48 002017   000000 011000                    NOP     0

   1445 48 002020   200051 470500                    LDP0    NEW$,,AUTO
        48 002021   200005 235100                    LDA     SYMLEN,,AUTO
        48 002022   000002 035007                    ADLA    2,DL
        48 002023   000000 755100                    STA     0,,PR0

   1446 48 002024   200051 470500                    LDP0    NEW$,,AUTO
        48 002025   000000 720100                    LXL0    0,,PR0
        48 002026   000000 621005                    EAX1    0,AL
        48 002027   040140 100540                    MLR     fill='040'O
        48 002030   200006 000011                    ADSC9   TEXTCHAR,,AUTO           cn=0,n=*X1
        48 002031   000001 000010                    ADSC9   1,,PR0                   cn=0,n=*X0

   1447 48 002032   200051 236100                    LDQ     NEW$,,AUTO
        48 002033   000000 470400 43                 LDP0    P_TOKEN
        48 002034   000003 756100                    STQ     3,,PR0
        48 002035   002562 710000 48                 TRA     s:1572

      739     1449    2   CASE(%LEFT_ACTION);

      740     1450           %MAKE_LX_ITEM_NO_DNT(TYPE=%TERM_LEFT_SYMBOL);

   1451 48 002036   000000 236000 49                 LDQ     0
        48 002037   000000 471400 43                 LDP1    P_TOKEN
        48 002040   100004 756100                    STQ     4,,PR1

   1452 48 002041   100003 756100                    STQ     3,,PR1

   1453 48 002042   000000 236000 4                  LDQ     LEX_LX_TOP
        48 002043   000006 402007                    MPY     6,DL
PL6.E3A0      #005=LEX_SEMANTICS File=LR_NRGRAM.:Z8A6TSI                         SAT 08/09/97 09:41 Page:306
        48 002044   000001 235006 5                  LDA     LEX_LX_STK+1,QL
        48 002045   100001 755100                    STA     1,,PR1

   1454 48 002046   000002 235006 5                  LDA     LEX_LX_STK+2,QL
        48 002047   100002 755100                    STA     2,,PR1

   1455 48 002050   000016 235007                    LDA     14,DL
        48 002051   100000 755100                    STA     0,,PR1

      741     1457           %MAKE_DNT(D="'=LEFT='");

   1458 48 002052   000006 236007                    LDQ     6,DL
        48 002053   200005 756100                    STQ     SYMLEN,,AUTO

   1459 48 002054   040100 100400                    MLR     fill='040'O
        48 002055   000071 000006 47                 ADSC9   57                       cn=0,n=6
        48 002056   200006 000006                    ADSC9   TEXTCHAR,,AUTO           cn=0,n=6
        48 002057   040100 100400                    MLR     fill='040'O
        48 002060   000000 000007 47                 ADSC9   0                        cn=0,n=7
        48 002061   200007 400206                    ADSC9   TEXTCHAR+1,,AUTO         cn=2,n=134

   1460 48 002062   200005 236100                    LDQ     SYMLEN,,AUTO
        48 002063   000013 036007                    ADLQ    11,DL
        48 002064   000004 506007                    DIV     4,DL
        48 002065   200055 756100                    STQ     NEWLEN,,AUTO

   1461 48 002066   200055 630500                    EPPR0   NEWLEN,,AUTO
        48 002067   200057 450500                    STP0    NEWLEN+2,,AUTO
        48 002070   200051 631500                    EPPR1   NEW$,,AUTO
        48 002071   200056 451500                    STP1    NEWLEN+1,,AUTO
        48 002072   200056 630500                    EPPR0   NEWLEN+1,,AUTO
        48 002073   000001 631400 49                 EPPR1   1
        48 002074   000000 701000 xent               TSX1    GETNEW
        48 002075   000000 011000                    NOP     0

   1462 48 002076   200051 470500                    LDP0    NEW$,,AUTO
        48 002077   200005 235100                    LDA     SYMLEN,,AUTO
PL6.E3A0      #005=LEX_SEMANTICS File=LR_NRGRAM.:Z8A6TSI                         SAT 08/09/97 09:41 Page:307
        48 002100   000002 035007                    ADLA    2,DL
        48 002101   000000 755100                    STA     0,,PR0

   1463 48 002102   200051 470500                    LDP0    NEW$,,AUTO
        48 002103   000000 720100                    LXL0    0,,PR0
        48 002104   000000 621005                    EAX1    0,AL
        48 002105   040140 100540                    MLR     fill='040'O
        48 002106   200006 000011                    ADSC9   TEXTCHAR,,AUTO           cn=0,n=*X1
        48 002107   000001 000010                    ADSC9   1,,PR0                   cn=0,n=*X0

   1464 48 002110   200051 236100                    LDQ     NEW$,,AUTO
        48 002111   000000 470400 43                 LDP0    P_TOKEN
        48 002112   000003 756100                    STQ     3,,PR0
        48 002113   002562 710000 48                 TRA     s:1572

      742     1466    2   CASE(%RIGHT_ACTION);

      743     1467           %MAKE_LX_ITEM_NO_DNT(TYPE=%TERM_RIGHT_SYMBOL);

   1468 48 002114   000000 236000 49                 LDQ     0
        48 002115   000000 471400 43                 LDP1    P_TOKEN
        48 002116   100004 756100                    STQ     4,,PR1

   1469 48 002117   100003 756100                    STQ     3,,PR1

   1470 48 002120   000000 236000 4                  LDQ     LEX_LX_TOP
        48 002121   000006 402007                    MPY     6,DL
        48 002122   000001 235006 5                  LDA     LEX_LX_STK+1,QL
        48 002123   100001 755100                    STA     1,,PR1

   1471 48 002124   000002 235006 5                  LDA     LEX_LX_STK+2,QL
        48 002125   100002 755100                    STA     2,,PR1

   1472 48 002126   000017 235007                    LDA     15,DL
        48 002127   100000 755100                    STA     0,,PR1

      744     1474           %MAKE_DNT(D="'=RIGHT='");
PL6.E3A0      #005=LEX_SEMANTICS File=LR_NRGRAM.:Z8A6TSI                         SAT 08/09/97 09:41 Page:308

   1475 48 002130   000007 236007                    LDQ     7,DL
        48 002131   200005 756100                    STQ     SYMLEN,,AUTO

   1476 48 002132   040100 100400                    MLR     fill='040'O
        48 002133   000073 000007 47                 ADSC9   59                       cn=0,n=7
        48 002134   200006 000007                    ADSC9   TEXTCHAR,,AUTO           cn=0,n=7
        48 002135   040100 100400                    MLR     fill='040'O
        48 002136   000000 000007 47                 ADSC9   0                        cn=0,n=7
        48 002137   200007 600205                    ADSC9   TEXTCHAR+1,,AUTO         cn=3,n=133

   1477 48 002140   200005 236100                    LDQ     SYMLEN,,AUTO
        48 002141   000013 036007                    ADLQ    11,DL
        48 002142   000004 506007                    DIV     4,DL
        48 002143   200055 756100                    STQ     NEWLEN,,AUTO

   1478 48 002144   200055 630500                    EPPR0   NEWLEN,,AUTO
        48 002145   200057 450500                    STP0    NEWLEN+2,,AUTO
        48 002146   200051 631500                    EPPR1   NEW$,,AUTO
        48 002147   200056 451500                    STP1    NEWLEN+1,,AUTO
        48 002150   200056 630500                    EPPR0   NEWLEN+1,,AUTO
        48 002151   000001 631400 49                 EPPR1   1
        48 002152   000000 701000 xent               TSX1    GETNEW
        48 002153   000000 011000                    NOP     0

   1479 48 002154   200051 470500                    LDP0    NEW$,,AUTO
        48 002155   200005 235100                    LDA     SYMLEN,,AUTO
        48 002156   000002 035007                    ADLA    2,DL
        48 002157   000000 755100                    STA     0,,PR0

   1480 48 002160   200051 470500                    LDP0    NEW$,,AUTO
        48 002161   000000 720100                    LXL0    0,,PR0
        48 002162   000000 621005                    EAX1    0,AL
        48 002163   040140 100540                    MLR     fill='040'O
        48 002164   200006 000011                    ADSC9   TEXTCHAR,,AUTO           cn=0,n=*X1
        48 002165   000001 000010                    ADSC9   1,,PR0                   cn=0,n=*X0

PL6.E3A0      #005=LEX_SEMANTICS File=LR_NRGRAM.:Z8A6TSI                         SAT 08/09/97 09:41 Page:309
   1481 48 002166   200051 236100                    LDQ     NEW$,,AUTO
        48 002167   000000 470400 43                 LDP0    P_TOKEN
        48 002170   000003 756100                    STQ     3,,PR0
        48 002171   002562 710000 48                 TRA     s:1572

      745     1483    2   CASE(%NONPRINTABLE_ACTION);

      746     1484           %MAKE_LX_ITEM(TYPE=%TERM_INVALID_TOKEN);

   1485 48 002172   000000 236000 49                 LDQ     0
        48 002173   000000 471400 43                 LDP1    P_TOKEN
        48 002174   100004 756100                    STQ     4,,PR1

   1486 48 002175   000020 235007                    LDA     16,DL
        48 002176   100000 755100                    STA     0,,PR1

   1487 48 002177   000000 236000 4                  LDQ     LEX_LX_TOP
        48 002200   000006 402007                    MPY     6,DL
        48 002201   000000 471400 43                 LDP1    P_TOKEN
        48 002202   000001 235006 5                  LDA     LEX_LX_STK+1,QL
        48 002203   100001 755100                    STA     1,,PR1

   1489 48 002204   000002 235006 5                  LDA     LEX_LX_STK+2,QL
        48 002205   100002 755100                    STA     2,,PR1

   1491 48 002206   000000 235000 44                 LDA     SYMSTART
        48 002207   200004 755100                    STA     SYMBOL_START,,AUTO

   1492 48 002210   000000 236000 45                 LDQ     LASTCOLUMN
        48 002211   200004 136100                    SBLQ    SYMBOL_START,,AUTO
        48 002212   000001 036007                    ADLQ    1,DL
        48 002213   200005 756100                    STQ     SYMLEN,,AUTO

   1493 48 002214   000000 620006                    EAX0    0,QL
        48 002215   040100 100445                    MLR     fill='040'O
        48 002216   000000 000010 33                 ADSC9   INSTR,A                  cn=0,n=*X0
        48 002217   200006 000214                    ADSC9   TEXTCHAR,,AUTO           cn=0,n=140
PL6.E3A0      #005=LEX_SEMANTICS File=LR_NRGRAM.:Z8A6TSI                         SAT 08/09/97 09:41 Page:310
        48 002220   200005 236100                    LDQ     SYMLEN,,AUTO
        48 002221   000214 116007                    CMPQ    140,DL
        48 002222   002230 605000 48                 TPL     s:1495
        48 002223   777563 620006                    EAX0    -141,QL
        48 002224   777777 660003                    ERX0    -1,DU
        48 002225   040146 100400                    MLR     fill='040'O
        48 002226   000000 000007 47                 ADSC9   0                        cn=0,n=7
        48 002227   200006 000010                    ADSC9   TEXTCHAR,Q,AUTO          cn=0,n=*X0

   1495 48 002230   000013 036007                    ADLQ    11,DL
        48 002231   000004 506007                    DIV     4,DL
        48 002232   200055 756100                    STQ     NEWLEN,,AUTO

   1496 48 002233   200055 633500                    EPPR3   NEWLEN,,AUTO
        48 002234   200057 453500                    STP3    NEWLEN+2,,AUTO
        48 002235   200051 634500                    EPPR4   NEW$,,AUTO
        48 002236   200056 454500                    STP4    NEWLEN+1,,AUTO
        48 002237   200056 630500                    EPPR0   NEWLEN+1,,AUTO
        48 002240   000001 631400 49                 EPPR1   1
        48 002241   000000 701000 xent               TSX1    GETNEW
        48 002242   000000 011000                    NOP     0

   1497 48 002243   200051 470500                    LDP0    NEW$,,AUTO
        48 002244   200005 235100                    LDA     SYMLEN,,AUTO
        48 002245   000002 035007                    ADLA    2,DL
        48 002246   000000 755100                    STA     0,,PR0

   1498 48 002247   200051 470500                    LDP0    NEW$,,AUTO
        48 002250   000000 720100                    LXL0    0,,PR0
        48 002251   000000 621005                    EAX1    0,AL
        48 002252   040140 100540                    MLR     fill='040'O
        48 002253   200006 000011                    ADSC9   TEXTCHAR,,AUTO           cn=0,n=*X1
        48 002254   000001 000010                    ADSC9   1,,PR0                   cn=0,n=*X0

   1499 48 002255   200051 236100                    LDQ     NEW$,,AUTO
        48 002256   000000 470400 43                 LDP0    P_TOKEN
        48 002257   000003 756100                    STQ     3,,PR0
PL6.E3A0      #005=LEX_SEMANTICS File=LR_NRGRAM.:Z8A6TSI                         SAT 08/09/97 09:41 Page:311

      747     1501    2        CALL BINCHAR(SUBSTR(COLUMN_CHAR,0,3),

   1501 48 002260   000002 235100                    LDA     2,,PR0
        48 002261   000044 773000                    LRL     36
        48 002262   200056 757100                    STAQ    NEWLEN+1,,AUTO
        48 002263   000100 301500                    BTD
        48 002264   200056 000010                    NDSC9   NEWLEN+1,,AUTO           cn=0,s=lsgnf,sf=0,n=8
        48 002265   200052 030003                    NDSC9   COLUMN_CHAR,,AUTO        cn=0,s=nosgn,sf=0,n=3

      748     1502    2                     P_TOKEN->LX_ITEM.COLUMN);
      749     1503    2        SUBSTR(COLUMN_CHAR,3,2) = '%%';

   1503 48 002266   040100 100400                    MLR     fill='040'O
        48 002267   000000 000002 47                 ADSC9   0                        cn=0,n=2
        48 002270   200052 600002                    ADSC9   COLUMN_CHAR,,AUTO        cn=3,n=2

      750     1504    2        CALL DIAG(6,' ERROR => Nonprintable character found in column %%',

   1504 48 002271   200052 631500                    EPPR1   COLUMN_CHAR,,AUTO
        48 002272   200060 451500                    STP1    NEWLEN+3,,AUTO
        48 002273   000024 237000 49                 LDAQ    20
        48 002274   200056 757100                    STAQ    NEWLEN+1,,AUTO
        48 002275   200056 630500                    EPPR0   NEWLEN+1,,AUTO
        48 002276   000002 631400 49                 EPPR1   2
        48 002277   000000 701000 xent               TSX1    DIAG
        48 002300   000000 011000                    NOP     0
        48 002301   002562 710000 48                 TRA     s:1572

      751     1505    2                  COLUMN_CHAR);
      752     1506    2   CASE(%ACCEPT_ACTION);

      753     1507    2       SYMSTART = LASTCOLUMN + 1;

   1507 48 002302   000000 236000 45                 LDQ     LASTCOLUMN
        48 002303   000001 036007                    ADLQ    1,DL
        48 002304   000000 756000 44                 STQ     SYMSTART
PL6.E3A0      #005=LEX_SEMANTICS File=LR_NRGRAM.:Z8A6TSI                         SAT 08/09/97 09:41 Page:312

      754     1508    2       UNWIND TO LEX_REMEMBER;

   1508 48 002305   000000 237200 42                 LDAQ  ! LEX_REMEMBER
        48 002306   000000 700200 xent               TSX0  ! X66_AUNWIND
        48 002307   000000 000200                    ZERO    0,128

      755     1509    2   CASE(%ACCEPT_EOF);

      756     1510    2       P_TOKEN->LX_ITEM.SYMPTR = ADDR(NIL);

   1510 48 002310   000000 236000 49                 LDQ     0
        48 002311   000000 471400 43                 LDP1    P_TOKEN
        48 002312   100004 756100                    STQ     4,,PR1

      757     1511    2       P_TOKEN->LX_ITEM.DNTPTR = ADDR(NIL);

   1511 48 002313   100003 756100                    STQ     3,,PR1

      758     1512    2       P_TOKEN->LX_ITEM.LINE = LEX_LX_STK.LINE(LEX_LX_TOP);

   1512 48 002314   000000 236000 4                  LDQ     LEX_LX_TOP
        48 002315   000006 402007                    MPY     6,DL
        48 002316   000001 235006 5                  LDA     LEX_LX_STK+1,QL
        48 002317   100001 755100                    STA     1,,PR1

      759     1513    2       P_TOKEN->LX_ITEM.COLUMN = LEX_LX_STK.COLUMN(LEX_LX_TOP);

   1513 48 002320   000002 235006 5                  LDA     LEX_LX_STK+2,QL
        48 002321   100002 755100                    STA     2,,PR1

      760     1514    2       P_TOKEN->LX_ITEM.SYMBOL = %TERM_END_OF_FILE;

   1514 48 002322   000022 235007                    LDA     18,DL
        48 002323   100000 755100                    STA     0,,PR1

      761     1515    2       UNWIND TO LEX_REMEMBER;
PL6.E3A0      #005=LEX_SEMANTICS File=LR_NRGRAM.:Z8A6TSI                         SAT 08/09/97 09:41 Page:313

   1515 48 002324   000000 237200 42                 LDAQ  ! LEX_REMEMBER
        48 002325   000000 700200 xent               TSX0  ! X66_AUNWIND
        48 002326   000000 000200                    ZERO    0,128

      762     1516    2   CASE(%INVALID_TOKEN_ACTION);

      763     1517            %MAKE_LX_ITEM(TYPE=%TERM_INVALID_TOKEN);

   1518 48 002327   000000 236000 49                 LDQ     0
        48 002330   000000 471400 43                 LDP1    P_TOKEN
        48 002331   100004 756100                    STQ     4,,PR1

   1519 48 002332   000020 235007                    LDA     16,DL
        48 002333   100000 755100                    STA     0,,PR1

   1520 48 002334   000000 236000 4                  LDQ     LEX_LX_TOP
        48 002335   000006 402007                    MPY     6,DL
        48 002336   000000 471400 43                 LDP1    P_TOKEN
        48 002337   000001 235006 5                  LDA     LEX_LX_STK+1,QL
        48 002340   100001 755100                    STA     1,,PR1

   1522 48 002341   000002 235006 5                  LDA     LEX_LX_STK+2,QL
        48 002342   100002 755100                    STA     2,,PR1

   1524 48 002343   000000 235000 44                 LDA     SYMSTART
        48 002344   200004 755100                    STA     SYMBOL_START,,AUTO

   1525 48 002345   000000 236000 45                 LDQ     LASTCOLUMN
        48 002346   200004 136100                    SBLQ    SYMBOL_START,,AUTO
        48 002347   000001 036007                    ADLQ    1,DL
        48 002350   200005 756100                    STQ     SYMLEN,,AUTO

   1526 48 002351   000000 620006                    EAX0    0,QL
        48 002352   040100 100445                    MLR     fill='040'O
        48 002353   000000 000010 33                 ADSC9   INSTR,A                  cn=0,n=*X0
        48 002354   200006 000214                    ADSC9   TEXTCHAR,,AUTO           cn=0,n=140
PL6.E3A0      #005=LEX_SEMANTICS File=LR_NRGRAM.:Z8A6TSI                         SAT 08/09/97 09:41 Page:314
        48 002355   200005 236100                    LDQ     SYMLEN,,AUTO
        48 002356   000214 116007                    CMPQ    140,DL
        48 002357   002365 605000 48                 TPL     s:1528
        48 002360   777563 620006                    EAX0    -141,QL
        48 002361   777777 660003                    ERX0    -1,DU
        48 002362   040146 100400                    MLR     fill='040'O
        48 002363   000000 000007 47                 ADSC9   0                        cn=0,n=7
        48 002364   200006 000010                    ADSC9   TEXTCHAR,Q,AUTO          cn=0,n=*X0

   1528 48 002365   000013 036007                    ADLQ    11,DL
        48 002366   000004 506007                    DIV     4,DL
        48 002367   200055 756100                    STQ     NEWLEN,,AUTO

   1529 48 002370   200055 633500                    EPPR3   NEWLEN,,AUTO
        48 002371   200057 453500                    STP3    NEWLEN+2,,AUTO
        48 002372   200051 634500                    EPPR4   NEW$,,AUTO
        48 002373   200056 454500                    STP4    NEWLEN+1,,AUTO
        48 002374   200056 630500                    EPPR0   NEWLEN+1,,AUTO
        48 002375   000001 631400 49                 EPPR1   1
        48 002376   000000 701000 xent               TSX1    GETNEW
        48 002377   000000 011000                    NOP     0

   1530 48 002400   200051 470500                    LDP0    NEW$,,AUTO
        48 002401   200005 235100                    LDA     SYMLEN,,AUTO
        48 002402   000002 035007                    ADLA    2,DL
        48 002403   000000 755100                    STA     0,,PR0

   1531 48 002404   200051 470500                    LDP0    NEW$,,AUTO
        48 002405   000000 720100                    LXL0    0,,PR0
        48 002406   000000 621005                    EAX1    0,AL
        48 002407   040140 100540                    MLR     fill='040'O
        48 002410   200006 000011                    ADSC9   TEXTCHAR,,AUTO           cn=0,n=*X1
        48 002411   000001 000010                    ADSC9   1,,PR0                   cn=0,n=*X0

   1532 48 002412   200051 236100                    LDQ     NEW$,,AUTO
        48 002413   000000 470400 43                 LDP0    P_TOKEN
        48 002414   000003 756100                    STQ     3,,PR0
PL6.E3A0      #005=LEX_SEMANTICS File=LR_NRGRAM.:Z8A6TSI                         SAT 08/09/97 09:41 Page:315

      764     1534    2       CALL FORCE_LIST;

   1534 48 002415   000011 631400 49                 EPPR1   9
        48 002416   000000 701000 xent               TSX1    FORCE_LIST
        48 002417   000000 011000                    NOP     0

      765     1535    2       CALL FLUSH;

   1535 48 002420   000011 631400 49                 EPPR1   9
        48 002421   000000 701000 xent               TSX1    FLUSH
        48 002422   000000 011000                    NOP     0

      766     1536    3       DO I = 1 TO SYMSTART  + LENGTHC(KEY_REC);

   1536 48 002423   000001 235007                    LDA     1,DL
        48 002424   200054 755100                    STA     I,,AUTO
        48 002425   002433 710000 48                 TRA     s:1540+1

      767     1537                %OUT_STR(S="' '");

   1538 48 002426   000016 630400 49                 EPPR0   14
        48 002427   000001 631400 49                 EPPR1   1
        48 002430   000000 701000 xent               TSX1    OUT_STR
        48 002431   000000 011000                    NOP     0

      768     1540    3       END;

   1540 48 002432   200054 054100                    AOS     I,,AUTO
        48 002433   000000 236000 44                 LDQ     SYMSTART
        48 002434   000012 036007                    ADLQ    10,DL
        48 002435   200054 116100                    CMPQ    I,,AUTO
        48 002436   002426 605000 48                 TPL     s:1538

      769     1541            %OUT_STR(S="'1'");

   1542 48 002437   000027 630400 49                 EPPR0   23
PL6.E3A0      #005=LEX_SEMANTICS File=LR_NRGRAM.:Z8A6TSI                         SAT 08/09/97 09:41 Page:316
        48 002440   000001 631400 49                 EPPR1   1
        48 002441   000000 701000 xent               TSX1    OUT_STR
        48 002442   000000 011000                    NOP     0

      770     1544    2       CALL FLUSH;

   1544 48 002443   000011 631400 49                 EPPR1   9
        48 002444   000000 701000 xent               TSX1    FLUSH
        48 002445   000000 011000                    NOP     0

      771     1545    2       CALL DIAG(6,' ERROR => Illegal token : %%',

   1545 48 002446   000000 470400 43                 LDP0    P_TOKEN
        48 002447   000003 471500                    LDP1    3,,PR0
        48 002450   000032 236000 49                 LDQ     26
        48 002451   200062 756100                    STQ     NEWLEN+5,,AUTO
        48 002452   000033 236000 49                 LDQ     27
        48 002453   200061 756100                    STQ     NEWLEN+4,,AUTO
        48 002454   100001 633500                    EPPR3   1,,PR1
        48 002455   200060 453500                    STP3    NEWLEN+3,,AUTO
        48 002456   000034 237000 49                 LDAQ    28
        48 002457   200056 757100                    STAQ    NEWLEN+1,,AUTO
        48 002460   200056 630500                    EPPR0   NEWLEN+1,,AUTO
        48 002461   000031 631400 49                 EPPR1   25
        48 002462   000000 701000 xent               TSX1    DIAG
        48 002463   000000 011000                    NOP     0
        48 002464   002562 710000 48                 TRA     s:1572

      772     1546    2                 P_TOKEN->LX_ITEM.DNTPTR->DNT.TEXT.NAME,
      773     1547    2                 ' . Tokens beginning with =, <, {, /, and : should be%%',
      774     1548    2                 ' enclosed in apostrophes.%%');
      775     1549    2   CASE(%SLASH_STAR_M_STAR_ACTION);

      776     1550            %MAKE_LX_ITEM(TYPE=%TERM_SLASH_STAR_M_STAR);

   1551 48 002465   000000 236000 49                 LDQ     0
        48 002466   000000 471400 43                 LDP1    P_TOKEN
PL6.E3A0      #005=LEX_SEMANTICS File=LR_NRGRAM.:Z8A6TSI                         SAT 08/09/97 09:41 Page:317
        48 002467   100004 756100                    STQ     4,,PR1

   1552 48 002470   000023 235007                    LDA     19,DL
        48 002471   100000 755100                    STA     0,,PR1

   1553 48 002472   000000 236000 4                  LDQ     LEX_LX_TOP
        48 002473   000006 402007                    MPY     6,DL
        48 002474   000000 471400 43                 LDP1    P_TOKEN
        48 002475   000001 235006 5                  LDA     LEX_LX_STK+1,QL
        48 002476   100001 755100                    STA     1,,PR1

   1555 48 002477   000002 235006 5                  LDA     LEX_LX_STK+2,QL
        48 002500   100002 755100                    STA     2,,PR1

   1557 48 002501   000000 235000 44                 LDA     SYMSTART
        48 002502   200004 755100                    STA     SYMBOL_START,,AUTO

   1558 48 002503   000000 236000 45                 LDQ     LASTCOLUMN
        48 002504   200004 136100                    SBLQ    SYMBOL_START,,AUTO
        48 002505   000001 036007                    ADLQ    1,DL
        48 002506   200005 756100                    STQ     SYMLEN,,AUTO

   1559 48 002507   000000 620006                    EAX0    0,QL
        48 002510   040100 100445                    MLR     fill='040'O
        48 002511   000000 000010 33                 ADSC9   INSTR,A                  cn=0,n=*X0
        48 002512   200006 000214                    ADSC9   TEXTCHAR,,AUTO           cn=0,n=140
        48 002513   200005 236100                    LDQ     SYMLEN,,AUTO
        48 002514   000214 116007                    CMPQ    140,DL
        48 002515   002523 605000 48                 TPL     s:1561
        48 002516   777563 620006                    EAX0    -141,QL
        48 002517   777777 660003                    ERX0    -1,DU
        48 002520   040146 100400                    MLR     fill='040'O
        48 002521   000000 000007 47                 ADSC9   0                        cn=0,n=7
        48 002522   200006 000010                    ADSC9   TEXTCHAR,Q,AUTO          cn=0,n=*X0

   1561 48 002523   000013 036007                    ADLQ    11,DL
        48 002524   000004 506007                    DIV     4,DL
PL6.E3A0      #005=LEX_SEMANTICS File=LR_NRGRAM.:Z8A6TSI                         SAT 08/09/97 09:41 Page:318
        48 002525   200055 756100                    STQ     NEWLEN,,AUTO

   1562 48 002526   200055 633500                    EPPR3   NEWLEN,,AUTO
        48 002527   200057 453500                    STP3    NEWLEN+2,,AUTO
        48 002530   200051 634500                    EPPR4   NEW$,,AUTO
        48 002531   200056 454500                    STP4    NEWLEN+1,,AUTO
        48 002532   200056 630500                    EPPR0   NEWLEN+1,,AUTO
        48 002533   000001 631400 49                 EPPR1   1
        48 002534   000000 701000 xent               TSX1    GETNEW
        48 002535   000000 011000                    NOP     0

   1563 48 002536   200051 470500                    LDP0    NEW$,,AUTO
        48 002537   200005 235100                    LDA     SYMLEN,,AUTO
        48 002540   000002 035007                    ADLA    2,DL
        48 002541   000000 755100                    STA     0,,PR0

   1564 48 002542   200051 470500                    LDP0    NEW$,,AUTO
        48 002543   000000 720100                    LXL0    0,,PR0
        48 002544   000000 621005                    EAX1    0,AL
        48 002545   040140 100540                    MLR     fill='040'O
        48 002546   200006 000011                    ADSC9   TEXTCHAR,,AUTO           cn=0,n=*X1
        48 002547   000001 000010                    ADSC9   1,,PR0                   cn=0,n=*X0

   1565 48 002550   200051 236100                    LDQ     NEW$,,AUTO
        48 002551   000000 470400 43                 LDP0    P_TOKEN
        48 002552   000003 756100                    STQ     3,,PR0
        48 002553   002562 710000 48                 TRA     s:1572

      777     1567    2   CASE(%END_OF_LINE_ACTION);

      778     1568    2       LASTCOLUMN = -1;

   1568 48 002554   000001 336007                    LCQ     1,DL
        48 002555   000000 756000 45                 STQ     LASTCOLUMN
        48 002556   002562 710000 48                 TRA     s:1572

      779     1569    2   CASE(%START_OF_TOKEN_ACTION);
PL6.E3A0      #005=LEX_SEMANTICS File=LR_NRGRAM.:Z8A6TSI                         SAT 08/09/97 09:41 Page:319

      780     1570    2       SYMSTART = LASTCOLUMN + 1;

   1570 48 002557   000000 236000 45                 LDQ     LASTCOLUMN
        48 002560   000001 036007                    ADLQ    1,DL
        48 002561   000000 756000 44                 STQ     SYMSTART

      781     1571    2   END /* OF CASE ON ACTION */ ;

      782     1572    1    END LEX_SEMANTICS;

   1572 48 002562   000000 702200 xent               TSX2  ! X66_ARET
      783     1573        %EOD;

PL6.E3A0      #005=LEX_SEMANTICS File=LR_NRGRAM.:Z8A6TSI                         SAT 08/09/97 09:41 Page:320
--  Include file information  --

   LR_IO_EXT.:Z8A6TOU  cannot be made into a system file and is referenced.
   LR_GRAM_EXT.:Z8A6TOU  cannot be made into a system file and is referenced.
   PARSER_SUBS.:Z8A6TOU  is referenced.
   LRXDPDA_SUBS.:Z8A6TOU  is referenced.
   LRX_SUBS.:Z8A6TOU  is referenced.
   PARSER_STACK.:Z8A6TOU  cannot be made into a system file and is referenced.
   PARSER_DNT.:Z8A6TOU  cannot be made into a system file and is referenced.
      No diagnostics issued in procedure LEX_SEMANTICS.
PL6.E3A0      #005=LEX_SEMANTICS File=LR_NRGRAM.:Z8A6TSI                         SAT 08/09/97 09:41 Page:321

 **** Variables and constants ****

  ****  Section 000 LblCom LA_STK

  ****  Scalars and arrays  ****
OctLoc.c.b A Datatyp(siz) R M Lvl/name                 OctLoc.c.b A Datatyp(siz) R M Lvl/name

     0-0-0/w STRC(216)         1 LA_STK(0:50)

  ****  Section 001 LblCom LX_TOP

  ****  Scalars and arrays  ****
OctLoc.c.b A Datatyp(siz) R M Lvl/name                 OctLoc.c.b A Datatyp(siz) R M Lvl/name

     0-0-0/w SBIN              1 LX_TOP

  ****  Section 002 LblCom LX_STK

  ****  Scalars and arrays  ****
OctLoc.c.b A Datatyp(siz) R M Lvl/name                 OctLoc.c.b A Datatyp(siz) R M Lvl/name

     0-0-0/w STRC(216)         1 LX_STK(0:50)

  ****  Section 003 LblCom LEX_LA_STK

  ****  Scalars and arrays  ****
OctLoc.c.b A Datatyp(siz) R M Lvl/name                 OctLoc.c.b A Datatyp(siz) R M Lvl/name

     0-0-0/w STRC(216)         1 LEX_LA_STK(0:50)

  ****  Section 004 LblCom LEX_LX_TOP

  ****  Scalars and arrays  ****
OctLoc.c.b A Datatyp(siz) R M Lvl/name                 OctLoc.c.b A Datatyp(siz) R M Lvl/name

     0-0-0/w SBIN        r     1 LEX_LX_TOP

PL6.E3A0      #005=LEX_SEMANTICS File=LR_NRGRAM.:Z8A6TSI                         SAT 08/09/97 09:41 Page:322
  ****  Section 005 LblCom LEX_LX_STK

  ****  Scalars and arrays  ****
OctLoc.c.b A Datatyp(siz) R M Lvl/name                 OctLoc.c.b A Datatyp(siz) R M Lvl/name

     0-0-0/w STRC(216)   r     1 LEX_LX_STK(0:50)

  ****  Section 006 LblCom OUT_DCBN

  ****  Scalars and arrays  ****
OctLoc.c.b A Datatyp(siz) R M Lvl/name                 OctLoc.c.b A Datatyp(siz) R M Lvl/name

     0-0-0/w SBIN              1 OUT_DCBN

  ****  Section 012 LblCom SYM_PTRS

  ****  Scalars and arrays  ****
OctLoc.c.b A Datatyp(siz) R M Lvl/name                 OctLoc.c.b A Datatyp(siz) R M Lvl/name

     0-0-0/w PTR               1 SYM_PTRS(0:1400)

  ****  Section 013 LblCom RIGHT_PARTS

  ****  Scalars and arrays  ****
OctLoc.c.b A Datatyp(siz) R M Lvl/name                 OctLoc.c.b A Datatyp(siz) R M Lvl/name

     0-0-0/h SBIN(18)          1 RIGHT_PARTS(0:8000)

  ****  Section 014 LblCom PROD

  ****  Scalars and arrays  ****
OctLoc.c.b A Datatyp(siz) R M Lvl/name                 OctLoc.c.b A Datatyp(siz) R M Lvl/name

     0-0-0/h STRC(72)          1 PROD(0:1500)

  ****  Section 015 LblCom NR_PROD

PL6.E3A0      #005=LEX_SEMANTICS File=LR_NRGRAM.:Z8A6TSI                         SAT 08/09/97 09:41 Page:323
  ****  Scalars and arrays  ****
OctLoc.c.b A Datatyp(siz) R M Lvl/name                 OctLoc.c.b A Datatyp(siz) R M Lvl/name

     0-0-0/w SBIN              1 NR_PROD

  ****  Section 016 LblCom NR_SYMS

  ****  Scalars and arrays  ****
OctLoc.c.b A Datatyp(siz) R M Lvl/name                 OctLoc.c.b A Datatyp(siz) R M Lvl/name

     0-0-0/w SBIN              1 NR_SYMS

  ****  Section 017 LblCom NR_TERM

  ****  Scalars and arrays  ****
OctLoc.c.b A Datatyp(siz) R M Lvl/name                 OctLoc.c.b A Datatyp(siz) R M Lvl/name

     0-0-0/w SBIN              1 NR_TERM

  ****  Section 018 LblCom LAST_ACT

  ****  Scalars and arrays  ****
OctLoc.c.b A Datatyp(siz) R M Lvl/name                 OctLoc.c.b A Datatyp(siz) R M Lvl/name

     0-0-0/w SBIN              1 LAST_ACT

  ****  Section 019 LblCom LAST_NULL

  ****  Scalars and arrays  ****
OctLoc.c.b A Datatyp(siz) R M Lvl/name                 OctLoc.c.b A Datatyp(siz) R M Lvl/name

     0-0-0/w SBIN              1 LAST_NULL

  ****  Section 020 LblCom NR_ONRIGHT

  ****  Scalars and arrays  ****
OctLoc.c.b A Datatyp(siz) R M Lvl/name                 OctLoc.c.b A Datatyp(siz) R M Lvl/name
PL6.E3A0      #005=LEX_SEMANTICS File=LR_NRGRAM.:Z8A6TSI                         SAT 08/09/97 09:41 Page:324

     0-0-0/w SBIN              1 NR_ONRIGHT

  ****  Section 021 LblCom NR_NT

  ****  Scalars and arrays  ****
OctLoc.c.b A Datatyp(siz) R M Lvl/name                 OctLoc.c.b A Datatyp(siz) R M Lvl/name

     0-0-0/w SBIN              1 NR_NT

  ****  Section 022 LblCom PROD_LEN_MAX_EVER

  ****  Scalars and arrays  ****
OctLoc.c.b A Datatyp(siz) R M Lvl/name                 OctLoc.c.b A Datatyp(siz) R M Lvl/name

     0-0-0/w SBIN              1 PROD_LEN_MAX_EVER

  ****  Section 023 LblCom LAST_ORDER_SPECIFIED

  ****  Scalars and arrays  ****
OctLoc.c.b A Datatyp(siz) R M Lvl/name                 OctLoc.c.b A Datatyp(siz) R M Lvl/name

     0-0-0/w SBIN              1 LAST_ORDER_SPECIFIED

  ****  Section 024 LblCom SEMANTIC_ORDERING

  ****  Scalars and arrays  ****
OctLoc.c.b A Datatyp(siz) R M Lvl/name                 OctLoc.c.b A Datatyp(siz) R M Lvl/name

     0-0-0/b BIT               1 SEMANTIC_ORDERING

  ****  Section 025 LblCom ERR_SEV

  ****  Scalars and arrays  ****
OctLoc.c.b A Datatyp(siz) R M Lvl/name                 OctLoc.c.b A Datatyp(siz) R M Lvl/name

     0-0-0/w SBIN              1 ERR_SEV
PL6.E3A0      #005=LEX_SEMANTICS File=LR_NRGRAM.:Z8A6TSI                         SAT 08/09/97 09:41 Page:325

  ****  Section 026 LblCom SET_LENGTHB

  ****  Scalars and arrays  ****
OctLoc.c.b A Datatyp(siz) R M Lvl/name                 OctLoc.c.b A Datatyp(siz) R M Lvl/name

     0-0-0/w SBIN              1 SET_LENGTHB

  ****  Section 027 LblCom SET_LENGTHW

  ****  Scalars and arrays  ****
OctLoc.c.b A Datatyp(siz) R M Lvl/name                 OctLoc.c.b A Datatyp(siz) R M Lvl/name

     0-0-0/w SBIN              1 SET_LENGTHW

  ****  Section 028 LblCom EOF_SYMBOL_PTR

  ****  Scalars and arrays  ****
OctLoc.c.b A Datatyp(siz) R M Lvl/name                 OctLoc.c.b A Datatyp(siz) R M Lvl/name

     0-0-0/w PTR               1 EOF_SYMBOL_PTR

  ****  Section 029 LblCom ERROR_SYMBOL_PTR

  ****  Scalars and arrays  ****
OctLoc.c.b A Datatyp(siz) R M Lvl/name                 OctLoc.c.b A Datatyp(siz) R M Lvl/name

     0-0-0/w PTR               1 ERROR_SYMBOL_PTR

  ****  Section 030 LblCom BOF_SYMBOL_PTR

  ****  Scalars and arrays  ****
OctLoc.c.b A Datatyp(siz) R M Lvl/name                 OctLoc.c.b A Datatyp(siz) R M Lvl/name

     0-0-0/w PTR               1 BOF_SYMBOL_PTR

  ****  Section 031 LblCom OPTIONS
PL6.E3A0      #005=LEX_SEMANTICS File=LR_NRGRAM.:Z8A6TSI                         SAT 08/09/97 09:41 Page:326

  ****  Scalars and arrays  ****
OctLoc.c.b A Datatyp(siz) R M Lvl/name                 OctLoc.c.b A Datatyp(siz) R M Lvl/name

     0-0-0/b BIT         r     1 OPTIONS(0:25)

  ****  Section 032 LblCom OPTIONS_TEXT

  ****  Scalars and arrays  ****
OctLoc.c.b A Datatyp(siz) R M Lvl/name                 OctLoc.c.b A Datatyp(siz) R M Lvl/name

     0-0-0/c CHAR(4)           1 OPTIONS_TEXT(0:25)

  ****  Section 033 LblCom INSTR

  ****  Scalars and arrays  ****
OctLoc.c.b A Datatyp(siz) R M Lvl/name                 OctLoc.c.b A Datatyp(siz) R M Lvl/name

     0-0-0/c CHAR        r     1 INSTR(0:511)               0-0-0/c CHAR(512)         1 INSTRCHR

  ****  Section 034 LblCom INSTR_LISTED

  ****  Scalars and arrays  ****
OctLoc.c.b A Datatyp(siz) R M Lvl/name                 OctLoc.c.b A Datatyp(siz) R M Lvl/name

     0-0-0/b BIT               1 INSTR_LISTED

  ****  Section 035 LblCom INSTR_LEN

  ****  Scalars and arrays  ****
OctLoc.c.b A Datatyp(siz) R M Lvl/name                 OctLoc.c.b A Datatyp(siz) R M Lvl/name

     0-0-0/w SBIN              1 INSTR_LEN

  ****  Section 036 LblCom INSTR_INDX

  ****  Scalars and arrays  ****
PL6.E3A0      #005=LEX_SEMANTICS File=LR_NRGRAM.:Z8A6TSI                         SAT 08/09/97 09:41 Page:327
OctLoc.c.b A Datatyp(siz) R M Lvl/name                 OctLoc.c.b A Datatyp(siz) R M Lvl/name

     0-0-0/w SBIN              1 INSTR_INDX

  ****  Section 037 LblCom EOF_FLAG

  ****  Scalars and arrays  ****
OctLoc.c.b A Datatyp(siz) R M Lvl/name                 OctLoc.c.b A Datatyp(siz) R M Lvl/name

     0-0-0/b BIT               1 EOF_FLAG

  ****  Section 038 LblCom KEY_REC

  ****  Scalars and arrays  ****
OctLoc.c.b A Datatyp(siz) R M Lvl/name                 OctLoc.c.b A Datatyp(siz) R M Lvl/name

     0-0-0/c CHAR(10)    r     1 KEY_REC

  ****  Section 039 LblCom LINE

  ****  Scalars and arrays  ****
OctLoc.c.b A Datatyp(siz) R M Lvl/name                 OctLoc.c.b A Datatyp(siz) R M Lvl/name

     0-0-0/c CHAR(109)         1 LINE

  ****  Section 040 LblCom LINELEN

  ****  Scalars and arrays  ****
OctLoc.c.b A Datatyp(siz) R M Lvl/name                 OctLoc.c.b A Datatyp(siz) R M Lvl/name

     0-0-0/w SBIN              1 LINELEN

  ****  Section 041 LblCom TSTATS

  ****  Scalars and arrays  ****
OctLoc.c.b A Datatyp(siz) R M Lvl/name                 OctLoc.c.b A Datatyp(siz) R M Lvl/name

PL6.E3A0      #005=LEX_SEMANTICS File=LR_NRGRAM.:Z8A6TSI                         SAT 08/09/97 09:41 Page:328
     0-0-0/w STRC(7380)        1 TSTATS

  ****  Section 042 LblCom LEX_REMEMBER

  ****  Scalars and arrays  ****
OctLoc.c.b A Datatyp(siz) R M Lvl/name                 OctLoc.c.b A Datatyp(siz) R M Lvl/name

     0-0-0/d REMB        r     1 LEX_REMEMBER

  ****  Section 043 LblCom P_TOKEN

  ****  Scalars and arrays  ****
OctLoc.c.b A Datatyp(siz) R M Lvl/name                 OctLoc.c.b A Datatyp(siz) R M Lvl/name

     0-0-0/w PTR         r     1 P_TOKEN

  ****  Section 044 LblCom SYMSTART

  ****  Scalars and arrays  ****
OctLoc.c.b A Datatyp(siz) R M Lvl/name                 OctLoc.c.b A Datatyp(siz) R M Lvl/name

     0-0-0/w SBIN        r     1 SYMSTART

  ****  Section 045 LblCom LASTCOLUMN

  ****  Scalars and arrays  ****
OctLoc.c.b A Datatyp(siz) R M Lvl/name                 OctLoc.c.b A Datatyp(siz) R M Lvl/name

     0-0-0/w SBIN        r     1 LASTCOLUMN

  ****  Section 046 LblCom LASTCARD

  ****  Scalars and arrays  ****
OctLoc.c.b A Datatyp(siz) R M Lvl/name                 OctLoc.c.b A Datatyp(siz) R M Lvl/name

     0-0-0/w SBIN              1 LASTCARD

PL6.E3A0      #005=LEX_SEMANTICS File=LR_NRGRAM.:Z8A6TSI                         SAT 08/09/97 09:41 Page:329
  ****  Auto variables  ****

  ****  Scalars and arrays  ****
OctLoc.c.b A Datatyp(siz) R M Lvl/name                 OctLoc.c.b A Datatyp(siz) R M Lvl/name

     3-0-0/w PTR         r     1 @ACTION                   *0-0-0/w SBIN        r     1 ACTION
    52-0-0/c CHAR(5)     r     1 COLUMN_CHAR               54-0-0/w SBIN        r     1 I
    51-0-0/w PTR         r     1 NEW$                      55-0-0/w SBIN        r     1 NEWLEN
     4-0-0/w SBIN        r     1 SYMBOL_START               5-0-0/w SBIN        r     1 SYMLEN
     6-0-0/c CHAR(140)   r     1 TEXTCHAR
     6-0-0/w SBIN              1 TEXTWORD(0:34)

  ****  BASED and DCB variables  ****

  ****  Scalars and arrays  ****
OctLoc.c.b A Datatyp(siz) R M Lvl/name                 OctLoc.c.b A Datatyp(siz) R M Lvl/name

     0-0-0/w ASTR        r     1 DNT                        0-0-0/w STRC(216)         1 LEX_LX_ITEM
     0-0-0/w STRC(216)   r     1 LX_ITEM                    0-0-0N  NULL        r     1 M$LO
     0-0-0N  NULL        r     1 M$OU                       0-0-0N  NULL        r     1 M$SI
     0-0-0N  NULL        r     1 M$SO                       0-0-0N  NULL        r     1 M$UI
     0-0-0/w STRC(351)         1 SYMBOL


   Procedure LEX_SEMANTICS requires 1395 words for executable code.
   Procedure LEX_SEMANTICS requires 52 words of local(AUTO) storage.

PL6.E3A0      #006=SCAN File=LR_NRGRAM.:Z8A6TSI                                  SAT 08/09/97 09:43 Page:330
      784        1        /*M* SCAN PROCEDURE */
      785        2        /*T***********************************************************/
      786        3        /*T*                                                         */
      787        4        /*T* Copyright (c) Bull HN Information Systems Inc., 1997    */
      788        5        /*T*                                                         */
      789        6        /*T***********************************************************/
      790        7
      791        8
      792        9        /*P*
      793       10             NAME: SCAN
      794       11          PURPOSE: SCAN OFF A CHARACTER FROM THE INPUT STREAM
      795       12        */
      796       13
      797       14
      798       15
      799       16         SCAN: PROC(TOKEN);
      800       17
      801       18
      802       19
      803       20        /*D*
      804       21               NAME: SCAN
      805       22        DESCRIPTION: Scan off a character from the input stream.
      806       23                     Return it as a token to the lexical parser.
      807       24        */
      808       25
      809       26
      810       27    1    DCL TOKEN PTR;
      811       28
      812       29         %INCLUDE LRX_SUBS;
      813       77        %SET KLUDGE_FLAG = '1'B;
      814       78         %INCLUDE PARSER_STACK;
      815      132         %INCLUDE LR_GRAM_EXT;
      816      671
      817      672    1    DCL INPUT ENTRY(3);
      818      673    1    DCL FORCE_LIST ENTRY;
      819      674    1    DCL SYMSTART SBIN WORD EXT;
      820      675    1     DCL SAVE_INSTR_LEN SBIN WORD;
PL6.E3A0      #006=SCAN File=LR_NRGRAM.:Z8A6TSI                                  SAT 08/09/97 09:43 Page:331
      821      676
      822      677         %SUB EOF_SYMBOL = 99;
      823      678         %SUB EOL_SYMBOL = 97;
      824      679        %SUB NONPRINTABLE_SYMBOL = 96;
      825      680
      826      681    1    DCL LINE# SBIN STATIC INIT(0); /* CONTAINS LINE NUMBER */
      827      682
      828      683    1    IF INSTR_INDX > INSTR_LEN  /* LOOKED AT EVERY CHAR ? */
      829      684    1       OR  EOF_FLAG
      830      685    2    THEN DO;
      831      686    2         INSTR_INDX = 0;
      832      687    2         SAVE_INSTR_LEN = INSTR_LEN;
      833      688    2         IF NOT EOF_FLAG
      834      689    3         THEN DO;
      835      690    3              CALL INPUT(INSTR,INSTR_LEN,KEY_REC);
      836      691    3         END;
      837      692    2         IF INSTR_LEN < 1
      838      693    2            OR EOF_FLAG
      839      694    3         THEN DO;
      840      695    3              EOF_FLAG = TRUE;
      841      696    3              TOKEN -> LEX_LX_ITEM.DNTPTR = ADDR(NIL);
      842      697    3              TOKEN -> LEX_LX_ITEM.SYMPTR = ADDR(NIL);
      843      698    3              TOKEN -> LEX_LX_ITEM.SYMBOL = EOF_SYMBOL;
      844      699    3              TOKEN -> LEX_LX_ITEM.LINE = LINE# + 1;
      845      700    3              TOKEN -> LEX_LX_ITEM.COLUMN = 0;
      846      701    3              IF NOT INSTR_LISTED /* MAYBE WILL LIST DUE TO ERRORS */
      847      702    4              THEN DO;
      848      703    4                   INSTR_LEN = SAVE_INSTR_LEN;
      849      704    4                   INSTR_INDX = INSTR_LEN + 1;
      850      705    4              END;
      851      706    3              RETURN;
      852      707    3         END;
      853      708    2         LINE# = LINE# + 1;
      854      709    2         INSTR_LISTED = FALSE;
      855      710    2         IF OPTIONS(LS_OPT)
      856      711    2         THEN CALL FORCE_LIST;
      857      712    2    END /* OF LOOKING AT NEW CARD */ ;
PL6.E3A0      #006=SCAN File=LR_NRGRAM.:Z8A6TSI                                  SAT 08/09/97 09:43 Page:332
      858      713    1    ELSE IF INSTR_INDX = INSTR_LEN /* JUST FINISHED EVERY CHAR */
      859      714    2         THEN DO;
      860      715    2              TOKEN -> LEX_LX_ITEM.DNTPTR = ADDR(NIL);
      861      716    2              TOKEN -> LEX_LX_ITEM.SYMPTR = ADDR(NIL);
      862      717    2              TOKEN -> LEX_LX_ITEM.SYMBOL = EOL_SYMBOL;
      863      718    2              TOKEN -> LEX_LX_ITEM.COLUMN = INSTR_INDX;
      864      719    2              INSTR_INDX = INSTR_INDX + 1;
      865      720    2              RETURN;
      866      721    2         END;
      867      722
      868      723    1    TOKEN -> LEX_LX_ITEM.DNTPTR = ADDR(NIL);
      869      724    1    TOKEN -> LEX_LX_ITEM.SYMPTR = ADDR(NIL);
      870      725    1    IF ASCBIN(INSTR(INSTR_INDX)) > 127
      871      726    1    THEN TOKEN -> LEX_LX_ITEM.SYMBOL = NONPRINTABLE_SYMBOL;
      872      727    1    ELSE IF ASCBIN(INSTR(INSTR_INDX)) < 32
      873      728    1         THEN TOKEN -> LEX_LX_ITEM.SYMBOL = NONPRINTABLE_SYMBOL;
      874      729    1         ELSE TOKEN -> LEX_LX_ITEM.SYMBOL =
      875      730    1                ASCBIN(INSTR(INSTR_INDX)) - 31;
      876      731    1    TOKEN -> LEX_LX_ITEM.COLUMN = INSTR_INDX + 1;
      877      732    1    TOKEN -> LEX_LX_ITEM.LINE = LINE#;
      878      733    1    INSTR_INDX = INSTR_INDX + 1;
      879      734    1   RETURN; /* END OF SCAN PORTION */
      880      735
      881      736
      882      737
      883      738
      884      739
      885      740    1   STRIP_PL6: ENTRY;
      886      741
      887      742    1   IF EOF_FLAG
      888      743    1   THEN RETURN; /* EVERYTHING ALREAD STRIPPED */
      889      744
      890      745    2   DO WHILE(TRUE);
      891      746    2      IF INSTR_INDX >= INSTR_LEN
      892      747    3      THEN DO; /*LOOKED AT EVERY CHAR */
      893      748    3           INSTR_INDX = 0;
      894      749    3           SAVE_INSTR_LEN = INSTR_LEN;
PL6.E3A0      #006=SCAN File=LR_NRGRAM.:Z8A6TSI                                  SAT 08/09/97 09:43 Page:333
      895      750    3           CALL INPUT(INSTR,INSTR_LEN,KEY_REC);
      896      751    3           IF INSTR_LEN < 1
      897      752    4           THEN DO;
      898      753    4                EOF_FLAG = TRUE;
      899      754    4                IF NOT INSTR_LISTED /* MAYBE WILL LIST DUE TO ERRORS */
      900      755    5                THEN DO;
      901      756    5                     INSTR_LEN = SAVE_INSTR_LEN;
      902      757    5                     INSTR_INDX = INSTR_LEN + 1;
      903      758    5                END;
      904      759    4                RETURN;
      905      760    4           END;
      906      761    3           LINE# = LINE# + 1;
      907      762    3           INSTR_LISTED = FALSE;
      908      763    3           IF OPTIONS(LS_OPT)
      909      764    3           THEN CALL FORCE_LIST;
      910      765    3      END;
      911      766    2      CALL INDEX(INSTR_INDX,'/*/',
      912      767    2                 SUBSTR(INSTRCHR,0,INSTR_LEN),INSTR_INDX);
      913      768    2      IF INSTR_INDX < INSTR_LEN
      914      769    3      THEN DO;
      915      770    3           SYMSTART = INSTR_INDX;
      916      771    3           RETURN;
      917      772    3      END;
      918      773    2   END;
      919      774    1   END SCAN;
      920      775        %EOD;

PL6.E3A0      #006=SCAN File=LR_NRGRAM.:Z8A6TSI                                  SAT 08/09/97 09:43 Page:334
--  Include file information  --

   LR_IO_EXT.:Z8A6TOU  cannot be made into a system file and is referenced.
   LR_GRAM_EXT.:Z8A6TOU  cannot be made into a system file and is referenced.
   PARSER_STACK.:Z8A6TOU  cannot be made into a system file and is referenced.
   LRX_SUBS.:Z8A6TOU  is referenced.
      No diagnostics issued in procedure SCAN.

   Procedure SCAN requires 160 words for executable code.
   Procedure SCAN requires 8 words of local(AUTO) storage.

PL6.E3A0      #006=SCAN File=LR_NRGRAM.:Z8A6TSI                                  SAT 08/09/97 09:43 Page:335

 Object Unit name= SCAN                                       File name= LR_NRGRAM.:Z8A6TOU
 UTS= AUG 09 '97 09:43:04.16 SAT                              Compiler= PL-6/E31         Sev=      00
 SharedLib= :SHARED_SYSTEM                                    Alt SharedLib=


    ****  Control sections  ****

 Sect   Type Bound  Init  Size OctSiz  Section name(segment info)
    0  LblCom even  none   306    462  LEX_LA_STK
    1  LblCom even  none     1      1  LEX_LX_TOP
    2  LblCom even  none   306    462  LEX_LX_STK
    3  LblCom even  none     1      1  OUT_DCBN
    4   DCB   even  none     0      0  M$OU
    5   DCB   even  none     0      0  M$SO
    6   DCB   even  none     0      0  M$LO
    7   DCB   even  none     0      0  M$SI
    8   DCB   even  none     0      0  M$UI
    9  LblCom even  none  1401   2571  SYM_PTRS
   10  LblCom even  none  4001   7641  RIGHT_PARTS
   11  LblCom even  none  3002   5672  PROD
   12  LblCom even  none     1      1  NR_PROD
   13  LblCom even  none     1      1  NR_SYMS
   14  LblCom even  none     1      1  NR_TERM
   15  LblCom even  none     1      1  LAST_ACT
   16  LblCom even  none     1      1  LAST_NULL
   17  LblCom even  none     1      1  NR_ONRIGHT
   18  LblCom even  none     1      1  NR_NT
   19  LblCom even  none     1      1  PROD_LEN_MAX_EVER
   20  LblCom even  none     1      1  LAST_ORDER_SPECIFIED
   21  LblCom even  none     1      1  SEMANTIC_ORDERING
   22  LblCom even  none     1      1  ERR_SEV
   23  LblCom even  none     1      1  SET_LENGTHB
   24  LblCom even  none     1      1  SET_LENGTHW
   25  LblCom even  none     1      1  EOF_SYMBOL_PTR
   26  LblCom even  none     1      1  ERROR_SYMBOL_PTR
   27  LblCom even  none     1      1  BOF_SYMBOL_PTR
   28  LblCom even  none     1      1  OPTIONS
PL6.E3A0      #006=SCAN File=LR_NRGRAM.:Z8A6TSI                                  SAT 08/09/97 09:43 Page:336
   29  LblCom even  none    26     32  OPTIONS_TEXT
   30  LblCom even  none   128    200  INSTR
   31  LblCom even  none     1      1  INSTR_LISTED
   32  LblCom even  none     1      1  INSTR_LEN
   33  LblCom even  none     1      1  INSTR_INDX
   34  LblCom even  none     1      1  EOF_FLAG
   35  LblCom even  none     3      3  KEY_REC
   36  LblCom even  none    28     34  LINE
   37  LblCom even  none     1      1  LINELEN
   38  LblCom even  none   205    315  TSTATS
   39  LblCom even  none     1      1  SYMSTART
   40   Data  even  none     1      1  SCAN
   41  RoData even  UTS      1      1  SCAN
   42   Proc  even  none   160    240  SCAN
   43  RoData even  none     6      6  SCAN

    ****  Entry defs  ****

                              Check   Calling
                             calling  sequence
  Sect OctLoc Primary Altret sequence   type   Parms  Name
    42      0   yes            yes      Std        1  SCAN
    42    162                  yes      Std        0  STRIP_PL6

  ****  Entry refs  ****

         Check        Calling
        calling       sequence
Altret sequence SRef   type   Args  Name
         yes           Std       3 INPUT
         yes           Std       0 FORCE_LIST
                       nStd      0 X66_AUTO_1
                       nStd      0 X66_ARET
                       nStd      0 X66_INDEX
PL6.E3A0      #006=SCAN File=LR_NRGRAM.:Z8A6TSI                                  SAT 08/09/97 09:43 Page:337

  ****  Data refs  ****

  Flags:  r = read only, s = secondary
Flgs Name                             Flgs Name                             Flgs Name
     M$OU                                  M$SO                                  M$LO
     M$SI                                  M$UI

  ****  Segment refs  ****

  Flags:  r = read only, s = secondary
Flgs Name                             Flgs Name                             Flgs Name
     NULLSID                               ISSID
PL6.E3A0      #006=SCAN File=LR_NRGRAM.:Z8A6TSI                                  SAT 08/09/97 09:43 Page:338


      784        1        /*M* SCAN PROCEDURE */
      785        2        /*T***********************************************************/
      786        3        /*T*                                                         */
      787        4        /*T* Copyright (c) Bull HN Information Systems Inc., 1997    */
      788        5        /*T*                                                         */
      789        6        /*T***********************************************************/
      790        7
      791        8
      792        9        /*P*
      793       10             NAME: SCAN
      794       11          PURPOSE: SCAN OFF A CHARACTER FROM THE INPUT STREAM
      795       12        */
      796       13
      797       14
      798       15
      799       16         SCAN: PROC(TOKEN);

     16 42 000000   000000 700200 xent  SCAN         TSX0  ! X66_AUTO_1
        42 000001   000010 000001                    ZERO    8,1

      800       17
      801       18
      802       19
      803       20        /*D*
      804       21               NAME: SCAN
      805       22        DESCRIPTION: Scan off a character from the input stream.
      806       23                     Return it as a token to the lexical parser.
      807       24        */
      808       25
      809       26
      810       27    1    DCL TOKEN PTR;
      811       28
      812       29         %INCLUDE LRX_SUBS;
      813       77        %SET KLUDGE_FLAG = '1'B;
      814       78         %INCLUDE PARSER_STACK;
      815      132         %INCLUDE LR_GRAM_EXT;
PL6.E3A0      #006=SCAN File=LR_NRGRAM.:Z8A6TSI                                  SAT 08/09/97 09:43 Page:339
      816      671
      817      672    1    DCL INPUT ENTRY(3);
      818      673    1    DCL FORCE_LIST ENTRY;
      819      674    1    DCL SYMSTART SBIN WORD EXT;
      820      675    1     DCL SAVE_INSTR_LEN SBIN WORD;
      821      676
      822      677         %SUB EOF_SYMBOL = 99;
      823      678         %SUB EOL_SYMBOL = 97;
      824      679        %SUB NONPRINTABLE_SYMBOL = 96;
      825      680
      826      681    1    DCL LINE# SBIN STATIC INIT(0); /* CONTAINS LINE NUMBER */
      827      682
      828      683    1    IF INSTR_INDX > INSTR_LEN  /* LOOKED AT EVERY CHAR ? */

    683 42 000002   000000 236000 33                 LDQ     INSTR_INDX
        42 000003   000000 116000 32                 CMPQ    INSTR_LEN
        42 000004   000007 605400 42                 TPNZ    s:686
        42 000005   000000 234000 34                 SZN     EOF_FLAG
        42 000006   000065 605000 42                 TPL     s:713

      829      684    1       OR  EOF_FLAG
      830      685    2    THEN DO;

      831      686    2         INSTR_INDX = 0;

    686 42 000007   000000 450000 33                 STZ     INSTR_INDX

      832      687    2         SAVE_INSTR_LEN = INSTR_LEN;

    687 42 000010   000000 235000 32                 LDA     INSTR_LEN
        42 000011   200004 755100                    STA     SAVE_INSTR_LEN,,AUTO

      833      688    2         IF NOT EOF_FLAG

    688 42 000012   000000 234000 34                 SZN     EOF_FLAG
        42 000013   000020 604000 42                 TMI     s:692

PL6.E3A0      #006=SCAN File=LR_NRGRAM.:Z8A6TSI                                  SAT 08/09/97 09:43 Page:340
      834      689    3         THEN DO;

      835      690    3              CALL INPUT(INSTR,INSTR_LEN,KEY_REC);

    690 42 000014   000001 630400 43                 EPPR0   1
        42 000015   000000 631400 43                 EPPR1   0
        42 000016   000000 701000 xent               TSX1    INPUT
        42 000017   000000 011000                    NOP     0

      836      691    3         END;

      837      692    2         IF INSTR_LEN < 1

    692 42 000020   000000 235000 32                 LDA     INSTR_LEN
        42 000021   000024 604400 42                 TMOZ    s:695
        42 000022   000000 234000 34                 SZN     EOF_FLAG
        42 000023   000055 605000 42                 TPL     s:708

      838      693    2            OR EOF_FLAG
      839      694    3         THEN DO;

      840      695    3              EOF_FLAG = TRUE;

    695 42 000024   400000 236003                    LDQ     -131072,DU
        42 000025   000000 756000 34                 STQ     EOF_FLAG

      841      696    3              TOKEN -> LEX_LX_ITEM.DNTPTR = ADDR(NIL);

    696 42 000026   200003 470500                    LDP0    @TOKEN,,AUTO
        42 000027   000000 471500                    LDP1    0,,PR0
        42 000030   000004 236000 43                 LDQ     4
        42 000031   100003 756100                    STQ     3,,PR1

      842      697    3              TOKEN -> LEX_LX_ITEM.SYMPTR = ADDR(NIL);

    697 42 000032   000000 471500                    LDP1    0,,PR0
        42 000033   000004 236000 43                 LDQ     4
PL6.E3A0      #006=SCAN File=LR_NRGRAM.:Z8A6TSI                                  SAT 08/09/97 09:43 Page:341
        42 000034   100004 756100                    STQ     4,,PR1

      843      698    3              TOKEN -> LEX_LX_ITEM.SYMBOL = EOF_SYMBOL;

    698 42 000035   000000 471500                    LDP1    0,,PR0
        42 000036   000143 236007                    LDQ     99,DL
        42 000037   100000 756100                    STQ     0,,PR1

      844      699    3              TOKEN -> LEX_LX_ITEM.LINE = LINE# + 1;

    699 42 000040   000000 471500                    LDP1    0,,PR0
        42 000041   000000 235000 40                 LDA     LINE#
        42 000042   000001 035007                    ADLA    1,DL
        42 000043   100001 755100                    STA     1,,PR1

      845      700    3              TOKEN -> LEX_LX_ITEM.COLUMN = 0;

    700 42 000044   000000 471500                    LDP1    0,,PR0
        42 000045   100002 450100                    STZ     2,,PR1

      846      701    3              IF NOT INSTR_LISTED /* MAYBE WILL LIST DUE TO ERRORS */

    701 42 000046   000000 234000 31                 SZN     INSTR_LISTED
        42 000047   000054 604000 42                 TMI     s:706

      847      702    4              THEN DO;

      848      703    4                   INSTR_LEN = SAVE_INSTR_LEN;

    703 42 000050   200004 235100                    LDA     SAVE_INSTR_LEN,,AUTO
        42 000051   000000 755000 32                 STA     INSTR_LEN

      849      704    4                   INSTR_INDX = INSTR_LEN + 1;

    704 42 000052   000001 035007                    ADLA    1,DL
        42 000053   000000 755000 33                 STA     INSTR_INDX

PL6.E3A0      #006=SCAN File=LR_NRGRAM.:Z8A6TSI                                  SAT 08/09/97 09:43 Page:342
      850      705    4              END;

      851      706    3              RETURN;

    706 42 000054   000000 702200 xent               TSX2  ! X66_ARET

      852      707    3         END;
      853      708    2         LINE# = LINE# + 1;

    708 42 000055   000000 054000 40                 AOS     LINE#

      854      709    2         INSTR_LISTED = FALSE;

    709 42 000056   000000 450000 31                 STZ     INSTR_LISTED

      855      710    2         IF OPTIONS(LS_OPT)

    710 42 000057   000000 234000 28                 SZN     OPTIONS
        42 000060   000106 605000 42                 TPL     s:723

      856      711    2         THEN CALL FORCE_LIST;

    711 42 000061   000005 631400 43                 EPPR1   5
        42 000062   000000 701000 xent               TSX1    FORCE_LIST
        42 000063   000000 011000                    NOP     0

      857      712    2    END /* OF LOOKING AT NEW CARD */ ;

    712 42 000064   000106 710000 42                 TRA     s:723

      858      713    1    ELSE IF INSTR_INDX = INSTR_LEN /* JUST FINISHED EVERY CHAR */

    713 42 000065   000000 116000 32                 CMPQ    INSTR_LEN
        42 000066   000106 601000 42                 TNZ     s:723

      859      714    2         THEN DO;

PL6.E3A0      #006=SCAN File=LR_NRGRAM.:Z8A6TSI                                  SAT 08/09/97 09:43 Page:343
      860      715    2              TOKEN -> LEX_LX_ITEM.DNTPTR = ADDR(NIL);

    715 42 000067   200003 470500                    LDP0    @TOKEN,,AUTO
        42 000070   000000 471500                    LDP1    0,,PR0
        42 000071   000004 236000 43                 LDQ     4
        42 000072   100003 756100                    STQ     3,,PR1

      861      716    2              TOKEN -> LEX_LX_ITEM.SYMPTR = ADDR(NIL);

    716 42 000073   000000 471500                    LDP1    0,,PR0
        42 000074   000004 236000 43                 LDQ     4
        42 000075   100004 756100                    STQ     4,,PR1

      862      717    2              TOKEN -> LEX_LX_ITEM.SYMBOL = EOL_SYMBOL;

    717 42 000076   000000 471500                    LDP1    0,,PR0
        42 000077   000141 235007                    LDA     97,DL
        42 000100   100000 755100                    STA     0,,PR1

      863      718    2              TOKEN -> LEX_LX_ITEM.COLUMN = INSTR_INDX;

    718 42 000101   000000 471500                    LDP1    0,,PR0
        42 000102   000000 236000 33                 LDQ     INSTR_INDX
        42 000103   100002 756100                    STQ     2,,PR1

      864      719    2              INSTR_INDX = INSTR_INDX + 1;

    719 42 000104   000000 054000 33                 AOS     INSTR_INDX

      865      720    2              RETURN;

    720 42 000105   000000 702200 xent               TSX2  ! X66_ARET

      866      721    2         END;
      867      722
      868      723    1    TOKEN -> LEX_LX_ITEM.DNTPTR = ADDR(NIL);

PL6.E3A0      #006=SCAN File=LR_NRGRAM.:Z8A6TSI                                  SAT 08/09/97 09:43 Page:344
    723 42 000106   200003 470500                    LDP0    @TOKEN,,AUTO
        42 000107   000000 471500                    LDP1    0,,PR0
        42 000110   000004 236000 43                 LDQ     4
        42 000111   100003 756100                    STQ     3,,PR1

      869      724    1    TOKEN -> LEX_LX_ITEM.SYMPTR = ADDR(NIL);

    724 42 000112   000000 471500                    LDP1    0,,PR0
        42 000113   000004 236000 43                 LDQ     4
        42 000114   100004 756100                    STQ     4,,PR1

      870      725    1    IF ASCBIN(INSTR(INSTR_INDX)) > 127

    725 42 000115   000000 235000 33                 LDA     INSTR_INDX
        42 000116   000100 101405                    MRL     fill='000'O
        42 000117   000000 000001 30                 ADSC9   INSTR,A                  cn=0,n=1
        42 000120   200006 000004                    ADSC9   SAVE_INSTR_LEN+2,,AUTO   cn=0,n=4
        42 000121   200006 236100                    LDQ     SAVE_INSTR_LEN+2,,AUTO
        42 000122   000200 116007                    CMPQ    128,DL
        42 000123   000130 602000 42                 TNC     s:727

      871      726    1    THEN TOKEN -> LEX_LX_ITEM.SYMBOL = NONPRINTABLE_SYMBOL;

    726 42 000124   000000 471500                    LDP1    0,,PR0
        42 000125   000140 236007                    LDQ     96,DL
        42 000126   100000 756100                    STQ     0,,PR1
        42 000127   000151 710000 42                 TRA     s:731

      872      727    1    ELSE IF ASCBIN(INSTR(INSTR_INDX)) < 32

    727 42 000130   000100 101405                    MRL     fill='000'O
        42 000131   000000 000001 30                 ADSC9   INSTR,A                  cn=0,n=1
        42 000132   200006 000004                    ADSC9   SAVE_INSTR_LEN+2,,AUTO   cn=0,n=4
        42 000133   200006 236100                    LDQ     SAVE_INSTR_LEN+2,,AUTO
        42 000134   000040 116007                    CMPQ    32,DL
        42 000135   000142 603000 42                 TRC     s:729

PL6.E3A0      #006=SCAN File=LR_NRGRAM.:Z8A6TSI                                  SAT 08/09/97 09:43 Page:345
      873      728    1         THEN TOKEN -> LEX_LX_ITEM.SYMBOL = NONPRINTABLE_SYMBOL;

    728 42 000136   000000 471500                    LDP1    0,,PR0
        42 000137   000140 236007                    LDQ     96,DL
        42 000140   100000 756100                    STQ     0,,PR1
        42 000141   000151 710000 42                 TRA     s:731

      874      729    1         ELSE TOKEN -> LEX_LX_ITEM.SYMBOL =

    729 42 000142   000000 471500                    LDP1    0,,PR0
        42 000143   000100 101405                    MRL     fill='000'O
        42 000144   000000 000001 30                 ADSC9   INSTR,A                  cn=0,n=1
        42 000145   200006 000004                    ADSC9   SAVE_INSTR_LEN+2,,AUTO   cn=0,n=4
        42 000146   200006 236100                    LDQ     SAVE_INSTR_LEN+2,,AUTO
        42 000147   000037 136007                    SBLQ    31,DL
        42 000150   100000 756100                    STQ     0,,PR1

      875      730    1                ASCBIN(INSTR(INSTR_INDX)) - 31;
      876      731    1    TOKEN -> LEX_LX_ITEM.COLUMN = INSTR_INDX + 1;

    731 42 000151   000000 471500                    LDP1    0,,PR0
        42 000152   000000 235000 33                 LDA     INSTR_INDX
        42 000153   000001 035007                    ADLA    1,DL
        42 000154   100002 755100                    STA     2,,PR1

      877      732    1    TOKEN -> LEX_LX_ITEM.LINE = LINE#;

    732 42 000155   000000 471500                    LDP1    0,,PR0
        42 000156   000000 236000 40                 LDQ     LINE#
        42 000157   100001 756100                    STQ     1,,PR1

      878      733    1    INSTR_INDX = INSTR_INDX + 1;

    733 42 000160   000000 054000 33                 AOS     INSTR_INDX

      879      734    1   RETURN; /* END OF SCAN PORTION */

PL6.E3A0      #006=SCAN File=LR_NRGRAM.:Z8A6TSI                                  SAT 08/09/97 09:43 Page:346
    734 42 000161   000000 702200 xent               TSX2  ! X66_ARET

      880      735
      881      736
      882      737
      883      738
      884      739
      885      740    1   STRIP_PL6: ENTRY;

    740 42 000162   000000 700200 xent  STRIP_PL6    TSX0  ! X66_AUTO_1
        42 000163   000010 000001                    ZERO    8,1

      886      741
      887      742    1   IF EOF_FLAG

    742 42 000164   000000 234000 34                 SZN     EOF_FLAG
        42 000165   000167 605000 42                 TPL     s:746

      888      743    1   THEN RETURN; /* EVERYTHING ALREAD STRIPPED */

    743 42 000166   000000 702200 xent               TSX2  ! X66_ARET

      889      744
      890      745    2   DO WHILE(TRUE);

      891      746    2      IF INSTR_INDX >= INSTR_LEN

    746 42 000167   000000 236000 33                 LDQ     INSTR_INDX
        42 000170   000000 116000 32                 CMPQ    INSTR_LEN
        42 000171   000223 604000 42                 TMI     s:766

      892      747    3      THEN DO; /*LOOKED AT EVERY CHAR */

      893      748    3           INSTR_INDX = 0;

    748 42 000172   000000 450000 33                 STZ     INSTR_INDX

PL6.E3A0      #006=SCAN File=LR_NRGRAM.:Z8A6TSI                                  SAT 08/09/97 09:43 Page:347
      894      749    3           SAVE_INSTR_LEN = INSTR_LEN;

    749 42 000173   000000 235000 32                 LDA     INSTR_LEN
        42 000174   200004 755100                    STA     SAVE_INSTR_LEN,,AUTO

      895      750    3           CALL INPUT(INSTR,INSTR_LEN,KEY_REC);

    750 42 000175   000001 630400 43                 EPPR0   1
        42 000176   000000 631400 43                 EPPR1   0
        42 000177   000000 701000 xent               TSX1    INPUT
        42 000200   000000 011000                    NOP     0

      896      751    3           IF INSTR_LEN < 1

    751 42 000201   000000 235000 32                 LDA     INSTR_LEN
        42 000202   000214 605400 42                 TPNZ    s:761

      897      752    4           THEN DO;

      898      753    4                EOF_FLAG = TRUE;

    753 42 000203   400000 236003                    LDQ     -131072,DU
        42 000204   000000 756000 34                 STQ     EOF_FLAG

      899      754    4                IF NOT INSTR_LISTED /* MAYBE WILL LIST DUE TO ERRORS */

    754 42 000205   000000 234000 31                 SZN     INSTR_LISTED
        42 000206   000213 604000 42                 TMI     s:759

      900      755    5                THEN DO;

      901      756    5                     INSTR_LEN = SAVE_INSTR_LEN;

    756 42 000207   200004 235100                    LDA     SAVE_INSTR_LEN,,AUTO
        42 000210   000000 755000 32                 STA     INSTR_LEN

      902      757    5                     INSTR_INDX = INSTR_LEN + 1;
PL6.E3A0      #006=SCAN File=LR_NRGRAM.:Z8A6TSI                                  SAT 08/09/97 09:43 Page:348

    757 42 000211   000001 035007                    ADLA    1,DL
        42 000212   000000 755000 33                 STA     INSTR_INDX

      903      758    5                END;

      904      759    4                RETURN;

    759 42 000213   000000 702200 xent               TSX2  ! X66_ARET

      905      760    4           END;
      906      761    3           LINE# = LINE# + 1;

    761 42 000214   000000 054000 40                 AOS     LINE#

      907      762    3           INSTR_LISTED = FALSE;

    762 42 000215   000000 450000 31                 STZ     INSTR_LISTED

      908      763    3           IF OPTIONS(LS_OPT)

    763 42 000216   000000 234000 28                 SZN     OPTIONS
        42 000217   000223 605000 42                 TPL     s:766

      909      764    3           THEN CALL FORCE_LIST;

    764 42 000220   000005 631400 43                 EPPR1   5
        42 000221   000000 701000 xent               TSX1    FORCE_LIST
        42 000222   000000 011000                    NOP     0

      910      765    3      END;

      911      766    2      CALL INDEX(INSTR_INDX,'/*/',

    766 42 000223   000000 631400 33                 EPPR1   INSTR_INDX
        42 000224   000000 633400 41                 EPPR3   0
        42 000225   000003 223003                    LDX3    3,DU
PL6.E3A0      #006=SCAN File=LR_NRGRAM.:Z8A6TSI                                  SAT 08/09/97 09:43 Page:349
        42 000226   000000 630400 30                 EPPR0   INSTR
        42 000227   000000 720000 32                 LXL0    INSTR_LEN
        42 000230   000000 236000 33                 LDQ     INSTR_INDX
        42 000231   000000 701000 xent               TSX1    X66_INDEX
        42 000232   000000 011000                    NOP     0

      912      767    2                 SUBSTR(INSTRCHR,0,INSTR_LEN),INSTR_INDX);
      913      768    2      IF INSTR_INDX < INSTR_LEN

    768 42 000233   000000 236000 33                 LDQ     INSTR_INDX
        42 000234   000000 116000 32                 CMPQ    INSTR_LEN
        42 000235   000167 605000 42                 TPL     s:746

      914      769    3      THEN DO;

      915      770    3           SYMSTART = INSTR_INDX;

    770 42 000236   000000 756000 39                 STQ     SYMSTART

      916      771    3           RETURN;

    771 42 000237   000000 702200 xent               TSX2  ! X66_ARET
      917      772    3      END;
      918      773    2   END;
      919      774    1   END SCAN;
      920      775        %EOD;

PL6.E3A0      #006=SCAN File=LR_NRGRAM.:Z8A6TSI                                  SAT 08/09/97 09:43 Page:350
--  Include file information  --

   LR_IO_EXT.:Z8A6TOU  cannot be made into a system file and is referenced.
   LR_GRAM_EXT.:Z8A6TOU  cannot be made into a system file and is referenced.
   PARSER_STACK.:Z8A6TOU  cannot be made into a system file and is referenced.
   LRX_SUBS.:Z8A6TOU  is referenced.
      No diagnostics issued in procedure SCAN.
PL6.E3A0      #006=SCAN File=LR_NRGRAM.:Z8A6TSI                                  SAT 08/09/97 09:43 Page:351

 **** Variables and constants ****

  ****  Section 000 LblCom LEX_LA_STK

  ****  Scalars and arrays  ****
OctLoc.c.b A Datatyp(siz) R M Lvl/name                 OctLoc.c.b A Datatyp(siz) R M Lvl/name

     0-0-0/w STRC(216)         1 LEX_LA_STK(0:50)

  ****  Section 001 LblCom LEX_LX_TOP

  ****  Scalars and arrays  ****
OctLoc.c.b A Datatyp(siz) R M Lvl/name                 OctLoc.c.b A Datatyp(siz) R M Lvl/name

     0-0-0/w SBIN              1 LEX_LX_TOP

  ****  Section 002 LblCom LEX_LX_STK

  ****  Scalars and arrays  ****
OctLoc.c.b A Datatyp(siz) R M Lvl/name                 OctLoc.c.b A Datatyp(siz) R M Lvl/name

     0-0-0/w STRC(216)         1 LEX_LX_STK(0:50)

  ****  Section 003 LblCom OUT_DCBN

  ****  Scalars and arrays  ****
OctLoc.c.b A Datatyp(siz) R M Lvl/name                 OctLoc.c.b A Datatyp(siz) R M Lvl/name

     0-0-0/w SBIN              1 OUT_DCBN

  ****  Section 009 LblCom SYM_PTRS

  ****  Scalars and arrays  ****
OctLoc.c.b A Datatyp(siz) R M Lvl/name                 OctLoc.c.b A Datatyp(siz) R M Lvl/name

     0-0-0/w PTR               1 SYM_PTRS(0:1400)

PL6.E3A0      #006=SCAN File=LR_NRGRAM.:Z8A6TSI                                  SAT 08/09/97 09:43 Page:352
  ****  Section 010 LblCom RIGHT_PARTS

  ****  Scalars and arrays  ****
OctLoc.c.b A Datatyp(siz) R M Lvl/name                 OctLoc.c.b A Datatyp(siz) R M Lvl/name

     0-0-0/h SBIN(18)          1 RIGHT_PARTS(0:8000)

  ****  Section 011 LblCom PROD

  ****  Scalars and arrays  ****
OctLoc.c.b A Datatyp(siz) R M Lvl/name                 OctLoc.c.b A Datatyp(siz) R M Lvl/name

     0-0-0/h STRC(72)          1 PROD(0:1500)

  ****  Section 012 LblCom NR_PROD

  ****  Scalars and arrays  ****
OctLoc.c.b A Datatyp(siz) R M Lvl/name                 OctLoc.c.b A Datatyp(siz) R M Lvl/name

     0-0-0/w SBIN              1 NR_PROD

  ****  Section 013 LblCom NR_SYMS

  ****  Scalars and arrays  ****
OctLoc.c.b A Datatyp(siz) R M Lvl/name                 OctLoc.c.b A Datatyp(siz) R M Lvl/name

     0-0-0/w SBIN              1 NR_SYMS

  ****  Section 014 LblCom NR_TERM

  ****  Scalars and arrays  ****
OctLoc.c.b A Datatyp(siz) R M Lvl/name                 OctLoc.c.b A Datatyp(siz) R M Lvl/name

     0-0-0/w SBIN              1 NR_TERM

  ****  Section 015 LblCom LAST_ACT

PL6.E3A0      #006=SCAN File=LR_NRGRAM.:Z8A6TSI                                  SAT 08/09/97 09:43 Page:353
  ****  Scalars and arrays  ****
OctLoc.c.b A Datatyp(siz) R M Lvl/name                 OctLoc.c.b A Datatyp(siz) R M Lvl/name

     0-0-0/w SBIN              1 LAST_ACT

  ****  Section 016 LblCom LAST_NULL

  ****  Scalars and arrays  ****
OctLoc.c.b A Datatyp(siz) R M Lvl/name                 OctLoc.c.b A Datatyp(siz) R M Lvl/name

     0-0-0/w SBIN              1 LAST_NULL

  ****  Section 017 LblCom NR_ONRIGHT

  ****  Scalars and arrays  ****
OctLoc.c.b A Datatyp(siz) R M Lvl/name                 OctLoc.c.b A Datatyp(siz) R M Lvl/name

     0-0-0/w SBIN              1 NR_ONRIGHT

  ****  Section 018 LblCom NR_NT

  ****  Scalars and arrays  ****
OctLoc.c.b A Datatyp(siz) R M Lvl/name                 OctLoc.c.b A Datatyp(siz) R M Lvl/name

     0-0-0/w SBIN              1 NR_NT

  ****  Section 019 LblCom PROD_LEN_MAX_EVER

  ****  Scalars and arrays  ****
OctLoc.c.b A Datatyp(siz) R M Lvl/name                 OctLoc.c.b A Datatyp(siz) R M Lvl/name

     0-0-0/w SBIN              1 PROD_LEN_MAX_EVER

  ****  Section 020 LblCom LAST_ORDER_SPECIFIED

  ****  Scalars and arrays  ****
OctLoc.c.b A Datatyp(siz) R M Lvl/name                 OctLoc.c.b A Datatyp(siz) R M Lvl/name
PL6.E3A0      #006=SCAN File=LR_NRGRAM.:Z8A6TSI                                  SAT 08/09/97 09:43 Page:354

     0-0-0/w SBIN              1 LAST_ORDER_SPECIFIED

  ****  Section 021 LblCom SEMANTIC_ORDERING

  ****  Scalars and arrays  ****
OctLoc.c.b A Datatyp(siz) R M Lvl/name                 OctLoc.c.b A Datatyp(siz) R M Lvl/name

     0-0-0/b BIT               1 SEMANTIC_ORDERING

  ****  Section 022 LblCom ERR_SEV

  ****  Scalars and arrays  ****
OctLoc.c.b A Datatyp(siz) R M Lvl/name                 OctLoc.c.b A Datatyp(siz) R M Lvl/name

     0-0-0/w SBIN              1 ERR_SEV

  ****  Section 023 LblCom SET_LENGTHB

  ****  Scalars and arrays  ****
OctLoc.c.b A Datatyp(siz) R M Lvl/name                 OctLoc.c.b A Datatyp(siz) R M Lvl/name

     0-0-0/w SBIN              1 SET_LENGTHB

  ****  Section 024 LblCom SET_LENGTHW

  ****  Scalars and arrays  ****
OctLoc.c.b A Datatyp(siz) R M Lvl/name                 OctLoc.c.b A Datatyp(siz) R M Lvl/name

     0-0-0/w SBIN              1 SET_LENGTHW

  ****  Section 025 LblCom EOF_SYMBOL_PTR

  ****  Scalars and arrays  ****
OctLoc.c.b A Datatyp(siz) R M Lvl/name                 OctLoc.c.b A Datatyp(siz) R M Lvl/name

     0-0-0/w PTR               1 EOF_SYMBOL_PTR
PL6.E3A0      #006=SCAN File=LR_NRGRAM.:Z8A6TSI                                  SAT 08/09/97 09:43 Page:355

  ****  Section 026 LblCom ERROR_SYMBOL_PTR

  ****  Scalars and arrays  ****
OctLoc.c.b A Datatyp(siz) R M Lvl/name                 OctLoc.c.b A Datatyp(siz) R M Lvl/name

     0-0-0/w PTR               1 ERROR_SYMBOL_PTR

  ****  Section 027 LblCom BOF_SYMBOL_PTR

  ****  Scalars and arrays  ****
OctLoc.c.b A Datatyp(siz) R M Lvl/name                 OctLoc.c.b A Datatyp(siz) R M Lvl/name

     0-0-0/w PTR               1 BOF_SYMBOL_PTR

  ****  Section 028 LblCom OPTIONS

  ****  Scalars and arrays  ****
OctLoc.c.b A Datatyp(siz) R M Lvl/name                 OctLoc.c.b A Datatyp(siz) R M Lvl/name

     0-0-0/b BIT         r     1 OPTIONS(0:25)

  ****  Section 029 LblCom OPTIONS_TEXT

  ****  Scalars and arrays  ****
OctLoc.c.b A Datatyp(siz) R M Lvl/name                 OctLoc.c.b A Datatyp(siz) R M Lvl/name

     0-0-0/c CHAR(4)           1 OPTIONS_TEXT(0:25)

  ****  Section 030 LblCom INSTR

  ****  Scalars and arrays  ****
OctLoc.c.b A Datatyp(siz) R M Lvl/name                 OctLoc.c.b A Datatyp(siz) R M Lvl/name

     0-0-0/c CHAR        r     1 INSTR(0:511)               0-0-0/c CHAR(512)   r     1 INSTRCHR

  ****  Section 031 LblCom INSTR_LISTED
PL6.E3A0      #006=SCAN File=LR_NRGRAM.:Z8A6TSI                                  SAT 08/09/97 09:43 Page:356

  ****  Scalars and arrays  ****
OctLoc.c.b A Datatyp(siz) R M Lvl/name                 OctLoc.c.b A Datatyp(siz) R M Lvl/name

     0-0-0/b BIT         r     1 INSTR_LISTED

  ****  Section 032 LblCom INSTR_LEN

  ****  Scalars and arrays  ****
OctLoc.c.b A Datatyp(siz) R M Lvl/name                 OctLoc.c.b A Datatyp(siz) R M Lvl/name

     0-0-0/w SBIN        r     1 INSTR_LEN

  ****  Section 033 LblCom INSTR_INDX

  ****  Scalars and arrays  ****
OctLoc.c.b A Datatyp(siz) R M Lvl/name                 OctLoc.c.b A Datatyp(siz) R M Lvl/name

     0-0-0/w SBIN        r     1 INSTR_INDX

  ****  Section 034 LblCom EOF_FLAG

  ****  Scalars and arrays  ****
OctLoc.c.b A Datatyp(siz) R M Lvl/name                 OctLoc.c.b A Datatyp(siz) R M Lvl/name

     0-0-0/b BIT         r     1 EOF_FLAG

  ****  Section 035 LblCom KEY_REC

  ****  Scalars and arrays  ****
OctLoc.c.b A Datatyp(siz) R M Lvl/name                 OctLoc.c.b A Datatyp(siz) R M Lvl/name

     0-0-0/c CHAR(10)    r     1 KEY_REC

  ****  Section 036 LblCom LINE

  ****  Scalars and arrays  ****
PL6.E3A0      #006=SCAN File=LR_NRGRAM.:Z8A6TSI                                  SAT 08/09/97 09:43 Page:357
OctLoc.c.b A Datatyp(siz) R M Lvl/name                 OctLoc.c.b A Datatyp(siz) R M Lvl/name

     0-0-0/c CHAR(109)         1 LINE

  ****  Section 037 LblCom LINELEN

  ****  Scalars and arrays  ****
OctLoc.c.b A Datatyp(siz) R M Lvl/name                 OctLoc.c.b A Datatyp(siz) R M Lvl/name

     0-0-0/w SBIN              1 LINELEN

  ****  Section 038 LblCom TSTATS

  ****  Scalars and arrays  ****
OctLoc.c.b A Datatyp(siz) R M Lvl/name                 OctLoc.c.b A Datatyp(siz) R M Lvl/name

     0-0-0/w STRC(7380)        1 TSTATS

  ****  Section 039 LblCom SYMSTART

  ****  Scalars and arrays  ****
OctLoc.c.b A Datatyp(siz) R M Lvl/name                 OctLoc.c.b A Datatyp(siz) R M Lvl/name

     0-0-0/w SBIN        r     1 SYMSTART

  ****  Section 040  Data  SCAN

  ****  Scalars and arrays  ****
OctLoc.c.b A Datatyp(siz) R M Lvl/name                 OctLoc.c.b A Datatyp(siz) R M Lvl/name

     0-0-0/w SBIN        r     1 LINE#

  ****  Auto variables  ****

  ****  Scalars and arrays  ****
OctLoc.c.b A Datatyp(siz) R M Lvl/name                 OctLoc.c.b A Datatyp(siz) R M Lvl/name

PL6.E3A0      #006=SCAN File=LR_NRGRAM.:Z8A6TSI                                  SAT 08/09/97 09:43 Page:358
     3-0-0/w PTR         r     1 @TOKEN                     4-0-0/w SBIN        r     1 SAVE_INSTR_LEN
    *0-0-0/w PTR         r     1 TOKEN

  ****  BASED and DCB variables  ****

  ****  Scalars and arrays  ****
OctLoc.c.b A Datatyp(siz) R M Lvl/name                 OctLoc.c.b A Datatyp(siz) R M Lvl/name

     0-0-0/w STRC(216)   r     1 LEX_LX_ITEM                0-0-0N  NULL        r     1 M$LO
     0-0-0N  NULL        r     1 M$OU                       0-0-0N  NULL        r     1 M$SI
     0-0-0N  NULL        r     1 M$SO                       0-0-0N  NULL        r     1 M$UI
     0-0-0/w STRC(351)         1 SYMBOL


   Procedure SCAN requires 160 words for executable code.
   Procedure SCAN requires 8 words of local(AUTO) storage.

PL6.E3A0      #007=FORCE_LIST File=LR_NRGRAM.:Z8A6TSI                            SAT 08/09/97 09:43 Page:359
      921        1        /*M* RGRAM => READ THE GRAMMAR INTO INTERNAL FORM */
      922        2        /*T***********************************************************/
      923        3        /*T*                                                         */
      924        4        /*T* Copyright (c) Bull HN Information Systems Inc., 1997    */
      925        5        /*T*                                                         */
      926        6        /*T***********************************************************/
      927        7
      928        8
      929        9
      930       10
      931       11
      932       12
      933       13        FORCE_LIST:PROC;
      934       14
      935       15        /*D*
      936       16               NAME: FORCE_LIST
      937       17            PURPOSE:
      938       18           REPRODUCE THE SOURCE LINE, EITHER BECAUSE
      939       19           THE LS OPTION IS SET, OR A DIAGNOSTIC IS TO BE
      940       20           PRINTED */
      941       21
      942       22        %INCLUDE LR_GRAM_EXT;
      943      561
      944      562    1   DCL OLINE CHAR(523);
      945      563    1   DCL I SBIN;
      946      564
      947      565
      948      566    1           IF INSTR_LISTED THEN
      949      567    1              RETURN;
      950      568    1           INSTR_LISTED=TRUE;
      951      569    1           CALL INSERT(OLINE,,,KEY_REC,SUBSTR(INSTRCHR,0,INSTR_LEN));
      952      570    1          I = LENGTHC(KEY_REC) + INSTR_LEN;
      953      571    1          CALL OUTPUT(OLINE,I);
      954      572    1           RETURN;
      955      573
      956      574    1   END FORCE_LIST;
      957      575        %EOD;
PL6.E3A0      #007=FORCE_LIST File=LR_NRGRAM.:Z8A6TSI                            SAT 08/09/97 09:43 Page:360

PL6.E3A0      #007=FORCE_LIST File=LR_NRGRAM.:Z8A6TSI                            SAT 08/09/97 09:43 Page:361
--  Include file information  --

   LR_IO_EXT.:Z8A6TOU  cannot be made into a system file and is referenced.
   LR_GRAM_EXT.:Z8A6TOU  cannot be made into a system file and is referenced.
      No diagnostics issued in procedure FORCE_LIST.

   Procedure FORCE_LIST requires 26 words for executable code.
   Procedure FORCE_LIST requires 138 words of local(AUTO) storage.

PL6.E3A0      #007=FORCE_LIST File=LR_NRGRAM.:Z8A6TSI                            SAT 08/09/97 09:43 Page:362

 Object Unit name= FORCE_LIST                                 File name= LR_NRGRAM.:Z8A6TOU
 UTS= AUG 09 '97 09:43:27.08 SAT                              Compiler= PL-6/E31         Sev=      00
 SharedLib= :SHARED_SYSTEM                                    Alt SharedLib=


    ****  Control sections  ****

 Sect   Type Bound  Init  Size OctSiz  Section name(segment info)
    0  LblCom even  none     1      1  OUT_DCBN
    1   DCB   even  none     0      0  M$OU
    2   DCB   even  none     0      0  M$SO
    3   DCB   even  none     0      0  M$LO
    4   DCB   even  none     0      0  M$SI
    5   DCB   even  none     0      0  M$UI
    6  LblCom even  none  1401   2571  SYM_PTRS
    7  LblCom even  none  4001   7641  RIGHT_PARTS
    8  LblCom even  none  3002   5672  PROD
    9  LblCom even  none     1      1  NR_PROD
   10  LblCom even  none     1      1  NR_SYMS
   11  LblCom even  none     1      1  NR_TERM
   12  LblCom even  none     1      1  LAST_ACT
   13  LblCom even  none     1      1  LAST_NULL
   14  LblCom even  none     1      1  NR_ONRIGHT
   15  LblCom even  none     1      1  NR_NT
   16  LblCom even  none     1      1  PROD_LEN_MAX_EVER
   17  LblCom even  none     1      1  LAST_ORDER_SPECIFIED
   18  LblCom even  none     1      1  SEMANTIC_ORDERING
   19  LblCom even  none     1      1  ERR_SEV
   20  LblCom even  none     1      1  SET_LENGTHB
   21  LblCom even  none     1      1  SET_LENGTHW
   22  LblCom even  none     1      1  EOF_SYMBOL_PTR
   23  LblCom even  none     1      1  ERROR_SYMBOL_PTR
   24  LblCom even  none     1      1  BOF_SYMBOL_PTR
   25  LblCom even  none     1      1  OPTIONS
   26  LblCom even  none    26     32  OPTIONS_TEXT
   27  LblCom even  none   128    200  INSTR
   28  LblCom even  none     1      1  INSTR_LISTED
PL6.E3A0      #007=FORCE_LIST File=LR_NRGRAM.:Z8A6TSI                            SAT 08/09/97 09:43 Page:363
   29  LblCom even  none     1      1  INSTR_LEN
   30  LblCom even  none     1      1  INSTR_INDX
   31  LblCom even  none     1      1  EOF_FLAG
   32  LblCom even  none     3      3  KEY_REC
   33  LblCom even  none    28     34  LINE
   34  LblCom even  none     1      1  LINELEN
   35  LblCom even  none   205    315  TSTATS
   36   Proc  even  none    26     32  FORCE_LIST
   37  RoData even  none     1      1  FORCE_LIST

    ****  Entry defs  ****

                              Check   Calling
                             calling  sequence
  Sect OctLoc Primary Altret sequence   type   Parms  Name
    36      0   yes            yes      Std        0  FORCE_LIST

  ****  Entry refs  ****

         Check        Calling
        calling       sequence
Altret sequence SRef   type   Args  Name
         yes           Std       2 OUTPUT
                       nStd      0 X66_AUTO_0
                       nStd      0 X66_ARET

  ****  Data refs  ****

  Flags:  r = read only, s = secondary
Flgs Name                             Flgs Name                             Flgs Name
     M$OU                                  M$SO                                  M$LO
     M$SI                                  M$UI
PL6.E3A0      #007=FORCE_LIST File=LR_NRGRAM.:Z8A6TSI                            SAT 08/09/97 09:43 Page:364

  ****  Segment refs  ****

  Flags:  r = read only, s = secondary
Flgs Name                             Flgs Name                             Flgs Name
     NULLSID
PL6.E3A0      #007=FORCE_LIST File=LR_NRGRAM.:Z8A6TSI                            SAT 08/09/97 09:43 Page:365


      921        1        /*M* RGRAM => READ THE GRAMMAR INTO INTERNAL FORM */
      922        2        /*T***********************************************************/
      923        3        /*T*                                                         */
      924        4        /*T* Copyright (c) Bull HN Information Systems Inc., 1997    */
      925        5        /*T*                                                         */
      926        6        /*T***********************************************************/
      927        7
      928        8
      929        9
      930       10
      931       11
      932       12
      933       13        FORCE_LIST:PROC;

     13 36 000000   000000 700200 xent  FORCE_LIST   TSX0  ! X66_AUTO_0
        36 000001   000212 000000                    ZERO    138,0

      934       14
      935       15        /*D*
      936       16               NAME: FORCE_LIST
      937       17            PURPOSE:
      938       18           REPRODUCE THE SOURCE LINE, EITHER BECAUSE
      939       19           THE LS OPTION IS SET, OR A DIAGNOSTIC IS TO BE
      940       20           PRINTED */
      941       21
      942       22        %INCLUDE LR_GRAM_EXT;
      943      561
      944      562    1   DCL OLINE CHAR(523);
      945      563    1   DCL I SBIN;
      946      564
      947      565
      948      566    1           IF INSTR_LISTED THEN

    566 36 000002   000000 234000 28                 SZN     INSTR_LISTED
        36 000003   000005 605000 36                 TPL     s:568

PL6.E3A0      #007=FORCE_LIST File=LR_NRGRAM.:Z8A6TSI                            SAT 08/09/97 09:43 Page:366
      949      567    1              RETURN;

    567 36 000004   000000 702200 xent               TSX2  ! X66_ARET

      950      568    1           INSTR_LISTED=TRUE;

    568 36 000005   400000 236003                    LDQ     -131072,DU
        36 000006   000000 756000 28                 STQ     INSTR_LISTED

      951      569    1           CALL INSERT(OLINE,,,KEY_REC,SUBSTR(INSTRCHR,0,INSTR_LEN));

    569 36 000007   040100 100400                    MLR     fill='040'O
        36 000010   000000 000012 32                 ADSC9   KEY_REC                  cn=0,n=10
        36 000011   200003 000012                    ADSC9   OLINE,,AUTO              cn=0,n=10
        36 000012   000000 720000 29                 LXL0    INSTR_LEN
        36 000013   040100 100440                    MLR     fill='040'O
        36 000014   000000 000010 27                 ADSC9   INSTR                    cn=0,n=*X0
        36 000015   200005 401001                    ADSC9   OLINE+2,,AUTO            cn=2,n=513

      952      570    1          I = LENGTHC(KEY_REC) + INSTR_LEN;

    570 36 000016   000000 235000 29                 LDA     INSTR_LEN
        36 000017   000012 035007                    ADLA    10,DL
        36 000020   200206 755100                    STA     I,,AUTO

      953      571    1          CALL OUTPUT(OLINE,I);

    571 36 000021   200206 630500                    EPPR0   I,,AUTO
        36 000022   200211 450500                    STP0    I+3,,AUTO
        36 000023   200003 631500                    EPPR1   OLINE,,AUTO
        36 000024   200210 451500                    STP1    I+2,,AUTO
        36 000025   200210 630500                    EPPR0   I+2,,AUTO
        36 000026   000000 631400 37                 EPPR1   0
        36 000027   000000 701000 xent               TSX1    OUTPUT
        36 000030   000000 011000                    NOP     0

      954      572    1           RETURN;
PL6.E3A0      #007=FORCE_LIST File=LR_NRGRAM.:Z8A6TSI                            SAT 08/09/97 09:43 Page:367

    572 36 000031   000000 702200 xent               TSX2  ! X66_ARET
      955      573
      956      574    1   END FORCE_LIST;
      957      575        %EOD;

PL6.E3A0      #007=FORCE_LIST File=LR_NRGRAM.:Z8A6TSI                            SAT 08/09/97 09:43 Page:368
--  Include file information  --

   LR_IO_EXT.:Z8A6TOU  cannot be made into a system file and is referenced.
   LR_GRAM_EXT.:Z8A6TOU  cannot be made into a system file and is referenced.
      No diagnostics issued in procedure FORCE_LIST.
PL6.E3A0      #007=FORCE_LIST File=LR_NRGRAM.:Z8A6TSI                            SAT 08/09/97 09:43 Page:369

 **** Variables and constants ****

  ****  Section 000 LblCom OUT_DCBN

  ****  Scalars and arrays  ****
OctLoc.c.b A Datatyp(siz) R M Lvl/name                 OctLoc.c.b A Datatyp(siz) R M Lvl/name

     0-0-0/w SBIN              1 OUT_DCBN

  ****  Section 006 LblCom SYM_PTRS

  ****  Scalars and arrays  ****
OctLoc.c.b A Datatyp(siz) R M Lvl/name                 OctLoc.c.b A Datatyp(siz) R M Lvl/name

     0-0-0/w PTR               1 SYM_PTRS(0:1400)

  ****  Section 007 LblCom RIGHT_PARTS

  ****  Scalars and arrays  ****
OctLoc.c.b A Datatyp(siz) R M Lvl/name                 OctLoc.c.b A Datatyp(siz) R M Lvl/name

     0-0-0/h SBIN(18)          1 RIGHT_PARTS(0:8000)

  ****  Section 008 LblCom PROD

  ****  Scalars and arrays  ****
OctLoc.c.b A Datatyp(siz) R M Lvl/name                 OctLoc.c.b A Datatyp(siz) R M Lvl/name

     0-0-0/h STRC(72)          1 PROD(0:1500)

  ****  Section 009 LblCom NR_PROD

  ****  Scalars and arrays  ****
OctLoc.c.b A Datatyp(siz) R M Lvl/name                 OctLoc.c.b A Datatyp(siz) R M Lvl/name

     0-0-0/w SBIN              1 NR_PROD

PL6.E3A0      #007=FORCE_LIST File=LR_NRGRAM.:Z8A6TSI                            SAT 08/09/97 09:43 Page:370
  ****  Section 010 LblCom NR_SYMS

  ****  Scalars and arrays  ****
OctLoc.c.b A Datatyp(siz) R M Lvl/name                 OctLoc.c.b A Datatyp(siz) R M Lvl/name

     0-0-0/w SBIN              1 NR_SYMS

  ****  Section 011 LblCom NR_TERM

  ****  Scalars and arrays  ****
OctLoc.c.b A Datatyp(siz) R M Lvl/name                 OctLoc.c.b A Datatyp(siz) R M Lvl/name

     0-0-0/w SBIN              1 NR_TERM

  ****  Section 012 LblCom LAST_ACT

  ****  Scalars and arrays  ****
OctLoc.c.b A Datatyp(siz) R M Lvl/name                 OctLoc.c.b A Datatyp(siz) R M Lvl/name

     0-0-0/w SBIN              1 LAST_ACT

  ****  Section 013 LblCom LAST_NULL

  ****  Scalars and arrays  ****
OctLoc.c.b A Datatyp(siz) R M Lvl/name                 OctLoc.c.b A Datatyp(siz) R M Lvl/name

     0-0-0/w SBIN              1 LAST_NULL

  ****  Section 014 LblCom NR_ONRIGHT

  ****  Scalars and arrays  ****
OctLoc.c.b A Datatyp(siz) R M Lvl/name                 OctLoc.c.b A Datatyp(siz) R M Lvl/name

     0-0-0/w SBIN              1 NR_ONRIGHT

  ****  Section 015 LblCom NR_NT

PL6.E3A0      #007=FORCE_LIST File=LR_NRGRAM.:Z8A6TSI                            SAT 08/09/97 09:43 Page:371
  ****  Scalars and arrays  ****
OctLoc.c.b A Datatyp(siz) R M Lvl/name                 OctLoc.c.b A Datatyp(siz) R M Lvl/name

     0-0-0/w SBIN              1 NR_NT

  ****  Section 016 LblCom PROD_LEN_MAX_EVER

  ****  Scalars and arrays  ****
OctLoc.c.b A Datatyp(siz) R M Lvl/name                 OctLoc.c.b A Datatyp(siz) R M Lvl/name

     0-0-0/w SBIN              1 PROD_LEN_MAX_EVER

  ****  Section 017 LblCom LAST_ORDER_SPECIFIED

  ****  Scalars and arrays  ****
OctLoc.c.b A Datatyp(siz) R M Lvl/name                 OctLoc.c.b A Datatyp(siz) R M Lvl/name

     0-0-0/w SBIN              1 LAST_ORDER_SPECIFIED

  ****  Section 018 LblCom SEMANTIC_ORDERING

  ****  Scalars and arrays  ****
OctLoc.c.b A Datatyp(siz) R M Lvl/name                 OctLoc.c.b A Datatyp(siz) R M Lvl/name

     0-0-0/b BIT               1 SEMANTIC_ORDERING

  ****  Section 019 LblCom ERR_SEV

  ****  Scalars and arrays  ****
OctLoc.c.b A Datatyp(siz) R M Lvl/name                 OctLoc.c.b A Datatyp(siz) R M Lvl/name

     0-0-0/w SBIN              1 ERR_SEV

  ****  Section 020 LblCom SET_LENGTHB

  ****  Scalars and arrays  ****
OctLoc.c.b A Datatyp(siz) R M Lvl/name                 OctLoc.c.b A Datatyp(siz) R M Lvl/name
PL6.E3A0      #007=FORCE_LIST File=LR_NRGRAM.:Z8A6TSI                            SAT 08/09/97 09:43 Page:372

     0-0-0/w SBIN              1 SET_LENGTHB

  ****  Section 021 LblCom SET_LENGTHW

  ****  Scalars and arrays  ****
OctLoc.c.b A Datatyp(siz) R M Lvl/name                 OctLoc.c.b A Datatyp(siz) R M Lvl/name

     0-0-0/w SBIN              1 SET_LENGTHW

  ****  Section 022 LblCom EOF_SYMBOL_PTR

  ****  Scalars and arrays  ****
OctLoc.c.b A Datatyp(siz) R M Lvl/name                 OctLoc.c.b A Datatyp(siz) R M Lvl/name

     0-0-0/w PTR               1 EOF_SYMBOL_PTR

  ****  Section 023 LblCom ERROR_SYMBOL_PTR

  ****  Scalars and arrays  ****
OctLoc.c.b A Datatyp(siz) R M Lvl/name                 OctLoc.c.b A Datatyp(siz) R M Lvl/name

     0-0-0/w PTR               1 ERROR_SYMBOL_PTR

  ****  Section 024 LblCom BOF_SYMBOL_PTR

  ****  Scalars and arrays  ****
OctLoc.c.b A Datatyp(siz) R M Lvl/name                 OctLoc.c.b A Datatyp(siz) R M Lvl/name

     0-0-0/w PTR               1 BOF_SYMBOL_PTR

  ****  Section 025 LblCom OPTIONS

  ****  Scalars and arrays  ****
OctLoc.c.b A Datatyp(siz) R M Lvl/name                 OctLoc.c.b A Datatyp(siz) R M Lvl/name

     0-0-0/b BIT               1 OPTIONS(0:25)
PL6.E3A0      #007=FORCE_LIST File=LR_NRGRAM.:Z8A6TSI                            SAT 08/09/97 09:43 Page:373

  ****  Section 026 LblCom OPTIONS_TEXT

  ****  Scalars and arrays  ****
OctLoc.c.b A Datatyp(siz) R M Lvl/name                 OctLoc.c.b A Datatyp(siz) R M Lvl/name

     0-0-0/c CHAR(4)           1 OPTIONS_TEXT(0:25)

  ****  Section 027 LblCom INSTR

  ****  Scalars and arrays  ****
OctLoc.c.b A Datatyp(siz) R M Lvl/name                 OctLoc.c.b A Datatyp(siz) R M Lvl/name

     0-0-0/c CHAR        r     1 INSTR(0:511)               0-0-0/c CHAR(512)   r     1 INSTRCHR

  ****  Section 028 LblCom INSTR_LISTED

  ****  Scalars and arrays  ****
OctLoc.c.b A Datatyp(siz) R M Lvl/name                 OctLoc.c.b A Datatyp(siz) R M Lvl/name

     0-0-0/b BIT         r     1 INSTR_LISTED

  ****  Section 029 LblCom INSTR_LEN

  ****  Scalars and arrays  ****
OctLoc.c.b A Datatyp(siz) R M Lvl/name                 OctLoc.c.b A Datatyp(siz) R M Lvl/name

     0-0-0/w SBIN        r     1 INSTR_LEN

  ****  Section 030 LblCom INSTR_INDX

  ****  Scalars and arrays  ****
OctLoc.c.b A Datatyp(siz) R M Lvl/name                 OctLoc.c.b A Datatyp(siz) R M Lvl/name

     0-0-0/w SBIN              1 INSTR_INDX

  ****  Section 031 LblCom EOF_FLAG
PL6.E3A0      #007=FORCE_LIST File=LR_NRGRAM.:Z8A6TSI                            SAT 08/09/97 09:43 Page:374

  ****  Scalars and arrays  ****
OctLoc.c.b A Datatyp(siz) R M Lvl/name                 OctLoc.c.b A Datatyp(siz) R M Lvl/name

     0-0-0/b BIT               1 EOF_FLAG

  ****  Section 032 LblCom KEY_REC

  ****  Scalars and arrays  ****
OctLoc.c.b A Datatyp(siz) R M Lvl/name                 OctLoc.c.b A Datatyp(siz) R M Lvl/name

     0-0-0/c CHAR(10)    r     1 KEY_REC

  ****  Section 033 LblCom LINE

  ****  Scalars and arrays  ****
OctLoc.c.b A Datatyp(siz) R M Lvl/name                 OctLoc.c.b A Datatyp(siz) R M Lvl/name

     0-0-0/c CHAR(109)         1 LINE

  ****  Section 034 LblCom LINELEN

  ****  Scalars and arrays  ****
OctLoc.c.b A Datatyp(siz) R M Lvl/name                 OctLoc.c.b A Datatyp(siz) R M Lvl/name

     0-0-0/w SBIN              1 LINELEN

  ****  Section 035 LblCom TSTATS

  ****  Scalars and arrays  ****
OctLoc.c.b A Datatyp(siz) R M Lvl/name                 OctLoc.c.b A Datatyp(siz) R M Lvl/name

     0-0-0/w STRC(7380)        1 TSTATS

  ****  Auto variables  ****

  ****  Scalars and arrays  ****
PL6.E3A0      #007=FORCE_LIST File=LR_NRGRAM.:Z8A6TSI                            SAT 08/09/97 09:43 Page:375
OctLoc.c.b A Datatyp(siz) R M Lvl/name                 OctLoc.c.b A Datatyp(siz) R M Lvl/name

   206-0-0/w SBIN        r     1 I                          3-0-0/c CHAR(523)   r     1 OLINE

  ****  BASED and DCB variables  ****

  ****  Scalars and arrays  ****
OctLoc.c.b A Datatyp(siz) R M Lvl/name                 OctLoc.c.b A Datatyp(siz) R M Lvl/name

     0-0-0N  NULL        r     1 M$LO                       0-0-0N  NULL        r     1 M$OU
     0-0-0N  NULL        r     1 M$SI                       0-0-0N  NULL        r     1 M$SO
     0-0-0N  NULL        r     1 M$UI                       0-0-0/w STRC(351)         1 SYMBOL


   Procedure FORCE_LIST requires 26 words for executable code.
   Procedure FORCE_LIST requires 138 words of local(AUTO) storage.

PL6.E3A0      #008=LIMCHK File=LR_NRGRAM.:Z8A6TSI                                SAT 08/09/97 09:43 Page:376
      958        1        /*T***********************************************************/
      959        2        /*T*                                                         */
      960        3        /*T* Copyright (c) Bull HN Information Systems Inc., 1997    */
      961        4        /*T*                                                         */
      962        5        /*T***********************************************************/
      963        6        LIMCHK: PROC(SEV_P,USED,MAX_VAL,MSG);
      964        7
      965        8        /*D*
      966        9               NAME: LIMCHK
      967       10            PURPOSE: CHECK THE LIMITS OF A CONDITION AND
      968       11                     ISSUE DIAGNOSTIC IF APPROPRIATE.
      969       12        */
      970       13
      971       14    1   DCL SEV_P SBIN;
      972       15    1   DCL USED SBIN;
      973       16    1   DCL MAX_VAL SBIN;
      974       17    1   DCL MSG CHAR(20);
      975       18
      976       19        %INCLUDE LR_GRAM_EXT;
      977      558    1   DCL SEV SBIN;
      978      559    1   DCL ERRM CHAR(0) STATIC INIT('ERROR => %%');
      979      560    1   DCL 1 NTEXT STATIC,
      980      561    1         2 NUM1 CHAR(4),
      981      562    1         2 *    CHAR(0) INIT(' of '),
      982      563    1         2 NUM2 CHAR(4),
      983      564    1         2 *    CHAR(0) INIT('%%');
      984      565
      985      566    1   DCL DIAG ENTRY(6);
      986      567
      987      568    1           CALL BINCHAR(NTEXT.NUM1,USED);
      988      569    1           CALL BINCHAR(NTEXT.NUM2,MAX_VAL);
      989      570
      990      571    1           SEV=0;
      991      572    1           IF USED>MAX_VAL THEN
      992      573    2           DO;
      993      574    2              IF SEV_P=0 THEN
      994      575    2                 SEV=7;
PL6.E3A0      #008=LIMCHK File=LR_NRGRAM.:Z8A6TSI                                SAT 08/09/97 09:43 Page:377
      995      576    2              ELSE
      996      577    2                 SEV=SEV_P;
      997      578    2              END;
      998      579
      999      580    1           IF SEV>0 THEN
     1000      581    1              CALL DIAG(SEV,ERRM,MSG,NTEXT);
     1001      582
     1002      583    1   END;
     1003      584        %EOD;

PL6.E3A0      #008=LIMCHK File=LR_NRGRAM.:Z8A6TSI                                SAT 08/09/97 09:43 Page:378
--  Include file information  --

   LR_IO_EXT.:Z8A6TOU  cannot be made into a system file and is referenced.
   LR_GRAM_EXT.:Z8A6TOU  cannot be made into a system file and is referenced.
      No diagnostics issued in procedure LIMCHK.

   Procedure LIMCHK requires 35 words for executable code.
   Procedure LIMCHK requires 12 words of local(AUTO) storage.

PL6.E3A0      #008=LIMCHK File=LR_NRGRAM.:Z8A6TSI                                SAT 08/09/97 09:43 Page:379

 Object Unit name= LIMCHK                                     File name= LR_NRGRAM.:Z8A6TOU
 UTS= AUG 09 '97 09:43:40.52 SAT                              Compiler= PL-6/E31         Sev=      00
 SharedLib= :SHARED_SYSTEM                                    Alt SharedLib=


    ****  Control sections  ****

 Sect   Type Bound  Init  Size OctSiz  Section name(segment info)
    0  LblCom even  none     1      1  OUT_DCBN
    1   DCB   even  none     0      0  M$OU
    2   DCB   even  none     0      0  M$SO
    3   DCB   even  none     0      0  M$LO
    4   DCB   even  none     0      0  M$SI
    5   DCB   even  none     0      0  M$UI
    6  LblCom even  none  1401   2571  SYM_PTRS
    7  LblCom even  none  4001   7641  RIGHT_PARTS
    8  LblCom even  none  3002   5672  PROD
    9  LblCom even  none     1      1  NR_PROD
   10  LblCom even  none     1      1  NR_SYMS
   11  LblCom even  none     1      1  NR_TERM
   12  LblCom even  none     1      1  LAST_ACT
   13  LblCom even  none     1      1  LAST_NULL
   14  LblCom even  none     1      1  NR_ONRIGHT
   15  LblCom even  none     1      1  NR_NT
   16  LblCom even  none     1      1  PROD_LEN_MAX_EVER
   17  LblCom even  none     1      1  LAST_ORDER_SPECIFIED
   18  LblCom even  none     1      1  SEMANTIC_ORDERING
   19  LblCom even  none     1      1  ERR_SEV
   20  LblCom even  none     1      1  SET_LENGTHB
   21  LblCom even  none     1      1  SET_LENGTHW
   22  LblCom even  none     1      1  EOF_SYMBOL_PTR
   23  LblCom even  none     1      1  ERROR_SYMBOL_PTR
   24  LblCom even  none     1      1  BOF_SYMBOL_PTR
   25  LblCom even  none     1      1  OPTIONS
   26  LblCom even  none    26     32  OPTIONS_TEXT
   27  LblCom even  none   128    200  INSTR
   28  LblCom even  none     1      1  INSTR_LISTED
PL6.E3A0      #008=LIMCHK File=LR_NRGRAM.:Z8A6TSI                                SAT 08/09/97 09:43 Page:380
   29  LblCom even  none     1      1  INSTR_LEN
   30  LblCom even  none     1      1  INSTR_INDX
   31  LblCom even  none     1      1  EOF_FLAG
   32  LblCom even  none     3      3  KEY_REC
   33  LblCom even  none    28     34  LINE
   34  LblCom even  none     1      1  LINELEN
   35  LblCom even  none   205    315  TSTATS
   36   Data  even  none     7      7  LIMCHK
   37   Proc  even  none    35     43  LIMCHK
   38  RoData even  none     3      3  LIMCHK

    ****  Entry defs  ****

                              Check   Calling
                             calling  sequence
  Sect OctLoc Primary Altret sequence   type   Parms  Name
    37      0   yes            yes      Std        4  LIMCHK

  ****  Entry refs  ****

         Check        Calling
        calling       sequence
Altret sequence SRef   type   Args  Name
         yes           Std       6 DIAG
                       nStd      0 X66_AUTO_4
                       nStd      0 X66_ARET

  ****  Data refs  ****

  Flags:  r = read only, s = secondary
Flgs Name                             Flgs Name                             Flgs Name
     M$OU                                  M$SO                                  M$LO
     M$SI                                  M$UI
PL6.E3A0      #008=LIMCHK File=LR_NRGRAM.:Z8A6TSI                                SAT 08/09/97 09:43 Page:381

  ****  Segment refs  ****

  Flags:  r = read only, s = secondary
Flgs Name                             Flgs Name                             Flgs Name
     NULLSID                               ISSID
PL6.E3A0      #008=LIMCHK File=LR_NRGRAM.:Z8A6TSI                                SAT 08/09/97 09:43 Page:382


      958        1        /*T***********************************************************/
      959        2        /*T*                                                         */
      960        3        /*T* Copyright (c) Bull HN Information Systems Inc., 1997    */
      961        4        /*T*                                                         */
      962        5        /*T***********************************************************/
      963        6        LIMCHK: PROC(SEV_P,USED,MAX_VAL,MSG);

      6 37 000000   000000 700200 xent  LIMCHK       TSX0  ! X66_AUTO_4
        37 000001   000014 000004                    ZERO    12,4

      964        7
      965        8        /*D*
      966        9               NAME: LIMCHK
      967       10            PURPOSE: CHECK THE LIMITS OF A CONDITION AND
      968       11                     ISSUE DIAGNOSTIC IF APPROPRIATE.
      969       12        */
      970       13
      971       14    1   DCL SEV_P SBIN;
      972       15    1   DCL USED SBIN;
      973       16    1   DCL MAX_VAL SBIN;
      974       17    1   DCL MSG CHAR(20);
      975       18
      976       19        %INCLUDE LR_GRAM_EXT;
      977      558    1   DCL SEV SBIN;
      978      559    1   DCL ERRM CHAR(0) STATIC INIT('ERROR => %%');
      979      560    1   DCL 1 NTEXT STATIC,
      980      561    1         2 NUM1 CHAR(4),
      981      562    1         2 *    CHAR(0) INIT(' of '),
      982      563    1         2 NUM2 CHAR(4),
      983      564    1         2 *    CHAR(0) INIT('%%');
      984      565
      985      566    1   DCL DIAG ENTRY(6);
      986      567
      987      568    1           CALL BINCHAR(NTEXT.NUM1,USED);

    568 37 000002   200004 470500                    LDP0    @USED,,AUTO
PL6.E3A0      #008=LIMCHK File=LR_NRGRAM.:Z8A6TSI                                SAT 08/09/97 09:43 Page:383
        37 000003   000000 301500                    BTD
        37 000004   000000 000004                    NDSC9   0,,PR0                   cn=0,s=lsgnf,sf=0,n=4
        37 000005   000003 030004 36                 NDSC9   NTEXT                    cn=0,s=nosgn,sf=0,n=4

      988      569    1           CALL BINCHAR(NTEXT.NUM2,MAX_VAL);

    569 37 000006   200005 471500                    LDP1    @MAX_VAL,,AUTO
        37 000007   000000 301500                    BTD
        37 000010   100000 000004                    NDSC9   0,,PR1                   cn=0,s=lsgnf,sf=0,n=4
        37 000011   000005 030004 36                 NDSC9   NTEXT+2                  cn=0,s=nosgn,sf=0,n=4

      989      570
      990      571    1           SEV=0;

    571 37 000012   200007 450100                    STZ     SEV,,AUTO

      991      572    1           IF USED>MAX_VAL THEN

    572 37 000013   000000 236100                    LDQ     0,,PR0
        37 000014   100000 116100                    CMPQ    0,,PR1
        37 000015   000025 604400 37                 TMOZ    s:580

      992      573    2           DO;

      993      574    2              IF SEV_P=0 THEN

    574 37 000016   200003 473500                    LDP3    @SEV_P,,AUTO
        37 000017   300000 235100                    LDA     0,,PR3
        37 000020   000024 601000 37                 TNZ     s:577

      994      575    2                 SEV=7;

    575 37 000021   000007 235007                    LDA     7,DL
        37 000022   200007 755100                    STA     SEV,,AUTO
        37 000023   000025 710000 37                 TRA     s:580

      995      576    2              ELSE
PL6.E3A0      #008=LIMCHK File=LR_NRGRAM.:Z8A6TSI                                SAT 08/09/97 09:43 Page:384
      996      577    2                 SEV=SEV_P;

    577 37 000024   200007 755100                    STA     SEV,,AUTO

      997      578    2              END;

      998      579
      999      580    1           IF SEV>0 THEN

    580 37 000025   200007 235100                    LDA     SEV,,AUTO
        37 000026   000042 604400 37                 TMOZ    s:583

     1000      581    1              CALL DIAG(SEV,ERRM,MSG,NTEXT);

    581 37 000027   000001 236000 38                 LDQ     1
        37 000030   200006 235100                    LDA     @MSG,,AUTO
        37 000031   200012 757100                    STAQ    SEV+3,,AUTO
        37 000032   000002 236000 38                 LDQ     2
        37 000033   200011 756100                    STQ     SEV+2,,AUTO
        37 000034   200007 633500                    EPPR3   SEV,,AUTO
        37 000035   200010 453500                    STP3    SEV+1,,AUTO
        37 000036   200010 630500                    EPPR0   SEV+1,,AUTO
        37 000037   000000 631400 38                 EPPR1   0
        37 000040   000000 701000 xent               TSX1    DIAG
        37 000041   000000 011000                    NOP     0

     1001      582
     1002      583    1   END;

    583 37 000042   000000 702200 xent               TSX2  ! X66_ARET
     1003      584        %EOD;

PL6.E3A0      #008=LIMCHK File=LR_NRGRAM.:Z8A6TSI                                SAT 08/09/97 09:43 Page:385
--  Include file information  --

   LR_IO_EXT.:Z8A6TOU  cannot be made into a system file and is referenced.
   LR_GRAM_EXT.:Z8A6TOU  cannot be made into a system file and is referenced.
      No diagnostics issued in procedure LIMCHK.
PL6.E3A0      #008=LIMCHK File=LR_NRGRAM.:Z8A6TSI                                SAT 08/09/97 09:43 Page:386

 **** Variables and constants ****

  ****  Section 000 LblCom OUT_DCBN

  ****  Scalars and arrays  ****
OctLoc.c.b A Datatyp(siz) R M Lvl/name                 OctLoc.c.b A Datatyp(siz) R M Lvl/name

     0-0-0/w SBIN              1 OUT_DCBN

  ****  Section 006 LblCom SYM_PTRS

  ****  Scalars and arrays  ****
OctLoc.c.b A Datatyp(siz) R M Lvl/name                 OctLoc.c.b A Datatyp(siz) R M Lvl/name

     0-0-0/w PTR               1 SYM_PTRS(0:1400)

  ****  Section 007 LblCom RIGHT_PARTS

  ****  Scalars and arrays  ****
OctLoc.c.b A Datatyp(siz) R M Lvl/name                 OctLoc.c.b A Datatyp(siz) R M Lvl/name

     0-0-0/h SBIN(18)          1 RIGHT_PARTS(0:8000)

  ****  Section 008 LblCom PROD

  ****  Scalars and arrays  ****
OctLoc.c.b A Datatyp(siz) R M Lvl/name                 OctLoc.c.b A Datatyp(siz) R M Lvl/name

     0-0-0/h STRC(72)          1 PROD(0:1500)

  ****  Section 009 LblCom NR_PROD

  ****  Scalars and arrays  ****
OctLoc.c.b A Datatyp(siz) R M Lvl/name                 OctLoc.c.b A Datatyp(siz) R M Lvl/name

     0-0-0/w SBIN              1 NR_PROD

PL6.E3A0      #008=LIMCHK File=LR_NRGRAM.:Z8A6TSI                                SAT 08/09/97 09:43 Page:387
  ****  Section 010 LblCom NR_SYMS

  ****  Scalars and arrays  ****
OctLoc.c.b A Datatyp(siz) R M Lvl/name                 OctLoc.c.b A Datatyp(siz) R M Lvl/name

     0-0-0/w SBIN              1 NR_SYMS

  ****  Section 011 LblCom NR_TERM

  ****  Scalars and arrays  ****
OctLoc.c.b A Datatyp(siz) R M Lvl/name                 OctLoc.c.b A Datatyp(siz) R M Lvl/name

     0-0-0/w SBIN              1 NR_TERM

  ****  Section 012 LblCom LAST_ACT

  ****  Scalars and arrays  ****
OctLoc.c.b A Datatyp(siz) R M Lvl/name                 OctLoc.c.b A Datatyp(siz) R M Lvl/name

     0-0-0/w SBIN              1 LAST_ACT

  ****  Section 013 LblCom LAST_NULL

  ****  Scalars and arrays  ****
OctLoc.c.b A Datatyp(siz) R M Lvl/name                 OctLoc.c.b A Datatyp(siz) R M Lvl/name

     0-0-0/w SBIN              1 LAST_NULL

  ****  Section 014 LblCom NR_ONRIGHT

  ****  Scalars and arrays  ****
OctLoc.c.b A Datatyp(siz) R M Lvl/name                 OctLoc.c.b A Datatyp(siz) R M Lvl/name

     0-0-0/w SBIN              1 NR_ONRIGHT

  ****  Section 015 LblCom NR_NT

PL6.E3A0      #008=LIMCHK File=LR_NRGRAM.:Z8A6TSI                                SAT 08/09/97 09:43 Page:388
  ****  Scalars and arrays  ****
OctLoc.c.b A Datatyp(siz) R M Lvl/name                 OctLoc.c.b A Datatyp(siz) R M Lvl/name

     0-0-0/w SBIN              1 NR_NT

  ****  Section 016 LblCom PROD_LEN_MAX_EVER

  ****  Scalars and arrays  ****
OctLoc.c.b A Datatyp(siz) R M Lvl/name                 OctLoc.c.b A Datatyp(siz) R M Lvl/name

     0-0-0/w SBIN              1 PROD_LEN_MAX_EVER

  ****  Section 017 LblCom LAST_ORDER_SPECIFIED

  ****  Scalars and arrays  ****
OctLoc.c.b A Datatyp(siz) R M Lvl/name                 OctLoc.c.b A Datatyp(siz) R M Lvl/name

     0-0-0/w SBIN              1 LAST_ORDER_SPECIFIED

  ****  Section 018 LblCom SEMANTIC_ORDERING

  ****  Scalars and arrays  ****
OctLoc.c.b A Datatyp(siz) R M Lvl/name                 OctLoc.c.b A Datatyp(siz) R M Lvl/name

     0-0-0/b BIT               1 SEMANTIC_ORDERING

  ****  Section 019 LblCom ERR_SEV

  ****  Scalars and arrays  ****
OctLoc.c.b A Datatyp(siz) R M Lvl/name                 OctLoc.c.b A Datatyp(siz) R M Lvl/name

     0-0-0/w SBIN              1 ERR_SEV

  ****  Section 020 LblCom SET_LENGTHB

  ****  Scalars and arrays  ****
OctLoc.c.b A Datatyp(siz) R M Lvl/name                 OctLoc.c.b A Datatyp(siz) R M Lvl/name
PL6.E3A0      #008=LIMCHK File=LR_NRGRAM.:Z8A6TSI                                SAT 08/09/97 09:43 Page:389

     0-0-0/w SBIN              1 SET_LENGTHB

  ****  Section 021 LblCom SET_LENGTHW

  ****  Scalars and arrays  ****
OctLoc.c.b A Datatyp(siz) R M Lvl/name                 OctLoc.c.b A Datatyp(siz) R M Lvl/name

     0-0-0/w SBIN              1 SET_LENGTHW

  ****  Section 022 LblCom EOF_SYMBOL_PTR

  ****  Scalars and arrays  ****
OctLoc.c.b A Datatyp(siz) R M Lvl/name                 OctLoc.c.b A Datatyp(siz) R M Lvl/name

     0-0-0/w PTR               1 EOF_SYMBOL_PTR

  ****  Section 023 LblCom ERROR_SYMBOL_PTR

  ****  Scalars and arrays  ****
OctLoc.c.b A Datatyp(siz) R M Lvl/name                 OctLoc.c.b A Datatyp(siz) R M Lvl/name

     0-0-0/w PTR               1 ERROR_SYMBOL_PTR

  ****  Section 024 LblCom BOF_SYMBOL_PTR

  ****  Scalars and arrays  ****
OctLoc.c.b A Datatyp(siz) R M Lvl/name                 OctLoc.c.b A Datatyp(siz) R M Lvl/name

     0-0-0/w PTR               1 BOF_SYMBOL_PTR

  ****  Section 025 LblCom OPTIONS

  ****  Scalars and arrays  ****
OctLoc.c.b A Datatyp(siz) R M Lvl/name                 OctLoc.c.b A Datatyp(siz) R M Lvl/name

     0-0-0/b BIT               1 OPTIONS(0:25)
PL6.E3A0      #008=LIMCHK File=LR_NRGRAM.:Z8A6TSI                                SAT 08/09/97 09:43 Page:390

  ****  Section 026 LblCom OPTIONS_TEXT

  ****  Scalars and arrays  ****
OctLoc.c.b A Datatyp(siz) R M Lvl/name                 OctLoc.c.b A Datatyp(siz) R M Lvl/name

     0-0-0/c CHAR(4)           1 OPTIONS_TEXT(0:25)

  ****  Section 027 LblCom INSTR

  ****  Scalars and arrays  ****
OctLoc.c.b A Datatyp(siz) R M Lvl/name                 OctLoc.c.b A Datatyp(siz) R M Lvl/name

     0-0-0/c CHAR              1 INSTR(0:511)               0-0-0/c CHAR(512)         1 INSTRCHR

  ****  Section 028 LblCom INSTR_LISTED

  ****  Scalars and arrays  ****
OctLoc.c.b A Datatyp(siz) R M Lvl/name                 OctLoc.c.b A Datatyp(siz) R M Lvl/name

     0-0-0/b BIT               1 INSTR_LISTED

  ****  Section 029 LblCom INSTR_LEN

  ****  Scalars and arrays  ****
OctLoc.c.b A Datatyp(siz) R M Lvl/name                 OctLoc.c.b A Datatyp(siz) R M Lvl/name

     0-0-0/w SBIN              1 INSTR_LEN

  ****  Section 030 LblCom INSTR_INDX

  ****  Scalars and arrays  ****
OctLoc.c.b A Datatyp(siz) R M Lvl/name                 OctLoc.c.b A Datatyp(siz) R M Lvl/name

     0-0-0/w SBIN              1 INSTR_INDX

  ****  Section 031 LblCom EOF_FLAG
PL6.E3A0      #008=LIMCHK File=LR_NRGRAM.:Z8A6TSI                                SAT 08/09/97 09:43 Page:391

  ****  Scalars and arrays  ****
OctLoc.c.b A Datatyp(siz) R M Lvl/name                 OctLoc.c.b A Datatyp(siz) R M Lvl/name

     0-0-0/b BIT               1 EOF_FLAG

  ****  Section 032 LblCom KEY_REC

  ****  Scalars and arrays  ****
OctLoc.c.b A Datatyp(siz) R M Lvl/name                 OctLoc.c.b A Datatyp(siz) R M Lvl/name

     0-0-0/c CHAR(10)          1 KEY_REC

  ****  Section 033 LblCom LINE

  ****  Scalars and arrays  ****
OctLoc.c.b A Datatyp(siz) R M Lvl/name                 OctLoc.c.b A Datatyp(siz) R M Lvl/name

     0-0-0/c CHAR(109)         1 LINE

  ****  Section 034 LblCom LINELEN

  ****  Scalars and arrays  ****
OctLoc.c.b A Datatyp(siz) R M Lvl/name                 OctLoc.c.b A Datatyp(siz) R M Lvl/name

     0-0-0/w SBIN              1 LINELEN

  ****  Section 035 LblCom TSTATS

  ****  Scalars and arrays  ****
OctLoc.c.b A Datatyp(siz) R M Lvl/name                 OctLoc.c.b A Datatyp(siz) R M Lvl/name

     0-0-0/w STRC(7380)        1 TSTATS

  ****  Section 036  Data  LIMCHK

  ****  Scalars and arrays  ****
PL6.E3A0      #008=LIMCHK File=LR_NRGRAM.:Z8A6TSI                                SAT 08/09/97 09:43 Page:392
OctLoc.c.b A Datatyp(siz) R M Lvl/name                 OctLoc.c.b A Datatyp(siz) R M Lvl/name

     0-0-0/c CHAR(11)    r     1 ERRM                       3-0-0/c STRC(126)   r     1 NTEXT

  ****  Auto variables  ****

  ****  Scalars and arrays  ****
OctLoc.c.b A Datatyp(siz) R M Lvl/name                 OctLoc.c.b A Datatyp(siz) R M Lvl/name

     5-0-0/w PTR         r     1 @MAX_VAL                   6-0-0/w PTR         r     1 @MSG
     3-0-0/w PTR         r     1 @SEV_P                     4-0-0/w PTR         r     1 @USED
    *0-0-0/w SBIN        r     1 MAX_VAL                   *0-0-0/c CHAR(20)    r     1 MSG
     7-0-0/w SBIN        r     1 SEV                       *0-0-0/w SBIN        r     1 SEV_P
    *0-0-0/w SBIN        r     1 USED

  ****  BASED and DCB variables  ****

  ****  Scalars and arrays  ****
OctLoc.c.b A Datatyp(siz) R M Lvl/name                 OctLoc.c.b A Datatyp(siz) R M Lvl/name

     0-0-0N  NULL        r     1 M$LO                       0-0-0N  NULL        r     1 M$OU
     0-0-0N  NULL        r     1 M$SI                       0-0-0N  NULL        r     1 M$SO
     0-0-0N  NULL        r     1 M$UI                       0-0-0/w STRC(351)         1 SYMBOL


   Procedure LIMCHK requires 35 words for executable code.
   Procedure LIMCHK requires 12 words of local(AUTO) storage.

PL6.E3A0      #009=PARSE_TABLES File=LR_NRGRAM.:Z8A6TSI                          SAT 08/09/97 09:43 Page:393
     1004        1        /*T***********************************************************/
     1005        2        /*T*                                                         */
     1006        3        /*T* Copyright (c) Bull HN Information Systems Inc., 1997    */
     1007        4        /*T*                                                         */
     1008        5        /*T***********************************************************/
     1009        6        PARSE_TABLES : PROC;
     1010        7
     1011        8        /* This dummy procedure is used to compile the
     1012        9           parse tables.  This method of separate compilation
     1013       10           is required due to size restrictions of the PL/6
     1014       11           compiler.
     1015       12        */
     1016       13
     1017       14        %INCLUDE PADPDA_SUBS;
     1018      376        %INCLUDE PADPDA;
     1019     5076
     1020     5077
     1021     5078    1   END PARSE_TABLES;
     1022     5079        %EOD;

PL6.E3A0      #009=PARSE_TABLES File=LR_NRGRAM.:Z8A6TSI                          SAT 08/09/97 09:43 Page:394
--  Include file information  --

   PADPDA.:Z8A6TOU  cannot be made into a system file and is referenced.
   PADPDA_SUBS.:Z8A6TOU  is referenced.
      No diagnostics issued in procedure PARSE_TABLES.

   No code generated for procedure PARSE_TABLES .
   Procedure PARSE_TABLES requires 4 words of local(AUTO) storage.

PL6.E3A0      #009=PARSE_TABLES File=LR_NRGRAM.:Z8A6TSI                          SAT 08/09/97 09:43 Page:395

 Object Unit name= PARSE_TABLES                               File name= LR_NRGRAM.:Z8A6TOU
 UTS= AUG 09 '97 09:43:54.72 SAT                              Compiler= PL-6/E31         Sev=      00
 SharedLib= :SHARED_SYSTEM                                    Alt SharedLib=


    ****  Control sections  ****

 Sect   Type Bound  Init  Size OctSiz  Section name(segment info)
    0  RoData even  UTS   1124   2144  PARSE_TABLES
    1   Proc  even  none     0      0  PARSE_TABLES

    ****  Entry defs  ****

                              Check   Calling
                             calling  sequence
  Sect OctLoc Primary Altret sequence   type   Parms  Name
     1      0   yes            yes     ~proc       0  PARSE_TABLES

  ****  Data defs  ****

 Sect OctLoc  Name                           Sect OctLoc  Name
    0      0  PRODR                              0    145  ACTION_COL
    0    305  ACTION_ROW                         0    546  GOTO_COL
    0    613  GOTO_ROW                           0    711  TERM_STRING
    0    721  TSTRING_SPACE                      0   1027  DEL_COST
    0   1042  LCS                                0   1114  LCS_ELEM
    0   1121  LCP                                0   1403  LCP_UBOUND
    0   1410  LCP_ELEM                           0   1421  ITEM
    0   1757  STATE_ITEM                         0   2037  PATH
    0   2120  PATH_ELEM
PL6.E3A0      #009=PARSE_TABLES File=LR_NRGRAM.:Z8A6TSI                          SAT 08/09/97 09:43 Page:396

     1004        1        /*T***********************************************************/
     1005        2        /*T*                                                         */
     1006        3        /*T* Copyright (c) Bull HN Information Systems Inc., 1997    */
     1007        4        /*T*                                                         */
     1008        5        /*T***********************************************************/
     1009        6        PARSE_TABLES : PROC;
     1010        7
     1011        8        /* This dummy procedure is used to compile the
     1012        9           parse tables.  This method of separate compilation
     1013       10           is required due to size restrictions of the PL/6
     1014       11           compiler.
     1015       12        */
     1016       13
     1017       14        %INCLUDE PADPDA_SUBS;
     1018      376        %INCLUDE PADPDA;
     1019     5076
     1020     5077
     1021     5078    1   END PARSE_TABLES;
     1022     5079        %EOD;

PL6.E3A0      #009=PARSE_TABLES File=LR_NRGRAM.:Z8A6TSI                          SAT 08/09/97 09:43 Page:397
--  Include file information  --

   PADPDA.:Z8A6TOU  cannot be made into a system file and is referenced.
   PADPDA_SUBS.:Z8A6TOU  is referenced.
      No diagnostics issued in procedure PARSE_TABLES.
PL6.E3A0      #009=PARSE_TABLES File=LR_NRGRAM.:Z8A6TSI                          SAT 08/09/97 09:43 Page:398

 **** Variables and constants ****

  ****  Section 000 RoData PARSE_TABLES

  ****  Scalars and arrays  ****
OctLoc.c.b A Datatyp(siz) R M Lvl/name                 OctLoc.c.b A Datatyp(siz) R M Lvl/name

   145-0-0/b BIT               1 ACTION_COL(0:95)
   305-0-0/b BIT               1 ACTION_ROW(0:160)
  1027-0-0/b UBIN(17)          1 DEL_COST(0:21)
   546-0-0/b BIT               1 GOTO_COL(0:36)
   613-0-0/b BIT               1 GOTO_ROW(0:61)
  1421-0-0/b BIT (23)          1 ITEM(0:345)             1121-0-0/b BIT (35)          1 LCP(0:182)
  1410-0-0/b UBIN(6)           1 LCP_ELEM(0:48)
  1403-0-0/b UBIN(8)           1 LCP_UBOUND(0:21)
  1042-0-0/b BIT (26)          1 LCS(0:57)
  1114-0-0/b UBIN(5)           1 LCS_ELEM(0:32)
  2037-0-0/b BIT (12)          1 PATH(0:146)
  2120-0-0/b UBIN(6)           1 PATH_ELEM(0:118)
     0-0-0/b BIT (54)          1 PRODR(0:66)
  1757-0-0/b BIT (18)          1 STATE_ITEM(0:95)
   711-0-0/b BIT (13)          1 TERM_STRING(0:21)
   721-0-0/c CHAR(40)          1 TSTRING_SPACE(0:6)


   No code generated for procedure PARSE_TABLES .
   Procedure PARSE_TABLES requires 4 words of local(AUTO) storage.

PL6.E3A0      #010=LEX_PARSE_TABLES File=LR_NRGRAM.:Z8A6TSI                      SAT 08/09/97 09:45 Page:399
     1023        1        /*T***********************************************************/
     1024        2        /*T*                                                         */
     1025        3        /*T* Copyright (c) Bull HN Information Systems Inc., 1997    */
     1026        4        /*T*                                                         */
     1027        5        /*T***********************************************************/
     1028        6        LEX_PARSE_TABLES : PROC;
     1029        7
     1030        8        /* This dummy procedure is used to compile the
     1031        9           parse tables.  This method of separate compilation
     1032       10           is required due to size restrictions of the PL/6
     1033       11           compiler.
     1034       12        */
     1035       13
     1036       14        %INCLUDE LRX_SUBS;
     1037       62        %INCLUDE LRXDPDA_SUBS;
     1038      258        %INCLUDE LRXDPDA;
     1039    11064
     1040    11065
     1041    11066    1   END LEX_PARSE_TABLES;

PL6.E3A0      #010=LEX_PARSE_TABLES File=LR_NRGRAM.:Z8A6TSI                      SAT 08/09/97 09:45 Page:400
--  Include file information  --

   LRXDPDA.:Z8A6TOU  cannot be made into a system file and is referenced.
   LRXDPDA_SUBS.:Z8A6TOU  is referenced.
   LRX_SUBS.:Z8A6TOU  is referenced.
      No diagnostics issued in procedure LEX_PARSE_TABLES.

   No code generated for procedure LEX_PARSE_TABLES .
   Procedure LEX_PARSE_TABLES requires 4 words of local(AUTO) storage.

    No errors detected in file LR_NRGRAM.:Z8A6TSI    .

PL6.E3A0      #010=LEX_PARSE_TABLES File=LR_NRGRAM.:Z8A6TSI                      SAT 08/09/97 09:45 Page:401

 Object Unit name= LEX_PARSE_TABLES                           File name= LR_NRGRAM.:Z8A6TOU
 UTS= AUG 09 '97 09:45:04.04 SAT                              Compiler= PL-6/E31         Sev=      00
 SharedLib= :SHARED_SYSTEM                                    Alt SharedLib=


    ****  Control sections  ****

 Sect   Type Bound  Init  Size OctSiz  Section name(segment info)
    0  RoData even  UTS   3672   7130  LEX_PARSE_TABLES
    1   Proc  even  none     0      0  LEX_PARSE_TABLES

    ****  Entry defs  ****

                              Check   Calling
                             calling  sequence
  Sect OctLoc Primary Altret sequence   type   Parms  Name
     1      0   yes            yes     ~proc       0  LEX_PARSE_TABLES

  ****  Data defs  ****

 Sect OctLoc  Name                           Sect OctLoc  Name
    0      0  LEX_PRODR                          0    671  LEX_ACTION_COL
    0   2171  LEX_ACTION_ROW                     0   5662  LEX_GOTO_COL
    0   6025  LEX_GOTO_ROW                       0   6714  LEX_TERM_STRING
    0   6764  LEX_TSTRING_SPACE
PL6.E3A0      #010=LEX_PARSE_TABLES File=LR_NRGRAM.:Z8A6TSI                      SAT 08/09/97 09:45 Page:402

     1023        1        /*T***********************************************************/
     1024        2        /*T*                                                         */
     1025        3        /*T* Copyright (c) Bull HN Information Systems Inc., 1997    */
     1026        4        /*T*                                                         */
     1027        5        /*T***********************************************************/
     1028        6        LEX_PARSE_TABLES : PROC;
     1029        7
     1030        8        /* This dummy procedure is used to compile the
     1031        9           parse tables.  This method of separate compilation
     1032       10           is required due to size restrictions of the PL/6
     1033       11           compiler.
     1034       12        */
     1035       13
     1036       14        %INCLUDE LRX_SUBS;
     1037       62        %INCLUDE LRXDPDA_SUBS;
     1038      258        %INCLUDE LRXDPDA;
     1039    11064
     1040    11065
     1041    11066    1   END LEX_PARSE_TABLES;

PL6.E3A0      #010=LEX_PARSE_TABLES File=LR_NRGRAM.:Z8A6TSI                      SAT 08/09/97 09:45 Page:403
--  Include file information  --

   LRXDPDA.:Z8A6TOU  cannot be made into a system file and is referenced.
   LRXDPDA_SUBS.:Z8A6TOU  is referenced.
   LRX_SUBS.:Z8A6TOU  is referenced.
      No diagnostics issued in procedure LEX_PARSE_TABLES.
PL6.E3A0      #010=LEX_PARSE_TABLES File=LR_NRGRAM.:Z8A6TSI                      SAT 08/09/97 09:45 Page:404

 **** Variables and constants ****

  ****  Section 000 RoData LEX_PARSE_TABLES

  ****  Scalars and arrays  ****
OctLoc.c.b A Datatyp(siz) R M Lvl/name                 OctLoc.c.b A Datatyp(siz) R M Lvl/name

   671-0-0/b BIT               1 LEX_ACTION_COL(0:703)
  2171-0-0/b BIT               1 LEX_ACTION_ROW(0:1848)
  5662-0-0/b BIT               1 LEX_GOTO_COL(0:98)
  6025-0-0/b BIT               1 LEX_GOTO_ROW(0:438)
     0-0-0/b BIT (54)          1 LEX_PRODR(0:293)
  6714-0-0/b BIT (14)          1 LEX_TERM_STRING(0:101)
  6764-0-0/c CHAR(40)          1 LEX_TSTRING_SPACE(0:9)


   No code generated for procedure LEX_PARSE_TABLES .
   Procedure LEX_PARSE_TABLES requires 4 words of local(AUTO) storage.

    No errors detected in file LR_NRGRAM.:Z8A6TSI    .
