VERSION A06

PL6.E3A0      #001=RGRAM File=LR_NRGRAM.:Z8A6TSI                                 SAT 08/09/97 09:36 Page:1
        1        1        /*M* DRIVER FOR LALR(1) INPUT */
        2        2        /*T***********************************************************/
        3        3        /*T*                                                         */
        4        4        /*T* Copyright (c) Bull HN Information Systems Inc., 1997    */
        5        5        /*T*                                                         */
        6        6        /*T***********************************************************/
        7        7
        8        8
        9        9        /*P*
       10       10             NAME: RGRAM
       11       11          PURPOSE: Provide a driving routine for reading in the grammar.
       12       12        */
       13       13
       14       14
       15       15
       16       16
       17       17        RGRAM: PROC ;
       18       18
       19       19
       20       20        /*D*
       21       21               NAME: RGRAM
       22       22        DESCRIPTION: Initialize variables that will be set by calling routines.
       23       23                     Open the input file and setup the output file to M$LO.
       24       24                     Read in the options from the command line.  Pass them and
       25       25                     the system goal production to be parsed.  After parsing
       26       26                     them, the parser will get further input from the input
       27       27                     file.
       28       28
       29       29                     This module and the ones it calls are a functional
       30       30                     replacement for the original RGRAM.
       31       31
       32       32        */
       33       33        %INCLUDE LR_GRAM_EXT;
       34      572        %INCLUDE PARSER_SUBS;
       35      619
       36      620    1   DCL OUT_STR ENTRY(2);
       37      621    1   DCL FLUSH ENTRY;
PL6.E3A0      #001=RGRAM File=LR_NRGRAM.:Z8A6TSI                                 SAT 08/09/97 09:36 Page:2
       38      622    1   DCL COMMAND_LINE_OPTIONS ENTRY;
       39      623    1   DCL OPEN_INPUT ENTRY;
       40      624    1   DCL HASH_HEADS(0:HASH_MOD) PTR EXT;
       41      625    1   DCL SYMSTART SBIN WORD EXT;
       42      626    1   DCL I SBIN;
       43      627        %EJECT;
PL6.E3A0      #001=RGRAM File=LR_NRGRAM.:Z8A6TSI                                 SAT 08/09/97 09:36 Page:3
       44      628        %INCLUDE LR_PARSER_SI;
       45    21647        %EJECT;
PL6.E3A0      #001=RGRAM File=LR_NRGRAM.:Z8A6TSI                                 SAT 08/09/97 09:36 Page:4
       46    21648    2   DO I=0 TO 25;
       47    21649    2      OPTIONS(I) = FALSE;
       48    21650    2   END;
       49    21651    1   KEY_REC = '           ';
       50    21652    1   INSTR_LISTED = TRUE;
       51    21653    1   LINELEN = 0; /* FOR OUT_STR */
       52    21654        %SELECT_LO;
       53    21657    1   EOF_FLAG = FALSE;
       54    21658    1   NR_SYMS = 0;
       55    21659    1   NR_TERM = 0;
       56    21660    1   NR_NT = 0;
       57    21661    1   NR_ONRIGHT = 0;
       58    21662    1   ERR_SEV = 0;
       59    21663    1   NR_PROD = 0;
       60    21664    2   DO I = 0 TO NR_SYMS_MAX;
       61    21665    2      SYM_PTRS(I) = ADDR(NIL);
       62    21666    2   END;
       63    21667    2   DO I = 0 TO HASH_MOD -1;
       64    21668    2      HASH_HEADS(I) = ADDR(NIL);
       65    21669    2   END;
       66    21670    1   SYMSTART = 0;
       67    21671    1   CALL OPEN_INPUT;
       68    21672    1   CALL COMMAND_LINE_OPTIONS;
       69    21673    1   INSTR_INDX = 0;
       70    21674    1   CALL INSERT(INSTRCHR,0,140 ,
       71    21675    1     '<SYSTEM_GS> ::= =BEGINNING_OF_FILE= <SYSTEM_GS> =END_OF_FILE=');
       72    21676        /* THE FIRST LINE HAS BEEN ST UP WITH A FAKE PRODUCTION */
       73    21677    1   INSTR_LEN = 140;
       74    21678    1   IF OPTIONS(LS_OPT)
       75    21679    2   THEN DO;
       76    21680             %OUTLINE(S="'============='");
       77    21686             %OUTLINE(S="'INPUT LISTING'");
       78    21692             %OUTLINE(S="'============='");
       79    21698             %OUTLINE(S="' '");
       80    21704    2   END;
       81    21705    1      CALL PARSER;
       82    21706    1   END RGRAM;
PL6.E3A0      #001=RGRAM File=LR_NRGRAM.:Z8A6TSI                                 SAT 08/09/97 09:36 Page:5
       83    21707        %EOD;

PL6.E3A0      #001=RGRAM File=LR_NRGRAM.:Z8A6TSI                                 SAT 08/09/97 09:36 Page:6
--  Include file information  --

   PARSER_EC_SI.:Z8A6TOU  is referenced.
   PARSER_STATS.:Z8A6TOU  is referenced.
   PARSER_MACROS.:Z8A6TOU  cannot be made into a system file and is referenced.
   CP_6_C.:LIB_E04  is referenced.
   CP_6.:LIB_E04  cannot be made into a system file and is referenced.
   PARSER_STATE.:Z8A6TOU  cannot be made into a system file and is referenced.
   PARSER_STACK.:Z8A6TOU  cannot be made into a system file and is referenced.
   PADPDA_SUBS.:Z8A6TOU  is referenced.
   LR_PARSER_SI.:Z8A6TOU  cannot be made into a system file and is referenced.
   PARSER_SUBS.:Z8A6TOU  is referenced.
   LR_IO_EXT.:Z8A6TOU  cannot be made into a system file and is referenced.
   LR_GRAM_EXT.:Z8A6TOU  cannot be made into a system file and is referenced.
      No diagnostics issued in procedure RGRAM.

   Procedure RGRAM requires 2845 words for executable code.
   Procedure RGRAM requires 1114 words of local(AUTO) storage.

PL6.E3A0      #001=RGRAM File=LR_NRGRAM.:Z8A6TSI                                 SAT 08/09/97 09:36 Page:7

 Object Unit name= RGRAM                                      File name= LR_NRGRAM.:Z8A6TOU
 UTS= AUG 09 '97 09:36:18.28 SAT                              Compiler= PL-6/E31         Sev=      00
 SharedLib= :SHARED_SYSTEM                                    Alt SharedLib=


    ****  Control sections  ****

 Sect   Type Bound  Init  Size OctSiz  Section name(segment info)
    0  LblCom even  none     1      1  OUT_DCBN
    1   DCB   even  none     0      0  M$OU
    2   DCB   even  none     0      0  M$SO
    3   DCB   even  none     0      0  M$LO
    4   DCB   even  none     0      0  M$SI
    5   DCB   even  none     0      0  M$UI
    6  LblCom even  none  1401   2571  SYM_PTRS
    7  LblCom even  none  4001   7641  RIGHT_PARTS
    8  LblCom even  none  3002   5672  PROD
    9  LblCom even  none     1      1  NR_PROD
   10  LblCom even  none     1      1  NR_SYMS
   11  LblCom even  none     1      1  NR_TERM
   12  LblCom even  none     1      1  LAST_ACT
   13  LblCom even  none     1      1  LAST_NULL
   14  LblCom even  none     1      1  NR_ONRIGHT
   15  LblCom even  none     1      1  NR_NT
   16  LblCom even  none     1      1  PROD_LEN_MAX_EVER
   17  LblCom even  none     1      1  LAST_ORDER_SPECIFIED
   18  LblCom even  none     1      1  SEMANTIC_ORDERING
   19  LblCom even  none     1      1  ERR_SEV
   20  LblCom even  none     1      1  SET_LENGTHB
   21  LblCom even  none     1      1  SET_LENGTHW
   22  LblCom even  none     1      1  EOF_SYMBOL_PTR
   23  LblCom even  none     1      1  ERROR_SYMBOL_PTR
   24  LblCom even  none     1      1  BOF_SYMBOL_PTR
   25  LblCom even  none     1      1  OPTIONS
   26  LblCom even  none    26     32  OPTIONS_TEXT
   27  LblCom even  none   128    200  INSTR
   28  LblCom even  none     1      1  INSTR_LISTED
PL6.E3A0      #001=RGRAM File=LR_NRGRAM.:Z8A6TSI                                 SAT 08/09/97 09:36 Page:8
   29  LblCom even  none     1      1  INSTR_LEN
   30  LblCom even  none     1      1  INSTR_INDX
   31  LblCom even  none     1      1  EOF_FLAG
   32  LblCom even  none     3      3  KEY_REC
   33  LblCom even  none    28     34  LINE
   34  LblCom even  none     1      1  LINELEN
   35  LblCom even  none   205    315  TSTATS
   36  LblCom even  none   258    402  HASH_HEADS
   37  LblCom even  none     1      1  SYMSTART
   38  LblCom even  none   306    462  LA_STK
   39  LblCom even  none     1      1  LX_TOP
   40  LblCom even  none   306    462  LX_STK
   41  LblCom even  none     1      1  STATE
   42  LblCom even  none     1      1  LA_CNT
   43  LblCom even  none     1      1  LA_PUT
   44  LblCom even  none     1      1  LA_GET
   45  LblCom even  none     1      1  REDUCTION
   46  LblCom even  none   501    765  PARSE_STACK
   47  LblCom even  none     1      1  PARSE_STACK_IDX
   48  LblCom even  none     1      1  ERRLINE
   49  LblCom even  none     1      1  ERRCOL
   50  LblCom even  none     1      1  ERR_LA_GET
   51  LblCom even  none     1      1  ERR_LA_PUT
   52  LblCom even  none     1      1  ERR_LA_CNT
   53  LblCom even  none     1      1  ERR_RECOVERY_IN_PROGRESS
   54  LblCom even  none     1      1  PARSE_ERROR_COUNT
   55  LblCom even  none   501    765  ALT_PARSE_STACK
   56  LblCom even  none     1      1  ALT_PARSE_STACK_IDX
   57  LblCom even  none   501    765  RED_STACK
   58  LblCom even  none     1      1  RED_STACK_TOP
   59  LblCom even  none     1      1  IED_FLAG
   60  LblCom even  none     1      1  ALT_LX_TOP
   61  LblCom even  none    53     65  CORRECTION
   62   DCB   even  none     0      0  M$UC
   63   Data  even  none     1      1  RGRAM
   64  RoData even  UTS    144    220  RGRAM
   65   Proc  even  none  2845   5435  RGRAM
PL6.E3A0      #001=RGRAM File=LR_NRGRAM.:Z8A6TSI                                 SAT 08/09/97 09:36 Page:9
   66  RoData even  none    61     75  RGRAM

    ****  Entry defs  ****

                              Check   Calling
                             calling  sequence
  Sect OctLoc Primary Altret sequence   type   Parms  Name
    65      0   yes            yes      Std        0  RGRAM

  ****  Entry refs  ****

         Check        Calling
        calling       sequence
Altret sequence SRef   type   Args  Name
         yes           Std       0 OPEN_INPUT
         yes           Std       0 COMMAND_LINE_OPTIONS
         yes           Std       2 OUT_STR
         yes           Std       0 FLUSH
         yes           Std       1 SCANNER
         yes           Std       1 SEMANTICS
         yes           Std       2 GETNEW
         yes           Std       0 FORCE_LIST
         yes           Std       0 FLUSH
         yes           Std       6 DIAG
         yes           Std       2 OUT_STR
                       nStd      0 X66_AUTO_0
                       nStd      0 X66_ARET
PL6.E3A0      #001=RGRAM File=LR_NRGRAM.:Z8A6TSI                                 SAT 08/09/97 09:36 Page:10

  ****  Data refs  ****

  Flags:  r = read only, s = secondary
Flgs Name                             Flgs Name                             Flgs Name
     M$OU                                  M$SO                                  M$LO
     M$SI                                  M$UI                                  M$UC
r    PRODR                            r    ACTION_COL                       r    ACTION_ROW
r    GOTO_COL                         r    GOTO_ROW                         r    TERM_STRING
r    TSTRING_SPACE                    r    DEL_COST                         r    LCS
r    LCS_ELEM                         r    LCP                              r    LCP_UBOUND
r    LCP_ELEM                         r    ITEM                             r    STATE_ITEM
r    PATH                             r    PATH_ELEM                        r    TERM_STRING
r    TSTRING_SPACE

  ****  Segment refs  ****

  Flags:  r = read only, s = secondary
Flgs Name                             Flgs Name                             Flgs Name
     NULLSID                               ISSID
PL6.E3A0      #001=RGRAM File=LR_NRGRAM.:Z8A6TSI                                 SAT 08/09/97 09:36 Page:11


        1        1        /*M* DRIVER FOR LALR(1) INPUT */
        2        2        /*T***********************************************************/
        3        3        /*T*                                                         */
        4        4        /*T* Copyright (c) Bull HN Information Systems Inc., 1997    */
        5        5        /*T*                                                         */
        6        6        /*T***********************************************************/
        7        7
        8        8
        9        9        /*P*
       10       10             NAME: RGRAM
       11       11          PURPOSE: Provide a driving routine for reading in the grammar.
       12       12        */
       13       13
       14       14
       15       15
       16       16
       17       17        RGRAM: PROC ;

     17 65 000000   000000 700200 xent  RGRAM        TSX0  ! X66_AUTO_0
        65 000001   002132 000000                    ZERO    1114,0
        65 000002   005304 710000 65                 TRA     s:21648

       18       18
       19       19
       20       20        /*D*
       21       21               NAME: RGRAM
       22       22        DESCRIPTION: Initialize variables that will be set by calling routines.
       23       23                     Open the input file and setup the output file to M$LO.
       24       24                     Read in the options from the command line.  Pass them and
       25       25                     the system goal production to be parsed.  After parsing
       26       26                     them, the parser will get further input from the input
       27       27                     file.
       28       28
       29       29                     This module and the ones it calls are a functional
       30       30                     replacement for the original RGRAM.
       31       31
PL6.E3A0      #001=RGRAM File=LR_NRGRAM.:Z8A6TSI                                 SAT 08/09/97 09:36 Page:12
       32       32        */
       33       33        %INCLUDE LR_GRAM_EXT;
       34      572        %INCLUDE PARSER_SUBS;
       35      619
       36      620    1   DCL OUT_STR ENTRY(2);
       37      621    1   DCL FLUSH ENTRY;
       38      622    1   DCL COMMAND_LINE_OPTIONS ENTRY;
       39      623    1   DCL OPEN_INPUT ENTRY;
       40      624    1   DCL HASH_HEADS(0:HASH_MOD) PTR EXT;
       41      625    1   DCL SYMSTART SBIN WORD EXT;
       42      626    1   DCL I SBIN;
       43      627        %EJECT;
PL6.E3A0      #001=RGRAM File=LR_NRGRAM.:Z8A6TSI                                 SAT 08/09/97 09:36 Page:13
       44      628        %INCLUDE LR_PARSER_SI;

    645 65 000003   200004 741300       PARSER       STX1  ! I+1,,AUTO
        65 000004   004056 710000 65                 TRA     s:20909

  19793 65 000005   200012 741300       CREATE_DUMM* STX1  ! INDX+1,,AUTO

  19810 65 000006   200014 470500                    LDP0    @SYM_TO_BE_INSERTED,,AUTO
        65 000007   000000 236100                    LDQ     0,,PR0
        65 000010   000015 402007                    MPY     13,DL
        65 000011   000000 116003                    CMPQ    0,DU
        65 000012   000014 605000 65                 TPL     s:19810+6
        65 000013   000044 036003                    ADLQ    36,DU
        65 000014   003100 061406                    CSR     bolr='003'O
        65 000015   000000 100005 xsym               BDSC    TERM_STRING,Q            by=0,bit=8,n=5
        65 000016   200017 000044                    BDSC    SYMLEN,,AUTO             by=0,bit=0,n=36

  19811 65 000017   000000 236100                    LDQ     0,,PR0
        65 000020   000015 402007                    MPY     13,DL
        65 000021   000000 116003                    CMPQ    0,DU
        65 000022   000024 605000 65                 TPL     s:19811+5
        65 000023   000044 036003                    ADLQ    36,DU
        65 000024   003100 061406                    CSR     bolr='003'O
        65 000025   000000 000010 xsym               BDSC    TERM_STRING,Q            by=0,bit=0,n=8
        65 000026   202100 000044                    BDSC    TEXTCHAR2+36,,AUTO       by=0,bit=0,n=36
        65 000027   202100 236100                    LDQ     TEXTCHAR2+36,,AUTO
        65 000030   200017 720100                    LXL0    SYMLEN,,AUTO
        65 000031   040100 100446                    MLR     fill='040'O
        65 000032   000000 000010 xsym               ADSC9   TSTRING_SPACE,Q          cn=0,n=*X0
        65 000033   200021 000214                    ADSC9   TEXTCHAR,,AUTO           cn=0,n=140
        65 000034   200017 236100                    LDQ     SYMLEN,,AUTO
        65 000035   000214 116007                    CMPQ    140,DL
        65 000036   000044 605000 65                 TPL     s:19813
        65 000037   777563 622006                    EAX2    -141,QL
        65 000040   777777 662003                    ERX2    -1,DU
        65 000041   040146 100400                    MLR     fill='040'O
        65 000042   000000 000006 64                 ADSC9   0                        cn=0,n=6
PL6.E3A0      #001=RGRAM File=LR_NRGRAM.:Z8A6TSI                                 SAT 08/09/97 09:36 Page:14
        65 000043   200021 000012                    ADSC9   TEXTCHAR,Q,AUTO          cn=0,n=*X2

  19813 65 000044   000013 036007                    ADLQ    11,DL
        65 000045   000004 506007                    DIV     4,DL
        65 000046   200020 756100                    STQ     NEWLEN,,AUTO

  19814 65 000047   200020 631500                    EPPR1   NEWLEN,,AUTO
        65 000050   202101 451500                    STP1    TEXTCHAR2+37,,AUTO
        65 000051   200064 633500                    EPPR3   NEW$,,AUTO
        65 000052   202100 453500                    STP3    TEXTCHAR2+36,,AUTO
        65 000053   202100 630500                    EPPR0   TEXTCHAR2+36,,AUTO
        65 000054   000001 631400 66                 EPPR1   1
        65 000055   000000 701000 xent               TSX1    GETNEW
        65 000056   000000 011000                    NOP     0

  19815 65 000057   200064 470500                    LDP0    NEW$,,AUTO
        65 000060   200017 235100                    LDA     SYMLEN,,AUTO
        65 000061   000002 035007                    ADLA    2,DL
        65 000062   000000 755100                    STA     0,,PR0

  19816 65 000063   200064 470500                    LDP0    NEW$,,AUTO
        65 000064   000000 720100                    LXL0    0,,PR0
        65 000065   000000 621005                    EAX1    0,AL
        65 000066   040140 100540                    MLR     fill='040'O
        65 000067   200021 000011                    ADSC9   TEXTCHAR,,AUTO           cn=0,n=*X1
        65 000070   000001 000010                    ADSC9   1,,PR0                   cn=0,n=*X0

  19818 65 000071   200013 470500                    LDP0    @LA_PUT,,AUTO
        65 000072   000000 236100                    LDQ     0,,PR0
        65 000073   000003 402007                    MPY     3,DL
        65 000074   000001 736000                    QLS     1
        65 000075   000000 620006                    EAX0    0,QL
        65 000076   200064 236100                    LDQ     NEW$,,AUTO
        65 000077   000003 756010 38                 STQ     LA_STK+3,X0

  19819 65 000100   000000 236100                    LDQ     0,,PR0
        65 000101   000003 402007                    MPY     3,DL
PL6.E3A0      #001=RGRAM File=LR_NRGRAM.:Z8A6TSI                                 SAT 08/09/97 09:36 Page:15
        65 000102   000001 736000                    QLS     1
        65 000103   000000 620006                    EAX0    0,QL
        65 000104   000000 236000 66                 LDQ     0
        65 000105   000004 756010 38                 STQ     LA_STK+4,X0

  19820 65 000106   000000 236100                    LDQ     0,,PR0
        65 000107   000003 402007                    MPY     3,DL
        65 000110   000001 736000                    QLS     1
        65 000111   200014 471500                    LDP1    @SYM_TO_BE_INSERTED,,AUTO
        65 000112   100000 235100                    LDA     0,,PR1
        65 000113   000000 755006 38                 STA     LA_STK,QL

  19821 65 000114   000000 236100                    LDQ     0,,PR0
        65 000115   000003 402007                    MPY     3,DL
        65 000116   000001 736000                    QLS     1
        65 000117   200015 473500                    LDP3    @LINE_IN_ERROR,,AUTO
        65 000120   300000 235100                    LDA     0,,PR3
        65 000121   000001 755006 38                 STA     LA_STK+1,QL

  19822 65 000122   000000 236100                    LDQ     0,,PR0
        65 000123   000003 402007                    MPY     3,DL
        65 000124   000001 736000                    QLS     1
        65 000125   200016 474500                    LDP4    @COL_IN_ERROR,,AUTO
        65 000126   400000 235100                    LDA     0,,PR4
        65 000127   000002 755006 38                 STA     LA_STK+2,QL

  19824 65 000130   200012 221300                    LDX1  ! INDX+1,,AUTO
        65 000131   000001 702211                    TSX2  ! 1,X1

  19907 65 000132   201764 741300       ERROR        STX1  ! @PREVSTATE+1,,AUTO

  19919 65 000133   000002 631400 66                 EPPR1   2
        65 000134   000000 701000 xent               TSX1    FORCE_LIST
        65 000135   000000 011000                    NOP     0

  19920 65 000136   000002 631400 66                 EPPR1   2
        65 000137   000000 701000 xent               TSX1    FLUSH
PL6.E3A0      #001=RGRAM File=LR_NRGRAM.:Z8A6TSI                                 SAT 08/09/97 09:36 Page:16
        65 000140   000000 011000                    NOP     0

  19921 65 000141   000001 235007                    LDA     1,DL
        65 000142   201770 755100                    STA     I,,AUTO
        65 000143   000151 710000 65                 TRA     s:19925+1

  19923 65 000144   000005 630400 66                 EPPR0   5
        65 000145   000001 631400 66                 EPPR1   1
        65 000146   000000 701000 xent               TSX1    OUT_STR
        65 000147   000000 011000                    NOP     0

  19925 65 000150   201770 054100                    AOS     I,,AUTO
        65 000151   000000 236000 49                 LDQ     ERRCOL
        65 000152   000011 036007                    ADLQ    9,DL
        65 000153   201770 116100                    CMPQ    I,,AUTO
        65 000154   000144 605000 65                 TPL     s:19923

  19927 65 000155   000010 630400 66                 EPPR0   8
        65 000156   000001 631400 66                 EPPR1   1
        65 000157   000000 701000 xent               TSX1    OUT_STR
        65 000160   000000 011000                    NOP     0

  19929 65 000161   000002 631400 66                 EPPR1   2
        65 000162   000000 701000 xent               TSX1    FLUSH
        65 000163   000000 011000                    NOP     0

  19931 65 000164   201765 470500                    LDP0    @ERROR_TYPE,,AUTO
        65 000165   000000 235100                    LDA     0,,PR0
        65 000166   000012 115007                    CMPA    10,DL
        65 000167   000171 602005 65                 TNC     s:19931+5,AL
        65 000170   000457 710000 65                 TRA     s:20015
        65 000171   000203 710000 65                 TRA     s:19937
        65 000172   000210 710000 65                 TRA     s:19944
        65 000173   000215 710000 65                 TRA     s:19951
        65 000174   000222 710000 65                 TRA     s:19958
        65 000175   000457 710000 65                 TRA     s:20015
        65 000176   000240 710000 65                 TRA     s:19970
PL6.E3A0      #001=RGRAM File=LR_NRGRAM.:Z8A6TSI                                 SAT 08/09/97 09:36 Page:17
        65 000177   000254 710000 65                 TRA     s:19978
        65 000200   000335 710000 65                 TRA     s:19990
        65 000201   000416 710000 65                 TRA     s:20002
        65 000202   000453 710000 65                 TRA     s:20012

  19937 65 000203   000013 630400 66                 EPPR0   11
        65 000204   000001 631400 66                 EPPR1   1
        65 000205   000000 701000 xent               TSX1    DIAG
        65 000206   000000 011000                    NOP     0
        65 000207   000457 710000 65                 TRA     s:20015

  19944 65 000210   000015 630400 66                 EPPR0   13
        65 000211   000001 631400 66                 EPPR1   1
        65 000212   000000 701000 xent               TSX1    DIAG
        65 000213   000000 011000                    NOP     0
        65 000214   000457 710000 65                 TRA     s:20015

  19951 65 000215   000017 630400 66                 EPPR0   15
        65 000216   000001 631400 66                 EPPR1   1
        65 000217   000000 701000 xent               TSX1    DIAG
        65 000220   000000 011000                    NOP     0
        65 000221   000457 710000 65                 TRA     s:20015

  19958 65 000222   000000 236000 44                 LDQ     LA_GET
        65 000223   000006 402007                    MPY     6,DL
        65 000224   000003 471406 38                 LDP1    LA_STK+3,QL
        65 000225   000023 236000 66                 LDQ     19
        65 000226   202103 756100                    STQ     TEXTCHAR2+39,,AUTO
        65 000227   100001 633500                    EPPR3   1,,PR1
        65 000230   202102 453500                    STP3    TEXTCHAR2+38,,AUTO
        65 000231   000024 237000 66                 LDAQ    20
        65 000232   202100 757100                    STAQ    TEXTCHAR2+36,,AUTO
        65 000233   202100 630500                    EPPR0   TEXTCHAR2+36,,AUTO
        65 000234   000021 631400 66                 EPPR1   17
        65 000235   000000 701000 xent               TSX1    DIAG
        65 000236   000000 011000                    NOP     0
        65 000237   000457 710000 65                 TRA     s:20015
PL6.E3A0      #001=RGRAM File=LR_NRGRAM.:Z8A6TSI                                 SAT 08/09/97 09:36 Page:18

  19970 65 000240   000000 236000 44                 LDQ     LA_GET
        65 000241   000006 402007                    MPY     6,DL
        65 000242   000003 471406 38                 LDP1    LA_STK+3,QL
        65 000243   100001 633500                    EPPR3   1,,PR1
        65 000244   202102 453500                    STP3    TEXTCHAR2+38,,AUTO
        65 000245   000030 237000 66                 LDAQ    24
        65 000246   202100 757100                    STAQ    TEXTCHAR2+36,,AUTO
        65 000247   202100 630500                    EPPR0   TEXTCHAR2+36,,AUTO
        65 000250   000026 631400 66                 EPPR1   22
        65 000251   000000 701000 xent               TSX1    DIAG
        65 000252   000000 011000                    NOP     0
        65 000253   000457 710000 65                 TRA     s:20015

  19978 65 000254   201766 471500                    LDP1    @PLUG1$,,AUTO
        65 000255   100000 473500                    LDP3    0,,PR1
        65 000256   300000 720100                    LXL0    0,,PR3
        65 000257   040100 100540                    MLR     fill='040'O
        65 000260   300001 000010                    ADSC9   1,,PR3                   cn=0,n=*X0
        65 000261   201771 000214                    ADSC9   TEXTCHAR1,,AUTO          cn=0,n=140
        65 000262   000000 636010                    EAQ     0,X0
        65 000263   000022 732000                    QRS     18
        65 000264   000214 116007                    CMPQ    140,DL
        65 000265   000276 605000 65                 TPL     s:19979
        65 000266   202100 740100                    STX0    TEXTCHAR2+36,,AUTO
        65 000267   777563 620010                    EAX0    -141,X0
        65 000270   777777 660003                    ERX0    -1,DU
        65 000271   202100 235100                    LDA     TEXTCHAR2+36,,AUTO
        65 000272   000022 731000                    ARS     18
        65 000273   040145 100400                    MLR     fill='040'O
        65 000274   000000 000003 64                 ADSC9   0                        cn=0,n=3
        65 000275   201771 000010                    ADSC9   TEXTCHAR1,A,AUTO         cn=0,n=*X0

  19979 65 000276   201767 473500                    LDP3    @PLUG2$,,AUTO
        65 000277   300000 474500                    LDP4    0,,PR3
        65 000300   400000 720100                    LXL0    0,,PR4
        65 000301   040100 100540                    MLR     fill='040'O
PL6.E3A0      #001=RGRAM File=LR_NRGRAM.:Z8A6TSI                                 SAT 08/09/97 09:36 Page:19
        65 000302   400001 000010                    ADSC9   1,,PR4                   cn=0,n=*X0
        65 000303   202034 000214                    ADSC9   TEXTCHAR2,,AUTO          cn=0,n=140
        65 000304   000000 636010                    EAQ     0,X0
        65 000305   000022 732000                    QRS     18
        65 000306   000214 116007                    CMPQ    140,DL
        65 000307   000320 605000 65                 TPL     s:19980
        65 000310   202100 740100                    STX0    TEXTCHAR2+36,,AUTO
        65 000311   777563 620010                    EAX0    -141,X0
        65 000312   777777 660003                    ERX0    -1,DU
        65 000313   202100 235100                    LDA     TEXTCHAR2+36,,AUTO
        65 000314   000022 731000                    ARS     18
        65 000315   040145 100400                    MLR     fill='040'O
        65 000316   000000 000003 64                 ADSC9   0                        cn=0,n=3
        65 000317   202034 000010                    ADSC9   TEXTCHAR2,A,AUTO         cn=0,n=*X0

  19980 65 000320   202034 634500                    EPPR4   TEXTCHAR2,,AUTO
        65 000321   202104 454500                    STP4    TEXTCHAR2+40,,AUTO
        65 000322   000032 236000 66                 LDQ     26
        65 000323   202103 756100                    STQ     TEXTCHAR2+39,,AUTO
        65 000324   201771 635500                    EPPR5   TEXTCHAR1,,AUTO
        65 000325   202102 455500                    STP5    TEXTCHAR2+38,,AUTO
        65 000326   000034 237000 66                 LDAQ    28
        65 000327   202100 757100                    STAQ    TEXTCHAR2+36,,AUTO
        65 000330   202100 630500                    EPPR0   TEXTCHAR2+36,,AUTO
        65 000331   000027 631400 66                 EPPR1   23
        65 000332   000000 701000 xent               TSX1    DIAG
        65 000333   000000 011000                    NOP     0
        65 000334   000457 710000 65                 TRA     s:20015

  19990 65 000335   201766 471500                    LDP1    @PLUG1$,,AUTO
        65 000336   100000 473500                    LDP3    0,,PR1
        65 000337   300000 720100                    LXL0    0,,PR3
        65 000340   040100 100540                    MLR     fill='040'O
        65 000341   300001 000010                    ADSC9   1,,PR3                   cn=0,n=*X0
        65 000342   201771 000214                    ADSC9   TEXTCHAR1,,AUTO          cn=0,n=140
        65 000343   000000 636010                    EAQ     0,X0
        65 000344   000022 732000                    QRS     18
PL6.E3A0      #001=RGRAM File=LR_NRGRAM.:Z8A6TSI                                 SAT 08/09/97 09:36 Page:20
        65 000345   000214 116007                    CMPQ    140,DL
        65 000346   000357 605000 65                 TPL     s:19991
        65 000347   202100 740100                    STX0    TEXTCHAR2+36,,AUTO
        65 000350   777563 620010                    EAX0    -141,X0
        65 000351   777777 660003                    ERX0    -1,DU
        65 000352   202100 235100                    LDA     TEXTCHAR2+36,,AUTO
        65 000353   000022 731000                    ARS     18
        65 000354   040145 100400                    MLR     fill='040'O
        65 000355   000000 000003 64                 ADSC9   0                        cn=0,n=3
        65 000356   201771 000010                    ADSC9   TEXTCHAR1,A,AUTO         cn=0,n=*X0

  19991 65 000357   201767 473500                    LDP3    @PLUG2$,,AUTO
        65 000360   300000 474500                    LDP4    0,,PR3
        65 000361   400000 720100                    LXL0    0,,PR4
        65 000362   040100 100540                    MLR     fill='040'O
        65 000363   400001 000010                    ADSC9   1,,PR4                   cn=0,n=*X0
        65 000364   202034 000214                    ADSC9   TEXTCHAR2,,AUTO          cn=0,n=140
        65 000365   000000 636010                    EAQ     0,X0
        65 000366   000022 732000                    QRS     18
        65 000367   000214 116007                    CMPQ    140,DL
        65 000370   000401 605000 65                 TPL     s:19992
        65 000371   202100 740100                    STX0    TEXTCHAR2+36,,AUTO
        65 000372   777563 620010                    EAX0    -141,X0
        65 000373   777777 660003                    ERX0    -1,DU
        65 000374   202100 235100                    LDA     TEXTCHAR2+36,,AUTO
        65 000375   000022 731000                    ARS     18
        65 000376   040145 100400                    MLR     fill='040'O
        65 000377   000000 000003 64                 ADSC9   0                        cn=0,n=3
        65 000400   202034 000010                    ADSC9   TEXTCHAR2,A,AUTO         cn=0,n=*X0

  19992 65 000401   202034 634500                    EPPR4   TEXTCHAR2,,AUTO
        65 000402   202104 454500                    STP4    TEXTCHAR2+40,,AUTO
        65 000403   000036 236000 66                 LDQ     30
        65 000404   202103 756100                    STQ     TEXTCHAR2+39,,AUTO
        65 000405   201771 635500                    EPPR5   TEXTCHAR1,,AUTO
        65 000406   202102 455500                    STP5    TEXTCHAR2+38,,AUTO
        65 000407   000034 237000 66                 LDAQ    28
PL6.E3A0      #001=RGRAM File=LR_NRGRAM.:Z8A6TSI                                 SAT 08/09/97 09:36 Page:21
        65 000410   202100 757100                    STAQ    TEXTCHAR2+36,,AUTO
        65 000411   202100 630500                    EPPR0   TEXTCHAR2+36,,AUTO
        65 000412   000027 631400 66                 EPPR1   23
        65 000413   000000 701000 xent               TSX1    DIAG
        65 000414   000000 011000                    NOP     0
        65 000415   000457 710000 65                 TRA     s:20015

  20002 65 000416   201766 471500                    LDP1    @PLUG1$,,AUTO
        65 000417   100000 473500                    LDP3    0,,PR1
        65 000420   300000 720100                    LXL0    0,,PR3
        65 000421   040100 100540                    MLR     fill='040'O
        65 000422   300001 000010                    ADSC9   1,,PR3                   cn=0,n=*X0
        65 000423   201771 000214                    ADSC9   TEXTCHAR1,,AUTO          cn=0,n=140
        65 000424   000000 636010                    EAQ     0,X0
        65 000425   000022 732000                    QRS     18
        65 000426   000214 116007                    CMPQ    140,DL
        65 000427   000440 605000 65                 TPL     s:20003
        65 000430   202100 740100                    STX0    TEXTCHAR2+36,,AUTO
        65 000431   777563 620010                    EAX0    -141,X0
        65 000432   777777 660003                    ERX0    -1,DU
        65 000433   202100 235100                    LDA     TEXTCHAR2+36,,AUTO
        65 000434   000022 731000                    ARS     18
        65 000435   040145 100400                    MLR     fill='040'O
        65 000436   000000 000003 64                 ADSC9   0                        cn=0,n=3
        65 000437   201771 000010                    ADSC9   TEXTCHAR1,A,AUTO         cn=0,n=*X0

  20003 65 000440   000037 236000 66                 LDQ     31
        65 000441   202103 756100                    STQ     TEXTCHAR2+39,,AUTO
        65 000442   201771 633500                    EPPR3   TEXTCHAR1,,AUTO
        65 000443   202102 453500                    STP3    TEXTCHAR2+38,,AUTO
        65 000444   000040 237000 66                 LDAQ    32
        65 000445   202100 757100                    STAQ    TEXTCHAR2+36,,AUTO
        65 000446   202100 630500                    EPPR0   TEXTCHAR2+36,,AUTO
        65 000447   000021 631400 66                 EPPR1   17
        65 000450   000000 701000 xent               TSX1    DIAG
        65 000451   000000 011000                    NOP     0
        65 000452   000457 710000 65                 TRA     s:20015
PL6.E3A0      #001=RGRAM File=LR_NRGRAM.:Z8A6TSI                                 SAT 08/09/97 09:36 Page:22

  20012 65 000453   000042 630400 66                 EPPR0   34
        65 000454   000001 631400 66                 EPPR1   1
        65 000455   000000 701000 xent               TSX1    DIAG
        65 000456   000000 011000                    NOP     0

  20015 65 000457   201764 221300                    LDX1  ! @PREVSTATE+1,,AUTO
        65 000460   000001 702211                    TSX2  ! 1,X1

  20021 65 000461   200012 741300       LOCALLY_LEA* STX1  ! INDX+1,,AUTO
        65 000462   003630 710000 65                 TRA     s:20806

  20097 65 000463   200200 741300       CREATE_LARG* STX1  ! ACCUM_INS_TO_SYM+2,,AUTO

  20106 65 000464   000000 235000 44                 LDA     LA_GET
        65 000465   200201 755100                    STA     OLA_GET,,AUTO

  20107 65 000466   000000 236000 44                 LDQ     LA_GET
        65 000467   000006 402007                    MPY     6,DL
        65 000470   000005 236006 38                 LDQ     LA_STK+5,QL
        65 000471   000003 402007                    MPY     3,DL
        65 000472   000001 736000                    QLS     1
        65 000473   000005 236006 38                 LDQ     LA_STK+5,QL
        65 000474   000477 604000 65                 TMI     s:20108
        65 000475   000000 116000 43                 CMPQ    LA_PUT
        65 000476   000514 600000 65                 TZE     s:20110

  20108 65 000477   000000 236000 44                 LDQ     LA_GET
        65 000500   000006 402007                    MPY     6,DL
        65 000501   000005 235006 38                 LDA     LA_STK+5,QL
        65 000502   000000 755000 44                 STA     LA_GET

  20109 65 000503   000000 236000 44                 LDQ     LA_GET
        65 000504   000006 402007                    MPY     6,DL
        65 000505   000005 236006 38                 LDQ     LA_STK+5,QL
        65 000506   000003 402007                    MPY     3,DL
        65 000507   000001 736000                    QLS     1
PL6.E3A0      #001=RGRAM File=LR_NRGRAM.:Z8A6TSI                                 SAT 08/09/97 09:36 Page:23
        65 000510   000005 236006 38                 LDQ     LA_STK+5,QL
        65 000511   000477 604000 65                 TMI     s:20108
        65 000512   000000 116000 43                 CMPQ    LA_PUT
        65 000513   000477 601000 65                 TNZ     s:20108

  20110 65 000514   000000 236000 44                 LDQ     LA_GET
        65 000515   000006 402007                    MPY     6,DL
        65 000516   000005 235006 38                 LDA     LA_STK+5,QL
        65 000517   200202 755100                    STA     OLINK,,AUTO

  20111 65 000520   200201 236100                    LDQ     OLA_GET,,AUTO
        65 000521   000030 402007                    MPY     24,DL
        65 000522   202100 756100                    STQ     TEXTCHAR2+36,,AUTO
        65 000523   000000 236000 44                 LDQ     LA_GET
        65 000524   000030 402007                    MPY     24,DL
        65 000525   202100 235100                    LDA     TEXTCHAR2+36,,AUTO
        65 000526   000006 100405                    MLR     fill='000'O
        65 000527   000000 000030 38                 ADSC9   LA_STK,A                 cn=0,n=24
        65 000530   000000 000030 38                 ADSC9   LA_STK,Q                 cn=0,n=24

  20112 65 000531   000000 236000 44                 LDQ     LA_GET
        65 000532   000006 402007                    MPY     6,DL
        65 000533   200202 235100                    LDA     OLINK,,AUTO
        65 000534   000005 755006 38                 STA     LA_STK+5,QL

  20113 65 000535   200176 755100                    STA     ACCUM_INS_TO_SYM,,AUTO

  20114 65 000536   200105 755100                    STA     LR+2,,AUTO

  20115 65 000537   000002 235007                    LDA     2,DL
        65 000540   200174 755100                    STA     ACCUM_DEL_LEN,,AUTO

  20116 65 000541   000000 236006 38                 LDQ     LA_STK,QL
        65 000542   000021 402007                    MPY     17,DL
        65 000543   000000 116003                    CMPQ    0,DU
        65 000544   000546 605000 65                 TPL     s:20116+5
        65 000545   000044 036003                    ADLQ    36,DU
PL6.E3A0      #001=RGRAM File=LR_NRGRAM.:Z8A6TSI                                 SAT 08/09/97 09:36 Page:24
        65 000546   003100 061406                    CSR     bolr='003'O
        65 000547   000000 000021 xsym               BDSC    DEL_COST,Q               by=0,bit=0,n=17
        65 000550   200175 000044                    BDSC    ACCUM_DEL_COST,,AUTO     by=0,bit=0,n=36

  20117 65 000551   200175 235100                    LDA     ACCUM_DEL_COST,,AUTO
        65 000552   200104 755100                    STA     LR+1,,AUTO

  20118 65 000553   200174 236100                    LDQ     ACCUM_DEL_LEN,,AUTO
        65 000554   200103 756100                    STQ     LR,,AUTO

  20119 65 000555   000002 235007                    LDA     2,DL
        65 000556   000000 755000 42                 STA     LA_CNT

  20120 65 000557   400000 236003                    LDQ     -131072,DU
        65 000560   200173 756100                    STQ     LARGE_DELETION,,AUTO

  20121 65 000561   200200 221300                    LDX1  ! ACCUM_INS_TO_SYM+2,,AUTO
        65 000562   000001 702211                    TSX2  ! 1,X1

  20123 65 000563   201762 741300       ABORT_CORRE* STX1  ! PELEM+1,,AUTO

  20128 65 000564   000000 236000 44                 LDQ     LA_GET
        65 000565   000006 402007                    MPY     6,DL
        65 000566   000001 235006 38                 LDA     LA_STK+1,QL
        65 000567   000000 755000 48                 STA     ERRLINE

  20129 65 000570   000002 235006 38                 LDA     LA_STK+2,QL
        65 000571   000000 755000 49                 STA     ERRCOL

  20132 65 000572   000000 236000 66                 LDQ     0
        65 000573   000000 235000 66                 LDA     0
        65 000574   201766 757100                    STAQ    @PLUG1$,,AUTO
        65 000575   000045 236000 66                 LDQ     37
        65 000576   201765 756100                    STQ     @ERROR_TYPE,,AUTO
        65 000577   000132 701000 65                 TSX1    ERROR
        65 000600   000000 011000                    NOP     0

PL6.E3A0      #001=RGRAM File=LR_NRGRAM.:Z8A6TSI                                 SAT 08/09/97 09:36 Page:25
  20135 65 000601   000002 713400                    CLIMB   err
        65 000602   000000 401760                    pmme    nvectors=0

  20137 65 000603   201762 221300                    LDX1  ! PELEM+1,,AUTO
        65 000604   000001 702211                    TSX2  ! 1,X1

  20139 65 000605   200324 741300       CALC_CORREC* STX1  ! INS_BEF_DNT$+1,,AUTO

  20154 65 000606   000000 450000 61                 STZ     CORRECTION

  20155 65 000607   000001 450000 61                 STZ     CORRECTION+1

  20156 65 000610   200326 450100                    STZ     I,,AUTO
        65 000611   000722 710000 65                 TRA     s:20165+1

  20157 65 000612   200326 235100                    LDA     I,,AUTO
        65 000613   000001 735000                    ALS     1
        65 000614   200325 470500                    LDP0    @LRC,,AUTO
        65 000615   000100 100505                    MLR     fill='000'O
        65 000616   000005 000002                    ADSC9   5,A,PR0                  cn=0,n=2
        65 000617   202100 000004                    ADSC9   TEXTCHAR2+36,,AUTO       cn=0,n=4
        65 000620   202100 236100                    LDQ     TEXTCHAR2+36,,AUTO
        65 000621   000022 732000                    QRS     18
        65 000622   000032 402007                    MPY     26,DL
        65 000623   000000 116003                    CMPQ    0,DU
        65 000624   000626 605000 65                 TPL     s:20157+12
        65 000625   000044 036003                    ADLQ    36,DU
        65 000626   003100 061406                    CSR     bolr='003'O
        65 000627   000000 300006 xsym               BDSC    LCS,Q                    by=1,bit=8,n=6
        65 000630   200327 000044                    BDSC    J,,AUTO                  by=0,bit=0,n=36
        65 000631   000656 710000 65                 TRA     s:20164+1

  20159 65 000632   000000 235000 61                 LDA     CORRECTION
        65 000633   000144 115007                    CMPA    100,DL
        65 000634   000655 605000 65                 TPL     s:20164

  20161 65 000635   200327 236100                    LDQ     J,,AUTO
PL6.E3A0      #001=RGRAM File=LR_NRGRAM.:Z8A6TSI                                 SAT 08/09/97 09:36 Page:26
        65 000636   000005 402007                    MPY     5,DL
        65 000637   000000 116003                    CMPQ    0,DU
        65 000640   000642 605000 65                 TPL     s:20161+5
        65 000641   000044 036003                    ADLQ    36,DU
        65 000642   202100 756100                    STQ     TEXTCHAR2+36,,AUTO
        65 000643   000000 236000 61                 LDQ     CORRECTION
        65 000644   000022 402007                    MPY     18,DL
        65 000645   000000 116003                    CMPQ    0,DU
        65 000646   000650 605000 65                 TPL     s:20161+11
        65 000647   000044 036003                    ADLQ    36,DU
        65 000650   202100 235100                    LDA     TEXTCHAR2+36,,AUTO
        65 000651   003006 061405                    CSR     bolr='003'O
        65 000652   000000 000005 xsym               BDSC    LCS_ELEM,A               by=0,bit=0,n=5
        65 000653   000002 000022 61                 BDSC    CORRECTION+2,Q           by=0,bit=0,n=18

  20162 65 000654   000000 054000 61                 AOS     CORRECTION

  20164 65 000655   200327 054100                    AOS     J,,AUTO
        65 000656   200326 235100                    LDA     I,,AUTO
        65 000657   000001 735000                    ALS     1
        65 000660   200325 470500                    LDP0    @LRC,,AUTO
        65 000661   000100 100505                    MLR     fill='000'O
        65 000662   000005 000002                    ADSC9   5,A,PR0                  cn=0,n=2
        65 000663   202100 000004                    ADSC9   TEXTCHAR2+36,,AUTO       cn=0,n=4
        65 000664   202100 236100                    LDQ     TEXTCHAR2+36,,AUTO
        65 000665   000022 732000                    QRS     18
        65 000666   000032 402007                    MPY     26,DL
        65 000667   200326 235100                    LDA     I,,AUTO
        65 000670   000001 735000                    ALS     1
        65 000671   000100 100505                    MLR     fill='000'O
        65 000672   000005 000002                    ADSC9   5,A,PR0                  cn=0,n=2
        65 000673   202101 000004                    ADSC9   TEXTCHAR2+37,,AUTO       cn=0,n=4
        65 000674   202102 756100                    STQ     TEXTCHAR2+38,,AUTO
        65 000675   202101 236100                    LDQ     TEXTCHAR2+37,,AUTO
        65 000676   000022 732000                    QRS     18
        65 000677   000032 402007                    MPY     26,DL
        65 000700   000000 116003                    CMPQ    0,DU
PL6.E3A0      #001=RGRAM File=LR_NRGRAM.:Z8A6TSI                                 SAT 08/09/97 09:36 Page:27
        65 000701   000703 605000 65                 TPL     s:20164+22
        65 000702   000044 036003                    ADLQ    36,DU
        65 000703   003100 061406                    CSR     bolr='003'O
        65 000704   000000 450003 xsym               BDSC    LCS,Q                    by=2,bit=5,n=3
        65 000705   202103 000044                    BDSC    TEXTCHAR2+39,,AUTO       by=0,bit=0,n=36
        65 000706   202102 235100                    LDA     TEXTCHAR2+38,,AUTO
        65 000707   000711 605000 65                 TPL     s:20164+28
        65 000710   000044 035003                    ADLA    36,DU
        65 000711   003100 061405                    CSR     bolr='003'O
        65 000712   000000 300006 xsym               BDSC    LCS,A                    by=1,bit=8,n=6
        65 000713   202104 000044                    BDSC    TEXTCHAR2+40,,AUTO       by=0,bit=0,n=36
        65 000714   202104 236100                    LDQ     TEXTCHAR2+40,,AUTO
        65 000715   202103 036100                    ADLQ    TEXTCHAR2+39,,AUTO
        65 000716   000632 604000 65                 TMI     s:20159
        65 000717   200327 116100                    CMPQ    J,,AUTO
        65 000720   000632 605400 65                 TPNZ    s:20159

  20165 65 000721   200326 054100                    AOS     I,,AUTO
        65 000722   200325 470500                    LDP0    @LRC,,AUTO
        65 000723   200326 236100                    LDQ     I,,AUTO
        65 000724   000003 116100                    CMPQ    3,,PR0
        65 000725   000612 604000 65                 TMI     s:20157

  20166 65 000726   200324 221300                    LDX1  ! INS_BEF_DNT$+1,,AUTO
        65 000727   000001 702211                    TSX2  ! 1,X1

  20168 65 000730   200200 741300       GIVE_CORREC* STX1  ! ACCUM_INS_TO_SYM+2,,AUTO
        65 000731   001503 710000 65                 TRA     s:20323

  20187 65 000732   200330 741300       PACK_TERM    STX1  ! J+1,,AUTO

  20199 65 000733   200331 470500                    LDP0    @DI,,AUTO
        65 000734   000000 235100                    LDA     0,,PR0
        65 000735   000144 115007                    CMPA    100,DL
        65 000736   000745 605000 65                 TPL     s:20204
        65 000737   000000 115003                    CMPA    0,DU
        65 000740   000745 604400 65                 TMOZ    s:20204
PL6.E3A0      #001=RGRAM File=LR_NRGRAM.:Z8A6TSI                                 SAT 08/09/97 09:36 Page:28

  20201 65 000741   040105 100400                    MLR     fill='040'O
        65 000742   000003 000001 66                 ADSC9   3                        cn=0,n=1
        65 000743   000001 000001                    ADSC9   1,A,PR0                  cn=0,n=1

  20202 65 000744   000000 054100                    AOS     0,,PR0

  20204 65 000745   200333 471500                    LDP1    @PT_LEN,,AUTO
        65 000746   000144 236007                    LDQ     100,DL
        65 000747   000000 136100                    SBLQ    0,,PR0
        65 000750   100000 116100                    CMPQ    0,,PR1
        65 000751   000766 604000 65                 TMI     s:20210

  20206 65 000752   000000 235100                    LDA     0,,PR0
        65 000753   200334 473500                    LDP3    @PT_PTR,,AUTO
        65 000754   300000 474500                    LDP4    0,,PR3
        65 000755   100000 720100                    LXL0    0,,PR1
        65 000756   000000 621006                    EAX1    0,QL
        65 000757   040145 100540                    MLR     fill='040'O
        65 000760   400000 000010                    ADSC9   0,,PR4                   cn=0,n=*X0
        65 000761   000001 000011                    ADSC9   1,A,PR0                  cn=0,n=*X1

  20207 65 000762   000000 236100                    LDQ     0,,PR0
        65 000763   100000 036100                    ADLQ    0,,PR1
        65 000764   000000 756100                    STQ     0,,PR0

  20208 65 000765   001070 710000 65                 TRA     s:20232

  20210 65 000766   200332 473500                    LDP3    @DI_CHAR_OVERFLOW,,AUTO
        65 000767   300000 235100                    LDA     0,,PR3
        65 000770   001014 604400 65                 TMOZ    s:20217

  20212 65 000771   202100 755100                    STA     TEXTCHAR2+36,,AUTO
        65 000772   300000 235100                    LDA     0,,PR3
        65 000773   000046 675000 66                 ERA     38
        65 000774   000145 035007                    ADLA    101,DL
        65 000775   200334 474500                    LDP4    @PT_PTR,,AUTO
PL6.E3A0      #001=RGRAM File=LR_NRGRAM.:Z8A6TSI                                 SAT 08/09/97 09:36 Page:29
        65 000776   400000 475500                    LDP5    0,,PR4
        65 000777   100000 720100                    LXL0    0,,PR1
        65 001000   000000 621005                    EAX1    0,AL
        65 001001   202100 235100                    LDA     TEXTCHAR2+36,,AUTO
        65 001002   040145 100540                    MLR     fill='040'O
        65 001003   500000 000010                    ADSC9   0,,PR5                   cn=0,n=*X0
        65 001004   000001 000011                    ADSC9   1,A,PR0                  cn=0,n=*X1

  20213 65 001005   300000 236100                    LDQ     0,,PR3
        65 001006   100000 036100                    ADLQ    0,,PR1
        65 001007   000144 116007                    CMPQ    100,DL
        65 001010   001012 604400 65                 TMOZ    s:20213+5
        65 001011   000144 236007                    LDQ     100,DL
        65 001012   000000 756100                    STQ     0,,PR0

  20215 65 001013   001070 710000 65                 TRA     s:20232

  20217 65 001014   000000 235100                    LDA     0,,PR0
        65 001015   001060 604400 65                 TMOZ    s:20229

  20219 65 001016   000000 236100                    LDQ     0,,PR0
        65 001017   000060 116007                    CMPQ    48,DL
        65 001020   001022 604400 65                 TMOZ    s:20219+4
        65 001021   000060 236007                    LDQ     48,DL
        65 001022   300000 756100                    STQ     0,,PR3

  20221 65 001023   300000 235100                    LDA     0,,PR3
        65 001024   000046 675000 66                 ERA     38
        65 001025   000145 035007                    ADLA    101,DL
        65 001026   000000 620005                    EAX0    0,AL
        65 001027   040146 100400                    MLR     fill='040'O
        65 001030   000164 000004 64                 ADSC9   116                      cn=0,n=4
        65 001031   000001 000010                    ADSC9   1,Q,PR0                  cn=0,n=*X0

  20222 65 001032   000004 236007                    LDQ     4,DL
        65 001033   300000 056100                    ASQ     0,,PR3

PL6.E3A0      #001=RGRAM File=LR_NRGRAM.:Z8A6TSI                                 SAT 08/09/97 09:36 Page:30
  20223 65 001034   300000 235100                    LDA     0,,PR3
        65 001035   202100 755100                    STA     TEXTCHAR2+36,,AUTO
        65 001036   300000 235100                    LDA     0,,PR3
        65 001037   000046 675000 66                 ERA     38
        65 001040   000145 035007                    ADLA    101,DL
        65 001041   200334 474500                    LDP4    @PT_PTR,,AUTO
        65 001042   400000 475500                    LDP5    0,,PR4
        65 001043   100000 720100                    LXL0    0,,PR1
        65 001044   000000 621005                    EAX1    0,AL
        65 001045   202100 235100                    LDA     TEXTCHAR2+36,,AUTO
        65 001046   040145 100540                    MLR     fill='040'O
        65 001047   500000 000010                    ADSC9   0,,PR5                   cn=0,n=*X0
        65 001050   000001 000011                    ADSC9   1,A,PR0                  cn=0,n=*X1

  20224 65 001051   300000 236100                    LDQ     0,,PR3
        65 001052   100000 036100                    ADLQ    0,,PR1
        65 001053   000144 116007                    CMPQ    100,DL
        65 001054   001056 604400 65                 TMOZ    s:20224+5
        65 001055   000144 236007                    LDQ     100,DL
        65 001056   000000 756100                    STQ     0,,PR0

  20226 65 001057   001070 710000 65                 TRA     s:20232

  20229 65 001060   000144 235007                    LDA     100,DL
        65 001061   000000 755100                    STA     0,,PR0

  20230 65 001062   200334 474500                    LDP4    @PT_PTR,,AUTO
        65 001063   400000 475500                    LDP5    0,,PR4
        65 001064   100000 720100                    LXL0    0,,PR1
        65 001065   040100 100540                    MLR     fill='040'O
        65 001066   500000 000010                    ADSC9   0,,PR5                   cn=0,n=*X0
        65 001067   000001 000144                    ADSC9   1,,PR0                   cn=0,n=100

  20232 65 001070   200330 221300                    LDX1  ! J+1,,AUTO
        65 001071   000001 702211                    TSX2  ! 1,X1

  20234 65 001072   200324 741300       CREATE_DEL_* STX1  ! INS_BEF_DNT$+1,,AUTO
PL6.E3A0      #001=RGRAM File=LR_NRGRAM.:Z8A6TSI                                 SAT 08/09/97 09:36 Page:31
        65 001073   001204 710000 65                 TRA     s:20253

  20239 65 001074   200326 741300       PACK_DEL_TE* STX1  ! I,,AUTO

  20240 65 001075   000000 236000 44                 LDQ     LA_GET
        65 001076   000006 402007                    MPY     6,DL
        65 001077   000003 236006 38                 LDQ     LA_STK+3,QL
        65 001100   000000 116000 66                 CMPQ    0
        65 001101   001164 601000 65                 TNZ     s:20246

  20241 65 001102   000000 236000 44                 LDQ     LA_GET
        65 001103   000006 402007                    MPY     6,DL
        65 001104   000000 236006 38                 LDQ     LA_STK,QL
        65 001105   000015 402007                    MPY     13,DL
        65 001106   000000 116003                    CMPQ    0,DU
        65 001107   001111 605000 65                 TPL     s:20241+7
        65 001110   000044 036003                    ADLQ    36,DU
        65 001111   003100 061406                    CSR     bolr='003'O
        65 001112   000000 100005 xsym               BDSC    TERM_STRING,Q            by=0,bit=8,n=5
        65 001113   202100 000044                    BDSC    TEXTCHAR2+36,,AUTO       by=0,bit=0,n=36
        65 001114   202100 236100                    LDQ     TEXTCHAR2+36,,AUTO
        65 001115   202101 756100                    STQ     TEXTCHAR2+37,,AUTO
        65 001116   000000 236000 44                 LDQ     LA_GET
        65 001117   000006 402007                    MPY     6,DL
        65 001120   000000 236006 38                 LDQ     LA_STK,QL
        65 001121   000015 402007                    MPY     13,DL
        65 001122   202103 756100                    STQ     TEXTCHAR2+39,,AUTO
        65 001123   000000 116003                    CMPQ    0,DU
        65 001124   001126 605000 65                 TPL     s:20241+20
        65 001125   000044 036003                    ADLQ    36,DU
        65 001126   003100 061406                    CSR     bolr='003'O
        65 001127   000000 000010 xsym               BDSC    TERM_STRING,Q            by=0,bit=0,n=8
        65 001130   202102 000044                    BDSC    TEXTCHAR2+38,,AUTO       by=0,bit=0,n=36
        65 001131   202102 236100                    LDQ     TEXTCHAR2+38,,AUTO
        65 001132   202103 235100                    LDA     TEXTCHAR2+39,,AUTO
        65 001133   001135 605000 65                 TPL     s:20241+27
        65 001134   000044 035003                    ADLA    36,DU
PL6.E3A0      #001=RGRAM File=LR_NRGRAM.:Z8A6TSI                                 SAT 08/09/97 09:36 Page:32
        65 001135   003100 061405                    CSR     bolr='003'O
        65 001136   000000 000010 xsym               BDSC    TERM_STRING,A            by=0,bit=0,n=8
        65 001137   202104 000022                    BDSC    TEXTCHAR2+40,,AUTO       by=0,bit=0,n=18
        65 001140   000430 220003                    LDX0    280,DU
        65 001141   202104 120100                    SBLX0   TEXTCHAR2+40,,AUTO
        65 001142   202105 756100                    STQ     TEXTCHAR2+41,,AUTO
        65 001143   202101 236100                    LDQ     TEXTCHAR2+37,,AUTO
        65 001144   202110 756100                    STQ     TEXTCHAR2+44,,AUTO
        65 001145   202105 236100                    LDQ     TEXTCHAR2+41,,AUTO
        65 001146   000020 736000                    QLS     16
        65 001147   000047 036000 66                 ADLQ    39
        65 001150   202112 756100                    STQ     TEXTCHAR2+46,,AUTO
        65 001151   202112 630500                    EPPR0   TEXTCHAR2+46,,AUTO
        65 001152   200334 450500                    STP0    @PT_PTR,,AUTO
        65 001153   202110 631500                    EPPR1   TEXTCHAR2+44,,AUTO
        65 001154   200333 451500                    STP1    @PT_LEN,,AUTO
        65 001155   200201 633500                    EPPR3   DEL_CHAR_OVERFLOW,,AUTO
        65 001156   200332 453500                    STP3    @DI_CHAR_OVERFLOW,,AUTO
        65 001157   200202 634500                    EPPR4   DEL,,AUTO
        65 001160   200331 454500                    STP4    @DI,,AUTO
        65 001161   000732 701000 65                 TSX1    PACK_TERM
        65 001162   000000 011000                    NOP     0
        65 001163   001202 710000 65                 TRA     s:20250

  20246 65 001164   000000 236000 44                 LDQ     LA_GET
        65 001165   000006 402007                    MPY     6,DL
        65 001166   000003 470406 38                 LDP0    LA_STK+3,QL
        65 001167   000001 631500                    EPPR1   1,,PR0
        65 001170   202113 451500                    STP1    TEXTCHAR2+47,,AUTO
        65 001171   202113 633500                    EPPR3   TEXTCHAR2+47,,AUTO
        65 001172   200334 453500                    STP3    @PT_PTR,,AUTO
        65 001173   200333 450500                    STP0    @PT_LEN,,AUTO
        65 001174   200201 634500                    EPPR4   DEL_CHAR_OVERFLOW,,AUTO
        65 001175   200332 454500                    STP4    @DI_CHAR_OVERFLOW,,AUTO
        65 001176   200202 635500                    EPPR5   DEL,,AUTO
        65 001177   200331 455500                    STP5    @DI,,AUTO
        65 001200   000732 701000 65                 TSX1    PACK_TERM
PL6.E3A0      #001=RGRAM File=LR_NRGRAM.:Z8A6TSI                                 SAT 08/09/97 09:36 Page:33
        65 001201   000000 011000                    NOP     0

  20250 65 001202   200326 221300                    LDX1  ! I,,AUTO
        65 001203   000001 702211                    TSX2  ! 1,X1

  20253 65 001204   000000 236000 66                 LDQ     0
        65 001205   200321 756100                    STQ     DEL_DNT$,,AUTO

  20254 65 001206   200202 450100                    STZ     DEL,,AUTO

  20255 65 001207   200201 450100                    STZ     DEL_CHAR_OVERFLOW,,AUTO

  20256 65 001210   200013 235100                    LDA     LC,,AUTO
        65 001211   001263 604400 65                 TMOZ    s:20281

  20258 65 001212   200173 234100                    SZN     LARGE_DELETION,,AUTO
        65 001213   001243 605000 65                 TPL     s:20270

  20260 65 001214   001074 701000 65                 TSX1    PACK_DEL_TERM
        65 001215   000000 011000                    NOP     0

  20261 65 001216   000051 236000 66                 LDQ     41
        65 001217   202114 756100                    STQ     TEXTCHAR2+48,,AUTO
        65 001220   202114 630500                    EPPR0   TEXTCHAR2+48,,AUTO
        65 001221   200334 450500                    STP0    @PT_PTR,,AUTO
        65 001222   000052 236000 66                 LDQ     42
        65 001223   200333 756100                    STQ     @PT_LEN,,AUTO
        65 001224   200201 631500                    EPPR1   DEL_CHAR_OVERFLOW,,AUTO
        65 001225   200332 451500                    STP1    @DI_CHAR_OVERFLOW,,AUTO
        65 001226   200202 633500                    EPPR3   DEL,,AUTO
        65 001227   200331 453500                    STP3    @DI,,AUTO
        65 001230   000732 701000 65                 TSX1    PACK_TERM
        65 001231   000000 011000                    NOP     0

  20265 65 001232   200202 235100                    LDA     DEL,,AUTO
        65 001233   200201 755100                    STA     DEL_CHAR_OVERFLOW,,AUTO

PL6.E3A0      #001=RGRAM File=LR_NRGRAM.:Z8A6TSI                                 SAT 08/09/97 09:36 Page:34
  20266 65 001234   000000 236000 44                 LDQ     LA_GET
        65 001235   000006 402007                    MPY     6,DL
        65 001236   000005 235006 38                 LDA     LA_STK+5,QL
        65 001237   000000 755000 44                 STA     LA_GET

  20267 65 001240   000001 336007                    LCQ     1,DL
        65 001241   000000 056000 42                 ASQ     LA_CNT

  20268 65 001242   200013 056100                    ASQ     LC,,AUTO

  20270 65 001243   200013 235100                    LDA     LC,,AUTO
        65 001244   001257 604400 65                 TMOZ    s:20276

  20271 65 001245   001074 701000 65                 TSX1    PACK_DEL_TERM
        65 001246   000000 011000                    NOP     0

  20272 65 001247   000000 236000 44                 LDQ     LA_GET
        65 001250   000006 402007                    MPY     6,DL
        65 001251   000005 235006 38                 LDA     LA_STK+5,QL
        65 001252   000000 755000 44                 STA     LA_GET

  20273 65 001253   000001 336007                    LCQ     1,DL
        65 001254   000000 056000 42                 ASQ     LA_CNT

  20274 65 001255   200013 056100                    ASQ     LC,,AUTO

  20275 65 001256   001245 605400 65                 TPNZ    s:20271

  20276 65 001257   200202 235100                    LDA     DEL,,AUTO
        65 001260   001263 604400 65                 TMOZ    s:20281

  20278 65 001261   200202 630500                    EPPR0   DEL,,AUTO
        65 001262   200321 450500                    STP0    DEL_DNT$,,AUTO

  20281 65 001263   200324 221300                    LDX1  ! INS_BEF_DNT$+1,,AUTO
        65 001264   000001 702211                    TSX2  ! 1,X1

PL6.E3A0      #001=RGRAM File=LR_NRGRAM.:Z8A6TSI                                 SAT 08/09/97 09:36 Page:35
  20283 65 001265   200324 741300       CREATE_INS_* STX1  ! INS_BEF_DNT$+1,,AUTO

  20287 65 001266   000000 236000 66                 LDQ     0
        65 001267   200322 756100                    STQ     INS_DNT$,,AUTO

  20288 65 001270   200323 756100                    STQ     INS_BEF_DNT$,,AUTO

  20289 65 001271   200235 450100                    STZ     INS,,AUTO

  20290 65 001272   200234 450100                    STZ     INS_CHAR_OVERFLOW,,AUTO

  20291 65 001273   000000 235000 61                 LDA     CORRECTION
        65 001274   001501 604400 65                 TMOZ    s:20317

  20293 65 001275   200325 450100                    STZ     I,,AUTO
        65 001276   001371 710000 65                 TRA     s:20298+1

  20294 65 001277   200325 235100                    LDA     I,,AUTO
        65 001300   000001 735000                    ALS     1
        65 001301   000100 100405                    MLR     fill='000'O
        65 001302   000002 000002 61                 ADSC9   CORRECTION+2,A           cn=0,n=2
        65 001303   202100 000004                    ADSC9   TEXTCHAR2+36,,AUTO       cn=0,n=4
        65 001304   202100 236100                    LDQ     TEXTCHAR2+36,,AUTO
        65 001305   000022 732000                    QRS     18
        65 001306   000015 402007                    MPY     13,DL
        65 001307   000000 116003                    CMPQ    0,DU
        65 001310   001312 605000 65                 TPL     s:20294+11
        65 001311   000044 036003                    ADLQ    36,DU
        65 001312   003100 061406                    CSR     bolr='003'O
        65 001313   000000 100005 xsym               BDSC    TERM_STRING,Q            by=0,bit=8,n=5
        65 001314   202101 000044                    BDSC    TEXTCHAR2+37,,AUTO       by=0,bit=0,n=36
        65 001315   202101 236100                    LDQ     TEXTCHAR2+37,,AUTO
        65 001316   200325 235100                    LDA     I,,AUTO
        65 001317   000001 735000                    ALS     1
        65 001320   000100 100405                    MLR     fill='000'O
        65 001321   000002 000002 61                 ADSC9   CORRECTION+2,A           cn=0,n=2
        65 001322   202102 000004                    ADSC9   TEXTCHAR2+38,,AUTO       cn=0,n=4
PL6.E3A0      #001=RGRAM File=LR_NRGRAM.:Z8A6TSI                                 SAT 08/09/97 09:36 Page:36
        65 001323   202103 756100                    STQ     TEXTCHAR2+39,,AUTO
        65 001324   202102 236100                    LDQ     TEXTCHAR2+38,,AUTO
        65 001325   000022 732000                    QRS     18
        65 001326   000015 402007                    MPY     13,DL
        65 001327   202105 756100                    STQ     TEXTCHAR2+41,,AUTO
        65 001330   000000 116003                    CMPQ    0,DU
        65 001331   001333 605000 65                 TPL     s:20294+28
        65 001332   000044 036003                    ADLQ    36,DU
        65 001333   003100 061406                    CSR     bolr='003'O
        65 001334   000000 000010 xsym               BDSC    TERM_STRING,Q            by=0,bit=0,n=8
        65 001335   202104 000044                    BDSC    TEXTCHAR2+40,,AUTO       by=0,bit=0,n=36
        65 001336   202104 236100                    LDQ     TEXTCHAR2+40,,AUTO
        65 001337   202105 235100                    LDA     TEXTCHAR2+41,,AUTO
        65 001340   001342 605000 65                 TPL     s:20294+35
        65 001341   000044 035003                    ADLA    36,DU
        65 001342   003100 061405                    CSR     bolr='003'O
        65 001343   000000 000010 xsym               BDSC    TERM_STRING,A            by=0,bit=0,n=8
        65 001344   202106 000022                    BDSC    TEXTCHAR2+42,,AUTO       by=0,bit=0,n=18
        65 001345   000430 220003                    LDX0    280,DU
        65 001346   202106 120100                    SBLX0   TEXTCHAR2+42,,AUTO
        65 001347   202107 756100                    STQ     TEXTCHAR2+43,,AUTO
        65 001350   202103 236100                    LDQ     TEXTCHAR2+39,,AUTO
        65 001351   202116 756100                    STQ     TEXTCHAR2+50,,AUTO
        65 001352   202107 236100                    LDQ     TEXTCHAR2+43,,AUTO
        65 001353   000020 736000                    QLS     16
        65 001354   000047 036000 66                 ADLQ    39
        65 001355   202120 756100                    STQ     TEXTCHAR2+52,,AUTO
        65 001356   202120 630500                    EPPR0   TEXTCHAR2+52,,AUTO
        65 001357   200334 450500                    STP0    @PT_PTR,,AUTO
        65 001360   202116 631500                    EPPR1   TEXTCHAR2+50,,AUTO
        65 001361   200333 451500                    STP1    @PT_LEN,,AUTO
        65 001362   200234 633500                    EPPR3   INS_CHAR_OVERFLOW,,AUTO
        65 001363   200332 453500                    STP3    @DI_CHAR_OVERFLOW,,AUTO
        65 001364   200235 634500                    EPPR4   INS,,AUTO
        65 001365   200331 454500                    STP4    @DI,,AUTO
        65 001366   000732 701000 65                 TSX1    PACK_TERM
        65 001367   000000 011000                    NOP     0
PL6.E3A0      #001=RGRAM File=LR_NRGRAM.:Z8A6TSI                                 SAT 08/09/97 09:36 Page:37

  20298 65 001370   200325 054100                    AOS     I,,AUTO
        65 001371   200325 236100                    LDQ     I,,AUTO
        65 001372   000000 116000 61                 CMPQ    CORRECTION
        65 001373   001277 604000 65                 TMI     s:20294

  20299 65 001374   200235 235100                    LDA     INS,,AUTO
        65 001375   001400 604400 65                 TMOZ    s:20303

  20301 65 001376   200235 630500                    EPPR0   INS,,AUTO
        65 001377   200322 450500                    STP0    INS_DNT$,,AUTO

  20303 65 001400   000000 236000 44                 LDQ     LA_GET
        65 001401   000006 402007                    MPY     6,DL
        65 001402   000003 236006 38                 LDQ     LA_STK+3,QL
        65 001403   000000 116000 66                 CMPQ    0
        65 001404   001457 601000 65                 TNZ     s:20311

  20305 65 001405   000000 236000 44                 LDQ     LA_GET
        65 001406   000006 402007                    MPY     6,DL
        65 001407   000000 236006 38                 LDQ     LA_STK,QL
        65 001410   000015 402007                    MPY     13,DL
        65 001411   000000 116003                    CMPQ    0,DU
        65 001412   001414 605000 65                 TPL     s:20305+7
        65 001413   000044 036003                    ADLQ    36,DU
        65 001414   003100 061406                    CSR     bolr='003'O
        65 001415   000000 100005 xsym               BDSC    TERM_STRING,Q            by=0,bit=8,n=5
        65 001416   202100 000044                    BDSC    TEXTCHAR2+36,,AUTO       by=0,bit=0,n=36
        65 001417   202100 236100                    LDQ     TEXTCHAR2+36,,AUTO
        65 001420   000144 116007                    CMPQ    100,DL
        65 001421   001424 602000 65                 TNC     s:20305+15
        65 001422   001424 600000 65                 TZE     s:20305+15
        65 001423   000144 236007                    LDQ     100,DL
        65 001424   200267 756100                    STQ     BEF,,AUTO

  20306 65 001425   000000 236000 44                 LDQ     LA_GET
        65 001426   000006 402007                    MPY     6,DL
PL6.E3A0      #001=RGRAM File=LR_NRGRAM.:Z8A6TSI                                 SAT 08/09/97 09:36 Page:38
        65 001427   000000 236006 38                 LDQ     LA_STK,QL
        65 001430   000015 402007                    MPY     13,DL
        65 001431   202101 756100                    STQ     TEXTCHAR2+37,,AUTO
        65 001432   000000 116003                    CMPQ    0,DU
        65 001433   001435 605000 65                 TPL     s:20306+8
        65 001434   000044 036003                    ADLQ    36,DU
        65 001435   003100 061406                    CSR     bolr='003'O
        65 001436   000000 000010 xsym               BDSC    TERM_STRING,Q            by=0,bit=0,n=8
        65 001437   202100 000044                    BDSC    TEXTCHAR2+36,,AUTO       by=0,bit=0,n=36
        65 001440   202100 236100                    LDQ     TEXTCHAR2+36,,AUTO
        65 001441   202101 235100                    LDA     TEXTCHAR2+37,,AUTO
        65 001442   001444 605000 65                 TPL     s:20306+15
        65 001443   000044 035003                    ADLA    36,DU
        65 001444   003100 061405                    CSR     bolr='003'O
        65 001445   000000 000010 xsym               BDSC    TERM_STRING,A            by=0,bit=0,n=8
        65 001446   202102 000022                    BDSC    TEXTCHAR2+38,,AUTO       by=0,bit=0,n=18
        65 001447   000430 220003                    LDX0    280,DU
        65 001450   202102 120100                    SBLX0   TEXTCHAR2+38,,AUTO
        65 001451   040100 100446                    MLR     fill='040'O
        65 001452   000000 000010 xsym               ADSC9   TSTRING_SPACE,Q          cn=0,n=*X0
        65 001453   200270 000144                    ADSC9   BEF+1,,AUTO              cn=0,n=100

  20307 65 001454   200267 630500                    EPPR0   BEF,,AUTO
        65 001455   200323 450500                    STP0    INS_BEF_DNT$,,AUTO

  20308 65 001456   001501 710000 65                 TRA     s:20317

  20311 65 001457   000000 236000 44                 LDQ     LA_GET
        65 001460   000006 402007                    MPY     6,DL
        65 001461   000003 470406 38                 LDP0    LA_STK+3,QL
        65 001462   000144 236007                    LDQ     100,DL
        65 001463   001466 604000 65                 TMI     s:20311+7
        65 001464   000000 116100                    CMPQ    0,,PR0
        65 001465   001467 604400 65                 TMOZ    s:20311+8
        65 001466   000000 236100                    LDQ     0,,PR0
        65 001467   200267 756100                    STQ     BEF,,AUTO

PL6.E3A0      #001=RGRAM File=LR_NRGRAM.:Z8A6TSI                                 SAT 08/09/97 09:36 Page:39
  20313 65 001470   000000 236000 44                 LDQ     LA_GET
        65 001471   000006 402007                    MPY     6,DL
        65 001472   000003 470406 38                 LDP0    LA_STK+3,QL
        65 001473   000000 720100                    LXL0    0,,PR0
        65 001474   040100 100540                    MLR     fill='040'O
        65 001475   000001 000010                    ADSC9   1,,PR0                   cn=0,n=*X0
        65 001476   200270 000144                    ADSC9   BEF+1,,AUTO              cn=0,n=100

  20314 65 001477   200267 631500                    EPPR1   BEF,,AUTO
        65 001500   200323 451500                    STP1    INS_BEF_DNT$,,AUTO

  20317 65 001501   200324 221300                    LDX1  ! INS_BEF_DNT$+1,,AUTO
        65 001502   000001 702211                    TSX2  ! 1,X1

  20323 65 001503   000000 236000 44                 LDQ     LA_GET
        65 001504   000006 402007                    MPY     6,DL
        65 001505   000001 235006 38                 LDA     LA_STK+1,QL
        65 001506   000000 755000 48                 STA     ERRLINE

  20324 65 001507   000002 235006 38                 LDA     LA_STK+2,QL
        65 001510   000000 755000 49                 STA     ERRCOL

  20327 65 001511   200013 630500                    EPPR0   LC,,AUTO
        65 001512   200325 450500                    STP0    @LRC,,AUTO
        65 001513   000605 701000 65                 TSX1    CALC_CORRECTION
        65 001514   000000 011000                    NOP     0

  20328 65 001515   001072 701000 65                 TSX1    CREATE_DEL_DNT
        65 001516   000000 011000                    NOP     0

  20329 65 001517   001265 701000 65                 TSX1    CREATE_INS_DNT
        65 001520   000000 011000                    NOP     0

  20330 65 001521   200321 236100                    LDQ     DEL_DNT$,,AUTO
        65 001522   000000 116000 66                 CMPQ    0
        65 001523   001535 601000 65                 TNZ     s:20333

PL6.E3A0      #001=RGRAM File=LR_NRGRAM.:Z8A6TSI                                 SAT 08/09/97 09:36 Page:40
  20331 65 001524   200323 630500                    EPPR0   INS_BEF_DNT$,,AUTO
        65 001525   201767 450500                    STP0    @PLUG2$,,AUTO
        65 001526   200322 631500                    EPPR1   INS_DNT$,,AUTO
        65 001527   201766 451500                    STP1    @PLUG1$,,AUTO
        65 001530   000024 236000 66                 LDQ     20
        65 001531   201765 756100                    STQ     @ERROR_TYPE,,AUTO
        65 001532   000132 701000 65                 TSX1    ERROR
        65 001533   000000 011000                    NOP     0
        65 001534   001561 710000 65                 TRA     s:20337

  20333 65 001535   200322 236100                    LDQ     INS_DNT$,,AUTO
        65 001536   000000 116000 66                 CMPQ    0
        65 001537   001551 601000 65                 TNZ     s:20336

  20334 65 001540   000000 236000 66                 LDQ     0
        65 001541   201767 756100                    STQ     @PLUG2$,,AUTO
        65 001542   200321 630500                    EPPR0   DEL_DNT$,,AUTO
        65 001543   201766 450500                    STP0    @PLUG1$,,AUTO
        65 001544   000054 236000 66                 LDQ     44
        65 001545   201765 756100                    STQ     @ERROR_TYPE,,AUTO
        65 001546   000132 701000 65                 TSX1    ERROR
        65 001547   000000 011000                    NOP     0
        65 001550   001561 710000 65                 TRA     s:20337

  20336 65 001551   200322 630500                    EPPR0   INS_DNT$,,AUTO
        65 001552   201767 450500                    STP0    @PLUG2$,,AUTO
        65 001553   200321 631500                    EPPR1   DEL_DNT$,,AUTO
        65 001554   201766 451500                    STP1    @PLUG1$,,AUTO
        65 001555   000056 236000 66                 LDQ     46
        65 001556   201765 756100                    STQ     @ERROR_TYPE,,AUTO
        65 001557   000132 701000 65                 TSX1    ERROR
        65 001560   000000 011000                    NOP     0

  20337 65 001561   000000 235000 61                 LDA     CORRECTION
        65 001562   001574 604400 65                 TMOZ    s:20345

  20339 65 001563   000000 236000 44                 LDQ     LA_GET
PL6.E3A0      #001=RGRAM File=LR_NRGRAM.:Z8A6TSI                                 SAT 08/09/97 09:36 Page:41
        65 001564   000000 756000 50                 STQ     ERR_LA_GET

  20340 65 001565   000000 235000 43                 LDA     LA_PUT
        65 001566   000000 755000 51                 STA     ERR_LA_PUT

  20341 65 001567   000000 235000 42                 LDA     LA_CNT
        65 001570   000000 755000 52                 STA     ERR_LA_CNT

  20342 65 001571   000000 450000 42                 STZ     LA_CNT

  20343 65 001572   000000 235000 43                 LDA     LA_PUT
        65 001573   000000 755000 44                 STA     LA_GET

  20345 65 001574   200200 221300                    LDX1  ! ACCUM_INS_TO_SYM+2,,AUTO
        65 001575   000001 702211                    TSX2  ! 1,X1

  20479 65 001576   200200 741300       LR_INSERT    STX1  ! ACCUM_INS_TO_SYM+2,,AUTO
        65 001577   001745 710000 65                 TRA     s:20592

  20550 65 001600   201762 741300       INITSTAGES   STX1  ! PELEM+1,,AUTO

  20553 65 001601   201763 450100                    STZ     I,,AUTO

  20554 65 001602   201763 236100                    LDQ     I,,AUTO
        65 001603   000064 402007                    MPY     52,DL
        65 001604   200244 630506                    EPPR0   LCC_SPACE,QL,AUTO
        65 001605   201763 720100                    LXL0    I,,AUTO
        65 001606   200224 450510                    STP0    STAGE1$,X0,AUTO

  20555 65 001607   201104 631506                    EPPR1   @PT_PTR+360,QL,AUTO
        65 001610   200234 451510                    STP1    STAGE2$,X0,AUTO

  20556 65 001611   201763 054100                    AOS     I,,AUTO
        65 001612   201763 235100                    LDA     I,,AUTO
        65 001613   000007 115007                    CMPA    7,DL
        65 001614   001602 604400 65                 TMOZ    s:20554

PL6.E3A0      #001=RGRAM File=LR_NRGRAM.:Z8A6TSI                                 SAT 08/09/97 09:36 Page:42
  20557 65 001615   200224 630500                    EPPR0   STAGE1$,,AUTO
        65 001616   200222 450500                    STP0    CURRSTAGE$,,AUTO

  20558 65 001617   200234 631500                    EPPR1   STAGE2$,,AUTO
        65 001620   200223 451500                    STP1    NEXTSTAGE$,,AUTO

  20559 65 001621   001627 701000 65                 TSX1    NEWSTAGE
        65 001622   000000 011000                    NOP     0

  20560 65 001623   001627 701000 65                 TSX1    NEWSTAGE
        65 001624   000000 011000                    NOP     0

  20561 65 001625   201762 221300                    LDX1  ! PELEM+1,,AUTO
        65 001626   000001 702211                    TSX2  ! 1,X1

  20563 65 001627   201764 741300       NEWSTAGE     STX1  ! @PREVSTATE+1,,AUTO

  20567 65 001630   200223 236100                    LDQ     NEXTSTAGE$,,AUTO
        65 001631   201766 756100                    STQ     TPTR,,AUTO

  20568 65 001632   200222 236100                    LDQ     CURRSTAGE$,,AUTO
        65 001633   200223 756100                    STQ     NEXTSTAGE$,,AUTO

  20569 65 001634   201766 236100                    LDQ     TPTR,,AUTO
        65 001635   200222 756100                    STQ     CURRSTAGE$,,AUTO

  20570 65 001636   201765 450100                    STZ     I,,AUTO

  20571 65 001637   200223 470500                    LDP0    NEXTSTAGE$,,AUTO
        65 001640   201765 720100                    LXL0    I,,AUTO
        65 001641   000000 471510                    LDP1    0,X0,PR0
        65 001642   000100 101400                    MRL     fill='000'O
        65 001643   000057 000004 66                 ADSC9   47                       cn=0,n=4
        65 001644   100000 000002                    ADSC9   0,,PR1                   cn=0,n=2

  20572 65 001645   000000 471510                    LDP1    0,X0,PR0
        65 001646   000100 101400                    MRL     fill='000'O
PL6.E3A0      #001=RGRAM File=LR_NRGRAM.:Z8A6TSI                                 SAT 08/09/97 09:36 Page:43
        65 001647   000002 000004 66                 ADSC9   2                        cn=0,n=4
        65 001650   100000 400002                    ADSC9   0,,PR1                   cn=2,n=2

  20573 65 001651   201765 054100                    AOS     I,,AUTO
        65 001652   201765 235100                    LDA     I,,AUTO
        65 001653   000007 115007                    CMPA    7,DL
        65 001654   001637 604400 65                 TMOZ    s:20571

  20574 65 001655   201764 221300                    LDX1  ! @PREVSTATE+1,,AUTO
        65 001656   000001 702211                    TSX2  ! 1,X1

  20576 65 001657   201762 741300       FINDPRED     STX1  ! PELEM+1,,AUTO

  20582 65 001660   201763 470500                    LDP0    @PREVSTATE,,AUTO
        65 001661   000000 235100                    LDA     0,,PR0
        65 001662   000001 735000                    ALS     1
        65 001663   000100 101405                    MRL     fill='000'O
        65 001664   777777 600001 xsym               ADSC9   STATE_ITEM-1,A           cn=3,n=1
        65 001665   202100 000004                    ADSC9   TEXTCHAR2+36,,AUTO       cn=0,n=4
        65 001666   202100 236100                    LDQ     TEXTCHAR2+36,,AUTO
        65 001667   000001 036007                    ADLQ    1,DL
        65 001670   201766 756100                    STQ     I,,AUTO

  20583 65 001671   001673 710000 65                 TRA     s:20586

  20585 65 001672   201766 054100                    AOS     I,,AUTO

  20586 65 001673   201764 470500                    LDP0    @SUCCSTATE,,AUTO
        65 001674   201766 236100                    LDQ     I,,AUTO
        65 001675   000027 402007                    MPY     23,DL
        65 001676   000000 116003                    CMPQ    0,DU
        65 001677   001701 605000 65                 TPL     s:20586+6
        65 001700   000044 036003                    ADLQ    36,DU
        65 001701   003100 060406                    CSL     bolr='003'O
        65 001702   000000 000010 xsym               BDSC    ITEM,Q                   by=0,bit=0,n=8
        65 001703   202100 000044                    BDSC    TEXTCHAR2+36,,AUTO       by=0,bit=0,n=36
        65 001704   202100 236100                    LDQ     TEXTCHAR2+36,,AUTO
PL6.E3A0      #001=RGRAM File=LR_NRGRAM.:Z8A6TSI                                 SAT 08/09/97 09:36 Page:44
        65 001705   000034 732000                    QRS     28
        65 001706   000000 116100                    CMPQ    0,,PR0
        65 001707   001672 601000 65                 TNZ     s:20585
        65 001710   201765 471500                    LDP1    @ITM,,AUTO
        65 001711   201766 236100                    LDQ     I,,AUTO
        65 001712   000027 402007                    MPY     23,DL
        65 001713   000000 116003                    CMPQ    0,DU
        65 001714   001716 605000 65                 TPL     s:20586+19
        65 001715   000044 036003                    ADLQ    36,DU
        65 001716   003100 061406                    CSR     bolr='003'O
        65 001717   000000 100003 xsym               BDSC    ITEM,Q                   by=0,bit=8,n=3
        65 001720   202101 000044                    BDSC    TEXTCHAR2+37,,AUTO       by=0,bit=0,n=36
        65 001721   202101 236100                    LDQ     TEXTCHAR2+37,,AUTO
        65 001722   100000 116100                    CMPQ    0,,PR1
        65 001723   001672 601000 65                 TNZ     s:20585

  20587 65 001724   201766 235100                    LDA     I,,AUTO
        65 001725   201745 755100                    STA     PRED_ITEM,,AUTO

  20588 65 001726   201763 473500                    LDP3    @PREVSTATE,,AUTO
        65 001727   300000 235100                    LDA     0,,PR3
        65 001730   000001 735000                    ALS     1
        65 001731   400000 220003                    LDX0    -131072,DU
        65 001732   000100 101405                    MRL     fill='000'O
        65 001733   000000 000001 xsym               ADSC9   STATE_ITEM,A             cn=0,n=1
        65 001734   202100 000004                    ADSC9   TEXTCHAR2+36,,AUTO       cn=0,n=4
        65 001735   202100 236100                    LDQ     TEXTCHAR2+36,,AUTO
        65 001736   201766 116100                    CMPQ    I,,AUTO
        65 001737   001741 604000 65                 TMI     s:20588+11
        65 001740   000000 220003                    LDX0    0,DU
        65 001741   000000 636010                    EAQ     0,X0
        65 001742   201746 756100                    STQ     PRED_CLOSURE,,AUTO

  20589 65 001743   201762 221300                    LDX1  ! PELEM+1,,AUTO
        65 001744   000001 702211                    TSX2  ! 1,X1

  20592 65 001745   001600 701000 65                 TSX1    INITSTAGES
PL6.E3A0      #001=RGRAM File=LR_NRGRAM.:Z8A6TSI                                 SAT 08/09/97 09:36 Page:45
        65 001746   000000 011000                    NOP     0

  20593 65 001747   000000 235000 47                 LDA     PARSE_STACK_IDX
        65 001750   000022 731000                    ARS     18
        65 001751   200203 755100                    STA     K,,AUTO

  20594 65 001752   303237 236007                    LDQ     99999,DL
        65 001753   200107 756100                    STQ     LR+4,,AUTO

  20595 65 001754   200106 450100                    STZ     LR+3,,AUTO

  20599 65 001755   000000 235005 46                 LDA     PARSE_STACK,AL
        65 001756   000001 735000                    ALS     1
        65 001757   000100 101405                    MRL     fill='000'O
        65 001760   777777 600001 xsym               ADSC9   STATE_ITEM-1,A           cn=3,n=1
        65 001761   202100 000004                    ADSC9   TEXTCHAR2+36,,AUTO       cn=0,n=4
        65 001762   202100 236100                    LDQ     TEXTCHAR2+36,,AUTO
        65 001763   000001 036007                    ADLQ    1,DL
        65 001764   200210 756100                    STQ     LOWBASIS,,AUTO

  20600 65 001765   000000 220000 47                 LDX0    PARSE_STACK_IDX
        65 001766   000000 235010 46                 LDA     PARSE_STACK,X0
        65 001767   000001 735000                    ALS     1
        65 001770   000100 101405                    MRL     fill='000'O
        65 001771   000000 000001 xsym               ADSC9   STATE_ITEM,A             cn=0,n=1
        65 001772   200211 000004                    ADSC9   HIGHBASIS,,AUTO          cn=0,n=4

  20603 65 001773   303237 235007                    LDA     99999,DL
        65 001774   200213 755100                    STA     MINCOST,,AUTO

  20604 65 001775   200201 756100                    STQ     I,,AUTO
        65 001776   002307 710000 65                 TRA     s:20647+1

  20606 65 001777   200201 236100                    LDQ     I,,AUTO
        65 002000   200210 136100                    SBLQ    LOWBASIS,,AUTO
        65 002001   200222 470500                    LDP0    CURRSTAGE$,,AUTO
        65 002002   000000 471506                    LDP1    0,QL,PR0
PL6.E3A0      #001=RGRAM File=LR_NRGRAM.:Z8A6TSI                                 SAT 08/09/97 09:36 Page:46
        65 002003   200201 236100                    LDQ     I,,AUTO
        65 002004   000027 402007                    MPY     23,DL
        65 002005   000000 116003                    CMPQ    0,DU
        65 002006   002010 605000 65                 TPL     s:20606+9
        65 002007   000044 036003                    ADLQ    36,DU
        65 002010   003100 061406                    CSR     bolr='003'O
        65 002011   000000 410004 xsym               BDSC    ITEM,Q                   by=2,bit=1,n=4
        65 002012   100000 400022                    BDSC    0,,PR1                   by=2,bit=0,n=18

  20607 65 002013   200204 450100                    STZ     I2,,AUTO

  20608 65 002014   200220 450100                    STZ     TRYCOST,,AUTO

  20609 65 002015   200201 236100                    LDQ     I,,AUTO
        65 002016   200210 136100                    SBLQ    LOWBASIS,,AUTO
        65 002017   000000 471506                    LDP1    0,QL,PR0
        65 002020   000100 101400                    MRL     fill='000'O
        65 002021   000002 000004 66                 ADSC9   2                        cn=0,n=4
        65 002022   100000 000002                    ADSC9   0,,PR1                   cn=0,n=2

  20610 65 002023   200201 236100                    LDQ     I,,AUTO
        65 002024   000027 402007                    MPY     23,DL
        65 002025   000000 116003                    CMPQ    0,DU
        65 002026   002030 605000 65                 TPL     s:20610+5
        65 002027   000044 036003                    ADLQ    36,DU
        65 002030   003100 061406                    CSR     bolr='003'O
        65 002031   000000 220010 xsym               BDSC    ITEM,Q                   by=1,bit=2,n=8
        65 002032   200202 000044                    BDSC    J,,AUTO                  by=0,bit=0,n=36
        65 002033   002261 710000 65                 TRA     s:20646+1

  20613 65 002034   200105 236100                    LDQ     LR+2,,AUTO
        65 002035   000006 402007                    MPY     6,DL
        65 002036   000000 235006 38                 LDA     LA_STK,QL
        65 002037   000003 735000                    ALS     3
        65 002040   002042 605000 65                 TPL     s:20613+6
        65 002041   000044 035003                    ADLA    36,DU
        65 002042   003100 061405                    CSR     bolr='003'O
PL6.E3A0      #001=RGRAM File=LR_NRGRAM.:Z8A6TSI                                 SAT 08/09/97 09:36 Page:47
        65 002043   000000 000010 xsym               BDSC    LCP_UBOUND,A             by=0,bit=0,n=8
        65 002044   200205 000044                    BDSC    H,,AUTO                  by=0,bit=0,n=36

  20614 65 002045   000000 235006 38                 LDA     LA_STK,QL
        65 002046   000003 735000                    ALS     3
        65 002047   002051 605000 65                 TPL     s:20614+4
        65 002050   000044 035003                    ADLA    36,DU
        65 002051   003100 061405                    CSR     bolr='003'O
        65 002052   777777 610010 xsym               BDSC    LCP_UBOUND-1,A           by=3,bit=1,n=8
        65 002053   202100 000044                    BDSC    TEXTCHAR2+36,,AUTO       by=0,bit=0,n=36
        65 002054   202100 236100                    LDQ     TEXTCHAR2+36,,AUTO
        65 002055   000001 036007                    ADLQ    1,DL
        65 002056   200206 756100                    STQ     L,,AUTO

  20615 65 002057   000001 335007                    LCA     1,DL
        65 002060   200217 755100                    STA     LCP_ELEM_RET,,AUTO

  20616 65 002061   200205 116100                    CMPQ    H,,AUTO
        65 002062   002064 600000 65                 TZE     s:20617
        65 002063   002143 603000 65                 TRC     s:20631

  20617 65 002064   200206 236100                    LDQ     L,,AUTO
        65 002065   200205 036100                    ADLQ    H,,AUTO
        65 002066   000001 772000                    QRL     1
        65 002067   200207 756100                    STQ     M,,AUTO

  20618 65 002070   000043 402007                    MPY     35,DL
        65 002071   003100 061406                    CSR     bolr='003'O
        65 002072   000000 000022 xsym               BDSC    LCP,Q                    by=0,bit=0,n=18
        65 002073   202100 000044                    BDSC    TEXTCHAR2+36,,AUTO       by=0,bit=0,n=36
        65 002074   200202 235100                    LDA     J,,AUTO
        65 002075   002077 605000 65                 TPL     s:20618+7
        65 002076   000006 035003                    ADLA    6,DU
        65 002077   000100 101405                    MRL     fill='000'O
        65 002100   000000 020001 xsym               ADSC6   PATH_ELEM,A              cn=0,n=1
        65 002101   202101 020006                    ADSC6   TEXTCHAR2+37,,AUTO       cn=0,n=6
        65 002102   202101 236100                    LDQ     TEXTCHAR2+37,,AUTO
PL6.E3A0      #001=RGRAM File=LR_NRGRAM.:Z8A6TSI                                 SAT 08/09/97 09:36 Page:48
        65 002103   202100 116100                    CMPQ    TEXTCHAR2+36,,AUTO
        65 002104   002113 601000 65                 TNZ     s:20624

  20620 65 002105   200207 235100                    LDA     M,,AUTO
        65 002106   200217 755100                    STA     LCP_ELEM_RET,,AUTO

  20621 65 002107   200206 236100                    LDQ     L,,AUTO
        65 002110   000001 136007                    SBLQ    1,DL
        65 002111   200205 756100                    STQ     H,,AUTO

  20622 65 002112   002140 710000 65                 TRA     s:20628

  20624 65 002113   200207 236100                    LDQ     M,,AUTO
        65 002114   000043 402007                    MPY     35,DL
        65 002115   003100 061406                    CSR     bolr='003'O
        65 002116   000000 000022 xsym               BDSC    LCP,Q                    by=0,bit=0,n=18
        65 002117   202100 000044                    BDSC    TEXTCHAR2+36,,AUTO       by=0,bit=0,n=36
        65 002120   200202 235100                    LDA     J,,AUTO
        65 002121   002123 605000 65                 TPL     s:20624+8
        65 002122   000006 035003                    ADLA    6,DU
        65 002123   000100 101405                    MRL     fill='000'O
        65 002124   000000 020001 xsym               ADSC6   PATH_ELEM,A              cn=0,n=1
        65 002125   202101 020006                    ADSC6   TEXTCHAR2+37,,AUTO       cn=0,n=6
        65 002126   202101 236100                    LDQ     TEXTCHAR2+37,,AUTO
        65 002127   202100 116100                    CMPQ    TEXTCHAR2+36,,AUTO
        65 002130   002135 605000 65                 TPL     s:20627

  20625 65 002131   200207 235100                    LDA     M,,AUTO
        65 002132   000001 135007                    SBLA    1,DL
        65 002133   200205 755100                    STA     H,,AUTO
        65 002134   002140 710000 65                 TRA     s:20628

  20627 65 002135   200207 235100                    LDA     M,,AUTO
        65 002136   000001 035007                    ADLA    1,DL
        65 002137   200206 755100                    STA     L,,AUTO

  20628 65 002140   200205 236100                    LDQ     H,,AUTO
PL6.E3A0      #001=RGRAM File=LR_NRGRAM.:Z8A6TSI                                 SAT 08/09/97 09:36 Page:49
        65 002141   200206 116100                    CMPQ    L,,AUTO
        65 002142   002064 603000 65                 TRC     s:20617

  20631 65 002143   200217 235100                    LDA     LCP_ELEM_RET,,AUTO
        65 002144   002201 604000 65                 TMI     s:20642

  20633 65 002145   200201 236100                    LDQ     I,,AUTO
        65 002146   200210 136100                    SBLQ    LOWBASIS,,AUTO
        65 002147   200222 470500                    LDP0    CURRSTAGE$,,AUTO
        65 002150   000000 471506                    LDP1    0,QL,PR0
        65 002151   200217 236100                    LDQ     LCP_ELEM_RET,,AUTO
        65 002152   000043 402007                    MPY     35,DL
        65 002153   000000 116003                    CMPQ    0,DU
        65 002154   002156 605000 65                 TPL     s:20633+9
        65 002155   000044 036003                    ADLQ    36,DU
        65 002156   003100 061406                    CSR     bolr='003'O
        65 002157   000000 400010 xsym               BDSC    LCP,Q                    by=2,bit=0,n=8
        65 002160   202100 000044                    BDSC    TEXTCHAR2+36,,AUTO       by=0,bit=0,n=36
        65 002161   000100 100500                    MLR     fill='000'O
        65 002162   100000 000002                    ADSC9   0,,PR1                   cn=0,n=2
        65 002163   202101 000004                    ADSC9   TEXTCHAR2+37,,AUTO       cn=0,n=4
        65 002164   202101 236100                    LDQ     TEXTCHAR2+37,,AUTO
        65 002165   000022 732000                    QRS     18
        65 002166   202100 036100                    ADLQ    TEXTCHAR2+36,,AUTO
        65 002167   200220 756100                    STQ     TRYCOST,,AUTO

  20634 65 002170   200213 116100                    CMPQ    MINCOST,,AUTO
        65 002171   002201 605000 65                 TPL     s:20642

  20636 65 002172   200201 235100                    LDA     I,,AUTO
        65 002173   200212 755100                    STA     MINITEM,,AUTO

  20637 65 002174   200202 235100                    LDA     J,,AUTO
        65 002175   200214 755100                    STA     MINPOS,,AUTO

  20638 65 002176   200213 756100                    STQ     MINCOST,,AUTO

PL6.E3A0      #001=RGRAM File=LR_NRGRAM.:Z8A6TSI                                 SAT 08/09/97 09:36 Page:50
  20639 65 002177   200217 235100                    LDA     LCP_ELEM_RET,,AUTO
        65 002200   200215 755100                    STA     MINLCPINDX,,AUTO

  20642 65 002201   200201 236100                    LDQ     I,,AUTO
        65 002202   200210 136100                    SBLQ    LOWBASIS,,AUTO
        65 002203   200222 470500                    LDP0    CURRSTAGE$,,AUTO
        65 002204   000000 471506                    LDP1    0,QL,PR0
        65 002205   200201 236100                    LDQ     I,,AUTO
        65 002206   200210 136100                    SBLQ    LOWBASIS,,AUTO
        65 002207   000000 473506                    LDP3    0,QL,PR0
        65 002210   200202 235100                    LDA     J,,AUTO
        65 002211   002213 605000 65                 TPL     s:20642+10
        65 002212   000006 035003                    ADLA    6,DU
        65 002213   000100 101405                    MRL     fill='000'O
        65 002214   000000 020001 xsym               ADSC6   PATH_ELEM,A              cn=0,n=1
        65 002215   202100 020006                    ADSC6   TEXTCHAR2+36,,AUTO       cn=0,n=6
        65 002216   202100 236100                    LDQ     TEXTCHAR2+36,,AUTO
        65 002217   000032 402007                    MPY     26,DL
        65 002220   003100 061406                    CSR     bolr='003'O
        65 002221   000000 000021 xsym               BDSC    LCS,Q                    by=0,bit=0,n=17
        65 002222   202101 000044                    BDSC    TEXTCHAR2+37,,AUTO       by=0,bit=0,n=36
        65 002223   000100 100500                    MLR     fill='000'O
        65 002224   300000 000002                    ADSC9   0,,PR3                   cn=0,n=2
        65 002225   202102 000004                    ADSC9   TEXTCHAR2+38,,AUTO       cn=0,n=4
        65 002226   202102 236100                    LDQ     TEXTCHAR2+38,,AUTO
        65 002227   000022 732000                    QRS     18
        65 002230   202101 036100                    ADLQ    TEXTCHAR2+37,,AUTO
        65 002231   202103 756100                    STQ     TEXTCHAR2+39,,AUTO
        65 002232   000100 101500                    MRL     fill='000'O
        65 002233   202103 000004                    ADSC9   TEXTCHAR2+39,,AUTO       cn=0,n=4
        65 002234   100000 000002                    ADSC9   0,,PR1                   cn=0,n=2

  20644 65 002235   200201 236100                    LDQ     I,,AUTO
        65 002236   200210 136100                    SBLQ    LOWBASIS,,AUTO
        65 002237   000000 471506                    LDP1    0,QL,PR0
        65 002240   200202 236100                    LDQ     J,,AUTO
        65 002241   000006 402007                    MPY     6,DL
PL6.E3A0      #001=RGRAM File=LR_NRGRAM.:Z8A6TSI                                 SAT 08/09/97 09:36 Page:51
        65 002242   000000 116003                    CMPQ    0,DU
        65 002243   002245 605000 65                 TPL     s:20644+8
        65 002244   000044 036003                    ADLQ    36,DU
        65 002245   202100 756100                    STQ     TEXTCHAR2+36,,AUTO
        65 002246   200204 236100                    LDQ     I2,,AUTO
        65 002247   000022 402007                    MPY     18,DL
        65 002250   000000 116003                    CMPQ    0,DU
        65 002251   002253 605000 65                 TPL     s:20644+14
        65 002252   000044 036003                    ADLQ    36,DU
        65 002253   202100 235100                    LDA     TEXTCHAR2+36,,AUTO
        65 002254   003106 061405                    CSR     bolr='003'O
        65 002255   000000 000006 xsym               BDSC    PATH_ELEM,A              by=0,bit=0,n=6
        65 002256   100001 000022                    BDSC    1,Q,PR1                  by=0,bit=0,n=18

  20645 65 002257   200204 054100                    AOS     I2,,AUTO

  20646 65 002260   200202 054100                    AOS     J,,AUTO
        65 002261   200201 236100                    LDQ     I,,AUTO
        65 002262   000027 402007                    MPY     23,DL
        65 002263   000000 116003                    CMPQ    0,DU
        65 002264   002266 605000 65                 TPL     s:20646+6
        65 002265   000044 036003                    ADLQ    36,DU
        65 002266   003100 061406                    CSR     bolr='003'O
        65 002267   000000 410004 xsym               BDSC    ITEM,Q                   by=2,bit=1,n=4
        65 002270   202100 000044                    BDSC    TEXTCHAR2+36,,AUTO       by=0,bit=0,n=36
        65 002271   200201 236100                    LDQ     I,,AUTO
        65 002272   000027 402007                    MPY     23,DL
        65 002273   000000 116003                    CMPQ    0,DU
        65 002274   002276 605000 65                 TPL     s:20646+14
        65 002275   000044 036003                    ADLQ    36,DU
        65 002276   003100 061406                    CSR     bolr='003'O
        65 002277   000000 220010 xsym               BDSC    ITEM,Q                   by=1,bit=2,n=8
        65 002300   202101 000044                    BDSC    TEXTCHAR2+37,,AUTO       by=0,bit=0,n=36
        65 002301   202101 236100                    LDQ     TEXTCHAR2+37,,AUTO
        65 002302   202100 036100                    ADLQ    TEXTCHAR2+36,,AUTO
        65 002303   002034 604000 65                 TMI     s:20613
        65 002304   200202 116100                    CMPQ    J,,AUTO
PL6.E3A0      #001=RGRAM File=LR_NRGRAM.:Z8A6TSI                                 SAT 08/09/97 09:36 Page:52
        65 002305   002034 605400 65                 TPNZ    s:20613

  20647 65 002306   200201 054100                    AOS     I,,AUTO
        65 002307   200201 236100                    LDQ     I,,AUTO
        65 002310   200211 116100                    CMPQ    HIGHBASIS,,AUTO
        65 002311   001777 604400 65                 TMOZ    s:20606

  20649 65 002312   200213 235100                    LDA     MINCOST,,AUTO
        65 002313   303237 115007                    CMPA    99999,DL
        65 002314   002445 605000 65                 TPL     s:20666

  20651 65 002315   200107 755100                    STA     LR+4,,AUTO

  20652 65 002316   200106 450100                    STZ     LR+3,,AUTO

  20653 65 002317   200212 236100                    LDQ     MINITEM,,AUTO
        65 002320   000027 402007                    MPY     23,DL
        65 002321   000000 116003                    CMPQ    0,DU
        65 002322   002324 605000 65                 TPL     s:20653+5
        65 002323   000044 036003                    ADLQ    36,DU
        65 002324   003100 061406                    CSR     bolr='003'O
        65 002325   000000 220010 xsym               BDSC    ITEM,Q                   by=1,bit=2,n=8
        65 002326   200202 000044                    BDSC    J,,AUTO                  by=0,bit=0,n=36
        65 002327   002347 710000 65                 TRA     s:20656+1

  20654 65 002330   200202 235100                    LDA     J,,AUTO
        65 002331   002333 605000 65                 TPL     s:20654+3
        65 002332   000006 035003                    ADLA    6,DU
        65 002333   200106 236100                    LDQ     LR+3,,AUTO
        65 002334   202100 755100                    STA     TEXTCHAR2+36,,AUTO
        65 002335   000003 402007                    MPY     3,DL
        65 002336   000000 116003                    CMPQ    0,DU
        65 002337   002341 605000 65                 TPL     s:20654+9
        65 002340   000006 036003                    ADLQ    6,DU
        65 002341   202100 235100                    LDA     TEXTCHAR2+36,,AUTO
        65 002342   000106 101405                    MRL     fill='000'O
        65 002343   000000 020001 xsym               ADSC6   PATH_ELEM,A              cn=0,n=1
PL6.E3A0      #001=RGRAM File=LR_NRGRAM.:Z8A6TSI                                 SAT 08/09/97 09:36 Page:53
        65 002344   200110 020003                    ADSC6   LR+5,Q,AUTO              cn=0,n=3

  20655 65 002345   200106 054100                    AOS     LR+3,,AUTO

  20656 65 002346   200202 054100                    AOS     J,,AUTO
        65 002347   200202 236100                    LDQ     J,,AUTO
        65 002350   200214 116100                    CMPQ    MINPOS,,AUTO
        65 002351   002330 604000 65                 TMI     s:20654

  20658 65 002352   200215 236100                    LDQ     MINLCPINDX,,AUTO
        65 002353   000043 402007                    MPY     35,DL
        65 002354   000000 116003                    CMPQ    0,DU
        65 002355   002357 605000 65                 TPL     s:20658+5
        65 002356   000044 036003                    ADLQ    36,DU
        65 002357   003100 061406                    CSR     bolr='003'O
        65 002360   000000 650003 xsym               BDSC    LCP,Q                    by=3,bit=5,n=3
        65 002361   202100 000044                    BDSC    TEXTCHAR2+36,,AUTO       by=0,bit=0,n=36
        65 002362   202100 236100                    LDQ     TEXTCHAR2+36,,AUTO
        65 002363   200106 036100                    ADLQ    LR+3,,AUTO
        65 002364   000144 116007                    CMPQ    100,DL
        65 002365   002370 604400 65                 TMOZ    s:20660

  20659 65 002366   000563 701000 65                 TSX1    ABORT_CORRECTION
        65 002367   000000 011000                    NOP     0

  20660 65 002370   200215 236100                    LDQ     MINLCPINDX,,AUTO
        65 002371   000043 402007                    MPY     35,DL
        65 002372   000000 116003                    CMPQ    0,DU
        65 002373   002375 605000 65                 TPL     s:20660+5
        65 002374   000044 036003                    ADLQ    36,DU
        65 002375   003100 061406                    CSR     bolr='003'O
        65 002376   000000 500006 xsym               BDSC    LCP,Q                    by=2,bit=8,n=6
        65 002377   200202 000044                    BDSC    J,,AUTO                  by=0,bit=0,n=36
        65 002400   002420 710000 65                 TRA     s:20664+1

  20662 65 002401   200202 235100                    LDA     J,,AUTO
        65 002402   002404 605000 65                 TPL     s:20662+3
PL6.E3A0      #001=RGRAM File=LR_NRGRAM.:Z8A6TSI                                 SAT 08/09/97 09:36 Page:54
        65 002403   000006 035003                    ADLA    6,DU
        65 002404   200106 236100                    LDQ     LR+3,,AUTO
        65 002405   202100 755100                    STA     TEXTCHAR2+36,,AUTO
        65 002406   000003 402007                    MPY     3,DL
        65 002407   000000 116003                    CMPQ    0,DU
        65 002410   002412 605000 65                 TPL     s:20662+9
        65 002411   000006 036003                    ADLQ    6,DU
        65 002412   202100 235100                    LDA     TEXTCHAR2+36,,AUTO
        65 002413   000106 101405                    MRL     fill='000'O
        65 002414   000000 020001 xsym               ADSC6   LCP_ELEM,A               cn=0,n=1
        65 002415   200110 020003                    ADSC6   LR+5,Q,AUTO              cn=0,n=3

  20663 65 002416   200106 054100                    AOS     LR+3,,AUTO

  20664 65 002417   200202 054100                    AOS     J,,AUTO
        65 002420   200215 236100                    LDQ     MINLCPINDX,,AUTO
        65 002421   000043 402007                    MPY     35,DL
        65 002422   000000 116003                    CMPQ    0,DU
        65 002423   002425 605000 65                 TPL     s:20664+6
        65 002424   000044 036003                    ADLQ    36,DU
        65 002425   003100 061406                    CSR     bolr='003'O
        65 002426   000000 650003 xsym               BDSC    LCP,Q                    by=3,bit=5,n=3
        65 002427   202100 000044                    BDSC    TEXTCHAR2+36,,AUTO       by=0,bit=0,n=36
        65 002430   200215 236100                    LDQ     MINLCPINDX,,AUTO
        65 002431   000043 402007                    MPY     35,DL
        65 002432   000000 116003                    CMPQ    0,DU
        65 002433   002435 605000 65                 TPL     s:20664+14
        65 002434   000044 036003                    ADLQ    36,DU
        65 002435   003100 061406                    CSR     bolr='003'O
        65 002436   000000 500006 xsym               BDSC    LCP,Q                    by=2,bit=8,n=6
        65 002437   202101 000044                    BDSC    TEXTCHAR2+37,,AUTO       by=0,bit=0,n=36
        65 002440   202101 236100                    LDQ     TEXTCHAR2+37,,AUTO
        65 002441   202100 036100                    ADLQ    TEXTCHAR2+36,,AUTO
        65 002442   002401 604000 65                 TMI     s:20662
        65 002443   200202 116100                    CMPQ    J,,AUTO
        65 002444   002401 605400 65                 TPNZ    s:20662

PL6.E3A0      #001=RGRAM File=LR_NRGRAM.:Z8A6TSI                                 SAT 08/09/97 09:36 Page:55
  20666 65 002445   400000 220003                    LDX0    -131072,DU
        65 002446   200203 235100                    LDA     K,,AUTO
        65 002447   002451 605400 65                 TPNZ    s:20666+4
        65 002450   000000 220003                    LDX0    0,DU
        65 002451   000000 636010                    EAQ     0,X0
        65 002452   201747 756100                    STQ     WORTHCONTINUING,,AUTO

  20667 65 002453   201747 234100                    SZN     WORTHCONTINUING,,AUTO
        65 002454   003626 605000 65                 TPL     s:20803

  20668 65 002455   201747 450100                    STZ     WORTHCONTINUING,,AUTO

  20673 65 002456   200203 720100                    LXL0    K,,AUTO
        65 002457   000000 235010 46                 LDA     PARSE_STACK,X0
        65 002460   000001 735000                    ALS     1
        65 002461   000100 101405                    MRL     fill='000'O
        65 002462   777777 600001 xsym               ADSC9   STATE_ITEM-1,A           cn=3,n=1
        65 002463   202100 000004                    ADSC9   TEXTCHAR2+36,,AUTO       cn=0,n=4
        65 002464   202100 236100                    LDQ     TEXTCHAR2+36,,AUTO
        65 002465   000001 036007                    ADLQ    1,DL
        65 002466   201750 756100                    STQ     CURRLOWBASIS,,AUTO

  20674 65 002467   000100 101405                    MRL     fill='000'O
        65 002470   000000 000001 xsym               ADSC9   STATE_ITEM,A             cn=0,n=1
        65 002471   201751 000004                    ADSC9   CURRHIGHBASIS,,AUTO      cn=0,n=4

  20677 65 002472   201752 450100                    STZ     ITM,,AUTO
        65 002473   003606 710000 65                 TRA     s:20794+1

  20678 65 002474   200222 470500                    LDP0    CURRSTAGE$,,AUTO
        65 002475   201752 720100                    LXL0    ITM,,AUTO
        65 002476   000000 471510                    LDP1    0,X0,PR0
        65 002477   000100 100500                    MLR     fill='000'O
        65 002500   100000 000002                    ADSC9   0,,PR1                   cn=0,n=2
        65 002501   202100 000004                    ADSC9   TEXTCHAR2+36,,AUTO       cn=0,n=4
        65 002502   202100 236100                    LDQ     TEXTCHAR2+36,,AUTO
        65 002503   000022 732000                    QRS     18
PL6.E3A0      #001=RGRAM File=LR_NRGRAM.:Z8A6TSI                                 SAT 08/09/97 09:36 Page:56
        65 002504   200107 116100                    CMPQ    LR+4,,AUTO
        65 002505   003605 605000 65                 TPL     s:20794

  20680 65 002506   400000 236003                    LDQ     -131072,DU
        65 002507   201747 756100                    STQ     WORTHCONTINUING,,AUTO

  20681 65 002510   201752 631500                    EPPR1   ITM,,AUTO
        65 002511   201765 451500                    STP1    @ERROR_TYPE,,AUTO
        65 002512   200203 721100                    LXL1    K,,AUTO
        65 002513   000000 633411 46                 EPPR3   PARSE_STACK,X1
        65 002514   201764 453500                    STP3    @PREVSTATE+1,,AUTO
        65 002515   777777 634411 46                 EPPR4   PARSE_STACK-1,X1
        65 002516   201763 454500                    STP4    PELEM+2,,AUTO
        65 002517   001657 701000 65                 TSX1    FINDPRED
        65 002520   000000 011000                    NOP     0

  20688 65 002521   200203 720100                    LXL0    K,,AUTO
        65 002522   777777 235010 46                 LDA     PARSE_STACK-1,X0
        65 002523   000001 735000                    ALS     1
        65 002524   000100 101405                    MRL     fill='000'O
        65 002525   777777 600001 xsym               ADSC9   STATE_ITEM-1,A           cn=3,n=1
        65 002526   202100 000004                    ADSC9   TEXTCHAR2+36,,AUTO       cn=0,n=4
        65 002527   202100 236100                    LDQ     TEXTCHAR2+36,,AUTO
        65 002530   000001 036007                    ADLQ    1,DL
        65 002531   201753 756100                    STQ     NEXTLOWBASIS,,AUTO

  20689 65 002532   000100 101405                    MRL     fill='000'O
        65 002533   000000 000001 xsym               ADSC9   STATE_ITEM,A             cn=0,n=1
        65 002534   201754 000004                    ADSC9   NEXTHIGHBASIS,,AUTO      cn=0,n=4

  20692 65 002535   201746 234100                    SZN     PRED_CLOSURE,,AUTO
        65 002536   003552 605000 65                 TPL     s:20791

  20694 65 002537   201755 450100                    STZ     NEXTITEM,,AUTO
        65 002540   003050 710000 65                 TRA     s:20720+1

  20696 65 002541   201745 236100                    LDQ     PRED_ITEM,,AUTO
PL6.E3A0      #001=RGRAM File=LR_NRGRAM.:Z8A6TSI                                 SAT 08/09/97 09:36 Page:57
        65 002542   000027 402007                    MPY     23,DL
        65 002543   000000 116003                    CMPQ    0,DU
        65 002544   002546 605000 65                 TPL     s:20696+5
        65 002545   000044 036003                    ADLQ    36,DU
        65 002546   003100 061406                    CSR     bolr='003'O
        65 002547   000000 220010 xsym               BDSC    ITEM,Q                   by=1,bit=2,n=8
        65 002550   202100 000044                    BDSC    TEXTCHAR2+36,,AUTO       by=0,bit=0,n=36
        65 002551   202100 236100                    LDQ     TEXTCHAR2+36,,AUTO
        65 002552   201755 036100                    ADLQ    NEXTITEM,,AUTO
        65 002553   201756 756100                    STQ     P,,AUTO

  20697 65 002554   000014 402007                    MPY     12,DL
        65 002555   000000 116003                    CMPQ    0,DU
        65 002556   002560 605000 65                 TPL     s:20697+4
        65 002557   000044 036003                    ADLQ    36,DU
        65 002560   003100 060406                    CSL     bolr='003'O
        65 002561   000000 000010 xsym               BDSC    PATH,Q                   by=0,bit=0,n=8
        65 002562   202100 000044                    BDSC    TEXTCHAR2+36,,AUTO       by=0,bit=0,n=36
        65 002563   202100 236100                    LDQ     TEXTCHAR2+36,,AUTO
        65 002564   000034 732000                    QRS     28
        65 002565   000000 116003                    CMPQ    0,DU
        65 002566   002572 605000 65                 TPL     s:20701

  20698 65 002567   303237 235007                    LDA     99999,DL
        65 002570   201760 755100                    STA     PATH_COST,,AUTO
        65 002571   002653 710000 65                 TRA     s:20706

  20701 65 002572   201760 450100                    STZ     PATH_COST,,AUTO

  20702 65 002573   201756 236100                    LDQ     P,,AUTO
        65 002574   000014 402007                    MPY     12,DL
        65 002575   000000 116003                    CMPQ    0,DU
        65 002576   002600 605000 65                 TPL     s:20702+5
        65 002577   000044 036003                    ADLQ    36,DU
        65 002600   003100 060406                    CSL     bolr='003'O
        65 002601   000000 000010 xsym               BDSC    PATH,Q                   by=0,bit=0,n=8
        65 002602   202100 000044                    BDSC    TEXTCHAR2+36,,AUTO       by=0,bit=0,n=36
PL6.E3A0      #001=RGRAM File=LR_NRGRAM.:Z8A6TSI                                 SAT 08/09/97 09:36 Page:58
        65 002603   202100 236100                    LDQ     TEXTCHAR2+36,,AUTO
        65 002604   000034 732000                    QRS     28
        65 002605   201757 756100                    STQ     PE,,AUTO
        65 002606   002626 710000 65                 TRA     s:20704+1

  20703 65 002607   201757 235100                    LDA     PE,,AUTO
        65 002610   002612 605000 65                 TPL     s:20703+3
        65 002611   000006 035003                    ADLA    6,DU
        65 002612   000100 101405                    MRL     fill='000'O
        65 002613   000000 020001 xsym               ADSC6   PATH_ELEM,A              cn=0,n=1
        65 002614   202100 020006                    ADSC6   TEXTCHAR2+36,,AUTO       cn=0,n=6
        65 002615   202100 236100                    LDQ     TEXTCHAR2+36,,AUTO
        65 002616   000032 402007                    MPY     26,DL
        65 002617   003100 061406                    CSR     bolr='003'O
        65 002620   000000 000021 xsym               BDSC    LCS,Q                    by=0,bit=0,n=17
        65 002621   202101 000044                    BDSC    TEXTCHAR2+37,,AUTO       by=0,bit=0,n=36
        65 002622   202101 236100                    LDQ     TEXTCHAR2+37,,AUTO
        65 002623   201760 036100                    ADLQ    PATH_COST,,AUTO
        65 002624   201760 756100                    STQ     PATH_COST,,AUTO

  20704 65 002625   201757 054100                    AOS     PE,,AUTO
        65 002626   201756 236100                    LDQ     P,,AUTO
        65 002627   000014 402007                    MPY     12,DL
        65 002630   000000 116003                    CMPQ    0,DU
        65 002631   002633 605000 65                 TPL     s:20704+6
        65 002632   000044 036003                    ADLQ    36,DU
        65 002633   003100 061406                    CSR     bolr='003'O
        65 002634   000000 100004 xsym               BDSC    PATH,Q                   by=0,bit=8,n=4
        65 002635   202100 000044                    BDSC    TEXTCHAR2+36,,AUTO       by=0,bit=0,n=36
        65 002636   201756 236100                    LDQ     P,,AUTO
        65 002637   000014 402007                    MPY     12,DL
        65 002640   000000 116003                    CMPQ    0,DU
        65 002641   002643 605000 65                 TPL     s:20704+14
        65 002642   000044 036003                    ADLQ    36,DU
        65 002643   003100 060406                    CSL     bolr='003'O
        65 002644   000000 000010 xsym               BDSC    PATH,Q                   by=0,bit=0,n=8
        65 002645   202101 000044                    BDSC    TEXTCHAR2+37,,AUTO       by=0,bit=0,n=36
PL6.E3A0      #001=RGRAM File=LR_NRGRAM.:Z8A6TSI                                 SAT 08/09/97 09:36 Page:59
        65 002646   202101 236100                    LDQ     TEXTCHAR2+37,,AUTO
        65 002647   000034 732000                    QRS     28
        65 002650   202100 036100                    ADLQ    TEXTCHAR2+36,,AUTO
        65 002651   201757 116100                    CMPQ    PE,,AUTO
        65 002652   002607 605400 65                 TPNZ    s:20703

  20706 65 002653   200222 470500                    LDP0    CURRSTAGE$,,AUTO
        65 002654   201752 720100                    LXL0    ITM,,AUTO
        65 002655   000000 471510                    LDP1    0,X0,PR0
        65 002656   000100 100500                    MLR     fill='000'O
        65 002657   100000 000002                    ADSC9   0,,PR1                   cn=0,n=2
        65 002660   202100 000004                    ADSC9   TEXTCHAR2+36,,AUTO       cn=0,n=4
        65 002661   202100 236100                    LDQ     TEXTCHAR2+36,,AUTO
        65 002662   000022 732000                    QRS     18
        65 002663   201760 036100                    ADLQ    PATH_COST,,AUTO
        65 002664   200223 471500                    LDP1    NEXTSTAGE$,,AUTO
        65 002665   201755 721100                    LXL1    NEXTITEM,,AUTO
        65 002666   100000 473511                    LDP3    0,X1,PR1
        65 002667   000100 100500                    MLR     fill='000'O
        65 002670   300000 000002                    ADSC9   0,,PR3                   cn=0,n=2
        65 002671   202101 000004                    ADSC9   TEXTCHAR2+37,,AUTO       cn=0,n=4
        65 002672   202102 756100                    STQ     TEXTCHAR2+38,,AUTO
        65 002673   202101 236100                    LDQ     TEXTCHAR2+37,,AUTO
        65 002674   000022 732000                    QRS     18
        65 002675   202103 756100                    STQ     TEXTCHAR2+39,,AUTO
        65 002676   202102 236100                    LDQ     TEXTCHAR2+38,,AUTO
        65 002677   202103 116100                    CMPQ    TEXTCHAR2+39,,AUTO
        65 002700   003047 605000 65                 TPL     s:20720

  20709 65 002701   100000 473511                    LDP3    0,X1,PR1
        65 002702   000000 474510                    LDP4    0,X0,PR0
        65 002703   000100 100500                    MLR     fill='000'O
        65 002704   400000 000316                    ADSC9   0,,PR4                   cn=0,n=206
        65 002705   300000 000316                    ADSC9   0,,PR3                   cn=0,n=206

  20710 65 002706   201756 236100                    LDQ     P,,AUTO
        65 002707   000014 402007                    MPY     12,DL
PL6.E3A0      #001=RGRAM File=LR_NRGRAM.:Z8A6TSI                                 SAT 08/09/97 09:36 Page:60
        65 002710   000000 116003                    CMPQ    0,DU
        65 002711   002713 605000 65                 TPL     s:20710+5
        65 002712   000044 036003                    ADLQ    36,DU
        65 002713   003100 060406                    CSL     bolr='003'O
        65 002714   000000 000010 xsym               BDSC    PATH,Q                   by=0,bit=0,n=8
        65 002715   202100 000044                    BDSC    TEXTCHAR2+36,,AUTO       by=0,bit=0,n=36
        65 002716   202100 236100                    LDQ     TEXTCHAR2+36,,AUTO
        65 002717   000034 732000                    QRS     28
        65 002720   201757 756100                    STQ     PE,,AUTO
        65 002721   003002 710000 65                 TRA     s:20717+1

  20711 65 002722   200223 470500                    LDP0    NEXTSTAGE$,,AUTO
        65 002723   201755 720100                    LXL0    NEXTITEM,,AUTO
        65 002724   000000 471510                    LDP1    0,X0,PR0
        65 002725   000100 100500                    MLR     fill='000'O
        65 002726   100000 400002                    ADSC9   0,,PR1                   cn=2,n=2
        65 002727   202100 000004                    ADSC9   TEXTCHAR2+36,,AUTO       cn=0,n=4
        65 002730   202100 236100                    LDQ     TEXTCHAR2+36,,AUTO
        65 002731   000022 732000                    QRS     18
        65 002732   000144 116007                    CMPQ    100,DL
        65 002733   002736 604000 65                 TMI     s:20713

  20712 65 002734   000563 701000 65                 TSX1    ABORT_CORRECTION
        65 002735   000000 011000                    NOP     0

  20713 65 002736   200223 470500                    LDP0    NEXTSTAGE$,,AUTO
        65 002737   201755 720100                    LXL0    NEXTITEM,,AUTO
        65 002740   000000 471510                    LDP1    0,X0,PR0
        65 002741   000100 100500                    MLR     fill='000'O
        65 002742   100000 400002                    ADSC9   0,,PR1                   cn=2,n=2
        65 002743   202100 000004                    ADSC9   TEXTCHAR2+36,,AUTO       cn=0,n=4
        65 002744   202100 236100                    LDQ     TEXTCHAR2+36,,AUTO
        65 002745   000022 732000                    QRS     18
        65 002746   202101 756100                    STQ     TEXTCHAR2+37,,AUTO
        65 002747   201757 236100                    LDQ     PE,,AUTO
        65 002750   000006 402007                    MPY     6,DL
        65 002751   000000 116003                    CMPQ    0,DU
PL6.E3A0      #001=RGRAM File=LR_NRGRAM.:Z8A6TSI                                 SAT 08/09/97 09:36 Page:61
        65 002752   002754 605000 65                 TPL     s:20713+14
        65 002753   000044 036003                    ADLQ    36,DU
        65 002754   202102 756100                    STQ     TEXTCHAR2+38,,AUTO
        65 002755   202101 236100                    LDQ     TEXTCHAR2+37,,AUTO
        65 002756   000022 402007                    MPY     18,DL
        65 002757   000000 116003                    CMPQ    0,DU
        65 002760   002762 605000 65                 TPL     s:20713+20
        65 002761   000044 036003                    ADLQ    36,DU
        65 002762   202102 235100                    LDA     TEXTCHAR2+38,,AUTO
        65 002763   003106 061405                    CSR     bolr='003'O
        65 002764   000000 000006 xsym               BDSC    PATH_ELEM,A              by=0,bit=0,n=6
        65 002765   100001 000022                    BDSC    1,Q,PR1                  by=0,bit=0,n=18

  20715 65 002766   000000 471510                    LDP1    0,X0,PR0
        65 002767   000100 100500                    MLR     fill='000'O
        65 002770   100000 400002                    ADSC9   0,,PR1                   cn=2,n=2
        65 002771   202101 000004                    ADSC9   TEXTCHAR2+37,,AUTO       cn=0,n=4
        65 002772   202101 236100                    LDQ     TEXTCHAR2+37,,AUTO
        65 002773   000022 732000                    QRS     18
        65 002774   000001 036007                    ADLQ    1,DL
        65 002775   202100 756100                    STQ     TEXTCHAR2+36,,AUTO
        65 002776   000100 101500                    MRL     fill='000'O
        65 002777   202100 000004                    ADSC9   TEXTCHAR2+36,,AUTO       cn=0,n=4
        65 003000   100000 400002                    ADSC9   0,,PR1                   cn=2,n=2

  20717 65 003001   201757 054100                    AOS     PE,,AUTO
        65 003002   201756 236100                    LDQ     P,,AUTO
        65 003003   000014 402007                    MPY     12,DL
        65 003004   000000 116003                    CMPQ    0,DU
        65 003005   003007 605000 65                 TPL     s:20717+6
        65 003006   000044 036003                    ADLQ    36,DU
        65 003007   003100 061406                    CSR     bolr='003'O
        65 003010   000000 100004 xsym               BDSC    PATH,Q                   by=0,bit=8,n=4
        65 003011   202100 000044                    BDSC    TEXTCHAR2+36,,AUTO       by=0,bit=0,n=36
        65 003012   201756 236100                    LDQ     P,,AUTO
        65 003013   000014 402007                    MPY     12,DL
        65 003014   000000 116003                    CMPQ    0,DU
PL6.E3A0      #001=RGRAM File=LR_NRGRAM.:Z8A6TSI                                 SAT 08/09/97 09:36 Page:62
        65 003015   003017 605000 65                 TPL     s:20717+14
        65 003016   000044 036003                    ADLQ    36,DU
        65 003017   003100 060406                    CSL     bolr='003'O
        65 003020   000000 000010 xsym               BDSC    PATH,Q                   by=0,bit=0,n=8
        65 003021   202101 000044                    BDSC    TEXTCHAR2+37,,AUTO       by=0,bit=0,n=36
        65 003022   202101 236100                    LDQ     TEXTCHAR2+37,,AUTO
        65 003023   000034 732000                    QRS     28
        65 003024   202100 036100                    ADLQ    TEXTCHAR2+36,,AUTO
        65 003025   201757 116100                    CMPQ    PE,,AUTO
        65 003026   002722 605400 65                 TPNZ    s:20711

  20718 65 003027   200223 470500                    LDP0    NEXTSTAGE$,,AUTO
        65 003030   201755 720100                    LXL0    NEXTITEM,,AUTO
        65 003031   000000 471510                    LDP1    0,X0,PR0
        65 003032   200222 473500                    LDP3    CURRSTAGE$,,AUTO
        65 003033   201752 721100                    LXL1    ITM,,AUTO
        65 003034   300000 474511                    LDP4    0,X1,PR3
        65 003035   000100 100500                    MLR     fill='000'O
        65 003036   400000 000002                    ADSC9   0,,PR4                   cn=0,n=2
        65 003037   202100 000004                    ADSC9   TEXTCHAR2+36,,AUTO       cn=0,n=4
        65 003040   202100 236100                    LDQ     TEXTCHAR2+36,,AUTO
        65 003041   000022 732000                    QRS     18
        65 003042   201760 036100                    ADLQ    PATH_COST,,AUTO
        65 003043   202101 756100                    STQ     TEXTCHAR2+37,,AUTO
        65 003044   000100 101500                    MRL     fill='000'O
        65 003045   202101 000004                    ADSC9   TEXTCHAR2+37,,AUTO       cn=0,n=4
        65 003046   100000 000002                    ADSC9   0,,PR1                   cn=0,n=2

  20720 65 003047   201755 054100                    AOS     NEXTITEM,,AUTO
        65 003050   201754 236100                    LDQ     NEXTHIGHBASIS,,AUTO
        65 003051   201753 136100                    SBLQ    NEXTLOWBASIS,,AUTO
        65 003052   201755 116100                    CMPQ    NEXTITEM,,AUTO
        65 003053   002541 605000 65                 TPL     s:20696

  20722 65 003054   200222 470500                    LDP0    CURRSTAGE$,,AUTO
        65 003055   201752 720100                    LXL0    ITM,,AUTO
        65 003056   000000 471510                    LDP1    0,X0,PR0
PL6.E3A0      #001=RGRAM File=LR_NRGRAM.:Z8A6TSI                                 SAT 08/09/97 09:36 Page:63
        65 003057   000100 100500                    MLR     fill='000'O
        65 003060   100000 000002                    ADSC9   0,,PR1                   cn=0,n=2
        65 003061   202100 000004                    ADSC9   TEXTCHAR2+36,,AUTO       cn=0,n=4
        65 003062   202100 236100                    LDQ     TEXTCHAR2+36,,AUTO
        65 003063   000022 732000                    QRS     18
        65 003064   200107 116100                    CMPQ    LR+4,,AUTO
        65 003065   003605 605000 65                 TPL     s:20794

  20724 65 003066   303237 235007                    LDA     99999,DL
        65 003067   200213 755100                    STA     MINCOST,,AUTO

  20726 65 003070   201745 236100                    LDQ     PRED_ITEM,,AUTO
        65 003071   000027 402007                    MPY     23,DL
        65 003072   000000 116003                    CMPQ    0,DU
        65 003073   003075 605000 65                 TPL     s:20726+5
        65 003074   000044 036003                    ADLQ    36,DU
        65 003075   003100 061406                    CSR     bolr='003'O
        65 003076   000000 220010 xsym               BDSC    ITEM,Q                   by=1,bit=2,n=8
        65 003077   201756 000044                    BDSC    P,,AUTO                  by=0,bit=0,n=36
        65 003100   003331 710000 65                 TRA     s:20766+1

  20728 65 003101   200220 450100                    STZ     TRYCOST,,AUTO

  20729 65 003102   200221 450100                    STZ     ACCUM_COST,,AUTO

  20730 65 003103   201756 236100                    LDQ     P,,AUTO
        65 003104   000014 402007                    MPY     12,DL
        65 003105   000000 116003                    CMPQ    0,DU
        65 003106   003110 605000 65                 TPL     s:20730+5
        65 003107   000044 036003                    ADLQ    36,DU
        65 003110   003100 060406                    CSL     bolr='003'O
        65 003111   000000 000010 xsym               BDSC    PATH,Q                   by=0,bit=0,n=8
        65 003112   202100 000044                    BDSC    TEXTCHAR2+36,,AUTO       by=0,bit=0,n=36
        65 003113   202100 236100                    LDQ     TEXTCHAR2+36,,AUTO
        65 003114   000034 732000                    QRS     28
        65 003115   000000 116003                    CMPQ    0,DU
        65 003116   003330 604000 65                 TMI     s:20766
PL6.E3A0      #001=RGRAM File=LR_NRGRAM.:Z8A6TSI                                 SAT 08/09/97 09:36 Page:64

  20731 65 003117   201756 236100                    LDQ     P,,AUTO
        65 003120   000014 402007                    MPY     12,DL
        65 003121   000000 116003                    CMPQ    0,DU
        65 003122   003124 605000 65                 TPL     s:20731+5
        65 003123   000044 036003                    ADLQ    36,DU
        65 003124   003100 060406                    CSL     bolr='003'O
        65 003125   000000 000010 xsym               BDSC    PATH,Q                   by=0,bit=0,n=8
        65 003126   202100 000044                    BDSC    TEXTCHAR2+36,,AUTO       by=0,bit=0,n=36
        65 003127   202100 236100                    LDQ     TEXTCHAR2+36,,AUTO
        65 003130   000034 732000                    QRS     28
        65 003131   201757 756100                    STQ     PE,,AUTO
        65 003132   003303 710000 65                 TRA     s:20765+1

  20732 65 003133   201757 235100                    LDA     PE,,AUTO
        65 003134   003136 605000 65                 TPL     s:20732+3
        65 003135   000006 035003                    ADLA    6,DU
        65 003136   000100 101405                    MRL     fill='000'O
        65 003137   000000 020001 xsym               ADSC6   PATH_ELEM,A              cn=0,n=1
        65 003140   201761 020003                    ADSC6   PELEM,,AUTO              cn=0,n=3

  20735 65 003141   200105 236100                    LDQ     LR+2,,AUTO
        65 003142   000006 402007                    MPY     6,DL
        65 003143   000000 235006 38                 LDA     LA_STK,QL
        65 003144   000003 735000                    ALS     3
        65 003145   003147 605000 65                 TPL     s:20735+6
        65 003146   000044 035003                    ADLA    36,DU
        65 003147   003100 061405                    CSR     bolr='003'O
        65 003150   000000 000010 xsym               BDSC    LCP_UBOUND,A             by=0,bit=0,n=8
        65 003151   200205 000044                    BDSC    H,,AUTO                  by=0,bit=0,n=36

  20736 65 003152   000000 235006 38                 LDA     LA_STK,QL
        65 003153   000003 735000                    ALS     3
        65 003154   003156 605000 65                 TPL     s:20736+4
        65 003155   000044 035003                    ADLA    36,DU
        65 003156   003100 061405                    CSR     bolr='003'O
        65 003157   777777 610010 xsym               BDSC    LCP_UBOUND-1,A           by=3,bit=1,n=8
PL6.E3A0      #001=RGRAM File=LR_NRGRAM.:Z8A6TSI                                 SAT 08/09/97 09:36 Page:65
        65 003160   202100 000044                    BDSC    TEXTCHAR2+36,,AUTO       by=0,bit=0,n=36
        65 003161   202100 236100                    LDQ     TEXTCHAR2+36,,AUTO
        65 003162   000001 036007                    ADLQ    1,DL
        65 003163   200206 756100                    STQ     L,,AUTO

  20737 65 003164   000001 335007                    LCA     1,DL
        65 003165   200217 755100                    STA     LCP_ELEM_RET,,AUTO

  20738 65 003166   200205 116100                    CMPQ    H,,AUTO
        65 003167   003171 600000 65                 TZE     s:20739
        65 003170   003236 603000 65                 TRC     s:20753

  20739 65 003171   200206 236100                    LDQ     L,,AUTO
        65 003172   200205 036100                    ADLQ    H,,AUTO
        65 003173   000001 772000                    QRL     1
        65 003174   200207 756100                    STQ     M,,AUTO

  20740 65 003175   000043 402007                    MPY     35,DL
        65 003176   003100 061406                    CSR     bolr='003'O
        65 003177   000000 000022 xsym               BDSC    LCP,Q                    by=0,bit=0,n=18
        65 003200   202100 000044                    BDSC    TEXTCHAR2+36,,AUTO       by=0,bit=0,n=36
        65 003201   201761 236100                    LDQ     PELEM,,AUTO
        65 003202   000022 772000                    QRL     18
        65 003203   202100 116100                    CMPQ    TEXTCHAR2+36,,AUTO
        65 003204   003213 601000 65                 TNZ     s:20746

  20742 65 003205   200207 235100                    LDA     M,,AUTO
        65 003206   200217 755100                    STA     LCP_ELEM_RET,,AUTO

  20743 65 003207   200206 235100                    LDA     L,,AUTO
        65 003210   000001 135007                    SBLA    1,DL
        65 003211   200205 755100                    STA     H,,AUTO

  20744 65 003212   003233 710000 65                 TRA     s:20750

  20746 65 003213   200207 236100                    LDQ     M,,AUTO
        65 003214   000043 402007                    MPY     35,DL
PL6.E3A0      #001=RGRAM File=LR_NRGRAM.:Z8A6TSI                                 SAT 08/09/97 09:36 Page:66
        65 003215   003100 061406                    CSR     bolr='003'O
        65 003216   000000 000022 xsym               BDSC    LCP,Q                    by=0,bit=0,n=18
        65 003217   202100 000044                    BDSC    TEXTCHAR2+36,,AUTO       by=0,bit=0,n=36
        65 003220   201761 236100                    LDQ     PELEM,,AUTO
        65 003221   000022 772000                    QRL     18
        65 003222   202100 116100                    CMPQ    TEXTCHAR2+36,,AUTO
        65 003223   003230 605000 65                 TPL     s:20749

  20747 65 003224   200207 235100                    LDA     M,,AUTO
        65 003225   000001 135007                    SBLA    1,DL
        65 003226   200205 755100                    STA     H,,AUTO
        65 003227   003233 710000 65                 TRA     s:20750

  20749 65 003230   200207 235100                    LDA     M,,AUTO
        65 003231   000001 035007                    ADLA    1,DL
        65 003232   200206 755100                    STA     L,,AUTO

  20750 65 003233   200205 236100                    LDQ     H,,AUTO
        65 003234   200206 116100                    CMPQ    L,,AUTO
        65 003235   003171 603000 65                 TRC     s:20739

  20753 65 003236   200217 235100                    LDA     LCP_ELEM_RET,,AUTO
        65 003237   003264 604000 65                 TMI     s:20764

  20755 65 003240   200217 236100                    LDQ     LCP_ELEM_RET,,AUTO
        65 003241   000043 402007                    MPY     35,DL
        65 003242   000000 116003                    CMPQ    0,DU
        65 003243   003245 605000 65                 TPL     s:20755+5
        65 003244   000044 036003                    ADLQ    36,DU
        65 003245   003100 061406                    CSR     bolr='003'O
        65 003246   000000 400010 xsym               BDSC    LCP,Q                    by=2,bit=0,n=8
        65 003247   202100 000044                    BDSC    TEXTCHAR2+36,,AUTO       by=0,bit=0,n=36
        65 003250   202100 236100                    LDQ     TEXTCHAR2+36,,AUTO
        65 003251   200221 036100                    ADLQ    ACCUM_COST,,AUTO
        65 003252   200220 756100                    STQ     TRYCOST,,AUTO

  20756 65 003253   200213 116100                    CMPQ    MINCOST,,AUTO
PL6.E3A0      #001=RGRAM File=LR_NRGRAM.:Z8A6TSI                                 SAT 08/09/97 09:36 Page:67
        65 003254   003264 605000 65                 TPL     s:20764

  20758 65 003255   201756 235100                    LDA     P,,AUTO
        65 003256   200216 755100                    STA     MINPATH,,AUTO

  20759 65 003257   201757 235100                    LDA     PE,,AUTO
        65 003260   200214 755100                    STA     MINPOS,,AUTO

  20760 65 003261   200213 756100                    STQ     MINCOST,,AUTO

  20761 65 003262   200217 235100                    LDA     LCP_ELEM_RET,,AUTO
        65 003263   200215 755100                    STA     MINLCPINDX,,AUTO

  20764 65 003264   201757 235100                    LDA     PE,,AUTO
        65 003265   003267 605000 65                 TPL     s:20764+3
        65 003266   000006 035003                    ADLA    6,DU
        65 003267   000100 101405                    MRL     fill='000'O
        65 003270   000000 020001 xsym               ADSC6   PATH_ELEM,A              cn=0,n=1
        65 003271   202100 020006                    ADSC6   TEXTCHAR2+36,,AUTO       cn=0,n=6
        65 003272   202100 236100                    LDQ     TEXTCHAR2+36,,AUTO
        65 003273   000032 402007                    MPY     26,DL
        65 003274   003100 061406                    CSR     bolr='003'O
        65 003275   000000 000021 xsym               BDSC    LCS,Q                    by=0,bit=0,n=17
        65 003276   202101 000044                    BDSC    TEXTCHAR2+37,,AUTO       by=0,bit=0,n=36
        65 003277   202101 236100                    LDQ     TEXTCHAR2+37,,AUTO
        65 003300   200221 036100                    ADLQ    ACCUM_COST,,AUTO
        65 003301   200221 756100                    STQ     ACCUM_COST,,AUTO

  20765 65 003302   201757 054100                    AOS     PE,,AUTO
        65 003303   201756 236100                    LDQ     P,,AUTO
        65 003304   000014 402007                    MPY     12,DL
        65 003305   000000 116003                    CMPQ    0,DU
        65 003306   003310 605000 65                 TPL     s:20765+6
        65 003307   000044 036003                    ADLQ    36,DU
        65 003310   003100 061406                    CSR     bolr='003'O
        65 003311   000000 100004 xsym               BDSC    PATH,Q                   by=0,bit=8,n=4
        65 003312   202100 000044                    BDSC    TEXTCHAR2+36,,AUTO       by=0,bit=0,n=36
PL6.E3A0      #001=RGRAM File=LR_NRGRAM.:Z8A6TSI                                 SAT 08/09/97 09:36 Page:68
        65 003313   201756 236100                    LDQ     P,,AUTO
        65 003314   000014 402007                    MPY     12,DL
        65 003315   000000 116003                    CMPQ    0,DU
        65 003316   003320 605000 65                 TPL     s:20765+14
        65 003317   000044 036003                    ADLQ    36,DU
        65 003320   003100 060406                    CSL     bolr='003'O
        65 003321   000000 000010 xsym               BDSC    PATH,Q                   by=0,bit=0,n=8
        65 003322   202101 000044                    BDSC    TEXTCHAR2+37,,AUTO       by=0,bit=0,n=36
        65 003323   202101 236100                    LDQ     TEXTCHAR2+37,,AUTO
        65 003324   000034 732000                    QRS     28
        65 003325   202100 036100                    ADLQ    TEXTCHAR2+36,,AUTO
        65 003326   201757 116100                    CMPQ    PE,,AUTO
        65 003327   003133 605400 65                 TPNZ    s:20732

  20766 65 003330   201756 054100                    AOS     P,,AUTO
        65 003331   201745 236100                    LDQ     PRED_ITEM,,AUTO
        65 003332   000027 402007                    MPY     23,DL
        65 003333   000000 116003                    CMPQ    0,DU
        65 003334   003336 605000 65                 TPL     s:20766+6
        65 003335   000044 036003                    ADLQ    36,DU
        65 003336   003100 061406                    CSR     bolr='003'O
        65 003337   000000 410004 xsym               BDSC    ITEM,Q                   by=2,bit=1,n=4
        65 003340   202100 000044                    BDSC    TEXTCHAR2+36,,AUTO       by=0,bit=0,n=36
        65 003341   201745 236100                    LDQ     PRED_ITEM,,AUTO
        65 003342   000027 402007                    MPY     23,DL
        65 003343   000000 116003                    CMPQ    0,DU
        65 003344   003346 605000 65                 TPL     s:20766+14
        65 003345   000044 036003                    ADLQ    36,DU
        65 003346   003100 061406                    CSR     bolr='003'O
        65 003347   000000 220010 xsym               BDSC    ITEM,Q                   by=1,bit=2,n=8
        65 003350   202101 000044                    BDSC    TEXTCHAR2+37,,AUTO       by=0,bit=0,n=36
        65 003351   202101 236100                    LDQ     TEXTCHAR2+37,,AUTO
        65 003352   202100 036100                    ADLQ    TEXTCHAR2+36,,AUTO
        65 003353   003101 604000 65                 TMI     s:20728
        65 003354   201756 116100                    CMPQ    P,,AUTO
        65 003355   003101 605400 65                 TPNZ    s:20728

PL6.E3A0      #001=RGRAM File=LR_NRGRAM.:Z8A6TSI                                 SAT 08/09/97 09:36 Page:69
  20767 65 003356   200222 470500                    LDP0    CURRSTAGE$,,AUTO
        65 003357   201752 720100                    LXL0    ITM,,AUTO
        65 003360   000000 471510                    LDP1    0,X0,PR0
        65 003361   000100 100500                    MLR     fill='000'O
        65 003362   100000 000002                    ADSC9   0,,PR1                   cn=0,n=2
        65 003363   202100 000004                    ADSC9   TEXTCHAR2+36,,AUTO       cn=0,n=4
        65 003364   202100 236100                    LDQ     TEXTCHAR2+36,,AUTO
        65 003365   000022 732000                    QRS     18
        65 003366   200213 036100                    ADLQ    MINCOST,,AUTO
        65 003367   200107 116100                    CMPQ    LR+4,,AUTO
        65 003370   003605 605000 65                 TPL     s:20794

  20770 65 003371   000000 471510                    LDP1    0,X0,PR0
        65 003372   000100 100500                    MLR     fill='000'O
        65 003373   100000 400002                    ADSC9   0,,PR1                   cn=2,n=2
        65 003374   202100 000004                    ADSC9   TEXTCHAR2+36,,AUTO       cn=0,n=4
        65 003375   202100 236100                    LDQ     TEXTCHAR2+36,,AUTO
        65 003376   000022 732000                    QRS     18
        65 003377   200106 756100                    STQ     LR+3,,AUTO

  20771 65 003400   000000 471510                    LDP1    0,X0,PR0
        65 003401   000100 100500                    MLR     fill='000'O
        65 003402   100001 000312                    ADSC9   1,,PR1                   cn=0,n=202
        65 003403   200110 000312                    ADSC9   LR+5,,AUTO               cn=0,n=202

  20772 65 003404   000100 100500                    MLR     fill='000'O
        65 003405   100000 000002                    ADSC9   0,,PR1                   cn=0,n=2
        65 003406   202100 000004                    ADSC9   TEXTCHAR2+36,,AUTO       cn=0,n=4
        65 003407   202100 236100                    LDQ     TEXTCHAR2+36,,AUTO
        65 003410   000022 732000                    QRS     18
        65 003411   200213 036100                    ADLQ    MINCOST,,AUTO
        65 003412   200107 756100                    STQ     LR+4,,AUTO

  20773 65 003413   200216 236100                    LDQ     MINPATH,,AUTO
        65 003414   000014 402007                    MPY     12,DL
        65 003415   000000 116003                    CMPQ    0,DU
        65 003416   003420 605000 65                 TPL     s:20773+5
PL6.E3A0      #001=RGRAM File=LR_NRGRAM.:Z8A6TSI                                 SAT 08/09/97 09:36 Page:70
        65 003417   000044 036003                    ADLQ    36,DU
        65 003420   003100 060406                    CSL     bolr='003'O
        65 003421   000000 000010 xsym               BDSC    PATH,Q                   by=0,bit=0,n=8
        65 003422   202100 000044                    BDSC    TEXTCHAR2+36,,AUTO       by=0,bit=0,n=36
        65 003423   202100 236100                    LDQ     TEXTCHAR2+36,,AUTO
        65 003424   000034 732000                    QRS     28
        65 003425   201757 756100                    STQ     PE,,AUTO
        65 003426   003453 710000 65                 TRA     s:20778+1

  20774 65 003427   200106 235100                    LDA     LR+3,,AUTO
        65 003430   000144 115007                    CMPA    100,DL
        65 003431   003434 604000 65                 TMI     s:20776

  20775 65 003432   000563 701000 65                 TSX1    ABORT_CORRECTION
        65 003433   000000 011000                    NOP     0

  20776 65 003434   201757 235100                    LDA     PE,,AUTO
        65 003435   003437 605000 65                 TPL     s:20776+3
        65 003436   000006 035003                    ADLA    6,DU
        65 003437   200106 236100                    LDQ     LR+3,,AUTO
        65 003440   202100 755100                    STA     TEXTCHAR2+36,,AUTO
        65 003441   000003 402007                    MPY     3,DL
        65 003442   000000 116003                    CMPQ    0,DU
        65 003443   003445 605000 65                 TPL     s:20776+9
        65 003444   000006 036003                    ADLQ    6,DU
        65 003445   202100 235100                    LDA     TEXTCHAR2+36,,AUTO
        65 003446   000106 101405                    MRL     fill='000'O
        65 003447   000000 020001 xsym               ADSC6   PATH_ELEM,A              cn=0,n=1
        65 003450   200110 020003                    ADSC6   LR+5,Q,AUTO              cn=0,n=3

  20777 65 003451   200106 054100                    AOS     LR+3,,AUTO

  20778 65 003452   201757 054100                    AOS     PE,,AUTO
        65 003453   201757 236100                    LDQ     PE,,AUTO
        65 003454   200214 116100                    CMPQ    MINPOS,,AUTO
        65 003455   003427 604000 65                 TMI     s:20774

PL6.E3A0      #001=RGRAM File=LR_NRGRAM.:Z8A6TSI                                 SAT 08/09/97 09:36 Page:71
  20779 65 003456   200215 236100                    LDQ     MINLCPINDX,,AUTO
        65 003457   000043 402007                    MPY     35,DL
        65 003460   000000 116003                    CMPQ    0,DU
        65 003461   003463 605000 65                 TPL     s:20779+5
        65 003462   000044 036003                    ADLQ    36,DU
        65 003463   003100 061406                    CSR     bolr='003'O
        65 003464   000000 650003 xsym               BDSC    LCP,Q                    by=3,bit=5,n=3
        65 003465   202100 000044                    BDSC    TEXTCHAR2+36,,AUTO       by=0,bit=0,n=36
        65 003466   202100 236100                    LDQ     TEXTCHAR2+36,,AUTO
        65 003467   200106 036100                    ADLQ    LR+3,,AUTO
        65 003470   000144 116007                    CMPQ    100,DL
        65 003471   003474 604400 65                 TMOZ    s:20781

  20780 65 003472   000563 701000 65                 TSX1    ABORT_CORRECTION
        65 003473   000000 011000                    NOP     0

  20781 65 003474   200215 236100                    LDQ     MINLCPINDX,,AUTO
        65 003475   000043 402007                    MPY     35,DL
        65 003476   000000 116003                    CMPQ    0,DU
        65 003477   003501 605000 65                 TPL     s:20781+5
        65 003500   000044 036003                    ADLQ    36,DU
        65 003501   003100 061406                    CSR     bolr='003'O
        65 003502   000000 500006 xsym               BDSC    LCP,Q                    by=2,bit=8,n=6
        65 003503   200201 000044                    BDSC    I,,AUTO                  by=0,bit=0,n=36
        65 003504   003524 710000 65                 TRA     s:20785+1

  20783 65 003505   200201 235100                    LDA     I,,AUTO
        65 003506   003510 605000 65                 TPL     s:20783+3
        65 003507   000006 035003                    ADLA    6,DU
        65 003510   200106 236100                    LDQ     LR+3,,AUTO
        65 003511   202100 755100                    STA     TEXTCHAR2+36,,AUTO
        65 003512   000003 402007                    MPY     3,DL
        65 003513   000000 116003                    CMPQ    0,DU
        65 003514   003516 605000 65                 TPL     s:20783+9
        65 003515   000006 036003                    ADLQ    6,DU
        65 003516   202100 235100                    LDA     TEXTCHAR2+36,,AUTO
        65 003517   000106 101405                    MRL     fill='000'O
PL6.E3A0      #001=RGRAM File=LR_NRGRAM.:Z8A6TSI                                 SAT 08/09/97 09:36 Page:72
        65 003520   000000 020001 xsym               ADSC6   LCP_ELEM,A               cn=0,n=1
        65 003521   200110 020003                    ADSC6   LR+5,Q,AUTO              cn=0,n=3

  20784 65 003522   200106 054100                    AOS     LR+3,,AUTO

  20785 65 003523   200201 054100                    AOS     I,,AUTO
        65 003524   200215 236100                    LDQ     MINLCPINDX,,AUTO
        65 003525   000043 402007                    MPY     35,DL
        65 003526   000000 116003                    CMPQ    0,DU
        65 003527   003531 605000 65                 TPL     s:20785+6
        65 003530   000044 036003                    ADLQ    36,DU
        65 003531   003100 061406                    CSR     bolr='003'O
        65 003532   000000 650003 xsym               BDSC    LCP,Q                    by=3,bit=5,n=3
        65 003533   202100 000044                    BDSC    TEXTCHAR2+36,,AUTO       by=0,bit=0,n=36
        65 003534   200215 236100                    LDQ     MINLCPINDX,,AUTO
        65 003535   000043 402007                    MPY     35,DL
        65 003536   000000 116003                    CMPQ    0,DU
        65 003537   003541 605000 65                 TPL     s:20785+14
        65 003540   000044 036003                    ADLQ    36,DU
        65 003541   003100 061406                    CSR     bolr='003'O
        65 003542   000000 500006 xsym               BDSC    LCP,Q                    by=2,bit=8,n=6
        65 003543   202101 000044                    BDSC    TEXTCHAR2+37,,AUTO       by=0,bit=0,n=36
        65 003544   202101 236100                    LDQ     TEXTCHAR2+37,,AUTO
        65 003545   202100 036100                    ADLQ    TEXTCHAR2+36,,AUTO
        65 003546   003505 604000 65                 TMI     s:20783
        65 003547   200201 116100                    CMPQ    I,,AUTO
        65 003550   003505 605400 65                 TPNZ    s:20783

  20788 65 003551   003605 710000 65                 TRA     s:20794

  20791 65 003552   200222 470500                    LDP0    CURRSTAGE$,,AUTO
        65 003553   201752 721100                    LXL1    ITM,,AUTO
        65 003554   000000 471511                    LDP1    0,X1,PR0
        65 003555   201745 236100                    LDQ     PRED_ITEM,,AUTO
        65 003556   201753 136100                    SBLQ    NEXTLOWBASIS,,AUTO
        65 003557   200223 473500                    LDP3    NEXTSTAGE$,,AUTO
        65 003560   300000 474506                    LDP4    0,QL,PR3
PL6.E3A0      #001=RGRAM File=LR_NRGRAM.:Z8A6TSI                                 SAT 08/09/97 09:36 Page:73
        65 003561   000100 100500                    MLR     fill='000'O
        65 003562   400000 000002                    ADSC9   0,,PR4                   cn=0,n=2
        65 003563   202100 000004                    ADSC9   TEXTCHAR2+36,,AUTO       cn=0,n=4
        65 003564   202100 236100                    LDQ     TEXTCHAR2+36,,AUTO
        65 003565   000022 732000                    QRS     18
        65 003566   202101 756100                    STQ     TEXTCHAR2+37,,AUTO
        65 003567   000100 100500                    MLR     fill='000'O
        65 003570   100000 000002                    ADSC9   0,,PR1                   cn=0,n=2
        65 003571   202102 000004                    ADSC9   TEXTCHAR2+38,,AUTO       cn=0,n=4
        65 003572   202102 236100                    LDQ     TEXTCHAR2+38,,AUTO
        65 003573   000022 732000                    QRS     18
        65 003574   202101 116100                    CMPQ    TEXTCHAR2+37,,AUTO
        65 003575   003605 605000 65                 TPL     s:20794

  20792 65 003576   201745 236100                    LDQ     PRED_ITEM,,AUTO
        65 003577   201753 136100                    SBLQ    NEXTLOWBASIS,,AUTO
        65 003600   300000 471506                    LDP1    0,QL,PR3
        65 003601   000000 474511                    LDP4    0,X1,PR0
        65 003602   000100 100500                    MLR     fill='000'O
        65 003603   400000 000316                    ADSC9   0,,PR4                   cn=0,n=206
        65 003604   100000 000316                    ADSC9   0,,PR1                   cn=0,n=206

  20794 65 003605   201752 054100                    AOS     ITM,,AUTO
        65 003606   201751 236100                    LDQ     CURRHIGHBASIS,,AUTO
        65 003607   201750 136100                    SBLQ    CURRLOWBASIS,,AUTO
        65 003610   201752 116100                    CMPQ    ITM,,AUTO
        65 003611   002474 605000 65                 TPL     s:20678

  20795 65 003612   200203 235100                    LDA     K,,AUTO
        65 003613   000001 115007                    CMPA    1,DL
        65 003614   003616 605400 65                 TPNZ    s:20797

  20796 65 003615   201747 450100                    STZ     WORTHCONTINUING,,AUTO

  20797 65 003616   201747 234100                    SZN     WORTHCONTINUING,,AUTO
        65 003617   003624 605000 65                 TPL     s:20802

PL6.E3A0      #001=RGRAM File=LR_NRGRAM.:Z8A6TSI                                 SAT 08/09/97 09:36 Page:74
  20799 65 003620   000001 336007                    LCQ     1,DL
        65 003621   200203 056100                    ASQ     K,,AUTO

  20800 65 003622   001627 701000 65                 TSX1    NEWSTAGE
        65 003623   000000 011000                    NOP     0

  20802 65 003624   201747 234100                    SZN     WORTHCONTINUING,,AUTO
        65 003625   002455 604000 65                 TMI     s:20668

  20803 65 003626   200200 221300                    LDX1  ! ACCUM_INS_TO_SYM+2,,AUTO
        65 003627   000001 702211                    TSX2  ! 1,X1

  20806 65 003630   200106 450100                    STZ     LR+3,,AUTO

  20807 65 003631   303237 235007                    LDA     99999,DL
        65 003632   200107 755100                    STA     LR+4,,AUTO

  20808 65 003633   200174 450100                    STZ     ACCUM_DEL_LEN,,AUTO

  20809 65 003634   200175 450100                    STZ     ACCUM_DEL_COST,,AUTO

  20810 65 003635   200174 236100                    LDQ     ACCUM_DEL_LEN,,AUTO
        65 003636   200103 756100                    STQ     LR,,AUTO

  20811 65 003637   200175 235100                    LDA     ACCUM_DEL_COST,,AUTO
        65 003640   200104 755100                    STA     LR+1,,AUTO

  20812 65 003641   200173 450100                    STZ     LARGE_DELETION,,AUTO

  20813 65 003642   000000 235000 44                 LDA     LA_GET
        65 003643   200176 755100                    STA     ACCUM_INS_TO_SYM,,AUTO

  20814 65 003644   200105 755100                    STA     LR+2,,AUTO

  20816 65 003645   001576 701000 65                 TSX1    LR_INSERT
        65 003646   000000 011000                    NOP     0

PL6.E3A0      #001=RGRAM File=LR_NRGRAM.:Z8A6TSI                                 SAT 08/09/97 09:36 Page:75
  20817 65 003647   200107 235100                    LDA     LR+4,,AUTO
        65 003650   303237 115007                    CMPA    99999,DL
        65 003651   003732 604000 65                 TMI     s:20841

  20819 65 003652   200174 054100                    AOS     ACCUM_DEL_LEN,,AUTO

  20820 65 003653   200174 236100                    LDQ     ACCUM_DEL_LEN,,AUTO
        65 003654   200103 756100                    STQ     LR,,AUTO

  20821 65 003655   000062 116007                    CMPQ    50,DL
        65 003656   003661 604000 65                 TMI     s:20823

  20822 65 003657   000463 701000 65                 TSX1    CREATE_LARGE_DELETION
        65 003660   000000 011000                    NOP     0

  20823 65 003661   200176 236100                    LDQ     ACCUM_INS_TO_SYM,,AUTO
        65 003662   000006 402007                    MPY     6,DL
        65 003663   000000 236006 38                 LDQ     LA_STK,QL
        65 003664   000021 402007                    MPY     17,DL
        65 003665   000000 116003                    CMPQ    0,DU
        65 003666   003670 605000 65                 TPL     s:20823+7
        65 003667   000044 036003                    ADLQ    36,DU
        65 003670   003100 061406                    CSR     bolr='003'O
        65 003671   000000 000021 xsym               BDSC    DEL_COST,Q               by=0,bit=0,n=17
        65 003672   202100 000044                    BDSC    TEXTCHAR2+36,,AUTO       by=0,bit=0,n=36
        65 003673   202100 236100                    LDQ     TEXTCHAR2+36,,AUTO
        65 003674   200175 036100                    ADLQ    ACCUM_DEL_COST,,AUTO
        65 003675   200175 756100                    STQ     ACCUM_DEL_COST,,AUTO

  20824 65 003676   200104 756100                    STQ     LR+1,,AUTO

  20825 65 003677   303237 116007                    CMPQ    99999,DL
        65 003700   003703 604000 65                 TMI     s:20827

  20826 65 003701   000563 701000 65                 TSX1    ABORT_CORRECTION
        65 003702   000000 011000                    NOP     0

PL6.E3A0      #001=RGRAM File=LR_NRGRAM.:Z8A6TSI                                 SAT 08/09/97 09:36 Page:76
  20827 65 003703   200103 236100                    LDQ     LR,,AUTO
        65 003704   000000 116000 42                 CMPQ    LA_CNT
        65 003705   003725 604000 65                 TMI     s:20838

  20833 65 003706   000000 236000 43                 LDQ     LA_PUT
        65 003707   000006 402003                    MPY     6,DU
        65 003710   000061 036000 66                 ADLQ    49
        65 003711   202100 756100                    STQ     TEXTCHAR2+36,,AUTO
        65 003712   202100 630500                    EPPR0   TEXTCHAR2+36,,AUTO
        65 003713   202101 450500                    STP0    TEXTCHAR2+37,,AUTO
        65 003714   202101 630500                    EPPR0   TEXTCHAR2+37,,AUTO
        65 003715   000060 631400 66                 EPPR1   48
        65 003716   000000 701000 xent               TSX1    SCANNER
        65 003717   000000 011000                    NOP     0

  20835 65 003720   000000 236000 43                 LDQ     LA_PUT
        65 003721   000006 402007                    MPY     6,DL
        65 003722   000005 235006 38                 LDA     LA_STK+5,QL
        65 003723   000000 755000 43                 STA     LA_PUT

  20836 65 003724   000000 054000 42                 AOS     LA_CNT

  20838 65 003725   200176 236100                    LDQ     ACCUM_INS_TO_SYM,,AUTO
        65 003726   000006 402007                    MPY     6,DL
        65 003727   000005 235006 38                 LDA     LA_STK+5,QL
        65 003730   200176 755100                    STA     ACCUM_INS_TO_SYM,,AUTO

  20839 65 003731   200105 755100                    STA     LR+2,,AUTO

  20841 65 003732   200107 235100                    LDA     LR+4,,AUTO
        65 003733   303237 115007                    CMPA    99999,DL
        65 003734   003645 605000 65                 TPL     s:20816

  20845 65 003735   000100 100500                    MLR     fill='000'O
        65 003736   200103 000336                    ADSC9   LR,,AUTO                 cn=0,n=222
        65 003737   200013 000336                    ADSC9   LC,,AUTO                 cn=0,n=222

PL6.E3A0      #001=RGRAM File=LR_NRGRAM.:Z8A6TSI                                 SAT 08/09/97 09:36 Page:77
  20846 65 003740   200176 236100                    LDQ     ACCUM_INS_TO_SYM,,AUTO
        65 003741   000006 402007                    MPY     6,DL
        65 003742   000000 236006 38                 LDQ     LA_STK,QL
        65 003743   000021 402007                    MPY     17,DL
        65 003744   000000 116003                    CMPQ    0,DU
        65 003745   003747 605000 65                 TPL     s:20846+7
        65 003746   000044 036003                    ADLQ    36,DU
        65 003747   003100 061406                    CSR     bolr='003'O
        65 003750   000000 000021 xsym               BDSC    DEL_COST,Q               by=0,bit=0,n=17
        65 003751   202100 000044                    BDSC    TEXTCHAR2+36,,AUTO       by=0,bit=0,n=36
        65 003752   202100 236100                    LDQ     TEXTCHAR2+36,,AUTO
        65 003753   200175 036100                    ADLQ    ACCUM_DEL_COST,,AUTO
        65 003754   200175 756100                    STQ     ACCUM_DEL_COST,,AUTO

  20847 65 003755   200104 756100                    STQ     LR+1,,AUTO

  20848 65 003756   004043 710000 65                 TRA     s:20875

  20851 65 003757   200174 054100                    AOS     ACCUM_DEL_LEN,,AUTO

  20852 65 003760   200174 235100                    LDA     ACCUM_DEL_LEN,,AUTO
        65 003761   200103 755100                    STA     LR,,AUTO

  20853 65 003762   200103 236100                    LDQ     LR,,AUTO
        65 003763   000000 116000 42                 CMPQ    LA_CNT
        65 003764   004004 604000 65                 TMI     s:20864

  20859 65 003765   000000 236000 43                 LDQ     LA_PUT
        65 003766   000006 402003                    MPY     6,DU
        65 003767   000061 036000 66                 ADLQ    49
        65 003770   202100 756100                    STQ     TEXTCHAR2+36,,AUTO
        65 003771   202100 630500                    EPPR0   TEXTCHAR2+36,,AUTO
        65 003772   202101 450500                    STP0    TEXTCHAR2+37,,AUTO
        65 003773   202101 630500                    EPPR0   TEXTCHAR2+37,,AUTO
        65 003774   000060 631400 66                 EPPR1   48
        65 003775   000000 701000 xent               TSX1    SCANNER
        65 003776   000000 011000                    NOP     0
PL6.E3A0      #001=RGRAM File=LR_NRGRAM.:Z8A6TSI                                 SAT 08/09/97 09:36 Page:78

  20861 65 003777   000000 236000 43                 LDQ     LA_PUT
        65 004000   000006 402007                    MPY     6,DL
        65 004001   000005 235006 38                 LDA     LA_STK+5,QL
        65 004002   000000 755000 43                 STA     LA_PUT

  20862 65 004003   000000 054000 42                 AOS     LA_CNT

  20864 65 004004   200176 236100                    LDQ     ACCUM_INS_TO_SYM,,AUTO
        65 004005   000006 402007                    MPY     6,DL
        65 004006   000005 235006 38                 LDA     LA_STK+5,QL
        65 004007   200176 755100                    STA     ACCUM_INS_TO_SYM,,AUTO

  20865 65 004010   200105 755100                    STA     LR+2,,AUTO

  20866 65 004011   001576 701000 65                 TSX1    LR_INSERT
        65 004012   000000 011000                    NOP     0

  20871 65 004013   200107 236100                    LDQ     LR+4,,AUTO
        65 004014   200104 036100                    ADLQ    LR+1,,AUTO
        65 004015   202100 756100                    STQ     TEXTCHAR2+36,,AUTO
        65 004016   200014 236100                    LDQ     @SYM_TO_BE_INSERTED,,AUTO
        65 004017   200017 036100                    ADLQ    SYMLEN,,AUTO
        65 004020   202100 116100                    CMPQ    TEXTCHAR2+36,,AUTO
        65 004021   004025 604400 65                 TMOZ    s:20873

  20872 65 004022   000100 100500                    MLR     fill='000'O
        65 004023   200103 000336                    ADSC9   LR,,AUTO                 cn=0,n=222
        65 004024   200013 000336                    ADSC9   LC,,AUTO                 cn=0,n=222

  20873 65 004025   200176 236100                    LDQ     ACCUM_INS_TO_SYM,,AUTO
        65 004026   000006 402007                    MPY     6,DL
        65 004027   000000 236006 38                 LDQ     LA_STK,QL
        65 004030   000021 402007                    MPY     17,DL
        65 004031   000000 116003                    CMPQ    0,DU
        65 004032   004034 605000 65                 TPL     s:20873+7
        65 004033   000044 036003                    ADLQ    36,DU
PL6.E3A0      #001=RGRAM File=LR_NRGRAM.:Z8A6TSI                                 SAT 08/09/97 09:36 Page:79
        65 004034   003100 061406                    CSR     bolr='003'O
        65 004035   000000 000021 xsym               BDSC    DEL_COST,Q               by=0,bit=0,n=17
        65 004036   202100 000044                    BDSC    TEXTCHAR2+36,,AUTO       by=0,bit=0,n=36
        65 004037   202100 236100                    LDQ     TEXTCHAR2+36,,AUTO
        65 004040   200175 036100                    ADLQ    ACCUM_DEL_COST,,AUTO
        65 004041   200175 756100                    STQ     ACCUM_DEL_COST,,AUTO

  20874 65 004042   200104 756100                    STQ     LR+1,,AUTO

  20875 65 004043   200014 236100                    LDQ     @SYM_TO_BE_INSERTED,,AUTO
        65 004044   200017 036100                    ADLQ    SYMLEN,,AUTO
        65 004045   200175 116100                    CMPQ    ACCUM_DEL_COST,,AUTO
        65 004046   004052 604400 65                 TMOZ    s:20876
        65 004047   200174 235100                    LDA     ACCUM_DEL_LEN,,AUTO
        65 004050   000061 115007                    CMPA    49,DL
        65 004051   003757 604000 65                 TMI     s:20851

  20876 65 004052   000730 701000 65                 TSX1    GIVE_CORRECTION_MESSAGE
        65 004053   000000 011000                    NOP     0

  20877 65 004054   200012 221300                    LDX1  ! INDX+1,,AUTO
        65 004055   000001 702211                    TSX2  ! 1,X1

  20909 65 004056   000000 220003                    LDX0    0,DU
        65 004057   200011 740100                    STX0    INDX,,AUTO
        65 004060   004072 710000 65                 TRA     s:20911+2

  20910 65 004061   200011 236100                    LDQ     INDX,,AUTO
        65 004062   000022 732000                    QRS     18
        65 004063   000006 402007                    MPY     6,DL
        65 004064   200011 235100                    LDA     INDX,,AUTO
        65 004065   000022 731000                    ARS     18
        65 004066   000001 035007                    ADLA    1,DL
        65 004067   000005 755006 38                 STA     LA_STK+5,QL

  20911 65 004070   000000 620005                    EAX0    0,AL
        65 004071   200011 740100                    STX0    INDX,,AUTO
PL6.E3A0      #001=RGRAM File=LR_NRGRAM.:Z8A6TSI                                 SAT 08/09/97 09:36 Page:80
        65 004072   000061 100003                    CMPX0   49,DU
        65 004073   004061 604400 65                 TMOZ    s:20910

  20912 65 004074   000461 450000 38                 STZ     LA_STK+305

  20916 65 004075   000000 450000 58                 STZ     RED_STACK_TOP

  20917 65 004076   000000 450000 59                 STZ     IED_FLAG

  20919 65 004077   000000 221003                    LDX1    0,DU
        65 004100   000000 741000 47                 STX1    PARSE_STACK_IDX

  20920 65 004101   000001 222003                    LDX2    1,DU
        65 004102   000000 742000 41                 STX2    STATE

  20921 65 004103   000000 450000 39                 STZ     LX_TOP

  20922 65 004104   000000 235000 41                 LDA     STATE
        65 004105   000022 731000                    ARS     18
        65 004106   000000 755011 46                 STA     PARSE_STACK,X1

  20931 65 004107   000000 220000 41                 LDX0    STATE
        65 004110   000000 721010 xsym               LXL1    ACTION_COL,X0
        65 004111   004115 601000 65                 TNZ     s:20946

  20936 65 004112   000000 222010 xsym               LDX2    ACTION_COL,X0
        65 004113   200010 742100                    STX2    ACTION,,AUTO

  20937 65 004114   004361 710000 65                 TRA     s:21102

  20946 65 004115   000000 235000 42                 LDA     LA_CNT
        65 004116   004207 605400 65                 TPNZ    s:21015

  20947 65 004117   000000 236000 61                 LDQ     CORRECTION
        65 004120   004144 601000 65                 TNZ     s:20959
        65 004121   000001 235000 61                 LDA     CORRECTION+1
        65 004122   004144 601000 65                 TNZ     s:20959
PL6.E3A0      #001=RGRAM File=LR_NRGRAM.:Z8A6TSI                                 SAT 08/09/97 09:36 Page:81

  20953 65 004123   000000 236000 43                 LDQ     LA_PUT
        65 004124   000006 402003                    MPY     6,DU
        65 004125   000061 036000 66                 ADLQ    49
        65 004126   202100 756100                    STQ     TEXTCHAR2+36,,AUTO
        65 004127   202100 630500                    EPPR0   TEXTCHAR2+36,,AUTO
        65 004130   202101 450500                    STP0    TEXTCHAR2+37,,AUTO
        65 004131   202101 630500                    EPPR0   TEXTCHAR2+37,,AUTO
        65 004132   000060 631400 66                 EPPR1   48
        65 004133   000000 701000 xent               TSX1    SCANNER
        65 004134   000000 011000                    NOP     0

  20955 65 004135   000000 236000 43                 LDQ     LA_PUT
        65 004136   000006 402007                    MPY     6,DL
        65 004137   000005 235006 38                 LDA     LA_STK+5,QL
        65 004140   000000 755000 43                 STA     LA_PUT

  20956 65 004141   000001 236007                    LDQ     1,DL
        65 004142   000000 756000 42                 STQ     LA_CNT

  20957 65 004143   004207 710000 65                 TRA     s:21015

  20959 65 004144   000000 116003                    CMPQ    0,DU
        65 004145   004200 604400 65                 TMOZ    s:20974

  20962 65 004146   000001 235000 61                 LDA     CORRECTION+1
        65 004147   000001 735000                    ALS     1
        65 004150   000100 100405                    MLR     fill='000'O
        65 004151   000002 000002 61                 ADSC9   CORRECTION+2,A           cn=0,n=2
        65 004152   202100 000004                    ADSC9   TEXTCHAR2+36,,AUTO       cn=0,n=4
        65 004153   202100 236100                    LDQ     TEXTCHAR2+36,,AUTO
        65 004154   000022 732000                    QRS     18
        65 004155   202122 756100                    STQ     TEXTCHAR2+54,,AUTO
        65 004156   000062 236000 66                 LDQ     50
        65 004157   200016 756100                    STQ     @LINE_IN_ERROR+1,,AUTO
        65 004160   000063 236000 66                 LDQ     51
        65 004161   200015 756100                    STQ     @SYM_TO_BE_INSERTED+1,,AUTO
PL6.E3A0      #001=RGRAM File=LR_NRGRAM.:Z8A6TSI                                 SAT 08/09/97 09:36 Page:82
        65 004162   202122 630500                    EPPR0   TEXTCHAR2+54,,AUTO
        65 004163   200014 450500                    STP0    LC+1,,AUTO
        65 004164   000064 236000 66                 LDQ     52
        65 004165   200013 756100                    STQ     INDX+2,,AUTO
        65 004166   000005 701000 65                 TSX1    CREATE_DUMMY_TOKEN
        65 004167   000000 011000                    NOP     0

  20967 65 004170   000001 336007                    LCQ     1,DL
        65 004171   000000 056000 61                 ASQ     CORRECTION

  20968 65 004172   000001 054000 61                 AOS     CORRECTION+1

  20969 65 004173   000000 235000 43                 LDA     LA_PUT
        65 004174   000000 755000 44                 STA     LA_GET

  20970 65 004175   000001 235007                    LDA     1,DL
        65 004176   000000 755000 42                 STA     LA_CNT

  20971 65 004177   004207 710000 65                 TRA     s:21015

  20974 65 004200   000001 450000 61                 STZ     CORRECTION+1

  20975 65 004201   000000 235000 52                 LDA     ERR_LA_CNT
        65 004202   000000 755000 42                 STA     LA_CNT

  20976 65 004203   000000 235000 51                 LDA     ERR_LA_PUT
        65 004204   000000 755000 43                 STA     LA_PUT

  20977 65 004205   000000 235000 50                 LDA     ERR_LA_GET
        65 004206   000000 755000 44                 STA     LA_GET

  21015 65 004207   000000 236000 44                 LDQ     LA_GET
        65 004210   000006 402007                    MPY     6,DL
        65 004211   000000 620006                    EAX0    0,QL
        65 004212   000000 221000 41                 LDX1    STATE
        65 004213   000000 236011 xsym               LDQ     ACTION_COL,X1
        65 004214   777777 376007                    ANQ     -1,DL
PL6.E3A0      #001=RGRAM File=LR_NRGRAM.:Z8A6TSI                                 SAT 08/09/97 09:36 Page:83
        65 004215   000000 036010 38                 ADLQ    LA_STK,X0
        65 004216   000000 622006                    EAX2    0,QL
        65 004217   200011 742100                    STX2    INDX,,AUTO

  21016 65 004220   000000 235000 41                 LDA     STATE
        65 004221   000022 731000                    ARS     18
        65 004222   202100 755100                    STA     TEXTCHAR2+36,,AUTO
        65 004223   000000 236012 xsym               LDQ     ACTION_ROW,X2
        65 004224   777777 376007                    ANQ     -1,DL
        65 004225   202100 116100                    CMPQ    TEXTCHAR2+36,,AUTO
        65 004226   004357 601000 65                 TNZ     s:21098

  21021 65 004227   000000 223012 xsym               LDX3    ACTION_ROW,X2
        65 004230   200010 743100                    STX3    ACTION,,AUTO

  21022 65 004231   004361 601000 65                 TNZ     s:21102

  21031 65 004232   000000 235000 39                 LDA     LX_TOP
        65 004233   000000 755000 60                 STA     ALT_LX_TOP

  21032 65 004234   000002 336007                    LCQ     2,DL
        65 004235   000000 056000 58                 ASQ     RED_STACK_TOP

  21033 65 004236   000000 224003                    LDX4    0,DU
        65 004237   200011 744100                    STX4    INDX,,AUTO
        65 004240   004337 710000 65                 TRA     s:21064+3

  21034 65 004241   200011 220100                    LDX0    INDX,,AUTO
        65 004242   000001 235010 57                 LDA     RED_STACK+1,X0
        65 004243   000000 755000 39                 STA     LX_TOP

  21035 65 004244   000000 235010 57                 LDA     RED_STACK,X0
        65 004245   000000 755000 45                 STA     REDUCTION

  21036 65 004246   000000 236000 45                 LDQ     REDUCTION
        65 004247   000006 402007                    MPY     6,DL
        65 004250   000100 101406                    MRL     fill='000'O
PL6.E3A0      #001=RGRAM File=LR_NRGRAM.:Z8A6TSI                                 SAT 08/09/97 09:36 Page:84
        65 004251   000000 400002 xsym               ADSC9   PRODR,Q                  cn=2,n=2
        65 004252   202100 000004                    ADSC9   TEXTCHAR2+36,,AUTO       cn=0,n=4
        65 004253   202100 236100                    LDQ     TEXTCHAR2+36,,AUTO
        65 004254   000000 116003                    CMPQ    0,DU
        65 004255   004307 601000 65                 TNZ     s:21056

  21038 65 004256   000000 054000 39                 AOS     LX_TOP

  21045 65 004257   000000 236000 45                 LDQ     REDUCTION
        65 004260   000006 402007                    MPY     6,DL
        65 004261   000100 101406                    MRL     fill='000'O
        65 004262   000001 000002 xsym               ADSC9   PRODR+1,Q                cn=0,n=2
        65 004263   202100 000004                    ADSC9   TEXTCHAR2+36,,AUTO       cn=0,n=4
        65 004264   202100 236100                    LDQ     TEXTCHAR2+36,,AUTO
        65 004265   000000 116003                    CMPQ    0,DU
        65 004266   004334 600000 65                 TZE     s:21064

  21047 65 004267   000001 336007                    LCQ     1,DL
        65 004270   000000 056000 39                 ASQ     LX_TOP

  21051 65 004271   000000 236000 45                 LDQ     REDUCTION
        65 004272   000006 402007                    MPY     6,DL
        65 004273   000100 101406                    MRL     fill='000'O
        65 004274   000001 000002 xsym               ADSC9   PRODR+1,Q                cn=0,n=2
        65 004275   202100 000004                    ADSC9   TEXTCHAR2+36,,AUTO       cn=0,n=4
        65 004276   202100 236100                    LDQ     TEXTCHAR2+36,,AUTO
        65 004277   202101 756100                    STQ     TEXTCHAR2+37,,AUTO
        65 004300   202101 630500                    EPPR0   TEXTCHAR2+37,,AUTO
        65 004301   202102 450500                    STP0    TEXTCHAR2+38,,AUTO
        65 004302   202102 630500                    EPPR0   TEXTCHAR2+38,,AUTO
        65 004303   000060 631400 66                 EPPR1   48
        65 004304   000000 701000 xent               TSX1    SEMANTICS
        65 004305   000000 011000                    NOP     0

  21054 65 004306   004334 710000 65                 TRA     s:21064

  21056 65 004307   000000 236000 45                 LDQ     REDUCTION
PL6.E3A0      #001=RGRAM File=LR_NRGRAM.:Z8A6TSI                                 SAT 08/09/97 09:36 Page:85
        65 004310   000006 402007                    MPY     6,DL
        65 004311   000100 101406                    MRL     fill='000'O
        65 004312   000001 000002 xsym               ADSC9   PRODR+1,Q                cn=0,n=2
        65 004313   202100 000004                    ADSC9   TEXTCHAR2+36,,AUTO       cn=0,n=4
        65 004314   202100 236100                    LDQ     TEXTCHAR2+36,,AUTO
        65 004315   000000 116003                    CMPQ    0,DU
        65 004316   004334 600000 65                 TZE     s:21064

  21061 65 004317   000000 236000 45                 LDQ     REDUCTION
        65 004320   000006 402007                    MPY     6,DL
        65 004321   000100 101406                    MRL     fill='000'O
        65 004322   000001 000002 xsym               ADSC9   PRODR+1,Q                cn=0,n=2
        65 004323   202100 000004                    ADSC9   TEXTCHAR2+36,,AUTO       cn=0,n=4
        65 004324   202100 236100                    LDQ     TEXTCHAR2+36,,AUTO
        65 004325   202101 756100                    STQ     TEXTCHAR2+37,,AUTO
        65 004326   202101 630500                    EPPR0   TEXTCHAR2+37,,AUTO
        65 004327   202102 450500                    STP0    TEXTCHAR2+38,,AUTO
        65 004330   202102 630500                    EPPR0   TEXTCHAR2+38,,AUTO
        65 004331   000060 631400 66                 EPPR1   48
        65 004332   000000 701000 xent               TSX1    SEMANTICS
        65 004333   000000 011000                    NOP     0

  21064 65 004334   200011 220100                    LDX0    INDX,,AUTO
        65 004335   000002 621010                    EAX1    2,X0
        65 004336   200011 741100                    STX1    INDX,,AUTO
        65 004337   200011 236100                    LDQ     INDX,,AUTO
        65 004340   000022 732000                    QRS     18
        65 004341   000000 116000 58                 CMPQ    RED_STACK_TOP
        65 004342   004241 604400 65                 TMOZ    s:21034

  21065 65 004343   000000 450000 58                 STZ     RED_STACK_TOP

  21066 65 004344   000000 235000 60                 LDA     ALT_LX_TOP
        65 004345   000000 755000 39                 STA     LX_TOP

  21067 65 004346   000000 450000 59                 STZ     IED_FLAG

PL6.E3A0      #001=RGRAM File=LR_NRGRAM.:Z8A6TSI                                 SAT 08/09/97 09:36 Page:86
  21082 65 004347   000000 236000 44                 LDQ     LA_GET
        65 004350   000006 402007                    MPY     6,DL
        65 004351   000001 235006 38                 LDA     LA_STK+1,QL
        65 004352   000000 755000 48                 STA     ERRLINE

  21083 65 004353   000002 235006 38                 LDA     LA_STK+2,QL
        65 004354   000000 755000 49                 STA     ERRCOL

  21090 65 004355   200004 221300                    LDX1  ! I+1,,AUTO
        65 004356   000001 702211                    TSX2  ! 1,X1

  21098 65 004357   000000 223011 xsym               LDX3    ACTION_COL,X1
        65 004360   200010 743100                    STX3    ACTION,,AUTO

  21102 65 004361   200010 220100                    LDX0    ACTION,,AUTO
        65 004362   004732 605000 65                 TPL     s:21399

  21112 65 004363   777777 620010                    EAX0    -1,X0
        65 004364   777777 660003                    ERX0    -1,DU
        65 004365   200010 740100                    STX0    ACTION,,AUTO

  21125 65 004366   000000 234000 59                 SZN     IED_FLAG
        65 004367   004407 604000 65                 TMI     s:21144

  21127 65 004370   000000 235000 47                 LDA     PARSE_STACK_IDX
        65 004371   000022 731000                    ARS     18
        65 004372   000000 755000 56                 STA     ALT_PARSE_STACK_IDX

  21128 65 004373   000002 735000                    ALS     2
        65 004374   000004 035007                    ADLA    4,DL
        65 004375   200005 755100                    STA     PARSE_STACK_IDX_IN_CHARS,,AUTO

  21129 65 004376   000000 621005                    EAX1    0,AL
        65 004377   200005 722100                    LXL2    PARSE_STACK_IDX_IN_CHARS,,AUTO
        65 004400   040040 100440                    MLR     fill='040'O
        65 004401   000000 000011 46                 ADSC9   PARSE_STACK              cn=0,n=*X1
        65 004402   000000 000012 55                 ADSC9   ALT_PARSE_STACK          cn=0,n=*X2
PL6.E3A0      #001=RGRAM File=LR_NRGRAM.:Z8A6TSI                                 SAT 08/09/97 09:36 Page:87

  21131 65 004403   000000 235000 39                 LDA     LX_TOP
        65 004404   000000 755000 60                 STA     ALT_LX_TOP

  21132 65 004405   400000 236003                    LDQ     -131072,DU
        65 004406   000000 756000 59                 STQ     IED_FLAG

  21144 65 004407   000000 235000 58                 LDA     RED_STACK_TOP
        65 004410   000762 115007                    CMPA    498,DL
        65 004411   004423 605000 65                 TPL     s:21158

  21146 65 004412   200010 236100                    LDQ     ACTION,,AUTO
        65 004413   000022 732000                    QRS     18
        65 004414   000000 756005 57                 STQ     RED_STACK,AL

  21147 65 004415   000000 721000 58                 LXL1    RED_STACK_TOP
        65 004416   000000 235000 39                 LDA     LX_TOP
        65 004417   000001 755011 57                 STA     RED_STACK+1,X1

  21148 65 004420   000002 236007                    LDQ     2,DL
        65 004421   000000 056000 58                 ASQ     RED_STACK_TOP

  21149 65 004422   004534 710000 65                 TRA     s:21265

  21158 65 004423   000000 236000 42                 LDQ     LA_CNT
        65 004424   004515 605400 65                 TPNZ    s:21235

  21159 65 004425   000000 235000 61                 LDA     CORRECTION
        65 004426   004452 601000 65                 TNZ     s:21171
        65 004427   000001 235000 61                 LDA     CORRECTION+1
        65 004430   004452 601000 65                 TNZ     s:21171

  21165 65 004431   000000 236000 43                 LDQ     LA_PUT
        65 004432   000006 402003                    MPY     6,DU
        65 004433   000061 036000 66                 ADLQ    49
        65 004434   202100 756100                    STQ     TEXTCHAR2+36,,AUTO
        65 004435   202100 630500                    EPPR0   TEXTCHAR2+36,,AUTO
PL6.E3A0      #001=RGRAM File=LR_NRGRAM.:Z8A6TSI                                 SAT 08/09/97 09:36 Page:88
        65 004436   202101 450500                    STP0    TEXTCHAR2+37,,AUTO
        65 004437   202101 630500                    EPPR0   TEXTCHAR2+37,,AUTO
        65 004440   000060 631400 66                 EPPR1   48
        65 004441   000000 701000 xent               TSX1    SCANNER
        65 004442   000000 011000                    NOP     0

  21167 65 004443   000000 236000 43                 LDQ     LA_PUT
        65 004444   000006 402007                    MPY     6,DL
        65 004445   000005 235006 38                 LDA     LA_STK+5,QL
        65 004446   000000 755000 43                 STA     LA_PUT

  21168 65 004447   000001 236007                    LDQ     1,DL
        65 004450   000000 756000 42                 STQ     LA_CNT

  21169 65 004451   004515 710000 65                 TRA     s:21235

  21171 65 004452   000000 235000 61                 LDA     CORRECTION
        65 004453   004506 604400 65                 TMOZ    s:21186

  21174 65 004454   000001 235000 61                 LDA     CORRECTION+1
        65 004455   000001 735000                    ALS     1
        65 004456   000100 100405                    MLR     fill='000'O
        65 004457   000002 000002 61                 ADSC9   CORRECTION+2,A           cn=0,n=2
        65 004460   202100 000004                    ADSC9   TEXTCHAR2+36,,AUTO       cn=0,n=4
        65 004461   202100 236100                    LDQ     TEXTCHAR2+36,,AUTO
        65 004462   000022 732000                    QRS     18
        65 004463   202124 756100                    STQ     TEXTCHAR2+56,,AUTO
        65 004464   000062 236000 66                 LDQ     50
        65 004465   200016 756100                    STQ     @LINE_IN_ERROR+1,,AUTO
        65 004466   000063 236000 66                 LDQ     51
        65 004467   200015 756100                    STQ     @SYM_TO_BE_INSERTED+1,,AUTO
        65 004470   202124 630500                    EPPR0   TEXTCHAR2+56,,AUTO
        65 004471   200014 450500                    STP0    LC+1,,AUTO
        65 004472   000064 236000 66                 LDQ     52
        65 004473   200013 756100                    STQ     INDX+2,,AUTO
        65 004474   000005 701000 65                 TSX1    CREATE_DUMMY_TOKEN
        65 004475   000000 011000                    NOP     0
PL6.E3A0      #001=RGRAM File=LR_NRGRAM.:Z8A6TSI                                 SAT 08/09/97 09:36 Page:89

  21179 65 004476   000001 336007                    LCQ     1,DL
        65 004477   000000 056000 61                 ASQ     CORRECTION

  21180 65 004500   000001 054000 61                 AOS     CORRECTION+1

  21181 65 004501   000000 235000 43                 LDA     LA_PUT
        65 004502   000000 755000 44                 STA     LA_GET

  21182 65 004503   000001 235007                    LDA     1,DL
        65 004504   000000 755000 42                 STA     LA_CNT

  21183 65 004505   004515 710000 65                 TRA     s:21235

  21186 65 004506   000001 450000 61                 STZ     CORRECTION+1

  21187 65 004507   000000 235000 52                 LDA     ERR_LA_CNT
        65 004510   000000 755000 42                 STA     LA_CNT

  21188 65 004511   000000 236000 51                 LDQ     ERR_LA_PUT
        65 004512   000000 756000 43                 STQ     LA_PUT

  21189 65 004513   000000 235000 50                 LDA     ERR_LA_GET
        65 004514   000000 755000 44                 STA     LA_GET

  21235 65 004515   000000 236000 44                 LDQ     LA_GET
        65 004516   000006 402007                    MPY     6,DL
        65 004517   000001 235006 38                 LDA     LA_STK+1,QL
        65 004520   000000 755000 48                 STA     ERRLINE

  21236 65 004521   000002 235006 38                 LDA     LA_STK+2,QL
        65 004522   000000 755000 49                 STA     ERRCOL

  21239 65 004523   000000 236000 66                 LDQ     0
        65 004524   000000 235000 66                 LDA     0
        65 004525   201766 757100                    STAQ    @ITM+1,,AUTO
        65 004526   000066 236000 66                 LDQ     54
PL6.E3A0      #001=RGRAM File=LR_NRGRAM.:Z8A6TSI                                 SAT 08/09/97 09:36 Page:90
        65 004527   201765 756100                    STQ     @SUCCSTATE+1,,AUTO
        65 004530   000132 701000 65                 TSX1    ERROR
        65 004531   000000 011000                    NOP     0

  21242 65 004532   000002 713400                    CLIMB   err
        65 004533   000000 401760                    pmme    nvectors=0

  21265 65 004534   200010 236100                    LDQ     ACTION,,AUTO
        65 004535   000022 732000                    QRS     18
        65 004536   000006 402007                    MPY     6,DL
        65 004537   000100 101406                    MRL     fill='000'O
        65 004540   000000 400002 xsym               ADSC9   PRODR,Q                  cn=2,n=2
        65 004541   202100 000004                    ADSC9   TEXTCHAR2+36,,AUTO       cn=0,n=4
        65 004542   000000 236000 47                 LDQ     PARSE_STACK_IDX
        65 004543   000022 732000                    QRS     18
        65 004544   202100 136100                    SBLQ    TEXTCHAR2+36,,AUTO
        65 004545   000000 620006                    EAX0    0,QL
        65 004546   000000 740000 47                 STX0    PARSE_STACK_IDX

  21266 65 004547   000000 235000 47                 LDA     PARSE_STACK_IDX
        65 004550   000022 731000                    ARS     18
        65 004551   000001 035007                    ADLA    1,DL
        65 004552   000000 755000 39                 STA     LX_TOP

  21268 65 004553   200010 236100                    LDQ     ACTION,,AUTO
        65 004554   000022 732000                    QRS     18
        65 004555   000006 402007                    MPY     6,DL
        65 004556   000100 100406                    MLR     fill='000'O
        65 004557   000000 000002 xsym               ADSC9   PRODR,Q                  cn=0,n=2
        65 004560   200007 000002                    ADSC9   NT,,AUTO                 cn=0,n=2

  21269 65 004561   200007 221100                    LDX1    NT,,AUTO
        65 004562   000000 722011 xsym               LXL2    GOTO_COL,X1
        65 004563   004567 601000 65                 TNZ     s:21278

  21274 65 004564   000000 223011 xsym               LDX3    GOTO_COL,X1
        65 004565   000000 743000 41                 STX3    STATE
PL6.E3A0      #001=RGRAM File=LR_NRGRAM.:Z8A6TSI                                 SAT 08/09/97 09:36 Page:91

  21275 65 004566   004610 710000 65                 TRA     s:21295

  21278 65 004567   000000 236011 xsym               LDQ     GOTO_COL,X1
        65 004570   777777 376007                    ANQ     -1,DL
        65 004571   000000 036010 46                 ADLQ    PARSE_STACK,X0
        65 004572   000000 623006                    EAX3    0,QL
        65 004573   200011 743100                    STX3    INDX,,AUTO

  21279 65 004574   200007 235100                    LDA     NT,,AUTO
        65 004575   000022 731000                    ARS     18
        65 004576   202100 755100                    STA     TEXTCHAR2+36,,AUTO
        65 004577   000000 236013 xsym               LDQ     GOTO_ROW,X3
        65 004600   777777 376007                    ANQ     -1,DL
        65 004601   202100 116100                    CMPQ    TEXTCHAR2+36,,AUTO
        65 004602   004606 601000 65                 TNZ     s:21291

  21284 65 004603   000000 224013 xsym               LDX4    GOTO_ROW,X3
        65 004604   000000 744000 41                 STX4    STATE

  21285 65 004605   004610 710000 65                 TRA     s:21295

  21291 65 004606   000000 224011 xsym               LDX4    GOTO_COL,X1
        65 004607   000000 744000 41                 STX4    STATE

  21295 65 004610   000764 100003                    CMPX0   500,DU
        65 004611   004724 601000 65                 TNZ     s:21393

  21303 65 004612   000000 235000 42                 LDA     LA_CNT
        65 004613   004704 605400 65                 TPNZ    s:21379

  21304 65 004614   000000 236000 61                 LDQ     CORRECTION
        65 004615   004641 601000 65                 TNZ     s:21316
        65 004616   000001 235000 61                 LDA     CORRECTION+1
        65 004617   004641 601000 65                 TNZ     s:21316

  21310 65 004620   000000 236000 43                 LDQ     LA_PUT
PL6.E3A0      #001=RGRAM File=LR_NRGRAM.:Z8A6TSI                                 SAT 08/09/97 09:36 Page:92
        65 004621   000006 402003                    MPY     6,DU
        65 004622   000061 036000 66                 ADLQ    49
        65 004623   202100 756100                    STQ     TEXTCHAR2+36,,AUTO
        65 004624   202100 630500                    EPPR0   TEXTCHAR2+36,,AUTO
        65 004625   202101 450500                    STP0    TEXTCHAR2+37,,AUTO
        65 004626   202101 630500                    EPPR0   TEXTCHAR2+37,,AUTO
        65 004627   000060 631400 66                 EPPR1   48
        65 004630   000000 701000 xent               TSX1    SCANNER
        65 004631   000000 011000                    NOP     0

  21312 65 004632   000000 236000 43                 LDQ     LA_PUT
        65 004633   000006 402007                    MPY     6,DL
        65 004634   000005 235006 38                 LDA     LA_STK+5,QL
        65 004635   000000 755000 43                 STA     LA_PUT

  21313 65 004636   000001 236007                    LDQ     1,DL
        65 004637   000000 756000 42                 STQ     LA_CNT

  21314 65 004640   004704 710000 65                 TRA     s:21379

  21316 65 004641   000000 116003                    CMPQ    0,DU
        65 004642   004675 604400 65                 TMOZ    s:21331

  21319 65 004643   000001 235000 61                 LDA     CORRECTION+1
        65 004644   000001 735000                    ALS     1
        65 004645   000100 100405                    MLR     fill='000'O
        65 004646   000002 000002 61                 ADSC9   CORRECTION+2,A           cn=0,n=2
        65 004647   202100 000004                    ADSC9   TEXTCHAR2+36,,AUTO       cn=0,n=4
        65 004650   202100 236100                    LDQ     TEXTCHAR2+36,,AUTO
        65 004651   000022 732000                    QRS     18
        65 004652   202126 756100                    STQ     TEXTCHAR2+58,,AUTO
        65 004653   000062 236000 66                 LDQ     50
        65 004654   200016 756100                    STQ     @LINE_IN_ERROR+1,,AUTO
        65 004655   000063 236000 66                 LDQ     51
        65 004656   200015 756100                    STQ     @SYM_TO_BE_INSERTED+1,,AUTO
        65 004657   202126 630500                    EPPR0   TEXTCHAR2+58,,AUTO
        65 004660   200014 450500                    STP0    LC+1,,AUTO
PL6.E3A0      #001=RGRAM File=LR_NRGRAM.:Z8A6TSI                                 SAT 08/09/97 09:36 Page:93
        65 004661   000064 236000 66                 LDQ     52
        65 004662   200013 756100                    STQ     INDX+2,,AUTO
        65 004663   000005 701000 65                 TSX1    CREATE_DUMMY_TOKEN
        65 004664   000000 011000                    NOP     0

  21324 65 004665   000001 336007                    LCQ     1,DL
        65 004666   000000 056000 61                 ASQ     CORRECTION

  21325 65 004667   000001 054000 61                 AOS     CORRECTION+1

  21326 65 004670   000000 235000 43                 LDA     LA_PUT
        65 004671   000000 755000 44                 STA     LA_GET

  21327 65 004672   000001 235007                    LDA     1,DL
        65 004673   000000 755000 42                 STA     LA_CNT

  21328 65 004674   004704 710000 65                 TRA     s:21379

  21331 65 004675   000001 450000 61                 STZ     CORRECTION+1

  21332 65 004676   000000 235000 52                 LDA     ERR_LA_CNT
        65 004677   000000 755000 42                 STA     LA_CNT

  21333 65 004700   000000 235000 51                 LDA     ERR_LA_PUT
        65 004701   000000 755000 43                 STA     LA_PUT

  21334 65 004702   000000 235000 50                 LDA     ERR_LA_GET
        65 004703   000000 755000 44                 STA     LA_GET

  21379 65 004704   000000 236000 44                 LDQ     LA_GET
        65 004705   000006 402007                    MPY     6,DL
        65 004706   000001 235006 38                 LDA     LA_STK+1,QL
        65 004707   000000 755000 48                 STA     ERRLINE

  21380 65 004710   000002 235006 38                 LDA     LA_STK+2,QL
        65 004711   000000 755000 49                 STA     ERRCOL

PL6.E3A0      #001=RGRAM File=LR_NRGRAM.:Z8A6TSI                                 SAT 08/09/97 09:36 Page:94
  21383 65 004712   000000 236000 66                 LDQ     0
        65 004713   000000 235000 66                 LDA     0
        65 004714   201766 757100                    STAQ    @ITM+1,,AUTO
        65 004715   000067 236000 66                 LDQ     55
        65 004716   201765 756100                    STQ     @SUCCSTATE+1,,AUTO
        65 004717   000132 701000 65                 TSX1    ERROR
        65 004720   000000 011000                    NOP     0

  21386 65 004721   000002 713400                    CLIMB   err
        65 004722   000000 401760                    pmme    nvectors=0

  21390 65 004723   004107 710000 65                 TRA     s:20931

  21393 65 004724   000001 623010                    EAX3    1,X0
        65 004725   000000 743000 47                 STX3    PARSE_STACK_IDX

  21394 65 004726   000000 235000 41                 LDA     STATE
        65 004727   000022 731000                    ARS     18
        65 004730   000000 755013 46                 STA     PARSE_STACK,X3

  21396 65 004731   004107 710000 65                 TRA     s:20931

  21399 65 004732   005252 604400 65                 TMOZ    s:21604

  21414 65 004733   000000 235000 39                 LDA     LX_TOP
        65 004734   000000 755000 60                 STA     ALT_LX_TOP

  21415 65 004735   000002 336007                    LCQ     2,DL
        65 004736   000000 056000 58                 ASQ     RED_STACK_TOP

  21416 65 004737   000000 221003                    LDX1    0,DU
        65 004740   200011 741100                    STX1    INDX,,AUTO
        65 004741   005040 710000 65                 TRA     s:21447+3

  21417 65 004742   200011 220100                    LDX0    INDX,,AUTO
        65 004743   000001 235010 57                 LDA     RED_STACK+1,X0
        65 004744   000000 755000 39                 STA     LX_TOP
PL6.E3A0      #001=RGRAM File=LR_NRGRAM.:Z8A6TSI                                 SAT 08/09/97 09:36 Page:95

  21418 65 004745   000000 235010 57                 LDA     RED_STACK,X0
        65 004746   000000 755000 45                 STA     REDUCTION

  21419 65 004747   000000 236000 45                 LDQ     REDUCTION
        65 004750   000006 402007                    MPY     6,DL
        65 004751   000100 101406                    MRL     fill='000'O
        65 004752   000000 400002 xsym               ADSC9   PRODR,Q                  cn=2,n=2
        65 004753   202100 000004                    ADSC9   TEXTCHAR2+36,,AUTO       cn=0,n=4
        65 004754   202100 236100                    LDQ     TEXTCHAR2+36,,AUTO
        65 004755   000000 116003                    CMPQ    0,DU
        65 004756   005010 601000 65                 TNZ     s:21439

  21421 65 004757   000000 054000 39                 AOS     LX_TOP

  21428 65 004760   000000 236000 45                 LDQ     REDUCTION
        65 004761   000006 402007                    MPY     6,DL
        65 004762   000100 101406                    MRL     fill='000'O
        65 004763   000001 000002 xsym               ADSC9   PRODR+1,Q                cn=0,n=2
        65 004764   202100 000004                    ADSC9   TEXTCHAR2+36,,AUTO       cn=0,n=4
        65 004765   202100 236100                    LDQ     TEXTCHAR2+36,,AUTO
        65 004766   000000 116003                    CMPQ    0,DU
        65 004767   005035 600000 65                 TZE     s:21447

  21430 65 004770   000001 336007                    LCQ     1,DL
        65 004771   000000 056000 39                 ASQ     LX_TOP

  21434 65 004772   000000 236000 45                 LDQ     REDUCTION
        65 004773   000006 402007                    MPY     6,DL
        65 004774   000100 101406                    MRL     fill='000'O
        65 004775   000001 000002 xsym               ADSC9   PRODR+1,Q                cn=0,n=2
        65 004776   202100 000004                    ADSC9   TEXTCHAR2+36,,AUTO       cn=0,n=4
        65 004777   202100 236100                    LDQ     TEXTCHAR2+36,,AUTO
        65 005000   202101 756100                    STQ     TEXTCHAR2+37,,AUTO
        65 005001   202101 630500                    EPPR0   TEXTCHAR2+37,,AUTO
        65 005002   202102 450500                    STP0    TEXTCHAR2+38,,AUTO
        65 005003   202102 630500                    EPPR0   TEXTCHAR2+38,,AUTO
PL6.E3A0      #001=RGRAM File=LR_NRGRAM.:Z8A6TSI                                 SAT 08/09/97 09:36 Page:96
        65 005004   000060 631400 66                 EPPR1   48
        65 005005   000000 701000 xent               TSX1    SEMANTICS
        65 005006   000000 011000                    NOP     0

  21437 65 005007   005035 710000 65                 TRA     s:21447

  21439 65 005010   000000 236000 45                 LDQ     REDUCTION
        65 005011   000006 402007                    MPY     6,DL
        65 005012   000100 101406                    MRL     fill='000'O
        65 005013   000001 000002 xsym               ADSC9   PRODR+1,Q                cn=0,n=2
        65 005014   202100 000004                    ADSC9   TEXTCHAR2+36,,AUTO       cn=0,n=4
        65 005015   202100 236100                    LDQ     TEXTCHAR2+36,,AUTO
        65 005016   000000 116003                    CMPQ    0,DU
        65 005017   005035 600000 65                 TZE     s:21447

  21444 65 005020   000000 236000 45                 LDQ     REDUCTION
        65 005021   000006 402007                    MPY     6,DL
        65 005022   000100 101406                    MRL     fill='000'O
        65 005023   000001 000002 xsym               ADSC9   PRODR+1,Q                cn=0,n=2
        65 005024   202100 000004                    ADSC9   TEXTCHAR2+36,,AUTO       cn=0,n=4
        65 005025   202100 236100                    LDQ     TEXTCHAR2+36,,AUTO
        65 005026   202101 756100                    STQ     TEXTCHAR2+37,,AUTO
        65 005027   202101 630500                    EPPR0   TEXTCHAR2+37,,AUTO
        65 005030   202102 450500                    STP0    TEXTCHAR2+38,,AUTO
        65 005031   202102 630500                    EPPR0   TEXTCHAR2+38,,AUTO
        65 005032   000060 631400 66                 EPPR1   48
        65 005033   000000 701000 xent               TSX1    SEMANTICS
        65 005034   000000 011000                    NOP     0

  21447 65 005035   200011 220100                    LDX0    INDX,,AUTO
        65 005036   000002 621010                    EAX1    2,X0
        65 005037   200011 741100                    STX1    INDX,,AUTO
        65 005040   200011 236100                    LDQ     INDX,,AUTO
        65 005041   000022 732000                    QRS     18
        65 005042   000000 116000 58                 CMPQ    RED_STACK_TOP
        65 005043   004742 604400 65                 TMOZ    s:21417

PL6.E3A0      #001=RGRAM File=LR_NRGRAM.:Z8A6TSI                                 SAT 08/09/97 09:36 Page:97
  21448 65 005044   000000 450000 58                 STZ     RED_STACK_TOP

  21449 65 005045   000000 235000 60                 LDA     ALT_LX_TOP
        65 005046   000000 755000 39                 STA     LX_TOP

  21450 65 005047   000000 450000 59                 STZ     IED_FLAG

  21460 65 005050   000000 235000 42                 LDA     LA_CNT
        65 005051   005142 605400 65                 TPNZ    s:21529

  21461 65 005052   000000 235000 61                 LDA     CORRECTION
        65 005053   005077 601000 65                 TNZ     s:21473
        65 005054   000001 235000 61                 LDA     CORRECTION+1
        65 005055   005077 601000 65                 TNZ     s:21473

  21467 65 005056   000000 236000 43                 LDQ     LA_PUT
        65 005057   000006 402003                    MPY     6,DU
        65 005060   000061 036000 66                 ADLQ    49
        65 005061   202100 756100                    STQ     TEXTCHAR2+36,,AUTO
        65 005062   202100 630500                    EPPR0   TEXTCHAR2+36,,AUTO
        65 005063   202101 450500                    STP0    TEXTCHAR2+37,,AUTO
        65 005064   202101 630500                    EPPR0   TEXTCHAR2+37,,AUTO
        65 005065   000060 631400 66                 EPPR1   48
        65 005066   000000 701000 xent               TSX1    SCANNER
        65 005067   000000 011000                    NOP     0

  21469 65 005070   000000 236000 43                 LDQ     LA_PUT
        65 005071   000006 402007                    MPY     6,DL
        65 005072   000005 235006 38                 LDA     LA_STK+5,QL
        65 005073   000000 755000 43                 STA     LA_PUT

  21470 65 005074   000001 236007                    LDQ     1,DL
        65 005075   000000 756000 42                 STQ     LA_CNT

  21471 65 005076   005142 710000 65                 TRA     s:21529

  21473 65 005077   000000 235000 61                 LDA     CORRECTION
PL6.E3A0      #001=RGRAM File=LR_NRGRAM.:Z8A6TSI                                 SAT 08/09/97 09:36 Page:98
        65 005100   005133 604400 65                 TMOZ    s:21488

  21476 65 005101   000001 235000 61                 LDA     CORRECTION+1
        65 005102   000001 735000                    ALS     1
        65 005103   000100 100405                    MLR     fill='000'O
        65 005104   000002 000002 61                 ADSC9   CORRECTION+2,A           cn=0,n=2
        65 005105   202100 000004                    ADSC9   TEXTCHAR2+36,,AUTO       cn=0,n=4
        65 005106   202100 236100                    LDQ     TEXTCHAR2+36,,AUTO
        65 005107   000022 732000                    QRS     18
        65 005110   202130 756100                    STQ     TEXTCHAR2+60,,AUTO
        65 005111   000062 236000 66                 LDQ     50
        65 005112   200016 756100                    STQ     @LINE_IN_ERROR+1,,AUTO
        65 005113   000063 236000 66                 LDQ     51
        65 005114   200015 756100                    STQ     @SYM_TO_BE_INSERTED+1,,AUTO
        65 005115   202130 630500                    EPPR0   TEXTCHAR2+60,,AUTO
        65 005116   200014 450500                    STP0    LC+1,,AUTO
        65 005117   000064 236000 66                 LDQ     52
        65 005120   200013 756100                    STQ     INDX+2,,AUTO
        65 005121   000005 701000 65                 TSX1    CREATE_DUMMY_TOKEN
        65 005122   000000 011000                    NOP     0

  21481 65 005123   000001 336007                    LCQ     1,DL
        65 005124   000000 056000 61                 ASQ     CORRECTION

  21482 65 005125   000001 054000 61                 AOS     CORRECTION+1

  21483 65 005126   000000 235000 43                 LDA     LA_PUT
        65 005127   000000 755000 44                 STA     LA_GET

  21484 65 005130   000001 235007                    LDA     1,DL
        65 005131   000000 755000 42                 STA     LA_CNT

  21485 65 005132   005142 710000 65                 TRA     s:21529

  21488 65 005133   000001 450000 61                 STZ     CORRECTION+1

  21489 65 005134   000000 235000 52                 LDA     ERR_LA_CNT
PL6.E3A0      #001=RGRAM File=LR_NRGRAM.:Z8A6TSI                                 SAT 08/09/97 09:36 Page:99
        65 005135   000000 755000 42                 STA     LA_CNT

  21490 65 005136   000000 235000 51                 LDA     ERR_LA_PUT
        65 005137   000000 755000 43                 STA     LA_PUT

  21491 65 005140   000000 235000 50                 LDA     ERR_LA_GET
        65 005141   000000 755000 44                 STA     LA_GET

  21529 65 005142   000000 235000 39                 LDA     LX_TOP
        65 005143   000062 115007                    CMPA    50,DL
        65 005144   005166 601000 65                 TNZ     s:21550

  21538 65 005145   000000 236000 44                 LDQ     LA_GET
        65 005146   000006 402007                    MPY     6,DL
        65 005147   000001 235006 38                 LDA     LA_STK+1,QL
        65 005150   000000 755000 48                 STA     ERRLINE

  21539 65 005151   000002 235006 38                 LDA     LA_STK+2,QL
        65 005152   000000 755000 49                 STA     ERRCOL

  21542 65 005153   000000 236000 66                 LDQ     0
        65 005154   000000 235000 66                 LDA     0
        65 005155   201766 757100                    STAQ    @ITM+1,,AUTO
        65 005156   000006 236000 66                 LDQ     6
        65 005157   201765 756100                    STQ     @SUCCSTATE+1,,AUTO
        65 005160   000132 701000 65                 TSX1    ERROR
        65 005161   000000 011000                    NOP     0

  21545 65 005162   000002 713400                    CLIMB   err
        65 005163   000000 401760                    pmme    nvectors=0

  21547 65 005164   200004 221300                    LDX1  ! I+1,,AUTO
        65 005165   000001 702211                    TSX2  ! 1,X1

  21550 65 005166   000000 054000 39                 AOS     LX_TOP

  21551 65 005167   000000 236000 44                 LDQ     LA_GET
PL6.E3A0      #001=RGRAM File=LR_NRGRAM.:Z8A6TSI                                 SAT 08/09/97 09:36 Page:100
        65 005170   000030 402007                    MPY     24,DL
        65 005171   202100 756100                    STQ     TEXTCHAR2+36,,AUTO
        65 005172   000000 236000 39                 LDQ     LX_TOP
        65 005173   000030 402007                    MPY     24,DL
        65 005174   202100 235100                    LDA     TEXTCHAR2+36,,AUTO
        65 005175   000006 100405                    MLR     fill='000'O
        65 005176   000000 000030 38                 ADSC9   LA_STK,A                 cn=0,n=24
        65 005177   000000 000030 40                 ADSC9   LX_STK,Q                 cn=0,n=24

  21552 65 005200   000000 236000 39                 LDQ     LX_TOP
        65 005201   000006 402007                    MPY     6,DL
        65 005202   000000 620006                    EAX0    0,QL
        65 005203   000000 236000 66                 LDQ     0
        65 005204   000005 756010 40                 STQ     LX_STK+5,X0

  21559 65 005205   000000 236000 44                 LDQ     LA_GET
        65 005206   000006 402007                    MPY     6,DL
        65 005207   000001 235006 38                 LDA     LA_STK+1,QL
        65 005210   000000 755000 48                 STA     ERRLINE

  21560 65 005211   000002 235006 38                 LDA     LA_STK+2,QL
        65 005212   000000 755000 49                 STA     ERRCOL

  21567 65 005213   000000 221000 47                 LDX1    PARSE_STACK_IDX
        65 005214   000764 101003                    CMPX1   500,DU
        65 005215   005234 601000 65                 TNZ     s:21588

  21575 65 005216   000001 235006 38                 LDA     LA_STK+1,QL
        65 005217   000000 755000 48                 STA     ERRLINE

  21576 65 005220   000002 235006 38                 LDA     LA_STK+2,QL
        65 005221   000000 755000 49                 STA     ERRCOL

  21579 65 005222   000000 236000 66                 LDQ     0
        65 005223   000000 235000 66                 LDA     0
        65 005224   201766 757100                    STAQ    @ITM+1,,AUTO
        65 005225   000067 236000 66                 LDQ     55
PL6.E3A0      #001=RGRAM File=LR_NRGRAM.:Z8A6TSI                                 SAT 08/09/97 09:36 Page:101
        65 005226   201765 756100                    STQ     @SUCCSTATE+1,,AUTO
        65 005227   000132 701000 65                 TSX1    ERROR
        65 005230   000000 011000                    NOP     0

  21582 65 005231   000002 713400                    CLIMB   err
        65 005232   000000 401760                    pmme    nvectors=0

  21584 65 005233   004107 710000 65                 TRA     s:20931

  21588 65 005234   000001 336007                    LCQ     1,DL
        65 005235   000000 056000 42                 ASQ     LA_CNT

  21589 65 005236   000000 236000 44                 LDQ     LA_GET
        65 005237   000006 402007                    MPY     6,DL
        65 005240   000005 235006 38                 LDA     LA_STK+5,QL
        65 005241   000000 755000 44                 STA     LA_GET

  21590 65 005242   200010 222100                    LDX2    ACTION,,AUTO
        65 005243   000000 742000 41                 STX2    STATE

  21591 65 005244   000001 623011                    EAX3    1,X1
        65 005245   000000 743000 47                 STX3    PARSE_STACK_IDX

  21592 65 005246   000000 236000 41                 LDQ     STATE
        65 005247   000022 732000                    QRS     18
        65 005250   000000 756013 46                 STQ     PARSE_STACK,X3

  21594 65 005251   004107 710000 65                 TRA     s:20931

  21604 65 005252   400000 236003                    LDQ     -131072,DU
        65 005253   000000 756000 53                 STQ     ERR_RECOVERY_IN_PROGRESS

  21605 65 005254   000000 054000 54                 AOS     PARSE_ERROR_COUNT

  21613 65 005255   000000 234000 59                 SZN     IED_FLAG
        65 005256   005300 605000 65                 TPL     s:21626

PL6.E3A0      #001=RGRAM File=LR_NRGRAM.:Z8A6TSI                                 SAT 08/09/97 09:36 Page:102
  21615 65 005257   000000 721000 56                 LXL1    ALT_PARSE_STACK_IDX
        65 005260   000000 741000 47                 STX1    PARSE_STACK_IDX

  21616 65 005261   000000 235000 56                 LDA     ALT_PARSE_STACK_IDX
        65 005262   000002 735000                    ALS     2
        65 005263   000004 035007                    ADLA    4,DL
        65 005264   200005 755100                    STA     PARSE_STACK_IDX_IN_CHARS,,AUTO

  21617 65 005265   000000 622005                    EAX2    0,AL
        65 005266   200005 723100                    LXL3    PARSE_STACK_IDX_IN_CHARS,,AUTO
        65 005267   040040 100440                    MLR     fill='040'O
        65 005270   000000 000012 55                 ADSC9   ALT_PARSE_STACK          cn=0,n=*X2
        65 005271   000000 000013 46                 ADSC9   PARSE_STACK              cn=0,n=*X3

  21619 65 005272   000000 235000 60                 LDA     ALT_LX_TOP
        65 005273   000000 755000 39                 STA     LX_TOP

  21620 65 005274   000000 722011 46                 LXL2    PARSE_STACK,X1
        65 005275   000000 742000 41                 STX2    STATE

  21621 65 005276   000000 450000 59                 STZ     IED_FLAG

  21622 65 005277   000000 450000 58                 STZ     RED_STACK_TOP

  21626 65 005300   000461 701000 65                 TSX1    LOCALLY_LEAST_COST_CORRECTION
        65 005301   000000 011000                    NOP     0

  21632 65 005302   000000 450000 53                 STZ     ERR_RECOVERY_IN_PROGRESS

  21635 65 005303   004107 710000 65                 TRA     s:20931

       45    21647        %EJECT;
PL6.E3A0      #001=RGRAM File=LR_NRGRAM.:Z8A6TSI                                 SAT 08/09/97 09:36 Page:103
       46    21648    2   DO I=0 TO 25;

  21648 65 005304   200003 450100                    STZ     I,,AUTO

       47    21649    2      OPTIONS(I) = FALSE;

  21649 65 005305   200003 235100                    LDA     I,,AUTO
        65 005306   005310 605000 65                 TPL     s:21649+3
        65 005307   000044 035003                    ADLA    36,DU
        65 005310   003005 060400                    CSL     bolr='003'O
        65 005311   000002 000001 66                 BDSC    2                        by=0,bit=0,n=1
        65 005312   000000 000001 25                 BDSC    OPTIONS,A                by=0,bit=0,n=1

       48    21650    2   END;

  21650 65 005313   200003 054100                    AOS     I,,AUTO
        65 005314   200003 235100                    LDA     I,,AUTO
        65 005315   000031 115007                    CMPA    25,DL
        65 005316   005305 604400 65                 TMOZ    s:21649

       49    21651    1   KEY_REC = '           ';

  21651 65 005317   040000 100400                    MLR     fill='040'O
        65 005320   000165 000012 64                 ADSC9   117                      cn=0,n=10
        65 005321   000000 000012 32                 ADSC9   KEY_REC                  cn=0,n=10

       50    21652    1   INSTR_LISTED = TRUE;

  21652 65 005322   400000 236003                    LDQ     -131072,DU
        65 005323   000000 756000 28                 STQ     INSTR_LISTED

       51    21653    1   LINELEN = 0; /* FOR OUT_STR */

  21653 65 005324   000000 450000 34                 STZ     LINELEN

       52    21654        %SELECT_LO;

PL6.E3A0      #001=RGRAM File=LR_NRGRAM.:Z8A6TSI                                 SAT 08/09/97 09:36 Page:104
  21655 65 005325   000000 236007 xsym               LDQ     M$LO,DL
        65 005326   000000 756000 0                  STQ     OUT_DCBN

       53    21657    1   EOF_FLAG = FALSE;

  21657 65 005327   000000 450000 31                 STZ     EOF_FLAG

       54    21658    1   NR_SYMS = 0;

  21658 65 005330   000000 450000 10                 STZ     NR_SYMS

       55    21659    1   NR_TERM = 0;

  21659 65 005331   000000 450000 11                 STZ     NR_TERM

       56    21660    1   NR_NT = 0;

  21660 65 005332   000000 450000 15                 STZ     NR_NT

       57    21661    1   NR_ONRIGHT = 0;

  21661 65 005333   000000 450000 14                 STZ     NR_ONRIGHT

       58    21662    1   ERR_SEV = 0;

  21662 65 005334   000000 450000 19                 STZ     ERR_SEV

       59    21663    1   NR_PROD = 0;

  21663 65 005335   000000 450000 9                  STZ     NR_PROD

       60    21664    2   DO I = 0 TO NR_SYMS_MAX;

  21664 65 005336   200003 450100                    STZ     I,,AUTO

       61    21665    2      SYM_PTRS(I) = ADDR(NIL);

PL6.E3A0      #001=RGRAM File=LR_NRGRAM.:Z8A6TSI                                 SAT 08/09/97 09:36 Page:105
  21665 65 005337   000000 236000 66                 LDQ     0
        65 005340   200003 720100                    LXL0    I,,AUTO
        65 005341   000000 756010 6                  STQ     SYM_PTRS,X0

       62    21666    2   END;

  21666 65 005342   200003 054100                    AOS     I,,AUTO
        65 005343   200003 235100                    LDA     I,,AUTO
        65 005344   002570 115007                    CMPA    1400,DL
        65 005345   005337 604400 65                 TMOZ    s:21665

       63    21667    2   DO I = 0 TO HASH_MOD -1;

  21667 65 005346   200003 450100                    STZ     I,,AUTO
        65 005347   005354 710000 65                 TRA     s:21669+1

       64    21668    2      HASH_HEADS(I) = ADDR(NIL);

  21668 65 005350   000000 236000 66                 LDQ     0
        65 005351   200003 720100                    LXL0    I,,AUTO
        65 005352   000000 756010 36                 STQ     HASH_HEADS,X0

       65    21669    2   END;

  21669 65 005353   200003 054100                    AOS     I,,AUTO
        65 005354   200003 235100                    LDA     I,,AUTO
        65 005355   000400 115007                    CMPA    256,DL
        65 005356   005350 604400 65                 TMOZ    s:21668

       66    21670    1   SYMSTART = 0;

  21670 65 005357   000000 450000 37                 STZ     SYMSTART

       67    21671    1   CALL OPEN_INPUT;

  21671 65 005360   000002 631400 66                 EPPR1   2
        65 005361   000000 701000 xent               TSX1    OPEN_INPUT
PL6.E3A0      #001=RGRAM File=LR_NRGRAM.:Z8A6TSI                                 SAT 08/09/97 09:36 Page:106
        65 005362   000000 011000                    NOP     0

       68    21672    1   CALL COMMAND_LINE_OPTIONS;

  21672 65 005363   000002 631400 66                 EPPR1   2
        65 005364   000000 701000 xent               TSX1    COMMAND_LINE_OPTIONS
        65 005365   000000 011000                    NOP     0

       69    21673    1   INSTR_INDX = 0;

  21673 65 005366   000000 450000 30                 STZ     INSTR_INDX

       70    21674    1   CALL INSERT(INSTRCHR,0,140 ,

  21674 65 005367   040000 100400                    MLR     fill='040'O
        65 005370   000170 000075 64                 ADSC9   120                      cn=0,n=61
        65 005371   000000 000214 27                 ADSC9   INSTR                    cn=0,n=140

       71    21675    1     '<SYSTEM_GS> ::= =BEGINNING_OF_FILE= <SYSTEM_GS> =END_OF_FILE=');
       72    21676        /* THE FIRST LINE HAS BEEN ST UP WITH A FAKE PRODUCTION */
       73    21677    1   INSTR_LEN = 140;

  21677 65 005372   000214 235007                    LDA     140,DL
        65 005373   000000 755000 29                 STA     INSTR_LEN

       74    21678    1   IF OPTIONS(LS_OPT)

  21678 65 005374   000000 234000 25                 SZN     OPTIONS
        65 005375   005432 605000 65                 TPL     s:21705

       75    21679    2   THEN DO;

       76    21680             %OUTLINE(S="'============='");

  21682 65 005376   000071 630400 66                 EPPR0   57
        65 005377   000001 631400 66                 EPPR1   1
        65 005400   000000 701000 xent               TSX1    OUT_STR
PL6.E3A0      #001=RGRAM File=LR_NRGRAM.:Z8A6TSI                                 SAT 08/09/97 09:36 Page:107
        65 005401   000000 011000                    NOP     0

  21683 65 005402   000002 631400 66                 EPPR1   2
        65 005403   000000 701000 xent               TSX1    FLUSH
        65 005404   000000 011000                    NOP     0

       77    21686             %OUTLINE(S="'INPUT LISTING'");

  21688 65 005405   000073 630400 66                 EPPR0   59
        65 005406   000001 631400 66                 EPPR1   1
        65 005407   000000 701000 xent               TSX1    OUT_STR
        65 005410   000000 011000                    NOP     0

  21689 65 005411   000002 631400 66                 EPPR1   2
        65 005412   000000 701000 xent               TSX1    FLUSH
        65 005413   000000 011000                    NOP     0

       78    21692             %OUTLINE(S="'============='");

  21694 65 005414   000071 630400 66                 EPPR0   57
        65 005415   000001 631400 66                 EPPR1   1
        65 005416   000000 701000 xent               TSX1    OUT_STR
        65 005417   000000 011000                    NOP     0

  21695 65 005420   000002 631400 66                 EPPR1   2
        65 005421   000000 701000 xent               TSX1    FLUSH
        65 005422   000000 011000                    NOP     0

       79    21698             %OUTLINE(S="' '");

  21700 65 005423   000005 630400 66                 EPPR0   5
        65 005424   000001 631400 66                 EPPR1   1
        65 005425   000000 701000 xent               TSX1    OUT_STR
        65 005426   000000 011000                    NOP     0

  21701 65 005427   000002 631400 66                 EPPR1   2
        65 005430   000000 701000 xent               TSX1    FLUSH
PL6.E3A0      #001=RGRAM File=LR_NRGRAM.:Z8A6TSI                                 SAT 08/09/97 09:36 Page:108
        65 005431   000000 011000                    NOP     0

       80    21704    2   END;

       81    21705    1      CALL PARSER;

  21705 65 005432   000003 701000 65                 TSX1    PARSER
        65 005433   000000 011000                    NOP     0

       82    21706    1   END RGRAM;

  21706 65 005434   000000 702200 xent               TSX2  ! X66_ARET
       83    21707        %EOD;

PL6.E3A0      #001=RGRAM File=LR_NRGRAM.:Z8A6TSI                                 SAT 08/09/97 09:36 Page:109
--  Include file information  --

   PARSER_EC_SI.:Z8A6TOU  is referenced.
   PARSER_STATS.:Z8A6TOU  is referenced.
   PARSER_MACROS.:Z8A6TOU  cannot be made into a system file and is referenced.
   CP_6_C.:LIB_E04  is referenced.
   CP_6.:LIB_E04  cannot be made into a system file and is referenced.
   PARSER_STATE.:Z8A6TOU  cannot be made into a system file and is referenced.
   PARSER_STACK.:Z8A6TOU  cannot be made into a system file and is referenced.
   PADPDA_SUBS.:Z8A6TOU  is referenced.
   LR_PARSER_SI.:Z8A6TOU  cannot be made into a system file and is referenced.
   PARSER_SUBS.:Z8A6TOU  is referenced.
   LR_IO_EXT.:Z8A6TOU  cannot be made into a system file and is referenced.
   LR_GRAM_EXT.:Z8A6TOU  cannot be made into a system file and is referenced.
      No diagnostics issued in procedure RGRAM.
PL6.E3A0      #001=RGRAM File=LR_NRGRAM.:Z8A6TSI                                 SAT 08/09/97 09:36 Page:110

 **** Variables and constants ****

  ****  Section 000 LblCom OUT_DCBN

  ****  Scalars and arrays  ****
OctLoc.c.b A Datatyp(siz) R M Lvl/name                 OctLoc.c.b A Datatyp(siz) R M Lvl/name

     0-0-0/w SBIN        r     1 OUT_DCBN

  ****  Section 006 LblCom SYM_PTRS

  ****  Scalars and arrays  ****
OctLoc.c.b A Datatyp(siz) R M Lvl/name                 OctLoc.c.b A Datatyp(siz) R M Lvl/name

     0-0-0/w PTR         r     1 SYM_PTRS(0:1400)

  ****  Section 007 LblCom RIGHT_PARTS

  ****  Scalars and arrays  ****
OctLoc.c.b A Datatyp(siz) R M Lvl/name                 OctLoc.c.b A Datatyp(siz) R M Lvl/name

     0-0-0/h SBIN(18)          1 RIGHT_PARTS(0:8000)

  ****  Section 008 LblCom PROD

  ****  Scalars and arrays  ****
OctLoc.c.b A Datatyp(siz) R M Lvl/name                 OctLoc.c.b A Datatyp(siz) R M Lvl/name

     0-0-0/h STRC(72)          1 PROD(0:1500)

  ****  Section 009 LblCom NR_PROD

  ****  Scalars and arrays  ****
OctLoc.c.b A Datatyp(siz) R M Lvl/name                 OctLoc.c.b A Datatyp(siz) R M Lvl/name

     0-0-0/w SBIN        r     1 NR_PROD

PL6.E3A0      #001=RGRAM File=LR_NRGRAM.:Z8A6TSI                                 SAT 08/09/97 09:36 Page:111
  ****  Section 010 LblCom NR_SYMS

  ****  Scalars and arrays  ****
OctLoc.c.b A Datatyp(siz) R M Lvl/name                 OctLoc.c.b A Datatyp(siz) R M Lvl/name

     0-0-0/w SBIN        r     1 NR_SYMS

  ****  Section 011 LblCom NR_TERM

  ****  Scalars and arrays  ****
OctLoc.c.b A Datatyp(siz) R M Lvl/name                 OctLoc.c.b A Datatyp(siz) R M Lvl/name

     0-0-0/w SBIN        r     1 NR_TERM

  ****  Section 012 LblCom LAST_ACT

  ****  Scalars and arrays  ****
OctLoc.c.b A Datatyp(siz) R M Lvl/name                 OctLoc.c.b A Datatyp(siz) R M Lvl/name

     0-0-0/w SBIN              1 LAST_ACT

  ****  Section 013 LblCom LAST_NULL

  ****  Scalars and arrays  ****
OctLoc.c.b A Datatyp(siz) R M Lvl/name                 OctLoc.c.b A Datatyp(siz) R M Lvl/name

     0-0-0/w SBIN              1 LAST_NULL

  ****  Section 014 LblCom NR_ONRIGHT

  ****  Scalars and arrays  ****
OctLoc.c.b A Datatyp(siz) R M Lvl/name                 OctLoc.c.b A Datatyp(siz) R M Lvl/name

     0-0-0/w SBIN        r     1 NR_ONRIGHT

  ****  Section 015 LblCom NR_NT

PL6.E3A0      #001=RGRAM File=LR_NRGRAM.:Z8A6TSI                                 SAT 08/09/97 09:36 Page:112
  ****  Scalars and arrays  ****
OctLoc.c.b A Datatyp(siz) R M Lvl/name                 OctLoc.c.b A Datatyp(siz) R M Lvl/name

     0-0-0/w SBIN        r     1 NR_NT

  ****  Section 016 LblCom PROD_LEN_MAX_EVER

  ****  Scalars and arrays  ****
OctLoc.c.b A Datatyp(siz) R M Lvl/name                 OctLoc.c.b A Datatyp(siz) R M Lvl/name

     0-0-0/w SBIN              1 PROD_LEN_MAX_EVER

  ****  Section 017 LblCom LAST_ORDER_SPECIFIED

  ****  Scalars and arrays  ****
OctLoc.c.b A Datatyp(siz) R M Lvl/name                 OctLoc.c.b A Datatyp(siz) R M Lvl/name

     0-0-0/w SBIN              1 LAST_ORDER_SPECIFIED

  ****  Section 018 LblCom SEMANTIC_ORDERING

  ****  Scalars and arrays  ****
OctLoc.c.b A Datatyp(siz) R M Lvl/name                 OctLoc.c.b A Datatyp(siz) R M Lvl/name

     0-0-0/b BIT               1 SEMANTIC_ORDERING

  ****  Section 019 LblCom ERR_SEV

  ****  Scalars and arrays  ****
OctLoc.c.b A Datatyp(siz) R M Lvl/name                 OctLoc.c.b A Datatyp(siz) R M Lvl/name

     0-0-0/w SBIN        r     1 ERR_SEV

  ****  Section 020 LblCom SET_LENGTHB

  ****  Scalars and arrays  ****
OctLoc.c.b A Datatyp(siz) R M Lvl/name                 OctLoc.c.b A Datatyp(siz) R M Lvl/name
PL6.E3A0      #001=RGRAM File=LR_NRGRAM.:Z8A6TSI                                 SAT 08/09/97 09:36 Page:113

     0-0-0/w SBIN              1 SET_LENGTHB

  ****  Section 021 LblCom SET_LENGTHW

  ****  Scalars and arrays  ****
OctLoc.c.b A Datatyp(siz) R M Lvl/name                 OctLoc.c.b A Datatyp(siz) R M Lvl/name

     0-0-0/w SBIN              1 SET_LENGTHW

  ****  Section 022 LblCom EOF_SYMBOL_PTR

  ****  Scalars and arrays  ****
OctLoc.c.b A Datatyp(siz) R M Lvl/name                 OctLoc.c.b A Datatyp(siz) R M Lvl/name

     0-0-0/w PTR               1 EOF_SYMBOL_PTR

  ****  Section 023 LblCom ERROR_SYMBOL_PTR

  ****  Scalars and arrays  ****
OctLoc.c.b A Datatyp(siz) R M Lvl/name                 OctLoc.c.b A Datatyp(siz) R M Lvl/name

     0-0-0/w PTR               1 ERROR_SYMBOL_PTR

  ****  Section 024 LblCom BOF_SYMBOL_PTR

  ****  Scalars and arrays  ****
OctLoc.c.b A Datatyp(siz) R M Lvl/name                 OctLoc.c.b A Datatyp(siz) R M Lvl/name

     0-0-0/w PTR               1 BOF_SYMBOL_PTR

  ****  Section 025 LblCom OPTIONS

  ****  Scalars and arrays  ****
OctLoc.c.b A Datatyp(siz) R M Lvl/name                 OctLoc.c.b A Datatyp(siz) R M Lvl/name

     0-0-0/b BIT         r     1 OPTIONS(0:25)
PL6.E3A0      #001=RGRAM File=LR_NRGRAM.:Z8A6TSI                                 SAT 08/09/97 09:36 Page:114

  ****  Section 026 LblCom OPTIONS_TEXT

  ****  Scalars and arrays  ****
OctLoc.c.b A Datatyp(siz) R M Lvl/name                 OctLoc.c.b A Datatyp(siz) R M Lvl/name

     0-0-0/c CHAR(4)           1 OPTIONS_TEXT(0:25)

  ****  Section 027 LblCom INSTR

  ****  Scalars and arrays  ****
OctLoc.c.b A Datatyp(siz) R M Lvl/name                 OctLoc.c.b A Datatyp(siz) R M Lvl/name

     0-0-0/c CHAR        r     1 INSTR(0:511)               0-0-0/c CHAR(512)   r     1 INSTRCHR

  ****  Section 028 LblCom INSTR_LISTED

  ****  Scalars and arrays  ****
OctLoc.c.b A Datatyp(siz) R M Lvl/name                 OctLoc.c.b A Datatyp(siz) R M Lvl/name

     0-0-0/b BIT         r     1 INSTR_LISTED

  ****  Section 029 LblCom INSTR_LEN

  ****  Scalars and arrays  ****
OctLoc.c.b A Datatyp(siz) R M Lvl/name                 OctLoc.c.b A Datatyp(siz) R M Lvl/name

     0-0-0/w SBIN        r     1 INSTR_LEN

  ****  Section 030 LblCom INSTR_INDX

  ****  Scalars and arrays  ****
OctLoc.c.b A Datatyp(siz) R M Lvl/name                 OctLoc.c.b A Datatyp(siz) R M Lvl/name

     0-0-0/w SBIN        r     1 INSTR_INDX

  ****  Section 031 LblCom EOF_FLAG
PL6.E3A0      #001=RGRAM File=LR_NRGRAM.:Z8A6TSI                                 SAT 08/09/97 09:36 Page:115

  ****  Scalars and arrays  ****
OctLoc.c.b A Datatyp(siz) R M Lvl/name                 OctLoc.c.b A Datatyp(siz) R M Lvl/name

     0-0-0/b BIT         r     1 EOF_FLAG

  ****  Section 032 LblCom KEY_REC

  ****  Scalars and arrays  ****
OctLoc.c.b A Datatyp(siz) R M Lvl/name                 OctLoc.c.b A Datatyp(siz) R M Lvl/name

     0-0-0/c CHAR(10)    r     1 KEY_REC

  ****  Section 033 LblCom LINE

  ****  Scalars and arrays  ****
OctLoc.c.b A Datatyp(siz) R M Lvl/name                 OctLoc.c.b A Datatyp(siz) R M Lvl/name

     0-0-0/c CHAR(109)         1 LINE

  ****  Section 034 LblCom LINELEN

  ****  Scalars and arrays  ****
OctLoc.c.b A Datatyp(siz) R M Lvl/name                 OctLoc.c.b A Datatyp(siz) R M Lvl/name

     0-0-0/w SBIN        r     1 LINELEN

  ****  Section 035 LblCom TSTATS

  ****  Scalars and arrays  ****
OctLoc.c.b A Datatyp(siz) R M Lvl/name                 OctLoc.c.b A Datatyp(siz) R M Lvl/name

     0-0-0/w STRC(7380)        1 TSTATS

  ****  Section 036 LblCom HASH_HEADS

  ****  Scalars and arrays  ****
PL6.E3A0      #001=RGRAM File=LR_NRGRAM.:Z8A6TSI                                 SAT 08/09/97 09:36 Page:116
OctLoc.c.b A Datatyp(siz) R M Lvl/name                 OctLoc.c.b A Datatyp(siz) R M Lvl/name

     0-0-0/w PTR         r     1 HASH_HEADS(0:257)

  ****  Section 037 LblCom SYMSTART

  ****  Scalars and arrays  ****
OctLoc.c.b A Datatyp(siz) R M Lvl/name                 OctLoc.c.b A Datatyp(siz) R M Lvl/name

     0-0-0/w SBIN        r     1 SYMSTART

  ****  Section 038 LblCom LA_STK

  ****  Scalars and arrays  ****
OctLoc.c.b A Datatyp(siz) R M Lvl/name                 OctLoc.c.b A Datatyp(siz) R M Lvl/name

     0-0-0/w STRC(216)   r     1 LA_STK(0:50)

  ****  Section 039 LblCom LX_TOP

  ****  Scalars and arrays  ****
OctLoc.c.b A Datatyp(siz) R M Lvl/name                 OctLoc.c.b A Datatyp(siz) R M Lvl/name

     0-0-0/w SBIN        r     1 LX_TOP

  ****  Section 040 LblCom LX_STK

  ****  Scalars and arrays  ****
OctLoc.c.b A Datatyp(siz) R M Lvl/name                 OctLoc.c.b A Datatyp(siz) R M Lvl/name

     0-0-0/w STRC(216)   r     1 LX_STK(0:50)

  ****  Section 041 LblCom STATE

  ****  Scalars and arrays  ****
OctLoc.c.b A Datatyp(siz) R M Lvl/name                 OctLoc.c.b A Datatyp(siz) R M Lvl/name

PL6.E3A0      #001=RGRAM File=LR_NRGRAM.:Z8A6TSI                                 SAT 08/09/97 09:36 Page:117
     0-0-0/w SBIN(18)    r     1 STATE

  ****  Section 042 LblCom LA_CNT

  ****  Scalars and arrays  ****
OctLoc.c.b A Datatyp(siz) R M Lvl/name                 OctLoc.c.b A Datatyp(siz) R M Lvl/name

     0-0-0/w SBIN        r     1 LA_CNT

  ****  Section 043 LblCom LA_PUT

  ****  Scalars and arrays  ****
OctLoc.c.b A Datatyp(siz) R M Lvl/name                 OctLoc.c.b A Datatyp(siz) R M Lvl/name

     0-0-0/w SBIN        r     1 LA_PUT

  ****  Section 044 LblCom LA_GET

  ****  Scalars and arrays  ****
OctLoc.c.b A Datatyp(siz) R M Lvl/name                 OctLoc.c.b A Datatyp(siz) R M Lvl/name

     0-0-0/w SBIN        r     1 LA_GET

  ****  Section 045 LblCom REDUCTION

  ****  Scalars and arrays  ****
OctLoc.c.b A Datatyp(siz) R M Lvl/name                 OctLoc.c.b A Datatyp(siz) R M Lvl/name

     0-0-0/w SBIN        r     1 REDUCTION

  ****  Section 046 LblCom PARSE_STACK

  ****  Scalars and arrays  ****
OctLoc.c.b A Datatyp(siz) R M Lvl/name                 OctLoc.c.b A Datatyp(siz) R M Lvl/name

     0-0-0/w SBIN        r     1 PARSE_STACK(0:500)

PL6.E3A0      #001=RGRAM File=LR_NRGRAM.:Z8A6TSI                                 SAT 08/09/97 09:36 Page:118
  ****  Section 047 LblCom PARSE_STACK_IDX

  ****  Scalars and arrays  ****
OctLoc.c.b A Datatyp(siz) R M Lvl/name                 OctLoc.c.b A Datatyp(siz) R M Lvl/name

     0-0-0/w SBIN(18)    r     1 PARSE_STACK_IDX

  ****  Section 048 LblCom ERRLINE

  ****  Scalars and arrays  ****
OctLoc.c.b A Datatyp(siz) R M Lvl/name                 OctLoc.c.b A Datatyp(siz) R M Lvl/name

     0-0-0/w SBIN        r     1 ERRLINE

  ****  Section 049 LblCom ERRCOL

  ****  Scalars and arrays  ****
OctLoc.c.b A Datatyp(siz) R M Lvl/name                 OctLoc.c.b A Datatyp(siz) R M Lvl/name

     0-0-0/w SBIN        r     1 ERRCOL

  ****  Section 050 LblCom ERR_LA_GET

  ****  Scalars and arrays  ****
OctLoc.c.b A Datatyp(siz) R M Lvl/name                 OctLoc.c.b A Datatyp(siz) R M Lvl/name

     0-0-0/w SBIN        r     1 ERR_LA_GET

  ****  Section 051 LblCom ERR_LA_PUT

  ****  Scalars and arrays  ****
OctLoc.c.b A Datatyp(siz) R M Lvl/name                 OctLoc.c.b A Datatyp(siz) R M Lvl/name

     0-0-0/w SBIN        r     1 ERR_LA_PUT

  ****  Section 052 LblCom ERR_LA_CNT

PL6.E3A0      #001=RGRAM File=LR_NRGRAM.:Z8A6TSI                                 SAT 08/09/97 09:36 Page:119
  ****  Scalars and arrays  ****
OctLoc.c.b A Datatyp(siz) R M Lvl/name                 OctLoc.c.b A Datatyp(siz) R M Lvl/name

     0-0-0/w SBIN        r     1 ERR_LA_CNT

  ****  Section 053 LblCom ERR_RECOVERY_IN_PROGRESS

  ****  Scalars and arrays  ****
OctLoc.c.b A Datatyp(siz) R M Lvl/name                 OctLoc.c.b A Datatyp(siz) R M Lvl/name

     0-0-0/b BIT         r     1 ERR_RECOVERY_IN_PROGRESS

  ****  Section 054 LblCom PARSE_ERROR_COUNT

  ****  Scalars and arrays  ****
OctLoc.c.b A Datatyp(siz) R M Lvl/name                 OctLoc.c.b A Datatyp(siz) R M Lvl/name

     0-0-0/w SBIN        r     1 PARSE_ERROR_COUNT

  ****  Section 055 LblCom ALT_PARSE_STACK

  ****  Scalars and arrays  ****
OctLoc.c.b A Datatyp(siz) R M Lvl/name                 OctLoc.c.b A Datatyp(siz) R M Lvl/name

     0-0-0/w SBIN        r     1 ALT_PARSE_STACK(0:500)

  ****  Section 056 LblCom ALT_PARSE_STACK_IDX

  ****  Scalars and arrays  ****
OctLoc.c.b A Datatyp(siz) R M Lvl/name                 OctLoc.c.b A Datatyp(siz) R M Lvl/name

     0-0-0/w SBIN        r     1 ALT_PARSE_STACK_IDX

  ****  Section 057 LblCom RED_STACK

  ****  Scalars and arrays  ****
OctLoc.c.b A Datatyp(siz) R M Lvl/name                 OctLoc.c.b A Datatyp(siz) R M Lvl/name
PL6.E3A0      #001=RGRAM File=LR_NRGRAM.:Z8A6TSI                                 SAT 08/09/97 09:36 Page:120

     0-0-0/w SBIN        r     1 RED_STACK(0:500)

  ****  Section 058 LblCom RED_STACK_TOP

  ****  Scalars and arrays  ****
OctLoc.c.b A Datatyp(siz) R M Lvl/name                 OctLoc.c.b A Datatyp(siz) R M Lvl/name

     0-0-0/w SBIN        r     1 RED_STACK_TOP

  ****  Section 059 LblCom IED_FLAG

  ****  Scalars and arrays  ****
OctLoc.c.b A Datatyp(siz) R M Lvl/name                 OctLoc.c.b A Datatyp(siz) R M Lvl/name

     0-0-0/b BIT         r     1 IED_FLAG

  ****  Section 060 LblCom ALT_LX_TOP

  ****  Scalars and arrays  ****
OctLoc.c.b A Datatyp(siz) R M Lvl/name                 OctLoc.c.b A Datatyp(siz) R M Lvl/name

     0-0-0/w SBIN        r     1 ALT_LX_TOP

  ****  Section 061 LblCom CORRECTION

  ****  Scalars and arrays  ****
OctLoc.c.b A Datatyp(siz) R M Lvl/name                 OctLoc.c.b A Datatyp(siz) R M Lvl/name

     0-0-0/w STRC(1890)  r     1 CORRECTION

  ****  Section 063  Data  RGRAM

  ****  Scalars and arrays  ****
OctLoc.c.b A Datatyp(siz) R M Lvl/name                 OctLoc.c.b A Datatyp(siz) R M Lvl/name

     0-0-0/c CHAR(4)     r     1 CONT_STR
PL6.E3A0      #001=RGRAM File=LR_NRGRAM.:Z8A6TSI                                 SAT 08/09/97 09:36 Page:121

  ****  Auto variables  ****

  ****  Scalars and arrays  ****
OctLoc.c.b A Datatyp(siz) R M Lvl/name                 OctLoc.c.b A Datatyp(siz) R M Lvl/name

    16-0-0/w PTR         r     1 @COL_IN_ERROR            331-0-0/w PTR         r     1 @DI
   332-0-0/w PTR         r     1 @DI_CHAR_OVERFLOW       1765-0-0/w PTR         r     1 @ERROR_TYPE
  1765-0-0/w PTR         r     1 @ITM                      13-0-0/w PTR         r     1 @LA_PUT
    15-0-0/w PTR         r     1 @LINE_IN_ERROR           325-0-0/w PTR         r     1 @LRC
  1766-0-0/w PTR         r     1 @PLUG1$                 1767-0-0/w PTR         r     1 @PLUG2$
  1763-0-0/w PTR         r     1 @PREVSTATE               333-0-0/w PTR         r     1 @PT_LEN
   334-0-0/w PTR         r     1 @PT_PTR                 1764-0-0/w PTR         r     1 @SUCCSTATE
    14-0-0/w PTR         r     1 @SYM_TO_BE_INSERTED      221-0-0/w SBIN        r     1 ACCUM_COST
   175-0-0/w SBIN        r     1 ACCUM_DEL_COST           174-0-0/w SBIN        r     1 ACCUM_DEL_LEN
   176-0-0/w SBIN        r     1 ACCUM_INS_TO_SYM          10-0-0/w SBIN(18)    r     1 ACTION
   267-0-0/w STRC(936)   r     1 BEF                       *0-0-0/w SBIN        r     1 COL_IN_ERROR
  1751-0-0/w SBIN        r     1 CURRHIGHBASIS           1750-0-0/w SBIN        r     1 CURRLOWBASIS
   222-0-0/w PTR         r     1 CURRSTAGE$               202-0-0/w STRC(936)   r     1 DEL
   201-0-0/w SBIN        r     1 DEL_CHAR_OVERFLOW        321-0-0/w PTR         r     1 DEL_DNT$
    *0-0-0/w STRC(936)   r     1 DI                        *0-0-0/w SBIN        r     1 DI_CHAR_OVERFLOW
    *0-0-0/w SBIN        r     1 ERROR_TYPE               205-0-0/w UBIN        r     1 H
   211-0-0/w SBIN        r     1 HIGHBASIS                  3-0-0/w SBIN        r     1 I
  1770-0-0/w SBIN        r     1 I                        326-0-0/w SBIN        r     1 I
   325-0-0/w SBIN        r     1 I                        201-0-0/w SBIN        r     1 I
  1763-0-0/w SBIN        r     1 I                       1765-0-0/w SBIN        r     1 I
  1766-0-0/w SBIN        r     1 I                        204-0-0/w SBIN        r     1 I2
    11-0-0/w SBIN(18)    r     1 INDX                     235-0-0/w STRC(936)   r     1 INS
   323-0-0/w PTR         r     1 INS_BEF_DNT$             234-0-0/w SBIN        r     1 INS_CHAR_OVERFLOW
   322-0-0/w PTR         r     1 INS_DNT$                1752-0-0/w SBIN        r     1 ITM
    *0-0-0/w SBIN        r     1 ITM                      327-0-0/w SBIN        r     1 J
   202-0-0/w SBIN        r     1 J                        203-0-0/w SBIN        r     1 K
   206-0-0/w UBIN        r     1 L                        173-0-0/b BIT         r     1 LARGE_DELETION
    *0-0-0/w SBIN        r     1 LA_PUT                    13-0-0/w STRC(1998)  r     1 LC
   244-0-0/w SBIN        r     1 LCC_SPACE(0:832)
   217-0-0/w SBIN        r     1 LCP_ELEM_RET              *0-0-0/w SBIN        r     1 LINE_IN_ERROR
   210-0-0/w SBIN        r     1 LOWBASIS                 103-0-0/w STRC(1998)  r     1 LR
PL6.E3A0      #001=RGRAM File=LR_NRGRAM.:Z8A6TSI                                 SAT 08/09/97 09:36 Page:122
    *0-0-0/w STRC(1998)  r     1 LRC                      207-0-0/w UBIN        r     1 M
   213-0-0/w SBIN        r     1 MINCOST                  212-0-0/w SBIN        r     1 MINITEM
   215-0-0/w SBIN        r     1 MINLCPINDX               216-0-0/w SBIN        r     1 MINPATH
   214-0-0/w SBIN        r     1 MINPOS                    64-0-0/w PTR         r     1 NEW$
    20-0-0/w SBIN        r     1 NEWLEN                  1754-0-0/w SBIN        r     1 NEXTHIGHBASIS
  1755-0-0/w SBIN        r     1 NEXTITEM                1753-0-0/w SBIN        r     1 NEXTLOWBASIS
   223-0-0/w PTR         r     1 NEXTSTAGE$                 7-0-0/w SBIN(18)    r     1 NT
   201-0-0/w SBIN        r     1 OLA_GET                  202-0-0/w SBIN        r     1 OLINK
  1756-0-0/w SBIN        r     1 P
     5-0-0/w SBIN        r     1 PARSE_STACK_IDX_IN_CHARS
  1760-0-0/w SBIN        r     1 PATH_COST               1757-0-0/w SBIN        r     1 PE
  1761-0-0/w UBIN(18)    r     1 PELEM                     *0-0-0/w PTR         r     1 PLUG1$
    *0-0-0/w PTR         r     1 PLUG2$                  1746-0-0/b BIT         r     1 PRED_CLOSURE
  1745-0-0/w SBIN        r     1 PRED_ITEM                 *0-0-0/w SBIN        r     1 PREVSTATE
     6-0-0/w SBIN(18)          1 PSI                       *0-0-0/w SBIN        r     1 PT_LEN
    *0-0-0/w PTR         r     1 PT_PTR
   224-0-0/w PTR         r     1 STAGE1$(0:7)
   234-0-0/w PTR         r     1 STAGE2$(0:7)
    *0-0-0/w SBIN        r     1 SUCCSTATE                 17-0-0/w SBIN        r     1 SYMLEN
    *0-0-0/w SBIN        r     1 SYM_TO_BE_INSERTED        21-0-0/c CHAR(140)   r     1 TEXTCHAR
  1771-0-0/c CHAR(140)   r     1 TEXTCHAR1               2034-0-0/c CHAR(140)   r     1 TEXTCHAR2
  1766-0-0/w PTR         r     1 TPTR                     220-0-0/w SBIN        r     1 TRYCOST
  1747-0-0/b BIT         r     1 WORTHCONTINUING

  ****  SYMREF variables  ****

  ****  Scalars and arrays  ****
OctLoc.c.b A Datatyp(siz) R M Lvl/name                 OctLoc.c.b A Datatyp(siz) R M Lvl/name

     0-0-0/b STRC        r     1 ACTION_COL(0:95)
     0-0-0/b STRC        r     1 ACTION_ROW(0:160)
     0-0-0/b UBIN(17)    r     1 DEL_COST(0:21)
     0-0-0/b STRC        r     1 GOTO_COL(0:36)
     0-0-0/b STRC        r     1 GOTO_ROW(0:61)
     0-0-0/b STRC(23)    r     1 ITEM(0:345)                0-0-0/b STRC(35)    r     1 LCP(0:182)
     0-0-0/b UBIN(6)     r     1 LCP_ELEM(0:48)
     0-0-0/b UBIN(8)     r     1 LCP_UBOUND(0:21)
PL6.E3A0      #001=RGRAM File=LR_NRGRAM.:Z8A6TSI                                 SAT 08/09/97 09:36 Page:123
     0-0-0/b STRC(26)    r     1 LCS(0:57)
     0-0-0/b UBIN(5)     r     1 LCS_ELEM(0:32)
     0-0-0/b STRC(12)    r     1 PATH(0:146)
     0-0-0/b UBIN(6)     r     1 PATH_ELEM(0:118)
     0-0-0/b STRC(54)    r     1 PRODR(0:66)
     0-0-0/b STRC(18)    r     1 STATE_ITEM(0:95)
     0-0-0/b STRC(13)    r     1 TERM_STRING(0:21)
     0-0-0/b STRC(13)    r     1 TERM_STRING(0:21)
     0-0-0/c CHAR(280)   r     1 TSTRING_SPACE              0-0-0/c CHAR(280)   r     1 TSTRING_SPACE

  ****  BASED and DCB variables  ****

  ****  Scalars and arrays  ****
OctLoc.c.b A Datatyp(siz) R M Lvl/name                 OctLoc.c.b A Datatyp(siz) R M Lvl/name

     0-0-0/w PTR         r     1 CURRSTAGE(0:7)
     0-0-0/w ASTR        r     1 DNT                        0-0-0/h STRC(1854)  r     1 LCC
     0-0-0/w STRC(216)         1 LX_ITEM                    0-0-0N  NULL        r     1 M$LO
     0-0-0N  NULL        r     1 M$OU                       0-0-0N  NULL        r     1 M$SI
     0-0-0N  NULL        r     1 M$SO                       0-0-0N  NULL        r     1 M$UC
     0-0-0N  NULL        r     1 M$UI
     0-0-0/w PTR         r     1 NEXTSTAGE(0:7)
     0-0-0/c ACHR        r     1 PARSE_STACK_USED           0-0-0/c ACHR        r     1 PT_CHAR
     0-0-0/w STRC(351)         1 SYMBOL


   Procedure RGRAM requires 2845 words for executable code.
   Procedure RGRAM requires 1114 words of local(AUTO) storage.

