VERSION A06

PL6.E3A0      #001=OCNFG File=LR_OCNFG.:Z8A6TSI                                  SAT 08/09/97 09:36 Page:1
        1        1        /*M* OCNFG => ORDER CONFIGURATION SETS */
        2        2        /*T***********************************************************/
        3        3        /*T*                                                         */
        4        4        /*T* Copyright (c) Bull HN Information Systems Inc., 1997    */
        5        5        /*T*                                                         */
        6        6        /*T***********************************************************/
        7        7
        8        8
        9        9
       10       10
       11       11
       12       12
       13       13        OCNFG:  PROC;
       14       14
       15       15        /*D*
       16       16               NAME: OCNFG
       17       17            PURPOSE: ORDER THE CONFIGURATION SETS IN PREPARATION
       18       18                     FOR PRODUCING TABLES.
       19       19        */
       20       20
       21       21
       22       22        %INCLUDE LR_GRAM_EXT;
       23      561        %INCLUDE LR_CNFG_EXT;
       24      714        /* If TABLES are going to be written, then the configuration
       25      715           sets must be re-ordered to compatify the resulting tables.
       26      716
       27      717           Any particular configuration set will fall into 1 of 4
       28      718           catagories:
       29      719
       30      720           0) Special configuration that is the final state. always mapped to 0
       31      721           1) Only binary search table entries are required.
       32      722           2) Both binary search and bit table search entries required.
       33      723           3) Only bit table search entries required.
       34      724        */
       35      725
       36      726    1   DCL CONFIG_MAP(0:%NR_CONFIG_MAX) SBIN;
       37      727
PL6.E3A0      #001=OCNFG File=LR_OCNFG.:Z8A6TSI                                  SAT 08/09/97 09:36 Page:2
       38      728        %EJECT;
PL6.E3A0      #001=OCNFG File=LR_OCNFG.:Z8A6TSI                                  SAT 08/09/97 09:36 Page:3
       39      729    1   MAKE_MAP:PROC;
       40      730
       41      731    2   DCL 1 SPLIT(0:%NR_CONFIG_MAX),
       42      732    2         2 BITSRCH SBIN HALF UNAL,
       43      733    2         2 BOTH SBIN HALF UNAL;
       44      734
       45      735    2   DCL I                SBIN;
       46      736    2   DCL NR_BOTH          SBIN;
       47      737    2   DCL NR_BITSRCH       SBIN;
       48      738    2   DCL NR_BINSRCH       SBIN;
       49      739    2   DCL C$               PTR;
       50      740    2   DCL KEY0$            PTR;
       51      741    2   DCL KEYN$            PTR;
       52      742    2   DCL I#               SBIN;
       53      743    2   DCL KEYI$            PTR;
       54      744    2   DCL REDUCT_COUNT     SBIN;
       55      745    2   DCL NR_MARGINAL      SBIN;
       56      746    2   DCL NR_BIT_MUST      SBIN;
       57      747    2   DCL MORE_REDUCTIONS  BOOLEAN;
       58      748
       59      749
       60      750    2           NR_BOTH=0;
       61      751    2           NR_BINSRCH=2;
       62      752    2           NR_BITSRCH=0;
       63      753
       64      754    3           DO I#=0 TO NR_CONFIG-1;
       65      755
       66      756    3              C$=C#_TO_$(I#);
       67      757
       68      758        /* Examine all reductions */
       69      759
       70      760    3              REDUCT_COUNT=0;
       71      761
       72      762    3              MORE_REDUCTIONS=TRUE;
       73      763
       74      764    4              DO WHILE(MORE_REDUCTIONS);
       75      765
PL6.E3A0      #001=OCNFG File=LR_OCNFG.:Z8A6TSI                                  SAT 08/09/97 09:36 Page:4
       76      766    4                 IF REDUCT_COUNT>=C$->C_SET_B.NR_ELEM THEN
       77      767    4                    MORE_REDUCTIONS=FALSE;
       78      768    4                 ELSE
       79      769    5                 DO;
       80      770    5                    KEYI$=C$->C_SET_B.ELEM.KEY$(REDUCT_COUNT);
       81      771    5                    IF KEYI$->KEY_B.W.SYM_AFTER~=0 THEN
       82      772    5                       MORE_REDUCTIONS=FALSE;
       83      773    5                    ELSE
       84      774    6                    DO;     /* found another reduction     */
       85      775    6                       REDUCT_COUNT=REDUCT_COUNT+1;
       86      776
       87      777    6                       KEYI$->KEY_B.FOLLOW$->INCL_B.KEY_TYPE=KEY_TYPE_BIT;
       88      778    6                       KEYI$->KEY_B.FOLLOW$->INCL_B.BIT_COUNT=0;
       89      779
       90      780    6                       END;
       91      781    5                    END;
       92      782    4                 END;
       93      783    3              C$ -> C_SET_B.REDUCE_COUNT = REDUCT_COUNT;
       94      784    3              KEY0$=C$->C_SET_B.ELEM.KEY$(0);
       95      785    3              KEYN$=C$->C_SET_B.ELEM.KEY$(C$->C_SET_B.NR_ELEM-1);
       96      786
       97      787    3              IF C$ -> C_SET_B.KEY$ -> KEY_B.W.SYM_AFTER = BOF_SYMBOL_PTR->SYMBOL.
               787                       SYM_INDX THEN
       98      788    4                DO;
       99      789    4                  CONFIG_MAP(1) = I#;
      100      790    4                  C$ -> C_SET_B.KEY$ -> KEY_B.W.KEY_TYPE = KEY_TYPE_BIN;
      101      791    4                END;
      102      792    3              ELSE
      103      793    3              IF KEY0$->KEY_B.W.SYM_AFTER=0 AND
      104      794    3                KEYN$->KEY_B.W.SYM_AFTER~=0 THEN
      105      795    4   ON_BINSRCH_REDUC:DO;  /* Reductions and shifts in set */
      106      796    4                 SPLIT.BOTH(NR_BOTH)=I#;
      107      797    4                 NR_BOTH=NR_BOTH+1;
      108      798    4                 C$->C_SET_B.KEY$->KEY_B.W.KEY_TYPE=KEY_TYPE_BOTH;
      109      799    4                 END ON_BINSRCH_REDUC;
      110      800    3              ELSE
      111      801    3                 IF KEY0$->KEY_B.W.SYM_AFTER~=0 THEN
PL6.E3A0      #001=OCNFG File=LR_OCNFG.:Z8A6TSI                                  SAT 08/09/97 09:36 Page:5
      112      802    4   ON_BINSRCH_ONLY_LIST:DO;   /* Only shifts in set */
      113      803    4                    CONFIG_MAP(NR_BINSRCH)=I#;
      114      804    4                    NR_BINSRCH=NR_BINSRCH+1;
      115      805    4                    C$->C_SET_B.KEY$->KEY_B.W.KEY_TYPE=KEY_TYPE_BIN;
      116      806    4                    END ON_BINSRCH_ONLY_LIST;
      117      807    3                 ELSE
      118      808    3                    IF KEY0$->KEY_B.ELEM.PROD(0)~=0 THEN
      119      809    4   ON_BITSRCH_ONLY_LIST:DO;    /* Only reductions in set */
      120      810    4                       SPLIT.BITSRCH(NR_BITSRCH)=I#;
      121      811    4                       NR_BITSRCH=NR_BITSRCH+1;
      122      812    4                       C$->C_SET_B.KEY$->KEY_B.W.KEY_TYPE=KEY_TYPE_BIT;
      123      813    4                       END ON_BITSRCH_ONLY_LIST;
      124      814    3                    ELSE
      125      815    4                    DO; /* THIS IS THE FINAL PRODUCTION    */
      126      816    4                       CONFIG_MAP(0)=I#;
      127      817    4                       END;
      128      818
      129      819    3              END;
      130      820
      131      821    2           LAST_BINSRCH_ONLY=NR_BINSRCH-1;
      132      822
      133      823    3           DO I=0 TO NR_BOTH-1;
      134      824    3              CONFIG_MAP(I+LAST_BINSRCH_ONLY+1)=SPLIT.BOTH(I);
      135      825    3              END;
      136      826
      137      827    2           LAST_BOTH_BITBIN=LAST_BINSRCH_ONLY+NR_BOTH;
      138      828
      139      829    3           DO I=0 TO NR_BITSRCH-1;
      140      830    3              CONFIG_MAP(LAST_BOTH_BITBIN+I+1)=SPLIT.BITSRCH(I);
      141      831    3              END;
      142      832
      143      833    2   END MAKE_MAP;
      144      834
      145      835        %EJECT;
PL6.E3A0      #001=OCNFG File=LR_OCNFG.:Z8A6TSI                                  SAT 08/09/97 09:36 Page:6
      146      836    1   DO_MAPPING:PROC;
      147      837
      148      838    2   DCL NEW_C#_TO_$(0:%NR_CONFIG_MAX) PTR;
      149      839    2   DCL I SBIN;
      150      840    2   DCL J SBIN;
      151      841
      152      842    3           DO I=0 TO NR_CONFIG-1;
      153      843
      154      844    3              NEW_C#_TO_$(I)=C#_TO_$(CONFIG_MAP(I));
      155      845
      156      846    3              END;
      157      847
      158      848    3           DO I=0 TO NR_CONFIG-1;
      159      849
      160      850    3              NEW_C#_TO_$(I)->C_SET_B.C_SET#=I;
      161      851    3              C#_TO_$(I)=NEW_C#_TO_$(I);
      162      852
      163      853    3              END;
      164      854
      165      855    2   END DO_MAPPING;
      166      856        %EJECT;
PL6.E3A0      #001=OCNFG File=LR_OCNFG.:Z8A6TSI                                  SAT 08/09/97 09:36 Page:7
      167      857                   /* Main body of OCNFG */
      168      858
      169      859
      170      860    1           CALL MAKE_MAP;
      171      861    1           CALL DO_MAPPING;
      172      862    1           INIT_CONFIG=CONFIG_MAP(0);
      173      863
      174      864    1   END OCNFG;
      175      865        %EOD;

PL6.E3A0      #001=OCNFG File=LR_OCNFG.:Z8A6TSI                                  SAT 08/09/97 09:36 Page:8
--  Include file information  --

   LR_CNFG_EXT.:Z8A6TOU  cannot be made into a system file and is referenced.
   LR_IO_EXT.:Z8A6TOU  cannot be made into a system file and is referenced.
   LR_GRAM_EXT.:Z8A6TOU  cannot be made into a system file and is referenced.
      No diagnostics issued in procedure OCNFG.

   Procedure OCNFG requires 168 words for executable code.
   Procedure OCNFG requires 4422 words of local(AUTO) storage.

PL6.E3A0      #001=OCNFG File=LR_OCNFG.:Z8A6TSI                                  SAT 08/09/97 09:36 Page:9

 Object Unit name= OCNFG                                      File name= LR_OCNFG.:Z8A6TOU
 UTS= AUG 09 '97 09:36:15.36 SAT                              Compiler= PL-6/E31         Sev=      00
 SharedLib= :SHARED_SYSTEM                                    Alt SharedLib=


    ****  Control sections  ****

 Sect   Type Bound  Init  Size OctSiz  Section name(segment info)
    0  LblCom even  none     1      1  OUT_DCBN
    1   DCB   even  none     0      0  M$OU
    2   DCB   even  none     0      0  M$SO
    3   DCB   even  none     0      0  M$LO
    4   DCB   even  none     0      0  M$SI
    5   DCB   even  none     0      0  M$UI
    6  LblCom even  none  1401   2571  SYM_PTRS
    7  LblCom even  none  4001   7641  RIGHT_PARTS
    8  LblCom even  none  3002   5672  PROD
    9  LblCom even  none     1      1  NR_PROD
   10  LblCom even  none     1      1  NR_SYMS
   11  LblCom even  none     1      1  NR_TERM
   12  LblCom even  none     1      1  LAST_ACT
   13  LblCom even  none     1      1  LAST_NULL
   14  LblCom even  none     1      1  NR_ONRIGHT
   15  LblCom even  none     1      1  NR_NT
   16  LblCom even  none     1      1  PROD_LEN_MAX_EVER
   17  LblCom even  none     1      1  LAST_ORDER_SPECIFIED
   18  LblCom even  none     1      1  SEMANTIC_ORDERING
   19  LblCom even  none     1      1  ERR_SEV
   20  LblCom even  none     1      1  SET_LENGTHB
   21  LblCom even  none     1      1  SET_LENGTHW
   22  LblCom even  none     1      1  EOF_SYMBOL_PTR
   23  LblCom even  none     1      1  ERROR_SYMBOL_PTR
   24  LblCom even  none     1      1  BOF_SYMBOL_PTR
   25  LblCom even  none     1      1  OPTIONS
   26  LblCom even  none    26     32  OPTIONS_TEXT
   27  LblCom even  none   128    200  INSTR
   28  LblCom even  none     1      1  INSTR_LISTED
PL6.E3A0      #001=OCNFG File=LR_OCNFG.:Z8A6TSI                                  SAT 08/09/97 09:36 Page:10
   29  LblCom even  none     1      1  INSTR_LEN
   30  LblCom even  none     1      1  INSTR_INDX
   31  LblCom even  none     1      1  EOF_FLAG
   32  LblCom even  none     3      3  KEY_REC
   33  LblCom even  none    28     34  LINE
   34  LblCom even  none     1      1  LINELEN
   35  LblCom even  none   205    315  TSTATS
   36  LblCom even  none  2201   4231  C#_TO_$
   37  LblCom even  none     1      1  NR_CONFIG
   38  LblCom even  none     1      1  INIT_CONFIG
   39  LblCom even  none     1      1  MAX_BASIS_ITEMS
   40  LblCom even  none     1      1  MAX_TOTAL_ITEMS
   41  LblCom even  none     1      1  LAST_BINSRCH_ONLY
   42  LblCom even  none     1      1  LAST_BOTH_BITBIN
   43   Proc  even  none   168    250  OCNFG
   44  RoData even  none     1      1  OCNFG

    ****  Entry defs  ****

                              Check   Calling
                             calling  sequence
  Sect OctLoc Primary Altret sequence   type   Parms  Name
    43      0   yes            yes      Std        0  OCNFG

  ****  Entry refs  ****

         Check        Calling
        calling       sequence
Altret sequence SRef   type   Args  Name
                       nStd      0 X66_AUTO_0
                       nStd      0 X66_ARET
PL6.E3A0      #001=OCNFG File=LR_OCNFG.:Z8A6TSI                                  SAT 08/09/97 09:36 Page:11

  ****  Data refs  ****

  Flags:  r = read only, s = secondary
Flgs Name                             Flgs Name                             Flgs Name
     M$OU                                  M$SO                                  M$LO
     M$SI                                  M$UI

  ****  Segment refs  ****

  Flags:  r = read only, s = secondary
Flgs Name                             Flgs Name                             Flgs Name
     NULLSID
PL6.E3A0      #001=OCNFG File=LR_OCNFG.:Z8A6TSI                                  SAT 08/09/97 09:36 Page:12


        1        1        /*M* OCNFG => ORDER CONFIGURATION SETS */
        2        2        /*T***********************************************************/
        3        3        /*T*                                                         */
        4        4        /*T* Copyright (c) Bull HN Information Systems Inc., 1997    */
        5        5        /*T*                                                         */
        6        6        /*T***********************************************************/
        7        7
        8        8
        9        9
       10       10
       11       11
       12       12
       13       13        OCNFG:  PROC;

     13 43 000000   000000 700200 xent  OCNFG        TSX0  ! X66_AUTO_0
        43 000001   010506 000000                    ZERO    4422,0
        43 000002   000241 710000 43                 TRA     s:860

       14       14
       15       15        /*D*
       16       16               NAME: OCNFG
       17       17            PURPOSE: ORDER THE CONFIGURATION SETS IN PREPARATION
       18       18                     FOR PRODUCING TABLES.
       19       19        */
       20       20
       21       21
       22       22        %INCLUDE LR_GRAM_EXT;
       23      561        %INCLUDE LR_CNFG_EXT;
       24      714        /* If TABLES are going to be written, then the configuration
       25      715           sets must be re-ordered to compatify the resulting tables.
       26      716
       27      717           Any particular configuration set will fall into 1 of 4
       28      718           catagories:
       29      719
       30      720           0) Special configuration that is the final state. always mapped to 0
       31      721           1) Only binary search table entries are required.
PL6.E3A0      #001=OCNFG File=LR_OCNFG.:Z8A6TSI                                  SAT 08/09/97 09:36 Page:13
       32      722           2) Both binary search and bit table search entries required.
       33      723           3) Only bit table search entries required.
       34      724        */
       35      725
       36      726    1   DCL CONFIG_MAP(0:%NR_CONFIG_MAX) SBIN;
       37      727
       38      728        %EJECT;
PL6.E3A0      #001=OCNFG File=LR_OCNFG.:Z8A6TSI                                  SAT 08/09/97 09:36 Page:14
       39      729    1   MAKE_MAP:PROC;

    729 43 000003   204234 741300       MAKE_MAP     STX1  ! CONFIG_MAP+2201,,AUTO

       40      730
       41      731    2   DCL 1 SPLIT(0:%NR_CONFIG_MAX),
       42      732    2         2 BITSRCH SBIN HALF UNAL,
       43      733    2         2 BOTH SBIN HALF UNAL;
       44      734
       45      735    2   DCL I                SBIN;
       46      736    2   DCL NR_BOTH          SBIN;
       47      737    2   DCL NR_BITSRCH       SBIN;
       48      738    2   DCL NR_BINSRCH       SBIN;
       49      739    2   DCL C$               PTR;
       50      740    2   DCL KEY0$            PTR;
       51      741    2   DCL KEYN$            PTR;
       52      742    2   DCL I#               SBIN;
       53      743    2   DCL KEYI$            PTR;
       54      744    2   DCL REDUCT_COUNT     SBIN;
       55      745    2   DCL NR_MARGINAL      SBIN;
       56      746    2   DCL NR_BIT_MUST      SBIN;
       57      747    2   DCL MORE_REDUCTIONS  BOOLEAN;
       58      748
       59      749
       60      750    2           NR_BOTH=0;

    750 43 000004   210467 450100                    STZ     NR_BOTH,,AUTO

       61      751    2           NR_BINSRCH=2;

    751 43 000005   000002 235007                    LDA     2,DL
        43 000006   210471 755100                    STA     NR_BINSRCH,,AUTO

       62      752    2           NR_BITSRCH=0;

    752 43 000007   210470 450100                    STZ     NR_BITSRCH,,AUTO

PL6.E3A0      #001=OCNFG File=LR_OCNFG.:Z8A6TSI                                  SAT 08/09/97 09:36 Page:15
       63      753
       64      754    3           DO I#=0 TO NR_CONFIG-1;

    754 43 000010   210475 450100                    STZ     I#,,AUTO
        43 000011   000141 710000 43                 TRA     s:819+1

       65      755
       66      756    3              C$=C#_TO_$(I#);

    756 43 000012   210475 720100                    LXL0    I#,,AUTO
        43 000013   000000 236010 36                 LDQ     C#_TO_$,X0
        43 000014   210472 756100                    STQ     C$,,AUTO

       67      757
       68      758        /* Examine all reductions */
       69      759
       70      760    3              REDUCT_COUNT=0;

    760 43 000015   210477 450100                    STZ     REDUCT_COUNT,,AUTO

       71      761
       72      762    3              MORE_REDUCTIONS=TRUE;

    762 43 000016   400000 236003                    LDQ     -131072,DU
        43 000017   210502 756100                    STQ     MORE_REDUCTIONS,,AUTO

       73      763
       74      764    4              DO WHILE(MORE_REDUCTIONS);

    764 43 000020   210502 234100                    SZN     MORE_REDUCTIONS,,AUTO
        43 000021   000053 605000 43                 TPL     s:783

       75      765
       76      766    4                 IF REDUCT_COUNT>=C$->C_SET_B.NR_ELEM THEN

    766 43 000022   210472 470500                    LDP0    C$,,AUTO
        43 000023   000001 236100                    LDQ     1,,PR0
PL6.E3A0      #001=OCNFG File=LR_OCNFG.:Z8A6TSI                                  SAT 08/09/97 09:36 Page:16
        43 000024   777777 376007                    ANQ     -1,DL
        43 000025   210477 116100                    CMPQ    REDUCT_COUNT,,AUTO
        43 000026   000031 605400 43                 TPNZ    s:770

       77      767    4                    MORE_REDUCTIONS=FALSE;

    767 43 000027   210502 450100                    STZ     MORE_REDUCTIONS,,AUTO
        43 000030   000051 710000 43                 TRA     s:782

       78      768    4                 ELSE
       79      769    5                 DO;

       80      770    5                    KEYI$=C$->C_SET_B.ELEM.KEY$(REDUCT_COUNT);

    770 43 000031   210477 235100                    LDA     REDUCT_COUNT,,AUTO
        43 000032   000002 735000                    ALS     2
        43 000033   000004 236105                    LDQ     4,AL,PR0
        43 000034   210476 756100                    STQ     KEYI$,,AUTO

       81      771    5                    IF KEYI$->KEY_B.W.SYM_AFTER~=0 THEN

    771 43 000035   210476 471500                    LDP1    KEYI$,,AUTO
        43 000036   100004 235100                    LDA     4,,PR1
        43 000037   000042 600000 43                 TZE     s:775

       82      772    5                       MORE_REDUCTIONS=FALSE;

    772 43 000040   210502 450100                    STZ     MORE_REDUCTIONS,,AUTO
        43 000041   000051 710000 43                 TRA     s:782

       83      773    5                    ELSE
       84      774    6                    DO;     /* found another reduction     */

       85      775    6                       REDUCT_COUNT=REDUCT_COUNT+1;

    775 43 000042   210477 054100                    AOS     REDUCT_COUNT,,AUTO

PL6.E3A0      #001=OCNFG File=LR_OCNFG.:Z8A6TSI                                  SAT 08/09/97 09:36 Page:17
       86      776
       87      777    6                       KEYI$->KEY_B.FOLLOW$->INCL_B.KEY_TYPE=KEY_TYPE_BIT;

    777 43 000043   100003 473500                    LDP3    3,,PR1
        43 000044   000002 236003                    LDQ     2,DU
        43 000045   300002 552120                    STBQ    2,'20'O,PR3

       88      778    6                       KEYI$->KEY_B.FOLLOW$->INCL_B.BIT_COUNT=0;

    778 43 000046   100003 473500                    LDP3    3,,PR1
        43 000047   000000 220003                    LDX0    0,DU
        43 000050   300002 440100                    SXL0    2,,PR3

       89      779
       90      780    6                       END;

       91      781    5                    END;

       92      782    4                 END;

    782 43 000051   210502 234100                    SZN     MORE_REDUCTIONS,,AUTO
        43 000052   000022 604000 43                 TMI     s:766

       93      783    3              C$ -> C_SET_B.REDUCE_COUNT = REDUCT_COUNT;

    783 43 000053   210477 720100                    LXL0    REDUCT_COUNT,,AUTO
        43 000054   210472 470500                    LDP0    C$,,AUTO
        43 000055   000002 740100                    STX0    2,,PR0

       94      784    3              KEY0$=C$->C_SET_B.ELEM.KEY$(0);

    784 43 000056   000004 236100                    LDQ     4,,PR0
        43 000057   210473 756100                    STQ     KEY0$,,AUTO

       95      785    3              KEYN$=C$->C_SET_B.ELEM.KEY$(C$->C_SET_B.NR_ELEM-1);

    785 43 000060   000001 236100                    LDQ     1,,PR0
PL6.E3A0      #001=OCNFG File=LR_OCNFG.:Z8A6TSI                                  SAT 08/09/97 09:36 Page:18
        43 000061   000002 736000                    QLS     2
        43 000062   000000 376000 44                 ANQ     0
        43 000063   000000 236106                    LDQ     0,QL,PR0
        43 000064   210474 756100                    STQ     KEYN$,,AUTO

       96      786
       97      787    3              IF C$ -> C_SET_B.KEY$ -> KEY_B.W.SYM_AFTER = BOF_SYMBOL_PTR->SYMBOL.
               787                       SYM_INDX THEN

    787 43 000065   000000 471500                    LDP1    0,,PR0
        43 000066   000000 473400 24                 LDP3    BOF_SYMBOL_PTR
        43 000067   100004 236100                    LDQ     4,,PR1
        43 000070   300001 116100                    CMPQ    1,,PR3
        43 000071   000077 601000 43                 TNZ     s:793

       98      788    4                DO;

       99      789    4                  CONFIG_MAP(1) = I#;

    789 43 000072   210475 235100                    LDA     I#,,AUTO
        43 000073   200004 755100                    STA     CONFIG_MAP+1,,AUTO

      100      790    4                  C$ -> C_SET_B.KEY$ -> KEY_B.W.KEY_TYPE = KEY_TYPE_BIN;

    790 43 000074   000000 236003                    LDQ     0,DU
        43 000075   100005 552120                    STBQ    5,'20'O,PR1

      101      791    4                END;

    791 43 000076   000140 710000 43                 TRA     s:819

      102      792    3              ELSE
      103      793    3              IF KEY0$->KEY_B.W.SYM_AFTER=0 AND

    793 43 000077   210473 474500                    LDP4    KEY0$,,AUTO
        43 000100   400004 235100                    LDA     4,,PR4
        43 000101   000114 601000 43                 TNZ     s:801
PL6.E3A0      #001=OCNFG File=LR_OCNFG.:Z8A6TSI                                  SAT 08/09/97 09:36 Page:19
        43 000102   210474 475500                    LDP5    KEYN$,,AUTO
        43 000103   500004 235100                    LDA     4,,PR5
        43 000104   000114 600000 43                 TZE     s:801

      104      794    3                KEYN$->KEY_B.W.SYM_AFTER~=0 THEN
      105      795    4   ON_BINSRCH_REDUC:DO;  /* Reductions and shifts in set */

    795 43 000105                       ON_BINSRCH_* null
      106      796    4                 SPLIT.BOTH(NR_BOTH)=I#;

    796 43 000105   210475 721100                    LXL1    I#,,AUTO
        43 000106   210467 722100                    LXL2    NR_BOTH,,AUTO
        43 000107   204235 441112                    SXL1    SPLIT,X2,AUTO

      107      797    4                 NR_BOTH=NR_BOTH+1;

    797 43 000110   210467 054100                    AOS     NR_BOTH,,AUTO

      108      798    4                 C$->C_SET_B.KEY$->KEY_B.W.KEY_TYPE=KEY_TYPE_BOTH;

    798 43 000111   000001 236003                    LDQ     1,DU
        43 000112   100005 552120                    STBQ    5,'20'O,PR1

      109      799    4                 END ON_BINSRCH_REDUC;

    799 43 000113   000140 710000 43                 TRA     s:819

      110      800    3              ELSE
      111      801    3                 IF KEY0$->KEY_B.W.SYM_AFTER~=0 THEN

    801 43 000114   400004 235100                    LDA     4,,PR4
        43 000115   000125 600000 43                 TZE     s:808

      112      802    4   ON_BINSRCH_ONLY_LIST:DO;   /* Only shifts in set */

    802 43 000116                       ON_BINSRCH_* null
      113      803    4                    CONFIG_MAP(NR_BINSRCH)=I#;
PL6.E3A0      #001=OCNFG File=LR_OCNFG.:Z8A6TSI                                  SAT 08/09/97 09:36 Page:20

    803 43 000116   210471 721100                    LXL1    NR_BINSRCH,,AUTO
        43 000117   210475 235100                    LDA     I#,,AUTO
        43 000120   200003 755111                    STA     CONFIG_MAP,X1,AUTO

      114      804    4                    NR_BINSRCH=NR_BINSRCH+1;

    804 43 000121   210471 054100                    AOS     NR_BINSRCH,,AUTO

      115      805    4                    C$->C_SET_B.KEY$->KEY_B.W.KEY_TYPE=KEY_TYPE_BIN;

    805 43 000122   000000 236003                    LDQ     0,DU
        43 000123   100005 552120                    STBQ    5,'20'O,PR1

      116      806    4                    END ON_BINSRCH_ONLY_LIST;

    806 43 000124   000140 710000 43                 TRA     s:819

      117      807    3                 ELSE
      118      808    3                    IF KEY0$->KEY_B.ELEM.PROD(0)~=0 THEN

    808 43 000125   400006 221100                    LDX1    6,,PR4
        43 000126   000136 600000 43                 TZE     s:816

      119      809    4   ON_BITSRCH_ONLY_LIST:DO;    /* Only reductions in set */

    809 43 000127                       ON_BITSRCH_* null
      120      810    4                       SPLIT.BITSRCH(NR_BITSRCH)=I#;

    810 43 000127   210475 722100                    LXL2    I#,,AUTO
        43 000130   210470 723100                    LXL3    NR_BITSRCH,,AUTO
        43 000131   204235 742113                    STX2    SPLIT,X3,AUTO

      121      811    4                       NR_BITSRCH=NR_BITSRCH+1;

    811 43 000132   210470 054100                    AOS     NR_BITSRCH,,AUTO

PL6.E3A0      #001=OCNFG File=LR_OCNFG.:Z8A6TSI                                  SAT 08/09/97 09:36 Page:21
      122      812    4                       C$->C_SET_B.KEY$->KEY_B.W.KEY_TYPE=KEY_TYPE_BIT;

    812 43 000133   000002 236003                    LDQ     2,DU
        43 000134   100005 552120                    STBQ    5,'20'O,PR1

      123      813    4                       END ON_BITSRCH_ONLY_LIST;

    813 43 000135   000140 710000 43                 TRA     s:819

      124      814    3                    ELSE
      125      815    4                    DO; /* THIS IS THE FINAL PRODUCTION    */

      126      816    4                       CONFIG_MAP(0)=I#;

    816 43 000136   210475 235100                    LDA     I#,,AUTO
        43 000137   200003 755100                    STA     CONFIG_MAP,,AUTO

      127      817    4                       END;

      128      818
      129      819    3              END;

    819 43 000140   210475 054100                    AOS     I#,,AUTO
        43 000141   210475 236100                    LDQ     I#,,AUTO
        43 000142   000000 116000 37                 CMPQ    NR_CONFIG
        43 000143   000012 604000 43                 TMI     s:756

      130      820
      131      821    2           LAST_BINSRCH_ONLY=NR_BINSRCH-1;

    821 43 000144   210471 235100                    LDA     NR_BINSRCH,,AUTO
        43 000145   000001 135007                    SBLA    1,DL
        43 000146   000000 755000 41                 STA     LAST_BINSRCH_ONLY

      132      822
      133      823    3           DO I=0 TO NR_BOTH-1;

PL6.E3A0      #001=OCNFG File=LR_OCNFG.:Z8A6TSI                                  SAT 08/09/97 09:36 Page:22
    823 43 000147   210466 450100                    STZ     I,,AUTO
        43 000150   000163 710000 43                 TRA     s:825+1

      134      824    3              CONFIG_MAP(I+LAST_BINSRCH_ONLY+1)=SPLIT.BOTH(I);

    824 43 000151   210466 236100                    LDQ     I,,AUTO
        43 000152   000000 036000 41                 ADLQ    LAST_BINSRCH_ONLY
        43 000153   210466 720100                    LXL0    I,,AUTO
        43 000154   210504 756100                    STQ     MORE_REDUCTIONS+2,,AUTO
        43 000155   204235 236110                    LDQ     SPLIT,X0,AUTO
        43 000156   000022 736000                    QLS     18
        43 000157   000022 732000                    QRS     18
        43 000160   210504 721100                    LXL1    MORE_REDUCTIONS+2,,AUTO
        43 000161   200004 756111                    STQ     CONFIG_MAP+1,X1,AUTO

      135      825    3              END;

    825 43 000162   210466 054100                    AOS     I,,AUTO
        43 000163   210466 236100                    LDQ     I,,AUTO
        43 000164   210467 116100                    CMPQ    NR_BOTH,,AUTO
        43 000165   000151 604000 43                 TMI     s:824

      136      826
      137      827    2           LAST_BOTH_BITBIN=LAST_BINSRCH_ONLY+NR_BOTH;

    827 43 000166   000000 236000 41                 LDQ     LAST_BINSRCH_ONLY
        43 000167   210467 036100                    ADLQ    NR_BOTH,,AUTO
        43 000170   000000 756000 42                 STQ     LAST_BOTH_BITBIN

      138      828
      139      829    3           DO I=0 TO NR_BITSRCH-1;

    829 43 000171   210466 450100                    STZ     I,,AUTO
        43 000172   000204 710000 43                 TRA     s:831+1

      140      830    3              CONFIG_MAP(LAST_BOTH_BITBIN+I+1)=SPLIT.BITSRCH(I);

PL6.E3A0      #001=OCNFG File=LR_OCNFG.:Z8A6TSI                                  SAT 08/09/97 09:36 Page:23
    830 43 000173   000000 236000 42                 LDQ     LAST_BOTH_BITBIN
        43 000174   210466 036100                    ADLQ    I,,AUTO
        43 000175   210466 720100                    LXL0    I,,AUTO
        43 000176   210504 756100                    STQ     MORE_REDUCTIONS+2,,AUTO
        43 000177   204235 236110                    LDQ     SPLIT,X0,AUTO
        43 000200   000022 732000                    QRS     18
        43 000201   210504 721100                    LXL1    MORE_REDUCTIONS+2,,AUTO
        43 000202   200004 756111                    STQ     CONFIG_MAP+1,X1,AUTO

      141      831    3              END;

    831 43 000203   210466 054100                    AOS     I,,AUTO
        43 000204   210466 236100                    LDQ     I,,AUTO
        43 000205   210470 116100                    CMPQ    NR_BITSRCH,,AUTO
        43 000206   000173 604000 43                 TMI     s:830

      142      832
      143      833    2   END MAKE_MAP;

    833 43 000207   204234 221300                    LDX1  ! CONFIG_MAP+2201,,AUTO
        43 000210   000001 702211                    TSX2  ! 1,X1

      144      834
      145      835        %EJECT;
PL6.E3A0      #001=OCNFG File=LR_OCNFG.:Z8A6TSI                                  SAT 08/09/97 09:36 Page:24
      146      836    1   DO_MAPPING:PROC;

    836 43 000211   204234 741300       DO_MAPPING   STX1  ! CONFIG_MAP+2201,,AUTO

      147      837
      148      838    2   DCL NEW_C#_TO_$(0:%NR_CONFIG_MAX) PTR;
      149      839    2   DCL I SBIN;
      150      840    2   DCL J SBIN;
      151      841
      152      842    3           DO I=0 TO NR_CONFIG-1;

    842 43 000212   210466 450100                    STZ     I,,AUTO
        43 000213   000221 710000 43                 TRA     s:846+1

      153      843
      154      844    3              NEW_C#_TO_$(I)=C#_TO_$(CONFIG_MAP(I));

    844 43 000214   210466 720100                    LXL0    I,,AUTO
        43 000215   200003 721110                    LXL1    CONFIG_MAP,X0,AUTO
        43 000216   000000 236011 36                 LDQ     C#_TO_$,X1
        43 000217   204235 756110                    STQ     NEW_C#_TO_$,X0,AUTO

      155      845
      156      846    3              END;

    846 43 000220   210466 054100                    AOS     I,,AUTO
        43 000221   210466 236100                    LDQ     I,,AUTO
        43 000222   000000 116000 37                 CMPQ    NR_CONFIG
        43 000223   000214 604000 43                 TMI     s:844

      157      847
      158      848    3           DO I=0 TO NR_CONFIG-1;

    848 43 000224   210466 450100                    STZ     I,,AUTO
        43 000225   000234 710000 43                 TRA     s:853+1

      159      849
PL6.E3A0      #001=OCNFG File=LR_OCNFG.:Z8A6TSI                                  SAT 08/09/97 09:36 Page:25
      160      850    3              NEW_C#_TO_$(I)->C_SET_B.C_SET#=I;

    850 43 000226   210466 720100                    LXL0    I,,AUTO
        43 000227   204235 470510                    LDP0    NEW_C#_TO_$,X0,AUTO
        43 000230   000001 740100                    STX0    1,,PR0

      161      851    3              C#_TO_$(I)=NEW_C#_TO_$(I);

    851 43 000231   204235 236110                    LDQ     NEW_C#_TO_$,X0,AUTO
        43 000232   000000 756010 36                 STQ     C#_TO_$,X0

      162      852
      163      853    3              END;

    853 43 000233   210466 054100                    AOS     I,,AUTO
        43 000234   210466 236100                    LDQ     I,,AUTO
        43 000235   000000 116000 37                 CMPQ    NR_CONFIG
        43 000236   000226 604000 43                 TMI     s:850

      164      854
      165      855    2   END DO_MAPPING;

    855 43 000237   204234 221300                    LDX1  ! CONFIG_MAP+2201,,AUTO
        43 000240   000001 702211                    TSX2  ! 1,X1

      166      856        %EJECT;
PL6.E3A0      #001=OCNFG File=LR_OCNFG.:Z8A6TSI                                  SAT 08/09/97 09:36 Page:26
      167      857                   /* Main body of OCNFG */
      168      858
      169      859
      170      860    1           CALL MAKE_MAP;

    860 43 000241   000003 701000 43                 TSX1    MAKE_MAP
        43 000242   000000 011000                    NOP     0

      171      861    1           CALL DO_MAPPING;

    861 43 000243   000211 701000 43                 TSX1    DO_MAPPING
        43 000244   000000 011000                    NOP     0

      172      862    1           INIT_CONFIG=CONFIG_MAP(0);

    862 43 000245   200003 235100                    LDA     CONFIG_MAP,,AUTO
        43 000246   000000 755000 38                 STA     INIT_CONFIG

      173      863
      174      864    1   END OCNFG;

    864 43 000247   000000 702200 xent               TSX2  ! X66_ARET
      175      865        %EOD;

PL6.E3A0      #001=OCNFG File=LR_OCNFG.:Z8A6TSI                                  SAT 08/09/97 09:36 Page:27
--  Include file information  --

   LR_CNFG_EXT.:Z8A6TOU  cannot be made into a system file and is referenced.
   LR_IO_EXT.:Z8A6TOU  cannot be made into a system file and is referenced.
   LR_GRAM_EXT.:Z8A6TOU  cannot be made into a system file and is referenced.
      No diagnostics issued in procedure OCNFG.
PL6.E3A0      #001=OCNFG File=LR_OCNFG.:Z8A6TSI                                  SAT 08/09/97 09:36 Page:28

 **** Variables and constants ****

  ****  Section 000 LblCom OUT_DCBN

  ****  Scalars and arrays  ****
OctLoc.c.b A Datatyp(siz) R M Lvl/name                 OctLoc.c.b A Datatyp(siz) R M Lvl/name

     0-0-0/w SBIN              1 OUT_DCBN

  ****  Section 006 LblCom SYM_PTRS

  ****  Scalars and arrays  ****
OctLoc.c.b A Datatyp(siz) R M Lvl/name                 OctLoc.c.b A Datatyp(siz) R M Lvl/name

     0-0-0/w PTR               1 SYM_PTRS(0:1400)

  ****  Section 007 LblCom RIGHT_PARTS

  ****  Scalars and arrays  ****
OctLoc.c.b A Datatyp(siz) R M Lvl/name                 OctLoc.c.b A Datatyp(siz) R M Lvl/name

     0-0-0/h SBIN(18)          1 RIGHT_PARTS(0:8000)

  ****  Section 008 LblCom PROD

  ****  Scalars and arrays  ****
OctLoc.c.b A Datatyp(siz) R M Lvl/name                 OctLoc.c.b A Datatyp(siz) R M Lvl/name

     0-0-0/h STRC(72)          1 PROD(0:1500)

  ****  Section 009 LblCom NR_PROD

  ****  Scalars and arrays  ****
OctLoc.c.b A Datatyp(siz) R M Lvl/name                 OctLoc.c.b A Datatyp(siz) R M Lvl/name

     0-0-0/w SBIN              1 NR_PROD

PL6.E3A0      #001=OCNFG File=LR_OCNFG.:Z8A6TSI                                  SAT 08/09/97 09:36 Page:29
  ****  Section 010 LblCom NR_SYMS

  ****  Scalars and arrays  ****
OctLoc.c.b A Datatyp(siz) R M Lvl/name                 OctLoc.c.b A Datatyp(siz) R M Lvl/name

     0-0-0/w SBIN              1 NR_SYMS

  ****  Section 011 LblCom NR_TERM

  ****  Scalars and arrays  ****
OctLoc.c.b A Datatyp(siz) R M Lvl/name                 OctLoc.c.b A Datatyp(siz) R M Lvl/name

     0-0-0/w SBIN              1 NR_TERM

  ****  Section 012 LblCom LAST_ACT

  ****  Scalars and arrays  ****
OctLoc.c.b A Datatyp(siz) R M Lvl/name                 OctLoc.c.b A Datatyp(siz) R M Lvl/name

     0-0-0/w SBIN              1 LAST_ACT

  ****  Section 013 LblCom LAST_NULL

  ****  Scalars and arrays  ****
OctLoc.c.b A Datatyp(siz) R M Lvl/name                 OctLoc.c.b A Datatyp(siz) R M Lvl/name

     0-0-0/w SBIN              1 LAST_NULL

  ****  Section 014 LblCom NR_ONRIGHT

  ****  Scalars and arrays  ****
OctLoc.c.b A Datatyp(siz) R M Lvl/name                 OctLoc.c.b A Datatyp(siz) R M Lvl/name

     0-0-0/w SBIN              1 NR_ONRIGHT

  ****  Section 015 LblCom NR_NT

PL6.E3A0      #001=OCNFG File=LR_OCNFG.:Z8A6TSI                                  SAT 08/09/97 09:36 Page:30
  ****  Scalars and arrays  ****
OctLoc.c.b A Datatyp(siz) R M Lvl/name                 OctLoc.c.b A Datatyp(siz) R M Lvl/name

     0-0-0/w SBIN              1 NR_NT

  ****  Section 016 LblCom PROD_LEN_MAX_EVER

  ****  Scalars and arrays  ****
OctLoc.c.b A Datatyp(siz) R M Lvl/name                 OctLoc.c.b A Datatyp(siz) R M Lvl/name

     0-0-0/w SBIN              1 PROD_LEN_MAX_EVER

  ****  Section 017 LblCom LAST_ORDER_SPECIFIED

  ****  Scalars and arrays  ****
OctLoc.c.b A Datatyp(siz) R M Lvl/name                 OctLoc.c.b A Datatyp(siz) R M Lvl/name

     0-0-0/w SBIN              1 LAST_ORDER_SPECIFIED

  ****  Section 018 LblCom SEMANTIC_ORDERING

  ****  Scalars and arrays  ****
OctLoc.c.b A Datatyp(siz) R M Lvl/name                 OctLoc.c.b A Datatyp(siz) R M Lvl/name

     0-0-0/b BIT               1 SEMANTIC_ORDERING

  ****  Section 019 LblCom ERR_SEV

  ****  Scalars and arrays  ****
OctLoc.c.b A Datatyp(siz) R M Lvl/name                 OctLoc.c.b A Datatyp(siz) R M Lvl/name

     0-0-0/w SBIN              1 ERR_SEV

  ****  Section 020 LblCom SET_LENGTHB

  ****  Scalars and arrays  ****
OctLoc.c.b A Datatyp(siz) R M Lvl/name                 OctLoc.c.b A Datatyp(siz) R M Lvl/name
PL6.E3A0      #001=OCNFG File=LR_OCNFG.:Z8A6TSI                                  SAT 08/09/97 09:36 Page:31

     0-0-0/w SBIN              1 SET_LENGTHB

  ****  Section 021 LblCom SET_LENGTHW

  ****  Scalars and arrays  ****
OctLoc.c.b A Datatyp(siz) R M Lvl/name                 OctLoc.c.b A Datatyp(siz) R M Lvl/name

     0-0-0/w SBIN              1 SET_LENGTHW

  ****  Section 022 LblCom EOF_SYMBOL_PTR

  ****  Scalars and arrays  ****
OctLoc.c.b A Datatyp(siz) R M Lvl/name                 OctLoc.c.b A Datatyp(siz) R M Lvl/name

     0-0-0/w PTR               1 EOF_SYMBOL_PTR

  ****  Section 023 LblCom ERROR_SYMBOL_PTR

  ****  Scalars and arrays  ****
OctLoc.c.b A Datatyp(siz) R M Lvl/name                 OctLoc.c.b A Datatyp(siz) R M Lvl/name

     0-0-0/w PTR               1 ERROR_SYMBOL_PTR

  ****  Section 024 LblCom BOF_SYMBOL_PTR

  ****  Scalars and arrays  ****
OctLoc.c.b A Datatyp(siz) R M Lvl/name                 OctLoc.c.b A Datatyp(siz) R M Lvl/name

     0-0-0/w PTR         r     1 BOF_SYMBOL_PTR

  ****  Section 025 LblCom OPTIONS

  ****  Scalars and arrays  ****
OctLoc.c.b A Datatyp(siz) R M Lvl/name                 OctLoc.c.b A Datatyp(siz) R M Lvl/name

     0-0-0/b BIT               1 OPTIONS(0:25)
PL6.E3A0      #001=OCNFG File=LR_OCNFG.:Z8A6TSI                                  SAT 08/09/97 09:36 Page:32

  ****  Section 026 LblCom OPTIONS_TEXT

  ****  Scalars and arrays  ****
OctLoc.c.b A Datatyp(siz) R M Lvl/name                 OctLoc.c.b A Datatyp(siz) R M Lvl/name

     0-0-0/c CHAR(4)           1 OPTIONS_TEXT(0:25)

  ****  Section 027 LblCom INSTR

  ****  Scalars and arrays  ****
OctLoc.c.b A Datatyp(siz) R M Lvl/name                 OctLoc.c.b A Datatyp(siz) R M Lvl/name

     0-0-0/c CHAR              1 INSTR(0:511)               0-0-0/c CHAR(512)         1 INSTRCHR

  ****  Section 028 LblCom INSTR_LISTED

  ****  Scalars and arrays  ****
OctLoc.c.b A Datatyp(siz) R M Lvl/name                 OctLoc.c.b A Datatyp(siz) R M Lvl/name

     0-0-0/b BIT               1 INSTR_LISTED

  ****  Section 029 LblCom INSTR_LEN

  ****  Scalars and arrays  ****
OctLoc.c.b A Datatyp(siz) R M Lvl/name                 OctLoc.c.b A Datatyp(siz) R M Lvl/name

     0-0-0/w SBIN              1 INSTR_LEN

  ****  Section 030 LblCom INSTR_INDX

  ****  Scalars and arrays  ****
OctLoc.c.b A Datatyp(siz) R M Lvl/name                 OctLoc.c.b A Datatyp(siz) R M Lvl/name

     0-0-0/w SBIN              1 INSTR_INDX

  ****  Section 031 LblCom EOF_FLAG
PL6.E3A0      #001=OCNFG File=LR_OCNFG.:Z8A6TSI                                  SAT 08/09/97 09:36 Page:33

  ****  Scalars and arrays  ****
OctLoc.c.b A Datatyp(siz) R M Lvl/name                 OctLoc.c.b A Datatyp(siz) R M Lvl/name

     0-0-0/b BIT               1 EOF_FLAG

  ****  Section 032 LblCom KEY_REC

  ****  Scalars and arrays  ****
OctLoc.c.b A Datatyp(siz) R M Lvl/name                 OctLoc.c.b A Datatyp(siz) R M Lvl/name

     0-0-0/c CHAR(10)          1 KEY_REC

  ****  Section 033 LblCom LINE

  ****  Scalars and arrays  ****
OctLoc.c.b A Datatyp(siz) R M Lvl/name                 OctLoc.c.b A Datatyp(siz) R M Lvl/name

     0-0-0/c CHAR(109)         1 LINE

  ****  Section 034 LblCom LINELEN

  ****  Scalars and arrays  ****
OctLoc.c.b A Datatyp(siz) R M Lvl/name                 OctLoc.c.b A Datatyp(siz) R M Lvl/name

     0-0-0/w SBIN              1 LINELEN

  ****  Section 035 LblCom TSTATS

  ****  Scalars and arrays  ****
OctLoc.c.b A Datatyp(siz) R M Lvl/name                 OctLoc.c.b A Datatyp(siz) R M Lvl/name

     0-0-0/w STRC(7380)        1 TSTATS

  ****  Section 036 LblCom C#_TO_$

  ****  Scalars and arrays  ****
PL6.E3A0      #001=OCNFG File=LR_OCNFG.:Z8A6TSI                                  SAT 08/09/97 09:36 Page:34
OctLoc.c.b A Datatyp(siz) R M Lvl/name                 OctLoc.c.b A Datatyp(siz) R M Lvl/name

     0-0-0/w PTR         r     1 C#_TO_$(0:2200)

  ****  Section 037 LblCom NR_CONFIG

  ****  Scalars and arrays  ****
OctLoc.c.b A Datatyp(siz) R M Lvl/name                 OctLoc.c.b A Datatyp(siz) R M Lvl/name

     0-0-0/w SBIN        r     1 NR_CONFIG

  ****  Section 038 LblCom INIT_CONFIG

  ****  Scalars and arrays  ****
OctLoc.c.b A Datatyp(siz) R M Lvl/name                 OctLoc.c.b A Datatyp(siz) R M Lvl/name

     0-0-0/w SBIN        r     1 INIT_CONFIG

  ****  Section 039 LblCom MAX_BASIS_ITEMS

  ****  Scalars and arrays  ****
OctLoc.c.b A Datatyp(siz) R M Lvl/name                 OctLoc.c.b A Datatyp(siz) R M Lvl/name

     0-0-0/w SBIN              1 MAX_BASIS_ITEMS

  ****  Section 040 LblCom MAX_TOTAL_ITEMS

  ****  Scalars and arrays  ****
OctLoc.c.b A Datatyp(siz) R M Lvl/name                 OctLoc.c.b A Datatyp(siz) R M Lvl/name

     0-0-0/w SBIN              1 MAX_TOTAL_ITEMS

  ****  Section 041 LblCom LAST_BINSRCH_ONLY

  ****  Scalars and arrays  ****
OctLoc.c.b A Datatyp(siz) R M Lvl/name                 OctLoc.c.b A Datatyp(siz) R M Lvl/name

PL6.E3A0      #001=OCNFG File=LR_OCNFG.:Z8A6TSI                                  SAT 08/09/97 09:36 Page:35
     0-0-0/w SBIN        r     1 LAST_BINSRCH_ONLY

  ****  Section 042 LblCom LAST_BOTH_BITBIN

  ****  Scalars and arrays  ****
OctLoc.c.b A Datatyp(siz) R M Lvl/name                 OctLoc.c.b A Datatyp(siz) R M Lvl/name

     0-0-0/w SBIN        r     1 LAST_BOTH_BITBIN

  ****  Auto variables  ****

  ****  Scalars and arrays  ****
OctLoc.c.b A Datatyp(siz) R M Lvl/name                 OctLoc.c.b A Datatyp(siz) R M Lvl/name

 10472-0-0/w PTR         r     1 C$
     3-0-0/w SBIN        r     1 CONFIG_MAP(0:2200)
 10466-0-0/w SBIN        r     1 I                      10466-0-0/w SBIN        r     1 I
 10475-0-0/w SBIN        r     1 I#                     10467-0-0/w SBIN              1 J
 10473-0-0/w PTR         r     1 KEY0$                  10476-0-0/w PTR         r     1 KEYI$
 10474-0-0/w PTR         r     1 KEYN$                  10502-0-0/b BIT         r     1 MORE_REDUCTIONS
  4235-0-0/w PTR         r     1 NEW_C#_TO_$(0:2200)
 10471-0-0/w SBIN        r     1 NR_BINSRCH             10470-0-0/w SBIN        r     1 NR_BITSRCH
 10501-0-0/w SBIN              1 NR_BIT_MUST            10467-0-0/w SBIN        r     1 NR_BOTH
 10500-0-0/w SBIN              1 NR_MARGINAL            10477-0-0/w SBIN        r     1 REDUCT_COUNT
  4235-0-0/b STRC        r     1 SPLIT(0:2200)

  ****  BASED and DCB variables  ****

  ****  Scalars and arrays  ****
OctLoc.c.b A Datatyp(siz) R M Lvl/name                 OctLoc.c.b A Datatyp(siz) R M Lvl/name

     0-0-0/w STRC(57888) r     1 C_SET_B                    0-0-0/w STRC(72)          1 INCLUDES_B
     0-0-0/w STRC(144)   r     1 INCL_B                     0-0-0/w STRC(5436)        1 ITEM_B
     0-0-0/w STRC(5652)  r     1 KEY_B                      0-0-0N  NULL        r     1 M$LO
     0-0-0N  NULL        r     1 M$OU                       0-0-0N  NULL        r     1 M$SI
     0-0-0N  NULL        r     1 M$SO                       0-0-0N  NULL        r     1 M$UI
     0-0-0/w STRC(351)   r     1 SYMBOL
PL6.E3A0      #001=OCNFG File=LR_OCNFG.:Z8A6TSI                                  SAT 08/09/97 09:36 Page:36


   Procedure OCNFG requires 168 words for executable code.
   Procedure OCNFG requires 4422 words of local(AUTO) storage.

PL6.E3A0      #002=CALC_ITEM_NUMBERS File=LR_OCNFG.:Z8A6TSI                      SAT 08/09/97 09:36 Page:37
      176        1        /*T***********************************************************/
      177        2        /*T*                                                         */
      178        3        /*T* Copyright (c) Bull HN Information Systems Inc., 1997    */
      179        4        /*T*                                                         */
      180        5        /*T***********************************************************/
      181        6        CALC_ITEM_NUMBERS : PROC;
      182        7
      183        8        /*D*
      184        9               NAME: CALC_ITEM_NUMBERS
      185       10            PURPOSE: ASSOCIATE AN ITEM NUMBER TO EACH BASIS AND
      186       11                     CLOSURE ITEM IN EACH CONFURATION SET.
      187       12
      188       13           For error recovery we need to number items in a configuration
      189       14           set.  the basis items will be first, 0..M,
      190       15           then the closure items M+1 .. N.
      191       16        */
      192       17
      193       18        %INCLUDE LR_GRAM_EXT;
      194      557        %INCLUDE LR_CNFG_EXT;
      195      710
      196      711    1   DCL STATE    SBIN WORD;
      197      712    1   DCL ITEM_CNT SBIN WORD;
      198      713    1   DCL E        SBIN WORD;  /* Elem of config set */
      199      714    1   DCL I        SBIN WORD;  /* Item (prod, pos) of elem of config set */
      200      715
      201      716
      202      717
      203      718
      204      719    1   FINDSUCC : PROC;  /* OF CALC_ITEM_NUMBERS */
      205      720        %EJECT;
PL6.E3A0      #002=CALC_ITEM_NUMBERS File=LR_OCNFG.:Z8A6TSI                      SAT 08/09/97 09:36 Page:38
      206      721
      207      722        /* Find the successor item # in the successor state for the
      208      723           current item in the current state.
      209      724        */
      210      725
      211      726    2   DCL SUCC_STATE_P   PTR;
      212      727    2   DCL E2             SBIN WORD;
      213      728    2   DCL I2             SBIN WORD;
      214      729    2   DCL NEW_DOT_POS    UBIN HALF;
      215      730    2   DCL PROD           UBIN HALF;
      216      731    2   DCL SUCC_FOUND     BOOLEAN;
      217      732
      218      733
      219      734    2   SUCC_STATE_P   = C#_TO_$(STATE) -> C_SET_B.ELEM.KEY$(E)->KEY_B.KEY_VAL$;
      220      735    2   NEW_DOT_POS    = C#_TO_$(STATE)->C_SET_B.ELEM.KEY$(E) ->KEY_B.ELEM.DOT_POS(I) + 1;
      221      736    2   PROD           = C#_TO_$(STATE)->C_SET_B.ELEM.KEY$(E)->KEY_B.ELEM.PROD(I);
      222      737    2   SUCC_FOUND     = FALSE;
      223      738    2   E2             = 0;
      224      739
      225      740    3   DO UNTIL SUCC_FOUND;
      226      741
      227      742    3     I2 = 0;
      228      743
      229      744    4     DO WHILE (NOT SUCC_FOUND) AND
      230      745    4              (I2 < SUCC_STATE_P -> C_SET_B.ELEM.KEY$(E2) -> KEY_B.W.ELEM_COUNT);
      231      746
      232      747    4       SUCC_FOUND = (PROD = SUCC_STATE_P -> C_SET_B.ELEM.KEY$(E2) ->
      233      748    4                                        KEY_B.ELEM.PROD(I2))
      234      749    4            & (NEW_DOT_POS = SUCC_STATE_P -> C_SET_B.ELEM.KEY$(E2) ->
      235      750    4                                        KEY_B.ELEM.DOT_POS(I2));
      236      751    4       IF NOT SUCC_FOUND THEN
      237      752    4         I2 = I2 + 1;
      238      753
      239      754    4     END;
      240      755
      241      756    3     IF NOT SUCC_FOUND THEN
      242      757    3       E2 = E2 + 1;
PL6.E3A0      #002=CALC_ITEM_NUMBERS File=LR_OCNFG.:Z8A6TSI                      SAT 08/09/97 09:36 Page:39
      243      758
      244      759    3   END;
      245      760
      246      761    2   C#_TO_$(STATE) ->C_SET_B.ELEM.ITEM$(E)->ITEM_B.ELEM.SUCC_ITEM#(I) =
      247      762    2          SUCC_STATE_P -> C_SET_B.ELEM.ITEM$(E2) -> ITEM_B.ELEM.ITEM#(I2);
      248      763
      249      764    2   END FINDSUCC;
      250      765
      251      766
      252      767        %EJECT;
PL6.E3A0      #002=CALC_ITEM_NUMBERS File=LR_OCNFG.:Z8A6TSI                      SAT 08/09/97 09:36 Page:40
      253      768        /* Main body of CAL_ITEM_NUMBERS */
      254      769
      255      770    2   DO STATE = 0 TO NR_CONFIG - 1;
      256      771
      257      772    2     ITEM_CNT = 0;
      258      773
      259      774          /* Count all basis items */
      260      775
      261      776    3     DO E = 0 TO C#_TO_$(STATE) -> C_SET_B.NR_ELEM - 1;
      262      777
      263      778            /* ALLOCATE THE ITEM SETS */
      264      779    3       CALL GETNEW (C#_TO_$(STATE)->C_SET_B.ELEM.ITEM$(E),
      265      780    3                    BINBIT((C#_TO_$(STATE)->C_SET_B.ELEM.KEY$(E)->
      266      781    3                        KEY_B.W.ELEM_COUNT)*SIZEW(ITEM_B.ELEM(0)),36));
      267      782
      268      783    4       DO I = 0 TO C#_TO_$(STATE) -> C_SET_B.ELEM.KEY$(E)->KEY_B.W.ELEM_COUNT - 1;
      269      784
      270      785    4         IF C#_TO_$(STATE)->C_SET_B.ELEM.KEY$(E) -> KEY_B.ELEM.DOT_POS(I) > 0 THEN
      271      786    5           DO;
      272      787    5             C#_TO_$(STATE) -> C_SET_B.ELEM.ITEM$(E)->ITEM_B.ELEM.ITEM#(I) = ITEM_CNT;
      273      788    5             ITEM_CNT = ITEM_CNT + 1;
      274      789    5           END;
      275      790
      276      791    4       END;
      277      792    3     END;
      278      793
      279      794    2     C#_TO_$(STATE) -> C_SET_B.BASIS_COUNT = ITEM_CNT;
      280      795    2   MAX_BASIS_ITEMS = MAXIMUM(MAX_BASIS_ITEMS, ITEM_CNT);
      281      796
      282      797          /* Get all closure items */
      283      798
      284      799    3     DO E = 0 TO C#_TO_$(STATE) -> C_SET_B.NR_ELEM - 1;
      285      800
      286      801    4       DO I = 0 TO C#_TO_$(STATE) -> C_SET_B.ELEM.KEY$(E)->KEY_B.W.ELEM_COUNT - 1;
      287      802
      288      803    4         IF C#_TO_$(STATE) -> C_SET_B.ELEM.KEY$(E) -> KEY_B.ELEM.DOT_POS(I) = 0 THEN
      289      804    5           DO;
PL6.E3A0      #002=CALC_ITEM_NUMBERS File=LR_OCNFG.:Z8A6TSI                      SAT 08/09/97 09:36 Page:41
      290      805    5             C#_TO_$(STATE) -> C_SET_B.ELEM.ITEM$(E) -> ITEM_B.ELEM.ITEM#(I) = ITEM_CNT
               805                      ;
      291      806    5             ITEM_CNT = ITEM_CNT + 1;
      292      807    5           END;
      293      808
      294      809    4       END;
      295      810    3     END;
      296      811
      297      812    2     C#_TO_$(STATE) -> C_SET_B.ITEM_COUNT = ITEM_CNT;
      298      813    2   MAX_TOTAL_ITEMS = MAXIMUM(MAX_TOTAL_ITEMS, ITEM_CNT);
      299      814
      300      815    2   END;  /* DO ON STATE */
      301      816
      302      817        /* Calculate successor item #S */
      303      818
      304      819    2   DO STATE = 0 TO NR_CONFIG - 1;
      305      820
      306      821    3     DO E = 0 TO C#_TO_$(STATE) -> C_SET_B.NR_ELEM - 1;
      307      822
      308      823    3       IF C#_TO_$(STATE) -> C_SET_B.ELEM.KEY$(E) -> KEY_B.W.SYM_AFTER > 0 THEN
      309      824    4         DO I = 0 TO C#_TO_$(STATE) -> C_SET_B.ELEM.KEY$(E) -> KEY_B.W.ELEM_COUNT - 1;
      310      825
      311      826    4           CALL FINDSUCC;
      312      827
      313      828    4         END;
      314      829
      315      830    3     END;
      316      831    2   END;
      317      832
      318      833    1   END CALC_ITEM_NUMBERS;

PL6.E3A0      #002=CALC_ITEM_NUMBERS File=LR_OCNFG.:Z8A6TSI                      SAT 08/09/97 09:36 Page:42
--  Include file information  --

   LR_CNFG_EXT.:Z8A6TOU  cannot be made into a system file and is referenced.
   LR_IO_EXT.:Z8A6TOU  cannot be made into a system file and is referenced.
   LR_GRAM_EXT.:Z8A6TOU  cannot be made into a system file and is referenced.
      No diagnostics issued in procedure CALC_ITEM_NUMBERS.

   Procedure CALC_ITEM_NUMBERS requires 218 words for executable code.
   Procedure CALC_ITEM_NUMBERS requires 20 words of local(AUTO) storage.

    No errors detected in file LR_OCNFG.:Z8A6TSI    .

PL6.E3A0      #002=CALC_ITEM_NUMBERS File=LR_OCNFG.:Z8A6TSI                      SAT 08/09/97 09:36 Page:43

 Object Unit name= CALC_ITEM_NUMBERS                          File name= LR_OCNFG.:Z8A6TOU
 UTS= AUG 09 '97 09:36:37.84 SAT                              Compiler= PL-6/E31         Sev=      00
 SharedLib= :SHARED_SYSTEM                                    Alt SharedLib=


    ****  Control sections  ****

 Sect   Type Bound  Init  Size OctSiz  Section name(segment info)
    0  LblCom even  none     1      1  OUT_DCBN
    1   DCB   even  none     0      0  M$OU
    2   DCB   even  none     0      0  M$SO
    3   DCB   even  none     0      0  M$LO
    4   DCB   even  none     0      0  M$SI
    5   DCB   even  none     0      0  M$UI
    6  LblCom even  none  1401   2571  SYM_PTRS
    7  LblCom even  none  4001   7641  RIGHT_PARTS
    8  LblCom even  none  3002   5672  PROD
    9  LblCom even  none     1      1  NR_PROD
   10  LblCom even  none     1      1  NR_SYMS
   11  LblCom even  none     1      1  NR_TERM
   12  LblCom even  none     1      1  LAST_ACT
   13  LblCom even  none     1      1  LAST_NULL
   14  LblCom even  none     1      1  NR_ONRIGHT
   15  LblCom even  none     1      1  NR_NT
   16  LblCom even  none     1      1  PROD_LEN_MAX_EVER
   17  LblCom even  none     1      1  LAST_ORDER_SPECIFIED
   18  LblCom even  none     1      1  SEMANTIC_ORDERING
   19  LblCom even  none     1      1  ERR_SEV
   20  LblCom even  none     1      1  SET_LENGTHB
   21  LblCom even  none     1      1  SET_LENGTHW
   22  LblCom even  none     1      1  EOF_SYMBOL_PTR
   23  LblCom even  none     1      1  ERROR_SYMBOL_PTR
   24  LblCom even  none     1      1  BOF_SYMBOL_PTR
   25  LblCom even  none     1      1  OPTIONS
   26  LblCom even  none    26     32  OPTIONS_TEXT
   27  LblCom even  none   128    200  INSTR
   28  LblCom even  none     1      1  INSTR_LISTED
PL6.E3A0      #002=CALC_ITEM_NUMBERS File=LR_OCNFG.:Z8A6TSI                      SAT 08/09/97 09:36 Page:44
   29  LblCom even  none     1      1  INSTR_LEN
   30  LblCom even  none     1      1  INSTR_INDX
   31  LblCom even  none     1      1  EOF_FLAG
   32  LblCom even  none     3      3  KEY_REC
   33  LblCom even  none    28     34  LINE
   34  LblCom even  none     1      1  LINELEN
   35  LblCom even  none   205    315  TSTATS
   36  LblCom even  none  2201   4231  C#_TO_$
   37  LblCom even  none     1      1  NR_CONFIG
   38  LblCom even  none     1      1  INIT_CONFIG
   39  LblCom even  none     1      1  MAX_BASIS_ITEMS
   40  LblCom even  none     1      1  MAX_TOTAL_ITEMS
   41  LblCom even  none     1      1  LAST_BINSRCH_ONLY
   42  LblCom even  none     1      1  LAST_BOTH_BITBIN
   43   Proc  even  none   218    332  CALC_ITEM_NUMBERS
   44  RoData even  none     2      2  CALC_ITEM_NUMBERS

    ****  Entry defs  ****

                              Check   Calling
                             calling  sequence
  Sect OctLoc Primary Altret sequence   type   Parms  Name
    43      0   yes            yes      Std        0  CALC_ITEM_NUMBERS

  ****  Entry refs  ****

         Check        Calling
        calling       sequence
Altret sequence SRef   type   Args  Name
         yes           Std       2 GETNEW
                       nStd      0 X66_AUTO_0
                       nStd      0 X66_ARET
PL6.E3A0      #002=CALC_ITEM_NUMBERS File=LR_OCNFG.:Z8A6TSI                      SAT 08/09/97 09:36 Page:45

  ****  Data refs  ****

  Flags:  r = read only, s = secondary
Flgs Name                             Flgs Name                             Flgs Name
     M$OU                                  M$SO                                  M$LO
     M$SI                                  M$UI

  ****  Segment refs  ****

  Flags:  r = read only, s = secondary
Flgs Name                             Flgs Name                             Flgs Name
     NULLSID
PL6.E3A0      #002=CALC_ITEM_NUMBERS File=LR_OCNFG.:Z8A6TSI                      SAT 08/09/97 09:36 Page:46


      176        1        /*T***********************************************************/
      177        2        /*T*                                                         */
      178        3        /*T* Copyright (c) Bull HN Information Systems Inc., 1997    */
      179        4        /*T*                                                         */
      180        5        /*T***********************************************************/
      181        6        CALC_ITEM_NUMBERS : PROC;

      6 43 000000   000000 700200 xent  CALC_ITEM_N* TSX0  ! X66_AUTO_0
        43 000001   000024 000000                    ZERO    20,0
        43 000002   000113 710000 43                 TRA     s:770

      182        7
      183        8        /*D*
      184        9               NAME: CALC_ITEM_NUMBERS
      185       10            PURPOSE: ASSOCIATE AN ITEM NUMBER TO EACH BASIS AND
      186       11                     CLOSURE ITEM IN EACH CONFURATION SET.
      187       12
      188       13           For error recovery we need to number items in a configuration
      189       14           set.  the basis items will be first, 0..M,
      190       15           then the closure items M+1 .. N.
      191       16        */
      192       17
      193       18        %INCLUDE LR_GRAM_EXT;
      194      557        %INCLUDE LR_CNFG_EXT;
      195      710
      196      711    1   DCL STATE    SBIN WORD;
      197      712    1   DCL ITEM_CNT SBIN WORD;
      198      713    1   DCL E        SBIN WORD;  /* Elem of config set */
      199      714    1   DCL I        SBIN WORD;  /* Item (prod, pos) of elem of config set */
      200      715
      201      716
      202      717
      203      718
      204      719    1   FINDSUCC : PROC;  /* OF CALC_ITEM_NUMBERS */

    719 43 000003   200010 741300       FINDSUCC     STX1  ! I+2,,AUTO
PL6.E3A0      #002=CALC_ITEM_NUMBERS File=LR_OCNFG.:Z8A6TSI                      SAT 08/09/97 09:36 Page:47

      205      720        %EJECT;
PL6.E3A0      #002=CALC_ITEM_NUMBERS File=LR_OCNFG.:Z8A6TSI                      SAT 08/09/97 09:36 Page:48
      206      721
      207      722        /* Find the successor item # in the successor state for the
      208      723           current item in the current state.
      209      724        */
      210      725
      211      726    2   DCL SUCC_STATE_P   PTR;
      212      727    2   DCL E2             SBIN WORD;
      213      728    2   DCL I2             SBIN WORD;
      214      729    2   DCL NEW_DOT_POS    UBIN HALF;
      215      730    2   DCL PROD           UBIN HALF;
      216      731    2   DCL SUCC_FOUND     BOOLEAN;
      217      732
      218      733
      219      734    2   SUCC_STATE_P   = C#_TO_$(STATE) -> C_SET_B.ELEM.KEY$(E)->KEY_B.KEY_VAL$;

    734 43 000004   200003 720100                    LXL0    STATE,,AUTO
        43 000005   000000 470410 36                 LDP0    C#_TO_$,X0
        43 000006   200005 235100                    LDA     E,,AUTO
        43 000007   000002 735000                    ALS     2
        43 000010   000004 471505                    LDP1    4,AL,PR0
        43 000011   100003 236100                    LDQ     3,,PR1
        43 000012   200011 756100                    STQ     SUCC_STATE_P,,AUTO

      220      735    2   NEW_DOT_POS    = C#_TO_$(STATE)->C_SET_B.ELEM.KEY$(E) ->KEY_B.ELEM.DOT_POS(I) + 1;

    735 43 000013   200006 722100                    LXL2    I,,AUTO
        43 000014   100006 723112                    LXL3    6,X2,PR1
        43 000015   000001 624013                    EAX4    1,X3
        43 000016   200014 744100                    STX4    NEW_DOT_POS,,AUTO

      221      736    2   PROD           = C#_TO_$(STATE)->C_SET_B.ELEM.KEY$(E)->KEY_B.ELEM.PROD(I);

    736 43 000017   100006 225112                    LDX5    6,X2,PR1
        43 000020   200015 745100                    STX5    PROD,,AUTO

      222      737    2   SUCC_FOUND     = FALSE;

PL6.E3A0      #002=CALC_ITEM_NUMBERS File=LR_OCNFG.:Z8A6TSI                      SAT 08/09/97 09:36 Page:49
    737 43 000021   200016 450100                    STZ     SUCC_FOUND,,AUTO

      223      738    2   E2             = 0;

    738 43 000022   200012 450100                    STZ     E2,,AUTO

      224      739
      225      740    3   DO UNTIL SUCC_FOUND;

      226      741
      227      742    3     I2 = 0;

    742 43 000023   200013 450100                    STZ     I2,,AUTO

      228      743
      229      744    4     DO WHILE (NOT SUCC_FOUND) AND

    744 43 000024   000054 710000 43                 TRA     s:754

      230      745    4              (I2 < SUCC_STATE_P -> C_SET_B.ELEM.KEY$(E2) -> KEY_B.W.ELEM_COUNT);
      231      746
      232      747    4       SUCC_FOUND = (PROD = SUCC_STATE_P -> C_SET_B.ELEM.KEY$(E2) ->

    747 43 000025   200012 235100                    LDA     E2,,AUTO
        43 000026   000002 735000                    ALS     2
        43 000027   200011 470500                    LDP0    SUCC_STATE_P,,AUTO
        43 000030   000004 471505                    LDP1    4,AL,PR0
        43 000031   400000 220003                    LDX0    -131072,DU
        43 000032   200015 221100                    LDX1    PROD,,AUTO
        43 000033   200013 722100                    LXL2    I2,,AUTO
        43 000034   100006 101112                    CMPX1   6,X2,PR1
        43 000035   000037 600000 43                 TZE     s:747+10
        43 000036   000000 220003                    LDX0    0,DU
        43 000037   400000 223003                    LDX3    -131072,DU
        43 000040   100006 724112                    LXL4    6,X2,PR1
        43 000041   200014 104100                    CMPX4   NEW_DOT_POS,,AUTO
        43 000042   000044 600000 43                 TZE     s:747+15
PL6.E3A0      #002=CALC_ITEM_NUMBERS File=LR_OCNFG.:Z8A6TSI                      SAT 08/09/97 09:36 Page:50
        43 000043   000000 223003                    LDX3    0,DU
        43 000044   000000 636013                    EAQ     0,X3
        43 000045   200020 756100                    STQ     SUCC_FOUND+2,,AUTO
        43 000046   000000 636010                    EAQ     0,X0
        43 000047   200020 376100                    ANQ     SUCC_FOUND+2,,AUTO
        43 000050   200016 756100                    STQ     SUCC_FOUND,,AUTO

      233      748    4                                        KEY_B.ELEM.PROD(I2))
      234      749    4            & (NEW_DOT_POS = SUCC_STATE_P -> C_SET_B.ELEM.KEY$(E2) ->
      235      750    4                                        KEY_B.ELEM.DOT_POS(I2));
      236      751    4       IF NOT SUCC_FOUND THEN

    751 43 000051   200016 234100                    SZN     SUCC_FOUND,,AUTO
        43 000052   000054 604000 43                 TMI     s:754

      237      752    4         I2 = I2 + 1;

    752 43 000053   200013 054100                    AOS     I2,,AUTO

      238      753
      239      754    4     END;

    754 43 000054   200016 234100                    SZN     SUCC_FOUND,,AUTO
        43 000055   000067 604000 43                 TMI     s:756
        43 000056   200012 235100                    LDA     E2,,AUTO
        43 000057   000002 735000                    ALS     2
        43 000060   200011 470500                    LDP0    SUCC_STATE_P,,AUTO
        43 000061   000004 471505                    LDP1    4,AL,PR0
        43 000062   100005 236100                    LDQ     5,,PR1
        43 000063   000022 736000                    QLS     18
        43 000064   000022 732000                    QRS     18
        43 000065   200013 116100                    CMPQ    I2,,AUTO
        43 000066   000025 605400 43                 TPNZ    s:747

      240      755
      241      756    3     IF NOT SUCC_FOUND THEN

PL6.E3A0      #002=CALC_ITEM_NUMBERS File=LR_OCNFG.:Z8A6TSI                      SAT 08/09/97 09:36 Page:51
    756 43 000067   200016 234100                    SZN     SUCC_FOUND,,AUTO
        43 000070   000072 604000 43                 TMI     s:759

      242      757    3       E2 = E2 + 1;

    757 43 000071   200012 054100                    AOS     E2,,AUTO

      243      758
      244      759    3   END;

    759 43 000072   200016 234100                    SZN     SUCC_FOUND,,AUTO
        43 000073   000023 605000 43                 TPL     s:742

      245      760
      246      761    2   C#_TO_$(STATE) ->C_SET_B.ELEM.ITEM$(E)->ITEM_B.ELEM.SUCC_ITEM#(I) =

    761 43 000074   200003 720100                    LXL0    STATE,,AUTO
        43 000075   000000 470410 36                 LDP0    C#_TO_$,X0
        43 000076   200005 235100                    LDA     E,,AUTO
        43 000077   000002 735000                    ALS     2
        43 000100   000006 471505                    LDP1    6,AL,PR0
        43 000101   200012 236100                    LDQ     E2,,AUTO
        43 000102   000002 736000                    QLS     2
        43 000103   200011 473500                    LDP3    SUCC_STATE_P,,AUTO
        43 000104   300006 474506                    LDP4    6,QL,PR3
        43 000105   200013 721100                    LXL1    I2,,AUTO
        43 000106   400000 222111                    LDX2    0,X1,PR4
        43 000107   200006 723100                    LXL3    I,,AUTO
        43 000110   100000 442113                    SXL2    0,X3,PR1

      247      762    2          SUCC_STATE_P -> C_SET_B.ELEM.ITEM$(E2) -> ITEM_B.ELEM.ITEM#(I2);
      248      763
      249      764    2   END FINDSUCC;

    764 43 000111   200010 221300                    LDX1  ! I+2,,AUTO
        43 000112   000001 702211                    TSX2  ! 1,X1

PL6.E3A0      #002=CALC_ITEM_NUMBERS File=LR_OCNFG.:Z8A6TSI                      SAT 08/09/97 09:36 Page:52
      250      765
      251      766
      252      767        %EJECT;
PL6.E3A0      #002=CALC_ITEM_NUMBERS File=LR_OCNFG.:Z8A6TSI                      SAT 08/09/97 09:36 Page:53
      253      768        /* Main body of CAL_ITEM_NUMBERS */
      254      769
      255      770    2   DO STATE = 0 TO NR_CONFIG - 1;

    770 43 000113   200003 450100                    STZ     STATE,,AUTO
        43 000114   000261 710000 43                 TRA     s:815+1

      256      771
      257      772    2     ITEM_CNT = 0;

    772 43 000115   200004 450100                    STZ     ITEM_CNT,,AUTO

      258      773
      259      774          /* Count all basis items */
      260      775
      261      776    3     DO E = 0 TO C#_TO_$(STATE) -> C_SET_B.NR_ELEM - 1;

    776 43 000116   200005 450100                    STZ     E,,AUTO
        43 000117   000173 710000 43                 TRA     s:792+1

      262      777
      263      778            /* ALLOCATE THE ITEM SETS */
      264      779    3       CALL GETNEW (C#_TO_$(STATE)->C_SET_B.ELEM.ITEM$(E),
      265      780    3                    BINBIT((C#_TO_$(STATE)->C_SET_B.ELEM.KEY$(E)->
      266      781    3                        KEY_B.W.ELEM_COUNT)*SIZEW(ITEM_B.ELEM(0)),36));

    781 43 000120   200003 720100                    LXL0    STATE,,AUTO
        43 000121   000000 470410 36                 LDP0    C#_TO_$,X0
        43 000122   200005 235100                    LDA     E,,AUTO
        43 000123   000002 735000                    ALS     2
        43 000124   000004 471505                    LDP1    4,AL,PR0
        43 000125   100005 236100                    LDQ     5,,PR1
        43 000126   000022 736000                    QLS     18
        43 000127   000022 732000                    QRS     18
        43 000130   200020 756100                    STQ     SUCC_FOUND+2,,AUTO
        43 000131   200020 631500                    EPPR1   SUCC_FOUND+2,,AUTO
        43 000132   200023 451500                    STP1    SUCC_FOUND+5,,AUTO
PL6.E3A0      #002=CALC_ITEM_NUMBERS File=LR_OCNFG.:Z8A6TSI                      SAT 08/09/97 09:36 Page:54
        43 000133   000006 633505                    EPPR3   6,AL,PR0
        43 000134   200022 453500                    STP3    SUCC_FOUND+4,,AUTO
        43 000135   200022 630500                    EPPR0   SUCC_FOUND+4,,AUTO
        43 000136   000001 631400 44                 EPPR1   1
        43 000137   000000 701000 xent               TSX1    GETNEW
        43 000140   000000 011000                    NOP     0

      267      782
      268      783    4       DO I = 0 TO C#_TO_$(STATE) -> C_SET_B.ELEM.KEY$(E)->KEY_B.W.ELEM_COUNT - 1;

    783 43 000141   200006 450100                    STZ     I,,AUTO
        43 000142   000160 710000 43                 TRA     s:791+1

      269      784
      270      785    4         IF C#_TO_$(STATE)->C_SET_B.ELEM.KEY$(E) -> KEY_B.ELEM.DOT_POS(I) > 0 THEN

    785 43 000143   200003 720100                    LXL0    STATE,,AUTO
        43 000144   000000 470410 36                 LDP0    C#_TO_$,X0
        43 000145   200005 235100                    LDA     E,,AUTO
        43 000146   000002 735000                    ALS     2
        43 000147   000004 471505                    LDP1    4,AL,PR0
        43 000150   200006 721100                    LXL1    I,,AUTO
        43 000151   100006 722111                    LXL2    6,X1,PR1
        43 000152   000157 600000 43                 TZE     s:791

      271      786    5           DO;

      272      787    5             C#_TO_$(STATE) -> C_SET_B.ELEM.ITEM$(E)->ITEM_B.ELEM.ITEM#(I) = ITEM_CNT;

    787 43 000153   000006 473505                    LDP3    6,AL,PR0
        43 000154   200004 723100                    LXL3    ITEM_CNT,,AUTO
        43 000155   300000 743111                    STX3    0,X1,PR3

      273      788    5             ITEM_CNT = ITEM_CNT + 1;

    788 43 000156   200004 054100                    AOS     ITEM_CNT,,AUTO

PL6.E3A0      #002=CALC_ITEM_NUMBERS File=LR_OCNFG.:Z8A6TSI                      SAT 08/09/97 09:36 Page:55
      274      789    5           END;

      275      790
      276      791    4       END;

    791 43 000157   200006 054100                    AOS     I,,AUTO
        43 000160   200003 720100                    LXL0    STATE,,AUTO
        43 000161   000000 470410 36                 LDP0    C#_TO_$,X0
        43 000162   200005 235100                    LDA     E,,AUTO
        43 000163   000002 735000                    ALS     2
        43 000164   000004 471505                    LDP1    4,AL,PR0
        43 000165   100005 236100                    LDQ     5,,PR1
        43 000166   000022 736000                    QLS     18
        43 000167   000022 732000                    QRS     18
        43 000170   200006 116100                    CMPQ    I,,AUTO
        43 000171   000143 605400 43                 TPNZ    s:785

      277      792    3     END;

    792 43 000172   200005 054100                    AOS     E,,AUTO
        43 000173   200003 720100                    LXL0    STATE,,AUTO
        43 000174   000000 470410 36                 LDP0    C#_TO_$,X0
        43 000175   000001 236100                    LDQ     1,,PR0
        43 000176   777777 376007                    ANQ     -1,DL
        43 000177   200005 116100                    CMPQ    E,,AUTO
        43 000200   000120 605400 43                 TPNZ    s:781

      278      793
      279      794    2     C#_TO_$(STATE) -> C_SET_B.BASIS_COUNT = ITEM_CNT;

    794 43 000201   200004 721100                    LXL1    ITEM_CNT,,AUTO
        43 000202   000002 441100                    SXL1    2,,PR0

      280      795    2   MAX_BASIS_ITEMS = MAXIMUM(MAX_BASIS_ITEMS, ITEM_CNT);

    795 43 000203   200004 236100                    LDQ     ITEM_CNT,,AUTO
        43 000204   000000 116000 39                 CMPQ    MAX_BASIS_ITEMS
PL6.E3A0      #002=CALC_ITEM_NUMBERS File=LR_OCNFG.:Z8A6TSI                      SAT 08/09/97 09:36 Page:56
        43 000205   000207 605000 43                 TPL     s:795+4
        43 000206   000000 236000 39                 LDQ     MAX_BASIS_ITEMS
        43 000207   000000 756000 39                 STQ     MAX_BASIS_ITEMS

      281      796
      282      797          /* Get all closure items */
      283      798
      284      799    3     DO E = 0 TO C#_TO_$(STATE) -> C_SET_B.NR_ELEM - 1;

    799 43 000210   200005 450100                    STZ     E,,AUTO
        43 000211   000244 710000 43                 TRA     s:810+1

      285      800
      286      801    4       DO I = 0 TO C#_TO_$(STATE) -> C_SET_B.ELEM.KEY$(E)->KEY_B.W.ELEM_COUNT - 1;

    801 43 000212   200006 450100                    STZ     I,,AUTO
        43 000213   000231 710000 43                 TRA     s:809+1

      287      802
      288      803    4         IF C#_TO_$(STATE) -> C_SET_B.ELEM.KEY$(E) -> KEY_B.ELEM.DOT_POS(I) = 0 THEN

    803 43 000214   200003 720100                    LXL0    STATE,,AUTO
        43 000215   000000 470410 36                 LDP0    C#_TO_$,X0
        43 000216   200005 235100                    LDA     E,,AUTO
        43 000217   000002 735000                    ALS     2
        43 000220   000004 471505                    LDP1    4,AL,PR0
        43 000221   200006 721100                    LXL1    I,,AUTO
        43 000222   100006 722111                    LXL2    6,X1,PR1
        43 000223   000230 601000 43                 TNZ     s:809

      289      804    5           DO;

      290      805    5            C#_TO_$(STATE) -> C_SET_B.ELEM.ITEM$(E) -> ITEM_B.ELEM.ITEM#(I) = ITEM_CNT
               805                      ;

    805 43 000224   000006 473505                    LDP3    6,AL,PR0
        43 000225   200004 723100                    LXL3    ITEM_CNT,,AUTO
PL6.E3A0      #002=CALC_ITEM_NUMBERS File=LR_OCNFG.:Z8A6TSI                      SAT 08/09/97 09:36 Page:57
        43 000226   300000 743111                    STX3    0,X1,PR3

      291      806    5             ITEM_CNT = ITEM_CNT + 1;

    806 43 000227   200004 054100                    AOS     ITEM_CNT,,AUTO

      292      807    5           END;

      293      808
      294      809    4       END;

    809 43 000230   200006 054100                    AOS     I,,AUTO
        43 000231   200003 720100                    LXL0    STATE,,AUTO
        43 000232   000000 470410 36                 LDP0    C#_TO_$,X0
        43 000233   200005 235100                    LDA     E,,AUTO
        43 000234   000002 735000                    ALS     2
        43 000235   000004 471505                    LDP1    4,AL,PR0
        43 000236   100005 236100                    LDQ     5,,PR1
        43 000237   000022 736000                    QLS     18
        43 000240   000022 732000                    QRS     18
        43 000241   200006 116100                    CMPQ    I,,AUTO
        43 000242   000214 605400 43                 TPNZ    s:803

      295      810    3     END;

    810 43 000243   200005 054100                    AOS     E,,AUTO
        43 000244   000000 470410 36                 LDP0    C#_TO_$,X0
        43 000245   000001 236100                    LDQ     1,,PR0
        43 000246   777777 376007                    ANQ     -1,DL
        43 000247   200005 116100                    CMPQ    E,,AUTO
        43 000250   000212 605400 43                 TPNZ    s:801

      296      811
      297      812    2     C#_TO_$(STATE) -> C_SET_B.ITEM_COUNT = ITEM_CNT;

    812 43 000251   200004 721100                    LXL1    ITEM_CNT,,AUTO
        43 000252   000003 741100                    STX1    3,,PR0
PL6.E3A0      #002=CALC_ITEM_NUMBERS File=LR_OCNFG.:Z8A6TSI                      SAT 08/09/97 09:36 Page:58

      298      813    2   MAX_TOTAL_ITEMS = MAXIMUM(MAX_TOTAL_ITEMS, ITEM_CNT);

    813 43 000253   200004 236100                    LDQ     ITEM_CNT,,AUTO
        43 000254   000000 116000 40                 CMPQ    MAX_TOTAL_ITEMS
        43 000255   000257 605000 43                 TPL     s:813+4
        43 000256   000000 236000 40                 LDQ     MAX_TOTAL_ITEMS
        43 000257   000000 756000 40                 STQ     MAX_TOTAL_ITEMS

      299      814
      300      815    2   END;  /* DO ON STATE */

    815 43 000260   200003 054100                    AOS     STATE,,AUTO
        43 000261   200003 236100                    LDQ     STATE,,AUTO
        43 000262   000000 116000 37                 CMPQ    NR_CONFIG
        43 000263   000115 604000 43                 TMI     s:772

      301      816
      302      817        /* Calculate successor item #S */
      303      818
      304      819    2   DO STATE = 0 TO NR_CONFIG - 1;

    819 43 000264   200003 450100                    STZ     STATE,,AUTO
        43 000265   000326 710000 43                 TRA     s:831+1

      305      820
      306      821    3     DO E = 0 TO C#_TO_$(STATE) -> C_SET_B.NR_ELEM - 1;

    821 43 000266   200005 450100                    STZ     E,,AUTO
        43 000267   000317 710000 43                 TRA     s:830+1

      307      822
      308      823    3       IF C#_TO_$(STATE) -> C_SET_B.ELEM.KEY$(E) -> KEY_B.W.SYM_AFTER > 0 THEN

    823 43 000270   200003 720100                    LXL0    STATE,,AUTO
        43 000271   000000 470410 36                 LDP0    C#_TO_$,X0
        43 000272   200005 235100                    LDA     E,,AUTO
PL6.E3A0      #002=CALC_ITEM_NUMBERS File=LR_OCNFG.:Z8A6TSI                      SAT 08/09/97 09:36 Page:59
        43 000273   000002 735000                    ALS     2
        43 000274   000004 471505                    LDP1    4,AL,PR0
        43 000275   100004 235100                    LDA     4,,PR1
        43 000276   000316 604400 43                 TMOZ    s:830

      309      824    4         DO I = 0 TO C#_TO_$(STATE) -> C_SET_B.ELEM.KEY$(E) -> KEY_B.W.ELEM_COUNT - 1;

    824 43 000277   200006 450100                    STZ     I,,AUTO
        43 000300   000304 710000 43                 TRA     s:828+1

      310      825
      311      826    4           CALL FINDSUCC;

    826 43 000301   000003 701000 43                 TSX1    FINDSUCC
        43 000302   000000 011000                    NOP     0

      312      827
      313      828    4         END;

    828 43 000303   200006 054100                    AOS     I,,AUTO
        43 000304   200003 720100                    LXL0    STATE,,AUTO
        43 000305   000000 470410 36                 LDP0    C#_TO_$,X0
        43 000306   200005 235100                    LDA     E,,AUTO
        43 000307   000002 735000                    ALS     2
        43 000310   000004 471505                    LDP1    4,AL,PR0
        43 000311   100005 236100                    LDQ     5,,PR1
        43 000312   000022 736000                    QLS     18
        43 000313   000022 732000                    QRS     18
        43 000314   200006 116100                    CMPQ    I,,AUTO
        43 000315   000301 605400 43                 TPNZ    s:826

      314      829
      315      830    3     END;

    830 43 000316   200005 054100                    AOS     E,,AUTO
        43 000317   200003 720100                    LXL0    STATE,,AUTO
        43 000320   000000 470410 36                 LDP0    C#_TO_$,X0
PL6.E3A0      #002=CALC_ITEM_NUMBERS File=LR_OCNFG.:Z8A6TSI                      SAT 08/09/97 09:36 Page:60
        43 000321   000001 236100                    LDQ     1,,PR0
        43 000322   777777 376007                    ANQ     -1,DL
        43 000323   200005 116100                    CMPQ    E,,AUTO
        43 000324   000270 605400 43                 TPNZ    s:823

      316      831    2   END;

    831 43 000325   200003 054100                    AOS     STATE,,AUTO
        43 000326   200003 236100                    LDQ     STATE,,AUTO
        43 000327   000000 116000 37                 CMPQ    NR_CONFIG
        43 000330   000266 604000 43                 TMI     s:821

      317      832
      318      833    1   END CALC_ITEM_NUMBERS;

    833 43 000331   000000 702200 xent               TSX2  ! X66_ARET

PL6.E3A0      #002=CALC_ITEM_NUMBERS File=LR_OCNFG.:Z8A6TSI                      SAT 08/09/97 09:36 Page:61
--  Include file information  --

   LR_CNFG_EXT.:Z8A6TOU  cannot be made into a system file and is referenced.
   LR_IO_EXT.:Z8A6TOU  cannot be made into a system file and is referenced.
   LR_GRAM_EXT.:Z8A6TOU  cannot be made into a system file and is referenced.
      No diagnostics issued in procedure CALC_ITEM_NUMBERS.
PL6.E3A0      #002=CALC_ITEM_NUMBERS File=LR_OCNFG.:Z8A6TSI                      SAT 08/09/97 09:36 Page:62

 **** Variables and constants ****

  ****  Section 000 LblCom OUT_DCBN

  ****  Scalars and arrays  ****
OctLoc.c.b A Datatyp(siz) R M Lvl/name                 OctLoc.c.b A Datatyp(siz) R M Lvl/name

     0-0-0/w SBIN              1 OUT_DCBN

  ****  Section 006 LblCom SYM_PTRS

  ****  Scalars and arrays  ****
OctLoc.c.b A Datatyp(siz) R M Lvl/name                 OctLoc.c.b A Datatyp(siz) R M Lvl/name

     0-0-0/w PTR               1 SYM_PTRS(0:1400)

  ****  Section 007 LblCom RIGHT_PARTS

  ****  Scalars and arrays  ****
OctLoc.c.b A Datatyp(siz) R M Lvl/name                 OctLoc.c.b A Datatyp(siz) R M Lvl/name

     0-0-0/h SBIN(18)          1 RIGHT_PARTS(0:8000)

  ****  Section 008 LblCom PROD

  ****  Scalars and arrays  ****
OctLoc.c.b A Datatyp(siz) R M Lvl/name                 OctLoc.c.b A Datatyp(siz) R M Lvl/name

     0-0-0/h STRC(72)          1 PROD(0:1500)

  ****  Section 009 LblCom NR_PROD

  ****  Scalars and arrays  ****
OctLoc.c.b A Datatyp(siz) R M Lvl/name                 OctLoc.c.b A Datatyp(siz) R M Lvl/name

     0-0-0/w SBIN              1 NR_PROD

PL6.E3A0      #002=CALC_ITEM_NUMBERS File=LR_OCNFG.:Z8A6TSI                      SAT 08/09/97 09:36 Page:63
  ****  Section 010 LblCom NR_SYMS

  ****  Scalars and arrays  ****
OctLoc.c.b A Datatyp(siz) R M Lvl/name                 OctLoc.c.b A Datatyp(siz) R M Lvl/name

     0-0-0/w SBIN              1 NR_SYMS

  ****  Section 011 LblCom NR_TERM

  ****  Scalars and arrays  ****
OctLoc.c.b A Datatyp(siz) R M Lvl/name                 OctLoc.c.b A Datatyp(siz) R M Lvl/name

     0-0-0/w SBIN              1 NR_TERM

  ****  Section 012 LblCom LAST_ACT

  ****  Scalars and arrays  ****
OctLoc.c.b A Datatyp(siz) R M Lvl/name                 OctLoc.c.b A Datatyp(siz) R M Lvl/name

     0-0-0/w SBIN              1 LAST_ACT

  ****  Section 013 LblCom LAST_NULL

  ****  Scalars and arrays  ****
OctLoc.c.b A Datatyp(siz) R M Lvl/name                 OctLoc.c.b A Datatyp(siz) R M Lvl/name

     0-0-0/w SBIN              1 LAST_NULL

  ****  Section 014 LblCom NR_ONRIGHT

  ****  Scalars and arrays  ****
OctLoc.c.b A Datatyp(siz) R M Lvl/name                 OctLoc.c.b A Datatyp(siz) R M Lvl/name

     0-0-0/w SBIN              1 NR_ONRIGHT

  ****  Section 015 LblCom NR_NT

PL6.E3A0      #002=CALC_ITEM_NUMBERS File=LR_OCNFG.:Z8A6TSI                      SAT 08/09/97 09:36 Page:64
  ****  Scalars and arrays  ****
OctLoc.c.b A Datatyp(siz) R M Lvl/name                 OctLoc.c.b A Datatyp(siz) R M Lvl/name

     0-0-0/w SBIN              1 NR_NT

  ****  Section 016 LblCom PROD_LEN_MAX_EVER

  ****  Scalars and arrays  ****
OctLoc.c.b A Datatyp(siz) R M Lvl/name                 OctLoc.c.b A Datatyp(siz) R M Lvl/name

     0-0-0/w SBIN              1 PROD_LEN_MAX_EVER

  ****  Section 017 LblCom LAST_ORDER_SPECIFIED

  ****  Scalars and arrays  ****
OctLoc.c.b A Datatyp(siz) R M Lvl/name                 OctLoc.c.b A Datatyp(siz) R M Lvl/name

     0-0-0/w SBIN              1 LAST_ORDER_SPECIFIED

  ****  Section 018 LblCom SEMANTIC_ORDERING

  ****  Scalars and arrays  ****
OctLoc.c.b A Datatyp(siz) R M Lvl/name                 OctLoc.c.b A Datatyp(siz) R M Lvl/name

     0-0-0/b BIT               1 SEMANTIC_ORDERING

  ****  Section 019 LblCom ERR_SEV

  ****  Scalars and arrays  ****
OctLoc.c.b A Datatyp(siz) R M Lvl/name                 OctLoc.c.b A Datatyp(siz) R M Lvl/name

     0-0-0/w SBIN              1 ERR_SEV

  ****  Section 020 LblCom SET_LENGTHB

  ****  Scalars and arrays  ****
OctLoc.c.b A Datatyp(siz) R M Lvl/name                 OctLoc.c.b A Datatyp(siz) R M Lvl/name
PL6.E3A0      #002=CALC_ITEM_NUMBERS File=LR_OCNFG.:Z8A6TSI                      SAT 08/09/97 09:36 Page:65

     0-0-0/w SBIN              1 SET_LENGTHB

  ****  Section 021 LblCom SET_LENGTHW

  ****  Scalars and arrays  ****
OctLoc.c.b A Datatyp(siz) R M Lvl/name                 OctLoc.c.b A Datatyp(siz) R M Lvl/name

     0-0-0/w SBIN              1 SET_LENGTHW

  ****  Section 022 LblCom EOF_SYMBOL_PTR

  ****  Scalars and arrays  ****
OctLoc.c.b A Datatyp(siz) R M Lvl/name                 OctLoc.c.b A Datatyp(siz) R M Lvl/name

     0-0-0/w PTR               1 EOF_SYMBOL_PTR

  ****  Section 023 LblCom ERROR_SYMBOL_PTR

  ****  Scalars and arrays  ****
OctLoc.c.b A Datatyp(siz) R M Lvl/name                 OctLoc.c.b A Datatyp(siz) R M Lvl/name

     0-0-0/w PTR               1 ERROR_SYMBOL_PTR

  ****  Section 024 LblCom BOF_SYMBOL_PTR

  ****  Scalars and arrays  ****
OctLoc.c.b A Datatyp(siz) R M Lvl/name                 OctLoc.c.b A Datatyp(siz) R M Lvl/name

     0-0-0/w PTR               1 BOF_SYMBOL_PTR

  ****  Section 025 LblCom OPTIONS

  ****  Scalars and arrays  ****
OctLoc.c.b A Datatyp(siz) R M Lvl/name                 OctLoc.c.b A Datatyp(siz) R M Lvl/name

     0-0-0/b BIT               1 OPTIONS(0:25)
PL6.E3A0      #002=CALC_ITEM_NUMBERS File=LR_OCNFG.:Z8A6TSI                      SAT 08/09/97 09:36 Page:66

  ****  Section 026 LblCom OPTIONS_TEXT

  ****  Scalars and arrays  ****
OctLoc.c.b A Datatyp(siz) R M Lvl/name                 OctLoc.c.b A Datatyp(siz) R M Lvl/name

     0-0-0/c CHAR(4)           1 OPTIONS_TEXT(0:25)

  ****  Section 027 LblCom INSTR

  ****  Scalars and arrays  ****
OctLoc.c.b A Datatyp(siz) R M Lvl/name                 OctLoc.c.b A Datatyp(siz) R M Lvl/name

     0-0-0/c CHAR              1 INSTR(0:511)               0-0-0/c CHAR(512)         1 INSTRCHR

  ****  Section 028 LblCom INSTR_LISTED

  ****  Scalars and arrays  ****
OctLoc.c.b A Datatyp(siz) R M Lvl/name                 OctLoc.c.b A Datatyp(siz) R M Lvl/name

     0-0-0/b BIT               1 INSTR_LISTED

  ****  Section 029 LblCom INSTR_LEN

  ****  Scalars and arrays  ****
OctLoc.c.b A Datatyp(siz) R M Lvl/name                 OctLoc.c.b A Datatyp(siz) R M Lvl/name

     0-0-0/w SBIN              1 INSTR_LEN

  ****  Section 030 LblCom INSTR_INDX

  ****  Scalars and arrays  ****
OctLoc.c.b A Datatyp(siz) R M Lvl/name                 OctLoc.c.b A Datatyp(siz) R M Lvl/name

     0-0-0/w SBIN              1 INSTR_INDX

  ****  Section 031 LblCom EOF_FLAG
PL6.E3A0      #002=CALC_ITEM_NUMBERS File=LR_OCNFG.:Z8A6TSI                      SAT 08/09/97 09:36 Page:67

  ****  Scalars and arrays  ****
OctLoc.c.b A Datatyp(siz) R M Lvl/name                 OctLoc.c.b A Datatyp(siz) R M Lvl/name

     0-0-0/b BIT               1 EOF_FLAG

  ****  Section 032 LblCom KEY_REC

  ****  Scalars and arrays  ****
OctLoc.c.b A Datatyp(siz) R M Lvl/name                 OctLoc.c.b A Datatyp(siz) R M Lvl/name

     0-0-0/c CHAR(10)          1 KEY_REC

  ****  Section 033 LblCom LINE

  ****  Scalars and arrays  ****
OctLoc.c.b A Datatyp(siz) R M Lvl/name                 OctLoc.c.b A Datatyp(siz) R M Lvl/name

     0-0-0/c CHAR(109)         1 LINE

  ****  Section 034 LblCom LINELEN

  ****  Scalars and arrays  ****
OctLoc.c.b A Datatyp(siz) R M Lvl/name                 OctLoc.c.b A Datatyp(siz) R M Lvl/name

     0-0-0/w SBIN              1 LINELEN

  ****  Section 035 LblCom TSTATS

  ****  Scalars and arrays  ****
OctLoc.c.b A Datatyp(siz) R M Lvl/name                 OctLoc.c.b A Datatyp(siz) R M Lvl/name

     0-0-0/w STRC(7380)        1 TSTATS

  ****  Section 036 LblCom C#_TO_$

  ****  Scalars and arrays  ****
PL6.E3A0      #002=CALC_ITEM_NUMBERS File=LR_OCNFG.:Z8A6TSI                      SAT 08/09/97 09:36 Page:68
OctLoc.c.b A Datatyp(siz) R M Lvl/name                 OctLoc.c.b A Datatyp(siz) R M Lvl/name

     0-0-0/w PTR         r     1 C#_TO_$(0:2200)

  ****  Section 037 LblCom NR_CONFIG

  ****  Scalars and arrays  ****
OctLoc.c.b A Datatyp(siz) R M Lvl/name                 OctLoc.c.b A Datatyp(siz) R M Lvl/name

     0-0-0/w SBIN        r     1 NR_CONFIG

  ****  Section 038 LblCom INIT_CONFIG

  ****  Scalars and arrays  ****
OctLoc.c.b A Datatyp(siz) R M Lvl/name                 OctLoc.c.b A Datatyp(siz) R M Lvl/name

     0-0-0/w SBIN              1 INIT_CONFIG

  ****  Section 039 LblCom MAX_BASIS_ITEMS

  ****  Scalars and arrays  ****
OctLoc.c.b A Datatyp(siz) R M Lvl/name                 OctLoc.c.b A Datatyp(siz) R M Lvl/name

     0-0-0/w SBIN        r     1 MAX_BASIS_ITEMS

  ****  Section 040 LblCom MAX_TOTAL_ITEMS

  ****  Scalars and arrays  ****
OctLoc.c.b A Datatyp(siz) R M Lvl/name                 OctLoc.c.b A Datatyp(siz) R M Lvl/name

     0-0-0/w SBIN        r     1 MAX_TOTAL_ITEMS

  ****  Section 041 LblCom LAST_BINSRCH_ONLY

  ****  Scalars and arrays  ****
OctLoc.c.b A Datatyp(siz) R M Lvl/name                 OctLoc.c.b A Datatyp(siz) R M Lvl/name

PL6.E3A0      #002=CALC_ITEM_NUMBERS File=LR_OCNFG.:Z8A6TSI                      SAT 08/09/97 09:36 Page:69
     0-0-0/w SBIN              1 LAST_BINSRCH_ONLY

  ****  Section 042 LblCom LAST_BOTH_BITBIN

  ****  Scalars and arrays  ****
OctLoc.c.b A Datatyp(siz) R M Lvl/name                 OctLoc.c.b A Datatyp(siz) R M Lvl/name

     0-0-0/w SBIN              1 LAST_BOTH_BITBIN

  ****  Auto variables  ****

  ****  Scalars and arrays  ****
OctLoc.c.b A Datatyp(siz) R M Lvl/name                 OctLoc.c.b A Datatyp(siz) R M Lvl/name

     5-0-0/w SBIN        r     1 E                         12-0-0/w SBIN        r     1 E2
     6-0-0/w SBIN        r     1 I                         13-0-0/w SBIN        r     1 I2
     4-0-0/w SBIN        r     1 ITEM_CNT                  14-0-0/w UBIN(18)    r     1 NEW_DOT_POS
    15-0-0/w UBIN(18)    r     1 PROD                       3-0-0/w SBIN        r     1 STATE
    16-0-0/b BIT         r     1 SUCC_FOUND                11-0-0/w PTR         r     1 SUCC_STATE_P

  ****  BASED and DCB variables  ****

  ****  Scalars and arrays  ****
OctLoc.c.b A Datatyp(siz) R M Lvl/name                 OctLoc.c.b A Datatyp(siz) R M Lvl/name

     0-0-0/w STRC(57888) r     1 C_SET_B                    0-0-0/w STRC(72)          1 INCLUDES_B
     0-0-0/w STRC(144)         1 INCL_B                     0-0-0/w STRC(5436)  r     1 ITEM_B
     0-0-0/w STRC(5652)  r     1 KEY_B                      0-0-0N  NULL        r     1 M$LO
     0-0-0N  NULL        r     1 M$OU                       0-0-0N  NULL        r     1 M$SI
     0-0-0N  NULL        r     1 M$SO                       0-0-0N  NULL        r     1 M$UI
     0-0-0/w STRC(351)         1 SYMBOL


   Procedure CALC_ITEM_NUMBERS requires 218 words for executable code.
   Procedure CALC_ITEM_NUMBERS requires 20 words of local(AUTO) storage.
PL6.E3A0      #002=CALC_ITEM_NUMBERS File=LR_OCNFG.:Z8A6TSI                      SAT 08/09/97 09:36 Page:70

    No errors detected in file LR_OCNFG.:Z8A6TSI    .
