VERSION A06

PL6.E3A0      #001=TABLES File=LR_TABLE.:Z8A6TSI                                 SAT 08/09/97 09:37 Page:1
        1        1        /*M* TABLE => CALCULATE AND OUTPUT THE PARSE TABLES */
        2        2        /*T***********************************************************/
        3        3        /*T*                                                         */
        4        4        /*T* Copyright (c) Bull HN Information Systems Inc., 1997    */
        5        5        /*T*                                                         */
        6        6        /*T***********************************************************/
        7        7
        8        8
        9        9
       10       10        TABLES: PROC;
       11       11
       12       12        /*D*
       13       13               NAME: TABLES
       14       14            PURPOSE: CALCULATE AND OUTPUT THE PARSE TABLES
       15       15        */
       16       16
       17       17
       18       18        %INCLUDE LR_GRAM_EXT;
       19      557        %INCLUDE LR_CNFG_EXT;
       20      710
       21      711    1   DCL DIAG                 ENTRY(6);
       22      712    1   DCL OUT_STR              ENTRY(2);
       23      713    1   DCL OUT_TOKEN            ENTRY(2);
       24      714    1   DCL FLUSH                ENTRY;
       25      715    1   DCL OUT_DEC              ENTRY(1);
       26      716    1   DCL OUTPUT_PARSE_SYMREFS ENTRY;
       27      717    1   DCL OUT_SYMBOL ENTRY(1);
       28      718    1   DCL OUT_SYMBOL_TOKEN ENTRY(1);
       29      719    1   DCL OUTPUT_TERMINAL_STRINGS ENTRY;
       30      720
       31      721
       32      722        /* This module will output to two files both
       33      723           the tables generated for the grammar and
       34      724           a set of %equ's and symref's to use those
       35      725           tables */
       36      726
       37      727
PL6.E3A0      #001=TABLES File=LR_TABLE.:Z8A6TSI                                 SAT 08/09/97 09:37 Page:2
       38      728        %SUB UNIQUE_FINAL_STATE = 99999;
       39      729
       40      730
       41      731
       42      732
       43      733
       44      734    1   DCL 1 STATE (0:%NR_CONFIG_MAX),
       45      735    1         2 DEFAULT_ACTION SBIN HALF HALIGNED,
       46      736    1         2 BASE           SBIN HALF HALIGNED;   /* INTO ACTIONS */
       47      737
       48      738    1   DCL 1 GOTO_ (0:NR_SYMS_MAX),
       49      739    1         2 DEFAULT_ACTION SBIN HALF HALIGNED,
       50      740    1         2 BASE SBIN HALF HALIGNED;  /* INTO GOTO_LIST */
       51      741
       52      742        %EQU MAX_NC_LEN = MAX(13*NR_SYMS_MAX, 13*NR_CONFIG_MAX);
       53      743
       54      744        /* NEXT_CHECK IS USED BY BOTH THE ACTION & GOTO ROUTINES  TO BUILD
       55      745           THE FSM STRUCTURE. */
       56      746    1   DCL 1 NEXT_CHECK (0:%MAX_NC_LEN),
       57      747    1         2 NEXT  SBIN HALF HALIGNED,
       58      748    1         2 CHECK SBIN HALF HALIGNED;
       59      749    1   DCL 1 NEXT_CHECK_CLEAR REDEF NEXT_CHECK,
       60      750    1         2 B (0:%MAX_NC_LEN) BIT(36);
       61      751
       62      752    1   DCL NEXT_CHECK_LEN SBIN WORD;
       63      753
       64      754        %EJECT;
PL6.E3A0      #001=TABLES File=LR_TABLE.:Z8A6TSI                                 SAT 08/09/97 09:37 Page:3
       65      755    1   OUT_EQU:PROC(STR,LEN,N);
       66      756
       67      757    2   DCL LEN SBIN;
       68      758    2   DCL STR CHAR(12);
       69      759    2   DCL N SBIN;
       70      760
       71      761
       72      762        /* STR & LEN DEFINE A NAME TO BE USED FOR A CONSTANT DECLARATION */
       73      763
       74      764    2           CALL FLUSH;
       75      765
       76      766                %OUT_STR(S="'%EQU '");
       77      769
       78      770    2           CALL OUT_STR(STR,LEN);
       79      771
       80      772                %OUT_STR(S="'='");
       81      775
       82      776    2           CALL OUT_DEC(N);
       83      777
       84      778                %OUTLINE(S="';'");
       85      784    2   END OUT_EQU;
       86      785
       87      786        %EJECT;
PL6.E3A0      #001=TABLES File=LR_TABLE.:Z8A6TSI                                 SAT 08/09/97 09:37 Page:4
       88      787    1   OUTPUT_ACTIONS : PROC;
       89      788
       90      789        /* Go thru all actions and output a list of PL6
       91      790           EQUS which will associate integers with the names
       92      791           of the actions.  These names should be used in a
       93      792           CASE statement in the parser to execute the
       94      793           appropriate semantic actions.
       95      794        */
       96      795
       97      796    2   DCL I          SBIN WORD;
       98      797    2   DCL ACTION_NUM SBIN WORD;
       99      798    2   DCL ACTION_VAL SBIN WORD;
      100      799
      101      800        %SELECT_SUBS;
      102      803
      103      804    2   ACTION_NUM = 0;
      104      805
      105      806        %OUTLINE(S="'/* Actions */'");
      106      812        %OUTLINE(S="' '");
      107      818
      108      819    3   DO I = NR_NT+1 TO LAST_ACT;
      109      820
      110      821    3     ACTION_NUM = ACTION_NUM + 1;
      111      822    3     IF SYM_PTRS(I) -> SYMBOL.ORDER_SPECIFIED THEN
      112      823    4       DO;
      113      824    4         ACTION_VAL = SYM_PTRS(I) -> SYMBOL.ORDER;
      114      825    4         CALL OUT_EQU (SUBSTR(SYM_PTRS(I) -> SYMBOL.TEXTCHR,
      115      826    4                              1,
      116      827    4                              SYM_PTRS(I) -> SYMBOL.SYMLEN - 2),
      117      828    4                       SYM_PTRS(I) -> SYMBOL.SYMLEN - 2,
      118      829    4                       ACTION_VAL);
      119      830              %BOUNDS(T=SEM, V=ACTION_VAL);
      120      836    4       END;
      121      837    3     ELSE
      122      838    4       DO;
      123      839    4         CALL OUT_EQU (SUBSTR(SYM_PTRS(I)->SYMBOL.TEXTCHR,
      124      840    4                               1,
PL6.E3A0      #001=TABLES File=LR_TABLE.:Z8A6TSI                                 SAT 08/09/97 09:37 Page:5
      125      841    4                               SYM_PTRS(I)->SYMBOL.SYMLEN-2),
      126      842    4                       SYM_PTRS(I) -> SYMBOL.SYMLEN-2,
      127      843    4                       ACTION_NUM);
      128      844              %BOUNDS(T=SEM, V=ACTION_NUM);
      129      850    4       END;
      130      851
      131      852    3   END;
      132      853
      133      854        %OUTLINE(S="' '");
      134      860
      135      861
      136      862    2   END OUTPUT_ACTIONS;
      137      863        %EJECT;
PL6.E3A0      #001=TABLES File=LR_TABLE.:Z8A6TSI                                 SAT 08/09/97 09:37 Page:6
      138      864    1   OUTPUT_TERM_INFO : PROC;
      139      865
      140      866        /* This module will output equates corresponding to certain
      141      867           important terminals, including EOF & ERROR, so that
      142      868           the parser may use them.
      143      869        */
      144      870
      145      871        %SELECT_SUBS;
      146      874
      147      875        /* output EOF */
      148      876
      149      877        %OUT_STR(S="'%EQU TERM_EOF_SYM = '");
      150      880    2   CALL OUT_DEC(EOF_SYMBOL_PTR -> SYMBOL.SYM_INDX);
      151      881        %OUT_STR(S="';'");
      152      884    2   CALL FLUSH;
      153      885
      154      886        /* output error, if present */
      155      887
      156      888        %OUT_STR(S="'%EQU TERM_ERROR_SYM = '");
      157      891    2   IF ERROR_SYMBOL_PTR = ADDR(NIL) THEN
      158      892    2     CALL OUT_DEC(0);
      159      893    2   ELSE
      160      894    2     CALL OUT_DEC(ERROR_SYMBOL_PTR -> SYMBOL.SYM_INDX);
      161      895        %OUT_STR(S="';'");
      162      898    2   CALL FLUSH;
      163      899
      164      900    2   IF OPTIONS(AN_OPT) THEN
      165      901          %OUTLINE(S="'%EQU ACTIONS_NUMERIC_OPT = ''1''B;'");
      166      907    2   ELSE
      167      908          %OUTLINE(S="'%EQU ACTIONS_NUMERIC_OPT = ''0''B;'");
      168      914
      169      915    2   END OUTPUT_TERM_INFO;
      170      916        %EJECT;
PL6.E3A0      #001=TABLES File=LR_TABLE.:Z8A6TSI                                 SAT 08/09/97 09:37 Page:7
      171      917    1   OUTPUT_PRODUCTIONS : PROC;
      172      918
      173      919        /* This routine will output a table of production information
      174      920           for use by the parser.  This information includes the
      175      921           number of states to be popped off the state stack
      176      922           upon a reduction, along with the number of terminals
      177      923           that may be required to be popped off the token stack.
      178      924           The semantic action to be performed upon a reduction is
      179      925           also given.
      180      926        */
      181      927
      182      928    2   DCL NUM_RED_STACK SBIN WORD;
      183      929    2   DCL I             SBIN WORD;
      184      930    2   DCL R             SBIN WORD;
      185      931
      186      932
      187      933
      188      934        %EJECT;
PL6.E3A0      #001=TABLES File=LR_TABLE.:Z8A6TSI                                 SAT 08/09/97 09:37 Page:8
      189      935    2   CALC_PROD_INFO : PROC (N);  /* OF OUTPUT_PRODUCTIONS */
      190      936
      191      937        /* Calculate the number of states to be popped and the
      192      938           number of terminals to be popped in a reduce operation.
      193      939        */
      194      940
      195      941    3   DCL I SBIN WORD;
      196      942    3   DCL N SBIN WORD;  /* Production Number */
      197      943
      198      944    3   NUM_RED_STACK = 0;
      199      945
      200      946    3   IF SYM_PTRS(PROD.GOAL_SYM_INDX(N)) -> SYMBOL.SYM_TYPE ~= SYM_TYPE_ACT THEN
      201      947    4     DO;
      202      948
      203      949    4       NUM_RED_STACK = PROD.RIGHT_CNT(N);
      204      950    4   END;
      205      951
      206      952    3   END CALC_PROD_INFO;
      207      953        %EJECT;
PL6.E3A0      #001=TABLES File=LR_TABLE.:Z8A6TSI                                 SAT 08/09/97 09:37 Page:9
      208      954    2   NUM_ACT : PROC (SYM$);
      209      955
      210      956    3     DCL SYM$ PTR;
      211      957
      212      958    3     IF SYM$ -> SYMBOL.ORDER_SPECIFIED THEN
      213      959    3       CALL OUT_DEC (BINBIT(SYM$ -> SYMBOL.ORDER, 36));
      214      960    3     ELSE
      215      961    3       CALL OUT_DEC(SYM$ -> SYMBOL.SYM_INDX - NR_NT);
      216      962    3   END NUM_ACT;
      217      963        %EJECT;
PL6.E3A0      #001=TABLES File=LR_TABLE.:Z8A6TSI                                 SAT 08/09/97 09:37 Page:10
      218      964            /* Main body of OUTPUT_PRODUCTIONS */
      219      965
      220      966
      221      967        %SELECT_OU;
      222      970
      223      971        /* Output header for declaration */
      224      972
      225      973        %OUTLINE(S="'%START_TABLE_PRODR;'");
      226      979
      227      980    3   DO I = 0 TO NR_PROD-1;
      228      981
      229      982          %OUT_STR(S="'  /* '");
      230      985    3     CALL OUT_DEC(I + 1);
      231      986          %OUT_STR(S="' '");
      232      989    3     CALL OUT_SYMBOL(SYM_PTRS(PROD.GOAL_SYM_INDX(I)));
      233      990          %OUT_STR(S="' ::='");
      234      993    4     DO R = 1 TO PROD.RIGHT_CNT(I);
      235      994    4       CALL OUT_SYMBOL_TOKEN(SYM_PTRS(RIGHT_PARTS(PROD.RIGHT_START(I) + R - 1)));
      236      995    4     END;
      237      996
      238      997    3     IF PROD.TRAILING_SEM_ACT(I) THEN
      239      998    3       CALL OUT_SYMBOL_TOKEN(SYM_PTRS(RIGHT_PARTS(PROD.RIGHT_START(I) +
      240      999    3                            PROD.RIGHT_CNT(I))));
      241     1000
      242     1001          %OUT_STR(S="' */'");
      243     1004    3     CALL FLUSH;
      244     1005
      245     1006    3     CALL CALC_PROD_INFO(I);
      246     1007          %OUT_STR(S="'    %PRODM(GOAL='");
      247     1010    3     CALL OUT_DEC(PROD.GOAL_SYM_INDX(I) - NR_TERM);
      248     1011
      249     1012          %BOUNDS(T=GOAL, V="PROD.GOAL_SYM_INDX(I) - NR_TERM");
      250     1018
      251     1019          %OUT_STR(S="',PSS='");
      252     1022    3     CALL OUT_DEC(NUM_RED_STACK);
      253     1023
      254     1024          %BOUNDS(T=PSS, V=NUM_RED_STACK);
PL6.E3A0      #001=TABLES File=LR_TABLE.:Z8A6TSI                                 SAT 08/09/97 09:37 Page:11
      255     1030
      256     1031          %OUT_STR(S="',SEM='");
      257     1034    3     IF SYM_PTRS(PROD.GOAL_SYM_INDX(I))->SYMBOL.SYM_TYPE = SYM_TYPE_ACT THEN
      258     1035    4       DO;
      259     1036    4         IF OPTIONS(AN_OPT) THEN
      260     1037    4           CALL NUM_ACT(SYM_PTRS(PROD.GOAL_SYM_INDX(I)));
      261     1038    4         ELSE
      262     1039    5           DO;
      263     1040                  %OUT_STR(S="'%'");
      264     1043    5             CALL OUT_STR(SUBSTR(SYM_PTRS(PROD.GOAL_SYM_INDX(I))->SYMBOL.TEXTCHR,
      265     1044    5                                 1,
      266     1045    5                                 SYM_PTRS(PROD.GOAL_SYM_INDX(I)) -> SYMBOL.SYMLEN-2),
      267     1046    5                          SYM_PTRS(PROD.GOAL_SYM_INDX(I))->SYMBOL.SYMLEN - 2);
      268     1047    5           END;
      269     1048    4       END;
      270     1049    3     ELSE
      271     1050    3       IF PROD.TRAILING_SEM_ACT(I) THEN
      272     1051    4         DO;
      273     1052    4           IF OPTIONS(AN_OPT) THEN
      274     1053    4             CALL NUM_ACT(SYM_PTRS(RIGHT_PARTS(PROD.RIGHT_START(I) + PROD.RIGHT_CNT(I))
              1053                      ));
      275     1054    4           ELSE
      276     1055    5             DO;
      277     1056                    %OUT_STR(S="'%'");
      278     1059    5               CALL OUT_STR(SUBSTR(SYM_PTRS(RIGHT_PARTS(PROD.RIGHT_START(I) +
      279     1060    5                                         PROD.RIGHT_CNT(I))) -> SYMBOL.TEXTCHR,
      280     1061    5                                   1,
      281     1062    5                                   SYM_PTRS(RIGHT_PARTS(PROD.RIGHT_START(I) +
      282     1063    5                                   PROD.RIGHT_CNT(I)))-> SYMBOL.SYMLEN -2),
      283     1064    5                      SYM_PTRS(RIGHT_PARTS(PROD.RIGHT_START(I) +
      284     1065    5                                  PROD.RIGHT_CNT(I))) -> SYMBOL.SYMLEN - 2);
      285     1066    5             END;
      286     1067    4         END;
      287     1068    3     ELSE
      288     1069    3       CALL OUT_DEC (0);
      289     1070          %OUT_STR(S="');'");
      290     1073    3     CALL FLUSH;
PL6.E3A0      #001=TABLES File=LR_TABLE.:Z8A6TSI                                 SAT 08/09/97 09:37 Page:12
      291     1074
      292     1075    3   END;
      293     1076
      294     1077        %OUTLINE(S="'%END_TABLE_PRODR;'");
      295     1083
      296     1084        %SELECT_SUBS;
      297     1087
      298     1088        %OUT_STR(S="'%EQU PRODR_LEN = '");
      299     1091    2   CALL OUT_DEC(NR_PROD);
      300     1092        %OUTLINE(S="';'");
      301     1098    2   CALL FLUSH;
      302     1099
      303     1100        %STAT_LENGTH(T=GOAL,V="NR_PROD+1");
      304     1103        %STAT_LENGTH(T=PSS,V="NR_PROD+1");
      305     1106        %STAT_LENGTH(T=SEM,V="NR_PROD+1");
      306     1109
      307     1110    2   END OUTPUT_PRODUCTIONS;
      308     1111        %EJECT;
PL6.E3A0      #001=TABLES File=LR_TABLE.:Z8A6TSI                                 SAT 08/09/97 09:37 Page:13
      309     1112    1   INSERT_SLICE_IN_ARRAY : PROC (INDX, DEFAULT, SLICE, SLICELEN, DEF_BASE, MAX_INDX);
      310     1113
      311     1114        /* INSERT_SLICE_IN_ARRAY WILL ACCEPT SPECIFICATIONS FOR
      312     1115           ENCODING AN ENTRY INTO THE TRANSITION TABLE.  FOR A DESCRIPTION
      313     1116           OF THIS TECHNIQUE, SEE AHO & ULLMAN - PRINCIPLES OF
      314     1117           COMPILER DESIGN, SECTIONS 6.8 & 3.8.
      315     1118
      316     1119           THE PARAMETERS TO THIS PROCEDURE INCLUDE:
      317     1120
      318     1121             INDX
      319     1122                  - THE INDEX INTO THE DEF_BASE ARRAY AT WHICH TO INSERT
      320     1123                    THE ENTRY.
      321     1124
      322     1125             DEFAULT
      323     1126                  - THE DEFAULT ACTION TO TAKE BY THE PARSER.  THIS VALUE
      324     1127                    IS INSERTED INTO THE DEF_BASE ARRAY AT ELEMENT INDEX.
      325     1128
      326     1129             SLICE
      327     1130                  - THE SLICE ARRAY ENCODES THE ACTIONS TO BE TAKEN BY
      328     1131                    THE PARSER UPON RECOGNITION OF CERTAIN INDICIES.  THE
      329     1132                    SLICE ARRAY IS INSERTED INTO NULL ELEMENTS OF
      330     1133                    THE NEXT_CHECK STRUCTURE.  THE BASE OF THE DEF_BASE
      331     1134                    ARRAY WILL POINT TO THE INDEX INTO THE NEXT_CHECK
      332     1135                    STRUCTURE WHERE THE SLICE WAS INSERTED.
      333     1136
      334     1137             SLICELEN
      335     1138                  - LENGTH OF THE ARRAY SLICE.
      336     1139
      337     1140            DEF_BASE
      338     1141                  - THE DEF_BASE ARRAY ENCODES THE DEFAULT AND BASE
      339     1142                    INDEX INTO THE NEXT_CHECK STRUCTURE.
      340     1143
      341     1144            MAX_INDX
      342     1145                  - The maximum index into the array which may be checked
      343     1146                    during the parse.
      344     1147
      345     1148        */
PL6.E3A0      #001=TABLES File=LR_TABLE.:Z8A6TSI                                 SAT 08/09/97 09:37 Page:14
      346     1149
      347     1150    2   DCL 1 DEF_BASE (0:%NR_CONFIG_MAX) ALIGNED,
      348     1151    2         2 DEFAULT SBIN HALF HALIGNED,
      349     1152    2         2 BASE    SBIN HALF HALIGNED;
      350     1153
      351     1154    2   DCL INDX     SBIN WORD;
      352     1155    2   DCL DEFAULT  SBIN WORD;
      353     1156    2   DCL SLICELEN SBIN WORD;
      354     1157    2   DCL MAX_INDX SBIN WORD;
      355     1158
      356     1159    2   DCL 1 SLICE (0:0),   /* VARIABLE LENGTH*/
      357     1160    2         2 INDX SBIN HALF,
      358     1161    2         2 VAL SBIN HALF;
      359     1162
      360     1163
      361     1164    2   DCL BASE_FOUND_NUM SBIN WORD;  /* BASE FOUND BY MATCH SLICE */
      362     1165
      363     1166
      364     1167
      365     1168
      366     1169        %EJECT;
PL6.E3A0      #001=TABLES File=LR_TABLE.:Z8A6TSI                                 SAT 08/09/97 09:37 Page:15
      367     1170    2   TRANSFER_SLICE : PROC;  /* IN INSERT_SLICE_IN_ARRAY */
      368     1171
      369     1172        /* A SLICE HAS BEEN MATCHED AGAINST THE NEXT_CHECK ARRAY.  WE
      370     1173           NOW NEED TO TRANSFER ITS CONTENTS.
      371     1174        */
      372     1175
      373     1176    3   DCL I SBIN WORD;
      374     1177
      375     1178        %MACRO ENSURE_NC_LEN (N=0);
      376     1179
      377     1180          DO;
      378     1181            IF NEXT_CHECK_LEN < BASE_FOUND_NUM + SLICE.INDX(I) THEN
      379     1182              NEXT_CHECK_LEN = BASE_FOUND_NUM + SLICE.INDX(I);
      380     1183            IF NEXT_CHECK_LEN > %MAX_NC_LEN THEN
      381     1184             CALL DIAG (15,'ERROR => Output ACTION table overflow.%%');
      382     1185          END;
      383     1186
      384     1187        %MEND;
      385     1188
      386     1189
      387     1190
      388     1191    4   DO I = 1 TO SLICELEN;
      389     1192
      390     1193    4         IF NOT (SLICE.VAL(I) = UNIQUE_FINAL_STATE) THEN
      391     1194                /* IF FINAL STATE, LEAVE NEXT AT ZERO */
      392     1195    5           DO;
      393     1196                %ENSURE_NC_LEN;
      394     1204    5             NEXT_CHECK.NEXT(BASE_FOUND_NUM + SLICE.INDX(I)) = SLICE.VAL(I);
      395     1205    5           END;
      396     1206    4         NEXT_CHECK.CHECK(BASE_FOUND_NUM + SLICE.INDX(I)) = INDX;
      397     1207
      398     1208    4   END;
      399     1209
      400     1210    3   IF NEXT_CHECK_LEN < BASE_FOUND_NUM + MAX_INDX THEN
      401     1211    3     NEXT_CHECK_LEN = BASE_FOUND_NUM + MAX_INDX;
      402     1212    3   IF NEXT_CHECK_LEN > %MAX_NC_LEN THEN
      403     1213    3     CALL DIAG (15, 'ERROR => Output action table overflow.%%');
PL6.E3A0      #001=TABLES File=LR_TABLE.:Z8A6TSI                                 SAT 08/09/97 09:37 Page:16
      404     1214
      405     1215    3   END TRANSFER_SLICE;
      406     1216
      407     1217
      408     1218        %EJECT;
PL6.E3A0      #001=TABLES File=LR_TABLE.:Z8A6TSI                                 SAT 08/09/97 09:37 Page:17
      409     1219    2   MATCH_SLICE : PROC;  /* IN INSERT_SLICE_IN_ARRAY */
      410     1220
      411     1221        /* TAKE THE SLICE AND MATCH IT UP WITH ALL ELEMENTS IN NEXT_CHECK.
      412     1222           RETURN BASE_FOUND_NUM .
      413     1223        */
      414     1224
      415     1225    3   DCL I SBIN WORD;
      416     1226
      417     1227    3   BASE_FOUND_NUM = 0;
      418     1228
      419     1229
      420     1230    4   DO WHILE ('1'B);
      421     1231
      422     1232    4     BASE_FOUND_NUM = BASE_FOUND_NUM + 1;
      423     1233    4     I = 1;
      424     1234
      425     1235    4     IF BASE_FOUND_NUM + SLICE.INDX(I) > %MAX_NC_LEN THEN
      426     1236    4       CALL DIAG(15,'ERROR => Output ACTION Table Overflow%%');
      427     1237
      428     1238    5     DO WHILE NEXT_CHECK_CLEAR.B(SLICE.INDX(I) + BASE_FOUND_NUM) = '0'B;
      429     1239
      430     1240    5       I = I + 1;
      431     1241    5       IF I > SLICELEN THEN
      432     1242    5         RETURN;   /* Found Base */
      433     1243
      434     1244    5       IF BASE_FOUND_NUM + SLICE.INDX(I) > %MAX_NC_LEN THEN
      435     1245    5         CALL DIAG(15,'ERROR => Output ACTION Table Overflow%%');
      436     1246
      437     1247    5     END;
      438     1248
      439     1249          /* We did not get a match */
      440     1250
      441     1251    4   END;
      442     1252
      443     1253    3   END MATCH_SLICE;
      444     1254
      445     1255
PL6.E3A0      #001=TABLES File=LR_TABLE.:Z8A6TSI                                 SAT 08/09/97 09:37 Page:18
      446     1256        %EJECT;
PL6.E3A0      #001=TABLES File=LR_TABLE.:Z8A6TSI                                 SAT 08/09/97 09:37 Page:19
      447     1257             /* MAIN BODY OF INSERT_SLICE_IN_ARRAY */
      448     1258
      449     1259    2   DEF_BASE.DEFAULT(INDX) = DEFAULT;
      450     1260
      451     1261    2   IF SLICELEN > 0 THEN
      452     1262    3     DO;
      453     1263    3       CALL MATCH_SLICE;
      454     1264    3       CALL TRANSFER_SLICE;
      455     1265    3     END;
      456     1266    2   ELSE
      457     1267    2     BASE_FOUND_NUM = 0;
      458     1268
      459     1269    2   DEF_BASE.BASE(INDX) = BASE_FOUND_NUM;
      460     1270
      461     1271    2   END INSERT_SLICE_IN_ARRAY;
      462     1272        %EJECT;
PL6.E3A0      #001=TABLES File=LR_TABLE.:Z8A6TSI                                 SAT 08/09/97 09:37 Page:20
      463     1273    1   OUTPUT_STATES : PROC;
      464     1274
      465     1275        /* OUTPUT_STATES WILL GENERATE THE ACTION TABLE FOR THE PARSER.
      466     1276        */
      467     1277
      468     1278    2   DCL I  SBIN WORD;
      469     1279    2   DCL J  SBIN WORD;
      470     1280    2   DCL K  SBIN WORD;
      471     1281    2   DCL C$ PTR;
      472     1282
      473     1283    2   DCL 1 ACTION_SLICE (0:NR_TERM_MAX),
      474     1284    2         2 INDX SBIN HALF,
      475     1285    2         2 VAL SBIN HALF;
      476     1286
      477     1287    2   DCL ACTION_SLICE_LEN SBIN WORD;
      478     1288
      479     1289    2   DCL KEYN$      PTR;
      480     1290    2   DCL SYM_INDX   SBIN WORD;
      481     1291    2   DCL FSET$      PTR;
      482     1292    2   DCL 1 AFSET ALIGNED BASED(FSET$),
      483     1293    2         2 FSET(0:0) BIT(1) UNAL;
      484     1294
      485     1295    2   DCL DEFAULT    SBIN WORD;
      486     1296    2   DCL FIRST_ELEM SBIN WORD;
      487     1297        %EJECT;
PL6.E3A0      #001=TABLES File=LR_TABLE.:Z8A6TSI                                 SAT 08/09/97 09:37 Page:21
      488     1298
      489     1299    2   WRITE_OUTPUT_STATES : PROC;   /* OF OUTPUT_STATES */
      490     1300
      491     1301        /* WRITE THE OUTPUT ACTION TABLES */
      492     1302
      493     1303    3   DCL I SBIN WORD;
      494     1304
      495     1305
      496     1306
      497     1307        %SELECT_OU;
      498     1310
      499     1311        /* OUTPUT COLUMN INFO (STATES) */
      500     1312
      501     1313        %OUTLINE(S="'%START_TABLE_ACTION_COL;'");
      502     1319
      503     1320    4   DO I = 1 TO NR_CONFIG - 1;
      504     1321
      505     1322          %OUT_STR(S="'  %ASDEFBASM(DFL='");
      506     1325    4     CALL OUT_DEC(BINBIT(STATE.DEFAULT_ACTION(I),36));
      507     1326
      508     1327          %BOUNDS(T=ASDEF,V="STATE.DEFAULT_ACTION(I)");
      509     1333
      510     1334          %OUT_STR(S="',BAS='");
      511     1337    4     CALL OUT_DEC(BINBIT(STATE.BASE(I),36));
      512     1338          %OUT_STR(S="');'");
      513     1341
      514     1342          %BOUNDS(T=ASBAS, V="STATE.BASE(I)");
      515     1348
      516     1349          %OUT_STR(S="'  /* '");
      517     1352    4     CALL OUT_DEC (I);
      518     1353          %OUT_STR(S="' */'");
      519     1356    4     CALL FLUSH;
      520     1357
      521     1358    4   END;
      522     1359
      523     1360        %OUTLINE(S="'%END_TABLE_ACTION_COL;'");
      524     1366
PL6.E3A0      #001=TABLES File=LR_TABLE.:Z8A6TSI                                 SAT 08/09/97 09:37 Page:22
      525     1367        /* OUTPUT ROW INFO (ACTIONS) */
      526     1368
      527     1369        %SELECT_SUBS;
      528     1372
      529     1373        %OUT_STR(S="'%EQU ACTION_COL_LEN = '");
      530     1376    3   CALL OUT_DEC(NR_CONFIG - 1);
      531     1377        %OUT_STR(S="';'");
      532     1380    3   CALL FLUSH;
      533     1381
      534     1382        %STAT_LENGTH(T=ASDEF,V="NR_CONFIG");
      535     1385        %STAT_LENGTH(T=ASBAS,V="NR_CONFIG");
      536     1388
      537     1389        %SELECT_OU;
      538     1392
      539     1393
      540     1394        %OUTLINE(S="'%START_TABLE_ACTION_ROW;'");
      541     1400
      542     1401
      543     1402    4   DO I = 2 TO NEXT_CHECK_LEN;
      544     1403
      545     1404
      546     1405          %OUT_STR(S="'  %ANCM(NXT='");
      547     1408    4     CALL OUT_DEC(BINBIT(NEXT_CHECK.NEXT(I),36));
      548     1409
      549     1410          %BOUNDS(T=ANCNXT, V="NEXT_CHECK.NEXT(I)");
      550     1416
      551     1417          %OUT_STR(S="',CHK='");
      552     1420    4     CALL OUT_DEC(BINBIT(NEXT_CHECK.CHECK(I),36));
      553     1421          %OUT_STR(S="');'");
      554     1424
      555     1425          %BOUNDS(T=ANCCHK, V="NEXT_CHECK.CHECK(I)");
      556     1431
      557     1432          %OUT_STR(S="'  /* '");
      558     1435    4     CALL OUT_DEC(I);
      559     1436          %OUT_STR(S="' */'");
      560     1439    4     CALL FLUSH;
      561     1440
PL6.E3A0      #001=TABLES File=LR_TABLE.:Z8A6TSI                                 SAT 08/09/97 09:37 Page:23
      562     1441
      563     1442    4   END;
      564     1443
      565     1444        %OUTLINE(S="'%END_TABLE_ACTION_ROW;'");
      566     1450
      567     1451        %SELECT_SUBS;
      568     1454
      569     1455        %OUT_STR(S="'%EQU ACTION_ROW_LEN = '");
      570     1458    3   CALL OUT_DEC(NEXT_CHECK_LEN);
      571     1459        %OUT_STR(S="';'");
      572     1462    3   CALL FLUSH;
      573     1463
      574     1464        %STAT_LENGTH(T=ANCNXT,V="NEXT_CHECK_LEN+1");
      575     1467        %STAT_LENGTH(T=ANCCHK,V="NEXT_CHECK_LEN+1");
      576     1470
      577     1471
      578     1472    3   END WRITE_OUTPUT_STATES;
      579     1473        %EJECT;
PL6.E3A0      #001=TABLES File=LR_TABLE.:Z8A6TSI                                 SAT 08/09/97 09:37 Page:24
      580     1474              /* MAIN BODY OF OUTPUT_STATES */
      581     1475
      582     1476    2   NEXT_CHECK_LEN    = 0;
      583     1477    2   NEXT_CHECK_CLEAR.B = '0'B;
      584     1478
      585     1479
      586     1480    3   DO I = 0 TO NR_CONFIG - 1;
      587     1481
      588     1482    3     C$ = C#_TO_$ (I);
      589     1483
      590     1484    3   ACTION_SLICE_LEN = 0;
      591     1485    3   FIRST_ELEM       = 0;
      592     1486
      593     1487    3     IF C$ -> C_SET_B.REDUCE_COUNT = 1 THEN
      594     1488    4       DO;  /* ONLY ONE REDUCTION WHICH IS FIRST IN LIST */
      595     1489    4         FIRST_ELEM = 1;
      596     1490    4         DEFAULT = -(C$->C_SET_B.ELEM.KEY$(0) -> KEY_B.ELEM.PROD(0) + 1);
      597     1491    4       END;
      598     1492    3     ELSE
      599     1493    3       DEFAULT = 0;  /* ERROR */
      600     1494
      601     1495        /* HANDLE ALL OTHER SHIFTS AND REDUCTIONS */
      602     1496
      603     1497    4     DO J = FIRST_ELEM TO C$->C_SET_B.NR_ELEM - 1;
      604     1498
      605     1499    4       KEYN$ = C$ -> C_SET_B.ELEM.KEY$(J);
      606     1500    4       IF KEYN$ -> KEY_B.W.SYM_AFTER = 0 THEN
      607     1501              /* WE HAVE A REDUCTION */
      608     1502    5         DO;
      609     1503    5           FSET$ = ADDR(KEYN$ -> KEY_B.FOLLOW$ ->INCL_B.SET);
      610     1504    5           IF NOT C$ -> C_SET_B.ELEM.AMBIG_SEL_SHIFT(J) THEN
      611     1505    6           DO K = 1 TO NR_TERM;
      612     1506    6             IF AFSET.FSET(K) THEN
      613     1507    7               DO;
      614     1508    7                 ACTION_SLICE_LEN = ACTION_SLICE_LEN + 1;
      615     1509    7                 ACTION_SLICE.VAL(ACTION_SLICE_LEN) = -(KEYN$->KEY_B.ELEM.PROD(0) + 1);
      616     1510    7                 ACTION_SLICE.INDX(ACTION_SLICE_LEN) = K;
PL6.E3A0      #001=TABLES File=LR_TABLE.:Z8A6TSI                                 SAT 08/09/97 09:37 Page:25
      617     1511    7               END;
      618     1512    6           END;
      619     1513    5         END;
      620     1514    4       ELSE
      621     1515              /* WE HAVE A SHIFT */
      622     1516    5         DO;
      623     1517    5           SYM_INDX = KEYN$ -> KEY_B.W.SYM_AFTER;
      624     1518    5           IF SYM_INDX <= NR_TERM THEN
      625     1519    5           IF NOT C$ -> C_SET_B.ELEM.AMBIG_SEL_REDUCE(J) THEN
      626     1520    6             DO;
      627     1521    6               ACTION_SLICE_LEN = ACTION_SLICE_LEN + 1;
      628     1522    6               ACTION_SLICE.INDX(ACTION_SLICE_LEN) = SYM_INDX;
      629     1523    6               ACTION_SLICE.VAL(ACTION_SLICE_LEN) = KEYN$ ->KEY_B.KEY_VAL$ ->C_SET_B.
              1523                        C_SET#;
      630     1524    6               IF ACTION_SLICE.VAL(ACTION_SLICE_LEN) = 0 THEN
      631     1525                      /* FLAG FINAL STATE */
      632     1526    6               ACTION_SLICE.VAL(ACTION_SLICE_LEN) = UNIQUE_FINAL_STATE;
      633     1527    6             END;
      634     1528    5         END;
      635     1529    4     END;
      636     1530
      637     1531    3     CALL INSERT_SLICE_IN_ARRAY ( I,
      638     1532    3                                  DEFAULT,
      639     1533    3                                  ACTION_SLICE,
      640     1534    3                                  ACTION_SLICE_LEN,
      641     1535    3                                  STATE,
      642     1536    3                                  NR_TERM);
      643     1537    3   END;
      644     1538
      645     1539    2   CALL WRITE_OUTPUT_STATES;
      646     1540
      647     1541    2   END OUTPUT_STATES;
      648     1542        %EJECT;
PL6.E3A0      #001=TABLES File=LR_TABLE.:Z8A6TSI                                 SAT 08/09/97 09:37 Page:26
      649     1543    1   OUTPUT_GOTO : PROC;
      650     1544
      651     1545        /* OUTPUT_GOTO WILL GENERATE THE GOTO TABLE FOR THE PARSER.
      652     1546        */
      653     1547
      654     1548    2   DCL 1 GOTO_SLICE (0:%NR_CONFIG_MAX),
      655     1549    2         2 INDX SBIN HALF,
      656     1550    2         2 VAL  SBIN HALF;
      657     1551
      658     1552    2   DCL GOTO_SLICE_LEN SBIN WORD;
      659     1553
      660     1554    2   DCL KEYN$              PTR;
      661     1555    2   DCL I                  SBIN WORD;
      662     1556    2   DCL J                  SBIN WORD;
      663     1557    2   DCL K                  SBIN WORD;
      664     1558    2   DCL C$                 PTR;
      665     1559    2   DCL MOST_COMMON_STATE  SBIN WORD;
      666     1560    2   DCL MOST_COMMON_COUNT  SBIN WORD;
      667     1561    2   DCL MAX_STATE_INDX     SBIN WORD;
      668     1562
      669     1563    2   DCL NT_SHIFT (0:NR_SYMS_MAX) SBIN WORD;
      670     1564    2   DCL 1 NT_SHIFT_CLEAR REDEF NT_SHIFT,
      671     1565    2         2 B (0:NR_SYMS_MAX) BIT(36);
      672     1566
      673     1567        %EQU MAX_GOTO_COUNT = 6*NR_CONFIG_MAX;
      674     1568
      675     1569    2   DCL 1 NT_SHIFT_LIST (0:%MAX_GOTO_COUNT),
      676     1570    2         2 STATE SBIN HALF,
      677     1571    2         2 NEW_STATE SBIN HALF,
      678     1572    2         2 INDX SBIN WORD;
      679     1573
      680     1574    2   DCL NT_SHIFT_LIST_LEN SBIN WORD;
      681     1575
      682     1576        %EJECT;
PL6.E3A0      #001=TABLES File=LR_TABLE.:Z8A6TSI                                 SAT 08/09/97 09:37 Page:27
      683     1577
      684     1578    2   CALC_MOST_COMMON_GOTO : PROC(NT);   /* OF OUTPUT GOTO */
      685     1579
      686     1580    3   DCL NT SBIN WORD;
      687     1581
      688     1582    3   DCL STATE_COUNT (0:%NR_CONFIG_MAX) SBIN WORD;
      689     1583    3   DCL 1 STATE_COUNT_CLEAR REDEF STATE_COUNT,
      690     1584    3         2 B (0:%NR_CONFIG_MAX) BIT(36);
      691     1585    3   DCL I SBIN WORD;
      692     1586
      693     1587    3   MOST_COMMON_STATE = 0;
      694     1588    3   MOST_COMMON_COUNT = 0;
      695     1589
      696     1590    3   STATE_COUNT_CLEAR.B = '0'B;
      697     1591    3   I = NT_SHIFT(NT);
      698     1592
      699     1593    4   DO WHILE I ~= 0;
      700     1594
      701     1595    4     IF NT_SHIFT_LIST.NEW_STATE(I) > 0 THEN
      702     1596    5       DO;
      703     1597    5         STATE_COUNT(NT_SHIFT_LIST.NEW_STATE(I)) = STATE_COUNT(NT_SHIFT_LIST.NEW_STATE(
              1597                  I)) + 1;
      704     1598    5         IF (STATE_COUNT (NT_SHIFT_LIST.NEW_STATE(I)) > MOST_COMMON_COUNT)
      705     1599    5             OR ((STATE_COUNT (NT_SHIFT_LIST.NEW_STATE(I)) = MOST_COMMON_COUNT)
      706     1600    5                    AND  (NT_SHIFT_LIST.NEW_STATE(I) > MOST_COMMON_STATE)) THEN
      707     1601    6          DO;
      708     1602    6             MOST_COMMON_COUNT = STATE_COUNT(NT_SHIFT_LIST.NEW_STATE(I));
      709     1603    6             MOST_COMMON_STATE = NT_SHIFT_LIST.NEW_STATE(I);
      710     1604    6           END;
      711     1605    5       END;
      712     1606    4     I = NT_SHIFT_LIST.INDX(I);
      713     1607    4   END;
      714     1608
      715     1609    3   END CALC_MOST_COMMON_GOTO;
      716     1610
      717     1611        %EJECT;
PL6.E3A0      #001=TABLES File=LR_TABLE.:Z8A6TSI                                 SAT 08/09/97 09:37 Page:28
      718     1612
      719     1613    2   CREATE_GOTO_SLICE : PROC (NT);  /* OF OUTPUT_GOTO */
      720     1614
      721     1615    3   DCL NT SBIN WORD;
      722     1616
      723     1617    3   DCL I SBIN WORD;
      724     1618
      725     1619
      726     1620    3   GOTO_SLICE_LEN = 0;
      727     1621    3   MAX_STATE_INDX = 0;
      728     1622    3   I = NT_SHIFT(NT);
      729     1623
      730     1624    4   DO WHILE I ~= 0;
      731     1625
      732     1626    4     IF NT_SHIFT_LIST.NEW_STATE(I) ~= MOST_COMMON_STATE THEN
      733     1627    5       DO;
      734     1628    5         GOTO_SLICE_LEN = GOTO_SLICE_LEN + 1;
      735     1629    5         GOTO_SLICE.VAL(GOTO_SLICE_LEN) = NT_SHIFT_LIST.NEW_STATE(I);
      736     1630    5         GOTO_SLICE.INDX(GOTO_SLICE_LEN) = NT_SHIFT_LIST.STATE(I);
      737     1631    5       END;
      738     1632    4     MAX_STATE_INDX = MAXIMUM(MAX_STATE_INDX, NT_SHIFT_LIST.STATE(I));
      739     1633    4     I = NT_SHIFT_LIST.INDX(I);
      740     1634
      741     1635    4   END;
      742     1636
      743     1637    3   END CREATE_GOTO_SLICE;
      744     1638
      745     1639
      746     1640        %EJECT;
PL6.E3A0      #001=TABLES File=LR_TABLE.:Z8A6TSI                                 SAT 08/09/97 09:37 Page:29
      747     1641
      748     1642    2   WRITE_OUTPUT_GOTO : PROC;   /* OF OUTPUT_GOTO */
      749     1643
      750     1644        /* WRITE THE OUTPUT GOTO TABLES */
      751     1645
      752     1646    3   DCL I SBIN WORD;
      753     1647    3   DCL J SBIN WORD;
      754     1648
      755     1649
      756     1650
      757     1651        %SELECT_OU;
      758     1654
      759     1655        /* OUTPUT COLUMN (NON_TERMINAL) INFO */
      760     1656
      761     1657        %OUTLINE(S="'%START_TABLE_GOTO_COL;'");
      762     1663
      763     1664    4   DO I = NR_TERM + 1 TO LAST_NULL;
      764     1665
      765     1666    4     J = I - NR_TERM;
      766     1667
      767     1668
      768     1669          %OUT_STR(S="'  %GTDEFBASM(DFL='");
      769     1672    4     CALL OUT_DEC (BINBIT(GOTO_.DEFAULT_ACTION(J),36));
      770     1673
      771     1674          %BOUNDS(T=GTDEF, V="GOTO_.DEFAULT_ACTION(J)");
      772     1680
      773     1681          %OUT_STR(S="',BAS='");
      774     1684    4     CALL  OUT_DEC(BINBIT(GOTO_.BASE(J),36));
      775     1685          %OUT_STR(S="');'");
      776     1688
      777     1689          %BOUNDS(T=GTBAS, V="GOTO_.BASE(J)");
      778     1695
      779     1696          %OUT_STR(S="'  /* '");
      780     1699    4     CALL OUT_DEC(J);
      781     1700          %OUT_STR(S="' '" );
      782     1703    4     CALL OUT_SYMBOL(SYM_PTRS(I));
      783     1704          %OUT_STR(S="' */'");
PL6.E3A0      #001=TABLES File=LR_TABLE.:Z8A6TSI                                 SAT 08/09/97 09:37 Page:30
      784     1707    4     CALL FLUSH;
      785     1708
      786     1709    4   END;
      787     1710
      788     1711        %OUTLINE(S="'%END_TABLE_GOTO_COL;'");
      789     1717
      790     1718        /* OUTPUT ROW INFO (STATES) */
      791     1719
      792     1720        %SELECT_SUBS;
      793     1723
      794     1724        %OUT_STR(S="'%EQU GOTO_COL_LEN = '");
      795     1727    3   CALL OUT_DEC(LAST_NULL - NR_TERM);
      796     1728        %OUT_STR(S="';'");
      797     1731    3   CALL FLUSH;
      798     1732
      799     1733        %STAT_LENGTH(T=GTDEF,V="LAST_NULL - NR_TERM + 1");
      800     1736        %STAT_LENGTH(T=GTBAS,V="LAST_NULL - NR_TERM + 1");
      801     1739
      802     1740        %SELECT_OU;
      803     1743
      804     1744
      805     1745        %OUTLINE(S="'%START_TABLE_GOTO_ROW;'");
      806     1751
      807     1752    4   DO I = 2 TO NEXT_CHECK_LEN;
      808     1753
      809     1754          %OUT_STR(S="'  %GNCM(NXT='");
      810     1757    4     CALL OUT_DEC(BINBIT(NEXT_CHECK.NEXT(I),36));
      811     1758
      812     1759          %BOUNDS(T=GNCNXT, V="NEXT_CHECK.NEXT(I)");
      813     1765
      814     1766          %OUT_STR(S="',CHK='");
      815     1769    4     CALL OUT_DEC(BINBIT(NEXT_CHECK.CHECK(I),36));
      816     1770          %OUT_STR(S="');'");
      817     1773
      818     1774          %BOUNDS(T=GNCCHK, V="NEXT_CHECK.CHECK(I)");
      819     1780
      820     1781          %OUT_STR(S="'  /* '");
PL6.E3A0      #001=TABLES File=LR_TABLE.:Z8A6TSI                                 SAT 08/09/97 09:37 Page:31
      821     1784    4     CALL OUT_DEC(I);
      822     1785          %OUT_STR(S="' */'");
      823     1788    4     CALL FLUSH;
      824     1789
      825     1790
      826     1791    4   END;
      827     1792
      828     1793        %OUTLINE(S="'%END_TABLE_GOTO_ROW;'");
      829     1799
      830     1800        %SELECT_SUBS;
      831     1803
      832     1804        %OUT_STR(S="'%EQU GOTO_ROW_LEN = '");
      833     1807    3   CALL OUT_DEC(MAXIMUM(NEXT_CHECK_LEN,1));
      834     1808        %OUT_STR(S="';'");
      835     1811    3   CALL FLUSH;
      836     1812
      837     1813        %STAT_LENGTH(T=GNCNXT,V="MAXIMUM(NEXT_CHECK_LEN,1) + 1");
      838     1816        %STAT_LENGTH(T=GNCCHK,V="MAXIMUM(NEXT_CHECK_LEN,1) + 1");
      839     1819
      840     1820    3   CALL FLUSH;
      841     1821
      842     1822    3   END WRITE_OUTPUT_GOTO;
      843     1823
      844     1824
      845     1825        %EJECT;
PL6.E3A0      #001=TABLES File=LR_TABLE.:Z8A6TSI                                 SAT 08/09/97 09:37 Page:32
      846     1826
      847     1827        /* MAIN BODY OF OUTPUT_GOTO */
      848     1828
      849     1829    2   NEXT_CHECK_LEN     = 0;
      850     1830    2   NEXT_CHECK_CLEAR.B = '0'B;
      851     1831
      852     1832    2   NT_SHIFT_CLEAR.B   = '0'B;
      853     1833    2   NT_SHIFT_LIST_LEN  = 0;
      854     1834
      855     1835    3   DO I = 1 TO NR_CONFIG - 1;
      856     1836
      857     1837    3     C$ = C#_TO_$(I);
      858     1838
      859     1839    4     DO J = 0 TO C$ -> C_SET_B.NR_ELEM - 1;
      860     1840
      861     1841    4       KEYN$ = C$ -> C_SET_B.ELEM.KEY$(J);
      862     1842
      863     1843    4       IF (KEYN$ -> KEY_B.W.SYM_AFTER > NR_TERM)
      864     1844    4            AND (KEYN$ -> KEY_B.W.SYM_AFTER <= LAST_NULL) THEN
      865     1845    5         DO;
      866     1846    5           NT_SHIFT_LIST_LEN = NT_SHIFT_LIST_LEN + 1;
      867     1847
      868     1848    5           IF NT_SHIFT_LIST_LEN > %MAX_GOTO_COUNT
      869     1849    5             THEN CALL DIAG (15,'ERROR => Output GOTO table overflow.%%');
      870     1850
      871     1851    5           NT_SHIFT_LIST.INDX(NT_SHIFT_LIST_LEN) = NT_SHIFT(KEYN$ -> KEY_B.W.SYM_AFTER)
              1851                    ;
      872     1852    5           NT_SHIFT_LIST.STATE(NT_SHIFT_LIST_LEN) = I;
      873     1853    5           NT_SHIFT_LIST.NEW_STATE(NT_SHIFT_LIST_LEN) = KEYN$ -> KEY_B.KEY_VAL$ ->
              1853                    C_SET_B.C_SET#;
      874     1854    5           NT_SHIFT(KEYN$ -> KEY_B.W.SYM_AFTER) = NT_SHIFT_LIST_LEN;
      875     1855    5         END;
      876     1856    4     END;
      877     1857    3   END;
      878     1858
      879     1859    3   DO I = NR_TERM + 1 TO LAST_NULL;
      880     1860
PL6.E3A0      #001=TABLES File=LR_TABLE.:Z8A6TSI                                 SAT 08/09/97 09:37 Page:33
      881     1861    3     CALL CALC_MOST_COMMON_GOTO(I);
      882     1862    3     CALL CREATE_GOTO_SLICE(I);
      883     1863
      884     1864
      885     1865    3     CALL INSERT_SLICE_IN_ARRAY ( I - NR_TERM,
      886     1866    3                                    MOST_COMMON_STATE,
      887     1867    3                                    GOTO_SLICE,
      888     1868    3                                    GOTO_SLICE_LEN,
      889     1869    3                                    GOTO_,
      890     1870    3                                    MAX_STATE_INDX);
      891     1871    3   END;
      892     1872
      893     1873    2   CALL WRITE_OUTPUT_GOTO;
      894     1874
      895     1875    2   END OUTPUT_GOTO;
      896     1876        %EJECT;
PL6.E3A0      #001=TABLES File=LR_TABLE.:Z8A6TSI                                 SAT 08/09/97 09:37 Page:34
      897     1877
      898     1878    1          LINELEN = 0;
      899     1879
      900     1880
      901     1881
      902     1882    1          CALL OUTPUT_ACTIONS;
      903     1883
      904     1884    1          CALL OUTPUT_TERM_INFO;
      905     1885
      906     1886    1          CALL OUTPUT_PRODUCTIONS;
      907     1887
      908     1888    1          CALL OUTPUT_STATES;
      909     1889
      910     1890    1          CALL OUTPUT_GOTO;
      911     1891
      912     1892    1           IF NOT OPTIONS(DTS_OPT) THEN
      913     1893    1             CALL OUTPUT_TERMINAL_STRINGS;
      914     1894
      915     1895    1          CALL OUTPUT_PARSE_SYMREFS;
      916     1896
      917     1897
      918     1898    1   END TABLES;
      919     1899        %EOD;

PL6.E3A0      #001=TABLES File=LR_TABLE.:Z8A6TSI                                 SAT 08/09/97 09:37 Page:35
--  Include file information  --

   LR_CNFG_EXT.:Z8A6TOU  cannot be made into a system file and is referenced.
   LR_IO_EXT.:Z8A6TOU  cannot be made into a system file and is referenced.
   LR_GRAM_EXT.:Z8A6TOU  cannot be made into a system file and is referenced.
      No diagnostics issued in procedure TABLES.

   Procedure TABLES requires 2150 words for executable code.
   Procedure TABLES requires 79846 words of local(AUTO) storage.

PL6.E3A0      #001=TABLES File=LR_TABLE.:Z8A6TSI                                 SAT 08/09/97 09:37 Page:36

 Object Unit name= TABLES                                     File name= LR_TABLE.:Z8A6TOU
 UTS= AUG 09 '97 09:37:11.96 SAT                              Compiler= PL-6/E31         Sev=      00
 SharedLib= :SHARED_SYSTEM                                    Alt SharedLib=


    ****  Control sections  ****

 Sect   Type Bound  Init  Size OctSiz  Section name(segment info)
    0  LblCom even  none     1      1  OUT_DCBN
    1   DCB   even  none     0      0  M$OU
    2   DCB   even  none     0      0  M$SO
    3   DCB   even  none     0      0  M$LO
    4   DCB   even  none     0      0  M$SI
    5   DCB   even  none     0      0  M$UI
    6  LblCom even  none  1401   2571  SYM_PTRS
    7  LblCom even  none  4001   7641  RIGHT_PARTS
    8  LblCom even  none  3002   5672  PROD
    9  LblCom even  none     1      1  NR_PROD
   10  LblCom even  none     1      1  NR_SYMS
   11  LblCom even  none     1      1  NR_TERM
   12  LblCom even  none     1      1  LAST_ACT
   13  LblCom even  none     1      1  LAST_NULL
   14  LblCom even  none     1      1  NR_ONRIGHT
   15  LblCom even  none     1      1  NR_NT
   16  LblCom even  none     1      1  PROD_LEN_MAX_EVER
   17  LblCom even  none     1      1  LAST_ORDER_SPECIFIED
   18  LblCom even  none     1      1  SEMANTIC_ORDERING
   19  LblCom even  none     1      1  ERR_SEV
   20  LblCom even  none     1      1  SET_LENGTHB
   21  LblCom even  none     1      1  SET_LENGTHW
   22  LblCom even  none     1      1  EOF_SYMBOL_PTR
   23  LblCom even  none     1      1  ERROR_SYMBOL_PTR
   24  LblCom even  none     1      1  BOF_SYMBOL_PTR
   25  LblCom even  none     1      1  OPTIONS
   26  LblCom even  none    26     32  OPTIONS_TEXT
   27  LblCom even  none   128    200  INSTR
   28  LblCom even  none     1      1  INSTR_LISTED
PL6.E3A0      #001=TABLES File=LR_TABLE.:Z8A6TSI                                 SAT 08/09/97 09:37 Page:37
   29  LblCom even  none     1      1  INSTR_LEN
   30  LblCom even  none     1      1  INSTR_INDX
   31  LblCom even  none     1      1  EOF_FLAG
   32  LblCom even  none     3      3  KEY_REC
   33  LblCom even  none    28     34  LINE
   34  LblCom even  none     1      1  LINELEN
   35  LblCom even  none   205    315  TSTATS
   36  LblCom even  none  2201   4231  C#_TO_$
   37  LblCom even  none     1      1  NR_CONFIG
   38  LblCom even  none     1      1  INIT_CONFIG
   39  LblCom even  none     1      1  MAX_BASIS_ITEMS
   40  LblCom even  none     1      1  MAX_TOTAL_ITEMS
   41  LblCom even  none     1      1  LAST_BINSRCH_ONLY
   42  LblCom even  none     1      1  LAST_BOTH_BITBIN
   43  RoData even  UTS    189    275  TABLES
   44   Proc  even  none  2150   4146  TABLES
   45  RoData even  none   112    160  TABLES

    ****  Entry defs  ****

                              Check   Calling
                             calling  sequence
  Sect OctLoc Primary Altret sequence   type   Parms  Name
    44      0   yes            yes      Std        0  TABLES
PL6.E3A0      #001=TABLES File=LR_TABLE.:Z8A6TSI                                 SAT 08/09/97 09:37 Page:38

  ****  Entry refs  ****

         Check        Calling
        calling       sequence
Altret sequence SRef   type   Args  Name
         yes           Std       0 OUTPUT_PARSE_SYMREFS
         yes           Std       0 OUTPUT_TERMINAL_STRINGS
         yes           Std       0 FLUSH
         yes           Std       2 OUT_STR
         yes           Std       1 OUT_DEC
         yes           Std       1 OUT_SYMBOL
         yes           Std       1 OUT_SYMBOL_TOKEN
         yes           Std       6 DIAG
                       nStd      0 X66_AUTO_0
                       nStd      0 X66_ARET

  ****  Data refs  ****

  Flags:  r = read only, s = secondary
Flgs Name                             Flgs Name                             Flgs Name
     M$OU                                  M$SO                                  M$LO
     M$SI                                  M$UI

  ****  Segment refs  ****

  Flags:  r = read only, s = secondary
Flgs Name                             Flgs Name                             Flgs Name
     NULLSID                               ISSID
PL6.E3A0      #001=TABLES File=LR_TABLE.:Z8A6TSI                                 SAT 08/09/97 09:37 Page:39


        1        1        /*M* TABLE => CALCULATE AND OUTPUT THE PARSE TABLES */
        2        2        /*T***********************************************************/
        3        3        /*T*                                                         */
        4        4        /*T* Copyright (c) Bull HN Information Systems Inc., 1997    */
        5        5        /*T*                                                         */
        6        6        /*T***********************************************************/
        7        7
        8        8
        9        9
       10       10        TABLES: PROC;

     10 44 000000   000000 700200 xent  TABLES       TSX0  ! X66_AUTO_0
        44 000001   233746 000000                    ZERO    79846,0
        44 000002   200000 221203                    LDX1  ! 65536,DU
        44 000003   233726 634711                    EPPR4 ! NEXT_CHECK+10689,X1,AUTO
        44 000004   004115 710000 44                 TRA     s:1878

       11       11
       12       12        /*D*
       13       13               NAME: TABLES
       14       14            PURPOSE: CALCULATE AND OUTPUT THE PARSE TABLES
       15       15        */
       16       16
       17       17
       18       18        %INCLUDE LR_GRAM_EXT;
       19      557        %INCLUDE LR_CNFG_EXT;
       20      710
       21      711    1   DCL DIAG                 ENTRY(6);
       22      712    1   DCL OUT_STR              ENTRY(2);
       23      713    1   DCL OUT_TOKEN            ENTRY(2);
       24      714    1   DCL FLUSH                ENTRY;
       25      715    1   DCL OUT_DEC              ENTRY(1);
       26      716    1   DCL OUTPUT_PARSE_SYMREFS ENTRY;
       27      717    1   DCL OUT_SYMBOL ENTRY(1);
       28      718    1   DCL OUT_SYMBOL_TOKEN ENTRY(1);
       29      719    1   DCL OUTPUT_TERMINAL_STRINGS ENTRY;
PL6.E3A0      #001=TABLES File=LR_TABLE.:Z8A6TSI                                 SAT 08/09/97 09:37 Page:40
       30      720
       31      721
       32      722        /* This module will output to two files both
       33      723           the tables generated for the grammar and
       34      724           a set of %equ's and symref's to use those
       35      725           tables */
       36      726
       37      727
       38      728        %SUB UNIQUE_FINAL_STATE = 99999;
       39      729
       40      730
       41      731
       42      732
       43      733
       44      734    1   DCL 1 STATE (0:%NR_CONFIG_MAX),
       45      735    1         2 DEFAULT_ACTION SBIN HALF HALIGNED,
       46      736    1         2 BASE           SBIN HALF HALIGNED;   /* INTO ACTIONS */
       47      737
       48      738    1   DCL 1 GOTO_ (0:NR_SYMS_MAX),
       49      739    1         2 DEFAULT_ACTION SBIN HALF HALIGNED,
       50      740    1         2 BASE SBIN HALF HALIGNED;  /* INTO GOTO_LIST */
       51      741
       52      742        %EQU MAX_NC_LEN = MAX(13*NR_SYMS_MAX, 13*NR_CONFIG_MAX);
       53      743
       54      744        /* NEXT_CHECK IS USED BY BOTH THE ACTION & GOTO ROUTINES  TO BUILD
       55      745           THE FSM STRUCTURE. */
       56      746    1   DCL 1 NEXT_CHECK (0:%MAX_NC_LEN),
       57      747    1         2 NEXT  SBIN HALF HALIGNED,
       58      748    1         2 CHECK SBIN HALF HALIGNED;
       59      749    1   DCL 1 NEXT_CHECK_CLEAR REDEF NEXT_CHECK,
       60      750    1         2 B (0:%MAX_NC_LEN) BIT(36);
       61      751
       62      752    1   DCL NEXT_CHECK_LEN SBIN WORD;
       63      753
       64      754        %EJECT;
PL6.E3A0      #001=TABLES File=LR_TABLE.:Z8A6TSI                                 SAT 08/09/97 09:37 Page:41
       65      755    1   OUT_EQU:PROC(STR,LEN,N);

    755 44 000005   040000 220203       OUT_EQU      LDX0  ! 16384,DU
        44 000006   236724 741310                    STX1  ! NEXT_CHECK+12223,X0,AUTO

       66      756
       67      757    2   DCL LEN SBIN;
       68      758    2   DCL STR CHAR(12);
       69      759    2   DCL N SBIN;
       70      760
       71      761
       72      762        /* STR & LEN DEFINE A NAME TO BE USED FOR A CONSTANT DECLARATION */
       73      763
       74      764    2           CALL FLUSH;

    764 44 000007   000000 631400 45                 EPPR1   0
        44 000010   000000 701000 xent               TSX1    FLUSH
        44 000011   000000 011000                    NOP     0
        44 000012   200000 221003                    LDX1    65536,DU
        44 000013   233726 634511                    EPPR4   NEXT_CHECK+10689,X1,AUTO

       75      765
       76      766                %OUT_STR(S="'%EQU '");

    767 44 000014   000003 630400 45                 EPPR0   3
        44 000015   000001 631400 45                 EPPR1   1
        44 000016   000000 701000 xent               TSX1    OUT_STR
        44 000017   000000 011000                    NOP     0
        44 000020   200000 221003                    LDX1    65536,DU
        44 000021   233726 634511                    EPPR4   NEXT_CHECK+10689,X1,AUTO

       77      769
       78      770    2           CALL OUT_STR(STR,LEN);

    770 44 000022   040000 220003                    LDX0    16384,DU
        44 000023   236725 470510                    LDP0    NEXT_CHECK+12224,X0,AUTO
        44 000024   236726 471510                    LDP1    NEXT_CHECK+12225,X0,AUTO
PL6.E3A0      #001=TABLES File=LR_TABLE.:Z8A6TSI                                 SAT 08/09/97 09:37 Page:42
        44 000025   400001 451500                    STP1    1,,PR4
        44 000026   400000 450500                    STP0    0,,PR4
        44 000027   400000 630500                    EPPR0   0,,PR4
        44 000030   000001 631400 45                 EPPR1   1
        44 000031   000000 701000 xent               TSX1    OUT_STR
        44 000032   000000 011000                    NOP     0
        44 000033   200000 221003                    LDX1    65536,DU
        44 000034   233726 634511                    EPPR4   NEXT_CHECK+10689,X1,AUTO

       79      771
       80      772                %OUT_STR(S="'='");

    773 44 000035   000007 630400 45                 EPPR0   7
        44 000036   000001 631400 45                 EPPR1   1
        44 000037   000000 701000 xent               TSX1    OUT_STR
        44 000040   000000 011000                    NOP     0
        44 000041   200000 221003                    LDX1    65536,DU
        44 000042   233726 634511                    EPPR4   NEXT_CHECK+10689,X1,AUTO

       81      775
       82      776    2           CALL OUT_DEC(N);

    776 44 000043   040000 220003                    LDX0    16384,DU
        44 000044   236727 470510                    LDP0    NEXT_CHECK+12226,X0,AUTO
        44 000045   400000 450500                    STP0    0,,PR4
        44 000046   400000 630500                    EPPR0   0,,PR4
        44 000047   000011 631400 45                 EPPR1   9
        44 000050   000000 701000 xent               TSX1    OUT_DEC
        44 000051   000000 011000                    NOP     0
        44 000052   200000 221003                    LDX1    65536,DU
        44 000053   233726 634511                    EPPR4   NEXT_CHECK+10689,X1,AUTO

       83      777
       84      778                %OUTLINE(S="';'");

    780 44 000054   000013 630400 45                 EPPR0   11
        44 000055   000001 631400 45                 EPPR1   1
PL6.E3A0      #001=TABLES File=LR_TABLE.:Z8A6TSI                                 SAT 08/09/97 09:37 Page:43
        44 000056   000000 701000 xent               TSX1    OUT_STR
        44 000057   000000 011000                    NOP     0
        44 000060   200000 221003                    LDX1    65536,DU
        44 000061   233726 634511                    EPPR4   NEXT_CHECK+10689,X1,AUTO

    781 44 000062   000000 631400 45                 EPPR1   0
        44 000063   000000 701000 xent               TSX1    FLUSH
        44 000064   000000 011000                    NOP     0
        44 000065   200000 221003                    LDX1    65536,DU
        44 000066   233726 634511                    EPPR4   NEXT_CHECK+10689,X1,AUTO

       85      784    2   END OUT_EQU;

    784 44 000067   040000 220203                    LDX0  ! 16384,DU
        44 000070   236724 221310                    LDX1  ! NEXT_CHECK+12223,X0,AUTO
        44 000071   000001 702211                    TSX2  ! 1,X1

       86      785
       87      786        %EJECT;
PL6.E3A0      #001=TABLES File=LR_TABLE.:Z8A6TSI                                 SAT 08/09/97 09:37 Page:44
       88      787    1   OUTPUT_ACTIONS : PROC;

    787 44 000072   040000 220203       OUTPUT_ACTI* LDX0  ! 16384,DU
        44 000073   236720 741310                    STX1  ! NEXT_CHECK+12219,X0,AUTO

       89      788
       90      789        /* Go thru all actions and output a list of PL6
       91      790           EQUS which will associate integers with the names
       92      791           of the actions.  These names should be used in a
       93      792           CASE statement in the parser to execute the
       94      793           appropriate semantic actions.
       95      794        */
       96      795
       97      796    2   DCL I          SBIN WORD;
       98      797    2   DCL ACTION_NUM SBIN WORD;
       99      798    2   DCL ACTION_VAL SBIN WORD;
      100      799
      101      800        %SELECT_SUBS;

    801 44 000074   000000 236007 xsym               LDQ     M$SO,DL
        44 000075   000000 756000 0                  STQ     OUT_DCBN

      102      803
      103      804    2   ACTION_NUM = 0;

    804 44 000076   236722 450110                    STZ     NEXT_CHECK+12221,X0,AUTO

      104      805
      105      806        %OUTLINE(S="'/* Actions */'");

    808 44 000077   000016 630400 45                 EPPR0   14
        44 000100   000001 631400 45                 EPPR1   1
        44 000101   000000 701000 xent               TSX1    OUT_STR
        44 000102   000000 011000                    NOP     0
        44 000103   200000 221003                    LDX1    65536,DU
        44 000104   233726 634511                    EPPR4   NEXT_CHECK+10689,X1,AUTO

PL6.E3A0      #001=TABLES File=LR_TABLE.:Z8A6TSI                                 SAT 08/09/97 09:37 Page:45
    809 44 000105   000000 631400 45                 EPPR1   0
        44 000106   000000 701000 xent               TSX1    FLUSH
        44 000107   000000 011000                    NOP     0
        44 000110   200000 221003                    LDX1    65536,DU
        44 000111   233726 634511                    EPPR4   NEXT_CHECK+10689,X1,AUTO

      106      812        %OUTLINE(S="' '");

    814 44 000112   000021 630400 45                 EPPR0   17
        44 000113   000001 631400 45                 EPPR1   1
        44 000114   000000 701000 xent               TSX1    OUT_STR
        44 000115   000000 011000                    NOP     0
        44 000116   200000 221003                    LDX1    65536,DU
        44 000117   233726 634511                    EPPR4   NEXT_CHECK+10689,X1,AUTO

    815 44 000120   000000 631400 45                 EPPR1   0
        44 000121   000000 701000 xent               TSX1    FLUSH
        44 000122   000000 011000                    NOP     0
        44 000123   200000 221003                    LDX1    65536,DU
        44 000124   233726 634511                    EPPR4   NEXT_CHECK+10689,X1,AUTO

      107      818
      108      819    3   DO I = NR_NT+1 TO LAST_ACT;

    819 44 000125   040000 220003                    LDX0    16384,DU
        44 000126   000000 235000 15                 LDA     NR_NT
        44 000127   000001 035007                    ADLA    1,DL
        44 000130   236721 755110                    STA     NEXT_CHECK+12220,X0,AUTO
        44 000131   000255 710000 44                 TRA     s:852+1

      109      820
      110      821    3     ACTION_NUM = ACTION_NUM + 1;

    821 44 000132   040000 220003                    LDX0    16384,DU
        44 000133   236722 054110                    AOS     NEXT_CHECK+12221,X0,AUTO

      111      822    3     IF SYM_PTRS(I) -> SYMBOL.ORDER_SPECIFIED THEN
PL6.E3A0      #001=TABLES File=LR_TABLE.:Z8A6TSI                                 SAT 08/09/97 09:37 Page:46

    822 44 000134   236721 721110                    LXL1    NEXT_CHECK+12220,X0,AUTO
        44 000135   000000 470411 6                  LDP0    SYM_PTRS,X1
        44 000136   000004 236100                    LDQ     4,,PR0
        44 000137   040000 316003                    CANQ    16384,DU
        44 000140   000212 600000 44                 TZE     s:839

      112      823    4       DO;

      113      824    4         ACTION_VAL = SYM_PTRS(I) -> SYMBOL.ORDER;

    824 44 000141   236721 721110                    LXL1    NEXT_CHECK+12220,X0,AUTO
        44 000142   000000 470411 6                  LDP0    SYM_PTRS,X1
        44 000143   000004 236100                    LDQ     4,,PR0
        44 000144   000022 736000                    QLS     18
        44 000145   000022 732000                    QRS     18
        44 000146   236723 756110                    STQ     NEXT_CHECK+12222,X0,AUTO

      114      825    4         CALL OUT_EQU (SUBSTR(SYM_PTRS(I) -> SYMBOL.TEXTCHR,

    825 44 000147   236721 721110                    LXL1    NEXT_CHECK+12220,X0,AUTO
        44 000150   000000 470411 6                  LDP0    SYM_PTRS,X1
        44 000151   236721 721110                    LXL1    NEXT_CHECK+12220,X0,AUTO
        44 000152   000000 471411 6                  LDP1    SYM_PTRS,X1
        44 000153   100010 721100                    LXL1    8,,PR1
        44 000154   777776 622011                    EAX2    -2,X1
        44 000155   236721 721110                    LXL1    NEXT_CHECK+12220,X0,AUTO
        44 000156   000000 471411 6                  LDP1    SYM_PTRS,X1
        44 000157   100010 235100                    LDA     8,,PR1
        44 000160   000002 135007                    SBLA    2,DL
        44 000161   400015 755100                    STA     13,,PR4
        44 000162   400000 452500                    STP2    0,,PR4
        44 000163   400000 236100                    LDQ     0,,PR4
        44 000164   076723 036003                    ADLQ    32211,DU
        44 000165   236727 756110                    STQ     NEXT_CHECK+12226,X0,AUTO
        44 000166   400015 631500                    EPPR1   13,,PR4
        44 000167   236726 451510                    STP1    NEXT_CHECK+12225,X0,AUTO
PL6.E3A0      #001=TABLES File=LR_TABLE.:Z8A6TSI                                 SAT 08/09/97 09:37 Page:47
        44 000170   400001 450500                    STP0    1,,PR4
        44 000171   400001 236100                    LDQ     1,,PR4
        44 000172   000023 036000 45                 ADLQ    19
        44 000173   236725 756110                    STQ     NEXT_CHECK+12224,X0,AUTO
        44 000174   000005 701000 44                 TSX1    OUT_EQU
        44 000175   000000 011000                    NOP     0

      115      826    4                              1,
      116      827    4                              SYM_PTRS(I) -> SYMBOL.SYMLEN - 2),
      117      828    4                       SYM_PTRS(I) -> SYMBOL.SYMLEN - 2,
      118      829    4                       ACTION_VAL);
      119      830              %BOUNDS(T=SEM, V=ACTION_VAL);

    832 44 000176   040000 220003                    LDX0    16384,DU
        44 000177   236723 236110                    LDQ     NEXT_CHECK+12222,X0,AUTO
        44 000200   000016 116000 35                 CMPQ    TSTATS+14
        44 000201   000203 604400 44                 TMOZ    s:832+5
        44 000202   000016 236000 35                 LDQ     TSTATS+14
        44 000203   000016 756000 35                 STQ     TSTATS+14

    833 44 000204   236723 236110                    LDQ     NEXT_CHECK+12222,X0,AUTO
        44 000205   000015 116000 35                 CMPQ    TSTATS+13
        44 000206   000210 605000 44                 TPL     s:833+4
        44 000207   000015 236000 35                 LDQ     TSTATS+13
        44 000210   000015 756000 35                 STQ     TSTATS+13

      120      836    4       END;

    836 44 000211   000254 710000 44                 TRA     s:852

      121      837    3     ELSE
      122      838    4       DO;

      123      839    4         CALL OUT_EQU (SUBSTR(SYM_PTRS(I)->SYMBOL.TEXTCHR,

    839 44 000212   236721 721110                    LXL1    NEXT_CHECK+12220,X0,AUTO
        44 000213   000000 470411 6                  LDP0    SYM_PTRS,X1
PL6.E3A0      #001=TABLES File=LR_TABLE.:Z8A6TSI                                 SAT 08/09/97 09:37 Page:48
        44 000214   236721 721110                    LXL1    NEXT_CHECK+12220,X0,AUTO
        44 000215   000000 471411 6                  LDP1    SYM_PTRS,X1
        44 000216   100010 721100                    LXL1    8,,PR1
        44 000217   777776 622011                    EAX2    -2,X1
        44 000220   236721 721110                    LXL1    NEXT_CHECK+12220,X0,AUTO
        44 000221   000000 471411 6                  LDP1    SYM_PTRS,X1
        44 000222   100010 235100                    LDA     8,,PR1
        44 000223   000002 135007                    SBLA    2,DL
        44 000224   400016 755100                    STA     14,,PR4
        44 000225   400000 452500                    STP2    0,,PR4
        44 000226   400000 236100                    LDQ     0,,PR4
        44 000227   076722 036003                    ADLQ    32210,DU
        44 000230   236727 756110                    STQ     NEXT_CHECK+12226,X0,AUTO
        44 000231   400016 631500                    EPPR1   14,,PR4
        44 000232   236726 451510                    STP1    NEXT_CHECK+12225,X0,AUTO
        44 000233   400001 450500                    STP0    1,,PR4
        44 000234   400001 236100                    LDQ     1,,PR4
        44 000235   000023 036000 45                 ADLQ    19
        44 000236   236725 756110                    STQ     NEXT_CHECK+12224,X0,AUTO
        44 000237   000005 701000 44                 TSX1    OUT_EQU
        44 000240   000000 011000                    NOP     0

      124      840    4                               1,
      125      841    4                               SYM_PTRS(I)->SYMBOL.SYMLEN-2),
      126      842    4                       SYM_PTRS(I) -> SYMBOL.SYMLEN-2,
      127      843    4                       ACTION_NUM);
      128      844              %BOUNDS(T=SEM, V=ACTION_NUM);

    846 44 000241   040000 220003                    LDX0    16384,DU
        44 000242   236722 236110                    LDQ     NEXT_CHECK+12221,X0,AUTO
        44 000243   000016 116000 35                 CMPQ    TSTATS+14
        44 000244   000246 604400 44                 TMOZ    s:846+5
        44 000245   000016 236000 35                 LDQ     TSTATS+14
        44 000246   000016 756000 35                 STQ     TSTATS+14

    847 44 000247   236722 236110                    LDQ     NEXT_CHECK+12221,X0,AUTO
        44 000250   000015 116000 35                 CMPQ    TSTATS+13
PL6.E3A0      #001=TABLES File=LR_TABLE.:Z8A6TSI                                 SAT 08/09/97 09:37 Page:49
        44 000251   000253 605000 44                 TPL     s:847+4
        44 000252   000015 236000 35                 LDQ     TSTATS+13
        44 000253   000015 756000 35                 STQ     TSTATS+13

      129      850    4       END;

      130      851
      131      852    3   END;

    852 44 000254   236721 054110                    AOS     NEXT_CHECK+12220,X0,AUTO
        44 000255   236721 236110                    LDQ     NEXT_CHECK+12220,X0,AUTO
        44 000256   000000 116000 12                 CMPQ    LAST_ACT
        44 000257   000132 604400 44                 TMOZ    s:821

      132      853
      133      854        %OUTLINE(S="' '");

    856 44 000260   000021 630400 45                 EPPR0   17
        44 000261   000001 631400 45                 EPPR1   1
        44 000262   000000 701000 xent               TSX1    OUT_STR
        44 000263   000000 011000                    NOP     0
        44 000264   200000 221003                    LDX1    65536,DU
        44 000265   233726 634511                    EPPR4   NEXT_CHECK+10689,X1,AUTO

    857 44 000266   000000 631400 45                 EPPR1   0
        44 000267   000000 701000 xent               TSX1    FLUSH
        44 000270   000000 011000                    NOP     0
        44 000271   200000 221003                    LDX1    65536,DU
        44 000272   233726 634511                    EPPR4   NEXT_CHECK+10689,X1,AUTO

      134      860
      135      861
      136      862    2   END OUTPUT_ACTIONS;

    862 44 000273   040000 220203                    LDX0  ! 16384,DU
        44 000274   236720 221310                    LDX1  ! NEXT_CHECK+12219,X0,AUTO
        44 000275   000001 702211                    TSX2  ! 1,X1
PL6.E3A0      #001=TABLES File=LR_TABLE.:Z8A6TSI                                 SAT 08/09/97 09:37 Page:50

      137      863        %EJECT;
PL6.E3A0      #001=TABLES File=LR_TABLE.:Z8A6TSI                                 SAT 08/09/97 09:37 Page:51
      138      864    1   OUTPUT_TERM_INFO : PROC;

    864 44 000276   040000 220203       OUTPUT_TERM* LDX0  ! 16384,DU
        44 000277   236720 741310                    STX1  ! NEXT_CHECK+12219,X0,AUTO

      139      865
      140      866        /* This module will output equates corresponding to certain
      141      867           important terminals, including EOF & ERROR, so that
      142      868           the parser may use them.
      143      869        */
      144      870
      145      871        %SELECT_SUBS;

    872 44 000300   000000 236007 xsym               LDQ     M$SO,DL
        44 000301   000000 756000 0                  STQ     OUT_DCBN

      146      874
      147      875        /* output EOF */
      148      876
      149      877        %OUT_STR(S="'%EQU TERM_EOF_SYM = '");

    878 44 000302   000025 630400 45                 EPPR0   21
        44 000303   000001 631400 45                 EPPR1   1
        44 000304   000000 701000 xent               TSX1    OUT_STR
        44 000305   000000 011000                    NOP     0
        44 000306   200000 221003                    LDX1    65536,DU
        44 000307   233726 634511                    EPPR4   NEXT_CHECK+10689,X1,AUTO

      150      880    2   CALL OUT_DEC(EOF_SYMBOL_PTR -> SYMBOL.SYM_INDX);

    880 44 000310   000000 236000 22                 LDQ     EOF_SYMBOL_PTR
        44 000311   000001 036003                    ADLQ    1,DU
        44 000312   400000 756100                    STQ     0,,PR4
        44 000313   400000 630500                    EPPR0   0,,PR4
        44 000314   000011 631400 45                 EPPR1   9
        44 000315   000000 701000 xent               TSX1    OUT_DEC
        44 000316   000000 011000                    NOP     0
PL6.E3A0      #001=TABLES File=LR_TABLE.:Z8A6TSI                                 SAT 08/09/97 09:37 Page:52
        44 000317   200000 221003                    LDX1    65536,DU
        44 000320   233726 634511                    EPPR4   NEXT_CHECK+10689,X1,AUTO

      151      881        %OUT_STR(S="';'");

    882 44 000321   000013 630400 45                 EPPR0   11
        44 000322   000001 631400 45                 EPPR1   1
        44 000323   000000 701000 xent               TSX1    OUT_STR
        44 000324   000000 011000                    NOP     0
        44 000325   200000 221003                    LDX1    65536,DU
        44 000326   233726 634511                    EPPR4   NEXT_CHECK+10689,X1,AUTO

      152      884    2   CALL FLUSH;

    884 44 000327   000000 631400 45                 EPPR1   0
        44 000330   000000 701000 xent               TSX1    FLUSH
        44 000331   000000 011000                    NOP     0
        44 000332   200000 221003                    LDX1    65536,DU
        44 000333   233726 634511                    EPPR4   NEXT_CHECK+10689,X1,AUTO

      153      885
      154      886        /* output error, if present */
      155      887
      156      888        %OUT_STR(S="'%EQU TERM_ERROR_SYM = '");

    889 44 000334   000030 630400 45                 EPPR0   24
        44 000335   000001 631400 45                 EPPR1   1
        44 000336   000000 701000 xent               TSX1    OUT_STR
        44 000337   000000 011000                    NOP     0
        44 000340   200000 221003                    LDX1    65536,DU
        44 000341   233726 634511                    EPPR4   NEXT_CHECK+10689,X1,AUTO

      157      891    2   IF ERROR_SYMBOL_PTR = ADDR(NIL) THEN

    891 44 000342   000000 236000 23                 LDQ     ERROR_SYMBOL_PTR
        44 000343   000032 116000 45                 CMPQ    26
        44 000344   000354 601000 44                 TNZ     s:894
PL6.E3A0      #001=TABLES File=LR_TABLE.:Z8A6TSI                                 SAT 08/09/97 09:37 Page:53

      158      892    2     CALL OUT_DEC(0);

    892 44 000345   000033 630400 45                 EPPR0   27
        44 000346   000011 631400 45                 EPPR1   9
        44 000347   000000 701000 xent               TSX1    OUT_DEC
        44 000350   000000 011000                    NOP     0
        44 000351   200000 221003                    LDX1    65536,DU
        44 000352   233726 634511                    EPPR4   NEXT_CHECK+10689,X1,AUTO
        44 000353   000364 710000 44                 TRA     s:896

      159      893    2   ELSE
      160      894    2     CALL OUT_DEC(ERROR_SYMBOL_PTR -> SYMBOL.SYM_INDX);

    894 44 000354   000001 036003                    ADLQ    1,DU
        44 000355   400000 756100                    STQ     0,,PR4
        44 000356   400000 630500                    EPPR0   0,,PR4
        44 000357   000011 631400 45                 EPPR1   9
        44 000360   000000 701000 xent               TSX1    OUT_DEC
        44 000361   000000 011000                    NOP     0
        44 000362   200000 221003                    LDX1    65536,DU
        44 000363   233726 634511                    EPPR4   NEXT_CHECK+10689,X1,AUTO

      161      895        %OUT_STR(S="';'");

    896 44 000364   000013 630400 45                 EPPR0   11
        44 000365   000001 631400 45                 EPPR1   1
        44 000366   000000 701000 xent               TSX1    OUT_STR
        44 000367   000000 011000                    NOP     0
        44 000370   200000 221003                    LDX1    65536,DU
        44 000371   233726 634511                    EPPR4   NEXT_CHECK+10689,X1,AUTO

      162      898    2   CALL FLUSH;

    898 44 000372   000000 631400 45                 EPPR1   0
        44 000373   000000 701000 xent               TSX1    FLUSH
        44 000374   000000 011000                    NOP     0
PL6.E3A0      #001=TABLES File=LR_TABLE.:Z8A6TSI                                 SAT 08/09/97 09:37 Page:54
        44 000375   200000 221003                    LDX1    65536,DU
        44 000376   233726 634511                    EPPR4   NEXT_CHECK+10689,X1,AUTO

      163      899
      164      900    2   IF OPTIONS(AN_OPT) THEN

    900 44 000377   000000 236000 25                 LDQ     OPTIONS
        44 000400   010000 316003                    CANQ    4096,DU
        44 000401   000416 600000 44                 TZE     s:910

      165      901          %OUTLINE(S="'%EQU ACTIONS_NUMERIC_OPT = ''1''B;'");

    903 44 000402   000035 630400 45                 EPPR0   29
        44 000403   000001 631400 45                 EPPR1   1
        44 000404   000000 701000 xent               TSX1    OUT_STR
        44 000405   000000 011000                    NOP     0
        44 000406   200000 221003                    LDX1    65536,DU
        44 000407   233726 634511                    EPPR4   NEXT_CHECK+10689,X1,AUTO

    904 44 000410   000000 631400 45                 EPPR1   0
        44 000411   000000 701000 xent               TSX1    FLUSH
        44 000412   000000 011000                    NOP     0
        44 000413   200000 221003                    LDX1    65536,DU
        44 000414   233726 634511                    EPPR4   NEXT_CHECK+10689,X1,AUTO

    905 44 000415   000431 710000 44                 TRA     s:915

      166      907    2   ELSE
      167      908          %OUTLINE(S="'%EQU ACTIONS_NUMERIC_OPT = ''0''B;'");

    910 44 000416   000037 630400 45                 EPPR0   31
        44 000417   000001 631400 45                 EPPR1   1
        44 000420   000000 701000 xent               TSX1    OUT_STR
        44 000421   000000 011000                    NOP     0
        44 000422   200000 221003                    LDX1    65536,DU
        44 000423   233726 634511                    EPPR4   NEXT_CHECK+10689,X1,AUTO

PL6.E3A0      #001=TABLES File=LR_TABLE.:Z8A6TSI                                 SAT 08/09/97 09:37 Page:55
    911 44 000424   000000 631400 45                 EPPR1   0
        44 000425   000000 701000 xent               TSX1    FLUSH
        44 000426   000000 011000                    NOP     0
        44 000427   200000 221003                    LDX1    65536,DU
        44 000430   233726 634511                    EPPR4   NEXT_CHECK+10689,X1,AUTO

      168      914
      169      915    2   END OUTPUT_TERM_INFO;

    915 44 000431   040000 220203                    LDX0  ! 16384,DU
        44 000432   236720 221310                    LDX1  ! NEXT_CHECK+12219,X0,AUTO
        44 000433   000001 702211                    TSX2  ! 1,X1

      170      916        %EJECT;
PL6.E3A0      #001=TABLES File=LR_TABLE.:Z8A6TSI                                 SAT 08/09/97 09:37 Page:56
      171      917    1   OUTPUT_PRODUCTIONS : PROC;

    917 44 000434   040000 220203       OUTPUT_PROD* LDX0  ! 16384,DU
        44 000435   236720 741310                    STX1  ! NEXT_CHECK+12219,X0,AUTO
        44 000436   000522 710000 44                 TRA     s:968

      172      918
      173      919        /* This routine will output a table of production information
      174      920           for use by the parser.  This information includes the
      175      921           number of states to be popped off the state stack
      176      922           upon a reduction, along with the number of terminals
      177      923           that may be required to be popped off the token stack.
      178      924           The semantic action to be performed upon a reduction is
      179      925           also given.
      180      926        */
      181      927
      182      928    2   DCL NUM_RED_STACK SBIN WORD;
      183      929    2   DCL I             SBIN WORD;
      184      930    2   DCL R             SBIN WORD;
      185      931
      186      932
      187      933
      188      934        %EJECT;
PL6.E3A0      #001=TABLES File=LR_TABLE.:Z8A6TSI                                 SAT 08/09/97 09:37 Page:57
      189      935    2   CALC_PROD_INFO : PROC (N);  /* OF OUTPUT_PRODUCTIONS */

    935 44 000437   040000 220203       CALC_PROD_I* LDX0  ! 16384,DU
        44 000440   236724 741310                    STX1  ! NEXT_CHECK+12223,X0,AUTO

      190      936
      191      937        /* Calculate the number of states to be popped and the
      192      938           number of terminals to be popped in a reduce operation.
      193      939        */
      194      940
      195      941    3   DCL I SBIN WORD;
      196      942    3   DCL N SBIN WORD;  /* Production Number */
      197      943
      198      944    3   NUM_RED_STACK = 0;

    944 44 000441   236721 450110                    STZ     NEXT_CHECK+12220,X0,AUTO

      199      945
      200      946    3   IF SYM_PTRS(PROD.GOAL_SYM_INDX(N)) -> SYMBOL.SYM_TYPE ~= SYM_TYPE_ACT THEN

    946 44 000442   236725 470510                    LDP0    NEXT_CHECK+12224,X0,AUTO
        44 000443   000000 721100                    LXL1    0,,PR0
        44 000444   000000 635011                    EAA     0,X1
        44 000445   000021 771000                    ARL     17
        44 000446   000000 221005 8                  LDX1    PROD,AL
        44 000447   000000 471411 6                  LDP1    SYM_PTRS,X1
        44 000450   100002 235100                    LDA     2,,PR1
        44 000451   000002 115007                    CMPA    2,DL
        44 000452   000460 600000 44                 TZE     s:952

      201      947    4     DO;

      202      948
      203      949    4       NUM_RED_STACK = PROD.RIGHT_CNT(N);

    949 44 000453   000000 235100                    LDA     0,,PR0
        44 000454   000001 735000                    ALS     1
PL6.E3A0      #001=TABLES File=LR_TABLE.:Z8A6TSI                                 SAT 08/09/97 09:37 Page:58
        44 000455   000001 236005 8                  LDQ     PROD+1,AL
        44 000456   000022 732000                    QRS     18
        44 000457   236721 756110                    STQ     NEXT_CHECK+12220,X0,AUTO

      204      950    4   END;

      205      951
      206      952    3   END CALC_PROD_INFO;

    952 44 000460   236724 221310                    LDX1  ! NEXT_CHECK+12223,X0,AUTO
        44 000461   000001 702211                    TSX2  ! 1,X1

      207      953        %EJECT;
PL6.E3A0      #001=TABLES File=LR_TABLE.:Z8A6TSI                                 SAT 08/09/97 09:37 Page:59
      208      954    2   NUM_ACT : PROC (SYM$);

    954 44 000462   040000 220203       NUM_ACT      LDX0  ! 16384,DU
        44 000463   236724 741310                    STX1  ! NEXT_CHECK+12223,X0,AUTO

      209      955
      210      956    3     DCL SYM$ PTR;
      211      957
      212      958    3     IF SYM$ -> SYMBOL.ORDER_SPECIFIED THEN

    958 44 000464   236725 470510                    LDP0    NEXT_CHECK+12224,X0,AUTO
        44 000465   000000 471500                    LDP1    0,,PR0
        44 000466   100004 236100                    LDQ     4,,PR1
        44 000467   040000 316003                    CANQ    16384,DU
        44 000470   000505 600000 44                 TZE     s:961

      213      959    3       CALL OUT_DEC (BINBIT(SYM$ -> SYMBOL.ORDER, 36));

    959 44 000471   100004 236100                    LDQ     4,,PR1
        44 000472   000022 736000                    QLS     18
        44 000473   000022 732000                    QRS     18
        44 000474   400000 756100                    STQ     0,,PR4
        44 000475   400002 454500                    STP4    2,,PR4
        44 000476   400002 630500                    EPPR0   2,,PR4
        44 000477   000011 631400 45                 EPPR1   9
        44 000500   000000 701000 xent               TSX1    OUT_DEC
        44 000501   000000 011000                    NOP     0
        44 000502   200000 221003                    LDX1    65536,DU
        44 000503   233726 634511                    EPPR4   NEXT_CHECK+10689,X1,AUTO
        44 000504   000517 710000 44                 TRA     s:962

      214      960    3     ELSE
      215      961    3       CALL OUT_DEC(SYM$ -> SYMBOL.SYM_INDX - NR_NT);

    961 44 000505   100001 236100                    LDQ     1,,PR1
        44 000506   000000 136000 15                 SBLQ    NR_NT
        44 000507   400000 756100                    STQ     0,,PR4
PL6.E3A0      #001=TABLES File=LR_TABLE.:Z8A6TSI                                 SAT 08/09/97 09:37 Page:60
        44 000510   400001 454500                    STP4    1,,PR4
        44 000511   400001 630500                    EPPR0   1,,PR4
        44 000512   000011 631400 45                 EPPR1   9
        44 000513   000000 701000 xent               TSX1    OUT_DEC
        44 000514   000000 011000                    NOP     0
        44 000515   200000 221003                    LDX1    65536,DU
        44 000516   233726 634511                    EPPR4   NEXT_CHECK+10689,X1,AUTO

      216      962    3   END NUM_ACT;

    962 44 000517   040000 220203                    LDX0  ! 16384,DU
        44 000520   236724 221310                    LDX1  ! NEXT_CHECK+12223,X0,AUTO
        44 000521   000001 702211                    TSX2  ! 1,X1

      217      963        %EJECT;
PL6.E3A0      #001=TABLES File=LR_TABLE.:Z8A6TSI                                 SAT 08/09/97 09:37 Page:61
      218      964            /* Main body of OUTPUT_PRODUCTIONS */
      219      965
      220      966
      221      967        %SELECT_OU;

    968 44 000522   000000 236007 xsym               LDQ     M$OU,DL
        44 000523   000000 756000 0                  STQ     OUT_DCBN

      222      970
      223      971        /* Output header for declaration */
      224      972
      225      973        %OUTLINE(S="'%START_TABLE_PRODR;'");

    975 44 000524   000042 630400 45                 EPPR0   34
        44 000525   000001 631400 45                 EPPR1   1
        44 000526   000000 701000 xent               TSX1    OUT_STR
        44 000527   000000 011000                    NOP     0
        44 000530   200000 221003                    LDX1    65536,DU
        44 000531   233726 634511                    EPPR4   NEXT_CHECK+10689,X1,AUTO

    976 44 000532   000000 631400 45                 EPPR1   0
        44 000533   000000 701000 xent               TSX1    FLUSH
        44 000534   000000 011000                    NOP     0
        44 000535   200000 221003                    LDX1    65536,DU
        44 000536   233726 634511                    EPPR4   NEXT_CHECK+10689,X1,AUTO

      226      979
      227      980    3   DO I = 0 TO NR_PROD-1;

    980 44 000537   040000 220003                    LDX0    16384,DU
        44 000540   236722 450110                    STZ     NEXT_CHECK+12221,X0,AUTO
        44 000541   001351 710000 44                 TRA     s:1075+2

      228      981
      229      982          %OUT_STR(S="'  /* '");

    983 44 000542   000044 630400 45                 EPPR0   36
PL6.E3A0      #001=TABLES File=LR_TABLE.:Z8A6TSI                                 SAT 08/09/97 09:37 Page:62
        44 000543   000001 631400 45                 EPPR1   1
        44 000544   000000 701000 xent               TSX1    OUT_STR
        44 000545   000000 011000                    NOP     0
        44 000546   200000 221003                    LDX1    65536,DU
        44 000547   233726 634511                    EPPR4   NEXT_CHECK+10689,X1,AUTO

      230      985    3     CALL OUT_DEC(I + 1);

    985 44 000550   040000 220003                    LDX0    16384,DU
        44 000551   236722 235110                    LDA     NEXT_CHECK+12221,X0,AUTO
        44 000552   000001 035007                    ADLA    1,DL
        44 000553   400000 755100                    STA     0,,PR4
        44 000554   400001 454500                    STP4    1,,PR4
        44 000555   400001 630500                    EPPR0   1,,PR4
        44 000556   000011 631400 45                 EPPR1   9
        44 000557   000000 701000 xent               TSX1    OUT_DEC
        44 000560   000000 011000                    NOP     0
        44 000561   200000 221003                    LDX1    65536,DU
        44 000562   233726 634511                    EPPR4   NEXT_CHECK+10689,X1,AUTO

      231      986          %OUT_STR(S="' '");

    987 44 000563   000021 630400 45                 EPPR0   17
        44 000564   000001 631400 45                 EPPR1   1
        44 000565   000000 701000 xent               TSX1    OUT_STR
        44 000566   000000 011000                    NOP     0
        44 000567   200000 221003                    LDX1    65536,DU
        44 000570   233726 634511                    EPPR4   NEXT_CHECK+10689,X1,AUTO

      232      989    3     CALL OUT_SYMBOL(SYM_PTRS(PROD.GOAL_SYM_INDX(I)));

    989 44 000571   040000 220003                    LDX0    16384,DU
        44 000572   236722 721110                    LXL1    NEXT_CHECK+12221,X0,AUTO
        44 000573   000000 635011                    EAA     0,X1
        44 000574   000021 771000                    ARL     17
        44 000575   000000 221005 8                  LDX1    PROD,AL
        44 000576   000000 630411 6                  EPPR0   SYM_PTRS,X1
PL6.E3A0      #001=TABLES File=LR_TABLE.:Z8A6TSI                                 SAT 08/09/97 09:37 Page:63
        44 000577   400000 450500                    STP0    0,,PR4
        44 000600   400000 630500                    EPPR0   0,,PR4
        44 000601   000011 631400 45                 EPPR1   9
        44 000602   000000 701000 xent               TSX1    OUT_SYMBOL
        44 000603   000000 011000                    NOP     0
        44 000604   200000 221003                    LDX1    65536,DU
        44 000605   233726 634511                    EPPR4   NEXT_CHECK+10689,X1,AUTO

      233      990          %OUT_STR(S="' ::='");

    991 44 000606   000047 630400 45                 EPPR0   39
        44 000607   000001 631400 45                 EPPR1   1
        44 000610   000000 701000 xent               TSX1    OUT_STR
        44 000611   000000 011000                    NOP     0
        44 000612   200000 221003                    LDX1    65536,DU
        44 000613   233726 634511                    EPPR4   NEXT_CHECK+10689,X1,AUTO

      234      993    4     DO R = 1 TO PROD.RIGHT_CNT(I);

    993 44 000614   000001 235007                    LDA     1,DL
        44 000615   040000 220003                    LDX0    16384,DU
        44 000616   236723 755110                    STA     NEXT_CHECK+12222,X0,AUTO
        44 000617   000647 710000 44                 TRA     s:995+2

      235      994    4       CALL OUT_SYMBOL_TOKEN(SYM_PTRS(RIGHT_PARTS(PROD.RIGHT_START(I) + R - 1)));

    994 44 000620   040000 220003                    LDX0    16384,DU
        44 000621   236722 235110                    LDA     NEXT_CHECK+12221,X0,AUTO
        44 000622   000001 735000                    ALS     1
        44 000623   000001 236005 8                  LDQ     PROD+1,AL
        44 000624   000022 736000                    QLS     18
        44 000625   000022 732000                    QRS     18
        44 000626   236723 036110                    ADLQ    NEXT_CHECK+12222,X0,AUTO
        44 000627   000001 736000                    QLS     1
        44 000630   000100 100406                    MLR     fill='000'O
        44 000631   777777 400002 7                  ADSC9   RIGHT_PARTS-1,Q          cn=2,n=2
        44 000632   400000 000004                    ADSC9   0,,PR4                   cn=0,n=4
PL6.E3A0      #001=TABLES File=LR_TABLE.:Z8A6TSI                                 SAT 08/09/97 09:37 Page:64
        44 000633   400000 236100                    LDQ     0,,PR4
        44 000634   000022 732000                    QRS     18
        44 000635   000000 630406 6                  EPPR0   SYM_PTRS,QL
        44 000636   400001 450500                    STP0    1,,PR4
        44 000637   400001 630500                    EPPR0   1,,PR4
        44 000640   000011 631400 45                 EPPR1   9
        44 000641   000000 701000 xent               TSX1    OUT_SYMBOL_TOKEN
        44 000642   000000 011000                    NOP     0
        44 000643   200000 221003                    LDX1    65536,DU
        44 000644   233726 634511                    EPPR4   NEXT_CHECK+10689,X1,AUTO

      236      995    4     END;

    995 44 000645   040000 220003                    LDX0    16384,DU
        44 000646   236723 054110                    AOS     NEXT_CHECK+12222,X0,AUTO
        44 000647   236722 235110                    LDA     NEXT_CHECK+12221,X0,AUTO
        44 000650   000001 735000                    ALS     1
        44 000651   000001 236005 8                  LDQ     PROD+1,AL
        44 000652   000022 732000                    QRS     18
        44 000653   236723 116110                    CMPQ    NEXT_CHECK+12222,X0,AUTO
        44 000654   000620 605000 44                 TPL     s:994

      237      996
      238      997    3     IF PROD.TRAILING_SEM_ACT(I) THEN

    997 44 000655   236722 235110                    LDA     NEXT_CHECK+12221,X0,AUTO
        44 000656   000001 735000                    ALS     1
        44 000657   000000 236005 8                  LDQ     PROD,AL
        44 000660   400000 316007                    CANQ    -131072,DL
        44 000661   000714 600000 44                 TZE     s:1002

      239      998    3       CALL OUT_SYMBOL_TOKEN(SYM_PTRS(RIGHT_PARTS(PROD.RIGHT_START(I) +

    998 44 000662   236722 235110                    LDA     NEXT_CHECK+12221,X0,AUTO
        44 000663   400000 755100                    STA     0,,PR4
        44 000664   000001 735000                    ALS     1
        44 000665   000001 236005 8                  LDQ     PROD+1,AL
PL6.E3A0      #001=TABLES File=LR_TABLE.:Z8A6TSI                                 SAT 08/09/97 09:37 Page:65
        44 000666   000022 732000                    QRS     18
        44 000667   400001 756100                    STQ     1,,PR4
        44 000670   400000 235100                    LDA     0,,PR4
        44 000671   000001 735000                    ALS     1
        44 000672   000001 236005 8                  LDQ     PROD+1,AL
        44 000673   000022 736000                    QLS     18
        44 000674   000022 732000                    QRS     18
        44 000675   400001 036100                    ADLQ    1,,PR4
        44 000676   000001 736000                    QLS     1
        44 000677   000100 100406                    MLR     fill='000'O
        44 000700   000000 000002 7                  ADSC9   RIGHT_PARTS,Q            cn=0,n=2
        44 000701   400002 000004                    ADSC9   2,,PR4                   cn=0,n=4
        44 000702   400002 236100                    LDQ     2,,PR4
        44 000703   000022 732000                    QRS     18
        44 000704   000000 630406 6                  EPPR0   SYM_PTRS,QL
        44 000705   400003 450500                    STP0    3,,PR4
        44 000706   400003 630500                    EPPR0   3,,PR4
        44 000707   000011 631400 45                 EPPR1   9
        44 000710   000000 701000 xent               TSX1    OUT_SYMBOL_TOKEN
        44 000711   000000 011000                    NOP     0
        44 000712   200000 221003                    LDX1    65536,DU
        44 000713   233726 634511                    EPPR4   NEXT_CHECK+10689,X1,AUTO

      240      999    3                            PROD.RIGHT_CNT(I))));
      241     1000
      242     1001          %OUT_STR(S="' */'");

   1002 44 000714   000052 630400 45                 EPPR0   42
        44 000715   000001 631400 45                 EPPR1   1
        44 000716   000000 701000 xent               TSX1    OUT_STR
        44 000717   000000 011000                    NOP     0
        44 000720   200000 221003                    LDX1    65536,DU
        44 000721   233726 634511                    EPPR4   NEXT_CHECK+10689,X1,AUTO

      243     1004    3     CALL FLUSH;

   1004 44 000722   000000 631400 45                 EPPR1   0
PL6.E3A0      #001=TABLES File=LR_TABLE.:Z8A6TSI                                 SAT 08/09/97 09:37 Page:66
        44 000723   000000 701000 xent               TSX1    FLUSH
        44 000724   000000 011000                    NOP     0
        44 000725   200000 221003                    LDX1    65536,DU
        44 000726   233726 634511                    EPPR4   NEXT_CHECK+10689,X1,AUTO

      244     1005
      245     1006    3     CALL CALC_PROD_INFO(I);

   1006 44 000727   400000 452500                    STP2    0,,PR4
        44 000730   400000 236100                    LDQ     0,,PR4
        44 000731   076722 036003                    ADLQ    32210,DU
        44 000732   040000 220003                    LDX0    16384,DU
        44 000733   236725 756110                    STQ     NEXT_CHECK+12224,X0,AUTO
        44 000734   000437 701000 44                 TSX1    CALC_PROD_INFO
        44 000735   000000 011000                    NOP     0

      246     1007          %OUT_STR(S="'    %PRODM(GOAL='");

   1008 44 000736   000055 630400 45                 EPPR0   45
        44 000737   000001 631400 45                 EPPR1   1
        44 000740   000000 701000 xent               TSX1    OUT_STR
        44 000741   000000 011000                    NOP     0
        44 000742   200000 221003                    LDX1    65536,DU
        44 000743   233726 634511                    EPPR4   NEXT_CHECK+10689,X1,AUTO

      247     1010    3     CALL OUT_DEC(PROD.GOAL_SYM_INDX(I) - NR_TERM);

   1010 44 000744   040000 220003                    LDX0    16384,DU
        44 000745   236722 721110                    LXL1    NEXT_CHECK+12221,X0,AUTO
        44 000746   000000 635011                    EAA     0,X1
        44 000747   000021 771000                    ARL     17
        44 000750   000000 236005 8                  LDQ     PROD,AL
        44 000751   000022 732000                    QRS     18
        44 000752   000000 136000 11                 SBLQ    NR_TERM
        44 000753   400000 756100                    STQ     0,,PR4
        44 000754   400001 454500                    STP4    1,,PR4
        44 000755   400001 630500                    EPPR0   1,,PR4
PL6.E3A0      #001=TABLES File=LR_TABLE.:Z8A6TSI                                 SAT 08/09/97 09:37 Page:67
        44 000756   000011 631400 45                 EPPR1   9
        44 000757   000000 701000 xent               TSX1    OUT_DEC
        44 000760   000000 011000                    NOP     0
        44 000761   200000 221003                    LDX1    65536,DU
        44 000762   233726 634511                    EPPR4   NEXT_CHECK+10689,X1,AUTO

      248     1011
      249     1012          %BOUNDS(T=GOAL, V="PROD.GOAL_SYM_INDX(I) - NR_TERM");

   1014 44 000763   040000 220003                    LDX0    16384,DU
        44 000764   236722 721110                    LXL1    NEXT_CHECK+12221,X0,AUTO
        44 000765   000000 635011                    EAA     0,X1
        44 000766   000021 771000                    ARL     17
        44 000767   000000 236005 8                  LDQ     PROD,AL
        44 000770   000022 732000                    QRS     18
        44 000771   000000 136000 11                 SBLQ    NR_TERM
        44 000772   000002 116000 35                 CMPQ    TSTATS+2
        44 000773   000775 604400 44                 TMOZ    s:1014+10
        44 000774   000002 236000 35                 LDQ     TSTATS+2
        44 000775   000002 756000 35                 STQ     TSTATS+2

   1015 44 000776   236722 721110                    LXL1    NEXT_CHECK+12221,X0,AUTO
        44 000777   000000 635011                    EAA     0,X1
        44 001000   000021 771000                    ARL     17
        44 001001   000000 236005 8                  LDQ     PROD,AL
        44 001002   000022 732000                    QRS     18
        44 001003   000000 136000 11                 SBLQ    NR_TERM
        44 001004   000001 116000 35                 CMPQ    TSTATS+1
        44 001005   001007 605000 44                 TPL     s:1015+9
        44 001006   000001 236000 35                 LDQ     TSTATS+1
        44 001007   000001 756000 35                 STQ     TSTATS+1

      250     1018
      251     1019          %OUT_STR(S="',PSS='");

   1020 44 001010   000057 630400 45                 EPPR0   47
        44 001011   000001 631400 45                 EPPR1   1
PL6.E3A0      #001=TABLES File=LR_TABLE.:Z8A6TSI                                 SAT 08/09/97 09:37 Page:68
        44 001012   000000 701000 xent               TSX1    OUT_STR
        44 001013   000000 011000                    NOP     0
        44 001014   200000 221003                    LDX1    65536,DU
        44 001015   233726 634511                    EPPR4   NEXT_CHECK+10689,X1,AUTO

      252     1022    3     CALL OUT_DEC(NUM_RED_STACK);

   1022 44 001016   400001 452500                    STP2    1,,PR4
        44 001017   400001 236100                    LDQ     1,,PR4
        44 001020   076721 036003                    ADLQ    32209,DU
        44 001021   400000 756100                    STQ     0,,PR4
        44 001022   400000 630500                    EPPR0   0,,PR4
        44 001023   000011 631400 45                 EPPR1   9
        44 001024   000000 701000 xent               TSX1    OUT_DEC
        44 001025   000000 011000                    NOP     0
        44 001026   200000 221003                    LDX1    65536,DU
        44 001027   233726 634511                    EPPR4   NEXT_CHECK+10689,X1,AUTO

      253     1023
      254     1024          %BOUNDS(T=PSS, V=NUM_RED_STACK);

   1026 44 001030   040000 220003                    LDX0    16384,DU
        44 001031   236721 236110                    LDQ     NEXT_CHECK+12220,X0,AUTO
        44 001032   000010 116000 35                 CMPQ    TSTATS+8
        44 001033   001035 604400 44                 TMOZ    s:1026+5
        44 001034   000010 236000 35                 LDQ     TSTATS+8
        44 001035   000010 756000 35                 STQ     TSTATS+8

   1027 44 001036   236721 236110                    LDQ     NEXT_CHECK+12220,X0,AUTO
        44 001037   000007 116000 35                 CMPQ    TSTATS+7
        44 001040   001042 605000 44                 TPL     s:1027+4
        44 001041   000007 236000 35                 LDQ     TSTATS+7
        44 001042   000007 756000 35                 STQ     TSTATS+7

      255     1030
      256     1031          %OUT_STR(S="',SEM='");

PL6.E3A0      #001=TABLES File=LR_TABLE.:Z8A6TSI                                 SAT 08/09/97 09:37 Page:69
   1032 44 001043   000061 630400 45                 EPPR0   49
        44 001044   000001 631400 45                 EPPR1   1
        44 001045   000000 701000 xent               TSX1    OUT_STR
        44 001046   000000 011000                    NOP     0
        44 001047   200000 221003                    LDX1    65536,DU
        44 001050   233726 634511                    EPPR4   NEXT_CHECK+10689,X1,AUTO

      257     1034    3     IF SYM_PTRS(PROD.GOAL_SYM_INDX(I))->SYMBOL.SYM_TYPE = SYM_TYPE_ACT THEN

   1034 44 001051   040000 220003                    LDX0    16384,DU
        44 001052   236722 721110                    LXL1    NEXT_CHECK+12221,X0,AUTO
        44 001053   000000 635011                    EAA     0,X1
        44 001054   000021 771000                    ARL     17
        44 001055   000000 221005 8                  LDX1    PROD,AL
        44 001056   000000 470411 6                  LDP0    SYM_PTRS,X1
        44 001057   000002 235100                    LDA     2,,PR0
        44 001060   000002 115007                    CMPA    2,DL
        44 001061   001145 601000 44                 TNZ     s:1050

      258     1035    4       DO;

      259     1036    4         IF OPTIONS(AN_OPT) THEN

   1036 44 001062   000000 236000 25                 LDQ     OPTIONS
        44 001063   010000 316003                    CANQ    4096,DU
        44 001064   001076 600000 44                 TZE     s:1041

      260     1037    4           CALL NUM_ACT(SYM_PTRS(PROD.GOAL_SYM_INDX(I)));

   1037 44 001065   236722 721110                    LXL1    NEXT_CHECK+12221,X0,AUTO
        44 001066   000000 635011                    EAA     0,X1
        44 001067   000021 771000                    ARL     17
        44 001070   000000 221005 8                  LDX1    PROD,AL
        44 001071   000000 630411 6                  EPPR0   SYM_PTRS,X1
        44 001072   236725 450510                    STP0    NEXT_CHECK+12224,X0,AUTO
        44 001073   000462 701000 44                 TSX1    NUM_ACT
        44 001074   000000 011000                    NOP     0
PL6.E3A0      #001=TABLES File=LR_TABLE.:Z8A6TSI                                 SAT 08/09/97 09:37 Page:70
        44 001075   001334 710000 44                 TRA     s:1071

      261     1038    4         ELSE
      262     1039    5           DO;

      263     1040                  %OUT_STR(S="'%'");

   1041 44 001076   000064 630400 45                 EPPR0   52
        44 001077   000001 631400 45                 EPPR1   1
        44 001100   000000 701000 xent               TSX1    OUT_STR
        44 001101   000000 011000                    NOP     0
        44 001102   200000 221003                    LDX1    65536,DU
        44 001103   233726 634511                    EPPR4   NEXT_CHECK+10689,X1,AUTO

      264     1043    5             CALL OUT_STR(SUBSTR(SYM_PTRS(PROD.GOAL_SYM_INDX(I))->SYMBOL.TEXTCHR,
      265     1044    5                                 1,
      266     1045    5                                 SYM_PTRS(PROD.GOAL_SYM_INDX(I)) -> SYMBOL.SYMLEN-2),
      267     1046    5                          SYM_PTRS(PROD.GOAL_SYM_INDX(I))->SYMBOL.SYMLEN - 2);

   1046 44 001104   040000 220003                    LDX0    16384,DU
        44 001105   236722 721110                    LXL1    NEXT_CHECK+12221,X0,AUTO
        44 001106   000000 635011                    EAA     0,X1
        44 001107   000021 771000                    ARL     17
        44 001110   000000 221005 8                  LDX1    PROD,AL
        44 001111   000000 470411 6                  LDP0    SYM_PTRS,X1
        44 001112   236722 721110                    LXL1    NEXT_CHECK+12221,X0,AUTO
        44 001113   000000 635011                    EAA     0,X1
        44 001114   000021 771000                    ARL     17
        44 001115   000000 221005 8                  LDX1    PROD,AL
        44 001116   000000 471411 6                  LDP1    SYM_PTRS,X1
        44 001117   100010 721100                    LXL1    8,,PR1
        44 001120   777776 622011                    EAX2    -2,X1
        44 001121   236722 721110                    LXL1    NEXT_CHECK+12221,X0,AUTO
        44 001122   000000 635011                    EAA     0,X1
        44 001123   000021 771000                    ARL     17
        44 001124   000000 221005 8                  LDX1    PROD,AL
        44 001125   000000 471411 6                  LDP1    SYM_PTRS,X1
PL6.E3A0      #001=TABLES File=LR_TABLE.:Z8A6TSI                                 SAT 08/09/97 09:37 Page:71
        44 001126   100010 235100                    LDA     8,,PR1
        44 001127   000002 135007                    SBLA    2,DL
        44 001130   400000 755100                    STA     0,,PR4
        44 001131   400003 454500                    STP4    3,,PR4
        44 001132   400004 450500                    STP0    4,,PR4
        44 001133   400004 236100                    LDQ     4,,PR4
        44 001134   000023 036000 45                 ADLQ    19
        44 001135   400002 756100                    STQ     2,,PR4
        44 001136   400002 630500                    EPPR0   2,,PR4
        44 001137   000001 631400 45                 EPPR1   1
        44 001140   000000 701000 xent               TSX1    OUT_STR
        44 001141   000000 011000                    NOP     0
        44 001142   200000 221003                    LDX1    65536,DU
        44 001143   233726 634511                    EPPR4   NEXT_CHECK+10689,X1,AUTO

      268     1047    5           END;

      269     1048    4       END;

   1048 44 001144   001334 710000 44                 TRA     s:1071

      270     1049    3     ELSE
      271     1050    3       IF PROD.TRAILING_SEM_ACT(I) THEN

   1050 44 001145   236722 235110                    LDA     NEXT_CHECK+12221,X0,AUTO
        44 001146   000001 735000                    ALS     1
        44 001147   000000 236005 8                  LDQ     PROD,AL
        44 001150   400000 316007                    CANQ    -131072,DL
        44 001151   001326 600000 44                 TZE     s:1069

      272     1051    4         DO;

      273     1052    4           IF OPTIONS(AN_OPT) THEN

   1052 44 001152   000000 236000 25                 LDQ     OPTIONS
        44 001153   010000 316003                    CANQ    4096,DU
        44 001154   001204 600000 44                 TZE     s:1057
PL6.E3A0      #001=TABLES File=LR_TABLE.:Z8A6TSI                                 SAT 08/09/97 09:37 Page:72

      274     1053    4            CALL NUM_ACT(SYM_PTRS(RIGHT_PARTS(PROD.RIGHT_START(I) + PROD.RIGHT_CNT(I))
              1053                      ));

   1053 44 001155   236722 235110                    LDA     NEXT_CHECK+12221,X0,AUTO
        44 001156   400000 755100                    STA     0,,PR4
        44 001157   000001 735000                    ALS     1
        44 001160   000001 236005 8                  LDQ     PROD+1,AL
        44 001161   000022 732000                    QRS     18
        44 001162   400001 756100                    STQ     1,,PR4
        44 001163   400000 235100                    LDA     0,,PR4
        44 001164   000001 735000                    ALS     1
        44 001165   000001 236005 8                  LDQ     PROD+1,AL
        44 001166   000022 736000                    QLS     18
        44 001167   000022 732000                    QRS     18
        44 001170   400001 036100                    ADLQ    1,,PR4
        44 001171   000001 736000                    QLS     1
        44 001172   000100 100406                    MLR     fill='000'O
        44 001173   000000 000002 7                  ADSC9   RIGHT_PARTS,Q            cn=0,n=2
        44 001174   400002 000004                    ADSC9   2,,PR4                   cn=0,n=4
        44 001175   400002 236100                    LDQ     2,,PR4
        44 001176   000022 732000                    QRS     18
        44 001177   000000 630406 6                  EPPR0   SYM_PTRS,QL
        44 001200   236725 450510                    STP0    NEXT_CHECK+12224,X0,AUTO
        44 001201   000462 701000 44                 TSX1    NUM_ACT
        44 001202   000000 011000                    NOP     0
        44 001203   001334 710000 44                 TRA     s:1071

      275     1054    4           ELSE
      276     1055    5             DO;

      277     1056                    %OUT_STR(S="'%'");

   1057 44 001204   000064 630400 45                 EPPR0   52
        44 001205   000001 631400 45                 EPPR1   1
        44 001206   000000 701000 xent               TSX1    OUT_STR
        44 001207   000000 011000                    NOP     0
PL6.E3A0      #001=TABLES File=LR_TABLE.:Z8A6TSI                                 SAT 08/09/97 09:37 Page:73
        44 001210   200000 221003                    LDX1    65536,DU
        44 001211   233726 634511                    EPPR4   NEXT_CHECK+10689,X1,AUTO

      278     1059    5               CALL OUT_STR(SUBSTR(SYM_PTRS(RIGHT_PARTS(PROD.RIGHT_START(I) +
      279     1060    5                                         PROD.RIGHT_CNT(I))) -> SYMBOL.TEXTCHR,
      280     1061    5                                   1,
      281     1062    5                                   SYM_PTRS(RIGHT_PARTS(PROD.RIGHT_START(I) +
      282     1063    5                                   PROD.RIGHT_CNT(I)))-> SYMBOL.SYMLEN -2),

   1063 44 001212   040000 220003                    LDX0    16384,DU
        44 001213   236722 235110                    LDA     NEXT_CHECK+12221,X0,AUTO
        44 001214   400000 755100                    STA     0,,PR4
        44 001215   000001 735000                    ALS     1
        44 001216   000001 236005 8                  LDQ     PROD+1,AL
        44 001217   000022 732000                    QRS     18
        44 001220   400001 756100                    STQ     1,,PR4
        44 001221   400000 235100                    LDA     0,,PR4
        44 001222   000001 735000                    ALS     1
        44 001223   000001 236005 8                  LDQ     PROD+1,AL
        44 001224   000022 736000                    QLS     18
        44 001225   000022 732000                    QRS     18
        44 001226   400001 036100                    ADLQ    1,,PR4
        44 001227   000001 736000                    QLS     1
        44 001230   000100 100406                    MLR     fill='000'O
        44 001231   000000 000002 7                  ADSC9   RIGHT_PARTS,Q            cn=0,n=2
        44 001232   400002 000004                    ADSC9   2,,PR4                   cn=0,n=4
        44 001233   400002 236100                    LDQ     2,,PR4
        44 001234   000022 732000                    QRS     18
        44 001235   000000 470406 6                  LDP0    SYM_PTRS,QL
        44 001236   236722 235110                    LDA     NEXT_CHECK+12221,X0,AUTO
        44 001237   400003 755100                    STA     3,,PR4
        44 001240   000001 735000                    ALS     1
        44 001241   000001 236005 8                  LDQ     PROD+1,AL
        44 001242   000022 732000                    QRS     18
        44 001243   400004 756100                    STQ     4,,PR4
        44 001244   400003 235100                    LDA     3,,PR4
        44 001245   000001 735000                    ALS     1
PL6.E3A0      #001=TABLES File=LR_TABLE.:Z8A6TSI                                 SAT 08/09/97 09:37 Page:74
        44 001246   000001 236005 8                  LDQ     PROD+1,AL
        44 001247   000022 736000                    QLS     18
        44 001250   000022 732000                    QRS     18
        44 001251   400004 036100                    ADLQ    4,,PR4
        44 001252   000001 736000                    QLS     1
        44 001253   000100 100406                    MLR     fill='000'O
        44 001254   000000 000002 7                  ADSC9   RIGHT_PARTS,Q            cn=0,n=2
        44 001255   400005 000004                    ADSC9   5,,PR4                   cn=0,n=4
        44 001256   400005 236100                    LDQ     5,,PR4
        44 001257   000022 732000                    QRS     18
        44 001260   000000 471406 6                  LDP1    SYM_PTRS,QL
        44 001261   100010 721100                    LXL1    8,,PR1
        44 001262   777776 622011                    EAX2    -2,X1
        44 001263   236722 235110                    LDA     NEXT_CHECK+12221,X0,AUTO
        44 001264   400006 755100                    STA     6,,PR4
        44 001265   000001 735000                    ALS     1
        44 001266   000001 236005 8                  LDQ     PROD+1,AL
        44 001267   000022 732000                    QRS     18
        44 001270   400007 756100                    STQ     7,,PR4
        44 001271   400006 235100                    LDA     6,,PR4
        44 001272   000001 735000                    ALS     1
        44 001273   000001 236005 8                  LDQ     PROD+1,AL
        44 001274   000022 736000                    QLS     18
        44 001275   000022 732000                    QRS     18
        44 001276   400007 036100                    ADLQ    7,,PR4
        44 001277   000001 736000                    QLS     1
        44 001300   000100 100406                    MLR     fill='000'O
        44 001301   000000 000002 7                  ADSC9   RIGHT_PARTS,Q            cn=0,n=2
        44 001302   400010 000004                    ADSC9   8,,PR4                   cn=0,n=4
        44 001303   400010 236100                    LDQ     8,,PR4
        44 001304   000022 732000                    QRS     18
        44 001305   000000 471406 6                  LDP1    SYM_PTRS,QL
        44 001306   100010 235100                    LDA     8,,PR1
        44 001307   000002 135007                    SBLA    2,DL
        44 001310   400011 755100                    STA     9,,PR4
        44 001311   400011 631500                    EPPR1   9,,PR4
        44 001312   400013 451500                    STP1    11,,PR4
PL6.E3A0      #001=TABLES File=LR_TABLE.:Z8A6TSI                                 SAT 08/09/97 09:37 Page:75
        44 001313   400014 450500                    STP0    12,,PR4
        44 001314   400014 236100                    LDQ     12,,PR4
        44 001315   000023 036000 45                 ADLQ    19
        44 001316   400012 756100                    STQ     10,,PR4
        44 001317   400012 630500                    EPPR0   10,,PR4
        44 001320   000001 631400 45                 EPPR1   1
        44 001321   000000 701000 xent               TSX1    OUT_STR
        44 001322   000000 011000                    NOP     0
        44 001323   200000 221003                    LDX1    65536,DU
        44 001324   233726 634511                    EPPR4   NEXT_CHECK+10689,X1,AUTO

      283     1064    5                      SYM_PTRS(RIGHT_PARTS(PROD.RIGHT_START(I) +
      284     1065    5                                  PROD.RIGHT_CNT(I))) -> SYMBOL.SYMLEN - 2);
      285     1066    5             END;

      286     1067    4         END;

   1067 44 001325   001334 710000 44                 TRA     s:1071

      287     1068    3     ELSE
      288     1069    3       CALL OUT_DEC (0);

   1069 44 001326   000033 630400 45                 EPPR0   27
        44 001327   000011 631400 45                 EPPR1   9
        44 001330   000000 701000 xent               TSX1    OUT_DEC
        44 001331   000000 011000                    NOP     0
        44 001332   200000 221003                    LDX1    65536,DU
        44 001333   233726 634511                    EPPR4   NEXT_CHECK+10689,X1,AUTO

      289     1070          %OUT_STR(S="');'");

   1071 44 001334   000067 630400 45                 EPPR0   55
        44 001335   000001 631400 45                 EPPR1   1
        44 001336   000000 701000 xent               TSX1    OUT_STR
        44 001337   000000 011000                    NOP     0
        44 001340   200000 221003                    LDX1    65536,DU
        44 001341   233726 634511                    EPPR4   NEXT_CHECK+10689,X1,AUTO
PL6.E3A0      #001=TABLES File=LR_TABLE.:Z8A6TSI                                 SAT 08/09/97 09:37 Page:76

      290     1073    3     CALL FLUSH;

   1073 44 001342   000000 631400 45                 EPPR1   0
        44 001343   000000 701000 xent               TSX1    FLUSH
        44 001344   000000 011000                    NOP     0
        44 001345   200000 221003                    LDX1    65536,DU
        44 001346   233726 634511                    EPPR4   NEXT_CHECK+10689,X1,AUTO

      291     1074
      292     1075    3   END;

   1075 44 001347   040000 220003                    LDX0    16384,DU
        44 001350   236722 054110                    AOS     NEXT_CHECK+12221,X0,AUTO
        44 001351   236722 236110                    LDQ     NEXT_CHECK+12221,X0,AUTO
        44 001352   000000 116000 9                  CMPQ    NR_PROD
        44 001353   000542 604000 44                 TMI     s:983

      293     1076
      294     1077        %OUTLINE(S="'%END_TABLE_PRODR;'");

   1079 44 001354   000072 630400 45                 EPPR0   58
        44 001355   000001 631400 45                 EPPR1   1
        44 001356   000000 701000 xent               TSX1    OUT_STR
        44 001357   000000 011000                    NOP     0
        44 001360   200000 221003                    LDX1    65536,DU
        44 001361   233726 634511                    EPPR4   NEXT_CHECK+10689,X1,AUTO

   1080 44 001362   000000 631400 45                 EPPR1   0
        44 001363   000000 701000 xent               TSX1    FLUSH
        44 001364   000000 011000                    NOP     0
        44 001365   200000 221003                    LDX1    65536,DU
        44 001366   233726 634511                    EPPR4   NEXT_CHECK+10689,X1,AUTO

      295     1083
      296     1084        %SELECT_SUBS;

PL6.E3A0      #001=TABLES File=LR_TABLE.:Z8A6TSI                                 SAT 08/09/97 09:37 Page:77
   1085 44 001367   000000 236007 xsym               LDQ     M$SO,DL
        44 001370   000000 756000 0                  STQ     OUT_DCBN

      297     1087
      298     1088        %OUT_STR(S="'%EQU PRODR_LEN = '");

   1089 44 001371   000074 630400 45                 EPPR0   60
        44 001372   000001 631400 45                 EPPR1   1
        44 001373   000000 701000 xent               TSX1    OUT_STR
        44 001374   000000 011000                    NOP     0
        44 001375   200000 221003                    LDX1    65536,DU
        44 001376   233726 634511                    EPPR4   NEXT_CHECK+10689,X1,AUTO

      299     1091    2   CALL OUT_DEC(NR_PROD);

   1091 44 001377   000076 630400 45                 EPPR0   62
        44 001400   000011 631400 45                 EPPR1   9
        44 001401   000000 701000 xent               TSX1    OUT_DEC
        44 001402   000000 011000                    NOP     0
        44 001403   200000 221003                    LDX1    65536,DU
        44 001404   233726 634511                    EPPR4   NEXT_CHECK+10689,X1,AUTO

      300     1092        %OUTLINE(S="';'");

   1094 44 001405   000013 630400 45                 EPPR0   11
        44 001406   000001 631400 45                 EPPR1   1
        44 001407   000000 701000 xent               TSX1    OUT_STR
        44 001410   000000 011000                    NOP     0
        44 001411   200000 221003                    LDX1    65536,DU
        44 001412   233726 634511                    EPPR4   NEXT_CHECK+10689,X1,AUTO

   1095 44 001413   000000 631400 45                 EPPR1   0
        44 001414   000000 701000 xent               TSX1    FLUSH
        44 001415   000000 011000                    NOP     0
        44 001416   200000 221003                    LDX1    65536,DU
        44 001417   233726 634511                    EPPR4   NEXT_CHECK+10689,X1,AUTO

PL6.E3A0      #001=TABLES File=LR_TABLE.:Z8A6TSI                                 SAT 08/09/97 09:37 Page:78
      301     1098    2   CALL FLUSH;

   1098 44 001420   000000 631400 45                 EPPR1   0
        44 001421   000000 701000 xent               TSX1    FLUSH
        44 001422   000000 011000                    NOP     0
        44 001423   200000 221003                    LDX1    65536,DU
        44 001424   233726 634511                    EPPR4   NEXT_CHECK+10689,X1,AUTO

      302     1099
      303     1100        %STAT_LENGTH(T=GOAL,V="NR_PROD+1");

   1101 44 001425   000000 235000 9                  LDA     NR_PROD
        44 001426   000001 035007                    ADLA    1,DL
        44 001427   000003 755000 35                 STA     TSTATS+3

      304     1103        %STAT_LENGTH(T=PSS,V="NR_PROD+1");

   1104 44 001430   000011 755000 35                 STA     TSTATS+9

      305     1106        %STAT_LENGTH(T=SEM,V="NR_PROD+1");

   1107 44 001431   000017 755000 35                 STA     TSTATS+15

      306     1109
      307     1110    2   END OUTPUT_PRODUCTIONS;

   1110 44 001432   040000 220203                    LDX0  ! 16384,DU
        44 001433   236720 221310                    LDX1  ! NEXT_CHECK+12219,X0,AUTO
        44 001434   000001 702211                    TSX2  ! 1,X1

      308     1111        %EJECT;
PL6.E3A0      #001=TABLES File=LR_TABLE.:Z8A6TSI                                 SAT 08/09/97 09:37 Page:79
      309     1112    1   INSERT_SLICE_IN_ARRAY : PROC (INDX, DEFAULT, SLICE, SLICELEN, DEF_BASE, MAX_INDX);

   1112 44 001435   200000 220203       INSERT_SLIC* LDX0  ! 65536,DU
        44 001436   227472 741310                    STX1  ! NEXT_CHECK+8485,X0,AUTO
        44 001437   001656 710000 44                 TRA     s:1259

      310     1113
      311     1114        /* INSERT_SLICE_IN_ARRAY WILL ACCEPT SPECIFICATIONS FOR
      312     1115           ENCODING AN ENTRY INTO THE TRANSITION TABLE.  FOR A DESCRIPTION
      313     1116           OF THIS TECHNIQUE, SEE AHO & ULLMAN - PRINCIPLES OF
      314     1117           COMPILER DESIGN, SECTIONS 6.8 & 3.8.
      315     1118
      316     1119           THE PARAMETERS TO THIS PROCEDURE INCLUDE:
      317     1120
      318     1121             INDX
      319     1122                  - THE INDEX INTO THE DEF_BASE ARRAY AT WHICH TO INSERT
      320     1123                    THE ENTRY.
      321     1124
      322     1125             DEFAULT
      323     1126                  - THE DEFAULT ACTION TO TAKE BY THE PARSER.  THIS VALUE
      324     1127                    IS INSERTED INTO THE DEF_BASE ARRAY AT ELEMENT INDEX.
      325     1128
      326     1129             SLICE
      327     1130                  - THE SLICE ARRAY ENCODES THE ACTIONS TO BE TAKEN BY
      328     1131                    THE PARSER UPON RECOGNITION OF CERTAIN INDICIES.  THE
      329     1132                    SLICE ARRAY IS INSERTED INTO NULL ELEMENTS OF
      330     1133                    THE NEXT_CHECK STRUCTURE.  THE BASE OF THE DEF_BASE
      331     1134                    ARRAY WILL POINT TO THE INDEX INTO THE NEXT_CHECK
      332     1135                    STRUCTURE WHERE THE SLICE WAS INSERTED.
      333     1136
      334     1137             SLICELEN
      335     1138                  - LENGTH OF THE ARRAY SLICE.
      336     1139
      337     1140            DEF_BASE
      338     1141                  - THE DEF_BASE ARRAY ENCODES THE DEFAULT AND BASE
      339     1142                    INDEX INTO THE NEXT_CHECK STRUCTURE.
      340     1143
PL6.E3A0      #001=TABLES File=LR_TABLE.:Z8A6TSI                                 SAT 08/09/97 09:37 Page:80
      341     1144            MAX_INDX
      342     1145                  - The maximum index into the array which may be checked
      343     1146                    during the parse.
      344     1147
      345     1148        */
      346     1149
      347     1150    2   DCL 1 DEF_BASE (0:%NR_CONFIG_MAX) ALIGNED,
      348     1151    2         2 DEFAULT SBIN HALF HALIGNED,
      349     1152    2         2 BASE    SBIN HALF HALIGNED;
      350     1153
      351     1154    2   DCL INDX     SBIN WORD;
      352     1155    2   DCL DEFAULT  SBIN WORD;
      353     1156    2   DCL SLICELEN SBIN WORD;
      354     1157    2   DCL MAX_INDX SBIN WORD;
      355     1158
      356     1159    2   DCL 1 SLICE (0:0),   /* VARIABLE LENGTH*/
      357     1160    2         2 INDX SBIN HALF,
      358     1161    2         2 VAL SBIN HALF;
      359     1162
      360     1163
      361     1164    2   DCL BASE_FOUND_NUM SBIN WORD;  /* BASE FOUND BY MATCH SLICE */
      362     1165
      363     1166
      364     1167
      365     1168
      366     1169        %EJECT;
PL6.E3A0      #001=TABLES File=LR_TABLE.:Z8A6TSI                                 SAT 08/09/97 09:37 Page:81
      367     1170    2   TRANSFER_SLICE : PROC;  /* IN INSERT_SLICE_IN_ARRAY */

   1170 44 001440   200000 220203       TRANSFER_SL* LDX0  ! 65536,DU
        44 001441   227502 741310                    STX1  ! NEXT_CHECK+8493,X0,AUTO

      368     1171
      369     1172        /* A SLICE HAS BEEN MATCHED AGAINST THE NEXT_CHECK ARRAY.  WE
      370     1173           NOW NEED TO TRANSFER ITS CONTENTS.
      371     1174        */
      372     1175
      373     1176    3   DCL I SBIN WORD;
      374     1177
      375     1178        %MACRO ENSURE_NC_LEN (N=0);
      376     1179
      377     1180          DO;
      378     1181            IF NEXT_CHECK_LEN < BASE_FOUND_NUM + SLICE.INDX(I) THEN
      379     1182              NEXT_CHECK_LEN = BASE_FOUND_NUM + SLICE.INDX(I);
      380     1183            IF NEXT_CHECK_LEN > %MAX_NC_LEN THEN
      381     1184             CALL DIAG (15,'ERROR => Output ACTION table overflow.%%');
      382     1185          END;
      383     1186
      384     1187        %MEND;
      385     1188
      386     1189
      387     1190
      388     1191    4   DO I = 1 TO SLICELEN;

   1191 44 001442   000001 235007                    LDA     1,DL
        44 001443   227503 755110                    STA     NEXT_CHECK+8494,X0,AUTO
        44 001444   001527 710000 44                 TRA     s:1208+1

      389     1192
      390     1193    4         IF NOT (SLICE.VAL(I) = UNIQUE_FINAL_STATE) THEN

   1193 44 001445   200000 220003                    LDX0    65536,DU
        44 001446   227475 470510                    LDP0    NEXT_CHECK+8488,X0,AUTO
        44 001447   227503 235110                    LDA     NEXT_CHECK+8494,X0,AUTO
PL6.E3A0      #001=TABLES File=LR_TABLE.:Z8A6TSI                                 SAT 08/09/97 09:37 Page:82
        44 001450   000001 735000                    ALS     1
        44 001451   000001 221105                    LDX1    1,AL,PR0
        44 001452   303237 101003                    CMPX1   99999,DU
        44 001453   001516 600000 44                 TZE     s:1206

      391     1194                /* IF FINAL STATE, LEAVE NEXT AT ZERO */
      392     1195    5           DO;

      393     1196                %ENSURE_NC_LEN;

   1198 44 001454   227503 235110                    LDA     NEXT_CHECK+8494,X0,AUTO
        44 001455   000001 735000                    ALS     1
        44 001456   000000 236105                    LDQ     0,AL,PR0
        44 001457   000022 732000                    QRS     18
        44 001460   227501 036110                    ADLQ    NEXT_CHECK+8492,X0,AUTO
        44 001461   040000 221003                    LDX1    16384,DU
        44 001462   236716 116111                    CMPQ    NEXT_CHECK+12217,X1,AUTO
        44 001463   001472 604400 44                 TMOZ    s:1200

   1199 44 001464   227503 235110                    LDA     NEXT_CHECK+8494,X0,AUTO
        44 001465   000001 735000                    ALS     1
        44 001466   000000 236105                    LDQ     0,AL,PR0
        44 001467   000022 732000                    QRS     18
        44 001470   227501 036110                    ADLQ    NEXT_CHECK+8492,X0,AUTO
        44 001471   236716 756111                    STQ     NEXT_CHECK+12217,X1,AUTO

   1200 44 001472   236716 235111                    LDA     NEXT_CHECK+12217,X1,AUTO
        44 001473   067670 115007                    CMPA    28600,DL
        44 001474   001503 604400 44                 TMOZ    s:1204

   1201 44 001475   000100 630400 45                 EPPR0   64
        44 001476   000001 631400 45                 EPPR1   1
        44 001477   000000 701000 xent               TSX1    DIAG
        44 001500   000000 011000                    NOP     0
        44 001501   200000 221003                    LDX1    65536,DU
        44 001502   233726 634511                    EPPR4   NEXT_CHECK+10689,X1,AUTO

PL6.E3A0      #001=TABLES File=LR_TABLE.:Z8A6TSI                                 SAT 08/09/97 09:37 Page:83
      394     1204    5             NEXT_CHECK.NEXT(BASE_FOUND_NUM + SLICE.INDX(I)) = SLICE.VAL(I);

   1204 44 001503   200000 220003                    LDX0    65536,DU
        44 001504   227475 470510                    LDP0    NEXT_CHECK+8488,X0,AUTO
        44 001505   227503 235110                    LDA     NEXT_CHECK+8494,X0,AUTO
        44 001506   000001 735000                    ALS     1
        44 001507   000000 236105                    LDQ     0,AL,PR0
        44 001510   000022 732000                    QRS     18
        44 001511   227501 036110                    ADLQ    NEXT_CHECK+8492,X0,AUTO
        44 001512   227503 235110                    LDA     NEXT_CHECK+8494,X0,AUTO
        44 001513   000001 735000                    ALS     1
        44 001514   000001 221105                    LDX1    1,AL,PR0
        44 001515   207025 741106                    STX1    NEXT_CHECK,QL,AUTO

      395     1205    5           END;

      396     1206    4         NEXT_CHECK.CHECK(BASE_FOUND_NUM + SLICE.INDX(I)) = INDX;

   1206 44 001516   227503 235110                    LDA     NEXT_CHECK+8494,X0,AUTO
        44 001517   000001 735000                    ALS     1
        44 001520   000000 236105                    LDQ     0,AL,PR0
        44 001521   000022 732000                    QRS     18
        44 001522   227501 036110                    ADLQ    NEXT_CHECK+8492,X0,AUTO
        44 001523   227473 471510                    LDP1    NEXT_CHECK+8486,X0,AUTO
        44 001524   100000 721100                    LXL1    0,,PR1
        44 001525   207025 441106                    SXL1    NEXT_CHECK,QL,AUTO

      397     1207
      398     1208    4   END;

   1208 44 001526   227503 054110                    AOS     NEXT_CHECK+8494,X0,AUTO
        44 001527   227476 470510                    LDP0    NEXT_CHECK+8489,X0,AUTO
        44 001530   227503 236110                    LDQ     NEXT_CHECK+8494,X0,AUTO
        44 001531   000000 116100                    CMPQ    0,,PR0
        44 001532   001445 604400 44                 TMOZ    s:1193

      399     1209
PL6.E3A0      #001=TABLES File=LR_TABLE.:Z8A6TSI                                 SAT 08/09/97 09:37 Page:84
      400     1210    3   IF NEXT_CHECK_LEN < BASE_FOUND_NUM + MAX_INDX THEN

   1210 44 001533   227500 471510                    LDP1    NEXT_CHECK+8491,X0,AUTO
        44 001534   227501 236110                    LDQ     NEXT_CHECK+8492,X0,AUTO
        44 001535   100000 036100                    ADLQ    0,,PR1
        44 001536   040000 221003                    LDX1    16384,DU
        44 001537   236716 116111                    CMPQ    NEXT_CHECK+12217,X1,AUTO
        44 001540   001544 604400 44                 TMOZ    s:1212

      401     1211    3     NEXT_CHECK_LEN = BASE_FOUND_NUM + MAX_INDX;

   1211 44 001541   227501 236110                    LDQ     NEXT_CHECK+8492,X0,AUTO
        44 001542   100000 036100                    ADLQ    0,,PR1
        44 001543   236716 756111                    STQ     NEXT_CHECK+12217,X1,AUTO

      402     1212    3   IF NEXT_CHECK_LEN > %MAX_NC_LEN THEN

   1212 44 001544   236716 235111                    LDA     NEXT_CHECK+12217,X1,AUTO
        44 001545   067670 115007                    CMPA    28600,DL
        44 001546   001555 604400 44                 TMOZ    s:1215

      403     1213    3     CALL DIAG (15, 'ERROR => Output action table overflow.%%');

   1213 44 001547   000102 630400 45                 EPPR0   66
        44 001550   000001 631400 45                 EPPR1   1
        44 001551   000000 701000 xent               TSX1    DIAG
        44 001552   000000 011000                    NOP     0
        44 001553   200000 221003                    LDX1    65536,DU
        44 001554   233726 634511                    EPPR4   NEXT_CHECK+10689,X1,AUTO

      404     1214
      405     1215    3   END TRANSFER_SLICE;

   1215 44 001555   200000 220203                    LDX0  ! 65536,DU
        44 001556   227502 221310                    LDX1  ! NEXT_CHECK+8493,X0,AUTO
        44 001557   000001 702211                    TSX2  ! 1,X1

PL6.E3A0      #001=TABLES File=LR_TABLE.:Z8A6TSI                                 SAT 08/09/97 09:37 Page:85
      406     1216
      407     1217
      408     1218        %EJECT;
PL6.E3A0      #001=TABLES File=LR_TABLE.:Z8A6TSI                                 SAT 08/09/97 09:37 Page:86
      409     1219    2   MATCH_SLICE : PROC;  /* IN INSERT_SLICE_IN_ARRAY */

   1219 44 001560   200000 220203       MATCH_SLICE  LDX0  ! 65536,DU
        44 001561   227502 741310                    STX1  ! NEXT_CHECK+8493,X0,AUTO

      410     1220
      411     1221        /* TAKE THE SLICE AND MATCH IT UP WITH ALL ELEMENTS IN NEXT_CHECK.
      412     1222           RETURN BASE_FOUND_NUM .
      413     1223        */
      414     1224
      415     1225    3   DCL I SBIN WORD;
      416     1226
      417     1227    3   BASE_FOUND_NUM = 0;

   1227 44 001562   227501 450110                    STZ     NEXT_CHECK+8492,X0,AUTO

      418     1228
      419     1229
      420     1230    4   DO WHILE ('1'B);

      421     1231
      422     1232    4     BASE_FOUND_NUM = BASE_FOUND_NUM + 1;

   1232 44 001563   200000 220003                    LDX0    65536,DU
        44 001564   227501 054110                    AOS     NEXT_CHECK+8492,X0,AUTO

      423     1233    4     I = 1;

   1233 44 001565   000001 235007                    LDA     1,DL
        44 001566   227503 755110                    STA     NEXT_CHECK+8494,X0,AUTO

      424     1234
      425     1235    4     IF BASE_FOUND_NUM + SLICE.INDX(I) > %MAX_NC_LEN THEN

   1235 44 001567   227475 470510                    LDP0    NEXT_CHECK+8488,X0,AUTO
        44 001570   227503 235110                    LDA     NEXT_CHECK+8494,X0,AUTO
        44 001571   000001 735000                    ALS     1
PL6.E3A0      #001=TABLES File=LR_TABLE.:Z8A6TSI                                 SAT 08/09/97 09:37 Page:87
        44 001572   000000 236105                    LDQ     0,AL,PR0
        44 001573   000022 732000                    QRS     18
        44 001574   227501 036110                    ADLQ    NEXT_CHECK+8492,X0,AUTO
        44 001575   067670 116007                    CMPQ    28600,DL
        44 001576   001605 604400 44                 TMOZ    s:1238

      426     1236    4       CALL DIAG(15,'ERROR => Output ACTION Table Overflow%%');

   1236 44 001577   000104 630400 45                 EPPR0   68
        44 001600   000001 631400 45                 EPPR1   1
        44 001601   000000 701000 xent               TSX1    DIAG
        44 001602   000000 011000                    NOP     0
        44 001603   200000 221003                    LDX1    65536,DU
        44 001604   233726 634511                    EPPR4   NEXT_CHECK+10689,X1,AUTO

      427     1237
      428     1238    5     DO WHILE NEXT_CHECK_CLEAR.B(SLICE.INDX(I) + BASE_FOUND_NUM) = '0'B;

   1238 44 001605   200000 220003                    LDX0    65536,DU
        44 001606   227475 470510                    LDP0    NEXT_CHECK+8488,X0,AUTO
        44 001607   227503 235110                    LDA     NEXT_CHECK+8494,X0,AUTO
        44 001610   000001 735000                    ALS     1
        44 001611   000000 236105                    LDQ     0,AL,PR0
        44 001612   000022 732000                    QRS     18
        44 001613   227501 036110                    ADLQ    NEXT_CHECK+8492,X0,AUTO
        44 001614   207025 235106                    LDA     NEXT_CHECK,QL,AUTO
        44 001615   001563 601000 44                 TNZ     s:1232

      429     1239
      430     1240    5       I = I + 1;

   1240 44 001616   200000 220003                    LDX0    65536,DU
        44 001617   227503 054110                    AOS     NEXT_CHECK+8494,X0,AUTO

      431     1241    5       IF I > SLICELEN THEN

   1241 44 001620   227476 470510                    LDP0    NEXT_CHECK+8489,X0,AUTO
PL6.E3A0      #001=TABLES File=LR_TABLE.:Z8A6TSI                                 SAT 08/09/97 09:37 Page:88
        44 001621   227503 236110                    LDQ     NEXT_CHECK+8494,X0,AUTO
        44 001622   000000 116100                    CMPQ    0,,PR0
        44 001623   001626 604400 44                 TMOZ    s:1244

      432     1242    5         RETURN;   /* Found Base */

   1242 44 001624   227502 221310                    LDX1  ! NEXT_CHECK+8493,X0,AUTO
        44 001625   000001 702211                    TSX2  ! 1,X1

      433     1243
      434     1244    5       IF BASE_FOUND_NUM + SLICE.INDX(I) > %MAX_NC_LEN THEN

   1244 44 001626   227475 471510                    LDP1    NEXT_CHECK+8488,X0,AUTO
        44 001627   227503 235110                    LDA     NEXT_CHECK+8494,X0,AUTO
        44 001630   000001 735000                    ALS     1
        44 001631   100000 236105                    LDQ     0,AL,PR1
        44 001632   000022 732000                    QRS     18
        44 001633   227501 036110                    ADLQ    NEXT_CHECK+8492,X0,AUTO
        44 001634   067670 116007                    CMPQ    28600,DL
        44 001635   001644 604400 44                 TMOZ    s:1247

      435     1245    5         CALL DIAG(15,'ERROR => Output ACTION Table Overflow%%');

   1245 44 001636   000104 630400 45                 EPPR0   68
        44 001637   000001 631400 45                 EPPR1   1
        44 001640   000000 701000 xent               TSX1    DIAG
        44 001641   000000 011000                    NOP     0
        44 001642   200000 221003                    LDX1    65536,DU
        44 001643   233726 634511                    EPPR4   NEXT_CHECK+10689,X1,AUTO

      436     1246
      437     1247    5     END;

   1247 44 001644   200000 220003                    LDX0    65536,DU
        44 001645   227475 470510                    LDP0    NEXT_CHECK+8488,X0,AUTO
        44 001646   227503 235110                    LDA     NEXT_CHECK+8494,X0,AUTO
        44 001647   000001 735000                    ALS     1
PL6.E3A0      #001=TABLES File=LR_TABLE.:Z8A6TSI                                 SAT 08/09/97 09:37 Page:89
        44 001650   000000 236105                    LDQ     0,AL,PR0
        44 001651   000022 732000                    QRS     18
        44 001652   227501 036110                    ADLQ    NEXT_CHECK+8492,X0,AUTO
        44 001653   207025 235106                    LDA     NEXT_CHECK,QL,AUTO
        44 001654   001616 600000 44                 TZE     s:1240

      438     1248
      439     1249          /* We did not get a match */
      440     1250
      441     1251    4   END;

   1251 44 001655   001563 710000 44                 TRA     s:1232

      442     1252
      443     1253    3   END MATCH_SLICE;
      444     1254
      445     1255
      446     1256        %EJECT;
PL6.E3A0      #001=TABLES File=LR_TABLE.:Z8A6TSI                                 SAT 08/09/97 09:37 Page:90
      447     1257             /* MAIN BODY OF INSERT_SLICE_IN_ARRAY */
      448     1258
      449     1259    2   DEF_BASE.DEFAULT(INDX) = DEFAULT;

   1259 44 001656   227473 470510                    LDP0    NEXT_CHECK+8486,X0,AUTO
        44 001657   227477 471510                    LDP1    NEXT_CHECK+8490,X0,AUTO
        44 001660   000000 722100                    LXL2    0,,PR0
        44 001661   227474 473510                    LDP3    NEXT_CHECK+8487,X0,AUTO
        44 001662   300000 723100                    LXL3    0,,PR3
        44 001663   100000 743112                    STX3    0,X2,PR1

      450     1260
      451     1261    2   IF SLICELEN > 0 THEN

   1261 44 001664   227476 475510                    LDP5    NEXT_CHECK+8489,X0,AUTO
        44 001665   500000 235100                    LDA     0,,PR5
        44 001666   001674 604400 44                 TMOZ    s:1267

      452     1262    3     DO;

      453     1263    3       CALL MATCH_SLICE;

   1263 44 001667   001560 701000 44                 TSX1    MATCH_SLICE
        44 001670   000000 011000                    NOP     0

      454     1264    3       CALL TRANSFER_SLICE;

   1264 44 001671   001440 701000 44                 TSX1    TRANSFER_SLICE
        44 001672   000000 011000                    NOP     0

      455     1265    3     END;

   1265 44 001673   001675 710000 44                 TRA     s:1269

      456     1266    2   ELSE
      457     1267    2     BASE_FOUND_NUM = 0;

PL6.E3A0      #001=TABLES File=LR_TABLE.:Z8A6TSI                                 SAT 08/09/97 09:37 Page:91
   1267 44 001674   227501 450110                    STZ     NEXT_CHECK+8492,X0,AUTO

      458     1268
      459     1269    2   DEF_BASE.BASE(INDX) = BASE_FOUND_NUM;

   1269 44 001675   200000 220003                    LDX0    65536,DU
        44 001676   227473 470510                    LDP0    NEXT_CHECK+8486,X0,AUTO
        44 001677   227477 471510                    LDP1    NEXT_CHECK+8490,X0,AUTO
        44 001700   000000 235100                    LDA     0,,PR0
        44 001701   227501 721110                    LXL1    NEXT_CHECK+8492,X0,AUTO
        44 001702   100000 441105                    SXL1    0,AL,PR1

      460     1270
      461     1271    2   END INSERT_SLICE_IN_ARRAY;

   1271 44 001703   227472 221310                    LDX1  ! NEXT_CHECK+8485,X0,AUTO
        44 001704   000001 702211                    TSX2  ! 1,X1

      462     1272        %EJECT;
PL6.E3A0      #001=TABLES File=LR_TABLE.:Z8A6TSI                                 SAT 08/09/97 09:37 Page:92
      463     1273    1   OUTPUT_STATES : PROC;

   1273 44 001705   040000 220203       OUTPUT_STAT* LDX0  ! 16384,DU
        44 001706   236720 741310                    STX1  ! NEXT_CHECK+12219,X0,AUTO
        44 001707   002436 710000 44                 TRA     s:1476

      464     1274
      465     1275        /* OUTPUT_STATES WILL GENERATE THE ACTION TABLE FOR THE PARSER.
      466     1276        */
      467     1277
      468     1278    2   DCL I  SBIN WORD;
      469     1279    2   DCL J  SBIN WORD;
      470     1280    2   DCL K  SBIN WORD;
      471     1281    2   DCL C$ PTR;
      472     1282
      473     1283    2   DCL 1 ACTION_SLICE (0:NR_TERM_MAX),
      474     1284    2         2 INDX SBIN HALF,
      475     1285    2         2 VAL SBIN HALF;
      476     1286
      477     1287    2   DCL ACTION_SLICE_LEN SBIN WORD;
      478     1288
      479     1289    2   DCL KEYN$      PTR;
      480     1290    2   DCL SYM_INDX   SBIN WORD;
      481     1291    2   DCL FSET$      PTR;
      482     1292    2   DCL 1 AFSET ALIGNED BASED(FSET$),
      483     1293    2         2 FSET(0:0) BIT(1) UNAL;
      484     1294
      485     1295    2   DCL DEFAULT    SBIN WORD;
      486     1296    2   DCL FIRST_ELEM SBIN WORD;
      487     1297        %EJECT;
PL6.E3A0      #001=TABLES File=LR_TABLE.:Z8A6TSI                                 SAT 08/09/97 09:37 Page:93
      488     1298
      489     1299    2   WRITE_OUTPUT_STATES : PROC;   /* OF OUTPUT_STATES */

   1299 44 001710   100000 220203       WRITE_OUTPU* LDX0  ! 32768,DU
        44 001711   201526 741310                    STX1  ! STATE+851,X0,AUTO

      490     1300
      491     1301        /* WRITE THE OUTPUT ACTION TABLES */
      492     1302
      493     1303    3   DCL I SBIN WORD;
      494     1304
      495     1305
      496     1306
      497     1307        %SELECT_OU;

   1308 44 001712   000000 236007 xsym               LDQ     M$OU,DL
        44 001713   000000 756000 0                  STQ     OUT_DCBN

      498     1310
      499     1311        /* OUTPUT COLUMN INFO (STATES) */
      500     1312
      501     1313        %OUTLINE(S="'%START_TABLE_ACTION_COL;'");

   1315 44 001714   000107 630400 45                 EPPR0   71
        44 001715   000001 631400 45                 EPPR1   1
        44 001716   000000 701000 xent               TSX1    OUT_STR
        44 001717   000000 011000                    NOP     0
        44 001720   200000 221003                    LDX1    65536,DU
        44 001721   233726 634511                    EPPR4   NEXT_CHECK+10689,X1,AUTO

   1316 44 001722   000000 631400 45                 EPPR1   0
        44 001723   000000 701000 xent               TSX1    FLUSH
        44 001724   000000 011000                    NOP     0
        44 001725   200000 221003                    LDX1    65536,DU
        44 001726   233726 634511                    EPPR4   NEXT_CHECK+10689,X1,AUTO

      502     1319
PL6.E3A0      #001=TABLES File=LR_TABLE.:Z8A6TSI                                 SAT 08/09/97 09:37 Page:94
      503     1320    4   DO I = 1 TO NR_CONFIG - 1;

   1320 44 001727   000001 235007                    LDA     1,DL
        44 001730   100000 220003                    LDX0    32768,DU
        44 001731   201527 755110                    STA     STATE+852,X0,AUTO
        44 001732   002103 710000 44                 TRA     s:1358+2

      504     1321
      505     1322          %OUT_STR(S="'  %ASDEFBASM(DFL='");

   1323 44 001733   000111 630400 45                 EPPR0   73
        44 001734   000001 631400 45                 EPPR1   1
        44 001735   000000 701000 xent               TSX1    OUT_STR
        44 001736   000000 011000                    NOP     0
        44 001737   200000 221003                    LDX1    65536,DU
        44 001740   233726 634511                    EPPR4   NEXT_CHECK+10689,X1,AUTO

      506     1325    4     CALL OUT_DEC(BINBIT(STATE.DEFAULT_ACTION(I),36));

   1325 44 001741   100000 220003                    LDX0    32768,DU
        44 001742   201527 235110                    LDA     STATE+852,X0,AUTO
        44 001743   200003 236105                    LDQ     STATE,AL,AUTO
        44 001744   000022 732000                    QRS     18
        44 001745   400000 756100                    STQ     0,,PR4
        44 001746   400002 454500                    STP4    2,,PR4
        44 001747   400002 630500                    EPPR0   2,,PR4
        44 001750   000011 631400 45                 EPPR1   9
        44 001751   000000 701000 xent               TSX1    OUT_DEC
        44 001752   000000 011000                    NOP     0
        44 001753   200000 221003                    LDX1    65536,DU
        44 001754   233726 634511                    EPPR4   NEXT_CHECK+10689,X1,AUTO

      507     1326
      508     1327          %BOUNDS(T=ASDEF,V="STATE.DEFAULT_ACTION(I)");

   1329 44 001755   100000 220003                    LDX0    32768,DU
        44 001756   201527 235110                    LDA     STATE+852,X0,AUTO
PL6.E3A0      #001=TABLES File=LR_TABLE.:Z8A6TSI                                 SAT 08/09/97 09:37 Page:95
        44 001757   200003 236105                    LDQ     STATE,AL,AUTO
        44 001760   000022 732000                    QRS     18
        44 001761   000024 116000 35                 CMPQ    TSTATS+20
        44 001762   001764 604400 44                 TMOZ    s:1329+7
        44 001763   000024 236000 35                 LDQ     TSTATS+20
        44 001764   000024 756000 35                 STQ     TSTATS+20

   1330 44 001765   201527 235110                    LDA     STATE+852,X0,AUTO
        44 001766   200003 236105                    LDQ     STATE,AL,AUTO
        44 001767   000022 732000                    QRS     18
        44 001770   000023 116000 35                 CMPQ    TSTATS+19
        44 001771   001773 605000 44                 TPL     s:1330+6
        44 001772   000023 236000 35                 LDQ     TSTATS+19
        44 001773   000023 756000 35                 STQ     TSTATS+19

      509     1333
      510     1334          %OUT_STR(S="',BAS='");

   1335 44 001774   000113 630400 45                 EPPR0   75
        44 001775   000001 631400 45                 EPPR1   1
        44 001776   000000 701000 xent               TSX1    OUT_STR
        44 001777   000000 011000                    NOP     0
        44 002000   200000 221003                    LDX1    65536,DU
        44 002001   233726 634511                    EPPR4   NEXT_CHECK+10689,X1,AUTO

      511     1337    4     CALL OUT_DEC(BINBIT(STATE.BASE(I),36));

   1337 44 002002   100000 220003                    LDX0    32768,DU
        44 002003   201527 235110                    LDA     STATE+852,X0,AUTO
        44 002004   200003 236105                    LDQ     STATE,AL,AUTO
        44 002005   000022 736000                    QLS     18
        44 002006   000022 732000                    QRS     18
        44 002007   400000 756100                    STQ     0,,PR4
        44 002010   400002 454500                    STP4    2,,PR4
        44 002011   400002 630500                    EPPR0   2,,PR4
        44 002012   000011 631400 45                 EPPR1   9
        44 002013   000000 701000 xent               TSX1    OUT_DEC
PL6.E3A0      #001=TABLES File=LR_TABLE.:Z8A6TSI                                 SAT 08/09/97 09:37 Page:96
        44 002014   000000 011000                    NOP     0
        44 002015   200000 221003                    LDX1    65536,DU
        44 002016   233726 634511                    EPPR4   NEXT_CHECK+10689,X1,AUTO

      512     1338          %OUT_STR(S="');'");

   1339 44 002017   000067 630400 45                 EPPR0   55
        44 002020   000001 631400 45                 EPPR1   1
        44 002021   000000 701000 xent               TSX1    OUT_STR
        44 002022   000000 011000                    NOP     0
        44 002023   200000 221003                    LDX1    65536,DU
        44 002024   233726 634511                    EPPR4   NEXT_CHECK+10689,X1,AUTO

      513     1341
      514     1342          %BOUNDS(T=ASBAS, V="STATE.BASE(I)");

   1344 44 002025   100000 220003                    LDX0    32768,DU
        44 002026   201527 235110                    LDA     STATE+852,X0,AUTO
        44 002027   200003 236105                    LDQ     STATE,AL,AUTO
        44 002030   000022 736000                    QLS     18
        44 002031   000022 732000                    QRS     18
        44 002032   000032 116000 35                 CMPQ    TSTATS+26
        44 002033   002035 604400 44                 TMOZ    s:1344+8
        44 002034   000032 236000 35                 LDQ     TSTATS+26
        44 002035   000032 756000 35                 STQ     TSTATS+26

   1345 44 002036   201527 235110                    LDA     STATE+852,X0,AUTO
        44 002037   200003 236105                    LDQ     STATE,AL,AUTO
        44 002040   000022 736000                    QLS     18
        44 002041   000022 732000                    QRS     18
        44 002042   000031 116000 35                 CMPQ    TSTATS+25
        44 002043   002045 605000 44                 TPL     s:1345+7
        44 002044   000031 236000 35                 LDQ     TSTATS+25
        44 002045   000031 756000 35                 STQ     TSTATS+25

      515     1348
      516     1349          %OUT_STR(S="'  /* '");
PL6.E3A0      #001=TABLES File=LR_TABLE.:Z8A6TSI                                 SAT 08/09/97 09:37 Page:97

   1350 44 002046   000044 630400 45                 EPPR0   36
        44 002047   000001 631400 45                 EPPR1   1
        44 002050   000000 701000 xent               TSX1    OUT_STR
        44 002051   000000 011000                    NOP     0
        44 002052   200000 221003                    LDX1    65536,DU
        44 002053   233726 634511                    EPPR4   NEXT_CHECK+10689,X1,AUTO

      517     1352    4     CALL OUT_DEC (I);

   1352 44 002054   400001 452500                    STP2    1,,PR4
        44 002055   400001 236100                    LDQ     1,,PR4
        44 002056   101527 036003                    ADLQ    33623,DU
        44 002057   400000 756100                    STQ     0,,PR4
        44 002060   400000 630500                    EPPR0   0,,PR4
        44 002061   000011 631400 45                 EPPR1   9
        44 002062   000000 701000 xent               TSX1    OUT_DEC
        44 002063   000000 011000                    NOP     0
        44 002064   200000 221003                    LDX1    65536,DU
        44 002065   233726 634511                    EPPR4   NEXT_CHECK+10689,X1,AUTO

      518     1353          %OUT_STR(S="' */'");

   1354 44 002066   000052 630400 45                 EPPR0   42
        44 002067   000001 631400 45                 EPPR1   1
        44 002070   000000 701000 xent               TSX1    OUT_STR
        44 002071   000000 011000                    NOP     0
        44 002072   200000 221003                    LDX1    65536,DU
        44 002073   233726 634511                    EPPR4   NEXT_CHECK+10689,X1,AUTO

      519     1356    4     CALL FLUSH;

   1356 44 002074   000000 631400 45                 EPPR1   0
        44 002075   000000 701000 xent               TSX1    FLUSH
        44 002076   000000 011000                    NOP     0
        44 002077   200000 221003                    LDX1    65536,DU
        44 002100   233726 634511                    EPPR4   NEXT_CHECK+10689,X1,AUTO
PL6.E3A0      #001=TABLES File=LR_TABLE.:Z8A6TSI                                 SAT 08/09/97 09:37 Page:98

      520     1357
      521     1358    4   END;

   1358 44 002101   100000 220003                    LDX0    32768,DU
        44 002102   201527 054110                    AOS     STATE+852,X0,AUTO
        44 002103   201527 236110                    LDQ     STATE+852,X0,AUTO
        44 002104   000000 116000 37                 CMPQ    NR_CONFIG
        44 002105   001733 604000 44                 TMI     s:1323

      522     1359
      523     1360        %OUTLINE(S="'%END_TABLE_ACTION_COL;'");

   1362 44 002106   000115 630400 45                 EPPR0   77
        44 002107   000001 631400 45                 EPPR1   1
        44 002110   000000 701000 xent               TSX1    OUT_STR
        44 002111   000000 011000                    NOP     0
        44 002112   200000 221003                    LDX1    65536,DU
        44 002113   233726 634511                    EPPR4   NEXT_CHECK+10689,X1,AUTO

   1363 44 002114   000000 631400 45                 EPPR1   0
        44 002115   000000 701000 xent               TSX1    FLUSH
        44 002116   000000 011000                    NOP     0
        44 002117   200000 221003                    LDX1    65536,DU
        44 002120   233726 634511                    EPPR4   NEXT_CHECK+10689,X1,AUTO

      524     1366
      525     1367        /* OUTPUT ROW INFO (ACTIONS) */
      526     1368
      527     1369        %SELECT_SUBS;

   1370 44 002121   000000 236007 xsym               LDQ     M$SO,DL
        44 002122   000000 756000 0                  STQ     OUT_DCBN

      528     1372
      529     1373        %OUT_STR(S="'%EQU ACTION_COL_LEN = '");

PL6.E3A0      #001=TABLES File=LR_TABLE.:Z8A6TSI                                 SAT 08/09/97 09:37 Page:99
   1374 44 002123   000117 630400 45                 EPPR0   79
        44 002124   000001 631400 45                 EPPR1   1
        44 002125   000000 701000 xent               TSX1    OUT_STR
        44 002126   000000 011000                    NOP     0
        44 002127   200000 221003                    LDX1    65536,DU
        44 002130   233726 634511                    EPPR4   NEXT_CHECK+10689,X1,AUTO

      530     1376    3   CALL OUT_DEC(NR_CONFIG - 1);

   1376 44 002131   000000 235000 37                 LDA     NR_CONFIG
        44 002132   000001 135007                    SBLA    1,DL
        44 002133   400000 755100                    STA     0,,PR4
        44 002134   400001 454500                    STP4    1,,PR4
        44 002135   400001 630500                    EPPR0   1,,PR4
        44 002136   000011 631400 45                 EPPR1   9
        44 002137   000000 701000 xent               TSX1    OUT_DEC
        44 002140   000000 011000                    NOP     0
        44 002141   200000 221003                    LDX1    65536,DU
        44 002142   233726 634511                    EPPR4   NEXT_CHECK+10689,X1,AUTO

      531     1377        %OUT_STR(S="';'");

   1378 44 002143   000013 630400 45                 EPPR0   11
        44 002144   000001 631400 45                 EPPR1   1
        44 002145   000000 701000 xent               TSX1    OUT_STR
        44 002146   000000 011000                    NOP     0
        44 002147   200000 221003                    LDX1    65536,DU
        44 002150   233726 634511                    EPPR4   NEXT_CHECK+10689,X1,AUTO

      532     1380    3   CALL FLUSH;

   1380 44 002151   000000 631400 45                 EPPR1   0
        44 002152   000000 701000 xent               TSX1    FLUSH
        44 002153   000000 011000                    NOP     0
        44 002154   200000 221003                    LDX1    65536,DU
        44 002155   233726 634511                    EPPR4   NEXT_CHECK+10689,X1,AUTO

PL6.E3A0      #001=TABLES File=LR_TABLE.:Z8A6TSI                                 SAT 08/09/97 09:37 Page:100
      533     1381
      534     1382        %STAT_LENGTH(T=ASDEF,V="NR_CONFIG");

   1383 44 002156   000000 235000 37                 LDA     NR_CONFIG
        44 002157   000025 755000 35                 STA     TSTATS+21

      535     1385        %STAT_LENGTH(T=ASBAS,V="NR_CONFIG");

   1386 44 002160   000033 755000 35                 STA     TSTATS+27

      536     1388
      537     1389        %SELECT_OU;

   1390 44 002161   000000 236007 xsym               LDQ     M$OU,DL
        44 002162   000000 756000 0                  STQ     OUT_DCBN

      538     1392
      539     1393
      540     1394        %OUTLINE(S="'%START_TABLE_ACTION_ROW;'");

   1396 44 002163   000121 630400 45                 EPPR0   81
        44 002164   000001 631400 45                 EPPR1   1
        44 002165   000000 701000 xent               TSX1    OUT_STR
        44 002166   000000 011000                    NOP     0
        44 002167   200000 221003                    LDX1    65536,DU
        44 002170   233726 634511                    EPPR4   NEXT_CHECK+10689,X1,AUTO

   1397 44 002171   000000 631400 45                 EPPR1   0
        44 002172   000000 701000 xent               TSX1    FLUSH
        44 002173   000000 011000                    NOP     0
        44 002174   200000 221003                    LDX1    65536,DU
        44 002175   233726 634511                    EPPR4   NEXT_CHECK+10689,X1,AUTO

      541     1400
      542     1401
      543     1402    4   DO I = 2 TO NEXT_CHECK_LEN;

PL6.E3A0      #001=TABLES File=LR_TABLE.:Z8A6TSI                                 SAT 08/09/97 09:37 Page:101
   1402 44 002176   000002 235007                    LDA     2,DL
        44 002177   100000 220003                    LDX0    32768,DU
        44 002200   201527 755110                    STA     STATE+852,X0,AUTO
        44 002201   002352 710000 44                 TRA     s:1442+2

      544     1403
      545     1404
      546     1405          %OUT_STR(S="'  %ANCM(NXT='");

   1406 44 002202   000124 630400 45                 EPPR0   84
        44 002203   000001 631400 45                 EPPR1   1
        44 002204   000000 701000 xent               TSX1    OUT_STR
        44 002205   000000 011000                    NOP     0
        44 002206   200000 221003                    LDX1    65536,DU
        44 002207   233726 634511                    EPPR4   NEXT_CHECK+10689,X1,AUTO

      547     1408    4     CALL OUT_DEC(BINBIT(NEXT_CHECK.NEXT(I),36));

   1408 44 002210   100000 220003                    LDX0    32768,DU
        44 002211   201527 235110                    LDA     STATE+852,X0,AUTO
        44 002212   207025 236105                    LDQ     NEXT_CHECK,AL,AUTO
        44 002213   000022 732000                    QRS     18
        44 002214   400000 756100                    STQ     0,,PR4
        44 002215   400002 454500                    STP4    2,,PR4
        44 002216   400002 630500                    EPPR0   2,,PR4
        44 002217   000011 631400 45                 EPPR1   9
        44 002220   000000 701000 xent               TSX1    OUT_DEC
        44 002221   000000 011000                    NOP     0
        44 002222   200000 221003                    LDX1    65536,DU
        44 002223   233726 634511                    EPPR4   NEXT_CHECK+10689,X1,AUTO

      548     1409
      549     1410          %BOUNDS(T=ANCNXT, V="NEXT_CHECK.NEXT(I)");

   1412 44 002224   100000 220003                    LDX0    32768,DU
        44 002225   201527 235110                    LDA     STATE+852,X0,AUTO
        44 002226   207025 236105                    LDQ     NEXT_CHECK,AL,AUTO
PL6.E3A0      #001=TABLES File=LR_TABLE.:Z8A6TSI                                 SAT 08/09/97 09:37 Page:102
        44 002227   000022 732000                    QRS     18
        44 002230   000040 116000 35                 CMPQ    TSTATS+32
        44 002231   002233 604400 44                 TMOZ    s:1412+7
        44 002232   000040 236000 35                 LDQ     TSTATS+32
        44 002233   000040 756000 35                 STQ     TSTATS+32

   1413 44 002234   201527 235110                    LDA     STATE+852,X0,AUTO
        44 002235   207025 236105                    LDQ     NEXT_CHECK,AL,AUTO
        44 002236   000022 732000                    QRS     18
        44 002237   000037 116000 35                 CMPQ    TSTATS+31
        44 002240   002242 605000 44                 TPL     s:1413+6
        44 002241   000037 236000 35                 LDQ     TSTATS+31
        44 002242   000037 756000 35                 STQ     TSTATS+31

      550     1416
      551     1417          %OUT_STR(S="',CHK='");

   1418 44 002243   000126 630400 45                 EPPR0   86
        44 002244   000001 631400 45                 EPPR1   1
        44 002245   000000 701000 xent               TSX1    OUT_STR
        44 002246   000000 011000                    NOP     0
        44 002247   200000 221003                    LDX1    65536,DU
        44 002250   233726 634511                    EPPR4   NEXT_CHECK+10689,X1,AUTO

      552     1420    4     CALL OUT_DEC(BINBIT(NEXT_CHECK.CHECK(I),36));

   1420 44 002251   100000 220003                    LDX0    32768,DU
        44 002252   201527 235110                    LDA     STATE+852,X0,AUTO
        44 002253   207025 236105                    LDQ     NEXT_CHECK,AL,AUTO
        44 002254   000022 736000                    QLS     18
        44 002255   000022 732000                    QRS     18
        44 002256   400000 756100                    STQ     0,,PR4
        44 002257   400002 454500                    STP4    2,,PR4
        44 002260   400002 630500                    EPPR0   2,,PR4
        44 002261   000011 631400 45                 EPPR1   9
        44 002262   000000 701000 xent               TSX1    OUT_DEC
        44 002263   000000 011000                    NOP     0
PL6.E3A0      #001=TABLES File=LR_TABLE.:Z8A6TSI                                 SAT 08/09/97 09:37 Page:103
        44 002264   200000 221003                    LDX1    65536,DU
        44 002265   233726 634511                    EPPR4   NEXT_CHECK+10689,X1,AUTO

      553     1421          %OUT_STR(S="');'");

   1422 44 002266   000067 630400 45                 EPPR0   55
        44 002267   000001 631400 45                 EPPR1   1
        44 002270   000000 701000 xent               TSX1    OUT_STR
        44 002271   000000 011000                    NOP     0
        44 002272   200000 221003                    LDX1    65536,DU
        44 002273   233726 634511                    EPPR4   NEXT_CHECK+10689,X1,AUTO

      554     1424
      555     1425          %BOUNDS(T=ANCCHK, V="NEXT_CHECK.CHECK(I)");

   1427 44 002274   100000 220003                    LDX0    32768,DU
        44 002275   201527 235110                    LDA     STATE+852,X0,AUTO
        44 002276   207025 236105                    LDQ     NEXT_CHECK,AL,AUTO
        44 002277   000022 736000                    QLS     18
        44 002300   000022 732000                    QRS     18
        44 002301   000046 116000 35                 CMPQ    TSTATS+38
        44 002302   002304 604400 44                 TMOZ    s:1427+8
        44 002303   000046 236000 35                 LDQ     TSTATS+38
        44 002304   000046 756000 35                 STQ     TSTATS+38

   1428 44 002305   201527 235110                    LDA     STATE+852,X0,AUTO
        44 002306   207025 236105                    LDQ     NEXT_CHECK,AL,AUTO
        44 002307   000022 736000                    QLS     18
        44 002310   000022 732000                    QRS     18
        44 002311   000045 116000 35                 CMPQ    TSTATS+37
        44 002312   002314 605000 44                 TPL     s:1428+7
        44 002313   000045 236000 35                 LDQ     TSTATS+37
        44 002314   000045 756000 35                 STQ     TSTATS+37

      556     1431
      557     1432          %OUT_STR(S="'  /* '");

PL6.E3A0      #001=TABLES File=LR_TABLE.:Z8A6TSI                                 SAT 08/09/97 09:37 Page:104
   1433 44 002315   000044 630400 45                 EPPR0   36
        44 002316   000001 631400 45                 EPPR1   1
        44 002317   000000 701000 xent               TSX1    OUT_STR
        44 002320   000000 011000                    NOP     0
        44 002321   200000 221003                    LDX1    65536,DU
        44 002322   233726 634511                    EPPR4   NEXT_CHECK+10689,X1,AUTO

      558     1435    4     CALL OUT_DEC(I);

   1435 44 002323   400001 452500                    STP2    1,,PR4
        44 002324   400001 236100                    LDQ     1,,PR4
        44 002325   101527 036003                    ADLQ    33623,DU
        44 002326   400000 756100                    STQ     0,,PR4
        44 002327   400000 630500                    EPPR0   0,,PR4
        44 002330   000011 631400 45                 EPPR1   9
        44 002331   000000 701000 xent               TSX1    OUT_DEC
        44 002332   000000 011000                    NOP     0
        44 002333   200000 221003                    LDX1    65536,DU
        44 002334   233726 634511                    EPPR4   NEXT_CHECK+10689,X1,AUTO

      559     1436          %OUT_STR(S="' */'");

   1437 44 002335   000052 630400 45                 EPPR0   42
        44 002336   000001 631400 45                 EPPR1   1
        44 002337   000000 701000 xent               TSX1    OUT_STR
        44 002340   000000 011000                    NOP     0
        44 002341   200000 221003                    LDX1    65536,DU
        44 002342   233726 634511                    EPPR4   NEXT_CHECK+10689,X1,AUTO

      560     1439    4     CALL FLUSH;

   1439 44 002343   000000 631400 45                 EPPR1   0
        44 002344   000000 701000 xent               TSX1    FLUSH
        44 002345   000000 011000                    NOP     0
        44 002346   200000 221003                    LDX1    65536,DU
        44 002347   233726 634511                    EPPR4   NEXT_CHECK+10689,X1,AUTO

PL6.E3A0      #001=TABLES File=LR_TABLE.:Z8A6TSI                                 SAT 08/09/97 09:37 Page:105
      561     1440
      562     1441
      563     1442    4   END;

   1442 44 002350   100000 220003                    LDX0    32768,DU
        44 002351   201527 054110                    AOS     STATE+852,X0,AUTO
        44 002352   040000 221003                    LDX1    16384,DU
        44 002353   201527 236110                    LDQ     STATE+852,X0,AUTO
        44 002354   236716 116111                    CMPQ    NEXT_CHECK+12217,X1,AUTO
        44 002355   002202 604400 44                 TMOZ    s:1406

      564     1443
      565     1444        %OUTLINE(S="'%END_TABLE_ACTION_ROW;'");

   1446 44 002356   000130 630400 45                 EPPR0   88
        44 002357   000001 631400 45                 EPPR1   1
        44 002360   000000 701000 xent               TSX1    OUT_STR
        44 002361   000000 011000                    NOP     0
        44 002362   200000 221003                    LDX1    65536,DU
        44 002363   233726 634511                    EPPR4   NEXT_CHECK+10689,X1,AUTO

   1447 44 002364   000000 631400 45                 EPPR1   0
        44 002365   000000 701000 xent               TSX1    FLUSH
        44 002366   000000 011000                    NOP     0
        44 002367   200000 221003                    LDX1    65536,DU
        44 002370   233726 634511                    EPPR4   NEXT_CHECK+10689,X1,AUTO

      566     1450
      567     1451        %SELECT_SUBS;

   1452 44 002371   000000 236007 xsym               LDQ     M$SO,DL
        44 002372   000000 756000 0                  STQ     OUT_DCBN

      568     1454
      569     1455        %OUT_STR(S="'%EQU ACTION_ROW_LEN = '");

   1456 44 002373   000132 630400 45                 EPPR0   90
PL6.E3A0      #001=TABLES File=LR_TABLE.:Z8A6TSI                                 SAT 08/09/97 09:37 Page:106
        44 002374   000001 631400 45                 EPPR1   1
        44 002375   000000 701000 xent               TSX1    OUT_STR
        44 002376   000000 011000                    NOP     0
        44 002377   200000 221003                    LDX1    65536,DU
        44 002400   233726 634511                    EPPR4   NEXT_CHECK+10689,X1,AUTO

      570     1458    3   CALL OUT_DEC(NEXT_CHECK_LEN);

   1458 44 002401   400001 452500                    STP2    1,,PR4
        44 002402   400001 236100                    LDQ     1,,PR4
        44 002403   076716 036003                    ADLQ    32206,DU
        44 002404   400000 756100                    STQ     0,,PR4
        44 002405   400000 630500                    EPPR0   0,,PR4
        44 002406   000011 631400 45                 EPPR1   9
        44 002407   000000 701000 xent               TSX1    OUT_DEC
        44 002410   000000 011000                    NOP     0
        44 002411   200000 221003                    LDX1    65536,DU
        44 002412   233726 634511                    EPPR4   NEXT_CHECK+10689,X1,AUTO

      571     1459        %OUT_STR(S="';'");

   1460 44 002413   000013 630400 45                 EPPR0   11
        44 002414   000001 631400 45                 EPPR1   1
        44 002415   000000 701000 xent               TSX1    OUT_STR
        44 002416   000000 011000                    NOP     0
        44 002417   200000 221003                    LDX1    65536,DU
        44 002420   233726 634511                    EPPR4   NEXT_CHECK+10689,X1,AUTO

      572     1462    3   CALL FLUSH;

   1462 44 002421   000000 631400 45                 EPPR1   0
        44 002422   000000 701000 xent               TSX1    FLUSH
        44 002423   000000 011000                    NOP     0
        44 002424   200000 221003                    LDX1    65536,DU
        44 002425   233726 634511                    EPPR4   NEXT_CHECK+10689,X1,AUTO

      573     1463
PL6.E3A0      #001=TABLES File=LR_TABLE.:Z8A6TSI                                 SAT 08/09/97 09:37 Page:107
      574     1464        %STAT_LENGTH(T=ANCNXT,V="NEXT_CHECK_LEN+1");

   1465 44 002426   040000 220003                    LDX0    16384,DU
        44 002427   236716 235110                    LDA     NEXT_CHECK+12217,X0,AUTO
        44 002430   000001 035007                    ADLA    1,DL
        44 002431   000041 755000 35                 STA     TSTATS+33

      575     1467        %STAT_LENGTH(T=ANCCHK,V="NEXT_CHECK_LEN+1");

   1468 44 002432   000047 755000 35                 STA     TSTATS+39

      576     1470
      577     1471
      578     1472    3   END WRITE_OUTPUT_STATES;

   1472 44 002433   100000 221203                    LDX1  ! 32768,DU
        44 002434   201526 221311                    LDX1  ! STATE+851,X1,AUTO
        44 002435   000001 702211                    TSX2  ! 1,X1

      579     1473        %EJECT;
PL6.E3A0      #001=TABLES File=LR_TABLE.:Z8A6TSI                                 SAT 08/09/97 09:37 Page:108
      580     1474              /* MAIN BODY OF OUTPUT_STATES */
      581     1475
      582     1476    2   NEXT_CHECK_LEN    = 0;

   1476 44 002436   236716 450110                    STZ     NEXT_CHECK+12217,X0,AUTO

      583     1477    2   NEXT_CHECK_CLEAR.B = '0'B;

   1477 44 002437   337344 221003                    LDX1    114404,DU
        44 002440   000140 100400                    MLR     fill='000'O
        44 002441   000000 000001 45                 ADSC9   0                        cn=0,n=1
        44 002442   207025 000011                    ADSC9   NEXT_CHECK,,AUTO         cn=0,n=*X1

      584     1478
      585     1479
      586     1480    3   DO I = 0 TO NR_CONFIG - 1;

   1480 44 002443   236721 450110                    STZ     NEXT_CHECK+12220,X0,AUTO
        44 002444   002654 710000 44                 TRA     s:1537+2

      587     1481
      588     1482    3     C$ = C#_TO_$ (I);

   1482 44 002445   040000 220003                    LDX0    16384,DU
        44 002446   236721 721110                    LXL1    NEXT_CHECK+12220,X0,AUTO
        44 002447   000000 236011 36                 LDQ     C#_TO_$,X1
        44 002450   236724 756110                    STQ     NEXT_CHECK+12223,X0,AUTO

      589     1483
      590     1484    3   ACTION_SLICE_LEN = 0;

   1484 44 002451   100000 221003                    LDX1    32768,DU
        44 002452   201517 450111                    STZ     STATE+844,X1,AUTO

      591     1485    3   FIRST_ELEM       = 0;

   1485 44 002453   201524 450111                    STZ     STATE+849,X1,AUTO
PL6.E3A0      #001=TABLES File=LR_TABLE.:Z8A6TSI                                 SAT 08/09/97 09:37 Page:109

      592     1486
      593     1487    3     IF C$ -> C_SET_B.REDUCE_COUNT = 1 THEN

   1487 44 002454   236724 470510                    LDP0    NEXT_CHECK+12223,X0,AUTO
        44 002455   000002 222100                    LDX2    2,,PR0
        44 002456   000001 102003                    CMPX2   1,DU
        44 002457   002470 601000 44                 TNZ     s:1493

      594     1488    4       DO;  /* ONLY ONE REDUCTION WHICH IS FIRST IN LIST */

      595     1489    4         FIRST_ELEM = 1;

   1489 44 002460   000001 235007                    LDA     1,DL
        44 002461   201524 755111                    STA     STATE+849,X1,AUTO

      596     1490    4         DEFAULT = -(C$->C_SET_B.ELEM.KEY$(0) -> KEY_B.ELEM.PROD(0) + 1);

   1490 44 002462   000004 471500                    LDP1    4,,PR0
        44 002463   100006 236100                    LDQ     6,,PR1
        44 002464   000022 772000                    QRL     18
        44 002465   000134 676000 45                 ERQ     92
        44 002466   201523 756111                    STQ     STATE+848,X1,AUTO

      597     1491    4       END;

   1491 44 002467   002471 710000 44                 TRA     s:1497

      598     1492    3     ELSE
      599     1493    3       DEFAULT = 0;  /* ERROR */

   1493 44 002470   201523 450111                    STZ     STATE+848,X1,AUTO

      600     1494
      601     1495        /* HANDLE ALL OTHER SHIFTS AND REDUCTIONS */
      602     1496
      603     1497    4     DO J = FIRST_ELEM TO C$->C_SET_B.NR_ELEM - 1;
PL6.E3A0      #001=TABLES File=LR_TABLE.:Z8A6TSI                                 SAT 08/09/97 09:37 Page:110

   1497 44 002471   201524 235111                    LDA     STATE+849,X1,AUTO
        44 002472   236722 755110                    STA     NEXT_CHECK+12221,X0,AUTO
        44 002473   002616 710000 44                 TRA     s:1529+1

      604     1498
      605     1499    4       KEYN$ = C$ -> C_SET_B.ELEM.KEY$(J);

   1499 44 002474   040000 220003                    LDX0    16384,DU
        44 002475   236724 470510                    LDP0    NEXT_CHECK+12223,X0,AUTO
        44 002476   236722 235110                    LDA     NEXT_CHECK+12221,X0,AUTO
        44 002477   000002 735000                    ALS     2
        44 002500   000004 236105                    LDQ     4,AL,PR0
        44 002501   100000 221003                    LDX1    32768,DU
        44 002502   201520 756111                    STQ     STATE+845,X1,AUTO

      606     1500    4       IF KEYN$ -> KEY_B.W.SYM_AFTER = 0 THEN

   1500 44 002503   201520 471511                    LDP1    STATE+845,X1,AUTO
        44 002504   100004 235100                    LDA     4,,PR1
        44 002505   002555 601000 44                 TNZ     s:1517

      607     1501              /* WE HAVE A REDUCTION */
      608     1502    5         DO;

      609     1503    5           FSET$ = ADDR(KEYN$ -> KEY_B.FOLLOW$ ->INCL_B.SET);

   1503 44 002506   100003 473500                    LDP3    3,,PR1
        44 002507   300003 635500                    EPPR5   3,,PR3
        44 002510   201522 455511                    STP5    STATE+847,X1,AUTO

      610     1504    5           IF NOT C$ -> C_SET_B.ELEM.AMBIG_SEL_SHIFT(J) THEN

   1504 44 002511   236722 235110                    LDA     NEXT_CHECK+12221,X0,AUTO
        44 002512   000002 735000                    ALS     2
        44 002513   000007 234105                    SZN     7,AL,PR0
        44 002514   002615 604000 44                 TMI     s:1529
PL6.E3A0      #001=TABLES File=LR_TABLE.:Z8A6TSI                                 SAT 08/09/97 09:37 Page:111

      611     1505    6           DO K = 1 TO NR_TERM;

   1505 44 002515   000001 235007                    LDA     1,DL
        44 002516   236723 755110                    STA     NEXT_CHECK+12222,X0,AUTO
        44 002517   002550 710000 44                 TRA     s:1512+1

      612     1506    6             IF AFSET.FSET(K) THEN

   1506 44 002520   100000 220003                    LDX0    32768,DU
        44 002521   201522 470510                    LDP0    STATE+847,X0,AUTO
        44 002522   040000 221003                    LDX1    16384,DU
        44 002523   236723 235111                    LDA     NEXT_CHECK+12222,X1,AUTO
        44 002524   002526 605000 44                 TPL     s:1506+6
        44 002525   000044 035003                    ADLA    36,DU
        44 002526   000000 066505                    CMPB    filb='0'B
        44 002527   000000 000001                    BDSC    0,A,PR0                  by=0,bit=0,n=1
        44 002530   000000 000022 45                 BDSC    0                        by=0,bit=0,n=18
        44 002531   002547 600000 44                 TZE     s:1512

      613     1507    7               DO;

      614     1508    7                 ACTION_SLICE_LEN = ACTION_SLICE_LEN + 1;

   1508 44 002532   201517 054110                    AOS     STATE+844,X0,AUTO

      615     1509    7                ACTION_SLICE.VAL(ACTION_SLICE_LEN) = -(KEYN$->KEY_B.ELEM.PROD(0) + 1);

   1509 44 002533   201517 235110                    LDA     STATE+844,X0,AUTO
        44 002534   000001 735000                    ALS     1
        44 002535   201520 470510                    LDP0    STATE+845,X0,AUTO
        44 002536   777777 222003                    LDX2    -1,DU
        44 002537   000006 122100                    SBLX2   6,,PR0
        44 002540   040000 623005                    EAX3    16384,AL
        44 002541   236726 742113                    STX2    NEXT_CHECK+12225,X3,AUTO

      616     1510    7                 ACTION_SLICE.INDX(ACTION_SLICE_LEN) = K;
PL6.E3A0      #001=TABLES File=LR_TABLE.:Z8A6TSI                                 SAT 08/09/97 09:37 Page:112

   1510 44 002542   201517 235110                    LDA     STATE+844,X0,AUTO
        44 002543   000001 735000                    ALS     1
        44 002544   236723 722111                    LXL2    NEXT_CHECK+12222,X1,AUTO
        44 002545   040000 623005                    EAX3    16384,AL
        44 002546   236725 742113                    STX2    NEXT_CHECK+12224,X3,AUTO

      617     1511    7               END;

      618     1512    6           END;

   1512 44 002547   236723 054111                    AOS     NEXT_CHECK+12222,X1,AUTO
        44 002550   040000 220003                    LDX0    16384,DU
        44 002551   236723 236110                    LDQ     NEXT_CHECK+12222,X0,AUTO
        44 002552   000000 116000 11                 CMPQ    NR_TERM
        44 002553   002520 604400 44                 TMOZ    s:1506

      619     1513    5         END;

   1513 44 002554   002615 710000 44                 TRA     s:1529

      620     1514    4       ELSE
      621     1515              /* WE HAVE A SHIFT */
      622     1516    5         DO;

      623     1517    5           SYM_INDX = KEYN$ -> KEY_B.W.SYM_AFTER;

   1517 44 002555   201521 755111                    STA     STATE+846,X1,AUTO

      624     1518    5           IF SYM_INDX <= NR_TERM THEN

   1518 44 002556   201521 236111                    LDQ     STATE+846,X1,AUTO
        44 002557   000000 116000 11                 CMPQ    NR_TERM
        44 002560   002615 605400 44                 TPNZ    s:1529

      625     1519    5           IF NOT C$ -> C_SET_B.ELEM.AMBIG_SEL_REDUCE(J) THEN

PL6.E3A0      #001=TABLES File=LR_TABLE.:Z8A6TSI                                 SAT 08/09/97 09:37 Page:113
   1519 44 002561   236722 235110                    LDA     NEXT_CHECK+12221,X0,AUTO
        44 002562   000002 735000                    ALS     2
        44 002563   000007 236105                    LDQ     7,AL,PR0
        44 002564   200000 316003                    CANQ    65536,DU
        44 002565   002615 601000 44                 TNZ     s:1529

      626     1520    6             DO;

      627     1521    6               ACTION_SLICE_LEN = ACTION_SLICE_LEN + 1;

   1521 44 002566   201517 054111                    AOS     STATE+844,X1,AUTO

      628     1522    6               ACTION_SLICE.INDX(ACTION_SLICE_LEN) = SYM_INDX;

   1522 44 002567   201517 235111                    LDA     STATE+844,X1,AUTO
        44 002570   000001 735000                    ALS     1
        44 002571   201521 722111                    LXL2    STATE+846,X1,AUTO
        44 002572   040000 623005                    EAX3    16384,AL
        44 002573   236725 742113                    STX2    NEXT_CHECK+12224,X3,AUTO

      629     1523    6               ACTION_SLICE.VAL(ACTION_SLICE_LEN) = KEYN$ ->KEY_B.KEY_VAL$ ->C_SET_B.
              1523                        C_SET#;

   1523 44 002574   201517 235111                    LDA     STATE+844,X1,AUTO
        44 002575   000001 735000                    ALS     1
        44 002576   201520 471511                    LDP1    STATE+845,X1,AUTO
        44 002577   100003 473500                    LDP3    3,,PR1
        44 002600   300001 223100                    LDX3    1,,PR3
        44 002601   040000 624005                    EAX4    16384,AL
        44 002602   236726 743114                    STX3    NEXT_CHECK+12225,X4,AUTO

      630     1524    6               IF ACTION_SLICE.VAL(ACTION_SLICE_LEN) = 0 THEN

   1524 44 002603   201517 235111                    LDA     STATE+844,X1,AUTO
        44 002604   000001 735000                    ALS     1
        44 002605   040000 623005                    EAX3    16384,AL
        44 002606   236726 224113                    LDX4    NEXT_CHECK+12225,X3,AUTO
PL6.E3A0      #001=TABLES File=LR_TABLE.:Z8A6TSI                                 SAT 08/09/97 09:37 Page:114
        44 002607   002615 601000 44                 TNZ     s:1529

      631     1525                      /* FLAG FINAL STATE */
      632     1526    6               ACTION_SLICE.VAL(ACTION_SLICE_LEN) = UNIQUE_FINAL_STATE;

   1526 44 002610   201517 235111                    LDA     STATE+844,X1,AUTO
        44 002611   000001 735000                    ALS     1
        44 002612   303237 223003                    LDX3    99999,DU
        44 002613   040000 624005                    EAX4    16384,AL
        44 002614   236726 743114                    STX3    NEXT_CHECK+12225,X4,AUTO

      633     1527    6             END;

      634     1528    5         END;

      635     1529    4     END;

   1529 44 002615   236722 054110                    AOS     NEXT_CHECK+12221,X0,AUTO
        44 002616   236724 470510                    LDP0    NEXT_CHECK+12223,X0,AUTO
        44 002617   000001 236100                    LDQ     1,,PR0
        44 002620   777777 376007                    ANQ     -1,DL
        44 002621   236722 116110                    CMPQ    NEXT_CHECK+12221,X0,AUTO
        44 002622   002474 605400 44                 TPNZ    s:1499

      636     1530
      637     1531    3     CALL INSERT_SLICE_IN_ARRAY ( I,

   1531 44 002623   000135 236000 45                 LDQ     93
        44 002624   200000 221003                    LDX1    65536,DU
        44 002625   227500 756111                    STQ     NEXT_CHECK+8491,X1,AUTO
        44 002626   200003 631500                    EPPR1   STATE,,AUTO
        44 002627   227477 451511                    STP1    NEXT_CHECK+8490,X1,AUTO
        44 002630   400000 452500                    STP2    0,,PR4
        44 002631   400000 236100                    LDQ     0,,PR4
        44 002632   101517 036003                    ADLQ    33615,DU
        44 002633   227476 756111                    STQ     NEXT_CHECK+8489,X1,AUTO
        44 002634   400001 452500                    STP2    1,,PR4
PL6.E3A0      #001=TABLES File=LR_TABLE.:Z8A6TSI                                 SAT 08/09/97 09:37 Page:115
        44 002635   400001 236100                    LDQ     1,,PR4
        44 002636   076725 036003                    ADLQ    32213,DU
        44 002637   227475 756111                    STQ     NEXT_CHECK+8488,X1,AUTO
        44 002640   400002 452500                    STP2    2,,PR4
        44 002641   400002 236100                    LDQ     2,,PR4
        44 002642   101523 036003                    ADLQ    33619,DU
        44 002643   227474 756111                    STQ     NEXT_CHECK+8487,X1,AUTO
        44 002644   400003 452500                    STP2    3,,PR4
        44 002645   400003 236100                    LDQ     3,,PR4
        44 002646   076721 036003                    ADLQ    32209,DU
        44 002647   227473 756111                    STQ     NEXT_CHECK+8486,X1,AUTO
        44 002650   001435 701000 44                 TSX1    INSERT_SLICE_IN_ARRAY
        44 002651   000000 011000                    NOP     0

      638     1532    3                                  DEFAULT,
      639     1533    3                                  ACTION_SLICE,
      640     1534    3                                  ACTION_SLICE_LEN,
      641     1535    3                                  STATE,
      642     1536    3                                  NR_TERM);
      643     1537    3   END;

   1537 44 002652   040000 220003                    LDX0    16384,DU
        44 002653   236721 054110                    AOS     NEXT_CHECK+12220,X0,AUTO
        44 002654   236721 236110                    LDQ     NEXT_CHECK+12220,X0,AUTO
        44 002655   000000 116000 37                 CMPQ    NR_CONFIG
        44 002656   002445 604000 44                 TMI     s:1482

      644     1538
      645     1539    2   CALL WRITE_OUTPUT_STATES;

   1539 44 002657   001710 701000 44                 TSX1    WRITE_OUTPUT_STATES
        44 002660   000000 011000                    NOP     0

      646     1540
      647     1541    2   END OUTPUT_STATES;

   1541 44 002661   040000 220203                    LDX0  ! 16384,DU
PL6.E3A0      #001=TABLES File=LR_TABLE.:Z8A6TSI                                 SAT 08/09/97 09:37 Page:116
        44 002662   236720 221310                    LDX1  ! NEXT_CHECK+12219,X0,AUTO
        44 002663   000001 702211                    TSX2  ! 1,X1

      648     1542        %EJECT;
PL6.E3A0      #001=TABLES File=LR_TABLE.:Z8A6TSI                                 SAT 08/09/97 09:37 Page:117
      649     1543    1   OUTPUT_GOTO : PROC;

   1543 44 002664   040000 220203       OUTPUT_GOTO  LDX0  ! 16384,DU
        44 002665   236720 741310                    STX1  ! NEXT_CHECK+12219,X0,AUTO
        44 002666   003710 710000 44                 TRA     s:1829

      650     1544
      651     1545        /* OUTPUT_GOTO WILL GENERATE THE GOTO TABLE FOR THE PARSER.
      652     1546        */
      653     1547
      654     1548    2   DCL 1 GOTO_SLICE (0:%NR_CONFIG_MAX),
      655     1549    2         2 INDX SBIN HALF,
      656     1550    2         2 VAL  SBIN HALF;
      657     1551
      658     1552    2   DCL GOTO_SLICE_LEN SBIN WORD;
      659     1553
      660     1554    2   DCL KEYN$              PTR;
      661     1555    2   DCL I                  SBIN WORD;
      662     1556    2   DCL J                  SBIN WORD;
      663     1557    2   DCL K                  SBIN WORD;
      664     1558    2   DCL C$                 PTR;
      665     1559    2   DCL MOST_COMMON_STATE  SBIN WORD;
      666     1560    2   DCL MOST_COMMON_COUNT  SBIN WORD;
      667     1561    2   DCL MAX_STATE_INDX     SBIN WORD;
      668     1562
      669     1563    2   DCL NT_SHIFT (0:NR_SYMS_MAX) SBIN WORD;
      670     1564    2   DCL 1 NT_SHIFT_CLEAR REDEF NT_SHIFT,
      671     1565    2         2 B (0:NR_SYMS_MAX) BIT(36);
      672     1566
      673     1567        %EQU MAX_GOTO_COUNT = 6*NR_CONFIG_MAX;
      674     1568
      675     1569    2   DCL 1 NT_SHIFT_LIST (0:%MAX_GOTO_COUNT),
      676     1570    2         2 STATE SBIN HALF,
      677     1571    2         2 NEW_STATE SBIN HALF,
      678     1572    2         2 INDX SBIN WORD;
      679     1573
      680     1574    2   DCL NT_SHIFT_LIST_LEN SBIN WORD;
PL6.E3A0      #001=TABLES File=LR_TABLE.:Z8A6TSI                                 SAT 08/09/97 09:37 Page:118
      681     1575
      682     1576        %EJECT;
PL6.E3A0      #001=TABLES File=LR_TABLE.:Z8A6TSI                                 SAT 08/09/97 09:37 Page:119
      683     1577
      684     1578    2   CALC_MOST_COMMON_GOTO : PROC(NT);   /* OF OUTPUT GOTO */

   1578 44 002667   200000 220203       CALC_MOST_C* LDX0  ! 65536,DU
        44 002670   227472 741310                    STX1  ! NEXT_CHECK+8485,X0,AUTO

      685     1579
      686     1580    3   DCL NT SBIN WORD;
      687     1581
      688     1582    3   DCL STATE_COUNT (0:%NR_CONFIG_MAX) SBIN WORD;
      689     1583    3   DCL 1 STATE_COUNT_CLEAR REDEF STATE_COUNT,
      690     1584    3         2 B (0:%NR_CONFIG_MAX) BIT(36);
      691     1585    3   DCL I SBIN WORD;
      692     1586
      693     1587    3   MOST_COMMON_STATE = 0;

   1587 44 002671   100000 222003                    LDX2    32768,DU
        44 002672   207411 450112                    STZ     NEXT_CHECK+244,X2,AUTO

      694     1588    3   MOST_COMMON_COUNT = 0;

   1588 44 002673   207412 450112                    STZ     NEXT_CHECK+245,X2,AUTO

      695     1589
      696     1590    3   STATE_COUNT_CLEAR.B = '0'B;

   1590 44 002674   021144 221003                    LDX1    8804,DU
        44 002675   000001 235003                    LDA     1,DU
        44 002676   000145 100400                    MLR     fill='000'O
        44 002677   000000 000001 45                 ADSC9   0                        cn=0,n=1
        44 002700   227474 000011                    ADSC9   NEXT_CHECK+8487,A,AUTO   cn=0,n=*X1

      697     1591    3   I = NT_SHIFT(NT);

   1591 44 002701   227473 470510                    LDP0    NEXT_CHECK+8486,X0,AUTO
        44 002702   000000 235100                    LDA     0,,PR0
        44 002703   100000 623005                    EAX3    32768,AL
PL6.E3A0      #001=TABLES File=LR_TABLE.:Z8A6TSI                                 SAT 08/09/97 09:37 Page:120
        44 002704   207414 235113                    LDA     NEXT_CHECK+247,X3,AUTO
        44 002705   233725 755110                    STA     NEXT_CHECK+10688,X0,AUTO

      698     1592
      699     1593    4   DO WHILE I ~= 0;

   1593 44 002706   003014 600000 44                 TZE     s:1609

      700     1594
      701     1595    4     IF NT_SHIFT_LIST.NEW_STATE(I) > 0 THEN

   1595 44 002707   200000 220003                    LDX0    65536,DU
        44 002710   233725 236110                    LDQ     NEXT_CHECK+10688,X0,AUTO
        44 002711   000003 402007                    MPY     3,DL
        44 002712   100000 621006                    EAX1    32768,QL
        44 002713   212206 222111                    LDX2    NEXT_CHECK+1649,X1,AUTO
        44 002714   003006 604400 44                 TMOZ    s:1606

      702     1596    5       DO;

      703     1597    5        STATE_COUNT(NT_SHIFT_LIST.NEW_STATE(I)) = STATE_COUNT(NT_SHIFT_LIST.NEW_STATE(
              1597                  I)) + 1;

   1597 44 002715   100000 623006                    EAX3    32768,QL
        44 002716   212206 236113                    LDQ     NEXT_CHECK+1649,X3,AUTO
        44 002717   000022 732000                    QRS     18
        44 002720   400000 756100                    STQ     0,,PR4
        44 002721   233725 236110                    LDQ     NEXT_CHECK+10688,X0,AUTO
        44 002722   000003 402007                    MPY     3,DL
        44 002723   100000 624006                    EAX4    32768,QL
        44 002724   212206 236114                    LDQ     NEXT_CHECK+1649,X4,AUTO
        44 002725   000022 732000                    QRS     18
        44 002726   200000 625006                    EAX5    65536,QL
        44 002727   400000 726100                    LXL6    0,,PR4
        44 002730   200000 627016                    EAX7    65536,X6
        44 002731   227474 235115                    LDA     NEXT_CHECK+8487,X5,AUTO
        44 002732   000001 035007                    ADLA    1,DL
PL6.E3A0      #001=TABLES File=LR_TABLE.:Z8A6TSI                                 SAT 08/09/97 09:37 Page:121
        44 002733   227474 755117                    STA     NEXT_CHECK+8487,X7,AUTO

      704     1598    5         IF (STATE_COUNT (NT_SHIFT_LIST.NEW_STATE(I)) > MOST_COMMON_COUNT)

   1598 44 002734   233725 236110                    LDQ     NEXT_CHECK+10688,X0,AUTO
        44 002735   000003 402007                    MPY     3,DL
        44 002736   100000 626006                    EAX6    32768,QL
        44 002737   212206 236116                    LDQ     NEXT_CHECK+1649,X6,AUTO
        44 002740   000022 732000                    QRS     18
        44 002741   100000 227003                    LDX7    32768,DU
        44 002742   200000 620006                    EAX0    65536,QL
        44 002743   227474 236110                    LDQ     NEXT_CHECK+8487,X0,AUTO
        44 002744   207412 116117                    CMPQ    NEXT_CHECK+245,X7,AUTO
        44 002745   002767 605400 44                 TPNZ    s:1602
        44 002746   200000 220003                    LDX0    65536,DU
        44 002747   233725 236110                    LDQ     NEXT_CHECK+10688,X0,AUTO
        44 002750   000003 402007                    MPY     3,DL
        44 002751   100000 621006                    EAX1    32768,QL
        44 002752   212206 236111                    LDQ     NEXT_CHECK+1649,X1,AUTO
        44 002753   000022 732000                    QRS     18
        44 002754   200000 622006                    EAX2    65536,QL
        44 002755   227474 236112                    LDQ     NEXT_CHECK+8487,X2,AUTO
        44 002756   207412 116117                    CMPQ    NEXT_CHECK+245,X7,AUTO
        44 002757   003006 601000 44                 TNZ     s:1606
        44 002760   233725 236110                    LDQ     NEXT_CHECK+10688,X0,AUTO
        44 002761   000003 402007                    MPY     3,DL
        44 002762   100000 623006                    EAX3    32768,QL
        44 002763   212206 236113                    LDQ     NEXT_CHECK+1649,X3,AUTO
        44 002764   000022 732000                    QRS     18
        44 002765   207411 116117                    CMPQ    NEXT_CHECK+244,X7,AUTO
        44 002766   003006 604400 44                 TMOZ    s:1606

      705     1599    5             OR ((STATE_COUNT (NT_SHIFT_LIST.NEW_STATE(I)) = MOST_COMMON_COUNT)
      706     1600    5                    AND  (NT_SHIFT_LIST.NEW_STATE(I) > MOST_COMMON_STATE)) THEN
      707     1601    6          DO;

      708     1602    6             MOST_COMMON_COUNT = STATE_COUNT(NT_SHIFT_LIST.NEW_STATE(I));
PL6.E3A0      #001=TABLES File=LR_TABLE.:Z8A6TSI                                 SAT 08/09/97 09:37 Page:122

   1602 44 002767   200000 220003                    LDX0    65536,DU
        44 002770   233725 236110                    LDQ     NEXT_CHECK+10688,X0,AUTO
        44 002771   000003 402007                    MPY     3,DL
        44 002772   100000 621006                    EAX1    32768,QL
        44 002773   212206 236111                    LDQ     NEXT_CHECK+1649,X1,AUTO
        44 002774   000022 732000                    QRS     18
        44 002775   200000 622006                    EAX2    65536,QL
        44 002776   227474 235112                    LDA     NEXT_CHECK+8487,X2,AUTO
        44 002777   207412 755117                    STA     NEXT_CHECK+245,X7,AUTO

      709     1603    6             MOST_COMMON_STATE = NT_SHIFT_LIST.NEW_STATE(I);

   1603 44 003000   233725 236110                    LDQ     NEXT_CHECK+10688,X0,AUTO
        44 003001   000003 402007                    MPY     3,DL
        44 003002   100000 623006                    EAX3    32768,QL
        44 003003   212206 236113                    LDQ     NEXT_CHECK+1649,X3,AUTO
        44 003004   000022 732000                    QRS     18
        44 003005   207411 756117                    STQ     NEXT_CHECK+244,X7,AUTO

      710     1604    6           END;

      711     1605    5       END;

      712     1606    4     I = NT_SHIFT_LIST.INDX(I);

   1606 44 003006   233725 236110                    LDQ     NEXT_CHECK+10688,X0,AUTO
        44 003007   000003 402007                    MPY     3,DL
        44 003010   100000 622006                    EAX2    32768,QL
        44 003011   212207 235112                    LDA     NEXT_CHECK+1650,X2,AUTO
        44 003012   233725 755110                    STA     NEXT_CHECK+10688,X0,AUTO

      713     1607    4   END;

   1607 44 003013   002707 601000 44                 TNZ     s:1595

      714     1608
PL6.E3A0      #001=TABLES File=LR_TABLE.:Z8A6TSI                                 SAT 08/09/97 09:37 Page:123
      715     1609    3   END CALC_MOST_COMMON_GOTO;

   1609 44 003014   227472 221310                    LDX1  ! NEXT_CHECK+8485,X0,AUTO
        44 003015   000001 702211                    TSX2  ! 1,X1

      716     1610
      717     1611        %EJECT;
PL6.E3A0      #001=TABLES File=LR_TABLE.:Z8A6TSI                                 SAT 08/09/97 09:37 Page:124
      718     1612
      719     1613    2   CREATE_GOTO_SLICE : PROC (NT);  /* OF OUTPUT_GOTO */

   1613 44 003016   200000 220203       CREATE_GOTO* LDX0  ! 65536,DU
        44 003017   227472 741310                    STX1  ! NEXT_CHECK+8485,X0,AUTO

      720     1614
      721     1615    3   DCL NT SBIN WORD;
      722     1616
      723     1617    3   DCL I SBIN WORD;
      724     1618
      725     1619
      726     1620    3   GOTO_SLICE_LEN = 0;

   1620 44 003020   100000 222003                    LDX2    32768,DU
        44 003021   207403 450112                    STZ     NEXT_CHECK+238,X2,AUTO

      727     1621    3   MAX_STATE_INDX = 0;

   1621 44 003022   207413 450112                    STZ     NEXT_CHECK+246,X2,AUTO

      728     1622    3   I = NT_SHIFT(NT);

   1622 44 003023   227473 470510                    LDP0    NEXT_CHECK+8486,X0,AUTO
        44 003024   000000 235100                    LDA     0,,PR0
        44 003025   100000 621005                    EAX1    32768,AL
        44 003026   207414 235111                    LDA     NEXT_CHECK+247,X1,AUTO
        44 003027   227474 755110                    STA     NEXT_CHECK+8487,X0,AUTO

      729     1623
      730     1624    4   DO WHILE I ~= 0;

   1624 44 003030   003101 600000 44                 TZE     s:1637

      731     1625
      732     1626    4     IF NT_SHIFT_LIST.NEW_STATE(I) ~= MOST_COMMON_STATE THEN

PL6.E3A0      #001=TABLES File=LR_TABLE.:Z8A6TSI                                 SAT 08/09/97 09:37 Page:125
   1626 44 003031   200000 220003                    LDX0    65536,DU
        44 003032   227474 236110                    LDQ     NEXT_CHECK+8487,X0,AUTO
        44 003033   000003 402007                    MPY     3,DL
        44 003034   100000 221003                    LDX1    32768,DU
        44 003035   100000 622006                    EAX2    32768,QL
        44 003036   212206 236112                    LDQ     NEXT_CHECK+1649,X2,AUTO
        44 003037   000022 732000                    QRS     18
        44 003040   207411 116111                    CMPQ    NEXT_CHECK+244,X1,AUTO
        44 003041   003062 600000 44                 TZE     s:1632

      733     1627    5       DO;

      734     1628    5         GOTO_SLICE_LEN = GOTO_SLICE_LEN + 1;

   1628 44 003042   207403 054111                    AOS     NEXT_CHECK+238,X1,AUTO

      735     1629    5         GOTO_SLICE.VAL(GOTO_SLICE_LEN) = NT_SHIFT_LIST.NEW_STATE(I);

   1629 44 003043   207403 235111                    LDA     NEXT_CHECK+238,X1,AUTO
        44 003044   000001 735000                    ALS     1
        44 003045   227474 236110                    LDQ     NEXT_CHECK+8487,X0,AUTO
        44 003046   000000 623005                    EAX3    0,AL
        44 003047   000003 402007                    MPY     3,DL
        44 003050   100000 624006                    EAX4    32768,QL
        44 003051   212206 225114                    LDX5    NEXT_CHECK+1649,X4,AUTO
        44 003052   040000 626013                    EAX6    16384,X3
        44 003053   236722 745116                    STX5    NEXT_CHECK+12221,X6,AUTO

      736     1630    5         GOTO_SLICE.INDX(GOTO_SLICE_LEN) = NT_SHIFT_LIST.STATE(I);

   1630 44 003054   207403 235111                    LDA     NEXT_CHECK+238,X1,AUTO
        44 003055   000001 735000                    ALS     1
        44 003056   100000 623006                    EAX3    32768,QL
        44 003057   212205 226113                    LDX6    NEXT_CHECK+1648,X3,AUTO
        44 003060   040000 627005                    EAX7    16384,AL
        44 003061   236721 746117                    STX6    NEXT_CHECK+12220,X7,AUTO

PL6.E3A0      #001=TABLES File=LR_TABLE.:Z8A6TSI                                 SAT 08/09/97 09:37 Page:126
      737     1631    5       END;

      738     1632    4     MAX_STATE_INDX = MAXIMUM(MAX_STATE_INDX, NT_SHIFT_LIST.STATE(I));

   1632 44 003062   227474 236110                    LDQ     NEXT_CHECK+8487,X0,AUTO
        44 003063   000003 402007                    MPY     3,DL
        44 003064   100000 623006                    EAX3    32768,QL
        44 003065   212205 236113                    LDQ     NEXT_CHECK+1648,X3,AUTO
        44 003066   000022 732000                    QRS     18
        44 003067   207413 116111                    CMPQ    NEXT_CHECK+246,X1,AUTO
        44 003070   003072 605000 44                 TPL     s:1632+8
        44 003071   207413 236111                    LDQ     NEXT_CHECK+246,X1,AUTO
        44 003072   207413 756111                    STQ     NEXT_CHECK+246,X1,AUTO

      739     1633    4     I = NT_SHIFT_LIST.INDX(I);

   1633 44 003073   227474 236110                    LDQ     NEXT_CHECK+8487,X0,AUTO
        44 003074   000003 402007                    MPY     3,DL
        44 003075   100000 624006                    EAX4    32768,QL
        44 003076   212207 235114                    LDA     NEXT_CHECK+1650,X4,AUTO
        44 003077   227474 755110                    STA     NEXT_CHECK+8487,X0,AUTO

      740     1634
      741     1635    4   END;

   1635 44 003100   003031 601000 44                 TNZ     s:1626

      742     1636
      743     1637    3   END CREATE_GOTO_SLICE;

   1637 44 003101   227472 221310                    LDX1  ! NEXT_CHECK+8485,X0,AUTO
        44 003102   000001 702211                    TSX2  ! 1,X1

      744     1638
      745     1639
      746     1640        %EJECT;
PL6.E3A0      #001=TABLES File=LR_TABLE.:Z8A6TSI                                 SAT 08/09/97 09:37 Page:127
      747     1641
      748     1642    2   WRITE_OUTPUT_GOTO : PROC;   /* OF OUTPUT_GOTO */

   1642 44 003103   200000 220203       WRITE_OUTPU* LDX0  ! 65536,DU
        44 003104   227472 741310                    STX1  ! NEXT_CHECK+8485,X0,AUTO

      749     1643
      750     1644        /* WRITE THE OUTPUT GOTO TABLES */
      751     1645
      752     1646    3   DCL I SBIN WORD;
      753     1647    3   DCL J SBIN WORD;
      754     1648
      755     1649
      756     1650
      757     1651        %SELECT_OU;

   1652 44 003105   000000 236007 xsym               LDQ     M$OU,DL
        44 003106   000000 756000 0                  STQ     OUT_DCBN

      758     1654
      759     1655        /* OUTPUT COLUMN (NON_TERMINAL) INFO */
      760     1656
      761     1657        %OUTLINE(S="'%START_TABLE_GOTO_COL;'");

   1659 44 003107   000136 630400 45                 EPPR0   94
        44 003110   000001 631400 45                 EPPR1   1
        44 003111   000000 701000 xent               TSX1    OUT_STR
        44 003112   000000 011000                    NOP     0
        44 003113   200000 221003                    LDX1    65536,DU
        44 003114   233726 634511                    EPPR4   NEXT_CHECK+10689,X1,AUTO

   1660 44 003115   000000 631400 45                 EPPR1   0
        44 003116   000000 701000 xent               TSX1    FLUSH
        44 003117   000000 011000                    NOP     0
        44 003120   200000 221003                    LDX1    65536,DU
        44 003121   233726 634511                    EPPR4   NEXT_CHECK+10689,X1,AUTO

PL6.E3A0      #001=TABLES File=LR_TABLE.:Z8A6TSI                                 SAT 08/09/97 09:37 Page:128
      762     1663
      763     1664    4   DO I = NR_TERM + 1 TO LAST_NULL;

   1664 44 003122   200000 220003                    LDX0    65536,DU
        44 003123   000000 235000 11                 LDA     NR_TERM
        44 003124   000001 035007                    ADLA    1,DL
        44 003125   227473 755110                    STA     NEXT_CHECK+8486,X0,AUTO
        44 003126   003323 710000 44                 TRA     s:1709+2

      764     1665
      765     1666    4     J = I - NR_TERM;

   1666 44 003127   200000 220003                    LDX0    65536,DU
        44 003130   227473 236110                    LDQ     NEXT_CHECK+8486,X0,AUTO
        44 003131   000000 136000 11                 SBLQ    NR_TERM
        44 003132   227474 756110                    STQ     NEXT_CHECK+8487,X0,AUTO

      766     1667
      767     1668
      768     1669          %OUT_STR(S="'  %GTDEFBASM(DFL='");

   1670 44 003133   000140 630400 45                 EPPR0   96
        44 003134   000001 631400 45                 EPPR1   1
        44 003135   000000 701000 xent               TSX1    OUT_STR
        44 003136   000000 011000                    NOP     0
        44 003137   200000 221003                    LDX1    65536,DU
        44 003140   233726 634511                    EPPR4   NEXT_CHECK+10689,X1,AUTO

      769     1672    4     CALL OUT_DEC (BINBIT(GOTO_.DEFAULT_ACTION(J),36));

   1672 44 003141   200000 220003                    LDX0    65536,DU
        44 003142   227474 235110                    LDA     NEXT_CHECK+8487,X0,AUTO
        44 003143   204234 236105                    LDQ     GOTO_,AL,AUTO
        44 003144   000022 732000                    QRS     18
        44 003145   400000 756100                    STQ     0,,PR4
        44 003146   400002 454500                    STP4    2,,PR4
        44 003147   400002 630500                    EPPR0   2,,PR4
PL6.E3A0      #001=TABLES File=LR_TABLE.:Z8A6TSI                                 SAT 08/09/97 09:37 Page:129
        44 003150   000011 631400 45                 EPPR1   9
        44 003151   000000 701000 xent               TSX1    OUT_DEC
        44 003152   000000 011000                    NOP     0
        44 003153   200000 221003                    LDX1    65536,DU
        44 003154   233726 634511                    EPPR4   NEXT_CHECK+10689,X1,AUTO

      770     1673
      771     1674          %BOUNDS(T=GTDEF, V="GOTO_.DEFAULT_ACTION(J)");

   1676 44 003155   200000 220003                    LDX0    65536,DU
        44 003156   227474 235110                    LDA     NEXT_CHECK+8487,X0,AUTO
        44 003157   204234 236105                    LDQ     GOTO_,AL,AUTO
        44 003160   000022 732000                    QRS     18
        44 003161   000054 116000 35                 CMPQ    TSTATS+44
        44 003162   003164 604400 44                 TMOZ    s:1676+7
        44 003163   000054 236000 35                 LDQ     TSTATS+44
        44 003164   000054 756000 35                 STQ     TSTATS+44

   1677 44 003165   227474 235110                    LDA     NEXT_CHECK+8487,X0,AUTO
        44 003166   204234 236105                    LDQ     GOTO_,AL,AUTO
        44 003167   000022 732000                    QRS     18
        44 003170   000053 116000 35                 CMPQ    TSTATS+43
        44 003171   003173 605000 44                 TPL     s:1677+6
        44 003172   000053 236000 35                 LDQ     TSTATS+43
        44 003173   000053 756000 35                 STQ     TSTATS+43

      772     1680
      773     1681          %OUT_STR(S="',BAS='");

   1682 44 003174   000113 630400 45                 EPPR0   75
        44 003175   000001 631400 45                 EPPR1   1
        44 003176   000000 701000 xent               TSX1    OUT_STR
        44 003177   000000 011000                    NOP     0
        44 003200   200000 221003                    LDX1    65536,DU
        44 003201   233726 634511                    EPPR4   NEXT_CHECK+10689,X1,AUTO

      774     1684    4     CALL  OUT_DEC(BINBIT(GOTO_.BASE(J),36));
PL6.E3A0      #001=TABLES File=LR_TABLE.:Z8A6TSI                                 SAT 08/09/97 09:37 Page:130

   1684 44 003202   200000 220003                    LDX0    65536,DU
        44 003203   227474 235110                    LDA     NEXT_CHECK+8487,X0,AUTO
        44 003204   204234 236105                    LDQ     GOTO_,AL,AUTO
        44 003205   000022 736000                    QLS     18
        44 003206   000022 732000                    QRS     18
        44 003207   400000 756100                    STQ     0,,PR4
        44 003210   400002 454500                    STP4    2,,PR4
        44 003211   400002 630500                    EPPR0   2,,PR4
        44 003212   000011 631400 45                 EPPR1   9
        44 003213   000000 701000 xent               TSX1    OUT_DEC
        44 003214   000000 011000                    NOP     0
        44 003215   200000 221003                    LDX1    65536,DU
        44 003216   233726 634511                    EPPR4   NEXT_CHECK+10689,X1,AUTO

      775     1685          %OUT_STR(S="');'");

   1686 44 003217   000067 630400 45                 EPPR0   55
        44 003220   000001 631400 45                 EPPR1   1
        44 003221   000000 701000 xent               TSX1    OUT_STR
        44 003222   000000 011000                    NOP     0
        44 003223   200000 221003                    LDX1    65536,DU
        44 003224   233726 634511                    EPPR4   NEXT_CHECK+10689,X1,AUTO

      776     1688
      777     1689          %BOUNDS(T=GTBAS, V="GOTO_.BASE(J)");

   1691 44 003225   200000 220003                    LDX0    65536,DU
        44 003226   227474 235110                    LDA     NEXT_CHECK+8487,X0,AUTO
        44 003227   204234 236105                    LDQ     GOTO_,AL,AUTO
        44 003230   000022 736000                    QLS     18
        44 003231   000022 732000                    QRS     18
        44 003232   000062 116000 35                 CMPQ    TSTATS+50
        44 003233   003235 604400 44                 TMOZ    s:1691+8
        44 003234   000062 236000 35                 LDQ     TSTATS+50
        44 003235   000062 756000 35                 STQ     TSTATS+50

PL6.E3A0      #001=TABLES File=LR_TABLE.:Z8A6TSI                                 SAT 08/09/97 09:37 Page:131
   1692 44 003236   227474 235110                    LDA     NEXT_CHECK+8487,X0,AUTO
        44 003237   204234 236105                    LDQ     GOTO_,AL,AUTO
        44 003240   000022 736000                    QLS     18
        44 003241   000022 732000                    QRS     18
        44 003242   000061 116000 35                 CMPQ    TSTATS+49
        44 003243   003245 605000 44                 TPL     s:1692+7
        44 003244   000061 236000 35                 LDQ     TSTATS+49
        44 003245   000061 756000 35                 STQ     TSTATS+49

      778     1695
      779     1696          %OUT_STR(S="'  /* '");

   1697 44 003246   000044 630400 45                 EPPR0   36
        44 003247   000001 631400 45                 EPPR1   1
        44 003250   000000 701000 xent               TSX1    OUT_STR
        44 003251   000000 011000                    NOP     0
        44 003252   200000 221003                    LDX1    65536,DU
        44 003253   233726 634511                    EPPR4   NEXT_CHECK+10689,X1,AUTO

      780     1699    4     CALL OUT_DEC(J);

   1699 44 003254   400001 452500                    STP2    1,,PR4
        44 003255   400001 236100                    LDQ     1,,PR4
        44 003256   227474 036003                    ADLQ    77628,DU
        44 003257   400000 756100                    STQ     0,,PR4
        44 003260   400000 630500                    EPPR0   0,,PR4
        44 003261   000011 631400 45                 EPPR1   9
        44 003262   000000 701000 xent               TSX1    OUT_DEC
        44 003263   000000 011000                    NOP     0
        44 003264   200000 221003                    LDX1    65536,DU
        44 003265   233726 634511                    EPPR4   NEXT_CHECK+10689,X1,AUTO

      781     1700          %OUT_STR(S="' '" );

   1701 44 003266   000021 630400 45                 EPPR0   17
        44 003267   000001 631400 45                 EPPR1   1
        44 003270   000000 701000 xent               TSX1    OUT_STR
PL6.E3A0      #001=TABLES File=LR_TABLE.:Z8A6TSI                                 SAT 08/09/97 09:37 Page:132
        44 003271   000000 011000                    NOP     0
        44 003272   200000 221003                    LDX1    65536,DU
        44 003273   233726 634511                    EPPR4   NEXT_CHECK+10689,X1,AUTO

      782     1703    4     CALL OUT_SYMBOL(SYM_PTRS(I));

   1703 44 003274   200000 220003                    LDX0    65536,DU
        44 003275   227473 721110                    LXL1    NEXT_CHECK+8486,X0,AUTO
        44 003276   000000 630411 6                  EPPR0   SYM_PTRS,X1
        44 003277   400000 450500                    STP0    0,,PR4
        44 003300   400000 630500                    EPPR0   0,,PR4
        44 003301   000011 631400 45                 EPPR1   9
        44 003302   000000 701000 xent               TSX1    OUT_SYMBOL
        44 003303   000000 011000                    NOP     0
        44 003304   200000 221003                    LDX1    65536,DU
        44 003305   233726 634511                    EPPR4   NEXT_CHECK+10689,X1,AUTO

      783     1704          %OUT_STR(S="' */'");

   1705 44 003306   000052 630400 45                 EPPR0   42
        44 003307   000001 631400 45                 EPPR1   1
        44 003310   000000 701000 xent               TSX1    OUT_STR
        44 003311   000000 011000                    NOP     0
        44 003312   200000 221003                    LDX1    65536,DU
        44 003313   233726 634511                    EPPR4   NEXT_CHECK+10689,X1,AUTO

      784     1707    4     CALL FLUSH;

   1707 44 003314   000000 631400 45                 EPPR1   0
        44 003315   000000 701000 xent               TSX1    FLUSH
        44 003316   000000 011000                    NOP     0
        44 003317   200000 221003                    LDX1    65536,DU
        44 003320   233726 634511                    EPPR4   NEXT_CHECK+10689,X1,AUTO

      785     1708
      786     1709    4   END;

PL6.E3A0      #001=TABLES File=LR_TABLE.:Z8A6TSI                                 SAT 08/09/97 09:37 Page:133
   1709 44 003321   200000 220003                    LDX0    65536,DU
        44 003322   227473 054110                    AOS     NEXT_CHECK+8486,X0,AUTO
        44 003323   227473 236110                    LDQ     NEXT_CHECK+8486,X0,AUTO
        44 003324   000000 116000 13                 CMPQ    LAST_NULL
        44 003325   003127 604400 44                 TMOZ    s:1666

      787     1710
      788     1711        %OUTLINE(S="'%END_TABLE_GOTO_COL;'");

   1713 44 003326   000142 630400 45                 EPPR0   98
        44 003327   000001 631400 45                 EPPR1   1
        44 003330   000000 701000 xent               TSX1    OUT_STR
        44 003331   000000 011000                    NOP     0
        44 003332   200000 221003                    LDX1    65536,DU
        44 003333   233726 634511                    EPPR4   NEXT_CHECK+10689,X1,AUTO

   1714 44 003334   000000 631400 45                 EPPR1   0
        44 003335   000000 701000 xent               TSX1    FLUSH
        44 003336   000000 011000                    NOP     0
        44 003337   200000 221003                    LDX1    65536,DU
        44 003340   233726 634511                    EPPR4   NEXT_CHECK+10689,X1,AUTO

      789     1717
      790     1718        /* OUTPUT ROW INFO (STATES) */
      791     1719
      792     1720        %SELECT_SUBS;

   1721 44 003341   000000 236007 xsym               LDQ     M$SO,DL
        44 003342   000000 756000 0                  STQ     OUT_DCBN

      793     1723
      794     1724        %OUT_STR(S="'%EQU GOTO_COL_LEN = '");

   1725 44 003343   000144 630400 45                 EPPR0   100
        44 003344   000001 631400 45                 EPPR1   1
        44 003345   000000 701000 xent               TSX1    OUT_STR
        44 003346   000000 011000                    NOP     0
PL6.E3A0      #001=TABLES File=LR_TABLE.:Z8A6TSI                                 SAT 08/09/97 09:37 Page:134
        44 003347   200000 221003                    LDX1    65536,DU
        44 003350   233726 634511                    EPPR4   NEXT_CHECK+10689,X1,AUTO

      795     1727    3   CALL OUT_DEC(LAST_NULL - NR_TERM);

   1727 44 003351   000000 236000 13                 LDQ     LAST_NULL
        44 003352   000000 136000 11                 SBLQ    NR_TERM
        44 003353   400000 756100                    STQ     0,,PR4
        44 003354   400001 454500                    STP4    1,,PR4
        44 003355   400001 630500                    EPPR0   1,,PR4
        44 003356   000011 631400 45                 EPPR1   9
        44 003357   000000 701000 xent               TSX1    OUT_DEC
        44 003360   000000 011000                    NOP     0
        44 003361   200000 221003                    LDX1    65536,DU
        44 003362   233726 634511                    EPPR4   NEXT_CHECK+10689,X1,AUTO

      796     1728        %OUT_STR(S="';'");

   1729 44 003363   000013 630400 45                 EPPR0   11
        44 003364   000001 631400 45                 EPPR1   1
        44 003365   000000 701000 xent               TSX1    OUT_STR
        44 003366   000000 011000                    NOP     0
        44 003367   200000 221003                    LDX1    65536,DU
        44 003370   233726 634511                    EPPR4   NEXT_CHECK+10689,X1,AUTO

      797     1731    3   CALL FLUSH;

   1731 44 003371   000000 631400 45                 EPPR1   0
        44 003372   000000 701000 xent               TSX1    FLUSH
        44 003373   000000 011000                    NOP     0
        44 003374   200000 221003                    LDX1    65536,DU
        44 003375   233726 634511                    EPPR4   NEXT_CHECK+10689,X1,AUTO

      798     1732
      799     1733        %STAT_LENGTH(T=GTDEF,V="LAST_NULL - NR_TERM + 1");

   1734 44 003376   000000 236000 13                 LDQ     LAST_NULL
PL6.E3A0      #001=TABLES File=LR_TABLE.:Z8A6TSI                                 SAT 08/09/97 09:37 Page:135
        44 003377   000000 136000 11                 SBLQ    NR_TERM
        44 003400   000001 036007                    ADLQ    1,DL
        44 003401   000055 756000 35                 STQ     TSTATS+45

      800     1736        %STAT_LENGTH(T=GTBAS,V="LAST_NULL - NR_TERM + 1");

   1737 44 003402   000000 236000 13                 LDQ     LAST_NULL
        44 003403   000000 136000 11                 SBLQ    NR_TERM
        44 003404   000001 036007                    ADLQ    1,DL
        44 003405   000063 756000 35                 STQ     TSTATS+51

      801     1739
      802     1740        %SELECT_OU;

   1741 44 003406   000000 236007 xsym               LDQ     M$OU,DL
        44 003407   000000 756000 0                  STQ     OUT_DCBN

      803     1743
      804     1744
      805     1745        %OUTLINE(S="'%START_TABLE_GOTO_ROW;'");

   1747 44 003410   000146 630400 45                 EPPR0   102
        44 003411   000001 631400 45                 EPPR1   1
        44 003412   000000 701000 xent               TSX1    OUT_STR
        44 003413   000000 011000                    NOP     0
        44 003414   200000 221003                    LDX1    65536,DU
        44 003415   233726 634511                    EPPR4   NEXT_CHECK+10689,X1,AUTO

   1748 44 003416   000000 631400 45                 EPPR1   0
        44 003417   000000 701000 xent               TSX1    FLUSH
        44 003420   000000 011000                    NOP     0
        44 003421   200000 221003                    LDX1    65536,DU
        44 003422   233726 634511                    EPPR4   NEXT_CHECK+10689,X1,AUTO

      806     1751
      807     1752    4   DO I = 2 TO NEXT_CHECK_LEN;

PL6.E3A0      #001=TABLES File=LR_TABLE.:Z8A6TSI                                 SAT 08/09/97 09:37 Page:136
   1752 44 003423   000002 235007                    LDA     2,DL
        44 003424   200000 220003                    LDX0    65536,DU
        44 003425   227473 755110                    STA     NEXT_CHECK+8486,X0,AUTO
        44 003426   003577 710000 44                 TRA     s:1791+2

      808     1753
      809     1754          %OUT_STR(S="'  %GNCM(NXT='");

   1755 44 003427   000150 630400 45                 EPPR0   104
        44 003430   000001 631400 45                 EPPR1   1
        44 003431   000000 701000 xent               TSX1    OUT_STR
        44 003432   000000 011000                    NOP     0
        44 003433   200000 221003                    LDX1    65536,DU
        44 003434   233726 634511                    EPPR4   NEXT_CHECK+10689,X1,AUTO

      810     1757    4     CALL OUT_DEC(BINBIT(NEXT_CHECK.NEXT(I),36));

   1757 44 003435   200000 220003                    LDX0    65536,DU
        44 003436   227473 235110                    LDA     NEXT_CHECK+8486,X0,AUTO
        44 003437   207025 236105                    LDQ     NEXT_CHECK,AL,AUTO
        44 003440   000022 732000                    QRS     18
        44 003441   400000 756100                    STQ     0,,PR4
        44 003442   400002 454500                    STP4    2,,PR4
        44 003443   400002 630500                    EPPR0   2,,PR4
        44 003444   000011 631400 45                 EPPR1   9
        44 003445   000000 701000 xent               TSX1    OUT_DEC
        44 003446   000000 011000                    NOP     0
        44 003447   200000 221003                    LDX1    65536,DU
        44 003450   233726 634511                    EPPR4   NEXT_CHECK+10689,X1,AUTO

      811     1758
      812     1759          %BOUNDS(T=GNCNXT, V="NEXT_CHECK.NEXT(I)");

   1761 44 003451   200000 220003                    LDX0    65536,DU
        44 003452   227473 235110                    LDA     NEXT_CHECK+8486,X0,AUTO
        44 003453   207025 236105                    LDQ     NEXT_CHECK,AL,AUTO
        44 003454   000022 732000                    QRS     18
PL6.E3A0      #001=TABLES File=LR_TABLE.:Z8A6TSI                                 SAT 08/09/97 09:37 Page:137
        44 003455   000070 116000 35                 CMPQ    TSTATS+56
        44 003456   003460 604400 44                 TMOZ    s:1761+7
        44 003457   000070 236000 35                 LDQ     TSTATS+56
        44 003460   000070 756000 35                 STQ     TSTATS+56

   1762 44 003461   227473 235110                    LDA     NEXT_CHECK+8486,X0,AUTO
        44 003462   207025 236105                    LDQ     NEXT_CHECK,AL,AUTO
        44 003463   000022 732000                    QRS     18
        44 003464   000067 116000 35                 CMPQ    TSTATS+55
        44 003465   003467 605000 44                 TPL     s:1762+6
        44 003466   000067 236000 35                 LDQ     TSTATS+55
        44 003467   000067 756000 35                 STQ     TSTATS+55

      813     1765
      814     1766          %OUT_STR(S="',CHK='");

   1767 44 003470   000126 630400 45                 EPPR0   86
        44 003471   000001 631400 45                 EPPR1   1
        44 003472   000000 701000 xent               TSX1    OUT_STR
        44 003473   000000 011000                    NOP     0
        44 003474   200000 221003                    LDX1    65536,DU
        44 003475   233726 634511                    EPPR4   NEXT_CHECK+10689,X1,AUTO

      815     1769    4     CALL OUT_DEC(BINBIT(NEXT_CHECK.CHECK(I),36));

   1769 44 003476   200000 220003                    LDX0    65536,DU
        44 003477   227473 235110                    LDA     NEXT_CHECK+8486,X0,AUTO
        44 003500   207025 236105                    LDQ     NEXT_CHECK,AL,AUTO
        44 003501   000022 736000                    QLS     18
        44 003502   000022 732000                    QRS     18
        44 003503   400000 756100                    STQ     0,,PR4
        44 003504   400002 454500                    STP4    2,,PR4
        44 003505   400002 630500                    EPPR0   2,,PR4
        44 003506   000011 631400 45                 EPPR1   9
        44 003507   000000 701000 xent               TSX1    OUT_DEC
        44 003510   000000 011000                    NOP     0
        44 003511   200000 221003                    LDX1    65536,DU
PL6.E3A0      #001=TABLES File=LR_TABLE.:Z8A6TSI                                 SAT 08/09/97 09:37 Page:138
        44 003512   233726 634511                    EPPR4   NEXT_CHECK+10689,X1,AUTO

      816     1770          %OUT_STR(S="');'");

   1771 44 003513   000067 630400 45                 EPPR0   55
        44 003514   000001 631400 45                 EPPR1   1
        44 003515   000000 701000 xent               TSX1    OUT_STR
        44 003516   000000 011000                    NOP     0
        44 003517   200000 221003                    LDX1    65536,DU
        44 003520   233726 634511                    EPPR4   NEXT_CHECK+10689,X1,AUTO

      817     1773
      818     1774          %BOUNDS(T=GNCCHK, V="NEXT_CHECK.CHECK(I)");

   1776 44 003521   200000 220003                    LDX0    65536,DU
        44 003522   227473 235110                    LDA     NEXT_CHECK+8486,X0,AUTO
        44 003523   207025 236105                    LDQ     NEXT_CHECK,AL,AUTO
        44 003524   000022 736000                    QLS     18
        44 003525   000022 732000                    QRS     18
        44 003526   000076 116000 35                 CMPQ    TSTATS+62
        44 003527   003531 604400 44                 TMOZ    s:1776+8
        44 003530   000076 236000 35                 LDQ     TSTATS+62
        44 003531   000076 756000 35                 STQ     TSTATS+62

   1777 44 003532   227473 235110                    LDA     NEXT_CHECK+8486,X0,AUTO
        44 003533   207025 236105                    LDQ     NEXT_CHECK,AL,AUTO
        44 003534   000022 736000                    QLS     18
        44 003535   000022 732000                    QRS     18
        44 003536   000075 116000 35                 CMPQ    TSTATS+61
        44 003537   003541 605000 44                 TPL     s:1777+7
        44 003540   000075 236000 35                 LDQ     TSTATS+61
        44 003541   000075 756000 35                 STQ     TSTATS+61

      819     1780
      820     1781          %OUT_STR(S="'  /* '");

   1782 44 003542   000044 630400 45                 EPPR0   36
PL6.E3A0      #001=TABLES File=LR_TABLE.:Z8A6TSI                                 SAT 08/09/97 09:37 Page:139
        44 003543   000001 631400 45                 EPPR1   1
        44 003544   000000 701000 xent               TSX1    OUT_STR
        44 003545   000000 011000                    NOP     0
        44 003546   200000 221003                    LDX1    65536,DU
        44 003547   233726 634511                    EPPR4   NEXT_CHECK+10689,X1,AUTO

      821     1784    4     CALL OUT_DEC(I);

   1784 44 003550   400001 452500                    STP2    1,,PR4
        44 003551   400001 236100                    LDQ     1,,PR4
        44 003552   227473 036003                    ADLQ    77627,DU
        44 003553   400000 756100                    STQ     0,,PR4
        44 003554   400000 630500                    EPPR0   0,,PR4
        44 003555   000011 631400 45                 EPPR1   9
        44 003556   000000 701000 xent               TSX1    OUT_DEC
        44 003557   000000 011000                    NOP     0
        44 003560   200000 221003                    LDX1    65536,DU
        44 003561   233726 634511                    EPPR4   NEXT_CHECK+10689,X1,AUTO

      822     1785          %OUT_STR(S="' */'");

   1786 44 003562   000052 630400 45                 EPPR0   42
        44 003563   000001 631400 45                 EPPR1   1
        44 003564   000000 701000 xent               TSX1    OUT_STR
        44 003565   000000 011000                    NOP     0
        44 003566   200000 221003                    LDX1    65536,DU
        44 003567   233726 634511                    EPPR4   NEXT_CHECK+10689,X1,AUTO

      823     1788    4     CALL FLUSH;

   1788 44 003570   000000 631400 45                 EPPR1   0
        44 003571   000000 701000 xent               TSX1    FLUSH
        44 003572   000000 011000                    NOP     0
        44 003573   200000 221003                    LDX1    65536,DU
        44 003574   233726 634511                    EPPR4   NEXT_CHECK+10689,X1,AUTO

      824     1789
PL6.E3A0      #001=TABLES File=LR_TABLE.:Z8A6TSI                                 SAT 08/09/97 09:37 Page:140
      825     1790
      826     1791    4   END;

   1791 44 003575   200000 220003                    LDX0    65536,DU
        44 003576   227473 054110                    AOS     NEXT_CHECK+8486,X0,AUTO
        44 003577   040000 221003                    LDX1    16384,DU
        44 003600   227473 236110                    LDQ     NEXT_CHECK+8486,X0,AUTO
        44 003601   236716 116111                    CMPQ    NEXT_CHECK+12217,X1,AUTO
        44 003602   003427 604400 44                 TMOZ    s:1755

      827     1792
      828     1793        %OUTLINE(S="'%END_TABLE_GOTO_ROW;'");

   1795 44 003603   000152 630400 45                 EPPR0   106
        44 003604   000001 631400 45                 EPPR1   1
        44 003605   000000 701000 xent               TSX1    OUT_STR
        44 003606   000000 011000                    NOP     0
        44 003607   200000 221003                    LDX1    65536,DU
        44 003610   233726 634511                    EPPR4   NEXT_CHECK+10689,X1,AUTO

   1796 44 003611   000000 631400 45                 EPPR1   0
        44 003612   000000 701000 xent               TSX1    FLUSH
        44 003613   000000 011000                    NOP     0
        44 003614   200000 221003                    LDX1    65536,DU
        44 003615   233726 634511                    EPPR4   NEXT_CHECK+10689,X1,AUTO

      829     1799
      830     1800        %SELECT_SUBS;

   1801 44 003616   000000 236007 xsym               LDQ     M$SO,DL
        44 003617   000000 756000 0                  STQ     OUT_DCBN

      831     1803
      832     1804        %OUT_STR(S="'%EQU GOTO_ROW_LEN = '");

   1805 44 003620   000154 630400 45                 EPPR0   108
        44 003621   000001 631400 45                 EPPR1   1
PL6.E3A0      #001=TABLES File=LR_TABLE.:Z8A6TSI                                 SAT 08/09/97 09:37 Page:141
        44 003622   000000 701000 xent               TSX1    OUT_STR
        44 003623   000000 011000                    NOP     0
        44 003624   200000 221003                    LDX1    65536,DU
        44 003625   233726 634511                    EPPR4   NEXT_CHECK+10689,X1,AUTO

      833     1807    3   CALL OUT_DEC(MAXIMUM(NEXT_CHECK_LEN,1));

   1807 44 003626   000001 236007                    LDQ     1,DL
        44 003627   040000 220003                    LDX0    16384,DU
        44 003630   000000 116003                    CMPQ    0,DU
        44 003631   003635 604000 44                 TMI     s:1807+7
        44 003632   236716 116110                    CMPQ    NEXT_CHECK+12217,X0,AUTO
        44 003633   003635 605000 44                 TPL     s:1807+7
        44 003634   236716 236110                    LDQ     NEXT_CHECK+12217,X0,AUTO
        44 003635   400000 756100                    STQ     0,,PR4
        44 003636   400001 454500                    STP4    1,,PR4
        44 003637   400001 630500                    EPPR0   1,,PR4
        44 003640   000011 631400 45                 EPPR1   9
        44 003641   000000 701000 xent               TSX1    OUT_DEC
        44 003642   000000 011000                    NOP     0
        44 003643   200000 221003                    LDX1    65536,DU
        44 003644   233726 634511                    EPPR4   NEXT_CHECK+10689,X1,AUTO

      834     1808        %OUT_STR(S="';'");

   1809 44 003645   000013 630400 45                 EPPR0   11
        44 003646   000001 631400 45                 EPPR1   1
        44 003647   000000 701000 xent               TSX1    OUT_STR
        44 003650   000000 011000                    NOP     0
        44 003651   200000 221003                    LDX1    65536,DU
        44 003652   233726 634511                    EPPR4   NEXT_CHECK+10689,X1,AUTO

      835     1811    3   CALL FLUSH;

   1811 44 003653   000000 631400 45                 EPPR1   0
        44 003654   000000 701000 xent               TSX1    FLUSH
        44 003655   000000 011000                    NOP     0
PL6.E3A0      #001=TABLES File=LR_TABLE.:Z8A6TSI                                 SAT 08/09/97 09:37 Page:142
        44 003656   200000 221003                    LDX1    65536,DU
        44 003657   233726 634511                    EPPR4   NEXT_CHECK+10689,X1,AUTO

      836     1812
      837     1813        %STAT_LENGTH(T=GNCNXT,V="MAXIMUM(NEXT_CHECK_LEN,1) + 1");

   1814 44 003660   000001 236007                    LDQ     1,DL
        44 003661   040000 220003                    LDX0    16384,DU
        44 003662   000000 116003                    CMPQ    0,DU
        44 003663   003667 604000 44                 TMI     s:1814+7
        44 003664   236716 116110                    CMPQ    NEXT_CHECK+12217,X0,AUTO
        44 003665   003667 605000 44                 TPL     s:1814+7
        44 003666   236716 236110                    LDQ     NEXT_CHECK+12217,X0,AUTO
        44 003667   000001 036007                    ADLQ    1,DL
        44 003670   000071 756000 35                 STQ     TSTATS+57

      838     1816        %STAT_LENGTH(T=GNCCHK,V="MAXIMUM(NEXT_CHECK_LEN,1) + 1");

   1817 44 003671   000001 236007                    LDQ     1,DL
        44 003672   003676 604000 44                 TMI     s:1817+5
        44 003673   236716 116110                    CMPQ    NEXT_CHECK+12217,X0,AUTO
        44 003674   003676 605000 44                 TPL     s:1817+5
        44 003675   236716 236110                    LDQ     NEXT_CHECK+12217,X0,AUTO
        44 003676   000001 036007                    ADLQ    1,DL
        44 003677   000077 756000 35                 STQ     TSTATS+63

      839     1819
      840     1820    3   CALL FLUSH;

   1820 44 003700   000000 631400 45                 EPPR1   0
        44 003701   000000 701000 xent               TSX1    FLUSH
        44 003702   000000 011000                    NOP     0
        44 003703   200000 221003                    LDX1    65536,DU
        44 003704   233726 634511                    EPPR4   NEXT_CHECK+10689,X1,AUTO

      841     1821
      842     1822    3   END WRITE_OUTPUT_GOTO;
PL6.E3A0      #001=TABLES File=LR_TABLE.:Z8A6TSI                                 SAT 08/09/97 09:37 Page:143

   1822 44 003705   200000 220203                    LDX0  ! 65536,DU
        44 003706   227472 221310                    LDX1  ! NEXT_CHECK+8485,X0,AUTO
        44 003707   000001 702211                    TSX2  ! 1,X1

      843     1823
      844     1824
      845     1825        %EJECT;
PL6.E3A0      #001=TABLES File=LR_TABLE.:Z8A6TSI                                 SAT 08/09/97 09:37 Page:144
      846     1826
      847     1827        /* MAIN BODY OF OUTPUT_GOTO */
      848     1828
      849     1829    2   NEXT_CHECK_LEN     = 0;

   1829 44 003710   236716 450110                    STZ     NEXT_CHECK+12217,X0,AUTO

      850     1830    2   NEXT_CHECK_CLEAR.B = '0'B;

   1830 44 003711   337344 221003                    LDX1    114404,DU
        44 003712   000140 100400                    MLR     fill='000'O
        44 003713   000000 000001 45                 ADSC9   0                        cn=0,n=1
        44 003714   207025 000011                    ADSC9   NEXT_CHECK,,AUTO         cn=0,n=*X1

      851     1831
      852     1832    2   NT_SHIFT_CLEAR.B   = '0'B;

   1832 44 003715   012744 222003                    LDX2    5604,DU
        44 003716   400000 223003                    LDX3    -131072,DU
        44 003717   000153 100400                    MLR     fill='000'O
        44 003720   000000 000001 45                 ADSC9   0                        cn=0,n=1
        44 003721   207414 000012                    ADSC9   NEXT_CHECK+247,X3,AUTO   cn=0,n=*X2

      853     1833    2   NT_SHIFT_LIST_LEN  = 0;

   1833 44 003722   200000 224003                    LDX4    65536,DU
        44 003723   227470 450114                    STZ     NEXT_CHECK+8483,X4,AUTO

      854     1834
      855     1835    3   DO I = 1 TO NR_CONFIG - 1;

   1835 44 003724   000001 235007                    LDA     1,DL
        44 003725   100000 225003                    LDX5    32768,DU
        44 003726   207405 755115                    STA     NEXT_CHECK+240,X5,AUTO
        44 003727   004022 710000 44                 TRA     s:1857+1

      856     1836
PL6.E3A0      #001=TABLES File=LR_TABLE.:Z8A6TSI                                 SAT 08/09/97 09:37 Page:145
      857     1837    3     C$ = C#_TO_$(I);

   1837 44 003730   100000 220003                    LDX0    32768,DU
        44 003731   207405 721110                    LXL1    NEXT_CHECK+240,X0,AUTO
        44 003732   000000 236011 36                 LDQ     C#_TO_$,X1
        44 003733   207410 756110                    STQ     NEXT_CHECK+243,X0,AUTO

      858     1838
      859     1839    4     DO J = 0 TO C$ -> C_SET_B.NR_ELEM - 1;

   1839 44 003734   207406 450110                    STZ     NEXT_CHECK+241,X0,AUTO
        44 003735   004014 710000 44                 TRA     s:1856+2

      860     1840
      861     1841    4       KEYN$ = C$ -> C_SET_B.ELEM.KEY$(J);

   1841 44 003736   100000 220003                    LDX0    32768,DU
        44 003737   207410 470510                    LDP0    NEXT_CHECK+243,X0,AUTO
        44 003740   207406 235110                    LDA     NEXT_CHECK+241,X0,AUTO
        44 003741   000002 735000                    ALS     2
        44 003742   000004 236105                    LDQ     4,AL,PR0
        44 003743   207404 756110                    STQ     NEXT_CHECK+239,X0,AUTO

      862     1842
      863     1843    4       IF (KEYN$ -> KEY_B.W.SYM_AFTER > NR_TERM)

   1843 44 003744   207404 470510                    LDP0    NEXT_CHECK+239,X0,AUTO
        44 003745   000004 236100                    LDQ     4,,PR0
        44 003746   000000 116000 11                 CMPQ    NR_TERM
        44 003747   004012 604400 44                 TMOZ    s:1856
        44 003750   000000 116000 13                 CMPQ    LAST_NULL
        44 003751   004012 605400 44                 TPNZ    s:1856

      864     1844    4            AND (KEYN$ -> KEY_B.W.SYM_AFTER <= LAST_NULL) THEN
      865     1845    5         DO;

      866     1846    5           NT_SHIFT_LIST_LEN = NT_SHIFT_LIST_LEN + 1;
PL6.E3A0      #001=TABLES File=LR_TABLE.:Z8A6TSI                                 SAT 08/09/97 09:37 Page:146

   1846 44 003752   200000 221003                    LDX1    65536,DU
        44 003753   227470 054111                    AOS     NEXT_CHECK+8483,X1,AUTO

      867     1847
      868     1848    5           IF NT_SHIFT_LIST_LEN > %MAX_GOTO_COUNT

   1848 44 003754   227470 235111                    LDA     NEXT_CHECK+8483,X1,AUTO
        44 003755   031620 115007                    CMPA    13200,DL
        44 003756   003765 604400 44                 TMOZ    s:1851

      869     1849    5             THEN CALL DIAG (15,'ERROR => Output GOTO table overflow.%%');

   1849 44 003757   000156 630400 45                 EPPR0   110
        44 003760   000001 631400 45                 EPPR1   1
        44 003761   000000 701000 xent               TSX1    DIAG
        44 003762   000000 011000                    NOP     0
        44 003763   200000 221003                    LDX1    65536,DU
        44 003764   233726 634511                    EPPR4   NEXT_CHECK+10689,X1,AUTO

      870     1850
      871     1851    5          NT_SHIFT_LIST.INDX(NT_SHIFT_LIST_LEN) = NT_SHIFT(KEYN$ -> KEY_B.W.SYM_AFTER)
              1851                    ;

   1851 44 003765   200000 220003                    LDX0    65536,DU
        44 003766   227470 236110                    LDQ     NEXT_CHECK+8483,X0,AUTO
        44 003767   000003 402007                    MPY     3,DL
        44 003770   100000 221003                    LDX1    32768,DU
        44 003771   207404 470511                    LDP0    NEXT_CHECK+239,X1,AUTO
        44 003772   000004 235100                    LDA     4,,PR0
        44 003773   100000 622005                    EAX2    32768,AL
        44 003774   100000 623006                    EAX3    32768,QL
        44 003775   207414 235112                    LDA     NEXT_CHECK+247,X2,AUTO
        44 003776   212207 755113                    STA     NEXT_CHECK+1650,X3,AUTO

      872     1852    5           NT_SHIFT_LIST.STATE(NT_SHIFT_LIST_LEN) = I;

PL6.E3A0      #001=TABLES File=LR_TABLE.:Z8A6TSI                                 SAT 08/09/97 09:37 Page:147
   1852 44 003777   207405 722111                    LXL2    NEXT_CHECK+240,X1,AUTO
        44 004000   100000 624006                    EAX4    32768,QL
        44 004001   212205 742114                    STX2    NEXT_CHECK+1648,X4,AUTO

      873     1853    5           NT_SHIFT_LIST.NEW_STATE(NT_SHIFT_LIST_LEN) = KEYN$ -> KEY_B.KEY_VAL$ ->
              1853                    C_SET_B.C_SET#;

   1853 44 004002   000003 471500                    LDP1    3,,PR0
        44 004003   100001 225100                    LDX5    1,,PR1
        44 004004   100000 626006                    EAX6    32768,QL
        44 004005   212206 745116                    STX5    NEXT_CHECK+1649,X6,AUTO

      874     1854    5           NT_SHIFT(KEYN$ -> KEY_B.W.SYM_AFTER) = NT_SHIFT_LIST_LEN;

   1854 44 004006   000004 235100                    LDA     4,,PR0
        44 004007   100000 627005                    EAX7    32768,AL
        44 004010   227470 235110                    LDA     NEXT_CHECK+8483,X0,AUTO
        44 004011   207414 755117                    STA     NEXT_CHECK+247,X7,AUTO

      875     1855    5         END;

      876     1856    4     END;

   1856 44 004012   100000 220003                    LDX0    32768,DU
        44 004013   207406 054110                    AOS     NEXT_CHECK+241,X0,AUTO
        44 004014   207410 470510                    LDP0    NEXT_CHECK+243,X0,AUTO
        44 004015   000001 236100                    LDQ     1,,PR0
        44 004016   777777 376007                    ANQ     -1,DL
        44 004017   207406 116110                    CMPQ    NEXT_CHECK+241,X0,AUTO
        44 004020   003736 605400 44                 TPNZ    s:1841

      877     1857    3   END;

   1857 44 004021   207405 054110                    AOS     NEXT_CHECK+240,X0,AUTO
        44 004022   100000 220003                    LDX0    32768,DU
        44 004023   207405 236110                    LDQ     NEXT_CHECK+240,X0,AUTO
        44 004024   000000 116000 37                 CMPQ    NR_CONFIG
PL6.E3A0      #001=TABLES File=LR_TABLE.:Z8A6TSI                                 SAT 08/09/97 09:37 Page:148
        44 004025   003730 604000 44                 TMI     s:1837

      878     1858
      879     1859    3   DO I = NR_TERM + 1 TO LAST_NULL;

   1859 44 004026   000000 235000 11                 LDA     NR_TERM
        44 004027   000001 035007                    ADLA    1,DL
        44 004030   207405 755110                    STA     NEXT_CHECK+240,X0,AUTO
        44 004031   004105 710000 44                 TRA     s:1871+2

      880     1860
      881     1861    3     CALL CALC_MOST_COMMON_GOTO(I);

   1861 44 004032   400000 452500                    STP2    0,,PR4
        44 004033   400000 236100                    LDQ     0,,PR4
        44 004034   107405 036003                    ADLQ    36613,DU
        44 004035   200000 220003                    LDX0    65536,DU
        44 004036   227473 756110                    STQ     NEXT_CHECK+8486,X0,AUTO
        44 004037   002667 701000 44                 TSX1    CALC_MOST_COMMON_GOTO
        44 004040   000000 011000                    NOP     0

      882     1862    3     CALL CREATE_GOTO_SLICE(I);

   1862 44 004041   400000 452500                    STP2    0,,PR4
        44 004042   400000 236100                    LDQ     0,,PR4
        44 004043   107405 036003                    ADLQ    36613,DU
        44 004044   200000 220003                    LDX0    65536,DU
        44 004045   227473 756110                    STQ     NEXT_CHECK+8486,X0,AUTO
        44 004046   003016 701000 44                 TSX1    CREATE_GOTO_SLICE
        44 004047   000000 011000                    NOP     0

      883     1863
      884     1864
      885     1865    3     CALL INSERT_SLICE_IN_ARRAY ( I - NR_TERM,

   1865 44 004050   100000 220003                    LDX0    32768,DU
        44 004051   207405 236110                    LDQ     NEXT_CHECK+240,X0,AUTO
PL6.E3A0      #001=TABLES File=LR_TABLE.:Z8A6TSI                                 SAT 08/09/97 09:37 Page:149
        44 004052   000000 136000 11                 SBLQ    NR_TERM
        44 004053   400017 756100                    STQ     15,,PR4
        44 004054   400000 452500                    STP2    0,,PR4
        44 004055   400000 236100                    LDQ     0,,PR4
        44 004056   107413 036003                    ADLQ    36619,DU
        44 004057   200000 221003                    LDX1    65536,DU
        44 004060   227500 756111                    STQ     NEXT_CHECK+8491,X1,AUTO
        44 004061   204234 630500                    EPPR0   GOTO_,,AUTO
        44 004062   227477 450511                    STP0    NEXT_CHECK+8490,X1,AUTO
        44 004063   400001 452500                    STP2    1,,PR4
        44 004064   400001 236100                    LDQ     1,,PR4
        44 004065   107403 036003                    ADLQ    36611,DU
        44 004066   227476 756111                    STQ     NEXT_CHECK+8489,X1,AUTO
        44 004067   400002 452500                    STP2    2,,PR4
        44 004070   400002 236100                    LDQ     2,,PR4
        44 004071   076721 036003                    ADLQ    32209,DU
        44 004072   227475 756111                    STQ     NEXT_CHECK+8488,X1,AUTO
        44 004073   400003 452500                    STP2    3,,PR4
        44 004074   400003 236100                    LDQ     3,,PR4
        44 004075   107411 036003                    ADLQ    36617,DU
        44 004076   227474 756111                    STQ     NEXT_CHECK+8487,X1,AUTO
        44 004077   400017 630500                    EPPR0   15,,PR4
        44 004100   227473 450511                    STP0    NEXT_CHECK+8486,X1,AUTO
        44 004101   001435 701000 44                 TSX1    INSERT_SLICE_IN_ARRAY
        44 004102   000000 011000                    NOP     0

      886     1866    3                                    MOST_COMMON_STATE,
      887     1867    3                                    GOTO_SLICE,
      888     1868    3                                    GOTO_SLICE_LEN,
      889     1869    3                                    GOTO_,
      890     1870    3                                    MAX_STATE_INDX);
      891     1871    3   END;

   1871 44 004103   100000 220003                    LDX0    32768,DU
        44 004104   207405 054110                    AOS     NEXT_CHECK+240,X0,AUTO
        44 004105   207405 236110                    LDQ     NEXT_CHECK+240,X0,AUTO
        44 004106   000000 116000 13                 CMPQ    LAST_NULL
PL6.E3A0      #001=TABLES File=LR_TABLE.:Z8A6TSI                                 SAT 08/09/97 09:37 Page:150
        44 004107   004032 604400 44                 TMOZ    s:1861

      892     1872
      893     1873    2   CALL WRITE_OUTPUT_GOTO;

   1873 44 004110   003103 701000 44                 TSX1    WRITE_OUTPUT_GOTO
        44 004111   000000 011000                    NOP     0

      894     1874
      895     1875    2   END OUTPUT_GOTO;

   1875 44 004112   040000 220203                    LDX0  ! 16384,DU
        44 004113   236720 221310                    LDX1  ! NEXT_CHECK+12219,X0,AUTO
        44 004114   000001 702211                    TSX2  ! 1,X1

      896     1876        %EJECT;
PL6.E3A0      #001=TABLES File=LR_TABLE.:Z8A6TSI                                 SAT 08/09/97 09:37 Page:151
      897     1877
      898     1878    1          LINELEN = 0;

   1878 44 004115   000000 450000 34                 STZ     LINELEN

      899     1879
      900     1880
      901     1881
      902     1882    1          CALL OUTPUT_ACTIONS;

   1882 44 004116   000072 701000 44                 TSX1    OUTPUT_ACTIONS
        44 004117   000000 011000                    NOP     0

      903     1883
      904     1884    1          CALL OUTPUT_TERM_INFO;

   1884 44 004120   000276 701000 44                 TSX1    OUTPUT_TERM_INFO
        44 004121   000000 011000                    NOP     0

      905     1885
      906     1886    1          CALL OUTPUT_PRODUCTIONS;

   1886 44 004122   000434 701000 44                 TSX1    OUTPUT_PRODUCTIONS
        44 004123   000000 011000                    NOP     0

      907     1887
      908     1888    1          CALL OUTPUT_STATES;

   1888 44 004124   001705 701000 44                 TSX1    OUTPUT_STATES
        44 004125   000000 011000                    NOP     0

      909     1889
      910     1890    1          CALL OUTPUT_GOTO;

   1890 44 004126   002664 701000 44                 TSX1    OUTPUT_GOTO
        44 004127   000000 011000                    NOP     0

PL6.E3A0      #001=TABLES File=LR_TABLE.:Z8A6TSI                                 SAT 08/09/97 09:37 Page:152
      911     1891
      912     1892    1           IF NOT OPTIONS(DTS_OPT) THEN

   1892 44 004130   000000 236000 25                 LDQ     OPTIONS
        44 004131   020000 316003                    CANQ    8192,DU
        44 004132   004140 601000 44                 TNZ     s:1895

      913     1893    1             CALL OUTPUT_TERMINAL_STRINGS;

   1893 44 004133   000000 631400 45                 EPPR1   0
        44 004134   000000 701000 xent               TSX1    OUTPUT_TERMINAL_STRINGS
        44 004135   000000 011000                    NOP     0
        44 004136   200000 221003                    LDX1    65536,DU
        44 004137   233726 634511                    EPPR4   NEXT_CHECK+10689,X1,AUTO

      914     1894
      915     1895    1          CALL OUTPUT_PARSE_SYMREFS;

   1895 44 004140   000000 631400 45                 EPPR1   0
        44 004141   000000 701000 xent               TSX1    OUTPUT_PARSE_SYMREFS
        44 004142   000000 011000                    NOP     0
        44 004143   200000 221003                    LDX1    65536,DU
        44 004144   233726 634511                    EPPR4   NEXT_CHECK+10689,X1,AUTO

      916     1896
      917     1897
      918     1898    1   END TABLES;

   1898 44 004145   000000 702200 xent               TSX2  ! X66_ARET
      919     1899        %EOD;

PL6.E3A0      #001=TABLES File=LR_TABLE.:Z8A6TSI                                 SAT 08/09/97 09:37 Page:153
--  Include file information  --

   LR_CNFG_EXT.:Z8A6TOU  cannot be made into a system file and is referenced.
   LR_IO_EXT.:Z8A6TOU  cannot be made into a system file and is referenced.
   LR_GRAM_EXT.:Z8A6TOU  cannot be made into a system file and is referenced.
      No diagnostics issued in procedure TABLES.
PL6.E3A0      #001=TABLES File=LR_TABLE.:Z8A6TSI                                 SAT 08/09/97 09:37 Page:154

 **** Variables and constants ****

  ****  Section 000 LblCom OUT_DCBN

  ****  Scalars and arrays  ****
OctLoc.c.b A Datatyp(siz) R M Lvl/name                 OctLoc.c.b A Datatyp(siz) R M Lvl/name

     0-0-0/w SBIN        r     1 OUT_DCBN

  ****  Section 006 LblCom SYM_PTRS

  ****  Scalars and arrays  ****
OctLoc.c.b A Datatyp(siz) R M Lvl/name                 OctLoc.c.b A Datatyp(siz) R M Lvl/name

     0-0-0/w PTR         r     1 SYM_PTRS(0:1400)

  ****  Section 007 LblCom RIGHT_PARTS

  ****  Scalars and arrays  ****
OctLoc.c.b A Datatyp(siz) R M Lvl/name                 OctLoc.c.b A Datatyp(siz) R M Lvl/name

     0-0-0/h SBIN(18)    r     1 RIGHT_PARTS(0:8000)

  ****  Section 008 LblCom PROD

  ****  Scalars and arrays  ****
OctLoc.c.b A Datatyp(siz) R M Lvl/name                 OctLoc.c.b A Datatyp(siz) R M Lvl/name

     0-0-0/h STRC(72)    r     1 PROD(0:1500)

  ****  Section 009 LblCom NR_PROD

  ****  Scalars and arrays  ****
OctLoc.c.b A Datatyp(siz) R M Lvl/name                 OctLoc.c.b A Datatyp(siz) R M Lvl/name

     0-0-0/w SBIN        r     1 NR_PROD

PL6.E3A0      #001=TABLES File=LR_TABLE.:Z8A6TSI                                 SAT 08/09/97 09:37 Page:155
  ****  Section 010 LblCom NR_SYMS

  ****  Scalars and arrays  ****
OctLoc.c.b A Datatyp(siz) R M Lvl/name                 OctLoc.c.b A Datatyp(siz) R M Lvl/name

     0-0-0/w SBIN              1 NR_SYMS

  ****  Section 011 LblCom NR_TERM

  ****  Scalars and arrays  ****
OctLoc.c.b A Datatyp(siz) R M Lvl/name                 OctLoc.c.b A Datatyp(siz) R M Lvl/name

     0-0-0/w SBIN        r     1 NR_TERM

  ****  Section 012 LblCom LAST_ACT

  ****  Scalars and arrays  ****
OctLoc.c.b A Datatyp(siz) R M Lvl/name                 OctLoc.c.b A Datatyp(siz) R M Lvl/name

     0-0-0/w SBIN        r     1 LAST_ACT

  ****  Section 013 LblCom LAST_NULL

  ****  Scalars and arrays  ****
OctLoc.c.b A Datatyp(siz) R M Lvl/name                 OctLoc.c.b A Datatyp(siz) R M Lvl/name

     0-0-0/w SBIN        r     1 LAST_NULL

  ****  Section 014 LblCom NR_ONRIGHT

  ****  Scalars and arrays  ****
OctLoc.c.b A Datatyp(siz) R M Lvl/name                 OctLoc.c.b A Datatyp(siz) R M Lvl/name

     0-0-0/w SBIN              1 NR_ONRIGHT

  ****  Section 015 LblCom NR_NT

PL6.E3A0      #001=TABLES File=LR_TABLE.:Z8A6TSI                                 SAT 08/09/97 09:37 Page:156
  ****  Scalars and arrays  ****
OctLoc.c.b A Datatyp(siz) R M Lvl/name                 OctLoc.c.b A Datatyp(siz) R M Lvl/name

     0-0-0/w SBIN        r     1 NR_NT

  ****  Section 016 LblCom PROD_LEN_MAX_EVER

  ****  Scalars and arrays  ****
OctLoc.c.b A Datatyp(siz) R M Lvl/name                 OctLoc.c.b A Datatyp(siz) R M Lvl/name

     0-0-0/w SBIN              1 PROD_LEN_MAX_EVER

  ****  Section 017 LblCom LAST_ORDER_SPECIFIED

  ****  Scalars and arrays  ****
OctLoc.c.b A Datatyp(siz) R M Lvl/name                 OctLoc.c.b A Datatyp(siz) R M Lvl/name

     0-0-0/w SBIN              1 LAST_ORDER_SPECIFIED

  ****  Section 018 LblCom SEMANTIC_ORDERING

  ****  Scalars and arrays  ****
OctLoc.c.b A Datatyp(siz) R M Lvl/name                 OctLoc.c.b A Datatyp(siz) R M Lvl/name

     0-0-0/b BIT               1 SEMANTIC_ORDERING

  ****  Section 019 LblCom ERR_SEV

  ****  Scalars and arrays  ****
OctLoc.c.b A Datatyp(siz) R M Lvl/name                 OctLoc.c.b A Datatyp(siz) R M Lvl/name

     0-0-0/w SBIN              1 ERR_SEV

  ****  Section 020 LblCom SET_LENGTHB

  ****  Scalars and arrays  ****
OctLoc.c.b A Datatyp(siz) R M Lvl/name                 OctLoc.c.b A Datatyp(siz) R M Lvl/name
PL6.E3A0      #001=TABLES File=LR_TABLE.:Z8A6TSI                                 SAT 08/09/97 09:37 Page:157

     0-0-0/w SBIN              1 SET_LENGTHB

  ****  Section 021 LblCom SET_LENGTHW

  ****  Scalars and arrays  ****
OctLoc.c.b A Datatyp(siz) R M Lvl/name                 OctLoc.c.b A Datatyp(siz) R M Lvl/name

     0-0-0/w SBIN              1 SET_LENGTHW

  ****  Section 022 LblCom EOF_SYMBOL_PTR

  ****  Scalars and arrays  ****
OctLoc.c.b A Datatyp(siz) R M Lvl/name                 OctLoc.c.b A Datatyp(siz) R M Lvl/name

     0-0-0/w PTR         r     1 EOF_SYMBOL_PTR

  ****  Section 023 LblCom ERROR_SYMBOL_PTR

  ****  Scalars and arrays  ****
OctLoc.c.b A Datatyp(siz) R M Lvl/name                 OctLoc.c.b A Datatyp(siz) R M Lvl/name

     0-0-0/w PTR         r     1 ERROR_SYMBOL_PTR

  ****  Section 024 LblCom BOF_SYMBOL_PTR

  ****  Scalars and arrays  ****
OctLoc.c.b A Datatyp(siz) R M Lvl/name                 OctLoc.c.b A Datatyp(siz) R M Lvl/name

     0-0-0/w PTR               1 BOF_SYMBOL_PTR

  ****  Section 025 LblCom OPTIONS

  ****  Scalars and arrays  ****
OctLoc.c.b A Datatyp(siz) R M Lvl/name                 OctLoc.c.b A Datatyp(siz) R M Lvl/name

     0-0-0/b BIT         r     1 OPTIONS(0:25)
PL6.E3A0      #001=TABLES File=LR_TABLE.:Z8A6TSI                                 SAT 08/09/97 09:37 Page:158

  ****  Section 026 LblCom OPTIONS_TEXT

  ****  Scalars and arrays  ****
OctLoc.c.b A Datatyp(siz) R M Lvl/name                 OctLoc.c.b A Datatyp(siz) R M Lvl/name

     0-0-0/c CHAR(4)           1 OPTIONS_TEXT(0:25)

  ****  Section 027 LblCom INSTR

  ****  Scalars and arrays  ****
OctLoc.c.b A Datatyp(siz) R M Lvl/name                 OctLoc.c.b A Datatyp(siz) R M Lvl/name

     0-0-0/c CHAR              1 INSTR(0:511)               0-0-0/c CHAR(512)         1 INSTRCHR

  ****  Section 028 LblCom INSTR_LISTED

  ****  Scalars and arrays  ****
OctLoc.c.b A Datatyp(siz) R M Lvl/name                 OctLoc.c.b A Datatyp(siz) R M Lvl/name

     0-0-0/b BIT               1 INSTR_LISTED

  ****  Section 029 LblCom INSTR_LEN

  ****  Scalars and arrays  ****
OctLoc.c.b A Datatyp(siz) R M Lvl/name                 OctLoc.c.b A Datatyp(siz) R M Lvl/name

     0-0-0/w SBIN              1 INSTR_LEN

  ****  Section 030 LblCom INSTR_INDX

  ****  Scalars and arrays  ****
OctLoc.c.b A Datatyp(siz) R M Lvl/name                 OctLoc.c.b A Datatyp(siz) R M Lvl/name

     0-0-0/w SBIN              1 INSTR_INDX

  ****  Section 031 LblCom EOF_FLAG
PL6.E3A0      #001=TABLES File=LR_TABLE.:Z8A6TSI                                 SAT 08/09/97 09:37 Page:159

  ****  Scalars and arrays  ****
OctLoc.c.b A Datatyp(siz) R M Lvl/name                 OctLoc.c.b A Datatyp(siz) R M Lvl/name

     0-0-0/b BIT               1 EOF_FLAG

  ****  Section 032 LblCom KEY_REC

  ****  Scalars and arrays  ****
OctLoc.c.b A Datatyp(siz) R M Lvl/name                 OctLoc.c.b A Datatyp(siz) R M Lvl/name

     0-0-0/c CHAR(10)          1 KEY_REC

  ****  Section 033 LblCom LINE

  ****  Scalars and arrays  ****
OctLoc.c.b A Datatyp(siz) R M Lvl/name                 OctLoc.c.b A Datatyp(siz) R M Lvl/name

     0-0-0/c CHAR(109)         1 LINE

  ****  Section 034 LblCom LINELEN

  ****  Scalars and arrays  ****
OctLoc.c.b A Datatyp(siz) R M Lvl/name                 OctLoc.c.b A Datatyp(siz) R M Lvl/name

     0-0-0/w SBIN        r     1 LINELEN

  ****  Section 035 LblCom TSTATS

  ****  Scalars and arrays  ****
OctLoc.c.b A Datatyp(siz) R M Lvl/name                 OctLoc.c.b A Datatyp(siz) R M Lvl/name

     0-0-0/w STRC(7380)  r     1 TSTATS

  ****  Section 036 LblCom C#_TO_$

  ****  Scalars and arrays  ****
PL6.E3A0      #001=TABLES File=LR_TABLE.:Z8A6TSI                                 SAT 08/09/97 09:37 Page:160
OctLoc.c.b A Datatyp(siz) R M Lvl/name                 OctLoc.c.b A Datatyp(siz) R M Lvl/name

     0-0-0/w PTR         r     1 C#_TO_$(0:2200)

  ****  Section 037 LblCom NR_CONFIG

  ****  Scalars and arrays  ****
OctLoc.c.b A Datatyp(siz) R M Lvl/name                 OctLoc.c.b A Datatyp(siz) R M Lvl/name

     0-0-0/w SBIN        r     1 NR_CONFIG

  ****  Section 038 LblCom INIT_CONFIG

  ****  Scalars and arrays  ****
OctLoc.c.b A Datatyp(siz) R M Lvl/name                 OctLoc.c.b A Datatyp(siz) R M Lvl/name

     0-0-0/w SBIN              1 INIT_CONFIG

  ****  Section 039 LblCom MAX_BASIS_ITEMS

  ****  Scalars and arrays  ****
OctLoc.c.b A Datatyp(siz) R M Lvl/name                 OctLoc.c.b A Datatyp(siz) R M Lvl/name

     0-0-0/w SBIN              1 MAX_BASIS_ITEMS

  ****  Section 040 LblCom MAX_TOTAL_ITEMS

  ****  Scalars and arrays  ****
OctLoc.c.b A Datatyp(siz) R M Lvl/name                 OctLoc.c.b A Datatyp(siz) R M Lvl/name

     0-0-0/w SBIN              1 MAX_TOTAL_ITEMS

  ****  Section 041 LblCom LAST_BINSRCH_ONLY

  ****  Scalars and arrays  ****
OctLoc.c.b A Datatyp(siz) R M Lvl/name                 OctLoc.c.b A Datatyp(siz) R M Lvl/name

PL6.E3A0      #001=TABLES File=LR_TABLE.:Z8A6TSI                                 SAT 08/09/97 09:37 Page:161
     0-0-0/w SBIN              1 LAST_BINSRCH_ONLY

  ****  Section 042 LblCom LAST_BOTH_BITBIN

  ****  Scalars and arrays  ****
OctLoc.c.b A Datatyp(siz) R M Lvl/name                 OctLoc.c.b A Datatyp(siz) R M Lvl/name

     0-0-0/w SBIN              1 LAST_BOTH_BITBIN

  ****  Auto variables  ****

  ****  Scalars and arrays  ****
OctLoc.c.b A Datatyp(siz) R M Lvl/name                 OctLoc.c.b A Datatyp(siz) R M Lvl/name

227474-0-0/w PTR         r     1 @DEFAULT              227477-0-0/w PTR         r     1 @DEF_BASE
227473-0-0/w PTR         r     1 @INDX                  76726-0-0/w PTR         r     1 @LEN
227500-0-0/w PTR         r     1 @MAX_INDX              76727-0-0/w PTR         r     1 @N
 76725-0-0/w PTR         r     1 @N                    227473-0-0/w PTR         r     1 @NT
227473-0-0/w PTR         r     1 @NT                   227475-0-0/w PTR         r     1 @SLICE
227476-0-0/w PTR         r     1 @SLICELEN              76725-0-0/w PTR         r     1 @STR
 76725-0-0/w PTR         r     1 @SYM$                  76722-0-0/w SBIN        r     1 ACTION_NUM
 76725-0-0/w STRC(72)    r     1 ACTION_SLICE(0:700)
101517-0-0/w SBIN        r     1 ACTION_SLICE_LEN       76723-0-0/w SBIN        r     1 ACTION_VAL
227501-0-0/w SBIN        r     1 BASE_FOUND_NUM         76724-0-0/w PTR         r     1 C$
107410-0-0/w PTR         r     1 C$                        *0-0-0/w SBIN        r     1 DEFAULT
101523-0-0/w SBIN        r     1 DEFAULT                   *0-0-0/w STRC        r     1 DEF_BASE(0:2200)
101524-0-0/w SBIN        r     1 FIRST_ELEM            101522-0-0/w PTR         r     1 FSET$
  4234-0-0/h STRC        r     1 GOTO_(0:1400)
 76721-0-0/w STRC(72)    r     1 GOTO_SLICE(0:2200)
107403-0-0/w SBIN        r     1 GOTO_SLICE_LEN         76721-0-0/w SBIN        r     1 I
 76722-0-0/w SBIN        r     1 I                      76726-0-0/w SBIN              1 I
227503-0-0/w SBIN        r     1 I                     227503-0-0/w SBIN        r     1 I
 76721-0-0/w SBIN        r     1 I                     101527-0-0/w SBIN        r     1 I
107405-0-0/w SBIN        r     1 I                     233725-0-0/w SBIN        r     1 I
227474-0-0/w SBIN        r     1 I                     227473-0-0/w SBIN        r     1 I
    *0-0-0/w SBIN        r     1 INDX                   76722-0-0/w SBIN        r     1 J
107406-0-0/w SBIN        r     1 J                     227474-0-0/w SBIN        r     1 J
PL6.E3A0      #001=TABLES File=LR_TABLE.:Z8A6TSI                                 SAT 08/09/97 09:37 Page:162
 76723-0-0/w SBIN        r     1 K                     107407-0-0/w SBIN              1 K
101520-0-0/w PTR         r     1 KEYN$                 107404-0-0/w PTR         r     1 KEYN$
    *0-0-0/w SBIN        r     1 LEN                       *0-0-0/w SBIN        r     1 MAX_INDX
107413-0-0/w SBIN        r     1 MAX_STATE_INDX        107412-0-0/w SBIN        r     1 MOST_COMMON_COUNT
107411-0-0/w SBIN        r     1 MOST_COMMON_STATE         *0-0-0/w SBIN        r     1 N
    *0-0-0/w SBIN        r     1 N                       7025-0-0/h STRC        r     1 NEXT_CHECK(0:28600)
  7025-0-0/h STRC)       r     1 NEXT_CHECK_CLEAR       76716-0-0/w SBIN        r     1 NEXT_CHECK_LEN
    *0-0-0/w SBIN        r     1 NT                        *0-0-0/w SBIN        r     1 NT
107414-0-0/w SBIN        r     1 NT_SHIFT(0:1400)      107414-0-0/w STRC(50436) r     1 NT_SHIFT_CLEAR
112205-0-0/w STRC(108)   r     1 NT_SHIFT_LIST(0:13200)
227470-0-0/w SBIN        r     1 NT_SHIFT_LIST_LEN      76721-0-0/w SBIN        r     1 NUM_RED_STACK
 76723-0-0/w SBIN        r     1 R                         *0-0-0/w STRC(72)    r     1 SLICE(0:0)
    *0-0-0/w SBIN        r     1 SLICELEN                   3-0-0/h STRC        r     1 STATE(0:2200)
227474-0-0/w SBIN        r     1 STATE_COUNT(0:2200)
227474-0-0/w STRC(79236) r     1 STATE_COUNT_CLEAR         *0-0-0/c CHAR(12)    r     1 STR
    *0-0-0/w PTR         r     1 SYM$                  101521-0-0/w SBIN        r     1 SYM_INDX

  ****  BASED and DCB variables  ****

  ****  Scalars and arrays  ****
OctLoc.c.b A Datatyp(siz) R M Lvl/name                 OctLoc.c.b A Datatyp(siz) R M Lvl/name

     0-0-0/w STRC        r     1 AFSET                      0-0-0/w STRC(57888) r     1 C_SET_B
     0-0-0/w STRC(72)          1 INCLUDES_B                 0-0-0/w STRC(144)   r     1 INCL_B
     0-0-0/w STRC(5436)        1 ITEM_B                     0-0-0/w STRC(5652)  r     1 KEY_B
     0-0-0N  NULL        r     1 M$LO                       0-0-0N  NULL        r     1 M$OU
     0-0-0N  NULL        r     1 M$SI                       0-0-0N  NULL        r     1 M$SO
     0-0-0N  NULL        r     1 M$UI                       0-0-0/w STRC(351)   r     1 SYMBOL


   Procedure TABLES requires 2150 words for executable code.
   Procedure TABLES requires 79846 words of local(AUTO) storage.

