PL6.E3A0      #002=LIST_GRAMMAR File=LR_TABLE.:Z8A6TSI                           SAT 08/09/97 09:38 Page:163
      920        1        /*T***********************************************************/
      921        2        /*T*                                                         */
      922        3        /*T* Copyright (c) Bull HN Information Systems Inc., 1997    */
      923        4        /*T*                                                         */
      924        5        /*T***********************************************************/
      925        6        LIST_GRAMMAR : PROC;
      926        7
      927        8        /*D*
      928        9               NAME: LIST_GRAMMAR
      929       10            PURPOSE: LIST THE PRODUCTIONS ACTUALLY USED BY THE PARSER
      930       11                     GENERATOR IN PRODUCING TABLES.  THIS MAY DIFFER FROM
      931       12                     THE INPUT GRAMMAR.  THE CROSS REFERENCE OF SYMBOLS
      932       13                     IS GIVEN AGAINST THIS LIST.
      933       14        */
      934       15
      935       16    1   DCL P SBIN WORD;
      936       17    1   DCL GS SBIN WORD;
      937       18    1   DCL R SBIN WORD;
      938       19    1   DCL S SBIN WORD;
      939       20
      940       21        %INCLUDE LR_GRAM_EXT;
      941      560
      942      561    1   DCL OUT_STR      ENTRY(2);
      943      562    1   DCL OUT_TOKEN    ENTRY(2);
      944      563    1   DCL PRINT_PROD   ENTRY(3);
      945      564    1   DCL OUT_DEC      ENTRY(1);
      946      565    1   DCL FLUSH        ENTRY;
      947      566    1   DCL OUT_SYMBOL ENTRY(1);
      948      567    1   DCL OUT_SYMBOL_TOKEN ENTRY(1);
      949      568
      950      569        %SELECT_LO;
      951      572
      952      573        %OUTLINE(S="' '");
      953      579        %OUTLINE(S="' '");
      954      585        %OUTLINE(S="'==============='");
      955      591        %OUTLINE(S="'GRAMMAR LISTING'");
      956      597        %OUTLINE(S="'==============='");
PL6.E3A0      #002=LIST_GRAMMAR File=LR_TABLE.:Z8A6TSI                           SAT 08/09/97 09:38 Page:164
      957      603        %OUTLINE(S="' '");
      958      609
      959      610    1   GS = -1;
      960      611
      961      612    2   DO P = 0 TO NR_PROD - 1;
      962      613
      963      614    2     IF PROD.GOAL_SYM_INDX(P) ~= GS THEN
      964      615    3       DO;
      965      616              %OUTLINE(S="' '");
      966      622    3         CALL OUT_DEC(P+1);
      967      623    3         CALL OUT_STR('     ', 5-LINELEN);
      968      624    3         CALL PRINT_PROD(P,0,'0'B);
      969      625    3         GS = PROD.GOAL_SYM_INDX(P);
      970      626    3       END;
      971      627    2     ELSE
      972      628    3       DO;
      973      629    3         CALL OUT_DEC(P+1);
      974      630    3         CALL OUT_STR('     ', 5-LINELEN);
      975      631              %OUT_STR(S="'     |'");
      976      634
      977      635    4         DO R = 1 TO PROD.RIGHT_CNT(P);
      978      636    4           S = RIGHT_PARTS(PROD.RIGHT_START(P) + R -1);
      979      637    4           CALL OUT_SYMBOL_TOKEN(SYM_PTRS(S));
      980      638    4         END;
      981      639
      982      640    3         IF PROD.TRAILING_SEM_ACT(P) THEN
      983      641    3           CALL OUT_SYMBOL_TOKEN(SYM_PTRS(RIGHT_PARTS(PROD.RIGHT_START(P) +
      984      642    3                              PROD.RIGHT_CNT(P))));
      985      643    3         CALL FLUSH;
      986      644    3       END;
      987      645    2   END;
      988      646
      989      647    1   END LIST_GRAMMAR;
      990      648        %EOD;

PL6.E3A0      #002=LIST_GRAMMAR File=LR_TABLE.:Z8A6TSI                           SAT 08/09/97 09:38 Page:165
--  Include file information  --

   LR_IO_EXT.:Z8A6TOU  cannot be made into a system file and is referenced.
   LR_GRAM_EXT.:Z8A6TOU  cannot be made into a system file and is referenced.
      No diagnostics issued in procedure LIST_GRAMMAR.

   Procedure LIST_GRAMMAR requires 181 words for executable code.
   Procedure LIST_GRAMMAR requires 12 words of local(AUTO) storage.

PL6.E3A0      #002=LIST_GRAMMAR File=LR_TABLE.:Z8A6TSI                           SAT 08/09/97 09:38 Page:166

 Object Unit name= LIST_GRAMMAR                               File name= LR_TABLE.:Z8A6TOU
 UTS= AUG 09 '97 09:38:48.64 SAT                              Compiler= PL-6/E31         Sev=      00
 SharedLib= :SHARED_SYSTEM                                    Alt SharedLib=


    ****  Control sections  ****

 Sect   Type Bound  Init  Size OctSiz  Section name(segment info)
    0  LblCom even  none     1      1  OUT_DCBN
    1   DCB   even  none     0      0  M$OU
    2   DCB   even  none     0      0  M$SO
    3   DCB   even  none     0      0  M$LO
    4   DCB   even  none     0      0  M$SI
    5   DCB   even  none     0      0  M$UI
    6  LblCom even  none  1401   2571  SYM_PTRS
    7  LblCom even  none  4001   7641  RIGHT_PARTS
    8  LblCom even  none  3002   5672  PROD
    9  LblCom even  none     1      1  NR_PROD
   10  LblCom even  none     1      1  NR_SYMS
   11  LblCom even  none     1      1  NR_TERM
   12  LblCom even  none     1      1  LAST_ACT
   13  LblCom even  none     1      1  LAST_NULL
   14  LblCom even  none     1      1  NR_ONRIGHT
   15  LblCom even  none     1      1  NR_NT
   16  LblCom even  none     1      1  PROD_LEN_MAX_EVER
   17  LblCom even  none     1      1  LAST_ORDER_SPECIFIED
   18  LblCom even  none     1      1  SEMANTIC_ORDERING
   19  LblCom even  none     1      1  ERR_SEV
   20  LblCom even  none     1      1  SET_LENGTHB
   21  LblCom even  none     1      1  SET_LENGTHW
   22  LblCom even  none     1      1  EOF_SYMBOL_PTR
   23  LblCom even  none     1      1  ERROR_SYMBOL_PTR
   24  LblCom even  none     1      1  BOF_SYMBOL_PTR
   25  LblCom even  none     1      1  OPTIONS
   26  LblCom even  none    26     32  OPTIONS_TEXT
   27  LblCom even  none   128    200  INSTR
   28  LblCom even  none     1      1  INSTR_LISTED
PL6.E3A0      #002=LIST_GRAMMAR File=LR_TABLE.:Z8A6TSI                           SAT 08/09/97 09:38 Page:167
   29  LblCom even  none     1      1  INSTR_LEN
   30  LblCom even  none     1      1  INSTR_INDX
   31  LblCom even  none     1      1  EOF_FLAG
   32  LblCom even  none     3      3  KEY_REC
   33  LblCom even  none    28     34  LINE
   34  LblCom even  none     1      1  LINELEN
   35  LblCom even  none   205    315  TSTATS
   36  RoData even  UTS     12     14  LIST_GRAMMAR
   37   Proc  even  none   181    265  LIST_GRAMMAR
   38  RoData even  none    18     22  LIST_GRAMMAR

    ****  Entry defs  ****

                              Check   Calling
                             calling  sequence
  Sect OctLoc Primary Altret sequence   type   Parms  Name
    37      0   yes            yes      Std        0  LIST_GRAMMAR

  ****  Entry refs  ****

         Check        Calling
        calling       sequence
Altret sequence SRef   type   Args  Name
         yes           Std       2 OUT_STR
         yes           Std       0 FLUSH
         yes           Std       1 OUT_SYMBOL_TOKEN
         yes           Std       3 PRINT_PROD
         yes           Std       1 OUT_DEC
                       nStd      0 X66_AUTO_0
                       nStd      0 X66_ARET
PL6.E3A0      #002=LIST_GRAMMAR File=LR_TABLE.:Z8A6TSI                           SAT 08/09/97 09:38 Page:168

  ****  Data refs  ****

  Flags:  r = read only, s = secondary
Flgs Name                             Flgs Name                             Flgs Name
     M$OU                                  M$SO                                  M$LO
     M$SI                                  M$UI

  ****  Segment refs  ****

  Flags:  r = read only, s = secondary
Flgs Name                             Flgs Name                             Flgs Name
     NULLSID                               ISSID
PL6.E3A0      #002=LIST_GRAMMAR File=LR_TABLE.:Z8A6TSI                           SAT 08/09/97 09:38 Page:169


      920        1        /*T***********************************************************/
      921        2        /*T*                                                         */
      922        3        /*T* Copyright (c) Bull HN Information Systems Inc., 1997    */
      923        4        /*T*                                                         */
      924        5        /*T***********************************************************/
      925        6        LIST_GRAMMAR : PROC;

      6 37 000000   000000 700200 xent  LIST_GRAMMAR TSX0  ! X66_AUTO_0
        37 000001   000014 000000                    ZERO    12,0

      926        7
      927        8        /*D*
      928        9               NAME: LIST_GRAMMAR
      929       10            PURPOSE: LIST THE PRODUCTIONS ACTUALLY USED BY THE PARSER
      930       11                     GENERATOR IN PRODUCING TABLES.  THIS MAY DIFFER FROM
      931       12                     THE INPUT GRAMMAR.  THE CROSS REFERENCE OF SYMBOLS
      932       13                     IS GIVEN AGAINST THIS LIST.
      933       14        */
      934       15
      935       16    1   DCL P SBIN WORD;
      936       17    1   DCL GS SBIN WORD;
      937       18    1   DCL R SBIN WORD;
      938       19    1   DCL S SBIN WORD;
      939       20
      940       21        %INCLUDE LR_GRAM_EXT;
      941      560
      942      561    1   DCL OUT_STR      ENTRY(2);
      943      562    1   DCL OUT_TOKEN    ENTRY(2);
      944      563    1   DCL PRINT_PROD   ENTRY(3);
      945      564    1   DCL OUT_DEC      ENTRY(1);
      946      565    1   DCL FLUSH        ENTRY;
      947      566    1   DCL OUT_SYMBOL ENTRY(1);
      948      567    1   DCL OUT_SYMBOL_TOKEN ENTRY(1);
      949      568
      950      569        %SELECT_LO;

PL6.E3A0      #002=LIST_GRAMMAR File=LR_TABLE.:Z8A6TSI                           SAT 08/09/97 09:38 Page:170
    570 37 000002   000000 236007 xsym               LDQ     M$LO,DL
        37 000003   000000 756000 0                  STQ     OUT_DCBN

      951      572
      952      573        %OUTLINE(S="' '");

    575 37 000004   000003 630400 38                 EPPR0   3
        37 000005   000000 631400 38                 EPPR1   0
        37 000006   000000 701000 xent               TSX1    OUT_STR
        37 000007   000000 011000                    NOP     0

    576 37 000010   000005 631400 38                 EPPR1   5
        37 000011   000000 701000 xent               TSX1    FLUSH
        37 000012   000000 011000                    NOP     0

      953      579        %OUTLINE(S="' '");

    581 37 000013   000003 630400 38                 EPPR0   3
        37 000014   000000 631400 38                 EPPR1   0
        37 000015   000000 701000 xent               TSX1    OUT_STR
        37 000016   000000 011000                    NOP     0

    582 37 000017   000005 631400 38                 EPPR1   5
        37 000020   000000 701000 xent               TSX1    FLUSH
        37 000021   000000 011000                    NOP     0

      954      585        %OUTLINE(S="'==============='");

    587 37 000022   000007 630400 38                 EPPR0   7
        37 000023   000000 631400 38                 EPPR1   0
        37 000024   000000 701000 xent               TSX1    OUT_STR
        37 000025   000000 011000                    NOP     0

    588 37 000026   000005 631400 38                 EPPR1   5
        37 000027   000000 701000 xent               TSX1    FLUSH
        37 000030   000000 011000                    NOP     0

PL6.E3A0      #002=LIST_GRAMMAR File=LR_TABLE.:Z8A6TSI                           SAT 08/09/97 09:38 Page:171
      955      591        %OUTLINE(S="'GRAMMAR LISTING'");

    593 37 000031   000011 630400 38                 EPPR0   9
        37 000032   000000 631400 38                 EPPR1   0
        37 000033   000000 701000 xent               TSX1    OUT_STR
        37 000034   000000 011000                    NOP     0

    594 37 000035   000005 631400 38                 EPPR1   5
        37 000036   000000 701000 xent               TSX1    FLUSH
        37 000037   000000 011000                    NOP     0

      956      597        %OUTLINE(S="'==============='");

    599 37 000040   000007 630400 38                 EPPR0   7
        37 000041   000000 631400 38                 EPPR1   0
        37 000042   000000 701000 xent               TSX1    OUT_STR
        37 000043   000000 011000                    NOP     0

    600 37 000044   000005 631400 38                 EPPR1   5
        37 000045   000000 701000 xent               TSX1    FLUSH
        37 000046   000000 011000                    NOP     0

      957      603        %OUTLINE(S="' '");

    605 37 000047   000003 630400 38                 EPPR0   3
        37 000050   000000 631400 38                 EPPR1   0
        37 000051   000000 701000 xent               TSX1    OUT_STR
        37 000052   000000 011000                    NOP     0

    606 37 000053   000005 631400 38                 EPPR1   5
        37 000054   000000 701000 xent               TSX1    FLUSH
        37 000055   000000 011000                    NOP     0

      958      609
      959      610    1   GS = -1;

    610 37 000056   000001 335007                    LCA     1,DL
PL6.E3A0      #002=LIST_GRAMMAR File=LR_TABLE.:Z8A6TSI                           SAT 08/09/97 09:38 Page:172
        37 000057   200004 755100                    STA     GS,,AUTO

      960      611
      961      612    2   DO P = 0 TO NR_PROD - 1;

    612 37 000060   200003 450100                    STZ     P,,AUTO
        37 000061   000261 710000 37                 TRA     s:645+1

      962      613
      963      614    2     IF PROD.GOAL_SYM_INDX(P) ~= GS THEN

    614 37 000062   200003 235100                    LDA     P,,AUTO
        37 000063   000001 735000                    ALS     1
        37 000064   000000 236005 8                  LDQ     PROD,AL
        37 000065   000022 732000                    QRS     18
        37 000066   200004 116100                    CMPQ    GS,,AUTO
        37 000067   000142 600000 37                 TZE     s:629

      964      615    3       DO;

      965      616              %OUTLINE(S="' '");

    618 37 000070   000003 630400 38                 EPPR0   3
        37 000071   000000 631400 38                 EPPR1   0
        37 000072   000000 701000 xent               TSX1    OUT_STR
        37 000073   000000 011000                    NOP     0

    619 37 000074   000005 631400 38                 EPPR1   5
        37 000075   000000 701000 xent               TSX1    FLUSH
        37 000076   000000 011000                    NOP     0

      966      622    3         CALL OUT_DEC(P+1);

    622 37 000077   200003 235100                    LDA     P,,AUTO
        37 000100   000001 035007                    ADLA    1,DL
        37 000101   200010 755100                    STA     S+2,,AUTO
        37 000102   200010 630500                    EPPR0   S+2,,AUTO
PL6.E3A0      #002=LIST_GRAMMAR File=LR_TABLE.:Z8A6TSI                           SAT 08/09/97 09:38 Page:173
        37 000103   200011 450500                    STP0    S+3,,AUTO
        37 000104   200011 630500                    EPPR0   S+3,,AUTO
        37 000105   000013 631400 38                 EPPR1   11
        37 000106   000000 701000 xent               TSX1    OUT_DEC
        37 000107   000000 011000                    NOP     0

      967      623    3         CALL OUT_STR('     ', 5-LINELEN);

    623 37 000110   000005 235007                    LDA     5,DL
        37 000111   000000 135000 34                 SBLA    LINELEN
        37 000112   200010 755100                    STA     S+2,,AUTO
        37 000113   200010 630500                    EPPR0   S+2,,AUTO
        37 000114   200013 450500                    STP0    S+5,,AUTO
        37 000115   000014 236000 38                 LDQ     12
        37 000116   200012 756100                    STQ     S+4,,AUTO
        37 000117   200012 630500                    EPPR0   S+4,,AUTO
        37 000120   000000 631400 38                 EPPR1   0
        37 000121   000000 701000 xent               TSX1    OUT_STR
        37 000122   000000 011000                    NOP     0

      968      624    3         CALL PRINT_PROD(P,0,'0'B);

    624 37 000123   000016 236000 38                 LDQ     14
        37 000124   200012 756100                    STQ     S+4,,AUTO
        37 000125   200011 756100                    STQ     S+3,,AUTO
        37 000126   200003 630500                    EPPR0   P,,AUTO
        37 000127   200010 450500                    STP0    S+2,,AUTO
        37 000130   200010 630500                    EPPR0   S+2,,AUTO
        37 000131   000015 631400 38                 EPPR1   13
        37 000132   000000 701000 xent               TSX1    PRINT_PROD
        37 000133   000000 011000                    NOP     0

      969      625    3         GS = PROD.GOAL_SYM_INDX(P);

    625 37 000134   200003 235100                    LDA     P,,AUTO
        37 000135   000001 735000                    ALS     1
        37 000136   000000 236005 8                  LDQ     PROD,AL
PL6.E3A0      #002=LIST_GRAMMAR File=LR_TABLE.:Z8A6TSI                           SAT 08/09/97 09:38 Page:174
        37 000137   000022 732000                    QRS     18
        37 000140   200004 756100                    STQ     GS,,AUTO

      970      626    3       END;

    626 37 000141   000260 710000 37                 TRA     s:645

      971      627    2     ELSE
      972      628    3       DO;

      973      629    3         CALL OUT_DEC(P+1);

    629 37 000142   200003 235100                    LDA     P,,AUTO
        37 000143   000001 035007                    ADLA    1,DL
        37 000144   200010 755100                    STA     S+2,,AUTO
        37 000145   200010 630500                    EPPR0   S+2,,AUTO
        37 000146   200011 450500                    STP0    S+3,,AUTO
        37 000147   200011 630500                    EPPR0   S+3,,AUTO
        37 000150   000013 631400 38                 EPPR1   11
        37 000151   000000 701000 xent               TSX1    OUT_DEC
        37 000152   000000 011000                    NOP     0

      974      630    3         CALL OUT_STR('     ', 5-LINELEN);

    630 37 000153   000005 235007                    LDA     5,DL
        37 000154   000000 135000 34                 SBLA    LINELEN
        37 000155   200010 755100                    STA     S+2,,AUTO
        37 000156   200010 630500                    EPPR0   S+2,,AUTO
        37 000157   200013 450500                    STP0    S+5,,AUTO
        37 000160   000014 236000 38                 LDQ     12
        37 000161   200012 756100                    STQ     S+4,,AUTO
        37 000162   200012 630500                    EPPR0   S+4,,AUTO
        37 000163   000000 631400 38                 EPPR1   0
        37 000164   000000 701000 xent               TSX1    OUT_STR
        37 000165   000000 011000                    NOP     0

      975      631              %OUT_STR(S="'     |'");
PL6.E3A0      #002=LIST_GRAMMAR File=LR_TABLE.:Z8A6TSI                           SAT 08/09/97 09:38 Page:175

    632 37 000166   000020 630400 38                 EPPR0   16
        37 000167   000000 631400 38                 EPPR1   0
        37 000170   000000 701000 xent               TSX1    OUT_STR
        37 000171   000000 011000                    NOP     0

      976      634
      977      635    4         DO R = 1 TO PROD.RIGHT_CNT(P);

    635 37 000172   000001 235007                    LDA     1,DL
        37 000173   200005 755100                    STA     R,,AUTO
        37 000174   000221 710000 37                 TRA     s:638+1

      978      636    4           S = RIGHT_PARTS(PROD.RIGHT_START(P) + R -1);

    636 37 000175   200003 235100                    LDA     P,,AUTO
        37 000176   000001 735000                    ALS     1
        37 000177   000001 236005 8                  LDQ     PROD+1,AL
        37 000200   000022 736000                    QLS     18
        37 000201   000022 732000                    QRS     18
        37 000202   200005 036100                    ADLQ    R,,AUTO
        37 000203   000001 736000                    QLS     1
        37 000204   000100 100406                    MLR     fill='000'O
        37 000205   777777 400002 7                  ADSC9   RIGHT_PARTS-1,Q          cn=2,n=2
        37 000206   200010 000004                    ADSC9   S+2,,AUTO                cn=0,n=4
        37 000207   200010 236100                    LDQ     S+2,,AUTO
        37 000210   000022 732000                    QRS     18
        37 000211   200006 756100                    STQ     S,,AUTO

      979      637    4           CALL OUT_SYMBOL_TOKEN(SYM_PTRS(S));

    637 37 000212   000000 630406 6                  EPPR0   SYM_PTRS,QL
        37 000213   200010 450500                    STP0    S+2,,AUTO
        37 000214   200010 630500                    EPPR0   S+2,,AUTO
        37 000215   000013 631400 38                 EPPR1   11
        37 000216   000000 701000 xent               TSX1    OUT_SYMBOL_TOKEN
        37 000217   000000 011000                    NOP     0
PL6.E3A0      #002=LIST_GRAMMAR File=LR_TABLE.:Z8A6TSI                           SAT 08/09/97 09:38 Page:176

      980      638    4         END;

    638 37 000220   200005 054100                    AOS     R,,AUTO
        37 000221   200003 235100                    LDA     P,,AUTO
        37 000222   000001 735000                    ALS     1
        37 000223   000001 236005 8                  LDQ     PROD+1,AL
        37 000224   000022 732000                    QRS     18
        37 000225   200005 116100                    CMPQ    R,,AUTO
        37 000226   000175 605000 37                 TPL     s:636

      981      639
      982      640    3         IF PROD.TRAILING_SEM_ACT(P) THEN

    640 37 000227   000000 236005 8                  LDQ     PROD,AL
        37 000230   400000 316007                    CANQ    -131072,DL
        37 000231   000255 600000 37                 TZE     s:643

      983      641    3           CALL OUT_SYMBOL_TOKEN(SYM_PTRS(RIGHT_PARTS(PROD.RIGHT_START(P) +

    641 37 000232   000001 236005 8                  LDQ     PROD+1,AL
        37 000233   000022 732000                    QRS     18
        37 000234   200010 756100                    STQ     S+2,,AUTO
        37 000235   000001 236005 8                  LDQ     PROD+1,AL
        37 000236   000022 736000                    QLS     18
        37 000237   000022 732000                    QRS     18
        37 000240   200010 036100                    ADLQ    S+2,,AUTO
        37 000241   000001 736000                    QLS     1
        37 000242   000100 100406                    MLR     fill='000'O
        37 000243   000000 000002 7                  ADSC9   RIGHT_PARTS,Q            cn=0,n=2
        37 000244   200011 000004                    ADSC9   S+3,,AUTO                cn=0,n=4
        37 000245   200011 236100                    LDQ     S+3,,AUTO
        37 000246   000022 732000                    QRS     18
        37 000247   000000 630406 6                  EPPR0   SYM_PTRS,QL
        37 000250   200012 450500                    STP0    S+4,,AUTO
        37 000251   200012 630500                    EPPR0   S+4,,AUTO
        37 000252   000013 631400 38                 EPPR1   11
PL6.E3A0      #002=LIST_GRAMMAR File=LR_TABLE.:Z8A6TSI                           SAT 08/09/97 09:38 Page:177
        37 000253   000000 701000 xent               TSX1    OUT_SYMBOL_TOKEN
        37 000254   000000 011000                    NOP     0

      984      642    3                              PROD.RIGHT_CNT(P))));
      985      643    3         CALL FLUSH;

    643 37 000255   000005 631400 38                 EPPR1   5
        37 000256   000000 701000 xent               TSX1    FLUSH
        37 000257   000000 011000                    NOP     0

      986      644    3       END;

      987      645    2   END;

    645 37 000260   200003 054100                    AOS     P,,AUTO
        37 000261   200003 236100                    LDQ     P,,AUTO
        37 000262   000000 116000 9                  CMPQ    NR_PROD
        37 000263   000062 604000 37                 TMI     s:614

      988      646
      989      647    1   END LIST_GRAMMAR;

    647 37 000264   000000 702200 xent               TSX2  ! X66_ARET
      990      648        %EOD;

PL6.E3A0      #002=LIST_GRAMMAR File=LR_TABLE.:Z8A6TSI                           SAT 08/09/97 09:38 Page:178
--  Include file information  --

   LR_IO_EXT.:Z8A6TOU  cannot be made into a system file and is referenced.
   LR_GRAM_EXT.:Z8A6TOU  cannot be made into a system file and is referenced.
      No diagnostics issued in procedure LIST_GRAMMAR.
PL6.E3A0      #002=LIST_GRAMMAR File=LR_TABLE.:Z8A6TSI                           SAT 08/09/97 09:38 Page:179

 **** Variables and constants ****

  ****  Section 000 LblCom OUT_DCBN

  ****  Scalars and arrays  ****
OctLoc.c.b A Datatyp(siz) R M Lvl/name                 OctLoc.c.b A Datatyp(siz) R M Lvl/name

     0-0-0/w SBIN        r     1 OUT_DCBN

  ****  Section 006 LblCom SYM_PTRS

  ****  Scalars and arrays  ****
OctLoc.c.b A Datatyp(siz) R M Lvl/name                 OctLoc.c.b A Datatyp(siz) R M Lvl/name

     0-0-0/w PTR         r     1 SYM_PTRS(0:1400)

  ****  Section 007 LblCom RIGHT_PARTS

  ****  Scalars and arrays  ****
OctLoc.c.b A Datatyp(siz) R M Lvl/name                 OctLoc.c.b A Datatyp(siz) R M Lvl/name

     0-0-0/h SBIN(18)    r     1 RIGHT_PARTS(0:8000)

  ****  Section 008 LblCom PROD

  ****  Scalars and arrays  ****
OctLoc.c.b A Datatyp(siz) R M Lvl/name                 OctLoc.c.b A Datatyp(siz) R M Lvl/name

     0-0-0/h STRC(72)    r     1 PROD(0:1500)

  ****  Section 009 LblCom NR_PROD

  ****  Scalars and arrays  ****
OctLoc.c.b A Datatyp(siz) R M Lvl/name                 OctLoc.c.b A Datatyp(siz) R M Lvl/name

     0-0-0/w SBIN        r     1 NR_PROD

PL6.E3A0      #002=LIST_GRAMMAR File=LR_TABLE.:Z8A6TSI                           SAT 08/09/97 09:38 Page:180
  ****  Section 010 LblCom NR_SYMS

  ****  Scalars and arrays  ****
OctLoc.c.b A Datatyp(siz) R M Lvl/name                 OctLoc.c.b A Datatyp(siz) R M Lvl/name

     0-0-0/w SBIN              1 NR_SYMS

  ****  Section 011 LblCom NR_TERM

  ****  Scalars and arrays  ****
OctLoc.c.b A Datatyp(siz) R M Lvl/name                 OctLoc.c.b A Datatyp(siz) R M Lvl/name

     0-0-0/w SBIN              1 NR_TERM

  ****  Section 012 LblCom LAST_ACT

  ****  Scalars and arrays  ****
OctLoc.c.b A Datatyp(siz) R M Lvl/name                 OctLoc.c.b A Datatyp(siz) R M Lvl/name

     0-0-0/w SBIN              1 LAST_ACT

  ****  Section 013 LblCom LAST_NULL

  ****  Scalars and arrays  ****
OctLoc.c.b A Datatyp(siz) R M Lvl/name                 OctLoc.c.b A Datatyp(siz) R M Lvl/name

     0-0-0/w SBIN              1 LAST_NULL

  ****  Section 014 LblCom NR_ONRIGHT

  ****  Scalars and arrays  ****
OctLoc.c.b A Datatyp(siz) R M Lvl/name                 OctLoc.c.b A Datatyp(siz) R M Lvl/name

     0-0-0/w SBIN              1 NR_ONRIGHT

  ****  Section 015 LblCom NR_NT

PL6.E3A0      #002=LIST_GRAMMAR File=LR_TABLE.:Z8A6TSI                           SAT 08/09/97 09:38 Page:181
  ****  Scalars and arrays  ****
OctLoc.c.b A Datatyp(siz) R M Lvl/name                 OctLoc.c.b A Datatyp(siz) R M Lvl/name

     0-0-0/w SBIN              1 NR_NT

  ****  Section 016 LblCom PROD_LEN_MAX_EVER

  ****  Scalars and arrays  ****
OctLoc.c.b A Datatyp(siz) R M Lvl/name                 OctLoc.c.b A Datatyp(siz) R M Lvl/name

     0-0-0/w SBIN              1 PROD_LEN_MAX_EVER

  ****  Section 017 LblCom LAST_ORDER_SPECIFIED

  ****  Scalars and arrays  ****
OctLoc.c.b A Datatyp(siz) R M Lvl/name                 OctLoc.c.b A Datatyp(siz) R M Lvl/name

     0-0-0/w SBIN              1 LAST_ORDER_SPECIFIED

  ****  Section 018 LblCom SEMANTIC_ORDERING

  ****  Scalars and arrays  ****
OctLoc.c.b A Datatyp(siz) R M Lvl/name                 OctLoc.c.b A Datatyp(siz) R M Lvl/name

     0-0-0/b BIT               1 SEMANTIC_ORDERING

  ****  Section 019 LblCom ERR_SEV

  ****  Scalars and arrays  ****
OctLoc.c.b A Datatyp(siz) R M Lvl/name                 OctLoc.c.b A Datatyp(siz) R M Lvl/name

     0-0-0/w SBIN              1 ERR_SEV

  ****  Section 020 LblCom SET_LENGTHB

  ****  Scalars and arrays  ****
OctLoc.c.b A Datatyp(siz) R M Lvl/name                 OctLoc.c.b A Datatyp(siz) R M Lvl/name
PL6.E3A0      #002=LIST_GRAMMAR File=LR_TABLE.:Z8A6TSI                           SAT 08/09/97 09:38 Page:182

     0-0-0/w SBIN              1 SET_LENGTHB

  ****  Section 021 LblCom SET_LENGTHW

  ****  Scalars and arrays  ****
OctLoc.c.b A Datatyp(siz) R M Lvl/name                 OctLoc.c.b A Datatyp(siz) R M Lvl/name

     0-0-0/w SBIN              1 SET_LENGTHW

  ****  Section 022 LblCom EOF_SYMBOL_PTR

  ****  Scalars and arrays  ****
OctLoc.c.b A Datatyp(siz) R M Lvl/name                 OctLoc.c.b A Datatyp(siz) R M Lvl/name

     0-0-0/w PTR               1 EOF_SYMBOL_PTR

  ****  Section 023 LblCom ERROR_SYMBOL_PTR

  ****  Scalars and arrays  ****
OctLoc.c.b A Datatyp(siz) R M Lvl/name                 OctLoc.c.b A Datatyp(siz) R M Lvl/name

     0-0-0/w PTR               1 ERROR_SYMBOL_PTR

  ****  Section 024 LblCom BOF_SYMBOL_PTR

  ****  Scalars and arrays  ****
OctLoc.c.b A Datatyp(siz) R M Lvl/name                 OctLoc.c.b A Datatyp(siz) R M Lvl/name

     0-0-0/w PTR               1 BOF_SYMBOL_PTR

  ****  Section 025 LblCom OPTIONS

  ****  Scalars and arrays  ****
OctLoc.c.b A Datatyp(siz) R M Lvl/name                 OctLoc.c.b A Datatyp(siz) R M Lvl/name

     0-0-0/b BIT               1 OPTIONS(0:25)
PL6.E3A0      #002=LIST_GRAMMAR File=LR_TABLE.:Z8A6TSI                           SAT 08/09/97 09:38 Page:183

  ****  Section 026 LblCom OPTIONS_TEXT

  ****  Scalars and arrays  ****
OctLoc.c.b A Datatyp(siz) R M Lvl/name                 OctLoc.c.b A Datatyp(siz) R M Lvl/name

     0-0-0/c CHAR(4)           1 OPTIONS_TEXT(0:25)

  ****  Section 027 LblCom INSTR

  ****  Scalars and arrays  ****
OctLoc.c.b A Datatyp(siz) R M Lvl/name                 OctLoc.c.b A Datatyp(siz) R M Lvl/name

     0-0-0/c CHAR              1 INSTR(0:511)               0-0-0/c CHAR(512)         1 INSTRCHR

  ****  Section 028 LblCom INSTR_LISTED

  ****  Scalars and arrays  ****
OctLoc.c.b A Datatyp(siz) R M Lvl/name                 OctLoc.c.b A Datatyp(siz) R M Lvl/name

     0-0-0/b BIT               1 INSTR_LISTED

  ****  Section 029 LblCom INSTR_LEN

  ****  Scalars and arrays  ****
OctLoc.c.b A Datatyp(siz) R M Lvl/name                 OctLoc.c.b A Datatyp(siz) R M Lvl/name

     0-0-0/w SBIN              1 INSTR_LEN

  ****  Section 030 LblCom INSTR_INDX

  ****  Scalars and arrays  ****
OctLoc.c.b A Datatyp(siz) R M Lvl/name                 OctLoc.c.b A Datatyp(siz) R M Lvl/name

     0-0-0/w SBIN              1 INSTR_INDX

  ****  Section 031 LblCom EOF_FLAG
PL6.E3A0      #002=LIST_GRAMMAR File=LR_TABLE.:Z8A6TSI                           SAT 08/09/97 09:38 Page:184

  ****  Scalars and arrays  ****
OctLoc.c.b A Datatyp(siz) R M Lvl/name                 OctLoc.c.b A Datatyp(siz) R M Lvl/name

     0-0-0/b BIT               1 EOF_FLAG

  ****  Section 032 LblCom KEY_REC

  ****  Scalars and arrays  ****
OctLoc.c.b A Datatyp(siz) R M Lvl/name                 OctLoc.c.b A Datatyp(siz) R M Lvl/name

     0-0-0/c CHAR(10)          1 KEY_REC

  ****  Section 033 LblCom LINE

  ****  Scalars and arrays  ****
OctLoc.c.b A Datatyp(siz) R M Lvl/name                 OctLoc.c.b A Datatyp(siz) R M Lvl/name

     0-0-0/c CHAR(109)         1 LINE

  ****  Section 034 LblCom LINELEN

  ****  Scalars and arrays  ****
OctLoc.c.b A Datatyp(siz) R M Lvl/name                 OctLoc.c.b A Datatyp(siz) R M Lvl/name

     0-0-0/w SBIN        r     1 LINELEN

  ****  Section 035 LblCom TSTATS

  ****  Scalars and arrays  ****
OctLoc.c.b A Datatyp(siz) R M Lvl/name                 OctLoc.c.b A Datatyp(siz) R M Lvl/name

     0-0-0/w STRC(7380)        1 TSTATS

  ****  Auto variables  ****

  ****  Scalars and arrays  ****
PL6.E3A0      #002=LIST_GRAMMAR File=LR_TABLE.:Z8A6TSI                           SAT 08/09/97 09:38 Page:185
OctLoc.c.b A Datatyp(siz) R M Lvl/name                 OctLoc.c.b A Datatyp(siz) R M Lvl/name

     4-0-0/w SBIN        r     1 GS                         3-0-0/w SBIN        r     1 P
     5-0-0/w SBIN        r     1 R                          6-0-0/w SBIN        r     1 S

  ****  BASED and DCB variables  ****

  ****  Scalars and arrays  ****
OctLoc.c.b A Datatyp(siz) R M Lvl/name                 OctLoc.c.b A Datatyp(siz) R M Lvl/name

     0-0-0N  NULL        r     1 M$LO                       0-0-0N  NULL        r     1 M$OU
     0-0-0N  NULL        r     1 M$SI                       0-0-0N  NULL        r     1 M$SO
     0-0-0N  NULL        r     1 M$UI                       0-0-0/w STRC(351)         1 SYMBOL


   Procedure LIST_GRAMMAR requires 181 words for executable code.
   Procedure LIST_GRAMMAR requires 12 words of local(AUTO) storage.

PL6.E3A0      #003=OUTPUT_XREF File=LR_TABLE.:Z8A6TSI                            SAT 08/09/97 09:39 Page:186
      991        1        /*T***********************************************************/
      992        2        /*T*                                                         */
      993        3        /*T* Copyright (c) Bull HN Information Systems Inc., 1997    */
      994        4        /*T*                                                         */
      995        5        /*T***********************************************************/
      996        6        OUTPUT_XREF : PROC;
      997        7
      998        8        /*D*
      999        9               NAME: OUTPUT_XREF
     1000       10            PURPOSE:
     1001       11
     1002       12           This module should produce a cross reference of all symbols,
     1003       13           their values, and their references.
     1004       14        */
     1005       15
     1006       16    1   DCL OUT_STR ENTRY(2);
     1007       17    1   DCL FLUSH   ENTRY;
     1008       18    1   DCL OUT_DEC ENTRY(1);
     1009       19    1   DCL COLLECT_GARBAGE ENTRY(1);
     1010       20    1   DCL OUT_SYMBOL ENTRY(1);
     1011       21    1   DCL OUT_SYMBOL_TOKEN ENTRY(1);
     1012       22
     1013       23        %INCLUDE LR_GRAM_EXT;
     1014      562
     1015      563    1   DCL I SBIN WORD;
     1016      564    1   DCL J SBIN WORD;
     1017      565    1   DCL K SBIN WORD;
     1018      566    1   DCL C1 CHAR(C1_LEN) BASED(C1$);
     1019      567    1   DCL C1_LEN SBIN WORD;
     1020      568    1   DCL C1$ PTR;
     1021      569    1   DCL C2 CHAR(C2_LEN) BASED(C2$);
     1022      570    1   DCL C2_LEN SBIN WORD;
     1023      571    1   DCL C2$ PTR;
     1024      572    1   DCL SXREF(0:%NR_SYMS_MAX) SBIN WORD;
     1025      573    1   DCL R SBIN WORD;
     1026      574    1   DCL P SBIN WORD;
     1027      575    1   DCL S SBIN WORD;
PL6.E3A0      #003=OUTPUT_XREF File=LR_TABLE.:Z8A6TSI                            SAT 08/09/97 09:39 Page:187
     1028      576    1   DCL SXRL(0:%NR_SYMS_MAX) PTR;
     1029      577    1   DCL TPTR PTR;
     1030      578
     1031      579    1   DCL 1 XREF ALIGNED BASED,
     1032      580    1         2 LEN_IN_H UBIN HALF HALIGNED,
     1033      581    1         2 P UBIN HALF HALIGNED,
     1034      582    1        2 LINK PTR ALIGNED;
     1035      583
     1036      584
     1037      585    1    ADD_REF: PROC (S,P);
     1038      586
     1039      587        /* ADD FACT THAT SYMBOL S WAS REFERENCED IN PRODUCTION P
     1040      588        */
     1041      589
     1042      590    2   DCL GET_STRING_MEM ENTRY(2);
     1043      591
     1044      592    2   DCL S SBIN WORD;
     1045      593    2   DCL P SBIN WORD;
     1046      594
     1047      595    2   IF SXRL(S) ~= ADDR(NIL) THEN
     1048      596    2     IF SXRL(S) -> XREF.P = P THEN
     1049      597    2       RETURN;
     1050      598
     1051      599    2   TPTR = SXRL(S);
     1052      600    2   CALL GET_STRING_MEM(SXRL(S), LENGTHC(XREF) / 2 - 1);
     1053      601    2   SXRL(S) -> XREF.LINK = TPTR;
     1054      602    2   SXRL(S) -> XREF.P = P;
     1055      603
     1056      604    2   END ADD_REF;
     1057      605
     1058      606
     1059      607
     1060      608
     1061      609        %SELECT_LO;
     1062      612
     1063      613        %OUTLINE(S="' '");
     1064      619        %OUTLINE(S="' '");
PL6.E3A0      #003=OUTPUT_XREF File=LR_TABLE.:Z8A6TSI                            SAT 08/09/97 09:39 Page:188
     1065      625        %OUTLINE(S="'======================'");
     1066      631        %OUTLINE(S="'SYMBOL CROSS REFERENCE'");
     1067      637        %OUTLINE(S="'======================'");
     1068      643        %OUTLINE(S="' '");
     1069      649        %OUTLINE(S=
               649          "'Value Type Symbol             References(by grammar listing production number)'"
               649            );
     1070      655        %OUTLINE(S="' '");
     1071      661
     1072      662        /* GENERATE XREF LIST */
     1073      663
     1074      664    2   DO I = 1 TO LAST_NULL;
     1075      665    2     SXRL(I) = ADDR(NIL);
     1076      666    2   END;
     1077      667
     1078      668    2   DO P = NR_PROD - 1 DOWNTO 0;
     1079      669    3     DO R = PROD.RIGHT_START(P) TO PROD.RIGHT_START(P) + PROD.RIGHT_CNT(P) - 1;
     1080      670
     1081      671    3       S = RIGHT_PARTS(R);
     1082      672    3       CALL ADD_REF(S,P);
     1083      673
     1084      674    3     END;
     1085      675
     1086      676    2     CALL ADD_REF(BINBIT(PROD.GOAL_SYM_INDX(P), 36), P);
     1087      677
     1088      678    2     IF PROD.TRAILING_SEM_ACT(P) THEN
     1089      679    3       DO;
     1090      680    3         S = RIGHT_PARTS(PROD.RIGHT_START(P) + PROD.RIGHT_CNT(P));
     1091      681    3         CALL ADD_REF(S,P);
     1092      682    3       END;
     1093      683    2   END;
     1094      684
     1095      685        /* SORT SYMBOLS ALPHABETICALLY */
     1096      686    2   DO I = 1 TO LAST_NULL;
     1097      687    2     SXREF(I) = I;
     1098      688    2   END;
     1099      689
PL6.E3A0      #003=OUTPUT_XREF File=LR_TABLE.:Z8A6TSI                            SAT 08/09/97 09:39 Page:189
     1100      690        /* BUBBLE SORT */
     1101      691    2   DO J = 1 TO LAST_NULL - 2;
     1102      692    3     DO I = 1 TO LAST_NULL - J;
     1103      693    3       C1_LEN = SYM_PTRS(SXREF(I)) -> SYMBOL.SYMLEN;
     1104      694    3       C1$ = ADDR(SYM_PTRS(SXREF(I)) -> SYMBOL.TEXTCHR);
     1105      695    3       C2_LEN = SYM_PTRS(SXREF(I + 1)) -> SYMBOL.SYMLEN;
     1106      696    3       C2$ = ADDR(SYM_PTRS(SXREF(I + 1)) -> SYMBOL.TEXTCHR);
     1107      697    3       IF (SYM_PTRS(SXREF(I+1)) -> SYMBOL.SYM_TYPE < SYM_PTRS(SXREF(I)) -> SYMBOL.
               697                SYM_TYPE)
     1108      698    3             OR
     1109      699    3          ((SYM_PTRS(SXREF(I+1)) -> SYMBOL.SYM_TYPE = SYM_PTRS(SXREF(I)) -> SYMBOL.
               699                   SYM_TYPE)
     1110      700    3                    AND (C1 > C2)) THEN
     1111      701    4         DO;
     1112      702    4           K = SXREF(I);
     1113      703    4           SXREF(I) = SXREF(I+1);
     1114      704    4           SXREF(I+1) = K;
     1115      705    4         END;
     1116      706    3     END;
     1117      707    2   END;
     1118      708
     1119      709
     1120      710    2   DO J =  1 TO LAST_NULL;
     1121      711    2     I = SXREF(J);
     1122      712
     1123      713    2     IF I > NR_TERM THEN
     1124      714    2       CALL OUT_DEC(I - NR_TERM);
     1125      715    2     ELSE
     1126      716    2       CALL OUT_DEC(I);
     1127      717    2     CALL OUT_STR('        ', 7-LINELEN);
     1128      718
     1129      719    3     DO CASE SYM_PTRS(I) -> SYMBOL.SYM_TYPE;
     1130      720
     1131      721    3       CASE(SYM_TYPE_TERM);
     1132      722
     1133      723              %OUT_STR(S="'T   '");
     1134      726
PL6.E3A0      #003=OUTPUT_XREF File=LR_TABLE.:Z8A6TSI                            SAT 08/09/97 09:39 Page:190
     1135      727    3       CASE(SYM_TYPE_NT);
     1136      728
     1137      729    3         IF I <= NR_NT THEN
     1138      730                %OUT_STR(S="'NT  '");
     1139      733    3         ELSE
     1140      734                %OUT_STR(S="'NNT '");
     1141      737
     1142      738    3       CASE(SYM_TYPE_ACT);
     1143      739
     1144      740              %OUT_STR(S="'A   '");
     1145      743
     1146      744    3     END;
     1147      745
     1148      746    2     CALL OUT_SYMBOL(SYM_PTRS(I));
     1149      747    2     IF LINELEN < 30 THEN
     1150      748    2       CALL OUT_STR('                    ', 30-LINELEN);
     1151      749
     1152      750    2     TPTR = SXRL(I);
     1153      751
     1154      752    3     DO WHILE TPTR ~= ADDR(NIL);
     1155      753
     1156      754            %OUT_STR(S="' '");
     1157      757    3       CALL OUT_DEC(TPTR -> XREF.P + 1);
     1158      758    3       TPTR = TPTR -> XREF.LINK;
     1159      759
     1160      760    3     END;
     1161      761
     1162      762    2     CALL FLUSH;
     1163      763    2   END;
     1164      764
     1165      765        /* RETURN MEMORY USED */
     1166      766
     1167      767    2   DO I = 1 TO LAST_NULL;
     1168      768
     1169      769    3     DO WHILE SXRL(I) ~= ADDR(NIL);
     1170      770    3       TPTR = SXRL(I) -> XREF.LINK;
     1171      771    3       CALL COLLECT_GARBAGE(SXRL(I));
PL6.E3A0      #003=OUTPUT_XREF File=LR_TABLE.:Z8A6TSI                            SAT 08/09/97 09:39 Page:191
     1172      772    3       SXRL(I) = TPTR;
     1173      773    3     END;
     1174      774
     1175      775    2   END;
     1176      776
     1177      777
     1178      778    1   END OUTPUT_XREF;
     1179      779        %EOD;

PL6.E3A0      #003=OUTPUT_XREF File=LR_TABLE.:Z8A6TSI                            SAT 08/09/97 09:39 Page:192
--  Include file information  --

   LR_IO_EXT.:Z8A6TOU  cannot be made into a system file and is referenced.
   LR_GRAM_EXT.:Z8A6TOU  cannot be made into a system file and is referenced.
      No diagnostics issued in procedure OUTPUT_XREF.

   Procedure OUTPUT_XREF requires 397 words for executable code.
   Procedure OUTPUT_XREF requires 2826 words of local(AUTO) storage.

PL6.E3A0      #003=OUTPUT_XREF File=LR_TABLE.:Z8A6TSI                            SAT 08/09/97 09:39 Page:193

 Object Unit name= OUTPUT_XREF                                File name= LR_TABLE.:Z8A6TOU
 UTS= AUG 09 '97 09:39:04.76 SAT                              Compiler= PL-6/E31         Sev=      00
 SharedLib= :SHARED_SYSTEM                                    Alt SharedLib=


    ****  Control sections  ****

 Sect   Type Bound  Init  Size OctSiz  Section name(segment info)
    0  LblCom even  none     1      1  OUT_DCBN
    1   DCB   even  none     0      0  M$OU
    2   DCB   even  none     0      0  M$SO
    3   DCB   even  none     0      0  M$LO
    4   DCB   even  none     0      0  M$SI
    5   DCB   even  none     0      0  M$UI
    6  LblCom even  none  1401   2571  SYM_PTRS
    7  LblCom even  none  4001   7641  RIGHT_PARTS
    8  LblCom even  none  3002   5672  PROD
    9  LblCom even  none     1      1  NR_PROD
   10  LblCom even  none     1      1  NR_SYMS
   11  LblCom even  none     1      1  NR_TERM
   12  LblCom even  none     1      1  LAST_ACT
   13  LblCom even  none     1      1  LAST_NULL
   14  LblCom even  none     1      1  NR_ONRIGHT
   15  LblCom even  none     1      1  NR_NT
   16  LblCom even  none     1      1  PROD_LEN_MAX_EVER
   17  LblCom even  none     1      1  LAST_ORDER_SPECIFIED
   18  LblCom even  none     1      1  SEMANTIC_ORDERING
   19  LblCom even  none     1      1  ERR_SEV
   20  LblCom even  none     1      1  SET_LENGTHB
   21  LblCom even  none     1      1  SET_LENGTHW
   22  LblCom even  none     1      1  EOF_SYMBOL_PTR
   23  LblCom even  none     1      1  ERROR_SYMBOL_PTR
   24  LblCom even  none     1      1  BOF_SYMBOL_PTR
   25  LblCom even  none     1      1  OPTIONS
   26  LblCom even  none    26     32  OPTIONS_TEXT
   27  LblCom even  none   128    200  INSTR
   28  LblCom even  none     1      1  INSTR_LISTED
PL6.E3A0      #003=OUTPUT_XREF File=LR_TABLE.:Z8A6TSI                            SAT 08/09/97 09:39 Page:194
   29  LblCom even  none     1      1  INSTR_LEN
   30  LblCom even  none     1      1  INSTR_INDX
   31  LblCom even  none     1      1  EOF_FLAG
   32  LblCom even  none     3      3  KEY_REC
   33  LblCom even  none    28     34  LINE
   34  LblCom even  none     1      1  LINELEN
   35  LblCom even  none   205    315  TSTATS
   36  RoData even  UTS     41     51  OUTPUT_XREF
   37   Proc  even  none   397    615  OUTPUT_XREF
   38  RoData even  none    30     36  OUTPUT_XREF

    ****  Entry defs  ****

                              Check   Calling
                             calling  sequence
  Sect OctLoc Primary Altret sequence   type   Parms  Name
    37      0   yes            yes      Std        0  OUTPUT_XREF

  ****  Entry refs  ****

         Check        Calling
        calling       sequence
Altret sequence SRef   type   Args  Name
         yes           Std       2 OUT_STR
         yes           Std       0 FLUSH
         yes           Std       1 OUT_SYMBOL
         yes           Std       1 OUT_DEC
         yes           Std       1 COLLECT_GARBAGE
         yes           Std       2 GET_STRING_MEM
                       nStd      0 X66_AUTO_0
                       nStd      0 X66_ARET
PL6.E3A0      #003=OUTPUT_XREF File=LR_TABLE.:Z8A6TSI                            SAT 08/09/97 09:39 Page:195

  ****  Data refs  ****

  Flags:  r = read only, s = secondary
Flgs Name                             Flgs Name                             Flgs Name
     M$OU                                  M$SO                                  M$LO
     M$SI                                  M$UI

  ****  Segment refs  ****

  Flags:  r = read only, s = secondary
Flgs Name                             Flgs Name                             Flgs Name
     NULLSID                               ISSID
PL6.E3A0      #003=OUTPUT_XREF File=LR_TABLE.:Z8A6TSI                            SAT 08/09/97 09:39 Page:196


      991        1        /*T***********************************************************/
      992        2        /*T*                                                         */
      993        3        /*T* Copyright (c) Bull HN Information Systems Inc., 1997    */
      994        4        /*T*                                                         */
      995        5        /*T***********************************************************/
      996        6        OUTPUT_XREF : PROC;

      6 37 000000   000000 700200 xent  OUTPUT_XREF  TSX0  ! X66_AUTO_0
        37 000001   005412 000000                    ZERO    2826,0
        37 000002   000051 710000 37                 TRA     s:610

      997        7
      998        8        /*D*
      999        9               NAME: OUTPUT_XREF
     1000       10            PURPOSE:
     1001       11
     1002       12           This module should produce a cross reference of all symbols,
     1003       13           their values, and their references.
     1004       14        */
     1005       15
     1006       16    1   DCL OUT_STR ENTRY(2);
     1007       17    1   DCL FLUSH   ENTRY;
     1008       18    1   DCL OUT_DEC ENTRY(1);
     1009       19    1   DCL COLLECT_GARBAGE ENTRY(1);
     1010       20    1   DCL OUT_SYMBOL ENTRY(1);
     1011       21    1   DCL OUT_SYMBOL_TOKEN ENTRY(1);
     1012       22
     1013       23        %INCLUDE LR_GRAM_EXT;
     1014      562
     1015      563    1   DCL I SBIN WORD;
     1016      564    1   DCL J SBIN WORD;
     1017      565    1   DCL K SBIN WORD;
     1018      566    1   DCL C1 CHAR(C1_LEN) BASED(C1$);
     1019      567    1   DCL C1_LEN SBIN WORD;
     1020      568    1   DCL C1$ PTR;
     1021      569    1   DCL C2 CHAR(C2_LEN) BASED(C2$);
PL6.E3A0      #003=OUTPUT_XREF File=LR_TABLE.:Z8A6TSI                            SAT 08/09/97 09:39 Page:197
     1022      570    1   DCL C2_LEN SBIN WORD;
     1023      571    1   DCL C2$ PTR;
     1024      572    1   DCL SXREF(0:%NR_SYMS_MAX) SBIN WORD;
     1025      573    1   DCL R SBIN WORD;
     1026      574    1   DCL P SBIN WORD;
     1027      575    1   DCL S SBIN WORD;
     1028      576    1   DCL SXRL(0:%NR_SYMS_MAX) PTR;
     1029      577    1   DCL TPTR PTR;
     1030      578
     1031      579    1   DCL 1 XREF ALIGNED BASED,
     1032      580    1         2 LEN_IN_H UBIN HALF HALIGNED,
     1033      581    1         2 P UBIN HALF HALIGNED,
     1034      582    1        2 LINK PTR ALIGNED;
     1035      583
     1036      584
     1037      585    1    ADD_REF: PROC (S,P);

    585 37 000003   205400 741300       ADD_REF      STX1  ! TPTR+1,,AUTO

     1038      586
     1039      587        /* ADD FACT THAT SYMBOL S WAS REFERENCED IN PRODUCTION P
     1040      588        */
     1041      589
     1042      590    2   DCL GET_STRING_MEM ENTRY(2);
     1043      591
     1044      592    2   DCL S SBIN WORD;
     1045      593    2   DCL P SBIN WORD;
     1046      594
     1047      595    2   IF SXRL(S) ~= ADDR(NIL) THEN

    595 37 000004   205401 470500                    LDP0    @S,,AUTO
        37 000005   000000 235100                    LDA     0,,PR0
        37 000006   202606 236105                    LDQ     SXRL,AL,AUTO
        37 000007   000000 116000 38                 CMPQ    0
        37 000010   000021 600000 37                 TZE     s:599

     1048      596    2     IF SXRL(S) -> XREF.P = P THEN
PL6.E3A0      #003=OUTPUT_XREF File=LR_TABLE.:Z8A6TSI                            SAT 08/09/97 09:39 Page:198

    596 37 000011   000000 235100                    LDA     0,,PR0
        37 000012   202606 471505                    LDP1    SXRL,AL,AUTO
        37 000013   205402 473500                    LDP3    @P,,AUTO
        37 000014   100000 236100                    LDQ     0,,PR1
        37 000015   777777 376007                    ANQ     -1,DL
        37 000016   300000 116100                    CMPQ    0,,PR3
        37 000017   000021 601000 37                 TNZ     s:599

     1049      597    2       RETURN;

    597 37 000020   000001 702211                    TSX2  ! 1,X1

     1050      598
     1051      599    2   TPTR = SXRL(S);

    599 37 000021   000000 235100                    LDA     0,,PR0
        37 000022   202606 236105                    LDQ     SXRL,AL,AUTO
        37 000023   205377 756100                    STQ     TPTR,,AUTO

     1052      600    2   CALL GET_STRING_MEM(SXRL(S), LENGTHC(XREF) / 2 - 1);

    600 37 000024   000000 235100                    LDA     0,,PR0
        37 000025   000003 236000 38                 LDQ     3
        37 000026   205405 756100                    STQ     @P+3,,AUTO
        37 000027   202606 631505                    EPPR1   SXRL,AL,AUTO
        37 000030   205404 451500                    STP1    @P+2,,AUTO
        37 000031   205404 630500                    EPPR0   @P+2,,AUTO
        37 000032   000001 631400 38                 EPPR1   1
        37 000033   000000 701000 xent               TSX1    GET_STRING_MEM
        37 000034   000000 011000                    NOP     0

     1053      601    2   SXRL(S) -> XREF.LINK = TPTR;

    601 37 000035   205401 470500                    LDP0    @S,,AUTO
        37 000036   000000 235100                    LDA     0,,PR0
        37 000037   202606 471505                    LDP1    SXRL,AL,AUTO
PL6.E3A0      #003=OUTPUT_XREF File=LR_TABLE.:Z8A6TSI                            SAT 08/09/97 09:39 Page:199
        37 000040   205377 236100                    LDQ     TPTR,,AUTO
        37 000041   100001 756100                    STQ     1,,PR1

     1054      602    2   SXRL(S) -> XREF.P = P;

    602 37 000042   000000 235100                    LDA     0,,PR0
        37 000043   202606 471505                    LDP1    SXRL,AL,AUTO
        37 000044   205402 473500                    LDP3    @P,,AUTO
        37 000045   300000 720100                    LXL0    0,,PR3
        37 000046   100000 440100                    SXL0    0,,PR1

     1055      603
     1056      604    2   END ADD_REF;

    604 37 000047   205400 221300                    LDX1  ! TPTR+1,,AUTO
        37 000050   000001 702211                    TSX2  ! 1,X1

     1057      605
     1058      606
     1059      607
     1060      608
     1061      609        %SELECT_LO;

    610 37 000051   000000 236007 xsym               LDQ     M$LO,DL
        37 000052   000000 756000 0                  STQ     OUT_DCBN

     1062      612
     1063      613        %OUTLINE(S="' '");

    615 37 000053   000006 630400 38                 EPPR0   6
        37 000054   000001 631400 38                 EPPR1   1
        37 000055   000000 701000 xent               TSX1    OUT_STR
        37 000056   000000 011000                    NOP     0

    616 37 000057   000010 631400 38                 EPPR1   8
        37 000060   000000 701000 xent               TSX1    FLUSH
        37 000061   000000 011000                    NOP     0
PL6.E3A0      #003=OUTPUT_XREF File=LR_TABLE.:Z8A6TSI                            SAT 08/09/97 09:39 Page:200

     1064      619        %OUTLINE(S="' '");

    621 37 000062   000006 630400 38                 EPPR0   6
        37 000063   000001 631400 38                 EPPR1   1
        37 000064   000000 701000 xent               TSX1    OUT_STR
        37 000065   000000 011000                    NOP     0

    622 37 000066   000010 631400 38                 EPPR1   8
        37 000067   000000 701000 xent               TSX1    FLUSH
        37 000070   000000 011000                    NOP     0

     1065      625        %OUTLINE(S="'======================'");

    627 37 000071   000012 630400 38                 EPPR0   10
        37 000072   000001 631400 38                 EPPR1   1
        37 000073   000000 701000 xent               TSX1    OUT_STR
        37 000074   000000 011000                    NOP     0

    628 37 000075   000010 631400 38                 EPPR1   8
        37 000076   000000 701000 xent               TSX1    FLUSH
        37 000077   000000 011000                    NOP     0

     1066      631        %OUTLINE(S="'SYMBOL CROSS REFERENCE'");

    633 37 000100   000014 630400 38                 EPPR0   12
        37 000101   000001 631400 38                 EPPR1   1
        37 000102   000000 701000 xent               TSX1    OUT_STR
        37 000103   000000 011000                    NOP     0

    634 37 000104   000010 631400 38                 EPPR1   8
        37 000105   000000 701000 xent               TSX1    FLUSH
        37 000106   000000 011000                    NOP     0

     1067      637        %OUTLINE(S="'======================'");

    639 37 000107   000012 630400 38                 EPPR0   10
PL6.E3A0      #003=OUTPUT_XREF File=LR_TABLE.:Z8A6TSI                            SAT 08/09/97 09:39 Page:201
        37 000110   000001 631400 38                 EPPR1   1
        37 000111   000000 701000 xent               TSX1    OUT_STR
        37 000112   000000 011000                    NOP     0

    640 37 000113   000010 631400 38                 EPPR1   8
        37 000114   000000 701000 xent               TSX1    FLUSH
        37 000115   000000 011000                    NOP     0

     1068      643        %OUTLINE(S="' '");

    645 37 000116   000006 630400 38                 EPPR0   6
        37 000117   000001 631400 38                 EPPR1   1
        37 000120   000000 701000 xent               TSX1    OUT_STR
        37 000121   000000 011000                    NOP     0

    646 37 000122   000010 631400 38                 EPPR1   8
        37 000123   000000 701000 xent               TSX1    FLUSH
        37 000124   000000 011000                    NOP     0

     1069      649        %OUTLINE(S=
               649          "'Value Type Symbol            References(by grammar listing production number)'"
               649            );

    651 37 000125   000017 630400 38                 EPPR0   15
        37 000126   000001 631400 38                 EPPR1   1
        37 000127   000000 701000 xent               TSX1    OUT_STR
        37 000130   000000 011000                    NOP     0

    652 37 000131   000010 631400 38                 EPPR1   8
        37 000132   000000 701000 xent               TSX1    FLUSH
        37 000133   000000 011000                    NOP     0

     1070      655        %OUTLINE(S="' '");

    657 37 000134   000006 630400 38                 EPPR0   6
        37 000135   000001 631400 38                 EPPR1   1
        37 000136   000000 701000 xent               TSX1    OUT_STR
PL6.E3A0      #003=OUTPUT_XREF File=LR_TABLE.:Z8A6TSI                            SAT 08/09/97 09:39 Page:202
        37 000137   000000 011000                    NOP     0

    658 37 000140   000010 631400 38                 EPPR1   8
        37 000141   000000 701000 xent               TSX1    FLUSH
        37 000142   000000 011000                    NOP     0

     1071      661
     1072      662        /* GENERATE XREF LIST */
     1073      663
     1074      664    2   DO I = 1 TO LAST_NULL;

    664 37 000143   000001 235007                    LDA     1,DL
        37 000144   200003 755100                    STA     I,,AUTO
        37 000145   000152 710000 37                 TRA     s:666+1

     1075      665    2     SXRL(I) = ADDR(NIL);

    665 37 000146   000000 236000 38                 LDQ     0
        37 000147   200003 720100                    LXL0    I,,AUTO
        37 000150   202606 756110                    STQ     SXRL,X0,AUTO

     1076      666    2   END;

    666 37 000151   200003 054100                    AOS     I,,AUTO
        37 000152   200003 236100                    LDQ     I,,AUTO
        37 000153   000000 116000 13                 CMPQ    LAST_NULL
        37 000154   000146 604400 37                 TMOZ    s:665

     1077      667
     1078      668    2   DO P = NR_PROD - 1 DOWNTO 0;

    668 37 000155   000000 235000 9                  LDA     NR_PROD
        37 000156   000001 135007                    SBLA    1,DL
        37 000157   202604 755100                    STA     P,,AUTO
        37 000160   000266 710000 37                 TRA     s:683+2

     1079      669    3     DO R = PROD.RIGHT_START(P) TO PROD.RIGHT_START(P) + PROD.RIGHT_CNT(P) - 1;
PL6.E3A0      #003=OUTPUT_XREF File=LR_TABLE.:Z8A6TSI                            SAT 08/09/97 09:39 Page:203

    669 37 000161   202604 235100                    LDA     P,,AUTO
        37 000162   000001 735000                    ALS     1
        37 000163   000001 236005 8                  LDQ     PROD+1,AL
        37 000164   000022 736000                    QLS     18
        37 000165   000022 732000                    QRS     18
        37 000166   202603 756100                    STQ     R,,AUTO
        37 000167   000207 710000 37                 TRA     s:674+1

     1080      670
     1081      671    3       S = RIGHT_PARTS(R);

    671 37 000170   202603 235100                    LDA     R,,AUTO
        37 000171   000001 735000                    ALS     1
        37 000172   000100 100405                    MLR     fill='000'O
        37 000173   000000 000002 7                  ADSC9   RIGHT_PARTS,A            cn=0,n=2
        37 000174   205404 000004                    ADSC9   @P+2,,AUTO               cn=0,n=4
        37 000175   205404 236100                    LDQ     @P+2,,AUTO
        37 000176   000022 732000                    QRS     18
        37 000177   202605 756100                    STQ     S,,AUTO

     1082      672    3       CALL ADD_REF(S,P);

    672 37 000200   202604 630500                    EPPR0   P,,AUTO
        37 000201   205402 450500                    STP0    @S+1,,AUTO
        37 000202   202605 631500                    EPPR1   S,,AUTO
        37 000203   205401 451500                    STP1    TPTR+2,,AUTO
        37 000204   000003 701000 37                 TSX1    ADD_REF
        37 000205   000000 011000                    NOP     0

     1083      673
     1084      674    3     END;

    674 37 000206   202603 054100                    AOS     R,,AUTO
        37 000207   202604 235100                    LDA     P,,AUTO
        37 000210   000001 735000                    ALS     1
        37 000211   000001 236005 8                  LDQ     PROD+1,AL
PL6.E3A0      #003=OUTPUT_XREF File=LR_TABLE.:Z8A6TSI                            SAT 08/09/97 09:39 Page:204
        37 000212   000022 732000                    QRS     18
        37 000213   205404 756100                    STQ     @P+2,,AUTO
        37 000214   000001 236005 8                  LDQ     PROD+1,AL
        37 000215   000022 736000                    QLS     18
        37 000216   000022 732000                    QRS     18
        37 000217   205404 036100                    ADLQ    @P+2,,AUTO
        37 000220   202603 116100                    CMPQ    R,,AUTO
        37 000221   000170 605400 37                 TPNZ    s:671

     1085      675
     1086      676    2     CALL ADD_REF(BINBIT(PROD.GOAL_SYM_INDX(P), 36), P);

    676 37 000222   000000 236005 8                  LDQ     PROD,AL
        37 000223   000022 732000                    QRS     18
        37 000224   205410 756100                    STQ     @P+6,,AUTO
        37 000225   202604 630500                    EPPR0   P,,AUTO
        37 000226   205402 450500                    STP0    @S+1,,AUTO
        37 000227   205410 631500                    EPPR1   @P+6,,AUTO
        37 000230   205401 451500                    STP1    TPTR+2,,AUTO
        37 000231   000003 701000 37                 TSX1    ADD_REF
        37 000232   000000 011000                    NOP     0

     1087      677
     1088      678    2     IF PROD.TRAILING_SEM_ACT(P) THEN

    678 37 000233   202604 235100                    LDA     P,,AUTO
        37 000234   000001 735000                    ALS     1
        37 000235   000000 236005 8                  LDQ     PROD,AL
        37 000236   400000 316007                    CANQ    -131072,DL
        37 000237   000264 600000 37                 TZE     s:683

     1089      679    3       DO;

     1090      680    3         S = RIGHT_PARTS(PROD.RIGHT_START(P) + PROD.RIGHT_CNT(P));

    680 37 000240   000001 236005 8                  LDQ     PROD+1,AL
        37 000241   000022 732000                    QRS     18
PL6.E3A0      #003=OUTPUT_XREF File=LR_TABLE.:Z8A6TSI                            SAT 08/09/97 09:39 Page:205
        37 000242   205404 756100                    STQ     @P+2,,AUTO
        37 000243   000001 236005 8                  LDQ     PROD+1,AL
        37 000244   000022 736000                    QLS     18
        37 000245   000022 732000                    QRS     18
        37 000246   205404 036100                    ADLQ    @P+2,,AUTO
        37 000247   000001 736000                    QLS     1
        37 000250   000100 100406                    MLR     fill='000'O
        37 000251   000000 000002 7                  ADSC9   RIGHT_PARTS,Q            cn=0,n=2
        37 000252   205405 000004                    ADSC9   @P+3,,AUTO               cn=0,n=4
        37 000253   205405 236100                    LDQ     @P+3,,AUTO
        37 000254   000022 732000                    QRS     18
        37 000255   202605 756100                    STQ     S,,AUTO

     1091      681    3         CALL ADD_REF(S,P);

    681 37 000256   202604 630500                    EPPR0   P,,AUTO
        37 000257   205402 450500                    STP0    @S+1,,AUTO
        37 000260   202605 631500                    EPPR1   S,,AUTO
        37 000261   205401 451500                    STP1    TPTR+2,,AUTO
        37 000262   000003 701000 37                 TSX1    ADD_REF
        37 000263   000000 011000                    NOP     0

     1092      682    3       END;

     1093      683    2   END;

    683 37 000264   000001 336007                    LCQ     1,DL
        37 000265   202604 056100                    ASQ     P,,AUTO
        37 000266   202604 235100                    LDA     P,,AUTO
        37 000267   000161 605000 37                 TPL     s:669

     1094      684
     1095      685        /* SORT SYMBOLS ALPHABETICALLY */
     1096      686    2   DO I = 1 TO LAST_NULL;

    686 37 000270   000001 236007                    LDQ     1,DL
        37 000271   200003 756100                    STQ     I,,AUTO
PL6.E3A0      #003=OUTPUT_XREF File=LR_TABLE.:Z8A6TSI                            SAT 08/09/97 09:39 Page:206
        37 000272   000277 710000 37                 TRA     s:688+1

     1097      687    2     SXREF(I) = I;

    687 37 000273   200003 720100                    LXL0    I,,AUTO
        37 000274   200003 235100                    LDA     I,,AUTO
        37 000275   200012 755110                    STA     SXREF,X0,AUTO

     1098      688    2   END;

    688 37 000276   200003 054100                    AOS     I,,AUTO
        37 000277   200003 236100                    LDQ     I,,AUTO
        37 000300   000000 116000 13                 CMPQ    LAST_NULL
        37 000301   000273 604400 37                 TMOZ    s:687

     1099      689
     1100      690        /* BUBBLE SORT */
     1101      691    2   DO J = 1 TO LAST_NULL - 2;

    691 37 000302   000001 235007                    LDA     1,DL
        37 000303   200004 755100                    STA     J,,AUTO
        37 000304   000371 710000 37                 TRA     s:707+1

     1102      692    3     DO I = 1 TO LAST_NULL - J;

    692 37 000305   000001 235007                    LDA     1,DL
        37 000306   200003 755100                    STA     I,,AUTO
        37 000307   000364 710000 37                 TRA     s:706+1

     1103      693    3       C1_LEN = SYM_PTRS(SXREF(I)) -> SYMBOL.SYMLEN;

    693 37 000310   200003 720100                    LXL0    I,,AUTO
        37 000311   200012 721110                    LXL1    SXREF,X0,AUTO
        37 000312   000000 470411 6                  LDP0    SYM_PTRS,X1
        37 000313   000010 235100                    LDA     8,,PR0
        37 000314   200006 755100                    STA     C1_LEN,,AUTO

PL6.E3A0      #003=OUTPUT_XREF File=LR_TABLE.:Z8A6TSI                            SAT 08/09/97 09:39 Page:207
     1104      694    3       C1$ = ADDR(SYM_PTRS(SXREF(I)) -> SYMBOL.TEXTCHR);

    694 37 000315   200012 721110                    LXL1    SXREF,X0,AUTO
        37 000316   000000 470411 6                  LDP0    SYM_PTRS,X1
        37 000317   000011 631500                    EPPR1   9,,PR0
        37 000320   200007 451500                    STP1    C1$,,AUTO

     1105      695    3       C2_LEN = SYM_PTRS(SXREF(I + 1)) -> SYMBOL.SYMLEN;

    695 37 000321   200013 721110                    LXL1    SXREF+1,X0,AUTO
        37 000322   000000 470411 6                  LDP0    SYM_PTRS,X1
        37 000323   000010 235100                    LDA     8,,PR0
        37 000324   200010 755100                    STA     C2_LEN,,AUTO

     1106      696    3       C2$ = ADDR(SYM_PTRS(SXREF(I + 1)) -> SYMBOL.TEXTCHR);

    696 37 000325   200013 721110                    LXL1    SXREF+1,X0,AUTO
        37 000326   000000 470411 6                  LDP0    SYM_PTRS,X1
        37 000327   000011 633500                    EPPR3   9,,PR0
        37 000330   200011 453500                    STP3    C2$,,AUTO

     1107      697    3       IF (SYM_PTRS(SXREF(I+1)) -> SYMBOL.SYM_TYPE < SYM_PTRS(SXREF(I)) -> SYMBOL.
               697                SYM_TYPE)

    697 37 000331   200013 721110                    LXL1    SXREF+1,X0,AUTO
        37 000332   000000 470411 6                  LDP0    SYM_PTRS,X1
        37 000333   200012 721110                    LXL1    SXREF,X0,AUTO
        37 000334   000000 474411 6                  LDP4    SYM_PTRS,X1
        37 000335   000002 236100                    LDQ     2,,PR0
        37 000336   400002 116100                    CMPQ    2,,PR4
        37 000337   000355 604000 37                 TMI     s:702
        37 000340   200013 721110                    LXL1    SXREF+1,X0,AUTO
        37 000341   000000 470411 6                  LDP0    SYM_PTRS,X1
        37 000342   200012 721110                    LXL1    SXREF,X0,AUTO
        37 000343   000000 474411 6                  LDP4    SYM_PTRS,X1
        37 000344   000002 236100                    LDQ     2,,PR0
        37 000345   400002 116100                    CMPQ    2,,PR4
PL6.E3A0      #003=OUTPUT_XREF File=LR_TABLE.:Z8A6TSI                            SAT 08/09/97 09:39 Page:208
        37 000346   000363 601000 37                 TNZ     s:706
        37 000347   000000 621005                    EAX1    0,AL
        37 000350   200006 722100                    LXL2    C1_LEN,,AUTO
        37 000351   040140 106540                    CMPC    fill='040'O
        37 000352   300000 000011                    ADSC9   0,,PR3                   cn=0,n=*X1
        37 000353   100000 000012                    ADSC9   0,,PR1                   cn=0,n=*X2
        37 000354   000363 603000 37                 TRC     s:706

     1108      698    3             OR
     1109      699    3          ((SYM_PTRS(SXREF(I+1)) -> SYMBOL.SYM_TYPE = SYM_PTRS(SXREF(I)) -> SYMBOL.
               699                   SYM_TYPE)
     1110      700    3                    AND (C1 > C2)) THEN
     1111      701    4         DO;

     1112      702    4           K = SXREF(I);

    702 37 000355   200012 235110                    LDA     SXREF,X0,AUTO
        37 000356   200005 755100                    STA     K,,AUTO

     1113      703    4           SXREF(I) = SXREF(I+1);

    703 37 000357   200013 235110                    LDA     SXREF+1,X0,AUTO
        37 000360   200012 755110                    STA     SXREF,X0,AUTO

     1114      704    4           SXREF(I+1) = K;

    704 37 000361   200005 236100                    LDQ     K,,AUTO
        37 000362   200013 756110                    STQ     SXREF+1,X0,AUTO

     1115      705    4         END;

     1116      706    3     END;

    706 37 000363   200003 054100                    AOS     I,,AUTO
        37 000364   000000 236000 13                 LDQ     LAST_NULL
        37 000365   200004 136100                    SBLQ    J,,AUTO
        37 000366   200003 116100                    CMPQ    I,,AUTO
PL6.E3A0      #003=OUTPUT_XREF File=LR_TABLE.:Z8A6TSI                            SAT 08/09/97 09:39 Page:209
        37 000367   000310 605000 37                 TPL     s:693

     1117      707    2   END;

    707 37 000370   200004 054100                    AOS     J,,AUTO
        37 000371   000000 236000 13                 LDQ     LAST_NULL
        37 000372   000002 136007                    SBLQ    2,DL
        37 000373   200004 116100                    CMPQ    J,,AUTO
        37 000374   000305 605000 37                 TPL     s:692

     1118      708
     1119      709
     1120      710    2   DO J =  1 TO LAST_NULL;

    710 37 000375   000001 235007                    LDA     1,DL
        37 000376   200004 755100                    STA     J,,AUTO
        37 000377   000560 710000 37                 TRA     s:763+1

     1121      711    2     I = SXREF(J);

    711 37 000400   200004 720100                    LXL0    J,,AUTO
        37 000401   200012 235110                    LDA     SXREF,X0,AUTO
        37 000402   200003 755100                    STA     I,,AUTO

     1122      712
     1123      713    2     IF I > NR_TERM THEN

    713 37 000403   200003 236100                    LDQ     I,,AUTO
        37 000404   000000 116000 11                 CMPQ    NR_TERM
        37 000405   000417 604400 37                 TMOZ    s:716

     1124      714    2       CALL OUT_DEC(I - NR_TERM);

    714 37 000406   000000 136000 11                 SBLQ    NR_TERM
        37 000407   205404 756100                    STQ     @P+2,,AUTO
        37 000410   205404 630500                    EPPR0   @P+2,,AUTO
        37 000411   205405 450500                    STP0    @P+3,,AUTO
PL6.E3A0      #003=OUTPUT_XREF File=LR_TABLE.:Z8A6TSI                            SAT 08/09/97 09:39 Page:210
        37 000412   205405 630500                    EPPR0   @P+3,,AUTO
        37 000413   000021 631400 38                 EPPR1   17
        37 000414   000000 701000 xent               TSX1    OUT_DEC
        37 000415   000000 011000                    NOP     0
        37 000416   000425 710000 37                 TRA     s:717

     1125      715    2     ELSE
     1126      716    2       CALL OUT_DEC(I);

    716 37 000417   200003 630500                    EPPR0   I,,AUTO
        37 000420   205404 450500                    STP0    @P+2,,AUTO
        37 000421   205404 630500                    EPPR0   @P+2,,AUTO
        37 000422   000021 631400 38                 EPPR1   17
        37 000423   000000 701000 xent               TSX1    OUT_DEC
        37 000424   000000 011000                    NOP     0

     1127      717    2     CALL OUT_STR('        ', 7-LINELEN);

    717 37 000425   000007 235007                    LDA     7,DL
        37 000426   000000 135000 34                 SBLA    LINELEN
        37 000427   205404 755100                    STA     @P+2,,AUTO
        37 000430   205404 630500                    EPPR0   @P+2,,AUTO
        37 000431   205407 450500                    STP0    @P+5,,AUTO
        37 000432   000022 236000 38                 LDQ     18
        37 000433   205406 756100                    STQ     @P+4,,AUTO
        37 000434   205406 630500                    EPPR0   @P+4,,AUTO
        37 000435   000001 631400 38                 EPPR1   1
        37 000436   000000 701000 xent               TSX1    OUT_STR
        37 000437   000000 011000                    NOP     0

     1128      718
     1129      719    3     DO CASE SYM_PTRS(I) -> SYMBOL.SYM_TYPE;

    719 37 000440   200003 720100                    LXL0    I,,AUTO
        37 000441   000000 470410 6                  LDP0    SYM_PTRS,X0
        37 000442   000002 235100                    LDA     2,,PR0
        37 000443   000003 115007                    CMPA    3,DL
PL6.E3A0      #003=OUTPUT_XREF File=LR_TABLE.:Z8A6TSI                            SAT 08/09/97 09:39 Page:211
        37 000444   000446 602005 37                 TNC     s:719+6,AL
        37 000445   000477 710000 37                 TRA     s:746
        37 000446   000451 710000 37                 TRA     s:724
        37 000447   000456 710000 37                 TRA     s:729
        37 000450   000473 710000 37                 TRA     s:741

     1130      720
     1131      721    3       CASE(SYM_TYPE_TERM);

     1132      722
     1133      723              %OUT_STR(S="'T   '");

    724 37 000451   000024 630400 38                 EPPR0   20
        37 000452   000001 631400 38                 EPPR1   1
        37 000453   000000 701000 xent               TSX1    OUT_STR
        37 000454   000000 011000                    NOP     0
        37 000455   000477 710000 37                 TRA     s:746

     1134      726
     1135      727    3       CASE(SYM_TYPE_NT);

     1136      728
     1137      729    3         IF I <= NR_NT THEN

    729 37 000456   200003 236100                    LDQ     I,,AUTO
        37 000457   000000 116000 15                 CMPQ    NR_NT
        37 000460   000466 605400 37                 TPNZ    s:735

     1138      730                %OUT_STR(S="'NT  '");

    731 37 000461   000026 630400 38                 EPPR0   22
        37 000462   000001 631400 38                 EPPR1   1
        37 000463   000000 701000 xent               TSX1    OUT_STR
        37 000464   000000 011000                    NOP     0
        37 000465   000477 710000 37                 TRA     s:746

     1139      733    3         ELSE
PL6.E3A0      #003=OUTPUT_XREF File=LR_TABLE.:Z8A6TSI                            SAT 08/09/97 09:39 Page:212
     1140      734                %OUT_STR(S="'NNT '");

    735 37 000466   000030 630400 38                 EPPR0   24
        37 000467   000001 631400 38                 EPPR1   1
        37 000470   000000 701000 xent               TSX1    OUT_STR
        37 000471   000000 011000                    NOP     0
        37 000472   000477 710000 37                 TRA     s:746

     1141      737
     1142      738    3       CASE(SYM_TYPE_ACT);

     1143      739
     1144      740              %OUT_STR(S="'A   '");

    741 37 000473   000032 630400 38                 EPPR0   26
        37 000474   000001 631400 38                 EPPR1   1
        37 000475   000000 701000 xent               TSX1    OUT_STR
        37 000476   000000 011000                    NOP     0

     1145      743
     1146      744    3     END;

     1147      745
     1148      746    2     CALL OUT_SYMBOL(SYM_PTRS(I));

    746 37 000477   200003 720100                    LXL0    I,,AUTO
        37 000500   000000 630410 6                  EPPR0   SYM_PTRS,X0
        37 000501   205404 450500                    STP0    @P+2,,AUTO
        37 000502   205404 630500                    EPPR0   @P+2,,AUTO
        37 000503   000021 631400 38                 EPPR1   17
        37 000504   000000 701000 xent               TSX1    OUT_SYMBOL
        37 000505   000000 011000                    NOP     0

     1149      747    2     IF LINELEN < 30 THEN

    747 37 000506   000000 235000 34                 LDA     LINELEN
        37 000507   000036 115007                    CMPA    30,DL
PL6.E3A0      #003=OUTPUT_XREF File=LR_TABLE.:Z8A6TSI                            SAT 08/09/97 09:39 Page:213
        37 000510   000524 605000 37                 TPL     s:750

     1150      748    2       CALL OUT_STR('                    ', 30-LINELEN);

    748 37 000511   000034 675000 38                 ERA     28
        37 000512   000037 035007                    ADLA    31,DL
        37 000513   205404 755100                    STA     @P+2,,AUTO
        37 000514   205404 630500                    EPPR0   @P+2,,AUTO
        37 000515   205407 450500                    STP0    @P+5,,AUTO
        37 000516   000035 236000 38                 LDQ     29
        37 000517   205406 756100                    STQ     @P+4,,AUTO
        37 000520   205406 630500                    EPPR0   @P+4,,AUTO
        37 000521   000001 631400 38                 EPPR1   1
        37 000522   000000 701000 xent               TSX1    OUT_STR
        37 000523   000000 011000                    NOP     0

     1151      749
     1152      750    2     TPTR = SXRL(I);

    750 37 000524   200003 720100                    LXL0    I,,AUTO
        37 000525   202606 236110                    LDQ     SXRL,X0,AUTO
        37 000526   205377 756100                    STQ     TPTR,,AUTO

     1153      751
     1154      752    3     DO WHILE TPTR ~= ADDR(NIL);

    752 37 000527   000552 710000 37                 TRA     s:760

     1155      753
     1156      754            %OUT_STR(S="' '");

    755 37 000530   000006 630400 38                 EPPR0   6
        37 000531   000001 631400 38                 EPPR1   1
        37 000532   000000 701000 xent               TSX1    OUT_STR
        37 000533   000000 011000                    NOP     0

     1157      757    3       CALL OUT_DEC(TPTR -> XREF.P + 1);
PL6.E3A0      #003=OUTPUT_XREF File=LR_TABLE.:Z8A6TSI                            SAT 08/09/97 09:39 Page:214

    757 37 000534   205377 470500                    LDP0    TPTR,,AUTO
        37 000535   000000 236100                    LDQ     0,,PR0
        37 000536   777777 376007                    ANQ     -1,DL
        37 000537   000001 036007                    ADLQ    1,DL
        37 000540   205404 756100                    STQ     @P+2,,AUTO
        37 000541   205404 631500                    EPPR1   @P+2,,AUTO
        37 000542   205405 451500                    STP1    @P+3,,AUTO
        37 000543   205405 630500                    EPPR0   @P+3,,AUTO
        37 000544   000021 631400 38                 EPPR1   17
        37 000545   000000 701000 xent               TSX1    OUT_DEC
        37 000546   000000 011000                    NOP     0

     1158      758    3       TPTR = TPTR -> XREF.LINK;

    758 37 000547   205377 470500                    LDP0    TPTR,,AUTO
        37 000550   000001 236100                    LDQ     1,,PR0
        37 000551   205377 756100                    STQ     TPTR,,AUTO

     1159      759
     1160      760    3     END;

    760 37 000552   000000 116000 38                 CMPQ    0
        37 000553   000530 601000 37                 TNZ     s:755

     1161      761
     1162      762    2     CALL FLUSH;

    762 37 000554   000010 631400 38                 EPPR1   8
        37 000555   000000 701000 xent               TSX1    FLUSH
        37 000556   000000 011000                    NOP     0

     1163      763    2   END;

    763 37 000557   200004 054100                    AOS     J,,AUTO
        37 000560   200004 236100                    LDQ     J,,AUTO
        37 000561   000000 116000 13                 CMPQ    LAST_NULL
PL6.E3A0      #003=OUTPUT_XREF File=LR_TABLE.:Z8A6TSI                            SAT 08/09/97 09:39 Page:215
        37 000562   000400 604400 37                 TMOZ    s:711

     1164      764
     1165      765        /* RETURN MEMORY USED */
     1166      766
     1167      767    2   DO I = 1 TO LAST_NULL;

    767 37 000563   000001 235007                    LDA     1,DL
        37 000564   200003 755100                    STA     I,,AUTO
        37 000565   000611 710000 37                 TRA     s:775+1

     1168      768
     1169      769    3     DO WHILE SXRL(I) ~= ADDR(NIL);

    769 37 000566   000604 710000 37                 TRA     s:773

     1170      770    3       TPTR = SXRL(I) -> XREF.LINK;

    770 37 000567   200003 720100                    LXL0    I,,AUTO
        37 000570   202606 470510                    LDP0    SXRL,X0,AUTO
        37 000571   000001 236100                    LDQ     1,,PR0
        37 000572   205377 756100                    STQ     TPTR,,AUTO

     1171      771    3       CALL COLLECT_GARBAGE(SXRL(I));

    771 37 000573   202606 631510                    EPPR1   SXRL,X0,AUTO
        37 000574   205404 451500                    STP1    @P+2,,AUTO
        37 000575   205404 630500                    EPPR0   @P+2,,AUTO
        37 000576   000021 631400 38                 EPPR1   17
        37 000577   000000 701000 xent               TSX1    COLLECT_GARBAGE
        37 000600   000000 011000                    NOP     0

     1172      772    3       SXRL(I) = TPTR;

    772 37 000601   205377 236100                    LDQ     TPTR,,AUTO
        37 000602   200003 720100                    LXL0    I,,AUTO
        37 000603   202606 756110                    STQ     SXRL,X0,AUTO
PL6.E3A0      #003=OUTPUT_XREF File=LR_TABLE.:Z8A6TSI                            SAT 08/09/97 09:39 Page:216

     1173      773    3     END;

    773 37 000604   200003 720100                    LXL0    I,,AUTO
        37 000605   202606 236110                    LDQ     SXRL,X0,AUTO
        37 000606   000000 116000 38                 CMPQ    0
        37 000607   000567 601000 37                 TNZ     s:770

     1174      774
     1175      775    2   END;

    775 37 000610   200003 054100                    AOS     I,,AUTO
        37 000611   200003 236100                    LDQ     I,,AUTO
        37 000612   000000 116000 13                 CMPQ    LAST_NULL
        37 000613   000566 604400 37                 TMOZ    s:769

     1176      776
     1177      777
     1178      778    1   END OUTPUT_XREF;

    778 37 000614   000000 702200 xent               TSX2  ! X66_ARET
     1179      779        %EOD;

PL6.E3A0      #003=OUTPUT_XREF File=LR_TABLE.:Z8A6TSI                            SAT 08/09/97 09:39 Page:217
--  Include file information  --

   LR_IO_EXT.:Z8A6TOU  cannot be made into a system file and is referenced.
   LR_GRAM_EXT.:Z8A6TOU  cannot be made into a system file and is referenced.
      No diagnostics issued in procedure OUTPUT_XREF.
PL6.E3A0      #003=OUTPUT_XREF File=LR_TABLE.:Z8A6TSI                            SAT 08/09/97 09:39 Page:218

 **** Variables and constants ****

  ****  Section 000 LblCom OUT_DCBN

  ****  Scalars and arrays  ****
OctLoc.c.b A Datatyp(siz) R M Lvl/name                 OctLoc.c.b A Datatyp(siz) R M Lvl/name

     0-0-0/w SBIN        r     1 OUT_DCBN

  ****  Section 006 LblCom SYM_PTRS

  ****  Scalars and arrays  ****
OctLoc.c.b A Datatyp(siz) R M Lvl/name                 OctLoc.c.b A Datatyp(siz) R M Lvl/name

     0-0-0/w PTR         r     1 SYM_PTRS(0:1400)

  ****  Section 007 LblCom RIGHT_PARTS

  ****  Scalars and arrays  ****
OctLoc.c.b A Datatyp(siz) R M Lvl/name                 OctLoc.c.b A Datatyp(siz) R M Lvl/name

     0-0-0/h SBIN(18)    r     1 RIGHT_PARTS(0:8000)

  ****  Section 008 LblCom PROD

  ****  Scalars and arrays  ****
OctLoc.c.b A Datatyp(siz) R M Lvl/name                 OctLoc.c.b A Datatyp(siz) R M Lvl/name

     0-0-0/h STRC(72)    r     1 PROD(0:1500)

  ****  Section 009 LblCom NR_PROD

  ****  Scalars and arrays  ****
OctLoc.c.b A Datatyp(siz) R M Lvl/name                 OctLoc.c.b A Datatyp(siz) R M Lvl/name

     0-0-0/w SBIN        r     1 NR_PROD

PL6.E3A0      #003=OUTPUT_XREF File=LR_TABLE.:Z8A6TSI                            SAT 08/09/97 09:39 Page:219
  ****  Section 010 LblCom NR_SYMS

  ****  Scalars and arrays  ****
OctLoc.c.b A Datatyp(siz) R M Lvl/name                 OctLoc.c.b A Datatyp(siz) R M Lvl/name

     0-0-0/w SBIN              1 NR_SYMS

  ****  Section 011 LblCom NR_TERM

  ****  Scalars and arrays  ****
OctLoc.c.b A Datatyp(siz) R M Lvl/name                 OctLoc.c.b A Datatyp(siz) R M Lvl/name

     0-0-0/w SBIN        r     1 NR_TERM

  ****  Section 012 LblCom LAST_ACT

  ****  Scalars and arrays  ****
OctLoc.c.b A Datatyp(siz) R M Lvl/name                 OctLoc.c.b A Datatyp(siz) R M Lvl/name

     0-0-0/w SBIN              1 LAST_ACT

  ****  Section 013 LblCom LAST_NULL

  ****  Scalars and arrays  ****
OctLoc.c.b A Datatyp(siz) R M Lvl/name                 OctLoc.c.b A Datatyp(siz) R M Lvl/name

     0-0-0/w SBIN        r     1 LAST_NULL

  ****  Section 014 LblCom NR_ONRIGHT

  ****  Scalars and arrays  ****
OctLoc.c.b A Datatyp(siz) R M Lvl/name                 OctLoc.c.b A Datatyp(siz) R M Lvl/name

     0-0-0/w SBIN              1 NR_ONRIGHT

  ****  Section 015 LblCom NR_NT

PL6.E3A0      #003=OUTPUT_XREF File=LR_TABLE.:Z8A6TSI                            SAT 08/09/97 09:39 Page:220
  ****  Scalars and arrays  ****
OctLoc.c.b A Datatyp(siz) R M Lvl/name                 OctLoc.c.b A Datatyp(siz) R M Lvl/name

     0-0-0/w SBIN        r     1 NR_NT

  ****  Section 016 LblCom PROD_LEN_MAX_EVER

  ****  Scalars and arrays  ****
OctLoc.c.b A Datatyp(siz) R M Lvl/name                 OctLoc.c.b A Datatyp(siz) R M Lvl/name

     0-0-0/w SBIN              1 PROD_LEN_MAX_EVER

  ****  Section 017 LblCom LAST_ORDER_SPECIFIED

  ****  Scalars and arrays  ****
OctLoc.c.b A Datatyp(siz) R M Lvl/name                 OctLoc.c.b A Datatyp(siz) R M Lvl/name

     0-0-0/w SBIN              1 LAST_ORDER_SPECIFIED

  ****  Section 018 LblCom SEMANTIC_ORDERING

  ****  Scalars and arrays  ****
OctLoc.c.b A Datatyp(siz) R M Lvl/name                 OctLoc.c.b A Datatyp(siz) R M Lvl/name

     0-0-0/b BIT               1 SEMANTIC_ORDERING

  ****  Section 019 LblCom ERR_SEV

  ****  Scalars and arrays  ****
OctLoc.c.b A Datatyp(siz) R M Lvl/name                 OctLoc.c.b A Datatyp(siz) R M Lvl/name

     0-0-0/w SBIN              1 ERR_SEV

  ****  Section 020 LblCom SET_LENGTHB

  ****  Scalars and arrays  ****
OctLoc.c.b A Datatyp(siz) R M Lvl/name                 OctLoc.c.b A Datatyp(siz) R M Lvl/name
PL6.E3A0      #003=OUTPUT_XREF File=LR_TABLE.:Z8A6TSI                            SAT 08/09/97 09:39 Page:221

     0-0-0/w SBIN              1 SET_LENGTHB

  ****  Section 021 LblCom SET_LENGTHW

  ****  Scalars and arrays  ****
OctLoc.c.b A Datatyp(siz) R M Lvl/name                 OctLoc.c.b A Datatyp(siz) R M Lvl/name

     0-0-0/w SBIN              1 SET_LENGTHW

  ****  Section 022 LblCom EOF_SYMBOL_PTR

  ****  Scalars and arrays  ****
OctLoc.c.b A Datatyp(siz) R M Lvl/name                 OctLoc.c.b A Datatyp(siz) R M Lvl/name

     0-0-0/w PTR               1 EOF_SYMBOL_PTR

  ****  Section 023 LblCom ERROR_SYMBOL_PTR

  ****  Scalars and arrays  ****
OctLoc.c.b A Datatyp(siz) R M Lvl/name                 OctLoc.c.b A Datatyp(siz) R M Lvl/name

     0-0-0/w PTR               1 ERROR_SYMBOL_PTR

  ****  Section 024 LblCom BOF_SYMBOL_PTR

  ****  Scalars and arrays  ****
OctLoc.c.b A Datatyp(siz) R M Lvl/name                 OctLoc.c.b A Datatyp(siz) R M Lvl/name

     0-0-0/w PTR               1 BOF_SYMBOL_PTR

  ****  Section 025 LblCom OPTIONS

  ****  Scalars and arrays  ****
OctLoc.c.b A Datatyp(siz) R M Lvl/name                 OctLoc.c.b A Datatyp(siz) R M Lvl/name

     0-0-0/b BIT               1 OPTIONS(0:25)
PL6.E3A0      #003=OUTPUT_XREF File=LR_TABLE.:Z8A6TSI                            SAT 08/09/97 09:39 Page:222

  ****  Section 026 LblCom OPTIONS_TEXT

  ****  Scalars and arrays  ****
OctLoc.c.b A Datatyp(siz) R M Lvl/name                 OctLoc.c.b A Datatyp(siz) R M Lvl/name

     0-0-0/c CHAR(4)           1 OPTIONS_TEXT(0:25)

  ****  Section 027 LblCom INSTR

  ****  Scalars and arrays  ****
OctLoc.c.b A Datatyp(siz) R M Lvl/name                 OctLoc.c.b A Datatyp(siz) R M Lvl/name

     0-0-0/c CHAR              1 INSTR(0:511)               0-0-0/c CHAR(512)         1 INSTRCHR

  ****  Section 028 LblCom INSTR_LISTED

  ****  Scalars and arrays  ****
OctLoc.c.b A Datatyp(siz) R M Lvl/name                 OctLoc.c.b A Datatyp(siz) R M Lvl/name

     0-0-0/b BIT               1 INSTR_LISTED

  ****  Section 029 LblCom INSTR_LEN

  ****  Scalars and arrays  ****
OctLoc.c.b A Datatyp(siz) R M Lvl/name                 OctLoc.c.b A Datatyp(siz) R M Lvl/name

     0-0-0/w SBIN              1 INSTR_LEN

  ****  Section 030 LblCom INSTR_INDX

  ****  Scalars and arrays  ****
OctLoc.c.b A Datatyp(siz) R M Lvl/name                 OctLoc.c.b A Datatyp(siz) R M Lvl/name

     0-0-0/w SBIN              1 INSTR_INDX

  ****  Section 031 LblCom EOF_FLAG
PL6.E3A0      #003=OUTPUT_XREF File=LR_TABLE.:Z8A6TSI                            SAT 08/09/97 09:39 Page:223

  ****  Scalars and arrays  ****
OctLoc.c.b A Datatyp(siz) R M Lvl/name                 OctLoc.c.b A Datatyp(siz) R M Lvl/name

     0-0-0/b BIT               1 EOF_FLAG

  ****  Section 032 LblCom KEY_REC

  ****  Scalars and arrays  ****
OctLoc.c.b A Datatyp(siz) R M Lvl/name                 OctLoc.c.b A Datatyp(siz) R M Lvl/name

     0-0-0/c CHAR(10)          1 KEY_REC

  ****  Section 033 LblCom LINE

  ****  Scalars and arrays  ****
OctLoc.c.b A Datatyp(siz) R M Lvl/name                 OctLoc.c.b A Datatyp(siz) R M Lvl/name

     0-0-0/c CHAR(109)         1 LINE

  ****  Section 034 LblCom LINELEN

  ****  Scalars and arrays  ****
OctLoc.c.b A Datatyp(siz) R M Lvl/name                 OctLoc.c.b A Datatyp(siz) R M Lvl/name

     0-0-0/w SBIN        r     1 LINELEN

  ****  Section 035 LblCom TSTATS

  ****  Scalars and arrays  ****
OctLoc.c.b A Datatyp(siz) R M Lvl/name                 OctLoc.c.b A Datatyp(siz) R M Lvl/name

     0-0-0/w STRC(7380)        1 TSTATS

  ****  Auto variables  ****

  ****  Scalars and arrays  ****
PL6.E3A0      #003=OUTPUT_XREF File=LR_TABLE.:Z8A6TSI                            SAT 08/09/97 09:39 Page:224
OctLoc.c.b A Datatyp(siz) R M Lvl/name                 OctLoc.c.b A Datatyp(siz) R M Lvl/name

  5402-0-0/w PTR         r     1 @P                      5401-0-0/w PTR         r     1 @S
     7-0-0/w PTR         r     1 C1$                        6-0-0/w SBIN        r     1 C1_LEN
    11-0-0/w PTR         r     1 C2$                       10-0-0/w SBIN        r     1 C2_LEN
     3-0-0/w SBIN        r     1 I                          4-0-0/w SBIN        r     1 J
     5-0-0/w SBIN        r     1 K                       2604-0-0/w SBIN        r     1 P
    *0-0-0/w SBIN        r     1 P                       2603-0-0/w SBIN        r     1 R
  2605-0-0/w SBIN        r     1 S                         *0-0-0/w SBIN        r     1 S
    12-0-0/w SBIN        r     1 SXREF(0:1400)           2606-0-0/w PTR         r     1 SXRL(0:1400)
  5377-0-0/w PTR         r     1 TPTR

  ****  BASED and DCB variables  ****

  ****  Scalars and arrays  ****
OctLoc.c.b A Datatyp(siz) R M Lvl/name                 OctLoc.c.b A Datatyp(siz) R M Lvl/name

     0-0-0/c ACHR        r     1 C1                         0-0-0/c ACHR        r     1 C2
     0-0-0N  NULL        r     1 M$LO                       0-0-0N  NULL        r     1 M$OU
     0-0-0N  NULL        r     1 M$SI                       0-0-0N  NULL        r     1 M$SO
     0-0-0N  NULL        r     1 M$UI                       0-0-0/w STRC(351)   r     1 SYMBOL
     0-0-0/w STRC(72)    r     1 XREF


   Procedure OUTPUT_XREF requires 397 words for executable code.
   Procedure OUTPUT_XREF requires 2826 words of local(AUTO) storage.

PL6.E3A0      #004=OUTPUT_STATS File=LR_TABLE.:Z8A6TSI                           SAT 08/09/97 09:39 Page:225
     1180        1        /*T***********************************************************/
     1181        2        /*T*                                                         */
     1182        3        /*T* Copyright (c) Bull HN Information Systems Inc., 1997    */
     1183        4        /*T*                                                         */
     1184        5        /*T***********************************************************/
     1185        6        OUTPUT_STATS : PROC;
     1186        7
     1187        8        /*D*
     1188        9            NAME: OUTPUT_STATS
     1189       10         PURPOSE: Output pertinent statistics.
     1190       11        */
     1191       12
     1192       13        %INCLUDE LR_GRAM_EXT;
     1193      552        %INCLUDE LR_CNFG_EXT;
     1194      705
     1195      706    1   DCL OUT_STR ENTRY(2);
     1196      707    1   DCL OUT_DEC ENTRY(1);
     1197      708    1   DCL FLUSH ENTRY;
     1198      709
     1199      710    1   DCL I SBIN WORD;
     1200      711    1   DCL TOTNT SBIN WORD;
     1201      712    1   DCL TOTA SBIN WORD;
     1202      713    1   DCL TS SBIN WORD;
     1203      714    1   DCL VIRTUAL_PAGES SBIN WORD EXT;
     1204      715
     1205      716
     1206      717    1   ALIGN50 : PROC;
     1207      718
     1208      719    2     CALL OUT_STR('                                                 ',50-LINELEN);
     1209      720
     1210      721    2   END ALIGN50;
     1211      722
     1212      723
     1213      724        %SELECT_LO;
     1214      727
     1215      728        %OUTLINE(S="' '");
     1216      734        %OUTLINE(S="' '");
PL6.E3A0      #004=OUTPUT_STATS File=LR_TABLE.:Z8A6TSI                           SAT 08/09/97 09:39 Page:226
     1217      740        %OUTLINE(S="' '");
     1218      746        %OUTLINE(S="'=========='");
     1219      752        %OUTLINE(S="'STATISTICS'");
     1220      758        %OUTLINE(S="'=========='");
     1221      764        %OUTLINE(S="' '");
     1222      770        %OUTLINE(S="' '");
     1223      776        %OUTLINE(S="'Description                                       Value'");
     1224      782        %OUTLINE(S="' '");
     1225      788        %OUT_STR(S="'Number of productions:'");
     1226      791    1   CALL ALIGN50;
     1227      792    1   CALL OUT_DEC(NR_PROD);
     1228      793    1   CALL FLUSH;
     1229      794
     1230      795        %OUT_STR(S="'Maximum length of a production:'");
     1231      798    1   CALL ALIGN50;
     1232      799    1   CALL OUT_DEC(PROD_LEN_MAX_EVER);
     1233      800    1   CALL FLUSH;
     1234      801
     1235      802        %OUT_STR(S="'Number of terminal symbols:'");
     1236      805    1   CALL ALIGN50;
     1237      806    1   CALL OUT_DEC(NR_TERM);
     1238      807    1   CALL FLUSH;
     1239      808
     1240      809        %OUT_STR(S="'Number of non_terminal symbols:'");
     1241      812    1   CALL ALIGN50;
     1242      813
     1243      814    1   TOTNT = 0;
     1244      815    1   TOTA = 0;
     1245      816    2   DO I = 1 TO LAST_NULL;
     1246      817    3     DO CASE (SYM_PTRS(I) -> SYMBOL.SYM_TYPE);
     1247      818
     1248      819    3       CASE(SYM_TYPE_NT);
     1249      820    3         TOTNT = TOTNT + 1;
     1250      821    3       CASE(SYM_TYPE_ACT);
     1251      822    3         TOTA = TOTA + 1;
     1252      823
     1253      824    3     END;
PL6.E3A0      #004=OUTPUT_STATS File=LR_TABLE.:Z8A6TSI                           SAT 08/09/97 09:39 Page:227
     1254      825    2   END;
     1255      826
     1256      827    1   CALL OUT_DEC(TOTNT);
     1257      828    1   CALL FLUSH;
     1258      829
     1259      830        %OUT_STR(S="'Number of action symbols:'");
     1260      833    1   CALL ALIGN50;
     1261      834    1   CALL OUT_DEC(TOTA);
     1262      835    1   CALL FLUSH;
     1263      836
     1264      837        %OUT_STR(S="'Number of states:'");
     1265      840    1   CALL ALIGN50;
     1266      841    1   CALL OUT_DEC(NR_CONFIG);
     1267      842    1   CALL FLUSH;
     1268      843
     1269      844        %OUT_STR(S="'Maximum number of basis items in a state:'");
     1270      847    1   CALL ALIGN50;
     1271      848    1   CALL OUT_DEC(MAX_BASIS_ITEMS);
     1272      849    1   CALL FLUSH;
     1273      850
     1274      851        %OUT_STR(S="'Maximum number of items in a state:'");
     1275      854    1   CALL ALIGN50;
     1276      855    1   CALL OUT_DEC(MAX_TOTAL_ITEMS);
     1277      856    1   CALL FLUSH;
     1278      857
     1279      858    1   IF OPTIONS(OU_OPT) THEN
     1280      859    2     DO;
     1281      860    2       TS = ( TSTATS.GOAL.LEN * TSTATS.GOAL.NBITS
     1282      861    2               + TSTATS.PSS.LEN * TSTATS.PSS.NBITS
     1283      862    2               + TSTATS.SEM.LEN * TSTATS.SEM.NBITS
     1284      863    2               + TSTATS.ASDEF.LEN * TSTATS.ASDEF.NBITS
     1285      864    2               + TSTATS.ASBAS.LEN * TSTATS.ASBAS.NBITS
     1286      865    2               + TSTATS.ANCNXT.LEN * TSTATS.ANCNXT.NBITS
     1287      866    2               + TSTATS.ANCCHK.LEN * TSTATS.ANCCHK.NBITS
     1288      867    2               + TSTATS.GTDEF.LEN * TSTATS.GTDEF.NBITS
     1289      868    2               + TSTATS.GTBAS.LEN * TSTATS.GTBAS.NBITS
     1290      869    2               + TSTATS.GNCNXT.LEN * TSTATS.GNCNXT.NBITS
PL6.E3A0      #004=OUTPUT_STATS File=LR_TABLE.:Z8A6TSI                           SAT 08/09/97 09:39 Page:228
     1291      870    2               + TSTATS.GNCCHK.LEN * TSTATS.GNCCHK.NBITS
     1292      871    2               + 35) / 36;
     1293      872    2       IF NOT OPTIONS(DTS_OPT) THEN
     1294      873    2           TS = TS + ((
     1295      874    2              TSTATS.T_S_INDX.LEN * TSTATS.T_S_INDX.NBITS
     1296      875    2            + TSTATS.T_S_LEN.LEN * TSTATS.T_S_LEN.NBITS
     1297      876    2            + TSTATS.TS_SP.LEN * TSTATS.TS_SP.NBITS
     1298      877    2                     + 35)/36);
     1299      878            %OUT_STR(S="'Number words(approx) used in parse tables:'");
     1300      881    2       CALL ALIGN50;
     1301      882    2       CALL OUT_DEC(TS);
     1302      883    2       CALL FLUSH;
     1303      884
     1304      885    2       IF OPTIONS(ERROR_TABLE_OPT) THEN
     1305      886    3         DO;
     1306      887    3           TS = ( TSTATS.SSTATE.LEN * TSTATS.SSTATE.NBITS
     1307      888    3                + TSTATS.SITEM.LEN * TSTATS.SITEM.NBITS
     1308      889    3                + TSTATS.IINDX.LEN * TSTATS.IINDX.NBITS
     1309      890    3                + TSTATS.ILEN.LEN * TSTATS.ILEN.NBITS
     1310      891    3                + TSTATS.SI_BASIS.LEN * TSTATS.SI_BASIS.NBITS
     1311      892    3                + TSTATS.SI_CLOSURE.LEN * TSTATS.SI_CLOSURE.NBITS
     1312      893    3                + TSTATS.P_INDX.LEN * TSTATS.P_INDX.NBITS
     1313      894    3                + TSTATS.P_LEN.LEN * TSTATS.P_LEN.NBITS
     1314      895    3                + TSTATS.PATH_ELEM.LEN * TSTATS.PATH_ELEM.NBITS
     1315      896    3                + TSTATS.DEL_COST.LEN * TSTATS.DEL_COST.NBITS
     1316      897    3                + TSTATS.LCS_COST.LEN * TSTATS.LCS_COST.NBITS
     1317      898    3                + TSTATS.LCS_INDX.LEN * TSTATS.LCS_INDX.NBITS
     1318      899    3                + TSTATS.LCS_LEN.LEN * TSTATS.LCS_LEN.NBITS
     1319      900    3                + TSTATS.LCS_ELEM.LEN * TSTATS.LCS_ELEM.NBITS
     1320      901    3                + TSTATS.LCP_NT.LEN * TSTATS.LCP_NT.NBITS
     1321      902    3                + TSTATS.LCP_COST.LEN * TSTATS.LCP_COST.NBITS
     1322      903    3                + TSTATS.LCP_LEN.LEN * TSTATS.LCP_LEN.NBITS
     1323      904    3                + TSTATS.LCP_INDX.LEN * TSTATS.LCP_INDX.NBITS
     1324      905    3                + TSTATS.LCP_UBOUND.LEN * TSTATS.LCP_UBOUND.NBITS
     1325      906    3                + TSTATS.LCP_ELEM.LEN * TSTATS.LCP_ELEM.NBITS
     1326      907    3                + 35) / 36;
     1327      908                %OUT_STR(S="'Number words(approx) used for error tables:'");
PL6.E3A0      #004=OUTPUT_STATS File=LR_TABLE.:Z8A6TSI                           SAT 08/09/97 09:39 Page:229
     1328      911    3           CALL ALIGN50;
     1329      912    3           CALL OUT_DEC(TS);
     1330      913    3           CALL FLUSH;
     1331      914    3         END;
     1332      915    2     END;
     1333      916
     1334      917            %OUT_STR(S="'Number pages of virtual space used:'");
     1335      920    1       CALL ALIGN50;
     1336      921    1       CALL OUT_DEC(VIRTUAL_PAGES);
     1337      922    1       CALL FLUSH;
     1338      923
     1339      924    1   END OUTPUT_STATS;
     1340      925        %EOD;

PL6.E3A0      #004=OUTPUT_STATS File=LR_TABLE.:Z8A6TSI                           SAT 08/09/97 09:39 Page:230
--  Include file information  --

   LR_CNFG_EXT.:Z8A6TOU  cannot be made into a system file and is referenced.
   LR_IO_EXT.:Z8A6TOU  cannot be made into a system file and is referenced.
   LR_GRAM_EXT.:Z8A6TOU  cannot be made into a system file and is referenced.
      No diagnostics issued in procedure OUTPUT_STATS.

   Procedure OUTPUT_STATS requires 411 words for executable code.
   Procedure OUTPUT_STATS requires 30 words of local(AUTO) storage.

PL6.E3A0      #004=OUTPUT_STATS File=LR_TABLE.:Z8A6TSI                           SAT 08/09/97 09:39 Page:231

 Object Unit name= OUTPUT_STATS                               File name= LR_TABLE.:Z8A6TOU
 UTS= AUG 09 '97 09:39:31.44 SAT                              Compiler= PL-6/E31         Sev=      00
 SharedLib= :SHARED_SYSTEM                                    Alt SharedLib=


    ****  Control sections  ****

 Sect   Type Bound  Init  Size OctSiz  Section name(segment info)
    0  LblCom even  none     1      1  OUT_DCBN
    1   DCB   even  none     0      0  M$OU
    2   DCB   even  none     0      0  M$SO
    3   DCB   even  none     0      0  M$LO
    4   DCB   even  none     0      0  M$SI
    5   DCB   even  none     0      0  M$UI
    6  LblCom even  none  1401   2571  SYM_PTRS
    7  LblCom even  none  4001   7641  RIGHT_PARTS
    8  LblCom even  none  3002   5672  PROD
    9  LblCom even  none     1      1  NR_PROD
   10  LblCom even  none     1      1  NR_SYMS
   11  LblCom even  none     1      1  NR_TERM
   12  LblCom even  none     1      1  LAST_ACT
   13  LblCom even  none     1      1  LAST_NULL
   14  LblCom even  none     1      1  NR_ONRIGHT
   15  LblCom even  none     1      1  NR_NT
   16  LblCom even  none     1      1  PROD_LEN_MAX_EVER
   17  LblCom even  none     1      1  LAST_ORDER_SPECIFIED
   18  LblCom even  none     1      1  SEMANTIC_ORDERING
   19  LblCom even  none     1      1  ERR_SEV
   20  LblCom even  none     1      1  SET_LENGTHB
   21  LblCom even  none     1      1  SET_LENGTHW
   22  LblCom even  none     1      1  EOF_SYMBOL_PTR
   23  LblCom even  none     1      1  ERROR_SYMBOL_PTR
   24  LblCom even  none     1      1  BOF_SYMBOL_PTR
   25  LblCom even  none     1      1  OPTIONS
   26  LblCom even  none    26     32  OPTIONS_TEXT
   27  LblCom even  none   128    200  INSTR
   28  LblCom even  none     1      1  INSTR_LISTED
PL6.E3A0      #004=OUTPUT_STATS File=LR_TABLE.:Z8A6TSI                           SAT 08/09/97 09:39 Page:232
   29  LblCom even  none     1      1  INSTR_LEN
   30  LblCom even  none     1      1  INSTR_INDX
   31  LblCom even  none     1      1  EOF_FLAG
   32  LblCom even  none     3      3  KEY_REC
   33  LblCom even  none    28     34  LINE
   34  LblCom even  none     1      1  LINELEN
   35  LblCom even  none   205    315  TSTATS
   36  LblCom even  none  2201   4231  C#_TO_$
   37  LblCom even  none     1      1  NR_CONFIG
   38  LblCom even  none     1      1  INIT_CONFIG
   39  LblCom even  none     1      1  MAX_BASIS_ITEMS
   40  LblCom even  none     1      1  MAX_TOTAL_ITEMS
   41  LblCom even  none     1      1  LAST_BINSRCH_ONLY
   42  LblCom even  none     1      1  LAST_BOTH_BITBIN
   43  LblCom even  none     1      1  VIRTUAL_PAGES
   44  RoData even  UTS    125    175  OUTPUT_STATS
   45   Proc  even  none   411    633  OUTPUT_STATS
   46  RoData even  none    54     66  OUTPUT_STATS

    ****  Entry defs  ****

                              Check   Calling
                             calling  sequence
  Sect OctLoc Primary Altret sequence   type   Parms  Name
    45      0   yes            yes      Std        0  OUTPUT_STATS

  ****  Entry refs  ****

         Check        Calling
        calling       sequence
Altret sequence SRef   type   Args  Name
         yes           Std       2 OUT_STR
         yes           Std       0 FLUSH
         yes           Std       1 OUT_DEC
                       nStd      0 X66_AUTO_0
                       nStd      0 X66_ARET
PL6.E3A0      #004=OUTPUT_STATS File=LR_TABLE.:Z8A6TSI                           SAT 08/09/97 09:39 Page:233

  ****  Data refs  ****

  Flags:  r = read only, s = secondary
Flgs Name                             Flgs Name                             Flgs Name
     M$OU                                  M$SO                                  M$LO
     M$SI                                  M$UI

  ****  Segment refs  ****

  Flags:  r = read only, s = secondary
Flgs Name                             Flgs Name                             Flgs Name
     NULLSID                               ISSID
PL6.E3A0      #004=OUTPUT_STATS File=LR_TABLE.:Z8A6TSI                           SAT 08/09/97 09:39 Page:234


     1180        1        /*T***********************************************************/
     1181        2        /*T*                                                         */
     1182        3        /*T* Copyright (c) Bull HN Information Systems Inc., 1997    */
     1183        4        /*T*                                                         */
     1184        5        /*T***********************************************************/
     1185        6        OUTPUT_STATS : PROC;

      6 45 000000   000000 700200 xent  OUTPUT_STATS TSX0  ! X66_AUTO_0
        45 000001   000036 000000                    ZERO    30,0
        45 000002   000021 710000 45                 TRA     s:725

     1186        7
     1187        8        /*D*
     1188        9            NAME: OUTPUT_STATS
     1189       10         PURPOSE: Output pertinent statistics.
     1190       11        */
     1191       12
     1192       13        %INCLUDE LR_GRAM_EXT;
     1193      552        %INCLUDE LR_CNFG_EXT;
     1194      705
     1195      706    1   DCL OUT_STR ENTRY(2);
     1196      707    1   DCL OUT_DEC ENTRY(1);
     1197      708    1   DCL FLUSH ENTRY;
     1198      709
     1199      710    1   DCL I SBIN WORD;
     1200      711    1   DCL TOTNT SBIN WORD;
     1201      712    1   DCL TOTA SBIN WORD;
     1202      713    1   DCL TS SBIN WORD;
     1203      714    1   DCL VIRTUAL_PAGES SBIN WORD EXT;
     1204      715
     1205      716
     1206      717    1   ALIGN50 : PROC;

    717 45 000003   200010 741300       ALIGN50      STX1  ! TS+2,,AUTO

     1207      718
PL6.E3A0      #004=OUTPUT_STATS File=LR_TABLE.:Z8A6TSI                           SAT 08/09/97 09:39 Page:235
     1208      719    2     CALL OUT_STR('                                                 ',50-LINELEN);

    719 45 000004   000062 235007                    LDA     50,DL
        45 000005   000000 135000 34                 SBLA    LINELEN
        45 000006   200012 755100                    STA     TS+4,,AUTO
        45 000007   200012 630500                    EPPR0   TS+4,,AUTO
        45 000010   200015 450500                    STP0    TS+7,,AUTO
        45 000011   000001 236000 46                 LDQ     1
        45 000012   200014 756100                    STQ     TS+6,,AUTO
        45 000013   200014 630500                    EPPR0   TS+6,,AUTO
        45 000014   000000 631400 46                 EPPR1   0
        45 000015   000000 701000 xent               TSX1    OUT_STR
        45 000016   000000 011000                    NOP     0

     1209      720
     1210      721    2   END ALIGN50;

    721 45 000017   200010 221300                    LDX1  ! TS+2,,AUTO
        45 000020   000001 702211                    TSX2  ! 1,X1

     1211      722
     1212      723
     1213      724        %SELECT_LO;

    725 45 000021   000000 236007 xsym               LDQ     M$LO,DL
        45 000022   000000 756000 0                  STQ     OUT_DCBN

     1214      727
     1215      728        %OUTLINE(S="' '");

    730 45 000023   000004 630400 46                 EPPR0   4
        45 000024   000000 631400 46                 EPPR1   0
        45 000025   000000 701000 xent               TSX1    OUT_STR
        45 000026   000000 011000                    NOP     0

    731 45 000027   000006 631400 46                 EPPR1   6
        45 000030   000000 701000 xent               TSX1    FLUSH
PL6.E3A0      #004=OUTPUT_STATS File=LR_TABLE.:Z8A6TSI                           SAT 08/09/97 09:39 Page:236
        45 000031   000000 011000                    NOP     0

     1216      734        %OUTLINE(S="' '");

    736 45 000032   000004 630400 46                 EPPR0   4
        45 000033   000000 631400 46                 EPPR1   0
        45 000034   000000 701000 xent               TSX1    OUT_STR
        45 000035   000000 011000                    NOP     0

    737 45 000036   000006 631400 46                 EPPR1   6
        45 000037   000000 701000 xent               TSX1    FLUSH
        45 000040   000000 011000                    NOP     0

     1217      740        %OUTLINE(S="' '");

    742 45 000041   000004 630400 46                 EPPR0   4
        45 000042   000000 631400 46                 EPPR1   0
        45 000043   000000 701000 xent               TSX1    OUT_STR
        45 000044   000000 011000                    NOP     0

    743 45 000045   000006 631400 46                 EPPR1   6
        45 000046   000000 701000 xent               TSX1    FLUSH
        45 000047   000000 011000                    NOP     0

     1218      746        %OUTLINE(S="'=========='");

    748 45 000050   000010 630400 46                 EPPR0   8
        45 000051   000000 631400 46                 EPPR1   0
        45 000052   000000 701000 xent               TSX1    OUT_STR
        45 000053   000000 011000                    NOP     0

    749 45 000054   000006 631400 46                 EPPR1   6
        45 000055   000000 701000 xent               TSX1    FLUSH
        45 000056   000000 011000                    NOP     0

     1219      752        %OUTLINE(S="'STATISTICS'");

PL6.E3A0      #004=OUTPUT_STATS File=LR_TABLE.:Z8A6TSI                           SAT 08/09/97 09:39 Page:237
    754 45 000057   000012 630400 46                 EPPR0   10
        45 000060   000000 631400 46                 EPPR1   0
        45 000061   000000 701000 xent               TSX1    OUT_STR
        45 000062   000000 011000                    NOP     0

    755 45 000063   000006 631400 46                 EPPR1   6
        45 000064   000000 701000 xent               TSX1    FLUSH
        45 000065   000000 011000                    NOP     0

     1220      758        %OUTLINE(S="'=========='");

    760 45 000066   000010 630400 46                 EPPR0   8
        45 000067   000000 631400 46                 EPPR1   0
        45 000070   000000 701000 xent               TSX1    OUT_STR
        45 000071   000000 011000                    NOP     0

    761 45 000072   000006 631400 46                 EPPR1   6
        45 000073   000000 701000 xent               TSX1    FLUSH
        45 000074   000000 011000                    NOP     0

     1221      764        %OUTLINE(S="' '");

    766 45 000075   000004 630400 46                 EPPR0   4
        45 000076   000000 631400 46                 EPPR1   0
        45 000077   000000 701000 xent               TSX1    OUT_STR
        45 000100   000000 011000                    NOP     0

    767 45 000101   000006 631400 46                 EPPR1   6
        45 000102   000000 701000 xent               TSX1    FLUSH
        45 000103   000000 011000                    NOP     0

     1222      770        %OUTLINE(S="' '");

    772 45 000104   000004 630400 46                 EPPR0   4
        45 000105   000000 631400 46                 EPPR1   0
        45 000106   000000 701000 xent               TSX1    OUT_STR
        45 000107   000000 011000                    NOP     0
PL6.E3A0      #004=OUTPUT_STATS File=LR_TABLE.:Z8A6TSI                           SAT 08/09/97 09:39 Page:238

    773 45 000110   000006 631400 46                 EPPR1   6
        45 000111   000000 701000 xent               TSX1    FLUSH
        45 000112   000000 011000                    NOP     0

     1223      776        %OUTLINE(S="'Description                                       Value'");

    778 45 000113   000015 630400 46                 EPPR0   13
        45 000114   000000 631400 46                 EPPR1   0
        45 000115   000000 701000 xent               TSX1    OUT_STR
        45 000116   000000 011000                    NOP     0

    779 45 000117   000006 631400 46                 EPPR1   6
        45 000120   000000 701000 xent               TSX1    FLUSH
        45 000121   000000 011000                    NOP     0

     1224      782        %OUTLINE(S="' '");

    784 45 000122   000004 630400 46                 EPPR0   4
        45 000123   000000 631400 46                 EPPR1   0
        45 000124   000000 701000 xent               TSX1    OUT_STR
        45 000125   000000 011000                    NOP     0

    785 45 000126   000006 631400 46                 EPPR1   6
        45 000127   000000 701000 xent               TSX1    FLUSH
        45 000130   000000 011000                    NOP     0

     1225      788        %OUT_STR(S="'Number of productions:'");

    789 45 000131   000020 630400 46                 EPPR0   16
        45 000132   000000 631400 46                 EPPR1   0
        45 000133   000000 701000 xent               TSX1    OUT_STR
        45 000134   000000 011000                    NOP     0

     1226      791    1   CALL ALIGN50;

    791 45 000135   000003 701000 45                 TSX1    ALIGN50
PL6.E3A0      #004=OUTPUT_STATS File=LR_TABLE.:Z8A6TSI                           SAT 08/09/97 09:39 Page:239
        45 000136   000000 011000                    NOP     0

     1227      792    1   CALL OUT_DEC(NR_PROD);

    792 45 000137   000023 630400 46                 EPPR0   19
        45 000140   000022 631400 46                 EPPR1   18
        45 000141   000000 701000 xent               TSX1    OUT_DEC
        45 000142   000000 011000                    NOP     0

     1228      793    1   CALL FLUSH;

    793 45 000143   000006 631400 46                 EPPR1   6
        45 000144   000000 701000 xent               TSX1    FLUSH
        45 000145   000000 011000                    NOP     0

     1229      794
     1230      795        %OUT_STR(S="'Maximum length of a production:'");

    796 45 000146   000025 630400 46                 EPPR0   21
        45 000147   000000 631400 46                 EPPR1   0
        45 000150   000000 701000 xent               TSX1    OUT_STR
        45 000151   000000 011000                    NOP     0

     1231      798    1   CALL ALIGN50;

    798 45 000152   000003 701000 45                 TSX1    ALIGN50
        45 000153   000000 011000                    NOP     0

     1232      799    1   CALL OUT_DEC(PROD_LEN_MAX_EVER);

    799 45 000154   000027 630400 46                 EPPR0   23
        45 000155   000022 631400 46                 EPPR1   18
        45 000156   000000 701000 xent               TSX1    OUT_DEC
        45 000157   000000 011000                    NOP     0

     1233      800    1   CALL FLUSH;

PL6.E3A0      #004=OUTPUT_STATS File=LR_TABLE.:Z8A6TSI                           SAT 08/09/97 09:39 Page:240
    800 45 000160   000006 631400 46                 EPPR1   6
        45 000161   000000 701000 xent               TSX1    FLUSH
        45 000162   000000 011000                    NOP     0

     1234      801
     1235      802        %OUT_STR(S="'Number of terminal symbols:'");

    803 45 000163   000031 630400 46                 EPPR0   25
        45 000164   000000 631400 46                 EPPR1   0
        45 000165   000000 701000 xent               TSX1    OUT_STR
        45 000166   000000 011000                    NOP     0

     1236      805    1   CALL ALIGN50;

    805 45 000167   000003 701000 45                 TSX1    ALIGN50
        45 000170   000000 011000                    NOP     0

     1237      806    1   CALL OUT_DEC(NR_TERM);

    806 45 000171   000033 630400 46                 EPPR0   27
        45 000172   000022 631400 46                 EPPR1   18
        45 000173   000000 701000 xent               TSX1    OUT_DEC
        45 000174   000000 011000                    NOP     0

     1238      807    1   CALL FLUSH;

    807 45 000175   000006 631400 46                 EPPR1   6
        45 000176   000000 701000 xent               TSX1    FLUSH
        45 000177   000000 011000                    NOP     0

     1239      808
     1240      809        %OUT_STR(S="'Number of non_terminal symbols:'");

    810 45 000200   000034 630400 46                 EPPR0   28
        45 000201   000000 631400 46                 EPPR1   0
        45 000202   000000 701000 xent               TSX1    OUT_STR
        45 000203   000000 011000                    NOP     0
PL6.E3A0      #004=OUTPUT_STATS File=LR_TABLE.:Z8A6TSI                           SAT 08/09/97 09:39 Page:241

     1241      812    1   CALL ALIGN50;

    812 45 000204   000003 701000 45                 TSX1    ALIGN50
        45 000205   000000 011000                    NOP     0

     1242      813
     1243      814    1   TOTNT = 0;

    814 45 000206   200004 450100                    STZ     TOTNT,,AUTO

     1244      815    1   TOTA = 0;

    815 45 000207   200005 450100                    STZ     TOTA,,AUTO

     1245      816    2   DO I = 1 TO LAST_NULL;

    816 45 000210   000001 235007                    LDA     1,DL
        45 000211   200003 755100                    STA     I,,AUTO
        45 000212   000230 710000 45                 TRA     s:825+1

     1246      817    3     DO CASE (SYM_PTRS(I) -> SYMBOL.SYM_TYPE);

    817 45 000213   200003 720100                    LXL0    I,,AUTO
        45 000214   000000 470410 6                  LDP0    SYM_PTRS,X0
        45 000215   000002 235100                    LDA     2,,PR0
        45 000216   000003 115007                    CMPA    3,DL
        45 000217   000221 602005 45                 TNC     s:817+6,AL
        45 000220   000227 710000 45                 TRA     s:825
        45 000221   000227 710000 45                 TRA     s:825
        45 000222   000224 710000 45                 TRA     s:820
        45 000223   000226 710000 45                 TRA     s:822

     1247      818
     1248      819    3       CASE(SYM_TYPE_NT);

     1249      820    3         TOTNT = TOTNT + 1;
PL6.E3A0      #004=OUTPUT_STATS File=LR_TABLE.:Z8A6TSI                           SAT 08/09/97 09:39 Page:242

    820 45 000224   200004 054100                    AOS     TOTNT,,AUTO
        45 000225   000227 710000 45                 TRA     s:825

     1250      821    3       CASE(SYM_TYPE_ACT);

     1251      822    3         TOTA = TOTA + 1;

    822 45 000226   200005 054100                    AOS     TOTA,,AUTO

     1252      823
     1253      824    3     END;

     1254      825    2   END;

    825 45 000227   200003 054100                    AOS     I,,AUTO
        45 000230   200003 236100                    LDQ     I,,AUTO
        45 000231   000000 116000 13                 CMPQ    LAST_NULL
        45 000232   000213 604400 45                 TMOZ    s:817

     1255      826
     1256      827    1   CALL OUT_DEC(TOTNT);

    827 45 000233   200004 630500                    EPPR0   TOTNT,,AUTO
        45 000234   200012 450500                    STP0    TS+4,,AUTO
        45 000235   200012 630500                    EPPR0   TS+4,,AUTO
        45 000236   000022 631400 46                 EPPR1   18
        45 000237   000000 701000 xent               TSX1    OUT_DEC
        45 000240   000000 011000                    NOP     0

     1257      828    1   CALL FLUSH;

    828 45 000241   000006 631400 46                 EPPR1   6
        45 000242   000000 701000 xent               TSX1    FLUSH
        45 000243   000000 011000                    NOP     0

     1258      829
PL6.E3A0      #004=OUTPUT_STATS File=LR_TABLE.:Z8A6TSI                           SAT 08/09/97 09:39 Page:243
     1259      830        %OUT_STR(S="'Number of action symbols:'");

    831 45 000244   000037 630400 46                 EPPR0   31
        45 000245   000000 631400 46                 EPPR1   0
        45 000246   000000 701000 xent               TSX1    OUT_STR
        45 000247   000000 011000                    NOP     0

     1260      833    1   CALL ALIGN50;

    833 45 000250   000003 701000 45                 TSX1    ALIGN50
        45 000251   000000 011000                    NOP     0

     1261      834    1   CALL OUT_DEC(TOTA);

    834 45 000252   200005 630500                    EPPR0   TOTA,,AUTO
        45 000253   200012 450500                    STP0    TS+4,,AUTO
        45 000254   200012 630500                    EPPR0   TS+4,,AUTO
        45 000255   000022 631400 46                 EPPR1   18
        45 000256   000000 701000 xent               TSX1    OUT_DEC
        45 000257   000000 011000                    NOP     0

     1262      835    1   CALL FLUSH;

    835 45 000260   000006 631400 46                 EPPR1   6
        45 000261   000000 701000 xent               TSX1    FLUSH
        45 000262   000000 011000                    NOP     0

     1263      836
     1264      837        %OUT_STR(S="'Number of states:'");

    838 45 000263   000042 630400 46                 EPPR0   34
        45 000264   000000 631400 46                 EPPR1   0
        45 000265   000000 701000 xent               TSX1    OUT_STR
        45 000266   000000 011000                    NOP     0

     1265      840    1   CALL ALIGN50;

PL6.E3A0      #004=OUTPUT_STATS File=LR_TABLE.:Z8A6TSI                           SAT 08/09/97 09:39 Page:244
    840 45 000267   000003 701000 45                 TSX1    ALIGN50
        45 000270   000000 011000                    NOP     0

     1266      841    1   CALL OUT_DEC(NR_CONFIG);

    841 45 000271   000044 630400 46                 EPPR0   36
        45 000272   000022 631400 46                 EPPR1   18
        45 000273   000000 701000 xent               TSX1    OUT_DEC
        45 000274   000000 011000                    NOP     0

     1267      842    1   CALL FLUSH;

    842 45 000275   000006 631400 46                 EPPR1   6
        45 000276   000000 701000 xent               TSX1    FLUSH
        45 000277   000000 011000                    NOP     0

     1268      843
     1269      844        %OUT_STR(S="'Maximum number of basis items in a state:'");

    845 45 000300   000046 630400 46                 EPPR0   38
        45 000301   000000 631400 46                 EPPR1   0
        45 000302   000000 701000 xent               TSX1    OUT_STR
        45 000303   000000 011000                    NOP     0

     1270      847    1   CALL ALIGN50;

    847 45 000304   000003 701000 45                 TSX1    ALIGN50
        45 000305   000000 011000                    NOP     0

     1271      848    1   CALL OUT_DEC(MAX_BASIS_ITEMS);

    848 45 000306   000050 630400 46                 EPPR0   40
        45 000307   000022 631400 46                 EPPR1   18
        45 000310   000000 701000 xent               TSX1    OUT_DEC
        45 000311   000000 011000                    NOP     0

     1272      849    1   CALL FLUSH;
PL6.E3A0      #004=OUTPUT_STATS File=LR_TABLE.:Z8A6TSI                           SAT 08/09/97 09:39 Page:245

    849 45 000312   000006 631400 46                 EPPR1   6
        45 000313   000000 701000 xent               TSX1    FLUSH
        45 000314   000000 011000                    NOP     0

     1273      850
     1274      851        %OUT_STR(S="'Maximum number of items in a state:'");

    852 45 000315   000052 630400 46                 EPPR0   42
        45 000316   000000 631400 46                 EPPR1   0
        45 000317   000000 701000 xent               TSX1    OUT_STR
        45 000320   000000 011000                    NOP     0

     1275      854    1   CALL ALIGN50;

    854 45 000321   000003 701000 45                 TSX1    ALIGN50
        45 000322   000000 011000                    NOP     0

     1276      855    1   CALL OUT_DEC(MAX_TOTAL_ITEMS);

    855 45 000323   000054 630400 46                 EPPR0   44
        45 000324   000022 631400 46                 EPPR1   18
        45 000325   000000 701000 xent               TSX1    OUT_DEC
        45 000326   000000 011000                    NOP     0

     1277      856    1   CALL FLUSH;

    856 45 000327   000006 631400 46                 EPPR1   6
        45 000330   000000 701000 xent               TSX1    FLUSH
        45 000331   000000 011000                    NOP     0

     1278      857
     1279      858    1   IF OPTIONS(OU_OPT) THEN

    858 45 000332   000000 236000 25                 LDQ     OPTIONS
        45 000333   100000 316003                    CANQ    32768,DU
        45 000334   000615 600000 45                 TZE     s:918
PL6.E3A0      #004=OUTPUT_STATS File=LR_TABLE.:Z8A6TSI                           SAT 08/09/97 09:39 Page:246

     1280      859    2     DO;

     1281      860    2       TS = ( TSTATS.GOAL.LEN * TSTATS.GOAL.NBITS

    860 45 000335   000003 236000 35                 LDQ     TSTATS+3
        45 000336   000005 402000 35                 MPY     TSTATS+5
        45 000337   200012 756100                    STQ     TS+4,,AUTO
        45 000340   000011 236000 35                 LDQ     TSTATS+9
        45 000341   000013 402000 35                 MPY     TSTATS+11
        45 000342   200012 036100                    ADLQ    TS+4,,AUTO
        45 000343   200013 756100                    STQ     TS+5,,AUTO
        45 000344   000017 236000 35                 LDQ     TSTATS+15
        45 000345   000021 402000 35                 MPY     TSTATS+17
        45 000346   200013 036100                    ADLQ    TS+5,,AUTO
        45 000347   200014 756100                    STQ     TS+6,,AUTO
        45 000350   000025 236000 35                 LDQ     TSTATS+21
        45 000351   000027 402000 35                 MPY     TSTATS+23
        45 000352   200014 036100                    ADLQ    TS+6,,AUTO
        45 000353   200015 756100                    STQ     TS+7,,AUTO
        45 000354   000033 236000 35                 LDQ     TSTATS+27
        45 000355   000035 402000 35                 MPY     TSTATS+29
        45 000356   200015 036100                    ADLQ    TS+7,,AUTO
        45 000357   200016 756100                    STQ     TS+8,,AUTO
        45 000360   000041 236000 35                 LDQ     TSTATS+33
        45 000361   000043 402000 35                 MPY     TSTATS+35
        45 000362   200016 036100                    ADLQ    TS+8,,AUTO
        45 000363   200017 756100                    STQ     TS+9,,AUTO
        45 000364   000047 236000 35                 LDQ     TSTATS+39
        45 000365   000051 402000 35                 MPY     TSTATS+41
        45 000366   200017 036100                    ADLQ    TS+9,,AUTO
        45 000367   200020 756100                    STQ     TS+10,,AUTO
        45 000370   000055 236000 35                 LDQ     TSTATS+45
        45 000371   000057 402000 35                 MPY     TSTATS+47
        45 000372   200020 036100                    ADLQ    TS+10,,AUTO
        45 000373   200021 756100                    STQ     TS+11,,AUTO
        45 000374   000063 236000 35                 LDQ     TSTATS+51
PL6.E3A0      #004=OUTPUT_STATS File=LR_TABLE.:Z8A6TSI                           SAT 08/09/97 09:39 Page:247
        45 000375   000065 402000 35                 MPY     TSTATS+53
        45 000376   200021 036100                    ADLQ    TS+11,,AUTO
        45 000377   200022 756100                    STQ     TS+12,,AUTO
        45 000400   000071 236000 35                 LDQ     TSTATS+57
        45 000401   000073 402000 35                 MPY     TSTATS+59
        45 000402   200022 036100                    ADLQ    TS+12,,AUTO
        45 000403   200023 756100                    STQ     TS+13,,AUTO
        45 000404   000077 236000 35                 LDQ     TSTATS+63
        45 000405   000101 402000 35                 MPY     TSTATS+65
        45 000406   200023 036100                    ADLQ    TS+13,,AUTO
        45 000407   000043 036007                    ADLQ    35,DL
        45 000410   000044 506007                    DIV     36,DL
        45 000411   200006 756100                    STQ     TS,,AUTO

     1282      861    2               + TSTATS.PSS.LEN * TSTATS.PSS.NBITS
     1283      862    2               + TSTATS.SEM.LEN * TSTATS.SEM.NBITS
     1284      863    2               + TSTATS.ASDEF.LEN * TSTATS.ASDEF.NBITS
     1285      864    2               + TSTATS.ASBAS.LEN * TSTATS.ASBAS.NBITS
     1286      865    2               + TSTATS.ANCNXT.LEN * TSTATS.ANCNXT.NBITS
     1287      866    2               + TSTATS.ANCCHK.LEN * TSTATS.ANCCHK.NBITS
     1288      867    2               + TSTATS.GTDEF.LEN * TSTATS.GTDEF.NBITS
     1289      868    2               + TSTATS.GTBAS.LEN * TSTATS.GTBAS.NBITS
     1290      869    2               + TSTATS.GNCNXT.LEN * TSTATS.GNCNXT.NBITS
     1291      870    2               + TSTATS.GNCCHK.LEN * TSTATS.GNCCHK.NBITS
     1292      871    2               + 35) / 36;
     1293      872    2       IF NOT OPTIONS(DTS_OPT) THEN

    872 45 000412   000000 236000 25                 LDQ     OPTIONS
        45 000413   020000 316003                    CANQ    8192,DU
        45 000414   000433 601000 45                 TNZ     s:879

     1294      873    2           TS = TS + ((

    873 45 000415   000173 236000 35                 LDQ     TSTATS+123
        45 000416   000175 402000 35                 MPY     TSTATS+125
        45 000417   200012 756100                    STQ     TS+4,,AUTO
        45 000420   000201 236000 35                 LDQ     TSTATS+129
PL6.E3A0      #004=OUTPUT_STATS File=LR_TABLE.:Z8A6TSI                           SAT 08/09/97 09:39 Page:248
        45 000421   000203 402000 35                 MPY     TSTATS+131
        45 000422   200012 036100                    ADLQ    TS+4,,AUTO
        45 000423   200013 756100                    STQ     TS+5,,AUTO
        45 000424   000207 236000 35                 LDQ     TSTATS+135
        45 000425   000211 402000 35                 MPY     TSTATS+137
        45 000426   200013 036100                    ADLQ    TS+5,,AUTO
        45 000427   000043 036007                    ADLQ    35,DL
        45 000430   000044 506007                    DIV     36,DL
        45 000431   200006 036100                    ADLQ    TS,,AUTO
        45 000432   200006 756100                    STQ     TS,,AUTO

     1295      874    2              TSTATS.T_S_INDX.LEN * TSTATS.T_S_INDX.NBITS
     1296      875    2            + TSTATS.T_S_LEN.LEN * TSTATS.T_S_LEN.NBITS
     1297      876    2            + TSTATS.TS_SP.LEN * TSTATS.TS_SP.NBITS
     1298      877    2                     + 35)/36);
     1299      878            %OUT_STR(S="'Number words(approx) used in parse tables:'");

    879 45 000433   000056 630400 46                 EPPR0   46
        45 000434   000000 631400 46                 EPPR1   0
        45 000435   000000 701000 xent               TSX1    OUT_STR
        45 000436   000000 011000                    NOP     0

     1300      881    2       CALL ALIGN50;

    881 45 000437   000003 701000 45                 TSX1    ALIGN50
        45 000440   000000 011000                    NOP     0

     1301      882    2       CALL OUT_DEC(TS);

    882 45 000441   200006 630500                    EPPR0   TS,,AUTO
        45 000442   200012 450500                    STP0    TS+4,,AUTO
        45 000443   200012 630500                    EPPR0   TS+4,,AUTO
        45 000444   000022 631400 46                 EPPR1   18
        45 000445   000000 701000 xent               TSX1    OUT_DEC
        45 000446   000000 011000                    NOP     0

     1302      883    2       CALL FLUSH;
PL6.E3A0      #004=OUTPUT_STATS File=LR_TABLE.:Z8A6TSI                           SAT 08/09/97 09:39 Page:249

    883 45 000447   000006 631400 46                 EPPR1   6
        45 000450   000000 701000 xent               TSX1    FLUSH
        45 000451   000000 011000                    NOP     0

     1303      884
     1304      885    2       IF OPTIONS(ERROR_TABLE_OPT) THEN

    885 45 000452   000000 236000 25                 LDQ     OPTIONS
        45 000453   000100 316003                    CANQ    64,DU
        45 000454   000615 600000 45                 TZE     s:918

     1305      886    3         DO;

     1306      887    3           TS = ( TSTATS.SSTATE.LEN * TSTATS.SSTATE.NBITS

    887 45 000455   000105 236000 35                 LDQ     TSTATS+69
        45 000456   000107 402000 35                 MPY     TSTATS+71
        45 000457   200012 756100                    STQ     TS+4,,AUTO
        45 000460   000113 236000 35                 LDQ     TSTATS+75
        45 000461   000115 402000 35                 MPY     TSTATS+77
        45 000462   200012 036100                    ADLQ    TS+4,,AUTO
        45 000463   200013 756100                    STQ     TS+5,,AUTO
        45 000464   000121 236000 35                 LDQ     TSTATS+81
        45 000465   000123 402000 35                 MPY     TSTATS+83
        45 000466   200013 036100                    ADLQ    TS+5,,AUTO
        45 000467   200014 756100                    STQ     TS+6,,AUTO
        45 000470   000127 236000 35                 LDQ     TSTATS+87
        45 000471   000131 402000 35                 MPY     TSTATS+89
        45 000472   200014 036100                    ADLQ    TS+6,,AUTO
        45 000473   200015 756100                    STQ     TS+7,,AUTO
        45 000474   000135 236000 35                 LDQ     TSTATS+93
        45 000475   000137 402000 35                 MPY     TSTATS+95
        45 000476   200015 036100                    ADLQ    TS+7,,AUTO
        45 000477   200016 756100                    STQ     TS+8,,AUTO
        45 000500   000143 236000 35                 LDQ     TSTATS+99
        45 000501   000145 402000 35                 MPY     TSTATS+101
PL6.E3A0      #004=OUTPUT_STATS File=LR_TABLE.:Z8A6TSI                           SAT 08/09/97 09:39 Page:250
        45 000502   200016 036100                    ADLQ    TS+8,,AUTO
        45 000503   200017 756100                    STQ     TS+9,,AUTO
        45 000504   000151 236000 35                 LDQ     TSTATS+105
        45 000505   000153 402000 35                 MPY     TSTATS+107
        45 000506   200017 036100                    ADLQ    TS+9,,AUTO
        45 000507   200020 756100                    STQ     TS+10,,AUTO
        45 000510   000157 236000 35                 LDQ     TSTATS+111
        45 000511   000161 402000 35                 MPY     TSTATS+113
        45 000512   200020 036100                    ADLQ    TS+10,,AUTO
        45 000513   200021 756100                    STQ     TS+11,,AUTO
        45 000514   000165 236000 35                 LDQ     TSTATS+117
        45 000515   000167 402000 35                 MPY     TSTATS+119
        45 000516   200021 036100                    ADLQ    TS+11,,AUTO
        45 000517   200022 756100                    STQ     TS+12,,AUTO
        45 000520   000215 236000 35                 LDQ     TSTATS+141
        45 000521   000217 402000 35                 MPY     TSTATS+143
        45 000522   200022 036100                    ADLQ    TS+12,,AUTO
        45 000523   200023 756100                    STQ     TS+13,,AUTO
        45 000524   000223 236000 35                 LDQ     TSTATS+147
        45 000525   000225 402000 35                 MPY     TSTATS+149
        45 000526   200023 036100                    ADLQ    TS+13,,AUTO
        45 000527   200024 756100                    STQ     TS+14,,AUTO
        45 000530   000231 236000 35                 LDQ     TSTATS+153
        45 000531   000233 402000 35                 MPY     TSTATS+155
        45 000532   200024 036100                    ADLQ    TS+14,,AUTO
        45 000533   200025 756100                    STQ     TS+15,,AUTO
        45 000534   000237 236000 35                 LDQ     TSTATS+159
        45 000535   000241 402000 35                 MPY     TSTATS+161
        45 000536   200025 036100                    ADLQ    TS+15,,AUTO
        45 000537   200026 756100                    STQ     TS+16,,AUTO
        45 000540   000245 236000 35                 LDQ     TSTATS+165
        45 000541   000247 402000 35                 MPY     TSTATS+167
        45 000542   200026 036100                    ADLQ    TS+16,,AUTO
        45 000543   200027 756100                    STQ     TS+17,,AUTO
        45 000544   000253 236000 35                 LDQ     TSTATS+171
        45 000545   000255 402000 35                 MPY     TSTATS+173
        45 000546   200027 036100                    ADLQ    TS+17,,AUTO
PL6.E3A0      #004=OUTPUT_STATS File=LR_TABLE.:Z8A6TSI                           SAT 08/09/97 09:39 Page:251
        45 000547   200030 756100                    STQ     TS+18,,AUTO
        45 000550   000261 236000 35                 LDQ     TSTATS+177
        45 000551   000263 402000 35                 MPY     TSTATS+179
        45 000552   200030 036100                    ADLQ    TS+18,,AUTO
        45 000553   200031 756100                    STQ     TS+19,,AUTO
        45 000554   000267 236000 35                 LDQ     TSTATS+183
        45 000555   000271 402000 35                 MPY     TSTATS+185
        45 000556   200031 036100                    ADLQ    TS+19,,AUTO
        45 000557   200032 756100                    STQ     TS+20,,AUTO
        45 000560   000275 236000 35                 LDQ     TSTATS+189
        45 000561   000277 402000 35                 MPY     TSTATS+191
        45 000562   200032 036100                    ADLQ    TS+20,,AUTO
        45 000563   200033 756100                    STQ     TS+21,,AUTO
        45 000564   000303 236000 35                 LDQ     TSTATS+195
        45 000565   000305 402000 35                 MPY     TSTATS+197
        45 000566   200033 036100                    ADLQ    TS+21,,AUTO
        45 000567   200034 756100                    STQ     TS+22,,AUTO
        45 000570   000311 236000 35                 LDQ     TSTATS+201
        45 000571   000313 402000 35                 MPY     TSTATS+203
        45 000572   200034 036100                    ADLQ    TS+22,,AUTO
        45 000573   000043 036007                    ADLQ    35,DL
        45 000574   000044 506007                    DIV     36,DL
        45 000575   200006 756100                    STQ     TS,,AUTO

     1307      888    3                + TSTATS.SITEM.LEN * TSTATS.SITEM.NBITS
     1308      889    3                + TSTATS.IINDX.LEN * TSTATS.IINDX.NBITS
     1309      890    3                + TSTATS.ILEN.LEN * TSTATS.ILEN.NBITS
     1310      891    3                + TSTATS.SI_BASIS.LEN * TSTATS.SI_BASIS.NBITS
     1311      892    3                + TSTATS.SI_CLOSURE.LEN * TSTATS.SI_CLOSURE.NBITS
     1312      893    3                + TSTATS.P_INDX.LEN * TSTATS.P_INDX.NBITS
     1313      894    3                + TSTATS.P_LEN.LEN * TSTATS.P_LEN.NBITS
     1314      895    3                + TSTATS.PATH_ELEM.LEN * TSTATS.PATH_ELEM.NBITS
     1315      896    3                + TSTATS.DEL_COST.LEN * TSTATS.DEL_COST.NBITS
     1316      897    3                + TSTATS.LCS_COST.LEN * TSTATS.LCS_COST.NBITS
     1317      898    3                + TSTATS.LCS_INDX.LEN * TSTATS.LCS_INDX.NBITS
     1318      899    3                + TSTATS.LCS_LEN.LEN * TSTATS.LCS_LEN.NBITS
     1319      900    3                + TSTATS.LCS_ELEM.LEN * TSTATS.LCS_ELEM.NBITS
PL6.E3A0      #004=OUTPUT_STATS File=LR_TABLE.:Z8A6TSI                           SAT 08/09/97 09:39 Page:252
     1320      901    3                + TSTATS.LCP_NT.LEN * TSTATS.LCP_NT.NBITS
     1321      902    3                + TSTATS.LCP_COST.LEN * TSTATS.LCP_COST.NBITS
     1322      903    3                + TSTATS.LCP_LEN.LEN * TSTATS.LCP_LEN.NBITS
     1323      904    3                + TSTATS.LCP_INDX.LEN * TSTATS.LCP_INDX.NBITS
     1324      905    3                + TSTATS.LCP_UBOUND.LEN * TSTATS.LCP_UBOUND.NBITS
     1325      906    3                + TSTATS.LCP_ELEM.LEN * TSTATS.LCP_ELEM.NBITS
     1326      907    3                + 35) / 36;
     1327      908                %OUT_STR(S="'Number words(approx) used for error tables:'");

    909 45 000576   000061 630400 46                 EPPR0   49
        45 000577   000000 631400 46                 EPPR1   0
        45 000600   000000 701000 xent               TSX1    OUT_STR
        45 000601   000000 011000                    NOP     0

     1328      911    3           CALL ALIGN50;

    911 45 000602   000003 701000 45                 TSX1    ALIGN50
        45 000603   000000 011000                    NOP     0

     1329      912    3           CALL OUT_DEC(TS);

    912 45 000604   200006 630500                    EPPR0   TS,,AUTO
        45 000605   200012 450500                    STP0    TS+4,,AUTO
        45 000606   200012 630500                    EPPR0   TS+4,,AUTO
        45 000607   000022 631400 46                 EPPR1   18
        45 000610   000000 701000 xent               TSX1    OUT_DEC
        45 000611   000000 011000                    NOP     0

     1330      913    3           CALL FLUSH;

    913 45 000612   000006 631400 46                 EPPR1   6
        45 000613   000000 701000 xent               TSX1    FLUSH
        45 000614   000000 011000                    NOP     0

     1331      914    3         END;

     1332      915    2     END;
PL6.E3A0      #004=OUTPUT_STATS File=LR_TABLE.:Z8A6TSI                           SAT 08/09/97 09:39 Page:253

     1333      916
     1334      917            %OUT_STR(S="'Number pages of virtual space used:'");

    918 45 000615   000063 630400 46                 EPPR0   51
        45 000616   000000 631400 46                 EPPR1   0
        45 000617   000000 701000 xent               TSX1    OUT_STR
        45 000620   000000 011000                    NOP     0

     1335      920    1       CALL ALIGN50;

    920 45 000621   000003 701000 45                 TSX1    ALIGN50
        45 000622   000000 011000                    NOP     0

     1336      921    1       CALL OUT_DEC(VIRTUAL_PAGES);

    921 45 000623   000065 630400 46                 EPPR0   53
        45 000624   000022 631400 46                 EPPR1   18
        45 000625   000000 701000 xent               TSX1    OUT_DEC
        45 000626   000000 011000                    NOP     0

     1337      922    1       CALL FLUSH;

    922 45 000627   000006 631400 46                 EPPR1   6
        45 000630   000000 701000 xent               TSX1    FLUSH
        45 000631   000000 011000                    NOP     0

     1338      923
     1339      924    1   END OUTPUT_STATS;

    924 45 000632   000000 702200 xent               TSX2  ! X66_ARET
     1340      925        %EOD;

PL6.E3A0      #004=OUTPUT_STATS File=LR_TABLE.:Z8A6TSI                           SAT 08/09/97 09:39 Page:254
--  Include file information  --

   LR_CNFG_EXT.:Z8A6TOU  cannot be made into a system file and is referenced.
   LR_IO_EXT.:Z8A6TOU  cannot be made into a system file and is referenced.
   LR_GRAM_EXT.:Z8A6TOU  cannot be made into a system file and is referenced.
      No diagnostics issued in procedure OUTPUT_STATS.
PL6.E3A0      #004=OUTPUT_STATS File=LR_TABLE.:Z8A6TSI                           SAT 08/09/97 09:39 Page:255

 **** Variables and constants ****

  ****  Section 000 LblCom OUT_DCBN

  ****  Scalars and arrays  ****
OctLoc.c.b A Datatyp(siz) R M Lvl/name                 OctLoc.c.b A Datatyp(siz) R M Lvl/name

     0-0-0/w SBIN        r     1 OUT_DCBN

  ****  Section 006 LblCom SYM_PTRS

  ****  Scalars and arrays  ****
OctLoc.c.b A Datatyp(siz) R M Lvl/name                 OctLoc.c.b A Datatyp(siz) R M Lvl/name

     0-0-0/w PTR         r     1 SYM_PTRS(0:1400)

  ****  Section 007 LblCom RIGHT_PARTS

  ****  Scalars and arrays  ****
OctLoc.c.b A Datatyp(siz) R M Lvl/name                 OctLoc.c.b A Datatyp(siz) R M Lvl/name

     0-0-0/h SBIN(18)          1 RIGHT_PARTS(0:8000)

  ****  Section 008 LblCom PROD

  ****  Scalars and arrays  ****
OctLoc.c.b A Datatyp(siz) R M Lvl/name                 OctLoc.c.b A Datatyp(siz) R M Lvl/name

     0-0-0/h STRC(72)          1 PROD(0:1500)

  ****  Section 009 LblCom NR_PROD

  ****  Scalars and arrays  ****
OctLoc.c.b A Datatyp(siz) R M Lvl/name                 OctLoc.c.b A Datatyp(siz) R M Lvl/name

     0-0-0/w SBIN        r     1 NR_PROD

PL6.E3A0      #004=OUTPUT_STATS File=LR_TABLE.:Z8A6TSI                           SAT 08/09/97 09:39 Page:256
  ****  Section 010 LblCom NR_SYMS

  ****  Scalars and arrays  ****
OctLoc.c.b A Datatyp(siz) R M Lvl/name                 OctLoc.c.b A Datatyp(siz) R M Lvl/name

     0-0-0/w SBIN              1 NR_SYMS

  ****  Section 011 LblCom NR_TERM

  ****  Scalars and arrays  ****
OctLoc.c.b A Datatyp(siz) R M Lvl/name                 OctLoc.c.b A Datatyp(siz) R M Lvl/name

     0-0-0/w SBIN        r     1 NR_TERM

  ****  Section 012 LblCom LAST_ACT

  ****  Scalars and arrays  ****
OctLoc.c.b A Datatyp(siz) R M Lvl/name                 OctLoc.c.b A Datatyp(siz) R M Lvl/name

     0-0-0/w SBIN              1 LAST_ACT

  ****  Section 013 LblCom LAST_NULL

  ****  Scalars and arrays  ****
OctLoc.c.b A Datatyp(siz) R M Lvl/name                 OctLoc.c.b A Datatyp(siz) R M Lvl/name

     0-0-0/w SBIN        r     1 LAST_NULL

  ****  Section 014 LblCom NR_ONRIGHT

  ****  Scalars and arrays  ****
OctLoc.c.b A Datatyp(siz) R M Lvl/name                 OctLoc.c.b A Datatyp(siz) R M Lvl/name

     0-0-0/w SBIN              1 NR_ONRIGHT

  ****  Section 015 LblCom NR_NT

PL6.E3A0      #004=OUTPUT_STATS File=LR_TABLE.:Z8A6TSI                           SAT 08/09/97 09:39 Page:257
  ****  Scalars and arrays  ****
OctLoc.c.b A Datatyp(siz) R M Lvl/name                 OctLoc.c.b A Datatyp(siz) R M Lvl/name

     0-0-0/w SBIN              1 NR_NT

  ****  Section 016 LblCom PROD_LEN_MAX_EVER

  ****  Scalars and arrays  ****
OctLoc.c.b A Datatyp(siz) R M Lvl/name                 OctLoc.c.b A Datatyp(siz) R M Lvl/name

     0-0-0/w SBIN        r     1 PROD_LEN_MAX_EVER

  ****  Section 017 LblCom LAST_ORDER_SPECIFIED

  ****  Scalars and arrays  ****
OctLoc.c.b A Datatyp(siz) R M Lvl/name                 OctLoc.c.b A Datatyp(siz) R M Lvl/name

     0-0-0/w SBIN              1 LAST_ORDER_SPECIFIED

  ****  Section 018 LblCom SEMANTIC_ORDERING

  ****  Scalars and arrays  ****
OctLoc.c.b A Datatyp(siz) R M Lvl/name                 OctLoc.c.b A Datatyp(siz) R M Lvl/name

     0-0-0/b BIT               1 SEMANTIC_ORDERING

  ****  Section 019 LblCom ERR_SEV

  ****  Scalars and arrays  ****
OctLoc.c.b A Datatyp(siz) R M Lvl/name                 OctLoc.c.b A Datatyp(siz) R M Lvl/name

     0-0-0/w SBIN              1 ERR_SEV

  ****  Section 020 LblCom SET_LENGTHB

  ****  Scalars and arrays  ****
OctLoc.c.b A Datatyp(siz) R M Lvl/name                 OctLoc.c.b A Datatyp(siz) R M Lvl/name
PL6.E3A0      #004=OUTPUT_STATS File=LR_TABLE.:Z8A6TSI                           SAT 08/09/97 09:39 Page:258

     0-0-0/w SBIN              1 SET_LENGTHB

  ****  Section 021 LblCom SET_LENGTHW

  ****  Scalars and arrays  ****
OctLoc.c.b A Datatyp(siz) R M Lvl/name                 OctLoc.c.b A Datatyp(siz) R M Lvl/name

     0-0-0/w SBIN              1 SET_LENGTHW

  ****  Section 022 LblCom EOF_SYMBOL_PTR

  ****  Scalars and arrays  ****
OctLoc.c.b A Datatyp(siz) R M Lvl/name                 OctLoc.c.b A Datatyp(siz) R M Lvl/name

     0-0-0/w PTR               1 EOF_SYMBOL_PTR

  ****  Section 023 LblCom ERROR_SYMBOL_PTR

  ****  Scalars and arrays  ****
OctLoc.c.b A Datatyp(siz) R M Lvl/name                 OctLoc.c.b A Datatyp(siz) R M Lvl/name

     0-0-0/w PTR               1 ERROR_SYMBOL_PTR

  ****  Section 024 LblCom BOF_SYMBOL_PTR

  ****  Scalars and arrays  ****
OctLoc.c.b A Datatyp(siz) R M Lvl/name                 OctLoc.c.b A Datatyp(siz) R M Lvl/name

     0-0-0/w PTR               1 BOF_SYMBOL_PTR

  ****  Section 025 LblCom OPTIONS

  ****  Scalars and arrays  ****
OctLoc.c.b A Datatyp(siz) R M Lvl/name                 OctLoc.c.b A Datatyp(siz) R M Lvl/name

     0-0-0/b BIT         r     1 OPTIONS(0:25)
PL6.E3A0      #004=OUTPUT_STATS File=LR_TABLE.:Z8A6TSI                           SAT 08/09/97 09:39 Page:259

  ****  Section 026 LblCom OPTIONS_TEXT

  ****  Scalars and arrays  ****
OctLoc.c.b A Datatyp(siz) R M Lvl/name                 OctLoc.c.b A Datatyp(siz) R M Lvl/name

     0-0-0/c CHAR(4)           1 OPTIONS_TEXT(0:25)

  ****  Section 027 LblCom INSTR

  ****  Scalars and arrays  ****
OctLoc.c.b A Datatyp(siz) R M Lvl/name                 OctLoc.c.b A Datatyp(siz) R M Lvl/name

     0-0-0/c CHAR              1 INSTR(0:511)               0-0-0/c CHAR(512)         1 INSTRCHR

  ****  Section 028 LblCom INSTR_LISTED

  ****  Scalars and arrays  ****
OctLoc.c.b A Datatyp(siz) R M Lvl/name                 OctLoc.c.b A Datatyp(siz) R M Lvl/name

     0-0-0/b BIT               1 INSTR_LISTED

  ****  Section 029 LblCom INSTR_LEN

  ****  Scalars and arrays  ****
OctLoc.c.b A Datatyp(siz) R M Lvl/name                 OctLoc.c.b A Datatyp(siz) R M Lvl/name

     0-0-0/w SBIN              1 INSTR_LEN

  ****  Section 030 LblCom INSTR_INDX

  ****  Scalars and arrays  ****
OctLoc.c.b A Datatyp(siz) R M Lvl/name                 OctLoc.c.b A Datatyp(siz) R M Lvl/name

     0-0-0/w SBIN              1 INSTR_INDX

  ****  Section 031 LblCom EOF_FLAG
PL6.E3A0      #004=OUTPUT_STATS File=LR_TABLE.:Z8A6TSI                           SAT 08/09/97 09:39 Page:260

  ****  Scalars and arrays  ****
OctLoc.c.b A Datatyp(siz) R M Lvl/name                 OctLoc.c.b A Datatyp(siz) R M Lvl/name

     0-0-0/b BIT               1 EOF_FLAG

  ****  Section 032 LblCom KEY_REC

  ****  Scalars and arrays  ****
OctLoc.c.b A Datatyp(siz) R M Lvl/name                 OctLoc.c.b A Datatyp(siz) R M Lvl/name

     0-0-0/c CHAR(10)          1 KEY_REC

  ****  Section 033 LblCom LINE

  ****  Scalars and arrays  ****
OctLoc.c.b A Datatyp(siz) R M Lvl/name                 OctLoc.c.b A Datatyp(siz) R M Lvl/name

     0-0-0/c CHAR(109)         1 LINE

  ****  Section 034 LblCom LINELEN

  ****  Scalars and arrays  ****
OctLoc.c.b A Datatyp(siz) R M Lvl/name                 OctLoc.c.b A Datatyp(siz) R M Lvl/name

     0-0-0/w SBIN        r     1 LINELEN

  ****  Section 035 LblCom TSTATS

  ****  Scalars and arrays  ****
OctLoc.c.b A Datatyp(siz) R M Lvl/name                 OctLoc.c.b A Datatyp(siz) R M Lvl/name

     0-0-0/w STRC(7380)  r     1 TSTATS

  ****  Section 036 LblCom C#_TO_$

  ****  Scalars and arrays  ****
PL6.E3A0      #004=OUTPUT_STATS File=LR_TABLE.:Z8A6TSI                           SAT 08/09/97 09:39 Page:261
OctLoc.c.b A Datatyp(siz) R M Lvl/name                 OctLoc.c.b A Datatyp(siz) R M Lvl/name

     0-0-0/w PTR               1 C#_TO_$(0:2200)

  ****  Section 037 LblCom NR_CONFIG

  ****  Scalars and arrays  ****
OctLoc.c.b A Datatyp(siz) R M Lvl/name                 OctLoc.c.b A Datatyp(siz) R M Lvl/name

     0-0-0/w SBIN        r     1 NR_CONFIG

  ****  Section 038 LblCom INIT_CONFIG

  ****  Scalars and arrays  ****
OctLoc.c.b A Datatyp(siz) R M Lvl/name                 OctLoc.c.b A Datatyp(siz) R M Lvl/name

     0-0-0/w SBIN              1 INIT_CONFIG

  ****  Section 039 LblCom MAX_BASIS_ITEMS

  ****  Scalars and arrays  ****
OctLoc.c.b A Datatyp(siz) R M Lvl/name                 OctLoc.c.b A Datatyp(siz) R M Lvl/name

     0-0-0/w SBIN        r     1 MAX_BASIS_ITEMS

  ****  Section 040 LblCom MAX_TOTAL_ITEMS

  ****  Scalars and arrays  ****
OctLoc.c.b A Datatyp(siz) R M Lvl/name                 OctLoc.c.b A Datatyp(siz) R M Lvl/name

     0-0-0/w SBIN        r     1 MAX_TOTAL_ITEMS

  ****  Section 041 LblCom LAST_BINSRCH_ONLY

  ****  Scalars and arrays  ****
OctLoc.c.b A Datatyp(siz) R M Lvl/name                 OctLoc.c.b A Datatyp(siz) R M Lvl/name

PL6.E3A0      #004=OUTPUT_STATS File=LR_TABLE.:Z8A6TSI                           SAT 08/09/97 09:39 Page:262
     0-0-0/w SBIN              1 LAST_BINSRCH_ONLY

  ****  Section 042 LblCom LAST_BOTH_BITBIN

  ****  Scalars and arrays  ****
OctLoc.c.b A Datatyp(siz) R M Lvl/name                 OctLoc.c.b A Datatyp(siz) R M Lvl/name

     0-0-0/w SBIN              1 LAST_BOTH_BITBIN

  ****  Section 043 LblCom VIRTUAL_PAGES

  ****  Scalars and arrays  ****
OctLoc.c.b A Datatyp(siz) R M Lvl/name                 OctLoc.c.b A Datatyp(siz) R M Lvl/name

     0-0-0/w SBIN        r     1 VIRTUAL_PAGES

  ****  Auto variables  ****

  ****  Scalars and arrays  ****
OctLoc.c.b A Datatyp(siz) R M Lvl/name                 OctLoc.c.b A Datatyp(siz) R M Lvl/name

     3-0-0/w SBIN        r     1 I                          5-0-0/w SBIN        r     1 TOTA
     4-0-0/w SBIN        r     1 TOTNT                      6-0-0/w SBIN        r     1 TS

  ****  BASED and DCB variables  ****

  ****  Scalars and arrays  ****
OctLoc.c.b A Datatyp(siz) R M Lvl/name                 OctLoc.c.b A Datatyp(siz) R M Lvl/name

     0-0-0/w STRC(57888)       1 C_SET_B                    0-0-0/w STRC(72)          1 INCLUDES_B
     0-0-0/w STRC(144)         1 INCL_B                     0-0-0/w STRC(5436)        1 ITEM_B
     0-0-0/w STRC(5652)        1 KEY_B                      0-0-0N  NULL        r     1 M$LO
     0-0-0N  NULL        r     1 M$OU                       0-0-0N  NULL        r     1 M$SI
     0-0-0N  NULL        r     1 M$SO                       0-0-0N  NULL        r     1 M$UI
     0-0-0/w STRC(351)   r     1 SYMBOL

PL6.E3A0      #004=OUTPUT_STATS File=LR_TABLE.:Z8A6TSI                           SAT 08/09/97 09:39 Page:263

   Procedure OUTPUT_STATS requires 411 words for executable code.
   Procedure OUTPUT_STATS requires 30 words of local(AUTO) storage.

PL6.E3A0      #005=OUTPUT_PARSE_SYMREFS File=LR_TABLE.:Z8A6TSI                   SAT 08/09/97 09:39 Page:264
     1341        1        /*T***********************************************************/
     1342        2        /*T*                                                         */
     1343        3        /*T* Copyright (c) Bull HN Information Systems Inc., 1997    */
     1344        4        /*T*                                                         */
     1345        5        /*T***********************************************************/
     1346        6        OUTPUT_PARSE_SYMREFS : PROC NOAUTO;
     1347        7
     1348        8        %INCLUDE LR_GRAM_EXT;
     1349      547        %INCLUDE LR_CNFG_EXT;
     1350      700
     1351      701    1   DCL OUT_STR ENTRY(2);
     1352      702    1   DCL FLUSH ENTRY;
     1353      703    1   DCL OUT_DEC ENTRY(1);
     1354      704    1   DCL OUTPUT_BITS ENTRY(3);
     1355      705    1   DCL GENTYPE ENTRY(1);
     1356      706    1   DCL OUTPUT_MIN_MAX_BITS ENTRY(3);
     1357      707
     1358      708        %MACRO OUTPUT_MMB  (N=" " , TS=);
     1359      709          DO;
     1360      710            CALL OUTPUT_MIN_MAX_BITS ( N,
     1361      711                                       %(LENGTHC(N)),
     1362      712                                       TS);
     1363      713          END;
     1364      714        %MEND;
     1365      715
     1366      716        %MACRO OUTPUT_BITS(N=" ", V=);
     1367      717          DO;
     1368      718            CALL OUTPUT_BITS ( N,
     1369      719                               %(LENGTHC(N)),
     1370      720                               V);
     1371      721          END;
     1372      722        %MEND;
     1373      723
     1374      724
     1375      725        %MACRO OUTSIGN(V=" ");
     1376      726          IF TSTATS.V.SIGNED THEN
     1377      727            %OUT_STR(S="'S'");
PL6.E3A0      #005=OUTPUT_PARSE_SYMREFS File=LR_TABLE.:Z8A6TSI                   SAT 08/09/97 09:39 Page:265
     1378      728          ELSE
     1379      729            %OUT_STR(S="'U'");
     1380      730        %MEND;
     1381      731
     1382      732
     1383      733    1   CALL GENTYPE(TSTATS.GOAL);
     1384      734    1   CALL GENTYPE(TSTATS.PSS);
     1385      735    1   CALL GENTYPE(TSTATS.SEM);
     1386      736    1   CALL GENTYPE(TSTATS.ASDEF);
     1387      737    1   CALL GENTYPE(TSTATS.ASBAS);
     1388      738    1   CALL GENTYPE(TSTATS.ANCNXT);
     1389      739    1   CALL GENTYPE(TSTATS.ANCCHK);
     1390      740    1   CALL GENTYPE(TSTATS.GTDEF);
     1391      741    1   CALL GENTYPE(TSTATS.GTBAS);
     1392      742    1   CALL GENTYPE(TSTATS.GNCNXT);
     1393      743    1   CALL GENTYPE(TSTATS.GNCCHK);
     1394      744
     1395      745    1   IF NOT OPTIONS(DTS_OPT) THEN
     1396      746    2     DO;
     1397      747    2        CALL GENTYPE(TSTATS.T_S_INDX);
     1398      748    2        CALL GENTYPE(TSTATS.T_S_LEN);
     1399      749    2     END;
     1400      750
     1401      751
     1402      752
     1403      753        %SELECT_SUBS;
     1404      756
     1405      757        %OUTPUT_MMB(N="'GOAL'", TS=TSTATS.GOAL);
     1406      764        %OUTPUT_MMB(N="'PSS'" , TS=TSTATS.PSS);
     1407      771        %OUTPUT_MMB(N="'SEM'",  TS=TSTATS.SEM);
     1408      778        %OUTPUT_BITS(N="'PRODR'", V=
               778            "TSTATS.GOAL.NBITS + TSTATS.PSS.NBITS + TSTATS.SEM.NBITS");
     1409      785
     1410      786        %OUTLINE(S="'%MACRO START_TABLE_PRODR;'");
     1411      792        %OUTLINE(S=
               792            "'DCL 1 PRODR(0:%PRODR_LEN) BIT(%BITS_PRODR) UNAL CONSTANT SYMDEF INIT(''0''B'")
               792            ;
PL6.E3A0      #005=OUTPUT_PARSE_SYMREFS File=LR_TABLE.:Z8A6TSI                   SAT 08/09/97 09:39 Page:266
     1412      798        %OUTLINE(S="'%MEND;'");
     1413      804
     1414      805        %OUTLINE(S="'%MACRO PRODM(GOAL=0, PSS=0, SEM=0);'");
     1415      811        %OUTLINE(S=
     1416      812        "',%(CONCAT(BINBIT(GOAL,%BITS_GOAL),BINBIT(PSS,%BITS_PSS),BINBIT(SEM,%BITS_SEM)))'")
               812            ;
     1417      818        %OUTLINE(S="'%MEND;'");
     1418      824
     1419      825        %OUTLINE(S="'%MACRO END_TABLE_PRODR;'");
     1420      831        %OUTLINE(S="'    );'");
     1421      837        %OUTLINE(S="'%MEND;'");
     1422      843
     1423      844        %OUTPUT_MMB(N="'ASDEF'", TS=TSTATS.ASDEF);
     1424      851        %OUTPUT_MMB(N="'ASBAS'", TS=TSTATS.ASBAS);
     1425      858        %OUTPUT_BITS(N="'ACTION_COL'",  V="TSTATS.ASDEF.NBITS + TSTATS.ASBAS.NBITS");
     1426      865
     1427      866        %OUTLINE(S="'%MACRO START_TABLE_ACTION_COL;'");
     1428      872        %OUTLINE(S="'DCL 1 ACTION_COL(0:%ACTION_COL_LEN) BIT(%BITS_ACTION_COL) UNAL CONSTANT
               872         SYMDEF INIT(''0''B'");
     1429      878        %OUTLINE(S="'%MEND;'");
     1430      884
     1431      885        %OUTLINE(S="'%MACRO ASDEFBASM(DFL=0, BAS=0);'");
     1432      891        %OUTLINE(S="',%(CONCAT(BINBIT(DFL,%BITS_ASDEF),BINBIT(BAS,%BITS_ASBAS)))'");
     1433      897        %OUTLINE(S="'%MEND;'");
     1434      903
     1435      904        %OUTLINE(S="'%MACRO END_TABLE_ACTION_COL;'");
     1436      910        %OUTLINE(S="'    );'");
     1437      916        %OUTLINE(S="'%MEND;'");
     1438      922
     1439      923        %OUTPUT_MMB(N="'ANCNXT'", TS=TSTATS.ANCNXT);
     1440      930        %OUTPUT_MMB(N="'ANCCHK'", TS=TSTATS.ANCCHK);
     1441      937        %OUTPUT_BITS(N="'ACTION_ROW'", V="TSTATS.ANCNXT.NBITS + TSTATS.ANCCHK.NBITS");
     1442      944
     1443      945        %OUTLINE(S="'%MACRO START_TABLE_ACTION_ROW;'");
     1444      951        %OUTLINE(S="'DCL 1 ACTION_ROW(0:%ACTION_ROW_LEN) BIT(%BITS_ACTION_ROW) UNAL CONSTANT
               951         SYMDEF INIT(''0''B,''0''B'");
     1445      957        %OUTLINE(S="'%MEND;'");
PL6.E3A0      #005=OUTPUT_PARSE_SYMREFS File=LR_TABLE.:Z8A6TSI                   SAT 08/09/97 09:39 Page:267
     1446      963
     1447      964        %OUTLINE(S="'%MACRO ANCM(NXT=0, CHK=0);'");
     1448      970        %OUTLINE(S="',%(CONCAT(BINBIT(NXT,%BITS_ANCNXT),BINBIT(CHK,%BITS_ANCCHK)))'");
     1449      976        %OUTLINE(S="'%MEND;'");
     1450      982
     1451      983        %OUTLINE(S="'%MACRO END_TABLE_ACTION_ROW;'");
     1452      989        %OUTLINE(S="'    );'");
     1453      995        %OUTLINE(S="'%MEND;'");
     1454     1001
     1455     1002
     1456     1003        %OUTPUT_MMB(N="'GTDEF'", TS=TSTATS.GTDEF);
     1457     1010        %OUTPUT_MMB(N="'GTBAS'", TS=TSTATS.GTBAS);
     1458     1017        %OUTPUT_BITS(N="'GOTO_COL'", V="TSTATS.GTDEF.NBITS + TSTATS.GTBAS.NBITS");
     1459     1024
     1460     1025        %OUTLINE(S="'%MACRO START_TABLE_GOTO_COL;'");
     1461     1031        %OUTLINE(S="'DCL 1 GOTO_COL(0:%GOTO_COL_LEN) BIT(%BITS_GOTO_COL) UNAL CONSTANT SYMDE
              1031        F INIT(''0''B'");
     1462     1037        %OUTLINE(S="'%MEND;'");
     1463     1043
     1464     1044        %OUTLINE(S="'%MACRO GTDEFBASM(DFL=0, BAS=0);'");
     1465     1050        %OUTLINE(S="',%(CONCAT(BINBIT(DFL,%BITS_GTDEF),BINBIT(BAS,%BITS_GTBAS)))'");
     1466     1056        %OUTLINE(S="'%MEND;'");
     1467     1062
     1468     1063        %OUTLINE(S="'%MACRO END_TABLE_GOTO_COL;'");
     1469     1069        %OUTLINE(S="'    );'");
     1470     1075        %OUTLINE(S="'%MEND;'");
     1471     1081
     1472     1082        %OUTPUT_MMB(N="'GNCNXT'", TS=TSTATS.GNCNXT);
     1473     1089        %OUTPUT_MMB(N="'GNCCHK'", TS=TSTATS.GNCCHK);
     1474     1096        %OUTPUT_BITS(N="'GOTO_ROW'", V="TSTATS.GNCNXT.NBITS + TSTATS.GNCCHK.NBITS");
     1475     1103
     1476     1104        %OUTLINE(S="'%MACRO START_TABLE_GOTO_ROW;'");
     1477     1110        %OUTLINE(S="'DCL 1 GOTO_ROW(0:%GOTO_ROW_LEN) BIT(%BITS_GOTO_ROW) UNAL CONSTANT SYMDE
              1110        F INIT(''0''B,''0''B'");
     1478     1116        %OUTLINE(S="'%MEND;'");
     1479     1122
     1480     1123        %OUTLINE(S="'%MACRO GNCM(NXT=0, CHK=0);'");
PL6.E3A0      #005=OUTPUT_PARSE_SYMREFS File=LR_TABLE.:Z8A6TSI                   SAT 08/09/97 09:39 Page:268
     1481     1129        %OUTLINE(S="',%(CONCAT(BINBIT(NXT,%BITS_GNCNXT),BINBIT(CHK,%BITS_GNCCHK)))'");
     1482     1135        %OUTLINE(S="'%MEND;'");
     1483     1141
     1484     1142        %OUTLINE(S="'%MACRO END_TABLE_GOTO_ROW;'");
     1485     1148        %OUTLINE(S="'    );'");
     1486     1154        %OUTLINE(S="'%MEND;'");
     1487     1160
     1488     1161
     1489     1162    1   IF NOT OPTIONS(DTS_OPT) THEN
     1490     1163    2     DO;
     1491     1164            %OUTLINE(S="'%EQU DTS_OPTION = ''0''B;'");
     1492     1170            %OUTPUT_MMB(N="'T_S_INDX'", TS=TSTATS.T_S_INDX);
     1493     1177            %OUTPUT_MMB(N="'T_S_LEN'", TS=TSTATS.T_S_LEN);
     1494     1184            %OUTPUT_BITS(N="'TERM_STRING'", V="TSTATS.T_S_INDX.NBITS + TSTATS.T_S_LEN.NBITS"
              1184                );
     1495     1191
     1496     1192            %OUTLINE(S="'%MACRO START_TABLE_TERM_STRING;'");
     1497     1198            %OUTLINE(S="'DCL 1 TERM_STRING(0:%TERM_STRING_LEN) BIT(%BITS_TERM_STRING) UNAL C
              1198        ONSTANT SYMDEF INIT(''0''B'");
     1498     1204            %OUTLINE(S="'%MEND;'");
     1499     1210
     1500     1211            %OUTLINE(S="'%MACRO TSTRING(I=0, L=0);'");
     1501     1217            %OUTLINE(S="',%(CONCAT(BINBIT(I,%BITS_T_S_INDX),BINBIT(L,%BITS_T_S_LEN)))'");
     1502     1223            %OUTLINE(S="'%MEND;'");
     1503     1229
     1504     1230            %OUTLINE(S="'%MACRO END_TABLE_TERM_STRING;'");
     1505     1236            %OUTLINE(S="'    );'");
     1506     1242            %OUTLINE(S="'%MEND;'");
     1507     1248
     1508     1249            %OUTLINE(S="'%MACRO START_TABLE_TSTRING_SPACE;'");
     1509     1255            %OUTLINE(S="'DCL TSTRING_SPACE(0:%TSTRING_SPACE_LEN) CHAR(40) CONSTANT SYMDEF'")
              1255                ;
     1510     1261            %OUTLINE(S="'         INIT(''                                        '''");
     1511     1267            %OUTLINE(S="'%MEND;'");
     1512     1273
     1513     1274            %OUTLINE(S="'%MACRO TSPACE(S=);'");
     1514     1280            %OUTLINE(S="',S'");
PL6.E3A0      #005=OUTPUT_PARSE_SYMREFS File=LR_TABLE.:Z8A6TSI                   SAT 08/09/97 09:39 Page:269
     1515     1286            %OUTLINE(S="'%MEND;'");
     1516     1292
     1517     1293            %OUTLINE(S="'%MACRO END_TABLE_TSTRING_SPACE;'");
     1518     1299            %OUTLINE(S="'    );'");
     1519     1305            %OUTLINE(S="'%MEND;'");
     1520     1311    2     END;
     1521     1312    1   ELSE
     1522     1313    2     DO;
     1523     1314            %OUTLINE(S="'%EQU DTS_OPTION = ''1''B;'");
     1524     1320    2     END;
     1525     1321
     1526     1322        %OUTLINE(S="'%MACRO PARSE_SYMREFS;'");
     1527     1328
     1528     1329        %OUTLINE(S="'DCL 1 PRODR(0:%PRODR_LEN) UNAL SYMREF READONLY,'");
     1529     1335        %OUT_STR(S="'      2 GOAL '");
     1530     1338        %OUTSIGN(V=GOAL);
     1531     1348        %OUTLINE(S="'BIN(%BITS_GOAL) UNAL,'");
     1532     1354        %OUT_STR(S="'      2 POPSTACK '");
     1533     1357        %OUTSIGN(V=PSS);
     1534     1367        %OUTLINE(S="'BIN(%BITS_PSS) UNAL,'");
     1535     1373        %OUT_STR(S="'      2 SEMANTIC '");
     1536     1376        %OUTSIGN(V=SEM);
     1537     1386        %OUTLINE(S="'BIN(%BITS_SEM) UNAL;'");
     1538     1392
     1539     1393        %OUTLINE(S="'DCL 1 ACTION_COL(0:%ACTION_COL_LEN) UNAL SYMREF READONLY,'");
     1540     1399        %OUT_STR(S="'      2 DEFAULT '");
     1541     1402        %OUTSIGN(V=ASDEF);
     1542     1412        %OUTLINE(S="'BIN(%BITS_ASDEF) UNAL,'");
     1543     1418        %OUT_STR(S="'      2 BASE '");
     1544     1421        %OUTSIGN(V=ASBAS);
     1545     1431        %OUTLINE(S="'BIN(%BITS_ASBAS) UNAL;'");
     1546     1437
     1547     1438        %OUTLINE(S="'DCL 1 ACTION_ROW(0:%ACTION_ROW_LEN) UNAL SYMREF READONLY,'");
     1548     1444        %OUT_STR(S="'      2 NEXT '");
     1549     1447        %OUTSIGN(V=ANCNXT);
     1550     1457        %OUTLINE(S="'BIN(%BITS_ANCNXT) UNAL,'");
     1551     1463        %OUT_STR(S="'      2 CHECK '");
PL6.E3A0      #005=OUTPUT_PARSE_SYMREFS File=LR_TABLE.:Z8A6TSI                   SAT 08/09/97 09:39 Page:270
     1552     1466        %OUTSIGN(V=ANCCHK);
     1553     1476        %OUTLINE(S="'BIN(%BITS_ANCCHK) UNAL;'");
     1554     1482
     1555     1483        %OUTLINE(S="'DCL 1 GOTO_COL(0:%GOTO_COL_LEN) UNAL SYMREF READONLY,'");
     1556     1489        %OUT_STR(S="'      2 DEFAULT '");
     1557     1492        %OUTSIGN(V=GTDEF);
     1558     1502        %OUTLINE(S="'BIN(%BITS_GTDEF) UNAL,'");
     1559     1508        %OUT_STR(S="'      2 BASE '");
     1560     1511        %OUTSIGN(V=GTBAS);
     1561     1521        %OUTLINE(S="'BIN(%BITS_GTBAS) UNAL;'");
     1562     1527
     1563     1528        %OUTLINE(S="'DCL 1 GOTO_ROW(0:%GOTO_ROW_LEN) UNAL SYMREF READONLY,'");
     1564     1534        %OUT_STR(S="'      2 NEXT '");
     1565     1537        %OUTSIGN(V=GNCNXT);
     1566     1547        %OUTLINE(S="'BIN(%BITS_GNCNXT) UNAL,'");
     1567     1553        %OUT_STR(S="'      2 CHECK '");
     1568     1556        %OUTSIGN(V=GNCCHK);
     1569     1566        %OUTLINE(S="'BIN(%BITS_GNCCHK) UNAL;'");
     1570     1572        %OUTLINE(S="'%MEND;'");
     1571     1578
     1572     1579    1   IF NOT OPTIONS(DTS_OPT) THEN
     1573     1580    2     DO;
     1574     1581            %OUTLINE(S="'%MACRO TSTRING_SYMREFS;'");
     1575     1587            %OUTLINE(S="'DCL 1 TERM_STRING(0:%TERM_STRING_LEN) UNAL SYMREF READONLY,'");
     1576     1593            %OUT_STR(S="'      2 INDX '");
     1577     1596            %OUTSIGN(V=T_S_INDX);
     1578     1606            %OUTLINE(S="'BIN(%BITS_T_S_INDX) UNAL,'");
     1579     1612            %OUT_STR(S="'      2 LEN '");
     1580     1615            %OUTSIGN(V=T_S_LEN);
     1581     1625            %OUTLINE(S="'BIN(%BITS_T_S_LEN) UNAL;'");
     1582     1631            %OUTLINE(S="'DCL TSTRING_SPACE SYMREF READONLY CHAR(%TSTRING_SPACE_LEN_CHARS);'"
              1631                );
     1583     1637            %OUTLINE(S="'%MEND;'");
     1584     1643    2     END;
     1585     1644
     1586     1645
     1587     1646    1   IF OPTIONS(ERROR_TABLE_OPT) THEN
PL6.E3A0      #005=OUTPUT_PARSE_SYMREFS File=LR_TABLE.:Z8A6TSI                   SAT 08/09/97 09:39 Page:271
     1588     1647          %OUTLINE(S="'%EQU LOCALLY_LEAST_COST_RECOVERY = ''1''B;'");
     1589     1653    1   ELSE
     1590     1654          %OUTLINE(S="'%EQU LOCALLY_LEAST_COST_RECOVERY = ''0''B;'");
     1591     1660
     1592     1661    1   END OUTPUT_PARSE_SYMREFS;
     1593     1662        %EOD;

PL6.E3A0      #005=OUTPUT_PARSE_SYMREFS File=LR_TABLE.:Z8A6TSI                   SAT 08/09/97 09:39 Page:272
--  Include file information  --

   LR_CNFG_EXT.:Z8A6TOU  cannot be made into a system file and is referenced.
   LR_IO_EXT.:Z8A6TOU  cannot be made into a system file and is referenced.
   LR_GRAM_EXT.:Z8A6TOU  cannot be made into a system file and is referenced.
      No diagnostics issued in procedure OUTPUT_PARSE_SYMREFS.

   Procedure OUTPUT_PARSE_SYMREFS requires 1041 words for executable code.
   Procedure OUTPUT_PARSE_SYMREFS is declared NOAUTO and requires 6 words of local(STATIC) storage.

PL6.E3A0      #005=OUTPUT_PARSE_SYMREFS File=LR_TABLE.:Z8A6TSI                   SAT 08/09/97 09:39 Page:273

 Object Unit name= OUTPUT_PARSE_SYMREFS                       File name= LR_TABLE.:Z8A6TOU
 UTS= AUG 09 '97 09:39:59.24 SAT                              Compiler= PL-6/E31         Sev=      00
 SharedLib= :SHARED_SYSTEM                                    Alt SharedLib=


    ****  Control sections  ****

 Sect   Type Bound  Init  Size OctSiz  Section name(segment info)
    0   Data  even  none     6      6  OUTPUT_PARSE_SYMREFS
    1  LblCom even  none     1      1  OUT_DCBN
    2   DCB   even  none     0      0  M$OU
    3   DCB   even  none     0      0  M$SO
    4   DCB   even  none     0      0  M$LO
    5   DCB   even  none     0      0  M$SI
    6   DCB   even  none     0      0  M$UI
    7  LblCom even  none  1401   2571  SYM_PTRS
    8  LblCom even  none  4001   7641  RIGHT_PARTS
    9  LblCom even  none  3002   5672  PROD
   10  LblCom even  none     1      1  NR_PROD
   11  LblCom even  none     1      1  NR_SYMS
   12  LblCom even  none     1      1  NR_TERM
   13  LblCom even  none     1      1  LAST_ACT
   14  LblCom even  none     1      1  LAST_NULL
   15  LblCom even  none     1      1  NR_ONRIGHT
   16  LblCom even  none     1      1  NR_NT
   17  LblCom even  none     1      1  PROD_LEN_MAX_EVER
   18  LblCom even  none     1      1  LAST_ORDER_SPECIFIED
   19  LblCom even  none     1      1  SEMANTIC_ORDERING
   20  LblCom even  none     1      1  ERR_SEV
   21  LblCom even  none     1      1  SET_LENGTHB
   22  LblCom even  none     1      1  SET_LENGTHW
   23  LblCom even  none     1      1  EOF_SYMBOL_PTR
   24  LblCom even  none     1      1  ERROR_SYMBOL_PTR
   25  LblCom even  none     1      1  BOF_SYMBOL_PTR
   26  LblCom even  none     1      1  OPTIONS
   27  LblCom even  none    26     32  OPTIONS_TEXT
   28  LblCom even  none   128    200  INSTR
PL6.E3A0      #005=OUTPUT_PARSE_SYMREFS File=LR_TABLE.:Z8A6TSI                   SAT 08/09/97 09:39 Page:274
   29  LblCom even  none     1      1  INSTR_LISTED
   30  LblCom even  none     1      1  INSTR_LEN
   31  LblCom even  none     1      1  INSTR_INDX
   32  LblCom even  none     1      1  EOF_FLAG
   33  LblCom even  none     3      3  KEY_REC
   34  LblCom even  none    28     34  LINE
   35  LblCom even  none     1      1  LINELEN
   36  LblCom even  none   205    315  TSTATS
   37  LblCom even  none  2201   4231  C#_TO_$
   38  LblCom even  none     1      1  NR_CONFIG
   39  LblCom even  none     1      1  INIT_CONFIG
   40  LblCom even  none     1      1  MAX_BASIS_ITEMS
   41  LblCom even  none     1      1  MAX_TOTAL_ITEMS
   42  LblCom even  none     1      1  LAST_BINSRCH_ONLY
   43  LblCom even  none     1      1  LAST_BOTH_BITBIN
   44  RoData even  UTS    742   1346  OUTPUT_PARSE_SYMREFS
   45   Proc  even  none  1041   2021  OUTPUT_PARSE_SYMREFS
   46  RoData even  none   282    432  OUTPUT_PARSE_SYMREFS

    ****  Entry defs  ****

                              Check   Calling
                             calling  sequence
  Sect OctLoc Primary Altret sequence   type   Parms  Name
    45      0   yes            yes      Std        0  OUTPUT_PARSE_SYMREFS

  ****  Entry refs  ****

         Check        Calling
        calling       sequence
Altret sequence SRef   type   Args  Name
         yes           Std       1 GENTYPE
         yes           Std       3 OUTPUT_MIN_MAX_BITS
         yes           Std       3 OUTPUT_BITS
         yes           Std       2 OUT_STR
         yes           Std       0 FLUSH
PL6.E3A0      #005=OUTPUT_PARSE_SYMREFS File=LR_TABLE.:Z8A6TSI                   SAT 08/09/97 09:39 Page:275

  ****  Data refs  ****

  Flags:  r = read only, s = secondary
Flgs Name                             Flgs Name                             Flgs Name
     M$OU                                  M$SO                                  M$LO
     M$SI                                  M$UI

  ****  Segment refs  ****

  Flags:  r = read only, s = secondary
Flgs Name                             Flgs Name                             Flgs Name
     NULLSID                               ISSID
PL6.E3A0      #005=OUTPUT_PARSE_SYMREFS File=LR_TABLE.:Z8A6TSI                   SAT 08/09/97 09:39 Page:276


     1341        1        /*T***********************************************************/
     1342        2        /*T*                                                         */
     1343        3        /*T* Copyright (c) Bull HN Information Systems Inc., 1997    */
     1344        4        /*T*                                                         */
     1345        5        /*T***********************************************************/
     1346        6        OUTPUT_PARSE_SYMREFS : PROC NOAUTO;

      6 45 000000   000000 741200 0     OUTPUT_PARS* STX1  ! 0

     1347        7
     1348        8        %INCLUDE LR_GRAM_EXT;
     1349      547        %INCLUDE LR_CNFG_EXT;
     1350      700
     1351      701    1   DCL OUT_STR ENTRY(2);
     1352      702    1   DCL FLUSH ENTRY;
     1353      703    1   DCL OUT_DEC ENTRY(1);
     1354      704    1   DCL OUTPUT_BITS ENTRY(3);
     1355      705    1   DCL GENTYPE ENTRY(1);
     1356      706    1   DCL OUTPUT_MIN_MAX_BITS ENTRY(3);
     1357      707
     1358      708        %MACRO OUTPUT_MMB  (N=" " , TS=);
     1359      709          DO;
     1360      710            CALL OUTPUT_MIN_MAX_BITS ( N,
     1361      711                                       %(LENGTHC(N)),
     1362      712                                       TS);
     1363      713          END;
     1364      714        %MEND;
     1365      715
     1366      716        %MACRO OUTPUT_BITS(N=" ", V=);
     1367      717          DO;
     1368      718            CALL OUTPUT_BITS ( N,
     1369      719                               %(LENGTHC(N)),
     1370      720                               V);
     1371      721          END;
     1372      722        %MEND;
     1373      723
PL6.E3A0      #005=OUTPUT_PARSE_SYMREFS File=LR_TABLE.:Z8A6TSI                   SAT 08/09/97 09:39 Page:277
     1374      724
     1375      725        %MACRO OUTSIGN(V=" ");
     1376      726          IF TSTATS.V.SIGNED THEN
     1377      727            %OUT_STR(S="'S'");
     1378      728          ELSE
     1379      729            %OUT_STR(S="'U'");
     1380      730        %MEND;
     1381      731
     1382      732
     1383      733    1   CALL GENTYPE(TSTATS.GOAL);

    733 45 000001   000001 630400 46                 EPPR0   1
        45 000002   000000 631400 46                 EPPR1   0
        45 000003   000000 701000 xent               TSX1    GENTYPE
        45 000004   000000 011000                    NOP     0

     1384      734    1   CALL GENTYPE(TSTATS.PSS);

    734 45 000005   000002 630400 46                 EPPR0   2
        45 000006   000000 631400 46                 EPPR1   0
        45 000007   000000 701000 xent               TSX1    GENTYPE
        45 000010   000000 011000                    NOP     0

     1385      735    1   CALL GENTYPE(TSTATS.SEM);

    735 45 000011   000003 630400 46                 EPPR0   3
        45 000012   000000 631400 46                 EPPR1   0
        45 000013   000000 701000 xent               TSX1    GENTYPE
        45 000014   000000 011000                    NOP     0

     1386      736    1   CALL GENTYPE(TSTATS.ASDEF);

    736 45 000015   000004 630400 46                 EPPR0   4
        45 000016   000000 631400 46                 EPPR1   0
        45 000017   000000 701000 xent               TSX1    GENTYPE
        45 000020   000000 011000                    NOP     0

PL6.E3A0      #005=OUTPUT_PARSE_SYMREFS File=LR_TABLE.:Z8A6TSI                   SAT 08/09/97 09:39 Page:278
     1387      737    1   CALL GENTYPE(TSTATS.ASBAS);

    737 45 000021   000005 630400 46                 EPPR0   5
        45 000022   000000 631400 46                 EPPR1   0
        45 000023   000000 701000 xent               TSX1    GENTYPE
        45 000024   000000 011000                    NOP     0

     1388      738    1   CALL GENTYPE(TSTATS.ANCNXT);

    738 45 000025   000006 630400 46                 EPPR0   6
        45 000026   000000 631400 46                 EPPR1   0
        45 000027   000000 701000 xent               TSX1    GENTYPE
        45 000030   000000 011000                    NOP     0

     1389      739    1   CALL GENTYPE(TSTATS.ANCCHK);

    739 45 000031   000007 630400 46                 EPPR0   7
        45 000032   000000 631400 46                 EPPR1   0
        45 000033   000000 701000 xent               TSX1    GENTYPE
        45 000034   000000 011000                    NOP     0

     1390      740    1   CALL GENTYPE(TSTATS.GTDEF);

    740 45 000035   000010 630400 46                 EPPR0   8
        45 000036   000000 631400 46                 EPPR1   0
        45 000037   000000 701000 xent               TSX1    GENTYPE
        45 000040   000000 011000                    NOP     0

     1391      741    1   CALL GENTYPE(TSTATS.GTBAS);

    741 45 000041   000011 630400 46                 EPPR0   9
        45 000042   000000 631400 46                 EPPR1   0
        45 000043   000000 701000 xent               TSX1    GENTYPE
        45 000044   000000 011000                    NOP     0

     1392      742    1   CALL GENTYPE(TSTATS.GNCNXT);

PL6.E3A0      #005=OUTPUT_PARSE_SYMREFS File=LR_TABLE.:Z8A6TSI                   SAT 08/09/97 09:39 Page:279
    742 45 000045   000012 630400 46                 EPPR0   10
        45 000046   000000 631400 46                 EPPR1   0
        45 000047   000000 701000 xent               TSX1    GENTYPE
        45 000050   000000 011000                    NOP     0

     1393      743    1   CALL GENTYPE(TSTATS.GNCCHK);

    743 45 000051   000013 630400 46                 EPPR0   11
        45 000052   000000 631400 46                 EPPR1   0
        45 000053   000000 701000 xent               TSX1    GENTYPE
        45 000054   000000 011000                    NOP     0

     1394      744
     1395      745    1   IF NOT OPTIONS(DTS_OPT) THEN

    745 45 000055   000000 236000 26                 LDQ     OPTIONS
        45 000056   020000 316003                    CANQ    8192,DU
        45 000057   000070 601000 45                 TNZ     s:754

     1396      746    2     DO;

     1397      747    2        CALL GENTYPE(TSTATS.T_S_INDX);

    747 45 000060   000014 630400 46                 EPPR0   12
        45 000061   000000 631400 46                 EPPR1   0
        45 000062   000000 701000 xent               TSX1    GENTYPE
        45 000063   000000 011000                    NOP     0

     1398      748    2        CALL GENTYPE(TSTATS.T_S_LEN);

    748 45 000064   000015 630400 46                 EPPR0   13
        45 000065   000000 631400 46                 EPPR1   0
        45 000066   000000 701000 xent               TSX1    GENTYPE
        45 000067   000000 011000                    NOP     0

     1399      749    2     END;

PL6.E3A0      #005=OUTPUT_PARSE_SYMREFS File=LR_TABLE.:Z8A6TSI                   SAT 08/09/97 09:39 Page:280
     1400      750
     1401      751
     1402      752
     1403      753        %SELECT_SUBS;

    754 45 000070   000000 236007 xsym               LDQ     M$SO,DL
        45 000071   000000 756000 1                  STQ     OUT_DCBN

     1404      756
     1405      757        %OUTPUT_MMB(N="'GOAL'", TS=TSTATS.GOAL);

    759 45 000072   000020 630400 46                 EPPR0   16
        45 000073   000016 631400 46                 EPPR1   14
        45 000074   000000 701000 xent               TSX1    OUTPUT_MIN_MAX_BITS
        45 000075   000000 011000                    NOP     0

     1406      764        %OUTPUT_MMB(N="'PSS'" , TS=TSTATS.PSS);

    766 45 000076   000024 630400 46                 EPPR0   20
        45 000077   000016 631400 46                 EPPR1   14
        45 000100   000000 701000 xent               TSX1    OUTPUT_MIN_MAX_BITS
        45 000101   000000 011000                    NOP     0

     1407      771        %OUTPUT_MMB(N="'SEM'",  TS=TSTATS.SEM);

    773 45 000102   000027 630400 46                 EPPR0   23
        45 000103   000016 631400 46                 EPPR1   14
        45 000104   000000 701000 xent               TSX1    OUTPUT_MIN_MAX_BITS
        45 000105   000000 011000                    NOP     0

     1408      778        %OUTPUT_BITS(N="'PRODR'", V=
               778            "TSTATS.GOAL.NBITS + TSTATS.PSS.NBITS + TSTATS.SEM.NBITS");

    780 45 000106   000005 236000 36                 LDQ     TSTATS+5
        45 000107   000013 036000 36                 ADLQ    TSTATS+11
        45 000110   000021 036000 36                 ADLQ    TSTATS+17
        45 000111   000002 756000 0                  STQ     2
PL6.E3A0      #005=OUTPUT_PARSE_SYMREFS File=LR_TABLE.:Z8A6TSI                   SAT 08/09/97 09:39 Page:281
        45 000112   000002 630400 0                  EPPR0   2
        45 000113   000005 450400 0                  STP0    5
        45 000114   000033 236000 46                 LDQ     27
        45 000115   000004 756000 0                  STQ     4
        45 000116   000034 236000 46                 LDQ     28
        45 000117   000003 756000 0                  STQ     3
        45 000120   000003 630400 0                  EPPR0   3
        45 000121   000016 631400 46                 EPPR1   14
        45 000122   000000 701000 xent               TSX1    OUTPUT_BITS
        45 000123   000000 011000                    NOP     0

     1409      785
     1410      786        %OUTLINE(S="'%MACRO START_TABLE_PRODR;'");

    788 45 000124   000037 630400 46                 EPPR0   31
        45 000125   000035 631400 46                 EPPR1   29
        45 000126   000000 701000 xent               TSX1    OUT_STR
        45 000127   000000 011000                    NOP     0

    789 45 000130   000041 631400 46                 EPPR1   33
        45 000131   000000 701000 xent               TSX1    FLUSH
        45 000132   000000 011000                    NOP     0

     1411      792        %OUTLINE(S=
               792           "'DCL 1 PRODR(0:%PRODR_LEN) BIT(%BITS_PRODR) UNAL CONSTANT SYMDEF INIT(''0''B'")
               792            ;

    794 45 000133   000043 630400 46                 EPPR0   35
        45 000134   000035 631400 46                 EPPR1   29
        45 000135   000000 701000 xent               TSX1    OUT_STR
        45 000136   000000 011000                    NOP     0

    795 45 000137   000041 631400 46                 EPPR1   33
        45 000140   000000 701000 xent               TSX1    FLUSH
        45 000141   000000 011000                    NOP     0

     1412      798        %OUTLINE(S="'%MEND;'");
PL6.E3A0      #005=OUTPUT_PARSE_SYMREFS File=LR_TABLE.:Z8A6TSI                   SAT 08/09/97 09:39 Page:282

    800 45 000142   000046 630400 46                 EPPR0   38
        45 000143   000035 631400 46                 EPPR1   29
        45 000144   000000 701000 xent               TSX1    OUT_STR
        45 000145   000000 011000                    NOP     0

    801 45 000146   000041 631400 46                 EPPR1   33
        45 000147   000000 701000 xent               TSX1    FLUSH
        45 000150   000000 011000                    NOP     0

     1413      804
     1414      805        %OUTLINE(S="'%MACRO PRODM(GOAL=0, PSS=0, SEM=0);'");

    807 45 000151   000051 630400 46                 EPPR0   41
        45 000152   000035 631400 46                 EPPR1   29
        45 000153   000000 701000 xent               TSX1    OUT_STR
        45 000154   000000 011000                    NOP     0

    808 45 000155   000041 631400 46                 EPPR1   33
        45 000156   000000 701000 xent               TSX1    FLUSH
        45 000157   000000 011000                    NOP     0

     1415      811        %OUTLINE(S=
     1416      812       "',%(CONCAT(BINBIT(GOAL,%BITS_GOAL),BINBIT(PSS,%BITS_PSS),BINBIT(SEM,%BITS_SEM)))'")
               812            ;

    814 45 000160   000054 630400 46                 EPPR0   44
        45 000161   000035 631400 46                 EPPR1   29
        45 000162   000000 701000 xent               TSX1    OUT_STR
        45 000163   000000 011000                    NOP     0

    815 45 000164   000041 631400 46                 EPPR1   33
        45 000165   000000 701000 xent               TSX1    FLUSH
        45 000166   000000 011000                    NOP     0

     1417      818        %OUTLINE(S="'%MEND;'");

PL6.E3A0      #005=OUTPUT_PARSE_SYMREFS File=LR_TABLE.:Z8A6TSI                   SAT 08/09/97 09:39 Page:283
    820 45 000167   000046 630400 46                 EPPR0   38
        45 000170   000035 631400 46                 EPPR1   29
        45 000171   000000 701000 xent               TSX1    OUT_STR
        45 000172   000000 011000                    NOP     0

    821 45 000173   000041 631400 46                 EPPR1   33
        45 000174   000000 701000 xent               TSX1    FLUSH
        45 000175   000000 011000                    NOP     0

     1418      824
     1419      825        %OUTLINE(S="'%MACRO END_TABLE_PRODR;'");

    827 45 000176   000057 630400 46                 EPPR0   47
        45 000177   000035 631400 46                 EPPR1   29
        45 000200   000000 701000 xent               TSX1    OUT_STR
        45 000201   000000 011000                    NOP     0

    828 45 000202   000041 631400 46                 EPPR1   33
        45 000203   000000 701000 xent               TSX1    FLUSH
        45 000204   000000 011000                    NOP     0

     1420      831        %OUTLINE(S="'    );'");

    833 45 000205   000061 630400 46                 EPPR0   49
        45 000206   000035 631400 46                 EPPR1   29
        45 000207   000000 701000 xent               TSX1    OUT_STR
        45 000210   000000 011000                    NOP     0

    834 45 000211   000041 631400 46                 EPPR1   33
        45 000212   000000 701000 xent               TSX1    FLUSH
        45 000213   000000 011000                    NOP     0

     1421      837        %OUTLINE(S="'%MEND;'");

    839 45 000214   000046 630400 46                 EPPR0   38
        45 000215   000035 631400 46                 EPPR1   29
        45 000216   000000 701000 xent               TSX1    OUT_STR
PL6.E3A0      #005=OUTPUT_PARSE_SYMREFS File=LR_TABLE.:Z8A6TSI                   SAT 08/09/97 09:39 Page:284
        45 000217   000000 011000                    NOP     0

    840 45 000220   000041 631400 46                 EPPR1   33
        45 000221   000000 701000 xent               TSX1    FLUSH
        45 000222   000000 011000                    NOP     0

     1422      843
     1423      844        %OUTPUT_MMB(N="'ASDEF'", TS=TSTATS.ASDEF);

    846 45 000223   000063 630400 46                 EPPR0   51
        45 000224   000016 631400 46                 EPPR1   14
        45 000225   000000 701000 xent               TSX1    OUTPUT_MIN_MAX_BITS
        45 000226   000000 011000                    NOP     0

     1424      851        %OUTPUT_MMB(N="'ASBAS'", TS=TSTATS.ASBAS);

    853 45 000227   000066 630400 46                 EPPR0   54
        45 000230   000016 631400 46                 EPPR1   14
        45 000231   000000 701000 xent               TSX1    OUTPUT_MIN_MAX_BITS
        45 000232   000000 011000                    NOP     0

     1425      858        %OUTPUT_BITS(N="'ACTION_COL'",  V="TSTATS.ASDEF.NBITS + TSTATS.ASBAS.NBITS");

    860 45 000233   000027 236000 36                 LDQ     TSTATS+23
        45 000234   000035 036000 36                 ADLQ    TSTATS+29
        45 000235   000002 756000 0                  STQ     2
        45 000236   000002 630400 0                  EPPR0   2
        45 000237   000005 450400 0                  STP0    5
        45 000240   000072 236000 46                 LDQ     58
        45 000241   000004 756000 0                  STQ     4
        45 000242   000073 236000 46                 LDQ     59
        45 000243   000003 756000 0                  STQ     3
        45 000244   000003 630400 0                  EPPR0   3
        45 000245   000016 631400 46                 EPPR1   14
        45 000246   000000 701000 xent               TSX1    OUTPUT_BITS
        45 000247   000000 011000                    NOP     0

PL6.E3A0      #005=OUTPUT_PARSE_SYMREFS File=LR_TABLE.:Z8A6TSI                   SAT 08/09/97 09:39 Page:285
     1426      865
     1427      866        %OUTLINE(S="'%MACRO START_TABLE_ACTION_COL;'");

    868 45 000250   000075 630400 46                 EPPR0   61
        45 000251   000035 631400 46                 EPPR1   29
        45 000252   000000 701000 xent               TSX1    OUT_STR
        45 000253   000000 011000                    NOP     0

    869 45 000254   000041 631400 46                 EPPR1   33
        45 000255   000000 701000 xent               TSX1    FLUSH
        45 000256   000000 011000                    NOP     0

     1428      872       %OUTLINE(S="'DCL 1 ACTION_COL(0:%ACTION_COL_LEN) BIT(%BITS_ACTION_COL) UNAL CONSTANT
               872         SYMDEF INIT(''0''B'");

    874 45 000257   000100 630400 46                 EPPR0   64
        45 000260   000035 631400 46                 EPPR1   29
        45 000261   000000 701000 xent               TSX1    OUT_STR
        45 000262   000000 011000                    NOP     0

    875 45 000263   000041 631400 46                 EPPR1   33
        45 000264   000000 701000 xent               TSX1    FLUSH
        45 000265   000000 011000                    NOP     0

     1429      878        %OUTLINE(S="'%MEND;'");

    880 45 000266   000046 630400 46                 EPPR0   38
        45 000267   000035 631400 46                 EPPR1   29
        45 000270   000000 701000 xent               TSX1    OUT_STR
        45 000271   000000 011000                    NOP     0

    881 45 000272   000041 631400 46                 EPPR1   33
        45 000273   000000 701000 xent               TSX1    FLUSH
        45 000274   000000 011000                    NOP     0

     1430      884
     1431      885        %OUTLINE(S="'%MACRO ASDEFBASM(DFL=0, BAS=0);'");
PL6.E3A0      #005=OUTPUT_PARSE_SYMREFS File=LR_TABLE.:Z8A6TSI                   SAT 08/09/97 09:39 Page:286

    887 45 000275   000103 630400 46                 EPPR0   67
        45 000276   000035 631400 46                 EPPR1   29
        45 000277   000000 701000 xent               TSX1    OUT_STR
        45 000300   000000 011000                    NOP     0

    888 45 000301   000041 631400 46                 EPPR1   33
        45 000302   000000 701000 xent               TSX1    FLUSH
        45 000303   000000 011000                    NOP     0

     1432      891        %OUTLINE(S="',%(CONCAT(BINBIT(DFL,%BITS_ASDEF),BINBIT(BAS,%BITS_ASBAS)))'");

    893 45 000304   000106 630400 46                 EPPR0   70
        45 000305   000035 631400 46                 EPPR1   29
        45 000306   000000 701000 xent               TSX1    OUT_STR
        45 000307   000000 011000                    NOP     0

    894 45 000310   000041 631400 46                 EPPR1   33
        45 000311   000000 701000 xent               TSX1    FLUSH
        45 000312   000000 011000                    NOP     0

     1433      897        %OUTLINE(S="'%MEND;'");

    899 45 000313   000046 630400 46                 EPPR0   38
        45 000314   000035 631400 46                 EPPR1   29
        45 000315   000000 701000 xent               TSX1    OUT_STR
        45 000316   000000 011000                    NOP     0

    900 45 000317   000041 631400 46                 EPPR1   33
        45 000320   000000 701000 xent               TSX1    FLUSH
        45 000321   000000 011000                    NOP     0

     1434      903
     1435      904        %OUTLINE(S="'%MACRO END_TABLE_ACTION_COL;'");

    906 45 000322   000111 630400 46                 EPPR0   73
        45 000323   000035 631400 46                 EPPR1   29
PL6.E3A0      #005=OUTPUT_PARSE_SYMREFS File=LR_TABLE.:Z8A6TSI                   SAT 08/09/97 09:39 Page:287
        45 000324   000000 701000 xent               TSX1    OUT_STR
        45 000325   000000 011000                    NOP     0

    907 45 000326   000041 631400 46                 EPPR1   33
        45 000327   000000 701000 xent               TSX1    FLUSH
        45 000330   000000 011000                    NOP     0

     1436      910        %OUTLINE(S="'    );'");

    912 45 000331   000061 630400 46                 EPPR0   49
        45 000332   000035 631400 46                 EPPR1   29
        45 000333   000000 701000 xent               TSX1    OUT_STR
        45 000334   000000 011000                    NOP     0

    913 45 000335   000041 631400 46                 EPPR1   33
        45 000336   000000 701000 xent               TSX1    FLUSH
        45 000337   000000 011000                    NOP     0

     1437      916        %OUTLINE(S="'%MEND;'");

    918 45 000340   000046 630400 46                 EPPR0   38
        45 000341   000035 631400 46                 EPPR1   29
        45 000342   000000 701000 xent               TSX1    OUT_STR
        45 000343   000000 011000                    NOP     0

    919 45 000344   000041 631400 46                 EPPR1   33
        45 000345   000000 701000 xent               TSX1    FLUSH
        45 000346   000000 011000                    NOP     0

     1438      922
     1439      923        %OUTPUT_MMB(N="'ANCNXT'", TS=TSTATS.ANCNXT);

    925 45 000347   000113 630400 46                 EPPR0   75
        45 000350   000016 631400 46                 EPPR1   14
        45 000351   000000 701000 xent               TSX1    OUTPUT_MIN_MAX_BITS
        45 000352   000000 011000                    NOP     0

PL6.E3A0      #005=OUTPUT_PARSE_SYMREFS File=LR_TABLE.:Z8A6TSI                   SAT 08/09/97 09:39 Page:288
     1440      930        %OUTPUT_MMB(N="'ANCCHK'", TS=TSTATS.ANCCHK);

    932 45 000353   000116 630400 46                 EPPR0   78
        45 000354   000016 631400 46                 EPPR1   14
        45 000355   000000 701000 xent               TSX1    OUTPUT_MIN_MAX_BITS
        45 000356   000000 011000                    NOP     0

     1441      937        %OUTPUT_BITS(N="'ACTION_ROW'", V="TSTATS.ANCNXT.NBITS + TSTATS.ANCCHK.NBITS");

    939 45 000357   000043 236000 36                 LDQ     TSTATS+35
        45 000360   000051 036000 36                 ADLQ    TSTATS+41
        45 000361   000002 756000 0                  STQ     2
        45 000362   000002 630400 0                  EPPR0   2
        45 000363   000005 450400 0                  STP0    5
        45 000364   000072 236000 46                 LDQ     58
        45 000365   000004 756000 0                  STQ     4
        45 000366   000121 236000 46                 LDQ     81
        45 000367   000003 756000 0                  STQ     3
        45 000370   000003 630400 0                  EPPR0   3
        45 000371   000016 631400 46                 EPPR1   14
        45 000372   000000 701000 xent               TSX1    OUTPUT_BITS
        45 000373   000000 011000                    NOP     0

     1442      944
     1443      945        %OUTLINE(S="'%MACRO START_TABLE_ACTION_ROW;'");

    947 45 000374   000122 630400 46                 EPPR0   82
        45 000375   000035 631400 46                 EPPR1   29
        45 000376   000000 701000 xent               TSX1    OUT_STR
        45 000377   000000 011000                    NOP     0

    948 45 000400   000041 631400 46                 EPPR1   33
        45 000401   000000 701000 xent               TSX1    FLUSH
        45 000402   000000 011000                    NOP     0

     1444      951       %OUTLINE(S="'DCL 1 ACTION_ROW(0:%ACTION_ROW_LEN) BIT(%BITS_ACTION_ROW) UNAL CONSTANT
               951         SYMDEF INIT(''0''B,''0''B'");
PL6.E3A0      #005=OUTPUT_PARSE_SYMREFS File=LR_TABLE.:Z8A6TSI                   SAT 08/09/97 09:39 Page:289

    953 45 000403   000125 630400 46                 EPPR0   85
        45 000404   000035 631400 46                 EPPR1   29
        45 000405   000000 701000 xent               TSX1    OUT_STR
        45 000406   000000 011000                    NOP     0

    954 45 000407   000041 631400 46                 EPPR1   33
        45 000410   000000 701000 xent               TSX1    FLUSH
        45 000411   000000 011000                    NOP     0

     1445      957        %OUTLINE(S="'%MEND;'");

    959 45 000412   000046 630400 46                 EPPR0   38
        45 000413   000035 631400 46                 EPPR1   29
        45 000414   000000 701000 xent               TSX1    OUT_STR
        45 000415   000000 011000                    NOP     0

    960 45 000416   000041 631400 46                 EPPR1   33
        45 000417   000000 701000 xent               TSX1    FLUSH
        45 000420   000000 011000                    NOP     0

     1446      963
     1447      964        %OUTLINE(S="'%MACRO ANCM(NXT=0, CHK=0);'");

    966 45 000421   000130 630400 46                 EPPR0   88
        45 000422   000035 631400 46                 EPPR1   29
        45 000423   000000 701000 xent               TSX1    OUT_STR
        45 000424   000000 011000                    NOP     0

    967 45 000425   000041 631400 46                 EPPR1   33
        45 000426   000000 701000 xent               TSX1    FLUSH
        45 000427   000000 011000                    NOP     0

     1448      970        %OUTLINE(S="',%(CONCAT(BINBIT(NXT,%BITS_ANCNXT),BINBIT(CHK,%BITS_ANCCHK)))'");

    972 45 000430   000133 630400 46                 EPPR0   91
        45 000431   000035 631400 46                 EPPR1   29
PL6.E3A0      #005=OUTPUT_PARSE_SYMREFS File=LR_TABLE.:Z8A6TSI                   SAT 08/09/97 09:39 Page:290
        45 000432   000000 701000 xent               TSX1    OUT_STR
        45 000433   000000 011000                    NOP     0

    973 45 000434   000041 631400 46                 EPPR1   33
        45 000435   000000 701000 xent               TSX1    FLUSH
        45 000436   000000 011000                    NOP     0

     1449      976        %OUTLINE(S="'%MEND;'");

    978 45 000437   000046 630400 46                 EPPR0   38
        45 000440   000035 631400 46                 EPPR1   29
        45 000441   000000 701000 xent               TSX1    OUT_STR
        45 000442   000000 011000                    NOP     0

    979 45 000443   000041 631400 46                 EPPR1   33
        45 000444   000000 701000 xent               TSX1    FLUSH
        45 000445   000000 011000                    NOP     0

     1450      982
     1451      983        %OUTLINE(S="'%MACRO END_TABLE_ACTION_ROW;'");

    985 45 000446   000135 630400 46                 EPPR0   93
        45 000447   000035 631400 46                 EPPR1   29
        45 000450   000000 701000 xent               TSX1    OUT_STR
        45 000451   000000 011000                    NOP     0

    986 45 000452   000041 631400 46                 EPPR1   33
        45 000453   000000 701000 xent               TSX1    FLUSH
        45 000454   000000 011000                    NOP     0

     1452      989        %OUTLINE(S="'    );'");

    991 45 000455   000137 630400 46                 EPPR0   95
        45 000456   000035 631400 46                 EPPR1   29
        45 000457   000000 701000 xent               TSX1    OUT_STR
        45 000460   000000 011000                    NOP     0

PL6.E3A0      #005=OUTPUT_PARSE_SYMREFS File=LR_TABLE.:Z8A6TSI                   SAT 08/09/97 09:39 Page:291
    992 45 000461   000041 631400 46                 EPPR1   33
        45 000462   000000 701000 xent               TSX1    FLUSH
        45 000463   000000 011000                    NOP     0

     1453      995        %OUTLINE(S="'%MEND;'");

    997 45 000464   000141 630400 46                 EPPR0   97
        45 000465   000035 631400 46                 EPPR1   29
        45 000466   000000 701000 xent               TSX1    OUT_STR
        45 000467   000000 011000                    NOP     0

    998 45 000470   000041 631400 46                 EPPR1   33
        45 000471   000000 701000 xent               TSX1    FLUSH
        45 000472   000000 011000                    NOP     0

     1454     1001
     1455     1002
     1456     1003        %OUTPUT_MMB(N="'GTDEF'", TS=TSTATS.GTDEF);

   1005 45 000473   000143 630400 46                 EPPR0   99
        45 000474   000016 631400 46                 EPPR1   14
        45 000475   000000 701000 xent               TSX1    OUTPUT_MIN_MAX_BITS
        45 000476   000000 011000                    NOP     0

     1457     1010        %OUTPUT_MMB(N="'GTBAS'", TS=TSTATS.GTBAS);

   1012 45 000477   000146 630400 46                 EPPR0   102
        45 000500   000016 631400 46                 EPPR1   14
        45 000501   000000 701000 xent               TSX1    OUTPUT_MIN_MAX_BITS
        45 000502   000000 011000                    NOP     0

     1458     1017        %OUTPUT_BITS(N="'GOTO_COL'", V="TSTATS.GTDEF.NBITS + TSTATS.GTBAS.NBITS");

   1019 45 000503   000057 236000 36                 LDQ     TSTATS+47
        45 000504   000065 036000 36                 ADLQ    TSTATS+53
        45 000505   000002 756000 0                  STQ     2
        45 000506   000002 630400 0                  EPPR0   2
PL6.E3A0      #005=OUTPUT_PARSE_SYMREFS File=LR_TABLE.:Z8A6TSI                   SAT 08/09/97 09:39 Page:292
        45 000507   000005 450400 0                  STP0    5
        45 000510   000152 236000 46                 LDQ     106
        45 000511   000004 756000 0                  STQ     4
        45 000512   000153 236000 46                 LDQ     107
        45 000513   000003 756000 0                  STQ     3
        45 000514   000003 630400 0                  EPPR0   3
        45 000515   000016 631400 46                 EPPR1   14
        45 000516   000000 701000 xent               TSX1    OUTPUT_BITS
        45 000517   000000 011000                    NOP     0

     1459     1024
     1460     1025        %OUTLINE(S="'%MACRO START_TABLE_GOTO_COL;'");

   1027 45 000520   000154 630400 46                 EPPR0   108
        45 000521   000035 631400 46                 EPPR1   29
        45 000522   000000 701000 xent               TSX1    OUT_STR
        45 000523   000000 011000                    NOP     0

   1028 45 000524   000041 631400 46                 EPPR1   33
        45 000525   000000 701000 xent               TSX1    FLUSH
        45 000526   000000 011000                    NOP     0

     1461     1031       %OUTLINE(S="'DCL 1 GOTO_COL(0:%GOTO_COL_LEN) BIT(%BITS_GOTO_COL) UNAL CONSTANT SYMDE
              1031        F INIT(''0''B'");

   1033 45 000527   000157 630400 46                 EPPR0   111
        45 000530   000035 631400 46                 EPPR1   29
        45 000531   000000 701000 xent               TSX1    OUT_STR
        45 000532   000000 011000                    NOP     0

   1034 45 000533   000041 631400 46                 EPPR1   33
        45 000534   000000 701000 xent               TSX1    FLUSH
        45 000535   000000 011000                    NOP     0

     1462     1037        %OUTLINE(S="'%MEND;'");

   1039 45 000536   000141 630400 46                 EPPR0   97
PL6.E3A0      #005=OUTPUT_PARSE_SYMREFS File=LR_TABLE.:Z8A6TSI                   SAT 08/09/97 09:39 Page:293
        45 000537   000035 631400 46                 EPPR1   29
        45 000540   000000 701000 xent               TSX1    OUT_STR
        45 000541   000000 011000                    NOP     0

   1040 45 000542   000041 631400 46                 EPPR1   33
        45 000543   000000 701000 xent               TSX1    FLUSH
        45 000544   000000 011000                    NOP     0

     1463     1043
     1464     1044        %OUTLINE(S="'%MACRO GTDEFBASM(DFL=0, BAS=0);'");

   1046 45 000545   000161 630400 46                 EPPR0   113
        45 000546   000035 631400 46                 EPPR1   29
        45 000547   000000 701000 xent               TSX1    OUT_STR
        45 000550   000000 011000                    NOP     0

   1047 45 000551   000041 631400 46                 EPPR1   33
        45 000552   000000 701000 xent               TSX1    FLUSH
        45 000553   000000 011000                    NOP     0

     1465     1050        %OUTLINE(S="',%(CONCAT(BINBIT(DFL,%BITS_GTDEF),BINBIT(BAS,%BITS_GTBAS)))'");

   1052 45 000554   000163 630400 46                 EPPR0   115
        45 000555   000035 631400 46                 EPPR1   29
        45 000556   000000 701000 xent               TSX1    OUT_STR
        45 000557   000000 011000                    NOP     0

   1053 45 000560   000041 631400 46                 EPPR1   33
        45 000561   000000 701000 xent               TSX1    FLUSH
        45 000562   000000 011000                    NOP     0

     1466     1056        %OUTLINE(S="'%MEND;'");

   1058 45 000563   000141 630400 46                 EPPR0   97
        45 000564   000035 631400 46                 EPPR1   29
        45 000565   000000 701000 xent               TSX1    OUT_STR
        45 000566   000000 011000                    NOP     0
PL6.E3A0      #005=OUTPUT_PARSE_SYMREFS File=LR_TABLE.:Z8A6TSI                   SAT 08/09/97 09:39 Page:294

   1059 45 000567   000041 631400 46                 EPPR1   33
        45 000570   000000 701000 xent               TSX1    FLUSH
        45 000571   000000 011000                    NOP     0

     1467     1062
     1468     1063        %OUTLINE(S="'%MACRO END_TABLE_GOTO_COL;'");

   1065 45 000572   000165 630400 46                 EPPR0   117
        45 000573   000035 631400 46                 EPPR1   29
        45 000574   000000 701000 xent               TSX1    OUT_STR
        45 000575   000000 011000                    NOP     0

   1066 45 000576   000041 631400 46                 EPPR1   33
        45 000577   000000 701000 xent               TSX1    FLUSH
        45 000600   000000 011000                    NOP     0

     1469     1069        %OUTLINE(S="'    );'");

   1071 45 000601   000137 630400 46                 EPPR0   95
        45 000602   000035 631400 46                 EPPR1   29
        45 000603   000000 701000 xent               TSX1    OUT_STR
        45 000604   000000 011000                    NOP     0

   1072 45 000605   000041 631400 46                 EPPR1   33
        45 000606   000000 701000 xent               TSX1    FLUSH
        45 000607   000000 011000                    NOP     0

     1470     1075        %OUTLINE(S="'%MEND;'");

   1077 45 000610   000141 630400 46                 EPPR0   97
        45 000611   000035 631400 46                 EPPR1   29
        45 000612   000000 701000 xent               TSX1    OUT_STR
        45 000613   000000 011000                    NOP     0

   1078 45 000614   000041 631400 46                 EPPR1   33
        45 000615   000000 701000 xent               TSX1    FLUSH
PL6.E3A0      #005=OUTPUT_PARSE_SYMREFS File=LR_TABLE.:Z8A6TSI                   SAT 08/09/97 09:39 Page:295
        45 000616   000000 011000                    NOP     0

     1471     1081
     1472     1082        %OUTPUT_MMB(N="'GNCNXT'", TS=TSTATS.GNCNXT);

   1084 45 000617   000167 630400 46                 EPPR0   119
        45 000620   000016 631400 46                 EPPR1   14
        45 000621   000000 701000 xent               TSX1    OUTPUT_MIN_MAX_BITS
        45 000622   000000 011000                    NOP     0

     1473     1089        %OUTPUT_MMB(N="'GNCCHK'", TS=TSTATS.GNCCHK);

   1091 45 000623   000172 630400 46                 EPPR0   122
        45 000624   000016 631400 46                 EPPR1   14
        45 000625   000000 701000 xent               TSX1    OUTPUT_MIN_MAX_BITS
        45 000626   000000 011000                    NOP     0

     1474     1096        %OUTPUT_BITS(N="'GOTO_ROW'", V="TSTATS.GNCNXT.NBITS + TSTATS.GNCCHK.NBITS");

   1098 45 000627   000073 236000 36                 LDQ     TSTATS+59
        45 000630   000101 036000 36                 ADLQ    TSTATS+65
        45 000631   000002 756000 0                  STQ     2
        45 000632   000002 630400 0                  EPPR0   2
        45 000633   000005 450400 0                  STP0    5
        45 000634   000152 236000 46                 LDQ     106
        45 000635   000004 756000 0                  STQ     4
        45 000636   000175 236000 46                 LDQ     125
        45 000637   000003 756000 0                  STQ     3
        45 000640   000003 630400 0                  EPPR0   3
        45 000641   000016 631400 46                 EPPR1   14
        45 000642   000000 701000 xent               TSX1    OUTPUT_BITS
        45 000643   000000 011000                    NOP     0

     1475     1103
     1476     1104        %OUTLINE(S="'%MACRO START_TABLE_GOTO_ROW;'");

   1106 45 000644   000176 630400 46                 EPPR0   126
PL6.E3A0      #005=OUTPUT_PARSE_SYMREFS File=LR_TABLE.:Z8A6TSI                   SAT 08/09/97 09:39 Page:296
        45 000645   000035 631400 46                 EPPR1   29
        45 000646   000000 701000 xent               TSX1    OUT_STR
        45 000647   000000 011000                    NOP     0

   1107 45 000650   000041 631400 46                 EPPR1   33
        45 000651   000000 701000 xent               TSX1    FLUSH
        45 000652   000000 011000                    NOP     0

     1477     1110       %OUTLINE(S="'DCL 1 GOTO_ROW(0:%GOTO_ROW_LEN) BIT(%BITS_GOTO_ROW) UNAL CONSTANT SYMDE
              1110        F INIT(''0''B,''0''B'");

   1112 45 000653   000201 630400 46                 EPPR0   129
        45 000654   000035 631400 46                 EPPR1   29
        45 000655   000000 701000 xent               TSX1    OUT_STR
        45 000656   000000 011000                    NOP     0

   1113 45 000657   000041 631400 46                 EPPR1   33
        45 000660   000000 701000 xent               TSX1    FLUSH
        45 000661   000000 011000                    NOP     0

     1478     1116        %OUTLINE(S="'%MEND;'");

   1118 45 000662   000141 630400 46                 EPPR0   97
        45 000663   000035 631400 46                 EPPR1   29
        45 000664   000000 701000 xent               TSX1    OUT_STR
        45 000665   000000 011000                    NOP     0

   1119 45 000666   000041 631400 46                 EPPR1   33
        45 000667   000000 701000 xent               TSX1    FLUSH
        45 000670   000000 011000                    NOP     0

     1479     1122
     1480     1123        %OUTLINE(S="'%MACRO GNCM(NXT=0, CHK=0);'");

   1125 45 000671   000203 630400 46                 EPPR0   131
        45 000672   000035 631400 46                 EPPR1   29
        45 000673   000000 701000 xent               TSX1    OUT_STR
PL6.E3A0      #005=OUTPUT_PARSE_SYMREFS File=LR_TABLE.:Z8A6TSI                   SAT 08/09/97 09:39 Page:297
        45 000674   000000 011000                    NOP     0

   1126 45 000675   000041 631400 46                 EPPR1   33
        45 000676   000000 701000 xent               TSX1    FLUSH
        45 000677   000000 011000                    NOP     0

     1481     1129        %OUTLINE(S="',%(CONCAT(BINBIT(NXT,%BITS_GNCNXT),BINBIT(CHK,%BITS_GNCCHK)))'");

   1131 45 000700   000205 630400 46                 EPPR0   133
        45 000701   000035 631400 46                 EPPR1   29
        45 000702   000000 701000 xent               TSX1    OUT_STR
        45 000703   000000 011000                    NOP     0

   1132 45 000704   000041 631400 46                 EPPR1   33
        45 000705   000000 701000 xent               TSX1    FLUSH
        45 000706   000000 011000                    NOP     0

     1482     1135        %OUTLINE(S="'%MEND;'");

   1137 45 000707   000141 630400 46                 EPPR0   97
        45 000710   000035 631400 46                 EPPR1   29
        45 000711   000000 701000 xent               TSX1    OUT_STR
        45 000712   000000 011000                    NOP     0

   1138 45 000713   000041 631400 46                 EPPR1   33
        45 000714   000000 701000 xent               TSX1    FLUSH
        45 000715   000000 011000                    NOP     0

     1483     1141
     1484     1142        %OUTLINE(S="'%MACRO END_TABLE_GOTO_ROW;'");

   1144 45 000716   000207 630400 46                 EPPR0   135
        45 000717   000035 631400 46                 EPPR1   29
        45 000720   000000 701000 xent               TSX1    OUT_STR
        45 000721   000000 011000                    NOP     0

   1145 45 000722   000041 631400 46                 EPPR1   33
PL6.E3A0      #005=OUTPUT_PARSE_SYMREFS File=LR_TABLE.:Z8A6TSI                   SAT 08/09/97 09:39 Page:298
        45 000723   000000 701000 xent               TSX1    FLUSH
        45 000724   000000 011000                    NOP     0

     1485     1148        %OUTLINE(S="'    );'");

   1150 45 000725   000137 630400 46                 EPPR0   95
        45 000726   000035 631400 46                 EPPR1   29
        45 000727   000000 701000 xent               TSX1    OUT_STR
        45 000730   000000 011000                    NOP     0

   1151 45 000731   000041 631400 46                 EPPR1   33
        45 000732   000000 701000 xent               TSX1    FLUSH
        45 000733   000000 011000                    NOP     0

     1486     1154        %OUTLINE(S="'%MEND;'");

   1156 45 000734   000141 630400 46                 EPPR0   97
        45 000735   000035 631400 46                 EPPR1   29
        45 000736   000000 701000 xent               TSX1    OUT_STR
        45 000737   000000 011000                    NOP     0

   1157 45 000740   000041 631400 46                 EPPR1   33
        45 000741   000000 701000 xent               TSX1    FLUSH
        45 000742   000000 011000                    NOP     0

     1487     1160
     1488     1161
     1489     1162    1   IF NOT OPTIONS(DTS_OPT) THEN

   1162 45 000743   000000 236000 26                 LDQ     OPTIONS
        45 000744   020000 316003                    CANQ    8192,DU
        45 000745   001210 601000 45                 TNZ     s:1316

     1490     1163    2     DO;

     1491     1164            %OUTLINE(S="'%EQU DTS_OPTION = ''0''B;'");

PL6.E3A0      #005=OUTPUT_PARSE_SYMREFS File=LR_TABLE.:Z8A6TSI                   SAT 08/09/97 09:39 Page:299
   1166 45 000746   000211 630400 46                 EPPR0   137
        45 000747   000035 631400 46                 EPPR1   29
        45 000750   000000 701000 xent               TSX1    OUT_STR
        45 000751   000000 011000                    NOP     0

   1167 45 000752   000041 631400 46                 EPPR1   33
        45 000753   000000 701000 xent               TSX1    FLUSH
        45 000754   000000 011000                    NOP     0

     1492     1170            %OUTPUT_MMB(N="'T_S_INDX'", TS=TSTATS.T_S_INDX);

   1172 45 000755   000213 630400 46                 EPPR0   139
        45 000756   000016 631400 46                 EPPR1   14
        45 000757   000000 701000 xent               TSX1    OUTPUT_MIN_MAX_BITS
        45 000760   000000 011000                    NOP     0

     1493     1177            %OUTPUT_MMB(N="'T_S_LEN'", TS=TSTATS.T_S_LEN);

   1179 45 000761   000217 630400 46                 EPPR0   143
        45 000762   000016 631400 46                 EPPR1   14
        45 000763   000000 701000 xent               TSX1    OUTPUT_MIN_MAX_BITS
        45 000764   000000 011000                    NOP     0

     1494     1184           %OUTPUT_BITS(N="'TERM_STRING'", V="TSTATS.T_S_INDX.NBITS + TSTATS.T_S_LEN.NBITS"
              1184                );

   1186 45 000765   000175 236000 36                 LDQ     TSTATS+125
        45 000766   000203 036000 36                 ADLQ    TSTATS+131
        45 000767   000002 756000 0                  STQ     2
        45 000770   000002 630400 0                  EPPR0   2
        45 000771   000005 450400 0                  STP0    5
        45 000772   000223 236000 46                 LDQ     147
        45 000773   000004 756000 0                  STQ     4
        45 000774   000224 236000 46                 LDQ     148
        45 000775   000003 756000 0                  STQ     3
        45 000776   000003 630400 0                  EPPR0   3
        45 000777   000016 631400 46                 EPPR1   14
PL6.E3A0      #005=OUTPUT_PARSE_SYMREFS File=LR_TABLE.:Z8A6TSI                   SAT 08/09/97 09:39 Page:300
        45 001000   000000 701000 xent               TSX1    OUTPUT_BITS
        45 001001   000000 011000                    NOP     0

     1495     1191
     1496     1192            %OUTLINE(S="'%MACRO START_TABLE_TERM_STRING;'");

   1194 45 001002   000225 630400 46                 EPPR0   149
        45 001003   000035 631400 46                 EPPR1   29
        45 001004   000000 701000 xent               TSX1    OUT_STR
        45 001005   000000 011000                    NOP     0

   1195 45 001006   000041 631400 46                 EPPR1   33
        45 001007   000000 701000 xent               TSX1    FLUSH
        45 001010   000000 011000                    NOP     0

     1497     1198           %OUTLINE(S="'DCL 1 TERM_STRING(0:%TERM_STRING_LEN) BIT(%BITS_TERM_STRING) UNAL C
              1198        ONSTANT SYMDEF INIT(''0''B'");

   1200 45 001011   000230 630400 46                 EPPR0   152
        45 001012   000035 631400 46                 EPPR1   29
        45 001013   000000 701000 xent               TSX1    OUT_STR
        45 001014   000000 011000                    NOP     0

   1201 45 001015   000041 631400 46                 EPPR1   33
        45 001016   000000 701000 xent               TSX1    FLUSH
        45 001017   000000 011000                    NOP     0

     1498     1204            %OUTLINE(S="'%MEND;'");

   1206 45 001020   000141 630400 46                 EPPR0   97
        45 001021   000035 631400 46                 EPPR1   29
        45 001022   000000 701000 xent               TSX1    OUT_STR
        45 001023   000000 011000                    NOP     0

   1207 45 001024   000041 631400 46                 EPPR1   33
        45 001025   000000 701000 xent               TSX1    FLUSH
        45 001026   000000 011000                    NOP     0
PL6.E3A0      #005=OUTPUT_PARSE_SYMREFS File=LR_TABLE.:Z8A6TSI                   SAT 08/09/97 09:39 Page:301

     1499     1210
     1500     1211            %OUTLINE(S="'%MACRO TSTRING(I=0, L=0);'");

   1213 45 001027   000232 630400 46                 EPPR0   154
        45 001030   000035 631400 46                 EPPR1   29
        45 001031   000000 701000 xent               TSX1    OUT_STR
        45 001032   000000 011000                    NOP     0

   1214 45 001033   000041 631400 46                 EPPR1   33
        45 001034   000000 701000 xent               TSX1    FLUSH
        45 001035   000000 011000                    NOP     0

     1501     1217            %OUTLINE(S="',%(CONCAT(BINBIT(I,%BITS_T_S_INDX),BINBIT(L,%BITS_T_S_LEN)))'");

   1219 45 001036   000235 630400 46                 EPPR0   157
        45 001037   000035 631400 46                 EPPR1   29
        45 001040   000000 701000 xent               TSX1    OUT_STR
        45 001041   000000 011000                    NOP     0

   1220 45 001042   000041 631400 46                 EPPR1   33
        45 001043   000000 701000 xent               TSX1    FLUSH
        45 001044   000000 011000                    NOP     0

     1502     1223            %OUTLINE(S="'%MEND;'");

   1225 45 001045   000237 630400 46                 EPPR0   159
        45 001046   000035 631400 46                 EPPR1   29
        45 001047   000000 701000 xent               TSX1    OUT_STR
        45 001050   000000 011000                    NOP     0

   1226 45 001051   000041 631400 46                 EPPR1   33
        45 001052   000000 701000 xent               TSX1    FLUSH
        45 001053   000000 011000                    NOP     0

     1503     1229
     1504     1230            %OUTLINE(S="'%MACRO END_TABLE_TERM_STRING;'");
PL6.E3A0      #005=OUTPUT_PARSE_SYMREFS File=LR_TABLE.:Z8A6TSI                   SAT 08/09/97 09:39 Page:302

   1232 45 001054   000242 630400 46                 EPPR0   162
        45 001055   000035 631400 46                 EPPR1   29
        45 001056   000000 701000 xent               TSX1    OUT_STR
        45 001057   000000 011000                    NOP     0

   1233 45 001060   000041 631400 46                 EPPR1   33
        45 001061   000000 701000 xent               TSX1    FLUSH
        45 001062   000000 011000                    NOP     0

     1505     1236            %OUTLINE(S="'    );'");

   1238 45 001063   000244 630400 46                 EPPR0   164
        45 001064   000035 631400 46                 EPPR1   29
        45 001065   000000 701000 xent               TSX1    OUT_STR
        45 001066   000000 011000                    NOP     0

   1239 45 001067   000041 631400 46                 EPPR1   33
        45 001070   000000 701000 xent               TSX1    FLUSH
        45 001071   000000 011000                    NOP     0

     1506     1242            %OUTLINE(S="'%MEND;'");

   1244 45 001072   000237 630400 46                 EPPR0   159
        45 001073   000035 631400 46                 EPPR1   29
        45 001074   000000 701000 xent               TSX1    OUT_STR
        45 001075   000000 011000                    NOP     0

   1245 45 001076   000041 631400 46                 EPPR1   33
        45 001077   000000 701000 xent               TSX1    FLUSH
        45 001100   000000 011000                    NOP     0

     1507     1248
     1508     1249            %OUTLINE(S="'%MACRO START_TABLE_TSTRING_SPACE;'");

   1251 45 001101   000247 630400 46                 EPPR0   167
        45 001102   000035 631400 46                 EPPR1   29
PL6.E3A0      #005=OUTPUT_PARSE_SYMREFS File=LR_TABLE.:Z8A6TSI                   SAT 08/09/97 09:39 Page:303
        45 001103   000000 701000 xent               TSX1    OUT_STR
        45 001104   000000 011000                    NOP     0

   1252 45 001105   000041 631400 46                 EPPR1   33
        45 001106   000000 701000 xent               TSX1    FLUSH
        45 001107   000000 011000                    NOP     0

     1509     1255           %OUTLINE(S="'DCL TSTRING_SPACE(0:%TSTRING_SPACE_LEN) CHAR(40) CONSTANT SYMDEF'")
              1255                ;

   1257 45 001110   000252 630400 46                 EPPR0   170
        45 001111   000035 631400 46                 EPPR1   29
        45 001112   000000 701000 xent               TSX1    OUT_STR
        45 001113   000000 011000                    NOP     0

   1258 45 001114   000041 631400 46                 EPPR1   33
        45 001115   000000 701000 xent               TSX1    FLUSH
        45 001116   000000 011000                    NOP     0

     1510     1261            %OUTLINE(S="'         INIT(''                                        '''");

   1263 45 001117   000255 630400 46                 EPPR0   173
        45 001120   000035 631400 46                 EPPR1   29
        45 001121   000000 701000 xent               TSX1    OUT_STR
        45 001122   000000 011000                    NOP     0

   1264 45 001123   000041 631400 46                 EPPR1   33
        45 001124   000000 701000 xent               TSX1    FLUSH
        45 001125   000000 011000                    NOP     0

     1511     1267            %OUTLINE(S="'%MEND;'");

   1269 45 001126   000237 630400 46                 EPPR0   159
        45 001127   000035 631400 46                 EPPR1   29
        45 001130   000000 701000 xent               TSX1    OUT_STR
        45 001131   000000 011000                    NOP     0

PL6.E3A0      #005=OUTPUT_PARSE_SYMREFS File=LR_TABLE.:Z8A6TSI                   SAT 08/09/97 09:39 Page:304
   1270 45 001132   000041 631400 46                 EPPR1   33
        45 001133   000000 701000 xent               TSX1    FLUSH
        45 001134   000000 011000                    NOP     0

     1512     1273
     1513     1274            %OUTLINE(S="'%MACRO TSPACE(S=);'");

   1276 45 001135   000260 630400 46                 EPPR0   176
        45 001136   000035 631400 46                 EPPR1   29
        45 001137   000000 701000 xent               TSX1    OUT_STR
        45 001140   000000 011000                    NOP     0

   1277 45 001141   000041 631400 46                 EPPR1   33
        45 001142   000000 701000 xent               TSX1    FLUSH
        45 001143   000000 011000                    NOP     0

     1514     1280            %OUTLINE(S="',S'");

   1282 45 001144   000263 630400 46                 EPPR0   179
        45 001145   000035 631400 46                 EPPR1   29
        45 001146   000000 701000 xent               TSX1    OUT_STR
        45 001147   000000 011000                    NOP     0

   1283 45 001150   000041 631400 46                 EPPR1   33
        45 001151   000000 701000 xent               TSX1    FLUSH
        45 001152   000000 011000                    NOP     0

     1515     1286            %OUTLINE(S="'%MEND;'");

   1288 45 001153   000237 630400 46                 EPPR0   159
        45 001154   000035 631400 46                 EPPR1   29
        45 001155   000000 701000 xent               TSX1    OUT_STR
        45 001156   000000 011000                    NOP     0

   1289 45 001157   000041 631400 46                 EPPR1   33
        45 001160   000000 701000 xent               TSX1    FLUSH
        45 001161   000000 011000                    NOP     0
PL6.E3A0      #005=OUTPUT_PARSE_SYMREFS File=LR_TABLE.:Z8A6TSI                   SAT 08/09/97 09:39 Page:305

     1516     1292
     1517     1293            %OUTLINE(S="'%MACRO END_TABLE_TSTRING_SPACE;'");

   1295 45 001162   000265 630400 46                 EPPR0   181
        45 001163   000035 631400 46                 EPPR1   29
        45 001164   000000 701000 xent               TSX1    OUT_STR
        45 001165   000000 011000                    NOP     0

   1296 45 001166   000041 631400 46                 EPPR1   33
        45 001167   000000 701000 xent               TSX1    FLUSH
        45 001170   000000 011000                    NOP     0

     1518     1299            %OUTLINE(S="'    );'");

   1301 45 001171   000244 630400 46                 EPPR0   164
        45 001172   000035 631400 46                 EPPR1   29
        45 001173   000000 701000 xent               TSX1    OUT_STR
        45 001174   000000 011000                    NOP     0

   1302 45 001175   000041 631400 46                 EPPR1   33
        45 001176   000000 701000 xent               TSX1    FLUSH
        45 001177   000000 011000                    NOP     0

     1519     1305            %OUTLINE(S="'%MEND;'");

   1307 45 001200   000237 630400 46                 EPPR0   159
        45 001201   000035 631400 46                 EPPR1   29
        45 001202   000000 701000 xent               TSX1    OUT_STR
        45 001203   000000 011000                    NOP     0

   1308 45 001204   000041 631400 46                 EPPR1   33
        45 001205   000000 701000 xent               TSX1    FLUSH
        45 001206   000000 011000                    NOP     0

     1520     1311    2     END;

PL6.E3A0      #005=OUTPUT_PARSE_SYMREFS File=LR_TABLE.:Z8A6TSI                   SAT 08/09/97 09:39 Page:306
   1311 45 001207   001217 710000 45                 TRA     s:1324

     1521     1312    1   ELSE
     1522     1313    2     DO;

     1523     1314            %OUTLINE(S="'%EQU DTS_OPTION = ''1''B;'");

   1316 45 001210   000267 630400 46                 EPPR0   183
        45 001211   000035 631400 46                 EPPR1   29
        45 001212   000000 701000 xent               TSX1    OUT_STR
        45 001213   000000 011000                    NOP     0

   1317 45 001214   000041 631400 46                 EPPR1   33
        45 001215   000000 701000 xent               TSX1    FLUSH
        45 001216   000000 011000                    NOP     0

     1524     1320    2     END;

     1525     1321
     1526     1322        %OUTLINE(S="'%MACRO PARSE_SYMREFS;'");

   1324 45 001217   000272 630400 46                 EPPR0   186
        45 001220   000035 631400 46                 EPPR1   29
        45 001221   000000 701000 xent               TSX1    OUT_STR
        45 001222   000000 011000                    NOP     0

   1325 45 001223   000041 631400 46                 EPPR1   33
        45 001224   000000 701000 xent               TSX1    FLUSH
        45 001225   000000 011000                    NOP     0

     1527     1328
     1528     1329        %OUTLINE(S="'DCL 1 PRODR(0:%PRODR_LEN) UNAL SYMREF READONLY,'");

   1331 45 001226   000275 630400 46                 EPPR0   189
        45 001227   000035 631400 46                 EPPR1   29
        45 001230   000000 701000 xent               TSX1    OUT_STR
        45 001231   000000 011000                    NOP     0
PL6.E3A0      #005=OUTPUT_PARSE_SYMREFS File=LR_TABLE.:Z8A6TSI                   SAT 08/09/97 09:39 Page:307

   1332 45 001232   000041 631400 46                 EPPR1   33
        45 001233   000000 701000 xent               TSX1    FLUSH
        45 001234   000000 011000                    NOP     0

     1529     1335        %OUT_STR(S="'      2 GOAL '");

   1336 45 001235   000300 630400 46                 EPPR0   192
        45 001236   000035 631400 46                 EPPR1   29
        45 001237   000000 701000 xent               TSX1    OUT_STR
        45 001240   000000 011000                    NOP     0

     1530     1338        %OUTSIGN(V=GOAL);

   1339 45 001241   000004 234000 36                 SZN     TSTATS+4
        45 001242   001250 605000 45                 TPL     s:1345

   1341 45 001243   000304 630400 46                 EPPR0   196
        45 001244   000035 631400 46                 EPPR1   29
        45 001245   000000 701000 xent               TSX1    OUT_STR
        45 001246   000000 011000                    NOP     0
        45 001247   001254 710000 45                 TRA     s:1350

   1345 45 001250   000307 630400 46                 EPPR0   199
        45 001251   000035 631400 46                 EPPR1   29
        45 001252   000000 701000 xent               TSX1    OUT_STR
        45 001253   000000 011000                    NOP     0

     1531     1348        %OUTLINE(S="'BIN(%BITS_GOAL) UNAL,'");

   1350 45 001254   000311 630400 46                 EPPR0   201
        45 001255   000035 631400 46                 EPPR1   29
        45 001256   000000 701000 xent               TSX1    OUT_STR
        45 001257   000000 011000                    NOP     0

   1351 45 001260   000041 631400 46                 EPPR1   33
        45 001261   000000 701000 xent               TSX1    FLUSH
PL6.E3A0      #005=OUTPUT_PARSE_SYMREFS File=LR_TABLE.:Z8A6TSI                   SAT 08/09/97 09:39 Page:308
        45 001262   000000 011000                    NOP     0

     1532     1354        %OUT_STR(S="'      2 POPSTACK '");

   1355 45 001263   000314 630400 46                 EPPR0   204
        45 001264   000035 631400 46                 EPPR1   29
        45 001265   000000 701000 xent               TSX1    OUT_STR
        45 001266   000000 011000                    NOP     0

     1533     1357        %OUTSIGN(V=PSS);

   1358 45 001267   000012 234000 36                 SZN     TSTATS+10
        45 001270   001276 605000 45                 TPL     s:1364

   1360 45 001271   000304 630400 46                 EPPR0   196
        45 001272   000035 631400 46                 EPPR1   29
        45 001273   000000 701000 xent               TSX1    OUT_STR
        45 001274   000000 011000                    NOP     0
        45 001275   001302 710000 45                 TRA     s:1369

   1364 45 001276   000307 630400 46                 EPPR0   199
        45 001277   000035 631400 46                 EPPR1   29
        45 001300   000000 701000 xent               TSX1    OUT_STR
        45 001301   000000 011000                    NOP     0

     1534     1367        %OUTLINE(S="'BIN(%BITS_PSS) UNAL,'");

   1369 45 001302   000317 630400 46                 EPPR0   207
        45 001303   000035 631400 46                 EPPR1   29
        45 001304   000000 701000 xent               TSX1    OUT_STR
        45 001305   000000 011000                    NOP     0

   1370 45 001306   000041 631400 46                 EPPR1   33
        45 001307   000000 701000 xent               TSX1    FLUSH
        45 001310   000000 011000                    NOP     0

     1535     1373        %OUT_STR(S="'      2 SEMANTIC '");
PL6.E3A0      #005=OUTPUT_PARSE_SYMREFS File=LR_TABLE.:Z8A6TSI                   SAT 08/09/97 09:39 Page:309

   1374 45 001311   000321 630400 46                 EPPR0   209
        45 001312   000035 631400 46                 EPPR1   29
        45 001313   000000 701000 xent               TSX1    OUT_STR
        45 001314   000000 011000                    NOP     0

     1536     1376        %OUTSIGN(V=SEM);

   1377 45 001315   000020 234000 36                 SZN     TSTATS+16
        45 001316   001324 605000 45                 TPL     s:1383

   1379 45 001317   000304 630400 46                 EPPR0   196
        45 001320   000035 631400 46                 EPPR1   29
        45 001321   000000 701000 xent               TSX1    OUT_STR
        45 001322   000000 011000                    NOP     0
        45 001323   001330 710000 45                 TRA     s:1388

   1383 45 001324   000307 630400 46                 EPPR0   199
        45 001325   000035 631400 46                 EPPR1   29
        45 001326   000000 701000 xent               TSX1    OUT_STR
        45 001327   000000 011000                    NOP     0

     1537     1386        %OUTLINE(S="'BIN(%BITS_SEM) UNAL;'");

   1388 45 001330   000323 630400 46                 EPPR0   211
        45 001331   000035 631400 46                 EPPR1   29
        45 001332   000000 701000 xent               TSX1    OUT_STR
        45 001333   000000 011000                    NOP     0

   1389 45 001334   000041 631400 46                 EPPR1   33
        45 001335   000000 701000 xent               TSX1    FLUSH
        45 001336   000000 011000                    NOP     0

     1538     1392
     1539     1393        %OUTLINE(S="'DCL 1 ACTION_COL(0:%ACTION_COL_LEN) UNAL SYMREF READONLY,'");

   1395 45 001337   000326 630400 46                 EPPR0   214
PL6.E3A0      #005=OUTPUT_PARSE_SYMREFS File=LR_TABLE.:Z8A6TSI                   SAT 08/09/97 09:39 Page:310
        45 001340   000035 631400 46                 EPPR1   29
        45 001341   000000 701000 xent               TSX1    OUT_STR
        45 001342   000000 011000                    NOP     0

   1396 45 001343   000041 631400 46                 EPPR1   33
        45 001344   000000 701000 xent               TSX1    FLUSH
        45 001345   000000 011000                    NOP     0

     1540     1399        %OUT_STR(S="'      2 DEFAULT '");

   1400 45 001346   000331 630400 46                 EPPR0   217
        45 001347   000035 631400 46                 EPPR1   29
        45 001350   000000 701000 xent               TSX1    OUT_STR
        45 001351   000000 011000                    NOP     0

     1541     1402        %OUTSIGN(V=ASDEF);

   1403 45 001352   000026 234000 36                 SZN     TSTATS+22
        45 001353   001361 605000 45                 TPL     s:1409

   1405 45 001354   000304 630400 46                 EPPR0   196
        45 001355   000035 631400 46                 EPPR1   29
        45 001356   000000 701000 xent               TSX1    OUT_STR
        45 001357   000000 011000                    NOP     0
        45 001360   001365 710000 45                 TRA     s:1414

   1409 45 001361   000307 630400 46                 EPPR0   199
        45 001362   000035 631400 46                 EPPR1   29
        45 001363   000000 701000 xent               TSX1    OUT_STR
        45 001364   000000 011000                    NOP     0

     1542     1412        %OUTLINE(S="'BIN(%BITS_ASDEF) UNAL,'");

   1414 45 001365   000334 630400 46                 EPPR0   220
        45 001366   000035 631400 46                 EPPR1   29
        45 001367   000000 701000 xent               TSX1    OUT_STR
        45 001370   000000 011000                    NOP     0
PL6.E3A0      #005=OUTPUT_PARSE_SYMREFS File=LR_TABLE.:Z8A6TSI                   SAT 08/09/97 09:39 Page:311

   1415 45 001371   000041 631400 46                 EPPR1   33
        45 001372   000000 701000 xent               TSX1    FLUSH
        45 001373   000000 011000                    NOP     0

     1543     1418        %OUT_STR(S="'      2 BASE '");

   1419 45 001374   000336 630400 46                 EPPR0   222
        45 001375   000035 631400 46                 EPPR1   29
        45 001376   000000 701000 xent               TSX1    OUT_STR
        45 001377   000000 011000                    NOP     0

     1544     1421        %OUTSIGN(V=ASBAS);

   1422 45 001400   000034 234000 36                 SZN     TSTATS+28
        45 001401   001407 605000 45                 TPL     s:1428

   1424 45 001402   000304 630400 46                 EPPR0   196
        45 001403   000035 631400 46                 EPPR1   29
        45 001404   000000 701000 xent               TSX1    OUT_STR
        45 001405   000000 011000                    NOP     0
        45 001406   001413 710000 45                 TRA     s:1433

   1428 45 001407   000307 630400 46                 EPPR0   199
        45 001410   000035 631400 46                 EPPR1   29
        45 001411   000000 701000 xent               TSX1    OUT_STR
        45 001412   000000 011000                    NOP     0

     1545     1431        %OUTLINE(S="'BIN(%BITS_ASBAS) UNAL;'");

   1433 45 001413   000340 630400 46                 EPPR0   224
        45 001414   000035 631400 46                 EPPR1   29
        45 001415   000000 701000 xent               TSX1    OUT_STR
        45 001416   000000 011000                    NOP     0

   1434 45 001417   000041 631400 46                 EPPR1   33
        45 001420   000000 701000 xent               TSX1    FLUSH
PL6.E3A0      #005=OUTPUT_PARSE_SYMREFS File=LR_TABLE.:Z8A6TSI                   SAT 08/09/97 09:39 Page:312
        45 001421   000000 011000                    NOP     0

     1546     1437
     1547     1438        %OUTLINE(S="'DCL 1 ACTION_ROW(0:%ACTION_ROW_LEN) UNAL SYMREF READONLY,'");

   1440 45 001422   000342 630400 46                 EPPR0   226
        45 001423   000035 631400 46                 EPPR1   29
        45 001424   000000 701000 xent               TSX1    OUT_STR
        45 001425   000000 011000                    NOP     0

   1441 45 001426   000041 631400 46                 EPPR1   33
        45 001427   000000 701000 xent               TSX1    FLUSH
        45 001430   000000 011000                    NOP     0

     1548     1444        %OUT_STR(S="'      2 NEXT '");

   1445 45 001431   000344 630400 46                 EPPR0   228
        45 001432   000035 631400 46                 EPPR1   29
        45 001433   000000 701000 xent               TSX1    OUT_STR
        45 001434   000000 011000                    NOP     0

     1549     1447        %OUTSIGN(V=ANCNXT);

   1448 45 001435   000042 234000 36                 SZN     TSTATS+34
        45 001436   001444 605000 45                 TPL     s:1454

   1450 45 001437   000304 630400 46                 EPPR0   196
        45 001440   000035 631400 46                 EPPR1   29
        45 001441   000000 701000 xent               TSX1    OUT_STR
        45 001442   000000 011000                    NOP     0
        45 001443   001450 710000 45                 TRA     s:1459

   1454 45 001444   000307 630400 46                 EPPR0   199
        45 001445   000035 631400 46                 EPPR1   29
        45 001446   000000 701000 xent               TSX1    OUT_STR
        45 001447   000000 011000                    NOP     0

PL6.E3A0      #005=OUTPUT_PARSE_SYMREFS File=LR_TABLE.:Z8A6TSI                   SAT 08/09/97 09:39 Page:313
     1550     1457        %OUTLINE(S="'BIN(%BITS_ANCNXT) UNAL,'");

   1459 45 001450   000346 630400 46                 EPPR0   230
        45 001451   000035 631400 46                 EPPR1   29
        45 001452   000000 701000 xent               TSX1    OUT_STR
        45 001453   000000 011000                    NOP     0

   1460 45 001454   000041 631400 46                 EPPR1   33
        45 001455   000000 701000 xent               TSX1    FLUSH
        45 001456   000000 011000                    NOP     0

     1551     1463        %OUT_STR(S="'      2 CHECK '");

   1464 45 001457   000351 630400 46                 EPPR0   233
        45 001460   000035 631400 46                 EPPR1   29
        45 001461   000000 701000 xent               TSX1    OUT_STR
        45 001462   000000 011000                    NOP     0

     1552     1466        %OUTSIGN(V=ANCCHK);

   1467 45 001463   000050 234000 36                 SZN     TSTATS+40
        45 001464   001472 605000 45                 TPL     s:1473

   1469 45 001465   000304 630400 46                 EPPR0   196
        45 001466   000035 631400 46                 EPPR1   29
        45 001467   000000 701000 xent               TSX1    OUT_STR
        45 001470   000000 011000                    NOP     0
        45 001471   001476 710000 45                 TRA     s:1478

   1473 45 001472   000307 630400 46                 EPPR0   199
        45 001473   000035 631400 46                 EPPR1   29
        45 001474   000000 701000 xent               TSX1    OUT_STR
        45 001475   000000 011000                    NOP     0

     1553     1476        %OUTLINE(S="'BIN(%BITS_ANCCHK) UNAL;'");

   1478 45 001476   000353 630400 46                 EPPR0   235
PL6.E3A0      #005=OUTPUT_PARSE_SYMREFS File=LR_TABLE.:Z8A6TSI                   SAT 08/09/97 09:39 Page:314
        45 001477   000035 631400 46                 EPPR1   29
        45 001500   000000 701000 xent               TSX1    OUT_STR
        45 001501   000000 011000                    NOP     0

   1479 45 001502   000041 631400 46                 EPPR1   33
        45 001503   000000 701000 xent               TSX1    FLUSH
        45 001504   000000 011000                    NOP     0

     1554     1482
     1555     1483        %OUTLINE(S="'DCL 1 GOTO_COL(0:%GOTO_COL_LEN) UNAL SYMREF READONLY,'");

   1485 45 001505   000356 630400 46                 EPPR0   238
        45 001506   000035 631400 46                 EPPR1   29
        45 001507   000000 701000 xent               TSX1    OUT_STR
        45 001510   000000 011000                    NOP     0

   1486 45 001511   000041 631400 46                 EPPR1   33
        45 001512   000000 701000 xent               TSX1    FLUSH
        45 001513   000000 011000                    NOP     0

     1556     1489        %OUT_STR(S="'      2 DEFAULT '");

   1490 45 001514   000360 630400 46                 EPPR0   240
        45 001515   000035 631400 46                 EPPR1   29
        45 001516   000000 701000 xent               TSX1    OUT_STR
        45 001517   000000 011000                    NOP     0

     1557     1492        %OUTSIGN(V=GTDEF);

   1493 45 001520   000056 234000 36                 SZN     TSTATS+46
        45 001521   001527 605000 45                 TPL     s:1499

   1495 45 001522   000304 630400 46                 EPPR0   196
        45 001523   000035 631400 46                 EPPR1   29
        45 001524   000000 701000 xent               TSX1    OUT_STR
        45 001525   000000 011000                    NOP     0
        45 001526   001533 710000 45                 TRA     s:1504
PL6.E3A0      #005=OUTPUT_PARSE_SYMREFS File=LR_TABLE.:Z8A6TSI                   SAT 08/09/97 09:39 Page:315

   1499 45 001527   000307 630400 46                 EPPR0   199
        45 001530   000035 631400 46                 EPPR1   29
        45 001531   000000 701000 xent               TSX1    OUT_STR
        45 001532   000000 011000                    NOP     0

     1558     1502        %OUTLINE(S="'BIN(%BITS_GTDEF) UNAL,'");

   1504 45 001533   000362 630400 46                 EPPR0   242
        45 001534   000035 631400 46                 EPPR1   29
        45 001535   000000 701000 xent               TSX1    OUT_STR
        45 001536   000000 011000                    NOP     0

   1505 45 001537   000041 631400 46                 EPPR1   33
        45 001540   000000 701000 xent               TSX1    FLUSH
        45 001541   000000 011000                    NOP     0

     1559     1508        %OUT_STR(S="'      2 BASE '");

   1509 45 001542   000364 630400 46                 EPPR0   244
        45 001543   000035 631400 46                 EPPR1   29
        45 001544   000000 701000 xent               TSX1    OUT_STR
        45 001545   000000 011000                    NOP     0

     1560     1511        %OUTSIGN(V=GTBAS);

   1512 45 001546   000064 234000 36                 SZN     TSTATS+52
        45 001547   001555 605000 45                 TPL     s:1518

   1514 45 001550   000304 630400 46                 EPPR0   196
        45 001551   000035 631400 46                 EPPR1   29
        45 001552   000000 701000 xent               TSX1    OUT_STR
        45 001553   000000 011000                    NOP     0
        45 001554   001561 710000 45                 TRA     s:1523

   1518 45 001555   000307 630400 46                 EPPR0   199
        45 001556   000035 631400 46                 EPPR1   29
PL6.E3A0      #005=OUTPUT_PARSE_SYMREFS File=LR_TABLE.:Z8A6TSI                   SAT 08/09/97 09:39 Page:316
        45 001557   000000 701000 xent               TSX1    OUT_STR
        45 001560   000000 011000                    NOP     0

     1561     1521        %OUTLINE(S="'BIN(%BITS_GTBAS) UNAL;'");

   1523 45 001561   000366 630400 46                 EPPR0   246
        45 001562   000035 631400 46                 EPPR1   29
        45 001563   000000 701000 xent               TSX1    OUT_STR
        45 001564   000000 011000                    NOP     0

   1524 45 001565   000041 631400 46                 EPPR1   33
        45 001566   000000 701000 xent               TSX1    FLUSH
        45 001567   000000 011000                    NOP     0

     1562     1527
     1563     1528        %OUTLINE(S="'DCL 1 GOTO_ROW(0:%GOTO_ROW_LEN) UNAL SYMREF READONLY,'");

   1530 45 001570   000370 630400 46                 EPPR0   248
        45 001571   000035 631400 46                 EPPR1   29
        45 001572   000000 701000 xent               TSX1    OUT_STR
        45 001573   000000 011000                    NOP     0

   1531 45 001574   000041 631400 46                 EPPR1   33
        45 001575   000000 701000 xent               TSX1    FLUSH
        45 001576   000000 011000                    NOP     0

     1564     1534        %OUT_STR(S="'      2 NEXT '");

   1535 45 001577   000372 630400 46                 EPPR0   250
        45 001600   000035 631400 46                 EPPR1   29
        45 001601   000000 701000 xent               TSX1    OUT_STR
        45 001602   000000 011000                    NOP     0

     1565     1537        %OUTSIGN(V=GNCNXT);

   1538 45 001603   000072 234000 36                 SZN     TSTATS+58
        45 001604   001612 605000 45                 TPL     s:1544
PL6.E3A0      #005=OUTPUT_PARSE_SYMREFS File=LR_TABLE.:Z8A6TSI                   SAT 08/09/97 09:39 Page:317

   1540 45 001605   000304 630400 46                 EPPR0   196
        45 001606   000035 631400 46                 EPPR1   29
        45 001607   000000 701000 xent               TSX1    OUT_STR
        45 001610   000000 011000                    NOP     0
        45 001611   001616 710000 45                 TRA     s:1549

   1544 45 001612   000307 630400 46                 EPPR0   199
        45 001613   000035 631400 46                 EPPR1   29
        45 001614   000000 701000 xent               TSX1    OUT_STR
        45 001615   000000 011000                    NOP     0

     1566     1547        %OUTLINE(S="'BIN(%BITS_GNCNXT) UNAL,'");

   1549 45 001616   000374 630400 46                 EPPR0   252
        45 001617   000035 631400 46                 EPPR1   29
        45 001620   000000 701000 xent               TSX1    OUT_STR
        45 001621   000000 011000                    NOP     0

   1550 45 001622   000041 631400 46                 EPPR1   33
        45 001623   000000 701000 xent               TSX1    FLUSH
        45 001624   000000 011000                    NOP     0

     1567     1553        %OUT_STR(S="'      2 CHECK '");

   1554 45 001625   000376 630400 46                 EPPR0   254
        45 001626   000035 631400 46                 EPPR1   29
        45 001627   000000 701000 xent               TSX1    OUT_STR
        45 001630   000000 011000                    NOP     0

     1568     1556        %OUTSIGN(V=GNCCHK);

   1557 45 001631   000100 234000 36                 SZN     TSTATS+64
        45 001632   001640 605000 45                 TPL     s:1563

   1559 45 001633   000304 630400 46                 EPPR0   196
        45 001634   000035 631400 46                 EPPR1   29
PL6.E3A0      #005=OUTPUT_PARSE_SYMREFS File=LR_TABLE.:Z8A6TSI                   SAT 08/09/97 09:39 Page:318
        45 001635   000000 701000 xent               TSX1    OUT_STR
        45 001636   000000 011000                    NOP     0
        45 001637   001644 710000 45                 TRA     s:1568

   1563 45 001640   000307 630400 46                 EPPR0   199
        45 001641   000035 631400 46                 EPPR1   29
        45 001642   000000 701000 xent               TSX1    OUT_STR
        45 001643   000000 011000                    NOP     0

     1569     1566        %OUTLINE(S="'BIN(%BITS_GNCCHK) UNAL;'");

   1568 45 001644   000400 630400 46                 EPPR0   256
        45 001645   000035 631400 46                 EPPR1   29
        45 001646   000000 701000 xent               TSX1    OUT_STR
        45 001647   000000 011000                    NOP     0

   1569 45 001650   000041 631400 46                 EPPR1   33
        45 001651   000000 701000 xent               TSX1    FLUSH
        45 001652   000000 011000                    NOP     0

     1570     1572        %OUTLINE(S="'%MEND;'");

   1574 45 001653   000402 630400 46                 EPPR0   258
        45 001654   000035 631400 46                 EPPR1   29
        45 001655   000000 701000 xent               TSX1    OUT_STR
        45 001656   000000 011000                    NOP     0

   1575 45 001657   000041 631400 46                 EPPR1   33
        45 001660   000000 701000 xent               TSX1    FLUSH
        45 001661   000000 011000                    NOP     0

     1571     1578
     1572     1579    1   IF NOT OPTIONS(DTS_OPT) THEN

   1579 45 001662   000000 236000 26                 LDQ     OPTIONS
        45 001663   020000 316003                    CANQ    8192,DU
        45 001664   001775 601000 45                 TNZ     s:1646
PL6.E3A0      #005=OUTPUT_PARSE_SYMREFS File=LR_TABLE.:Z8A6TSI                   SAT 08/09/97 09:39 Page:319

     1573     1580    2     DO;

     1574     1581            %OUTLINE(S="'%MACRO TSTRING_SYMREFS;'");

   1583 45 001665   000404 630400 46                 EPPR0   260
        45 001666   000035 631400 46                 EPPR1   29
        45 001667   000000 701000 xent               TSX1    OUT_STR
        45 001670   000000 011000                    NOP     0

   1584 45 001671   000041 631400 46                 EPPR1   33
        45 001672   000000 701000 xent               TSX1    FLUSH
        45 001673   000000 011000                    NOP     0

     1575     1587            %OUTLINE(S="'DCL 1 TERM_STRING(0:%TERM_STRING_LEN) UNAL SYMREF READONLY,'");

   1589 45 001674   000406 630400 46                 EPPR0   262
        45 001675   000035 631400 46                 EPPR1   29
        45 001676   000000 701000 xent               TSX1    OUT_STR
        45 001677   000000 011000                    NOP     0

   1590 45 001700   000041 631400 46                 EPPR1   33
        45 001701   000000 701000 xent               TSX1    FLUSH
        45 001702   000000 011000                    NOP     0

     1576     1593            %OUT_STR(S="'      2 INDX '");

   1594 45 001703   000410 630400 46                 EPPR0   264
        45 001704   000035 631400 46                 EPPR1   29
        45 001705   000000 701000 xent               TSX1    OUT_STR
        45 001706   000000 011000                    NOP     0

     1577     1596            %OUTSIGN(V=T_S_INDX);

   1597 45 001707   000174 234000 36                 SZN     TSTATS+124
        45 001710   001716 605000 45                 TPL     s:1603

PL6.E3A0      #005=OUTPUT_PARSE_SYMREFS File=LR_TABLE.:Z8A6TSI                   SAT 08/09/97 09:39 Page:320
   1599 45 001711   000304 630400 46                 EPPR0   196
        45 001712   000035 631400 46                 EPPR1   29
        45 001713   000000 701000 xent               TSX1    OUT_STR
        45 001714   000000 011000                    NOP     0
        45 001715   001722 710000 45                 TRA     s:1608

   1603 45 001716   000307 630400 46                 EPPR0   199
        45 001717   000035 631400 46                 EPPR1   29
        45 001720   000000 701000 xent               TSX1    OUT_STR
        45 001721   000000 011000                    NOP     0

     1578     1606            %OUTLINE(S="'BIN(%BITS_T_S_INDX) UNAL,'");

   1608 45 001722   000412 630400 46                 EPPR0   266
        45 001723   000035 631400 46                 EPPR1   29
        45 001724   000000 701000 xent               TSX1    OUT_STR
        45 001725   000000 011000                    NOP     0

   1609 45 001726   000041 631400 46                 EPPR1   33
        45 001727   000000 701000 xent               TSX1    FLUSH
        45 001730   000000 011000                    NOP     0

     1579     1612            %OUT_STR(S="'      2 LEN '");

   1613 45 001731   000415 630400 46                 EPPR0   269
        45 001732   000035 631400 46                 EPPR1   29
        45 001733   000000 701000 xent               TSX1    OUT_STR
        45 001734   000000 011000                    NOP     0

     1580     1615            %OUTSIGN(V=T_S_LEN);

   1616 45 001735   000202 234000 36                 SZN     TSTATS+130
        45 001736   001744 605000 45                 TPL     s:1622

   1618 45 001737   000304 630400 46                 EPPR0   196
        45 001740   000035 631400 46                 EPPR1   29
        45 001741   000000 701000 xent               TSX1    OUT_STR
PL6.E3A0      #005=OUTPUT_PARSE_SYMREFS File=LR_TABLE.:Z8A6TSI                   SAT 08/09/97 09:39 Page:321
        45 001742   000000 011000                    NOP     0
        45 001743   001750 710000 45                 TRA     s:1627

   1622 45 001744   000307 630400 46                 EPPR0   199
        45 001745   000035 631400 46                 EPPR1   29
        45 001746   000000 701000 xent               TSX1    OUT_STR
        45 001747   000000 011000                    NOP     0

     1581     1625            %OUTLINE(S="'BIN(%BITS_T_S_LEN) UNAL;'");

   1627 45 001750   000420 630400 46                 EPPR0   272
        45 001751   000035 631400 46                 EPPR1   29
        45 001752   000000 701000 xent               TSX1    OUT_STR
        45 001753   000000 011000                    NOP     0

   1628 45 001754   000041 631400 46                 EPPR1   33
        45 001755   000000 701000 xent               TSX1    FLUSH
        45 001756   000000 011000                    NOP     0

     1582     1631           %OUTLINE(S="'DCL TSTRING_SPACE SYMREF READONLY CHAR(%TSTRING_SPACE_LEN_CHARS);'"
              1631                );

   1633 45 001757   000423 630400 46                 EPPR0   275
        45 001760   000035 631400 46                 EPPR1   29
        45 001761   000000 701000 xent               TSX1    OUT_STR
        45 001762   000000 011000                    NOP     0

   1634 45 001763   000041 631400 46                 EPPR1   33
        45 001764   000000 701000 xent               TSX1    FLUSH
        45 001765   000000 011000                    NOP     0

     1583     1637            %OUTLINE(S="'%MEND;'");

   1639 45 001766   000402 630400 46                 EPPR0   258
        45 001767   000035 631400 46                 EPPR1   29
        45 001770   000000 701000 xent               TSX1    OUT_STR
        45 001771   000000 011000                    NOP     0
PL6.E3A0      #005=OUTPUT_PARSE_SYMREFS File=LR_TABLE.:Z8A6TSI                   SAT 08/09/97 09:39 Page:322

   1640 45 001772   000041 631400 46                 EPPR1   33
        45 001773   000000 701000 xent               TSX1    FLUSH
        45 001774   000000 011000                    NOP     0

     1584     1643    2     END;

     1585     1644
     1586     1645
     1587     1646    1   IF OPTIONS(ERROR_TABLE_OPT) THEN

   1646 45 001775   000000 236000 26                 LDQ     OPTIONS
        45 001776   000100 316003                    CANQ    64,DU
        45 001777   002010 600000 45                 TZE     s:1656

     1588     1647          %OUTLINE(S="'%EQU LOCALLY_LEAST_COST_RECOVERY = ''1''B;'");

   1649 45 002000   000426 630400 46                 EPPR0   278
        45 002001   000035 631400 46                 EPPR1   29
        45 002002   000000 701000 xent               TSX1    OUT_STR
        45 002003   000000 011000                    NOP     0

   1650 45 002004   000041 631400 46                 EPPR1   33
        45 002005   000000 701000 xent               TSX1    FLUSH
        45 002006   000000 011000                    NOP     0

   1651 45 002007   002017 710000 45                 TRA     s:1661

     1589     1653    1   ELSE
     1590     1654          %OUTLINE(S="'%EQU LOCALLY_LEAST_COST_RECOVERY = ''0''B;'");

   1656 45 002010   000430 630400 46                 EPPR0   280
        45 002011   000035 631400 46                 EPPR1   29
        45 002012   000000 701000 xent               TSX1    OUT_STR
        45 002013   000000 011000                    NOP     0

   1657 45 002014   000041 631400 46                 EPPR1   33
PL6.E3A0      #005=OUTPUT_PARSE_SYMREFS File=LR_TABLE.:Z8A6TSI                   SAT 08/09/97 09:39 Page:323
        45 002015   000000 701000 xent               TSX1    FLUSH
        45 002016   000000 011000                    NOP     0

     1591     1660
     1592     1661    1   END OUTPUT_PARSE_SYMREFS;

   1661 45 002017   000000 221200 0                  LDX1  ! 0
        45 002020   000001 702211                    TSX2  ! 1,X1
     1593     1662        %EOD;

PL6.E3A0      #005=OUTPUT_PARSE_SYMREFS File=LR_TABLE.:Z8A6TSI                   SAT 08/09/97 09:39 Page:324
--  Include file information  --

   LR_CNFG_EXT.:Z8A6TOU  cannot be made into a system file and is referenced.
   LR_IO_EXT.:Z8A6TOU  cannot be made into a system file and is referenced.
   LR_GRAM_EXT.:Z8A6TOU  cannot be made into a system file and is referenced.
      No diagnostics issued in procedure OUTPUT_PARSE_SYMREFS.
PL6.E3A0      #005=OUTPUT_PARSE_SYMREFS File=LR_TABLE.:Z8A6TSI                   SAT 08/09/97 09:39 Page:325

 **** Variables and constants ****

  ****  Section 001 LblCom OUT_DCBN

  ****  Scalars and arrays  ****
OctLoc.c.b A Datatyp(siz) R M Lvl/name                 OctLoc.c.b A Datatyp(siz) R M Lvl/name

     0-0-0/w SBIN        r     1 OUT_DCBN

  ****  Section 007 LblCom SYM_PTRS

  ****  Scalars and arrays  ****
OctLoc.c.b A Datatyp(siz) R M Lvl/name                 OctLoc.c.b A Datatyp(siz) R M Lvl/name

     0-0-0/w PTR               1 SYM_PTRS(0:1400)

  ****  Section 008 LblCom RIGHT_PARTS

  ****  Scalars and arrays  ****
OctLoc.c.b A Datatyp(siz) R M Lvl/name                 OctLoc.c.b A Datatyp(siz) R M Lvl/name

     0-0-0/h SBIN(18)          1 RIGHT_PARTS(0:8000)

  ****  Section 009 LblCom PROD

  ****  Scalars and arrays  ****
OctLoc.c.b A Datatyp(siz) R M Lvl/name                 OctLoc.c.b A Datatyp(siz) R M Lvl/name

     0-0-0/h STRC(72)          1 PROD(0:1500)

  ****  Section 010 LblCom NR_PROD

  ****  Scalars and arrays  ****
OctLoc.c.b A Datatyp(siz) R M Lvl/name                 OctLoc.c.b A Datatyp(siz) R M Lvl/name

     0-0-0/w SBIN              1 NR_PROD

PL6.E3A0      #005=OUTPUT_PARSE_SYMREFS File=LR_TABLE.:Z8A6TSI                   SAT 08/09/97 09:39 Page:326
  ****  Section 011 LblCom NR_SYMS

  ****  Scalars and arrays  ****
OctLoc.c.b A Datatyp(siz) R M Lvl/name                 OctLoc.c.b A Datatyp(siz) R M Lvl/name

     0-0-0/w SBIN              1 NR_SYMS

  ****  Section 012 LblCom NR_TERM

  ****  Scalars and arrays  ****
OctLoc.c.b A Datatyp(siz) R M Lvl/name                 OctLoc.c.b A Datatyp(siz) R M Lvl/name

     0-0-0/w SBIN              1 NR_TERM

  ****  Section 013 LblCom LAST_ACT

  ****  Scalars and arrays  ****
OctLoc.c.b A Datatyp(siz) R M Lvl/name                 OctLoc.c.b A Datatyp(siz) R M Lvl/name

     0-0-0/w SBIN              1 LAST_ACT

  ****  Section 014 LblCom LAST_NULL

  ****  Scalars and arrays  ****
OctLoc.c.b A Datatyp(siz) R M Lvl/name                 OctLoc.c.b A Datatyp(siz) R M Lvl/name

     0-0-0/w SBIN              1 LAST_NULL

  ****  Section 015 LblCom NR_ONRIGHT

  ****  Scalars and arrays  ****
OctLoc.c.b A Datatyp(siz) R M Lvl/name                 OctLoc.c.b A Datatyp(siz) R M Lvl/name

     0-0-0/w SBIN              1 NR_ONRIGHT

  ****  Section 016 LblCom NR_NT

PL6.E3A0      #005=OUTPUT_PARSE_SYMREFS File=LR_TABLE.:Z8A6TSI                   SAT 08/09/97 09:39 Page:327
  ****  Scalars and arrays  ****
OctLoc.c.b A Datatyp(siz) R M Lvl/name                 OctLoc.c.b A Datatyp(siz) R M Lvl/name

     0-0-0/w SBIN              1 NR_NT

  ****  Section 017 LblCom PROD_LEN_MAX_EVER

  ****  Scalars and arrays  ****
OctLoc.c.b A Datatyp(siz) R M Lvl/name                 OctLoc.c.b A Datatyp(siz) R M Lvl/name

     0-0-0/w SBIN              1 PROD_LEN_MAX_EVER

  ****  Section 018 LblCom LAST_ORDER_SPECIFIED

  ****  Scalars and arrays  ****
OctLoc.c.b A Datatyp(siz) R M Lvl/name                 OctLoc.c.b A Datatyp(siz) R M Lvl/name

     0-0-0/w SBIN              1 LAST_ORDER_SPECIFIED

  ****  Section 019 LblCom SEMANTIC_ORDERING

  ****  Scalars and arrays  ****
OctLoc.c.b A Datatyp(siz) R M Lvl/name                 OctLoc.c.b A Datatyp(siz) R M Lvl/name

     0-0-0/b BIT               1 SEMANTIC_ORDERING

  ****  Section 020 LblCom ERR_SEV

  ****  Scalars and arrays  ****
OctLoc.c.b A Datatyp(siz) R M Lvl/name                 OctLoc.c.b A Datatyp(siz) R M Lvl/name

     0-0-0/w SBIN              1 ERR_SEV

  ****  Section 021 LblCom SET_LENGTHB

  ****  Scalars and arrays  ****
OctLoc.c.b A Datatyp(siz) R M Lvl/name                 OctLoc.c.b A Datatyp(siz) R M Lvl/name
PL6.E3A0      #005=OUTPUT_PARSE_SYMREFS File=LR_TABLE.:Z8A6TSI                   SAT 08/09/97 09:39 Page:328

     0-0-0/w SBIN              1 SET_LENGTHB

  ****  Section 022 LblCom SET_LENGTHW

  ****  Scalars and arrays  ****
OctLoc.c.b A Datatyp(siz) R M Lvl/name                 OctLoc.c.b A Datatyp(siz) R M Lvl/name

     0-0-0/w SBIN              1 SET_LENGTHW

  ****  Section 023 LblCom EOF_SYMBOL_PTR

  ****  Scalars and arrays  ****
OctLoc.c.b A Datatyp(siz) R M Lvl/name                 OctLoc.c.b A Datatyp(siz) R M Lvl/name

     0-0-0/w PTR               1 EOF_SYMBOL_PTR

  ****  Section 024 LblCom ERROR_SYMBOL_PTR

  ****  Scalars and arrays  ****
OctLoc.c.b A Datatyp(siz) R M Lvl/name                 OctLoc.c.b A Datatyp(siz) R M Lvl/name

     0-0-0/w PTR               1 ERROR_SYMBOL_PTR

  ****  Section 025 LblCom BOF_SYMBOL_PTR

  ****  Scalars and arrays  ****
OctLoc.c.b A Datatyp(siz) R M Lvl/name                 OctLoc.c.b A Datatyp(siz) R M Lvl/name

     0-0-0/w PTR               1 BOF_SYMBOL_PTR

  ****  Section 026 LblCom OPTIONS

  ****  Scalars and arrays  ****
OctLoc.c.b A Datatyp(siz) R M Lvl/name                 OctLoc.c.b A Datatyp(siz) R M Lvl/name

     0-0-0/b BIT         r     1 OPTIONS(0:25)
PL6.E3A0      #005=OUTPUT_PARSE_SYMREFS File=LR_TABLE.:Z8A6TSI                   SAT 08/09/97 09:39 Page:329

  ****  Section 027 LblCom OPTIONS_TEXT

  ****  Scalars and arrays  ****
OctLoc.c.b A Datatyp(siz) R M Lvl/name                 OctLoc.c.b A Datatyp(siz) R M Lvl/name

     0-0-0/c CHAR(4)           1 OPTIONS_TEXT(0:25)

  ****  Section 028 LblCom INSTR

  ****  Scalars and arrays  ****
OctLoc.c.b A Datatyp(siz) R M Lvl/name                 OctLoc.c.b A Datatyp(siz) R M Lvl/name

     0-0-0/c CHAR              1 INSTR(0:511)               0-0-0/c CHAR(512)         1 INSTRCHR

  ****  Section 029 LblCom INSTR_LISTED

  ****  Scalars and arrays  ****
OctLoc.c.b A Datatyp(siz) R M Lvl/name                 OctLoc.c.b A Datatyp(siz) R M Lvl/name

     0-0-0/b BIT               1 INSTR_LISTED

  ****  Section 030 LblCom INSTR_LEN

  ****  Scalars and arrays  ****
OctLoc.c.b A Datatyp(siz) R M Lvl/name                 OctLoc.c.b A Datatyp(siz) R M Lvl/name

     0-0-0/w SBIN              1 INSTR_LEN

  ****  Section 031 LblCom INSTR_INDX

  ****  Scalars and arrays  ****
OctLoc.c.b A Datatyp(siz) R M Lvl/name                 OctLoc.c.b A Datatyp(siz) R M Lvl/name

     0-0-0/w SBIN              1 INSTR_INDX

  ****  Section 032 LblCom EOF_FLAG
PL6.E3A0      #005=OUTPUT_PARSE_SYMREFS File=LR_TABLE.:Z8A6TSI                   SAT 08/09/97 09:39 Page:330

  ****  Scalars and arrays  ****
OctLoc.c.b A Datatyp(siz) R M Lvl/name                 OctLoc.c.b A Datatyp(siz) R M Lvl/name

     0-0-0/b BIT               1 EOF_FLAG

  ****  Section 033 LblCom KEY_REC

  ****  Scalars and arrays  ****
OctLoc.c.b A Datatyp(siz) R M Lvl/name                 OctLoc.c.b A Datatyp(siz) R M Lvl/name

     0-0-0/c CHAR(10)          1 KEY_REC

  ****  Section 034 LblCom LINE

  ****  Scalars and arrays  ****
OctLoc.c.b A Datatyp(siz) R M Lvl/name                 OctLoc.c.b A Datatyp(siz) R M Lvl/name

     0-0-0/c CHAR(109)         1 LINE

  ****  Section 035 LblCom LINELEN

  ****  Scalars and arrays  ****
OctLoc.c.b A Datatyp(siz) R M Lvl/name                 OctLoc.c.b A Datatyp(siz) R M Lvl/name

     0-0-0/w SBIN              1 LINELEN

  ****  Section 036 LblCom TSTATS

  ****  Scalars and arrays  ****
OctLoc.c.b A Datatyp(siz) R M Lvl/name                 OctLoc.c.b A Datatyp(siz) R M Lvl/name

     0-0-0/w STRC(7380)  r     1 TSTATS

  ****  Section 037 LblCom C#_TO_$

  ****  Scalars and arrays  ****
PL6.E3A0      #005=OUTPUT_PARSE_SYMREFS File=LR_TABLE.:Z8A6TSI                   SAT 08/09/97 09:39 Page:331
OctLoc.c.b A Datatyp(siz) R M Lvl/name                 OctLoc.c.b A Datatyp(siz) R M Lvl/name

     0-0-0/w PTR               1 C#_TO_$(0:2200)

  ****  Section 038 LblCom NR_CONFIG

  ****  Scalars and arrays  ****
OctLoc.c.b A Datatyp(siz) R M Lvl/name                 OctLoc.c.b A Datatyp(siz) R M Lvl/name

     0-0-0/w SBIN              1 NR_CONFIG

  ****  Section 039 LblCom INIT_CONFIG

  ****  Scalars and arrays  ****
OctLoc.c.b A Datatyp(siz) R M Lvl/name                 OctLoc.c.b A Datatyp(siz) R M Lvl/name

     0-0-0/w SBIN              1 INIT_CONFIG

  ****  Section 040 LblCom MAX_BASIS_ITEMS

  ****  Scalars and arrays  ****
OctLoc.c.b A Datatyp(siz) R M Lvl/name                 OctLoc.c.b A Datatyp(siz) R M Lvl/name

     0-0-0/w SBIN              1 MAX_BASIS_ITEMS

  ****  Section 041 LblCom MAX_TOTAL_ITEMS

  ****  Scalars and arrays  ****
OctLoc.c.b A Datatyp(siz) R M Lvl/name                 OctLoc.c.b A Datatyp(siz) R M Lvl/name

     0-0-0/w SBIN              1 MAX_TOTAL_ITEMS

  ****  Section 042 LblCom LAST_BINSRCH_ONLY

  ****  Scalars and arrays  ****
OctLoc.c.b A Datatyp(siz) R M Lvl/name                 OctLoc.c.b A Datatyp(siz) R M Lvl/name

PL6.E3A0      #005=OUTPUT_PARSE_SYMREFS File=LR_TABLE.:Z8A6TSI                   SAT 08/09/97 09:39 Page:332
     0-0-0/w SBIN              1 LAST_BINSRCH_ONLY

  ****  Section 043 LblCom LAST_BOTH_BITBIN

  ****  Scalars and arrays  ****
OctLoc.c.b A Datatyp(siz) R M Lvl/name                 OctLoc.c.b A Datatyp(siz) R M Lvl/name

     0-0-0/w SBIN              1 LAST_BOTH_BITBIN

  ****  BASED and DCB variables  ****

  ****  Scalars and arrays  ****
OctLoc.c.b A Datatyp(siz) R M Lvl/name                 OctLoc.c.b A Datatyp(siz) R M Lvl/name

     0-0-0/w STRC(57888)       1 C_SET_B                    0-0-0/w STRC(72)          1 INCLUDES_B
     0-0-0/w STRC(144)         1 INCL_B                     0-0-0/w STRC(5436)        1 ITEM_B
     0-0-0/w STRC(5652)        1 KEY_B                      0-0-0N  NULL        r     1 M$LO
     0-0-0N  NULL        r     1 M$OU                       0-0-0N  NULL        r     1 M$SI
     0-0-0N  NULL        r     1 M$SO                       0-0-0N  NULL        r     1 M$UI
     0-0-0/w STRC(351)         1 SYMBOL


   Procedure OUTPUT_PARSE_SYMREFS requires 1041 words for executable code.
   Procedure OUTPUT_PARSE_SYMREFS is declared NOAUTO and requires 6 words of local(STATIC) storage.

PL6.E3A0      #006=GENTYPE File=LR_TABLE.:Z8A6TSI                                SAT 08/09/97 09:40 Page:333
     1594        1        /*T***********************************************************/
     1595        2        /*T*                                                         */
     1596        3        /*T* Copyright (c) Bull HN Information Systems Inc., 1997    */
     1597        4        /*T*                                                         */
     1598        5        /*T***********************************************************/
     1599        6        GENTYPE : PROC (TS);
     1600        7
     1601        8        /*D*
     1602        9               NAME: GENTYPE
     1603       10            PURPOSE: CALCULATE THE NUMBER OF BITS AND THE TYPE TO GIVE
     1604       11                     A TABLE FIELD.
     1605       12        */
     1606       13
     1607       14        %INCLUDE LR_GRAM_EXT;
     1608      553
     1609      554
     1610      555    1   DCL 1 TS ALIGNED,
     1611      556    1         2 IMP BOOLEAN,
     1612      557    1         2 MAXV SBIN WORD,
     1613      558    1         2 MINV SBIN WORD,
     1614      559    1         2 LEN  SBIN WORD,
     1615      560    1         2 SIGNED BOOLEAN,
     1616      561    1         2 NBITS SBIN WORD;
     1617      562    1   DCL ABSV UBIN WORD;
     1618      563
     1619      564
     1620      565    1   IF OPTIONS(OS_OPT) OR ((NOT OPTIONS(OS_OPT)) AND (NOT TS.IMP) AND (NOT OPTIONS(
               565            OT_OPT))) THEN
     1621      566    2     DO;
     1622      567    2       ABSV = MAXIMUM (TS.MAXV, TS.MINV, - TS.MINV);
     1623      568    2       TS.SIGNED = (TS.MINV < 0);
     1624      569    2       TS.NBITS = 0;
     1625      570    3       DO UNTIL ABSV = 0;
     1626      571    3         TS.NBITS = TS.NBITS + 1;
     1627      572    3         ABSV = ABSV/2;
     1628      573    3       END;
     1629      574
PL6.E3A0      #006=GENTYPE File=LR_TABLE.:Z8A6TSI                                SAT 08/09/97 09:40 Page:334
     1630      575    2       IF TS.SIGNED THEN
     1631      576    2         TS.NBITS = TS.NBITS + 1;
     1632      577    2     END;
     1633      578    1   ELSE
     1634      579    2     DO;
     1635      580    2       TS.SIGNED = (TS.MINV < 0);
     1636      581    2       TS.NBITS = 18;
     1637      582    2     END;
     1638      583
     1639      584    1   END GENTYPE;
     1640      585        %EOD;

PL6.E3A0      #006=GENTYPE File=LR_TABLE.:Z8A6TSI                                SAT 08/09/97 09:40 Page:335
--  Include file information  --

   LR_IO_EXT.:Z8A6TOU  cannot be made into a system file and is referenced.
   LR_GRAM_EXT.:Z8A6TOU  cannot be made into a system file and is referenced.
      No diagnostics issued in procedure GENTYPE.

   Procedure GENTYPE requires 48 words for executable code.
   Procedure GENTYPE requires 6 words of local(AUTO) storage.

PL6.E3A0      #006=GENTYPE File=LR_TABLE.:Z8A6TSI                                SAT 08/09/97 09:40 Page:336

 Object Unit name= GENTYPE                                    File name= LR_TABLE.:Z8A6TOU
 UTS= AUG 09 '97 09:40:45.20 SAT                              Compiler= PL-6/E31         Sev=      00
 SharedLib= :SHARED_SYSTEM                                    Alt SharedLib=


    ****  Control sections  ****

 Sect   Type Bound  Init  Size OctSiz  Section name(segment info)
    0  LblCom even  none     1      1  OUT_DCBN
    1   DCB   even  none     0      0  M$OU
    2   DCB   even  none     0      0  M$SO
    3   DCB   even  none     0      0  M$LO
    4   DCB   even  none     0      0  M$SI
    5   DCB   even  none     0      0  M$UI
    6  LblCom even  none  1401   2571  SYM_PTRS
    7  LblCom even  none  4001   7641  RIGHT_PARTS
    8  LblCom even  none  3002   5672  PROD
    9  LblCom even  none     1      1  NR_PROD
   10  LblCom even  none     1      1  NR_SYMS
   11  LblCom even  none     1      1  NR_TERM
   12  LblCom even  none     1      1  LAST_ACT
   13  LblCom even  none     1      1  LAST_NULL
   14  LblCom even  none     1      1  NR_ONRIGHT
   15  LblCom even  none     1      1  NR_NT
   16  LblCom even  none     1      1  PROD_LEN_MAX_EVER
   17  LblCom even  none     1      1  LAST_ORDER_SPECIFIED
   18  LblCom even  none     1      1  SEMANTIC_ORDERING
   19  LblCom even  none     1      1  ERR_SEV
   20  LblCom even  none     1      1  SET_LENGTHB
   21  LblCom even  none     1      1  SET_LENGTHW
   22  LblCom even  none     1      1  EOF_SYMBOL_PTR
   23  LblCom even  none     1      1  ERROR_SYMBOL_PTR
   24  LblCom even  none     1      1  BOF_SYMBOL_PTR
   25  LblCom even  none     1      1  OPTIONS
   26  LblCom even  none    26     32  OPTIONS_TEXT
   27  LblCom even  none   128    200  INSTR
   28  LblCom even  none     1      1  INSTR_LISTED
PL6.E3A0      #006=GENTYPE File=LR_TABLE.:Z8A6TSI                                SAT 08/09/97 09:40 Page:337
   29  LblCom even  none     1      1  INSTR_LEN
   30  LblCom even  none     1      1  INSTR_INDX
   31  LblCom even  none     1      1  EOF_FLAG
   32  LblCom even  none     3      3  KEY_REC
   33  LblCom even  none    28     34  LINE
   34  LblCom even  none     1      1  LINELEN
   35  LblCom even  none   205    315  TSTATS
   36   Proc  even  none    48     60  GENTYPE

    ****  Entry defs  ****

                              Check   Calling
                             calling  sequence
  Sect OctLoc Primary Altret sequence   type   Parms  Name
    36      0   yes            yes      Std        1  GENTYPE

  ****  Entry refs  ****

         Check        Calling
        calling       sequence
Altret sequence SRef   type   Args  Name
                       nStd      0 X66_AUTO_1
                       nStd      0 X66_ARET

  ****  Data refs  ****

  Flags:  r = read only, s = secondary
Flgs Name                             Flgs Name                             Flgs Name
     M$OU                                  M$SO                                  M$LO
     M$SI                                  M$UI

  ****  Segment refs  ****

  Flags:  r = read only, s = secondary
Flgs Name                             Flgs Name                             Flgs Name
     NULLSID
PL6.E3A0      #006=GENTYPE File=LR_TABLE.:Z8A6TSI                                SAT 08/09/97 09:40 Page:338


     1594        1        /*T***********************************************************/
     1595        2        /*T*                                                         */
     1596        3        /*T* Copyright (c) Bull HN Information Systems Inc., 1997    */
     1597        4        /*T*                                                         */
     1598        5        /*T***********************************************************/
     1599        6        GENTYPE : PROC (TS);

      6 36 000000   000000 700200 xent  GENTYPE      TSX0  ! X66_AUTO_1
        36 000001   000006 000001                    ZERO    6,1

     1600        7
     1601        8        /*D*
     1602        9               NAME: GENTYPE
     1603       10            PURPOSE: CALCULATE THE NUMBER OF BITS AND THE TYPE TO GIVE
     1604       11                     A TABLE FIELD.
     1605       12        */
     1606       13
     1607       14        %INCLUDE LR_GRAM_EXT;
     1608      553
     1609      554
     1610      555    1   DCL 1 TS ALIGNED,
     1611      556    1         2 IMP BOOLEAN,
     1612      557    1         2 MAXV SBIN WORD,
     1613      558    1         2 MINV SBIN WORD,
     1614      559    1         2 LEN  SBIN WORD,
     1615      560    1         2 SIGNED BOOLEAN,
     1616      561    1         2 NBITS SBIN WORD;
     1617      562    1   DCL ABSV UBIN WORD;
     1618      563
     1619      564
     1620      565    1   IF OPTIONS(OS_OPT) OR ((NOT OPTIONS(OS_OPT)) AND (NOT TS.IMP) AND (NOT OPTIONS(
               565            OT_OPT))) THEN

    565 36 000002   000000 236000 25                 LDQ     OPTIONS
        36 000003   000010 316003                    CANQ    8,DU
        36 000004   000014 601000 36                 TNZ     s:567
PL6.E3A0      #006=GENTYPE File=LR_TABLE.:Z8A6TSI                                SAT 08/09/97 09:40 Page:339
        36 000005   000010 316003                    CANQ    8,DU
        36 000006   000046 601000 36                 TNZ     s:580
        36 000007   200003 470500                    LDP0    @TS,,AUTO
        36 000010   000000 234100                    SZN     0,,PR0
        36 000011   000046 604000 36                 TMI     s:580
        36 000012   000004 316003                    CANQ    4,DU
        36 000013   000046 601000 36                 TNZ     s:580

     1621      566    2     DO;

     1622      567    2       ABSV = MAXIMUM (TS.MAXV, TS.MINV, - TS.MINV);

    567 36 000014   200003 470500                    LDP0    @TS,,AUTO
        36 000015   000002 336100                    LCQ     2,,PR0
        36 000016   000002 116100                    CMPQ    2,,PR0
        36 000017   000021 605000 36                 TPL     s:567+5
        36 000020   000002 236100                    LDQ     2,,PR0
        36 000021   000001 116100                    CMPQ    1,,PR0
        36 000022   000024 605000 36                 TPL     s:567+8
        36 000023   000001 236100                    LDQ     1,,PR0
        36 000024   200004 756100                    STQ     ABSV,,AUTO

     1623      568    2       TS.SIGNED = (TS.MINV < 0);

    568 36 000025   400000 220003                    LDX0    -131072,DU
        36 000026   000002 235100                    LDA     2,,PR0
        36 000027   000031 604000 36                 TMI     s:568+4
        36 000030   000000 220003                    LDX0    0,DU
        36 000031   000000 636010                    EAQ     0,X0
        36 000032   000004 756100                    STQ     4,,PR0

     1624      569    2       TS.NBITS = 0;

    569 36 000033   000005 450100                    STZ     5,,PR0

     1625      570    3       DO UNTIL ABSV = 0;

PL6.E3A0      #006=GENTYPE File=LR_TABLE.:Z8A6TSI                                SAT 08/09/97 09:40 Page:340
     1626      571    3         TS.NBITS = TS.NBITS + 1;

    571 36 000034   200003 470500                    LDP0    @TS,,AUTO
        36 000035   000005 054100                    AOS     5,,PR0

     1627      572    3         ABSV = ABSV/2;

    572 36 000036   200004 236100                    LDQ     ABSV,,AUTO
        36 000037   000001 772000                    QRL     1
        36 000040   200004 756100                    STQ     ABSV,,AUTO

     1628      573    3       END;

    573 36 000041   000034 601000 36                 TNZ     s:571

     1629      574
     1630      575    2       IF TS.SIGNED THEN

    575 36 000042   000004 234100                    SZN     4,,PR0
        36 000043   000057 605000 36                 TPL     s:584

     1631      576    2         TS.NBITS = TS.NBITS + 1;

    576 36 000044   000005 054100                    AOS     5,,PR0

     1632      577    2     END;

    577 36 000045   000057 710000 36                 TRA     s:584

     1633      578    1   ELSE
     1634      579    2     DO;

     1635      580    2       TS.SIGNED = (TS.MINV < 0);

    580 36 000046   400000 220003                    LDX0    -131072,DU
        36 000047   200003 470500                    LDP0    @TS,,AUTO
        36 000050   000002 235100                    LDA     2,,PR0
PL6.E3A0      #006=GENTYPE File=LR_TABLE.:Z8A6TSI                                SAT 08/09/97 09:40 Page:341
        36 000051   000053 604000 36                 TMI     s:580+5
        36 000052   000000 220003                    LDX0    0,DU
        36 000053   000000 636010                    EAQ     0,X0
        36 000054   000004 756100                    STQ     4,,PR0

     1636      581    2       TS.NBITS = 18;

    581 36 000055   000022 235007                    LDA     18,DL
        36 000056   000005 755100                    STA     5,,PR0

     1637      582    2     END;

     1638      583
     1639      584    1   END GENTYPE;

    584 36 000057   000000 702200 xent               TSX2  ! X66_ARET
     1640      585        %EOD;

PL6.E3A0      #006=GENTYPE File=LR_TABLE.:Z8A6TSI                                SAT 08/09/97 09:40 Page:342
--  Include file information  --

   LR_IO_EXT.:Z8A6TOU  cannot be made into a system file and is referenced.
   LR_GRAM_EXT.:Z8A6TOU  cannot be made into a system file and is referenced.
      No diagnostics issued in procedure GENTYPE.
PL6.E3A0      #006=GENTYPE File=LR_TABLE.:Z8A6TSI                                SAT 08/09/97 09:40 Page:343

 **** Variables and constants ****

  ****  Section 000 LblCom OUT_DCBN

  ****  Scalars and arrays  ****
OctLoc.c.b A Datatyp(siz) R M Lvl/name                 OctLoc.c.b A Datatyp(siz) R M Lvl/name

     0-0-0/w SBIN              1 OUT_DCBN

  ****  Section 006 LblCom SYM_PTRS

  ****  Scalars and arrays  ****
OctLoc.c.b A Datatyp(siz) R M Lvl/name                 OctLoc.c.b A Datatyp(siz) R M Lvl/name

     0-0-0/w PTR               1 SYM_PTRS(0:1400)

  ****  Section 007 LblCom RIGHT_PARTS

  ****  Scalars and arrays  ****
OctLoc.c.b A Datatyp(siz) R M Lvl/name                 OctLoc.c.b A Datatyp(siz) R M Lvl/name

     0-0-0/h SBIN(18)          1 RIGHT_PARTS(0:8000)

  ****  Section 008 LblCom PROD

  ****  Scalars and arrays  ****
OctLoc.c.b A Datatyp(siz) R M Lvl/name                 OctLoc.c.b A Datatyp(siz) R M Lvl/name

     0-0-0/h STRC(72)          1 PROD(0:1500)

  ****  Section 009 LblCom NR_PROD

  ****  Scalars and arrays  ****
OctLoc.c.b A Datatyp(siz) R M Lvl/name                 OctLoc.c.b A Datatyp(siz) R M Lvl/name

     0-0-0/w SBIN              1 NR_PROD

PL6.E3A0      #006=GENTYPE File=LR_TABLE.:Z8A6TSI                                SAT 08/09/97 09:40 Page:344
  ****  Section 010 LblCom NR_SYMS

  ****  Scalars and arrays  ****
OctLoc.c.b A Datatyp(siz) R M Lvl/name                 OctLoc.c.b A Datatyp(siz) R M Lvl/name

     0-0-0/w SBIN              1 NR_SYMS

  ****  Section 011 LblCom NR_TERM

  ****  Scalars and arrays  ****
OctLoc.c.b A Datatyp(siz) R M Lvl/name                 OctLoc.c.b A Datatyp(siz) R M Lvl/name

     0-0-0/w SBIN              1 NR_TERM

  ****  Section 012 LblCom LAST_ACT

  ****  Scalars and arrays  ****
OctLoc.c.b A Datatyp(siz) R M Lvl/name                 OctLoc.c.b A Datatyp(siz) R M Lvl/name

     0-0-0/w SBIN              1 LAST_ACT

  ****  Section 013 LblCom LAST_NULL

  ****  Scalars and arrays  ****
OctLoc.c.b A Datatyp(siz) R M Lvl/name                 OctLoc.c.b A Datatyp(siz) R M Lvl/name

     0-0-0/w SBIN              1 LAST_NULL

  ****  Section 014 LblCom NR_ONRIGHT

  ****  Scalars and arrays  ****
OctLoc.c.b A Datatyp(siz) R M Lvl/name                 OctLoc.c.b A Datatyp(siz) R M Lvl/name

     0-0-0/w SBIN              1 NR_ONRIGHT

  ****  Section 015 LblCom NR_NT

PL6.E3A0      #006=GENTYPE File=LR_TABLE.:Z8A6TSI                                SAT 08/09/97 09:40 Page:345
  ****  Scalars and arrays  ****
OctLoc.c.b A Datatyp(siz) R M Lvl/name                 OctLoc.c.b A Datatyp(siz) R M Lvl/name

     0-0-0/w SBIN              1 NR_NT

  ****  Section 016 LblCom PROD_LEN_MAX_EVER

  ****  Scalars and arrays  ****
OctLoc.c.b A Datatyp(siz) R M Lvl/name                 OctLoc.c.b A Datatyp(siz) R M Lvl/name

     0-0-0/w SBIN              1 PROD_LEN_MAX_EVER

  ****  Section 017 LblCom LAST_ORDER_SPECIFIED

  ****  Scalars and arrays  ****
OctLoc.c.b A Datatyp(siz) R M Lvl/name                 OctLoc.c.b A Datatyp(siz) R M Lvl/name

     0-0-0/w SBIN              1 LAST_ORDER_SPECIFIED

  ****  Section 018 LblCom SEMANTIC_ORDERING

  ****  Scalars and arrays  ****
OctLoc.c.b A Datatyp(siz) R M Lvl/name                 OctLoc.c.b A Datatyp(siz) R M Lvl/name

     0-0-0/b BIT               1 SEMANTIC_ORDERING

  ****  Section 019 LblCom ERR_SEV

  ****  Scalars and arrays  ****
OctLoc.c.b A Datatyp(siz) R M Lvl/name                 OctLoc.c.b A Datatyp(siz) R M Lvl/name

     0-0-0/w SBIN              1 ERR_SEV

  ****  Section 020 LblCom SET_LENGTHB

  ****  Scalars and arrays  ****
OctLoc.c.b A Datatyp(siz) R M Lvl/name                 OctLoc.c.b A Datatyp(siz) R M Lvl/name
PL6.E3A0      #006=GENTYPE File=LR_TABLE.:Z8A6TSI                                SAT 08/09/97 09:40 Page:346

     0-0-0/w SBIN              1 SET_LENGTHB

  ****  Section 021 LblCom SET_LENGTHW

  ****  Scalars and arrays  ****
OctLoc.c.b A Datatyp(siz) R M Lvl/name                 OctLoc.c.b A Datatyp(siz) R M Lvl/name

     0-0-0/w SBIN              1 SET_LENGTHW

  ****  Section 022 LblCom EOF_SYMBOL_PTR

  ****  Scalars and arrays  ****
OctLoc.c.b A Datatyp(siz) R M Lvl/name                 OctLoc.c.b A Datatyp(siz) R M Lvl/name

     0-0-0/w PTR               1 EOF_SYMBOL_PTR

  ****  Section 023 LblCom ERROR_SYMBOL_PTR

  ****  Scalars and arrays  ****
OctLoc.c.b A Datatyp(siz) R M Lvl/name                 OctLoc.c.b A Datatyp(siz) R M Lvl/name

     0-0-0/w PTR               1 ERROR_SYMBOL_PTR

  ****  Section 024 LblCom BOF_SYMBOL_PTR

  ****  Scalars and arrays  ****
OctLoc.c.b A Datatyp(siz) R M Lvl/name                 OctLoc.c.b A Datatyp(siz) R M Lvl/name

     0-0-0/w PTR               1 BOF_SYMBOL_PTR

  ****  Section 025 LblCom OPTIONS

  ****  Scalars and arrays  ****
OctLoc.c.b A Datatyp(siz) R M Lvl/name                 OctLoc.c.b A Datatyp(siz) R M Lvl/name

     0-0-0/b BIT         r     1 OPTIONS(0:25)
PL6.E3A0      #006=GENTYPE File=LR_TABLE.:Z8A6TSI                                SAT 08/09/97 09:40 Page:347

  ****  Section 026 LblCom OPTIONS_TEXT

  ****  Scalars and arrays  ****
OctLoc.c.b A Datatyp(siz) R M Lvl/name                 OctLoc.c.b A Datatyp(siz) R M Lvl/name

     0-0-0/c CHAR(4)           1 OPTIONS_TEXT(0:25)

  ****  Section 027 LblCom INSTR

  ****  Scalars and arrays  ****
OctLoc.c.b A Datatyp(siz) R M Lvl/name                 OctLoc.c.b A Datatyp(siz) R M Lvl/name

     0-0-0/c CHAR              1 INSTR(0:511)               0-0-0/c CHAR(512)         1 INSTRCHR

  ****  Section 028 LblCom INSTR_LISTED

  ****  Scalars and arrays  ****
OctLoc.c.b A Datatyp(siz) R M Lvl/name                 OctLoc.c.b A Datatyp(siz) R M Lvl/name

     0-0-0/b BIT               1 INSTR_LISTED

  ****  Section 029 LblCom INSTR_LEN

  ****  Scalars and arrays  ****
OctLoc.c.b A Datatyp(siz) R M Lvl/name                 OctLoc.c.b A Datatyp(siz) R M Lvl/name

     0-0-0/w SBIN              1 INSTR_LEN

  ****  Section 030 LblCom INSTR_INDX

  ****  Scalars and arrays  ****
OctLoc.c.b A Datatyp(siz) R M Lvl/name                 OctLoc.c.b A Datatyp(siz) R M Lvl/name

     0-0-0/w SBIN              1 INSTR_INDX

  ****  Section 031 LblCom EOF_FLAG
PL6.E3A0      #006=GENTYPE File=LR_TABLE.:Z8A6TSI                                SAT 08/09/97 09:40 Page:348

  ****  Scalars and arrays  ****
OctLoc.c.b A Datatyp(siz) R M Lvl/name                 OctLoc.c.b A Datatyp(siz) R M Lvl/name

     0-0-0/b BIT               1 EOF_FLAG

  ****  Section 032 LblCom KEY_REC

  ****  Scalars and arrays  ****
OctLoc.c.b A Datatyp(siz) R M Lvl/name                 OctLoc.c.b A Datatyp(siz) R M Lvl/name

     0-0-0/c CHAR(10)          1 KEY_REC

  ****  Section 033 LblCom LINE

  ****  Scalars and arrays  ****
OctLoc.c.b A Datatyp(siz) R M Lvl/name                 OctLoc.c.b A Datatyp(siz) R M Lvl/name

     0-0-0/c CHAR(109)         1 LINE

  ****  Section 034 LblCom LINELEN

  ****  Scalars and arrays  ****
OctLoc.c.b A Datatyp(siz) R M Lvl/name                 OctLoc.c.b A Datatyp(siz) R M Lvl/name

     0-0-0/w SBIN              1 LINELEN

  ****  Section 035 LblCom TSTATS

  ****  Scalars and arrays  ****
OctLoc.c.b A Datatyp(siz) R M Lvl/name                 OctLoc.c.b A Datatyp(siz) R M Lvl/name

     0-0-0/w STRC(7380)        1 TSTATS

  ****  Auto variables  ****

  ****  Scalars and arrays  ****
PL6.E3A0      #006=GENTYPE File=LR_TABLE.:Z8A6TSI                                SAT 08/09/97 09:40 Page:349
OctLoc.c.b A Datatyp(siz) R M Lvl/name                 OctLoc.c.b A Datatyp(siz) R M Lvl/name

     3-0-0/w PTR         r     1 @TS                        4-0-0/w UBIN        r     1 ABSV
    *0-0-0/w STRC(216)   r     1 TS

  ****  BASED and DCB variables  ****

  ****  Scalars and arrays  ****
OctLoc.c.b A Datatyp(siz) R M Lvl/name                 OctLoc.c.b A Datatyp(siz) R M Lvl/name

     0-0-0N  NULL        r     1 M$LO                       0-0-0N  NULL        r     1 M$OU
     0-0-0N  NULL        r     1 M$SI                       0-0-0N  NULL        r     1 M$SO
     0-0-0N  NULL        r     1 M$UI                       0-0-0/w STRC(351)         1 SYMBOL


   Procedure GENTYPE requires 48 words for executable code.
   Procedure GENTYPE requires 6 words of local(AUTO) storage.

