PL6.E3A0      #007=OUTPUT_MIN_MAX_BITS File=LR_TABLE.:Z8A6TSI                    SAT 08/09/97 09:40 Page:350
     1641        1        /*T***********************************************************/
     1642        2        /*T*                                                         */
     1643        3        /*T* Copyright (c) Bull HN Information Systems Inc., 1997    */
     1644        4        /*T*                                                         */
     1645        5        /*T***********************************************************/
     1646        6        OUTPUT_MIN_MAX_BITS : PROC (NAME,
     1647        7                                    NAME_LEN,
     1648        8                                    TS);
     1649        9
     1650       10        %INCLUDE LR_GRAM_EXT;
     1651      549
     1652      550    1     DCL NAME_LEN SBIN WORD;
     1653      551    1     DCL NAME CHAR (NAME_LEN);
     1654      552    1     DCL 1 TS ALIGNED,
     1655      553    1           2 IMP BOOLEAN,
     1656      554    1           2 MAXV SBIN WORD,
     1657      555    1           2 MINV SBIN WORD,
     1658      556    1           2 LEN  SBIN WORD,
     1659      557    1           2 SIGNED BOOLEAN,
     1660      558    1           2 NBITS SBIN WORD;
     1661      559
     1662      560    1     DCL OUT_STR ENTRY(2);
     1663      561    1     DCL FLUSH ENTRY;
     1664      562    1     DCL OUT_DEC ENTRY(1);
     1665      563    1     DCL OUTPUT_BITS ENTRY(3);
     1666      564
     1667      565
     1668      566          /* Output MIN value */
     1669      567
     1670      568          %OUT_STR (S="'%EQU MIN_'");
     1671      571    1     CALL OUT_STR(NAME, NAME_LEN);
     1672      572          %OUT_STR(S="' = '");
     1673      575    1     CALL OUT_DEC(TS.MINV);
     1674      576          %OUTLINE(S="';'");
     1675      582
     1676      583          /* Output MAX value */
     1677      584
PL6.E3A0      #007=OUTPUT_MIN_MAX_BITS File=LR_TABLE.:Z8A6TSI                    SAT 08/09/97 09:40 Page:351
     1678      585          %OUT_STR (S="'%EQU MAX_'");
     1679      588    1     CALL OUT_STR(NAME, NAME_LEN);
     1680      589          %OUT_STR(S="' = '");
     1681      592    1     CALL OUT_DEC(TS.MAXV);
     1682      593          %OUTLINE(S="';'");
     1683      599
     1684      600          /* Output Number of BITS to represent */
     1685      601    1     CALL OUTPUT_BITS (NAME,
     1686      602    1                       NAME_LEN,
     1687      603    1                       TS.NBITS);
     1688      604
     1689      605    1   END OUTPUT_MIN_MAX_BITS;
     1690      606        %EOD;

PL6.E3A0      #007=OUTPUT_MIN_MAX_BITS File=LR_TABLE.:Z8A6TSI                    SAT 08/09/97 09:40 Page:352
--  Include file information  --

   LR_IO_EXT.:Z8A6TOU  cannot be made into a system file and is referenced.
   LR_GRAM_EXT.:Z8A6TOU  cannot be made into a system file and is referenced.
      No diagnostics issued in procedure OUTPUT_MIN_MAX_BITS.

   Procedure OUTPUT_MIN_MAX_BITS requires 65 words for executable code.
   Procedure OUTPUT_MIN_MAX_BITS requires 10 words of local(AUTO) storage.

PL6.E3A0      #007=OUTPUT_MIN_MAX_BITS File=LR_TABLE.:Z8A6TSI                    SAT 08/09/97 09:40 Page:353

 Object Unit name= OUTPUT_MIN_MAX_BITS                        File name= LR_TABLE.:Z8A6TOU
 UTS= AUG 09 '97 09:40:58.44 SAT                              Compiler= PL-6/E31         Sev=      00
 SharedLib= :SHARED_SYSTEM                                    Alt SharedLib=


    ****  Control sections  ****

 Sect   Type Bound  Init  Size OctSiz  Section name(segment info)
    0  LblCom even  none     1      1  OUT_DCBN
    1   DCB   even  none     0      0  M$OU
    2   DCB   even  none     0      0  M$SO
    3   DCB   even  none     0      0  M$LO
    4   DCB   even  none     0      0  M$SI
    5   DCB   even  none     0      0  M$UI
    6  LblCom even  none  1401   2571  SYM_PTRS
    7  LblCom even  none  4001   7641  RIGHT_PARTS
    8  LblCom even  none  3002   5672  PROD
    9  LblCom even  none     1      1  NR_PROD
   10  LblCom even  none     1      1  NR_SYMS
   11  LblCom even  none     1      1  NR_TERM
   12  LblCom even  none     1      1  LAST_ACT
   13  LblCom even  none     1      1  LAST_NULL
   14  LblCom even  none     1      1  NR_ONRIGHT
   15  LblCom even  none     1      1  NR_NT
   16  LblCom even  none     1      1  PROD_LEN_MAX_EVER
   17  LblCom even  none     1      1  LAST_ORDER_SPECIFIED
   18  LblCom even  none     1      1  SEMANTIC_ORDERING
   19  LblCom even  none     1      1  ERR_SEV
   20  LblCom even  none     1      1  SET_LENGTHB
   21  LblCom even  none     1      1  SET_LENGTHW
   22  LblCom even  none     1      1  EOF_SYMBOL_PTR
   23  LblCom even  none     1      1  ERROR_SYMBOL_PTR
   24  LblCom even  none     1      1  BOF_SYMBOL_PTR
   25  LblCom even  none     1      1  OPTIONS
   26  LblCom even  none    26     32  OPTIONS_TEXT
   27  LblCom even  none   128    200  INSTR
   28  LblCom even  none     1      1  INSTR_LISTED
PL6.E3A0      #007=OUTPUT_MIN_MAX_BITS File=LR_TABLE.:Z8A6TSI                    SAT 08/09/97 09:40 Page:354
   29  LblCom even  none     1      1  INSTR_LEN
   30  LblCom even  none     1      1  INSTR_INDX
   31  LblCom even  none     1      1  EOF_FLAG
   32  LblCom even  none     3      3  KEY_REC
   33  LblCom even  none    28     34  LINE
   34  LblCom even  none     1      1  LINELEN
   35  LblCom even  none   205    315  TSTATS
   36  RoData even  UTS      7      7  OUTPUT_MIN_MAX_BITS
   37   Proc  even  none    65    101  OUTPUT_MIN_MAX_BITS
   38  RoData even  none    16     20  OUTPUT_MIN_MAX_BITS

    ****  Entry defs  ****

                              Check   Calling
                             calling  sequence
  Sect OctLoc Primary Altret sequence   type   Parms  Name
    37      0   yes            yes      Std        3  OUTPUT_MIN_MAX_BITS

  ****  Entry refs  ****

         Check        Calling
        calling       sequence
Altret sequence SRef   type   Args  Name
         yes           Std       2 OUT_STR
         yes           Std       0 FLUSH
         yes           Std       3 OUTPUT_BITS
         yes           Std       1 OUT_DEC
                       nStd      0 X66_AUTO_3
                       nStd      0 X66_ARET

  ****  Data refs  ****

  Flags:  r = read only, s = secondary
Flgs Name                             Flgs Name                             Flgs Name
     M$OU                                  M$SO                                  M$LO
     M$SI                                  M$UI
PL6.E3A0      #007=OUTPUT_MIN_MAX_BITS File=LR_TABLE.:Z8A6TSI                    SAT 08/09/97 09:40 Page:355

  ****  Segment refs  ****

  Flags:  r = read only, s = secondary
Flgs Name                             Flgs Name                             Flgs Name
     NULLSID                               ISSID
PL6.E3A0      #007=OUTPUT_MIN_MAX_BITS File=LR_TABLE.:Z8A6TSI                    SAT 08/09/97 09:40 Page:356


     1641        1        /*T***********************************************************/
     1642        2        /*T*                                                         */
     1643        3        /*T* Copyright (c) Bull HN Information Systems Inc., 1997    */
     1644        4        /*T*                                                         */
     1645        5        /*T***********************************************************/
     1646        6        OUTPUT_MIN_MAX_BITS : PROC (NAME,

      6 37 000000   000000 700200 xent  OUTPUT_MIN_* TSX0  ! X66_AUTO_3
        37 000001   000012 000003                    ZERO    10,3

     1647        7                                    NAME_LEN,
     1648        8                                    TS);
     1649        9
     1650       10        %INCLUDE LR_GRAM_EXT;
     1651      549
     1652      550    1     DCL NAME_LEN SBIN WORD;
     1653      551    1     DCL NAME CHAR (NAME_LEN);
     1654      552    1     DCL 1 TS ALIGNED,
     1655      553    1           2 IMP BOOLEAN,
     1656      554    1           2 MAXV SBIN WORD,
     1657      555    1           2 MINV SBIN WORD,
     1658      556    1           2 LEN  SBIN WORD,
     1659      557    1           2 SIGNED BOOLEAN,
     1660      558    1           2 NBITS SBIN WORD;
     1661      559
     1662      560    1     DCL OUT_STR ENTRY(2);
     1663      561    1     DCL FLUSH ENTRY;
     1664      562    1     DCL OUT_DEC ENTRY(1);
     1665      563    1     DCL OUTPUT_BITS ENTRY(3);
     1666      564
     1667      565
     1668      566          /* Output MIN value */
     1669      567
     1670      568          %OUT_STR (S="'%EQU MIN_'");

    569 37 000002   000002 630400 38                 EPPR0   2
PL6.E3A0      #007=OUTPUT_MIN_MAX_BITS File=LR_TABLE.:Z8A6TSI                    SAT 08/09/97 09:40 Page:357
        37 000003   000000 631400 38                 EPPR1   0
        37 000004   000000 701000 xent               TSX1    OUT_STR
        37 000005   000000 011000                    NOP     0

     1671      571    1     CALL OUT_STR(NAME, NAME_LEN);

    571 37 000006   200003 630500                    EPPR0   @NAME,,AUTO
        37 000007   000000 631400 38                 EPPR1   0
        37 000010   000000 701000 xent               TSX1    OUT_STR
        37 000011   000000 011000                    NOP     0

     1672      572          %OUT_STR(S="' = '");

    573 37 000012   000005 630400 38                 EPPR0   5
        37 000013   000000 631400 38                 EPPR1   0
        37 000014   000000 701000 xent               TSX1    OUT_STR
        37 000015   000000 011000                    NOP     0

     1673      575    1     CALL OUT_DEC(TS.MINV);

    575 37 000016   200005 236100                    LDQ     @TS,,AUTO
        37 000017   000002 036003                    ADLQ    2,DU
        37 000020   200006 756100                    STQ     @TS+1,,AUTO
        37 000021   200006 630500                    EPPR0   @TS+1,,AUTO
        37 000022   000007 631400 38                 EPPR1   7
        37 000023   000000 701000 xent               TSX1    OUT_DEC
        37 000024   000000 011000                    NOP     0

     1674      576          %OUTLINE(S="';'");

    578 37 000025   000012 630400 38                 EPPR0   10
        37 000026   000000 631400 38                 EPPR1   0
        37 000027   000000 701000 xent               TSX1    OUT_STR
        37 000030   000000 011000                    NOP     0

    579 37 000031   000014 631400 38                 EPPR1   12
        37 000032   000000 701000 xent               TSX1    FLUSH
PL6.E3A0      #007=OUTPUT_MIN_MAX_BITS File=LR_TABLE.:Z8A6TSI                    SAT 08/09/97 09:40 Page:358
        37 000033   000000 011000                    NOP     0

     1675      582
     1676      583          /* Output MAX value */
     1677      584
     1678      585          %OUT_STR (S="'%EQU MAX_'");

    586 37 000034   000015 630400 38                 EPPR0   13
        37 000035   000000 631400 38                 EPPR1   0
        37 000036   000000 701000 xent               TSX1    OUT_STR
        37 000037   000000 011000                    NOP     0

     1679      588    1     CALL OUT_STR(NAME, NAME_LEN);

    588 37 000040   200003 630500                    EPPR0   @NAME,,AUTO
        37 000041   000000 631400 38                 EPPR1   0
        37 000042   000000 701000 xent               TSX1    OUT_STR
        37 000043   000000 011000                    NOP     0

     1680      589          %OUT_STR(S="' = '");

    590 37 000044   000005 630400 38                 EPPR0   5
        37 000045   000000 631400 38                 EPPR1   0
        37 000046   000000 701000 xent               TSX1    OUT_STR
        37 000047   000000 011000                    NOP     0

     1681      592    1     CALL OUT_DEC(TS.MAXV);

    592 37 000050   200005 236100                    LDQ     @TS,,AUTO
        37 000051   000001 036003                    ADLQ    1,DU
        37 000052   200006 756100                    STQ     @TS+1,,AUTO
        37 000053   200006 630500                    EPPR0   @TS+1,,AUTO
        37 000054   000007 631400 38                 EPPR1   7
        37 000055   000000 701000 xent               TSX1    OUT_DEC
        37 000056   000000 011000                    NOP     0

     1682      593          %OUTLINE(S="';'");
PL6.E3A0      #007=OUTPUT_MIN_MAX_BITS File=LR_TABLE.:Z8A6TSI                    SAT 08/09/97 09:40 Page:359

    595 37 000057   000012 630400 38                 EPPR0   10
        37 000060   000000 631400 38                 EPPR1   0
        37 000061   000000 701000 xent               TSX1    OUT_STR
        37 000062   000000 011000                    NOP     0

    596 37 000063   000014 631400 38                 EPPR1   12
        37 000064   000000 701000 xent               TSX1    FLUSH
        37 000065   000000 011000                    NOP     0

     1683      599
     1684      600          /* Output Number of BITS to represent */
     1685      601    1     CALL OUTPUT_BITS (NAME,

    601 37 000066   200005 236100                    LDQ     @TS,,AUTO
        37 000067   000005 036003                    ADLQ    5,DU
        37 000070   200010 756100                    STQ     @TS+3,,AUTO
        37 000071   200004 236100                    LDQ     @NAME_LEN,,AUTO
        37 000072   200003 235100                    LDA     @NAME,,AUTO
        37 000073   200006 757100                    STAQ    @TS+1,,AUTO
        37 000074   200006 630500                    EPPR0   @TS+1,,AUTO
        37 000075   000017 631400 38                 EPPR1   15
        37 000076   000000 701000 xent               TSX1    OUTPUT_BITS
        37 000077   000000 011000                    NOP     0

     1686      602    1                       NAME_LEN,
     1687      603    1                       TS.NBITS);
     1688      604
     1689      605    1   END OUTPUT_MIN_MAX_BITS;

    605 37 000100   000000 702200 xent               TSX2  ! X66_ARET
     1690      606        %EOD;

PL6.E3A0      #007=OUTPUT_MIN_MAX_BITS File=LR_TABLE.:Z8A6TSI                    SAT 08/09/97 09:40 Page:360
--  Include file information  --

   LR_IO_EXT.:Z8A6TOU  cannot be made into a system file and is referenced.
   LR_GRAM_EXT.:Z8A6TOU  cannot be made into a system file and is referenced.
      No diagnostics issued in procedure OUTPUT_MIN_MAX_BITS.
PL6.E3A0      #007=OUTPUT_MIN_MAX_BITS File=LR_TABLE.:Z8A6TSI                    SAT 08/09/97 09:40 Page:361

 **** Variables and constants ****

  ****  Section 000 LblCom OUT_DCBN

  ****  Scalars and arrays  ****
OctLoc.c.b A Datatyp(siz) R M Lvl/name                 OctLoc.c.b A Datatyp(siz) R M Lvl/name

     0-0-0/w SBIN              1 OUT_DCBN

  ****  Section 006 LblCom SYM_PTRS

  ****  Scalars and arrays  ****
OctLoc.c.b A Datatyp(siz) R M Lvl/name                 OctLoc.c.b A Datatyp(siz) R M Lvl/name

     0-0-0/w PTR               1 SYM_PTRS(0:1400)

  ****  Section 007 LblCom RIGHT_PARTS

  ****  Scalars and arrays  ****
OctLoc.c.b A Datatyp(siz) R M Lvl/name                 OctLoc.c.b A Datatyp(siz) R M Lvl/name

     0-0-0/h SBIN(18)          1 RIGHT_PARTS(0:8000)

  ****  Section 008 LblCom PROD

  ****  Scalars and arrays  ****
OctLoc.c.b A Datatyp(siz) R M Lvl/name                 OctLoc.c.b A Datatyp(siz) R M Lvl/name

     0-0-0/h STRC(72)          1 PROD(0:1500)

  ****  Section 009 LblCom NR_PROD

  ****  Scalars and arrays  ****
OctLoc.c.b A Datatyp(siz) R M Lvl/name                 OctLoc.c.b A Datatyp(siz) R M Lvl/name

     0-0-0/w SBIN              1 NR_PROD

PL6.E3A0      #007=OUTPUT_MIN_MAX_BITS File=LR_TABLE.:Z8A6TSI                    SAT 08/09/97 09:40 Page:362
  ****  Section 010 LblCom NR_SYMS

  ****  Scalars and arrays  ****
OctLoc.c.b A Datatyp(siz) R M Lvl/name                 OctLoc.c.b A Datatyp(siz) R M Lvl/name

     0-0-0/w SBIN              1 NR_SYMS

  ****  Section 011 LblCom NR_TERM

  ****  Scalars and arrays  ****
OctLoc.c.b A Datatyp(siz) R M Lvl/name                 OctLoc.c.b A Datatyp(siz) R M Lvl/name

     0-0-0/w SBIN              1 NR_TERM

  ****  Section 012 LblCom LAST_ACT

  ****  Scalars and arrays  ****
OctLoc.c.b A Datatyp(siz) R M Lvl/name                 OctLoc.c.b A Datatyp(siz) R M Lvl/name

     0-0-0/w SBIN              1 LAST_ACT

  ****  Section 013 LblCom LAST_NULL

  ****  Scalars and arrays  ****
OctLoc.c.b A Datatyp(siz) R M Lvl/name                 OctLoc.c.b A Datatyp(siz) R M Lvl/name

     0-0-0/w SBIN              1 LAST_NULL

  ****  Section 014 LblCom NR_ONRIGHT

  ****  Scalars and arrays  ****
OctLoc.c.b A Datatyp(siz) R M Lvl/name                 OctLoc.c.b A Datatyp(siz) R M Lvl/name

     0-0-0/w SBIN              1 NR_ONRIGHT

  ****  Section 015 LblCom NR_NT

PL6.E3A0      #007=OUTPUT_MIN_MAX_BITS File=LR_TABLE.:Z8A6TSI                    SAT 08/09/97 09:40 Page:363
  ****  Scalars and arrays  ****
OctLoc.c.b A Datatyp(siz) R M Lvl/name                 OctLoc.c.b A Datatyp(siz) R M Lvl/name

     0-0-0/w SBIN              1 NR_NT

  ****  Section 016 LblCom PROD_LEN_MAX_EVER

  ****  Scalars and arrays  ****
OctLoc.c.b A Datatyp(siz) R M Lvl/name                 OctLoc.c.b A Datatyp(siz) R M Lvl/name

     0-0-0/w SBIN              1 PROD_LEN_MAX_EVER

  ****  Section 017 LblCom LAST_ORDER_SPECIFIED

  ****  Scalars and arrays  ****
OctLoc.c.b A Datatyp(siz) R M Lvl/name                 OctLoc.c.b A Datatyp(siz) R M Lvl/name

     0-0-0/w SBIN              1 LAST_ORDER_SPECIFIED

  ****  Section 018 LblCom SEMANTIC_ORDERING

  ****  Scalars and arrays  ****
OctLoc.c.b A Datatyp(siz) R M Lvl/name                 OctLoc.c.b A Datatyp(siz) R M Lvl/name

     0-0-0/b BIT               1 SEMANTIC_ORDERING

  ****  Section 019 LblCom ERR_SEV

  ****  Scalars and arrays  ****
OctLoc.c.b A Datatyp(siz) R M Lvl/name                 OctLoc.c.b A Datatyp(siz) R M Lvl/name

     0-0-0/w SBIN              1 ERR_SEV

  ****  Section 020 LblCom SET_LENGTHB

  ****  Scalars and arrays  ****
OctLoc.c.b A Datatyp(siz) R M Lvl/name                 OctLoc.c.b A Datatyp(siz) R M Lvl/name
PL6.E3A0      #007=OUTPUT_MIN_MAX_BITS File=LR_TABLE.:Z8A6TSI                    SAT 08/09/97 09:40 Page:364

     0-0-0/w SBIN              1 SET_LENGTHB

  ****  Section 021 LblCom SET_LENGTHW

  ****  Scalars and arrays  ****
OctLoc.c.b A Datatyp(siz) R M Lvl/name                 OctLoc.c.b A Datatyp(siz) R M Lvl/name

     0-0-0/w SBIN              1 SET_LENGTHW

  ****  Section 022 LblCom EOF_SYMBOL_PTR

  ****  Scalars and arrays  ****
OctLoc.c.b A Datatyp(siz) R M Lvl/name                 OctLoc.c.b A Datatyp(siz) R M Lvl/name

     0-0-0/w PTR               1 EOF_SYMBOL_PTR

  ****  Section 023 LblCom ERROR_SYMBOL_PTR

  ****  Scalars and arrays  ****
OctLoc.c.b A Datatyp(siz) R M Lvl/name                 OctLoc.c.b A Datatyp(siz) R M Lvl/name

     0-0-0/w PTR               1 ERROR_SYMBOL_PTR

  ****  Section 024 LblCom BOF_SYMBOL_PTR

  ****  Scalars and arrays  ****
OctLoc.c.b A Datatyp(siz) R M Lvl/name                 OctLoc.c.b A Datatyp(siz) R M Lvl/name

     0-0-0/w PTR               1 BOF_SYMBOL_PTR

  ****  Section 025 LblCom OPTIONS

  ****  Scalars and arrays  ****
OctLoc.c.b A Datatyp(siz) R M Lvl/name                 OctLoc.c.b A Datatyp(siz) R M Lvl/name

     0-0-0/b BIT               1 OPTIONS(0:25)
PL6.E3A0      #007=OUTPUT_MIN_MAX_BITS File=LR_TABLE.:Z8A6TSI                    SAT 08/09/97 09:40 Page:365

  ****  Section 026 LblCom OPTIONS_TEXT

  ****  Scalars and arrays  ****
OctLoc.c.b A Datatyp(siz) R M Lvl/name                 OctLoc.c.b A Datatyp(siz) R M Lvl/name

     0-0-0/c CHAR(4)           1 OPTIONS_TEXT(0:25)

  ****  Section 027 LblCom INSTR

  ****  Scalars and arrays  ****
OctLoc.c.b A Datatyp(siz) R M Lvl/name                 OctLoc.c.b A Datatyp(siz) R M Lvl/name

     0-0-0/c CHAR              1 INSTR(0:511)               0-0-0/c CHAR(512)         1 INSTRCHR

  ****  Section 028 LblCom INSTR_LISTED

  ****  Scalars and arrays  ****
OctLoc.c.b A Datatyp(siz) R M Lvl/name                 OctLoc.c.b A Datatyp(siz) R M Lvl/name

     0-0-0/b BIT               1 INSTR_LISTED

  ****  Section 029 LblCom INSTR_LEN

  ****  Scalars and arrays  ****
OctLoc.c.b A Datatyp(siz) R M Lvl/name                 OctLoc.c.b A Datatyp(siz) R M Lvl/name

     0-0-0/w SBIN              1 INSTR_LEN

  ****  Section 030 LblCom INSTR_INDX

  ****  Scalars and arrays  ****
OctLoc.c.b A Datatyp(siz) R M Lvl/name                 OctLoc.c.b A Datatyp(siz) R M Lvl/name

     0-0-0/w SBIN              1 INSTR_INDX

  ****  Section 031 LblCom EOF_FLAG
PL6.E3A0      #007=OUTPUT_MIN_MAX_BITS File=LR_TABLE.:Z8A6TSI                    SAT 08/09/97 09:40 Page:366

  ****  Scalars and arrays  ****
OctLoc.c.b A Datatyp(siz) R M Lvl/name                 OctLoc.c.b A Datatyp(siz) R M Lvl/name

     0-0-0/b BIT               1 EOF_FLAG

  ****  Section 032 LblCom KEY_REC

  ****  Scalars and arrays  ****
OctLoc.c.b A Datatyp(siz) R M Lvl/name                 OctLoc.c.b A Datatyp(siz) R M Lvl/name

     0-0-0/c CHAR(10)          1 KEY_REC

  ****  Section 033 LblCom LINE

  ****  Scalars and arrays  ****
OctLoc.c.b A Datatyp(siz) R M Lvl/name                 OctLoc.c.b A Datatyp(siz) R M Lvl/name

     0-0-0/c CHAR(109)         1 LINE

  ****  Section 034 LblCom LINELEN

  ****  Scalars and arrays  ****
OctLoc.c.b A Datatyp(siz) R M Lvl/name                 OctLoc.c.b A Datatyp(siz) R M Lvl/name

     0-0-0/w SBIN              1 LINELEN

  ****  Section 035 LblCom TSTATS

  ****  Scalars and arrays  ****
OctLoc.c.b A Datatyp(siz) R M Lvl/name                 OctLoc.c.b A Datatyp(siz) R M Lvl/name

     0-0-0/w STRC(7380)        1 TSTATS

  ****  Auto variables  ****

  ****  Scalars and arrays  ****
PL6.E3A0      #007=OUTPUT_MIN_MAX_BITS File=LR_TABLE.:Z8A6TSI                    SAT 08/09/97 09:40 Page:367
OctLoc.c.b A Datatyp(siz) R M Lvl/name                 OctLoc.c.b A Datatyp(siz) R M Lvl/name

     3-0-0/w PTR         r     1 @NAME                      4-0-0/w PTR         r     1 @NAME_LEN
     5-0-0/w PTR         r     1 @TS                       *0-0-0/c ACHR        r     1 NAME
    *0-0-0/w SBIN        r     1 NAME_LEN                  *0-0-0/w STRC(216)   r     1 TS

  ****  BASED and DCB variables  ****

  ****  Scalars and arrays  ****
OctLoc.c.b A Datatyp(siz) R M Lvl/name                 OctLoc.c.b A Datatyp(siz) R M Lvl/name

     0-0-0N  NULL        r     1 M$LO                       0-0-0N  NULL        r     1 M$OU
     0-0-0N  NULL        r     1 M$SI                       0-0-0N  NULL        r     1 M$SO
     0-0-0N  NULL        r     1 M$UI                       0-0-0/w STRC(351)         1 SYMBOL


   Procedure OUTPUT_MIN_MAX_BITS requires 65 words for executable code.
   Procedure OUTPUT_MIN_MAX_BITS requires 10 words of local(AUTO) storage.

PL6.E3A0      #008=OUTPUT_BITS File=LR_TABLE.:Z8A6TSI                            SAT 08/09/97 09:41 Page:368
     1691        1        /*T***********************************************************/
     1692        2        /*T*                                                         */
     1693        3        /*T* Copyright (c) Bull HN Information Systems Inc., 1997    */
     1694        4        /*T*                                                         */
     1695        5        /*T***********************************************************/
     1696        6        OUTPUT_BITS : PROC (NAME,
     1697        7                            NAME_LEN,
     1698        8                            NUMBER_BITS);
     1699        9
     1700       10        %INCLUDE LR_GRAM_EXT;
     1701      549
     1702      550    1     DCL NAME_LEN SBIN WORD;
     1703      551    1     DCL NAME CHAR (NAME_LEN);
     1704      552    1     DCL NUMBER_BITS SBIN WORD;
     1705      553
     1706      554    1     DCL OUT_STR ENTRY(2);
     1707      555    1     DCL FLUSH ENTRY;
     1708      556    1     DCL OUT_DEC ENTRY(1);
     1709      557
     1710      558
     1711      559          %OUT_STR (S="'%EQU BITS_'");
     1712      562    1     CALL OUT_STR(NAME, NAME_LEN);
     1713      563          %OUT_STR(S="' = '");
     1714      566    1     CALL OUT_DEC (NUMBER_BITS);
     1715      567          %OUTLINE(S="';'");
     1716      573
     1717      574    1   END OUTPUT_BITS;
     1718      575        %EOD;

PL6.E3A0      #008=OUTPUT_BITS File=LR_TABLE.:Z8A6TSI                            SAT 08/09/97 09:41 Page:369
--  Include file information  --

   LR_IO_EXT.:Z8A6TOU  cannot be made into a system file and is referenced.
   LR_GRAM_EXT.:Z8A6TOU  cannot be made into a system file and is referenced.
      No diagnostics issued in procedure OUTPUT_BITS.

   Procedure OUTPUT_BITS requires 26 words for executable code.
   Procedure OUTPUT_BITS requires 6 words of local(AUTO) storage.

PL6.E3A0      #008=OUTPUT_BITS File=LR_TABLE.:Z8A6TSI                            SAT 08/09/97 09:41 Page:370

 Object Unit name= OUTPUT_BITS                                File name= LR_TABLE.:Z8A6TOU
 UTS= AUG 09 '97 09:41:11.32 SAT                              Compiler= PL-6/E31         Sev=      00
 SharedLib= :SHARED_SYSTEM                                    Alt SharedLib=


    ****  Control sections  ****

 Sect   Type Bound  Init  Size OctSiz  Section name(segment info)
    0  LblCom even  none     1      1  OUT_DCBN
    1   DCB   even  none     0      0  M$OU
    2   DCB   even  none     0      0  M$SO
    3   DCB   even  none     0      0  M$LO
    4   DCB   even  none     0      0  M$SI
    5   DCB   even  none     0      0  M$UI
    6  LblCom even  none  1401   2571  SYM_PTRS
    7  LblCom even  none  4001   7641  RIGHT_PARTS
    8  LblCom even  none  3002   5672  PROD
    9  LblCom even  none     1      1  NR_PROD
   10  LblCom even  none     1      1  NR_SYMS
   11  LblCom even  none     1      1  NR_TERM
   12  LblCom even  none     1      1  LAST_ACT
   13  LblCom even  none     1      1  LAST_NULL
   14  LblCom even  none     1      1  NR_ONRIGHT
   15  LblCom even  none     1      1  NR_NT
   16  LblCom even  none     1      1  PROD_LEN_MAX_EVER
   17  LblCom even  none     1      1  LAST_ORDER_SPECIFIED
   18  LblCom even  none     1      1  SEMANTIC_ORDERING
   19  LblCom even  none     1      1  ERR_SEV
   20  LblCom even  none     1      1  SET_LENGTHB
   21  LblCom even  none     1      1  SET_LENGTHW
   22  LblCom even  none     1      1  EOF_SYMBOL_PTR
   23  LblCom even  none     1      1  ERROR_SYMBOL_PTR
   24  LblCom even  none     1      1  BOF_SYMBOL_PTR
   25  LblCom even  none     1      1  OPTIONS
   26  LblCom even  none    26     32  OPTIONS_TEXT
   27  LblCom even  none   128    200  INSTR
   28  LblCom even  none     1      1  INSTR_LISTED
PL6.E3A0      #008=OUTPUT_BITS File=LR_TABLE.:Z8A6TSI                            SAT 08/09/97 09:41 Page:371
   29  LblCom even  none     1      1  INSTR_LEN
   30  LblCom even  none     1      1  INSTR_INDX
   31  LblCom even  none     1      1  EOF_FLAG
   32  LblCom even  none     3      3  KEY_REC
   33  LblCom even  none    28     34  LINE
   34  LblCom even  none     1      1  LINELEN
   35  LblCom even  none   205    315  TSTATS
   36  RoData even  UTS      4      4  OUTPUT_BITS
   37   Proc  even  none    26     32  OUTPUT_BITS
   38  RoData even  none    13     15  OUTPUT_BITS

    ****  Entry defs  ****

                              Check   Calling
                             calling  sequence
  Sect OctLoc Primary Altret sequence   type   Parms  Name
    37      0   yes            yes      Std        3  OUTPUT_BITS

  ****  Entry refs  ****

         Check        Calling
        calling       sequence
Altret sequence SRef   type   Args  Name
         yes           Std       2 OUT_STR
         yes           Std       0 FLUSH
         yes           Std       1 OUT_DEC
                       nStd      0 X66_AUTO_3
                       nStd      0 X66_ARET

  ****  Data refs  ****

  Flags:  r = read only, s = secondary
Flgs Name                             Flgs Name                             Flgs Name
     M$OU                                  M$SO                                  M$LO
     M$SI                                  M$UI
PL6.E3A0      #008=OUTPUT_BITS File=LR_TABLE.:Z8A6TSI                            SAT 08/09/97 09:41 Page:372

  ****  Segment refs  ****

  Flags:  r = read only, s = secondary
Flgs Name                             Flgs Name                             Flgs Name
     NULLSID                               ISSID
PL6.E3A0      #008=OUTPUT_BITS File=LR_TABLE.:Z8A6TSI                            SAT 08/09/97 09:41 Page:373


     1691        1        /*T***********************************************************/
     1692        2        /*T*                                                         */
     1693        3        /*T* Copyright (c) Bull HN Information Systems Inc., 1997    */
     1694        4        /*T*                                                         */
     1695        5        /*T***********************************************************/
     1696        6        OUTPUT_BITS : PROC (NAME,

      6 37 000000   000000 700200 xent  OUTPUT_BITS  TSX0  ! X66_AUTO_3
        37 000001   000006 000003                    ZERO    6,3

     1697        7                            NAME_LEN,
     1698        8                            NUMBER_BITS);
     1699        9
     1700       10        %INCLUDE LR_GRAM_EXT;
     1701      549
     1702      550    1     DCL NAME_LEN SBIN WORD;
     1703      551    1     DCL NAME CHAR (NAME_LEN);
     1704      552    1     DCL NUMBER_BITS SBIN WORD;
     1705      553
     1706      554    1     DCL OUT_STR ENTRY(2);
     1707      555    1     DCL FLUSH ENTRY;
     1708      556    1     DCL OUT_DEC ENTRY(1);
     1709      557
     1710      558
     1711      559          %OUT_STR (S="'%EQU BITS_'");

    560 37 000002   000002 630400 38                 EPPR0   2
        37 000003   000000 631400 38                 EPPR1   0
        37 000004   000000 701000 xent               TSX1    OUT_STR
        37 000005   000000 011000                    NOP     0

     1712      562    1     CALL OUT_STR(NAME, NAME_LEN);

    562 37 000006   200003 630500                    EPPR0   @NAME,,AUTO
        37 000007   000000 631400 38                 EPPR1   0
        37 000010   000000 701000 xent               TSX1    OUT_STR
PL6.E3A0      #008=OUTPUT_BITS File=LR_TABLE.:Z8A6TSI                            SAT 08/09/97 09:41 Page:374
        37 000011   000000 011000                    NOP     0

     1713      563          %OUT_STR(S="' = '");

    564 37 000012   000005 630400 38                 EPPR0   5
        37 000013   000000 631400 38                 EPPR1   0
        37 000014   000000 701000 xent               TSX1    OUT_STR
        37 000015   000000 011000                    NOP     0

     1714      566    1     CALL OUT_DEC (NUMBER_BITS);

    566 37 000016   200005 630500                    EPPR0   @NUMBER_BITS,,AUTO
        37 000017   000007 631400 38                 EPPR1   7
        37 000020   000000 701000 xent               TSX1    OUT_DEC
        37 000021   000000 011000                    NOP     0

     1715      567          %OUTLINE(S="';'");

    569 37 000022   000012 630400 38                 EPPR0   10
        37 000023   000000 631400 38                 EPPR1   0
        37 000024   000000 701000 xent               TSX1    OUT_STR
        37 000025   000000 011000                    NOP     0

    570 37 000026   000014 631400 38                 EPPR1   12
        37 000027   000000 701000 xent               TSX1    FLUSH
        37 000030   000000 011000                    NOP     0

     1716      573
     1717      574    1   END OUTPUT_BITS;

    574 37 000031   000000 702200 xent               TSX2  ! X66_ARET
     1718      575        %EOD;

PL6.E3A0      #008=OUTPUT_BITS File=LR_TABLE.:Z8A6TSI                            SAT 08/09/97 09:41 Page:375
--  Include file information  --

   LR_IO_EXT.:Z8A6TOU  cannot be made into a system file and is referenced.
   LR_GRAM_EXT.:Z8A6TOU  cannot be made into a system file and is referenced.
      No diagnostics issued in procedure OUTPUT_BITS.
PL6.E3A0      #008=OUTPUT_BITS File=LR_TABLE.:Z8A6TSI                            SAT 08/09/97 09:41 Page:376

 **** Variables and constants ****

  ****  Section 000 LblCom OUT_DCBN

  ****  Scalars and arrays  ****
OctLoc.c.b A Datatyp(siz) R M Lvl/name                 OctLoc.c.b A Datatyp(siz) R M Lvl/name

     0-0-0/w SBIN              1 OUT_DCBN

  ****  Section 006 LblCom SYM_PTRS

  ****  Scalars and arrays  ****
OctLoc.c.b A Datatyp(siz) R M Lvl/name                 OctLoc.c.b A Datatyp(siz) R M Lvl/name

     0-0-0/w PTR               1 SYM_PTRS(0:1400)

  ****  Section 007 LblCom RIGHT_PARTS

  ****  Scalars and arrays  ****
OctLoc.c.b A Datatyp(siz) R M Lvl/name                 OctLoc.c.b A Datatyp(siz) R M Lvl/name

     0-0-0/h SBIN(18)          1 RIGHT_PARTS(0:8000)

  ****  Section 008 LblCom PROD

  ****  Scalars and arrays  ****
OctLoc.c.b A Datatyp(siz) R M Lvl/name                 OctLoc.c.b A Datatyp(siz) R M Lvl/name

     0-0-0/h STRC(72)          1 PROD(0:1500)

  ****  Section 009 LblCom NR_PROD

  ****  Scalars and arrays  ****
OctLoc.c.b A Datatyp(siz) R M Lvl/name                 OctLoc.c.b A Datatyp(siz) R M Lvl/name

     0-0-0/w SBIN              1 NR_PROD

PL6.E3A0      #008=OUTPUT_BITS File=LR_TABLE.:Z8A6TSI                            SAT 08/09/97 09:41 Page:377
  ****  Section 010 LblCom NR_SYMS

  ****  Scalars and arrays  ****
OctLoc.c.b A Datatyp(siz) R M Lvl/name                 OctLoc.c.b A Datatyp(siz) R M Lvl/name

     0-0-0/w SBIN              1 NR_SYMS

  ****  Section 011 LblCom NR_TERM

  ****  Scalars and arrays  ****
OctLoc.c.b A Datatyp(siz) R M Lvl/name                 OctLoc.c.b A Datatyp(siz) R M Lvl/name

     0-0-0/w SBIN              1 NR_TERM

  ****  Section 012 LblCom LAST_ACT

  ****  Scalars and arrays  ****
OctLoc.c.b A Datatyp(siz) R M Lvl/name                 OctLoc.c.b A Datatyp(siz) R M Lvl/name

     0-0-0/w SBIN              1 LAST_ACT

  ****  Section 013 LblCom LAST_NULL

  ****  Scalars and arrays  ****
OctLoc.c.b A Datatyp(siz) R M Lvl/name                 OctLoc.c.b A Datatyp(siz) R M Lvl/name

     0-0-0/w SBIN              1 LAST_NULL

  ****  Section 014 LblCom NR_ONRIGHT

  ****  Scalars and arrays  ****
OctLoc.c.b A Datatyp(siz) R M Lvl/name                 OctLoc.c.b A Datatyp(siz) R M Lvl/name

     0-0-0/w SBIN              1 NR_ONRIGHT

  ****  Section 015 LblCom NR_NT

PL6.E3A0      #008=OUTPUT_BITS File=LR_TABLE.:Z8A6TSI                            SAT 08/09/97 09:41 Page:378
  ****  Scalars and arrays  ****
OctLoc.c.b A Datatyp(siz) R M Lvl/name                 OctLoc.c.b A Datatyp(siz) R M Lvl/name

     0-0-0/w SBIN              1 NR_NT

  ****  Section 016 LblCom PROD_LEN_MAX_EVER

  ****  Scalars and arrays  ****
OctLoc.c.b A Datatyp(siz) R M Lvl/name                 OctLoc.c.b A Datatyp(siz) R M Lvl/name

     0-0-0/w SBIN              1 PROD_LEN_MAX_EVER

  ****  Section 017 LblCom LAST_ORDER_SPECIFIED

  ****  Scalars and arrays  ****
OctLoc.c.b A Datatyp(siz) R M Lvl/name                 OctLoc.c.b A Datatyp(siz) R M Lvl/name

     0-0-0/w SBIN              1 LAST_ORDER_SPECIFIED

  ****  Section 018 LblCom SEMANTIC_ORDERING

  ****  Scalars and arrays  ****
OctLoc.c.b A Datatyp(siz) R M Lvl/name                 OctLoc.c.b A Datatyp(siz) R M Lvl/name

     0-0-0/b BIT               1 SEMANTIC_ORDERING

  ****  Section 019 LblCom ERR_SEV

  ****  Scalars and arrays  ****
OctLoc.c.b A Datatyp(siz) R M Lvl/name                 OctLoc.c.b A Datatyp(siz) R M Lvl/name

     0-0-0/w SBIN              1 ERR_SEV

  ****  Section 020 LblCom SET_LENGTHB

  ****  Scalars and arrays  ****
OctLoc.c.b A Datatyp(siz) R M Lvl/name                 OctLoc.c.b A Datatyp(siz) R M Lvl/name
PL6.E3A0      #008=OUTPUT_BITS File=LR_TABLE.:Z8A6TSI                            SAT 08/09/97 09:41 Page:379

     0-0-0/w SBIN              1 SET_LENGTHB

  ****  Section 021 LblCom SET_LENGTHW

  ****  Scalars and arrays  ****
OctLoc.c.b A Datatyp(siz) R M Lvl/name                 OctLoc.c.b A Datatyp(siz) R M Lvl/name

     0-0-0/w SBIN              1 SET_LENGTHW

  ****  Section 022 LblCom EOF_SYMBOL_PTR

  ****  Scalars and arrays  ****
OctLoc.c.b A Datatyp(siz) R M Lvl/name                 OctLoc.c.b A Datatyp(siz) R M Lvl/name

     0-0-0/w PTR               1 EOF_SYMBOL_PTR

  ****  Section 023 LblCom ERROR_SYMBOL_PTR

  ****  Scalars and arrays  ****
OctLoc.c.b A Datatyp(siz) R M Lvl/name                 OctLoc.c.b A Datatyp(siz) R M Lvl/name

     0-0-0/w PTR               1 ERROR_SYMBOL_PTR

  ****  Section 024 LblCom BOF_SYMBOL_PTR

  ****  Scalars and arrays  ****
OctLoc.c.b A Datatyp(siz) R M Lvl/name                 OctLoc.c.b A Datatyp(siz) R M Lvl/name

     0-0-0/w PTR               1 BOF_SYMBOL_PTR

  ****  Section 025 LblCom OPTIONS

  ****  Scalars and arrays  ****
OctLoc.c.b A Datatyp(siz) R M Lvl/name                 OctLoc.c.b A Datatyp(siz) R M Lvl/name

     0-0-0/b BIT               1 OPTIONS(0:25)
PL6.E3A0      #008=OUTPUT_BITS File=LR_TABLE.:Z8A6TSI                            SAT 08/09/97 09:41 Page:380

  ****  Section 026 LblCom OPTIONS_TEXT

  ****  Scalars and arrays  ****
OctLoc.c.b A Datatyp(siz) R M Lvl/name                 OctLoc.c.b A Datatyp(siz) R M Lvl/name

     0-0-0/c CHAR(4)           1 OPTIONS_TEXT(0:25)

  ****  Section 027 LblCom INSTR

  ****  Scalars and arrays  ****
OctLoc.c.b A Datatyp(siz) R M Lvl/name                 OctLoc.c.b A Datatyp(siz) R M Lvl/name

     0-0-0/c CHAR              1 INSTR(0:511)               0-0-0/c CHAR(512)         1 INSTRCHR

  ****  Section 028 LblCom INSTR_LISTED

  ****  Scalars and arrays  ****
OctLoc.c.b A Datatyp(siz) R M Lvl/name                 OctLoc.c.b A Datatyp(siz) R M Lvl/name

     0-0-0/b BIT               1 INSTR_LISTED

  ****  Section 029 LblCom INSTR_LEN

  ****  Scalars and arrays  ****
OctLoc.c.b A Datatyp(siz) R M Lvl/name                 OctLoc.c.b A Datatyp(siz) R M Lvl/name

     0-0-0/w SBIN              1 INSTR_LEN

  ****  Section 030 LblCom INSTR_INDX

  ****  Scalars and arrays  ****
OctLoc.c.b A Datatyp(siz) R M Lvl/name                 OctLoc.c.b A Datatyp(siz) R M Lvl/name

     0-0-0/w SBIN              1 INSTR_INDX

  ****  Section 031 LblCom EOF_FLAG
PL6.E3A0      #008=OUTPUT_BITS File=LR_TABLE.:Z8A6TSI                            SAT 08/09/97 09:41 Page:381

  ****  Scalars and arrays  ****
OctLoc.c.b A Datatyp(siz) R M Lvl/name                 OctLoc.c.b A Datatyp(siz) R M Lvl/name

     0-0-0/b BIT               1 EOF_FLAG

  ****  Section 032 LblCom KEY_REC

  ****  Scalars and arrays  ****
OctLoc.c.b A Datatyp(siz) R M Lvl/name                 OctLoc.c.b A Datatyp(siz) R M Lvl/name

     0-0-0/c CHAR(10)          1 KEY_REC

  ****  Section 033 LblCom LINE

  ****  Scalars and arrays  ****
OctLoc.c.b A Datatyp(siz) R M Lvl/name                 OctLoc.c.b A Datatyp(siz) R M Lvl/name

     0-0-0/c CHAR(109)         1 LINE

  ****  Section 034 LblCom LINELEN

  ****  Scalars and arrays  ****
OctLoc.c.b A Datatyp(siz) R M Lvl/name                 OctLoc.c.b A Datatyp(siz) R M Lvl/name

     0-0-0/w SBIN              1 LINELEN

  ****  Section 035 LblCom TSTATS

  ****  Scalars and arrays  ****
OctLoc.c.b A Datatyp(siz) R M Lvl/name                 OctLoc.c.b A Datatyp(siz) R M Lvl/name

     0-0-0/w STRC(7380)        1 TSTATS

  ****  Auto variables  ****

  ****  Scalars and arrays  ****
PL6.E3A0      #008=OUTPUT_BITS File=LR_TABLE.:Z8A6TSI                            SAT 08/09/97 09:41 Page:382
OctLoc.c.b A Datatyp(siz) R M Lvl/name                 OctLoc.c.b A Datatyp(siz) R M Lvl/name

     3-0-0/w PTR         r     1 @NAME                      4-0-0/w PTR         r     1 @NAME_LEN
     5-0-0/w PTR         r     1 @NUMBER_BITS              *0-0-0/c ACHR        r     1 NAME
    *0-0-0/w SBIN        r     1 NAME_LEN                  *0-0-0/w SBIN        r     1 NUMBER_BITS

  ****  BASED and DCB variables  ****

  ****  Scalars and arrays  ****
OctLoc.c.b A Datatyp(siz) R M Lvl/name                 OctLoc.c.b A Datatyp(siz) R M Lvl/name

     0-0-0N  NULL        r     1 M$LO                       0-0-0N  NULL        r     1 M$OU
     0-0-0N  NULL        r     1 M$SI                       0-0-0N  NULL        r     1 M$SO
     0-0-0N  NULL        r     1 M$UI                       0-0-0/w STRC(351)         1 SYMBOL


   Procedure OUTPUT_BITS requires 26 words for executable code.
   Procedure OUTPUT_BITS requires 6 words of local(AUTO) storage.

PL6.E3A0      #009=OUTPUT_TERMINAL_STRINGS File=LR_TABLE.:Z8A6TSI                SAT 08/09/97 09:41 Page:383
     1719        1        /*T***********************************************************/
     1720        2        /*T*                                                         */
     1721        3        /*T* Copyright (c) Bull HN Information Systems Inc., 1997    */
     1722        4        /*T*                                                         */
     1723        5        /*T***********************************************************/
     1724        6        OUTPUT_TERMINAL_STRINGS : PROC;
     1725        7
     1726        8        /*D*
     1727        9              NAME: OUTPUT_TERMINAL_STRINGS
     1728       10            PURPOSE: OUTPUT THE STRINGS COMPRISING THE TERMINAL SYMBOLS.
     1729       11        */
     1730       12
     1731       13        %INCLUDE LR_GRAM_EXT;
     1732      552        %INCLUDE LR_CNFG_EXT;
     1733      705
     1734      706    1   DCL OUT_SYMBOL ENTRY(1);
     1735      707    1   DCL OUT_SYMBOL_TOKEN ENTRY(1);
     1736      708    1   DCL OUT_STR ENTRY(2);
     1737      709    1   DCL OUT_DEC ENTRY(1);
     1738      710    1   DCL FLUSH ENTRY;
     1739      711    1   DCL DIAG ENTRY(6);
     1740      712
     1741      713    1   DCL T               SBIN WORD;
     1742      714    1   DCL I               SBIN WORD;
     1743      715    1   DCL J               SBIN WORD;
     1744      716    1   DCL SLIT_LEN        SBIN WORD;
     1745      717    1   DCL P_SEARCH_STRING PTR;
     1746      718    1   DCL P_SEARCH_LEN    SBIN WORD;
     1747      719    1   DCL SEARCH_STRING CHAR(P_SEARCH_LEN) BASED(P_SEARCH_STRING);
     1748      720
     1749      721        %EQU MAX_STRING_LEN = NR_TERM_MAX * 20;
     1750      722
     1751      723    1   DCL STRING_SPACE CHAR(%MAX_STRING_LEN);
     1752      724    1   DCL STRINGS_PTR PTR ;
     1753      725    1   DCL STRINGS CHAR(SLIT_LEN) BASED (STRINGS_PTR);
     1754      726    1   DCL STRING_INDX SBIN WORD;
     1755      727
PL6.E3A0      #009=OUTPUT_TERMINAL_STRINGS File=LR_TABLE.:Z8A6TSI                SAT 08/09/97 09:41 Page:384
     1756      728    1   DCL T_S_INDX (0:NR_TERM_MAX) SBIN WORD;
     1757      729
     1758      730
     1759      731    1   STRINGS_PTR = ADDR(STRING_SPACE);
     1760      732
     1761      733        %SELECT_SUBS;
     1762      736
     1763      737        %OUT_STR(S="'%EQU TERM_STRING_LEN = '");
     1764      740    1   CALL OUT_DEC (NR_TERM);
     1765      741        %OUT_STR(S="';'");
     1766      744    1   CALL FLUSH;
     1767      745
     1768      746        %STAT_LENGTH(T=T_S_LEN,V="NR_TERM+1");
     1769      749        %STAT_LENGTH(T=T_S_INDX,V="NR_TERM+1");
     1770      752
     1771      753        %SELECT_OU;
     1772      756
     1773      757        %OUTLINE(S="'%START_TABLE_TERM_STRING;'");
     1774      763
     1775      764    1   SLIT_LEN = 40;
     1776      765    1   STRING_SPACE = ' ';
     1777      766
     1778      767    2   DO T = NR_TERM DOWNTO 1;
     1779      768
     1780      769    2     P_SEARCH_LEN = SYM_PTRS(T) -> SYMBOL.SYMLEN;
     1781      770    2     P_SEARCH_STRING = ADDR(SYM_PTRS(T) -> SYMBOL.TEXTCHR);
     1782      771
     1783      772    2     CALL INDEX (STRING_INDX, SEARCH_STRING, STRINGS);
     1784      773
     1785      774    2     IF STRING_INDX = SLIT_LEN THEN
     1786      775    3       DO;
     1787      776    3         IF P_SEARCH_LEN + SLIT_LEN > %MAX_STRING_LEN THEN
     1788      777    3           CALL DIAG (15,
               777                 'ERROR => Terminal string space exhausted during error table generation.%%'
               777                    );
     1789      778
     1790      779    3         CALL INSERT  (STRING_SPACE, SLIT_LEN, P_SEARCH_LEN, SEARCH_STRING);
PL6.E3A0      #009=OUTPUT_TERMINAL_STRINGS File=LR_TABLE.:Z8A6TSI                SAT 08/09/97 09:41 Page:385
     1791      780    3         SLIT_LEN = SLIT_LEN + P_SEARCH_LEN;
     1792      781    3       END;
     1793      782
     1794      783    2     T_S_INDX(T) = STRING_INDX;
     1795      784
     1796      785    2   END;
     1797      786
     1798      787    2   DO T = 1 TO NR_TERM;
     1799      788
     1800      789
     1801      790          %OUT_STR(S="'  %TSTRING(I='");
     1802      793    2     CALL OUT_DEC (T_S_INDX(T));
     1803      794
     1804      795          %BOUNDS(T=T_S_INDX, V="T_S_INDX(T)");
     1805      801
     1806      802          %OUT_STR(S="',L='");
     1807      805    2     CALL OUT_DEC(SYM_PTRS(T) -> SYMBOL.SYMLEN);
     1808      806
     1809      807          %BOUNDS(T=T_S_LEN, V="SYM_PTRS(T) -> SYMBOL.SYMLEN");
     1810      813
     1811      814          %OUT_STR(S="');  /* '");
     1812      817    2     CALL OUT_DEC (T);
     1813      818          %OUT_STR(S="' '");
     1814      821    2     CALL OUT_SYMBOL (SYM_PTRS(T));
     1815      822          %OUT_STR(S="' */'");
     1816      825    2     CALL FLUSH;
     1817      826    2   END;
     1818      827
     1819      828        %OUTLINE(S="'%END_TABLE_TERM_STRING;'");
     1820      834
     1821      835    1   STRING_INDX = ((SLIT_LEN + 39)/40) - 1;
     1822      836
     1823      837        %OUTLINE(S="'%START_TABLE_TSTRING_SPACE;'");
     1824      843
     1825      844    2   DO I = 1 TO STRING_INDX;
     1826      845
     1827      846          %OUT_STR(S="'  %TSPACE(S='");
PL6.E3A0      #009=OUTPUT_TERMINAL_STRINGS File=LR_TABLE.:Z8A6TSI                SAT 08/09/97 09:41 Page:386
     1828      849    2     CALL OUT_STR('"''', 2);
     1829      850    2     CALL INDEX(J,'''',SUBSTR(STRING_SPACE,I*40,40));
     1830      851    2     IF J >= 40 THEN
     1831      852    2       CALL OUT_STR(SUBSTR(STRING_SPACE, I*40, 40), 40);
     1832      853    2     ELSE
     1833      854    3       DO J = 0 TO 39;
     1834      855    3         IF SUBSTR(STRING_SPACE, I*40 + J, 1) = '''' THEN
     1835      856                %OUT_STR(S="''''''");
     1836      859    3         ELSE
     1837      860    3           CALL OUT_STR(SUBSTR(STRING_SPACE, I*40 + J, 1), 1);
     1838      861    3       END;
     1839      862    2     CALL OUT_STR('''"', 2);
     1840      863          %OUT_STR(S="');  /* '");
     1841      866    2     CALL OUT_DEC((I+1)*40);
     1842      867          %OUT_STR(S="' */'");
     1843      870    2     CALL FLUSH;
     1844      871
     1845      872    2   END;
     1846      873
     1847      874        %OUTLINE(S="'%END_TABLE_TSTRING_SPACE;'");
     1848      880
     1849      881        %SELECT_SUBS;
     1850      884
     1851      885        %OUT_STR(S="'%EQU TSTRING_SPACE_LEN = '");
     1852      888    1   CALL OUT_DEC(STRING_INDX);
     1853      889        %OUT_STR(S="';'");
     1854      892    1   CALL FLUSH;
     1855      893
     1856      894        %OUT_STR(S="'%EQU TSTRING_SPACE_LEN_CHARS = '");
     1857      897    1   CALL OUT_DEC((STRING_INDX + 1)*40);
     1858      898        %OUT_STR(S="';'");
     1859      901    1   CALL FLUSH;
     1860      902
     1861      903        %STAT_LENGTH(T=TS_SP, V="(STRING_INDX+1)*40");
     1862      906    1   TSTATS.TS_SP.NBITS = 9;
     1863      907
     1864      908    1   END OUTPUT_TERMINAL_STRINGS;
PL6.E3A0      #009=OUTPUT_TERMINAL_STRINGS File=LR_TABLE.:Z8A6TSI                SAT 08/09/97 09:41 Page:387

PL6.E3A0      #009=OUTPUT_TERMINAL_STRINGS File=LR_TABLE.:Z8A6TSI                SAT 08/09/97 09:41 Page:388
--  Include file information  --

   LR_CNFG_EXT.:Z8A6TOU  cannot be made into a system file and is referenced.
   LR_IO_EXT.:Z8A6TOU  cannot be made into a system file and is referenced.
   LR_GRAM_EXT.:Z8A6TOU  cannot be made into a system file and is referenced.
      No diagnostics issued in procedure OUTPUT_TERMINAL_STRINGS.

   Procedure OUTPUT_TERMINAL_STRINGS requires 331 words for executable code.
   Procedure OUTPUT_TERMINAL_STRINGS requires 4216 words of local(AUTO) storage.

    No errors detected in file LR_TABLE.:Z8A6TSI    .

PL6.E3A0      #009=OUTPUT_TERMINAL_STRINGS File=LR_TABLE.:Z8A6TSI                SAT 08/09/97 09:41 Page:389

 Object Unit name= OUTPUT_TERMINAL_STRINGS                    File name= LR_TABLE.:Z8A6TOU
 UTS= AUG 09 '97 09:41:24.96 SAT                              Compiler= PL-6/E31         Sev=      00
 SharedLib= :SHARED_SYSTEM                                    Alt SharedLib=


    ****  Control sections  ****

 Sect   Type Bound  Init  Size OctSiz  Section name(segment info)
    0  LblCom even  none     1      1  OUT_DCBN
    1   DCB   even  none     0      0  M$OU
    2   DCB   even  none     0      0  M$SO
    3   DCB   even  none     0      0  M$LO
    4   DCB   even  none     0      0  M$SI
    5   DCB   even  none     0      0  M$UI
    6  LblCom even  none  1401   2571  SYM_PTRS
    7  LblCom even  none  4001   7641  RIGHT_PARTS
    8  LblCom even  none  3002   5672  PROD
    9  LblCom even  none     1      1  NR_PROD
   10  LblCom even  none     1      1  NR_SYMS
   11  LblCom even  none     1      1  NR_TERM
   12  LblCom even  none     1      1  LAST_ACT
   13  LblCom even  none     1      1  LAST_NULL
   14  LblCom even  none     1      1  NR_ONRIGHT
   15  LblCom even  none     1      1  NR_NT
   16  LblCom even  none     1      1  PROD_LEN_MAX_EVER
   17  LblCom even  none     1      1  LAST_ORDER_SPECIFIED
   18  LblCom even  none     1      1  SEMANTIC_ORDERING
   19  LblCom even  none     1      1  ERR_SEV
   20  LblCom even  none     1      1  SET_LENGTHB
   21  LblCom even  none     1      1  SET_LENGTHW
   22  LblCom even  none     1      1  EOF_SYMBOL_PTR
   23  LblCom even  none     1      1  ERROR_SYMBOL_PTR
   24  LblCom even  none     1      1  BOF_SYMBOL_PTR
   25  LblCom even  none     1      1  OPTIONS
   26  LblCom even  none    26     32  OPTIONS_TEXT
   27  LblCom even  none   128    200  INSTR
   28  LblCom even  none     1      1  INSTR_LISTED
PL6.E3A0      #009=OUTPUT_TERMINAL_STRINGS File=LR_TABLE.:Z8A6TSI                SAT 08/09/97 09:41 Page:390
   29  LblCom even  none     1      1  INSTR_LEN
   30  LblCom even  none     1      1  INSTR_INDX
   31  LblCom even  none     1      1  EOF_FLAG
   32  LblCom even  none     3      3  KEY_REC
   33  LblCom even  none    28     34  LINE
   34  LblCom even  none     1      1  LINELEN
   35  LblCom even  none   205    315  TSTATS
   36  LblCom even  none  2201   4231  C#_TO_$
   37  LblCom even  none     1      1  NR_CONFIG
   38  LblCom even  none     1      1  INIT_CONFIG
   39  LblCom even  none     1      1  MAX_BASIS_ITEMS
   40  LblCom even  none     1      1  MAX_TOTAL_ITEMS
   41  LblCom even  none     1      1  LAST_BINSRCH_ONLY
   42  LblCom even  none     1      1  LAST_BOTH_BITBIN
   43  RoData even  UTS     81    121  OUTPUT_TERMINAL_STRINGS
   44   Proc  even  none   331    513  OUTPUT_TERMINAL_STRINGS
   45  RoData even  none    56     70  OUTPUT_TERMINAL_STRINGS

    ****  Entry defs  ****

                              Check   Calling
                             calling  sequence
  Sect OctLoc Primary Altret sequence   type   Parms  Name
    44      0   yes            yes      Std        0  OUTPUT_TERMINAL_STRINGS
PL6.E3A0      #009=OUTPUT_TERMINAL_STRINGS File=LR_TABLE.:Z8A6TSI                SAT 08/09/97 09:41 Page:391

  ****  Entry refs  ****

         Check        Calling
        calling       sequence
Altret sequence SRef   type   Args  Name
         yes           Std       2 OUT_STR
         yes           Std       0 FLUSH
         yes           Std       6 DIAG
         yes           Std       1 OUT_SYMBOL
         yes           Std       1 OUT_DEC
                       nStd      0 X66_AUTO_0
                       nStd      0 X66_INDEX
                       nStd      0 X66_ARET

  ****  Data refs  ****

  Flags:  r = read only, s = secondary
Flgs Name                             Flgs Name                             Flgs Name
     M$OU                                  M$SO                                  M$LO
     M$SI                                  M$UI

  ****  Segment refs  ****

  Flags:  r = read only, s = secondary
Flgs Name                             Flgs Name                             Flgs Name
     NULLSID                               ISSID
PL6.E3A0      #009=OUTPUT_TERMINAL_STRINGS File=LR_TABLE.:Z8A6TSI                SAT 08/09/97 09:41 Page:392


     1719        1        /*T***********************************************************/
     1720        2        /*T*                                                         */
     1721        3        /*T* Copyright (c) Bull HN Information Systems Inc., 1997    */
     1722        4        /*T*                                                         */
     1723        5        /*T***********************************************************/
     1724        6        OUTPUT_TERMINAL_STRINGS : PROC;

      6 44 000000   000000 700200 xent  OUTPUT_TERM* TSX0  ! X66_AUTO_0
        44 000001   010170 000000                    ZERO    4216,0

     1725        7
     1726        8        /*D*
     1727        9              NAME: OUTPUT_TERMINAL_STRINGS
     1728       10            PURPOSE: OUTPUT THE STRINGS COMPRISING THE TERMINAL SYMBOLS.
     1729       11        */
     1730       12
     1731       13        %INCLUDE LR_GRAM_EXT;
     1732      552        %INCLUDE LR_CNFG_EXT;
     1733      705
     1734      706    1   DCL OUT_SYMBOL ENTRY(1);
     1735      707    1   DCL OUT_SYMBOL_TOKEN ENTRY(1);
     1736      708    1   DCL OUT_STR ENTRY(2);
     1737      709    1   DCL OUT_DEC ENTRY(1);
     1738      710    1   DCL FLUSH ENTRY;
     1739      711    1   DCL DIAG ENTRY(6);
     1740      712
     1741      713    1   DCL T               SBIN WORD;
     1742      714    1   DCL I               SBIN WORD;
     1743      715    1   DCL J               SBIN WORD;
     1744      716    1   DCL SLIT_LEN        SBIN WORD;
     1745      717    1   DCL P_SEARCH_STRING PTR;
     1746      718    1   DCL P_SEARCH_LEN    SBIN WORD;
     1747      719    1   DCL SEARCH_STRING CHAR(P_SEARCH_LEN) BASED(P_SEARCH_STRING);
     1748      720
     1749      721        %EQU MAX_STRING_LEN = NR_TERM_MAX * 20;
     1750      722
PL6.E3A0      #009=OUTPUT_TERMINAL_STRINGS File=LR_TABLE.:Z8A6TSI                SAT 08/09/97 09:41 Page:393
     1751      723    1   DCL STRING_SPACE CHAR(%MAX_STRING_LEN);
     1752      724    1   DCL STRINGS_PTR PTR ;
     1753      725    1   DCL STRINGS CHAR(SLIT_LEN) BASED (STRINGS_PTR);
     1754      726    1   DCL STRING_INDX SBIN WORD;
     1755      727
     1756      728    1   DCL T_S_INDX (0:NR_TERM_MAX) SBIN WORD;
     1757      729
     1758      730
     1759      731    1   STRINGS_PTR = ADDR(STRING_SPACE);

    731 44 000002   200011 630500                    EPPR0   STRING_SPACE,,AUTO
        44 000003   206665 450500                    STP0    STRINGS_PTR,,AUTO

     1760      732
     1761      733        %SELECT_SUBS;

    734 44 000004   000000 236007 xsym               LDQ     M$SO,DL
        44 000005   000000 756000 0                  STQ     OUT_DCBN

     1762      736
     1763      737        %OUT_STR(S="'%EQU TERM_STRING_LEN = '");

    738 44 000006   000002 630400 45                 EPPR0   2
        44 000007   000000 631400 45                 EPPR1   0
        44 000010   000000 701000 xent               TSX1    OUT_STR
        44 000011   000000 011000                    NOP     0

     1764      740    1   CALL OUT_DEC (NR_TERM);

    740 44 000012   000005 630400 45                 EPPR0   5
        44 000013   000004 631400 45                 EPPR1   4
        44 000014   000000 701000 xent               TSX1    OUT_DEC
        44 000015   000000 011000                    NOP     0

     1765      741        %OUT_STR(S="';'");

    742 44 000016   000010 630400 45                 EPPR0   8
PL6.E3A0      #009=OUTPUT_TERMINAL_STRINGS File=LR_TABLE.:Z8A6TSI                SAT 08/09/97 09:41 Page:394
        44 000017   000000 631400 45                 EPPR1   0
        44 000020   000000 701000 xent               TSX1    OUT_STR
        44 000021   000000 011000                    NOP     0

     1766      744    1   CALL FLUSH;

    744 44 000022   000012 631400 45                 EPPR1   10
        44 000023   000000 701000 xent               TSX1    FLUSH
        44 000024   000000 011000                    NOP     0

     1767      745
     1768      746        %STAT_LENGTH(T=T_S_LEN,V="NR_TERM+1");

    747 44 000025   000000 235000 11                 LDA     NR_TERM
        44 000026   000001 035007                    ADLA    1,DL
        44 000027   000201 755000 35                 STA     TSTATS+129

     1769      749        %STAT_LENGTH(T=T_S_INDX,V="NR_TERM+1");

    750 44 000030   000173 755000 35                 STA     TSTATS+123

     1770      752
     1771      753        %SELECT_OU;

    754 44 000031   000000 236007 xsym               LDQ     M$OU,DL
        44 000032   000000 756000 0                  STQ     OUT_DCBN

     1772      756
     1773      757        %OUTLINE(S="'%START_TABLE_TERM_STRING;'");

    759 44 000033   000014 630400 45                 EPPR0   12
        44 000034   000000 631400 45                 EPPR1   0
        44 000035   000000 701000 xent               TSX1    OUT_STR
        44 000036   000000 011000                    NOP     0

    760 44 000037   000012 631400 45                 EPPR1   10
        44 000040   000000 701000 xent               TSX1    FLUSH
PL6.E3A0      #009=OUTPUT_TERMINAL_STRINGS File=LR_TABLE.:Z8A6TSI                SAT 08/09/97 09:41 Page:395
        44 000041   000000 011000                    NOP     0

     1774      763
     1775      764    1   SLIT_LEN = 40;

    764 44 000042   000050 235007                    LDA     40,DL
        44 000043   200006 755100                    STA     SLIT_LEN,,AUTO

     1776      765    1   STRING_SPACE = ' ';

    765 44 000044   033260 220003                    LDX0    14000,DU
        44 000045   040140 100400                    MLR     fill='040'O
        44 000046   000016 000001 45                 ADSC9   14                       cn=0,n=1
        44 000047   200011 000010                    ADSC9   STRING_SPACE,,AUTO       cn=0,n=*X0

     1777      766
     1778      767    2   DO T = NR_TERM DOWNTO 1;

    767 44 000050   000000 236000 11                 LDQ     NR_TERM
        44 000051   200003 756100                    STQ     T,,AUTO
        44 000052   000122 710000 44                 TRA     s:785+2

     1779      768
     1780      769    2     P_SEARCH_LEN = SYM_PTRS(T) -> SYMBOL.SYMLEN;

    769 44 000053   200003 720100                    LXL0    T,,AUTO
        44 000054   000000 470410 6                  LDP0    SYM_PTRS,X0
        44 000055   000010 235100                    LDA     8,,PR0
        44 000056   200010 755100                    STA     P_SEARCH_LEN,,AUTO

     1781      770    2     P_SEARCH_STRING = ADDR(SYM_PTRS(T) -> SYMBOL.TEXTCHR);

    770 44 000057   000011 631500                    EPPR1   9,,PR0
        44 000060   200007 451500                    STP1    P_SEARCH_STRING,,AUTO

     1782      771
     1783      772    2     CALL INDEX (STRING_INDX, SEARCH_STRING, STRINGS);
PL6.E3A0      #009=OUTPUT_TERMINAL_STRINGS File=LR_TABLE.:Z8A6TSI                SAT 08/09/97 09:41 Page:396

    772 44 000061   206666 631500                    EPPR1   STRING_INDX,,AUTO
        44 000062   200007 473500                    LDP3    P_SEARCH_STRING,,AUTO
        44 000063   000000 623005                    EAX3    0,AL
        44 000064   206665 470500                    LDP0    STRINGS_PTR,,AUTO
        44 000065   200006 720100                    LXL0    SLIT_LEN,,AUTO
        44 000066   000000 236003                    LDQ     0,DU
        44 000067   000000 701000 xent               TSX1    X66_INDEX
        44 000070   000000 011000                    NOP     0

     1784      773
     1785      774    2     IF STRING_INDX = SLIT_LEN THEN

    774 44 000071   206666 236100                    LDQ     STRING_INDX,,AUTO
        44 000072   200006 116100                    CMPQ    SLIT_LEN,,AUTO
        44 000073   000115 601000 44                 TNZ     s:783

     1786      775    3       DO;

     1787      776    3         IF P_SEARCH_LEN + SLIT_LEN > %MAX_STRING_LEN THEN

    776 44 000074   200010 236100                    LDQ     P_SEARCH_LEN,,AUTO
        44 000075   200006 036100                    ADLQ    SLIT_LEN,,AUTO
        44 000076   033260 116007                    CMPQ    14000,DL
        44 000077   000104 604400 44                 TMOZ    s:779

     1788      777    3           CALL DIAG (15,
               777                'ERROR => Terminal string space exhausted during error table generation.%%'
               777                    );

    777 44 000100   000020 630400 45                 EPPR0   16
        44 000101   000000 631400 45                 EPPR1   0
        44 000102   000000 701000 xent               TSX1    DIAG
        44 000103   000000 011000                    NOP     0

     1789      778
     1790      779    3         CALL INSERT  (STRING_SPACE, SLIT_LEN, P_SEARCH_LEN, SEARCH_STRING);
PL6.E3A0      #009=OUTPUT_TERMINAL_STRINGS File=LR_TABLE.:Z8A6TSI                SAT 08/09/97 09:41 Page:397

    779 44 000104   200007 470500                    LDP0    P_SEARCH_STRING,,AUTO
        44 000105   200010 720100                    LXL0    P_SEARCH_LEN,,AUTO
        44 000106   200006 235100                    LDA     SLIT_LEN,,AUTO
        44 000107   040145 100540                    MLR     fill='040'O
        44 000110   000000 000010                    ADSC9   0,,PR0                   cn=0,n=*X0
        44 000111   200011 000010                    ADSC9   STRING_SPACE,A,AUTO      cn=0,n=*X0

     1791      780    3         SLIT_LEN = SLIT_LEN + P_SEARCH_LEN;

    780 44 000112   200006 236100                    LDQ     SLIT_LEN,,AUTO
        44 000113   200010 036100                    ADLQ    P_SEARCH_LEN,,AUTO
        44 000114   200006 756100                    STQ     SLIT_LEN,,AUTO

     1792      781    3       END;

     1793      782
     1794      783    2     T_S_INDX(T) = STRING_INDX;

    783 44 000115   200003 720100                    LXL0    T,,AUTO
        44 000116   206666 235100                    LDA     STRING_INDX,,AUTO
        44 000117   206667 755110                    STA     T_S_INDX,X0,AUTO

     1795      784
     1796      785    2   END;

    785 44 000120   000001 336007                    LCQ     1,DL
        44 000121   200003 056100                    ASQ     T,,AUTO
        44 000122   200003 235100                    LDA     T,,AUTO
        44 000123   000053 605400 44                 TPNZ    s:769

     1797      786
     1798      787    2   DO T = 1 TO NR_TERM;

    787 44 000124   000001 236007                    LDQ     1,DL
        44 000125   200003 756100                    STQ     T,,AUTO
        44 000126   000242 710000 44                 TRA     s:826+1
PL6.E3A0      #009=OUTPUT_TERMINAL_STRINGS File=LR_TABLE.:Z8A6TSI                SAT 08/09/97 09:41 Page:398

     1799      788
     1800      789
     1801      790          %OUT_STR(S="'  %TSTRING(I='");

    791 44 000127   000023 630400 45                 EPPR0   19
        44 000130   000000 631400 45                 EPPR1   0
        44 000131   000000 701000 xent               TSX1    OUT_STR
        44 000132   000000 011000                    NOP     0

     1802      793    2     CALL OUT_DEC (T_S_INDX(T));

    793 44 000133   200003 720100                    LXL0    T,,AUTO
        44 000134   206667 630510                    EPPR0   T_S_INDX,X0,AUTO
        44 000135   210164 450500                    STP0    T_S_INDX+701,,AUTO
        44 000136   210164 630500                    EPPR0   T_S_INDX+701,,AUTO
        44 000137   000004 631400 45                 EPPR1   4
        44 000140   000000 701000 xent               TSX1    OUT_DEC
        44 000141   000000 011000                    NOP     0

     1803      794
     1804      795          %BOUNDS(T=T_S_INDX, V="T_S_INDX(T)");

    797 44 000142   200003 720100                    LXL0    T,,AUTO
        44 000143   206667 236110                    LDQ     T_S_INDX,X0,AUTO
        44 000144   000172 116000 35                 CMPQ    TSTATS+122
        44 000145   000147 604400 44                 TMOZ    s:797+5
        44 000146   000172 236000 35                 LDQ     TSTATS+122
        44 000147   000172 756000 35                 STQ     TSTATS+122

    798 44 000150   206667 236110                    LDQ     T_S_INDX,X0,AUTO
        44 000151   000171 116000 35                 CMPQ    TSTATS+121
        44 000152   000154 605000 44                 TPL     s:798+4
        44 000153   000171 236000 35                 LDQ     TSTATS+121
        44 000154   000171 756000 35                 STQ     TSTATS+121

     1805      801
PL6.E3A0      #009=OUTPUT_TERMINAL_STRINGS File=LR_TABLE.:Z8A6TSI                SAT 08/09/97 09:41 Page:399
     1806      802          %OUT_STR(S="',L='");

    803 44 000155   000026 630400 45                 EPPR0   22
        44 000156   000000 631400 45                 EPPR1   0
        44 000157   000000 701000 xent               TSX1    OUT_STR
        44 000160   000000 011000                    NOP     0

     1807      805    2     CALL OUT_DEC(SYM_PTRS(T) -> SYMBOL.SYMLEN);

    805 44 000161   200003 720100                    LXL0    T,,AUTO
        44 000162   000000 470410 6                  LDP0    SYM_PTRS,X0
        44 000163   000010 631500                    EPPR1   8,,PR0
        44 000164   210164 451500                    STP1    T_S_INDX+701,,AUTO
        44 000165   210164 630500                    EPPR0   T_S_INDX+701,,AUTO
        44 000166   000004 631400 45                 EPPR1   4
        44 000167   000000 701000 xent               TSX1    OUT_DEC
        44 000170   000000 011000                    NOP     0

     1808      806
     1809      807          %BOUNDS(T=T_S_LEN, V="SYM_PTRS(T) -> SYMBOL.SYMLEN");

    809 44 000171   200003 720100                    LXL0    T,,AUTO
        44 000172   000000 470410 6                  LDP0    SYM_PTRS,X0
        44 000173   000010 236100                    LDQ     8,,PR0
        44 000174   000200 116000 35                 CMPQ    TSTATS+128
        44 000175   000177 604400 44                 TMOZ    s:809+6
        44 000176   000200 236000 35                 LDQ     TSTATS+128
        44 000177   000200 756000 35                 STQ     TSTATS+128

    810 44 000200   000010 236100                    LDQ     8,,PR0
        44 000201   000177 116000 35                 CMPQ    TSTATS+127
        44 000202   000204 605000 44                 TPL     s:810+4
        44 000203   000177 236000 35                 LDQ     TSTATS+127
        44 000204   000177 756000 35                 STQ     TSTATS+127

     1810      813
     1811      814          %OUT_STR(S="');  /* '");
PL6.E3A0      #009=OUTPUT_TERMINAL_STRINGS File=LR_TABLE.:Z8A6TSI                SAT 08/09/97 09:41 Page:400

    815 44 000205   000031 630400 45                 EPPR0   25
        44 000206   000000 631400 45                 EPPR1   0
        44 000207   000000 701000 xent               TSX1    OUT_STR
        44 000210   000000 011000                    NOP     0

     1812      817    2     CALL OUT_DEC (T);

    817 44 000211   200003 630500                    EPPR0   T,,AUTO
        44 000212   210164 450500                    STP0    T_S_INDX+701,,AUTO
        44 000213   210164 630500                    EPPR0   T_S_INDX+701,,AUTO
        44 000214   000004 631400 45                 EPPR1   4
        44 000215   000000 701000 xent               TSX1    OUT_DEC
        44 000216   000000 011000                    NOP     0

     1813      818          %OUT_STR(S="' '");

    819 44 000217   000033 630400 45                 EPPR0   27
        44 000220   000000 631400 45                 EPPR1   0
        44 000221   000000 701000 xent               TSX1    OUT_STR
        44 000222   000000 011000                    NOP     0

     1814      821    2     CALL OUT_SYMBOL (SYM_PTRS(T));

    821 44 000223   200003 720100                    LXL0    T,,AUTO
        44 000224   000000 630410 6                  EPPR0   SYM_PTRS,X0
        44 000225   210164 450500                    STP0    T_S_INDX+701,,AUTO
        44 000226   210164 630500                    EPPR0   T_S_INDX+701,,AUTO
        44 000227   000004 631400 45                 EPPR1   4
        44 000230   000000 701000 xent               TSX1    OUT_SYMBOL
        44 000231   000000 011000                    NOP     0

     1815      822          %OUT_STR(S="' */'");

    823 44 000232   000035 630400 45                 EPPR0   29
        44 000233   000000 631400 45                 EPPR1   0
        44 000234   000000 701000 xent               TSX1    OUT_STR
PL6.E3A0      #009=OUTPUT_TERMINAL_STRINGS File=LR_TABLE.:Z8A6TSI                SAT 08/09/97 09:41 Page:401
        44 000235   000000 011000                    NOP     0

     1816      825    2     CALL FLUSH;

    825 44 000236   000012 631400 45                 EPPR1   10
        44 000237   000000 701000 xent               TSX1    FLUSH
        44 000240   000000 011000                    NOP     0

     1817      826    2   END;

    826 44 000241   200003 054100                    AOS     T,,AUTO
        44 000242   200003 236100                    LDQ     T,,AUTO
        44 000243   000000 116000 11                 CMPQ    NR_TERM
        44 000244   000127 604400 44                 TMOZ    s:791

     1818      827
     1819      828        %OUTLINE(S="'%END_TABLE_TERM_STRING;'");

    830 44 000245   000037 630400 45                 EPPR0   31
        44 000246   000000 631400 45                 EPPR1   0
        44 000247   000000 701000 xent               TSX1    OUT_STR
        44 000250   000000 011000                    NOP     0

    831 44 000251   000012 631400 45                 EPPR1   10
        44 000252   000000 701000 xent               TSX1    FLUSH
        44 000253   000000 011000                    NOP     0

     1820      834
     1821      835    1   STRING_INDX = ((SLIT_LEN + 39)/40) - 1;

    835 44 000254   200006 236100                    LDQ     SLIT_LEN,,AUTO
        44 000255   000047 036007                    ADLQ    39,DL
        44 000256   000050 506007                    DIV     40,DL
        44 000257   000001 136007                    SBLQ    1,DL
        44 000260   206666 756100                    STQ     STRING_INDX,,AUTO

     1822      836
PL6.E3A0      #009=OUTPUT_TERMINAL_STRINGS File=LR_TABLE.:Z8A6TSI                SAT 08/09/97 09:41 Page:402
     1823      837        %OUTLINE(S="'%START_TABLE_TSTRING_SPACE;'");

    839 44 000261   000042 630400 45                 EPPR0   34
        44 000262   000000 631400 45                 EPPR1   0
        44 000263   000000 701000 xent               TSX1    OUT_STR
        44 000264   000000 011000                    NOP     0

    840 44 000265   000012 631400 45                 EPPR1   10
        44 000266   000000 701000 xent               TSX1    FLUSH
        44 000267   000000 011000                    NOP     0

     1824      843
     1825      844    2   DO I = 1 TO STRING_INDX;

    844 44 000270   000001 235007                    LDA     1,DL
        44 000271   200004 755100                    STA     I,,AUTO
        44 000272   000422 710000 44                 TRA     s:872+1

     1826      845
     1827      846          %OUT_STR(S="'  %TSPACE(S='");

    847 44 000273   000045 630400 45                 EPPR0   37
        44 000274   000000 631400 45                 EPPR1   0
        44 000275   000000 701000 xent               TSX1    OUT_STR
        44 000276   000000 011000                    NOP     0

     1828      849    2     CALL OUT_STR('"''', 2);

    849 44 000277   000050 630400 45                 EPPR0   40
        44 000300   000000 631400 45                 EPPR1   0
        44 000301   000000 701000 xent               TSX1    OUT_STR
        44 000302   000000 011000                    NOP     0

     1829      850    2     CALL INDEX(J,'''',SUBSTR(STRING_SPACE,I*40,40));

    850 44 000303   200004 236100                    LDQ     I,,AUTO
        44 000304   000050 402007                    MPY     40,DL
PL6.E3A0      #009=OUTPUT_TERMINAL_STRINGS File=LR_TABLE.:Z8A6TSI                SAT 08/09/97 09:41 Page:403
        44 000305   000000 124506                    SCM     mask='000'O
        44 000306   200011 000050                    ADSC9   STRING_SPACE,Q,AUTO      cn=0,n=40
        44 000307   000052 000001 45                 ADSC9   42                       cn=0,n=1
        44 000310   200005 000100                    ARG     J,,AUTO

     1830      851    2     IF J >= 40 THEN

    851 44 000311   200005 235100                    LDA     J,,AUTO
        44 000312   000050 115007                    CMPA    40,DL
        44 000313   000327 604000 44                 TMI     s:854

     1831      852    2       CALL OUT_STR(SUBSTR(STRING_SPACE, I*40, 40), 40);

    852 44 000314   000054 236000 45                 LDQ     44
        44 000315   210165 756100                    STQ     T_S_INDX+702,,AUTO
        44 000316   200004 236100                    LDQ     I,,AUTO
        44 000317   000012 402007                    MPY     10,DL
        44 000320   200011 630506                    EPPR0   STRING_SPACE,QL,AUTO
        44 000321   210164 450500                    STP0    T_S_INDX+701,,AUTO
        44 000322   210164 630500                    EPPR0   T_S_INDX+701,,AUTO
        44 000323   000000 631400 45                 EPPR1   0
        44 000324   000000 701000 xent               TSX1    OUT_STR
        44 000325   000000 011000                    NOP     0
        44 000326   000370 710000 44                 TRA     s:862

     1832      853    2     ELSE
     1833      854    3       DO J = 0 TO 39;

    854 44 000327   200005 450100                    STZ     J,,AUTO

     1834      855    3         IF SUBSTR(STRING_SPACE, I*40 + J, 1) = '''' THEN

    855 44 000330   200004 236100                    LDQ     I,,AUTO
        44 000331   000050 402007                    MPY     40,DL
        44 000332   200005 036100                    ADLQ    J,,AUTO
        44 000333   040000 106506                    CMPC    fill='040'O
        44 000334   200011 000001                    ADSC9   STRING_SPACE,Q,AUTO      cn=0,n=1
PL6.E3A0      #009=OUTPUT_TERMINAL_STRINGS File=LR_TABLE.:Z8A6TSI                SAT 08/09/97 09:41 Page:404
        44 000335   000052 000001 45                 ADSC9   42                       cn=0,n=1
        44 000336   000344 601000 44                 TNZ     s:860

     1835      856                %OUT_STR(S="''''''");

    857 44 000337   000055 630400 45                 EPPR0   45
        44 000340   000000 631400 45                 EPPR1   0
        44 000341   000000 701000 xent               TSX1    OUT_STR
        44 000342   000000 011000                    NOP     0
        44 000343   000364 710000 44                 TRA     s:861

     1836      859    3         ELSE
     1837      860    3           CALL OUT_STR(SUBSTR(STRING_SPACE, I*40 + J, 1), 1);

    860 44 000344   200004 236100                    LDQ     I,,AUTO
        44 000345   000050 402007                    MPY     40,DL
        44 000346   200005 036100                    ADLQ    J,,AUTO
        44 000347   210166 756100                    STQ     T_S_INDX+703,,AUTO
        44 000350   000011 236000 45                 LDQ     9
        44 000351   210165 756100                    STQ     T_S_INDX+702,,AUTO
        44 000352   210167 452500                    STP2    T_S_INDX+704,,AUTO
        44 000353   210166 236100                    LDQ     T_S_INDX+703,,AUTO
        44 000354   000020 736000                    QLS     16
        44 000355   000011 036003                    ADLQ    9,DU
        44 000356   210167 036100                    ADLQ    T_S_INDX+704,,AUTO
        44 000357   210164 756100                    STQ     T_S_INDX+701,,AUTO
        44 000360   210164 630500                    EPPR0   T_S_INDX+701,,AUTO
        44 000361   000000 631400 45                 EPPR1   0
        44 000362   000000 701000 xent               TSX1    OUT_STR
        44 000363   000000 011000                    NOP     0

     1838      861    3       END;

    861 44 000364   200005 054100                    AOS     J,,AUTO
        44 000365   200005 235100                    LDA     J,,AUTO
        44 000366   000047 115007                    CMPA    39,DL
        44 000367   000330 604400 44                 TMOZ    s:855
PL6.E3A0      #009=OUTPUT_TERMINAL_STRINGS File=LR_TABLE.:Z8A6TSI                SAT 08/09/97 09:41 Page:405

     1839      862    2     CALL OUT_STR('''"', 2);

    862 44 000370   000057 630400 45                 EPPR0   47
        44 000371   000000 631400 45                 EPPR1   0
        44 000372   000000 701000 xent               TSX1    OUT_STR
        44 000373   000000 011000                    NOP     0

     1840      863          %OUT_STR(S="');  /* '");

    864 44 000374   000031 630400 45                 EPPR0   25
        44 000375   000000 631400 45                 EPPR1   0
        44 000376   000000 701000 xent               TSX1    OUT_STR
        44 000377   000000 011000                    NOP     0

     1841      866    2     CALL OUT_DEC((I+1)*40);

    866 44 000400   200004 236100                    LDQ     I,,AUTO
        44 000401   000050 402007                    MPY     40,DL
        44 000402   000050 036007                    ADLQ    40,DL
        44 000403   210164 756100                    STQ     T_S_INDX+701,,AUTO
        44 000404   210164 630500                    EPPR0   T_S_INDX+701,,AUTO
        44 000405   210165 450500                    STP0    T_S_INDX+702,,AUTO
        44 000406   210165 630500                    EPPR0   T_S_INDX+702,,AUTO
        44 000407   000004 631400 45                 EPPR1   4
        44 000410   000000 701000 xent               TSX1    OUT_DEC
        44 000411   000000 011000                    NOP     0

     1842      867          %OUT_STR(S="' */'");

    868 44 000412   000035 630400 45                 EPPR0   29
        44 000413   000000 631400 45                 EPPR1   0
        44 000414   000000 701000 xent               TSX1    OUT_STR
        44 000415   000000 011000                    NOP     0

     1843      870    2     CALL FLUSH;

PL6.E3A0      #009=OUTPUT_TERMINAL_STRINGS File=LR_TABLE.:Z8A6TSI                SAT 08/09/97 09:41 Page:406
    870 44 000416   000012 631400 45                 EPPR1   10
        44 000417   000000 701000 xent               TSX1    FLUSH
        44 000420   000000 011000                    NOP     0

     1844      871
     1845      872    2   END;

    872 44 000421   200004 054100                    AOS     I,,AUTO
        44 000422   200004 236100                    LDQ     I,,AUTO
        44 000423   206666 116100                    CMPQ    STRING_INDX,,AUTO
        44 000424   000273 604400 44                 TMOZ    s:847

     1846      873
     1847      874        %OUTLINE(S="'%END_TABLE_TSTRING_SPACE;'");

    876 44 000425   000061 630400 45                 EPPR0   49
        44 000426   000000 631400 45                 EPPR1   0
        44 000427   000000 701000 xent               TSX1    OUT_STR
        44 000430   000000 011000                    NOP     0

    877 44 000431   000012 631400 45                 EPPR1   10
        44 000432   000000 701000 xent               TSX1    FLUSH
        44 000433   000000 011000                    NOP     0

     1848      880
     1849      881        %SELECT_SUBS;

    882 44 000434   000000 236007 xsym               LDQ     M$SO,DL
        44 000435   000000 756000 0                  STQ     OUT_DCBN

     1850      884
     1851      885        %OUT_STR(S="'%EQU TSTRING_SPACE_LEN = '");

    886 44 000436   000063 630400 45                 EPPR0   51
        44 000437   000000 631400 45                 EPPR1   0
        44 000440   000000 701000 xent               TSX1    OUT_STR
        44 000441   000000 011000                    NOP     0
PL6.E3A0      #009=OUTPUT_TERMINAL_STRINGS File=LR_TABLE.:Z8A6TSI                SAT 08/09/97 09:41 Page:407

     1852      888    1   CALL OUT_DEC(STRING_INDX);

    888 44 000442   206666 630500                    EPPR0   STRING_INDX,,AUTO
        44 000443   210164 450500                    STP0    T_S_INDX+701,,AUTO
        44 000444   210164 630500                    EPPR0   T_S_INDX+701,,AUTO
        44 000445   000004 631400 45                 EPPR1   4
        44 000446   000000 701000 xent               TSX1    OUT_DEC
        44 000447   000000 011000                    NOP     0

     1853      889        %OUT_STR(S="';'");

    890 44 000450   000010 630400 45                 EPPR0   8
        44 000451   000000 631400 45                 EPPR1   0
        44 000452   000000 701000 xent               TSX1    OUT_STR
        44 000453   000000 011000                    NOP     0

     1854      892    1   CALL FLUSH;

    892 44 000454   000012 631400 45                 EPPR1   10
        44 000455   000000 701000 xent               TSX1    FLUSH
        44 000456   000000 011000                    NOP     0

     1855      893
     1856      894        %OUT_STR(S="'%EQU TSTRING_SPACE_LEN_CHARS = '");

    895 44 000457   000066 630400 45                 EPPR0   54
        44 000460   000000 631400 45                 EPPR1   0
        44 000461   000000 701000 xent               TSX1    OUT_STR
        44 000462   000000 011000                    NOP     0

     1857      897    1   CALL OUT_DEC((STRING_INDX + 1)*40);

    897 44 000463   206666 236100                    LDQ     STRING_INDX,,AUTO
        44 000464   000050 402007                    MPY     40,DL
        44 000465   000050 036007                    ADLQ    40,DL
        44 000466   210164 756100                    STQ     T_S_INDX+701,,AUTO
PL6.E3A0      #009=OUTPUT_TERMINAL_STRINGS File=LR_TABLE.:Z8A6TSI                SAT 08/09/97 09:41 Page:408
        44 000467   210164 630500                    EPPR0   T_S_INDX+701,,AUTO
        44 000470   210165 450500                    STP0    T_S_INDX+702,,AUTO
        44 000471   210165 630500                    EPPR0   T_S_INDX+702,,AUTO
        44 000472   000004 631400 45                 EPPR1   4
        44 000473   000000 701000 xent               TSX1    OUT_DEC
        44 000474   000000 011000                    NOP     0

     1858      898        %OUT_STR(S="';'");

    899 44 000475   000010 630400 45                 EPPR0   8
        44 000476   000000 631400 45                 EPPR1   0
        44 000477   000000 701000 xent               TSX1    OUT_STR
        44 000500   000000 011000                    NOP     0

     1859      901    1   CALL FLUSH;

    901 44 000501   000012 631400 45                 EPPR1   10
        44 000502   000000 701000 xent               TSX1    FLUSH
        44 000503   000000 011000                    NOP     0

     1860      902
     1861      903        %STAT_LENGTH(T=TS_SP, V="(STRING_INDX+1)*40");

    904 44 000504   206666 236100                    LDQ     STRING_INDX,,AUTO
        44 000505   000050 402007                    MPY     40,DL
        44 000506   000050 036007                    ADLQ    40,DL
        44 000507   000207 756000 35                 STQ     TSTATS+135

     1862      906    1   TSTATS.TS_SP.NBITS = 9;

    906 44 000510   000011 235007                    LDA     9,DL
        44 000511   000211 755000 35                 STA     TSTATS+137

     1863      907
     1864      908    1   END OUTPUT_TERMINAL_STRINGS;

    908 44 000512   000000 702200 xent               TSX2  ! X66_ARET
PL6.E3A0      #009=OUTPUT_TERMINAL_STRINGS File=LR_TABLE.:Z8A6TSI                SAT 08/09/97 09:41 Page:409

PL6.E3A0      #009=OUTPUT_TERMINAL_STRINGS File=LR_TABLE.:Z8A6TSI                SAT 08/09/97 09:41 Page:410
--  Include file information  --

   LR_CNFG_EXT.:Z8A6TOU  cannot be made into a system file and is referenced.
   LR_IO_EXT.:Z8A6TOU  cannot be made into a system file and is referenced.
   LR_GRAM_EXT.:Z8A6TOU  cannot be made into a system file and is referenced.
      No diagnostics issued in procedure OUTPUT_TERMINAL_STRINGS.
PL6.E3A0      #009=OUTPUT_TERMINAL_STRINGS File=LR_TABLE.:Z8A6TSI                SAT 08/09/97 09:41 Page:411

 **** Variables and constants ****

  ****  Section 000 LblCom OUT_DCBN

  ****  Scalars and arrays  ****
OctLoc.c.b A Datatyp(siz) R M Lvl/name                 OctLoc.c.b A Datatyp(siz) R M Lvl/name

     0-0-0/w SBIN        r     1 OUT_DCBN

  ****  Section 006 LblCom SYM_PTRS

  ****  Scalars and arrays  ****
OctLoc.c.b A Datatyp(siz) R M Lvl/name                 OctLoc.c.b A Datatyp(siz) R M Lvl/name

     0-0-0/w PTR         r     1 SYM_PTRS(0:1400)

  ****  Section 007 LblCom RIGHT_PARTS

  ****  Scalars and arrays  ****
OctLoc.c.b A Datatyp(siz) R M Lvl/name                 OctLoc.c.b A Datatyp(siz) R M Lvl/name

     0-0-0/h SBIN(18)          1 RIGHT_PARTS(0:8000)

  ****  Section 008 LblCom PROD

  ****  Scalars and arrays  ****
OctLoc.c.b A Datatyp(siz) R M Lvl/name                 OctLoc.c.b A Datatyp(siz) R M Lvl/name

     0-0-0/h STRC(72)          1 PROD(0:1500)

  ****  Section 009 LblCom NR_PROD

  ****  Scalars and arrays  ****
OctLoc.c.b A Datatyp(siz) R M Lvl/name                 OctLoc.c.b A Datatyp(siz) R M Lvl/name

     0-0-0/w SBIN              1 NR_PROD

PL6.E3A0      #009=OUTPUT_TERMINAL_STRINGS File=LR_TABLE.:Z8A6TSI                SAT 08/09/97 09:41 Page:412
  ****  Section 010 LblCom NR_SYMS

  ****  Scalars and arrays  ****
OctLoc.c.b A Datatyp(siz) R M Lvl/name                 OctLoc.c.b A Datatyp(siz) R M Lvl/name

     0-0-0/w SBIN              1 NR_SYMS

  ****  Section 011 LblCom NR_TERM

  ****  Scalars and arrays  ****
OctLoc.c.b A Datatyp(siz) R M Lvl/name                 OctLoc.c.b A Datatyp(siz) R M Lvl/name

     0-0-0/w SBIN        r     1 NR_TERM

  ****  Section 012 LblCom LAST_ACT

  ****  Scalars and arrays  ****
OctLoc.c.b A Datatyp(siz) R M Lvl/name                 OctLoc.c.b A Datatyp(siz) R M Lvl/name

     0-0-0/w SBIN              1 LAST_ACT

  ****  Section 013 LblCom LAST_NULL

  ****  Scalars and arrays  ****
OctLoc.c.b A Datatyp(siz) R M Lvl/name                 OctLoc.c.b A Datatyp(siz) R M Lvl/name

     0-0-0/w SBIN              1 LAST_NULL

  ****  Section 014 LblCom NR_ONRIGHT

  ****  Scalars and arrays  ****
OctLoc.c.b A Datatyp(siz) R M Lvl/name                 OctLoc.c.b A Datatyp(siz) R M Lvl/name

     0-0-0/w SBIN              1 NR_ONRIGHT

  ****  Section 015 LblCom NR_NT

PL6.E3A0      #009=OUTPUT_TERMINAL_STRINGS File=LR_TABLE.:Z8A6TSI                SAT 08/09/97 09:41 Page:413
  ****  Scalars and arrays  ****
OctLoc.c.b A Datatyp(siz) R M Lvl/name                 OctLoc.c.b A Datatyp(siz) R M Lvl/name

     0-0-0/w SBIN              1 NR_NT

  ****  Section 016 LblCom PROD_LEN_MAX_EVER

  ****  Scalars and arrays  ****
OctLoc.c.b A Datatyp(siz) R M Lvl/name                 OctLoc.c.b A Datatyp(siz) R M Lvl/name

     0-0-0/w SBIN              1 PROD_LEN_MAX_EVER

  ****  Section 017 LblCom LAST_ORDER_SPECIFIED

  ****  Scalars and arrays  ****
OctLoc.c.b A Datatyp(siz) R M Lvl/name                 OctLoc.c.b A Datatyp(siz) R M Lvl/name

     0-0-0/w SBIN              1 LAST_ORDER_SPECIFIED

  ****  Section 018 LblCom SEMANTIC_ORDERING

  ****  Scalars and arrays  ****
OctLoc.c.b A Datatyp(siz) R M Lvl/name                 OctLoc.c.b A Datatyp(siz) R M Lvl/name

     0-0-0/b BIT               1 SEMANTIC_ORDERING

  ****  Section 019 LblCom ERR_SEV

  ****  Scalars and arrays  ****
OctLoc.c.b A Datatyp(siz) R M Lvl/name                 OctLoc.c.b A Datatyp(siz) R M Lvl/name

     0-0-0/w SBIN              1 ERR_SEV

  ****  Section 020 LblCom SET_LENGTHB

  ****  Scalars and arrays  ****
OctLoc.c.b A Datatyp(siz) R M Lvl/name                 OctLoc.c.b A Datatyp(siz) R M Lvl/name
PL6.E3A0      #009=OUTPUT_TERMINAL_STRINGS File=LR_TABLE.:Z8A6TSI                SAT 08/09/97 09:41 Page:414

     0-0-0/w SBIN              1 SET_LENGTHB

  ****  Section 021 LblCom SET_LENGTHW

  ****  Scalars and arrays  ****
OctLoc.c.b A Datatyp(siz) R M Lvl/name                 OctLoc.c.b A Datatyp(siz) R M Lvl/name

     0-0-0/w SBIN              1 SET_LENGTHW

  ****  Section 022 LblCom EOF_SYMBOL_PTR

  ****  Scalars and arrays  ****
OctLoc.c.b A Datatyp(siz) R M Lvl/name                 OctLoc.c.b A Datatyp(siz) R M Lvl/name

     0-0-0/w PTR               1 EOF_SYMBOL_PTR

  ****  Section 023 LblCom ERROR_SYMBOL_PTR

  ****  Scalars and arrays  ****
OctLoc.c.b A Datatyp(siz) R M Lvl/name                 OctLoc.c.b A Datatyp(siz) R M Lvl/name

     0-0-0/w PTR               1 ERROR_SYMBOL_PTR

  ****  Section 024 LblCom BOF_SYMBOL_PTR

  ****  Scalars and arrays  ****
OctLoc.c.b A Datatyp(siz) R M Lvl/name                 OctLoc.c.b A Datatyp(siz) R M Lvl/name

     0-0-0/w PTR               1 BOF_SYMBOL_PTR

  ****  Section 025 LblCom OPTIONS

  ****  Scalars and arrays  ****
OctLoc.c.b A Datatyp(siz) R M Lvl/name                 OctLoc.c.b A Datatyp(siz) R M Lvl/name

     0-0-0/b BIT               1 OPTIONS(0:25)
PL6.E3A0      #009=OUTPUT_TERMINAL_STRINGS File=LR_TABLE.:Z8A6TSI                SAT 08/09/97 09:41 Page:415

  ****  Section 026 LblCom OPTIONS_TEXT

  ****  Scalars and arrays  ****
OctLoc.c.b A Datatyp(siz) R M Lvl/name                 OctLoc.c.b A Datatyp(siz) R M Lvl/name

     0-0-0/c CHAR(4)           1 OPTIONS_TEXT(0:25)

  ****  Section 027 LblCom INSTR

  ****  Scalars and arrays  ****
OctLoc.c.b A Datatyp(siz) R M Lvl/name                 OctLoc.c.b A Datatyp(siz) R M Lvl/name

     0-0-0/c CHAR              1 INSTR(0:511)               0-0-0/c CHAR(512)         1 INSTRCHR

  ****  Section 028 LblCom INSTR_LISTED

  ****  Scalars and arrays  ****
OctLoc.c.b A Datatyp(siz) R M Lvl/name                 OctLoc.c.b A Datatyp(siz) R M Lvl/name

     0-0-0/b BIT               1 INSTR_LISTED

  ****  Section 029 LblCom INSTR_LEN

  ****  Scalars and arrays  ****
OctLoc.c.b A Datatyp(siz) R M Lvl/name                 OctLoc.c.b A Datatyp(siz) R M Lvl/name

     0-0-0/w SBIN              1 INSTR_LEN

  ****  Section 030 LblCom INSTR_INDX

  ****  Scalars and arrays  ****
OctLoc.c.b A Datatyp(siz) R M Lvl/name                 OctLoc.c.b A Datatyp(siz) R M Lvl/name

     0-0-0/w SBIN              1 INSTR_INDX

  ****  Section 031 LblCom EOF_FLAG
PL6.E3A0      #009=OUTPUT_TERMINAL_STRINGS File=LR_TABLE.:Z8A6TSI                SAT 08/09/97 09:41 Page:416

  ****  Scalars and arrays  ****
OctLoc.c.b A Datatyp(siz) R M Lvl/name                 OctLoc.c.b A Datatyp(siz) R M Lvl/name

     0-0-0/b BIT               1 EOF_FLAG

  ****  Section 032 LblCom KEY_REC

  ****  Scalars and arrays  ****
OctLoc.c.b A Datatyp(siz) R M Lvl/name                 OctLoc.c.b A Datatyp(siz) R M Lvl/name

     0-0-0/c CHAR(10)          1 KEY_REC

  ****  Section 033 LblCom LINE

  ****  Scalars and arrays  ****
OctLoc.c.b A Datatyp(siz) R M Lvl/name                 OctLoc.c.b A Datatyp(siz) R M Lvl/name

     0-0-0/c CHAR(109)         1 LINE

  ****  Section 034 LblCom LINELEN

  ****  Scalars and arrays  ****
OctLoc.c.b A Datatyp(siz) R M Lvl/name                 OctLoc.c.b A Datatyp(siz) R M Lvl/name

     0-0-0/w SBIN              1 LINELEN

  ****  Section 035 LblCom TSTATS

  ****  Scalars and arrays  ****
OctLoc.c.b A Datatyp(siz) R M Lvl/name                 OctLoc.c.b A Datatyp(siz) R M Lvl/name

     0-0-0/w STRC(7380)  r     1 TSTATS

  ****  Section 036 LblCom C#_TO_$

  ****  Scalars and arrays  ****
PL6.E3A0      #009=OUTPUT_TERMINAL_STRINGS File=LR_TABLE.:Z8A6TSI                SAT 08/09/97 09:41 Page:417
OctLoc.c.b A Datatyp(siz) R M Lvl/name                 OctLoc.c.b A Datatyp(siz) R M Lvl/name

     0-0-0/w PTR               1 C#_TO_$(0:2200)

  ****  Section 037 LblCom NR_CONFIG

  ****  Scalars and arrays  ****
OctLoc.c.b A Datatyp(siz) R M Lvl/name                 OctLoc.c.b A Datatyp(siz) R M Lvl/name

     0-0-0/w SBIN              1 NR_CONFIG

  ****  Section 038 LblCom INIT_CONFIG

  ****  Scalars and arrays  ****
OctLoc.c.b A Datatyp(siz) R M Lvl/name                 OctLoc.c.b A Datatyp(siz) R M Lvl/name

     0-0-0/w SBIN              1 INIT_CONFIG

  ****  Section 039 LblCom MAX_BASIS_ITEMS

  ****  Scalars and arrays  ****
OctLoc.c.b A Datatyp(siz) R M Lvl/name                 OctLoc.c.b A Datatyp(siz) R M Lvl/name

     0-0-0/w SBIN              1 MAX_BASIS_ITEMS

  ****  Section 040 LblCom MAX_TOTAL_ITEMS

  ****  Scalars and arrays  ****
OctLoc.c.b A Datatyp(siz) R M Lvl/name                 OctLoc.c.b A Datatyp(siz) R M Lvl/name

     0-0-0/w SBIN              1 MAX_TOTAL_ITEMS

  ****  Section 041 LblCom LAST_BINSRCH_ONLY

  ****  Scalars and arrays  ****
OctLoc.c.b A Datatyp(siz) R M Lvl/name                 OctLoc.c.b A Datatyp(siz) R M Lvl/name

PL6.E3A0      #009=OUTPUT_TERMINAL_STRINGS File=LR_TABLE.:Z8A6TSI                SAT 08/09/97 09:41 Page:418
     0-0-0/w SBIN              1 LAST_BINSRCH_ONLY

  ****  Section 042 LblCom LAST_BOTH_BITBIN

  ****  Scalars and arrays  ****
OctLoc.c.b A Datatyp(siz) R M Lvl/name                 OctLoc.c.b A Datatyp(siz) R M Lvl/name

     0-0-0/w SBIN              1 LAST_BOTH_BITBIN

  ****  Auto variables  ****

  ****  Scalars and arrays  ****
OctLoc.c.b A Datatyp(siz) R M Lvl/name                 OctLoc.c.b A Datatyp(siz) R M Lvl/name

     4-0-0/w SBIN        r     1 I                          5-0-0/w SBIN        r     1 J
    10-0-0/w SBIN        r     1 P_SEARCH_LEN               7-0-0/w PTR         r     1 P_SEARCH_STRING
     6-0-0/w SBIN        r     1 SLIT_LEN                6665-0-0/w PTR         r     1 STRINGS_PTR
  6666-0-0/w SBIN        r     1 STRING_INDX               11-0-0/c CHAR(14000) r     1 STRING_SPACE
     3-0-0/w SBIN        r     1 T                       6667-0-0/w SBIN        r     1 T_S_INDX(0:700)

  ****  BASED and DCB variables  ****

  ****  Scalars and arrays  ****
OctLoc.c.b A Datatyp(siz) R M Lvl/name                 OctLoc.c.b A Datatyp(siz) R M Lvl/name

     0-0-0/w STRC(57888)       1 C_SET_B                    0-0-0/w STRC(72)          1 INCLUDES_B
     0-0-0/w STRC(144)         1 INCL_B                     0-0-0/w STRC(5436)        1 ITEM_B
     0-0-0/w STRC(5652)        1 KEY_B                      0-0-0N  NULL        r     1 M$LO
     0-0-0N  NULL        r     1 M$OU                       0-0-0N  NULL        r     1 M$SI
     0-0-0N  NULL        r     1 M$SO                       0-0-0N  NULL        r     1 M$UI
     0-0-0/c ACHR        r     1 SEARCH_STRING              0-0-0/c ACHR        r     1 STRINGS
     0-0-0/w STRC(351)   r     1 SYMBOL


   Procedure OUTPUT_TERMINAL_STRINGS requires 331 words for executable code.
   Procedure OUTPUT_TERMINAL_STRINGS requires 4216 words of local(AUTO) storage.
PL6.E3A0      #009=OUTPUT_TERMINAL_STRINGS File=LR_TABLE.:Z8A6TSI                SAT 08/09/97 09:41 Page:419

    No errors detected in file LR_TABLE.:Z8A6TSI    .
