VERSION A06

PL6.E3A0      #001=Z8AA$IO File=Z8AA.:Z8A6TSI                                    SAT 08/09/97 10:41 Page:1
        1        1        /*T***********************************************************/
        2        2        /*T*                                                         */
        3        3        /*T* Copyright (c) Bull HN Information Systems Inc., 1997    */
        4        4        /*T*                                                         */
        5        5        /*T***********************************************************/
        6        6        Z8AA$IO :PROC ALTRET;
        7        7
        8        8        %SET PHASE = 1;
        9        9        %INCLUDE Z8A_DEFC;
       10       77        %INCLUDE Z8A_COMCOM;
       11      727        %INCLUDE Z9A_FLAGS;
       12      741        %INCLUDE Z8E_WINDOW;
       13     2811        %INCLUDE Z8E_BUFFERS;
       14     3001
       15     3002    1   DCL Z9AA$FILE_OPEN ENTRY ;
       16     3003    1   DCL Z9AA$FILE_READ ENTRY ;
       17     3004    1   DCL Z9AA$FILE_CLOSE ENTRY ;
       18     3005    1   DCL Z9AA$OPEN_OUTPUT_ES ENTRY;
       19     3006    1   DCL Z9AA$POSITION_ES_OUT ENTRY;
       20     3007    1   DCL Z9AA$FILE_REWIND_ES  ENTRY;
       21     3008
       22     3009    1   DCL INPUT_FILES_OPEN BOOLEAN EXT INIT(FALSE);
       23     3010    1   DCL INPUT_FILE_TYPE SBIN EXT;
       24     3011
       25     3012    1   DCL ES_FILE_OPEN BOOLEAN EXT INIT(FALSE);
       26     3013        %EJECT ;
PL6.E3A0      #001=Z8AA$IO File=Z8AA.:Z8A6TSI                                    SAT 08/09/97 10:41 Page:2
       27     3014    1   CLOSE_SOURCE_FILE: PROC ;
       28     3015
       29     3016
       30     3017    2       IF INPUT_FILES_OPEN THEN
       31     3018    3         DO;
       32     3019    3          CALL Z9AA$FILE_CLOSE ;
       33     3020    3          INPUT_FILES_OPEN = FALSE;
       34     3021    3         END;
       35     3022    2       RETURN;
       36     3023    2   END CLOSE_SOURCE_FILE;
       37     3024        %EJECT;
PL6.E3A0      #001=Z8AA$IO File=Z8AA.:Z8A6TSI                                    SAT 08/09/97 10:41 Page:3
       38     3025    1   Z8AA$CLOSE_SOURCE_FILE: ENTRY ALTRET ;
       39     3026
       40     3027
       41     3028            %IF GCOS;
       43     3030            %ENDIF;
       44     3031    1       CALL CLOSE_SOURCE_FILE;
       45     3032
       46     3033    1       RETURN;
       47     3034        %EJECT;
PL6.E3A0      #001=Z8AA$IO File=Z8AA.:Z8A6TSI                                    SAT 08/09/97 10:41 Page:4
       48     3035    1   Z8AA$PREPARE_SOURCE_INPUT: ENTRY ALTRET ;
       49     3036
       50     3037    1          CALL CLOSE_SOURCE_FILE;
       51     3038    1          INPUT_FILE_TYPE = %SOURCE_FILE;
       52     3039    1          CALL Z9AA$FILE_OPEN ;
       53     3040    1          INPUT_FILES_OPEN = TRUE;
       54     3041    1          ORIGINAL_ISN = 0;
       55     3042    1          EXPANDED_ISN = 0;
       56     3043    1          RETURN ;
       57     3044        %EJECT ;
PL6.E3A0      #001=Z8AA$IO File=Z8AA.:Z8A6TSI                                    SAT 08/09/97 10:41 Page:5
       58     3045    1   Z8AA$PREPARE_EXPANDED_SOURCE: ENTRY ALTRET ;
       59     3046
       60     3047               /* Set SO/COMDK off now that phase 1 has ended */
       61     3048    1          COMCOM.OB.COMDK = FALSE;
       62     3049    1          COMCOM.OB.ACOMDK = FALSE; /* Required on GCOS */
       63     3050    1          COMCOM.OB.LU    = FALSE;
       64     3051
       65     3052    1          IF ES_FILE_OPEN THEN
       66     3053    2            DO;
       67     3054    2              CALL Z9AA$POSITION_ES_OUT;
       68     3055    2              ES_FILE_OPEN = FALSE;
       69     3056    2            END;
       70     3057               %IF GCOS;
       72     3059               %ENDIF;
       73     3060    1          CALL CLOSE_SOURCE_FILE;
       74     3061
       75     3062    1          IF ISN_FOR_EXP_SRC = 0     THEN
       76     3063    2            DO;
       77     3064    2              ES_FILE_OPEN = TRUE;
       78     3065    2              INPUT_FILE_TYPE = %EXPSRC_FILE;
       79     3066    2            END;
       80     3067    1          ELSE
       81     3068    1              INPUT_FILE_TYPE = %SOURCE_FILE;
       82     3069
       83     3070    1          CALL Z9AA$FILE_OPEN;
       84     3071
       85     3072    1          INPUT_FILES_OPEN = TRUE;
       86     3073    1          ORIGINAL_ISN = 0;
       87     3074    1          EXPANDED_ISN = 0;
       88     3075    1          RETURN ;
       89     3076        %EJECT;
PL6.E3A0      #001=Z8AA$IO File=Z8AA.:Z8A6TSI                                    SAT 08/09/97 10:41 Page:6
       90     3077    1   Z8AA$GET_EXPANDED_SOURCE_LINE :ENTRY ALTRET;
       91     3078
       92     3079    1     IF ISN_FOR_EXP_SRC > 0
       93     3080    1               AND ISN_FOR_EXP_SRC = ORIGINAL_ISN + 1 THEN
       94     3081    2       DO;
       95     3082              /* Swap source input files */
       96     3083    2         CALL CLOSE_SOURCE_FILE;
       97     3084    2         INPUT_FILE_TYPE = %EXPSRC_FILE;
       98     3085    2         CALL Z9AA$FILE_REWIND_ES;
       99     3086    2         ES_FILE_OPEN = TRUE;
      100     3087    2       END;
      101     3088
      102     3089    1     CALL Z9AA$FILE_READ;
      103     3090
      104     3091    1     COMCOM.CURRENT.LINE = FILL_BUFFER.ISN ;
      105     3092
      106     3093    1     IF FILL_BUFFER.CLASS = %END_OF_FILE THEN
      107     3094    2       DO ;
      108     3095              %IF GCOS;
      110     3097              %ENDIF;
      111     3098    2         CALL CLOSE_SOURCE_FILE ;
      112     3099    2         ALTRETURN ;
      113     3100    2       END ;
      114     3101
      115     3102    1     RETURN;
      116     3103        %EJECT;
PL6.E3A0      #001=Z8AA$IO File=Z8AA.:Z8A6TSI                                    SAT 08/09/97 10:41 Page:7
      117     3104    1   Z8AA$GET_NEXT_SRC_LINE :ENTRY ALTRET;
      118     3105
      119     3106    1      CALL Z9AA$FILE_READ;
      120     3107
      121     3108    1      IF FILL_BUFFER.CLASS = %END_OF_FILE THEN
      122     3109    2        DO;
      123     3110               %IF GCOS;
      125     3112               %ENDIF;
      126     3113    2          CALL CLOSE_SOURCE_FILE;
      127     3114    2          ALTRETURN;
      128     3115    2        END;
      129     3116
      130     3117    1      RETURN;
      131     3118
      132     3119        %EJECT;
PL6.E3A0      #001=Z8AA$IO File=Z8AA.:Z8A6TSI                                    SAT 08/09/97 10:41 Page:8
      133     3120    1   Z8AA$PREPARE_ES_OUTPUT : ENTRY ALTRET;
      134     3121
      135     3122    1       CALL Z9AA$OPEN_OUTPUT_ES;
      136     3123    1       ES_FILE_OPEN = TRUE;
      137     3124    1       RETURN;
      138     3125        %EJECT;
PL6.E3A0      #001=Z8AA$IO File=Z8AA.:Z8A6TSI                                    SAT 08/09/97 10:41 Page:9
      139     3126    1   Z8AA$POSITION_ES_OUT:  ENTRY ALTRET;
      140     3127
      141     3128    1       IF ES_FILE_OPEN   THEN
      142     3129    2         DO;
      143     3130    2           CALL Z9AA$POSITION_ES_OUT;
      144     3131    2           ES_FILE_OPEN = FALSE;
      145     3132    2         END;
      146     3133
      147     3134    1       RETURN;
      148     3135
      149     3136    1   END Z8AA$IO;

PL6.E3A0      #001=Z8AA$IO File=Z8AA.:Z8A6TSI                                    SAT 08/09/97 10:41 Page:10
--  Include file information  --

   Z8E_BUFFERS.:Z8A6TOU  cannot be made into a system file and is referenced.
   Z8E_WINDOW.:Z8A6TOU  is referenced.
   Z9A_FLAGS.:Z8A6TOU  is referenced.
   Z8A_COMCOM.:Z8A6TOU  cannot be made into a system file and is referenced.
   Z8A_DEFC.:Z8A6TOU  cannot be made into a system file and is referenced.
      No diagnostics issued in procedure Z8AA$IO.

   Procedure Z8AA$IO requires 121 words for executable code.
   Procedure Z8AA$IO requires 6 words of local(AUTO) storage.

    No errors detected in file Z8AA.:Z8A6TSI    .

PL6.E3A0      #001=Z8AA$IO File=Z8AA.:Z8A6TSI                                    SAT 08/09/97 10:41 Page:11

 Object Unit name= Z8AA$IO                                    File name= Z8AA.:Z8A6TOU
 UTS= AUG 09 '97 10:41:32.96 SAT                              Compiler= PL-6/E31         Sev=      00
 SharedLib= :SHARED_SYSTEM                                    Alt SharedLib=


    ****  Control sections  ****

 Sect   Type Bound  Init  Size OctSiz  Section name(segment info)
    0  LblCom even  none     1      1  ITERATION
    1  LblCom even  none     1      1  SCANNER_STATE
    2  LblCom even  none     1      1  CURRENT_BUFFER$
    3  LblCom even  none     1      1  LOOKAHEAD_BUFFER$
    4  LblCom even  none     1      1  CURRENT_LINE_LEVEL
    5  LblCom even  none     1      1  LINE_LIST$
    6  LblCom even  none     7      7  BUFFER
    7  LblCom even  none     1      1  ORIGINAL_ISN
    8  LblCom even  none     1      1  EXPANDED_ISN
    9  LblCom even  none     1      1  ISN_FOR_EXP_SRC
   10  LblCom even  none     1      1  INPUT_FILES_OPEN
   11  LblCom even  none     1      1  INPUT_FILE_TYPE
   12  LblCom even  none     1      1  ES_FILE_OPEN
   13   Proc  even  none   121    171  Z8AA$IO
   14  RoData even  none     2      2  Z8AA$IO

    ****  Entry defs  ****

                              Check   Calling
                             calling  sequence
  Sect OctLoc Primary Altret sequence   type   Parms  Name
    13      0   yes    yes     yes      Std        0  Z8AA$IO
    13     15          yes     yes      Std        0  Z8AA$CLOSE_SOURCE_FILE
    13     22          yes     yes      Std        0  Z8AA$PREPARE_SOURCE_INPUT
    13     37          yes     yes      Std        0  Z8AA$PREPARE_EXPANDED_SOURCE
    13     75          yes     yes      Std        0  Z8AA$GET_EXPANDED_SOURCE_LINE
    13    133          yes     yes      Std        0  Z8AA$GET_NEXT_SRC_LINE
    13    150          yes     yes      Std        0  Z8AA$PREPARE_ES_OUTPUT
    13    160          yes     yes      Std        0  Z8AA$POSITION_ES_OUT
PL6.E3A0      #001=Z8AA$IO File=Z8AA.:Z8A6TSI                                    SAT 08/09/97 10:41 Page:12

  ****  Entry refs  ****

         Check        Calling
        calling       sequence
Altret sequence SRef   type   Args  Name
         yes           Std       0 Z9AA$FILE_OPEN
         yes           Std       0 Z9AA$POSITION_ES_OUT
         yes           Std       0 Z9AA$FILE_REWIND_ES
         yes           Std       0 Z9AA$FILE_READ
         yes           Std       0 Z9AA$OPEN_OUTPUT_ES
         yes           Std       0 Z9AA$FILE_CLOSE
                       nStd      0 X66_AUTO_0
                       nStd      0 X66_ARET
                       nStd      0 X66_AALT

  ****  Data refs  ****

  Flags:  r = read only, s = secondary
Flgs Name                             Flgs Name                             Flgs Name
     COMCOM

  ****  Segment refs  ****

  Flags:  r = read only, s = secondary
Flgs Name                             Flgs Name                             Flgs Name
     NULLSID
PL6.E3A0      #001=Z8AA$IO File=Z8AA.:Z8A6TSI                                    SAT 08/09/97 10:41 Page:13


        1        1        /*T***********************************************************/
        2        2        /*T*                                                         */
        3        3        /*T* Copyright (c) Bull HN Information Systems Inc., 1997    */
        4        4        /*T*                                                         */
        5        5        /*T***********************************************************/
        6        6        Z8AA$IO :PROC ALTRET;

      6 13 000000   000000 700200 xent  Z8AA$IO      TSX0  ! X66_AUTO_0
        13 000001   000006 000000                    ZERO    6,0
        13 000002   000014 710000 13                 TRA     s:3022+2

        7        7
        8        8        %SET PHASE = 1;
        9        9        %INCLUDE Z8A_DEFC;
       10       77        %INCLUDE Z8A_COMCOM;
       11      727        %INCLUDE Z9A_FLAGS;
       12      741        %INCLUDE Z8E_WINDOW;
       13     2811        %INCLUDE Z8E_BUFFERS;
       14     3001
       15     3002    1   DCL Z9AA$FILE_OPEN ENTRY ;
       16     3003    1   DCL Z9AA$FILE_READ ENTRY ;
       17     3004    1   DCL Z9AA$FILE_CLOSE ENTRY ;
       18     3005    1   DCL Z9AA$OPEN_OUTPUT_ES ENTRY;
       19     3006    1   DCL Z9AA$POSITION_ES_OUT ENTRY;
       20     3007    1   DCL Z9AA$FILE_REWIND_ES  ENTRY;
       21     3008
       22     3009    1   DCL INPUT_FILES_OPEN BOOLEAN EXT INIT(FALSE);
       23     3010    1   DCL INPUT_FILE_TYPE SBIN EXT;
       24     3011
       25     3012    1   DCL ES_FILE_OPEN BOOLEAN EXT INIT(FALSE);
       26     3013        %EJECT ;
PL6.E3A0      #001=Z8AA$IO File=Z8AA.:Z8A6TSI                                    SAT 08/09/97 10:41 Page:14
       27     3014    1   CLOSE_SOURCE_FILE: PROC ;

   3014 13 000003   200004 741300       CLOSE_SOURC* STX1  ! 4,,AUTO

       28     3015
       29     3016
       30     3017    2       IF INPUT_FILES_OPEN THEN

   3017 13 000004   000000 234000 10                 SZN     INPUT_FILES_OPEN
        13 000005   000012 605000 13                 TPL     s:3022

       31     3018    3         DO;

       32     3019    3          CALL Z9AA$FILE_CLOSE ;

   3019 13 000006   000000 631400 14                 EPPR1   0
        13 000007   000000 701000 xent               TSX1    Z9AA$FILE_CLOSE
        13 000010   000000 011000                    NOP     0

       33     3020    3          INPUT_FILES_OPEN = FALSE;

   3020 13 000011   000000 450000 10                 STZ     INPUT_FILES_OPEN

       34     3021    3         END;

       35     3022    2       RETURN;

   3022 13 000012   200004 221300                    LDX1  ! 4,,AUTO
        13 000013   000001 702211                    TSX2  ! 1,X1
        13 000014   000017 710000 13                 TRA     s:3031

       36     3023    2   END CLOSE_SOURCE_FILE;
       37     3024        %EJECT;
PL6.E3A0      #001=Z8AA$IO File=Z8AA.:Z8A6TSI                                    SAT 08/09/97 10:41 Page:15
       38     3025    1   Z8AA$CLOSE_SOURCE_FILE: ENTRY ALTRET ;

   3025 13 000015   000000 700200 xent  Z8AA$CLOSE_* TSX0  ! X66_AUTO_0
        13 000016   000006 000000                    ZERO    6,0

       39     3026
       40     3027
       41     3028            %IF GCOS;
       43     3030            %ENDIF;
       44     3031    1       CALL CLOSE_SOURCE_FILE;

   3031 13 000017   000003 701000 13                 TSX1    CLOSE_SOURCE_FILE
        13 000020   000000 011000                    NOP     0

       45     3032
       46     3033    1       RETURN;

   3033 13 000021   000000 702200 xent               TSX2  ! X66_ARET

       47     3034        %EJECT;
PL6.E3A0      #001=Z8AA$IO File=Z8AA.:Z8A6TSI                                    SAT 08/09/97 10:41 Page:16
       48     3035    1   Z8AA$PREPARE_SOURCE_INPUT: ENTRY ALTRET ;

   3035 13 000022   000000 700200 xent  Z8AA$PREPAR* TSX0  ! X66_AUTO_0
        13 000023   000006 000000                    ZERO    6,0

       49     3036
       50     3037    1          CALL CLOSE_SOURCE_FILE;

   3037 13 000024   000003 701000 13                 TSX1    CLOSE_SOURCE_FILE
        13 000025   000000 011000                    NOP     0

       51     3038    1          INPUT_FILE_TYPE = %SOURCE_FILE;

   3038 13 000026   000000 450000 11                 STZ     INPUT_FILE_TYPE

       52     3039    1          CALL Z9AA$FILE_OPEN ;

   3039 13 000027   000000 631400 14                 EPPR1   0
        13 000030   000000 701000 xent               TSX1    Z9AA$FILE_OPEN
        13 000031   000000 011000                    NOP     0

       53     3040    1          INPUT_FILES_OPEN = TRUE;

   3040 13 000032   400000 236003                    LDQ     -131072,DU
        13 000033   000000 756000 10                 STQ     INPUT_FILES_OPEN

       54     3041    1          ORIGINAL_ISN = 0;

   3041 13 000034   000000 450000 7                  STZ     ORIGINAL_ISN

       55     3042    1          EXPANDED_ISN = 0;

   3042 13 000035   000000 450000 8                  STZ     EXPANDED_ISN

       56     3043    1          RETURN ;

   3043 13 000036   000000 702200 xent               TSX2  ! X66_ARET
PL6.E3A0      #001=Z8AA$IO File=Z8AA.:Z8A6TSI                                    SAT 08/09/97 10:41 Page:17

       57     3044        %EJECT ;
PL6.E3A0      #001=Z8AA$IO File=Z8AA.:Z8A6TSI                                    SAT 08/09/97 10:41 Page:18
       58     3045    1   Z8AA$PREPARE_EXPANDED_SOURCE: ENTRY ALTRET ;

   3045 13 000037   000000 700200 xent  Z8AA$PREPAR* TSX0  ! X66_AUTO_0
        13 000040   000006 000000                    ZERO    6,0

       59     3046
       60     3047               /* Set SO/COMDK off now that phase 1 has ended */
       61     3048    1          COMCOM.OB.COMDK = FALSE;

   3048 13 000041   000001 236000 14                 LDQ     1
        13 000042   000016 356000 xsym               ANSQ    COMCOM+14

       62     3049    1          COMCOM.OB.ACOMDK = FALSE; /* Required on GCOS */

   3049 13 000043   000114 356000 xsym               ANSQ    COMCOM+76

       63     3050    1          COMCOM.OB.LU    = FALSE;

   3050 13 000044   000017 356000 xsym               ANSQ    COMCOM+15

       64     3051
       65     3052    1          IF ES_FILE_OPEN THEN

   3052 13 000045   000000 234000 12                 SZN     ES_FILE_OPEN
        13 000046   000053 605000 13                 TPL     s:3060

       66     3053    2            DO;

       67     3054    2              CALL Z9AA$POSITION_ES_OUT;

   3054 13 000047   000000 631400 14                 EPPR1   0
        13 000050   000000 701000 xent               TSX1    Z9AA$POSITION_ES_OUT
        13 000051   000000 011000                    NOP     0

       68     3055    2              ES_FILE_OPEN = FALSE;

   3055 13 000052   000000 450000 12                 STZ     ES_FILE_OPEN
PL6.E3A0      #001=Z8AA$IO File=Z8AA.:Z8A6TSI                                    SAT 08/09/97 10:41 Page:19

       69     3056    2            END;

       70     3057               %IF GCOS;
       72     3059               %ENDIF;
       73     3060    1          CALL CLOSE_SOURCE_FILE;

   3060 13 000053   000003 701000 13                 TSX1    CLOSE_SOURCE_FILE
        13 000054   000000 011000                    NOP     0

       74     3061
       75     3062    1          IF ISN_FOR_EXP_SRC = 0     THEN

   3062 13 000055   000000 235000 9                  LDA     ISN_FOR_EXP_SRC
        13 000056   000064 601000 13                 TNZ     s:3068

       76     3063    2            DO;

       77     3064    2              ES_FILE_OPEN = TRUE;

   3064 13 000057   400000 236003                    LDQ     -131072,DU
        13 000060   000000 756000 12                 STQ     ES_FILE_OPEN

       78     3065    2              INPUT_FILE_TYPE = %EXPSRC_FILE;

   3065 13 000061   000001 235007                    LDA     1,DL
        13 000062   000000 755000 11                 STA     INPUT_FILE_TYPE

       79     3066    2            END;

   3066 13 000063   000065 710000 13                 TRA     s:3070

       80     3067    1          ELSE
       81     3068    1              INPUT_FILE_TYPE = %SOURCE_FILE;

   3068 13 000064   000000 450000 11                 STZ     INPUT_FILE_TYPE

PL6.E3A0      #001=Z8AA$IO File=Z8AA.:Z8A6TSI                                    SAT 08/09/97 10:41 Page:20
       82     3069
       83     3070    1          CALL Z9AA$FILE_OPEN;

   3070 13 000065   000000 631400 14                 EPPR1   0
        13 000066   000000 701000 xent               TSX1    Z9AA$FILE_OPEN
        13 000067   000000 011000                    NOP     0

       84     3071
       85     3072    1          INPUT_FILES_OPEN = TRUE;

   3072 13 000070   400000 236003                    LDQ     -131072,DU
        13 000071   000000 756000 10                 STQ     INPUT_FILES_OPEN

       86     3073    1          ORIGINAL_ISN = 0;

   3073 13 000072   000000 450000 7                  STZ     ORIGINAL_ISN

       87     3074    1          EXPANDED_ISN = 0;

   3074 13 000073   000000 450000 8                  STZ     EXPANDED_ISN

       88     3075    1          RETURN ;

   3075 13 000074   000000 702200 xent               TSX2  ! X66_ARET

       89     3076        %EJECT;
PL6.E3A0      #001=Z8AA$IO File=Z8AA.:Z8A6TSI                                    SAT 08/09/97 10:41 Page:21
       90     3077    1   Z8AA$GET_EXPANDED_SOURCE_LINE :ENTRY ALTRET;

   3077 13 000075   000000 700200 xent  Z8AA$GET_EX* TSX0  ! X66_AUTO_0
        13 000076   000006 000000                    ZERO    6,0

       91     3078
       92     3079    1     IF ISN_FOR_EXP_SRC > 0

   3079 13 000077   000000 235000 9                  LDA     ISN_FOR_EXP_SRC
        13 000100   000116 604400 13                 TMOZ    s:3089
        13 000101   000000 236000 7                  LDQ     ORIGINAL_ISN
        13 000102   000001 036007                    ADLQ    1,DL
        13 000103   000000 116000 9                  CMPQ    ISN_FOR_EXP_SRC
        13 000104   000116 601000 13                 TNZ     s:3089

       93     3080    1               AND ISN_FOR_EXP_SRC = ORIGINAL_ISN + 1 THEN
       94     3081    2       DO;

       95     3082              /* Swap source input files */
       96     3083    2         CALL CLOSE_SOURCE_FILE;

   3083 13 000105   000003 701000 13                 TSX1    CLOSE_SOURCE_FILE
        13 000106   000000 011000                    NOP     0

       97     3084    2         INPUT_FILE_TYPE = %EXPSRC_FILE;

   3084 13 000107   000001 235007                    LDA     1,DL
        13 000110   000000 755000 11                 STA     INPUT_FILE_TYPE

       98     3085    2         CALL Z9AA$FILE_REWIND_ES;

   3085 13 000111   000000 631400 14                 EPPR1   0
        13 000112   000000 701000 xent               TSX1    Z9AA$FILE_REWIND_ES
        13 000113   000000 011000                    NOP     0

       99     3086    2         ES_FILE_OPEN = TRUE;

PL6.E3A0      #001=Z8AA$IO File=Z8AA.:Z8A6TSI                                    SAT 08/09/97 10:41 Page:22
   3086 13 000114   400000 236003                    LDQ     -131072,DU
        13 000115   000000 756000 12                 STQ     ES_FILE_OPEN

      100     3087    2       END;

      101     3088
      102     3089    1     CALL Z9AA$FILE_READ;

   3089 13 000116   000000 631400 14                 EPPR1   0
        13 000117   000000 701000 xent               TSX1    Z9AA$FILE_READ
        13 000120   000000 011000                    NOP     0

      103     3090
      104     3091    1     COMCOM.CURRENT.LINE = FILL_BUFFER.ISN ;

   3091 13 000121   000000 470400 3                  LDP0    LOOKAHEAD_BUFFER$
        13 000122   000004 235100                    LDA     4,,PR0
        13 000123   000133 755000 xsym               STA     COMCOM+91

      105     3092
      106     3093    1     IF FILL_BUFFER.CLASS = %END_OF_FILE THEN

   3093 13 000124   000010 235100                    LDA     8,,PR0
        13 000125   000001 115007                    CMPA    1,DL
        13 000126   000132 601000 13                 TNZ     s:3102

      107     3094    2       DO ;

      108     3095              %IF GCOS;
      110     3097              %ENDIF;
      111     3098    2         CALL CLOSE_SOURCE_FILE ;

   3098 13 000127   000003 701000 13                 TSX1    CLOSE_SOURCE_FILE
        13 000130   000000 011000                    NOP     0

      112     3099    2         ALTRETURN ;

PL6.E3A0      #001=Z8AA$IO File=Z8AA.:Z8A6TSI                                    SAT 08/09/97 10:41 Page:23
   3099 13 000131   000000 702200 xent               TSX2  ! X66_AALT

      113     3100    2       END ;
      114     3101
      115     3102    1     RETURN;

   3102 13 000132   000000 702200 xent               TSX2  ! X66_ARET

      116     3103        %EJECT;
PL6.E3A0      #001=Z8AA$IO File=Z8AA.:Z8A6TSI                                    SAT 08/09/97 10:41 Page:24
      117     3104    1   Z8AA$GET_NEXT_SRC_LINE :ENTRY ALTRET;

   3104 13 000133   000000 700200 xent  Z8AA$GET_NE* TSX0  ! X66_AUTO_0
        13 000134   000006 000000                    ZERO    6,0

      118     3105
      119     3106    1      CALL Z9AA$FILE_READ;

   3106 13 000135   000000 631400 14                 EPPR1   0
        13 000136   000000 701000 xent               TSX1    Z9AA$FILE_READ
        13 000137   000000 011000                    NOP     0

      120     3107
      121     3108    1      IF FILL_BUFFER.CLASS = %END_OF_FILE THEN

   3108 13 000140   000000 470400 3                  LDP0    LOOKAHEAD_BUFFER$
        13 000141   000010 235100                    LDA     8,,PR0
        13 000142   000001 115007                    CMPA    1,DL
        13 000143   000147 601000 13                 TNZ     s:3117

      122     3109    2        DO;

      123     3110               %IF GCOS;
      125     3112               %ENDIF;
      126     3113    2          CALL CLOSE_SOURCE_FILE;

   3113 13 000144   000003 701000 13                 TSX1    CLOSE_SOURCE_FILE
        13 000145   000000 011000                    NOP     0

      127     3114    2          ALTRETURN;

   3114 13 000146   000000 702200 xent               TSX2  ! X66_AALT

      128     3115    2        END;
      129     3116
      130     3117    1      RETURN;

PL6.E3A0      #001=Z8AA$IO File=Z8AA.:Z8A6TSI                                    SAT 08/09/97 10:41 Page:25
   3117 13 000147   000000 702200 xent               TSX2  ! X66_ARET

      131     3118
      132     3119        %EJECT;
PL6.E3A0      #001=Z8AA$IO File=Z8AA.:Z8A6TSI                                    SAT 08/09/97 10:41 Page:26
      133     3120    1   Z8AA$PREPARE_ES_OUTPUT : ENTRY ALTRET;

   3120 13 000150   000000 700200 xent  Z8AA$PREPAR* TSX0  ! X66_AUTO_0
        13 000151   000006 000000                    ZERO    6,0

      134     3121
      135     3122    1       CALL Z9AA$OPEN_OUTPUT_ES;

   3122 13 000152   000000 631400 14                 EPPR1   0
        13 000153   000000 701000 xent               TSX1    Z9AA$OPEN_OUTPUT_ES
        13 000154   000000 011000                    NOP     0

      136     3123    1       ES_FILE_OPEN = TRUE;

   3123 13 000155   400000 236003                    LDQ     -131072,DU
        13 000156   000000 756000 12                 STQ     ES_FILE_OPEN

      137     3124    1       RETURN;

   3124 13 000157   000000 702200 xent               TSX2  ! X66_ARET

      138     3125        %EJECT;
PL6.E3A0      #001=Z8AA$IO File=Z8AA.:Z8A6TSI                                    SAT 08/09/97 10:41 Page:27
      139     3126    1   Z8AA$POSITION_ES_OUT:  ENTRY ALTRET;

   3126 13 000160   000000 700200 xent  Z8AA$POSITI* TSX0  ! X66_AUTO_0
        13 000161   000006 000000                    ZERO    6,0

      140     3127
      141     3128    1       IF ES_FILE_OPEN   THEN

   3128 13 000162   000000 234000 12                 SZN     ES_FILE_OPEN
        13 000163   000170 605000 13                 TPL     s:3134

      142     3129    2         DO;

      143     3130    2           CALL Z9AA$POSITION_ES_OUT;

   3130 13 000164   000000 631400 14                 EPPR1   0
        13 000165   000000 701000 xent               TSX1    Z9AA$POSITION_ES_OUT
        13 000166   000000 011000                    NOP     0

      144     3131    2           ES_FILE_OPEN = FALSE;

   3131 13 000167   000000 450000 12                 STZ     ES_FILE_OPEN

      145     3132    2         END;

      146     3133
      147     3134    1       RETURN;

   3134 13 000170   000000 702200 xent               TSX2  ! X66_ARET
      148     3135
      149     3136    1   END Z8AA$IO;

PL6.E3A0      #001=Z8AA$IO File=Z8AA.:Z8A6TSI                                    SAT 08/09/97 10:41 Page:28
--  Include file information  --

   Z8E_BUFFERS.:Z8A6TOU  cannot be made into a system file and is referenced.
   Z8E_WINDOW.:Z8A6TOU  is referenced.
   Z9A_FLAGS.:Z8A6TOU  is referenced.
   Z8A_COMCOM.:Z8A6TOU  cannot be made into a system file and is referenced.
   Z8A_DEFC.:Z8A6TOU  cannot be made into a system file and is referenced.
      No diagnostics issued in procedure Z8AA$IO.
PL6.E3A0      #001=Z8AA$IO File=Z8AA.:Z8A6TSI                                    SAT 08/09/97 10:41 Page:29

 **** Variables and constants ****

  ****  Section 000 LblCom ITERATION

  ****  Scalars and arrays  ****
OctLoc.c.b A Datatyp(siz) R M Lvl/name                 OctLoc.c.b A Datatyp(siz) R M Lvl/name

     0-0-0/w SBIN              1 ITERATION

  ****  Section 001 LblCom SCANNER_STATE

  ****  Scalars and arrays  ****
OctLoc.c.b A Datatyp(siz) R M Lvl/name                 OctLoc.c.b A Datatyp(siz) R M Lvl/name

     0-0-0/w SBIN              1 SCANNER_STATE

  ****  Section 002 LblCom CURRENT_BUFFER$

  ****  Scalars and arrays  ****
OctLoc.c.b A Datatyp(siz) R M Lvl/name                 OctLoc.c.b A Datatyp(siz) R M Lvl/name

     0-0-0/w PTR               1 CURRENT_BUFFER$

  ****  Section 003 LblCom LOOKAHEAD_BUFFER$

  ****  Scalars and arrays  ****
OctLoc.c.b A Datatyp(siz) R M Lvl/name                 OctLoc.c.b A Datatyp(siz) R M Lvl/name

     0-0-0/w PTR         r     1 LOOKAHEAD_BUFFER$

  ****  Section 004 LblCom CURRENT_LINE_LEVEL

  ****  Scalars and arrays  ****
OctLoc.c.b A Datatyp(siz) R M Lvl/name                 OctLoc.c.b A Datatyp(siz) R M Lvl/name

     0-0-0/w SBIN              1 CURRENT_LINE_LEVEL

PL6.E3A0      #001=Z8AA$IO File=Z8AA.:Z8A6TSI                                    SAT 08/09/97 10:41 Page:30
  ****  Section 005 LblCom LINE_LIST$

  ****  Scalars and arrays  ****
OctLoc.c.b A Datatyp(siz) R M Lvl/name                 OctLoc.c.b A Datatyp(siz) R M Lvl/name

     0-0-0/w PTR               1 LINE_LIST$

  ****  Section 006 LblCom BUFFER

  ****  Scalars and arrays  ****
OctLoc.c.b A Datatyp(siz) R M Lvl/name                 OctLoc.c.b A Datatyp(siz) R M Lvl/name

     0-0-0/w STRC(252)   r     1 BUFFER

  ****  Section 007 LblCom ORIGINAL_ISN

  ****  Scalars and arrays  ****
OctLoc.c.b A Datatyp(siz) R M Lvl/name                 OctLoc.c.b A Datatyp(siz) R M Lvl/name

     0-0-0/w SBIN        r     1 ORIGINAL_ISN

  ****  Section 008 LblCom EXPANDED_ISN

  ****  Scalars and arrays  ****
OctLoc.c.b A Datatyp(siz) R M Lvl/name                 OctLoc.c.b A Datatyp(siz) R M Lvl/name

     0-0-0/w SBIN        r     1 EXPANDED_ISN

  ****  Section 009 LblCom ISN_FOR_EXP_SRC

  ****  Scalars and arrays  ****
OctLoc.c.b A Datatyp(siz) R M Lvl/name                 OctLoc.c.b A Datatyp(siz) R M Lvl/name

     0-0-0/w SBIN        r     1 ISN_FOR_EXP_SRC

  ****  Section 010 LblCom INPUT_FILES_OPEN

PL6.E3A0      #001=Z8AA$IO File=Z8AA.:Z8A6TSI                                    SAT 08/09/97 10:41 Page:31
  ****  Scalars and arrays  ****
OctLoc.c.b A Datatyp(siz) R M Lvl/name                 OctLoc.c.b A Datatyp(siz) R M Lvl/name

     0-0-0/b BIT         r     1 INPUT_FILES_OPEN

  ****  Section 011 LblCom INPUT_FILE_TYPE

  ****  Scalars and arrays  ****
OctLoc.c.b A Datatyp(siz) R M Lvl/name                 OctLoc.c.b A Datatyp(siz) R M Lvl/name

     0-0-0/w SBIN        r     1 INPUT_FILE_TYPE

  ****  Section 012 LblCom ES_FILE_OPEN

  ****  Scalars and arrays  ****
OctLoc.c.b A Datatyp(siz) R M Lvl/name                 OctLoc.c.b A Datatyp(siz) R M Lvl/name

     0-0-0/b BIT         r     1 ES_FILE_OPEN

  ****  SYMREF variables  ****

  ****  Scalars and arrays  ****
OctLoc.c.b A Datatyp(siz) R M Lvl/name                 OctLoc.c.b A Datatyp(siz) R M Lvl/name

     0-0-0/d STRC(13248) r     1 COMCOM

  ****  BASED and DCB variables  ****

  ****  Scalars and arrays  ****
OctLoc.c.b A Datatyp(siz) R M Lvl/name                 OctLoc.c.b A Datatyp(siz) R M Lvl/name

     0-0-0/c ACHR              1 BUFFER_LINE                0-0-0/w CHAR(4096)        1 CHARS
     0-0-0/w STRC(72)          1 CONT                       0-0-0/w ASTR(396)   r     1 EXP_SRC_BUFF
     0-0-0/w ASTR(396)   r     1 FILL_BUFFER                0-0-0/w STRC(36864)       1 PAGE

PL6.E3A0      #001=Z8AA$IO File=Z8AA.:Z8A6TSI                                    SAT 08/09/97 10:41 Page:32

   Procedure Z8AA$IO requires 121 words for executable code.
   Procedure Z8AA$IO requires 6 words of local(AUTO) storage.

    No errors detected in file Z8AA.:Z8A6TSI    .
