VERSION A06

PL6.E3A0      #001=Z8AC$MAKE_CONST File=Z8AC.:Z8A6TSI                            SAT 08/09/97 10:41 Page:1
        1        1        /*M* Z8AC$MAKE_CONST -- Make a Comp-6 constant */
        2        2        /*T***********************************************************/
        3        3        /*T*                                                         */
        4        4        /*T* Copyright (c) Bull HN Information Systems Inc., 1997    */
        5        5        /*T*                                                         */
        6        6        /*T***********************************************************/
        7        7
        8        8
        9        9        /*P*       NAME: Z8AC$MAKE_CONST
       10       10
       11       11                PURPOSE: MAKE A CONSTANT SYMBOL TABLE ITEM
       12       12                         (FOR COMP-6 CONSTANTS ONLY).
       13       13        */
       14       14
       15       15        /*D*       NAME: Z8AC$MAKE_CONST
       16       16
       17       17                   CALL: MKCN.CON = one_word_constant ;
       18       18                         CALL Z8AC$MAKE_CONST (result_ptr) ;
       19       19
       20       20              INTERFACE: %RESERVE_ST -- Reserves a CONST item.
       21       21                         Z8AS$SR_ETT -- Searches a TRIAD triad.
       22       22
       23       23            DESCRIPTION::
       24       24                   THIS ROUTINE USES THE I_C_BUCKETS ARRAY
       25       25                   TO KEEP A LIST OF INTEGER CONSTANTS FOR
       26       26                   SEARCHING PURPOSES. THE CURRENT HASH IS:
       27       27                     HASH = MOD ( ABS (CONSTANT), 100)
       28       28
       29       29           INPUTS: MKCN.CON -- THE CONSTANT IN BINARY.
       30       30           ======
       31       31
       32       32           OUTPUTS: RESULT$ -- PTR TO A "TRIAD" ITEM.
       33       33           =======
       34       34
       35       35        */
       36       36
       37       37        %EJECT;
PL6.E3A0      #001=Z8AC$MAKE_CONST File=Z8AC.:Z8A6TSI                            SAT 08/09/97 10:41 Page:2
       38       38        Z8AC$MAKE_CONST: PROC (RESULT$) ;
       39       39
       40       40             %EQU PHASE = 1 ;
       41       41             %INCLUDE Z8A_DEFC ;
       42      109             %INCLUDE Z8A_SUPP_MAC ;
       43     2509             %INCLUDE Z9A_FLAGS ;
       44     2523             %INCLUDE Z8A_ST ;
       45     6182             %INCLUDE Z8A_TYPES;
       46     6356             %INCLUDE Z8A_ETT ;
       47     6657             %INCLUDE Z8A_SRCH ;
       48     6706             %INCLUDE Z8A_MKCN ;
       49     6723             %INCLUDE Z8A_COMCOM;
       50     7373             %INCLUDE Z8E_STACKS;
       51     9639             %INCLUDE Z8E_O1COM;
       52    10400
       53    10401    1        DCL 1 TYPE_DESC ALIGNED,
       54    10402                   %TYPE_DESC;
       55    10436
       56    10437    1        DCL   RESULT$  PTR ;
       57    10438    1        DCL   I_C_BUCKETS (0:99) PTR STATIC INIT (ADDR(NIL) * 100) ;
       58    10439    1        DCL   HASH               SBIN WORD ;
       59    10440    1        DCL   Z8AS$SR_ETT        ENTRY (1) ;
       60    10441
       61    10442    1          CALL Z8AC$SEARCH_CONSTANT (RESULT$) ;
       62    10443    1          GOTO FOUND_EXIT ;
       63    10444
       64    10445        %IF GCOS;
       71    10452        %ENDIF;
       72    10453        %EJECT;
PL6.E3A0      #001=Z8AC$MAKE_CONST File=Z8AC.:Z8A6TSI                            SAT 08/09/97 10:41 Page:3
       73    10454    1   Z8AC$SEARCH_CONSTANT: ENTRY (RESULT$) ;
       74    10455
       75    10456    1          HASH = MKCN.CON ;
       76    10457    1          HASH = MOD (HASH, 100) ;
       77    10458    1          IF HASH < 0
       78    10459    1          THEN HASH = - HASH ;
       79    10460
       80    10461    1          ST$ = I_C_BUCKETS (HASH) ;
       81    10462    2          DO WHILE (ST$ ~= ADDR (NIL)) ;
       82    10463    2            IF ST$ -> CONST.CONSTI.WORD1 = MKCN.CON
       83    10464    2              AND ST$ -> CONST.COUNT = O1COM.CURRENT_SEGMENTC
       84    10465    3            THEN DO ; /* FOUND A MATCH */
       85    10466    3              RESULT$ = ST$ ;
       86    10467    3              GOTO EXIT_STAGE_LEFT ;
       87    10468    3            END ;
       88    10469    2            ST$ = ST$->ST.NEXT ;
       89    10470    2          END /* DO WHILE */ ;
       90    10471
       91    10472    1   RESERVE_A_CONST_ITEM:
       92    10473
       93    10474             %NEW_CONST( @ST$         = RESULT$ ,
       94    10475                         @TYPE        = %TYI ,
       95    10476                         @NEXT        = "I_C_BUCKETS(HASH)" );
       96    10517
       97    10518             %BUILD_BINARY_DESC( @DESC  = TYPE_DESC.DESC ,
       98    10519                                 @LENGTH= %TYI_LENGTH) ;
       99    10527
      100    10528    1        RESULT$ -> CONST.NDSC    = TYPE_DESC.DESC.NDSC;
      101    10529    1        RESULT$ -> CONST.CONSTI.WORD1 = MKCN.CON;
      102    10530    1          I_C_BUCKETS (HASH) = RESULT$ ;
      103    10531    1   EXIT_STAGE_LEFT: ;
      104    10532    1          RETURN ;
      105    10533
      106    10534        %EJECT;
PL6.E3A0      #001=Z8AC$MAKE_CONST File=Z8AC.:Z8A6TSI                            SAT 08/09/97 10:41 Page:4
      107    10535    1   Z8AC$MAKE_CONST_D: ENTRY (RESULT$) ;
      108    10536
      109    10537        /*D*       NAME: Z8AC$MAKE_CONST_D
      110    10538
      111    10539            DESCRIPTION: Makes a decimal constant and puts the
      112    10540                         ptr to the result in RESULT$.  MKCN.CONA must
      113    10541                         be set to the constant (one digit)
      114    10542                         before making the call.
      115    10543
      116    10544        */
      117    10545
      118    10546             %NEW_CONST( @ST$         = RESULT$ ,
      119    10547                         @TYPE        = %TYD );
      120    10588
      121    10589             %PACK_NDSC( @DESC        = TYPE_DESC.DESC ,
      122    10590                         @SIGN        = %NO_SIGN ,
      123    10591                         @TN          = %NDSC9 ,
      124    10592                         @LENGTH      = 1 );
      125    10641
      126    10642    1        RESULT$ -> CONST.NDSC    = TYPE_DESC.DESC.NDSC;
      127    10643    1        RESULT$ -> CONST.CONSTA  = MKCN.CONA;
      128    10644    1        GOTO FOUND_EXIT ;
      129    10645
      130    10646        %EJECT;
PL6.E3A0      #001=Z8AC$MAKE_CONST File=Z8AC.:Z8A6TSI                            SAT 08/09/97 10:41 Page:5
      131    10647    1   Z8AC$MAKE_CONST_O : ENTRY(RESULT$);
      132    10648
      133    10649             %NEW_CONST(@ST$          = RESULT$,
      134    10650                        @TYPE         = %TYO );
      135    10691
      136    10692             %PACK_NDSC (@DESC        = TYPE_DESC.DESC,
      137    10693                         @SIGN        = %TRAILING_SIGN,
      138    10694                         @TN          = %NDSC9,
      139    10695                         @LENGTH      = 1,
      140    10696                         @TYPE        = %TYO);
      141    10745
      142    10746    1        RESULT$ -> CONST.NDSC    = TYPE_DESC.DESC.NDSC;
      143    10747    1        RESULT$ -> CONST.CONSTA  = MKCN.CONA;
      144    10748    1        GOTO FOUND_EXIT;
      145    10749        %EJECT;
PL6.E3A0      #001=Z8AC$MAKE_CONST File=Z8AC.:Z8A6TSI                            SAT 08/09/97 10:41 Page:6
      146    10750    1   Z8AC$MAKE_CONST_R: ENTRY (RESULT$) ;
      147    10751
      148    10752        /*D*       NAME: Z8AC$MAKE_CONST_R
      149    10753
      150    10754            DESCRIPTION: Makes a single precision floating binary
      151    10755                         constant and puts the result in RESULT$.
      152    10756                         MKCN must be set before making call.
      153    10757
      154    10758        */
      155    10759             %NEW_CONST( @ST$        = RESULT$ ,
      156    10760                         @TYPE       = %TYR );
      157    10801
      158    10802             %BUILD_BINARY_DESC( @DESC      = TYPE_DESC.DESC ,
      159    10803                                 @LENGTH    = %TYR_LENGTH );
      160    10811
      161    10812    1        RESULT$ -> CONST.NDSC = TYPE_DESC.DESC.NDSC;
      162    10813    1        RESULT$ -> CONST.CONSTI.WORD1 = MKCN.CON;
      163    10814    1          GOTO FOUND_EXIT ;
      164    10815
      165    10816        %EJECT;
PL6.E3A0      #001=Z8AC$MAKE_CONST File=Z8AC.:Z8A6TSI                            SAT 08/09/97 10:41 Page:7
      166    10817    1   Z8AC$MAKE_CONST_Q: ENTRY (RESULT$) ;
      167    10818
      168    10819        /*D*       NAME: Z8AC$MAKE_CONST_Q
      169    10820
      170    10821            DESCRIPTION: Makes a double precision floating binary
      171    10822                         constant and puts the result in RESULT$.
      172    10823                         MKCN must be set before making call.
      173    10824
      174    10825        */
      175    10826             %NEW_CONST( @ST$        = RESULT$ ,
      176    10827                         @TYPE       = %TYQ );
      177    10868
      178    10869             %BUILD_BINARY_DESC( @DESC      = TYPE_DESC.DESC ,
      179    10870                                 @LENGTH    = %TYQ_LENGTH );
      180    10878
      181    10879    1        RESULT$ -> CONST.NDSC = TYPE_DESC.DESC.NDSC;
      182    10880    1        RESULT$ -> CONST.CONSTI.WORD1 = MKCN.CON;
      183    10881    1        RESULT$ -> CONST.CONSTI.WORD2 = MKCN.WORD2;
      184    10882            /* GOTO FOUND_EXIT ; */
      185    10883
      186    10884        %EJECT;
PL6.E3A0      #001=Z8AC$MAKE_CONST File=Z8AC.:Z8A6TSI                            SAT 08/09/97 10:41 Page:8
      187    10885
      188    10886    1   FOUND_EXIT:
      189    10887
      190    10888    1          SRCH.ID  = %TRIAD ;
      191    10889    1          SRCH.LOP = RESULT$ ;
      192    10890    1          SRCH.ROP = ADDR(NIL) ;
      193    10891    1          CALL Z8AS$SR_ETT (RESULT$) ;
      194    10892
      195    10893    1   END Z8AC$MAKE_CONST ;
      196    10894        %EOD;

PL6.E3A0      #001=Z8AC$MAKE_CONST File=Z8AC.:Z8A6TSI                            SAT 08/09/97 10:41 Page:9
--  Include file information  --

   Z8E_O1COM.:Z8A6TOU  cannot be made into a system file and is referenced.
   Z8A_LEX_SYMB.:Z8A6TOU  cannot be made into a system file and is referenced.
   Z8E_STACKS.:Z8A6TOU  cannot be made into a system file and is referenced.
   Z8A_COMCOM.:Z8A6TOU  cannot be made into a system file and is referenced.
   Z8A_MKCN.:Z8A6TOU  cannot be made into a system file and is referenced.
   Z8A_SRCH.:Z8A6TOU  cannot be made into a system file and is referenced.
   Z8A_ETT.:Z8A6TOU  cannot be made into a system file and is referenced.
   Z8A_TYPES.:Z8A6TOU  is referenced.
   Z8A_ST.:Z8A6TOU  cannot be made into a system file and is referenced.
   Z9A_FLAGS.:Z8A6TOU  is referenced.
   X8A_COM_MACS.:X8A6TOU  is referenced.
   Z8A_NAMES.:Z8A6TOU  is referenced.
   Z8A_SUPP_MAC.:Z8A6TOU  is referenced.
   Z8A_DEFC.:Z8A6TOU  cannot be made into a system file and is referenced.
      No diagnostics issued in procedure Z8AC$MAKE_CONST.

   Procedure Z8AC$MAKE_CONST requires 362 words for executable code.
   Procedure Z8AC$MAKE_CONST requires 12 words of local(AUTO) storage.

PL6.E3A0      #001=Z8AC$MAKE_CONST File=Z8AC.:Z8A6TSI                            SAT 08/09/97 10:41 Page:10

 Object Unit name= Z8AC$MAKE_CONST                            File name= Z8AC.:Z8A6TOU
 UTS= AUG 09 '97 10:41:40.00 SAT                              Compiler= PL-6/E31         Sev=      00
 SharedLib= :SHARED_SYSTEM                                    Alt SharedLib=


    ****  Control sections  ****

 Sect   Type Bound  Init  Size OctSiz  Section name(segment info)
    0  LblCom even  none     1      1  ITERATION
    1  LblCom even  none     1      1  ST$
    2  LblCom even  none     5      5  ST_
    3  LblCom even  none     1      1  ETT$
    4  LblCom even  none     1      1  HEAD_ETT$
    5  LblCom even  none   512   1000  ETT_BUCKETS
    6  LblCom even  none     5      5  ETT_
    7  LblCom even  none     3      3  SRCH
    8  LblCom even  none     2      2  MKCN
    9  LblCom even  none    90    132  LEX_SYMBOL
   10  LblCom even  none     1      1  CURRENT_LEX_SYMBOL$
   11  LblCom even  none    90    132  TEMP_LEX_SYMBOL
   12  LblCom even  none    90    132  TEMP_LEX_SYMBOL2
   13   Data  even  none   100    144  Z8AC$MAKE_CONST
   14   Proc  even  none   362    552  Z8AC$MAKE_CONST
   15  RoData even  none     6      6  Z8AC$MAKE_CONST

    ****  Entry defs  ****

                              Check   Calling
                             calling  sequence
  Sect OctLoc Primary Altret sequence   type   Parms  Name
    14      0   yes            yes      Std        1  Z8AC$MAKE_CONST
    14      7                  yes      Std        1  Z8AC$SEARCH_CONSTANT
    14    133                  yes      Std        1  Z8AC$MAKE_CONST_D
    14    246                  yes      Std        1  Z8AC$MAKE_CONST_O
    14    364                  yes      Std        1  Z8AC$MAKE_CONST_R
    14    450                  yes      Std        1  Z8AC$MAKE_CONST_Q
PL6.E3A0      #001=Z8AC$MAKE_CONST File=Z8AC.:Z8A6TSI                            SAT 08/09/97 10:41 Page:11

  ****  Entry refs  ****

         Check        Calling
        calling       sequence
Altret sequence SRef   type   Args  Name
         yes           Std       1 Z8AR$RESERVER
         yes           Std       1 Z8AS$SR_ETT
                       nStd      0 X66_AUTO_1
                       nStd      0 X66_ARET

  ****  Data refs  ****

  Flags:  r = read only, s = secondary
Flgs Name                             Flgs Name                             Flgs Name
     COMCOM                                O1COM                                 HIER_STK_PTR
     HIER_STK                              PAGE_FORMAT                           REP_STK_PTR
     REP_STK

  ****  Segment refs  ****

  Flags:  r = read only, s = secondary
Flgs Name                             Flgs Name                             Flgs Name
     NULLSID                               ISSID
PL6.E3A0      #001=Z8AC$MAKE_CONST File=Z8AC.:Z8A6TSI                            SAT 08/09/97 10:41 Page:12


        1        1        /*M* Z8AC$MAKE_CONST -- Make a Comp-6 constant */
        2        2        /*T***********************************************************/
        3        3        /*T*                                                         */
        4        4        /*T* Copyright (c) Bull HN Information Systems Inc., 1997    */
        5        5        /*T*                                                         */
        6        6        /*T***********************************************************/
        7        7
        8        8
        9        9        /*P*       NAME: Z8AC$MAKE_CONST
       10       10
       11       11                PURPOSE: MAKE A CONSTANT SYMBOL TABLE ITEM
       12       12                         (FOR COMP-6 CONSTANTS ONLY).
       13       13        */
       14       14
       15       15        /*D*       NAME: Z8AC$MAKE_CONST
       16       16
       17       17                   CALL: MKCN.CON = one_word_constant ;
       18       18                         CALL Z8AC$MAKE_CONST (result_ptr) ;
       19       19
       20       20              INTERFACE: %RESERVE_ST -- Reserves a CONST item.
       21       21                         Z8AS$SR_ETT -- Searches a TRIAD triad.
       22       22
       23       23            DESCRIPTION::
       24       24                   THIS ROUTINE USES THE I_C_BUCKETS ARRAY
       25       25                   TO KEEP A LIST OF INTEGER CONSTANTS FOR
       26       26                   SEARCHING PURPOSES. THE CURRENT HASH IS:
       27       27                     HASH = MOD ( ABS (CONSTANT), 100)
       28       28
       29       29           INPUTS: MKCN.CON -- THE CONSTANT IN BINARY.
       30       30           ======
       31       31
       32       32           OUTPUTS: RESULT$ -- PTR TO A "TRIAD" ITEM.
       33       33           =======
       34       34
       35       35        */
       36       36
PL6.E3A0      #001=Z8AC$MAKE_CONST File=Z8AC.:Z8A6TSI                            SAT 08/09/97 10:41 Page:13
       37       37        %EJECT;
PL6.E3A0      #001=Z8AC$MAKE_CONST File=Z8AC.:Z8A6TSI                            SAT 08/09/97 10:41 Page:14
       38       38        Z8AC$MAKE_CONST: PROC (RESULT$) ;

     38 14 000000   000000 700200 xent  Z8AC$MAKE_C* TSX0  ! X66_AUTO_1
        14 000001   000014 000001                    ZERO    12,1

       39       39
       40       40             %EQU PHASE = 1 ;
       41       41             %INCLUDE Z8A_DEFC ;
       42      109             %INCLUDE Z8A_SUPP_MAC ;
       43     2509             %INCLUDE Z9A_FLAGS ;
       44     2523             %INCLUDE Z8A_ST ;
       45     6182             %INCLUDE Z8A_TYPES;
       46     6356             %INCLUDE Z8A_ETT ;
       47     6657             %INCLUDE Z8A_SRCH ;
       48     6706             %INCLUDE Z8A_MKCN ;
       49     6723             %INCLUDE Z8A_COMCOM;
       50     7373             %INCLUDE Z8E_STACKS;
       51     9639             %INCLUDE Z8E_O1COM;
       52    10400
       53    10401    1        DCL 1 TYPE_DESC ALIGNED,
       54    10402                   %TYPE_DESC;
       55    10436
       56    10437    1        DCL   RESULT$  PTR ;
       57    10438    1        DCL   I_C_BUCKETS (0:99) PTR STATIC INIT (ADDR(NIL) * 100) ;
       58    10439    1        DCL   HASH               SBIN WORD ;
       59    10440    1        DCL   Z8AS$SR_ETT        ENTRY (1) ;
       60    10441
       61    10442    1          CALL Z8AC$SEARCH_CONSTANT (RESULT$) ;

  10442 14 000002   200003 630500                    EPPR0   @RESULT$,,AUTO
        14 000003   000000 631400 15                 EPPR1   0
        14 000004   000007 701000 14                 TSX1    s:10454
        14 000005   000000 011000                    NOP     0

       62    10443    1          GOTO FOUND_EXIT ;

  10443 14 000006   000536 710000 14                 TRA     FOUND_EXIT
PL6.E3A0      #001=Z8AC$MAKE_CONST File=Z8AC.:Z8A6TSI                            SAT 08/09/97 10:41 Page:15

       63    10444
       64    10445        %IF GCOS;
       71    10452        %ENDIF;
       72    10453        %EJECT;
PL6.E3A0      #001=Z8AC$MAKE_CONST File=Z8AC.:Z8A6TSI                            SAT 08/09/97 10:41 Page:16
       73    10454    1   Z8AC$SEARCH_CONSTANT: ENTRY (RESULT$) ;

  10454 14 000007   000000 700200 xent  Z8AC$SEARCH* TSX0  ! X66_AUTO_1
        14 000010   000014 000001                    ZERO    12,1

       74    10455
       75    10456    1          HASH = MKCN.CON ;

  10456 14 000011   000000 235000 8                  LDA     MKCN
        14 000012   200010 755100                    STA     HASH,,AUTO

       76    10457    1          HASH = MOD (HASH, 100) ;

  10457 14 000013   200010 236100                    LDQ     HASH,,AUTO
        14 000014   000144 506007                    DIV     100,DL
        14 000015   200010 755100                    STA     HASH,,AUTO

       77    10458    1          IF HASH < 0

  10458 14 000016   000000 115003                    CMPA    0,DU
        14 000017   000022 605000 14                 TPL     s:10461

       78    10459    1          THEN HASH = - HASH ;

  10459 14 000020   000000 531000                    NEG     0
        14 000021   200010 755100                    STA     HASH,,AUTO

       79    10460
       80    10461    1          ST$ = I_C_BUCKETS (HASH) ;

  10461 14 000022   000000 236005 13                 LDQ     I_C_BUCKETS,AL
        14 000023   000000 756000 1                  STQ     ST$

       81    10462    2          DO WHILE (ST$ ~= ADDR (NIL)) ;

  10462 14 000024   000043 710000 14                 TRA     s:10470

PL6.E3A0      #001=Z8AC$MAKE_CONST File=Z8AC.:Z8A6TSI                            SAT 08/09/97 10:41 Page:17
       82    10463    2            IF ST$ -> CONST.CONSTI.WORD1 = MKCN.CON

  10463 14 000025   000000 470400 1                  LDP0    ST$
        14 000026   000010 236100                    LDQ     8,,PR0
        14 000027   000000 116000 8                  CMPQ    MKCN
        14 000030   000041 601000 14                 TNZ     s:10469
        14 000031   000000 236100                    LDQ     0,,PR0
        14 000032   000777 376007                    ANQ     511,DL
        14 000033   000126 116000 xsym               CMPQ    O1COM+86
        14 000034   000041 601000 14                 TNZ     s:10469

       83    10464    2              AND ST$ -> CONST.COUNT = O1COM.CURRENT_SEGMENTC
       84    10465    3            THEN DO ; /* FOUND A MATCH */

       85    10466    3              RESULT$ = ST$ ;

  10466 14 000035   000000 236000 1                  LDQ     ST$
        14 000036   200003 471500                    LDP1    @RESULT$,,AUTO
        14 000037   100000 756100                    STQ     0,,PR1

       86    10467    3              GOTO EXIT_STAGE_LEFT ;

  10467 14 000040   000132 710000 14                 TRA     EXIT_STAGE_LEFT

       87    10468    3            END ;
       88    10469    2            ST$ = ST$->ST.NEXT ;

  10469 14 000041   000004 236100                    LDQ     4,,PR0
        14 000042   000000 756000 1                  STQ     ST$

       89    10470    2          END /* DO WHILE */ ;

  10470 14 000043   000001 116000 15                 CMPQ    1
        14 000044   000025 601000 14                 TNZ     s:10463

       90    10471
       91    10472    1   RESERVE_A_CONST_ITEM:
PL6.E3A0      #001=Z8AC$MAKE_CONST File=Z8AC.:Z8A6TSI                            SAT 08/09/97 10:41 Page:18
       92    10473
       93    10474             %NEW_CONST( @ST$         = RESULT$ ,
       94    10475                         @TYPE        = %TYI ,
       95    10476                         @NEXT        = "I_C_BUCKETS(HASH)" );

  10477 14 000045                       RESERVE_A_C* null
  10480 14 000045   000002 236000 2                  LDQ     ST_+2
        14 000046   000013 036007                    ADLQ    11,DL
        14 000047   000003 116000 2                  CMPQ    ST_+3
        14 000050   000061 604000 14                 TMI     s:10482

  10481 14 000051   000002 236000 15                 LDQ     2
        14 000052   200012 756100                    STQ     HASH+2,,AUTO
        14 000053   200012 630500                    EPPR0   HASH+2,,AUTO
        14 000054   200013 450500                    STP0    HASH+3,,AUTO
        14 000055   200013 630500                    EPPR0   HASH+3,,AUTO
        14 000056   000000 631400 15                 EPPR1   0
        14 000057   000000 701000 xent               TSX1    Z8AR$RESERVER
        14 000060   000000 011000                    NOP     0

  10482 14 000061   000002 236000 2                  LDQ     ST_+2
        14 000062   000022 736000                    QLS     18
        14 000063   000001 036000 2                  ADLQ    ST_+1
        14 000064   200003 470500                    LDP0    @RESULT$,,AUTO
        14 000065   000000 756100                    STQ     0,,PR0

  10483 14 000066   000013 236007                    LDQ     11,DL
        14 000067   000002 056000 2                  ASQ     ST_+2

  10486 14 000070   000000 471500                    LDP1    0,,PR0
        14 000071   000767 220003                    LDX0    503,DU
        14 000072   100000 740100                    STX0    0,,PR1

  10487 14 000073   000000 471500                    LDP1    0,,PR0
        14 000074   001000 236007                    LDQ     512,DL
        14 000075   100000 552110                    STBQ    0,'10'O,PR1

PL6.E3A0      #001=Z8AC$MAKE_CONST File=Z8AC.:Z8A6TSI                            SAT 08/09/97 10:41 Page:19
  10488 14 000076   000000 471500                    LDP1    0,,PR0
        14 000077   000126 236000 xsym               LDQ     O1COM+86
        14 000100   100000 552104                    STBQ    0,'04'O,PR1

  10489 14 000101   000000 471500                    LDP1    0,,PR0
        14 000102   000001 221003                    LDX1    1,DU
        14 000103   100002 741100                    STX1    2,,PR1

  10490 14 000104   000000 471500                    LDP1    0,,PR0
        14 000105   100003 450100                    STZ     3,,PR1

  10491 14 000106   000000 471500                    LDP1    0,,PR0
        14 000107   200010 722100                    LXL2    HASH,,AUTO
        14 000110   000000 236012 13                 LDQ     I_C_BUCKETS,X2
        14 000111   100004 756100                    STQ     4,,PR1

  10492 14 000112   000000 471500                    LDP1    0,,PR0
        14 000113   000001 236000 15                 LDQ     1
        14 000114   100005 756100                    STQ     5,,PR1

  10493 14 000115   000000 471500                    LDP1    0,,PR0
        14 000116   100006 756100                    STQ     6,,PR1

       96    10517
       97    10518             %BUILD_BINARY_DESC( @DESC  = TYPE_DESC.DESC ,
       98    10519                                 @LENGTH= %TYI_LENGTH) ;

  10523 14 000117   200005 450100                    STZ     TYPE_DESC+1,,AUTO

  10524 14 000120   000004 236007                    LDQ     4,DL
        14 000121   200005 752101                    STCQ    TYPE_DESC+1,'01'O,AUTO

       99    10527
      100    10528    1        RESULT$ -> CONST.NDSC    = TYPE_DESC.DESC.NDSC;

  10528 14 000122   000000 471500                    LDP1    0,,PR0
        14 000123   200005 723100                    LXL3    TYPE_DESC+1,,AUTO
PL6.E3A0      #001=Z8AC$MAKE_CONST File=Z8AC.:Z8A6TSI                            SAT 08/09/97 10:41 Page:20
        14 000124   100001 443100                    SXL3    1,,PR1

      101    10529    1        RESULT$ -> CONST.CONSTI.WORD1 = MKCN.CON;

  10529 14 000125   000000 471500                    LDP1    0,,PR0
        14 000126   000000 235000 8                  LDA     MKCN
        14 000127   100010 755100                    STA     8,,PR1

      102    10530    1          I_C_BUCKETS (HASH) = RESULT$ ;

  10530 14 000130   000000 236100                    LDQ     0,,PR0
        14 000131   000000 756012 13                 STQ     I_C_BUCKETS,X2

  10530 14 000132                       EXIT_STAGE_* null
      103    10531    1   EXIT_STAGE_LEFT: ;
      104    10532    1          RETURN ;

  10532 14 000132   000000 702200 xent               TSX2  ! X66_ARET

      105    10533
      106    10534        %EJECT;
PL6.E3A0      #001=Z8AC$MAKE_CONST File=Z8AC.:Z8A6TSI                            SAT 08/09/97 10:41 Page:21
      107    10535    1   Z8AC$MAKE_CONST_D: ENTRY (RESULT$) ;

  10535 14 000133   000000 700200 xent  Z8AC$MAKE_C* TSX0  ! X66_AUTO_1
        14 000134   000014 000001                    ZERO    12,1

      108    10536
      109    10537        /*D*       NAME: Z8AC$MAKE_CONST_D
      110    10538
      111    10539            DESCRIPTION: Makes a decimal constant and puts the
      112    10540                         ptr to the result in RESULT$.  MKCN.CONA must
      113    10541                         be set to the constant (one digit)
      114    10542                         before making the call.
      115    10543
      116    10544        */
      117    10545
      118    10546             %NEW_CONST( @ST$         = RESULT$ ,
      119    10547                         @TYPE        = %TYD );

  10551 14 000135   000002 236000 2                  LDQ     ST_+2
        14 000136   000013 036007                    ADLQ    11,DL
        14 000137   000003 116000 2                  CMPQ    ST_+3
        14 000140   000151 604000 14                 TMI     s:10553

  10552 14 000141   000002 236000 15                 LDQ     2
        14 000142   200012 756100                    STQ     HASH+2,,AUTO
        14 000143   200012 630500                    EPPR0   HASH+2,,AUTO
        14 000144   200013 450500                    STP0    HASH+3,,AUTO
        14 000145   200013 630500                    EPPR0   HASH+3,,AUTO
        14 000146   000000 631400 15                 EPPR1   0
        14 000147   000000 701000 xent               TSX1    Z8AR$RESERVER
        14 000150   000000 011000                    NOP     0

  10553 14 000151   000002 236000 2                  LDQ     ST_+2
        14 000152   000022 736000                    QLS     18
        14 000153   000001 036000 2                  ADLQ    ST_+1
        14 000154   200003 470500                    LDP0    @RESULT$,,AUTO
        14 000155   000000 756100                    STQ     0,,PR0
PL6.E3A0      #001=Z8AC$MAKE_CONST File=Z8AC.:Z8A6TSI                            SAT 08/09/97 10:41 Page:22

  10554 14 000156   000013 236007                    LDQ     11,DL
        14 000157   000002 056000 2                  ASQ     ST_+2

  10557 14 000160   000000 471500                    LDP1    0,,PR0
        14 000161   000767 220003                    LDX0    503,DU
        14 000162   100000 740100                    STX0    0,,PR1

  10558 14 000163   000000 471500                    LDP1    0,,PR0
        14 000164   001000 236007                    LDQ     512,DL
        14 000165   100000 552110                    STBQ    0,'10'O,PR1

  10559 14 000166   000000 471500                    LDP1    0,,PR0
        14 000167   000126 236000 xsym               LDQ     O1COM+86
        14 000170   100000 552104                    STBQ    0,'04'O,PR1

  10560 14 000171   000000 471500                    LDP1    0,,PR0
        14 000172   000000 221003                    LDX1    0,DU
        14 000173   100002 741100                    STX1    2,,PR1

  10561 14 000174   000000 471500                    LDP1    0,,PR0
        14 000175   100003 450100                    STZ     3,,PR1

  10562 14 000176   000000 471500                    LDP1    0,,PR0
        14 000177   000001 236000 15                 LDQ     1
        14 000200   100004 756100                    STQ     4,,PR1

  10563 14 000201   000000 471500                    LDP1    0,,PR0
        14 000202   100005 756100                    STQ     5,,PR1

  10564 14 000203   000000 471500                    LDP1    0,,PR0
        14 000204   100006 756100                    STQ     6,,PR1

      120    10588
      121    10589             %PACK_NDSC( @DESC        = TYPE_DESC.DESC ,
      122    10590                         @SIGN        = %NO_SIGN ,
      123    10591                         @TN          = %NDSC9 ,
PL6.E3A0      #001=Z8AC$MAKE_CONST File=Z8AC.:Z8A6TSI                            SAT 08/09/97 10:41 Page:23
      124    10592                         @LENGTH      = 1 );

  10597 14 000205   200005 741100                    STX1    TYPE_DESC+1,,AUTO

  10598 14 000206   000003 236000 15                 LDQ     3
        14 000207   200005 356100                    ANSQ    TYPE_DESC+1,,AUTO

  10599 14 000210   000004 236000 15                 LDQ     4
        14 000211   200005 356100                    ANSQ    TYPE_DESC+1,,AUTO

  10600 14 000212   030000 236007                    LDQ     12288,DL
        14 000213   200005 256100                    ORSQ    TYPE_DESC+1,,AUTO

  10601 14 000214   000000 236003                    LDQ     0,DU
        14 000215   200005 752102                    STCQ    TYPE_DESC+1,'02'O,AUTO

  10602 14 000216   000003 235007                    LDA     3,DL
        14 000217   000004 115007                    CMPA    4,DL
        14 000220   000222 602005 14                 TNC     s:10602+4,AL
        14 000221   000236 710000 14                 TRA     s:10642
        14 000222   000234 710000 14                 TRA     s:10633
        14 000223   000231 710000 14                 TRA     s:10609
        14 000224   000231 710000 14                 TRA     s:10609
        14 000225   000226 710000 14                 TRA     s:10604

  10604 14 000226   000001 236007                    LDQ     1,DL
        14 000227   200005 752101                    STCQ    TYPE_DESC+1,'01'O,AUTO
        14 000230   000236 710000 14                 TRA     s:10642

  10609 14 000231   000002 236007                    LDQ     2,DL
        14 000232   200005 752101                    STCQ    TYPE_DESC+1,'01'O,AUTO
        14 000233   000236 710000 14                 TRA     s:10642

  10633 14 000234   000003 236007                    LDQ     3,DL
        14 000235   200005 752101                    STCQ    TYPE_DESC+1,'01'O,AUTO

      125    10641
PL6.E3A0      #001=Z8AC$MAKE_CONST File=Z8AC.:Z8A6TSI                            SAT 08/09/97 10:41 Page:24
      126    10642    1        RESULT$ -> CONST.NDSC    = TYPE_DESC.DESC.NDSC;

  10642 14 000236   000000 471500                    LDP1    0,,PR0
        14 000237   200005 722100                    LXL2    TYPE_DESC+1,,AUTO
        14 000240   100001 442100                    SXL2    1,,PR1

      127    10643    1        RESULT$ -> CONST.CONSTA  = MKCN.CONA;

  10643 14 000241   000000 471500                    LDP1    0,,PR0
        14 000242   040100 100400                    MLR     fill='040'O
        14 000243   000000 000004 8                  ADSC9   MKCN                     cn=0,n=4
        14 000244   100010 000010                    ADSC9   8,,PR1                   cn=0,n=8

      128    10644    1        GOTO FOUND_EXIT ;

  10644 14 000245   000536 710000 14                 TRA     FOUND_EXIT

      129    10645
      130    10646        %EJECT;
PL6.E3A0      #001=Z8AC$MAKE_CONST File=Z8AC.:Z8A6TSI                            SAT 08/09/97 10:41 Page:25
      131    10647    1   Z8AC$MAKE_CONST_O : ENTRY(RESULT$);

  10647 14 000246   000000 700200 xent  Z8AC$MAKE_C* TSX0  ! X66_AUTO_1
        14 000247   000014 000001                    ZERO    12,1

      132    10648
      133    10649             %NEW_CONST(@ST$          = RESULT$,
      134    10650                        @TYPE         = %TYO );

  10654 14 000250   000002 236000 2                  LDQ     ST_+2
        14 000251   000013 036007                    ADLQ    11,DL
        14 000252   000003 116000 2                  CMPQ    ST_+3
        14 000253   000264 604000 14                 TMI     s:10656

  10655 14 000254   000002 236000 15                 LDQ     2
        14 000255   200012 756100                    STQ     HASH+2,,AUTO
        14 000256   200012 630500                    EPPR0   HASH+2,,AUTO
        14 000257   200013 450500                    STP0    HASH+3,,AUTO
        14 000260   200013 630500                    EPPR0   HASH+3,,AUTO
        14 000261   000000 631400 15                 EPPR1   0
        14 000262   000000 701000 xent               TSX1    Z8AR$RESERVER
        14 000263   000000 011000                    NOP     0

  10656 14 000264   000002 236000 2                  LDQ     ST_+2
        14 000265   000022 736000                    QLS     18
        14 000266   000001 036000 2                  ADLQ    ST_+1
        14 000267   200003 470500                    LDP0    @RESULT$,,AUTO
        14 000270   000000 756100                    STQ     0,,PR0

  10657 14 000271   000013 236007                    LDQ     11,DL
        14 000272   000002 056000 2                  ASQ     ST_+2

  10660 14 000273   000000 471500                    LDP1    0,,PR0
        14 000274   000767 220003                    LDX0    503,DU
        14 000275   100000 740100                    STX0    0,,PR1

  10661 14 000276   000000 471500                    LDP1    0,,PR0
PL6.E3A0      #001=Z8AC$MAKE_CONST File=Z8AC.:Z8A6TSI                            SAT 08/09/97 10:41 Page:26
        14 000277   001000 236007                    LDQ     512,DL
        14 000300   100000 552110                    STBQ    0,'10'O,PR1

  10662 14 000301   000000 471500                    LDP1    0,,PR0
        14 000302   000126 236000 xsym               LDQ     O1COM+86
        14 000303   100000 552104                    STBQ    0,'04'O,PR1

  10663 14 000304   000000 471500                    LDP1    0,,PR0
        14 000305   000003 221003                    LDX1    3,DU
        14 000306   100002 741100                    STX1    2,,PR1

  10664 14 000307   000000 471500                    LDP1    0,,PR0
        14 000310   100003 450100                    STZ     3,,PR1

  10665 14 000311   000000 471500                    LDP1    0,,PR0
        14 000312   000001 236000 15                 LDQ     1
        14 000313   100004 756100                    STQ     4,,PR1

  10666 14 000314   000000 471500                    LDP1    0,,PR0
        14 000315   100005 756100                    STQ     5,,PR1

  10667 14 000316   000000 471500                    LDP1    0,,PR0
        14 000317   100006 756100                    STQ     6,,PR1

      135    10691
      136    10692             %PACK_NDSC (@DESC        = TYPE_DESC.DESC,
      137    10693                         @SIGN        = %TRAILING_SIGN,
      138    10694                         @TN          = %NDSC9,
      139    10695                         @LENGTH      = 1,
      140    10696                         @TYPE        = %TYO);

  10701 14 000320   000000 222003                    LDX2    0,DU
        14 000321   200005 742100                    STX2    TYPE_DESC+1,,AUTO

  10702 14 000322   000003 236000 15                 LDQ     3
        14 000323   200005 356100                    ANSQ    TYPE_DESC+1,,AUTO

PL6.E3A0      #001=Z8AC$MAKE_CONST File=Z8AC.:Z8A6TSI                            SAT 08/09/97 10:41 Page:27
  10703 14 000324   000004 236000 15                 LDQ     4
        14 000325   200005 356100                    ANSQ    TYPE_DESC+1,,AUTO

  10704 14 000326   200005 236100                    LDQ     TYPE_DESC+1,,AUTO
        14 000327   000005 376000 15                 ANQ     5
        14 000330   020000 276007                    ORQ     8192,DL
        14 000331   200005 756100                    STQ     TYPE_DESC+1,,AUTO

  10705 14 000332   000000 236003                    LDQ     0,DU
        14 000333   200005 752102                    STCQ    TYPE_DESC+1,'02'O,AUTO

  10706 14 000334   000002 235007                    LDA     2,DL
        14 000335   000004 115007                    CMPA    4,DL
        14 000336   000340 602005 14                 TNC     s:10706+4,AL
        14 000337   000354 710000 14                 TRA     s:10746
        14 000340   000352 710000 14                 TRA     s:10737
        14 000341   000347 710000 14                 TRA     s:10711
        14 000342   000347 710000 14                 TRA     s:10711
        14 000343   000344 710000 14                 TRA     s:10708

  10708 14 000344   000001 236007                    LDQ     1,DL
        14 000345   200005 752101                    STCQ    TYPE_DESC+1,'01'O,AUTO
        14 000346   000354 710000 14                 TRA     s:10746

  10711 14 000347   000001 236007                    LDQ     1,DL
        14 000350   200005 752101                    STCQ    TYPE_DESC+1,'01'O,AUTO
        14 000351   000354 710000 14                 TRA     s:10746

  10737 14 000352   000003 236007                    LDQ     3,DL
        14 000353   200005 752101                    STCQ    TYPE_DESC+1,'01'O,AUTO

      141    10745
      142    10746    1        RESULT$ -> CONST.NDSC    = TYPE_DESC.DESC.NDSC;

  10746 14 000354   000000 471500                    LDP1    0,,PR0
        14 000355   200005 723100                    LXL3    TYPE_DESC+1,,AUTO
        14 000356   100001 443100                    SXL3    1,,PR1
PL6.E3A0      #001=Z8AC$MAKE_CONST File=Z8AC.:Z8A6TSI                            SAT 08/09/97 10:41 Page:28

      143    10747    1        RESULT$ -> CONST.CONSTA  = MKCN.CONA;

  10747 14 000357   000000 471500                    LDP1    0,,PR0
        14 000360   040100 100400                    MLR     fill='040'O
        14 000361   000000 000004 8                  ADSC9   MKCN                     cn=0,n=4
        14 000362   100010 000010                    ADSC9   8,,PR1                   cn=0,n=8

      144    10748    1        GOTO FOUND_EXIT;

  10748 14 000363   000536 710000 14                 TRA     FOUND_EXIT

      145    10749        %EJECT;
PL6.E3A0      #001=Z8AC$MAKE_CONST File=Z8AC.:Z8A6TSI                            SAT 08/09/97 10:41 Page:29
      146    10750    1   Z8AC$MAKE_CONST_R: ENTRY (RESULT$) ;

  10750 14 000364   000000 700200 xent  Z8AC$MAKE_C* TSX0  ! X66_AUTO_1
        14 000365   000014 000001                    ZERO    12,1

      147    10751
      148    10752        /*D*       NAME: Z8AC$MAKE_CONST_R
      149    10753
      150    10754            DESCRIPTION: Makes a single precision floating binary
      151    10755                         constant and puts the result in RESULT$.
      152    10756                         MKCN must be set before making call.
      153    10757
      154    10758        */
      155    10759             %NEW_CONST( @ST$        = RESULT$ ,
      156    10760                         @TYPE       = %TYR );

  10764 14 000366   000002 236000 2                  LDQ     ST_+2
        14 000367   000013 036007                    ADLQ    11,DL
        14 000370   000003 116000 2                  CMPQ    ST_+3
        14 000371   000402 604000 14                 TMI     s:10766

  10765 14 000372   000002 236000 15                 LDQ     2
        14 000373   200012 756100                    STQ     HASH+2,,AUTO
        14 000374   200012 630500                    EPPR0   HASH+2,,AUTO
        14 000375   200013 450500                    STP0    HASH+3,,AUTO
        14 000376   200013 630500                    EPPR0   HASH+3,,AUTO
        14 000377   000000 631400 15                 EPPR1   0
        14 000400   000000 701000 xent               TSX1    Z8AR$RESERVER
        14 000401   000000 011000                    NOP     0

  10766 14 000402   000002 236000 2                  LDQ     ST_+2
        14 000403   000022 736000                    QLS     18
        14 000404   000001 036000 2                  ADLQ    ST_+1
        14 000405   200003 470500                    LDP0    @RESULT$,,AUTO
        14 000406   000000 756100                    STQ     0,,PR0

  10767 14 000407   000013 236007                    LDQ     11,DL
PL6.E3A0      #001=Z8AC$MAKE_CONST File=Z8AC.:Z8A6TSI                            SAT 08/09/97 10:41 Page:30
        14 000410   000002 056000 2                  ASQ     ST_+2

  10770 14 000411   000000 471500                    LDP1    0,,PR0
        14 000412   000767 220003                    LDX0    503,DU
        14 000413   100000 740100                    STX0    0,,PR1

  10771 14 000414   000000 471500                    LDP1    0,,PR0
        14 000415   001000 236007                    LDQ     512,DL
        14 000416   100000 552110                    STBQ    0,'10'O,PR1

  10772 14 000417   000000 471500                    LDP1    0,,PR0
        14 000420   000126 236000 xsym               LDQ     O1COM+86
        14 000421   100000 552104                    STBQ    0,'04'O,PR1

  10773 14 000422   000000 471500                    LDP1    0,,PR0
        14 000423   000004 221003                    LDX1    4,DU
        14 000424   100002 741100                    STX1    2,,PR1

  10774 14 000425   000000 471500                    LDP1    0,,PR0
        14 000426   100003 450100                    STZ     3,,PR1

  10775 14 000427   000000 471500                    LDP1    0,,PR0
        14 000430   000001 236000 15                 LDQ     1
        14 000431   100004 756100                    STQ     4,,PR1

  10776 14 000432   000000 471500                    LDP1    0,,PR0
        14 000433   100005 756100                    STQ     5,,PR1

  10777 14 000434   000000 471500                    LDP1    0,,PR0
        14 000435   100006 756100                    STQ     6,,PR1

      157    10801
      158    10802             %BUILD_BINARY_DESC( @DESC      = TYPE_DESC.DESC ,
      159    10803                                 @LENGTH    = %TYR_LENGTH );

  10807 14 000436   200005 450100                    STZ     TYPE_DESC+1,,AUTO

PL6.E3A0      #001=Z8AC$MAKE_CONST File=Z8AC.:Z8A6TSI                            SAT 08/09/97 10:41 Page:31
  10808 14 000437   000004 236007                    LDQ     4,DL
        14 000440   200005 752101                    STCQ    TYPE_DESC+1,'01'O,AUTO

      160    10811
      161    10812    1        RESULT$ -> CONST.NDSC = TYPE_DESC.DESC.NDSC;

  10812 14 000441   000000 471500                    LDP1    0,,PR0
        14 000442   200005 722100                    LXL2    TYPE_DESC+1,,AUTO
        14 000443   100001 442100                    SXL2    1,,PR1

      162    10813    1        RESULT$ -> CONST.CONSTI.WORD1 = MKCN.CON;

  10813 14 000444   000000 471500                    LDP1    0,,PR0
        14 000445   000000 235000 8                  LDA     MKCN
        14 000446   100010 755100                    STA     8,,PR1

      163    10814    1          GOTO FOUND_EXIT ;

  10814 14 000447   000536 710000 14                 TRA     FOUND_EXIT

      164    10815
      165    10816        %EJECT;
PL6.E3A0      #001=Z8AC$MAKE_CONST File=Z8AC.:Z8A6TSI                            SAT 08/09/97 10:41 Page:32
      166    10817    1   Z8AC$MAKE_CONST_Q: ENTRY (RESULT$) ;

  10817 14 000450   000000 700200 xent  Z8AC$MAKE_C* TSX0  ! X66_AUTO_1
        14 000451   000014 000001                    ZERO    12,1

      167    10818
      168    10819        /*D*       NAME: Z8AC$MAKE_CONST_Q
      169    10820
      170    10821            DESCRIPTION: Makes a double precision floating binary
      171    10822                         constant and puts the result in RESULT$.
      172    10823                         MKCN must be set before making call.
      173    10824
      174    10825        */
      175    10826             %NEW_CONST( @ST$        = RESULT$ ,
      176    10827                         @TYPE       = %TYQ );

  10831 14 000452   000002 236000 2                  LDQ     ST_+2
        14 000453   000013 036007                    ADLQ    11,DL
        14 000454   000003 116000 2                  CMPQ    ST_+3
        14 000455   000466 604000 14                 TMI     s:10833

  10832 14 000456   000002 236000 15                 LDQ     2
        14 000457   200012 756100                    STQ     HASH+2,,AUTO
        14 000460   200012 630500                    EPPR0   HASH+2,,AUTO
        14 000461   200013 450500                    STP0    HASH+3,,AUTO
        14 000462   200013 630500                    EPPR0   HASH+3,,AUTO
        14 000463   000000 631400 15                 EPPR1   0
        14 000464   000000 701000 xent               TSX1    Z8AR$RESERVER
        14 000465   000000 011000                    NOP     0

  10833 14 000466   000002 236000 2                  LDQ     ST_+2
        14 000467   000022 736000                    QLS     18
        14 000470   000001 036000 2                  ADLQ    ST_+1
        14 000471   200003 470500                    LDP0    @RESULT$,,AUTO
        14 000472   000000 756100                    STQ     0,,PR0

  10834 14 000473   000013 236007                    LDQ     11,DL
PL6.E3A0      #001=Z8AC$MAKE_CONST File=Z8AC.:Z8A6TSI                            SAT 08/09/97 10:41 Page:33
        14 000474   000002 056000 2                  ASQ     ST_+2

  10837 14 000475   000000 471500                    LDP1    0,,PR0
        14 000476   000767 220003                    LDX0    503,DU
        14 000477   100000 740100                    STX0    0,,PR1

  10838 14 000500   000000 471500                    LDP1    0,,PR0
        14 000501   001000 236007                    LDQ     512,DL
        14 000502   100000 552110                    STBQ    0,'10'O,PR1

  10839 14 000503   000000 471500                    LDP1    0,,PR0
        14 000504   000126 236000 xsym               LDQ     O1COM+86
        14 000505   100000 552104                    STBQ    0,'04'O,PR1

  10840 14 000506   000000 471500                    LDP1    0,,PR0
        14 000507   000005 221003                    LDX1    5,DU
        14 000510   100002 741100                    STX1    2,,PR1

  10841 14 000511   000000 471500                    LDP1    0,,PR0
        14 000512   100003 450100                    STZ     3,,PR1

  10842 14 000513   000000 471500                    LDP1    0,,PR0
        14 000514   000001 236000 15                 LDQ     1
        14 000515   100004 756100                    STQ     4,,PR1

  10843 14 000516   000000 471500                    LDP1    0,,PR0
        14 000517   100005 756100                    STQ     5,,PR1

  10844 14 000520   000000 471500                    LDP1    0,,PR0
        14 000521   100006 756100                    STQ     6,,PR1

      177    10868
      178    10869             %BUILD_BINARY_DESC( @DESC      = TYPE_DESC.DESC ,
      179    10870                                 @LENGTH    = %TYQ_LENGTH );

  10874 14 000522   200005 450100                    STZ     TYPE_DESC+1,,AUTO

PL6.E3A0      #001=Z8AC$MAKE_CONST File=Z8AC.:Z8A6TSI                            SAT 08/09/97 10:41 Page:34
  10875 14 000523   000010 236007                    LDQ     8,DL
        14 000524   200005 752101                    STCQ    TYPE_DESC+1,'01'O,AUTO

      180    10878
      181    10879    1        RESULT$ -> CONST.NDSC = TYPE_DESC.DESC.NDSC;

  10879 14 000525   000000 471500                    LDP1    0,,PR0
        14 000526   200005 722100                    LXL2    TYPE_DESC+1,,AUTO
        14 000527   100001 442100                    SXL2    1,,PR1

      182    10880    1        RESULT$ -> CONST.CONSTI.WORD1 = MKCN.CON;

  10880 14 000530   000000 471500                    LDP1    0,,PR0
        14 000531   000000 235000 8                  LDA     MKCN
        14 000532   100010 755100                    STA     8,,PR1

      183    10881    1        RESULT$ -> CONST.CONSTI.WORD2 = MKCN.WORD2;

  10881 14 000533   000000 471500                    LDP1    0,,PR0
        14 000534   000001 235000 8                  LDA     MKCN+1
        14 000535   100011 755100                    STA     9,,PR1

      184    10882            /* GOTO FOUND_EXIT ; */
      185    10883
      186    10884        %EJECT;
PL6.E3A0      #001=Z8AC$MAKE_CONST File=Z8AC.:Z8A6TSI                            SAT 08/09/97 10:41 Page:35
      187    10885
      188    10886    1   FOUND_EXIT:
      189    10887
      190    10888    1          SRCH.ID  = %TRIAD ;

  10888 14 000536   000015 235007       FOUND_EXIT   LDA     13,DL
        14 000537   000000 755000 7                  STA     SRCH

      191    10889    1          SRCH.LOP = RESULT$ ;

  10889 14 000540   200003 470500                    LDP0    @RESULT$,,AUTO
        14 000541   000000 236100                    LDQ     0,,PR0
        14 000542   000001 756000 7                  STQ     SRCH+1

      192    10890    1          SRCH.ROP = ADDR(NIL) ;

  10890 14 000543   000001 236000 15                 LDQ     1
        14 000544   000002 756000 7                  STQ     SRCH+2

      193    10891    1          CALL Z8AS$SR_ETT (RESULT$) ;

  10891 14 000545   200003 630500                    EPPR0   @RESULT$,,AUTO
        14 000546   000000 631400 15                 EPPR1   0
        14 000547   000000 701000 xent               TSX1    Z8AS$SR_ETT
        14 000550   000000 011000                    NOP     0

      194    10892
      195    10893    1   END Z8AC$MAKE_CONST ;

  10893 14 000551   000000 702200 xent               TSX2  ! X66_ARET
      196    10894        %EOD;

PL6.E3A0      #001=Z8AC$MAKE_CONST File=Z8AC.:Z8A6TSI                            SAT 08/09/97 10:41 Page:36
--  Include file information  --

   Z8E_O1COM.:Z8A6TOU  cannot be made into a system file and is referenced.
   Z8A_LEX_SYMB.:Z8A6TOU  cannot be made into a system file and is referenced.
   Z8E_STACKS.:Z8A6TOU  cannot be made into a system file and is referenced.
   Z8A_COMCOM.:Z8A6TOU  cannot be made into a system file and is referenced.
   Z8A_MKCN.:Z8A6TOU  cannot be made into a system file and is referenced.
   Z8A_SRCH.:Z8A6TOU  cannot be made into a system file and is referenced.
   Z8A_ETT.:Z8A6TOU  cannot be made into a system file and is referenced.
   Z8A_TYPES.:Z8A6TOU  is referenced.
   Z8A_ST.:Z8A6TOU  cannot be made into a system file and is referenced.
   Z9A_FLAGS.:Z8A6TOU  is referenced.
   X8A_COM_MACS.:X8A6TOU  is referenced.
   Z8A_NAMES.:Z8A6TOU  is referenced.
   Z8A_SUPP_MAC.:Z8A6TOU  is referenced.
   Z8A_DEFC.:Z8A6TOU  cannot be made into a system file and is referenced.
      No diagnostics issued in procedure Z8AC$MAKE_CONST.
PL6.E3A0      #001=Z8AC$MAKE_CONST File=Z8AC.:Z8A6TSI                            SAT 08/09/97 10:41 Page:37

 **** Variables and constants ****

  ****  Section 000 LblCom ITERATION

  ****  Scalars and arrays  ****
OctLoc.c.b A Datatyp(siz) R M Lvl/name                 OctLoc.c.b A Datatyp(siz) R M Lvl/name

     0-0-0/w SBIN              1 ITERATION

  ****  Section 001 LblCom ST$

  ****  Scalars and arrays  ****
OctLoc.c.b A Datatyp(siz) R M Lvl/name                 OctLoc.c.b A Datatyp(siz) R M Lvl/name

     0-0-0/w PTR         r     1 ST$

  ****  Section 002 LblCom ST_

  ****  Scalars and arrays  ****
OctLoc.c.b A Datatyp(siz) R M Lvl/name                 OctLoc.c.b A Datatyp(siz) R M Lvl/name

     0-0-0/w STRC(180)   r     1 ST_

  ****  Section 003 LblCom ETT$

  ****  Scalars and arrays  ****
OctLoc.c.b A Datatyp(siz) R M Lvl/name                 OctLoc.c.b A Datatyp(siz) R M Lvl/name

     0-0-0/w PTR         r     1 ETT$

  ****  Section 004 LblCom HEAD_ETT$

  ****  Scalars and arrays  ****
OctLoc.c.b A Datatyp(siz) R M Lvl/name                 OctLoc.c.b A Datatyp(siz) R M Lvl/name

     0-0-0/w PTR               1 HEAD_ETT$

PL6.E3A0      #001=Z8AC$MAKE_CONST File=Z8AC.:Z8A6TSI                            SAT 08/09/97 10:41 Page:38
  ****  Section 005 LblCom ETT_BUCKETS

  ****  Scalars and arrays  ****
OctLoc.c.b A Datatyp(siz) R M Lvl/name                 OctLoc.c.b A Datatyp(siz) R M Lvl/name

     0-0-0/w PTR               1 ETT_BUCKETS(0:511)

  ****  Section 006 LblCom ETT_

  ****  Scalars and arrays  ****
OctLoc.c.b A Datatyp(siz) R M Lvl/name                 OctLoc.c.b A Datatyp(siz) R M Lvl/name

     0-0-0/w STRC(180)         1 ETT_

  ****  Section 007 LblCom SRCH

  ****  Scalars and arrays  ****
OctLoc.c.b A Datatyp(siz) R M Lvl/name                 OctLoc.c.b A Datatyp(siz) R M Lvl/name

     0-0-0/w STRC(108)   r     1 SRCH

  ****  Section 008 LblCom MKCN

  ****  Scalars and arrays  ****
OctLoc.c.b A Datatyp(siz) R M Lvl/name                 OctLoc.c.b A Datatyp(siz) R M Lvl/name

     0-0-0/w STRC(72)    r     1 MKCN

  ****  Section 009 LblCom LEX_SYMBOL

  ****  Scalars and arrays  ****
OctLoc.c.b A Datatyp(siz) R M Lvl/name                 OctLoc.c.b A Datatyp(siz) R M Lvl/name

     0-0-0/w STRC(3240)  r     1 LEX_SYMBOL                 0-0-0/w STRC(3240)        1 LEX_SYMBOL_WORDS

  ****  Section 010 LblCom CURRENT_LEX_SYMBOL$

PL6.E3A0      #001=Z8AC$MAKE_CONST File=Z8AC.:Z8A6TSI                            SAT 08/09/97 10:41 Page:39
  ****  Scalars and arrays  ****
OctLoc.c.b A Datatyp(siz) R M Lvl/name                 OctLoc.c.b A Datatyp(siz) R M Lvl/name

     0-0-0/w PTR         r     1 CURRENT_LEX_SYMBOL$

  ****  Section 011 LblCom TEMP_LEX_SYMBOL

  ****  Scalars and arrays  ****
OctLoc.c.b A Datatyp(siz) R M Lvl/name                 OctLoc.c.b A Datatyp(siz) R M Lvl/name

     0-0-0/w STRC(3240)        1 TEMP_LEX_SYMBOL

  ****  Section 012 LblCom TEMP_LEX_SYMBOL2

  ****  Scalars and arrays  ****
OctLoc.c.b A Datatyp(siz) R M Lvl/name                 OctLoc.c.b A Datatyp(siz) R M Lvl/name

     0-0-0/w STRC(3240)        1 TEMP_LEX_SYMBOL2

  ****  Section 013  Data  Z8AC$MAKE_CONST

  ****  Scalars and arrays  ****
OctLoc.c.b A Datatyp(siz) R M Lvl/name                 OctLoc.c.b A Datatyp(siz) R M Lvl/name

     0-0-0/w PTR         r     1 I_C_BUCKETS(0:99)

  ****  Auto variables  ****

  ****  Scalars and arrays  ****
OctLoc.c.b A Datatyp(siz) R M Lvl/name                 OctLoc.c.b A Datatyp(siz) R M Lvl/name

     3-0-0/w PTR         r     1 @RESULT$                  10-0-0/w SBIN        r     1 HASH
    *0-0-0/w PTR         r     1 RESULT$                    4-0-0/w STRC(144)   r     1 TYPE_DESC

  ****  SYMREF variables  ****

  ****  Scalars and arrays  ****
PL6.E3A0      #001=Z8AC$MAKE_CONST File=Z8AC.:Z8A6TSI                            SAT 08/09/97 10:41 Page:40
OctLoc.c.b A Datatyp(siz) R M Lvl/name                 OctLoc.c.b A Datatyp(siz) R M Lvl/name

     0-0-0/d STRC(13248)       1 COMCOM
     0-0-0/w STRC(180)         1 HIER_STK(0:50)
     0-0-0/w SBIN              1 HIER_STK_PTR               0-0-0/d STRC(11580) r     1 O1COM
     0-0-0/w STRC(144)         1 PAGE_FORMAT                0-0-0/w STRC(153)         1 REP_STK(0:50)
     0-0-0/w SBIN              1 REP_STK_PTR

  ****  BASED and DCB variables  ****

  ****  Scalars and arrays  ****
OctLoc.c.b A Datatyp(siz) R M Lvl/name                 OctLoc.c.b A Datatyp(siz) R M Lvl/name

     0-0-0/w STRC(288)         1 ADD_STMT                   0-0-0/w STRC(396)         1 ALPHABET
     0-0-0/w STRC(396)         1 ARRAY                      0-0-0/w ASTR(324)   r     1 BASED_LEX_SYMBOL
     0-0-0/w STRC(360)         1 BASED_LEX_SYMBOL_WORDS
     0-0-0/w STRC(288)         1 BINARY_OP                  0-0-0/w STRC(396)         1 BLOCK
     0-0-0/w STRC(288)         1 CALL_STMT                  0-0-0/w STRC(396)         1 CD
     0-0-0/w CHAR(4096)        1 CHARS                      0-0-0/w STRC(396)         1 CLASS
     0-0-0/w STRC(288)         1 COMPUTE_STMT               0-0-0/w STRC(396)         1 CONDITION
     0-0-0/w STRC(396)   r     1 CONST                      0-0-0/w STRC(72)          1 CONT
     0-0-0/w STRC(396)         1 DB                         0-0-0/w STRC(396)         1 DCB_
     0-0-0/w STRC(288)         1 DEFERED_IDENTIFIER         0-0-0/w STRC(252)         1 DEFERED_ID_TREE
     0-0-0/w STRC(288)         1 DEFERED_QUAL_ID            0-0-0/w STRC(288)         1 DEFERED_SUM_CLAUSE
     0-0-0/w STRC(288)         1 DEFERED_SUM_CLAUSE_LIST
     0-0-0/w STRC(288)         1 DELETE_STMT                0-0-0/w STRC(288)         1 DIVIDE_STMT
     0-0-0/w STRC(396)         1 DML_ITEM                   0-0-0/w STRC(180)         1 ETT
     0-0-0/w STRC(396)         1 FD                         0-0-0/w STRC(288)         1 ILS_LIST
     0-0-0/w STRC(288)         1 INSPECT_1_STMT             0-0-0/w STRC(288)         1 INSPECT_2_STMT
     0-0-0/w STRC(288)         1 INSPECT_4_STMT             0-0-0/w STRC(396)         1 INTDEF
     0-0-0/w STRC(396)         1 LABEL                      0-0-0/w STRC(288)         1 LA_ITEM
     0-0-0/w STRC(504)         1 LX_CD_INPUT                0-0-0/w STRC(324)         1 LX_CD_I_O
     0-0-0/w STRC(396)         1 LX_CD_OUTPUT               0-0-0/w STRC(288)         1 LX_ETT_ITEM
     0-0-0/w STRC(288)         1 LX_ITEM                    0-0-0/w STRC(288)         1 LX_LARGE
     0-0-0/w STRC(288)         1 LX_LIST                    0-0-0/w STRC(1224)        1 LX_REC_DECL
     0-0-0/w STRC(864)         1 LX_REPORT_REC              0-0-0/w STRC(288)         1 LX_TERMINAL
     0-0-0/w STRC(396)         1 MNEMONIC                   0-0-0/w STRC(288)         1 MULTIPLY_STMT
PL6.E3A0      #001=Z8AC$MAKE_CONST File=Z8AC.:Z8A6TSI                            SAT 08/09/97 10:41 Page:41
     0-0-0/w STRC(36864)       1 PAGE                       0-0-0/w STRC(396)         1 PARA
     0-0-0/w STRC(396)         1 PROC_                      0-0-0/w STRC(396)         1 PROC_DEF
     0-0-0/w STRC(396)         1 RD                         0-0-0/w STRC(288)         1 READ_STMT
     0-0-0/w STRC(288)         1 REWRITE_STMT               0-0-0/w STRC(396)         1 SCALAR
     0-0-0/w STRC(396)         1 SD                         0-0-0/w STRC(396)         1 SECTION
     0-0-0/w STRC(396)         1 SEGMENT                    0-0-0/w STRC(396)   r     1 ST
     0-0-0/w STRC(288)         1 START_STMT                 0-0-0/w STRC(252)         1 STRING_STMT
     0-0-0/w STRC(288)         1 SUBTRACT_STMT              0-0-0/w STRC(396)         1 SWITCH
     0-0-0/w STRC(396)         1 SYMBOLIC_CHAR              0-0-0/w STRC(396)         1 SYMDEF_
     0-0-0/w STRC(396)         1 SYMREF_                    0-0-0/w STRC(396)         1 TEMP
     0-0-0/w STRC(288)         1 UNARY_OP                   0-0-0/w STRC(288)         1 UNSTRING_STMT
     0-0-0/w STRC(396)         1 VARIABLE                   0-0-0/w STRC(288)         1 WRITE_STMT


   Procedure Z8AC$MAKE_CONST requires 362 words for executable code.
   Procedure Z8AC$MAKE_CONST requires 12 words of local(AUTO) storage.

PL6.E3A0      #002=Z8AC$LX_ETT_ITEM_TYI_CONST File=Z8AC.:Z8A6TSI                 SAT 08/09/97 10:44 Page:42
      197        1        /*T***********************************************************/
      198        2        /*T*                                                         */
      199        3        /*T* Copyright (c) Bull HN Information Systems Inc., 1997    */
      200        4        /*T*                                                         */
      201        5        /*T***********************************************************/
      202        6        Z8AC$LX_ETT_ITEM_TYI_CONST:PROC(CONST, RETURN$);
      203        7
      204        8    1        DCL CONST         SBIN WORD;
      205        9    1        DCL RETURN$       PTR;
      206       10
      207       11    1        DCL LOCAL$        PTR;
      208       12
      209       13
      210       14             %EQU PHASE = 1;
      211       15             %INCLUDE Z8A_DEFC;
      212       83             %INCLUDE Z8A_SUPP_MAC;
      213     2483             %INCLUDE Z8E_STACKS;
      214     4749             %INCLUDE Z8A_TYPES;
      215     4923             %INCLUDE Z8A_MKCN;
      216     4940             %INCLUDE Z8A_COMCOM;
      217     5590
      218     5591    1        DCL Z8AC$MAKE_CONST       ENTRY(1);
      219     5592
      220     5593
      221     5594    1        MKCN.CON = CONST;
      222     5595    1        CALL Z8AC$MAKE_CONST(LOCAL$);
      223     5596
      224     5597             %INIT_LX_ETT_ITEM( @POINTER    = RETURN$ ,
      225     5598                                @ETT$       = LOCAL$ ,
      226     5599                                @TYPE       = %TYI );
      227     5621
      228     5622
      229     5623    1   END Z8AC$LX_ETT_ITEM_TYI_CONST;
      230     5624        %EOD;

PL6.E3A0      #002=Z8AC$LX_ETT_ITEM_TYI_CONST File=Z8AC.:Z8A6TSI                 SAT 08/09/97 10:44 Page:43
--  Include file information  --

   Z8A_COMCOM.:Z8A6TOU  cannot be made into a system file and is referenced.
   Z8A_MKCN.:Z8A6TOU  cannot be made into a system file and is referenced.
   Z8A_TYPES.:Z8A6TOU  is referenced.
   Z8A_LEX_SYMB.:Z8A6TOU  cannot be made into a system file and is referenced.
   Z8E_STACKS.:Z8A6TOU  cannot be made into a system file and is referenced.
   X8A_COM_MACS.:X8A6TOU  is referenced.
   Z8A_NAMES.:Z8A6TOU  is referenced.
   Z8A_SUPP_MAC.:Z8A6TOU  is referenced.
   Z8A_DEFC.:Z8A6TOU  cannot be made into a system file and is referenced.
      No diagnostics issued in procedure Z8AC$LX_ETT_ITEM_TYI_CONST.

   Procedure Z8AC$LX_ETT_ITEM_TYI_CONST requires 37 words for executable code.
   Procedure Z8AC$LX_ETT_ITEM_TYI_CONST requires 8 words of local(AUTO) storage.

PL6.E3A0      #002=Z8AC$LX_ETT_ITEM_TYI_CONST File=Z8AC.:Z8A6TSI                 SAT 08/09/97 10:44 Page:44

 Object Unit name= Z8AC$LX_ETT_ITEM_TYI_CONST                 File name= Z8AC.:Z8A6TOU
 UTS= AUG 09 '97 10:44:45.08 SAT                              Compiler= PL-6/E31         Sev=      00
 SharedLib= :SHARED_SYSTEM                                    Alt SharedLib=


    ****  Control sections  ****

 Sect   Type Bound  Init  Size OctSiz  Section name(segment info)
    0  LblCom even  none     1      1  ITERATION
    1  LblCom even  none    90    132  LEX_SYMBOL
    2  LblCom even  none     1      1  CURRENT_LEX_SYMBOL$
    3  LblCom even  none    90    132  TEMP_LEX_SYMBOL
    4  LblCom even  none    90    132  TEMP_LEX_SYMBOL2
    5  LblCom even  none     2      2  MKCN
    6   Proc  even  none    37     45  Z8AC$LX_ETT_ITEM_TYI_CONST
    7  RoData even  none     2      2  Z8AC$LX_ETT_ITEM_TYI_CONST

    ****  Entry defs  ****

                              Check   Calling
                             calling  sequence
  Sect OctLoc Primary Altret sequence   type   Parms  Name
     6      0   yes            yes      Std        2  Z8AC$LX_ETT_ITEM_TYI_CONST

  ****  Entry refs  ****

         Check        Calling
        calling       sequence
Altret sequence SRef   type   Args  Name
         yes           Std       1 Z8AC$MAKE_CONST
                       nStd      0 X66_AUTO_2
                       nStd      0 X66_ARET
PL6.E3A0      #002=Z8AC$LX_ETT_ITEM_TYI_CONST File=Z8AC.:Z8A6TSI                 SAT 08/09/97 10:44 Page:45

  ****  Data refs  ****

  Flags:  r = read only, s = secondary
Flgs Name                             Flgs Name                             Flgs Name
     COMCOM

  ****  Segment refs  ****

  Flags:  r = read only, s = secondary
Flgs Name                             Flgs Name                             Flgs Name
     ISSID                                 NULLSID
PL6.E3A0      #002=Z8AC$LX_ETT_ITEM_TYI_CONST File=Z8AC.:Z8A6TSI                 SAT 08/09/97 10:44 Page:46


      197        1        /*T***********************************************************/
      198        2        /*T*                                                         */
      199        3        /*T* Copyright (c) Bull HN Information Systems Inc., 1997    */
      200        4        /*T*                                                         */
      201        5        /*T***********************************************************/
      202        6        Z8AC$LX_ETT_ITEM_TYI_CONST:PROC(CONST, RETURN$);

      6  6 000000   000000 700200 xent  Z8AC$LX_ETT* TSX0  ! X66_AUTO_2
         6 000001   000010 000002                    ZERO    8,2

      203        7
      204        8    1        DCL CONST         SBIN WORD;
      205        9    1        DCL RETURN$       PTR;
      206       10
      207       11    1        DCL LOCAL$        PTR;
      208       12
      209       13
      210       14             %EQU PHASE = 1;
      211       15             %INCLUDE Z8A_DEFC;
      212       83             %INCLUDE Z8A_SUPP_MAC;
      213     2483             %INCLUDE Z8E_STACKS;
      214     4749             %INCLUDE Z8A_TYPES;
      215     4923             %INCLUDE Z8A_MKCN;
      216     4940             %INCLUDE Z8A_COMCOM;
      217     5590
      218     5591    1        DCL Z8AC$MAKE_CONST       ENTRY(1);
      219     5592
      220     5593
      221     5594    1        MKCN.CON = CONST;

   5594  6 000002   200003 470500                    LDP0    @CONST,,AUTO
         6 000003   000000 235100                    LDA     0,,PR0
         6 000004   000000 755000 5                  STA     MKCN

      222     5595    1        CALL Z8AC$MAKE_CONST(LOCAL$);

PL6.E3A0      #002=Z8AC$LX_ETT_ITEM_TYI_CONST File=Z8AC.:Z8A6TSI                 SAT 08/09/97 10:44 Page:47
   5595  6 000005   200005 631500                    EPPR1   LOCAL$,,AUTO
         6 000006   200006 451500                    STP1    LOCAL$+1,,AUTO
         6 000007   200006 630500                    EPPR0   LOCAL$+1,,AUTO
         6 000010   000000 631400 7                  EPPR1   0
         6 000011   000000 701000 xent               TSX1    Z8AC$MAKE_CONST
         6 000012   000000 011000                    NOP     0

      223     5596
      224     5597             %INIT_LX_ETT_ITEM( @POINTER    = RETURN$ ,
      225     5598                                @ETT$       = LOCAL$ ,
      226     5599                                @TYPE       = %TYI );

   5601  6 000013   200004 470500                    LDP0    @RETURN$,,AUTO
         6 000014   000000 471500                    LDP1    0,,PR0
         6 000015   000004 220003                    LDX0    4,DU
         6 000016   100000 740100                    STX0    0,,PR1

   5602  6 000017   000000 471500                    LDP1    0,,PR0
         6 000020   000000 221003                    LDX1    0,DU
         6 000021   100000 441100                    SXL1    0,,PR1

   5603  6 000022   000000 471500                    LDP1    0,,PR0
         6 000023   000001 235007                    LDA     1,DL
         6 000024   100004 755100                    STA     4,,PR1

   5604  6 000025   000000 471500                    LDP1    0,,PR0
         6 000026   000001 236000 7                  LDQ     1
         6 000027   100007 756100                    STQ     7,,PR1

   5605  6 000030   000000 471500                    LDP1    0,,PR0
         6 000031   200005 236100                    LDQ     LOCAL$,,AUTO
         6 000032   100001 756100                    STQ     1,,PR1

   5606  6 000033   000000 471500                    LDP1    0,,PR0
         6 000034   000001 236000 7                  LDQ     1
         6 000035   100002 756100                    STQ     2,,PR1

PL6.E3A0      #002=Z8AC$LX_ETT_ITEM_TYI_CONST File=Z8AC.:Z8A6TSI                 SAT 08/09/97 10:44 Page:48
   5608  6 000036   000000 471500                    LDP1    0,,PR0
         6 000037   000133 235000 xsym               LDA     COMCOM+91
         6 000040   100005 755100                    STA     5,,PR1

   5609  6 000041   000000 471500                    LDP1    0,,PR0
         6 000042   000134 235000 xsym               LDA     COMCOM+92
         6 000043   100006 755100                    STA     6,,PR1

      227     5621
      228     5622
      229     5623    1   END Z8AC$LX_ETT_ITEM_TYI_CONST;

   5623  6 000044   000000 702200 xent               TSX2  ! X66_ARET
      230     5624        %EOD;

PL6.E3A0      #002=Z8AC$LX_ETT_ITEM_TYI_CONST File=Z8AC.:Z8A6TSI                 SAT 08/09/97 10:44 Page:49
--  Include file information  --

   Z8A_COMCOM.:Z8A6TOU  cannot be made into a system file and is referenced.
   Z8A_MKCN.:Z8A6TOU  cannot be made into a system file and is referenced.
   Z8A_TYPES.:Z8A6TOU  is referenced.
   Z8A_LEX_SYMB.:Z8A6TOU  cannot be made into a system file and is referenced.
   Z8E_STACKS.:Z8A6TOU  cannot be made into a system file and is referenced.
   X8A_COM_MACS.:X8A6TOU  is referenced.
   Z8A_NAMES.:Z8A6TOU  is referenced.
   Z8A_SUPP_MAC.:Z8A6TOU  is referenced.
   Z8A_DEFC.:Z8A6TOU  cannot be made into a system file and is referenced.
      No diagnostics issued in procedure Z8AC$LX_ETT_ITEM_TYI_CONST.
PL6.E3A0      #002=Z8AC$LX_ETT_ITEM_TYI_CONST File=Z8AC.:Z8A6TSI                 SAT 08/09/97 10:44 Page:50

 **** Variables and constants ****

  ****  Section 000 LblCom ITERATION

  ****  Scalars and arrays  ****
OctLoc.c.b A Datatyp(siz) R M Lvl/name                 OctLoc.c.b A Datatyp(siz) R M Lvl/name

     0-0-0/w SBIN              1 ITERATION

  ****  Section 001 LblCom LEX_SYMBOL

  ****  Scalars and arrays  ****
OctLoc.c.b A Datatyp(siz) R M Lvl/name                 OctLoc.c.b A Datatyp(siz) R M Lvl/name

     0-0-0/w STRC(3240)  r     1 LEX_SYMBOL                 0-0-0/w STRC(3240)        1 LEX_SYMBOL_WORDS

  ****  Section 002 LblCom CURRENT_LEX_SYMBOL$

  ****  Scalars and arrays  ****
OctLoc.c.b A Datatyp(siz) R M Lvl/name                 OctLoc.c.b A Datatyp(siz) R M Lvl/name

     0-0-0/w PTR         r     1 CURRENT_LEX_SYMBOL$

  ****  Section 003 LblCom TEMP_LEX_SYMBOL

  ****  Scalars and arrays  ****
OctLoc.c.b A Datatyp(siz) R M Lvl/name                 OctLoc.c.b A Datatyp(siz) R M Lvl/name

     0-0-0/w STRC(3240)        1 TEMP_LEX_SYMBOL

  ****  Section 004 LblCom TEMP_LEX_SYMBOL2

  ****  Scalars and arrays  ****
OctLoc.c.b A Datatyp(siz) R M Lvl/name                 OctLoc.c.b A Datatyp(siz) R M Lvl/name

     0-0-0/w STRC(3240)        1 TEMP_LEX_SYMBOL2

PL6.E3A0      #002=Z8AC$LX_ETT_ITEM_TYI_CONST File=Z8AC.:Z8A6TSI                 SAT 08/09/97 10:44 Page:51
  ****  Section 005 LblCom MKCN

  ****  Scalars and arrays  ****
OctLoc.c.b A Datatyp(siz) R M Lvl/name                 OctLoc.c.b A Datatyp(siz) R M Lvl/name

     0-0-0/w STRC(72)    r     1 MKCN

  ****  Auto variables  ****

  ****  Scalars and arrays  ****
OctLoc.c.b A Datatyp(siz) R M Lvl/name                 OctLoc.c.b A Datatyp(siz) R M Lvl/name

     3-0-0/w PTR         r     1 @CONST                     4-0-0/w PTR         r     1 @RETURN$
    *0-0-0/w SBIN        r     1 CONST                      5-0-0/w PTR         r     1 LOCAL$
    *0-0-0/w PTR         r     1 RETURN$

  ****  SYMREF variables  ****

  ****  Scalars and arrays  ****
OctLoc.c.b A Datatyp(siz) R M Lvl/name                 OctLoc.c.b A Datatyp(siz) R M Lvl/name

     0-0-0/d STRC(13248) r     1 COMCOM

  ****  BASED and DCB variables  ****

  ****  Scalars and arrays  ****
OctLoc.c.b A Datatyp(siz) R M Lvl/name                 OctLoc.c.b A Datatyp(siz) R M Lvl/name

     0-0-0/w STRC(288)         1 ADD_STMT                   0-0-0/w ASTR(324)   r     1 BASED_LEX_SYMBOL
     0-0-0/w STRC(360)         1 BASED_LEX_SYMBOL_WORDS
     0-0-0/w STRC(288)         1 BINARY_OP                  0-0-0/w STRC(288)         1 CALL_STMT
     0-0-0/w CHAR(4096)        1 CHARS                      0-0-0/w STRC(288)         1 COMPUTE_STMT
     0-0-0/w STRC(72)          1 CONT                       0-0-0/w STRC(288)         1 DEFERED_IDENTIFIER
     0-0-0/w STRC(252)         1 DEFERED_ID_TREE            0-0-0/w STRC(288)         1 DEFERED_QUAL_ID
     0-0-0/w STRC(288)         1 DEFERED_SUM_CLAUSE
     0-0-0/w STRC(288)         1 DEFERED_SUM_CLAUSE_LIST
     0-0-0/w STRC(288)         1 DELETE_STMT                0-0-0/w STRC(288)         1 DIVIDE_STMT
PL6.E3A0      #002=Z8AC$LX_ETT_ITEM_TYI_CONST File=Z8AC.:Z8A6TSI                 SAT 08/09/97 10:44 Page:52
     0-0-0/w STRC(288)         1 ILS_LIST                   0-0-0/w STRC(288)         1 INSPECT_1_STMT
     0-0-0/w STRC(288)         1 INSPECT_2_STMT             0-0-0/w STRC(288)         1 INSPECT_4_STMT
     0-0-0/w STRC(288)         1 LA_ITEM                    0-0-0/w STRC(504)         1 LX_CD_INPUT
     0-0-0/w STRC(324)         1 LX_CD_I_O                  0-0-0/w STRC(396)         1 LX_CD_OUTPUT
     0-0-0/w STRC(288)   r     1 LX_ETT_ITEM                0-0-0/w STRC(288)         1 LX_ITEM
     0-0-0/w STRC(288)         1 LX_LARGE                   0-0-0/w STRC(288)         1 LX_LIST
     0-0-0/w STRC(1224)        1 LX_REC_DECL                0-0-0/w STRC(864)         1 LX_REPORT_REC
     0-0-0/w STRC(288)         1 LX_TERMINAL                0-0-0/w STRC(288)         1 MULTIPLY_STMT
     0-0-0/w STRC(36864)       1 PAGE                       0-0-0/w STRC(288)         1 READ_STMT
     0-0-0/w STRC(288)         1 REWRITE_STMT               0-0-0/w STRC(288)         1 START_STMT
     0-0-0/w STRC(252)         1 STRING_STMT                0-0-0/w STRC(288)         1 SUBTRACT_STMT
     0-0-0/w STRC(288)         1 UNARY_OP                   0-0-0/w STRC(288)         1 UNSTRING_STMT
     0-0-0/w STRC(288)         1 WRITE_STMT


   Procedure Z8AC$LX_ETT_ITEM_TYI_CONST requires 37 words for executable code.
   Procedure Z8AC$LX_ETT_ITEM_TYI_CONST requires 8 words of local(AUTO) storage.

PL6.E3A0      #003=Z8AC$MAKE_TYA_CONST File=Z8AC.:Z8A6TSI                        SAT 08/09/97 10:46 Page:53
      231        1        /*T***********************************************************/
      232        2        /*T*                                                         */
      233        3        /*T* Copyright (c) Bull HN Information Systems Inc., 1997    */
      234        4        /*T*                                                         */
      235        5        /*T***********************************************************/
      236        6        Z8AC$MAKE_TYA_CONST: PROC (TYA_CONST, LENGTH, CN, RETURN$);
      237        7
      238        8             %EQU PHASE = 1;
      239        9
      240       10             %INCLUDE Z8A_DEFC;
      241       78             %INCLUDE Z8A_SUPP_MAC;
      242     2478             %INCLUDE Z8A_COMCOM;
      243     3128             %INCLUDE Z8A_TYPES;
      244     3302             %INCLUDE Z8A_ST;
      245     6961             %INCLUDE Z8A_DNT;
      246     7182             %INCLUDE Z8A_ETT;
      247     7483             %INCLUDE Z8A_LTS;
      248     9560             %INCLUDE Z8E_STACKS;
      249    11826             %INCLUDE Z8E_O1COM;
      250    12587
      251    12588    1        DCL LENGTH        SBIN WORD;
      252    12589    1        DCL CN            SBIN WORD;
      253    12590    1        DCL TYA_CONST     CHAR (LENGTH);
      254    12591    1        DCL RETURN$       PTR;
      255    12592    1        DCL LAST_ST$      PTR;
      256    12593    1        DCL TYPE          SBIN WORD;
      257    12594    1        DCL PACKED_LENGTH SBIN WORD;
      258    12595    1        DCL P_CONSTANT    CHAR (6);  /* The packed decimal constant */
      259    12596
      260    12597    1        DCL DESCR1        UBIN WORD STATIC INIT (0); /* ASCII EIS desc */
      261    12598    1        DCL 1  DESC1      REDEF DESCR1,
      262    12599              %DESCRIPTOR      (LVL=2, ENDING=YES);
      263    12627    1        DCL DESCR2        UBIN WORD STATIC INIT (0); /* Packed Dec desc */
      264    12628    1        DCL 1  DESC2      REDEF DESCR2,
      265    12629              %DESCRIPTOR      (LVL=2, ENDING=YES);
      266    12657
      267    12658    1        DCL Z8AF$FORME    ENTRY (4);
PL6.E3A0      #003=Z8AC$MAKE_TYA_CONST File=Z8AC.:Z8A6TSI                        SAT 08/09/97 10:46 Page:54
      268    12659    1        DCL Z8AH$SEARCH_  ENTRY;
      269    12660    1        DCL Z9AU$MOVE_NUMERIC ENTRY (4);
      270    12661        %EJECT;
PL6.E3A0      #003=Z8AC$MAKE_TYA_CONST File=Z8AC.:Z8A6TSI                        SAT 08/09/97 10:46 Page:55
      271    12662             /* Z8AC$MAKE_TYA_CONST main entry point */
      272    12663
      273    12664    1        TYPE = %TYA;
      274    12665    1        GOTO MAKE_TYA_TYD_CONST;
      275    12666
      276    12667    1   Z8AC$MAKE_CONST_DEC_LEAD: ENTRY (TYA_CONST, LENGTH, CN, RETURN$);
      277    12668
      278    12669    1        TYPE = %TYD;
      279    12670    1        PACKED_LENGTH = (LENGTH + 1) / 2;
      280    12671    1        DESC1.NDSC.S  = %LEADING_SIGN; /* Move ASCII Dec to Packed Dec. */
      281    12672    1        DESC1.NDSC.N  = LENGTH;
      282    12673    1        DESC2.NDSC.TN = %NDSC4; /* Packed Decimal */
      283    12674    1        DESC2.NDSC.S  = %LEADING_SIGN;
      284    12675    1        DESC2.NDSC.N  = LENGTH;
      285    12676    1        CALL Z9AU$MOVE_NUMERIC (DESC1.NDSC,
      286    12677    1                                DESC2.NDSC,
      287    12678    1                                ADDR (TYA_CONST),
      288    12679    1                                ADDR (P_CONSTANT));
      289    12680
      290    12681    1   MAKE_TYA_TYD_CONST:
      291    12682
      292    12683
      293    12684    1        IF  LENGTH <= %MAX_SYMBOL_SIZE THEN
      294    12685    2          DO;
      295    12686                 /* Search out previously created constants */
      296    12687
      297    12688    2            LEX_SYMBOL.SIZE = LENGTH;
      298    12689    2            SUBSTR(LEX_SYMBOL.SYMBOL,
      299    12690    2                   0,
      300    12691    2                   LENGTH) = TYA_CONST;
      301    12692
      302    12693    2            CALL Z8AH$SEARCH_;
      303    12694    2          END;
      304    12695    1        ELSE
      305    12696    2          DO;
      306    12697                 %NEW_DNT (@POINTER = DNT$,
      307    12698                           @SIZE    = LENGTH,
PL6.E3A0      #003=Z8AC$MAKE_TYA_CONST File=Z8AC.:Z8A6TSI                        SAT 08/09/97 10:46 Page:56
      308    12699                           @NAME    = TYA_CONST);
      309    12757    2          END;
      310    12758             /* DNT$ now points to DNT for TYA_CONST */
      311    12759
      312    12760
      313    12761    1        RETURN$ = DNT$ -> DNT.ST$;
      314    12762    1        LAST_ST$ = ADDR(NIL);
      315    12763
      316    12764             /* Search for the constant requested,
      317    12765                if one exists return it.           */
      318    12766
      319    12767    2        DO WHILE (RETURN$ ~= ADDR(NIL));
      320    12768    2          LAST_ST$ = RETURN$;
      321    12769    2          IF  RETURN$ -> ST.ID = %CONST
      322    12770    2          AND RETURN$ -> ST.TYPE = TYPE
      323    12771    2          AND RETURN$ -> ST.ADSC.CN = CN
      324    12772    2          AND RETURN$ -> ST.ADSC.N  = LENGTH
      325    12773    2          AND RETURN$ -> ST.COUNT = O1COM.CURRENT_SEGMENTC THEN
      326    12774    3            DO;
      327    12775    3              CALL Z8AF$FORME (%TRIAD, RETURN$, ADDR(NIL), RETURN$);
      328    12776    3              RETURN;
      329    12777    3            END;
      330    12778
      331    12779    2          RETURN$ = RETURN$ -> ST.NEXT;
      332    12780    2        END;
      333    12781
      334    12782             %NEW_CONST (@ST$     = RETURN$,
      335    12783                         @DNT$    = DNT$,
      336    12784                         @TYPE    = TYPE);
      337    12825
      338    12826    2        IF TYPE = %TYD THEN DO;
      339    12827    2          RETURN$ -> CONST.NDSC.S  = %LEADING_SIGN;
      340    12828    2          RETURN$ -> CONST.NDSC.TN = %NDSC4;
      341    12829    2          RETURN$ -> CONST.NDSC.N = LENGTH;
      342    12830    2          LENGTH = PACKED_LENGTH;
      343    12831    2          TYA_CONST = P_CONSTANT;
      344    12832    2        END; /* Type Decimal */
PL6.E3A0      #003=Z8AC$MAKE_TYA_CONST File=Z8AC.:Z8A6TSI                        SAT 08/09/97 10:46 Page:57
      345    12833
      346    12834    1        IF LAST_ST$ = ADDR(NIL) THEN
      347    12835    1          IF NOT DNT$ -> DNT.B.RW THEN
      348    12836    1            DNT$ -> DNT.ST$ = RETURN$;
      349    12837    1          ELSE
      350    12838                 /* Don't set the dnt.st field because it's constant
      351    12839                    and don't set the next field of last_st because
      352    12840    1               there isn't any last_st.                        */;
      353    12841    1        ELSE
      354    12842    1          LAST_ST$ -> ST.NEXT = RETURN$;
      355    12843
      356    12844    1        RETURN$ -> CONST.CONSTA = '        ';
      357    12845
      358    12846    1        IF LENGTH + CN > 8 THEN
      359    12847    2          DO;
      360    12848                 %NEW_LCNST (@POINTER = RETURN$ -> CONST.CONST$.PTR$,
      361    12849                             @SIZE    = "(LENGTH + 7)/4",
      362    12850                             @CONST   = TYA_CONST);
      363    12943
      364    12944    2            IF CN ~= 0 THEN
      365    12945    3              DO;
      366    12946    3                SUBSTR (RETURN$ -> CONST.CONST$.PTR$ -> LCNST.CONST,
      367    12947    3                        0, (LENGTH + 7) / 4 * 4) = ' ';
      368    12948    3                SUBSTR (RETURN$ -> CONST.CONST$.PTR$ -> LCNST.CONST,
      369    12949    3                        CN, LENGTH) = TYA_CONST;
      370    12950    3              END;
      371    12951    2            RETURN$ -> CONST.B.LONG_CONSTANT = TRUE;
      372    12952    2          END;
      373    12953    1        ELSE
      374    12954    2          DO;
      375    12955    2            IF LENGTH + CN > 4 THEN
      376    12956    3              DO;
      377    12957    3                RETURN$ -> CONST.B.TWO_WORD = TRUE;
      378    12958    3                RETURN$ -> CONST.B.MOD_2    = TRUE;
      379    12959    3              END;
      380    12960
      381    12961    2            SUBSTR (RETURN$ -> CONST.CONSTA, CN, LENGTH) = TYA_CONST;
PL6.E3A0      #003=Z8AC$MAKE_TYA_CONST File=Z8AC.:Z8A6TSI                        SAT 08/09/97 10:46 Page:58
      382    12962    2          END;
      383    12963
      384    12964    1        IF TYPE ~= %TYD THEN
      385    12965    1          RETURN$ -> CONST.ADSC.N  = LENGTH;
      386    12966    1        RETURN$ -> CONST.ADSC.CN = CN;
      387    12967
      388    12968    1        CALL Z8AF$FORME (%TRIAD, RETURN$, ADDR(NIL), RETURN$);
      389    12969
      390    12970    1   END Z8AC$MAKE_TYA_CONST;

PL6.E3A0      #003=Z8AC$MAKE_TYA_CONST File=Z8AC.:Z8A6TSI                        SAT 08/09/97 10:46 Page:59
--  Include file information  --

   Z8E_O1COM.:Z8A6TOU  cannot be made into a system file and is referenced.
   Z8A_LEX_SYMB.:Z8A6TOU  cannot be made into a system file and is referenced.
   Z8E_STACKS.:Z8A6TOU  cannot be made into a system file and is referenced.
   Z8A_LTS.:Z8A6TOU  cannot be made into a system file and is referenced.
   Z8A_ETT.:Z8A6TOU  cannot be made into a system file and is referenced.
   Z8A_DNT.:Z8A6TOU  cannot be made into a system file and is referenced.
   Z8A_ST.:Z8A6TOU  cannot be made into a system file and is referenced.
   Z8A_TYPES.:Z8A6TOU  is referenced.
   Z8A_COMCOM.:Z8A6TOU  cannot be made into a system file and is referenced.
   X8A_COM_MACS.:X8A6TOU  is referenced.
   Z8A_NAMES.:Z8A6TOU  is referenced.
   Z8A_SUPP_MAC.:Z8A6TOU  is referenced.
   Z8A_DEFC.:Z8A6TOU  cannot be made into a system file and is referenced.
      No diagnostics issued in procedure Z8AC$MAKE_TYA_CONST.

   Procedure Z8AC$MAKE_TYA_CONST requires 353 words for executable code.
   Procedure Z8AC$MAKE_TYA_CONST requires 18 words of local(AUTO) storage.

    No errors detected in file Z8AC.:Z8A6TSI    .

PL6.E3A0      #003=Z8AC$MAKE_TYA_CONST File=Z8AC.:Z8A6TSI                        SAT 08/09/97 10:46 Page:60

 Object Unit name= Z8AC$MAKE_TYA_CONST                        File name= Z8AC.:Z8A6TOU
 UTS= AUG 09 '97 10:46:26.84 SAT                              Compiler= PL-6/E31         Sev=      00
 SharedLib= :SHARED_SYSTEM                                    Alt SharedLib=


    ****  Control sections  ****

 Sect   Type Bound  Init  Size OctSiz  Section name(segment info)
    0  LblCom even  none     1      1  ITERATION
    1  LblCom even  none     1      1  ST$
    2  LblCom even  none     5      5  ST_
    3  LblCom even  none     1      1  DNT$
    4  LblCom even  none     5      5  DNT_
    5  LblCom even  none     1      1  DNT_BUCKET_NUMBER
    6  LblCom even  none     1      1  DNT_OF_1$
    7  LblCom even  none     1      1  ETT$
    8  LblCom even  none     1      1  HEAD_ETT$
    9  LblCom even  none   512   1000  ETT_BUCKETS
   10  LblCom even  none     5      5  ETT_
   11  LblCom even  none     1      1  LTS$
   12  LblCom even  none     5      5  LTS_
   13  LblCom even  none    90    132  LEX_SYMBOL
   14  LblCom even  none     1      1  CURRENT_LEX_SYMBOL$
   15  LblCom even  none    90    132  TEMP_LEX_SYMBOL
   16  LblCom even  none    90    132  TEMP_LEX_SYMBOL2
   17   Data  even  none     2      2  Z8AC$MAKE_TYA_CONST
   18  RoData even  UTS      2      2  Z8AC$MAKE_TYA_CONST
   19   Proc  even  none   353    541  Z8AC$MAKE_TYA_CONST
   20  RoData even  none    13     15  Z8AC$MAKE_TYA_CONST

    ****  Entry defs  ****

                              Check   Calling
                             calling  sequence
  Sect OctLoc Primary Altret sequence   type   Parms  Name
    19      0   yes            yes      Std        4  Z8AC$MAKE_TYA_CONST
    19      5                  yes      Std        4  Z8AC$MAKE_CONST_DEC_LEAD
PL6.E3A0      #003=Z8AC$MAKE_TYA_CONST File=Z8AC.:Z8A6TSI                        SAT 08/09/97 10:46 Page:61

  ****  Entry refs  ****

         Check        Calling
        calling       sequence
Altret sequence SRef   type   Args  Name
         yes           Std       4 Z9AU$MOVE_NUMERIC
         yes           Std       0 Z8AH$SEARCH_
         yes           Std       1 Z8AR$RESERVER
         yes           Std       4 Z8AF$FORME
                       nStd      0 X66_AUTO_4
                       nStd      0 X66_ARET

  ****  Data refs  ****

  Flags:  r = read only, s = secondary
Flgs Name                             Flgs Name                             Flgs Name
     COMCOM                           r    LTS_STEP                              O1COM
     HIER_STK_PTR                          HIER_STK                              PAGE_FORMAT
     REP_STK_PTR                           REP_STK

  ****  Segment refs  ****

  Flags:  r = read only, s = secondary
Flgs Name                             Flgs Name                             Flgs Name
     NULLSID                               ISSID
PL6.E3A0      #003=Z8AC$MAKE_TYA_CONST File=Z8AC.:Z8A6TSI                        SAT 08/09/97 10:46 Page:62


      231        1        /*T***********************************************************/
      232        2        /*T*                                                         */
      233        3        /*T* Copyright (c) Bull HN Information Systems Inc., 1997    */
      234        4        /*T*                                                         */
      235        5        /*T***********************************************************/
      236        6        Z8AC$MAKE_TYA_CONST: PROC (TYA_CONST, LENGTH, CN, RETURN$);

      6 19 000000   000000 700200 xent  Z8AC$MAKE_T* TSX0  ! X66_AUTO_4
        19 000001   000022 000004                    ZERO    18,4

      237        7
      238        8             %EQU PHASE = 1;
      239        9
      240       10             %INCLUDE Z8A_DEFC;
      241       78             %INCLUDE Z8A_SUPP_MAC;
      242     2478             %INCLUDE Z8A_COMCOM;
      243     3128             %INCLUDE Z8A_TYPES;
      244     3302             %INCLUDE Z8A_ST;
      245     6961             %INCLUDE Z8A_DNT;
      246     7182             %INCLUDE Z8A_ETT;
      247     7483             %INCLUDE Z8A_LTS;
      248     9560             %INCLUDE Z8E_STACKS;
      249    11826             %INCLUDE Z8E_O1COM;
      250    12587
      251    12588    1        DCL LENGTH        SBIN WORD;
      252    12589    1        DCL CN            SBIN WORD;
      253    12590    1        DCL TYA_CONST     CHAR (LENGTH);
      254    12591    1        DCL RETURN$       PTR;
      255    12592    1        DCL LAST_ST$      PTR;
      256    12593    1        DCL TYPE          SBIN WORD;
      257    12594    1        DCL PACKED_LENGTH SBIN WORD;
      258    12595    1        DCL P_CONSTANT    CHAR (6);  /* The packed decimal constant */
      259    12596
      260    12597    1        DCL DESCR1        UBIN WORD STATIC INIT (0); /* ASCII EIS desc */
      261    12598    1        DCL 1  DESC1      REDEF DESCR1,
      262    12599              %DESCRIPTOR      (LVL=2, ENDING=YES);
PL6.E3A0      #003=Z8AC$MAKE_TYA_CONST File=Z8AC.:Z8A6TSI                        SAT 08/09/97 10:46 Page:63
      263    12627    1        DCL DESCR2        UBIN WORD STATIC INIT (0); /* Packed Dec desc */
      264    12628    1        DCL 1  DESC2      REDEF DESCR2,
      265    12629              %DESCRIPTOR      (LVL=2, ENDING=YES);
      266    12657
      267    12658    1        DCL Z8AF$FORME    ENTRY (4);
      268    12659    1        DCL Z8AH$SEARCH_  ENTRY;
      269    12660    1        DCL Z9AU$MOVE_NUMERIC ENTRY (4);
      270    12661        %EJECT;
PL6.E3A0      #003=Z8AC$MAKE_TYA_CONST File=Z8AC.:Z8A6TSI                        SAT 08/09/97 10:46 Page:64
      271    12662             /* Z8AC$MAKE_TYA_CONST main entry point */
      272    12663
      273    12664    1        TYPE = %TYA;

  12664 19 000002   000010 235007                    LDA     8,DL
        19 000003   200010 755100                    STA     TYPE,,AUTO

      274    12665    1        GOTO MAKE_TYA_TYD_CONST;

  12665 19 000004   000051 710000 19                 TRA     MAKE_TYA_TYD_CONST

      275    12666
      276    12667    1   Z8AC$MAKE_CONST_DEC_LEAD: ENTRY (TYA_CONST, LENGTH, CN, RETURN$);

  12667 19 000005   000000 700200 xent  Z8AC$MAKE_C* TSX0  ! X66_AUTO_4
        19 000006   000022 000004                    ZERO    18,4

      277    12668
      278    12669    1        TYPE = %TYD;

  12669 19 000007   200010 450100                    STZ     TYPE,,AUTO

      279    12670    1        PACKED_LENGTH = (LENGTH + 1) / 2;

  12670 19 000010   200004 470500                    LDP0    @LENGTH,,AUTO
        19 000011   000000 236100                    LDQ     0,,PR0
        19 000012   000001 036007                    ADLQ    1,DL
        19 000013   000002 506007                    DIV     2,DL
        19 000014   200011 756100                    STQ     PACKED_LENGTH,,AUTO

      280    12671    1        DESC1.NDSC.S  = %LEADING_SIGN; /* Move ASCII Dec to Packed Dec. */

  12671 19 000015   000000 236000 17                 LDQ     DESCR1
        19 000016   000000 376000 20                 ANQ     0
        19 000017   010000 276007                    ORQ     4096,DL
        19 000020   000000 756000 17                 STQ     DESCR1

PL6.E3A0      #003=Z8AC$MAKE_TYA_CONST File=Z8AC.:Z8A6TSI                        SAT 08/09/97 10:46 Page:65
      281    12672    1        DESC1.NDSC.N  = LENGTH;

  12672 19 000021   000000 236100                    LDQ     0,,PR0
        19 000022   000000 752001 17                 STCQ    DESCR1,'01'O

      282    12673    1        DESC2.NDSC.TN = %NDSC4; /* Packed Decimal */

  12673 19 000023   040000 236007                    LDQ     16384,DL
        19 000024   000001 256000 17                 ORSQ    DESCR2

      283    12674    1        DESC2.NDSC.S  = %LEADING_SIGN;

  12674 19 000025   000001 236000 17                 LDQ     DESCR2
        19 000026   000000 376000 20                 ANQ     0
        19 000027   010000 276007                    ORQ     4096,DL
        19 000030   000001 756000 17                 STQ     DESCR2

      284    12675    1        DESC2.NDSC.N  = LENGTH;

  12675 19 000031   000000 236100                    LDQ     0,,PR0
        19 000032   000001 752001 17                 STCQ    DESCR2,'01'O

      285    12676    1        CALL Z9AU$MOVE_NUMERIC (DESC1.NDSC,

  12676 19 000033   200003 236100                    LDQ     @TYA_CONST,,AUTO
        19 000034   200014 756100                    STQ     P_CONSTANT+2,,AUTO
        19 000035   200012 631500                    EPPR1   P_CONSTANT,,AUTO
        19 000036   200015 451500                    STP1    P_CONSTANT+3,,AUTO
        19 000037   200015 633500                    EPPR3   P_CONSTANT+3,,AUTO
        19 000040   200021 453500                    STP3    P_CONSTANT+7,,AUTO
        19 000041   200014 634500                    EPPR4   P_CONSTANT+2,,AUTO
        19 000042   200020 454500                    STP4    P_CONSTANT+6,,AUTO
        19 000043   000002 237000 20                 LDAQ    2
        19 000044   200016 757100                    STAQ    P_CONSTANT+4,,AUTO
        19 000045   200016 630500                    EPPR0   P_CONSTANT+4,,AUTO
        19 000046   000001 631400 20                 EPPR1   1
        19 000047   000000 701000 xent               TSX1    Z9AU$MOVE_NUMERIC
PL6.E3A0      #003=Z8AC$MAKE_TYA_CONST File=Z8AC.:Z8A6TSI                        SAT 08/09/97 10:46 Page:66
        19 000050   000000 011000                    NOP     0

      286    12677    1                                DESC2.NDSC,
      287    12678    1                                ADDR (TYA_CONST),
      288    12679    1                                ADDR (P_CONSTANT));
      289    12680
      290    12681    1   MAKE_TYA_TYD_CONST:
      291    12682
      292    12683
      293    12684    1        IF  LENGTH <= %MAX_SYMBOL_SIZE THEN

  12684 19 000051   200004 470500       MAKE_TYA_TY* LDP0    @LENGTH,,AUTO
        19 000052   000000 235100                    LDA     0,,PR0
        19 000053   000502 115007                    CMPA    322,DL
        19 000054   000070 605400 19                 TPNZ    s:12702

      294    12685    2          DO;

      295    12686                 /* Search out previously created constants */
      296    12687
      297    12688    2            LEX_SYMBOL.SIZE = LENGTH;

  12688 19 000055   000010 755000 13                 STA     LEX_SYMBOL+8

      298    12689    2            SUBSTR(LEX_SYMBOL.SYMBOL,

  12689 19 000056   000000 720100                    LXL0    0,,PR0
        19 000057   000000 721100                    LXL1    0,,PR0
        19 000060   200003 471500                    LDP1    @TYA_CONST,,AUTO
        19 000061   040040 100540                    MLR     fill='040'O
        19 000062   100000 000011                    ADSC9   0,,PR1                   cn=0,n=*X1
        19 000063   000011 000010 13                 ADSC9   LEX_SYMBOL+9             cn=0,n=*X0

      299    12690    2                   0,
      300    12691    2                   LENGTH) = TYA_CONST;
      301    12692
      302    12693    2            CALL Z8AH$SEARCH_;
PL6.E3A0      #003=Z8AC$MAKE_TYA_CONST File=Z8AC.:Z8A6TSI                        SAT 08/09/97 10:46 Page:67

  12693 19 000064   000004 631400 20                 EPPR1   4
        19 000065   000000 701000 xent               TSX1    Z8AH$SEARCH_
        19 000066   000000 011000                    NOP     0

      303    12694    2          END;

  12694 19 000067   000146 710000 19                 TRA     s:12761

      304    12695    1        ELSE
      305    12696    2          DO;

      306    12697                 %NEW_DNT (@POINTER = DNT$,
      307    12698                           @SIZE    = LENGTH,
      308    12699                           @NAME    = TYA_CONST);

  12702 19 000070   000000 236100                    LDQ     0,,PR0
        19 000071   000025 036007                    ADLQ    21,DL
        19 000072   000004 506007                    DIV     4,DL
        19 000073   000000 756000 0                  STQ     ITERATION

  12703 19 000074   000002 036000 4                  ADLQ    DNT_+2
        19 000075   000110 604000 19                 TMI     s:12705
        19 000076   000003 116000 4                  CMPQ    DNT_+3
        19 000077   000110 602000 19                 TNC     s:12705

  12704 19 000100   000006 236000 20                 LDQ     6
        19 000101   200014 756100                    STQ     P_CONSTANT+2,,AUTO
        19 000102   200014 631500                    EPPR1   P_CONSTANT+2,,AUTO
        19 000103   200015 451500                    STP1    P_CONSTANT+3,,AUTO
        19 000104   200015 630500                    EPPR0   P_CONSTANT+3,,AUTO
        19 000105   000005 631400 20                 EPPR1   5
        19 000106   000000 701000 xent               TSX1    Z8AR$RESERVER
        19 000107   000000 011000                    NOP     0

  12705 19 000110   000002 236000 4                  LDQ     DNT_+2
        19 000111   000022 736000                    QLS     18
PL6.E3A0      #003=Z8AC$MAKE_TYA_CONST File=Z8AC.:Z8A6TSI                        SAT 08/09/97 10:46 Page:68
        19 000112   000001 036000 4                  ADLQ    DNT_+1
        19 000113   000000 756000 3                  STQ     DNT$

  12706 19 000114   000002 236000 4                  LDQ     DNT_+2
        19 000115   000000 036000 0                  ADLQ    ITERATION
        19 000116   000002 756000 4                  STQ     DNT_+2

  12707 19 000117   001046 220003                    LDX0    550,DU
        19 000120   000000 470400 3                  LDP0    DNT$
        19 000121   000000 740100                    STX0    0,,PR0

  12708 19 000122   000000 721000 0                  LXL1    ITERATION
        19 000123   000000 470400 3                  LDP0    DNT$
        19 000124   000000 441100                    SXL1    0,,PR0

  12709 19 000125   200004 470500                    LDP0    @LENGTH,,AUTO
        19 000126   000000 721100                    LXL1    0,,PR0
        19 000127   000000 471400 3                  LDP1    DNT$
        19 000130   100004 741100                    STX1    4,,PR1

  12712 19 000131   000007 236000 20                 LDQ     7
        19 000132   100001 756100                    STQ     1,,PR1

  12713 19 000133   000007 236000 20                 LDQ     7
        19 000134   100002 756100                    STQ     2,,PR1

  12714 19 000135   000000 222003                    LDX2    0,DU
        19 000136   100003 742100                    STX2    3,,PR1

  12715 19 000137   000000 223003                    LDX3    0,DU
        19 000140   100003 443100                    SXL3    3,,PR1

  12716 19 000141   000000 724100                    LXL4    0,,PR0
        19 000142   200003 473500                    LDP3    @TYA_CONST,,AUTO
        19 000143   040140 100540                    MLR     fill='040'O
        19 000144   300000 000014                    ADSC9   0,,PR3                   cn=0,n=*X4
        19 000145   100004 400011                    ADSC9   4,,PR1                   cn=2,n=*X1
PL6.E3A0      #003=Z8AC$MAKE_TYA_CONST File=Z8AC.:Z8A6TSI                        SAT 08/09/97 10:46 Page:69

      309    12757    2          END;

      310    12758             /* DNT$ now points to DNT for TYA_CONST */
      311    12759
      312    12760
      313    12761    1        RETURN$ = DNT$ -> DNT.ST$;

  12761 19 000146   000000 470400 3                  LDP0    DNT$
        19 000147   000001 236100                    LDQ     1,,PR0
        19 000150   200006 471500                    LDP1    @RETURN$,,AUTO
        19 000151   100000 756100                    STQ     0,,PR1

      314    12762    1        LAST_ST$ = ADDR(NIL);

  12762 19 000152   000007 236000 20                 LDQ     7
        19 000153   200007 756100                    STQ     LAST_ST$,,AUTO

      315    12763
      316    12764             /* Search for the constant requested,
      317    12765                if one exists return it.           */
      318    12766
      319    12767    2        DO WHILE (RETURN$ ~= ADDR(NIL));

  12767 19 000154   000226 710000 19                 TRA     s:12780

      320    12768    2          LAST_ST$ = RETURN$;

  12768 19 000155   200006 470500                    LDP0    @RETURN$,,AUTO
        19 000156   000000 236100                    LDQ     0,,PR0
        19 000157   200007 756100                    STQ     LAST_ST$,,AUTO

      321    12769    2          IF  RETURN$ -> ST.ID = %CONST

  12769 19 000160   000000 471500                    LDP1    0,,PR0
        19 000161   100000 220100                    LDX0    0,,PR1
        19 000162   000767 100003                    CMPX0   503,DU
PL6.E3A0      #003=Z8AC$MAKE_TYA_CONST File=Z8AC.:Z8A6TSI                        SAT 08/09/97 10:46 Page:70
        19 000163   000224 601000 19                 TNZ     s:12779
        19 000164   100002 236100                    LDQ     2,,PR1
        19 000165   000022 772000                    QRL     18
        19 000166   200010 116100                    CMPQ    TYPE,,AUTO
        19 000167   000224 601000 19                 TNZ     s:12779
        19 000170   200005 473500                    LDP3    @CN,,AUTO
        19 000171   100001 236100                    LDQ     1,,PR1
        19 000172   000020 772000                    QRL     16
        19 000173   000003 376007                    ANQ     3,DL
        19 000174   300000 116100                    CMPQ    0,,PR3
        19 000175   000224 601000 19                 TNZ     s:12779
        19 000176   200004 474500                    LDP4    @LENGTH,,AUTO
        19 000177   100001 236100                    LDQ     1,,PR1
        19 000200   007777 376007                    ANQ     4095,DL
        19 000201   400000 116100                    CMPQ    0,,PR4
        19 000202   000224 601000 19                 TNZ     s:12779
        19 000203   100000 236100                    LDQ     0,,PR1
        19 000204   000777 376007                    ANQ     511,DL
        19 000205   000126 116000 xsym               CMPQ    O1COM+86
        19 000206   000224 601000 19                 TNZ     s:12779

      322    12770    2          AND RETURN$ -> ST.TYPE = TYPE
      323    12771    2          AND RETURN$ -> ST.ADSC.CN = CN
      324    12772    2          AND RETURN$ -> ST.ADSC.N  = LENGTH
      325    12773    2          AND RETURN$ -> ST.COUNT = O1COM.CURRENT_SEGMENTC THEN
      326    12774    3            DO;

      327    12775    3              CALL Z8AF$FORME (%TRIAD, RETURN$, ADDR(NIL), RETURN$);

  12775 19 000207   000007 236000 20                 LDQ     7
        19 000210   200014 756100                    STQ     P_CONSTANT+2,,AUTO
        19 000211   200006 236100                    LDQ     @RETURN$,,AUTO
        19 000212   200021 756100                    STQ     P_CONSTANT+7,,AUTO
        19 000213   200014 631500                    EPPR1   P_CONSTANT+2,,AUTO
        19 000214   200020 451500                    STP1    P_CONSTANT+6,,AUTO
        19 000215   000011 235000 20                 LDA     9
        19 000216   200016 757100                    STAQ    P_CONSTANT+4,,AUTO
PL6.E3A0      #003=Z8AC$MAKE_TYA_CONST File=Z8AC.:Z8A6TSI                        SAT 08/09/97 10:46 Page:71
        19 000217   200016 630500                    EPPR0   P_CONSTANT+4,,AUTO
        19 000220   000001 631400 20                 EPPR1   1
        19 000221   000000 701000 xent               TSX1    Z8AF$FORME
        19 000222   000000 011000                    NOP     0

      328    12776    3              RETURN;

  12776 19 000223   000000 702200 xent               TSX2  ! X66_ARET

      329    12777    3            END;
      330    12778
      331    12779    2          RETURN$ = RETURN$ -> ST.NEXT;

  12779 19 000224   100004 236100                    LDQ     4,,PR1
        19 000225   000000 756100                    STQ     0,,PR0

      332    12780    2        END;

  12780 19 000226   200006 470500                    LDP0    @RETURN$,,AUTO
        19 000227   000000 236100                    LDQ     0,,PR0
        19 000230   000007 116000 20                 CMPQ    7
        19 000231   000155 601000 19                 TNZ     s:12768

      333    12781
      334    12782             %NEW_CONST (@ST$     = RETURN$,
      335    12783                         @DNT$    = DNT$,
      336    12784                         @TYPE    = TYPE);

  12788 19 000232   000002 236000 2                  LDQ     ST_+2
        19 000233   000013 036007                    ADLQ    11,DL
        19 000234   000003 116000 2                  CMPQ    ST_+3
        19 000235   000246 604000 19                 TMI     s:12790

  12789 19 000236   000012 236000 20                 LDQ     10
        19 000237   200014 756100                    STQ     P_CONSTANT+2,,AUTO
        19 000240   200014 631500                    EPPR1   P_CONSTANT+2,,AUTO
        19 000241   200015 451500                    STP1    P_CONSTANT+3,,AUTO
PL6.E3A0      #003=Z8AC$MAKE_TYA_CONST File=Z8AC.:Z8A6TSI                        SAT 08/09/97 10:46 Page:72
        19 000242   200015 630500                    EPPR0   P_CONSTANT+3,,AUTO
        19 000243   000005 631400 20                 EPPR1   5
        19 000244   000000 701000 xent               TSX1    Z8AR$RESERVER
        19 000245   000000 011000                    NOP     0

  12790 19 000246   000002 236000 2                  LDQ     ST_+2
        19 000247   000022 736000                    QLS     18
        19 000250   000001 036000 2                  ADLQ    ST_+1
        19 000251   200006 470500                    LDP0    @RETURN$,,AUTO
        19 000252   000000 756100                    STQ     0,,PR0

  12791 19 000253   000013 236007                    LDQ     11,DL
        19 000254   000002 056000 2                  ASQ     ST_+2

  12794 19 000255   000000 471500                    LDP1    0,,PR0
        19 000256   000767 220003                    LDX0    503,DU
        19 000257   100000 740100                    STX0    0,,PR1

  12795 19 000260   000000 471500                    LDP1    0,,PR0
        19 000261   001000 236007                    LDQ     512,DL
        19 000262   100000 552110                    STBQ    0,'10'O,PR1

  12796 19 000263   000000 471500                    LDP1    0,,PR0
        19 000264   000126 236000 xsym               LDQ     O1COM+86
        19 000265   100000 552104                    STBQ    0,'04'O,PR1

  12797 19 000266   000000 471500                    LDP1    0,,PR0
        19 000267   200010 721100                    LXL1    TYPE,,AUTO
        19 000270   100002 741100                    STX1    2,,PR1

  12798 19 000271   000000 471500                    LDP1    0,,PR0
        19 000272   100003 450100                    STZ     3,,PR1

  12799 19 000273   000000 471500                    LDP1    0,,PR0
        19 000274   000007 236000 20                 LDQ     7
        19 000275   100004 756100                    STQ     4,,PR1

PL6.E3A0      #003=Z8AC$MAKE_TYA_CONST File=Z8AC.:Z8A6TSI                        SAT 08/09/97 10:46 Page:73
  12800 19 000276   000000 471500                    LDP1    0,,PR0
        19 000277   000007 236000 20                 LDQ     7
        19 000300   100005 756100                    STQ     5,,PR1

  12801 19 000301   000000 471500                    LDP1    0,,PR0
        19 000302   000000 236000 3                  LDQ     DNT$
        19 000303   100006 756100                    STQ     6,,PR1

      337    12825
      338    12826    2        IF TYPE = %TYD THEN DO;

  12826 19 000304   200010 235100                    LDA     TYPE,,AUTO
        19 000305   000331 601000 19                 TNZ     s:12834

      339    12827    2          RETURN$ -> CONST.NDSC.S  = %LEADING_SIGN;

  12827 19 000306   000000 471500                    LDP1    0,,PR0
        19 000307   100001 236100                    LDQ     1,,PR1
        19 000310   000000 376000 20                 ANQ     0
        19 000311   010000 276007                    ORQ     4096,DL
        19 000312   100001 756100                    STQ     1,,PR1

      340    12828    2          RETURN$ -> CONST.NDSC.TN = %NDSC4;

  12828 19 000313   000000 471500                    LDP1    0,,PR0
        19 000314   040000 236007                    LDQ     16384,DL
        19 000315   100001 256100                    ORSQ    1,,PR1

      341    12829    2          RETURN$ -> CONST.NDSC.N = LENGTH;

  12829 19 000316   000000 471500                    LDP1    0,,PR0
        19 000317   200004 473500                    LDP3    @LENGTH,,AUTO
        19 000320   300000 236100                    LDQ     0,,PR3
        19 000321   100001 752101                    STCQ    1,'01'O,PR1

      342    12830    2          LENGTH = PACKED_LENGTH;

PL6.E3A0      #003=Z8AC$MAKE_TYA_CONST File=Z8AC.:Z8A6TSI                        SAT 08/09/97 10:46 Page:74
  12830 19 000322   200011 236100                    LDQ     PACKED_LENGTH,,AUTO
        19 000323   300000 756100                    STQ     0,,PR3

      343    12831    2          TYA_CONST = P_CONSTANT;

  12831 19 000324   300000 722100                    LXL2    0,,PR3
        19 000325   200003 471500                    LDP1    @TYA_CONST,,AUTO
        19 000326   040140 100500                    MLR     fill='040'O
        19 000327   200012 000006                    ADSC9   P_CONSTANT,,AUTO         cn=0,n=6
        19 000330   100000 000012                    ADSC9   0,,PR1                   cn=0,n=*X2

      344    12832    2        END; /* Type Decimal */

      345    12833
      346    12834    1        IF LAST_ST$ = ADDR(NIL) THEN

  12834 19 000331   200007 236100                    LDQ     LAST_ST$,,AUTO
        19 000332   000007 116000 20                 CMPQ    7
        19 000333   000342 601000 19                 TNZ     s:12842

      347    12835    1          IF NOT DNT$ -> DNT.B.RW THEN

  12835 19 000334   000000 471400 3                  LDP1    DNT$
        19 000335   100003 234100                    SZN     3,,PR1
        19 000336   000345 604000 19                 TMI     s:12844

      348    12836    1            DNT$ -> DNT.ST$ = RETURN$;

  12836 19 000337   000000 236100                    LDQ     0,,PR0
        19 000340   100001 756100                    STQ     1,,PR1
        19 000341   000345 710000 19                 TRA     s:12844

      349    12837    1          ELSE
      350    12838                 /* Don't set the dnt.st field because it's constant
      351    12839                    and don't set the next field of last_st because
      352    12840    1               there isn't any last_st.                        */;
      353    12841    1        ELSE
PL6.E3A0      #003=Z8AC$MAKE_TYA_CONST File=Z8AC.:Z8A6TSI                        SAT 08/09/97 10:46 Page:75
      354    12842    1          LAST_ST$ -> ST.NEXT = RETURN$;

  12842 19 000342   000000 236100                    LDQ     0,,PR0
        19 000343   200007 471500                    LDP1    LAST_ST$,,AUTO
        19 000344   100004 756100                    STQ     4,,PR1

      355    12843
      356    12844    1        RETURN$ -> CONST.CONSTA = '        ';

  12844 19 000345   000000 471500                    LDP1    0,,PR0
        19 000346   000000 237000 18                 LDAQ    0
        19 000347   100010 755100                    STA     8,,PR1
        19 000350   100011 756100                    STQ     9,,PR1

      357    12845
      358    12846    1        IF LENGTH + CN > 8 THEN

  12846 19 000351   200004 471500                    LDP1    @LENGTH,,AUTO
        19 000352   200005 473500                    LDP3    @CN,,AUTO
        19 000353   100000 236100                    LDQ     0,,PR1
        19 000354   300000 036100                    ADLQ    0,,PR3
        19 000355   000010 116007                    CMPQ    8,DL
        19 000356   000465 604400 19                 TMOZ    s:12955

      359    12847    2          DO;

      360    12848                 %NEW_LCNST (@POINTER = RETURN$ -> CONST.CONST$.PTR$,
      361    12849                             @SIZE    = "(LENGTH + 7)/4",
      362    12850                             @CONST   = TYA_CONST);

  12852 19 000357   100000 236100                    LDQ     0,,PR1
        19 000360   000007 036007                    ADLQ    7,DL
        19 000361   000004 506007                    DIV     4,DL
        19 000362   000000 756000 0                  STQ     ITERATION

  12930 19 000363   000002 036000 12                 ADLQ    LTS_+2
        19 000364   000003 116000 12                 CMPQ    LTS_+3
PL6.E3A0      #003=Z8AC$MAKE_TYA_CONST File=Z8AC.:Z8A6TSI                        SAT 08/09/97 10:46 Page:76
        19 000365   000376 604000 19                 TMI     s:12932

  12931 19 000366   000013 236000 20                 LDQ     11
        19 000367   200014 756100                    STQ     P_CONSTANT+2,,AUTO
        19 000370   200014 634500                    EPPR4   P_CONSTANT+2,,AUTO
        19 000371   200015 454500                    STP4    P_CONSTANT+3,,AUTO
        19 000372   200015 630500                    EPPR0   P_CONSTANT+3,,AUTO
        19 000373   000005 631400 20                 EPPR1   5
        19 000374   000000 701000 xent               TSX1    Z8AR$RESERVER
        19 000375   000000 011000                    NOP     0

  12932 19 000376   200006 470500                    LDP0    @RETURN$,,AUTO
        19 000377   000000 471500                    LDP1    0,,PR0
        19 000400   000002 236000 12                 LDQ     LTS_+2
        19 000401   000022 736000                    QLS     18
        19 000402   000001 036000 12                 ADLQ    LTS_+1
        19 000403   100010 756100                    STQ     8,,PR1

  12933 19 000404   000002 236000 12                 LDQ     LTS_+2
        19 000405   000000 036000 0                  ADLQ    ITERATION
        19 000406   000002 756000 12                 STQ     LTS_+2

  12934 19 000407   000000 471500                    LDP1    0,,PR0
        19 000410   100010 473500                    LDP3    8,,PR1
        19 000411   001106 220003                    LDX0    582,DU
        19 000412   300000 740100                    STX0    0,,PR3

  12936 19 000413   000000 471500                    LDP1    0,,PR0
        19 000414   100010 473500                    LDP3    8,,PR1
        19 000415   000000 721000 0                  LXL1    ITERATION
        19 000416   300000 441100                    SXL1    0,,PR3

  12940 19 000417   000000 471500                    LDP1    0,,PR0
        19 000420   100010 473500                    LDP3    8,,PR1
        19 000421   200004 474500                    LDP4    @LENGTH,,AUTO
        19 000422   400000 236100                    LDQ     0,,PR4
        19 000423   000007 036007                    ADLQ    7,DL
PL6.E3A0      #003=Z8AC$MAKE_TYA_CONST File=Z8AC.:Z8A6TSI                        SAT 08/09/97 10:46 Page:77
        19 000424   000004 506007                    DIV     4,DL
        19 000425   400000 721100                    LXL1    0,,PR4
        19 000426   000002 736000                    QLS     2
        19 000427   777774 622006                    EAX2    -4,QL
        19 000430   200003 475500                    LDP5    @TYA_CONST,,AUTO
        19 000431   040140 100540                    MLR     fill='040'O
        19 000432   500000 000011                    ADSC9   0,,PR5                   cn=0,n=*X1
        19 000433   300001 000012                    ADSC9   1,,PR3                   cn=0,n=*X2

      363    12943
      364    12944    2            IF CN ~= 0 THEN

  12944 19 000434   200005 471500                    LDP1    @CN,,AUTO
        19 000435   100000 235100                    LDA     0,,PR1
        19 000436   000461 600000 19                 TZE     s:12951

      365    12945    3              DO;

      366    12946    3                SUBSTR (RETURN$ -> CONST.CONST$.PTR$ -> LCNST.CONST,

  12946 19 000437   000000 473500                    LDP3    0,,PR0
        19 000440   300010 476500                    LDP6    8,,PR3
        19 000441   400000 236100                    LDQ     0,,PR4
        19 000442   000007 036007                    ADLQ    7,DL
        19 000443   000004 506007                    DIV     4,DL
        19 000444   000002 736000                    QLS     2
        19 000445   000000 621006                    EAX1    0,QL
        19 000446   040140 100400                    MLR     fill='040'O
        19 000447   000014 000001 20                 ADSC9   12                       cn=0,n=1
        19 000450   600001 000011                    ADSC9   1,,PR6                   cn=0,n=*X1

      367    12947    3                        0, (LENGTH + 7) / 4 * 4) = ' ';
      368    12948    3                SUBSTR (RETURN$ -> CONST.CONST$.PTR$ -> LCNST.CONST,

  12948 19 000451   000000 473500                    LDP3    0,,PR0
        19 000452   300010 476500                    LDP6    8,,PR3
        19 000453   100000 235100                    LDA     0,,PR1
PL6.E3A0      #003=Z8AC$MAKE_TYA_CONST File=Z8AC.:Z8A6TSI                        SAT 08/09/97 10:46 Page:78
        19 000454   400000 721100                    LXL1    0,,PR4
        19 000455   400000 722100                    LXL2    0,,PR4
        19 000456   040145 100540                    MLR     fill='040'O
        19 000457   500000 000012                    ADSC9   0,,PR5                   cn=0,n=*X2
        19 000460   600001 000011                    ADSC9   1,A,PR6                  cn=0,n=*X1

      369    12949    3                        CN, LENGTH) = TYA_CONST;
      370    12950    3              END;

      371    12951    2            RETURN$ -> CONST.B.LONG_CONSTANT = TRUE;

  12951 19 000461   000000 473500                    LDP3    0,,PR0
        19 000462   400000 236003                    LDQ     -131072,DU
        19 000463   300003 256100                    ORSQ    3,,PR3

      372    12952    2          END;

  12952 19 000464   000507 710000 19                 TRA     s:12964

      373    12953    1        ELSE
      374    12954    2          DO;

      375    12955    2            IF LENGTH + CN > 4 THEN

  12955 19 000465   100000 236100                    LDQ     0,,PR1
        19 000466   300000 036100                    ADLQ    0,,PR3
        19 000467   000004 116007                    CMPQ    4,DL
        19 000470   000477 604400 19                 TMOZ    s:12961

      376    12956    3              DO;

      377    12957    3                RETURN$ -> CONST.B.TWO_WORD = TRUE;

  12957 19 000471   000000 474500                    LDP4    0,,PR0
        19 000472   200000 236003                    LDQ     65536,DU
        19 000473   400003 256100                    ORSQ    3,,PR4

PL6.E3A0      #003=Z8AC$MAKE_TYA_CONST File=Z8AC.:Z8A6TSI                        SAT 08/09/97 10:46 Page:79
      378    12958    3                RETURN$ -> CONST.B.MOD_2    = TRUE;

  12958 19 000474   000000 474500                    LDP4    0,,PR0
        19 000475   100000 236003                    LDQ     32768,DU
        19 000476   400003 256100                    ORSQ    3,,PR4

      379    12959    3              END;

      380    12960
      381    12961    2            SUBSTR (RETURN$ -> CONST.CONSTA, CN, LENGTH) = TYA_CONST;

  12961 19 000477   000000 474500                    LDP4    0,,PR0
        19 000500   300000 235100                    LDA     0,,PR3
        19 000501   100000 722100                    LXL2    0,,PR1
        19 000502   100000 723100                    LXL3    0,,PR1
        19 000503   200003 475500                    LDP5    @TYA_CONST,,AUTO
        19 000504   040145 100540                    MLR     fill='040'O
        19 000505   500000 000013                    ADSC9   0,,PR5                   cn=0,n=*X3
        19 000506   400010 000012                    ADSC9   8,A,PR4                  cn=0,n=*X2

      382    12962    2          END;

      383    12963
      384    12964    1        IF TYPE ~= %TYD THEN

  12964 19 000507   200010 235100                    LDA     TYPE,,AUTO
        19 000510   000515 600000 19                 TZE     s:12966

      385    12965    1          RETURN$ -> CONST.ADSC.N  = LENGTH;

  12965 19 000511   000000 471500                    LDP1    0,,PR0
        19 000512   200004 473500                    LDP3    @LENGTH,,AUTO
        19 000513   300000 236100                    LDQ     0,,PR3
        19 000514   100001 752103                    STCQ    1,'03'O,PR1

      386    12966    1        RETURN$ -> CONST.ADSC.CN = CN;

PL6.E3A0      #003=Z8AC$MAKE_TYA_CONST File=Z8AC.:Z8A6TSI                        SAT 08/09/97 10:46 Page:80
  12966 19 000515   000000 471500                    LDP1    0,,PR0
        19 000516   200005 473500                    LDP3    @CN,,AUTO
        19 000517   300000 236100                    LDQ     0,,PR3
        19 000520   000020 736000                    QLS     16
        19 000521   100001 676100                    ERQ     1,,PR1
        19 000522   600000 376007                    ANQ     -65536,DL
        19 000523   100001 656100                    ERSQ    1,,PR1

      387    12967
      388    12968    1        CALL Z8AF$FORME (%TRIAD, RETURN$, ADDR(NIL), RETURN$);

  12968 19 000524   000007 236000 20                 LDQ     7
        19 000525   200014 756100                    STQ     P_CONSTANT+2,,AUTO
        19 000526   200006 236100                    LDQ     @RETURN$,,AUTO
        19 000527   200021 756100                    STQ     P_CONSTANT+7,,AUTO
        19 000530   200014 631500                    EPPR1   P_CONSTANT+2,,AUTO
        19 000531   200020 451500                    STP1    P_CONSTANT+6,,AUTO
        19 000532   000011 235000 20                 LDA     9
        19 000533   200016 757100                    STAQ    P_CONSTANT+4,,AUTO
        19 000534   200016 630500                    EPPR0   P_CONSTANT+4,,AUTO
        19 000535   000001 631400 20                 EPPR1   1
        19 000536   000000 701000 xent               TSX1    Z8AF$FORME
        19 000537   000000 011000                    NOP     0

      389    12969
      390    12970    1   END Z8AC$MAKE_TYA_CONST;

  12970 19 000540   000000 702200 xent               TSX2  ! X66_ARET

PL6.E3A0      #003=Z8AC$MAKE_TYA_CONST File=Z8AC.:Z8A6TSI                        SAT 08/09/97 10:46 Page:81
--  Include file information  --

   Z8E_O1COM.:Z8A6TOU  cannot be made into a system file and is referenced.
   Z8A_LEX_SYMB.:Z8A6TOU  cannot be made into a system file and is referenced.
   Z8E_STACKS.:Z8A6TOU  cannot be made into a system file and is referenced.
   Z8A_LTS.:Z8A6TOU  cannot be made into a system file and is referenced.
   Z8A_ETT.:Z8A6TOU  cannot be made into a system file and is referenced.
   Z8A_DNT.:Z8A6TOU  cannot be made into a system file and is referenced.
   Z8A_ST.:Z8A6TOU  cannot be made into a system file and is referenced.
   Z8A_TYPES.:Z8A6TOU  is referenced.
   Z8A_COMCOM.:Z8A6TOU  cannot be made into a system file and is referenced.
   X8A_COM_MACS.:X8A6TOU  is referenced.
   Z8A_NAMES.:Z8A6TOU  is referenced.
   Z8A_SUPP_MAC.:Z8A6TOU  is referenced.
   Z8A_DEFC.:Z8A6TOU  cannot be made into a system file and is referenced.
      No diagnostics issued in procedure Z8AC$MAKE_TYA_CONST.
PL6.E3A0      #003=Z8AC$MAKE_TYA_CONST File=Z8AC.:Z8A6TSI                        SAT 08/09/97 10:46 Page:82

 **** Variables and constants ****

  ****  Section 000 LblCom ITERATION

  ****  Scalars and arrays  ****
OctLoc.c.b A Datatyp(siz) R M Lvl/name                 OctLoc.c.b A Datatyp(siz) R M Lvl/name

     0-0-0/w SBIN        r     1 ITERATION

  ****  Section 001 LblCom ST$

  ****  Scalars and arrays  ****
OctLoc.c.b A Datatyp(siz) R M Lvl/name                 OctLoc.c.b A Datatyp(siz) R M Lvl/name

     0-0-0/w PTR         r     1 ST$

  ****  Section 002 LblCom ST_

  ****  Scalars and arrays  ****
OctLoc.c.b A Datatyp(siz) R M Lvl/name                 OctLoc.c.b A Datatyp(siz) R M Lvl/name

     0-0-0/w STRC(180)   r     1 ST_

  ****  Section 003 LblCom DNT$

  ****  Scalars and arrays  ****
OctLoc.c.b A Datatyp(siz) R M Lvl/name                 OctLoc.c.b A Datatyp(siz) R M Lvl/name

     0-0-0/w PTR         r     1 DNT$

  ****  Section 004 LblCom DNT_

  ****  Scalars and arrays  ****
OctLoc.c.b A Datatyp(siz) R M Lvl/name                 OctLoc.c.b A Datatyp(siz) R M Lvl/name

     0-0-0/w STRC(180)   r     1 DNT_

PL6.E3A0      #003=Z8AC$MAKE_TYA_CONST File=Z8AC.:Z8A6TSI                        SAT 08/09/97 10:46 Page:83
  ****  Section 005 LblCom DNT_BUCKET_NUMBER

  ****  Scalars and arrays  ****
OctLoc.c.b A Datatyp(siz) R M Lvl/name                 OctLoc.c.b A Datatyp(siz) R M Lvl/name

     0-0-0/w UBIN              1 DNT_BUCKET_NUMBER

  ****  Section 006 LblCom DNT_OF_1$

  ****  Scalars and arrays  ****
OctLoc.c.b A Datatyp(siz) R M Lvl/name                 OctLoc.c.b A Datatyp(siz) R M Lvl/name

     0-0-0/w PTR               1 DNT_OF_1$

  ****  Section 007 LblCom ETT$

  ****  Scalars and arrays  ****
OctLoc.c.b A Datatyp(siz) R M Lvl/name                 OctLoc.c.b A Datatyp(siz) R M Lvl/name

     0-0-0/w PTR         r     1 ETT$

  ****  Section 008 LblCom HEAD_ETT$

  ****  Scalars and arrays  ****
OctLoc.c.b A Datatyp(siz) R M Lvl/name                 OctLoc.c.b A Datatyp(siz) R M Lvl/name

     0-0-0/w PTR               1 HEAD_ETT$

  ****  Section 009 LblCom ETT_BUCKETS

  ****  Scalars and arrays  ****
OctLoc.c.b A Datatyp(siz) R M Lvl/name                 OctLoc.c.b A Datatyp(siz) R M Lvl/name

     0-0-0/w PTR               1 ETT_BUCKETS(0:511)

  ****  Section 010 LblCom ETT_

PL6.E3A0      #003=Z8AC$MAKE_TYA_CONST File=Z8AC.:Z8A6TSI                        SAT 08/09/97 10:46 Page:84
  ****  Scalars and arrays  ****
OctLoc.c.b A Datatyp(siz) R M Lvl/name                 OctLoc.c.b A Datatyp(siz) R M Lvl/name

     0-0-0/w STRC(180)         1 ETT_

  ****  Section 011 LblCom LTS$

  ****  Scalars and arrays  ****
OctLoc.c.b A Datatyp(siz) R M Lvl/name                 OctLoc.c.b A Datatyp(siz) R M Lvl/name

     0-0-0/w PTR               1 LONG_ITEM$                 0-0-0/w PTR         r     1 LTS$

  ****  Section 012 LblCom LTS_

  ****  Scalars and arrays  ****
OctLoc.c.b A Datatyp(siz) R M Lvl/name                 OctLoc.c.b A Datatyp(siz) R M Lvl/name

     0-0-0/w STRC(180)   r     1 LTS_

  ****  Section 013 LblCom LEX_SYMBOL

  ****  Scalars and arrays  ****
OctLoc.c.b A Datatyp(siz) R M Lvl/name                 OctLoc.c.b A Datatyp(siz) R M Lvl/name

     0-0-0/w STRC(3240)  r     1 LEX_SYMBOL                 0-0-0/w STRC(3240)        1 LEX_SYMBOL_WORDS

  ****  Section 014 LblCom CURRENT_LEX_SYMBOL$

  ****  Scalars and arrays  ****
OctLoc.c.b A Datatyp(siz) R M Lvl/name                 OctLoc.c.b A Datatyp(siz) R M Lvl/name

     0-0-0/w PTR         r     1 CURRENT_LEX_SYMBOL$

  ****  Section 015 LblCom TEMP_LEX_SYMBOL

  ****  Scalars and arrays  ****
OctLoc.c.b A Datatyp(siz) R M Lvl/name                 OctLoc.c.b A Datatyp(siz) R M Lvl/name
PL6.E3A0      #003=Z8AC$MAKE_TYA_CONST File=Z8AC.:Z8A6TSI                        SAT 08/09/97 10:46 Page:85

     0-0-0/w STRC(3240)        1 TEMP_LEX_SYMBOL

  ****  Section 016 LblCom TEMP_LEX_SYMBOL2

  ****  Scalars and arrays  ****
OctLoc.c.b A Datatyp(siz) R M Lvl/name                 OctLoc.c.b A Datatyp(siz) R M Lvl/name

     0-0-0/w STRC(3240)        1 TEMP_LEX_SYMBOL2

  ****  Section 017  Data  Z8AC$MAKE_TYA_CONST

  ****  Scalars and arrays  ****
OctLoc.c.b A Datatyp(siz) R M Lvl/name                 OctLoc.c.b A Datatyp(siz) R M Lvl/name

     0-0-0/w STRC        r     1 DESC1                      1-0-0/w STRC        r     1 DESC2
     0-0-0/w UBIN        r     1 DESCR1                     1-0-0/w UBIN        r     1 DESCR2

  ****  Auto variables  ****

  ****  Scalars and arrays  ****
OctLoc.c.b A Datatyp(siz) R M Lvl/name                 OctLoc.c.b A Datatyp(siz) R M Lvl/name

     5-0-0/w PTR         r     1 @CN                        4-0-0/w PTR         r     1 @LENGTH
     6-0-0/w PTR         r     1 @RETURN$                   3-0-0/w PTR         r     1 @TYA_CONST
    *0-0-0/w SBIN        r     1 CN                         7-0-0/w PTR         r     1 LAST_ST$
    *0-0-0/w SBIN        r     1 LENGTH                    11-0-0/w SBIN        r     1 PACKED_LENGTH
    12-0-0/c CHAR(6)     r     1 P_CONSTANT                *0-0-0/w PTR         r     1 RETURN$
    *0-0-0/c ACHR        r     1 TYA_CONST                 10-0-0/w SBIN        r     1 TYPE

  ****  SYMREF variables  ****

  ****  Scalars and arrays  ****
OctLoc.c.b A Datatyp(siz) R M Lvl/name                 OctLoc.c.b A Datatyp(siz) R M Lvl/name

     0-0-0/d STRC(13248)       1 COMCOM
     0-0-0/w STRC(180)         1 HIER_STK(0:50)
PL6.E3A0      #003=Z8AC$MAKE_TYA_CONST File=Z8AC.:Z8A6TSI                        SAT 08/09/97 10:46 Page:86
     0-0-0/w SBIN              1 HIER_STK_PTR
     0-0-0/w UBIN              1 LTS_STEP(0:37)
     0-0-0/d STRC(11580) r     1 O1COM                      0-0-0/w STRC(144)         1 PAGE_FORMAT
     0-0-0/w STRC(153)         1 REP_STK(0:50)              0-0-0/w SBIN              1 REP_STK_PTR

  ****  BASED and DCB variables  ****

  ****  Scalars and arrays  ****
OctLoc.c.b A Datatyp(siz) R M Lvl/name                 OctLoc.c.b A Datatyp(siz) R M Lvl/name

     0-0-0/w STRC(288)         1 ADD_STMT                   0-0-0/w STRC(396)         1 ALPHABET
     0-0-0/w STRC(144)         1 ALTER_LTS                  0-0-0/w STRC(3672)        1 ALT_KEY
     0-0-0/w STRC(36864)       1 ARGLIST                    0-0-0/w STRC(396)         1 ARRAY
     0-0-0/w STRC(180)         1 ARRAY_PRESET_LTS           0-0-0/w ASTR(324)   r     1 BASED_LEX_SYMBOL
     0-0-0/w STRC(360)         1 BASED_LEX_SYMBOL_WORDS
     0-0-0/w STRC(288)         1 BASE_LTS                   0-0-0/w STRC(288)         1 BINARY_OP
     0-0-0/w STRC(396)         1 BLOCK                      0-0-0/w STRC(144)         1 BT
     0-0-0/w STRC(288)         1 CALL_STMT                  0-0-0/w STRC(396)         1 CD
     0-0-0/w STRC(288)         1 CD_LTS                     0-0-0/w CHAR(4096)        1 CHARS
     0-0-0/w STRC(396)         1 CLASS                      0-0-0/w STRC(288)         1 COMPUTE_STMT
     0-0-0/w STRC(396)         1 CONDITION                  0-0-0/w STRC(396)   r     1 CONST
     0-0-0/w STRC(72)          1 CONT                       0-0-0/w STRC(540)         1 CONTROL_NAME_LTS
     0-0-0/w STRC(1872)        1 COPY_FILE                  0-0-0/w STRC(396)         1 DB
     0-0-0/w STRC(396)         1 DCB_                       0-0-0/w STRC(288)         1 DEFERED_IDENTIFIER
     0-0-0/w STRC(252)         1 DEFERED_ID_TREE            0-0-0/w STRC(288)         1 DEFERED_QUAL_ID
     0-0-0/w STRC(288)         1 DEFERED_SUM_CLAUSE
     0-0-0/w STRC(288)         1 DEFERED_SUM_CLAUSE_LIST
     0-0-0/w STRC(288)         1 DELETE_STMT                0-0-0/w STRC(108)         1 DEPENDING_SIZE
     0-0-0/w STRC(5472)        1 DIMS                       0-0-0/w STRC(288)         1 DIVIDE_STMT
     0-0-0/w STRC(396)         1 DML_ITEM                   0-0-0/w STRC(216)         1 DML_REC
     0-0-0/w ASTR(180)   r     1 DNT                        0-0-0/w STRC(180)         1 ETT
     0-0-0/w STRC(73836)       1 EVALUATE                   0-0-0/w STRC(396)         1 FD
     0-0-0/w STRC(1692)        1 FILE_LTS                   0-0-0/w STRC(288)         1 ILS_LIST
     0-0-0/w STRC(108)         1 INDEXES                    0-0-0/w STRC(360)         1 INIT_LTS
     0-0-0/w STRC(288)         1 INSPECT_1_STMT             0-0-0/w STRC(288)         1 INSPECT_2_STMT
     0-0-0/w STRC(288)         1 INSPECT_4_STMT             0-0-0/w STRC(396)         1 INTDEF
     0-0-0/w STRC(180)         1 IO_RESTORE_CHAIN           0-0-0/w STRC(144)         1 KEY
PL6.E3A0      #003=Z8AC$MAKE_TYA_CONST File=Z8AC.:Z8A6TSI                        SAT 08/09/97 10:46 Page:87
     0-0-0/w STRC(396)         1 LABEL                      0-0-0/w STRC(288)         1 LA_ITEM
     0-0-0/w STRC(36864) r     1 LCNST                      0-0-0/w STRC(72)          1 LONG
     0-0-0/w STRC        r     1 LTS                        0-0-0/w STRC(360)         1 LTSS
     0-0-0/w STRC(36936)       1 LTS_PTR_ARRAY              0-0-0/w STRC(504)         1 LX_CD_INPUT
     0-0-0/w STRC(324)         1 LX_CD_I_O                  0-0-0/w STRC(396)         1 LX_CD_OUTPUT
     0-0-0/w STRC(288)         1 LX_ETT_ITEM                0-0-0/w STRC(288)         1 LX_ITEM
     0-0-0/w STRC(288)         1 LX_LARGE                   0-0-0/w STRC(288)         1 LX_LIST
     0-0-0/w STRC(1224)        1 LX_REC_DECL                0-0-0/w STRC(864)         1 LX_REPORT_REC
     0-0-0/w STRC(288)         1 LX_TERMINAL                0-0-0/w STRC(396)         1 MNEMONIC
     0-0-0/w STRC(288)         1 MULTIPLY_STMT              0-0-0/w STRC(144)         1 NEL
     0-0-0/w STRC(216)         1 OPEN_LTS                   0-0-0/w STRC(36864)       1 PAGE
     0-0-0/w STRC(396)         1 PARA                       0-0-0/w STRC(144)         1 PRIME
     0-0-0/w STRC(396)         1 PROC_                      0-0-0/w STRC(396)         1 PROC_DEF
     0-0-0/w STRC(900)         1 PROC_SUPP                  0-0-0/w STRC(396)         1 RD
     0-0-0/w STRC(288)         1 READ_STMT                  0-0-0/w STRC(216)         1 REF
     0-0-0/w STRC(108)         1 RENAMES                    0-0-0/w STRC(720)         1 REPORT_01_LTS
     0-0-0/w STRC(432)         1 REPORT_ELEM_LTS            0-0-0/w STRC(252)         1 REPORT_GRP_LTS
     0-0-0/w STRC(1332)        1 REPORT_LTS                 0-0-0/w STRC(288)         1 REWRITE_STMT
     0-0-0/w STRC(144)         1 RVA_LTS                    0-0-0/w STRC(396)         1 SCALAR
     0-0-0/w STRC(396)         1 SD                         0-0-0/w STRC(396)         1 SECTION
     0-0-0/w STRC(396)         1 SEGMENT                    0-0-0/w STRC(360)         1 SEGMENT_LTS
     0-0-0/w STRC(396)   r     1 ST                         0-0-0/w STRC(288)         1 START_STMT
     0-0-0/w STRC(252)         1 STRING_STMT                0-0-0/w STRC(288)         1 SUBTRACT_STMT
     0-0-0/w STRC(252)         1 SUM_LTS                    0-0-0/w STRC(396)         1 SWITCH
     0-0-0/w STRC(396)         1 SYMBOLIC_CHAR              0-0-0/w STRC(396)         1 SYMDEF_
     0-0-0/w STRC(396)         1 SYMREF_                    0-0-0/w STRC(396)         1 TEMP
     0-0-0/w STRC(288)         1 UNARY_OP                   0-0-0/w STRC(288)         1 UNSTRING_STMT
     0-0-0/d STRC(612)         1 USE                        0-0-0/w STRC(252)         1 USE_SUPP
     0-0-0/w STRC(396)         1 VARIABLE                   0-0-0/w STRC(288)         1 WRITE_STMT


   Procedure Z8AC$MAKE_TYA_CONST requires 353 words for executable code.
   Procedure Z8AC$MAKE_TYA_CONST requires 18 words of local(AUTO) storage.

    No errors detected in file Z8AC.:Z8A6TSI    .
