VERSION A06

PL6.E3A0      #001=Z8AE$ERROR File=Z8AE.:Z8A6TSI                                 SAT 08/09/97 10:42 Page:1
        1        1        /*M* Z8AE$ERROR -- RESERVE AN ERROR ITEM */
        2        2        /*T***********************************************************/
        3        3        /*T*                                                         */
        4        4        /*T* Copyright (c) Bull HN Information Systems Inc., 1997    */
        5        5        /*T*                                                         */
        6        6        /*T***********************************************************/
        7        7
        8        8
        9        9        /*P*    NAME: Z8AE$ERROR
       10       10
       11       11             PURPOSE: Reserve an ERROR item on the "ERR" table.
       12       12        */
       13       13
       14       14        /*D*    NAME: Z8AE$ERROR
       15       15
       16       16                CALL: CALL Z8AE$ERROR (Error#, [Line#], [Column#], [plugs]) ;
       17       17
       18       18           INTERFACE: Uses %RESERVE_ERR macro which could call Z8AR.
       19       19
       20       20               INPUT: LINE# (arg#2) -- Line# that error applies to.
       21       21                      COL# (arg#3) -- Col# that error applies.
       22       22                      ERROR_NUMBER (arg#1) -- Diagnostic# (see below).
       23       23                      PLUGn, n=0->4 (args 4-8) -- Ptr to LEXEME item.
       24       24
       25       25              OUTPUT: COMCOM.NO_OF_ERRORS -- Error count.
       26       26                      MAX_ERROR_GENERATED -- Max error number.
       27       27
       28       28           DESCRIPTION: The defaults for args 2 and 3 are as follows:
       29       29                        Arg#2 (LINE#) -- COMCOM.CURRENT.LINE
       30       30                        Arg#3 (COL#) --- COMCOM.CURRENT.COLUMN
       31       31
       32       32           ERRORS ARE NUMBERED AS FOLLOWS: (SEE Z8A_ERR_NUMS)
       33       33           000 - 099 *     INFO
       34       34           100 - 199 **    WARNING
       35       35           200 - 299 ***   LEVEL FLAG (EG, ANSI)
       36       36           300 - 899 ****  FATAL
       37       37           900 - 999 ***** TERMINAL (CALL Z9AT$TERMINATE)
PL6.E3A0      #001=Z8AE$ERROR File=Z8AE.:Z8A6TSI                                 SAT 08/09/97 10:42 Page:2
       38       38        */
       39       39
       40       40
       41       41        %EJECT;
PL6.E3A0      #001=Z8AE$ERROR File=Z8AE.:Z8A6TSI                                 SAT 08/09/97 10:42 Page:3
       42       42        Z8AE$ERROR: PROC (ERROR_NUMBER, LINE#, COL#, PLUG0, PLUG1, PLUG2,
       43       43                                PLUG3, PLUG4, PLUG5, PLUG6, PLUG7, PLUG8) ;
       44       44
       45       45        %EQU PHASE = 1 ;
       46       46        %INCLUDE Z8A_DEFC ;
       47      114        %INCLUDE Z8A_ERR ;
       48      183        %INCLUDE Z8A_ERR_NUMS ;
       49      947        %INCLUDE Z8A_COMCOM ;
       50     1597        %INCLUDE Z8A_SUPP_MAC ;
       51     3997        %INCLUDE Z9A_FLAGS ;
       52     4011
       53     4012        /* Entries */
       54     4013
       55     4014    1   DCL Z9AT$TERMINATOR    ENTRY;
       56     4015
       57     4016    1   DCL   ERROR_NUMBER UBIN WORD ;
       58     4017    1   DCL   LINE#        SBIN WORD ; /* Optional parameter          */
       59     4018    1   DCL   COL#         SBIN WORD ; /* Optional parameter          */
       60     4019    1   DCL   PLUG0        PTR ; /* PTR TO PLUG0 LEXEME ITEM          */
       61     4020    1   DCL   PLUG1        PTR ; /* PTR TO PLUG1 LEXEME ITEM          */
       62     4021    1   DCL   PLUG2        PTR ; /* PTR TO PLUG2 LEXEME ITEM          */
       63     4022    1   DCL   PLUG3        PTR ; /* PTR TO PLUG3 LEXEME ITEM          */
       64     4023    1   DCL   PLUG4        PTR ; /* PTR TO PLUG4 LEXEME ITEM          */
       65     4024    1   DCL   PLUG5        PTR ; /* PTR TO PLUG5 LEXEME ITEM          */
       66     4025    1   DCL   PLUG6        PTR ; /* PTR TO PLUG6 LEXEME ITEM          */
       67     4026    1   DCL   PLUG7        PTR ; /* PTR TO PLUG7 LEXEME ITEM          */
       68     4027    1   DCL   PLUG8        PTR ; /* PTR TO PLUG8 LEXEME ITEM          */
       69     4028    1   DCL   LINE_NUM     SBIN WORD ;
       70     4029    1   DCL   COL_NUM      SBIN WORD ;
       71     4030    1   DCL   NO_PLUGS     SBIN WORD STATIC ;
       72     4031    1   DCL   NXT$         PTR ; /* NEXT ERR ITEM                     */
       73     4032    1   DCL   PRV$         PTR ; /* PREVIOUS ERR ITEM                 */
       74     4033
       75     4034        %EJECT;
PL6.E3A0      #001=Z8AE$ERROR File=Z8AE.:Z8A6TSI                                 SAT 08/09/97 10:42 Page:4
       76     4035    1          IF ERROR_NUMBER < COMCOM.SEVERITY THEN
       77     4036    1            RETURN ;
       78     4037
       79     4038    1          COMCOM.MAX_ERROR = MAXIMUM (COMCOM.MAX_ERROR, ERROR_NUMBER) ;
       80     4039    1          MAX_ERROR_GENERATED = COMCOM.MAX_ERROR ; /* See Z9IO */
       81     4040
       82     4041    1          COMCOM.NO_OF_ERRORS = COMCOM.NO_OF_ERRORS + 1 ;
       83     4042
       84     4043    1          IF ADDR(LINE#) = ADDR(NIL) THEN
       85     4044    1            LINE_NUM = COMCOM.CURRENT.LINE ;
       86     4045    1          ELSE
       87     4046    1            LINE_NUM = LINE# ;
       88     4047
       89     4048    1          IF ADDR(COL#) = ADDR(NIL) THEN
       90     4049    1            COL_NUM = COMCOM.CURRENT.COLUMN ;
       91     4050    1          ELSE
       92     4051    1            COL_NUM = COL# ;
       93     4052
       94     4053    1          IF ADDR(PLUG0) = ADDR(NIL) THEN
       95     4054    1            NO_PLUGS = 0 ;
       96     4055    1          ELSE
       97     4056    1          IF ADDR(PLUG1) = ADDR(NIL) THEN
       98     4057    1            NO_PLUGS = 1 ;
       99     4058    1          ELSE
      100     4059    1          IF ADDR(PLUG2) = ADDR(NIL) THEN
      101     4060    1            NO_PLUGS = 2 ;
      102     4061    1          ELSE
      103     4062    1          IF ADDR(PLUG3) = ADDR(NIL) THEN
      104     4063    1            NO_PLUGS = 3 ;
      105     4064    1          ELSE
      106     4065    1          IF ADDR(PLUG4) = ADDR(NIL) THEN
      107     4066    1            NO_PLUGS = 4 ;
      108     4067    1          ELSE
      109     4068    1            NO_PLUGS = 5 ;
      110     4069
      111     4070    1   START: ; /* This label is not referenced */
      112     4071
PL6.E3A0      #001=Z8AE$ERROR File=Z8AE.:Z8A6TSI                                 SAT 08/09/97 10:42 Page:5
      113     4072        /*F*       NAME: Z8AE:START
      114     4073
      115     4074            DESCRIPTION:
      116     4075
      117     4076           Search the ERROR list backwards for the first line# that
      118     4077           is less than the current line#.  During Phase 1, this
      119     4078           should always be the first ERR item looked at.
      120     4079
      121     4080        */
      122     4081    1          PRV$ = ERR_TAIL ;
      123     4082
      124     4083    1   LINE_SEARCH:
      125     4084
      126     4085    2          DO WHILE (PRV$ ~= ADDR(NIL)) ;
      127     4086    2            IF  LINE_NUM >= PRV$->ERR.LINE THEN
      128     4087    2              EXIT LINE_SEARCH;
      129     4088    2            ELSE
      130     4089    2              PRV$ = PRV$ -> ERR.LAST ;
      131     4090    2          END ;
      132     4091    1   EXIT_LOOP:
      133     4092
      134     4093        /*F*       NAME: Z8AE:EXIT_LOOP
      135     4094
      136     4095            DESCRIPTION:
      137     4096
      138     4097           Link the new ERR item in between the one found (PRV$)
      139     4098           and the item following it (NXT$).  [During Phase 1
      140     4099           NXT$ will usually be null.]
      141     4100
      142     4101        */
      143     4102
      144     4103               %RESERVE_ERR (ITEM=%ERROR, POINTER=ERR$, SIZE=NO_PLUGS) ;
      145     4114    1          ERR$->ERR.NUMBER = ERROR_NUMBER ;
      146     4115    1          ERR$->ERR.LINE   = LINE_NUM ;
      147     4116    1          ERR$->ERR.COLUMN = COL_NUM ;
      148     4117
      149     4118    1          IF NO_PLUGS > 0 THEN
PL6.E3A0      #001=Z8AE$ERROR File=Z8AE.:Z8A6TSI                                 SAT 08/09/97 10:42 Page:6
      150     4119    1            COMCOM.PLUGS_USED = COMCOM.PLUGS_USED + 1 ;
      151     4120
      152     4121    2          DO CASE (NO_PLUGS) ;
      153     4122
      154     4123    2            CASE (0) ;
      155     4124                   /* Do nothing */
      156     4125
      157     4126    2            CASE (1) ;
      158     4127    2              ERR$->ERR.LEXEME$(0) = PLUG0 ;
      159     4128
      160     4129    2            CASE(2) ;
      161     4130    2              ERR$->ERR.LEXEME$(0) = PLUG0 ;
      162     4131    2              ERR$->ERR.LEXEME$(1) = PLUG1 ;
      163     4132
      164     4133    2            CASE(3) ;
      165     4134    2              ERR$->ERR.LEXEME$(0) = PLUG0 ;
      166     4135    2              ERR$->ERR.LEXEME$(1) = PLUG1 ;
      167     4136    2              ERR$->ERR.LEXEME$(2) = PLUG2 ;
      168     4137
      169     4138    2            CASE(4) ;
      170     4139    2              ERR$->ERR.LEXEME$(0) = PLUG0 ;
      171     4140    2              ERR$->ERR.LEXEME$(1) = PLUG1 ;
      172     4141    2              ERR$->ERR.LEXEME$(2) = PLUG2 ;
      173     4142    2              ERR$->ERR.LEXEME$(3) = PLUG3 ;
      174     4143
      175     4144    2            CASE(5) ;
      176     4145    2              ERR$->ERR.LEXEME$(0) = PLUG0 ;
      177     4146    2              ERR$->ERR.LEXEME$(1) = PLUG1 ;
      178     4147    2              ERR$->ERR.LEXEME$(2) = PLUG2 ;
      179     4148    2              ERR$->ERR.LEXEME$(3) = PLUG3 ;
      180     4149    2              ERR$->ERR.LEXEME$(4) = PLUG4 ;
      181     4150
      182     4151    2          END /* Case of number of plugins */ ;
      183     4152
      184     4153               %INSERT_INTO_DL_LIST (PTR = ERR$, ITEM = ERR,
      185     4154                                     HEAD = ERR_HEAD, PREV = PRV$) ;
      186     4182
PL6.E3A0      #001=Z8AE$ERROR File=Z8AE.:Z8A6TSI                                 SAT 08/09/97 10:42 Page:7
      187     4183    1          IF PRV$ = ERR_TAIL THEN
      188     4184    1            ERR_TAIL = ERR$ ;
      189     4185
      190     4186
      191     4187    1          IF ERROR_NUMBER >= %FIRST_FATAL THEN
      192     4188    1            IF COMCOM.ERRLIM = 0 THEN
      193     4189    2              DO;
      194     4190                     /* The error limit has been exceeded.  Issue an
      195     4191                        error stating the compile is terminated.  Then
      196     4192                        terminate this pup.                                   */
      197     4193
      198     4194                     %RESERVE_ERR (ITEM = %ERROR, POINTER = ERR$, SIZE = 0);
      199     4205
      200     4206    2                ERR$ -> ERR.NUMBER = %E$ERROR_LIMIT_EXCEEDED;
      201     4207    2                ERR$ -> ERR.LINE   = LINE_NUM;
      202     4208    2                ERR$ -> ERR.COLUMN = COL_NUM;
      203     4209
      204     4210                     %INSERT_INTO_DL_LIST (PTR = ERR$, ITEM = ERR,
      205     4211                                           HEAD = ERR_HEAD, PREV = PRV$);
      206     4239
      207     4240    2                COMCOM.MAX_ERROR = MAXIMUM (COMCOM.MAX_ERROR, %E$ERROR_LIMIT_EXCEEDED);
      208     4241    2                COMCOM.OB.LISTOUT = FALSE;
      209     4242                     %IF CP6;
      210     4243    2                COMCOM.OB.LO      = FALSE;
      211     4244                     %ENDIF;
      212     4245    2                COMCOM.OB.DECK    = FALSE;
      213     4246    2                COMCOM.OB.DSS     = FALSE;
      214     4247
      215     4248    2                CALL Z9AT$TERMINATOR;
      216     4249    2              END;
      217     4250    1            ELSE
      218     4251                   /* Another one bites the dust.  Another fatal error
      219     4252                      has been found, decrement the count in COMCOM.
      220     4253                      When it reaches zero the other part of this if
      221     4254                      executes.  In other words we terminate the compile
      222     4255                      because of the error limit being EXCEEDED!!!!      */
      223     4256    1              COMCOM.ERRLIM = COMCOM.ERRLIM - 1;
PL6.E3A0      #001=Z8AE$ERROR File=Z8AE.:Z8A6TSI                                 SAT 08/09/97 10:42 Page:8
      224     4257
      225     4258    1   END Z8AE$ERROR ;

PL6.E3A0      #001=Z8AE$ERROR File=Z8AE.:Z8A6TSI                                 SAT 08/09/97 10:42 Page:9
--  Include file information  --

   Z9A_FLAGS.:Z8A6TOU  is referenced.
   X8A_COM_MACS.:X8A6TOU  is referenced.
   Z8A_NAMES.:Z8A6TOU  is referenced.
   Z8A_SUPP_MAC.:Z8A6TOU  is referenced.
   Z8A_COMCOM.:Z8A6TOU  cannot be made into a system file and is referenced.
   Z8A_ERR_NUMS.:Z8A6TOU  is referenced.
   Z8A_ERR.:Z8A6TOU  cannot be made into a system file and is referenced.
   Z8A_DEFC.:Z8A6TOU  cannot be made into a system file and is referenced.
      No diagnostics issued in procedure Z8AE$ERROR.

   Procedure Z8AE$ERROR requires 295 words for executable code.
   Procedure Z8AE$ERROR requires 22 words of local(AUTO) storage.

    No errors detected in file Z8AE.:Z8A6TSI    .

PL6.E3A0      #001=Z8AE$ERROR File=Z8AE.:Z8A6TSI                                 SAT 08/09/97 10:42 Page:10

 Object Unit name= Z8AE$ERROR                                 File name= Z8AE.:Z8A6TOU
 UTS= AUG 09 '97 10:42:42.08 SAT                              Compiler= PL-6/E31         Sev=      00
 SharedLib= :SHARED_SYSTEM                                    Alt SharedLib=


    ****  Control sections  ****

 Sect   Type Bound  Init  Size OctSiz  Section name(segment info)
    0  LblCom even  none     1      1  ITERATION
    1  LblCom even  none     1      1  ERR$
    2  LblCom even  none     1      1  ERR_HEAD
    3  LblCom even  none     1      1  ERR_TAIL
    4  LblCom even  none     1      1  MAX_ERROR_GENERATED
    5  LblCom even  none     5      5  ERR_
    6   Data  even  none     1      1  Z8AE$ERROR
    7   Proc  even  none   295    447  Z8AE$ERROR
    8  RoData even  none     5      5  Z8AE$ERROR

    ****  Entry defs  ****

                              Check   Calling
                             calling  sequence
  Sect OctLoc Primary Altret sequence   type   Parms  Name
     7      0   yes            yes      Std       12  Z8AE$ERROR

  ****  Entry refs  ****

         Check        Calling
        calling       sequence
Altret sequence SRef   type   Args  Name
         yes           Std       1 Z8AR$RESERVER
         yes           Std       0 Z9AT$TERMINATOR
                       nStd      0 X66_AUTO_N
                       nStd      0 X66_ARET
PL6.E3A0      #001=Z8AE$ERROR File=Z8AE.:Z8A6TSI                                 SAT 08/09/97 10:42 Page:11

  ****  Data refs  ****

  Flags:  r = read only, s = secondary
Flgs Name                             Flgs Name                             Flgs Name
     COMCOM

  ****  Segment refs  ****

  Flags:  r = read only, s = secondary
Flgs Name                             Flgs Name                             Flgs Name
     NULLSID                               ISSID
PL6.E3A0      #001=Z8AE$ERROR File=Z8AE.:Z8A6TSI                                 SAT 08/09/97 10:42 Page:12


        1        1        /*M* Z8AE$ERROR -- RESERVE AN ERROR ITEM */
        2        2        /*T***********************************************************/
        3        3        /*T*                                                         */
        4        4        /*T* Copyright (c) Bull HN Information Systems Inc., 1997    */
        5        5        /*T*                                                         */
        6        6        /*T***********************************************************/
        7        7
        8        8
        9        9        /*P*    NAME: Z8AE$ERROR
       10       10
       11       11             PURPOSE: Reserve an ERROR item on the "ERR" table.
       12       12        */
       13       13
       14       14        /*D*    NAME: Z8AE$ERROR
       15       15
       16       16                CALL: CALL Z8AE$ERROR (Error#, [Line#], [Column#], [plugs]) ;
       17       17
       18       18           INTERFACE: Uses %RESERVE_ERR macro which could call Z8AR.
       19       19
       20       20               INPUT: LINE# (arg#2) -- Line# that error applies to.
       21       21                      COL# (arg#3) -- Col# that error applies.
       22       22                      ERROR_NUMBER (arg#1) -- Diagnostic# (see below).
       23       23                      PLUGn, n=0->4 (args 4-8) -- Ptr to LEXEME item.
       24       24
       25       25              OUTPUT: COMCOM.NO_OF_ERRORS -- Error count.
       26       26                      MAX_ERROR_GENERATED -- Max error number.
       27       27
       28       28           DESCRIPTION: The defaults for args 2 and 3 are as follows:
       29       29                        Arg#2 (LINE#) -- COMCOM.CURRENT.LINE
       30       30                        Arg#3 (COL#) --- COMCOM.CURRENT.COLUMN
       31       31
       32       32           ERRORS ARE NUMBERED AS FOLLOWS: (SEE Z8A_ERR_NUMS)
       33       33           000 - 099 *     INFO
       34       34           100 - 199 **    WARNING
       35       35           200 - 299 ***   LEVEL FLAG (EG, ANSI)
       36       36           300 - 899 ****  FATAL
PL6.E3A0      #001=Z8AE$ERROR File=Z8AE.:Z8A6TSI                                 SAT 08/09/97 10:42 Page:13
       37       37           900 - 999 ***** TERMINAL (CALL Z9AT$TERMINATE)
       38       38        */
       39       39
       40       40
       41       41        %EJECT;
PL6.E3A0      #001=Z8AE$ERROR File=Z8AE.:Z8A6TSI                                 SAT 08/09/97 10:42 Page:14
       42       42        Z8AE$ERROR: PROC (ERROR_NUMBER, LINE#, COL#, PLUG0, PLUG1, PLUG2,

     42  7 000000   000000 700200 xent  Z8AE$ERROR   TSX0  ! X66_AUTO_N
         7 000001   000026 000014                    ZERO    22,12

       43       43                                PLUG3, PLUG4, PLUG5, PLUG6, PLUG7, PLUG8) ;
       44       44
       45       45        %EQU PHASE = 1 ;
       46       46        %INCLUDE Z8A_DEFC ;
       47      114        %INCLUDE Z8A_ERR ;
       48      183        %INCLUDE Z8A_ERR_NUMS ;
       49      947        %INCLUDE Z8A_COMCOM ;
       50     1597        %INCLUDE Z8A_SUPP_MAC ;
       51     3997        %INCLUDE Z9A_FLAGS ;
       52     4011
       53     4012        /* Entries */
       54     4013
       55     4014    1   DCL Z9AT$TERMINATOR    ENTRY;
       56     4015
       57     4016    1   DCL   ERROR_NUMBER UBIN WORD ;
       58     4017    1   DCL   LINE#        SBIN WORD ; /* Optional parameter          */
       59     4018    1   DCL   COL#         SBIN WORD ; /* Optional parameter          */
       60     4019    1   DCL   PLUG0        PTR ; /* PTR TO PLUG0 LEXEME ITEM          */
       61     4020    1   DCL   PLUG1        PTR ; /* PTR TO PLUG1 LEXEME ITEM          */
       62     4021    1   DCL   PLUG2        PTR ; /* PTR TO PLUG2 LEXEME ITEM          */
       63     4022    1   DCL   PLUG3        PTR ; /* PTR TO PLUG3 LEXEME ITEM          */
       64     4023    1   DCL   PLUG4        PTR ; /* PTR TO PLUG4 LEXEME ITEM          */
       65     4024    1   DCL   PLUG5        PTR ; /* PTR TO PLUG5 LEXEME ITEM          */
       66     4025    1   DCL   PLUG6        PTR ; /* PTR TO PLUG6 LEXEME ITEM          */
       67     4026    1   DCL   PLUG7        PTR ; /* PTR TO PLUG7 LEXEME ITEM          */
       68     4027    1   DCL   PLUG8        PTR ; /* PTR TO PLUG8 LEXEME ITEM          */
       69     4028    1   DCL   LINE_NUM     SBIN WORD ;
       70     4029    1   DCL   COL_NUM      SBIN WORD ;
       71     4030    1   DCL   NO_PLUGS     SBIN WORD STATIC ;
       72     4031    1   DCL   NXT$         PTR ; /* NEXT ERR ITEM                     */
       73     4032    1   DCL   PRV$         PTR ; /* PREVIOUS ERR ITEM                 */
       74     4033
PL6.E3A0      #001=Z8AE$ERROR File=Z8AE.:Z8A6TSI                                 SAT 08/09/97 10:42 Page:15
       75     4034        %EJECT;
PL6.E3A0      #001=Z8AE$ERROR File=Z8AE.:Z8A6TSI                                 SAT 08/09/97 10:42 Page:16
       76     4035    1          IF ERROR_NUMBER < COMCOM.SEVERITY THEN

   4035  7 000002   200003 470500                    LDP0    @ERROR_NUMBER,,AUTO
         7 000003   000000 236100                    LDQ     0,,PR0
         7 000004   000374 116000 xsym               CMPQ    COMCOM+252
         7 000005   000007 603000 7                  TRC     s:4038

       77     4036    1            RETURN ;

   4036  7 000006   000000 702200 xent               TSX2  ! X66_ARET

       78     4037
       79     4038    1          COMCOM.MAX_ERROR = MAXIMUM (COMCOM.MAX_ERROR, ERROR_NUMBER) ;

   4038  7 000007   000000 116003                    CMPQ    0,DU
         7 000010   000014 604000 7                  TMI     s:4038+5
         7 000011   000002 116000 xsym               CMPQ    COMCOM+2
         7 000012   000014 605000 7                  TPL     s:4038+5
         7 000013   000002 236000 xsym               LDQ     COMCOM+2
         7 000014   000002 756000 xsym               STQ     COMCOM+2

       80     4039    1          MAX_ERROR_GENERATED = COMCOM.MAX_ERROR ; /* See Z9IO */

   4039  7 000015   000000 756000 4                  STQ     MAX_ERROR_GENERATED

       81     4040
       82     4041    1          COMCOM.NO_OF_ERRORS = COMCOM.NO_OF_ERRORS + 1 ;

   4041  7 000016   000003 054000 xsym               AOS     COMCOM+3

       83     4042
       84     4043    1          IF ADDR(LINE#) = ADDR(NIL) THEN

   4043  7 000017   200004 236100                    LDQ     @LINE#,,AUTO
         7 000020   000000 116000 8                  CMPQ    0
         7 000021   000025 601000 7                  TNZ     s:4046

PL6.E3A0      #001=Z8AE$ERROR File=Z8AE.:Z8A6TSI                                 SAT 08/09/97 10:42 Page:17
       85     4044    1            LINE_NUM = COMCOM.CURRENT.LINE ;

   4044  7 000022   000133 235000 xsym               LDA     COMCOM+91
         7 000023   200017 755100                    STA     LINE_NUM,,AUTO
         7 000024   000030 710000 7                  TRA     s:4048

       86     4045    1          ELSE
       87     4046    1            LINE_NUM = LINE# ;

   4046  7 000025   200004 471500                    LDP1    @LINE#,,AUTO
         7 000026   100000 235100                    LDA     0,,PR1
         7 000027   200017 755100                    STA     LINE_NUM,,AUTO

       88     4047
       89     4048    1          IF ADDR(COL#) = ADDR(NIL) THEN

   4048  7 000030   200005 236100                    LDQ     @COL#,,AUTO
         7 000031   000000 116000 8                  CMPQ    0
         7 000032   000036 601000 7                  TNZ     s:4051

       90     4049    1            COL_NUM = COMCOM.CURRENT.COLUMN ;

   4049  7 000033   000134 235000 xsym               LDA     COMCOM+92
         7 000034   200020 755100                    STA     COL_NUM,,AUTO
         7 000035   000041 710000 7                  TRA     s:4053

       91     4050    1          ELSE
       92     4051    1            COL_NUM = COL# ;

   4051  7 000036   200005 471500                    LDP1    @COL#,,AUTO
         7 000037   100000 235100                    LDA     0,,PR1
         7 000040   200020 755100                    STA     COL_NUM,,AUTO

       93     4052
       94     4053    1          IF ADDR(PLUG0) = ADDR(NIL) THEN

   4053  7 000041   200006 236100                    LDQ     @PLUG0,,AUTO
PL6.E3A0      #001=Z8AE$ERROR File=Z8AE.:Z8A6TSI                                 SAT 08/09/97 10:42 Page:18
         7 000042   000000 116000 8                  CMPQ    0
         7 000043   000046 601000 7                  TNZ     s:4056

       95     4054    1            NO_PLUGS = 0 ;

   4054  7 000044   000000 450000 6                  STZ     NO_PLUGS
         7 000045   000100 710000 7                  TRA     START

       96     4055    1          ELSE
       97     4056    1          IF ADDR(PLUG1) = ADDR(NIL) THEN

   4056  7 000046   200007 236100                    LDQ     @PLUG1,,AUTO
         7 000047   000000 116000 8                  CMPQ    0
         7 000050   000054 601000 7                  TNZ     s:4059

       98     4057    1            NO_PLUGS = 1 ;

   4057  7 000051   000001 235007                    LDA     1,DL
         7 000052   000000 755000 6                  STA     NO_PLUGS
         7 000053   000100 710000 7                  TRA     START

       99     4058    1          ELSE
      100     4059    1          IF ADDR(PLUG2) = ADDR(NIL) THEN

   4059  7 000054   200010 236100                    LDQ     @PLUG2,,AUTO
         7 000055   000000 116000 8                  CMPQ    0
         7 000056   000062 601000 7                  TNZ     s:4062

      101     4060    1            NO_PLUGS = 2 ;

   4060  7 000057   000002 235007                    LDA     2,DL
         7 000060   000000 755000 6                  STA     NO_PLUGS
         7 000061   000100 710000 7                  TRA     START

      102     4061    1          ELSE
      103     4062    1          IF ADDR(PLUG3) = ADDR(NIL) THEN

PL6.E3A0      #001=Z8AE$ERROR File=Z8AE.:Z8A6TSI                                 SAT 08/09/97 10:42 Page:19
   4062  7 000062   200011 236100                    LDQ     @PLUG3,,AUTO
         7 000063   000000 116000 8                  CMPQ    0
         7 000064   000070 601000 7                  TNZ     s:4065

      104     4063    1            NO_PLUGS = 3 ;

   4063  7 000065   000003 235007                    LDA     3,DL
         7 000066   000000 755000 6                  STA     NO_PLUGS
         7 000067   000100 710000 7                  TRA     START

      105     4064    1          ELSE
      106     4065    1          IF ADDR(PLUG4) = ADDR(NIL) THEN

   4065  7 000070   200012 236100                    LDQ     @PLUG4,,AUTO
         7 000071   000000 116000 8                  CMPQ    0
         7 000072   000076 601000 7                  TNZ     s:4068

      107     4066    1            NO_PLUGS = 4 ;

   4066  7 000073   000004 235007                    LDA     4,DL
         7 000074   000000 755000 6                  STA     NO_PLUGS
         7 000075   000100 710000 7                  TRA     START

      108     4067    1          ELSE
      109     4068    1            NO_PLUGS = 5 ;

   4068  7 000076   000005 235007                    LDA     5,DL
         7 000077   000000 755000 6                  STA     NO_PLUGS

   4062  7 000100                       START        null
      110     4069
      111     4070    1   START: ; /* This label is not referenced */
      112     4071
      113     4072        /*F*       NAME: Z8AE:START
      114     4073
      115     4074            DESCRIPTION:
      116     4075
PL6.E3A0      #001=Z8AE$ERROR File=Z8AE.:Z8A6TSI                                 SAT 08/09/97 10:42 Page:20
      117     4076           Search the ERROR list backwards for the first line# that
      118     4077           is less than the current line#.  During Phase 1, this
      119     4078           should always be the first ERR item looked at.
      120     4079
      121     4080        */
      122     4081    1          PRV$ = ERR_TAIL ;

   4081  7 000100   000000 236000 3                  LDQ     ERR_TAIL
         7 000101   200022 756100                    STQ     PRV$,,AUTO

      123     4082
      124     4083    1   LINE_SEARCH:
      125     4084
      126     4085    2          DO WHILE (PRV$ ~= ADDR(NIL)) ;

   4085  7 000102   000112 710000 7     LINE_SEARCH  TRA     s:4090

      127     4086    2            IF  LINE_NUM >= PRV$->ERR.LINE THEN

   4086  7 000103   200022 470500                    LDP0    PRV$,,AUTO
         7 000104   000002 236100                    LDQ     2,,PR0
         7 000105   000022 772000                    QRL     18
         7 000106   200017 116100                    CMPQ    LINE_NUM,,AUTO
         7 000107   000114 604400 7                  TMOZ    EXIT_LOOP

      128     4087    2              EXIT LINE_SEARCH;
      129     4088    2            ELSE
      130     4089    2              PRV$ = PRV$ -> ERR.LAST ;

   4089  7 000110   000004 236100                    LDQ     4,,PR0
         7 000111   200022 756100                    STQ     PRV$,,AUTO

      131     4090    2          END ;

   4090  7 000112   000000 116000 8                  CMPQ    0
         7 000113   000103 601000 7                  TNZ     s:4086

PL6.E3A0      #001=Z8AE$ERROR File=Z8AE.:Z8A6TSI                                 SAT 08/09/97 10:42 Page:21
      132     4091    1   EXIT_LOOP:
      133     4092
      134     4093        /*F*       NAME: Z8AE:EXIT_LOOP
      135     4094
      136     4095            DESCRIPTION:
      137     4096
      138     4097           Link the new ERR item in between the one found (PRV$)
      139     4098           and the item following it (NXT$).  [During Phase 1
      140     4099           NXT$ will usually be null.]
      141     4100
      142     4101        */
      143     4102
      144     4103               %RESERVE_ERR (ITEM=%ERROR, POINTER=ERR$, SIZE=NO_PLUGS) ;

   4104  7 000114                       EXIT_LOOP    null
   4105  7 000114   000000 235000 6                  LDA     NO_PLUGS
         7 000115   000005 035007                    ADLA    5,DL
         7 000116   000000 755000 0                  STA     ITERATION

   4106  7 000117   000002 236000 5                  LDQ     ERR_+2
         7 000120   000000 036000 0                  ADLQ    ITERATION
         7 000121   000134 604000 7                  TMI     s:4108
         7 000122   000003 116000 5                  CMPQ    ERR_+3
         7 000123   000134 602000 7                  TNC     s:4108

   4107  7 000124   000002 236000 8                  LDQ     2
         7 000125   200024 756100                    STQ     PRV$+2,,AUTO
         7 000126   200024 630500                    EPPR0   PRV$+2,,AUTO
         7 000127   200025 450500                    STP0    PRV$+3,,AUTO
         7 000130   200025 630500                    EPPR0   PRV$+3,,AUTO
         7 000131   000001 631400 8                  EPPR1   1
         7 000132   000000 701000 xent               TSX1    Z8AR$RESERVER
         7 000133   000000 011000                    NOP     0

   4108  7 000134   000002 236000 5                  LDQ     ERR_+2
         7 000135   000022 736000                    QLS     18
         7 000136   000001 036000 5                  ADLQ    ERR_+1
PL6.E3A0      #001=Z8AE$ERROR File=Z8AE.:Z8A6TSI                                 SAT 08/09/97 10:42 Page:22
         7 000137   000000 756000 1                  STQ     ERR$

   4109  7 000140   000002 236000 5                  LDQ     ERR_+2
         7 000141   000000 036000 0                  ADLQ    ITERATION
         7 000142   000002 756000 5                  STQ     ERR_+2

   4110  7 000143   000750 220003                    LDX0    488,DU
         7 000144   000000 470400 1                  LDP0    ERR$
         7 000145   000000 740100                    STX0    0,,PR0

   4111  7 000146   000000 721000 0                  LXL1    ITERATION
         7 000147   000000 470400 1                  LDP0    ERR$
         7 000150   000000 441100                    SXL1    0,,PR0

      145     4114    1          ERR$->ERR.NUMBER = ERROR_NUMBER ;

   4114  7 000151   200003 470500                    LDP0    @ERROR_NUMBER,,AUTO
         7 000152   000000 721100                    LXL1    0,,PR0
         7 000153   000000 471400 1                  LDP1    ERR$
         7 000154   100001 741100                    STX1    1,,PR1

      146     4115    1          ERR$->ERR.LINE   = LINE_NUM ;

   4115  7 000155   200017 722100                    LXL2    LINE_NUM,,AUTO
         7 000156   100002 742100                    STX2    2,,PR1

      147     4116    1          ERR$->ERR.COLUMN = COL_NUM ;

   4116  7 000157   200020 723100                    LXL3    COL_NUM,,AUTO
         7 000160   100002 443100                    SXL3    2,,PR1

      148     4117
      149     4118    1          IF NO_PLUGS > 0 THEN

   4118  7 000161   000000 235000 6                  LDA     NO_PLUGS
         7 000162   000164 604400 7                  TMOZ    s:4121

PL6.E3A0      #001=Z8AE$ERROR File=Z8AE.:Z8A6TSI                                 SAT 08/09/97 10:42 Page:23
      150     4119    1            COMCOM.PLUGS_USED = COMCOM.PLUGS_USED + 1 ;

   4119  7 000163   000322 054000 xsym               AOS     COMCOM+210

      151     4120
      152     4121    2          DO CASE (NO_PLUGS) ;

   4121  7 000164   000006 115007                    CMPA    6,DL
         7 000165   000167 602005 7                  TNC     s:4121+3,AL
         7 000166   000256 710000 7                  TRA     s:4165
         7 000167   000256 710000 7                  TRA     s:4165
         7 000170   000175 710000 7                  TRA     s:4127
         7 000171   000201 710000 7                  TRA     s:4130
         7 000172   000210 710000 7                  TRA     s:4134
         7 000173   000222 710000 7                  TRA     s:4139
         7 000174   000237 710000 7                  TRA     s:4145

      153     4122
      154     4123    2            CASE (0) ;

      155     4124                   /* Do nothing */
      156     4125
      157     4126    2            CASE (1) ;

      158     4127    2              ERR$->ERR.LEXEME$(0) = PLUG0 ;

   4127  7 000175   200006 473500                    LDP3    @PLUG0,,AUTO
         7 000176   300000 236100                    LDQ     0,,PR3
         7 000177   100005 756100                    STQ     5,,PR1
         7 000200   000256 710000 7                  TRA     s:4165

      159     4128
      160     4129    2            CASE(2) ;

      161     4130    2              ERR$->ERR.LEXEME$(0) = PLUG0 ;

   4130  7 000201   200006 473500                    LDP3    @PLUG0,,AUTO
PL6.E3A0      #001=Z8AE$ERROR File=Z8AE.:Z8A6TSI                                 SAT 08/09/97 10:42 Page:24
         7 000202   300000 236100                    LDQ     0,,PR3
         7 000203   100005 756100                    STQ     5,,PR1

      162     4131    2              ERR$->ERR.LEXEME$(1) = PLUG1 ;

   4131  7 000204   200007 474500                    LDP4    @PLUG1,,AUTO
         7 000205   400000 236100                    LDQ     0,,PR4
         7 000206   100006 756100                    STQ     6,,PR1
         7 000207   000256 710000 7                  TRA     s:4165

      163     4132
      164     4133    2            CASE(3) ;

      165     4134    2              ERR$->ERR.LEXEME$(0) = PLUG0 ;

   4134  7 000210   200006 473500                    LDP3    @PLUG0,,AUTO
         7 000211   300000 236100                    LDQ     0,,PR3
         7 000212   100005 756100                    STQ     5,,PR1

      166     4135    2              ERR$->ERR.LEXEME$(1) = PLUG1 ;

   4135  7 000213   200007 474500                    LDP4    @PLUG1,,AUTO
         7 000214   400000 236100                    LDQ     0,,PR4
         7 000215   100006 756100                    STQ     6,,PR1

      167     4136    2              ERR$->ERR.LEXEME$(2) = PLUG2 ;

   4136  7 000216   200010 475500                    LDP5    @PLUG2,,AUTO
         7 000217   500000 236100                    LDQ     0,,PR5
         7 000220   100007 756100                    STQ     7,,PR1
         7 000221   000256 710000 7                  TRA     s:4165

      168     4137
      169     4138    2            CASE(4) ;

      170     4139    2              ERR$->ERR.LEXEME$(0) = PLUG0 ;

PL6.E3A0      #001=Z8AE$ERROR File=Z8AE.:Z8A6TSI                                 SAT 08/09/97 10:42 Page:25
   4139  7 000222   200006 473500                    LDP3    @PLUG0,,AUTO
         7 000223   300000 236100                    LDQ     0,,PR3
         7 000224   100005 756100                    STQ     5,,PR1

      171     4140    2              ERR$->ERR.LEXEME$(1) = PLUG1 ;

   4140  7 000225   200007 474500                    LDP4    @PLUG1,,AUTO
         7 000226   400000 236100                    LDQ     0,,PR4
         7 000227   100006 756100                    STQ     6,,PR1

      172     4141    2              ERR$->ERR.LEXEME$(2) = PLUG2 ;

   4141  7 000230   200010 475500                    LDP5    @PLUG2,,AUTO
         7 000231   500000 236100                    LDQ     0,,PR5
         7 000232   100007 756100                    STQ     7,,PR1

      173     4142    2              ERR$->ERR.LEXEME$(3) = PLUG3 ;

   4142  7 000233   200011 476500                    LDP6    @PLUG3,,AUTO
         7 000234   600000 236100                    LDQ     0,,PR6
         7 000235   100010 756100                    STQ     8,,PR1
         7 000236   000256 710000 7                  TRA     s:4165

      174     4143
      175     4144    2            CASE(5) ;

      176     4145    2              ERR$->ERR.LEXEME$(0) = PLUG0 ;

   4145  7 000237   200006 473500                    LDP3    @PLUG0,,AUTO
         7 000240   300000 236100                    LDQ     0,,PR3
         7 000241   100005 756100                    STQ     5,,PR1

      177     4146    2              ERR$->ERR.LEXEME$(1) = PLUG1 ;

   4146  7 000242   200007 474500                    LDP4    @PLUG1,,AUTO
         7 000243   400000 236100                    LDQ     0,,PR4
         7 000244   100006 756100                    STQ     6,,PR1
PL6.E3A0      #001=Z8AE$ERROR File=Z8AE.:Z8A6TSI                                 SAT 08/09/97 10:42 Page:26

      178     4147    2              ERR$->ERR.LEXEME$(2) = PLUG2 ;

   4147  7 000245   200010 475500                    LDP5    @PLUG2,,AUTO
         7 000246   500000 236100                    LDQ     0,,PR5
         7 000247   100007 756100                    STQ     7,,PR1

      179     4148    2              ERR$->ERR.LEXEME$(3) = PLUG3 ;

   4148  7 000250   200011 476500                    LDP6    @PLUG3,,AUTO
         7 000251   600000 236100                    LDQ     0,,PR6
         7 000252   100010 756100                    STQ     8,,PR1

      180     4149    2              ERR$->ERR.LEXEME$(4) = PLUG4 ;

   4149  7 000253   200012 477500                    LDP7    @PLUG4,,AUTO
         7 000254   700000 236100                    LDQ     0,,PR7
         7 000255   100011 756100                    STQ     9,,PR1

      181     4150
      182     4151    2          END /* Case of number of plugins */ ;

      183     4152
      184     4153               %INSERT_INTO_DL_LIST (PTR = ERR$, ITEM = ERR,
      185     4154                                     HEAD = ERR_HEAD, PREV = PRV$) ;

   4165  7 000256   200022 236100                    LDQ     PRV$,,AUTO
         7 000257   000000 116000 8                  CMPQ    0
         7 000260   000276 601000 7                  TNZ     s:4173

   4166  7 000261   000000 236000 2                  LDQ     ERR_HEAD
         7 000262   100003 756100                    STQ     3,,PR1

   4167  7 000263   000000 236000 8                  LDQ     0
         7 000264   100004 756100                    STQ     4,,PR1

   4168  7 000265   000000 236000 2                  LDQ     ERR_HEAD
PL6.E3A0      #001=Z8AE$ERROR File=Z8AE.:Z8A6TSI                                 SAT 08/09/97 10:42 Page:27
         7 000266   000000 116000 8                  CMPQ    0
         7 000267   000273 600000 7                  TZE     s:4170

   4169  7 000270   000000 236000 1                  LDQ     ERR$
         7 000271   000000 473400 2                  LDP3    ERR_HEAD
         7 000272   300004 756100                    STQ     4,,PR3

   4170  7 000273   000000 236000 1                  LDQ     ERR$
         7 000274   000000 756000 2                  STQ     ERR_HEAD

   4171  7 000275   000313 710000 7                  TRA     s:4183

   4173  7 000276   200022 473500                    LDP3    PRV$,,AUTO
         7 000277   300003 236100                    LDQ     3,,PR3
         7 000300   100003 756100                    STQ     3,,PR1

   4174  7 000301   200022 236100                    LDQ     PRV$,,AUTO
         7 000302   100004 756100                    STQ     4,,PR1

   4175  7 000303   300003 236100                    LDQ     3,,PR3
         7 000304   000000 116000 8                  CMPQ    0
         7 000305   000311 600000 7                  TZE     s:4177

   4176  7 000306   300003 474500                    LDP4    3,,PR3
         7 000307   000000 236000 1                  LDQ     ERR$
         7 000310   400004 756100                    STQ     4,,PR4

   4177  7 000311   000000 236000 1                  LDQ     ERR$
         7 000312   300003 756100                    STQ     3,,PR3

      186     4182
      187     4183    1          IF PRV$ = ERR_TAIL THEN

   4183  7 000313   200022 236100                    LDQ     PRV$,,AUTO
         7 000314   000000 116000 3                  CMPQ    ERR_TAIL
         7 000315   000320 601000 7                  TNZ     s:4187

PL6.E3A0      #001=Z8AE$ERROR File=Z8AE.:Z8A6TSI                                 SAT 08/09/97 10:42 Page:28
      188     4184    1            ERR_TAIL = ERR$ ;

   4184  7 000316   000000 236000 1                  LDQ     ERR$
         7 000317   000000 756000 3                  STQ     ERR_TAIL

      189     4185
      190     4186
      191     4187    1          IF ERROR_NUMBER >= %FIRST_FATAL THEN

   4187  7 000320   000000 235100                    LDA     0,,PR0
         7 000321   000454 115007                    CMPA    300,DL
         7 000322   000446 602000 7                  TNC     s:4258

      192     4188    1            IF COMCOM.ERRLIM = 0 THEN

   4188  7 000323   000474 236000 xsym               LDQ     COMCOM+316
         7 000324   000444 601000 7                  TNZ     s:4256

      193     4189    2              DO;

      194     4190                     /* The error limit has been exceeded.  Issue an
      195     4191                        error stating the compile is terminated.  Then
      196     4192                        terminate this pup.                                   */
      197     4193
      198     4194                     %RESERVE_ERR (ITEM = %ERROR, POINTER = ERR$, SIZE = 0);

   4196  7 000325   000005 235007                    LDA     5,DL
         7 000326   000000 755000 0                  STA     ITERATION

   4197  7 000327   000002 236000 5                  LDQ     ERR_+2
         7 000330   000000 036000 0                  ADLQ    ITERATION
         7 000331   000344 604000 7                  TMI     s:4199
         7 000332   000003 116000 5                  CMPQ    ERR_+3
         7 000333   000344 602000 7                  TNC     s:4199

   4198  7 000334   000002 236000 8                  LDQ     2
         7 000335   200024 756100                    STQ     PRV$+2,,AUTO
PL6.E3A0      #001=Z8AE$ERROR File=Z8AE.:Z8A6TSI                                 SAT 08/09/97 10:42 Page:29
         7 000336   200024 633500                    EPPR3   PRV$+2,,AUTO
         7 000337   200025 453500                    STP3    PRV$+3,,AUTO
         7 000340   200025 630500                    EPPR0   PRV$+3,,AUTO
         7 000341   000001 631400 8                  EPPR1   1
         7 000342   000000 701000 xent               TSX1    Z8AR$RESERVER
         7 000343   000000 011000                    NOP     0

   4199  7 000344   000002 236000 5                  LDQ     ERR_+2
         7 000345   000022 736000                    QLS     18
         7 000346   000001 036000 5                  ADLQ    ERR_+1
         7 000347   000000 756000 1                  STQ     ERR$

   4200  7 000350   000002 236000 5                  LDQ     ERR_+2
         7 000351   000000 036000 0                  ADLQ    ITERATION
         7 000352   000002 756000 5                  STQ     ERR_+2

   4201  7 000353   000750 220003                    LDX0    488,DU
         7 000354   000000 470400 1                  LDP0    ERR$
         7 000355   000000 740100                    STX0    0,,PR0

   4202  7 000356   000000 721000 0                  LXL1    ITERATION
         7 000357   000000 470400 1                  LDP0    ERR$
         7 000360   000000 441100                    SXL1    0,,PR0

      199     4205
      200     4206    2                ERR$ -> ERR.NUMBER = %E$ERROR_LIMIT_EXCEEDED;

   4206  7 000361   001604 221003                    LDX1    900,DU
         7 000362   000000 470400 1                  LDP0    ERR$
         7 000363   000001 741100                    STX1    1,,PR0

      201     4207    2                ERR$ -> ERR.LINE   = LINE_NUM;

   4207  7 000364   200017 722100                    LXL2    LINE_NUM,,AUTO
         7 000365   000002 742100                    STX2    2,,PR0

      202     4208    2                ERR$ -> ERR.COLUMN = COL_NUM;
PL6.E3A0      #001=Z8AE$ERROR File=Z8AE.:Z8A6TSI                                 SAT 08/09/97 10:42 Page:30

   4208  7 000366   200020 723100                    LXL3    COL_NUM,,AUTO
         7 000367   000002 443100                    SXL3    2,,PR0

      203     4209
      204     4210                     %INSERT_INTO_DL_LIST (PTR = ERR$, ITEM = ERR,
      205     4211                                           HEAD = ERR_HEAD, PREV = PRV$);

   4222  7 000370   200022 236100                    LDQ     PRV$,,AUTO
         7 000371   000000 116000 8                  CMPQ    0
         7 000372   000410 601000 7                  TNZ     s:4230

   4223  7 000373   000000 236000 2                  LDQ     ERR_HEAD
         7 000374   000003 756100                    STQ     3,,PR0

   4224  7 000375   000000 236000 8                  LDQ     0
         7 000376   000004 756100                    STQ     4,,PR0

   4225  7 000377   000000 236000 2                  LDQ     ERR_HEAD
         7 000400   000000 116000 8                  CMPQ    0
         7 000401   000405 600000 7                  TZE     s:4227

   4226  7 000402   000000 236000 1                  LDQ     ERR$
         7 000403   000000 471400 2                  LDP1    ERR_HEAD
         7 000404   100004 756100                    STQ     4,,PR1

   4227  7 000405   000000 236000 1                  LDQ     ERR$
         7 000406   000000 756000 2                  STQ     ERR_HEAD

   4228  7 000407   000425 710000 7                  TRA     s:4240

   4230  7 000410   200022 471500                    LDP1    PRV$,,AUTO
         7 000411   100003 236100                    LDQ     3,,PR1
         7 000412   000003 756100                    STQ     3,,PR0

   4231  7 000413   200022 236100                    LDQ     PRV$,,AUTO
         7 000414   000004 756100                    STQ     4,,PR0
PL6.E3A0      #001=Z8AE$ERROR File=Z8AE.:Z8A6TSI                                 SAT 08/09/97 10:42 Page:31

   4232  7 000415   100003 236100                    LDQ     3,,PR1
         7 000416   000000 116000 8                  CMPQ    0
         7 000417   000423 600000 7                  TZE     s:4234

   4233  7 000420   100003 473500                    LDP3    3,,PR1
         7 000421   000000 236000 1                  LDQ     ERR$
         7 000422   300004 756100                    STQ     4,,PR3

   4234  7 000423   000000 236000 1                  LDQ     ERR$
         7 000424   100003 756100                    STQ     3,,PR1

      206     4239
      207     4240    2               COMCOM.MAX_ERROR = MAXIMUM (COMCOM.MAX_ERROR, %E$ERROR_LIMIT_EXCEEDED);

   4240  7 000425   001604 236007                    LDQ     900,DL
         7 000426   000432 604000 7                  TMI     s:4240+5
         7 000427   000002 116000 xsym               CMPQ    COMCOM+2
         7 000430   000432 605000 7                  TPL     s:4240+5
         7 000431   000002 236000 xsym               LDQ     COMCOM+2
         7 000432   000002 756000 xsym               STQ     COMCOM+2

      208     4241    2                COMCOM.OB.LISTOUT = FALSE;

   4241  7 000433   000041 450000 xsym               STZ     COMCOM+33

      209     4242                     %IF CP6;
      210     4243    2                COMCOM.OB.LO      = FALSE;

   4243  7 000434   000101 450000 xsym               STZ     COMCOM+65

      211     4244                     %ENDIF;
      212     4245    2                COMCOM.OB.DECK    = FALSE;

   4245  7 000435   000003 236000 8                  LDQ     3
         7 000436   000022 356000 xsym               ANSQ    COMCOM+18

PL6.E3A0      #001=Z8AE$ERROR File=Z8AE.:Z8A6TSI                                 SAT 08/09/97 10:42 Page:32
      213     4246    2                COMCOM.OB.DSS     = FALSE;

   4246  7 000437   000024 356000 xsym               ANSQ    COMCOM+20

      214     4247
      215     4248    2                CALL Z9AT$TERMINATOR;

   4248  7 000440   000004 631400 8                  EPPR1   4
         7 000441   000000 701000 xent               TSX1    Z9AT$TERMINATOR
         7 000442   000000 011000                    NOP     0

      216     4249    2              END;

   4249  7 000443   000446 710000 7                  TRA     s:4258

      217     4250    1            ELSE
      218     4251                   /* Another one bites the dust.  Another fatal error
      219     4252                      has been found, decrement the count in COMCOM.
      220     4253                      When it reaches zero the other part of this if
      221     4254                      executes.  In other words we terminate the compile
      222     4255                      because of the error limit being EXCEEDED!!!!      */
      223     4256    1              COMCOM.ERRLIM = COMCOM.ERRLIM - 1;

   4256  7 000444   000001 336007                    LCQ     1,DL
         7 000445   000474 056000 xsym               ASQ     COMCOM+316

      224     4257
      225     4258    1   END Z8AE$ERROR ;

   4258  7 000446   000000 702200 xent               TSX2  ! X66_ARET

PL6.E3A0      #001=Z8AE$ERROR File=Z8AE.:Z8A6TSI                                 SAT 08/09/97 10:42 Page:33
--  Include file information  --

   Z9A_FLAGS.:Z8A6TOU  is referenced.
   X8A_COM_MACS.:X8A6TOU  is referenced.
   Z8A_NAMES.:Z8A6TOU  is referenced.
   Z8A_SUPP_MAC.:Z8A6TOU  is referenced.
   Z8A_COMCOM.:Z8A6TOU  cannot be made into a system file and is referenced.
   Z8A_ERR_NUMS.:Z8A6TOU  is referenced.
   Z8A_ERR.:Z8A6TOU  cannot be made into a system file and is referenced.
   Z8A_DEFC.:Z8A6TOU  cannot be made into a system file and is referenced.
      No diagnostics issued in procedure Z8AE$ERROR.
PL6.E3A0      #001=Z8AE$ERROR File=Z8AE.:Z8A6TSI                                 SAT 08/09/97 10:42 Page:34

 **** Variables and constants ****

  ****  Section 000 LblCom ITERATION

  ****  Scalars and arrays  ****
OctLoc.c.b A Datatyp(siz) R M Lvl/name                 OctLoc.c.b A Datatyp(siz) R M Lvl/name

     0-0-0/w SBIN        r     1 ITERATION

  ****  Section 001 LblCom ERR$

  ****  Scalars and arrays  ****
OctLoc.c.b A Datatyp(siz) R M Lvl/name                 OctLoc.c.b A Datatyp(siz) R M Lvl/name

     0-0-0/w PTR         r     1 ERR$

  ****  Section 002 LblCom ERR_HEAD

  ****  Scalars and arrays  ****
OctLoc.c.b A Datatyp(siz) R M Lvl/name                 OctLoc.c.b A Datatyp(siz) R M Lvl/name

     0-0-0/w PTR         r     1 ERR_HEAD

  ****  Section 003 LblCom ERR_TAIL

  ****  Scalars and arrays  ****
OctLoc.c.b A Datatyp(siz) R M Lvl/name                 OctLoc.c.b A Datatyp(siz) R M Lvl/name

     0-0-0/w PTR         r     1 ERR_TAIL

  ****  Section 004 LblCom MAX_ERROR_GENERATED

  ****  Scalars and arrays  ****
OctLoc.c.b A Datatyp(siz) R M Lvl/name                 OctLoc.c.b A Datatyp(siz) R M Lvl/name

     0-0-0/w SBIN        r     1 MAX_ERROR_GENERATED

PL6.E3A0      #001=Z8AE$ERROR File=Z8AE.:Z8A6TSI                                 SAT 08/09/97 10:42 Page:35
  ****  Section 005 LblCom ERR_

  ****  Scalars and arrays  ****
OctLoc.c.b A Datatyp(siz) R M Lvl/name                 OctLoc.c.b A Datatyp(siz) R M Lvl/name

     0-0-0/w STRC(180)   r     1 ERR_

  ****  Section 006  Data  Z8AE$ERROR

  ****  Scalars and arrays  ****
OctLoc.c.b A Datatyp(siz) R M Lvl/name                 OctLoc.c.b A Datatyp(siz) R M Lvl/name

     0-0-0/w SBIN        r     1 NO_PLUGS

  ****  Auto variables  ****

  ****  Scalars and arrays  ****
OctLoc.c.b A Datatyp(siz) R M Lvl/name                 OctLoc.c.b A Datatyp(siz) R M Lvl/name

     5-0-0/w PTR         r     1 @COL#                      3-0-0/w PTR         r     1 @ERROR_NUMBER
     4-0-0/w PTR         r     1 @LINE#                     6-0-0/w PTR         r     1 @PLUG0
     7-0-0/w PTR         r     1 @PLUG1                    10-0-0/w PTR         r     1 @PLUG2
    11-0-0/w PTR         r     1 @PLUG3                    12-0-0/w PTR         r     1 @PLUG4
    13-0-0/w PTR         r     1 @PLUG5                    14-0-0/w PTR         r     1 @PLUG6
    15-0-0/w PTR         r     1 @PLUG7                    16-0-0/w PTR         r     1 @PLUG8
    *0-0-0/w SBIN        r     1 COL#                      20-0-0/w SBIN        r     1 COL_NUM
    *0-0-0/w UBIN        r     1 ERROR_NUMBER              *0-0-0/w SBIN        r     1 LINE#
    17-0-0/w SBIN        r     1 LINE_NUM                  21-0-0/w PTR               1 NXT$
    *0-0-0/w PTR         r     1 PLUG0                     *0-0-0/w PTR         r     1 PLUG1
    *0-0-0/w PTR         r     1 PLUG2                     *0-0-0/w PTR         r     1 PLUG3
    *0-0-0/w PTR         r     1 PLUG4                     *0-0-0/w PTR         r     1 PLUG5
    *0-0-0/w PTR         r     1 PLUG6                     *0-0-0/w PTR         r     1 PLUG7
    *0-0-0/w PTR         r     1 PLUG8                     22-0-0/w PTR         r     1 PRV$

  ****  SYMREF variables  ****

  ****  Scalars and arrays  ****
PL6.E3A0      #001=Z8AE$ERROR File=Z8AE.:Z8A6TSI                                 SAT 08/09/97 10:42 Page:36
OctLoc.c.b A Datatyp(siz) R M Lvl/name                 OctLoc.c.b A Datatyp(siz) R M Lvl/name

     0-0-0/d STRC(13248) r     1 COMCOM

  ****  BASED and DCB variables  ****

  ****  Scalars and arrays  ****
OctLoc.c.b A Datatyp(siz) R M Lvl/name                 OctLoc.c.b A Datatyp(siz) R M Lvl/name

     0-0-0/w CHAR(4096)        1 CHARS                      0-0-0/w STRC(72)          1 CONT
     0-0-0/w STRC(540)   r     1 ERR                        0-0-0/w STRC(36864)       1 PAGE


   Procedure Z8AE$ERROR requires 295 words for executable code.
   Procedure Z8AE$ERROR requires 22 words of local(AUTO) storage.

    No errors detected in file Z8AE.:Z8A6TSI    .
