PL6.E3A0      #001=Z8AF$FORME_ON_SIZE File=Z8AF.:Z8A6TSI                         SAT 08/09/97 10:43 Page:1
        1        1        /*M* Z8AF$FORME -- Form Expression. */
        2        2        /*T***********************************************************/
        3        3        /*T*                                                         */
        4        4        /*T* Copyright (c) Bull HN Information Systems Inc., 1997    */
        5        5        /*T*                                                         */
        6        6        /*T***********************************************************/
        7        7        Z8AF$FORME_ON_SIZE: PROC (ID, LOP$, ROP$, RESULT$, ON_SIZE_FLAG) ;
        8        8        /*
        9        9                     FORME optimizations performed:
       10       10
       11       11               A1: index('D', 'ABCDEFG')    ==> 3
       12       12               A2: index('ABCDEFG', 'D')    ==> 1
       13       13               B:  tyi(3) + tyi(20)         ==> 23
       14       14               C:  tyi(3) - tyi(20)         ==> -17
       15       15         @     D:  tyi(3) * tyi(20)         ==> 60
       16       16               E:  tyi(20)/ tyi(10)         ==> 2
       17       17               F:  - tyi(8)                 ==> -8
       18       18               G:  mini(12,20)              ==> 12
       19       19               H:  tyi(8) + tyi(-9)         ==> tyi(8) - (- tyi(-9))
       20       20               I:  tyi(8) + tyi(0)          ==> tyi(8)
       21       21               J:  tyi(X) + tyi(7) + tyi(2) ==> tyi(X) + tyi(9)
       22       22               K:  tyi(X) - tyi(Y) + tyi(Y) ==> tyi(X)
       23       23               L:  tyi(Y) - tyi(X) + tyi(Y) ==> tyi(X) -- Suppressed
       24       24               M:  tyi(X) - tyi(8) + tyi(1) ==> tyi(X) - (tyi(8) - tyi(1))
       25       25               N:  tyi(8) - tyi(X) + tyi(1) ==> (tyi(1) + tyi(8)) - tyi(X)
       26       26               O:  tyi(X) - tyi(X)          ==> tyi(0)
       27       27               P:  tyi(X) - tyi(-8)         ==> tyi(X) + (- tyi(-8))
       28       28               Q:  tyi(X) - tyi(0)          ==> tyi(X)
       29       29               R:  tyi(X) - tyi(Y) - tyi(X) ==> (- tyi(Y))
       30       30               S:  tyi(X) - tyi(3) - tyi(5) ==> tyi(X) - (tyi(3) + tyi(5))
       31       31               T:  tyi(3) - tyi(X) - tyi(6) ==> (tyi(3) - tyi(6)) - tyi(X)
       32       32               U:  tyi(X) + tyi(Y) - tyi(Y) ==> tyi(X)
       33       33               V:  tyi(Y) + tyi(X) - tyi(Y) ==> tyi(X)
       34       34               W:  tyi(X) + tyi(3) - tyi(5) ==> tyi(X) + (tyi(3) - tyi(5))
       35       35               X:  tyi(3) + tyi(X) - tyi(5) ==> tyi(X) + (tyi(3) - tyi(5))
       36       36               Note -- optimization X unused as tyi(3) + tyi(X) will already
       37       37                       have been converted to tyi(X) + tyi(3); use W.
PL6.E3A0      #001=Z8AF$FORME_ON_SIZE File=Z8AF.:Z8A6TSI                         SAT 08/09/97 10:43 Page:2
       38       38         @     Y:  tyi(X) * tyi(-1)         ==> (- tyi(X))
       39       39         @     Z:  tyi(X) * tyi(0)          ==> tyi(0)
       40       40         @    AA:  tyi(X) * tyi(1)          ==> tyi(X)
       41       41         @    BB:  tyi(X) * tyi(3) * tyi(4) ==> tyi(X) * (tyi(3) * tyi(4))
       42       42         @    CC:  tyi(X) shl 3 * tyi(3)    ==> tyi(X) * (tyi(8) * tyi(3))
       43       43         @    DD:  tyi(X) * 2               ==> tyi(X) shl n
       44       44         @    EE:  tyi(x) * tyi(2) + tyi(1) ==> tyi(x) shl n + tyi(1)
       45       45         @    FF:  tyi(x) * tyi(2) - tyi(1) ==> tyi(x) shl n - tyi(1)
       46       46              GG:  tyi(x) - (tyi(x) - tyi(y)) ==> tyi(y)
       47       47              HH:  tyi(5) - (tyi(x) - tyi(3)) ==> tyi(5) + tyi(3) - tyi(x)
       48       48              II:  - (tyi(x) - tyi(y))      ==> (tyi(y) - tyi(x))
       49       49              JJ:  - (- tyi(x))             ==> (tyi(x))
       50       50              KK:  mini(x, x)               ==> tyi(x)
       51       51         @    LL:  tyd(x) *^ 10 or tyd /^ 10==> tyd +- {scale factor}
       52       52              MM:  tyi(x) / tyi(x)          ==> tyi(1)
       53       53              NN:  tyr(x) / tyr(x)          ==> tyr(1)
       54       54              OO:  tyi(0) / tyi(x)          ==> tyi(0)
       55       55              PP:  tyi(x) / (tyi(x) * tyi(y)) ==> (tyi(1) / tyi(y))
       56       56              QQ:  tyi(x) / (tyi(y) * tyi(x)) ==> (tyi(1) / tyi(y))
       57       57              RR:  tyi(x) / (tyi(x) shl n)  ==> tyi(0)
       58       58         @    SS:  tyi(x) ** ^2             ==> tyi(x) * tyi(x) * tyi(x) ->->
       59       59         @    TT:  tyi(x) ** ^2 + 1         ==>  "     "  "     " -->
       60       60         @    UU:  tyi(x) ** ^2 + 2         ==>  "     "  "     " --> * *
       61       61         @    VV:  tyi(x) ** ^2 + 1 * ^2    ==>  "     "  "     " -->  * * * *
       62       62              WW:  CVID4 (tyi(8))           ==> tyd(8)
       63       63         @    XX:  CVDI (ADD (CVID (tyi), tyd)) ==> ADI (tyi, CVDI (tyd))
       64       64              YY:  tyi(5) - (tyi(3) - tyi(x)) ==> tyi(5) - tyi(3) + tyi(x)
       65       65              ZZ:  tyi(x) - (tyi(x) + tyi(y)) ==> (- tyi(y))
       66       66             AAA:   CVIR (tyi(4))               ==> TYR
       67       67             BBB:   CVIQ (tyi(4))               ==> TYQ
       68       68             CCC:   CVDRR (TYD)                 ==> TYR
       69       69             DDD:   CVDQR (TYD)                 ==> TYQ
       70       70             EEE:   tyi(x) - (tyi(y) + tyi(x))  ==> (- tyi(y))
       71       71             FFF:   tyi(5) - (tyi(x) + tyi(3))  ==> tyi(5) - tyi(3) - tyi(x)
       72       72             GGG:   CVDI (TYD)                  ==> TYI
       73       73             HHH:   tyi(x) / tyi(1)             ==> tyi(x)
       74       74             III:   tyi(x) shl 2 / tyi(28)      ==> tyi(x) / tyi(28 shr 2)
PL6.E3A0      #001=Z8AF$FORME_ON_SIZE File=Z8AF.:Z8A6TSI                         SAT 08/09/97 10:43 Page:3
       75       75             JJJ:   (tyd(x) * tyd(y)) / tyd(x)  ==> tyd(y)
       76       76             KKK:   (tyd(x) * tyd(y)) / tyd(y)  ==> tyd(x)
       77       77             LLL:   (tyi(x) shl m) shl n        ==> tyi(x) shl (n + m)
       78       78             MMM:   (tyi(x) shr m) shl n        ==> tyi(x) shl (n - m) if n > m
       79       79             NNN:   (tyi(x) shr m) shl n        ==> tyi(x)             if n = m
       80       80             OOO:   (tyi(x) shr m) shl n        ==> tyi(x) shr (m - n) if n < m
       81       81             PPP:   (tyi(x) shr m) shr n        ==> tyi(x) shr (n + m)
       82       82             QQQ:   (tyi(x) shl m) shr n        ==> tyi(x) shr (n - m) if n > m
       83       83             RRR:   (tyi(x) shl m) shr n        ==> tyi(x)             if n = m
       84       84             SSS:   (tyi(x) shl m) shr n        ==> tyi(x) shl (m - n) if n < m
       85       85             TTT:   CMPD(CVID(tyi),tyd)         ==> CMPI(tyi,CVDI(tyd))
       86       86             UUU:   CMPD(tyd,CVID(tyi))         ==> CMPI(CVDI(tyd),tyi)
       87       87
       88       88
       89       89         @ indicates that these optimizations are inhibited if this
       90       90           is part of an "ON SIZE ERROR" expression.
       91       91
       92       92        */
       93       93        %EJECT;
PL6.E3A0      #001=Z8AF$FORME_ON_SIZE File=Z8AF.:Z8A6TSI                         SAT 08/09/97 10:43 Page:4
       94       94
       95       95        %EJECT;
PL6.E3A0      #001=Z8AF$FORME_ON_SIZE File=Z8AF.:Z8A6TSI                         SAT 08/09/97 10:43 Page:5
       96       96
       97       97            %SET PHASE = 1;
       98       98             %INCLUDE Z8A_DEFC;
       99      166             %INCLUDE Z8A_SUPP_MAC;
      100     2566             %INCLUDE Z8A_COMCOM;
      101     3216             %INCLUDE Z8A_DESC;
      102     3262             %INCLUDE Z8A_ETT;
      103     3563             %INCLUDE Z8A_ST;
      104     7222             %INCLUDE Z8A_TYPES;
      105     7396             %INCLUDE Z8A_DNT;
      106     7617             %INCLUDE Z8A_LTS;
      107     9694             %INCLUDE Z8A_SRCH;
      108     9743             %INCLUDE Z8A_MKCN;
      109     9760             %INCLUDE Z8E_STACKS ;
      110    12026             %INCLUDE Z8E_WINDOW;
      111    14096
      112    14097    1        DCL ID SBIN WORD;
      113    14098    1        DCL LOP$ PTR;
      114    14099    1        DCL ROP$ PTR;
      115    14100    1        DCL RESULT$ PTR;
      116    14101    1        DCL ON_SIZE_FLAG BIT (1) ALIGNED ; /* For On Size Error */
      117    14102    1        DCL ON_SIZE BIT (1) ALIGNED ;      /* Normally '0'B     */
      118    14103    1        DCL SYMBOL  UBIN WORD ;
      119    14104    1        DCL LOP PTR AUTO;
      120    14105    1        DCL LOPLOP  PTR ;
      121    14106    1        DCL SIGNIFICANCE SBIN WORD;
      122    14107
      123    14108    1        DCL 1 ROPCON AUTO ALIGNED,
      124    14109                   %DESCRIPTOR(ENDING = YES);
      125    14137
      126    14138    1        DCL ROPCON_UBIN REDEF ROPCON UBIN;
      127    14139    1        DCL ROP REDEF ROPCON PTR;
      128    14140    1        DCL 1  ROP_FILL REDEF ROPCON,
      129    14141    1             2 CHAR_1   CHAR (1) UNAL,
      130    14142    1             2 UBIN_3   UBIN (27) UNAL;
      131    14143
      132    14144    1        DCL 1 TYPE_DESC ALIGNED,
PL6.E3A0      #001=Z8AF$FORME_ON_SIZE File=Z8AF.:Z8A6TSI                         SAT 08/09/97 10:43 Page:6
      133    14145                   %TYPE_DESC;
      134    14179    1        DCL CONST$ PTR;
      135    14180
      136    14181    1        DCL DNT$$ PTR;
      137    14182    1        DCL LX_TERMINAL$ PTR ;
      138    14183    1        DCL ZIP CHAR(20) CONSTANT INIT('00000000000000000000');
      139    14184    1        DCL   Z8AC$MAKE_CONST ENTRY (1); /* Make a COMP-6 constant */
      140    14185    1        DCL   Z8AC$MAKE_CONST_R ENTRY (1) ; /* Make COMP-11 const  */
      141    14186    1        DCL   Z8AC$MAKE_CONST_D ENTRY(1);
      142    14187    1        DCL   Z8AC$MAKE_CONST_O ENTRY(1);
      143    14188    1        DCL Z8AU$TYPE_DESCRIPTOR ENTRY(2);
      144    14189    1        DCL Z8AS$SR_ETT          ENTRY (1);
      145    14190    1        DCL Z8EC$CREATE_CONST ENTRY (3)  ALTRET;
      146    14191    1        DCL Z8AU$BYTE_TO_WORD_UNITS ENTRY (3);
      147    14192
      148    14193
      149    14194    1        DCL LOP_ST$ PTR;
      150    14195    1        DCL ROP_ST$ PTR;
      151    14196    1        DCL LOP_STRING$ PTR;
      152    14197    1        DCL ROP_STRING$ PTR;
      153    14198    1        DCL LOP_LEN SBIN WORD;
      154    14199    1        DCL ROP_LEN SBIN WORD;
      155    14200
      156    14201    1        DCL LOP_CONST SBIN WORD;
      157    14202    1        DCL ROP_CONST SBIN WORD;
      158    14203
      159    14204    1        DCL NEW_ID SBIN WORD;
      160    14205    1        DCL   INTEGER   SBIN WORD;
      161    14206    1        DCL   INTEGER2  SBIN WORD;
      162    14207    1        DCL   POWER_OF_2 SBIN WORD;
      163    14208    1        DCL   POWER_OF_2_ SBIN WORD;
      164    14209    1        DCL   SBIN_J       SBIN WORD;
      165    14210    1        DCL   SBIN_I       SBIN WORD;
      166    14211    1        DCL 1 ONE_FLOAT ALIGNED STATIC,         /* Bin exponent real one */
      167    14212    1            2 EXPONENT  SBIN (8) UNAL INIT (1),
      168    14213    1            2 MANTISSA  BIT (28) UNAL INIT ('0100000000000000000000000000'B);
      169    14214    1        DCL   FLOAT_ONE REDEF ONE_FLOAT SBIN WORD;
PL6.E3A0      #001=Z8AF$FORME_ON_SIZE File=Z8AF.:Z8A6TSI                         SAT 08/09/97 10:43 Page:7
      170    14215    1        DCL 1 ONE_HEX_F ALIGNED STATIC,         /* Hex exponent real one */
      171    14216    1            2 EXPONENT  SBIN (8) UNAL INIT (1),
      172    14217    1            2 MANTISSA  BIT (28) UNAL INIT ('0000100000000000000000000000'B);
      173    14218    1        DCL   HEX_F_ONE REDEF ONE_HEX_F SBIN WORD;
      174    14219    1        DCL 1 PACKED,
      175    14220    1             2 OFFSET   SBIN HALF HALIGNED,
      176    14221    1             2 TYPE     UBIN HALF HALIGNED;
      177    14222
      178    14223             %DCL_AUTO_LX_ITEM (@NAME = LX_NUMBER) ;
      179    14227
      180    14228        %EJECT;
PL6.E3A0      #001=Z8AF$FORME_ON_SIZE File=Z8AF.:Z8A6TSI                         SAT 08/09/97 10:43 Page:8
      181    14229    1        ON_SIZE = ON_SIZE_FLAG ;
      182    14230    1        GOTO FORME_START ;
      183    14231
      184    14232    1   Z8AF$FORME: ENTRY (ID, LOP$, ROP$, RESULT$) ;
      185    14233
      186    14234    1        ON_SIZE = '0'B ;
      187    14235
      188    14236    1   FORME_START: ; /* Some optimizations are inhibited if ON_SIZE is on */
      189    14237
      190    14238
      191    14239        /* If the user passes the same pointer for either the LOP or the
      192    14240           ROP as he does for the RESULT$, then we have to protect him.
      193    14241           We use RESULT$ as an intermediate result as well as the return
      194    14242           result.  So... if we happen to reference the LOP, or the ROP
      195    14243           (which ever = RESULT$).... after using RESULT$ for our own
      196    14244           purposes.... *BANG*!
      197    14245
      198    14246        */
      199    14247
      200    14248    1        LOP = LOP$;
      201    14249    1        ROP = ROP$;
      202    14250
      203    14251        %EJECT;
PL6.E3A0      #001=Z8AF$FORME_ON_SIZE File=Z8AF.:Z8A6TSI                         SAT 08/09/97 10:43 Page:9
      204    14252        /*V* IDEAL_STATE
      205    14253
      206    14254             Assure that any constant appears on the ROP of a commutative
      207    14255           operator;  also assure that expressions are on the LOP.
      208    14256
      209    14257        */
      210    14258    2        DO CASE(ID);
      211    14259    2          CASE(%MPI, %MPD, %MPQ, %MPR, %MPO, %ADI, %ADD, %ADR, %ADQ, %ADO, %ORI, %ANDI)
             14259                   ;
      212    14260    2            IF (LOP -> ETT.ID = %TRIAD AND ROP -> ETT.ID ~= %TRIAD)
      213    14261    2            OR (LOP -> ETT.ID <= %LAST_REFERENCE_TRIAD
      214    14262    2                  AND ROP -> ETT.ID > %LAST_REFERENCE_TRIAD) THEN
      215    14263    3              DO;
      216    14264    3                CALL Z8AF$FORME(ID, ROP, LOP, RESULT$);
      217    14265    3                GOTO EXIT_WITH_TRANSFORMATION;
      218    14266    3              END;
      219    14267
      220    14268
      221    14269    2        END /* Case */;
      222    14270
      223    14271        %EJECT;
PL6.E3A0      #001=Z8AF$FORME_ON_SIZE File=Z8AF.:Z8A6TSI                         SAT 08/09/97 10:43 Page:10
      224    14272
      225    14273    2        DO CASE(ID);
      226    14274    2          CASE(%INDEX);
      227    14275    2            IF LOP -> ETT.ID = %TRIAD AND ROP -> ETT.ID = %TRIAD THEN
      228    14276    3   A1:        DO;
      229    14277    3                LOP_ST$ = LOP -> ETT.LOP;
      230    14278    3                ROP_ST$ = ROP -> ETT.LOP;
      231    14279
      232    14280    3                LOP_LEN = LOP_ST$ -> CONST.ADSC.N;
      233    14281    3                ROP_LEN = ROP_ST$ -> CONST.ADSC.N;
      234    14282
      235    14283                     %GET_CONSTANT_ADDRESS ( @CONSTANT = LOP_ST$,
      236    14284                                             @STRING   = LOP_STRING$ );
      237    14292
      238    14293                     %GET_CONSTANT_ADDRESS ( @CONSTANT = ROP_ST$,
      239    14294                                             @STRING   = ROP_STRING$ );
      240    14302
      241    14303    3                CALL INDEX ( MKCN.CON,
      242    14304    3                             SUBSTR(LOP_STRING$ -> CHARS, 0, LOP_LEN),
      243    14305    3                             SUBSTR(ROP_STRING$ -> CHARS, 0, ROP_LEN));
      244    14306
      245    14307    3                CALL Z8AC$MAKE_CONST(RESULT$);
      246    14308
      247    14309    3                GOTO EXIT_WITH_TRANSFORMATION;
      248    14310    3              END;
      249    14311
      250    14312    2   A2:      /* if length(LOP) > length(ROP) then RESULT is length(ROP) */
      251    14313
      252    14314    2            CALL Z8AU$TYPE_DESCRIPTOR (LOP, TYPE_DESC) ;
      253    14315
      254    14316    3            IF TYPE_DESC.SIZ$ = ADDR(NIL) THEN DO ;
      255    14317
      256    14318                   %UNPACK_ADSC (@DESC    = TYPE_DESC.DESC,
      257    14319                                 @LENGTH  = LOP_LEN) ;
      258    14342    3              CALL Z8AU$TYPE_DESCRIPTOR (ROP, TYPE_DESC) ;
      259    14343
      260    14344    4              IF TYPE_DESC.SIZ$ = ADDR(NIL) THEN DO ;
PL6.E3A0      #001=Z8AF$FORME_ON_SIZE File=Z8AF.:Z8A6TSI                         SAT 08/09/97 10:43 Page:11
      261    14345
      262    14346                     %UNPACK_ADSC (@DESC   = TYPE_DESC.DESC,
      263    14347                                   @LENGTH = ROP_LEN) ;
      264    14370
      265    14371    5                IF LOP_LEN > ROP_LEN THEN DO ;
      266    14372
      267    14373    5                  MKCN.CON = ROP_LEN ;
      268    14374    5                  CALL Z8AC$MAKE_CONST (RESULT$) ;
      269    14375    5                  GOTO EXIT_WITH_TRANSFORMATION ;
      270    14376
      271    14377    5                END ; /* Length(LOP) > Length(ROP) */
      272    14378
      273    14379    4              END ; /* Length(ROP) is constant */
      274    14380
      275    14381    3            END ; /* Length(LOP) is constant */
      276    14382
      277    14383    2          CASE(%ADI);
      278    14384    2            IF LOP -> ETT.ID = %TRIAD AND ROP -> ETT.ID = %TRIAD THEN
      279    14385    3   B:         DO;
      280    14386    3                MKCN.CON = LOP -> ETT.LOP -> CONST.CONSTI.WORD1 +
      281    14387    3                           ROP -> ETT.LOP -> CONST.CONSTI.WORD1;
      282    14388
      283    14389    3                CALL Z8AC$MAKE_CONST(RESULT$);
      284    14390
      285    14391    3                GOTO EXIT_WITH_TRANSFORMATION;
      286    14392    3              END;
      287    14393
      288    14394    2          CASE(%SBI);
      289    14395    2            IF LOP -> ETT.ID = %TRIAD AND ROP -> ETT.ID = %TRIAD THEN
      290    14396    3   C:         DO;
      291    14397    3                MKCN.CON = LOP -> ETT.LOP -> CONST.CONSTI.WORD1 -
      292    14398    3                           ROP -> ETT.LOP -> CONST.CONSTI.WORD1;
      293    14399
      294    14400    3                CALL Z8AC$MAKE_CONST(RESULT$);
      295    14401
      296    14402    3                GOTO EXIT_WITH_TRANSFORMATION;
      297    14403    3              END;
PL6.E3A0      #001=Z8AF$FORME_ON_SIZE File=Z8AF.:Z8A6TSI                         SAT 08/09/97 10:43 Page:12
      298    14404
      299    14405    2          CASE(%MPI);
      300    14406    2            IF ON_SIZE = '0'B
      301    14407    2            AND LOP -> ETT.ID = %TRIAD AND ROP -> ETT.ID = %TRIAD THEN
      302    14408    3   D:         DO;
      303    14409    3                MKCN.CON = LOP -> ETT.LOP -> CONST.CONSTI.WORD1 *
      304    14410    3                           ROP -> ETT.LOP -> CONST.CONSTI.WORD1;
      305    14411
      306    14412    3                CALL Z8AC$MAKE_CONST(RESULT$);
      307    14413
      308    14414    3                GOTO EXIT_WITH_TRANSFORMATION;
      309    14415    3              END;
      310    14416
      311    14417    2          CASE(%DVI);
      312    14418    2            IF LOP -> ETT.ID = %TRIAD AND ROP -> ETT.ID = %TRIAD THEN
      313    14419    3   E:         DO;
      314    14420    3                MKCN.CON = LOP -> ETT.LOP -> CONST.CONSTI.WORD1 /
      315    14421    3                           ROP -> ETT.LOP -> CONST.CONSTI.WORD1;
      316    14422
      317    14423    3                CALL Z8AC$MAKE_CONST(RESULT$);
      318    14424
      319    14425    3                GOTO EXIT_WITH_TRANSFORMATION;
      320    14426    3              END;
      321    14427
      322    14428    2          CASE(%USI);
      323    14429    2            IF LOP -> ETT.ID = %TRIAD THEN
      324    14430    3   F:         DO;
      325    14431    3                MKCN.CON = - (LOP -> ETT.LOP -> CONST.CONSTI.WORD1);
      326    14432
      327    14433    3                CALL Z8AC$MAKE_CONST(RESULT$);
      328    14434
      329    14435    3                GOTO EXIT_WITH_TRANSFORMATION;
      330    14436    3              END;
      331    14437
      332    14438    2          CASE(%MINI);
      333    14439    2            IF LOP -> ETT.ID = %TRIAD AND ROP -> ETT.ID = %TRIAD THEN
      334    14440    3   G:         DO;
PL6.E3A0      #001=Z8AF$FORME_ON_SIZE File=Z8AF.:Z8A6TSI                         SAT 08/09/97 10:43 Page:13
      335    14441    3                LOP_CONST = LOP -> ETT.LOP -> CONST.CONSTI.WORD1;
      336    14442    3                ROP_CONST = ROP -> ETT.LOP -> CONST.CONSTI.WORD1;
      337    14443
      338    14444    3                IF LOP_CONST <= ROP_CONST THEN
      339    14445    3                  RESULT$ = LOP;
      340    14446    3                ELSE
      341    14447    3                  RESULT$ = ROP;
      342    14448
      343    14449    3                GOTO EXIT_WITH_TRANSFORMATION;
      344    14450    3              END;
      345    14451    2        END /* Case */;
      346    14452        %EJECT;
PL6.E3A0      #001=Z8AF$FORME_ON_SIZE File=Z8AF.:Z8A6TSI                         SAT 08/09/97 10:43 Page:14
      347    14453    2        DO CASE (ID);
      348    14454
      349    14455        %EJECT;
PL6.E3A0      #001=Z8AF$FORME_ON_SIZE File=Z8AF.:Z8A6TSI                         SAT 08/09/97 10:43 Page:15
      350    14456    2   CASE(%ADI);
      351    14457
      352    14458    2        IF ROP -> ETT.ID = %TRIAD THEN
      353    14459    3          DO;
      354    14460    3            IF ROP -> ETT.LOP -> CONST.CONSTI.WORD1 < 0 AND
      355    14461    3              ROP -> ETT.LOP -> CONST.CONSTI.WORD1 >= -262144 THEN
      356    14462    4   H:         DO;
      357    14463    4                CALL Z8AF$FORME(%USI, ROP, 0, RESULT$);
      358    14464    4                CALL Z8AF$FORME(%SBI, LOP, RESULT$, RESULT$);
      359    14465    4                GOTO EXIT_WITH_TRANSFORMATION;
      360    14466    4              END;
      361    14467
      362    14468    3            IF ROP -> ETT.LOP -> CONST.CONSTI.WORD1 = 0 THEN
      363    14469    4   I:         DO;
      364    14470    4                RESULT$ = LOP;
      365    14471    4                GOTO EXIT_WITH_TRANSFORMATION;
      366    14472    4              END;
      367    14473    3          END;
      368    14474
      369    14475    3        DO CASE(LOP -> ETT.ID);
      370    14476    3          CASE(%ADI);
      371    14477    3            IF ROP -> ETT.ID = %TRIAD THEN
      372    14478    4              DO;
      373    14479    4                IF LOP -> ETT.ROP -> ETT.ID = %TRIAD THEN
      374    14480    5   J:             DO;
      375    14481    5                    CALL Z8AF$FORME(%ADI, LOP -> ETT.ROP, ROP, RESULT$);
      376    14482    5                    CALL Z8AF$FORME(%ADI, LOP -> ETT.LOP, RESULT$, RESULT$);
      377    14483    5                    GOTO EXIT_WITH_TRANSFORMATION;
      378    14484    5                  END;
      379    14485
      380    14486    4              END;
      381    14487
      382    14488    3          CASE(%SBI);
      383    14489    3            IF LOP -> ETT.ROP = ROP THEN
      384    14490    4   K:         DO;
      385    14491    4                RESULT$ = LOP -> ETT.LOP;
      386    14492    4                GOTO EXIT_WITH_TRANSFORMATION;
PL6.E3A0      #001=Z8AF$FORME_ON_SIZE File=Z8AF.:Z8A6TSI                         SAT 08/09/97 10:43 Page:16
      387    14493    4              END;
      388    14494
      389    14495              /* IF LOP -> ETT.LOP = ROP THEN
      390    14496        L:         DO;
      391    14497                     RESULT$ = LOP -> ETT.ROP;
      392    14498                     GOTO EXIT_WITH_TRANSFORMATION;
      393    14499                   END;
      394    14500                 Optimization suppressed because it is in error. If anyone can
      395    14501                 figure out what this optimization should have done, it can be
      396    14502                 reenabled. */
      397    14503
      398    14504    3            IF ROP -> ETT.ID = %TRIAD THEN
      399    14505    4              DO;
      400    14506    4                IF LOP -> ETT.ROP -> ETT.ID = %TRIAD THEN
      401    14507    5   M:             DO;
      402    14508    5                    CALL Z8AF$FORME(%SBI, LOP -> ETT.ROP, ROP, RESULT$);
      403    14509    5                    CALL Z8AF$FORME(%SBI, LOP -> ETT.LOP, RESULT$, RESULT$);
      404    14510    5                    GOTO EXIT_WITH_TRANSFORMATION;
      405    14511    5                  END;
      406    14512
      407    14513    4                IF LOP -> ETT.LOP -> ETT.ID = %TRIAD THEN
      408    14514    5   N:             DO;
      409    14515    5                    CALL Z8AF$FORME(%ADI, ROP, LOP -> ETT.LOP, RESULT$);
      410    14516    5                    CALL Z8AF$FORME(%SBI, RESULT$, LOP -> ETT.ROP, RESULT$);
      411    14517    5                    GOTO EXIT_WITH_TRANSFORMATION;
      412    14518    5                  END;
      413    14519    4              END;
      414    14520    3        END /* Case */;
      415    14521
      416    14522        %EJECT;
PL6.E3A0      #001=Z8AF$FORME_ON_SIZE File=Z8AF.:Z8A6TSI                         SAT 08/09/97 10:43 Page:17
      417    14523    2   CASE(%SBI);
      418    14524
      419    14525    2        IF ROP = LOP THEN
      420    14526    3   O:     DO;
      421    14527    3            RESULT$ = COMCOM.VALUE_0;
      422    14528    3            GOTO EXIT_WITH_TRANSFORMATION;
      423    14529    3          END;
      424    14530
      425    14531    2        IF ROP -> ETT.ID = %TRIAD THEN
      426    14532    3          DO;
      427    14533             /* 2 ** 18 = 262144 */
      428    14534    3            IF ROP -> ETT.LOP -> CONST.CONSTI.WORD1 < 0 AND
      429    14535    3              ROP -> ETT.LOP -> CONST.CONSTI.WORD1 >= -262144 THEN
      430    14536    4   P:         DO;
      431    14537    4                CALL Z8AF$FORME(%USI, ROP, 0, RESULT$);
      432    14538    4                CALL Z8AF$FORME(%ADI, LOP, RESULT$, RESULT$);
      433    14539    4              END;
      434    14540
      435    14541    3            IF ROP -> ETT.LOP -> CONST.CONSTI.WORD1 = 0 THEN
      436    14542    4   Q:         DO;
      437    14543    4                RESULT$ = LOP;
      438    14544    4                GOTO EXIT_WITH_TRANSFORMATION;
      439    14545    4              END;
      440    14546    3          END;
      441    14547
      442    14548    3        DO CASE(LOP -> ETT.ID);
      443    14549    3          CASE(%SBI);
      444    14550    3            IF LOP -> ETT.LOP = ROP THEN
      445    14551    4   R:         DO;
      446    14552    4                CALL Z8AF$FORME(%USI, LOP -> ETT.ROP, 0, RESULT$);
      447    14553    4                GOTO EXIT_WITH_TRANSFORMATION;
      448    14554    4              END;
      449    14555
      450    14556    3            IF ROP -> ETT.ID = %TRIAD THEN
      451    14557    4              DO;
      452    14558    4                IF LOP -> ETT.ROP -> ETT.ID = %TRIAD THEN
      453    14559    5   S:             DO;
PL6.E3A0      #001=Z8AF$FORME_ON_SIZE File=Z8AF.:Z8A6TSI                         SAT 08/09/97 10:43 Page:18
      454    14560    5                    CALL Z8AF$FORME(%ADI, LOP -> ETT.ROP, ROP, RESULT$);
      455    14561    5                    CALL Z8AF$FORME(%SBI, LOP -> ETT.LOP, RESULT$, RESULT$);
      456    14562    5                    GOTO EXIT_WITH_TRANSFORMATION;
      457    14563    5                  END;
      458    14564
      459    14565    4                IF LOP -> ETT.LOP -> ETT.ID = %TRIAD THEN
      460    14566    5   T:             DO;
      461    14567    5                    CALL Z8AF$FORME(%SBI, LOP -> ETT.LOP, ROP, RESULT$);
      462    14568    5                    CALL Z8AF$FORME(%SBI, RESULT$, LOP -> ETT.ROP, RESULT$);
      463    14569    5                    GOTO EXIT_WITH_TRANSFORMATION;
      464    14570    5                  END;
      465    14571    4              END;
      466    14572
      467    14573    3          CASE(%ADI);
      468    14574    3            IF LOP -> ETT.ROP = ROP THEN
      469    14575    4   U:         DO;
      470    14576    4                RESULT$ = LOP -> ETT.LOP;
      471    14577    4                GOTO EXIT_WITH_TRANSFORMATION;
      472    14578    4              END;
      473    14579
      474    14580    3            IF LOP -> ETT.LOP = ROP THEN
      475    14581    4   V:         DO;
      476    14582    4                RESULT$ = LOP -> ETT.ROP;
      477    14583    4                GOTO EXIT_WITH_TRANSFORMATION;
      478    14584    4              END;
      479    14585
      480    14586    3            IF ROP -> ETT.ID = %TRIAD THEN
      481    14587    4              DO;
      482    14588    4                IF LOP -> ETT.ROP -> ETT.ID = %TRIAD THEN
      483    14589    5   W:             DO;
      484    14590    5                    CALL Z8AF$FORME(%SBI, LOP -> ETT.ROP, ROP, RESULT$);
      485    14591    5                    CALL Z8AF$FORME(%ADI, LOP -> ETT.LOP, RESULT$, RESULT$);
      486    14592    5                    GOTO EXIT_WITH_TRANSFORMATION;
      487    14593    5                  END;
      488    14594
      489    14595                  /* IF LOP -> ETT.LOP -> ETT.ID = %TRIAD THEN
      490    14596        X:             DO;
PL6.E3A0      #001=Z8AF$FORME_ON_SIZE File=Z8AF.:Z8A6TSI                         SAT 08/09/97 10:43 Page:19
      491    14597                         CALL Z8AF$FORME(%SBI, LOP -> ETT.LOP, ROP, RESULT$);
      492    14598                         CALL Z8AF$FORME(%ADI, LOP -> ETT.ROP, RESULT$, RESULT$);
      493    14599                       END;
      494    14600                     This optimization is not needed. The TRIAD will already
      495    14601                     have been moved to the ADI's ROP, and so, optimization
      496    14602                     W will do the job. */
      497    14603    4              END;
      498    14604    3        END /* Case */;
      499    14605    3        DO CASE(ROP -> ETT.ID);
      500    14606    3          CASE(%SBI);
      501    14607    3            IF LOP = ROP -> ETT.LOP THEN
      502    14608    4   GG:        DO;
      503    14609    4                RESULT$ = ROP -> ETT.ROP;
      504    14610    4                GOTO EXIT_WITH_TRANSFORMATION;
      505    14611    4              END;
      506    14612    3            IF LOP -> ETT.ID = %TRIAD THEN
      507    14613    4              DO;
      508    14614    4                IF ROP -> ETT.ROP -> ETT.ID = %TRIAD THEN
      509    14615    5   HH:            DO;
      510    14616    5                    CALL Z8AF$FORME(%ADI, LOP, ROP -> ETT.ROP, RESULT$);
      511    14617    5                    CALL Z8AF$FORME(%SBI, RESULT$, ROP -> ETT.LOP, RESULT$);
      512    14618    5                    GOTO EXIT_WITH_TRANSFORMATION;
      513    14619    5                  END;
      514    14620    4                IF ROP -> ETT.LOP -> ETT.ID = %TRIAD THEN
      515    14621    5   YY:            DO;
      516    14622    5                    CALL Z8AF$FORME(%SBI, LOP, ROP -> ETT.LOP, RESULT$);
      517    14623    5                    CALL Z8AF$FORME(%ADI, RESULT$, ROP -> ETT.ROP, RESULT$);
      518    14624    5                    GOTO EXIT_WITH_TRANSFORMATION;
      519    14625    5                  END;
      520    14626    4              END;
      521    14627    3          CASE(%ADI);
      522    14628    3            IF LOP = ROP -> ETT.LOP THEN
      523    14629    4   ZZ:        DO;
      524    14630    4                CALL Z8AF$FORME(%USI, ROP -> ETT.ROP, 0, RESULT$);
      525    14631    4                GOTO EXIT_WITH_TRANSFORMATION;
      526    14632    4              END;
      527    14633    3            IF LOP = ROP -> ETT.ROP THEN
PL6.E3A0      #001=Z8AF$FORME_ON_SIZE File=Z8AF.:Z8A6TSI                         SAT 08/09/97 10:43 Page:20
      528    14634    4   EEE:       DO;
      529    14635    4                CALL Z8AF$FORME(%USI, ROP -> ETT.LOP, 0, RESULT$);
      530    14636    4                GOTO EXIT_WITH_TRANSFORMATION;
      531    14637    4              END;
      532    14638    3            IF LOP -> ETT.ID = %TRIAD THEN
      533    14639    3              IF ROP -> ETT.ROP -> ETT.ID = %TRIAD THEN
      534    14640    4   FFF:         DO;
      535    14641    4                  CALL Z8AF$FORME(%SBI, LOP, ROP -> ETT.ROP, RESULT$);
      536    14642    4                  CALL Z8AF$FORME(%SBI, RESULT$, ROP -> ETT.LOP, RESULT$);
      537    14643    4                  GOTO EXIT_WITH_TRANSFORMATION;
      538    14644    4                END;
      539    14645    3        END /* Case */;
      540    14646
      541    14647        %EJECT;
PL6.E3A0      #001=Z8AF$FORME_ON_SIZE File=Z8AF.:Z8A6TSI                         SAT 08/09/97 10:43 Page:21
      542    14648    2   CASE(%MPI);
      543    14649
      544    14650    2        IF  ON_SIZE = '0'B
      545    14651    2        AND ROP -> ETT.ID = %TRIAD THEN
      546    14652    3          DO;
      547    14653    3            INTEGER = ROP -> ETT.LOP -> CONST.CONSTI.WORD1;
      548    14654
      549    14655    3            IF INTEGER = -1 THEN
      550    14656    4   Y:         DO;
      551    14657    4                CALL Z8AF$FORME(%USI, LOP, 0, RESULT$);
      552    14658    4                GOTO EXIT_WITH_TRANSFORMATION;
      553    14659    4              END;
      554    14660
      555    14661    3            IF INTEGER = 0 THEN
      556    14662    4   Z:         DO;
      557    14663    4                RESULT$ = ROP;
      558    14664    4                GOTO EXIT_WITH_TRANSFORMATION;
      559    14665    4              END;
      560    14666
      561    14667    3            IF INTEGER = 1 THEN
      562    14668    4   AA:        DO;
      563    14669    4                RESULT$ = LOP;
      564    14670    4                GOTO EXIT_WITH_TRANSFORMATION;
      565    14671    4              END;
      566    14672
      567    14673    3            IF INTEGER = 2 THEN
      568    14674    4              DO;
      569    14675    4                CALL Z8AF$FORME(%MPI2, LOP, 1, RESULT$);
      570    14676    4                GOTO EXIT_WITH_TRANSFORMATION;
      571    14677    4              END;
      572    14678
      573    14679    4            DO CASE(LOP -> ETT.ID);
      574    14680    4              CASE(%MPI);
      575    14681    4                IF LOP -> ETT.ROP -> ETT.ID = %TRIAD THEN
      576    14682    5   BB:            DO;
      577    14683    5                    CALL Z8AF$FORME(%MPI, LOP -> ETT.ROP, ROP, RESULT$);
      578    14684    5                    CALL Z8AF$FORME(%MPI, LOP -> ETT.LOP, RESULT$, RESULT$);
PL6.E3A0      #001=Z8AF$FORME_ON_SIZE File=Z8AF.:Z8A6TSI                         SAT 08/09/97 10:43 Page:22
      579    14685    5                    GOTO EXIT_WITH_TRANSFORMATION;
      580    14686    5                  END;
      581    14687
      582    14688    4              CASE(%MPI2);
      583    14689    4                POWER_OF_2 = 1;
      584    14690
      585    14691    5                DO SBIN_I = 1 TO LOP -> ETT.ROPCON;
      586    14692    5                  POWER_OF_2 = POWER_OF_2 * 2;
      587    14693    5                END;
      588    14694
      589    14695    4                MKCN.CON = INTEGER * POWER_OF_2;
      590    14696    4                CALL Z8AC$MAKE_CONST(CONST$);
      591    14697    4   CC:          CALL Z8AF$FORME(%MPI, LOP -> ETT.LOP, CONST$, RESULT$);
      592    14698    4                GOTO EXIT_WITH_TRANSFORMATION;
      593    14699
      594    14700    4            END /* Case */;
      595    14701
      596    14702    3            POWER_OF_2 = 1;
      597    14703
      598    14704    4            DO SBIN_I = 1 TO 34;
      599    14705    4              POWER_OF_2 = POWER_OF_2 * 2;
      600    14706
      601    14707    4              IF INTEGER = POWER_OF_2 THEN
      602    14708    5   DD:          DO;
      603    14709    5                  CALL Z8AF$FORME(%MPI2, LOP, SBIN_I, RESULT$);
      604    14710    5                  GOTO EXIT_WITH_TRANSFORMATION;
      605    14711    5                END;
      606    14712
      607    14713    4              IF INTEGER = (POWER_OF_2 + 1) THEN
      608    14714    5   EE:          DO;
      609    14715    5                  CALL Z8AF$FORME(%MPI2, LOP, SBIN_I, RESULT$);
      610    14716    5                  CALL Z8AF$FORME(%ADI, RESULT$, LOP, RESULT$);
      611    14717    5                  GOTO EXIT_WITH_TRANSFORMATION;
      612    14718    5                END;
      613    14719
      614    14720    4              IF INTEGER = (POWER_OF_2 - 1) THEN
      615    14721    5   FF:          DO;
PL6.E3A0      #001=Z8AF$FORME_ON_SIZE File=Z8AF.:Z8A6TSI                         SAT 08/09/97 10:43 Page:23
      616    14722    5                  CALL Z8AF$FORME(%MPI2, LOP, SBIN_I, RESULT$);
      617    14723    5                  CALL Z8AF$FORME(%SBI, RESULT$, LOP, RESULT$);
      618    14724    5                  GOTO EXIT_WITH_TRANSFORMATION;
      619    14725    5                END;
      620    14726    4            END /* Do */;
      621    14727    3          END;
      622    14728
      623    14729        %EJECT;
PL6.E3A0      #001=Z8AF$FORME_ON_SIZE File=Z8AF.:Z8A6TSI                         SAT 08/09/97 10:43 Page:24
      624    14730    2   CASE(%USI, %USR, %USQ);
      625    14731
      626    14732    3        DO CASE(LOP -> ETT.ID);
      627    14733    3          CASE(%SBI, %SBR, %SBQ);
      628    14734    3   II:      NEW_ID = LOP -> ETT.ID;
      629    14735    3            CALL Z8AF$FORME(NEW_ID, LOP -> ETT.ROP, LOP -> ETT.LOP, RESULT$);
      630    14736    3            GOTO EXIT_WITH_TRANSFORMATION;
      631    14737
      632    14738    3          CASE(%USI, %USR, %USQ);
      633    14739    3   JJ:      RESULT$ = LOP -> ETT.LOP;
      634    14740    3            GOTO EXIT_WITH_TRANSFORMATION;
      635    14741
      636    14742    3        END /* Case */;
      637    14743
      638    14744        %EJECT;
PL6.E3A0      #001=Z8AF$FORME_ON_SIZE File=Z8AF.:Z8A6TSI                         SAT 08/09/97 10:43 Page:25
      639    14745    2   CASE(%USD);
      640    14746
      641    14747    2        MKCN.CONA = '0';
      642    14748    2        CALL Z8AC$MAKE_CONST_D(RESULT$);
      643    14749
      644    14750    2        CALL Z8AF$FORME(%SBD, RESULT$, LOP, RESULT$);
      645    14751    2        GOTO EXIT_WITH_TRANSFORMATION;
      646    14752
      647    14753    2   CASE(%USO);
      648    14754
      649    14755    2        MKCN.CONA = BITASC('173'O);
      650    14756    2        CALL Z8AC$MAKE_CONST_O (RESULT$);
      651    14757    2        CALL Z8AF$FORME (%SBO, RESULT$, LOP, RESULT$);
      652    14758    2        GOTO EXIT_WITH_TRANSFORMATION;
      653    14759
      654    14760        %EJECT;
PL6.E3A0      #001=Z8AF$FORME_ON_SIZE File=Z8AF.:Z8A6TSI                         SAT 08/09/97 10:43 Page:26
      655    14761    2   CASE(%MINI);
      656    14762
      657    14763    2        IF LOP = ROP THEN
      658    14764    3   KK:    DO;
      659    14765    3            RESULT$ = LOP;
      660    14766    3            GOTO EXIT_WITH_TRANSFORMATION;
      661    14767    3          END;
      662    14768
      663    14769        %EJECT;
PL6.E3A0      #001=Z8AF$FORME_ON_SIZE File=Z8AF.:Z8A6TSI                         SAT 08/09/97 10:43 Page:27
      664    14770    2   CASE(%MPD, %DVD, %DVDR);
      665    14771
      666    14772    2        IF  ON_SIZE = '0'B
      667    14773    2        AND LOP -> ETT.ID <= %LAST_REFERENCE_TRIAD THEN
      668    14774    2          IF ROP -> ETT.ID = %TRIAD THEN
      669    14775    3   LL:      DO;
      670    14776    3              CONST$ = ROP -> ETT.LOP;
      671    14777    3              DNT$$ = CONST$ -> CONST.DNT$;
      672    14778
      673    14779    3              IF DNT$$ ~= ADDR(NIL) THEN
      674    14780    3                IF  CONST$ -> CONST.NDSC.S = %NO_SIGN
      675    14781    3                AND CONST$ -> CONST.NDSC.SF= 0    THEN
      676    14782    4                  DO;
      677    14783    4                    SBIN_I = CONST$ -> CONST.NDSC.N - 1;
      678    14784
      679    14785    4                    IF SUBSTR(DNT$$ -> DNT.TEXT.NAME, 0, 1) = '1'
      680    14786    4                    AND SUBSTR(DNT$$ -> DNT.TEXT.NAME, 1, SBIN_I) = SUBSTR(ZIP, 0,
             14786                             SBIN_I) THEN
      681    14787    5                      DO;
      682    14788    5                        IF ID = %DVD OR ID = %DVDR THEN
      683    14789    5                          SBIN_I =  - (SBIN_I);
      684    14790
      685    14791    5                        CALL Z8AU$TYPE_DESCRIPTOR(LOP, TYPE_DESC);
      686    14792    5                        SBIN_J = TYPE_DESC.DESC.NDSC.SF + SBIN_I;
      687    14793    5                        IF -32 <= SBIN_J AND SBIN_J <= 31 AND
      688    14794    6                            TYPE_DESC.DESC.NDSC.S ~= %FLOATING_POINT_LEADING_SIGN THEN
             14794                                     DO;
      689    14795    6                          CALL Z8AF$FORME(%MPD10, LOP, SBIN_I, RESULT$);
      690    14796    6                          GOTO EXIT_WITH_TRANSFORMATION;
      691    14797    6                        END;
      692    14798    5                      END;
      693    14799    4                  END;
      694    14800    3            END; /* LL */
      695    14801    2        IF LOP -> ETT.ID = %MPD AND
      696    14802    2            (ID = %DVD OR ID = %DVDR) THEN
      697    14803    3          DO;
      698    14804    3            IF ROP = LOP -> ETT.LOP THEN
PL6.E3A0      #001=Z8AF$FORME_ON_SIZE File=Z8AF.:Z8A6TSI                         SAT 08/09/97 10:43 Page:28
      699    14805    4   JJJ:       DO;
      700    14806    4                RESULT$ = LOP -> ETT.ROP;
      701    14807    4                GOTO EXIT_WITH_TRANSFORMATION;
      702    14808    4              END;
      703    14809    3            IF ROP = LOP -> ETT.ROP THEN
      704    14810    4   KKK:       DO;
      705    14811    4                RESULT$ = LOP -> ETT.LOP;
      706    14812    4                GOTO EXIT_WITH_TRANSFORMATION;
      707    14813    4              END;
      708    14814    3          END;
      709    14815
      710    14816        %EJECT;
PL6.E3A0      #001=Z8AF$FORME_ON_SIZE File=Z8AF.:Z8A6TSI                         SAT 08/09/97 10:43 Page:29
      711    14817    2   CASE(%DVI, %DVR);
      712    14818
      713    14819    2        IF LOP = ROP THEN
      714    14820    3          DO;
      715    14821    4            DO CASE (ID);
      716    14822    4              CASE (%DVI);
      717    14823    4   MM:          MKCN.CON = 1;
      718    14824
      719    14825    4                CALL Z8AC$MAKE_CONST (RESULT$);
      720    14826
      721    14827    4              CASE (%DVR);
      722    14828    4   NN:          IF COMCOM.OB.HEX THEN
      723    14829    4                  MKCN.CON = HEX_F_ONE;
      724    14830    4                ELSE
      725    14831    4                  MKCN.CON = FLOAT_ONE;
      726    14832
      727    14833    4                CALL Z8AC$MAKE_CONST_R (RESULT$);
      728    14834    4            END;
      729    14835
      730    14836    3            GOTO EXIT_WITH_TRANSFORMATION;
      731    14837
      732    14838    3          END;
      733    14839    2        ELSE
      734    14840    3          DO;
      735    14841    3            IF LOP -> ETT.ID = %TRIAD THEN
      736    14842    3              IF LOP -> ETT.LOP -> CONST.CONSTI.WORD1 = 0 THEN
      737    14843    4   OO:          DO;
      738    14844    4                  RESULT$ = LOP;
      739    14845    4                  GOTO EXIT_WITH_TRANSFORMATION;
      740    14846    4                END;
      741    14847
      742    14848    4            DO CASE(ROP -> ETT.ID);
      743    14849    4              CASE(%MPI);
      744    14850    4                IF ROP -> ETT.LOP = LOP THEN
      745    14851    5   PP:            DO;
      746    14852    5                    CALL Z8AF$FORME(%DVI, COMCOM.VALUE_1, ROP -> ETT.ROP, RESULT$);
      747    14853    5                    GOTO EXIT_WITH_TRANSFORMATION;
PL6.E3A0      #001=Z8AF$FORME_ON_SIZE File=Z8AF.:Z8A6TSI                         SAT 08/09/97 10:43 Page:30
      748    14854    5                  END;
      749    14855
      750    14856    4                IF ROP -> ETT.ROP = LOP THEN
      751    14857    5   QQ:            DO;
      752    14858    5                    CALL Z8AF$FORME(%DVI, COMCOM.VALUE_1, ROP -> ETT.LOP, RESULT$);
      753    14859    5                    GOTO EXIT_WITH_TRANSFORMATION;
      754    14860    5                  END;
      755    14861
      756    14862    4              CASE(%MPI2);
      757    14863    4                IF ROP -> ETT.LOP = LOP THEN
      758    14864    5   RR:            DO;
      759    14865    5                    MKCN.CON = 0;
      760    14866
      761    14867    5                    CALL Z8AC$MAKE_CONST(RESULT$);
      762    14868    5                    GOTO EXIT_WITH_TRANSFORMATION;
      763    14869    5                  END;
      764    14870    4              CASE(%TRIAD);
      765    14871    4                IF ROP -> ETT.LOP -> CONST.CONSTI.WORD1 = 1 THEN
      766    14872    5   HHH:           DO;
      767    14873    5                    RESULT$ = LOP;
      768    14874    5                    GOTO EXIT_WITH_TRANSFORMATION;
      769    14875    5                  END;
      770    14876    4                IF LOP -> ETT.ID = %MPI2 THEN
      771    14877    5                  DO;
      772    14878    5                    POWER_OF_2 = 1;
      773    14879
      774    14880    6                    DO SBIN_I = 1 TO LOP -> ETT.ROPCON;
      775    14881    6                      POWER_OF_2 = POWER_OF_2 + POWER_OF_2;
      776    14882    6                    END;
      777    14883
      778    14884    5                    SBIN_J = ROP -> ETT.LOP -> CONST.CONSTI.WORD1 / POWER_OF_2;
      779    14885    5                    IF SBIN_J * POWER_OF_2 = ROP -> ETT.LOP -> CONST.CONSTI.WORD1 THEN
      780    14886    6    III:              DO;
      781    14887    6                        MKCN.CON = SBIN_J;
      782    14888    6                        CALL Z8AC$MAKE_CONST(CONST$);
      783    14889    6                        CALL Z8AF$FORME(%DVI, LOP -> ETT.LOP, CONST$, RESULT$);
      784    14890    6                        GOTO EXIT_WITH_TRANSFORMATION;
PL6.E3A0      #001=Z8AF$FORME_ON_SIZE File=Z8AF.:Z8A6TSI                         SAT 08/09/97 10:43 Page:31
      785    14891    6                      END;
      786    14892    5                  END;
      787    14893    4            END /* Case */;
      788    14894    3          END;
      789    14895
      790    14896        %EJECT;
PL6.E3A0      #001=Z8AF$FORME_ON_SIZE File=Z8AF.:Z8A6TSI                         SAT 08/09/97 10:43 Page:32
      791    14897    2   CASE(%MPI2);
      792    14898
      793    14899    2        IF LOP -> ETT.ID = %MPI2 THEN
      794    14900    3   LLL:   DO;
      795    14901    3            INTEGER = ROPCON_UBIN + LOP -> ETT.ROPCON;
      796    14902    3            CALL Z8AF$FORME (%MPI2, LOP -> ETT.LOP, INTEGER, RESULT$);
      797    14903    3            GOTO EXIT_WITH_TRANSFORMATION;
      798    14904    3          END;
      799    14905    2        IF LOP -> ETT.ID = %DVI2 THEN
      800    14906    3          DO;
      801    14907    3            POWER_OF_2 = -1;
      802    14908    4            DO INTEGER = LOP -> ETT.ROPCON DOWNTO 1;
      803    14909    4              POWER_OF_2 = POWER_OF_2 * 2;
      804    14910    4            END;
      805    14911    3            MKCN.CON = POWER_OF_2;
      806    14912    3            CALL Z8AC$MAKE_CONST (CONST$);
      807    14913    3            CALL Z8AF$FORME (%ANDI, LOP -> ETT.LOP, CONST$, RESULT$);
      808    14914    3            INTEGER = ROPCON_UBIN - LOP -> ETT.ROPCON;
      809    14915    3            IF INTEGER > 0 THEN
      810    14916    3   MMM:       CALL Z8AF$FORME (%MPI2, RESULT$, INTEGER, RESULT$);
      811    14917    3            ELSE IF INTEGER = 0 THEN
      812    14918    3   NNN:       /* No further action needed */;
      813    14919    3            ELSE
      814    14920    3   OOO:       CALL Z8AF$FORME (%DVI2, RESULT$, - INTEGER, RESULT$);
      815    14921    3            GOTO EXIT_WITH_TRANSFORMATION;
      816    14922    3          END;
      817    14923
      818    14924        %EJECT;
PL6.E3A0      #001=Z8AF$FORME_ON_SIZE File=Z8AF.:Z8A6TSI                         SAT 08/09/97 10:43 Page:33
      819    14925    2   CASE(%DVI2);
      820    14926
      821    14927    2        IF LOP -> ETT.ID = %DVI2 THEN
      822    14928    3   PPP:   DO;
      823    14929    3            INTEGER = ROPCON_UBIN + LOP -> ETT.ROPCON;
      824    14930    3            CALL Z8AF$FORME (%DVI2, LOP -> ETT.LOP, INTEGER, RESULT$);
      825    14931    3            GOTO EXIT_WITH_TRANSFORMATION;
      826    14932    3          END;
      827    14933    2        IF LOP -> ETT.ID = %MPI2 THEN
      828    14934    3          DO;
      829    14935    3            INTEGER = ROPCON_UBIN - LOP -> ETT.ROPCON;
      830    14936    3            IF INTEGER > 0 THEN
      831    14937    3   QQQ:       CALL Z8AF$FORME (%DVI2, LOP -> ETT.LOP, INTEGER, RESULT$);
      832    14938    3            ELSE IF INTEGER = 0 THEN
      833    14939    3   RRR:       RESULT$ = LOP -> ETT.LOP;
      834    14940    3            ELSE
      835    14941    3   SSS:       CALL Z8AF$FORME (%MPI2, LOP -> ETT.LOP, - INTEGER, RESULT$);
      836    14942    3            GOTO EXIT_WITH_TRANSFORMATION;
      837    14943    3          END;
      838    14944
      839    14945        %EJECT;
PL6.E3A0      #001=Z8AF$FORME_ON_SIZE File=Z8AF.:Z8A6TSI                         SAT 08/09/97 10:43 Page:34
      840    14946    2   CASE(%EXII, %EXRI, %EXQI, %EXDI);
      841    14947
      842    14948         /*  IF  ON_SIZE = '0'B  AND            */
      843    14949    2        IF  ROP->ETT.ID = %TRIAD THEN
      844    14950    3          DO;
      845    14951    3            INTEGER = ROP -> ETT.LOP -> CONST.CONSTI.WORD1;
      846    14952
      847    14953    4            DO CASE (ID);
      848    14954    4              CASE (%EXII);
      849    14955    4                NEW_ID = %MPI;
      850    14956    4              CASE (%EXRI);
      851    14957    4                NEW_ID = %MPR;
      852    14958    4              CASE (%EXQI);
      853    14959    4                NEW_ID = %MPQ;
      854    14960    4              CASE (%EXDI);
      855    14961    4                NEW_ID = %MPD;
      856    14962    4            END;
      857    14963
      858    14964    4            DO CASE (INTEGER) ;
      859    14965
      860    14966    4            CASE (0) ;
      861    14967
      862    14968    4              RESULT$ = COMCOM.VALUE_1 ;
      863    14969    4              GOTO EXIT_WITH_TRANSFORMATION ;
      864    14970
      865    14971    4            CASE (1) ;
      866    14972
      867    14973    4              RESULT$ = LOP ;
      868    14974    4              GOTO EXIT_WITH_TRANSFORMATION ;
      869    14975
      870    14976    4            CASE (2) ;
      871    14977
      872    14978    4              CALL Z8AF$FORME (NEW_ID, LOP, LOP, RESULT$) ;
      873    14979    4              GOTO EXIT_WITH_TRANSFORMATION ;
      874    14980
      875    14981    4            CASE (3) ;
      876    14982
PL6.E3A0      #001=Z8AF$FORME_ON_SIZE File=Z8AF.:Z8A6TSI                         SAT 08/09/97 10:43 Page:35
      877    14983    4              CALL Z8AF$FORME (NEW_ID, LOP, LOP, RESULT$) ;
      878    14984    4              CALL Z8AF$FORME (NEW_ID, RESULT$, LOP, RESULT$) ;
      879    14985    4              GOTO EXIT_WITH_TRANSFORMATION ;
      880    14986
      881    14987    4            CASE (ELSE) ;
      882    14988
      883    14989    4              POWER_OF_2 = 2;
      884    14990
      885    14991    5              DO SBIN_I = 2 TO 12;
      886    14992    5                POWER_OF_2 = POWER_OF_2 * 2;
      887    14993
      888    14994    5                IF INTEGER = POWER_OF_2 THEN
      889    14995    6     SS:          DO;
      890    14996    6                    CALL EXPAND_MULTIPLY_TREE(POWER_OF_2);
      891    14997    6                    GOTO EXIT_WITH_TRANSFORMATION;
      892    14998    6                  END;
      893    14999
      894    15000    5                IF INTEGER = (POWER_OF_2 + 1) THEN
      895    15001    6     TT:          DO;
      896    15002    6                    CALL EXPAND_MULTIPLY_TREE(POWER_OF_2);
      897    15003    6                    CALL Z8AF$FORME(NEW_ID, RESULT$, LOP, RESULT$);
      898    15004    6                    GOTO EXIT_WITH_TRANSFORMATION;
      899    15005    6                  END;
      900    15006
      901    15007    5                IF INTEGER = (POWER_OF_2 + 2) THEN
      902    15008    6     UU:          DO;
      903    15009    6                    CALL EXPAND_MULTIPLY_TREE(POWER_OF_2);
      904    15010    6                    CALL Z8AF$FORME(NEW_ID, RESULT$, LOP, RESULT$);
      905    15011    6                    CALL Z8AF$FORME(NEW_ID, RESULT$, LOP, RESULT$);
      906    15012    6                    GOTO EXIT_WITH_TRANSFORMATION;
      907    15013    6                  END;
      908    15014
      909    15015    5                POWER_OF_2_ = 2;
      910    15016
      911    15017    6                DO SBIN_J = 2 TO 9;
      912    15018    6                  POWER_OF_2_ = POWER_OF_2_ * 2;
      913    15019
PL6.E3A0      #001=Z8AF$FORME_ON_SIZE File=Z8AF.:Z8A6TSI                         SAT 08/09/97 10:43 Page:36
      914    15020    6                  IF INTEGER = (POWER_OF_2 + 1) * POWER_OF_2_ THEN
      915    15021    7     VV:            DO;
      916    15022    7                      CALL EXPAND_MULTIPLY_TREE(POWER_OF_2);
      917    15023    7                      CALL Z8AF$FORME(NEW_ID, RESULT$, LOP, RESULT$);
      918    15024    7                      LOP = RESULT$;
      919    15025    7                      CALL EXPAND_MULTIPLY_TREE(POWER_OF_2_);
      920    15026    7                      GOTO EXIT_WITH_TRANSFORMATION;
      921    15027    7                    END;
      922    15028
      923    15029    6                END /* Do */;
      924    15030    5              END /* Do */;
      925    15031    4            END /* Case */ ;
      926    15032    3          END;
      927    15033
      928    15034
      929    15035        %EJECT;
PL6.E3A0      #001=Z8AF$FORME_ON_SIZE File=Z8AF.:Z8A6TSI                         SAT 08/09/97 10:43 Page:37
      930    15036    2   CASE(%CMPD, %CMPO);
      931    15037
      932    15038    2        IF LOP -> ETT.ID = %CVID4 THEN
      933    15039    3   TTT:   DO;
      934    15040
      935    15041    3            CALL Z8AU$TYPE_DESCRIPTOR (ROP, TYPE_DESC);
      936    15042
      937    15043                 %UNPACK_NDSC (@DESC   = TYPE_DESC.DESC,
      938    15044                               @TYPE   = TYPE_DESC.TYPE,
      939    15045                               @TN     = TN,
      940    15046                               @SCALE  = SCALE,
      941    15047                               @LENGTH = LENGTH);
      942    15102    3            IF SCALE = 0 AND LENGTH <= 11 THEN
      943    15103    4              DO;
      944    15104    4                IF ID = %CMPO THEN
      945    15105    4                  CALL Z8AF$FORME (%CVOD4, ROP, 0, ROP);
      946    15106    4                CALL Z8AF$FORME (%CVDI, ROP, 0, ROP);
      947    15107    4                LOP = LOP -> ETT.LOP;
      948    15108    4                IF LOP -> ETT.ID = %SSOP THEN
      949    15109    4                  CALL Z8AU$BYTE_TO_WORD_UNITS (LOP, TN, LOP);
      950    15110    4                ID = %CMPI;
      951    15111    4              END;
      952    15112    3          END;
      953    15113    2        ELSE IF ROP -> ETT.ID = %CVID4 THEN
      954    15114    3   UUU:   DO;
      955    15115
      956    15116    3            CALL Z8AU$TYPE_DESCRIPTOR (LOP, TYPE_DESC);
      957    15117
      958    15118                 %UNPACK_NDSC (@DESC   = TYPE_DESC.DESC,
      959    15119                               @TYPE   = TYPE_DESC.TYPE,
      960    15120                               @TN     = TN,
      961    15121                               @SCALE  = SCALE,
      962    15122                               @LENGTH = LENGTH);
      963    15177    3            IF SCALE = 0 AND LENGTH <= 11 THEN
      964    15178    4              DO;
      965    15179    4                IF ID = %CMPO THEN
      966    15180    4                  CALL Z8AF$FORME (%CVOD4, LOP, 0, LOP);
PL6.E3A0      #001=Z8AF$FORME_ON_SIZE File=Z8AF.:Z8A6TSI                         SAT 08/09/97 10:43 Page:38
      967    15181    4                CALL Z8AF$FORME (%CVDI, LOP, 0, LOP);
      968    15182    4                ROP = ROP -> ETT.LOP;
      969    15183    4                IF ROP -> ETT.ID = %SSOP THEN
      970    15184    4                  CALL Z8AU$BYTE_TO_WORD_UNITS (ROP, TN, ROP);
      971    15185    4                ID = %CMPI;
      972    15186    4              END;
      973    15187    3          END;
      974    15188
      975    15189        %EJECT;
PL6.E3A0      #001=Z8AF$FORME_ON_SIZE File=Z8AF.:Z8A6TSI                         SAT 08/09/97 10:43 Page:39
      976    15190    2   CASE(%CVID4) ;
      977    15191
      978    15192    3        IF LOP->ETT.ID = %TRIAD THEN DO ;
      979    15193
      980    15194    3          DNT$$ = LOP -> ETT.LOP -> CONST.DNT$ ;
      981    15195
      982    15196    4          IF DNT$$ ~= ADDR (NIL) THEN DO ;
      983    15197    4   WW: ;
      984    15198    4            LX_TERMINAL$ = ADDR (LX_NUMBER) ;
      985    15199    4            IF DNT$$ -> DNT.B.RW
      986    15200    4            THEN SYMBOL = DNT$$ -> DNT.RW_NO ;
      987    15201    4            ELSE SYMBOL = %NUMERIC_LITERAL ;
      988    15202                 %INIT_LX_TERMINAL (@SYMBOL = SYMBOL,
      989    15203                                    @DNT$   = DNT$$,
      990    15204                                    @POINTER= LX_TERMINAL$) ;
      991    15222
      992    15223    4            CALL Z8EC$CREATE_CONST (%TYD, LX_TERMINAL$, RESULT$) ;
      993    15224
      994    15225    4            GOTO EXIT_WITH_TRANSFORMATION ;
      995    15226
      996    15227    4          END ; /* DNT$$ <> Nil */
      997    15228
      998    15229    3        END ; /* CVID4's operand is a constant */
      999    15230
     1000    15231        %EJECT;
PL6.E3A0      #001=Z8AF$FORME_ON_SIZE File=Z8AF.:Z8A6TSI                         SAT 08/09/97 10:43 Page:40
     1001    15232    2   CASE(%CVDI) ;
     1002    15233
     1003    15234    2        IF LOP -> ETT.ID = %CVDSF
     1004    15235    2        THEN LOPLOP = LOP -> ETT.LOP ;
     1005    15236    2        ELSE LOPLOP = LOP ;
     1006    15237
     1007    15238    3        DO CASE (LOPLOP -> ETT.ID) ;
     1008    15239    3          CASE (%ADD, %SBD, %MPD, %DVD, %DVDR) ;
     1009    15240    3            CALL Z8AU$TYPE_DESCRIPTOR (LOPLOP -> ETT.ROP, TYPE_DESC) ;
     1010    15241
     1011    15242    3            IF  ON_SIZE = '0'B
     1012    15243    3            AND TYPE_DESC.DESC.NDSC.SF = 0
     1013    15244    3            AND TYPE_DESC.DESC.NDSC.S  ~= '00'B /* Float */
     1014    15245    3            AND LOPLOP -> ETT.LOP -> ETT.ID = %CVID4
     1015    15246    4            AND LOPLOP -> ETT.LOP -> ETT.LOP -> ETT.ID ~= %SSOP THEN DO ;
     1016    15247    4   XX: ;
     1017    15248    4              CALL Z8AF$FORME (%CVDI, LOPLOP -> ETT.ROP, 0, RESULT$) ;
     1018    15249
     1019    15250    5              DO CASE (LOPLOP -> ETT.ID) ;
     1020    15251    5                CASE (%ADD) ;
     1021    15252    5                  NEW_ID = %ADI ;
     1022    15253    5                CASE (%SBD) ;
     1023    15254    5                  NEW_ID = %SBI ;
     1024    15255    5                CASE (%MPD) ;
     1025    15256    5                  NEW_ID = %MPI ;
     1026    15257    5                CASE (%DVD, %DVDR) ;
     1027    15258    5                  NEW_ID = %DVI ;
     1028    15259    5              END ; /* Case of LOPLOPs ID */
     1029    15260
     1030    15261    4              CALL Z8AF$FORME (NEW_ID,
     1031    15262    4                               LOPLOP -> ETT.LOP -> ETT.LOP,
     1032    15263    4                               RESULT$, /* CVDI */
     1033    15264    4                               RESULT$) ;
     1034    15265    4              GOTO EXIT_WITH_TRANSFORMATION ;
     1035    15266
     1036    15267    4            END ; /* IF LOPLOP's LOP is a CVID */
     1037    15268
PL6.E3A0      #001=Z8AF$FORME_ON_SIZE File=Z8AF.:Z8A6TSI                         SAT 08/09/97 10:43 Page:41
     1038    15269    3          CASE (%CVID4, %CVID9);
     1039    15270    3            IF LOPLOP -> ETT.LOP -> ETT.ID = %SSOP THEN
     1040    15271    4              DO;
     1041    15272    4                MKCN.CON = 4;
     1042    15273    4                CALL Z8AC$MAKE_CONST(CONST$);
     1043    15274    4                CALL Z8AF$FORME(%DVI, LOPLOP -> ETT.LOP -> ETT.ROP, CONST$, ROP);
     1044    15275    4                PACKED.OFFSET = LOPLOP -> ETT.LOP -> ETT.LOP -> ETT.OFFSET.VALUE / 4;
     1045    15276    4                PACKED.TYPE = %WORD_;
     1046    15277    4                CALL Z8AF$FORME(%OFF, LOPLOP -> ETT.LOP -> ETT.LOP -> ETT.LOP, PACKED,
             15277                         RESULT$);
     1047    15278    4                CALL Z8AF$FORME(%SSOP, RESULT$, ROP, RESULT$);
     1048    15279    4              END;
     1049    15280    3            ELSE
     1050    15281    3              RESULT$ = LOPLOP -> ETT.LOP;
     1051    15282    3            GOTO EXIT_WITH_TRANSFORMATION;
     1052    15283
     1053    15284    3          CASE (%TRIAD) ;
     1054    15285    3            DNT$$ = LOPLOP -> ETT.LOP -> CONST.DNT$ ;
     1055    15286
     1056    15287    4            IF DNT$$ ~= ADDR (NIL) THEN DO ;
     1057    15288    4   GGG:
     1058    15289    4              LX_TERMINAL$ = ADDR (LX_NUMBER) ;
     1059    15290    4              IF DNT$$ -> DNT.B.RW
     1060    15291    4              THEN SYMBOL = DNT$$ -> DNT.RW_NO ;
     1061    15292    4              ELSE SYMBOL = %NUMERIC_LITERAL ;
     1062    15293                   %INIT_LX_TERMINAL (@SYMBOL = SYMBOL,
     1063    15294                                      @DNT$   = DNT$$,
     1064    15295                                      @POINTER= LX_TERMINAL$) ;
     1065    15313
     1066    15314    4              CALL Z8EC$CREATE_CONST (%TYI, LX_TERMINAL$, RESULT$) ;
     1067    15315
     1068    15316    4              GOTO EXIT_WITH_TRANSFORMATION ;
     1069    15317
     1070    15318    4            END ; /* DNT$$ <> Nil */
     1071    15319
     1072    15320    3        END ; /* Case of LOPLOP's ID */
     1073    15321
PL6.E3A0      #001=Z8AF$FORME_ON_SIZE File=Z8AF.:Z8A6TSI                         SAT 08/09/97 10:43 Page:42
     1074    15322        %EJECT;
PL6.E3A0      #001=Z8AF$FORME_ON_SIZE File=Z8AF.:Z8A6TSI                         SAT 08/09/97 10:43 Page:43
     1075    15323    2   CASE(%CVIR) ;
     1076    15324
     1077    15325    3        IF LOP->ETT.ID = %TRIAD THEN DO ;
     1078    15326
     1079    15327    3          DNT$$ = LOP -> ETT.LOP -> CONST.DNT$ ;
     1080    15328
     1081    15329    4          IF DNT$$ ~= ADDR (NIL) THEN DO ;
     1082    15330    4   AAA: ;
     1083    15331    4            LX_TERMINAL$ = ADDR (LX_NUMBER) ;
     1084    15332    4            IF DNT$$ -> DNT.B.RW
     1085    15333    4            THEN SYMBOL = DNT$$ -> DNT.RW_NO ;
     1086    15334    4            ELSE SYMBOL = %NUMERIC_LITERAL ;
     1087    15335                 %INIT_LX_TERMINAL (@SYMBOL = SYMBOL,
     1088    15336                                    @DNT$   = DNT$$,
     1089    15337                                    @POINTER= LX_TERMINAL$) ;
     1090    15355
     1091    15356    4            CALL Z8EC$CREATE_CONST (%TYR, LX_TERMINAL$, RESULT$) ;
     1092    15357
     1093    15358    4            GOTO EXIT_WITH_TRANSFORMATION ;
     1094    15359
     1095    15360    4          END ; /* DNT$$ <> Nil */
     1096    15361
     1097    15362    3        END ; /* CVIR's operand is a constant */
     1098    15363
     1099    15364    2   CASE(%CVIQ) ;
     1100    15365
     1101    15366    3        IF LOP->ETT.ID = %TRIAD THEN DO ;
     1102    15367
     1103    15368    3          DNT$$ = LOP -> ETT.LOP -> CONST.DNT$ ;
     1104    15369
     1105    15370    4          IF DNT$$ ~= ADDR (NIL) THEN DO ;
     1106    15371    4   BBB: ;
     1107    15372    4            LX_TERMINAL$ = ADDR (LX_NUMBER) ;
     1108    15373    4            IF DNT$$ -> DNT.B.RW
     1109    15374    4            THEN SYMBOL = DNT$$ -> DNT.RW_NO ;
     1110    15375    4            ELSE SYMBOL = %NUMERIC_LITERAL ;
     1111    15376                 %INIT_LX_TERMINAL (@SYMBOL = SYMBOL,
PL6.E3A0      #001=Z8AF$FORME_ON_SIZE File=Z8AF.:Z8A6TSI                         SAT 08/09/97 10:43 Page:44
     1112    15377                                    @DNT$   = DNT$$,
     1113    15378                                    @POINTER= LX_TERMINAL$) ;
     1114    15396
     1115    15397    4            CALL Z8EC$CREATE_CONST (%TYQ, LX_TERMINAL$, RESULT$) ;
     1116    15398
     1117    15399    4            GOTO EXIT_WITH_TRANSFORMATION ;
     1118    15400
     1119    15401    4          END ; /* DNT$$ <> Nil */
     1120    15402
     1121    15403    3        END ; /* CVIQ's operand is a constant */
     1122    15404
     1123    15405        %EJECT;
PL6.E3A0      #001=Z8AF$FORME_ON_SIZE File=Z8AF.:Z8A6TSI                         SAT 08/09/97 10:43 Page:45
     1124    15406    2   CASE(%CVDRR) ;
     1125    15407
     1126    15408    3        IF LOP->ETT.ID = %TRIAD THEN DO ;
     1127    15409
     1128    15410    3          DNT$$ = LOP -> ETT.LOP -> CONST.DNT$ ;
     1129    15411
     1130    15412    4          IF DNT$$ ~= ADDR (NIL) THEN DO ;
     1131    15413    4   CCC: ;
     1132    15414    4            LX_TERMINAL$ = ADDR (LX_NUMBER) ;
     1133    15415    4            IF DNT$$ -> DNT.B.RW
     1134    15416    4            THEN SYMBOL = DNT$$ -> DNT.RW_NO ;
     1135    15417    4            ELSE SYMBOL = %NUMERIC_LITERAL ;
     1136    15418                 %INIT_LX_TERMINAL (@SYMBOL = SYMBOL,
     1137    15419                                    @DNT$   = DNT$$,
     1138    15420                                    @POINTER= LX_TERMINAL$) ;
     1139    15438
     1140    15439    4            CALL Z8EC$CREATE_CONST (%TYR, LX_TERMINAL$, RESULT$) ;
     1141    15440
     1142    15441    4            GOTO EXIT_WITH_TRANSFORMATION ;
     1143    15442
     1144    15443    4          END ; /* DNT$$ <> Nil */
     1145    15444
     1146    15445    3        END ; /* CVDRR's operand is a constant */
     1147    15446
     1148    15447        %EJECT;
PL6.E3A0      #001=Z8AF$FORME_ON_SIZE File=Z8AF.:Z8A6TSI                         SAT 08/09/97 10:43 Page:46
     1149    15448    2   CASE(%CVDQR) ;
     1150    15449
     1151    15450    3        IF LOP->ETT.ID = %TRIAD THEN DO ;
     1152    15451
     1153    15452    3          DNT$$ = LOP -> ETT.LOP -> CONST.DNT$ ;
     1154    15453
     1155    15454    4          IF DNT$$ ~= ADDR (NIL) THEN DO ;
     1156    15455    4   DDD: ;
     1157    15456    4            LX_TERMINAL$ = ADDR (LX_NUMBER) ;
     1158    15457    4            IF DNT$$ -> DNT.B.RW
     1159    15458    4            THEN SYMBOL = DNT$$ -> DNT.RW_NO ;
     1160    15459    4            ELSE SYMBOL = %NUMERIC_LITERAL ;
     1161    15460                 %INIT_LX_TERMINAL (@SYMBOL = SYMBOL,
     1162    15461                                    @DNT$   = DNT$$,
     1163    15462                                    @POINTER= LX_TERMINAL$) ;
     1164    15480
     1165    15481    4            CALL Z8EC$CREATE_CONST (%TYQ, LX_TERMINAL$, RESULT$) ;
     1166    15482
     1167    15483    4            GOTO EXIT_WITH_TRANSFORMATION ;
     1168    15484
     1169    15485    4          END ; /* DNT$$ <> Nil */
     1170    15486
     1171    15487    3        END ; /* CVDRR's operand is a constant */
     1172    15488
     1173    15489        %EJECT;
PL6.E3A0      #001=Z8AF$FORME_ON_SIZE File=Z8AF.:Z8A6TSI                         SAT 08/09/97 10:43 Page:47
     1174    15490    2   END /* Case */;
     1175    15491
     1176    15492        %EJECT;
PL6.E3A0      #001=Z8AF$FORME_ON_SIZE File=Z8AF.:Z8A6TSI                         SAT 08/09/97 10:43 Page:48
     1177    15493
     1178    15494    1   EXIT_WITH_NO_TRANSFORMATION:
     1179    15495
     1180    15496
     1181    15497    2        DO CASE(ID);
     1182    15498
     1183    15499    2          CASE(%CFILL); /* Only first byte of ROPCON is used */
     1184    15500    2            ROP_FILL.UBIN_3 = 0 ;
     1185    15501
     1186    15502    2          CASE(%DNA);
     1187    15503    2            IF ROPCON = '0'B THEN
     1188    15504    3              DO; /* Caller does not override the default */
     1189    15505    3                CALL Z8AU$TYPE_DESCRIPTOR(LOP, TYPE_DESC);
     1190    15506
     1191    15507    3                IF TYPE_DESC.TYPE = %TYC THEN
     1192    15508    3                  TA = %ADSC6;
     1193    15509    3                ELSE IF TYPE_DESC.DESC.NDSC.TN = %NDSC9 THEN
     1194    15510    3                  TA = %ADSC9;
     1195    15511    3                ELSE
     1196    15512    3                  TA = %ADSC4;
     1197    15513
     1198    15514                     %PACK_ADSC (@DESC    = ROPCON,
     1199    15515                                 @TA      = TA,
     1200    15516                                 @SA      = TYPE_DESC.DESC.SA,
     1201    15517                                 @CN      = TYPE_DESC.DESC.ADSC.CN,
     1202    15518                                 @LENGTH  = TYPE_DESC.DESC.NDSC.N);
     1203    15542    3              END;
     1204    15543
     1205    15544    2          CASE(%DAN);
     1206    15545    2            CALL Z8AU$TYPE_DESCRIPTOR(LOP, TYPE_DESC);
     1207    15546
     1208    15547                 %FISH (TRIAD = LOP, RTN = LOP_ST$);
     1209    15555    2            IF LOP_ST$ -> VARIABLE.TYPE = %TYC THEN
     1210    15556    3              DO; /* GBCD numeric */
     1211    15557    3                TN = LOP_ST$ -> VARIABLE.NDSC.TN; /* %NDSC4 = overpunched */
     1212    15558    3                TYPE_DESC.TYPE = %TYO; /* Because .NDSC.N includes sign if any */
     1213    15559    3                SIGN = LOP_ST$ -> VARIABLE.NDSC.S;
PL6.E3A0      #001=Z8AF$FORME_ON_SIZE File=Z8AF.:Z8A6TSI                         SAT 08/09/97 10:43 Page:49
     1214    15560    3              END;
     1215    15561    2            ELSE
     1216    15562    3              DO;
     1217    15563    3                TN = %NDSC9;
     1218    15564    3                TYPE_DESC.TYPE = %TYD;
     1219    15565    3                SIGN = %NO_SIGN;
     1220    15566    3              END;
     1221    15567
     1222    15568                 %PACK_NDSC (@DESC    = ROPCON,
     1223    15569                             @LENGTH  = TYPE_DESC.DESC.NDSC.N,
     1224    15570                             @TYPE    = TYPE_DESC.TYPE,
     1225    15571                             @SIGN    = SIGN,
     1226    15572                             @TN      = TN);
     1227    15621
     1228    15622    2          CASE(%CVID9);
     1229    15623    3            DO CASE(LOP -> ETT.ID);
     1230    15624    3              CASE(%CVJI);
     1231    15625    3                SIGNIFICANCE = %TYJ_SIGNIFICANCE;
     1232    15626
     1233    15627    3              CASE(%CVHI);
     1234    15628    3                SIGNIFICANCE = %TYH_SIGNIFICANCE;
     1235    15629
     1236    15630    3              CASE(%CVKI);
     1237    15631    3                SIGNIFICANCE = %TYK_SIGNIFICANCE;
     1238    15632
     1239    15633    3              CASE(ELSE);
     1240    15634    3                SIGNIFICANCE = %TYI_SIGNIFICANCE;
     1241    15635    3            END /* Case */;
     1242    15636
     1243    15637
     1244    15638                 %PACK_NDSC ( @DESC    = ROPCON ,
     1245    15639                              @TN      = %NDSC9 ,
     1246    15640                              @SIGN    = %TRAILING_SIGN ,
     1247    15641                              @LENGTH  = SIGNIFICANCE );
     1248    15690
     1249    15691
     1250    15692    2          CASE(%CVOD4);
PL6.E3A0      #001=Z8AF$FORME_ON_SIZE File=Z8AF.:Z8A6TSI                         SAT 08/09/97 10:43 Page:50
     1251    15693    2            CALL Z8AU$TYPE_DESCRIPTOR (LOP, TYPE_DESC);
     1252    15694
     1253    15695                 %PACK_NDSC (@DESC    = ROPCON,
     1254    15696                             @TN      = %NDSC4,
     1255    15697                             @SIGN    = TYPE_DESC.DESC.NDSC.S,
     1256    15698                             @SCALE   = TYPE_DESC.DESC.NDSC.SF,
     1257    15699                             @LENGTH  = TYPE_DESC.DESC.NDSC.N);
     1258    15748
     1259    15749    2          CASE(%CVDF, %CVDO);
     1260    15750    2            CALL Z8AU$TYPE_DESCRIPTOR (LOP, TYPE_DESC);
     1261    15751
     1262    15752                 %UNPACK_NDSC (@DESC   = TYPE_DESC.DESC,
     1263    15753                               @SCALE  = SCALE,
     1264    15754                               @LENGTH = LENGTH);
     1265    15809
     1266    15810                 %PACK_NDSC   (@DESC   = ROPCON,
     1267    15811                               @TN     = %NDSC9,
     1268    15812                               @SIGN   = %TRAILING_SIGN,
     1269    15813                               @SCALE  = SCALE,
     1270    15814                               @LENGTH = LENGTH);
     1271    15863
     1272    15864    2          CASE(%CVDSF);
     1273    15865    2            CALL Z8AU$TYPE_DESCRIPTOR(LOP, TYPE_DESC);
     1274    15866
     1275    15867                 %UNPACK_NDSC (@DESC    = TYPE_DESC.DESC,
     1276    15868                               @LENGTH  = LENGTH,
     1277    15869                               @SCALE   = SCALE,
     1278    15870                               @TN      = TN);
     1279    15925
     1280    15926                 %PACK_NDSC   (@DESC    = ROPCON,
     1281    15927                               @LENGTH  = LENGTH + SCALE,
     1282    15928                               @SCALE   = 0,
     1283    15929                               @TN      = TN,
     1284    15930                               @SIGN    = %TRAILING_SIGN);
     1285    15979
     1286    15980    2          CASE(%CVDDD);
     1287    15981    2            CALL Z8AU$TYPE_DESCRIPTOR(LOP, TYPE_DESC);
PL6.E3A0      #001=Z8AF$FORME_ON_SIZE File=Z8AF.:Z8A6TSI                         SAT 08/09/97 10:43 Page:51
     1288    15982
     1289    15983                 %UNPACK_NDSC (@DESC   = TYPE_DESC.DESC,
     1290    15984                               @LENGTH = LENGTH,
     1291    15985                               @SCALE  = SCALE,
     1292    15986                               @TN     = TN,
     1293    15987                               @SIGN   = SIGN);
     1294    16042
     1295    16043                 %PACK_NDSC   (@DESC   = ROPCON,
     1296    16044                               @LENGTH = LENGTH,
     1297    16045                               @SCALE  = SCALE,
     1298    16046                               @TN     = TN,
     1299    16047                               @SIGN   = %TRAILING_SIGN);
     1300    16096
     1301    16097    2          CASE(%CV49);
     1302    16098    2            IF ROPCON = '0'B THEN
     1303    16099    3              DO;
     1304    16100    3                CALL Z8AU$TYPE_DESCRIPTOR(LOP, TYPE_DESC);
     1305    16101
     1306    16102                     %UNPACK_NDSC (@DESC   = TYPE_DESC.DESC,
     1307    16103                                   @LENGTH = LENGTH,
     1308    16104                                   @SCALE  = SCALE,
     1309    16105                                   @SIGN   = SIGN) ;
     1310    16160
     1311    16161                     %PACK_NDSC (@DESC    = ROPCON,
     1312    16162                                 @TN      = %NDSC9,
     1313    16163                                 @LENGTH  = LENGTH,
     1314    16164                                 @SCALE   = SCALE,
     1315    16165                                 @SIGN    = SIGN) ;
     1316    16214    3              END;
     1317    16215
     1318    16216    2          CASE(%CVID4);
     1319    16217    3            DO CASE(LOP -> ETT.ID);
     1320    16218    3              CASE(%CVJI);
     1321    16219    3                SIGNIFICANCE = %TYJ_SIGNIFICANCE;
     1322    16220
     1323    16221    3              CASE(%CVHI);
     1324    16222    3                SIGNIFICANCE = %TYH_SIGNIFICANCE;
PL6.E3A0      #001=Z8AF$FORME_ON_SIZE File=Z8AF.:Z8A6TSI                         SAT 08/09/97 10:43 Page:52
     1325    16223
     1326    16224    3              CASE(%CVKI);
     1327    16225    3                SIGNIFICANCE = %TYK_SIGNIFICANCE;
     1328    16226
     1329    16227    3              CASE(ELSE);
     1330    16228    3                SIGNIFICANCE = %TYI_SIGNIFICANCE;
     1331    16229    3            END /* Case */;
     1332    16230
     1333    16231                 %PACK_NDSC ( @DESC      = ROPCON ,
     1334    16232                              @TN        = %NDSC4 ,
     1335    16233                              @SIGN      = %TRAILING_SIGN ,
     1336    16234                              @LENGTH    = SIGNIFICANCE );
     1337    16283
     1338    16284    2          CASE(%CVQI,  %CVRI,  %CVDI);
     1339    16285                 %BUILD_BINARY_DESC ( @DESC    = ROPCON ,
     1340    16286                                      @LENGTH  = %TYI_LENGTH );
     1341    16294
     1342    16295    2          CASE(%CVIH);
     1343    16296                 %BUILD_BINARY_DESC ( @DESC    = ROPCON ,
     1344    16297                                      @LENGTH  = %TYH_LENGTH );
     1345    16305
     1346    16306    2          CASE(%CVIK);
     1347    16307                 %BUILD_BINARY_DESC ( @DESC    = ROPCON ,
     1348    16308                                      @LENGTH  = %TYK_LENGTH );
     1349    16316
     1350    16317    2          CASE(%CVIJ);
     1351    16318                 %BUILD_BINARY_DESC ( @DESC    = ROPCON ,
     1352    16319                                      @LENGTH  = %TYJ_LENGTH );
     1353    16327
     1354    16328    2          CASE(%CVRD4);
     1355    16329                 %PACK_NDSC ( @DESC    = ROPCON ,
     1356    16330                              @TN      = %NDSC4 ,
     1357    16331                              @SIGN    = %FLOATING_POINT_LEADING_SIGN ,
     1358    16332                              @LENGTH  = %TYR_SIGNIFICANCE );
     1359    16381
     1360    16382    2          CASE(%CVQD4);
     1361    16383                 %PACK_NDSC ( @DESC    = ROPCON ,
PL6.E3A0      #001=Z8AF$FORME_ON_SIZE File=Z8AF.:Z8A6TSI                         SAT 08/09/97 10:43 Page:53
     1362    16384                              @TN      = %NDSC4 ,
     1363    16385                              @SIGN    = %FLOATING_POINT_LEADING_SIGN ,
     1364    16386                              @LENGTH  = %TYQ_SIGNIFICANCE );
     1365    16435
     1366    16436    2          CASE(%CVRD9);
     1367    16437                 %PACK_NDSC ( @DESC    = ROPCON ,
     1368    16438                              @TN      = %NDSC9 ,
     1369    16439                              @SIGN    = %FLOATING_POINT_LEADING_SIGN ,
     1370    16440                              @LENGTH  = %TYR_SIGNIFICANCE );
     1371    16489
     1372    16490    2          CASE(%CVQD9);
     1373    16491                 %PACK_NDSC ( @DESC    = ROPCON ,
     1374    16492                              @TN      = %NDSC9 ,
     1375    16493                              @SIGN    = %FLOATING_POINT_LEADING_SIGN ,
     1376    16494                              @LENGTH  = %TYQ_SIGNIFICANCE );
     1377    16543
     1378    16544    2        END /* Case */;
     1379    16545
     1380    16546        %EJECT;
PL6.E3A0      #001=Z8AF$FORME_ON_SIZE File=Z8AF.:Z8A6TSI                         SAT 08/09/97 10:43 Page:54
     1381    16547
     1382    16548
     1383    16549    2        DO CASE(COMCOM.CURRENT.PHASE);
     1384    16550    2          CASE(0,1,2);
     1385    16551                 %SRCH_ETT( @ID = ID, @LOP = LOP, @ROP = ROP, @ETT$ = RESULT$);
     1386    16566
     1387    16567    2          CASE(3);
     1388    16568                 %NEW_ETT( @ID       = ID,
     1389    16569                           @LOP      = LOP,
     1390    16570                           @ROP      = ROP,
     1391    16571                           @POINTER  = RESULT$);
     1392    16641
     1393    16642    2          CASE(4);
     1394    16643                %SET PHASE = 4;
     1395    16644
     1396    16645                 %NEW_ETT( @ID       = ID,
     1397    16646                           @LOP      = LOP,
     1398    16647                           @ROP      = ROP,
     1399    16648                           @POINTER  = RESULT$,
     1400    16649                           @POOLABLE = YES);
     1401    16719
     1402    16720                %SET PHASE = 1;
     1403    16721
     1404    16722    2        END /* Case */;
     1405    16723
     1406    16724    1   EXIT_WITH_TRANSFORMATION:
     1407    16725
     1408    16726    1        RETURN;
     1409    16727
     1410    16728        %EJECT;
PL6.E3A0      #001=Z8AF$FORME_ON_SIZE File=Z8AF.:Z8A6TSI                         SAT 08/09/97 10:43 Page:55
     1411    16729    1   EXPAND_MULTIPLY_TREE:PROC(POWER_OF_2);
     1412    16730
     1413    16731
     1414    16732    2        DCL POWER_OF_2 SBIN WORD;
     1415    16733
     1416    16734
     1417    16735    2        RESULT$ = LOP;
     1418    16736    2        POWER_OF_2 = POWER_OF_2 / 2;
     1419    16737
     1420    16738    3        DO WHILE(POWER_OF_2 ~= 0);
     1421    16739    3          CALL Z8AF$FORME(NEW_ID, RESULT$, RESULT$, RESULT$);
     1422    16740    3          POWER_OF_2 = POWER_OF_2 / 2;
     1423    16741    3        END /* While */;
     1424    16742
     1425    16743    2   END EXPAND_MULTIPLY_TREE;
     1426    16744    1   END Z8AF$FORME_ON_SIZE ;
     1427    16745        %EOD;

PL6.E3A0      #001=Z8AF$FORME_ON_SIZE File=Z8AF.:Z8A6TSI                         SAT 08/09/97 10:43 Page:56
--  Include file information  --

   Z8E_WINDOW.:Z8A6TOU  is referenced.
   Z8A_LEX_SYMB.:Z8A6TOU  cannot be made into a system file and is referenced.
   Z8E_STACKS.:Z8A6TOU  cannot be made into a system file and is referenced.
   Z8A_MKCN.:Z8A6TOU  cannot be made into a system file and is referenced.
   Z8A_SRCH.:Z8A6TOU  cannot be made into a system file and is referenced.
   Z8A_LTS.:Z8A6TOU  cannot be made into a system file and is referenced.
   Z8A_DNT.:Z8A6TOU  cannot be made into a system file and is referenced.
   Z8A_TYPES.:Z8A6TOU  is referenced.
   Z8A_ST.:Z8A6TOU  cannot be made into a system file and is referenced.
   Z8A_ETT.:Z8A6TOU  cannot be made into a system file and is referenced.
   Z8A_DESC.:Z8A6TOU  cannot be made into a system file and is referenced.
   Z8A_COMCOM.:Z8A6TOU  cannot be made into a system file and is referenced.
   X8A_COM_MACS.:X8A6TOU  is referenced.
   Z8A_NAMES.:Z8A6TOU  is referenced.
   Z8A_SUPP_MAC.:Z8A6TOU  is referenced.
   Z8A_DEFC.:Z8A6TOU  cannot be made into a system file and is referenced.
      No diagnostics issued in procedure Z8AF$FORME_ON_SIZE.

   Procedure Z8AF$FORME_ON_SIZE requires 3874 words for executable code.
   Procedure Z8AF$FORME_ON_SIZE requires 62 words of local(AUTO) storage.

PL6.E3A0      #001=Z8AF$FORME_ON_SIZE File=Z8AF.:Z8A6TSI                         SAT 08/09/97 10:43 Page:57

 Object Unit name= Z8AF$FORME_ON_SIZE                         File name= Z8AF.:Z8A6TOU
 UTS= AUG 09 '97 10:43:21.52 SAT                              Compiler= PL-6/E31         Sev=      00
 SharedLib= :SHARED_SYSTEM                                    Alt SharedLib=


    ****  Control sections  ****

 Sect   Type Bound  Init  Size OctSiz  Section name(segment info)
    0  LblCom even  none     1      1  ITERATION
    1  LblCom even  none     1      1  ETT$
    2  LblCom even  none     1      1  HEAD_ETT$
    3  LblCom even  none   512   1000  ETT_BUCKETS
    4  LblCom even  none     5      5  ETT_
    5  LblCom even  none     1      1  ST$
    6  LblCom even  none     5      5  ST_
    7  LblCom even  none     1      1  DNT$
    8  LblCom even  none     5      5  DNT_
    9  LblCom even  none     1      1  DNT_BUCKET_NUMBER
   10  LblCom even  none     1      1  DNT_OF_1$
   11  LblCom even  none     1      1  LTS$
   12  LblCom even  none     5      5  LTS_
   13  LblCom even  none     3      3  SRCH
   14  LblCom even  none     2      2  MKCN
   15  LblCom even  none    90    132  LEX_SYMBOL
   16  LblCom even  none     1      1  CURRENT_LEX_SYMBOL$
   17  LblCom even  none    90    132  TEMP_LEX_SYMBOL
   18  LblCom even  none    90    132  TEMP_LEX_SYMBOL2
   19  RoData even  UTS      5      5  Z8AF$FORME_ON_SIZE
   20   Data  even  none     2      2  Z8AF$FORME_ON_SIZE
   21   Proc  even  none  3874   7442  Z8AF$FORME_ON_SIZE
   22  RoData even  none    52     64  Z8AF$FORME_ON_SIZE
PL6.E3A0      #001=Z8AF$FORME_ON_SIZE File=Z8AF.:Z8A6TSI                         SAT 08/09/97 10:43 Page:58

    ****  Entry defs  ****

                              Check   Calling
                             calling  sequence
  Sect OctLoc Primary Altret sequence   type   Parms  Name
    21      0   yes            yes      Std        5  Z8AF$FORME_ON_SIZE
    21      7                  yes      Std        4  Z8AF$FORME

  ****  Entry refs  ****

         Check        Calling
        calling       sequence
Altret sequence SRef   type   Args  Name
         yes           Std       2 Z8AU$TYPE_DESCRIPTOR
         yes           Std       1 Z8AC$MAKE_CONST_D
         yes           Std       1 Z8AC$MAKE_CONST_O
         yes           Std       1 Z8AC$MAKE_CONST_R
 yes     yes           Std       3 Z8EC$CREATE_CONST
         yes           Std       1 Z8AS$SR_ETT
         yes           Std       3 Z8AU$BYTE_TO_WORD_UNITS
         yes           Std       1 Z8AR$RESERVER
         yes           Std       1 Z8AC$MAKE_CONST
                       nStd      0 X66_AUTO_5
                       nStd      0 X66_INDEX
                       nStd      0 X66_ARET

  ****  Data refs  ****

  Flags:  r = read only, s = secondary
Flgs Name                             Flgs Name                             Flgs Name
     COMCOM                           r    LTS_STEP
PL6.E3A0      #001=Z8AF$FORME_ON_SIZE File=Z8AF.:Z8A6TSI                         SAT 08/09/97 10:43 Page:59

  ****  Segment refs  ****

  Flags:  r = read only, s = secondary
Flgs Name                             Flgs Name                             Flgs Name
     NULLSID                               ISSID
PL6.E3A0      #001=Z8AF$FORME_ON_SIZE File=Z8AF.:Z8A6TSI                         SAT 08/09/97 10:43 Page:60


        1        1        /*M* Z8AF$FORME -- Form Expression. */
        2        2        /*T***********************************************************/
        3        3        /*T*                                                         */
        4        4        /*T* Copyright (c) Bull HN Information Systems Inc., 1997    */
        5        5        /*T*                                                         */
        6        6        /*T***********************************************************/
        7        7        Z8AF$FORME_ON_SIZE: PROC (ID, LOP$, ROP$, RESULT$, ON_SIZE_FLAG) ;

      7 21 000000   000000 700200 xent  Z8AF$FORME_* TSX0  ! X66_AUTO_5
        21 000001   000076 000005                    ZERO    62,5

        8        8        /*
        9        9                     FORME optimizations performed:
       10       10
       11       11               A1: index('D', 'ABCDEFG')    ==> 3
       12       12               A2: index('ABCDEFG', 'D')    ==> 1
       13       13               B:  tyi(3) + tyi(20)         ==> 23
       14       14               C:  tyi(3) - tyi(20)         ==> -17
       15       15         @     D:  tyi(3) * tyi(20)         ==> 60
       16       16               E:  tyi(20)/ tyi(10)         ==> 2
       17       17               F:  - tyi(8)                 ==> -8
       18       18               G:  mini(12,20)              ==> 12
       19       19               H:  tyi(8) + tyi(-9)         ==> tyi(8) - (- tyi(-9))
       20       20               I:  tyi(8) + tyi(0)          ==> tyi(8)
       21       21               J:  tyi(X) + tyi(7) + tyi(2) ==> tyi(X) + tyi(9)
       22       22               K:  tyi(X) - tyi(Y) + tyi(Y) ==> tyi(X)
       23       23               L:  tyi(Y) - tyi(X) + tyi(Y) ==> tyi(X) -- Suppressed
       24       24               M:  tyi(X) - tyi(8) + tyi(1) ==> tyi(X) - (tyi(8) - tyi(1))
       25       25               N:  tyi(8) - tyi(X) + tyi(1) ==> (tyi(1) + tyi(8)) - tyi(X)
       26       26               O:  tyi(X) - tyi(X)          ==> tyi(0)
       27       27               P:  tyi(X) - tyi(-8)         ==> tyi(X) + (- tyi(-8))
       28       28               Q:  tyi(X) - tyi(0)          ==> tyi(X)
       29       29               R:  tyi(X) - tyi(Y) - tyi(X) ==> (- tyi(Y))
       30       30               S:  tyi(X) - tyi(3) - tyi(5) ==> tyi(X) - (tyi(3) + tyi(5))
       31       31               T:  tyi(3) - tyi(X) - tyi(6) ==> (tyi(3) - tyi(6)) - tyi(X)
       32       32               U:  tyi(X) + tyi(Y) - tyi(Y) ==> tyi(X)
PL6.E3A0      #001=Z8AF$FORME_ON_SIZE File=Z8AF.:Z8A6TSI                         SAT 08/09/97 10:43 Page:61
       33       33               V:  tyi(Y) + tyi(X) - tyi(Y) ==> tyi(X)
       34       34               W:  tyi(X) + tyi(3) - tyi(5) ==> tyi(X) + (tyi(3) - tyi(5))
       35       35               X:  tyi(3) + tyi(X) - tyi(5) ==> tyi(X) + (tyi(3) - tyi(5))
       36       36               Note -- optimization X unused as tyi(3) + tyi(X) will already
       37       37                       have been converted to tyi(X) + tyi(3); use W.
       38       38         @     Y:  tyi(X) * tyi(-1)         ==> (- tyi(X))
       39       39         @     Z:  tyi(X) * tyi(0)          ==> tyi(0)
       40       40         @    AA:  tyi(X) * tyi(1)          ==> tyi(X)
       41       41         @    BB:  tyi(X) * tyi(3) * tyi(4) ==> tyi(X) * (tyi(3) * tyi(4))
       42       42         @    CC:  tyi(X) shl 3 * tyi(3)    ==> tyi(X) * (tyi(8) * tyi(3))
       43       43         @    DD:  tyi(X) * 2               ==> tyi(X) shl n
       44       44         @    EE:  tyi(x) * tyi(2) + tyi(1) ==> tyi(x) shl n + tyi(1)
       45       45         @    FF:  tyi(x) * tyi(2) - tyi(1) ==> tyi(x) shl n - tyi(1)
       46       46              GG:  tyi(x) - (tyi(x) - tyi(y)) ==> tyi(y)
       47       47              HH:  tyi(5) - (tyi(x) - tyi(3)) ==> tyi(5) + tyi(3) - tyi(x)
       48       48              II:  - (tyi(x) - tyi(y))      ==> (tyi(y) - tyi(x))
       49       49              JJ:  - (- tyi(x))             ==> (tyi(x))
       50       50              KK:  mini(x, x)               ==> tyi(x)
       51       51         @    LL:  tyd(x) *^ 10 or tyd /^ 10==> tyd +- {scale factor}
       52       52              MM:  tyi(x) / tyi(x)          ==> tyi(1)
       53       53              NN:  tyr(x) / tyr(x)          ==> tyr(1)
       54       54              OO:  tyi(0) / tyi(x)          ==> tyi(0)
       55       55              PP:  tyi(x) / (tyi(x) * tyi(y)) ==> (tyi(1) / tyi(y))
       56       56              QQ:  tyi(x) / (tyi(y) * tyi(x)) ==> (tyi(1) / tyi(y))
       57       57              RR:  tyi(x) / (tyi(x) shl n)  ==> tyi(0)
       58       58         @    SS:  tyi(x) ** ^2             ==> tyi(x) * tyi(x) * tyi(x) ->->
       59       59         @    TT:  tyi(x) ** ^2 + 1         ==>  "     "  "     " -->
       60       60         @    UU:  tyi(x) ** ^2 + 2         ==>  "     "  "     " --> * *
       61       61         @    VV:  tyi(x) ** ^2 + 1 * ^2    ==>  "     "  "     " -->  * * * *
       62       62              WW:  CVID4 (tyi(8))           ==> tyd(8)
       63       63         @    XX:  CVDI (ADD (CVID (tyi), tyd)) ==> ADI (tyi, CVDI (tyd))
       64       64              YY:  tyi(5) - (tyi(3) - tyi(x)) ==> tyi(5) - tyi(3) + tyi(x)
       65       65              ZZ:  tyi(x) - (tyi(x) + tyi(y)) ==> (- tyi(y))
       66       66             AAA:   CVIR (tyi(4))               ==> TYR
       67       67             BBB:   CVIQ (tyi(4))               ==> TYQ
       68       68             CCC:   CVDRR (TYD)                 ==> TYR
       69       69             DDD:   CVDQR (TYD)                 ==> TYQ
PL6.E3A0      #001=Z8AF$FORME_ON_SIZE File=Z8AF.:Z8A6TSI                         SAT 08/09/97 10:43 Page:62
       70       70             EEE:   tyi(x) - (tyi(y) + tyi(x))  ==> (- tyi(y))
       71       71             FFF:   tyi(5) - (tyi(x) + tyi(3))  ==> tyi(5) - tyi(3) - tyi(x)
       72       72             GGG:   CVDI (TYD)                  ==> TYI
       73       73             HHH:   tyi(x) / tyi(1)             ==> tyi(x)
       74       74             III:   tyi(x) shl 2 / tyi(28)      ==> tyi(x) / tyi(28 shr 2)
       75       75             JJJ:   (tyd(x) * tyd(y)) / tyd(x)  ==> tyd(y)
       76       76             KKK:   (tyd(x) * tyd(y)) / tyd(y)  ==> tyd(x)
       77       77             LLL:   (tyi(x) shl m) shl n        ==> tyi(x) shl (n + m)
       78       78             MMM:   (tyi(x) shr m) shl n        ==> tyi(x) shl (n - m) if n > m
       79       79             NNN:   (tyi(x) shr m) shl n        ==> tyi(x)             if n = m
       80       80             OOO:   (tyi(x) shr m) shl n        ==> tyi(x) shr (m - n) if n < m
       81       81             PPP:   (tyi(x) shr m) shr n        ==> tyi(x) shr (n + m)
       82       82             QQQ:   (tyi(x) shl m) shr n        ==> tyi(x) shr (n - m) if n > m
       83       83             RRR:   (tyi(x) shl m) shr n        ==> tyi(x)             if n = m
       84       84             SSS:   (tyi(x) shl m) shr n        ==> tyi(x) shl (m - n) if n < m
       85       85             TTT:   CMPD(CVID(tyi),tyd)         ==> CMPI(tyi,CVDI(tyd))
       86       86             UUU:   CMPD(tyd,CVID(tyi))         ==> CMPI(CVDI(tyd),tyi)
       87       87
       88       88
       89       89         @ indicates that these optimizations are inhibited if this
       90       90           is part of an "ON SIZE ERROR" expression.
       91       91
       92       92        */
       93       93        %EJECT;
PL6.E3A0      #001=Z8AF$FORME_ON_SIZE File=Z8AF.:Z8A6TSI                         SAT 08/09/97 10:43 Page:63
       94       94
       95       95        %EJECT;
PL6.E3A0      #001=Z8AF$FORME_ON_SIZE File=Z8AF.:Z8A6TSI                         SAT 08/09/97 10:43 Page:64
       96       96
       97       97            %SET PHASE = 1;
       98       98             %INCLUDE Z8A_DEFC;
       99      166             %INCLUDE Z8A_SUPP_MAC;
      100     2566             %INCLUDE Z8A_COMCOM;
      101     3216             %INCLUDE Z8A_DESC;
      102     3262             %INCLUDE Z8A_ETT;
      103     3563             %INCLUDE Z8A_ST;
      104     7222             %INCLUDE Z8A_TYPES;
      105     7396             %INCLUDE Z8A_DNT;
      106     7617             %INCLUDE Z8A_LTS;
      107     9694             %INCLUDE Z8A_SRCH;
      108     9743             %INCLUDE Z8A_MKCN;
      109     9760             %INCLUDE Z8E_STACKS ;
      110    12026             %INCLUDE Z8E_WINDOW;
      111    14096
      112    14097    1        DCL ID SBIN WORD;
      113    14098    1        DCL LOP$ PTR;
      114    14099    1        DCL ROP$ PTR;
      115    14100    1        DCL RESULT$ PTR;
      116    14101    1        DCL ON_SIZE_FLAG BIT (1) ALIGNED ; /* For On Size Error */
      117    14102    1        DCL ON_SIZE BIT (1) ALIGNED ;      /* Normally '0'B     */
      118    14103    1        DCL SYMBOL  UBIN WORD ;
      119    14104    1        DCL LOP PTR AUTO;
      120    14105    1        DCL LOPLOP  PTR ;
      121    14106    1        DCL SIGNIFICANCE SBIN WORD;
      122    14107
      123    14108    1        DCL 1 ROPCON AUTO ALIGNED,
      124    14109                   %DESCRIPTOR(ENDING = YES);
      125    14137
      126    14138    1        DCL ROPCON_UBIN REDEF ROPCON UBIN;
      127    14139    1        DCL ROP REDEF ROPCON PTR;
      128    14140    1        DCL 1  ROP_FILL REDEF ROPCON,
      129    14141    1             2 CHAR_1   CHAR (1) UNAL,
      130    14142    1             2 UBIN_3   UBIN (27) UNAL;
      131    14143
      132    14144    1        DCL 1 TYPE_DESC ALIGNED,
PL6.E3A0      #001=Z8AF$FORME_ON_SIZE File=Z8AF.:Z8A6TSI                         SAT 08/09/97 10:43 Page:65
      133    14145                   %TYPE_DESC;
      134    14179    1        DCL CONST$ PTR;
      135    14180
      136    14181    1        DCL DNT$$ PTR;
      137    14182    1        DCL LX_TERMINAL$ PTR ;
      138    14183    1        DCL ZIP CHAR(20) CONSTANT INIT('00000000000000000000');
      139    14184    1        DCL   Z8AC$MAKE_CONST ENTRY (1); /* Make a COMP-6 constant */
      140    14185    1        DCL   Z8AC$MAKE_CONST_R ENTRY (1) ; /* Make COMP-11 const  */
      141    14186    1        DCL   Z8AC$MAKE_CONST_D ENTRY(1);
      142    14187    1        DCL   Z8AC$MAKE_CONST_O ENTRY(1);
      143    14188    1        DCL Z8AU$TYPE_DESCRIPTOR ENTRY(2);
      144    14189    1        DCL Z8AS$SR_ETT          ENTRY (1);
      145    14190    1        DCL Z8EC$CREATE_CONST ENTRY (3)  ALTRET;
      146    14191    1        DCL Z8AU$BYTE_TO_WORD_UNITS ENTRY (3);
      147    14192
      148    14193
      149    14194    1        DCL LOP_ST$ PTR;
      150    14195    1        DCL ROP_ST$ PTR;
      151    14196    1        DCL LOP_STRING$ PTR;
      152    14197    1        DCL ROP_STRING$ PTR;
      153    14198    1        DCL LOP_LEN SBIN WORD;
      154    14199    1        DCL ROP_LEN SBIN WORD;
      155    14200
      156    14201    1        DCL LOP_CONST SBIN WORD;
      157    14202    1        DCL ROP_CONST SBIN WORD;
      158    14203
      159    14204    1        DCL NEW_ID SBIN WORD;
      160    14205    1        DCL   INTEGER   SBIN WORD;
      161    14206    1        DCL   INTEGER2  SBIN WORD;
      162    14207    1        DCL   POWER_OF_2 SBIN WORD;
      163    14208    1        DCL   POWER_OF_2_ SBIN WORD;
      164    14209    1        DCL   SBIN_J       SBIN WORD;
      165    14210    1        DCL   SBIN_I       SBIN WORD;
      166    14211    1        DCL 1 ONE_FLOAT ALIGNED STATIC,         /* Bin exponent real one */
      167    14212    1            2 EXPONENT  SBIN (8) UNAL INIT (1),
      168    14213    1            2 MANTISSA  BIT (28) UNAL INIT ('0100000000000000000000000000'B);
      169    14214    1        DCL   FLOAT_ONE REDEF ONE_FLOAT SBIN WORD;
PL6.E3A0      #001=Z8AF$FORME_ON_SIZE File=Z8AF.:Z8A6TSI                         SAT 08/09/97 10:43 Page:66
      170    14215    1        DCL 1 ONE_HEX_F ALIGNED STATIC,         /* Hex exponent real one */
      171    14216    1            2 EXPONENT  SBIN (8) UNAL INIT (1),
      172    14217    1            2 MANTISSA  BIT (28) UNAL INIT ('0000100000000000000000000000'B);
      173    14218    1        DCL   HEX_F_ONE REDEF ONE_HEX_F SBIN WORD;
      174    14219    1        DCL 1 PACKED,
      175    14220    1             2 OFFSET   SBIN HALF HALIGNED,
      176    14221    1             2 TYPE     UBIN HALF HALIGNED;
      177    14222
      178    14223             %DCL_AUTO_LX_ITEM (@NAME = LX_NUMBER) ;
      179    14227
      180    14228        %EJECT;
PL6.E3A0      #001=Z8AF$FORME_ON_SIZE File=Z8AF.:Z8A6TSI                         SAT 08/09/97 10:43 Page:67
      181    14229    1        ON_SIZE = ON_SIZE_FLAG ;

  14229 21 000002   200007 470500                    LDP0    @ON_SIZE_FLAG,,AUTO
        21 000003   000000 236100                    LDQ     0,,PR0
        21 000004   400000 376003                    ANQ     -131072,DU
        21 000005   200020 756100                    STQ     ON_SIZE,,AUTO

      182    14230    1        GOTO FORME_START ;

  14230 21 000006   000012 710000 21                 TRA     FORME_START

      183    14231
      184    14232    1   Z8AF$FORME: ENTRY (ID, LOP$, ROP$, RESULT$) ;

  14232 21 000007   000000 700200 xent  Z8AF$FORME   TSX0  ! X66_AUTO_5
        21 000010   000076 000005                    ZERO    62,5

      185    14233
      186    14234    1        ON_SIZE = '0'B ;

  14234 21 000011   200020 450100                    STZ     ON_SIZE,,AUTO

  14234 21 000012                       FORME_START  null
      187    14235
      188    14236    1   FORME_START: ; /* Some optimizations are inhibited if ON_SIZE is on */
      189    14237
      190    14238
      191    14239        /* If the user passes the same pointer for either the LOP or the
      192    14240           ROP as he does for the RESULT$, then we have to protect him.
      193    14241           We use RESULT$ as an intermediate result as well as the return
      194    14242           result.  So... if we happen to reference the LOP, or the ROP
      195    14243           (which ever = RESULT$).... after using RESULT$ for our own
      196    14244           purposes.... *BANG*!
      197    14245
      198    14246        */
      199    14247
      200    14248    1        LOP = LOP$;
PL6.E3A0      #001=Z8AF$FORME_ON_SIZE File=Z8AF.:Z8A6TSI                         SAT 08/09/97 10:43 Page:68

  14248 21 000012   200004 470500                    LDP0    @LOP$,,AUTO
        21 000013   000000 236100                    LDQ     0,,PR0
        21 000014   200022 756100                    STQ     LOP,,AUTO

      201    14249    1        ROP = ROP$;

  14249 21 000015   200005 471500                    LDP1    @ROP$,,AUTO
        21 000016   100000 236100                    LDQ     0,,PR1
        21 000017   200025 756100                    STQ     ROPCON,,AUTO

      202    14250
      203    14251        %EJECT;
PL6.E3A0      #001=Z8AF$FORME_ON_SIZE File=Z8AF.:Z8A6TSI                         SAT 08/09/97 10:43 Page:69
      204    14252        /*V* IDEAL_STATE
      205    14253
      206    14254             Assure that any constant appears on the ROP of a commutative
      207    14255           operator;  also assure that expressions are on the LOP.
      208    14256
      209    14257        */
      210    14258    2        DO CASE(ID);

  14258 21 000020   200003 473500                    LDP3    @ID,,AUTO
        21 000021   300000 235100                    LDA     0,,PR3
        21 000022   000034 135007                    SBLA    28,DL
        21 000023   000132 115007                    CMPA    90,DL
        21 000024   000026 602005 21                 TNC     s:14258+6,AL
        21 000025   000213 710000 21                 TRA     s:14273
        21 000026   000160 710000 21                 TRA     s:14260
        21 000027   000213 710000 21                 TRA     s:14273
        21 000030   000213 710000 21                 TRA     s:14273
        21 000031   000213 710000 21                 TRA     s:14273
        21 000032   000213 710000 21                 TRA     s:14273
        21 000033   000213 710000 21                 TRA     s:14273
        21 000034   000213 710000 21                 TRA     s:14273
        21 000035   000213 710000 21                 TRA     s:14273
        21 000036   000213 710000 21                 TRA     s:14273
        21 000037   000160 710000 21                 TRA     s:14260
        21 000040   000213 710000 21                 TRA     s:14273
        21 000041   000160 710000 21                 TRA     s:14260
        21 000042   000213 710000 21                 TRA     s:14273
        21 000043   000213 710000 21                 TRA     s:14273
        21 000044   000213 710000 21                 TRA     s:14273
        21 000045   000160 710000 21                 TRA     s:14260
        21 000046   000160 710000 21                 TRA     s:14260
        21 000047   000213 710000 21                 TRA     s:14273
        21 000050   000213 710000 21                 TRA     s:14273
        21 000051   000160 710000 21                 TRA     s:14260
        21 000052   000160 710000 21                 TRA     s:14260
        21 000053   000213 710000 21                 TRA     s:14273
        21 000054   000213 710000 21                 TRA     s:14273
PL6.E3A0      #001=Z8AF$FORME_ON_SIZE File=Z8AF.:Z8A6TSI                         SAT 08/09/97 10:43 Page:70
        21 000055   000213 710000 21                 TRA     s:14273
        21 000056   000213 710000 21                 TRA     s:14273
        21 000057   000213 710000 21                 TRA     s:14273
        21 000060   000213 710000 21                 TRA     s:14273
        21 000061   000160 710000 21                 TRA     s:14260
        21 000062   000213 710000 21                 TRA     s:14273
        21 000063   000160 710000 21                 TRA     s:14260
        21 000064   000213 710000 21                 TRA     s:14273
        21 000065   000213 710000 21                 TRA     s:14273
        21 000066   000213 710000 21                 TRA     s:14273
        21 000067   000213 710000 21                 TRA     s:14273
        21 000070   000213 710000 21                 TRA     s:14273
        21 000071   000213 710000 21                 TRA     s:14273
        21 000072   000213 710000 21                 TRA     s:14273
        21 000073   000213 710000 21                 TRA     s:14273
        21 000074   000213 710000 21                 TRA     s:14273
        21 000075   000213 710000 21                 TRA     s:14273
        21 000076   000213 710000 21                 TRA     s:14273
        21 000077   000213 710000 21                 TRA     s:14273
        21 000100   000213 710000 21                 TRA     s:14273
        21 000101   000213 710000 21                 TRA     s:14273
        21 000102   000213 710000 21                 TRA     s:14273
        21 000103   000213 710000 21                 TRA     s:14273
        21 000104   000213 710000 21                 TRA     s:14273
        21 000105   000213 710000 21                 TRA     s:14273
        21 000106   000213 710000 21                 TRA     s:14273
        21 000107   000213 710000 21                 TRA     s:14273
        21 000110   000213 710000 21                 TRA     s:14273
        21 000111   000213 710000 21                 TRA     s:14273
        21 000112   000213 710000 21                 TRA     s:14273
        21 000113   000213 710000 21                 TRA     s:14273
        21 000114   000213 710000 21                 TRA     s:14273
        21 000115   000213 710000 21                 TRA     s:14273
        21 000116   000213 710000 21                 TRA     s:14273
        21 000117   000213 710000 21                 TRA     s:14273
        21 000120   000213 710000 21                 TRA     s:14273
        21 000121   000213 710000 21                 TRA     s:14273
PL6.E3A0      #001=Z8AF$FORME_ON_SIZE File=Z8AF.:Z8A6TSI                         SAT 08/09/97 10:43 Page:71
        21 000122   000213 710000 21                 TRA     s:14273
        21 000123   000213 710000 21                 TRA     s:14273
        21 000124   000213 710000 21                 TRA     s:14273
        21 000125   000213 710000 21                 TRA     s:14273
        21 000126   000213 710000 21                 TRA     s:14273
        21 000127   000213 710000 21                 TRA     s:14273
        21 000130   000213 710000 21                 TRA     s:14273
        21 000131   000213 710000 21                 TRA     s:14273
        21 000132   000213 710000 21                 TRA     s:14273
        21 000133   000213 710000 21                 TRA     s:14273
        21 000134   000213 710000 21                 TRA     s:14273
        21 000135   000213 710000 21                 TRA     s:14273
        21 000136   000213 710000 21                 TRA     s:14273
        21 000137   000213 710000 21                 TRA     s:14273
        21 000140   000160 710000 21                 TRA     s:14260
        21 000141   000213 710000 21                 TRA     s:14273
        21 000142   000213 710000 21                 TRA     s:14273
        21 000143   000213 710000 21                 TRA     s:14273
        21 000144   000213 710000 21                 TRA     s:14273
        21 000145   000213 710000 21                 TRA     s:14273
        21 000146   000213 710000 21                 TRA     s:14273
        21 000147   000213 710000 21                 TRA     s:14273
        21 000150   000213 710000 21                 TRA     s:14273
        21 000151   000213 710000 21                 TRA     s:14273
        21 000152   000213 710000 21                 TRA     s:14273
        21 000153   000213 710000 21                 TRA     s:14273
        21 000154   000213 710000 21                 TRA     s:14273
        21 000155   000160 710000 21                 TRA     s:14260
        21 000156   000213 710000 21                 TRA     s:14273
        21 000157   000160 710000 21                 TRA     s:14260

      211    14259    2         CASE(%MPI, %MPD, %MPQ, %MPR, %MPO, %ADI, %ADD, %ADR, %ADQ, %ADO, %ORI, %ANDI)
             14259                   ;

      212    14260    2            IF (LOP -> ETT.ID = %TRIAD AND ROP -> ETT.ID ~= %TRIAD)

  14260 21 000160   200022 474500                    LDP4    LOP,,AUTO
PL6.E3A0      #001=Z8AF$FORME_ON_SIZE File=Z8AF.:Z8A6TSI                         SAT 08/09/97 10:43 Page:72
        21 000161   400000 220100                    LDX0    0,,PR4
        21 000162   000015 100003                    CMPX0   13,DU
        21 000163   000170 601000 21                 TNZ     s:14260+8
        21 000164   200025 475500                    LDP5    ROPCON,,AUTO
        21 000165   500000 221100                    LDX1    0,,PR5
        21 000166   000015 101003                    CMPX1   13,DU
        21 000167   000176 601000 21                 TNZ     s:14264
        21 000170   000020 100003                    CMPX0   16,DU
        21 000171   000213 603000 21                 TRC     s:14273
        21 000172   200025 475500                    LDP5    ROPCON,,AUTO
        21 000173   500000 221100                    LDX1    0,,PR5
        21 000174   000020 101003                    CMPX1   16,DU
        21 000175   000213 602000 21                 TNC     s:14273

      213    14261    2            OR (LOP -> ETT.ID <= %LAST_REFERENCE_TRIAD
      214    14262    2                  AND ROP -> ETT.ID > %LAST_REFERENCE_TRIAD) THEN
      215    14263    3              DO;

      216    14264    3                CALL Z8AF$FORME(ID, ROP, LOP, RESULT$);

  14264 21 000176   200006 236100                    LDQ     @RESULT$,,AUTO
        21 000177   200073 756100                    STQ     @POWER_OF_2+4,,AUTO
        21 000200   200022 636500                    EPPR6   LOP,,AUTO
        21 000201   200072 456500                    STP6    @POWER_OF_2+3,,AUTO
        21 000202   200025 637500                    EPPR7   ROPCON,,AUTO
        21 000203   200071 457500                    STP7    @POWER_OF_2+2,,AUTO
        21 000204   200003 236100                    LDQ     @ID,,AUTO
        21 000205   200070 756100                    STQ     @POWER_OF_2+1,,AUTO
        21 000206   200070 630500                    EPPR0   @POWER_OF_2+1,,AUTO
        21 000207   000000 631400 22                 EPPR1   0
        21 000210   000007 701000 21                 TSX1    s:14232
        21 000211   000000 011000                    NOP     0

      217    14265    3                GOTO EXIT_WITH_TRANSFORMATION;

  14265 21 000212   007404 710000 21                 TRA     EXIT_WITH_TRANSFORMATION

PL6.E3A0      #001=Z8AF$FORME_ON_SIZE File=Z8AF.:Z8A6TSI                         SAT 08/09/97 10:43 Page:73
      218    14266    3              END;
      219    14267
      220    14268
      221    14269    2        END /* Case */;

      222    14270
      223    14271        %EJECT;
PL6.E3A0      #001=Z8AF$FORME_ON_SIZE File=Z8AF.:Z8A6TSI                         SAT 08/09/97 10:43 Page:74
      224    14272
      225    14273    2        DO CASE(ID);

  14273 21 000213   300000 235100                    LDA     0,,PR3
        21 000214   000054 135007                    SBLA    44,DL
        21 000215   000100 115007                    CMPA    64,DL
        21 000216   000220 602005 21                 TNC     s:14273+5,AL
        21 000217   000627 710000 21                 TRA     s:14453
        21 000220   000447 710000 21                 TRA     s:14384
        21 000221   000627 710000 21                 TRA     s:14453
        21 000222   000471 710000 21                 TRA     s:14395
        21 000223   000627 710000 21                 TRA     s:14453
        21 000224   000513 710000 21                 TRA     s:14406
        21 000225   000627 710000 21                 TRA     s:14453
        21 000226   000537 710000 21                 TRA     s:14418
        21 000227   000627 710000 21                 TRA     s:14453
        21 000230   000627 710000 21                 TRA     s:14453
        21 000231   000627 710000 21                 TRA     s:14453
        21 000232   000561 710000 21                 TRA     s:14429
        21 000233   000627 710000 21                 TRA     s:14453
        21 000234   000627 710000 21                 TRA     s:14453
        21 000235   000627 710000 21                 TRA     s:14453
        21 000236   000627 710000 21                 TRA     s:14453
        21 000237   000627 710000 21                 TRA     s:14453
        21 000240   000627 710000 21                 TRA     s:14453
        21 000241   000627 710000 21                 TRA     s:14453
        21 000242   000627 710000 21                 TRA     s:14453
        21 000243   000627 710000 21                 TRA     s:14453
        21 000244   000627 710000 21                 TRA     s:14453
        21 000245   000627 710000 21                 TRA     s:14453
        21 000246   000627 710000 21                 TRA     s:14453
        21 000247   000627 710000 21                 TRA     s:14453
        21 000250   000627 710000 21                 TRA     s:14453
        21 000251   000627 710000 21                 TRA     s:14453
        21 000252   000627 710000 21                 TRA     s:14453
        21 000253   000627 710000 21                 TRA     s:14453
        21 000254   000627 710000 21                 TRA     s:14453
PL6.E3A0      #001=Z8AF$FORME_ON_SIZE File=Z8AF.:Z8A6TSI                         SAT 08/09/97 10:43 Page:75
        21 000255   000627 710000 21                 TRA     s:14453
        21 000256   000627 710000 21                 TRA     s:14453
        21 000257   000627 710000 21                 TRA     s:14453
        21 000260   000627 710000 21                 TRA     s:14453
        21 000261   000627 710000 21                 TRA     s:14453
        21 000262   000627 710000 21                 TRA     s:14453
        21 000263   000627 710000 21                 TRA     s:14453
        21 000264   000627 710000 21                 TRA     s:14453
        21 000265   000627 710000 21                 TRA     s:14453
        21 000266   000627 710000 21                 TRA     s:14453
        21 000267   000627 710000 21                 TRA     s:14453
        21 000270   000627 710000 21                 TRA     s:14453
        21 000271   000627 710000 21                 TRA     s:14453
        21 000272   000627 710000 21                 TRA     s:14453
        21 000273   000627 710000 21                 TRA     s:14453
        21 000274   000627 710000 21                 TRA     s:14453
        21 000275   000627 710000 21                 TRA     s:14453
        21 000276   000627 710000 21                 TRA     s:14453
        21 000277   000627 710000 21                 TRA     s:14453
        21 000300   000627 710000 21                 TRA     s:14453
        21 000301   000627 710000 21                 TRA     s:14453
        21 000302   000627 710000 21                 TRA     s:14453
        21 000303   000627 710000 21                 TRA     s:14453
        21 000304   000627 710000 21                 TRA     s:14453
        21 000305   000627 710000 21                 TRA     s:14453
        21 000306   000627 710000 21                 TRA     s:14453
        21 000307   000627 710000 21                 TRA     s:14453
        21 000310   000627 710000 21                 TRA     s:14453
        21 000311   000627 710000 21                 TRA     s:14453
        21 000312   000627 710000 21                 TRA     s:14453
        21 000313   000627 710000 21                 TRA     s:14453
        21 000314   000627 710000 21                 TRA     s:14453
        21 000315   000627 710000 21                 TRA     s:14453
        21 000316   000320 710000 21                 TRA     s:14275
        21 000317   000576 710000 21                 TRA     s:14439

      226    14274    2          CASE(%INDEX);
PL6.E3A0      #001=Z8AF$FORME_ON_SIZE File=Z8AF.:Z8A6TSI                         SAT 08/09/97 10:43 Page:76

      227    14275    2            IF LOP -> ETT.ID = %TRIAD AND ROP -> ETT.ID = %TRIAD THEN

  14275 21 000320   200022 474500                    LDP4    LOP,,AUTO
        21 000321   400000 220100                    LDX0    0,,PR4
        21 000322   000015 100003                    CMPX0   13,DU
        21 000323   000403 601000 21                 TNZ     A2
        21 000324   200025 475500                    LDP5    ROPCON,,AUTO
        21 000325   500000 221100                    LDX1    0,,PR5
        21 000326   000015 101003                    CMPX1   13,DU
        21 000327   000403 601000 21                 TNZ     A2

      228    14276    3   A1:        DO;

  14276 21 000330                       A1           null
      229    14277    3                LOP_ST$ = LOP -> ETT.LOP;

  14277 21 000330   400001 236100                    LDQ     1,,PR4
        21 000331   200035 756100                    STQ     LOP_ST$,,AUTO

      230    14278    3                ROP_ST$ = ROP -> ETT.LOP;

  14278 21 000332   500001 236100                    LDQ     1,,PR5
        21 000333   200036 756100                    STQ     ROP_ST$,,AUTO

      231    14279
      232    14280    3                LOP_LEN = LOP_ST$ -> CONST.ADSC.N;

  14280 21 000334   200035 476500                    LDP6    LOP_ST$,,AUTO
        21 000335   600001 236100                    LDQ     1,,PR6
        21 000336   007777 376007                    ANQ     4095,DL
        21 000337   200041 756100                    STQ     LOP_LEN,,AUTO

      233    14281    3                ROP_LEN = ROP_ST$ -> CONST.ADSC.N;

  14281 21 000340   200036 477500                    LDP7    ROP_ST$,,AUTO
        21 000341   700001 236100                    LDQ     1,,PR7
PL6.E3A0      #001=Z8AF$FORME_ON_SIZE File=Z8AF.:Z8A6TSI                         SAT 08/09/97 10:43 Page:77
        21 000342   007777 376007                    ANQ     4095,DL
        21 000343   200042 756100                    STQ     ROP_LEN,,AUTO

      234    14282
      235    14283                     %GET_CONSTANT_ADDRESS ( @CONSTANT = LOP_ST$,
      236    14284                                             @STRING   = LOP_STRING$ );

  14286 21 000344   600003 234100                    SZN     3,,PR6
        21 000345   000352 605000 21                 TPL     s:14289

  14287 21 000346   600010 470500                    LDP0    8,,PR6
        21 000347   000001 631500                    EPPR1   1,,PR0
        21 000350   200037 451500                    STP1    LOP_STRING$,,AUTO
        21 000351   000355 710000 21                 TRA     s:14296

  14289 21 000352   200035 236100                    LDQ     LOP_ST$,,AUTO
        21 000353   000010 036003                    ADLQ    8,DU
        21 000354   200037 756100                    STQ     LOP_STRING$,,AUTO

      237    14292
      238    14293                     %GET_CONSTANT_ADDRESS ( @CONSTANT = ROP_ST$,
      239    14294                                             @STRING   = ROP_STRING$ );

  14296 21 000355   700003 234100                    SZN     3,,PR7
        21 000356   000363 605000 21                 TPL     s:14299

  14297 21 000357   700010 470500                    LDP0    8,,PR7
        21 000360   000001 631500                    EPPR1   1,,PR0
        21 000361   200040 451500                    STP1    ROP_STRING$,,AUTO
        21 000362   000366 710000 21                 TRA     s:14303

  14299 21 000363   200036 236100                    LDQ     ROP_ST$,,AUTO
        21 000364   000010 036003                    ADLQ    8,DU
        21 000365   200040 756100                    STQ     ROP_STRING$,,AUTO

      240    14302
      241    14303    3                CALL INDEX ( MKCN.CON,
PL6.E3A0      #001=Z8AF$FORME_ON_SIZE File=Z8AF.:Z8A6TSI                         SAT 08/09/97 10:43 Page:78

  14303 21 000366   000000 631400 14                 EPPR1   MKCN
        21 000367   200037 473500                    LDP3    LOP_STRING$,,AUTO
        21 000370   200041 723100                    LXL3    LOP_LEN,,AUTO
        21 000371   200040 470500                    LDP0    ROP_STRING$,,AUTO
        21 000372   200042 720100                    LXL0    ROP_LEN,,AUTO
        21 000373   000000 236003                    LDQ     0,DU
        21 000374   000000 701000 xent               TSX1    X66_INDEX
        21 000375   000000 011000                    NOP     0

      242    14304    3                             SUBSTR(LOP_STRING$ -> CHARS, 0, LOP_LEN),
      243    14305    3                             SUBSTR(ROP_STRING$ -> CHARS, 0, ROP_LEN));
      244    14306
      245    14307    3                CALL Z8AC$MAKE_CONST(RESULT$);

  14307 21 000376   200006 630500                    EPPR0   @RESULT$,,AUTO
        21 000377   000001 631400 22                 EPPR1   1
        21 000400   000000 701000 xent               TSX1    Z8AC$MAKE_CONST
        21 000401   000000 011000                    NOP     0

      246    14308
      247    14309    3                GOTO EXIT_WITH_TRANSFORMATION;

  14309 21 000402   007404 710000 21                 TRA     EXIT_WITH_TRANSFORMATION

      248    14310    3              END;
      249    14311
      250    14312    2   A2:      /* if length(LOP) > length(ROP) then RESULT is length(ROP) */
      251    14313
      252    14314    2            CALL Z8AU$TYPE_DESCRIPTOR (LOP, TYPE_DESC) ;

  14314 21 000403   200026 635500       A2           EPPR5   TYPE_DESC,,AUTO
        21 000404   200071 455500                    STP5    @POWER_OF_2+2,,AUTO
        21 000405   200022 636500                    EPPR6   LOP,,AUTO
        21 000406   200070 456500                    STP6    @POWER_OF_2+1,,AUTO
        21 000407   200070 630500                    EPPR0   @POWER_OF_2+1,,AUTO
        21 000410   000002 631400 22                 EPPR1   2
PL6.E3A0      #001=Z8AF$FORME_ON_SIZE File=Z8AF.:Z8A6TSI                         SAT 08/09/97 10:43 Page:79
        21 000411   000000 701000 xent               TSX1    Z8AU$TYPE_DESCRIPTOR
        21 000412   000000 011000                    NOP     0

      253    14315
      254    14316    3            IF TYPE_DESC.SIZ$ = ADDR(NIL) THEN DO ;

  14316 21 000413   200030 236100                    LDQ     TYPE_DESC+2,,AUTO
        21 000414   000003 116000 22                 CMPQ    3
        21 000415   000627 601000 21                 TNZ     s:14453

      255    14317
      256    14318                   %UNPACK_ADSC (@DESC    = TYPE_DESC.DESC,
      257    14319                                 @LENGTH  = LOP_LEN) ;

  14329 21 000416   200027 236100                    LDQ     TYPE_DESC+1,,AUTO
        21 000417   007777 376007                    ANQ     4095,DL
        21 000420   200041 756100                    STQ     LOP_LEN,,AUTO

      258    14342    3              CALL Z8AU$TYPE_DESCRIPTOR (ROP, TYPE_DESC) ;

  14342 21 000421   200026 630500                    EPPR0   TYPE_DESC,,AUTO
        21 000422   200071 450500                    STP0    @POWER_OF_2+2,,AUTO
        21 000423   200025 631500                    EPPR1   ROPCON,,AUTO
        21 000424   200070 451500                    STP1    @POWER_OF_2+1,,AUTO
        21 000425   200070 630500                    EPPR0   @POWER_OF_2+1,,AUTO
        21 000426   000002 631400 22                 EPPR1   2
        21 000427   000000 701000 xent               TSX1    Z8AU$TYPE_DESCRIPTOR
        21 000430   000000 011000                    NOP     0

      259    14343
      260    14344    4              IF TYPE_DESC.SIZ$ = ADDR(NIL) THEN DO ;

  14344 21 000431   200030 236100                    LDQ     TYPE_DESC+2,,AUTO
        21 000432   000003 116000 22                 CMPQ    3
        21 000433   000627 601000 21                 TNZ     s:14453

      261    14345
PL6.E3A0      #001=Z8AF$FORME_ON_SIZE File=Z8AF.:Z8A6TSI                         SAT 08/09/97 10:43 Page:80
      262    14346                     %UNPACK_ADSC (@DESC   = TYPE_DESC.DESC,
      263    14347                                   @LENGTH = ROP_LEN) ;

  14357 21 000434   200027 236100                    LDQ     TYPE_DESC+1,,AUTO
        21 000435   007777 376007                    ANQ     4095,DL
        21 000436   200042 756100                    STQ     ROP_LEN,,AUTO

      264    14370
      265    14371    5                IF LOP_LEN > ROP_LEN THEN DO ;

  14371 21 000437   200041 116100                    CMPQ    LOP_LEN,,AUTO
        21 000440   000627 605000 21                 TPL     s:14453

      266    14372
      267    14373    5                  MKCN.CON = ROP_LEN ;

  14373 21 000441   000000 756000 14                 STQ     MKCN

      268    14374    5                  CALL Z8AC$MAKE_CONST (RESULT$) ;

  14374 21 000442   200006 630500                    EPPR0   @RESULT$,,AUTO
        21 000443   000001 631400 22                 EPPR1   1
        21 000444   000000 701000 xent               TSX1    Z8AC$MAKE_CONST
        21 000445   000000 011000                    NOP     0

      269    14375    5                  GOTO EXIT_WITH_TRANSFORMATION ;

  14375 21 000446   007404 710000 21                 TRA     EXIT_WITH_TRANSFORMATION

      270    14376
      271    14377    5                END ; /* Length(LOP) > Length(ROP) */
      272    14378
      273    14379    4              END ; /* Length(ROP) is constant */
      274    14380
      275    14381    3            END ; /* Length(LOP) is constant */
      276    14382
      277    14383    2          CASE(%ADI);
PL6.E3A0      #001=Z8AF$FORME_ON_SIZE File=Z8AF.:Z8A6TSI                         SAT 08/09/97 10:43 Page:81

      278    14384    2            IF LOP -> ETT.ID = %TRIAD AND ROP -> ETT.ID = %TRIAD THEN

  14384 21 000447   200022 474500                    LDP4    LOP,,AUTO
        21 000450   400000 220100                    LDX0    0,,PR4
        21 000451   000015 100003                    CMPX0   13,DU
        21 000452   000627 601000 21                 TNZ     s:14453
        21 000453   200025 475500                    LDP5    ROPCON,,AUTO
        21 000454   500000 221100                    LDX1    0,,PR5
        21 000455   000015 101003                    CMPX1   13,DU
        21 000456   000627 601000 21                 TNZ     s:14453

      279    14385    3   B:         DO;

  14385 21 000457                       B            null
      280    14386    3                MKCN.CON = LOP -> ETT.LOP -> CONST.CONSTI.WORD1 +

  14386 21 000457   400001 476500                    LDP6    1,,PR4
        21 000460   500001 477500                    LDP7    1,,PR5
        21 000461   600010 236100                    LDQ     8,,PR6
        21 000462   700010 036100                    ADLQ    8,,PR7
        21 000463   000000 756000 14                 STQ     MKCN

      281    14387    3                           ROP -> ETT.LOP -> CONST.CONSTI.WORD1;
      282    14388
      283    14389    3                CALL Z8AC$MAKE_CONST(RESULT$);

  14389 21 000464   200006 630500                    EPPR0   @RESULT$,,AUTO
        21 000465   000001 631400 22                 EPPR1   1
        21 000466   000000 701000 xent               TSX1    Z8AC$MAKE_CONST
        21 000467   000000 011000                    NOP     0

      284    14390
      285    14391    3                GOTO EXIT_WITH_TRANSFORMATION;

  14391 21 000470   007404 710000 21                 TRA     EXIT_WITH_TRANSFORMATION

PL6.E3A0      #001=Z8AF$FORME_ON_SIZE File=Z8AF.:Z8A6TSI                         SAT 08/09/97 10:43 Page:82
      286    14392    3              END;
      287    14393
      288    14394    2          CASE(%SBI);

      289    14395    2            IF LOP -> ETT.ID = %TRIAD AND ROP -> ETT.ID = %TRIAD THEN

  14395 21 000471   200022 474500                    LDP4    LOP,,AUTO
        21 000472   400000 220100                    LDX0    0,,PR4
        21 000473   000015 100003                    CMPX0   13,DU
        21 000474   000627 601000 21                 TNZ     s:14453
        21 000475   200025 475500                    LDP5    ROPCON,,AUTO
        21 000476   500000 221100                    LDX1    0,,PR5
        21 000477   000015 101003                    CMPX1   13,DU
        21 000500   000627 601000 21                 TNZ     s:14453

      290    14396    3   C:         DO;

  14396 21 000501                       C            null
      291    14397    3                MKCN.CON = LOP -> ETT.LOP -> CONST.CONSTI.WORD1 -

  14397 21 000501   400001 476500                    LDP6    1,,PR4
        21 000502   500001 477500                    LDP7    1,,PR5
        21 000503   600010 236100                    LDQ     8,,PR6
        21 000504   700010 136100                    SBLQ    8,,PR7
        21 000505   000000 756000 14                 STQ     MKCN

      292    14398    3                           ROP -> ETT.LOP -> CONST.CONSTI.WORD1;
      293    14399
      294    14400    3                CALL Z8AC$MAKE_CONST(RESULT$);

  14400 21 000506   200006 630500                    EPPR0   @RESULT$,,AUTO
        21 000507   000001 631400 22                 EPPR1   1
        21 000510   000000 701000 xent               TSX1    Z8AC$MAKE_CONST
        21 000511   000000 011000                    NOP     0

      295    14401
      296    14402    3                GOTO EXIT_WITH_TRANSFORMATION;
PL6.E3A0      #001=Z8AF$FORME_ON_SIZE File=Z8AF.:Z8A6TSI                         SAT 08/09/97 10:43 Page:83

  14402 21 000512   007404 710000 21                 TRA     EXIT_WITH_TRANSFORMATION

      297    14403    3              END;
      298    14404
      299    14405    2          CASE(%MPI);

      300    14406    2            IF ON_SIZE = '0'B

  14406 21 000513   200020 234100                    SZN     ON_SIZE,,AUTO
        21 000514   000627 604000 21                 TMI     s:14453
        21 000515   200022 474500                    LDP4    LOP,,AUTO
        21 000516   400000 220100                    LDX0    0,,PR4
        21 000517   000015 100003                    CMPX0   13,DU
        21 000520   000627 601000 21                 TNZ     s:14453
        21 000521   200025 475500                    LDP5    ROPCON,,AUTO
        21 000522   500000 221100                    LDX1    0,,PR5
        21 000523   000015 101003                    CMPX1   13,DU
        21 000524   000627 601000 21                 TNZ     s:14453

      301    14407    2            AND LOP -> ETT.ID = %TRIAD AND ROP -> ETT.ID = %TRIAD THEN
      302    14408    3   D:         DO;

  14408 21 000525                       D            null
      303    14409    3                MKCN.CON = LOP -> ETT.LOP -> CONST.CONSTI.WORD1 *

  14409 21 000525   400001 476500                    LDP6    1,,PR4
        21 000526   500001 477500                    LDP7    1,,PR5
        21 000527   600010 236100                    LDQ     8,,PR6
        21 000530   700010 402100                    MPY     8,,PR7
        21 000531   000000 756000 14                 STQ     MKCN

      304    14410    3                           ROP -> ETT.LOP -> CONST.CONSTI.WORD1;
      305    14411
      306    14412    3                CALL Z8AC$MAKE_CONST(RESULT$);

  14412 21 000532   200006 630500                    EPPR0   @RESULT$,,AUTO
PL6.E3A0      #001=Z8AF$FORME_ON_SIZE File=Z8AF.:Z8A6TSI                         SAT 08/09/97 10:43 Page:84
        21 000533   000001 631400 22                 EPPR1   1
        21 000534   000000 701000 xent               TSX1    Z8AC$MAKE_CONST
        21 000535   000000 011000                    NOP     0

      307    14413
      308    14414    3                GOTO EXIT_WITH_TRANSFORMATION;

  14414 21 000536   007404 710000 21                 TRA     EXIT_WITH_TRANSFORMATION

      309    14415    3              END;
      310    14416
      311    14417    2          CASE(%DVI);

      312    14418    2            IF LOP -> ETT.ID = %TRIAD AND ROP -> ETT.ID = %TRIAD THEN

  14418 21 000537   200022 474500                    LDP4    LOP,,AUTO
        21 000540   400000 220100                    LDX0    0,,PR4
        21 000541   000015 100003                    CMPX0   13,DU
        21 000542   000627 601000 21                 TNZ     s:14453
        21 000543   200025 475500                    LDP5    ROPCON,,AUTO
        21 000544   500000 221100                    LDX1    0,,PR5
        21 000545   000015 101003                    CMPX1   13,DU
        21 000546   000627 601000 21                 TNZ     s:14453

      313    14419    3   E:         DO;

  14419 21 000547                       E            null
      314    14420    3                MKCN.CON = LOP -> ETT.LOP -> CONST.CONSTI.WORD1 /

  14420 21 000547   400001 476500                    LDP6    1,,PR4
        21 000550   500001 477500                    LDP7    1,,PR5
        21 000551   600010 236100                    LDQ     8,,PR6
        21 000552   700010 506100                    DIV     8,,PR7
        21 000553   000000 756000 14                 STQ     MKCN

      315    14421    3                           ROP -> ETT.LOP -> CONST.CONSTI.WORD1;
      316    14422
PL6.E3A0      #001=Z8AF$FORME_ON_SIZE File=Z8AF.:Z8A6TSI                         SAT 08/09/97 10:43 Page:85
      317    14423    3                CALL Z8AC$MAKE_CONST(RESULT$);

  14423 21 000554   200006 630500                    EPPR0   @RESULT$,,AUTO
        21 000555   000001 631400 22                 EPPR1   1
        21 000556   000000 701000 xent               TSX1    Z8AC$MAKE_CONST
        21 000557   000000 011000                    NOP     0

      318    14424
      319    14425    3                GOTO EXIT_WITH_TRANSFORMATION;

  14425 21 000560   007404 710000 21                 TRA     EXIT_WITH_TRANSFORMATION

      320    14426    3              END;
      321    14427
      322    14428    2          CASE(%USI);

      323    14429    2            IF LOP -> ETT.ID = %TRIAD THEN

  14429 21 000561   200022 474500                    LDP4    LOP,,AUTO
        21 000562   400000 220100                    LDX0    0,,PR4
        21 000563   000015 100003                    CMPX0   13,DU
        21 000564   000627 601000 21                 TNZ     s:14453

      324    14430    3   F:         DO;

  14430 21 000565                       F            null
      325    14431    3                MKCN.CON = - (LOP -> ETT.LOP -> CONST.CONSTI.WORD1);

  14431 21 000565   400001 475500                    LDP5    1,,PR4
        21 000566   500010 235100                    LDA     8,,PR5
        21 000567   000000 531000                    NEG     0
        21 000570   000000 755000 14                 STA     MKCN

      326    14432
      327    14433    3                CALL Z8AC$MAKE_CONST(RESULT$);

  14433 21 000571   200006 630500                    EPPR0   @RESULT$,,AUTO
PL6.E3A0      #001=Z8AF$FORME_ON_SIZE File=Z8AF.:Z8A6TSI                         SAT 08/09/97 10:43 Page:86
        21 000572   000001 631400 22                 EPPR1   1
        21 000573   000000 701000 xent               TSX1    Z8AC$MAKE_CONST
        21 000574   000000 011000                    NOP     0

      328    14434
      329    14435    3                GOTO EXIT_WITH_TRANSFORMATION;

  14435 21 000575   007404 710000 21                 TRA     EXIT_WITH_TRANSFORMATION

      330    14436    3              END;
      331    14437
      332    14438    2          CASE(%MINI);

      333    14439    2            IF LOP -> ETT.ID = %TRIAD AND ROP -> ETT.ID = %TRIAD THEN

  14439 21 000576   200022 474500                    LDP4    LOP,,AUTO
        21 000577   400000 220100                    LDX0    0,,PR4
        21 000600   000015 100003                    CMPX0   13,DU
        21 000601   000627 601000 21                 TNZ     s:14453
        21 000602   200025 475500                    LDP5    ROPCON,,AUTO
        21 000603   500000 221100                    LDX1    0,,PR5
        21 000604   000015 101003                    CMPX1   13,DU
        21 000605   000627 601000 21                 TNZ     s:14453

      334    14440    3   G:         DO;

  14440 21 000606                       G            null
      335    14441    3                LOP_CONST = LOP -> ETT.LOP -> CONST.CONSTI.WORD1;

  14441 21 000606   400001 476500                    LDP6    1,,PR4
        21 000607   600010 235100                    LDA     8,,PR6
        21 000610   200043 755100                    STA     LOP_CONST,,AUTO

      336    14442    3                ROP_CONST = ROP -> ETT.LOP -> CONST.CONSTI.WORD1;

  14442 21 000611   500001 477500                    LDP7    1,,PR5
        21 000612   700010 235100                    LDA     8,,PR7
PL6.E3A0      #001=Z8AF$FORME_ON_SIZE File=Z8AF.:Z8A6TSI                         SAT 08/09/97 10:43 Page:87
        21 000613   200044 755100                    STA     ROP_CONST,,AUTO

      337    14443
      338    14444    3                IF LOP_CONST <= ROP_CONST THEN

  14444 21 000614   200043 236100                    LDQ     LOP_CONST,,AUTO
        21 000615   200044 116100                    CMPQ    ROP_CONST,,AUTO
        21 000616   000623 605400 21                 TPNZ    s:14447

      339    14445    3                  RESULT$ = LOP;

  14445 21 000617   200022 236100                    LDQ     LOP,,AUTO
        21 000620   200006 470500                    LDP0    @RESULT$,,AUTO
        21 000621   000000 756100                    STQ     0,,PR0
        21 000622   000626 710000 21                 TRA     s:14449

      340    14446    3                ELSE
      341    14447    3                  RESULT$ = ROP;

  14447 21 000623   200025 236100                    LDQ     ROPCON,,AUTO
        21 000624   200006 470500                    LDP0    @RESULT$,,AUTO
        21 000625   000000 756100                    STQ     0,,PR0

      342    14448
      343    14449    3                GOTO EXIT_WITH_TRANSFORMATION;

  14449 21 000626   007404 710000 21                 TRA     EXIT_WITH_TRANSFORMATION

      344    14450    3              END;
      345    14451    2        END /* Case */;

      346    14452        %EJECT;
PL6.E3A0      #001=Z8AF$FORME_ON_SIZE File=Z8AF.:Z8A6TSI                         SAT 08/09/97 10:43 Page:88
      347    14453    2        DO CASE (ID);

  14453 21 000627   200003 470500                    LDP0    @ID,,AUTO
        21 000630   000000 235100                    LDA     0,,PR0
        21 000631   000042 135007                    SBLA    34,DL
        21 000632   000131 115007                    CMPA    89,DL
        21 000633   000635 602005 21                 TNC     s:14453+6,AL
        21 000634   005233 710000 21                 TRA     EXIT_WITH_NO_TRANSFORMATION
        21 000635   003232 710000 21                 TRA     s:14949
        21 000636   005233 710000 21                 TRA     EXIT_WITH_NO_TRANSFORMATION
        21 000637   003232 710000 21                 TRA     s:14949
        21 000640   005233 710000 21                 TRA     EXIT_WITH_NO_TRANSFORMATION
        21 000641   005233 710000 21                 TRA     EXIT_WITH_NO_TRANSFORMATION
        21 000642   005233 710000 21                 TRA     EXIT_WITH_NO_TRANSFORMATION
        21 000643   005233 710000 21                 TRA     EXIT_WITH_NO_TRANSFORMATION
        21 000644   002225 710000 21                 TRA     s:14732
        21 000645   003013 710000 21                 TRA     s:14899
        21 000646   005233 710000 21                 TRA     EXIT_WITH_NO_TRANSFORMATION
        21 000647   000766 710000 21                 TRA     s:14458
        21 000650   005233 710000 21                 TRA     EXIT_WITH_NO_TRANSFORMATION
        21 000651   001210 710000 21                 TRA     s:14525
        21 000652   002361 710000 21                 TRA     s:14772
        21 000653   001711 710000 21                 TRA     s:14650
        21 000654   002361 710000 21                 TRA     s:14772
        21 000655   002527 710000 21                 TRA     s:14819
        21 000656   002361 710000 21                 TRA     s:14772
        21 000657   005233 710000 21                 TRA     EXIT_WITH_NO_TRANSFORMATION
        21 000660   002311 710000 21                 TRA     s:14747
        21 000661   002225 710000 21                 TRA     s:14732
        21 000662   005233 710000 21                 TRA     EXIT_WITH_NO_TRANSFORMATION
        21 000663   005233 710000 21                 TRA     EXIT_WITH_NO_TRANSFORMATION
        21 000664   005233 710000 21                 TRA     EXIT_WITH_NO_TRANSFORMATION
        21 000665   002527 710000 21                 TRA     s:14819
        21 000666   002225 710000 21                 TRA     s:14732
        21 000667   005233 710000 21                 TRA     EXIT_WITH_NO_TRANSFORMATION
        21 000670   003232 710000 21                 TRA     s:14949
        21 000671   003232 710000 21                 TRA     s:14949
PL6.E3A0      #001=Z8AF$FORME_ON_SIZE File=Z8AF.:Z8A6TSI                         SAT 08/09/97 10:43 Page:89
        21 000672   005233 710000 21                 TRA     EXIT_WITH_NO_TRANSFORMATION
        21 000673   005233 710000 21                 TRA     EXIT_WITH_NO_TRANSFORMATION
        21 000674   005233 710000 21                 TRA     EXIT_WITH_NO_TRANSFORMATION
        21 000675   005233 710000 21                 TRA     EXIT_WITH_NO_TRANSFORMATION
        21 000676   005233 710000 21                 TRA     EXIT_WITH_NO_TRANSFORMATION
        21 000677   005233 710000 21                 TRA     EXIT_WITH_NO_TRANSFORMATION
        21 000700   005233 710000 21                 TRA     EXIT_WITH_NO_TRANSFORMATION
        21 000701   005233 710000 21                 TRA     EXIT_WITH_NO_TRANSFORMATION
        21 000702   003555 710000 21                 TRA     s:15038
        21 000703   005233 710000 21                 TRA     EXIT_WITH_NO_TRANSFORMATION
        21 000704   005233 710000 21                 TRA     EXIT_WITH_NO_TRANSFORMATION
        21 000705   005233 710000 21                 TRA     EXIT_WITH_NO_TRANSFORMATION
        21 000706   005233 710000 21                 TRA     EXIT_WITH_NO_TRANSFORMATION
        21 000707   003137 710000 21                 TRA     s:14927
        21 000710   005233 710000 21                 TRA     EXIT_WITH_NO_TRANSFORMATION
        21 000711   005233 710000 21                 TRA     EXIT_WITH_NO_TRANSFORMATION
        21 000712   005233 710000 21                 TRA     EXIT_WITH_NO_TRANSFORMATION
        21 000713   005233 710000 21                 TRA     EXIT_WITH_NO_TRANSFORMATION
        21 000714   005233 710000 21                 TRA     EXIT_WITH_NO_TRANSFORMATION
        21 000715   005233 710000 21                 TRA     EXIT_WITH_NO_TRANSFORMATION
        21 000716   005233 710000 21                 TRA     EXIT_WITH_NO_TRANSFORMATION
        21 000717   005233 710000 21                 TRA     EXIT_WITH_NO_TRANSFORMATION
        21 000720   005233 710000 21                 TRA     EXIT_WITH_NO_TRANSFORMATION
        21 000721   004147 710000 21                 TRA     s:15192
        21 000722   005233 710000 21                 TRA     EXIT_WITH_NO_TRANSFORMATION
        21 000723   005233 710000 21                 TRA     EXIT_WITH_NO_TRANSFORMATION
        21 000724   005233 710000 21                 TRA     EXIT_WITH_NO_TRANSFORMATION
        21 000725   004237 710000 21                 TRA     s:15234
        21 000726   005233 710000 21                 TRA     EXIT_WITH_NO_TRANSFORMATION
        21 000727   005233 710000 21                 TRA     EXIT_WITH_NO_TRANSFORMATION
        21 000730   005233 710000 21                 TRA     EXIT_WITH_NO_TRANSFORMATION
        21 000731   005233 710000 21                 TRA     EXIT_WITH_NO_TRANSFORMATION
        21 000732   005053 710000 21                 TRA     s:15408
        21 000733   004673 710000 21                 TRA     s:15325
        21 000734   005233 710000 21                 TRA     EXIT_WITH_NO_TRANSFORMATION
        21 000735   005143 710000 21                 TRA     s:15450
        21 000736   004763 710000 21                 TRA     s:15366
PL6.E3A0      #001=Z8AF$FORME_ON_SIZE File=Z8AF.:Z8A6TSI                         SAT 08/09/97 10:43 Page:90
        21 000737   005233 710000 21                 TRA     EXIT_WITH_NO_TRANSFORMATION
        21 000740   005233 710000 21                 TRA     EXIT_WITH_NO_TRANSFORMATION
        21 000741   005233 710000 21                 TRA     EXIT_WITH_NO_TRANSFORMATION
        21 000742   005233 710000 21                 TRA     EXIT_WITH_NO_TRANSFORMATION
        21 000743   005233 710000 21                 TRA     EXIT_WITH_NO_TRANSFORMATION
        21 000744   005233 710000 21                 TRA     EXIT_WITH_NO_TRANSFORMATION
        21 000745   005233 710000 21                 TRA     EXIT_WITH_NO_TRANSFORMATION
        21 000746   002353 710000 21                 TRA     s:14763
        21 000747   005233 710000 21                 TRA     EXIT_WITH_NO_TRANSFORMATION
        21 000750   005233 710000 21                 TRA     EXIT_WITH_NO_TRANSFORMATION
        21 000751   005233 710000 21                 TRA     EXIT_WITH_NO_TRANSFORMATION
        21 000752   005233 710000 21                 TRA     EXIT_WITH_NO_TRANSFORMATION
        21 000753   005233 710000 21                 TRA     EXIT_WITH_NO_TRANSFORMATION
        21 000754   005233 710000 21                 TRA     EXIT_WITH_NO_TRANSFORMATION
        21 000755   005233 710000 21                 TRA     EXIT_WITH_NO_TRANSFORMATION
        21 000756   005233 710000 21                 TRA     EXIT_WITH_NO_TRANSFORMATION
        21 000757   005233 710000 21                 TRA     EXIT_WITH_NO_TRANSFORMATION
        21 000760   005233 710000 21                 TRA     EXIT_WITH_NO_TRANSFORMATION
        21 000761   005233 710000 21                 TRA     EXIT_WITH_NO_TRANSFORMATION
        21 000762   005233 710000 21                 TRA     EXIT_WITH_NO_TRANSFORMATION
        21 000763   003555 710000 21                 TRA     s:15038
        21 000764   005233 710000 21                 TRA     EXIT_WITH_NO_TRANSFORMATION
        21 000765   002332 710000 21                 TRA     s:14755

      348    14454
      349    14455        %EJECT;
PL6.E3A0      #001=Z8AF$FORME_ON_SIZE File=Z8AF.:Z8A6TSI                         SAT 08/09/97 10:43 Page:91
      350    14456    2   CASE(%ADI);

      351    14457
      352    14458    2        IF ROP -> ETT.ID = %TRIAD THEN

  14458 21 000766   200025 471500                    LDP1    ROPCON,,AUTO
        21 000767   100000 220100                    LDX0    0,,PR1
        21 000770   000015 100003                    CMPX0   13,DU
        21 000771   001034 601000 21                 TNZ     s:14475

      353    14459    3          DO;

      354    14460    3            IF ROP -> ETT.LOP -> CONST.CONSTI.WORD1 < 0 AND

  14460 21 000772   100001 473500                    LDP3    1,,PR1
        21 000773   300010 235100                    LDA     8,,PR3
        21 000774   001026 605000 21                 TPL     s:14468
        21 000775   777777 115003                    CMPA    -1,DU
        21 000776   001026 604000 21                 TMI     s:14468

      355    14461    3              ROP -> ETT.LOP -> CONST.CONSTI.WORD1 >= -262144 THEN
      356    14462    4   H:         DO;

  14462 21 000777                       H            null
      357    14463    4                CALL Z8AF$FORME(%USI, ROP, 0, RESULT$);

  14463 21 000777   200006 236100                    LDQ     @RESULT$,,AUTO
        21 001000   000006 235000 22                 LDA     6
        21 001001   200072 757100                    STAQ    @POWER_OF_2+3,,AUTO
        21 001002   200025 633500                    EPPR3   ROPCON,,AUTO
        21 001003   200071 453500                    STP3    @POWER_OF_2+2,,AUTO
        21 001004   000007 236000 22                 LDQ     7
        21 001005   200070 756100                    STQ     @POWER_OF_2+1,,AUTO
        21 001006   200070 630500                    EPPR0   @POWER_OF_2+1,,AUTO
        21 001007   000000 631400 22                 EPPR1   0
        21 001010   000007 701000 21                 TSX1    s:14232
        21 001011   000000 011000                    NOP     0
PL6.E3A0      #001=Z8AF$FORME_ON_SIZE File=Z8AF.:Z8A6TSI                         SAT 08/09/97 10:43 Page:92

      358    14464    4                CALL Z8AF$FORME(%SBI, LOP, RESULT$, RESULT$);

  14464 21 001012   200006 236100                    LDQ     @RESULT$,,AUTO
        21 001013   200006 235100                    LDA     @RESULT$,,AUTO
        21 001014   200072 757100                    STAQ    @POWER_OF_2+3,,AUTO
        21 001015   200022 630500                    EPPR0   LOP,,AUTO
        21 001016   200071 450500                    STP0    @POWER_OF_2+2,,AUTO
        21 001017   000011 236000 22                 LDQ     9
        21 001020   200070 756100                    STQ     @POWER_OF_2+1,,AUTO
        21 001021   200070 630500                    EPPR0   @POWER_OF_2+1,,AUTO
        21 001022   000000 631400 22                 EPPR1   0
        21 001023   000007 701000 21                 TSX1    s:14232
        21 001024   000000 011000                    NOP     0

      359    14465    4                GOTO EXIT_WITH_TRANSFORMATION;

  14465 21 001025   007404 710000 21                 TRA     EXIT_WITH_TRANSFORMATION

      360    14466    4              END;
      361    14467
      362    14468    3            IF ROP -> ETT.LOP -> CONST.CONSTI.WORD1 = 0 THEN

  14468 21 001026   000000 115003                    CMPA    0,DU
        21 001027   001034 601000 21                 TNZ     s:14475

      363    14469    4   I:         DO;

  14469 21 001030                       I            null
      364    14470    4                RESULT$ = LOP;

  14470 21 001030   200022 236100                    LDQ     LOP,,AUTO
        21 001031   200006 474500                    LDP4    @RESULT$,,AUTO
        21 001032   400000 756100                    STQ     0,,PR4

      365    14471    4                GOTO EXIT_WITH_TRANSFORMATION;

PL6.E3A0      #001=Z8AF$FORME_ON_SIZE File=Z8AF.:Z8A6TSI                         SAT 08/09/97 10:43 Page:93
  14471 21 001033   007404 710000 21                 TRA     EXIT_WITH_TRANSFORMATION

      366    14472    4              END;
      367    14473    3          END;
      368    14474
      369    14475    3        DO CASE(LOP -> ETT.ID);

  14475 21 001034   200022 473500                    LDP3    LOP,,AUTO
        21 001035   300000 236100                    LDQ     0,,PR3
        21 001036   000022 772000                    QRL     18
        21 001037   000054 136007                    SBLQ    44,DL
        21 001040   000003 116007                    CMPQ    3,DL
        21 001041   001043 602006 21                 TNC     s:14475+7,QL
        21 001042   005233 710000 21                 TRA     EXIT_WITH_NO_TRANSFORMATION
        21 001043   001046 710000 21                 TRA     s:14477
        21 001044   001207 710000 21                 TRA     s:14520
        21 001045   001104 710000 21                 TRA     s:14489

      370    14476    3          CASE(%ADI);

      371    14477    3            IF ROP -> ETT.ID = %TRIAD THEN

  14477 21 001046   000015 100003                    CMPX0   13,DU
        21 001047   005233 601000 21                 TNZ     EXIT_WITH_NO_TRANSFORMATION

      372    14478    4              DO;

      373    14479    4                IF LOP -> ETT.ROP -> ETT.ID = %TRIAD THEN

  14479 21 001050   300002 474500                    LDP4    2,,PR3
        21 001051   400000 221100                    LDX1    0,,PR4
        21 001052   000015 101003                    CMPX1   13,DU
        21 001053   005233 601000 21                 TNZ     EXIT_WITH_NO_TRANSFORMATION

      374    14480    5   J:             DO;

  14480 21 001054                       J            null
PL6.E3A0      #001=Z8AF$FORME_ON_SIZE File=Z8AF.:Z8A6TSI                         SAT 08/09/97 10:43 Page:94
      375    14481    5                    CALL Z8AF$FORME(%ADI, LOP -> ETT.ROP, ROP, RESULT$);

  14481 21 001054   200006 236100                    LDQ     @RESULT$,,AUTO
        21 001055   200073 756100                    STQ     @POWER_OF_2+4,,AUTO
        21 001056   200025 634500                    EPPR4   ROPCON,,AUTO
        21 001057   200072 454500                    STP4    @POWER_OF_2+3,,AUTO
        21 001060   200022 236100                    LDQ     LOP,,AUTO
        21 001061   000002 036003                    ADLQ    2,DU
        21 001062   000013 235000 22                 LDA     11
        21 001063   200070 757100                    STAQ    @POWER_OF_2+1,,AUTO
        21 001064   200070 630500                    EPPR0   @POWER_OF_2+1,,AUTO
        21 001065   000000 631400 22                 EPPR1   0
        21 001066   000007 701000 21                 TSX1    s:14232
        21 001067   000000 011000                    NOP     0

      376    14482    5                    CALL Z8AF$FORME(%ADI, LOP -> ETT.LOP, RESULT$, RESULT$);

  14482 21 001070   200006 236100                    LDQ     @RESULT$,,AUTO
        21 001071   200006 235100                    LDA     @RESULT$,,AUTO
        21 001072   200072 757100                    STAQ    @POWER_OF_2+3,,AUTO
        21 001073   200022 236100                    LDQ     LOP,,AUTO
        21 001074   000001 036003                    ADLQ    1,DU
        21 001075   000013 235000 22                 LDA     11
        21 001076   200070 757100                    STAQ    @POWER_OF_2+1,,AUTO
        21 001077   200070 630500                    EPPR0   @POWER_OF_2+1,,AUTO
        21 001100   000000 631400 22                 EPPR1   0
        21 001101   000007 701000 21                 TSX1    s:14232
        21 001102   000000 011000                    NOP     0

      377    14483    5                    GOTO EXIT_WITH_TRANSFORMATION;

  14483 21 001103   007404 710000 21                 TRA     EXIT_WITH_TRANSFORMATION

      378    14484    5                  END;
      379    14485
      380    14486    4              END;
      381    14487
PL6.E3A0      #001=Z8AF$FORME_ON_SIZE File=Z8AF.:Z8A6TSI                         SAT 08/09/97 10:43 Page:95
      382    14488    3          CASE(%SBI);

      383    14489    3            IF LOP -> ETT.ROP = ROP THEN

  14489 21 001104   300002 236100                    LDQ     2,,PR3
        21 001105   200025 116100                    CMPQ    ROPCON,,AUTO
        21 001106   001113 601000 21                 TNZ     s:14504

      384    14490    4   K:         DO;

  14490 21 001107                       K            null
      385    14491    4                RESULT$ = LOP -> ETT.LOP;

  14491 21 001107   300001 236100                    LDQ     1,,PR3
        21 001110   200006 474500                    LDP4    @RESULT$,,AUTO
        21 001111   400000 756100                    STQ     0,,PR4

      386    14492    4                GOTO EXIT_WITH_TRANSFORMATION;

  14492 21 001112   007404 710000 21                 TRA     EXIT_WITH_TRANSFORMATION

      387    14493    4              END;
      388    14494
      389    14495              /* IF LOP -> ETT.LOP = ROP THEN
      390    14496        L:         DO;
      391    14497                     RESULT$ = LOP -> ETT.ROP;
      392    14498                     GOTO EXIT_WITH_TRANSFORMATION;
      393    14499                   END;
      394    14500                 Optimization suppressed because it is in error. If anyone can
      395    14501                 figure out what this optimization should have done, it can be
      396    14502                 reenabled. */
      397    14503
      398    14504    3            IF ROP -> ETT.ID = %TRIAD THEN

  14504 21 001113   000015 100003                    CMPX0   13,DU
        21 001114   005233 601000 21                 TNZ     EXIT_WITH_NO_TRANSFORMATION

PL6.E3A0      #001=Z8AF$FORME_ON_SIZE File=Z8AF.:Z8A6TSI                         SAT 08/09/97 10:43 Page:96
      399    14505    4              DO;

      400    14506    4                IF LOP -> ETT.ROP -> ETT.ID = %TRIAD THEN

  14506 21 001115   300002 474500                    LDP4    2,,PR3
        21 001116   400000 221100                    LDX1    0,,PR4
        21 001117   000015 101003                    CMPX1   13,DU
        21 001120   001151 601000 21                 TNZ     s:14513

      401    14507    5   M:             DO;

  14507 21 001121                       M            null
      402    14508    5                    CALL Z8AF$FORME(%SBI, LOP -> ETT.ROP, ROP, RESULT$);

  14508 21 001121   200006 236100                    LDQ     @RESULT$,,AUTO
        21 001122   200073 756100                    STQ     @POWER_OF_2+4,,AUTO
        21 001123   200025 634500                    EPPR4   ROPCON,,AUTO
        21 001124   200072 454500                    STP4    @POWER_OF_2+3,,AUTO
        21 001125   200022 236100                    LDQ     LOP,,AUTO
        21 001126   000002 036003                    ADLQ    2,DU
        21 001127   000011 235000 22                 LDA     9
        21 001130   200070 757100                    STAQ    @POWER_OF_2+1,,AUTO
        21 001131   200070 630500                    EPPR0   @POWER_OF_2+1,,AUTO
        21 001132   000000 631400 22                 EPPR1   0
        21 001133   000007 701000 21                 TSX1    s:14232
        21 001134   000000 011000                    NOP     0

      403    14509    5                    CALL Z8AF$FORME(%SBI, LOP -> ETT.LOP, RESULT$, RESULT$);

  14509 21 001135   200006 236100                    LDQ     @RESULT$,,AUTO
        21 001136   200006 235100                    LDA     @RESULT$,,AUTO
        21 001137   200072 757100                    STAQ    @POWER_OF_2+3,,AUTO
        21 001140   200022 236100                    LDQ     LOP,,AUTO
        21 001141   000001 036003                    ADLQ    1,DU
        21 001142   000011 235000 22                 LDA     9
        21 001143   200070 757100                    STAQ    @POWER_OF_2+1,,AUTO
        21 001144   200070 630500                    EPPR0   @POWER_OF_2+1,,AUTO
PL6.E3A0      #001=Z8AF$FORME_ON_SIZE File=Z8AF.:Z8A6TSI                         SAT 08/09/97 10:43 Page:97
        21 001145   000000 631400 22                 EPPR1   0
        21 001146   000007 701000 21                 TSX1    s:14232
        21 001147   000000 011000                    NOP     0

      404    14510    5                    GOTO EXIT_WITH_TRANSFORMATION;

  14510 21 001150   007404 710000 21                 TRA     EXIT_WITH_TRANSFORMATION

      405    14511    5                  END;
      406    14512
      407    14513    4                IF LOP -> ETT.LOP -> ETT.ID = %TRIAD THEN

  14513 21 001151   300001 475500                    LDP5    1,,PR3
        21 001152   500000 222100                    LDX2    0,,PR5
        21 001153   000015 102003                    CMPX2   13,DU
        21 001154   005233 601000 21                 TNZ     EXIT_WITH_NO_TRANSFORMATION

      408    14514    5   N:             DO;

  14514 21 001155                       N            null
      409    14515    5                    CALL Z8AF$FORME(%ADI, ROP, LOP -> ETT.LOP, RESULT$);

  14515 21 001155   200006 236100                    LDQ     @RESULT$,,AUTO
        21 001156   200073 756100                    STQ     @POWER_OF_2+4,,AUTO
        21 001157   200022 236100                    LDQ     LOP,,AUTO
        21 001160   000001 036003                    ADLQ    1,DU
        21 001161   200072 756100                    STQ     @POWER_OF_2+3,,AUTO
        21 001162   200025 634500                    EPPR4   ROPCON,,AUTO
        21 001163   200071 454500                    STP4    @POWER_OF_2+2,,AUTO
        21 001164   000013 236000 22                 LDQ     11
        21 001165   200070 756100                    STQ     @POWER_OF_2+1,,AUTO
        21 001166   200070 630500                    EPPR0   @POWER_OF_2+1,,AUTO
        21 001167   000000 631400 22                 EPPR1   0
        21 001170   000007 701000 21                 TSX1    s:14232
        21 001171   000000 011000                    NOP     0

      410    14516    5                    CALL Z8AF$FORME(%SBI, RESULT$, LOP -> ETT.ROP, RESULT$);
PL6.E3A0      #001=Z8AF$FORME_ON_SIZE File=Z8AF.:Z8A6TSI                         SAT 08/09/97 10:43 Page:98

  14516 21 001172   200006 236100                    LDQ     @RESULT$,,AUTO
        21 001173   200073 756100                    STQ     @POWER_OF_2+4,,AUTO
        21 001174   200022 236100                    LDQ     LOP,,AUTO
        21 001175   000002 036003                    ADLQ    2,DU
        21 001176   200072 756100                    STQ     @POWER_OF_2+3,,AUTO
        21 001177   200006 236100                    LDQ     @RESULT$,,AUTO
        21 001200   000011 235000 22                 LDA     9
        21 001201   200070 757100                    STAQ    @POWER_OF_2+1,,AUTO
        21 001202   200070 630500                    EPPR0   @POWER_OF_2+1,,AUTO
        21 001203   000000 631400 22                 EPPR1   0
        21 001204   000007 701000 21                 TSX1    s:14232
        21 001205   000000 011000                    NOP     0

      411    14517    5                    GOTO EXIT_WITH_TRANSFORMATION;

  14517 21 001206   007404 710000 21                 TRA     EXIT_WITH_TRANSFORMATION

      412    14518    5                  END;
      413    14519    4              END;
      414    14520    3        END /* Case */;

  14520 21 001207   005233 710000 21                 TRA     EXIT_WITH_NO_TRANSFORMATION

      415    14521
      416    14522        %EJECT;
PL6.E3A0      #001=Z8AF$FORME_ON_SIZE File=Z8AF.:Z8A6TSI                         SAT 08/09/97 10:43 Page:99
      417    14523    2   CASE(%SBI);

      418    14524
      419    14525    2        IF ROP = LOP THEN

  14525 21 001210   200025 236100                    LDQ     ROPCON,,AUTO
        21 001211   200022 116100                    CMPQ    LOP,,AUTO
        21 001212   001217 601000 21                 TNZ     s:14531

      420    14526    3   O:     DO;

  14526 21 001213                       O            null
      421    14527    3            RESULT$ = COMCOM.VALUE_0;

  14527 21 001213   000124 236000 xsym               LDQ     COMCOM+84
        21 001214   200006 471500                    LDP1    @RESULT$,,AUTO
        21 001215   100000 756100                    STQ     0,,PR1

      422    14528    3            GOTO EXIT_WITH_TRANSFORMATION;

  14528 21 001216   007404 710000 21                 TRA     EXIT_WITH_TRANSFORMATION

      423    14529    3          END;
      424    14530
      425    14531    2        IF ROP -> ETT.ID = %TRIAD THEN

  14531 21 001217   200025 471500                    LDP1    ROPCON,,AUTO
        21 001220   100000 220100                    LDX0    0,,PR1
        21 001221   000015 100003                    CMPX0   13,DU
        21 001222   001266 601000 21                 TNZ     s:14548

      426    14532    3          DO;

      427    14533             /* 2 ** 18 = 262144 */
      428    14534    3            IF ROP -> ETT.LOP -> CONST.CONSTI.WORD1 < 0 AND

  14534 21 001223   100001 473500                    LDP3    1,,PR1
PL6.E3A0      #001=Z8AF$FORME_ON_SIZE File=Z8AF.:Z8A6TSI                         SAT 08/09/97 10:43 Page:100
        21 001224   300010 235100                    LDA     8,,PR3
        21 001225   001256 605000 21                 TPL     s:14541
        21 001226   777777 115003                    CMPA    -1,DU
        21 001227   001256 604000 21                 TMI     s:14541

      429    14535    3              ROP -> ETT.LOP -> CONST.CONSTI.WORD1 >= -262144 THEN
      430    14536    4   P:         DO;

  14536 21 001230                       P            null
      431    14537    4                CALL Z8AF$FORME(%USI, ROP, 0, RESULT$);

  14537 21 001230   200006 236100                    LDQ     @RESULT$,,AUTO
        21 001231   000006 235000 22                 LDA     6
        21 001232   200072 757100                    STAQ    @POWER_OF_2+3,,AUTO
        21 001233   200025 633500                    EPPR3   ROPCON,,AUTO
        21 001234   200071 453500                    STP3    @POWER_OF_2+2,,AUTO
        21 001235   000007 236000 22                 LDQ     7
        21 001236   200070 756100                    STQ     @POWER_OF_2+1,,AUTO
        21 001237   200070 630500                    EPPR0   @POWER_OF_2+1,,AUTO
        21 001240   000000 631400 22                 EPPR1   0
        21 001241   000007 701000 21                 TSX1    s:14232
        21 001242   000000 011000                    NOP     0

      432    14538    4                CALL Z8AF$FORME(%ADI, LOP, RESULT$, RESULT$);

  14538 21 001243   200006 236100                    LDQ     @RESULT$,,AUTO
        21 001244   200006 235100                    LDA     @RESULT$,,AUTO
        21 001245   200072 757100                    STAQ    @POWER_OF_2+3,,AUTO
        21 001246   200022 630500                    EPPR0   LOP,,AUTO
        21 001247   200071 450500                    STP0    @POWER_OF_2+2,,AUTO
        21 001250   000013 236000 22                 LDQ     11
        21 001251   200070 756100                    STQ     @POWER_OF_2+1,,AUTO
        21 001252   200070 630500                    EPPR0   @POWER_OF_2+1,,AUTO
        21 001253   000000 631400 22                 EPPR1   0
        21 001254   000007 701000 21                 TSX1    s:14232
        21 001255   000000 011000                    NOP     0

PL6.E3A0      #001=Z8AF$FORME_ON_SIZE File=Z8AF.:Z8A6TSI                         SAT 08/09/97 10:43 Page:101
      433    14539    4              END;

      434    14540
      435    14541    3            IF ROP -> ETT.LOP -> CONST.CONSTI.WORD1 = 0 THEN

  14541 21 001256   200025 470500                    LDP0    ROPCON,,AUTO
        21 001257   000001 471500                    LDP1    1,,PR0
        21 001260   100010 235100                    LDA     8,,PR1
        21 001261   001266 601000 21                 TNZ     s:14548

      436    14542    4   Q:         DO;

  14542 21 001262                       Q            null
      437    14543    4                RESULT$ = LOP;

  14543 21 001262   200022 236100                    LDQ     LOP,,AUTO
        21 001263   200006 473500                    LDP3    @RESULT$,,AUTO
        21 001264   300000 756100                    STQ     0,,PR3

      438    14544    4                GOTO EXIT_WITH_TRANSFORMATION;

  14544 21 001265   007404 710000 21                 TRA     EXIT_WITH_TRANSFORMATION

      439    14545    4              END;
      440    14546    3          END;
      441    14547
      442    14548    3        DO CASE(LOP -> ETT.ID);

  14548 21 001266   200022 470500                    LDP0    LOP,,AUTO
        21 001267   000000 236100                    LDQ     0,,PR0
        21 001270   000022 772000                    QRL     18
        21 001271   000054 136007                    SBLQ    44,DL
        21 001272   000003 116007                    CMPQ    3,DL
        21 001273   001275 602006 21                 TNC     s:14548+7,QL
        21 001274   001472 710000 21                 TRA     s:14605
        21 001275   001414 710000 21                 TRA     s:14574
        21 001276   001472 710000 21                 TRA     s:14605
PL6.E3A0      #001=Z8AF$FORME_ON_SIZE File=Z8AF.:Z8A6TSI                         SAT 08/09/97 10:43 Page:102
        21 001277   001300 710000 21                 TRA     s:14550

      443    14549    3          CASE(%SBI);

      444    14550    3            IF LOP -> ETT.LOP = ROP THEN

  14550 21 001300   000001 236100                    LDQ     1,,PR0
        21 001301   200025 116100                    CMPQ    ROPCON,,AUTO
        21 001302   001317 601000 21                 TNZ     s:14556

      445    14551    4   R:         DO;

  14551 21 001303                       R            null
      446    14552    4                CALL Z8AF$FORME(%USI, LOP -> ETT.ROP, 0, RESULT$);

  14552 21 001303   200006 236100                    LDQ     @RESULT$,,AUTO
        21 001304   000006 235000 22                 LDA     6
        21 001305   200072 757100                    STAQ    @POWER_OF_2+3,,AUTO
        21 001306   200022 236100                    LDQ     LOP,,AUTO
        21 001307   000002 036003                    ADLQ    2,DU
        21 001310   000007 235000 22                 LDA     7
        21 001311   200070 757100                    STAQ    @POWER_OF_2+1,,AUTO
        21 001312   200070 630500                    EPPR0   @POWER_OF_2+1,,AUTO
        21 001313   000000 631400 22                 EPPR1   0
        21 001314   000007 701000 21                 TSX1    s:14232
        21 001315   000000 011000                    NOP     0

      447    14553    4                GOTO EXIT_WITH_TRANSFORMATION;

  14553 21 001316   007404 710000 21                 TRA     EXIT_WITH_TRANSFORMATION

      448    14554    4              END;
      449    14555
      450    14556    3            IF ROP -> ETT.ID = %TRIAD THEN

  14556 21 001317   200025 471500                    LDP1    ROPCON,,AUTO
        21 001320   100000 220100                    LDX0    0,,PR1
PL6.E3A0      #001=Z8AF$FORME_ON_SIZE File=Z8AF.:Z8A6TSI                         SAT 08/09/97 10:43 Page:103
        21 001321   000015 100003                    CMPX0   13,DU
        21 001322   001472 601000 21                 TNZ     s:14605

      451    14557    4              DO;

      452    14558    4                IF LOP -> ETT.ROP -> ETT.ID = %TRIAD THEN

  14558 21 001323   000002 473500                    LDP3    2,,PR0
        21 001324   300000 221100                    LDX1    0,,PR3
        21 001325   000015 101003                    CMPX1   13,DU
        21 001326   001357 601000 21                 TNZ     s:14565

      453    14559    5   S:             DO;

  14559 21 001327                       S            null
      454    14560    5                    CALL Z8AF$FORME(%ADI, LOP -> ETT.ROP, ROP, RESULT$);

  14560 21 001327   200006 236100                    LDQ     @RESULT$,,AUTO
        21 001330   200073 756100                    STQ     @POWER_OF_2+4,,AUTO
        21 001331   200025 633500                    EPPR3   ROPCON,,AUTO
        21 001332   200072 453500                    STP3    @POWER_OF_2+3,,AUTO
        21 001333   200022 236100                    LDQ     LOP,,AUTO
        21 001334   000002 036003                    ADLQ    2,DU
        21 001335   000013 235000 22                 LDA     11
        21 001336   200070 757100                    STAQ    @POWER_OF_2+1,,AUTO
        21 001337   200070 630500                    EPPR0   @POWER_OF_2+1,,AUTO
        21 001340   000000 631400 22                 EPPR1   0
        21 001341   000007 701000 21                 TSX1    s:14232
        21 001342   000000 011000                    NOP     0

      455    14561    5                    CALL Z8AF$FORME(%SBI, LOP -> ETT.LOP, RESULT$, RESULT$);

  14561 21 001343   200006 236100                    LDQ     @RESULT$,,AUTO
        21 001344   200006 235100                    LDA     @RESULT$,,AUTO
        21 001345   200072 757100                    STAQ    @POWER_OF_2+3,,AUTO
        21 001346   200022 236100                    LDQ     LOP,,AUTO
        21 001347   000001 036003                    ADLQ    1,DU
PL6.E3A0      #001=Z8AF$FORME_ON_SIZE File=Z8AF.:Z8A6TSI                         SAT 08/09/97 10:43 Page:104
        21 001350   000011 235000 22                 LDA     9
        21 001351   200070 757100                    STAQ    @POWER_OF_2+1,,AUTO
        21 001352   200070 630500                    EPPR0   @POWER_OF_2+1,,AUTO
        21 001353   000000 631400 22                 EPPR1   0
        21 001354   000007 701000 21                 TSX1    s:14232
        21 001355   000000 011000                    NOP     0

      456    14562    5                    GOTO EXIT_WITH_TRANSFORMATION;

  14562 21 001356   007404 710000 21                 TRA     EXIT_WITH_TRANSFORMATION

      457    14563    5                  END;
      458    14564
      459    14565    4                IF LOP -> ETT.LOP -> ETT.ID = %TRIAD THEN

  14565 21 001357   000001 474500                    LDP4    1,,PR0
        21 001360   400000 222100                    LDX2    0,,PR4
        21 001361   000015 102003                    CMPX2   13,DU
        21 001362   001472 601000 21                 TNZ     s:14605

      460    14566    5   T:             DO;

  14566 21 001363                       T            null
      461    14567    5                    CALL Z8AF$FORME(%SBI, LOP -> ETT.LOP, ROP, RESULT$);

  14567 21 001363   200006 236100                    LDQ     @RESULT$,,AUTO
        21 001364   200073 756100                    STQ     @POWER_OF_2+4,,AUTO
        21 001365   200025 633500                    EPPR3   ROPCON,,AUTO
        21 001366   200072 453500                    STP3    @POWER_OF_2+3,,AUTO
        21 001367   200022 236100                    LDQ     LOP,,AUTO
        21 001370   000001 036003                    ADLQ    1,DU
        21 001371   000011 235000 22                 LDA     9
        21 001372   200070 757100                    STAQ    @POWER_OF_2+1,,AUTO
        21 001373   200070 630500                    EPPR0   @POWER_OF_2+1,,AUTO
        21 001374   000000 631400 22                 EPPR1   0
        21 001375   000007 701000 21                 TSX1    s:14232
        21 001376   000000 011000                    NOP     0
PL6.E3A0      #001=Z8AF$FORME_ON_SIZE File=Z8AF.:Z8A6TSI                         SAT 08/09/97 10:43 Page:105

      462    14568    5                    CALL Z8AF$FORME(%SBI, RESULT$, LOP -> ETT.ROP, RESULT$);

  14568 21 001377   200006 236100                    LDQ     @RESULT$,,AUTO
        21 001400   200073 756100                    STQ     @POWER_OF_2+4,,AUTO
        21 001401   200022 236100                    LDQ     LOP,,AUTO
        21 001402   000002 036003                    ADLQ    2,DU
        21 001403   200072 756100                    STQ     @POWER_OF_2+3,,AUTO
        21 001404   200006 236100                    LDQ     @RESULT$,,AUTO
        21 001405   000011 235000 22                 LDA     9
        21 001406   200070 757100                    STAQ    @POWER_OF_2+1,,AUTO
        21 001407   200070 630500                    EPPR0   @POWER_OF_2+1,,AUTO
        21 001410   000000 631400 22                 EPPR1   0
        21 001411   000007 701000 21                 TSX1    s:14232
        21 001412   000000 011000                    NOP     0

      463    14569    5                    GOTO EXIT_WITH_TRANSFORMATION;

  14569 21 001413   007404 710000 21                 TRA     EXIT_WITH_TRANSFORMATION

      464    14570    5                  END;
      465    14571    4              END;
      466    14572
      467    14573    3          CASE(%ADI);

      468    14574    3            IF LOP -> ETT.ROP = ROP THEN

  14574 21 001414   000002 236100                    LDQ     2,,PR0
        21 001415   200025 116100                    CMPQ    ROPCON,,AUTO
        21 001416   001423 601000 21                 TNZ     s:14580

      469    14575    4   U:         DO;

  14575 21 001417                       U            null
      470    14576    4                RESULT$ = LOP -> ETT.LOP;

  14576 21 001417   000001 236100                    LDQ     1,,PR0
PL6.E3A0      #001=Z8AF$FORME_ON_SIZE File=Z8AF.:Z8A6TSI                         SAT 08/09/97 10:43 Page:106
        21 001420   200006 471500                    LDP1    @RESULT$,,AUTO
        21 001421   100000 756100                    STQ     0,,PR1

      471    14577    4                GOTO EXIT_WITH_TRANSFORMATION;

  14577 21 001422   007404 710000 21                 TRA     EXIT_WITH_TRANSFORMATION

      472    14578    4              END;
      473    14579
      474    14580    3            IF LOP -> ETT.LOP = ROP THEN

  14580 21 001423   000001 236100                    LDQ     1,,PR0
        21 001424   200025 116100                    CMPQ    ROPCON,,AUTO
        21 001425   001432 601000 21                 TNZ     s:14586

      475    14581    4   V:         DO;

  14581 21 001426                       V            null
      476    14582    4                RESULT$ = LOP -> ETT.ROP;

  14582 21 001426   000002 236100                    LDQ     2,,PR0
        21 001427   200006 471500                    LDP1    @RESULT$,,AUTO
        21 001430   100000 756100                    STQ     0,,PR1

      477    14583    4                GOTO EXIT_WITH_TRANSFORMATION;

  14583 21 001431   007404 710000 21                 TRA     EXIT_WITH_TRANSFORMATION

      478    14584    4              END;
      479    14585
      480    14586    3            IF ROP -> ETT.ID = %TRIAD THEN

  14586 21 001432   200025 471500                    LDP1    ROPCON,,AUTO
        21 001433   100000 220100                    LDX0    0,,PR1
        21 001434   000015 100003                    CMPX0   13,DU
        21 001435   001472 601000 21                 TNZ     s:14605

PL6.E3A0      #001=Z8AF$FORME_ON_SIZE File=Z8AF.:Z8A6TSI                         SAT 08/09/97 10:43 Page:107
      481    14587    4              DO;

      482    14588    4                IF LOP -> ETT.ROP -> ETT.ID = %TRIAD THEN

  14588 21 001436   000002 473500                    LDP3    2,,PR0
        21 001437   300000 221100                    LDX1    0,,PR3
        21 001440   000015 101003                    CMPX1   13,DU
        21 001441   001472 601000 21                 TNZ     s:14605

      483    14589    5   W:             DO;

  14589 21 001442                       W            null
      484    14590    5                    CALL Z8AF$FORME(%SBI, LOP -> ETT.ROP, ROP, RESULT$);

  14590 21 001442   200006 236100                    LDQ     @RESULT$,,AUTO
        21 001443   200073 756100                    STQ     @POWER_OF_2+4,,AUTO
        21 001444   200025 633500                    EPPR3   ROPCON,,AUTO
        21 001445   200072 453500                    STP3    @POWER_OF_2+3,,AUTO
        21 001446   200022 236100                    LDQ     LOP,,AUTO
        21 001447   000002 036003                    ADLQ    2,DU
        21 001450   000011 235000 22                 LDA     9
        21 001451   200070 757100                    STAQ    @POWER_OF_2+1,,AUTO
        21 001452   200070 630500                    EPPR0   @POWER_OF_2+1,,AUTO
        21 001453   000000 631400 22                 EPPR1   0
        21 001454   000007 701000 21                 TSX1    s:14232
        21 001455   000000 011000                    NOP     0

      485    14591    5                    CALL Z8AF$FORME(%ADI, LOP -> ETT.LOP, RESULT$, RESULT$);

  14591 21 001456   200006 236100                    LDQ     @RESULT$,,AUTO
        21 001457   200006 235100                    LDA     @RESULT$,,AUTO
        21 001460   200072 757100                    STAQ    @POWER_OF_2+3,,AUTO
        21 001461   200022 236100                    LDQ     LOP,,AUTO
        21 001462   000001 036003                    ADLQ    1,DU
        21 001463   000013 235000 22                 LDA     11
        21 001464   200070 757100                    STAQ    @POWER_OF_2+1,,AUTO
        21 001465   200070 630500                    EPPR0   @POWER_OF_2+1,,AUTO
PL6.E3A0      #001=Z8AF$FORME_ON_SIZE File=Z8AF.:Z8A6TSI                         SAT 08/09/97 10:43 Page:108
        21 001466   000000 631400 22                 EPPR1   0
        21 001467   000007 701000 21                 TSX1    s:14232
        21 001470   000000 011000                    NOP     0

      486    14592    5                    GOTO EXIT_WITH_TRANSFORMATION;

  14592 21 001471   007404 710000 21                 TRA     EXIT_WITH_TRANSFORMATION

      487    14593    5                  END;
      488    14594
      489    14595                  /* IF LOP -> ETT.LOP -> ETT.ID = %TRIAD THEN
      490    14596        X:             DO;
      491    14597                         CALL Z8AF$FORME(%SBI, LOP -> ETT.LOP, ROP, RESULT$);
      492    14598                         CALL Z8AF$FORME(%ADI, LOP -> ETT.ROP, RESULT$, RESULT$);
      493    14599                       END;
      494    14600                     This optimization is not needed. The TRIAD will already
      495    14601                     have been moved to the ADI's ROP, and so, optimization
      496    14602                     W will do the job. */
      497    14603    4              END;
      498    14604    3        END /* Case */;

      499    14605    3        DO CASE(ROP -> ETT.ID);

  14605 21 001472   200025 471500                    LDP1    ROPCON,,AUTO
        21 001473   100000 236100                    LDQ     0,,PR1
        21 001474   000022 772000                    QRL     18
        21 001475   000054 136007                    SBLQ    44,DL
        21 001476   000003 116007                    CMPQ    3,DL
        21 001477   001501 602006 21                 TNC     s:14605+7,QL
        21 001500   005233 710000 21                 TRA     EXIT_WITH_NO_TRANSFORMATION
        21 001501   001612 710000 21                 TRA     s:14628
        21 001502   001710 710000 21                 TRA     s:14645
        21 001503   001504 710000 21                 TRA     s:14607

      500    14606    3          CASE(%SBI);

      501    14607    3            IF LOP = ROP -> ETT.LOP THEN
PL6.E3A0      #001=Z8AF$FORME_ON_SIZE File=Z8AF.:Z8A6TSI                         SAT 08/09/97 10:43 Page:109

  14607 21 001504   200022 236100                    LDQ     LOP,,AUTO
        21 001505   100001 116100                    CMPQ    1,,PR1
        21 001506   001513 601000 21                 TNZ     s:14612

      502    14608    4   GG:        DO;

  14608 21 001507                       GG           null
      503    14609    4                RESULT$ = ROP -> ETT.ROP;

  14609 21 001507   100002 236100                    LDQ     2,,PR1
        21 001510   200006 473500                    LDP3    @RESULT$,,AUTO
        21 001511   300000 756100                    STQ     0,,PR3

      504    14610    4                GOTO EXIT_WITH_TRANSFORMATION;

  14610 21 001512   007404 710000 21                 TRA     EXIT_WITH_TRANSFORMATION

      505    14611    4              END;
      506    14612    3            IF LOP -> ETT.ID = %TRIAD THEN

  14612 21 001513   000000 220100                    LDX0    0,,PR0
        21 001514   000015 100003                    CMPX0   13,DU
        21 001515   005233 601000 21                 TNZ     EXIT_WITH_NO_TRANSFORMATION

      507    14613    4              DO;

      508    14614    4                IF ROP -> ETT.ROP -> ETT.ID = %TRIAD THEN

  14614 21 001516   100002 473500                    LDP3    2,,PR1
        21 001517   300000 221100                    LDX1    0,,PR3
        21 001520   000015 101003                    CMPX1   13,DU
        21 001521   001554 601000 21                 TNZ     s:14620

      509    14615    5   HH:            DO;

  14615 21 001522                       HH           null
PL6.E3A0      #001=Z8AF$FORME_ON_SIZE File=Z8AF.:Z8A6TSI                         SAT 08/09/97 10:43 Page:110
      510    14616    5                    CALL Z8AF$FORME(%ADI, LOP, ROP -> ETT.ROP, RESULT$);

  14616 21 001522   200006 236100                    LDQ     @RESULT$,,AUTO
        21 001523   200073 756100                    STQ     @POWER_OF_2+4,,AUTO
        21 001524   200025 236100                    LDQ     ROPCON,,AUTO
        21 001525   000002 036003                    ADLQ    2,DU
        21 001526   200072 756100                    STQ     @POWER_OF_2+3,,AUTO
        21 001527   200022 633500                    EPPR3   LOP,,AUTO
        21 001530   200071 453500                    STP3    @POWER_OF_2+2,,AUTO
        21 001531   000013 236000 22                 LDQ     11
        21 001532   200070 756100                    STQ     @POWER_OF_2+1,,AUTO
        21 001533   200070 630500                    EPPR0   @POWER_OF_2+1,,AUTO
        21 001534   000000 631400 22                 EPPR1   0
        21 001535   000007 701000 21                 TSX1    s:14232
        21 001536   000000 011000                    NOP     0

      511    14617    5                    CALL Z8AF$FORME(%SBI, RESULT$, ROP -> ETT.LOP, RESULT$);

  14617 21 001537   200006 236100                    LDQ     @RESULT$,,AUTO
        21 001540   200073 756100                    STQ     @POWER_OF_2+4,,AUTO
        21 001541   200025 236100                    LDQ     ROPCON,,AUTO
        21 001542   000001 036003                    ADLQ    1,DU
        21 001543   200072 756100                    STQ     @POWER_OF_2+3,,AUTO
        21 001544   200006 236100                    LDQ     @RESULT$,,AUTO
        21 001545   000011 235000 22                 LDA     9
        21 001546   200070 757100                    STAQ    @POWER_OF_2+1,,AUTO
        21 001547   200070 630500                    EPPR0   @POWER_OF_2+1,,AUTO
        21 001550   000000 631400 22                 EPPR1   0
        21 001551   000007 701000 21                 TSX1    s:14232
        21 001552   000000 011000                    NOP     0

      512    14618    5                    GOTO EXIT_WITH_TRANSFORMATION;

  14618 21 001553   007404 710000 21                 TRA     EXIT_WITH_TRANSFORMATION

      513    14619    5                  END;
      514    14620    4                IF ROP -> ETT.LOP -> ETT.ID = %TRIAD THEN
PL6.E3A0      #001=Z8AF$FORME_ON_SIZE File=Z8AF.:Z8A6TSI                         SAT 08/09/97 10:43 Page:111

  14620 21 001554   100001 474500                    LDP4    1,,PR1
        21 001555   400000 222100                    LDX2    0,,PR4
        21 001556   000015 102003                    CMPX2   13,DU
        21 001557   005233 601000 21                 TNZ     EXIT_WITH_NO_TRANSFORMATION

      515    14621    5   YY:            DO;

  14621 21 001560                       YY           null
      516    14622    5                    CALL Z8AF$FORME(%SBI, LOP, ROP -> ETT.LOP, RESULT$);

  14622 21 001560   200006 236100                    LDQ     @RESULT$,,AUTO
        21 001561   200073 756100                    STQ     @POWER_OF_2+4,,AUTO
        21 001562   200025 236100                    LDQ     ROPCON,,AUTO
        21 001563   000001 036003                    ADLQ    1,DU
        21 001564   200072 756100                    STQ     @POWER_OF_2+3,,AUTO
        21 001565   200022 633500                    EPPR3   LOP,,AUTO
        21 001566   200071 453500                    STP3    @POWER_OF_2+2,,AUTO
        21 001567   000011 236000 22                 LDQ     9
        21 001570   200070 756100                    STQ     @POWER_OF_2+1,,AUTO
        21 001571   200070 630500                    EPPR0   @POWER_OF_2+1,,AUTO
        21 001572   000000 631400 22                 EPPR1   0
        21 001573   000007 701000 21                 TSX1    s:14232
        21 001574   000000 011000                    NOP     0

      517    14623    5                    CALL Z8AF$FORME(%ADI, RESULT$, ROP -> ETT.ROP, RESULT$);

  14623 21 001575   200006 236100                    LDQ     @RESULT$,,AUTO
        21 001576   200073 756100                    STQ     @POWER_OF_2+4,,AUTO
        21 001577   200025 236100                    LDQ     ROPCON,,AUTO
        21 001600   000002 036003                    ADLQ    2,DU
        21 001601   200072 756100                    STQ     @POWER_OF_2+3,,AUTO
        21 001602   200006 236100                    LDQ     @RESULT$,,AUTO
        21 001603   000013 235000 22                 LDA     11
        21 001604   200070 757100                    STAQ    @POWER_OF_2+1,,AUTO
        21 001605   200070 630500                    EPPR0   @POWER_OF_2+1,,AUTO
        21 001606   000000 631400 22                 EPPR1   0
PL6.E3A0      #001=Z8AF$FORME_ON_SIZE File=Z8AF.:Z8A6TSI                         SAT 08/09/97 10:43 Page:112
        21 001607   000007 701000 21                 TSX1    s:14232
        21 001610   000000 011000                    NOP     0

      518    14624    5                    GOTO EXIT_WITH_TRANSFORMATION;

  14624 21 001611   007404 710000 21                 TRA     EXIT_WITH_TRANSFORMATION

      519    14625    5                  END;
      520    14626    4              END;
      521    14627    3          CASE(%ADI);

      522    14628    3            IF LOP = ROP -> ETT.LOP THEN

  14628 21 001612   200022 236100                    LDQ     LOP,,AUTO
        21 001613   100001 116100                    CMPQ    1,,PR1
        21 001614   001631 601000 21                 TNZ     s:14633

      523    14629    4   ZZ:        DO;

  14629 21 001615                       ZZ           null
      524    14630    4                CALL Z8AF$FORME(%USI, ROP -> ETT.ROP, 0, RESULT$);

  14630 21 001615   200006 236100                    LDQ     @RESULT$,,AUTO
        21 001616   000006 235000 22                 LDA     6
        21 001617   200072 757100                    STAQ    @POWER_OF_2+3,,AUTO
        21 001620   200025 236100                    LDQ     ROPCON,,AUTO
        21 001621   000002 036003                    ADLQ    2,DU
        21 001622   000007 235000 22                 LDA     7
        21 001623   200070 757100                    STAQ    @POWER_OF_2+1,,AUTO
        21 001624   200070 630500                    EPPR0   @POWER_OF_2+1,,AUTO
        21 001625   000000 631400 22                 EPPR1   0
        21 001626   000007 701000 21                 TSX1    s:14232
        21 001627   000000 011000                    NOP     0

      525    14631    4                GOTO EXIT_WITH_TRANSFORMATION;

  14631 21 001630   007404 710000 21                 TRA     EXIT_WITH_TRANSFORMATION
PL6.E3A0      #001=Z8AF$FORME_ON_SIZE File=Z8AF.:Z8A6TSI                         SAT 08/09/97 10:43 Page:113

      526    14632    4              END;
      527    14633    3            IF LOP = ROP -> ETT.ROP THEN

  14633 21 001631   100002 116100                    CMPQ    2,,PR1
        21 001632   001647 601000 21                 TNZ     s:14638

      528    14634    4   EEE:       DO;

  14634 21 001633                       EEE          null
      529    14635    4                CALL Z8AF$FORME(%USI, ROP -> ETT.LOP, 0, RESULT$);

  14635 21 001633   200006 236100                    LDQ     @RESULT$,,AUTO
        21 001634   000006 235000 22                 LDA     6
        21 001635   200072 757100                    STAQ    @POWER_OF_2+3,,AUTO
        21 001636   200025 236100                    LDQ     ROPCON,,AUTO
        21 001637   000001 036003                    ADLQ    1,DU
        21 001640   000007 235000 22                 LDA     7
        21 001641   200070 757100                    STAQ    @POWER_OF_2+1,,AUTO
        21 001642   200070 630500                    EPPR0   @POWER_OF_2+1,,AUTO
        21 001643   000000 631400 22                 EPPR1   0
        21 001644   000007 701000 21                 TSX1    s:14232
        21 001645   000000 011000                    NOP     0

      530    14636    4                GOTO EXIT_WITH_TRANSFORMATION;

  14636 21 001646   007404 710000 21                 TRA     EXIT_WITH_TRANSFORMATION

      531    14637    4              END;
      532    14638    3            IF LOP -> ETT.ID = %TRIAD THEN

  14638 21 001647   000000 220100                    LDX0    0,,PR0
        21 001650   000015 100003                    CMPX0   13,DU
        21 001651   005233 601000 21                 TNZ     EXIT_WITH_NO_TRANSFORMATION

      533    14639    3              IF ROP -> ETT.ROP -> ETT.ID = %TRIAD THEN

PL6.E3A0      #001=Z8AF$FORME_ON_SIZE File=Z8AF.:Z8A6TSI                         SAT 08/09/97 10:43 Page:114
  14639 21 001652   100002 473500                    LDP3    2,,PR1
        21 001653   300000 221100                    LDX1    0,,PR3
        21 001654   000015 101003                    CMPX1   13,DU
        21 001655   005233 601000 21                 TNZ     EXIT_WITH_NO_TRANSFORMATION

      534    14640    4   FFF:         DO;

  14640 21 001656                       FFF          null
      535    14641    4                  CALL Z8AF$FORME(%SBI, LOP, ROP -> ETT.ROP, RESULT$);

  14641 21 001656   200006 236100                    LDQ     @RESULT$,,AUTO
        21 001657   200073 756100                    STQ     @POWER_OF_2+4,,AUTO
        21 001660   200025 236100                    LDQ     ROPCON,,AUTO
        21 001661   000002 036003                    ADLQ    2,DU
        21 001662   200072 756100                    STQ     @POWER_OF_2+3,,AUTO
        21 001663   200022 633500                    EPPR3   LOP,,AUTO
        21 001664   200071 453500                    STP3    @POWER_OF_2+2,,AUTO
        21 001665   000011 236000 22                 LDQ     9
        21 001666   200070 756100                    STQ     @POWER_OF_2+1,,AUTO
        21 001667   200070 630500                    EPPR0   @POWER_OF_2+1,,AUTO
        21 001670   000000 631400 22                 EPPR1   0
        21 001671   000007 701000 21                 TSX1    s:14232
        21 001672   000000 011000                    NOP     0

      536    14642    4                  CALL Z8AF$FORME(%SBI, RESULT$, ROP -> ETT.LOP, RESULT$);

  14642 21 001673   200006 236100                    LDQ     @RESULT$,,AUTO
        21 001674   200073 756100                    STQ     @POWER_OF_2+4,,AUTO
        21 001675   200025 236100                    LDQ     ROPCON,,AUTO
        21 001676   000001 036003                    ADLQ    1,DU
        21 001677   200072 756100                    STQ     @POWER_OF_2+3,,AUTO
        21 001700   200006 236100                    LDQ     @RESULT$,,AUTO
        21 001701   000011 235000 22                 LDA     9
        21 001702   200070 757100                    STAQ    @POWER_OF_2+1,,AUTO
        21 001703   200070 630500                    EPPR0   @POWER_OF_2+1,,AUTO
        21 001704   000000 631400 22                 EPPR1   0
        21 001705   000007 701000 21                 TSX1    s:14232
PL6.E3A0      #001=Z8AF$FORME_ON_SIZE File=Z8AF.:Z8A6TSI                         SAT 08/09/97 10:43 Page:115
        21 001706   000000 011000                    NOP     0

      537    14643    4                  GOTO EXIT_WITH_TRANSFORMATION;

  14643 21 001707   007404 710000 21                 TRA     EXIT_WITH_TRANSFORMATION

      538    14644    4                END;
      539    14645    3        END /* Case */;

  14645 21 001710   005233 710000 21                 TRA     EXIT_WITH_NO_TRANSFORMATION

      540    14646
      541    14647        %EJECT;
PL6.E3A0      #001=Z8AF$FORME_ON_SIZE File=Z8AF.:Z8A6TSI                         SAT 08/09/97 10:43 Page:116
      542    14648    2   CASE(%MPI);

      543    14649
      544    14650    2        IF  ON_SIZE = '0'B

  14650 21 001711   200020 234100                    SZN     ON_SIZE,,AUTO
        21 001712   005233 604000 21                 TMI     EXIT_WITH_NO_TRANSFORMATION
        21 001713   200025 471500                    LDP1    ROPCON,,AUTO
        21 001714   100000 220100                    LDX0    0,,PR1
        21 001715   000015 100003                    CMPX0   13,DU
        21 001716   005233 601000 21                 TNZ     EXIT_WITH_NO_TRANSFORMATION

      545    14651    2        AND ROP -> ETT.ID = %TRIAD THEN
      546    14652    3          DO;

      547    14653    3            INTEGER = ROP -> ETT.LOP -> CONST.CONSTI.WORD1;

  14653 21 001717   100001 473500                    LDP3    1,,PR1
        21 001720   300010 235100                    LDA     8,,PR3
        21 001721   200046 755100                    STA     INTEGER,,AUTO

      548    14654
      549    14655    3            IF INTEGER = -1 THEN

  14655 21 001722   000014 115000 22                 CMPA    12
        21 001723   001740 601000 21                 TNZ     s:14661

      550    14656    4   Y:         DO;

  14656 21 001724                       Y            null
      551    14657    4                CALL Z8AF$FORME(%USI, LOP, 0, RESULT$);

  14657 21 001724   200006 236100                    LDQ     @RESULT$,,AUTO
        21 001725   000006 235000 22                 LDA     6
        21 001726   200072 757100                    STAQ    @POWER_OF_2+3,,AUTO
        21 001727   200022 633500                    EPPR3   LOP,,AUTO
        21 001730   200071 453500                    STP3    @POWER_OF_2+2,,AUTO
PL6.E3A0      #001=Z8AF$FORME_ON_SIZE File=Z8AF.:Z8A6TSI                         SAT 08/09/97 10:43 Page:117
        21 001731   000007 236000 22                 LDQ     7
        21 001732   200070 756100                    STQ     @POWER_OF_2+1,,AUTO
        21 001733   200070 630500                    EPPR0   @POWER_OF_2+1,,AUTO
        21 001734   000000 631400 22                 EPPR1   0
        21 001735   000007 701000 21                 TSX1    s:14232
        21 001736   000000 011000                    NOP     0

      552    14658    4                GOTO EXIT_WITH_TRANSFORMATION;

  14658 21 001737   007404 710000 21                 TRA     EXIT_WITH_TRANSFORMATION

      553    14659    4              END;
      554    14660
      555    14661    3            IF INTEGER = 0 THEN

  14661 21 001740   000000 115003                    CMPA    0,DU
        21 001741   001746 601000 21                 TNZ     s:14667

      556    14662    4   Z:         DO;

  14662 21 001742                       Z            null
      557    14663    4                RESULT$ = ROP;

  14663 21 001742   200025 236100                    LDQ     ROPCON,,AUTO
        21 001743   200006 473500                    LDP3    @RESULT$,,AUTO
        21 001744   300000 756100                    STQ     0,,PR3

      558    14664    4                GOTO EXIT_WITH_TRANSFORMATION;

  14664 21 001745   007404 710000 21                 TRA     EXIT_WITH_TRANSFORMATION

      559    14665    4              END;
      560    14666
      561    14667    3            IF INTEGER = 1 THEN

  14667 21 001746   000001 115007                    CMPA    1,DL
        21 001747   001754 601000 21                 TNZ     s:14673
PL6.E3A0      #001=Z8AF$FORME_ON_SIZE File=Z8AF.:Z8A6TSI                         SAT 08/09/97 10:43 Page:118

      562    14668    4   AA:        DO;

  14668 21 001750                       AA           null
      563    14669    4                RESULT$ = LOP;

  14669 21 001750   200022 236100                    LDQ     LOP,,AUTO
        21 001751   200006 473500                    LDP3    @RESULT$,,AUTO
        21 001752   300000 756100                    STQ     0,,PR3

      564    14670    4                GOTO EXIT_WITH_TRANSFORMATION;

  14670 21 001753   007404 710000 21                 TRA     EXIT_WITH_TRANSFORMATION

      565    14671    4              END;
      566    14672
      567    14673    3            IF INTEGER = 2 THEN

  14673 21 001754   000002 115007                    CMPA    2,DL
        21 001755   001772 601000 21                 TNZ     s:14679

      568    14674    4              DO;

      569    14675    4                CALL Z8AF$FORME(%MPI2, LOP, 1, RESULT$);

  14675 21 001756   200006 236100                    LDQ     @RESULT$,,AUTO
        21 001757   000017 235000 22                 LDA     15
        21 001760   200072 757100                    STAQ    @POWER_OF_2+3,,AUTO
        21 001761   200022 633500                    EPPR3   LOP,,AUTO
        21 001762   200071 453500                    STP3    @POWER_OF_2+2,,AUTO
        21 001763   000020 236000 22                 LDQ     16
        21 001764   200070 756100                    STQ     @POWER_OF_2+1,,AUTO
        21 001765   200070 630500                    EPPR0   @POWER_OF_2+1,,AUTO
        21 001766   000000 631400 22                 EPPR1   0
        21 001767   000007 701000 21                 TSX1    s:14232
        21 001770   000000 011000                    NOP     0

PL6.E3A0      #001=Z8AF$FORME_ON_SIZE File=Z8AF.:Z8A6TSI                         SAT 08/09/97 10:43 Page:119
      570    14676    4                GOTO EXIT_WITH_TRANSFORMATION;

  14676 21 001771   007404 710000 21                 TRA     EXIT_WITH_TRANSFORMATION

      571    14677    4              END;
      572    14678
      573    14679    4            DO CASE(LOP -> ETT.ID);

  14679 21 001772   200022 473500                    LDP3    LOP,,AUTO
        21 001773   300000 236100                    LDQ     0,,PR3
        21 001774   000022 772000                    QRL     18
        21 001775   000052 136007                    SBLQ    42,DL
        21 001776   000007 116007                    CMPQ    7,DL
        21 001777   002001 602006 21                 TNC     s:14679+7,QL
        21 002000   002105 710000 21                 TRA     s:14702
        21 002001   002044 710000 21                 TRA     s:14689
        21 002002   002105 710000 21                 TRA     s:14702
        21 002003   002105 710000 21                 TRA     s:14702
        21 002004   002105 710000 21                 TRA     s:14702
        21 002005   002105 710000 21                 TRA     s:14702
        21 002006   002105 710000 21                 TRA     s:14702
        21 002007   002010 710000 21                 TRA     s:14681

      574    14680    4              CASE(%MPI);

      575    14681    4                IF LOP -> ETT.ROP -> ETT.ID = %TRIAD THEN

  14681 21 002010   300002 474500                    LDP4    2,,PR3
        21 002011   400000 220100                    LDX0    0,,PR4
        21 002012   000015 100003                    CMPX0   13,DU
        21 002013   002105 601000 21                 TNZ     s:14702

      576    14682    5   BB:            DO;

  14682 21 002014                       BB           null
      577    14683    5                    CALL Z8AF$FORME(%MPI, LOP -> ETT.ROP, ROP, RESULT$);

PL6.E3A0      #001=Z8AF$FORME_ON_SIZE File=Z8AF.:Z8A6TSI                         SAT 08/09/97 10:43 Page:120
  14683 21 002014   200006 236100                    LDQ     @RESULT$,,AUTO
        21 002015   200073 756100                    STQ     @POWER_OF_2+4,,AUTO
        21 002016   200025 634500                    EPPR4   ROPCON,,AUTO
        21 002017   200072 454500                    STP4    @POWER_OF_2+3,,AUTO
        21 002020   200022 236100                    LDQ     LOP,,AUTO
        21 002021   000002 036003                    ADLQ    2,DU
        21 002022   000022 235000 22                 LDA     18
        21 002023   200070 757100                    STAQ    @POWER_OF_2+1,,AUTO
        21 002024   200070 630500                    EPPR0   @POWER_OF_2+1,,AUTO
        21 002025   000000 631400 22                 EPPR1   0
        21 002026   000007 701000 21                 TSX1    s:14232
        21 002027   000000 011000                    NOP     0

      578    14684    5                    CALL Z8AF$FORME(%MPI, LOP -> ETT.LOP, RESULT$, RESULT$);

  14684 21 002030   200006 236100                    LDQ     @RESULT$,,AUTO
        21 002031   200006 235100                    LDA     @RESULT$,,AUTO
        21 002032   200072 757100                    STAQ    @POWER_OF_2+3,,AUTO
        21 002033   200022 236100                    LDQ     LOP,,AUTO
        21 002034   000001 036003                    ADLQ    1,DU
        21 002035   000022 235000 22                 LDA     18
        21 002036   200070 757100                    STAQ    @POWER_OF_2+1,,AUTO
        21 002037   200070 630500                    EPPR0   @POWER_OF_2+1,,AUTO
        21 002040   000000 631400 22                 EPPR1   0
        21 002041   000007 701000 21                 TSX1    s:14232
        21 002042   000000 011000                    NOP     0

      579    14685    5                    GOTO EXIT_WITH_TRANSFORMATION;

  14685 21 002043   007404 710000 21                 TRA     EXIT_WITH_TRANSFORMATION

      580    14686    5                  END;
      581    14687
      582    14688    4              CASE(%MPI2);

      583    14689    4                POWER_OF_2 = 1;

PL6.E3A0      #001=Z8AF$FORME_ON_SIZE File=Z8AF.:Z8A6TSI                         SAT 08/09/97 10:43 Page:121
  14689 21 002044   000001 235007                    LDA     1,DL
        21 002045   200050 755100                    STA     POWER_OF_2,,AUTO

      584    14690
      585    14691    5                DO SBIN_I = 1 TO LOP -> ETT.ROPCON;

  14691 21 002046   200053 755100                    STA     SBIN_I,,AUTO
        21 002047   002053 710000 21                 TRA     s:14693+1

      586    14692    5                  POWER_OF_2 = POWER_OF_2 * 2;

  14692 21 002050   200050 236100                    LDQ     POWER_OF_2,,AUTO
        21 002051   200050 056100                    ASQ     POWER_OF_2,,AUTO

      587    14693    5                END;

  14693 21 002052   200053 054100                    AOS     SBIN_I,,AUTO
        21 002053   200022 470500                    LDP0    LOP,,AUTO
        21 002054   200053 236100                    LDQ     SBIN_I,,AUTO
        21 002055   000002 116100                    CMPQ    2,,PR0
        21 002056   002050 604400 21                 TMOZ    s:14692

      588    14694
      589    14695    4                MKCN.CON = INTEGER * POWER_OF_2;

  14695 21 002057   200046 236100                    LDQ     INTEGER,,AUTO
        21 002060   200050 402100                    MPY     POWER_OF_2,,AUTO
        21 002061   000000 756000 14                 STQ     MKCN

      590    14696    4                CALL Z8AC$MAKE_CONST(CONST$);

  14696 21 002062   200032 631500                    EPPR1   CONST$,,AUTO
        21 002063   200070 451500                    STP1    @POWER_OF_2+1,,AUTO
        21 002064   200070 630500                    EPPR0   @POWER_OF_2+1,,AUTO
        21 002065   000001 631400 22                 EPPR1   1
        21 002066   000000 701000 xent               TSX1    Z8AC$MAKE_CONST
        21 002067   000000 011000                    NOP     0
PL6.E3A0      #001=Z8AF$FORME_ON_SIZE File=Z8AF.:Z8A6TSI                         SAT 08/09/97 10:43 Page:122

      591    14697    4   CC:          CALL Z8AF$FORME(%MPI, LOP -> ETT.LOP, CONST$, RESULT$);

  14697 21 002070   200006 236100       CC           LDQ     @RESULT$,,AUTO
        21 002071   200073 756100                    STQ     @POWER_OF_2+4,,AUTO
        21 002072   200032 630500                    EPPR0   CONST$,,AUTO
        21 002073   200072 450500                    STP0    @POWER_OF_2+3,,AUTO
        21 002074   200022 236100                    LDQ     LOP,,AUTO
        21 002075   000001 036003                    ADLQ    1,DU
        21 002076   000022 235000 22                 LDA     18
        21 002077   200070 757100                    STAQ    @POWER_OF_2+1,,AUTO
        21 002100   200070 630500                    EPPR0   @POWER_OF_2+1,,AUTO
        21 002101   000000 631400 22                 EPPR1   0
        21 002102   000007 701000 21                 TSX1    s:14232
        21 002103   000000 011000                    NOP     0

      592    14698    4                GOTO EXIT_WITH_TRANSFORMATION;

  14698 21 002104   007404 710000 21                 TRA     EXIT_WITH_TRANSFORMATION

      593    14699
      594    14700    4            END /* Case */;

      595    14701
      596    14702    3            POWER_OF_2 = 1;

  14702 21 002105   000001 235007                    LDA     1,DL
        21 002106   200050 755100                    STA     POWER_OF_2,,AUTO

      597    14703
      598    14704    4            DO SBIN_I = 1 TO 34;

  14704 21 002107   200053 755100                    STA     SBIN_I,,AUTO

      599    14705    4              POWER_OF_2 = POWER_OF_2 * 2;

  14705 21 002110   200050 236100                    LDQ     POWER_OF_2,,AUTO
PL6.E3A0      #001=Z8AF$FORME_ON_SIZE File=Z8AF.:Z8A6TSI                         SAT 08/09/97 10:43 Page:123
        21 002111   200050 056100                    ASQ     POWER_OF_2,,AUTO

      600    14706
      601    14707    4              IF INTEGER = POWER_OF_2 THEN

  14707 21 002112   200046 236100                    LDQ     INTEGER,,AUTO
        21 002113   200050 116100                    CMPQ    POWER_OF_2,,AUTO
        21 002114   002132 601000 21                 TNZ     s:14713

      602    14708    5   DD:          DO;

  14708 21 002115                       DD           null
      603    14709    5                  CALL Z8AF$FORME(%MPI2, LOP, SBIN_I, RESULT$);

  14709 21 002115   200006 236100                    LDQ     @RESULT$,,AUTO
        21 002116   200073 756100                    STQ     @POWER_OF_2+4,,AUTO
        21 002117   200053 630500                    EPPR0   SBIN_I,,AUTO
        21 002120   200072 450500                    STP0    @POWER_OF_2+3,,AUTO
        21 002121   200022 631500                    EPPR1   LOP,,AUTO
        21 002122   200071 451500                    STP1    @POWER_OF_2+2,,AUTO
        21 002123   000020 236000 22                 LDQ     16
        21 002124   200070 756100                    STQ     @POWER_OF_2+1,,AUTO
        21 002125   200070 630500                    EPPR0   @POWER_OF_2+1,,AUTO
        21 002126   000000 631400 22                 EPPR1   0
        21 002127   000007 701000 21                 TSX1    s:14232
        21 002130   000000 011000                    NOP     0

      604    14710    5                  GOTO EXIT_WITH_TRANSFORMATION;

  14710 21 002131   007404 710000 21                 TRA     EXIT_WITH_TRANSFORMATION

      605    14711    5                END;
      606    14712
      607    14713    4              IF INTEGER = (POWER_OF_2 + 1) THEN

  14713 21 002132   200050 236100                    LDQ     POWER_OF_2,,AUTO
        21 002133   000001 036007                    ADLQ    1,DL
PL6.E3A0      #001=Z8AF$FORME_ON_SIZE File=Z8AF.:Z8A6TSI                         SAT 08/09/97 10:43 Page:124
        21 002134   200046 116100                    CMPQ    INTEGER,,AUTO
        21 002135   002165 601000 21                 TNZ     s:14720

      608    14714    5   EE:          DO;

  14714 21 002136                       EE           null
      609    14715    5                  CALL Z8AF$FORME(%MPI2, LOP, SBIN_I, RESULT$);

  14715 21 002136   200006 236100                    LDQ     @RESULT$,,AUTO
        21 002137   200073 756100                    STQ     @POWER_OF_2+4,,AUTO
        21 002140   200053 630500                    EPPR0   SBIN_I,,AUTO
        21 002141   200072 450500                    STP0    @POWER_OF_2+3,,AUTO
        21 002142   200022 631500                    EPPR1   LOP,,AUTO
        21 002143   200071 451500                    STP1    @POWER_OF_2+2,,AUTO
        21 002144   000020 236000 22                 LDQ     16
        21 002145   200070 756100                    STQ     @POWER_OF_2+1,,AUTO
        21 002146   200070 630500                    EPPR0   @POWER_OF_2+1,,AUTO
        21 002147   000000 631400 22                 EPPR1   0
        21 002150   000007 701000 21                 TSX1    s:14232
        21 002151   000000 011000                    NOP     0

      610    14716    5                  CALL Z8AF$FORME(%ADI, RESULT$, LOP, RESULT$);

  14716 21 002152   200006 236100                    LDQ     @RESULT$,,AUTO
        21 002153   200073 756100                    STQ     @POWER_OF_2+4,,AUTO
        21 002154   200022 630500                    EPPR0   LOP,,AUTO
        21 002155   200072 450500                    STP0    @POWER_OF_2+3,,AUTO
        21 002156   000013 235000 22                 LDA     11
        21 002157   200070 757100                    STAQ    @POWER_OF_2+1,,AUTO
        21 002160   200070 630500                    EPPR0   @POWER_OF_2+1,,AUTO
        21 002161   000000 631400 22                 EPPR1   0
        21 002162   000007 701000 21                 TSX1    s:14232
        21 002163   000000 011000                    NOP     0

      611    14717    5                  GOTO EXIT_WITH_TRANSFORMATION;

  14717 21 002164   007404 710000 21                 TRA     EXIT_WITH_TRANSFORMATION
PL6.E3A0      #001=Z8AF$FORME_ON_SIZE File=Z8AF.:Z8A6TSI                         SAT 08/09/97 10:43 Page:125

      612    14718    5                END;
      613    14719
      614    14720    4              IF INTEGER = (POWER_OF_2 - 1) THEN

  14720 21 002165   200050 236100                    LDQ     POWER_OF_2,,AUTO
        21 002166   000001 136007                    SBLQ    1,DL
        21 002167   200046 116100                    CMPQ    INTEGER,,AUTO
        21 002170   002220 601000 21                 TNZ     s:14726

      615    14721    5   FF:          DO;

  14721 21 002171                       FF           null
      616    14722    5                  CALL Z8AF$FORME(%MPI2, LOP, SBIN_I, RESULT$);

  14722 21 002171   200006 236100                    LDQ     @RESULT$,,AUTO
        21 002172   200073 756100                    STQ     @POWER_OF_2+4,,AUTO
        21 002173   200053 630500                    EPPR0   SBIN_I,,AUTO
        21 002174   200072 450500                    STP0    @POWER_OF_2+3,,AUTO
        21 002175   200022 631500                    EPPR1   LOP,,AUTO
        21 002176   200071 451500                    STP1    @POWER_OF_2+2,,AUTO
        21 002177   000020 236000 22                 LDQ     16
        21 002200   200070 756100                    STQ     @POWER_OF_2+1,,AUTO
        21 002201   200070 630500                    EPPR0   @POWER_OF_2+1,,AUTO
        21 002202   000000 631400 22                 EPPR1   0
        21 002203   000007 701000 21                 TSX1    s:14232
        21 002204   000000 011000                    NOP     0

      617    14723    5                  CALL Z8AF$FORME(%SBI, RESULT$, LOP, RESULT$);

  14723 21 002205   200006 236100                    LDQ     @RESULT$,,AUTO
        21 002206   200073 756100                    STQ     @POWER_OF_2+4,,AUTO
        21 002207   200022 630500                    EPPR0   LOP,,AUTO
        21 002210   200072 450500                    STP0    @POWER_OF_2+3,,AUTO
        21 002211   000011 235000 22                 LDA     9
        21 002212   200070 757100                    STAQ    @POWER_OF_2+1,,AUTO
        21 002213   200070 630500                    EPPR0   @POWER_OF_2+1,,AUTO
PL6.E3A0      #001=Z8AF$FORME_ON_SIZE File=Z8AF.:Z8A6TSI                         SAT 08/09/97 10:43 Page:126
        21 002214   000000 631400 22                 EPPR1   0
        21 002215   000007 701000 21                 TSX1    s:14232
        21 002216   000000 011000                    NOP     0

      618    14724    5                  GOTO EXIT_WITH_TRANSFORMATION;

  14724 21 002217   007404 710000 21                 TRA     EXIT_WITH_TRANSFORMATION

      619    14725    5                END;
      620    14726    4            END /* Do */;

  14726 21 002220   200053 054100                    AOS     SBIN_I,,AUTO
        21 002221   200053 235100                    LDA     SBIN_I,,AUTO
        21 002222   000042 115007                    CMPA    34,DL
        21 002223   002110 604400 21                 TMOZ    s:14705

      621    14727    3          END;

  14727 21 002224   005233 710000 21                 TRA     EXIT_WITH_NO_TRANSFORMATION

      622    14728
      623    14729        %EJECT;
PL6.E3A0      #001=Z8AF$FORME_ON_SIZE File=Z8AF.:Z8A6TSI                         SAT 08/09/97 10:43 Page:127
      624    14730    2   CASE(%USI, %USR, %USQ);

      625    14731
      626    14732    3        DO CASE(LOP -> ETT.ID);

  14732 21 002225   200022 471500                    LDP1    LOP,,AUTO
        21 002226   100000 236100                    LDQ     0,,PR1
        21 002227   000022 772000                    QRL     18
        21 002230   000046 136007                    SBLQ    38,DL
        21 002231   000026 116007                    CMPQ    22,DL
        21 002232   002234 602006 21                 TNC     s:14732+7,QL
        21 002233   005233 710000 21                 TRA     EXIT_WITH_NO_TRANSFORMATION
        21 002234   002262 710000 21                 TRA     II
        21 002235   002310 710000 21                 TRA     s:14742
        21 002236   002310 710000 21                 TRA     s:14742
        21 002237   002304 710000 21                 TRA     JJ
        21 002240   002310 710000 21                 TRA     s:14742
        21 002241   002310 710000 21                 TRA     s:14742
        21 002242   002310 710000 21                 TRA     s:14742
        21 002243   002310 710000 21                 TRA     s:14742
        21 002244   002262 710000 21                 TRA     II
        21 002245   002310 710000 21                 TRA     s:14742
        21 002246   002310 710000 21                 TRA     s:14742
        21 002247   002310 710000 21                 TRA     s:14742
        21 002250   002310 710000 21                 TRA     s:14742
        21 002251   002310 710000 21                 TRA     s:14742
        21 002252   002310 710000 21                 TRA     s:14742
        21 002253   002310 710000 21                 TRA     s:14742
        21 002254   002304 710000 21                 TRA     JJ
        21 002255   002310 710000 21                 TRA     s:14742
        21 002256   002262 710000 21                 TRA     II
        21 002257   002310 710000 21                 TRA     s:14742
        21 002260   002310 710000 21                 TRA     s:14742
        21 002261   002304 710000 21                 TRA     JJ

      627    14733    3          CASE(%SBI, %SBR, %SBQ);

PL6.E3A0      #001=Z8AF$FORME_ON_SIZE File=Z8AF.:Z8A6TSI                         SAT 08/09/97 10:43 Page:128
      628    14734    3   II:      NEW_ID = LOP -> ETT.ID;

  14734 21 002262   100000 236100       II           LDQ     0,,PR1
        21 002263   000022 772000                    QRL     18
        21 002264   200045 756100                    STQ     NEW_ID,,AUTO

      629    14735    3            CALL Z8AF$FORME(NEW_ID, LOP -> ETT.ROP, LOP -> ETT.LOP, RESULT$);

  14735 21 002265   200006 236100                    LDQ     @RESULT$,,AUTO
        21 002266   200073 756100                    STQ     @POWER_OF_2+4,,AUTO
        21 002267   200022 236100                    LDQ     LOP,,AUTO
        21 002270   000001 036003                    ADLQ    1,DU
        21 002271   200072 756100                    STQ     @POWER_OF_2+3,,AUTO
        21 002272   200022 236100                    LDQ     LOP,,AUTO
        21 002273   000002 036003                    ADLQ    2,DU
        21 002274   200071 756100                    STQ     @POWER_OF_2+2,,AUTO
        21 002275   200045 633500                    EPPR3   NEW_ID,,AUTO
        21 002276   200070 453500                    STP3    @POWER_OF_2+1,,AUTO
        21 002277   200070 630500                    EPPR0   @POWER_OF_2+1,,AUTO
        21 002300   000000 631400 22                 EPPR1   0
        21 002301   000007 701000 21                 TSX1    s:14232
        21 002302   000000 011000                    NOP     0

      630    14736    3            GOTO EXIT_WITH_TRANSFORMATION;

  14736 21 002303   007404 710000 21                 TRA     EXIT_WITH_TRANSFORMATION

      631    14737
      632    14738    3          CASE(%USI, %USR, %USQ);

      633    14739    3   JJ:      RESULT$ = LOP -> ETT.LOP;

  14739 21 002304   100001 236100       JJ           LDQ     1,,PR1
        21 002305   200006 473500                    LDP3    @RESULT$,,AUTO
        21 002306   300000 756100                    STQ     0,,PR3

      634    14740    3            GOTO EXIT_WITH_TRANSFORMATION;
PL6.E3A0      #001=Z8AF$FORME_ON_SIZE File=Z8AF.:Z8A6TSI                         SAT 08/09/97 10:43 Page:129

  14740 21 002307   007404 710000 21                 TRA     EXIT_WITH_TRANSFORMATION

      635    14741
      636    14742    3        END /* Case */;

  14742 21 002310   005233 710000 21                 TRA     EXIT_WITH_NO_TRANSFORMATION

      637    14743
      638    14744        %EJECT;
PL6.E3A0      #001=Z8AF$FORME_ON_SIZE File=Z8AF.:Z8A6TSI                         SAT 08/09/97 10:43 Page:130
      639    14745    2   CASE(%USD);

      640    14746
      641    14747    2        MKCN.CONA = '0';

  14747 21 002311   000023 236000 22                 LDQ     19
        21 002312   000000 756000 14                 STQ     MKCN

      642    14748    2        CALL Z8AC$MAKE_CONST_D(RESULT$);

  14748 21 002313   200006 630500                    EPPR0   @RESULT$,,AUTO
        21 002314   000001 631400 22                 EPPR1   1
        21 002315   000000 701000 xent               TSX1    Z8AC$MAKE_CONST_D
        21 002316   000000 011000                    NOP     0

      643    14749
      644    14750    2        CALL Z8AF$FORME(%SBD, RESULT$, LOP, RESULT$);

  14750 21 002317   200006 236100                    LDQ     @RESULT$,,AUTO
        21 002320   200073 756100                    STQ     @POWER_OF_2+4,,AUTO
        21 002321   200022 630500                    EPPR0   LOP,,AUTO
        21 002322   200072 450500                    STP0    @POWER_OF_2+3,,AUTO
        21 002323   000025 235000 22                 LDA     21
        21 002324   200070 757100                    STAQ    @POWER_OF_2+1,,AUTO
        21 002325   200070 630500                    EPPR0   @POWER_OF_2+1,,AUTO
        21 002326   000000 631400 22                 EPPR1   0
        21 002327   000007 701000 21                 TSX1    s:14232
        21 002330   000000 011000                    NOP     0

      645    14751    2        GOTO EXIT_WITH_TRANSFORMATION;

  14751 21 002331   007404 710000 21                 TRA     EXIT_WITH_TRANSFORMATION

      646    14752
      647    14753    2   CASE(%USO);

      648    14754
PL6.E3A0      #001=Z8AF$FORME_ON_SIZE File=Z8AF.:Z8A6TSI                         SAT 08/09/97 10:43 Page:131
      649    14755    2        MKCN.CONA = BITASC('173'O);

  14755 21 002332   000026 236000 22                 LDQ     22
        21 002333   000000 756000 14                 STQ     MKCN

      650    14756    2        CALL Z8AC$MAKE_CONST_O (RESULT$);

  14756 21 002334   200006 630500                    EPPR0   @RESULT$,,AUTO
        21 002335   000001 631400 22                 EPPR1   1
        21 002336   000000 701000 xent               TSX1    Z8AC$MAKE_CONST_O
        21 002337   000000 011000                    NOP     0

      651    14757    2        CALL Z8AF$FORME (%SBO, RESULT$, LOP, RESULT$);

  14757 21 002340   200006 236100                    LDQ     @RESULT$,,AUTO
        21 002341   200073 756100                    STQ     @POWER_OF_2+4,,AUTO
        21 002342   200022 630500                    EPPR0   LOP,,AUTO
        21 002343   200072 450500                    STP0    @POWER_OF_2+3,,AUTO
        21 002344   000030 235000 22                 LDA     24
        21 002345   200070 757100                    STAQ    @POWER_OF_2+1,,AUTO
        21 002346   200070 630500                    EPPR0   @POWER_OF_2+1,,AUTO
        21 002347   000000 631400 22                 EPPR1   0
        21 002350   000007 701000 21                 TSX1    s:14232
        21 002351   000000 011000                    NOP     0

      652    14758    2        GOTO EXIT_WITH_TRANSFORMATION;

  14758 21 002352   007404 710000 21                 TRA     EXIT_WITH_TRANSFORMATION

      653    14759
      654    14760        %EJECT;
PL6.E3A0      #001=Z8AF$FORME_ON_SIZE File=Z8AF.:Z8A6TSI                         SAT 08/09/97 10:43 Page:132
      655    14761    2   CASE(%MINI);

      656    14762
      657    14763    2        IF LOP = ROP THEN

  14763 21 002353   200022 236100                    LDQ     LOP,,AUTO
        21 002354   200025 116100                    CMPQ    ROPCON,,AUTO
        21 002355   005233 601000 21                 TNZ     EXIT_WITH_NO_TRANSFORMATION

      658    14764    3   KK:    DO;

  14764 21 002356                       KK           null
      659    14765    3            RESULT$ = LOP;

  14765 21 002356   200006 471500                    LDP1    @RESULT$,,AUTO
        21 002357   100000 756100                    STQ     0,,PR1

      660    14766    3            GOTO EXIT_WITH_TRANSFORMATION;

  14766 21 002360   007404 710000 21                 TRA     EXIT_WITH_TRANSFORMATION

      661    14767    3          END;
      662    14768
      663    14769        %EJECT;
PL6.E3A0      #001=Z8AF$FORME_ON_SIZE File=Z8AF.:Z8A6TSI                         SAT 08/09/97 10:43 Page:133
      664    14770    2   CASE(%MPD, %DVD, %DVDR);

      665    14771
      666    14772    2        IF  ON_SIZE = '0'B

  14772 21 002361   200020 234100                    SZN     ON_SIZE,,AUTO
        21 002362   002500 604000 21                 TMI     s:14801
        21 002363   200022 471500                    LDP1    LOP,,AUTO
        21 002364   100000 220100                    LDX0    0,,PR1
        21 002365   000020 100003                    CMPX0   16,DU
        21 002366   002500 603000 21                 TRC     s:14801

      667    14773    2        AND LOP -> ETT.ID <= %LAST_REFERENCE_TRIAD THEN
      668    14774    2          IF ROP -> ETT.ID = %TRIAD THEN

  14774 21 002367   200025 473500                    LDP3    ROPCON,,AUTO
        21 002370   300000 221100                    LDX1    0,,PR3
        21 002371   000015 101003                    CMPX1   13,DU
        21 002372   002500 601000 21                 TNZ     s:14801

      669    14775    3   LL:      DO;

  14775 21 002373                       LL           null
      670    14776    3              CONST$ = ROP -> ETT.LOP;

  14776 21 002373   300001 236100                    LDQ     1,,PR3
        21 002374   200032 756100                    STQ     CONST$,,AUTO

      671    14777    3              DNT$$ = CONST$ -> CONST.DNT$;

  14777 21 002375   200032 474500                    LDP4    CONST$,,AUTO
        21 002376   400006 236100                    LDQ     6,,PR4
        21 002377   200033 756100                    STQ     DNT$$,,AUTO

      672    14778
      673    14779    3              IF DNT$$ ~= ADDR(NIL) THEN

PL6.E3A0      #001=Z8AF$FORME_ON_SIZE File=Z8AF.:Z8A6TSI                         SAT 08/09/97 10:43 Page:134
  14779 21 002400   000003 116000 22                 CMPQ    3
        21 002401   002500 600000 21                 TZE     s:14801

      674    14780    3                IF  CONST$ -> CONST.NDSC.S = %NO_SIGN

  14780 21 002402   400001 236100                    LDQ     1,,PR4
        21 002403   030000 376007                    ANQ     12288,DL
        21 002404   030000 116007                    CMPQ    12288,DL
        21 002405   002500 601000 21                 TNZ     s:14801
        21 002406   400001 236100                    LDQ     1,,PR4
        21 002407   007700 316007                    CANQ    4032,DL
        21 002410   002500 601000 21                 TNZ     s:14801

      675    14781    3                AND CONST$ -> CONST.NDSC.SF= 0    THEN
      676    14782    4                  DO;

      677    14783    4                    SBIN_I = CONST$ -> CONST.NDSC.N - 1;

  14783 21 002411   400001 236100                    LDQ     1,,PR4
        21 002412   000077 376007                    ANQ     63,DL
        21 002413   000001 136007                    SBLQ    1,DL
        21 002414   200053 756100                    STQ     SBIN_I,,AUTO

      678    14784
      679    14785    4                    IF SUBSTR(DNT$$ -> DNT.TEXT.NAME, 0, 1) = '1'

  14785 21 002415   200033 475500                    LDP5    DNT$$,,AUTO
        21 002416   500004 220100                    LDX0    4,,PR5
        21 002417   500004 236100                    LDQ     4,,PR5
        21 002420   777000 376007                    ANQ     -512,DL
        21 002421   061000 116007                    CMPQ    25088,DL
        21 002422   002500 601000 21                 TNZ     s:14801
        21 002423   200053 721100                    LXL1    SBIN_I,,AUTO
        21 002424   040040 106540                    CMPC    fill='040'O
        21 002425   500004 600011                    ADSC9   4,,PR5                   cn=3,n=*X1
        21 002426   000000 000011 19                 ADSC9   ZIP                      cn=0,n=*X1
        21 002427   002500 601000 21                 TNZ     s:14801
PL6.E3A0      #001=Z8AF$FORME_ON_SIZE File=Z8AF.:Z8A6TSI                         SAT 08/09/97 10:43 Page:135

      680    14786    4                    AND SUBSTR(DNT$$ -> DNT.TEXT.NAME, 1, SBIN_I) = SUBSTR(ZIP, 0,
             14786                             SBIN_I) THEN
      681    14787    5                      DO;

      682    14788    5                        IF ID = %DVD OR ID = %DVDR THEN

  14788 21 002430   000000 235100                    LDA     0,,PR0
        21 002431   000061 115007                    CMPA    49,DL
        21 002432   002435 600000 21                 TZE     s:14789
        21 002433   000063 115007                    CMPA    51,DL
        21 002434   002437 601000 21                 TNZ     s:14791

      683    14789    5                          SBIN_I =  - (SBIN_I);

  14789 21 002435   200053 336100                    LCQ     SBIN_I,,AUTO
        21 002436   200053 756100                    STQ     SBIN_I,,AUTO

      684    14790
      685    14791    5                        CALL Z8AU$TYPE_DESCRIPTOR(LOP, TYPE_DESC);

  14791 21 002437   200026 636500                    EPPR6   TYPE_DESC,,AUTO
        21 002440   200071 456500                    STP6    @POWER_OF_2+2,,AUTO
        21 002441   200022 637500                    EPPR7   LOP,,AUTO
        21 002442   200070 457500                    STP7    @POWER_OF_2+1,,AUTO
        21 002443   200070 630500                    EPPR0   @POWER_OF_2+1,,AUTO
        21 002444   000002 631400 22                 EPPR1   2
        21 002445   000000 701000 xent               TSX1    Z8AU$TYPE_DESCRIPTOR
        21 002446   000000 011000                    NOP     0

      686    14792    5                        SBIN_J = TYPE_DESC.DESC.NDSC.SF + SBIN_I;

  14792 21 002447   200027 236100                    LDQ     TYPE_DESC+1,,AUTO
        21 002450   000030 736000                    QLS     24
        21 002451   000036 732000                    QRS     30
        21 002452   200053 036100                    ADLQ    SBIN_I,,AUTO
        21 002453   200052 756100                    STQ     SBIN_J,,AUTO
PL6.E3A0      #001=Z8AF$FORME_ON_SIZE File=Z8AF.:Z8A6TSI                         SAT 08/09/97 10:43 Page:136

      687    14793    5                        IF -32 <= SBIN_J AND SBIN_J <= 31 AND

  14793 21 002454   000031 116000 22                 CMPQ    25
        21 002455   002500 604000 21                 TMI     s:14801
        21 002456   000037 116007                    CMPQ    31,DL
        21 002457   002500 605400 21                 TPNZ    s:14801
        21 002460   200027 236100                    LDQ     TYPE_DESC+1,,AUTO
        21 002461   030000 316007                    CANQ    12288,DL
        21 002462   002500 600000 21                 TZE     s:14801

      688    14794    6                            TYPE_DESC.DESC.NDSC.S ~= %FLOATING_POINT_LEADING_SIGN THEN
             14794                                     DO;

      689    14795    6                          CALL Z8AF$FORME(%MPD10, LOP, SBIN_I, RESULT$);

  14795 21 002463   200006 236100                    LDQ     @RESULT$,,AUTO
        21 002464   200073 756100                    STQ     @POWER_OF_2+4,,AUTO
        21 002465   200053 630500                    EPPR0   SBIN_I,,AUTO
        21 002466   200072 450500                    STP0    @POWER_OF_2+3,,AUTO
        21 002467   200022 631500                    EPPR1   LOP,,AUTO
        21 002470   200071 451500                    STP1    @POWER_OF_2+2,,AUTO
        21 002471   000033 236000 22                 LDQ     27
        21 002472   200070 756100                    STQ     @POWER_OF_2+1,,AUTO
        21 002473   200070 630500                    EPPR0   @POWER_OF_2+1,,AUTO
        21 002474   000000 631400 22                 EPPR1   0
        21 002475   000007 701000 21                 TSX1    s:14232
        21 002476   000000 011000                    NOP     0

      690    14796    6                          GOTO EXIT_WITH_TRANSFORMATION;

  14796 21 002477   007404 710000 21                 TRA     EXIT_WITH_TRANSFORMATION

      691    14797    6                        END;
      692    14798    5                      END;
      693    14799    4                  END;
      694    14800    3            END; /* LL */
PL6.E3A0      #001=Z8AF$FORME_ON_SIZE File=Z8AF.:Z8A6TSI                         SAT 08/09/97 10:43 Page:137
      695    14801    2        IF LOP -> ETT.ID = %MPD AND

  14801 21 002500   200022 470500                    LDP0    LOP,,AUTO
        21 002501   000000 220100                    LDX0    0,,PR0
        21 002502   000057 100003                    CMPX0   47,DU
        21 002503   005233 601000 21                 TNZ     EXIT_WITH_NO_TRANSFORMATION
        21 002504   200003 471500                    LDP1    @ID,,AUTO
        21 002505   100000 235100                    LDA     0,,PR1
        21 002506   000061 115007                    CMPA    49,DL
        21 002507   002512 600000 21                 TZE     s:14804
        21 002510   000063 115007                    CMPA    51,DL
        21 002511   005233 601000 21                 TNZ     EXIT_WITH_NO_TRANSFORMATION

      696    14802    2            (ID = %DVD OR ID = %DVDR) THEN
      697    14803    3          DO;

      698    14804    3            IF ROP = LOP -> ETT.LOP THEN

  14804 21 002512   200025 236100                    LDQ     ROPCON,,AUTO
        21 002513   000001 116100                    CMPQ    1,,PR0
        21 002514   002521 601000 21                 TNZ     s:14809

      699    14805    4   JJJ:       DO;

  14805 21 002515                       JJJ          null
      700    14806    4                RESULT$ = LOP -> ETT.ROP;

  14806 21 002515   000002 236100                    LDQ     2,,PR0
        21 002516   200006 473500                    LDP3    @RESULT$,,AUTO
        21 002517   300000 756100                    STQ     0,,PR3

      701    14807    4                GOTO EXIT_WITH_TRANSFORMATION;

  14807 21 002520   007404 710000 21                 TRA     EXIT_WITH_TRANSFORMATION

      702    14808    4              END;
      703    14809    3            IF ROP = LOP -> ETT.ROP THEN
PL6.E3A0      #001=Z8AF$FORME_ON_SIZE File=Z8AF.:Z8A6TSI                         SAT 08/09/97 10:43 Page:138

  14809 21 002521   000002 116100                    CMPQ    2,,PR0
        21 002522   005233 601000 21                 TNZ     EXIT_WITH_NO_TRANSFORMATION

      704    14810    4   KKK:       DO;

  14810 21 002523                       KKK          null
      705    14811    4                RESULT$ = LOP -> ETT.LOP;

  14811 21 002523   000001 236100                    LDQ     1,,PR0
        21 002524   200006 473500                    LDP3    @RESULT$,,AUTO
        21 002525   300000 756100                    STQ     0,,PR3

      706    14812    4                GOTO EXIT_WITH_TRANSFORMATION;

  14812 21 002526   007404 710000 21                 TRA     EXIT_WITH_TRANSFORMATION

      707    14813    4              END;
      708    14814    3          END;
      709    14815
      710    14816        %EJECT;
PL6.E3A0      #001=Z8AF$FORME_ON_SIZE File=Z8AF.:Z8A6TSI                         SAT 08/09/97 10:43 Page:139
      711    14817    2   CASE(%DVI, %DVR);

      712    14818
      713    14819    2        IF LOP = ROP THEN

  14819 21 002527   200022 236100                    LDQ     LOP,,AUTO
        21 002530   200025 116100                    CMPQ    ROPCON,,AUTO
        21 002531   002573 601000 21                 TNZ     s:14841

      714    14820    3          DO;

      715    14821    4            DO CASE (ID);

  14821 21 002532   000000 235100                    LDA     0,,PR0
        21 002533   000062 135007                    SBLA    50,DL
        21 002534   000011 115007                    CMPA    9,DL
        21 002535   002537 602005 21                 TNC     s:14821+5,AL
        21 002536   002572 710000 21                 TRA     s:14836
        21 002537   002550 710000 21                 TRA     MM
        21 002540   002572 710000 21                 TRA     s:14836
        21 002541   002572 710000 21                 TRA     s:14836
        21 002542   002572 710000 21                 TRA     s:14836
        21 002543   002572 710000 21                 TRA     s:14836
        21 002544   002572 710000 21                 TRA     s:14836
        21 002545   002572 710000 21                 TRA     s:14836
        21 002546   002572 710000 21                 TRA     s:14836
        21 002547   002557 710000 21                 TRA     NN

      716    14822    4              CASE (%DVI);

      717    14823    4   MM:          MKCN.CON = 1;

  14823 21 002550   000001 235007       MM           LDA     1,DL
        21 002551   000000 755000 14                 STA     MKCN

      718    14824
      719    14825    4                CALL Z8AC$MAKE_CONST (RESULT$);
PL6.E3A0      #001=Z8AF$FORME_ON_SIZE File=Z8AF.:Z8A6TSI                         SAT 08/09/97 10:43 Page:140

  14825 21 002552   200006 630500                    EPPR0   @RESULT$,,AUTO
        21 002553   000001 631400 22                 EPPR1   1
        21 002554   000000 701000 xent               TSX1    Z8AC$MAKE_CONST
        21 002555   000000 011000                    NOP     0
        21 002556   002572 710000 21                 TRA     s:14836

      720    14826
      721    14827    4              CASE (%DVR);

      722    14828    4   NN:          IF COMCOM.OB.HEX THEN

  14828 21 002557   000027 234000 xsym  NN           SZN     COMCOM+23
        21 002560   002564 605000 21                 TPL     s:14831

      723    14829    4                  MKCN.CON = HEX_F_ONE;

  14829 21 002561   000001 235000 20                 LDA     ONE_HEX_F
        21 002562   000000 755000 14                 STA     MKCN
        21 002563   002566 710000 21                 TRA     s:14833

      724    14830    4                ELSE
      725    14831    4                  MKCN.CON = FLOAT_ONE;

  14831 21 002564   000000 235000 20                 LDA     ONE_FLOAT
        21 002565   000000 755000 14                 STA     MKCN

      726    14832
      727    14833    4                CALL Z8AC$MAKE_CONST_R (RESULT$);

  14833 21 002566   200006 630500                    EPPR0   @RESULT$,,AUTO
        21 002567   000001 631400 22                 EPPR1   1
        21 002570   000000 701000 xent               TSX1    Z8AC$MAKE_CONST_R
        21 002571   000000 011000                    NOP     0

      728    14834    4            END;

PL6.E3A0      #001=Z8AF$FORME_ON_SIZE File=Z8AF.:Z8A6TSI                         SAT 08/09/97 10:43 Page:141
      729    14835
      730    14836    3            GOTO EXIT_WITH_TRANSFORMATION;

  14836 21 002572   007404 710000 21                 TRA     EXIT_WITH_TRANSFORMATION

      731    14837
      732    14838    3          END;
      733    14839    2        ELSE
      734    14840    3          DO;

      735    14841    3            IF LOP -> ETT.ID = %TRIAD THEN

  14841 21 002573   200022 471500                    LDP1    LOP,,AUTO
        21 002574   100000 220100                    LDX0    0,,PR1
        21 002575   000015 100003                    CMPX0   13,DU
        21 002576   002605 601000 21                 TNZ     s:14848

      736    14842    3              IF LOP -> ETT.LOP -> CONST.CONSTI.WORD1 = 0 THEN

  14842 21 002577   100001 473500                    LDP3    1,,PR1
        21 002600   300010 235100                    LDA     8,,PR3
        21 002601   002605 601000 21                 TNZ     s:14848

      737    14843    4   OO:          DO;

  14843 21 002602                       OO           null
      738    14844    4                  RESULT$ = LOP;

  14844 21 002602   200006 474500                    LDP4    @RESULT$,,AUTO
        21 002603   400000 756100                    STQ     0,,PR4

      739    14845    4                  GOTO EXIT_WITH_TRANSFORMATION;

  14845 21 002604   007404 710000 21                 TRA     EXIT_WITH_TRANSFORMATION

      740    14846    4                END;
      741    14847
PL6.E3A0      #001=Z8AF$FORME_ON_SIZE File=Z8AF.:Z8A6TSI                         SAT 08/09/97 10:43 Page:142
      742    14848    4            DO CASE(ROP -> ETT.ID);

  14848 21 002605   200025 473500                    LDP3    ROPCON,,AUTO
        21 002606   300000 236100                    LDQ     0,,PR3
        21 002607   000022 772000                    QRL     18
        21 002610   000015 136007                    SBLQ    13,DL
        21 002611   000044 116007                    CMPQ    36,DL
        21 002612   002614 602006 21                 TNC     s:14848+7,QL
        21 002613   005233 710000 21                 TRA     EXIT_WITH_NO_TRANSFORMATION
        21 002614   002727 710000 21                 TRA     s:14871
        21 002615   003012 710000 21                 TRA     s:14894
        21 002616   003012 710000 21                 TRA     s:14894
        21 002617   003012 710000 21                 TRA     s:14894
        21 002620   003012 710000 21                 TRA     s:14894
        21 002621   003012 710000 21                 TRA     s:14894
        21 002622   003012 710000 21                 TRA     s:14894
        21 002623   003012 710000 21                 TRA     s:14894
        21 002624   003012 710000 21                 TRA     s:14894
        21 002625   003012 710000 21                 TRA     s:14894
        21 002626   003012 710000 21                 TRA     s:14894
        21 002627   003012 710000 21                 TRA     s:14894
        21 002630   003012 710000 21                 TRA     s:14894
        21 002631   003012 710000 21                 TRA     s:14894
        21 002632   003012 710000 21                 TRA     s:14894
        21 002633   003012 710000 21                 TRA     s:14894
        21 002634   003012 710000 21                 TRA     s:14894
        21 002635   003012 710000 21                 TRA     s:14894
        21 002636   003012 710000 21                 TRA     s:14894
        21 002637   003012 710000 21                 TRA     s:14894
        21 002640   003012 710000 21                 TRA     s:14894
        21 002641   003012 710000 21                 TRA     s:14894
        21 002642   003012 710000 21                 TRA     s:14894
        21 002643   003012 710000 21                 TRA     s:14894
        21 002644   003012 710000 21                 TRA     s:14894
        21 002645   003012 710000 21                 TRA     s:14894
        21 002646   003012 710000 21                 TRA     s:14894
        21 002647   003012 710000 21                 TRA     s:14894
PL6.E3A0      #001=Z8AF$FORME_ON_SIZE File=Z8AF.:Z8A6TSI                         SAT 08/09/97 10:43 Page:143
        21 002650   003012 710000 21                 TRA     s:14894
        21 002651   002716 710000 21                 TRA     s:14863
        21 002652   003012 710000 21                 TRA     s:14894
        21 002653   003012 710000 21                 TRA     s:14894
        21 002654   003012 710000 21                 TRA     s:14894
        21 002655   003012 710000 21                 TRA     s:14894
        21 002656   003012 710000 21                 TRA     s:14894
        21 002657   002660 710000 21                 TRA     s:14850

      743    14849    4              CASE(%MPI);

      744    14850    4                IF ROP -> ETT.LOP = LOP THEN

  14850 21 002660   300001 236100                    LDQ     1,,PR3
        21 002661   200022 116100                    CMPQ    LOP,,AUTO
        21 002662   002677 601000 21                 TNZ     s:14856

      745    14851    5   PP:            DO;

  14851 21 002663                       PP           null
      746    14852    5                    CALL Z8AF$FORME(%DVI, COMCOM.VALUE_1, ROP -> ETT.ROP, RESULT$);

  14852 21 002663   200006 236100                    LDQ     @RESULT$,,AUTO
        21 002664   200073 756100                    STQ     @POWER_OF_2+4,,AUTO
        21 002665   200025 236100                    LDQ     ROPCON,,AUTO
        21 002666   000002 036003                    ADLQ    2,DU
        21 002667   200072 756100                    STQ     @POWER_OF_2+3,,AUTO
        21 002670   000036 237000 22                 LDAQ    30
        21 002671   200070 757100                    STAQ    @POWER_OF_2+1,,AUTO
        21 002672   200070 630500                    EPPR0   @POWER_OF_2+1,,AUTO
        21 002673   000000 631400 22                 EPPR1   0
        21 002674   000007 701000 21                 TSX1    s:14232
        21 002675   000000 011000                    NOP     0

      747    14853    5                    GOTO EXIT_WITH_TRANSFORMATION;

  14853 21 002676   007404 710000 21                 TRA     EXIT_WITH_TRANSFORMATION
PL6.E3A0      #001=Z8AF$FORME_ON_SIZE File=Z8AF.:Z8A6TSI                         SAT 08/09/97 10:43 Page:144

      748    14854    5                  END;
      749    14855
      750    14856    4                IF ROP -> ETT.ROP = LOP THEN

  14856 21 002677   300002 236100                    LDQ     2,,PR3
        21 002700   200022 116100                    CMPQ    LOP,,AUTO
        21 002701   005233 601000 21                 TNZ     EXIT_WITH_NO_TRANSFORMATION

      751    14857    5   QQ:            DO;

  14857 21 002702                       QQ           null
      752    14858    5                    CALL Z8AF$FORME(%DVI, COMCOM.VALUE_1, ROP -> ETT.LOP, RESULT$);

  14858 21 002702   200006 236100                    LDQ     @RESULT$,,AUTO
        21 002703   200073 756100                    STQ     @POWER_OF_2+4,,AUTO
        21 002704   200025 236100                    LDQ     ROPCON,,AUTO
        21 002705   000001 036003                    ADLQ    1,DU
        21 002706   200072 756100                    STQ     @POWER_OF_2+3,,AUTO
        21 002707   000036 237000 22                 LDAQ    30
        21 002710   200070 757100                    STAQ    @POWER_OF_2+1,,AUTO
        21 002711   200070 630500                    EPPR0   @POWER_OF_2+1,,AUTO
        21 002712   000000 631400 22                 EPPR1   0
        21 002713   000007 701000 21                 TSX1    s:14232
        21 002714   000000 011000                    NOP     0

      753    14859    5                    GOTO EXIT_WITH_TRANSFORMATION;

  14859 21 002715   007404 710000 21                 TRA     EXIT_WITH_TRANSFORMATION

      754    14860    5                  END;
      755    14861
      756    14862    4              CASE(%MPI2);

      757    14863    4                IF ROP -> ETT.LOP = LOP THEN

  14863 21 002716   300001 236100                    LDQ     1,,PR3
PL6.E3A0      #001=Z8AF$FORME_ON_SIZE File=Z8AF.:Z8A6TSI                         SAT 08/09/97 10:43 Page:145
        21 002717   200022 116100                    CMPQ    LOP,,AUTO
        21 002720   005233 601000 21                 TNZ     EXIT_WITH_NO_TRANSFORMATION

      758    14864    5   RR:            DO;

  14864 21 002721                       RR           null
      759    14865    5                    MKCN.CON = 0;

  14865 21 002721   000000 450000 14                 STZ     MKCN

      760    14866
      761    14867    5                    CALL Z8AC$MAKE_CONST(RESULT$);

  14867 21 002722   200006 630500                    EPPR0   @RESULT$,,AUTO
        21 002723   000001 631400 22                 EPPR1   1
        21 002724   000000 701000 xent               TSX1    Z8AC$MAKE_CONST
        21 002725   000000 011000                    NOP     0

      762    14868    5                    GOTO EXIT_WITH_TRANSFORMATION;

  14868 21 002726   007404 710000 21                 TRA     EXIT_WITH_TRANSFORMATION

      763    14869    5                  END;
      764    14870    4              CASE(%TRIAD);

      765    14871    4                IF ROP -> ETT.LOP -> CONST.CONSTI.WORD1 = 1 THEN

  14871 21 002727   300001 474500                    LDP4    1,,PR3
        21 002730   400010 235100                    LDA     8,,PR4
        21 002731   000001 115007                    CMPA    1,DL
        21 002732   002737 601000 21                 TNZ     s:14876

      766    14872    5   HHH:           DO;

  14872 21 002733                       HHH          null
      767    14873    5                    RESULT$ = LOP;

PL6.E3A0      #001=Z8AF$FORME_ON_SIZE File=Z8AF.:Z8A6TSI                         SAT 08/09/97 10:43 Page:146
  14873 21 002733   200022 236100                    LDQ     LOP,,AUTO
        21 002734   200006 475500                    LDP5    @RESULT$,,AUTO
        21 002735   500000 756100                    STQ     0,,PR5

      768    14874    5                    GOTO EXIT_WITH_TRANSFORMATION;

  14874 21 002736   007404 710000 21                 TRA     EXIT_WITH_TRANSFORMATION

      769    14875    5                  END;
      770    14876    4                IF LOP -> ETT.ID = %MPI2 THEN

  14876 21 002737   000052 100003                    CMPX0   42,DU
        21 002740   005233 601000 21                 TNZ     EXIT_WITH_NO_TRANSFORMATION

      771    14877    5                  DO;

      772    14878    5                    POWER_OF_2 = 1;

  14878 21 002741   000001 235007                    LDA     1,DL
        21 002742   200050 755100                    STA     POWER_OF_2,,AUTO

      773    14879
      774    14880    6                    DO SBIN_I = 1 TO LOP -> ETT.ROPCON;

  14880 21 002743   200053 755100                    STA     SBIN_I,,AUTO
        21 002744   002751 710000 21                 TRA     s:14882+1

      775    14881    6                      POWER_OF_2 = POWER_OF_2 + POWER_OF_2;

  14881 21 002745   200050 236100                    LDQ     POWER_OF_2,,AUTO
        21 002746   200050 036100                    ADLQ    POWER_OF_2,,AUTO
        21 002747   200050 756100                    STQ     POWER_OF_2,,AUTO

      776    14882    6                    END;

  14882 21 002750   200053 054100                    AOS     SBIN_I,,AUTO
        21 002751   200022 470500                    LDP0    LOP,,AUTO
PL6.E3A0      #001=Z8AF$FORME_ON_SIZE File=Z8AF.:Z8A6TSI                         SAT 08/09/97 10:43 Page:147
        21 002752   200053 236100                    LDQ     SBIN_I,,AUTO
        21 002753   000002 116100                    CMPQ    2,,PR0
        21 002754   002745 604400 21                 TMOZ    s:14881

      777    14883
      778    14884    5                    SBIN_J = ROP -> ETT.LOP -> CONST.CONSTI.WORD1 / POWER_OF_2;

  14884 21 002755   200025 471500                    LDP1    ROPCON,,AUTO
        21 002756   100001 473500                    LDP3    1,,PR1
        21 002757   300010 236100                    LDQ     8,,PR3
        21 002760   200050 506100                    DIV     POWER_OF_2,,AUTO
        21 002761   200052 756100                    STQ     SBIN_J,,AUTO

      779    14885    5                    IF SBIN_J * POWER_OF_2 = ROP -> ETT.LOP -> CONST.CONSTI.WORD1 THEN

  14885 21 002762   200050 402100                    MPY     POWER_OF_2,,AUTO
        21 002763   300010 116100                    CMPQ    8,,PR3
        21 002764   005233 601000 21                 TNZ     EXIT_WITH_NO_TRANSFORMATION

      780    14886    6    III:              DO;

  14886 21 002765                       III          null
      781    14887    6                        MKCN.CON = SBIN_J;

  14887 21 002765   200052 235100                    LDA     SBIN_J,,AUTO
        21 002766   000000 755000 14                 STA     MKCN

      782    14888    6                        CALL Z8AC$MAKE_CONST(CONST$);

  14888 21 002767   200032 634500                    EPPR4   CONST$,,AUTO
        21 002770   200070 454500                    STP4    @POWER_OF_2+1,,AUTO
        21 002771   200070 630500                    EPPR0   @POWER_OF_2+1,,AUTO
        21 002772   000001 631400 22                 EPPR1   1
        21 002773   000000 701000 xent               TSX1    Z8AC$MAKE_CONST
        21 002774   000000 011000                    NOP     0

      783    14889    6                        CALL Z8AF$FORME(%DVI, LOP -> ETT.LOP, CONST$, RESULT$);
PL6.E3A0      #001=Z8AF$FORME_ON_SIZE File=Z8AF.:Z8A6TSI                         SAT 08/09/97 10:43 Page:148

  14889 21 002775   200006 236100                    LDQ     @RESULT$,,AUTO
        21 002776   200073 756100                    STQ     @POWER_OF_2+4,,AUTO
        21 002777   200032 630500                    EPPR0   CONST$,,AUTO
        21 003000   200072 450500                    STP0    @POWER_OF_2+3,,AUTO
        21 003001   200022 236100                    LDQ     LOP,,AUTO
        21 003002   000001 036003                    ADLQ    1,DU
        21 003003   000036 235000 22                 LDA     30
        21 003004   200070 757100                    STAQ    @POWER_OF_2+1,,AUTO
        21 003005   200070 630500                    EPPR0   @POWER_OF_2+1,,AUTO
        21 003006   000000 631400 22                 EPPR1   0
        21 003007   000007 701000 21                 TSX1    s:14232
        21 003010   000000 011000                    NOP     0

      784    14890    6                        GOTO EXIT_WITH_TRANSFORMATION;

  14890 21 003011   007404 710000 21                 TRA     EXIT_WITH_TRANSFORMATION

      785    14891    6                      END;
      786    14892    5                  END;
      787    14893    4            END /* Case */;

      788    14894    3          END;

  14894 21 003012   005233 710000 21                 TRA     EXIT_WITH_NO_TRANSFORMATION

      789    14895
      790    14896        %EJECT;
PL6.E3A0      #001=Z8AF$FORME_ON_SIZE File=Z8AF.:Z8A6TSI                         SAT 08/09/97 10:43 Page:149
      791    14897    2   CASE(%MPI2);

      792    14898
      793    14899    2        IF LOP -> ETT.ID = %MPI2 THEN

  14899 21 003013   200022 471500                    LDP1    LOP,,AUTO
        21 003014   100000 220100                    LDX0    0,,PR1
        21 003015   000052 100003                    CMPX0   42,DU
        21 003016   003037 601000 21                 TNZ     s:14905

      794    14900    3   LLL:   DO;

  14900 21 003017                       LLL          null
      795    14901    3            INTEGER = ROPCON_UBIN + LOP -> ETT.ROPCON;

  14901 21 003017   200025 236100                    LDQ     ROPCON,,AUTO
        21 003020   100002 036100                    ADLQ    2,,PR1
        21 003021   200046 756100                    STQ     INTEGER,,AUTO

      796    14902    3            CALL Z8AF$FORME (%MPI2, LOP -> ETT.LOP, INTEGER, RESULT$);

  14902 21 003022   200006 236100                    LDQ     @RESULT$,,AUTO
        21 003023   200073 756100                    STQ     @POWER_OF_2+4,,AUTO
        21 003024   200046 633500                    EPPR3   INTEGER,,AUTO
        21 003025   200072 453500                    STP3    @POWER_OF_2+3,,AUTO
        21 003026   200022 236100                    LDQ     LOP,,AUTO
        21 003027   000001 036003                    ADLQ    1,DU
        21 003030   000020 235000 22                 LDA     16
        21 003031   200070 757100                    STAQ    @POWER_OF_2+1,,AUTO
        21 003032   200070 630500                    EPPR0   @POWER_OF_2+1,,AUTO
        21 003033   000000 631400 22                 EPPR1   0
        21 003034   000007 701000 21                 TSX1    s:14232
        21 003035   000000 011000                    NOP     0

      797    14903    3            GOTO EXIT_WITH_TRANSFORMATION;

  14903 21 003036   007404 710000 21                 TRA     EXIT_WITH_TRANSFORMATION
PL6.E3A0      #001=Z8AF$FORME_ON_SIZE File=Z8AF.:Z8A6TSI                         SAT 08/09/97 10:43 Page:150

      798    14904    3          END;
      799    14905    2        IF LOP -> ETT.ID = %DVI2 THEN

  14905 21 003037   000114 100003                    CMPX0   76,DU
        21 003040   005233 601000 21                 TNZ     EXIT_WITH_NO_TRANSFORMATION

      800    14906    3          DO;

      801    14907    3            POWER_OF_2 = -1;

  14907 21 003041   000001 336007                    LCQ     1,DL
        21 003042   200050 756100                    STQ     POWER_OF_2,,AUTO

      802    14908    4            DO INTEGER = LOP -> ETT.ROPCON DOWNTO 1;

  14908 21 003043   100002 235100                    LDA     2,,PR1
        21 003044   200046 755100                    STA     INTEGER,,AUTO
        21 003045   003052 710000 21                 TRA     s:14910+2

      803    14909    4              POWER_OF_2 = POWER_OF_2 * 2;

  14909 21 003046   200050 236100                    LDQ     POWER_OF_2,,AUTO
        21 003047   200050 056100                    ASQ     POWER_OF_2,,AUTO

      804    14910    4            END;

  14910 21 003050   000001 336007                    LCQ     1,DL
        21 003051   200046 056100                    ASQ     INTEGER,,AUTO
        21 003052   200046 235100                    LDA     INTEGER,,AUTO
        21 003053   003046 605400 21                 TPNZ    s:14909

      805    14911    3            MKCN.CON = POWER_OF_2;

  14911 21 003054   200050 235100                    LDA     POWER_OF_2,,AUTO
        21 003055   000000 755000 14                 STA     MKCN

PL6.E3A0      #001=Z8AF$FORME_ON_SIZE File=Z8AF.:Z8A6TSI                         SAT 08/09/97 10:43 Page:151
      806    14912    3            CALL Z8AC$MAKE_CONST (CONST$);

  14912 21 003056   200032 630500                    EPPR0   CONST$,,AUTO
        21 003057   200070 450500                    STP0    @POWER_OF_2+1,,AUTO
        21 003060   200070 630500                    EPPR0   @POWER_OF_2+1,,AUTO
        21 003061   000001 631400 22                 EPPR1   1
        21 003062   000000 701000 xent               TSX1    Z8AC$MAKE_CONST
        21 003063   000000 011000                    NOP     0

      807    14913    3            CALL Z8AF$FORME (%ANDI, LOP -> ETT.LOP, CONST$, RESULT$);

  14913 21 003064   200006 236100                    LDQ     @RESULT$,,AUTO
        21 003065   200073 756100                    STQ     @POWER_OF_2+4,,AUTO
        21 003066   200032 630500                    EPPR0   CONST$,,AUTO
        21 003067   200072 450500                    STP0    @POWER_OF_2+3,,AUTO
        21 003070   200022 236100                    LDQ     LOP,,AUTO
        21 003071   000001 036003                    ADLQ    1,DU
        21 003072   000040 235000 22                 LDA     32
        21 003073   200070 757100                    STAQ    @POWER_OF_2+1,,AUTO
        21 003074   200070 630500                    EPPR0   @POWER_OF_2+1,,AUTO
        21 003075   000000 631400 22                 EPPR1   0
        21 003076   000007 701000 21                 TSX1    s:14232
        21 003077   000000 011000                    NOP     0

      808    14914    3            INTEGER = ROPCON_UBIN - LOP -> ETT.ROPCON;

  14914 21 003100   200022 470500                    LDP0    LOP,,AUTO
        21 003101   200025 236100                    LDQ     ROPCON,,AUTO
        21 003102   000002 136100                    SBLQ    2,,PR0
        21 003103   200046 756100                    STQ     INTEGER,,AUTO

      809    14915    3            IF INTEGER > 0 THEN

  14915 21 003104   003120 604400 21                 TMOZ    s:14917

      810    14916    3   MMM:       CALL Z8AF$FORME (%MPI2, RESULT$, INTEGER, RESULT$);

PL6.E3A0      #001=Z8AF$FORME_ON_SIZE File=Z8AF.:Z8A6TSI                         SAT 08/09/97 10:43 Page:152
  14916 21 003105   200006 236100       MMM          LDQ     @RESULT$,,AUTO
        21 003106   200073 756100                    STQ     @POWER_OF_2+4,,AUTO
        21 003107   200046 631500                    EPPR1   INTEGER,,AUTO
        21 003110   200072 451500                    STP1    @POWER_OF_2+3,,AUTO
        21 003111   000020 235000 22                 LDA     16
        21 003112   200070 757100                    STAQ    @POWER_OF_2+1,,AUTO
        21 003113   200070 630500                    EPPR0   @POWER_OF_2+1,,AUTO
        21 003114   000000 631400 22                 EPPR1   0
        21 003115   000007 701000 21                 TSX1    s:14232
        21 003116   000000 011000                    NOP     0
        21 003117   003136 710000 21                 TRA     s:14921

      811    14917    3            ELSE IF INTEGER = 0 THEN

  14917 21 003120   003122 601000 21                 TNZ     OOO

  14916 21 003121   003136 710000 21    NNN          TRA     s:14921

      812    14918    3   NNN:       /* No further action needed */;
      813    14919    3            ELSE
      814    14920    3   OOO:       CALL Z8AF$FORME (%DVI2, RESULT$, - INTEGER, RESULT$);

  14920 21 003122   200046 335100       OOO          LCA     INTEGER,,AUTO
        21 003123   200070 755100                    STA     @POWER_OF_2+1,,AUTO
        21 003124   200006 236100                    LDQ     @RESULT$,,AUTO
        21 003125   200075 756100                    STQ     @POWER_OF_2+6,,AUTO
        21 003126   200070 631500                    EPPR1   @POWER_OF_2+1,,AUTO
        21 003127   200074 451500                    STP1    @POWER_OF_2+5,,AUTO
        21 003130   000042 235000 22                 LDA     34
        21 003131   200072 757100                    STAQ    @POWER_OF_2+3,,AUTO
        21 003132   200072 630500                    EPPR0   @POWER_OF_2+3,,AUTO
        21 003133   000000 631400 22                 EPPR1   0
        21 003134   000007 701000 21                 TSX1    s:14232
        21 003135   000000 011000                    NOP     0

      815    14921    3            GOTO EXIT_WITH_TRANSFORMATION;

PL6.E3A0      #001=Z8AF$FORME_ON_SIZE File=Z8AF.:Z8A6TSI                         SAT 08/09/97 10:43 Page:153
  14921 21 003136   007404 710000 21                 TRA     EXIT_WITH_TRANSFORMATION

      816    14922    3          END;
      817    14923
      818    14924        %EJECT;
PL6.E3A0      #001=Z8AF$FORME_ON_SIZE File=Z8AF.:Z8A6TSI                         SAT 08/09/97 10:43 Page:154
      819    14925    2   CASE(%DVI2);

      820    14926
      821    14927    2        IF LOP -> ETT.ID = %DVI2 THEN

  14927 21 003137   200022 471500                    LDP1    LOP,,AUTO
        21 003140   100000 220100                    LDX0    0,,PR1
        21 003141   000114 100003                    CMPX0   76,DU
        21 003142   003163 601000 21                 TNZ     s:14933

      822    14928    3   PPP:   DO;

  14928 21 003143                       PPP          null
      823    14929    3            INTEGER = ROPCON_UBIN + LOP -> ETT.ROPCON;

  14929 21 003143   200025 236100                    LDQ     ROPCON,,AUTO
        21 003144   100002 036100                    ADLQ    2,,PR1
        21 003145   200046 756100                    STQ     INTEGER,,AUTO

      824    14930    3            CALL Z8AF$FORME (%DVI2, LOP -> ETT.LOP, INTEGER, RESULT$);

  14930 21 003146   200006 236100                    LDQ     @RESULT$,,AUTO
        21 003147   200073 756100                    STQ     @POWER_OF_2+4,,AUTO
        21 003150   200046 633500                    EPPR3   INTEGER,,AUTO
        21 003151   200072 453500                    STP3    @POWER_OF_2+3,,AUTO
        21 003152   200022 236100                    LDQ     LOP,,AUTO
        21 003153   000001 036003                    ADLQ    1,DU
        21 003154   000042 235000 22                 LDA     34
        21 003155   200070 757100                    STAQ    @POWER_OF_2+1,,AUTO
        21 003156   200070 630500                    EPPR0   @POWER_OF_2+1,,AUTO
        21 003157   000000 631400 22                 EPPR1   0
        21 003160   000007 701000 21                 TSX1    s:14232
        21 003161   000000 011000                    NOP     0

      825    14931    3            GOTO EXIT_WITH_TRANSFORMATION;

  14931 21 003162   007404 710000 21                 TRA     EXIT_WITH_TRANSFORMATION
PL6.E3A0      #001=Z8AF$FORME_ON_SIZE File=Z8AF.:Z8A6TSI                         SAT 08/09/97 10:43 Page:155

      826    14932    3          END;
      827    14933    2        IF LOP -> ETT.ID = %MPI2 THEN

  14933 21 003163   000052 100003                    CMPX0   42,DU
        21 003164   005233 601000 21                 TNZ     EXIT_WITH_NO_TRANSFORMATION

      828    14934    3          DO;

      829    14935    3            INTEGER = ROPCON_UBIN - LOP -> ETT.ROPCON;

  14935 21 003165   200025 236100                    LDQ     ROPCON,,AUTO
        21 003166   100002 136100                    SBLQ    2,,PR1
        21 003167   200046 756100                    STQ     INTEGER,,AUTO

      830    14936    3            IF INTEGER > 0 THEN

  14936 21 003170   003206 604400 21                 TMOZ    s:14938

      831    14937    3   QQQ:       CALL Z8AF$FORME (%DVI2, LOP -> ETT.LOP, INTEGER, RESULT$);

  14937 21 003171   200006 236100       QQQ          LDQ     @RESULT$,,AUTO
        21 003172   200073 756100                    STQ     @POWER_OF_2+4,,AUTO
        21 003173   200046 633500                    EPPR3   INTEGER,,AUTO
        21 003174   200072 453500                    STP3    @POWER_OF_2+3,,AUTO
        21 003175   200022 236100                    LDQ     LOP,,AUTO
        21 003176   000001 036003                    ADLQ    1,DU
        21 003177   000042 235000 22                 LDA     34
        21 003200   200070 757100                    STAQ    @POWER_OF_2+1,,AUTO
        21 003201   200070 630500                    EPPR0   @POWER_OF_2+1,,AUTO
        21 003202   000000 631400 22                 EPPR1   0
        21 003203   000007 701000 21                 TSX1    s:14232
        21 003204   000000 011000                    NOP     0
        21 003205   003231 710000 21                 TRA     s:14942

      832    14938    3            ELSE IF INTEGER = 0 THEN

PL6.E3A0      #001=Z8AF$FORME_ON_SIZE File=Z8AF.:Z8A6TSI                         SAT 08/09/97 10:43 Page:156
  14938 21 003206   003213 601000 21                 TNZ     SSS

      833    14939    3   RRR:       RESULT$ = LOP -> ETT.LOP;

  14939 21 003207   100001 236100       RRR          LDQ     1,,PR1
        21 003210   200006 473500                    LDP3    @RESULT$,,AUTO
        21 003211   300000 756100                    STQ     0,,PR3
        21 003212   003231 710000 21                 TRA     s:14942

      834    14940    3            ELSE
      835    14941    3   SSS:       CALL Z8AF$FORME (%MPI2, LOP -> ETT.LOP, - INTEGER, RESULT$);

  14941 21 003213   200046 335100       SSS          LCA     INTEGER,,AUTO
        21 003214   200070 755100                    STA     @POWER_OF_2+1,,AUTO
        21 003215   200006 236100                    LDQ     @RESULT$,,AUTO
        21 003216   200075 756100                    STQ     @POWER_OF_2+6,,AUTO
        21 003217   200070 633500                    EPPR3   @POWER_OF_2+1,,AUTO
        21 003220   200074 453500                    STP3    @POWER_OF_2+5,,AUTO
        21 003221   200022 236100                    LDQ     LOP,,AUTO
        21 003222   000001 036003                    ADLQ    1,DU
        21 003223   000020 235000 22                 LDA     16
        21 003224   200072 757100                    STAQ    @POWER_OF_2+3,,AUTO
        21 003225   200072 630500                    EPPR0   @POWER_OF_2+3,,AUTO
        21 003226   000000 631400 22                 EPPR1   0
        21 003227   000007 701000 21                 TSX1    s:14232
        21 003230   000000 011000                    NOP     0

      836    14942    3            GOTO EXIT_WITH_TRANSFORMATION;

  14942 21 003231   007404 710000 21                 TRA     EXIT_WITH_TRANSFORMATION

      837    14943    3          END;
      838    14944
      839    14945        %EJECT;
PL6.E3A0      #001=Z8AF$FORME_ON_SIZE File=Z8AF.:Z8A6TSI                         SAT 08/09/97 10:43 Page:157
      840    14946    2   CASE(%EXII, %EXRI, %EXQI, %EXDI);

      841    14947
      842    14948         /*  IF  ON_SIZE = '0'B  AND            */
      843    14949    2        IF  ROP->ETT.ID = %TRIAD THEN

  14949 21 003232   200025 471500                    LDP1    ROPCON,,AUTO
        21 003233   100000 220100                    LDX0    0,,PR1
        21 003234   000015 100003                    CMPX0   13,DU
        21 003235   005233 601000 21                 TNZ     EXIT_WITH_NO_TRANSFORMATION

      844    14950    3          DO;

      845    14951    3            INTEGER = ROP -> ETT.LOP -> CONST.CONSTI.WORD1;

  14951 21 003236   100001 473500                    LDP3    1,,PR1
        21 003237   300010 235100                    LDA     8,,PR3
        21 003240   200046 755100                    STA     INTEGER,,AUTO

      846    14952
      847    14953    4            DO CASE (ID);

  14953 21 003241   000000 235100                    LDA     0,,PR0
        21 003242   000042 135007                    SBLA    34,DL
        21 003243   000035 115007                    CMPA    29,DL
        21 003244   003246 602005 21                 TNC     s:14953+5,AL
        21 003245   003316 710000 21                 TRA     s:14964
        21 003246   003306 710000 21                 TRA     s:14957
        21 003247   003316 710000 21                 TRA     s:14964
        21 003250   003311 710000 21                 TRA     s:14959
        21 003251   003316 710000 21                 TRA     s:14964
        21 003252   003316 710000 21                 TRA     s:14964
        21 003253   003316 710000 21                 TRA     s:14964
        21 003254   003316 710000 21                 TRA     s:14964
        21 003255   003316 710000 21                 TRA     s:14964
        21 003256   003316 710000 21                 TRA     s:14964
        21 003257   003316 710000 21                 TRA     s:14964
PL6.E3A0      #001=Z8AF$FORME_ON_SIZE File=Z8AF.:Z8A6TSI                         SAT 08/09/97 10:43 Page:158
        21 003260   003316 710000 21                 TRA     s:14964
        21 003261   003316 710000 21                 TRA     s:14964
        21 003262   003316 710000 21                 TRA     s:14964
        21 003263   003316 710000 21                 TRA     s:14964
        21 003264   003316 710000 21                 TRA     s:14964
        21 003265   003316 710000 21                 TRA     s:14964
        21 003266   003316 710000 21                 TRA     s:14964
        21 003267   003316 710000 21                 TRA     s:14964
        21 003270   003316 710000 21                 TRA     s:14964
        21 003271   003316 710000 21                 TRA     s:14964
        21 003272   003316 710000 21                 TRA     s:14964
        21 003273   003316 710000 21                 TRA     s:14964
        21 003274   003316 710000 21                 TRA     s:14964
        21 003275   003316 710000 21                 TRA     s:14964
        21 003276   003316 710000 21                 TRA     s:14964
        21 003277   003316 710000 21                 TRA     s:14964
        21 003300   003316 710000 21                 TRA     s:14964
        21 003301   003303 710000 21                 TRA     s:14955
        21 003302   003314 710000 21                 TRA     s:14961

      848    14954    4              CASE (%EXII);

      849    14955    4                NEW_ID = %MPI;

  14955 21 003303   000060 236007                    LDQ     48,DL
        21 003304   200045 756100                    STQ     NEW_ID,,AUTO
        21 003305   003316 710000 21                 TRA     s:14964

      850    14956    4              CASE (%EXRI);

      851    14957    4                NEW_ID = %MPR;

  14957 21 003306   000071 236007                    LDQ     57,DL
        21 003307   200045 756100                    STQ     NEW_ID,,AUTO
        21 003310   003316 710000 21                 TRA     s:14964

      852    14958    4              CASE (%EXQI);
PL6.E3A0      #001=Z8AF$FORME_ON_SIZE File=Z8AF.:Z8A6TSI                         SAT 08/09/97 10:43 Page:159

      853    14959    4                NEW_ID = %MPQ;

  14959 21 003311   000047 236007                    LDQ     39,DL
        21 003312   200045 756100                    STQ     NEW_ID,,AUTO
        21 003313   003316 710000 21                 TRA     s:14964

      854    14960    4              CASE (%EXDI);

      855    14961    4                NEW_ID = %MPD;

  14961 21 003314   000057 236007                    LDQ     47,DL
        21 003315   200045 756100                    STQ     NEW_ID,,AUTO

      856    14962    4            END;

      857    14963
      858    14964    4            DO CASE (INTEGER) ;

  14964 21 003316   200046 235100                    LDA     INTEGER,,AUTO
        21 003317   000004 115007                    CMPA    4,DL
        21 003320   003322 602005 21                 TNC     s:14964+4,AL
        21 003321   003403 710000 21                 TRA     s:14989
        21 003322   003326 710000 21                 TRA     s:14968
        21 003323   003332 710000 21                 TRA     s:14973
        21 003324   003336 710000 21                 TRA     s:14978
        21 003325   003353 710000 21                 TRA     s:14983

      859    14965
      860    14966    4            CASE (0) ;

      861    14967
      862    14968    4              RESULT$ = COMCOM.VALUE_1 ;

  14968 21 003326   000125 236000 xsym               LDQ     COMCOM+85
        21 003327   200006 473500                    LDP3    @RESULT$,,AUTO
        21 003330   300000 756100                    STQ     0,,PR3
PL6.E3A0      #001=Z8AF$FORME_ON_SIZE File=Z8AF.:Z8A6TSI                         SAT 08/09/97 10:43 Page:160

      863    14969    4              GOTO EXIT_WITH_TRANSFORMATION ;

  14969 21 003331   007404 710000 21                 TRA     EXIT_WITH_TRANSFORMATION

      864    14970
      865    14971    4            CASE (1) ;

      866    14972
      867    14973    4              RESULT$ = LOP ;

  14973 21 003332   200022 236100                    LDQ     LOP,,AUTO
        21 003333   200006 473500                    LDP3    @RESULT$,,AUTO
        21 003334   300000 756100                    STQ     0,,PR3

      868    14974    4              GOTO EXIT_WITH_TRANSFORMATION ;

  14974 21 003335   007404 710000 21                 TRA     EXIT_WITH_TRANSFORMATION

      869    14975
      870    14976    4            CASE (2) ;

      871    14977
      872    14978    4              CALL Z8AF$FORME (NEW_ID, LOP, LOP, RESULT$) ;

  14978 21 003336   200006 236100                    LDQ     @RESULT$,,AUTO
        21 003337   200073 756100                    STQ     @POWER_OF_2+4,,AUTO
        21 003340   200022 633500                    EPPR3   LOP,,AUTO
        21 003341   200072 453500                    STP3    @POWER_OF_2+3,,AUTO
        21 003342   200022 634500                    EPPR4   LOP,,AUTO
        21 003343   200071 454500                    STP4    @POWER_OF_2+2,,AUTO
        21 003344   200045 635500                    EPPR5   NEW_ID,,AUTO
        21 003345   200070 455500                    STP5    @POWER_OF_2+1,,AUTO
        21 003346   200070 630500                    EPPR0   @POWER_OF_2+1,,AUTO
        21 003347   000000 631400 22                 EPPR1   0
        21 003350   000007 701000 21                 TSX1    s:14232
        21 003351   000000 011000                    NOP     0
PL6.E3A0      #001=Z8AF$FORME_ON_SIZE File=Z8AF.:Z8A6TSI                         SAT 08/09/97 10:43 Page:161

      873    14979    4              GOTO EXIT_WITH_TRANSFORMATION ;

  14979 21 003352   007404 710000 21                 TRA     EXIT_WITH_TRANSFORMATION

      874    14980
      875    14981    4            CASE (3) ;

      876    14982
      877    14983    4              CALL Z8AF$FORME (NEW_ID, LOP, LOP, RESULT$) ;

  14983 21 003353   200006 236100                    LDQ     @RESULT$,,AUTO
        21 003354   200073 756100                    STQ     @POWER_OF_2+4,,AUTO
        21 003355   200022 633500                    EPPR3   LOP,,AUTO
        21 003356   200072 453500                    STP3    @POWER_OF_2+3,,AUTO
        21 003357   200022 634500                    EPPR4   LOP,,AUTO
        21 003360   200071 454500                    STP4    @POWER_OF_2+2,,AUTO
        21 003361   200045 635500                    EPPR5   NEW_ID,,AUTO
        21 003362   200070 455500                    STP5    @POWER_OF_2+1,,AUTO
        21 003363   200070 630500                    EPPR0   @POWER_OF_2+1,,AUTO
        21 003364   000000 631400 22                 EPPR1   0
        21 003365   000007 701000 21                 TSX1    s:14232
        21 003366   000000 011000                    NOP     0

      878    14984    4              CALL Z8AF$FORME (NEW_ID, RESULT$, LOP, RESULT$) ;

  14984 21 003367   200006 236100                    LDQ     @RESULT$,,AUTO
        21 003370   200073 756100                    STQ     @POWER_OF_2+4,,AUTO
        21 003371   200022 630500                    EPPR0   LOP,,AUTO
        21 003372   200072 450500                    STP0    @POWER_OF_2+3,,AUTO
        21 003373   200071 756100                    STQ     @POWER_OF_2+2,,AUTO
        21 003374   200045 631500                    EPPR1   NEW_ID,,AUTO
        21 003375   200070 451500                    STP1    @POWER_OF_2+1,,AUTO
        21 003376   200070 630500                    EPPR0   @POWER_OF_2+1,,AUTO
        21 003377   000000 631400 22                 EPPR1   0
        21 003400   000007 701000 21                 TSX1    s:14232
        21 003401   000000 011000                    NOP     0
PL6.E3A0      #001=Z8AF$FORME_ON_SIZE File=Z8AF.:Z8A6TSI                         SAT 08/09/97 10:43 Page:162

      879    14985    4              GOTO EXIT_WITH_TRANSFORMATION ;

  14985 21 003402   007404 710000 21                 TRA     EXIT_WITH_TRANSFORMATION

      880    14986
      881    14987    4            CASE (ELSE) ;

      882    14988
      883    14989    4              POWER_OF_2 = 2;

  14989 21 003403   000002 236007                    LDQ     2,DL
        21 003404   200050 756100                    STQ     POWER_OF_2,,AUTO

      884    14990
      885    14991    5              DO SBIN_I = 2 TO 12;

  14991 21 003405   200053 756100                    STQ     SBIN_I,,AUTO

      886    14992    5                POWER_OF_2 = POWER_OF_2 * 2;

  14992 21 003406   200050 236100                    LDQ     POWER_OF_2,,AUTO
        21 003407   200050 056100                    ASQ     POWER_OF_2,,AUTO

      887    14993
      888    14994    5                IF INTEGER = POWER_OF_2 THEN

  14994 21 003410   200046 236100                    LDQ     INTEGER,,AUTO
        21 003411   200050 116100                    CMPQ    POWER_OF_2,,AUTO
        21 003412   003420 601000 21                 TNZ     s:15000

      889    14995    6     SS:          DO;

  14995 21 003413                       SS           null
      890    14996    6                    CALL EXPAND_MULTIPLY_TREE(POWER_OF_2);

  14996 21 003413   200050 630500                    EPPR0   POWER_OF_2,,AUTO
PL6.E3A0      #001=Z8AF$FORME_ON_SIZE File=Z8AF.:Z8A6TSI                         SAT 08/09/97 10:43 Page:163
        21 003414   200067 450500                    STP0    LX_NUMBER+9,,AUTO
        21 003415   007405 701000 21                 TSX1    EXPAND_MULTIPLY_TREE
        21 003416   000000 011000                    NOP     0

      891    14997    6                    GOTO EXIT_WITH_TRANSFORMATION;

  14997 21 003417   007404 710000 21                 TRA     EXIT_WITH_TRANSFORMATION

      892    14998    6                  END;
      893    14999
      894    15000    5                IF INTEGER = (POWER_OF_2 + 1) THEN

  15000 21 003420   200050 236100                    LDQ     POWER_OF_2,,AUTO
        21 003421   000001 036007                    ADLQ    1,DL
        21 003422   200046 116100                    CMPQ    INTEGER,,AUTO
        21 003423   003444 601000 21                 TNZ     s:15007

      895    15001    6     TT:          DO;

  15001 21 003424                       TT           null
      896    15002    6                    CALL EXPAND_MULTIPLY_TREE(POWER_OF_2);

  15002 21 003424   200050 630500                    EPPR0   POWER_OF_2,,AUTO
        21 003425   200067 450500                    STP0    LX_NUMBER+9,,AUTO
        21 003426   007405 701000 21                 TSX1    EXPAND_MULTIPLY_TREE
        21 003427   000000 011000                    NOP     0

      897    15003    6                    CALL Z8AF$FORME(NEW_ID, RESULT$, LOP, RESULT$);

  15003 21 003430   200006 236100                    LDQ     @RESULT$,,AUTO
        21 003431   200073 756100                    STQ     @POWER_OF_2+4,,AUTO
        21 003432   200022 630500                    EPPR0   LOP,,AUTO
        21 003433   200072 450500                    STP0    @POWER_OF_2+3,,AUTO
        21 003434   200071 756100                    STQ     @POWER_OF_2+2,,AUTO
        21 003435   200045 631500                    EPPR1   NEW_ID,,AUTO
        21 003436   200070 451500                    STP1    @POWER_OF_2+1,,AUTO
        21 003437   200070 630500                    EPPR0   @POWER_OF_2+1,,AUTO
PL6.E3A0      #001=Z8AF$FORME_ON_SIZE File=Z8AF.:Z8A6TSI                         SAT 08/09/97 10:43 Page:164
        21 003440   000000 631400 22                 EPPR1   0
        21 003441   000007 701000 21                 TSX1    s:14232
        21 003442   000000 011000                    NOP     0

      898    15004    6                    GOTO EXIT_WITH_TRANSFORMATION;

  15004 21 003443   007404 710000 21                 TRA     EXIT_WITH_TRANSFORMATION

      899    15005    6                  END;
      900    15006
      901    15007    5                IF INTEGER = (POWER_OF_2 + 2) THEN

  15007 21 003444   200050 236100                    LDQ     POWER_OF_2,,AUTO
        21 003445   000002 036007                    ADLQ    2,DL
        21 003446   200046 116100                    CMPQ    INTEGER,,AUTO
        21 003447   003503 601000 21                 TNZ     s:15015

      902    15008    6     UU:          DO;

  15008 21 003450                       UU           null
      903    15009    6                    CALL EXPAND_MULTIPLY_TREE(POWER_OF_2);

  15009 21 003450   200050 630500                    EPPR0   POWER_OF_2,,AUTO
        21 003451   200067 450500                    STP0    LX_NUMBER+9,,AUTO
        21 003452   007405 701000 21                 TSX1    EXPAND_MULTIPLY_TREE
        21 003453   000000 011000                    NOP     0

      904    15010    6                    CALL Z8AF$FORME(NEW_ID, RESULT$, LOP, RESULT$);

  15010 21 003454   200006 236100                    LDQ     @RESULT$,,AUTO
        21 003455   200073 756100                    STQ     @POWER_OF_2+4,,AUTO
        21 003456   200022 630500                    EPPR0   LOP,,AUTO
        21 003457   200072 450500                    STP0    @POWER_OF_2+3,,AUTO
        21 003460   200071 756100                    STQ     @POWER_OF_2+2,,AUTO
        21 003461   200045 631500                    EPPR1   NEW_ID,,AUTO
        21 003462   200070 451500                    STP1    @POWER_OF_2+1,,AUTO
        21 003463   200070 630500                    EPPR0   @POWER_OF_2+1,,AUTO
PL6.E3A0      #001=Z8AF$FORME_ON_SIZE File=Z8AF.:Z8A6TSI                         SAT 08/09/97 10:43 Page:165
        21 003464   000000 631400 22                 EPPR1   0
        21 003465   000007 701000 21                 TSX1    s:14232
        21 003466   000000 011000                    NOP     0

      905    15011    6                    CALL Z8AF$FORME(NEW_ID, RESULT$, LOP, RESULT$);

  15011 21 003467   200006 236100                    LDQ     @RESULT$,,AUTO
        21 003470   200073 756100                    STQ     @POWER_OF_2+4,,AUTO
        21 003471   200022 630500                    EPPR0   LOP,,AUTO
        21 003472   200072 450500                    STP0    @POWER_OF_2+3,,AUTO
        21 003473   200071 756100                    STQ     @POWER_OF_2+2,,AUTO
        21 003474   200045 631500                    EPPR1   NEW_ID,,AUTO
        21 003475   200070 451500                    STP1    @POWER_OF_2+1,,AUTO
        21 003476   200070 630500                    EPPR0   @POWER_OF_2+1,,AUTO
        21 003477   000000 631400 22                 EPPR1   0
        21 003500   000007 701000 21                 TSX1    s:14232
        21 003501   000000 011000                    NOP     0

      906    15012    6                    GOTO EXIT_WITH_TRANSFORMATION;

  15012 21 003502   007404 710000 21                 TRA     EXIT_WITH_TRANSFORMATION

      907    15013    6                  END;
      908    15014
      909    15015    5                POWER_OF_2_ = 2;

  15015 21 003503   000002 235007                    LDA     2,DL
        21 003504   200051 755100                    STA     POWER_OF_2_,,AUTO

      910    15016
      911    15017    6                DO SBIN_J = 2 TO 9;

  15017 21 003505   200052 755100                    STA     SBIN_J,,AUTO

      912    15018    6                  POWER_OF_2_ = POWER_OF_2_ * 2;

  15018 21 003506   200051 236100                    LDQ     POWER_OF_2_,,AUTO
PL6.E3A0      #001=Z8AF$FORME_ON_SIZE File=Z8AF.:Z8A6TSI                         SAT 08/09/97 10:43 Page:166
        21 003507   200051 056100                    ASQ     POWER_OF_2_,,AUTO

      913    15019
      914    15020    6                  IF INTEGER = (POWER_OF_2 + 1) * POWER_OF_2_ THEN

  15020 21 003510   200050 236100                    LDQ     POWER_OF_2,,AUTO
        21 003511   000001 036007                    ADLQ    1,DL
        21 003512   200051 402100                    MPY     POWER_OF_2_,,AUTO
        21 003513   200046 116100                    CMPQ    INTEGER,,AUTO
        21 003514   003544 601000 21                 TNZ     s:15029

      915    15021    7     VV:            DO;

  15021 21 003515                       VV           null
      916    15022    7                      CALL EXPAND_MULTIPLY_TREE(POWER_OF_2);

  15022 21 003515   200050 630500                    EPPR0   POWER_OF_2,,AUTO
        21 003516   200067 450500                    STP0    LX_NUMBER+9,,AUTO
        21 003517   007405 701000 21                 TSX1    EXPAND_MULTIPLY_TREE
        21 003520   000000 011000                    NOP     0

      917    15023    7                      CALL Z8AF$FORME(NEW_ID, RESULT$, LOP, RESULT$);

  15023 21 003521   200006 236100                    LDQ     @RESULT$,,AUTO
        21 003522   200073 756100                    STQ     @POWER_OF_2+4,,AUTO
        21 003523   200022 630500                    EPPR0   LOP,,AUTO
        21 003524   200072 450500                    STP0    @POWER_OF_2+3,,AUTO
        21 003525   200071 756100                    STQ     @POWER_OF_2+2,,AUTO
        21 003526   200045 631500                    EPPR1   NEW_ID,,AUTO
        21 003527   200070 451500                    STP1    @POWER_OF_2+1,,AUTO
        21 003530   200070 630500                    EPPR0   @POWER_OF_2+1,,AUTO
        21 003531   000000 631400 22                 EPPR1   0
        21 003532   000007 701000 21                 TSX1    s:14232
        21 003533   000000 011000                    NOP     0

      918    15024    7                      LOP = RESULT$;

PL6.E3A0      #001=Z8AF$FORME_ON_SIZE File=Z8AF.:Z8A6TSI                         SAT 08/09/97 10:43 Page:167
  15024 21 003534   200006 470500                    LDP0    @RESULT$,,AUTO
        21 003535   000000 236100                    LDQ     0,,PR0
        21 003536   200022 756100                    STQ     LOP,,AUTO

      919    15025    7                      CALL EXPAND_MULTIPLY_TREE(POWER_OF_2_);

  15025 21 003537   200051 631500                    EPPR1   POWER_OF_2_,,AUTO
        21 003540   200067 451500                    STP1    LX_NUMBER+9,,AUTO
        21 003541   007405 701000 21                 TSX1    EXPAND_MULTIPLY_TREE
        21 003542   000000 011000                    NOP     0

      920    15026    7                      GOTO EXIT_WITH_TRANSFORMATION;

  15026 21 003543   007404 710000 21                 TRA     EXIT_WITH_TRANSFORMATION

      921    15027    7                    END;
      922    15028
      923    15029    6                END /* Do */;

  15029 21 003544   200052 054100                    AOS     SBIN_J,,AUTO
        21 003545   200052 235100                    LDA     SBIN_J,,AUTO
        21 003546   000011 115007                    CMPA    9,DL
        21 003547   003506 604400 21                 TMOZ    s:15018

      924    15030    5              END /* Do */;

  15030 21 003550   200053 054100                    AOS     SBIN_I,,AUTO
        21 003551   200053 236100                    LDQ     SBIN_I,,AUTO
        21 003552   000014 116007                    CMPQ    12,DL
        21 003553   003406 604400 21                 TMOZ    s:14992

      925    15031    4            END /* Case */ ;

      926    15032    3          END;

  15032 21 003554   005233 710000 21                 TRA     EXIT_WITH_NO_TRANSFORMATION

PL6.E3A0      #001=Z8AF$FORME_ON_SIZE File=Z8AF.:Z8A6TSI                         SAT 08/09/97 10:43 Page:168
      927    15033
      928    15034
      929    15035        %EJECT;
PL6.E3A0      #001=Z8AF$FORME_ON_SIZE File=Z8AF.:Z8A6TSI                         SAT 08/09/97 10:43 Page:169
      930    15036    2   CASE(%CMPD, %CMPO);

      931    15037
      932    15038    2        IF LOP -> ETT.ID = %CVID4 THEN

  15038 21 003555   200022 471500                    LDP1    LOP,,AUTO
        21 003556   100000 220100                    LDX0    0,,PR1
        21 003557   000126 100003                    CMPX0   86,DU
        21 003560   003752 601000 21                 TNZ     s:15113

      933    15039    3   TTT:   DO;

  15039 21 003561                       TTT          null
      934    15040
      935    15041    3            CALL Z8AU$TYPE_DESCRIPTOR (ROP, TYPE_DESC);

  15041 21 003561   200026 633500                    EPPR3   TYPE_DESC,,AUTO
        21 003562   200071 453500                    STP3    @POWER_OF_2+2,,AUTO
        21 003563   200025 634500                    EPPR4   ROPCON,,AUTO
        21 003564   200070 454500                    STP4    @POWER_OF_2+1,,AUTO
        21 003565   200070 630500                    EPPR0   @POWER_OF_2+1,,AUTO
        21 003566   000002 631400 22                 EPPR1   2
        21 003567   000000 701000 xent               TSX1    Z8AU$TYPE_DESCRIPTOR
        21 003570   000000 011000                    NOP     0

      936    15042
      937    15043                 %UNPACK_NDSC (@DESC   = TYPE_DESC.DESC,
      938    15044                               @TYPE   = TYPE_DESC.TYPE,
      939    15045                               @TN     = TN,
      940    15046                               @SCALE  = SCALE,
      941    15047                               @LENGTH = LENGTH);

  15054 21 003571   200027 236100                    LDQ     TYPE_DESC+1,,AUTO
        21 003572   000014 772000                    QRL     12
        21 003573   000003 376007                    ANQ     3,DL
        21 003574   000004 116007                    CMPQ    4,DL
        21 003575   003577 602006 21                 TNC     s:15054+6,QL
PL6.E3A0      #001=Z8AF$FORME_ON_SIZE File=Z8AF.:Z8A6TSI                         SAT 08/09/97 10:43 Page:170
        21 003576   003655 710000 21                 TRA     s:15091
        21 003577   003641 710000 21                 TRA     s:15078
        21 003600   003607 710000 21                 TRA     s:15068
        21 003601   003607 710000 21                 TRA     s:15068
        21 003602   003603 710000 21                 TRA     s:15056

  15056 21 003603   200027 236100                    LDQ     TYPE_DESC+1,,AUTO
        21 003604   000077 376007                    ANQ     63,DL
        21 003605   200015 756100                    STQ     LENGTH,,AUTO
        21 003606   003655 710000 21                 TRA     s:15091

  15068 21 003607   200026 235100                    LDA     TYPE_DESC,,AUTO
        21 003610   000003 115007                    CMPA    3,DL
        21 003611   003616 601000 21                 TNZ     s:15070

  15069 21 003612   200027 236100                    LDQ     TYPE_DESC+1,,AUTO
        21 003613   000077 376007                    ANQ     63,DL
        21 003614   200015 756100                    STQ     LENGTH,,AUTO
        21 003615   003655 710000 21                 TRA     s:15091

  15070 21 003616   000000 115003                    CMPA    0,DU
        21 003617   003625 601000 21                 TNZ     s:15072

  15071 21 003620   200027 236100                    LDQ     TYPE_DESC+1,,AUTO
        21 003621   000077 376007                    ANQ     63,DL
        21 003622   000001 136007                    SBLQ    1,DL
        21 003623   200015 756100                    STQ     LENGTH,,AUTO
        21 003624   003655 710000 21                 TRA     s:15091

  15072 21 003625   200027 236100                    LDQ     TYPE_DESC+1,,AUTO
        21 003626   040000 316007                    CANQ    16384,DL
        21 003627   003634 600000 21                 TZE     s:15075

  15073 21 003630   200027 236100                    LDQ     TYPE_DESC+1,,AUTO
        21 003631   000077 376007                    ANQ     63,DL
        21 003632   200015 756100                    STQ     LENGTH,,AUTO
        21 003633   003655 710000 21                 TRA     s:15091
PL6.E3A0      #001=Z8AF$FORME_ON_SIZE File=Z8AF.:Z8A6TSI                         SAT 08/09/97 10:43 Page:171

  15075 21 003634   200027 236100                    LDQ     TYPE_DESC+1,,AUTO
        21 003635   000077 376007                    ANQ     63,DL
        21 003636   000001 136007                    SBLQ    1,DL
        21 003637   200015 756100                    STQ     LENGTH,,AUTO
        21 003640   003655 710000 21                 TRA     s:15091

  15078 21 003641   200027 236100                    LDQ     TYPE_DESC+1,,AUTO
        21 003642   040000 316007                    CANQ    16384,DL
        21 003643   003651 600000 21                 TZE     s:15081

  15079 21 003644   200027 236100                    LDQ     TYPE_DESC+1,,AUTO
        21 003645   000077 376007                    ANQ     63,DL
        21 003646   000003 136007                    SBLQ    3,DL
        21 003647   200015 756100                    STQ     LENGTH,,AUTO
        21 003650   003655 710000 21                 TRA     s:15091

  15081 21 003651   200027 236100                    LDQ     TYPE_DESC+1,,AUTO
        21 003652   000077 376007                    ANQ     63,DL
        21 003653   000002 136007                    SBLQ    2,DL
        21 003654   200015 756100                    STQ     LENGTH,,AUTO

  15091 21 003655   200027 236100                    LDQ     TYPE_DESC+1,,AUTO
        21 003656   000025 736000                    QLS     21
        21 003657   400000 376003                    ANQ     -131072,DU
        21 003660   200012 756100                    STQ     TN,,AUTO

  15094 21 003661   200027 236100                    LDQ     TYPE_DESC+1,,AUTO
        21 003662   000030 736000                    QLS     24
        21 003663   000036 732000                    QRS     30
        21 003664   200014 756100                    STQ     SCALE,,AUTO

      942    15102    3            IF SCALE = 0 AND LENGTH <= 11 THEN

  15102 21 003665   005233 601000 21                 TNZ     EXIT_WITH_NO_TRANSFORMATION
        21 003666   200015 235100                    LDA     LENGTH,,AUTO
        21 003667   000013 115007                    CMPA    11,DL
PL6.E3A0      #001=Z8AF$FORME_ON_SIZE File=Z8AF.:Z8A6TSI                         SAT 08/09/97 10:43 Page:172
        21 003670   005233 605400 21                 TPNZ    EXIT_WITH_NO_TRANSFORMATION

      943    15103    4              DO;

      944    15104    4                IF ID = %CMPO THEN

  15104 21 003671   200003 470500                    LDP0    @ID,,AUTO
        21 003672   000000 235100                    LDA     0,,PR0
        21 003673   000170 115007                    CMPA    120,DL
        21 003674   003711 601000 21                 TNZ     s:15106

      945    15105    4                  CALL Z8AF$FORME (%CVOD4, ROP, 0, ROP);

  15105 21 003675   200025 631500                    EPPR1   ROPCON,,AUTO
        21 003676   200073 451500                    STP1    @POWER_OF_2+4,,AUTO
        21 003677   000006 236000 22                 LDQ     6
        21 003700   200072 756100                    STQ     @POWER_OF_2+3,,AUTO
        21 003701   200025 633500                    EPPR3   ROPCON,,AUTO
        21 003702   200071 453500                    STP3    @POWER_OF_2+2,,AUTO
        21 003703   000044 236000 22                 LDQ     36
        21 003704   200070 756100                    STQ     @POWER_OF_2+1,,AUTO
        21 003705   200070 630500                    EPPR0   @POWER_OF_2+1,,AUTO
        21 003706   000000 631400 22                 EPPR1   0
        21 003707   000007 701000 21                 TSX1    s:14232
        21 003710   000000 011000                    NOP     0

      946    15106    4                CALL Z8AF$FORME (%CVDI, ROP, 0, ROP);

  15106 21 003711   200025 630500                    EPPR0   ROPCON,,AUTO
        21 003712   200073 450500                    STP0    @POWER_OF_2+4,,AUTO
        21 003713   000006 236000 22                 LDQ     6
        21 003714   200072 756100                    STQ     @POWER_OF_2+3,,AUTO
        21 003715   200025 631500                    EPPR1   ROPCON,,AUTO
        21 003716   200071 451500                    STP1    @POWER_OF_2+2,,AUTO
        21 003717   000046 236000 22                 LDQ     38
        21 003720   200070 756100                    STQ     @POWER_OF_2+1,,AUTO
        21 003721   200070 630500                    EPPR0   @POWER_OF_2+1,,AUTO
PL6.E3A0      #001=Z8AF$FORME_ON_SIZE File=Z8AF.:Z8A6TSI                         SAT 08/09/97 10:43 Page:173
        21 003722   000000 631400 22                 EPPR1   0
        21 003723   000007 701000 21                 TSX1    s:14232
        21 003724   000000 011000                    NOP     0

      947    15107    4                LOP = LOP -> ETT.LOP;

  15107 21 003725   200022 470500                    LDP0    LOP,,AUTO
        21 003726   000001 236100                    LDQ     1,,PR0
        21 003727   200022 756100                    STQ     LOP,,AUTO

      948    15108    4                IF LOP -> ETT.ID = %SSOP THEN

  15108 21 003730   200022 470500                    LDP0    LOP,,AUTO
        21 003731   000000 220100                    LDX0    0,,PR0
        21 003732   000005 100003                    CMPX0   5,DU
        21 003733   003746 601000 21                 TNZ     s:15110

      949    15109    4                  CALL Z8AU$BYTE_TO_WORD_UNITS (LOP, TN, LOP);

  15109 21 003734   200022 631500                    EPPR1   LOP,,AUTO
        21 003735   200072 451500                    STP1    @POWER_OF_2+3,,AUTO
        21 003736   200012 633500                    EPPR3   TN,,AUTO
        21 003737   200071 453500                    STP3    @POWER_OF_2+2,,AUTO
        21 003740   200022 634500                    EPPR4   LOP,,AUTO
        21 003741   200070 454500                    STP4    @POWER_OF_2+1,,AUTO
        21 003742   200070 630500                    EPPR0   @POWER_OF_2+1,,AUTO
        21 003743   000047 631400 22                 EPPR1   39
        21 003744   000000 701000 xent               TSX1    Z8AU$BYTE_TO_WORD_UNITS
        21 003745   000000 011000                    NOP     0

      950    15110    4                ID = %CMPI;

  15110 21 003746   000106 235007                    LDA     70,DL
        21 003747   200003 470500                    LDP0    @ID,,AUTO
        21 003750   000000 755100                    STA     0,,PR0

      951    15111    4              END;
PL6.E3A0      #001=Z8AF$FORME_ON_SIZE File=Z8AF.:Z8A6TSI                         SAT 08/09/97 10:43 Page:174

      952    15112    3          END;

  15112 21 003751   005233 710000 21                 TRA     EXIT_WITH_NO_TRANSFORMATION

      953    15113    2        ELSE IF ROP -> ETT.ID = %CVID4 THEN

  15113 21 003752   200025 473500                    LDP3    ROPCON,,AUTO
        21 003753   300000 221100                    LDX1    0,,PR3
        21 003754   000126 101003                    CMPX1   86,DU
        21 003755   005233 601000 21                 TNZ     EXIT_WITH_NO_TRANSFORMATION

      954    15114    3   UUU:   DO;

  15114 21 003756                       UUU          null
      955    15115
      956    15116    3            CALL Z8AU$TYPE_DESCRIPTOR (LOP, TYPE_DESC);

  15116 21 003756   200026 634500                    EPPR4   TYPE_DESC,,AUTO
        21 003757   200071 454500                    STP4    @POWER_OF_2+2,,AUTO
        21 003760   200022 635500                    EPPR5   LOP,,AUTO
        21 003761   200070 455500                    STP5    @POWER_OF_2+1,,AUTO
        21 003762   200070 630500                    EPPR0   @POWER_OF_2+1,,AUTO
        21 003763   000002 631400 22                 EPPR1   2
        21 003764   000000 701000 xent               TSX1    Z8AU$TYPE_DESCRIPTOR
        21 003765   000000 011000                    NOP     0

      957    15117
      958    15118                 %UNPACK_NDSC (@DESC   = TYPE_DESC.DESC,
      959    15119                               @TYPE   = TYPE_DESC.TYPE,
      960    15120                               @TN     = TN,
      961    15121                               @SCALE  = SCALE,
      962    15122                               @LENGTH = LENGTH);

  15129 21 003766   200027 236100                    LDQ     TYPE_DESC+1,,AUTO
        21 003767   000014 772000                    QRL     12
        21 003770   000003 376007                    ANQ     3,DL
PL6.E3A0      #001=Z8AF$FORME_ON_SIZE File=Z8AF.:Z8A6TSI                         SAT 08/09/97 10:43 Page:175
        21 003771   000004 116007                    CMPQ    4,DL
        21 003772   003774 602006 21                 TNC     s:15129+6,QL
        21 003773   004052 710000 21                 TRA     s:15166
        21 003774   004036 710000 21                 TRA     s:15153
        21 003775   004004 710000 21                 TRA     s:15143
        21 003776   004004 710000 21                 TRA     s:15143
        21 003777   004000 710000 21                 TRA     s:15131

  15131 21 004000   200027 236100                    LDQ     TYPE_DESC+1,,AUTO
        21 004001   000077 376007                    ANQ     63,DL
        21 004002   200015 756100                    STQ     LENGTH,,AUTO
        21 004003   004052 710000 21                 TRA     s:15166

  15143 21 004004   200026 235100                    LDA     TYPE_DESC,,AUTO
        21 004005   000003 115007                    CMPA    3,DL
        21 004006   004013 601000 21                 TNZ     s:15145

  15144 21 004007   200027 236100                    LDQ     TYPE_DESC+1,,AUTO
        21 004010   000077 376007                    ANQ     63,DL
        21 004011   200015 756100                    STQ     LENGTH,,AUTO
        21 004012   004052 710000 21                 TRA     s:15166

  15145 21 004013   000000 115003                    CMPA    0,DU
        21 004014   004022 601000 21                 TNZ     s:15147

  15146 21 004015   200027 236100                    LDQ     TYPE_DESC+1,,AUTO
        21 004016   000077 376007                    ANQ     63,DL
        21 004017   000001 136007                    SBLQ    1,DL
        21 004020   200015 756100                    STQ     LENGTH,,AUTO
        21 004021   004052 710000 21                 TRA     s:15166

  15147 21 004022   200027 236100                    LDQ     TYPE_DESC+1,,AUTO
        21 004023   040000 316007                    CANQ    16384,DL
        21 004024   004031 600000 21                 TZE     s:15150

  15148 21 004025   200027 236100                    LDQ     TYPE_DESC+1,,AUTO
        21 004026   000077 376007                    ANQ     63,DL
PL6.E3A0      #001=Z8AF$FORME_ON_SIZE File=Z8AF.:Z8A6TSI                         SAT 08/09/97 10:43 Page:176
        21 004027   200015 756100                    STQ     LENGTH,,AUTO
        21 004030   004052 710000 21                 TRA     s:15166

  15150 21 004031   200027 236100                    LDQ     TYPE_DESC+1,,AUTO
        21 004032   000077 376007                    ANQ     63,DL
        21 004033   000001 136007                    SBLQ    1,DL
        21 004034   200015 756100                    STQ     LENGTH,,AUTO
        21 004035   004052 710000 21                 TRA     s:15166

  15153 21 004036   200027 236100                    LDQ     TYPE_DESC+1,,AUTO
        21 004037   040000 316007                    CANQ    16384,DL
        21 004040   004046 600000 21                 TZE     s:15156

  15154 21 004041   200027 236100                    LDQ     TYPE_DESC+1,,AUTO
        21 004042   000077 376007                    ANQ     63,DL
        21 004043   000003 136007                    SBLQ    3,DL
        21 004044   200015 756100                    STQ     LENGTH,,AUTO
        21 004045   004052 710000 21                 TRA     s:15166

  15156 21 004046   200027 236100                    LDQ     TYPE_DESC+1,,AUTO
        21 004047   000077 376007                    ANQ     63,DL
        21 004050   000002 136007                    SBLQ    2,DL
        21 004051   200015 756100                    STQ     LENGTH,,AUTO

  15166 21 004052   200027 236100                    LDQ     TYPE_DESC+1,,AUTO
        21 004053   000025 736000                    QLS     21
        21 004054   400000 376003                    ANQ     -131072,DU
        21 004055   200012 756100                    STQ     TN,,AUTO

  15169 21 004056   200027 236100                    LDQ     TYPE_DESC+1,,AUTO
        21 004057   000030 736000                    QLS     24
        21 004060   000036 732000                    QRS     30
        21 004061   200014 756100                    STQ     SCALE,,AUTO

      963    15177    3            IF SCALE = 0 AND LENGTH <= 11 THEN

  15177 21 004062   005233 601000 21                 TNZ     EXIT_WITH_NO_TRANSFORMATION
PL6.E3A0      #001=Z8AF$FORME_ON_SIZE File=Z8AF.:Z8A6TSI                         SAT 08/09/97 10:43 Page:177
        21 004063   200015 235100                    LDA     LENGTH,,AUTO
        21 004064   000013 115007                    CMPA    11,DL
        21 004065   005233 605400 21                 TPNZ    EXIT_WITH_NO_TRANSFORMATION

      964    15178    4              DO;

      965    15179    4                IF ID = %CMPO THEN

  15179 21 004066   200003 470500                    LDP0    @ID,,AUTO
        21 004067   000000 235100                    LDA     0,,PR0
        21 004070   000170 115007                    CMPA    120,DL
        21 004071   004106 601000 21                 TNZ     s:15181

      966    15180    4                  CALL Z8AF$FORME (%CVOD4, LOP, 0, LOP);

  15180 21 004072   200022 631500                    EPPR1   LOP,,AUTO
        21 004073   200073 451500                    STP1    @POWER_OF_2+4,,AUTO
        21 004074   000006 236000 22                 LDQ     6
        21 004075   200072 756100                    STQ     @POWER_OF_2+3,,AUTO
        21 004076   200022 633500                    EPPR3   LOP,,AUTO
        21 004077   200071 453500                    STP3    @POWER_OF_2+2,,AUTO
        21 004100   000044 236000 22                 LDQ     36
        21 004101   200070 756100                    STQ     @POWER_OF_2+1,,AUTO
        21 004102   200070 630500                    EPPR0   @POWER_OF_2+1,,AUTO
        21 004103   000000 631400 22                 EPPR1   0
        21 004104   000007 701000 21                 TSX1    s:14232
        21 004105   000000 011000                    NOP     0

      967    15181    4                CALL Z8AF$FORME (%CVDI, LOP, 0, LOP);

  15181 21 004106   200022 630500                    EPPR0   LOP,,AUTO
        21 004107   200073 450500                    STP0    @POWER_OF_2+4,,AUTO
        21 004110   000006 236000 22                 LDQ     6
        21 004111   200072 756100                    STQ     @POWER_OF_2+3,,AUTO
        21 004112   200022 631500                    EPPR1   LOP,,AUTO
        21 004113   200071 451500                    STP1    @POWER_OF_2+2,,AUTO
        21 004114   000046 236000 22                 LDQ     38
PL6.E3A0      #001=Z8AF$FORME_ON_SIZE File=Z8AF.:Z8A6TSI                         SAT 08/09/97 10:43 Page:178
        21 004115   200070 756100                    STQ     @POWER_OF_2+1,,AUTO
        21 004116   200070 630500                    EPPR0   @POWER_OF_2+1,,AUTO
        21 004117   000000 631400 22                 EPPR1   0
        21 004120   000007 701000 21                 TSX1    s:14232
        21 004121   000000 011000                    NOP     0

      968    15182    4                ROP = ROP -> ETT.LOP;

  15182 21 004122   200025 470500                    LDP0    ROPCON,,AUTO
        21 004123   000001 236100                    LDQ     1,,PR0
        21 004124   200025 756100                    STQ     ROPCON,,AUTO

      969    15183    4                IF ROP -> ETT.ID = %SSOP THEN

  15183 21 004125   200025 470500                    LDP0    ROPCON,,AUTO
        21 004126   000000 220100                    LDX0    0,,PR0
        21 004127   000005 100003                    CMPX0   5,DU
        21 004130   004143 601000 21                 TNZ     s:15185

      970    15184    4                  CALL Z8AU$BYTE_TO_WORD_UNITS (ROP, TN, ROP);

  15184 21 004131   200025 631500                    EPPR1   ROPCON,,AUTO
        21 004132   200072 451500                    STP1    @POWER_OF_2+3,,AUTO
        21 004133   200012 633500                    EPPR3   TN,,AUTO
        21 004134   200071 453500                    STP3    @POWER_OF_2+2,,AUTO
        21 004135   200025 634500                    EPPR4   ROPCON,,AUTO
        21 004136   200070 454500                    STP4    @POWER_OF_2+1,,AUTO
        21 004137   200070 630500                    EPPR0   @POWER_OF_2+1,,AUTO
        21 004140   000047 631400 22                 EPPR1   39
        21 004141   000000 701000 xent               TSX1    Z8AU$BYTE_TO_WORD_UNITS
        21 004142   000000 011000                    NOP     0

      971    15185    4                ID = %CMPI;

  15185 21 004143   000106 235007                    LDA     70,DL
        21 004144   200003 470500                    LDP0    @ID,,AUTO
        21 004145   000000 755100                    STA     0,,PR0
PL6.E3A0      #001=Z8AF$FORME_ON_SIZE File=Z8AF.:Z8A6TSI                         SAT 08/09/97 10:43 Page:179

      972    15186    4              END;

      973    15187    3          END;

  15187 21 004146   005233 710000 21                 TRA     EXIT_WITH_NO_TRANSFORMATION

      974    15188
      975    15189        %EJECT;
PL6.E3A0      #001=Z8AF$FORME_ON_SIZE File=Z8AF.:Z8A6TSI                         SAT 08/09/97 10:43 Page:180
      976    15190    2   CASE(%CVID4) ;

      977    15191
      978    15192    3        IF LOP->ETT.ID = %TRIAD THEN DO ;

  15192 21 004147   200022 471500                    LDP1    LOP,,AUTO
        21 004150   100000 220100                    LDX0    0,,PR1
        21 004151   000015 100003                    CMPX0   13,DU
        21 004152   005233 601000 21                 TNZ     EXIT_WITH_NO_TRANSFORMATION

      979    15193
      980    15194    3          DNT$$ = LOP -> ETT.LOP -> CONST.DNT$ ;

  15194 21 004153   100001 473500                    LDP3    1,,PR1
        21 004154   300006 236100                    LDQ     6,,PR3
        21 004155   200033 756100                    STQ     DNT$$,,AUTO

      981    15195
      982    15196    4          IF DNT$$ ~= ADDR (NIL) THEN DO ;

  15196 21 004156   000003 116000 22                 CMPQ    3
        21 004157   005233 600000 21                 TZE     EXIT_WITH_NO_TRANSFORMATION

  15186 21 004160                       WW           null
      983    15197    4   WW: ;
      984    15198    4            LX_TERMINAL$ = ADDR (LX_NUMBER) ;

  15198 21 004160   200056 634500                    EPPR4   LX_NUMBER,,AUTO
        21 004161   200034 454500                    STP4    LX_TERMINAL$,,AUTO

      985    15199    4            IF DNT$$ -> DNT.B.RW

  15199 21 004162   200033 473500                    LDP3    DNT$$,,AUTO
        21 004163   300003 234100                    SZN     3,,PR3
        21 004164   004171 605000 21                 TPL     s:15201

      986    15200    4            THEN SYMBOL = DNT$$ -> DNT.RW_NO ;
PL6.E3A0      #001=Z8AF$FORME_ON_SIZE File=Z8AF.:Z8A6TSI                         SAT 08/09/97 10:43 Page:181

  15200 21 004165   300003 236100                    LDQ     3,,PR3
        21 004166   777777 376007                    ANQ     -1,DL
        21 004167   200021 756100                    STQ     SYMBOL,,AUTO
        21 004170   004173 710000 21                 TRA     s:15206

      987    15201    4            ELSE SYMBOL = %NUMERIC_LITERAL ;

  15201 21 004171   000026 235007                    LDA     22,DL
        21 004172   200021 755100                    STA     SYMBOL,,AUTO

      988    15202                 %INIT_LX_TERMINAL (@SYMBOL = SYMBOL,
      989    15203                                    @DNT$   = DNT$$,
      990    15204                                    @POINTER= LX_TERMINAL$) ;

  15206 21 004173   000000 220003                    LDX0    0,DU
        21 004174   400000 740100                    STX0    0,,PR4

  15207 21 004175   000000 221003                    LDX1    0,DU
        21 004176   200034 471500                    LDP1    LX_TERMINAL$,,AUTO
        21 004177   100000 441100                    SXL1    0,,PR1

  15211 21 004200   000015 235007                    LDA     13,DL
        21 004201   200034 471500                    LDP1    LX_TERMINAL$,,AUTO
        21 004202   100004 755100                    STA     4,,PR1

  15213 21 004203   000003 236000 22                 LDQ     3
        21 004204   200034 471500                    LDP1    LX_TERMINAL$,,AUTO
        21 004205   100007 756100                    STQ     7,,PR1

  15215 21 004206   200034 471500                    LDP1    LX_TERMINAL$,,AUTO
        21 004207   100001 756100                    STQ     1,,PR1

  15216 21 004210   200021 236100                    LDQ     SYMBOL,,AUTO
        21 004211   200034 471500                    LDP1    LX_TERMINAL$,,AUTO
        21 004212   100003 756100                    STQ     3,,PR1

PL6.E3A0      #001=Z8AF$FORME_ON_SIZE File=Z8AF.:Z8A6TSI                         SAT 08/09/97 10:43 Page:182
  15217 21 004213   200033 236100                    LDQ     DNT$$,,AUTO
        21 004214   200034 471500                    LDP1    LX_TERMINAL$,,AUTO
        21 004215   100002 756100                    STQ     2,,PR1

  15218 21 004216   000133 235000 xsym               LDA     COMCOM+91
        21 004217   200034 471500                    LDP1    LX_TERMINAL$,,AUTO
        21 004220   100005 755100                    STA     5,,PR1

  15219 21 004221   000134 235000 xsym               LDA     COMCOM+92
        21 004222   200034 471500                    LDP1    LX_TERMINAL$,,AUTO
        21 004223   100006 755100                    STA     6,,PR1

      991    15222
      992    15223    4            CALL Z8EC$CREATE_CONST (%TYD, LX_TERMINAL$, RESULT$) ;

  15223 21 004224   200006 236100                    LDQ     @RESULT$,,AUTO
        21 004225   200072 756100                    STQ     @POWER_OF_2+3,,AUTO
        21 004226   200034 631500                    EPPR1   LX_TERMINAL$,,AUTO
        21 004227   200071 451500                    STP1    @POWER_OF_2+2,,AUTO
        21 004230   000006 236000 22                 LDQ     6
        21 004231   200070 756100                    STQ     @POWER_OF_2+1,,AUTO
        21 004232   200070 630500                    EPPR0   @POWER_OF_2+1,,AUTO
        21 004233   000047 631400 22                 EPPR1   39
        21 004234   000000 701000 xent               TSX1    Z8EC$CREATE_CONST
        21 004235   000000 011000                    NOP     0

      993    15224
      994    15225    4            GOTO EXIT_WITH_TRANSFORMATION ;

  15225 21 004236   007404 710000 21                 TRA     EXIT_WITH_TRANSFORMATION

      995    15226
      996    15227    4          END ; /* DNT$$ <> Nil */
      997    15228
      998    15229    3        END ; /* CVID4's operand is a constant */
      999    15230
     1000    15231        %EJECT;
PL6.E3A0      #001=Z8AF$FORME_ON_SIZE File=Z8AF.:Z8A6TSI                         SAT 08/09/97 10:43 Page:183
     1001    15232    2   CASE(%CVDI) ;

     1002    15233
     1003    15234    2        IF LOP -> ETT.ID = %CVDSF

  15234 21 004237   200022 471500                    LDP1    LOP,,AUTO
        21 004240   100000 220100                    LDX0    0,,PR1
        21 004241   000037 100003                    CMPX0   31,DU
        21 004242   004246 601000 21                 TNZ     s:15236

     1004    15235    2        THEN LOPLOP = LOP -> ETT.LOP ;

  15235 21 004243   100001 236100                    LDQ     1,,PR1
        21 004244   200023 756100                    STQ     LOPLOP,,AUTO
        21 004245   004250 710000 21                 TRA     s:15238

     1005    15236    2        ELSE LOPLOP = LOP ;

  15236 21 004246   200022 236100                    LDQ     LOP,,AUTO
        21 004247   200023 756100                    STQ     LOPLOP,,AUTO

     1006    15237
     1007    15238    3        DO CASE (LOPLOP -> ETT.ID) ;

  15238 21 004250   200023 473500                    LDP3    LOPLOP,,AUTO
        21 004251   300000 236100                    LDQ     0,,PR3
        21 004252   000022 772000                    QRL     18
        21 004253   000015 136007                    SBLQ    13,DL
        21 004254   000112 116007                    CMPQ    74,DL
        21 004255   004257 602006 21                 TNC     s:15238+7,QL
        21 004256   005233 710000 21                 TRA     EXIT_WITH_NO_TRANSFORMATION
        21 004257   004606 710000 21                 TRA     s:15285
        21 004260   004672 710000 21                 TRA     s:15320
        21 004261   004672 710000 21                 TRA     s:15320
        21 004262   004672 710000 21                 TRA     s:15320
        21 004263   004672 710000 21                 TRA     s:15320
        21 004264   004672 710000 21                 TRA     s:15320
PL6.E3A0      #001=Z8AF$FORME_ON_SIZE File=Z8AF.:Z8A6TSI                         SAT 08/09/97 10:43 Page:184
        21 004265   004672 710000 21                 TRA     s:15320
        21 004266   004672 710000 21                 TRA     s:15320
        21 004267   004672 710000 21                 TRA     s:15320
        21 004270   004672 710000 21                 TRA     s:15320
        21 004271   004672 710000 21                 TRA     s:15320
        21 004272   004672 710000 21                 TRA     s:15320
        21 004273   004672 710000 21                 TRA     s:15320
        21 004274   004672 710000 21                 TRA     s:15320
        21 004275   004672 710000 21                 TRA     s:15320
        21 004276   004672 710000 21                 TRA     s:15320
        21 004277   004672 710000 21                 TRA     s:15320
        21 004300   004505 710000 21                 TRA     s:15270
        21 004301   004672 710000 21                 TRA     s:15320
        21 004302   004672 710000 21                 TRA     s:15320
        21 004303   004672 710000 21                 TRA     s:15320
        21 004304   004672 710000 21                 TRA     s:15320
        21 004305   004672 710000 21                 TRA     s:15320
        21 004306   004672 710000 21                 TRA     s:15320
        21 004307   004672 710000 21                 TRA     s:15320
        21 004310   004672 710000 21                 TRA     s:15320
        21 004311   004672 710000 21                 TRA     s:15320
        21 004312   004672 710000 21                 TRA     s:15320
        21 004313   004672 710000 21                 TRA     s:15320
        21 004314   004672 710000 21                 TRA     s:15320
        21 004315   004371 710000 21                 TRA     s:15240
        21 004316   004672 710000 21                 TRA     s:15320
        21 004317   004371 710000 21                 TRA     s:15240
        21 004320   004672 710000 21                 TRA     s:15320
        21 004321   004371 710000 21                 TRA     s:15240
        21 004322   004672 710000 21                 TRA     s:15320
        21 004323   004371 710000 21                 TRA     s:15240
        21 004324   004672 710000 21                 TRA     s:15320
        21 004325   004371 710000 21                 TRA     s:15240
        21 004326   004672 710000 21                 TRA     s:15320
        21 004327   004672 710000 21                 TRA     s:15320
        21 004330   004672 710000 21                 TRA     s:15320
        21 004331   004672 710000 21                 TRA     s:15320
PL6.E3A0      #001=Z8AF$FORME_ON_SIZE File=Z8AF.:Z8A6TSI                         SAT 08/09/97 10:43 Page:185
        21 004332   004672 710000 21                 TRA     s:15320
        21 004333   004672 710000 21                 TRA     s:15320
        21 004334   004672 710000 21                 TRA     s:15320
        21 004335   004672 710000 21                 TRA     s:15320
        21 004336   004672 710000 21                 TRA     s:15320
        21 004337   004672 710000 21                 TRA     s:15320
        21 004340   004672 710000 21                 TRA     s:15320
        21 004341   004672 710000 21                 TRA     s:15320
        21 004342   004672 710000 21                 TRA     s:15320
        21 004343   004672 710000 21                 TRA     s:15320
        21 004344   004672 710000 21                 TRA     s:15320
        21 004345   004672 710000 21                 TRA     s:15320
        21 004346   004672 710000 21                 TRA     s:15320
        21 004347   004672 710000 21                 TRA     s:15320
        21 004350   004672 710000 21                 TRA     s:15320
        21 004351   004672 710000 21                 TRA     s:15320
        21 004352   004672 710000 21                 TRA     s:15320
        21 004353   004672 710000 21                 TRA     s:15320
        21 004354   004672 710000 21                 TRA     s:15320
        21 004355   004672 710000 21                 TRA     s:15320
        21 004356   004672 710000 21                 TRA     s:15320
        21 004357   004672 710000 21                 TRA     s:15320
        21 004360   004672 710000 21                 TRA     s:15320
        21 004361   004672 710000 21                 TRA     s:15320
        21 004362   004672 710000 21                 TRA     s:15320
        21 004363   004672 710000 21                 TRA     s:15320
        21 004364   004672 710000 21                 TRA     s:15320
        21 004365   004672 710000 21                 TRA     s:15320
        21 004366   004672 710000 21                 TRA     s:15320
        21 004367   004672 710000 21                 TRA     s:15320
        21 004370   004505 710000 21                 TRA     s:15270

     1008    15239    3          CASE (%ADD, %SBD, %MPD, %DVD, %DVDR) ;

     1009    15240    3            CALL Z8AU$TYPE_DESCRIPTOR (LOPLOP -> ETT.ROP, TYPE_DESC) ;

  15240 21 004371   200026 634500                    EPPR4   TYPE_DESC,,AUTO
PL6.E3A0      #001=Z8AF$FORME_ON_SIZE File=Z8AF.:Z8A6TSI                         SAT 08/09/97 10:43 Page:186
        21 004372   200071 454500                    STP4    @POWER_OF_2+2,,AUTO
        21 004373   200023 236100                    LDQ     LOPLOP,,AUTO
        21 004374   000002 036003                    ADLQ    2,DU
        21 004375   200070 756100                    STQ     @POWER_OF_2+1,,AUTO
        21 004376   200070 630500                    EPPR0   @POWER_OF_2+1,,AUTO
        21 004377   000002 631400 22                 EPPR1   2
        21 004400   000000 701000 xent               TSX1    Z8AU$TYPE_DESCRIPTOR
        21 004401   000000 011000                    NOP     0

     1010    15241
     1011    15242    3            IF  ON_SIZE = '0'B

  15242 21 004402   200020 234100                    SZN     ON_SIZE,,AUTO
        21 004403   005233 604000 21                 TMI     EXIT_WITH_NO_TRANSFORMATION
        21 004404   200027 236100                    LDQ     TYPE_DESC+1,,AUTO
        21 004405   007700 316007                    CANQ    4032,DL
        21 004406   005233 601000 21                 TNZ     EXIT_WITH_NO_TRANSFORMATION
        21 004407   030000 316007                    CANQ    12288,DL
        21 004410   005233 600000 21                 TZE     EXIT_WITH_NO_TRANSFORMATION
        21 004411   200023 470500                    LDP0    LOPLOP,,AUTO
        21 004412   000001 471500                    LDP1    1,,PR0
        21 004413   100000 220100                    LDX0    0,,PR1
        21 004414   000126 100003                    CMPX0   86,DU
        21 004415   005233 601000 21                 TNZ     EXIT_WITH_NO_TRANSFORMATION
        21 004416   100001 473500                    LDP3    1,,PR1
        21 004417   300000 221100                    LDX1    0,,PR3
        21 004420   000005 101003                    CMPX1   5,DU
        21 004421   005233 600000 21                 TZE     EXIT_WITH_NO_TRANSFORMATION

     1012    15243    3            AND TYPE_DESC.DESC.NDSC.SF = 0
     1013    15244    3            AND TYPE_DESC.DESC.NDSC.S  ~= '00'B /* Float */
     1014    15245    3            AND LOPLOP -> ETT.LOP -> ETT.ID = %CVID4
     1015    15246    4            AND LOPLOP -> ETT.LOP -> ETT.LOP -> ETT.ID ~= %SSOP THEN DO ;

  15246 21 004422                       XX           null
     1016    15247    4   XX: ;
     1017    15248    4              CALL Z8AF$FORME (%CVDI, LOPLOP -> ETT.ROP, 0, RESULT$) ;
PL6.E3A0      #001=Z8AF$FORME_ON_SIZE File=Z8AF.:Z8A6TSI                         SAT 08/09/97 10:43 Page:187

  15248 21 004422   200006 236100                    LDQ     @RESULT$,,AUTO
        21 004423   000006 235000 22                 LDA     6
        21 004424   200072 757100                    STAQ    @POWER_OF_2+3,,AUTO
        21 004425   200023 236100                    LDQ     LOPLOP,,AUTO
        21 004426   000002 036003                    ADLQ    2,DU
        21 004427   000046 235000 22                 LDA     38
        21 004430   200070 757100                    STAQ    @POWER_OF_2+1,,AUTO
        21 004431   200070 630500                    EPPR0   @POWER_OF_2+1,,AUTO
        21 004432   000000 631400 22                 EPPR1   0
        21 004433   000007 701000 21                 TSX1    s:14232
        21 004434   000000 011000                    NOP     0

     1018    15249
     1019    15250    5              DO CASE (LOPLOP -> ETT.ID) ;

  15250 21 004435   200023 470500                    LDP0    LOPLOP,,AUTO
        21 004436   000000 236100                    LDQ     0,,PR0
        21 004437   000022 772000                    QRL     18
        21 004440   000053 136007                    SBLQ    43,DL
        21 004441   000011 116007                    CMPQ    9,DL
        21 004442   004444 602006 21                 TNC     s:15250+7,QL
        21 004443   004470 710000 21                 TRA     s:15261
        21 004444   004455 710000 21                 TRA     s:15252
        21 004445   004470 710000 21                 TRA     s:15261
        21 004446   004460 710000 21                 TRA     s:15254
        21 004447   004470 710000 21                 TRA     s:15261
        21 004450   004463 710000 21                 TRA     s:15256
        21 004451   004470 710000 21                 TRA     s:15261
        21 004452   004466 710000 21                 TRA     s:15258
        21 004453   004470 710000 21                 TRA     s:15261
        21 004454   004466 710000 21                 TRA     s:15258

     1020    15251    5                CASE (%ADD) ;

     1021    15252    5                  NEW_ID = %ADI ;

PL6.E3A0      #001=Z8AF$FORME_ON_SIZE File=Z8AF.:Z8A6TSI                         SAT 08/09/97 10:43 Page:188
  15252 21 004455   000054 235007                    LDA     44,DL
        21 004456   200045 755100                    STA     NEW_ID,,AUTO
        21 004457   004470 710000 21                 TRA     s:15261

     1022    15253    5                CASE (%SBD) ;

     1023    15254    5                  NEW_ID = %SBI ;

  15254 21 004460   000056 235007                    LDA     46,DL
        21 004461   200045 755100                    STA     NEW_ID,,AUTO
        21 004462   004470 710000 21                 TRA     s:15261

     1024    15255    5                CASE (%MPD) ;

     1025    15256    5                  NEW_ID = %MPI ;

  15256 21 004463   000060 235007                    LDA     48,DL
        21 004464   200045 755100                    STA     NEW_ID,,AUTO
        21 004465   004470 710000 21                 TRA     s:15261

     1026    15257    5                CASE (%DVD, %DVDR) ;

     1027    15258    5                  NEW_ID = %DVI ;

  15258 21 004466   000062 235007                    LDA     50,DL
        21 004467   200045 755100                    STA     NEW_ID,,AUTO

     1028    15259    5              END ; /* Case of LOPLOPs ID */

     1029    15260
     1030    15261    4              CALL Z8AF$FORME (NEW_ID,

  15261 21 004470   000001 471500                    LDP1    1,,PR0
        21 004471   200006 236100                    LDQ     @RESULT$,,AUTO
        21 004472   200006 235100                    LDA     @RESULT$,,AUTO
        21 004473   200072 757100                    STAQ    @POWER_OF_2+3,,AUTO
        21 004474   100001 633500                    EPPR3   1,,PR1
PL6.E3A0      #001=Z8AF$FORME_ON_SIZE File=Z8AF.:Z8A6TSI                         SAT 08/09/97 10:43 Page:189
        21 004475   200071 453500                    STP3    @POWER_OF_2+2,,AUTO
        21 004476   200045 631500                    EPPR1   NEW_ID,,AUTO
        21 004477   200070 451500                    STP1    @POWER_OF_2+1,,AUTO
        21 004500   200070 630500                    EPPR0   @POWER_OF_2+1,,AUTO
        21 004501   000000 631400 22                 EPPR1   0
        21 004502   000007 701000 21                 TSX1    s:14232
        21 004503   000000 011000                    NOP     0

     1031    15262    4                               LOPLOP -> ETT.LOP -> ETT.LOP,
     1032    15263    4                               RESULT$, /* CVDI */
     1033    15264    4                               RESULT$) ;
     1034    15265    4              GOTO EXIT_WITH_TRANSFORMATION ;

  15265 21 004504   007404 710000 21                 TRA     EXIT_WITH_TRANSFORMATION

     1035    15266
     1036    15267    4            END ; /* IF LOPLOP's LOP is a CVID */
     1037    15268
     1038    15269    3          CASE (%CVID4, %CVID9);

     1039    15270    3            IF LOPLOP -> ETT.LOP -> ETT.ID = %SSOP THEN

  15270 21 004505   300001 474500                    LDP4    1,,PR3
        21 004506   400000 221100                    LDX1    0,,PR4
        21 004507   000005 101003                    CMPX1   5,DU
        21 004510   004602 601000 21                 TNZ     s:15281

     1040    15271    4              DO;

     1041    15272    4                MKCN.CON = 4;

  15272 21 004511   000004 235007                    LDA     4,DL
        21 004512   000000 755000 14                 STA     MKCN

     1042    15273    4                CALL Z8AC$MAKE_CONST(CONST$);

  15273 21 004513   200032 635500                    EPPR5   CONST$,,AUTO
PL6.E3A0      #001=Z8AF$FORME_ON_SIZE File=Z8AF.:Z8A6TSI                         SAT 08/09/97 10:43 Page:190
        21 004514   200070 455500                    STP5    @POWER_OF_2+1,,AUTO
        21 004515   200070 630500                    EPPR0   @POWER_OF_2+1,,AUTO
        21 004516   000001 631400 22                 EPPR1   1
        21 004517   000000 701000 xent               TSX1    Z8AC$MAKE_CONST
        21 004520   000000 011000                    NOP     0

     1043    15274    4                CALL Z8AF$FORME(%DVI, LOPLOP -> ETT.LOP -> ETT.ROP, CONST$, ROP);

  15274 21 004521   200023 470500                    LDP0    LOPLOP,,AUTO
        21 004522   000001 471500                    LDP1    1,,PR0
        21 004523   200025 633500                    EPPR3   ROPCON,,AUTO
        21 004524   200073 453500                    STP3    @POWER_OF_2+4,,AUTO
        21 004525   200032 634500                    EPPR4   CONST$,,AUTO
        21 004526   200072 454500                    STP4    @POWER_OF_2+3,,AUTO
        21 004527   100002 635500                    EPPR5   2,,PR1
        21 004530   200071 455500                    STP5    @POWER_OF_2+2,,AUTO
        21 004531   000036 236000 22                 LDQ     30
        21 004532   200070 756100                    STQ     @POWER_OF_2+1,,AUTO
        21 004533   200070 630500                    EPPR0   @POWER_OF_2+1,,AUTO
        21 004534   000000 631400 22                 EPPR1   0
        21 004535   000007 701000 21                 TSX1    s:14232
        21 004536   000000 011000                    NOP     0

     1044    15275    4                PACKED.OFFSET = LOPLOP -> ETT.LOP -> ETT.LOP -> ETT.OFFSET.VALUE / 4;

  15275 21 004537   200023 470500                    LDP0    LOPLOP,,AUTO
        21 004540   000001 471500                    LDP1    1,,PR0
        21 004541   100001 473500                    LDP3    1,,PR1
        21 004542   300002 236100                    LDQ     2,,PR3
        21 004543   000022 732000                    QRS     18
        21 004544   000004 506007                    DIV     4,DL
        21 004545   000000 620006                    EAX0    0,QL
        21 004546   200054 740100                    STX0    PACKED,,AUTO

     1045    15276    4                PACKED.TYPE = %WORD_;

  15276 21 004547   000006 221003                    LDX1    6,DU
PL6.E3A0      #001=Z8AF$FORME_ON_SIZE File=Z8AF.:Z8A6TSI                         SAT 08/09/97 10:43 Page:191
        21 004550   200054 441100                    SXL1    PACKED,,AUTO

     1046    15277    4                CALL Z8AF$FORME(%OFF, LOPLOP -> ETT.LOP -> ETT.LOP -> ETT.LOP, PACKED,
             15277                         RESULT$);

  15277 21 004551   000001 471500                    LDP1    1,,PR0
        21 004552   100001 473500                    LDP3    1,,PR1
        21 004553   200006 236100                    LDQ     @RESULT$,,AUTO
        21 004554   200073 756100                    STQ     @POWER_OF_2+4,,AUTO
        21 004555   200054 631500                    EPPR1   PACKED,,AUTO
        21 004556   200072 451500                    STP1    @POWER_OF_2+3,,AUTO
        21 004557   300001 634500                    EPPR4   1,,PR3
        21 004560   200071 454500                    STP4    @POWER_OF_2+2,,AUTO
        21 004561   000051 236000 22                 LDQ     41
        21 004562   200070 756100                    STQ     @POWER_OF_2+1,,AUTO
        21 004563   200070 630500                    EPPR0   @POWER_OF_2+1,,AUTO
        21 004564   000000 631400 22                 EPPR1   0
        21 004565   000007 701000 21                 TSX1    s:14232
        21 004566   000000 011000                    NOP     0

     1047    15278    4                CALL Z8AF$FORME(%SSOP, RESULT$, ROP, RESULT$);

  15278 21 004567   200006 236100                    LDQ     @RESULT$,,AUTO
        21 004570   200073 756100                    STQ     @POWER_OF_2+4,,AUTO
        21 004571   200025 630500                    EPPR0   ROPCON,,AUTO
        21 004572   200072 450500                    STP0    @POWER_OF_2+3,,AUTO
        21 004573   000053 235000 22                 LDA     43
        21 004574   200070 757100                    STAQ    @POWER_OF_2+1,,AUTO
        21 004575   200070 630500                    EPPR0   @POWER_OF_2+1,,AUTO
        21 004576   000000 631400 22                 EPPR1   0
        21 004577   000007 701000 21                 TSX1    s:14232
        21 004600   000000 011000                    NOP     0

     1048    15279    4              END;

  15279 21 004601   004605 710000 21                 TRA     s:15282

PL6.E3A0      #001=Z8AF$FORME_ON_SIZE File=Z8AF.:Z8A6TSI                         SAT 08/09/97 10:43 Page:192
     1049    15280    3            ELSE
     1050    15281    3              RESULT$ = LOPLOP -> ETT.LOP;

  15281 21 004602   300001 236100                    LDQ     1,,PR3
        21 004603   200006 475500                    LDP5    @RESULT$,,AUTO
        21 004604   500000 756100                    STQ     0,,PR5

     1051    15282    3            GOTO EXIT_WITH_TRANSFORMATION;

  15282 21 004605   007404 710000 21                 TRA     EXIT_WITH_TRANSFORMATION

     1052    15283
     1053    15284    3          CASE (%TRIAD) ;

     1054    15285    3            DNT$$ = LOPLOP -> ETT.LOP -> CONST.DNT$ ;

  15285 21 004606   300001 474500                    LDP4    1,,PR3
        21 004607   400006 236100                    LDQ     6,,PR4
        21 004610   200033 756100                    STQ     DNT$$,,AUTO

     1055    15286
     1056    15287    4            IF DNT$$ ~= ADDR (NIL) THEN DO ;

  15287 21 004611   000003 116000 22                 CMPQ    3
        21 004612   005233 600000 21                 TZE     EXIT_WITH_NO_TRANSFORMATION

     1057    15288    4   GGG:
     1058    15289    4              LX_TERMINAL$ = ADDR (LX_NUMBER) ;

  15289 21 004613   200056 635500       GGG          EPPR5   LX_NUMBER,,AUTO
        21 004614   200034 455500                    STP5    LX_TERMINAL$,,AUTO

     1059    15290    4              IF DNT$$ -> DNT.B.RW

  15290 21 004615   200033 474500                    LDP4    DNT$$,,AUTO
        21 004616   400003 234100                    SZN     3,,PR4
        21 004617   004624 605000 21                 TPL     s:15292
PL6.E3A0      #001=Z8AF$FORME_ON_SIZE File=Z8AF.:Z8A6TSI                         SAT 08/09/97 10:43 Page:193

     1060    15291    4              THEN SYMBOL = DNT$$ -> DNT.RW_NO ;

  15291 21 004620   400003 236100                    LDQ     3,,PR4
        21 004621   777777 376007                    ANQ     -1,DL
        21 004622   200021 756100                    STQ     SYMBOL,,AUTO
        21 004623   004626 710000 21                 TRA     s:15297

     1061    15292    4              ELSE SYMBOL = %NUMERIC_LITERAL ;

  15292 21 004624   000026 235007                    LDA     22,DL
        21 004625   200021 755100                    STA     SYMBOL,,AUTO

     1062    15293                   %INIT_LX_TERMINAL (@SYMBOL = SYMBOL,
     1063    15294                                      @DNT$   = DNT$$,
     1064    15295                                      @POINTER= LX_TERMINAL$) ;

  15297 21 004626   000000 220003                    LDX0    0,DU
        21 004627   500000 740100                    STX0    0,,PR5

  15298 21 004630   000000 221003                    LDX1    0,DU
        21 004631   200034 471500                    LDP1    LX_TERMINAL$,,AUTO
        21 004632   100000 441100                    SXL1    0,,PR1

  15302 21 004633   000015 235007                    LDA     13,DL
        21 004634   200034 471500                    LDP1    LX_TERMINAL$,,AUTO
        21 004635   100004 755100                    STA     4,,PR1

  15304 21 004636   000003 236000 22                 LDQ     3
        21 004637   200034 471500                    LDP1    LX_TERMINAL$,,AUTO
        21 004640   100007 756100                    STQ     7,,PR1

  15306 21 004641   200034 471500                    LDP1    LX_TERMINAL$,,AUTO
        21 004642   100001 756100                    STQ     1,,PR1

  15307 21 004643   200021 236100                    LDQ     SYMBOL,,AUTO
        21 004644   200034 471500                    LDP1    LX_TERMINAL$,,AUTO
PL6.E3A0      #001=Z8AF$FORME_ON_SIZE File=Z8AF.:Z8A6TSI                         SAT 08/09/97 10:43 Page:194
        21 004645   100003 756100                    STQ     3,,PR1

  15308 21 004646   200033 236100                    LDQ     DNT$$,,AUTO
        21 004647   200034 471500                    LDP1    LX_TERMINAL$,,AUTO
        21 004650   100002 756100                    STQ     2,,PR1

  15309 21 004651   000133 235000 xsym               LDA     COMCOM+91
        21 004652   200034 471500                    LDP1    LX_TERMINAL$,,AUTO
        21 004653   100005 755100                    STA     5,,PR1

  15310 21 004654   000134 235000 xsym               LDA     COMCOM+92
        21 004655   200034 471500                    LDP1    LX_TERMINAL$,,AUTO
        21 004656   100006 755100                    STA     6,,PR1

     1065    15313
     1066    15314    4              CALL Z8EC$CREATE_CONST (%TYI, LX_TERMINAL$, RESULT$) ;

  15314 21 004657   200006 236100                    LDQ     @RESULT$,,AUTO
        21 004660   200072 756100                    STQ     @POWER_OF_2+3,,AUTO
        21 004661   200034 631500                    EPPR1   LX_TERMINAL$,,AUTO
        21 004662   200071 451500                    STP1    @POWER_OF_2+2,,AUTO
        21 004663   000017 236000 22                 LDQ     15
        21 004664   200070 756100                    STQ     @POWER_OF_2+1,,AUTO
        21 004665   200070 630500                    EPPR0   @POWER_OF_2+1,,AUTO
        21 004666   000047 631400 22                 EPPR1   39
        21 004667   000000 701000 xent               TSX1    Z8EC$CREATE_CONST
        21 004670   000000 011000                    NOP     0

     1067    15315
     1068    15316    4              GOTO EXIT_WITH_TRANSFORMATION ;

  15316 21 004671   007404 710000 21                 TRA     EXIT_WITH_TRANSFORMATION

     1069    15317
     1070    15318    4            END ; /* DNT$$ <> Nil */
     1071    15319
     1072    15320    3        END ; /* Case of LOPLOP's ID */
PL6.E3A0      #001=Z8AF$FORME_ON_SIZE File=Z8AF.:Z8A6TSI                         SAT 08/09/97 10:43 Page:195

  15320 21 004672   005233 710000 21                 TRA     EXIT_WITH_NO_TRANSFORMATION

     1073    15321
     1074    15322        %EJECT;
PL6.E3A0      #001=Z8AF$FORME_ON_SIZE File=Z8AF.:Z8A6TSI                         SAT 08/09/97 10:43 Page:196
     1075    15323    2   CASE(%CVIR) ;

     1076    15324
     1077    15325    3        IF LOP->ETT.ID = %TRIAD THEN DO ;

  15325 21 004673   200022 471500                    LDP1    LOP,,AUTO
        21 004674   100000 220100                    LDX0    0,,PR1
        21 004675   000015 100003                    CMPX0   13,DU
        21 004676   005233 601000 21                 TNZ     EXIT_WITH_NO_TRANSFORMATION

     1078    15326
     1079    15327    3          DNT$$ = LOP -> ETT.LOP -> CONST.DNT$ ;

  15327 21 004677   100001 473500                    LDP3    1,,PR1
        21 004700   300006 236100                    LDQ     6,,PR3
        21 004701   200033 756100                    STQ     DNT$$,,AUTO

     1080    15328
     1081    15329    4          IF DNT$$ ~= ADDR (NIL) THEN DO ;

  15329 21 004702   000003 116000 22                 CMPQ    3
        21 004703   005233 600000 21                 TZE     EXIT_WITH_NO_TRANSFORMATION

  15325 21 004704                       AAA          null
     1082    15330    4   AAA: ;
     1083    15331    4            LX_TERMINAL$ = ADDR (LX_NUMBER) ;

  15331 21 004704   200056 634500                    EPPR4   LX_NUMBER,,AUTO
        21 004705   200034 454500                    STP4    LX_TERMINAL$,,AUTO

     1084    15332    4            IF DNT$$ -> DNT.B.RW

  15332 21 004706   200033 473500                    LDP3    DNT$$,,AUTO
        21 004707   300003 234100                    SZN     3,,PR3
        21 004710   004715 605000 21                 TPL     s:15334

     1085    15333    4            THEN SYMBOL = DNT$$ -> DNT.RW_NO ;
PL6.E3A0      #001=Z8AF$FORME_ON_SIZE File=Z8AF.:Z8A6TSI                         SAT 08/09/97 10:43 Page:197

  15333 21 004711   300003 236100                    LDQ     3,,PR3
        21 004712   777777 376007                    ANQ     -1,DL
        21 004713   200021 756100                    STQ     SYMBOL,,AUTO
        21 004714   004717 710000 21                 TRA     s:15339

     1086    15334    4            ELSE SYMBOL = %NUMERIC_LITERAL ;

  15334 21 004715   000026 235007                    LDA     22,DL
        21 004716   200021 755100                    STA     SYMBOL,,AUTO

     1087    15335                 %INIT_LX_TERMINAL (@SYMBOL = SYMBOL,
     1088    15336                                    @DNT$   = DNT$$,
     1089    15337                                    @POINTER= LX_TERMINAL$) ;

  15339 21 004717   000000 220003                    LDX0    0,DU
        21 004720   400000 740100                    STX0    0,,PR4

  15340 21 004721   000000 221003                    LDX1    0,DU
        21 004722   200034 471500                    LDP1    LX_TERMINAL$,,AUTO
        21 004723   100000 441100                    SXL1    0,,PR1

  15344 21 004724   000015 235007                    LDA     13,DL
        21 004725   200034 471500                    LDP1    LX_TERMINAL$,,AUTO
        21 004726   100004 755100                    STA     4,,PR1

  15346 21 004727   000003 236000 22                 LDQ     3
        21 004730   200034 471500                    LDP1    LX_TERMINAL$,,AUTO
        21 004731   100007 756100                    STQ     7,,PR1

  15348 21 004732   200034 471500                    LDP1    LX_TERMINAL$,,AUTO
        21 004733   100001 756100                    STQ     1,,PR1

  15349 21 004734   200021 236100                    LDQ     SYMBOL,,AUTO
        21 004735   200034 471500                    LDP1    LX_TERMINAL$,,AUTO
        21 004736   100003 756100                    STQ     3,,PR1

PL6.E3A0      #001=Z8AF$FORME_ON_SIZE File=Z8AF.:Z8A6TSI                         SAT 08/09/97 10:43 Page:198
  15350 21 004737   200033 236100                    LDQ     DNT$$,,AUTO
        21 004740   200034 471500                    LDP1    LX_TERMINAL$,,AUTO
        21 004741   100002 756100                    STQ     2,,PR1

  15351 21 004742   000133 235000 xsym               LDA     COMCOM+91
        21 004743   200034 471500                    LDP1    LX_TERMINAL$,,AUTO
        21 004744   100005 755100                    STA     5,,PR1

  15352 21 004745   000134 235000 xsym               LDA     COMCOM+92
        21 004746   200034 471500                    LDP1    LX_TERMINAL$,,AUTO
        21 004747   100006 755100                    STA     6,,PR1

     1090    15355
     1091    15356    4            CALL Z8EC$CREATE_CONST (%TYR, LX_TERMINAL$, RESULT$) ;

  15356 21 004750   200006 236100                    LDQ     @RESULT$,,AUTO
        21 004751   200072 756100                    STQ     @POWER_OF_2+3,,AUTO
        21 004752   200034 631500                    EPPR1   LX_TERMINAL$,,AUTO
        21 004753   200071 451500                    STP1    @POWER_OF_2+2,,AUTO
        21 004754   000055 236000 22                 LDQ     45
        21 004755   200070 756100                    STQ     @POWER_OF_2+1,,AUTO
        21 004756   200070 630500                    EPPR0   @POWER_OF_2+1,,AUTO
        21 004757   000047 631400 22                 EPPR1   39
        21 004760   000000 701000 xent               TSX1    Z8EC$CREATE_CONST
        21 004761   000000 011000                    NOP     0

     1092    15357
     1093    15358    4            GOTO EXIT_WITH_TRANSFORMATION ;

  15358 21 004762   007404 710000 21                 TRA     EXIT_WITH_TRANSFORMATION

     1094    15359
     1095    15360    4          END ; /* DNT$$ <> Nil */
     1096    15361
     1097    15362    3        END ; /* CVIR's operand is a constant */
     1098    15363
     1099    15364    2   CASE(%CVIQ) ;
PL6.E3A0      #001=Z8AF$FORME_ON_SIZE File=Z8AF.:Z8A6TSI                         SAT 08/09/97 10:43 Page:199

     1100    15365
     1101    15366    3        IF LOP->ETT.ID = %TRIAD THEN DO ;

  15366 21 004763   200022 471500                    LDP1    LOP,,AUTO
        21 004764   100000 220100                    LDX0    0,,PR1
        21 004765   000015 100003                    CMPX0   13,DU
        21 004766   005233 601000 21                 TNZ     EXIT_WITH_NO_TRANSFORMATION

     1102    15367
     1103    15368    3          DNT$$ = LOP -> ETT.LOP -> CONST.DNT$ ;

  15368 21 004767   100001 473500                    LDP3    1,,PR1
        21 004770   300006 236100                    LDQ     6,,PR3
        21 004771   200033 756100                    STQ     DNT$$,,AUTO

     1104    15369
     1105    15370    4          IF DNT$$ ~= ADDR (NIL) THEN DO ;

  15370 21 004772   000003 116000 22                 CMPQ    3
        21 004773   005233 600000 21                 TZE     EXIT_WITH_NO_TRANSFORMATION

  15358 21 004774                       BBB          null
     1106    15371    4   BBB: ;
     1107    15372    4            LX_TERMINAL$ = ADDR (LX_NUMBER) ;

  15372 21 004774   200056 634500                    EPPR4   LX_NUMBER,,AUTO
        21 004775   200034 454500                    STP4    LX_TERMINAL$,,AUTO

     1108    15373    4            IF DNT$$ -> DNT.B.RW

  15373 21 004776   200033 473500                    LDP3    DNT$$,,AUTO
        21 004777   300003 234100                    SZN     3,,PR3
        21 005000   005005 605000 21                 TPL     s:15375

     1109    15374    4            THEN SYMBOL = DNT$$ -> DNT.RW_NO ;

PL6.E3A0      #001=Z8AF$FORME_ON_SIZE File=Z8AF.:Z8A6TSI                         SAT 08/09/97 10:43 Page:200
  15374 21 005001   300003 236100                    LDQ     3,,PR3
        21 005002   777777 376007                    ANQ     -1,DL
        21 005003   200021 756100                    STQ     SYMBOL,,AUTO
        21 005004   005007 710000 21                 TRA     s:15380

     1110    15375    4            ELSE SYMBOL = %NUMERIC_LITERAL ;

  15375 21 005005   000026 235007                    LDA     22,DL
        21 005006   200021 755100                    STA     SYMBOL,,AUTO

     1111    15376                 %INIT_LX_TERMINAL (@SYMBOL = SYMBOL,
     1112    15377                                    @DNT$   = DNT$$,
     1113    15378                                    @POINTER= LX_TERMINAL$) ;

  15380 21 005007   000000 220003                    LDX0    0,DU
        21 005010   400000 740100                    STX0    0,,PR4

  15381 21 005011   000000 221003                    LDX1    0,DU
        21 005012   200034 471500                    LDP1    LX_TERMINAL$,,AUTO
        21 005013   100000 441100                    SXL1    0,,PR1

  15385 21 005014   000015 235007                    LDA     13,DL
        21 005015   200034 471500                    LDP1    LX_TERMINAL$,,AUTO
        21 005016   100004 755100                    STA     4,,PR1

  15387 21 005017   000003 236000 22                 LDQ     3
        21 005020   200034 471500                    LDP1    LX_TERMINAL$,,AUTO
        21 005021   100007 756100                    STQ     7,,PR1

  15389 21 005022   200034 471500                    LDP1    LX_TERMINAL$,,AUTO
        21 005023   100001 756100                    STQ     1,,PR1

  15390 21 005024   200021 236100                    LDQ     SYMBOL,,AUTO
        21 005025   200034 471500                    LDP1    LX_TERMINAL$,,AUTO
        21 005026   100003 756100                    STQ     3,,PR1

  15391 21 005027   200033 236100                    LDQ     DNT$$,,AUTO
PL6.E3A0      #001=Z8AF$FORME_ON_SIZE File=Z8AF.:Z8A6TSI                         SAT 08/09/97 10:43 Page:201
        21 005030   200034 471500                    LDP1    LX_TERMINAL$,,AUTO
        21 005031   100002 756100                    STQ     2,,PR1

  15392 21 005032   000133 235000 xsym               LDA     COMCOM+91
        21 005033   200034 471500                    LDP1    LX_TERMINAL$,,AUTO
        21 005034   100005 755100                    STA     5,,PR1

  15393 21 005035   000134 235000 xsym               LDA     COMCOM+92
        21 005036   200034 471500                    LDP1    LX_TERMINAL$,,AUTO
        21 005037   100006 755100                    STA     6,,PR1

     1114    15396
     1115    15397    4            CALL Z8EC$CREATE_CONST (%TYQ, LX_TERMINAL$, RESULT$) ;

  15397 21 005040   200006 236100                    LDQ     @RESULT$,,AUTO
        21 005041   200072 756100                    STQ     @POWER_OF_2+3,,AUTO
        21 005042   200034 631500                    EPPR1   LX_TERMINAL$,,AUTO
        21 005043   200071 451500                    STP1    @POWER_OF_2+2,,AUTO
        21 005044   000053 236000 22                 LDQ     43
        21 005045   200070 756100                    STQ     @POWER_OF_2+1,,AUTO
        21 005046   200070 630500                    EPPR0   @POWER_OF_2+1,,AUTO
        21 005047   000047 631400 22                 EPPR1   39
        21 005050   000000 701000 xent               TSX1    Z8EC$CREATE_CONST
        21 005051   000000 011000                    NOP     0

     1116    15398
     1117    15399    4            GOTO EXIT_WITH_TRANSFORMATION ;

  15399 21 005052   007404 710000 21                 TRA     EXIT_WITH_TRANSFORMATION

     1118    15400
     1119    15401    4          END ; /* DNT$$ <> Nil */
     1120    15402
     1121    15403    3        END ; /* CVIQ's operand is a constant */
     1122    15404
     1123    15405        %EJECT;
PL6.E3A0      #001=Z8AF$FORME_ON_SIZE File=Z8AF.:Z8A6TSI                         SAT 08/09/97 10:43 Page:202
     1124    15406    2   CASE(%CVDRR) ;

     1125    15407
     1126    15408    3        IF LOP->ETT.ID = %TRIAD THEN DO ;

  15408 21 005053   200022 471500                    LDP1    LOP,,AUTO
        21 005054   100000 220100                    LDX0    0,,PR1
        21 005055   000015 100003                    CMPX0   13,DU
        21 005056   005233 601000 21                 TNZ     EXIT_WITH_NO_TRANSFORMATION

     1127    15409
     1128    15410    3          DNT$$ = LOP -> ETT.LOP -> CONST.DNT$ ;

  15410 21 005057   100001 473500                    LDP3    1,,PR1
        21 005060   300006 236100                    LDQ     6,,PR3
        21 005061   200033 756100                    STQ     DNT$$,,AUTO

     1129    15411
     1130    15412    4          IF DNT$$ ~= ADDR (NIL) THEN DO ;

  15412 21 005062   000003 116000 22                 CMPQ    3
        21 005063   005233 600000 21                 TZE     EXIT_WITH_NO_TRANSFORMATION

  15399 21 005064                       CCC          null
     1131    15413    4   CCC: ;
     1132    15414    4            LX_TERMINAL$ = ADDR (LX_NUMBER) ;

  15414 21 005064   200056 634500                    EPPR4   LX_NUMBER,,AUTO
        21 005065   200034 454500                    STP4    LX_TERMINAL$,,AUTO

     1133    15415    4            IF DNT$$ -> DNT.B.RW

  15415 21 005066   200033 473500                    LDP3    DNT$$,,AUTO
        21 005067   300003 234100                    SZN     3,,PR3
        21 005070   005075 605000 21                 TPL     s:15417

     1134    15416    4            THEN SYMBOL = DNT$$ -> DNT.RW_NO ;
PL6.E3A0      #001=Z8AF$FORME_ON_SIZE File=Z8AF.:Z8A6TSI                         SAT 08/09/97 10:43 Page:203

  15416 21 005071   300003 236100                    LDQ     3,,PR3
        21 005072   777777 376007                    ANQ     -1,DL
        21 005073   200021 756100                    STQ     SYMBOL,,AUTO
        21 005074   005077 710000 21                 TRA     s:15422

     1135    15417    4            ELSE SYMBOL = %NUMERIC_LITERAL ;

  15417 21 005075   000026 235007                    LDA     22,DL
        21 005076   200021 755100                    STA     SYMBOL,,AUTO

     1136    15418                 %INIT_LX_TERMINAL (@SYMBOL = SYMBOL,
     1137    15419                                    @DNT$   = DNT$$,
     1138    15420                                    @POINTER= LX_TERMINAL$) ;

  15422 21 005077   000000 220003                    LDX0    0,DU
        21 005100   400000 740100                    STX0    0,,PR4

  15423 21 005101   000000 221003                    LDX1    0,DU
        21 005102   200034 471500                    LDP1    LX_TERMINAL$,,AUTO
        21 005103   100000 441100                    SXL1    0,,PR1

  15427 21 005104   000015 235007                    LDA     13,DL
        21 005105   200034 471500                    LDP1    LX_TERMINAL$,,AUTO
        21 005106   100004 755100                    STA     4,,PR1

  15429 21 005107   000003 236000 22                 LDQ     3
        21 005110   200034 471500                    LDP1    LX_TERMINAL$,,AUTO
        21 005111   100007 756100                    STQ     7,,PR1

  15431 21 005112   200034 471500                    LDP1    LX_TERMINAL$,,AUTO
        21 005113   100001 756100                    STQ     1,,PR1

  15432 21 005114   200021 236100                    LDQ     SYMBOL,,AUTO
        21 005115   200034 471500                    LDP1    LX_TERMINAL$,,AUTO
        21 005116   100003 756100                    STQ     3,,PR1

PL6.E3A0      #001=Z8AF$FORME_ON_SIZE File=Z8AF.:Z8A6TSI                         SAT 08/09/97 10:43 Page:204
  15433 21 005117   200033 236100                    LDQ     DNT$$,,AUTO
        21 005120   200034 471500                    LDP1    LX_TERMINAL$,,AUTO
        21 005121   100002 756100                    STQ     2,,PR1

  15434 21 005122   000133 235000 xsym               LDA     COMCOM+91
        21 005123   200034 471500                    LDP1    LX_TERMINAL$,,AUTO
        21 005124   100005 755100                    STA     5,,PR1

  15435 21 005125   000134 235000 xsym               LDA     COMCOM+92
        21 005126   200034 471500                    LDP1    LX_TERMINAL$,,AUTO
        21 005127   100006 755100                    STA     6,,PR1

     1139    15438
     1140    15439    4            CALL Z8EC$CREATE_CONST (%TYR, LX_TERMINAL$, RESULT$) ;

  15439 21 005130   200006 236100                    LDQ     @RESULT$,,AUTO
        21 005131   200072 756100                    STQ     @POWER_OF_2+3,,AUTO
        21 005132   200034 631500                    EPPR1   LX_TERMINAL$,,AUTO
        21 005133   200071 451500                    STP1    @POWER_OF_2+2,,AUTO
        21 005134   000055 236000 22                 LDQ     45
        21 005135   200070 756100                    STQ     @POWER_OF_2+1,,AUTO
        21 005136   200070 630500                    EPPR0   @POWER_OF_2+1,,AUTO
        21 005137   000047 631400 22                 EPPR1   39
        21 005140   000000 701000 xent               TSX1    Z8EC$CREATE_CONST
        21 005141   000000 011000                    NOP     0

     1141    15440
     1142    15441    4            GOTO EXIT_WITH_TRANSFORMATION ;

  15441 21 005142   007404 710000 21                 TRA     EXIT_WITH_TRANSFORMATION

     1143    15442
     1144    15443    4          END ; /* DNT$$ <> Nil */
     1145    15444
     1146    15445    3        END ; /* CVDRR's operand is a constant */
     1147    15446
     1148    15447        %EJECT;
PL6.E3A0      #001=Z8AF$FORME_ON_SIZE File=Z8AF.:Z8A6TSI                         SAT 08/09/97 10:43 Page:205
     1149    15448    2   CASE(%CVDQR) ;

     1150    15449
     1151    15450    3        IF LOP->ETT.ID = %TRIAD THEN DO ;

  15450 21 005143   200022 471500                    LDP1    LOP,,AUTO
        21 005144   100000 220100                    LDX0    0,,PR1
        21 005145   000015 100003                    CMPX0   13,DU
        21 005146   005233 601000 21                 TNZ     EXIT_WITH_NO_TRANSFORMATION

     1152    15451
     1153    15452    3          DNT$$ = LOP -> ETT.LOP -> CONST.DNT$ ;

  15452 21 005147   100001 473500                    LDP3    1,,PR1
        21 005150   300006 236100                    LDQ     6,,PR3
        21 005151   200033 756100                    STQ     DNT$$,,AUTO

     1154    15453
     1155    15454    4          IF DNT$$ ~= ADDR (NIL) THEN DO ;

  15454 21 005152   000003 116000 22                 CMPQ    3
        21 005153   005233 600000 21                 TZE     EXIT_WITH_NO_TRANSFORMATION

  15441 21 005154                       DDD          null
     1156    15455    4   DDD: ;
     1157    15456    4            LX_TERMINAL$ = ADDR (LX_NUMBER) ;

  15456 21 005154   200056 634500                    EPPR4   LX_NUMBER,,AUTO
        21 005155   200034 454500                    STP4    LX_TERMINAL$,,AUTO

     1158    15457    4            IF DNT$$ -> DNT.B.RW

  15457 21 005156   200033 473500                    LDP3    DNT$$,,AUTO
        21 005157   300003 234100                    SZN     3,,PR3
        21 005160   005165 605000 21                 TPL     s:15459

     1159    15458    4            THEN SYMBOL = DNT$$ -> DNT.RW_NO ;
PL6.E3A0      #001=Z8AF$FORME_ON_SIZE File=Z8AF.:Z8A6TSI                         SAT 08/09/97 10:43 Page:206

  15458 21 005161   300003 236100                    LDQ     3,,PR3
        21 005162   777777 376007                    ANQ     -1,DL
        21 005163   200021 756100                    STQ     SYMBOL,,AUTO
        21 005164   005167 710000 21                 TRA     s:15464

     1160    15459    4            ELSE SYMBOL = %NUMERIC_LITERAL ;

  15459 21 005165   000026 235007                    LDA     22,DL
        21 005166   200021 755100                    STA     SYMBOL,,AUTO

     1161    15460                 %INIT_LX_TERMINAL (@SYMBOL = SYMBOL,
     1162    15461                                    @DNT$   = DNT$$,
     1163    15462                                    @POINTER= LX_TERMINAL$) ;

  15464 21 005167   000000 220003                    LDX0    0,DU
        21 005170   400000 740100                    STX0    0,,PR4

  15465 21 005171   000000 221003                    LDX1    0,DU
        21 005172   200034 471500                    LDP1    LX_TERMINAL$,,AUTO
        21 005173   100000 441100                    SXL1    0,,PR1

  15469 21 005174   000015 235007                    LDA     13,DL
        21 005175   200034 471500                    LDP1    LX_TERMINAL$,,AUTO
        21 005176   100004 755100                    STA     4,,PR1

  15471 21 005177   000003 236000 22                 LDQ     3
        21 005200   200034 471500                    LDP1    LX_TERMINAL$,,AUTO
        21 005201   100007 756100                    STQ     7,,PR1

  15473 21 005202   200034 471500                    LDP1    LX_TERMINAL$,,AUTO
        21 005203   100001 756100                    STQ     1,,PR1

  15474 21 005204   200021 236100                    LDQ     SYMBOL,,AUTO
        21 005205   200034 471500                    LDP1    LX_TERMINAL$,,AUTO
        21 005206   100003 756100                    STQ     3,,PR1

PL6.E3A0      #001=Z8AF$FORME_ON_SIZE File=Z8AF.:Z8A6TSI                         SAT 08/09/97 10:43 Page:207
  15475 21 005207   200033 236100                    LDQ     DNT$$,,AUTO
        21 005210   200034 471500                    LDP1    LX_TERMINAL$,,AUTO
        21 005211   100002 756100                    STQ     2,,PR1

  15476 21 005212   000133 235000 xsym               LDA     COMCOM+91
        21 005213   200034 471500                    LDP1    LX_TERMINAL$,,AUTO
        21 005214   100005 755100                    STA     5,,PR1

  15477 21 005215   000134 235000 xsym               LDA     COMCOM+92
        21 005216   200034 471500                    LDP1    LX_TERMINAL$,,AUTO
        21 005217   100006 755100                    STA     6,,PR1

     1164    15480
     1165    15481    4            CALL Z8EC$CREATE_CONST (%TYQ, LX_TERMINAL$, RESULT$) ;

  15481 21 005220   200006 236100                    LDQ     @RESULT$,,AUTO
        21 005221   200072 756100                    STQ     @POWER_OF_2+3,,AUTO
        21 005222   200034 631500                    EPPR1   LX_TERMINAL$,,AUTO
        21 005223   200071 451500                    STP1    @POWER_OF_2+2,,AUTO
        21 005224   000053 236000 22                 LDQ     43
        21 005225   200070 756100                    STQ     @POWER_OF_2+1,,AUTO
        21 005226   200070 630500                    EPPR0   @POWER_OF_2+1,,AUTO
        21 005227   000047 631400 22                 EPPR1   39
        21 005230   000000 701000 xent               TSX1    Z8EC$CREATE_CONST
        21 005231   000000 011000                    NOP     0

     1166    15482
     1167    15483    4            GOTO EXIT_WITH_TRANSFORMATION ;

  15483 21 005232   007404 710000 21                 TRA     EXIT_WITH_TRANSFORMATION

     1168    15484
     1169    15485    4          END ; /* DNT$$ <> Nil */
     1170    15486
     1171    15487    3        END ; /* CVDRR's operand is a constant */
     1172    15488
     1173    15489        %EJECT;
PL6.E3A0      #001=Z8AF$FORME_ON_SIZE File=Z8AF.:Z8A6TSI                         SAT 08/09/97 10:43 Page:208
     1174    15490    2   END /* Case */;

     1175    15491
     1176    15492        %EJECT;
PL6.E3A0      #001=Z8AF$FORME_ON_SIZE File=Z8AF.:Z8A6TSI                         SAT 08/09/97 10:43 Page:209
     1177    15493
     1178    15494    1   EXIT_WITH_NO_TRANSFORMATION:
     1179    15495
     1180    15496
     1181    15497    2        DO CASE(ID);

  15497 21 005233   200003 470500       EXIT_WITH_N* LDP0    @ID,,AUTO
        21 005234   000000 235100                    LDA     0,,PR0
        21 005235   000006 135007                    SBLA    6,DL
        21 005236   000144 115007                    CMPA    100,DL
        21 005237   005241 602005 21                 TNC     EXIT_WITH_NO_TRANSFORMATION+6,AL
        21 005240   007221 710000 21                 TRA     s:16549
        21 005241   005474 710000 21                 TRA     s:15545
        21 005242   005410 710000 21                 TRA     s:15503
        21 005243   007221 710000 21                 TRA     s:16549
        21 005244   007221 710000 21                 TRA     s:16549
        21 005245   007221 710000 21                 TRA     s:16549
        21 005246   007221 710000 21                 TRA     s:16549
        21 005247   007221 710000 21                 TRA     s:16549
        21 005250   007221 710000 21                 TRA     s:16549
        21 005251   007221 710000 21                 TRA     s:16549
        21 005252   007221 710000 21                 TRA     s:16549
        21 005253   006107 710000 21                 TRA     s:15750
        21 005254   007221 710000 21                 TRA     s:16549
        21 005255   007221 710000 21                 TRA     s:16549
        21 005256   007036 710000 21                 TRA     s:16312
        21 005257   007221 710000 21                 TRA     s:16549
        21 005260   005405 710000 21                 TRA     s:15500
        21 005261   006355 710000 21                 TRA     s:15981
        21 005262   007221 710000 21                 TRA     s:16549
        21 005263   007221 710000 21                 TRA     s:16549
        21 005264   007221 710000 21                 TRA     s:16549
        21 005265   007221 710000 21                 TRA     s:16549
        21 005266   007221 710000 21                 TRA     s:16549
        21 005267   007221 710000 21                 TRA     s:16549
        21 005270   007032 710000 21                 TRA     s:16301
        21 005271   005642 710000 21                 TRA     s:15623
PL6.E3A0      #001=Z8AF$FORME_ON_SIZE File=Z8AF.:Z8A6TSI                         SAT 08/09/97 10:43 Page:210
        21 005272   006222 710000 21                 TRA     s:15865
        21 005273   007221 710000 21                 TRA     s:16549
        21 005274   007221 710000 21                 TRA     s:16549
        21 005275   007221 710000 21                 TRA     s:16549
        21 005276   007221 710000 21                 TRA     s:16549
        21 005277   007221 710000 21                 TRA     s:16549
        21 005300   007221 710000 21                 TRA     s:16549
        21 005301   007221 710000 21                 TRA     s:16549
        21 005302   007221 710000 21                 TRA     s:16549
        21 005303   007221 710000 21                 TRA     s:16549
        21 005304   007221 710000 21                 TRA     s:16549
        21 005305   007221 710000 21                 TRA     s:16549
        21 005306   007221 710000 21                 TRA     s:16549
        21 005307   007221 710000 21                 TRA     s:16549
        21 005310   007221 710000 21                 TRA     s:16549
        21 005311   007221 710000 21                 TRA     s:16549
        21 005312   007221 710000 21                 TRA     s:16549
        21 005313   007221 710000 21                 TRA     s:16549
        21 005314   007221 710000 21                 TRA     s:16549
        21 005315   007221 710000 21                 TRA     s:16549
        21 005316   007221 710000 21                 TRA     s:16549
        21 005317   007221 710000 21                 TRA     s:16549
        21 005320   007221 710000 21                 TRA     s:16549
        21 005321   007221 710000 21                 TRA     s:16549
        21 005322   007221 710000 21                 TRA     s:16549
        21 005323   007221 710000 21                 TRA     s:16549
        21 005324   007221 710000 21                 TRA     s:16549
        21 005325   007221 710000 21                 TRA     s:16549
        21 005326   007221 710000 21                 TRA     s:16549
        21 005327   006107 710000 21                 TRA     s:15750
        21 005330   007221 710000 21                 TRA     s:16549
        21 005331   007221 710000 21                 TRA     s:16549
        21 005332   007221 710000 21                 TRA     s:16549
        21 005333   007221 710000 21                 TRA     s:16549
        21 005334   007221 710000 21                 TRA     s:16549
        21 005335   007221 710000 21                 TRA     s:16549
        21 005336   007221 710000 21                 TRA     s:16549
PL6.E3A0      #001=Z8AF$FORME_ON_SIZE File=Z8AF.:Z8A6TSI                         SAT 08/09/97 10:43 Page:211
        21 005337   007221 710000 21                 TRA     s:16549
        21 005340   007221 710000 21                 TRA     s:16549
        21 005341   007221 710000 21                 TRA     s:16549
        21 005342   007221 710000 21                 TRA     s:16549
        21 005343   007221 710000 21                 TRA     s:16549
        21 005344   007221 710000 21                 TRA     s:16549
        21 005345   007221 710000 21                 TRA     s:16549
        21 005346   007221 710000 21                 TRA     s:16549
        21 005347   007221 710000 21                 TRA     s:16549
        21 005350   007221 710000 21                 TRA     s:16549
        21 005351   007221 710000 21                 TRA     s:16549
        21 005352   007221 710000 21                 TRA     s:16549
        21 005353   007221 710000 21                 TRA     s:16549
        21 005354   007221 710000 21                 TRA     s:16549
        21 005355   007221 710000 21                 TRA     s:16549
        21 005356   007221 710000 21                 TRA     s:16549
        21 005357   007221 710000 21                 TRA     s:16549
        21 005360   006511 710000 21                 TRA     s:16098
        21 005361   006634 710000 21                 TRA     s:16217
        21 005362   006034 710000 21                 TRA     s:15693
        21 005363   007046 710000 21                 TRA     s:16337
        21 005364   007101 710000 21                 TRA     s:16391
        21 005365   007026 710000 21                 TRA     s:16290
        21 005366   007221 710000 21                 TRA     s:16549
        21 005367   007221 710000 21                 TRA     s:16549
        21 005370   007026 710000 21                 TRA     s:16290
        21 005371   007026 710000 21                 TRA     s:16290
        21 005372   007221 710000 21                 TRA     s:16549
        21 005373   007221 710000 21                 TRA     s:16549
        21 005374   007221 710000 21                 TRA     s:16549
        21 005375   007221 710000 21                 TRA     s:16549
        21 005376   007221 710000 21                 TRA     s:16549
        21 005377   007221 710000 21                 TRA     s:16549
        21 005400   007042 710000 21                 TRA     s:16323
        21 005401   007221 710000 21                 TRA     s:16549
        21 005402   007221 710000 21                 TRA     s:16549
        21 005403   007167 710000 21                 TRA     s:16499
PL6.E3A0      #001=Z8AF$FORME_ON_SIZE File=Z8AF.:Z8A6TSI                         SAT 08/09/97 10:43 Page:212
        21 005404   007134 710000 21                 TRA     s:16445

     1182    15498
     1183    15499    2          CASE(%CFILL); /* Only first byte of ROPCON is used */

     1184    15500    2            ROP_FILL.UBIN_3 = 0 ;

  15500 21 005405   000000 236003                    LDQ     0,DU
        21 005406   200025 552134                    STBQ    ROPCON,'34'O,AUTO
        21 005407   007221 710000 21                 TRA     s:16549

     1185    15501
     1186    15502    2          CASE(%DNA);

     1187    15503    2            IF ROPCON = '0'B THEN

  15503 21 005410   200025 236100                    LDQ     ROPCON,,AUTO
        21 005411   007221 601000 21                 TNZ     s:16549

     1188    15504    3              DO; /* Caller does not override the default */

     1189    15505    3                CALL Z8AU$TYPE_DESCRIPTOR(LOP, TYPE_DESC);

  15505 21 005412   200026 631500                    EPPR1   TYPE_DESC,,AUTO
        21 005413   200071 451500                    STP1    @POWER_OF_2+2,,AUTO
        21 005414   200022 633500                    EPPR3   LOP,,AUTO
        21 005415   200070 453500                    STP3    @POWER_OF_2+1,,AUTO
        21 005416   200070 630500                    EPPR0   @POWER_OF_2+1,,AUTO
        21 005417   000002 631400 22                 EPPR1   2
        21 005420   000000 701000 xent               TSX1    Z8AU$TYPE_DESCRIPTOR
        21 005421   000000 011000                    NOP     0

     1190    15506
     1191    15507    3                IF TYPE_DESC.TYPE = %TYC THEN

  15507 21 005422   200026 235100                    LDA     TYPE_DESC,,AUTO
        21 005423   000023 115007                    CMPA    19,DL
PL6.E3A0      #001=Z8AF$FORME_ON_SIZE File=Z8AF.:Z8A6TSI                         SAT 08/09/97 10:43 Page:213
        21 005424   005430 601000 21                 TNZ     s:15509

     1192    15508    3                  TA = %ADSC6;

  15508 21 005425   200000 236003                    LDQ     65536,DU
        21 005426   200013 756100                    STQ     TA,,AUTO
        21 005427   005437 710000 21                 TRA     s:15522

     1193    15509    3                ELSE IF TYPE_DESC.DESC.NDSC.TN = %NDSC9 THEN

  15509 21 005430   200027 236100                    LDQ     TYPE_DESC+1,,AUTO
        21 005431   040000 316007                    CANQ    16384,DL
        21 005432   005435 601000 21                 TNZ     s:15512

     1194    15510    3                  TA = %ADSC9;

  15510 21 005433   200013 450100                    STZ     TA,,AUTO
        21 005434   005437 710000 21                 TRA     s:15522

     1195    15511    3                ELSE
     1196    15512    3                  TA = %ADSC4;

  15512 21 005435   400000 236003                    LDQ     -131072,DU
        21 005436   200013 756100                    STQ     TA,,AUTO

     1197    15513
     1198    15514                     %PACK_ADSC (@DESC    = ROPCON,
     1199    15515                                 @TA      = TA,
     1200    15516                                 @SA      = TYPE_DESC.DESC.SA,
     1201    15517                                 @CN      = TYPE_DESC.DESC.ADSC.CN,
     1202    15518                                 @LENGTH  = TYPE_DESC.DESC.NDSC.N);

  15522 21 005437   200027 220100                    LDX0    TYPE_DESC+1,,AUTO
        21 005440   200025 740100                    STX0    ROPCON,,AUTO

  15529 21 005441   200013 236100                    LDQ     TA,,AUTO
        21 005442   600000 316003                    CANQ    -65536,DU
PL6.E3A0      #001=Z8AF$FORME_ON_SIZE File=Z8AF.:Z8A6TSI                         SAT 08/09/97 10:43 Page:214
        21 005443   005453 601000 21                 TNZ     s:15535

  15531 21 005444   200027 236100                    LDQ     TYPE_DESC+1,,AUTO
        21 005445   200025 676100                    ERQ     ROPCON,,AUTO
        21 005446   600000 376007                    ANQ     -65536,DL
        21 005447   200025 656100                    ERSQ    ROPCON,,AUTO

  15532 21 005450   000056 236000 22                 LDQ     46
        21 005451   200025 356100                    ANSQ    ROPCON,,AUTO

  15533 21 005452   005461 710000 21                 TRA     s:15537

  15535 21 005453   200027 236100                    LDQ     TYPE_DESC+1,,AUTO
        21 005454   600000 376007                    ANQ     -65536,DL
        21 005455   000001 772000                    QRL     1
        21 005456   200025 676100                    ERQ     ROPCON,,AUTO
        21 005457   700000 376007                    ANQ     -32768,DL
        21 005460   200025 656100                    ERSQ    ROPCON,,AUTO

  15537 21 005461   200013 236100                    LDQ     TA,,AUTO
        21 005462   000025 772000                    QRL     21
        21 005463   200025 676100                    ERQ     ROPCON,,AUTO
        21 005464   060000 376007                    ANQ     24576,DL
        21 005465   200025 656100                    ERSQ    ROPCON,,AUTO

  15538 21 005466   000057 236000 22                 LDQ     47
        21 005467   200025 356100                    ANSQ    ROPCON,,AUTO

  15539 21 005470   200027 236100                    LDQ     TYPE_DESC+1,,AUTO
        21 005471   000077 376007                    ANQ     63,DL
        21 005472   200025 752103                    STCQ    ROPCON,'03'O,AUTO

     1203    15542    3              END;

  15542 21 005473   007221 710000 21                 TRA     s:16549

     1204    15543
PL6.E3A0      #001=Z8AF$FORME_ON_SIZE File=Z8AF.:Z8A6TSI                         SAT 08/09/97 10:43 Page:215
     1205    15544    2          CASE(%DAN);

     1206    15545    2            CALL Z8AU$TYPE_DESCRIPTOR(LOP, TYPE_DESC);

  15545 21 005474   200026 631500                    EPPR1   TYPE_DESC,,AUTO
        21 005475   200071 451500                    STP1    @POWER_OF_2+2,,AUTO
        21 005476   200022 633500                    EPPR3   LOP,,AUTO
        21 005477   200070 453500                    STP3    @POWER_OF_2+1,,AUTO
        21 005500   200070 630500                    EPPR0   @POWER_OF_2+1,,AUTO
        21 005501   000002 631400 22                 EPPR1   2
        21 005502   000000 701000 xent               TSX1    Z8AU$TYPE_DESCRIPTOR
        21 005503   000000 011000                    NOP     0

     1207    15546
     1208    15547                 %FISH (TRIAD = LOP, RTN = LOP_ST$);

  15549 21 005504   200022 236100                    LDQ     LOP,,AUTO
        21 005505   200035 756100                    STQ     LOP_ST$,,AUTO

  15550 21 005506   200035 470500                    LDP0    LOP_ST$,,AUTO
        21 005507   000000 220100                    LDX0    0,,PR0
        21 005510   000751 100003                    CMPX0   489,DU
        21 005511   005521 603000 21                 TRC     s:15555

  15551 21 005512   200035 470500                    LDP0    LOP_ST$,,AUTO
        21 005513   000001 236100                    LDQ     1,,PR0
        21 005514   200035 756100                    STQ     LOP_ST$,,AUTO

  15552 21 005515   200035 470500                    LDP0    LOP_ST$,,AUTO
        21 005516   000000 220100                    LDX0    0,,PR0
        21 005517   000751 100003                    CMPX0   489,DU
        21 005520   005512 602000 21                 TNC     s:15551

     1209    15555    2            IF LOP_ST$ -> VARIABLE.TYPE = %TYC THEN

  15555 21 005521   000002 221100                    LDX1    2,,PR0
        21 005522   000023 101003                    CMPX1   19,DU
PL6.E3A0      #001=Z8AF$FORME_ON_SIZE File=Z8AF.:Z8A6TSI                         SAT 08/09/97 10:43 Page:216
        21 005523   005537 601000 21                 TNZ     s:15563

     1210    15556    3              DO; /* GBCD numeric */

     1211    15557    3                TN = LOP_ST$ -> VARIABLE.NDSC.TN; /* %NDSC4 = overpunched */

  15557 21 005524   000001 236100                    LDQ     1,,PR0
        21 005525   000025 736000                    QLS     21
        21 005526   400000 376003                    ANQ     -131072,DU
        21 005527   200012 756100                    STQ     TN,,AUTO

     1212    15558    3                TYPE_DESC.TYPE = %TYO; /* Because .NDSC.N includes sign if any */

  15558 21 005530   000003 235007                    LDA     3,DL
        21 005531   200026 755100                    STA     TYPE_DESC,,AUTO

     1213    15559    3                SIGN = LOP_ST$ -> VARIABLE.NDSC.S;

  15559 21 005532   000001 236100                    LDQ     1,,PR0
        21 005533   000026 736000                    QLS     22
        21 005534   600000 376003                    ANQ     -65536,DU
        21 005535   200011 756100                    STQ     SIGN,,AUTO

     1214    15560    3              END;

  15560 21 005536   005543 710000 21                 TRA     s:15577

     1215    15561    2            ELSE
     1216    15562    3              DO;

     1217    15563    3                TN = %NDSC9;

  15563 21 005537   200012 450100                    STZ     TN,,AUTO

     1218    15564    3                TYPE_DESC.TYPE = %TYD;

  15564 21 005540   200026 450100                    STZ     TYPE_DESC,,AUTO
PL6.E3A0      #001=Z8AF$FORME_ON_SIZE File=Z8AF.:Z8A6TSI                         SAT 08/09/97 10:43 Page:217

     1219    15565    3                SIGN = %NO_SIGN;

  15565 21 005541   600000 236003                    LDQ     -65536,DU
        21 005542   200011 756100                    STQ     SIGN,,AUTO

     1220    15566    3              END;

     1221    15567
     1222    15568                 %PACK_NDSC (@DESC    = ROPCON,
     1223    15569                             @LENGTH  = TYPE_DESC.DESC.NDSC.N,
     1224    15570                             @TYPE    = TYPE_DESC.TYPE,
     1225    15571                             @SIGN    = SIGN,
     1226    15572                             @TN      = TN);

  15577 21 005543   000000 220003                    LDX0    0,DU
        21 005544   200025 740100                    STX0    ROPCON,,AUTO

  15578 21 005545   000060 236000 22                 LDQ     48
        21 005546   200025 356100                    ANSQ    ROPCON,,AUTO

  15579 21 005547   200012 236100                    LDQ     TN,,AUTO
        21 005550   000025 772000                    QRL     21
        21 005551   200025 676100                    ERQ     ROPCON,,AUTO
        21 005552   040000 376007                    ANQ     16384,DL
        21 005553   200025 656100                    ERSQ    ROPCON,,AUTO

  15580 21 005554   200011 236100                    LDQ     SIGN,,AUTO
        21 005555   000026 772000                    QRL     22
        21 005556   200025 676100                    ERQ     ROPCON,,AUTO
        21 005557   030000 376007                    ANQ     12288,DL
        21 005560   200025 656100                    ERSQ    ROPCON,,AUTO

  15581 21 005561   000000 236003                    LDQ     0,DU
        21 005562   200025 752102                    STCQ    ROPCON,'02'O,AUTO

  15582 21 005563   200011 236100                    LDQ     SIGN,,AUTO
PL6.E3A0      #001=Z8AF$FORME_ON_SIZE File=Z8AF.:Z8A6TSI                         SAT 08/09/97 10:43 Page:218
        21 005564   000042 772000                    QRL     34
        21 005565   000004 116007                    CMPQ    4,DL
        21 005566   005570 602006 21                 TNC     s:15582+5,QL
        21 005567   007221 710000 21                 TRA     s:16549
        21 005570   005626 710000 21                 TRA     s:15608
        21 005571   005577 710000 21                 TRA     s:15596
        21 005572   005577 710000 21                 TRA     s:15596
        21 005573   005574 710000 21                 TRA     s:15584

  15584 21 005574   200027 236100                    LDQ     TYPE_DESC+1,,AUTO
        21 005575   200025 752101                    STCQ    ROPCON,'01'O,AUTO
        21 005576   007221 710000 21                 TRA     s:16549

  15596 21 005577   200026 235100                    LDA     TYPE_DESC,,AUTO
        21 005600   000003 115007                    CMPA    3,DL
        21 005601   005605 601000 21                 TNZ     s:15598

  15597 21 005602   200027 236100                    LDQ     TYPE_DESC+1,,AUTO
        21 005603   200025 752101                    STCQ    ROPCON,'01'O,AUTO
        21 005604   007221 710000 21                 TRA     s:16549

  15598 21 005605   000000 115003                    CMPA    0,DU
        21 005606   005614 601000 21                 TNZ     s:15600

  15599 21 005607   200027 236100                    LDQ     TYPE_DESC+1,,AUTO
        21 005610   000077 376007                    ANQ     63,DL
        21 005611   000001 036007                    ADLQ    1,DL
        21 005612   200025 752101                    STCQ    ROPCON,'01'O,AUTO
        21 005613   007221 710000 21                 TRA     s:16549

  15600 21 005614   200012 234100                    SZN     TN,,AUTO
        21 005615   005621 605000 21                 TPL     s:15603

  15601 21 005616   200027 236100                    LDQ     TYPE_DESC+1,,AUTO
        21 005617   200025 752101                    STCQ    ROPCON,'01'O,AUTO
        21 005620   007221 710000 21                 TRA     s:16549

PL6.E3A0      #001=Z8AF$FORME_ON_SIZE File=Z8AF.:Z8A6TSI                         SAT 08/09/97 10:43 Page:219
  15603 21 005621   200027 236100                    LDQ     TYPE_DESC+1,,AUTO
        21 005622   000077 376007                    ANQ     63,DL
        21 005623   000001 036007                    ADLQ    1,DL
        21 005624   200025 752101                    STCQ    ROPCON,'01'O,AUTO
        21 005625   007221 710000 21                 TRA     s:16549

  15608 21 005626   200012 234100                    SZN     TN,,AUTO
        21 005627   005635 605000 21                 TPL     s:15611

  15609 21 005630   200027 236100                    LDQ     TYPE_DESC+1,,AUTO
        21 005631   000077 376007                    ANQ     63,DL
        21 005632   000003 036007                    ADLQ    3,DL
        21 005633   200025 752101                    STCQ    ROPCON,'01'O,AUTO
        21 005634   007221 710000 21                 TRA     s:16549

  15611 21 005635   200027 236100                    LDQ     TYPE_DESC+1,,AUTO
        21 005636   000077 376007                    ANQ     63,DL
        21 005637   000002 036007                    ADLQ    2,DL
        21 005640   200025 752101                    STCQ    ROPCON,'01'O,AUTO

  15619 21 005641   007221 710000 21                 TRA     s:16549

     1227    15621
     1228    15622    2          CASE(%CVID9);

     1229    15623    3            DO CASE(LOP -> ETT.ID);

  15623 21 005642   200022 471500                    LDP1    LOP,,AUTO
        21 005643   100000 236100                    LDQ     0,,PR1
        21 005644   000022 772000                    QRL     18
        21 005645   000024 136007                    SBLQ    20,DL
        21 005646   000111 116007                    CMPQ    73,DL
        21 005647   005651 602006 21                 TNC     s:15623+7,QL
        21 005650   005773 710000 21                 TRA     s:15634
        21 005651   005770 710000 21                 TRA     s:15631
        21 005652   005773 710000 21                 TRA     s:15634
        21 005653   005773 710000 21                 TRA     s:15634
PL6.E3A0      #001=Z8AF$FORME_ON_SIZE File=Z8AF.:Z8A6TSI                         SAT 08/09/97 10:43 Page:220
        21 005654   005773 710000 21                 TRA     s:15634
        21 005655   005773 710000 21                 TRA     s:15634
        21 005656   005773 710000 21                 TRA     s:15634
        21 005657   005773 710000 21                 TRA     s:15634
        21 005660   005773 710000 21                 TRA     s:15634
        21 005661   005773 710000 21                 TRA     s:15634
        21 005662   005773 710000 21                 TRA     s:15634
        21 005663   005773 710000 21                 TRA     s:15634
        21 005664   005773 710000 21                 TRA     s:15634
        21 005665   005773 710000 21                 TRA     s:15634
        21 005666   005773 710000 21                 TRA     s:15634
        21 005667   005773 710000 21                 TRA     s:15634
        21 005670   005773 710000 21                 TRA     s:15634
        21 005671   005773 710000 21                 TRA     s:15634
        21 005672   005773 710000 21                 TRA     s:15634
        21 005673   005773 710000 21                 TRA     s:15634
        21 005674   005773 710000 21                 TRA     s:15634
        21 005675   005773 710000 21                 TRA     s:15634
        21 005676   005773 710000 21                 TRA     s:15634
        21 005677   005773 710000 21                 TRA     s:15634
        21 005700   005773 710000 21                 TRA     s:15634
        21 005701   005773 710000 21                 TRA     s:15634
        21 005702   005773 710000 21                 TRA     s:15634
        21 005703   005773 710000 21                 TRA     s:15634
        21 005704   005773 710000 21                 TRA     s:15634
        21 005705   005773 710000 21                 TRA     s:15634
        21 005706   005773 710000 21                 TRA     s:15634
        21 005707   005773 710000 21                 TRA     s:15634
        21 005710   005773 710000 21                 TRA     s:15634
        21 005711   005773 710000 21                 TRA     s:15634
        21 005712   005773 710000 21                 TRA     s:15634
        21 005713   005773 710000 21                 TRA     s:15634
        21 005714   005773 710000 21                 TRA     s:15634
        21 005715   005773 710000 21                 TRA     s:15634
        21 005716   005773 710000 21                 TRA     s:15634
        21 005717   005773 710000 21                 TRA     s:15634
        21 005720   005773 710000 21                 TRA     s:15634
PL6.E3A0      #001=Z8AF$FORME_ON_SIZE File=Z8AF.:Z8A6TSI                         SAT 08/09/97 10:43 Page:221
        21 005721   005773 710000 21                 TRA     s:15634
        21 005722   005773 710000 21                 TRA     s:15634
        21 005723   005773 710000 21                 TRA     s:15634
        21 005724   005773 710000 21                 TRA     s:15634
        21 005725   005773 710000 21                 TRA     s:15634
        21 005726   005773 710000 21                 TRA     s:15634
        21 005727   005773 710000 21                 TRA     s:15634
        21 005730   005773 710000 21                 TRA     s:15634
        21 005731   005773 710000 21                 TRA     s:15634
        21 005732   005773 710000 21                 TRA     s:15634
        21 005733   005773 710000 21                 TRA     s:15634
        21 005734   005773 710000 21                 TRA     s:15634
        21 005735   005773 710000 21                 TRA     s:15634
        21 005736   005773 710000 21                 TRA     s:15634
        21 005737   005773 710000 21                 TRA     s:15634
        21 005740   005773 710000 21                 TRA     s:15634
        21 005741   005773 710000 21                 TRA     s:15634
        21 005742   005773 710000 21                 TRA     s:15634
        21 005743   005773 710000 21                 TRA     s:15634
        21 005744   005773 710000 21                 TRA     s:15634
        21 005745   005773 710000 21                 TRA     s:15634
        21 005746   005773 710000 21                 TRA     s:15634
        21 005747   005773 710000 21                 TRA     s:15634
        21 005750   005773 710000 21                 TRA     s:15634
        21 005751   005773 710000 21                 TRA     s:15634
        21 005752   005773 710000 21                 TRA     s:15634
        21 005753   005773 710000 21                 TRA     s:15634
        21 005754   005773 710000 21                 TRA     s:15634
        21 005755   005773 710000 21                 TRA     s:15634
        21 005756   005773 710000 21                 TRA     s:15634
        21 005757   005773 710000 21                 TRA     s:15634
        21 005760   005762 710000 21                 TRA     s:15625
        21 005761   005765 710000 21                 TRA     s:15628

     1230    15624    3              CASE(%CVJI);

     1231    15625    3                SIGNIFICANCE = %TYJ_SIGNIFICANCE;
PL6.E3A0      #001=Z8AF$FORME_ON_SIZE File=Z8AF.:Z8A6TSI                         SAT 08/09/97 10:43 Page:222

  15625 21 005762   000005 235007                    LDA     5,DL
        21 005763   200024 755100                    STA     SIGNIFICANCE,,AUTO
        21 005764   005775 710000 21                 TRA     s:15646

     1232    15626
     1233    15627    3              CASE(%CVHI);

     1234    15628    3                SIGNIFICANCE = %TYH_SIGNIFICANCE;

  15628 21 005765   000006 235007                    LDA     6,DL
        21 005766   200024 755100                    STA     SIGNIFICANCE,,AUTO
        21 005767   005775 710000 21                 TRA     s:15646

     1235    15629
     1236    15630    3              CASE(%CVKI);

     1237    15631    3                SIGNIFICANCE = %TYK_SIGNIFICANCE;

  15631 21 005770   000012 235007                    LDA     10,DL
        21 005771   200024 755100                    STA     SIGNIFICANCE,,AUTO
        21 005772   005775 710000 21                 TRA     s:15646

     1238    15632
     1239    15633    3              CASE(ELSE);

     1240    15634    3                SIGNIFICANCE = %TYI_SIGNIFICANCE;

  15634 21 005773   000013 235007                    LDA     11,DL
        21 005774   200024 755100                    STA     SIGNIFICANCE,,AUTO

     1241    15635    3            END /* Case */;

     1242    15636
     1243    15637
     1244    15638                 %PACK_NDSC ( @DESC    = ROPCON ,
     1245    15639                              @TN      = %NDSC9 ,
PL6.E3A0      #001=Z8AF$FORME_ON_SIZE File=Z8AF.:Z8A6TSI                         SAT 08/09/97 10:43 Page:223
     1246    15640                              @SIGN    = %TRAILING_SIGN ,
     1247    15641                              @LENGTH  = SIGNIFICANCE );

  15646 21 005775   000000 220003                    LDX0    0,DU
        21 005776   200025 740100                    STX0    ROPCON,,AUTO

  15647 21 005777   000060 236000 22                 LDQ     48
        21 006000   200025 356100                    ANSQ    ROPCON,,AUTO

  15648 21 006001   000061 236000 22                 LDQ     49
        21 006002   200025 356100                    ANSQ    ROPCON,,AUTO

  15649 21 006003   200025 236100                    LDQ     ROPCON,,AUTO
        21 006004   000062 376000 22                 ANQ     50
        21 006005   020000 276007                    ORQ     8192,DL
        21 006006   200025 756100                    STQ     ROPCON,,AUTO

  15650 21 006007   000000 236003                    LDQ     0,DU
        21 006010   200025 752102                    STCQ    ROPCON,'02'O,AUTO

  15651 21 006011   000002 235007                    LDA     2,DL
        21 006012   000004 115007                    CMPA    4,DL
        21 006013   006015 602005 21                 TNC     s:15651+4,AL
        21 006014   007221 710000 21                 TRA     s:16549
        21 006015   006030 710000 21                 TRA     s:15682
        21 006016   006024 710000 21                 TRA     s:15658
        21 006017   006024 710000 21                 TRA     s:15658
        21 006020   006021 710000 21                 TRA     s:15653

  15653 21 006021   200024 236100                    LDQ     SIGNIFICANCE,,AUTO
        21 006022   200025 752101                    STCQ    ROPCON,'01'O,AUTO
        21 006023   007221 710000 21                 TRA     s:16549

  15658 21 006024   200024 236100                    LDQ     SIGNIFICANCE,,AUTO
        21 006025   000001 036007                    ADLQ    1,DL
        21 006026   200025 752101                    STCQ    ROPCON,'01'O,AUTO
        21 006027   007221 710000 21                 TRA     s:16549
PL6.E3A0      #001=Z8AF$FORME_ON_SIZE File=Z8AF.:Z8A6TSI                         SAT 08/09/97 10:43 Page:224

  15682 21 006030   200024 236100                    LDQ     SIGNIFICANCE,,AUTO
        21 006031   000002 036007                    ADLQ    2,DL
        21 006032   200025 752101                    STCQ    ROPCON,'01'O,AUTO

  15688 21 006033   007221 710000 21                 TRA     s:16549

     1248    15690
     1249    15691
     1250    15692    2          CASE(%CVOD4);

     1251    15693    2            CALL Z8AU$TYPE_DESCRIPTOR (LOP, TYPE_DESC);

  15693 21 006034   200026 631500                    EPPR1   TYPE_DESC,,AUTO
        21 006035   200071 451500                    STP1    @POWER_OF_2+2,,AUTO
        21 006036   200022 633500                    EPPR3   LOP,,AUTO
        21 006037   200070 453500                    STP3    @POWER_OF_2+1,,AUTO
        21 006040   200070 630500                    EPPR0   @POWER_OF_2+1,,AUTO
        21 006041   000002 631400 22                 EPPR1   2
        21 006042   000000 701000 xent               TSX1    Z8AU$TYPE_DESCRIPTOR
        21 006043   000000 011000                    NOP     0

     1252    15694
     1253    15695                 %PACK_NDSC (@DESC    = ROPCON,
     1254    15696                             @TN      = %NDSC4,
     1255    15697                             @SIGN    = TYPE_DESC.DESC.NDSC.S,
     1256    15698                             @SCALE   = TYPE_DESC.DESC.NDSC.SF,
     1257    15699                             @LENGTH  = TYPE_DESC.DESC.NDSC.N);

  15704 21 006044   000000 220003                    LDX0    0,DU
        21 006045   200025 740100                    STX0    ROPCON,,AUTO

  15705 21 006046   000060 236000 22                 LDQ     48
        21 006047   200025 356100                    ANSQ    ROPCON,,AUTO

  15706 21 006050   040000 236007                    LDQ     16384,DL
        21 006051   200025 256100                    ORSQ    ROPCON,,AUTO
PL6.E3A0      #001=Z8AF$FORME_ON_SIZE File=Z8AF.:Z8A6TSI                         SAT 08/09/97 10:43 Page:225

  15707 21 006052   200027 236100                    LDQ     TYPE_DESC+1,,AUTO
        21 006053   200025 676100                    ERQ     ROPCON,,AUTO
        21 006054   030000 376007                    ANQ     12288,DL
        21 006055   200025 656100                    ERSQ    ROPCON,,AUTO

  15708 21 006056   200027 236100                    LDQ     TYPE_DESC+1,,AUTO
        21 006057   200025 752102                    STCQ    ROPCON,'02'O,AUTO

  15709 21 006060   200027 236100                    LDQ     TYPE_DESC+1,,AUTO
        21 006061   000014 772000                    QRL     12
        21 006062   000003 376007                    ANQ     3,DL
        21 006063   000004 116007                    CMPQ    4,DL
        21 006064   006066 602006 21                 TNC     s:15709+6,QL
        21 006065   007221 710000 21                 TRA     s:16549
        21 006066   006102 710000 21                 TRA     s:15743
        21 006067   006075 710000 21                 TRA     s:15716
        21 006070   006075 710000 21                 TRA     s:15716
        21 006071   006072 710000 21                 TRA     s:15711

  15711 21 006072   200027 236100                    LDQ     TYPE_DESC+1,,AUTO
        21 006073   200025 752101                    STCQ    ROPCON,'01'O,AUTO
        21 006074   007221 710000 21                 TRA     s:16549

  15716 21 006075   200027 236100                    LDQ     TYPE_DESC+1,,AUTO
        21 006076   000077 376007                    ANQ     63,DL
        21 006077   000001 036007                    ADLQ    1,DL
        21 006100   200025 752101                    STCQ    ROPCON,'01'O,AUTO
        21 006101   007221 710000 21                 TRA     s:16549

  15743 21 006102   200027 236100                    LDQ     TYPE_DESC+1,,AUTO
        21 006103   000077 376007                    ANQ     63,DL
        21 006104   000003 036007                    ADLQ    3,DL
        21 006105   200025 752101                    STCQ    ROPCON,'01'O,AUTO

  15746 21 006106   007221 710000 21                 TRA     s:16549

PL6.E3A0      #001=Z8AF$FORME_ON_SIZE File=Z8AF.:Z8A6TSI                         SAT 08/09/97 10:43 Page:226
     1258    15748
     1259    15749    2          CASE(%CVDF, %CVDO);

     1260    15750    2            CALL Z8AU$TYPE_DESCRIPTOR (LOP, TYPE_DESC);

  15750 21 006107   200026 631500                    EPPR1   TYPE_DESC,,AUTO
        21 006110   200071 451500                    STP1    @POWER_OF_2+2,,AUTO
        21 006111   200022 633500                    EPPR3   LOP,,AUTO
        21 006112   200070 453500                    STP3    @POWER_OF_2+1,,AUTO
        21 006113   200070 630500                    EPPR0   @POWER_OF_2+1,,AUTO
        21 006114   000002 631400 22                 EPPR1   2
        21 006115   000000 701000 xent               TSX1    Z8AU$TYPE_DESCRIPTOR
        21 006116   000000 011000                    NOP     0

     1261    15751
     1262    15752                 %UNPACK_NDSC (@DESC   = TYPE_DESC.DESC,
     1263    15753                               @SCALE  = SCALE,
     1264    15754                               @LENGTH = LENGTH);

  15761 21 006117   200027 236100                    LDQ     TYPE_DESC+1,,AUTO
        21 006120   000014 772000                    QRL     12
        21 006121   000003 376007                    ANQ     3,DL
        21 006122   000004 116007                    CMPQ    4,DL
        21 006123   006125 602006 21                 TNC     s:15761+6,QL
        21 006124   006156 710000 21                 TRA     s:15801
        21 006125   006142 710000 21                 TRA     s:15785
        21 006126   006135 710000 21                 TRA     s:15768
        21 006127   006135 710000 21                 TRA     s:15768
        21 006130   006131 710000 21                 TRA     s:15763

  15763 21 006131   200027 236100                    LDQ     TYPE_DESC+1,,AUTO
        21 006132   000077 376007                    ANQ     63,DL
        21 006133   200015 756100                    STQ     LENGTH,,AUTO
        21 006134   006156 710000 21                 TRA     s:15801

  15768 21 006135   200027 236100                    LDQ     TYPE_DESC+1,,AUTO
        21 006136   000077 376007                    ANQ     63,DL
PL6.E3A0      #001=Z8AF$FORME_ON_SIZE File=Z8AF.:Z8A6TSI                         SAT 08/09/97 10:43 Page:227
        21 006137   000001 136007                    SBLQ    1,DL
        21 006140   200015 756100                    STQ     LENGTH,,AUTO
        21 006141   006156 710000 21                 TRA     s:15801

  15785 21 006142   200027 236100                    LDQ     TYPE_DESC+1,,AUTO
        21 006143   040000 316007                    CANQ    16384,DL
        21 006144   006152 600000 21                 TZE     s:15788

  15786 21 006145   200027 236100                    LDQ     TYPE_DESC+1,,AUTO
        21 006146   000077 376007                    ANQ     63,DL
        21 006147   000003 136007                    SBLQ    3,DL
        21 006150   200015 756100                    STQ     LENGTH,,AUTO
        21 006151   006156 710000 21                 TRA     s:15801

  15788 21 006152   200027 236100                    LDQ     TYPE_DESC+1,,AUTO
        21 006153   000077 376007                    ANQ     63,DL
        21 006154   000002 136007                    SBLQ    2,DL
        21 006155   200015 756100                    STQ     LENGTH,,AUTO

  15801 21 006156   200027 236100                    LDQ     TYPE_DESC+1,,AUTO
        21 006157   000030 736000                    QLS     24
        21 006160   000036 732000                    QRS     30
        21 006161   200014 756100                    STQ     SCALE,,AUTO

     1265    15809
     1266    15810                 %PACK_NDSC   (@DESC   = ROPCON,
     1267    15811                               @TN     = %NDSC9,
     1268    15812                               @SIGN   = %TRAILING_SIGN,
     1269    15813                               @SCALE  = SCALE,
     1270    15814                               @LENGTH = LENGTH);

  15819 21 006162   000000 220003                    LDX0    0,DU
        21 006163   200025 740100                    STX0    ROPCON,,AUTO

  15820 21 006164   000060 236000 22                 LDQ     48
        21 006165   200025 356100                    ANSQ    ROPCON,,AUTO

PL6.E3A0      #001=Z8AF$FORME_ON_SIZE File=Z8AF.:Z8A6TSI                         SAT 08/09/97 10:43 Page:228
  15821 21 006166   000061 236000 22                 LDQ     49
        21 006167   200025 356100                    ANSQ    ROPCON,,AUTO

  15822 21 006170   200025 236100                    LDQ     ROPCON,,AUTO
        21 006171   000062 376000 22                 ANQ     50
        21 006172   020000 276007                    ORQ     8192,DL
        21 006173   200025 756100                    STQ     ROPCON,,AUTO

  15823 21 006174   200014 236100                    LDQ     SCALE,,AUTO
        21 006175   000006 736000                    QLS     6
        21 006176   200025 752102                    STCQ    ROPCON,'02'O,AUTO

  15824 21 006177   000002 235007                    LDA     2,DL
        21 006200   000004 115007                    CMPA    4,DL
        21 006201   006203 602005 21                 TNC     s:15824+4,AL
        21 006202   007221 710000 21                 TRA     s:16549
        21 006203   006216 710000 21                 TRA     s:15855
        21 006204   006212 710000 21                 TRA     s:15831
        21 006205   006212 710000 21                 TRA     s:15831
        21 006206   006207 710000 21                 TRA     s:15826

  15826 21 006207   200015 236100                    LDQ     LENGTH,,AUTO
        21 006210   200025 752101                    STCQ    ROPCON,'01'O,AUTO
        21 006211   007221 710000 21                 TRA     s:16549

  15831 21 006212   200015 236100                    LDQ     LENGTH,,AUTO
        21 006213   000001 036007                    ADLQ    1,DL
        21 006214   200025 752101                    STCQ    ROPCON,'01'O,AUTO
        21 006215   007221 710000 21                 TRA     s:16549

  15855 21 006216   200015 236100                    LDQ     LENGTH,,AUTO
        21 006217   000002 036007                    ADLQ    2,DL
        21 006220   200025 752101                    STCQ    ROPCON,'01'O,AUTO

  15861 21 006221   007221 710000 21                 TRA     s:16549

     1271    15863
PL6.E3A0      #001=Z8AF$FORME_ON_SIZE File=Z8AF.:Z8A6TSI                         SAT 08/09/97 10:43 Page:229
     1272    15864    2          CASE(%CVDSF);

     1273    15865    2            CALL Z8AU$TYPE_DESCRIPTOR(LOP, TYPE_DESC);

  15865 21 006222   200026 631500                    EPPR1   TYPE_DESC,,AUTO
        21 006223   200071 451500                    STP1    @POWER_OF_2+2,,AUTO
        21 006224   200022 633500                    EPPR3   LOP,,AUTO
        21 006225   200070 453500                    STP3    @POWER_OF_2+1,,AUTO
        21 006226   200070 630500                    EPPR0   @POWER_OF_2+1,,AUTO
        21 006227   000002 631400 22                 EPPR1   2
        21 006230   000000 701000 xent               TSX1    Z8AU$TYPE_DESCRIPTOR
        21 006231   000000 011000                    NOP     0

     1274    15866
     1275    15867                 %UNPACK_NDSC (@DESC    = TYPE_DESC.DESC,
     1276    15868                               @LENGTH  = LENGTH,
     1277    15869                               @SCALE   = SCALE,
     1278    15870                               @TN      = TN);

  15877 21 006232   200027 236100                    LDQ     TYPE_DESC+1,,AUTO
        21 006233   000014 772000                    QRL     12
        21 006234   000003 376007                    ANQ     3,DL
        21 006235   000004 116007                    CMPQ    4,DL
        21 006236   006240 602006 21                 TNC     s:15877+6,QL
        21 006237   006271 710000 21                 TRA     s:15914
        21 006240   006255 710000 21                 TRA     s:15901
        21 006241   006250 710000 21                 TRA     s:15884
        21 006242   006250 710000 21                 TRA     s:15884
        21 006243   006244 710000 21                 TRA     s:15879

  15879 21 006244   200027 236100                    LDQ     TYPE_DESC+1,,AUTO
        21 006245   000077 376007                    ANQ     63,DL
        21 006246   200015 756100                    STQ     LENGTH,,AUTO
        21 006247   006271 710000 21                 TRA     s:15914

  15884 21 006250   200027 236100                    LDQ     TYPE_DESC+1,,AUTO
        21 006251   000077 376007                    ANQ     63,DL
PL6.E3A0      #001=Z8AF$FORME_ON_SIZE File=Z8AF.:Z8A6TSI                         SAT 08/09/97 10:43 Page:230
        21 006252   000001 136007                    SBLQ    1,DL
        21 006253   200015 756100                    STQ     LENGTH,,AUTO
        21 006254   006271 710000 21                 TRA     s:15914

  15901 21 006255   200027 236100                    LDQ     TYPE_DESC+1,,AUTO
        21 006256   040000 316007                    CANQ    16384,DL
        21 006257   006265 600000 21                 TZE     s:15904

  15902 21 006260   200027 236100                    LDQ     TYPE_DESC+1,,AUTO
        21 006261   000077 376007                    ANQ     63,DL
        21 006262   000003 136007                    SBLQ    3,DL
        21 006263   200015 756100                    STQ     LENGTH,,AUTO
        21 006264   006271 710000 21                 TRA     s:15914

  15904 21 006265   200027 236100                    LDQ     TYPE_DESC+1,,AUTO
        21 006266   000077 376007                    ANQ     63,DL
        21 006267   000002 136007                    SBLQ    2,DL
        21 006270   200015 756100                    STQ     LENGTH,,AUTO

  15914 21 006271   200027 236100                    LDQ     TYPE_DESC+1,,AUTO
        21 006272   000025 736000                    QLS     21
        21 006273   400000 376003                    ANQ     -131072,DU
        21 006274   200012 756100                    STQ     TN,,AUTO

  15917 21 006275   200027 236100                    LDQ     TYPE_DESC+1,,AUTO
        21 006276   000030 736000                    QLS     24
        21 006277   000036 732000                    QRS     30
        21 006300   200014 756100                    STQ     SCALE,,AUTO

     1279    15925
     1280    15926                 %PACK_NDSC   (@DESC    = ROPCON,
     1281    15927                               @LENGTH  = LENGTH + SCALE,
     1282    15928                               @SCALE   = 0,
     1283    15929                               @TN      = TN,
     1284    15930                               @SIGN    = %TRAILING_SIGN);

  15935 21 006301   000000 220003                    LDX0    0,DU
PL6.E3A0      #001=Z8AF$FORME_ON_SIZE File=Z8AF.:Z8A6TSI                         SAT 08/09/97 10:43 Page:231
        21 006302   200025 740100                    STX0    ROPCON,,AUTO

  15936 21 006303   000060 236000 22                 LDQ     48
        21 006304   200025 356100                    ANSQ    ROPCON,,AUTO

  15937 21 006305   200012 236100                    LDQ     TN,,AUTO
        21 006306   000025 772000                    QRL     21
        21 006307   200025 676100                    ERQ     ROPCON,,AUTO
        21 006310   040000 376007                    ANQ     16384,DL
        21 006311   200025 656100                    ERSQ    ROPCON,,AUTO

  15938 21 006312   200025 236100                    LDQ     ROPCON,,AUTO
        21 006313   000062 376000 22                 ANQ     50
        21 006314   020000 276007                    ORQ     8192,DL
        21 006315   200025 756100                    STQ     ROPCON,,AUTO

  15939 21 006316   000000 236003                    LDQ     0,DU
        21 006317   200025 752102                    STCQ    ROPCON,'02'O,AUTO

  15940 21 006320   000002 235007                    LDA     2,DL
        21 006321   000004 115007                    CMPA    4,DL
        21 006322   006324 602005 21                 TNC     s:15940+4,AL
        21 006323   007221 710000 21                 TRA     s:16549
        21 006324   006341 710000 21                 TRA     s:15966
        21 006325   006334 710000 21                 TRA     s:15947
        21 006326   006334 710000 21                 TRA     s:15947
        21 006327   006330 710000 21                 TRA     s:15942

  15942 21 006330   200015 236100                    LDQ     LENGTH,,AUTO
        21 006331   200014 036100                    ADLQ    SCALE,,AUTO
        21 006332   200025 752101                    STCQ    ROPCON,'01'O,AUTO
        21 006333   007221 710000 21                 TRA     s:16549

  15947 21 006334   200015 236100                    LDQ     LENGTH,,AUTO
        21 006335   200014 036100                    ADLQ    SCALE,,AUTO
        21 006336   000001 036007                    ADLQ    1,DL
        21 006337   200025 752101                    STCQ    ROPCON,'01'O,AUTO
PL6.E3A0      #001=Z8AF$FORME_ON_SIZE File=Z8AF.:Z8A6TSI                         SAT 08/09/97 10:43 Page:232
        21 006340   007221 710000 21                 TRA     s:16549

  15966 21 006341   200012 234100                    SZN     TN,,AUTO
        21 006342   006350 605000 21                 TPL     s:15969

  15967 21 006343   200015 236100                    LDQ     LENGTH,,AUTO
        21 006344   200014 036100                    ADLQ    SCALE,,AUTO
        21 006345   000003 036007                    ADLQ    3,DL
        21 006346   200025 752101                    STCQ    ROPCON,'01'O,AUTO
        21 006347   007221 710000 21                 TRA     s:16549

  15969 21 006350   200015 236100                    LDQ     LENGTH,,AUTO
        21 006351   200014 036100                    ADLQ    SCALE,,AUTO
        21 006352   000002 036007                    ADLQ    2,DL
        21 006353   200025 752101                    STCQ    ROPCON,'01'O,AUTO

  15977 21 006354   007221 710000 21                 TRA     s:16549

     1285    15979
     1286    15980    2          CASE(%CVDDD);

     1287    15981    2            CALL Z8AU$TYPE_DESCRIPTOR(LOP, TYPE_DESC);

  15981 21 006355   200026 631500                    EPPR1   TYPE_DESC,,AUTO
        21 006356   200071 451500                    STP1    @POWER_OF_2+2,,AUTO
        21 006357   200022 633500                    EPPR3   LOP,,AUTO
        21 006360   200070 453500                    STP3    @POWER_OF_2+1,,AUTO
        21 006361   200070 630500                    EPPR0   @POWER_OF_2+1,,AUTO
        21 006362   000002 631400 22                 EPPR1   2
        21 006363   000000 701000 xent               TSX1    Z8AU$TYPE_DESCRIPTOR
        21 006364   000000 011000                    NOP     0

     1288    15982
     1289    15983                 %UNPACK_NDSC (@DESC   = TYPE_DESC.DESC,
     1290    15984                               @LENGTH = LENGTH,
     1291    15985                               @SCALE  = SCALE,
     1292    15986                               @TN     = TN,
PL6.E3A0      #001=Z8AF$FORME_ON_SIZE File=Z8AF.:Z8A6TSI                         SAT 08/09/97 10:43 Page:233
     1293    15987                               @SIGN   = SIGN);

  15994 21 006365   200027 236100                    LDQ     TYPE_DESC+1,,AUTO
        21 006366   000014 772000                    QRL     12
        21 006367   000003 376007                    ANQ     3,DL
        21 006370   000004 116007                    CMPQ    4,DL
        21 006371   006373 602006 21                 TNC     s:15994+6,QL
        21 006372   006424 710000 21                 TRA     s:16031
        21 006373   006410 710000 21                 TRA     s:16018
        21 006374   006403 710000 21                 TRA     s:16001
        21 006375   006403 710000 21                 TRA     s:16001
        21 006376   006377 710000 21                 TRA     s:15996

  15996 21 006377   200027 236100                    LDQ     TYPE_DESC+1,,AUTO
        21 006400   000077 376007                    ANQ     63,DL
        21 006401   200015 756100                    STQ     LENGTH,,AUTO
        21 006402   006424 710000 21                 TRA     s:16031

  16001 21 006403   200027 236100                    LDQ     TYPE_DESC+1,,AUTO
        21 006404   000077 376007                    ANQ     63,DL
        21 006405   000001 136007                    SBLQ    1,DL
        21 006406   200015 756100                    STQ     LENGTH,,AUTO
        21 006407   006424 710000 21                 TRA     s:16031

  16018 21 006410   200027 236100                    LDQ     TYPE_DESC+1,,AUTO
        21 006411   040000 316007                    CANQ    16384,DL
        21 006412   006420 600000 21                 TZE     s:16021

  16019 21 006413   200027 236100                    LDQ     TYPE_DESC+1,,AUTO
        21 006414   000077 376007                    ANQ     63,DL
        21 006415   000003 136007                    SBLQ    3,DL
        21 006416   200015 756100                    STQ     LENGTH,,AUTO
        21 006417   006424 710000 21                 TRA     s:16031

  16021 21 006420   200027 236100                    LDQ     TYPE_DESC+1,,AUTO
        21 006421   000077 376007                    ANQ     63,DL
        21 006422   000002 136007                    SBLQ    2,DL
PL6.E3A0      #001=Z8AF$FORME_ON_SIZE File=Z8AF.:Z8A6TSI                         SAT 08/09/97 10:43 Page:234
        21 006423   200015 756100                    STQ     LENGTH,,AUTO

  16031 21 006424   200027 236100                    LDQ     TYPE_DESC+1,,AUTO
        21 006425   000025 736000                    QLS     21
        21 006426   400000 376003                    ANQ     -131072,DU
        21 006427   200012 756100                    STQ     TN,,AUTO

  16034 21 006430   200027 236100                    LDQ     TYPE_DESC+1,,AUTO
        21 006431   000030 736000                    QLS     24
        21 006432   000036 732000                    QRS     30
        21 006433   200014 756100                    STQ     SCALE,,AUTO

  16037 21 006434   200027 236100                    LDQ     TYPE_DESC+1,,AUTO
        21 006435   000026 736000                    QLS     22
        21 006436   600000 376003                    ANQ     -65536,DU
        21 006437   200011 756100                    STQ     SIGN,,AUTO

     1294    16042
     1295    16043                 %PACK_NDSC   (@DESC   = ROPCON,
     1296    16044                               @LENGTH = LENGTH,
     1297    16045                               @SCALE  = SCALE,
     1298    16046                               @TN     = TN,
     1299    16047                               @SIGN   = %TRAILING_SIGN);

  16052 21 006440   000000 220003                    LDX0    0,DU
        21 006441   200025 740100                    STX0    ROPCON,,AUTO

  16053 21 006442   000060 236000 22                 LDQ     48
        21 006443   200025 356100                    ANSQ    ROPCON,,AUTO

  16054 21 006444   200012 236100                    LDQ     TN,,AUTO
        21 006445   000025 772000                    QRL     21
        21 006446   200025 676100                    ERQ     ROPCON,,AUTO
        21 006447   040000 376007                    ANQ     16384,DL
        21 006450   200025 656100                    ERSQ    ROPCON,,AUTO

  16055 21 006451   200025 236100                    LDQ     ROPCON,,AUTO
PL6.E3A0      #001=Z8AF$FORME_ON_SIZE File=Z8AF.:Z8A6TSI                         SAT 08/09/97 10:43 Page:235
        21 006452   000062 376000 22                 ANQ     50
        21 006453   020000 276007                    ORQ     8192,DL
        21 006454   200025 756100                    STQ     ROPCON,,AUTO

  16056 21 006455   200014 236100                    LDQ     SCALE,,AUTO
        21 006456   000006 736000                    QLS     6
        21 006457   200025 752102                    STCQ    ROPCON,'02'O,AUTO

  16057 21 006460   000002 235007                    LDA     2,DL
        21 006461   000004 115007                    CMPA    4,DL
        21 006462   006464 602005 21                 TNC     s:16057+4,AL
        21 006463   007221 710000 21                 TRA     s:16549
        21 006464   006477 710000 21                 TRA     s:16083
        21 006465   006473 710000 21                 TRA     s:16064
        21 006466   006473 710000 21                 TRA     s:16064
        21 006467   006470 710000 21                 TRA     s:16059

  16059 21 006470   200015 236100                    LDQ     LENGTH,,AUTO
        21 006471   200025 752101                    STCQ    ROPCON,'01'O,AUTO
        21 006472   007221 710000 21                 TRA     s:16549

  16064 21 006473   200015 236100                    LDQ     LENGTH,,AUTO
        21 006474   000001 036007                    ADLQ    1,DL
        21 006475   200025 752101                    STCQ    ROPCON,'01'O,AUTO
        21 006476   007221 710000 21                 TRA     s:16549

  16083 21 006477   200012 234100                    SZN     TN,,AUTO
        21 006500   006505 605000 21                 TPL     s:16086

  16084 21 006501   200015 236100                    LDQ     LENGTH,,AUTO
        21 006502   000003 036007                    ADLQ    3,DL
        21 006503   200025 752101                    STCQ    ROPCON,'01'O,AUTO
        21 006504   007221 710000 21                 TRA     s:16549

  16086 21 006505   200015 236100                    LDQ     LENGTH,,AUTO
        21 006506   000002 036007                    ADLQ    2,DL
        21 006507   200025 752101                    STCQ    ROPCON,'01'O,AUTO
PL6.E3A0      #001=Z8AF$FORME_ON_SIZE File=Z8AF.:Z8A6TSI                         SAT 08/09/97 10:43 Page:236

  16094 21 006510   007221 710000 21                 TRA     s:16549

     1300    16096
     1301    16097    2          CASE(%CV49);

     1302    16098    2            IF ROPCON = '0'B THEN

  16098 21 006511   200025 236100                    LDQ     ROPCON,,AUTO
        21 006512   007221 601000 21                 TNZ     s:16549

     1303    16099    3              DO;

     1304    16100    3                CALL Z8AU$TYPE_DESCRIPTOR(LOP, TYPE_DESC);

  16100 21 006513   200026 631500                    EPPR1   TYPE_DESC,,AUTO
        21 006514   200071 451500                    STP1    @POWER_OF_2+2,,AUTO
        21 006515   200022 633500                    EPPR3   LOP,,AUTO
        21 006516   200070 453500                    STP3    @POWER_OF_2+1,,AUTO
        21 006517   200070 630500                    EPPR0   @POWER_OF_2+1,,AUTO
        21 006520   000002 631400 22                 EPPR1   2
        21 006521   000000 701000 xent               TSX1    Z8AU$TYPE_DESCRIPTOR
        21 006522   000000 011000                    NOP     0

     1305    16101
     1306    16102                     %UNPACK_NDSC (@DESC   = TYPE_DESC.DESC,
     1307    16103                                   @LENGTH = LENGTH,
     1308    16104                                   @SCALE  = SCALE,
     1309    16105                                   @SIGN   = SIGN) ;

  16112 21 006523   200027 236100                    LDQ     TYPE_DESC+1,,AUTO
        21 006524   000014 772000                    QRL     12
        21 006525   000003 376007                    ANQ     3,DL
        21 006526   000004 116007                    CMPQ    4,DL
        21 006527   006531 602006 21                 TNC     s:16112+6,QL
        21 006530   006562 710000 21                 TRA     s:16152
        21 006531   006546 710000 21                 TRA     s:16136
PL6.E3A0      #001=Z8AF$FORME_ON_SIZE File=Z8AF.:Z8A6TSI                         SAT 08/09/97 10:43 Page:237
        21 006532   006541 710000 21                 TRA     s:16119
        21 006533   006541 710000 21                 TRA     s:16119
        21 006534   006535 710000 21                 TRA     s:16114

  16114 21 006535   200027 236100                    LDQ     TYPE_DESC+1,,AUTO
        21 006536   000077 376007                    ANQ     63,DL
        21 006537   200015 756100                    STQ     LENGTH,,AUTO
        21 006540   006562 710000 21                 TRA     s:16152

  16119 21 006541   200027 236100                    LDQ     TYPE_DESC+1,,AUTO
        21 006542   000077 376007                    ANQ     63,DL
        21 006543   000001 136007                    SBLQ    1,DL
        21 006544   200015 756100                    STQ     LENGTH,,AUTO
        21 006545   006562 710000 21                 TRA     s:16152

  16136 21 006546   200027 236100                    LDQ     TYPE_DESC+1,,AUTO
        21 006547   040000 316007                    CANQ    16384,DL
        21 006550   006556 600000 21                 TZE     s:16139

  16137 21 006551   200027 236100                    LDQ     TYPE_DESC+1,,AUTO
        21 006552   000077 376007                    ANQ     63,DL
        21 006553   000003 136007                    SBLQ    3,DL
        21 006554   200015 756100                    STQ     LENGTH,,AUTO
        21 006555   006562 710000 21                 TRA     s:16152

  16139 21 006556   200027 236100                    LDQ     TYPE_DESC+1,,AUTO
        21 006557   000077 376007                    ANQ     63,DL
        21 006560   000002 136007                    SBLQ    2,DL
        21 006561   200015 756100                    STQ     LENGTH,,AUTO

  16152 21 006562   200027 236100                    LDQ     TYPE_DESC+1,,AUTO
        21 006563   000030 736000                    QLS     24
        21 006564   000036 732000                    QRS     30
        21 006565   200014 756100                    STQ     SCALE,,AUTO

  16155 21 006566   200027 236100                    LDQ     TYPE_DESC+1,,AUTO
        21 006567   000026 736000                    QLS     22
PL6.E3A0      #001=Z8AF$FORME_ON_SIZE File=Z8AF.:Z8A6TSI                         SAT 08/09/97 10:43 Page:238
        21 006570   600000 376003                    ANQ     -65536,DU
        21 006571   200011 756100                    STQ     SIGN,,AUTO

     1310    16160
     1311    16161                     %PACK_NDSC (@DESC    = ROPCON,
     1312    16162                                 @TN      = %NDSC9,
     1313    16163                                 @LENGTH  = LENGTH,
     1314    16164                                 @SCALE   = SCALE,
     1315    16165                                 @SIGN    = SIGN) ;

  16170 21 006572   000000 220003                    LDX0    0,DU
        21 006573   200025 740100                    STX0    ROPCON,,AUTO

  16171 21 006574   000060 236000 22                 LDQ     48
        21 006575   200025 356100                    ANSQ    ROPCON,,AUTO

  16172 21 006576   000061 236000 22                 LDQ     49
        21 006577   200025 356100                    ANSQ    ROPCON,,AUTO

  16173 21 006600   200011 236100                    LDQ     SIGN,,AUTO
        21 006601   000026 772000                    QRL     22
        21 006602   200025 676100                    ERQ     ROPCON,,AUTO
        21 006603   030000 376007                    ANQ     12288,DL
        21 006604   200025 656100                    ERSQ    ROPCON,,AUTO

  16174 21 006605   200014 236100                    LDQ     SCALE,,AUTO
        21 006606   000006 736000                    QLS     6
        21 006607   200025 752102                    STCQ    ROPCON,'02'O,AUTO

  16175 21 006610   200011 236100                    LDQ     SIGN,,AUTO
        21 006611   000042 772000                    QRL     34
        21 006612   000004 116007                    CMPQ    4,DL
        21 006613   006615 602006 21                 TNC     s:16175+5,QL
        21 006614   007221 710000 21                 TRA     s:16549
        21 006615   006630 710000 21                 TRA     s:16206
        21 006616   006624 710000 21                 TRA     s:16182
        21 006617   006624 710000 21                 TRA     s:16182
PL6.E3A0      #001=Z8AF$FORME_ON_SIZE File=Z8AF.:Z8A6TSI                         SAT 08/09/97 10:43 Page:239
        21 006620   006621 710000 21                 TRA     s:16177

  16177 21 006621   200015 236100                    LDQ     LENGTH,,AUTO
        21 006622   200025 752101                    STCQ    ROPCON,'01'O,AUTO
        21 006623   007221 710000 21                 TRA     s:16549

  16182 21 006624   200015 236100                    LDQ     LENGTH,,AUTO
        21 006625   000001 036007                    ADLQ    1,DL
        21 006626   200025 752101                    STCQ    ROPCON,'01'O,AUTO
        21 006627   007221 710000 21                 TRA     s:16549

  16206 21 006630   200015 236100                    LDQ     LENGTH,,AUTO
        21 006631   000002 036007                    ADLQ    2,DL
        21 006632   200025 752101                    STCQ    ROPCON,'01'O,AUTO

     1316    16214    3              END;

  16214 21 006633   007221 710000 21                 TRA     s:16549

     1317    16215
     1318    16216    2          CASE(%CVID4);

     1319    16217    3            DO CASE(LOP -> ETT.ID);

  16217 21 006634   200022 471500                    LDP1    LOP,,AUTO
        21 006635   100000 236100                    LDQ     0,,PR1
        21 006636   000022 772000                    QRL     18
        21 006637   000024 136007                    SBLQ    20,DL
        21 006640   000111 116007                    CMPQ    73,DL
        21 006641   006643 602006 21                 TNC     s:16217+7,QL
        21 006642   006765 710000 21                 TRA     s:16228
        21 006643   006762 710000 21                 TRA     s:16225
        21 006644   006765 710000 21                 TRA     s:16228
        21 006645   006765 710000 21                 TRA     s:16228
        21 006646   006765 710000 21                 TRA     s:16228
        21 006647   006765 710000 21                 TRA     s:16228
        21 006650   006765 710000 21                 TRA     s:16228
PL6.E3A0      #001=Z8AF$FORME_ON_SIZE File=Z8AF.:Z8A6TSI                         SAT 08/09/97 10:43 Page:240
        21 006651   006765 710000 21                 TRA     s:16228
        21 006652   006765 710000 21                 TRA     s:16228
        21 006653   006765 710000 21                 TRA     s:16228
        21 006654   006765 710000 21                 TRA     s:16228
        21 006655   006765 710000 21                 TRA     s:16228
        21 006656   006765 710000 21                 TRA     s:16228
        21 006657   006765 710000 21                 TRA     s:16228
        21 006660   006765 710000 21                 TRA     s:16228
        21 006661   006765 710000 21                 TRA     s:16228
        21 006662   006765 710000 21                 TRA     s:16228
        21 006663   006765 710000 21                 TRA     s:16228
        21 006664   006765 710000 21                 TRA     s:16228
        21 006665   006765 710000 21                 TRA     s:16228
        21 006666   006765 710000 21                 TRA     s:16228
        21 006667   006765 710000 21                 TRA     s:16228
        21 006670   006765 710000 21                 TRA     s:16228
        21 006671   006765 710000 21                 TRA     s:16228
        21 006672   006765 710000 21                 TRA     s:16228
        21 006673   006765 710000 21                 TRA     s:16228
        21 006674   006765 710000 21                 TRA     s:16228
        21 006675   006765 710000 21                 TRA     s:16228
        21 006676   006765 710000 21                 TRA     s:16228
        21 006677   006765 710000 21                 TRA     s:16228
        21 006700   006765 710000 21                 TRA     s:16228
        21 006701   006765 710000 21                 TRA     s:16228
        21 006702   006765 710000 21                 TRA     s:16228
        21 006703   006765 710000 21                 TRA     s:16228
        21 006704   006765 710000 21                 TRA     s:16228
        21 006705   006765 710000 21                 TRA     s:16228
        21 006706   006765 710000 21                 TRA     s:16228
        21 006707   006765 710000 21                 TRA     s:16228
        21 006710   006765 710000 21                 TRA     s:16228
        21 006711   006765 710000 21                 TRA     s:16228
        21 006712   006765 710000 21                 TRA     s:16228
        21 006713   006765 710000 21                 TRA     s:16228
        21 006714   006765 710000 21                 TRA     s:16228
        21 006715   006765 710000 21                 TRA     s:16228
PL6.E3A0      #001=Z8AF$FORME_ON_SIZE File=Z8AF.:Z8A6TSI                         SAT 08/09/97 10:43 Page:241
        21 006716   006765 710000 21                 TRA     s:16228
        21 006717   006765 710000 21                 TRA     s:16228
        21 006720   006765 710000 21                 TRA     s:16228
        21 006721   006765 710000 21                 TRA     s:16228
        21 006722   006765 710000 21                 TRA     s:16228
        21 006723   006765 710000 21                 TRA     s:16228
        21 006724   006765 710000 21                 TRA     s:16228
        21 006725   006765 710000 21                 TRA     s:16228
        21 006726   006765 710000 21                 TRA     s:16228
        21 006727   006765 710000 21                 TRA     s:16228
        21 006730   006765 710000 21                 TRA     s:16228
        21 006731   006765 710000 21                 TRA     s:16228
        21 006732   006765 710000 21                 TRA     s:16228
        21 006733   006765 710000 21                 TRA     s:16228
        21 006734   006765 710000 21                 TRA     s:16228
        21 006735   006765 710000 21                 TRA     s:16228
        21 006736   006765 710000 21                 TRA     s:16228
        21 006737   006765 710000 21                 TRA     s:16228
        21 006740   006765 710000 21                 TRA     s:16228
        21 006741   006765 710000 21                 TRA     s:16228
        21 006742   006765 710000 21                 TRA     s:16228
        21 006743   006765 710000 21                 TRA     s:16228
        21 006744   006765 710000 21                 TRA     s:16228
        21 006745   006765 710000 21                 TRA     s:16228
        21 006746   006765 710000 21                 TRA     s:16228
        21 006747   006765 710000 21                 TRA     s:16228
        21 006750   006765 710000 21                 TRA     s:16228
        21 006751   006765 710000 21                 TRA     s:16228
        21 006752   006754 710000 21                 TRA     s:16219
        21 006753   006757 710000 21                 TRA     s:16222

     1320    16218    3              CASE(%CVJI);

     1321    16219    3                SIGNIFICANCE = %TYJ_SIGNIFICANCE;

  16219 21 006754   000005 235007                    LDA     5,DL
        21 006755   200024 755100                    STA     SIGNIFICANCE,,AUTO
PL6.E3A0      #001=Z8AF$FORME_ON_SIZE File=Z8AF.:Z8A6TSI                         SAT 08/09/97 10:43 Page:242
        21 006756   006767 710000 21                 TRA     s:16239

     1322    16220
     1323    16221    3              CASE(%CVHI);

     1324    16222    3                SIGNIFICANCE = %TYH_SIGNIFICANCE;

  16222 21 006757   000006 235007                    LDA     6,DL
        21 006760   200024 755100                    STA     SIGNIFICANCE,,AUTO
        21 006761   006767 710000 21                 TRA     s:16239

     1325    16223
     1326    16224    3              CASE(%CVKI);

     1327    16225    3                SIGNIFICANCE = %TYK_SIGNIFICANCE;

  16225 21 006762   000012 235007                    LDA     10,DL
        21 006763   200024 755100                    STA     SIGNIFICANCE,,AUTO
        21 006764   006767 710000 21                 TRA     s:16239

     1328    16226
     1329    16227    3              CASE(ELSE);

     1330    16228    3                SIGNIFICANCE = %TYI_SIGNIFICANCE;

  16228 21 006765   000013 235007                    LDA     11,DL
        21 006766   200024 755100                    STA     SIGNIFICANCE,,AUTO

     1331    16229    3            END /* Case */;

     1332    16230
     1333    16231                 %PACK_NDSC ( @DESC      = ROPCON ,
     1334    16232                              @TN        = %NDSC4 ,
     1335    16233                              @SIGN      = %TRAILING_SIGN ,
     1336    16234                              @LENGTH    = SIGNIFICANCE );

  16239 21 006767   000000 220003                    LDX0    0,DU
PL6.E3A0      #001=Z8AF$FORME_ON_SIZE File=Z8AF.:Z8A6TSI                         SAT 08/09/97 10:43 Page:243
        21 006770   200025 740100                    STX0    ROPCON,,AUTO

  16240 21 006771   000060 236000 22                 LDQ     48
        21 006772   200025 356100                    ANSQ    ROPCON,,AUTO

  16241 21 006773   040000 236007                    LDQ     16384,DL
        21 006774   200025 256100                    ORSQ    ROPCON,,AUTO

  16242 21 006775   200025 236100                    LDQ     ROPCON,,AUTO
        21 006776   000062 376000 22                 ANQ     50
        21 006777   020000 276007                    ORQ     8192,DL
        21 007000   200025 756100                    STQ     ROPCON,,AUTO

  16243 21 007001   000000 236003                    LDQ     0,DU
        21 007002   200025 752102                    STCQ    ROPCON,'02'O,AUTO

  16244 21 007003   000002 235007                    LDA     2,DL
        21 007004   000004 115007                    CMPA    4,DL
        21 007005   007007 602005 21                 TNC     s:16244+4,AL
        21 007006   007221 710000 21                 TRA     s:16549
        21 007007   007022 710000 21                 TRA     s:16278
        21 007010   007016 710000 21                 TRA     s:16251
        21 007011   007016 710000 21                 TRA     s:16251
        21 007012   007013 710000 21                 TRA     s:16246

  16246 21 007013   200024 236100                    LDQ     SIGNIFICANCE,,AUTO
        21 007014   200025 752101                    STCQ    ROPCON,'01'O,AUTO
        21 007015   007221 710000 21                 TRA     s:16549

  16251 21 007016   200024 236100                    LDQ     SIGNIFICANCE,,AUTO
        21 007017   000001 036007                    ADLQ    1,DL
        21 007020   200025 752101                    STCQ    ROPCON,'01'O,AUTO
        21 007021   007221 710000 21                 TRA     s:16549

  16278 21 007022   200024 236100                    LDQ     SIGNIFICANCE,,AUTO
        21 007023   000003 036007                    ADLQ    3,DL
        21 007024   200025 752101                    STCQ    ROPCON,'01'O,AUTO
PL6.E3A0      #001=Z8AF$FORME_ON_SIZE File=Z8AF.:Z8A6TSI                         SAT 08/09/97 10:43 Page:244

  16281 21 007025   007221 710000 21                 TRA     s:16549

     1337    16283
     1338    16284    2          CASE(%CVQI,  %CVRI,  %CVDI);

     1339    16285                 %BUILD_BINARY_DESC ( @DESC    = ROPCON ,
     1340    16286                                      @LENGTH  = %TYI_LENGTH );

  16290 21 007026   200025 450100                    STZ     ROPCON,,AUTO

  16291 21 007027   000004 236007                    LDQ     4,DL
        21 007030   200025 752101                    STCQ    ROPCON,'01'O,AUTO

  16292 21 007031   007221 710000 21                 TRA     s:16549

     1341    16294
     1342    16295    2          CASE(%CVIH);

     1343    16296                 %BUILD_BINARY_DESC ( @DESC    = ROPCON ,
     1344    16297                                      @LENGTH  = %TYH_LENGTH );

  16301 21 007032   200025 450100                    STZ     ROPCON,,AUTO

  16302 21 007033   000002 236007                    LDQ     2,DL
        21 007034   200025 752101                    STCQ    ROPCON,'01'O,AUTO

  16303 21 007035   007221 710000 21                 TRA     s:16549

     1345    16305
     1346    16306    2          CASE(%CVIK);

     1347    16307                 %BUILD_BINARY_DESC ( @DESC    = ROPCON ,
     1348    16308                                      @LENGTH  = %TYK_LENGTH );

  16312 21 007036   200025 450100                    STZ     ROPCON,,AUTO

PL6.E3A0      #001=Z8AF$FORME_ON_SIZE File=Z8AF.:Z8A6TSI                         SAT 08/09/97 10:43 Page:245
  16313 21 007037   000004 236007                    LDQ     4,DL
        21 007040   200025 752101                    STCQ    ROPCON,'01'O,AUTO

  16314 21 007041   007221 710000 21                 TRA     s:16549

     1349    16316
     1350    16317    2          CASE(%CVIJ);

     1351    16318                 %BUILD_BINARY_DESC ( @DESC    = ROPCON ,
     1352    16319                                      @LENGTH  = %TYJ_LENGTH );

  16323 21 007042   200025 450100                    STZ     ROPCON,,AUTO

  16324 21 007043   000002 236007                    LDQ     2,DL
        21 007044   200025 752101                    STCQ    ROPCON,'01'O,AUTO

  16325 21 007045   007221 710000 21                 TRA     s:16549

     1353    16327
     1354    16328    2          CASE(%CVRD4);

     1355    16329                 %PACK_NDSC ( @DESC    = ROPCON ,
     1356    16330                              @TN      = %NDSC4 ,
     1357    16331                              @SIGN    = %FLOATING_POINT_LEADING_SIGN ,
     1358    16332                              @LENGTH  = %TYR_SIGNIFICANCE );

  16337 21 007046   000000 220003                    LDX0    0,DU
        21 007047   200025 740100                    STX0    ROPCON,,AUTO

  16338 21 007050   000060 236000 22                 LDQ     48
        21 007051   200025 356100                    ANSQ    ROPCON,,AUTO

  16339 21 007052   040000 236007                    LDQ     16384,DL
        21 007053   200025 256100                    ORSQ    ROPCON,,AUTO

  16340 21 007054   000062 236000 22                 LDQ     50
        21 007055   200025 356100                    ANSQ    ROPCON,,AUTO
PL6.E3A0      #001=Z8AF$FORME_ON_SIZE File=Z8AF.:Z8A6TSI                         SAT 08/09/97 10:43 Page:246

  16341 21 007056   000000 236003                    LDQ     0,DU
        21 007057   200025 752102                    STCQ    ROPCON,'02'O,AUTO

  16342 21 007060   000000 235003                    LDA     0,DU
        21 007061   000004 115007                    CMPA    4,DL
        21 007062   007064 602005 21                 TNC     s:16342+4,AL
        21 007063   007221 710000 21                 TRA     s:16549
        21 007064   007076 710000 21                 TRA     s:16376
        21 007065   007073 710000 21                 TRA     s:16349
        21 007066   007073 710000 21                 TRA     s:16349
        21 007067   007070 710000 21                 TRA     s:16344

  16344 21 007070   000032 236007                    LDQ     26,DL
        21 007071   200025 752101                    STCQ    ROPCON,'01'O,AUTO
        21 007072   007221 710000 21                 TRA     s:16549

  16349 21 007073   000033 236007                    LDQ     27,DL
        21 007074   200025 752101                    STCQ    ROPCON,'01'O,AUTO
        21 007075   007221 710000 21                 TRA     s:16549

  16376 21 007076   000035 236007                    LDQ     29,DL
        21 007077   200025 752101                    STCQ    ROPCON,'01'O,AUTO

  16379 21 007100   007221 710000 21                 TRA     s:16549

     1359    16381
     1360    16382    2          CASE(%CVQD4);

     1361    16383                 %PACK_NDSC ( @DESC    = ROPCON ,
     1362    16384                              @TN      = %NDSC4 ,
     1363    16385                              @SIGN    = %FLOATING_POINT_LEADING_SIGN ,
     1364    16386                              @LENGTH  = %TYQ_SIGNIFICANCE );

  16391 21 007101   000000 220003                    LDX0    0,DU
        21 007102   200025 740100                    STX0    ROPCON,,AUTO

PL6.E3A0      #001=Z8AF$FORME_ON_SIZE File=Z8AF.:Z8A6TSI                         SAT 08/09/97 10:43 Page:247
  16392 21 007103   000060 236000 22                 LDQ     48
        21 007104   200025 356100                    ANSQ    ROPCON,,AUTO

  16393 21 007105   040000 236007                    LDQ     16384,DL
        21 007106   200025 256100                    ORSQ    ROPCON,,AUTO

  16394 21 007107   000062 236000 22                 LDQ     50
        21 007110   200025 356100                    ANSQ    ROPCON,,AUTO

  16395 21 007111   000000 236003                    LDQ     0,DU
        21 007112   200025 752102                    STCQ    ROPCON,'02'O,AUTO

  16396 21 007113   000000 235003                    LDA     0,DU
        21 007114   000004 115007                    CMPA    4,DL
        21 007115   007117 602005 21                 TNC     s:16396+4,AL
        21 007116   007221 710000 21                 TRA     s:16549
        21 007117   007131 710000 21                 TRA     s:16430
        21 007120   007126 710000 21                 TRA     s:16403
        21 007121   007126 710000 21                 TRA     s:16403
        21 007122   007123 710000 21                 TRA     s:16398

  16398 21 007123   000032 236007                    LDQ     26,DL
        21 007124   200025 752101                    STCQ    ROPCON,'01'O,AUTO
        21 007125   007221 710000 21                 TRA     s:16549

  16403 21 007126   000033 236007                    LDQ     27,DL
        21 007127   200025 752101                    STCQ    ROPCON,'01'O,AUTO
        21 007130   007221 710000 21                 TRA     s:16549

  16430 21 007131   000035 236007                    LDQ     29,DL
        21 007132   200025 752101                    STCQ    ROPCON,'01'O,AUTO

  16433 21 007133   007221 710000 21                 TRA     s:16549

     1365    16435
     1366    16436    2          CASE(%CVRD9);

PL6.E3A0      #001=Z8AF$FORME_ON_SIZE File=Z8AF.:Z8A6TSI                         SAT 08/09/97 10:43 Page:248
     1367    16437                 %PACK_NDSC ( @DESC    = ROPCON ,
     1368    16438                              @TN      = %NDSC9 ,
     1369    16439                              @SIGN    = %FLOATING_POINT_LEADING_SIGN ,
     1370    16440                              @LENGTH  = %TYR_SIGNIFICANCE );

  16445 21 007134   000000 220003                    LDX0    0,DU
        21 007135   200025 740100                    STX0    ROPCON,,AUTO

  16446 21 007136   000060 236000 22                 LDQ     48
        21 007137   200025 356100                    ANSQ    ROPCON,,AUTO

  16447 21 007140   000061 236000 22                 LDQ     49
        21 007141   200025 356100                    ANSQ    ROPCON,,AUTO

  16448 21 007142   000062 236000 22                 LDQ     50
        21 007143   200025 356100                    ANSQ    ROPCON,,AUTO

  16449 21 007144   000000 236003                    LDQ     0,DU
        21 007145   200025 752102                    STCQ    ROPCON,'02'O,AUTO

  16450 21 007146   000000 235003                    LDA     0,DU
        21 007147   000004 115007                    CMPA    4,DL
        21 007150   007152 602005 21                 TNC     s:16450+4,AL
        21 007151   007221 710000 21                 TRA     s:16549
        21 007152   007164 710000 21                 TRA     s:16481
        21 007153   007161 710000 21                 TRA     s:16457
        21 007154   007161 710000 21                 TRA     s:16457
        21 007155   007156 710000 21                 TRA     s:16452

  16452 21 007156   000032 236007                    LDQ     26,DL
        21 007157   200025 752101                    STCQ    ROPCON,'01'O,AUTO
        21 007160   007221 710000 21                 TRA     s:16549

  16457 21 007161   000033 236007                    LDQ     27,DL
        21 007162   200025 752101                    STCQ    ROPCON,'01'O,AUTO
        21 007163   007221 710000 21                 TRA     s:16549

PL6.E3A0      #001=Z8AF$FORME_ON_SIZE File=Z8AF.:Z8A6TSI                         SAT 08/09/97 10:43 Page:249
  16481 21 007164   000034 236007                    LDQ     28,DL
        21 007165   200025 752101                    STCQ    ROPCON,'01'O,AUTO

  16487 21 007166   007221 710000 21                 TRA     s:16549

     1371    16489
     1372    16490    2          CASE(%CVQD9);

     1373    16491                 %PACK_NDSC ( @DESC    = ROPCON ,
     1374    16492                              @TN      = %NDSC9 ,
     1375    16493                              @SIGN    = %FLOATING_POINT_LEADING_SIGN ,
     1376    16494                              @LENGTH  = %TYQ_SIGNIFICANCE );

  16499 21 007167   000000 220003                    LDX0    0,DU
        21 007170   200025 740100                    STX0    ROPCON,,AUTO

  16500 21 007171   000060 236000 22                 LDQ     48
        21 007172   200025 356100                    ANSQ    ROPCON,,AUTO

  16501 21 007173   000061 236000 22                 LDQ     49
        21 007174   200025 356100                    ANSQ    ROPCON,,AUTO

  16502 21 007175   000062 236000 22                 LDQ     50
        21 007176   200025 356100                    ANSQ    ROPCON,,AUTO

  16503 21 007177   000000 236003                    LDQ     0,DU
        21 007200   200025 752102                    STCQ    ROPCON,'02'O,AUTO

  16504 21 007201   000000 235003                    LDA     0,DU
        21 007202   000004 115007                    CMPA    4,DL
        21 007203   007205 602005 21                 TNC     s:16504+4,AL
        21 007204   007221 710000 21                 TRA     s:16549
        21 007205   007217 710000 21                 TRA     s:16535
        21 007206   007214 710000 21                 TRA     s:16511
        21 007207   007214 710000 21                 TRA     s:16511
        21 007210   007211 710000 21                 TRA     s:16506

PL6.E3A0      #001=Z8AF$FORME_ON_SIZE File=Z8AF.:Z8A6TSI                         SAT 08/09/97 10:43 Page:250
  16506 21 007211   000032 236007                    LDQ     26,DL
        21 007212   200025 752101                    STCQ    ROPCON,'01'O,AUTO
        21 007213   007221 710000 21                 TRA     s:16549

  16511 21 007214   000033 236007                    LDQ     27,DL
        21 007215   200025 752101                    STCQ    ROPCON,'01'O,AUTO
        21 007216   007221 710000 21                 TRA     s:16549

  16535 21 007217   000034 236007                    LDQ     28,DL
        21 007220   200025 752101                    STCQ    ROPCON,'01'O,AUTO

     1377    16543
     1378    16544    2        END /* Case */;

     1379    16545
     1380    16546        %EJECT;
PL6.E3A0      #001=Z8AF$FORME_ON_SIZE File=Z8AF.:Z8A6TSI                         SAT 08/09/97 10:43 Page:251
     1381    16547
     1382    16548
     1383    16549    2        DO CASE(COMCOM.CURRENT.PHASE);

  16549 21 007221   000132 235000 xsym               LDA     COMCOM+90
        21 007222   000005 115007                    CMPA    5,DL
        21 007223   007225 602005 21                 TNC     s:16549+4,AL
        21 007224   007404 710000 21                 TRA     EXIT_WITH_TRANSFORMATION
        21 007225   007232 710000 21                 TRA     s:16553
        21 007226   007232 710000 21                 TRA     s:16553
        21 007227   007232 710000 21                 TRA     s:16553
        21 007230   007246 710000 21                 TRA     s:16575
        21 007231   007320 710000 21                 TRA     s:16653

     1384    16550    2          CASE(0,1,2);

     1385    16551                 %SRCH_ETT( @ID = ID, @LOP = LOP, @ROP = ROP, @ETT$ = RESULT$);

  16553 21 007232   200003 470500                    LDP0    @ID,,AUTO
        21 007233   000000 235100                    LDA     0,,PR0
        21 007234   000000 755000 13                 STA     SRCH

  16554 21 007235   200022 236100                    LDQ     LOP,,AUTO
        21 007236   000001 756000 13                 STQ     SRCH+1

  16556 21 007237   200025 236100                    LDQ     ROPCON,,AUTO
        21 007240   000002 756000 13                 STQ     SRCH+2

  16563 21 007241   200006 630500                    EPPR0   @RESULT$,,AUTO
        21 007242   000001 631400 22                 EPPR1   1
        21 007243   000000 701000 xent               TSX1    Z8AS$SR_ETT
        21 007244   000000 011000                    NOP     0

  16564 21 007245   007404 710000 21                 TRA     EXIT_WITH_TRANSFORMATION

     1386    16566
     1387    16567    2          CASE(3);
PL6.E3A0      #001=Z8AF$FORME_ON_SIZE File=Z8AF.:Z8A6TSI                         SAT 08/09/97 10:43 Page:252

     1388    16568                 %NEW_ETT( @ID       = ID,
     1389    16569                           @LOP      = LOP,
     1390    16570                           @ROP      = ROP,
     1391    16571                           @POINTER  = RESULT$);

  16575 21 007246   000000 236000 2                  LDQ     HEAD_ETT$
        21 007247   000003 116000 22                 CMPQ    3
        21 007250   007275 601000 21                 TNZ     s:16587

  16577 21 007251   000002 236000 4                  LDQ     ETT_+2
        21 007252   000005 036007                    ADLQ    5,DL
        21 007253   000003 116000 4                  CMPQ    ETT_+3
        21 007254   007265 604000 21                 TMI     s:16579

  16578 21 007255   000063 236000 22                 LDQ     51
        21 007256   200070 756100                    STQ     @POWER_OF_2+1,,AUTO
        21 007257   200070 630500                    EPPR0   @POWER_OF_2+1,,AUTO
        21 007260   200071 450500                    STP0    @POWER_OF_2+2,,AUTO
        21 007261   200071 630500                    EPPR0   @POWER_OF_2+2,,AUTO
        21 007262   000001 631400 22                 EPPR1   1
        21 007263   000000 701000 xent               TSX1    Z8AR$RESERVER
        21 007264   000000 011000                    NOP     0

  16579 21 007265   000002 236000 4                  LDQ     ETT_+2
        21 007266   000022 736000                    QLS     18
        21 007267   000001 036000 4                  ADLQ    ETT_+1
        21 007270   200006 470500                    LDP0    @RESULT$,,AUTO
        21 007271   000000 756100                    STQ     0,,PR0

  16580 21 007272   000005 236007                    LDQ     5,DL
        21 007273   000002 056000 4                  ASQ     ETT_+2

  16581 21 007274   007302 710000 21                 TRA     s:16597

  16587 21 007275   200006 470500                    LDP0    @RESULT$,,AUTO
        21 007276   000000 756100                    STQ     0,,PR0
PL6.E3A0      #001=Z8AF$FORME_ON_SIZE File=Z8AF.:Z8A6TSI                         SAT 08/09/97 10:43 Page:253

  16588 21 007277   000000 471400 2                  LDP1    HEAD_ETT$
        21 007300   100003 236100                    LDQ     3,,PR1
        21 007301   000000 756000 2                  STQ     HEAD_ETT$

  16597 21 007302   000000 471500                    LDP1    0,,PR0
        21 007303   200003 473500                    LDP3    @ID,,AUTO
        21 007304   300000 720100                    LXL0    0,,PR3
        21 007305   100000 740100                    STX0    0,,PR1

  16620 21 007306   000000 471500                    LDP1    0,,PR0
        21 007307   200022 236100                    LDQ     LOP,,AUTO
        21 007310   100001 756100                    STQ     1,,PR1

  16625 21 007311   000000 471500                    LDP1    0,,PR0
        21 007312   000003 236000 22                 LDQ     3
        21 007313   100003 756100                    STQ     3,,PR1

  16627 21 007314   000000 471500                    LDP1    0,,PR0
        21 007315   200025 236100                    LDQ     ROPCON,,AUTO
        21 007316   100002 756100                    STQ     2,,PR1

  16639 21 007317   007404 710000 21                 TRA     EXIT_WITH_TRANSFORMATION

     1392    16641
     1393    16642    2          CASE(4);

     1394    16643                %SET PHASE = 4;
     1395    16644
     1396    16645                 %NEW_ETT( @ID       = ID,
     1397    16646                           @LOP      = LOP,
     1398    16647                           @ROP      = ROP,
     1399    16648                           @POINTER  = RESULT$,
     1400    16649                           @POOLABLE = YES);

  16653 21 007320   000000 236000 2                  LDQ     HEAD_ETT$
        21 007321   000003 116000 22                 CMPQ    3
PL6.E3A0      #001=Z8AF$FORME_ON_SIZE File=Z8AF.:Z8A6TSI                         SAT 08/09/97 10:43 Page:254
        21 007322   007347 601000 21                 TNZ     s:16665

  16655 21 007323   000002 236000 4                  LDQ     ETT_+2
        21 007324   000005 036007                    ADLQ    5,DL
        21 007325   000003 116000 4                  CMPQ    ETT_+3
        21 007326   007337 604000 21                 TMI     s:16657

  16656 21 007327   000063 236000 22                 LDQ     51
        21 007330   200070 756100                    STQ     @POWER_OF_2+1,,AUTO
        21 007331   200070 630500                    EPPR0   @POWER_OF_2+1,,AUTO
        21 007332   200071 450500                    STP0    @POWER_OF_2+2,,AUTO
        21 007333   200071 630500                    EPPR0   @POWER_OF_2+2,,AUTO
        21 007334   000001 631400 22                 EPPR1   1
        21 007335   000000 701000 xent               TSX1    Z8AR$RESERVER
        21 007336   000000 011000                    NOP     0

  16657 21 007337   000002 236000 4                  LDQ     ETT_+2
        21 007340   000022 736000                    QLS     18
        21 007341   000001 036000 4                  ADLQ    ETT_+1
        21 007342   200006 470500                    LDP0    @RESULT$,,AUTO
        21 007343   000000 756100                    STQ     0,,PR0

  16658 21 007344   000005 236007                    LDQ     5,DL
        21 007345   000002 056000 4                  ASQ     ETT_+2

  16659 21 007346   007354 710000 21                 TRA     s:16675

  16665 21 007347   200006 470500                    LDP0    @RESULT$,,AUTO
        21 007350   000000 756100                    STQ     0,,PR0

  16666 21 007351   000000 471400 2                  LDP1    HEAD_ETT$
        21 007352   100003 236100                    LDQ     3,,PR1
        21 007353   000000 756000 2                  STQ     HEAD_ETT$

  16675 21 007354   000000 471500                    LDP1    0,,PR0
        21 007355   200003 473500                    LDP3    @ID,,AUTO
        21 007356   300000 720100                    LXL0    0,,PR3
PL6.E3A0      #001=Z8AF$FORME_ON_SIZE File=Z8AF.:Z8A6TSI                         SAT 08/09/97 10:43 Page:255
        21 007357   100000 740100                    STX0    0,,PR1

  16680 21 007360   000000 471500                    LDP1    0,,PR0
        21 007361   200022 236100                    LDQ     LOP,,AUTO
        21 007362   100001 756100                    STQ     1,,PR1

  16686 21 007363   000000 471500                    LDP1    0,,PR0
        21 007364   200025 236100                    LDQ     ROPCON,,AUTO
        21 007365   100002 756100                    STQ     2,,PR1

  16691 21 007366   000000 471500                    LDP1    0,,PR0
        21 007367   000000 220003                    LDX0    0,DU
        21 007370   100004 440100                    SXL0    4,,PR1

  16692 21 007371   000000 471500                    LDP1    0,,PR0
        21 007372   000001 236007                    LDQ     1,DL
        21 007373   100004 256100                    ORSQ    4,,PR1

  16693 21 007374   000000 471500                    LDP1    0,,PR0
        21 007375   000000 221003                    LDX1    0,DU
        21 007376   100000 441100                    SXL1    0,,PR1

  16694 21 007377   000000 471500                    LDP1    0,,PR0
        21 007400   100004 741100                    STX1    4,,PR1

  16695 21 007401   000000 471500                    LDP1    0,,PR0
        21 007402   000003 236000 22                 LDQ     3
        21 007403   100003 756100                    STQ     3,,PR1

     1401    16719
     1402    16720                %SET PHASE = 1;
     1403    16721
     1404    16722    2        END /* Case */;

     1405    16723
     1406    16724    1   EXIT_WITH_TRANSFORMATION:
     1407    16725
PL6.E3A0      #001=Z8AF$FORME_ON_SIZE File=Z8AF.:Z8A6TSI                         SAT 08/09/97 10:43 Page:256
     1408    16726    1        RETURN;

  16726 21 007404   000000 702200 xent  EXIT_WITH_T* TSX2  ! X66_ARET

     1409    16727
     1410    16728        %EJECT;
PL6.E3A0      #001=Z8AF$FORME_ON_SIZE File=Z8AF.:Z8A6TSI                         SAT 08/09/97 10:43 Page:257
     1411    16729    1   EXPAND_MULTIPLY_TREE:PROC(POWER_OF_2);

  16729 21 007405   200066 741300       EXPAND_MULT* STX1  ! LX_NUMBER+8,,AUTO

     1412    16730
     1413    16731
     1414    16732    2        DCL POWER_OF_2 SBIN WORD;
     1415    16733
     1416    16734
     1417    16735    2        RESULT$ = LOP;

  16735 21 007406   200022 236100                    LDQ     LOP,,AUTO
        21 007407   200006 470500                    LDP0    @RESULT$,,AUTO
        21 007410   000000 756100                    STQ     0,,PR0

     1418    16736    2        POWER_OF_2 = POWER_OF_2 / 2;

  16736 21 007411   200067 471500                    LDP1    @POWER_OF_2,,AUTO
        21 007412   100000 236100                    LDQ     0,,PR1
        21 007413   000002 506007                    DIV     2,DL
        21 007414   100000 756100                    STQ     0,,PR1

     1419    16737
     1420    16738    3        DO WHILE(POWER_OF_2 ~= 0);

  16738 21 007415   000000 116003                    CMPQ    0,DU
        21 007416   007440 600000 21                 TZE     s:16743

     1421    16739    3          CALL Z8AF$FORME(NEW_ID, RESULT$, RESULT$, RESULT$);

  16739 21 007417   200006 236100                    LDQ     @RESULT$,,AUTO
        21 007420   200006 235100                    LDA     @RESULT$,,AUTO
        21 007421   200072 757100                    STAQ    @POWER_OF_2+3,,AUTO
        21 007422   200006 236100                    LDQ     @RESULT$,,AUTO
        21 007423   200071 756100                    STQ     @POWER_OF_2+2,,AUTO
        21 007424   200045 630500                    EPPR0   NEW_ID,,AUTO
        21 007425   200070 450500                    STP0    @POWER_OF_2+1,,AUTO
PL6.E3A0      #001=Z8AF$FORME_ON_SIZE File=Z8AF.:Z8A6TSI                         SAT 08/09/97 10:43 Page:258
        21 007426   200070 630500                    EPPR0   @POWER_OF_2+1,,AUTO
        21 007427   000000 631400 22                 EPPR1   0
        21 007430   000007 701000 21                 TSX1    s:14232
        21 007431   000000 011000                    NOP     0

     1422    16740    3          POWER_OF_2 = POWER_OF_2 / 2;

  16740 21 007432   200067 470500                    LDP0    @POWER_OF_2,,AUTO
        21 007433   000000 236100                    LDQ     0,,PR0
        21 007434   000002 506007                    DIV     2,DL
        21 007435   000000 756100                    STQ     0,,PR0

     1423    16741    3        END /* While */;

  16741 21 007436   000000 116003                    CMPQ    0,DU
        21 007437   007417 601000 21                 TNZ     s:16739

     1424    16742
     1425    16743    2   END EXPAND_MULTIPLY_TREE;

  16743 21 007440   200066 221300                    LDX1  ! LX_NUMBER+8,,AUTO
        21 007441   000001 702211                    TSX2  ! 1,X1
     1426    16744    1   END Z8AF$FORME_ON_SIZE ;
     1427    16745        %EOD;

PL6.E3A0      #001=Z8AF$FORME_ON_SIZE File=Z8AF.:Z8A6TSI                         SAT 08/09/97 10:43 Page:259
--  Include file information  --

   Z8E_WINDOW.:Z8A6TOU  is referenced.
   Z8A_LEX_SYMB.:Z8A6TOU  cannot be made into a system file and is referenced.
   Z8E_STACKS.:Z8A6TOU  cannot be made into a system file and is referenced.
   Z8A_MKCN.:Z8A6TOU  cannot be made into a system file and is referenced.
   Z8A_SRCH.:Z8A6TOU  cannot be made into a system file and is referenced.
   Z8A_LTS.:Z8A6TOU  cannot be made into a system file and is referenced.
   Z8A_DNT.:Z8A6TOU  cannot be made into a system file and is referenced.
   Z8A_TYPES.:Z8A6TOU  is referenced.
   Z8A_ST.:Z8A6TOU  cannot be made into a system file and is referenced.
   Z8A_ETT.:Z8A6TOU  cannot be made into a system file and is referenced.
   Z8A_DESC.:Z8A6TOU  cannot be made into a system file and is referenced.
   Z8A_COMCOM.:Z8A6TOU  cannot be made into a system file and is referenced.
   X8A_COM_MACS.:X8A6TOU  is referenced.
   Z8A_NAMES.:Z8A6TOU  is referenced.
   Z8A_SUPP_MAC.:Z8A6TOU  is referenced.
   Z8A_DEFC.:Z8A6TOU  cannot be made into a system file and is referenced.
      No diagnostics issued in procedure Z8AF$FORME_ON_SIZE.
PL6.E3A0      #001=Z8AF$FORME_ON_SIZE File=Z8AF.:Z8A6TSI                         SAT 08/09/97 10:43 Page:260

 **** Variables and constants ****

  ****  Section 000 LblCom ITERATION

  ****  Scalars and arrays  ****
OctLoc.c.b A Datatyp(siz) R M Lvl/name                 OctLoc.c.b A Datatyp(siz) R M Lvl/name

     0-0-0/w SBIN              1 ITERATION

  ****  Section 001 LblCom ETT$

  ****  Scalars and arrays  ****
OctLoc.c.b A Datatyp(siz) R M Lvl/name                 OctLoc.c.b A Datatyp(siz) R M Lvl/name

     0-0-0/w PTR         r     1 ETT$

  ****  Section 002 LblCom HEAD_ETT$

  ****  Scalars and arrays  ****
OctLoc.c.b A Datatyp(siz) R M Lvl/name                 OctLoc.c.b A Datatyp(siz) R M Lvl/name

     0-0-0/w PTR         r     1 HEAD_ETT$

  ****  Section 003 LblCom ETT_BUCKETS

  ****  Scalars and arrays  ****
OctLoc.c.b A Datatyp(siz) R M Lvl/name                 OctLoc.c.b A Datatyp(siz) R M Lvl/name

     0-0-0/w PTR               1 ETT_BUCKETS(0:511)

  ****  Section 004 LblCom ETT_

  ****  Scalars and arrays  ****
OctLoc.c.b A Datatyp(siz) R M Lvl/name                 OctLoc.c.b A Datatyp(siz) R M Lvl/name

     0-0-0/w STRC(180)   r     1 ETT_

PL6.E3A0      #001=Z8AF$FORME_ON_SIZE File=Z8AF.:Z8A6TSI                         SAT 08/09/97 10:43 Page:261
  ****  Section 005 LblCom ST$

  ****  Scalars and arrays  ****
OctLoc.c.b A Datatyp(siz) R M Lvl/name                 OctLoc.c.b A Datatyp(siz) R M Lvl/name

     0-0-0/w PTR         r     1 ST$

  ****  Section 006 LblCom ST_

  ****  Scalars and arrays  ****
OctLoc.c.b A Datatyp(siz) R M Lvl/name                 OctLoc.c.b A Datatyp(siz) R M Lvl/name

     0-0-0/w STRC(180)         1 ST_

  ****  Section 007 LblCom DNT$

  ****  Scalars and arrays  ****
OctLoc.c.b A Datatyp(siz) R M Lvl/name                 OctLoc.c.b A Datatyp(siz) R M Lvl/name

     0-0-0/w PTR         r     1 DNT$

  ****  Section 008 LblCom DNT_

  ****  Scalars and arrays  ****
OctLoc.c.b A Datatyp(siz) R M Lvl/name                 OctLoc.c.b A Datatyp(siz) R M Lvl/name

     0-0-0/w STRC(180)         1 DNT_

  ****  Section 009 LblCom DNT_BUCKET_NUMBER

  ****  Scalars and arrays  ****
OctLoc.c.b A Datatyp(siz) R M Lvl/name                 OctLoc.c.b A Datatyp(siz) R M Lvl/name

     0-0-0/w UBIN              1 DNT_BUCKET_NUMBER

  ****  Section 010 LblCom DNT_OF_1$

PL6.E3A0      #001=Z8AF$FORME_ON_SIZE File=Z8AF.:Z8A6TSI                         SAT 08/09/97 10:43 Page:262
  ****  Scalars and arrays  ****
OctLoc.c.b A Datatyp(siz) R M Lvl/name                 OctLoc.c.b A Datatyp(siz) R M Lvl/name

     0-0-0/w PTR               1 DNT_OF_1$

  ****  Section 011 LblCom LTS$

  ****  Scalars and arrays  ****
OctLoc.c.b A Datatyp(siz) R M Lvl/name                 OctLoc.c.b A Datatyp(siz) R M Lvl/name

     0-0-0/w PTR               1 LONG_ITEM$                 0-0-0/w PTR         r     1 LTS$

  ****  Section 012 LblCom LTS_

  ****  Scalars and arrays  ****
OctLoc.c.b A Datatyp(siz) R M Lvl/name                 OctLoc.c.b A Datatyp(siz) R M Lvl/name

     0-0-0/w STRC(180)         1 LTS_

  ****  Section 013 LblCom SRCH

  ****  Scalars and arrays  ****
OctLoc.c.b A Datatyp(siz) R M Lvl/name                 OctLoc.c.b A Datatyp(siz) R M Lvl/name

     0-0-0/w STRC(108)   r     1 SRCH

  ****  Section 014 LblCom MKCN

  ****  Scalars and arrays  ****
OctLoc.c.b A Datatyp(siz) R M Lvl/name                 OctLoc.c.b A Datatyp(siz) R M Lvl/name

     0-0-0/w STRC(72)    r     1 MKCN

  ****  Section 015 LblCom LEX_SYMBOL

  ****  Scalars and arrays  ****
OctLoc.c.b A Datatyp(siz) R M Lvl/name                 OctLoc.c.b A Datatyp(siz) R M Lvl/name
PL6.E3A0      #001=Z8AF$FORME_ON_SIZE File=Z8AF.:Z8A6TSI                         SAT 08/09/97 10:43 Page:263

     0-0-0/w STRC(3240)  r     1 LEX_SYMBOL                 0-0-0/w STRC(3240)        1 LEX_SYMBOL_WORDS

  ****  Section 016 LblCom CURRENT_LEX_SYMBOL$

  ****  Scalars and arrays  ****
OctLoc.c.b A Datatyp(siz) R M Lvl/name                 OctLoc.c.b A Datatyp(siz) R M Lvl/name

     0-0-0/w PTR         r     1 CURRENT_LEX_SYMBOL$

  ****  Section 017 LblCom TEMP_LEX_SYMBOL

  ****  Scalars and arrays  ****
OctLoc.c.b A Datatyp(siz) R M Lvl/name                 OctLoc.c.b A Datatyp(siz) R M Lvl/name

     0-0-0/w STRC(3240)        1 TEMP_LEX_SYMBOL

  ****  Section 018 LblCom TEMP_LEX_SYMBOL2

  ****  Scalars and arrays  ****
OctLoc.c.b A Datatyp(siz) R M Lvl/name                 OctLoc.c.b A Datatyp(siz) R M Lvl/name

     0-0-0/w STRC(3240)        1 TEMP_LEX_SYMBOL2

  ****  Section 019 RoData Z8AF$FORME_ON_SIZE

  ****  Scalars and arrays  ****
OctLoc.c.b A Datatyp(siz) R M Lvl/name                 OctLoc.c.b A Datatyp(siz) R M Lvl/name

     0-0-0/c CHAR(20)    r     1 ZIP

  ****  Section 020  Data  Z8AF$FORME_ON_SIZE

  ****  Scalars and arrays  ****
OctLoc.c.b A Datatyp(siz) R M Lvl/name                 OctLoc.c.b A Datatyp(siz) R M Lvl/name

     0-0-0/w SBIN        r     1 FLOAT_ONE                  1-0-0/w SBIN        r     1 HEX_F_ONE
PL6.E3A0      #001=Z8AF$FORME_ON_SIZE File=Z8AF.:Z8A6TSI                         SAT 08/09/97 10:43 Page:264
     0-0-0/w STRC        r     1 ONE_FLOAT                  1-0-0/w STRC        r     1 ONE_HEX_F

  ****  Auto variables  ****

  ****  Scalars and arrays  ****
OctLoc.c.b A Datatyp(siz) R M Lvl/name                 OctLoc.c.b A Datatyp(siz) R M Lvl/name

     3-0-0/w PTR         r     1 @ID                        4-0-0/w PTR         r     1 @LOP$
     7-0-0/w PTR         r     1 @ON_SIZE_FLAG             67-0-0/w PTR         r     1 @POWER_OF_2
     6-0-0/w PTR         r     1 @RESULT$                   5-0-0/w PTR         r     1 @ROP$
    16-0-0/w UBIN              1 CN                        32-0-0/w PTR         r     1 CONST$
    10-0-0/w STRC              1 DESC                      33-0-0/w PTR         r     1 DNT$$
    *0-0-0/w SBIN        r     1 ID                        46-0-0/w SBIN        r     1 INTEGER
    47-0-0/w SBIN              1 INTEGER2                  15-0-0/w SBIN        r     1 LENGTH
    22-0-0/w PTR         r     1 LOP                       *0-0-0/w PTR         r     1 LOP$
    23-0-0/w PTR         r     1 LOPLOP                    43-0-0/w SBIN        r     1 LOP_CONST
    41-0-0/w SBIN        r     1 LOP_LEN                   35-0-0/w PTR         r     1 LOP_ST$
    37-0-0/w PTR         r     1 LOP_STRING$               56-0-0/d STRC(288)   r     1 LX_NUMBER
    34-0-0/w PTR         r     1 LX_TERMINAL$              45-0-0/w SBIN        r     1 NEW_ID
    20-0-0/w BIT         r     1 ON_SIZE                   *0-0-0/w BIT         r     1 ON_SIZE_FLAG
    54-0-0/h STRC        r     1 PACKED                    50-0-0/w SBIN        r     1 POWER_OF_2
    *0-0-0/w SBIN        r     1 POWER_OF_2                51-0-0/w SBIN        r     1 POWER_OF_2_
    *0-0-0/w PTR         r     1 RESULT$                   25-0-0/w PTR         r     1 ROP
    *0-0-0/w PTR         r     1 ROP$                      25-0-0/w STRC        r     1 ROPCON
    25-0-0/w UBIN        r     1 ROPCON_UBIN               44-0-0/w SBIN        r     1 ROP_CONST
    25-0-0/w STRC        r     1 ROP_FILL                  42-0-0/w SBIN        r     1 ROP_LEN
    36-0-0/w PTR         r     1 ROP_ST$                   40-0-0/w PTR         r     1 ROP_STRING$
    17-0-0/w UBIN              1 SA                        53-0-0/w SBIN        r     1 SBIN_I
    52-0-0/w SBIN        r     1 SBIN_J                    14-0-0/w SBIN        r     1 SCALE
    11-0-0/w BIT (2)     r     1 SIGN                      24-0-0/w SBIN        r     1 SIGNIFICANCE
    21-0-0/w UBIN        r     1 SYMBOL                    13-0-0/w BIT (2)     r     1 TA
    12-0-0/w BIT         r     1 TN                        26-0-0/w STRC(144)   r     1 TYPE_DESC

  ****  SYMREF variables  ****

  ****  Scalars and arrays  ****
OctLoc.c.b A Datatyp(siz) R M Lvl/name                 OctLoc.c.b A Datatyp(siz) R M Lvl/name
PL6.E3A0      #001=Z8AF$FORME_ON_SIZE File=Z8AF.:Z8A6TSI                         SAT 08/09/97 10:43 Page:265

     0-0-0/d STRC(13248) r     1 COMCOM
     0-0-0/w UBIN              1 LTS_STEP(0:37)

  ****  BASED and DCB variables  ****

  ****  Scalars and arrays  ****
OctLoc.c.b A Datatyp(siz) R M Lvl/name                 OctLoc.c.b A Datatyp(siz) R M Lvl/name

     0-0-0/w STRC(288)         1 ADD_STMT                   0-0-0/w STRC(396)         1 ALPHABET
     0-0-0/w STRC(144)         1 ALTER_LTS                  0-0-0/w STRC(3672)        1 ALT_KEY
     0-0-0/w STRC(36864)       1 ARGLIST                    0-0-0/w STRC(396)         1 ARRAY
     0-0-0/w STRC(180)         1 ARRAY_PRESET_LTS           0-0-0/w ASTR(324)   r     1 BASED_LEX_SYMBOL
     0-0-0/w STRC(360)         1 BASED_LEX_SYMBOL_WORDS
     0-0-0/w STRC(288)         1 BASE_LTS                   0-0-0/w STRC(288)         1 BINARY_OP
     0-0-0/w STRC(396)         1 BLOCK                      0-0-0/w STRC(144)         1 BT
     0-0-0/w STRC(288)         1 CALL_STMT                  0-0-0/w STRC(396)         1 CD
     0-0-0/w STRC(288)         1 CD_LTS                     0-0-0/w CHAR(4096)  r     1 CHARS
     0-0-0/w STRC(396)         1 CLASS                      0-0-0/w STRC(288)         1 COMPUTE_STMT
     0-0-0/w STRC(396)         1 CONDITION                  0-0-0/w STRC(396)   r     1 CONST
     0-0-0/w STRC(72)          1 CONT                       0-0-0/w STRC(540)         1 CONTROL_NAME_LTS
     0-0-0/w STRC(1872)        1 COPY_FILE                  0-0-0/w STRC(396)         1 DB
     0-0-0/w STRC(396)         1 DCB_                       0-0-0/w STRC(288)         1 DEFERED_IDENTIFIER
     0-0-0/w STRC(252)         1 DEFERED_ID_TREE            0-0-0/w STRC(288)         1 DEFERED_QUAL_ID
     0-0-0/w STRC(288)         1 DEFERED_SUM_CLAUSE
     0-0-0/w STRC(288)         1 DEFERED_SUM_CLAUSE_LIST
     0-0-0/w STRC(288)         1 DELETE_STMT                0-0-0/w STRC(108)         1 DEPENDING_SIZE
     0-0-0/w STRC(5472)        1 DIMS                       0-0-0/w STRC(288)         1 DIVIDE_STMT
     0-0-0/w STRC(396)         1 DML_ITEM                   0-0-0/w STRC(216)         1 DML_REC
     0-0-0/w ASTR(180)   r     1 DNT                        0-0-0/w STRC(180)   r     1 ETT
     0-0-0/w STRC(73836)       1 EVALUATE                   0-0-0/w STRC(396)         1 FD
     0-0-0/w STRC(1692)        1 FILE_LTS                   0-0-0/w STRC(288)         1 ILS_LIST
     0-0-0/w STRC(108)         1 INDEXES                    0-0-0/w STRC(360)         1 INIT_LTS
     0-0-0/w STRC(288)         1 INSPECT_1_STMT             0-0-0/w STRC(288)         1 INSPECT_2_STMT
     0-0-0/w STRC(288)         1 INSPECT_4_STMT             0-0-0/w STRC(396)         1 INTDEF
     0-0-0/w STRC(180)         1 IO_RESTORE_CHAIN           0-0-0/w STRC(144)         1 KEY
     0-0-0/w STRC(396)         1 LABEL                      0-0-0/w STRC(288)         1 LA_ITEM
PL6.E3A0      #001=Z8AF$FORME_ON_SIZE File=Z8AF.:Z8A6TSI                         SAT 08/09/97 10:43 Page:266
     0-0-0/w STRC(36864) r     1 LCNST                      0-0-0/w STRC(72)          1 LONG
     0-0-0/w STRC              1 LTS                        0-0-0/w STRC(360)         1 LTSS
     0-0-0/w STRC(36936)       1 LTS_PTR_ARRAY              0-0-0/w STRC(504)         1 LX_CD_INPUT
     0-0-0/w STRC(324)         1 LX_CD_I_O                  0-0-0/w STRC(396)         1 LX_CD_OUTPUT
     0-0-0/w STRC(288)         1 LX_ETT_ITEM                0-0-0/w STRC(288)         1 LX_ITEM
     0-0-0/w STRC(288)         1 LX_LARGE                   0-0-0/w STRC(288)         1 LX_LIST
     0-0-0/w STRC(1224)        1 LX_REC_DECL                0-0-0/w STRC(864)         1 LX_REPORT_REC
     0-0-0/w STRC(288)   r     1 LX_TERMINAL                0-0-0/w STRC(396)         1 MNEMONIC
     0-0-0/w STRC(288)         1 MULTIPLY_STMT              0-0-0/w STRC(144)         1 NEL
     0-0-0/w STRC(216)         1 OPEN_LTS                   0-0-0/w STRC(36864)       1 PAGE
     0-0-0/w STRC(396)         1 PARA                       0-0-0/w STRC(144)         1 PRIME
     0-0-0/w STRC(396)         1 PROC_                      0-0-0/w STRC(396)         1 PROC_DEF
     0-0-0/w STRC(900)         1 PROC_SUPP                  0-0-0/w STRC(396)         1 RD
     0-0-0/w STRC(288)         1 READ_STMT                  0-0-0/w STRC(216)         1 REF
     0-0-0/w STRC(108)         1 RENAMES                    0-0-0/w STRC(720)         1 REPORT_01_LTS
     0-0-0/w STRC(432)         1 REPORT_ELEM_LTS            0-0-0/w STRC(252)         1 REPORT_GRP_LTS
     0-0-0/w STRC(1332)        1 REPORT_LTS                 0-0-0/w STRC(288)         1 REWRITE_STMT
     0-0-0/w STRC(144)         1 RVA_LTS                    0-0-0/w STRC(396)         1 SCALAR
     0-0-0/w STRC(396)         1 SD                         0-0-0/w STRC(396)         1 SECTION
     0-0-0/w STRC(396)         1 SEGMENT                    0-0-0/w STRC(360)         1 SEGMENT_LTS
     0-0-0/w STRC(396)         1 ST                         0-0-0/w STRC(288)         1 START_STMT
     0-0-0/w STRC(252)         1 STRING_STMT                0-0-0/w STRC(288)         1 SUBTRACT_STMT
     0-0-0/w STRC(252)         1 SUM_LTS                    0-0-0/w STRC(396)         1 SWITCH
     0-0-0/w STRC(396)         1 SYMBOLIC_CHAR              0-0-0/w STRC(396)         1 SYMDEF_
     0-0-0/w STRC(396)         1 SYMREF_                    0-0-0/w STRC(396)         1 TEMP
     0-0-0/w STRC(288)         1 UNARY_OP                   0-0-0/w STRC(288)         1 UNSTRING_STMT
     0-0-0/d STRC(612)         1 USE                        0-0-0/w STRC(252)         1 USE_SUPP
     0-0-0/w STRC(396)   r     1 VARIABLE                   0-0-0/w STRC(288)         1 WRITE_STMT


   Procedure Z8AF$FORME_ON_SIZE requires 3874 words for executable code.
   Procedure Z8AF$FORME_ON_SIZE requires 62 words of local(AUTO) storage.

