PL6.E3A0      #002=Z8AF$NEW_OFF File=Z8AF.:Z8A6TSI                               SAT 08/09/97 10:54 Page:267
     1428        1        /*T***********************************************************/
     1429        2        /*T*                                                         */
     1430        3        /*T* Copyright (c) Bull HN Information Systems Inc., 1997    */
     1431        4        /*T*                                                         */
     1432        5        /*T***********************************************************/
     1433        6        Z8AF$NEW_OFF:PROC(LOP$, OFFSET, RETURN$);
     1434        7
     1435        8    1        DCL LOP$       PTR;
     1436        9    1        DCL OFFSET     SBIN WORD;
     1437       10    1        DCL RETURN$    PTR;
     1438       11
     1439       12    1        DCL UNITS      SBIN WORD;
     1440       13
     1441       14             %EQU PHASE = 1;
     1442       15             %INCLUDE Z8A_DEFC;
     1443       83             %INCLUDE Z8A_SUPP_MAC;
     1444     2483             %INCLUDE Z8A_ETT;
     1445     2784
     1446     2785
     1447     2786    1        DCL Z8AF$FORME     ENTRY(4);
     1448     2787    1        DCL Z8AU$UNITS     ENTRY(2);
     1449     2788
     1450     2789    1        DCL 1 PACKED    ALIGNED,
     1451     2790    1              2 OFFSET  SBIN HALF UNAL,
     1452     2791    1              2 TYPE    UBIN HALF UNAL;
     1453     2792
     1454     2793
     1455     2794    1        CALL Z8AU$UNITS(LOP$, UNITS);
     1456     2795
     1457     2796    1        PACKED.OFFSET = OFFSET;
     1458     2797    1        PACKED.TYPE   = UNITS;
     1459     2798
     1460     2799    1        CALL Z8AF$FORME(%OFF, LOP$, PACKED, RETURN$);
     1461     2800
     1462     2801    1        RETURN;
     1463     2802
     1464     2803    1   END Z8AF$NEW_OFF;
PL6.E3A0      #002=Z8AF$NEW_OFF File=Z8AF.:Z8A6TSI                               SAT 08/09/97 10:54 Page:268
     1465     2804        %EOD;

PL6.E3A0      #002=Z8AF$NEW_OFF File=Z8AF.:Z8A6TSI                               SAT 08/09/97 10:54 Page:269
--  Include file information  --

   Z8A_ETT.:Z8A6TOU  cannot be made into a system file and is referenced.
   X8A_COM_MACS.:X8A6TOU  is referenced.
   Z8A_NAMES.:Z8A6TOU  is referenced.
   Z8A_SUPP_MAC.:Z8A6TOU  is referenced.
   Z8A_DEFC.:Z8A6TOU  cannot be made into a system file and is referenced.
      No diagnostics issued in procedure Z8AF$NEW_OFF.

   Procedure Z8AF$NEW_OFF requires 27 words for executable code.
   Procedure Z8AF$NEW_OFF requires 12 words of local(AUTO) storage.

PL6.E3A0      #002=Z8AF$NEW_OFF File=Z8AF.:Z8A6TSI                               SAT 08/09/97 10:54 Page:270

 Object Unit name= Z8AF$NEW_OFF                               File name= Z8AF.:Z8A6TOU
 UTS= AUG 09 '97 10:54:42.48 SAT                              Compiler= PL-6/E31         Sev=      00
 SharedLib= :SHARED_SYSTEM                                    Alt SharedLib=


    ****  Control sections  ****

 Sect   Type Bound  Init  Size OctSiz  Section name(segment info)
    0  LblCom even  none     1      1  ITERATION
    1  LblCom even  none     1      1  ETT$
    2  LblCom even  none     1      1  HEAD_ETT$
    3  LblCom even  none   512   1000  ETT_BUCKETS
    4  LblCom even  none     5      5  ETT_
    5   Proc  even  none    27     33  Z8AF$NEW_OFF
    6  RoData even  none     4      4  Z8AF$NEW_OFF

    ****  Entry defs  ****

                              Check   Calling
                             calling  sequence
  Sect OctLoc Primary Altret sequence   type   Parms  Name
     5      0   yes            yes      Std        3  Z8AF$NEW_OFF

  ****  Entry refs  ****

         Check        Calling
        calling       sequence
Altret sequence SRef   type   Args  Name
         yes           Std       2 Z8AU$UNITS
         yes           Std       4 Z8AF$FORME
                       nStd      0 X66_AUTO_3
                       nStd      0 X66_ARET
PL6.E3A0      #002=Z8AF$NEW_OFF File=Z8AF.:Z8A6TSI                               SAT 08/09/97 10:54 Page:271

  ****  Segment refs  ****

  Flags:  r = read only, s = secondary
Flgs Name                             Flgs Name                             Flgs Name
     NULLSID                               ISSID
PL6.E3A0      #002=Z8AF$NEW_OFF File=Z8AF.:Z8A6TSI                               SAT 08/09/97 10:54 Page:272


     1428        1        /*T***********************************************************/
     1429        2        /*T*                                                         */
     1430        3        /*T* Copyright (c) Bull HN Information Systems Inc., 1997    */
     1431        4        /*T*                                                         */
     1432        5        /*T***********************************************************/
     1433        6        Z8AF$NEW_OFF:PROC(LOP$, OFFSET, RETURN$);

      6  5 000000   000000 700200 xent  Z8AF$NEW_OFF TSX0  ! X66_AUTO_3
         5 000001   000014 000003                    ZERO    12,3

     1434        7
     1435        8    1        DCL LOP$       PTR;
     1436        9    1        DCL OFFSET     SBIN WORD;
     1437       10    1        DCL RETURN$    PTR;
     1438       11
     1439       12    1        DCL UNITS      SBIN WORD;
     1440       13
     1441       14             %EQU PHASE = 1;
     1442       15             %INCLUDE Z8A_DEFC;
     1443       83             %INCLUDE Z8A_SUPP_MAC;
     1444     2483             %INCLUDE Z8A_ETT;
     1445     2784
     1446     2785
     1447     2786    1        DCL Z8AF$FORME     ENTRY(4);
     1448     2787    1        DCL Z8AU$UNITS     ENTRY(2);
     1449     2788
     1450     2789    1        DCL 1 PACKED    ALIGNED,
     1451     2790    1              2 OFFSET  SBIN HALF UNAL,
     1452     2791    1              2 TYPE    UBIN HALF UNAL;
     1453     2792
     1454     2793
     1455     2794    1        CALL Z8AU$UNITS(LOP$, UNITS);

   2794  5 000002   200006 630500                    EPPR0   UNITS,,AUTO
         5 000003   200011 450500                    STP0    PACKED+2,,AUTO
         5 000004   200003 236100                    LDQ     @LOP$,,AUTO
PL6.E3A0      #002=Z8AF$NEW_OFF File=Z8AF.:Z8A6TSI                               SAT 08/09/97 10:54 Page:273
         5 000005   200010 756100                    STQ     PACKED+1,,AUTO
         5 000006   200010 630500                    EPPR0   PACKED+1,,AUTO
         5 000007   000000 631400 6                  EPPR1   0
         5 000010   000000 701000 xent               TSX1    Z8AU$UNITS
         5 000011   000000 011000                    NOP     0

     1456     2795
     1457     2796    1        PACKED.OFFSET = OFFSET;

   2796  5 000012   200004 470500                    LDP0    @OFFSET,,AUTO
         5 000013   000000 720100                    LXL0    0,,PR0
         5 000014   200007 740100                    STX0    PACKED,,AUTO

     1458     2797    1        PACKED.TYPE   = UNITS;

   2797  5 000015   200006 721100                    LXL1    UNITS,,AUTO
         5 000016   200007 441100                    SXL1    PACKED,,AUTO

     1459     2798
     1460     2799    1        CALL Z8AF$FORME(%OFF, LOP$, PACKED, RETURN$);

   2799  5 000017   200005 236100                    LDQ     @RETURN$,,AUTO
         5 000020   200013 756100                    STQ     PACKED+4,,AUTO
         5 000021   200007 631500                    EPPR1   PACKED,,AUTO
         5 000022   200012 451500                    STP1    PACKED+3,,AUTO
         5 000023   200003 236100                    LDQ     @LOP$,,AUTO
         5 000024   000003 235000 6                  LDA     3
         5 000025   200010 757100                    STAQ    PACKED+1,,AUTO
         5 000026   200010 630500                    EPPR0   PACKED+1,,AUTO
         5 000027   000001 631400 6                  EPPR1   1
         5 000030   000000 701000 xent               TSX1    Z8AF$FORME
         5 000031   000000 011000                    NOP     0

     1461     2800
     1462     2801    1        RETURN;

   2801  5 000032   000000 702200 xent               TSX2  ! X66_ARET
PL6.E3A0      #002=Z8AF$NEW_OFF File=Z8AF.:Z8A6TSI                               SAT 08/09/97 10:54 Page:274
     1463     2802
     1464     2803    1   END Z8AF$NEW_OFF;
     1465     2804        %EOD;

PL6.E3A0      #002=Z8AF$NEW_OFF File=Z8AF.:Z8A6TSI                               SAT 08/09/97 10:54 Page:275
--  Include file information  --

   Z8A_ETT.:Z8A6TOU  cannot be made into a system file and is referenced.
   X8A_COM_MACS.:X8A6TOU  is referenced.
   Z8A_NAMES.:Z8A6TOU  is referenced.
   Z8A_SUPP_MAC.:Z8A6TOU  is referenced.
   Z8A_DEFC.:Z8A6TOU  cannot be made into a system file and is referenced.
      No diagnostics issued in procedure Z8AF$NEW_OFF.
PL6.E3A0      #002=Z8AF$NEW_OFF File=Z8AF.:Z8A6TSI                               SAT 08/09/97 10:54 Page:276

 **** Variables and constants ****

  ****  Section 000 LblCom ITERATION

  ****  Scalars and arrays  ****
OctLoc.c.b A Datatyp(siz) R M Lvl/name                 OctLoc.c.b A Datatyp(siz) R M Lvl/name

     0-0-0/w SBIN              1 ITERATION

  ****  Section 001 LblCom ETT$

  ****  Scalars and arrays  ****
OctLoc.c.b A Datatyp(siz) R M Lvl/name                 OctLoc.c.b A Datatyp(siz) R M Lvl/name

     0-0-0/w PTR         r     1 ETT$

  ****  Section 002 LblCom HEAD_ETT$

  ****  Scalars and arrays  ****
OctLoc.c.b A Datatyp(siz) R M Lvl/name                 OctLoc.c.b A Datatyp(siz) R M Lvl/name

     0-0-0/w PTR               1 HEAD_ETT$

  ****  Section 003 LblCom ETT_BUCKETS

  ****  Scalars and arrays  ****
OctLoc.c.b A Datatyp(siz) R M Lvl/name                 OctLoc.c.b A Datatyp(siz) R M Lvl/name

     0-0-0/w PTR               1 ETT_BUCKETS(0:511)

  ****  Section 004 LblCom ETT_

  ****  Scalars and arrays  ****
OctLoc.c.b A Datatyp(siz) R M Lvl/name                 OctLoc.c.b A Datatyp(siz) R M Lvl/name

     0-0-0/w STRC(180)         1 ETT_

PL6.E3A0      #002=Z8AF$NEW_OFF File=Z8AF.:Z8A6TSI                               SAT 08/09/97 10:54 Page:277
  ****  Auto variables  ****

  ****  Scalars and arrays  ****
OctLoc.c.b A Datatyp(siz) R M Lvl/name                 OctLoc.c.b A Datatyp(siz) R M Lvl/name

     3-0-0/w PTR         r     1 @LOP$                      4-0-0/w PTR         r     1 @OFFSET
     5-0-0/w PTR         r     1 @RETURN$                  *0-0-0/w PTR         r     1 LOP$
    *0-0-0/w SBIN        r     1 OFFSET                     7-0-0/w STRC        r     1 PACKED
    *0-0-0/w PTR         r     1 RETURN$                    6-0-0/w SBIN        r     1 UNITS

  ****  BASED and DCB variables  ****

  ****  Scalars and arrays  ****
OctLoc.c.b A Datatyp(siz) R M Lvl/name                 OctLoc.c.b A Datatyp(siz) R M Lvl/name

     0-0-0/w CHAR(4096)        1 CHARS                      0-0-0/w STRC(72)          1 CONT
     0-0-0/w STRC(180)         1 ETT                        0-0-0/w STRC(36864)       1 PAGE


   Procedure Z8AF$NEW_OFF requires 27 words for executable code.
   Procedure Z8AF$NEW_OFF requires 12 words of local(AUTO) storage.

PL6.E3A0      #003=Z8AF$NEW_FISS File=Z8AF.:Z8A6TSI                              SAT 08/09/97 10:55 Page:278
     1466        1        /*T***********************************************************/
     1467        2        /*T*                                                         */
     1468        3        /*T* Copyright (c) Bull HN Information Systems Inc., 1997    */
     1469        4        /*T*                                                         */
     1470        5        /*T***********************************************************/
     1471        6        Z8AF$NEW_FISS:PROC(LOP$, LENGTH, TYPE, RETURN$);
     1472        7
     1473        8    1        DCL LOP$       PTR;
     1474        9    1        DCL LENGTH     SBIN WORD;
     1475       10    1        DCL TYPE       SBIN WORD;
     1476       11    1        DCL RETURN$    PTR;
     1477       12
     1478       13
     1479       14             %EQU PHASE = 1;
     1480       15             %INCLUDE Z8A_DEFC;
     1481       83             %INCLUDE Z8A_SUPP_MAC;
     1482     2483             %INCLUDE Z8A_ETT;
     1483     2784
     1484     2785
     1485     2786    1        DCL Z8AF$FORME     ENTRY(4);
     1486     2787
     1487     2788    1        DCL 1 PACKED    ALIGNED,
     1488     2789    1              2 VALUE   SBIN HALF UNAL,
     1489     2790    1              2 TYPE    UBIN HALF UNAL;
     1490     2791
     1491     2792
     1492     2793    1        PACKED.VALUE  = LENGTH;
     1493     2794    1        PACKED.TYPE   = TYPE;
     1494     2795
     1495     2796    1        CALL Z8AF$FORME(%FISS, LOP$, PACKED, RETURN$);
     1496     2797
     1497     2798    1        RETURN;
     1498     2799
     1499     2800    1   END Z8AF$NEW_FISS;
     1500     2801        %EOD;

PL6.E3A0      #003=Z8AF$NEW_FISS File=Z8AF.:Z8A6TSI                              SAT 08/09/97 10:55 Page:279
--  Include file information  --

   Z8A_ETT.:Z8A6TOU  cannot be made into a system file and is referenced.
   X8A_COM_MACS.:X8A6TOU  is referenced.
   Z8A_NAMES.:Z8A6TOU  is referenced.
   Z8A_SUPP_MAC.:Z8A6TOU  is referenced.
   Z8A_DEFC.:Z8A6TOU  cannot be made into a system file and is referenced.
      No diagnostics issued in procedure Z8AF$NEW_FISS.

   Procedure Z8AF$NEW_FISS requires 20 words for executable code.
   Procedure Z8AF$NEW_FISS requires 12 words of local(AUTO) storage.

PL6.E3A0      #003=Z8AF$NEW_FISS File=Z8AF.:Z8A6TSI                              SAT 08/09/97 10:55 Page:280

 Object Unit name= Z8AF$NEW_FISS                              File name= Z8AF.:Z8A6TOU
 UTS= AUG 09 '97 10:55:18.72 SAT                              Compiler= PL-6/E31         Sev=      00
 SharedLib= :SHARED_SYSTEM                                    Alt SharedLib=


    ****  Control sections  ****

 Sect   Type Bound  Init  Size OctSiz  Section name(segment info)
    0  LblCom even  none     1      1  ITERATION
    1  LblCom even  none     1      1  ETT$
    2  LblCom even  none     1      1  HEAD_ETT$
    3  LblCom even  none   512   1000  ETT_BUCKETS
    4  LblCom even  none     5      5  ETT_
    5   Proc  even  none    20     24  Z8AF$NEW_FISS
    6  RoData even  none     3      3  Z8AF$NEW_FISS

    ****  Entry defs  ****

                              Check   Calling
                             calling  sequence
  Sect OctLoc Primary Altret sequence   type   Parms  Name
     5      0   yes            yes      Std        4  Z8AF$NEW_FISS

  ****  Entry refs  ****

         Check        Calling
        calling       sequence
Altret sequence SRef   type   Args  Name
         yes           Std       4 Z8AF$FORME
                       nStd      0 X66_AUTO_4
                       nStd      0 X66_ARET
PL6.E3A0      #003=Z8AF$NEW_FISS File=Z8AF.:Z8A6TSI                              SAT 08/09/97 10:55 Page:281

  ****  Segment refs  ****

  Flags:  r = read only, s = secondary
Flgs Name                             Flgs Name                             Flgs Name
     NULLSID                               ISSID
PL6.E3A0      #003=Z8AF$NEW_FISS File=Z8AF.:Z8A6TSI                              SAT 08/09/97 10:55 Page:282


     1466        1        /*T***********************************************************/
     1467        2        /*T*                                                         */
     1468        3        /*T* Copyright (c) Bull HN Information Systems Inc., 1997    */
     1469        4        /*T*                                                         */
     1470        5        /*T***********************************************************/
     1471        6        Z8AF$NEW_FISS:PROC(LOP$, LENGTH, TYPE, RETURN$);

      6  5 000000   000000 700200 xent  Z8AF$NEW_FI* TSX0  ! X66_AUTO_4
         5 000001   000014 000004                    ZERO    12,4

     1472        7
     1473        8    1        DCL LOP$       PTR;
     1474        9    1        DCL LENGTH     SBIN WORD;
     1475       10    1        DCL TYPE       SBIN WORD;
     1476       11    1        DCL RETURN$    PTR;
     1477       12
     1478       13
     1479       14             %EQU PHASE = 1;
     1480       15             %INCLUDE Z8A_DEFC;
     1481       83             %INCLUDE Z8A_SUPP_MAC;
     1482     2483             %INCLUDE Z8A_ETT;
     1483     2784
     1484     2785
     1485     2786    1        DCL Z8AF$FORME     ENTRY(4);
     1486     2787
     1487     2788    1        DCL 1 PACKED    ALIGNED,
     1488     2789    1              2 VALUE   SBIN HALF UNAL,
     1489     2790    1              2 TYPE    UBIN HALF UNAL;
     1490     2791
     1491     2792
     1492     2793    1        PACKED.VALUE  = LENGTH;

   2793  5 000002   200004 470500                    LDP0    @LENGTH,,AUTO
         5 000003   000000 720100                    LXL0    0,,PR0
         5 000004   200007 740100                    STX0    PACKED,,AUTO

PL6.E3A0      #003=Z8AF$NEW_FISS File=Z8AF.:Z8A6TSI                              SAT 08/09/97 10:55 Page:283
     1493     2794    1        PACKED.TYPE   = TYPE;

   2794  5 000005   200005 471500                    LDP1    @TYPE,,AUTO
         5 000006   100000 721100                    LXL1    0,,PR1
         5 000007   200007 441100                    SXL1    PACKED,,AUTO

     1494     2795
     1495     2796    1        CALL Z8AF$FORME(%FISS, LOP$, PACKED, RETURN$);

   2796  5 000010   200006 236100                    LDQ     @RETURN$,,AUTO
         5 000011   200013 756100                    STQ     PACKED+4,,AUTO
         5 000012   200007 633500                    EPPR3   PACKED,,AUTO
         5 000013   200012 453500                    STP3    PACKED+3,,AUTO
         5 000014   200003 236100                    LDQ     @LOP$,,AUTO
         5 000015   000002 235000 6                  LDA     2
         5 000016   200010 757100                    STAQ    PACKED+1,,AUTO
         5 000017   200010 630500                    EPPR0   PACKED+1,,AUTO
         5 000020   000000 631400 6                  EPPR1   0
         5 000021   000000 701000 xent               TSX1    Z8AF$FORME
         5 000022   000000 011000                    NOP     0

     1496     2797
     1497     2798    1        RETURN;

   2798  5 000023   000000 702200 xent               TSX2  ! X66_ARET
     1498     2799
     1499     2800    1   END Z8AF$NEW_FISS;
     1500     2801        %EOD;

PL6.E3A0      #003=Z8AF$NEW_FISS File=Z8AF.:Z8A6TSI                              SAT 08/09/97 10:55 Page:284
--  Include file information  --

   Z8A_ETT.:Z8A6TOU  cannot be made into a system file and is referenced.
   X8A_COM_MACS.:X8A6TOU  is referenced.
   Z8A_NAMES.:Z8A6TOU  is referenced.
   Z8A_SUPP_MAC.:Z8A6TOU  is referenced.
   Z8A_DEFC.:Z8A6TOU  cannot be made into a system file and is referenced.
      No diagnostics issued in procedure Z8AF$NEW_FISS.
PL6.E3A0      #003=Z8AF$NEW_FISS File=Z8AF.:Z8A6TSI                              SAT 08/09/97 10:55 Page:285

 **** Variables and constants ****

  ****  Section 000 LblCom ITERATION

  ****  Scalars and arrays  ****
OctLoc.c.b A Datatyp(siz) R M Lvl/name                 OctLoc.c.b A Datatyp(siz) R M Lvl/name

     0-0-0/w SBIN              1 ITERATION

  ****  Section 001 LblCom ETT$

  ****  Scalars and arrays  ****
OctLoc.c.b A Datatyp(siz) R M Lvl/name                 OctLoc.c.b A Datatyp(siz) R M Lvl/name

     0-0-0/w PTR         r     1 ETT$

  ****  Section 002 LblCom HEAD_ETT$

  ****  Scalars and arrays  ****
OctLoc.c.b A Datatyp(siz) R M Lvl/name                 OctLoc.c.b A Datatyp(siz) R M Lvl/name

     0-0-0/w PTR               1 HEAD_ETT$

  ****  Section 003 LblCom ETT_BUCKETS

  ****  Scalars and arrays  ****
OctLoc.c.b A Datatyp(siz) R M Lvl/name                 OctLoc.c.b A Datatyp(siz) R M Lvl/name

     0-0-0/w PTR               1 ETT_BUCKETS(0:511)

  ****  Section 004 LblCom ETT_

  ****  Scalars and arrays  ****
OctLoc.c.b A Datatyp(siz) R M Lvl/name                 OctLoc.c.b A Datatyp(siz) R M Lvl/name

     0-0-0/w STRC(180)         1 ETT_

PL6.E3A0      #003=Z8AF$NEW_FISS File=Z8AF.:Z8A6TSI                              SAT 08/09/97 10:55 Page:286
  ****  Auto variables  ****

  ****  Scalars and arrays  ****
OctLoc.c.b A Datatyp(siz) R M Lvl/name                 OctLoc.c.b A Datatyp(siz) R M Lvl/name

     4-0-0/w PTR         r     1 @LENGTH                    3-0-0/w PTR         r     1 @LOP$
     6-0-0/w PTR         r     1 @RETURN$                   5-0-0/w PTR         r     1 @TYPE
    *0-0-0/w SBIN        r     1 LENGTH                    *0-0-0/w PTR         r     1 LOP$
     7-0-0/w STRC        r     1 PACKED                    *0-0-0/w PTR         r     1 RETURN$
    *0-0-0/w SBIN        r     1 TYPE

  ****  BASED and DCB variables  ****

  ****  Scalars and arrays  ****
OctLoc.c.b A Datatyp(siz) R M Lvl/name                 OctLoc.c.b A Datatyp(siz) R M Lvl/name

     0-0-0/w CHAR(4096)        1 CHARS                      0-0-0/w STRC(72)          1 CONT
     0-0-0/w STRC(180)         1 ETT                        0-0-0/w STRC(36864)       1 PAGE


   Procedure Z8AF$NEW_FISS requires 20 words for executable code.
   Procedure Z8AF$NEW_FISS requires 12 words of local(AUTO) storage.

PL6.E3A0      #004=Z8AF$NEW_BASE File=Z8AF.:Z8A6TSI                              SAT 08/09/97 10:55 Page:287
     1501        1        /*T***********************************************************/
     1502        2        /*T*                                                         */
     1503        3        /*T* Copyright (c) Bull HN Information Systems Inc., 1997    */
     1504        4        /*T*                                                         */
     1505        5        /*T***********************************************************/
     1506        6        Z8AF$NEW_BASE: PROC (LOP$, ROP$, RETURN$);
     1507        7
     1508        8        %EQU PHASE = 0;
     1509        9
     1510       10        %INCLUDE Z8A_DEFC;
     1511       78        %INCLUDE Z8A_SUPP_MAC;
     1512     2478        %INCLUDE Z8A_COMCOM;
     1513     3128        %INCLUDE Z8A_LTS;
     1514     5205        %INCLUDE Z8A_ETT;
     1515     5506        %INCLUDE Z8A_ST;
     1516     9165        %INCLUDE Z8A_MKCN;
     1517     9182        %INCLUDE Z8A_SRCH;
     1518     9231
     1519     9232    1   DCL LOP$               PTR;
     1520     9233    1   DCL ROP$               PTR;
     1521     9234    1   DCL RETURN$            PTR;
     1522     9235
     1523     9236    1   DCL Z8AC$MAKE_CONST    ENTRY (1);
     1524     9237    1   DCL Z8AS$SR_ETT        ENTRY (1);
     1525     9238    1   DCL Z8AF$FORME         ENTRY (4);
     1526     9239
     1527     9240    1   DCL LONG$$             PTR;
     1528     9241    1   DCL DEPENDING_SIZE$$   PTR;
     1529     9242    1   DCL CONST$$            PTR;
     1530     9243    1   DCL LOP$$              PTR;
     1531     9244    1   DCL ROP$$              PTR;
     1532     9245
     1533     9246        %EJECT;
PL6.E3A0      #004=Z8AF$NEW_BASE File=Z8AF.:Z8A6TSI                              SAT 08/09/97 10:55 Page:288
     1534     9247
     1535     9248    1      LOP$$ = LOP$;
     1536     9249    1      ROP$$ = ROP$;
     1537     9250
     1538     9251           %SRCH_ETT (@ID   = %BASE,
     1539     9252                      @LOP  = LOP$$,
     1540     9253                      @ROP  = ROP$$,
     1541     9254                      @ETT$ = RETURN$);
     1542     9269
     1543     9270    1      IF LOP$$ -> ST.ID = %PARA OR LOP$$ -> ST.ID = %SECTION THEN
     1544     9271    1        RETURN;
     1545     9272
     1546     9273    1      IF LOP$$ -> VARIABLE.B.OCCURS_DEPENDING THEN
     1547     9274    2        DO;
     1548     9275               %GET_LTS (@ID      = %DEPENDING_SIZE,
     1549     9276                         @ST$    = LOP$$,
     1550     9277                         @RETURN$= DEPENDING_SIZE$$);
     1551     9320
     1552     9321    2          CALL Z8AF$FORME (%SIZ,
     1553     9322    2                           RETURN$,
     1554     9323    2                           DEPENDING_SIZE$$ -> DEPENDING_SIZE.SIZE$,
     1555     9324    2                           RETURN$);
     1556     9325    2        END;
     1557     9326    1      ELSE
     1558     9327    1        IF LOP$$ -> VARIABLE.B.LENGTH_4096 THEN
     1559     9328    2          DO;
     1560     9329                 %GET_LTS (@ID     = %LONG,
     1561     9330                           @ST$    = LOP$$,
     1562     9331                           @RETURN$= LONG$$);
     1563     9374
     1564     9375    2            MKCN.CON = LONG$$ -> LONG.LENGTH;
     1565     9376    2            CALL Z8AC$MAKE_CONST (CONST$$);
     1566     9377
     1567     9378    2            CALL Z8AF$FORME (%SIZ,
     1568     9379    2                             RETURN$,
     1569     9380    2                             CONST$$,
     1570     9381    2                             RETURN$);
PL6.E3A0      #004=Z8AF$NEW_BASE File=Z8AF.:Z8A6TSI                              SAT 08/09/97 10:55 Page:289
     1571     9382    2          END;
     1572     9383
     1573     9384
     1574     9385    1   END Z8AF$NEW_BASE;
     1575     9386        %EOD;

PL6.E3A0      #004=Z8AF$NEW_BASE File=Z8AF.:Z8A6TSI                              SAT 08/09/97 10:55 Page:290
--  Include file information  --

   Z8A_SRCH.:Z8A6TOU  cannot be made into a system file and is referenced.
   Z8A_MKCN.:Z8A6TOU  cannot be made into a system file and is referenced.
   Z8A_ST.:Z8A6TOU  cannot be made into a system file and is referenced.
   Z8A_ETT.:Z8A6TOU  cannot be made into a system file and is referenced.
   Z8A_LTS.:Z8A6TOU  cannot be made into a system file and is referenced.
   Z8A_COMCOM.:Z8A6TOU  cannot be made into a system file and is referenced.
   X8A_COM_MACS.:X8A6TOU  is referenced.
   Z8A_NAMES.:Z8A6TOU  is referenced.
   Z8A_SUPP_MAC.:Z8A6TOU  is referenced.
   Z8A_DEFC.:Z8A6TOU  cannot be made into a system file and is referenced.
      No diagnostics issued in procedure Z8AF$NEW_BASE.

   Procedure Z8AF$NEW_BASE requires 103 words for executable code.
   Procedure Z8AF$NEW_BASE requires 16 words of local(AUTO) storage.

PL6.E3A0      #004=Z8AF$NEW_BASE File=Z8AF.:Z8A6TSI                              SAT 08/09/97 10:55 Page:291

 Object Unit name= Z8AF$NEW_BASE                              File name= Z8AF.:Z8A6TOU
 UTS= AUG 09 '97 10:55:49.64 SAT                              Compiler= PL-6/E31         Sev=      00
 SharedLib= :SHARED_SYSTEM                                    Alt SharedLib=


    ****  Control sections  ****

 Sect   Type Bound  Init  Size OctSiz  Section name(segment info)
    0  LblCom even  none     1      1  ITERATION
    1  LblCom even  none     1      1  LTS$
    2  LblCom even  none     5      5  LTS_
    3  LblCom even  none     1      1  ETT$
    4  LblCom even  none     1      1  HEAD_ETT$
    5  LblCom even  none   512   1000  ETT_BUCKETS
    6  LblCom even  none     5      5  ETT_
    7  LblCom even  none     1      1  ST$
    8  LblCom even  none     5      5  ST_
    9  LblCom even  none     2      2  MKCN
   10  LblCom even  none     3      3  SRCH
   11   Proc  even  none   103    147  Z8AF$NEW_BASE
   12  RoData even  none     5      5  Z8AF$NEW_BASE

    ****  Entry defs  ****

                              Check   Calling
                             calling  sequence
  Sect OctLoc Primary Altret sequence   type   Parms  Name
    11      0   yes            yes      Std        3  Z8AF$NEW_BASE
PL6.E3A0      #004=Z8AF$NEW_BASE File=Z8AF.:Z8A6TSI                              SAT 08/09/97 10:55 Page:292

  ****  Entry refs  ****

         Check        Calling
        calling       sequence
Altret sequence SRef   type   Args  Name
         yes           Std       1 Z8AS$SR_ETT
         yes           Std       4 Z8AF$FORME
         yes           Std       1 Z8AC$MAKE_CONST
                       nStd      0 X66_AUTO_3
                       nStd      0 X66_ARET

  ****  Data refs  ****

  Flags:  r = read only, s = secondary
Flgs Name                             Flgs Name                             Flgs Name
     COMCOM                           r    LTS_STEP

  ****  Segment refs  ****

  Flags:  r = read only, s = secondary
Flgs Name                             Flgs Name                             Flgs Name
     NULLSID                               ISSID
PL6.E3A0      #004=Z8AF$NEW_BASE File=Z8AF.:Z8A6TSI                              SAT 08/09/97 10:55 Page:293


     1501        1        /*T***********************************************************/
     1502        2        /*T*                                                         */
     1503        3        /*T* Copyright (c) Bull HN Information Systems Inc., 1997    */
     1504        4        /*T*                                                         */
     1505        5        /*T***********************************************************/
     1506        6        Z8AF$NEW_BASE: PROC (LOP$, ROP$, RETURN$);

      6 11 000000   000000 700200 xent  Z8AF$NEW_BA* TSX0  ! X66_AUTO_3
        11 000001   000020 000003                    ZERO    16,3

     1507        7
     1508        8        %EQU PHASE = 0;
     1509        9
     1510       10        %INCLUDE Z8A_DEFC;
     1511       78        %INCLUDE Z8A_SUPP_MAC;
     1512     2478        %INCLUDE Z8A_COMCOM;
     1513     3128        %INCLUDE Z8A_LTS;
     1514     5205        %INCLUDE Z8A_ETT;
     1515     5506        %INCLUDE Z8A_ST;
     1516     9165        %INCLUDE Z8A_MKCN;
     1517     9182        %INCLUDE Z8A_SRCH;
     1518     9231
     1519     9232    1   DCL LOP$               PTR;
     1520     9233    1   DCL ROP$               PTR;
     1521     9234    1   DCL RETURN$            PTR;
     1522     9235
     1523     9236    1   DCL Z8AC$MAKE_CONST    ENTRY (1);
     1524     9237    1   DCL Z8AS$SR_ETT        ENTRY (1);
     1525     9238    1   DCL Z8AF$FORME         ENTRY (4);
     1526     9239
     1527     9240    1   DCL LONG$$             PTR;
     1528     9241    1   DCL DEPENDING_SIZE$$   PTR;
     1529     9242    1   DCL CONST$$            PTR;
     1530     9243    1   DCL LOP$$              PTR;
     1531     9244    1   DCL ROP$$              PTR;
     1532     9245
PL6.E3A0      #004=Z8AF$NEW_BASE File=Z8AF.:Z8A6TSI                              SAT 08/09/97 10:55 Page:294
     1533     9246        %EJECT;
PL6.E3A0      #004=Z8AF$NEW_BASE File=Z8AF.:Z8A6TSI                              SAT 08/09/97 10:55 Page:295
     1534     9247
     1535     9248    1      LOP$$ = LOP$;

   9248 11 000002   200003 470500                    LDP0    @LOP$,,AUTO
        11 000003   000000 236100                    LDQ     0,,PR0
        11 000004   200011 756100                    STQ     LOP$$,,AUTO

     1536     9249    1      ROP$$ = ROP$;

   9249 11 000005   200004 471500                    LDP1    @ROP$,,AUTO
        11 000006   100000 236100                    LDQ     0,,PR1
        11 000007   200012 756100                    STQ     ROP$$,,AUTO

     1537     9250
     1538     9251           %SRCH_ETT (@ID   = %BASE,
     1539     9252                      @LOP  = LOP$$,
     1540     9253                      @ROP  = ROP$$,
     1541     9254                      @ETT$ = RETURN$);

   9256 11 000010   000001 235007                    LDA     1,DL
        11 000011   000000 755000 10                 STA     SRCH

   9257 11 000012   200011 236100                    LDQ     LOP$$,,AUTO
        11 000013   000001 756000 10                 STQ     SRCH+1

   9259 11 000014   200012 236100                    LDQ     ROP$$,,AUTO
        11 000015   000002 756000 10                 STQ     SRCH+2

   9266 11 000016   200005 630500                    EPPR0   @RETURN$,,AUTO
        11 000017   000000 631400 12                 EPPR1   0
        11 000020   000000 701000 xent               TSX1    Z8AS$SR_ETT
        11 000021   000000 011000                    NOP     0

     1542     9269
     1543     9270    1      IF LOP$$ -> ST.ID = %PARA OR LOP$$ -> ST.ID = %SECTION THEN

   9270 11 000022   200011 470500                    LDP0    LOP$$,,AUTO
PL6.E3A0      #004=Z8AF$NEW_BASE File=Z8AF.:Z8A6TSI                              SAT 08/09/97 10:55 Page:296
        11 000023   000000 220100                    LDX0    0,,PR0
        11 000024   000771 100003                    CMPX0   505,DU
        11 000025   000030 600000 11                 TZE     s:9271
        11 000026   000770 100003                    CMPX0   504,DU
        11 000027   000031 601000 11                 TNZ     s:9273

     1544     9271    1        RETURN;

   9271 11 000030   000000 702200 xent               TSX2  ! X66_ARET

     1545     9272
     1546     9273    1      IF LOP$$ -> VARIABLE.B.OCCURS_DEPENDING THEN

   9273 11 000031   000003 236100                    LDQ     3,,PR0
        11 000032   000200 316003                    CANQ    128,DU
        11 000033   000075 600000 11                 TZE     s:9327

     1547     9274    2        DO;

     1548     9275               %GET_LTS (@ID      = %DEPENDING_SIZE,
     1549     9276                         @ST$    = LOP$$,
     1550     9277                         @RETURN$= DEPENDING_SIZE$$);

   9279 11 000034   000005 236100                    LDQ     5,,PR0
        11 000035   000001 116000 12                 CMPQ    1
        11 000036   000046 600000 11                 TZE     s:9313
        11 000037   000005 471500                    LDP1    5,,PR0
        11 000040   100000 221100                    LDX1    0,,PR1
        11 000041   001105 101003                    CMPX1   581,DU
        11 000042   000046 601000 11                 TNZ     s:9313

   9291 11 000043   100004 236100                    LDQ     4,,PR1
        11 000044   200007 756100                    STQ     DEPENDING_SIZE$$,,AUTO

   9311 11 000045   000060 710000 11                 TRA     s:9321

   9313 11 000046   000001 116000 12                 CMPQ    1
PL6.E3A0      #004=Z8AF$NEW_BASE File=Z8AF.:Z8A6TSI                              SAT 08/09/97 10:55 Page:297
        11 000047   000056 600000 11                 TZE     s:9317
        11 000050   000005 471500                    LDP1    5,,PR0
        11 000051   100000 221100                    LDX1    0,,PR1
        11 000052   001120 101003                    CMPX1   592,DU
        11 000053   000056 601000 11                 TNZ     s:9317

   9315 11 000054   200007 756100                    STQ     DEPENDING_SIZE$$,,AUTO
        11 000055   000060 710000 11                 TRA     s:9321

   9317 11 000056   000001 236000 12                 LDQ     1
        11 000057   200007 756100                    STQ     DEPENDING_SIZE$$,,AUTO

     1551     9320
     1552     9321    2          CALL Z8AF$FORME (%SIZ,

   9321 11 000060   200005 236100                    LDQ     @RETURN$,,AUTO
        11 000061   200017 756100                    STQ     ROP$$+5,,AUTO
        11 000062   200007 236100                    LDQ     DEPENDING_SIZE$$,,AUTO
        11 000063   000001 036003                    ADLQ    1,DU
        11 000064   200016 756100                    STQ     ROP$$+4,,AUTO
        11 000065   200005 236100                    LDQ     @RETURN$,,AUTO
        11 000066   000004 235000 12                 LDA     4
        11 000067   200014 757100                    STAQ    ROP$$+2,,AUTO
        11 000070   200014 630500                    EPPR0   ROP$$+2,,AUTO
        11 000071   000002 631400 12                 EPPR1   2
        11 000072   000000 701000 xent               TSX1    Z8AF$FORME
        11 000073   000000 011000                    NOP     0

     1553     9322    2                           RETURN$,
     1554     9323    2                           DEPENDING_SIZE$$ -> DEPENDING_SIZE.SIZE$,
     1555     9324    2                           RETURN$);
     1556     9325    2        END;

   9325 11 000074   000146 710000 11                 TRA     s:9385

     1557     9326    1      ELSE
     1558     9327    1        IF LOP$$ -> VARIABLE.B.LENGTH_4096 THEN
PL6.E3A0      #004=Z8AF$NEW_BASE File=Z8AF.:Z8A6TSI                              SAT 08/09/97 10:55 Page:298

   9327 11 000075   004000 316003                    CANQ    2048,DU
        11 000076   000146 600000 11                 TZE     s:9385

     1559     9328    2          DO;

     1560     9329                 %GET_LTS (@ID     = %LONG,
     1561     9330                           @ST$    = LOP$$,
     1562     9331                           @RETURN$= LONG$$);

   9333 11 000077   000005 236100                    LDQ     5,,PR0
        11 000100   000001 116000 12                 CMPQ    1
        11 000101   000111 600000 11                 TZE     s:9367
        11 000102   000005 471500                    LDP1    5,,PR0
        11 000103   100000 221100                    LDX1    0,,PR1
        11 000104   001105 101003                    CMPX1   581,DU
        11 000105   000111 601000 11                 TNZ     s:9367

   9341 11 000106   100003 236100                    LDQ     3,,PR1
        11 000107   200006 756100                    STQ     LONG$$,,AUTO

   9365 11 000110   000123 710000 11                 TRA     s:9375

   9367 11 000111   000001 116000 12                 CMPQ    1
        11 000112   000121 600000 11                 TZE     s:9371
        11 000113   000005 471500                    LDP1    5,,PR0
        11 000114   100000 221100                    LDX1    0,,PR1
        11 000115   001110 101003                    CMPX1   584,DU
        11 000116   000121 601000 11                 TNZ     s:9371

   9369 11 000117   200006 756100                    STQ     LONG$$,,AUTO
        11 000120   000123 710000 11                 TRA     s:9375

   9371 11 000121   000001 236000 12                 LDQ     1
        11 000122   200006 756100                    STQ     LONG$$,,AUTO

     1563     9374
PL6.E3A0      #004=Z8AF$NEW_BASE File=Z8AF.:Z8A6TSI                              SAT 08/09/97 10:55 Page:299
     1564     9375    2            MKCN.CON = LONG$$ -> LONG.LENGTH;

   9375 11 000123   200006 471500                    LDP1    LONG$$,,AUTO
        11 000124   100001 235100                    LDA     1,,PR1
        11 000125   000000 755000 9                  STA     MKCN

     1565     9376    2            CALL Z8AC$MAKE_CONST (CONST$$);

   9376 11 000126   200010 633500                    EPPR3   CONST$$,,AUTO
        11 000127   200014 453500                    STP3    ROP$$+2,,AUTO
        11 000130   200014 630500                    EPPR0   ROP$$+2,,AUTO
        11 000131   000000 631400 12                 EPPR1   0
        11 000132   000000 701000 xent               TSX1    Z8AC$MAKE_CONST
        11 000133   000000 011000                    NOP     0

     1566     9377
     1567     9378    2            CALL Z8AF$FORME (%SIZ,

   9378 11 000134   200005 236100                    LDQ     @RETURN$,,AUTO
        11 000135   200017 756100                    STQ     ROP$$+5,,AUTO
        11 000136   200010 630500                    EPPR0   CONST$$,,AUTO
        11 000137   200016 450500                    STP0    ROP$$+4,,AUTO
        11 000140   000004 235000 12                 LDA     4
        11 000141   200014 757100                    STAQ    ROP$$+2,,AUTO
        11 000142   200014 630500                    EPPR0   ROP$$+2,,AUTO
        11 000143   000002 631400 12                 EPPR1   2
        11 000144   000000 701000 xent               TSX1    Z8AF$FORME
        11 000145   000000 011000                    NOP     0

     1568     9379    2                             RETURN$,
     1569     9380    2                             CONST$$,
     1570     9381    2                             RETURN$);
     1571     9382    2          END;

     1572     9383
     1573     9384
     1574     9385    1   END Z8AF$NEW_BASE;
PL6.E3A0      #004=Z8AF$NEW_BASE File=Z8AF.:Z8A6TSI                              SAT 08/09/97 10:55 Page:300

   9385 11 000146   000000 702200 xent               TSX2  ! X66_ARET
     1575     9386        %EOD;

PL6.E3A0      #004=Z8AF$NEW_BASE File=Z8AF.:Z8A6TSI                              SAT 08/09/97 10:55 Page:301
--  Include file information  --

   Z8A_SRCH.:Z8A6TOU  cannot be made into a system file and is referenced.
   Z8A_MKCN.:Z8A6TOU  cannot be made into a system file and is referenced.
   Z8A_ST.:Z8A6TOU  cannot be made into a system file and is referenced.
   Z8A_ETT.:Z8A6TOU  cannot be made into a system file and is referenced.
   Z8A_LTS.:Z8A6TOU  cannot be made into a system file and is referenced.
   Z8A_COMCOM.:Z8A6TOU  cannot be made into a system file and is referenced.
   X8A_COM_MACS.:X8A6TOU  is referenced.
   Z8A_NAMES.:Z8A6TOU  is referenced.
   Z8A_SUPP_MAC.:Z8A6TOU  is referenced.
   Z8A_DEFC.:Z8A6TOU  cannot be made into a system file and is referenced.
      No diagnostics issued in procedure Z8AF$NEW_BASE.
PL6.E3A0      #004=Z8AF$NEW_BASE File=Z8AF.:Z8A6TSI                              SAT 08/09/97 10:55 Page:302

 **** Variables and constants ****

  ****  Section 000 LblCom ITERATION

  ****  Scalars and arrays  ****
OctLoc.c.b A Datatyp(siz) R M Lvl/name                 OctLoc.c.b A Datatyp(siz) R M Lvl/name

     0-0-0/w SBIN              1 ITERATION

  ****  Section 001 LblCom LTS$

  ****  Scalars and arrays  ****
OctLoc.c.b A Datatyp(siz) R M Lvl/name                 OctLoc.c.b A Datatyp(siz) R M Lvl/name

     0-0-0/w PTR               1 LONG_ITEM$                 0-0-0/w PTR         r     1 LTS$

  ****  Section 002 LblCom LTS_

  ****  Scalars and arrays  ****
OctLoc.c.b A Datatyp(siz) R M Lvl/name                 OctLoc.c.b A Datatyp(siz) R M Lvl/name

     0-0-0/w STRC(180)         1 LTS_

  ****  Section 003 LblCom ETT$

  ****  Scalars and arrays  ****
OctLoc.c.b A Datatyp(siz) R M Lvl/name                 OctLoc.c.b A Datatyp(siz) R M Lvl/name

     0-0-0/w PTR         r     1 ETT$

  ****  Section 004 LblCom HEAD_ETT$

  ****  Scalars and arrays  ****
OctLoc.c.b A Datatyp(siz) R M Lvl/name                 OctLoc.c.b A Datatyp(siz) R M Lvl/name

     0-0-0/w PTR               1 HEAD_ETT$

PL6.E3A0      #004=Z8AF$NEW_BASE File=Z8AF.:Z8A6TSI                              SAT 08/09/97 10:55 Page:303
  ****  Section 005 LblCom ETT_BUCKETS

  ****  Scalars and arrays  ****
OctLoc.c.b A Datatyp(siz) R M Lvl/name                 OctLoc.c.b A Datatyp(siz) R M Lvl/name

     0-0-0/w PTR               1 ETT_BUCKETS(0:511)

  ****  Section 006 LblCom ETT_

  ****  Scalars and arrays  ****
OctLoc.c.b A Datatyp(siz) R M Lvl/name                 OctLoc.c.b A Datatyp(siz) R M Lvl/name

     0-0-0/w STRC(180)         1 ETT_

  ****  Section 007 LblCom ST$

  ****  Scalars and arrays  ****
OctLoc.c.b A Datatyp(siz) R M Lvl/name                 OctLoc.c.b A Datatyp(siz) R M Lvl/name

     0-0-0/w PTR         r     1 ST$

  ****  Section 008 LblCom ST_

  ****  Scalars and arrays  ****
OctLoc.c.b A Datatyp(siz) R M Lvl/name                 OctLoc.c.b A Datatyp(siz) R M Lvl/name

     0-0-0/w STRC(180)         1 ST_

  ****  Section 009 LblCom MKCN

  ****  Scalars and arrays  ****
OctLoc.c.b A Datatyp(siz) R M Lvl/name                 OctLoc.c.b A Datatyp(siz) R M Lvl/name

     0-0-0/w STRC(72)    r     1 MKCN

  ****  Section 010 LblCom SRCH

PL6.E3A0      #004=Z8AF$NEW_BASE File=Z8AF.:Z8A6TSI                              SAT 08/09/97 10:55 Page:304
  ****  Scalars and arrays  ****
OctLoc.c.b A Datatyp(siz) R M Lvl/name                 OctLoc.c.b A Datatyp(siz) R M Lvl/name

     0-0-0/w STRC(108)   r     1 SRCH

  ****  Auto variables  ****

  ****  Scalars and arrays  ****
OctLoc.c.b A Datatyp(siz) R M Lvl/name                 OctLoc.c.b A Datatyp(siz) R M Lvl/name

     3-0-0/w PTR         r     1 @LOP$                      5-0-0/w PTR         r     1 @RETURN$
     4-0-0/w PTR         r     1 @ROP$                     10-0-0/w PTR         r     1 CONST$$
     7-0-0/w PTR         r     1 DEPENDING_SIZE$$           6-0-0/w PTR         r     1 LONG$$
    *0-0-0/w PTR         r     1 LOP$                      11-0-0/w PTR         r     1 LOP$$
    *0-0-0/w PTR         r     1 RETURN$                   *0-0-0/w PTR         r     1 ROP$
    12-0-0/w PTR         r     1 ROP$$

  ****  SYMREF variables  ****

  ****  Scalars and arrays  ****
OctLoc.c.b A Datatyp(siz) R M Lvl/name                 OctLoc.c.b A Datatyp(siz) R M Lvl/name

     0-0-0/d STRC(13248)       1 COMCOM
     0-0-0/w UBIN              1 LTS_STEP(0:37)

  ****  BASED and DCB variables  ****

  ****  Scalars and arrays  ****
OctLoc.c.b A Datatyp(siz) R M Lvl/name                 OctLoc.c.b A Datatyp(siz) R M Lvl/name

     0-0-0/w STRC(396)         1 ALPHABET                   0-0-0/w STRC(144)         1 ALTER_LTS
     0-0-0/w STRC(3672)        1 ALT_KEY                    0-0-0/w STRC(36864)       1 ARGLIST
     0-0-0/w STRC(396)         1 ARRAY                      0-0-0/w STRC(180)         1 ARRAY_PRESET_LTS
     0-0-0/w STRC(288)         1 BASE_LTS                   0-0-0/w STRC(396)         1 BLOCK
     0-0-0/w STRC(144)         1 BT                         0-0-0/w STRC(396)         1 CD
     0-0-0/w STRC(288)         1 CD_LTS                     0-0-0/w CHAR(4096)        1 CHARS
     0-0-0/w STRC(396)         1 CLASS                      0-0-0/w STRC(396)         1 CONDITION
PL6.E3A0      #004=Z8AF$NEW_BASE File=Z8AF.:Z8A6TSI                              SAT 08/09/97 10:55 Page:305
     0-0-0/w STRC(396)         1 CONST                      0-0-0/w STRC(72)          1 CONT
     0-0-0/w STRC(540)         1 CONTROL_NAME_LTS           0-0-0/w STRC(1872)        1 COPY_FILE
     0-0-0/w STRC(396)         1 DB                         0-0-0/w STRC(396)         1 DCB_
     0-0-0/w STRC(108)   r     1 DEPENDING_SIZE             0-0-0/w STRC(5472)        1 DIMS
     0-0-0/w STRC(396)         1 DML_ITEM                   0-0-0/w STRC(216)         1 DML_REC
     0-0-0/w STRC(180)         1 ETT                        0-0-0/w STRC(73836)       1 EVALUATE
     0-0-0/w STRC(396)         1 FD                         0-0-0/w STRC(1692)        1 FILE_LTS
     0-0-0/w STRC(108)         1 INDEXES                    0-0-0/w STRC(360)         1 INIT_LTS
     0-0-0/w STRC(396)         1 INTDEF                     0-0-0/w STRC(180)         1 IO_RESTORE_CHAIN
     0-0-0/w STRC(144)         1 KEY                        0-0-0/w STRC(396)         1 LABEL
     0-0-0/w STRC(36864)       1 LCNST                      0-0-0/w STRC(72)    r     1 LONG
     0-0-0/w STRC        r     1 LTS                        0-0-0/w STRC(360)   r     1 LTSS
     0-0-0/w STRC(36936)       1 LTS_PTR_ARRAY              0-0-0/w STRC(396)         1 MNEMONIC
     0-0-0/w STRC(144)         1 NEL                        0-0-0/w STRC(216)         1 OPEN_LTS
     0-0-0/w STRC(36864)       1 PAGE                       0-0-0/w STRC(396)         1 PARA
     0-0-0/w STRC(144)         1 PRIME                      0-0-0/w STRC(396)         1 PROC_
     0-0-0/w STRC(396)         1 PROC_DEF                   0-0-0/w STRC(900)         1 PROC_SUPP
     0-0-0/w STRC(396)         1 RD                         0-0-0/w STRC(216)         1 REF
     0-0-0/w STRC(108)         1 RENAMES                    0-0-0/w STRC(720)         1 REPORT_01_LTS
     0-0-0/w STRC(432)         1 REPORT_ELEM_LTS            0-0-0/w STRC(252)         1 REPORT_GRP_LTS
     0-0-0/w STRC(1332)        1 REPORT_LTS                 0-0-0/w STRC(144)         1 RVA_LTS
     0-0-0/w STRC(396)         1 SCALAR                     0-0-0/w STRC(396)         1 SD
     0-0-0/w STRC(396)         1 SECTION                    0-0-0/w STRC(396)         1 SEGMENT
     0-0-0/w STRC(360)         1 SEGMENT_LTS                0-0-0/w STRC(396)   r     1 ST
     0-0-0/w STRC(252)         1 SUM_LTS                    0-0-0/w STRC(396)         1 SWITCH
     0-0-0/w STRC(396)         1 SYMBOLIC_CHAR              0-0-0/w STRC(396)         1 SYMDEF_
     0-0-0/w STRC(396)         1 SYMREF_                    0-0-0/w STRC(396)         1 TEMP
     0-0-0/d STRC(612)         1 USE                        0-0-0/w STRC(252)         1 USE_SUPP
     0-0-0/w STRC(396)   r     1 VARIABLE


   Procedure Z8AF$NEW_BASE requires 103 words for executable code.
   Procedure Z8AF$NEW_BASE requires 16 words of local(AUTO) storage.

PL6.E3A0      #005=Z8AF$NEW_OFF_AND_SSOP File=Z8AF.:Z8A6TSI                      SAT 08/09/97 10:58 Page:306
     1576        1        /*T***********************************************************/
     1577        2        /*T*                                                         */
     1578        3        /*T* Copyright (c) Bull HN Information Systems Inc., 1997    */
     1579        4        /*T*                                                         */
     1580        5        /*T***********************************************************/
     1581        6        Z8AF$NEW_OFF_AND_SSOP: PROC (LOP$, OFF, ROP_SSOP$, RETURN$);
     1582        7
     1583        8             %EQU PHASE = 1;
     1584        9
     1585       10             %INCLUDE Z8A_DEFC;
     1586       78             %INCLUDE Z8A_SUPP_MAC;
     1587     2478             %INCLUDE Z8A_COMCOM;
     1588     3128             %INCLUDE Z8A_TYPES;
     1589     3302             %INCLUDE Z8A_ETT;
     1590     3603             %INCLUDE Z8A_MKCN;
     1591     3620
     1592     3621    1        DCL Z8AC$MAKE_CONST      ENTRY (1);
     1593     3622    1        DCL Z8AF$FORME           ENTRY (4);
     1594     3623    1        DCL Z8AF$NEW_OFF         ENTRY (3);
     1595     3624    1        DCL Z8AF$COMBINE_SSOPS   ENTRY (4);
     1596     3625    1        DCL Z8AU$TYPE_DESCRIPTOR ENTRY (2);
     1597     3626
     1598     3627
     1599     3628    1        DCL LOP$                 PTR;
     1600     3629    1        DCL ROP_SSOP$            PTR;
     1601     3630    1        DCL RETURN$              PTR;
     1602     3631    1        DCL OFF                  SBIN WORD;
     1603     3632
     1604     3633    1        DCL 1 TYPE_DESC          ALIGNED,
     1605     3634                   %TYPE_DESC;
     1606     3668
     1607     3669    1        DCL LOP$$                PTR;
     1608     3670    1        DCL ROP_SSOP$$           PTR;
     1609     3671    1        DCL CONST$               PTR;
     1610     3672    1        DCL OFF_SAVED            SBIN WORD;
     1611     3673    1        DCL SBCHK_FLAG           BIT (1);                     /*#42050*/
     1612     3674        %EJECT;
PL6.E3A0      #005=Z8AF$NEW_OFF_AND_SSOP File=Z8AF.:Z8A6TSI                      SAT 08/09/97 10:58 Page:307
     1613     3675    1        SBCHK_FLAG = '1'B;                                    /*#42050*/
     1614     3676    1        GOTO OFF_SSOP_START;
     1615     3677             /**/
     1616     3678    1   Z8AF$NEW_OFF_AND_SSOP_NO_SBCHK: ENTRY (LOP$, OFF, ROP_SSOP$, RETURN$);
     1617     3679    1        SBCHK_FLAG = '0'B;
     1618     3680    1   OFF_SSOP_START:
     1619     3681    1        LOP$$ = LOP$;
     1620     3682    1        OFF_SAVED = OFF;
     1621     3683    1        ROP_SSOP$$ = ROP_SSOP$;
     1622     3684
     1623     3685
     1624     3686    1        CALL Z8AU$TYPE_DESCRIPTOR (LOP$$, TYPE_DESC);
     1625     3687
     1626     3688    1        IF LOP$$ -> ETT.ID = %SIZ OR LOP$$ -> ETT.ID = %FISS
     1627     3689    1            OR LOP$$ -> ETT.ID = %REFMOD THEN
     1628     3690    1          LOP$$ = LOP$$ -> ETT.LOP;
     1629     3691
     1630     3692    1        IF TYPE_DESC.SSOP$ = ADDR(NIL) THEN
     1631     3693    2          DO;
     1632     3694    3            IF SBCHK_FLAG AND COMCOM.OB.SUBCHK THEN DO; /* Insert SBCHK under SSOP */
     1633     3695                   /*#42050*/
     1634     3696    3              OFF_SAVED = OFF_SAVED + 1;
     1635     3697    4              IF LOP$$ -> ETT.ID = %OFF THEN DO;
     1636     3698    4                OFF_SAVED = OFF_SAVED + LOP$$ -> ETT.OFFSET.VALUE;
     1637     3699    4                LOP$$ = LOP$$ -> ETT.LOP;
     1638     3700    4              END;
     1639     3701    3              CALL Z8AF$NEW_OFF (LOP$$,
     1640     3702    3                                 -1,
     1641     3703    3                                 LOP$$);
     1642     3704    4              IF OFF_SAVED ~= 0 THEN DO;
     1643     3705    4                MKCN.CON = OFF_SAVED;
     1644     3706    4                CALL Z8AC$MAKE_CONST (CONST$);
     1645     3707    4                CALL Z8AF$FORME (%ADI, ROP_SSOP$$, CONST$, ROP_SSOP$$);
     1646     3708    4              END;
     1647     3709    4              IF TYPE_DESC.SIZ$ = ADDR(NIL) THEN DO;
     1648     3710    4                IF TYPE_DESC.TYPE = %TYA OR TYPE_DESC.TYPE = %TYN
     1649     3711    4                  THEN MKCN.CON = TYPE_DESC.DESC.ADSC.N;
PL6.E3A0      #005=Z8AF$NEW_OFF_AND_SSOP File=Z8AF.:Z8A6TSI                      SAT 08/09/97 10:58 Page:308
     1650     3712    4                  ELSE MKCN.CON = TYPE_DESC.DESC.NDSC.N;
     1651     3713    4                CALL Z8AC$MAKE_CONST (TYPE_DESC.SIZ$);
     1652     3714    4              END;
     1653     3715    3              CALL Z8AF$FORME (%SBCHK, ROP_SSOP$$, TYPE_DESC.SIZ$, ROP_SSOP$$);
     1654     3716    3            END; /* SBCHK_FLAG AND COMCOM.OB.SUBCHK */
     1655     3717    3            ELSE DO;
     1656     3718    3              IF LOP$$ -> ETT.ID ~= %OFF THEN
     1657     3719    3                CALL Z8AF$NEW_OFF (LOP$$, OFF_SAVED, LOP$$);
     1658     3720    3              ELSE
     1659     3721    3                IF OFF ~= 0 THEN
     1660     3722    3                  CALL Z8AF$NEW_OFF (LOP$$ -> ETT.LOP,           /*#39234*/
     1661     3723    3                                     OFF_SAVED + LOP$$ -> ETT.OFFSET.VALUE,
     1662     3724    3                                     LOP$$);
     1663     3725    3            END;
     1664     3726    2            CALL Z8AF$FORME   (%SSOP, LOP$$, ROP_SSOP$$, RETURN$);
     1665     3727    2          END;
     1666     3728    1        ELSE
     1667     3729    1          CALL Z8AF$COMBINE_SSOPS (LOP$$, OFF_SAVED, ROP_SSOP$$, RETURN$);
     1668     3730
     1669     3731    1   END Z8AF$NEW_OFF_AND_SSOP;
     1670     3732        %EOD;

PL6.E3A0      #005=Z8AF$NEW_OFF_AND_SSOP File=Z8AF.:Z8A6TSI                      SAT 08/09/97 10:58 Page:309
--  Include file information  --

   Z8A_MKCN.:Z8A6TOU  cannot be made into a system file and is referenced.
   Z8A_ETT.:Z8A6TOU  cannot be made into a system file and is referenced.
   Z8A_TYPES.:Z8A6TOU  is referenced.
   Z8A_COMCOM.:Z8A6TOU  cannot be made into a system file and is referenced.
   X8A_COM_MACS.:X8A6TOU  is referenced.
   Z8A_NAMES.:Z8A6TOU  is referenced.
   Z8A_SUPP_MAC.:Z8A6TOU  is referenced.
   Z8A_DEFC.:Z8A6TOU  cannot be made into a system file and is referenced.
      No diagnostics issued in procedure Z8AF$NEW_OFF_AND_SSOP.

   Procedure Z8AF$NEW_OFF_AND_SSOP requires 177 words for executable code.
   Procedure Z8AF$NEW_OFF_AND_SSOP requires 20 words of local(AUTO) storage.

PL6.E3A0      #005=Z8AF$NEW_OFF_AND_SSOP File=Z8AF.:Z8A6TSI                      SAT 08/09/97 10:58 Page:310

 Object Unit name= Z8AF$NEW_OFF_AND_SSOP                      File name= Z8AF.:Z8A6TOU
 UTS= AUG 09 '97 10:58:22.04 SAT                              Compiler= PL-6/E31         Sev=      00
 SharedLib= :SHARED_SYSTEM                                    Alt SharedLib=


    ****  Control sections  ****

 Sect   Type Bound  Init  Size OctSiz  Section name(segment info)
    0  LblCom even  none     1      1  ITERATION
    1  LblCom even  none     1      1  ETT$
    2  LblCom even  none     1      1  HEAD_ETT$
    3  LblCom even  none   512   1000  ETT_BUCKETS
    4  LblCom even  none     5      5  ETT_
    5  LblCom even  none     2      2  MKCN
    6   Proc  even  none   177    261  Z8AF$NEW_OFF_AND_SSOP
    7  RoData even  none    13     15  Z8AF$NEW_OFF_AND_SSOP

    ****  Entry defs  ****

                              Check   Calling
                             calling  sequence
  Sect OctLoc Primary Altret sequence   type   Parms  Name
     6      0   yes            yes      Std        4  Z8AF$NEW_OFF_AND_SSOP
     6      5                  yes      Std        4  Z8AF$NEW_OFF_AND_SSOP_NO_SBCHK

  ****  Entry refs  ****

         Check        Calling
        calling       sequence
Altret sequence SRef   type   Args  Name
         yes           Std       2 Z8AU$TYPE_DESCRIPTOR
         yes           Std       3 Z8AF$NEW_OFF
         yes           Std       1 Z8AC$MAKE_CONST
         yes           Std       4 Z8AF$FORME
         yes           Std       4 Z8AF$COMBINE_SSOPS
                       nStd      0 X66_AUTO_4
                       nStd      0 X66_ARET
PL6.E3A0      #005=Z8AF$NEW_OFF_AND_SSOP File=Z8AF.:Z8A6TSI                      SAT 08/09/97 10:58 Page:311

  ****  Data refs  ****

  Flags:  r = read only, s = secondary
Flgs Name                             Flgs Name                             Flgs Name
     COMCOM

  ****  Segment refs  ****

  Flags:  r = read only, s = secondary
Flgs Name                             Flgs Name                             Flgs Name
     NULLSID                               ISSID
PL6.E3A0      #005=Z8AF$NEW_OFF_AND_SSOP File=Z8AF.:Z8A6TSI                      SAT 08/09/97 10:58 Page:312


     1576        1        /*T***********************************************************/
     1577        2        /*T*                                                         */
     1578        3        /*T* Copyright (c) Bull HN Information Systems Inc., 1997    */
     1579        4        /*T*                                                         */
     1580        5        /*T***********************************************************/
     1581        6        Z8AF$NEW_OFF_AND_SSOP: PROC (LOP$, OFF, ROP_SSOP$, RETURN$);

      6  6 000000   000000 700200 xent  Z8AF$NEW_OF* TSX0  ! X66_AUTO_4
         6 000001   000024 000004                    ZERO    20,4

     1582        7
     1583        8             %EQU PHASE = 1;
     1584        9
     1585       10             %INCLUDE Z8A_DEFC;
     1586       78             %INCLUDE Z8A_SUPP_MAC;
     1587     2478             %INCLUDE Z8A_COMCOM;
     1588     3128             %INCLUDE Z8A_TYPES;
     1589     3302             %INCLUDE Z8A_ETT;
     1590     3603             %INCLUDE Z8A_MKCN;
     1591     3620
     1592     3621    1        DCL Z8AC$MAKE_CONST      ENTRY (1);
     1593     3622    1        DCL Z8AF$FORME           ENTRY (4);
     1594     3623    1        DCL Z8AF$NEW_OFF         ENTRY (3);
     1595     3624    1        DCL Z8AF$COMBINE_SSOPS   ENTRY (4);
     1596     3625    1        DCL Z8AU$TYPE_DESCRIPTOR ENTRY (2);
     1597     3626
     1598     3627
     1599     3628    1        DCL LOP$                 PTR;
     1600     3629    1        DCL ROP_SSOP$            PTR;
     1601     3630    1        DCL RETURN$              PTR;
     1602     3631    1        DCL OFF                  SBIN WORD;
     1603     3632
     1604     3633    1        DCL 1 TYPE_DESC          ALIGNED,
     1605     3634                   %TYPE_DESC;
     1606     3668
     1607     3669    1        DCL LOP$$                PTR;
PL6.E3A0      #005=Z8AF$NEW_OFF_AND_SSOP File=Z8AF.:Z8A6TSI                      SAT 08/09/97 10:58 Page:313
     1608     3670    1        DCL ROP_SSOP$$           PTR;
     1609     3671    1        DCL CONST$               PTR;
     1610     3672    1        DCL OFF_SAVED            SBIN WORD;
     1611     3673    1        DCL SBCHK_FLAG           BIT (1);                     /*#42050*/
     1612     3674        %EJECT;
PL6.E3A0      #005=Z8AF$NEW_OFF_AND_SSOP File=Z8AF.:Z8A6TSI                      SAT 08/09/97 10:58 Page:314
     1613     3675    1        SBCHK_FLAG = '1'B;                                    /*#42050*/

   3675  6 000002   400000 236003                    LDQ     -131072,DU
         6 000003   200017 756100                    STQ     SBCHK_FLAG,,AUTO

     1614     3676    1        GOTO OFF_SSOP_START;

   3676  6 000004   000010 710000 6                  TRA     OFF_SSOP_START

     1615     3677             /**/
     1616     3678    1   Z8AF$NEW_OFF_AND_SSOP_NO_SBCHK: ENTRY (LOP$, OFF, ROP_SSOP$, RETURN$);

   3678  6 000005   000000 700200 xent  Z8AF$NEW_OF* TSX0  ! X66_AUTO_4
         6 000006   000024 000004                    ZERO    20,4

     1617     3679    1        SBCHK_FLAG = '0'B;

   3679  6 000007   200017 450100                    STZ     SBCHK_FLAG,,AUTO

     1618     3680    1   OFF_SSOP_START:
     1619     3681    1        LOP$$ = LOP$;

   3681  6 000010   200003 470500       OFF_SSOP_ST* LDP0    @LOP$,,AUTO
         6 000011   000000 236100                    LDQ     0,,PR0
         6 000012   200013 756100                    STQ     LOP$$,,AUTO

     1620     3682    1        OFF_SAVED = OFF;

   3682  6 000013   200004 471500                    LDP1    @OFF,,AUTO
         6 000014   100000 235100                    LDA     0,,PR1
         6 000015   200016 755100                    STA     OFF_SAVED,,AUTO

     1621     3683    1        ROP_SSOP$$ = ROP_SSOP$;

   3683  6 000016   200005 473500                    LDP3    @ROP_SSOP$,,AUTO
         6 000017   300000 236100                    LDQ     0,,PR3
         6 000020   200014 756100                    STQ     ROP_SSOP$$,,AUTO
PL6.E3A0      #005=Z8AF$NEW_OFF_AND_SSOP File=Z8AF.:Z8A6TSI                      SAT 08/09/97 10:58 Page:315

     1622     3684
     1623     3685
     1624     3686    1        CALL Z8AU$TYPE_DESCRIPTOR (LOP$$, TYPE_DESC);

   3686  6 000021   200007 634500                    EPPR4   TYPE_DESC,,AUTO
         6 000022   200021 454500                    STP4    SBCHK_FLAG+2,,AUTO
         6 000023   200013 635500                    EPPR5   LOP$$,,AUTO
         6 000024   200020 455500                    STP5    SBCHK_FLAG+1,,AUTO
         6 000025   200020 630500                    EPPR0   SBCHK_FLAG+1,,AUTO
         6 000026   000000 631400 7                  EPPR1   0
         6 000027   000000 701000 xent               TSX1    Z8AU$TYPE_DESCRIPTOR
         6 000030   000000 011000                    NOP     0

     1625     3687
     1626     3688    1        IF LOP$$ -> ETT.ID = %SIZ OR LOP$$ -> ETT.ID = %FISS

   3688  6 000031   200013 470500                    LDP0    LOP$$,,AUTO
         6 000032   000000 220100                    LDX0    0,,PR0
         6 000033   000004 100003                    CMPX0   4,DU
         6 000034   000041 600000 6                  TZE     s:3690
         6 000035   000002 100003                    CMPX0   2,DU
         6 000036   000041 600000 6                  TZE     s:3690
         6 000037   000012 100003                    CMPX0   10,DU
         6 000040   000043 601000 6                  TNZ     s:3692

     1627     3689    1            OR LOP$$ -> ETT.ID = %REFMOD THEN
     1628     3690    1          LOP$$ = LOP$$ -> ETT.LOP;

   3690  6 000041   000001 236100                    LDQ     1,,PR0
         6 000042   200013 756100                    STQ     LOP$$,,AUTO

     1629     3691
     1630     3692    1        IF TYPE_DESC.SSOP$ = ADDR(NIL) THEN

   3692  6 000043   200012 236100                    LDQ     TYPE_DESC+3,,AUTO
         6 000044   000001 116000 7                  CMPQ    1
PL6.E3A0      #005=Z8AF$NEW_OFF_AND_SSOP File=Z8AF.:Z8A6TSI                      SAT 08/09/97 10:58 Page:316
         6 000045   000244 601000 6                  TNZ     s:3729

     1631     3693    2          DO;

     1632     3694    3            IF SBCHK_FLAG AND COMCOM.OB.SUBCHK THEN DO; /* Insert SBCHK under SSOP */

   3694  6 000046   200017 234100                    SZN     SBCHK_FLAG,,AUTO
         6 000047   000166 605000 6                  TPL     s:3718
         6 000050   000020 234000 xsym               SZN     COMCOM+16
         6 000051   000166 605000 6                  TPL     s:3718

     1633     3695                   /*#42050*/
     1634     3696    3              OFF_SAVED = OFF_SAVED + 1;

   3696  6 000052   200016 054100                    AOS     OFF_SAVED,,AUTO

     1635     3697    4              IF LOP$$ -> ETT.ID = %OFF THEN DO;

   3697  6 000053   200013 470500                    LDP0    LOP$$,,AUTO
         6 000054   000000 220100                    LDX0    0,,PR0
         6 000055   000003 100003                    CMPX0   3,DU
         6 000056   000065 601000 6                  TNZ     s:3701

     1636     3698    4                OFF_SAVED = OFF_SAVED + LOP$$ -> ETT.OFFSET.VALUE;

   3698  6 000057   000002 236100                    LDQ     2,,PR0
         6 000060   000022 732000                    QRS     18
         6 000061   200016 036100                    ADLQ    OFF_SAVED,,AUTO
         6 000062   200016 756100                    STQ     OFF_SAVED,,AUTO

     1637     3699    4                LOP$$ = LOP$$ -> ETT.LOP;

   3699  6 000063   000001 236100                    LDQ     1,,PR0
         6 000064   200013 756100                    STQ     LOP$$,,AUTO

     1638     3700    4              END;

PL6.E3A0      #005=Z8AF$NEW_OFF_AND_SSOP File=Z8AF.:Z8A6TSI                      SAT 08/09/97 10:58 Page:317
     1639     3701    3              CALL Z8AF$NEW_OFF (LOP$$,

   3701  6 000065   200013 630500                    EPPR0   LOP$$,,AUTO
         6 000066   200022 450500                    STP0    SBCHK_FLAG+3,,AUTO
         6 000067   000004 236000 7                  LDQ     4
         6 000070   200021 756100                    STQ     SBCHK_FLAG+2,,AUTO
         6 000071   200013 631500                    EPPR1   LOP$$,,AUTO
         6 000072   200020 451500                    STP1    SBCHK_FLAG+1,,AUTO
         6 000073   200020 630500                    EPPR0   SBCHK_FLAG+1,,AUTO
         6 000074   000002 631400 7                  EPPR1   2
         6 000075   000000 701000 xent               TSX1    Z8AF$NEW_OFF
         6 000076   000000 011000                    NOP     0

     1640     3702    3                                 -1,
     1641     3703    3                                 LOP$$);
     1642     3704    4              IF OFF_SAVED ~= 0 THEN DO;

   3704  6 000077   200016 235100                    LDA     OFF_SAVED,,AUTO
         6 000100   000124 600000 6                  TZE     s:3709

     1643     3705    4                MKCN.CON = OFF_SAVED;

   3705  6 000101   000000 755000 5                  STA     MKCN

     1644     3706    4                CALL Z8AC$MAKE_CONST (CONST$);

   3706  6 000102   200015 630500                    EPPR0   CONST$,,AUTO
         6 000103   200020 450500                    STP0    SBCHK_FLAG+1,,AUTO
         6 000104   200020 630500                    EPPR0   SBCHK_FLAG+1,,AUTO
         6 000105   000005 631400 7                  EPPR1   5
         6 000106   000000 701000 xent               TSX1    Z8AC$MAKE_CONST
         6 000107   000000 011000                    NOP     0

     1645     3707    4                CALL Z8AF$FORME (%ADI, ROP_SSOP$$, CONST$, ROP_SSOP$$);

   3707  6 000110   200014 630500                    EPPR0   ROP_SSOP$$,,AUTO
         6 000111   200023 450500                    STP0    SBCHK_FLAG+4,,AUTO
PL6.E3A0      #005=Z8AF$NEW_OFF_AND_SSOP File=Z8AF.:Z8A6TSI                      SAT 08/09/97 10:58 Page:318
         6 000112   200015 631500                    EPPR1   CONST$,,AUTO
         6 000113   200022 451500                    STP1    SBCHK_FLAG+3,,AUTO
         6 000114   200014 633500                    EPPR3   ROP_SSOP$$,,AUTO
         6 000115   200021 453500                    STP3    SBCHK_FLAG+2,,AUTO
         6 000116   000010 236000 7                  LDQ     8
         6 000117   200020 756100                    STQ     SBCHK_FLAG+1,,AUTO
         6 000120   200020 630500                    EPPR0   SBCHK_FLAG+1,,AUTO
         6 000121   000006 631400 7                  EPPR1   6
         6 000122   000000 701000 xent               TSX1    Z8AF$FORME
         6 000123   000000 011000                    NOP     0

     1646     3708    4              END;

     1647     3709    4              IF TYPE_DESC.SIZ$ = ADDR(NIL) THEN DO;

   3709  6 000124   200011 236100                    LDQ     TYPE_DESC+2,,AUTO
         6 000125   000001 116000 7                  CMPQ    1
         6 000126   000151 601000 6                  TNZ     s:3715

     1648     3710    4                IF TYPE_DESC.TYPE = %TYA OR TYPE_DESC.TYPE = %TYN

   3710  6 000127   200007 235100                    LDA     TYPE_DESC,,AUTO
         6 000130   000010 115007                    CMPA    8,DL
         6 000131   000134 600000 6                  TZE     s:3711
         6 000132   000016 115007                    CMPA    14,DL
         6 000133   000140 601000 6                  TNZ     s:3712

     1649     3711    4                  THEN MKCN.CON = TYPE_DESC.DESC.ADSC.N;

   3711  6 000134   200010 236100                    LDQ     TYPE_DESC+1,,AUTO
         6 000135   007777 376007                    ANQ     4095,DL
         6 000136   000000 756000 5                  STQ     MKCN
         6 000137   000143 710000 6                  TRA     s:3713

     1650     3712    4                  ELSE MKCN.CON = TYPE_DESC.DESC.NDSC.N;

   3712  6 000140   200010 236100                    LDQ     TYPE_DESC+1,,AUTO
PL6.E3A0      #005=Z8AF$NEW_OFF_AND_SSOP File=Z8AF.:Z8A6TSI                      SAT 08/09/97 10:58 Page:319
         6 000141   000077 376007                    ANQ     63,DL
         6 000142   000000 756000 5                  STQ     MKCN

     1651     3713    4                CALL Z8AC$MAKE_CONST (TYPE_DESC.SIZ$);

   3713  6 000143   200011 630500                    EPPR0   TYPE_DESC+2,,AUTO
         6 000144   200020 450500                    STP0    SBCHK_FLAG+1,,AUTO
         6 000145   200020 630500                    EPPR0   SBCHK_FLAG+1,,AUTO
         6 000146   000005 631400 7                  EPPR1   5
         6 000147   000000 701000 xent               TSX1    Z8AC$MAKE_CONST
         6 000150   000000 011000                    NOP     0

     1652     3714    4              END;

     1653     3715    3              CALL Z8AF$FORME (%SBCHK, ROP_SSOP$$, TYPE_DESC.SIZ$, ROP_SSOP$$);

   3715  6 000151   200014 630500                    EPPR0   ROP_SSOP$$,,AUTO
         6 000152   200023 450500                    STP0    SBCHK_FLAG+4,,AUTO
         6 000153   200011 631500                    EPPR1   TYPE_DESC+2,,AUTO
         6 000154   200022 451500                    STP1    SBCHK_FLAG+3,,AUTO
         6 000155   200014 633500                    EPPR3   ROP_SSOP$$,,AUTO
         6 000156   200021 453500                    STP3    SBCHK_FLAG+2,,AUTO
         6 000157   000012 236000 7                  LDQ     10
         6 000160   200020 756100                    STQ     SBCHK_FLAG+1,,AUTO
         6 000161   200020 630500                    EPPR0   SBCHK_FLAG+1,,AUTO
         6 000162   000006 631400 7                  EPPR1   6
         6 000163   000000 701000 xent               TSX1    Z8AF$FORME
         6 000164   000000 011000                    NOP     0

     1654     3716    3            END; /* SBCHK_FLAG AND COMCOM.OB.SUBCHK */

   3716  6 000165   000227 710000 6                  TRA     s:3726

     1655     3717    3            ELSE DO;

     1656     3718    3              IF LOP$$ -> ETT.ID ~= %OFF THEN

PL6.E3A0      #005=Z8AF$NEW_OFF_AND_SSOP File=Z8AF.:Z8A6TSI                      SAT 08/09/97 10:58 Page:320
   3718  6 000166   200013 470500                    LDP0    LOP$$,,AUTO
         6 000167   000000 220100                    LDX0    0,,PR0
         6 000170   000003 100003                    CMPX0   3,DU
         6 000171   000205 600000 6                  TZE     s:3721

     1657     3719    3                CALL Z8AF$NEW_OFF (LOP$$, OFF_SAVED, LOP$$);

   3719  6 000172   200013 631500                    EPPR1   LOP$$,,AUTO
         6 000173   200022 451500                    STP1    SBCHK_FLAG+3,,AUTO
         6 000174   200016 633500                    EPPR3   OFF_SAVED,,AUTO
         6 000175   200021 453500                    STP3    SBCHK_FLAG+2,,AUTO
         6 000176   200013 634500                    EPPR4   LOP$$,,AUTO
         6 000177   200020 454500                    STP4    SBCHK_FLAG+1,,AUTO
         6 000200   200020 630500                    EPPR0   SBCHK_FLAG+1,,AUTO
         6 000201   000002 631400 7                  EPPR1   2
         6 000202   000000 701000 xent               TSX1    Z8AF$NEW_OFF
         6 000203   000000 011000                    NOP     0
         6 000204   000227 710000 6                  TRA     s:3726

     1658     3720    3              ELSE
     1659     3721    3                IF OFF ~= 0 THEN

   3721  6 000205   200004 471500                    LDP1    @OFF,,AUTO
         6 000206   100000 235100                    LDA     0,,PR1
         6 000207   000227 600000 6                  TZE     s:3726

     1660     3722    3                  CALL Z8AF$NEW_OFF (LOP$$ -> ETT.LOP,           /*#39234*/

   3722  6 000210   000002 236100                    LDQ     2,,PR0
         6 000211   000022 732000                    QRS     18
         6 000212   200016 036100                    ADLQ    OFF_SAVED,,AUTO
         6 000213   200020 756100                    STQ     SBCHK_FLAG+1,,AUTO
         6 000214   200013 633500                    EPPR3   LOP$$,,AUTO
         6 000215   200023 453500                    STP3    SBCHK_FLAG+4,,AUTO
         6 000216   200020 634500                    EPPR4   SBCHK_FLAG+1,,AUTO
         6 000217   200022 454500                    STP4    SBCHK_FLAG+3,,AUTO
         6 000220   200013 236100                    LDQ     LOP$$,,AUTO
PL6.E3A0      #005=Z8AF$NEW_OFF_AND_SSOP File=Z8AF.:Z8A6TSI                      SAT 08/09/97 10:58 Page:321
         6 000221   000001 036003                    ADLQ    1,DU
         6 000222   200021 756100                    STQ     SBCHK_FLAG+2,,AUTO
         6 000223   200021 630500                    EPPR0   SBCHK_FLAG+2,,AUTO
         6 000224   000002 631400 7                  EPPR1   2
         6 000225   000000 701000 xent               TSX1    Z8AF$NEW_OFF
         6 000226   000000 011000                    NOP     0

     1661     3723    3                                     OFF_SAVED + LOP$$ -> ETT.OFFSET.VALUE,
     1662     3724    3                                     LOP$$);
     1663     3725    3            END;

     1664     3726    2            CALL Z8AF$FORME   (%SSOP, LOP$$, ROP_SSOP$$, RETURN$);

   3726  6 000227   200006 236100                    LDQ     @RETURN$,,AUTO
         6 000230   200023 756100                    STQ     SBCHK_FLAG+4,,AUTO
         6 000231   200014 630500                    EPPR0   ROP_SSOP$$,,AUTO
         6 000232   200022 450500                    STP0    SBCHK_FLAG+3,,AUTO
         6 000233   200013 631500                    EPPR1   LOP$$,,AUTO
         6 000234   200021 451500                    STP1    SBCHK_FLAG+2,,AUTO
         6 000235   000014 236000 7                  LDQ     12
         6 000236   200020 756100                    STQ     SBCHK_FLAG+1,,AUTO
         6 000237   200020 630500                    EPPR0   SBCHK_FLAG+1,,AUTO
         6 000240   000006 631400 7                  EPPR1   6
         6 000241   000000 701000 xent               TSX1    Z8AF$FORME
         6 000242   000000 011000                    NOP     0

     1665     3727    2          END;

   3727  6 000243   000260 710000 6                  TRA     s:3731

     1666     3728    1        ELSE
     1667     3729    1          CALL Z8AF$COMBINE_SSOPS (LOP$$, OFF_SAVED, ROP_SSOP$$, RETURN$);

   3729  6 000244   200006 236100                    LDQ     @RETURN$,,AUTO
         6 000245   200023 756100                    STQ     SBCHK_FLAG+4,,AUTO
         6 000246   200014 630500                    EPPR0   ROP_SSOP$$,,AUTO
         6 000247   200022 450500                    STP0    SBCHK_FLAG+3,,AUTO
PL6.E3A0      #005=Z8AF$NEW_OFF_AND_SSOP File=Z8AF.:Z8A6TSI                      SAT 08/09/97 10:58 Page:322
         6 000250   200016 631500                    EPPR1   OFF_SAVED,,AUTO
         6 000251   200021 451500                    STP1    SBCHK_FLAG+2,,AUTO
         6 000252   200013 633500                    EPPR3   LOP$$,,AUTO
         6 000253   200020 453500                    STP3    SBCHK_FLAG+1,,AUTO
         6 000254   200020 630500                    EPPR0   SBCHK_FLAG+1,,AUTO
         6 000255   000006 631400 7                  EPPR1   6
         6 000256   000000 701000 xent               TSX1    Z8AF$COMBINE_SSOPS
         6 000257   000000 011000                    NOP     0

     1668     3730
     1669     3731    1   END Z8AF$NEW_OFF_AND_SSOP;

   3731  6 000260   000000 702200 xent               TSX2  ! X66_ARET
     1670     3732        %EOD;

PL6.E3A0      #005=Z8AF$NEW_OFF_AND_SSOP File=Z8AF.:Z8A6TSI                      SAT 08/09/97 10:58 Page:323
--  Include file information  --

   Z8A_MKCN.:Z8A6TOU  cannot be made into a system file and is referenced.
   Z8A_ETT.:Z8A6TOU  cannot be made into a system file and is referenced.
   Z8A_TYPES.:Z8A6TOU  is referenced.
   Z8A_COMCOM.:Z8A6TOU  cannot be made into a system file and is referenced.
   X8A_COM_MACS.:X8A6TOU  is referenced.
   Z8A_NAMES.:Z8A6TOU  is referenced.
   Z8A_SUPP_MAC.:Z8A6TOU  is referenced.
   Z8A_DEFC.:Z8A6TOU  cannot be made into a system file and is referenced.
      No diagnostics issued in procedure Z8AF$NEW_OFF_AND_SSOP.
PL6.E3A0      #005=Z8AF$NEW_OFF_AND_SSOP File=Z8AF.:Z8A6TSI                      SAT 08/09/97 10:58 Page:324

 **** Variables and constants ****

  ****  Section 000 LblCom ITERATION

  ****  Scalars and arrays  ****
OctLoc.c.b A Datatyp(siz) R M Lvl/name                 OctLoc.c.b A Datatyp(siz) R M Lvl/name

     0-0-0/w SBIN              1 ITERATION

  ****  Section 001 LblCom ETT$

  ****  Scalars and arrays  ****
OctLoc.c.b A Datatyp(siz) R M Lvl/name                 OctLoc.c.b A Datatyp(siz) R M Lvl/name

     0-0-0/w PTR         r     1 ETT$

  ****  Section 002 LblCom HEAD_ETT$

  ****  Scalars and arrays  ****
OctLoc.c.b A Datatyp(siz) R M Lvl/name                 OctLoc.c.b A Datatyp(siz) R M Lvl/name

     0-0-0/w PTR               1 HEAD_ETT$

  ****  Section 003 LblCom ETT_BUCKETS

  ****  Scalars and arrays  ****
OctLoc.c.b A Datatyp(siz) R M Lvl/name                 OctLoc.c.b A Datatyp(siz) R M Lvl/name

     0-0-0/w PTR               1 ETT_BUCKETS(0:511)

  ****  Section 004 LblCom ETT_

  ****  Scalars and arrays  ****
OctLoc.c.b A Datatyp(siz) R M Lvl/name                 OctLoc.c.b A Datatyp(siz) R M Lvl/name

     0-0-0/w STRC(180)         1 ETT_

PL6.E3A0      #005=Z8AF$NEW_OFF_AND_SSOP File=Z8AF.:Z8A6TSI                      SAT 08/09/97 10:58 Page:325
  ****  Section 005 LblCom MKCN

  ****  Scalars and arrays  ****
OctLoc.c.b A Datatyp(siz) R M Lvl/name                 OctLoc.c.b A Datatyp(siz) R M Lvl/name

     0-0-0/w STRC(72)    r     1 MKCN

  ****  Auto variables  ****

  ****  Scalars and arrays  ****
OctLoc.c.b A Datatyp(siz) R M Lvl/name                 OctLoc.c.b A Datatyp(siz) R M Lvl/name

     3-0-0/w PTR         r     1 @LOP$                      4-0-0/w PTR         r     1 @OFF
     6-0-0/w PTR         r     1 @RETURN$                   5-0-0/w PTR         r     1 @ROP_SSOP$
    15-0-0/w PTR         r     1 CONST$                    *0-0-0/w PTR         r     1 LOP$
    13-0-0/w PTR         r     1 LOP$$                     *0-0-0/w SBIN        r     1 OFF
    16-0-0/w SBIN        r     1 OFF_SAVED                 *0-0-0/w PTR         r     1 RETURN$
    *0-0-0/w PTR         r     1 ROP_SSOP$                 14-0-0/w PTR         r     1 ROP_SSOP$$
    17-0-0/b BIT         r     1 SBCHK_FLAG                 7-0-0/w STRC(144)   r     1 TYPE_DESC

  ****  SYMREF variables  ****

  ****  Scalars and arrays  ****
OctLoc.c.b A Datatyp(siz) R M Lvl/name                 OctLoc.c.b A Datatyp(siz) R M Lvl/name

     0-0-0/d STRC(13248) r     1 COMCOM

  ****  BASED and DCB variables  ****

  ****  Scalars and arrays  ****
OctLoc.c.b A Datatyp(siz) R M Lvl/name                 OctLoc.c.b A Datatyp(siz) R M Lvl/name

     0-0-0/w CHAR(4096)        1 CHARS                      0-0-0/w STRC(72)          1 CONT
     0-0-0/w STRC(180)   r     1 ETT                        0-0-0/w STRC(36864)       1 PAGE

PL6.E3A0      #005=Z8AF$NEW_OFF_AND_SSOP File=Z8AF.:Z8A6TSI                      SAT 08/09/97 10:58 Page:326

   Procedure Z8AF$NEW_OFF_AND_SSOP requires 177 words for executable code.
   Procedure Z8AF$NEW_OFF_AND_SSOP requires 20 words of local(AUTO) storage.

PL6.E3A0      #006=Z8AF$COMBINE_SSOPS File=Z8AF.:Z8A6TSI                         SAT 08/09/97 10:59 Page:327
     1671        1        /*T***********************************************************/
     1672        2        /*T*                                                         */
     1673        3        /*T* Copyright (c) Bull HN Information Systems Inc., 1997    */
     1674        4        /*T*                                                         */
     1675        5        /*T***********************************************************/
     1676        6        Z8AF$COMBINE_SSOPS: PROC (LOP$, OFF, ROP_SSOP$, RETURN$);
     1677        7
     1678        8             %EQU PHASE = 1;
     1679        9
     1680       10             %INCLUDE Z8A_DEFC;
     1681       78             %INCLUDE Z8A_SUPP_MAC;
     1682     2478             %INCLUDE Z8A_COMCOM;
     1683     3128             %INCLUDE Z8A_ETT;
     1684     3429             %INCLUDE Z8A_ERR_NUMS;
     1685     4193
     1686     4194    1        DCL Z8AF$FORME           ENTRY (4);
     1687     4195    1        DCL Z8AF$NEW_FISS        ENTRY (4);
     1688     4196    1        DCL Z8AF$NEW_OFF         ENTRY (3);
     1689     4197    1        DCL Z8AE$ERROR           ENTRY (12);
     1690     4198
     1691     4199    1        DCL LOP$                 PTR;
     1692     4200    1        DCL ROP_SSOP$            PTR;
     1693     4201    1        DCL RETURN$              PTR;
     1694     4202    1        DCL OFF                  SBIN WORD;
     1695     4203
     1696     4204    1        DCL OFF$                 PTR;
     1697     4205    1        DCL FISS                 SBIN WORD;
     1698     4206
     1699     4207
     1700     4208    2        DO CASE (LOP$ -> ETT.ID);
     1701     4209
     1702     4210    2          CASE (%FISS);
     1703     4211    2            FISS = LOP$ -> ETT.SIZE.VALUE;
     1704     4212
     1705     4213    2            CALL Z8AF$COMBINE_SSOPS (LOP$ -> ETT.LOP, OFF, ROP_SSOP$, RETURN$);
     1706     4214    2            CALL Z8AF$NEW_FISS (RETURN$, FISS, %ALPHA_NUMERIC_FISS, RETURN$);
     1707     4215
PL6.E3A0      #006=Z8AF$COMBINE_SSOPS File=Z8AF.:Z8A6TSI                         SAT 08/09/97 10:59 Page:328
     1708     4216    2          CASE (%OFF);
     1709     4217    2            OFF = OFF + LOP$ -> ETT.OFFSET.VALUE;
     1710     4218
     1711     4219    2            CALL Z8AF$COMBINE_SSOPS (LOP$ -> ETT.LOP, OFF, ROP_SSOP$, RETURN$);
     1712     4220
     1713     4221    2          CASE (%DNA);
     1714     4222    2            CALL Z8AF$COMBINE_SSOPS (LOP$ -> ETT.LOP, OFF, ROP_SSOP$, RETURN$);
     1715     4223    2            CALL Z8AF$FORME (%DNA, RETURN$, 0, RETURN$);
     1716     4224
     1717     4225    2          CASE (%SSOP);
     1718     4226    2            IF OFF ~= 0 THEN
     1719     4227    2              CALL Z8AF$NEW_OFF (LOP$ -> ETT.LOP -> ETT.LOP,
     1720     4228    2                                 OFF + LOP$ -> ETT.LOP -> ETT.OFFSET.VALUE,
     1721     4229    2                                 OFF$);
     1722     4230    2            ELSE
     1723     4231    2              OFF$ = LOP$ -> ETT.LOP;
     1724     4232
     1725     4233    2            CALL Z8AF$FORME (%ADI, LOP$ -> ETT.ROP, ROP_SSOP$, RETURN$);
     1726     4234    2            CALL Z8AF$FORME (%SSOP, OFF$, RETURN$, RETURN$);
     1727     4235
     1728     4236    2          CASE (ELSE);
     1729     4237    2            CALL Z8AE$ERROR (%E$UNEXPECTED_CASE);
     1730     4238
     1731     4239    2        END; /* Case -- lop$ -> ett.id */
     1732     4240
     1733     4241    1   END Z8AF$COMBINE_SSOPS;

PL6.E3A0      #006=Z8AF$COMBINE_SSOPS File=Z8AF.:Z8A6TSI                         SAT 08/09/97 10:59 Page:329
--  Include file information  --

   Z8A_ERR_NUMS.:Z8A6TOU  is referenced.
   Z8A_ETT.:Z8A6TOU  cannot be made into a system file and is referenced.
   Z8A_COMCOM.:Z8A6TOU  cannot be made into a system file and is referenced.
   X8A_COM_MACS.:X8A6TOU  is referenced.
   Z8A_NAMES.:Z8A6TOU  is referenced.
   Z8A_SUPP_MAC.:Z8A6TOU  is referenced.
   Z8A_DEFC.:Z8A6TOU  cannot be made into a system file and is referenced.
      No diagnostics issued in procedure Z8AF$COMBINE_SSOPS.

   Procedure Z8AF$COMBINE_SSOPS requires 134 words for executable code.
   Procedure Z8AF$COMBINE_SSOPS requires 14 words of local(AUTO) storage.

    No errors detected in file Z8AF.:Z8A6TSI    .

PL6.E3A0      #006=Z8AF$COMBINE_SSOPS File=Z8AF.:Z8A6TSI                         SAT 08/09/97 10:59 Page:330

 Object Unit name= Z8AF$COMBINE_SSOPS                         File name= Z8AF.:Z8A6TOU
 UTS= AUG 09 '97 10:59:16.40 SAT                              Compiler= PL-6/E31         Sev=      00
 SharedLib= :SHARED_SYSTEM                                    Alt SharedLib=


    ****  Control sections  ****

 Sect   Type Bound  Init  Size OctSiz  Section name(segment info)
    0  LblCom even  none     1      1  ITERATION
    1  LblCom even  none     1      1  ETT$
    2  LblCom even  none     1      1  HEAD_ETT$
    3  LblCom even  none   512   1000  ETT_BUCKETS
    4  LblCom even  none     5      5  ETT_
    5   Proc  even  none   134    206  Z8AF$COMBINE_SSOPS
    6  RoData even  none    13     15  Z8AF$COMBINE_SSOPS

    ****  Entry defs  ****

                              Check   Calling
                             calling  sequence
  Sect OctLoc Primary Altret sequence   type   Parms  Name
     5      0   yes            yes      Std        4  Z8AF$COMBINE_SSOPS

  ****  Entry refs  ****

         Check        Calling
        calling       sequence
Altret sequence SRef   type   Args  Name
         yes           Std       4 Z8AF$NEW_FISS
         yes           Std       3 Z8AF$NEW_OFF
         yes           Std      12 Z8AE$ERROR
         yes           Std       4 Z8AF$FORME
                       nStd      0 X66_AUTO_4
                       nStd      0 X66_ARET
PL6.E3A0      #006=Z8AF$COMBINE_SSOPS File=Z8AF.:Z8A6TSI                         SAT 08/09/97 10:59 Page:331

  ****  Data refs  ****

  Flags:  r = read only, s = secondary
Flgs Name                             Flgs Name                             Flgs Name
     COMCOM

  ****  Segment refs  ****

  Flags:  r = read only, s = secondary
Flgs Name                             Flgs Name                             Flgs Name
     NULLSID                               ISSID
PL6.E3A0      #006=Z8AF$COMBINE_SSOPS File=Z8AF.:Z8A6TSI                         SAT 08/09/97 10:59 Page:332


     1671        1        /*T***********************************************************/
     1672        2        /*T*                                                         */
     1673        3        /*T* Copyright (c) Bull HN Information Systems Inc., 1997    */
     1674        4        /*T*                                                         */
     1675        5        /*T***********************************************************/
     1676        6        Z8AF$COMBINE_SSOPS: PROC (LOP$, OFF, ROP_SSOP$, RETURN$);

      6  5 000000   000000 700200 xent  Z8AF$COMBIN* TSX0  ! X66_AUTO_4
         5 000001   000016 000004                    ZERO    14,4

     1677        7
     1678        8             %EQU PHASE = 1;
     1679        9
     1680       10             %INCLUDE Z8A_DEFC;
     1681       78             %INCLUDE Z8A_SUPP_MAC;
     1682     2478             %INCLUDE Z8A_COMCOM;
     1683     3128             %INCLUDE Z8A_ETT;
     1684     3429             %INCLUDE Z8A_ERR_NUMS;
     1685     4193
     1686     4194    1        DCL Z8AF$FORME           ENTRY (4);
     1687     4195    1        DCL Z8AF$NEW_FISS        ENTRY (4);
     1688     4196    1        DCL Z8AF$NEW_OFF         ENTRY (3);
     1689     4197    1        DCL Z8AE$ERROR           ENTRY (12);
     1690     4198
     1691     4199    1        DCL LOP$                 PTR;
     1692     4200    1        DCL ROP_SSOP$            PTR;
     1693     4201    1        DCL RETURN$              PTR;
     1694     4202    1        DCL OFF                  SBIN WORD;
     1695     4203
     1696     4204    1        DCL OFF$                 PTR;
     1697     4205    1        DCL FISS                 SBIN WORD;
     1698     4206
     1699     4207
     1700     4208    2        DO CASE (LOP$ -> ETT.ID);

   4208  5 000002   200003 470500                    LDP0    @LOP$,,AUTO
PL6.E3A0      #006=Z8AF$COMBINE_SSOPS File=Z8AF.:Z8A6TSI                         SAT 08/09/97 10:59 Page:333
         5 000003   000000 471500                    LDP1    0,,PR0
         5 000004   100000 220100                    LDX0    0,,PR1
         5 000005   000010 100003                    CMPX0   8,DU
         5 000006   000010 602010 5                  TNC     s:4208+6,X0
         5 000007   000201 710000 5                  TRA     s:4237
         5 000010   000201 710000 5                  TRA     s:4237
         5 000011   000201 710000 5                  TRA     s:4237
         5 000012   000020 710000 5                  TRA     s:4211
         5 000013   000053 710000 5                  TRA     s:4217
         5 000014   000201 710000 5                  TRA     s:4237
         5 000015   000123 710000 5                  TRA     s:4226
         5 000016   000201 710000 5                  TRA     s:4237
         5 000017   000075 710000 5                  TRA     s:4222

     1701     4209
     1702     4210    2          CASE (%FISS);

     1703     4211    2            FISS = LOP$ -> ETT.SIZE.VALUE;

   4211  5 000020   100002 236100                    LDQ     2,,PR1
         5 000021   000022 732000                    QRS     18
         5 000022   200010 756100                    STQ     FISS,,AUTO

     1704     4212
     1705     4213    2            CALL Z8AF$COMBINE_SSOPS (LOP$ -> ETT.LOP, OFF, ROP_SSOP$, RETURN$);

   4213  5 000023   000000 471500                    LDP1    0,,PR0
         5 000024   200006 236100                    LDQ     @RETURN$,,AUTO
         5 000025   200005 235100                    LDA     @ROP_SSOP$,,AUTO
         5 000026   200014 757100                    STAQ    FISS+4,,AUTO
         5 000027   200004 236100                    LDQ     @OFF,,AUTO
         5 000030   200013 756100                    STQ     FISS+3,,AUTO
         5 000031   100001 633500                    EPPR3   1,,PR1
         5 000032   200012 453500                    STP3    FISS+2,,AUTO
         5 000033   200012 630500                    EPPR0   FISS+2,,AUTO
         5 000034   000000 631400 6                  EPPR1   0
         5 000035   000000 701000 5                  TSX1    s:6
PL6.E3A0      #006=Z8AF$COMBINE_SSOPS File=Z8AF.:Z8A6TSI                         SAT 08/09/97 10:59 Page:334
         5 000036   000000 011000                    NOP     0

     1706     4214    2            CALL Z8AF$NEW_FISS (RETURN$, FISS, %ALPHA_NUMERIC_FISS, RETURN$);

   4214  5 000037   200006 236100                    LDQ     @RETURN$,,AUTO
         5 000040   000002 235000 6                  LDA     2
         5 000041   200014 757100                    STAQ    FISS+4,,AUTO
         5 000042   200010 630500                    EPPR0   FISS,,AUTO
         5 000043   200013 450500                    STP0    FISS+3,,AUTO
         5 000044   200006 236100                    LDQ     @RETURN$,,AUTO
         5 000045   200012 756100                    STQ     FISS+2,,AUTO
         5 000046   200012 630500                    EPPR0   FISS+2,,AUTO
         5 000047   000000 631400 6                  EPPR1   0
         5 000050   000000 701000 xent               TSX1    Z8AF$NEW_FISS
         5 000051   000000 011000                    NOP     0
         5 000052   000205 710000 5                  TRA     s:4241

     1707     4215
     1708     4216    2          CASE (%OFF);

     1709     4217    2            OFF = OFF + LOP$ -> ETT.OFFSET.VALUE;

   4217  5 000053   200004 473500                    LDP3    @OFF,,AUTO
         5 000054   100002 236100                    LDQ     2,,PR1
         5 000055   000022 732000                    QRS     18
         5 000056   300000 036100                    ADLQ    0,,PR3
         5 000057   300000 756100                    STQ     0,,PR3

     1710     4218
     1711     4219    2            CALL Z8AF$COMBINE_SSOPS (LOP$ -> ETT.LOP, OFF, ROP_SSOP$, RETURN$);

   4219  5 000060   000000 471500                    LDP1    0,,PR0
         5 000061   200006 236100                    LDQ     @RETURN$,,AUTO
         5 000062   200005 235100                    LDA     @ROP_SSOP$,,AUTO
         5 000063   200014 757100                    STAQ    FISS+4,,AUTO
         5 000064   200004 236100                    LDQ     @OFF,,AUTO
         5 000065   200013 756100                    STQ     FISS+3,,AUTO
PL6.E3A0      #006=Z8AF$COMBINE_SSOPS File=Z8AF.:Z8A6TSI                         SAT 08/09/97 10:59 Page:335
         5 000066   100001 634500                    EPPR4   1,,PR1
         5 000067   200012 454500                    STP4    FISS+2,,AUTO
         5 000070   200012 630500                    EPPR0   FISS+2,,AUTO
         5 000071   000000 631400 6                  EPPR1   0
         5 000072   000000 701000 5                  TSX1    s:6
         5 000073   000000 011000                    NOP     0
         5 000074   000205 710000 5                  TRA     s:4241

     1712     4220
     1713     4221    2          CASE (%DNA);

     1714     4222    2            CALL Z8AF$COMBINE_SSOPS (LOP$ -> ETT.LOP, OFF, ROP_SSOP$, RETURN$);

   4222  5 000075   200006 236100                    LDQ     @RETURN$,,AUTO
         5 000076   200005 235100                    LDA     @ROP_SSOP$,,AUTO
         5 000077   200014 757100                    STAQ    FISS+4,,AUTO
         5 000100   200004 236100                    LDQ     @OFF,,AUTO
         5 000101   200013 756100                    STQ     FISS+3,,AUTO
         5 000102   100001 633500                    EPPR3   1,,PR1
         5 000103   200012 453500                    STP3    FISS+2,,AUTO
         5 000104   200012 630500                    EPPR0   FISS+2,,AUTO
         5 000105   000000 631400 6                  EPPR1   0
         5 000106   000000 701000 5                  TSX1    s:6
         5 000107   000000 011000                    NOP     0

     1715     4223    2            CALL Z8AF$FORME (%DNA, RETURN$, 0, RETURN$);

   4223  5 000110   200006 236100                    LDQ     @RETURN$,,AUTO
         5 000111   000002 235000 6                  LDA     2
         5 000112   200014 757100                    STAQ    FISS+4,,AUTO
         5 000113   200006 236100                    LDQ     @RETURN$,,AUTO
         5 000114   000004 235000 6                  LDA     4
         5 000115   200012 757100                    STAQ    FISS+2,,AUTO
         5 000116   200012 630500                    EPPR0   FISS+2,,AUTO
         5 000117   000000 631400 6                  EPPR1   0
         5 000120   000000 701000 xent               TSX1    Z8AF$FORME
         5 000121   000000 011000                    NOP     0
PL6.E3A0      #006=Z8AF$COMBINE_SSOPS File=Z8AF.:Z8A6TSI                         SAT 08/09/97 10:59 Page:336
         5 000122   000205 710000 5                  TRA     s:4241

     1716     4224
     1717     4225    2          CASE (%SSOP);

     1718     4226    2            IF OFF ~= 0 THEN

   4226  5 000123   200004 473500                    LDP3    @OFF,,AUTO
         5 000124   300000 235100                    LDA     0,,PR3
         5 000125   000146 600000 5                  TZE     s:4231

     1719     4227    2              CALL Z8AF$NEW_OFF (LOP$ -> ETT.LOP -> ETT.LOP,

   4227  5 000126   100001 474500                    LDP4    1,,PR1
         5 000127   400002 236100                    LDQ     2,,PR4
         5 000130   000022 732000                    QRS     18
         5 000131   300000 036100                    ADLQ    0,,PR3
         5 000132   200012 756100                    STQ     FISS+2,,AUTO
         5 000133   200007 631500                    EPPR1   OFF$,,AUTO
         5 000134   200015 451500                    STP1    FISS+5,,AUTO
         5 000135   200012 635500                    EPPR5   FISS+2,,AUTO
         5 000136   200014 455500                    STP5    FISS+4,,AUTO
         5 000137   400001 636500                    EPPR6   1,,PR4
         5 000140   200013 456500                    STP6    FISS+3,,AUTO
         5 000141   200013 630500                    EPPR0   FISS+3,,AUTO
         5 000142   000005 631400 6                  EPPR1   5
         5 000143   000000 701000 xent               TSX1    Z8AF$NEW_OFF
         5 000144   000000 011000                    NOP     0
         5 000145   000150 710000 5                  TRA     s:4233

     1720     4228    2                                 OFF + LOP$ -> ETT.LOP -> ETT.OFFSET.VALUE,
     1721     4229    2                                 OFF$);
     1722     4230    2            ELSE
     1723     4231    2              OFF$ = LOP$ -> ETT.LOP;

   4231  5 000146   100001 236100                    LDQ     1,,PR1
         5 000147   200007 756100                    STQ     OFF$,,AUTO
PL6.E3A0      #006=Z8AF$COMBINE_SSOPS File=Z8AF.:Z8A6TSI                         SAT 08/09/97 10:59 Page:337

     1724     4232
     1725     4233    2            CALL Z8AF$FORME (%ADI, LOP$ -> ETT.ROP, ROP_SSOP$, RETURN$);

   4233  5 000150   200003 470500                    LDP0    @LOP$,,AUTO
         5 000151   000000 471500                    LDP1    0,,PR0
         5 000152   200006 236100                    LDQ     @RETURN$,,AUTO
         5 000153   200005 235100                    LDA     @ROP_SSOP$,,AUTO
         5 000154   200014 757100                    STAQ    FISS+4,,AUTO
         5 000155   100002 633500                    EPPR3   2,,PR1
         5 000156   200013 453500                    STP3    FISS+3,,AUTO
         5 000157   000007 236000 6                  LDQ     7
         5 000160   200012 756100                    STQ     FISS+2,,AUTO
         5 000161   200012 630500                    EPPR0   FISS+2,,AUTO
         5 000162   000000 631400 6                  EPPR1   0
         5 000163   000000 701000 xent               TSX1    Z8AF$FORME
         5 000164   000000 011000                    NOP     0

     1726     4234    2            CALL Z8AF$FORME (%SSOP, OFF$, RETURN$, RETURN$);

   4234  5 000165   200006 236100                    LDQ     @RETURN$,,AUTO
         5 000166   200006 235100                    LDA     @RETURN$,,AUTO
         5 000167   200014 757100                    STAQ    FISS+4,,AUTO
         5 000170   200007 630500                    EPPR0   OFF$,,AUTO
         5 000171   200013 450500                    STP0    FISS+3,,AUTO
         5 000172   000011 236000 6                  LDQ     9
         5 000173   200012 756100                    STQ     FISS+2,,AUTO
         5 000174   200012 630500                    EPPR0   FISS+2,,AUTO
         5 000175   000000 631400 6                  EPPR1   0
         5 000176   000000 701000 xent               TSX1    Z8AF$FORME
         5 000177   000000 011000                    NOP     0
         5 000200   000205 710000 5                  TRA     s:4241

     1727     4235
     1728     4236    2          CASE (ELSE);

     1729     4237    2            CALL Z8AE$ERROR (%E$UNEXPECTED_CASE);
PL6.E3A0      #006=Z8AF$COMBINE_SSOPS File=Z8AF.:Z8A6TSI                         SAT 08/09/97 10:59 Page:338

   4237  5 000201   000014 630400 6                  EPPR0   12
         5 000202   000012 631400 6                  EPPR1   10
         5 000203   000000 701000 xent               TSX1    Z8AE$ERROR
         5 000204   000000 011000                    NOP     0

     1730     4238
     1731     4239    2        END; /* Case -- lop$ -> ett.id */

     1732     4240
     1733     4241    1   END Z8AF$COMBINE_SSOPS;

   4241  5 000205   000000 702200 xent               TSX2  ! X66_ARET

PL6.E3A0      #006=Z8AF$COMBINE_SSOPS File=Z8AF.:Z8A6TSI                         SAT 08/09/97 10:59 Page:339
--  Include file information  --

   Z8A_ERR_NUMS.:Z8A6TOU  is referenced.
   Z8A_ETT.:Z8A6TOU  cannot be made into a system file and is referenced.
   Z8A_COMCOM.:Z8A6TOU  cannot be made into a system file and is referenced.
   X8A_COM_MACS.:X8A6TOU  is referenced.
   Z8A_NAMES.:Z8A6TOU  is referenced.
   Z8A_SUPP_MAC.:Z8A6TOU  is referenced.
   Z8A_DEFC.:Z8A6TOU  cannot be made into a system file and is referenced.
      No diagnostics issued in procedure Z8AF$COMBINE_SSOPS.
PL6.E3A0      #006=Z8AF$COMBINE_SSOPS File=Z8AF.:Z8A6TSI                         SAT 08/09/97 10:59 Page:340

 **** Variables and constants ****

  ****  Section 000 LblCom ITERATION

  ****  Scalars and arrays  ****
OctLoc.c.b A Datatyp(siz) R M Lvl/name                 OctLoc.c.b A Datatyp(siz) R M Lvl/name

     0-0-0/w SBIN              1 ITERATION

  ****  Section 001 LblCom ETT$

  ****  Scalars and arrays  ****
OctLoc.c.b A Datatyp(siz) R M Lvl/name                 OctLoc.c.b A Datatyp(siz) R M Lvl/name

     0-0-0/w PTR         r     1 ETT$

  ****  Section 002 LblCom HEAD_ETT$

  ****  Scalars and arrays  ****
OctLoc.c.b A Datatyp(siz) R M Lvl/name                 OctLoc.c.b A Datatyp(siz) R M Lvl/name

     0-0-0/w PTR               1 HEAD_ETT$

  ****  Section 003 LblCom ETT_BUCKETS

  ****  Scalars and arrays  ****
OctLoc.c.b A Datatyp(siz) R M Lvl/name                 OctLoc.c.b A Datatyp(siz) R M Lvl/name

     0-0-0/w PTR               1 ETT_BUCKETS(0:511)

  ****  Section 004 LblCom ETT_

  ****  Scalars and arrays  ****
OctLoc.c.b A Datatyp(siz) R M Lvl/name                 OctLoc.c.b A Datatyp(siz) R M Lvl/name

     0-0-0/w STRC(180)         1 ETT_

PL6.E3A0      #006=Z8AF$COMBINE_SSOPS File=Z8AF.:Z8A6TSI                         SAT 08/09/97 10:59 Page:341
  ****  Auto variables  ****

  ****  Scalars and arrays  ****
OctLoc.c.b A Datatyp(siz) R M Lvl/name                 OctLoc.c.b A Datatyp(siz) R M Lvl/name

     3-0-0/w PTR         r     1 @LOP$                      4-0-0/w PTR         r     1 @OFF
     6-0-0/w PTR         r     1 @RETURN$                   5-0-0/w PTR         r     1 @ROP_SSOP$
    10-0-0/w SBIN        r     1 FISS                      *0-0-0/w PTR         r     1 LOP$
    *0-0-0/w SBIN        r     1 OFF                        7-0-0/w PTR         r     1 OFF$
    *0-0-0/w PTR         r     1 RETURN$                   *0-0-0/w PTR         r     1 ROP_SSOP$

  ****  SYMREF variables  ****

  ****  Scalars and arrays  ****
OctLoc.c.b A Datatyp(siz) R M Lvl/name                 OctLoc.c.b A Datatyp(siz) R M Lvl/name

     0-0-0/d STRC(13248)       1 COMCOM

  ****  BASED and DCB variables  ****

  ****  Scalars and arrays  ****
OctLoc.c.b A Datatyp(siz) R M Lvl/name                 OctLoc.c.b A Datatyp(siz) R M Lvl/name

     0-0-0/w CHAR(4096)        1 CHARS                      0-0-0/w STRC(72)          1 CONT
     0-0-0/w STRC(180)   r     1 ETT                        0-0-0/w STRC(36864)       1 PAGE


   Procedure Z8AF$COMBINE_SSOPS requires 134 words for executable code.
   Procedure Z8AF$COMBINE_SSOPS requires 14 words of local(AUTO) storage.

    No errors detected in file Z8AF.:Z8A6TSI    .
