VERSION A06

PL6.E3A0      #001=Z8AM$COBOL_80_COMPILER File=Z8AM.:Z8A6TSI                     SAT 08/09/97 10:43 Page:1
        1        1        /*M* Z8AM$COBOL_80_COMPILER -- The Main Module */
        2        2        /*T***********************************************************/
        3        3        /*T*                                                         */
        4        4        /*T* Copyright (c) Bull HN Information Systems Inc., 1997    */
        5        5        /*T*                                                         */
        6        6        /*T***********************************************************/
        7        7
        8        8
        9        9        /*P*
       10       10               NAME: Z8AM$COBOL_80_COMPILER
       11       11
       12       12             AUTHOR: Joe  Cheng
       13       13
       14       14            PURPOSE: TO OVERSEE AND CONTROL ALL THE PHASES AND FUNCTIONS
       15       15                     OF THE COBOL-80 COMPILER.
       16       16
       17       17        */
       18       18
       19       19        /*D*    NAME: Z8AM$COBOL_80_COMPILER
       20       20
       21       21           INTERFACE: Z9AP -- Bring in a phase.
       22       22                      Z8JT -- Dump the tables or compile times.
       23       23                      Z8AR -- Free table space.
       24       24                      Z9AR -- Free table space (all of it).
       25       25                      Z9AM -- Save Date/Time/UTS.
       26       26                           -- Provide an Error Exit when fatal errors occur.
       27       27                      Z9AT -- Set Abort and Break control.
       28       28
       29       29         DESCRIPTION: (1) Sets the date, time, and UTS for compile.
       30       30                      (2) Reads options and sets COMCOM option bits.
       31       31                      (3) Calls each phase in turn, and dumps the
       32       32                          tables after a phase if requested via a
       33       33                          OnDUMP option.
       34       34                      (4) Computes the total compilation time.
       35       35                      (5) Prints the compile time if STATS is on.
       36       36                      (6) Frees the space used by the IL tables.
       37       37                      (7) Closes the "LO" file.
PL6.E3A0      #001=Z8AM$COBOL_80_COMPILER File=Z8AM.:Z8A6TSI                     SAT 08/09/97 10:43 Page:2
       38       38        */
       39       39
       40       40        %EJECT;
PL6.E3A0      #001=Z8AM$COBOL_80_COMPILER File=Z8AM.:Z8A6TSI                     SAT 08/09/97 10:43 Page:3
       41       41        %INCLUDE Z9A_FLAGS ;
       42       55        Z8AM$COBOL_80_COMPILER: PROC MAIN
       43       56            %IF GCOS ;
       45       58            %ENDIF ;
       46       59             ;
       47       60
       48       61    1        DCL PREVIOUS UBIN WORD EXT INIT(0);
       49       62
       50       63    1        DCL Z8AR$FREER ENTRY(1);
       51       64    1        DCL Z9AP$BRING_IN_PHASE ENTRY(1);
       52       65    1        DCL Z9AR$FREE_DYNAMIC_SEGMENT ENTRY ALTRET;
       53       66    1        DCL Z9AC$CLOSE_LO ENTRY;
       54       67    1        DCL Z9AP$STATS ENTRY;
       55       68    1        DCL Z8JS$START_TREEWALKER ENTRY ;
       56       69             %IF CP6 ;
       57       70    1        DCL Z9AT$START ENTRY ;
       58       71             %ENDIF ;
       59       72    1        DCL X66_AUTO_EX ENTRY ALTRET ;
       60       73    1        DCL Z8AE$ERROR ENTRY (12) ;
       61       74    1        DCL Z9AM$SAVE_DATE ENTRY ;
       62       75    1        DCL Z9AM$ERR_EXIT  ENTRY ;
       63       76    1        DCL Z9AT$TERMINATOR ENTRY ;
       64       77    1        DCL Z9A1$INITIALIZE ENTRY ALTRET;
       65       78
       66       79
       67       80        %SET PHASE = 0;
       68       81        %INCLUDE Z8A_DEFC;
       69      149
       70      150    1   DCL END_PROGRAM_FOUND  BIT(1) ALIGNED STATIC SYMDEF INIT (FALSE);
       71      151        %INCLUDE Z8A_SUPP_MAC ;
       72     2551
       73     2552        %SET INITIALIZE = '1'B;
       74     2553        %INCLUDE Z8A_ILL;
       75     3246        %INCLUDE Z8A_ILS;
       76     3355        %INCLUDE Z8A_DPI;
       77     3439        %INCLUDE Z8A_ETT;
       78     3740        %INCLUDE Z8A_ST ;
PL6.E3A0      #001=Z8AM$COBOL_80_COMPILER File=Z8AM.:Z8A6TSI                     SAT 08/09/97 10:43 Page:4
       79     7399        %INCLUDE Z8A_TYPES;
       80     7573        %INCLUDE Z8A_LTS;
       81     9650        %INCLUDE Z8A_DNT;
       82     9871        %INCLUDE Z8A_QLT;
       83     9977        %INCLUDE Z8A_GST ;
       84    10037        %INCLUDE Z8A_ERR ;
       85    10106        %INCLUDE Z8A_ERR_NUMS ;
       86    10870        %INCLUDE Z8A_XREF ;
       87    10942        %INCLUDE Z8A_COMCOM;
       88    11592        %INCLUDE Z8A_OBJ;
       89    12089        %INCLUDE Z8E_HEAPINFO ;
       90    12127
       91    12128             %IF GCOS ;
       93    12130             %ENDIF ;
       94    12131
       95    12132        %EJECT;
PL6.E3A0      #001=Z8AM$COBOL_80_COMPILER File=Z8AM.:Z8A6TSI                     SAT 08/09/97 10:43 Page:5
       96    12133             /* Save Date/Time/UTS of compilation */
       97    12134
       98    12135             %IF GCOS ;
      100    12137             %ENDIF ;
      101    12138    1        CALL Z9AM$SAVE_DATE ;
      102    12139    1        CALL Z9A1$INITIALIZE; /* CP-6- or GCOS-specific initialization. */
      103    12140
      104    12141    1        CALL X66_AUTO_EX ALTRET (AUTO_OVERFLOW) ; /* If auto stack overflow */
      105    12142
      106    12143             %IF CP6 ;
      107    12144    1        CALL Z9AT$START ; /* Set wrapup and break control */
      108    12145             %ENDIF ;
      109    12146
      110    12147    1        CALL Z9AP$BRING_IN_PHASE (0);
      111    12148
      112    12149             /* Set COMCOM.SEVERITY based on INFO, NWARN, etc. options */
      113    12150
      114    12151    1        IF COMCOM.OB.INFO
      115    12152    1        THEN COMCOM.SEVERITY = 000 ; /* Print all errors */
      116    12153    1        ELSE
      117    12154    1        IF NOT COMCOM.OB.NWARN /* WARN option */
      118    12155    1        THEN COMCOM.SEVERITY = 100 ; /* Exclude only INFO */
      119    12156             %IF GCOS;
      124    12161             %ENDIF;
      125    12162    1        ELSE
      126    12163    1        IF COMCOM.OB.SV5
      127    12164    1        THEN COMCOM.SEVERITY = 900 ; /* Print only abort message */
      128    12165    1        ELSE COMCOM.SEVERITY = 200 ; /* NWARN, SV3, SV4 */
      129    12166
      130    12167
      131    12168    1        CALL Z9AP$BRING_IN_PHASE (1);
      132    12169
      133    12170    1        CALL Z9AP$BRING_IN_PHASE (2) ;
      134    12171
      135    12172             /*V* Don't call Phases 3 or 4 if there is a 5-star error */
      136    12173         /*
      137    12174             IF COMCOM.MAX_ERROR >= 900
PL6.E3A0      #001=Z8AM$COBOL_80_COMPILER File=Z8AM.:Z8A6TSI                     SAT 08/09/97 10:43 Page:6
      138    12175             THEN COMCOM.OB.CHECK = '1'B ;
      139    12176         */
      140    12177
      141    12178    2        IF COMCOM.OB.CHECK = '1'B THEN DO ;
      142    12179    2          COMCOM.OB.LISTOUT = '0'B ;
      143    12180               %IF CP6 ;
      144    12181    2          COMCOM.OB.LO      = '0'B ;
      145    12182    2          COMCOM.OB.DECK    = '0'B ;
      146    12183               %ENDIF ;
      147    12184    2          COMCOM.OB.DSS     = '0'B ;
      148    12185    2        END ;
      149    12186    1        ELSE
      150    12187    1        IF  COMCOM.OB.LISTOUT = '0'B
      151    12188             %IF CP6 ;
      152    12189    1        AND COMCOM.OB.LO      = '0'B
      153    12190             %ENDIF ;
      154    12191    1        AND COMCOM.OB.DECK    = '0'B
      155    12192    1        THEN COMCOM.OB.CHECK  = '1'B ;
      156    12193
      157    12194    2        IF COMCOM.OB.CHECK = '0'B THEN DO ;
      158    12195
      159    12196    2          CALL Z9AP$BRING_IN_PHASE(3);
      160    12197    2          CALL Z8AR$FREER (ADDR(GST_)) ;
      161    12198    2          CALL Z8AR$FREER (ADDR(DPI_)) ;
      162    12199
      163    12200    2          CALL Z9AP$BRING_IN_PHASE(4);
      164    12201
      165    12202    2        END /* If Then Do */ ;
      166    12203
      167    12204    1        IF  COMCOM.TREE_LINE = ' '
      168    12205    2        AND COMCOM.OB.IT = '0'B THEN DO ;
      169    12206    2          IF COMCOM.OB.DSS OR COMCOM.OB.LISTOUT OR COMCOM.OB.XREF
      170    12207    2          OR COMCOM.OB.MAP OR COMCOM.OB.ARRAY_PRESET
      171    12208    2          THEN ; /* Don't purge QLT */
      172    12209    3          ELSE DO ; /* Debug schema,LSTOU,XREF off, no array presets */
      173    12210    3            CALL Z8AR$FREER (ADDR(QLT_)) ;
      174    12211    3            COMCOM.PREV_QLT$ = ADDR(NIL) ;
PL6.E3A0      #001=Z8AM$COBOL_80_COMPILER File=Z8AM.:Z8A6TSI                     SAT 08/09/97 10:43 Page:7
      175    12212    3          END ;
      176    12213
      177    12214    2          CALL Z8AR$FREER (ADDR(ILL_)) ;
      178    12215    2          CALL Z8AR$FREER (ADDR(ILS_)) ;
      179    12216    2        END ;
      180    12217
      181    12218    1        CALL Z9AP$BRING_IN_PHASE(5);
      182    12219
      183    12220    1        IF  COMCOM.TREE_LINE = ' '
      184    12221    1        AND COMCOM.OB.IT = '0'B THEN
      185    12222    1          CALL Z8AR$FREER (ADDR(ETT_)) ;
      186    12223
      187    12224             /* Compute Total Time */
      188    12225
      189    12226    1        IF COMCOM.OB.STATS
      190    12227    1        THEN COMCOM.TIMES(0) = PREVIOUS - COMCOM.TIMES(0);
      191    12228
      192    12229    1        IF COMCOM.OB.STATS
      193    12230    1        THEN CALL Z9AP$STATS;
      194    12231
      195    12232    1        IF COMCOM.TREE_LINE ~= ' '
      196    12233    2        OR COMCOM.OB.IT = '1'B THEN DO ;
      197    12234    2          CALL Z8JS$START_TREEWALKER ;
      198    12235    2        END ;
      199    12236
      200    12237    1        CALL Z9AC$CLOSE_LO;
      201    12238    1        CALL Z9AR$FREE_DYNAMIC_SEGMENT;
      202    12239
      203    12240    1        IF COMCOM.MAX_ERROR >= 300 THEN CALL Z9AM$ERR_EXIT ;
      204    12241
      205    12242    1        RETURN ;
      206    12243
      207    12244    1   AUTO_OVERFLOW:
      208    12245
      209    12246    1        CALL Z8AE$ERROR (%E$AUTO_STACK_OVERFLOW_ERROR) ;
      210    12247
      211    12248    1        CALL Z9AT$TERMINATOR ;
PL6.E3A0      #001=Z8AM$COBOL_80_COMPILER File=Z8AM.:Z8A6TSI                     SAT 08/09/97 10:43 Page:8
      212    12249
      213    12250             %IF GCOS ;
      216    12253             %ENDIF ;
      217    12254
      218    12255    1   END Z8AM$COBOL_80_COMPILER;

PL6.E3A0      #001=Z8AM$COBOL_80_COMPILER File=Z8AM.:Z8A6TSI                     SAT 08/09/97 10:43 Page:9
--  Include file information  --

   Z8E_HEAPINFO.:Z8A6TOU  cannot be made into a system file and is referenced.
   Z8A_OBJ.:Z8A6TOU  cannot be made into a system file and is referenced.
   Z8A_COMCOM.:Z8A6TOU  cannot be made into a system file and is referenced.
   Z8A_XREF.:Z8A6TOU  cannot be made into a system file and is referenced.
   Z8A_ERR_NUMS.:Z8A6TOU  is referenced.
   Z8A_ERR.:Z8A6TOU  cannot be made into a system file and is referenced.
   Z8A_GST.:Z8A6TOU  cannot be made into a system file and is referenced.
   Z8A_QLT.:Z8A6TOU  cannot be made into a system file and is referenced.
   Z8A_DNT.:Z8A6TOU  cannot be made into a system file and is referenced.
   Z8A_LTS.:Z8A6TOU  cannot be made into a system file and is referenced.
   Z8A_TYPES.:Z8A6TOU  is referenced.
   Z8A_ST.:Z8A6TOU  cannot be made into a system file and is referenced.
   Z8A_ETT.:Z8A6TOU  cannot be made into a system file and is referenced.
   Z8A_DPI.:Z8A6TOU  cannot be made into a system file and is referenced.
   Z8A_ILS.:Z8A6TOU  cannot be made into a system file and is referenced.
   Z8A_ILL.:Z8A6TOU  cannot be made into a system file and is referenced.
   X8A_COM_MACS.:X8A6TOU  is referenced.
   Z8A_NAMES.:Z8A6TOU  is referenced.
   Z8A_SUPP_MAC.:Z8A6TOU  is referenced.
   Z8A_DEFC.:Z8A6TOU  cannot be made into a system file and is referenced.
   Z9A_FLAGS.:Z8A6TOU  is referenced.
      No diagnostics issued in procedure Z8AM$COBOL_80_COMPILER.

   Procedure Z8AM$COBOL_80_COMPILER requires 184 words for executable code.
   Procedure Z8AM$COBOL_80_COMPILER requires 6 words of local(AUTO) storage.

    No errors detected in file Z8AM.:Z8A6TSI    .

PL6.E3A0      #001=Z8AM$COBOL_80_COMPILER File=Z8AM.:Z8A6TSI                     SAT 08/09/97 10:43 Page:10

 Object Unit name= Z8AM$COBOL_80_COMPILER                     File name= Z8AM.:Z8A6TOU
 UTS= AUG 09 '97 10:43:50.40 SAT                              Compiler= PL-6/E31         Sev=      00
 SharedLib= :SHARED_SYSTEM                                    Alt SharedLib=


    ****  Control sections  ****

 Sect   Type Bound  Init  Size OctSiz  Section name(segment info)
    0  LblCom even  none     1      1  PREVIOUS
    1  LblCom even  none     1      1  ITERATION
    2   Data  even  none   370    562  Z8AM$COBOL_80_COMPILER
    3  LblCom even  none     1      1  ILL$
    4  LblCom even  none     5      5  ILL_
    5  RoData even  UTS    191    277  Z8AM$COBOL_80_COMPILER
    6  LblCom even  none     1      1  ILS$
    7  LblCom even  none     5      5  ILS_
    8  LblCom even  none     1      1  DPI$
    9  LblCom even  none     5      5  DPI_
   10  LblCom even  none     1      1  ETT$
   11  LblCom even  none     1      1  HEAD_ETT$
   12  LblCom even  none   512   1000  ETT_BUCKETS
   13  LblCom even  none     5      5  ETT_
   14  LblCom even  none     1      1  ST$
   15  LblCom even  none     5      5  ST_
   16  LblCom even  none     1      1  LTS$
   17  LblCom even  none     5      5  LTS_
   18  LblCom even  none     1      1  DNT$
   19  LblCom even  none     5      5  DNT_
   20  LblCom even  none     1      1  DNT_BUCKET_NUMBER
   21  LblCom even  none     1      1  DNT_OF_1$
   22  LblCom even  none     1      1  QLT$
   23  LblCom even  none     1      1  PREV_01_QLT$
   24  LblCom even  none     5      5  QLT_
   25  LblCom even  none     1      1  GST$
   26  LblCom even  none     5      5  GST_
   27  LblCom even  none     1      1  ERR$
   28  LblCom even  none     1      1  ERR_HEAD
PL6.E3A0      #001=Z8AM$COBOL_80_COMPILER File=Z8AM.:Z8A6TSI                     SAT 08/09/97 10:43 Page:11
   29  LblCom even  none     1      1  ERR_TAIL
   30  LblCom even  none     1      1  MAX_ERROR_GENERATED
   31  LblCom even  none     5      5  ERR_
   32  LblCom even  none     1      1  XREF$
   33  LblCom even  none     5      5  XREF_
   34  LblCom even  none     1      1  OBJ$
   35  LblCom even  none     1      1  PAGING_OBJ
   36  LblCom even  none     1      1  OBJ_PAGE_COUNT
   37  LblCom even  none     1      1  OBJ_FINISHED
   38  LblCom even  none     1      1  OBJ_SEG_SIZE
   39  LblCom even  none     1      1  OBJ_TOP_NEW_SEG
   40  LblCom even  none     1      1  OBJ_LAST_REGULAR_PAGE
   41  LblCom even  none     5      5  OBJ_
   42  LblCom even  none   101    145  HEAP_POOL
   43  LblCom even  none     1      1  HEAP_WORDS_ALLOCATED
   44  LblCom even  none     5      5  HEAP_
   45  LblCom even  none     1      1  HEAP$
   46   Proc  even  none   184    270  Z8AM$COBOL_80_COMPILER
   47  RoData even  none    24     30  Z8AM$COBOL_80_COMPILER

    ****  Entry defs  ****

                              Check   Calling
                             calling  sequence
  Sect OctLoc Primary Altret sequence   type   Parms  Name
    46      0   yes            yes      Main       0  Z8AM$COBOL_80_COMPILER

  ****  Data defs  ****

 Sect OctLoc  Name                           Sect OctLoc  Name
    2      0  END_PROGRAM_FOUND                  5      0  ILL_STEP
    5    221  ILS_STEP_TABLE                     5    224  LTS_STEP
    2      2  COMCOM                             5    272  OBJ_STEP
PL6.E3A0      #001=Z8AM$COBOL_80_COMPILER File=Z8AM.:Z8A6TSI                     SAT 08/09/97 10:43 Page:12

  ****  Entry refs  ****

         Check        Calling
        calling       sequence
Altret sequence SRef   type   Args  Name
         yes           Std       0 Z9AM$SAVE_DATE
 yes     yes           Std       0 Z9A1$INITIALIZE
         yes           Std       0 Z9AT$START
         yes           Std       1 Z8AR$FREER
         yes           Std      12 Z8AE$ERROR
         yes           Std       0 Z9AP$STATS
         yes           Std       0 Z9AM$ERR_EXIT
         yes           Std       0 Z9AC$CLOSE_LO
         yes           Std       0 Z9AT$TERMINATOR
 yes     yes           Std       0 X66_AUTO_EX
         yes           Std       1 Z9AP$BRING_IN_PHASE
         yes           Std       0 Z8JS$START_TREEWALKER
 yes     yes           Std       0 Z9AR$FREE_DYNAMIC_SEGMENT
                       nStd      0 X66_MAUTO
                       nStd      0 X66_MARET

  ****  Segment refs  ****

  Flags:  r = read only, s = secondary
Flgs Name                             Flgs Name                             Flgs Name
     NULLSID                               ISSID
PL6.E3A0      #001=Z8AM$COBOL_80_COMPILER File=Z8AM.:Z8A6TSI                     SAT 08/09/97 10:43 Page:13


        1        1        /*M* Z8AM$COBOL_80_COMPILER -- The Main Module */
        2        2        /*T***********************************************************/
        3        3        /*T*                                                         */
        4        4        /*T* Copyright (c) Bull HN Information Systems Inc., 1997    */
        5        5        /*T*                                                         */
        6        6        /*T***********************************************************/
        7        7
        8        8
        9        9        /*P*
       10       10               NAME: Z8AM$COBOL_80_COMPILER
       11       11
       12       12             AUTHOR: Joe  Cheng
       13       13
       14       14            PURPOSE: TO OVERSEE AND CONTROL ALL THE PHASES AND FUNCTIONS
       15       15                     OF THE COBOL-80 COMPILER.
       16       16
       17       17        */
       18       18
       19       19        /*D*    NAME: Z8AM$COBOL_80_COMPILER
       20       20
       21       21           INTERFACE: Z9AP -- Bring in a phase.
       22       22                      Z8JT -- Dump the tables or compile times.
       23       23                      Z8AR -- Free table space.
       24       24                      Z9AR -- Free table space (all of it).
       25       25                      Z9AM -- Save Date/Time/UTS.
       26       26                           -- Provide an Error Exit when fatal errors occur.
       27       27                      Z9AT -- Set Abort and Break control.
       28       28
       29       29         DESCRIPTION: (1) Sets the date, time, and UTS for compile.
       30       30                      (2) Reads options and sets COMCOM option bits.
       31       31                      (3) Calls each phase in turn, and dumps the
       32       32                          tables after a phase if requested via a
       33       33                          OnDUMP option.
       34       34                      (4) Computes the total compilation time.
       35       35                      (5) Prints the compile time if STATS is on.
       36       36                      (6) Frees the space used by the IL tables.
PL6.E3A0      #001=Z8AM$COBOL_80_COMPILER File=Z8AM.:Z8A6TSI                     SAT 08/09/97 10:43 Page:14
       37       37                      (7) Closes the "LO" file.
       38       38        */
       39       39
       40       40        %EJECT;
PL6.E3A0      #001=Z8AM$COBOL_80_COMPILER File=Z8AM.:Z8A6TSI                     SAT 08/09/97 10:43 Page:15
       41       41        %INCLUDE Z9A_FLAGS ;
       42       55        Z8AM$COBOL_80_COMPILER: PROC MAIN

     55 46 000000   000000 700200 xent  Z8AM$COBOL_* TSX0  ! X66_MAUTO
        46 000001   000006 000000                    ZERO    6,0

       43       56            %IF GCOS ;
       45       58            %ENDIF ;
       46       59             ;
       47       60
       48       61    1        DCL PREVIOUS UBIN WORD EXT INIT(0);
       49       62
       50       63    1        DCL Z8AR$FREER ENTRY(1);
       51       64    1        DCL Z9AP$BRING_IN_PHASE ENTRY(1);
       52       65    1        DCL Z9AR$FREE_DYNAMIC_SEGMENT ENTRY ALTRET;
       53       66    1        DCL Z9AC$CLOSE_LO ENTRY;
       54       67    1        DCL Z9AP$STATS ENTRY;
       55       68    1        DCL Z8JS$START_TREEWALKER ENTRY ;
       56       69             %IF CP6 ;
       57       70    1        DCL Z9AT$START ENTRY ;
       58       71             %ENDIF ;
       59       72    1        DCL X66_AUTO_EX ENTRY ALTRET ;
       60       73    1        DCL Z8AE$ERROR ENTRY (12) ;
       61       74    1        DCL Z9AM$SAVE_DATE ENTRY ;
       62       75    1        DCL Z9AM$ERR_EXIT  ENTRY ;
       63       76    1        DCL Z9AT$TERMINATOR ENTRY ;
       64       77    1        DCL Z9A1$INITIALIZE ENTRY ALTRET;
       65       78
       66       79
       67       80        %SET PHASE = 0;
       68       81        %INCLUDE Z8A_DEFC;
       69      149
       70      150    1   DCL END_PROGRAM_FOUND  BIT(1) ALIGNED STATIC SYMDEF INIT (FALSE);
       71      151        %INCLUDE Z8A_SUPP_MAC ;
       72     2551
       73     2552        %SET INITIALIZE = '1'B;
       74     2553        %INCLUDE Z8A_ILL;
PL6.E3A0      #001=Z8AM$COBOL_80_COMPILER File=Z8AM.:Z8A6TSI                     SAT 08/09/97 10:43 Page:16
       75     3246        %INCLUDE Z8A_ILS;
       76     3355        %INCLUDE Z8A_DPI;
       77     3439        %INCLUDE Z8A_ETT;
       78     3740        %INCLUDE Z8A_ST ;
       79     7399        %INCLUDE Z8A_TYPES;
       80     7573        %INCLUDE Z8A_LTS;
       81     9650        %INCLUDE Z8A_DNT;
       82     9871        %INCLUDE Z8A_QLT;
       83     9977        %INCLUDE Z8A_GST ;
       84    10037        %INCLUDE Z8A_ERR ;
       85    10106        %INCLUDE Z8A_ERR_NUMS ;
       86    10870        %INCLUDE Z8A_XREF ;
       87    10942        %INCLUDE Z8A_COMCOM;
       88    11592        %INCLUDE Z8A_OBJ;
       89    12089        %INCLUDE Z8E_HEAPINFO ;
       90    12127
       91    12128             %IF GCOS ;
       93    12130             %ENDIF ;
       94    12131
       95    12132        %EJECT;
PL6.E3A0      #001=Z8AM$COBOL_80_COMPILER File=Z8AM.:Z8A6TSI                     SAT 08/09/97 10:43 Page:17
       96    12133             /* Save Date/Time/UTS of compilation */
       97    12134
       98    12135             %IF GCOS ;
      100    12137             %ENDIF ;
      101    12138    1        CALL Z9AM$SAVE_DATE ;

  12138 46 000002   000000 631400 47                 EPPR1   0
        46 000003   000000 701000 xent               TSX1    Z9AM$SAVE_DATE
        46 000004   000000 011000                    NOP     0

      102    12139    1        CALL Z9A1$INITIALIZE; /* CP-6- or GCOS-specific initialization. */

  12139 46 000005   000000 631400 47                 EPPR1   0
        46 000006   000000 701000 xent               TSX1    Z9A1$INITIALIZE
        46 000007   000000 011000                    NOP     0

      103    12140
      104    12141    1        CALL X66_AUTO_EX ALTRET (AUTO_OVERFLOW) ; /* If auto stack overflow */

  12141 46 000010   000000 631400 47                 EPPR1   0
        46 000011   000000 701000 xent               TSX1    X66_AUTO_EX
        46 000012   000260 702000 46                 TSX2    AUTO_OVERFLOW

      105    12142
      106    12143             %IF CP6 ;
      107    12144    1        CALL Z9AT$START ; /* Set wrapup and break control */

  12144 46 000013   000000 631400 47                 EPPR1   0
        46 000014   000000 701000 xent               TSX1    Z9AT$START
        46 000015   000000 011000                    NOP     0

      108    12145             %ENDIF ;
      109    12146
      110    12147    1        CALL Z9AP$BRING_IN_PHASE (0);

  12147 46 000016   000002 630400 47                 EPPR0   2
        46 000017   000001 631400 47                 EPPR1   1
PL6.E3A0      #001=Z8AM$COBOL_80_COMPILER File=Z8AM.:Z8A6TSI                     SAT 08/09/97 10:43 Page:18
        46 000020   000000 701000 xent               TSX1    Z9AP$BRING_IN_PHASE
        46 000021   000000 011000                    NOP     0

      111    12148
      112    12149             /* Set COMCOM.SEVERITY based on INFO, NWARN, etc. options */
      113    12150
      114    12151    1        IF COMCOM.OB.INFO

  12151 46 000022   000036 234000 2                  SZN     COMCOM+28
        46 000023   000026 605000 46                 TPL     s:12154

      115    12152    1        THEN COMCOM.SEVERITY = 000 ; /* Print all errors */

  12152 46 000024   000376 450000 2                  STZ     COMCOM+252
        46 000025   000042 710000 46                 TRA     s:12168

      116    12153    1        ELSE
      117    12154    1        IF NOT COMCOM.OB.NWARN /* WARN option */

  12154 46 000026   000051 234000 2                  SZN     COMCOM+39
        46 000027   000033 604000 46                 TMI     s:12163

      118    12155    1        THEN COMCOM.SEVERITY = 100 ; /* Exclude only INFO */

  12155 46 000030   000144 235007                    LDA     100,DL
        46 000031   000376 755000 2                  STA     COMCOM+252
        46 000032   000042 710000 46                 TRA     s:12168

      119    12156             %IF GCOS;
      124    12161             %ENDIF;
      125    12162    1        ELSE
      126    12163    1        IF COMCOM.OB.SV5

  12163 46 000033   000073 234000 2                  SZN     COMCOM+57
        46 000034   000040 605000 46                 TPL     s:12165

      127    12164    1        THEN COMCOM.SEVERITY = 900 ; /* Print only abort message */
PL6.E3A0      #001=Z8AM$COBOL_80_COMPILER File=Z8AM.:Z8A6TSI                     SAT 08/09/97 10:43 Page:19

  12164 46 000035   001604 235007                    LDA     900,DL
        46 000036   000376 755000 2                  STA     COMCOM+252
        46 000037   000042 710000 46                 TRA     s:12168

      128    12165    1        ELSE COMCOM.SEVERITY = 200 ; /* NWARN, SV3, SV4 */

  12165 46 000040   000310 235007                    LDA     200,DL
        46 000041   000376 755000 2                  STA     COMCOM+252

      129    12166
      130    12167
      131    12168    1        CALL Z9AP$BRING_IN_PHASE (1);

  12168 46 000042   000004 630400 47                 EPPR0   4
        46 000043   000001 631400 47                 EPPR1   1
        46 000044   000000 701000 xent               TSX1    Z9AP$BRING_IN_PHASE
        46 000045   000000 011000                    NOP     0

      132    12169
      133    12170    1        CALL Z9AP$BRING_IN_PHASE (2) ;

  12170 46 000046   000006 630400 47                 EPPR0   6
        46 000047   000001 631400 47                 EPPR1   1
        46 000050   000000 701000 xent               TSX1    Z9AP$BRING_IN_PHASE
        46 000051   000000 011000                    NOP     0

      134    12171
      135    12172             /*V* Don't call Phases 3 or 4 if there is a 5-star error */
      136    12173         /*
      137    12174             IF COMCOM.MAX_ERROR >= 900
      138    12175             THEN COMCOM.OB.CHECK = '1'B ;
      139    12176         */
      140    12177
      141    12178    2        IF COMCOM.OB.CHECK = '1'B THEN DO ;

  12178 46 000052   000074 234000 2                  SZN     COMCOM+58
PL6.E3A0      #001=Z8AM$COBOL_80_COMPILER File=Z8AM.:Z8A6TSI                     SAT 08/09/97 10:43 Page:20
        46 000053   000062 605000 46                 TPL     s:12187

      142    12179    2          COMCOM.OB.LISTOUT = '0'B ;

  12179 46 000054   000043 450000 2                  STZ     COMCOM+33

      143    12180               %IF CP6 ;
      144    12181    2          COMCOM.OB.LO      = '0'B ;

  12181 46 000055   000103 450000 2                  STZ     COMCOM+65

      145    12182    2          COMCOM.OB.DECK    = '0'B ;

  12182 46 000056   000007 236000 47                 LDQ     7
        46 000057   000024 356000 2                  ANSQ    COMCOM+18

      146    12183               %ENDIF ;
      147    12184    2          COMCOM.OB.DSS     = '0'B ;

  12184 46 000060   000026 356000 2                  ANSQ    COMCOM+20

      148    12185    2        END ;

  12185 46 000061   000072 710000 46                 TRA     s:12194

      149    12186    1        ELSE
      150    12187    1        IF  COMCOM.OB.LISTOUT = '0'B

  12187 46 000062   000043 235000 2                  LDA     COMCOM+33
        46 000063   000072 601000 46                 TNZ     s:12194
        46 000064   000103 236000 2                  LDQ     COMCOM+65
        46 000065   000072 601000 46                 TNZ     s:12194
        46 000066   000024 234000 2                  SZN     COMCOM+18
        46 000067   000072 604000 46                 TMI     s:12194

      151    12188             %IF CP6 ;
      152    12189    1        AND COMCOM.OB.LO      = '0'B
PL6.E3A0      #001=Z8AM$COBOL_80_COMPILER File=Z8AM.:Z8A6TSI                     SAT 08/09/97 10:43 Page:21
      153    12190             %ENDIF ;
      154    12191    1        AND COMCOM.OB.DECK    = '0'B
      155    12192    1        THEN COMCOM.OB.CHECK  = '1'B ;

  12192 46 000070   400000 236003                    LDQ     -131072,DU
        46 000071   000074 256000 2                  ORSQ    COMCOM+58

      156    12193
      157    12194    2        IF COMCOM.OB.CHECK = '0'B THEN DO ;

  12194 46 000072   000074 234000 2                  SZN     COMCOM+58
        46 000073   000124 604000 46                 TMI     s:12204

      158    12195
      159    12196    2          CALL Z9AP$BRING_IN_PHASE(3);

  12196 46 000074   000011 630400 47                 EPPR0   9
        46 000075   000001 631400 47                 EPPR1   1
        46 000076   000000 701000 xent               TSX1    Z9AP$BRING_IN_PHASE
        46 000077   000000 011000                    NOP     0

      160    12197    2          CALL Z8AR$FREER (ADDR(GST_)) ;

  12197 46 000100   000012 236000 47                 LDQ     10
        46 000101   200004 756100                    STQ     4,,AUTO
        46 000102   200004 630500                    EPPR0   4,,AUTO
        46 000103   200005 450500                    STP0    5,,AUTO
        46 000104   200005 630500                    EPPR0   5,,AUTO
        46 000105   000001 631400 47                 EPPR1   1
        46 000106   000000 701000 xent               TSX1    Z8AR$FREER
        46 000107   000000 011000                    NOP     0

      161    12198    2          CALL Z8AR$FREER (ADDR(DPI_)) ;

  12198 46 000110   000013 236000 47                 LDQ     11
        46 000111   200004 756100                    STQ     4,,AUTO
        46 000112   200004 630500                    EPPR0   4,,AUTO
PL6.E3A0      #001=Z8AM$COBOL_80_COMPILER File=Z8AM.:Z8A6TSI                     SAT 08/09/97 10:43 Page:22
        46 000113   200005 450500                    STP0    5,,AUTO
        46 000114   200005 630500                    EPPR0   5,,AUTO
        46 000115   000001 631400 47                 EPPR1   1
        46 000116   000000 701000 xent               TSX1    Z8AR$FREER
        46 000117   000000 011000                    NOP     0

      162    12199
      163    12200    2          CALL Z9AP$BRING_IN_PHASE(4);

  12200 46 000120   000015 630400 47                 EPPR0   13
        46 000121   000001 631400 47                 EPPR1   1
        46 000122   000000 701000 xent               TSX1    Z9AP$BRING_IN_PHASE
        46 000123   000000 011000                    NOP     0

      164    12201
      165    12202    2        END /* If Then Do */ ;

      166    12203
      167    12204    1        IF  COMCOM.TREE_LINE = ' '

  12204 46 000124   040000 106400                    CMPC    fill='040'O
        46 000125   000400 000124 2                  ADSC9   COMCOM+254               cn=0,n=84
        46 000126   000016 000001 47                 ADSC9   14                       cn=0,n=1
        46 000127   000176 601000 46                 TNZ     s:12218
        46 000130   000106 234000 2                  SZN     COMCOM+68
        46 000131   000176 604000 46                 TMI     s:12218

      168    12205    2        AND COMCOM.OB.IT = '0'B THEN DO ;

      169    12206    2          IF COMCOM.OB.DSS OR COMCOM.OB.LISTOUT OR COMCOM.OB.XREF

  12206 46 000132   000026 234000 2                  SZN     COMCOM+20
        46 000133   000156 604000 46                 TMI     s:12214
        46 000134   000043 235000 2                  LDA     COMCOM+33
        46 000135   000156 601000 46                 TNZ     s:12214
        46 000136   000057 234000 2                  SZN     COMCOM+45
        46 000137   000156 604000 46                 TMI     s:12214
PL6.E3A0      #001=Z8AM$COBOL_80_COMPILER File=Z8AM.:Z8A6TSI                     SAT 08/09/97 10:43 Page:23
        46 000140   000044 234000 2                  SZN     COMCOM+34
        46 000141   000156 604000 46                 TMI     s:12214
        46 000142   000077 234000 2                  SZN     COMCOM+61
        46 000143   000156 604000 46                 TMI     s:12214

      170    12207    2          OR COMCOM.OB.MAP OR COMCOM.OB.ARRAY_PRESET
      171    12208    2          THEN ; /* Don't purge QLT */
      172    12209    3          ELSE DO ; /* Debug schema,LSTOU,XREF off, no array presets */

      173    12210    3            CALL Z8AR$FREER (ADDR(QLT_)) ;

  12210 46 000144   000017 236000 47                 LDQ     15
        46 000145   200004 756100                    STQ     4,,AUTO
        46 000146   200004 630500                    EPPR0   4,,AUTO
        46 000147   200005 450500                    STP0    5,,AUTO
        46 000150   200005 630500                    EPPR0   5,,AUTO
        46 000151   000001 631400 47                 EPPR1   1
        46 000152   000000 701000 xent               TSX1    Z8AR$FREER
        46 000153   000000 011000                    NOP     0

      174    12211    3            COMCOM.PREV_QLT$ = ADDR(NIL) ;

  12211 46 000154   000020 236000 47                 LDQ     16
        46 000155   000426 756000 2                  STQ     COMCOM+276

      175    12212    3          END ;

      176    12213
      177    12214    2          CALL Z8AR$FREER (ADDR(ILL_)) ;

  12214 46 000156   000021 236000 47                 LDQ     17
        46 000157   200004 756100                    STQ     4,,AUTO
        46 000160   200004 630500                    EPPR0   4,,AUTO
        46 000161   200005 450500                    STP0    5,,AUTO
        46 000162   200005 630500                    EPPR0   5,,AUTO
        46 000163   000001 631400 47                 EPPR1   1
        46 000164   000000 701000 xent               TSX1    Z8AR$FREER
PL6.E3A0      #001=Z8AM$COBOL_80_COMPILER File=Z8AM.:Z8A6TSI                     SAT 08/09/97 10:43 Page:24
        46 000165   000000 011000                    NOP     0

      178    12215    2          CALL Z8AR$FREER (ADDR(ILS_)) ;

  12215 46 000166   000022 236000 47                 LDQ     18
        46 000167   200004 756100                    STQ     4,,AUTO
        46 000170   200004 630500                    EPPR0   4,,AUTO
        46 000171   200005 450500                    STP0    5,,AUTO
        46 000172   200005 630500                    EPPR0   5,,AUTO
        46 000173   000001 631400 47                 EPPR1   1
        46 000174   000000 701000 xent               TSX1    Z8AR$FREER
        46 000175   000000 011000                    NOP     0

      179    12216    2        END ;

      180    12217
      181    12218    1        CALL Z9AP$BRING_IN_PHASE(5);

  12218 46 000176   000024 630400 47                 EPPR0   20
        46 000177   000001 631400 47                 EPPR1   1
        46 000200   000000 701000 xent               TSX1    Z9AP$BRING_IN_PHASE
        46 000201   000000 011000                    NOP     0

      182    12219
      183    12220    1        IF  COMCOM.TREE_LINE = ' '

  12220 46 000202   040000 106400                    CMPC    fill='040'O
        46 000203   000400 000124 2                  ADSC9   COMCOM+254               cn=0,n=84
        46 000204   000016 000001 47                 ADSC9   14                       cn=0,n=1
        46 000205   000220 601000 46                 TNZ     s:12226
        46 000206   000106 234000 2                  SZN     COMCOM+68
        46 000207   000220 604000 46                 TMI     s:12226

      184    12221    1        AND COMCOM.OB.IT = '0'B THEN
      185    12222    1          CALL Z8AR$FREER (ADDR(ETT_)) ;

  12222 46 000210   000025 236000 47                 LDQ     21
PL6.E3A0      #001=Z8AM$COBOL_80_COMPILER File=Z8AM.:Z8A6TSI                     SAT 08/09/97 10:43 Page:25
        46 000211   200004 756100                    STQ     4,,AUTO
        46 000212   200004 630500                    EPPR0   4,,AUTO
        46 000213   200005 450500                    STP0    5,,AUTO
        46 000214   200005 630500                    EPPR0   5,,AUTO
        46 000215   000001 631400 47                 EPPR1   1
        46 000216   000000 701000 xent               TSX1    Z8AR$FREER
        46 000217   000000 011000                    NOP     0

      186    12223
      187    12224             /* Compute Total Time */
      188    12225
      189    12226    1        IF COMCOM.OB.STATS

  12226 46 000220   000054 234000 2                  SZN     COMCOM+42
        46 000221   000225 605000 46                 TPL     s:12229

      190    12227    1        THEN COMCOM.TIMES(0) = PREVIOUS - COMCOM.TIMES(0);

  12227 46 000222   000000 236000 0                  LDQ     PREVIOUS
        46 000223   000367 136000 2                  SBLQ    COMCOM+245
        46 000224   000367 756000 2                  STQ     COMCOM+245

      191    12228
      192    12229    1        IF COMCOM.OB.STATS

  12229 46 000225   000054 234000 2                  SZN     COMCOM+42
        46 000226   000232 605000 46                 TPL     s:12232

      193    12230    1        THEN CALL Z9AP$STATS;

  12230 46 000227   000000 631400 47                 EPPR1   0
        46 000230   000000 701000 xent               TSX1    Z9AP$STATS
        46 000231   000000 011000                    NOP     0

      194    12231
      195    12232    1        IF COMCOM.TREE_LINE ~= ' '

PL6.E3A0      #001=Z8AM$COBOL_80_COMPILER File=Z8AM.:Z8A6TSI                     SAT 08/09/97 10:43 Page:26
  12232 46 000232   040000 106400                    CMPC    fill='040'O
        46 000233   000400 000124 2                  ADSC9   COMCOM+254               cn=0,n=84
        46 000234   000016 000001 47                 ADSC9   14                       cn=0,n=1
        46 000235   000240 601000 46                 TNZ     s:12234
        46 000236   000106 234000 2                  SZN     COMCOM+68
        46 000237   000243 605000 46                 TPL     s:12237

      196    12233    2        OR COMCOM.OB.IT = '1'B THEN DO ;

      197    12234    2          CALL Z8JS$START_TREEWALKER ;

  12234 46 000240   000000 631400 47                 EPPR1   0
        46 000241   000000 701000 xent               TSX1    Z8JS$START_TREEWALKER
        46 000242   000000 011000                    NOP     0

      198    12235    2        END ;

      199    12236
      200    12237    1        CALL Z9AC$CLOSE_LO;

  12237 46 000243   000000 631400 47                 EPPR1   0
        46 000244   000000 701000 xent               TSX1    Z9AC$CLOSE_LO
        46 000245   000000 011000                    NOP     0

      201    12238    1        CALL Z9AR$FREE_DYNAMIC_SEGMENT;

  12238 46 000246   000000 631400 47                 EPPR1   0
        46 000247   000000 701000 xent               TSX1    Z9AR$FREE_DYNAMIC_SEGMENT
        46 000250   000000 011000                    NOP     0

      202    12239
      203    12240    1        IF COMCOM.MAX_ERROR >= 300 THEN CALL Z9AM$ERR_EXIT ;

  12240 46 000251   000004 235000 2                  LDA     COMCOM+2
        46 000252   000454 115007                    CMPA    300,DL
        46 000253   000257 604000 46                 TMI     s:12242

PL6.E3A0      #001=Z8AM$COBOL_80_COMPILER File=Z8AM.:Z8A6TSI                     SAT 08/09/97 10:43 Page:27
  12240 46 000254   000000 631400 47                 EPPR1   0
        46 000255   000000 701000 xent               TSX1    Z9AM$ERR_EXIT
        46 000256   000000 011000                    NOP     0

      204    12241
      205    12242    1        RETURN ;

  12242 46 000257   000000 702200 xent               TSX2  ! X66_MARET

      206    12243
      207    12244    1   AUTO_OVERFLOW:
      208    12245
      209    12246    1        CALL Z8AE$ERROR (%E$AUTO_STACK_OVERFLOW_ERROR) ;

  12246 46 000260   000027 630400 47    AUTO_OVERFL* EPPR0   23
        46 000261   000001 631400 47                 EPPR1   1
        46 000262   000000 701000 xent               TSX1    Z8AE$ERROR
        46 000263   000000 011000                    NOP     0

      210    12247
      211    12248    1        CALL Z9AT$TERMINATOR ;

  12248 46 000264   000000 631400 47                 EPPR1   0
        46 000265   000000 701000 xent               TSX1    Z9AT$TERMINATOR
        46 000266   000000 011000                    NOP     0

      212    12249
      213    12250             %IF GCOS ;
      216    12253             %ENDIF ;
      217    12254
      218    12255    1   END Z8AM$COBOL_80_COMPILER;

  12255 46 000267   000000 702200 xent               TSX2  ! X66_MARET

PL6.E3A0      #001=Z8AM$COBOL_80_COMPILER File=Z8AM.:Z8A6TSI                     SAT 08/09/97 10:43 Page:28
--  Include file information  --

   Z8E_HEAPINFO.:Z8A6TOU  cannot be made into a system file and is referenced.
   Z8A_OBJ.:Z8A6TOU  cannot be made into a system file and is referenced.
   Z8A_COMCOM.:Z8A6TOU  cannot be made into a system file and is referenced.
   Z8A_XREF.:Z8A6TOU  cannot be made into a system file and is referenced.
   Z8A_ERR_NUMS.:Z8A6TOU  is referenced.
   Z8A_ERR.:Z8A6TOU  cannot be made into a system file and is referenced.
   Z8A_GST.:Z8A6TOU  cannot be made into a system file and is referenced.
   Z8A_QLT.:Z8A6TOU  cannot be made into a system file and is referenced.
   Z8A_DNT.:Z8A6TOU  cannot be made into a system file and is referenced.
   Z8A_LTS.:Z8A6TOU  cannot be made into a system file and is referenced.
   Z8A_TYPES.:Z8A6TOU  is referenced.
   Z8A_ST.:Z8A6TOU  cannot be made into a system file and is referenced.
   Z8A_ETT.:Z8A6TOU  cannot be made into a system file and is referenced.
   Z8A_DPI.:Z8A6TOU  cannot be made into a system file and is referenced.
   Z8A_ILS.:Z8A6TOU  cannot be made into a system file and is referenced.
   Z8A_ILL.:Z8A6TOU  cannot be made into a system file and is referenced.
   X8A_COM_MACS.:X8A6TOU  is referenced.
   Z8A_NAMES.:Z8A6TOU  is referenced.
   Z8A_SUPP_MAC.:Z8A6TOU  is referenced.
   Z8A_DEFC.:Z8A6TOU  cannot be made into a system file and is referenced.
   Z9A_FLAGS.:Z8A6TOU  is referenced.
      No diagnostics issued in procedure Z8AM$COBOL_80_COMPILER.
PL6.E3A0      #001=Z8AM$COBOL_80_COMPILER File=Z8AM.:Z8A6TSI                     SAT 08/09/97 10:43 Page:29

 **** Variables and constants ****

  ****  Section 000 LblCom PREVIOUS

  ****  Scalars and arrays  ****
OctLoc.c.b A Datatyp(siz) R M Lvl/name                 OctLoc.c.b A Datatyp(siz) R M Lvl/name

     0-0-0/w UBIN        r     1 PREVIOUS

  ****  Section 001 LblCom ITERATION

  ****  Scalars and arrays  ****
OctLoc.c.b A Datatyp(siz) R M Lvl/name                 OctLoc.c.b A Datatyp(siz) R M Lvl/name

     0-0-0/w SBIN              1 ITERATION

  ****  Section 002  Data  Z8AM$COBOL_80_COMPILER

  ****  Scalars and arrays  ****
OctLoc.c.b A Datatyp(siz) R M Lvl/name                 OctLoc.c.b A Datatyp(siz) R M Lvl/name

     2-0-0/d STRC(13248) r     1 COMCOM                     0-0-0/w BIT               1 END_PROGRAM_FOUND

  ****  Section 003 LblCom ILL$

  ****  Scalars and arrays  ****
OctLoc.c.b A Datatyp(siz) R M Lvl/name                 OctLoc.c.b A Datatyp(siz) R M Lvl/name

     0-0-0/w PTR         r     1 ILL$

  ****  Section 004 LblCom ILL_

  ****  Scalars and arrays  ****
OctLoc.c.b A Datatyp(siz) R M Lvl/name                 OctLoc.c.b A Datatyp(siz) R M Lvl/name

     0-0-0/w STRC(180)   r     1 ILL_

PL6.E3A0      #001=Z8AM$COBOL_80_COMPILER File=Z8AM.:Z8A6TSI                     SAT 08/09/97 10:43 Page:30
  ****  Section 005 RoData Z8AM$COBOL_80_COMPILER

  ****  Scalars and arrays  ****
OctLoc.c.b A Datatyp(siz) R M Lvl/name                 OctLoc.c.b A Datatyp(siz) R M Lvl/name

     0-0-0/w UBIN              1 ILL_STEP(0:144)
   221-0-0/w UBIN              1 ILS_STEP_TABLE(0:2)
   224-0-0/w UBIN              1 LTS_STEP(0:37)
   272-0-0/w UBIN              1 OBJ_STEP(0:4)

  ****  Section 006 LblCom ILS$

  ****  Scalars and arrays  ****
OctLoc.c.b A Datatyp(siz) R M Lvl/name                 OctLoc.c.b A Datatyp(siz) R M Lvl/name

     0-0-0/w PTR         r     1 ILS$

  ****  Section 007 LblCom ILS_

  ****  Scalars and arrays  ****
OctLoc.c.b A Datatyp(siz) R M Lvl/name                 OctLoc.c.b A Datatyp(siz) R M Lvl/name

     0-0-0/w STRC(180)   r     1 ILS_

  ****  Section 008 LblCom DPI$

  ****  Scalars and arrays  ****
OctLoc.c.b A Datatyp(siz) R M Lvl/name                 OctLoc.c.b A Datatyp(siz) R M Lvl/name

     0-0-0/w PTR         r     1 DPI$

  ****  Section 009 LblCom DPI_

  ****  Scalars and arrays  ****
OctLoc.c.b A Datatyp(siz) R M Lvl/name                 OctLoc.c.b A Datatyp(siz) R M Lvl/name

     0-0-0/w STRC(180)   r     1 DPI_
PL6.E3A0      #001=Z8AM$COBOL_80_COMPILER File=Z8AM.:Z8A6TSI                     SAT 08/09/97 10:43 Page:31

  ****  Section 010 LblCom ETT$

  ****  Scalars and arrays  ****
OctLoc.c.b A Datatyp(siz) R M Lvl/name                 OctLoc.c.b A Datatyp(siz) R M Lvl/name

     0-0-0/w PTR         r     1 ETT$

  ****  Section 011 LblCom HEAD_ETT$

  ****  Scalars and arrays  ****
OctLoc.c.b A Datatyp(siz) R M Lvl/name                 OctLoc.c.b A Datatyp(siz) R M Lvl/name

     0-0-0/w PTR               1 HEAD_ETT$

  ****  Section 012 LblCom ETT_BUCKETS

  ****  Scalars and arrays  ****
OctLoc.c.b A Datatyp(siz) R M Lvl/name                 OctLoc.c.b A Datatyp(siz) R M Lvl/name

     0-0-0/w PTR               1 ETT_BUCKETS(0:511)

  ****  Section 013 LblCom ETT_

  ****  Scalars and arrays  ****
OctLoc.c.b A Datatyp(siz) R M Lvl/name                 OctLoc.c.b A Datatyp(siz) R M Lvl/name

     0-0-0/w STRC(180)   r     1 ETT_

  ****  Section 014 LblCom ST$

  ****  Scalars and arrays  ****
OctLoc.c.b A Datatyp(siz) R M Lvl/name                 OctLoc.c.b A Datatyp(siz) R M Lvl/name

     0-0-0/w PTR         r     1 ST$

  ****  Section 015 LblCom ST_
PL6.E3A0      #001=Z8AM$COBOL_80_COMPILER File=Z8AM.:Z8A6TSI                     SAT 08/09/97 10:43 Page:32

  ****  Scalars and arrays  ****
OctLoc.c.b A Datatyp(siz) R M Lvl/name                 OctLoc.c.b A Datatyp(siz) R M Lvl/name

     0-0-0/w STRC(180)         1 ST_

  ****  Section 016 LblCom LTS$

  ****  Scalars and arrays  ****
OctLoc.c.b A Datatyp(siz) R M Lvl/name                 OctLoc.c.b A Datatyp(siz) R M Lvl/name

     0-0-0/w PTR               1 LONG_ITEM$                 0-0-0/w PTR         r     1 LTS$

  ****  Section 017 LblCom LTS_

  ****  Scalars and arrays  ****
OctLoc.c.b A Datatyp(siz) R M Lvl/name                 OctLoc.c.b A Datatyp(siz) R M Lvl/name

     0-0-0/w STRC(180)         1 LTS_

  ****  Section 018 LblCom DNT$

  ****  Scalars and arrays  ****
OctLoc.c.b A Datatyp(siz) R M Lvl/name                 OctLoc.c.b A Datatyp(siz) R M Lvl/name

     0-0-0/w PTR         r     1 DNT$

  ****  Section 019 LblCom DNT_

  ****  Scalars and arrays  ****
OctLoc.c.b A Datatyp(siz) R M Lvl/name                 OctLoc.c.b A Datatyp(siz) R M Lvl/name

     0-0-0/w STRC(180)         1 DNT_

  ****  Section 020 LblCom DNT_BUCKET_NUMBER

  ****  Scalars and arrays  ****
PL6.E3A0      #001=Z8AM$COBOL_80_COMPILER File=Z8AM.:Z8A6TSI                     SAT 08/09/97 10:43 Page:33
OctLoc.c.b A Datatyp(siz) R M Lvl/name                 OctLoc.c.b A Datatyp(siz) R M Lvl/name

     0-0-0/w UBIN              1 DNT_BUCKET_NUMBER

  ****  Section 021 LblCom DNT_OF_1$

  ****  Scalars and arrays  ****
OctLoc.c.b A Datatyp(siz) R M Lvl/name                 OctLoc.c.b A Datatyp(siz) R M Lvl/name

     0-0-0/w PTR               1 DNT_OF_1$

  ****  Section 022 LblCom QLT$

  ****  Scalars and arrays  ****
OctLoc.c.b A Datatyp(siz) R M Lvl/name                 OctLoc.c.b A Datatyp(siz) R M Lvl/name

     0-0-0/w PTR         r     1 QLT$

  ****  Section 023 LblCom PREV_01_QLT$

  ****  Scalars and arrays  ****
OctLoc.c.b A Datatyp(siz) R M Lvl/name                 OctLoc.c.b A Datatyp(siz) R M Lvl/name

     0-0-0/w PTR               1 PREV_01_QLT$

  ****  Section 024 LblCom QLT_

  ****  Scalars and arrays  ****
OctLoc.c.b A Datatyp(siz) R M Lvl/name                 OctLoc.c.b A Datatyp(siz) R M Lvl/name

     0-0-0/w STRC(180)   r     1 QLT_

  ****  Section 025 LblCom GST$

  ****  Scalars and arrays  ****
OctLoc.c.b A Datatyp(siz) R M Lvl/name                 OctLoc.c.b A Datatyp(siz) R M Lvl/name

PL6.E3A0      #001=Z8AM$COBOL_80_COMPILER File=Z8AM.:Z8A6TSI                     SAT 08/09/97 10:43 Page:34
     0-0-0/w PTR         r     1 GST$

  ****  Section 026 LblCom GST_

  ****  Scalars and arrays  ****
OctLoc.c.b A Datatyp(siz) R M Lvl/name                 OctLoc.c.b A Datatyp(siz) R M Lvl/name

     0-0-0/w STRC(180)   r     1 GST_

  ****  Section 027 LblCom ERR$

  ****  Scalars and arrays  ****
OctLoc.c.b A Datatyp(siz) R M Lvl/name                 OctLoc.c.b A Datatyp(siz) R M Lvl/name

     0-0-0/w PTR         r     1 ERR$

  ****  Section 028 LblCom ERR_HEAD

  ****  Scalars and arrays  ****
OctLoc.c.b A Datatyp(siz) R M Lvl/name                 OctLoc.c.b A Datatyp(siz) R M Lvl/name

     0-0-0/w PTR               1 ERR_HEAD

  ****  Section 029 LblCom ERR_TAIL

  ****  Scalars and arrays  ****
OctLoc.c.b A Datatyp(siz) R M Lvl/name                 OctLoc.c.b A Datatyp(siz) R M Lvl/name

     0-0-0/w PTR               1 ERR_TAIL

  ****  Section 030 LblCom MAX_ERROR_GENERATED

  ****  Scalars and arrays  ****
OctLoc.c.b A Datatyp(siz) R M Lvl/name                 OctLoc.c.b A Datatyp(siz) R M Lvl/name

     0-0-0/w SBIN              1 MAX_ERROR_GENERATED

PL6.E3A0      #001=Z8AM$COBOL_80_COMPILER File=Z8AM.:Z8A6TSI                     SAT 08/09/97 10:43 Page:35
  ****  Section 031 LblCom ERR_

  ****  Scalars and arrays  ****
OctLoc.c.b A Datatyp(siz) R M Lvl/name                 OctLoc.c.b A Datatyp(siz) R M Lvl/name

     0-0-0/w STRC(180)         1 ERR_

  ****  Section 032 LblCom XREF$

  ****  Scalars and arrays  ****
OctLoc.c.b A Datatyp(siz) R M Lvl/name                 OctLoc.c.b A Datatyp(siz) R M Lvl/name

     0-0-0/w PTR         r     1 XREF$

  ****  Section 033 LblCom XREF_

  ****  Scalars and arrays  ****
OctLoc.c.b A Datatyp(siz) R M Lvl/name                 OctLoc.c.b A Datatyp(siz) R M Lvl/name

     0-0-0/w STRC(180)         1 XREF_

  ****  Section 034 LblCom OBJ$

  ****  Scalars and arrays  ****
OctLoc.c.b A Datatyp(siz) R M Lvl/name                 OctLoc.c.b A Datatyp(siz) R M Lvl/name

     0-0-0/w PTR         r     1 OBJ$

  ****  Section 035 LblCom PAGING_OBJ

  ****  Scalars and arrays  ****
OctLoc.c.b A Datatyp(siz) R M Lvl/name                 OctLoc.c.b A Datatyp(siz) R M Lvl/name

     0-0-0/w BIT               1 PAGING_OBJ

  ****  Section 036 LblCom OBJ_PAGE_COUNT

PL6.E3A0      #001=Z8AM$COBOL_80_COMPILER File=Z8AM.:Z8A6TSI                     SAT 08/09/97 10:43 Page:36
  ****  Scalars and arrays  ****
OctLoc.c.b A Datatyp(siz) R M Lvl/name                 OctLoc.c.b A Datatyp(siz) R M Lvl/name

     0-0-0/w SBIN              1 OBJ_PAGE_COUNT

  ****  Section 037 LblCom OBJ_FINISHED

  ****  Scalars and arrays  ****
OctLoc.c.b A Datatyp(siz) R M Lvl/name                 OctLoc.c.b A Datatyp(siz) R M Lvl/name

     0-0-0/w BIT               1 OBJ_FINISHED

  ****  Section 038 LblCom OBJ_SEG_SIZE

  ****  Scalars and arrays  ****
OctLoc.c.b A Datatyp(siz) R M Lvl/name                 OctLoc.c.b A Datatyp(siz) R M Lvl/name

     0-0-0/w SBIN              1 OBJ_SEG_SIZE

  ****  Section 039 LblCom OBJ_TOP_NEW_SEG

  ****  Scalars and arrays  ****
OctLoc.c.b A Datatyp(siz) R M Lvl/name                 OctLoc.c.b A Datatyp(siz) R M Lvl/name

     0-0-0/w PTR               1 OBJ_TOP_NEW_SEG

  ****  Section 040 LblCom OBJ_LAST_REGULAR_PAGE

  ****  Scalars and arrays  ****
OctLoc.c.b A Datatyp(siz) R M Lvl/name                 OctLoc.c.b A Datatyp(siz) R M Lvl/name

     0-0-0/w PTR               1 OBJ_LAST_REGULAR_PAGE

  ****  Section 041 LblCom OBJ_

  ****  Scalars and arrays  ****
OctLoc.c.b A Datatyp(siz) R M Lvl/name                 OctLoc.c.b A Datatyp(siz) R M Lvl/name
PL6.E3A0      #001=Z8AM$COBOL_80_COMPILER File=Z8AM.:Z8A6TSI                     SAT 08/09/97 10:43 Page:37

     0-0-0/w STRC(180)         1 OBJ_

  ****  Section 042 LblCom HEAP_POOL

  ****  Scalars and arrays  ****
OctLoc.c.b A Datatyp(siz) R M Lvl/name                 OctLoc.c.b A Datatyp(siz) R M Lvl/name

     0-0-0/w PTR               1 HEAP_POOL(0:100)

  ****  Section 043 LblCom HEAP_WORDS_ALLOCATED

  ****  Scalars and arrays  ****
OctLoc.c.b A Datatyp(siz) R M Lvl/name                 OctLoc.c.b A Datatyp(siz) R M Lvl/name

     0-0-0/w SBIN              1 HEAP_WORDS_ALLOCATED

  ****  Section 044 LblCom HEAP_

  ****  Scalars and arrays  ****
OctLoc.c.b A Datatyp(siz) R M Lvl/name                 OctLoc.c.b A Datatyp(siz) R M Lvl/name

     0-0-0/w STRC(180)         1 HEAP_

  ****  Section 045 LblCom HEAP$

  ****  Scalars and arrays  ****
OctLoc.c.b A Datatyp(siz) R M Lvl/name                 OctLoc.c.b A Datatyp(siz) R M Lvl/name

     0-0-0/w PTR               1 HEAP$

  ****  BASED and DCB variables  ****

  ****  Scalars and arrays  ****
OctLoc.c.b A Datatyp(siz) R M Lvl/name                 OctLoc.c.b A Datatyp(siz) R M Lvl/name

     0-0-0/w STRC(108)   r     1 ACCEPT_DISPLAY             0-0-0/w STRC(396)         1 ALPHABET
PL6.E3A0      #001=Z8AM$COBOL_80_COMPILER File=Z8AM.:Z8A6TSI                     SAT 08/09/97 10:43 Page:38
     0-0-0/w STRC(144)   r     1 ALTER_LTS                  0-0-0/w STRC(3672)        1 ALT_KEY
     0-0-0/w STRC(36864)       1 ARGLIST                    0-0-0/w STRC(396)         1 ARRAY
     0-0-0/w STRC(180)   r     1 ARRAY_PRESET_LTS           0-0-0/w STRC(288)   r     1 BASE_LTS
     0-0-0/w STRC(108)   r     1 BINARY_ILL                 0-0-0/w STRC(396)         1 BLOCK
     0-0-0/w STRC(144)   r     1 BRANCH_ILL                 0-0-0/w STRC(144)   r     1 BT
     0-0-0/w STRC(216)   r     1 CCOSU                      0-0-0/w STRC(396)         1 CD
     0-0-0/w STRC(288)   r     1 CD_LTS                     0-0-0/w CHAR(4096)        1 CHARS
     0-0-0/w STRC(396)         1 CLASS                      0-0-0/w STRC(108)   r     1 CODED_MOVE
     0-0-0/w STRC(396)         1 CONDITION                  0-0-0/w STRC(396)         1 CONST
     0-0-0/w STRC(72)          1 CONT                       0-0-0/w STRC(540)   r     1 CONTROL_NAME_LTS
     0-0-0/w STRC(1872)  r     1 COPY_FILE                  0-0-0/w STRC(396)         1 DB
     0-0-0/w STRC(396)         1 DCB_                       0-0-0/w STRC(144)   r     1 DEFLB
     0-0-0/w STRC(108)   r     1 DEPENDING_SIZE             0-0-0/w STRC(5472)        1 DIMS
     0-0-0/w STRC(396)         1 DML_ITEM                   0-0-0/w STRC(216)   r     1 DML_REC
     0-0-0/w ASTR(180)   r     1 DNT                        0-0-0/w STRC(144)   r     1 DOEND
     0-0-0/w STRC(396)   r     1 DO_N                       0-0-0/w STRC(108)         1 DPI
     0-0-0/w STRC(180)   r     1 DV4I                       0-0-0/w STRC(180)   r     1 ENTRY_ILL
     0-0-0/w STRC(540)         1 ERR                        0-0-0/w STRC(180)         1 ETT
     0-0-0/w STRC(108)   r     1 EVALU                      0-0-0/w STRC(73836)       1 EVALUATE
     0-0-0/w STRC(396)         1 FD                         0-0-0/w STRC(1692)  r     1 FILE_LTS
     0-0-0/w STRC(144)   r     1 GO                         0-0-0/w STRC(108)         1 GST
     0-0-0/w STRC(72)          1 HEAP_CELL                  0-0-0/w STRC(180)         1 ILL
     0-0-0/w STRC        r     1 ILL_NO_OPS                 0-0-0/w STRC(180)   r     1 ILS
     0-0-0/w STRC(108)   r     1 INDEXES                    0-0-0/w STRC(360)   r     1 INIT_LTS
     0-0-0/w STRC(396)         1 INTDEF                     0-0-0/w STRC(180)   r     1 IO_RESTORE_CHAIN
     0-0-0/w STRC(144)   r     1 KEY                        0-0-0/w STRC(396)         1 LABEL
     0-0-0/w STRC(36864)       1 LCNST                      0-0-0/w STRC(108)   r     1 LINOI
     0-0-0/w STRC(72)    r     1 LONG                       0-0-0/w STRC              1 LTS
     0-0-0/w STRC(360)   r     1 LTSS                       0-0-0/w STRC(36936)       1 LTS_PTR_ARRAY
     0-0-0/w STRC(72)    r     1 MFILL                      0-0-0/w STRC(396)         1 MNEMONIC
     0-0-0/w STRC(180)   r     1 MULTI_GO                   0-0-0/w STRC(180)   r     1 MVEAL
     0-0-0/w STRC(108)   r     1 MVFIL                      0-0-0/w STRC(72)          1 MVIIS
     0-0-0/w STRC(144)   r     1 NEL                        0-0-0/w STRC              1 OBJ
     0-0-0/w STRC(72)    r     1 OBJ_LAB                    0-0-0/w STRC(108)   r     1 OBJ_LINE
     0-0-0/w STRC(72)    r     1 OBJ_ORG                    0-0-0/w STRC(72)    r     1 OBJ_SCOPE
     0-0-0/w STRC(144)   r     1 OBJ_WORD                   0-0-0/w STRC(216)   r     1 OPEN_LTS
     0-0-0/w STRC(144)   r     1 OPN                        0-0-0/w STRC(180)   r     1 OS_CALL
PL6.E3A0      #001=Z8AM$COBOL_80_COMPILER File=Z8AM.:Z8A6TSI                     SAT 08/09/97 10:43 Page:39
     0-0-0/w STRC(36864)       1 PAGE                       0-0-0/w STRC(396)         1 PARA
     0-0-0/w STRC(216)   r     1 PFORM                      0-0-0/w STRC(144)   r     1 PINC
     0-0-0/w STRC(144)   r     1 PREOFF                     0-0-0/w STRC(108)   r     1 PRESET
     0-0-0/w STRC(144)   r     1 PRIME                      0-0-0/w STRC(396)         1 PROC_
     0-0-0/w STRC(396)         1 PROC_DEF                   0-0-0/w STRC(900)   r     1 PROC_SUPP
     0-0-0/w STRC(144)   r     1 P_A_PRESET                 0-0-0/w STRC(144)   r     1 P_P_PRESET
     0-0-0/w STRC(216)         1 QLT                        0-0-0/w STRC(396)         1 RD
     0-0-0/w STRC(216)   r     1 REF                        0-0-0/w STRC(144)   r     1 REMEM
     0-0-0/w STRC(108)   r     1 RENAMES                    0-0-0/w STRC(720)   r     1 REPORT_01_LTS
     0-0-0/w STRC(432)   r     1 REPORT_ELEM_LTS            0-0-0/w STRC(252)   r     1 REPORT_GRP_LTS
     0-0-0/w STRC(1332)  r     1 REPORT_LTS                 0-0-0/w STRC(144)   r     1 RVA_LTS
     0-0-0/w STRC(396)         1 SCALAR                     0-0-0/w STRC(144)   r     1 SCOPE
     0-0-0/w STRC(396)         1 SD                         0-0-0/w STRC(216)   r     1 SEARCH_
     0-0-0/w STRC(396)         1 SECTION                    0-0-0/w STRC(396)         1 SEGMENT
     0-0-0/w STRC(360)   r     1 SEGMENT_LTS                0-0-0/w STRC(396)         1 ST
     0-0-0/w STRC(72)          1 STP2                       0-0-0/w STRC(252)   r     1 SUM_LTS
     0-0-0/w STRC(396)         1 SWITCH                     0-0-0/w STRC(396)         1 SYMBOLIC_CHAR
     0-0-0/w STRC(396)         1 SYMDEF_                    0-0-0/w STRC(396)         1 SYMREF_
     0-0-0/w STRC(396)         1 TEMP                       0-0-0/w STRC(144)   r     1 TRINARY_ILL
     0-0-0/w STRC(72)    r     1 UNARY_ILL                  0-0-0/d STRC(612)   r     1 USE
     0-0-0/w STRC(216)   r     1 USER_CALL                  0-0-0/w STRC(252)   r     1 USE_SUPP
     0-0-0/w STRC(108)   r     1 VAL                        0-0-0/w STRC(108)   r     1 VAL_END
     0-0-0/w STRC(396)         1 VARIABLE                   0-0-0/w STRC(72)    r     1 WHEN
     0-0-0/w STRC(72)          1 XREF


   Procedure Z8AM$COBOL_80_COMPILER requires 184 words for executable code.
   Procedure Z8AM$COBOL_80_COMPILER requires 6 words of local(AUTO) storage.

    No errors detected in file Z8AM.:Z8A6TSI    .
