VERSION A06

PL6.E3A0      #001=Z8AT$CREATE_TEMPORARY File=Z8AT.:Z8A6TSI                      SAT 08/09/97 10:51 Page:1
        1        1        /*T***********************************************************/
        2        2        /*T*                                                         */
        3        3        /*T* Copyright (c) Bull HN Information Systems Inc., 1997    */
        4        4        /*T*                                                         */
        5        5        /*T***********************************************************/
        6        6        Z8AT$CREATE_TEMPORARY:  PROC (SYM_ID,SYM$) ;
        7        7        /*M*  Z8AT$CREATE_TEMPORARY  Create temporary variables           */
        8        8
        9        9        /*P*
       10       10               NAME:  Z8AT$CREATE_TEMPORARY
       11       11             AUTHOR:  Greg Myers
       12       12            PURPOSE:  This procedure creates temporary scaler and label items.
       13       13        */
       14       14
       15       15        /*D*
       16       16               NAME:  Z8AT$CREATE_TEMPORARY
       17       17
       18       18              INPUT:  SYM_ID  The type of temporary item being created
       19       19             OUTPUT:  SYM$    Ptr to the temporary entry in the ST
       20       20
       21       21        DESCRIPTION:  This procedure creates temporary scalars, switches, and labels.
       22       22                      They are entered in the ST and DNT.  Temporary
       23       23                      variables have names from 'TEMP.001' to 'TEMP.999'.
       24       24                      If more than 999 temporary variables are needed then
       25       25                      the count is reset to 1.
       26       26        */
       27       27        %EJECT ;
PL6.E3A0      #001=Z8AT$CREATE_TEMPORARY File=Z8AT.:Z8A6TSI                      SAT 08/09/97 10:51 Page:2
       28       28        %EQU PHASE = 0;
       29       29        %EQU TEMP_VAR_LIMIT = 999 ; /* Number of distinct " VAR" variables */
       30       30        %EQU TEMP_LAB_LIMIT = 999 ; /* Number of distinct label variables */
       31       31        %EQU TEMP_TEMP_LIMIT = 999 ; /* Number of distinct temp variables */
       32       32        %EQU TEMP_DATA_NAME_LENGTH = 7 ;
       33       33        %EQU TEMP_TEMP_NAME_LENGTH = 8 ;
       34       34        %EQU TEMP_SWITCH_NAME_LENGTH = 8 ;
       35       35        %EQU TEMP_LAB_NAME_LENGTH = 7 ;
       36       36        %EQU LEVEL_NO_01 = 1 ;
       37       37
       38       38        %INCLUDE Z8A_DEFC ;
       39      106        %INCLUDE Z8A_SUPP_MAC ;
       40     2506        %INCLUDE Z8A_DNT ;
       41     2727        %INCLUDE Z8A_COMCOM ;
       42     3377        %INCLUDE Z8A_ERR_NUMS;
       43     4141        %INCLUDE Z8A_QLT ;
       44     4247        %INCLUDE Z8A_ST;
       45     7906        %INCLUDE Z8A_LTS;
       46     9983        %INCLUDE Z8E_STACKS;
       47    12249        %INCLUDE Z8E_O1COM;
       48    13010        %INCLUDE Z8A_TYPES ;
       49    13184        %INCLUDE Z8A_ETT ;
       50    13485        %INCLUDE Z8A_SRCH ;
       51    13534
       52    13535    1   DCL Z8AS$SR_ETT               ENTRY (1) ;
       53    13536    1   DCL Z8AE$ERROR                ENTRY (12);
       54    13537    1   DCL Z8AF$NEW_BASE             ENTRY (3);
       55    13538    1   DCL Z8AR$RESERVER             ENTRY (1);
       56    13539
       57    13540    1   DCL  SYM$     PTR ;              /* Ptr to ST entry                */
       58    13541    1   DCL  QUAL$    PTR ;              /* Ptr to QLT entry               */
       59    13542    1   DCL 1 DESC             ALIGNED,
       60    13543             %DESCRIPTOR       (LVL = 2, ENDING = YES);
       61    13571    1   DCL  SYM_ID   SBIN WORD ;        /* Type of temporary variable     */
       62    13572    1   DCL  NAME$    PTR STATIC ;       /* Ptr to DNT entry               */
       63    13573    1   DCL  TEMP_#   SBIN WORD STATIC INIT(1) ; /* Number for temporary variable  */
       64    13574    1   DCL  VAR_#   SBIN WORD STATIC INIT(1) ; /* Number of "VAR" variable */
PL6.E3A0      #001=Z8AT$CREATE_TEMPORARY File=Z8AT.:Z8A6TSI                      SAT 08/09/97 10:51 Page:3
       65    13575    1   DCL  LAB_#   SBIN WORD STATIC INIT(1) ; /* Number of label variable */
       66    13576    1   DCL  ALPHA_#  CHAR (3) STATIC ;  /* Holds character rep. of TEMP_# */
       67    13577
       68    13578        %MACRO SET_COUNT(ITEM=, COUNT_LIMIT=) ;
       69    13579               DO ;
       70    13580                   CALL BINCHAR(ALPHA_#, ITEM) ;
       71    13581                   ITEM = ITEM + 1 ;
       72    13582                   IF ITEM > COUNT_LIMIT THEN
       73    13583                     ITEM = 1 ;
       74    13584               END ;
       75    13585        %MEND ;
       76    13586        %EJECT ;
PL6.E3A0      #001=Z8AT$CREATE_TEMPORARY File=Z8AT.:Z8A6TSI                      SAT 08/09/97 10:51 Page:4
       77    13587
       78    13588        /*V*
       79    13589            ENTER_ST_AND_DNT -- Reserve a ST and DNT item for the variable.
       80    13590                                Store the correct values and pointers in the ST
       81    13591                                and DNT.
       82    13592        */
       83    13593        /*V*
       84    13594            STORE_TEMP_NAME -- Store the temporary name in the DNT.  This is
       85    13595                               done by first converting the temporary count
       86    13596                               into an alphanumeric representation.  This is
       87    13597                               then concatenated with other characters to form
       88    13598                               temporary items with names like 'TEMP.xxx' where
       89    13599                               xxx is the temporary count.  The temporary count
       90    13600                               is incremented and if it is greater then the
       91    13601                               limit of temp variables (999), it is reset to 1.
       92    13602        */
       93    13603
       94    13604
       95    13605    2          DO CASE (SYM_ID);
       96    13606    2            CASE (%PARA);
       97    13607                   %NEW_DNT     (@POINTER = NAME$,
       98    13608                                 @SIZE    = %TEMP_LAB_NAME_LENGTH);
       99    13666
      100    13667                   %SET_COUNT(ITEM=LAB_#, COUNT_LIMIT=%TEMP_LAB_LIMIT) ;
      101    13675
      102    13676    2              CALL CONCAT (NAME$ -> DNT.TEXT.NAME, 'LAB#', ALPHA_#);
      103    13677
      104    13678        %SET LISTMAC = TRUE;
      105    13679        %SET LISTSUB = TRUE;
      106    13680                   %NEW_PARA (@ST$       = SYM$,
      107    13681                              @TYPE      = %TYI,
      108    13682                              @DNT$      = NAME$,
      109    13683                              @DEFINED   = TRUE,
      110    13684                              @COMPILER_CREATED = TRUE);
             13685    3     DO;
             13686            %RESERVE_ST (POINTER               = @ST$);
             13687    4        DO;
PL6.E3A0      #001=Z8AT$CREATE_TEMPORARY File=Z8AT.:Z8A6TSI                      SAT 08/09/97 10:51 Page:5
             13688    4          IF ST_.BOTTOM + SIZEW(ST) >= ST_.FLOOR THEN
             13689    4            CALL Z8AR$RESERVER(ADDR(ST_));
             13690    4          SYM$ = PINCRW(ST_.FIRST, ST_.BOTTOM);
             13691    4          ST_.BOTTOM = ST_.BOTTOM + SIZEW(ST);
             13692    4        END;
             13694            %INIT_PARA (@ST$                   = @ST$,
             13695                        @ID                    = %PARA,
             13696                        @R                     = @R,
             13697                        @COUNT                 = @COUNT,
             13698                        @P_END$                = @P_END$,
             13699                        @TYPE                  = @TYPE,
             13700                        @LINE_NO               = @LINE_NO,
             13701                        @ATTR                  = @ATTR,
             13702                        @NEXT                  = @NEXT,
             13703                        @POINTER$              = @POINTER$,
             13704                        @DNT$                  = @DNT$,
             13705                        @SECTION$              = @SECTION$,
             13706                        @PROC$                 = @PROC$,
             13707                        @PREV_ILS$             = @PREV_ILS$,
             13708                        @REFERENCED            = @REFERENCED,
             13709                        @DEFINED               = @DEFINED,
             13710                        @COMPILER_CREATED       = @COMPILER_CREATED,
             13711                        @GOTO_LABEL             = @GOTO_LABEL,
             13712                        @DUPLICATE              = @DUPLICATE,
             13713                        @ONE_REF                = @ONE_REF,
             13714                        @PHASE_2                = @PHASE_2,
             13715                        @FALL_THRU              = @FALL_THRU,
             13716                        @INIT_PROC              = @INIT_PROC,
             13717                        @PFORM_START            = @PFORM_START,
             13718                        @PFORM_END              = @PFORM_END,
             13719                        @PFORM_NESTED           = @PFORM_NESTED,
             13720                        @ALTER_CHECK            = @ALTER_CHECK,
             13721                        @COBOL_74_PFORM         = @COBOL_74_PFORM,
             13722                        @PFORM_74_END           = @PFORM_74_END,
             13723                        @GO_VECTOR_START        = @GO_VECTOR_START,
             13724                        @ENTRY_POINT            = @ENTRY_POINT,
             13725                        @INTERIOR_PFORM_LBL     = @INTERIOR_PFORM_LBL,
PL6.E3A0      #001=Z8AT$CREATE_TEMPORARY File=Z8AT.:Z8A6TSI                      SAT 08/09/97 10:51 Page:6
             13726                        @DATA_REF               = @DATA_REF,
             13727                        @BACKWARD_PFORM         = @BACKWARD_PFORM,
             13728                        @ALLOCATED              = @ALLOCATED,
             13729                        @ON_SIZE_ERROR          = @ON_SIZE_ERROR,
             13730                        @GO_ALTERED             = @GO_ALTERED,
             13731                        @USE_BASE_POINTER       = @USE_BASE_POINTER,
             13732                        @USE_GLOBAL             = @USE_GLOBAL,
             13733                        @USE_ALREADY_FLAGGED    = @USE_ALREADY_FLAGGED,
             13734                        @USE_PROC               = @USE_PROC,
             13735                        @PFORM_END_LBL          = @PFORM_END_LBL,
             13736                        @LABEL_AFTER_USE       = @LABEL_AFTER_USE,
             13737                        @EXIT_PROG_LABEL        = @EXIT_PROG_LABEL);
             13738    4     DO;
             13739    4       SYM$ -> PARA.ID                    = %PARA;
             13740    4       SYM$ -> PARA.R                     = %PROGRAM;
             13741    4       SYM$ -> PARA.COUNT                 = %PROC;
             13742    4       SYM$ -> PARA.P_END$                = ADDR(NIL);
             13743    4       SYM$ -> PARA.TYPE                  = %TYI;
             13744    4       SYM$ -> PARA.LINE_NO               = COMCOM.CURRENT.LINE;
             13745    4       SYM$ -> PARA.ATTR                  = '0'B;
             13746    4       SYM$ -> PARA.NEXT                  = ADDR(NIL);
             13747    4       SYM$ -> PARA.POINTER$               = ADDR(NIL);
             13748    4       SYM$ -> PARA.DNT$                  = NAME$;
             13749            %IF (TEXTCHAR() ~= '');
             13751            %ELSEIF (TEXTCHAR() ~= '');
             13753            %ELSE;
             13754    4        SYM$ -> PARA.SECTION$             = ADDR(NIL);
             13755            %ENDIF;
             13756            %UPDATE_PROC_LINK (@TEMPLATE = PARA, @ST$ = @ST$, @PROC$ = @PROC$);
             13757                 %IF (TEXTCHAR(PARA) = '') OR (TEXTCHAR(SYM$) = '');
             13758                 %ENDIF;
             13759    4            SYM$ -> PARA.LINK = ADDR(NIL);
             13760                 %IF (TEXTCHAR() = '');
             13761                   %IF PHASE = 1;
             13766                   %ELSEIF PHASE = 0;
             13767    4                IF COMCOM.CURRENT.PHASE = 1 THEN
             13768    5                  DO;
PL6.E3A0      #001=Z8AT$CREATE_TEMPORARY File=Z8AT.:Z8A6TSI                      SAT 08/09/97 10:51 Page:7
             13769    5                    SYM$ -> PARA.PROC$ = O1COM.CURRENT_PROC$;
             13770    5                    IF O1COM.CURRENT_PROC$ ~= ADDR(NIL) THEN
             13771                           %ADD_ST_TO_LIST_TAIL (@PROC$ = O1COM.CURRENT_PROC$,
             13772                                                 @FROM_ST$ = @ST$);
             13773    6      DO;
             13774    6        IF O1COM.CURRENT_PROC$ -> PROC_.PROC_SUPP$ -> PROC_SUPP.TAIL$ = ADDR(NIL) THEN
             13775    7          DO;
             13776    7            O1COM.CURRENT_PROC$ -> PROC_.PROC_SUPP$ -> PROC_SUPP.HEAD$ = SYM$;
             13777    7            O1COM.CURRENT_PROC$ -> PROC_.PROC_SUPP$ -> PROC_SUPP.TAIL$ = SYM$;
             13778    7          END;
             13779    6        ELSE
             13780    7          DO;
             13781    7            O1COM.CURRENT_PROC$ -> PROC_.PROC_SUPP$ -> PROC_SUPP.TAIL$ -> ST.LINK =
             13781                     SYM$;
             13782    7            O1COM.CURRENT_PROC$ -> PROC_.PROC_SUPP$ -> PROC_SUPP.TAIL$ = SYM$;
             13783    7          END;
             13784    6      END;
             13786    5                  END;
             13787    4                ELSE
             13788    4                  SYM$ -> PARA.PROC$ = ADDR(NIL);
             13789                   %ENDIF;
             13790                 %ELSE;
             13795                 %ENDIF;
             13797    4       SYM$ -> PARA.PREV_ILS$             = ADDR(NIL);
             13798            %IF (TEXTCHAR() ~= '');
             13800            %ENDIF;
             13801            %IF (TEXTCHAR('1'B) ~= '');
             13802    4         SYM$ -> PARA.B.DEFINED           = '1'B;
             13803            %ENDIF;
             13804            %IF (TEXTCHAR('1'B) ~= '');
             13805    4         SYM$ -> PARA.B.COMPILER_CREATED  = '1'B;
             13806            %ENDIF;
             13807            %IF (TEXTCHAR() ~= '');
             13809            %ENDIF;
             13810            %IF (TEXTCHAR() ~= '');
             13812            %ENDIF;
             13813            %IF (TEXTCHAR() ~= '');
PL6.E3A0      #001=Z8AT$CREATE_TEMPORARY File=Z8AT.:Z8A6TSI                      SAT 08/09/97 10:51 Page:8
             13815            %ENDIF;
             13816            %IF (TEXTCHAR() ~= '');
             13818            %ENDIF;
             13819            %IF (TEXTCHAR() ~= '');
             13821            %ENDIF;
             13822            %IF (TEXTCHAR() ~= '');
             13824            %ENDIF;
             13825            %IF (TEXTCHAR() ~= '');
             13827            %ENDIF;
             13828            %IF (TEXTCHAR() ~= '');
             13830            %ENDIF;
             13831            %IF (TEXTCHAR() ~= '');
             13833            %ENDIF;
             13834            %IF (TEXTCHAR() ~= '');
             13836            %ENDIF;
             13837            %IF (TEXTCHAR() ~= '');
             13839            %ENDIF;
             13840            %IF (TEXTCHAR() ~= '');
             13842            %ENDIF;
             13843            %IF (TEXTCHAR() ~= '');
             13845            %ENDIF;
             13846             %IF (TEXTCHAR() ~= '');
             13848             %ENDIF;
             13849            %IF (TEXTCHAR() ~= '');
             13851            %ENDIF;
             13852            %IF (TEXTCHAR() ~= '');
             13854            %ENDIF;
             13855            %IF (TEXTCHAR() ~= '');
             13857            %ENDIF;
             13858            %IF (TEXTCHAR() ~= '');
             13860            %ENDIF;
             13861            %IF (TEXTCHAR() ~= '');
             13863            %ENDIF;
             13864            %IF (TEXTCHAR() ~= '');
             13866            %ENDIF;
             13867            %IF (TEXTCHAR() ~= '');
             13869            %ENDIF;
PL6.E3A0      #001=Z8AT$CREATE_TEMPORARY File=Z8AT.:Z8A6TSI                      SAT 08/09/97 10:51 Page:9
             13870            %IF (TEXTCHAR() ~= '');
             13872            %ENDIF;
             13873            %IF (TEXTCHAR() ~= '');
             13875            %ENDIF;
             13876            %IF (TEXTCHAR() ~= '');
             13878            %ENDIF;
             13879            %IF (TEXTCHAR() ~= '');
             13881            %ENDIF;
             13882            %IF (TEXTCHAR() ~= '');
             13884            %ENDIF;
             13885            %IF (TEXTCHAR() ~= '');
             13887            %ENDIF;
             13888    4     END;
             13890    3     END;
      111    13892        %SET LISTSUB = '0'B;
      112    13893        %SET LISTMAC = FALSE;
      113    13894
      114    13895    2            CASE (%SECTION);
      115    13896                   %NEW_DNT     (@POINTER = NAME$,
      116    13897                                 @SIZE    = %TEMP_LAB_NAME_LENGTH);
      117    13955
      118    13956                   %SET_COUNT(ITEM=LAB_#, COUNT_LIMIT=%TEMP_LAB_LIMIT) ;
      119    13964
      120    13965    2              CALL CONCAT (NAME$ -> DNT.TEXT.NAME, 'LAB#', ALPHA_#);
      121    13966
      122    13967                   %NEW_SECTION (@ST$       = SYM$,
      123    13968                                 @TYPE      = %TYI,
      124    13969                                 @DNT$      = NAME$,
      125    13970                                 @DEFINED   = TRUE,
      126    13971                                 @COMPILER_CREATED = TRUE);
      127    14179
      128    14180        %EJECT;
PL6.E3A0      #001=Z8AT$CREATE_TEMPORARY File=Z8AT.:Z8A6TSI                      SAT 08/09/97 10:51 Page:10
      129    14181    2            CASE (%SCALAR, %POINTER) ;
      130    14182
      131    14183                   %NEW_DNT (@POINTER = NAME$,
      132    14184                             @SIZE    = %TEMP_DATA_NAME_LENGTH);
      133    14242
      134    14243                   %SET_COUNT(ITEM=VAR_#, COUNT_LIMIT=%TEMP_VAR_LIMIT) ;
      135    14251
      136    14252    2              CALL CONCAT(NAME$->DNT.TEXT.NAME, 'VAR#', ALPHA_#) ;
      137    14253
      138    14254                   %BUILD_BINARY_DESC (@DESC = DESC,
      139    14255                                       @LENGTH = %TYI_LENGTH);
      140    14263
      141    14264                   %NEW_SCALAR (@ST$              = SYM$,
      142    14265                                @TYPE             = %TYI, /* Default type */
      143    14266                                @DNT$             = NAME$,
      144    14267                                @DESCL            = DESC.DESCL,
      145    14268                                @CLASS            = %CLASS_NUMERIC,
      146    14269                                @ELEMENTARY       = TRUE,
      147    14270                                @COMPILER_CREATED = TRUE);
      148    14470
      149    14471                   %NEW_QLT (@POINTER = QUAL$,
      150    14472                             @ST$     = SYM$,
      151    14473                             @DNT$    = NAME$,
      152    14474                             @LEVEL#  = %LEVEL_NO_01);
      153    14499
      154    14500    2              SYM$->SCALAR.QLT$ = QUAL$ ;
      155    14501    2              SYM$->SCALAR.ID   = SYM_ID ;
      156    14502
      157    14503    2              IF COMCOM.PREV_QLT$ ~= ADDR(NIL) THEN
      158    14504    2                COMCOM.PREV_QLT$->QLT.BROTHER = QUAL$ ;
      159    14505
      160    14506    2              COMCOM.PREV_QLT$ = QUAL$ ;
      161    14507
      162    14508    2            CASE (%SWITCH);
      163    14509
      164    14510                   %NEW_DNT (@POINTER = NAME$,
      165    14511                             @SIZE    = %TEMP_SWITCH_NAME_LENGTH);
PL6.E3A0      #001=Z8AT$CREATE_TEMPORARY File=Z8AT.:Z8A6TSI                      SAT 08/09/97 10:51 Page:11
      166    14569
      167    14570                   %SET_COUNT (ITEM = TEMP_#,
      168    14571                               COUNT_LIMIT = %TEMP_VAR_LIMIT);
      169    14579
      170    14580    2              CALL CONCAT (NAME$ -> DNT.TEXT.NAME, 'T_SW', ALPHA_#);
      171    14581
      172    14582                   %NEW_SWITCH (@ST$      = SYM$,
      173    14583                                @DNT$     = NAME$);
      174    14646
      175    14647                   %NEW_QLT (@POINTER = QUAL$,
      176    14648                             @ST$     = SYM$,
      177    14649                             @DNT$    = NAME$,
      178    14650                             @LEVEL#  = 1);
      179    14675
      180    14676    2              SYM$ -> SWITCH.QLT$ = QUAL$;
      181    14677
      182    14678                   %UPDATE_PREV_QLT$ (@NEW_QLT$ = QUAL$);
      183    14685
      184    14686
      185    14687        %EJECT;
PL6.E3A0      #001=Z8AT$CREATE_TEMPORARY File=Z8AT.:Z8A6TSI                      SAT 08/09/97 10:51 Page:12
      186    14688    2            CASE (%TEMP) ;
      187    14689
      188    14690                   %NEW_DNT (@POINTER = NAME$,
      189    14691                             @SIZE    = %TEMP_TEMP_NAME_LENGTH);
      190    14749
      191    14750                   %SET_COUNT(ITEM=TEMP_#, COUNT_LIMIT=%TEMP_TEMP_LIMIT) ;
      192    14758
      193    14759    2              CALL CONCAT(NAME$->DNT.TEXT.NAME, 'TEMP#', ALPHA_#) ;
      194    14760
      195    14761                   %BUILD_BINARY_DESC (@DESC = DESC,
      196    14762                                       @LENGTH = %TYI_LENGTH);
      197    14770
      198    14771                   %NEW_TEMP   (@ST$              = SYM$,
      199    14772                                @TYPE             = %TYI, /* Default type */
      200    14773                                @DNT$             = NAME$,
      201    14774                                @DESCL            = DESC.DESCL) ;
      202    14807
      203    14808    2            CASE (ELSE);
      204    14809    2              CALL Z8AE$ERROR (%E$UNEXPECTED_CASE);
      205    14810
      206    14811    2          END; /* Case */
      207    14812
      208    14813    1          NAME$->DNT.ST$ = SYM$ ;
      209    14814    1          RETURN ;
      210    14815
      211    14816        %EJECT;
PL6.E3A0      #001=Z8AT$CREATE_TEMPORARY File=Z8AT.:Z8A6TSI                      SAT 08/09/97 10:51 Page:13
      212    14817    1   Z8AT$CREATE_TEMP_WITH_BASE: ENTRY (SYM_ID, SYM$) ;
      213    14818
      214    14819    1          CALL Z8AT$CREATE_TEMPORARY (SYM_ID, SYM$) ;
      215    14820
      216    14821    1          CALL Z8AF$NEW_BASE (SYM$, ADDR(NIL), SYM$);
      217    14822
      218    14823    1   END Z8AT$CREATE_TEMPORARY ;

PL6.E3A0      #001=Z8AT$CREATE_TEMPORARY File=Z8AT.:Z8A6TSI                      SAT 08/09/97 10:51 Page:14
--  Include file information  --

   Z8A_SRCH.:Z8A6TOU  cannot be made into a system file and is referenced.
   Z8A_ETT.:Z8A6TOU  cannot be made into a system file and is referenced.
   Z8A_TYPES.:Z8A6TOU  is referenced.
   Z8E_O1COM.:Z8A6TOU  cannot be made into a system file and is referenced.
   Z8A_LEX_SYMB.:Z8A6TOU  cannot be made into a system file and is referenced.
   Z8E_STACKS.:Z8A6TOU  cannot be made into a system file and is referenced.
   Z8A_LTS.:Z8A6TOU  cannot be made into a system file and is referenced.
   Z8A_ST.:Z8A6TOU  cannot be made into a system file and is referenced.
   Z8A_QLT.:Z8A6TOU  cannot be made into a system file and is referenced.
   Z8A_ERR_NUMS.:Z8A6TOU  is referenced.
   Z8A_COMCOM.:Z8A6TOU  cannot be made into a system file and is referenced.
   Z8A_DNT.:Z8A6TOU  cannot be made into a system file and is referenced.
   X8A_COM_MACS.:X8A6TOU  is referenced.
   Z8A_NAMES.:Z8A6TOU  is referenced.
   Z8A_SUPP_MAC.:Z8A6TOU  is referenced.
   Z8A_DEFC.:Z8A6TOU  cannot be made into a system file and is referenced.
      No diagnostics issued in procedure Z8AT$CREATE_TEMPORARY.

   Procedure Z8AT$CREATE_TEMPORARY requires 897 words for executable code.
   Procedure Z8AT$CREATE_TEMPORARY requires 12 words of local(AUTO) storage.

    No errors detected in file Z8AT.:Z8A6TSI    .

PL6.E3A0      #001=Z8AT$CREATE_TEMPORARY File=Z8AT.:Z8A6TSI                      SAT 08/09/97 10:51 Page:15

 Object Unit name= Z8AT$CREATE_TEMPORARY                      File name= Z8AT.:Z8A6TOU
 UTS= AUG 09 '97 10:51:56.44 SAT                              Compiler= PL-6/E31         Sev=      00
 SharedLib= :SHARED_SYSTEM                                    Alt SharedLib=


    ****  Control sections  ****

 Sect   Type Bound  Init  Size OctSiz  Section name(segment info)
    0  LblCom even  none     1      1  ITERATION
    1  LblCom even  none     1      1  DNT$
    2  LblCom even  none     5      5  DNT_
    3  LblCom even  none     1      1  DNT_BUCKET_NUMBER
    4  LblCom even  none     1      1  DNT_OF_1$
    5  LblCom even  none     1      1  QLT$
    6  LblCom even  none     1      1  PREV_01_QLT$
    7  LblCom even  none     5      5  QLT_
    8  LblCom even  none     1      1  ST$
    9  LblCom even  none     5      5  ST_
   10  LblCom even  none     1      1  LTS$
   11  LblCom even  none     5      5  LTS_
   12  LblCom even  none    90    132  LEX_SYMBOL
   13  LblCom even  none     1      1  CURRENT_LEX_SYMBOL$
   14  LblCom even  none    90    132  TEMP_LEX_SYMBOL
   15  LblCom even  none    90    132  TEMP_LEX_SYMBOL2
   16  LblCom even  none     1      1  ETT$
   17  LblCom even  none     1      1  HEAD_ETT$
   18  LblCom even  none   512   1000  ETT_BUCKETS
   19  LblCom even  none     5      5  ETT_
   20  LblCom even  none     3      3  SRCH
   21   Data  even  none     5      5  Z8AT$CREATE_TEMPORARY
   22  RoData even  UTS      5      5  Z8AT$CREATE_TEMPORARY
   23   Proc  even  none   897   1601  Z8AT$CREATE_TEMPORARY
   24  RoData even  none    15     17  Z8AT$CREATE_TEMPORARY
PL6.E3A0      #001=Z8AT$CREATE_TEMPORARY File=Z8AT.:Z8A6TSI                      SAT 08/09/97 10:51 Page:16

    ****  Entry defs  ****

                              Check   Calling
                             calling  sequence
  Sect OctLoc Primary Altret sequence   type   Parms  Name
    23      0   yes            yes      Std        2  Z8AT$CREATE_TEMPORARY
    23   1557                  yes      Std        2  Z8AT$CREATE_TEMP_WITH_BASE

  ****  Entry refs  ****

         Check        Calling
        calling       sequence
Altret sequence SRef   type   Args  Name
         yes           Std       1 Z8AR$RESERVER
         yes           Std      12 Z8AE$ERROR
         yes           Std       3 Z8AF$NEW_BASE
                       nStd      0 X66_AUTO_2
                       nStd      0 X66_ARET

  ****  Data refs  ****

  Flags:  r = read only, s = secondary
Flgs Name                             Flgs Name                             Flgs Name
     COMCOM                           r    LTS_STEP                              O1COM
     HIER_STK_PTR                          HIER_STK                              PAGE_FORMAT
     REP_STK_PTR                           REP_STK

  ****  Segment refs  ****

  Flags:  r = read only, s = secondary
Flgs Name                             Flgs Name                             Flgs Name
     NULLSID                               ISSID
PL6.E3A0      #001=Z8AT$CREATE_TEMPORARY File=Z8AT.:Z8A6TSI                      SAT 08/09/97 10:51 Page:17


        1        1        /*T***********************************************************/
        2        2        /*T*                                                         */
        3        3        /*T* Copyright (c) Bull HN Information Systems Inc., 1997    */
        4        4        /*T*                                                         */
        5        5        /*T***********************************************************/
        6        6        Z8AT$CREATE_TEMPORARY:  PROC (SYM_ID,SYM$) ;

      6 23 000000   000000 700200 xent  Z8AT$CREATE* TSX0  ! X66_AUTO_2
        23 000001   000014 000002                    ZERO    12,2

        7        7        /*M*  Z8AT$CREATE_TEMPORARY  Create temporary variables           */
        8        8
        9        9        /*P*
       10       10               NAME:  Z8AT$CREATE_TEMPORARY
       11       11             AUTHOR:  Greg Myers
       12       12            PURPOSE:  This procedure creates temporary scaler and label items.
       13       13        */
       14       14
       15       15        /*D*
       16       16               NAME:  Z8AT$CREATE_TEMPORARY
       17       17
       18       18              INPUT:  SYM_ID  The type of temporary item being created
       19       19             OUTPUT:  SYM$    Ptr to the temporary entry in the ST
       20       20
       21       21        DESCRIPTION:  This procedure creates temporary scalars, switches, and labels.
       22       22                      They are entered in the ST and DNT.  Temporary
       23       23                      variables have names from 'TEMP.001' to 'TEMP.999'.
       24       24                      If more than 999 temporary variables are needed then
       25       25                      the count is reset to 1.
       26       26        */
       27       27        %EJECT ;
PL6.E3A0      #001=Z8AT$CREATE_TEMPORARY File=Z8AT.:Z8A6TSI                      SAT 08/09/97 10:51 Page:18
       28       28        %EQU PHASE = 0;
       29       29        %EQU TEMP_VAR_LIMIT = 999 ; /* Number of distinct " VAR" variables */
       30       30        %EQU TEMP_LAB_LIMIT = 999 ; /* Number of distinct label variables */
       31       31        %EQU TEMP_TEMP_LIMIT = 999 ; /* Number of distinct temp variables */
       32       32        %EQU TEMP_DATA_NAME_LENGTH = 7 ;
       33       33        %EQU TEMP_TEMP_NAME_LENGTH = 8 ;
       34       34        %EQU TEMP_SWITCH_NAME_LENGTH = 8 ;
       35       35        %EQU TEMP_LAB_NAME_LENGTH = 7 ;
       36       36        %EQU LEVEL_NO_01 = 1 ;
       37       37
       38       38        %INCLUDE Z8A_DEFC ;
       39      106        %INCLUDE Z8A_SUPP_MAC ;
       40     2506        %INCLUDE Z8A_DNT ;
       41     2727        %INCLUDE Z8A_COMCOM ;
       42     3377        %INCLUDE Z8A_ERR_NUMS;
       43     4141        %INCLUDE Z8A_QLT ;
       44     4247        %INCLUDE Z8A_ST;
       45     7906        %INCLUDE Z8A_LTS;
       46     9983        %INCLUDE Z8E_STACKS;
       47    12249        %INCLUDE Z8E_O1COM;
       48    13010        %INCLUDE Z8A_TYPES ;
       49    13184        %INCLUDE Z8A_ETT ;
       50    13485        %INCLUDE Z8A_SRCH ;
       51    13534
       52    13535    1   DCL Z8AS$SR_ETT               ENTRY (1) ;
       53    13536    1   DCL Z8AE$ERROR                ENTRY (12);
       54    13537    1   DCL Z8AF$NEW_BASE             ENTRY (3);
       55    13538    1   DCL Z8AR$RESERVER             ENTRY (1);
       56    13539
       57    13540    1   DCL  SYM$     PTR ;              /* Ptr to ST entry                */
       58    13541    1   DCL  QUAL$    PTR ;              /* Ptr to QLT entry               */
       59    13542    1   DCL 1 DESC             ALIGNED,
       60    13543             %DESCRIPTOR       (LVL = 2, ENDING = YES);
       61    13571    1   DCL  SYM_ID   SBIN WORD ;        /* Type of temporary variable     */
       62    13572    1   DCL  NAME$    PTR STATIC ;       /* Ptr to DNT entry               */
       63    13573    1   DCL  TEMP_#   SBIN WORD STATIC INIT(1) ; /* Number for temporary variable  */
       64    13574    1   DCL  VAR_#   SBIN WORD STATIC INIT(1) ; /* Number of "VAR" variable */
PL6.E3A0      #001=Z8AT$CREATE_TEMPORARY File=Z8AT.:Z8A6TSI                      SAT 08/09/97 10:51 Page:19
       65    13575    1   DCL  LAB_#   SBIN WORD STATIC INIT(1) ; /* Number of label variable */
       66    13576    1   DCL  ALPHA_#  CHAR (3) STATIC ;  /* Holds character rep. of TEMP_# */
       67    13577
       68    13578        %MACRO SET_COUNT(ITEM=, COUNT_LIMIT=) ;
       69    13579               DO ;
       70    13580                   CALL BINCHAR(ALPHA_#, ITEM) ;
       71    13581                   ITEM = ITEM + 1 ;
       72    13582                   IF ITEM > COUNT_LIMIT THEN
       73    13583                     ITEM = 1 ;
       74    13584               END ;
       75    13585        %MEND ;
       76    13586        %EJECT ;
PL6.E3A0      #001=Z8AT$CREATE_TEMPORARY File=Z8AT.:Z8A6TSI                      SAT 08/09/97 10:51 Page:20
       77    13587
       78    13588        /*V*
       79    13589            ENTER_ST_AND_DNT -- Reserve a ST and DNT item for the variable.
       80    13590                                Store the correct values and pointers in the ST
       81    13591                                and DNT.
       82    13592        */
       83    13593        /*V*
       84    13594            STORE_TEMP_NAME -- Store the temporary name in the DNT.  This is
       85    13595                               done by first converting the temporary count
       86    13596                               into an alphanumeric representation.  This is
       87    13597                               then concatenated with other characters to form
       88    13598                               temporary items with names like 'TEMP.xxx' where
       89    13599                               xxx is the temporary count.  The temporary count
       90    13600                               is incremented and if it is greater then the
       91    13601                               limit of temp variables (999), it is reset to 1.
       92    13602        */
       93    13603
       94    13604
       95    13605    2          DO CASE (SYM_ID);

  13605 23 000002   200003 470500                    LDP0    @SYM_ID,,AUTO
        23 000003   000000 235100                    LDA     0,,PR0
        23 000004   000760 135007                    SBLA    496,DL
        23 000005   000020 115007                    CMPA    16,DL
        23 000006   000010 602005 23                 TNC     s:13605+6,AL
        23 000007   001546 710000 23                 TRA     s:14809
        23 000010   001355 710000 23                 TRA     s:14694
        23 000011   001546 710000 23                 TRA     s:14809
        23 000012   001050 710000 23                 TRA     s:14514
        23 000013   001546 710000 23                 TRA     s:14809
        23 000014   001546 710000 23                 TRA     s:14809
        23 000015   001546 710000 23                 TRA     s:14809
        23 000016   000510 710000 23                 TRA     s:14187
        23 000017   001546 710000 23                 TRA     s:14809
        23 000020   000260 710000 23                 TRA     s:13900
        23 000021   000030 710000 23                 TRA     s:13611
        23 000022   001546 710000 23                 TRA     s:14809
PL6.E3A0      #001=Z8AT$CREATE_TEMPORARY File=Z8AT.:Z8A6TSI                      SAT 08/09/97 10:51 Page:21
        23 000023   001546 710000 23                 TRA     s:14809
        23 000024   001546 710000 23                 TRA     s:14809
        23 000025   001546 710000 23                 TRA     s:14809
        23 000026   001546 710000 23                 TRA     s:14809
        23 000027   000510 710000 23                 TRA     s:14187

       96    13606    2            CASE (%PARA);

       97    13607                   %NEW_DNT     (@POINTER = NAME$,
       98    13608                                 @SIZE    = %TEMP_LAB_NAME_LENGTH);

  13611 23 000030   000007 236007                    LDQ     7,DL
        23 000031   000000 756000 0                  STQ     ITERATION

  13612 23 000032   000002 036000 2                  ADLQ    DNT_+2
        23 000033   000046 604000 23                 TMI     s:13614
        23 000034   000003 116000 2                  CMPQ    DNT_+3
        23 000035   000046 602000 23                 TNC     s:13614

  13613 23 000036   000001 236000 24                 LDQ     1
        23 000037   200010 756100                    STQ     DESC+2,,AUTO
        23 000040   200010 631500                    EPPR1   DESC+2,,AUTO
        23 000041   200011 451500                    STP1    DESC+3,,AUTO
        23 000042   200011 630500                    EPPR0   DESC+3,,AUTO
        23 000043   000000 631400 24                 EPPR1   0
        23 000044   000000 701000 xent               TSX1    Z8AR$RESERVER
        23 000045   000000 011000                    NOP     0

  13614 23 000046   000002 236000 2                  LDQ     DNT_+2
        23 000047   000022 736000                    QLS     18
        23 000050   000001 036000 2                  ADLQ    DNT_+1
        23 000051   000000 756000 21                 STQ     NAME$

  13615 23 000052   000002 236000 2                  LDQ     DNT_+2
        23 000053   000000 036000 0                  ADLQ    ITERATION
        23 000054   000002 756000 2                  STQ     DNT_+2

PL6.E3A0      #001=Z8AT$CREATE_TEMPORARY File=Z8AT.:Z8A6TSI                      SAT 08/09/97 10:51 Page:22
  13616 23 000055   001046 220003                    LDX0    550,DU
        23 000056   000000 470400 21                 LDP0    NAME$
        23 000057   000000 740100                    STX0    0,,PR0

  13617 23 000060   000000 721000 0                  LXL1    ITERATION
        23 000061   000000 441100                    SXL1    0,,PR0

  13618 23 000062   000007 222003                    LDX2    7,DU
        23 000063   000004 742100                    STX2    4,,PR0

  13621 23 000064   000002 236000 24                 LDQ     2
        23 000065   000001 756100                    STQ     1,,PR0

  13622 23 000066   000002 236000 24                 LDQ     2
        23 000067   000002 756100                    STQ     2,,PR0

  13623 23 000070   000000 223003                    LDX3    0,DU
        23 000071   000003 743100                    STX3    3,,PR0

  13624 23 000072   000000 224003                    LDX4    0,DU
        23 000073   000003 444100                    SXL4    3,,PR0

  13625 23 000074   040140 100400                    MLR     fill='040'O
        23 000075   000003 000001 24                 ADSC9   3                        cn=0,n=1
        23 000076   000004 400012                    ADSC9   4,,PR0                   cn=2,n=*X2

       99    13666
      100    13667                   %SET_COUNT(ITEM=LAB_#, COUNT_LIMIT=%TEMP_LAB_LIMIT) ;

  13669 23 000077   000000 301400                    BTD
        23 000100   000003 000004 21                 NDSC9   LAB_#                    cn=0,s=lsgnf,sf=0,n=4
        23 000101   000004 030003 21                 NDSC9   ALPHA_#                  cn=0,s=nosgn,sf=0,n=3

  13670 23 000102   000003 054000 21                 AOS     LAB_#

  13671 23 000103   000003 235000 21                 LDA     LAB_#
        23 000104   001747 115007                    CMPA    999,DL
PL6.E3A0      #001=Z8AT$CREATE_TEMPORARY File=Z8AT.:Z8A6TSI                      SAT 08/09/97 10:51 Page:23
        23 000105   000110 604400 23                 TMOZ    s:13676

  13672 23 000106   000001 235007                    LDA     1,DL
        23 000107   000003 755000 21                 STA     LAB_#

      101    13675
      102    13676    2              CALL CONCAT (NAME$ -> DNT.TEXT.NAME, 'LAB#', ALPHA_#);

  13676 23 000110   040140 100400                    MLR     fill='040'O
        23 000111   000000 000004 22                 ADSC9   0                        cn=0,n=4
        23 000112   000004 400012                    ADSC9   4,,PR0                   cn=2,n=*X2
        23 000113   000000 636012                    EAQ     0,X2
        23 000114   000022 772000                    QRL     18
        23 000115   000005 116007                    CMPQ    5,DL
        23 000116   000123 602000 23                 TNC     s:13688
        23 000117   777774 625012                    EAX5    -4,X2
        23 000120   040140 100400                    MLR     fill='040'O
        23 000121   000004 000003 21                 ADSC9   ALPHA_#                  cn=0,n=3
        23 000122   000005 400015                    ADSC9   5,,PR0                   cn=2,n=*X5

      103    13677
      104    13678        %SET LISTMAC = TRUE;
      105    13679        %SET LISTSUB = TRUE;
      106    13680                   %NEW_PARA (@ST$       = SYM$,
      107    13681                              @TYPE      = %TYI,
      108    13682                              @DNT$      = NAME$,
      109    13683                              @DEFINED   = TRUE,
      110    13684                              @COMPILER_CREATED = TRUE);
             13685    3     DO;

             13686            %RESERVE_ST (POINTER               = @ST$);
             13687    4        DO;

             13688    4          IF ST_.BOTTOM + SIZEW(ST) >= ST_.FLOOR THEN

  13688 23 000123   000002 236000 9                  LDQ     ST_+2
        23 000124   000013 036007                    ADLQ    11,DL
PL6.E3A0      #001=Z8AT$CREATE_TEMPORARY File=Z8AT.:Z8A6TSI                      SAT 08/09/97 10:51 Page:24
        23 000125   000003 116000 9                  CMPQ    ST_+3
        23 000126   000137 604000 23                 TMI     s:13690

             13689    4            CALL Z8AR$RESERVER(ADDR(ST_));

  13689 23 000127   000004 236000 24                 LDQ     4
        23 000130   200010 756100                    STQ     DESC+2,,AUTO
        23 000131   200010 631500                    EPPR1   DESC+2,,AUTO
        23 000132   200011 451500                    STP1    DESC+3,,AUTO
        23 000133   200011 630500                    EPPR0   DESC+3,,AUTO
        23 000134   000000 631400 24                 EPPR1   0
        23 000135   000000 701000 xent               TSX1    Z8AR$RESERVER
        23 000136   000000 011000                    NOP     0

             13690    4          SYM$ = PINCRW(ST_.FIRST, ST_.BOTTOM);

  13690 23 000137   000002 236000 9                  LDQ     ST_+2
        23 000140   000022 736000                    QLS     18
        23 000141   000001 036000 9                  ADLQ    ST_+1
        23 000142   200004 470500                    LDP0    @SYM$,,AUTO
        23 000143   000000 756100                    STQ     0,,PR0

             13691    4          ST_.BOTTOM = ST_.BOTTOM + SIZEW(ST);

  13691 23 000144   000013 236007                    LDQ     11,DL
        23 000145   000002 056000 9                  ASQ     ST_+2

             13692    4        END;

             13694            %INIT_PARA (@ST$                   = @ST$,
             13695                        @ID                    = %PARA,
             13696                        @R                     = @R,
             13697                        @COUNT                 = @COUNT,
             13698                        @P_END$                = @P_END$,
             13699                        @TYPE                  = @TYPE,
             13700                        @LINE_NO               = @LINE_NO,
             13701                        @ATTR                  = @ATTR,
PL6.E3A0      #001=Z8AT$CREATE_TEMPORARY File=Z8AT.:Z8A6TSI                      SAT 08/09/97 10:51 Page:25
             13702                        @NEXT                  = @NEXT,
             13703                        @POINTER$              = @POINTER$,
             13704                        @DNT$                  = @DNT$,
             13705                        @SECTION$              = @SECTION$,
             13706                        @PROC$                 = @PROC$,
             13707                        @PREV_ILS$             = @PREV_ILS$,
             13708                        @REFERENCED            = @REFERENCED,
             13709                        @DEFINED               = @DEFINED,
             13710                        @COMPILER_CREATED       = @COMPILER_CREATED,
             13711                        @GOTO_LABEL             = @GOTO_LABEL,
             13712                        @DUPLICATE              = @DUPLICATE,
             13713                        @ONE_REF                = @ONE_REF,
             13714                        @PHASE_2                = @PHASE_2,
             13715                        @FALL_THRU              = @FALL_THRU,
             13716                        @INIT_PROC              = @INIT_PROC,
             13717                        @PFORM_START            = @PFORM_START,
             13718                        @PFORM_END              = @PFORM_END,
             13719                        @PFORM_NESTED           = @PFORM_NESTED,
             13720                        @ALTER_CHECK            = @ALTER_CHECK,
             13721                        @COBOL_74_PFORM         = @COBOL_74_PFORM,
             13722                        @PFORM_74_END           = @PFORM_74_END,
             13723                        @GO_VECTOR_START        = @GO_VECTOR_START,
             13724                        @ENTRY_POINT            = @ENTRY_POINT,
             13725                        @INTERIOR_PFORM_LBL     = @INTERIOR_PFORM_LBL,
             13726                        @DATA_REF               = @DATA_REF,
             13727                        @BACKWARD_PFORM         = @BACKWARD_PFORM,
             13728                        @ALLOCATED              = @ALLOCATED,
             13729                        @ON_SIZE_ERROR          = @ON_SIZE_ERROR,
             13730                        @GO_ALTERED             = @GO_ALTERED,
             13731                        @USE_BASE_POINTER       = @USE_BASE_POINTER,
             13732                        @USE_GLOBAL             = @USE_GLOBAL,
             13733                        @USE_ALREADY_FLAGGED    = @USE_ALREADY_FLAGGED,
             13734                        @USE_PROC               = @USE_PROC,
             13735                        @PFORM_END_LBL          = @PFORM_END_LBL,
             13736                        @LABEL_AFTER_USE       = @LABEL_AFTER_USE,
             13737                        @EXIT_PROG_LABEL        = @EXIT_PROG_LABEL);
             13738    4     DO;
PL6.E3A0      #001=Z8AT$CREATE_TEMPORARY File=Z8AT.:Z8A6TSI                      SAT 08/09/97 10:51 Page:26

             13739    4       SYM$ -> PARA.ID                    = %PARA;

  13739 23 000146   000000 471500                    LDP1    0,,PR0
        23 000147   000771 220003                    LDX0    505,DU
        23 000150   100000 740100                    STX0    0,,PR1

             13740    4       SYM$ -> PARA.R                     = %PROGRAM;

  13740 23 000151   000000 471500                    LDP1    0,,PR0
        23 000152   001000 236007                    LDQ     512,DL
        23 000153   100000 552110                    STBQ    0,'10'O,PR1

             13741    4       SYM$ -> PARA.COUNT                 = %PROC;

  13741 23 000154   000000 471500                    LDP1    0,,PR0
        23 000155   000000 236003                    LDQ     0,DU
        23 000156   100000 552104                    STBQ    0,'04'O,PR1

             13742    4       SYM$ -> PARA.P_END$                = ADDR(NIL);

  13742 23 000157   000000 471500                    LDP1    0,,PR0
        23 000160   000002 236000 24                 LDQ     2
        23 000161   100001 756100                    STQ     1,,PR1

             13743    4       SYM$ -> PARA.TYPE                  = %TYI;

  13743 23 000162   000000 471500                    LDP1    0,,PR0
        23 000163   000001 221003                    LDX1    1,DU
        23 000164   100002 741100                    STX1    2,,PR1

             13744    4       SYM$ -> PARA.LINE_NO               = COMCOM.CURRENT.LINE;

  13744 23 000165   000000 471500                    LDP1    0,,PR0
        23 000166   000133 722000 xsym               LXL2    COMCOM+91
        23 000167   100002 442100                    SXL2    2,,PR1

PL6.E3A0      #001=Z8AT$CREATE_TEMPORARY File=Z8AT.:Z8A6TSI                      SAT 08/09/97 10:51 Page:27
             13745    4       SYM$ -> PARA.ATTR                  = '0'B;

  13745 23 000170   000000 471500                    LDP1    0,,PR0
        23 000171   100003 450100                    STZ     3,,PR1

             13746    4       SYM$ -> PARA.NEXT                  = ADDR(NIL);

  13746 23 000172   000000 471500                    LDP1    0,,PR0
        23 000173   000002 236000 24                 LDQ     2
        23 000174   100004 756100                    STQ     4,,PR1

             13747    4       SYM$ -> PARA.POINTER$               = ADDR(NIL);

  13747 23 000175   000000 471500                    LDP1    0,,PR0
        23 000176   100005 756100                    STQ     5,,PR1

             13748    4       SYM$ -> PARA.DNT$                  = NAME$;

  13748 23 000177   000000 471500                    LDP1    0,,PR0
        23 000200   000000 236000 21                 LDQ     NAME$
        23 000201   100006 756100                    STQ     6,,PR1

             13749            %IF (TEXTCHAR() ~= '');
             13751            %ELSEIF (TEXTCHAR() ~= '');
             13753            %ELSE;
             13754    4        SYM$ -> PARA.SECTION$             = ADDR(NIL);

  13754 23 000202   000000 471500                    LDP1    0,,PR0
        23 000203   000002 236000 24                 LDQ     2
        23 000204   100007 756100                    STQ     7,,PR1

             13755            %ENDIF;
             13756            %UPDATE_PROC_LINK (@TEMPLATE = PARA, @ST$ = @ST$, @PROC$ = @PROC$);
             13757                 %IF (TEXTCHAR(PARA) = '') OR (TEXTCHAR(SYM$) = '');
             13758                 %ENDIF;
             13759    4            SYM$ -> PARA.LINK = ADDR(NIL);

PL6.E3A0      #001=Z8AT$CREATE_TEMPORARY File=Z8AT.:Z8A6TSI                      SAT 08/09/97 10:51 Page:28
  13759 23 000205   000000 471500                    LDP1    0,,PR0
        23 000206   100012 756100                    STQ     10,,PR1

             13760                 %IF (TEXTCHAR() = '');
             13761                   %IF PHASE = 1;
             13766                   %ELSEIF PHASE = 0;
             13767    4                IF COMCOM.CURRENT.PHASE = 1 THEN

  13767 23 000207   000132 235000 xsym               LDA     COMCOM+90
        23 000210   000001 115007                    CMPA    1,DL
        23 000211   000244 601000 23                 TNZ     s:13788

             13768    5                  DO;

             13769    5                    SYM$ -> PARA.PROC$ = O1COM.CURRENT_PROC$;

  13769 23 000212   000000 471500                    LDP1    0,,PR0
        23 000213   000057 236000 xsym               LDQ     O1COM+47
        23 000214   100011 756100                    STQ     9,,PR1

             13770    5                    IF O1COM.CURRENT_PROC$ ~= ADDR(NIL) THEN

  13770 23 000215   000057 236000 xsym               LDQ     O1COM+47
        23 000216   000002 116000 24                 CMPQ    2
        23 000217   000246 600000 23                 TZE     s:13797

             13771                           %ADD_ST_TO_LIST_TAIL (@PROC$ = O1COM.CURRENT_PROC$,
             13772                                                 @FROM_ST$ = @ST$);
             13773    6      DO;

             13774    6        IF O1COM.CURRENT_PROC$ -> PROC_.PROC_SUPP$ -> PROC_SUPP.TAIL$ = ADDR(NIL) THEN

  13774 23 000220   000057 471400 xsym               LDP1    O1COM+47
        23 000221   100001 473500                    LDP3    1,,PR1
        23 000222   300012 236100                    LDQ     10,,PR3
        23 000223   000002 116000 24                 CMPQ    2
        23 000224   000234 601000 23                 TNZ     s:13781
PL6.E3A0      #001=Z8AT$CREATE_TEMPORARY File=Z8AT.:Z8A6TSI                      SAT 08/09/97 10:51 Page:29

             13775    7          DO;

             13776    7            O1COM.CURRENT_PROC$ -> PROC_.PROC_SUPP$ -> PROC_SUPP.HEAD$ = SYM$;

  13776 23 000225   000000 236100                    LDQ     0,,PR0
        23 000226   300011 756100                    STQ     9,,PR3

             13777    7            O1COM.CURRENT_PROC$ -> PROC_.PROC_SUPP$ -> PROC_SUPP.TAIL$ = SYM$;

  13777 23 000227   000057 471400 xsym               LDP1    O1COM+47
        23 000230   100001 473500                    LDP3    1,,PR1
        23 000231   000000 236100                    LDQ     0,,PR0
        23 000232   300012 756100                    STQ     10,,PR3

             13778    7          END;

  13778 23 000233   000246 710000 23                 TRA     s:13797

             13779    6        ELSE
             13780    7          DO;

             13781    7            O1COM.CURRENT_PROC$ -> PROC_.PROC_SUPP$ -> PROC_SUPP.TAIL$ -> ST.LINK =
             13781                     SYM$;

  13781 23 000234   300012 474500                    LDP4    10,,PR3
        23 000235   000000 236100                    LDQ     0,,PR0
        23 000236   400012 756100                    STQ     10,,PR4

             13782    7            O1COM.CURRENT_PROC$ -> PROC_.PROC_SUPP$ -> PROC_SUPP.TAIL$ = SYM$;

  13782 23 000237   000057 471400 xsym               LDP1    O1COM+47
        23 000240   100001 473500                    LDP3    1,,PR1
        23 000241   000000 236100                    LDQ     0,,PR0
        23 000242   300012 756100                    STQ     10,,PR3

             13783    7          END;
PL6.E3A0      #001=Z8AT$CREATE_TEMPORARY File=Z8AT.:Z8A6TSI                      SAT 08/09/97 10:51 Page:30

             13784    6      END;

             13786    5                  END;

  13786 23 000243   000246 710000 23                 TRA     s:13797

             13787    4                ELSE
             13788    4                  SYM$ -> PARA.PROC$ = ADDR(NIL);

  13788 23 000244   000000 471500                    LDP1    0,,PR0
        23 000245   100011 756100                    STQ     9,,PR1

             13789                   %ENDIF;
             13790                 %ELSE;
             13795                 %ENDIF;
             13797    4       SYM$ -> PARA.PREV_ILS$             = ADDR(NIL);

  13797 23 000246   000000 471500                    LDP1    0,,PR0
        23 000247   000002 236000 24                 LDQ     2
        23 000250   100010 756100                    STQ     8,,PR1

             13798            %IF (TEXTCHAR() ~= '');
             13800            %ENDIF;
             13801            %IF (TEXTCHAR('1'B) ~= '');
             13802    4         SYM$ -> PARA.B.DEFINED           = '1'B;

  13802 23 000251   000000 471500                    LDP1    0,,PR0
        23 000252   200000 236003                    LDQ     65536,DU
        23 000253   100003 256100                    ORSQ    3,,PR1

             13803            %ENDIF;
             13804            %IF (TEXTCHAR('1'B) ~= '');
             13805    4         SYM$ -> PARA.B.COMPILER_CREATED  = '1'B;

  13805 23 000254   000000 471500                    LDP1    0,,PR0
        23 000255   100000 236003                    LDQ     32768,DU
PL6.E3A0      #001=Z8AT$CREATE_TEMPORARY File=Z8AT.:Z8A6TSI                      SAT 08/09/97 10:51 Page:31
        23 000256   100003 256100                    ORSQ    3,,PR1

             13806            %ENDIF;
             13807            %IF (TEXTCHAR() ~= '');
             13809            %ENDIF;
             13810            %IF (TEXTCHAR() ~= '');
             13812            %ENDIF;
             13813            %IF (TEXTCHAR() ~= '');
             13815            %ENDIF;
             13816            %IF (TEXTCHAR() ~= '');
             13818            %ENDIF;
             13819            %IF (TEXTCHAR() ~= '');
             13821            %ENDIF;
             13822            %IF (TEXTCHAR() ~= '');
             13824            %ENDIF;
             13825            %IF (TEXTCHAR() ~= '');
             13827            %ENDIF;
             13828            %IF (TEXTCHAR() ~= '');
             13830            %ENDIF;
             13831            %IF (TEXTCHAR() ~= '');
             13833            %ENDIF;
             13834            %IF (TEXTCHAR() ~= '');
             13836            %ENDIF;
             13837            %IF (TEXTCHAR() ~= '');
             13839            %ENDIF;
             13840            %IF (TEXTCHAR() ~= '');
             13842            %ENDIF;
             13843            %IF (TEXTCHAR() ~= '');
             13845            %ENDIF;
             13846             %IF (TEXTCHAR() ~= '');
             13848             %ENDIF;
             13849            %IF (TEXTCHAR() ~= '');
             13851            %ENDIF;
             13852            %IF (TEXTCHAR() ~= '');
             13854            %ENDIF;
             13855            %IF (TEXTCHAR() ~= '');
             13857            %ENDIF;
PL6.E3A0      #001=Z8AT$CREATE_TEMPORARY File=Z8AT.:Z8A6TSI                      SAT 08/09/97 10:51 Page:32
             13858            %IF (TEXTCHAR() ~= '');
             13860            %ENDIF;
             13861            %IF (TEXTCHAR() ~= '');
             13863            %ENDIF;
             13864            %IF (TEXTCHAR() ~= '');
             13866            %ENDIF;
             13867            %IF (TEXTCHAR() ~= '');
             13869            %ENDIF;
             13870            %IF (TEXTCHAR() ~= '');
             13872            %ENDIF;
             13873            %IF (TEXTCHAR() ~= '');
             13875            %ENDIF;
             13876            %IF (TEXTCHAR() ~= '');
             13878            %ENDIF;
             13879            %IF (TEXTCHAR() ~= '');
             13881            %ENDIF;
             13882            %IF (TEXTCHAR() ~= '');
             13884            %ENDIF;
             13885            %IF (TEXTCHAR() ~= '');
             13887            %ENDIF;
             13888    4     END;

             13890    3     END;

  13890 23 000257   001552 710000 23                 TRA     s:14813

      111    13892        %SET LISTSUB = '0'B;
      112    13893        %SET LISTMAC = FALSE;
      113    13894
      114    13895    2            CASE (%SECTION);

      115    13896                   %NEW_DNT     (@POINTER = NAME$,
      116    13897                                 @SIZE    = %TEMP_LAB_NAME_LENGTH);

  13900 23 000260   000007 236007                    LDQ     7,DL
        23 000261   000000 756000 0                  STQ     ITERATION

PL6.E3A0      #001=Z8AT$CREATE_TEMPORARY File=Z8AT.:Z8A6TSI                      SAT 08/09/97 10:51 Page:33
  13901 23 000262   000002 036000 2                  ADLQ    DNT_+2
        23 000263   000276 604000 23                 TMI     s:13903
        23 000264   000003 116000 2                  CMPQ    DNT_+3
        23 000265   000276 602000 23                 TNC     s:13903

  13902 23 000266   000001 236000 24                 LDQ     1
        23 000267   200010 756100                    STQ     DESC+2,,AUTO
        23 000270   200010 631500                    EPPR1   DESC+2,,AUTO
        23 000271   200011 451500                    STP1    DESC+3,,AUTO
        23 000272   200011 630500                    EPPR0   DESC+3,,AUTO
        23 000273   000000 631400 24                 EPPR1   0
        23 000274   000000 701000 xent               TSX1    Z8AR$RESERVER
        23 000275   000000 011000                    NOP     0

  13903 23 000276   000002 236000 2                  LDQ     DNT_+2
        23 000277   000022 736000                    QLS     18
        23 000300   000001 036000 2                  ADLQ    DNT_+1
        23 000301   000000 756000 21                 STQ     NAME$

  13904 23 000302   000002 236000 2                  LDQ     DNT_+2
        23 000303   000000 036000 0                  ADLQ    ITERATION
        23 000304   000002 756000 2                  STQ     DNT_+2

  13905 23 000305   001046 220003                    LDX0    550,DU
        23 000306   000000 470400 21                 LDP0    NAME$
        23 000307   000000 740100                    STX0    0,,PR0

  13906 23 000310   000000 721000 0                  LXL1    ITERATION
        23 000311   000000 441100                    SXL1    0,,PR0

  13907 23 000312   000007 222003                    LDX2    7,DU
        23 000313   000004 742100                    STX2    4,,PR0

  13910 23 000314   000002 236000 24                 LDQ     2
        23 000315   000001 756100                    STQ     1,,PR0

  13911 23 000316   000002 236000 24                 LDQ     2
PL6.E3A0      #001=Z8AT$CREATE_TEMPORARY File=Z8AT.:Z8A6TSI                      SAT 08/09/97 10:51 Page:34
        23 000317   000002 756100                    STQ     2,,PR0

  13912 23 000320   000000 223003                    LDX3    0,DU
        23 000321   000003 743100                    STX3    3,,PR0

  13913 23 000322   000000 224003                    LDX4    0,DU
        23 000323   000003 444100                    SXL4    3,,PR0

  13914 23 000324   040140 100400                    MLR     fill='040'O
        23 000325   000003 000001 24                 ADSC9   3                        cn=0,n=1
        23 000326   000004 400012                    ADSC9   4,,PR0                   cn=2,n=*X2

      117    13955
      118    13956                   %SET_COUNT(ITEM=LAB_#, COUNT_LIMIT=%TEMP_LAB_LIMIT) ;

  13958 23 000327   000000 301400                    BTD
        23 000330   000003 000004 21                 NDSC9   LAB_#                    cn=0,s=lsgnf,sf=0,n=4
        23 000331   000004 030003 21                 NDSC9   ALPHA_#                  cn=0,s=nosgn,sf=0,n=3

  13959 23 000332   000003 054000 21                 AOS     LAB_#

  13960 23 000333   000003 235000 21                 LDA     LAB_#
        23 000334   001747 115007                    CMPA    999,DL
        23 000335   000340 604400 23                 TMOZ    s:13965

  13961 23 000336   000001 235007                    LDA     1,DL
        23 000337   000003 755000 21                 STA     LAB_#

      119    13964
      120    13965    2              CALL CONCAT (NAME$ -> DNT.TEXT.NAME, 'LAB#', ALPHA_#);

  13965 23 000340   040140 100400                    MLR     fill='040'O
        23 000341   000000 000004 22                 ADSC9   0                        cn=0,n=4
        23 000342   000004 400012                    ADSC9   4,,PR0                   cn=2,n=*X2
        23 000343   000000 636012                    EAQ     0,X2
        23 000344   000022 772000                    QRL     18
        23 000345   000005 116007                    CMPQ    5,DL
PL6.E3A0      #001=Z8AT$CREATE_TEMPORARY File=Z8AT.:Z8A6TSI                      SAT 08/09/97 10:51 Page:35
        23 000346   000353 602000 23                 TNC     s:13975
        23 000347   777774 625012                    EAX5    -4,X2
        23 000350   040140 100400                    MLR     fill='040'O
        23 000351   000004 000003 21                 ADSC9   ALPHA_#                  cn=0,n=3
        23 000352   000005 400015                    ADSC9   5,,PR0                   cn=2,n=*X5

      121    13966
      122    13967                   %NEW_SECTION (@ST$       = SYM$,
      123    13968                                 @TYPE      = %TYI,
      124    13969                                 @DNT$      = NAME$,
      125    13970                                 @DEFINED   = TRUE,
      126    13971                                 @COMPILER_CREATED = TRUE);

  13975 23 000353   000002 236000 9                  LDQ     ST_+2
        23 000354   000013 036007                    ADLQ    11,DL
        23 000355   000003 116000 9                  CMPQ    ST_+3
        23 000356   000367 604000 23                 TMI     s:13977

  13976 23 000357   000004 236000 24                 LDQ     4
        23 000360   200010 756100                    STQ     DESC+2,,AUTO
        23 000361   200010 631500                    EPPR1   DESC+2,,AUTO
        23 000362   200011 451500                    STP1    DESC+3,,AUTO
        23 000363   200011 630500                    EPPR0   DESC+3,,AUTO
        23 000364   000000 631400 24                 EPPR1   0
        23 000365   000000 701000 xent               TSX1    Z8AR$RESERVER
        23 000366   000000 011000                    NOP     0

  13977 23 000367   000002 236000 9                  LDQ     ST_+2
        23 000370   000022 736000                    QLS     18
        23 000371   000001 036000 9                  ADLQ    ST_+1
        23 000372   200004 470500                    LDP0    @SYM$,,AUTO
        23 000373   000000 756100                    STQ     0,,PR0

  13978 23 000374   000013 236007                    LDQ     11,DL
        23 000375   000002 056000 9                  ASQ     ST_+2

  14026 23 000376   000000 471500                    LDP1    0,,PR0
PL6.E3A0      #001=Z8AT$CREATE_TEMPORARY File=Z8AT.:Z8A6TSI                      SAT 08/09/97 10:51 Page:36
        23 000377   000770 220003                    LDX0    504,DU
        23 000400   100000 740100                    STX0    0,,PR1

  14027 23 000401   000000 471500                    LDP1    0,,PR0
        23 000402   001000 236007                    LDQ     512,DL
        23 000403   100000 552110                    STBQ    0,'10'O,PR1

  14028 23 000404   000000 471500                    LDP1    0,,PR0
        23 000405   000000 236003                    LDQ     0,DU
        23 000406   100000 552104                    STBQ    0,'04'O,PR1

  14029 23 000407   000000 471500                    LDP1    0,,PR0
        23 000410   000002 236000 24                 LDQ     2
        23 000411   100001 756100                    STQ     1,,PR1

  14030 23 000412   000000 471500                    LDP1    0,,PR0
        23 000413   000001 221003                    LDX1    1,DU
        23 000414   100002 741100                    STX1    2,,PR1

  14031 23 000415   000000 471500                    LDP1    0,,PR0
        23 000416   000133 722000 xsym               LXL2    COMCOM+91
        23 000417   100002 442100                    SXL2    2,,PR1

  14032 23 000420   000000 471500                    LDP1    0,,PR0
        23 000421   100003 450100                    STZ     3,,PR1

  14033 23 000422   000000 471500                    LDP1    0,,PR0
        23 000423   000002 236000 24                 LDQ     2
        23 000424   100004 756100                    STQ     4,,PR1

  14034 23 000425   000000 471500                    LDP1    0,,PR0
        23 000426   100005 756100                    STQ     5,,PR1

  14035 23 000427   000000 471500                    LDP1    0,,PR0
        23 000430   000000 236000 21                 LDQ     NAME$
        23 000431   100006 756100                    STQ     6,,PR1

PL6.E3A0      #001=Z8AT$CREATE_TEMPORARY File=Z8AT.:Z8A6TSI                      SAT 08/09/97 10:51 Page:37
  14041 23 000432   000000 471500                    LDP1    0,,PR0
        23 000433   000002 236000 24                 LDQ     2
        23 000434   100007 756100                    STQ     7,,PR1

  14046 23 000435   000000 471500                    LDP1    0,,PR0
        23 000436   100012 756100                    STQ     10,,PR1

  14054 23 000437   000132 235000 xsym               LDA     COMCOM+90
        23 000440   000001 115007                    CMPA    1,DL
        23 000441   000474 601000 23                 TNZ     s:14075

  14056 23 000442   000000 471500                    LDP1    0,,PR0
        23 000443   000057 236000 xsym               LDQ     O1COM+47
        23 000444   100011 756100                    STQ     9,,PR1

  14057 23 000445   000057 236000 xsym               LDQ     O1COM+47
        23 000446   000002 116000 24                 CMPQ    2
        23 000447   000476 600000 23                 TZE     s:14084

  14061 23 000450   000057 471400 xsym               LDP1    O1COM+47
        23 000451   100001 473500                    LDP3    1,,PR1
        23 000452   300012 236100                    LDQ     10,,PR3
        23 000453   000002 116000 24                 CMPQ    2
        23 000454   000464 601000 23                 TNZ     s:14068

  14063 23 000455   000000 236100                    LDQ     0,,PR0
        23 000456   300011 756100                    STQ     9,,PR3

  14064 23 000457   000057 471400 xsym               LDP1    O1COM+47
        23 000460   100001 473500                    LDP3    1,,PR1
        23 000461   000000 236100                    LDQ     0,,PR0
        23 000462   300012 756100                    STQ     10,,PR3

  14065 23 000463   000476 710000 23                 TRA     s:14084

  14068 23 000464   300012 474500                    LDP4    10,,PR3
        23 000465   000000 236100                    LDQ     0,,PR0
PL6.E3A0      #001=Z8AT$CREATE_TEMPORARY File=Z8AT.:Z8A6TSI                      SAT 08/09/97 10:51 Page:38
        23 000466   400012 756100                    STQ     10,,PR4

  14069 23 000467   000057 471400 xsym               LDP1    O1COM+47
        23 000470   100001 473500                    LDP3    1,,PR1
        23 000471   000000 236100                    LDQ     0,,PR0
        23 000472   300012 756100                    STQ     10,,PR3

  14073 23 000473   000476 710000 23                 TRA     s:14084

  14075 23 000474   000000 471500                    LDP1    0,,PR0
        23 000475   100011 756100                    STQ     9,,PR1

  14084 23 000476   000000 471500                    LDP1    0,,PR0
        23 000477   000002 236000 24                 LDQ     2
        23 000500   100010 756100                    STQ     8,,PR1

  14089 23 000501   000000 471500                    LDP1    0,,PR0
        23 000502   200000 236003                    LDQ     65536,DU
        23 000503   100003 256100                    ORSQ    3,,PR1

  14092 23 000504   000000 471500                    LDP1    0,,PR0
        23 000505   100000 236003                    LDQ     32768,DU
        23 000506   100003 256100                    ORSQ    3,,PR1

  14177 23 000507   001552 710000 23                 TRA     s:14813

      127    14179
      128    14180        %EJECT;
PL6.E3A0      #001=Z8AT$CREATE_TEMPORARY File=Z8AT.:Z8A6TSI                      SAT 08/09/97 10:51 Page:39
      129    14181    2            CASE (%SCALAR, %POINTER) ;

      130    14182
      131    14183                   %NEW_DNT (@POINTER = NAME$,
      132    14184                             @SIZE    = %TEMP_DATA_NAME_LENGTH);

  14187 23 000510   000007 236007                    LDQ     7,DL
        23 000511   000000 756000 0                  STQ     ITERATION

  14188 23 000512   000002 036000 2                  ADLQ    DNT_+2
        23 000513   000526 604000 23                 TMI     s:14190
        23 000514   000003 116000 2                  CMPQ    DNT_+3
        23 000515   000526 602000 23                 TNC     s:14190

  14189 23 000516   000001 236000 24                 LDQ     1
        23 000517   200010 756100                    STQ     DESC+2,,AUTO
        23 000520   200010 631500                    EPPR1   DESC+2,,AUTO
        23 000521   200011 451500                    STP1    DESC+3,,AUTO
        23 000522   200011 630500                    EPPR0   DESC+3,,AUTO
        23 000523   000000 631400 24                 EPPR1   0
        23 000524   000000 701000 xent               TSX1    Z8AR$RESERVER
        23 000525   000000 011000                    NOP     0

  14190 23 000526   000002 236000 2                  LDQ     DNT_+2
        23 000527   000022 736000                    QLS     18
        23 000530   000001 036000 2                  ADLQ    DNT_+1
        23 000531   000000 756000 21                 STQ     NAME$

  14191 23 000532   000002 236000 2                  LDQ     DNT_+2
        23 000533   000000 036000 0                  ADLQ    ITERATION
        23 000534   000002 756000 2                  STQ     DNT_+2

  14192 23 000535   001046 220003                    LDX0    550,DU
        23 000536   000000 470400 21                 LDP0    NAME$
        23 000537   000000 740100                    STX0    0,,PR0

  14193 23 000540   000000 721000 0                  LXL1    ITERATION
PL6.E3A0      #001=Z8AT$CREATE_TEMPORARY File=Z8AT.:Z8A6TSI                      SAT 08/09/97 10:51 Page:40
        23 000541   000000 441100                    SXL1    0,,PR0

  14194 23 000542   000007 222003                    LDX2    7,DU
        23 000543   000004 742100                    STX2    4,,PR0

  14197 23 000544   000002 236000 24                 LDQ     2
        23 000545   000001 756100                    STQ     1,,PR0

  14198 23 000546   000002 236000 24                 LDQ     2
        23 000547   000002 756100                    STQ     2,,PR0

  14199 23 000550   000000 223003                    LDX3    0,DU
        23 000551   000003 743100                    STX3    3,,PR0

  14200 23 000552   000000 224003                    LDX4    0,DU
        23 000553   000003 444100                    SXL4    3,,PR0

  14201 23 000554   040140 100400                    MLR     fill='040'O
        23 000555   000003 000001 24                 ADSC9   3                        cn=0,n=1
        23 000556   000004 400012                    ADSC9   4,,PR0                   cn=2,n=*X2

      133    14242
      134    14243                   %SET_COUNT(ITEM=VAR_#, COUNT_LIMIT=%TEMP_VAR_LIMIT) ;

  14245 23 000557   000000 301400                    BTD
        23 000560   000002 000004 21                 NDSC9   VAR_#                    cn=0,s=lsgnf,sf=0,n=4
        23 000561   000004 030003 21                 NDSC9   ALPHA_#                  cn=0,s=nosgn,sf=0,n=3

  14246 23 000562   000002 054000 21                 AOS     VAR_#

  14247 23 000563   000002 235000 21                 LDA     VAR_#
        23 000564   001747 115007                    CMPA    999,DL
        23 000565   000570 604400 23                 TMOZ    s:14252

  14248 23 000566   000001 235007                    LDA     1,DL
        23 000567   000002 755000 21                 STA     VAR_#

PL6.E3A0      #001=Z8AT$CREATE_TEMPORARY File=Z8AT.:Z8A6TSI                      SAT 08/09/97 10:51 Page:41
      135    14251
      136    14252    2              CALL CONCAT(NAME$->DNT.TEXT.NAME, 'VAR#', ALPHA_#) ;

  14252 23 000570   040140 100400                    MLR     fill='040'O
        23 000571   000001 000004 22                 ADSC9   1                        cn=0,n=4
        23 000572   000004 400012                    ADSC9   4,,PR0                   cn=2,n=*X2
        23 000573   000000 636012                    EAQ     0,X2
        23 000574   000022 772000                    QRL     18
        23 000575   000005 116007                    CMPQ    5,DL
        23 000576   000603 602000 23                 TNC     s:14259
        23 000577   777774 625012                    EAX5    -4,X2
        23 000600   040140 100400                    MLR     fill='040'O
        23 000601   000004 000003 21                 ADSC9   ALPHA_#                  cn=0,n=3
        23 000602   000005 400015                    ADSC9   5,,PR0                   cn=2,n=*X5

      137    14253
      138    14254                   %BUILD_BINARY_DESC (@DESC = DESC,
      139    14255                                       @LENGTH = %TYI_LENGTH);

  14259 23 000603   200006 450100                    STZ     DESC,,AUTO

  14260 23 000604   000004 236007                    LDQ     4,DL
        23 000605   200006 752101                    STCQ    DESC,'01'O,AUTO

      140    14263
      141    14264                   %NEW_SCALAR (@ST$              = SYM$,
      142    14265                                @TYPE             = %TYI, /* Default type */
      143    14266                                @DNT$             = NAME$,
      144    14267                                @DESCL            = DESC.DESCL,
      145    14268                                @CLASS            = %CLASS_NUMERIC,
      146    14269                                @ELEMENTARY       = TRUE,
      147    14270                                @COMPILER_CREATED = TRUE);

  14274 23 000606   000002 236000 9                  LDQ     ST_+2
        23 000607   000013 036007                    ADLQ    11,DL
        23 000610   000003 116000 9                  CMPQ    ST_+3
        23 000611   000622 604000 23                 TMI     s:14276
PL6.E3A0      #001=Z8AT$CREATE_TEMPORARY File=Z8AT.:Z8A6TSI                      SAT 08/09/97 10:51 Page:42

  14275 23 000612   000004 236000 24                 LDQ     4
        23 000613   200010 756100                    STQ     DESC+2,,AUTO
        23 000614   200010 631500                    EPPR1   DESC+2,,AUTO
        23 000615   200011 451500                    STP1    DESC+3,,AUTO
        23 000616   200011 630500                    EPPR0   DESC+3,,AUTO
        23 000617   000000 631400 24                 EPPR1   0
        23 000620   000000 701000 xent               TSX1    Z8AR$RESERVER
        23 000621   000000 011000                    NOP     0

  14276 23 000622   000002 236000 9                  LDQ     ST_+2
        23 000623   000022 736000                    QLS     18
        23 000624   000001 036000 9                  ADLQ    ST_+1
        23 000625   200004 470500                    LDP0    @SYM$,,AUTO
        23 000626   000000 756100                    STQ     0,,PR0

  14277 23 000627   000013 236007                    LDQ     11,DL
        23 000630   000002 056000 9                  ASQ     ST_+2

  14325 23 000631   000000 471500                    LDP1    0,,PR0
        23 000632   000766 220003                    LDX0    502,DU
        23 000633   100000 740100                    STX0    0,,PR1

  14326 23 000634   000000 471500                    LDP1    0,,PR0
        23 000635   003000 236007                    LDQ     1536,DL
        23 000636   100000 552110                    STBQ    0,'10'O,PR1

  14327 23 000637   000000 471500                    LDP1    0,,PR0
        23 000640   000001 236007                    LDQ     1,DL
        23 000641   100000 552104                    STBQ    0,'04'O,PR1

  14328 23 000642   000000 471500                    LDP1    0,,PR0
        23 000643   000000 221003                    LDX1    0,DU
        23 000644   100001 741100                    STX1    1,,PR1

  14329 23 000645   000000 471500                    LDP1    0,,PR0
        23 000646   200006 722100                    LXL2    DESC,,AUTO
PL6.E3A0      #001=Z8AT$CREATE_TEMPORARY File=Z8AT.:Z8A6TSI                      SAT 08/09/97 10:51 Page:43
        23 000647   100001 442100                    SXL2    1,,PR1

  14330 23 000650   000000 471500                    LDP1    0,,PR0
        23 000651   000133 723000 xsym               LXL3    COMCOM+91
        23 000652   100002 443100                    SXL3    2,,PR1

  14331 23 000653   000000 471500                    LDP1    0,,PR0
        23 000654   100003 450100                    STZ     3,,PR1

  14332 23 000655   000000 471500                    LDP1    0,,PR0
        23 000656   000002 236000 24                 LDQ     2
        23 000657   100004 756100                    STQ     4,,PR1

  14333 23 000660   000000 471500                    LDP1    0,,PR0
        23 000661   100005 756100                    STQ     5,,PR1

  14334 23 000662   000000 471500                    LDP1    0,,PR0
        23 000663   100007 756100                    STQ     7,,PR1

  14335 23 000664   000000 471500                    LDP1    0,,PR0
        23 000665   100010 741100                    STX1    8,,PR1

  14336 23 000666   000000 471500                    LDP1    0,,PR0
        23 000667   777777 223003                    LDX3    -1,DU
        23 000670   100010 443100                    SXL3    8,,PR1

  14340 23 000671   000000 471500                    LDP1    0,,PR0
        23 000672   100012 756100                    STQ     10,,PR1

  14348 23 000673   000132 235000 xsym               LDA     COMCOM+90
        23 000674   000001 115007                    CMPA    1,DL
        23 000675   000730 601000 23                 TNZ     s:14369

  14350 23 000676   000000 471500                    LDP1    0,,PR0
        23 000677   000057 236000 xsym               LDQ     O1COM+47
        23 000700   100011 756100                    STQ     9,,PR1

PL6.E3A0      #001=Z8AT$CREATE_TEMPORARY File=Z8AT.:Z8A6TSI                      SAT 08/09/97 10:51 Page:44
  14351 23 000701   000057 236000 xsym               LDQ     O1COM+47
        23 000702   000002 116000 24                 CMPQ    2
        23 000703   000732 600000 23                 TZE     s:14379

  14355 23 000704   000057 471400 xsym               LDP1    O1COM+47
        23 000705   100001 473500                    LDP3    1,,PR1
        23 000706   300012 236100                    LDQ     10,,PR3
        23 000707   000002 116000 24                 CMPQ    2
        23 000710   000720 601000 23                 TNZ     s:14362

  14357 23 000711   000000 236100                    LDQ     0,,PR0
        23 000712   300011 756100                    STQ     9,,PR3

  14358 23 000713   000057 471400 xsym               LDP1    O1COM+47
        23 000714   100001 473500                    LDP3    1,,PR1
        23 000715   000000 236100                    LDQ     0,,PR0
        23 000716   300012 756100                    STQ     10,,PR3

  14359 23 000717   000732 710000 23                 TRA     s:14379

  14362 23 000720   300012 474500                    LDP4    10,,PR3
        23 000721   000000 236100                    LDQ     0,,PR0
        23 000722   400012 756100                    STQ     10,,PR4

  14363 23 000723   000057 471400 xsym               LDP1    O1COM+47
        23 000724   100001 473500                    LDP3    1,,PR1
        23 000725   000000 236100                    LDQ     0,,PR0
        23 000726   300012 756100                    STQ     10,,PR3

  14367 23 000727   000732 710000 23                 TRA     s:14379

  14369 23 000730   000000 471500                    LDP1    0,,PR0
        23 000731   100011 756100                    STQ     9,,PR1

  14379 23 000732   000000 471500                    LDP1    0,,PR0
        23 000733   000001 224003                    LDX4    1,DU
        23 000734   100002 744100                    STX4    2,,PR1
PL6.E3A0      #001=Z8AT$CREATE_TEMPORARY File=Z8AT.:Z8A6TSI                      SAT 08/09/97 10:51 Page:45

  14384 23 000735   000000 471500                    LDP1    0,,PR0
        23 000736   000000 236000 21                 LDQ     NAME$
        23 000737   100006 756100                    STQ     6,,PR1

  14401 23 000740   000000 471500                    LDP1    0,,PR0
        23 000741   010000 236003                    LDQ     4096,DU
        23 000742   100003 256100                    ORSQ    3,,PR1

  14410 23 000743   000000 471500                    LDP1    0,,PR0
        23 000744   100000 236003                    LDQ     32768,DU
        23 000745   100003 256100                    ORSQ    3,,PR1

  14449 23 000746   000000 471500                    LDP1    0,,PR0
        23 000747   100003 236100                    LDQ     3,,PR1
        23 000750   000005 376000 24                 ANQ     5
        23 000751   000001 276007                    ORQ     1,DL
        23 000752   100003 756100                    STQ     3,,PR1

      148    14470
      149    14471                   %NEW_QLT (@POINTER = QUAL$,
      150    14472                             @ST$     = SYM$,
      151    14473                             @DNT$    = NAME$,
      152    14474                             @LEVEL#  = %LEVEL_NO_01);

  14479 23 000753   000002 236000 7                  LDQ     QLT_+2
        23 000754   000006 036007                    ADLQ    6,DL
        23 000755   000003 116000 7                  CMPQ    QLT_+3
        23 000756   000767 602000 23                 TNC     s:14481

  14480 23 000757   000006 236000 24                 LDQ     6
        23 000760   200010 756100                    STQ     DESC+2,,AUTO
        23 000761   200010 631500                    EPPR1   DESC+2,,AUTO
        23 000762   200011 451500                    STP1    DESC+3,,AUTO
        23 000763   200011 630500                    EPPR0   DESC+3,,AUTO
        23 000764   000000 631400 24                 EPPR1   0
        23 000765   000000 701000 xent               TSX1    Z8AR$RESERVER
PL6.E3A0      #001=Z8AT$CREATE_TEMPORARY File=Z8AT.:Z8A6TSI                      SAT 08/09/97 10:51 Page:46
        23 000766   000000 011000                    NOP     0

  14481 23 000767   000002 236000 7                  LDQ     QLT_+2
        23 000770   000022 736000                    QLS     18
        23 000771   000001 036000 7                  ADLQ    QLT_+1
        23 000772   200005 756100                    STQ     QUAL$,,AUTO

  14482 23 000773   000002 235000 7                  LDA     QLT_+2
        23 000774   000006 035007                    ADLA    6,DL
        23 000775   000002 755000 7                  STA     QLT_+2

  14483 23 000776   001053 220003                    LDX0    555,DU
        23 000777   200005 470500                    LDP0    QUAL$,,AUTO
        23 001000   000000 740100                    STX0    0,,PR0

  14486 23 001001   000002 236000 24                 LDQ     2
        23 001002   000001 756100                    STQ     1,,PR0

  14487 23 001003   000002 236000 24                 LDQ     2
        23 001004   000002 756100                    STQ     2,,PR0

  14488 23 001005   000002 236000 24                 LDQ     2
        23 001006   000003 756100                    STQ     3,,PR0

  14489 23 001007   200004 471500                    LDP1    @SYM$,,AUTO
        23 001010   100000 236100                    LDQ     0,,PR1
        23 001011   000004 756100                    STQ     4,,PR0

  14490 23 001012   000000 236000 21                 LDQ     NAME$
        23 001013   000005 756100                    STQ     5,,PR0

  14491 23 001014   000001 236007                    LDQ     1,DL
        23 001015   000000 552104                    STBQ    0,'04'O,PR0

  14492 23 001016   000000 236003                    LDQ     0,DU
        23 001017   000000 552110                    STBQ    0,'10'O,PR0

PL6.E3A0      #001=Z8AT$CREATE_TEMPORARY File=Z8AT.:Z8A6TSI                      SAT 08/09/97 10:51 Page:47
  14493 23 001020   000007 236000 24                 LDQ     7
        23 001021   000000 356100                    ANSQ    0,,PR0

  14494 23 001022   000010 236000 24                 LDQ     8
        23 001023   000000 356100                    ANSQ    0,,PR0

  14495 23 001024   000011 236000 24                 LDQ     9
        23 001025   000000 356100                    ANSQ    0,,PR0

  14496 23 001026   000012 236000 24                 LDQ     10
        23 001027   000000 356100                    ANSQ    0,,PR0

      153    14499
      154    14500    2              SYM$->SCALAR.QLT$ = QUAL$ ;

  14500 23 001030   100000 473500                    LDP3    0,,PR1
        23 001031   200005 236100                    LDQ     QUAL$,,AUTO
        23 001032   300007 756100                    STQ     7,,PR3

      155    14501    2              SYM$->SCALAR.ID   = SYM_ID ;

  14501 23 001033   100000 473500                    LDP3    0,,PR1
        23 001034   200003 474500                    LDP4    @SYM_ID,,AUTO
        23 001035   400000 721100                    LXL1    0,,PR4
        23 001036   300000 741100                    STX1    0,,PR3

      156    14502
      157    14503    2              IF COMCOM.PREV_QLT$ ~= ADDR(NIL) THEN

  14503 23 001037   000424 236000 xsym               LDQ     COMCOM+276
        23 001040   000002 116000 24                 CMPQ    2
        23 001041   001045 600000 23                 TZE     s:14506

      158    14504    2                COMCOM.PREV_QLT$->QLT.BROTHER = QUAL$ ;

  14504 23 001042   200005 236100                    LDQ     QUAL$,,AUTO
        23 001043   000424 473400 xsym               LDP3    COMCOM+276
PL6.E3A0      #001=Z8AT$CREATE_TEMPORARY File=Z8AT.:Z8A6TSI                      SAT 08/09/97 10:51 Page:48
        23 001044   300002 756100                    STQ     2,,PR3

      159    14505
      160    14506    2              COMCOM.PREV_QLT$ = QUAL$ ;

  14506 23 001045   200005 236100                    LDQ     QUAL$,,AUTO
        23 001046   000424 756000 xsym               STQ     COMCOM+276
        23 001047   001552 710000 23                 TRA     s:14813

      161    14507
      162    14508    2            CASE (%SWITCH);

      163    14509
      164    14510                   %NEW_DNT (@POINTER = NAME$,
      165    14511                             @SIZE    = %TEMP_SWITCH_NAME_LENGTH);

  14514 23 001050   000007 236007                    LDQ     7,DL
        23 001051   000000 756000 0                  STQ     ITERATION

  14515 23 001052   000002 036000 2                  ADLQ    DNT_+2
        23 001053   001066 604000 23                 TMI     s:14517
        23 001054   000003 116000 2                  CMPQ    DNT_+3
        23 001055   001066 602000 23                 TNC     s:14517

  14516 23 001056   000001 236000 24                 LDQ     1
        23 001057   200010 756100                    STQ     DESC+2,,AUTO
        23 001060   200010 631500                    EPPR1   DESC+2,,AUTO
        23 001061   200011 451500                    STP1    DESC+3,,AUTO
        23 001062   200011 630500                    EPPR0   DESC+3,,AUTO
        23 001063   000000 631400 24                 EPPR1   0
        23 001064   000000 701000 xent               TSX1    Z8AR$RESERVER
        23 001065   000000 011000                    NOP     0

  14517 23 001066   000002 236000 2                  LDQ     DNT_+2
        23 001067   000022 736000                    QLS     18
        23 001070   000001 036000 2                  ADLQ    DNT_+1
        23 001071   000000 756000 21                 STQ     NAME$
PL6.E3A0      #001=Z8AT$CREATE_TEMPORARY File=Z8AT.:Z8A6TSI                      SAT 08/09/97 10:51 Page:49

  14518 23 001072   000002 236000 2                  LDQ     DNT_+2
        23 001073   000000 036000 0                  ADLQ    ITERATION
        23 001074   000002 756000 2                  STQ     DNT_+2

  14519 23 001075   001046 220003                    LDX0    550,DU
        23 001076   000000 470400 21                 LDP0    NAME$
        23 001077   000000 740100                    STX0    0,,PR0

  14520 23 001100   000000 721000 0                  LXL1    ITERATION
        23 001101   000000 441100                    SXL1    0,,PR0

  14521 23 001102   000010 222003                    LDX2    8,DU
        23 001103   000004 742100                    STX2    4,,PR0

  14524 23 001104   000002 236000 24                 LDQ     2
        23 001105   000001 756100                    STQ     1,,PR0

  14525 23 001106   000002 236000 24                 LDQ     2
        23 001107   000002 756100                    STQ     2,,PR0

  14526 23 001110   000000 223003                    LDX3    0,DU
        23 001111   000003 743100                    STX3    3,,PR0

  14527 23 001112   000000 224003                    LDX4    0,DU
        23 001113   000003 444100                    SXL4    3,,PR0

  14528 23 001114   040140 100400                    MLR     fill='040'O
        23 001115   000003 000001 24                 ADSC9   3                        cn=0,n=1
        23 001116   000004 400012                    ADSC9   4,,PR0                   cn=2,n=*X2

      166    14569
      167    14570                   %SET_COUNT (ITEM = TEMP_#,
      168    14571                               COUNT_LIMIT = %TEMP_VAR_LIMIT);

  14573 23 001117   000000 301400                    BTD
        23 001120   000001 000004 21                 NDSC9   TEMP_#                   cn=0,s=lsgnf,sf=0,n=4
PL6.E3A0      #001=Z8AT$CREATE_TEMPORARY File=Z8AT.:Z8A6TSI                      SAT 08/09/97 10:51 Page:50
        23 001121   000004 030003 21                 NDSC9   ALPHA_#                  cn=0,s=nosgn,sf=0,n=3

  14574 23 001122   000001 054000 21                 AOS     TEMP_#

  14575 23 001123   000001 235000 21                 LDA     TEMP_#
        23 001124   001747 115007                    CMPA    999,DL
        23 001125   001130 604400 23                 TMOZ    s:14580

  14576 23 001126   000001 235007                    LDA     1,DL
        23 001127   000001 755000 21                 STA     TEMP_#

      169    14579
      170    14580    2              CALL CONCAT (NAME$ -> DNT.TEXT.NAME, 'T_SW', ALPHA_#);

  14580 23 001130   040140 100400                    MLR     fill='040'O
        23 001131   000002 000004 22                 ADSC9   2                        cn=0,n=4
        23 001132   000004 400012                    ADSC9   4,,PR0                   cn=2,n=*X2
        23 001133   000000 636012                    EAQ     0,X2
        23 001134   000022 772000                    QRL     18
        23 001135   000005 116007                    CMPQ    5,DL
        23 001136   001143 602000 23                 TNC     s:14587
        23 001137   777774 625012                    EAX5    -4,X2
        23 001140   040140 100400                    MLR     fill='040'O
        23 001141   000004 000003 21                 ADSC9   ALPHA_#                  cn=0,n=3
        23 001142   000005 400015                    ADSC9   5,,PR0                   cn=2,n=*X5

      171    14581
      172    14582                   %NEW_SWITCH (@ST$      = SYM$,
      173    14583                                @DNT$     = NAME$);

  14587 23 001143   000002 236000 9                  LDQ     ST_+2
        23 001144   000013 036007                    ADLQ    11,DL
        23 001145   000003 116000 9                  CMPQ    ST_+3
        23 001146   001157 604000 23                 TMI     s:14589

  14588 23 001147   000004 236000 24                 LDQ     4
        23 001150   200010 756100                    STQ     DESC+2,,AUTO
PL6.E3A0      #001=Z8AT$CREATE_TEMPORARY File=Z8AT.:Z8A6TSI                      SAT 08/09/97 10:51 Page:51
        23 001151   200010 631500                    EPPR1   DESC+2,,AUTO
        23 001152   200011 451500                    STP1    DESC+3,,AUTO
        23 001153   200011 630500                    EPPR0   DESC+3,,AUTO
        23 001154   000000 631400 24                 EPPR1   0
        23 001155   000000 701000 xent               TSX1    Z8AR$RESERVER
        23 001156   000000 011000                    NOP     0

  14589 23 001157   000002 236000 9                  LDQ     ST_+2
        23 001160   000022 736000                    QLS     18
        23 001161   000001 036000 9                  ADLQ    ST_+1
        23 001162   200004 470500                    LDP0    @SYM$,,AUTO
        23 001163   000000 756100                    STQ     0,,PR0

  14590 23 001164   000013 236007                    LDQ     11,DL
        23 001165   000002 056000 9                  ASQ     ST_+2

  14593 23 001166   000000 471500                    LDP1    0,,PR0
        23 001167   000762 220003                    LDX0    498,DU
        23 001170   100000 740100                    STX0    0,,PR1

  14594 23 001171   000000 471500                    LDP1    0,,PR0
        23 001172   000020 221003                    LDX1    16,DU
        23 001173   100002 741100                    STX1    2,,PR1

  14595 23 001174   000000 471500                    LDP1    0,,PR0
        23 001175   000133 722000 xsym               LXL2    COMCOM+91
        23 001176   100002 442100                    SXL2    2,,PR1

  14596 23 001177   000000 471500                    LDP1    0,,PR0
        23 001200   000000 222003                    LDX2    0,DU
        23 001201   100003 742100                    STX2    3,,PR1

  14597 23 001202   000000 471500                    LDP1    0,,PR0
        23 001203   000002 236000 24                 LDQ     2
        23 001204   100004 756100                    STQ     4,,PR1

  14598 23 001205   000000 471500                    LDP1    0,,PR0
PL6.E3A0      #001=Z8AT$CREATE_TEMPORARY File=Z8AT.:Z8A6TSI                      SAT 08/09/97 10:51 Page:52
        23 001206   000000 223003                    LDX3    0,DU
        23 001207   100003 443100                    SXL3    3,,PR1

  14599 23 001210   000000 471500                    LDP1    0,,PR0
        23 001211   000000 236000 21                 LDQ     NAME$
        23 001212   100006 756100                    STQ     6,,PR1

  14600 23 001213   000000 471500                    LDP1    0,,PR0
        23 001214   000002 236000 24                 LDQ     2
        23 001215   100007 756100                    STQ     7,,PR1

  14604 23 001216   000000 471500                    LDP1    0,,PR0
        23 001217   100012 756100                    STQ     10,,PR1

  14612 23 001220   000132 235000 xsym               LDA     COMCOM+90
        23 001221   000001 115007                    CMPA    1,DL
        23 001222   001255 601000 23                 TNZ     s:14633

  14614 23 001223   000000 471500                    LDP1    0,,PR0
        23 001224   000057 236000 xsym               LDQ     O1COM+47
        23 001225   100011 756100                    STQ     9,,PR1

  14615 23 001226   000057 236000 xsym               LDQ     O1COM+47
        23 001227   000002 116000 24                 CMPQ    2
        23 001230   001257 600000 23                 TZE     s:14642

  14619 23 001231   000057 471400 xsym               LDP1    O1COM+47
        23 001232   100001 473500                    LDP3    1,,PR1
        23 001233   300012 236100                    LDQ     10,,PR3
        23 001234   000002 116000 24                 CMPQ    2
        23 001235   001245 601000 23                 TNZ     s:14626

  14621 23 001236   000000 236100                    LDQ     0,,PR0
        23 001237   300011 756100                    STQ     9,,PR3

  14622 23 001240   000057 471400 xsym               LDP1    O1COM+47
        23 001241   100001 473500                    LDP3    1,,PR1
PL6.E3A0      #001=Z8AT$CREATE_TEMPORARY File=Z8AT.:Z8A6TSI                      SAT 08/09/97 10:51 Page:53
        23 001242   000000 236100                    LDQ     0,,PR0
        23 001243   300012 756100                    STQ     10,,PR3

  14623 23 001244   001257 710000 23                 TRA     s:14642

  14626 23 001245   300012 474500                    LDP4    10,,PR3
        23 001246   000000 236100                    LDQ     0,,PR0
        23 001247   400012 756100                    STQ     10,,PR4

  14627 23 001250   000057 471400 xsym               LDP1    O1COM+47
        23 001251   100001 473500                    LDP3    1,,PR1
        23 001252   000000 236100                    LDQ     0,,PR0
        23 001253   300012 756100                    STQ     10,,PR3

  14631 23 001254   001257 710000 23                 TRA     s:14642

  14633 23 001255   000000 471500                    LDP1    0,,PR0
        23 001256   100011 756100                    STQ     9,,PR1

  14642 23 001257   000000 471500                    LDP1    0,,PR0
        23 001260   000002 236000 24                 LDQ     2
        23 001261   100005 756100                    STQ     5,,PR1

  14643 23 001262   000000 471500                    LDP1    0,,PR0
        23 001263   100001 756100                    STQ     1,,PR1

      174    14646
      175    14647                   %NEW_QLT (@POINTER = QUAL$,
      176    14648                             @ST$     = SYM$,
      177    14649                             @DNT$    = NAME$,
      178    14650                             @LEVEL#  = 1);

  14655 23 001264   000002 236000 7                  LDQ     QLT_+2
        23 001265   000006 036007                    ADLQ    6,DL
        23 001266   000003 116000 7                  CMPQ    QLT_+3
        23 001267   001300 602000 23                 TNC     s:14657

PL6.E3A0      #001=Z8AT$CREATE_TEMPORARY File=Z8AT.:Z8A6TSI                      SAT 08/09/97 10:51 Page:54
  14656 23 001270   000006 236000 24                 LDQ     6
        23 001271   200010 756100                    STQ     DESC+2,,AUTO
        23 001272   200010 631500                    EPPR1   DESC+2,,AUTO
        23 001273   200011 451500                    STP1    DESC+3,,AUTO
        23 001274   200011 630500                    EPPR0   DESC+3,,AUTO
        23 001275   000000 631400 24                 EPPR1   0
        23 001276   000000 701000 xent               TSX1    Z8AR$RESERVER
        23 001277   000000 011000                    NOP     0

  14657 23 001300   000002 236000 7                  LDQ     QLT_+2
        23 001301   000022 736000                    QLS     18
        23 001302   000001 036000 7                  ADLQ    QLT_+1
        23 001303   200005 756100                    STQ     QUAL$,,AUTO

  14658 23 001304   000002 235000 7                  LDA     QLT_+2
        23 001305   000006 035007                    ADLA    6,DL
        23 001306   000002 755000 7                  STA     QLT_+2

  14659 23 001307   001053 220003                    LDX0    555,DU
        23 001310   200005 470500                    LDP0    QUAL$,,AUTO
        23 001311   000000 740100                    STX0    0,,PR0

  14662 23 001312   000002 236000 24                 LDQ     2
        23 001313   000001 756100                    STQ     1,,PR0

  14663 23 001314   000002 236000 24                 LDQ     2
        23 001315   000002 756100                    STQ     2,,PR0

  14664 23 001316   000002 236000 24                 LDQ     2
        23 001317   000003 756100                    STQ     3,,PR0

  14665 23 001320   200004 471500                    LDP1    @SYM$,,AUTO
        23 001321   100000 236100                    LDQ     0,,PR1
        23 001322   000004 756100                    STQ     4,,PR0

  14666 23 001323   000000 236000 21                 LDQ     NAME$
        23 001324   000005 756100                    STQ     5,,PR0
PL6.E3A0      #001=Z8AT$CREATE_TEMPORARY File=Z8AT.:Z8A6TSI                      SAT 08/09/97 10:51 Page:55

  14667 23 001325   000001 236007                    LDQ     1,DL
        23 001326   000000 552104                    STBQ    0,'04'O,PR0

  14668 23 001327   000000 236003                    LDQ     0,DU
        23 001330   000000 552110                    STBQ    0,'10'O,PR0

  14669 23 001331   000007 236000 24                 LDQ     7
        23 001332   000000 356100                    ANSQ    0,,PR0

  14670 23 001333   000010 236000 24                 LDQ     8
        23 001334   000000 356100                    ANSQ    0,,PR0

  14671 23 001335   000011 236000 24                 LDQ     9
        23 001336   000000 356100                    ANSQ    0,,PR0

  14672 23 001337   000012 236000 24                 LDQ     10
        23 001340   000000 356100                    ANSQ    0,,PR0

      179    14675
      180    14676    2              SYM$ -> SWITCH.QLT$ = QUAL$;

  14676 23 001341   100000 473500                    LDP3    0,,PR1
        23 001342   200005 236100                    LDQ     QUAL$,,AUTO
        23 001343   300007 756100                    STQ     7,,PR3

      181    14677
      182    14678                   %UPDATE_PREV_QLT$ (@NEW_QLT$ = QUAL$);

  14680 23 001344   000424 236000 xsym               LDQ     COMCOM+276
        23 001345   000002 116000 24                 CMPQ    2
        23 001346   001352 600000 23                 TZE     s:14682

  14681 23 001347   200005 236100                    LDQ     QUAL$,,AUTO
        23 001350   000424 473400 xsym               LDP3    COMCOM+276
        23 001351   300002 756100                    STQ     2,,PR3

PL6.E3A0      #001=Z8AT$CREATE_TEMPORARY File=Z8AT.:Z8A6TSI                      SAT 08/09/97 10:51 Page:56
  14682 23 001352   200005 236100                    LDQ     QUAL$,,AUTO
        23 001353   000424 756000 xsym               STQ     COMCOM+276

  14683 23 001354   001552 710000 23                 TRA     s:14813

      183    14685
      184    14686
      185    14687        %EJECT;
PL6.E3A0      #001=Z8AT$CREATE_TEMPORARY File=Z8AT.:Z8A6TSI                      SAT 08/09/97 10:51 Page:57
      186    14688    2            CASE (%TEMP) ;

      187    14689
      188    14690                   %NEW_DNT (@POINTER = NAME$,
      189    14691                             @SIZE    = %TEMP_TEMP_NAME_LENGTH);

  14694 23 001355   000007 236007                    LDQ     7,DL
        23 001356   000000 756000 0                  STQ     ITERATION

  14695 23 001357   000002 036000 2                  ADLQ    DNT_+2
        23 001360   001373 604000 23                 TMI     s:14697
        23 001361   000003 116000 2                  CMPQ    DNT_+3
        23 001362   001373 602000 23                 TNC     s:14697

  14696 23 001363   000001 236000 24                 LDQ     1
        23 001364   200010 756100                    STQ     DESC+2,,AUTO
        23 001365   200010 631500                    EPPR1   DESC+2,,AUTO
        23 001366   200011 451500                    STP1    DESC+3,,AUTO
        23 001367   200011 630500                    EPPR0   DESC+3,,AUTO
        23 001370   000000 631400 24                 EPPR1   0
        23 001371   000000 701000 xent               TSX1    Z8AR$RESERVER
        23 001372   000000 011000                    NOP     0

  14697 23 001373   000002 236000 2                  LDQ     DNT_+2
        23 001374   000022 736000                    QLS     18
        23 001375   000001 036000 2                  ADLQ    DNT_+1
        23 001376   000000 756000 21                 STQ     NAME$

  14698 23 001377   000002 236000 2                  LDQ     DNT_+2
        23 001400   000000 036000 0                  ADLQ    ITERATION
        23 001401   000002 756000 2                  STQ     DNT_+2

  14699 23 001402   001046 220003                    LDX0    550,DU
        23 001403   000000 470400 21                 LDP0    NAME$
        23 001404   000000 740100                    STX0    0,,PR0

  14700 23 001405   000000 721000 0                  LXL1    ITERATION
PL6.E3A0      #001=Z8AT$CREATE_TEMPORARY File=Z8AT.:Z8A6TSI                      SAT 08/09/97 10:51 Page:58
        23 001406   000000 441100                    SXL1    0,,PR0

  14701 23 001407   000010 222003                    LDX2    8,DU
        23 001410   000004 742100                    STX2    4,,PR0

  14704 23 001411   000002 236000 24                 LDQ     2
        23 001412   000001 756100                    STQ     1,,PR0

  14705 23 001413   000002 236000 24                 LDQ     2
        23 001414   000002 756100                    STQ     2,,PR0

  14706 23 001415   000000 223003                    LDX3    0,DU
        23 001416   000003 743100                    STX3    3,,PR0

  14707 23 001417   000000 224003                    LDX4    0,DU
        23 001420   000003 444100                    SXL4    3,,PR0

  14708 23 001421   040140 100400                    MLR     fill='040'O
        23 001422   000003 000001 24                 ADSC9   3                        cn=0,n=1
        23 001423   000004 400012                    ADSC9   4,,PR0                   cn=2,n=*X2

      190    14749
      191    14750                   %SET_COUNT(ITEM=TEMP_#, COUNT_LIMIT=%TEMP_TEMP_LIMIT) ;

  14752 23 001424   000000 301400                    BTD
        23 001425   000001 000004 21                 NDSC9   TEMP_#                   cn=0,s=lsgnf,sf=0,n=4
        23 001426   000004 030003 21                 NDSC9   ALPHA_#                  cn=0,s=nosgn,sf=0,n=3

  14753 23 001427   000001 054000 21                 AOS     TEMP_#

  14754 23 001430   000001 235000 21                 LDA     TEMP_#
        23 001431   001747 115007                    CMPA    999,DL
        23 001432   001435 604400 23                 TMOZ    s:14759

  14755 23 001433   000001 235007                    LDA     1,DL
        23 001434   000001 755000 21                 STA     TEMP_#

PL6.E3A0      #001=Z8AT$CREATE_TEMPORARY File=Z8AT.:Z8A6TSI                      SAT 08/09/97 10:51 Page:59
      192    14758
      193    14759    2              CALL CONCAT(NAME$->DNT.TEXT.NAME, 'TEMP#', ALPHA_#) ;

  14759 23 001435   040140 100400                    MLR     fill='040'O
        23 001436   000003 000005 22                 ADSC9   3                        cn=0,n=5
        23 001437   000004 400012                    ADSC9   4,,PR0                   cn=2,n=*X2
        23 001440   000000 636012                    EAQ     0,X2
        23 001441   000022 772000                    QRL     18
        23 001442   000006 116007                    CMPQ    6,DL
        23 001443   001450 602000 23                 TNC     s:14766
        23 001444   777773 625012                    EAX5    -5,X2
        23 001445   040140 100400                    MLR     fill='040'O
        23 001446   000004 000003 21                 ADSC9   ALPHA_#                  cn=0,n=3
        23 001447   000005 600015                    ADSC9   5,,PR0                   cn=3,n=*X5

      194    14760
      195    14761                   %BUILD_BINARY_DESC (@DESC = DESC,
      196    14762                                       @LENGTH = %TYI_LENGTH);

  14766 23 001450   200006 450100                    STZ     DESC,,AUTO

  14767 23 001451   000004 236007                    LDQ     4,DL
        23 001452   200006 752101                    STCQ    DESC,'01'O,AUTO

      197    14770
      198    14771                   %NEW_TEMP   (@ST$              = SYM$,
      199    14772                                @TYPE             = %TYI, /* Default type */
      200    14773                                @DNT$             = NAME$,
      201    14774                                @DESCL            = DESC.DESCL) ;

  14778 23 001453   000002 236000 9                  LDQ     ST_+2
        23 001454   000013 036007                    ADLQ    11,DL
        23 001455   000003 116000 9                  CMPQ    ST_+3
        23 001456   001467 604000 23                 TMI     s:14780

  14779 23 001457   000004 236000 24                 LDQ     4
        23 001460   200010 756100                    STQ     DESC+2,,AUTO
PL6.E3A0      #001=Z8AT$CREATE_TEMPORARY File=Z8AT.:Z8A6TSI                      SAT 08/09/97 10:51 Page:60
        23 001461   200010 631500                    EPPR1   DESC+2,,AUTO
        23 001462   200011 451500                    STP1    DESC+3,,AUTO
        23 001463   200011 630500                    EPPR0   DESC+3,,AUTO
        23 001464   000000 631400 24                 EPPR1   0
        23 001465   000000 701000 xent               TSX1    Z8AR$RESERVER
        23 001466   000000 011000                    NOP     0

  14780 23 001467   000002 236000 9                  LDQ     ST_+2
        23 001470   000022 736000                    QLS     18
        23 001471   000001 036000 9                  ADLQ    ST_+1
        23 001472   200004 470500                    LDP0    @SYM$,,AUTO
        23 001473   000000 756100                    STQ     0,,PR0

  14781 23 001474   000013 236007                    LDQ     11,DL
        23 001475   000002 056000 9                  ASQ     ST_+2

  14784 23 001476   000000 471500                    LDP1    0,,PR0
        23 001477   000760 220003                    LDX0    496,DU
        23 001500   100000 740100                    STX0    0,,PR1

  14785 23 001501   000000 471500                    LDP1    0,,PR0
        23 001502   003000 236007                    LDQ     1536,DL
        23 001503   100000 552110                    STBQ    0,'10'O,PR1

  14786 23 001504   000000 471500                    LDP1    0,,PR0
        23 001505   000001 236007                    LDQ     1,DL
        23 001506   100000 552104                    STBQ    0,'04'O,PR1

  14787 23 001507   000000 471500                    LDP1    0,,PR0
        23 001510   000000 221003                    LDX1    0,DU
        23 001511   100001 741100                    STX1    1,,PR1

  14788 23 001512   000000 471500                    LDP1    0,,PR0
        23 001513   200006 722100                    LXL2    DESC,,AUTO
        23 001514   100001 442100                    SXL2    1,,PR1

  14789 23 001515   000000 471500                    LDP1    0,,PR0
PL6.E3A0      #001=Z8AT$CREATE_TEMPORARY File=Z8AT.:Z8A6TSI                      SAT 08/09/97 10:51 Page:61
        23 001516   000001 223003                    LDX3    1,DU
        23 001517   100002 743100                    STX3    2,,PR1

  14790 23 001520   000000 471500                    LDP1    0,,PR0
        23 001521   100002 441100                    SXL1    2,,PR1

  14791 23 001522   000000 471500                    LDP1    0,,PR0
        23 001523   100003 450100                    STZ     3,,PR1

  14792 23 001524   000000 471500                    LDP1    0,,PR0
        23 001525   100004 741100                    STX1    4,,PR1

  14793 23 001526   000000 471500                    LDP1    0,,PR0
        23 001527   100004 441100                    SXL1    4,,PR1

  14794 23 001530   000000 471500                    LDP1    0,,PR0
        23 001531   000002 236000 24                 LDQ     2
        23 001532   100005 756100                    STQ     5,,PR1

  14795 23 001533   000000 471500                    LDP1    0,,PR0
        23 001534   000000 236000 21                 LDQ     NAME$
        23 001535   100006 756100                    STQ     6,,PR1

  14796 23 001536   000000 471500                    LDP1    0,,PR0
        23 001537   000002 236000 24                 LDQ     2
        23 001540   100007 756100                    STQ     7,,PR1

  14797 23 001541   000000 471500                    LDP1    0,,PR0
        23 001542   100010 756100                    STQ     8,,PR1

  14798 23 001543   000000 471500                    LDP1    0,,PR0
        23 001544   100011 756100                    STQ     9,,PR1

  14805 23 001545   001552 710000 23                 TRA     s:14813

      202    14807
      203    14808    2            CASE (ELSE);
PL6.E3A0      #001=Z8AT$CREATE_TEMPORARY File=Z8AT.:Z8A6TSI                      SAT 08/09/97 10:51 Page:62

      204    14809    2              CALL Z8AE$ERROR (%E$UNEXPECTED_CASE);

  14809 23 001546   000014 630400 24                 EPPR0   12
        23 001547   000000 631400 24                 EPPR1   0
        23 001550   000000 701000 xent               TSX1    Z8AE$ERROR
        23 001551   000000 011000                    NOP     0

      205    14810
      206    14811    2          END; /* Case */

      207    14812
      208    14813    1          NAME$->DNT.ST$ = SYM$ ;

  14813 23 001552   200004 470500                    LDP0    @SYM$,,AUTO
        23 001553   000000 236100                    LDQ     0,,PR0
        23 001554   000000 471400 21                 LDP1    NAME$
        23 001555   100001 756100                    STQ     1,,PR1

      209    14814    1          RETURN ;

  14814 23 001556   000000 702200 xent               TSX2  ! X66_ARET

      210    14815
      211    14816        %EJECT;
PL6.E3A0      #001=Z8AT$CREATE_TEMPORARY File=Z8AT.:Z8A6TSI                      SAT 08/09/97 10:51 Page:63
      212    14817    1   Z8AT$CREATE_TEMP_WITH_BASE: ENTRY (SYM_ID, SYM$) ;

  14817 23 001557   000000 700200 xent  Z8AT$CREATE* TSX0  ! X66_AUTO_2
        23 001560   000014 000002                    ZERO    12,2

      213    14818
      214    14819    1          CALL Z8AT$CREATE_TEMPORARY (SYM_ID, SYM$) ;

  14819 23 001561   200003 630500                    EPPR0   @SYM_ID,,AUTO
        23 001562   000015 631400 24                 EPPR1   13
        23 001563   000000 701000 23                 TSX1    s:6
        23 001564   000000 011000                    NOP     0

      215    14820
      216    14821    1          CALL Z8AF$NEW_BASE (SYM$, ADDR(NIL), SYM$);

  14821 23 001565   000002 236000 24                 LDQ     2
        23 001566   200010 756100                    STQ     DESC+2,,AUTO
        23 001567   200004 236100                    LDQ     @SYM$,,AUTO
        23 001570   200013 756100                    STQ     DESC+5,,AUTO
        23 001571   200010 630500                    EPPR0   DESC+2,,AUTO
        23 001572   200012 450500                    STP0    DESC+4,,AUTO
        23 001573   200011 756100                    STQ     DESC+3,,AUTO
        23 001574   200011 630500                    EPPR0   DESC+3,,AUTO
        23 001575   000016 631400 24                 EPPR1   14
        23 001576   000000 701000 xent               TSX1    Z8AF$NEW_BASE
        23 001577   000000 011000                    NOP     0

      217    14822
      218    14823    1   END Z8AT$CREATE_TEMPORARY ;

  14823 23 001600   000000 702200 xent               TSX2  ! X66_ARET

PL6.E3A0      #001=Z8AT$CREATE_TEMPORARY File=Z8AT.:Z8A6TSI                      SAT 08/09/97 10:51 Page:64
--  Include file information  --

   Z8A_SRCH.:Z8A6TOU  cannot be made into a system file and is referenced.
   Z8A_ETT.:Z8A6TOU  cannot be made into a system file and is referenced.
   Z8A_TYPES.:Z8A6TOU  is referenced.
   Z8E_O1COM.:Z8A6TOU  cannot be made into a system file and is referenced.
   Z8A_LEX_SYMB.:Z8A6TOU  cannot be made into a system file and is referenced.
   Z8E_STACKS.:Z8A6TOU  cannot be made into a system file and is referenced.
   Z8A_LTS.:Z8A6TOU  cannot be made into a system file and is referenced.
   Z8A_ST.:Z8A6TOU  cannot be made into a system file and is referenced.
   Z8A_QLT.:Z8A6TOU  cannot be made into a system file and is referenced.
   Z8A_ERR_NUMS.:Z8A6TOU  is referenced.
   Z8A_COMCOM.:Z8A6TOU  cannot be made into a system file and is referenced.
   Z8A_DNT.:Z8A6TOU  cannot be made into a system file and is referenced.
   X8A_COM_MACS.:X8A6TOU  is referenced.
   Z8A_NAMES.:Z8A6TOU  is referenced.
   Z8A_SUPP_MAC.:Z8A6TOU  is referenced.
   Z8A_DEFC.:Z8A6TOU  cannot be made into a system file and is referenced.
      No diagnostics issued in procedure Z8AT$CREATE_TEMPORARY.
PL6.E3A0      #001=Z8AT$CREATE_TEMPORARY File=Z8AT.:Z8A6TSI                      SAT 08/09/97 10:51 Page:65

 **** Variables and constants ****

  ****  Section 000 LblCom ITERATION

  ****  Scalars and arrays  ****
OctLoc.c.b A Datatyp(siz) R M Lvl/name                 OctLoc.c.b A Datatyp(siz) R M Lvl/name

     0-0-0/w SBIN        r     1 ITERATION

  ****  Section 001 LblCom DNT$

  ****  Scalars and arrays  ****
OctLoc.c.b A Datatyp(siz) R M Lvl/name                 OctLoc.c.b A Datatyp(siz) R M Lvl/name

     0-0-0/w PTR         r     1 DNT$

  ****  Section 002 LblCom DNT_

  ****  Scalars and arrays  ****
OctLoc.c.b A Datatyp(siz) R M Lvl/name                 OctLoc.c.b A Datatyp(siz) R M Lvl/name

     0-0-0/w STRC(180)   r     1 DNT_

  ****  Section 003 LblCom DNT_BUCKET_NUMBER

  ****  Scalars and arrays  ****
OctLoc.c.b A Datatyp(siz) R M Lvl/name                 OctLoc.c.b A Datatyp(siz) R M Lvl/name

     0-0-0/w UBIN              1 DNT_BUCKET_NUMBER

  ****  Section 004 LblCom DNT_OF_1$

  ****  Scalars and arrays  ****
OctLoc.c.b A Datatyp(siz) R M Lvl/name                 OctLoc.c.b A Datatyp(siz) R M Lvl/name

     0-0-0/w PTR               1 DNT_OF_1$

PL6.E3A0      #001=Z8AT$CREATE_TEMPORARY File=Z8AT.:Z8A6TSI                      SAT 08/09/97 10:51 Page:66
  ****  Section 005 LblCom QLT$

  ****  Scalars and arrays  ****
OctLoc.c.b A Datatyp(siz) R M Lvl/name                 OctLoc.c.b A Datatyp(siz) R M Lvl/name

     0-0-0/w PTR         r     1 QLT$

  ****  Section 006 LblCom PREV_01_QLT$

  ****  Scalars and arrays  ****
OctLoc.c.b A Datatyp(siz) R M Lvl/name                 OctLoc.c.b A Datatyp(siz) R M Lvl/name

     0-0-0/w PTR               1 PREV_01_QLT$

  ****  Section 007 LblCom QLT_

  ****  Scalars and arrays  ****
OctLoc.c.b A Datatyp(siz) R M Lvl/name                 OctLoc.c.b A Datatyp(siz) R M Lvl/name

     0-0-0/w STRC(180)   r     1 QLT_

  ****  Section 008 LblCom ST$

  ****  Scalars and arrays  ****
OctLoc.c.b A Datatyp(siz) R M Lvl/name                 OctLoc.c.b A Datatyp(siz) R M Lvl/name

     0-0-0/w PTR         r     1 ST$

  ****  Section 009 LblCom ST_

  ****  Scalars and arrays  ****
OctLoc.c.b A Datatyp(siz) R M Lvl/name                 OctLoc.c.b A Datatyp(siz) R M Lvl/name

     0-0-0/w STRC(180)   r     1 ST_

  ****  Section 010 LblCom LTS$

PL6.E3A0      #001=Z8AT$CREATE_TEMPORARY File=Z8AT.:Z8A6TSI                      SAT 08/09/97 10:51 Page:67
  ****  Scalars and arrays  ****
OctLoc.c.b A Datatyp(siz) R M Lvl/name                 OctLoc.c.b A Datatyp(siz) R M Lvl/name

     0-0-0/w PTR               1 LONG_ITEM$                 0-0-0/w PTR         r     1 LTS$

  ****  Section 011 LblCom LTS_

  ****  Scalars and arrays  ****
OctLoc.c.b A Datatyp(siz) R M Lvl/name                 OctLoc.c.b A Datatyp(siz) R M Lvl/name

     0-0-0/w STRC(180)         1 LTS_

  ****  Section 012 LblCom LEX_SYMBOL

  ****  Scalars and arrays  ****
OctLoc.c.b A Datatyp(siz) R M Lvl/name                 OctLoc.c.b A Datatyp(siz) R M Lvl/name

     0-0-0/w STRC(3240)  r     1 LEX_SYMBOL                 0-0-0/w STRC(3240)        1 LEX_SYMBOL_WORDS

  ****  Section 013 LblCom CURRENT_LEX_SYMBOL$

  ****  Scalars and arrays  ****
OctLoc.c.b A Datatyp(siz) R M Lvl/name                 OctLoc.c.b A Datatyp(siz) R M Lvl/name

     0-0-0/w PTR         r     1 CURRENT_LEX_SYMBOL$

  ****  Section 014 LblCom TEMP_LEX_SYMBOL

  ****  Scalars and arrays  ****
OctLoc.c.b A Datatyp(siz) R M Lvl/name                 OctLoc.c.b A Datatyp(siz) R M Lvl/name

     0-0-0/w STRC(3240)        1 TEMP_LEX_SYMBOL

  ****  Section 015 LblCom TEMP_LEX_SYMBOL2

  ****  Scalars and arrays  ****
OctLoc.c.b A Datatyp(siz) R M Lvl/name                 OctLoc.c.b A Datatyp(siz) R M Lvl/name
PL6.E3A0      #001=Z8AT$CREATE_TEMPORARY File=Z8AT.:Z8A6TSI                      SAT 08/09/97 10:51 Page:68

     0-0-0/w STRC(3240)        1 TEMP_LEX_SYMBOL2

  ****  Section 016 LblCom ETT$

  ****  Scalars and arrays  ****
OctLoc.c.b A Datatyp(siz) R M Lvl/name                 OctLoc.c.b A Datatyp(siz) R M Lvl/name

     0-0-0/w PTR         r     1 ETT$

  ****  Section 017 LblCom HEAD_ETT$

  ****  Scalars and arrays  ****
OctLoc.c.b A Datatyp(siz) R M Lvl/name                 OctLoc.c.b A Datatyp(siz) R M Lvl/name

     0-0-0/w PTR               1 HEAD_ETT$

  ****  Section 018 LblCom ETT_BUCKETS

  ****  Scalars and arrays  ****
OctLoc.c.b A Datatyp(siz) R M Lvl/name                 OctLoc.c.b A Datatyp(siz) R M Lvl/name

     0-0-0/w PTR               1 ETT_BUCKETS(0:511)

  ****  Section 019 LblCom ETT_

  ****  Scalars and arrays  ****
OctLoc.c.b A Datatyp(siz) R M Lvl/name                 OctLoc.c.b A Datatyp(siz) R M Lvl/name

     0-0-0/w STRC(180)         1 ETT_

  ****  Section 020 LblCom SRCH

  ****  Scalars and arrays  ****
OctLoc.c.b A Datatyp(siz) R M Lvl/name                 OctLoc.c.b A Datatyp(siz) R M Lvl/name

     0-0-0/w STRC(108)         1 SRCH
PL6.E3A0      #001=Z8AT$CREATE_TEMPORARY File=Z8AT.:Z8A6TSI                      SAT 08/09/97 10:51 Page:69

  ****  Section 021  Data  Z8AT$CREATE_TEMPORARY

  ****  Scalars and arrays  ****
OctLoc.c.b A Datatyp(siz) R M Lvl/name                 OctLoc.c.b A Datatyp(siz) R M Lvl/name

     4-0-0/c CHAR(3)     r     1 ALPHA_#                    3-0-0/w SBIN        r     1 LAB_#
     0-0-0/w PTR         r     1 NAME$                      1-0-0/w SBIN        r     1 TEMP_#
     2-0-0/w SBIN        r     1 VAR_#

  ****  Auto variables  ****

  ****  Scalars and arrays  ****
OctLoc.c.b A Datatyp(siz) R M Lvl/name                 OctLoc.c.b A Datatyp(siz) R M Lvl/name

     4-0-0/w PTR         r     1 @SYM$                      3-0-0/w PTR         r     1 @SYM_ID
     6-0-0/w STRC        r     1 DESC                       5-0-0/w PTR         r     1 QUAL$
    *0-0-0/w PTR         r     1 SYM$                      *0-0-0/w SBIN        r     1 SYM_ID

  ****  SYMREF variables  ****

  ****  Scalars and arrays  ****
OctLoc.c.b A Datatyp(siz) R M Lvl/name                 OctLoc.c.b A Datatyp(siz) R M Lvl/name

     0-0-0/d STRC(13248) r     1 COMCOM
     0-0-0/w STRC(180)         1 HIER_STK(0:50)
     0-0-0/w SBIN              1 HIER_STK_PTR
     0-0-0/w UBIN              1 LTS_STEP(0:37)
     0-0-0/d STRC(11580) r     1 O1COM                      0-0-0/w STRC(144)         1 PAGE_FORMAT
     0-0-0/w STRC(153)         1 REP_STK(0:50)              0-0-0/w SBIN              1 REP_STK_PTR

  ****  BASED and DCB variables  ****

  ****  Scalars and arrays  ****
OctLoc.c.b A Datatyp(siz) R M Lvl/name                 OctLoc.c.b A Datatyp(siz) R M Lvl/name

     0-0-0/w STRC(288)         1 ADD_STMT                   0-0-0/w STRC(396)         1 ALPHABET
PL6.E3A0      #001=Z8AT$CREATE_TEMPORARY File=Z8AT.:Z8A6TSI                      SAT 08/09/97 10:51 Page:70
     0-0-0/w STRC(144)         1 ALTER_LTS                  0-0-0/w STRC(3672)        1 ALT_KEY
     0-0-0/w STRC(36864)       1 ARGLIST                    0-0-0/w STRC(396)         1 ARRAY
     0-0-0/w STRC(180)         1 ARRAY_PRESET_LTS           0-0-0/w ASTR(324)   r     1 BASED_LEX_SYMBOL
     0-0-0/w STRC(360)         1 BASED_LEX_SYMBOL_WORDS
     0-0-0/w STRC(288)         1 BASE_LTS                   0-0-0/w STRC(288)         1 BINARY_OP
     0-0-0/w STRC(396)         1 BLOCK                      0-0-0/w STRC(144)         1 BT
     0-0-0/w STRC(288)         1 CALL_STMT                  0-0-0/w STRC(396)         1 CD
     0-0-0/w STRC(288)         1 CD_LTS                     0-0-0/w CHAR(4096)        1 CHARS
     0-0-0/w STRC(396)         1 CLASS                      0-0-0/w STRC(288)         1 COMPUTE_STMT
     0-0-0/w STRC(396)         1 CONDITION                  0-0-0/w STRC(396)         1 CONST
     0-0-0/w STRC(72)          1 CONT                       0-0-0/w STRC(540)         1 CONTROL_NAME_LTS
     0-0-0/w STRC(1872)        1 COPY_FILE                  0-0-0/w STRC(396)         1 DB
     0-0-0/w STRC(396)         1 DCB_                       0-0-0/w STRC(288)         1 DEFERED_IDENTIFIER
     0-0-0/w STRC(252)         1 DEFERED_ID_TREE            0-0-0/w STRC(288)         1 DEFERED_QUAL_ID
     0-0-0/w STRC(288)         1 DEFERED_SUM_CLAUSE
     0-0-0/w STRC(288)         1 DEFERED_SUM_CLAUSE_LIST
     0-0-0/w STRC(288)         1 DELETE_STMT                0-0-0/w STRC(108)         1 DEPENDING_SIZE
     0-0-0/w STRC(5472)        1 DIMS                       0-0-0/w STRC(288)         1 DIVIDE_STMT
     0-0-0/w STRC(396)         1 DML_ITEM                   0-0-0/w STRC(216)         1 DML_REC
     0-0-0/w ASTR(180)   r     1 DNT                        0-0-0/w STRC(180)         1 ETT
     0-0-0/w STRC(73836)       1 EVALUATE                   0-0-0/w STRC(396)         1 FD
     0-0-0/w STRC(1692)        1 FILE_LTS                   0-0-0/w STRC(288)         1 ILS_LIST
     0-0-0/w STRC(108)         1 INDEXES                    0-0-0/w STRC(360)         1 INIT_LTS
     0-0-0/w STRC(288)         1 INSPECT_1_STMT             0-0-0/w STRC(288)         1 INSPECT_2_STMT
     0-0-0/w STRC(288)         1 INSPECT_4_STMT             0-0-0/w STRC(396)         1 INTDEF
     0-0-0/w STRC(180)         1 IO_RESTORE_CHAIN           0-0-0/w STRC(144)         1 KEY
     0-0-0/w STRC(396)         1 LABEL                      0-0-0/w STRC(288)         1 LA_ITEM
     0-0-0/w STRC(36864)       1 LCNST                      0-0-0/w STRC(72)          1 LONG
     0-0-0/w STRC              1 LTS                        0-0-0/w STRC(360)         1 LTSS
     0-0-0/w STRC(36936)       1 LTS_PTR_ARRAY              0-0-0/w STRC(504)         1 LX_CD_INPUT
     0-0-0/w STRC(324)         1 LX_CD_I_O                  0-0-0/w STRC(396)         1 LX_CD_OUTPUT
     0-0-0/w STRC(288)         1 LX_ETT_ITEM                0-0-0/w STRC(288)         1 LX_ITEM
     0-0-0/w STRC(288)         1 LX_LARGE                   0-0-0/w STRC(288)         1 LX_LIST
     0-0-0/w STRC(1224)        1 LX_REC_DECL                0-0-0/w STRC(864)         1 LX_REPORT_REC
     0-0-0/w STRC(288)         1 LX_TERMINAL                0-0-0/w STRC(396)         1 MNEMONIC
     0-0-0/w STRC(288)         1 MULTIPLY_STMT              0-0-0/w STRC(144)         1 NEL
     0-0-0/w STRC(216)         1 OPEN_LTS                   0-0-0/w STRC(36864)       1 PAGE
PL6.E3A0      #001=Z8AT$CREATE_TEMPORARY File=Z8AT.:Z8A6TSI                      SAT 08/09/97 10:51 Page:71
     0-0-0/w STRC(396)   r     1 PARA                       0-0-0/w STRC(144)         1 PRIME
     0-0-0/w STRC(396)   r     1 PROC_                      0-0-0/w STRC(396)         1 PROC_DEF
     0-0-0/w STRC(900)   r     1 PROC_SUPP                  0-0-0/w STRC(216)   r     1 QLT
     0-0-0/w STRC(396)         1 RD                         0-0-0/w STRC(288)         1 READ_STMT
     0-0-0/w STRC(216)         1 REF                        0-0-0/w STRC(108)         1 RENAMES
     0-0-0/w STRC(720)         1 REPORT_01_LTS              0-0-0/w STRC(432)         1 REPORT_ELEM_LTS
     0-0-0/w STRC(252)         1 REPORT_GRP_LTS             0-0-0/w STRC(1332)        1 REPORT_LTS
     0-0-0/w STRC(288)         1 REWRITE_STMT               0-0-0/w STRC(144)         1 RVA_LTS
     0-0-0/w STRC(396)   r     1 SCALAR                     0-0-0/w STRC(396)         1 SD
     0-0-0/w STRC(396)         1 SECTION                    0-0-0/w STRC(396)         1 SEGMENT
     0-0-0/w STRC(360)         1 SEGMENT_LTS                0-0-0/w STRC(396)   r     1 ST
     0-0-0/w STRC(288)         1 START_STMT                 0-0-0/w STRC(252)         1 STRING_STMT
     0-0-0/w STRC(288)         1 SUBTRACT_STMT              0-0-0/w STRC(252)         1 SUM_LTS
     0-0-0/w STRC(396)   r     1 SWITCH                     0-0-0/w STRC(396)         1 SYMBOLIC_CHAR
     0-0-0/w STRC(396)         1 SYMDEF_                    0-0-0/w STRC(396)         1 SYMREF_
     0-0-0/w STRC(396)   r     1 TEMP                       0-0-0/w STRC(288)         1 UNARY_OP
     0-0-0/w STRC(288)         1 UNSTRING_STMT              0-0-0/d STRC(612)         1 USE
     0-0-0/w STRC(252)         1 USE_SUPP                   0-0-0/w STRC(396)         1 VARIABLE
     0-0-0/w STRC(288)         1 WRITE_STMT


   Procedure Z8AT$CREATE_TEMPORARY requires 897 words for executable code.
   Procedure Z8AT$CREATE_TEMPORARY requires 12 words of local(AUTO) storage.

    No errors detected in file Z8AT.:Z8A6TSI    .
