VERSION A06

PL6.E3A0      #001=Z8AU$LENGTH_ETT File=Z8AU.:Z8A6TSI                            SAT 08/09/97 10:52 Page:1
        1        1        /*T***********************************************************/
        2        2        /*T*                                                         */
        3        3        /*T* Copyright (c) Bull HN Information Systems Inc., 1997    */
        4        4        /*T*                                                         */
        5        5        /*T***********************************************************/
        6        6        Z8AU$LENGTH_ETT: PROC (IN$, OUT$);
        7        7
        8        8        %EQU PHASE = 0; /* Exec module - phase */
        9        9
       10       10        %INCLUDE Z8A_DEFC;
       11       78        %INCLUDE Z8A_SUPP_MAC;
       12     2478        %INCLUDE Z8E_STACKS;
       13     4744        %INCLUDE Z8A_COMCOM;
       14     5394        %INCLUDE Z8A_MKCN;
       15     5411        %INCLUDE Z8A_TYPES;
       16     5585        %INCLUDE Z8A_ST;
       17     9244        %INCLUDE Z8A_ETT;
       18     9545        %INCLUDE Z8A_LTS;
       19    11622
       20    11623    1   DCL Z8AC$MAKE_CONST    ENTRY(1);
       21    11624    1   DCL Z8AF$FORME         ENTRY(4);
       22    11625    1   DCL Z8AU$TYPE_DESCRIPTOR ENTRY(2);
       23    11626
       24    11627    1   DCL OUT$               PTR;
       25    11628    1   DCL IN$                PTR;
       26    11629
       27    11630    1   DCL ST$$               PTR;
       28    11631    1   DCL LEN                UBIN WORD;
       29    11632    1   DCL TWO_ETT$           PTR;
       30    11633    1   DCL NEW_LEN$           PTR;
       31    11634
       32    11635    1   DCL 1 TYPE_DESC        ALIGNED,
       33    11636             %TYPE_DESC;
       34    11670
       35    11671           /* Fish to ST item or FISS or SIZ */
       36    11672
       37    11673    1      OUT$ = IN$;
PL6.E3A0      #001=Z8AU$LENGTH_ETT File=Z8AU.:Z8A6TSI                            SAT 08/09/97 10:52 Page:2
       38    11674
       39    11675    1      CALL Z8AU$TYPE_DESCRIPTOR (IN$, TYPE_DESC);
       40    11676
       41    11677    1      IF TYPE_DESC.SIZ$ = ADDR(NIL) THEN
       42    11678    2        DO;
       43    11679    2          IF TYPE_DESC.TYPE = %TYA OR TYPE_DESC.TYPE = %TYN THEN
       44    11680    2            MKCN.CON = TYPE_DESC.DESC.ADSC.N;
       45    11681    2          ELSE
       46    11682    2            MKCN.CON = TYPE_DESC.DESC.NDSC.N;
       47    11683
       48    11684    2          CALL Z8AC$MAKE_CONST (OUT$);
       49    11685    2        END;
       50    11686    1      ELSE
       51    11687    1        OUT$ = TYPE_DESC.SIZ$;
       52    11688
       53    11689    1      RETURN;
       54    11690
       55    11691        %EJECT;
PL6.E3A0      #001=Z8AU$LENGTH_ETT File=Z8AU.:Z8A6TSI                            SAT 08/09/97 10:52 Page:3
       56    11692    1   Z8AU$LENGTH:ENTRY(IN$, OUT$);
       57    11693
       58    11694             %INIT_LX_ETT_ITEM( @POINTER   = OUT$ ,
       59    11695                                @TYPE      = %TYI );
       60    11717
       61    11718    1        CALL Z8AU$LENGTH_ETT(IN$, OUT$ -> LX_ETT_ITEM.ETT$);
       62    11719
       63    11720    1        RETURN;
       64    11721
       65    11722
       66    11723    1   Z8AU$GET_CHAR_LENGTH: ENTRY(IN$, OUT$);
       67    11724
       68    11725
       69    11726    1        CALL Z8AU$LENGTH_ETT(IN$ -> LX_ETT_ITEM.ETT$,
       70    11727    1                             OUT$);
       71    11728
       72    11729    1        IF IN$ -> LX_ETT_ITEM.TYPE ~= %TYD THEN
       73    11730    1          RETURN;    /* Length is already in bytes */
       74    11731
       75    11732             %FISH (TRIAD = IN$ -> LX_ETT_ITEM.ETT$,
       76    11733                    RTN   = ST$$);
       77    11741
       78    11742    1        IF NOT ST$$ -> ST.NDSC.TN THEN
       79    11743    1          RETURN;    /* Length is already in bytes */
       80    11744
       81    11745               /* it is the length of a packed decimal, unit in half bytes */
       82    11746
       83    11747    1        IF OUT$ -> ETT.ID = %TRIAD THEN
       84    11748    2          DO;
       85    11749    2            LEN = OUT$ -> ETT.LOP -> CONST.CONSTI.WORD1;
       86    11750    2            MKCN.CON = (LEN + 1)/2;  /* makes half byte length to */
       87    11751                                          /* byte length               */
       88    11752    2            CALL Z8AC$MAKE_CONST(OUT$);
       89    11753
       90    11754    2            RETURN;
       91    11755    2          END;
       92    11756
PL6.E3A0      #001=Z8AU$LENGTH_ETT File=Z8AU.:Z8A6TSI                            SAT 08/09/97 10:52 Page:4
       93    11757               /* Length is not a constant, create a new triad with    */
       94    11758               /* ADI and DVI on top of it, result triad would be      */
       95    11759               /* like                  DVI
       96    11760                                       /   \
       97    11761                                    ADI     2
       98    11762                                   /   \
       99    11763                                SIZ     1
      100    11764                            or REFMOD
      101    11765               */
      102    11766
      103    11767    1        CALL Z8AF$FORME(%ADI, OUT$, COMCOM.VALUE_1, NEW_LEN$);
      104    11768
      105    11769    1        MKCN.CON = 2;
      106    11770    1        CALL Z8AC$MAKE_CONST (TWO_ETT$);
      107    11771
      108    11772    1        CALL Z8AF$FORME (%DVI, NEW_LEN$, TWO_ETT$, OUT$);
      109    11773
      110    11774    1      RETURN;
      111    11775    1    END Z8AU$LENGTH_ETT;
      112    11776        %EOD;

PL6.E3A0      #001=Z8AU$LENGTH_ETT File=Z8AU.:Z8A6TSI                            SAT 08/09/97 10:52 Page:5
--  Include file information  --

   Z8A_LTS.:Z8A6TOU  cannot be made into a system file and is referenced.
   Z8A_ETT.:Z8A6TOU  cannot be made into a system file and is referenced.
   Z8A_ST.:Z8A6TOU  cannot be made into a system file and is referenced.
   Z8A_TYPES.:Z8A6TOU  is referenced.
   Z8A_MKCN.:Z8A6TOU  cannot be made into a system file and is referenced.
   Z8A_COMCOM.:Z8A6TOU  cannot be made into a system file and is referenced.
   Z8A_LEX_SYMB.:Z8A6TOU  cannot be made into a system file and is referenced.
   Z8E_STACKS.:Z8A6TOU  cannot be made into a system file and is referenced.
   X8A_COM_MACS.:X8A6TOU  is referenced.
   Z8A_NAMES.:Z8A6TOU  is referenced.
   Z8A_SUPP_MAC.:Z8A6TOU  is referenced.
   Z8A_DEFC.:Z8A6TOU  cannot be made into a system file and is referenced.
      No diagnostics issued in procedure Z8AU$LENGTH_ETT.

   Procedure Z8AU$LENGTH_ETT requires 157 words for executable code.
   Procedure Z8AU$LENGTH_ETT requires 18 words of local(AUTO) storage.

PL6.E3A0      #001=Z8AU$LENGTH_ETT File=Z8AU.:Z8A6TSI                            SAT 08/09/97 10:52 Page:6

 Object Unit name= Z8AU$LENGTH_ETT                            File name= Z8AU.:Z8A6TOU
 UTS= AUG 09 '97 10:52:07.04 SAT                              Compiler= PL-6/E31         Sev=      00
 SharedLib= :SHARED_SYSTEM                                    Alt SharedLib=


    ****  Control sections  ****

 Sect   Type Bound  Init  Size OctSiz  Section name(segment info)
    0  LblCom even  none     1      1  ITERATION
    1  LblCom even  none    90    132  LEX_SYMBOL
    2  LblCom even  none     1      1  CURRENT_LEX_SYMBOL$
    3  LblCom even  none    90    132  TEMP_LEX_SYMBOL
    4  LblCom even  none    90    132  TEMP_LEX_SYMBOL2
    5  LblCom even  none     2      2  MKCN
    6  LblCom even  none     1      1  ST$
    7  LblCom even  none     5      5  ST_
    8  LblCom even  none     1      1  ETT$
    9  LblCom even  none     1      1  HEAD_ETT$
   10  LblCom even  none   512   1000  ETT_BUCKETS
   11  LblCom even  none     5      5  ETT_
   12  LblCom even  none     1      1  LTS$
   13  LblCom even  none     5      5  LTS_
   14   Proc  even  none   157    235  Z8AU$LENGTH_ETT
   15  RoData even  none     9     11  Z8AU$LENGTH_ETT

    ****  Entry defs  ****

                              Check   Calling
                             calling  sequence
  Sect OctLoc Primary Altret sequence   type   Parms  Name
    14      0   yes            yes      Std        2  Z8AU$LENGTH_ETT
    14     45                  yes      Std        2  Z8AU$LENGTH
    14    111                  yes      Std        2  Z8AU$GET_CHAR_LENGTH
PL6.E3A0      #001=Z8AU$LENGTH_ETT File=Z8AU.:Z8A6TSI                            SAT 08/09/97 10:52 Page:7

  ****  Entry refs  ****

         Check        Calling
        calling       sequence
Altret sequence SRef   type   Args  Name
         yes           Std       2 Z8AU$TYPE_DESCRIPTOR
         yes           Std       1 Z8AC$MAKE_CONST
         yes           Std       4 Z8AF$FORME
                       nStd      0 X66_AUTO_2
                       nStd      0 X66_ARET

  ****  Data refs  ****

  Flags:  r = read only, s = secondary
Flgs Name                             Flgs Name                             Flgs Name
     COMCOM                           r    LTS_STEP

  ****  Segment refs  ****

  Flags:  r = read only, s = secondary
Flgs Name                             Flgs Name                             Flgs Name
     ISSID                                 NULLSID
PL6.E3A0      #001=Z8AU$LENGTH_ETT File=Z8AU.:Z8A6TSI                            SAT 08/09/97 10:52 Page:8


        1        1        /*T***********************************************************/
        2        2        /*T*                                                         */
        3        3        /*T* Copyright (c) Bull HN Information Systems Inc., 1997    */
        4        4        /*T*                                                         */
        5        5        /*T***********************************************************/
        6        6        Z8AU$LENGTH_ETT: PROC (IN$, OUT$);

      6 14 000000   000000 700200 xent  Z8AU$LENGTH* TSX0  ! X66_AUTO_2
        14 000001   000022 000002                    ZERO    18,2

        7        7
        8        8        %EQU PHASE = 0; /* Exec module - phase */
        9        9
       10       10        %INCLUDE Z8A_DEFC;
       11       78        %INCLUDE Z8A_SUPP_MAC;
       12     2478        %INCLUDE Z8E_STACKS;
       13     4744        %INCLUDE Z8A_COMCOM;
       14     5394        %INCLUDE Z8A_MKCN;
       15     5411        %INCLUDE Z8A_TYPES;
       16     5585        %INCLUDE Z8A_ST;
       17     9244        %INCLUDE Z8A_ETT;
       18     9545        %INCLUDE Z8A_LTS;
       19    11622
       20    11623    1   DCL Z8AC$MAKE_CONST    ENTRY(1);
       21    11624    1   DCL Z8AF$FORME         ENTRY(4);
       22    11625    1   DCL Z8AU$TYPE_DESCRIPTOR ENTRY(2);
       23    11626
       24    11627    1   DCL OUT$               PTR;
       25    11628    1   DCL IN$                PTR;
       26    11629
       27    11630    1   DCL ST$$               PTR;
       28    11631    1   DCL LEN                UBIN WORD;
       29    11632    1   DCL TWO_ETT$           PTR;
       30    11633    1   DCL NEW_LEN$           PTR;
       31    11634
       32    11635    1   DCL 1 TYPE_DESC        ALIGNED,
PL6.E3A0      #001=Z8AU$LENGTH_ETT File=Z8AU.:Z8A6TSI                            SAT 08/09/97 10:52 Page:9
       33    11636             %TYPE_DESC;
       34    11670
       35    11671           /* Fish to ST item or FISS or SIZ */
       36    11672
       37    11673    1      OUT$ = IN$;

  11673 14 000002   200003 470500                    LDP0    @IN$,,AUTO
        14 000003   000000 236100                    LDQ     0,,PR0
        14 000004   200004 471500                    LDP1    @OUT$,,AUTO
        14 000005   100000 756100                    STQ     0,,PR1

       38    11674
       39    11675    1      CALL Z8AU$TYPE_DESCRIPTOR (IN$, TYPE_DESC);

  11675 14 000006   200011 633500                    EPPR3   TYPE_DESC,,AUTO
        14 000007   200017 453500                    STP3    TYPE_DESC+6,,AUTO
        14 000010   200003 236100                    LDQ     @IN$,,AUTO
        14 000011   200016 756100                    STQ     TYPE_DESC+5,,AUTO
        14 000012   200016 630500                    EPPR0   TYPE_DESC+5,,AUTO
        14 000013   000000 631400 15                 EPPR1   0
        14 000014   000000 701000 xent               TSX1    Z8AU$TYPE_DESCRIPTOR
        14 000015   000000 011000                    NOP     0

       40    11676
       41    11677    1      IF TYPE_DESC.SIZ$ = ADDR(NIL) THEN

  11677 14 000016   200013 236100                    LDQ     TYPE_DESC+2,,AUTO
        14 000017   000001 116000 15                 CMPQ    1
        14 000020   000042 601000 14                 TNZ     s:11687

       42    11678    2        DO;

       43    11679    2          IF TYPE_DESC.TYPE = %TYA OR TYPE_DESC.TYPE = %TYN THEN

  11679 14 000021   200011 235100                    LDA     TYPE_DESC,,AUTO
        14 000022   000010 115007                    CMPA    8,DL
        14 000023   000026 600000 14                 TZE     s:11680
PL6.E3A0      #001=Z8AU$LENGTH_ETT File=Z8AU.:Z8A6TSI                            SAT 08/09/97 10:52 Page:10
        14 000024   000016 115007                    CMPA    14,DL
        14 000025   000032 601000 14                 TNZ     s:11682

       44    11680    2            MKCN.CON = TYPE_DESC.DESC.ADSC.N;

  11680 14 000026   200012 236100                    LDQ     TYPE_DESC+1,,AUTO
        14 000027   007777 376007                    ANQ     4095,DL
        14 000030   000000 756000 5                  STQ     MKCN
        14 000031   000035 710000 14                 TRA     s:11684

       45    11681    2          ELSE
       46    11682    2            MKCN.CON = TYPE_DESC.DESC.NDSC.N;

  11682 14 000032   200012 236100                    LDQ     TYPE_DESC+1,,AUTO
        14 000033   000077 376007                    ANQ     63,DL
        14 000034   000000 756000 5                  STQ     MKCN

       47    11683
       48    11684    2          CALL Z8AC$MAKE_CONST (OUT$);

  11684 14 000035   200004 630500                    EPPR0   @OUT$,,AUTO
        14 000036   000002 631400 15                 EPPR1   2
        14 000037   000000 701000 xent               TSX1    Z8AC$MAKE_CONST
        14 000040   000000 011000                    NOP     0

       49    11685    2        END;

  11685 14 000041   000044 710000 14                 TRA     s:11689

       50    11686    1      ELSE
       51    11687    1        OUT$ = TYPE_DESC.SIZ$;

  11687 14 000042   200004 470500                    LDP0    @OUT$,,AUTO
        14 000043   000000 756100                    STQ     0,,PR0

       52    11688
       53    11689    1      RETURN;
PL6.E3A0      #001=Z8AU$LENGTH_ETT File=Z8AU.:Z8A6TSI                            SAT 08/09/97 10:52 Page:11

  11689 14 000044   000000 702200 xent               TSX2  ! X66_ARET

       54    11690
       55    11691        %EJECT;
PL6.E3A0      #001=Z8AU$LENGTH_ETT File=Z8AU.:Z8A6TSI                            SAT 08/09/97 10:52 Page:12
       56    11692    1   Z8AU$LENGTH:ENTRY(IN$, OUT$);

  11692 14 000045   000000 700200 xent  Z8AU$LENGTH  TSX0  ! X66_AUTO_2
        14 000046   000022 000002                    ZERO    18,2

       57    11693
       58    11694             %INIT_LX_ETT_ITEM( @POINTER   = OUT$ ,
       59    11695                                @TYPE      = %TYI );

  11697 14 000047   200004 470500                    LDP0    @OUT$,,AUTO
        14 000050   000000 471500                    LDP1    0,,PR0
        14 000051   000004 220003                    LDX0    4,DU
        14 000052   100000 740100                    STX0    0,,PR1

  11698 14 000053   000000 471500                    LDP1    0,,PR0
        14 000054   000000 221003                    LDX1    0,DU
        14 000055   100000 441100                    SXL1    0,,PR1

  11699 14 000056   000000 471500                    LDP1    0,,PR0
        14 000057   000001 235007                    LDA     1,DL
        14 000060   100004 755100                    STA     4,,PR1

  11700 14 000061   000000 471500                    LDP1    0,,PR0
        14 000062   000001 236000 15                 LDQ     1
        14 000063   100007 756100                    STQ     7,,PR1

  11701 14 000064   000000 471500                    LDP1    0,,PR0
        14 000065   100001 756100                    STQ     1,,PR1

  11702 14 000066   000000 471500                    LDP1    0,,PR0
        14 000067   000001 236000 15                 LDQ     1
        14 000070   100002 756100                    STQ     2,,PR1

  11704 14 000071   000000 471500                    LDP1    0,,PR0
        14 000072   000133 235000 xsym               LDA     COMCOM+91
        14 000073   100005 755100                    STA     5,,PR1

PL6.E3A0      #001=Z8AU$LENGTH_ETT File=Z8AU.:Z8A6TSI                            SAT 08/09/97 10:52 Page:13
  11705 14 000074   000000 471500                    LDP1    0,,PR0
        14 000075   000134 235000 xsym               LDA     COMCOM+92
        14 000076   100006 755100                    STA     6,,PR1

       60    11717
       61    11718    1        CALL Z8AU$LENGTH_ETT(IN$, OUT$ -> LX_ETT_ITEM.ETT$);

  11718 14 000077   000000 471500                    LDP1    0,,PR0
        14 000100   100001 633500                    EPPR3   1,,PR1
        14 000101   200017 453500                    STP3    TYPE_DESC+6,,AUTO
        14 000102   200003 236100                    LDQ     @IN$,,AUTO
        14 000103   200016 756100                    STQ     TYPE_DESC+5,,AUTO
        14 000104   200016 630500                    EPPR0   TYPE_DESC+5,,AUTO
        14 000105   000000 631400 15                 EPPR1   0
        14 000106   000000 701000 14                 TSX1    s:6
        14 000107   000000 011000                    NOP     0

       62    11719
       63    11720    1        RETURN;

  11720 14 000110   000000 702200 xent               TSX2  ! X66_ARET

       64    11721
       65    11722
       66    11723    1   Z8AU$GET_CHAR_LENGTH: ENTRY(IN$, OUT$);

  11723 14 000111   000000 700200 xent  Z8AU$GET_CH* TSX0  ! X66_AUTO_2
        14 000112   000022 000002                    ZERO    18,2

       67    11724
       68    11725
       69    11726    1        CALL Z8AU$LENGTH_ETT(IN$ -> LX_ETT_ITEM.ETT$,

  11726 14 000113   200003 470500                    LDP0    @IN$,,AUTO
        14 000114   000000 471500                    LDP1    0,,PR0
        14 000115   200004 236100                    LDQ     @OUT$,,AUTO
        14 000116   200017 756100                    STQ     TYPE_DESC+6,,AUTO
PL6.E3A0      #001=Z8AU$LENGTH_ETT File=Z8AU.:Z8A6TSI                            SAT 08/09/97 10:52 Page:14
        14 000117   100001 633500                    EPPR3   1,,PR1
        14 000120   200016 453500                    STP3    TYPE_DESC+5,,AUTO
        14 000121   200016 630500                    EPPR0   TYPE_DESC+5,,AUTO
        14 000122   000000 631400 15                 EPPR1   0
        14 000123   000000 701000 14                 TSX1    s:6
        14 000124   000000 011000                    NOP     0

       70    11727    1                             OUT$);
       71    11728
       72    11729    1        IF IN$ -> LX_ETT_ITEM.TYPE ~= %TYD THEN

  11729 14 000125   200003 470500                    LDP0    @IN$,,AUTO
        14 000126   000000 471500                    LDP1    0,,PR0
        14 000127   100004 235100                    LDA     4,,PR1
        14 000130   000132 600000 14                 TZE     s:11735

       73    11730    1          RETURN;    /* Length is already in bytes */

  11730 14 000131   000000 702200 xent               TSX2  ! X66_ARET

       74    11731
       75    11732             %FISH (TRIAD = IN$ -> LX_ETT_ITEM.ETT$,
       76    11733                    RTN   = ST$$);

  11735 14 000132   100001 236100                    LDQ     1,,PR1
        14 000133   200005 756100                    STQ     ST$$,,AUTO

  11736 14 000134   200005 473500                    LDP3    ST$$,,AUTO
        14 000135   300000 220100                    LDX0    0,,PR3
        14 000136   000751 100003                    CMPX0   489,DU
        14 000137   000147 603000 14                 TRC     s:11742

  11737 14 000140   200005 470500                    LDP0    ST$$,,AUTO
        14 000141   000001 236100                    LDQ     1,,PR0
        14 000142   200005 756100                    STQ     ST$$,,AUTO

  11738 14 000143   200005 470500                    LDP0    ST$$,,AUTO
PL6.E3A0      #001=Z8AU$LENGTH_ETT File=Z8AU.:Z8A6TSI                            SAT 08/09/97 10:52 Page:15
        14 000144   000000 220100                    LDX0    0,,PR0
        14 000145   000751 100003                    CMPX0   489,DU
        14 000146   000140 602000 14                 TNC     s:11737

       77    11741
       78    11742    1        IF NOT ST$$ -> ST.NDSC.TN THEN

  11742 14 000147   200005 470500                    LDP0    ST$$,,AUTO
        14 000150   000001 236100                    LDQ     1,,PR0
        14 000151   040000 316007                    CANQ    16384,DL
        14 000152   000154 601000 14                 TNZ     s:11747

       79    11743    1          RETURN;    /* Length is already in bytes */

  11743 14 000153   000000 702200 xent               TSX2  ! X66_ARET

       80    11744
       81    11745               /* it is the length of a packed decimal, unit in half bytes */
       82    11746
       83    11747    1        IF OUT$ -> ETT.ID = %TRIAD THEN

  11747 14 000154   200004 471500                    LDP1    @OUT$,,AUTO
        14 000155   100000 473500                    LDP3    0,,PR1
        14 000156   300000 220100                    LDX0    0,,PR3
        14 000157   000015 100003                    CMPX0   13,DU
        14 000160   000175 601000 14                 TNZ     s:11767

       84    11748    2          DO;

       85    11749    2            LEN = OUT$ -> ETT.LOP -> CONST.CONSTI.WORD1;

  11749 14 000161   300001 474500                    LDP4    1,,PR3
        14 000162   400010 235100                    LDA     8,,PR4
        14 000163   200006 755100                    STA     LEN,,AUTO

       86    11750    2            MKCN.CON = (LEN + 1)/2;  /* makes half byte length to */

PL6.E3A0      #001=Z8AU$LENGTH_ETT File=Z8AU.:Z8A6TSI                            SAT 08/09/97 10:52 Page:16
  11750 14 000164   200006 236100                    LDQ     LEN,,AUTO
        14 000165   000001 036007                    ADLQ    1,DL
        14 000166   000001 772000                    QRL     1
        14 000167   000000 756000 5                  STQ     MKCN

       87    11751                                          /* byte length               */
       88    11752    2            CALL Z8AC$MAKE_CONST(OUT$);

  11752 14 000170   200004 630500                    EPPR0   @OUT$,,AUTO
        14 000171   000002 631400 15                 EPPR1   2
        14 000172   000000 701000 xent               TSX1    Z8AC$MAKE_CONST
        14 000173   000000 011000                    NOP     0

       89    11753
       90    11754    2            RETURN;

  11754 14 000174   000000 702200 xent               TSX2  ! X66_ARET

       91    11755    2          END;
       92    11756
       93    11757               /* Length is not a constant, create a new triad with    */
       94    11758               /* ADI and DVI on top of it, result triad would be      */
       95    11759               /* like                  DVI
       96    11760                                       /   \
       97    11761                                    ADI     2
       98    11762                                   /   \
       99    11763                                SIZ     1
      100    11764                            or REFMOD
      101    11765               */
      102    11766
      103    11767    1        CALL Z8AF$FORME(%ADI, OUT$, COMCOM.VALUE_1, NEW_LEN$);

  11767 14 000175   200010 634500                    EPPR4   NEW_LEN$,,AUTO
        14 000176   200021 454500                    STP4    TYPE_DESC+8,,AUTO
        14 000177   000005 236000 15                 LDQ     5
        14 000200   200020 756100                    STQ     TYPE_DESC+7,,AUTO
        14 000201   200004 236100                    LDQ     @OUT$,,AUTO
PL6.E3A0      #001=Z8AU$LENGTH_ETT File=Z8AU.:Z8A6TSI                            SAT 08/09/97 10:52 Page:17
        14 000202   000006 235000 15                 LDA     6
        14 000203   200016 757100                    STAQ    TYPE_DESC+5,,AUTO
        14 000204   200016 630500                    EPPR0   TYPE_DESC+5,,AUTO
        14 000205   000003 631400 15                 EPPR1   3
        14 000206   000000 701000 xent               TSX1    Z8AF$FORME
        14 000207   000000 011000                    NOP     0

      104    11768
      105    11769    1        MKCN.CON = 2;

  11769 14 000210   000002 235007                    LDA     2,DL
        14 000211   000000 755000 5                  STA     MKCN

      106    11770    1        CALL Z8AC$MAKE_CONST (TWO_ETT$);

  11770 14 000212   200007 630500                    EPPR0   TWO_ETT$,,AUTO
        14 000213   200016 450500                    STP0    TYPE_DESC+5,,AUTO
        14 000214   200016 630500                    EPPR0   TYPE_DESC+5,,AUTO
        14 000215   000002 631400 15                 EPPR1   2
        14 000216   000000 701000 xent               TSX1    Z8AC$MAKE_CONST
        14 000217   000000 011000                    NOP     0

      107    11771
      108    11772    1        CALL Z8AF$FORME (%DVI, NEW_LEN$, TWO_ETT$, OUT$);

  11772 14 000220   200004 236100                    LDQ     @OUT$,,AUTO
        14 000221   200021 756100                    STQ     TYPE_DESC+8,,AUTO
        14 000222   200007 630500                    EPPR0   TWO_ETT$,,AUTO
        14 000223   200020 450500                    STP0    TYPE_DESC+7,,AUTO
        14 000224   200010 631500                    EPPR1   NEW_LEN$,,AUTO
        14 000225   200017 451500                    STP1    TYPE_DESC+6,,AUTO
        14 000226   000010 236000 15                 LDQ     8
        14 000227   200016 756100                    STQ     TYPE_DESC+5,,AUTO
        14 000230   200016 630500                    EPPR0   TYPE_DESC+5,,AUTO
        14 000231   000003 631400 15                 EPPR1   3
        14 000232   000000 701000 xent               TSX1    Z8AF$FORME
        14 000233   000000 011000                    NOP     0
PL6.E3A0      #001=Z8AU$LENGTH_ETT File=Z8AU.:Z8A6TSI                            SAT 08/09/97 10:52 Page:18

      109    11773
      110    11774    1      RETURN;

  11774 14 000234   000000 702200 xent               TSX2  ! X66_ARET
      111    11775    1    END Z8AU$LENGTH_ETT;
      112    11776        %EOD;

PL6.E3A0      #001=Z8AU$LENGTH_ETT File=Z8AU.:Z8A6TSI                            SAT 08/09/97 10:52 Page:19
--  Include file information  --

   Z8A_LTS.:Z8A6TOU  cannot be made into a system file and is referenced.
   Z8A_ETT.:Z8A6TOU  cannot be made into a system file and is referenced.
   Z8A_ST.:Z8A6TOU  cannot be made into a system file and is referenced.
   Z8A_TYPES.:Z8A6TOU  is referenced.
   Z8A_MKCN.:Z8A6TOU  cannot be made into a system file and is referenced.
   Z8A_COMCOM.:Z8A6TOU  cannot be made into a system file and is referenced.
   Z8A_LEX_SYMB.:Z8A6TOU  cannot be made into a system file and is referenced.
   Z8E_STACKS.:Z8A6TOU  cannot be made into a system file and is referenced.
   X8A_COM_MACS.:X8A6TOU  is referenced.
   Z8A_NAMES.:Z8A6TOU  is referenced.
   Z8A_SUPP_MAC.:Z8A6TOU  is referenced.
   Z8A_DEFC.:Z8A6TOU  cannot be made into a system file and is referenced.
      No diagnostics issued in procedure Z8AU$LENGTH_ETT.
PL6.E3A0      #001=Z8AU$LENGTH_ETT File=Z8AU.:Z8A6TSI                            SAT 08/09/97 10:52 Page:20

 **** Variables and constants ****

  ****  Section 000 LblCom ITERATION

  ****  Scalars and arrays  ****
OctLoc.c.b A Datatyp(siz) R M Lvl/name                 OctLoc.c.b A Datatyp(siz) R M Lvl/name

     0-0-0/w SBIN              1 ITERATION

  ****  Section 001 LblCom LEX_SYMBOL

  ****  Scalars and arrays  ****
OctLoc.c.b A Datatyp(siz) R M Lvl/name                 OctLoc.c.b A Datatyp(siz) R M Lvl/name

     0-0-0/w STRC(3240)  r     1 LEX_SYMBOL                 0-0-0/w STRC(3240)        1 LEX_SYMBOL_WORDS

  ****  Section 002 LblCom CURRENT_LEX_SYMBOL$

  ****  Scalars and arrays  ****
OctLoc.c.b A Datatyp(siz) R M Lvl/name                 OctLoc.c.b A Datatyp(siz) R M Lvl/name

     0-0-0/w PTR         r     1 CURRENT_LEX_SYMBOL$

  ****  Section 003 LblCom TEMP_LEX_SYMBOL

  ****  Scalars and arrays  ****
OctLoc.c.b A Datatyp(siz) R M Lvl/name                 OctLoc.c.b A Datatyp(siz) R M Lvl/name

     0-0-0/w STRC(3240)        1 TEMP_LEX_SYMBOL

  ****  Section 004 LblCom TEMP_LEX_SYMBOL2

  ****  Scalars and arrays  ****
OctLoc.c.b A Datatyp(siz) R M Lvl/name                 OctLoc.c.b A Datatyp(siz) R M Lvl/name

     0-0-0/w STRC(3240)        1 TEMP_LEX_SYMBOL2

PL6.E3A0      #001=Z8AU$LENGTH_ETT File=Z8AU.:Z8A6TSI                            SAT 08/09/97 10:52 Page:21
  ****  Section 005 LblCom MKCN

  ****  Scalars and arrays  ****
OctLoc.c.b A Datatyp(siz) R M Lvl/name                 OctLoc.c.b A Datatyp(siz) R M Lvl/name

     0-0-0/w STRC(72)    r     1 MKCN

  ****  Section 006 LblCom ST$

  ****  Scalars and arrays  ****
OctLoc.c.b A Datatyp(siz) R M Lvl/name                 OctLoc.c.b A Datatyp(siz) R M Lvl/name

     0-0-0/w PTR         r     1 ST$

  ****  Section 007 LblCom ST_

  ****  Scalars and arrays  ****
OctLoc.c.b A Datatyp(siz) R M Lvl/name                 OctLoc.c.b A Datatyp(siz) R M Lvl/name

     0-0-0/w STRC(180)         1 ST_

  ****  Section 008 LblCom ETT$

  ****  Scalars and arrays  ****
OctLoc.c.b A Datatyp(siz) R M Lvl/name                 OctLoc.c.b A Datatyp(siz) R M Lvl/name

     0-0-0/w PTR         r     1 ETT$

  ****  Section 009 LblCom HEAD_ETT$

  ****  Scalars and arrays  ****
OctLoc.c.b A Datatyp(siz) R M Lvl/name                 OctLoc.c.b A Datatyp(siz) R M Lvl/name

     0-0-0/w PTR               1 HEAD_ETT$

  ****  Section 010 LblCom ETT_BUCKETS

PL6.E3A0      #001=Z8AU$LENGTH_ETT File=Z8AU.:Z8A6TSI                            SAT 08/09/97 10:52 Page:22
  ****  Scalars and arrays  ****
OctLoc.c.b A Datatyp(siz) R M Lvl/name                 OctLoc.c.b A Datatyp(siz) R M Lvl/name

     0-0-0/w PTR               1 ETT_BUCKETS(0:511)

  ****  Section 011 LblCom ETT_

  ****  Scalars and arrays  ****
OctLoc.c.b A Datatyp(siz) R M Lvl/name                 OctLoc.c.b A Datatyp(siz) R M Lvl/name

     0-0-0/w STRC(180)         1 ETT_

  ****  Section 012 LblCom LTS$

  ****  Scalars and arrays  ****
OctLoc.c.b A Datatyp(siz) R M Lvl/name                 OctLoc.c.b A Datatyp(siz) R M Lvl/name

     0-0-0/w PTR               1 LONG_ITEM$                 0-0-0/w PTR         r     1 LTS$

  ****  Section 013 LblCom LTS_

  ****  Scalars and arrays  ****
OctLoc.c.b A Datatyp(siz) R M Lvl/name                 OctLoc.c.b A Datatyp(siz) R M Lvl/name

     0-0-0/w STRC(180)         1 LTS_

  ****  Auto variables  ****

  ****  Scalars and arrays  ****
OctLoc.c.b A Datatyp(siz) R M Lvl/name                 OctLoc.c.b A Datatyp(siz) R M Lvl/name

     3-0-0/w PTR         r     1 @IN$                       4-0-0/w PTR         r     1 @OUT$
    *0-0-0/w PTR         r     1 IN$                        6-0-0/w UBIN        r     1 LEN
    10-0-0/w PTR         r     1 NEW_LEN$                  *0-0-0/w PTR         r     1 OUT$
     5-0-0/w PTR         r     1 ST$$                       7-0-0/w PTR         r     1 TWO_ETT$
    11-0-0/w STRC(144)   r     1 TYPE_DESC

PL6.E3A0      #001=Z8AU$LENGTH_ETT File=Z8AU.:Z8A6TSI                            SAT 08/09/97 10:52 Page:23
  ****  SYMREF variables  ****

  ****  Scalars and arrays  ****
OctLoc.c.b A Datatyp(siz) R M Lvl/name                 OctLoc.c.b A Datatyp(siz) R M Lvl/name

     0-0-0/d STRC(13248) r     1 COMCOM
     0-0-0/w UBIN              1 LTS_STEP(0:37)

  ****  BASED and DCB variables  ****

  ****  Scalars and arrays  ****
OctLoc.c.b A Datatyp(siz) R M Lvl/name                 OctLoc.c.b A Datatyp(siz) R M Lvl/name

     0-0-0/w STRC(288)         1 ADD_STMT                   0-0-0/w STRC(396)         1 ALPHABET
     0-0-0/w STRC(144)         1 ALTER_LTS                  0-0-0/w STRC(3672)        1 ALT_KEY
     0-0-0/w STRC(36864)       1 ARGLIST                    0-0-0/w STRC(396)         1 ARRAY
     0-0-0/w STRC(180)         1 ARRAY_PRESET_LTS           0-0-0/w ASTR(324)   r     1 BASED_LEX_SYMBOL
     0-0-0/w STRC(360)         1 BASED_LEX_SYMBOL_WORDS
     0-0-0/w STRC(288)         1 BASE_LTS                   0-0-0/w STRC(288)         1 BINARY_OP
     0-0-0/w STRC(396)         1 BLOCK                      0-0-0/w STRC(144)         1 BT
     0-0-0/w STRC(288)         1 CALL_STMT                  0-0-0/w STRC(396)         1 CD
     0-0-0/w STRC(288)         1 CD_LTS                     0-0-0/w CHAR(4096)        1 CHARS
     0-0-0/w STRC(396)         1 CLASS                      0-0-0/w STRC(288)         1 COMPUTE_STMT
     0-0-0/w STRC(396)         1 CONDITION                  0-0-0/w STRC(396)   r     1 CONST
     0-0-0/w STRC(72)          1 CONT                       0-0-0/w STRC(540)         1 CONTROL_NAME_LTS
     0-0-0/w STRC(1872)        1 COPY_FILE                  0-0-0/w STRC(396)         1 DB
     0-0-0/w STRC(396)         1 DCB_                       0-0-0/w STRC(288)         1 DEFERED_IDENTIFIER
     0-0-0/w STRC(252)         1 DEFERED_ID_TREE            0-0-0/w STRC(288)         1 DEFERED_QUAL_ID
     0-0-0/w STRC(288)         1 DEFERED_SUM_CLAUSE
     0-0-0/w STRC(288)         1 DEFERED_SUM_CLAUSE_LIST
     0-0-0/w STRC(288)         1 DELETE_STMT                0-0-0/w STRC(108)         1 DEPENDING_SIZE
     0-0-0/w STRC(5472)        1 DIMS                       0-0-0/w STRC(288)         1 DIVIDE_STMT
     0-0-0/w STRC(396)         1 DML_ITEM                   0-0-0/w STRC(216)         1 DML_REC
     0-0-0/w STRC(180)   r     1 ETT                        0-0-0/w STRC(73836)       1 EVALUATE
     0-0-0/w STRC(396)         1 FD                         0-0-0/w STRC(1692)        1 FILE_LTS
     0-0-0/w STRC(288)         1 ILS_LIST                   0-0-0/w STRC(108)         1 INDEXES
     0-0-0/w STRC(360)         1 INIT_LTS                   0-0-0/w STRC(288)         1 INSPECT_1_STMT
PL6.E3A0      #001=Z8AU$LENGTH_ETT File=Z8AU.:Z8A6TSI                            SAT 08/09/97 10:52 Page:24
     0-0-0/w STRC(288)         1 INSPECT_2_STMT             0-0-0/w STRC(288)         1 INSPECT_4_STMT
     0-0-0/w STRC(396)         1 INTDEF                     0-0-0/w STRC(180)         1 IO_RESTORE_CHAIN
     0-0-0/w STRC(144)         1 KEY                        0-0-0/w STRC(396)         1 LABEL
     0-0-0/w STRC(288)         1 LA_ITEM                    0-0-0/w STRC(36864)       1 LCNST
     0-0-0/w STRC(72)          1 LONG                       0-0-0/w STRC              1 LTS
     0-0-0/w STRC(360)         1 LTSS                       0-0-0/w STRC(36936)       1 LTS_PTR_ARRAY
     0-0-0/w STRC(504)         1 LX_CD_INPUT                0-0-0/w STRC(324)         1 LX_CD_I_O
     0-0-0/w STRC(396)         1 LX_CD_OUTPUT               0-0-0/w STRC(288)   r     1 LX_ETT_ITEM
     0-0-0/w STRC(288)         1 LX_ITEM                    0-0-0/w STRC(288)         1 LX_LARGE
     0-0-0/w STRC(288)         1 LX_LIST                    0-0-0/w STRC(1224)        1 LX_REC_DECL
     0-0-0/w STRC(864)         1 LX_REPORT_REC              0-0-0/w STRC(288)         1 LX_TERMINAL
     0-0-0/w STRC(396)         1 MNEMONIC                   0-0-0/w STRC(288)         1 MULTIPLY_STMT
     0-0-0/w STRC(144)         1 NEL                        0-0-0/w STRC(216)         1 OPEN_LTS
     0-0-0/w STRC(36864)       1 PAGE                       0-0-0/w STRC(396)         1 PARA
     0-0-0/w STRC(144)         1 PRIME                      0-0-0/w STRC(396)         1 PROC_
     0-0-0/w STRC(396)         1 PROC_DEF                   0-0-0/w STRC(900)         1 PROC_SUPP
     0-0-0/w STRC(396)         1 RD                         0-0-0/w STRC(288)         1 READ_STMT
     0-0-0/w STRC(216)         1 REF                        0-0-0/w STRC(108)         1 RENAMES
     0-0-0/w STRC(720)         1 REPORT_01_LTS              0-0-0/w STRC(432)         1 REPORT_ELEM_LTS
     0-0-0/w STRC(252)         1 REPORT_GRP_LTS             0-0-0/w STRC(1332)        1 REPORT_LTS
     0-0-0/w STRC(288)         1 REWRITE_STMT               0-0-0/w STRC(144)         1 RVA_LTS
     0-0-0/w STRC(396)         1 SCALAR                     0-0-0/w STRC(396)         1 SD
     0-0-0/w STRC(396)         1 SECTION                    0-0-0/w STRC(396)         1 SEGMENT
     0-0-0/w STRC(360)         1 SEGMENT_LTS                0-0-0/w STRC(396)   r     1 ST
     0-0-0/w STRC(288)         1 START_STMT                 0-0-0/w STRC(252)         1 STRING_STMT
     0-0-0/w STRC(288)         1 SUBTRACT_STMT              0-0-0/w STRC(252)         1 SUM_LTS
     0-0-0/w STRC(396)         1 SWITCH                     0-0-0/w STRC(396)         1 SYMBOLIC_CHAR
     0-0-0/w STRC(396)         1 SYMDEF_                    0-0-0/w STRC(396)         1 SYMREF_
     0-0-0/w STRC(396)         1 TEMP                       0-0-0/w STRC(288)         1 UNARY_OP
     0-0-0/w STRC(288)         1 UNSTRING_STMT              0-0-0/d STRC(612)         1 USE
     0-0-0/w STRC(252)         1 USE_SUPP                   0-0-0/w STRC(396)         1 VARIABLE
     0-0-0/w STRC(288)         1 WRITE_STMT


   Procedure Z8AU$LENGTH_ETT requires 157 words for executable code.
   Procedure Z8AU$LENGTH_ETT requires 18 words of local(AUTO) storage.

PL6.E3A0      #002=Z8AU$CREATE_NUM_DESC File=Z8AU.:Z8A6TSI                       SAT 08/09/97 10:55 Page:25
      113        1        /*T***********************************************************/
      114        2        /*T*                                                         */
      115        3        /*T* Copyright (c) Bull HN Information Systems Inc., 1997    */
      116        4        /*T*                                                         */
      117        5        /*T***********************************************************/
      118        6        Z8AU$CREATE_NUM_DESC : PROC (SYMBOL, LENGTH, NUM_DESC);
      119        7
      120        8        %EQU PHASE = 0; /* Exec */
      121        9
      122       10        %INCLUDE Z8A_DEFC;
      123       78        %INCLUDE Z8A_SUPP_MAC;
      124     2478        %INCLUDE Z8A_COMCOM;
      125     3128        %INCLUDE Z8A_DNT;
      126     3349        %INCLUDE Z8A_ERR_NUMS;
      127     4113
      128     4114        %INCLUDE Z8E_WINDOW;
      129     6184        %EQU Z8E_TABLES_DEF = '0'B;
      130     6185        %INCLUDE Z8E_TABLES;
      131     6738
      132     6739    1   DCL Z8AE$ERROR         ENTRY(12);
      133     6740
      134     6741    1   DCL SYMBOL             CHAR(LENGTH);
      135     6742    1   DCL LENGTH             SBIN WORD;
      136     6743
      137     6744        %DCL_NUM_DESC (@STRN = NUM_DESC);
      138     6753
      139     6754        /* Output data structure is:
      140     6755
      141     6756               DCL 1 NUM_DESC,
      142     6757                     2 DIGITS_LEFT             SBIN,
      143     6758                     2 DIGITS_RIGHT            SBIN,
      144     6759                     2 DIGITS_EXPONENT         SBIN,
      145     6760                     2 MANTISSA_SIGN_VALUE     SBIN,
      146     6761                     2 EXPONENT_SIGN_VALUE     SBIN,
      147     6762                     2 COMMA_PRESENT           BIT(1) ALIGNED;
      148     6763        */
      149     6764
PL6.E3A0      #002=Z8AU$CREATE_NUM_DESC File=Z8AU.:Z8A6TSI                       SAT 08/09/97 10:55 Page:26
      150     6765
      151     6766    1   DCL COL      SBIN;
      152     6767    1   DCL CLASS    SBIN;
      153     6768    1   DCL LAST_COL SBIN;
      154     6769
      155     6770        %MACRO SCAN_SEARCH(TABLE=);
      156     6771          CALL SEARCH(COL,
      157     6772                      CLASS,
      158     6773                      TABLE,
      159     6774                      SUBSTR(SYMBOL, 0, LENGTH),
      160     6775                      LAST_COL);
      161     6776        %MEND;
      162     6777
      163     6778
      164     6779        %MACRO CHECK_EOT;
      165     6780          DO;
      166     6781            IF COL < LENGTH THEN
      167     6782              LAST_COL = COL;
      168     6783            ELSE
      169     6784              RETURN;
      170     6785          END;
      171     6786        %MEND;
      172     6787
      173     6788
      174     6789        %MACRO ADV_COL;
      175     6790          DO;
      176     6791            COL = COL + 1;
      177     6792            %CHECK_EOT;
      178     6793            %SCAN_SEARCH(TABLE=ASCII_SEARCH_TABLE);
      179     6794          END;
      180     6795        %MEND;
      181     6796
      182     6797
      183     6798        /* Start of procedure body */
      184     6799    1   NUM_DESC.DIGITS_LEFT          = 0;
      185     6800    1   NUM_DESC.DIGITS_RIGHT         = 0;
      186     6801    1   NUM_DESC.DIGITS_EXPONENT      = 0;
PL6.E3A0      #002=Z8AU$CREATE_NUM_DESC File=Z8AU.:Z8A6TSI                       SAT 08/09/97 10:55 Page:27
      187     6802    1   NUM_DESC.MANTISSA_SIGN_VALUE  = %NO_SIGN_VALUE;
      188     6803    1   NUM_DESC.EXPONENT_SIGN_VALUE  = %NO_SIGN_VALUE;
      189     6804    1   NUM_DESC.COMMA_PRESENT = FALSE;
      190     6805
      191     6806    1   LAST_COL = 0;
      192     6807        %SCAN_SEARCH(TABLE=ASCII_SEARCH_TABLE);
      193     6814
      194     6815        /* Get sign */
      195     6816    2   DO SELECT(CLASS);
      196     6817
      197     6818    2     SELECT(%PLUS);
      198     6819    2       NUM_DESC.MANTISSA_SIGN_VALUE = %PLUS_SIGN_VALUE;
      199     6820            %ADV_COL;
      200     6840
      201     6841    2     SELECT(%MINUS);
      202     6842    2       NUM_DESC.MANTISSA_SIGN_VALUE = %MINUS_SIGN_VALUE;
      203     6843            %ADV_COL;
      204     6863
      205     6864    2   END;
      206     6865
      207     6866        /* Get leading digits */
      208     6867    1   IF CLASS = %DIGIT THEN
      209     6868    2     DO;
      210     6869            %SCAN_SEARCH(TABLE=DIGIT_SCAN_TABLE);
      211     6876    2       NUM_DESC.DIGITS_LEFT = COL - LAST_COL;
      212     6877            %CHECK_EOT;
      213     6885    2     END;
      214     6886
      215     6887        /* Check decimal point */
      216     6888    1   IF CLASS = %PERIOD OR CLASS = %COMMA THEN
      217     6889    2     DO;
      218     6890
      219     6891    2       IF CLASS = %COMMA THEN
      220     6892    2         NUM_DESC.COMMA_PRESENT = TRUE;
      221     6893
      222     6894            %ADV_COL;
      223     6914
PL6.E3A0      #002=Z8AU$CREATE_NUM_DESC File=Z8AU.:Z8A6TSI                       SAT 08/09/97 10:55 Page:28
      224     6915            /* Fractional digits */
      225     6916    2       IF CLASS = %DIGIT THEN
      226     6917    3         DO;
      227     6918                %SCAN_SEARCH(TABLE=DIGIT_SCAN_TABLE);
      228     6925    3           NUM_DESC.DIGITS_RIGHT = COL - LAST_COL;
      229     6926                %CHECK_EOT;
      230     6934    3         END;
      231     6935
      232     6936            /* Exponent */
      233     6937    2       IF CLASS = %LETTER_E THEN
      234     6938    3         DO;
      235     6939                %ADV_COL;
      236     6959
      237     6960                /* Sign on exponent */
      238     6961    4           DO SELECT (CLASS);
      239     6962
      240     6963    4             SELECT(%PLUS);
      241     6964    4               NUM_DESC.EXPONENT_SIGN_VALUE = %PLUS_SIGN_VALUE;
      242     6965                    %ADV_COL;
      243     6985
      244     6986    4             SELECT(%MINUS);
      245     6987    4               NUM_DESC.EXPONENT_SIGN_VALUE = %MINUS_SIGN_VALUE;
      246     6988                    %ADV_COL;
      247     7008
      248     7009    4           END;
      249     7010
      250     7011                /* Exponent digits */
      251     7012    3           IF CLASS = %DIGIT THEN
      252     7013    4             DO;
      253     7014                    %SCAN_SEARCH(TABLE=DIGIT_SCAN_TABLE);
      254     7021    4               NUM_DESC.DIGITS_EXPONENT = COL - LAST_COL;
      255     7022                    %CHECK_EOT;
      256     7030    4             END;
      257     7031
      258     7032    3         END;
      259     7033    2     END;
      260     7034
PL6.E3A0      #002=Z8AU$CREATE_NUM_DESC File=Z8AU.:Z8A6TSI                       SAT 08/09/97 10:55 Page:29
      261     7035        /* If we got here, there was an error in the NUMERIC_LITERAL */
      262     7036    1     CALL Z8AE$ERROR (%E$INVALID_COMPILER_LITERAL,
      263     7037    1                      COMCOM.CURRENT.LINE,
      264     7038    1                      COMCOM.CURRENT.COLUMN);
      265     7039
      266     7040    1   END Z8AU$CREATE_NUM_DESC;
      267     7041        %EOD;

PL6.E3A0      #002=Z8AU$CREATE_NUM_DESC File=Z8AU.:Z8A6TSI                       SAT 08/09/97 10:55 Page:30
--  Include file information  --

   Z8E_TABLES.:Z8A6TOU  cannot be made into a system file and is referenced.
   Z8E_WINDOW.:Z8A6TOU  is referenced.
   Z8A_ERR_NUMS.:Z8A6TOU  is referenced.
   Z8A_DNT.:Z8A6TOU  cannot be made into a system file and is referenced.
   Z8A_COMCOM.:Z8A6TOU  cannot be made into a system file and is referenced.
   X8A_COM_MACS.:X8A6TOU  is referenced.
   Z8A_NAMES.:Z8A6TOU  is referenced.
   Z8A_SUPP_MAC.:Z8A6TOU  is referenced.
   Z8A_DEFC.:Z8A6TOU  cannot be made into a system file and is referenced.
      No diagnostics issued in procedure Z8AU$CREATE_NUM_DESC.

   Procedure Z8AU$CREATE_NUM_DESC requires 286 words for executable code.
   Procedure Z8AU$CREATE_NUM_DESC requires 12 words of local(AUTO) storage.

PL6.E3A0      #002=Z8AU$CREATE_NUM_DESC File=Z8AU.:Z8A6TSI                       SAT 08/09/97 10:55 Page:31

 Object Unit name= Z8AU$CREATE_NUM_DESC                       File name= Z8AU.:Z8A6TOU
 UTS= AUG 09 '97 10:55:56.96 SAT                              Compiler= PL-6/E31         Sev=      00
 SharedLib= :SHARED_SYSTEM                                    Alt SharedLib=


    ****  Control sections  ****

 Sect   Type Bound  Init  Size OctSiz  Section name(segment info)
    0  LblCom even  none     1      1  ITERATION
    1  LblCom even  none     1      1  DNT$
    2  LblCom even  none     5      5  DNT_
    3  LblCom even  none     1      1  DNT_BUCKET_NUMBER
    4  LblCom even  none     1      1  DNT_OF_1$
    5   Proc  even  none   286    436  Z8AU$CREATE_NUM_DESC
    6  RoData even  none     5      5  Z8AU$CREATE_NUM_DESC

    ****  Entry defs  ****

                              Check   Calling
                             calling  sequence
  Sect OctLoc Primary Altret sequence   type   Parms  Name
     5      0   yes            yes      Std        3  Z8AU$CREATE_NUM_DESC

  ****  Entry refs  ****

         Check        Calling
        calling       sequence
Altret sequence SRef   type   Args  Name
         yes           Std      12 Z8AE$ERROR
                       nStd      0 X66_AUTO_3
                       nStd      0 X66_ARET
PL6.E3A0      #002=Z8AU$CREATE_NUM_DESC File=Z8AU.:Z8A6TSI                       SAT 08/09/97 10:55 Page:32

  ****  Data refs  ****

  Flags:  r = read only, s = secondary
Flgs Name                             Flgs Name                             Flgs Name
     COMCOM                           r    USERWORD_SCAN_TABLE              r    ANSI_USERWORD_SCAN_TABLE
r    ASCII_SEARCH_TABLE               r    BLANK_SCAN_TABLE                 r    DIGIT_SCAN_TABLE
r    LETTER_SEARCH_TABLE              r    DOUBLE_QUOTE_SEARCH_TABLE        r    SINGLE_QUOTE_SEARCH_TABLE
r    DBL_QUOTE_PSEUDO_SEARCH_TABLE    r    SNGL_QUOTE_PSEUDO_SEARCH_TABLE   r    SEPARATORS_TABLE
r    LOWER_TO_UPPER_CASE              r    CURRENCY_SIGN_CHARS

  ****  Segment refs  ****

  Flags:  r = read only, s = secondary
Flgs Name                             Flgs Name                             Flgs Name
     NULLSID                               ISSID
PL6.E3A0      #002=Z8AU$CREATE_NUM_DESC File=Z8AU.:Z8A6TSI                       SAT 08/09/97 10:55 Page:33


      113        1        /*T***********************************************************/
      114        2        /*T*                                                         */
      115        3        /*T* Copyright (c) Bull HN Information Systems Inc., 1997    */
      116        4        /*T*                                                         */
      117        5        /*T***********************************************************/
      118        6        Z8AU$CREATE_NUM_DESC : PROC (SYMBOL, LENGTH, NUM_DESC);

      6  5 000000   000000 700200 xent  Z8AU$CREATE* TSX0  ! X66_AUTO_3
         5 000001   000014 000003                    ZERO    12,3

      119        7
      120        8        %EQU PHASE = 0; /* Exec */
      121        9
      122       10        %INCLUDE Z8A_DEFC;
      123       78        %INCLUDE Z8A_SUPP_MAC;
      124     2478        %INCLUDE Z8A_COMCOM;
      125     3128        %INCLUDE Z8A_DNT;
      126     3349        %INCLUDE Z8A_ERR_NUMS;
      127     4113
      128     4114        %INCLUDE Z8E_WINDOW;
      129     6184        %EQU Z8E_TABLES_DEF = '0'B;
      130     6185        %INCLUDE Z8E_TABLES;
      131     6738
      132     6739    1   DCL Z8AE$ERROR         ENTRY(12);
      133     6740
      134     6741    1   DCL SYMBOL             CHAR(LENGTH);
      135     6742    1   DCL LENGTH             SBIN WORD;
      136     6743
      137     6744        %DCL_NUM_DESC (@STRN = NUM_DESC);
      138     6753
      139     6754        /* Output data structure is:
      140     6755
      141     6756               DCL 1 NUM_DESC,
      142     6757                     2 DIGITS_LEFT             SBIN,
      143     6758                     2 DIGITS_RIGHT            SBIN,
      144     6759                     2 DIGITS_EXPONENT         SBIN,
PL6.E3A0      #002=Z8AU$CREATE_NUM_DESC File=Z8AU.:Z8A6TSI                       SAT 08/09/97 10:55 Page:34
      145     6760                     2 MANTISSA_SIGN_VALUE     SBIN,
      146     6761                     2 EXPONENT_SIGN_VALUE     SBIN,
      147     6762                     2 COMMA_PRESENT           BIT(1) ALIGNED;
      148     6763        */
      149     6764
      150     6765
      151     6766    1   DCL COL      SBIN;
      152     6767    1   DCL CLASS    SBIN;
      153     6768    1   DCL LAST_COL SBIN;
      154     6769
      155     6770        %MACRO SCAN_SEARCH(TABLE=);
      156     6771          CALL SEARCH(COL,
      157     6772                      CLASS,
      158     6773                      TABLE,
      159     6774                      SUBSTR(SYMBOL, 0, LENGTH),
      160     6775                      LAST_COL);
      161     6776        %MEND;
      162     6777
      163     6778
      164     6779        %MACRO CHECK_EOT;
      165     6780          DO;
      166     6781            IF COL < LENGTH THEN
      167     6782              LAST_COL = COL;
      168     6783            ELSE
      169     6784              RETURN;
      170     6785          END;
      171     6786        %MEND;
      172     6787
      173     6788
      174     6789        %MACRO ADV_COL;
      175     6790          DO;
      176     6791            COL = COL + 1;
      177     6792            %CHECK_EOT;
      178     6793            %SCAN_SEARCH(TABLE=ASCII_SEARCH_TABLE);
      179     6794          END;
      180     6795        %MEND;
      181     6796
PL6.E3A0      #002=Z8AU$CREATE_NUM_DESC File=Z8AU.:Z8A6TSI                       SAT 08/09/97 10:55 Page:35
      182     6797
      183     6798        /* Start of procedure body */
      184     6799    1   NUM_DESC.DIGITS_LEFT          = 0;

   6799  5 000002   200005 470500                    LDP0    @NUM_DESC,,AUTO
         5 000003   000000 450100                    STZ     0,,PR0

      185     6800    1   NUM_DESC.DIGITS_RIGHT         = 0;

   6800  5 000004   000001 450100                    STZ     1,,PR0

      186     6801    1   NUM_DESC.DIGITS_EXPONENT      = 0;

   6801  5 000005   000002 450100                    STZ     2,,PR0

      187     6802    1   NUM_DESC.MANTISSA_SIGN_VALUE  = %NO_SIGN_VALUE;

   6802  5 000006   000003 450100                    STZ     3,,PR0

      188     6803    1   NUM_DESC.EXPONENT_SIGN_VALUE  = %NO_SIGN_VALUE;

   6803  5 000007   000004 450100                    STZ     4,,PR0

      189     6804    1   NUM_DESC.COMMA_PRESENT = FALSE;

   6804  5 000010   000005 450100                    STZ     5,,PR0

      190     6805
      191     6806    1   LAST_COL = 0;

   6806  5 000011   200010 450100                    STZ     LAST_COL,,AUTO

      192     6807        %SCAN_SEARCH(TABLE=ASCII_SEARCH_TABLE);

   6808  5 000012   200004 471500                    LDP1    @LENGTH,,AUTO
         5 000013   100000 720100                    LXL0    0,,PR1
         5 000014   000000 636010                    EAQ     0,X0
PL6.E3A0      #002=Z8AU$CREATE_NUM_DESC File=Z8AU.:Z8A6TSI                       SAT 08/09/97 10:55 Page:36
         5 000015   000022 772000                    QRL     18
         5 000016   200010 136100                    SBLQ    LAST_COL,,AUTO
         5 000017   200012 756100                    STQ     LAST_COL+2,,AUTO
         5 000020   200010 236100                    LDQ     LAST_COL,,AUTO
         5 000021   200003 473500                    LDP3    @SYMBOL,,AUTO
         5 000022   200012 720100                    LXL0    LAST_COL+2,,AUTO
         5 000023   000000 164546                    TCT
         5 000024   300000 000010                    ADSC9   0,Q,PR3                  cn=0,n=*X0
         5 000025   000000 000000 xsym               ARG     ASCII_SEARCH_TABLE
         5 000026   200006 000100                    ARG     COL,,AUTO
         5 000027   200006 235100                    LDA     COL,,AUTO
         5 000030   000033 771000                    ARL     27
         5 000031   200007 755100                    STA     CLASS,,AUTO
         5 000032   200006 551140                    STBA    COL,'40'O,AUTO
         5 000033   200006 056100                    ASQ     COL,,AUTO

      193     6814
      194     6815        /* Get sign */
      195     6816    2   DO SELECT(CLASS);

   6816  5 000034   200007 236100                    LDQ     CLASS,,AUTO
         5 000035   000012 116007                    CMPQ    10,DL
         5 000036   000126 604000 5                  TMI     s:6867
         5 000037   000043 600000 5                  TZE     s:6819
         5 000040   000013 116007                    CMPQ    11,DL
         5 000041   000126 601000 5                  TNZ     s:6867
         5 000042   000075 710000 5                  TRA     s:6842

      196     6817
      197     6818    2     SELECT(%PLUS);

      198     6819    2       NUM_DESC.MANTISSA_SIGN_VALUE = %PLUS_SIGN_VALUE;

   6819  5 000043   000001 235007                    LDA     1,DL
         5 000044   000003 755100                    STA     3,,PR0

      199     6820            %ADV_COL;
PL6.E3A0      #002=Z8AU$CREATE_NUM_DESC File=Z8AU.:Z8A6TSI                       SAT 08/09/97 10:55 Page:37

   6822  5 000045   200006 054100                    AOS     COL,,AUTO

   6825  5 000046   200006 236100                    LDQ     COL,,AUTO
         5 000047   100000 116100                    CMPQ    0,,PR1
         5 000050   000053 605000 5                  TPL     s:6828

   6826  5 000051   200010 756100                    STQ     LAST_COL,,AUTO
         5 000052   000054 710000 5                  TRA     s:6832

   6828  5 000053   000000 702200 xent               TSX2  ! X66_ARET

   6832  5 000054   100000 720100                    LXL0    0,,PR1
         5 000055   000000 636010                    EAQ     0,X0
         5 000056   000022 772000                    QRL     18
         5 000057   200010 136100                    SBLQ    LAST_COL,,AUTO
         5 000060   200012 756100                    STQ     LAST_COL+2,,AUTO
         5 000061   200010 236100                    LDQ     LAST_COL,,AUTO
         5 000062   200012 720100                    LXL0    LAST_COL+2,,AUTO
         5 000063   000000 164546                    TCT
         5 000064   300000 000010                    ADSC9   0,Q,PR3                  cn=0,n=*X0
         5 000065   000000 000000 xsym               ARG     ASCII_SEARCH_TABLE
         5 000066   200006 000100                    ARG     COL,,AUTO
         5 000067   200006 235100                    LDA     COL,,AUTO
         5 000070   000033 771000                    ARL     27
         5 000071   200007 755100                    STA     CLASS,,AUTO
         5 000072   200006 551140                    STBA    COL,'40'O,AUTO
         5 000073   200006 056100                    ASQ     COL,,AUTO

   6838  5 000074   000126 710000 5                  TRA     s:6867

      200     6840
      201     6841    2     SELECT(%MINUS);

      202     6842    2       NUM_DESC.MANTISSA_SIGN_VALUE = %MINUS_SIGN_VALUE;

   6842  5 000075   000002 235007                    LDA     2,DL
PL6.E3A0      #002=Z8AU$CREATE_NUM_DESC File=Z8AU.:Z8A6TSI                       SAT 08/09/97 10:55 Page:38
         5 000076   000003 755100                    STA     3,,PR0

      203     6843            %ADV_COL;

   6845  5 000077   200006 054100                    AOS     COL,,AUTO

   6848  5 000100   200006 236100                    LDQ     COL,,AUTO
         5 000101   100000 116100                    CMPQ    0,,PR1
         5 000102   000105 605000 5                  TPL     s:6851

   6849  5 000103   200010 756100                    STQ     LAST_COL,,AUTO
         5 000104   000106 710000 5                  TRA     s:6855

   6851  5 000105   000000 702200 xent               TSX2  ! X66_ARET

   6855  5 000106   100000 720100                    LXL0    0,,PR1
         5 000107   000000 636010                    EAQ     0,X0
         5 000110   000022 772000                    QRL     18
         5 000111   200010 136100                    SBLQ    LAST_COL,,AUTO
         5 000112   200012 756100                    STQ     LAST_COL+2,,AUTO
         5 000113   200010 236100                    LDQ     LAST_COL,,AUTO
         5 000114   200012 720100                    LXL0    LAST_COL+2,,AUTO
         5 000115   000000 164546                    TCT
         5 000116   300000 000010                    ADSC9   0,Q,PR3                  cn=0,n=*X0
         5 000117   000000 000000 xsym               ARG     ASCII_SEARCH_TABLE
         5 000120   200006 000100                    ARG     COL,,AUTO
         5 000121   200006 235100                    LDA     COL,,AUTO
         5 000122   000033 771000                    ARL     27
         5 000123   200007 755100                    STA     CLASS,,AUTO
         5 000124   200006 551140                    STBA    COL,'40'O,AUTO
         5 000125   200006 056100                    ASQ     COL,,AUTO

      204     6863
      205     6864    2   END;

      206     6865
      207     6866        /* Get leading digits */
PL6.E3A0      #002=Z8AU$CREATE_NUM_DESC File=Z8AU.:Z8A6TSI                       SAT 08/09/97 10:55 Page:39
      208     6867    1   IF CLASS = %DIGIT THEN

   6867  5 000126   000002 115007                    CMPA    2,DL
         5 000127   000161 601000 5                  TNZ     s:6888

      209     6868    2     DO;

      210     6869            %SCAN_SEARCH(TABLE=DIGIT_SCAN_TABLE);

   6870  5 000130   100000 720100                    LXL0    0,,PR1
         5 000131   000000 636010                    EAQ     0,X0
         5 000132   000022 772000                    QRL     18
         5 000133   200010 136100                    SBLQ    LAST_COL,,AUTO
         5 000134   200012 756100                    STQ     LAST_COL+2,,AUTO
         5 000135   200010 236100                    LDQ     LAST_COL,,AUTO
         5 000136   200012 720100                    LXL0    LAST_COL+2,,AUTO
         5 000137   000000 164546                    TCT
         5 000140   300000 000010                    ADSC9   0,Q,PR3                  cn=0,n=*X0
         5 000141   000000 000000 xsym               ARG     DIGIT_SCAN_TABLE
         5 000142   200006 000100                    ARG     COL,,AUTO
         5 000143   200006 235100                    LDA     COL,,AUTO
         5 000144   000033 771000                    ARL     27
         5 000145   200007 755100                    STA     CLASS,,AUTO
         5 000146   200006 551140                    STBA    COL,'40'O,AUTO
         5 000147   200006 056100                    ASQ     COL,,AUTO

      211     6876    2       NUM_DESC.DIGITS_LEFT = COL - LAST_COL;

   6876  5 000150   200006 236100                    LDQ     COL,,AUTO
         5 000151   200010 136100                    SBLQ    LAST_COL,,AUTO
         5 000152   000000 756100                    STQ     0,,PR0

      212     6877            %CHECK_EOT;

   6879  5 000153   200006 236100                    LDQ     COL,,AUTO
         5 000154   100000 116100                    CMPQ    0,,PR1
         5 000155   000160 605000 5                  TPL     s:6882
PL6.E3A0      #002=Z8AU$CREATE_NUM_DESC File=Z8AU.:Z8A6TSI                       SAT 08/09/97 10:55 Page:40

   6880  5 000156   200010 756100                    STQ     LAST_COL,,AUTO
         5 000157   000161 710000 5                  TRA     s:6888

   6882  5 000160   000000 702200 xent               TSX2  ! X66_ARET

      213     6885    2     END;
      214     6886
      215     6887        /* Check decimal point */
      216     6888    1   IF CLASS = %PERIOD OR CLASS = %COMMA THEN

   6888  5 000161   000014 115007                    CMPA    12,DL
         5 000162   000165 600000 5                  TZE     s:6891
         5 000163   000035 115007                    CMPA    29,DL
         5 000164   000431 601000 5                  TNZ     s:7036

      217     6889    2     DO;

      218     6890
      219     6891    2       IF CLASS = %COMMA THEN

   6891  5 000165   000035 115007                    CMPA    29,DL
         5 000166   000171 601000 5                  TNZ     s:6896

      220     6892    2         NUM_DESC.COMMA_PRESENT = TRUE;

   6892  5 000167   400000 236003                    LDQ     -131072,DU
         5 000170   000005 756100                    STQ     5,,PR0

      221     6893
      222     6894            %ADV_COL;

   6896  5 000171   200006 054100                    AOS     COL,,AUTO

   6899  5 000172   200006 236100                    LDQ     COL,,AUTO
         5 000173   100000 116100                    CMPQ    0,,PR1
         5 000174   000177 605000 5                  TPL     s:6902
PL6.E3A0      #002=Z8AU$CREATE_NUM_DESC File=Z8AU.:Z8A6TSI                       SAT 08/09/97 10:55 Page:41

   6900  5 000175   200010 756100                    STQ     LAST_COL,,AUTO
         5 000176   000200 710000 5                  TRA     s:6906

   6902  5 000177   000000 702200 xent               TSX2  ! X66_ARET

   6906  5 000200   100000 720100                    LXL0    0,,PR1
         5 000201   000000 636010                    EAQ     0,X0
         5 000202   000022 772000                    QRL     18
         5 000203   200010 136100                    SBLQ    LAST_COL,,AUTO
         5 000204   200012 756100                    STQ     LAST_COL+2,,AUTO
         5 000205   200010 236100                    LDQ     LAST_COL,,AUTO
         5 000206   200012 720100                    LXL0    LAST_COL+2,,AUTO
         5 000207   000000 164546                    TCT
         5 000210   300000 000010                    ADSC9   0,Q,PR3                  cn=0,n=*X0
         5 000211   000000 000000 xsym               ARG     ASCII_SEARCH_TABLE
         5 000212   200006 000100                    ARG     COL,,AUTO
         5 000213   200006 235100                    LDA     COL,,AUTO
         5 000214   000033 771000                    ARL     27
         5 000215   200007 755100                    STA     CLASS,,AUTO
         5 000216   200006 551140                    STBA    COL,'40'O,AUTO
         5 000217   200006 056100                    ASQ     COL,,AUTO

      223     6914
      224     6915            /* Fractional digits */
      225     6916    2       IF CLASS = %DIGIT THEN

   6916  5 000220   000002 115007                    CMPA    2,DL
         5 000221   000253 601000 5                  TNZ     s:6937

      226     6917    3         DO;

      227     6918                %SCAN_SEARCH(TABLE=DIGIT_SCAN_TABLE);

   6919  5 000222   100000 720100                    LXL0    0,,PR1
         5 000223   000000 636010                    EAQ     0,X0
         5 000224   000022 772000                    QRL     18
PL6.E3A0      #002=Z8AU$CREATE_NUM_DESC File=Z8AU.:Z8A6TSI                       SAT 08/09/97 10:55 Page:42
         5 000225   200010 136100                    SBLQ    LAST_COL,,AUTO
         5 000226   200012 756100                    STQ     LAST_COL+2,,AUTO
         5 000227   200010 236100                    LDQ     LAST_COL,,AUTO
         5 000230   200012 720100                    LXL0    LAST_COL+2,,AUTO
         5 000231   000000 164546                    TCT
         5 000232   300000 000010                    ADSC9   0,Q,PR3                  cn=0,n=*X0
         5 000233   000000 000000 xsym               ARG     DIGIT_SCAN_TABLE
         5 000234   200006 000100                    ARG     COL,,AUTO
         5 000235   200006 235100                    LDA     COL,,AUTO
         5 000236   000033 771000                    ARL     27
         5 000237   200007 755100                    STA     CLASS,,AUTO
         5 000240   200006 551140                    STBA    COL,'40'O,AUTO
         5 000241   200006 056100                    ASQ     COL,,AUTO

      228     6925    3           NUM_DESC.DIGITS_RIGHT = COL - LAST_COL;

   6925  5 000242   200006 236100                    LDQ     COL,,AUTO
         5 000243   200010 136100                    SBLQ    LAST_COL,,AUTO
         5 000244   000001 756100                    STQ     1,,PR0

      229     6926                %CHECK_EOT;

   6928  5 000245   200006 236100                    LDQ     COL,,AUTO
         5 000246   100000 116100                    CMPQ    0,,PR1
         5 000247   000252 605000 5                  TPL     s:6931

   6929  5 000250   200010 756100                    STQ     LAST_COL,,AUTO
         5 000251   000253 710000 5                  TRA     s:6937

   6931  5 000252   000000 702200 xent               TSX2  ! X66_ARET

      230     6934    3         END;
      231     6935
      232     6936            /* Exponent */
      233     6937    2       IF CLASS = %LETTER_E THEN

   6937  5 000253   000041 115007                    CMPA    33,DL
PL6.E3A0      #002=Z8AU$CREATE_NUM_DESC File=Z8AU.:Z8A6TSI                       SAT 08/09/97 10:55 Page:43
         5 000254   000431 601000 5                  TNZ     s:7036

      234     6938    3         DO;

      235     6939                %ADV_COL;

   6941  5 000255   200006 054100                    AOS     COL,,AUTO

   6944  5 000256   200006 236100                    LDQ     COL,,AUTO
         5 000257   100000 116100                    CMPQ    0,,PR1
         5 000260   000263 605000 5                  TPL     s:6947

   6945  5 000261   200010 756100                    STQ     LAST_COL,,AUTO
         5 000262   000264 710000 5                  TRA     s:6951

   6947  5 000263   000000 702200 xent               TSX2  ! X66_ARET

   6951  5 000264   100000 720100                    LXL0    0,,PR1
         5 000265   000000 636010                    EAQ     0,X0
         5 000266   000022 772000                    QRL     18
         5 000267   200010 136100                    SBLQ    LAST_COL,,AUTO
         5 000270   200012 756100                    STQ     LAST_COL+2,,AUTO
         5 000271   200010 236100                    LDQ     LAST_COL,,AUTO
         5 000272   200012 720100                    LXL0    LAST_COL+2,,AUTO
         5 000273   000000 164546                    TCT
         5 000274   300000 000010                    ADSC9   0,Q,PR3                  cn=0,n=*X0
         5 000275   000000 000000 xsym               ARG     ASCII_SEARCH_TABLE
         5 000276   200006 000100                    ARG     COL,,AUTO
         5 000277   200006 235100                    LDA     COL,,AUTO
         5 000300   000033 771000                    ARL     27
         5 000301   200007 755100                    STA     CLASS,,AUTO
         5 000302   200006 551140                    STBA    COL,'40'O,AUTO
         5 000303   200006 056100                    ASQ     COL,,AUTO

      236     6959
      237     6960                /* Sign on exponent */
      238     6961    4           DO SELECT (CLASS);
PL6.E3A0      #002=Z8AU$CREATE_NUM_DESC File=Z8AU.:Z8A6TSI                       SAT 08/09/97 10:55 Page:44

   6961  5 000304   200007 236100                    LDQ     CLASS,,AUTO
         5 000305   000012 116007                    CMPQ    10,DL
         5 000306   000376 604000 5                  TMI     s:7012
         5 000307   000313 600000 5                  TZE     s:6964
         5 000310   000013 116007                    CMPQ    11,DL
         5 000311   000376 601000 5                  TNZ     s:7012
         5 000312   000345 710000 5                  TRA     s:6987

      239     6962
      240     6963    4             SELECT(%PLUS);

      241     6964    4               NUM_DESC.EXPONENT_SIGN_VALUE = %PLUS_SIGN_VALUE;

   6964  5 000313   000001 235007                    LDA     1,DL
         5 000314   000004 755100                    STA     4,,PR0

      242     6965                    %ADV_COL;

   6967  5 000315   200006 054100                    AOS     COL,,AUTO

   6970  5 000316   200006 236100                    LDQ     COL,,AUTO
         5 000317   100000 116100                    CMPQ    0,,PR1
         5 000320   000323 605000 5                  TPL     s:6973

   6971  5 000321   200010 756100                    STQ     LAST_COL,,AUTO
         5 000322   000324 710000 5                  TRA     s:6977

   6973  5 000323   000000 702200 xent               TSX2  ! X66_ARET

   6977  5 000324   100000 720100                    LXL0    0,,PR1
         5 000325   000000 636010                    EAQ     0,X0
         5 000326   000022 772000                    QRL     18
         5 000327   200010 136100                    SBLQ    LAST_COL,,AUTO
         5 000330   200012 756100                    STQ     LAST_COL+2,,AUTO
         5 000331   200010 236100                    LDQ     LAST_COL,,AUTO
         5 000332   200012 720100                    LXL0    LAST_COL+2,,AUTO
PL6.E3A0      #002=Z8AU$CREATE_NUM_DESC File=Z8AU.:Z8A6TSI                       SAT 08/09/97 10:55 Page:45
         5 000333   000000 164546                    TCT
         5 000334   300000 000010                    ADSC9   0,Q,PR3                  cn=0,n=*X0
         5 000335   000000 000000 xsym               ARG     ASCII_SEARCH_TABLE
         5 000336   200006 000100                    ARG     COL,,AUTO
         5 000337   200006 235100                    LDA     COL,,AUTO
         5 000340   000033 771000                    ARL     27
         5 000341   200007 755100                    STA     CLASS,,AUTO
         5 000342   200006 551140                    STBA    COL,'40'O,AUTO
         5 000343   200006 056100                    ASQ     COL,,AUTO

   6983  5 000344   000376 710000 5                  TRA     s:7012

      243     6985
      244     6986    4             SELECT(%MINUS);

      245     6987    4               NUM_DESC.EXPONENT_SIGN_VALUE = %MINUS_SIGN_VALUE;

   6987  5 000345   000002 235007                    LDA     2,DL
         5 000346   000004 755100                    STA     4,,PR0

      246     6988                    %ADV_COL;

   6990  5 000347   200006 054100                    AOS     COL,,AUTO

   6993  5 000350   200006 236100                    LDQ     COL,,AUTO
         5 000351   100000 116100                    CMPQ    0,,PR1
         5 000352   000355 605000 5                  TPL     s:6996

   6994  5 000353   200010 756100                    STQ     LAST_COL,,AUTO
         5 000354   000356 710000 5                  TRA     s:7000

   6996  5 000355   000000 702200 xent               TSX2  ! X66_ARET

   7000  5 000356   100000 720100                    LXL0    0,,PR1
         5 000357   000000 636010                    EAQ     0,X0
         5 000360   000022 772000                    QRL     18
         5 000361   200010 136100                    SBLQ    LAST_COL,,AUTO
PL6.E3A0      #002=Z8AU$CREATE_NUM_DESC File=Z8AU.:Z8A6TSI                       SAT 08/09/97 10:55 Page:46
         5 000362   200012 756100                    STQ     LAST_COL+2,,AUTO
         5 000363   200010 236100                    LDQ     LAST_COL,,AUTO
         5 000364   200012 720100                    LXL0    LAST_COL+2,,AUTO
         5 000365   000000 164546                    TCT
         5 000366   300000 000010                    ADSC9   0,Q,PR3                  cn=0,n=*X0
         5 000367   000000 000000 xsym               ARG     ASCII_SEARCH_TABLE
         5 000370   200006 000100                    ARG     COL,,AUTO
         5 000371   200006 235100                    LDA     COL,,AUTO
         5 000372   000033 771000                    ARL     27
         5 000373   200007 755100                    STA     CLASS,,AUTO
         5 000374   200006 551140                    STBA    COL,'40'O,AUTO
         5 000375   200006 056100                    ASQ     COL,,AUTO

      247     7008
      248     7009    4           END;

      249     7010
      250     7011                /* Exponent digits */
      251     7012    3           IF CLASS = %DIGIT THEN

   7012  5 000376   000002 115007                    CMPA    2,DL
         5 000377   000431 601000 5                  TNZ     s:7036

      252     7013    4             DO;

      253     7014                    %SCAN_SEARCH(TABLE=DIGIT_SCAN_TABLE);

   7015  5 000400   100000 720100                    LXL0    0,,PR1
         5 000401   000000 636010                    EAQ     0,X0
         5 000402   000022 772000                    QRL     18
         5 000403   200010 136100                    SBLQ    LAST_COL,,AUTO
         5 000404   200012 756100                    STQ     LAST_COL+2,,AUTO
         5 000405   200010 236100                    LDQ     LAST_COL,,AUTO
         5 000406   200012 720100                    LXL0    LAST_COL+2,,AUTO
         5 000407   000000 164546                    TCT
         5 000410   300000 000010                    ADSC9   0,Q,PR3                  cn=0,n=*X0
         5 000411   000000 000000 xsym               ARG     DIGIT_SCAN_TABLE
PL6.E3A0      #002=Z8AU$CREATE_NUM_DESC File=Z8AU.:Z8A6TSI                       SAT 08/09/97 10:55 Page:47
         5 000412   200006 000100                    ARG     COL,,AUTO
         5 000413   200006 235100                    LDA     COL,,AUTO
         5 000414   000033 771000                    ARL     27
         5 000415   200007 755100                    STA     CLASS,,AUTO
         5 000416   200006 551140                    STBA    COL,'40'O,AUTO
         5 000417   200006 056100                    ASQ     COL,,AUTO

      254     7021    4               NUM_DESC.DIGITS_EXPONENT = COL - LAST_COL;

   7021  5 000420   200006 236100                    LDQ     COL,,AUTO
         5 000421   200010 136100                    SBLQ    LAST_COL,,AUTO
         5 000422   000002 756100                    STQ     2,,PR0

      255     7022                    %CHECK_EOT;

   7024  5 000423   200006 236100                    LDQ     COL,,AUTO
         5 000424   100000 116100                    CMPQ    0,,PR1
         5 000425   000430 605000 5                  TPL     s:7027

   7025  5 000426   200010 756100                    STQ     LAST_COL,,AUTO
         5 000427   000431 710000 5                  TRA     s:7036

   7027  5 000430   000000 702200 xent               TSX2  ! X66_ARET

      256     7030    4             END;
      257     7031
      258     7032    3         END;
      259     7033    2     END;
      260     7034
      261     7035        /* If we got here, there was an error in the NUMERIC_LITERAL */
      262     7036    1     CALL Z8AE$ERROR (%E$INVALID_COMPILER_LITERAL,

   7036  5 000431   000002 630400 6                  EPPR0   2
         5 000432   000000 631400 6                  EPPR1   0
         5 000433   000000 701000 xent               TSX1    Z8AE$ERROR
         5 000434   000000 011000                    NOP     0

PL6.E3A0      #002=Z8AU$CREATE_NUM_DESC File=Z8AU.:Z8A6TSI                       SAT 08/09/97 10:55 Page:48
      263     7037    1                      COMCOM.CURRENT.LINE,
      264     7038    1                      COMCOM.CURRENT.COLUMN);
      265     7039
      266     7040    1   END Z8AU$CREATE_NUM_DESC;

   7040  5 000435   000000 702200 xent               TSX2  ! X66_ARET
      267     7041        %EOD;

PL6.E3A0      #002=Z8AU$CREATE_NUM_DESC File=Z8AU.:Z8A6TSI                       SAT 08/09/97 10:55 Page:49
--  Include file information  --

   Z8E_TABLES.:Z8A6TOU  cannot be made into a system file and is referenced.
   Z8E_WINDOW.:Z8A6TOU  is referenced.
   Z8A_ERR_NUMS.:Z8A6TOU  is referenced.
   Z8A_DNT.:Z8A6TOU  cannot be made into a system file and is referenced.
   Z8A_COMCOM.:Z8A6TOU  cannot be made into a system file and is referenced.
   X8A_COM_MACS.:X8A6TOU  is referenced.
   Z8A_NAMES.:Z8A6TOU  is referenced.
   Z8A_SUPP_MAC.:Z8A6TOU  is referenced.
   Z8A_DEFC.:Z8A6TOU  cannot be made into a system file and is referenced.
      No diagnostics issued in procedure Z8AU$CREATE_NUM_DESC.
PL6.E3A0      #002=Z8AU$CREATE_NUM_DESC File=Z8AU.:Z8A6TSI                       SAT 08/09/97 10:55 Page:50

 **** Variables and constants ****

  ****  Section 000 LblCom ITERATION

  ****  Scalars and arrays  ****
OctLoc.c.b A Datatyp(siz) R M Lvl/name                 OctLoc.c.b A Datatyp(siz) R M Lvl/name

     0-0-0/w SBIN              1 ITERATION

  ****  Section 001 LblCom DNT$

  ****  Scalars and arrays  ****
OctLoc.c.b A Datatyp(siz) R M Lvl/name                 OctLoc.c.b A Datatyp(siz) R M Lvl/name

     0-0-0/w PTR         r     1 DNT$

  ****  Section 002 LblCom DNT_

  ****  Scalars and arrays  ****
OctLoc.c.b A Datatyp(siz) R M Lvl/name                 OctLoc.c.b A Datatyp(siz) R M Lvl/name

     0-0-0/w STRC(180)         1 DNT_

  ****  Section 003 LblCom DNT_BUCKET_NUMBER

  ****  Scalars and arrays  ****
OctLoc.c.b A Datatyp(siz) R M Lvl/name                 OctLoc.c.b A Datatyp(siz) R M Lvl/name

     0-0-0/w UBIN              1 DNT_BUCKET_NUMBER

  ****  Section 004 LblCom DNT_OF_1$

  ****  Scalars and arrays  ****
OctLoc.c.b A Datatyp(siz) R M Lvl/name                 OctLoc.c.b A Datatyp(siz) R M Lvl/name

     0-0-0/w PTR               1 DNT_OF_1$

PL6.E3A0      #002=Z8AU$CREATE_NUM_DESC File=Z8AU.:Z8A6TSI                       SAT 08/09/97 10:55 Page:51
  ****  Auto variables  ****

  ****  Scalars and arrays  ****
OctLoc.c.b A Datatyp(siz) R M Lvl/name                 OctLoc.c.b A Datatyp(siz) R M Lvl/name

     4-0-0/w PTR         r     1 @LENGTH                    5-0-0/w PTR         r     1 @NUM_DESC
     3-0-0/w PTR         r     1 @SYMBOL                    7-0-0/w SBIN        r     1 CLASS
     6-0-0/w SBIN        r     1 COL                       10-0-0/w SBIN        r     1 LAST_COL
    *0-0-0/w SBIN        r     1 LENGTH                    *0-0-0/w STRC(216)   r     1 NUM_DESC
    *0-0-0/c ACHR        r     1 SYMBOL

  ****  SYMREF variables  ****

  ****  Scalars and arrays  ****
OctLoc.c.b A Datatyp(siz) R M Lvl/name                 OctLoc.c.b A Datatyp(siz) R M Lvl/name

     0-0-0/w STRC(4608)        1 ANSI_USERWORD_SCAN_TABLE
     0-0-0/w STRC(4608)  r     1 ASCII_SEARCH_TABLE         0-0-0/w STRC(4608)        1 BLANK_SCAN_TABLE
     0-0-0/d STRC(13248) r     1 COMCOM
     0-0-0/c CHAR              1 CURRENCY_SIGN_CHARS(0:511)
     0-0-0/w STRC(4608)        1 DBL_QUOTE_PSEUDO_SEARCH_TABLE
     0-0-0/w STRC(4608)  r     1 DIGIT_SCAN_TABLE
     0-0-0/w STRC(4608)        1 DOUBLE_QUOTE_SEARCH_TABLE
     0-0-0/w STRC(4608)        1 LETTER_SEARCH_TABLE
     0-0-0/c CHAR              1 LOWER_TO_UPPER_CASE(0:511)
     0-0-0/w STRC(4608)        1 SEPARATORS_TABLE
     0-0-0/w STRC(4608)        1 SINGLE_QUOTE_SEARCH_TABLE
     0-0-0/w STRC(4608)        1 SNGL_QUOTE_PSEUDO_SEARCH_TABLE
     0-0-0/w STRC(4608)        1 USERWORD_SCAN_TABLE

  ****  BASED and DCB variables  ****

  ****  Scalars and arrays  ****
OctLoc.c.b A Datatyp(siz) R M Lvl/name                 OctLoc.c.b A Datatyp(siz) R M Lvl/name

     0-0-0/w CHAR(4096)        1 CHARS                      0-0-0/w STRC(72)          1 CONT
     0-0-0/w ASTR(180)   r     1 DNT                        0-0-0/w STRC(36864)       1 PAGE
PL6.E3A0      #002=Z8AU$CREATE_NUM_DESC File=Z8AU.:Z8A6TSI                       SAT 08/09/97 10:55 Page:52


   Procedure Z8AU$CREATE_NUM_DESC requires 286 words for executable code.
   Procedure Z8AU$CREATE_NUM_DESC requires 12 words of local(AUTO) storage.

