PL6.E3A0      #003=Z8AU$TYPE_DESCRIPTOR File=Z8AU.:Z8A6TSI                       SAT 08/09/97 10:57 Page:53
      268        1        /*T***********************************************************/
      269        2        /*T*                                                         */
      270        3        /*T* Copyright (c) Bull HN Information Systems Inc., 1997    */
      271        4        /*T*                                                         */
      272        5        /*T***********************************************************/
      273        6        Z8AU$TYPE_DESCRIPTOR:PROC(NODE$, TYPE_DESC);
      274        7
      275        8
      276        9             %EQU PHASE = 0;
      277       10             %INCLUDE Z8A_DEFC;
      278       78             %INCLUDE Z9A_FLAGS;
      279       92             %INCLUDE Z8A_SUPP_MAC;
      280     2492             %INCLUDE Z8A_LIBRARY;
      281     2706             %INCLUDE Z8A_TYPES;
      282     2880
      283     2881    1        DCL NODE$       PTR;
      284     2882    1        DCL 1 TYPE_DESC ALIGNED,
      285     2883                   %TYPE_DESC;
      286     2917
      287     2918             %INCLUDE Z8A_ETT;
      288     3219             %INCLUDE Z8A_ST;
      289     6878             %INCLUDE Z8A_DESC;
      290     6924             %INCLUDE Z8A_ERR_NUMS;
      291     7688             %INCLUDE Z8A_COMCOM;
      292     8338             %INCLUDE Z8A_MKCN;
      293     8355             %INCLUDE Z8A_LTS;
      294    10432
      295    10433
      296    10434    1        DCL Z9AU$OFFSET      ENTRY(3);
      297    10435    1        DCL Z8AE$ERROR       ENTRY(12);
      298    10436    1        DCL Z8AC$MAKE_CONST  ENTRY(1);
      299    10437
      300    10438
      301    10439
      302    10440    1        DCL 1 LOP_DESC  ALIGNED,
      303    10441                   %TYPE_DESC;
      304    10475    1        DCL 1 ROP_DESC  ALIGNED,
PL6.E3A0      #003=Z8AU$TYPE_DESCRIPTOR File=Z8AU.:Z8A6TSI                       SAT 08/09/97 10:57 Page:54
      305    10476                   %TYPE_DESC;
      306    10510    1        DCL P           SBIN WORD;
      307    10511    1        DCL Q           SBIN WORD;
      308    10512    1        DCL R           SBIN WORD;
      309    10513    1        DCL S           SBIN WORD;
      310    10514    1        DCL LOP_SIGN    BIT (2) ALIGNED;
      311    10515    1        DCL ROP_SIGN    BIT (2) ALIGNED;
      312    10516
      313    10517    1        DCL OFFSET      SBIN WORD;
      314    10518    1        DCL CODE        SBIN WORD;
      315    10519
      316    10520    1        DCL LONG$$      PTR;
      317    10521    1        DCL NEL$$       PTR;
      318    10522    1        DCL LOP$        PTR;
      319    10523    1        DCL ETT$$       PTR;
      320    10524
      321    10525
      322    10526        %EJECT;
PL6.E3A0      #003=Z8AU$TYPE_DESCRIPTOR File=Z8AU.:Z8A6TSI                       SAT 08/09/97 10:57 Page:55
      323    10527    1        TYPE_DESC.SIZ$  = ADDR(NIL);
      324    10528    1        TYPE_DESC.SSOP$ = ADDR(NIL);
      325    10529
      326    10530    2        DO CASE(NODE$ -> ETT.ID);
      327    10531    2          CASE(%ADI,  %SBI,  %MPI,  %DVI,  %USI,  %CVDI,  %CVJI,
      328    10532    2               %CVHI, %CVRI, %CVQI, %EXII,
      329    10533    2               %ANDI, %ORI,  %MINI, %INDEX, %MPI2, %CVKI, %MODI,
      330    10534    2               %ASC_BIN,     %DVI2);
      331    10535                 %BUILD_BINARY_DESC ( @DESC    = TYPE_DESC.DESC ,
      332    10536                                      @LENGTH  = %TYI_LENGTH );
      333    10544
      334    10545    2            TYPE_DESC.TYPE = %TYI;
      335    10546
      336    10547    2          CASE(%ADQ,  %SBQ,  %MPQ,  %DVQ,  %USQ,  %CVDQR, %RNDQ,
      337    10548    2               %CVRQ, %EXQQ, %CVIQ, %EXQI );
      338    10549
      339    10550                 %BUILD_BINARY_DESC ( @DESC    = TYPE_DESC.DESC ,
      340    10551                                      @LENGTH  = %TYQ_LENGTH );
      341    10559
      342    10560    2            TYPE_DESC.TYPE = %TYQ;
      343    10561
      344    10562    2          CASE(%ADR,  %SBR,  %MPR,  %DVR,  %USR,  %CVDRR, %RNDR,
      345    10563    2               %CVQR, %EXRR, %CVIR, %EXRI );
      346    10564
      347    10565                 %BUILD_BINARY_DESC ( @DESC    = TYPE_DESC.DESC ,
      348    10566                                      @LENGTH  = %TYR_LENGTH );
      349    10574
      350    10575    2            TYPE_DESC.TYPE = %TYR;
      351    10576
      352    10577    2          CASE(%CVIH);
      353    10578                 %BUILD_BINARY_DESC ( @DESC    = TYPE_DESC.DESC ,
      354    10579                                      @LENGTH  = %TYH_LENGTH );
      355    10587
      356    10588    2            TYPE_DESC.TYPE = %TYH;
      357    10589
      358    10590    2          CASE(%CVIJ);
      359    10591                 %BUILD_BINARY_DESC (@DESC   = TYPE_DESC.DESC,
PL6.E3A0      #003=Z8AU$TYPE_DESCRIPTOR File=Z8AU.:Z8A6TSI                       SAT 08/09/97 10:57 Page:56
      360    10592                                     @LENGTH = %TYJ_LENGTH);
      361    10600
      362    10601    2            TYPE_DESC.TYPE = %TYJ;
      363    10602
      364    10603    2          CASE(%CVIK);
      365    10604                 %BUILD_BINARY_DESC (@DESC   = TYPE_DESC.DESC,
      366    10605                                     @LENGTH = %TYK_LENGTH);
      367    10613
      368    10614    2            TYPE_DESC.TYPE = %TYK;
      369    10615
      370    10616    2          CASE(%EVAL);
      371    10617    2            CALL Z8AU$TYPE_DESCRIPTOR(NODE$ -> ETT.LOP,TYPE_DESC);
      372    10618    2            TYPE_DESC.DESC.SA = 1;
             10618                     /* So temp will not be assumed on double-word bound */
      373    10619
      374    10620    2          CASE(%USD, %USO);
      375    10621    2            CALL Z8AU$TYPE_DESCRIPTOR(NODE$ -> ETT.LOP,TYPE_DESC);
      376    10622
      377    10623    2          CASE(%CVT);
      378    10624    2            CALL Z8AU$TYPE_DESCRIPTOR(NODE$ -> ETT.LOP,TYPE_DESC);
      379    10625    2            TYPE_DESC.DESC.NDSC.CN = 0;
      380    10626    2            IF
      381    10627                   %IF GCOS;
      383    10629                   %ELSE;
      384    10630    2              NODE$ -> ETT.ROP  -> ETT.LOP -> SCALAR.SA = %OP_GBCD_TO_ASCII
      385    10631                   %ENDIF;
      386    10632    2              THEN
      387    10633    3                DO;
      388    10634    3                  IF TYPE_DESC.TYPE = %TYB THEN
      389    10635    4                    DO;
      390    10636    4                      TYPE_DESC.DESC.ADSC.TA = %ADSC9;
      391    10637    4                      TYPE_DESC.TYPE = %TYA;
      392    10638    4                    END;
      393    10639    3                  ELSE
      394    10640    4                    DO;
      395    10641    4                      IF TYPE_DESC.DESC.NDSC.TN = %NDSC4 /* GBCD overpunched */
      396    10642    4                        THEN TYPE_DESC.TYPE = %TYO;
PL6.E3A0      #003=Z8AU$TYPE_DESCRIPTOR File=Z8AU.:Z8A6TSI                       SAT 08/09/97 10:57 Page:57
      397    10643    4                        ELSE TYPE_DESC.TYPE = %TYD;
      398    10644    4                      TYPE_DESC.DESC.NDSC.TN = %NDSC9;
      399    10645    4                    END;
      400    10646    3                END;
      401    10647    2            ELSE IF
      402    10648                   %IF GCOS;
      404    10650                   %ELSE;
      405    10651    2              NODE$ -> ETT.ROP -> ETT.LOP -> SCALAR.SA = %OP_ASCII_TO_GBCD
      406    10652                   %ENDIF;
      407    10653    2              THEN
      408    10654    3                DO;
      409    10655    3                  IF TYPE_DESC.TYPE = %TYA THEN
      410    10656    4                    DO;
      411    10657    4                      TYPE_DESC.DESC.ADSC.TA = %ADSC6;
      412    10658    4                      TYPE_DESC.TYPE = %TYB;
      413    10659    4                    END;
      414    10660    3                  ELSE
      415    10661    4                    DO;
      416    10662    4                      TYPE_DESC.DESC.NDSC.TN = %NDSC9;
      417    10663    4                      TYPE_DESC.TYPE = %TYC;
      418    10664    4                    END;
      419    10665    3                END;
      420    10666    2            ELSE IF
      421    10667                   %IF GCOS;
      423    10669                   %ELSE;
      424    10670    2              NODE$ -> ETT.ROP -> ETT.LOP -> SCALAR.SA = %OP_EBCDIC_TO_ASCII
      425    10671                   %ENDIF;
      426    10672    2              THEN
      427    10673    3                DO;
      428    10674    3                  IF TYPE_DESC.TYPE = %TYE THEN
      429    10675    3                    TYPE_DESC.TYPE = %TYA;
      430    10676    3                  ELSE IF TYPE_DESC.DESC.NDSC.TN = %NDSC4 /* Overpunched */ THEN
      431    10677    4                    DO;
      432    10678    4                      TYPE_DESC.TYPE = %TYO;
      433    10679    4                      TYPE_DESC.DESC.NDSC.TN = %NDSC9;
      434    10680    4                    END;
      435    10681    3                  ELSE
PL6.E3A0      #003=Z8AU$TYPE_DESCRIPTOR File=Z8AU.:Z8A6TSI                       SAT 08/09/97 10:57 Page:58
      436    10682    3                    TYPE_DESC.TYPE = %TYD;
      437    10683    3                END;
      438    10684    2            ELSE IF
      439    10685                   %IF GCOS;
      441    10687                   %ELSE;
      442    10688    2              NODE$ -> ETT.ROP -> ETT.LOP -> SCALAR.SA = %OP_ASCII_TO_EBCDIC
      443    10689                   %ENDIF;
      444    10690    2              THEN
      445    10691    3                DO;
      446    10692    3                  IF TYPE_DESC.TYPE = %TYA THEN
      447    10693    3                    TYPE_DESC.TYPE = %TYE;
      448    10694    3                  ELSE
      449    10695    4                    DO;
      450    10696    4                      IF TYPE_DESC.TYPE = %TYO THEN
      451    10697    4                        TYPE_DESC.DESC.NDSC.TN = %NDSC4; /* Overpunched */
      452    10698    4                      TYPE_DESC.TYPE = %TYF;
      453    10699    4                    END;
      454    10700    3                END;
      455    10701
      456    10702    2          CASE(%ADD, %SBD, %MIND);
      457    10703    2            CALL Z8AU$TYPE_DESCRIPTOR(NODE$ -> ETT.LOP, LOP_DESC);
      458    10704    2            CALL Z8AU$TYPE_DESCRIPTOR(NODE$ -> ETT.ROP, ROP_DESC);
      459    10705
      460    10706                 %UNPACK_NDSC ( @DESC   = LOP_DESC.DESC ,
      461    10707                                @SIGN   = LOP_SIGN,
      462    10708                                @LENGTH = P ,
      463    10709                                @SCALE  = Q );
      464    10764
      465    10765                 %UNPACK_NDSC ( @DESC   = ROP_DESC.DESC ,
      466    10766                                @SIGN   = ROP_SIGN,
      467    10767                                @LENGTH = R ,
      468    10768                                @SCALE  = S );
      469    10823
      470    10824    2            IF NODE$ -> ETT.ID = %MIND
      471    10825    2              OR NODE$ -> ETT.ID = %SBD
      472    10826    2                AND LOP_SIGN = %NO_SIGN
      473    10827    2                AND ROP_SIGN = %NO_SIGN
PL6.E3A0      #003=Z8AU$TYPE_DESCRIPTOR File=Z8AU.:Z8A6TSI                       SAT 08/09/97 10:57 Page:59
      474    10828    2              THEN LENGTH = 0;
      475    10829    2              ELSE LENGTH = 1;
      476    10830
      477    10831    2            LENGTH = MINIMUM(COMCOM.MAX_TEMP_LENGTH,
      478    10832    2                             (MAXIMUM(-Q, -S) + MAXIMUM(P + Q, R + S) + LENGTH));
      479    10833
      480    10834    2            IF LENGTH = COMCOM.MAX_TEMP_LENGTH THEN
      481    10835                   %PACK_NDSC ( @DESC     = TYPE_DESC.DESC ,
      482    10836                                @LENGTH   = LENGTH ,
      483    10837                                @TN       = %NDSC4 ,
      484    10838                                @SIGN     = %FLOATING_POINT_LEADING_SIGN );
      485    10887    2            ELSE
      486    10888    3              DO;
      487    10889    3                IF LOP_SIGN = %NO_SIGN
      488    10890    3                AND ROP_SIGN = %NO_SIGN
      489    10891    3                AND NODE$ -> ETT.ID ~= %SBD THEN
      490    10892    3                  SIGN = %NO_SIGN;
      491    10893    3                ELSE
      492    10894    3                  SIGN = %TRAILING_SIGN;
      493    10895
      494    10896                     %PACK_NDSC ( @DESC     = TYPE_DESC.DESC ,
      495    10897                                  @LENGTH   = LENGTH ,
      496    10898                                  @SCALE    = "- MAXIMUM(-Q, -S)",
      497    10899                                  @TN       = %NDSC4 ,
      498    10900                                  @SIGN     = SIGN );
      499    10949    3              END;
      500    10950
      501    10951    2            TYPE_DESC.TYPE = %TYD;
      502    10952
      503    10953    2          CASE(%ADO, %SBO, %MINO);
      504    10954    2            CALL Z8AU$TYPE_DESCRIPTOR(NODE$ -> ETT.LOP, LOP_DESC);
      505    10955    2            CALL Z8AU$TYPE_DESCRIPTOR(NODE$ -> ETT.ROP, ROP_DESC);
      506    10956
      507    10957                 %UNPACK_NDSC ( @DESC   = LOP_DESC.DESC ,
      508    10958                                @TYPE   = LOP_DESC.TYPE,
      509    10959                                @SIGN   = LOP_SIGN,
      510    10960                                @LENGTH = P ,
PL6.E3A0      #003=Z8AU$TYPE_DESCRIPTOR File=Z8AU.:Z8A6TSI                       SAT 08/09/97 10:57 Page:60
      511    10961                                @SCALE  = Q );
      512    11016
      513    11017                 %UNPACK_NDSC ( @DESC   = ROP_DESC.DESC ,
      514    11018                                @TYPE   = ROP_DESC.TYPE,
      515    11019                                @SIGN   = ROP_SIGN,
      516    11020                                @LENGTH = R ,
      517    11021                                @SCALE  = S );
      518    11076
      519    11077    2            LENGTH = MAXIMUM(-Q, -S) + MAXIMUM(P + Q, R + S) + 1;
      520    11078
      521    11079    2            IF LENGTH >= COMCOM.MAX_TEMP_LENGTH THEN
      522    11080    3              DO;
      523    11081                     %PACK_NDSC ( @DESC     = TYPE_DESC.DESC ,
      524    11082                                  @LENGTH   = COMCOM.MAX_TEMP_LENGTH ,
      525    11083                                  @TN       = %NDSC4 ,
      526    11084                                  @SIGN     = %FLOATING_POINT_LEADING_SIGN );
      527    11133    3              END;
      528    11134    2            ELSE
      529    11135    3              DO;
      530    11136
      531    11137                     %PACK_NDSC ( @DESC     = TYPE_DESC.DESC ,
      532    11138                                  @LENGTH   = LENGTH ,
      533    11139                                  @SCALE    = "- MAXIMUM(-Q, -S)",
      534    11140                                  @TN       = %NDSC4 ,
      535    11141                                  @SIGN     = %TRAILING_SIGN );
      536    11190    3              END;
      537    11191
      538    11192    2            TYPE_DESC.TYPE = %TYD;
      539    11193
      540    11194    2          CASE(%MPD);
      541    11195    2            CALL Z8AU$TYPE_DESCRIPTOR(NODE$ -> ETT.LOP, LOP_DESC);
      542    11196    2            CALL Z8AU$TYPE_DESCRIPTOR(NODE$ -> ETT.ROP, ROP_DESC);
      543    11197
      544    11198                 %UNPACK_NDSC ( @DESC   = LOP_DESC.DESC ,
      545    11199                                @SIGN   = LOP_SIGN,
      546    11200                                @LENGTH = P ,
      547    11201                                @SCALE  = Q );
PL6.E3A0      #003=Z8AU$TYPE_DESCRIPTOR File=Z8AU.:Z8A6TSI                       SAT 08/09/97 10:57 Page:61
      548    11256
      549    11257                 %UNPACK_NDSC ( @DESC   = ROP_DESC.DESC ,
      550    11258                                @SIGN   = ROP_SIGN,
      551    11259                                @LENGTH = R ,
      552    11260                                @SCALE  = S );
      553    11315
      554    11316    2            LENGTH = MINIMUM(COMCOM.MAX_TEMP_LENGTH, P + R + 1);
      555    11317
      556    11318    2            IF LENGTH = COMCOM.MAX_TEMP_LENGTH THEN
      557    11319                   %PACK_NDSC ( @DESC     = TYPE_DESC.DESC ,
      558    11320                                @LENGTH   = LENGTH ,
      559    11321                                @TN       = %NDSC4 ,
      560    11322                                @SIGN     = %FLOATING_POINT_LEADING_SIGN );
      561    11371    2            ELSE
      562    11372    3              DO;
      563    11373    3                IF  LOP_SIGN = %NO_SIGN
      564    11374    3                AND ROP_SIGN = %NO_SIGN THEN
      565    11375    3                  SIGN = %NO_SIGN;
      566    11376    3                ELSE
      567    11377    3                  SIGN = %TRAILING_SIGN;
      568    11378
      569    11379                     %PACK_NDSC ( @DESC     = TYPE_DESC.DESC ,
      570    11380                                  @LENGTH   = LENGTH ,
      571    11381                                  @SCALE    = "(Q + S)" ,
      572    11382                                  @TN       = %NDSC4 ,
      573    11383                                  @SIGN     = SIGN );
      574    11432    3              END;
      575    11433
      576    11434    2            TYPE_DESC.TYPE = %TYD;
      577    11435
      578    11436    2          CASE(%MPO);
      579    11437    2            CALL Z8AU$TYPE_DESCRIPTOR(NODE$ -> ETT.LOP, LOP_DESC);
      580    11438    2            CALL Z8AU$TYPE_DESCRIPTOR(NODE$ -> ETT.ROP, ROP_DESC);
      581    11439
      582    11440                 %UNPACK_NDSC ( @DESC   = LOP_DESC.DESC ,
      583    11441                                @TYPE   = LOP_DESC.TYPE,
      584    11442                                @SIGN   = LOP_SIGN,
PL6.E3A0      #003=Z8AU$TYPE_DESCRIPTOR File=Z8AU.:Z8A6TSI                       SAT 08/09/97 10:57 Page:62
      585    11443                                @LENGTH = P ,
      586    11444                                @SCALE  = Q );
      587    11499
      588    11500                 %UNPACK_NDSC ( @DESC   = ROP_DESC.DESC ,
      589    11501                                @TYPE   = ROP_DESC.TYPE,
      590    11502                                @SIGN   = ROP_SIGN,
      591    11503                                @LENGTH = R ,
      592    11504                                @SCALE  = S );
      593    11559
      594    11560    2            LENGTH = P + R + 1;
      595    11561
      596    11562    2            IF LENGTH >= COMCOM.MAX_TEMP_LENGTH THEN
      597    11563    3              DO;
      598    11564                     %PACK_NDSC ( @DESC     = TYPE_DESC.DESC ,
      599    11565                                  @LENGTH   = COMCOM.MAX_TEMP_LENGTH ,
      600    11566                                  @TN       = %NDSC4 ,
      601    11567                                  @SIGN     = %FLOATING_POINT_LEADING_SIGN );
      602    11616    3              END;
      603    11617    2            ELSE
      604    11618    3              DO;
      605    11619
      606    11620                     %PACK_NDSC ( @DESC     = TYPE_DESC.DESC ,
      607    11621                                  @LENGTH   = LENGTH ,
      608    11622                                  @SCALE    = "(Q + S)" ,
      609    11623                                  @TN       = %NDSC4 ,
      610    11624                                  @SIGN     = %TRAILING_SIGN );
      611    11673
      612    11674    3              END;
      613    11675
      614    11676    2            TYPE_DESC.TYPE = %TYD;
      615    11677
      616    11678    2          CASE(%EXDD, %DVD, %DVO, %DVDR, %DVOR, %EXDI);
      617    11679                 %PACK_NDSC( @DESC     = TYPE_DESC.DESC ,
      618    11680                             @SIGN     = %FLOATING_POINT_LEADING_SIGN ,
      619    11681                             @TN       = %NDSC4 ,
      620    11682                             @LENGTH   = COMCOM.MAX_TEMP_LENGTH );
      621    11731
PL6.E3A0      #003=Z8AU$TYPE_DESCRIPTOR File=Z8AU.:Z8A6TSI                       SAT 08/09/97 10:57 Page:63
      622    11732    2            TYPE_DESC.TYPE = %TYD;
      623    11733
      624    11734    2          CASE(%CVDO);
      625    11735
      626    11736    2            TYPE_DESC.DESC = NODE$ -> ETT.DESC;
      627    11737    2            TYPE_DESC.TYPE = %TYO;
      628    11738
      629    11739    2          CASE(%CVDF);
      630    11740
      631    11741    2            TYPE_DESC.DESC = NODE$ -> ETT.DESC;
      632    11742    2            TYPE_DESC.TYPE = %TYF;
      633    11743
      634    11744    2          CASE(%CVID4, %CVID9, %CVQD4, %CVQD9, %CVRD4, %CVRD9, %CV49,
      635    11745    2               %CVDD, %RNDO, %RNDD, %CVOD4);
      636    11746
      637    11747    2            TYPE_DESC.DESC = NODE$ -> ETT.DESC;
      638    11748    2            TYPE_DESC.TYPE       = %TYD;
      639    11749    2            TYPE_DESC.DESC.SA = 1;
             11749                     /* So temp will not be assumed on double-word bound */
      640    11750
      641    11751    2          CASE(%DAN);
      642    11752
      643    11753    2            CALL Z8AU$TYPE_DESCRIPTOR(NODE$ -> ETT.LOP, TYPE_DESC);
      644    11754    2            TYPE_DESC.DESC = NODE$ -> ETT.DESC;
      645    11755    3            DO CASE (TYPE_DESC.TYPE);
      646    11756    3              CASE (%TYB);
      647    11757    3                TYPE_DESC.TYPE = %TYC;
      648    11758    3              CASE (%TYE);
      649    11759    3                TYPE_DESC.TYPE = %TYF;
      650    11760    3              CASE (ELSE);
      651    11761    3                TYPE_DESC.TYPE = %TYD;
      652    11762    3            END;
      653    11763
      654    11764    2          CASE (%CVDSF);
      655    11765
      656    11766    2            TYPE_DESC.DESC = NODE$ -> ETT.DESC;
      657    11767    2            TYPE_DESC.TYPE = %TYD;
PL6.E3A0      #003=Z8AU$TYPE_DESCRIPTOR File=Z8AU.:Z8A6TSI                       SAT 08/09/97 10:57 Page:64
      658    11768    2            IF NODE$ -> ETT.DESC.NDSC.SF ~= 0 THEN
      659    11769    2              TYPE_DESC.DESC.SA = 1;
             11769                       /* So temp will not be assumed on double-word bound */
      660    11770
      661    11771    2          CASE(%CVAA);
      662    11772    2            TYPE_DESC.DESC = NODE$ -> ETT.DESC;
      663    11773    2            TYPE_DESC.TYPE = %TYA;
      664    11774
      665    11775    2          CASE(%D96);
      666    11776    2            CALL Z8AU$TYPE_DESCRIPTOR (NODE$ -> ETT.LOP, TYPE_DESC);
      667    11777    2            IF TYPE_DESC.TYPE = %TYD
      668    11778    2               THEN TYPE_DESC.TYPE = %TYC;
      669    11779    2               ELSE TYPE_DESC.TYPE = %TYB;
      670    11780
      671    11781    2          CASE(%DNA);
      672    11782    2            CALL Z8AU$TYPE_DESCRIPTOR (NODE$ -> ETT.LOP, TYPE_DESC);
      673    11783    2            TYPE_DESC.DESC.ADSC = NODE$ -> ETT.DESC.ADSC;
      674    11784    3            DO CASE (TYPE_DESC.TYPE);
      675    11785    3              CASE (%TYF);
      676    11786    3                TYPE_DESC.TYPE = %TYE;
      677    11787    3              CASE (%TYC);
      678    11788    3                TYPE_DESC.TYPE = %TYB;
      679    11789    3              CASE (ELSE);
      680    11790    3                TYPE_DESC.TYPE = %TYA;
      681    11791    3            END;
      682    11792    2          CASE(%FISS);
      683    11793    2            CALL Z8AU$TYPE_DESCRIPTOR(NODE$ -> ETT.LOP,TYPE_DESC);
      684    11794
      685    11795    2            TYPE_DESC.SIZ$  = ADDR(NIL);
      686    11796
      687    11797    3            DO CASE(NODE$ -> ETT.SIZE.TYPE);
      688    11798    3              CASE(%ALPHA_NUMERIC_FISS);
      689    11799                     %UNPACK_ADSC ( @DESC    = TYPE_DESC.DESC ,
      690    11800                                    @SA      = SA ,
      691    11801                                    @CN      = CN ,
      692    11802                                    @TA      = TA );
      693    11825
PL6.E3A0      #003=Z8AU$TYPE_DESCRIPTOR File=Z8AU.:Z8A6TSI                       SAT 08/09/97 10:57 Page:65
      694    11826                     %PACK_ADSC   ( @DESC    = TYPE_DESC.DESC ,
      695    11827                                    @SA      = SA ,
      696    11828                                    @CN      = CN ,
      697    11829                                    @TA      = TA ,
      698    11830                                    @LENGTH  = NODE$ -> ETT.SIZE.VALUE );
      699    11854
      700    11855    3              CASE(%NUMERIC_FISS);
      701    11856                     %UNPACK_NDSC ( @DESC    = TYPE_DESC.DESC ,
      702    11857                                    @SA      = SA ,
      703    11858                                    @CN      = CN ,
      704    11859                                    @TN      = TN ,
      705    11860                                    @SIGN    = SIGN ,
      706    11861                                    @SCALE   = SCALE );
      707    11916
      708    11917                     %PACK_NDSC   ( @DESC    = TYPE_DESC.DESC ,
      709    11918                                    @SA      = SA ,
      710    11919                                    @CN      = CN ,
      711    11920                                    @TN      = TN ,
      712    11921                                    @SIGN    = SIGN ,
      713    11922                                    @SCALE   = SCALE ,
      714    11923                                    @LENGTH  = NODE$ -> ETT.SIZE.VALUE );
      715    11972    3            END /* Case */;
      716    11973
      717    11974    2          CASE(%SSOP);
      718    11975    2            CALL Z8AU$TYPE_DESCRIPTOR(NODE$ -> ETT.LOP, TYPE_DESC);
      719    11976
      720    11977    2            TYPE_DESC.SSOP$ = NODE$ -> ETT.ROP;
      721    11978    2          CASE(%OFF);
      722    11979    2            CALL Z8AU$TYPE_DESCRIPTOR(NODE$ -> ETT.LOP, TYPE_DESC);
      723    11980
      724    11981    2            OFFSET = NODE$ -> ETT.OFFSET.VALUE;
      725    11982    2            CODE   = NODE$ -> ETT.OFFSET.TYPE;
      726    11983
      727    11984    2            CALL Z9AU$OFFSET(OFFSET, CODE, TYPE_DESC.DESC);
      728    11985
      729    11986    2          CASE(%CVDDD);
      730    11987
PL6.E3A0      #003=Z8AU$TYPE_DESCRIPTOR File=Z8AU.:Z8A6TSI                       SAT 08/09/97 10:57 Page:66
      731    11988    2            CALL Z8AU$TYPE_DESCRIPTOR (NODE$ -> ETT.LOP, TYPE_DESC);
      732    11989
      733    11990                 %FISH (TRIAD = NODE$ -> ETT.LOP,
      734    11991                        RTN   = LOP$);
      735    11999                 %GET_LTS (@ID       = %NEL,
      736    12000                           @ST$      = LOP$,
      737    12001                           @RETURN$  = NEL$$);
      738    12044
      739    12045    2            TYPE_DESC.DESC = NEL$$ -> NEL.DESC;
      740    12046    2            TYPE_DESC.TYPE = %TYD;
      741    12047
      742    12048    2          CASE(%TRIAD);
      743    12049    2            TYPE_DESC.DESC.SA   = NODE$ -> ETT.LOP -> ST.SA;
      744    12050    2            TYPE_DESC.DESC.NDSC = NODE$ -> ETT.LOP -> ST.NDSC;
      745    12051    2            TYPE_DESC.TYPE      = NODE$ -> ETT.LOP -> ST.TYPE;
      746    12052
      747    12053    2          CASE(%BASE);
      748    12054    2            IF NODE$ -> ETT.LOP -> ST.ID ~= %PARA AND
      749    12055                     /* It will never be %SECTION. */
      750    12056    2                NODE$ -> ETT.LOP -> VARIABLE.B.LENGTH_4096 THEN
      751    12057    3              DO;
      752    12058                     %GET_LTS (@ID       = %LONG,
      753    12059                               @ST$      = NODE$ -> ETT.LOP,
      754    12060                               @RETURN$  = LONG$$);
      755    12103
      756    12104    3                MKCN.CON = LONG$$ -> LONG.LENGTH;
      757    12105    3                CALL Z8AC$MAKE_CONST (TYPE_DESC.SIZ$);
      758    12106    3              END;
      759    12107
      760    12108    2            TYPE_DESC.DESC.SA   = NODE$ -> ETT.LOP -> ST.SA;
      761    12109    2            TYPE_DESC.DESC.NDSC = NODE$ -> ETT.LOP -> ST.NDSC;
      762    12110    2            TYPE_DESC.TYPE      = NODE$ -> ETT.LOP -> ST.TYPE;
      763    12111
      764    12112
      765    12113    2          CASE(
      766    12114                    %SET_OF_ST_ITEMS;
      767    12145    2              );
PL6.E3A0      #003=Z8AU$TYPE_DESCRIPTOR File=Z8AU.:Z8A6TSI                       SAT 08/09/97 10:57 Page:67
      768    12146    2            TYPE_DESC.DESC.SA = NODE$ -> ST.SA;
      769    12147    2            TYPE_DESC.DESC.NDSC = NODE$ -> ST.NDSC;
      770    12148    2            TYPE_DESC.TYPE      = NODE$ -> ST.TYPE;
      771    12149
      772    12150    2          CASE(%SIZ, %REFMOD);  /*#28637*/
      773    12151    2            CALL Z8AU$TYPE_DESCRIPTOR(NODE$ -> ETT.LOP, TYPE_DESC);
      774    12152
      775    12153    2            TYPE_DESC.SIZ$ = NODE$ -> ETT.ROP;
      776    12154
      777    12155    2          CASE(%MPD10) ;
      778    12156    2            CALL Z8AU$TYPE_DESCRIPTOR (NODE$ -> ETT.LOP, TYPE_DESC) ;
      779    12157
      780    12158                 %UNPACK_NDSC (@DESC   = TYPE_DESC.DESC,
      781    12159                               @SIGN   = LOP_SIGN,
      782    12160                               @SA     = SA,
      783    12161                               @CN     = CN,
      784    12162                               @LENGTH = P,
      785    12163                               @SCALE  = Q) ;
      786    12218
      787    12219    2            S = NODE$ -> ETT.ROPCON ;
      788    12220
      789    12221    2            IF LOP_SIGN = %NO_SIGN THEN
      790    12222    2                 SIGN = %NO_SIGN;
      791    12223    2            ELSE
      792    12224    2                 SIGN = %TRAILING_SIGN;
      793    12225
      794    12226                 %PACK_NDSC   (@DESC = TYPE_DESC.DESC,
      795    12227                               @SA     = SA,
      796    12228                               @CN     = CN,
      797    12229                               @LENGTH = P,
      798    12230                               @SCALE = "(Q + S)",
      799    12231                               @TN = %NDSC4,
      800    12232                               @SIGN = SIGN) ;
      801    12281
      802    12282    2          CASE(%ADDR);
      803    12283
      804    12284                 %BUILD_BINARY_DESC(@DESC = TYPE_DESC.DESC,
PL6.E3A0      #003=Z8AU$TYPE_DESCRIPTOR File=Z8AU.:Z8A6TSI                       SAT 08/09/97 10:57 Page:68
      805    12285                                    @LENGTH = %TYI_LENGTH);
      806    12293
      807    12294    2            TYPE_DESC.TYPE = %TYP;
      808    12295
      809    12296
      810    12297    2          CASE(ELSE);
      811    12298    2            CALL Z8AE$ERROR(%E$UNEXPECTED_CASE, COMCOM.CURRENT.LINE, 0);
      812    12299
      813    12300    2        END /* Case */;
      814    12301
      815    12302    1   END Z8AU$TYPE_DESCRIPTOR;
      816    12303        %EOD;

PL6.E3A0      #003=Z8AU$TYPE_DESCRIPTOR File=Z8AU.:Z8A6TSI                       SAT 08/09/97 10:57 Page:69
--  Include file information  --

   Z8A_LTS.:Z8A6TOU  cannot be made into a system file and is referenced.
   Z8A_MKCN.:Z8A6TOU  cannot be made into a system file and is referenced.
   Z8A_COMCOM.:Z8A6TOU  cannot be made into a system file and is referenced.
   Z8A_ERR_NUMS.:Z8A6TOU  is referenced.
   Z8A_DESC.:Z8A6TOU  cannot be made into a system file and is referenced.
   Z8A_ST.:Z8A6TOU  cannot be made into a system file and is referenced.
   Z8A_ETT.:Z8A6TOU  cannot be made into a system file and is referenced.
   Z8A_TYPES.:Z8A6TOU  is referenced.
   Z8A_LIBRARY.:Z8A6TOU  cannot be made into a system file and is referenced.
   X8A_COM_MACS.:X8A6TOU  is referenced.
   Z8A_NAMES.:Z8A6TOU  is referenced.
   Z8A_SUPP_MAC.:Z8A6TOU  is referenced.
   Z9A_FLAGS.:Z8A6TOU  is referenced.
   Z8A_DEFC.:Z8A6TOU  cannot be made into a system file and is referenced.
      No diagnostics issued in procedure Z8AU$TYPE_DESCRIPTOR.

   Procedure Z8AU$TYPE_DESCRIPTOR requires 2122 words for executable code.
   Procedure Z8AU$TYPE_DESCRIPTOR requires 48 words of local(AUTO) storage.

PL6.E3A0      #003=Z8AU$TYPE_DESCRIPTOR File=Z8AU.:Z8A6TSI                       SAT 08/09/97 10:57 Page:70

 Object Unit name= Z8AU$TYPE_DESCRIPTOR                       File name= Z8AU.:Z8A6TOU
 UTS= AUG 09 '97 10:57:20.04 SAT                              Compiler= PL-6/E31         Sev=      00
 SharedLib= :SHARED_SYSTEM                                    Alt SharedLib=


    ****  Control sections  ****

 Sect   Type Bound  Init  Size OctSiz  Section name(segment info)
    0  LblCom even  none     1      1  ITERATION
    1  LblCom even  none     1      1  ETT$
    2  LblCom even  none     1      1  HEAD_ETT$
    3  LblCom even  none   512   1000  ETT_BUCKETS
    4  LblCom even  none     5      5  ETT_
    5  LblCom even  none     1      1  ST$
    6  LblCom even  none     5      5  ST_
    7  LblCom even  none     2      2  MKCN
    8  LblCom even  none     1      1  LTS$
    9  LblCom even  none     5      5  LTS_
   10   Proc  even  none  2122   4112  Z8AU$TYPE_DESCRIPTOR
   11  RoData even  none    16     20  Z8AU$TYPE_DESCRIPTOR

    ****  Entry defs  ****

                              Check   Calling
                             calling  sequence
  Sect OctLoc Primary Altret sequence   type   Parms  Name
    10      0   yes            yes      Std        2  Z8AU$TYPE_DESCRIPTOR
PL6.E3A0      #003=Z8AU$TYPE_DESCRIPTOR File=Z8AU.:Z8A6TSI                       SAT 08/09/97 10:57 Page:71

  ****  Entry refs  ****

         Check        Calling
        calling       sequence
Altret sequence SRef   type   Args  Name
         yes           Std      12 Z8AE$ERROR
         yes           Std       3 Z9AU$OFFSET
         yes           Std       1 Z8AC$MAKE_CONST
                       nStd      0 X66_AUTO_2
                       nStd      0 X66_ARET

  ****  Data refs  ****

  Flags:  r = read only, s = secondary
Flgs Name                             Flgs Name                             Flgs Name
     COMCOM                           r    LTS_STEP

  ****  Segment refs  ****

  Flags:  r = read only, s = secondary
Flgs Name                             Flgs Name                             Flgs Name
     NULLSID                               ISSID
PL6.E3A0      #003=Z8AU$TYPE_DESCRIPTOR File=Z8AU.:Z8A6TSI                       SAT 08/09/97 10:57 Page:72


      268        1        /*T***********************************************************/
      269        2        /*T*                                                         */
      270        3        /*T* Copyright (c) Bull HN Information Systems Inc., 1997    */
      271        4        /*T*                                                         */
      272        5        /*T***********************************************************/
      273        6        Z8AU$TYPE_DESCRIPTOR:PROC(NODE$, TYPE_DESC);

      6 10 000000   000000 700200 xent  Z8AU$TYPE_D* TSX0  ! X66_AUTO_2
        10 000001   000060 000002                    ZERO    48,2

      274        7
      275        8
      276        9             %EQU PHASE = 0;
      277       10             %INCLUDE Z8A_DEFC;
      278       78             %INCLUDE Z9A_FLAGS;
      279       92             %INCLUDE Z8A_SUPP_MAC;
      280     2492             %INCLUDE Z8A_LIBRARY;
      281     2706             %INCLUDE Z8A_TYPES;
      282     2880
      283     2881    1        DCL NODE$       PTR;
      284     2882    1        DCL 1 TYPE_DESC ALIGNED,
      285     2883                   %TYPE_DESC;
      286     2917
      287     2918             %INCLUDE Z8A_ETT;
      288     3219             %INCLUDE Z8A_ST;
      289     6878             %INCLUDE Z8A_DESC;
      290     6924             %INCLUDE Z8A_ERR_NUMS;
      291     7688             %INCLUDE Z8A_COMCOM;
      292     8338             %INCLUDE Z8A_MKCN;
      293     8355             %INCLUDE Z8A_LTS;
      294    10432
      295    10433
      296    10434    1        DCL Z9AU$OFFSET      ENTRY(3);
      297    10435    1        DCL Z8AE$ERROR       ENTRY(12);
      298    10436    1        DCL Z8AC$MAKE_CONST  ENTRY(1);
      299    10437
PL6.E3A0      #003=Z8AU$TYPE_DESCRIPTOR File=Z8AU.:Z8A6TSI                       SAT 08/09/97 10:57 Page:73
      300    10438
      301    10439
      302    10440    1        DCL 1 LOP_DESC  ALIGNED,
      303    10441                   %TYPE_DESC;
      304    10475    1        DCL 1 ROP_DESC  ALIGNED,
      305    10476                   %TYPE_DESC;
      306    10510    1        DCL P           SBIN WORD;
      307    10511    1        DCL Q           SBIN WORD;
      308    10512    1        DCL R           SBIN WORD;
      309    10513    1        DCL S           SBIN WORD;
      310    10514    1        DCL LOP_SIGN    BIT (2) ALIGNED;
      311    10515    1        DCL ROP_SIGN    BIT (2) ALIGNED;
      312    10516
      313    10517    1        DCL OFFSET      SBIN WORD;
      314    10518    1        DCL CODE        SBIN WORD;
      315    10519
      316    10520    1        DCL LONG$$      PTR;
      317    10521    1        DCL NEL$$       PTR;
      318    10522    1        DCL LOP$        PTR;
      319    10523    1        DCL ETT$$       PTR;
      320    10524
      321    10525
      322    10526        %EJECT;
PL6.E3A0      #003=Z8AU$TYPE_DESCRIPTOR File=Z8AU.:Z8A6TSI                       SAT 08/09/97 10:57 Page:74
      323    10527    1        TYPE_DESC.SIZ$  = ADDR(NIL);

  10527 10 000002   000000 236000 11                 LDQ     0
        10 000003   200004 470500                    LDP0    @TYPE_DESC,,AUTO
        10 000004   000002 756100                    STQ     2,,PR0

      324    10528    1        TYPE_DESC.SSOP$ = ADDR(NIL);

  10528 10 000005   000003 756100                    STQ     3,,PR0

      325    10529
      326    10530    2        DO CASE(NODE$ -> ETT.ID);

  10530 10 000006   200003 471500                    LDP1    @NODE$,,AUTO
        10 000007   100000 473500                    LDP3    0,,PR1
        10 000010   300000 220100                    LDX0    0,,PR3
        10 000011   001010 100003                    CMPX0   520,DU
        10 000012   000014 602010 10                 TNC     s:10530+6,X0
        10 000013   004105 710000 10                 TRA     s:12298
        10 000014   004105 710000 10                 TRA     s:12298
        10 000015   003610 710000 10                 TRA     s:12054
        10 000016   003221 710000 10                 TRA     s:11793
        10 000017   003454 710000 10                 TRA     s:11979
        10 000020   003707 710000 10                 TRA     s:12151
        10 000021   003436 710000 10                 TRA     s:11975
        10 000022   003054 710000 10                 TRA     s:11753
        10 000023   003155 710000 10                 TRA     s:11782
        10 000024   004105 710000 10                 TRA     s:12298
        10 000025   003134 710000 10                 TRA     s:11776
        10 000026   003707 710000 10                 TRA     s:12151
        10 000027   004105 710000 10                 TRA     s:12298
        10 000030   003725 710000 10                 TRA     s:12156
        10 000031   003573 710000 10                 TRA     s:12049
        10 000032   004105 710000 10                 TRA     s:12298
        10 000033   004105 710000 10                 TRA     s:12298
        10 000034   003041 710000 10                 TRA     s:11741
        10 000035   001024 710000 10                 TRA     s:10540
PL6.E3A0      #003=Z8AU$TYPE_DESCRIPTOR File=Z8AU.:Z8A6TSI                       SAT 08/09/97 10:57 Page:75
        10 000036   001024 710000 10                 TRA     s:10540
        10 000037   001062 710000 10                 TRA     s:10609
        10 000040   001024 710000 10                 TRA     s:10540
        10 000041   004105 710000 10                 TRA     s:12298
        10 000042   003511 710000 10                 TRA     s:11988
        10 000043   004105 710000 10                 TRA     s:12298
        10 000044   004105 710000 10                 TRA     s:12298
        10 000045   004105 710000 10                 TRA     s:12298
        10 000046   004105 710000 10                 TRA     s:12298
        10 000047   004105 710000 10                 TRA     s:12298
        10 000050   001024 710000 10                 TRA     s:10540
        10 000051   001046 710000 10                 TRA     s:10583
        10 000052   003046 710000 10                 TRA     s:11747
        10 000053   003115 710000 10                 TRA     s:11766
        10 000054   001032 710000 10                 TRA     s:10555
        10 000055   001040 710000 10                 TRA     s:10570
        10 000056   001040 710000 10                 TRA     s:10570
        10 000057   001032 710000 10                 TRA     s:10555
        10 000060   001032 710000 10                 TRA     s:10555
        10 000061   001032 710000 10                 TRA     s:10555
        10 000062   001032 710000 10                 TRA     s:10555
        10 000063   001032 710000 10                 TRA     s:10555
        10 000064   001032 710000 10                 TRA     s:10555
        10 000065   001032 710000 10                 TRA     s:10555
        10 000066   001024 710000 10                 TRA     s:10540
        10 000067   001243 710000 10                 TRA     s:10703
        10 000070   001024 710000 10                 TRA     s:10540
        10 000071   001243 710000 10                 TRA     s:10703
        10 000072   001024 710000 10                 TRA     s:10540
        10 000073   002164 710000 10                 TRA     s:11195
        10 000074   001024 710000 10                 TRA     s:10540
        10 000075   002776 710000 10                 TRA     s:11687
        10 000076   001024 710000 10                 TRA     s:10540
        10 000077   002776 710000 10                 TRA     s:11687
        10 000100   004105 710000 10                 TRA     s:12298
        10 000101   001104 710000 10                 TRA     s:10621
        10 000102   001024 710000 10                 TRA     s:10540
PL6.E3A0      #003=Z8AU$TYPE_DESCRIPTOR File=Z8AU.:Z8A6TSI                       SAT 08/09/97 10:57 Page:76
        10 000103   001040 710000 10                 TRA     s:10570
        10 000104   001040 710000 10                 TRA     s:10570
        10 000105   001040 710000 10                 TRA     s:10570
        10 000106   001040 710000 10                 TRA     s:10570
        10 000107   001040 710000 10                 TRA     s:10570
        10 000110   003034 710000 10                 TRA     s:11736
        10 000111   001024 710000 10                 TRA     s:10540
        10 000112   002776 710000 10                 TRA     s:11687
        10 000113   002776 710000 10                 TRA     s:11687
        10 000114   004105 710000 10                 TRA     s:12298
        10 000115   003046 710000 10                 TRA     s:11747
        10 000116   003046 710000 10                 TRA     s:11747
        10 000117   004105 710000 10                 TRA     s:12298
        10 000120   001040 710000 10                 TRA     s:10570
        10 000121   004105 710000 10                 TRA     s:12298
        10 000122   004105 710000 10                 TRA     s:12298
        10 000123   004105 710000 10                 TRA     s:12298
        10 000124   004105 710000 10                 TRA     s:12298
        10 000125   004105 710000 10                 TRA     s:12298
        10 000126   004105 710000 10                 TRA     s:12298
        10 000127   004105 710000 10                 TRA     s:12298
        10 000130   001024 710000 10                 TRA     s:10540
        10 000131   001115 710000 10                 TRA     s:10624
        10 000132   004105 710000 10                 TRA     s:12298
        10 000133   004105 710000 10                 TRA     s:12298
        10 000134   004105 710000 10                 TRA     s:12298
        10 000135   004105 710000 10                 TRA     s:12298
        10 000136   004105 710000 10                 TRA     s:12298
        10 000137   004105 710000 10                 TRA     s:12298
        10 000140   003127 710000 10                 TRA     s:11772
        10 000141   003046 710000 10                 TRA     s:11747
        10 000142   003046 710000 10                 TRA     s:11747
        10 000143   003046 710000 10                 TRA     s:11747
        10 000144   003046 710000 10                 TRA     s:11747
        10 000145   003046 710000 10                 TRA     s:11747
        10 000146   001024 710000 10                 TRA     s:10540
        10 000147   001024 710000 10                 TRA     s:10540
PL6.E3A0      #003=Z8AU$TYPE_DESCRIPTOR File=Z8AU.:Z8A6TSI                       SAT 08/09/97 10:57 Page:77
        10 000150   001024 710000 10                 TRA     s:10540
        10 000151   001024 710000 10                 TRA     s:10540
        10 000152   001024 710000 10                 TRA     s:10540
        10 000153   001040 710000 10                 TRA     s:10570
        10 000154   001040 710000 10                 TRA     s:10570
        10 000155   001040 710000 10                 TRA     s:10570
        10 000156   001032 710000 10                 TRA     s:10555
        10 000157   001032 710000 10                 TRA     s:10555
        10 000160   001032 710000 10                 TRA     s:10555
        10 000161   001054 710000 10                 TRA     s:10596
        10 000162   001024 710000 10                 TRA     s:10540
        10 000163   004105 710000 10                 TRA     s:12298
        10 000164   003046 710000 10                 TRA     s:11747
        10 000165   003046 710000 10                 TRA     s:11747
        10 000166   001024 710000 10                 TRA     s:10540
        10 000167   001024 710000 10                 TRA     s:10540
        10 000170   001243 710000 10                 TRA     s:10703
        10 000171   004105 710000 10                 TRA     s:12298
        10 000172   004105 710000 10                 TRA     s:12298
        10 000173   004105 710000 10                 TRA     s:12298
        10 000174   004105 710000 10                 TRA     s:12298
        10 000175   004105 710000 10                 TRA     s:12298
        10 000176   004105 710000 10                 TRA     s:12298
        10 000177   001613 710000 10                 TRA     s:10954
        10 000200   001613 710000 10                 TRA     s:10954
        10 000201   002455 710000 10                 TRA     s:11437
        10 000202   002776 710000 10                 TRA     s:11687
        10 000203   002776 710000 10                 TRA     s:11687
        10 000204   004105 710000 10                 TRA     s:12298
        10 000205   001070 710000 10                 TRA     s:10617
        10 000206   001104 710000 10                 TRA     s:10621
        10 000207   001613 710000 10                 TRA     s:10954
        10 000210   003046 710000 10                 TRA     s:11747
        10 000211   004077 710000 10                 TRA     s:12289
        10 000212   004105 710000 10                 TRA     s:12298
        10 000213   004105 710000 10                 TRA     s:12298
        10 000214   004105 710000 10                 TRA     s:12298
PL6.E3A0      #003=Z8AU$TYPE_DESCRIPTOR File=Z8AU.:Z8A6TSI                       SAT 08/09/97 10:57 Page:78
        10 000215   004105 710000 10                 TRA     s:12298
        10 000216   004105 710000 10                 TRA     s:12298
        10 000217   004105 710000 10                 TRA     s:12298
        10 000220   004105 710000 10                 TRA     s:12298
        10 000221   004105 710000 10                 TRA     s:12298
        10 000222   004105 710000 10                 TRA     s:12298
        10 000223   004105 710000 10                 TRA     s:12298
        10 000224   004105 710000 10                 TRA     s:12298
        10 000225   004105 710000 10                 TRA     s:12298
        10 000226   004105 710000 10                 TRA     s:12298
        10 000227   004105 710000 10                 TRA     s:12298
        10 000230   004105 710000 10                 TRA     s:12298
        10 000231   004105 710000 10                 TRA     s:12298
        10 000232   004105 710000 10                 TRA     s:12298
        10 000233   004105 710000 10                 TRA     s:12298
        10 000234   004105 710000 10                 TRA     s:12298
        10 000235   004105 710000 10                 TRA     s:12298
        10 000236   004105 710000 10                 TRA     s:12298
        10 000237   004105 710000 10                 TRA     s:12298
        10 000240   004105 710000 10                 TRA     s:12298
        10 000241   004105 710000 10                 TRA     s:12298
        10 000242   004105 710000 10                 TRA     s:12298
        10 000243   004105 710000 10                 TRA     s:12298
        10 000244   004105 710000 10                 TRA     s:12298
        10 000245   004105 710000 10                 TRA     s:12298
        10 000246   004105 710000 10                 TRA     s:12298
        10 000247   004105 710000 10                 TRA     s:12298
        10 000250   004105 710000 10                 TRA     s:12298
        10 000251   004105 710000 10                 TRA     s:12298
        10 000252   004105 710000 10                 TRA     s:12298
        10 000253   004105 710000 10                 TRA     s:12298
        10 000254   004105 710000 10                 TRA     s:12298
        10 000255   004105 710000 10                 TRA     s:12298
        10 000256   004105 710000 10                 TRA     s:12298
        10 000257   004105 710000 10                 TRA     s:12298
        10 000260   004105 710000 10                 TRA     s:12298
        10 000261   004105 710000 10                 TRA     s:12298
PL6.E3A0      #003=Z8AU$TYPE_DESCRIPTOR File=Z8AU.:Z8A6TSI                       SAT 08/09/97 10:57 Page:79
        10 000262   004105 710000 10                 TRA     s:12298
        10 000263   004105 710000 10                 TRA     s:12298
        10 000264   004105 710000 10                 TRA     s:12298
        10 000265   004105 710000 10                 TRA     s:12298
        10 000266   004105 710000 10                 TRA     s:12298
        10 000267   004105 710000 10                 TRA     s:12298
        10 000270   004105 710000 10                 TRA     s:12298
        10 000271   004105 710000 10                 TRA     s:12298
        10 000272   004105 710000 10                 TRA     s:12298
        10 000273   004105 710000 10                 TRA     s:12298
        10 000274   004105 710000 10                 TRA     s:12298
        10 000275   004105 710000 10                 TRA     s:12298
        10 000276   004105 710000 10                 TRA     s:12298
        10 000277   004105 710000 10                 TRA     s:12298
        10 000300   004105 710000 10                 TRA     s:12298
        10 000301   004105 710000 10                 TRA     s:12298
        10 000302   004105 710000 10                 TRA     s:12298
        10 000303   004105 710000 10                 TRA     s:12298
        10 000304   004105 710000 10                 TRA     s:12298
        10 000305   004105 710000 10                 TRA     s:12298
        10 000306   004105 710000 10                 TRA     s:12298
        10 000307   004105 710000 10                 TRA     s:12298
        10 000310   004105 710000 10                 TRA     s:12298
        10 000311   004105 710000 10                 TRA     s:12298
        10 000312   004105 710000 10                 TRA     s:12298
        10 000313   004105 710000 10                 TRA     s:12298
        10 000314   004105 710000 10                 TRA     s:12298
        10 000315   004105 710000 10                 TRA     s:12298
        10 000316   004105 710000 10                 TRA     s:12298
        10 000317   004105 710000 10                 TRA     s:12298
        10 000320   004105 710000 10                 TRA     s:12298
        10 000321   004105 710000 10                 TRA     s:12298
        10 000322   004105 710000 10                 TRA     s:12298
        10 000323   004105 710000 10                 TRA     s:12298
        10 000324   004105 710000 10                 TRA     s:12298
        10 000325   004105 710000 10                 TRA     s:12298
        10 000326   004105 710000 10                 TRA     s:12298
PL6.E3A0      #003=Z8AU$TYPE_DESCRIPTOR File=Z8AU.:Z8A6TSI                       SAT 08/09/97 10:57 Page:80
        10 000327   004105 710000 10                 TRA     s:12298
        10 000330   004105 710000 10                 TRA     s:12298
        10 000331   004105 710000 10                 TRA     s:12298
        10 000332   004105 710000 10                 TRA     s:12298
        10 000333   004105 710000 10                 TRA     s:12298
        10 000334   004105 710000 10                 TRA     s:12298
        10 000335   004105 710000 10                 TRA     s:12298
        10 000336   004105 710000 10                 TRA     s:12298
        10 000337   004105 710000 10                 TRA     s:12298
        10 000340   004105 710000 10                 TRA     s:12298
        10 000341   004105 710000 10                 TRA     s:12298
        10 000342   004105 710000 10                 TRA     s:12298
        10 000343   004105 710000 10                 TRA     s:12298
        10 000344   004105 710000 10                 TRA     s:12298
        10 000345   004105 710000 10                 TRA     s:12298
        10 000346   004105 710000 10                 TRA     s:12298
        10 000347   004105 710000 10                 TRA     s:12298
        10 000350   004105 710000 10                 TRA     s:12298
        10 000351   004105 710000 10                 TRA     s:12298
        10 000352   004105 710000 10                 TRA     s:12298
        10 000353   004105 710000 10                 TRA     s:12298
        10 000354   004105 710000 10                 TRA     s:12298
        10 000355   004105 710000 10                 TRA     s:12298
        10 000356   004105 710000 10                 TRA     s:12298
        10 000357   004105 710000 10                 TRA     s:12298
        10 000360   004105 710000 10                 TRA     s:12298
        10 000361   004105 710000 10                 TRA     s:12298
        10 000362   004105 710000 10                 TRA     s:12298
        10 000363   004105 710000 10                 TRA     s:12298
        10 000364   004105 710000 10                 TRA     s:12298
        10 000365   004105 710000 10                 TRA     s:12298
        10 000366   004105 710000 10                 TRA     s:12298
        10 000367   004105 710000 10                 TRA     s:12298
        10 000370   004105 710000 10                 TRA     s:12298
        10 000371   004105 710000 10                 TRA     s:12298
        10 000372   004105 710000 10                 TRA     s:12298
        10 000373   004105 710000 10                 TRA     s:12298
PL6.E3A0      #003=Z8AU$TYPE_DESCRIPTOR File=Z8AU.:Z8A6TSI                       SAT 08/09/97 10:57 Page:81
        10 000374   004105 710000 10                 TRA     s:12298
        10 000375   004105 710000 10                 TRA     s:12298
        10 000376   004105 710000 10                 TRA     s:12298
        10 000377   004105 710000 10                 TRA     s:12298
        10 000400   004105 710000 10                 TRA     s:12298
        10 000401   004105 710000 10                 TRA     s:12298
        10 000402   004105 710000 10                 TRA     s:12298
        10 000403   004105 710000 10                 TRA     s:12298
        10 000404   004105 710000 10                 TRA     s:12298
        10 000405   004105 710000 10                 TRA     s:12298
        10 000406   004105 710000 10                 TRA     s:12298
        10 000407   004105 710000 10                 TRA     s:12298
        10 000410   004105 710000 10                 TRA     s:12298
        10 000411   004105 710000 10                 TRA     s:12298
        10 000412   004105 710000 10                 TRA     s:12298
        10 000413   004105 710000 10                 TRA     s:12298
        10 000414   004105 710000 10                 TRA     s:12298
        10 000415   004105 710000 10                 TRA     s:12298
        10 000416   004105 710000 10                 TRA     s:12298
        10 000417   004105 710000 10                 TRA     s:12298
        10 000420   004105 710000 10                 TRA     s:12298
        10 000421   004105 710000 10                 TRA     s:12298
        10 000422   004105 710000 10                 TRA     s:12298
        10 000423   004105 710000 10                 TRA     s:12298
        10 000424   004105 710000 10                 TRA     s:12298
        10 000425   004105 710000 10                 TRA     s:12298
        10 000426   004105 710000 10                 TRA     s:12298
        10 000427   004105 710000 10                 TRA     s:12298
        10 000430   004105 710000 10                 TRA     s:12298
        10 000431   004105 710000 10                 TRA     s:12298
        10 000432   004105 710000 10                 TRA     s:12298
        10 000433   004105 710000 10                 TRA     s:12298
        10 000434   004105 710000 10                 TRA     s:12298
        10 000435   004105 710000 10                 TRA     s:12298
        10 000436   004105 710000 10                 TRA     s:12298
        10 000437   004105 710000 10                 TRA     s:12298
        10 000440   004105 710000 10                 TRA     s:12298
PL6.E3A0      #003=Z8AU$TYPE_DESCRIPTOR File=Z8AU.:Z8A6TSI                       SAT 08/09/97 10:57 Page:82
        10 000441   004105 710000 10                 TRA     s:12298
        10 000442   004105 710000 10                 TRA     s:12298
        10 000443   004105 710000 10                 TRA     s:12298
        10 000444   004105 710000 10                 TRA     s:12298
        10 000445   004105 710000 10                 TRA     s:12298
        10 000446   004105 710000 10                 TRA     s:12298
        10 000447   004105 710000 10                 TRA     s:12298
        10 000450   004105 710000 10                 TRA     s:12298
        10 000451   004105 710000 10                 TRA     s:12298
        10 000452   004105 710000 10                 TRA     s:12298
        10 000453   004105 710000 10                 TRA     s:12298
        10 000454   004105 710000 10                 TRA     s:12298
        10 000455   004105 710000 10                 TRA     s:12298
        10 000456   004105 710000 10                 TRA     s:12298
        10 000457   004105 710000 10                 TRA     s:12298
        10 000460   004105 710000 10                 TRA     s:12298
        10 000461   004105 710000 10                 TRA     s:12298
        10 000462   004105 710000 10                 TRA     s:12298
        10 000463   004105 710000 10                 TRA     s:12298
        10 000464   004105 710000 10                 TRA     s:12298
        10 000465   004105 710000 10                 TRA     s:12298
        10 000466   004105 710000 10                 TRA     s:12298
        10 000467   004105 710000 10                 TRA     s:12298
        10 000470   004105 710000 10                 TRA     s:12298
        10 000471   004105 710000 10                 TRA     s:12298
        10 000472   004105 710000 10                 TRA     s:12298
        10 000473   004105 710000 10                 TRA     s:12298
        10 000474   004105 710000 10                 TRA     s:12298
        10 000475   004105 710000 10                 TRA     s:12298
        10 000476   004105 710000 10                 TRA     s:12298
        10 000477   004105 710000 10                 TRA     s:12298
        10 000500   004105 710000 10                 TRA     s:12298
        10 000501   004105 710000 10                 TRA     s:12298
        10 000502   004105 710000 10                 TRA     s:12298
        10 000503   004105 710000 10                 TRA     s:12298
        10 000504   004105 710000 10                 TRA     s:12298
        10 000505   004105 710000 10                 TRA     s:12298
PL6.E3A0      #003=Z8AU$TYPE_DESCRIPTOR File=Z8AU.:Z8A6TSI                       SAT 08/09/97 10:57 Page:83
        10 000506   004105 710000 10                 TRA     s:12298
        10 000507   004105 710000 10                 TRA     s:12298
        10 000510   004105 710000 10                 TRA     s:12298
        10 000511   004105 710000 10                 TRA     s:12298
        10 000512   004105 710000 10                 TRA     s:12298
        10 000513   004105 710000 10                 TRA     s:12298
        10 000514   004105 710000 10                 TRA     s:12298
        10 000515   004105 710000 10                 TRA     s:12298
        10 000516   004105 710000 10                 TRA     s:12298
        10 000517   004105 710000 10                 TRA     s:12298
        10 000520   004105 710000 10                 TRA     s:12298
        10 000521   004105 710000 10                 TRA     s:12298
        10 000522   004105 710000 10                 TRA     s:12298
        10 000523   004105 710000 10                 TRA     s:12298
        10 000524   004105 710000 10                 TRA     s:12298
        10 000525   004105 710000 10                 TRA     s:12298
        10 000526   004105 710000 10                 TRA     s:12298
        10 000527   004105 710000 10                 TRA     s:12298
        10 000530   004105 710000 10                 TRA     s:12298
        10 000531   004105 710000 10                 TRA     s:12298
        10 000532   004105 710000 10                 TRA     s:12298
        10 000533   004105 710000 10                 TRA     s:12298
        10 000534   004105 710000 10                 TRA     s:12298
        10 000535   004105 710000 10                 TRA     s:12298
        10 000536   004105 710000 10                 TRA     s:12298
        10 000537   004105 710000 10                 TRA     s:12298
        10 000540   004105 710000 10                 TRA     s:12298
        10 000541   004105 710000 10                 TRA     s:12298
        10 000542   004105 710000 10                 TRA     s:12298
        10 000543   004105 710000 10                 TRA     s:12298
        10 000544   004105 710000 10                 TRA     s:12298
        10 000545   004105 710000 10                 TRA     s:12298
        10 000546   004105 710000 10                 TRA     s:12298
        10 000547   004105 710000 10                 TRA     s:12298
        10 000550   004105 710000 10                 TRA     s:12298
        10 000551   004105 710000 10                 TRA     s:12298
        10 000552   004105 710000 10                 TRA     s:12298
PL6.E3A0      #003=Z8AU$TYPE_DESCRIPTOR File=Z8AU.:Z8A6TSI                       SAT 08/09/97 10:57 Page:84
        10 000553   004105 710000 10                 TRA     s:12298
        10 000554   004105 710000 10                 TRA     s:12298
        10 000555   004105 710000 10                 TRA     s:12298
        10 000556   004105 710000 10                 TRA     s:12298
        10 000557   004105 710000 10                 TRA     s:12298
        10 000560   004105 710000 10                 TRA     s:12298
        10 000561   004105 710000 10                 TRA     s:12298
        10 000562   004105 710000 10                 TRA     s:12298
        10 000563   004105 710000 10                 TRA     s:12298
        10 000564   004105 710000 10                 TRA     s:12298
        10 000565   004105 710000 10                 TRA     s:12298
        10 000566   004105 710000 10                 TRA     s:12298
        10 000567   004105 710000 10                 TRA     s:12298
        10 000570   004105 710000 10                 TRA     s:12298
        10 000571   004105 710000 10                 TRA     s:12298
        10 000572   004105 710000 10                 TRA     s:12298
        10 000573   004105 710000 10                 TRA     s:12298
        10 000574   004105 710000 10                 TRA     s:12298
        10 000575   004105 710000 10                 TRA     s:12298
        10 000576   004105 710000 10                 TRA     s:12298
        10 000577   004105 710000 10                 TRA     s:12298
        10 000600   004105 710000 10                 TRA     s:12298
        10 000601   004105 710000 10                 TRA     s:12298
        10 000602   004105 710000 10                 TRA     s:12298
        10 000603   004105 710000 10                 TRA     s:12298
        10 000604   004105 710000 10                 TRA     s:12298
        10 000605   004105 710000 10                 TRA     s:12298
        10 000606   004105 710000 10                 TRA     s:12298
        10 000607   004105 710000 10                 TRA     s:12298
        10 000610   004105 710000 10                 TRA     s:12298
        10 000611   004105 710000 10                 TRA     s:12298
        10 000612   004105 710000 10                 TRA     s:12298
        10 000613   004105 710000 10                 TRA     s:12298
        10 000614   004105 710000 10                 TRA     s:12298
        10 000615   004105 710000 10                 TRA     s:12298
        10 000616   004105 710000 10                 TRA     s:12298
        10 000617   004105 710000 10                 TRA     s:12298
PL6.E3A0      #003=Z8AU$TYPE_DESCRIPTOR File=Z8AU.:Z8A6TSI                       SAT 08/09/97 10:57 Page:85
        10 000620   004105 710000 10                 TRA     s:12298
        10 000621   004105 710000 10                 TRA     s:12298
        10 000622   004105 710000 10                 TRA     s:12298
        10 000623   004105 710000 10                 TRA     s:12298
        10 000624   004105 710000 10                 TRA     s:12298
        10 000625   004105 710000 10                 TRA     s:12298
        10 000626   004105 710000 10                 TRA     s:12298
        10 000627   004105 710000 10                 TRA     s:12298
        10 000630   004105 710000 10                 TRA     s:12298
        10 000631   004105 710000 10                 TRA     s:12298
        10 000632   004105 710000 10                 TRA     s:12298
        10 000633   004105 710000 10                 TRA     s:12298
        10 000634   004105 710000 10                 TRA     s:12298
        10 000635   004105 710000 10                 TRA     s:12298
        10 000636   004105 710000 10                 TRA     s:12298
        10 000637   004105 710000 10                 TRA     s:12298
        10 000640   004105 710000 10                 TRA     s:12298
        10 000641   004105 710000 10                 TRA     s:12298
        10 000642   004105 710000 10                 TRA     s:12298
        10 000643   004105 710000 10                 TRA     s:12298
        10 000644   004105 710000 10                 TRA     s:12298
        10 000645   004105 710000 10                 TRA     s:12298
        10 000646   004105 710000 10                 TRA     s:12298
        10 000647   004105 710000 10                 TRA     s:12298
        10 000650   004105 710000 10                 TRA     s:12298
        10 000651   004105 710000 10                 TRA     s:12298
        10 000652   004105 710000 10                 TRA     s:12298
        10 000653   004105 710000 10                 TRA     s:12298
        10 000654   004105 710000 10                 TRA     s:12298
        10 000655   004105 710000 10                 TRA     s:12298
        10 000656   004105 710000 10                 TRA     s:12298
        10 000657   004105 710000 10                 TRA     s:12298
        10 000660   004105 710000 10                 TRA     s:12298
        10 000661   004105 710000 10                 TRA     s:12298
        10 000662   004105 710000 10                 TRA     s:12298
        10 000663   004105 710000 10                 TRA     s:12298
        10 000664   004105 710000 10                 TRA     s:12298
PL6.E3A0      #003=Z8AU$TYPE_DESCRIPTOR File=Z8AU.:Z8A6TSI                       SAT 08/09/97 10:57 Page:86
        10 000665   004105 710000 10                 TRA     s:12298
        10 000666   004105 710000 10                 TRA     s:12298
        10 000667   004105 710000 10                 TRA     s:12298
        10 000670   004105 710000 10                 TRA     s:12298
        10 000671   004105 710000 10                 TRA     s:12298
        10 000672   004105 710000 10                 TRA     s:12298
        10 000673   004105 710000 10                 TRA     s:12298
        10 000674   004105 710000 10                 TRA     s:12298
        10 000675   004105 710000 10                 TRA     s:12298
        10 000676   004105 710000 10                 TRA     s:12298
        10 000677   004105 710000 10                 TRA     s:12298
        10 000700   004105 710000 10                 TRA     s:12298
        10 000701   004105 710000 10                 TRA     s:12298
        10 000702   004105 710000 10                 TRA     s:12298
        10 000703   004105 710000 10                 TRA     s:12298
        10 000704   004105 710000 10                 TRA     s:12298
        10 000705   004105 710000 10                 TRA     s:12298
        10 000706   004105 710000 10                 TRA     s:12298
        10 000707   004105 710000 10                 TRA     s:12298
        10 000710   004105 710000 10                 TRA     s:12298
        10 000711   004105 710000 10                 TRA     s:12298
        10 000712   004105 710000 10                 TRA     s:12298
        10 000713   004105 710000 10                 TRA     s:12298
        10 000714   004105 710000 10                 TRA     s:12298
        10 000715   004105 710000 10                 TRA     s:12298
        10 000716   004105 710000 10                 TRA     s:12298
        10 000717   004105 710000 10                 TRA     s:12298
        10 000720   004105 710000 10                 TRA     s:12298
        10 000721   004105 710000 10                 TRA     s:12298
        10 000722   004105 710000 10                 TRA     s:12298
        10 000723   004105 710000 10                 TRA     s:12298
        10 000724   004105 710000 10                 TRA     s:12298
        10 000725   004105 710000 10                 TRA     s:12298
        10 000726   004105 710000 10                 TRA     s:12298
        10 000727   004105 710000 10                 TRA     s:12298
        10 000730   004105 710000 10                 TRA     s:12298
        10 000731   004105 710000 10                 TRA     s:12298
PL6.E3A0      #003=Z8AU$TYPE_DESCRIPTOR File=Z8AU.:Z8A6TSI                       SAT 08/09/97 10:57 Page:87
        10 000732   004105 710000 10                 TRA     s:12298
        10 000733   004105 710000 10                 TRA     s:12298
        10 000734   004105 710000 10                 TRA     s:12298
        10 000735   004105 710000 10                 TRA     s:12298
        10 000736   004105 710000 10                 TRA     s:12298
        10 000737   004105 710000 10                 TRA     s:12298
        10 000740   004105 710000 10                 TRA     s:12298
        10 000741   004105 710000 10                 TRA     s:12298
        10 000742   004105 710000 10                 TRA     s:12298
        10 000743   004105 710000 10                 TRA     s:12298
        10 000744   004105 710000 10                 TRA     s:12298
        10 000745   004105 710000 10                 TRA     s:12298
        10 000746   004105 710000 10                 TRA     s:12298
        10 000747   004105 710000 10                 TRA     s:12298
        10 000750   004105 710000 10                 TRA     s:12298
        10 000751   004105 710000 10                 TRA     s:12298
        10 000752   004105 710000 10                 TRA     s:12298
        10 000753   004105 710000 10                 TRA     s:12298
        10 000754   004105 710000 10                 TRA     s:12298
        10 000755   004105 710000 10                 TRA     s:12298
        10 000756   004105 710000 10                 TRA     s:12298
        10 000757   004105 710000 10                 TRA     s:12298
        10 000760   004105 710000 10                 TRA     s:12298
        10 000761   004105 710000 10                 TRA     s:12298
        10 000762   004105 710000 10                 TRA     s:12298
        10 000763   004105 710000 10                 TRA     s:12298
        10 000764   004105 710000 10                 TRA     s:12298
        10 000765   003675 710000 10                 TRA     s:12146
        10 000766   003675 710000 10                 TRA     s:12146
        10 000767   003675 710000 10                 TRA     s:12146
        10 000770   003675 710000 10                 TRA     s:12146
        10 000771   003675 710000 10                 TRA     s:12146
        10 000772   004105 710000 10                 TRA     s:12298
        10 000773   003675 710000 10                 TRA     s:12146
        10 000774   003675 710000 10                 TRA     s:12146
        10 000775   003675 710000 10                 TRA     s:12146
        10 000776   003675 710000 10                 TRA     s:12146
PL6.E3A0      #003=Z8AU$TYPE_DESCRIPTOR File=Z8AU.:Z8A6TSI                       SAT 08/09/97 10:57 Page:88
        10 000777   003675 710000 10                 TRA     s:12146
        10 001000   003675 710000 10                 TRA     s:12146
        10 001001   003675 710000 10                 TRA     s:12146
        10 001002   003675 710000 10                 TRA     s:12146
        10 001003   003675 710000 10                 TRA     s:12146
        10 001004   003675 710000 10                 TRA     s:12146
        10 001005   003675 710000 10                 TRA     s:12146
        10 001006   003675 710000 10                 TRA     s:12146
        10 001007   003675 710000 10                 TRA     s:12146
        10 001010   003675 710000 10                 TRA     s:12146
        10 001011   003675 710000 10                 TRA     s:12146
        10 001012   003675 710000 10                 TRA     s:12146
        10 001013   003675 710000 10                 TRA     s:12146
        10 001014   003675 710000 10                 TRA     s:12146
        10 001015   004105 710000 10                 TRA     s:12298
        10 001016   003675 710000 10                 TRA     s:12146
        10 001017   003675 710000 10                 TRA     s:12146
        10 001020   003675 710000 10                 TRA     s:12146
        10 001021   003675 710000 10                 TRA     s:12146
        10 001022   003675 710000 10                 TRA     s:12146
        10 001023   003675 710000 10                 TRA     s:12146

      327    10531    2          CASE(%ADI,  %SBI,  %MPI,  %DVI,  %USI,  %CVDI,  %CVJI,

      328    10532    2               %CVHI, %CVRI, %CVQI, %EXII,
      329    10533    2               %ANDI, %ORI,  %MINI, %INDEX, %MPI2, %CVKI, %MODI,
      330    10534    2               %ASC_BIN,     %DVI2);
      331    10535                 %BUILD_BINARY_DESC ( @DESC    = TYPE_DESC.DESC ,
      332    10536                                      @LENGTH  = %TYI_LENGTH );

  10540 10 001024   000001 450100                    STZ     1,,PR0

  10541 10 001025   000004 236007                    LDQ     4,DL
        10 001026   000001 752101                    STCQ    1,'01'O,PR0

      333    10544
      334    10545    2            TYPE_DESC.TYPE = %TYI;
PL6.E3A0      #003=Z8AU$TYPE_DESCRIPTOR File=Z8AU.:Z8A6TSI                       SAT 08/09/97 10:57 Page:89

  10545 10 001027   000001 235007                    LDA     1,DL
        10 001030   000000 755100                    STA     0,,PR0
        10 001031   004111 710000 10                 TRA     s:12302

      335    10546
      336    10547    2          CASE(%ADQ,  %SBQ,  %MPQ,  %DVQ,  %USQ,  %CVDQR, %RNDQ,

      337    10548    2               %CVRQ, %EXQQ, %CVIQ, %EXQI );
      338    10549
      339    10550                 %BUILD_BINARY_DESC ( @DESC    = TYPE_DESC.DESC ,
      340    10551                                      @LENGTH  = %TYQ_LENGTH );

  10555 10 001032   000001 450100                    STZ     1,,PR0

  10556 10 001033   000010 236007                    LDQ     8,DL
        10 001034   000001 752101                    STCQ    1,'01'O,PR0

      341    10559
      342    10560    2            TYPE_DESC.TYPE = %TYQ;

  10560 10 001035   000005 235007                    LDA     5,DL
        10 001036   000000 755100                    STA     0,,PR0
        10 001037   004111 710000 10                 TRA     s:12302

      343    10561
      344    10562    2          CASE(%ADR,  %SBR,  %MPR,  %DVR,  %USR,  %CVDRR, %RNDR,

      345    10563    2               %CVQR, %EXRR, %CVIR, %EXRI );
      346    10564
      347    10565                 %BUILD_BINARY_DESC ( @DESC    = TYPE_DESC.DESC ,
      348    10566                                      @LENGTH  = %TYR_LENGTH );

  10570 10 001040   000001 450100                    STZ     1,,PR0

  10571 10 001041   000004 236007                    LDQ     4,DL
        10 001042   000001 752101                    STCQ    1,'01'O,PR0
PL6.E3A0      #003=Z8AU$TYPE_DESCRIPTOR File=Z8AU.:Z8A6TSI                       SAT 08/09/97 10:57 Page:90

      349    10574
      350    10575    2            TYPE_DESC.TYPE = %TYR;

  10575 10 001043   000004 235007                    LDA     4,DL
        10 001044   000000 755100                    STA     0,,PR0
        10 001045   004111 710000 10                 TRA     s:12302

      351    10576
      352    10577    2          CASE(%CVIH);

      353    10578                 %BUILD_BINARY_DESC ( @DESC    = TYPE_DESC.DESC ,
      354    10579                                      @LENGTH  = %TYH_LENGTH );

  10583 10 001046   000001 450100                    STZ     1,,PR0

  10584 10 001047   000002 236007                    LDQ     2,DL
        10 001050   000001 752101                    STCQ    1,'01'O,PR0

      355    10587
      356    10588    2            TYPE_DESC.TYPE = %TYH;

  10588 10 001051   000007 235007                    LDA     7,DL
        10 001052   000000 755100                    STA     0,,PR0
        10 001053   004111 710000 10                 TRA     s:12302

      357    10589
      358    10590    2          CASE(%CVIJ);

      359    10591                 %BUILD_BINARY_DESC (@DESC   = TYPE_DESC.DESC,
      360    10592                                     @LENGTH = %TYJ_LENGTH);

  10596 10 001054   000001 450100                    STZ     1,,PR0

  10597 10 001055   000002 236007                    LDQ     2,DL
        10 001056   000001 752101                    STCQ    1,'01'O,PR0

PL6.E3A0      #003=Z8AU$TYPE_DESCRIPTOR File=Z8AU.:Z8A6TSI                       SAT 08/09/97 10:57 Page:91
      361    10600
      362    10601    2            TYPE_DESC.TYPE = %TYJ;

  10601 10 001057   000002 235007                    LDA     2,DL
        10 001060   000000 755100                    STA     0,,PR0
        10 001061   004111 710000 10                 TRA     s:12302

      363    10602
      364    10603    2          CASE(%CVIK);

      365    10604                 %BUILD_BINARY_DESC (@DESC   = TYPE_DESC.DESC,
      366    10605                                     @LENGTH = %TYK_LENGTH);

  10609 10 001062   000001 450100                    STZ     1,,PR0

  10610 10 001063   000004 236007                    LDQ     4,DL
        10 001064   000001 752101                    STCQ    1,'01'O,PR0

      367    10613
      368    10614    2            TYPE_DESC.TYPE = %TYK;

  10614 10 001065   000017 235007                    LDA     15,DL
        10 001066   000000 755100                    STA     0,,PR0
        10 001067   004111 710000 10                 TRA     s:12302

      369    10615
      370    10616    2          CASE(%EVAL);

      371    10617    2            CALL Z8AU$TYPE_DESCRIPTOR(NODE$ -> ETT.LOP,TYPE_DESC);

  10617 10 001070   200004 236100                    LDQ     @TYPE_DESC,,AUTO
        10 001071   200053 756100                    STQ     ETT$$+2,,AUTO
        10 001072   300001 634500                    EPPR4   1,,PR3
        10 001073   200052 454500                    STP4    ETT$$+1,,AUTO
        10 001074   200052 630500                    EPPR0   ETT$$+1,,AUTO
        10 001075   000001 631400 11                 EPPR1   1
        10 001076   000000 701000 10                 TSX1    s:6
PL6.E3A0      #003=Z8AU$TYPE_DESCRIPTOR File=Z8AU.:Z8A6TSI                       SAT 08/09/97 10:57 Page:92
        10 001077   000000 011000                    NOP     0

      372    10618    2            TYPE_DESC.DESC.SA = 1;
             10618                     /* So temp will not be assumed on double-word bound */

  10618 10 001100   000001 220003                    LDX0    1,DU
        10 001101   200004 470500                    LDP0    @TYPE_DESC,,AUTO
        10 001102   000001 740100                    STX0    1,,PR0
        10 001103   004111 710000 10                 TRA     s:12302

      373    10619
      374    10620    2          CASE(%USD, %USO);

      375    10621    2            CALL Z8AU$TYPE_DESCRIPTOR(NODE$ -> ETT.LOP,TYPE_DESC);

  10621 10 001104   200004 236100                    LDQ     @TYPE_DESC,,AUTO
        10 001105   200053 756100                    STQ     ETT$$+2,,AUTO
        10 001106   300001 634500                    EPPR4   1,,PR3
        10 001107   200052 454500                    STP4    ETT$$+1,,AUTO
        10 001110   200052 630500                    EPPR0   ETT$$+1,,AUTO
        10 001111   000001 631400 11                 EPPR1   1
        10 001112   000000 701000 10                 TSX1    s:6
        10 001113   000000 011000                    NOP     0
        10 001114   004111 710000 10                 TRA     s:12302

      376    10622
      377    10623    2          CASE(%CVT);

      378    10624    2            CALL Z8AU$TYPE_DESCRIPTOR(NODE$ -> ETT.LOP,TYPE_DESC);

  10624 10 001115   200004 236100                    LDQ     @TYPE_DESC,,AUTO
        10 001116   200053 756100                    STQ     ETT$$+2,,AUTO
        10 001117   300001 634500                    EPPR4   1,,PR3
        10 001120   200052 454500                    STP4    ETT$$+1,,AUTO
        10 001121   200052 630500                    EPPR0   ETT$$+1,,AUTO
        10 001122   000001 631400 11                 EPPR1   1
        10 001123   000000 701000 10                 TSX1    s:6
PL6.E3A0      #003=Z8AU$TYPE_DESCRIPTOR File=Z8AU.:Z8A6TSI                       SAT 08/09/97 10:57 Page:93
        10 001124   000000 011000                    NOP     0

      379    10625    2            TYPE_DESC.DESC.NDSC.CN = 0;

  10625 10 001125   200004 470500                    LDP0    @TYPE_DESC,,AUTO
        10 001126   000002 236000 11                 LDQ     2
        10 001127   000001 356100                    ANSQ    1,,PR0

      380    10626    2            IF

  10626 10 001130   200003 471500                    LDP1    @NODE$,,AUTO
        10 001131   100000 473500                    LDP3    0,,PR1
        10 001132   300002 474500                    LDP4    2,,PR3
        10 001133   400001 475500                    LDP5    1,,PR4
        10 001134   500001 220100                    LDX0    1,,PR5
        10 001135   002663 100003                    CMPX0   1459,DU
        10 001136   001161 601000 10                 TNZ     s:10647

      381    10627                   %IF GCOS;
      383    10629                   %ELSE;
      384    10630    2              NODE$ -> ETT.ROP  -> ETT.LOP -> SCALAR.SA = %OP_GBCD_TO_ASCII
      385    10631                   %ENDIF;
      386    10632    2              THEN
      387    10633    3                DO;

      388    10634    3                  IF TYPE_DESC.TYPE = %TYB THEN

  10634 10 001137   000000 235100                    LDA     0,,PR0
        10 001140   000014 115007                    CMPA    12,DL
        10 001141   001147 601000 10                 TNZ     s:10641

      389    10635    4                    DO;

      390    10636    4                      TYPE_DESC.DESC.ADSC.TA = %ADSC9;

  10636 10 001142   000003 236000 11                 LDQ     3
        10 001143   000001 356100                    ANSQ    1,,PR0
PL6.E3A0      #003=Z8AU$TYPE_DESCRIPTOR File=Z8AU.:Z8A6TSI                       SAT 08/09/97 10:57 Page:94

      391    10637    4                      TYPE_DESC.TYPE = %TYA;

  10637 10 001144   000010 235007                    LDA     8,DL
        10 001145   000000 755100                    STA     0,,PR0

      392    10638    4                    END;

  10638 10 001146   004111 710000 10                 TRA     s:12302

      393    10639    3                  ELSE
      394    10640    4                    DO;

      395    10641    4                      IF TYPE_DESC.DESC.NDSC.TN = %NDSC4 /* GBCD overpunched */

  10641 10 001147   000001 236100                    LDQ     1,,PR0
        10 001150   040000 316007                    CANQ    16384,DL
        10 001151   001155 600000 10                 TZE     s:10643

      396    10642    4                        THEN TYPE_DESC.TYPE = %TYO;

  10642 10 001152   000003 235007                    LDA     3,DL
        10 001153   000000 755100                    STA     0,,PR0
        10 001154   001156 710000 10                 TRA     s:10644

      397    10643    4                        ELSE TYPE_DESC.TYPE = %TYD;

  10643 10 001155   000000 450100                    STZ     0,,PR0

      398    10644    4                      TYPE_DESC.DESC.NDSC.TN = %NDSC9;

  10644 10 001156   000004 236000 11                 LDQ     4
        10 001157   000001 356100                    ANSQ    1,,PR0

      399    10645    4                    END;

      400    10646    3                END;
PL6.E3A0      #003=Z8AU$TYPE_DESCRIPTOR File=Z8AU.:Z8A6TSI                       SAT 08/09/97 10:57 Page:95

  10646 10 001160   004111 710000 10                 TRA     s:12302

      401    10647    2            ELSE IF

  10647 10 001161   000262 100003                    CMPX0   178,DU
        10 001162   001202 601000 10                 TNZ     s:10666

      402    10648                   %IF GCOS;
      404    10650                   %ELSE;
      405    10651    2              NODE$ -> ETT.ROP -> ETT.LOP -> SCALAR.SA = %OP_ASCII_TO_GBCD
      406    10652                   %ENDIF;
      407    10653    2              THEN
      408    10654    3                DO;

      409    10655    3                  IF TYPE_DESC.TYPE = %TYA THEN

  10655 10 001163   000000 235100                    LDA     0,,PR0
        10 001164   000010 115007                    CMPA    8,DL
        10 001165   001175 601000 10                 TNZ     s:10662

      410    10656    4                    DO;

      411    10657    4                      TYPE_DESC.DESC.ADSC.TA = %ADSC6;

  10657 10 001166   000001 236100                    LDQ     1,,PR0
        10 001167   000003 376000 11                 ANQ     3
        10 001170   020000 276007                    ORQ     8192,DL
        10 001171   000001 756100                    STQ     1,,PR0

      412    10658    4                      TYPE_DESC.TYPE = %TYB;

  10658 10 001172   000014 235007                    LDA     12,DL
        10 001173   000000 755100                    STA     0,,PR0

      413    10659    4                    END;

PL6.E3A0      #003=Z8AU$TYPE_DESCRIPTOR File=Z8AU.:Z8A6TSI                       SAT 08/09/97 10:57 Page:96
  10659 10 001174   004111 710000 10                 TRA     s:12302

      414    10660    3                  ELSE
      415    10661    4                    DO;

      416    10662    4                      TYPE_DESC.DESC.NDSC.TN = %NDSC9;

  10662 10 001175   000004 236000 11                 LDQ     4
        10 001176   000001 356100                    ANSQ    1,,PR0

      417    10663    4                      TYPE_DESC.TYPE = %TYC;

  10663 10 001177   000023 235007                    LDA     19,DL
        10 001200   000000 755100                    STA     0,,PR0

      418    10664    4                    END;

      419    10665    3                END;

  10665 10 001201   004111 710000 10                 TRA     s:12302

      420    10666    2            ELSE IF

  10666 10 001202   002723 100003                    CMPX0   1491,DU
        10 001203   001224 601000 10                 TNZ     s:10684

      421    10667                   %IF GCOS;
      423    10669                   %ELSE;
      424    10670    2              NODE$ -> ETT.ROP -> ETT.LOP -> SCALAR.SA = %OP_EBCDIC_TO_ASCII
      425    10671                   %ENDIF;
      426    10672    2              THEN
      427    10673    3                DO;

      428    10674    3                  IF TYPE_DESC.TYPE = %TYE THEN

  10674 10 001204   000000 235100                    LDA     0,,PR0
        10 001205   000006 115007                    CMPA    6,DL
PL6.E3A0      #003=Z8AU$TYPE_DESCRIPTOR File=Z8AU.:Z8A6TSI                       SAT 08/09/97 10:57 Page:97
        10 001206   001212 601000 10                 TNZ     s:10676

      429    10675    3                    TYPE_DESC.TYPE = %TYA;

  10675 10 001207   000010 235007                    LDA     8,DL
        10 001210   000000 755100                    STA     0,,PR0
        10 001211   004111 710000 10                 TRA     s:12302

      430    10676    3                  ELSE IF TYPE_DESC.DESC.NDSC.TN = %NDSC4 /* Overpunched */ THEN

  10676 10 001212   000001 236100                    LDQ     1,,PR0
        10 001213   040000 316007                    CANQ    16384,DL
        10 001214   001222 600000 10                 TZE     s:10682

      431    10677    4                    DO;

      432    10678    4                      TYPE_DESC.TYPE = %TYO;

  10678 10 001215   000003 235007                    LDA     3,DL
        10 001216   000000 755100                    STA     0,,PR0

      433    10679    4                      TYPE_DESC.DESC.NDSC.TN = %NDSC9;

  10679 10 001217   000004 236000 11                 LDQ     4
        10 001220   000001 356100                    ANSQ    1,,PR0

      434    10680    4                    END;

  10680 10 001221   004111 710000 10                 TRA     s:12302

      435    10681    3                  ELSE
      436    10682    3                    TYPE_DESC.TYPE = %TYD;

  10682 10 001222   000000 450100                    STZ     0,,PR0

      437    10683    3                END;

PL6.E3A0      #003=Z8AU$TYPE_DESCRIPTOR File=Z8AU.:Z8A6TSI                       SAT 08/09/97 10:57 Page:98
  10683 10 001223   004111 710000 10                 TRA     s:12302

      438    10684    2            ELSE IF

  10684 10 001224   001662 100003                    CMPX0   946,DU
        10 001225   004111 601000 10                 TNZ     s:12302

      439    10685                   %IF GCOS;
      441    10687                   %ELSE;
      442    10688    2              NODE$ -> ETT.ROP -> ETT.LOP -> SCALAR.SA = %OP_ASCII_TO_EBCDIC
      443    10689                   %ENDIF;
      444    10690    2              THEN
      445    10691    3                DO;

      446    10692    3                  IF TYPE_DESC.TYPE = %TYA THEN

  10692 10 001226   000000 235100                    LDA     0,,PR0
        10 001227   000010 115007                    CMPA    8,DL
        10 001230   001234 601000 10                 TNZ     s:10696

      447    10693    3                    TYPE_DESC.TYPE = %TYE;

  10693 10 001231   000006 235007                    LDA     6,DL
        10 001232   000000 755100                    STA     0,,PR0
        10 001233   004111 710000 10                 TRA     s:12302

      448    10694    3                  ELSE
      449    10695    4                    DO;

      450    10696    4                      IF TYPE_DESC.TYPE = %TYO THEN

  10696 10 001234   000003 115007                    CMPA    3,DL
        10 001235   001240 601000 10                 TNZ     s:10698

      451    10697    4                        TYPE_DESC.DESC.NDSC.TN = %NDSC4; /* Overpunched */

  10697 10 001236   040000 236007                    LDQ     16384,DL
PL6.E3A0      #003=Z8AU$TYPE_DESCRIPTOR File=Z8AU.:Z8A6TSI                       SAT 08/09/97 10:57 Page:99
        10 001237   000001 256100                    ORSQ    1,,PR0

      452    10698    4                      TYPE_DESC.TYPE = %TYF;

  10698 10 001240   000013 236007                    LDQ     11,DL
        10 001241   000000 756100                    STQ     0,,PR0

      453    10699    4                    END;

      454    10700    3                END;

  10700 10 001242   004111 710000 10                 TRA     s:12302

      455    10701
      456    10702    2          CASE(%ADD, %SBD, %MIND);

      457    10703    2            CALL Z8AU$TYPE_DESCRIPTOR(NODE$ -> ETT.LOP, LOP_DESC);

  10703 10 001243   200026 634500                    EPPR4   LOP_DESC,,AUTO
        10 001244   200053 454500                    STP4    ETT$$+2,,AUTO
        10 001245   300001 635500                    EPPR5   1,,PR3
        10 001246   200052 455500                    STP5    ETT$$+1,,AUTO
        10 001247   200052 630500                    EPPR0   ETT$$+1,,AUTO
        10 001250   000001 631400 11                 EPPR1   1
        10 001251   000000 701000 10                 TSX1    s:6
        10 001252   000000 011000                    NOP     0

      458    10704    2            CALL Z8AU$TYPE_DESCRIPTOR(NODE$ -> ETT.ROP, ROP_DESC);

  10704 10 001253   200003 470500                    LDP0    @NODE$,,AUTO
        10 001254   000000 471500                    LDP1    0,,PR0
        10 001255   200032 633500                    EPPR3   ROP_DESC,,AUTO
        10 001256   200053 453500                    STP3    ETT$$+2,,AUTO
        10 001257   100002 634500                    EPPR4   2,,PR1
        10 001260   200052 454500                    STP4    ETT$$+1,,AUTO
        10 001261   200052 630500                    EPPR0   ETT$$+1,,AUTO
        10 001262   000001 631400 11                 EPPR1   1
PL6.E3A0      #003=Z8AU$TYPE_DESCRIPTOR File=Z8AU.:Z8A6TSI                       SAT 08/09/97 10:57 Page:100
        10 001263   000000 701000 10                 TSX1    s:6
        10 001264   000000 011000                    NOP     0

      459    10705
      460    10706                 %UNPACK_NDSC ( @DESC   = LOP_DESC.DESC ,
      461    10707                                @SIGN   = LOP_SIGN,
      462    10708                                @LENGTH = P ,
      463    10709                                @SCALE  = Q );

  10716 10 001265   200027 236100                    LDQ     LOP_DESC+1,,AUTO
        10 001266   000014 772000                    QRL     12
        10 001267   000003 376007                    ANQ     3,DL
        10 001270   000004 116007                    CMPQ    4,DL
        10 001271   001273 602006 10                 TNC     s:10716+6,QL
        10 001272   001324 710000 10                 TRA     s:10756
        10 001273   001310 710000 10                 TRA     s:10740
        10 001274   001303 710000 10                 TRA     s:10723
        10 001275   001303 710000 10                 TRA     s:10723
        10 001276   001277 710000 10                 TRA     s:10718

  10718 10 001277   200027 236100                    LDQ     LOP_DESC+1,,AUTO
        10 001300   000077 376007                    ANQ     63,DL
        10 001301   200036 756100                    STQ     P,,AUTO
        10 001302   001324 710000 10                 TRA     s:10756

  10723 10 001303   200027 236100                    LDQ     LOP_DESC+1,,AUTO
        10 001304   000077 376007                    ANQ     63,DL
        10 001305   000001 136007                    SBLQ    1,DL
        10 001306   200036 756100                    STQ     P,,AUTO
        10 001307   001324 710000 10                 TRA     s:10756

  10740 10 001310   200027 236100                    LDQ     LOP_DESC+1,,AUTO
        10 001311   040000 316007                    CANQ    16384,DL
        10 001312   001320 600000 10                 TZE     s:10743

  10741 10 001313   200027 236100                    LDQ     LOP_DESC+1,,AUTO
        10 001314   000077 376007                    ANQ     63,DL
PL6.E3A0      #003=Z8AU$TYPE_DESCRIPTOR File=Z8AU.:Z8A6TSI                       SAT 08/09/97 10:57 Page:101
        10 001315   000003 136007                    SBLQ    3,DL
        10 001316   200036 756100                    STQ     P,,AUTO
        10 001317   001324 710000 10                 TRA     s:10756

  10743 10 001320   200027 236100                    LDQ     LOP_DESC+1,,AUTO
        10 001321   000077 376007                    ANQ     63,DL
        10 001322   000002 136007                    SBLQ    2,DL
        10 001323   200036 756100                    STQ     P,,AUTO

  10756 10 001324   200027 236100                    LDQ     LOP_DESC+1,,AUTO
        10 001325   000030 736000                    QLS     24
        10 001326   000036 732000                    QRS     30
        10 001327   200037 756100                    STQ     Q,,AUTO

  10759 10 001330   200027 236100                    LDQ     LOP_DESC+1,,AUTO
        10 001331   000026 736000                    QLS     22
        10 001332   600000 376003                    ANQ     -65536,DU
        10 001333   200042 756100                    STQ     LOP_SIGN,,AUTO

      464    10764
      465    10765                 %UNPACK_NDSC ( @DESC   = ROP_DESC.DESC ,
      466    10766                                @SIGN   = ROP_SIGN,
      467    10767                                @LENGTH = R ,
      468    10768                                @SCALE  = S );

  10775 10 001334   200033 236100                    LDQ     ROP_DESC+1,,AUTO
        10 001335   000014 772000                    QRL     12
        10 001336   000003 376007                    ANQ     3,DL
        10 001337   000004 116007                    CMPQ    4,DL
        10 001340   001342 602006 10                 TNC     s:10775+6,QL
        10 001341   001373 710000 10                 TRA     s:10815
        10 001342   001357 710000 10                 TRA     s:10799
        10 001343   001352 710000 10                 TRA     s:10782
        10 001344   001352 710000 10                 TRA     s:10782
        10 001345   001346 710000 10                 TRA     s:10777

  10777 10 001346   200033 236100                    LDQ     ROP_DESC+1,,AUTO
PL6.E3A0      #003=Z8AU$TYPE_DESCRIPTOR File=Z8AU.:Z8A6TSI                       SAT 08/09/97 10:57 Page:102
        10 001347   000077 376007                    ANQ     63,DL
        10 001350   200040 756100                    STQ     R,,AUTO
        10 001351   001373 710000 10                 TRA     s:10815

  10782 10 001352   200033 236100                    LDQ     ROP_DESC+1,,AUTO
        10 001353   000077 376007                    ANQ     63,DL
        10 001354   000001 136007                    SBLQ    1,DL
        10 001355   200040 756100                    STQ     R,,AUTO
        10 001356   001373 710000 10                 TRA     s:10815

  10799 10 001357   200033 236100                    LDQ     ROP_DESC+1,,AUTO
        10 001360   040000 316007                    CANQ    16384,DL
        10 001361   001367 600000 10                 TZE     s:10802

  10800 10 001362   200033 236100                    LDQ     ROP_DESC+1,,AUTO
        10 001363   000077 376007                    ANQ     63,DL
        10 001364   000003 136007                    SBLQ    3,DL
        10 001365   200040 756100                    STQ     R,,AUTO
        10 001366   001373 710000 10                 TRA     s:10815

  10802 10 001367   200033 236100                    LDQ     ROP_DESC+1,,AUTO
        10 001370   000077 376007                    ANQ     63,DL
        10 001371   000002 136007                    SBLQ    2,DL
        10 001372   200040 756100                    STQ     R,,AUTO

  10815 10 001373   200033 236100                    LDQ     ROP_DESC+1,,AUTO
        10 001374   000030 736000                    QLS     24
        10 001375   000036 732000                    QRS     30
        10 001376   200041 756100                    STQ     S,,AUTO

  10818 10 001377   200033 236100                    LDQ     ROP_DESC+1,,AUTO
        10 001400   000026 736000                    QLS     22
        10 001401   600000 376003                    ANQ     -65536,DU
        10 001402   200043 756100                    STQ     ROP_SIGN,,AUTO

      469    10823
      470    10824    2            IF NODE$ -> ETT.ID = %MIND
PL6.E3A0      #003=Z8AU$TYPE_DESCRIPTOR File=Z8AU.:Z8A6TSI                       SAT 08/09/97 10:57 Page:103

  10824 10 001403   200003 470500                    LDP0    @NODE$,,AUTO
        10 001404   000000 471500                    LDP1    0,,PR0
        10 001405   100000 220100                    LDX0    0,,PR1
        10 001406   000154 100003                    CMPX0   108,DU
        10 001407   001422 600000 10                 TZE     s:10828
        10 001410   000055 100003                    CMPX0   45,DU
        10 001411   001424 601000 10                 TNZ     s:10829
        10 001412   200042 236100                    LDQ     LOP_SIGN,,AUTO
        10 001413   600000 376003                    ANQ     -65536,DU
        10 001414   600000 116003                    CMPQ    -65536,DU
        10 001415   001424 601000 10                 TNZ     s:10829
        10 001416   200043 236100                    LDQ     ROP_SIGN,,AUTO
        10 001417   600000 376003                    ANQ     -65536,DU
        10 001420   600000 116003                    CMPQ    -65536,DU
        10 001421   001424 601000 10                 TNZ     s:10829

      471    10825    2              OR NODE$ -> ETT.ID = %SBD
      472    10826    2                AND LOP_SIGN = %NO_SIGN
      473    10827    2                AND ROP_SIGN = %NO_SIGN
      474    10828    2              THEN LENGTH = 0;

  10828 10 001422   200023 450100                    STZ     LENGTH,,AUTO
        10 001423   001426 710000 10                 TRA     s:10831

      475    10829    2              ELSE LENGTH = 1;

  10829 10 001424   000001 235007                    LDA     1,DL
        10 001425   200023 755100                    STA     LENGTH,,AUTO

      476    10830
      477    10831    2            LENGTH = MINIMUM(COMCOM.MAX_TEMP_LENGTH,

  10831 10 001426   200041 336100                    LCQ     S,,AUTO
        10 001427   200052 756100                    STQ     ETT$$+1,,AUTO
        10 001430   200037 336100                    LCQ     Q,,AUTO
        10 001431   200052 116100                    CMPQ    ETT$$+1,,AUTO
PL6.E3A0      #003=Z8AU$TYPE_DESCRIPTOR File=Z8AU.:Z8A6TSI                       SAT 08/09/97 10:57 Page:104
        10 001432   001434 605000 10                 TPL     s:10831+6
        10 001433   200052 236100                    LDQ     ETT$$+1,,AUTO
        10 001434   200053 756100                    STQ     ETT$$+2,,AUTO
        10 001435   200040 236100                    LDQ     R,,AUTO
        10 001436   200041 036100                    ADLQ    S,,AUTO
        10 001437   200054 756100                    STQ     ETT$$+3,,AUTO
        10 001440   200036 236100                    LDQ     P,,AUTO
        10 001441   200037 036100                    ADLQ    Q,,AUTO
        10 001442   200055 756100                    STQ     ETT$$+4,,AUTO
        10 001443   200054 236100                    LDQ     ETT$$+3,,AUTO
        10 001444   200056 756100                    STQ     ETT$$+5,,AUTO
        10 001445   200055 236100                    LDQ     ETT$$+4,,AUTO
        10 001446   200056 116100                    CMPQ    ETT$$+5,,AUTO
        10 001447   001451 605000 10                 TPL     s:10831+19
        10 001450   200056 236100                    LDQ     ETT$$+5,,AUTO
        10 001451   200053 036100                    ADLQ    ETT$$+2,,AUTO
        10 001452   200023 036100                    ADLQ    LENGTH,,AUTO
        10 001453   000427 116000 xsym               CMPQ    COMCOM+279
        10 001454   001456 604400 10                 TMOZ    s:10831+24
        10 001455   000427 236000 xsym               LDQ     COMCOM+279
        10 001456   200023 756100                    STQ     LENGTH,,AUTO

      478    10832    2                             (MAXIMUM(-Q, -S) + MAXIMUM(P + Q, R + S) + LENGTH));
      479    10833
      480    10834    2            IF LENGTH = COMCOM.MAX_TEMP_LENGTH THEN

  10834 10 001457   000427 116000 xsym               CMPQ    COMCOM+279
        10 001460   001517 601000 10                 TNZ     s:10889

      481    10835                   %PACK_NDSC ( @DESC     = TYPE_DESC.DESC ,
      482    10836                                @LENGTH   = LENGTH ,
      483    10837                                @TN       = %NDSC4 ,
      484    10838                                @SIGN     = %FLOATING_POINT_LEADING_SIGN );

  10843 10 001461   000000 220003                    LDX0    0,DU
        10 001462   200004 471500                    LDP1    @TYPE_DESC,,AUTO
        10 001463   100001 740100                    STX0    1,,PR1
PL6.E3A0      #003=Z8AU$TYPE_DESCRIPTOR File=Z8AU.:Z8A6TSI                       SAT 08/09/97 10:57 Page:105

  10844 10 001464   000002 236000 11                 LDQ     2
        10 001465   100001 356100                    ANSQ    1,,PR1

  10845 10 001466   040000 236007                    LDQ     16384,DL
        10 001467   100001 256100                    ORSQ    1,,PR1

  10846 10 001470   000005 236000 11                 LDQ     5
        10 001471   100001 356100                    ANSQ    1,,PR1

  10847 10 001472   000000 236003                    LDQ     0,DU
        10 001473   100001 752102                    STCQ    1,'02'O,PR1

  10848 10 001474   000000 235003                    LDA     0,DU
        10 001475   000004 115007                    CMPA    4,DL
        10 001476   001500 602005 10                 TNC     s:10848+4,AL
        10 001477   001611 710000 10                 TRA     s:10951
        10 001500   001513 710000 10                 TRA     s:10882
        10 001501   001507 710000 10                 TRA     s:10855
        10 001502   001507 710000 10                 TRA     s:10855
        10 001503   001504 710000 10                 TRA     s:10850

  10850 10 001504   200023 236100                    LDQ     LENGTH,,AUTO
        10 001505   100001 752101                    STCQ    1,'01'O,PR1
        10 001506   001611 710000 10                 TRA     s:10951

  10855 10 001507   200023 236100                    LDQ     LENGTH,,AUTO
        10 001510   000001 036007                    ADLQ    1,DL
        10 001511   100001 752101                    STCQ    1,'01'O,PR1
        10 001512   001611 710000 10                 TRA     s:10951

  10882 10 001513   200023 236100                    LDQ     LENGTH,,AUTO
        10 001514   000003 036007                    ADLQ    3,DL
        10 001515   100001 752101                    STCQ    1,'01'O,PR1

  10885 10 001516   001611 710000 10                 TRA     s:10951

PL6.E3A0      #003=Z8AU$TYPE_DESCRIPTOR File=Z8AU.:Z8A6TSI                       SAT 08/09/97 10:57 Page:106
      485    10887    2            ELSE
      486    10888    3              DO;

      487    10889    3                IF LOP_SIGN = %NO_SIGN

  10889 10 001517   200042 236100                    LDQ     LOP_SIGN,,AUTO
        10 001520   600000 376003                    ANQ     -65536,DU
        10 001521   600000 116003                    CMPQ    -65536,DU
        10 001522   001536 601000 10                 TNZ     s:10894
        10 001523   200043 236100                    LDQ     ROP_SIGN,,AUTO
        10 001524   600000 376003                    ANQ     -65536,DU
        10 001525   600000 116003                    CMPQ    -65536,DU
        10 001526   001536 601000 10                 TNZ     s:10894
        10 001527   000000 471500                    LDP1    0,,PR0
        10 001530   100000 220100                    LDX0    0,,PR1
        10 001531   000055 100003                    CMPX0   45,DU
        10 001532   001536 600000 10                 TZE     s:10894

      488    10890    3                AND ROP_SIGN = %NO_SIGN
      489    10891    3                AND NODE$ -> ETT.ID ~= %SBD THEN
      490    10892    3                  SIGN = %NO_SIGN;

  10892 10 001533   600000 236003                    LDQ     -65536,DU
        10 001534   200017 756100                    STQ     SIGN,,AUTO
        10 001535   001540 710000 10                 TRA     s:10905

      491    10893    3                ELSE
      492    10894    3                  SIGN = %TRAILING_SIGN;

  10894 10 001536   400000 236003                    LDQ     -131072,DU
        10 001537   200017 756100                    STQ     SIGN,,AUTO

      493    10895
      494    10896                     %PACK_NDSC ( @DESC     = TYPE_DESC.DESC ,
      495    10897                                  @LENGTH   = LENGTH ,
      496    10898                                  @SCALE    = "- MAXIMUM(-Q, -S)",
      497    10899                                  @TN       = %NDSC4 ,
PL6.E3A0      #003=Z8AU$TYPE_DESCRIPTOR File=Z8AU.:Z8A6TSI                       SAT 08/09/97 10:57 Page:107
      498    10900                                  @SIGN     = SIGN );

  10905 10 001540   000000 220003                    LDX0    0,DU
        10 001541   200004 471500                    LDP1    @TYPE_DESC,,AUTO
        10 001542   100001 740100                    STX0    1,,PR1

  10906 10 001543   000002 236000 11                 LDQ     2
        10 001544   100001 356100                    ANSQ    1,,PR1

  10907 10 001545   040000 236007                    LDQ     16384,DL
        10 001546   100001 256100                    ORSQ    1,,PR1

  10908 10 001547   200017 236100                    LDQ     SIGN,,AUTO
        10 001550   000026 772000                    QRL     22
        10 001551   100001 676100                    ERQ     1,,PR1
        10 001552   030000 376007                    ANQ     12288,DL
        10 001553   100001 656100                    ERSQ    1,,PR1

  10909 10 001554   200041 336100                    LCQ     S,,AUTO
        10 001555   200052 756100                    STQ     ETT$$+1,,AUTO
        10 001556   200037 336100                    LCQ     Q,,AUTO
        10 001557   200052 116100                    CMPQ    ETT$$+1,,AUTO
        10 001560   001562 605000 10                 TPL     s:10909+6
        10 001561   200052 236100                    LDQ     ETT$$+1,,AUTO
        10 001562   000006 676000 11                 ERQ     6
        10 001563   000001 036007                    ADLQ    1,DL
        10 001564   000006 736000                    QLS     6
        10 001565   100001 752102                    STCQ    1,'02'O,PR1

  10910 10 001566   200017 236100                    LDQ     SIGN,,AUTO
        10 001567   000042 772000                    QRL     34
        10 001570   000004 116007                    CMPQ    4,DL
        10 001571   001573 602006 10                 TNC     s:10910+5,QL
        10 001572   001611 710000 10                 TRA     s:10951
        10 001573   001606 710000 10                 TRA     s:10944
        10 001574   001602 710000 10                 TRA     s:10917
        10 001575   001602 710000 10                 TRA     s:10917
PL6.E3A0      #003=Z8AU$TYPE_DESCRIPTOR File=Z8AU.:Z8A6TSI                       SAT 08/09/97 10:57 Page:108
        10 001576   001577 710000 10                 TRA     s:10912

  10912 10 001577   200023 236100                    LDQ     LENGTH,,AUTO
        10 001600   100001 752101                    STCQ    1,'01'O,PR1
        10 001601   001611 710000 10                 TRA     s:10951

  10917 10 001602   200023 236100                    LDQ     LENGTH,,AUTO
        10 001603   000001 036007                    ADLQ    1,DL
        10 001604   100001 752101                    STCQ    1,'01'O,PR1
        10 001605   001611 710000 10                 TRA     s:10951

  10944 10 001606   200023 236100                    LDQ     LENGTH,,AUTO
        10 001607   000003 036007                    ADLQ    3,DL
        10 001610   100001 752101                    STCQ    1,'01'O,PR1

      499    10949    3              END;

      500    10950
      501    10951    2            TYPE_DESC.TYPE = %TYD;

  10951 10 001611   100000 450100                    STZ     0,,PR1
        10 001612   004111 710000 10                 TRA     s:12302

      502    10952
      503    10953    2          CASE(%ADO, %SBO, %MINO);

      504    10954    2            CALL Z8AU$TYPE_DESCRIPTOR(NODE$ -> ETT.LOP, LOP_DESC);

  10954 10 001613   200026 634500                    EPPR4   LOP_DESC,,AUTO
        10 001614   200053 454500                    STP4    ETT$$+2,,AUTO
        10 001615   300001 635500                    EPPR5   1,,PR3
        10 001616   200052 455500                    STP5    ETT$$+1,,AUTO
        10 001617   200052 630500                    EPPR0   ETT$$+1,,AUTO
        10 001620   000001 631400 11                 EPPR1   1
        10 001621   000000 701000 10                 TSX1    s:6
        10 001622   000000 011000                    NOP     0

PL6.E3A0      #003=Z8AU$TYPE_DESCRIPTOR File=Z8AU.:Z8A6TSI                       SAT 08/09/97 10:57 Page:109
      505    10955    2            CALL Z8AU$TYPE_DESCRIPTOR(NODE$ -> ETT.ROP, ROP_DESC);

  10955 10 001623   200003 470500                    LDP0    @NODE$,,AUTO
        10 001624   000000 471500                    LDP1    0,,PR0
        10 001625   200032 633500                    EPPR3   ROP_DESC,,AUTO
        10 001626   200053 453500                    STP3    ETT$$+2,,AUTO
        10 001627   100002 634500                    EPPR4   2,,PR1
        10 001630   200052 454500                    STP4    ETT$$+1,,AUTO
        10 001631   200052 630500                    EPPR0   ETT$$+1,,AUTO
        10 001632   000001 631400 11                 EPPR1   1
        10 001633   000000 701000 10                 TSX1    s:6
        10 001634   000000 011000                    NOP     0

      506    10956
      507    10957                 %UNPACK_NDSC ( @DESC   = LOP_DESC.DESC ,
      508    10958                                @TYPE   = LOP_DESC.TYPE,
      509    10959                                @SIGN   = LOP_SIGN,
      510    10960                                @LENGTH = P ,
      511    10961                                @SCALE  = Q );

  10968 10 001635   200027 236100                    LDQ     LOP_DESC+1,,AUTO
        10 001636   000014 772000                    QRL     12
        10 001637   000003 376007                    ANQ     3,DL
        10 001640   000004 116007                    CMPQ    4,DL
        10 001641   001643 602006 10                 TNC     s:10968+6,QL
        10 001642   001721 710000 10                 TRA     s:11008
        10 001643   001705 710000 10                 TRA     s:10992
        10 001644   001653 710000 10                 TRA     s:10982
        10 001645   001653 710000 10                 TRA     s:10982
        10 001646   001647 710000 10                 TRA     s:10970

  10970 10 001647   200027 236100                    LDQ     LOP_DESC+1,,AUTO
        10 001650   000077 376007                    ANQ     63,DL
        10 001651   200036 756100                    STQ     P,,AUTO
        10 001652   001721 710000 10                 TRA     s:11008

  10982 10 001653   200026 235100                    LDA     LOP_DESC,,AUTO
PL6.E3A0      #003=Z8AU$TYPE_DESCRIPTOR File=Z8AU.:Z8A6TSI                       SAT 08/09/97 10:57 Page:110
        10 001654   000003 115007                    CMPA    3,DL
        10 001655   001662 601000 10                 TNZ     s:10984

  10983 10 001656   200027 236100                    LDQ     LOP_DESC+1,,AUTO
        10 001657   000077 376007                    ANQ     63,DL
        10 001660   200036 756100                    STQ     P,,AUTO
        10 001661   001721 710000 10                 TRA     s:11008

  10984 10 001662   000000 115003                    CMPA    0,DU
        10 001663   001671 601000 10                 TNZ     s:10986

  10985 10 001664   200027 236100                    LDQ     LOP_DESC+1,,AUTO
        10 001665   000077 376007                    ANQ     63,DL
        10 001666   000001 136007                    SBLQ    1,DL
        10 001667   200036 756100                    STQ     P,,AUTO
        10 001670   001721 710000 10                 TRA     s:11008

  10986 10 001671   200027 236100                    LDQ     LOP_DESC+1,,AUTO
        10 001672   040000 316007                    CANQ    16384,DL
        10 001673   001700 600000 10                 TZE     s:10989

  10987 10 001674   200027 236100                    LDQ     LOP_DESC+1,,AUTO
        10 001675   000077 376007                    ANQ     63,DL
        10 001676   200036 756100                    STQ     P,,AUTO
        10 001677   001721 710000 10                 TRA     s:11008

  10989 10 001700   200027 236100                    LDQ     LOP_DESC+1,,AUTO
        10 001701   000077 376007                    ANQ     63,DL
        10 001702   000001 136007                    SBLQ    1,DL
        10 001703   200036 756100                    STQ     P,,AUTO
        10 001704   001721 710000 10                 TRA     s:11008

  10992 10 001705   200027 236100                    LDQ     LOP_DESC+1,,AUTO
        10 001706   040000 316007                    CANQ    16384,DL
        10 001707   001715 600000 10                 TZE     s:10995

  10993 10 001710   200027 236100                    LDQ     LOP_DESC+1,,AUTO
PL6.E3A0      #003=Z8AU$TYPE_DESCRIPTOR File=Z8AU.:Z8A6TSI                       SAT 08/09/97 10:57 Page:111
        10 001711   000077 376007                    ANQ     63,DL
        10 001712   000003 136007                    SBLQ    3,DL
        10 001713   200036 756100                    STQ     P,,AUTO
        10 001714   001721 710000 10                 TRA     s:11008

  10995 10 001715   200027 236100                    LDQ     LOP_DESC+1,,AUTO
        10 001716   000077 376007                    ANQ     63,DL
        10 001717   000002 136007                    SBLQ    2,DL
        10 001720   200036 756100                    STQ     P,,AUTO

  11008 10 001721   200027 236100                    LDQ     LOP_DESC+1,,AUTO
        10 001722   000030 736000                    QLS     24
        10 001723   000036 732000                    QRS     30
        10 001724   200037 756100                    STQ     Q,,AUTO

  11011 10 001725   200027 236100                    LDQ     LOP_DESC+1,,AUTO
        10 001726   000026 736000                    QLS     22
        10 001727   600000 376003                    ANQ     -65536,DU
        10 001730   200042 756100                    STQ     LOP_SIGN,,AUTO

      512    11016
      513    11017                 %UNPACK_NDSC ( @DESC   = ROP_DESC.DESC ,
      514    11018                                @TYPE   = ROP_DESC.TYPE,
      515    11019                                @SIGN   = ROP_SIGN,
      516    11020                                @LENGTH = R ,
      517    11021                                @SCALE  = S );

  11028 10 001731   200033 236100                    LDQ     ROP_DESC+1,,AUTO
        10 001732   000014 772000                    QRL     12
        10 001733   000003 376007                    ANQ     3,DL
        10 001734   000004 116007                    CMPQ    4,DL
        10 001735   001737 602006 10                 TNC     s:11028+6,QL
        10 001736   002015 710000 10                 TRA     s:11068
        10 001737   002001 710000 10                 TRA     s:11052
        10 001740   001747 710000 10                 TRA     s:11042
        10 001741   001747 710000 10                 TRA     s:11042
        10 001742   001743 710000 10                 TRA     s:11030
PL6.E3A0      #003=Z8AU$TYPE_DESCRIPTOR File=Z8AU.:Z8A6TSI                       SAT 08/09/97 10:57 Page:112

  11030 10 001743   200033 236100                    LDQ     ROP_DESC+1,,AUTO
        10 001744   000077 376007                    ANQ     63,DL
        10 001745   200040 756100                    STQ     R,,AUTO
        10 001746   002015 710000 10                 TRA     s:11068

  11042 10 001747   200032 235100                    LDA     ROP_DESC,,AUTO
        10 001750   000003 115007                    CMPA    3,DL
        10 001751   001756 601000 10                 TNZ     s:11044

  11043 10 001752   200033 236100                    LDQ     ROP_DESC+1,,AUTO
        10 001753   000077 376007                    ANQ     63,DL
        10 001754   200040 756100                    STQ     R,,AUTO
        10 001755   002015 710000 10                 TRA     s:11068

  11044 10 001756   000000 115003                    CMPA    0,DU
        10 001757   001765 601000 10                 TNZ     s:11046

  11045 10 001760   200033 236100                    LDQ     ROP_DESC+1,,AUTO
        10 001761   000077 376007                    ANQ     63,DL
        10 001762   000001 136007                    SBLQ    1,DL
        10 001763   200040 756100                    STQ     R,,AUTO
        10 001764   002015 710000 10                 TRA     s:11068

  11046 10 001765   200033 236100                    LDQ     ROP_DESC+1,,AUTO
        10 001766   040000 316007                    CANQ    16384,DL
        10 001767   001774 600000 10                 TZE     s:11049

  11047 10 001770   200033 236100                    LDQ     ROP_DESC+1,,AUTO
        10 001771   000077 376007                    ANQ     63,DL
        10 001772   200040 756100                    STQ     R,,AUTO
        10 001773   002015 710000 10                 TRA     s:11068

  11049 10 001774   200033 236100                    LDQ     ROP_DESC+1,,AUTO
        10 001775   000077 376007                    ANQ     63,DL
        10 001776   000001 136007                    SBLQ    1,DL
        10 001777   200040 756100                    STQ     R,,AUTO
PL6.E3A0      #003=Z8AU$TYPE_DESCRIPTOR File=Z8AU.:Z8A6TSI                       SAT 08/09/97 10:57 Page:113
        10 002000   002015 710000 10                 TRA     s:11068

  11052 10 002001   200033 236100                    LDQ     ROP_DESC+1,,AUTO
        10 002002   040000 316007                    CANQ    16384,DL
        10 002003   002011 600000 10                 TZE     s:11055

  11053 10 002004   200033 236100                    LDQ     ROP_DESC+1,,AUTO
        10 002005   000077 376007                    ANQ     63,DL
        10 002006   000003 136007                    SBLQ    3,DL
        10 002007   200040 756100                    STQ     R,,AUTO
        10 002010   002015 710000 10                 TRA     s:11068

  11055 10 002011   200033 236100                    LDQ     ROP_DESC+1,,AUTO
        10 002012   000077 376007                    ANQ     63,DL
        10 002013   000002 136007                    SBLQ    2,DL
        10 002014   200040 756100                    STQ     R,,AUTO

  11068 10 002015   200033 236100                    LDQ     ROP_DESC+1,,AUTO
        10 002016   000030 736000                    QLS     24
        10 002017   000036 732000                    QRS     30
        10 002020   200041 756100                    STQ     S,,AUTO

  11071 10 002021   200033 236100                    LDQ     ROP_DESC+1,,AUTO
        10 002022   000026 736000                    QLS     22
        10 002023   600000 376003                    ANQ     -65536,DU
        10 002024   200043 756100                    STQ     ROP_SIGN,,AUTO

      518    11076
      519    11077    2            LENGTH = MAXIMUM(-Q, -S) + MAXIMUM(P + Q, R + S) + 1;

  11077 10 002025   200041 336100                    LCQ     S,,AUTO
        10 002026   200052 756100                    STQ     ETT$$+1,,AUTO
        10 002027   200037 336100                    LCQ     Q,,AUTO
        10 002030   200052 116100                    CMPQ    ETT$$+1,,AUTO
        10 002031   002033 605000 10                 TPL     s:11077+6
        10 002032   200052 236100                    LDQ     ETT$$+1,,AUTO
        10 002033   200053 756100                    STQ     ETT$$+2,,AUTO
PL6.E3A0      #003=Z8AU$TYPE_DESCRIPTOR File=Z8AU.:Z8A6TSI                       SAT 08/09/97 10:57 Page:114
        10 002034   200040 236100                    LDQ     R,,AUTO
        10 002035   200041 036100                    ADLQ    S,,AUTO
        10 002036   200054 756100                    STQ     ETT$$+3,,AUTO
        10 002037   200036 236100                    LDQ     P,,AUTO
        10 002040   200037 036100                    ADLQ    Q,,AUTO
        10 002041   200055 756100                    STQ     ETT$$+4,,AUTO
        10 002042   200054 236100                    LDQ     ETT$$+3,,AUTO
        10 002043   200056 756100                    STQ     ETT$$+5,,AUTO
        10 002044   200055 236100                    LDQ     ETT$$+4,,AUTO
        10 002045   200056 116100                    CMPQ    ETT$$+5,,AUTO
        10 002046   002050 605000 10                 TPL     s:11077+19
        10 002047   200056 236100                    LDQ     ETT$$+5,,AUTO
        10 002050   200053 036100                    ADLQ    ETT$$+2,,AUTO
        10 002051   000001 036007                    ADLQ    1,DL
        10 002052   200023 756100                    STQ     LENGTH,,AUTO

      520    11078
      521    11079    2            IF LENGTH >= COMCOM.MAX_TEMP_LENGTH THEN

  11079 10 002053   000427 116000 xsym               CMPQ    COMCOM+279
        10 002054   002113 604000 10                 TMI     s:11146

      522    11080    3              DO;

      523    11081                     %PACK_NDSC ( @DESC     = TYPE_DESC.DESC ,
      524    11082                                  @LENGTH   = COMCOM.MAX_TEMP_LENGTH ,
      525    11083                                  @TN       = %NDSC4 ,
      526    11084                                  @SIGN     = %FLOATING_POINT_LEADING_SIGN );

  11089 10 002055   000000 220003                    LDX0    0,DU
        10 002056   200004 470500                    LDP0    @TYPE_DESC,,AUTO
        10 002057   000001 740100                    STX0    1,,PR0

  11090 10 002060   000002 236000 11                 LDQ     2
        10 002061   000001 356100                    ANSQ    1,,PR0

  11091 10 002062   040000 236007                    LDQ     16384,DL
PL6.E3A0      #003=Z8AU$TYPE_DESCRIPTOR File=Z8AU.:Z8A6TSI                       SAT 08/09/97 10:57 Page:115
        10 002063   000001 256100                    ORSQ    1,,PR0

  11092 10 002064   000005 236000 11                 LDQ     5
        10 002065   000001 356100                    ANSQ    1,,PR0

  11093 10 002066   000000 236003                    LDQ     0,DU
        10 002067   000001 752102                    STCQ    1,'02'O,PR0

  11094 10 002070   000000 235003                    LDA     0,DU
        10 002071   000004 115007                    CMPA    4,DL
        10 002072   002074 602005 10                 TNC     s:11094+4,AL
        10 002073   002162 710000 10                 TRA     s:11192
        10 002074   002107 710000 10                 TRA     s:11128
        10 002075   002103 710000 10                 TRA     s:11101
        10 002076   002103 710000 10                 TRA     s:11101
        10 002077   002100 710000 10                 TRA     s:11096

  11096 10 002100   000427 236000 xsym               LDQ     COMCOM+279
        10 002101   000001 752101                    STCQ    1,'01'O,PR0
        10 002102   002162 710000 10                 TRA     s:11192

  11101 10 002103   000427 236000 xsym               LDQ     COMCOM+279
        10 002104   000001 036007                    ADLQ    1,DL
        10 002105   000001 752101                    STCQ    1,'01'O,PR0
        10 002106   002162 710000 10                 TRA     s:11192

  11128 10 002107   000427 236000 xsym               LDQ     COMCOM+279
        10 002110   000003 036007                    ADLQ    3,DL
        10 002111   000001 752101                    STCQ    1,'01'O,PR0

      527    11133    3              END;

  11133 10 002112   002162 710000 10                 TRA     s:11192

      528    11134    2            ELSE
      529    11135    3              DO;

PL6.E3A0      #003=Z8AU$TYPE_DESCRIPTOR File=Z8AU.:Z8A6TSI                       SAT 08/09/97 10:57 Page:116
      530    11136
      531    11137                     %PACK_NDSC ( @DESC     = TYPE_DESC.DESC ,
      532    11138                                  @LENGTH   = LENGTH ,
      533    11139                                  @SCALE    = "- MAXIMUM(-Q, -S)",
      534    11140                                  @TN       = %NDSC4 ,
      535    11141                                  @SIGN     = %TRAILING_SIGN );

  11146 10 002113   000000 220003                    LDX0    0,DU
        10 002114   200004 470500                    LDP0    @TYPE_DESC,,AUTO
        10 002115   000001 740100                    STX0    1,,PR0

  11147 10 002116   000002 236000 11                 LDQ     2
        10 002117   000001 356100                    ANSQ    1,,PR0

  11148 10 002120   040000 236007                    LDQ     16384,DL
        10 002121   000001 256100                    ORSQ    1,,PR0

  11149 10 002122   000001 236100                    LDQ     1,,PR0
        10 002123   000005 376000 11                 ANQ     5
        10 002124   020000 276007                    ORQ     8192,DL
        10 002125   000001 756100                    STQ     1,,PR0

  11150 10 002126   200041 336100                    LCQ     S,,AUTO
        10 002127   200052 756100                    STQ     ETT$$+1,,AUTO
        10 002130   200037 336100                    LCQ     Q,,AUTO
        10 002131   200052 116100                    CMPQ    ETT$$+1,,AUTO
        10 002132   002134 605000 10                 TPL     s:11150+6
        10 002133   200052 236100                    LDQ     ETT$$+1,,AUTO
        10 002134   000006 676000 11                 ERQ     6
        10 002135   000001 036007                    ADLQ    1,DL
        10 002136   000006 736000                    QLS     6
        10 002137   000001 752102                    STCQ    1,'02'O,PR0

  11151 10 002140   000002 235007                    LDA     2,DL
        10 002141   000004 115007                    CMPA    4,DL
        10 002142   002144 602005 10                 TNC     s:11151+4,AL
        10 002143   002162 710000 10                 TRA     s:11192
PL6.E3A0      #003=Z8AU$TYPE_DESCRIPTOR File=Z8AU.:Z8A6TSI                       SAT 08/09/97 10:57 Page:117
        10 002144   002157 710000 10                 TRA     s:11185
        10 002145   002153 710000 10                 TRA     s:11158
        10 002146   002153 710000 10                 TRA     s:11158
        10 002147   002150 710000 10                 TRA     s:11153

  11153 10 002150   200023 236100                    LDQ     LENGTH,,AUTO
        10 002151   000001 752101                    STCQ    1,'01'O,PR0
        10 002152   002162 710000 10                 TRA     s:11192

  11158 10 002153   200023 236100                    LDQ     LENGTH,,AUTO
        10 002154   000001 036007                    ADLQ    1,DL
        10 002155   000001 752101                    STCQ    1,'01'O,PR0
        10 002156   002162 710000 10                 TRA     s:11192

  11185 10 002157   200023 236100                    LDQ     LENGTH,,AUTO
        10 002160   000003 036007                    ADLQ    3,DL
        10 002161   000001 752101                    STCQ    1,'01'O,PR0

      536    11190    3              END;

      537    11191
      538    11192    2            TYPE_DESC.TYPE = %TYD;

  11192 10 002162   000000 450100                    STZ     0,,PR0
        10 002163   004111 710000 10                 TRA     s:12302

      539    11193
      540    11194    2          CASE(%MPD);

      541    11195    2            CALL Z8AU$TYPE_DESCRIPTOR(NODE$ -> ETT.LOP, LOP_DESC);

  11195 10 002164   200026 634500                    EPPR4   LOP_DESC,,AUTO
        10 002165   200053 454500                    STP4    ETT$$+2,,AUTO
        10 002166   300001 635500                    EPPR5   1,,PR3
        10 002167   200052 455500                    STP5    ETT$$+1,,AUTO
        10 002170   200052 630500                    EPPR0   ETT$$+1,,AUTO
        10 002171   000001 631400 11                 EPPR1   1
PL6.E3A0      #003=Z8AU$TYPE_DESCRIPTOR File=Z8AU.:Z8A6TSI                       SAT 08/09/97 10:57 Page:118
        10 002172   000000 701000 10                 TSX1    s:6
        10 002173   000000 011000                    NOP     0

      542    11196    2            CALL Z8AU$TYPE_DESCRIPTOR(NODE$ -> ETT.ROP, ROP_DESC);

  11196 10 002174   200003 470500                    LDP0    @NODE$,,AUTO
        10 002175   000000 471500                    LDP1    0,,PR0
        10 002176   200032 633500                    EPPR3   ROP_DESC,,AUTO
        10 002177   200053 453500                    STP3    ETT$$+2,,AUTO
        10 002200   100002 634500                    EPPR4   2,,PR1
        10 002201   200052 454500                    STP4    ETT$$+1,,AUTO
        10 002202   200052 630500                    EPPR0   ETT$$+1,,AUTO
        10 002203   000001 631400 11                 EPPR1   1
        10 002204   000000 701000 10                 TSX1    s:6
        10 002205   000000 011000                    NOP     0

      543    11197
      544    11198                 %UNPACK_NDSC ( @DESC   = LOP_DESC.DESC ,
      545    11199                                @SIGN   = LOP_SIGN,
      546    11200                                @LENGTH = P ,
      547    11201                                @SCALE  = Q );

  11208 10 002206   200027 236100                    LDQ     LOP_DESC+1,,AUTO
        10 002207   000014 772000                    QRL     12
        10 002210   000003 376007                    ANQ     3,DL
        10 002211   000004 116007                    CMPQ    4,DL
        10 002212   002214 602006 10                 TNC     s:11208+6,QL
        10 002213   002245 710000 10                 TRA     s:11248
        10 002214   002231 710000 10                 TRA     s:11232
        10 002215   002224 710000 10                 TRA     s:11215
        10 002216   002224 710000 10                 TRA     s:11215
        10 002217   002220 710000 10                 TRA     s:11210

  11210 10 002220   200027 236100                    LDQ     LOP_DESC+1,,AUTO
        10 002221   000077 376007                    ANQ     63,DL
        10 002222   200036 756100                    STQ     P,,AUTO
        10 002223   002245 710000 10                 TRA     s:11248
PL6.E3A0      #003=Z8AU$TYPE_DESCRIPTOR File=Z8AU.:Z8A6TSI                       SAT 08/09/97 10:57 Page:119

  11215 10 002224   200027 236100                    LDQ     LOP_DESC+1,,AUTO
        10 002225   000077 376007                    ANQ     63,DL
        10 002226   000001 136007                    SBLQ    1,DL
        10 002227   200036 756100                    STQ     P,,AUTO
        10 002230   002245 710000 10                 TRA     s:11248

  11232 10 002231   200027 236100                    LDQ     LOP_DESC+1,,AUTO
        10 002232   040000 316007                    CANQ    16384,DL
        10 002233   002241 600000 10                 TZE     s:11235

  11233 10 002234   200027 236100                    LDQ     LOP_DESC+1,,AUTO
        10 002235   000077 376007                    ANQ     63,DL
        10 002236   000003 136007                    SBLQ    3,DL
        10 002237   200036 756100                    STQ     P,,AUTO
        10 002240   002245 710000 10                 TRA     s:11248

  11235 10 002241   200027 236100                    LDQ     LOP_DESC+1,,AUTO
        10 002242   000077 376007                    ANQ     63,DL
        10 002243   000002 136007                    SBLQ    2,DL
        10 002244   200036 756100                    STQ     P,,AUTO

  11248 10 002245   200027 236100                    LDQ     LOP_DESC+1,,AUTO
        10 002246   000030 736000                    QLS     24
        10 002247   000036 732000                    QRS     30
        10 002250   200037 756100                    STQ     Q,,AUTO

  11251 10 002251   200027 236100                    LDQ     LOP_DESC+1,,AUTO
        10 002252   000026 736000                    QLS     22
        10 002253   600000 376003                    ANQ     -65536,DU
        10 002254   200042 756100                    STQ     LOP_SIGN,,AUTO

      548    11256
      549    11257                 %UNPACK_NDSC ( @DESC   = ROP_DESC.DESC ,
      550    11258                                @SIGN   = ROP_SIGN,
      551    11259                                @LENGTH = R ,
      552    11260                                @SCALE  = S );
PL6.E3A0      #003=Z8AU$TYPE_DESCRIPTOR File=Z8AU.:Z8A6TSI                       SAT 08/09/97 10:57 Page:120

  11267 10 002255   200033 236100                    LDQ     ROP_DESC+1,,AUTO
        10 002256   000014 772000                    QRL     12
        10 002257   000003 376007                    ANQ     3,DL
        10 002260   000004 116007                    CMPQ    4,DL
        10 002261   002263 602006 10                 TNC     s:11267+6,QL
        10 002262   002314 710000 10                 TRA     s:11307
        10 002263   002300 710000 10                 TRA     s:11291
        10 002264   002273 710000 10                 TRA     s:11274
        10 002265   002273 710000 10                 TRA     s:11274
        10 002266   002267 710000 10                 TRA     s:11269

  11269 10 002267   200033 236100                    LDQ     ROP_DESC+1,,AUTO
        10 002270   000077 376007                    ANQ     63,DL
        10 002271   200040 756100                    STQ     R,,AUTO
        10 002272   002314 710000 10                 TRA     s:11307

  11274 10 002273   200033 236100                    LDQ     ROP_DESC+1,,AUTO
        10 002274   000077 376007                    ANQ     63,DL
        10 002275   000001 136007                    SBLQ    1,DL
        10 002276   200040 756100                    STQ     R,,AUTO
        10 002277   002314 710000 10                 TRA     s:11307

  11291 10 002300   200033 236100                    LDQ     ROP_DESC+1,,AUTO
        10 002301   040000 316007                    CANQ    16384,DL
        10 002302   002310 600000 10                 TZE     s:11294

  11292 10 002303   200033 236100                    LDQ     ROP_DESC+1,,AUTO
        10 002304   000077 376007                    ANQ     63,DL
        10 002305   000003 136007                    SBLQ    3,DL
        10 002306   200040 756100                    STQ     R,,AUTO
        10 002307   002314 710000 10                 TRA     s:11307

  11294 10 002310   200033 236100                    LDQ     ROP_DESC+1,,AUTO
        10 002311   000077 376007                    ANQ     63,DL
        10 002312   000002 136007                    SBLQ    2,DL
        10 002313   200040 756100                    STQ     R,,AUTO
PL6.E3A0      #003=Z8AU$TYPE_DESCRIPTOR File=Z8AU.:Z8A6TSI                       SAT 08/09/97 10:57 Page:121

  11307 10 002314   200033 236100                    LDQ     ROP_DESC+1,,AUTO
        10 002315   000030 736000                    QLS     24
        10 002316   000036 732000                    QRS     30
        10 002317   200041 756100                    STQ     S,,AUTO

  11310 10 002320   200033 236100                    LDQ     ROP_DESC+1,,AUTO
        10 002321   000026 736000                    QLS     22
        10 002322   600000 376003                    ANQ     -65536,DU
        10 002323   200043 756100                    STQ     ROP_SIGN,,AUTO

      553    11315
      554    11316    2            LENGTH = MINIMUM(COMCOM.MAX_TEMP_LENGTH, P + R + 1);

  11316 10 002324   200036 236100                    LDQ     P,,AUTO
        10 002325   200040 036100                    ADLQ    R,,AUTO
        10 002326   000001 036007                    ADLQ    1,DL
        10 002327   000427 116000 xsym               CMPQ    COMCOM+279
        10 002330   002332 604400 10                 TMOZ    s:11316+6
        10 002331   000427 236000 xsym               LDQ     COMCOM+279
        10 002332   200023 756100                    STQ     LENGTH,,AUTO

      555    11317
      556    11318    2            IF LENGTH = COMCOM.MAX_TEMP_LENGTH THEN

  11318 10 002333   000427 116000 xsym               CMPQ    COMCOM+279
        10 002334   002373 601000 10                 TNZ     s:11373

      557    11319                   %PACK_NDSC ( @DESC     = TYPE_DESC.DESC ,
      558    11320                                @LENGTH   = LENGTH ,
      559    11321                                @TN       = %NDSC4 ,
      560    11322                                @SIGN     = %FLOATING_POINT_LEADING_SIGN );

  11327 10 002335   000000 220003                    LDX0    0,DU
        10 002336   200004 470500                    LDP0    @TYPE_DESC,,AUTO
        10 002337   000001 740100                    STX0    1,,PR0

PL6.E3A0      #003=Z8AU$TYPE_DESCRIPTOR File=Z8AU.:Z8A6TSI                       SAT 08/09/97 10:57 Page:122
  11328 10 002340   000002 236000 11                 LDQ     2
        10 002341   000001 356100                    ANSQ    1,,PR0

  11329 10 002342   040000 236007                    LDQ     16384,DL
        10 002343   000001 256100                    ORSQ    1,,PR0

  11330 10 002344   000005 236000 11                 LDQ     5
        10 002345   000001 356100                    ANSQ    1,,PR0

  11331 10 002346   000000 236003                    LDQ     0,DU
        10 002347   000001 752102                    STCQ    1,'02'O,PR0

  11332 10 002350   000000 235003                    LDA     0,DU
        10 002351   000004 115007                    CMPA    4,DL
        10 002352   002354 602005 10                 TNC     s:11332+4,AL
        10 002353   002453 710000 10                 TRA     s:11434
        10 002354   002367 710000 10                 TRA     s:11366
        10 002355   002363 710000 10                 TRA     s:11339
        10 002356   002363 710000 10                 TRA     s:11339
        10 002357   002360 710000 10                 TRA     s:11334

  11334 10 002360   200023 236100                    LDQ     LENGTH,,AUTO
        10 002361   000001 752101                    STCQ    1,'01'O,PR0
        10 002362   002453 710000 10                 TRA     s:11434

  11339 10 002363   200023 236100                    LDQ     LENGTH,,AUTO
        10 002364   000001 036007                    ADLQ    1,DL
        10 002365   000001 752101                    STCQ    1,'01'O,PR0
        10 002366   002453 710000 10                 TRA     s:11434

  11366 10 002367   200023 236100                    LDQ     LENGTH,,AUTO
        10 002370   000003 036007                    ADLQ    3,DL
        10 002371   000001 752101                    STCQ    1,'01'O,PR0

  11369 10 002372   002453 710000 10                 TRA     s:11434

      561    11371    2            ELSE
PL6.E3A0      #003=Z8AU$TYPE_DESCRIPTOR File=Z8AU.:Z8A6TSI                       SAT 08/09/97 10:57 Page:123
      562    11372    3              DO;

      563    11373    3                IF  LOP_SIGN = %NO_SIGN

  11373 10 002373   200042 236100                    LDQ     LOP_SIGN,,AUTO
        10 002374   600000 376003                    ANQ     -65536,DU
        10 002375   600000 116003                    CMPQ    -65536,DU
        10 002376   002406 601000 10                 TNZ     s:11377
        10 002377   200043 236100                    LDQ     ROP_SIGN,,AUTO
        10 002400   600000 376003                    ANQ     -65536,DU
        10 002401   600000 116003                    CMPQ    -65536,DU
        10 002402   002406 601000 10                 TNZ     s:11377

      564    11374    3                AND ROP_SIGN = %NO_SIGN THEN
      565    11375    3                  SIGN = %NO_SIGN;

  11375 10 002403   600000 236003                    LDQ     -65536,DU
        10 002404   200017 756100                    STQ     SIGN,,AUTO
        10 002405   002410 710000 10                 TRA     s:11388

      566    11376    3                ELSE
      567    11377    3                  SIGN = %TRAILING_SIGN;

  11377 10 002406   400000 236003                    LDQ     -131072,DU
        10 002407   200017 756100                    STQ     SIGN,,AUTO

      568    11378
      569    11379                     %PACK_NDSC ( @DESC     = TYPE_DESC.DESC ,
      570    11380                                  @LENGTH   = LENGTH ,
      571    11381                                  @SCALE    = "(Q + S)" ,
      572    11382                                  @TN       = %NDSC4 ,
      573    11383                                  @SIGN     = SIGN );

  11388 10 002410   000000 220003                    LDX0    0,DU
        10 002411   200004 470500                    LDP0    @TYPE_DESC,,AUTO
        10 002412   000001 740100                    STX0    1,,PR0

PL6.E3A0      #003=Z8AU$TYPE_DESCRIPTOR File=Z8AU.:Z8A6TSI                       SAT 08/09/97 10:57 Page:124
  11389 10 002413   000002 236000 11                 LDQ     2
        10 002414   000001 356100                    ANSQ    1,,PR0

  11390 10 002415   040000 236007                    LDQ     16384,DL
        10 002416   000001 256100                    ORSQ    1,,PR0

  11391 10 002417   200017 236100                    LDQ     SIGN,,AUTO
        10 002420   000026 772000                    QRL     22
        10 002421   000001 676100                    ERQ     1,,PR0
        10 002422   030000 376007                    ANQ     12288,DL
        10 002423   000001 656100                    ERSQ    1,,PR0

  11392 10 002424   200037 236100                    LDQ     Q,,AUTO
        10 002425   200041 036100                    ADLQ    S,,AUTO
        10 002426   000006 736000                    QLS     6
        10 002427   000001 752102                    STCQ    1,'02'O,PR0

  11393 10 002430   200017 236100                    LDQ     SIGN,,AUTO
        10 002431   000042 772000                    QRL     34
        10 002432   000004 116007                    CMPQ    4,DL
        10 002433   002435 602006 10                 TNC     s:11393+5,QL
        10 002434   002453 710000 10                 TRA     s:11434
        10 002435   002450 710000 10                 TRA     s:11427
        10 002436   002444 710000 10                 TRA     s:11400
        10 002437   002444 710000 10                 TRA     s:11400
        10 002440   002441 710000 10                 TRA     s:11395

  11395 10 002441   200023 236100                    LDQ     LENGTH,,AUTO
        10 002442   000001 752101                    STCQ    1,'01'O,PR0
        10 002443   002453 710000 10                 TRA     s:11434

  11400 10 002444   200023 236100                    LDQ     LENGTH,,AUTO
        10 002445   000001 036007                    ADLQ    1,DL
        10 002446   000001 752101                    STCQ    1,'01'O,PR0
        10 002447   002453 710000 10                 TRA     s:11434

  11427 10 002450   200023 236100                    LDQ     LENGTH,,AUTO
PL6.E3A0      #003=Z8AU$TYPE_DESCRIPTOR File=Z8AU.:Z8A6TSI                       SAT 08/09/97 10:57 Page:125
        10 002451   000003 036007                    ADLQ    3,DL
        10 002452   000001 752101                    STCQ    1,'01'O,PR0

      574    11432    3              END;

      575    11433
      576    11434    2            TYPE_DESC.TYPE = %TYD;

  11434 10 002453   000000 450100                    STZ     0,,PR0
        10 002454   004111 710000 10                 TRA     s:12302

      577    11435
      578    11436    2          CASE(%MPO);

      579    11437    2            CALL Z8AU$TYPE_DESCRIPTOR(NODE$ -> ETT.LOP, LOP_DESC);

  11437 10 002455   200026 634500                    EPPR4   LOP_DESC,,AUTO
        10 002456   200053 454500                    STP4    ETT$$+2,,AUTO
        10 002457   300001 635500                    EPPR5   1,,PR3
        10 002460   200052 455500                    STP5    ETT$$+1,,AUTO
        10 002461   200052 630500                    EPPR0   ETT$$+1,,AUTO
        10 002462   000001 631400 11                 EPPR1   1
        10 002463   000000 701000 10                 TSX1    s:6
        10 002464   000000 011000                    NOP     0

      580    11438    2            CALL Z8AU$TYPE_DESCRIPTOR(NODE$ -> ETT.ROP, ROP_DESC);

  11438 10 002465   200003 470500                    LDP0    @NODE$,,AUTO
        10 002466   000000 471500                    LDP1    0,,PR0
        10 002467   200032 633500                    EPPR3   ROP_DESC,,AUTO
        10 002470   200053 453500                    STP3    ETT$$+2,,AUTO
        10 002471   100002 634500                    EPPR4   2,,PR1
        10 002472   200052 454500                    STP4    ETT$$+1,,AUTO
        10 002473   200052 630500                    EPPR0   ETT$$+1,,AUTO
        10 002474   000001 631400 11                 EPPR1   1
        10 002475   000000 701000 10                 TSX1    s:6
        10 002476   000000 011000                    NOP     0
PL6.E3A0      #003=Z8AU$TYPE_DESCRIPTOR File=Z8AU.:Z8A6TSI                       SAT 08/09/97 10:57 Page:126

      581    11439
      582    11440                 %UNPACK_NDSC ( @DESC   = LOP_DESC.DESC ,
      583    11441                                @TYPE   = LOP_DESC.TYPE,
      584    11442                                @SIGN   = LOP_SIGN,
      585    11443                                @LENGTH = P ,
      586    11444                                @SCALE  = Q );

  11451 10 002477   200027 236100                    LDQ     LOP_DESC+1,,AUTO
        10 002500   000014 772000                    QRL     12
        10 002501   000003 376007                    ANQ     3,DL
        10 002502   000004 116007                    CMPQ    4,DL
        10 002503   002505 602006 10                 TNC     s:11451+6,QL
        10 002504   002563 710000 10                 TRA     s:11491
        10 002505   002547 710000 10                 TRA     s:11475
        10 002506   002515 710000 10                 TRA     s:11465
        10 002507   002515 710000 10                 TRA     s:11465
        10 002510   002511 710000 10                 TRA     s:11453

  11453 10 002511   200027 236100                    LDQ     LOP_DESC+1,,AUTO
        10 002512   000077 376007                    ANQ     63,DL
        10 002513   200036 756100                    STQ     P,,AUTO
        10 002514   002563 710000 10                 TRA     s:11491

  11465 10 002515   200026 235100                    LDA     LOP_DESC,,AUTO
        10 002516   000003 115007                    CMPA    3,DL
        10 002517   002524 601000 10                 TNZ     s:11467

  11466 10 002520   200027 236100                    LDQ     LOP_DESC+1,,AUTO
        10 002521   000077 376007                    ANQ     63,DL
        10 002522   200036 756100                    STQ     P,,AUTO
        10 002523   002563 710000 10                 TRA     s:11491

  11467 10 002524   000000 115003                    CMPA    0,DU
        10 002525   002533 601000 10                 TNZ     s:11469

  11468 10 002526   200027 236100                    LDQ     LOP_DESC+1,,AUTO
PL6.E3A0      #003=Z8AU$TYPE_DESCRIPTOR File=Z8AU.:Z8A6TSI                       SAT 08/09/97 10:57 Page:127
        10 002527   000077 376007                    ANQ     63,DL
        10 002530   000001 136007                    SBLQ    1,DL
        10 002531   200036 756100                    STQ     P,,AUTO
        10 002532   002563 710000 10                 TRA     s:11491

  11469 10 002533   200027 236100                    LDQ     LOP_DESC+1,,AUTO
        10 002534   040000 316007                    CANQ    16384,DL
        10 002535   002542 600000 10                 TZE     s:11472

  11470 10 002536   200027 236100                    LDQ     LOP_DESC+1,,AUTO
        10 002537   000077 376007                    ANQ     63,DL
        10 002540   200036 756100                    STQ     P,,AUTO
        10 002541   002563 710000 10                 TRA     s:11491

  11472 10 002542   200027 236100                    LDQ     LOP_DESC+1,,AUTO
        10 002543   000077 376007                    ANQ     63,DL
        10 002544   000001 136007                    SBLQ    1,DL
        10 002545   200036 756100                    STQ     P,,AUTO
        10 002546   002563 710000 10                 TRA     s:11491

  11475 10 002547   200027 236100                    LDQ     LOP_DESC+1,,AUTO
        10 002550   040000 316007                    CANQ    16384,DL
        10 002551   002557 600000 10                 TZE     s:11478

  11476 10 002552   200027 236100                    LDQ     LOP_DESC+1,,AUTO
        10 002553   000077 376007                    ANQ     63,DL
        10 002554   000003 136007                    SBLQ    3,DL
        10 002555   200036 756100                    STQ     P,,AUTO
        10 002556   002563 710000 10                 TRA     s:11491

  11478 10 002557   200027 236100                    LDQ     LOP_DESC+1,,AUTO
        10 002560   000077 376007                    ANQ     63,DL
        10 002561   000002 136007                    SBLQ    2,DL
        10 002562   200036 756100                    STQ     P,,AUTO

  11491 10 002563   200027 236100                    LDQ     LOP_DESC+1,,AUTO
        10 002564   000030 736000                    QLS     24
PL6.E3A0      #003=Z8AU$TYPE_DESCRIPTOR File=Z8AU.:Z8A6TSI                       SAT 08/09/97 10:57 Page:128
        10 002565   000036 732000                    QRS     30
        10 002566   200037 756100                    STQ     Q,,AUTO

  11494 10 002567   200027 236100                    LDQ     LOP_DESC+1,,AUTO
        10 002570   000026 736000                    QLS     22
        10 002571   600000 376003                    ANQ     -65536,DU
        10 002572   200042 756100                    STQ     LOP_SIGN,,AUTO

      587    11499
      588    11500                 %UNPACK_NDSC ( @DESC   = ROP_DESC.DESC ,
      589    11501                                @TYPE   = ROP_DESC.TYPE,
      590    11502                                @SIGN   = ROP_SIGN,
      591    11503                                @LENGTH = R ,
      592    11504                                @SCALE  = S );

  11511 10 002573   200033 236100                    LDQ     ROP_DESC+1,,AUTO
        10 002574   000014 772000                    QRL     12
        10 002575   000003 376007                    ANQ     3,DL
        10 002576   000004 116007                    CMPQ    4,DL
        10 002577   002601 602006 10                 TNC     s:11511+6,QL
        10 002600   002657 710000 10                 TRA     s:11551
        10 002601   002643 710000 10                 TRA     s:11535
        10 002602   002611 710000 10                 TRA     s:11525
        10 002603   002611 710000 10                 TRA     s:11525
        10 002604   002605 710000 10                 TRA     s:11513

  11513 10 002605   200033 236100                    LDQ     ROP_DESC+1,,AUTO
        10 002606   000077 376007                    ANQ     63,DL
        10 002607   200040 756100                    STQ     R,,AUTO
        10 002610   002657 710000 10                 TRA     s:11551

  11525 10 002611   200032 235100                    LDA     ROP_DESC,,AUTO
        10 002612   000003 115007                    CMPA    3,DL
        10 002613   002620 601000 10                 TNZ     s:11527

  11526 10 002614   200033 236100                    LDQ     ROP_DESC+1,,AUTO
        10 002615   000077 376007                    ANQ     63,DL
PL6.E3A0      #003=Z8AU$TYPE_DESCRIPTOR File=Z8AU.:Z8A6TSI                       SAT 08/09/97 10:57 Page:129
        10 002616   200040 756100                    STQ     R,,AUTO
        10 002617   002657 710000 10                 TRA     s:11551

  11527 10 002620   000000 115003                    CMPA    0,DU
        10 002621   002627 601000 10                 TNZ     s:11529

  11528 10 002622   200033 236100                    LDQ     ROP_DESC+1,,AUTO
        10 002623   000077 376007                    ANQ     63,DL
        10 002624   000001 136007                    SBLQ    1,DL
        10 002625   200040 756100                    STQ     R,,AUTO
        10 002626   002657 710000 10                 TRA     s:11551

  11529 10 002627   200033 236100                    LDQ     ROP_DESC+1,,AUTO
        10 002630   040000 316007                    CANQ    16384,DL
        10 002631   002636 600000 10                 TZE     s:11532

  11530 10 002632   200033 236100                    LDQ     ROP_DESC+1,,AUTO
        10 002633   000077 376007                    ANQ     63,DL
        10 002634   200040 756100                    STQ     R,,AUTO
        10 002635   002657 710000 10                 TRA     s:11551

  11532 10 002636   200033 236100                    LDQ     ROP_DESC+1,,AUTO
        10 002637   000077 376007                    ANQ     63,DL
        10 002640   000001 136007                    SBLQ    1,DL
        10 002641   200040 756100                    STQ     R,,AUTO
        10 002642   002657 710000 10                 TRA     s:11551

  11535 10 002643   200033 236100                    LDQ     ROP_DESC+1,,AUTO
        10 002644   040000 316007                    CANQ    16384,DL
        10 002645   002653 600000 10                 TZE     s:11538

  11536 10 002646   200033 236100                    LDQ     ROP_DESC+1,,AUTO
        10 002647   000077 376007                    ANQ     63,DL
        10 002650   000003 136007                    SBLQ    3,DL
        10 002651   200040 756100                    STQ     R,,AUTO
        10 002652   002657 710000 10                 TRA     s:11551

PL6.E3A0      #003=Z8AU$TYPE_DESCRIPTOR File=Z8AU.:Z8A6TSI                       SAT 08/09/97 10:57 Page:130
  11538 10 002653   200033 236100                    LDQ     ROP_DESC+1,,AUTO
        10 002654   000077 376007                    ANQ     63,DL
        10 002655   000002 136007                    SBLQ    2,DL
        10 002656   200040 756100                    STQ     R,,AUTO

  11551 10 002657   200033 236100                    LDQ     ROP_DESC+1,,AUTO
        10 002660   000030 736000                    QLS     24
        10 002661   000036 732000                    QRS     30
        10 002662   200041 756100                    STQ     S,,AUTO

  11554 10 002663   200033 236100                    LDQ     ROP_DESC+1,,AUTO
        10 002664   000026 736000                    QLS     22
        10 002665   600000 376003                    ANQ     -65536,DU
        10 002666   200043 756100                    STQ     ROP_SIGN,,AUTO

      593    11559
      594    11560    2            LENGTH = P + R + 1;

  11560 10 002667   200036 236100                    LDQ     P,,AUTO
        10 002670   200040 036100                    ADLQ    R,,AUTO
        10 002671   000001 036007                    ADLQ    1,DL
        10 002672   200023 756100                    STQ     LENGTH,,AUTO

      595    11561
      596    11562    2            IF LENGTH >= COMCOM.MAX_TEMP_LENGTH THEN

  11562 10 002673   000427 116000 xsym               CMPQ    COMCOM+279
        10 002674   002733 604000 10                 TMI     s:11629

      597    11563    3              DO;

      598    11564                     %PACK_NDSC ( @DESC     = TYPE_DESC.DESC ,
      599    11565                                  @LENGTH   = COMCOM.MAX_TEMP_LENGTH ,
      600    11566                                  @TN       = %NDSC4 ,
      601    11567                                  @SIGN     = %FLOATING_POINT_LEADING_SIGN );

  11572 10 002675   000000 220003                    LDX0    0,DU
PL6.E3A0      #003=Z8AU$TYPE_DESCRIPTOR File=Z8AU.:Z8A6TSI                       SAT 08/09/97 10:57 Page:131
        10 002676   200004 470500                    LDP0    @TYPE_DESC,,AUTO
        10 002677   000001 740100                    STX0    1,,PR0

  11573 10 002700   000002 236000 11                 LDQ     2
        10 002701   000001 356100                    ANSQ    1,,PR0

  11574 10 002702   040000 236007                    LDQ     16384,DL
        10 002703   000001 256100                    ORSQ    1,,PR0

  11575 10 002704   000005 236000 11                 LDQ     5
        10 002705   000001 356100                    ANSQ    1,,PR0

  11576 10 002706   000000 236003                    LDQ     0,DU
        10 002707   000001 752102                    STCQ    1,'02'O,PR0

  11577 10 002710   000000 235003                    LDA     0,DU
        10 002711   000004 115007                    CMPA    4,DL
        10 002712   002714 602005 10                 TNC     s:11577+4,AL
        10 002713   002774 710000 10                 TRA     s:11676
        10 002714   002727 710000 10                 TRA     s:11611
        10 002715   002723 710000 10                 TRA     s:11584
        10 002716   002723 710000 10                 TRA     s:11584
        10 002717   002720 710000 10                 TRA     s:11579

  11579 10 002720   000427 236000 xsym               LDQ     COMCOM+279
        10 002721   000001 752101                    STCQ    1,'01'O,PR0
        10 002722   002774 710000 10                 TRA     s:11676

  11584 10 002723   000427 236000 xsym               LDQ     COMCOM+279
        10 002724   000001 036007                    ADLQ    1,DL
        10 002725   000001 752101                    STCQ    1,'01'O,PR0
        10 002726   002774 710000 10                 TRA     s:11676

  11611 10 002727   000427 236000 xsym               LDQ     COMCOM+279
        10 002730   000003 036007                    ADLQ    3,DL
        10 002731   000001 752101                    STCQ    1,'01'O,PR0

PL6.E3A0      #003=Z8AU$TYPE_DESCRIPTOR File=Z8AU.:Z8A6TSI                       SAT 08/09/97 10:57 Page:132
      602    11616    3              END;

  11616 10 002732   002774 710000 10                 TRA     s:11676

      603    11617    2            ELSE
      604    11618    3              DO;

      605    11619
      606    11620                     %PACK_NDSC ( @DESC     = TYPE_DESC.DESC ,
      607    11621                                  @LENGTH   = LENGTH ,
      608    11622                                  @SCALE    = "(Q + S)" ,
      609    11623                                  @TN       = %NDSC4 ,
      610    11624                                  @SIGN     = %TRAILING_SIGN );

  11629 10 002733   000000 220003                    LDX0    0,DU
        10 002734   200004 470500                    LDP0    @TYPE_DESC,,AUTO
        10 002735   000001 740100                    STX0    1,,PR0

  11630 10 002736   000002 236000 11                 LDQ     2
        10 002737   000001 356100                    ANSQ    1,,PR0

  11631 10 002740   040000 236007                    LDQ     16384,DL
        10 002741   000001 256100                    ORSQ    1,,PR0

  11632 10 002742   000001 236100                    LDQ     1,,PR0
        10 002743   000005 376000 11                 ANQ     5
        10 002744   020000 276007                    ORQ     8192,DL
        10 002745   000001 756100                    STQ     1,,PR0

  11633 10 002746   200037 236100                    LDQ     Q,,AUTO
        10 002747   200041 036100                    ADLQ    S,,AUTO
        10 002750   000006 736000                    QLS     6
        10 002751   000001 752102                    STCQ    1,'02'O,PR0

  11634 10 002752   000002 235007                    LDA     2,DL
        10 002753   000004 115007                    CMPA    4,DL
        10 002754   002756 602005 10                 TNC     s:11634+4,AL
PL6.E3A0      #003=Z8AU$TYPE_DESCRIPTOR File=Z8AU.:Z8A6TSI                       SAT 08/09/97 10:57 Page:133
        10 002755   002774 710000 10                 TRA     s:11676
        10 002756   002771 710000 10                 TRA     s:11668
        10 002757   002765 710000 10                 TRA     s:11641
        10 002760   002765 710000 10                 TRA     s:11641
        10 002761   002762 710000 10                 TRA     s:11636

  11636 10 002762   200023 236100                    LDQ     LENGTH,,AUTO
        10 002763   000001 752101                    STCQ    1,'01'O,PR0
        10 002764   002774 710000 10                 TRA     s:11676

  11641 10 002765   200023 236100                    LDQ     LENGTH,,AUTO
        10 002766   000001 036007                    ADLQ    1,DL
        10 002767   000001 752101                    STCQ    1,'01'O,PR0
        10 002770   002774 710000 10                 TRA     s:11676

  11668 10 002771   200023 236100                    LDQ     LENGTH,,AUTO
        10 002772   000003 036007                    ADLQ    3,DL
        10 002773   000001 752101                    STCQ    1,'01'O,PR0

      611    11673
      612    11674    3              END;

      613    11675
      614    11676    2            TYPE_DESC.TYPE = %TYD;

  11676 10 002774   000000 450100                    STZ     0,,PR0
        10 002775   004111 710000 10                 TRA     s:12302

      615    11677
      616    11678    2          CASE(%EXDD, %DVD, %DVO, %DVDR, %DVOR, %EXDI);

      617    11679                 %PACK_NDSC( @DESC     = TYPE_DESC.DESC ,
      618    11680                             @SIGN     = %FLOATING_POINT_LEADING_SIGN ,
      619    11681                             @TN       = %NDSC4 ,
      620    11682                             @LENGTH   = COMCOM.MAX_TEMP_LENGTH );

  11687 10 002776   000000 221003                    LDX1    0,DU
PL6.E3A0      #003=Z8AU$TYPE_DESCRIPTOR File=Z8AU.:Z8A6TSI                       SAT 08/09/97 10:57 Page:134
        10 002777   000001 741100                    STX1    1,,PR0

  11688 10 003000   000002 236000 11                 LDQ     2
        10 003001   000001 356100                    ANSQ    1,,PR0

  11689 10 003002   040000 236007                    LDQ     16384,DL
        10 003003   000001 256100                    ORSQ    1,,PR0

  11690 10 003004   000005 236000 11                 LDQ     5
        10 003005   000001 356100                    ANSQ    1,,PR0

  11691 10 003006   000000 236003                    LDQ     0,DU
        10 003007   000001 752102                    STCQ    1,'02'O,PR0

  11692 10 003010   000000 235003                    LDA     0,DU
        10 003011   000004 115007                    CMPA    4,DL
        10 003012   003014 602005 10                 TNC     s:11692+4,AL
        10 003013   003032 710000 10                 TRA     s:11732
        10 003014   003027 710000 10                 TRA     s:11726
        10 003015   003023 710000 10                 TRA     s:11699
        10 003016   003023 710000 10                 TRA     s:11699
        10 003017   003020 710000 10                 TRA     s:11694

  11694 10 003020   000427 236000 xsym               LDQ     COMCOM+279
        10 003021   000001 752101                    STCQ    1,'01'O,PR0
        10 003022   003032 710000 10                 TRA     s:11732

  11699 10 003023   000427 236000 xsym               LDQ     COMCOM+279
        10 003024   000001 036007                    ADLQ    1,DL
        10 003025   000001 752101                    STCQ    1,'01'O,PR0
        10 003026   003032 710000 10                 TRA     s:11732

  11726 10 003027   000427 236000 xsym               LDQ     COMCOM+279
        10 003030   000003 036007                    ADLQ    3,DL
        10 003031   000001 752101                    STCQ    1,'01'O,PR0

      621    11731
PL6.E3A0      #003=Z8AU$TYPE_DESCRIPTOR File=Z8AU.:Z8A6TSI                       SAT 08/09/97 10:57 Page:135
      622    11732    2            TYPE_DESC.TYPE = %TYD;

  11732 10 003032   000000 450100                    STZ     0,,PR0
        10 003033   004111 710000 10                 TRA     s:12302

      623    11733
      624    11734    2          CASE(%CVDO);

      625    11735
      626    11736    2            TYPE_DESC.DESC = NODE$ -> ETT.DESC;

  11736 10 003034   300002 236100                    LDQ     2,,PR3
        10 003035   000001 756100                    STQ     1,,PR0

      627    11737    2            TYPE_DESC.TYPE = %TYO;

  11737 10 003036   000003 235007                    LDA     3,DL
        10 003037   000000 755100                    STA     0,,PR0
        10 003040   004111 710000 10                 TRA     s:12302

      628    11738
      629    11739    2          CASE(%CVDF);

      630    11740
      631    11741    2            TYPE_DESC.DESC = NODE$ -> ETT.DESC;

  11741 10 003041   300002 236100                    LDQ     2,,PR3
        10 003042   000001 756100                    STQ     1,,PR0

      632    11742    2            TYPE_DESC.TYPE = %TYF;

  11742 10 003043   000013 235007                    LDA     11,DL
        10 003044   000000 755100                    STA     0,,PR0
        10 003045   004111 710000 10                 TRA     s:12302

      633    11743
      634    11744    2          CASE(%CVID4, %CVID9, %CVQD4, %CVQD9, %CVRD4, %CVRD9, %CV49,
PL6.E3A0      #003=Z8AU$TYPE_DESCRIPTOR File=Z8AU.:Z8A6TSI                       SAT 08/09/97 10:57 Page:136

      635    11745    2               %CVDD, %RNDO, %RNDD, %CVOD4);
      636    11746
      637    11747    2            TYPE_DESC.DESC = NODE$ -> ETT.DESC;

  11747 10 003046   300002 236100                    LDQ     2,,PR3
        10 003047   000001 756100                    STQ     1,,PR0

      638    11748    2            TYPE_DESC.TYPE       = %TYD;

  11748 10 003050   000000 450100                    STZ     0,,PR0

      639    11749    2            TYPE_DESC.DESC.SA = 1;
             11749                     /* So temp will not be assumed on double-word bound */

  11749 10 003051   000001 220003                    LDX0    1,DU
        10 003052   000001 740100                    STX0    1,,PR0
        10 003053   004111 710000 10                 TRA     s:12302

      640    11750
      641    11751    2          CASE(%DAN);

      642    11752
      643    11753    2            CALL Z8AU$TYPE_DESCRIPTOR(NODE$ -> ETT.LOP, TYPE_DESC);

  11753 10 003054   200004 236100                    LDQ     @TYPE_DESC,,AUTO
        10 003055   200053 756100                    STQ     ETT$$+2,,AUTO
        10 003056   300001 634500                    EPPR4   1,,PR3
        10 003057   200052 454500                    STP4    ETT$$+1,,AUTO
        10 003060   200052 630500                    EPPR0   ETT$$+1,,AUTO
        10 003061   000001 631400 11                 EPPR1   1
        10 003062   000000 701000 10                 TSX1    s:6
        10 003063   000000 011000                    NOP     0

      644    11754    2            TYPE_DESC.DESC = NODE$ -> ETT.DESC;

  11754 10 003064   200003 470500                    LDP0    @NODE$,,AUTO
PL6.E3A0      #003=Z8AU$TYPE_DESCRIPTOR File=Z8AU.:Z8A6TSI                       SAT 08/09/97 10:57 Page:137
        10 003065   000000 471500                    LDP1    0,,PR0
        10 003066   100002 236100                    LDQ     2,,PR1
        10 003067   200004 473500                    LDP3    @TYPE_DESC,,AUTO
        10 003070   300001 756100                    STQ     1,,PR3

      645    11755    3            DO CASE (TYPE_DESC.TYPE);

  11755 10 003071   300000 235100                    LDA     0,,PR3
        10 003072   000006 135007                    SBLA    6,DL
        10 003073   000007 115007                    CMPA    7,DL
        10 003074   003076 602005 10                 TNC     s:11755+5,AL
        10 003075   003113 710000 10                 TRA     s:11761
        10 003076   003110 710000 10                 TRA     s:11759
        10 003077   003113 710000 10                 TRA     s:11761
        10 003100   003113 710000 10                 TRA     s:11761
        10 003101   003113 710000 10                 TRA     s:11761
        10 003102   003113 710000 10                 TRA     s:11761
        10 003103   003113 710000 10                 TRA     s:11761
        10 003104   003105 710000 10                 TRA     s:11757

      646    11756    3              CASE (%TYB);

      647    11757    3                TYPE_DESC.TYPE = %TYC;

  11757 10 003105   000023 235007                    LDA     19,DL
        10 003106   300000 755100                    STA     0,,PR3
        10 003107   004111 710000 10                 TRA     s:12302

      648    11758    3              CASE (%TYE);

      649    11759    3                TYPE_DESC.TYPE = %TYF;

  11759 10 003110   000013 235007                    LDA     11,DL
        10 003111   300000 755100                    STA     0,,PR3
        10 003112   004111 710000 10                 TRA     s:12302

      650    11760    3              CASE (ELSE);
PL6.E3A0      #003=Z8AU$TYPE_DESCRIPTOR File=Z8AU.:Z8A6TSI                       SAT 08/09/97 10:57 Page:138

      651    11761    3                TYPE_DESC.TYPE = %TYD;

  11761 10 003113   300000 450100                    STZ     0,,PR3

      652    11762    3            END;

  11762 10 003114   004111 710000 10                 TRA     s:12302

      653    11763
      654    11764    2          CASE (%CVDSF);

      655    11765
      656    11766    2            TYPE_DESC.DESC = NODE$ -> ETT.DESC;

  11766 10 003115   300002 236100                    LDQ     2,,PR3
        10 003116   000001 756100                    STQ     1,,PR0

      657    11767    2            TYPE_DESC.TYPE = %TYD;

  11767 10 003117   000000 450100                    STZ     0,,PR0

      658    11768    2            IF NODE$ -> ETT.DESC.NDSC.SF ~= 0 THEN

  11768 10 003120   100000 473500                    LDP3    0,,PR1
        10 003121   300002 236100                    LDQ     2,,PR3
        10 003122   007700 316007                    CANQ    4032,DL
        10 003123   004111 600000 10                 TZE     s:12302

      659    11769    2              TYPE_DESC.DESC.SA = 1;
             11769                       /* So temp will not be assumed on double-word bound */

  11769 10 003124   000001 220003                    LDX0    1,DU
        10 003125   000001 740100                    STX0    1,,PR0
        10 003126   004111 710000 10                 TRA     s:12302

      660    11770
PL6.E3A0      #003=Z8AU$TYPE_DESCRIPTOR File=Z8AU.:Z8A6TSI                       SAT 08/09/97 10:57 Page:139
      661    11771    2          CASE(%CVAA);

      662    11772    2            TYPE_DESC.DESC = NODE$ -> ETT.DESC;

  11772 10 003127   300002 236100                    LDQ     2,,PR3
        10 003130   000001 756100                    STQ     1,,PR0

      663    11773    2            TYPE_DESC.TYPE = %TYA;

  11773 10 003131   000010 235007                    LDA     8,DL
        10 003132   000000 755100                    STA     0,,PR0
        10 003133   004111 710000 10                 TRA     s:12302

      664    11774
      665    11775    2          CASE(%D96);

      666    11776    2            CALL Z8AU$TYPE_DESCRIPTOR (NODE$ -> ETT.LOP, TYPE_DESC);

  11776 10 003134   200004 236100                    LDQ     @TYPE_DESC,,AUTO
        10 003135   200053 756100                    STQ     ETT$$+2,,AUTO
        10 003136   300001 634500                    EPPR4   1,,PR3
        10 003137   200052 454500                    STP4    ETT$$+1,,AUTO
        10 003140   200052 630500                    EPPR0   ETT$$+1,,AUTO
        10 003141   000001 631400 11                 EPPR1   1
        10 003142   000000 701000 10                 TSX1    s:6
        10 003143   000000 011000                    NOP     0

      667    11777    2            IF TYPE_DESC.TYPE = %TYD

  11777 10 003144   200004 470500                    LDP0    @TYPE_DESC,,AUTO
        10 003145   000000 235100                    LDA     0,,PR0
        10 003146   003152 601000 10                 TNZ     s:11779

      668    11778    2               THEN TYPE_DESC.TYPE = %TYC;

  11778 10 003147   000023 236007                    LDQ     19,DL
        10 003150   000000 756100                    STQ     0,,PR0
PL6.E3A0      #003=Z8AU$TYPE_DESCRIPTOR File=Z8AU.:Z8A6TSI                       SAT 08/09/97 10:57 Page:140
        10 003151   004111 710000 10                 TRA     s:12302

      669    11779    2               ELSE TYPE_DESC.TYPE = %TYB;

  11779 10 003152   000014 236007                    LDQ     12,DL
        10 003153   000000 756100                    STQ     0,,PR0
        10 003154   004111 710000 10                 TRA     s:12302

      670    11780
      671    11781    2          CASE(%DNA);

      672    11782    2            CALL Z8AU$TYPE_DESCRIPTOR (NODE$ -> ETT.LOP, TYPE_DESC);

  11782 10 003155   200004 236100                    LDQ     @TYPE_DESC,,AUTO
        10 003156   200053 756100                    STQ     ETT$$+2,,AUTO
        10 003157   300001 634500                    EPPR4   1,,PR3
        10 003160   200052 454500                    STP4    ETT$$+1,,AUTO
        10 003161   200052 630500                    EPPR0   ETT$$+1,,AUTO
        10 003162   000001 631400 11                 EPPR1   1
        10 003163   000000 701000 10                 TSX1    s:6
        10 003164   000000 011000                    NOP     0

      673    11783    2            TYPE_DESC.DESC.ADSC = NODE$ -> ETT.DESC.ADSC;

  11783 10 003165   200003 470500                    LDP0    @NODE$,,AUTO
        10 003166   000000 471500                    LDP1    0,,PR0
        10 003167   100002 720100                    LXL0    2,,PR1
        10 003170   200004 473500                    LDP3    @TYPE_DESC,,AUTO
        10 003171   300001 440100                    SXL0    1,,PR3

      674    11784    3            DO CASE (TYPE_DESC.TYPE);

  11784 10 003172   300000 235100                    LDA     0,,PR3
        10 003173   000013 135007                    SBLA    11,DL
        10 003174   000011 115007                    CMPA    9,DL
        10 003175   003177 602005 10                 TNC     s:11784+5,AL
        10 003176   003216 710000 10                 TRA     s:11790
PL6.E3A0      #003=Z8AU$TYPE_DESCRIPTOR File=Z8AU.:Z8A6TSI                       SAT 08/09/97 10:57 Page:141
        10 003177   003210 710000 10                 TRA     s:11786
        10 003200   003216 710000 10                 TRA     s:11790
        10 003201   003216 710000 10                 TRA     s:11790
        10 003202   003216 710000 10                 TRA     s:11790
        10 003203   003216 710000 10                 TRA     s:11790
        10 003204   003216 710000 10                 TRA     s:11790
        10 003205   003216 710000 10                 TRA     s:11790
        10 003206   003216 710000 10                 TRA     s:11790
        10 003207   003213 710000 10                 TRA     s:11788

      675    11785    3              CASE (%TYF);

      676    11786    3                TYPE_DESC.TYPE = %TYE;

  11786 10 003210   000006 236007                    LDQ     6,DL
        10 003211   300000 756100                    STQ     0,,PR3
        10 003212   004111 710000 10                 TRA     s:12302

      677    11787    3              CASE (%TYC);

      678    11788    3                TYPE_DESC.TYPE = %TYB;

  11788 10 003213   000014 236007                    LDQ     12,DL
        10 003214   300000 756100                    STQ     0,,PR3
        10 003215   004111 710000 10                 TRA     s:12302

      679    11789    3              CASE (ELSE);

      680    11790    3                TYPE_DESC.TYPE = %TYA;

  11790 10 003216   000010 236007                    LDQ     8,DL
        10 003217   300000 756100                    STQ     0,,PR3

      681    11791    3            END;

  11791 10 003220   004111 710000 10                 TRA     s:12302

PL6.E3A0      #003=Z8AU$TYPE_DESCRIPTOR File=Z8AU.:Z8A6TSI                       SAT 08/09/97 10:57 Page:142
      682    11792    2          CASE(%FISS);

      683    11793    2            CALL Z8AU$TYPE_DESCRIPTOR(NODE$ -> ETT.LOP,TYPE_DESC);

  11793 10 003221   200004 236100                    LDQ     @TYPE_DESC,,AUTO
        10 003222   200053 756100                    STQ     ETT$$+2,,AUTO
        10 003223   300001 634500                    EPPR4   1,,PR3
        10 003224   200052 454500                    STP4    ETT$$+1,,AUTO
        10 003225   200052 630500                    EPPR0   ETT$$+1,,AUTO
        10 003226   000001 631400 11                 EPPR1   1
        10 003227   000000 701000 10                 TSX1    s:6
        10 003230   000000 011000                    NOP     0

      684    11794
      685    11795    2            TYPE_DESC.SIZ$  = ADDR(NIL);

  11795 10 003231   000000 236000 11                 LDQ     0
        10 003232   200004 470500                    LDP0    @TYPE_DESC,,AUTO
        10 003233   000002 756100                    STQ     2,,PR0

      686    11796
      687    11797    3            DO CASE(NODE$ -> ETT.SIZE.TYPE);

  11797 10 003234   200003 471500                    LDP1    @NODE$,,AUTO
        10 003235   100000 473500                    LDP3    0,,PR1
        10 003236   300002 720100                    LXL0    2,,PR3
        10 003237   000002 100003                    CMPX0   2,DU
        10 003240   003242 602010 10                 TNC     s:11797+6,X0
        10 003241   004111 710000 10                 TRA     s:12302
        10 003242   003244 710000 10                 TRA     s:11809
        10 003243   003325 710000 10                 TRA     s:11899

      688    11798    3              CASE(%ALPHA_NUMERIC_FISS);

      689    11799                     %UNPACK_ADSC ( @DESC    = TYPE_DESC.DESC ,
      690    11800                                    @SA      = SA ,
      691    11801                                    @CN      = CN ,
PL6.E3A0      #003=Z8AU$TYPE_DESCRIPTOR File=Z8AU.:Z8A6TSI                       SAT 08/09/97 10:57 Page:143
      692    11802                                    @TA      = TA );

  11809 10 003244   000001 236100                    LDQ     1,,PR0
        10 003245   000022 772000                    QRL     18
        10 003246   200025 756100                    STQ     SA,,AUTO

  11815 10 003247   000001 236100                    LDQ     1,,PR0
        10 003250   060000 316007                    CANQ    24576,DL
        10 003251   003257 601000 10                 TNZ     s:11817

  11816 10 003252   000001 236100                    LDQ     1,,PR0
        10 003253   000020 772000                    QRL     16
        10 003254   000003 376007                    ANQ     3,DL
        10 003255   200024 756100                    STQ     CN,,AUTO
        10 003256   003263 710000 10                 TRA     s:11820

  11817 10 003257   000001 236100                    LDQ     1,,PR0
        10 003260   000017 772000                    QRL     15
        10 003261   000007 376007                    ANQ     7,DL
        10 003262   200024 756100                    STQ     CN,,AUTO

  11820 10 003263   000001 236100                    LDQ     1,,PR0
        10 003264   000025 736000                    QLS     21
        10 003265   600000 376003                    ANQ     -65536,DU
        10 003266   200021 756100                    STQ     TA,,AUTO

      693    11825
      694    11826                     %PACK_ADSC   ( @DESC    = TYPE_DESC.DESC ,
      695    11827                                    @SA      = SA ,
      696    11828                                    @CN      = CN ,
      697    11829                                    @TA      = TA ,
      698    11830                                    @LENGTH  = NODE$ -> ETT.SIZE.VALUE );

  11834 10 003267   200025 721100                    LXL1    SA,,AUTO
        10 003270   000001 741100                    STX1    1,,PR0

  11841 10 003271   200021 236100                    LDQ     TA,,AUTO
PL6.E3A0      #003=Z8AU$TYPE_DESCRIPTOR File=Z8AU.:Z8A6TSI                       SAT 08/09/97 10:57 Page:144
        10 003272   600000 316003                    CANQ    -65536,DU
        10 003273   003304 601000 10                 TNZ     s:11847

  11843 10 003274   200024 236100                    LDQ     CN,,AUTO
        10 003275   000020 736000                    QLS     16
        10 003276   000001 676100                    ERQ     1,,PR0
        10 003277   600000 376007                    ANQ     -65536,DL
        10 003300   000001 656100                    ERSQ    1,,PR0

  11844 10 003301   000007 236000 11                 LDQ     7
        10 003302   000001 356100                    ANSQ    1,,PR0

  11845 10 003303   003311 710000 10                 TRA     s:11849

  11847 10 003304   200024 236100                    LDQ     CN,,AUTO
        10 003305   000017 736000                    QLS     15
        10 003306   000001 676100                    ERQ     1,,PR0
        10 003307   700000 376007                    ANQ     -32768,DL
        10 003310   000001 656100                    ERSQ    1,,PR0

  11849 10 003311   200021 236100                    LDQ     TA,,AUTO
        10 003312   000025 772000                    QRL     21
        10 003313   000001 676100                    ERQ     1,,PR0
        10 003314   060000 376007                    ANQ     24576,DL
        10 003315   000001 656100                    ERSQ    1,,PR0

  11850 10 003316   000010 236000 11                 LDQ     8
        10 003317   000001 356100                    ANSQ    1,,PR0

  11851 10 003320   100000 473500                    LDP3    0,,PR1
        10 003321   300002 236100                    LDQ     2,,PR3
        10 003322   000022 772000                    QRL     18
        10 003323   000001 752103                    STCQ    1,'03'O,PR0

  11852 10 003324   004111 710000 10                 TRA     s:12302

      699    11854
PL6.E3A0      #003=Z8AU$TYPE_DESCRIPTOR File=Z8AU.:Z8A6TSI                       SAT 08/09/97 10:57 Page:145
      700    11855    3              CASE(%NUMERIC_FISS);

      701    11856                     %UNPACK_NDSC ( @DESC    = TYPE_DESC.DESC ,
      702    11857                                    @SA      = SA ,
      703    11858                                    @CN      = CN ,
      704    11859                                    @TN      = TN ,
      705    11860                                    @SIGN    = SIGN ,
      706    11861                                    @SCALE   = SCALE );

  11899 10 003325   000001 236100                    LDQ     1,,PR0
        10 003326   000022 772000                    QRL     18
        10 003327   200025 756100                    STQ     SA,,AUTO

  11902 10 003330   000001 236100                    LDQ     1,,PR0
        10 003331   000017 772000                    QRL     15
        10 003332   000007 376007                    ANQ     7,DL
        10 003333   200024 756100                    STQ     CN,,AUTO

  11905 10 003334   000001 236100                    LDQ     1,,PR0
        10 003335   000025 736000                    QLS     21
        10 003336   400000 376003                    ANQ     -131072,DU
        10 003337   200020 756100                    STQ     TN,,AUTO

  11908 10 003340   000001 236100                    LDQ     1,,PR0
        10 003341   000030 736000                    QLS     24
        10 003342   000036 732000                    QRS     30
        10 003343   200022 756100                    STQ     SCALE,,AUTO

  11911 10 003344   000001 236100                    LDQ     1,,PR0
        10 003345   000026 736000                    QLS     22
        10 003346   600000 376003                    ANQ     -65536,DU
        10 003347   200017 756100                    STQ     SIGN,,AUTO

      707    11916
      708    11917                     %PACK_NDSC   ( @DESC    = TYPE_DESC.DESC ,
      709    11918                                    @SA      = SA ,
      710    11919                                    @CN      = CN ,
PL6.E3A0      #003=Z8AU$TYPE_DESCRIPTOR File=Z8AU.:Z8A6TSI                       SAT 08/09/97 10:57 Page:146
      711    11920                                    @TN      = TN ,
      712    11921                                    @SIGN    = SIGN ,
      713    11922                                    @SCALE   = SCALE ,
      714    11923                                    @LENGTH  = NODE$ -> ETT.SIZE.VALUE );

  11928 10 003350   200025 721100                    LXL1    SA,,AUTO
        10 003351   000001 741100                    STX1    1,,PR0

  11929 10 003352   200024 236100                    LDQ     CN,,AUTO
        10 003353   000017 736000                    QLS     15
        10 003354   000001 676100                    ERQ     1,,PR0
        10 003355   700000 376007                    ANQ     -32768,DL
        10 003356   000001 656100                    ERSQ    1,,PR0

  11930 10 003357   200020 236100                    LDQ     TN,,AUTO
        10 003360   000025 772000                    QRL     21
        10 003361   000001 676100                    ERQ     1,,PR0
        10 003362   040000 376007                    ANQ     16384,DL
        10 003363   000001 656100                    ERSQ    1,,PR0

  11931 10 003364   200017 236100                    LDQ     SIGN,,AUTO
        10 003365   000026 772000                    QRL     22
        10 003366   000001 676100                    ERQ     1,,PR0
        10 003367   030000 376007                    ANQ     12288,DL
        10 003370   000001 656100                    ERSQ    1,,PR0

  11932 10 003371   200022 236100                    LDQ     SCALE,,AUTO
        10 003372   000006 736000                    QLS     6
        10 003373   000001 752102                    STCQ    1,'02'O,PR0

  11933 10 003374   200017 236100                    LDQ     SIGN,,AUTO
        10 003375   000042 772000                    QRL     34
        10 003376   000004 116007                    CMPQ    4,DL
        10 003377   003401 602006 10                 TNC     s:11933+5,QL
        10 003400   004111 710000 10                 TRA     s:12302
        10 003401   003420 710000 10                 TRA     s:11959
        10 003402   003412 710000 10                 TRA     s:11940
PL6.E3A0      #003=Z8AU$TYPE_DESCRIPTOR File=Z8AU.:Z8A6TSI                       SAT 08/09/97 10:57 Page:147
        10 003403   003412 710000 10                 TRA     s:11940
        10 003404   003405 710000 10                 TRA     s:11935

  11935 10 003405   100000 473500                    LDP3    0,,PR1
        10 003406   300002 236100                    LDQ     2,,PR3
        10 003407   000022 772000                    QRL     18
        10 003410   000001 752101                    STCQ    1,'01'O,PR0
        10 003411   004111 710000 10                 TRA     s:12302

  11940 10 003412   100000 473500                    LDP3    0,,PR1
        10 003413   300002 236100                    LDQ     2,,PR3
        10 003414   000022 732000                    QRS     18
        10 003415   000001 036007                    ADLQ    1,DL
        10 003416   000001 752101                    STCQ    1,'01'O,PR0
        10 003417   004111 710000 10                 TRA     s:12302

  11959 10 003420   200020 234100                    SZN     TN,,AUTO
        10 003421   003430 605000 10                 TPL     s:11962

  11960 10 003422   100000 473500                    LDP3    0,,PR1
        10 003423   300002 236100                    LDQ     2,,PR3
        10 003424   000022 732000                    QRS     18
        10 003425   000003 036007                    ADLQ    3,DL
        10 003426   000001 752101                    STCQ    1,'01'O,PR0
        10 003427   004111 710000 10                 TRA     s:12302

  11962 10 003430   100000 473500                    LDP3    0,,PR1
        10 003431   300002 236100                    LDQ     2,,PR3
        10 003432   000022 732000                    QRS     18
        10 003433   000002 036007                    ADLQ    2,DL
        10 003434   000001 752101                    STCQ    1,'01'O,PR0

      715    11972    3            END /* Case */;

  11972 10 003435   004111 710000 10                 TRA     s:12302

      716    11973
PL6.E3A0      #003=Z8AU$TYPE_DESCRIPTOR File=Z8AU.:Z8A6TSI                       SAT 08/09/97 10:57 Page:148
      717    11974    2          CASE(%SSOP);

      718    11975    2            CALL Z8AU$TYPE_DESCRIPTOR(NODE$ -> ETT.LOP, TYPE_DESC);

  11975 10 003436   200004 236100                    LDQ     @TYPE_DESC,,AUTO
        10 003437   200053 756100                    STQ     ETT$$+2,,AUTO
        10 003440   300001 634500                    EPPR4   1,,PR3
        10 003441   200052 454500                    STP4    ETT$$+1,,AUTO
        10 003442   200052 630500                    EPPR0   ETT$$+1,,AUTO
        10 003443   000001 631400 11                 EPPR1   1
        10 003444   000000 701000 10                 TSX1    s:6
        10 003445   000000 011000                    NOP     0

      719    11976
      720    11977    2            TYPE_DESC.SSOP$ = NODE$ -> ETT.ROP;

  11977 10 003446   200003 470500                    LDP0    @NODE$,,AUTO
        10 003447   000000 471500                    LDP1    0,,PR0
        10 003450   100002 236100                    LDQ     2,,PR1
        10 003451   200004 473500                    LDP3    @TYPE_DESC,,AUTO
        10 003452   300003 756100                    STQ     3,,PR3
        10 003453   004111 710000 10                 TRA     s:12302

      721    11978    2          CASE(%OFF);

      722    11979    2            CALL Z8AU$TYPE_DESCRIPTOR(NODE$ -> ETT.LOP, TYPE_DESC);

  11979 10 003454   200004 236100                    LDQ     @TYPE_DESC,,AUTO
        10 003455   200053 756100                    STQ     ETT$$+2,,AUTO
        10 003456   300001 634500                    EPPR4   1,,PR3
        10 003457   200052 454500                    STP4    ETT$$+1,,AUTO
        10 003460   200052 630500                    EPPR0   ETT$$+1,,AUTO
        10 003461   000001 631400 11                 EPPR1   1
        10 003462   000000 701000 10                 TSX1    s:6
        10 003463   000000 011000                    NOP     0

      723    11980
PL6.E3A0      #003=Z8AU$TYPE_DESCRIPTOR File=Z8AU.:Z8A6TSI                       SAT 08/09/97 10:57 Page:149
      724    11981    2            OFFSET = NODE$ -> ETT.OFFSET.VALUE;

  11981 10 003464   200003 470500                    LDP0    @NODE$,,AUTO
        10 003465   000000 471500                    LDP1    0,,PR0
        10 003466   100002 236100                    LDQ     2,,PR1
        10 003467   000022 732000                    QRS     18
        10 003470   200044 756100                    STQ     OFFSET,,AUTO

      725    11982    2            CODE   = NODE$ -> ETT.OFFSET.TYPE;

  11982 10 003471   000000 471500                    LDP1    0,,PR0
        10 003472   100002 236100                    LDQ     2,,PR1
        10 003473   777777 376007                    ANQ     -1,DL
        10 003474   200045 756100                    STQ     CODE,,AUTO

      726    11983
      727    11984    2            CALL Z9AU$OFFSET(OFFSET, CODE, TYPE_DESC.DESC);

  11984 10 003475   200004 236100                    LDQ     @TYPE_DESC,,AUTO
        10 003476   000001 036003                    ADLQ    1,DU
        10 003477   200054 756100                    STQ     ETT$$+3,,AUTO
        10 003500   200045 631500                    EPPR1   CODE,,AUTO
        10 003501   200053 451500                    STP1    ETT$$+2,,AUTO
        10 003502   200044 633500                    EPPR3   OFFSET,,AUTO
        10 003503   200052 453500                    STP3    ETT$$+1,,AUTO
        10 003504   200052 630500                    EPPR0   ETT$$+1,,AUTO
        10 003505   000011 631400 11                 EPPR1   9
        10 003506   000000 701000 xent               TSX1    Z9AU$OFFSET
        10 003507   000000 011000                    NOP     0
        10 003510   004111 710000 10                 TRA     s:12302

      728    11985
      729    11986    2          CASE(%CVDDD);

      730    11987
      731    11988    2            CALL Z8AU$TYPE_DESCRIPTOR (NODE$ -> ETT.LOP, TYPE_DESC);

PL6.E3A0      #003=Z8AU$TYPE_DESCRIPTOR File=Z8AU.:Z8A6TSI                       SAT 08/09/97 10:57 Page:150
  11988 10 003511   200004 236100                    LDQ     @TYPE_DESC,,AUTO
        10 003512   200053 756100                    STQ     ETT$$+2,,AUTO
        10 003513   300001 634500                    EPPR4   1,,PR3
        10 003514   200052 454500                    STP4    ETT$$+1,,AUTO
        10 003515   200052 630500                    EPPR0   ETT$$+1,,AUTO
        10 003516   000001 631400 11                 EPPR1   1
        10 003517   000000 701000 10                 TSX1    s:6
        10 003520   000000 011000                    NOP     0

      732    11989
      733    11990                 %FISH (TRIAD = NODE$ -> ETT.LOP,
      734    11991                        RTN   = LOP$);

  11993 10 003521   200003 470500                    LDP0    @NODE$,,AUTO
        10 003522   000000 471500                    LDP1    0,,PR0
        10 003523   100001 236100                    LDQ     1,,PR1
        10 003524   200050 756100                    STQ     LOP$,,AUTO

  11994 10 003525   200050 473500                    LDP3    LOP$,,AUTO
        10 003526   300000 220100                    LDX0    0,,PR3
        10 003527   000751 100003                    CMPX0   489,DU
        10 003530   003540 603000 10                 TRC     s:12003

  11995 10 003531   200050 470500                    LDP0    LOP$,,AUTO
        10 003532   000001 236100                    LDQ     1,,PR0
        10 003533   200050 756100                    STQ     LOP$,,AUTO

  11996 10 003534   200050 470500                    LDP0    LOP$,,AUTO
        10 003535   000000 220100                    LDX0    0,,PR0
        10 003536   000751 100003                    CMPX0   489,DU
        10 003537   003531 602000 10                 TNC     s:11995

      735    11999                 %GET_LTS (@ID       = %NEL,
      736    12000                           @ST$      = LOP$,
      737    12001                           @RETURN$  = NEL$$);

  12003 10 003540   200050 470500                    LDP0    LOP$,,AUTO
PL6.E3A0      #003=Z8AU$TYPE_DESCRIPTOR File=Z8AU.:Z8A6TSI                       SAT 08/09/97 10:57 Page:151
        10 003541   000005 236100                    LDQ     5,,PR0
        10 003542   000000 116000 11                 CMPQ    0
        10 003543   003553 600000 10                 TZE     s:12037
        10 003544   000005 471500                    LDP1    5,,PR0
        10 003545   100000 220100                    LDX0    0,,PR1
        10 003546   001105 100003                    CMPX0   581,DU
        10 003547   003553 601000 10                 TNZ     s:12037

  12009 10 003550   100002 236100                    LDQ     2,,PR1
        10 003551   200047 756100                    STQ     NEL$$,,AUTO

  12035 10 003552   003565 710000 10                 TRA     s:12045

  12037 10 003553   000000 116000 11                 CMPQ    0
        10 003554   003563 600000 10                 TZE     s:12041
        10 003555   000005 471500                    LDP1    5,,PR0
        10 003556   100000 220100                    LDX0    0,,PR1
        10 003557   001115 100003                    CMPX0   589,DU
        10 003560   003563 601000 10                 TNZ     s:12041

  12039 10 003561   200047 756100                    STQ     NEL$$,,AUTO
        10 003562   003565 710000 10                 TRA     s:12045

  12041 10 003563   000000 236000 11                 LDQ     0
        10 003564   200047 756100                    STQ     NEL$$,,AUTO

      738    12044
      739    12045    2            TYPE_DESC.DESC = NEL$$ -> NEL.DESC;

  12045 10 003565   200047 471500                    LDP1    NEL$$,,AUTO
        10 003566   100001 236100                    LDQ     1,,PR1
        10 003567   200004 473500                    LDP3    @TYPE_DESC,,AUTO
        10 003570   300001 756100                    STQ     1,,PR3

      740    12046    2            TYPE_DESC.TYPE = %TYD;

  12046 10 003571   300000 450100                    STZ     0,,PR3
PL6.E3A0      #003=Z8AU$TYPE_DESCRIPTOR File=Z8AU.:Z8A6TSI                       SAT 08/09/97 10:57 Page:152
        10 003572   004111 710000 10                 TRA     s:12302

      741    12047
      742    12048    2          CASE(%TRIAD);

      743    12049    2            TYPE_DESC.DESC.SA   = NODE$ -> ETT.LOP -> ST.SA;

  12049 10 003573   300001 474500                    LDP4    1,,PR3
        10 003574   400001 221100                    LDX1    1,,PR4
        10 003575   000001 741100                    STX1    1,,PR0

      744    12050    2            TYPE_DESC.DESC.NDSC = NODE$ -> ETT.LOP -> ST.NDSC;

  12050 10 003576   100000 473500                    LDP3    0,,PR1
        10 003577   300001 474500                    LDP4    1,,PR3
        10 003600   400001 720100                    LXL0    1,,PR4
        10 003601   000001 440100                    SXL0    1,,PR0

      745    12051    2            TYPE_DESC.TYPE      = NODE$ -> ETT.LOP -> ST.TYPE;

  12051 10 003602   100000 473500                    LDP3    0,,PR1
        10 003603   300001 474500                    LDP4    1,,PR3
        10 003604   400002 236100                    LDQ     2,,PR4
        10 003605   000022 772000                    QRL     18
        10 003606   000000 756100                    STQ     0,,PR0
        10 003607   004111 710000 10                 TRA     s:12302

      746    12052
      747    12053    2          CASE(%BASE);

      748    12054    2            IF NODE$ -> ETT.LOP -> ST.ID ~= %PARA AND

  12054 10 003610   300001 474500                    LDP4    1,,PR3
        10 003611   400000 221100                    LDX1    0,,PR4
        10 003612   000771 101003                    CMPX1   505,DU
        10 003613   003655 600000 10                 TZE     s:12108
        10 003614   400003 236100                    LDQ     3,,PR4
PL6.E3A0      #003=Z8AU$TYPE_DESCRIPTOR File=Z8AU.:Z8A6TSI                       SAT 08/09/97 10:57 Page:153
        10 003615   004000 316003                    CANQ    2048,DU
        10 003616   003655 600000 10                 TZE     s:12108

      749    12055                     /* It will never be %SECTION. */
      750    12056    2                NODE$ -> ETT.LOP -> VARIABLE.B.LENGTH_4096 THEN
      751    12057    3              DO;

      752    12058                     %GET_LTS (@ID       = %LONG,
      753    12059                               @ST$      = NODE$ -> ETT.LOP,
      754    12060                               @RETURN$  = LONG$$);

  12062 10 003617   400005 236100                    LDQ     5,,PR4
        10 003620   000000 116000 11                 CMPQ    0
        10 003621   003631 600000 10                 TZE     s:12096
        10 003622   400005 475500                    LDP5    5,,PR4
        10 003623   500000 222100                    LDX2    0,,PR5
        10 003624   001105 102003                    CMPX2   581,DU
        10 003625   003631 601000 10                 TNZ     s:12096

  12070 10 003626   500003 236100                    LDQ     3,,PR5
        10 003627   200046 756100                    STQ     LONG$$,,AUTO

  12094 10 003630   003643 710000 10                 TRA     s:12104

  12096 10 003631   000000 116000 11                 CMPQ    0
        10 003632   003641 600000 10                 TZE     s:12100
        10 003633   400005 475500                    LDP5    5,,PR4
        10 003634   500000 222100                    LDX2    0,,PR5
        10 003635   001110 102003                    CMPX2   584,DU
        10 003636   003641 601000 10                 TNZ     s:12100

  12098 10 003637   200046 756100                    STQ     LONG$$,,AUTO
        10 003640   003643 710000 10                 TRA     s:12104

  12100 10 003641   000000 236000 11                 LDQ     0
        10 003642   200046 756100                    STQ     LONG$$,,AUTO

PL6.E3A0      #003=Z8AU$TYPE_DESCRIPTOR File=Z8AU.:Z8A6TSI                       SAT 08/09/97 10:57 Page:154
      755    12103
      756    12104    3                MKCN.CON = LONG$$ -> LONG.LENGTH;

  12104 10 003643   200046 475500                    LDP5    LONG$$,,AUTO
        10 003644   500001 235100                    LDA     1,,PR5
        10 003645   000000 755000 7                  STA     MKCN

      757    12105    3                CALL Z8AC$MAKE_CONST (TYPE_DESC.SIZ$);

  12105 10 003646   200004 236100                    LDQ     @TYPE_DESC,,AUTO
        10 003647   000002 036003                    ADLQ    2,DU
        10 003650   200052 756100                    STQ     ETT$$+1,,AUTO
        10 003651   200052 630500                    EPPR0   ETT$$+1,,AUTO
        10 003652   000012 631400 11                 EPPR1   10
        10 003653   000000 701000 xent               TSX1    Z8AC$MAKE_CONST
        10 003654   000000 011000                    NOP     0

      758    12106    3              END;

      759    12107
      760    12108    2            TYPE_DESC.DESC.SA   = NODE$ -> ETT.LOP -> ST.SA;

  12108 10 003655   200003 470500                    LDP0    @NODE$,,AUTO
        10 003656   000000 471500                    LDP1    0,,PR0
        10 003657   100001 473500                    LDP3    1,,PR1
        10 003660   300001 220100                    LDX0    1,,PR3
        10 003661   200004 474500                    LDP4    @TYPE_DESC,,AUTO
        10 003662   400001 740100                    STX0    1,,PR4

      761    12109    2            TYPE_DESC.DESC.NDSC = NODE$ -> ETT.LOP -> ST.NDSC;

  12109 10 003663   000000 471500                    LDP1    0,,PR0
        10 003664   100001 473500                    LDP3    1,,PR1
        10 003665   300001 721100                    LXL1    1,,PR3
        10 003666   400001 441100                    SXL1    1,,PR4

      762    12110    2            TYPE_DESC.TYPE      = NODE$ -> ETT.LOP -> ST.TYPE;
PL6.E3A0      #003=Z8AU$TYPE_DESCRIPTOR File=Z8AU.:Z8A6TSI                       SAT 08/09/97 10:57 Page:155

  12110 10 003667   000000 471500                    LDP1    0,,PR0
        10 003670   100001 473500                    LDP3    1,,PR1
        10 003671   300002 236100                    LDQ     2,,PR3
        10 003672   000022 772000                    QRL     18
        10 003673   400000 756100                    STQ     0,,PR4
        10 003674   004111 710000 10                 TRA     s:12302

      763    12111
      764    12112
      765    12113    2          CASE(

      766    12114                    %SET_OF_ST_ITEMS;
      767    12145    2              );
      768    12146    2            TYPE_DESC.DESC.SA = NODE$ -> ST.SA;

  12146 10 003675   300001 221100                    LDX1    1,,PR3
        10 003676   000001 741100                    STX1    1,,PR0

      769    12147    2            TYPE_DESC.DESC.NDSC = NODE$ -> ST.NDSC;

  12147 10 003677   100000 473500                    LDP3    0,,PR1
        10 003700   300001 720100                    LXL0    1,,PR3
        10 003701   000001 440100                    SXL0    1,,PR0

      770    12148    2            TYPE_DESC.TYPE      = NODE$ -> ST.TYPE;

  12148 10 003702   100000 473500                    LDP3    0,,PR1
        10 003703   300002 236100                    LDQ     2,,PR3
        10 003704   000022 772000                    QRL     18
        10 003705   000000 756100                    STQ     0,,PR0
        10 003706   004111 710000 10                 TRA     s:12302

      771    12149
      772    12150    2          CASE(%SIZ, %REFMOD);  /*#28637*/

      773    12151    2            CALL Z8AU$TYPE_DESCRIPTOR(NODE$ -> ETT.LOP, TYPE_DESC);
PL6.E3A0      #003=Z8AU$TYPE_DESCRIPTOR File=Z8AU.:Z8A6TSI                       SAT 08/09/97 10:57 Page:156

  12151 10 003707   200004 236100                    LDQ     @TYPE_DESC,,AUTO
        10 003710   200053 756100                    STQ     ETT$$+2,,AUTO
        10 003711   300001 634500                    EPPR4   1,,PR3
        10 003712   200052 454500                    STP4    ETT$$+1,,AUTO
        10 003713   200052 630500                    EPPR0   ETT$$+1,,AUTO
        10 003714   000001 631400 11                 EPPR1   1
        10 003715   000000 701000 10                 TSX1    s:6
        10 003716   000000 011000                    NOP     0

      774    12152
      775    12153    2            TYPE_DESC.SIZ$ = NODE$ -> ETT.ROP;

  12153 10 003717   200003 470500                    LDP0    @NODE$,,AUTO
        10 003720   000000 471500                    LDP1    0,,PR0
        10 003721   100002 236100                    LDQ     2,,PR1
        10 003722   200004 473500                    LDP3    @TYPE_DESC,,AUTO
        10 003723   300002 756100                    STQ     2,,PR3
        10 003724   004111 710000 10                 TRA     s:12302

      776    12154
      777    12155    2          CASE(%MPD10) ;

      778    12156    2            CALL Z8AU$TYPE_DESCRIPTOR (NODE$ -> ETT.LOP, TYPE_DESC) ;

  12156 10 003725   200004 236100                    LDQ     @TYPE_DESC,,AUTO
        10 003726   200053 756100                    STQ     ETT$$+2,,AUTO
        10 003727   300001 634500                    EPPR4   1,,PR3
        10 003730   200052 454500                    STP4    ETT$$+1,,AUTO
        10 003731   200052 630500                    EPPR0   ETT$$+1,,AUTO
        10 003732   000001 631400 11                 EPPR1   1
        10 003733   000000 701000 10                 TSX1    s:6
        10 003734   000000 011000                    NOP     0

      779    12157
      780    12158                 %UNPACK_NDSC (@DESC   = TYPE_DESC.DESC,
      781    12159                               @SIGN   = LOP_SIGN,
PL6.E3A0      #003=Z8AU$TYPE_DESCRIPTOR File=Z8AU.:Z8A6TSI                       SAT 08/09/97 10:57 Page:157
      782    12160                               @SA     = SA,
      783    12161                               @CN     = CN,
      784    12162                               @LENGTH = P,
      785    12163                               @SCALE  = Q) ;

  12170 10 003735   200004 470500                    LDP0    @TYPE_DESC,,AUTO
        10 003736   000001 236100                    LDQ     1,,PR0
        10 003737   000014 772000                    QRL     12
        10 003740   000003 376007                    ANQ     3,DL
        10 003741   000004 116007                    CMPQ    4,DL
        10 003742   003744 602006 10                 TNC     s:12170+7,QL
        10 003743   003775 710000 10                 TRA     s:12201
        10 003744   003761 710000 10                 TRA     s:12194
        10 003745   003754 710000 10                 TRA     s:12177
        10 003746   003754 710000 10                 TRA     s:12177
        10 003747   003750 710000 10                 TRA     s:12172

  12172 10 003750   000001 236100                    LDQ     1,,PR0
        10 003751   000077 376007                    ANQ     63,DL
        10 003752   200036 756100                    STQ     P,,AUTO
        10 003753   003775 710000 10                 TRA     s:12201

  12177 10 003754   000001 236100                    LDQ     1,,PR0
        10 003755   000077 376007                    ANQ     63,DL
        10 003756   000001 136007                    SBLQ    1,DL
        10 003757   200036 756100                    STQ     P,,AUTO
        10 003760   003775 710000 10                 TRA     s:12201

  12194 10 003761   000001 236100                    LDQ     1,,PR0
        10 003762   040000 316007                    CANQ    16384,DL
        10 003763   003771 600000 10                 TZE     s:12197

  12195 10 003764   000001 236100                    LDQ     1,,PR0
        10 003765   000077 376007                    ANQ     63,DL
        10 003766   000003 136007                    SBLQ    3,DL
        10 003767   200036 756100                    STQ     P,,AUTO
        10 003770   003775 710000 10                 TRA     s:12201
PL6.E3A0      #003=Z8AU$TYPE_DESCRIPTOR File=Z8AU.:Z8A6TSI                       SAT 08/09/97 10:57 Page:158

  12197 10 003771   000001 236100                    LDQ     1,,PR0
        10 003772   000077 376007                    ANQ     63,DL
        10 003773   000002 136007                    SBLQ    2,DL
        10 003774   200036 756100                    STQ     P,,AUTO

  12201 10 003775   000001 236100                    LDQ     1,,PR0
        10 003776   000022 772000                    QRL     18
        10 003777   200025 756100                    STQ     SA,,AUTO

  12204 10 004000   000001 236100                    LDQ     1,,PR0
        10 004001   000017 772000                    QRL     15
        10 004002   000007 376007                    ANQ     7,DL
        10 004003   200024 756100                    STQ     CN,,AUTO

  12210 10 004004   000001 236100                    LDQ     1,,PR0
        10 004005   000030 736000                    QLS     24
        10 004006   000036 732000                    QRS     30
        10 004007   200037 756100                    STQ     Q,,AUTO

  12213 10 004010   000001 236100                    LDQ     1,,PR0
        10 004011   000026 736000                    QLS     22
        10 004012   600000 376003                    ANQ     -65536,DU
        10 004013   200042 756100                    STQ     LOP_SIGN,,AUTO

      786    12218
      787    12219    2            S = NODE$ -> ETT.ROPCON ;

  12219 10 004014   200003 471500                    LDP1    @NODE$,,AUTO
        10 004015   100000 473500                    LDP3    0,,PR1
        10 004016   300002 235100                    LDA     2,,PR3
        10 004017   200041 755100                    STA     S,,AUTO

      788    12220
      789    12221    2            IF LOP_SIGN = %NO_SIGN THEN

  12221 10 004020   200042 236100                    LDQ     LOP_SIGN,,AUTO
PL6.E3A0      #003=Z8AU$TYPE_DESCRIPTOR File=Z8AU.:Z8A6TSI                       SAT 08/09/97 10:57 Page:159
        10 004021   600000 376003                    ANQ     -65536,DU
        10 004022   600000 116003                    CMPQ    -65536,DU
        10 004023   004027 601000 10                 TNZ     s:12224

      790    12222    2                 SIGN = %NO_SIGN;

  12222 10 004024   600000 236003                    LDQ     -65536,DU
        10 004025   200017 756100                    STQ     SIGN,,AUTO
        10 004026   004031 710000 10                 TRA     s:12237

      791    12223    2            ELSE
      792    12224    2                 SIGN = %TRAILING_SIGN;

  12224 10 004027   400000 236003                    LDQ     -131072,DU
        10 004030   200017 756100                    STQ     SIGN,,AUTO

      793    12225
      794    12226                 %PACK_NDSC   (@DESC = TYPE_DESC.DESC,
      795    12227                               @SA     = SA,
      796    12228                               @CN     = CN,
      797    12229                               @LENGTH = P,
      798    12230                               @SCALE = "(Q + S)",
      799    12231                               @TN = %NDSC4,
      800    12232                               @SIGN = SIGN) ;

  12237 10 004031   200025 720100                    LXL0    SA,,AUTO
        10 004032   000001 740100                    STX0    1,,PR0

  12238 10 004033   200024 236100                    LDQ     CN,,AUTO
        10 004034   000017 736000                    QLS     15
        10 004035   000001 676100                    ERQ     1,,PR0
        10 004036   700000 376007                    ANQ     -32768,DL
        10 004037   000001 656100                    ERSQ    1,,PR0

  12239 10 004040   040000 236007                    LDQ     16384,DL
        10 004041   000001 256100                    ORSQ    1,,PR0

PL6.E3A0      #003=Z8AU$TYPE_DESCRIPTOR File=Z8AU.:Z8A6TSI                       SAT 08/09/97 10:57 Page:160
  12240 10 004042   200017 236100                    LDQ     SIGN,,AUTO
        10 004043   000026 772000                    QRL     22
        10 004044   000001 676100                    ERQ     1,,PR0
        10 004045   030000 376007                    ANQ     12288,DL
        10 004046   000001 656100                    ERSQ    1,,PR0

  12241 10 004047   200037 236100                    LDQ     Q,,AUTO
        10 004050   200041 036100                    ADLQ    S,,AUTO
        10 004051   000006 736000                    QLS     6
        10 004052   000001 752102                    STCQ    1,'02'O,PR0

  12242 10 004053   200017 236100                    LDQ     SIGN,,AUTO
        10 004054   000042 772000                    QRL     34
        10 004055   000004 116007                    CMPQ    4,DL
        10 004056   004060 602006 10                 TNC     s:12242+5,QL
        10 004057   004111 710000 10                 TRA     s:12302
        10 004060   004073 710000 10                 TRA     s:12276
        10 004061   004067 710000 10                 TRA     s:12249
        10 004062   004067 710000 10                 TRA     s:12249
        10 004063   004064 710000 10                 TRA     s:12244

  12244 10 004064   200036 236100                    LDQ     P,,AUTO
        10 004065   000001 752101                    STCQ    1,'01'O,PR0
        10 004066   004111 710000 10                 TRA     s:12302

  12249 10 004067   200036 236100                    LDQ     P,,AUTO
        10 004070   000001 036007                    ADLQ    1,DL
        10 004071   000001 752101                    STCQ    1,'01'O,PR0
        10 004072   004111 710000 10                 TRA     s:12302

  12276 10 004073   200036 236100                    LDQ     P,,AUTO
        10 004074   000003 036007                    ADLQ    3,DL
        10 004075   000001 752101                    STCQ    1,'01'O,PR0

  12279 10 004076   004111 710000 10                 TRA     s:12302

      801    12281
PL6.E3A0      #003=Z8AU$TYPE_DESCRIPTOR File=Z8AU.:Z8A6TSI                       SAT 08/09/97 10:57 Page:161
      802    12282    2          CASE(%ADDR);

      803    12283
      804    12284                 %BUILD_BINARY_DESC(@DESC = TYPE_DESC.DESC,
      805    12285                                    @LENGTH = %TYI_LENGTH);

  12289 10 004077   000001 450100                    STZ     1,,PR0

  12290 10 004100   000004 236007                    LDQ     4,DL
        10 004101   000001 752101                    STCQ    1,'01'O,PR0

      806    12293
      807    12294    2            TYPE_DESC.TYPE = %TYP;

  12294 10 004102   000022 235007                    LDA     18,DL
        10 004103   000000 755100                    STA     0,,PR0
        10 004104   004111 710000 10                 TRA     s:12302

      808    12295
      809    12296
      810    12297    2          CASE(ELSE);

      811    12298    2            CALL Z8AE$ERROR(%E$UNEXPECTED_CASE, COMCOM.CURRENT.LINE, 0);

  12298 10 004105   000015 630400 11                 EPPR0   13
        10 004106   000011 631400 11                 EPPR1   9
        10 004107   000000 701000 xent               TSX1    Z8AE$ERROR
        10 004110   000000 011000                    NOP     0

      812    12299
      813    12300    2        END /* Case */;

      814    12301
      815    12302    1   END Z8AU$TYPE_DESCRIPTOR;

  12302 10 004111   000000 702200 xent               TSX2  ! X66_ARET
      816    12303        %EOD;
PL6.E3A0      #003=Z8AU$TYPE_DESCRIPTOR File=Z8AU.:Z8A6TSI                       SAT 08/09/97 10:57 Page:162

PL6.E3A0      #003=Z8AU$TYPE_DESCRIPTOR File=Z8AU.:Z8A6TSI                       SAT 08/09/97 10:57 Page:163
--  Include file information  --

   Z8A_LTS.:Z8A6TOU  cannot be made into a system file and is referenced.
   Z8A_MKCN.:Z8A6TOU  cannot be made into a system file and is referenced.
   Z8A_COMCOM.:Z8A6TOU  cannot be made into a system file and is referenced.
   Z8A_ERR_NUMS.:Z8A6TOU  is referenced.
   Z8A_DESC.:Z8A6TOU  cannot be made into a system file and is referenced.
   Z8A_ST.:Z8A6TOU  cannot be made into a system file and is referenced.
   Z8A_ETT.:Z8A6TOU  cannot be made into a system file and is referenced.
   Z8A_TYPES.:Z8A6TOU  is referenced.
   Z8A_LIBRARY.:Z8A6TOU  cannot be made into a system file and is referenced.
   X8A_COM_MACS.:X8A6TOU  is referenced.
   Z8A_NAMES.:Z8A6TOU  is referenced.
   Z8A_SUPP_MAC.:Z8A6TOU  is referenced.
   Z9A_FLAGS.:Z8A6TOU  is referenced.
   Z8A_DEFC.:Z8A6TOU  cannot be made into a system file and is referenced.
      No diagnostics issued in procedure Z8AU$TYPE_DESCRIPTOR.
PL6.E3A0      #003=Z8AU$TYPE_DESCRIPTOR File=Z8AU.:Z8A6TSI                       SAT 08/09/97 10:57 Page:164

 **** Variables and constants ****

  ****  Section 000 LblCom ITERATION

  ****  Scalars and arrays  ****
OctLoc.c.b A Datatyp(siz) R M Lvl/name                 OctLoc.c.b A Datatyp(siz) R M Lvl/name

     0-0-0/w SBIN              1 ITERATION

  ****  Section 001 LblCom ETT$

  ****  Scalars and arrays  ****
OctLoc.c.b A Datatyp(siz) R M Lvl/name                 OctLoc.c.b A Datatyp(siz) R M Lvl/name

     0-0-0/w PTR         r     1 ETT$

  ****  Section 002 LblCom HEAD_ETT$

  ****  Scalars and arrays  ****
OctLoc.c.b A Datatyp(siz) R M Lvl/name                 OctLoc.c.b A Datatyp(siz) R M Lvl/name

     0-0-0/w PTR               1 HEAD_ETT$

  ****  Section 003 LblCom ETT_BUCKETS

  ****  Scalars and arrays  ****
OctLoc.c.b A Datatyp(siz) R M Lvl/name                 OctLoc.c.b A Datatyp(siz) R M Lvl/name

     0-0-0/w PTR               1 ETT_BUCKETS(0:511)

  ****  Section 004 LblCom ETT_

  ****  Scalars and arrays  ****
OctLoc.c.b A Datatyp(siz) R M Lvl/name                 OctLoc.c.b A Datatyp(siz) R M Lvl/name

     0-0-0/w STRC(180)         1 ETT_

PL6.E3A0      #003=Z8AU$TYPE_DESCRIPTOR File=Z8AU.:Z8A6TSI                       SAT 08/09/97 10:57 Page:165
  ****  Section 005 LblCom ST$

  ****  Scalars and arrays  ****
OctLoc.c.b A Datatyp(siz) R M Lvl/name                 OctLoc.c.b A Datatyp(siz) R M Lvl/name

     0-0-0/w PTR         r     1 ST$

  ****  Section 006 LblCom ST_

  ****  Scalars and arrays  ****
OctLoc.c.b A Datatyp(siz) R M Lvl/name                 OctLoc.c.b A Datatyp(siz) R M Lvl/name

     0-0-0/w STRC(180)         1 ST_

  ****  Section 007 LblCom MKCN

  ****  Scalars and arrays  ****
OctLoc.c.b A Datatyp(siz) R M Lvl/name                 OctLoc.c.b A Datatyp(siz) R M Lvl/name

     0-0-0/w STRC(72)    r     1 MKCN

  ****  Section 008 LblCom LTS$

  ****  Scalars and arrays  ****
OctLoc.c.b A Datatyp(siz) R M Lvl/name                 OctLoc.c.b A Datatyp(siz) R M Lvl/name

     0-0-0/w PTR               1 LONG_ITEM$                 0-0-0/w PTR         r     1 LTS$

  ****  Section 009 LblCom LTS_

  ****  Scalars and arrays  ****
OctLoc.c.b A Datatyp(siz) R M Lvl/name                 OctLoc.c.b A Datatyp(siz) R M Lvl/name

     0-0-0/w STRC(180)         1 LTS_

  ****  Auto variables  ****

PL6.E3A0      #003=Z8AU$TYPE_DESCRIPTOR File=Z8AU.:Z8A6TSI                       SAT 08/09/97 10:57 Page:166
  ****  Scalars and arrays  ****
OctLoc.c.b A Datatyp(siz) R M Lvl/name                 OctLoc.c.b A Datatyp(siz) R M Lvl/name

     3-0-0/w PTR         r     1 @NODE$                     4-0-0/w PTR         r     1 @TYPE_DESC
    24-0-0/w UBIN        r     1 CN                        45-0-0/w SBIN        r     1 CODE
    16-0-0/w STRC              1 DESC                      51-0-0/w PTR               1 ETT$$
    23-0-0/w SBIN        r     1 LENGTH                    46-0-0/w PTR         r     1 LONG$$
    50-0-0/w PTR         r     1 LOP$                      26-0-0/w STRC(144)   r     1 LOP_DESC
    42-0-0/w BIT (2)     r     1 LOP_SIGN                   5-0-0/w STRC(324)         1 NAME
    47-0-0/w PTR         r     1 NEL$$                     *0-0-0/w PTR         r     1 NODE$
    44-0-0/w SBIN        r     1 OFFSET                    36-0-0/w SBIN        r     1 P
    37-0-0/w SBIN        r     1 Q                         40-0-0/w SBIN        r     1 R
    32-0-0/w STRC(144)   r     1 ROP_DESC                  43-0-0/w BIT (2)     r     1 ROP_SIGN
    41-0-0/w SBIN        r     1 S                         25-0-0/w UBIN        r     1 SA
    22-0-0/w SBIN        r     1 SCALE                     17-0-0/w BIT (2)     r     1 SIGN
    21-0-0/w BIT (2)     r     1 TA                        20-0-0/w BIT         r     1 TN
    *0-0-0/w STRC(144)   r     1 TYPE_DESC

  ****  SYMREF variables  ****

  ****  Scalars and arrays  ****
OctLoc.c.b A Datatyp(siz) R M Lvl/name                 OctLoc.c.b A Datatyp(siz) R M Lvl/name

     0-0-0/d STRC(13248) r     1 COMCOM
     0-0-0/w UBIN              1 LTS_STEP(0:37)

  ****  BASED and DCB variables  ****

  ****  Scalars and arrays  ****
OctLoc.c.b A Datatyp(siz) R M Lvl/name                 OctLoc.c.b A Datatyp(siz) R M Lvl/name

     0-0-0/w STRC(396)         1 ALPHABET                   0-0-0/w STRC(144)         1 ALTER_LTS
     0-0-0/w STRC(3672)        1 ALT_KEY                    0-0-0/w STRC(36864)       1 ARGLIST
     0-0-0/w STRC(396)         1 ARRAY                      0-0-0/w STRC(180)         1 ARRAY_PRESET_LTS
     0-0-0/w STRC(288)         1 BASE_LTS                   0-0-0/w STRC(396)         1 BLOCK
     0-0-0/w STRC(144)         1 BT                         0-0-0/w STRC(396)         1 CD
     0-0-0/w STRC(288)         1 CD_LTS                     0-0-0/w CHAR(4096)        1 CHARS
PL6.E3A0      #003=Z8AU$TYPE_DESCRIPTOR File=Z8AU.:Z8A6TSI                       SAT 08/09/97 10:57 Page:167
     0-0-0/w STRC(396)         1 CLASS                      0-0-0/w STRC(396)         1 CONDITION
     0-0-0/w STRC(396)         1 CONST                      0-0-0/w STRC(72)          1 CONT
     0-0-0/w STRC(540)         1 CONTROL_NAME_LTS           0-0-0/w STRC(1872)        1 COPY_FILE
     0-0-0/w STRC(396)         1 DB                         0-0-0/w STRC(396)         1 DCB_
     0-0-0/w STRC(108)         1 DEPENDING_SIZE             0-0-0/w STRC(5472)        1 DIMS
     0-0-0/w STRC(396)         1 DML_ITEM                   0-0-0/w STRC(216)         1 DML_REC
     0-0-0/w STRC(180)   r     1 ETT                        0-0-0/w STRC(73836)       1 EVALUATE
     0-0-0/w STRC(396)         1 FD                         0-0-0/w STRC(1692)        1 FILE_LTS
     0-0-0/w STRC(108)         1 INDEXES                    0-0-0/w STRC(360)         1 INIT_LTS
     0-0-0/w STRC(396)         1 INTDEF                     0-0-0/w STRC(180)         1 IO_RESTORE_CHAIN
     0-0-0/w STRC(144)         1 KEY                        0-0-0/w STRC(396)         1 LABEL
     0-0-0/w STRC(36864)       1 LCNST                      0-0-0/w STRC(72)    r     1 LONG
     0-0-0/w STRC        r     1 LTS                        0-0-0/w STRC(360)   r     1 LTSS
     0-0-0/w STRC(36936)       1 LTS_PTR_ARRAY              0-0-0/w STRC(396)         1 MNEMONIC
     0-0-0/w STRC(144)   r     1 NEL                        0-0-0/w STRC(216)         1 OPEN_LTS
     0-0-0/w STRC(36864)       1 PAGE                       0-0-0/w STRC(396)         1 PARA
     0-0-0/w STRC(144)         1 PRIME                      0-0-0/w STRC(396)         1 PROC_
     0-0-0/w STRC(396)         1 PROC_DEF                   0-0-0/w STRC(900)         1 PROC_SUPP
     0-0-0/w STRC(396)         1 RD                         0-0-0/w STRC(216)         1 REF
     0-0-0/w STRC(108)         1 RENAMES                    0-0-0/w STRC(720)         1 REPORT_01_LTS
     0-0-0/w STRC(432)         1 REPORT_ELEM_LTS            0-0-0/w STRC(252)         1 REPORT_GRP_LTS
     0-0-0/w STRC(1332)        1 REPORT_LTS                 0-0-0/w STRC(144)         1 RVA_LTS
     0-0-0/w STRC(396)   r     1 SCALAR                     0-0-0/w STRC(396)         1 SD
     0-0-0/w STRC(396)         1 SECTION                    0-0-0/w STRC(396)         1 SEGMENT
     0-0-0/w STRC(360)         1 SEGMENT_LTS                0-0-0/w STRC(396)   r     1 ST
     0-0-0/w STRC(252)         1 SUM_LTS                    0-0-0/w STRC(396)         1 SWITCH
     0-0-0/w STRC(396)         1 SYMBOLIC_CHAR              0-0-0/w STRC(396)         1 SYMDEF_
     0-0-0/w STRC(396)         1 SYMREF_                    0-0-0/w STRC(396)         1 TEMP
     0-0-0/d STRC(612)         1 USE                        0-0-0/w STRC(252)         1 USE_SUPP
     0-0-0/w STRC(396)   r     1 VARIABLE


   Procedure Z8AU$TYPE_DESCRIPTOR requires 2122 words for executable code.
   Procedure Z8AU$TYPE_DESCRIPTOR requires 48 words of local(AUTO) storage.

PL6.E3A0      #004=Z8AU$UNITS File=Z8AU.:Z8A6TSI                                 SAT 08/09/97 11:02 Page:168
      817        1        /*T***********************************************************/
      818        2        /*T*                                                         */
      819        3        /*T* Copyright (c) Bull HN Information Systems Inc., 1997    */
      820        4        /*T*                                                         */
      821        5        /*T***********************************************************/
      822        6        Z8AU$UNITS: PROC (IN_ETT$, OUT_UNITS);
      823        7
      824        8    1   DCL IN_ETT$            PTR;
      825        9    1   DCL OUT_UNITS          SBIN WORD;
      826       10
      827       11        %EQU PHASE  = 0;
      828       12
      829       13        %INCLUDE Z8A_DEFC;
      830       81        %INCLUDE Z8A_SUPP_MAC;
      831     2481        %INCLUDE Z8A_COMCOM;
      832     3131        %INCLUDE Z8A_ERR_NUMS;
      833     3895        %INCLUDE Z8A_ETT;
      834     4196        %INCLUDE Z8A_ST;
      835     7855        %INCLUDE Z8A_TYPES;
      836     8029
      837     8030    1   DCL Z8AU$TYPE_DESCRIPTOR      ENTRY (2);
      838     8031    1   DCL Z8AE$ERROR                ENTRY (12);
      839     8032
      840     8033    1   DCL 1 TYPE_DESC               ALIGNED,
      841     8034             %TYPE_DESC;
      842     8068
      843     8069
      844     8070        %EJECT;
PL6.E3A0      #004=Z8AU$UNITS File=Z8AU.:Z8A6TSI                                 SAT 08/09/97 11:02 Page:169
      845     8071
      846     8072
      847     8073    1      CALL Z8AU$TYPE_DESCRIPTOR (IN_ETT$, TYPE_DESC);
      848     8074
      849     8075    2      DO CASE (TYPE_DESC.TYPE);
      850     8076
      851     8077    2        CASE (%TYA, %TYE, %TYH, %TYJ, %TYK, %TYN, %TYY);
      852     8078    2          IF TYPE_DESC.DESC.ADSC.TA = %NDSC9 THEN
      853     8079    2            OUT_UNITS = %ALPHA9;
      854     8080    2          ELSE
      855     8081    2            OUT_UNITS = %ALPHA4;
      856     8082
      857     8083    2        CASE (%TYI, %TYR, %TYQ, %TYP, %TYX);
      858     8084    2          OUT_UNITS = %WORD_;
      859     8085
      860     8086    2        CASE (%TYB, %TYC);
      861     8087    2          OUT_UNITS = %ALPHA6;
      862     8088
      863     8089    2        CASE (%TYO, %TYF);
      864     8090    2          OUT_UNITS = %NUMERIC9;
      865     8091
      866     8092    2        CASE (%TYD);
      867     8093    2          IF TYPE_DESC.DESC.NDSC.TN = %NDSC9 THEN
      868     8094    2            OUT_UNITS = %NUMERIC9;
      869     8095    2          ELSE
      870     8096    2            OUT_UNITS = %NUMERIC4;
      871     8097
      872     8098    2        CASE (ELSE);
      873     8099    2          OUT_UNITS = %WORD_;
      874     8100    2          CALL Z8AE$ERROR (%E$UNEXPECTED_CASE);
      875     8101
      876     8102    2      END;/* Case */
      877     8103
      878     8104    1   END Z8AU$UNITS;/* Proc */
      879     8105        %EOD;

PL6.E3A0      #004=Z8AU$UNITS File=Z8AU.:Z8A6TSI                                 SAT 08/09/97 11:02 Page:170
--  Include file information  --

   Z8A_TYPES.:Z8A6TOU  is referenced.
   Z8A_ST.:Z8A6TOU  cannot be made into a system file and is referenced.
   Z8A_ETT.:Z8A6TOU  cannot be made into a system file and is referenced.
   Z8A_ERR_NUMS.:Z8A6TOU  is referenced.
   Z8A_COMCOM.:Z8A6TOU  cannot be made into a system file and is referenced.
   X8A_COM_MACS.:X8A6TOU  is referenced.
   Z8A_NAMES.:Z8A6TOU  is referenced.
   Z8A_SUPP_MAC.:Z8A6TOU  is referenced.
   Z8A_DEFC.:Z8A6TOU  cannot be made into a system file and is referenced.
      No diagnostics issued in procedure Z8AU$UNITS.

   Procedure Z8AU$UNITS requires 76 words for executable code.
   Procedure Z8AU$UNITS requires 12 words of local(AUTO) storage.

PL6.E3A0      #004=Z8AU$UNITS File=Z8AU.:Z8A6TSI                                 SAT 08/09/97 11:02 Page:171

 Object Unit name= Z8AU$UNITS                                 File name= Z8AU.:Z8A6TOU
 UTS= AUG 09 '97 11:02:25.28 SAT                              Compiler= PL-6/E31         Sev=      00
 SharedLib= :SHARED_SYSTEM                                    Alt SharedLib=


    ****  Control sections  ****

 Sect   Type Bound  Init  Size OctSiz  Section name(segment info)
    0  LblCom even  none     1      1  ITERATION
    1  LblCom even  none     1      1  ETT$
    2  LblCom even  none     1      1  HEAD_ETT$
    3  LblCom even  none   512   1000  ETT_BUCKETS
    4  LblCom even  none     5      5  ETT_
    5  LblCom even  none     1      1  ST$
    6  LblCom even  none     5      5  ST_
    7   Proc  even  none    76    114  Z8AU$UNITS
    8  RoData even  none     4      4  Z8AU$UNITS

    ****  Entry defs  ****

                              Check   Calling
                             calling  sequence
  Sect OctLoc Primary Altret sequence   type   Parms  Name
     7      0   yes            yes      Std        2  Z8AU$UNITS

  ****  Entry refs  ****

         Check        Calling
        calling       sequence
Altret sequence SRef   type   Args  Name
         yes           Std       2 Z8AU$TYPE_DESCRIPTOR
         yes           Std      12 Z8AE$ERROR
                       nStd      0 X66_AUTO_2
                       nStd      0 X66_ARET
PL6.E3A0      #004=Z8AU$UNITS File=Z8AU.:Z8A6TSI                                 SAT 08/09/97 11:02 Page:172

  ****  Data refs  ****

  Flags:  r = read only, s = secondary
Flgs Name                             Flgs Name                             Flgs Name
     COMCOM

  ****  Segment refs  ****

  Flags:  r = read only, s = secondary
Flgs Name                             Flgs Name                             Flgs Name
     NULLSID                               ISSID
PL6.E3A0      #004=Z8AU$UNITS File=Z8AU.:Z8A6TSI                                 SAT 08/09/97 11:02 Page:173


      817        1        /*T***********************************************************/
      818        2        /*T*                                                         */
      819        3        /*T* Copyright (c) Bull HN Information Systems Inc., 1997    */
      820        4        /*T*                                                         */
      821        5        /*T***********************************************************/
      822        6        Z8AU$UNITS: PROC (IN_ETT$, OUT_UNITS);

      6  7 000000   000000 700200 xent  Z8AU$UNITS   TSX0  ! X66_AUTO_2
         7 000001   000014 000002                    ZERO    12,2

      823        7
      824        8    1   DCL IN_ETT$            PTR;
      825        9    1   DCL OUT_UNITS          SBIN WORD;
      826       10
      827       11        %EQU PHASE  = 0;
      828       12
      829       13        %INCLUDE Z8A_DEFC;
      830       81        %INCLUDE Z8A_SUPP_MAC;
      831     2481        %INCLUDE Z8A_COMCOM;
      832     3131        %INCLUDE Z8A_ERR_NUMS;
      833     3895        %INCLUDE Z8A_ETT;
      834     4196        %INCLUDE Z8A_ST;
      835     7855        %INCLUDE Z8A_TYPES;
      836     8029
      837     8030    1   DCL Z8AU$TYPE_DESCRIPTOR      ENTRY (2);
      838     8031    1   DCL Z8AE$ERROR                ENTRY (12);
      839     8032
      840     8033    1   DCL 1 TYPE_DESC               ALIGNED,
      841     8034             %TYPE_DESC;
      842     8068
      843     8069
      844     8070        %EJECT;
PL6.E3A0      #004=Z8AU$UNITS File=Z8AU.:Z8A6TSI                                 SAT 08/09/97 11:02 Page:174
      845     8071
      846     8072
      847     8073    1      CALL Z8AU$TYPE_DESCRIPTOR (IN_ETT$, TYPE_DESC);

   8073  7 000002   200005 630500                    EPPR0   TYPE_DESC,,AUTO
         7 000003   200013 450500                    STP0    TYPE_DESC+6,,AUTO
         7 000004   200003 236100                    LDQ     @IN_ETT$,,AUTO
         7 000005   200012 756100                    STQ     TYPE_DESC+5,,AUTO
         7 000006   200012 630500                    EPPR0   TYPE_DESC+5,,AUTO
         7 000007   000000 631400 8                  EPPR1   0
         7 000010   000000 701000 xent               TSX1    Z8AU$TYPE_DESCRIPTOR
         7 000011   000000 011000                    NOP     0

      848     8074
      849     8075    2      DO CASE (TYPE_DESC.TYPE);

   8075  7 000012   200005 235100                    LDA     TYPE_DESC,,AUTO
         7 000013   000024 115007                    CMPA    20,DL
         7 000014   000016 602005 7                  TNC     s:8075+4,AL
         7 000015   000104 710000 7                  TRA     s:8099
         7 000016   000071 710000 7                  TRA     s:8093
         7 000017   000055 710000 7                  TRA     s:8084
         7 000020   000042 710000 7                  TRA     s:8078
         7 000021   000065 710000 7                  TRA     s:8090
         7 000022   000055 710000 7                  TRA     s:8084
         7 000023   000055 710000 7                  TRA     s:8084
         7 000024   000042 710000 7                  TRA     s:8078
         7 000025   000042 710000 7                  TRA     s:8078
         7 000026   000042 710000 7                  TRA     s:8078
         7 000027   000055 710000 7                  TRA     s:8084
         7 000030   000042 710000 7                  TRA     s:8078
         7 000031   000065 710000 7                  TRA     s:8090
         7 000032   000061 710000 7                  TRA     s:8087
         7 000033   000104 710000 7                  TRA     s:8099
         7 000034   000042 710000 7                  TRA     s:8078
         7 000035   000042 710000 7                  TRA     s:8078
         7 000036   000104 710000 7                  TRA     s:8099
PL6.E3A0      #004=Z8AU$UNITS File=Z8AU.:Z8A6TSI                                 SAT 08/09/97 11:02 Page:175
         7 000037   000104 710000 7                  TRA     s:8099
         7 000040   000055 710000 7                  TRA     s:8084
         7 000041   000061 710000 7                  TRA     s:8087

      850     8076
      851     8077    2        CASE (%TYA, %TYE, %TYH, %TYJ, %TYK, %TYN, %TYY);

      852     8078    2          IF TYPE_DESC.DESC.ADSC.TA = %NDSC9 THEN

   8078  7 000042   200006 236100                    LDQ     TYPE_DESC+1,,AUTO
         7 000043   060000 316007                    CANQ    24576,DL
         7 000044   000051 601000 7                  TNZ     s:8081

      853     8079    2            OUT_UNITS = %ALPHA9;

   8079  7 000045   000005 235007                    LDA     5,DL
         7 000046   200004 470500                    LDP0    @OUT_UNITS,,AUTO
         7 000047   000000 755100                    STA     0,,PR0
         7 000050   000113 710000 7                  TRA     s:8104

      854     8080    2          ELSE
      855     8081    2            OUT_UNITS = %ALPHA4;

   8081  7 000051   000002 235007                    LDA     2,DL
         7 000052   200004 470500                    LDP0    @OUT_UNITS,,AUTO
         7 000053   000000 755100                    STA     0,,PR0
         7 000054   000113 710000 7                  TRA     s:8104

      856     8082
      857     8083    2        CASE (%TYI, %TYR, %TYQ, %TYP, %TYX);

      858     8084    2          OUT_UNITS = %WORD_;

   8084  7 000055   000006 236007                    LDQ     6,DL
         7 000056   200004 470500                    LDP0    @OUT_UNITS,,AUTO
         7 000057   000000 756100                    STQ     0,,PR0
         7 000060   000113 710000 7                  TRA     s:8104
PL6.E3A0      #004=Z8AU$UNITS File=Z8AU.:Z8A6TSI                                 SAT 08/09/97 11:02 Page:176

      859     8085
      860     8086    2        CASE (%TYB, %TYC);

      861     8087    2          OUT_UNITS = %ALPHA6;

   8087  7 000061   000003 236007                    LDQ     3,DL
         7 000062   200004 470500                    LDP0    @OUT_UNITS,,AUTO
         7 000063   000000 756100                    STQ     0,,PR0
         7 000064   000113 710000 7                  TRA     s:8104

      862     8088
      863     8089    2        CASE (%TYO, %TYF);

      864     8090    2          OUT_UNITS = %NUMERIC9;

   8090  7 000065   000004 236007                    LDQ     4,DL
         7 000066   200004 470500                    LDP0    @OUT_UNITS,,AUTO
         7 000067   000000 756100                    STQ     0,,PR0
         7 000070   000113 710000 7                  TRA     s:8104

      865     8091
      866     8092    2        CASE (%TYD);

      867     8093    2          IF TYPE_DESC.DESC.NDSC.TN = %NDSC9 THEN

   8093  7 000071   200006 236100                    LDQ     TYPE_DESC+1,,AUTO
         7 000072   040000 316007                    CANQ    16384,DL
         7 000073   000100 601000 7                  TNZ     s:8096

      868     8094    2            OUT_UNITS = %NUMERIC9;

   8094  7 000074   000004 235007                    LDA     4,DL
         7 000075   200004 470500                    LDP0    @OUT_UNITS,,AUTO
         7 000076   000000 755100                    STA     0,,PR0
         7 000077   000113 710000 7                  TRA     s:8104

PL6.E3A0      #004=Z8AU$UNITS File=Z8AU.:Z8A6TSI                                 SAT 08/09/97 11:02 Page:177
      869     8095    2          ELSE
      870     8096    2            OUT_UNITS = %NUMERIC4;

   8096  7 000100   000001 235007                    LDA     1,DL
         7 000101   200004 470500                    LDP0    @OUT_UNITS,,AUTO
         7 000102   000000 755100                    STA     0,,PR0
         7 000103   000113 710000 7                  TRA     s:8104

      871     8097
      872     8098    2        CASE (ELSE);

      873     8099    2          OUT_UNITS = %WORD_;

   8099  7 000104   000006 236007                    LDQ     6,DL
         7 000105   200004 470500                    LDP0    @OUT_UNITS,,AUTO
         7 000106   000000 756100                    STQ     0,,PR0

      874     8100    2          CALL Z8AE$ERROR (%E$UNEXPECTED_CASE);

   8100  7 000107   000003 630400 8                  EPPR0   3
         7 000110   000001 631400 8                  EPPR1   1
         7 000111   000000 701000 xent               TSX1    Z8AE$ERROR
         7 000112   000000 011000                    NOP     0

      875     8101
      876     8102    2      END;/* Case */

      877     8103
      878     8104    1   END Z8AU$UNITS;/* Proc */

   8104  7 000113   000000 702200 xent               TSX2  ! X66_ARET
      879     8105        %EOD;

PL6.E3A0      #004=Z8AU$UNITS File=Z8AU.:Z8A6TSI                                 SAT 08/09/97 11:02 Page:178
--  Include file information  --

   Z8A_TYPES.:Z8A6TOU  is referenced.
   Z8A_ST.:Z8A6TOU  cannot be made into a system file and is referenced.
   Z8A_ETT.:Z8A6TOU  cannot be made into a system file and is referenced.
   Z8A_ERR_NUMS.:Z8A6TOU  is referenced.
   Z8A_COMCOM.:Z8A6TOU  cannot be made into a system file and is referenced.
   X8A_COM_MACS.:X8A6TOU  is referenced.
   Z8A_NAMES.:Z8A6TOU  is referenced.
   Z8A_SUPP_MAC.:Z8A6TOU  is referenced.
   Z8A_DEFC.:Z8A6TOU  cannot be made into a system file and is referenced.
      No diagnostics issued in procedure Z8AU$UNITS.
PL6.E3A0      #004=Z8AU$UNITS File=Z8AU.:Z8A6TSI                                 SAT 08/09/97 11:02 Page:179

 **** Variables and constants ****

  ****  Section 000 LblCom ITERATION

  ****  Scalars and arrays  ****
OctLoc.c.b A Datatyp(siz) R M Lvl/name                 OctLoc.c.b A Datatyp(siz) R M Lvl/name

     0-0-0/w SBIN              1 ITERATION

  ****  Section 001 LblCom ETT$

  ****  Scalars and arrays  ****
OctLoc.c.b A Datatyp(siz) R M Lvl/name                 OctLoc.c.b A Datatyp(siz) R M Lvl/name

     0-0-0/w PTR         r     1 ETT$

  ****  Section 002 LblCom HEAD_ETT$

  ****  Scalars and arrays  ****
OctLoc.c.b A Datatyp(siz) R M Lvl/name                 OctLoc.c.b A Datatyp(siz) R M Lvl/name

     0-0-0/w PTR               1 HEAD_ETT$

  ****  Section 003 LblCom ETT_BUCKETS

  ****  Scalars and arrays  ****
OctLoc.c.b A Datatyp(siz) R M Lvl/name                 OctLoc.c.b A Datatyp(siz) R M Lvl/name

     0-0-0/w PTR               1 ETT_BUCKETS(0:511)

  ****  Section 004 LblCom ETT_

  ****  Scalars and arrays  ****
OctLoc.c.b A Datatyp(siz) R M Lvl/name                 OctLoc.c.b A Datatyp(siz) R M Lvl/name

     0-0-0/w STRC(180)         1 ETT_

PL6.E3A0      #004=Z8AU$UNITS File=Z8AU.:Z8A6TSI                                 SAT 08/09/97 11:02 Page:180
  ****  Section 005 LblCom ST$

  ****  Scalars and arrays  ****
OctLoc.c.b A Datatyp(siz) R M Lvl/name                 OctLoc.c.b A Datatyp(siz) R M Lvl/name

     0-0-0/w PTR         r     1 ST$

  ****  Section 006 LblCom ST_

  ****  Scalars and arrays  ****
OctLoc.c.b A Datatyp(siz) R M Lvl/name                 OctLoc.c.b A Datatyp(siz) R M Lvl/name

     0-0-0/w STRC(180)         1 ST_

  ****  Auto variables  ****

  ****  Scalars and arrays  ****
OctLoc.c.b A Datatyp(siz) R M Lvl/name                 OctLoc.c.b A Datatyp(siz) R M Lvl/name

     3-0-0/w PTR         r     1 @IN_ETT$                   4-0-0/w PTR         r     1 @OUT_UNITS
    *0-0-0/w PTR         r     1 IN_ETT$                   *0-0-0/w SBIN        r     1 OUT_UNITS
     5-0-0/w STRC(144)   r     1 TYPE_DESC

  ****  SYMREF variables  ****

  ****  Scalars and arrays  ****
OctLoc.c.b A Datatyp(siz) R M Lvl/name                 OctLoc.c.b A Datatyp(siz) R M Lvl/name

     0-0-0/d STRC(13248)       1 COMCOM

  ****  BASED and DCB variables  ****

  ****  Scalars and arrays  ****
OctLoc.c.b A Datatyp(siz) R M Lvl/name                 OctLoc.c.b A Datatyp(siz) R M Lvl/name

     0-0-0/w STRC(396)         1 ALPHABET                   0-0-0/w STRC(396)         1 ARRAY
     0-0-0/w STRC(396)         1 BLOCK                      0-0-0/w STRC(396)         1 CD
PL6.E3A0      #004=Z8AU$UNITS File=Z8AU.:Z8A6TSI                                 SAT 08/09/97 11:02 Page:181
     0-0-0/w CHAR(4096)        1 CHARS                      0-0-0/w STRC(396)         1 CLASS
     0-0-0/w STRC(396)         1 CONDITION                  0-0-0/w STRC(396)         1 CONST
     0-0-0/w STRC(72)          1 CONT                       0-0-0/w STRC(396)         1 DB
     0-0-0/w STRC(396)         1 DCB_                       0-0-0/w STRC(396)         1 DML_ITEM
     0-0-0/w STRC(180)         1 ETT                        0-0-0/w STRC(396)         1 FD
     0-0-0/w STRC(396)         1 INTDEF                     0-0-0/w STRC(396)         1 LABEL
     0-0-0/w STRC(396)         1 MNEMONIC                   0-0-0/w STRC(36864)       1 PAGE
     0-0-0/w STRC(396)         1 PARA                       0-0-0/w STRC(396)         1 PROC_
     0-0-0/w STRC(396)         1 PROC_DEF                   0-0-0/w STRC(396)         1 RD
     0-0-0/w STRC(396)         1 SCALAR                     0-0-0/w STRC(396)         1 SD
     0-0-0/w STRC(396)         1 SECTION                    0-0-0/w STRC(396)         1 SEGMENT
     0-0-0/w STRC(396)         1 ST                         0-0-0/w STRC(396)         1 SWITCH
     0-0-0/w STRC(396)         1 SYMBOLIC_CHAR              0-0-0/w STRC(396)         1 SYMDEF_
     0-0-0/w STRC(396)         1 SYMREF_                    0-0-0/w STRC(396)         1 TEMP
     0-0-0/w STRC(396)         1 VARIABLE


   Procedure Z8AU$UNITS requires 76 words for executable code.
   Procedure Z8AU$UNITS requires 12 words of local(AUTO) storage.

PL6.E3A0      #005=Z8AU$BYTE_TO_WORD_UNITS File=Z8AU.:Z8A6TSI                    SAT 08/09/97 11:04 Page:182
      880        1        /*T***********************************************************/
      881        2        /*T*                                                         */
      882        3        /*T* Copyright (c) Bull HN Information Systems Inc., 1997    */
      883        4        /*T*                                                         */
      884        5        /*T***********************************************************/
      885        6        Z8AU$BYTE_TO_WORD_UNITS:PROC(NODE$, TN, RETURN$);
      886        7
      887        8    1        DCL NODE$      PTR;
      888        9    1        DCL TN         BIT (1) ALIGNED;
      889       10    1        DCL RETURN$    PTR;
      890       11
      891       12    1        DCL LOP$       PTR;
      892       13    1        DCL ROP$       PTR;
      893       14    1        DCL ST$$       PTR;
      894       15
      895       16    1        DCL 1 PACKED      ALIGNED,
      896       17    1              2 OFFSET    SBIN HALF UNAL,
      897       18    1              2 TYPE      UBIN HALF UNAL;
      898       19
      899       20    1        DCL CONST1     UBIN;
      900       21
      901       22
      902       23             %EQU PHASE = 1;
      903       24             %INCLUDE Z8A_DEFC;
      904       92             %INCLUDE Z8A_SUPP_MAC;
      905     2492             %INCLUDE Z8A_ETT;
      906     2793             %INCLUDE Z8A_MKCN;
      907     2810             %INCLUDE Z8A_ST;
      908     6469
      909     6470    1        DCL Z8AF$FORME                     ENTRY(4);
      910     6471    1        DCL Z8AF$NEW_OFF                   ENTRY(3);
      911     6472    1        DCL Z8AC$MAKE_CONST                ENTRY(1);
      912     6473
      913     6474        %EJECT;
PL6.E3A0      #005=Z8AU$BYTE_TO_WORD_UNITS File=Z8AU.:Z8A6TSI                    SAT 08/09/97 11:04 Page:183
      914     6475    1        IF TN = %NDSC4
      915     6476    1          THEN CONST1 = 8;
      916     6477    1          ELSE CONST1 = 4;
      917     6478    2        DO CASE(NODE$ -> ETT.ID);
      918     6479    2          CASE(%SSOP);
      919     6480    2            MKCN.CON = CONST1;
      920     6481    2            CALL Z8AC$MAKE_CONST(ST$$);
      921     6482
      922     6483    2            CALL Z8AF$FORME(%DVI, NODE$ -> ETT.ROP, ST$$, ROP$);
      923     6484    2            CALL Z8AU$BYTE_TO_WORD_UNITS(NODE$ -> ETT.LOP, TN, LOP$);
      924     6485
      925     6486    2            CALL Z8AF$FORME(%SSOP, LOP$, ROP$, RETURN$);
      926     6487
      927     6488    2          CASE(%OFF);
      928     6489    2            PACKED.OFFSET = NODE$ -> ETT.OFFSET.VALUE / CONST1;
      929     6490    2            PACKED.TYPE   = %WORD_;
      930     6491
      931     6492    2            CALL Z8AF$FORME(%OFF, NODE$ -> ETT.LOP, PACKED, RETURN$);
      932     6493
      933     6494    2          CASE(%EVAL);
      934     6495    3            DO CASE (NODE$ -> ETT.LOP -> ETT.ID) ;
      935     6496    3              CASE(%SSOP, %OFF);
      936     6497    3                CALL Z8AF$FORME(%CVII, NODE$, ADDR(NIL), RETURN$) ;
      937     6498    3              CASE(ELSE);
      938     6499    3                RETURN$ = NODE$ ;
      939     6500    3            END /* Case */ ;
      940     6501
      941     6502    2        END /* Case */;
      942     6503
      943     6504    1   END Z8AU$BYTE_TO_WORD_UNITS;

PL6.E3A0      #005=Z8AU$BYTE_TO_WORD_UNITS File=Z8AU.:Z8A6TSI                    SAT 08/09/97 11:04 Page:184
--  Include file information  --

   Z8A_ST.:Z8A6TOU  cannot be made into a system file and is referenced.
   Z8A_MKCN.:Z8A6TOU  cannot be made into a system file and is referenced.
   Z8A_ETT.:Z8A6TOU  cannot be made into a system file and is referenced.
   X8A_COM_MACS.:X8A6TOU  is referenced.
   Z8A_NAMES.:Z8A6TOU  is referenced.
   Z8A_SUPP_MAC.:Z8A6TOU  is referenced.
   Z8A_DEFC.:Z8A6TOU  cannot be made into a system file and is referenced.
      No diagnostics issued in procedure Z8AU$BYTE_TO_WORD_UNITS.

   Procedure Z8AU$BYTE_TO_WORD_UNITS requires 238 words for executable code.
   Procedure Z8AU$BYTE_TO_WORD_UNITS requires 18 words of local(AUTO) storage.

    No errors detected in file Z8AU.:Z8A6TSI    .

PL6.E3A0      #005=Z8AU$BYTE_TO_WORD_UNITS File=Z8AU.:Z8A6TSI                    SAT 08/09/97 11:04 Page:185

 Object Unit name= Z8AU$BYTE_TO_WORD_UNITS                    File name= Z8AU.:Z8A6TOU
 UTS= AUG 09 '97 11:04:20.48 SAT                              Compiler= PL-6/E31         Sev=      00
 SharedLib= :SHARED_SYSTEM                                    Alt SharedLib=


    ****  Control sections  ****

 Sect   Type Bound  Init  Size OctSiz  Section name(segment info)
    0  LblCom even  none     1      1  ITERATION
    1  LblCom even  none     1      1  ETT$
    2  LblCom even  none     1      1  HEAD_ETT$
    3  LblCom even  none   512   1000  ETT_BUCKETS
    4  LblCom even  none     5      5  ETT_
    5  LblCom even  none     2      2  MKCN
    6  LblCom even  none     1      1  ST$
    7  LblCom even  none     5      5  ST_
    8   Proc  even  none   238    356  Z8AU$BYTE_TO_WORD_UNITS
    9  RoData even  none    12     14  Z8AU$BYTE_TO_WORD_UNITS

    ****  Entry defs  ****

                              Check   Calling
                             calling  sequence
  Sect OctLoc Primary Altret sequence   type   Parms  Name
     8      0   yes            yes      Std        3  Z8AU$BYTE_TO_WORD_UNITS

  ****  Entry refs  ****

         Check        Calling
        calling       sequence
Altret sequence SRef   type   Args  Name
         yes           Std       1 Z8AC$MAKE_CONST
         yes           Std       4 Z8AF$FORME
                       nStd      0 X66_AUTO_3
                       nStd      0 X66_ARET
PL6.E3A0      #005=Z8AU$BYTE_TO_WORD_UNITS File=Z8AU.:Z8A6TSI                    SAT 08/09/97 11:04 Page:186

  ****  Segment refs  ****

  Flags:  r = read only, s = secondary
Flgs Name                             Flgs Name                             Flgs Name
     NULLSID                               ISSID
PL6.E3A0      #005=Z8AU$BYTE_TO_WORD_UNITS File=Z8AU.:Z8A6TSI                    SAT 08/09/97 11:04 Page:187


      880        1        /*T***********************************************************/
      881        2        /*T*                                                         */
      882        3        /*T* Copyright (c) Bull HN Information Systems Inc., 1997    */
      883        4        /*T*                                                         */
      884        5        /*T***********************************************************/
      885        6        Z8AU$BYTE_TO_WORD_UNITS:PROC(NODE$, TN, RETURN$);

      6  8 000000   000000 700200 xent  Z8AU$BYTE_T* TSX0  ! X66_AUTO_3
         8 000001   000022 000003                    ZERO    18,3

      886        7
      887        8    1        DCL NODE$      PTR;
      888        9    1        DCL TN         BIT (1) ALIGNED;
      889       10    1        DCL RETURN$    PTR;
      890       11
      891       12    1        DCL LOP$       PTR;
      892       13    1        DCL ROP$       PTR;
      893       14    1        DCL ST$$       PTR;
      894       15
      895       16    1        DCL 1 PACKED      ALIGNED,
      896       17    1              2 OFFSET    SBIN HALF UNAL,
      897       18    1              2 TYPE      UBIN HALF UNAL;
      898       19
      899       20    1        DCL CONST1     UBIN;
      900       21
      901       22
      902       23             %EQU PHASE = 1;
      903       24             %INCLUDE Z8A_DEFC;
      904       92             %INCLUDE Z8A_SUPP_MAC;
      905     2492             %INCLUDE Z8A_ETT;
      906     2793             %INCLUDE Z8A_MKCN;
      907     2810             %INCLUDE Z8A_ST;
      908     6469
      909     6470    1        DCL Z8AF$FORME                     ENTRY(4);
      910     6471    1        DCL Z8AF$NEW_OFF                   ENTRY(3);
      911     6472    1        DCL Z8AC$MAKE_CONST                ENTRY(1);
PL6.E3A0      #005=Z8AU$BYTE_TO_WORD_UNITS File=Z8AU.:Z8A6TSI                    SAT 08/09/97 11:04 Page:188
      912     6473
      913     6474        %EJECT;
PL6.E3A0      #005=Z8AU$BYTE_TO_WORD_UNITS File=Z8AU.:Z8A6TSI                    SAT 08/09/97 11:04 Page:189
      914     6475    1        IF TN = %NDSC4

   6475  8 000002   200004 470500                    LDP0    @TN,,AUTO
         8 000003   000000 234100                    SZN     0,,PR0
         8 000004   000010 605000 8                  TPL     s:6477

      915     6476    1          THEN CONST1 = 8;

   6476  8 000005   000010 235007                    LDA     8,DL
         8 000006   200012 755100                    STA     CONST1,,AUTO
         8 000007   000012 710000 8                  TRA     s:6478

      916     6477    1          ELSE CONST1 = 4;

   6477  8 000010   000004 235007                    LDA     4,DL
         8 000011   200012 755100                    STA     CONST1,,AUTO

      917     6478    2        DO CASE(NODE$ -> ETT.ID);

   6478  8 000012   200003 471500                    LDP1    @NODE$,,AUTO
         8 000013   100000 473500                    LDP3    0,,PR1
         8 000014   300000 220100                    LDX0    0,,PR3
         8 000015   000172 100003                    CMPX0   122,DU
         8 000016   000020 602010 8                  TNC     s:6478+6,X0
         8 000017   000355 710000 8                  TRA     s:6504
         8 000020   000355 710000 8                  TRA     s:6504
         8 000021   000355 710000 8                  TRA     s:6504
         8 000022   000355 710000 8                  TRA     s:6504
         8 000023   000270 710000 8                  TRA     s:6489
         8 000024   000355 710000 8                  TRA     s:6504
         8 000025   000212 710000 8                  TRA     s:6480
         8 000026   000355 710000 8                  TRA     s:6504
         8 000027   000355 710000 8                  TRA     s:6504
         8 000030   000355 710000 8                  TRA     s:6504
         8 000031   000355 710000 8                  TRA     s:6504
         8 000032   000355 710000 8                  TRA     s:6504
         8 000033   000355 710000 8                  TRA     s:6504
PL6.E3A0      #005=Z8AU$BYTE_TO_WORD_UNITS File=Z8AU.:Z8A6TSI                    SAT 08/09/97 11:04 Page:190
         8 000034   000355 710000 8                  TRA     s:6504
         8 000035   000355 710000 8                  TRA     s:6504
         8 000036   000355 710000 8                  TRA     s:6504
         8 000037   000355 710000 8                  TRA     s:6504
         8 000040   000355 710000 8                  TRA     s:6504
         8 000041   000355 710000 8                  TRA     s:6504
         8 000042   000355 710000 8                  TRA     s:6504
         8 000043   000355 710000 8                  TRA     s:6504
         8 000044   000355 710000 8                  TRA     s:6504
         8 000045   000355 710000 8                  TRA     s:6504
         8 000046   000355 710000 8                  TRA     s:6504
         8 000047   000355 710000 8                  TRA     s:6504
         8 000050   000355 710000 8                  TRA     s:6504
         8 000051   000355 710000 8                  TRA     s:6504
         8 000052   000355 710000 8                  TRA     s:6504
         8 000053   000355 710000 8                  TRA     s:6504
         8 000054   000355 710000 8                  TRA     s:6504
         8 000055   000355 710000 8                  TRA     s:6504
         8 000056   000355 710000 8                  TRA     s:6504
         8 000057   000355 710000 8                  TRA     s:6504
         8 000060   000355 710000 8                  TRA     s:6504
         8 000061   000355 710000 8                  TRA     s:6504
         8 000062   000355 710000 8                  TRA     s:6504
         8 000063   000355 710000 8                  TRA     s:6504
         8 000064   000355 710000 8                  TRA     s:6504
         8 000065   000355 710000 8                  TRA     s:6504
         8 000066   000355 710000 8                  TRA     s:6504
         8 000067   000355 710000 8                  TRA     s:6504
         8 000070   000355 710000 8                  TRA     s:6504
         8 000071   000355 710000 8                  TRA     s:6504
         8 000072   000355 710000 8                  TRA     s:6504
         8 000073   000355 710000 8                  TRA     s:6504
         8 000074   000355 710000 8                  TRA     s:6504
         8 000075   000355 710000 8                  TRA     s:6504
         8 000076   000355 710000 8                  TRA     s:6504
         8 000077   000355 710000 8                  TRA     s:6504
         8 000100   000355 710000 8                  TRA     s:6504
PL6.E3A0      #005=Z8AU$BYTE_TO_WORD_UNITS File=Z8AU.:Z8A6TSI                    SAT 08/09/97 11:04 Page:191
         8 000101   000355 710000 8                  TRA     s:6504
         8 000102   000355 710000 8                  TRA     s:6504
         8 000103   000355 710000 8                  TRA     s:6504
         8 000104   000355 710000 8                  TRA     s:6504
         8 000105   000355 710000 8                  TRA     s:6504
         8 000106   000355 710000 8                  TRA     s:6504
         8 000107   000355 710000 8                  TRA     s:6504
         8 000110   000355 710000 8                  TRA     s:6504
         8 000111   000355 710000 8                  TRA     s:6504
         8 000112   000355 710000 8                  TRA     s:6504
         8 000113   000355 710000 8                  TRA     s:6504
         8 000114   000355 710000 8                  TRA     s:6504
         8 000115   000355 710000 8                  TRA     s:6504
         8 000116   000355 710000 8                  TRA     s:6504
         8 000117   000355 710000 8                  TRA     s:6504
         8 000120   000355 710000 8                  TRA     s:6504
         8 000121   000355 710000 8                  TRA     s:6504
         8 000122   000355 710000 8                  TRA     s:6504
         8 000123   000355 710000 8                  TRA     s:6504
         8 000124   000355 710000 8                  TRA     s:6504
         8 000125   000355 710000 8                  TRA     s:6504
         8 000126   000355 710000 8                  TRA     s:6504
         8 000127   000355 710000 8                  TRA     s:6504
         8 000130   000355 710000 8                  TRA     s:6504
         8 000131   000355 710000 8                  TRA     s:6504
         8 000132   000355 710000 8                  TRA     s:6504
         8 000133   000355 710000 8                  TRA     s:6504
         8 000134   000355 710000 8                  TRA     s:6504
         8 000135   000355 710000 8                  TRA     s:6504
         8 000136   000355 710000 8                  TRA     s:6504
         8 000137   000355 710000 8                  TRA     s:6504
         8 000140   000355 710000 8                  TRA     s:6504
         8 000141   000355 710000 8                  TRA     s:6504
         8 000142   000355 710000 8                  TRA     s:6504
         8 000143   000355 710000 8                  TRA     s:6504
         8 000144   000355 710000 8                  TRA     s:6504
         8 000145   000355 710000 8                  TRA     s:6504
PL6.E3A0      #005=Z8AU$BYTE_TO_WORD_UNITS File=Z8AU.:Z8A6TSI                    SAT 08/09/97 11:04 Page:192
         8 000146   000355 710000 8                  TRA     s:6504
         8 000147   000355 710000 8                  TRA     s:6504
         8 000150   000355 710000 8                  TRA     s:6504
         8 000151   000355 710000 8                  TRA     s:6504
         8 000152   000355 710000 8                  TRA     s:6504
         8 000153   000355 710000 8                  TRA     s:6504
         8 000154   000355 710000 8                  TRA     s:6504
         8 000155   000355 710000 8                  TRA     s:6504
         8 000156   000355 710000 8                  TRA     s:6504
         8 000157   000355 710000 8                  TRA     s:6504
         8 000160   000355 710000 8                  TRA     s:6504
         8 000161   000355 710000 8                  TRA     s:6504
         8 000162   000355 710000 8                  TRA     s:6504
         8 000163   000355 710000 8                  TRA     s:6504
         8 000164   000355 710000 8                  TRA     s:6504
         8 000165   000355 710000 8                  TRA     s:6504
         8 000166   000355 710000 8                  TRA     s:6504
         8 000167   000355 710000 8                  TRA     s:6504
         8 000170   000355 710000 8                  TRA     s:6504
         8 000171   000355 710000 8                  TRA     s:6504
         8 000172   000355 710000 8                  TRA     s:6504
         8 000173   000355 710000 8                  TRA     s:6504
         8 000174   000355 710000 8                  TRA     s:6504
         8 000175   000355 710000 8                  TRA     s:6504
         8 000176   000355 710000 8                  TRA     s:6504
         8 000177   000355 710000 8                  TRA     s:6504
         8 000200   000355 710000 8                  TRA     s:6504
         8 000201   000355 710000 8                  TRA     s:6504
         8 000202   000355 710000 8                  TRA     s:6504
         8 000203   000355 710000 8                  TRA     s:6504
         8 000204   000355 710000 8                  TRA     s:6504
         8 000205   000355 710000 8                  TRA     s:6504
         8 000206   000355 710000 8                  TRA     s:6504
         8 000207   000355 710000 8                  TRA     s:6504
         8 000210   000355 710000 8                  TRA     s:6504
         8 000211   000321 710000 8                  TRA     s:6495

PL6.E3A0      #005=Z8AU$BYTE_TO_WORD_UNITS File=Z8AU.:Z8A6TSI                    SAT 08/09/97 11:04 Page:193
      918     6479    2          CASE(%SSOP);

      919     6480    2            MKCN.CON = CONST1;

   6480  8 000212   000000 755000 5                  STA     MKCN

      920     6481    2            CALL Z8AC$MAKE_CONST(ST$$);

   6481  8 000213   200010 633500                    EPPR3   ST$$,,AUTO
         8 000214   200014 453500                    STP3    CONST1+2,,AUTO
         8 000215   200014 630500                    EPPR0   CONST1+2,,AUTO
         8 000216   000000 631400 9                  EPPR1   0
         8 000217   000000 701000 xent               TSX1    Z8AC$MAKE_CONST
         8 000220   000000 011000                    NOP     0

      921     6482
      922     6483    2            CALL Z8AF$FORME(%DVI, NODE$ -> ETT.ROP, ST$$, ROP$);

   6483  8 000221   200003 470500                    LDP0    @NODE$,,AUTO
         8 000222   000000 471500                    LDP1    0,,PR0
         8 000223   200007 633500                    EPPR3   ROP$,,AUTO
         8 000224   200017 453500                    STP3    CONST1+5,,AUTO
         8 000225   200010 634500                    EPPR4   ST$$,,AUTO
         8 000226   200016 454500                    STP4    CONST1+4,,AUTO
         8 000227   100002 635500                    EPPR5   2,,PR1
         8 000230   200015 455500                    STP5    CONST1+3,,AUTO
         8 000231   000003 236000 9                  LDQ     3
         8 000232   200014 756100                    STQ     CONST1+2,,AUTO
         8 000233   200014 630500                    EPPR0   CONST1+2,,AUTO
         8 000234   000001 631400 9                  EPPR1   1
         8 000235   000000 701000 xent               TSX1    Z8AF$FORME
         8 000236   000000 011000                    NOP     0

      923     6484    2            CALL Z8AU$BYTE_TO_WORD_UNITS(NODE$ -> ETT.LOP, TN, LOP$);

   6484  8 000237   200003 470500                    LDP0    @NODE$,,AUTO
         8 000240   000000 471500                    LDP1    0,,PR0
PL6.E3A0      #005=Z8AU$BYTE_TO_WORD_UNITS File=Z8AU.:Z8A6TSI                    SAT 08/09/97 11:04 Page:194
         8 000241   200006 633500                    EPPR3   LOP$,,AUTO
         8 000242   200016 453500                    STP3    CONST1+4,,AUTO
         8 000243   200004 236100                    LDQ     @TN,,AUTO
         8 000244   200015 756100                    STQ     CONST1+3,,AUTO
         8 000245   100001 634500                    EPPR4   1,,PR1
         8 000246   200014 454500                    STP4    CONST1+2,,AUTO
         8 000247   200014 630500                    EPPR0   CONST1+2,,AUTO
         8 000250   000004 631400 9                  EPPR1   4
         8 000251   000000 701000 8                  TSX1    s:6
         8 000252   000000 011000                    NOP     0

      924     6485
      925     6486    2            CALL Z8AF$FORME(%SSOP, LOP$, ROP$, RETURN$);

   6486  8 000253   200005 236100                    LDQ     @RETURN$,,AUTO
         8 000254   200017 756100                    STQ     CONST1+5,,AUTO
         8 000255   200007 630500                    EPPR0   ROP$,,AUTO
         8 000256   200016 450500                    STP0    CONST1+4,,AUTO
         8 000257   200006 631500                    EPPR1   LOP$,,AUTO
         8 000260   200015 451500                    STP1    CONST1+3,,AUTO
         8 000261   000006 236000 9                  LDQ     6
         8 000262   200014 756100                    STQ     CONST1+2,,AUTO
         8 000263   200014 630500                    EPPR0   CONST1+2,,AUTO
         8 000264   000001 631400 9                  EPPR1   1
         8 000265   000000 701000 xent               TSX1    Z8AF$FORME
         8 000266   000000 011000                    NOP     0
         8 000267   000355 710000 8                  TRA     s:6504

      926     6487
      927     6488    2          CASE(%OFF);

      928     6489    2            PACKED.OFFSET = NODE$ -> ETT.OFFSET.VALUE / CONST1;

   6489  8 000270   300002 236100                    LDQ     2,,PR3
         8 000271   000022 732000                    QRS     18
         8 000272   000000 115003                    CMPA    0,DU
         8 000273   000276 605000 8                  TPL     s:6489+6
PL6.E3A0      #005=Z8AU$BYTE_TO_WORD_UNITS File=Z8AU.:Z8A6TSI                    SAT 08/09/97 11:04 Page:195
         8 000274   000000 236003                    LDQ     0,DU
         8 000275   000277 710000 8                  TRA     s:6489+7
         8 000276   200012 506100                    DIV     CONST1,,AUTO
         8 000277   000000 621006                    EAX1    0,QL
         8 000300   200011 741100                    STX1    PACKED,,AUTO

      929     6490    2            PACKED.TYPE   = %WORD_;

   6490  8 000301   000006 220003                    LDX0    6,DU
         8 000302   200011 440100                    SXL0    PACKED,,AUTO

      930     6491
      931     6492    2            CALL Z8AF$FORME(%OFF, NODE$ -> ETT.LOP, PACKED, RETURN$);

   6492  8 000303   100000 473500                    LDP3    0,,PR1
         8 000304   200005 236100                    LDQ     @RETURN$,,AUTO
         8 000305   200017 756100                    STQ     CONST1+5,,AUTO
         8 000306   200011 634500                    EPPR4   PACKED,,AUTO
         8 000307   200016 454500                    STP4    CONST1+4,,AUTO
         8 000310   300001 635500                    EPPR5   1,,PR3
         8 000311   200015 455500                    STP5    CONST1+3,,AUTO
         8 000312   000010 236000 9                  LDQ     8
         8 000313   200014 756100                    STQ     CONST1+2,,AUTO
         8 000314   200014 630500                    EPPR0   CONST1+2,,AUTO
         8 000315   000001 631400 9                  EPPR1   1
         8 000316   000000 701000 xent               TSX1    Z8AF$FORME
         8 000317   000000 011000                    NOP     0
         8 000320   000355 710000 8                  TRA     s:6504

      932     6493
      933     6494    2          CASE(%EVAL);

      934     6495    3            DO CASE (NODE$ -> ETT.LOP -> ETT.ID) ;

   6495  8 000321   300001 474500                    LDP4    1,,PR3
         8 000322   400000 221100                    LDX1    0,,PR4
         8 000323   000006 101003                    CMPX1   6,DU
PL6.E3A0      #005=Z8AU$BYTE_TO_WORD_UNITS File=Z8AU.:Z8A6TSI                    SAT 08/09/97 11:04 Page:196
         8 000324   000326 602011 8                  TNC     s:6495+5,X1
         8 000325   000352 710000 8                  TRA     s:6499
         8 000326   000352 710000 8                  TRA     s:6499
         8 000327   000352 710000 8                  TRA     s:6499
         8 000330   000352 710000 8                  TRA     s:6499
         8 000331   000334 710000 8                  TRA     s:6497
         8 000332   000352 710000 8                  TRA     s:6499
         8 000333   000334 710000 8                  TRA     s:6497

      935     6496    3              CASE(%SSOP, %OFF);

      936     6497    3                CALL Z8AF$FORME(%CVII, NODE$, ADDR(NIL), RETURN$) ;

   6497  8 000334   000011 236000 9                  LDQ     9
         8 000335   200014 756100                    STQ     CONST1+2,,AUTO
         8 000336   200005 236100                    LDQ     @RETURN$,,AUTO
         8 000337   200021 756100                    STQ     CONST1+7,,AUTO
         8 000340   200014 633500                    EPPR3   CONST1+2,,AUTO
         8 000341   200020 453500                    STP3    CONST1+6,,AUTO
         8 000342   200003 236100                    LDQ     @NODE$,,AUTO
         8 000343   000013 235000 9                  LDA     11
         8 000344   200016 757100                    STAQ    CONST1+4,,AUTO
         8 000345   200016 630500                    EPPR0   CONST1+4,,AUTO
         8 000346   000001 631400 9                  EPPR1   1
         8 000347   000000 701000 xent               TSX1    Z8AF$FORME
         8 000350   000000 011000                    NOP     0
         8 000351   000355 710000 8                  TRA     s:6504

      937     6498    3              CASE(ELSE);

      938     6499    3                RETURN$ = NODE$ ;

   6499  8 000352   100000 236100                    LDQ     0,,PR1
         8 000353   200005 475500                    LDP5    @RETURN$,,AUTO
         8 000354   500000 756100                    STQ     0,,PR5

      939     6500    3            END /* Case */ ;
PL6.E3A0      #005=Z8AU$BYTE_TO_WORD_UNITS File=Z8AU.:Z8A6TSI                    SAT 08/09/97 11:04 Page:197

      940     6501
      941     6502    2        END /* Case */;

      942     6503
      943     6504    1   END Z8AU$BYTE_TO_WORD_UNITS;

   6504  8 000355   000000 702200 xent               TSX2  ! X66_ARET

PL6.E3A0      #005=Z8AU$BYTE_TO_WORD_UNITS File=Z8AU.:Z8A6TSI                    SAT 08/09/97 11:04 Page:198
--  Include file information  --

   Z8A_ST.:Z8A6TOU  cannot be made into a system file and is referenced.
   Z8A_MKCN.:Z8A6TOU  cannot be made into a system file and is referenced.
   Z8A_ETT.:Z8A6TOU  cannot be made into a system file and is referenced.
   X8A_COM_MACS.:X8A6TOU  is referenced.
   Z8A_NAMES.:Z8A6TOU  is referenced.
   Z8A_SUPP_MAC.:Z8A6TOU  is referenced.
   Z8A_DEFC.:Z8A6TOU  cannot be made into a system file and is referenced.
      No diagnostics issued in procedure Z8AU$BYTE_TO_WORD_UNITS.
PL6.E3A0      #005=Z8AU$BYTE_TO_WORD_UNITS File=Z8AU.:Z8A6TSI                    SAT 08/09/97 11:04 Page:199

 **** Variables and constants ****

  ****  Section 000 LblCom ITERATION

  ****  Scalars and arrays  ****
OctLoc.c.b A Datatyp(siz) R M Lvl/name                 OctLoc.c.b A Datatyp(siz) R M Lvl/name

     0-0-0/w SBIN              1 ITERATION

  ****  Section 001 LblCom ETT$

  ****  Scalars and arrays  ****
OctLoc.c.b A Datatyp(siz) R M Lvl/name                 OctLoc.c.b A Datatyp(siz) R M Lvl/name

     0-0-0/w PTR         r     1 ETT$

  ****  Section 002 LblCom HEAD_ETT$

  ****  Scalars and arrays  ****
OctLoc.c.b A Datatyp(siz) R M Lvl/name                 OctLoc.c.b A Datatyp(siz) R M Lvl/name

     0-0-0/w PTR               1 HEAD_ETT$

  ****  Section 003 LblCom ETT_BUCKETS

  ****  Scalars and arrays  ****
OctLoc.c.b A Datatyp(siz) R M Lvl/name                 OctLoc.c.b A Datatyp(siz) R M Lvl/name

     0-0-0/w PTR               1 ETT_BUCKETS(0:511)

  ****  Section 004 LblCom ETT_

  ****  Scalars and arrays  ****
OctLoc.c.b A Datatyp(siz) R M Lvl/name                 OctLoc.c.b A Datatyp(siz) R M Lvl/name

     0-0-0/w STRC(180)         1 ETT_

PL6.E3A0      #005=Z8AU$BYTE_TO_WORD_UNITS File=Z8AU.:Z8A6TSI                    SAT 08/09/97 11:04 Page:200
  ****  Section 005 LblCom MKCN

  ****  Scalars and arrays  ****
OctLoc.c.b A Datatyp(siz) R M Lvl/name                 OctLoc.c.b A Datatyp(siz) R M Lvl/name

     0-0-0/w STRC(72)    r     1 MKCN

  ****  Section 006 LblCom ST$

  ****  Scalars and arrays  ****
OctLoc.c.b A Datatyp(siz) R M Lvl/name                 OctLoc.c.b A Datatyp(siz) R M Lvl/name

     0-0-0/w PTR         r     1 ST$

  ****  Section 007 LblCom ST_

  ****  Scalars and arrays  ****
OctLoc.c.b A Datatyp(siz) R M Lvl/name                 OctLoc.c.b A Datatyp(siz) R M Lvl/name

     0-0-0/w STRC(180)         1 ST_

  ****  Auto variables  ****

  ****  Scalars and arrays  ****
OctLoc.c.b A Datatyp(siz) R M Lvl/name                 OctLoc.c.b A Datatyp(siz) R M Lvl/name

     3-0-0/w PTR         r     1 @NODE$                     5-0-0/w PTR         r     1 @RETURN$
     4-0-0/w PTR         r     1 @TN                       12-0-0/w UBIN        r     1 CONST1
     6-0-0/w PTR         r     1 LOP$                      *0-0-0/w PTR         r     1 NODE$
    11-0-0/w STRC        r     1 PACKED                    *0-0-0/w PTR         r     1 RETURN$
     7-0-0/w PTR         r     1 ROP$                      10-0-0/w PTR         r     1 ST$$
    *0-0-0/w BIT         r     1 TN

  ****  BASED and DCB variables  ****

  ****  Scalars and arrays  ****
OctLoc.c.b A Datatyp(siz) R M Lvl/name                 OctLoc.c.b A Datatyp(siz) R M Lvl/name
PL6.E3A0      #005=Z8AU$BYTE_TO_WORD_UNITS File=Z8AU.:Z8A6TSI                    SAT 08/09/97 11:04 Page:201

     0-0-0/w STRC(396)         1 ALPHABET                   0-0-0/w STRC(396)         1 ARRAY
     0-0-0/w STRC(396)         1 BLOCK                      0-0-0/w STRC(396)         1 CD
     0-0-0/w CHAR(4096)        1 CHARS                      0-0-0/w STRC(396)         1 CLASS
     0-0-0/w STRC(396)         1 CONDITION                  0-0-0/w STRC(396)         1 CONST
     0-0-0/w STRC(72)          1 CONT                       0-0-0/w STRC(396)         1 DB
     0-0-0/w STRC(396)         1 DCB_                       0-0-0/w STRC(396)         1 DML_ITEM
     0-0-0/w STRC(180)   r     1 ETT                        0-0-0/w STRC(396)         1 FD
     0-0-0/w STRC(396)         1 INTDEF                     0-0-0/w STRC(396)         1 LABEL
     0-0-0/w STRC(396)         1 MNEMONIC                   0-0-0/w STRC(36864)       1 PAGE
     0-0-0/w STRC(396)         1 PARA                       0-0-0/w STRC(396)         1 PROC_
     0-0-0/w STRC(396)         1 PROC_DEF                   0-0-0/w STRC(396)         1 RD
     0-0-0/w STRC(396)         1 SCALAR                     0-0-0/w STRC(396)         1 SD
     0-0-0/w STRC(396)         1 SECTION                    0-0-0/w STRC(396)         1 SEGMENT
     0-0-0/w STRC(396)         1 ST                         0-0-0/w STRC(396)         1 SWITCH
     0-0-0/w STRC(396)         1 SYMBOLIC_CHAR              0-0-0/w STRC(396)         1 SYMDEF_
     0-0-0/w STRC(396)         1 SYMREF_                    0-0-0/w STRC(396)         1 TEMP
     0-0-0/w STRC(396)         1 VARIABLE


   Procedure Z8AU$BYTE_TO_WORD_UNITS requires 238 words for executable code.
   Procedure Z8AU$BYTE_TO_WORD_UNITS requires 18 words of local(AUTO) storage.

    No errors detected in file Z8AU.:Z8A6TSI    .
