VERSION A06

PL6.E3A0      #001=Z8CO$QUALIFY_VARIABLE File=Z8CO.:Z8A6TSI                      SAT 08/09/97 10:54 Page:1
        1        1        /*M* Z8CO -- Common Phase 1 Utiltity Routines -- Used By DD $ PD */
        2        2        /*T***********************************************************/
        3        3        /*T*                                                         */
        4        4        /*T* Copyright (c) Bull HN Information Systems Inc., 1997    */
        5        5        /*T*                                                         */
        6        6        /*T***********************************************************/
        7        7
        8        8
        9        9        Z8CO$QUALIFY_VARIABLE: PROC (QUAL_ID$, ST$$) ALTRET;
       10       10
       11       11
       12       12        %EQU PHASE = 1;
       13       13
       14       14        %INCLUDE Z8A_DEFC;
       15       82        %INCLUDE Z8A_SUPP_MAC;
       16     2482        %INCLUDE Z8A_COMCOM;
       17     3132        %INCLUDE Z8A_ERR_NUMS;
       18     3896        %INCLUDE Z8A_ST;
       19     7555        %INCLUDE Z8A_TYPES;
       20     7729        %INCLUDE Z8A_QLT;
       21     7835        %INCLUDE Z8A_DNT;
       22     8056
       23     8057        %INCLUDE Z8E_STACKS;
       24    10323        %INCLUDE Z8E_O1COM;
       25    11084        %INCLUDE Z8E_WINDOW;
       26    13154        %INCLUDE Z8E_MACROS;
       27    13829
       28    13830    1   DCL Z8AE$ERROR         ENTRY (12);
       29    13831    1   DCL Z8CO$DECLARE_SCALAR       ENTRY (3);
       30    13832
       31    13833    1   DCL QUAL_ID$ PTR;
       32    13834    1   DCL ST$$ PTR;
       33    13835
       34    13836    1   DCL LIST$                     PTR;
       35    13837    1   DCL CURRENT_FATHER$           PTR;
       36    13838    1   DCL CURRENT_ST$               PTR;
       37    13839
PL6.E3A0      #001=Z8CO$QUALIFY_VARIABLE File=Z8CO.:Z8A6TSI                      SAT 08/09/97 10:54 Page:2
       38    13840    1   DCL P$                        PTR;
       39    13841    1   DCL LOCAL_FOUND               BIT(1) ALIGNED;
       40    13842    1   DCL GLOBAL_FOUND              BIT(1) ALIGNED;
       41    13843    1   DCL NO_ERROR_FLAG             BOOLEAN;
       42    13844    1   DCL 1 DESC                    ALIGNED,
       43    13845             %DESCRIPTOR              (LVL = 2, ENDING = YES);
       44    13873
       45    13874
       46    13875    1   RECOVERY: PROC;
       47    13876
       48    13877
       49    13878    2        CALL Z8CO$DECLARE_SCALAR (LIST$ -> LX_TERMINAL.DNT$,
       50    13879    2                                  %TYI,
       51    13880    2                                  ST$$);
       52    13881
       53    13882    2        ST$$ -> SCALAR.B.CLASS = %CLASS_NUMERIC;
       54    13883
       55    13884             %BUILD_BINARY_DESC (@DESC = DESC,
       56    13885                                 @LENGTH = %TYI_LENGTH);
       57    13893
       58    13894    2        ST$$ -> ST.DESCL = DESC.DESCL;
       59    13895    2        ST$$ -> SCALAR.B.COMPILER_CREATED = TRUE;
       60    13896
       61    13897    2   END RECOVERY;
       62    13898
       63    13899        %EJECT;
PL6.E3A0      #001=Z8CO$QUALIFY_VARIABLE File=Z8CO.:Z8A6TSI                      SAT 08/09/97 10:54 Page:3
       64    13900        /*=============*/
       65    13901    1     GLOBAL_FATHER : PROC;
       66    13902        /*=============*/
       67    13903
       68    13904    2        P$ = O1COM.CURRENT_PROC$;
       69    13905
       70    13906    3        DO WHILE (P$ ~= ADDR(NIL));
       71    13907    3          IF P$ = CURRENT_ST$ -> SCALAR.PROC$ THEN
       72    13908    3            EXIT;
       73    13909
       74    13910    3          P$ = P$ -> PROC_.FATHER;
       75    13911    3        END; /* While */
       76    13912
       77    13913    2        IF P$ ~= ADDR(NIL) THEN
       78    13914    3          DO;
       79    13915    3            GLOBAL_FOUND = TRUE;
       80    13916    3            ST$$ = CURRENT_ST$;
       81    13917    3          END;
       82    13918
       83    13919    2   END GLOBAL_FATHER;
       84    13920        %EJECT;
PL6.E3A0      #001=Z8CO$QUALIFY_VARIABLE File=Z8CO.:Z8A6TSI                      SAT 08/09/97 10:54 Page:4
       85    13921
       86    13922    1    NO_ERROR_FLAG = FALSE;
       87    13923    1    GOTO COMMON_CODE;
       88    13924    1   Z8CO$QUALIFY_VARIABLE_NO_ERROR: ENTRY (QUAL_ID$, ST$$) ALTRET;
       89    13925    1    NO_ERROR_FLAG = TRUE;
       90    13926    1   COMMON_CODE:
       91    13927    1    LOCAL_FOUND = FALSE;
       92    13928    1    GLOBAL_FOUND= FALSE;
       93    13929    1    LIST$       = QUAL_ID$ -> LX_LIST.HEAD$;
       94    13930    1    CURRENT_ST$ = LIST$ -> LX_TERMINAL.DNT$ -> DNT.ST$;
       95    13931    1    ST$$         = CURRENT_ST$;
       96    13932
       97    13933    1    IF CURRENT_ST$ = ADDR(NIL) THEN
       98    13934    2      DO;
       99    13935    2        IF NOT NO_ERROR_FLAG THEN
      100    13936    2          CALL Z8AE$ERROR (%E$UNDECLARED_DATA_NAME,
      101    13937    2                           LIST$ -> LX_TERMINAL.LINE,
      102    13938    2                           LIST$ -> LX_TERMINAL.COLUMN,
      103    13939    2                           LIST$ -> LX_TERMINAL.DNT$);
      104    13940
      105    13941    2        CALL RECOVERY;
      106    13942
      107    13943    2        ALTRETURN;
      108    13944    2      END;
      109    13945
      110    13946    2    DO UNTIL (CURRENT_ST$ = ADDR(NIL));
      111    13947
      112    13948    2   VALID_ST:
      113    13949    3      DO;
      114    13950
      115    13951    4        DO CASE(CURRENT_ST$ -> ST.ID);
      116    13952
      117    13953    4          CASE(%SCALAR, %ARRAY);
      118    13954
      119    13955    4            CURRENT_FATHER$ = CURRENT_ST$ -> SCALAR.QLT$ -> QLT.FATHER;
      120    13956
      121    13957    4          CASE(%SWITCH);
PL6.E3A0      #001=Z8CO$QUALIFY_VARIABLE File=Z8CO.:Z8A6TSI                      SAT 08/09/97 10:54 Page:5
      122    13958    4            CURRENT_FATHER$ = CURRENT_ST$ -> SWITCH.QLT$ -> QLT.FATHER;
      123    13959
      124    13960    4          CASE(%CONDITION);
      125    13961
      126    13962    4            CURRENT_FATHER$ = CURRENT_ST$ -> CONDITION.QLT$ -> QLT.FATHER;
      127    13963
      128    13964    4          CASE(%BLOCK, %CONST, %DCB_, %PARA, %SECTION, %SEGMENT,
      129    13965    4               %SYMDEF_, %SYMREF_, %TEMP, %INTDEF);
      130    13966    4              EXIT VALID_ST;
      131    13967
      132    13968    4          CASE(ELSE);
      133    13969
      134    13970    4            CURRENT_FATHER$ = ADDR(NIL);
      135    13971    4        END;
      136    13972
      137    13973
      138    13974    4        DO WHILE (CURRENT_FATHER$ ~= ADDR(NIL) AND
      139    13975    4                  LIST$ -> LX_TERMINAL.LINK ~= ADDR(NIL));
      140    13976
      141    13977    4          IF CURRENT_FATHER$ -> QLT.ST$ -> SCALAR.DNT$ -> DNT.ST$
      142    13978    4             = LIST$ -> LX_TERMINAL.LINK -> LX_ITEM.DNT$ -> DNT.ST$ THEN
      143    13979    4            LIST$ = LIST$ -> LX_TERMINAL.LINK;
      144    13980
      145    13981    4          CURRENT_FATHER$ = CURRENT_FATHER$ -> QLT.FATHER;
      146    13982
      147    13983    4        END; /* While -- current_father$ ~= nil and list$->lx_item.next ~= nil */
      148    13984
      149    13985    3        IF LIST$ = QUAL_ID$ -> LX_LIST.TAIL$ THEN
      150    13986    4          DO;
      151    13987    4            IF LOCAL_FOUND THEN
      152    13988    4              IF CURRENT_ST$ -> VARIABLE.PROC$ = O1COM.CURRENT_PROC$ THEN
      153    13989    5                DO;
      154    13990    5                  IF NOT CURRENT_ST$ -> ST.DNT$ -> DNT.B.ERROR_VARIABLE THEN
      155    13991    5                    IF NOT NO_ERROR_FLAG THEN
      156    13992    5                      CALL Z8AE$ERROR (%E$AMBIGUOUS_REFERENCE,
      157    13993    5                                       QUAL_ID$ -> LX_LIST.HEAD$ -> LX_TERMINAL.LINE,
      158    13994    5                                       QUAL_ID$ -> LX_LIST.HEAD$ -> LX_TERMINAL.COLUMN,
PL6.E3A0      #001=Z8CO$QUALIFY_VARIABLE File=Z8CO.:Z8A6TSI                      SAT 08/09/97 10:54 Page:6
      159    13995    5                                       QUAL_ID$ -> LX_LIST.HEAD$ -> LX_TERMINAL.DNT$);
      160    13996    5                  ST$$ = QUAL_ID$ -> LX_LIST.HEAD$ -> LX_TERMINAL.DNT$ -> DNT.ST$;
      161    13997    5                  ALTRETURN;
      162    13998    5                END;
      163    13999    4              ELSE
      164    14000                     /* Since a local guy was already found and we are already
      165    14001                        in a previous proc, then we can exit. */
      166    14002    4                RETURN;
      167    14003    4            ELSE          /* A local guy has not been found yet */
      168    14004    4              IF GLOBAL_FOUND THEN
      169    14005    4                IF CURRENT_ST$ -> VARIABLE.PROC$ = ST$$ -> VARIABLE.PROC$ THEN
      170    14006    5                  DO;
      171    14007                         /* Since a GLOBAL item was already found, and
      172    14008                            its PROC$ is the same as this one,
      173    14009                            then it is ambiguous                          */
      174    14010    5                    IF NOT CURRENT_ST$ -> ST.DNT$ -> DNT.B.ERROR_VARIABLE THEN
      175    14011    5                      IF NOT NO_ERROR_FLAG THEN
      176    14012    5                        CALL Z8AE$ERROR (%E$AMBIGUOUS_REFERENCE,
      177    14013    5                                         QUAL_ID$ -> LX_LIST.HEAD$ -> LX_TERMINAL.LINE,
      178    14014    5                                         QUAL_ID$ -> LX_LIST.HEAD$ -> LX_TERMINAL.
             14014                                                  COLUMN,
      179    14015    5                                         QUAL_ID$ -> LX_LIST.HEAD$ -> LX_TERMINAL.DNT$)
             14015                                                  ;
      180    14016    5                    ST$$ = QUAL_ID$ -> LX_LIST.HEAD$ -> LX_TERMINAL.DNT$ -> DNT.ST$;
      181    14017    5                    ALTRETURN;
      182    14018    5                  END;
      183    14019    4                ELSE
      184    14020                       /* Since we have already found a GLOBAL item,
      185    14021                          and the item we just found has a different
      186    14022                          PROC$, it must have been created before the
      187    14023                          one we have.  With these rules, we can therefore
      188    14024                          rule out any ambiguities                        */
      189    14025    4                  RETURN;
      190    14026    4              ELSE        /* A global item has not been found yet */
      191    14027    4                IF CURRENT_ST$ -> VARIABLE.PROC$ = O1COM.CURRENT_PROC$ THEN
      192    14028    5                  DO;
      193    14029    5                    LOCAL_FOUND = TRUE;
PL6.E3A0      #001=Z8CO$QUALIFY_VARIABLE File=Z8CO.:Z8A6TSI                      SAT 08/09/97 10:54 Page:7
      194    14030    5                    ST$$ = CURRENT_ST$;
      195    14031    5                  END;
      196    14032    4                ELSE
      197    14033    5                  DO CASE (CURRENT_ST$ -> ST.ID);
      198    14034
      199    14035    5                    CASE (%SCALAR, %ARRAY,
      200    14036                               %SET_OF_FILE_DESCRIPTIONS;
      201    14041    5                          );
      202    14042    5                      IF CURRENT_ST$ -> VARIABLE.B.GLOBAL THEN
      203    14043    5                        CALL GLOBAL_FATHER ;
      204    14044
      205    14045    5                    CASE (%CLASS, %ALPHABET, %MNEMONIC, %SWITCH,
      206    14046    5                          %REALM, %DML_SET, %DML_KEY, %PRIVACY_KEY, %SYM_CHAR);
      207    14047    5                      CALL GLOBAL_FATHER;
      208    14048
      209    14049    5                    CASE (%CONDITION);
      210    14050    5                      IF CURRENT_ST$ -> CONDITION.B.GLOBAL THEN
      211    14051    5                        CALL GLOBAL_FATHER;
      212    14052
      213    14053    5                    CASE (ELSE);
      214    14054    5                      /* Do nothing */;
      215    14055
      216    14056    5                  END; /* CASE */
      217    14057    4          END;
      218    14058    3      END VALID_ST;
      219    14059
      220    14060    2        LIST$ = QUAL_ID$ -> LX_LIST.HEAD$;
      221    14061    2        CURRENT_ST$ = CURRENT_ST$ -> SCALAR.NEXT;
      222    14062    2    END; /* Until -- current_st$ = addr(nil) */
      223    14063
      224    14064    1    IF  (NOT LOCAL_FOUND)
      225    14065    1    AND (NOT GLOBAL_FOUND) THEN
      226    14066    2      DO;
      227    14067             %CONDITIONAL_ERROR (@LX_ITEM$ = QUAL_ID$ -> LX_LIST.HEAD$,
      228    14068                      @ERROR# = %E$DATA_NAME_QUAL_ERROR,
      229    14069                      @LINE   = QUAL_ID$ -> LX_LIST.HEAD$ -> LX_TERMINAL.LINE,
      230    14070                      @COLUMN = QUAL_ID$ -> LX_LIST.HEAD$ -> LX_TERMINAL.COLUMN,
PL6.E3A0      #001=Z8CO$QUALIFY_VARIABLE File=Z8CO.:Z8A6TSI                      SAT 08/09/97 10:54 Page:8
      231    14071                      @PLUG1  = QUAL_ID$ -> LX_LIST.HEAD$ -> LX_TERMINAL.DNT$);
      232    14101
      233    14102    2        CALL RECOVERY;
      234    14103
      235    14104    2        ALTRETURN;
      236    14105    2      END;
      237    14106
      238    14107
      239    14108    1   END Z8CO$QUALIFY_VARIABLE;
      240    14109        %EOD;

PL6.E3A0      #001=Z8CO$QUALIFY_VARIABLE File=Z8CO.:Z8A6TSI                      SAT 08/09/97 10:54 Page:9
--  Include file information  --

   Z8E_NEW_ILL.:Z8A6TOU  is referenced.
   Z8E_MACROS.:Z8A6TOU  cannot be made into a system file and is referenced.
   Z8E_WINDOW.:Z8A6TOU  is referenced.
   Z8E_O1COM.:Z8A6TOU  cannot be made into a system file and is referenced.
   Z8A_LEX_SYMB.:Z8A6TOU  cannot be made into a system file and is referenced.
   Z8E_STACKS.:Z8A6TOU  cannot be made into a system file and is referenced.
   Z8A_DNT.:Z8A6TOU  cannot be made into a system file and is referenced.
   Z8A_QLT.:Z8A6TOU  cannot be made into a system file and is referenced.
   Z8A_TYPES.:Z8A6TOU  is referenced.
   Z8A_ST.:Z8A6TOU  cannot be made into a system file and is referenced.
   Z8A_ERR_NUMS.:Z8A6TOU  is referenced.
   Z8A_COMCOM.:Z8A6TOU  cannot be made into a system file and is referenced.
   X8A_COM_MACS.:X8A6TOU  is referenced.
   Z8A_NAMES.:Z8A6TOU  is referenced.
   Z8A_SUPP_MAC.:Z8A6TOU  is referenced.
   Z8A_DEFC.:Z8A6TOU  cannot be made into a system file and is referenced.
      No diagnostics issued in procedure Z8CO$QUALIFY_VARIABLE.

   Procedure Z8CO$QUALIFY_VARIABLE requires 331 words for executable code.
   Procedure Z8CO$QUALIFY_VARIABLE requires 20 words of local(AUTO) storage.

PL6.E3A0      #001=Z8CO$QUALIFY_VARIABLE File=Z8CO.:Z8A6TSI                      SAT 08/09/97 10:54 Page:10

 Object Unit name= Z8CO$QUALIFY_VARIABLE                      File name= Z8CO.:Z8A6TOU
 UTS= AUG 09 '97 10:54:21.88 SAT                              Compiler= PL-6/E31         Sev=      00
 SharedLib= :SHARED_SYSTEM                                    Alt SharedLib=


    ****  Control sections  ****

 Sect   Type Bound  Init  Size OctSiz  Section name(segment info)
    0  LblCom even  none     1      1  ITERATION
    1  LblCom even  none     1      1  ST$
    2  LblCom even  none     5      5  ST_
    3  LblCom even  none     1      1  QLT$
    4  LblCom even  none     1      1  PREV_01_QLT$
    5  LblCom even  none     5      5  QLT_
    6  LblCom even  none     1      1  DNT$
    7  LblCom even  none     5      5  DNT_
    8  LblCom even  none     1      1  DNT_BUCKET_NUMBER
    9  LblCom even  none     1      1  DNT_OF_1$
   10  LblCom even  none    90    132  LEX_SYMBOL
   11  LblCom even  none     1      1  CURRENT_LEX_SYMBOL$
   12  LblCom even  none    90    132  TEMP_LEX_SYMBOL
   13  LblCom even  none    90    132  TEMP_LEX_SYMBOL2
   14   Proc  even  none   331    513  Z8CO$QUALIFY_VARIABLE
   15  RoData even  none    12     14  Z8CO$QUALIFY_VARIABLE

    ****  Entry defs  ****

                              Check   Calling
                             calling  sequence
  Sect OctLoc Primary Altret sequence   type   Parms  Name
    14      0   yes    yes     yes      Std        2  Z8CO$QUALIFY_VARIABLE
    14     70          yes     yes      Std        2  Z8CO$QUALIFY_VARIABLE_NO_ERROR
PL6.E3A0      #001=Z8CO$QUALIFY_VARIABLE File=Z8CO.:Z8A6TSI                      SAT 08/09/97 10:54 Page:11

  ****  Entry refs  ****

         Check        Calling
        calling       sequence
Altret sequence SRef   type   Args  Name
         yes           Std      12 Z8AE$ERROR
         yes           Std       3 Z8CO$DECLARE_SCALAR
                       nStd      0 X66_AUTO_2
                       nStd      0 X66_AALT
                       nStd      0 X66_ARET

  ****  Data refs  ****

  Flags:  r = read only, s = secondary
Flgs Name                             Flgs Name                             Flgs Name
     COMCOM                                O1COM                                 HIER_STK_PTR
     HIER_STK                              PAGE_FORMAT                           REP_STK_PTR
     REP_STK

  ****  Segment refs  ****

  Flags:  r = read only, s = secondary
Flgs Name                             Flgs Name                             Flgs Name
     NULLSID                               ISSID
PL6.E3A0      #001=Z8CO$QUALIFY_VARIABLE File=Z8CO.:Z8A6TSI                      SAT 08/09/97 10:54 Page:12


        1        1        /*M* Z8CO -- Common Phase 1 Utiltity Routines -- Used By DD $ PD */
        2        2        /*T***********************************************************/
        3        3        /*T*                                                         */
        4        4        /*T* Copyright (c) Bull HN Information Systems Inc., 1997    */
        5        5        /*T*                                                         */
        6        6        /*T***********************************************************/
        7        7
        8        8
        9        9        Z8CO$QUALIFY_VARIABLE: PROC (QUAL_ID$, ST$$) ALTRET;

      9 14 000000   000000 700200 xent  Z8CO$QUALIF* TSX0  ! X66_AUTO_2
        14 000001   000024 000002                    ZERO    20,2
        14 000002   000066 710000 14                 TRA     s:13922

       10       10
       11       11
       12       12        %EQU PHASE = 1;
       13       13
       14       14        %INCLUDE Z8A_DEFC;
       15       82        %INCLUDE Z8A_SUPP_MAC;
       16     2482        %INCLUDE Z8A_COMCOM;
       17     3132        %INCLUDE Z8A_ERR_NUMS;
       18     3896        %INCLUDE Z8A_ST;
       19     7555        %INCLUDE Z8A_TYPES;
       20     7729        %INCLUDE Z8A_QLT;
       21     7835        %INCLUDE Z8A_DNT;
       22     8056
       23     8057        %INCLUDE Z8E_STACKS;
       24    10323        %INCLUDE Z8E_O1COM;
       25    11084        %INCLUDE Z8E_WINDOW;
       26    13154        %INCLUDE Z8E_MACROS;
       27    13829
       28    13830    1   DCL Z8AE$ERROR         ENTRY (12);
       29    13831    1   DCL Z8CO$DECLARE_SCALAR       ENTRY (3);
       30    13832
       31    13833    1   DCL QUAL_ID$ PTR;
PL6.E3A0      #001=Z8CO$QUALIFY_VARIABLE File=Z8CO.:Z8A6TSI                      SAT 08/09/97 10:54 Page:13
       32    13834    1   DCL ST$$ PTR;
       33    13835
       34    13836    1   DCL LIST$                     PTR;
       35    13837    1   DCL CURRENT_FATHER$           PTR;
       36    13838    1   DCL CURRENT_ST$               PTR;
       37    13839
       38    13840    1   DCL P$                        PTR;
       39    13841    1   DCL LOCAL_FOUND               BIT(1) ALIGNED;
       40    13842    1   DCL GLOBAL_FOUND              BIT(1) ALIGNED;
       41    13843    1   DCL NO_ERROR_FLAG             BOOLEAN;
       42    13844    1   DCL 1 DESC                    ALIGNED,
       43    13845             %DESCRIPTOR              (LVL = 2, ENDING = YES);
       44    13873
       45    13874
       46    13875    1   RECOVERY: PROC;

  13875 14 000003   200016 741300       RECOVERY     STX1  ! DESC+2,,AUTO

       47    13876
       48    13877
       49    13878    2        CALL Z8CO$DECLARE_SCALAR (LIST$ -> LX_TERMINAL.DNT$,

  13878 14 000004   200004 236100                    LDQ     @ST$$,,AUTO
        14 000005   200022 756100                    STQ     DESC+6,,AUTO
        14 000006   000002 236000 15                 LDQ     2
        14 000007   200021 756100                    STQ     DESC+5,,AUTO
        14 000010   200005 236100                    LDQ     LIST$,,AUTO
        14 000011   000002 036003                    ADLQ    2,DU
        14 000012   200020 756100                    STQ     DESC+4,,AUTO
        14 000013   200020 630500                    EPPR0   DESC+4,,AUTO
        14 000014   000000 631400 15                 EPPR1   0
        14 000015   000000 701000 xent               TSX1    Z8CO$DECLARE_SCALAR
        14 000016   000000 011000                    NOP     0

       50    13879    2                                  %TYI,
       51    13880    2                                  ST$$);
       52    13881
PL6.E3A0      #001=Z8CO$QUALIFY_VARIABLE File=Z8CO.:Z8A6TSI                      SAT 08/09/97 10:54 Page:14
       53    13882    2        ST$$ -> SCALAR.B.CLASS = %CLASS_NUMERIC;

  13882 14 000017   200004 470500                    LDP0    @ST$$,,AUTO
        14 000020   000000 471500                    LDP1    0,,PR0
        14 000021   100003 236100                    LDQ     3,,PR1
        14 000022   000003 376000 15                 ANQ     3
        14 000023   000001 276007                    ORQ     1,DL
        14 000024   100003 756100                    STQ     3,,PR1

       54    13883
       55    13884             %BUILD_BINARY_DESC (@DESC = DESC,
       56    13885                                 @LENGTH = %TYI_LENGTH);

  13889 14 000025   200014 450100                    STZ     DESC,,AUTO

  13890 14 000026   000004 236007                    LDQ     4,DL
        14 000027   200014 752101                    STCQ    DESC,'01'O,AUTO

       57    13893
       58    13894    2        ST$$ -> ST.DESCL = DESC.DESCL;

  13894 14 000030   000000 471500                    LDP1    0,,PR0
        14 000031   200014 720100                    LXL0    DESC,,AUTO
        14 000032   100001 440100                    SXL0    1,,PR1

       59    13895    2        ST$$ -> SCALAR.B.COMPILER_CREATED = TRUE;

  13895 14 000033   000000 471500                    LDP1    0,,PR0
        14 000034   100000 236003                    LDQ     32768,DU
        14 000035   100003 256100                    ORSQ    3,,PR1

       60    13896
       61    13897    2   END RECOVERY;

  13897 14 000036   200016 221300                    LDX1  ! DESC+2,,AUTO
        14 000037   000001 702211                    TSX2  ! 1,X1

PL6.E3A0      #001=Z8CO$QUALIFY_VARIABLE File=Z8CO.:Z8A6TSI                      SAT 08/09/97 10:54 Page:15
       62    13898
       63    13899        %EJECT;
PL6.E3A0      #001=Z8CO$QUALIFY_VARIABLE File=Z8CO.:Z8A6TSI                      SAT 08/09/97 10:54 Page:16
       64    13900        /*=============*/
       65    13901    1     GLOBAL_FATHER : PROC;

  13901 14 000040   200016 741300       GLOBAL_FATH* STX1  ! DESC+2,,AUTO

       66    13902        /*=============*/
       67    13903
       68    13904    2        P$ = O1COM.CURRENT_PROC$;

  13904 14 000041   000057 236000 xsym               LDQ     O1COM+47
        14 000042   200010 756100                    STQ     P$,,AUTO

       69    13905
       70    13906    3        DO WHILE (P$ ~= ADDR(NIL));

  13906 14 000043   000053 710000 14                 TRA     s:13911

       71    13907    3          IF P$ = CURRENT_ST$ -> SCALAR.PROC$ THEN

  13907 14 000044   200007 470500                    LDP0    CURRENT_ST$,,AUTO
        14 000045   200010 236100                    LDQ     P$,,AUTO
        14 000046   000011 116100                    CMPQ    9,,PR0
        14 000047   000055 600000 14                 TZE     s:13913

       72    13908    3            EXIT;
       73    13909
       74    13910    3          P$ = P$ -> PROC_.FATHER;

  13910 14 000050   200010 471500                    LDP1    P$,,AUTO
        14 000051   100011 236100                    LDQ     9,,PR1
        14 000052   200010 756100                    STQ     P$,,AUTO

       75    13911    3        END; /* While */

  13911 14 000053   000004 116000 15                 CMPQ    4
        14 000054   000044 601000 14                 TNZ     s:13907

PL6.E3A0      #001=Z8CO$QUALIFY_VARIABLE File=Z8CO.:Z8A6TSI                      SAT 08/09/97 10:54 Page:17
       76    13912
       77    13913    2        IF P$ ~= ADDR(NIL) THEN

  13913 14 000055   000004 116000 15                 CMPQ    4
        14 000056   000064 600000 14                 TZE     s:13919

       78    13914    3          DO;

       79    13915    3            GLOBAL_FOUND = TRUE;

  13915 14 000057   400000 236003                    LDQ     -131072,DU
        14 000060   200012 756100                    STQ     GLOBAL_FOUND,,AUTO

       80    13916    3            ST$$ = CURRENT_ST$;

  13916 14 000061   200007 236100                    LDQ     CURRENT_ST$,,AUTO
        14 000062   200004 470500                    LDP0    @ST$$,,AUTO
        14 000063   000000 756100                    STQ     0,,PR0

       81    13917    3          END;

       82    13918
       83    13919    2   END GLOBAL_FATHER;

  13919 14 000064   200016 221300                    LDX1  ! DESC+2,,AUTO
        14 000065   000001 702211                    TSX2  ! 1,X1

       84    13920        %EJECT;
PL6.E3A0      #001=Z8CO$QUALIFY_VARIABLE File=Z8CO.:Z8A6TSI                      SAT 08/09/97 10:54 Page:18
       85    13921
       86    13922    1    NO_ERROR_FLAG = FALSE;

  13922 14 000066   200013 450100                    STZ     NO_ERROR_FLAG,,AUTO

       87    13923    1    GOTO COMMON_CODE;

  13923 14 000067   000074 710000 14                 TRA     COMMON_CODE

       88    13924    1   Z8CO$QUALIFY_VARIABLE_NO_ERROR: ENTRY (QUAL_ID$, ST$$) ALTRET;

  13924 14 000070   000000 700200 xent  Z8CO$QUALIF* TSX0  ! X66_AUTO_2
        14 000071   000024 000002                    ZERO    20,2

       89    13925    1    NO_ERROR_FLAG = TRUE;

  13925 14 000072   400000 236003                    LDQ     -131072,DU
        14 000073   200013 756100                    STQ     NO_ERROR_FLAG,,AUTO

       90    13926    1   COMMON_CODE:
       91    13927    1    LOCAL_FOUND = FALSE;

  13927 14 000074   200011 450100       COMMON_CODE  STZ     LOCAL_FOUND,,AUTO

       92    13928    1    GLOBAL_FOUND= FALSE;

  13928 14 000075   200012 450100                    STZ     GLOBAL_FOUND,,AUTO

       93    13929    1    LIST$       = QUAL_ID$ -> LX_LIST.HEAD$;

  13929 14 000076   200003 470500                    LDP0    @QUAL_ID$,,AUTO
        14 000077   000000 471500                    LDP1    0,,PR0
        14 000100   100004 236100                    LDQ     4,,PR1
        14 000101   200005 756100                    STQ     LIST$,,AUTO

       94    13930    1    CURRENT_ST$ = LIST$ -> LX_TERMINAL.DNT$ -> DNT.ST$;

PL6.E3A0      #001=Z8CO$QUALIFY_VARIABLE File=Z8CO.:Z8A6TSI                      SAT 08/09/97 10:54 Page:19
  13930 14 000102   200005 473500                    LDP3    LIST$,,AUTO
        14 000103   300002 474500                    LDP4    2,,PR3
        14 000104   400001 236100                    LDQ     1,,PR4
        14 000105   200007 756100                    STQ     CURRENT_ST$,,AUTO

       95    13931    1    ST$$         = CURRENT_ST$;

  13931 14 000106   200004 475500                    LDP5    @ST$$,,AUTO
        14 000107   500000 756100                    STQ     0,,PR5

       96    13932
       97    13933    1    IF CURRENT_ST$ = ADDR(NIL) THEN

  13933 14 000110   000004 116000 15                 CMPQ    4
        14 000111   000135 601000 14                 TNZ     VALID_ST

       98    13934    2      DO;

       99    13935    2        IF NOT NO_ERROR_FLAG THEN

  13935 14 000112   200013 234100                    SZN     NO_ERROR_FLAG,,AUTO
        14 000113   000132 604000 14                 TMI     s:13941

      100    13936    2          CALL Z8AE$ERROR (%E$UNDECLARED_DATA_NAME,

  13936 14 000114   200005 236100                    LDQ     LIST$,,AUTO
        14 000115   000002 036003                    ADLQ    2,DU
        14 000116   200023 756100                    STQ     DESC+7,,AUTO
        14 000117   200005 236100                    LDQ     LIST$,,AUTO
        14 000120   000006 036003                    ADLQ    6,DU
        14 000121   200022 756100                    STQ     DESC+6,,AUTO
        14 000122   200005 236100                    LDQ     LIST$,,AUTO
        14 000123   000005 036003                    ADLQ    5,DU
        14 000124   000007 235000 15                 LDA     7
        14 000125   200020 757100                    STAQ    DESC+4,,AUTO
        14 000126   200020 630500                    EPPR0   DESC+4,,AUTO
        14 000127   000005 631400 15                 EPPR1   5
PL6.E3A0      #001=Z8CO$QUALIFY_VARIABLE File=Z8CO.:Z8A6TSI                      SAT 08/09/97 10:54 Page:20
        14 000130   000000 701000 xent               TSX1    Z8AE$ERROR
        14 000131   000000 011000                    NOP     0

      101    13937    2                           LIST$ -> LX_TERMINAL.LINE,
      102    13938    2                           LIST$ -> LX_TERMINAL.COLUMN,
      103    13939    2                           LIST$ -> LX_TERMINAL.DNT$);
      104    13940
      105    13941    2        CALL RECOVERY;

  13941 14 000132   000003 701000 14                 TSX1    RECOVERY
        14 000133   000000 011000                    NOP     0

      106    13942
      107    13943    2        ALTRETURN;

  13943 14 000134   000000 702200 xent               TSX2  ! X66_AALT

      108    13944    2      END;
      109    13945
      110    13946    2    DO UNTIL (CURRENT_ST$ = ADDR(NIL));

      111    13947
      112    13948    2   VALID_ST:
      113    13949    3      DO;

  13949 14 000135                       VALID_ST     null
      114    13950
      115    13951    4        DO CASE(CURRENT_ST$ -> ST.ID);

  13951 14 000135   200007 470500                    LDP0    CURRENT_ST$,,AUTO
        14 000136   000000 236100                    LDQ     0,,PR0
        14 000137   000022 772000                    QRL     18
        14 000140   000760 136007                    SBLQ    496,DL
        14 000141   000030 116007                    CMPQ    24,DL
        14 000142   000144 602006 14                 TNC     VALID_ST+7,QL
        14 000143   000211 710000 14                 TRA     s:13970
        14 000144   000210 710000 14                 TRA     s:13966
PL6.E3A0      #001=Z8CO$QUALIFY_VARIABLE File=Z8CO.:Z8A6TSI                      SAT 08/09/97 10:54 Page:21
        14 000145   000211 710000 14                 TRA     s:13970
        14 000146   000200 710000 14                 TRA     s:13958
        14 000147   000211 710000 14                 TRA     s:13970
        14 000150   000204 710000 14                 TRA     s:13962
        14 000151   000174 710000 14                 TRA     s:13955
        14 000152   000174 710000 14                 TRA     s:13955
        14 000153   000210 710000 14                 TRA     s:13966
        14 000154   000210 710000 14                 TRA     s:13966
        14 000155   000210 710000 14                 TRA     s:13966
        14 000156   000210 710000 14                 TRA     s:13966
        14 000157   000210 710000 14                 TRA     s:13966
        14 000160   000210 710000 14                 TRA     s:13966
        14 000161   000211 710000 14                 TRA     s:13970
        14 000162   000210 710000 14                 TRA     s:13966
        14 000163   000211 710000 14                 TRA     s:13970
        14 000164   000210 710000 14                 TRA     s:13966
        14 000165   000211 710000 14                 TRA     s:13970
        14 000166   000211 710000 14                 TRA     s:13970
        14 000167   000211 710000 14                 TRA     s:13970
        14 000170   000211 710000 14                 TRA     s:13970
        14 000171   000211 710000 14                 TRA     s:13970
        14 000172   000211 710000 14                 TRA     s:13970
        14 000173   000210 710000 14                 TRA     s:13966

      116    13952
      117    13953    4          CASE(%SCALAR, %ARRAY);

      118    13954
      119    13955    4            CURRENT_FATHER$ = CURRENT_ST$ -> SCALAR.QLT$ -> QLT.FATHER;

  13955 14 000174   000007 471500                    LDP1    7,,PR0
        14 000175   100001 236100                    LDQ     1,,PR1
        14 000176   200006 756100                    STQ     CURRENT_FATHER$,,AUTO
        14 000177   000213 710000 14                 TRA     s:13974

      120    13956
      121    13957    4          CASE(%SWITCH);
PL6.E3A0      #001=Z8CO$QUALIFY_VARIABLE File=Z8CO.:Z8A6TSI                      SAT 08/09/97 10:54 Page:22

      122    13958    4            CURRENT_FATHER$ = CURRENT_ST$ -> SWITCH.QLT$ -> QLT.FATHER;

  13958 14 000200   000007 471500                    LDP1    7,,PR0
        14 000201   100001 236100                    LDQ     1,,PR1
        14 000202   200006 756100                    STQ     CURRENT_FATHER$,,AUTO
        14 000203   000213 710000 14                 TRA     s:13974

      123    13959
      124    13960    4          CASE(%CONDITION);

      125    13961
      126    13962    4            CURRENT_FATHER$ = CURRENT_ST$ -> CONDITION.QLT$ -> QLT.FATHER;

  13962 14 000204   000007 471500                    LDP1    7,,PR0
        14 000205   100001 236100                    LDQ     1,,PR1
        14 000206   200006 756100                    STQ     CURRENT_FATHER$,,AUTO
        14 000207   000213 710000 14                 TRA     s:13974

      127    13963
      128    13964    4          CASE(%BLOCK, %CONST, %DCB_, %PARA, %SECTION, %SEGMENT,

      129    13965    4               %SYMDEF_, %SYMREF_, %TEMP, %INTDEF);
      130    13966    4              EXIT VALID_ST;

  13966 14 000210   000445 710000 14                 TRA     s:14060

      131    13967
      132    13968    4          CASE(ELSE);

      133    13969
      134    13970    4            CURRENT_FATHER$ = ADDR(NIL);

  13970 14 000211   000004 236000 15                 LDQ     4
        14 000212   200006 756100                    STQ     CURRENT_FATHER$,,AUTO

      135    13971    4        END;
PL6.E3A0      #001=Z8CO$QUALIFY_VARIABLE File=Z8CO.:Z8A6TSI                      SAT 08/09/97 10:54 Page:23

      136    13972
      137    13973
      138    13974    4        DO WHILE (CURRENT_FATHER$ ~= ADDR(NIL) AND

  13974 14 000213   000231 710000 14                 TRA     s:13983

      139    13975    4                  LIST$ -> LX_TERMINAL.LINK ~= ADDR(NIL));
      140    13976
      141    13977    4          IF CURRENT_FATHER$ -> QLT.ST$ -> SCALAR.DNT$ -> DNT.ST$

  13977 14 000214   200006 470500                    LDP0    CURRENT_FATHER$,,AUTO
        14 000215   000004 471500                    LDP1    4,,PR0
        14 000216   100006 473500                    LDP3    6,,PR1
        14 000217   200005 474500                    LDP4    LIST$,,AUTO
        14 000220   400007 475500                    LDP5    7,,PR4
        14 000221   500002 476500                    LDP6    2,,PR5
        14 000222   300001 236100                    LDQ     1,,PR3
        14 000223   600001 116100                    CMPQ    1,,PR6
        14 000224   000227 601000 14                 TNZ     s:13981

      142    13978    4             = LIST$ -> LX_TERMINAL.LINK -> LX_ITEM.DNT$ -> DNT.ST$ THEN
      143    13979    4            LIST$ = LIST$ -> LX_TERMINAL.LINK;

  13979 14 000225   400007 236100                    LDQ     7,,PR4
        14 000226   200005 756100                    STQ     LIST$,,AUTO

      144    13980
      145    13981    4          CURRENT_FATHER$ = CURRENT_FATHER$ -> QLT.FATHER;

  13981 14 000227   000001 236100                    LDQ     1,,PR0
        14 000230   200006 756100                    STQ     CURRENT_FATHER$,,AUTO

      146    13982
      147    13983    4        END; /* While -- current_father$ ~= nil and list$->lx_item.next ~= nil */

  13983 14 000231   000004 116000 15                 CMPQ    4
PL6.E3A0      #001=Z8CO$QUALIFY_VARIABLE File=Z8CO.:Z8A6TSI                      SAT 08/09/97 10:54 Page:24
        14 000232   000237 600000 14                 TZE     s:13985
        14 000233   200005 470500                    LDP0    LIST$,,AUTO
        14 000234   000007 236100                    LDQ     7,,PR0
        14 000235   000004 116000 15                 CMPQ    4
        14 000236   000214 601000 14                 TNZ     s:13977

      148    13984
      149    13985    3        IF LIST$ = QUAL_ID$ -> LX_LIST.TAIL$ THEN

  13985 14 000237   200003 470500                    LDP0    @QUAL_ID$,,AUTO
        14 000240   000000 471500                    LDP1    0,,PR0
        14 000241   200005 236100                    LDQ     LIST$,,AUTO
        14 000242   100001 116100                    CMPQ    1,,PR1
        14 000243   000445 601000 14                 TNZ     s:14060

      150    13986    4          DO;

      151    13987    4            IF LOCAL_FOUND THEN

  13987 14 000244   200011 234100                    SZN     LOCAL_FOUND,,AUTO
        14 000245   000306 605000 14                 TPL     s:14004

      152    13988    4              IF CURRENT_ST$ -> VARIABLE.PROC$ = O1COM.CURRENT_PROC$ THEN

  13988 14 000246   200007 473500                    LDP3    CURRENT_ST$,,AUTO
        14 000247   300011 236100                    LDQ     9,,PR3
        14 000250   000057 116000 xsym               CMPQ    O1COM+47
        14 000251   000305 601000 14                 TNZ     s:14002

      153    13989    5                DO;

      154    13990    5                  IF NOT CURRENT_ST$ -> ST.DNT$ -> DNT.B.ERROR_VARIABLE THEN

  13990 14 000252   300006 474500                    LDP4    6,,PR3
        14 000253   400003 236100                    LDQ     3,,PR4
        14 000254   000100 316003                    CANQ    64,DU
        14 000255   000275 601000 14                 TNZ     s:13996
PL6.E3A0      #001=Z8CO$QUALIFY_VARIABLE File=Z8CO.:Z8A6TSI                      SAT 08/09/97 10:54 Page:25

      155    13991    5                    IF NOT NO_ERROR_FLAG THEN

  13991 14 000256   200013 234100                    SZN     NO_ERROR_FLAG,,AUTO
        14 000257   000275 604000 14                 TMI     s:13996

      156    13992    5                      CALL Z8AE$ERROR (%E$AMBIGUOUS_REFERENCE,

  13992 14 000260   100004 475500                    LDP5    4,,PR1
        14 000261   500002 636500                    EPPR6   2,,PR5
        14 000262   200023 456500                    STP6    DESC+7,,AUTO
        14 000263   500006 631500                    EPPR1   6,,PR5
        14 000264   200022 451500                    STP1    DESC+6,,AUTO
        14 000265   500005 634500                    EPPR4   5,,PR5
        14 000266   200021 454500                    STP4    DESC+5,,AUTO
        14 000267   000011 236000 15                 LDQ     9
        14 000270   200020 756100                    STQ     DESC+4,,AUTO
        14 000271   200020 630500                    EPPR0   DESC+4,,AUTO
        14 000272   000005 631400 15                 EPPR1   5
        14 000273   000000 701000 xent               TSX1    Z8AE$ERROR
        14 000274   000000 011000                    NOP     0

      157    13993    5                                       QUAL_ID$ -> LX_LIST.HEAD$ -> LX_TERMINAL.LINE,
      158    13994    5                                      QUAL_ID$ -> LX_LIST.HEAD$ -> LX_TERMINAL.COLUMN,
      159    13995    5                                       QUAL_ID$ -> LX_LIST.HEAD$ -> LX_TERMINAL.DNT$);
      160    13996    5                  ST$$ = QUAL_ID$ -> LX_LIST.HEAD$ -> LX_TERMINAL.DNT$ -> DNT.ST$;

  13996 14 000275   200003 470500                    LDP0    @QUAL_ID$,,AUTO
        14 000276   000000 471500                    LDP1    0,,PR0
        14 000277   100004 473500                    LDP3    4,,PR1
        14 000300   300002 474500                    LDP4    2,,PR3
        14 000301   400001 236100                    LDQ     1,,PR4
        14 000302   200004 475500                    LDP5    @ST$$,,AUTO
        14 000303   500000 756100                    STQ     0,,PR5

      161    13997    5                  ALTRETURN;

PL6.E3A0      #001=Z8CO$QUALIFY_VARIABLE File=Z8CO.:Z8A6TSI                      SAT 08/09/97 10:54 Page:26
  13997 14 000304   000000 702200 xent               TSX2  ! X66_AALT

      162    13998    5                END;
      163    13999    4              ELSE
      164    14000                     /* Since a local guy was already found and we are already
      165    14001                        in a previous proc, then we can exit. */
      166    14002    4                RETURN;

  14002 14 000305   000000 702200 xent               TSX2  ! X66_ARET

      167    14003    4            ELSE          /* A local guy has not been found yet */
      168    14004    4              IF GLOBAL_FOUND THEN

  14004 14 000306   200012 234100                    SZN     GLOBAL_FOUND,,AUTO
        14 000307   000352 605000 14                 TPL     s:14027

      169    14005    4                IF CURRENT_ST$ -> VARIABLE.PROC$ = ST$$ -> VARIABLE.PROC$ THEN

  14005 14 000310   200004 473500                    LDP3    @ST$$,,AUTO
        14 000311   300000 474500                    LDP4    0,,PR3
        14 000312   200007 475500                    LDP5    CURRENT_ST$,,AUTO
        14 000313   500011 236100                    LDQ     9,,PR5
        14 000314   400011 116100                    CMPQ    9,,PR4
        14 000315   000351 601000 14                 TNZ     s:14025

      170    14006    5                  DO;

      171    14007                         /* Since a GLOBAL item was already found, and
      172    14008                            its PROC$ is the same as this one,
      173    14009                            then it is ambiguous                          */
      174    14010    5                    IF NOT CURRENT_ST$ -> ST.DNT$ -> DNT.B.ERROR_VARIABLE THEN

  14010 14 000316   500006 476500                    LDP6    6,,PR5
        14 000317   600003 236100                    LDQ     3,,PR6
        14 000320   000100 316003                    CANQ    64,DU
        14 000321   000341 601000 14                 TNZ     s:14016

PL6.E3A0      #001=Z8CO$QUALIFY_VARIABLE File=Z8CO.:Z8A6TSI                      SAT 08/09/97 10:54 Page:27
      175    14011    5                      IF NOT NO_ERROR_FLAG THEN

  14011 14 000322   200013 234100                    SZN     NO_ERROR_FLAG,,AUTO
        14 000323   000341 604000 14                 TMI     s:14016

      176    14012    5                        CALL Z8AE$ERROR (%E$AMBIGUOUS_REFERENCE,

  14012 14 000324   100004 477500                    LDP7    4,,PR1
        14 000325   700002 630500                    EPPR0   2,,PR7
        14 000326   200023 450500                    STP0    DESC+7,,AUTO
        14 000327   700006 631500                    EPPR1   6,,PR7
        14 000330   200022 451500                    STP1    DESC+6,,AUTO
        14 000331   700005 634500                    EPPR4   5,,PR7
        14 000332   200021 454500                    STP4    DESC+5,,AUTO
        14 000333   000011 236000 15                 LDQ     9
        14 000334   200020 756100                    STQ     DESC+4,,AUTO
        14 000335   200020 630500                    EPPR0   DESC+4,,AUTO
        14 000336   000005 631400 15                 EPPR1   5
        14 000337   000000 701000 xent               TSX1    Z8AE$ERROR
        14 000340   000000 011000                    NOP     0

      177    14013    5                                        QUAL_ID$ -> LX_LIST.HEAD$ -> LX_TERMINAL.LINE,
      178    14014    5                                         QUAL_ID$ -> LX_LIST.HEAD$ -> LX_TERMINAL.
             14014                                                  COLUMN,
      179    14015    5                                        QUAL_ID$ -> LX_LIST.HEAD$ -> LX_TERMINAL.DNT$)
             14015                                                  ;
      180    14016    5                    ST$$ = QUAL_ID$ -> LX_LIST.HEAD$ -> LX_TERMINAL.DNT$ -> DNT.ST$;

  14016 14 000341   200003 470500                    LDP0    @QUAL_ID$,,AUTO
        14 000342   000000 471500                    LDP1    0,,PR0
        14 000343   100004 473500                    LDP3    4,,PR1
        14 000344   300002 474500                    LDP4    2,,PR3
        14 000345   400001 236100                    LDQ     1,,PR4
        14 000346   200004 475500                    LDP5    @ST$$,,AUTO
        14 000347   500000 756100                    STQ     0,,PR5

      181    14017    5                    ALTRETURN;
PL6.E3A0      #001=Z8CO$QUALIFY_VARIABLE File=Z8CO.:Z8A6TSI                      SAT 08/09/97 10:54 Page:28

  14017 14 000350   000000 702200 xent               TSX2  ! X66_AALT

      182    14018    5                  END;
      183    14019    4                ELSE
      184    14020                       /* Since we have already found a GLOBAL item,
      185    14021                          and the item we just found has a different
      186    14022                          PROC$, it must have been created before the
      187    14023                          one we have.  With these rules, we can therefore
      188    14024                          rule out any ambiguities                        */
      189    14025    4                  RETURN;

  14025 14 000351   000000 702200 xent               TSX2  ! X66_ARET

      190    14026    4              ELSE        /* A global item has not been found yet */
      191    14027    4                IF CURRENT_ST$ -> VARIABLE.PROC$ = O1COM.CURRENT_PROC$ THEN

  14027 14 000352   200007 473500                    LDP3    CURRENT_ST$,,AUTO
        14 000353   300011 236100                    LDQ     9,,PR3
        14 000354   000057 116000 xsym               CMPQ    O1COM+47
        14 000355   000364 601000 14                 TNZ     s:14033

      192    14028    5                  DO;

      193    14029    5                    LOCAL_FOUND = TRUE;

  14029 14 000356   400000 236003                    LDQ     -131072,DU
        14 000357   200011 756100                    STQ     LOCAL_FOUND,,AUTO

      194    14030    5                    ST$$ = CURRENT_ST$;

  14030 14 000360   200007 236100                    LDQ     CURRENT_ST$,,AUTO
        14 000361   200004 474500                    LDP4    @ST$$,,AUTO
        14 000362   400000 756100                    STQ     0,,PR4

      195    14031    5                  END;

PL6.E3A0      #001=Z8CO$QUALIFY_VARIABLE File=Z8CO.:Z8A6TSI                      SAT 08/09/97 10:54 Page:29
  14031 14 000363   000445 710000 14                 TRA     s:14060

      196    14032    4                ELSE
      197    14033    5                  DO CASE (CURRENT_ST$ -> ST.ID);

  14033 14 000364   300000 236100                    LDQ     0,,PR3
        14 000365   000022 772000                    QRL     18
        14 000366   000752 136007                    SBLQ    490,DL
        14 000367   000034 116007                    CMPQ    28,DL
        14 000370   000372 602006 14                 TNC     s:14033+6,QL
        14 000371   000445 710000 14                 TRA     s:14060
        14 000372   000434 710000 14                 TRA     s:14047
        14 000373   000434 710000 14                 TRA     s:14047
        14 000374   000434 710000 14                 TRA     s:14047
        14 000375   000434 710000 14                 TRA     s:14047
        14 000376   000445 710000 14                 TRA     s:14060
        14 000377   000434 710000 14                 TRA     s:14047
        14 000400   000445 710000 14                 TRA     s:14060
        14 000401   000434 710000 14                 TRA     s:14047
        14 000402   000434 710000 14                 TRA     s:14047
        14 000403   000434 710000 14                 TRA     s:14047
        14 000404   000437 710000 14                 TRA     s:14050
        14 000405   000426 710000 14                 TRA     s:14042
        14 000406   000426 710000 14                 TRA     s:14042
        14 000407   000445 710000 14                 TRA     s:14060
        14 000410   000445 710000 14                 TRA     s:14060
        14 000411   000445 710000 14                 TRA     s:14060
        14 000412   000445 710000 14                 TRA     s:14060
        14 000413   000445 710000 14                 TRA     s:14060
        14 000414   000445 710000 14                 TRA     s:14060
        14 000415   000445 710000 14                 TRA     s:14060
        14 000416   000445 710000 14                 TRA     s:14060
        14 000417   000445 710000 14                 TRA     s:14060
        14 000420   000445 710000 14                 TRA     s:14060
        14 000421   000434 710000 14                 TRA     s:14047
        14 000422   000426 710000 14                 TRA     s:14042
        14 000423   000426 710000 14                 TRA     s:14042
PL6.E3A0      #001=Z8CO$QUALIFY_VARIABLE File=Z8CO.:Z8A6TSI                      SAT 08/09/97 10:54 Page:30
        14 000424   000445 710000 14                 TRA     s:14060
        14 000425   000426 710000 14                 TRA     s:14042

      198    14034
      199    14035    5                    CASE (%SCALAR, %ARRAY,

      200    14036                               %SET_OF_FILE_DESCRIPTIONS;
      201    14041    5                          );
      202    14042    5                      IF CURRENT_ST$ -> VARIABLE.B.GLOBAL THEN

  14042 14 000426   300003 236100                    LDQ     3,,PR3
        14 000427   000010 316003                    CANQ    8,DU
        14 000430   000445 600000 14                 TZE     s:14060

      203    14043    5                        CALL GLOBAL_FATHER ;

  14043 14 000431   000040 701000 14                 TSX1    GLOBAL_FATHER
        14 000432   000000 011000                    NOP     0
        14 000433   000445 710000 14                 TRA     s:14060

      204    14044
      205    14045    5                    CASE (%CLASS, %ALPHABET, %MNEMONIC, %SWITCH,

      206    14046    5                          %REALM, %DML_SET, %DML_KEY, %PRIVACY_KEY, %SYM_CHAR);
      207    14047    5                      CALL GLOBAL_FATHER;

  14047 14 000434   000040 701000 14                 TSX1    GLOBAL_FATHER
        14 000435   000000 011000                    NOP     0
        14 000436   000445 710000 14                 TRA     s:14060

      208    14048
      209    14049    5                    CASE (%CONDITION);

      210    14050    5                      IF CURRENT_ST$ -> CONDITION.B.GLOBAL THEN

  14050 14 000437   300003 236100                    LDQ     3,,PR3
        14 000440   100000 316003                    CANQ    32768,DU
PL6.E3A0      #001=Z8CO$QUALIFY_VARIABLE File=Z8CO.:Z8A6TSI                      SAT 08/09/97 10:54 Page:31
        14 000441   000445 600000 14                 TZE     s:14060

      211    14051    5                        CALL GLOBAL_FATHER;

  14051 14 000442   000040 701000 14                 TSX1    GLOBAL_FATHER
        14 000443   000000 011000                    NOP     0
        14 000444   000445 710000 14                 TRA     s:14060

      212    14052
      213    14053    5                    CASE (ELSE);

      214    14054    5                      /* Do nothing */;
      215    14055
      216    14056    5                  END; /* CASE */

      217    14057    4          END;

      218    14058    3      END VALID_ST;

      219    14059
      220    14060    2        LIST$ = QUAL_ID$ -> LX_LIST.HEAD$;

  14060 14 000445   200003 470500                    LDP0    @QUAL_ID$,,AUTO
        14 000446   000000 471500                    LDP1    0,,PR0
        14 000447   100004 236100                    LDQ     4,,PR1
        14 000450   200005 756100                    STQ     LIST$,,AUTO

      221    14061    2        CURRENT_ST$ = CURRENT_ST$ -> SCALAR.NEXT;

  14061 14 000451   200007 473500                    LDP3    CURRENT_ST$,,AUTO
        14 000452   300004 236100                    LDQ     4,,PR3
        14 000453   200007 756100                    STQ     CURRENT_ST$,,AUTO

      222    14062    2    END; /* Until -- current_st$ = addr(nil) */

  14062 14 000454   000004 116000 15                 CMPQ    4
        14 000455   000135 601000 14                 TNZ     VALID_ST
PL6.E3A0      #001=Z8CO$QUALIFY_VARIABLE File=Z8CO.:Z8A6TSI                      SAT 08/09/97 10:54 Page:32

      223    14063
      224    14064    1    IF  (NOT LOCAL_FOUND)

  14064 14 000456   200011 234100                    SZN     LOCAL_FOUND,,AUTO
        14 000457   000512 604000 14                 TMI     s:14108
        14 000460   200012 234100                    SZN     GLOBAL_FOUND,,AUTO
        14 000461   000512 604000 14                 TMI     s:14108

      225    14065    1    AND (NOT GLOBAL_FOUND) THEN
      226    14066    2      DO;

      227    14067             %CONDITIONAL_ERROR (@LX_ITEM$ = QUAL_ID$ -> LX_LIST.HEAD$,
      228    14068                      @ERROR# = %E$DATA_NAME_QUAL_ERROR,
      229    14069                      @LINE   = QUAL_ID$ -> LX_LIST.HEAD$ -> LX_TERMINAL.LINE,
      230    14070                      @COLUMN = QUAL_ID$ -> LX_LIST.HEAD$ -> LX_TERMINAL.COLUMN,
      231    14071                      @PLUG1  = QUAL_ID$ -> LX_LIST.HEAD$ -> LX_TERMINAL.DNT$);

  14081 14 000462   100004 473500                    LDP3    4,,PR1
        14 000463   300000 236100                    LDQ     0,,PR3
        14 000464   400000 316007                    CANQ    -131072,DL
        14 000465   000507 601000 14                 TNZ     s:14102

  14083 14 000466   300002 634500                    EPPR4   2,,PR3
        14 000467   200023 454500                    STP4    DESC+7,,AUTO
        14 000470   300006 631500                    EPPR1   6,,PR3
        14 000471   200022 451500                    STP1    DESC+6,,AUTO
        14 000472   300005 635500                    EPPR5   5,,PR3
        14 000473   200021 455500                    STP5    DESC+5,,AUTO
        14 000474   000013 236000 15                 LDQ     11
        14 000475   200020 756100                    STQ     DESC+4,,AUTO
        14 000476   200020 630500                    EPPR0   DESC+4,,AUTO
        14 000477   000005 631400 15                 EPPR1   5
        14 000500   000000 701000 xent               TSX1    Z8AE$ERROR
        14 000501   000000 011000                    NOP     0

  14092 14 000502   200003 470500                    LDP0    @QUAL_ID$,,AUTO
PL6.E3A0      #001=Z8CO$QUALIFY_VARIABLE File=Z8CO.:Z8A6TSI                      SAT 08/09/97 10:54 Page:33
        14 000503   000000 471500                    LDP1    0,,PR0
        14 000504   100004 473500                    LDP3    4,,PR1
        14 000505   400000 236007                    LDQ     -131072,DL
        14 000506   300000 256100                    ORSQ    0,,PR3

      232    14101
      233    14102    2        CALL RECOVERY;

  14102 14 000507   000003 701000 14                 TSX1    RECOVERY
        14 000510   000000 011000                    NOP     0

      234    14103
      235    14104    2        ALTRETURN;

  14104 14 000511   000000 702200 xent               TSX2  ! X66_AALT

      236    14105    2      END;
      237    14106
      238    14107
      239    14108    1   END Z8CO$QUALIFY_VARIABLE;

  14108 14 000512   000000 702200 xent               TSX2  ! X66_ARET
      240    14109        %EOD;

PL6.E3A0      #001=Z8CO$QUALIFY_VARIABLE File=Z8CO.:Z8A6TSI                      SAT 08/09/97 10:54 Page:34
--  Include file information  --

   Z8E_NEW_ILL.:Z8A6TOU  is referenced.
   Z8E_MACROS.:Z8A6TOU  cannot be made into a system file and is referenced.
   Z8E_WINDOW.:Z8A6TOU  is referenced.
   Z8E_O1COM.:Z8A6TOU  cannot be made into a system file and is referenced.
   Z8A_LEX_SYMB.:Z8A6TOU  cannot be made into a system file and is referenced.
   Z8E_STACKS.:Z8A6TOU  cannot be made into a system file and is referenced.
   Z8A_DNT.:Z8A6TOU  cannot be made into a system file and is referenced.
   Z8A_QLT.:Z8A6TOU  cannot be made into a system file and is referenced.
   Z8A_TYPES.:Z8A6TOU  is referenced.
   Z8A_ST.:Z8A6TOU  cannot be made into a system file and is referenced.
   Z8A_ERR_NUMS.:Z8A6TOU  is referenced.
   Z8A_COMCOM.:Z8A6TOU  cannot be made into a system file and is referenced.
   X8A_COM_MACS.:X8A6TOU  is referenced.
   Z8A_NAMES.:Z8A6TOU  is referenced.
   Z8A_SUPP_MAC.:Z8A6TOU  is referenced.
   Z8A_DEFC.:Z8A6TOU  cannot be made into a system file and is referenced.
      No diagnostics issued in procedure Z8CO$QUALIFY_VARIABLE.
PL6.E3A0      #001=Z8CO$QUALIFY_VARIABLE File=Z8CO.:Z8A6TSI                      SAT 08/09/97 10:54 Page:35

 **** Variables and constants ****

  ****  Section 000 LblCom ITERATION

  ****  Scalars and arrays  ****
OctLoc.c.b A Datatyp(siz) R M Lvl/name                 OctLoc.c.b A Datatyp(siz) R M Lvl/name

     0-0-0/w SBIN              1 ITERATION

  ****  Section 001 LblCom ST$

  ****  Scalars and arrays  ****
OctLoc.c.b A Datatyp(siz) R M Lvl/name                 OctLoc.c.b A Datatyp(siz) R M Lvl/name

     0-0-0/w PTR         r     1 ST$

  ****  Section 002 LblCom ST_

  ****  Scalars and arrays  ****
OctLoc.c.b A Datatyp(siz) R M Lvl/name                 OctLoc.c.b A Datatyp(siz) R M Lvl/name

     0-0-0/w STRC(180)         1 ST_

  ****  Section 003 LblCom QLT$

  ****  Scalars and arrays  ****
OctLoc.c.b A Datatyp(siz) R M Lvl/name                 OctLoc.c.b A Datatyp(siz) R M Lvl/name

     0-0-0/w PTR         r     1 QLT$

  ****  Section 004 LblCom PREV_01_QLT$

  ****  Scalars and arrays  ****
OctLoc.c.b A Datatyp(siz) R M Lvl/name                 OctLoc.c.b A Datatyp(siz) R M Lvl/name

     0-0-0/w PTR               1 PREV_01_QLT$

PL6.E3A0      #001=Z8CO$QUALIFY_VARIABLE File=Z8CO.:Z8A6TSI                      SAT 08/09/97 10:54 Page:36
  ****  Section 005 LblCom QLT_

  ****  Scalars and arrays  ****
OctLoc.c.b A Datatyp(siz) R M Lvl/name                 OctLoc.c.b A Datatyp(siz) R M Lvl/name

     0-0-0/w STRC(180)         1 QLT_

  ****  Section 006 LblCom DNT$

  ****  Scalars and arrays  ****
OctLoc.c.b A Datatyp(siz) R M Lvl/name                 OctLoc.c.b A Datatyp(siz) R M Lvl/name

     0-0-0/w PTR         r     1 DNT$

  ****  Section 007 LblCom DNT_

  ****  Scalars and arrays  ****
OctLoc.c.b A Datatyp(siz) R M Lvl/name                 OctLoc.c.b A Datatyp(siz) R M Lvl/name

     0-0-0/w STRC(180)         1 DNT_

  ****  Section 008 LblCom DNT_BUCKET_NUMBER

  ****  Scalars and arrays  ****
OctLoc.c.b A Datatyp(siz) R M Lvl/name                 OctLoc.c.b A Datatyp(siz) R M Lvl/name

     0-0-0/w UBIN              1 DNT_BUCKET_NUMBER

  ****  Section 009 LblCom DNT_OF_1$

  ****  Scalars and arrays  ****
OctLoc.c.b A Datatyp(siz) R M Lvl/name                 OctLoc.c.b A Datatyp(siz) R M Lvl/name

     0-0-0/w PTR               1 DNT_OF_1$

  ****  Section 010 LblCom LEX_SYMBOL

PL6.E3A0      #001=Z8CO$QUALIFY_VARIABLE File=Z8CO.:Z8A6TSI                      SAT 08/09/97 10:54 Page:37
  ****  Scalars and arrays  ****
OctLoc.c.b A Datatyp(siz) R M Lvl/name                 OctLoc.c.b A Datatyp(siz) R M Lvl/name

     0-0-0/w STRC(3240)  r     1 LEX_SYMBOL                 0-0-0/w STRC(3240)        1 LEX_SYMBOL_WORDS

  ****  Section 011 LblCom CURRENT_LEX_SYMBOL$

  ****  Scalars and arrays  ****
OctLoc.c.b A Datatyp(siz) R M Lvl/name                 OctLoc.c.b A Datatyp(siz) R M Lvl/name

     0-0-0/w PTR         r     1 CURRENT_LEX_SYMBOL$

  ****  Section 012 LblCom TEMP_LEX_SYMBOL

  ****  Scalars and arrays  ****
OctLoc.c.b A Datatyp(siz) R M Lvl/name                 OctLoc.c.b A Datatyp(siz) R M Lvl/name

     0-0-0/w STRC(3240)        1 TEMP_LEX_SYMBOL

  ****  Section 013 LblCom TEMP_LEX_SYMBOL2

  ****  Scalars and arrays  ****
OctLoc.c.b A Datatyp(siz) R M Lvl/name                 OctLoc.c.b A Datatyp(siz) R M Lvl/name

     0-0-0/w STRC(3240)        1 TEMP_LEX_SYMBOL2

  ****  Auto variables  ****

  ****  Scalars and arrays  ****
OctLoc.c.b A Datatyp(siz) R M Lvl/name                 OctLoc.c.b A Datatyp(siz) R M Lvl/name

     3-0-0/w PTR         r     1 @QUAL_ID$                  4-0-0/w PTR         r     1 @ST$$
     6-0-0/w PTR         r     1 CURRENT_FATHER$            7-0-0/w PTR         r     1 CURRENT_ST$
    14-0-0/w STRC        r     1 DESC                      12-0-0/w BIT         r     1 GLOBAL_FOUND
     5-0-0/w PTR         r     1 LIST$                     11-0-0/w BIT         r     1 LOCAL_FOUND
    13-0-0/b BIT         r     1 NO_ERROR_FLAG             10-0-0/w PTR         r     1 P$
    *0-0-0/w PTR         r     1 QUAL_ID$                  *0-0-0/w PTR         r     1 ST$$
PL6.E3A0      #001=Z8CO$QUALIFY_VARIABLE File=Z8CO.:Z8A6TSI                      SAT 08/09/97 10:54 Page:38

  ****  SYMREF variables  ****

  ****  Scalars and arrays  ****
OctLoc.c.b A Datatyp(siz) R M Lvl/name                 OctLoc.c.b A Datatyp(siz) R M Lvl/name

     0-0-0/d STRC(13248)       1 COMCOM
     0-0-0/w STRC(180)         1 HIER_STK(0:50)
     0-0-0/w SBIN              1 HIER_STK_PTR               0-0-0/d STRC(11580) r     1 O1COM
     0-0-0/w STRC(144)         1 PAGE_FORMAT                0-0-0/w STRC(153)         1 REP_STK(0:50)
     0-0-0/w SBIN              1 REP_STK_PTR

  ****  BASED and DCB variables  ****

  ****  Scalars and arrays  ****
OctLoc.c.b A Datatyp(siz) R M Lvl/name                 OctLoc.c.b A Datatyp(siz) R M Lvl/name

     0-0-0/w STRC(288)         1 ADD_STMT                   0-0-0/w STRC(396)         1 ALPHABET
     0-0-0/w STRC(396)         1 ARRAY                      0-0-0/w ASTR(324)   r     1 BASED_LEX_SYMBOL
     0-0-0/w STRC(360)         1 BASED_LEX_SYMBOL_WORDS
     0-0-0/w STRC(288)         1 BINARY_OP                  0-0-0/w STRC(396)         1 BLOCK
     0-0-0/w STRC(288)         1 CALL_STMT                  0-0-0/w STRC(396)         1 CD
     0-0-0/w CHAR(4096)        1 CHARS                      0-0-0/w STRC(396)         1 CLASS
     0-0-0/w STRC(288)         1 COMPUTE_STMT               0-0-0/w STRC(396)   r     1 CONDITION
     0-0-0/w STRC(396)         1 CONST                      0-0-0/w STRC(72)          1 CONT
     0-0-0/w STRC(396)         1 DB                         0-0-0/w STRC(396)         1 DCB_
     0-0-0/w STRC(288)         1 DEFERED_IDENTIFIER         0-0-0/w STRC(252)         1 DEFERED_ID_TREE
     0-0-0/w STRC(288)         1 DEFERED_QUAL_ID            0-0-0/w STRC(288)         1 DEFERED_SUM_CLAUSE
     0-0-0/w STRC(288)         1 DEFERED_SUM_CLAUSE_LIST
     0-0-0/w STRC(288)         1 DELETE_STMT                0-0-0/w STRC(288)         1 DIVIDE_STMT
     0-0-0/w STRC(396)         1 DML_ITEM                   0-0-0/w ASTR(180)   r     1 DNT
     0-0-0/w STRC(396)         1 FD                         0-0-0/w STRC(288)         1 ILS_LIST
     0-0-0/w STRC(288)         1 INSPECT_1_STMT             0-0-0/w STRC(288)         1 INSPECT_2_STMT
     0-0-0/w STRC(288)         1 INSPECT_4_STMT             0-0-0/w STRC(396)         1 INTDEF
     0-0-0/w STRC(396)         1 LABEL                      0-0-0/w STRC(288)         1 LA_ITEM
     0-0-0/w STRC(504)         1 LX_CD_INPUT                0-0-0/w STRC(324)         1 LX_CD_I_O
     0-0-0/w STRC(396)         1 LX_CD_OUTPUT               0-0-0/w STRC(288)         1 LX_ETT_ITEM
PL6.E3A0      #001=Z8CO$QUALIFY_VARIABLE File=Z8CO.:Z8A6TSI                      SAT 08/09/97 10:54 Page:39
     0-0-0/w STRC(288)   r     1 LX_ITEM                    0-0-0/w STRC(288)         1 LX_LARGE
     0-0-0/w STRC(288)   r     1 LX_LIST                    0-0-0/w STRC(1224)        1 LX_REC_DECL
     0-0-0/w STRC(864)         1 LX_REPORT_REC              0-0-0/w STRC(288)   r     1 LX_TERMINAL
     0-0-0/w STRC(396)         1 MNEMONIC                   0-0-0/w STRC(288)         1 MULTIPLY_STMT
     0-0-0/w STRC(36864)       1 PAGE                       0-0-0/w STRC(396)         1 PARA
     0-0-0/w STRC(396)   r     1 PROC_                      0-0-0/w STRC(396)         1 PROC_DEF
     0-0-0/w STRC(216)   r     1 QLT                        0-0-0/w STRC(396)         1 RD
     0-0-0/w STRC(288)         1 READ_STMT                  0-0-0/w STRC(288)         1 REWRITE_STMT
     0-0-0/w STRC(396)   r     1 SCALAR                     0-0-0/w STRC(396)         1 SD
     0-0-0/w STRC(396)         1 SECTION                    0-0-0/w STRC(396)         1 SEGMENT
     0-0-0/w STRC(396)   r     1 ST                         0-0-0/w STRC(288)         1 START_STMT
     0-0-0/w STRC(252)         1 STRING_STMT                0-0-0/w STRC(288)         1 SUBTRACT_STMT
     0-0-0/w STRC(396)   r     1 SWITCH                     0-0-0/w STRC(396)         1 SYMBOLIC_CHAR
     0-0-0/w STRC(396)         1 SYMDEF_                    0-0-0/w STRC(396)         1 SYMREF_
     0-0-0/w STRC(396)         1 TEMP                       0-0-0/w STRC(288)         1 UNARY_OP
     0-0-0/w STRC(288)         1 UNSTRING_STMT              0-0-0/w STRC(396)   r     1 VARIABLE
     0-0-0/w STRC(288)         1 WRITE_STMT


   Procedure Z8CO$QUALIFY_VARIABLE requires 331 words for executable code.
   Procedure Z8CO$QUALIFY_VARIABLE requires 20 words of local(AUTO) storage.

PL6.E3A0      #002=Z8CO$DECLARE_SCALAR File=Z8CO.:Z8A6TSI                        SAT 08/09/97 10:57 Page:40
      241        1        /*T***********************************************************/
      242        2        /*T*                                                         */
      243        3        /*T* Copyright (c) Bull HN Information Systems Inc., 1997    */
      244        4        /*T*                                                         */
      245        5        /*T***********************************************************/
      246        6        Z8CO$DECLARE_SCALAR: PROC (DNT$$, TYPE, RETURN$);
      247        7
      248        8        %EQU PHASE = 1;
      249        9
      250       10        %INCLUDE Z8A_DEFC;
      251       78        %INCLUDE Z8A_SUPP_MAC;
      252     2478        %INCLUDE Z8A_COMCOM;
      253     3128        %INCLUDE Z8A_QLT;
      254     3234        %INCLUDE Z8A_ST;
      255     6893        %INCLUDE Z8A_LTS;
      256     8970        %INCLUDE Z8A_DNT;
      257     9191        %INCLUDE Z8A_TYPES;
      258     9365        %INCLUDE Z8E_STACKS;
      259    11631        %INCLUDE Z8E_O1COM;
      260    12392
      261    12393    1   DCL DNT$$                     PTR;
      262    12394    1   DCL TYPE                      SBIN WORD;
      263    12395    1   DCL RETURN$                   PTR;
      264    12396
      265    12397    1   DCL NEW_QLT$                  PTR;
      266    12398
      267    12399           %NEW_SCALAR (@ST$      = RETURN$,
      268    12400                        @DNT$     = DNT$$,
      269    12401                        @NEXT     = DNT$$ -> DNT.ST$,
      270    12402                        @TYPE     = TYPE,
      271    12403                        @ELEMENTARY = TRUE);
      272    12603
      273    12604           %NEW_QLT    (@POINTER  = NEW_QLT$,
      274    12605                        @DNT$     = DNT$$,
      275    12606                        @ST$      = RETURN$,
      276    12607                        @LEVEL#   = 01);
      277    12632
PL6.E3A0      #002=Z8CO$DECLARE_SCALAR File=Z8CO.:Z8A6TSI                        SAT 08/09/97 10:57 Page:41
      278    12633    1      RETURN$ -> SCALAR.QLT$ = NEW_QLT$;
      279    12634
      280    12635    1      IF COMCOM.PREV_QLT$ ~= ADDR(NIL) THEN
      281    12636    1        COMCOM.PREV_QLT$ -> QLT.BROTHER = NEW_QLT$;
      282    12637
      283    12638    1      COMCOM.PREV_QLT$ = NEW_QLT$;
      284    12639
      285    12640    1      DNT$$ -> DNT.ST$ = RETURN$;
      286    12641
      287    12642    1   END Z8CO$DECLARE_SCALAR;
      288    12643        %EOD;

PL6.E3A0      #002=Z8CO$DECLARE_SCALAR File=Z8CO.:Z8A6TSI                        SAT 08/09/97 10:57 Page:42
--  Include file information  --

   Z8E_O1COM.:Z8A6TOU  cannot be made into a system file and is referenced.
   Z8A_LEX_SYMB.:Z8A6TOU  cannot be made into a system file and is referenced.
   Z8E_STACKS.:Z8A6TOU  cannot be made into a system file and is referenced.
   Z8A_TYPES.:Z8A6TOU  is referenced.
   Z8A_DNT.:Z8A6TOU  cannot be made into a system file and is referenced.
   Z8A_LTS.:Z8A6TOU  cannot be made into a system file and is referenced.
   Z8A_ST.:Z8A6TOU  cannot be made into a system file and is referenced.
   Z8A_QLT.:Z8A6TOU  cannot be made into a system file and is referenced.
   Z8A_COMCOM.:Z8A6TOU  cannot be made into a system file and is referenced.
   X8A_COM_MACS.:X8A6TOU  is referenced.
   Z8A_NAMES.:Z8A6TOU  is referenced.
   Z8A_SUPP_MAC.:Z8A6TOU  is referenced.
   Z8A_DEFC.:Z8A6TOU  cannot be made into a system file and is referenced.
      No diagnostics issued in procedure Z8CO$DECLARE_SCALAR.

   Procedure Z8CO$DECLARE_SCALAR requires 151 words for executable code.
   Procedure Z8CO$DECLARE_SCALAR requires 10 words of local(AUTO) storage.

PL6.E3A0      #002=Z8CO$DECLARE_SCALAR File=Z8CO.:Z8A6TSI                        SAT 08/09/97 10:57 Page:43

 Object Unit name= Z8CO$DECLARE_SCALAR                        File name= Z8CO.:Z8A6TOU
 UTS= AUG 09 '97 10:57:57.64 SAT                              Compiler= PL-6/E31         Sev=      00
 SharedLib= :SHARED_SYSTEM                                    Alt SharedLib=


    ****  Control sections  ****

 Sect   Type Bound  Init  Size OctSiz  Section name(segment info)
    0  LblCom even  none     1      1  ITERATION
    1  LblCom even  none     1      1  QLT$
    2  LblCom even  none     1      1  PREV_01_QLT$
    3  LblCom even  none     5      5  QLT_
    4  LblCom even  none     1      1  ST$
    5  LblCom even  none     5      5  ST_
    6  LblCom even  none     1      1  LTS$
    7  LblCom even  none     5      5  LTS_
    8  LblCom even  none     1      1  DNT$
    9  LblCom even  none     5      5  DNT_
   10  LblCom even  none     1      1  DNT_BUCKET_NUMBER
   11  LblCom even  none     1      1  DNT_OF_1$
   12  LblCom even  none    90    132  LEX_SYMBOL
   13  LblCom even  none     1      1  CURRENT_LEX_SYMBOL$
   14  LblCom even  none    90    132  TEMP_LEX_SYMBOL
   15  LblCom even  none    90    132  TEMP_LEX_SYMBOL2
   16   Proc  even  none   151    227  Z8CO$DECLARE_SCALAR
   17  RoData even  none     8     10  Z8CO$DECLARE_SCALAR

    ****  Entry defs  ****

                              Check   Calling
                             calling  sequence
  Sect OctLoc Primary Altret sequence   type   Parms  Name
    16      0   yes            yes      Std        3  Z8CO$DECLARE_SCALAR
PL6.E3A0      #002=Z8CO$DECLARE_SCALAR File=Z8CO.:Z8A6TSI                        SAT 08/09/97 10:57 Page:44

  ****  Entry refs  ****

         Check        Calling
        calling       sequence
Altret sequence SRef   type   Args  Name
         yes           Std       1 Z8AR$RESERVER
                       nStd      0 X66_AUTO_3
                       nStd      0 X66_ARET

  ****  Data refs  ****

  Flags:  r = read only, s = secondary
Flgs Name                             Flgs Name                             Flgs Name
     COMCOM                           r    LTS_STEP                              O1COM
     HIER_STK_PTR                          HIER_STK                              PAGE_FORMAT
     REP_STK_PTR                           REP_STK

  ****  Segment refs  ****

  Flags:  r = read only, s = secondary
Flgs Name                             Flgs Name                             Flgs Name
     NULLSID                               ISSID
PL6.E3A0      #002=Z8CO$DECLARE_SCALAR File=Z8CO.:Z8A6TSI                        SAT 08/09/97 10:57 Page:45


      241        1        /*T***********************************************************/
      242        2        /*T*                                                         */
      243        3        /*T* Copyright (c) Bull HN Information Systems Inc., 1997    */
      244        4        /*T*                                                         */
      245        5        /*T***********************************************************/
      246        6        Z8CO$DECLARE_SCALAR: PROC (DNT$$, TYPE, RETURN$);

      6 16 000000   000000 700200 xent  Z8CO$DECLAR* TSX0  ! X66_AUTO_3
        16 000001   000012 000003                    ZERO    10,3

      247        7
      248        8        %EQU PHASE = 1;
      249        9
      250       10        %INCLUDE Z8A_DEFC;
      251       78        %INCLUDE Z8A_SUPP_MAC;
      252     2478        %INCLUDE Z8A_COMCOM;
      253     3128        %INCLUDE Z8A_QLT;
      254     3234        %INCLUDE Z8A_ST;
      255     6893        %INCLUDE Z8A_LTS;
      256     8970        %INCLUDE Z8A_DNT;
      257     9191        %INCLUDE Z8A_TYPES;
      258     9365        %INCLUDE Z8E_STACKS;
      259    11631        %INCLUDE Z8E_O1COM;
      260    12392
      261    12393    1   DCL DNT$$                     PTR;
      262    12394    1   DCL TYPE                      SBIN WORD;
      263    12395    1   DCL RETURN$                   PTR;
      264    12396
      265    12397    1   DCL NEW_QLT$                  PTR;
      266    12398
      267    12399           %NEW_SCALAR (@ST$      = RETURN$,
      268    12400                        @DNT$     = DNT$$,
      269    12401                        @NEXT     = DNT$$ -> DNT.ST$,
      270    12402                        @TYPE     = TYPE,
      271    12403                        @ELEMENTARY = TRUE);

PL6.E3A0      #002=Z8CO$DECLARE_SCALAR File=Z8CO.:Z8A6TSI                        SAT 08/09/97 10:57 Page:46
  12407 16 000002   000002 236000 5                  LDQ     ST_+2
        16 000003   000013 036007                    ADLQ    11,DL
        16 000004   000003 116000 5                  CMPQ    ST_+3
        16 000005   000016 604000 16                 TMI     s:12409

  12408 16 000006   000002 236000 17                 LDQ     2
        16 000007   200010 756100                    STQ     NEW_QLT$+2,,AUTO
        16 000010   200010 630500                    EPPR0   NEW_QLT$+2,,AUTO
        16 000011   200011 450500                    STP0    NEW_QLT$+3,,AUTO
        16 000012   200011 630500                    EPPR0   NEW_QLT$+3,,AUTO
        16 000013   000001 631400 17                 EPPR1   1
        16 000014   000000 701000 xent               TSX1    Z8AR$RESERVER
        16 000015   000000 011000                    NOP     0

  12409 16 000016   000002 236000 5                  LDQ     ST_+2
        16 000017   000022 736000                    QLS     18
        16 000020   000001 036000 5                  ADLQ    ST_+1
        16 000021   200005 470500                    LDP0    @RETURN$,,AUTO
        16 000022   000000 756100                    STQ     0,,PR0

  12410 16 000023   000013 236007                    LDQ     11,DL
        16 000024   000002 056000 5                  ASQ     ST_+2

  12458 16 000025   000000 471500                    LDP1    0,,PR0
        16 000026   000766 220003                    LDX0    502,DU
        16 000027   100000 740100                    STX0    0,,PR1

  12459 16 000030   000000 471500                    LDP1    0,,PR0
        16 000031   003000 236007                    LDQ     1536,DL
        16 000032   100000 552110                    STBQ    0,'10'O,PR1

  12460 16 000033   000000 471500                    LDP1    0,,PR0
        16 000034   000001 236007                    LDQ     1,DL
        16 000035   100000 552104                    STBQ    0,'04'O,PR1

  12461 16 000036   000000 471500                    LDP1    0,,PR0
        16 000037   000000 221003                    LDX1    0,DU
PL6.E3A0      #002=Z8CO$DECLARE_SCALAR File=Z8CO.:Z8A6TSI                        SAT 08/09/97 10:57 Page:47
        16 000040   100001 741100                    STX1    1,,PR1

  12462 16 000041   000000 471500                    LDP1    0,,PR0
        16 000042   100001 441100                    SXL1    1,,PR1

  12463 16 000043   000000 471500                    LDP1    0,,PR0
        16 000044   000133 722000 xsym               LXL2    COMCOM+91
        16 000045   100002 442100                    SXL2    2,,PR1

  12464 16 000046   000000 471500                    LDP1    0,,PR0
        16 000047   100003 450100                    STZ     3,,PR1

  12465 16 000050   000000 471500                    LDP1    0,,PR0
        16 000051   200003 473500                    LDP3    @DNT$$,,AUTO
        16 000052   300000 474500                    LDP4    0,,PR3
        16 000053   400001 236100                    LDQ     1,,PR4
        16 000054   100004 756100                    STQ     4,,PR1

  12466 16 000055   000000 471500                    LDP1    0,,PR0
        16 000056   000000 236000 17                 LDQ     0
        16 000057   100005 756100                    STQ     5,,PR1

  12467 16 000060   000000 471500                    LDP1    0,,PR0
        16 000061   100007 756100                    STQ     7,,PR1

  12468 16 000062   000000 471500                    LDP1    0,,PR0
        16 000063   100010 741100                    STX1    8,,PR1

  12469 16 000064   000000 471500                    LDP1    0,,PR0
        16 000065   777777 222003                    LDX2    -1,DU
        16 000066   100010 442100                    SXL2    8,,PR1

  12473 16 000067   000000 471500                    LDP1    0,,PR0
        16 000070   100012 756100                    STQ     10,,PR1

  12476 16 000071   000000 471500                    LDP1    0,,PR0
        16 000072   000057 236000 xsym               LDQ     O1COM+47
PL6.E3A0      #002=Z8CO$DECLARE_SCALAR File=Z8CO.:Z8A6TSI                        SAT 08/09/97 10:57 Page:48
        16 000073   100011 756100                    STQ     9,,PR1

  12477 16 000074   000057 236000 xsym               LDQ     O1COM+47
        16 000075   000000 116000 17                 CMPQ    0
        16 000076   000122 600000 16                 TZE     s:12512

  12481 16 000077   000057 471400 xsym               LDP1    O1COM+47
        16 000100   100001 474500                    LDP4    1,,PR1
        16 000101   400012 236100                    LDQ     10,,PR4
        16 000102   000000 116000 17                 CMPQ    0
        16 000103   000113 601000 16                 TNZ     s:12488

  12483 16 000104   000000 236100                    LDQ     0,,PR0
        16 000105   400011 756100                    STQ     9,,PR4

  12484 16 000106   000057 471400 xsym               LDP1    O1COM+47
        16 000107   100001 474500                    LDP4    1,,PR1
        16 000110   000000 236100                    LDQ     0,,PR0
        16 000111   400012 756100                    STQ     10,,PR4

  12485 16 000112   000122 710000 16                 TRA     s:12512

  12488 16 000113   400012 475500                    LDP5    10,,PR4
        16 000114   000000 236100                    LDQ     0,,PR0
        16 000115   500012 756100                    STQ     10,,PR5

  12489 16 000116   000057 471400 xsym               LDP1    O1COM+47
        16 000117   100001 474500                    LDP4    1,,PR1
        16 000120   000000 236100                    LDQ     0,,PR0
        16 000121   400012 756100                    STQ     10,,PR4

  12512 16 000122   000000 471500                    LDP1    0,,PR0
        16 000123   200004 474500                    LDP4    @TYPE,,AUTO
        16 000124   400000 723100                    LXL3    0,,PR4
        16 000125   100002 743100                    STX3    2,,PR1

  12517 16 000126   000000 471500                    LDP1    0,,PR0
PL6.E3A0      #002=Z8CO$DECLARE_SCALAR File=Z8CO.:Z8A6TSI                        SAT 08/09/97 10:57 Page:49
        16 000127   300000 236100                    LDQ     0,,PR3
        16 000130   100006 756100                    STQ     6,,PR1

  12534 16 000131   000000 471500                    LDP1    0,,PR0
        16 000132   010000 236003                    LDQ     4096,DU
        16 000133   100003 256100                    ORSQ    3,,PR1

      272    12603
      273    12604           %NEW_QLT    (@POINTER  = NEW_QLT$,
      274    12605                        @DNT$     = DNT$$,
      275    12606                        @ST$      = RETURN$,
      276    12607                        @LEVEL#   = 01);

  12612 16 000134   000002 236000 3                  LDQ     QLT_+2
        16 000135   000006 036007                    ADLQ    6,DL
        16 000136   000003 116000 3                  CMPQ    QLT_+3
        16 000137   000150 602000 16                 TNC     s:12614

  12613 16 000140   000003 236000 17                 LDQ     3
        16 000141   200010 756100                    STQ     NEW_QLT$+2,,AUTO
        16 000142   200010 631500                    EPPR1   NEW_QLT$+2,,AUTO
        16 000143   200011 451500                    STP1    NEW_QLT$+3,,AUTO
        16 000144   200011 630500                    EPPR0   NEW_QLT$+3,,AUTO
        16 000145   000001 631400 17                 EPPR1   1
        16 000146   000000 701000 xent               TSX1    Z8AR$RESERVER
        16 000147   000000 011000                    NOP     0

  12614 16 000150   000002 236000 3                  LDQ     QLT_+2
        16 000151   000022 736000                    QLS     18
        16 000152   000001 036000 3                  ADLQ    QLT_+1
        16 000153   200006 756100                    STQ     NEW_QLT$,,AUTO

  12615 16 000154   000002 235000 3                  LDA     QLT_+2
        16 000155   000006 035007                    ADLA    6,DL
        16 000156   000002 755000 3                  STA     QLT_+2

  12616 16 000157   001053 220003                    LDX0    555,DU
PL6.E3A0      #002=Z8CO$DECLARE_SCALAR File=Z8CO.:Z8A6TSI                        SAT 08/09/97 10:57 Page:50
        16 000160   200006 470500                    LDP0    NEW_QLT$,,AUTO
        16 000161   000000 740100                    STX0    0,,PR0

  12619 16 000162   000000 236000 17                 LDQ     0
        16 000163   000001 756100                    STQ     1,,PR0

  12620 16 000164   000002 756100                    STQ     2,,PR0

  12621 16 000165   000003 756100                    STQ     3,,PR0

  12622 16 000166   200005 471500                    LDP1    @RETURN$,,AUTO
        16 000167   100000 236100                    LDQ     0,,PR1
        16 000170   000004 756100                    STQ     4,,PR0

  12623 16 000171   200003 473500                    LDP3    @DNT$$,,AUTO
        16 000172   300000 236100                    LDQ     0,,PR3
        16 000173   000005 756100                    STQ     5,,PR0

  12624 16 000174   000001 236007                    LDQ     1,DL
        16 000175   000000 552104                    STBQ    0,'04'O,PR0

  12625 16 000176   000000 236003                    LDQ     0,DU
        16 000177   000000 552110                    STBQ    0,'10'O,PR0

  12626 16 000200   000004 236000 17                 LDQ     4
        16 000201   000000 356100                    ANSQ    0,,PR0

  12627 16 000202   000005 236000 17                 LDQ     5
        16 000203   000000 356100                    ANSQ    0,,PR0

  12628 16 000204   000006 236000 17                 LDQ     6
        16 000205   000000 356100                    ANSQ    0,,PR0

  12629 16 000206   000007 236000 17                 LDQ     7
        16 000207   000000 356100                    ANSQ    0,,PR0

      277    12632
PL6.E3A0      #002=Z8CO$DECLARE_SCALAR File=Z8CO.:Z8A6TSI                        SAT 08/09/97 10:57 Page:51
      278    12633    1      RETURN$ -> SCALAR.QLT$ = NEW_QLT$;

  12633 16 000210   100000 474500                    LDP4    0,,PR1
        16 000211   200006 236100                    LDQ     NEW_QLT$,,AUTO
        16 000212   400007 756100                    STQ     7,,PR4

      279    12634
      280    12635    1      IF COMCOM.PREV_QLT$ ~= ADDR(NIL) THEN

  12635 16 000213   000424 236000 xsym               LDQ     COMCOM+276
        16 000214   000000 116000 17                 CMPQ    0
        16 000215   000221 600000 16                 TZE     s:12638

      281    12636    1        COMCOM.PREV_QLT$ -> QLT.BROTHER = NEW_QLT$;

  12636 16 000216   200006 236100                    LDQ     NEW_QLT$,,AUTO
        16 000217   000424 474400 xsym               LDP4    COMCOM+276
        16 000220   400002 756100                    STQ     2,,PR4

      282    12637
      283    12638    1      COMCOM.PREV_QLT$ = NEW_QLT$;

  12638 16 000221   200006 236100                    LDQ     NEW_QLT$,,AUTO
        16 000222   000424 756000 xsym               STQ     COMCOM+276

      284    12639
      285    12640    1      DNT$$ -> DNT.ST$ = RETURN$;

  12640 16 000223   300000 474500                    LDP4    0,,PR3
        16 000224   100000 236100                    LDQ     0,,PR1
        16 000225   400001 756100                    STQ     1,,PR4

      286    12641
      287    12642    1   END Z8CO$DECLARE_SCALAR;

  12642 16 000226   000000 702200 xent               TSX2  ! X66_ARET
      288    12643        %EOD;
PL6.E3A0      #002=Z8CO$DECLARE_SCALAR File=Z8CO.:Z8A6TSI                        SAT 08/09/97 10:57 Page:52

PL6.E3A0      #002=Z8CO$DECLARE_SCALAR File=Z8CO.:Z8A6TSI                        SAT 08/09/97 10:57 Page:53
--  Include file information  --

   Z8E_O1COM.:Z8A6TOU  cannot be made into a system file and is referenced.
   Z8A_LEX_SYMB.:Z8A6TOU  cannot be made into a system file and is referenced.
   Z8E_STACKS.:Z8A6TOU  cannot be made into a system file and is referenced.
   Z8A_TYPES.:Z8A6TOU  is referenced.
   Z8A_DNT.:Z8A6TOU  cannot be made into a system file and is referenced.
   Z8A_LTS.:Z8A6TOU  cannot be made into a system file and is referenced.
   Z8A_ST.:Z8A6TOU  cannot be made into a system file and is referenced.
   Z8A_QLT.:Z8A6TOU  cannot be made into a system file and is referenced.
   Z8A_COMCOM.:Z8A6TOU  cannot be made into a system file and is referenced.
   X8A_COM_MACS.:X8A6TOU  is referenced.
   Z8A_NAMES.:Z8A6TOU  is referenced.
   Z8A_SUPP_MAC.:Z8A6TOU  is referenced.
   Z8A_DEFC.:Z8A6TOU  cannot be made into a system file and is referenced.
      No diagnostics issued in procedure Z8CO$DECLARE_SCALAR.
PL6.E3A0      #002=Z8CO$DECLARE_SCALAR File=Z8CO.:Z8A6TSI                        SAT 08/09/97 10:57 Page:54

 **** Variables and constants ****

  ****  Section 000 LblCom ITERATION

  ****  Scalars and arrays  ****
OctLoc.c.b A Datatyp(siz) R M Lvl/name                 OctLoc.c.b A Datatyp(siz) R M Lvl/name

     0-0-0/w SBIN              1 ITERATION

  ****  Section 001 LblCom QLT$

  ****  Scalars and arrays  ****
OctLoc.c.b A Datatyp(siz) R M Lvl/name                 OctLoc.c.b A Datatyp(siz) R M Lvl/name

     0-0-0/w PTR         r     1 QLT$

  ****  Section 002 LblCom PREV_01_QLT$

  ****  Scalars and arrays  ****
OctLoc.c.b A Datatyp(siz) R M Lvl/name                 OctLoc.c.b A Datatyp(siz) R M Lvl/name

     0-0-0/w PTR               1 PREV_01_QLT$

  ****  Section 003 LblCom QLT_

  ****  Scalars and arrays  ****
OctLoc.c.b A Datatyp(siz) R M Lvl/name                 OctLoc.c.b A Datatyp(siz) R M Lvl/name

     0-0-0/w STRC(180)   r     1 QLT_

  ****  Section 004 LblCom ST$

  ****  Scalars and arrays  ****
OctLoc.c.b A Datatyp(siz) R M Lvl/name                 OctLoc.c.b A Datatyp(siz) R M Lvl/name

     0-0-0/w PTR         r     1 ST$

PL6.E3A0      #002=Z8CO$DECLARE_SCALAR File=Z8CO.:Z8A6TSI                        SAT 08/09/97 10:57 Page:55
  ****  Section 005 LblCom ST_

  ****  Scalars and arrays  ****
OctLoc.c.b A Datatyp(siz) R M Lvl/name                 OctLoc.c.b A Datatyp(siz) R M Lvl/name

     0-0-0/w STRC(180)   r     1 ST_

  ****  Section 006 LblCom LTS$

  ****  Scalars and arrays  ****
OctLoc.c.b A Datatyp(siz) R M Lvl/name                 OctLoc.c.b A Datatyp(siz) R M Lvl/name

     0-0-0/w PTR               1 LONG_ITEM$                 0-0-0/w PTR         r     1 LTS$

  ****  Section 007 LblCom LTS_

  ****  Scalars and arrays  ****
OctLoc.c.b A Datatyp(siz) R M Lvl/name                 OctLoc.c.b A Datatyp(siz) R M Lvl/name

     0-0-0/w STRC(180)         1 LTS_

  ****  Section 008 LblCom DNT$

  ****  Scalars and arrays  ****
OctLoc.c.b A Datatyp(siz) R M Lvl/name                 OctLoc.c.b A Datatyp(siz) R M Lvl/name

     0-0-0/w PTR         r     1 DNT$

  ****  Section 009 LblCom DNT_

  ****  Scalars and arrays  ****
OctLoc.c.b A Datatyp(siz) R M Lvl/name                 OctLoc.c.b A Datatyp(siz) R M Lvl/name

     0-0-0/w STRC(180)         1 DNT_

  ****  Section 010 LblCom DNT_BUCKET_NUMBER

PL6.E3A0      #002=Z8CO$DECLARE_SCALAR File=Z8CO.:Z8A6TSI                        SAT 08/09/97 10:57 Page:56
  ****  Scalars and arrays  ****
OctLoc.c.b A Datatyp(siz) R M Lvl/name                 OctLoc.c.b A Datatyp(siz) R M Lvl/name

     0-0-0/w UBIN              1 DNT_BUCKET_NUMBER

  ****  Section 011 LblCom DNT_OF_1$

  ****  Scalars and arrays  ****
OctLoc.c.b A Datatyp(siz) R M Lvl/name                 OctLoc.c.b A Datatyp(siz) R M Lvl/name

     0-0-0/w PTR               1 DNT_OF_1$

  ****  Section 012 LblCom LEX_SYMBOL

  ****  Scalars and arrays  ****
OctLoc.c.b A Datatyp(siz) R M Lvl/name                 OctLoc.c.b A Datatyp(siz) R M Lvl/name

     0-0-0/w STRC(3240)  r     1 LEX_SYMBOL                 0-0-0/w STRC(3240)        1 LEX_SYMBOL_WORDS

  ****  Section 013 LblCom CURRENT_LEX_SYMBOL$

  ****  Scalars and arrays  ****
OctLoc.c.b A Datatyp(siz) R M Lvl/name                 OctLoc.c.b A Datatyp(siz) R M Lvl/name

     0-0-0/w PTR         r     1 CURRENT_LEX_SYMBOL$

  ****  Section 014 LblCom TEMP_LEX_SYMBOL

  ****  Scalars and arrays  ****
OctLoc.c.b A Datatyp(siz) R M Lvl/name                 OctLoc.c.b A Datatyp(siz) R M Lvl/name

     0-0-0/w STRC(3240)        1 TEMP_LEX_SYMBOL

  ****  Section 015 LblCom TEMP_LEX_SYMBOL2

  ****  Scalars and arrays  ****
OctLoc.c.b A Datatyp(siz) R M Lvl/name                 OctLoc.c.b A Datatyp(siz) R M Lvl/name
PL6.E3A0      #002=Z8CO$DECLARE_SCALAR File=Z8CO.:Z8A6TSI                        SAT 08/09/97 10:57 Page:57

     0-0-0/w STRC(3240)        1 TEMP_LEX_SYMBOL2

  ****  Auto variables  ****

  ****  Scalars and arrays  ****
OctLoc.c.b A Datatyp(siz) R M Lvl/name                 OctLoc.c.b A Datatyp(siz) R M Lvl/name

     3-0-0/w PTR         r     1 @DNT$$                     5-0-0/w PTR         r     1 @RETURN$
     4-0-0/w PTR         r     1 @TYPE                     *0-0-0/w PTR         r     1 DNT$$
     6-0-0/w PTR         r     1 NEW_QLT$                  *0-0-0/w PTR         r     1 RETURN$
    *0-0-0/w SBIN        r     1 TYPE

  ****  SYMREF variables  ****

  ****  Scalars and arrays  ****
OctLoc.c.b A Datatyp(siz) R M Lvl/name                 OctLoc.c.b A Datatyp(siz) R M Lvl/name

     0-0-0/d STRC(13248) r     1 COMCOM
     0-0-0/w STRC(180)         1 HIER_STK(0:50)
     0-0-0/w SBIN              1 HIER_STK_PTR
     0-0-0/w UBIN              1 LTS_STEP(0:37)
     0-0-0/d STRC(11580) r     1 O1COM                      0-0-0/w STRC(144)         1 PAGE_FORMAT
     0-0-0/w STRC(153)         1 REP_STK(0:50)              0-0-0/w SBIN              1 REP_STK_PTR

  ****  BASED and DCB variables  ****

  ****  Scalars and arrays  ****
OctLoc.c.b A Datatyp(siz) R M Lvl/name                 OctLoc.c.b A Datatyp(siz) R M Lvl/name

     0-0-0/w STRC(288)         1 ADD_STMT                   0-0-0/w STRC(396)         1 ALPHABET
     0-0-0/w STRC(144)         1 ALTER_LTS                  0-0-0/w STRC(3672)        1 ALT_KEY
     0-0-0/w STRC(36864)       1 ARGLIST                    0-0-0/w STRC(396)         1 ARRAY
     0-0-0/w STRC(180)         1 ARRAY_PRESET_LTS           0-0-0/w ASTR(324)   r     1 BASED_LEX_SYMBOL
     0-0-0/w STRC(360)         1 BASED_LEX_SYMBOL_WORDS
     0-0-0/w STRC(288)         1 BASE_LTS                   0-0-0/w STRC(288)         1 BINARY_OP
     0-0-0/w STRC(396)         1 BLOCK                      0-0-0/w STRC(144)         1 BT
PL6.E3A0      #002=Z8CO$DECLARE_SCALAR File=Z8CO.:Z8A6TSI                        SAT 08/09/97 10:57 Page:58
     0-0-0/w STRC(288)         1 CALL_STMT                  0-0-0/w STRC(396)         1 CD
     0-0-0/w STRC(288)         1 CD_LTS                     0-0-0/w CHAR(4096)        1 CHARS
     0-0-0/w STRC(396)         1 CLASS                      0-0-0/w STRC(288)         1 COMPUTE_STMT
     0-0-0/w STRC(396)         1 CONDITION                  0-0-0/w STRC(396)         1 CONST
     0-0-0/w STRC(72)          1 CONT                       0-0-0/w STRC(540)         1 CONTROL_NAME_LTS
     0-0-0/w STRC(1872)        1 COPY_FILE                  0-0-0/w STRC(396)         1 DB
     0-0-0/w STRC(396)         1 DCB_                       0-0-0/w STRC(288)         1 DEFERED_IDENTIFIER
     0-0-0/w STRC(252)         1 DEFERED_ID_TREE            0-0-0/w STRC(288)         1 DEFERED_QUAL_ID
     0-0-0/w STRC(288)         1 DEFERED_SUM_CLAUSE
     0-0-0/w STRC(288)         1 DEFERED_SUM_CLAUSE_LIST
     0-0-0/w STRC(288)         1 DELETE_STMT                0-0-0/w STRC(108)         1 DEPENDING_SIZE
     0-0-0/w STRC(5472)        1 DIMS                       0-0-0/w STRC(288)         1 DIVIDE_STMT
     0-0-0/w STRC(396)         1 DML_ITEM                   0-0-0/w STRC(216)         1 DML_REC
     0-0-0/w ASTR(180)   r     1 DNT                        0-0-0/w STRC(73836)       1 EVALUATE
     0-0-0/w STRC(396)         1 FD                         0-0-0/w STRC(1692)        1 FILE_LTS
     0-0-0/w STRC(288)         1 ILS_LIST                   0-0-0/w STRC(108)         1 INDEXES
     0-0-0/w STRC(360)         1 INIT_LTS                   0-0-0/w STRC(288)         1 INSPECT_1_STMT
     0-0-0/w STRC(288)         1 INSPECT_2_STMT             0-0-0/w STRC(288)         1 INSPECT_4_STMT
     0-0-0/w STRC(396)         1 INTDEF                     0-0-0/w STRC(180)         1 IO_RESTORE_CHAIN
     0-0-0/w STRC(144)         1 KEY                        0-0-0/w STRC(396)         1 LABEL
     0-0-0/w STRC(288)         1 LA_ITEM                    0-0-0/w STRC(36864)       1 LCNST
     0-0-0/w STRC(72)          1 LONG                       0-0-0/w STRC              1 LTS
     0-0-0/w STRC(360)         1 LTSS                       0-0-0/w STRC(36936)       1 LTS_PTR_ARRAY
     0-0-0/w STRC(504)         1 LX_CD_INPUT                0-0-0/w STRC(324)         1 LX_CD_I_O
     0-0-0/w STRC(396)         1 LX_CD_OUTPUT               0-0-0/w STRC(288)         1 LX_ETT_ITEM
     0-0-0/w STRC(288)         1 LX_ITEM                    0-0-0/w STRC(288)         1 LX_LARGE
     0-0-0/w STRC(288)         1 LX_LIST                    0-0-0/w STRC(1224)        1 LX_REC_DECL
     0-0-0/w STRC(864)         1 LX_REPORT_REC              0-0-0/w STRC(288)         1 LX_TERMINAL
     0-0-0/w STRC(396)         1 MNEMONIC                   0-0-0/w STRC(288)         1 MULTIPLY_STMT
     0-0-0/w STRC(144)         1 NEL                        0-0-0/w STRC(216)         1 OPEN_LTS
     0-0-0/w STRC(36864)       1 PAGE                       0-0-0/w STRC(396)         1 PARA
     0-0-0/w STRC(144)         1 PRIME                      0-0-0/w STRC(396)   r     1 PROC_
     0-0-0/w STRC(396)         1 PROC_DEF                   0-0-0/w STRC(900)   r     1 PROC_SUPP
     0-0-0/w STRC(216)   r     1 QLT                        0-0-0/w STRC(396)         1 RD
     0-0-0/w STRC(288)         1 READ_STMT                  0-0-0/w STRC(216)         1 REF
     0-0-0/w STRC(108)         1 RENAMES                    0-0-0/w STRC(720)         1 REPORT_01_LTS
     0-0-0/w STRC(432)         1 REPORT_ELEM_LTS            0-0-0/w STRC(252)         1 REPORT_GRP_LTS
PL6.E3A0      #002=Z8CO$DECLARE_SCALAR File=Z8CO.:Z8A6TSI                        SAT 08/09/97 10:57 Page:59
     0-0-0/w STRC(1332)        1 REPORT_LTS                 0-0-0/w STRC(288)         1 REWRITE_STMT
     0-0-0/w STRC(144)         1 RVA_LTS                    0-0-0/w STRC(396)   r     1 SCALAR
     0-0-0/w STRC(396)         1 SD                         0-0-0/w STRC(396)         1 SECTION
     0-0-0/w STRC(396)         1 SEGMENT                    0-0-0/w STRC(360)         1 SEGMENT_LTS
     0-0-0/w STRC(396)   r     1 ST                         0-0-0/w STRC(288)         1 START_STMT
     0-0-0/w STRC(252)         1 STRING_STMT                0-0-0/w STRC(288)         1 SUBTRACT_STMT
     0-0-0/w STRC(252)         1 SUM_LTS                    0-0-0/w STRC(396)         1 SWITCH
     0-0-0/w STRC(396)         1 SYMBOLIC_CHAR              0-0-0/w STRC(396)         1 SYMDEF_
     0-0-0/w STRC(396)         1 SYMREF_                    0-0-0/w STRC(396)         1 TEMP
     0-0-0/w STRC(288)         1 UNARY_OP                   0-0-0/w STRC(288)         1 UNSTRING_STMT
     0-0-0/d STRC(612)         1 USE                        0-0-0/w STRC(252)         1 USE_SUPP
     0-0-0/w STRC(396)         1 VARIABLE                   0-0-0/w STRC(288)         1 WRITE_STMT


   Procedure Z8CO$DECLARE_SCALAR requires 151 words for executable code.
   Procedure Z8CO$DECLARE_SCALAR requires 10 words of local(AUTO) storage.

PL6.E3A0      #003=Z8CO$IDENTIFIER_CHECKS File=Z8CO.:Z8A6TSI                     SAT 08/09/97 11:01 Page:60
      289        1        /*T***********************************************************/
      290        2        /*T*                                                         */
      291        3        /*T* Copyright (c) Bull HN Information Systems Inc., 1997    */
      292        4        /*T*                                                         */
      293        5        /*T***********************************************************/
      294        6        Z8CO$IDENTIFIER_CHECKS:PROC(ID$) ALTRET;
      295        7
      296        8    1        DCL ID$         PTR;
      297        9    1        DCL ERROR#      SBIN WORD;
      298       10
      299       11
      300       12             %EQU PHASE = 1;
      301       13             %INCLUDE Z8A_DEFC;
      302       81             %INCLUDE Z8A_SUPP_MAC;
      303     2481             %INCLUDE Z8A_COMCOM;
      304     3131             %INCLUDE Z8A_TYPES;
      305     3305             %INCLUDE Z8A_ST;
      306     6964             %INCLUDE Z8E_STACKS;
      307     9230             %INCLUDE Z8E_MACROS;
      308     9905             %INCLUDE Z8A_ERR_NUMS;
      309    10669             %INCLUDE Z8A_DNT;
      310    10890             %INCLUDE Z8A_ETT ;
      311    11191
      312    11192
      313    11193    1        DCL Z8AU$TYPE_DESCRIPTOR                  ENTRY(2);
      314    11194    1        DCL Z8AE$ERROR                            ENTRY(12);
      315    11195    1        DCL Z8CO$CHECK_INTEGER_TERMINAL ENTRY(1) ALTRET;
      316    11196    1        DCL Z8EV$CONVERT                          ENTRY(3);
      317    11197
      318    11198    1        DCL 1 TYPE_DESC DALIGNED,
      319    11199                 %TYPE_DESC;
      320    11233
      321    11234
      322    11235        %EJECT;
PL6.E3A0      #003=Z8CO$IDENTIFIER_CHECKS File=Z8CO.:Z8A6TSI                     SAT 08/09/97 11:01 Page:61
      323    11236    1   Z8CO$DISPL_CHECK:ENTRY(ID$) ALTRET;
      324    11237
      325    11238    2        DO CASE(ID$ -> LX_ITEM.ID);
      326    11239    2          CASE(%LX_TERMINAL);
      327    11240    2            IF NOT (ID$ -> LX_TERMINAL.DNT$ -> DNT.B.ALPHA_LITERAL
      328    11241    2            OR ID$ -> LX_TERMINAL.DNT$ -> DNT.B.FIGURATIVE_CONSTANT) THEN
      329    11242    3              DO;
      330    11243                     %CONDITIONAL_ERROR (@LX_ITEM$ = ID$,
      331    11244                                         @ERROR# = %E$MUST_BE_DISPLAY,
      332    11245                                         @LINE = ID$ -> LX_ETT_ITEM.LINE,
      333    11246                                         @COLUMN = ID$ -> LX_ETT_ITEM.COLUMN);
      334    11276    3                ALTRETURN;
      335    11277    3              END;
      336    11278
      337    11279    2          CASE(%LX_ETT_ITEM);
      338    11280    2            CALL Z8AU$TYPE_DESCRIPTOR(ID$ -> LX_ETT_ITEM.ETT$, TYPE_DESC);
      339    11281
      340    11282    3            DO CASE(TYPE_DESC.TYPE);
      341    11283    3              CASE(%TYO, %TYA, %TYN, %TYB, %TYE, %TYC, %TYF);
      342    11284    3                IF ID$ -> LX_ETT_ITEM.ETT$ -> ETT.ID = %BASE THEN
      343    11285    4                  DO CASE (ID$ -> LX_ETT_ITEM.ETT$ -> ETT.LOP -> ETT.ID) ;
      344    11286
      345    11287    4                    CASE (%SCALAR, %TEMP, %ARRAY, %CONST) ;
      346    11288                           /* OK */
      347    11289
      348    11290    4                    CASE (ELSE) ; /* %FD, ... */
      349    11291                           %CONDITIONAL_ERROR (@LX_ITEM$ = ID$,
      350    11292                                               @ERROR# = %E$MUST_BE_DISPLAY,
      351    11293                                               @LINE = ID$ -> LX_ETT_ITEM.LINE,
      352    11294                                               @COLUMN = ID$ -> LX_ETT_ITEM.COLUMN);
      353    11324    4                      ALTRETURN;
      354    11325    4                  END ; /* Case of BASE's LOP's ID */
      355    11326
      356    11327    3              CASE(%TYD);
      357    11328    3                IF  TYPE_DESC.DESC.NDSC.TN = %NDSC4
      358    11329    3                AND ID$ -> LX_ETT_ITEM.ETT$ -> ETT.ID ~= %TRIAD THEN
      359    11330    4                  DO;
PL6.E3A0      #003=Z8CO$IDENTIFIER_CHECKS File=Z8CO.:Z8A6TSI                     SAT 08/09/97 11:01 Page:62
      360    11331                         %CONDITIONAL_ERROR (@LX_ITEM$ = ID$,
      361    11332                                             @ERROR# = %E$MUST_BE_DISPLAY,
      362    11333                                             @LINE = ID$ -> LX_ETT_ITEM.LINE,
      363    11334                                             @COLUMN = ID$ -> LX_ETT_ITEM.COLUMN);
      364    11364    4                    ALTRETURN;
      365    11365    4                  END;
      366    11366
      367    11367    3              CASE(ELSE);
      368    11368                     %CONDITIONAL_ERROR (@LX_ITEM$ = ID$,
      369    11369                                         @ERROR# = %E$MUST_BE_DISPLAY,
      370    11370                                         @LINE = ID$ -> LX_ETT_ITEM.LINE,
      371    11371                                         @COLUMN = ID$ -> LX_ETT_ITEM.COLUMN);
      372    11401    3                ALTRETURN;
      373    11402
      374    11403    3            END /* Case */;
      375    11404
      376    11405    2          CASE(ELSE);
      377    11406    2            CALL Z8AE$ERROR(%E$UNEXPECTED_CASE);
      378    11407    2            ALTRETURN;
      379    11408
      380    11409    2        END /* Case */;
      381    11410
      382    11411    1        RETURN;
      383    11412
      384    11413        %EJECT;
PL6.E3A0      #003=Z8CO$IDENTIFIER_CHECKS File=Z8CO.:Z8A6TSI                     SAT 08/09/97 11:01 Page:63
      385    11414    1   Z8CO$INTEGER_CHECK_NO_ERROR: ENTRY (ID$) ALTRET;
      386    11415
      387    11416    1        CALL Z8AU$TYPE_DESCRIPTOR(ID$ -> LX_ETT_ITEM.ETT$, TYPE_DESC);
      388    11417
      389    11418    2        DO CASE(TYPE_DESC.TYPE);
      390    11419    2          CASE(%TYI, %TYH, %TYK, %TYJ);
      391    11420    2            RETURN;
      392    11421
      393    11422    2          CASE(%TYD, %TYO, %TYF, %TYC);
      394    11423    2            IF TYPE_DESC.DESC.NDSC.SF < 0 THEN
      395    11424    2              ALTRETURN;
      396    11425
      397    11426    2          CASE(ELSE);
      398    11427    2            ALTRETURN;
      399    11428
      400    11429    2        END /* Case */;
      401    11430
      402    11431    1        RETURN;
      403    11432
      404    11433        %EJECT;
PL6.E3A0      #003=Z8CO$IDENTIFIER_CHECKS File=Z8CO.:Z8A6TSI                     SAT 08/09/97 11:01 Page:64
      405    11434    1   Z8CO$INTEGER_CHECK: ENTRY (ID$) ALTRET;
      406    11435
      407    11436    2     DO CASE (ID$ -> LX_ITEM.ID);
      408    11437
      409    11438    2       CASE(%LX_ETT_ITEM);
      410    11439    2        CALL Z8CO$INTEGER_CHECK_NO_ERROR (ID$)
      411    11440    2           WHENALTRETURN
      412    11441    3             DO;
      413    11442                    %CONDITIONAL_ERROR (@LX_ITEM$ = ID$,
      414    11443                                        @ERROR#   = %E$MUST_BE_INTEGER,
      415    11444                                        @LINE     = ID$ -> LX_ETT_ITEM.LINE,
      416    11445                                        @COLUMN   = ID$ -> LX_ETT_ITEM.COLUMN);
      417    11475    3               ALTRETURN;
      418    11476    3             END;
      419    11477
      420    11478    2       CASE(%LX_TERMINAL);
      421    11479    2         CALL Z8CO$CHECK_INTEGER_TERMINAL (ID$)
      422    11480    2           WHENALTRETURN
      423    11481    3            DO;
      424    11482                   %CONDITIONAL_ERROR (@LX_ITEM$ = ID$,
      425    11483                                       @ERROR#   = %E$MUST_BE_INTEGER,
      426    11484                                       @LINE     = ID$ -> LX_ETT_ITEM.LINE,
      427    11485                                       @COLUMN   = ID$ -> LX_ETT_ITEM.COLUMN);
      428    11515    3               ALTRETURN;
      429    11516    3            END;
      430    11517
      431    11518    2       CASE(ELSE);
      432    11519    2         CALL Z8AE$ERROR(%E$UNEXPECTED_CASE);
      433    11520    2     END;
      434    11521
      435    11522    1     RETURN;
      436    11523
      437    11524        %EJECT;
PL6.E3A0      #003=Z8CO$IDENTIFIER_CHECKS File=Z8CO.:Z8A6TSI                     SAT 08/09/97 11:01 Page:65
      438    11525    1   Z8CO$P_CHECK:ENTRY(ID$) ALTRET;
      439    11526
      440    11527    1        CALL Z8AU$TYPE_DESCRIPTOR(ID$ -> LX_ETT_ITEM.ETT$, TYPE_DESC);
      441    11528
      442    11529    1        IF TYPE_DESC.DESC.NDSC.SF > 0
      443    11530    1        OR - TYPE_DESC.DESC.NDSC.SF > TYPE_DESC.DESC.NDSC.N THEN
      444    11531    2          DO;
      445    11532                 %CONDITIONAL_ERROR (@LX_ITEM$ = ID$,
      446    11533                                     @ERROR# = %E$NO_P_IN_PICTURE,
      447    11534                                     @LINE = ID$ -> LX_ETT_ITEM.LINE,
      448    11535                                     @COLUMN = ID$ -> LX_ETT_ITEM.COLUMN);
      449    11565    2            ALTRETURN;
      450    11566    2          END;
      451    11567
      452    11568    1        RETURN;
      453    11569
      454    11570
      455    11571        %EJECT;
PL6.E3A0      #003=Z8CO$IDENTIFIER_CHECKS File=Z8CO.:Z8A6TSI                     SAT 08/09/97 11:01 Page:66
      456    11572    1   Z8CO$UNSIGNED_CHECK : ENTRY (ID$) ALTRET;
      457    11573
      458    11574    1        CALL Z8AU$TYPE_DESCRIPTOR (ID$ -> LX_ETT_ITEM.ETT$, TYPE_DESC);
      459    11575
      460    11576    2        DO CASE (TYPE_DESC.TYPE);
      461    11577
      462    11578    2          CASE (%TYD, %TYF, %TYC);
      463    11579    2            IF TYPE_DESC.DESC.NDSC.S ~= %NO_SIGN THEN
      464    11580    3              DO;
      465    11581                     %CONDITIONAL_ERROR (@LX_ITEM$ = ID$,
      466    11582                                         @ERROR#   = %E$MUST_BE_UNSIGNED,
      467    11583                                         @LINE     = ID$ -> LX_ITEM.LINE,
      468    11584                                         @COLUMN   = ID$ -> LX_ITEM.COLUMN);
      469    11614    3                ALTRETURN;
      470    11615    3              END;
      471    11616
      472    11617    2          CASE (%TYR, %TYQ, %TYO);
      473    11618                 %CONDITIONAL_ERROR (@LX_ITEM$ = ID$,
      474    11619                                     @ERROR#   = %E$MUST_BE_UNSIGNED,
      475    11620                                     @LINE     = ID$ -> LX_ITEM.LINE,
      476    11621                                     @COLUMN   = ID$ -> LX_ITEM.COLUMN);
      477    11651    2            ALTRETURN;
      478    11652
      479    11653    2          CASE (ELSE);
      480    11654                 /* Peachy */
      481    11655
      482    11656    2        END; /* Case */
      483    11657
      484    11658    1   END Z8CO$IDENTIFIER_CHECKS;
      485    11659        %EOD;

PL6.E3A0      #003=Z8CO$IDENTIFIER_CHECKS File=Z8CO.:Z8A6TSI                     SAT 08/09/97 11:01 Page:67
--  Include file information  --

   Z8A_ETT.:Z8A6TOU  cannot be made into a system file and is referenced.
   Z8A_DNT.:Z8A6TOU  cannot be made into a system file and is referenced.
   Z8A_ERR_NUMS.:Z8A6TOU  is referenced.
   Z8E_NEW_ILL.:Z8A6TOU  is referenced.
   Z8E_MACROS.:Z8A6TOU  cannot be made into a system file and is referenced.
   Z8A_LEX_SYMB.:Z8A6TOU  cannot be made into a system file and is referenced.
   Z8E_STACKS.:Z8A6TOU  cannot be made into a system file and is referenced.
   Z8A_ST.:Z8A6TOU  cannot be made into a system file and is referenced.
   Z8A_TYPES.:Z8A6TOU  is referenced.
   Z8A_COMCOM.:Z8A6TOU  cannot be made into a system file and is referenced.
   X8A_COM_MACS.:X8A6TOU  is referenced.
   Z8A_NAMES.:Z8A6TOU  is referenced.
   Z8A_SUPP_MAC.:Z8A6TOU  is referenced.
   Z8A_DEFC.:Z8A6TOU  cannot be made into a system file and is referenced.
      No diagnostics issued in procedure Z8CO$IDENTIFIER_CHECKS.

   Procedure Z8CO$IDENTIFIER_CHECKS requires 406 words for executable code.
   Procedure Z8CO$IDENTIFIER_CHECKS requires 14 words of local(AUTO) storage.

PL6.E3A0      #003=Z8CO$IDENTIFIER_CHECKS File=Z8CO.:Z8A6TSI                     SAT 08/09/97 11:01 Page:68

 Object Unit name= Z8CO$IDENTIFIER_CHECKS                     File name= Z8CO.:Z8A6TOU
 UTS= AUG 09 '97 11:01:13.32 SAT                              Compiler= PL-6/E31         Sev=      00
 SharedLib= :SHARED_SYSTEM                                    Alt SharedLib=


    ****  Control sections  ****

 Sect   Type Bound  Init  Size OctSiz  Section name(segment info)
    0  LblCom even  none     1      1  ITERATION
    1  LblCom even  none     1      1  ST$
    2  LblCom even  none     5      5  ST_
    3  LblCom even  none    90    132  LEX_SYMBOL
    4  LblCom even  none     1      1  CURRENT_LEX_SYMBOL$
    5  LblCom even  none    90    132  TEMP_LEX_SYMBOL
    6  LblCom even  none    90    132  TEMP_LEX_SYMBOL2
    7  LblCom even  none     1      1  DNT$
    8  LblCom even  none     5      5  DNT_
    9  LblCom even  none     1      1  DNT_BUCKET_NUMBER
   10  LblCom even  none     1      1  DNT_OF_1$
   11  LblCom even  none     1      1  ETT$
   12  LblCom even  none     1      1  HEAD_ETT$
   13  LblCom even  none   512   1000  ETT_BUCKETS
   14  LblCom even  none     5      5  ETT_
   15   Proc  even  none   406    626  Z8CO$IDENTIFIER_CHECKS
   16  RoData even  none    14     16  Z8CO$IDENTIFIER_CHECKS

    ****  Entry defs  ****

                              Check   Calling
                             calling  sequence
  Sect OctLoc Primary Altret sequence   type   Parms  Name
    15      0   yes    yes     yes      Std        1  Z8CO$IDENTIFIER_CHECKS
    15      3          yes     yes      Std        1  Z8CO$DISPL_CHECK
    15    245          yes     yes      Std        1  Z8CO$INTEGER_CHECK_NO_ERROR
    15    322          yes     yes      Std        1  Z8CO$INTEGER_CHECK
    15    430          yes     yes      Std        1  Z8CO$P_CHECK
    15    505          yes     yes      Std        1  Z8CO$UNSIGNED_CHECK
PL6.E3A0      #003=Z8CO$IDENTIFIER_CHECKS File=Z8CO.:Z8A6TSI                     SAT 08/09/97 11:01 Page:69

  ****  Entry refs  ****

         Check        Calling
        calling       sequence
Altret sequence SRef   type   Args  Name
         yes           Std      12 Z8AE$ERROR
         yes           Std       2 Z8AU$TYPE_DESCRIPTOR
 yes     yes           Std       1 Z8CO$CHECK_INTEGER_TERMINAL
                       nStd      0 X66_AUTO_1
                       nStd      0 X66_AALT
                       nStd      0 X66_ARET

  ****  Data refs  ****

  Flags:  r = read only, s = secondary
Flgs Name                             Flgs Name                             Flgs Name
     COMCOM

  ****  Segment refs  ****

  Flags:  r = read only, s = secondary
Flgs Name                             Flgs Name                             Flgs Name
     NULLSID                               ISSID
PL6.E3A0      #003=Z8CO$IDENTIFIER_CHECKS File=Z8CO.:Z8A6TSI                     SAT 08/09/97 11:01 Page:70


      289        1        /*T***********************************************************/
      290        2        /*T*                                                         */
      291        3        /*T* Copyright (c) Bull HN Information Systems Inc., 1997    */
      292        4        /*T*                                                         */
      293        5        /*T***********************************************************/
      294        6        Z8CO$IDENTIFIER_CHECKS:PROC(ID$) ALTRET;

      6 15 000000   000000 700200 xent  Z8CO$IDENTI* TSX0  ! X66_AUTO_1
        15 000001   000016 000001                    ZERO    14,1
        15 000002   000005 710000 15                 TRA     s:11238

      295        7
      296        8    1        DCL ID$         PTR;
      297        9    1        DCL ERROR#      SBIN WORD;
      298       10
      299       11
      300       12             %EQU PHASE = 1;
      301       13             %INCLUDE Z8A_DEFC;
      302       81             %INCLUDE Z8A_SUPP_MAC;
      303     2481             %INCLUDE Z8A_COMCOM;
      304     3131             %INCLUDE Z8A_TYPES;
      305     3305             %INCLUDE Z8A_ST;
      306     6964             %INCLUDE Z8E_STACKS;
      307     9230             %INCLUDE Z8E_MACROS;
      308     9905             %INCLUDE Z8A_ERR_NUMS;
      309    10669             %INCLUDE Z8A_DNT;
      310    10890             %INCLUDE Z8A_ETT ;
      311    11191
      312    11192
      313    11193    1        DCL Z8AU$TYPE_DESCRIPTOR                  ENTRY(2);
      314    11194    1        DCL Z8AE$ERROR                            ENTRY(12);
      315    11195    1        DCL Z8CO$CHECK_INTEGER_TERMINAL ENTRY(1) ALTRET;
      316    11196    1        DCL Z8EV$CONVERT                          ENTRY(3);
      317    11197
      318    11198    1        DCL 1 TYPE_DESC DALIGNED,
      319    11199                 %TYPE_DESC;
PL6.E3A0      #003=Z8CO$IDENTIFIER_CHECKS File=Z8CO.:Z8A6TSI                     SAT 08/09/97 11:01 Page:71
      320    11233
      321    11234
      322    11235        %EJECT;
PL6.E3A0      #003=Z8CO$IDENTIFIER_CHECKS File=Z8CO.:Z8A6TSI                     SAT 08/09/97 11:01 Page:72
      323    11236    1   Z8CO$DISPL_CHECK:ENTRY(ID$) ALTRET;

  11236 15 000003   000000 700200 xent  Z8CO$DISPL_* TSX0  ! X66_AUTO_1
        15 000004   000016 000001                    ZERO    14,1

      324    11237
      325    11238    2        DO CASE(ID$ -> LX_ITEM.ID);

  11238 15 000005   200003 470500                    LDP0    @ID$,,AUTO
        15 000006   000000 471500                    LDP1    0,,PR0
        15 000007   100000 220100                    LDX0    0,,PR1
        15 000010   000005 100003                    CMPX0   5,DU
        15 000011   000013 602010 15                 TNC     s:11238+6,X0
        15 000012   000237 710000 15                 TRA     s:11406
        15 000013   000020 710000 15                 TRA     s:11240
        15 000014   000237 710000 15                 TRA     s:11406
        15 000015   000237 710000 15                 TRA     s:11406
        15 000016   000237 710000 15                 TRA     s:11406
        15 000017   000050 710000 15                 TRA     s:11280

      326    11239    2          CASE(%LX_TERMINAL);

      327    11240    2            IF NOT (ID$ -> LX_TERMINAL.DNT$ -> DNT.B.ALPHA_LITERAL

  11240 15 000020   100002 473500                    LDP3    2,,PR1
        15 000021   300003 236100                    LDQ     3,,PR3
        15 000022   004000 316003                    CANQ    2048,DU
        15 000023   000244 601000 15                 TNZ     s:11411
        15 000024   002000 316003                    CANQ    1024,DU
        15 000025   000244 601000 15                 TNZ     s:11411

      328    11241    2            OR ID$ -> LX_TERMINAL.DNT$ -> DNT.B.FIGURATIVE_CONSTANT) THEN
      329    11242    3              DO;

      330    11243                     %CONDITIONAL_ERROR (@LX_ITEM$ = ID$,
      331    11244                                         @ERROR# = %E$MUST_BE_DISPLAY,
      332    11245                                         @LINE = ID$ -> LX_ETT_ITEM.LINE,
PL6.E3A0      #003=Z8CO$IDENTIFIER_CHECKS File=Z8CO.:Z8A6TSI                     SAT 08/09/97 11:01 Page:73
      333    11246                                         @COLUMN = ID$ -> LX_ETT_ITEM.COLUMN);

  11256 15 000026   100000 236100                    LDQ     0,,PR1
        15 000027   400000 316007                    CANQ    -131072,DL
        15 000030   000047 601000 15                 TNZ     s:11276

  11258 15 000031   100006 634500                    EPPR4   6,,PR1
        15 000032   200014 454500                    STP4    TYPE_DESC+6,,AUTO
        15 000033   100005 633500                    EPPR3   5,,PR1
        15 000034   200013 453500                    STP3    TYPE_DESC+5,,AUTO
        15 000035   000002 236000 16                 LDQ     2
        15 000036   200012 756100                    STQ     TYPE_DESC+4,,AUTO
        15 000037   200012 630500                    EPPR0   TYPE_DESC+4,,AUTO
        15 000040   000000 631400 16                 EPPR1   0
        15 000041   000000 701000 xent               TSX1    Z8AE$ERROR
        15 000042   000000 011000                    NOP     0

  11267 15 000043   200003 470500                    LDP0    @ID$,,AUTO
        15 000044   000000 471500                    LDP1    0,,PR0
        15 000045   400000 236007                    LDQ     -131072,DL
        15 000046   100000 256100                    ORSQ    0,,PR1

      334    11276    3                ALTRETURN;

  11276 15 000047   000000 702200 xent               TSX2  ! X66_AALT

      335    11277    3              END;
      336    11278
      337    11279    2          CASE(%LX_ETT_ITEM);

      338    11280    2            CALL Z8AU$TYPE_DESCRIPTOR(ID$ -> LX_ETT_ITEM.ETT$, TYPE_DESC);

  11280 15 000050   200006 633500                    EPPR3   TYPE_DESC,,AUTO
        15 000051   200013 453500                    STP3    TYPE_DESC+5,,AUTO
        15 000052   100001 634500                    EPPR4   1,,PR1
        15 000053   200012 454500                    STP4    TYPE_DESC+4,,AUTO
        15 000054   200012 630500                    EPPR0   TYPE_DESC+4,,AUTO
PL6.E3A0      #003=Z8CO$IDENTIFIER_CHECKS File=Z8CO.:Z8A6TSI                     SAT 08/09/97 11:01 Page:74
        15 000055   000003 631400 16                 EPPR1   3
        15 000056   000000 701000 xent               TSX1    Z8AU$TYPE_DESCRIPTOR
        15 000057   000000 011000                    NOP     0

      339    11281
      340    11282    3            DO CASE(TYPE_DESC.TYPE);

  11282 15 000060   200006 235100                    LDA     TYPE_DESC,,AUTO
        15 000061   000024 115007                    CMPA    20,DL
        15 000062   000064 602005 15                 TNC     s:11282+4,AL
        15 000063   000213 710000 15                 TRA     s:11381
        15 000064   000160 710000 15                 TRA     s:11328
        15 000065   000213 710000 15                 TRA     s:11381
        15 000066   000213 710000 15                 TRA     s:11381
        15 000067   000110 710000 15                 TRA     s:11284
        15 000070   000213 710000 15                 TRA     s:11381
        15 000071   000213 710000 15                 TRA     s:11381
        15 000072   000110 710000 15                 TRA     s:11284
        15 000073   000213 710000 15                 TRA     s:11381
        15 000074   000110 710000 15                 TRA     s:11284
        15 000075   000213 710000 15                 TRA     s:11381
        15 000076   000213 710000 15                 TRA     s:11381
        15 000077   000110 710000 15                 TRA     s:11284
        15 000100   000110 710000 15                 TRA     s:11284
        15 000101   000213 710000 15                 TRA     s:11381
        15 000102   000110 710000 15                 TRA     s:11284
        15 000103   000213 710000 15                 TRA     s:11381
        15 000104   000213 710000 15                 TRA     s:11381
        15 000105   000213 710000 15                 TRA     s:11381
        15 000106   000213 710000 15                 TRA     s:11381
        15 000107   000110 710000 15                 TRA     s:11284

      341    11283    3              CASE(%TYO, %TYA, %TYN, %TYB, %TYE, %TYC, %TYF);

      342    11284    3                IF ID$ -> LX_ETT_ITEM.ETT$ -> ETT.ID = %BASE THEN

  11284 15 000110   200003 470500                    LDP0    @ID$,,AUTO
PL6.E3A0      #003=Z8CO$IDENTIFIER_CHECKS File=Z8CO.:Z8A6TSI                     SAT 08/09/97 11:01 Page:75
        15 000111   000000 471500                    LDP1    0,,PR0
        15 000112   100001 473500                    LDP3    1,,PR1
        15 000113   300000 220100                    LDX0    0,,PR3
        15 000114   000001 100003                    CMPX0   1,DU
        15 000115   000244 601000 15                 TNZ     s:11411

      343    11285    4                  DO CASE (ID$ -> LX_ETT_ITEM.ETT$ -> ETT.LOP -> ETT.ID) ;

  11285 15 000116   300001 474500                    LDP4    1,,PR3
        15 000117   400000 236100                    LDQ     0,,PR4
        15 000120   000022 772000                    QRL     18
        15 000121   000760 136007                    SBLQ    496,DL
        15 000122   000010 116007                    CMPQ    8,DL
        15 000123   000125 602006 15                 TNC     s:11285+7,QL
        15 000124   000135 710000 15                 TRA     s:11304
        15 000125   000157 710000 15                 TRA     s:11325
        15 000126   000135 710000 15                 TRA     s:11304
        15 000127   000135 710000 15                 TRA     s:11304
        15 000130   000135 710000 15                 TRA     s:11304
        15 000131   000135 710000 15                 TRA     s:11304
        15 000132   000157 710000 15                 TRA     s:11325
        15 000133   000157 710000 15                 TRA     s:11325
        15 000134   000157 710000 15                 TRA     s:11325

      344    11286
      345    11287    4                    CASE (%SCALAR, %TEMP, %ARRAY, %CONST) ;

      346    11288                           /* OK */
      347    11289
      348    11290    4                    CASE (ELSE) ; /* %FD, ... */

      349    11291                           %CONDITIONAL_ERROR (@LX_ITEM$ = ID$,
      350    11292                                               @ERROR# = %E$MUST_BE_DISPLAY,
      351    11293                                               @LINE = ID$ -> LX_ETT_ITEM.LINE,
      352    11294                                               @COLUMN = ID$ -> LX_ETT_ITEM.COLUMN);

  11304 15 000135   100000 236100                    LDQ     0,,PR1
PL6.E3A0      #003=Z8CO$IDENTIFIER_CHECKS File=Z8CO.:Z8A6TSI                     SAT 08/09/97 11:01 Page:76
        15 000136   400000 316007                    CANQ    -131072,DL
        15 000137   000156 601000 15                 TNZ     s:11324

  11306 15 000140   100006 635500                    EPPR5   6,,PR1
        15 000141   200014 455500                    STP5    TYPE_DESC+6,,AUTO
        15 000142   100005 633500                    EPPR3   5,,PR1
        15 000143   200013 453500                    STP3    TYPE_DESC+5,,AUTO
        15 000144   000002 236000 16                 LDQ     2
        15 000145   200012 756100                    STQ     TYPE_DESC+4,,AUTO
        15 000146   200012 630500                    EPPR0   TYPE_DESC+4,,AUTO
        15 000147   000000 631400 16                 EPPR1   0
        15 000150   000000 701000 xent               TSX1    Z8AE$ERROR
        15 000151   000000 011000                    NOP     0

  11315 15 000152   200003 470500                    LDP0    @ID$,,AUTO
        15 000153   000000 471500                    LDP1    0,,PR0
        15 000154   400000 236007                    LDQ     -131072,DL
        15 000155   100000 256100                    ORSQ    0,,PR1

      353    11324    4                      ALTRETURN;

  11324 15 000156   000000 702200 xent               TSX2  ! X66_AALT

      354    11325    4                  END ; /* Case of BASE's LOP's ID */

  11325 15 000157   000244 710000 15                 TRA     s:11411

      355    11326
      356    11327    3              CASE(%TYD);

      357    11328    3                IF  TYPE_DESC.DESC.NDSC.TN = %NDSC4

  11328 15 000160   200007 236100                    LDQ     TYPE_DESC+1,,AUTO
        15 000161   040000 316007                    CANQ    16384,DL
        15 000162   000244 600000 15                 TZE     s:11411
        15 000163   200003 470500                    LDP0    @ID$,,AUTO
        15 000164   000000 471500                    LDP1    0,,PR0
PL6.E3A0      #003=Z8CO$IDENTIFIER_CHECKS File=Z8CO.:Z8A6TSI                     SAT 08/09/97 11:01 Page:77
        15 000165   100001 473500                    LDP3    1,,PR1
        15 000166   300000 220100                    LDX0    0,,PR3
        15 000167   000015 100003                    CMPX0   13,DU
        15 000170   000244 600000 15                 TZE     s:11411

      358    11329    3                AND ID$ -> LX_ETT_ITEM.ETT$ -> ETT.ID ~= %TRIAD THEN
      359    11330    4                  DO;

      360    11331                         %CONDITIONAL_ERROR (@LX_ITEM$ = ID$,
      361    11332                                             @ERROR# = %E$MUST_BE_DISPLAY,
      362    11333                                             @LINE = ID$ -> LX_ETT_ITEM.LINE,
      363    11334                                             @COLUMN = ID$ -> LX_ETT_ITEM.COLUMN);

  11344 15 000171   100000 236100                    LDQ     0,,PR1
        15 000172   400000 316007                    CANQ    -131072,DL
        15 000173   000212 601000 15                 TNZ     s:11364

  11346 15 000174   100006 634500                    EPPR4   6,,PR1
        15 000175   200014 454500                    STP4    TYPE_DESC+6,,AUTO
        15 000176   100005 633500                    EPPR3   5,,PR1
        15 000177   200013 453500                    STP3    TYPE_DESC+5,,AUTO
        15 000200   000002 236000 16                 LDQ     2
        15 000201   200012 756100                    STQ     TYPE_DESC+4,,AUTO
        15 000202   200012 630500                    EPPR0   TYPE_DESC+4,,AUTO
        15 000203   000000 631400 16                 EPPR1   0
        15 000204   000000 701000 xent               TSX1    Z8AE$ERROR
        15 000205   000000 011000                    NOP     0

  11355 15 000206   200003 470500                    LDP0    @ID$,,AUTO
        15 000207   000000 471500                    LDP1    0,,PR0
        15 000210   400000 236007                    LDQ     -131072,DL
        15 000211   100000 256100                    ORSQ    0,,PR1

      364    11364    4                    ALTRETURN;

  11364 15 000212   000000 702200 xent               TSX2  ! X66_AALT

PL6.E3A0      #003=Z8CO$IDENTIFIER_CHECKS File=Z8CO.:Z8A6TSI                     SAT 08/09/97 11:01 Page:78
      365    11365    4                  END;
      366    11366
      367    11367    3              CASE(ELSE);

      368    11368                     %CONDITIONAL_ERROR (@LX_ITEM$ = ID$,
      369    11369                                         @ERROR# = %E$MUST_BE_DISPLAY,
      370    11370                                         @LINE = ID$ -> LX_ETT_ITEM.LINE,
      371    11371                                         @COLUMN = ID$ -> LX_ETT_ITEM.COLUMN);

  11381 15 000213   200003 470500                    LDP0    @ID$,,AUTO
        15 000214   000000 471500                    LDP1    0,,PR0
        15 000215   100000 236100                    LDQ     0,,PR1
        15 000216   400000 316007                    CANQ    -131072,DL
        15 000217   000236 601000 15                 TNZ     s:11401

  11383 15 000220   100006 633500                    EPPR3   6,,PR1
        15 000221   200014 453500                    STP3    TYPE_DESC+6,,AUTO
        15 000222   100005 634500                    EPPR4   5,,PR1
        15 000223   200013 454500                    STP4    TYPE_DESC+5,,AUTO
        15 000224   000002 236000 16                 LDQ     2
        15 000225   200012 756100                    STQ     TYPE_DESC+4,,AUTO
        15 000226   200012 630500                    EPPR0   TYPE_DESC+4,,AUTO
        15 000227   000000 631400 16                 EPPR1   0
        15 000230   000000 701000 xent               TSX1    Z8AE$ERROR
        15 000231   000000 011000                    NOP     0

  11392 15 000232   200003 470500                    LDP0    @ID$,,AUTO
        15 000233   000000 471500                    LDP1    0,,PR0
        15 000234   400000 236007                    LDQ     -131072,DL
        15 000235   100000 256100                    ORSQ    0,,PR1

      372    11401    3                ALTRETURN;

  11401 15 000236   000000 702200 xent               TSX2  ! X66_AALT

      373    11402
      374    11403    3            END /* Case */;
PL6.E3A0      #003=Z8CO$IDENTIFIER_CHECKS File=Z8CO.:Z8A6TSI                     SAT 08/09/97 11:01 Page:79

      375    11404
      376    11405    2          CASE(ELSE);

      377    11406    2            CALL Z8AE$ERROR(%E$UNEXPECTED_CASE);

  11406 15 000237   000006 630400 16                 EPPR0   6
        15 000240   000004 631400 16                 EPPR1   4
        15 000241   000000 701000 xent               TSX1    Z8AE$ERROR
        15 000242   000000 011000                    NOP     0

      378    11407    2            ALTRETURN;

  11407 15 000243   000000 702200 xent               TSX2  ! X66_AALT

      379    11408
      380    11409    2        END /* Case */;

      381    11410
      382    11411    1        RETURN;

  11411 15 000244   000000 702200 xent               TSX2  ! X66_ARET

      383    11412
      384    11413        %EJECT;
PL6.E3A0      #003=Z8CO$IDENTIFIER_CHECKS File=Z8CO.:Z8A6TSI                     SAT 08/09/97 11:01 Page:80
      385    11414    1   Z8CO$INTEGER_CHECK_NO_ERROR: ENTRY (ID$) ALTRET;

  11414 15 000245   000000 700200 xent  Z8CO$INTEGE* TSX0  ! X66_AUTO_1
        15 000246   000016 000001                    ZERO    14,1

      386    11415
      387    11416    1        CALL Z8AU$TYPE_DESCRIPTOR(ID$ -> LX_ETT_ITEM.ETT$, TYPE_DESC);

  11416 15 000247   200003 470500                    LDP0    @ID$,,AUTO
        15 000250   000000 471500                    LDP1    0,,PR0
        15 000251   200006 633500                    EPPR3   TYPE_DESC,,AUTO
        15 000252   200013 453500                    STP3    TYPE_DESC+5,,AUTO
        15 000253   100001 634500                    EPPR4   1,,PR1
        15 000254   200012 454500                    STP4    TYPE_DESC+4,,AUTO
        15 000255   200012 630500                    EPPR0   TYPE_DESC+4,,AUTO
        15 000256   000003 631400 16                 EPPR1   3
        15 000257   000000 701000 xent               TSX1    Z8AU$TYPE_DESCRIPTOR
        15 000260   000000 011000                    NOP     0

      388    11417
      389    11418    2        DO CASE(TYPE_DESC.TYPE);

  11418 15 000261   200006 235100                    LDA     TYPE_DESC,,AUTO
        15 000262   000024 115007                    CMPA    20,DL
        15 000263   000265 602005 15                 TNC     s:11418+4,AL
        15 000264   000320 710000 15                 TRA     s:11427
        15 000265   000312 710000 15                 TRA     s:11423
        15 000266   000311 710000 15                 TRA     s:11420
        15 000267   000311 710000 15                 TRA     s:11420
        15 000270   000312 710000 15                 TRA     s:11423
        15 000271   000320 710000 15                 TRA     s:11427
        15 000272   000320 710000 15                 TRA     s:11427
        15 000273   000320 710000 15                 TRA     s:11427
        15 000274   000311 710000 15                 TRA     s:11420
        15 000275   000320 710000 15                 TRA     s:11427
        15 000276   000320 710000 15                 TRA     s:11427
        15 000277   000320 710000 15                 TRA     s:11427
PL6.E3A0      #003=Z8CO$IDENTIFIER_CHECKS File=Z8CO.:Z8A6TSI                     SAT 08/09/97 11:01 Page:81
        15 000300   000312 710000 15                 TRA     s:11423
        15 000301   000320 710000 15                 TRA     s:11427
        15 000302   000320 710000 15                 TRA     s:11427
        15 000303   000320 710000 15                 TRA     s:11427
        15 000304   000311 710000 15                 TRA     s:11420
        15 000305   000320 710000 15                 TRA     s:11427
        15 000306   000320 710000 15                 TRA     s:11427
        15 000307   000320 710000 15                 TRA     s:11427
        15 000310   000312 710000 15                 TRA     s:11423

      390    11419    2          CASE(%TYI, %TYH, %TYK, %TYJ);

      391    11420    2            RETURN;

  11420 15 000311   000000 702200 xent               TSX2  ! X66_ARET

      392    11421
      393    11422    2          CASE(%TYD, %TYO, %TYF, %TYC);

      394    11423    2            IF TYPE_DESC.DESC.NDSC.SF < 0 THEN

  11423 15 000312   200007 236100                    LDQ     TYPE_DESC+1,,AUTO
        15 000313   000030 736000                    QLS     24
        15 000314   000036 732000                    QRS     30
        15 000315   000000 116003                    CMPQ    0,DU
        15 000316   000321 605000 15                 TPL     s:11431

      395    11424    2              ALTRETURN;

  11424 15 000317   000000 702200 xent               TSX2  ! X66_AALT

      396    11425
      397    11426    2          CASE(ELSE);

      398    11427    2            ALTRETURN;

  11427 15 000320   000000 702200 xent               TSX2  ! X66_AALT
PL6.E3A0      #003=Z8CO$IDENTIFIER_CHECKS File=Z8CO.:Z8A6TSI                     SAT 08/09/97 11:01 Page:82

      399    11428
      400    11429    2        END /* Case */;

      401    11430
      402    11431    1        RETURN;

  11431 15 000321   000000 702200 xent               TSX2  ! X66_ARET

      403    11432
      404    11433        %EJECT;
PL6.E3A0      #003=Z8CO$IDENTIFIER_CHECKS File=Z8CO.:Z8A6TSI                     SAT 08/09/97 11:01 Page:83
      405    11434    1   Z8CO$INTEGER_CHECK: ENTRY (ID$) ALTRET;

  11434 15 000322   000000 700200 xent  Z8CO$INTEGE* TSX0  ! X66_AUTO_1
        15 000323   000016 000001                    ZERO    14,1

      406    11435
      407    11436    2     DO CASE (ID$ -> LX_ITEM.ID);

  11436 15 000324   200003 470500                    LDP0    @ID$,,AUTO
        15 000325   000000 471500                    LDP1    0,,PR0
        15 000326   100000 220100                    LDX0    0,,PR1
        15 000327   000005 100003                    CMPX0   5,DU
        15 000330   000332 602010 15                 TNC     s:11436+6,X0
        15 000331   000423 710000 15                 TRA     s:11519
        15 000332   000371 710000 15                 TRA     s:11479
        15 000333   000423 710000 15                 TRA     s:11519
        15 000334   000423 710000 15                 TRA     s:11519
        15 000335   000423 710000 15                 TRA     s:11519
        15 000336   000337 710000 15                 TRA     s:11439

      408    11437
      409    11438    2       CASE(%LX_ETT_ITEM);

      410    11439    2        CALL Z8CO$INTEGER_CHECK_NO_ERROR (ID$)

  11439 15 000337   200003 630500                    EPPR0   @ID$,,AUTO
        15 000340   000004 631400 16                 EPPR1   4
        15 000341   000245 701000 15                 TSX1    s:11414
        15 000342   000344 702000 15                 TSX2    s:11455
        15 000343   000370 710000 15                 TRA     s:11475+1

      411    11440    2           WHENALTRETURN
      412    11441    3             DO;

      413    11442                    %CONDITIONAL_ERROR (@LX_ITEM$ = ID$,
      414    11443                                        @ERROR#   = %E$MUST_BE_INTEGER,
      415    11444                                        @LINE     = ID$ -> LX_ETT_ITEM.LINE,
PL6.E3A0      #003=Z8CO$IDENTIFIER_CHECKS File=Z8CO.:Z8A6TSI                     SAT 08/09/97 11:01 Page:84
      416    11445                                        @COLUMN   = ID$ -> LX_ETT_ITEM.COLUMN);

  11455 15 000344   200003 470500                    LDP0    @ID$,,AUTO
        15 000345   000000 471500                    LDP1    0,,PR0
        15 000346   100000 236100                    LDQ     0,,PR1
        15 000347   400000 316007                    CANQ    -131072,DL
        15 000350   000367 601000 15                 TNZ     s:11475

  11457 15 000351   100006 633500                    EPPR3   6,,PR1
        15 000352   200014 453500                    STP3    TYPE_DESC+6,,AUTO
        15 000353   100005 634500                    EPPR4   5,,PR1
        15 000354   200013 454500                    STP4    TYPE_DESC+5,,AUTO
        15 000355   000010 236000 16                 LDQ     8
        15 000356   200012 756100                    STQ     TYPE_DESC+4,,AUTO
        15 000357   200012 630500                    EPPR0   TYPE_DESC+4,,AUTO
        15 000360   000000 631400 16                 EPPR1   0
        15 000361   000000 701000 xent               TSX1    Z8AE$ERROR
        15 000362   000000 011000                    NOP     0

  11466 15 000363   200003 470500                    LDP0    @ID$,,AUTO
        15 000364   000000 471500                    LDP1    0,,PR0
        15 000365   400000 236007                    LDQ     -131072,DL
        15 000366   100000 256100                    ORSQ    0,,PR1

      417    11475    3               ALTRETURN;

  11475 15 000367   000000 702200 xent               TSX2  ! X66_AALT
        15 000370   000427 710000 15                 TRA     s:11522

      418    11476    3             END;
      419    11477
      420    11478    2       CASE(%LX_TERMINAL);

      421    11479    2         CALL Z8CO$CHECK_INTEGER_TERMINAL (ID$)

  11479 15 000371   200003 630500                    EPPR0   @ID$,,AUTO
        15 000372   000004 631400 16                 EPPR1   4
PL6.E3A0      #003=Z8CO$IDENTIFIER_CHECKS File=Z8CO.:Z8A6TSI                     SAT 08/09/97 11:01 Page:85
        15 000373   000000 701000 xent               TSX1    Z8CO$CHECK_INTEGER_TERMINAL
        15 000374   000376 702000 15                 TSX2    s:11495
        15 000375   000422 710000 15                 TRA     s:11515+1

      422    11480    2           WHENALTRETURN
      423    11481    3            DO;

      424    11482                   %CONDITIONAL_ERROR (@LX_ITEM$ = ID$,
      425    11483                                       @ERROR#   = %E$MUST_BE_INTEGER,
      426    11484                                       @LINE     = ID$ -> LX_ETT_ITEM.LINE,
      427    11485                                       @COLUMN   = ID$ -> LX_ETT_ITEM.COLUMN);

  11495 15 000376   200003 470500                    LDP0    @ID$,,AUTO
        15 000377   000000 471500                    LDP1    0,,PR0
        15 000400   100000 236100                    LDQ     0,,PR1
        15 000401   400000 316007                    CANQ    -131072,DL
        15 000402   000421 601000 15                 TNZ     s:11515

  11497 15 000403   100006 633500                    EPPR3   6,,PR1
        15 000404   200014 453500                    STP3    TYPE_DESC+6,,AUTO
        15 000405   100005 634500                    EPPR4   5,,PR1
        15 000406   200013 454500                    STP4    TYPE_DESC+5,,AUTO
        15 000407   000010 236000 16                 LDQ     8
        15 000410   200012 756100                    STQ     TYPE_DESC+4,,AUTO
        15 000411   200012 630500                    EPPR0   TYPE_DESC+4,,AUTO
        15 000412   000000 631400 16                 EPPR1   0
        15 000413   000000 701000 xent               TSX1    Z8AE$ERROR
        15 000414   000000 011000                    NOP     0

  11506 15 000415   200003 470500                    LDP0    @ID$,,AUTO
        15 000416   000000 471500                    LDP1    0,,PR0
        15 000417   400000 236007                    LDQ     -131072,DL
        15 000420   100000 256100                    ORSQ    0,,PR1

      428    11515    3               ALTRETURN;

  11515 15 000421   000000 702200 xent               TSX2  ! X66_AALT
PL6.E3A0      #003=Z8CO$IDENTIFIER_CHECKS File=Z8CO.:Z8A6TSI                     SAT 08/09/97 11:01 Page:86
        15 000422   000427 710000 15                 TRA     s:11522

      429    11516    3            END;
      430    11517
      431    11518    2       CASE(ELSE);

      432    11519    2         CALL Z8AE$ERROR(%E$UNEXPECTED_CASE);

  11519 15 000423   000006 630400 16                 EPPR0   6
        15 000424   000004 631400 16                 EPPR1   4
        15 000425   000000 701000 xent               TSX1    Z8AE$ERROR
        15 000426   000000 011000                    NOP     0

      433    11520    2     END;

      434    11521
      435    11522    1     RETURN;

  11522 15 000427   000000 702200 xent               TSX2  ! X66_ARET

      436    11523
      437    11524        %EJECT;
PL6.E3A0      #003=Z8CO$IDENTIFIER_CHECKS File=Z8CO.:Z8A6TSI                     SAT 08/09/97 11:01 Page:87
      438    11525    1   Z8CO$P_CHECK:ENTRY(ID$) ALTRET;

  11525 15 000430   000000 700200 xent  Z8CO$P_CHECK TSX0  ! X66_AUTO_1
        15 000431   000016 000001                    ZERO    14,1

      439    11526
      440    11527    1        CALL Z8AU$TYPE_DESCRIPTOR(ID$ -> LX_ETT_ITEM.ETT$, TYPE_DESC);

  11527 15 000432   200003 470500                    LDP0    @ID$,,AUTO
        15 000433   000000 471500                    LDP1    0,,PR0
        15 000434   200006 633500                    EPPR3   TYPE_DESC,,AUTO
        15 000435   200013 453500                    STP3    TYPE_DESC+5,,AUTO
        15 000436   100001 634500                    EPPR4   1,,PR1
        15 000437   200012 454500                    STP4    TYPE_DESC+4,,AUTO
        15 000440   200012 630500                    EPPR0   TYPE_DESC+4,,AUTO
        15 000441   000003 631400 16                 EPPR1   3
        15 000442   000000 701000 xent               TSX1    Z8AU$TYPE_DESCRIPTOR
        15 000443   000000 011000                    NOP     0

      441    11528
      442    11529    1        IF TYPE_DESC.DESC.NDSC.SF > 0

  11529 15 000444   200007 236100                    LDQ     TYPE_DESC+1,,AUTO
        15 000445   000030 736000                    QLS     24
        15 000446   000036 732000                    QRS     30
        15 000447   000000 116003                    CMPQ    0,DU
        15 000450   000460 605400 15                 TPNZ    s:11545
        15 000451   000011 676000 16                 ERQ     9
        15 000452   000001 036007                    ADLQ    1,DL
        15 000453   200012 756100                    STQ     TYPE_DESC+4,,AUTO
        15 000454   200007 236100                    LDQ     TYPE_DESC+1,,AUTO
        15 000455   000077 376007                    ANQ     63,DL
        15 000456   200012 116100                    CMPQ    TYPE_DESC+4,,AUTO
        15 000457   000504 605000 15                 TPL     s:11568

      443    11530    1        OR - TYPE_DESC.DESC.NDSC.SF > TYPE_DESC.DESC.NDSC.N THEN
      444    11531    2          DO;
PL6.E3A0      #003=Z8CO$IDENTIFIER_CHECKS File=Z8CO.:Z8A6TSI                     SAT 08/09/97 11:01 Page:88

      445    11532                 %CONDITIONAL_ERROR (@LX_ITEM$ = ID$,
      446    11533                                     @ERROR# = %E$NO_P_IN_PICTURE,
      447    11534                                     @LINE = ID$ -> LX_ETT_ITEM.LINE,
      448    11535                                     @COLUMN = ID$ -> LX_ETT_ITEM.COLUMN);

  11545 15 000460   200003 470500                    LDP0    @ID$,,AUTO
        15 000461   000000 471500                    LDP1    0,,PR0
        15 000462   100000 236100                    LDQ     0,,PR1
        15 000463   400000 316007                    CANQ    -131072,DL
        15 000464   000503 601000 15                 TNZ     s:11565

  11547 15 000465   100006 633500                    EPPR3   6,,PR1
        15 000466   200014 453500                    STP3    TYPE_DESC+6,,AUTO
        15 000467   100005 634500                    EPPR4   5,,PR1
        15 000470   200013 454500                    STP4    TYPE_DESC+5,,AUTO
        15 000471   000013 236000 16                 LDQ     11
        15 000472   200012 756100                    STQ     TYPE_DESC+4,,AUTO
        15 000473   200012 630500                    EPPR0   TYPE_DESC+4,,AUTO
        15 000474   000000 631400 16                 EPPR1   0
        15 000475   000000 701000 xent               TSX1    Z8AE$ERROR
        15 000476   000000 011000                    NOP     0

  11556 15 000477   200003 470500                    LDP0    @ID$,,AUTO
        15 000500   000000 471500                    LDP1    0,,PR0
        15 000501   400000 236007                    LDQ     -131072,DL
        15 000502   100000 256100                    ORSQ    0,,PR1

      449    11565    2            ALTRETURN;

  11565 15 000503   000000 702200 xent               TSX2  ! X66_AALT

      450    11566    2          END;
      451    11567
      452    11568    1        RETURN;

  11568 15 000504   000000 702200 xent               TSX2  ! X66_ARET
PL6.E3A0      #003=Z8CO$IDENTIFIER_CHECKS File=Z8CO.:Z8A6TSI                     SAT 08/09/97 11:01 Page:89

      453    11569
      454    11570
      455    11571        %EJECT;
PL6.E3A0      #003=Z8CO$IDENTIFIER_CHECKS File=Z8CO.:Z8A6TSI                     SAT 08/09/97 11:01 Page:90
      456    11572    1   Z8CO$UNSIGNED_CHECK : ENTRY (ID$) ALTRET;

  11572 15 000505   000000 700200 xent  Z8CO$UNSIGN* TSX0  ! X66_AUTO_1
        15 000506   000016 000001                    ZERO    14,1

      457    11573
      458    11574    1        CALL Z8AU$TYPE_DESCRIPTOR (ID$ -> LX_ETT_ITEM.ETT$, TYPE_DESC);

  11574 15 000507   200003 470500                    LDP0    @ID$,,AUTO
        15 000510   000000 471500                    LDP1    0,,PR0
        15 000511   200006 633500                    EPPR3   TYPE_DESC,,AUTO
        15 000512   200013 453500                    STP3    TYPE_DESC+5,,AUTO
        15 000513   100001 634500                    EPPR4   1,,PR1
        15 000514   200012 454500                    STP4    TYPE_DESC+4,,AUTO
        15 000515   200012 630500                    EPPR0   TYPE_DESC+4,,AUTO
        15 000516   000003 631400 16                 EPPR1   3
        15 000517   000000 701000 xent               TSX1    Z8AU$TYPE_DESCRIPTOR
        15 000520   000000 011000                    NOP     0

      459    11575
      460    11576    2        DO CASE (TYPE_DESC.TYPE);

  11576 15 000521   200006 235100                    LDA     TYPE_DESC,,AUTO
        15 000522   000024 115007                    CMPA    20,DL
        15 000523   000525 602005 15                 TNC     s:11576+4,AL
        15 000524   000625 710000 15                 TRA     s:11658
        15 000525   000551 710000 15                 TRA     s:11579
        15 000526   000625 710000 15                 TRA     s:11658
        15 000527   000625 710000 15                 TRA     s:11658
        15 000530   000601 710000 15                 TRA     s:11631
        15 000531   000601 710000 15                 TRA     s:11631
        15 000532   000601 710000 15                 TRA     s:11631
        15 000533   000625 710000 15                 TRA     s:11658
        15 000534   000625 710000 15                 TRA     s:11658
        15 000535   000625 710000 15                 TRA     s:11658
        15 000536   000625 710000 15                 TRA     s:11658
        15 000537   000625 710000 15                 TRA     s:11658
PL6.E3A0      #003=Z8CO$IDENTIFIER_CHECKS File=Z8CO.:Z8A6TSI                     SAT 08/09/97 11:01 Page:91
        15 000540   000551 710000 15                 TRA     s:11579
        15 000541   000625 710000 15                 TRA     s:11658
        15 000542   000625 710000 15                 TRA     s:11658
        15 000543   000625 710000 15                 TRA     s:11658
        15 000544   000625 710000 15                 TRA     s:11658
        15 000545   000625 710000 15                 TRA     s:11658
        15 000546   000625 710000 15                 TRA     s:11658
        15 000547   000625 710000 15                 TRA     s:11658
        15 000550   000551 710000 15                 TRA     s:11579

      461    11577
      462    11578    2          CASE (%TYD, %TYF, %TYC);

      463    11579    2            IF TYPE_DESC.DESC.NDSC.S ~= %NO_SIGN THEN

  11579 15 000551   200007 236100                    LDQ     TYPE_DESC+1,,AUTO
        15 000552   030000 376007                    ANQ     12288,DL
        15 000553   030000 116007                    CMPQ    12288,DL
        15 000554   000625 600000 15                 TZE     s:11658

      464    11580    3              DO;

      465    11581                     %CONDITIONAL_ERROR (@LX_ITEM$ = ID$,
      466    11582                                         @ERROR#   = %E$MUST_BE_UNSIGNED,
      467    11583                                         @LINE     = ID$ -> LX_ITEM.LINE,
      468    11584                                         @COLUMN   = ID$ -> LX_ITEM.COLUMN);

  11594 15 000555   200003 470500                    LDP0    @ID$,,AUTO
        15 000556   000000 471500                    LDP1    0,,PR0
        15 000557   100000 236100                    LDQ     0,,PR1
        15 000560   400000 316007                    CANQ    -131072,DL
        15 000561   000600 601000 15                 TNZ     s:11614

  11596 15 000562   100006 633500                    EPPR3   6,,PR1
        15 000563   200014 453500                    STP3    TYPE_DESC+6,,AUTO
        15 000564   100005 634500                    EPPR4   5,,PR1
        15 000565   200013 454500                    STP4    TYPE_DESC+5,,AUTO
PL6.E3A0      #003=Z8CO$IDENTIFIER_CHECKS File=Z8CO.:Z8A6TSI                     SAT 08/09/97 11:01 Page:92
        15 000566   000015 236000 16                 LDQ     13
        15 000567   200012 756100                    STQ     TYPE_DESC+4,,AUTO
        15 000570   200012 630500                    EPPR0   TYPE_DESC+4,,AUTO
        15 000571   000000 631400 16                 EPPR1   0
        15 000572   000000 701000 xent               TSX1    Z8AE$ERROR
        15 000573   000000 011000                    NOP     0

  11605 15 000574   200003 470500                    LDP0    @ID$,,AUTO
        15 000575   000000 471500                    LDP1    0,,PR0
        15 000576   400000 236007                    LDQ     -131072,DL
        15 000577   100000 256100                    ORSQ    0,,PR1

      469    11614    3                ALTRETURN;

  11614 15 000600   000000 702200 xent               TSX2  ! X66_AALT

      470    11615    3              END;
      471    11616
      472    11617    2          CASE (%TYR, %TYQ, %TYO);

      473    11618                 %CONDITIONAL_ERROR (@LX_ITEM$ = ID$,
      474    11619                                     @ERROR#   = %E$MUST_BE_UNSIGNED,
      475    11620                                     @LINE     = ID$ -> LX_ITEM.LINE,
      476    11621                                     @COLUMN   = ID$ -> LX_ITEM.COLUMN);

  11631 15 000601   200003 470500                    LDP0    @ID$,,AUTO
        15 000602   000000 471500                    LDP1    0,,PR0
        15 000603   100000 236100                    LDQ     0,,PR1
        15 000604   400000 316007                    CANQ    -131072,DL
        15 000605   000624 601000 15                 TNZ     s:11651

  11633 15 000606   100006 633500                    EPPR3   6,,PR1
        15 000607   200014 453500                    STP3    TYPE_DESC+6,,AUTO
        15 000610   100005 634500                    EPPR4   5,,PR1
        15 000611   200013 454500                    STP4    TYPE_DESC+5,,AUTO
        15 000612   000015 236000 16                 LDQ     13
        15 000613   200012 756100                    STQ     TYPE_DESC+4,,AUTO
PL6.E3A0      #003=Z8CO$IDENTIFIER_CHECKS File=Z8CO.:Z8A6TSI                     SAT 08/09/97 11:01 Page:93
        15 000614   200012 630500                    EPPR0   TYPE_DESC+4,,AUTO
        15 000615   000000 631400 16                 EPPR1   0
        15 000616   000000 701000 xent               TSX1    Z8AE$ERROR
        15 000617   000000 011000                    NOP     0

  11642 15 000620   200003 470500                    LDP0    @ID$,,AUTO
        15 000621   000000 471500                    LDP1    0,,PR0
        15 000622   400000 236007                    LDQ     -131072,DL
        15 000623   100000 256100                    ORSQ    0,,PR1

      477    11651    2            ALTRETURN;

  11651 15 000624   000000 702200 xent               TSX2  ! X66_AALT

      478    11652
      479    11653    2          CASE (ELSE);

      480    11654                 /* Peachy */
      481    11655
      482    11656    2        END; /* Case */

      483    11657
      484    11658    1   END Z8CO$IDENTIFIER_CHECKS;

  11658 15 000625   000000 702200 xent               TSX2  ! X66_ARET
      485    11659        %EOD;

PL6.E3A0      #003=Z8CO$IDENTIFIER_CHECKS File=Z8CO.:Z8A6TSI                     SAT 08/09/97 11:01 Page:94
--  Include file information  --

   Z8A_ETT.:Z8A6TOU  cannot be made into a system file and is referenced.
   Z8A_DNT.:Z8A6TOU  cannot be made into a system file and is referenced.
   Z8A_ERR_NUMS.:Z8A6TOU  is referenced.
   Z8E_NEW_ILL.:Z8A6TOU  is referenced.
   Z8E_MACROS.:Z8A6TOU  cannot be made into a system file and is referenced.
   Z8A_LEX_SYMB.:Z8A6TOU  cannot be made into a system file and is referenced.
   Z8E_STACKS.:Z8A6TOU  cannot be made into a system file and is referenced.
   Z8A_ST.:Z8A6TOU  cannot be made into a system file and is referenced.
   Z8A_TYPES.:Z8A6TOU  is referenced.
   Z8A_COMCOM.:Z8A6TOU  cannot be made into a system file and is referenced.
   X8A_COM_MACS.:X8A6TOU  is referenced.
   Z8A_NAMES.:Z8A6TOU  is referenced.
   Z8A_SUPP_MAC.:Z8A6TOU  is referenced.
   Z8A_DEFC.:Z8A6TOU  cannot be made into a system file and is referenced.
      No diagnostics issued in procedure Z8CO$IDENTIFIER_CHECKS.
PL6.E3A0      #003=Z8CO$IDENTIFIER_CHECKS File=Z8CO.:Z8A6TSI                     SAT 08/09/97 11:01 Page:95

 **** Variables and constants ****

  ****  Section 000 LblCom ITERATION

  ****  Scalars and arrays  ****
OctLoc.c.b A Datatyp(siz) R M Lvl/name                 OctLoc.c.b A Datatyp(siz) R M Lvl/name

     0-0-0/w SBIN              1 ITERATION

  ****  Section 001 LblCom ST$

  ****  Scalars and arrays  ****
OctLoc.c.b A Datatyp(siz) R M Lvl/name                 OctLoc.c.b A Datatyp(siz) R M Lvl/name

     0-0-0/w PTR         r     1 ST$

  ****  Section 002 LblCom ST_

  ****  Scalars and arrays  ****
OctLoc.c.b A Datatyp(siz) R M Lvl/name                 OctLoc.c.b A Datatyp(siz) R M Lvl/name

     0-0-0/w STRC(180)         1 ST_

  ****  Section 003 LblCom LEX_SYMBOL

  ****  Scalars and arrays  ****
OctLoc.c.b A Datatyp(siz) R M Lvl/name                 OctLoc.c.b A Datatyp(siz) R M Lvl/name

     0-0-0/w STRC(3240)  r     1 LEX_SYMBOL                 0-0-0/w STRC(3240)        1 LEX_SYMBOL_WORDS

  ****  Section 004 LblCom CURRENT_LEX_SYMBOL$

  ****  Scalars and arrays  ****
OctLoc.c.b A Datatyp(siz) R M Lvl/name                 OctLoc.c.b A Datatyp(siz) R M Lvl/name

     0-0-0/w PTR         r     1 CURRENT_LEX_SYMBOL$

PL6.E3A0      #003=Z8CO$IDENTIFIER_CHECKS File=Z8CO.:Z8A6TSI                     SAT 08/09/97 11:01 Page:96
  ****  Section 005 LblCom TEMP_LEX_SYMBOL

  ****  Scalars and arrays  ****
OctLoc.c.b A Datatyp(siz) R M Lvl/name                 OctLoc.c.b A Datatyp(siz) R M Lvl/name

     0-0-0/w STRC(3240)        1 TEMP_LEX_SYMBOL

  ****  Section 006 LblCom TEMP_LEX_SYMBOL2

  ****  Scalars and arrays  ****
OctLoc.c.b A Datatyp(siz) R M Lvl/name                 OctLoc.c.b A Datatyp(siz) R M Lvl/name

     0-0-0/w STRC(3240)        1 TEMP_LEX_SYMBOL2

  ****  Section 007 LblCom DNT$

  ****  Scalars and arrays  ****
OctLoc.c.b A Datatyp(siz) R M Lvl/name                 OctLoc.c.b A Datatyp(siz) R M Lvl/name

     0-0-0/w PTR         r     1 DNT$

  ****  Section 008 LblCom DNT_

  ****  Scalars and arrays  ****
OctLoc.c.b A Datatyp(siz) R M Lvl/name                 OctLoc.c.b A Datatyp(siz) R M Lvl/name

     0-0-0/w STRC(180)         1 DNT_

  ****  Section 009 LblCom DNT_BUCKET_NUMBER

  ****  Scalars and arrays  ****
OctLoc.c.b A Datatyp(siz) R M Lvl/name                 OctLoc.c.b A Datatyp(siz) R M Lvl/name

     0-0-0/w UBIN              1 DNT_BUCKET_NUMBER

  ****  Section 010 LblCom DNT_OF_1$

PL6.E3A0      #003=Z8CO$IDENTIFIER_CHECKS File=Z8CO.:Z8A6TSI                     SAT 08/09/97 11:01 Page:97
  ****  Scalars and arrays  ****
OctLoc.c.b A Datatyp(siz) R M Lvl/name                 OctLoc.c.b A Datatyp(siz) R M Lvl/name

     0-0-0/w PTR               1 DNT_OF_1$

  ****  Section 011 LblCom ETT$

  ****  Scalars and arrays  ****
OctLoc.c.b A Datatyp(siz) R M Lvl/name                 OctLoc.c.b A Datatyp(siz) R M Lvl/name

     0-0-0/w PTR         r     1 ETT$

  ****  Section 012 LblCom HEAD_ETT$

  ****  Scalars and arrays  ****
OctLoc.c.b A Datatyp(siz) R M Lvl/name                 OctLoc.c.b A Datatyp(siz) R M Lvl/name

     0-0-0/w PTR               1 HEAD_ETT$

  ****  Section 013 LblCom ETT_BUCKETS

  ****  Scalars and arrays  ****
OctLoc.c.b A Datatyp(siz) R M Lvl/name                 OctLoc.c.b A Datatyp(siz) R M Lvl/name

     0-0-0/w PTR               1 ETT_BUCKETS(0:511)

  ****  Section 014 LblCom ETT_

  ****  Scalars and arrays  ****
OctLoc.c.b A Datatyp(siz) R M Lvl/name                 OctLoc.c.b A Datatyp(siz) R M Lvl/name

     0-0-0/w STRC(180)         1 ETT_

  ****  Auto variables  ****

  ****  Scalars and arrays  ****
OctLoc.c.b A Datatyp(siz) R M Lvl/name                 OctLoc.c.b A Datatyp(siz) R M Lvl/name
PL6.E3A0      #003=Z8CO$IDENTIFIER_CHECKS File=Z8CO.:Z8A6TSI                     SAT 08/09/97 11:01 Page:98

     3-0-0/w PTR         r     1 @ID$                       4-0-0/w SBIN              1 ERROR#
    *0-0-0/w PTR         r     1 ID$                        6-0-0/d STRC(144)   r     1 TYPE_DESC

  ****  SYMREF variables  ****

  ****  Scalars and arrays  ****
OctLoc.c.b A Datatyp(siz) R M Lvl/name                 OctLoc.c.b A Datatyp(siz) R M Lvl/name

     0-0-0/d STRC(13248)       1 COMCOM

  ****  BASED and DCB variables  ****

  ****  Scalars and arrays  ****
OctLoc.c.b A Datatyp(siz) R M Lvl/name                 OctLoc.c.b A Datatyp(siz) R M Lvl/name

     0-0-0/w STRC(288)         1 ADD_STMT                   0-0-0/w STRC(396)         1 ALPHABET
     0-0-0/w STRC(396)         1 ARRAY                      0-0-0/w ASTR(324)   r     1 BASED_LEX_SYMBOL
     0-0-0/w STRC(360)         1 BASED_LEX_SYMBOL_WORDS
     0-0-0/w STRC(288)         1 BINARY_OP                  0-0-0/w STRC(396)         1 BLOCK
     0-0-0/w STRC(288)         1 CALL_STMT                  0-0-0/w STRC(396)         1 CD
     0-0-0/w CHAR(4096)        1 CHARS                      0-0-0/w STRC(396)         1 CLASS
     0-0-0/w STRC(288)         1 COMPUTE_STMT               0-0-0/w STRC(396)         1 CONDITION
     0-0-0/w STRC(396)         1 CONST                      0-0-0/w STRC(72)          1 CONT
     0-0-0/w STRC(396)         1 DB                         0-0-0/w STRC(396)         1 DCB_
     0-0-0/w STRC(288)         1 DEFERED_IDENTIFIER         0-0-0/w STRC(252)         1 DEFERED_ID_TREE
     0-0-0/w STRC(288)         1 DEFERED_QUAL_ID            0-0-0/w STRC(288)         1 DEFERED_SUM_CLAUSE
     0-0-0/w STRC(288)         1 DEFERED_SUM_CLAUSE_LIST
     0-0-0/w STRC(288)         1 DELETE_STMT                0-0-0/w STRC(288)         1 DIVIDE_STMT
     0-0-0/w STRC(396)         1 DML_ITEM                   0-0-0/w ASTR(180)   r     1 DNT
     0-0-0/w STRC(180)   r     1 ETT                        0-0-0/w STRC(396)         1 FD
     0-0-0/w STRC(288)         1 ILS_LIST                   0-0-0/w STRC(288)         1 INSPECT_1_STMT
     0-0-0/w STRC(288)         1 INSPECT_2_STMT             0-0-0/w STRC(288)         1 INSPECT_4_STMT
     0-0-0/w STRC(396)         1 INTDEF                     0-0-0/w STRC(396)         1 LABEL
     0-0-0/w STRC(288)         1 LA_ITEM                    0-0-0/w STRC(504)         1 LX_CD_INPUT
     0-0-0/w STRC(324)         1 LX_CD_I_O                  0-0-0/w STRC(396)         1 LX_CD_OUTPUT
     0-0-0/w STRC(288)   r     1 LX_ETT_ITEM                0-0-0/w STRC(288)   r     1 LX_ITEM
PL6.E3A0      #003=Z8CO$IDENTIFIER_CHECKS File=Z8CO.:Z8A6TSI                     SAT 08/09/97 11:01 Page:99
     0-0-0/w STRC(288)         1 LX_LARGE                   0-0-0/w STRC(288)         1 LX_LIST
     0-0-0/w STRC(1224)        1 LX_REC_DECL                0-0-0/w STRC(864)         1 LX_REPORT_REC
     0-0-0/w STRC(288)   r     1 LX_TERMINAL                0-0-0/w STRC(396)         1 MNEMONIC
     0-0-0/w STRC(288)         1 MULTIPLY_STMT              0-0-0/w STRC(36864)       1 PAGE
     0-0-0/w STRC(396)         1 PARA                       0-0-0/w STRC(396)         1 PROC_
     0-0-0/w STRC(396)         1 PROC_DEF                   0-0-0/w STRC(396)         1 RD
     0-0-0/w STRC(288)         1 READ_STMT                  0-0-0/w STRC(288)         1 REWRITE_STMT
     0-0-0/w STRC(396)         1 SCALAR                     0-0-0/w STRC(396)         1 SD
     0-0-0/w STRC(396)         1 SECTION                    0-0-0/w STRC(396)         1 SEGMENT
     0-0-0/w STRC(396)         1 ST                         0-0-0/w STRC(288)         1 START_STMT
     0-0-0/w STRC(252)         1 STRING_STMT                0-0-0/w STRC(288)         1 SUBTRACT_STMT
     0-0-0/w STRC(396)         1 SWITCH                     0-0-0/w STRC(396)         1 SYMBOLIC_CHAR
     0-0-0/w STRC(396)         1 SYMDEF_                    0-0-0/w STRC(396)         1 SYMREF_
     0-0-0/w STRC(396)         1 TEMP                       0-0-0/w STRC(288)         1 UNARY_OP
     0-0-0/w STRC(288)         1 UNSTRING_STMT              0-0-0/w STRC(396)         1 VARIABLE
     0-0-0/w STRC(288)         1 WRITE_STMT


   Procedure Z8CO$IDENTIFIER_CHECKS requires 406 words for executable code.
   Procedure Z8CO$IDENTIFIER_CHECKS requires 14 words of local(AUTO) storage.

PL6.E3A0      #004=Z8CO$CHECK_INTEGER_TERMINAL File=Z8CO.:Z8A6TSI                SAT 08/09/97 11:04 Page:100
      486        1        /*T***********************************************************/
      487        2        /*T*                                                         */
      488        3        /*T* Copyright (c) Bull HN Information Systems Inc., 1997    */
      489        4        /*T*                                                         */
      490        5        /*T***********************************************************/
      491        6        Z8CO$CHECK_INTEGER_TERMINAL : PROC (LX_ITEM$) ALTRET;
      492        7
      493        8    1     DCL LX_ITEM$ PTR;
      494        9
      495       10          %EQU PHASE = 1;
      496       11          %INCLUDE Z8A_DEFC;
      497       79          %INCLUDE Z8A_SUPP_MAC;
      498     2479          %INCLUDE Z8E_STACKS;
      499     4745          %INCLUDE Z8E_WINDOW;
      500     6815          %INCLUDE Z8E_O1COM;
      501     7576          %INCLUDE Z8A_DNT;
      502     7797
      503     7798    1     DCL Z8AU$CREATE_NUM_DESC ENTRY (3);
      504     7799
      505     7800          %DCL_NUM_DESC;
      506     7809
      507     7810
      508     7811    1     IF LX_ITEM$ -> LX_ITEM.ID = %LX_TERMINAL THEN
      509     7812
      510     7813    2       DO SELECT (LX_ITEM$ -> LX_TERMINAL.SYMBOL);
      511     7814
      512     7815    2         SELECT(%NUMBER);
      513     7816
      514     7817    2           RETURN;
      515     7818
      516     7819    2         SELECT(%NUMERIC_LITERAL);
      517     7820
      518     7821    2           CALL Z8AU$CREATE_NUM_DESC (LX_ITEM$ -> LX_TERMINAL.DNT$ -> DNT.TEXT.NAME,
      519     7822    2                                      BINBIT(LX_ITEM$ -> LX_TERMINAL.DNT$ -> DNT.TEXT.
              7822                                               LENGTH, 36),
      520     7823    2                                      NUM_DESC);
      521     7824    2           IF NUM_DESC.DIGITS_RIGHT = 0
PL6.E3A0      #004=Z8CO$CHECK_INTEGER_TERMINAL File=Z8CO.:Z8A6TSI                SAT 08/09/97 11:04 Page:101
      522     7825    2               AND NUM_DESC.DIGITS_EXPONENT = 0
      523     7826    2               AND NUM_DESC.EXPONENT_SIGN_VALUE = %NO_SIGN_VALUE THEN
      524     7827    2             RETURN;
      525     7828
      526     7829    2         SELECT(%RSV_WRD_ZEROES);
      527     7830
      528     7831    2           RETURN;
      529     7832    2       END;
      530     7833
      531     7834    1     ALTRETURN;
      532     7835
      533     7836
      534     7837    1   Z8CO$CHECK_POS_INT_TERM : ENTRY(LX_ITEM$) ALTRET;
      535     7838
      536     7839
      537     7840    1     IF LX_ITEM$ -> LX_ITEM.ID = %LX_TERMINAL THEN
      538     7841    2       DO SELECT (LX_ITEM$ -> LX_TERMINAL.SYMBOL);
      539     7842
      540     7843    2         SELECT(%NUMBER);
      541     7844
      542     7845    2           RETURN;
      543     7846
      544     7847    2         SELECT(%NUMERIC_LITERAL);
      545     7848
      546     7849    2           CALL Z8AU$CREATE_NUM_DESC (LX_ITEM$ -> LX_TERMINAL.DNT$ -> DNT.TEXT.NAME,
      547     7850    2                                      BINBIT(LX_ITEM$ -> LX_TERMINAL.DNT$ -> DNT.TEXT.
              7850                                               LENGTH, 36),
      548     7851    2                                      NUM_DESC);
      549     7852    2           IF NUM_DESC.DIGITS_RIGHT = 0
      550     7853    2               AND NUM_DESC.DIGITS_EXPONENT = 0
      551     7854    2               AND NUM_DESC.EXPONENT_SIGN_VALUE = %NO_SIGN_VALUE
      552     7855    2               AND NUM_DESC.MANTISSA_SIGN_VALUE ~= %MINUS_SIGN_VALUE THEN
      553     7856    2             RETURN;
      554     7857    2       END;
      555     7858
      556     7859    1     ALTRETURN;
      557     7860
PL6.E3A0      #004=Z8CO$CHECK_INTEGER_TERMINAL File=Z8CO.:Z8A6TSI                SAT 08/09/97 11:04 Page:102
      558     7861
      559     7862    1   Z8CO$CHECK_NON_NEG_INT_TERM : ENTRY(LX_ITEM$) ALTRET;
      560     7863
      561     7864    1     IF LX_ITEM$ -> LX_ITEM.ID = %LX_TERMINAL THEN
      562     7865    2       DO SELECT (LX_ITEM$ -> LX_TERMINAL.SYMBOL);
      563     7866
      564     7867    2         SELECT(%NUMBER);
      565     7868
      566     7869    2           RETURN;
      567     7870
      568     7871    2         SELECT(%NUMERIC_LITERAL);
      569     7872
      570     7873    2           CALL Z8AU$CREATE_NUM_DESC (LX_ITEM$ -> LX_TERMINAL.DNT$ -> DNT.TEXT.NAME,
      571     7874    2                                      BINBIT(LX_ITEM$ -> LX_TERMINAL.DNT$ -> DNT.TEXT.
              7874                                               LENGTH, 36),
      572     7875    2                                      NUM_DESC);
      573     7876    2           IF NUM_DESC.DIGITS_RIGHT = 0
      574     7877    2               AND NUM_DESC.DIGITS_EXPONENT = 0
      575     7878    2               AND NUM_DESC.EXPONENT_SIGN_VALUE = %NO_SIGN_VALUE
      576     7879    2               AND NUM_DESC.MANTISSA_SIGN_VALUE ~= %MINUS_SIGN_VALUE THEN
      577     7880    2             RETURN;
      578     7881
      579     7882    2         SELECT(%RSV_WRD_ZEROES);
      580     7883
      581     7884    2           RETURN;
      582     7885    2       END;
      583     7886
      584     7887    1     ALTRETURN;
      585     7888
      586     7889    1   END Z8CO$CHECK_INTEGER_TERMINAL;
      587     7890        %EOD;

PL6.E3A0      #004=Z8CO$CHECK_INTEGER_TERMINAL File=Z8CO.:Z8A6TSI                SAT 08/09/97 11:04 Page:103
--  Include file information  --

   Z8A_DNT.:Z8A6TOU  cannot be made into a system file and is referenced.
   Z8E_O1COM.:Z8A6TOU  cannot be made into a system file and is referenced.
   Z8E_WINDOW.:Z8A6TOU  is referenced.
   Z8A_LEX_SYMB.:Z8A6TOU  cannot be made into a system file and is referenced.
   Z8E_STACKS.:Z8A6TOU  cannot be made into a system file and is referenced.
   X8A_COM_MACS.:X8A6TOU  is referenced.
   Z8A_NAMES.:Z8A6TOU  is referenced.
   Z8A_SUPP_MAC.:Z8A6TOU  is referenced.
   Z8A_DEFC.:Z8A6TOU  cannot be made into a system file and is referenced.
      No diagnostics issued in procedure Z8CO$CHECK_INTEGER_TERMINAL.

   Procedure Z8CO$CHECK_INTEGER_TERMINAL requires 128 words for executable code.
   Procedure Z8CO$CHECK_INTEGER_TERMINAL requires 16 words of local(AUTO) storage.

PL6.E3A0      #004=Z8CO$CHECK_INTEGER_TERMINAL File=Z8CO.:Z8A6TSI                SAT 08/09/97 11:04 Page:104

 Object Unit name= Z8CO$CHECK_INTEGER_TERMINAL                File name= Z8CO.:Z8A6TOU
 UTS= AUG 09 '97 11:04:08.92 SAT                              Compiler= PL-6/E31         Sev=      00
 SharedLib= :SHARED_SYSTEM                                    Alt SharedLib=


    ****  Control sections  ****

 Sect   Type Bound  Init  Size OctSiz  Section name(segment info)
    0  LblCom even  none     1      1  ITERATION
    1  LblCom even  none    90    132  LEX_SYMBOL
    2  LblCom even  none     1      1  CURRENT_LEX_SYMBOL$
    3  LblCom even  none    90    132  TEMP_LEX_SYMBOL
    4  LblCom even  none    90    132  TEMP_LEX_SYMBOL2
    5  LblCom even  none     1      1  DNT$
    6  LblCom even  none     5      5  DNT_
    7  LblCom even  none     1      1  DNT_BUCKET_NUMBER
    8  LblCom even  none     1      1  DNT_OF_1$
    9   Proc  even  none   128    200  Z8CO$CHECK_INTEGER_TERMINAL
   10  RoData even  none     2      2  Z8CO$CHECK_INTEGER_TERMINAL

    ****  Entry defs  ****

                              Check   Calling
                             calling  sequence
  Sect OctLoc Primary Altret sequence   type   Parms  Name
     9      0   yes    yes     yes      Std        1  Z8CO$CHECK_INTEGER_TERMINAL
     9     52          yes     yes      Std        1  Z8CO$CHECK_POS_INT_TERM
     9    123          yes     yes      Std        1  Z8CO$CHECK_NON_NEG_INT_TERM
PL6.E3A0      #004=Z8CO$CHECK_INTEGER_TERMINAL File=Z8CO.:Z8A6TSI                SAT 08/09/97 11:04 Page:105

  ****  Entry refs  ****

         Check        Calling
        calling       sequence
Altret sequence SRef   type   Args  Name
         yes           Std       3 Z8AU$CREATE_NUM_DESC
                       nStd      0 X66_AUTO_1
                       nStd      0 X66_ARET
                       nStd      0 X66_AALT

  ****  Data refs  ****

  Flags:  r = read only, s = secondary
Flgs Name                             Flgs Name                             Flgs Name
     O1COM                                 HIER_STK_PTR                          HIER_STK
     PAGE_FORMAT                           REP_STK_PTR                           REP_STK

  ****  Segment refs  ****

  Flags:  r = read only, s = secondary
Flgs Name                             Flgs Name                             Flgs Name
     ISSID                                 NULLSID
PL6.E3A0      #004=Z8CO$CHECK_INTEGER_TERMINAL File=Z8CO.:Z8A6TSI                SAT 08/09/97 11:04 Page:106


      486        1        /*T***********************************************************/
      487        2        /*T*                                                         */
      488        3        /*T* Copyright (c) Bull HN Information Systems Inc., 1997    */
      489        4        /*T*                                                         */
      490        5        /*T***********************************************************/
      491        6        Z8CO$CHECK_INTEGER_TERMINAL : PROC (LX_ITEM$) ALTRET;

      6  9 000000   000000 700200 xent  Z8CO$CHECK_* TSX0  ! X66_AUTO_1
         9 000001   000020 000001                    ZERO    16,1

      492        7
      493        8    1     DCL LX_ITEM$ PTR;
      494        9
      495       10          %EQU PHASE = 1;
      496       11          %INCLUDE Z8A_DEFC;
      497       79          %INCLUDE Z8A_SUPP_MAC;
      498     2479          %INCLUDE Z8E_STACKS;
      499     4745          %INCLUDE Z8E_WINDOW;
      500     6815          %INCLUDE Z8E_O1COM;
      501     7576          %INCLUDE Z8A_DNT;
      502     7797
      503     7798    1     DCL Z8AU$CREATE_NUM_DESC ENTRY (3);
      504     7799
      505     7800          %DCL_NUM_DESC;
      506     7809
      507     7810
      508     7811    1     IF LX_ITEM$ -> LX_ITEM.ID = %LX_TERMINAL THEN

   7811  9 000002   200003 470500                    LDP0    @LX_ITEM$,,AUTO
         9 000003   000000 471500                    LDP1    0,,PR0
         9 000004   100000 220100                    LDX0    0,,PR1
         9 000005   000051 601000 9                  TNZ     s:7834

      509     7812
      510     7813    2       DO SELECT (LX_ITEM$ -> LX_TERMINAL.SYMBOL);

PL6.E3A0      #004=Z8CO$CHECK_INTEGER_TERMINAL File=Z8CO.:Z8A6TSI                SAT 08/09/97 11:04 Page:107
   7813  9 000006   100003 236100                    LDQ     3,,PR1
         9 000007   000026 116007                    CMPQ    22,DL
         9 000010   000015 604000 9                  TMI     s:7813+7
         9 000011   000021 600000 9                  TZE     s:7821
         9 000012   000761 116007                    CMPQ    497,DL
         9 000013   000051 601000 9                  TNZ     s:7834
         9 000014   000050 710000 9                  TRA     s:7831
         9 000015   000025 116007                    CMPQ    21,DL
         9 000016   000051 601000 9                  TNZ     s:7834
         9 000017   000020 710000 9                  TRA     s:7817

      511     7814
      512     7815    2         SELECT(%NUMBER);

      513     7816
      514     7817    2           RETURN;

   7817  9 000020   000000 702200 xent               TSX2  ! X66_ARET

      515     7818
      516     7819    2         SELECT(%NUMERIC_LITERAL);

      517     7820
      518     7821    2           CALL Z8AU$CREATE_NUM_DESC (LX_ITEM$ -> LX_TERMINAL.DNT$ -> DNT.TEXT.NAME,

   7821  9 000021   100002 473500                    LDP3    2,,PR1
         9 000022   300004 236100                    LDQ     4,,PR3
         9 000023   000022 772000                    QRL     18
         9 000024   200012 756100                    STQ     NUM_DESC+6,,AUTO
         9 000025   200004 631500                    EPPR1   NUM_DESC,,AUTO
         9 000026   200016 451500                    STP1    NUM_DESC+10,,AUTO
         9 000027   200012 634500                    EPPR4   NUM_DESC+6,,AUTO
         9 000030   200015 454500                    STP4    NUM_DESC+9,,AUTO
         9 000031   200017 453500                    STP3    NUM_DESC+11,,AUTO
         9 000032   200017 236100                    LDQ     NUM_DESC+11,,AUTO
         9 000033   000001 036000 10                 ADLQ    1
         9 000034   200014 756100                    STQ     NUM_DESC+8,,AUTO
PL6.E3A0      #004=Z8CO$CHECK_INTEGER_TERMINAL File=Z8CO.:Z8A6TSI                SAT 08/09/97 11:04 Page:108
         9 000035   200014 630500                    EPPR0   NUM_DESC+8,,AUTO
         9 000036   000000 631400 10                 EPPR1   0
         9 000037   000000 701000 xent               TSX1    Z8AU$CREATE_NUM_DESC
         9 000040   000000 011000                    NOP     0

      519     7822    2                                      BINBIT(LX_ITEM$ -> LX_TERMINAL.DNT$ -> DNT.TEXT.
              7822                                               LENGTH, 36),
      520     7823    2                                      NUM_DESC);
      521     7824    2           IF NUM_DESC.DIGITS_RIGHT = 0

   7824  9 000041   200005 235100                    LDA     NUM_DESC+1,,AUTO
         9 000042   000051 601000 9                  TNZ     s:7834
         9 000043   200006 236100                    LDQ     NUM_DESC+2,,AUTO
         9 000044   000051 601000 9                  TNZ     s:7834
         9 000045   200010 235100                    LDA     NUM_DESC+4,,AUTO
         9 000046   000051 601000 9                  TNZ     s:7834

      522     7825    2               AND NUM_DESC.DIGITS_EXPONENT = 0
      523     7826    2               AND NUM_DESC.EXPONENT_SIGN_VALUE = %NO_SIGN_VALUE THEN
      524     7827    2             RETURN;

   7827  9 000047   000000 702200 xent               TSX2  ! X66_ARET

      525     7828
      526     7829    2         SELECT(%RSV_WRD_ZEROES);

      527     7830
      528     7831    2           RETURN;

   7831  9 000050   000000 702200 xent               TSX2  ! X66_ARET

      529     7832    2       END;

      530     7833
      531     7834    1     ALTRETURN;

   7834  9 000051   000000 702200 xent               TSX2  ! X66_AALT
PL6.E3A0      #004=Z8CO$CHECK_INTEGER_TERMINAL File=Z8CO.:Z8A6TSI                SAT 08/09/97 11:04 Page:109

      532     7835
      533     7836
      534     7837    1   Z8CO$CHECK_POS_INT_TERM : ENTRY(LX_ITEM$) ALTRET;

   7837  9 000052   000000 700200 xent  Z8CO$CHECK_* TSX0  ! X66_AUTO_1
         9 000053   000020 000001                    ZERO    16,1

      535     7838
      536     7839
      537     7840    1     IF LX_ITEM$ -> LX_ITEM.ID = %LX_TERMINAL THEN

   7840  9 000054   200003 470500                    LDP0    @LX_ITEM$,,AUTO
         9 000055   000000 471500                    LDP1    0,,PR0
         9 000056   100000 220100                    LDX0    0,,PR1
         9 000057   000122 601000 9                  TNZ     s:7859

      538     7841    2       DO SELECT (LX_ITEM$ -> LX_TERMINAL.SYMBOL);

   7841  9 000060   100003 236100                    LDQ     3,,PR1
         9 000061   000025 116007                    CMPQ    21,DL
         9 000062   000122 604000 9                  TMI     s:7859
         9 000063   000067 600000 9                  TZE     s:7845
         9 000064   000026 116007                    CMPQ    22,DL
         9 000065   000122 601000 9                  TNZ     s:7859
         9 000066   000070 710000 9                  TRA     s:7849

      539     7842
      540     7843    2         SELECT(%NUMBER);

      541     7844
      542     7845    2           RETURN;

   7845  9 000067   000000 702200 xent               TSX2  ! X66_ARET

      543     7846
      544     7847    2         SELECT(%NUMERIC_LITERAL);
PL6.E3A0      #004=Z8CO$CHECK_INTEGER_TERMINAL File=Z8CO.:Z8A6TSI                SAT 08/09/97 11:04 Page:110

      545     7848
      546     7849    2           CALL Z8AU$CREATE_NUM_DESC (LX_ITEM$ -> LX_TERMINAL.DNT$ -> DNT.TEXT.NAME,

   7849  9 000070   100002 473500                    LDP3    2,,PR1
         9 000071   300004 236100                    LDQ     4,,PR3
         9 000072   000022 772000                    QRL     18
         9 000073   200012 756100                    STQ     NUM_DESC+6,,AUTO
         9 000074   200004 631500                    EPPR1   NUM_DESC,,AUTO
         9 000075   200016 451500                    STP1    NUM_DESC+10,,AUTO
         9 000076   200012 634500                    EPPR4   NUM_DESC+6,,AUTO
         9 000077   200015 454500                    STP4    NUM_DESC+9,,AUTO
         9 000100   200017 453500                    STP3    NUM_DESC+11,,AUTO
         9 000101   200017 236100                    LDQ     NUM_DESC+11,,AUTO
         9 000102   000001 036000 10                 ADLQ    1
         9 000103   200014 756100                    STQ     NUM_DESC+8,,AUTO
         9 000104   200014 630500                    EPPR0   NUM_DESC+8,,AUTO
         9 000105   000000 631400 10                 EPPR1   0
         9 000106   000000 701000 xent               TSX1    Z8AU$CREATE_NUM_DESC
         9 000107   000000 011000                    NOP     0

      547     7850    2                                      BINBIT(LX_ITEM$ -> LX_TERMINAL.DNT$ -> DNT.TEXT.
              7850                                               LENGTH, 36),
      548     7851    2                                      NUM_DESC);
      549     7852    2           IF NUM_DESC.DIGITS_RIGHT = 0

   7852  9 000110   200005 235100                    LDA     NUM_DESC+1,,AUTO
         9 000111   000122 601000 9                  TNZ     s:7859
         9 000112   200006 236100                    LDQ     NUM_DESC+2,,AUTO
         9 000113   000122 601000 9                  TNZ     s:7859
         9 000114   200010 235100                    LDA     NUM_DESC+4,,AUTO
         9 000115   000122 601000 9                  TNZ     s:7859
         9 000116   200007 235100                    LDA     NUM_DESC+3,,AUTO
         9 000117   000002 115007                    CMPA    2,DL
         9 000120   000122 600000 9                  TZE     s:7859

      550     7853    2               AND NUM_DESC.DIGITS_EXPONENT = 0
PL6.E3A0      #004=Z8CO$CHECK_INTEGER_TERMINAL File=Z8CO.:Z8A6TSI                SAT 08/09/97 11:04 Page:111
      551     7854    2               AND NUM_DESC.EXPONENT_SIGN_VALUE = %NO_SIGN_VALUE
      552     7855    2               AND NUM_DESC.MANTISSA_SIGN_VALUE ~= %MINUS_SIGN_VALUE THEN
      553     7856    2             RETURN;

   7856  9 000121   000000 702200 xent               TSX2  ! X66_ARET

      554     7857    2       END;

      555     7858
      556     7859    1     ALTRETURN;

   7859  9 000122   000000 702200 xent               TSX2  ! X66_AALT

      557     7860
      558     7861
      559     7862    1   Z8CO$CHECK_NON_NEG_INT_TERM : ENTRY(LX_ITEM$) ALTRET;

   7862  9 000123   000000 700200 xent  Z8CO$CHECK_* TSX0  ! X66_AUTO_1
         9 000124   000020 000001                    ZERO    16,1

      560     7863
      561     7864    1     IF LX_ITEM$ -> LX_ITEM.ID = %LX_TERMINAL THEN

   7864  9 000125   200003 470500                    LDP0    @LX_ITEM$,,AUTO
         9 000126   000000 471500                    LDP1    0,,PR0
         9 000127   100000 220100                    LDX0    0,,PR1
         9 000130   000177 601000 9                  TNZ     s:7887

      562     7865    2       DO SELECT (LX_ITEM$ -> LX_TERMINAL.SYMBOL);

   7865  9 000131   100003 236100                    LDQ     3,,PR1
         9 000132   000026 116007                    CMPQ    22,DL
         9 000133   000140 604000 9                  TMI     s:7865+7
         9 000134   000144 600000 9                  TZE     s:7873
         9 000135   000761 116007                    CMPQ    497,DL
         9 000136   000177 601000 9                  TNZ     s:7887
         9 000137   000176 710000 9                  TRA     s:7884
PL6.E3A0      #004=Z8CO$CHECK_INTEGER_TERMINAL File=Z8CO.:Z8A6TSI                SAT 08/09/97 11:04 Page:112
         9 000140   000025 116007                    CMPQ    21,DL
         9 000141   000177 601000 9                  TNZ     s:7887
         9 000142   000143 710000 9                  TRA     s:7869

      563     7866
      564     7867    2         SELECT(%NUMBER);

      565     7868
      566     7869    2           RETURN;

   7869  9 000143   000000 702200 xent               TSX2  ! X66_ARET

      567     7870
      568     7871    2         SELECT(%NUMERIC_LITERAL);

      569     7872
      570     7873    2           CALL Z8AU$CREATE_NUM_DESC (LX_ITEM$ -> LX_TERMINAL.DNT$ -> DNT.TEXT.NAME,

   7873  9 000144   100002 473500                    LDP3    2,,PR1
         9 000145   300004 236100                    LDQ     4,,PR3
         9 000146   000022 772000                    QRL     18
         9 000147   200012 756100                    STQ     NUM_DESC+6,,AUTO
         9 000150   200004 631500                    EPPR1   NUM_DESC,,AUTO
         9 000151   200016 451500                    STP1    NUM_DESC+10,,AUTO
         9 000152   200012 634500                    EPPR4   NUM_DESC+6,,AUTO
         9 000153   200015 454500                    STP4    NUM_DESC+9,,AUTO
         9 000154   200017 453500                    STP3    NUM_DESC+11,,AUTO
         9 000155   200017 236100                    LDQ     NUM_DESC+11,,AUTO
         9 000156   000001 036000 10                 ADLQ    1
         9 000157   200014 756100                    STQ     NUM_DESC+8,,AUTO
         9 000160   200014 630500                    EPPR0   NUM_DESC+8,,AUTO
         9 000161   000000 631400 10                 EPPR1   0
         9 000162   000000 701000 xent               TSX1    Z8AU$CREATE_NUM_DESC
         9 000163   000000 011000                    NOP     0

      571     7874    2                                      BINBIT(LX_ITEM$ -> LX_TERMINAL.DNT$ -> DNT.TEXT.
              7874                                               LENGTH, 36),
PL6.E3A0      #004=Z8CO$CHECK_INTEGER_TERMINAL File=Z8CO.:Z8A6TSI                SAT 08/09/97 11:04 Page:113
      572     7875    2                                      NUM_DESC);
      573     7876    2           IF NUM_DESC.DIGITS_RIGHT = 0

   7876  9 000164   200005 235100                    LDA     NUM_DESC+1,,AUTO
         9 000165   000177 601000 9                  TNZ     s:7887
         9 000166   200006 236100                    LDQ     NUM_DESC+2,,AUTO
         9 000167   000177 601000 9                  TNZ     s:7887
         9 000170   200010 235100                    LDA     NUM_DESC+4,,AUTO
         9 000171   000177 601000 9                  TNZ     s:7887
         9 000172   200007 235100                    LDA     NUM_DESC+3,,AUTO
         9 000173   000002 115007                    CMPA    2,DL
         9 000174   000177 600000 9                  TZE     s:7887

      574     7877    2               AND NUM_DESC.DIGITS_EXPONENT = 0
      575     7878    2               AND NUM_DESC.EXPONENT_SIGN_VALUE = %NO_SIGN_VALUE
      576     7879    2               AND NUM_DESC.MANTISSA_SIGN_VALUE ~= %MINUS_SIGN_VALUE THEN
      577     7880    2             RETURN;

   7880  9 000175   000000 702200 xent               TSX2  ! X66_ARET

      578     7881
      579     7882    2         SELECT(%RSV_WRD_ZEROES);

      580     7883
      581     7884    2           RETURN;

   7884  9 000176   000000 702200 xent               TSX2  ! X66_ARET

      582     7885    2       END;

      583     7886
      584     7887    1     ALTRETURN;

   7887  9 000177   000000 702200 xent               TSX2  ! X66_AALT
      585     7888
      586     7889    1   END Z8CO$CHECK_INTEGER_TERMINAL;
      587     7890        %EOD;
PL6.E3A0      #004=Z8CO$CHECK_INTEGER_TERMINAL File=Z8CO.:Z8A6TSI                SAT 08/09/97 11:04 Page:114

PL6.E3A0      #004=Z8CO$CHECK_INTEGER_TERMINAL File=Z8CO.:Z8A6TSI                SAT 08/09/97 11:04 Page:115
--  Include file information  --

   Z8A_DNT.:Z8A6TOU  cannot be made into a system file and is referenced.
   Z8E_O1COM.:Z8A6TOU  cannot be made into a system file and is referenced.
   Z8E_WINDOW.:Z8A6TOU  is referenced.
   Z8A_LEX_SYMB.:Z8A6TOU  cannot be made into a system file and is referenced.
   Z8E_STACKS.:Z8A6TOU  cannot be made into a system file and is referenced.
   X8A_COM_MACS.:X8A6TOU  is referenced.
   Z8A_NAMES.:Z8A6TOU  is referenced.
   Z8A_SUPP_MAC.:Z8A6TOU  is referenced.
   Z8A_DEFC.:Z8A6TOU  cannot be made into a system file and is referenced.
      No diagnostics issued in procedure Z8CO$CHECK_INTEGER_TERMINAL.
PL6.E3A0      #004=Z8CO$CHECK_INTEGER_TERMINAL File=Z8CO.:Z8A6TSI                SAT 08/09/97 11:04 Page:116

 **** Variables and constants ****

  ****  Section 000 LblCom ITERATION

  ****  Scalars and arrays  ****
OctLoc.c.b A Datatyp(siz) R M Lvl/name                 OctLoc.c.b A Datatyp(siz) R M Lvl/name

     0-0-0/w SBIN              1 ITERATION

  ****  Section 001 LblCom LEX_SYMBOL

  ****  Scalars and arrays  ****
OctLoc.c.b A Datatyp(siz) R M Lvl/name                 OctLoc.c.b A Datatyp(siz) R M Lvl/name

     0-0-0/w STRC(3240)  r     1 LEX_SYMBOL                 0-0-0/w STRC(3240)        1 LEX_SYMBOL_WORDS

  ****  Section 002 LblCom CURRENT_LEX_SYMBOL$

  ****  Scalars and arrays  ****
OctLoc.c.b A Datatyp(siz) R M Lvl/name                 OctLoc.c.b A Datatyp(siz) R M Lvl/name

     0-0-0/w PTR         r     1 CURRENT_LEX_SYMBOL$

  ****  Section 003 LblCom TEMP_LEX_SYMBOL

  ****  Scalars and arrays  ****
OctLoc.c.b A Datatyp(siz) R M Lvl/name                 OctLoc.c.b A Datatyp(siz) R M Lvl/name

     0-0-0/w STRC(3240)        1 TEMP_LEX_SYMBOL

  ****  Section 004 LblCom TEMP_LEX_SYMBOL2

  ****  Scalars and arrays  ****
OctLoc.c.b A Datatyp(siz) R M Lvl/name                 OctLoc.c.b A Datatyp(siz) R M Lvl/name

     0-0-0/w STRC(3240)        1 TEMP_LEX_SYMBOL2

PL6.E3A0      #004=Z8CO$CHECK_INTEGER_TERMINAL File=Z8CO.:Z8A6TSI                SAT 08/09/97 11:04 Page:117
  ****  Section 005 LblCom DNT$

  ****  Scalars and arrays  ****
OctLoc.c.b A Datatyp(siz) R M Lvl/name                 OctLoc.c.b A Datatyp(siz) R M Lvl/name

     0-0-0/w PTR         r     1 DNT$

  ****  Section 006 LblCom DNT_

  ****  Scalars and arrays  ****
OctLoc.c.b A Datatyp(siz) R M Lvl/name                 OctLoc.c.b A Datatyp(siz) R M Lvl/name

     0-0-0/w STRC(180)         1 DNT_

  ****  Section 007 LblCom DNT_BUCKET_NUMBER

  ****  Scalars and arrays  ****
OctLoc.c.b A Datatyp(siz) R M Lvl/name                 OctLoc.c.b A Datatyp(siz) R M Lvl/name

     0-0-0/w UBIN              1 DNT_BUCKET_NUMBER

  ****  Section 008 LblCom DNT_OF_1$

  ****  Scalars and arrays  ****
OctLoc.c.b A Datatyp(siz) R M Lvl/name                 OctLoc.c.b A Datatyp(siz) R M Lvl/name

     0-0-0/w PTR               1 DNT_OF_1$

  ****  Auto variables  ****

  ****  Scalars and arrays  ****
OctLoc.c.b A Datatyp(siz) R M Lvl/name                 OctLoc.c.b A Datatyp(siz) R M Lvl/name

     3-0-0/w PTR         r     1 @LX_ITEM$                 *0-0-0/w PTR         r     1 LX_ITEM$
     4-0-0/w STRC(216)   r     1 NUM_DESC

  ****  SYMREF variables  ****
PL6.E3A0      #004=Z8CO$CHECK_INTEGER_TERMINAL File=Z8CO.:Z8A6TSI                SAT 08/09/97 11:04 Page:118

  ****  Scalars and arrays  ****
OctLoc.c.b A Datatyp(siz) R M Lvl/name                 OctLoc.c.b A Datatyp(siz) R M Lvl/name

     0-0-0/w STRC(180)         1 HIER_STK(0:50)
     0-0-0/w SBIN              1 HIER_STK_PTR               0-0-0/d STRC(11580)       1 O1COM
     0-0-0/w STRC(144)         1 PAGE_FORMAT                0-0-0/w STRC(153)         1 REP_STK(0:50)
     0-0-0/w SBIN              1 REP_STK_PTR

  ****  BASED and DCB variables  ****

  ****  Scalars and arrays  ****
OctLoc.c.b A Datatyp(siz) R M Lvl/name                 OctLoc.c.b A Datatyp(siz) R M Lvl/name

     0-0-0/w STRC(288)         1 ADD_STMT                   0-0-0/w ASTR(324)   r     1 BASED_LEX_SYMBOL
     0-0-0/w STRC(360)         1 BASED_LEX_SYMBOL_WORDS
     0-0-0/w STRC(288)         1 BINARY_OP                  0-0-0/w STRC(288)         1 CALL_STMT
     0-0-0/w CHAR(4096)        1 CHARS                      0-0-0/w STRC(288)         1 COMPUTE_STMT
     0-0-0/w STRC(72)          1 CONT                       0-0-0/w STRC(288)         1 DEFERED_IDENTIFIER
     0-0-0/w STRC(252)         1 DEFERED_ID_TREE            0-0-0/w STRC(288)         1 DEFERED_QUAL_ID
     0-0-0/w STRC(288)         1 DEFERED_SUM_CLAUSE
     0-0-0/w STRC(288)         1 DEFERED_SUM_CLAUSE_LIST
     0-0-0/w STRC(288)         1 DELETE_STMT                0-0-0/w STRC(288)         1 DIVIDE_STMT
     0-0-0/w ASTR(180)   r     1 DNT                        0-0-0/w STRC(288)         1 ILS_LIST
     0-0-0/w STRC(288)         1 INSPECT_1_STMT             0-0-0/w STRC(288)         1 INSPECT_2_STMT
     0-0-0/w STRC(288)         1 INSPECT_4_STMT             0-0-0/w STRC(288)         1 LA_ITEM
     0-0-0/w STRC(504)         1 LX_CD_INPUT                0-0-0/w STRC(324)         1 LX_CD_I_O
     0-0-0/w STRC(396)         1 LX_CD_OUTPUT               0-0-0/w STRC(288)         1 LX_ETT_ITEM
     0-0-0/w STRC(288)   r     1 LX_ITEM                    0-0-0/w STRC(288)         1 LX_LARGE
     0-0-0/w STRC(288)         1 LX_LIST                    0-0-0/w STRC(1224)        1 LX_REC_DECL
     0-0-0/w STRC(864)         1 LX_REPORT_REC              0-0-0/w STRC(288)   r     1 LX_TERMINAL
     0-0-0/w STRC(288)         1 MULTIPLY_STMT              0-0-0/w STRC(36864)       1 PAGE
     0-0-0/w STRC(288)         1 READ_STMT                  0-0-0/w STRC(288)         1 REWRITE_STMT
     0-0-0/w STRC(288)         1 START_STMT                 0-0-0/w STRC(252)         1 STRING_STMT
     0-0-0/w STRC(288)         1 SUBTRACT_STMT              0-0-0/w STRC(288)         1 UNARY_OP
     0-0-0/w STRC(288)         1 UNSTRING_STMT              0-0-0/w STRC(288)         1 WRITE_STMT

PL6.E3A0      #004=Z8CO$CHECK_INTEGER_TERMINAL File=Z8CO.:Z8A6TSI                SAT 08/09/97 11:04 Page:119

   Procedure Z8CO$CHECK_INTEGER_TERMINAL requires 128 words for executable code.
   Procedure Z8CO$CHECK_INTEGER_TERMINAL requires 16 words of local(AUTO) storage.

PL6.E3A0      #005=Z8CO$CREATE_LIBRARY_BASE File=Z8CO.:Z8A6TSI                   SAT 08/09/97 11:05 Page:120
      588        1        /*T***********************************************************/
      589        2        /*T*                                                         */
      590        3        /*T* Copyright (c) Bull HN Information Systems Inc., 1997    */
      591        4        /*T*                                                         */
      592        5        /*T***********************************************************/
      593        6        /*V*   NAME: Z8CO$CREATE_LIBRARY_BASE
      594        7
      595        8             OUTPUT: RETURN$ -- BASE item for table.
      596        9
      597       10        DESCRIPTION: This routine creates a literal representing a
      598       11                     table contained in the library (eg, ASCII->ASCII).
      599       12                     One example of the usage of this routine is
      600       13                     for INSPECT REPLACING.  An ASCII to ASCII
      601       14                     transliteration table is copied to a temp
      602       15                     and modified according to the characters
      603       16                     specified by the INSPECT statement.
      604       17
      605       18        */
      606       19
      607       20        Z8CO$CREATE_LIBRARY_BASE: PROC (LIBRARY_OFFSET_OPCODE, RETURN$);
      608       21
      609       22        %EQU PHASE = 1;
      610       23
      611       24        %INCLUDE Z8A_DEFC;
      612       92        %INCLUDE Z8A_SUPP_MAC;
      613     2492        %INCLUDE Z8A_COMCOM;
      614     3142        %INCLUDE Z8A_ST;
      615     6801        %INCLUDE Z8A_LTS;
      616     8878        %INCLUDE Z8A_ETT;
      617     9179        %INCLUDE Z8A_DNT ;
      618     9400        %INCLUDE Z8A_TYPES;
      619     9574        %INCLUDE Z8A_SRCH;
      620     9623        %INCLUDE Z8A_LIBRARY;
      621     9837        %INCLUDE Z8E_STACKS;
      622    12103        %INCLUDE Z8E_O1COM;
      623    12864
      624    12865    1   DCL Z8AS$SR_ETT        ENTRY (1);
PL6.E3A0      #005=Z8CO$CREATE_LIBRARY_BASE File=Z8CO.:Z8A6TSI                   SAT 08/09/97 11:05 Page:121
      625    12866    1   DCL Z8AT$CREATE_TEMPORARY ENTRY (2);
      626    12867    1   DCL Z8AH$NEW_DNT ENTRY(3);
      627    12868
      628    12869    1   DCL LIBRARY_OFFSET_OPCODE     UBIN WORD;
      629    12870    1   DCL RETURN$                   PTR;
      630    12871
      631    12872    1   DCL SCALAR$                   PTR;
      632    12873    1   DCL SYMREF$                    PTR;
      633    12874    1   DCL NDNT$                       PTR;
      634    12875    1   DCL TABLE_NAME            CHAR (10);
      635    12876
      636    12877
      637    12878    1      IF LIBRARY_OFFSET_OPCODE = %OP_ASCII_TO_EBCDIC THEN
      638    12879    1        SUBSTR(TABLE_NAME, 0, 6) = 'U.ATOE';
      639    12880    1      ELSE
      640    12881    1      SUBSTR (TABLE_NAME, 0, 6) = 'U.ATOA';
      641    12882    1     CALL BINCHAR(SUBSTR(TABLE_NAME, 6, 4),
      642    12883    1                  LIBRARY_OFFSET_OPCODE);
      643    12884
      644    12885    1     CALL Z8AH$NEW_DNT (TABLE_NAME,
      645    12886    1                        10,
      646    12887    1                        NDNT$);
      647    12888
      648    12889    1     IF NDNT$ -> DNT.ST$ ~= ADDR(NIL) THEN
      649    12890    1       SCALAR$ = NDNT$ -> DNT.ST$;
      650    12891    1     ELSE
      651    12892    2       DO;
      652    12893    2          SYMREF$ = COMCOM.OPERATOR_SEGMENT$ -> ETT.LOP ;
      653    12894
      654    12895               %NEW_SCALAR (@ST$       = SCALAR$,
      655    12896                            @TYPE      = %TYA,
      656    12897                            @DNT$      = DNT$,
      657    12898                            @DESCL     = 512,
      658    12899                            @ELEMENTARY= TRUE,
      659    12900                            @COMPILER_CREATED = TRUE,
      660    12901                            @R         = %EXT_PROGRAM,
      661    12902                            @COUNT     = "SYMREF$ -> VARIABLE.COUNT",
PL6.E3A0      #005=Z8CO$CREATE_LIBRARY_BASE File=Z8CO.:Z8A6TSI                   SAT 08/09/97 11:05 Page:122
      662    12903                            @SA        = LIBRARY_OFFSET_OPCODE) ;
      663    13103
      664    13104    2          NDNT$ -> DNT.ST$ = SCALAR$ ;
      665    13105    2       END;
      666    13106
      667    13107          %SRCH_ETT (@ID  = %BASE,
      668    13108                     @LOP = SCALAR$,
      669    13109                     @ROP = COMCOM.OPERATOR_SEGMENT$,
      670    13110                     @ETT$ = RETURN$) ;
      671    13125
      672    13126    1   END Z8CO$CREATE_LIBRARY_BASE;
      673    13127        %EOD;

PL6.E3A0      #005=Z8CO$CREATE_LIBRARY_BASE File=Z8CO.:Z8A6TSI                   SAT 08/09/97 11:05 Page:123
--  Include file information  --

   Z8E_O1COM.:Z8A6TOU  cannot be made into a system file and is referenced.
   Z8A_LEX_SYMB.:Z8A6TOU  cannot be made into a system file and is referenced.
   Z8E_STACKS.:Z8A6TOU  cannot be made into a system file and is referenced.
   Z8A_LIBRARY.:Z8A6TOU  cannot be made into a system file and is referenced.
   Z8A_SRCH.:Z8A6TOU  cannot be made into a system file and is referenced.
   Z8A_TYPES.:Z8A6TOU  is referenced.
   Z8A_DNT.:Z8A6TOU  cannot be made into a system file and is referenced.
   Z8A_ETT.:Z8A6TOU  cannot be made into a system file and is referenced.
   Z8A_LTS.:Z8A6TOU  cannot be made into a system file and is referenced.
   Z8A_ST.:Z8A6TOU  cannot be made into a system file and is referenced.
   Z8A_COMCOM.:Z8A6TOU  cannot be made into a system file and is referenced.
   X8A_COM_MACS.:X8A6TOU  is referenced.
   Z8A_NAMES.:Z8A6TOU  is referenced.
   Z8A_SUPP_MAC.:Z8A6TOU  is referenced.
   Z8A_DEFC.:Z8A6TOU  cannot be made into a system file and is referenced.
      No diagnostics issued in procedure Z8CO$CREATE_LIBRARY_BASE.

   Procedure Z8CO$CREATE_LIBRARY_BASE requires 124 words for executable code.
   Procedure Z8CO$CREATE_LIBRARY_BASE requires 24 words of local(AUTO) storage.

PL6.E3A0      #005=Z8CO$CREATE_LIBRARY_BASE File=Z8CO.:Z8A6TSI                   SAT 08/09/97 11:05 Page:124

 Object Unit name= Z8CO$CREATE_LIBRARY_BASE                   File name= Z8CO.:Z8A6TOU
 UTS= AUG 09 '97 11:05:41.24 SAT                              Compiler= PL-6/E31         Sev=      00
 SharedLib= :SHARED_SYSTEM                                    Alt SharedLib=


    ****  Control sections  ****

 Sect   Type Bound  Init  Size OctSiz  Section name(segment info)
    0  LblCom even  none     1      1  ITERATION
    1  LblCom even  none     1      1  ST$
    2  LblCom even  none     5      5  ST_
    3  LblCom even  none     1      1  LTS$
    4  LblCom even  none     5      5  LTS_
    5  LblCom even  none     1      1  ETT$
    6  LblCom even  none     1      1  HEAD_ETT$
    7  LblCom even  none   512   1000  ETT_BUCKETS
    8  LblCom even  none     5      5  ETT_
    9  LblCom even  none     1      1  DNT$
   10  LblCom even  none     5      5  DNT_
   11  LblCom even  none     1      1  DNT_BUCKET_NUMBER
   12  LblCom even  none     1      1  DNT_OF_1$
   13  LblCom even  none     3      3  SRCH
   14  LblCom even  none    90    132  LEX_SYMBOL
   15  LblCom even  none     1      1  CURRENT_LEX_SYMBOL$
   16  LblCom even  none    90    132  TEMP_LEX_SYMBOL
   17  LblCom even  none    90    132  TEMP_LEX_SYMBOL2
   18  RoData even  UTS      4      4  Z8CO$CREATE_LIBRARY_BASE
   19   Proc  even  none   124    174  Z8CO$CREATE_LIBRARY_BASE
   20  RoData even  none     6      6  Z8CO$CREATE_LIBRARY_BASE

    ****  Entry defs  ****

                              Check   Calling
                             calling  sequence
  Sect OctLoc Primary Altret sequence   type   Parms  Name
    19      0   yes            yes      Std        2  Z8CO$CREATE_LIBRARY_BASE
PL6.E3A0      #005=Z8CO$CREATE_LIBRARY_BASE File=Z8CO.:Z8A6TSI                   SAT 08/09/97 11:05 Page:125

  ****  Entry refs  ****

         Check        Calling
        calling       sequence
Altret sequence SRef   type   Args  Name
         yes           Std       3 Z8AH$NEW_DNT
         yes           Std       1 Z8AR$RESERVER
         yes           Std       1 Z8AS$SR_ETT
                       nStd      0 X66_AUTO_2
                       nStd      0 X66_ARET

  ****  Data refs  ****

  Flags:  r = read only, s = secondary
Flgs Name                             Flgs Name                             Flgs Name
     COMCOM                           r    LTS_STEP                              O1COM
     HIER_STK_PTR                          HIER_STK                              PAGE_FORMAT
     REP_STK_PTR                           REP_STK

  ****  Segment refs  ****

  Flags:  r = read only, s = secondary
Flgs Name                             Flgs Name                             Flgs Name
     NULLSID                               ISSID
PL6.E3A0      #005=Z8CO$CREATE_LIBRARY_BASE File=Z8CO.:Z8A6TSI                   SAT 08/09/97 11:05 Page:126


      588        1        /*T***********************************************************/
      589        2        /*T*                                                         */
      590        3        /*T* Copyright (c) Bull HN Information Systems Inc., 1997    */
      591        4        /*T*                                                         */
      592        5        /*T***********************************************************/
      593        6        /*V*   NAME: Z8CO$CREATE_LIBRARY_BASE
      594        7
      595        8             OUTPUT: RETURN$ -- BASE item for table.
      596        9
      597       10        DESCRIPTION: This routine creates a literal representing a
      598       11                     table contained in the library (eg, ASCII->ASCII).
      599       12                     One example of the usage of this routine is
      600       13                     for INSPECT REPLACING.  An ASCII to ASCII
      601       14                     transliteration table is copied to a temp
      602       15                     and modified according to the characters
      603       16                     specified by the INSPECT statement.
      604       17
      605       18        */
      606       19
      607       20        Z8CO$CREATE_LIBRARY_BASE: PROC (LIBRARY_OFFSET_OPCODE, RETURN$);

     20 19 000000   000000 700200 xent  Z8CO$CREATE* TSX0  ! X66_AUTO_2
        19 000001   000030 000002                    ZERO    24,2

      608       21
      609       22        %EQU PHASE = 1;
      610       23
      611       24        %INCLUDE Z8A_DEFC;
      612       92        %INCLUDE Z8A_SUPP_MAC;
      613     2492        %INCLUDE Z8A_COMCOM;
      614     3142        %INCLUDE Z8A_ST;
      615     6801        %INCLUDE Z8A_LTS;
      616     8878        %INCLUDE Z8A_ETT;
      617     9179        %INCLUDE Z8A_DNT ;
      618     9400        %INCLUDE Z8A_TYPES;
      619     9574        %INCLUDE Z8A_SRCH;
PL6.E3A0      #005=Z8CO$CREATE_LIBRARY_BASE File=Z8CO.:Z8A6TSI                   SAT 08/09/97 11:05 Page:127
      620     9623        %INCLUDE Z8A_LIBRARY;
      621     9837        %INCLUDE Z8E_STACKS;
      622    12103        %INCLUDE Z8E_O1COM;
      623    12864
      624    12865    1   DCL Z8AS$SR_ETT        ENTRY (1);
      625    12866    1   DCL Z8AT$CREATE_TEMPORARY ENTRY (2);
      626    12867    1   DCL Z8AH$NEW_DNT ENTRY(3);
      627    12868
      628    12869    1   DCL LIBRARY_OFFSET_OPCODE     UBIN WORD;
      629    12870    1   DCL RETURN$                   PTR;
      630    12871
      631    12872    1   DCL SCALAR$                   PTR;
      632    12873    1   DCL SYMREF$                    PTR;
      633    12874    1   DCL NDNT$                       PTR;
      634    12875    1   DCL TABLE_NAME            CHAR (10);
      635    12876
      636    12877
      637    12878    1      IF LIBRARY_OFFSET_OPCODE = %OP_ASCII_TO_EBCDIC THEN

  12878 19 000002   200003 470500                    LDP0    @LIBRARY_OFFSET_OPCODE,,AUTO
        19 000003   000000 235100                    LDA     0,,PR0
        19 000004   001662 115007                    CMPA    946,DL
        19 000005   000012 601000 19                 TNZ     s:12881

      638    12879    1        SUBSTR(TABLE_NAME, 0, 6) = 'U.ATOE';

  12879 19 000006   040100 100400                    MLR     fill='040'O
        19 000007   000000 000006 18                 ADSC9   0                        cn=0,n=6
        19 000010   200021 000006                    ADSC9   TABLE_NAME,,AUTO         cn=0,n=6
        19 000011   000015 710000 19                 TRA     s:12882

      639    12880    1      ELSE
      640    12881    1      SUBSTR (TABLE_NAME, 0, 6) = 'U.ATOA';

  12881 19 000012   040100 100400                    MLR     fill='040'O
        19 000013   000002 000006 18                 ADSC9   2                        cn=0,n=6
        19 000014   200021 000006                    ADSC9   TABLE_NAME,,AUTO         cn=0,n=6
PL6.E3A0      #005=Z8CO$CREATE_LIBRARY_BASE File=Z8CO.:Z8A6TSI                   SAT 08/09/97 11:05 Page:128

      641    12882    1     CALL BINCHAR(SUBSTR(TABLE_NAME, 6, 4),

  12882 19 000015   000000 235100                    LDA     0,,PR0
        19 000016   000044 773000                    LRL     36
        19 000017   200024 757100                    STAQ    TABLE_NAME+3,,AUTO
        19 000020   000100 301500                    BTD
        19 000021   200024 000010                    NDSC9   TABLE_NAME+3,,AUTO       cn=0,s=lsgnf,sf=0,n=8
        19 000022   200022 430004                    NDSC9   TABLE_NAME+1,,AUTO       cn=2,s=nosgn,sf=0,n=4

      642    12883    1                  LIBRARY_OFFSET_OPCODE);
      643    12884
      644    12885    1     CALL Z8AH$NEW_DNT (TABLE_NAME,

  12885 19 000023   200020 631500                    EPPR1   NDNT$,,AUTO
        19 000024   200026 451500                    STP1    TABLE_NAME+5,,AUTO
        19 000025   000002 236000 20                 LDQ     2
        19 000026   200025 756100                    STQ     TABLE_NAME+4,,AUTO
        19 000027   200021 633500                    EPPR3   TABLE_NAME,,AUTO
        19 000030   200024 453500                    STP3    TABLE_NAME+3,,AUTO
        19 000031   200024 630500                    EPPR0   TABLE_NAME+3,,AUTO
        19 000032   000000 631400 20                 EPPR1   0
        19 000033   000000 701000 xent               TSX1    Z8AH$NEW_DNT
        19 000034   000000 011000                    NOP     0

      645    12886    1                        10,
      646    12887    1                        NDNT$);
      647    12888
      648    12889    1     IF NDNT$ -> DNT.ST$ ~= ADDR(NIL) THEN

  12889 19 000035   200020 470500                    LDP0    NDNT$,,AUTO
        19 000036   000001 236100                    LDQ     1,,PR0
        19 000037   000003 116000 20                 CMPQ    3
        19 000040   000043 600000 19                 TZE     s:12893

      649    12890    1       SCALAR$ = NDNT$ -> DNT.ST$;

PL6.E3A0      #005=Z8CO$CREATE_LIBRARY_BASE File=Z8CO.:Z8A6TSI                   SAT 08/09/97 11:05 Page:129
  12890 19 000041   200016 756100                    STQ     SCALAR$,,AUTO
        19 000042   000162 710000 19                 TRA     s:13112

      650    12891    1     ELSE
      651    12892    2       DO;

      652    12893    2          SYMREF$ = COMCOM.OPERATOR_SEGMENT$ -> ETT.LOP ;

  12893 19 000043   000426 471400 xsym               LDP1    COMCOM+278
        19 000044   100001 236100                    LDQ     1,,PR1
        19 000045   200017 756100                    STQ     SYMREF$,,AUTO

      653    12894
      654    12895               %NEW_SCALAR (@ST$       = SCALAR$,
      655    12896                            @TYPE      = %TYA,
      656    12897                            @DNT$      = DNT$,
      657    12898                            @DESCL     = 512,
      658    12899                            @ELEMENTARY= TRUE,
      659    12900                            @COMPILER_CREATED = TRUE,
      660    12901                            @R         = %EXT_PROGRAM,
      661    12902                            @COUNT     = "SYMREF$ -> VARIABLE.COUNT",
      662    12903                            @SA        = LIBRARY_OFFSET_OPCODE) ;

  12907 19 000046   000002 236000 2                  LDQ     ST_+2
        19 000047   000013 036007                    ADLQ    11,DL
        19 000050   000003 116000 2                  CMPQ    ST_+3
        19 000051   000062 604000 19                 TMI     s:12909

  12908 19 000052   000005 236000 20                 LDQ     5
        19 000053   200024 756100                    STQ     TABLE_NAME+3,,AUTO
        19 000054   200024 633500                    EPPR3   TABLE_NAME+3,,AUTO
        19 000055   200025 453500                    STP3    TABLE_NAME+4,,AUTO
        19 000056   200025 630500                    EPPR0   TABLE_NAME+4,,AUTO
        19 000057   000004 631400 20                 EPPR1   4
        19 000060   000000 701000 xent               TSX1    Z8AR$RESERVER
        19 000061   000000 011000                    NOP     0

PL6.E3A0      #005=Z8CO$CREATE_LIBRARY_BASE File=Z8CO.:Z8A6TSI                   SAT 08/09/97 11:05 Page:130
  12909 19 000062   000002 236000 2                  LDQ     ST_+2
        19 000063   000022 736000                    QLS     18
        19 000064   000001 036000 2                  ADLQ    ST_+1
        19 000065   200016 756100                    STQ     SCALAR$,,AUTO

  12910 19 000066   000013 236007                    LDQ     11,DL
        19 000067   000002 056000 2                  ASQ     ST_+2

  12958 19 000070   000766 220003                    LDX0    502,DU
        19 000071   200016 470500                    LDP0    SCALAR$,,AUTO
        19 000072   000000 740100                    STX0    0,,PR0

  12959 19 000073   002000 236007                    LDQ     1024,DL
        19 000074   000000 552110                    STBQ    0,'10'O,PR0

  12960 19 000075   200017 471500                    LDP1    SYMREF$,,AUTO
        19 000076   100000 236100                    LDQ     0,,PR1
        19 000077   000000 552104                    STBQ    0,'04'O,PR0

  12961 19 000100   200003 473500                    LDP3    @LIBRARY_OFFSET_OPCODE,,AUTO
        19 000101   300000 721100                    LXL1    0,,PR3
        19 000102   000001 741100                    STX1    1,,PR0

  12962 19 000103   001000 222003                    LDX2    512,DU
        19 000104   000001 442100                    SXL2    1,,PR0

  12963 19 000105   000133 723000 xsym               LXL3    COMCOM+91
        19 000106   000002 443100                    SXL3    2,,PR0

  12964 19 000107   000003 450100                    STZ     3,,PR0

  12965 19 000110   000003 236000 20                 LDQ     3
        19 000111   000004 756100                    STQ     4,,PR0

  12966 19 000112   000005 756100                    STQ     5,,PR0

  12967 19 000113   000007 756100                    STQ     7,,PR0
PL6.E3A0      #005=Z8CO$CREATE_LIBRARY_BASE File=Z8CO.:Z8A6TSI                   SAT 08/09/97 11:05 Page:131

  12968 19 000114   000000 224003                    LDX4    0,DU
        19 000115   000010 744100                    STX4    8,,PR0

  12969 19 000116   777777 225003                    LDX5    -1,DU
        19 000117   000010 445100                    SXL5    8,,PR0

  12973 19 000120   000012 756100                    STQ     10,,PR0

  12976 19 000121   000057 236000 xsym               LDQ     O1COM+47
        19 000122   000011 756100                    STQ     9,,PR0

  12977 19 000123   000057 236000 xsym               LDQ     O1COM+47
        19 000124   000003 116000 20                 CMPQ    3
        19 000125   000147 600000 19                 TZE     s:13012

  12981 19 000126   000057 474400 xsym               LDP4    O1COM+47
        19 000127   400001 475500                    LDP5    1,,PR4
        19 000130   500012 236100                    LDQ     10,,PR5
        19 000131   000003 116000 20                 CMPQ    3
        19 000132   000141 601000 19                 TNZ     s:12988

  12983 19 000133   200016 236100                    LDQ     SCALAR$,,AUTO
        19 000134   500011 756100                    STQ     9,,PR5

  12984 19 000135   000057 474400 xsym               LDP4    O1COM+47
        19 000136   400001 475500                    LDP5    1,,PR4
        19 000137   500012 756100                    STQ     10,,PR5

  12985 19 000140   000147 710000 19                 TRA     s:13012

  12988 19 000141   500012 476500                    LDP6    10,,PR5
        19 000142   200016 236100                    LDQ     SCALAR$,,AUTO
        19 000143   600012 756100                    STQ     10,,PR6

  12989 19 000144   000057 474400 xsym               LDP4    O1COM+47
        19 000145   400001 475500                    LDP5    1,,PR4
PL6.E3A0      #005=Z8CO$CREATE_LIBRARY_BASE File=Z8CO.:Z8A6TSI                   SAT 08/09/97 11:05 Page:132
        19 000146   500012 756100                    STQ     10,,PR5

  13012 19 000147   000010 221003                    LDX1    8,DU
        19 000150   000002 741100                    STX1    2,,PR0

  13017 19 000151   000000 236000 9                  LDQ     DNT$
        19 000152   000006 756100                    STQ     6,,PR0

  13034 19 000153   010000 236003                    LDQ     4096,DU
        19 000154   000003 256100                    ORSQ    3,,PR0

  13043 19 000155   100000 236003                    LDQ     32768,DU
        19 000156   000003 256100                    ORSQ    3,,PR0

      663    13103
      664    13104    2          NDNT$ -> DNT.ST$ = SCALAR$ ;

  13104 19 000157   200016 236100                    LDQ     SCALAR$,,AUTO
        19 000160   200020 474500                    LDP4    NDNT$,,AUTO
        19 000161   400001 756100                    STQ     1,,PR4

      665    13105    2       END;

      666    13106
      667    13107          %SRCH_ETT (@ID  = %BASE,
      668    13108                     @LOP = SCALAR$,
      669    13109                     @ROP = COMCOM.OPERATOR_SEGMENT$,
      670    13110                     @ETT$ = RETURN$) ;

  13112 19 000162   000001 235007                    LDA     1,DL
        19 000163   000000 755000 13                 STA     SRCH

  13113 19 000164   000001 756000 13                 STQ     SRCH+1

  13115 19 000165   000426 236000 xsym               LDQ     COMCOM+278
        19 000166   000002 756000 13                 STQ     SRCH+2

PL6.E3A0      #005=Z8CO$CREATE_LIBRARY_BASE File=Z8CO.:Z8A6TSI                   SAT 08/09/97 11:05 Page:133
  13122 19 000167   200004 630500                    EPPR0   @RETURN$,,AUTO
        19 000170   000004 631400 20                 EPPR1   4
        19 000171   000000 701000 xent               TSX1    Z8AS$SR_ETT
        19 000172   000000 011000                    NOP     0

      671    13125
      672    13126    1   END Z8CO$CREATE_LIBRARY_BASE;

  13126 19 000173   000000 702200 xent               TSX2  ! X66_ARET
      673    13127        %EOD;

PL6.E3A0      #005=Z8CO$CREATE_LIBRARY_BASE File=Z8CO.:Z8A6TSI                   SAT 08/09/97 11:05 Page:134
--  Include file information  --

   Z8E_O1COM.:Z8A6TOU  cannot be made into a system file and is referenced.
   Z8A_LEX_SYMB.:Z8A6TOU  cannot be made into a system file and is referenced.
   Z8E_STACKS.:Z8A6TOU  cannot be made into a system file and is referenced.
   Z8A_LIBRARY.:Z8A6TOU  cannot be made into a system file and is referenced.
   Z8A_SRCH.:Z8A6TOU  cannot be made into a system file and is referenced.
   Z8A_TYPES.:Z8A6TOU  is referenced.
   Z8A_DNT.:Z8A6TOU  cannot be made into a system file and is referenced.
   Z8A_ETT.:Z8A6TOU  cannot be made into a system file and is referenced.
   Z8A_LTS.:Z8A6TOU  cannot be made into a system file and is referenced.
   Z8A_ST.:Z8A6TOU  cannot be made into a system file and is referenced.
   Z8A_COMCOM.:Z8A6TOU  cannot be made into a system file and is referenced.
   X8A_COM_MACS.:X8A6TOU  is referenced.
   Z8A_NAMES.:Z8A6TOU  is referenced.
   Z8A_SUPP_MAC.:Z8A6TOU  is referenced.
   Z8A_DEFC.:Z8A6TOU  cannot be made into a system file and is referenced.
      No diagnostics issued in procedure Z8CO$CREATE_LIBRARY_BASE.
PL6.E3A0      #005=Z8CO$CREATE_LIBRARY_BASE File=Z8CO.:Z8A6TSI                   SAT 08/09/97 11:05 Page:135

 **** Variables and constants ****

  ****  Section 000 LblCom ITERATION

  ****  Scalars and arrays  ****
OctLoc.c.b A Datatyp(siz) R M Lvl/name                 OctLoc.c.b A Datatyp(siz) R M Lvl/name

     0-0-0/w SBIN              1 ITERATION

  ****  Section 001 LblCom ST$

  ****  Scalars and arrays  ****
OctLoc.c.b A Datatyp(siz) R M Lvl/name                 OctLoc.c.b A Datatyp(siz) R M Lvl/name

     0-0-0/w PTR         r     1 ST$

  ****  Section 002 LblCom ST_

  ****  Scalars and arrays  ****
OctLoc.c.b A Datatyp(siz) R M Lvl/name                 OctLoc.c.b A Datatyp(siz) R M Lvl/name

     0-0-0/w STRC(180)   r     1 ST_

  ****  Section 003 LblCom LTS$

  ****  Scalars and arrays  ****
OctLoc.c.b A Datatyp(siz) R M Lvl/name                 OctLoc.c.b A Datatyp(siz) R M Lvl/name

     0-0-0/w PTR               1 LONG_ITEM$                 0-0-0/w PTR         r     1 LTS$

  ****  Section 004 LblCom LTS_

  ****  Scalars and arrays  ****
OctLoc.c.b A Datatyp(siz) R M Lvl/name                 OctLoc.c.b A Datatyp(siz) R M Lvl/name

     0-0-0/w STRC(180)         1 LTS_

PL6.E3A0      #005=Z8CO$CREATE_LIBRARY_BASE File=Z8CO.:Z8A6TSI                   SAT 08/09/97 11:05 Page:136
  ****  Section 005 LblCom ETT$

  ****  Scalars and arrays  ****
OctLoc.c.b A Datatyp(siz) R M Lvl/name                 OctLoc.c.b A Datatyp(siz) R M Lvl/name

     0-0-0/w PTR         r     1 ETT$

  ****  Section 006 LblCom HEAD_ETT$

  ****  Scalars and arrays  ****
OctLoc.c.b A Datatyp(siz) R M Lvl/name                 OctLoc.c.b A Datatyp(siz) R M Lvl/name

     0-0-0/w PTR               1 HEAD_ETT$

  ****  Section 007 LblCom ETT_BUCKETS

  ****  Scalars and arrays  ****
OctLoc.c.b A Datatyp(siz) R M Lvl/name                 OctLoc.c.b A Datatyp(siz) R M Lvl/name

     0-0-0/w PTR               1 ETT_BUCKETS(0:511)

  ****  Section 008 LblCom ETT_

  ****  Scalars and arrays  ****
OctLoc.c.b A Datatyp(siz) R M Lvl/name                 OctLoc.c.b A Datatyp(siz) R M Lvl/name

     0-0-0/w STRC(180)         1 ETT_

  ****  Section 009 LblCom DNT$

  ****  Scalars and arrays  ****
OctLoc.c.b A Datatyp(siz) R M Lvl/name                 OctLoc.c.b A Datatyp(siz) R M Lvl/name

     0-0-0/w PTR         r     1 DNT$

  ****  Section 010 LblCom DNT_

PL6.E3A0      #005=Z8CO$CREATE_LIBRARY_BASE File=Z8CO.:Z8A6TSI                   SAT 08/09/97 11:05 Page:137
  ****  Scalars and arrays  ****
OctLoc.c.b A Datatyp(siz) R M Lvl/name                 OctLoc.c.b A Datatyp(siz) R M Lvl/name

     0-0-0/w STRC(180)         1 DNT_

  ****  Section 011 LblCom DNT_BUCKET_NUMBER

  ****  Scalars and arrays  ****
OctLoc.c.b A Datatyp(siz) R M Lvl/name                 OctLoc.c.b A Datatyp(siz) R M Lvl/name

     0-0-0/w UBIN              1 DNT_BUCKET_NUMBER

  ****  Section 012 LblCom DNT_OF_1$

  ****  Scalars and arrays  ****
OctLoc.c.b A Datatyp(siz) R M Lvl/name                 OctLoc.c.b A Datatyp(siz) R M Lvl/name

     0-0-0/w PTR               1 DNT_OF_1$

  ****  Section 013 LblCom SRCH

  ****  Scalars and arrays  ****
OctLoc.c.b A Datatyp(siz) R M Lvl/name                 OctLoc.c.b A Datatyp(siz) R M Lvl/name

     0-0-0/w STRC(108)   r     1 SRCH

  ****  Section 014 LblCom LEX_SYMBOL

  ****  Scalars and arrays  ****
OctLoc.c.b A Datatyp(siz) R M Lvl/name                 OctLoc.c.b A Datatyp(siz) R M Lvl/name

     0-0-0/w STRC(3240)  r     1 LEX_SYMBOL                 0-0-0/w STRC(3240)        1 LEX_SYMBOL_WORDS

  ****  Section 015 LblCom CURRENT_LEX_SYMBOL$

  ****  Scalars and arrays  ****
OctLoc.c.b A Datatyp(siz) R M Lvl/name                 OctLoc.c.b A Datatyp(siz) R M Lvl/name
PL6.E3A0      #005=Z8CO$CREATE_LIBRARY_BASE File=Z8CO.:Z8A6TSI                   SAT 08/09/97 11:05 Page:138

     0-0-0/w PTR         r     1 CURRENT_LEX_SYMBOL$

  ****  Section 016 LblCom TEMP_LEX_SYMBOL

  ****  Scalars and arrays  ****
OctLoc.c.b A Datatyp(siz) R M Lvl/name                 OctLoc.c.b A Datatyp(siz) R M Lvl/name

     0-0-0/w STRC(3240)        1 TEMP_LEX_SYMBOL

  ****  Section 017 LblCom TEMP_LEX_SYMBOL2

  ****  Scalars and arrays  ****
OctLoc.c.b A Datatyp(siz) R M Lvl/name                 OctLoc.c.b A Datatyp(siz) R M Lvl/name

     0-0-0/w STRC(3240)        1 TEMP_LEX_SYMBOL2

  ****  Auto variables  ****

  ****  Scalars and arrays  ****
OctLoc.c.b A Datatyp(siz) R M Lvl/name                 OctLoc.c.b A Datatyp(siz) R M Lvl/name

     3-0-0/w PTR         r     1 @LIBRARY_OFFSET_OPCODE
     4-0-0/w PTR         r     1 @RETURN$
    *0-0-0/w UBIN        r     1 LIBRARY_OFFSET_OPCODE
     5-0-0/w STRC(324)         1 NAME                      20-0-0/w PTR         r     1 NDNT$
    *0-0-0/w PTR         r     1 RETURN$                   16-0-0/w PTR         r     1 SCALAR$
    17-0-0/w PTR         r     1 SYMREF$                   21-0-0/c CHAR(10)    r     1 TABLE_NAME

  ****  SYMREF variables  ****

  ****  Scalars and arrays  ****
OctLoc.c.b A Datatyp(siz) R M Lvl/name                 OctLoc.c.b A Datatyp(siz) R M Lvl/name

     0-0-0/d STRC(13248) r     1 COMCOM
     0-0-0/w STRC(180)         1 HIER_STK(0:50)
     0-0-0/w SBIN              1 HIER_STK_PTR
PL6.E3A0      #005=Z8CO$CREATE_LIBRARY_BASE File=Z8CO.:Z8A6TSI                   SAT 08/09/97 11:05 Page:139
     0-0-0/w UBIN              1 LTS_STEP(0:37)
     0-0-0/d STRC(11580) r     1 O1COM                      0-0-0/w STRC(144)         1 PAGE_FORMAT
     0-0-0/w STRC(153)         1 REP_STK(0:50)              0-0-0/w SBIN              1 REP_STK_PTR

  ****  BASED and DCB variables  ****

  ****  Scalars and arrays  ****
OctLoc.c.b A Datatyp(siz) R M Lvl/name                 OctLoc.c.b A Datatyp(siz) R M Lvl/name

     0-0-0/w STRC(288)         1 ADD_STMT                   0-0-0/w STRC(396)         1 ALPHABET
     0-0-0/w STRC(144)         1 ALTER_LTS                  0-0-0/w STRC(3672)        1 ALT_KEY
     0-0-0/w STRC(36864)       1 ARGLIST                    0-0-0/w STRC(396)         1 ARRAY
     0-0-0/w STRC(180)         1 ARRAY_PRESET_LTS           0-0-0/w ASTR(324)   r     1 BASED_LEX_SYMBOL
     0-0-0/w STRC(360)         1 BASED_LEX_SYMBOL_WORDS
     0-0-0/w STRC(288)         1 BASE_LTS                   0-0-0/w STRC(288)         1 BINARY_OP
     0-0-0/w STRC(396)         1 BLOCK                      0-0-0/w STRC(144)         1 BT
     0-0-0/w STRC(288)         1 CALL_STMT                  0-0-0/w STRC(396)         1 CD
     0-0-0/w STRC(288)         1 CD_LTS                     0-0-0/w CHAR(4096)        1 CHARS
     0-0-0/w STRC(396)         1 CLASS                      0-0-0/w STRC(288)         1 COMPUTE_STMT
     0-0-0/w STRC(396)         1 CONDITION                  0-0-0/w STRC(396)         1 CONST
     0-0-0/w STRC(72)          1 CONT                       0-0-0/w STRC(540)         1 CONTROL_NAME_LTS
     0-0-0/w STRC(1872)        1 COPY_FILE                  0-0-0/w STRC(396)         1 DB
     0-0-0/w STRC(396)         1 DCB_                       0-0-0/w STRC(288)         1 DEFERED_IDENTIFIER
     0-0-0/w STRC(252)         1 DEFERED_ID_TREE            0-0-0/w STRC(288)         1 DEFERED_QUAL_ID
     0-0-0/w STRC(288)         1 DEFERED_SUM_CLAUSE
     0-0-0/w STRC(288)         1 DEFERED_SUM_CLAUSE_LIST
     0-0-0/w STRC(288)         1 DELETE_STMT                0-0-0/w STRC(108)         1 DEPENDING_SIZE
     0-0-0/w STRC(5472)        1 DIMS                       0-0-0/w STRC(288)         1 DIVIDE_STMT
     0-0-0/w STRC(396)         1 DML_ITEM                   0-0-0/w STRC(216)         1 DML_REC
     0-0-0/w ASTR(180)   r     1 DNT                        0-0-0/w STRC(180)   r     1 ETT
     0-0-0/w STRC(73836)       1 EVALUATE                   0-0-0/w STRC(396)         1 FD
     0-0-0/w STRC(1692)        1 FILE_LTS                   0-0-0/w STRC(288)         1 ILS_LIST
     0-0-0/w STRC(108)         1 INDEXES                    0-0-0/w STRC(360)         1 INIT_LTS
     0-0-0/w STRC(288)         1 INSPECT_1_STMT             0-0-0/w STRC(288)         1 INSPECT_2_STMT
     0-0-0/w STRC(288)         1 INSPECT_4_STMT             0-0-0/w STRC(396)         1 INTDEF
     0-0-0/w STRC(180)         1 IO_RESTORE_CHAIN           0-0-0/w STRC(144)         1 KEY
     0-0-0/w STRC(396)         1 LABEL                      0-0-0/w STRC(288)         1 LA_ITEM
PL6.E3A0      #005=Z8CO$CREATE_LIBRARY_BASE File=Z8CO.:Z8A6TSI                   SAT 08/09/97 11:05 Page:140
     0-0-0/w STRC(36864)       1 LCNST                      0-0-0/w STRC(72)          1 LONG
     0-0-0/w STRC              1 LTS                        0-0-0/w STRC(360)         1 LTSS
     0-0-0/w STRC(36936)       1 LTS_PTR_ARRAY              0-0-0/w STRC(504)         1 LX_CD_INPUT
     0-0-0/w STRC(324)         1 LX_CD_I_O                  0-0-0/w STRC(396)         1 LX_CD_OUTPUT
     0-0-0/w STRC(288)         1 LX_ETT_ITEM                0-0-0/w STRC(288)         1 LX_ITEM
     0-0-0/w STRC(288)         1 LX_LARGE                   0-0-0/w STRC(288)         1 LX_LIST
     0-0-0/w STRC(1224)        1 LX_REC_DECL                0-0-0/w STRC(864)         1 LX_REPORT_REC
     0-0-0/w STRC(288)         1 LX_TERMINAL                0-0-0/w STRC(396)         1 MNEMONIC
     0-0-0/w STRC(288)         1 MULTIPLY_STMT              0-0-0/w STRC(144)         1 NEL
     0-0-0/w STRC(216)         1 OPEN_LTS                   0-0-0/w STRC(36864)       1 PAGE
     0-0-0/w STRC(396)         1 PARA                       0-0-0/w STRC(144)         1 PRIME
     0-0-0/w STRC(396)   r     1 PROC_                      0-0-0/w STRC(396)         1 PROC_DEF
     0-0-0/w STRC(900)   r     1 PROC_SUPP                  0-0-0/w STRC(396)         1 RD
     0-0-0/w STRC(288)         1 READ_STMT                  0-0-0/w STRC(216)         1 REF
     0-0-0/w STRC(108)         1 RENAMES                    0-0-0/w STRC(720)         1 REPORT_01_LTS
     0-0-0/w STRC(432)         1 REPORT_ELEM_LTS            0-0-0/w STRC(252)         1 REPORT_GRP_LTS
     0-0-0/w STRC(1332)        1 REPORT_LTS                 0-0-0/w STRC(288)         1 REWRITE_STMT
     0-0-0/w STRC(144)         1 RVA_LTS                    0-0-0/w STRC(396)   r     1 SCALAR
     0-0-0/w STRC(396)         1 SD                         0-0-0/w STRC(396)         1 SECTION
     0-0-0/w STRC(396)         1 SEGMENT                    0-0-0/w STRC(360)         1 SEGMENT_LTS
     0-0-0/w STRC(396)   r     1 ST                         0-0-0/w STRC(288)         1 START_STMT
     0-0-0/w STRC(252)         1 STRING_STMT                0-0-0/w STRC(288)         1 SUBTRACT_STMT
     0-0-0/w STRC(252)         1 SUM_LTS                    0-0-0/w STRC(396)         1 SWITCH
     0-0-0/w STRC(396)         1 SYMBOLIC_CHAR              0-0-0/w STRC(396)         1 SYMDEF_
     0-0-0/w STRC(396)         1 SYMREF_                    0-0-0/w STRC(396)         1 TEMP
     0-0-0/w STRC(288)         1 UNARY_OP                   0-0-0/w STRC(288)         1 UNSTRING_STMT
     0-0-0/d STRC(612)         1 USE                        0-0-0/w STRC(252)         1 USE_SUPP
     0-0-0/w STRC(396)   r     1 VARIABLE                   0-0-0/w STRC(288)         1 WRITE_STMT


   Procedure Z8CO$CREATE_LIBRARY_BASE requires 124 words for executable code.
   Procedure Z8CO$CREATE_LIBRARY_BASE requires 24 words of local(AUTO) storage.

PL6.E3A0      #006=Z8CO$END_PROGRAM File=Z8CO.:Z8A6TSI                           SAT 08/09/97 11:08 Page:141
      674        1        /*T***********************************************************/
      675        2        /*T*                                                         */
      676        3        /*T* Copyright (c) Bull HN Information Systems Inc., 1997    */
      677        4        /*T*                                                         */
      678        5        /*T***********************************************************/
      679        6        /*================*/
      680        7          Z8CO$END_PROGRAM: PROC (NAME$);
      681        8        /*================*/
      682        9
      683       10             %EQU PHASE = 1;
      684       11             %EQU NO_NAME_TEXT = 'NO-NAME';
      685       12             %EQU NO_NAME_LENGTH = 7;
      686       13
      687       14             %INCLUDE Z8A_DEFC;
      688       82             %INCLUDE Z8A_SUPP_MAC;
      689     2482             %INCLUDE Z8A_COMCOM;
      690     3132             %INCLUDE Z8A_ST;
      691     6791             %INCLUDE Z8A_DNT;
      692     7012             %INCLUDE Z8A_ERR_NUMS;
      693     7776             %INCLUDE Z8E_WINDOW;
      694     9846             %INCLUDE Z8E_STACKS;
      695    12112             %INCLUDE Z8E_MACROS;
      696    12787             %INCLUDE Z8E_O1COM;
      697    13548
      698    13549    1        DCL Z8AE$ERROR    ENTRY (12);
      699    13550    1        DCL Z8AH$SEARCH_   ENTRY;
      700    13551
      701    13552    1        DCL END_PROGRAM_FOUND    BIT(1) ALIGNED SYMREF;
      702    13553
      703    13554    1        DCL NAME$         PTR;
      704    13555    1        DCL DNT$$         PTR;
      705    13556    1        DCL PROC$         PTR;
      706    13557    1        DCL DNT$_FROM_RSWNO  (0:0) PTR SYMREF READONLY;
      707    13558
      708    13559
      709    13560             %MACRO POP_AN_END (@LINE = NAME$ -> LX_TERMINAL.LINE);
      710    13561               DO;
PL6.E3A0      #006=Z8CO$END_PROGRAM File=Z8CO.:Z8A6TSI                           SAT 08/09/97 11:08 Page:142
      711    13562                 O1COM.CURRENT_PROC$ -> PROC_.LINE_END = @LINE;
      712    13563                 O1COM.CURRENT_PROC$ = O1COM.CURRENT_PROC$ -> PROC_.FATHER;
      713    13564               END;
      714    13565             %MEND;
      715    13566
      716    13567             %MACRO GET_NO_NAME_DNT$;
      717    13568               DO;
      718    13569                 LEX_SYMBOL.SIZE = %NO_NAME_LENGTH;
      719    13570                 SUBSTR (LEX_SYMBOL.SYMBOL,
      720    13571                         0,
      721    13572                         LEX_SYMBOL.SIZE) = %NO_NAME_TEXT;
      722    13573                 CALL Z8AH$SEARCH_;
      723    13574               END;
      724    13575             %MEND;
      725    13576
      726    13577             %EJECT;
PL6.E3A0      #006=Z8CO$END_PROGRAM File=Z8CO.:Z8A6TSI                           SAT 08/09/97 11:08 Page:143
      727    13578
      728    13579    1        IF NAME$ = ADDR(NIL) THEN
      729    13580    2          DO;
      730    13581                 /* EOF found, check for missing ends */
      731    13582    2            IF O1COM.CURRENT_PROC$ = ADDR(NIL) THEN
      732    13583    2              RETURN;
      733    13584
      734    13585    2            IF O1COM.CURRENT_PROC$ -> PROC_.SON ~= ADDR(NIL)
      735    13586    2            OR O1COM.CURRENT_PROC$ -> PROC_.FATHER ~= ADDR(NIL) THEN
      736    13587    3              DO UNTIL (O1COM.CURRENT_PROC$ = ADDR(NIL));
      737    13588    3                IF NOT O1COM.CURRENT_PROC$ -> PROC_.PROC_DEF$ ->
      738    13589    3                       SYMDEF_.DNT$ -> DNT.B.ERROR_VARIABLE THEN
      739    13590    3                  CALL Z8AE$ERROR (%E$END_PROGRAM_INSERTED,
      740    13591    3                                   COMCOM.CURRENT.LINE,
      741    13592    3                                   COMCOM.CURRENT.COLUMN,
      742    13593    3                                   O1COM.CURRENT_PROC$ -> PROC_.PROC_DEF$ ->
      743    13594    3                                   SYMDEF_.DNT$);
      744    13595
      745    13596                     %POP_AN_END (@LINE = COMCOM.CURRENT.LINE);
      746    13602    3              END; /* Until */
      747    13603
      748    13604    2            RETURN;
      749    13605    2          END; /*  IF for EOF */
      750    13606
      751    13607    1        IF O1COM.CURRENT_PROC$ = ADDR(NIL) THEN
      752    13608    2          DO;
      753    13609                 /* EXTRA END PROGRAM */
      754    13610                 %CONDITIONAL_ERROR (@LX_ITEM$ = NAME$,
      755    13611                                     @ERROR#   = %E$EXTRA_END_PROGRAM,
      756    13612                                     @LINE     = NAME$ -> LX_TERMINAL.LINE,
      757    13613                                     @COLUMN   = NAME$ -> LX_TERMINAL.COLUMN);
      758    13643    2            RETURN;
      759    13644    2          END;
      760    13645
      761    13646    1        IF COMCOM.OB.FIPS.LEVEL >= %INT_LEV THEN
      762    13647    1          CALL Z8AE$ERROR (%E$LEVEL_CHECK,
      763    13648    1                           O1COM.LX_STK.LINE (O1COM.LX_TOP - 3),
PL6.E3A0      #006=Z8CO$END_PROGRAM File=Z8CO.:Z8A6TSI                           SAT 08/09/97 11:08 Page:144
      764    13649    1                           O1COM.LX_STK.COLUMN (O1COM.LX_TOP - 3));
      765    13650
      766    13651    1        DNT$$ = NAME$ -> LX_TERMINAL.DNT$;
      767    13652
      768    13653    1        IF DNT$$ = O1COM.CURRENT_PROC$ -> PROC_.PROC_DEF$ -> SYMDEF_.DNT$ THEN
      769    13654               /* Great! */
      770    13655               %POP_AN_END;
      771    13661    1        ELSE
      772    13662    2          DO;
      773    13663                 /* ERROR -- As a recovery we will attempt to match this end
      774    13664                             with another end with the same name.  If all else
      775    13665                             fails then we will just pop 1 proc off the
      776    13666                             O1COM.CURRENT_PROC$ chain.                     */
      777    13667
      778    13668    2            PROC$ = O1COM.CURRENT_PROC$ -> PROC_.FATHER;
      779    13669
      780    13670    3            DO WHILE (PROC$ ~= ADDR(NIL));
      781    13671    3              IF PROC$ -> PROC_.PROC_DEF$ -> SYMDEF_.DNT$ = DNT$$ THEN
      782    13672    3                EXIT;
      783    13673    3              ELSE
      784    13674    3                PROC$ = PROC$ -> PROC_.FATHER;
      785    13675    3            END; /* WHILE */
      786    13676
      787    13677    2            IF PROC$ = ADDR(NIL) THEN
      788    13678    3              DO;
      789    13679    3                IF O1COM.CURRENT_PROC$ -> PROC_.PROC_DEF$ ->
      790    13680    3                     SYMDEF_.DNT$ -> DNT.B.ERROR_VARIABLE THEN
      791    13681    4                  DO;
      792    13682                         %GET_NO_NAME_DNT$;
      793    13691
      794    13692                         %CONDITIONAL_ERROR (@LX_ITEM$ = NAME$,
      795    13693                           @ERROR#   = %E$WRONG_END_PROGRAM,
      796    13694                           @LINE     = NAME$ -> LX_ITEM.LINE,
      797    13695                           @COLUMN   = NAME$ -> LX_ITEM.COLUMN,
      798    13696                           @PLUG1    = NAME$ -> LX_TERMINAL.DNT$,
      799    13697                           @PLUG2    = DNT$);
      800    13727    4                  END;
PL6.E3A0      #006=Z8CO$END_PROGRAM File=Z8CO.:Z8A6TSI                           SAT 08/09/97 11:08 Page:145
      801    13728    3                ELSE
      802    13729                       %CONDITIONAL_ERROR (@LX_ITEM$ = NAME$,
      803    13730                         @ERROR#   = %E$WRONG_END_PROGRAM,
      804    13731                         @LINE     = NAME$ -> LX_ITEM.LINE,
      805    13732                         @COLUMN   = NAME$ -> LX_ITEM.COLUMN,
      806    13733                         @PLUG1    = NAME$ -> LX_TERMINAL.DNT$,
      807    13734                         @PLUG2    = O1COM.CURRENT_PROC$ -> PROC_.PROC_DEF$ -> SYMDEF_.DNT$)
             13734                             ;
      808    13764                     %POP_AN_END;
      809    13770    3              END;
      810    13771    2            ELSE
      811    13772    3              DO UNTIL (O1COM.CURRENT_PROC$ = PROC$);
      812    13773    3                IF O1COM.CURRENT_PROC$ -> PROC_.PROC_DEF$ ->
      813    13774    3                     SYMDEF_.DNT$ -> DNT.B.ERROR_VARIABLE THEN
      814    13775    4                  DO;
      815    13776                         %GET_NO_NAME_DNT$;
      816    13785
      817    13786                         %CONDITIONAL_ERROR (@LX_ITEM$ = NAME$,
      818    13787                           @ERROR#   = %E$END_PROGRAM_INSERTED,
      819    13788                           @LINE     = NAME$ -> LX_ITEM.LINE,
      820    13789                           @COLUMN   = NAME$ -> LX_ITEM.COLUMN,
      821    13790                           @PLUG1    = DNT$);
      822    13820    4                  END;
      823    13821    3                ELSE
      824    13822                       %CONDITIONAL_ERROR (@LX_ITEM$ = NAME$,
      825    13823                         @ERROR#   = %E$END_PROGRAM_INSERTED,
      826    13824                         @LINE     = NAME$ -> LX_ITEM.LINE,
      827    13825                         @COLUMN   = NAME$ -> LX_ITEM.COLUMN,
      828    13826                         @PLUG1    = O1COM.CURRENT_PROC$ -> PROC_.PROC_DEF$ -> SYMDEF_.DNT$)
             13826                             ;
      829    13856
      830    13857                     %POP_AN_END;
      831    13863    3              END;
      832    13864    2          END; /* IF THEN ELSE -- DNT$$ ~= O1COM.CURRENT_PROC$ */
      833    13865
      834    13866    1        IF O1COM.CURRENT_PROC$ = ADDR(NIL) THEN
      835    13867    1          END_PROGRAM_FOUND = TRUE;
PL6.E3A0      #006=Z8CO$END_PROGRAM File=Z8CO.:Z8A6TSI                           SAT 08/09/97 11:08 Page:146
      836    13868
      837    13869    1   END Z8CO$END_PROGRAM;

PL6.E3A0      #006=Z8CO$END_PROGRAM File=Z8CO.:Z8A6TSI                           SAT 08/09/97 11:08 Page:147
--  Include file information  --

   Z8E_O1COM.:Z8A6TOU  cannot be made into a system file and is referenced.
   Z8E_NEW_ILL.:Z8A6TOU  is referenced.
   Z8E_MACROS.:Z8A6TOU  cannot be made into a system file and is referenced.
   Z8A_LEX_SYMB.:Z8A6TOU  cannot be made into a system file and is referenced.
   Z8E_STACKS.:Z8A6TOU  cannot be made into a system file and is referenced.
   Z8E_WINDOW.:Z8A6TOU  is referenced.
   Z8A_ERR_NUMS.:Z8A6TOU  is referenced.
   Z8A_DNT.:Z8A6TOU  cannot be made into a system file and is referenced.
   Z8A_ST.:Z8A6TOU  cannot be made into a system file and is referenced.
   Z8A_COMCOM.:Z8A6TOU  cannot be made into a system file and is referenced.
   X8A_COM_MACS.:X8A6TOU  is referenced.
   Z8A_NAMES.:Z8A6TOU  is referenced.
   Z8A_SUPP_MAC.:Z8A6TOU  is referenced.
   Z8A_DEFC.:Z8A6TOU  cannot be made into a system file and is referenced.
      No diagnostics issued in procedure Z8CO$END_PROGRAM.

   Procedure Z8CO$END_PROGRAM requires 253 words for executable code.
   Procedure Z8CO$END_PROGRAM requires 12 words of local(AUTO) storage.

    No errors detected in file Z8CO.:Z8A6TSI    .

PL6.E3A0      #006=Z8CO$END_PROGRAM File=Z8CO.:Z8A6TSI                           SAT 08/09/97 11:08 Page:148

 Object Unit name= Z8CO$END_PROGRAM                           File name= Z8CO.:Z8A6TOU
 UTS= AUG 09 '97 11:08:58.12 SAT                              Compiler= PL-6/E31         Sev=      00
 SharedLib= :SHARED_SYSTEM                                    Alt SharedLib=


    ****  Control sections  ****

 Sect   Type Bound  Init  Size OctSiz  Section name(segment info)
    0  LblCom even  none     1      1  ITERATION
    1  LblCom even  none     1      1  ST$
    2  LblCom even  none     5      5  ST_
    3  LblCom even  none     1      1  DNT$
    4  LblCom even  none     5      5  DNT_
    5  LblCom even  none     1      1  DNT_BUCKET_NUMBER
    6  LblCom even  none     1      1  DNT_OF_1$
    7  LblCom even  none    90    132  LEX_SYMBOL
    8  LblCom even  none     1      1  CURRENT_LEX_SYMBOL$
    9  LblCom even  none    90    132  TEMP_LEX_SYMBOL
   10  LblCom even  none    90    132  TEMP_LEX_SYMBOL2
   11  RoData even  UTS      2      2  Z8CO$END_PROGRAM
   12   Proc  even  none   253    375  Z8CO$END_PROGRAM
   13  RoData even  none    18     22  Z8CO$END_PROGRAM

    ****  Entry defs  ****

                              Check   Calling
                             calling  sequence
  Sect OctLoc Primary Altret sequence   type   Parms  Name
    12      0   yes            yes      Std        1  Z8CO$END_PROGRAM
PL6.E3A0      #006=Z8CO$END_PROGRAM File=Z8CO.:Z8A6TSI                           SAT 08/09/97 11:08 Page:149

  ****  Entry refs  ****

         Check        Calling
        calling       sequence
Altret sequence SRef   type   Args  Name
         yes           Std      12 Z8AE$ERROR
         yes           Std       0 Z8AH$SEARCH_
                       nStd      0 X66_AUTO_1
                       nStd      0 X66_ARET

  ****  Data refs  ****

  Flags:  r = read only, s = secondary
Flgs Name                             Flgs Name                             Flgs Name
     COMCOM                                O1COM                                 HIER_STK_PTR
     HIER_STK                              PAGE_FORMAT                           REP_STK_PTR
     REP_STK                               END_PROGRAM_FOUND                r    DNT$_FROM_RSWNO

  ****  Segment refs  ****

  Flags:  r = read only, s = secondary
Flgs Name                             Flgs Name                             Flgs Name
     NULLSID                               ISSID
PL6.E3A0      #006=Z8CO$END_PROGRAM File=Z8CO.:Z8A6TSI                           SAT 08/09/97 11:08 Page:150


      674        1        /*T***********************************************************/
      675        2        /*T*                                                         */
      676        3        /*T* Copyright (c) Bull HN Information Systems Inc., 1997    */
      677        4        /*T*                                                         */
      678        5        /*T***********************************************************/
      679        6        /*================*/
      680        7          Z8CO$END_PROGRAM: PROC (NAME$);

      7 12 000000   000000 700200 xent  Z8CO$END_PR* TSX0  ! X66_AUTO_1
        12 000001   000014 000001                    ZERO    12,1

      681        8        /*================*/
      682        9
      683       10             %EQU PHASE = 1;
      684       11             %EQU NO_NAME_TEXT = 'NO-NAME';
      685       12             %EQU NO_NAME_LENGTH = 7;
      686       13
      687       14             %INCLUDE Z8A_DEFC;
      688       82             %INCLUDE Z8A_SUPP_MAC;
      689     2482             %INCLUDE Z8A_COMCOM;
      690     3132             %INCLUDE Z8A_ST;
      691     6791             %INCLUDE Z8A_DNT;
      692     7012             %INCLUDE Z8A_ERR_NUMS;
      693     7776             %INCLUDE Z8E_WINDOW;
      694     9846             %INCLUDE Z8E_STACKS;
      695    12112             %INCLUDE Z8E_MACROS;
      696    12787             %INCLUDE Z8E_O1COM;
      697    13548
      698    13549    1        DCL Z8AE$ERROR    ENTRY (12);
      699    13550    1        DCL Z8AH$SEARCH_   ENTRY;
      700    13551
      701    13552    1        DCL END_PROGRAM_FOUND    BIT(1) ALIGNED SYMREF;
      702    13553
      703    13554    1        DCL NAME$         PTR;
      704    13555    1        DCL DNT$$         PTR;
      705    13556    1        DCL PROC$         PTR;
PL6.E3A0      #006=Z8CO$END_PROGRAM File=Z8CO.:Z8A6TSI                           SAT 08/09/97 11:08 Page:151
      706    13557    1        DCL DNT$_FROM_RSWNO  (0:0) PTR SYMREF READONLY;
      707    13558
      708    13559
      709    13560             %MACRO POP_AN_END (@LINE = NAME$ -> LX_TERMINAL.LINE);
      710    13561               DO;
      711    13562                 O1COM.CURRENT_PROC$ -> PROC_.LINE_END = @LINE;
      712    13563                 O1COM.CURRENT_PROC$ = O1COM.CURRENT_PROC$ -> PROC_.FATHER;
      713    13564               END;
      714    13565             %MEND;
      715    13566
      716    13567             %MACRO GET_NO_NAME_DNT$;
      717    13568               DO;
      718    13569                 LEX_SYMBOL.SIZE = %NO_NAME_LENGTH;
      719    13570                 SUBSTR (LEX_SYMBOL.SYMBOL,
      720    13571                         0,
      721    13572                         LEX_SYMBOL.SIZE) = %NO_NAME_TEXT;
      722    13573                 CALL Z8AH$SEARCH_;
      723    13574               END;
      724    13575             %MEND;
      725    13576
      726    13577             %EJECT;
PL6.E3A0      #006=Z8CO$END_PROGRAM File=Z8CO.:Z8A6TSI                           SAT 08/09/97 11:08 Page:152
      727    13578
      728    13579    1        IF NAME$ = ADDR(NIL) THEN

  13579 12 000002   200003 470500                    LDP0    @NAME$,,AUTO
        12 000003   000000 236100                    LDQ     0,,PR0
        12 000004   000000 116000 13                 CMPQ    0
        12 000005   000052 601000 12                 TNZ     s:13607

      729    13580    2          DO;

      730    13581                 /* EOF found, check for missing ends */
      731    13582    2            IF O1COM.CURRENT_PROC$ = ADDR(NIL) THEN

  13582 12 000006   000057 236000 xsym               LDQ     O1COM+47
        12 000007   000000 116000 13                 CMPQ    0
        12 000010   000012 601000 12                 TNZ     s:13585

      732    13583    2              RETURN;

  13583 12 000011   000000 702200 xent               TSX2  ! X66_ARET

      733    13584
      734    13585    2            IF O1COM.CURRENT_PROC$ -> PROC_.SON ~= ADDR(NIL)

  13585 12 000012   000057 471400 xsym               LDP1    O1COM+47
        12 000013   100007 236100                    LDQ     7,,PR1
        12 000014   000000 116000 13                 CMPQ    0
        12 000015   000021 601000 12                 TNZ     s:13588
        12 000016   100011 236100                    LDQ     9,,PR1
        12 000017   000000 116000 13                 CMPQ    0
        12 000020   000051 600000 12                 TZE     s:13604

      735    13586    2            OR O1COM.CURRENT_PROC$ -> PROC_.FATHER ~= ADDR(NIL) THEN
      736    13587    3              DO UNTIL (O1COM.CURRENT_PROC$ = ADDR(NIL));

      737    13588    3                IF NOT O1COM.CURRENT_PROC$ -> PROC_.PROC_DEF$ ->

PL6.E3A0      #006=Z8CO$END_PROGRAM File=Z8CO.:Z8A6TSI                           SAT 08/09/97 11:08 Page:153
  13588 12 000021   000057 470400 xsym               LDP0    O1COM+47
        12 000022   000006 471500                    LDP1    6,,PR0
        12 000023   100006 473500                    LDP3    6,,PR1
        12 000024   300003 236100                    LDQ     3,,PR3
        12 000025   000100 316003                    CANQ    64,DU
        12 000026   000041 601000 12                 TNZ     s:13598

      738    13589    3                       SYMDEF_.DNT$ -> DNT.B.ERROR_VARIABLE THEN
      739    13590    3                  CALL Z8AE$ERROR (%E$END_PROGRAM_INSERTED,

  13590 12 000027   100006 634500                    EPPR4   6,,PR1
        12 000030   200011 454500                    STP4    PROC$+4,,AUTO
        12 000031   000003 236000 13                 LDQ     3
        12 000032   200010 756100                    STQ     PROC$+3,,AUTO
        12 000033   000004 237000 13                 LDAQ    4
        12 000034   200006 757100                    STAQ    PROC$+1,,AUTO
        12 000035   200006 630500                    EPPR0   PROC$+1,,AUTO
        12 000036   000001 631400 13                 EPPR1   1
        12 000037   000000 701000 xent               TSX1    Z8AE$ERROR
        12 000040   000000 011000                    NOP     0

      740    13591    3                                   COMCOM.CURRENT.LINE,
      741    13592    3                                   COMCOM.CURRENT.COLUMN,
      742    13593    3                                   O1COM.CURRENT_PROC$ -> PROC_.PROC_DEF$ ->
      743    13594    3                                   SYMDEF_.DNT$);
      744    13595
      745    13596                     %POP_AN_END (@LINE = COMCOM.CURRENT.LINE);

  13598 12 000041   000133 720000 xsym               LXL0    COMCOM+91
        12 000042   000057 470400 xsym               LDP0    O1COM+47
        12 000043   000002 440100                    SXL0    2,,PR0

  13599 12 000044   000057 470400 xsym               LDP0    O1COM+47
        12 000045   000011 236100                    LDQ     9,,PR0
        12 000046   000057 756000 xsym               STQ     O1COM+47

      746    13602    3              END; /* Until */
PL6.E3A0      #006=Z8CO$END_PROGRAM File=Z8CO.:Z8A6TSI                           SAT 08/09/97 11:08 Page:154

  13602 12 000047   000000 116000 13                 CMPQ    0
        12 000050   000021 601000 12                 TNZ     s:13588

      747    13603
      748    13604    2            RETURN;

  13604 12 000051   000000 702200 xent               TSX2  ! X66_ARET

      749    13605    2          END; /*  IF for EOF */
      750    13606
      751    13607    1        IF O1COM.CURRENT_PROC$ = ADDR(NIL) THEN

  13607 12 000052   000057 236000 xsym               LDQ     O1COM+47
        12 000053   000000 116000 13                 CMPQ    0
        12 000054   000100 601000 12                 TNZ     s:13646

      752    13608    2          DO;

      753    13609                 /* EXTRA END PROGRAM */
      754    13610                 %CONDITIONAL_ERROR (@LX_ITEM$ = NAME$,
      755    13611                                     @ERROR#   = %E$EXTRA_END_PROGRAM,
      756    13612                                     @LINE     = NAME$ -> LX_TERMINAL.LINE,
      757    13613                                     @COLUMN   = NAME$ -> LX_TERMINAL.COLUMN);

  13623 12 000055   000000 471500                    LDP1    0,,PR0
        12 000056   100000 236100                    LDQ     0,,PR1
        12 000057   400000 316007                    CANQ    -131072,DL
        12 000060   000077 601000 12                 TNZ     s:13643

  13625 12 000061   100006 633500                    EPPR3   6,,PR1
        12 000062   200010 453500                    STP3    PROC$+3,,AUTO
        12 000063   100005 634500                    EPPR4   5,,PR1
        12 000064   200007 454500                    STP4    PROC$+2,,AUTO
        12 000065   000010 236000 13                 LDQ     8
        12 000066   200006 756100                    STQ     PROC$+1,,AUTO
        12 000067   200006 630500                    EPPR0   PROC$+1,,AUTO
PL6.E3A0      #006=Z8CO$END_PROGRAM File=Z8CO.:Z8A6TSI                           SAT 08/09/97 11:08 Page:155
        12 000070   000006 631400 13                 EPPR1   6
        12 000071   000000 701000 xent               TSX1    Z8AE$ERROR
        12 000072   000000 011000                    NOP     0

  13634 12 000073   200003 470500                    LDP0    @NAME$,,AUTO
        12 000074   000000 471500                    LDP1    0,,PR0
        12 000075   400000 236007                    LDQ     -131072,DL
        12 000076   100000 256100                    ORSQ    0,,PR1

      758    13643    2            RETURN;

  13643 12 000077   000000 702200 xent               TSX2  ! X66_ARET

      759    13644    2          END;
      760    13645
      761    13646    1        IF COMCOM.OB.FIPS.LEVEL >= %INT_LEV THEN

  13646 12 000100   000036 720000 xsym               LXL0    COMCOM+30
        12 000101   000002 100003                    CMPX0   2,DU
        12 000102   000120 604000 12                 TMI     s:13651

      762    13647    1          CALL Z8AE$ERROR (%E$LEVEL_CHECK,

  13647 12 000103   000151 236000 xsym               LDQ     O1COM+105
        12 000104   000025 736000                    QLS     21
        12 000105   000012 036000 13                 ADLQ    10
        12 000106   200010 756100                    STQ     PROC$+3,,AUTO
        12 000107   000151 236000 xsym               LDQ     O1COM+105
        12 000110   000025 736000                    QLS     21
        12 000111   000013 036000 13                 ADLQ    11
        12 000112   000014 235000 13                 LDA     12
        12 000113   200006 757100                    STAQ    PROC$+1,,AUTO
        12 000114   200006 630500                    EPPR0   PROC$+1,,AUTO
        12 000115   000006 631400 13                 EPPR1   6
        12 000116   000000 701000 xent               TSX1    Z8AE$ERROR
        12 000117   000000 011000                    NOP     0

PL6.E3A0      #006=Z8CO$END_PROGRAM File=Z8CO.:Z8A6TSI                           SAT 08/09/97 11:08 Page:156
      763    13648    1                           O1COM.LX_STK.LINE (O1COM.LX_TOP - 3),
      764    13649    1                           O1COM.LX_STK.COLUMN (O1COM.LX_TOP - 3));
      765    13650
      766    13651    1        DNT$$ = NAME$ -> LX_TERMINAL.DNT$;

  13651 12 000120   200003 470500                    LDP0    @NAME$,,AUTO
        12 000121   000000 471500                    LDP1    0,,PR0
        12 000122   100002 236100                    LDQ     2,,PR1
        12 000123   200004 756100                    STQ     DNT$$,,AUTO

      767    13652
      768    13653    1        IF DNT$$ = O1COM.CURRENT_PROC$ -> PROC_.PROC_DEF$ -> SYMDEF_.DNT$ THEN

  13653 12 000124   000057 473400 xsym               LDP3    O1COM+47
        12 000125   300006 474500                    LDP4    6,,PR3
        12 000126   400006 116100                    CMPQ    6,,PR4
        12 000127   000136 601000 12                 TNZ     s:13668

      769    13654               /* Great! */
      770    13655               %POP_AN_END;

  13657 12 000130   100005 720100                    LXL0    5,,PR1
        12 000131   300002 440100                    SXL0    2,,PR3

  13658 12 000132   000057 471400 xsym               LDP1    O1COM+47
        12 000133   100011 236100                    LDQ     9,,PR1
        12 000134   000057 756000 xsym               STQ     O1COM+47

  13659 12 000135   000370 710000 12                 TRA     s:13866

      771    13661    1        ELSE
      772    13662    2          DO;

      773    13663                 /* ERROR -- As a recovery we will attempt to match this end
      774    13664                             with another end with the same name.  If all else
      775    13665                             fails then we will just pop 1 proc off the
      776    13666                             O1COM.CURRENT_PROC$ chain.                     */
PL6.E3A0      #006=Z8CO$END_PROGRAM File=Z8CO.:Z8A6TSI                           SAT 08/09/97 11:08 Page:157
      777    13667
      778    13668    2            PROC$ = O1COM.CURRENT_PROC$ -> PROC_.FATHER;

  13668 12 000136   300011 236100                    LDQ     9,,PR3
        12 000137   200005 756100                    STQ     PROC$,,AUTO

      779    13669
      780    13670    3            DO WHILE (PROC$ ~= ADDR(NIL));

  13670 12 000140   000150 710000 12                 TRA     s:13675

      781    13671    3              IF PROC$ -> PROC_.PROC_DEF$ -> SYMDEF_.DNT$ = DNT$$ THEN

  13671 12 000141   200005 470500                    LDP0    PROC$,,AUTO
        12 000142   000006 471500                    LDP1    6,,PR0
        12 000143   100006 236100                    LDQ     6,,PR1
        12 000144   200004 116100                    CMPQ    DNT$$,,AUTO
        12 000145   000152 600000 12                 TZE     s:13677

      782    13672    3                EXIT;
      783    13673    3              ELSE
      784    13674    3                PROC$ = PROC$ -> PROC_.FATHER;

  13674 12 000146   000011 236100                    LDQ     9,,PR0
        12 000147   200005 756100                    STQ     PROC$,,AUTO

      785    13675    3            END; /* WHILE */

  13675 12 000150   000000 116000 13                 CMPQ    0
        12 000151   000141 601000 12                 TNZ     s:13671

      786    13676
      787    13677    2            IF PROC$ = ADDR(NIL) THEN

  13677 12 000152   200005 236100                    LDQ     PROC$,,AUTO
        12 000153   000000 116000 13                 CMPQ    0
        12 000154   000264 601000 12                 TNZ     s:13773
PL6.E3A0      #006=Z8CO$END_PROGRAM File=Z8CO.:Z8A6TSI                           SAT 08/09/97 11:08 Page:158

      788    13678    3              DO;

      789    13679    3                IF O1COM.CURRENT_PROC$ -> PROC_.PROC_DEF$ ->

  13679 12 000155   000057 470400 xsym               LDP0    O1COM+47
        12 000156   000006 471500                    LDP1    6,,PR0
        12 000157   100006 473500                    LDP3    6,,PR1
        12 000160   300003 236100                    LDQ     3,,PR3
        12 000161   000100 316003                    CANQ    64,DU
        12 000162   000224 600000 12                 TZE     s:13744

      790    13680    3                     SYMDEF_.DNT$ -> DNT.B.ERROR_VARIABLE THEN
      791    13681    4                  DO;

      792    13682                         %GET_NO_NAME_DNT$;

  13684 12 000163   000007 235007                    LDA     7,DL
        12 000164   000010 755000 7                  STA     LEX_SYMBOL+8

  13685 12 000165   000000 620005                    EAX0    0,AL
        12 000166   040040 100400                    MLR     fill='040'O
        12 000167   000000 000007 11                 ADSC9   0                        cn=0,n=7
        12 000170   000011 000010 7                  ADSC9   LEX_SYMBOL+9             cn=0,n=*X0

  13688 12 000171   000015 631400 13                 EPPR1   13
        12 000172   000000 701000 xent               TSX1    Z8AH$SEARCH_
        12 000173   000000 011000                    NOP     0

      793    13691
      794    13692                         %CONDITIONAL_ERROR (@LX_ITEM$ = NAME$,
      795    13693                           @ERROR#   = %E$WRONG_END_PROGRAM,
      796    13694                           @LINE     = NAME$ -> LX_ITEM.LINE,
      797    13695                           @COLUMN   = NAME$ -> LX_ITEM.COLUMN,
      798    13696                           @PLUG1    = NAME$ -> LX_TERMINAL.DNT$,
      799    13697                           @PLUG2    = DNT$);

PL6.E3A0      #006=Z8CO$END_PROGRAM File=Z8CO.:Z8A6TSI                           SAT 08/09/97 11:08 Page:159
  13707 12 000174   200003 470500                    LDP0    @NAME$,,AUTO
        12 000175   000000 471500                    LDP1    0,,PR0
        12 000176   100000 236100                    LDQ     0,,PR1
        12 000177   400000 316007                    CANQ    -131072,DL
        12 000200   000253 601000 12                 TNZ     s:13766

  13709 12 000201   000020 236000 13                 LDQ     16
        12 000202   200012 756100                    STQ     PROC$+5,,AUTO
        12 000203   100002 633500                    EPPR3   2,,PR1
        12 000204   200011 453500                    STP3    PROC$+4,,AUTO
        12 000205   100006 634500                    EPPR4   6,,PR1
        12 000206   200010 454500                    STP4    PROC$+3,,AUTO
        12 000207   100005 635500                    EPPR5   5,,PR1
        12 000210   200007 455500                    STP5    PROC$+2,,AUTO
        12 000211   000021 236000 13                 LDQ     17
        12 000212   200006 756100                    STQ     PROC$+1,,AUTO
        12 000213   200006 630500                    EPPR0   PROC$+1,,AUTO
        12 000214   000016 631400 13                 EPPR1   14
        12 000215   000000 701000 xent               TSX1    Z8AE$ERROR
        12 000216   000000 011000                    NOP     0

  13718 12 000217   200003 470500                    LDP0    @NAME$,,AUTO
        12 000220   000000 471500                    LDP1    0,,PR0
        12 000221   400000 236007                    LDQ     -131072,DL
        12 000222   100000 256100                    ORSQ    0,,PR1

      800    13727    4                  END;

  13727 12 000223   000253 710000 12                 TRA     s:13766

      801    13728    3                ELSE
      802    13729                       %CONDITIONAL_ERROR (@LX_ITEM$ = NAME$,
      803    13730                         @ERROR#   = %E$WRONG_END_PROGRAM,
      804    13731                         @LINE     = NAME$ -> LX_ITEM.LINE,
      805    13732                         @COLUMN   = NAME$ -> LX_ITEM.COLUMN,
      806    13733                         @PLUG1    = NAME$ -> LX_TERMINAL.DNT$,
      807    13734                         @PLUG2   = O1COM.CURRENT_PROC$ -> PROC_.PROC_DEF$ -> SYMDEF_.DNT$)
PL6.E3A0      #006=Z8CO$END_PROGRAM File=Z8CO.:Z8A6TSI                           SAT 08/09/97 11:08 Page:160
             13734                             ;

  13744 12 000224   200003 474500                    LDP4    @NAME$,,AUTO
        12 000225   400000 475500                    LDP5    0,,PR4
        12 000226   500000 236100                    LDQ     0,,PR5
        12 000227   400000 316007                    CANQ    -131072,DL
        12 000230   000253 601000 12                 TNZ     s:13766

  13746 12 000231   100006 636500                    EPPR6   6,,PR1
        12 000232   200012 456500                    STP6    PROC$+5,,AUTO
        12 000233   500002 631500                    EPPR1   2,,PR5
        12 000234   200011 451500                    STP1    PROC$+4,,AUTO
        12 000235   500006 633500                    EPPR3   6,,PR5
        12 000236   200010 453500                    STP3    PROC$+3,,AUTO
        12 000237   500005 637500                    EPPR7   5,,PR5
        12 000240   200007 457500                    STP7    PROC$+2,,AUTO
        12 000241   000021 236000 13                 LDQ     17
        12 000242   200006 756100                    STQ     PROC$+1,,AUTO
        12 000243   200006 630500                    EPPR0   PROC$+1,,AUTO
        12 000244   000016 631400 13                 EPPR1   14
        12 000245   000000 701000 xent               TSX1    Z8AE$ERROR
        12 000246   000000 011000                    NOP     0

  13755 12 000247   200003 470500                    LDP0    @NAME$,,AUTO
        12 000250   000000 471500                    LDP1    0,,PR0
        12 000251   400000 236007                    LDQ     -131072,DL
        12 000252   100000 256100                    ORSQ    0,,PR1

      808    13764                     %POP_AN_END;

  13766 12 000253   200003 470500                    LDP0    @NAME$,,AUTO
        12 000254   000000 471500                    LDP1    0,,PR0
        12 000255   100005 720100                    LXL0    5,,PR1
        12 000256   000057 473400 xsym               LDP3    O1COM+47
        12 000257   300002 440100                    SXL0    2,,PR3

  13767 12 000260   000057 471400 xsym               LDP1    O1COM+47
PL6.E3A0      #006=Z8CO$END_PROGRAM File=Z8CO.:Z8A6TSI                           SAT 08/09/97 11:08 Page:161
        12 000261   100011 236100                    LDQ     9,,PR1
        12 000262   000057 756000 xsym               STQ     O1COM+47

      809    13770    3              END;

  13770 12 000263   000370 710000 12                 TRA     s:13866

      810    13771    2            ELSE
      811    13772    3              DO UNTIL (O1COM.CURRENT_PROC$ = PROC$);

      812    13773    3                IF O1COM.CURRENT_PROC$ -> PROC_.PROC_DEF$ ->

  13773 12 000264   000057 470400 xsym               LDP0    O1COM+47
        12 000265   000006 471500                    LDP1    6,,PR0
        12 000266   100006 473500                    LDP3    6,,PR1
        12 000267   300003 236100                    LDQ     3,,PR3
        12 000270   000100 316003                    CANQ    64,DU
        12 000271   000331 600000 12                 TZE     s:13836

      813    13774    3                     SYMDEF_.DNT$ -> DNT.B.ERROR_VARIABLE THEN
      814    13775    4                  DO;

      815    13776                         %GET_NO_NAME_DNT$;

  13778 12 000272   000007 235007                    LDA     7,DL
        12 000273   000010 755000 7                  STA     LEX_SYMBOL+8

  13779 12 000274   000000 620005                    EAX0    0,AL
        12 000275   040040 100400                    MLR     fill='040'O
        12 000276   000000 000007 11                 ADSC9   0                        cn=0,n=7
        12 000277   000011 000010 7                  ADSC9   LEX_SYMBOL+9             cn=0,n=*X0

  13782 12 000300   000015 631400 13                 EPPR1   13
        12 000301   000000 701000 xent               TSX1    Z8AH$SEARCH_
        12 000302   000000 011000                    NOP     0

      816    13785
PL6.E3A0      #006=Z8CO$END_PROGRAM File=Z8CO.:Z8A6TSI                           SAT 08/09/97 11:08 Page:162
      817    13786                         %CONDITIONAL_ERROR (@LX_ITEM$ = NAME$,
      818    13787                           @ERROR#   = %E$END_PROGRAM_INSERTED,
      819    13788                           @LINE     = NAME$ -> LX_ITEM.LINE,
      820    13789                           @COLUMN   = NAME$ -> LX_ITEM.COLUMN,
      821    13790                           @PLUG1    = DNT$);

  13800 12 000303   200003 470500                    LDP0    @NAME$,,AUTO
        12 000304   000000 471500                    LDP1    0,,PR0
        12 000305   100000 236100                    LDQ     0,,PR1
        12 000306   400000 316007                    CANQ    -131072,DL
        12 000307   000356 601000 12                 TNZ     s:13859

  13802 12 000310   000020 236000 13                 LDQ     16
        12 000311   200011 756100                    STQ     PROC$+4,,AUTO
        12 000312   100006 633500                    EPPR3   6,,PR1
        12 000313   200010 453500                    STP3    PROC$+3,,AUTO
        12 000314   100005 634500                    EPPR4   5,,PR1
        12 000315   200007 454500                    STP4    PROC$+2,,AUTO
        12 000316   000004 236000 13                 LDQ     4
        12 000317   200006 756100                    STQ     PROC$+1,,AUTO
        12 000320   200006 630500                    EPPR0   PROC$+1,,AUTO
        12 000321   000001 631400 13                 EPPR1   1
        12 000322   000000 701000 xent               TSX1    Z8AE$ERROR
        12 000323   000000 011000                    NOP     0

  13811 12 000324   200003 470500                    LDP0    @NAME$,,AUTO
        12 000325   000000 471500                    LDP1    0,,PR0
        12 000326   400000 236007                    LDQ     -131072,DL
        12 000327   100000 256100                    ORSQ    0,,PR1

      822    13820    4                  END;

  13820 12 000330   000356 710000 12                 TRA     s:13859

      823    13821    3                ELSE
      824    13822                       %CONDITIONAL_ERROR (@LX_ITEM$ = NAME$,
      825    13823                         @ERROR#   = %E$END_PROGRAM_INSERTED,
PL6.E3A0      #006=Z8CO$END_PROGRAM File=Z8CO.:Z8A6TSI                           SAT 08/09/97 11:08 Page:163
      826    13824                         @LINE     = NAME$ -> LX_ITEM.LINE,
      827    13825                         @COLUMN   = NAME$ -> LX_ITEM.COLUMN,
      828    13826                         @PLUG1   = O1COM.CURRENT_PROC$ -> PROC_.PROC_DEF$ -> SYMDEF_.DNT$)
             13826                             ;

  13836 12 000331   200003 474500                    LDP4    @NAME$,,AUTO
        12 000332   400000 475500                    LDP5    0,,PR4
        12 000333   500000 236100                    LDQ     0,,PR5
        12 000334   400000 316007                    CANQ    -131072,DL
        12 000335   000356 601000 12                 TNZ     s:13859

  13838 12 000336   100006 636500                    EPPR6   6,,PR1
        12 000337   200011 456500                    STP6    PROC$+4,,AUTO
        12 000340   500006 631500                    EPPR1   6,,PR5
        12 000341   200010 451500                    STP1    PROC$+3,,AUTO
        12 000342   500005 633500                    EPPR3   5,,PR5
        12 000343   200007 453500                    STP3    PROC$+2,,AUTO
        12 000344   000004 236000 13                 LDQ     4
        12 000345   200006 756100                    STQ     PROC$+1,,AUTO
        12 000346   200006 630500                    EPPR0   PROC$+1,,AUTO
        12 000347   000001 631400 13                 EPPR1   1
        12 000350   000000 701000 xent               TSX1    Z8AE$ERROR
        12 000351   000000 011000                    NOP     0

  13847 12 000352   200003 470500                    LDP0    @NAME$,,AUTO
        12 000353   000000 471500                    LDP1    0,,PR0
        12 000354   400000 236007                    LDQ     -131072,DL
        12 000355   100000 256100                    ORSQ    0,,PR1

      829    13856
      830    13857                     %POP_AN_END;

  13859 12 000356   200003 470500                    LDP0    @NAME$,,AUTO
        12 000357   000000 471500                    LDP1    0,,PR0
        12 000360   100005 720100                    LXL0    5,,PR1
        12 000361   000057 473400 xsym               LDP3    O1COM+47
        12 000362   300002 440100                    SXL0    2,,PR3
PL6.E3A0      #006=Z8CO$END_PROGRAM File=Z8CO.:Z8A6TSI                           SAT 08/09/97 11:08 Page:164

  13860 12 000363   000057 471400 xsym               LDP1    O1COM+47
        12 000364   100011 236100                    LDQ     9,,PR1
        12 000365   000057 756000 xsym               STQ     O1COM+47

      831    13863    3              END;

  13863 12 000366   200005 116100                    CMPQ    PROC$,,AUTO
        12 000367   000264 601000 12                 TNZ     s:13773

      832    13864    2          END; /* IF THEN ELSE -- DNT$$ ~= O1COM.CURRENT_PROC$ */

      833    13865
      834    13866    1        IF O1COM.CURRENT_PROC$ = ADDR(NIL) THEN

  13866 12 000370   000000 116000 13                 CMPQ    0
        12 000371   000374 601000 12                 TNZ     s:13869

      835    13867    1          END_PROGRAM_FOUND = TRUE;

  13867 12 000372   400000 236003                    LDQ     -131072,DU
        12 000373   000000 756000 xsym               STQ     END_PROGRAM_FOUND

      836    13868
      837    13869    1   END Z8CO$END_PROGRAM;

  13869 12 000374   000000 702200 xent               TSX2  ! X66_ARET

PL6.E3A0      #006=Z8CO$END_PROGRAM File=Z8CO.:Z8A6TSI                           SAT 08/09/97 11:08 Page:165
--  Include file information  --

   Z8E_O1COM.:Z8A6TOU  cannot be made into a system file and is referenced.
   Z8E_NEW_ILL.:Z8A6TOU  is referenced.
   Z8E_MACROS.:Z8A6TOU  cannot be made into a system file and is referenced.
   Z8A_LEX_SYMB.:Z8A6TOU  cannot be made into a system file and is referenced.
   Z8E_STACKS.:Z8A6TOU  cannot be made into a system file and is referenced.
   Z8E_WINDOW.:Z8A6TOU  is referenced.
   Z8A_ERR_NUMS.:Z8A6TOU  is referenced.
   Z8A_DNT.:Z8A6TOU  cannot be made into a system file and is referenced.
   Z8A_ST.:Z8A6TOU  cannot be made into a system file and is referenced.
   Z8A_COMCOM.:Z8A6TOU  cannot be made into a system file and is referenced.
   X8A_COM_MACS.:X8A6TOU  is referenced.
   Z8A_NAMES.:Z8A6TOU  is referenced.
   Z8A_SUPP_MAC.:Z8A6TOU  is referenced.
   Z8A_DEFC.:Z8A6TOU  cannot be made into a system file and is referenced.
      No diagnostics issued in procedure Z8CO$END_PROGRAM.
PL6.E3A0      #006=Z8CO$END_PROGRAM File=Z8CO.:Z8A6TSI                           SAT 08/09/97 11:08 Page:166

 **** Variables and constants ****

  ****  Section 000 LblCom ITERATION

  ****  Scalars and arrays  ****
OctLoc.c.b A Datatyp(siz) R M Lvl/name                 OctLoc.c.b A Datatyp(siz) R M Lvl/name

     0-0-0/w SBIN              1 ITERATION

  ****  Section 001 LblCom ST$

  ****  Scalars and arrays  ****
OctLoc.c.b A Datatyp(siz) R M Lvl/name                 OctLoc.c.b A Datatyp(siz) R M Lvl/name

     0-0-0/w PTR         r     1 ST$

  ****  Section 002 LblCom ST_

  ****  Scalars and arrays  ****
OctLoc.c.b A Datatyp(siz) R M Lvl/name                 OctLoc.c.b A Datatyp(siz) R M Lvl/name

     0-0-0/w STRC(180)         1 ST_

  ****  Section 003 LblCom DNT$

  ****  Scalars and arrays  ****
OctLoc.c.b A Datatyp(siz) R M Lvl/name                 OctLoc.c.b A Datatyp(siz) R M Lvl/name

     0-0-0/w PTR         r     1 DNT$

  ****  Section 004 LblCom DNT_

  ****  Scalars and arrays  ****
OctLoc.c.b A Datatyp(siz) R M Lvl/name                 OctLoc.c.b A Datatyp(siz) R M Lvl/name

     0-0-0/w STRC(180)         1 DNT_

PL6.E3A0      #006=Z8CO$END_PROGRAM File=Z8CO.:Z8A6TSI                           SAT 08/09/97 11:08 Page:167
  ****  Section 005 LblCom DNT_BUCKET_NUMBER

  ****  Scalars and arrays  ****
OctLoc.c.b A Datatyp(siz) R M Lvl/name                 OctLoc.c.b A Datatyp(siz) R M Lvl/name

     0-0-0/w UBIN              1 DNT_BUCKET_NUMBER

  ****  Section 006 LblCom DNT_OF_1$

  ****  Scalars and arrays  ****
OctLoc.c.b A Datatyp(siz) R M Lvl/name                 OctLoc.c.b A Datatyp(siz) R M Lvl/name

     0-0-0/w PTR               1 DNT_OF_1$

  ****  Section 007 LblCom LEX_SYMBOL

  ****  Scalars and arrays  ****
OctLoc.c.b A Datatyp(siz) R M Lvl/name                 OctLoc.c.b A Datatyp(siz) R M Lvl/name

     0-0-0/w STRC(3240)  r     1 LEX_SYMBOL                 0-0-0/w STRC(3240)        1 LEX_SYMBOL_WORDS

  ****  Section 008 LblCom CURRENT_LEX_SYMBOL$

  ****  Scalars and arrays  ****
OctLoc.c.b A Datatyp(siz) R M Lvl/name                 OctLoc.c.b A Datatyp(siz) R M Lvl/name

     0-0-0/w PTR         r     1 CURRENT_LEX_SYMBOL$

  ****  Section 009 LblCom TEMP_LEX_SYMBOL

  ****  Scalars and arrays  ****
OctLoc.c.b A Datatyp(siz) R M Lvl/name                 OctLoc.c.b A Datatyp(siz) R M Lvl/name

     0-0-0/w STRC(3240)        1 TEMP_LEX_SYMBOL

  ****  Section 010 LblCom TEMP_LEX_SYMBOL2

PL6.E3A0      #006=Z8CO$END_PROGRAM File=Z8CO.:Z8A6TSI                           SAT 08/09/97 11:08 Page:168
  ****  Scalars and arrays  ****
OctLoc.c.b A Datatyp(siz) R M Lvl/name                 OctLoc.c.b A Datatyp(siz) R M Lvl/name

     0-0-0/w STRC(3240)        1 TEMP_LEX_SYMBOL2

  ****  Auto variables  ****

  ****  Scalars and arrays  ****
OctLoc.c.b A Datatyp(siz) R M Lvl/name                 OctLoc.c.b A Datatyp(siz) R M Lvl/name

     3-0-0/w PTR         r     1 @NAME$                     4-0-0/w PTR         r     1 DNT$$
    *0-0-0/w PTR         r     1 NAME$                      5-0-0/w PTR         r     1 PROC$

  ****  SYMREF variables  ****

  ****  Scalars and arrays  ****
OctLoc.c.b A Datatyp(siz) R M Lvl/name                 OctLoc.c.b A Datatyp(siz) R M Lvl/name

     0-0-0/d STRC(13248) r     1 COMCOM
     0-0-0/w PTR               1 DNT$_FROM_RSWNO(0:0)
     0-0-0/w BIT         r     1 END_PROGRAM_FOUND
     0-0-0/w STRC(180)         1 HIER_STK(0:50)
     0-0-0/w SBIN              1 HIER_STK_PTR               0-0-0/d STRC(11580) r     1 O1COM
     0-0-0/w STRC(144)         1 PAGE_FORMAT                0-0-0/w STRC(153)         1 REP_STK(0:50)
     0-0-0/w SBIN              1 REP_STK_PTR

  ****  BASED and DCB variables  ****

  ****  Scalars and arrays  ****
OctLoc.c.b A Datatyp(siz) R M Lvl/name                 OctLoc.c.b A Datatyp(siz) R M Lvl/name

     0-0-0/w STRC(288)         1 ADD_STMT                   0-0-0/w STRC(396)         1 ALPHABET
     0-0-0/w STRC(396)         1 ARRAY                      0-0-0/w ASTR(324)   r     1 BASED_LEX_SYMBOL
     0-0-0/w STRC(360)         1 BASED_LEX_SYMBOL_WORDS
     0-0-0/w STRC(288)         1 BINARY_OP                  0-0-0/w STRC(396)         1 BLOCK
     0-0-0/w STRC(288)         1 CALL_STMT                  0-0-0/w STRC(396)         1 CD
     0-0-0/w CHAR(4096)        1 CHARS                      0-0-0/w STRC(396)         1 CLASS
PL6.E3A0      #006=Z8CO$END_PROGRAM File=Z8CO.:Z8A6TSI                           SAT 08/09/97 11:08 Page:169
     0-0-0/w STRC(288)         1 COMPUTE_STMT               0-0-0/w STRC(396)         1 CONDITION
     0-0-0/w STRC(396)         1 CONST                      0-0-0/w STRC(72)          1 CONT
     0-0-0/w STRC(396)         1 DB                         0-0-0/w STRC(396)         1 DCB_
     0-0-0/w STRC(288)         1 DEFERED_IDENTIFIER         0-0-0/w STRC(252)         1 DEFERED_ID_TREE
     0-0-0/w STRC(288)         1 DEFERED_QUAL_ID            0-0-0/w STRC(288)         1 DEFERED_SUM_CLAUSE
     0-0-0/w STRC(288)         1 DEFERED_SUM_CLAUSE_LIST
     0-0-0/w STRC(288)         1 DELETE_STMT                0-0-0/w STRC(288)         1 DIVIDE_STMT
     0-0-0/w STRC(396)         1 DML_ITEM                   0-0-0/w ASTR(180)   r     1 DNT
     0-0-0/w STRC(396)         1 FD                         0-0-0/w STRC(288)         1 ILS_LIST
     0-0-0/w STRC(288)         1 INSPECT_1_STMT             0-0-0/w STRC(288)         1 INSPECT_2_STMT
     0-0-0/w STRC(288)         1 INSPECT_4_STMT             0-0-0/w STRC(396)         1 INTDEF
     0-0-0/w STRC(396)         1 LABEL                      0-0-0/w STRC(288)         1 LA_ITEM
     0-0-0/w STRC(504)         1 LX_CD_INPUT                0-0-0/w STRC(324)         1 LX_CD_I_O
     0-0-0/w STRC(396)         1 LX_CD_OUTPUT               0-0-0/w STRC(288)         1 LX_ETT_ITEM
     0-0-0/w STRC(288)   r     1 LX_ITEM                    0-0-0/w STRC(288)         1 LX_LARGE
     0-0-0/w STRC(288)         1 LX_LIST                    0-0-0/w STRC(1224)        1 LX_REC_DECL
     0-0-0/w STRC(864)         1 LX_REPORT_REC              0-0-0/w STRC(288)   r     1 LX_TERMINAL
     0-0-0/w STRC(396)         1 MNEMONIC                   0-0-0/w STRC(288)         1 MULTIPLY_STMT
     0-0-0/w STRC(36864)       1 PAGE                       0-0-0/w STRC(396)         1 PARA
     0-0-0/w STRC(396)   r     1 PROC_                      0-0-0/w STRC(396)         1 PROC_DEF
     0-0-0/w STRC(396)         1 RD                         0-0-0/w STRC(288)         1 READ_STMT
     0-0-0/w STRC(288)         1 REWRITE_STMT               0-0-0/w STRC(396)         1 SCALAR
     0-0-0/w STRC(396)         1 SD                         0-0-0/w STRC(396)         1 SECTION
     0-0-0/w STRC(396)         1 SEGMENT                    0-0-0/w STRC(396)         1 ST
     0-0-0/w STRC(288)         1 START_STMT                 0-0-0/w STRC(252)         1 STRING_STMT
     0-0-0/w STRC(288)         1 SUBTRACT_STMT              0-0-0/w STRC(396)         1 SWITCH
     0-0-0/w STRC(396)         1 SYMBOLIC_CHAR              0-0-0/w STRC(396)   r     1 SYMDEF_
     0-0-0/w STRC(396)         1 SYMREF_                    0-0-0/w STRC(396)         1 TEMP
     0-0-0/w STRC(288)         1 UNARY_OP                   0-0-0/w STRC(288)         1 UNSTRING_STMT
     0-0-0/w STRC(396)         1 VARIABLE                   0-0-0/w STRC(288)         1 WRITE_STMT


   Procedure Z8CO$END_PROGRAM requires 253 words for executable code.
   Procedure Z8CO$END_PROGRAM requires 12 words of local(AUTO) storage.
PL6.E3A0      #006=Z8CO$END_PROGRAM File=Z8CO.:Z8A6TSI                           SAT 08/09/97 11:08 Page:170

    No errors detected in file Z8CO.:Z8A6TSI    .
