PL6.E3A0      #002=Z8DI$CHECK_CODE_SET File=Z8DI.:Z8A6TSI                        SAT 08/09/97 11:15 Page:259
     1479        1        /*T***********************************************************/
     1480        2        /*T*                                                         */
     1481        3        /*T* Copyright (c) Bull HN Information Systems Inc., 1997    */
     1482        4        /*T*                                                         */
     1483        5        /*T***********************************************************/
     1484        6        /*=============*/
     1485        7          Z8DI$CHECK_CODE_SET : PROC (QLT$$);
     1486        8        /*=============*/
     1487        9
     1488       10         /*P*
     1489       11             NAME : Z8DI$CHECK_CODE_SET
     1490       12             PURPOSE : To verify all the subordinates of a %FD st item are
     1491       13               DISPLAY and sign separate.
     1492       14         */
     1493       15
     1494       16             %EQU PHASE = 1;
     1495       17
     1496       18             %INCLUDE Z8A_DEFC;
     1497       86             %INCLUDE Z8A_SUPP_MAC;
     1498     2486             %INCLUDE Z8A_COMCOM;
     1499     3136             %INCLUDE Z8A_QLT;
     1500     3242             %INCLUDE Z8A_LTS;
     1501     5319             %INCLUDE Z8A_ST;
     1502     8978             %INCLUDE Z8A_TYPES;
     1503     9152             %INCLUDE Z8A_ERR_NUMS;
     1504     9916
     1505     9917             %INCLUDE Z8E_STACKS;
     1506    12183             %INCLUDE Z8E_O1COM;
     1507    12944             %INCLUDE Z8E_MACROS;
     1508    13619
     1509    13620
     1510    13621    1        DCL Z8AU$TYPE_DESCRIPTOR ENTRY (2);
     1511    13622    1        DCL Z8AE$ERROR           ENTRY (12);
     1512    13623
     1513    13624    1        DCL QLT$$                PTR; /* IN -- Ptr to top of tree to
     1514    13625                                                    QLT to traverse.     */
     1515    13626    1        DCL 1 TYPE_DESC          ALIGNED,
PL6.E3A0      #002=Z8DI$CHECK_CODE_SET File=Z8DI.:Z8A6TSI                        SAT 08/09/97 11:15 Page:260
     1516    13627                  %TYPE_DESC;
     1517    13661
     1518    13662
     1519    13663    1        IF NOT QLT$$ -> QLT.B.RENAMES
     1520    13664    1        AND QLT$$ -> QLT.SON ~= ADDR(NIL) THEN
     1521    13665    1          CALL Z8DI$CHECK_CODE_SET (QLT$$ -> QLT.SON);
     1522    13666
     1523    13667    1        IF QLT$$ -> QLT.BROTHER ~= ADDR(NIL) THEN
     1524    13668    1          CALL Z8DI$CHECK_CODE_SET (QLT$$ -> QLT.BROTHER);
     1525    13669
     1526    13670    1        IF O1COM.CURRENT_FILE_LTS$ -> FILE_LTS.LINAGE_COUNTER$
     1527    13671    1           = QLT$$ -> QLT.ST$ THEN
     1528    13672    1          RETURN;
     1529    13673
     1530    13674    1        CALL Z8AU$TYPE_DESCRIPTOR (QLT$$ -> QLT.ST$, TYPE_DESC);
     1531    13675
     1532    13676    2        DO CASE (TYPE_DESC.TYPE);
     1533    13677    2          CASE (%TYA, %TYE, %TYB);
     1534    13678                 /* All ok */
     1535    13679
     1536    13680    2          CASE (%TYD, %TYF, %TYC);
     1537    13681    2            IF TYPE_DESC.DESC.NDSC.TN = %NDSC4 THEN
     1538    13682    2              CALL Z8AE$ERROR (%E$NOT_DISPLAY_SEPARATE_SIGN,
     1539    13683    2                               BINBIT (QLT$$ -> QLT.ST$ -> ST.LINE_NO, 36),
     1540    13684    2                               0);
     1541    13685
     1542    13686    2          CASE (ELSE);
     1543    13687    2            CALL Z8AE$ERROR (%E$NOT_DISPLAY_SEPARATE_SIGN,
     1544    13688    2                             BINBIT (QLT$$ -> QLT.ST$ -> ST.LINE_NO,36),
     1545    13689    2                             0);
     1546    13690    2        END; /* Case */
     1547    13691
     1548    13692    1   END Z8DI$CHECK_CODE_SET;

PL6.E3A0      #002=Z8DI$CHECK_CODE_SET File=Z8DI.:Z8A6TSI                        SAT 08/09/97 11:15 Page:261
--  Include file information  --

   Z8E_NEW_ILL.:Z8A6TOU  is referenced.
   Z8E_MACROS.:Z8A6TOU  cannot be made into a system file and is referenced.
   Z8E_O1COM.:Z8A6TOU  cannot be made into a system file and is referenced.
   Z8A_LEX_SYMB.:Z8A6TOU  cannot be made into a system file and is referenced.
   Z8E_STACKS.:Z8A6TOU  cannot be made into a system file and is referenced.
   Z8A_ERR_NUMS.:Z8A6TOU  is referenced.
   Z8A_TYPES.:Z8A6TOU  is referenced.
   Z8A_ST.:Z8A6TOU  cannot be made into a system file and is referenced.
   Z8A_LTS.:Z8A6TOU  cannot be made into a system file and is referenced.
   Z8A_QLT.:Z8A6TOU  cannot be made into a system file and is referenced.
   Z8A_COMCOM.:Z8A6TOU  cannot be made into a system file and is referenced.
   X8A_COM_MACS.:X8A6TOU  is referenced.
   Z8A_NAMES.:Z8A6TOU  is referenced.
   Z8A_SUPP_MAC.:Z8A6TOU  is referenced.
   Z8A_DEFC.:Z8A6TOU  cannot be made into a system file and is referenced.
      No diagnostics issued in procedure Z8DI$CHECK_CODE_SET.

   Procedure Z8DI$CHECK_CODE_SET requires 103 words for executable code.
   Procedure Z8DI$CHECK_CODE_SET requires 14 words of local(AUTO) storage.

    No errors detected in file Z8DI.:Z8A6TSI    .

PL6.E3A0      #002=Z8DI$CHECK_CODE_SET File=Z8DI.:Z8A6TSI                        SAT 08/09/97 11:15 Page:262

 Object Unit name= Z8DI$CHECK_CODE_SET                        File name= Z8DI.:Z8A6TOU
 UTS= AUG 09 '97 11:15:47.64 SAT                              Compiler= PL-6/E31         Sev=      00
 SharedLib= :SHARED_SYSTEM                                    Alt SharedLib=


    ****  Control sections  ****

 Sect   Type Bound  Init  Size OctSiz  Section name(segment info)
    0  LblCom even  none     1      1  ITERATION
    1  LblCom even  none     1      1  QLT$
    2  LblCom even  none     1      1  PREV_01_QLT$
    3  LblCom even  none     5      5  QLT_
    4  LblCom even  none     1      1  LTS$
    5  LblCom even  none     5      5  LTS_
    6  LblCom even  none     1      1  ST$
    7  LblCom even  none     5      5  ST_
    8  LblCom even  none    90    132  LEX_SYMBOL
    9  LblCom even  none     1      1  CURRENT_LEX_SYMBOL$
   10  LblCom even  none    90    132  TEMP_LEX_SYMBOL
   11  LblCom even  none    90    132  TEMP_LEX_SYMBOL2
   12   Proc  even  none   103    147  Z8DI$CHECK_CODE_SET
   13  RoData even  none     8     10  Z8DI$CHECK_CODE_SET

    ****  Entry defs  ****

                              Check   Calling
                             calling  sequence
  Sect OctLoc Primary Altret sequence   type   Parms  Name
    12      0   yes            yes      Std        1  Z8DI$CHECK_CODE_SET
PL6.E3A0      #002=Z8DI$CHECK_CODE_SET File=Z8DI.:Z8A6TSI                        SAT 08/09/97 11:15 Page:263

  ****  Entry refs  ****

         Check        Calling
        calling       sequence
Altret sequence SRef   type   Args  Name
         yes           Std      12 Z8AE$ERROR
         yes           Std       2 Z8AU$TYPE_DESCRIPTOR
                       nStd      0 X66_AUTO_1
                       nStd      0 X66_ARET

  ****  Data refs  ****

  Flags:  r = read only, s = secondary
Flgs Name                             Flgs Name                             Flgs Name
     COMCOM                           r    LTS_STEP                              O1COM
     HIER_STK_PTR                          HIER_STK                              PAGE_FORMAT
     REP_STK_PTR                           REP_STK

  ****  Segment refs  ****

  Flags:  r = read only, s = secondary
Flgs Name                             Flgs Name                             Flgs Name
     NULLSID                               ISSID
PL6.E3A0      #002=Z8DI$CHECK_CODE_SET File=Z8DI.:Z8A6TSI                        SAT 08/09/97 11:15 Page:264


     1479        1        /*T***********************************************************/
     1480        2        /*T*                                                         */
     1481        3        /*T* Copyright (c) Bull HN Information Systems Inc., 1997    */
     1482        4        /*T*                                                         */
     1483        5        /*T***********************************************************/
     1484        6        /*=============*/
     1485        7          Z8DI$CHECK_CODE_SET : PROC (QLT$$);

      7 12 000000   000000 700200 xent  Z8DI$CHECK_* TSX0  ! X66_AUTO_1
        12 000001   000016 000001                    ZERO    14,1

     1486        8        /*=============*/
     1487        9
     1488       10         /*P*
     1489       11             NAME : Z8DI$CHECK_CODE_SET
     1490       12             PURPOSE : To verify all the subordinates of a %FD st item are
     1491       13               DISPLAY and sign separate.
     1492       14         */
     1493       15
     1494       16             %EQU PHASE = 1;
     1495       17
     1496       18             %INCLUDE Z8A_DEFC;
     1497       86             %INCLUDE Z8A_SUPP_MAC;
     1498     2486             %INCLUDE Z8A_COMCOM;
     1499     3136             %INCLUDE Z8A_QLT;
     1500     3242             %INCLUDE Z8A_LTS;
     1501     5319             %INCLUDE Z8A_ST;
     1502     8978             %INCLUDE Z8A_TYPES;
     1503     9152             %INCLUDE Z8A_ERR_NUMS;
     1504     9916
     1505     9917             %INCLUDE Z8E_STACKS;
     1506    12183             %INCLUDE Z8E_O1COM;
     1507    12944             %INCLUDE Z8E_MACROS;
     1508    13619
     1509    13620
     1510    13621    1        DCL Z8AU$TYPE_DESCRIPTOR ENTRY (2);
PL6.E3A0      #002=Z8DI$CHECK_CODE_SET File=Z8DI.:Z8A6TSI                        SAT 08/09/97 11:15 Page:265
     1511    13622    1        DCL Z8AE$ERROR           ENTRY (12);
     1512    13623
     1513    13624    1        DCL QLT$$                PTR; /* IN -- Ptr to top of tree to
     1514    13625                                                    QLT to traverse.     */
     1515    13626    1        DCL 1 TYPE_DESC          ALIGNED,
     1516    13627                  %TYPE_DESC;
     1517    13661
     1518    13662
     1519    13663    1        IF NOT QLT$$ -> QLT.B.RENAMES

  13663 12 000002   200003 470500                    LDP0    @QLT$$,,AUTO
        12 000003   000000 471500                    LDP1    0,,PR0
        12 000004   100000 236100                    LDQ     0,,PR1
        12 000005   040000 316007                    CANQ    16384,DL
        12 000006   000020 601000 12                 TNZ     s:13667
        12 000007   100003 236100                    LDQ     3,,PR1
        12 000010   000000 116000 13                 CMPQ    0
        12 000011   000020 600000 12                 TZE     s:13667

     1520    13664    1        AND QLT$$ -> QLT.SON ~= ADDR(NIL) THEN
     1521    13665    1          CALL Z8DI$CHECK_CODE_SET (QLT$$ -> QLT.SON);

  13665 12 000012   100003 633500                    EPPR3   3,,PR1
        12 000013   200010 453500                    STP3    TYPE_DESC+4,,AUTO
        12 000014   200010 630500                    EPPR0   TYPE_DESC+4,,AUTO
        12 000015   000001 631400 13                 EPPR1   1
        12 000016   000000 701000 12                 TSX1    s:7
        12 000017   000000 011000                    NOP     0

     1522    13666
     1523    13667    1        IF QLT$$ -> QLT.BROTHER ~= ADDR(NIL) THEN

  13667 12 000020   200003 470500                    LDP0    @QLT$$,,AUTO
        12 000021   000000 471500                    LDP1    0,,PR0
        12 000022   100002 236100                    LDQ     2,,PR1
        12 000023   000000 116000 13                 CMPQ    0
        12 000024   000033 600000 12                 TZE     s:13670
PL6.E3A0      #002=Z8DI$CHECK_CODE_SET File=Z8DI.:Z8A6TSI                        SAT 08/09/97 11:15 Page:266

     1524    13668    1          CALL Z8DI$CHECK_CODE_SET (QLT$$ -> QLT.BROTHER);

  13668 12 000025   100002 633500                    EPPR3   2,,PR1
        12 000026   200010 453500                    STP3    TYPE_DESC+4,,AUTO
        12 000027   200010 630500                    EPPR0   TYPE_DESC+4,,AUTO
        12 000030   000001 631400 13                 EPPR1   1
        12 000031   000000 701000 12                 TSX1    s:7
        12 000032   000000 011000                    NOP     0

     1525    13669
     1526    13670    1        IF O1COM.CURRENT_FILE_LTS$ -> FILE_LTS.LINAGE_COUNTER$

  13670 12 000033   200003 470500                    LDP0    @QLT$$,,AUTO
        12 000034   000000 471500                    LDP1    0,,PR0
        12 000035   000045 473400 xsym               LDP3    O1COM+37
        12 000036   300054 236100                    LDQ     44,,PR3
        12 000037   100004 116100                    CMPQ    4,,PR1
        12 000040   000042 601000 12                 TNZ     s:13674

     1527    13671    1           = QLT$$ -> QLT.ST$ THEN
     1528    13672    1          RETURN;

  13672 12 000041   000000 702200 xent               TSX2  ! X66_ARET

     1529    13673
     1530    13674    1        CALL Z8AU$TYPE_DESCRIPTOR (QLT$$ -> QLT.ST$, TYPE_DESC);

  13674 12 000042   200004 634500                    EPPR4   TYPE_DESC,,AUTO
        12 000043   200011 454500                    STP4    TYPE_DESC+5,,AUTO
        12 000044   100004 635500                    EPPR5   4,,PR1
        12 000045   200010 455500                    STP5    TYPE_DESC+4,,AUTO
        12 000046   200010 630500                    EPPR0   TYPE_DESC+4,,AUTO
        12 000047   000002 631400 13                 EPPR1   2
        12 000050   000000 701000 xent               TSX1    Z8AU$TYPE_DESCRIPTOR
        12 000051   000000 011000                    NOP     0

PL6.E3A0      #002=Z8DI$CHECK_CODE_SET File=Z8DI.:Z8A6TSI                        SAT 08/09/97 11:15 Page:267
     1531    13675
     1532    13676    2        DO CASE (TYPE_DESC.TYPE);

  13676 12 000052   200004 235100                    LDA     TYPE_DESC,,AUTO
        12 000053   000024 115007                    CMPA    20,DL
        12 000054   000056 602005 12                 TNC     s:13676+4,AL
        12 000055   000126 710000 12                 TRA     s:13687
        12 000056   000102 710000 12                 TRA     s:13681
        12 000057   000126 710000 12                 TRA     s:13687
        12 000060   000126 710000 12                 TRA     s:13687
        12 000061   000126 710000 12                 TRA     s:13687
        12 000062   000126 710000 12                 TRA     s:13687
        12 000063   000126 710000 12                 TRA     s:13687
        12 000064   000146 710000 12                 TRA     s:13692
        12 000065   000126 710000 12                 TRA     s:13687
        12 000066   000146 710000 12                 TRA     s:13692
        12 000067   000126 710000 12                 TRA     s:13687
        12 000070   000126 710000 12                 TRA     s:13687
        12 000071   000102 710000 12                 TRA     s:13681
        12 000072   000146 710000 12                 TRA     s:13692
        12 000073   000126 710000 12                 TRA     s:13687
        12 000074   000126 710000 12                 TRA     s:13687
        12 000075   000126 710000 12                 TRA     s:13687
        12 000076   000126 710000 12                 TRA     s:13687
        12 000077   000126 710000 12                 TRA     s:13687
        12 000100   000126 710000 12                 TRA     s:13687
        12 000101   000102 710000 12                 TRA     s:13681

     1533    13677    2          CASE (%TYA, %TYE, %TYB);

     1534    13678                 /* All ok */
     1535    13679
     1536    13680    2          CASE (%TYD, %TYF, %TYC);

     1537    13681    2            IF TYPE_DESC.DESC.NDSC.TN = %NDSC4 THEN

  13681 12 000102   200005 236100                    LDQ     TYPE_DESC+1,,AUTO
PL6.E3A0      #002=Z8DI$CHECK_CODE_SET File=Z8DI.:Z8A6TSI                        SAT 08/09/97 11:15 Page:268
        12 000103   040000 316007                    CANQ    16384,DL
        12 000104   000146 600000 12                 TZE     s:13692

     1538    13682    2              CALL Z8AE$ERROR (%E$NOT_DISPLAY_SEPARATE_SIGN,

  13682 12 000105   200003 470500                    LDP0    @QLT$$,,AUTO
        12 000106   000000 471500                    LDP1    0,,PR0
        12 000107   100004 473500                    LDP3    4,,PR1
        12 000110   300002 236100                    LDQ     2,,PR3
        12 000111   777777 376007                    ANQ     -1,DL
        12 000112   200010 756100                    STQ     TYPE_DESC+4,,AUTO
        12 000113   000006 236000 13                 LDQ     6
        12 000114   200014 756100                    STQ     TYPE_DESC+8,,AUTO
        12 000115   200010 631500                    EPPR1   TYPE_DESC+4,,AUTO
        12 000116   200013 451500                    STP1    TYPE_DESC+7,,AUTO
        12 000117   000007 236000 13                 LDQ     7
        12 000120   200012 756100                    STQ     TYPE_DESC+6,,AUTO
        12 000121   200012 630500                    EPPR0   TYPE_DESC+6,,AUTO
        12 000122   000003 631400 13                 EPPR1   3
        12 000123   000000 701000 xent               TSX1    Z8AE$ERROR
        12 000124   000000 011000                    NOP     0
        12 000125   000146 710000 12                 TRA     s:13692

     1539    13683    2                               BINBIT (QLT$$ -> QLT.ST$ -> ST.LINE_NO, 36),
     1540    13684    2                               0);
     1541    13685
     1542    13686    2          CASE (ELSE);

     1543    13687    2            CALL Z8AE$ERROR (%E$NOT_DISPLAY_SEPARATE_SIGN,

  13687 12 000126   200003 470500                    LDP0    @QLT$$,,AUTO
        12 000127   000000 471500                    LDP1    0,,PR0
        12 000130   100004 473500                    LDP3    4,,PR1
        12 000131   300002 236100                    LDQ     2,,PR3
        12 000132   777777 376007                    ANQ     -1,DL
        12 000133   200010 756100                    STQ     TYPE_DESC+4,,AUTO
        12 000134   000006 236000 13                 LDQ     6
PL6.E3A0      #002=Z8DI$CHECK_CODE_SET File=Z8DI.:Z8A6TSI                        SAT 08/09/97 11:15 Page:269
        12 000135   200014 756100                    STQ     TYPE_DESC+8,,AUTO
        12 000136   200010 631500                    EPPR1   TYPE_DESC+4,,AUTO
        12 000137   200013 451500                    STP1    TYPE_DESC+7,,AUTO
        12 000140   000007 236000 13                 LDQ     7
        12 000141   200012 756100                    STQ     TYPE_DESC+6,,AUTO
        12 000142   200012 630500                    EPPR0   TYPE_DESC+6,,AUTO
        12 000143   000003 631400 13                 EPPR1   3
        12 000144   000000 701000 xent               TSX1    Z8AE$ERROR
        12 000145   000000 011000                    NOP     0

     1544    13688    2                             BINBIT (QLT$$ -> QLT.ST$ -> ST.LINE_NO,36),
     1545    13689    2                             0);
     1546    13690    2        END; /* Case */

     1547    13691
     1548    13692    1   END Z8DI$CHECK_CODE_SET;

  13692 12 000146   000000 702200 xent               TSX2  ! X66_ARET

PL6.E3A0      #002=Z8DI$CHECK_CODE_SET File=Z8DI.:Z8A6TSI                        SAT 08/09/97 11:15 Page:270
--  Include file information  --

   Z8E_NEW_ILL.:Z8A6TOU  is referenced.
   Z8E_MACROS.:Z8A6TOU  cannot be made into a system file and is referenced.
   Z8E_O1COM.:Z8A6TOU  cannot be made into a system file and is referenced.
   Z8A_LEX_SYMB.:Z8A6TOU  cannot be made into a system file and is referenced.
   Z8E_STACKS.:Z8A6TOU  cannot be made into a system file and is referenced.
   Z8A_ERR_NUMS.:Z8A6TOU  is referenced.
   Z8A_TYPES.:Z8A6TOU  is referenced.
   Z8A_ST.:Z8A6TOU  cannot be made into a system file and is referenced.
   Z8A_LTS.:Z8A6TOU  cannot be made into a system file and is referenced.
   Z8A_QLT.:Z8A6TOU  cannot be made into a system file and is referenced.
   Z8A_COMCOM.:Z8A6TOU  cannot be made into a system file and is referenced.
   X8A_COM_MACS.:X8A6TOU  is referenced.
   Z8A_NAMES.:Z8A6TOU  is referenced.
   Z8A_SUPP_MAC.:Z8A6TOU  is referenced.
   Z8A_DEFC.:Z8A6TOU  cannot be made into a system file and is referenced.
      No diagnostics issued in procedure Z8DI$CHECK_CODE_SET.
PL6.E3A0      #002=Z8DI$CHECK_CODE_SET File=Z8DI.:Z8A6TSI                        SAT 08/09/97 11:15 Page:271

 **** Variables and constants ****

  ****  Section 000 LblCom ITERATION

  ****  Scalars and arrays  ****
OctLoc.c.b A Datatyp(siz) R M Lvl/name                 OctLoc.c.b A Datatyp(siz) R M Lvl/name

     0-0-0/w SBIN              1 ITERATION

  ****  Section 001 LblCom QLT$

  ****  Scalars and arrays  ****
OctLoc.c.b A Datatyp(siz) R M Lvl/name                 OctLoc.c.b A Datatyp(siz) R M Lvl/name

     0-0-0/w PTR         r     1 QLT$

  ****  Section 002 LblCom PREV_01_QLT$

  ****  Scalars and arrays  ****
OctLoc.c.b A Datatyp(siz) R M Lvl/name                 OctLoc.c.b A Datatyp(siz) R M Lvl/name

     0-0-0/w PTR               1 PREV_01_QLT$

  ****  Section 003 LblCom QLT_

  ****  Scalars and arrays  ****
OctLoc.c.b A Datatyp(siz) R M Lvl/name                 OctLoc.c.b A Datatyp(siz) R M Lvl/name

     0-0-0/w STRC(180)         1 QLT_

  ****  Section 004 LblCom LTS$

  ****  Scalars and arrays  ****
OctLoc.c.b A Datatyp(siz) R M Lvl/name                 OctLoc.c.b A Datatyp(siz) R M Lvl/name

     0-0-0/w PTR               1 LONG_ITEM$                 0-0-0/w PTR         r     1 LTS$

PL6.E3A0      #002=Z8DI$CHECK_CODE_SET File=Z8DI.:Z8A6TSI                        SAT 08/09/97 11:15 Page:272
  ****  Section 005 LblCom LTS_

  ****  Scalars and arrays  ****
OctLoc.c.b A Datatyp(siz) R M Lvl/name                 OctLoc.c.b A Datatyp(siz) R M Lvl/name

     0-0-0/w STRC(180)         1 LTS_

  ****  Section 006 LblCom ST$

  ****  Scalars and arrays  ****
OctLoc.c.b A Datatyp(siz) R M Lvl/name                 OctLoc.c.b A Datatyp(siz) R M Lvl/name

     0-0-0/w PTR         r     1 ST$

  ****  Section 007 LblCom ST_

  ****  Scalars and arrays  ****
OctLoc.c.b A Datatyp(siz) R M Lvl/name                 OctLoc.c.b A Datatyp(siz) R M Lvl/name

     0-0-0/w STRC(180)         1 ST_

  ****  Section 008 LblCom LEX_SYMBOL

  ****  Scalars and arrays  ****
OctLoc.c.b A Datatyp(siz) R M Lvl/name                 OctLoc.c.b A Datatyp(siz) R M Lvl/name

     0-0-0/w STRC(3240)  r     1 LEX_SYMBOL                 0-0-0/w STRC(3240)        1 LEX_SYMBOL_WORDS

  ****  Section 009 LblCom CURRENT_LEX_SYMBOL$

  ****  Scalars and arrays  ****
OctLoc.c.b A Datatyp(siz) R M Lvl/name                 OctLoc.c.b A Datatyp(siz) R M Lvl/name

     0-0-0/w PTR         r     1 CURRENT_LEX_SYMBOL$

  ****  Section 010 LblCom TEMP_LEX_SYMBOL

PL6.E3A0      #002=Z8DI$CHECK_CODE_SET File=Z8DI.:Z8A6TSI                        SAT 08/09/97 11:15 Page:273
  ****  Scalars and arrays  ****
OctLoc.c.b A Datatyp(siz) R M Lvl/name                 OctLoc.c.b A Datatyp(siz) R M Lvl/name

     0-0-0/w STRC(3240)        1 TEMP_LEX_SYMBOL

  ****  Section 011 LblCom TEMP_LEX_SYMBOL2

  ****  Scalars and arrays  ****
OctLoc.c.b A Datatyp(siz) R M Lvl/name                 OctLoc.c.b A Datatyp(siz) R M Lvl/name

     0-0-0/w STRC(3240)        1 TEMP_LEX_SYMBOL2

  ****  Auto variables  ****

  ****  Scalars and arrays  ****
OctLoc.c.b A Datatyp(siz) R M Lvl/name                 OctLoc.c.b A Datatyp(siz) R M Lvl/name

     3-0-0/w PTR         r     1 @QLT$$                    *0-0-0/w PTR         r     1 QLT$$
     4-0-0/w STRC(144)   r     1 TYPE_DESC

  ****  SYMREF variables  ****

  ****  Scalars and arrays  ****
OctLoc.c.b A Datatyp(siz) R M Lvl/name                 OctLoc.c.b A Datatyp(siz) R M Lvl/name

     0-0-0/d STRC(13248)       1 COMCOM
     0-0-0/w STRC(180)         1 HIER_STK(0:50)
     0-0-0/w SBIN              1 HIER_STK_PTR
     0-0-0/w UBIN              1 LTS_STEP(0:37)
     0-0-0/d STRC(11580) r     1 O1COM                      0-0-0/w STRC(144)         1 PAGE_FORMAT
     0-0-0/w STRC(153)         1 REP_STK(0:50)              0-0-0/w SBIN              1 REP_STK_PTR

  ****  BASED and DCB variables  ****

  ****  Scalars and arrays  ****
OctLoc.c.b A Datatyp(siz) R M Lvl/name                 OctLoc.c.b A Datatyp(siz) R M Lvl/name

PL6.E3A0      #002=Z8DI$CHECK_CODE_SET File=Z8DI.:Z8A6TSI                        SAT 08/09/97 11:15 Page:274
     0-0-0/w STRC(288)         1 ADD_STMT                   0-0-0/w STRC(396)         1 ALPHABET
     0-0-0/w STRC(144)         1 ALTER_LTS                  0-0-0/w STRC(3672)        1 ALT_KEY
     0-0-0/w STRC(36864)       1 ARGLIST                    0-0-0/w STRC(396)         1 ARRAY
     0-0-0/w STRC(180)         1 ARRAY_PRESET_LTS           0-0-0/w ASTR(324)   r     1 BASED_LEX_SYMBOL
     0-0-0/w STRC(360)         1 BASED_LEX_SYMBOL_WORDS
     0-0-0/w STRC(288)         1 BASE_LTS                   0-0-0/w STRC(288)         1 BINARY_OP
     0-0-0/w STRC(396)         1 BLOCK                      0-0-0/w STRC(144)         1 BT
     0-0-0/w STRC(288)         1 CALL_STMT                  0-0-0/w STRC(396)         1 CD
     0-0-0/w STRC(288)         1 CD_LTS                     0-0-0/w CHAR(4096)        1 CHARS
     0-0-0/w STRC(396)         1 CLASS                      0-0-0/w STRC(288)         1 COMPUTE_STMT
     0-0-0/w STRC(396)         1 CONDITION                  0-0-0/w STRC(396)         1 CONST
     0-0-0/w STRC(72)          1 CONT                       0-0-0/w STRC(540)         1 CONTROL_NAME_LTS
     0-0-0/w STRC(1872)        1 COPY_FILE                  0-0-0/w STRC(396)         1 DB
     0-0-0/w STRC(396)         1 DCB_                       0-0-0/w STRC(288)         1 DEFERED_IDENTIFIER
     0-0-0/w STRC(252)         1 DEFERED_ID_TREE            0-0-0/w STRC(288)         1 DEFERED_QUAL_ID
     0-0-0/w STRC(288)         1 DEFERED_SUM_CLAUSE
     0-0-0/w STRC(288)         1 DEFERED_SUM_CLAUSE_LIST
     0-0-0/w STRC(288)         1 DELETE_STMT                0-0-0/w STRC(108)         1 DEPENDING_SIZE
     0-0-0/w STRC(5472)        1 DIMS                       0-0-0/w STRC(288)         1 DIVIDE_STMT
     0-0-0/w STRC(396)         1 DML_ITEM                   0-0-0/w STRC(216)         1 DML_REC
     0-0-0/w STRC(73836)       1 EVALUATE                   0-0-0/w STRC(396)         1 FD
     0-0-0/w STRC(1692)  r     1 FILE_LTS                   0-0-0/w STRC(288)         1 ILS_LIST
     0-0-0/w STRC(108)         1 INDEXES                    0-0-0/w STRC(360)         1 INIT_LTS
     0-0-0/w STRC(288)         1 INSPECT_1_STMT             0-0-0/w STRC(288)         1 INSPECT_2_STMT
     0-0-0/w STRC(288)         1 INSPECT_4_STMT             0-0-0/w STRC(396)         1 INTDEF
     0-0-0/w STRC(180)         1 IO_RESTORE_CHAIN           0-0-0/w STRC(144)         1 KEY
     0-0-0/w STRC(396)         1 LABEL                      0-0-0/w STRC(288)         1 LA_ITEM
     0-0-0/w STRC(36864)       1 LCNST                      0-0-0/w STRC(72)          1 LONG
     0-0-0/w STRC              1 LTS                        0-0-0/w STRC(360)         1 LTSS
     0-0-0/w STRC(36936)       1 LTS_PTR_ARRAY              0-0-0/w STRC(504)         1 LX_CD_INPUT
     0-0-0/w STRC(324)         1 LX_CD_I_O                  0-0-0/w STRC(396)         1 LX_CD_OUTPUT
     0-0-0/w STRC(288)         1 LX_ETT_ITEM                0-0-0/w STRC(288)         1 LX_ITEM
     0-0-0/w STRC(288)         1 LX_LARGE                   0-0-0/w STRC(288)         1 LX_LIST
     0-0-0/w STRC(1224)        1 LX_REC_DECL                0-0-0/w STRC(864)         1 LX_REPORT_REC
     0-0-0/w STRC(288)         1 LX_TERMINAL                0-0-0/w STRC(396)         1 MNEMONIC
     0-0-0/w STRC(288)         1 MULTIPLY_STMT              0-0-0/w STRC(144)         1 NEL
     0-0-0/w STRC(216)         1 OPEN_LTS                   0-0-0/w STRC(36864)       1 PAGE
PL6.E3A0      #002=Z8DI$CHECK_CODE_SET File=Z8DI.:Z8A6TSI                        SAT 08/09/97 11:15 Page:275
     0-0-0/w STRC(396)         1 PARA                       0-0-0/w STRC(144)         1 PRIME
     0-0-0/w STRC(396)         1 PROC_                      0-0-0/w STRC(396)         1 PROC_DEF
     0-0-0/w STRC(900)         1 PROC_SUPP                  0-0-0/w STRC(216)   r     1 QLT
     0-0-0/w STRC(396)         1 RD                         0-0-0/w STRC(288)         1 READ_STMT
     0-0-0/w STRC(216)         1 REF                        0-0-0/w STRC(108)         1 RENAMES
     0-0-0/w STRC(720)         1 REPORT_01_LTS              0-0-0/w STRC(432)         1 REPORT_ELEM_LTS
     0-0-0/w STRC(252)         1 REPORT_GRP_LTS             0-0-0/w STRC(1332)        1 REPORT_LTS
     0-0-0/w STRC(288)         1 REWRITE_STMT               0-0-0/w STRC(144)         1 RVA_LTS
     0-0-0/w STRC(396)         1 SCALAR                     0-0-0/w STRC(396)         1 SD
     0-0-0/w STRC(396)         1 SECTION                    0-0-0/w STRC(396)         1 SEGMENT
     0-0-0/w STRC(360)         1 SEGMENT_LTS                0-0-0/w STRC(396)   r     1 ST
     0-0-0/w STRC(288)         1 START_STMT                 0-0-0/w STRC(252)         1 STRING_STMT
     0-0-0/w STRC(288)         1 SUBTRACT_STMT              0-0-0/w STRC(252)         1 SUM_LTS
     0-0-0/w STRC(396)         1 SWITCH                     0-0-0/w STRC(396)         1 SYMBOLIC_CHAR
     0-0-0/w STRC(396)         1 SYMDEF_                    0-0-0/w STRC(396)         1 SYMREF_
     0-0-0/w STRC(396)         1 TEMP                       0-0-0/w STRC(288)         1 UNARY_OP
     0-0-0/w STRC(288)         1 UNSTRING_STMT              0-0-0/d STRC(612)         1 USE
     0-0-0/w STRC(252)         1 USE_SUPP                   0-0-0/w STRC(396)         1 VARIABLE
     0-0-0/w STRC(288)         1 WRITE_STMT


   Procedure Z8DI$CHECK_CODE_SET requires 103 words for executable code.
   Procedure Z8DI$CHECK_CODE_SET requires 14 words of local(AUTO) storage.

    No errors detected in file Z8DI.:Z8A6TSI    .
