VERSION A06

PL6.E3A0      #001=Z8DO$LINK_WITH_LTS File=Z8DO.:Z8A6TSI                         SAT 08/09/97 11:13 Page:1
        1        1        /*M* Z8DO -- Data Division Utility Routines */
        2        2        /*T***********************************************************/
        3        3        /*T*                                                         */
        4        4        /*T* Copyright (c) Bull HN Information Systems Inc., 1997    */
        5        5        /*T*                                                         */
        6        6        /*T***********************************************************/
        7        7
        8        8
        9        9        Z8DO$LINK_WITH_LTS: PROC (OLD_LTS$, NEW_LTS$);
       10       10
       11       11        %EQU PHASE = 1;
       12       12
       13       13        %INCLUDE Z8A_DEFC;
       14       81        %INCLUDE Z8A_SUPP_MAC;
       15     2481        %INCLUDE Z8A_COMCOM;
       16     3131        %INCLUDE Z8A_LTS;
       17     5208
       18     5209    1   DCL OLD_LTS$                  PTR;
       19     5210    1   DCL NEW_LTS$                  PTR;
       20     5211
       21     5212    1   DCL LTSS$                     PTR;
       22     5213
       23     5214
       24     5215    1      IF OLD_LTS$ ~= ADDR(NIL)
       25     5216    1      AND OLD_LTS$ -> LTS.ID ~= %TRIAD THEN
       26     5217    2        DO CASE(OLD_LTS$ -> LTS.ID);
       27     5218
       28     5219    2          CASE(%DIMS, %LONG, %NEL, %DEPENDING_SIZE, %KEY, %FILE_LTS,
       29     5220    2               %BASE_LTS, %DML_REC, %CD_LTS, %INIT_LTS,
       30     5221                    %REPORT_ENTRIES;
       31     5227    2               );
       32     5228                 %NEW_LTSS (@POINTER = LTSS$);
       33     5334
       34     5335    2            CALL Z8DO$LINK_WITH_LTS (LTSS$, OLD_LTS$);
       35     5336    2            CALL Z8DO$LINK_WITH_LTS (LTSS$, NEW_LTS$);
       36     5337
       37     5338    2            OLD_LTS$ = LTSS$;
PL6.E3A0      #001=Z8DO$LINK_WITH_LTS File=Z8DO.:Z8A6TSI                         SAT 08/09/97 11:13 Page:2
       38     5339
       39     5340    2          CASE(%LTSS);
       40     5341    3            DO CASE(NEW_LTS$ -> LTS.ID);
       41     5342    3              CASE(%DIMS);
       42     5343    3                OLD_LTS$ -> LTSS.DIMS$ = NEW_LTS$;
       43     5344
       44     5345    3              CASE(%LONG);
       45     5346    3                OLD_LTS$ -> LTSS.LONG$ = NEW_LTS$;
       46     5347
       47     5348    3              CASE(%NEL);
       48     5349    3                OLD_LTS$ -> LTSS.NEL$  = NEW_LTS$;
       49     5350
       50     5351    3              CASE(%DEPENDING_SIZE);
       51     5352    3                OLD_LTS$ -> LTSS.DEPENDING_SIZE$ = NEW_LTS$;
       52     5353
       53     5354    3              CASE(%KEY);
       54     5355    3                OLD_LTS$ -> LTSS.KEY$ = NEW_LTS$;
       55     5356
       56     5357    3              CASE(%FILE_LTS);
       57     5358    3                OLD_LTS$ -> LTSS.FILE_LTS$ = NEW_LTS$;
       58     5359
       59     5360    3              CASE(
       60     5361                        %REPORT_ENTRIES;
       61     5367    3                   );
       62     5368    3                OLD_LTS$ -> LTSS.REPORT_ENTRY$ = NEW_LTS$;
       63     5369
       64     5370    3              CASE(%DML_REC);
       65     5371    3                OLD_LTS$ -> LTSS.DML_REC$ = NEW_LTS$;
       66     5372
       67     5373    3              CASE(%CD_LTS);
       68     5374    3                OLD_LTS$ -> LTSS.CD_LTS$ = NEW_LTS$;
       69     5375
       70     5376    3              CASE(%BASE_LTS);
       71     5377    3                OLD_LTS$ -> LTSS.BASE_LTS$ = NEW_LTS$;
       72     5378
       73     5379    3              CASE(%INIT_LTS);
       74     5380    3                OLD_LTS$ -> LTSS.INIT_LTS$ = NEW_LTS$;
PL6.E3A0      #001=Z8DO$LINK_WITH_LTS File=Z8DO.:Z8A6TSI                         SAT 08/09/97 11:13 Page:3
       75     5381
       76     5382    3              CASE(ELSE);
       77     5383    3            END; /* Case */
       78     5384
       79     5385    2          CASE(ELSE);
       80     5386    2            /* CALL Z8AE$ERROR */;
       81     5387    2        END;
       82     5388    1      ELSE
       83     5389    1        OLD_LTS$ = NEW_LTS$;
       84     5390
       85     5391    1   END Z8DO$LINK_WITH_LTS;
       86     5392        %EOD;

PL6.E3A0      #001=Z8DO$LINK_WITH_LTS File=Z8DO.:Z8A6TSI                         SAT 08/09/97 11:13 Page:4
--  Include file information  --

   Z8A_LTS.:Z8A6TOU  cannot be made into a system file and is referenced.
   Z8A_COMCOM.:Z8A6TOU  cannot be made into a system file and is referenced.
   X8A_COM_MACS.:X8A6TOU  is referenced.
   Z8A_NAMES.:Z8A6TOU  is referenced.
   Z8A_SUPP_MAC.:Z8A6TOU  is referenced.
   Z8A_DEFC.:Z8A6TOU  cannot be made into a system file and is referenced.
      No diagnostics issued in procedure Z8DO$LINK_WITH_LTS.

   Procedure Z8DO$LINK_WITH_LTS requires 194 words for executable code.
   Procedure Z8DO$LINK_WITH_LTS requires 8 words of local(AUTO) storage.

PL6.E3A0      #001=Z8DO$LINK_WITH_LTS File=Z8DO.:Z8A6TSI                         SAT 08/09/97 11:13 Page:5

 Object Unit name= Z8DO$LINK_WITH_LTS                         File name= Z8DO.:Z8A6TOU
 UTS= AUG 09 '97 11:13:11.20 SAT                              Compiler= PL-6/E31         Sev=      00
 SharedLib= :SHARED_SYSTEM                                    Alt SharedLib=


    ****  Control sections  ****

 Sect   Type Bound  Init  Size OctSiz  Section name(segment info)
    0  LblCom even  none     1      1  ITERATION
    1  LblCom even  none     1      1  LTS$
    2  LblCom even  none     5      5  LTS_
    3   Proc  even  none   194    302  Z8DO$LINK_WITH_LTS
    4  RoData even  none     4      4  Z8DO$LINK_WITH_LTS

    ****  Entry defs  ****

                              Check   Calling
                             calling  sequence
  Sect OctLoc Primary Altret sequence   type   Parms  Name
     3      0   yes            yes      Std        2  Z8DO$LINK_WITH_LTS

  ****  Entry refs  ****

         Check        Calling
        calling       sequence
Altret sequence SRef   type   Args  Name
         yes           Std       1 Z8AR$RESERVER
                       nStd      0 X66_AUTO_2
                       nStd      0 X66_ARET

  ****  Data refs  ****

  Flags:  r = read only, s = secondary
Flgs Name                             Flgs Name                             Flgs Name
     COMCOM                           r    LTS_STEP
PL6.E3A0      #001=Z8DO$LINK_WITH_LTS File=Z8DO.:Z8A6TSI                         SAT 08/09/97 11:13 Page:6

  ****  Segment refs  ****

  Flags:  r = read only, s = secondary
Flgs Name                             Flgs Name                             Flgs Name
     NULLSID                               ISSID
PL6.E3A0      #001=Z8DO$LINK_WITH_LTS File=Z8DO.:Z8A6TSI                         SAT 08/09/97 11:13 Page:7


        1        1        /*M* Z8DO -- Data Division Utility Routines */
        2        2        /*T***********************************************************/
        3        3        /*T*                                                         */
        4        4        /*T* Copyright (c) Bull HN Information Systems Inc., 1997    */
        5        5        /*T*                                                         */
        6        6        /*T***********************************************************/
        7        7
        8        8
        9        9        Z8DO$LINK_WITH_LTS: PROC (OLD_LTS$, NEW_LTS$);

      9  3 000000   000000 700200 xent  Z8DO$LINK_W* TSX0  ! X66_AUTO_2
         3 000001   000010 000002                    ZERO    8,2

       10       10
       11       11        %EQU PHASE = 1;
       12       12
       13       13        %INCLUDE Z8A_DEFC;
       14       81        %INCLUDE Z8A_SUPP_MAC;
       15     2481        %INCLUDE Z8A_COMCOM;
       16     3131        %INCLUDE Z8A_LTS;
       17     5208
       18     5209    1   DCL OLD_LTS$                  PTR;
       19     5210    1   DCL NEW_LTS$                  PTR;
       20     5211
       21     5212    1   DCL LTSS$                     PTR;
       22     5213
       23     5214
       24     5215    1      IF OLD_LTS$ ~= ADDR(NIL)

   5215  3 000002   200003 470500                    LDP0    @OLD_LTS$,,AUTO
         3 000003   000000 236100                    LDQ     0,,PR0
         3 000004   000000 116000 4                  CMPQ    0
         3 000005   000276 600000 3                  TZE     s:5389
         3 000006   000000 471500                    LDP1    0,,PR0
         3 000007   100000 220100                    LDX0    0,,PR1
         3 000010   000015 100003                    CMPX0   13,DU
PL6.E3A0      #001=Z8DO$LINK_WITH_LTS File=Z8DO.:Z8A6TSI                         SAT 08/09/97 11:13 Page:8
         3 000011   000276 600000 3                  TZE     s:5389

       25     5216    1      AND OLD_LTS$ -> LTS.ID ~= %TRIAD THEN
       26     5217    2        DO CASE(OLD_LTS$ -> LTS.ID);

   5217  3 000012   100000 236100                    LDQ     0,,PR1
         3 000013   000022 772000                    QRL     18
         3 000014   001062 136007                    SBLQ    562,DL
         3 000015   000045 116007                    CMPQ    37,DL
         3 000016   000020 602006 3                  TNC     s:5217+6,QL
         3 000017   000301 710000 3                  TRA     s:5391
         3 000020   000065 710000 3                  TRA     s:5307
         3 000021   000275 710000 3                  TRA     s:5387
         3 000022   000275 710000 3                  TRA     s:5387
         3 000023   000275 710000 3                  TRA     s:5387
         3 000024   000065 710000 3                  TRA     s:5307
         3 000025   000275 710000 3                  TRA     s:5387
         3 000026   000275 710000 3                  TRA     s:5387
         3 000027   000275 710000 3                  TRA     s:5387
         3 000030   000065 710000 3                  TRA     s:5307
         3 000031   000275 710000 3                  TRA     s:5387
         3 000032   000275 710000 3                  TRA     s:5387
         3 000033   000275 710000 3                  TRA     s:5387
         3 000034   000275 710000 3                  TRA     s:5387
         3 000035   000275 710000 3                  TRA     s:5387
         3 000036   000275 710000 3                  TRA     s:5387
         3 000037   000065 710000 3                  TRA     s:5307
         3 000040   000065 710000 3                  TRA     s:5307
         3 000041   000065 710000 3                  TRA     s:5307
         3 000042   000065 710000 3                  TRA     s:5307
         3 000043   000156 710000 3                  TRA     s:5341
         3 000044   000275 710000 3                  TRA     s:5387
         3 000045   000275 710000 3                  TRA     s:5387
         3 000046   000065 710000 3                  TRA     s:5307
         3 000047   000275 710000 3                  TRA     s:5387
         3 000050   000275 710000 3                  TRA     s:5387
         3 000051   000275 710000 3                  TRA     s:5387
PL6.E3A0      #001=Z8DO$LINK_WITH_LTS File=Z8DO.:Z8A6TSI                         SAT 08/09/97 11:13 Page:9
         3 000052   000065 710000 3                  TRA     s:5307
         3 000053   000065 710000 3                  TRA     s:5307
         3 000054   000275 710000 3                  TRA     s:5387
         3 000055   000275 710000 3                  TRA     s:5387
         3 000056   000065 710000 3                  TRA     s:5307
         3 000057   000065 710000 3                  TRA     s:5307
         3 000060   000275 710000 3                  TRA     s:5387
         3 000061   000275 710000 3                  TRA     s:5387
         3 000062   000275 710000 3                  TRA     s:5387
         3 000063   000065 710000 3                  TRA     s:5307
         3 000064   000065 710000 3                  TRA     s:5307

       27     5218
       28     5219    2          CASE(%DIMS, %LONG, %NEL, %DEPENDING_SIZE, %KEY, %FILE_LTS,

       29     5220    2               %BASE_LTS, %DML_REC, %CD_LTS, %INIT_LTS,
       30     5221                    %REPORT_ENTRIES;
       31     5227    2               );
       32     5228                 %NEW_LTSS (@POINTER = LTSS$);

   5307  3 000065   000002 236000 2                  LDQ     LTS_+2
         3 000066   000012 036007                    ADLQ    10,DL
         3 000067   000003 116000 2                  CMPQ    LTS_+3
         3 000070   000101 604000 3                  TMI     s:5309

   5308  3 000071   000002 236000 4                  LDQ     2
         3 000072   200006 756100                    STQ     LTSS$+1,,AUTO
         3 000073   200006 631500                    EPPR1   LTSS$+1,,AUTO
         3 000074   200007 451500                    STP1    LTSS$+2,,AUTO
         3 000075   200007 630500                    EPPR0   LTSS$+2,,AUTO
         3 000076   000001 631400 4                  EPPR1   1
         3 000077   000000 701000 xent               TSX1    Z8AR$RESERVER
         3 000100   000000 011000                    NOP     0

   5309  3 000101   000002 236000 2                  LDQ     LTS_+2
         3 000102   000022 736000                    QLS     18
         3 000103   000001 036000 2                  ADLQ    LTS_+1
PL6.E3A0      #001=Z8DO$LINK_WITH_LTS File=Z8DO.:Z8A6TSI                         SAT 08/09/97 11:13 Page:10
         3 000104   200005 756100                    STQ     LTSS$,,AUTO

   5310  3 000105   000012 236007                    LDQ     10,DL
         3 000106   000002 056000 2                  ASQ     LTS_+2

   5311  3 000107   001105 220003                    LDX0    581,DU
         3 000110   200005 470500                    LDP0    LTSS$,,AUTO
         3 000111   000000 740100                    STX0    0,,PR0

   5317  3 000112   000000 236000 4                  LDQ     0
         3 000113   200005 470500                    LDP0    LTSS$,,AUTO
         3 000114   000001 756100                    STQ     1,,PR0

   5318  3 000115   200005 470500                    LDP0    LTSS$,,AUTO
         3 000116   000003 756100                    STQ     3,,PR0

   5319  3 000117   200005 470500                    LDP0    LTSS$,,AUTO
         3 000120   000002 756100                    STQ     2,,PR0

   5320  3 000121   200005 470500                    LDP0    LTSS$,,AUTO
         3 000122   000004 756100                    STQ     4,,PR0

   5321  3 000123   200005 470500                    LDP0    LTSS$,,AUTO
         3 000124   000005 756100                    STQ     5,,PR0

   5322  3 000125   200005 470500                    LDP0    LTSS$,,AUTO
         3 000126   000010 756100                    STQ     8,,PR0

   5323  3 000127   000006 756100                    STQ     6,,PR0

   5324  3 000130   000011 756100                    STQ     9,,PR0

   5330  3 000131   000007 756100                    STQ     7,,PR0

       33     5334
       34     5335    2            CALL Z8DO$LINK_WITH_LTS (LTSS$, OLD_LTS$);

PL6.E3A0      #001=Z8DO$LINK_WITH_LTS File=Z8DO.:Z8A6TSI                         SAT 08/09/97 11:13 Page:11
   5335  3 000132   200003 236100                    LDQ     @OLD_LTS$,,AUTO
         3 000133   200007 756100                    STQ     LTSS$+2,,AUTO
         3 000134   200005 631500                    EPPR1   LTSS$,,AUTO
         3 000135   200006 451500                    STP1    LTSS$+1,,AUTO
         3 000136   200006 630500                    EPPR0   LTSS$+1,,AUTO
         3 000137   000003 631400 4                  EPPR1   3
         3 000140   000000 701000 3                  TSX1    s:9
         3 000141   000000 011000                    NOP     0

       35     5336    2            CALL Z8DO$LINK_WITH_LTS (LTSS$, NEW_LTS$);

   5336  3 000142   200004 236100                    LDQ     @NEW_LTS$,,AUTO
         3 000143   200007 756100                    STQ     LTSS$+2,,AUTO
         3 000144   200005 630500                    EPPR0   LTSS$,,AUTO
         3 000145   200006 450500                    STP0    LTSS$+1,,AUTO
         3 000146   200006 630500                    EPPR0   LTSS$+1,,AUTO
         3 000147   000003 631400 4                  EPPR1   3
         3 000150   000000 701000 3                  TSX1    s:9
         3 000151   000000 011000                    NOP     0

       36     5337
       37     5338    2            OLD_LTS$ = LTSS$;

   5338  3 000152   200005 236100                    LDQ     LTSS$,,AUTO
         3 000153   200003 470500                    LDP0    @OLD_LTS$,,AUTO
         3 000154   000000 756100                    STQ     0,,PR0
         3 000155   000301 710000 3                  TRA     s:5391

       38     5339
       39     5340    2          CASE(%LTSS);

       40     5341    3            DO CASE(NEW_LTS$ -> LTS.ID);

   5341  3 000156   200004 473500                    LDP3    @NEW_LTS$,,AUTO
         3 000157   300000 474500                    LDP4    0,,PR3
         3 000160   400000 236100                    LDQ     0,,PR4
         3 000161   000022 772000                    QRL     18
PL6.E3A0      #001=Z8DO$LINK_WITH_LTS File=Z8DO.:Z8A6TSI                         SAT 08/09/97 11:13 Page:12
         3 000162   001062 136007                    SBLQ    562,DL
         3 000163   000045 116007                    CMPQ    37,DL
         3 000164   000166 602006 3                  TNC     s:5341+8,QL
         3 000165   000301 710000 3                  TRA     s:5391
         3 000166   000271 710000 3                  TRA     s:5380
         3 000167   000274 710000 3                  TRA     s:5383
         3 000170   000274 710000 3                  TRA     s:5383
         3 000171   000274 710000 3                  TRA     s:5383
         3 000172   000266 710000 3                  TRA     s:5377
         3 000173   000274 710000 3                  TRA     s:5383
         3 000174   000274 710000 3                  TRA     s:5383
         3 000175   000274 710000 3                  TRA     s:5383
         3 000176   000263 710000 3                  TRA     s:5374
         3 000177   000274 710000 3                  TRA     s:5383
         3 000200   000274 710000 3                  TRA     s:5383
         3 000201   000274 710000 3                  TRA     s:5383
         3 000202   000274 710000 3                  TRA     s:5383
         3 000203   000274 710000 3                  TRA     s:5383
         3 000204   000274 710000 3                  TRA     s:5383
         3 000205   000255 710000 3                  TRA     s:5368
         3 000206   000255 710000 3                  TRA     s:5368
         3 000207   000255 710000 3                  TRA     s:5368
         3 000210   000233 710000 3                  TRA     s:5343
         3 000211   000274 710000 3                  TRA     s:5383
         3 000212   000274 710000 3                  TRA     s:5383
         3 000213   000274 710000 3                  TRA     s:5383
         3 000214   000236 710000 3                  TRA     s:5346
         3 000215   000274 710000 3                  TRA     s:5383
         3 000216   000274 710000 3                  TRA     s:5383
         3 000217   000274 710000 3                  TRA     s:5383
         3 000220   000247 710000 3                  TRA     s:5355
         3 000221   000241 710000 3                  TRA     s:5349
         3 000222   000274 710000 3                  TRA     s:5383
         3 000223   000274 710000 3                  TRA     s:5383
         3 000224   000244 710000 3                  TRA     s:5352
         3 000225   000252 710000 3                  TRA     s:5358
         3 000226   000274 710000 3                  TRA     s:5383
PL6.E3A0      #001=Z8DO$LINK_WITH_LTS File=Z8DO.:Z8A6TSI                         SAT 08/09/97 11:13 Page:13
         3 000227   000274 710000 3                  TRA     s:5383
         3 000230   000274 710000 3                  TRA     s:5383
         3 000231   000260 710000 3                  TRA     s:5371
         3 000232   000255 710000 3                  TRA     s:5368

       41     5342    3              CASE(%DIMS);

       42     5343    3                OLD_LTS$ -> LTSS.DIMS$ = NEW_LTS$;

   5343  3 000233   300000 236100                    LDQ     0,,PR3
         3 000234   100001 756100                    STQ     1,,PR1
         3 000235   000301 710000 3                  TRA     s:5391

       43     5344
       44     5345    3              CASE(%LONG);

       45     5346    3                OLD_LTS$ -> LTSS.LONG$ = NEW_LTS$;

   5346  3 000236   300000 236100                    LDQ     0,,PR3
         3 000237   100003 756100                    STQ     3,,PR1
         3 000240   000301 710000 3                  TRA     s:5391

       46     5347
       47     5348    3              CASE(%NEL);

       48     5349    3                OLD_LTS$ -> LTSS.NEL$  = NEW_LTS$;

   5349  3 000241   300000 236100                    LDQ     0,,PR3
         3 000242   100002 756100                    STQ     2,,PR1
         3 000243   000301 710000 3                  TRA     s:5391

       49     5350
       50     5351    3              CASE(%DEPENDING_SIZE);

       51     5352    3                OLD_LTS$ -> LTSS.DEPENDING_SIZE$ = NEW_LTS$;

   5352  3 000244   300000 236100                    LDQ     0,,PR3
PL6.E3A0      #001=Z8DO$LINK_WITH_LTS File=Z8DO.:Z8A6TSI                         SAT 08/09/97 11:13 Page:14
         3 000245   100004 756100                    STQ     4,,PR1
         3 000246   000301 710000 3                  TRA     s:5391

       52     5353
       53     5354    3              CASE(%KEY);

       54     5355    3                OLD_LTS$ -> LTSS.KEY$ = NEW_LTS$;

   5355  3 000247   300000 236100                    LDQ     0,,PR3
         3 000250   100005 756100                    STQ     5,,PR1
         3 000251   000301 710000 3                  TRA     s:5391

       55     5356
       56     5357    3              CASE(%FILE_LTS);

       57     5358    3                OLD_LTS$ -> LTSS.FILE_LTS$ = NEW_LTS$;

   5358  3 000252   300000 236100                    LDQ     0,,PR3
         3 000253   100006 756100                    STQ     6,,PR1
         3 000254   000301 710000 3                  TRA     s:5391

       58     5359
       59     5360    3              CASE(

       60     5361                        %REPORT_ENTRIES;
       61     5367    3                   );
       62     5368    3                OLD_LTS$ -> LTSS.REPORT_ENTRY$ = NEW_LTS$;

   5368  3 000255   300000 236100                    LDQ     0,,PR3
         3 000256   100007 756100                    STQ     7,,PR1
         3 000257   000301 710000 3                  TRA     s:5391

       63     5369
       64     5370    3              CASE(%DML_REC);

       65     5371    3                OLD_LTS$ -> LTSS.DML_REC$ = NEW_LTS$;

PL6.E3A0      #001=Z8DO$LINK_WITH_LTS File=Z8DO.:Z8A6TSI                         SAT 08/09/97 11:13 Page:15
   5371  3 000260   300000 236100                    LDQ     0,,PR3
         3 000261   100007 756100                    STQ     7,,PR1
         3 000262   000301 710000 3                  TRA     s:5391

       66     5372
       67     5373    3              CASE(%CD_LTS);

       68     5374    3                OLD_LTS$ -> LTSS.CD_LTS$ = NEW_LTS$;

   5374  3 000263   300000 236100                    LDQ     0,,PR3
         3 000264   100007 756100                    STQ     7,,PR1
         3 000265   000301 710000 3                  TRA     s:5391

       69     5375
       70     5376    3              CASE(%BASE_LTS);

       71     5377    3                OLD_LTS$ -> LTSS.BASE_LTS$ = NEW_LTS$;

   5377  3 000266   300000 236100                    LDQ     0,,PR3
         3 000267   100010 756100                    STQ     8,,PR1
         3 000270   000301 710000 3                  TRA     s:5391

       72     5378
       73     5379    3              CASE(%INIT_LTS);

       74     5380    3                OLD_LTS$ -> LTSS.INIT_LTS$ = NEW_LTS$;

   5380  3 000271   300000 236100                    LDQ     0,,PR3
         3 000272   100011 756100                    STQ     9,,PR1
         3 000273   000301 710000 3                  TRA     s:5391

       75     5381
       76     5382    3              CASE(ELSE);

       77     5383    3            END; /* Case */

   5383  3 000274   000301 710000 3                  TRA     s:5391
PL6.E3A0      #001=Z8DO$LINK_WITH_LTS File=Z8DO.:Z8A6TSI                         SAT 08/09/97 11:13 Page:16

       78     5384
       79     5385    2          CASE(ELSE);

       80     5386    2            /* CALL Z8AE$ERROR */;
       81     5387    2        END;

   5387  3 000275   000301 710000 3                  TRA     s:5391

       82     5388    1      ELSE
       83     5389    1        OLD_LTS$ = NEW_LTS$;

   5389  3 000276   200004 471500                    LDP1    @NEW_LTS$,,AUTO
         3 000277   100000 236100                    LDQ     0,,PR1
         3 000300   000000 756100                    STQ     0,,PR0

       84     5390
       85     5391    1   END Z8DO$LINK_WITH_LTS;

   5391  3 000301   000000 702200 xent               TSX2  ! X66_ARET
       86     5392        %EOD;

PL6.E3A0      #001=Z8DO$LINK_WITH_LTS File=Z8DO.:Z8A6TSI                         SAT 08/09/97 11:13 Page:17
--  Include file information  --

   Z8A_LTS.:Z8A6TOU  cannot be made into a system file and is referenced.
   Z8A_COMCOM.:Z8A6TOU  cannot be made into a system file and is referenced.
   X8A_COM_MACS.:X8A6TOU  is referenced.
   Z8A_NAMES.:Z8A6TOU  is referenced.
   Z8A_SUPP_MAC.:Z8A6TOU  is referenced.
   Z8A_DEFC.:Z8A6TOU  cannot be made into a system file and is referenced.
      No diagnostics issued in procedure Z8DO$LINK_WITH_LTS.
PL6.E3A0      #001=Z8DO$LINK_WITH_LTS File=Z8DO.:Z8A6TSI                         SAT 08/09/97 11:13 Page:18

 **** Variables and constants ****

  ****  Section 000 LblCom ITERATION

  ****  Scalars and arrays  ****
OctLoc.c.b A Datatyp(siz) R M Lvl/name                 OctLoc.c.b A Datatyp(siz) R M Lvl/name

     0-0-0/w SBIN              1 ITERATION

  ****  Section 001 LblCom LTS$

  ****  Scalars and arrays  ****
OctLoc.c.b A Datatyp(siz) R M Lvl/name                 OctLoc.c.b A Datatyp(siz) R M Lvl/name

     0-0-0/w PTR               1 LONG_ITEM$                 0-0-0/w PTR         r     1 LTS$

  ****  Section 002 LblCom LTS_

  ****  Scalars and arrays  ****
OctLoc.c.b A Datatyp(siz) R M Lvl/name                 OctLoc.c.b A Datatyp(siz) R M Lvl/name

     0-0-0/w STRC(180)   r     1 LTS_

  ****  Auto variables  ****

  ****  Scalars and arrays  ****
OctLoc.c.b A Datatyp(siz) R M Lvl/name                 OctLoc.c.b A Datatyp(siz) R M Lvl/name

     4-0-0/w PTR         r     1 @NEW_LTS$                  3-0-0/w PTR         r     1 @OLD_LTS$
     5-0-0/w PTR         r     1 LTSS$                     *0-0-0/w PTR         r     1 NEW_LTS$
    *0-0-0/w PTR         r     1 OLD_LTS$

  ****  SYMREF variables  ****

  ****  Scalars and arrays  ****
OctLoc.c.b A Datatyp(siz) R M Lvl/name                 OctLoc.c.b A Datatyp(siz) R M Lvl/name

PL6.E3A0      #001=Z8DO$LINK_WITH_LTS File=Z8DO.:Z8A6TSI                         SAT 08/09/97 11:13 Page:19
     0-0-0/d STRC(13248)       1 COMCOM
     0-0-0/w UBIN              1 LTS_STEP(0:37)

  ****  BASED and DCB variables  ****

  ****  Scalars and arrays  ****
OctLoc.c.b A Datatyp(siz) R M Lvl/name                 OctLoc.c.b A Datatyp(siz) R M Lvl/name

     0-0-0/w STRC(144)         1 ALTER_LTS                  0-0-0/w STRC(3672)        1 ALT_KEY
     0-0-0/w STRC(36864)       1 ARGLIST                    0-0-0/w STRC(180)         1 ARRAY_PRESET_LTS
     0-0-0/w STRC(288)         1 BASE_LTS                   0-0-0/w STRC(144)         1 BT
     0-0-0/w STRC(288)         1 CD_LTS                     0-0-0/w CHAR(4096)        1 CHARS
     0-0-0/w STRC(72)          1 CONT                       0-0-0/w STRC(540)         1 CONTROL_NAME_LTS
     0-0-0/w STRC(1872)        1 COPY_FILE                  0-0-0/w STRC(108)         1 DEPENDING_SIZE
     0-0-0/w STRC(5472)        1 DIMS                       0-0-0/w STRC(216)         1 DML_REC
     0-0-0/w STRC(73836)       1 EVALUATE                   0-0-0/w STRC(1692)        1 FILE_LTS
     0-0-0/w STRC(108)         1 INDEXES                    0-0-0/w STRC(360)         1 INIT_LTS
     0-0-0/w STRC(180)         1 IO_RESTORE_CHAIN           0-0-0/w STRC(144)         1 KEY
     0-0-0/w STRC(36864)       1 LCNST                      0-0-0/w STRC(72)          1 LONG
     0-0-0/w STRC        r     1 LTS                        0-0-0/w STRC(360)   r     1 LTSS
     0-0-0/w STRC(36936)       1 LTS_PTR_ARRAY              0-0-0/w STRC(144)         1 NEL
     0-0-0/w STRC(216)         1 OPEN_LTS                   0-0-0/w STRC(36864)       1 PAGE
     0-0-0/w STRC(144)         1 PRIME                      0-0-0/w STRC(900)         1 PROC_SUPP
     0-0-0/w STRC(216)         1 REF                        0-0-0/w STRC(108)         1 RENAMES
     0-0-0/w STRC(720)         1 REPORT_01_LTS              0-0-0/w STRC(432)         1 REPORT_ELEM_LTS
     0-0-0/w STRC(252)         1 REPORT_GRP_LTS             0-0-0/w STRC(1332)        1 REPORT_LTS
     0-0-0/w STRC(144)         1 RVA_LTS                    0-0-0/w STRC(360)         1 SEGMENT_LTS
     0-0-0/w STRC(252)         1 SUM_LTS                    0-0-0/d STRC(612)         1 USE
     0-0-0/w STRC(252)         1 USE_SUPP


   Procedure Z8DO$LINK_WITH_LTS requires 194 words for executable code.
   Procedure Z8DO$LINK_WITH_LTS requires 8 words of local(AUTO) storage.

PL6.E3A0      #002=Z8DO$QUALIFY_TERMINAL File=Z8DO.:Z8A6TSI                      SAT 08/09/97 11:14 Page:20
       87        1        /*T***********************************************************/
       88        2        /*T*                                                         */
       89        3        /*T* Copyright (c) Bull HN Information Systems Inc., 1997    */
       90        4        /*T*                                                         */
       91        5        /*T***********************************************************/
       92        6        /*=====================*/
       93        7          Z8DO$QUALIFY_TERMINAL : PROC (TERMINAL$, RETURN_ST$) ALTRET;
       94        8        /*=====================*/
       95        9
       96       10             %EQU PHASE = 1;
       97       11
       98       12             %INCLUDE Z8A_DEFC;
       99       80             %INCLUDE Z8A_SUPP_MAC;
      100     2480             %INCLUDE Z8A_COMCOM;
      101     3130
      102     3131             %INCLUDE Z8E_STACKS;
      103     5397             %INCLUDE Z8E_O1COM;
      104     6158             %INCLUDE Z8E_ABSSYN;
      105     6364
      106     6365
      107     6366    1        DCL Z8CO$QUALIFY_VARIABLE       ENTRY (2) ALTRET;
      108     6367    1        DCL Z8CO$QUALIFY_VARIABLE_NO_ERROR ENTRY (2) ALTRET;
      109     6368
      110     6369    1        DCL TERMINAL$            PTR; /* To LX_TERMINAL to be qualified */
      111     6370    1        DCL RETURN_ST$           PTR; /* Return to qualified ST */
      112     6371
      113     6372             %DCL_AUTO_LX_ITEM        (@NAME = QUAL_ID);
      114     6376             %DCL_AUTO_LX_ITEM        (@NAME = TERMINAL);
      115     6380    1        DCL NO_ERROR_FLAG        BOOLEAN;
      116     6381
      117     6382    1        NO_ERROR_FLAG = FALSE;
      118     6383    1        GOTO COMMON_CODE;
      119     6384    1   Z8DO$QUALIFY_TERMINAL_NO_ERROR: ENTRY (TERMINAL$, RETURN_ST$) ALTRET;
      120     6385    1        NO_ERROR_FLAG = TRUE;
      121     6386    1   COMMON_CODE:
      122     6387
      123     6388    1        ADDR(TERMINAL) -> LX_TERMINAL = TERMINAL$ -> LX_TERMINAL;
PL6.E3A0      #002=Z8DO$QUALIFY_TERMINAL File=Z8DO.:Z8A6TSI                      SAT 08/09/97 11:14 Page:21
      124     6389
      125     6390             %INIT_LX_LIST (@POINTER = "ADDR(QUAL_ID)");
      126     6400
      127     6401             %ADD_LX_ITEM_TO_LIST_HEAD (@FROM$ = "ADDR(TERMINAL)",
      128     6402                                        @LIST$ = "ADDR(QUAL_ID)");
      129     6411
      130     6412    1        IF NO_ERROR_FLAG
      131     6413    1          THEN CALL Z8CO$QUALIFY_VARIABLE_NO_ERROR (ADDR(QUAL_ID), RETURN_ST$)
      132     6414    1            WHENALTRETURN
      133     6415    2              DO;
      134     6416    2                ALTRETURN;
      135     6417    2              END;
      136     6418
      137     6419    1          ELSE CALL Z8CO$QUALIFY_VARIABLE (ADDR(QUAL_ID), RETURN_ST$)
      138     6420    1            WHENALTRETURN
      139     6421    2              DO;
      140     6422    2                ALTRETURN;
      141     6423    2              END;
      142     6424
      143     6425    1        RETURN;
      144     6426
      145     6427    1   END Z8DO$QUALIFY_TERMINAL;

PL6.E3A0      #002=Z8DO$QUALIFY_TERMINAL File=Z8DO.:Z8A6TSI                      SAT 08/09/97 11:14 Page:22
--  Include file information  --

   Z8E_ABSSYN.:Z8A6TOU  cannot be made into a system file and is referenced.
   Z8E_O1COM.:Z8A6TOU  cannot be made into a system file and is referenced.
   Z8A_LEX_SYMB.:Z8A6TOU  cannot be made into a system file and is referenced.
   Z8E_STACKS.:Z8A6TOU  cannot be made into a system file and is referenced.
   Z8A_COMCOM.:Z8A6TOU  cannot be made into a system file and is referenced.
   X8A_COM_MACS.:X8A6TOU  is referenced.
   Z8A_NAMES.:Z8A6TOU  is referenced.
   Z8A_SUPP_MAC.:Z8A6TOU  is referenced.
   Z8A_DEFC.:Z8A6TOU  cannot be made into a system file and is referenced.
      No diagnostics issued in procedure Z8DO$QUALIFY_TERMINAL.

   Procedure Z8DO$QUALIFY_TERMINAL requires 58 words for executable code.
   Procedure Z8DO$QUALIFY_TERMINAL requires 28 words of local(AUTO) storage.

    No errors detected in file Z8DO.:Z8A6TSI    .

PL6.E3A0      #002=Z8DO$QUALIFY_TERMINAL File=Z8DO.:Z8A6TSI                      SAT 08/09/97 11:14 Page:23

 Object Unit name= Z8DO$QUALIFY_TERMINAL                      File name= Z8DO.:Z8A6TOU
 UTS= AUG 09 '97 11:14:33.04 SAT                              Compiler= PL-6/E31         Sev=      00
 SharedLib= :SHARED_SYSTEM                                    Alt SharedLib=


    ****  Control sections  ****

 Sect   Type Bound  Init  Size OctSiz  Section name(segment info)
    0  LblCom even  none     1      1  ITERATION
    1  LblCom even  none    90    132  LEX_SYMBOL
    2  LblCom even  none     1      1  CURRENT_LEX_SYMBOL$
    3  LblCom even  none    90    132  TEMP_LEX_SYMBOL
    4  LblCom even  none    90    132  TEMP_LEX_SYMBOL2
    5  LblCom even  none     8     10  TEMP_LX_NODE
    6   Proc  even  none    58     72  Z8DO$QUALIFY_TERMINAL
    7  RoData even  none     2      2  Z8DO$QUALIFY_TERMINAL

    ****  Entry defs  ****

                              Check   Calling
                             calling  sequence
  Sect OctLoc Primary Altret sequence   type   Parms  Name
     6      0   yes    yes     yes      Std        2  Z8DO$QUALIFY_TERMINAL
     6      4          yes     yes      Std        2  Z8DO$QUALIFY_TERMINAL_NO_ERROR

  ****  Entry refs  ****

         Check        Calling
        calling       sequence
Altret sequence SRef   type   Args  Name
 yes     yes           Std       2 Z8CO$QUALIFY_VARIABLE_NO_ERROR
 yes     yes           Std       2 Z8CO$QUALIFY_VARIABLE
                       nStd      0 X66_AUTO_2
                       nStd      0 X66_AALT
                       nStd      0 X66_ARET
PL6.E3A0      #002=Z8DO$QUALIFY_TERMINAL File=Z8DO.:Z8A6TSI                      SAT 08/09/97 11:14 Page:24

  ****  Data refs  ****

  Flags:  r = read only, s = secondary
Flgs Name                             Flgs Name                             Flgs Name
     COMCOM                                O1COM                                 HIER_STK_PTR
     HIER_STK                              PAGE_FORMAT                           REP_STK_PTR
     REP_STK

  ****  Segment refs  ****

  Flags:  r = read only, s = secondary
Flgs Name                             Flgs Name                             Flgs Name
     ISSID                                 NULLSID
PL6.E3A0      #002=Z8DO$QUALIFY_TERMINAL File=Z8DO.:Z8A6TSI                      SAT 08/09/97 11:14 Page:25


       87        1        /*T***********************************************************/
       88        2        /*T*                                                         */
       89        3        /*T* Copyright (c) Bull HN Information Systems Inc., 1997    */
       90        4        /*T*                                                         */
       91        5        /*T***********************************************************/
       92        6        /*=====================*/
       93        7          Z8DO$QUALIFY_TERMINAL : PROC (TERMINAL$, RETURN_ST$) ALTRET;

      7  6 000000   000000 700200 xent  Z8DO$QUALIF* TSX0  ! X66_AUTO_2
         6 000001   000034 000002                    ZERO    28,2

       94        8        /*=====================*/
       95        9
       96       10             %EQU PHASE = 1;
       97       11
       98       12             %INCLUDE Z8A_DEFC;
       99       80             %INCLUDE Z8A_SUPP_MAC;
      100     2480             %INCLUDE Z8A_COMCOM;
      101     3130
      102     3131             %INCLUDE Z8E_STACKS;
      103     5397             %INCLUDE Z8E_O1COM;
      104     6158             %INCLUDE Z8E_ABSSYN;
      105     6364
      106     6365
      107     6366    1        DCL Z8CO$QUALIFY_VARIABLE       ENTRY (2) ALTRET;
      108     6367    1        DCL Z8CO$QUALIFY_VARIABLE_NO_ERROR ENTRY (2) ALTRET;
      109     6368
      110     6369    1        DCL TERMINAL$            PTR; /* To LX_TERMINAL to be qualified */
      111     6370    1        DCL RETURN_ST$           PTR; /* Return to qualified ST */
      112     6371
      113     6372             %DCL_AUTO_LX_ITEM        (@NAME = QUAL_ID);
      114     6376             %DCL_AUTO_LX_ITEM        (@NAME = TERMINAL);
      115     6380    1        DCL NO_ERROR_FLAG        BOOLEAN;
      116     6381
      117     6382    1        NO_ERROR_FLAG = FALSE;

PL6.E3A0      #002=Z8DO$QUALIFY_TERMINAL File=Z8DO.:Z8A6TSI                      SAT 08/09/97 11:14 Page:26
   6382  6 000002   200026 450100                    STZ     NO_ERROR_FLAG,,AUTO

      118     6383    1        GOTO COMMON_CODE;

   6383  6 000003   000010 710000 6                  TRA     COMMON_CODE

      119     6384    1   Z8DO$QUALIFY_TERMINAL_NO_ERROR: ENTRY (TERMINAL$, RETURN_ST$) ALTRET;

   6384  6 000004   000000 700200 xent  Z8DO$QUALIF* TSX0  ! X66_AUTO_2
         6 000005   000034 000002                    ZERO    28,2

      120     6385    1        NO_ERROR_FLAG = TRUE;

   6385  6 000006   400000 236003                    LDQ     -131072,DU
         6 000007   200026 756100                    STQ     NO_ERROR_FLAG,,AUTO

      121     6386    1   COMMON_CODE:
      122     6387
      123     6388    1        ADDR(TERMINAL) -> LX_TERMINAL = TERMINAL$ -> LX_TERMINAL;

   6388  6 000010   200003 470500       COMMON_CODE  LDP0    @TERMINAL$,,AUTO
         6 000011   000000 471500                    LDP1    0,,PR0
         6 000012   000100 100500                    MLR     fill='000'O
         6 000013   100000 000040                    ADSC9   0,,PR1                   cn=0,n=32
         6 000014   200016 000040                    ADSC9   TERMINAL,,AUTO           cn=0,n=32

      124     6389
      125     6390             %INIT_LX_LIST (@POINTER = "ADDR(QUAL_ID)");

   6392  6 000015   000002 220003                    LDX0    2,DU
         6 000016   200006 740100                    STX0    QUAL_ID,,AUTO

   6393  6 000017   000000 221003                    LDX1    0,DU
         6 000020   200006 441100                    SXL1    QUAL_ID,,AUTO

   6394  6 000021   000000 236000 7                  LDQ     0
         6 000022   200007 756100                    STQ     QUAL_ID+1,,AUTO
PL6.E3A0      #002=Z8DO$QUALIFY_TERMINAL File=Z8DO.:Z8A6TSI                      SAT 08/09/97 11:14 Page:27

   6395  6 000023   200012 756100                    STQ     QUAL_ID+4,,AUTO

   6396  6 000024   200015 756100                    STQ     QUAL_ID+7,,AUTO

   6397  6 000025   200010 450100                    STZ     QUAL_ID+2,,AUTO

      126     6400
      127     6401             %ADD_LX_ITEM_TO_LIST_HEAD (@FROM$ = "ADDR(TERMINAL)",
      128     6402                                        @LIST$ = "ADDR(QUAL_ID)");

   6404  6 000026   200025 756100                    STQ     TERMINAL+7,,AUTO

   6405  6 000027   200016 631500                    EPPR1   TERMINAL,,AUTO
         6 000030   200012 451500                    STP1    QUAL_ID+4,,AUTO

   6406  6 000031   200010 235100                    LDA     QUAL_ID+2,,AUTO
         6 000032   000035 601000 6                  TNZ     s:6408

   6407  6 000033   200016 633500                    EPPR3   TERMINAL,,AUTO
         6 000034   200007 453500                    STP3    QUAL_ID+1,,AUTO

   6408  6 000035   200010 054100                    AOS     QUAL_ID+2,,AUTO

      129     6411
      130     6412    1        IF NO_ERROR_FLAG

   6412  6 000036   200026 234100                    SZN     NO_ERROR_FLAG,,AUTO
         6 000037   000055 605000 6                  TPL     s:6419

      131     6413    1          THEN CALL Z8CO$QUALIFY_VARIABLE_NO_ERROR (ADDR(QUAL_ID), RETURN_ST$)

   6413  6 000040   200006 633500                    EPPR3   QUAL_ID,,AUTO
         6 000041   200030 453500                    STP3    NO_ERROR_FLAG+2,,AUTO
         6 000042   200004 236100                    LDQ     @RETURN_ST$,,AUTO
         6 000043   200033 756100                    STQ     NO_ERROR_FLAG+5,,AUTO
         6 000044   200030 634500                    EPPR4   NO_ERROR_FLAG+2,,AUTO
PL6.E3A0      #002=Z8DO$QUALIFY_TERMINAL File=Z8DO.:Z8A6TSI                      SAT 08/09/97 11:14 Page:28
         6 000045   200032 454500                    STP4    NO_ERROR_FLAG+4,,AUTO
         6 000046   200032 630500                    EPPR0   NO_ERROR_FLAG+4,,AUTO
         6 000047   000001 631400 7                  EPPR1   1
         6 000050   000000 701000 xent               TSX1    Z8CO$QUALIFY_VARIABLE_NO_ERROR
         6 000051   000053 702000 6                  TSX2    s:6416
         6 000052   000054 710000 6                  TRA     s:6416+1

      132     6414    1            WHENALTRETURN
      133     6415    2              DO;

      134     6416    2                ALTRETURN;

   6416  6 000053   000000 702200 xent               TSX2  ! X66_AALT
         6 000054   000071 710000 6                  TRA     s:6425

      135     6417    2              END;
      136     6418
      137     6419    1          ELSE CALL Z8CO$QUALIFY_VARIABLE (ADDR(QUAL_ID), RETURN_ST$)

   6419  6 000055   200006 633500                    EPPR3   QUAL_ID,,AUTO
         6 000056   200030 453500                    STP3    NO_ERROR_FLAG+2,,AUTO
         6 000057   200004 236100                    LDQ     @RETURN_ST$,,AUTO
         6 000060   200033 756100                    STQ     NO_ERROR_FLAG+5,,AUTO
         6 000061   200030 634500                    EPPR4   NO_ERROR_FLAG+2,,AUTO
         6 000062   200032 454500                    STP4    NO_ERROR_FLAG+4,,AUTO
         6 000063   200032 630500                    EPPR0   NO_ERROR_FLAG+4,,AUTO
         6 000064   000001 631400 7                  EPPR1   1
         6 000065   000000 701000 xent               TSX1    Z8CO$QUALIFY_VARIABLE
         6 000066   000070 702000 6                  TSX2    s:6422
         6 000067   000071 710000 6                  TRA     s:6425

      138     6420    1            WHENALTRETURN
      139     6421    2              DO;

      140     6422    2                ALTRETURN;

   6422  6 000070   000000 702200 xent               TSX2  ! X66_AALT
PL6.E3A0      #002=Z8DO$QUALIFY_TERMINAL File=Z8DO.:Z8A6TSI                      SAT 08/09/97 11:14 Page:29

      141     6423    2              END;
      142     6424
      143     6425    1        RETURN;

   6425  6 000071   000000 702200 xent               TSX2  ! X66_ARET
      144     6426
      145     6427    1   END Z8DO$QUALIFY_TERMINAL;

PL6.E3A0      #002=Z8DO$QUALIFY_TERMINAL File=Z8DO.:Z8A6TSI                      SAT 08/09/97 11:14 Page:30
--  Include file information  --

   Z8E_ABSSYN.:Z8A6TOU  cannot be made into a system file and is referenced.
   Z8E_O1COM.:Z8A6TOU  cannot be made into a system file and is referenced.
   Z8A_LEX_SYMB.:Z8A6TOU  cannot be made into a system file and is referenced.
   Z8E_STACKS.:Z8A6TOU  cannot be made into a system file and is referenced.
   Z8A_COMCOM.:Z8A6TOU  cannot be made into a system file and is referenced.
   X8A_COM_MACS.:X8A6TOU  is referenced.
   Z8A_NAMES.:Z8A6TOU  is referenced.
   Z8A_SUPP_MAC.:Z8A6TOU  is referenced.
   Z8A_DEFC.:Z8A6TOU  cannot be made into a system file and is referenced.
      No diagnostics issued in procedure Z8DO$QUALIFY_TERMINAL.
PL6.E3A0      #002=Z8DO$QUALIFY_TERMINAL File=Z8DO.:Z8A6TSI                      SAT 08/09/97 11:14 Page:31

 **** Variables and constants ****

  ****  Section 000 LblCom ITERATION

  ****  Scalars and arrays  ****
OctLoc.c.b A Datatyp(siz) R M Lvl/name                 OctLoc.c.b A Datatyp(siz) R M Lvl/name

     0-0-0/w SBIN              1 ITERATION

  ****  Section 001 LblCom LEX_SYMBOL

  ****  Scalars and arrays  ****
OctLoc.c.b A Datatyp(siz) R M Lvl/name                 OctLoc.c.b A Datatyp(siz) R M Lvl/name

     0-0-0/w STRC(3240)  r     1 LEX_SYMBOL                 0-0-0/w STRC(3240)        1 LEX_SYMBOL_WORDS

  ****  Section 002 LblCom CURRENT_LEX_SYMBOL$

  ****  Scalars and arrays  ****
OctLoc.c.b A Datatyp(siz) R M Lvl/name                 OctLoc.c.b A Datatyp(siz) R M Lvl/name

     0-0-0/w PTR         r     1 CURRENT_LEX_SYMBOL$

  ****  Section 003 LblCom TEMP_LEX_SYMBOL

  ****  Scalars and arrays  ****
OctLoc.c.b A Datatyp(siz) R M Lvl/name                 OctLoc.c.b A Datatyp(siz) R M Lvl/name

     0-0-0/w STRC(3240)        1 TEMP_LEX_SYMBOL

  ****  Section 004 LblCom TEMP_LEX_SYMBOL2

  ****  Scalars and arrays  ****
OctLoc.c.b A Datatyp(siz) R M Lvl/name                 OctLoc.c.b A Datatyp(siz) R M Lvl/name

     0-0-0/w STRC(3240)        1 TEMP_LEX_SYMBOL2

PL6.E3A0      #002=Z8DO$QUALIFY_TERMINAL File=Z8DO.:Z8A6TSI                      SAT 08/09/97 11:14 Page:32
  ****  Section 005 LblCom TEMP_LX_NODE

  ****  Scalars and arrays  ****
OctLoc.c.b A Datatyp(siz) R M Lvl/name                 OctLoc.c.b A Datatyp(siz) R M Lvl/name

     0-0-0/d STRC(288)         1 TEMP_LX_NODE

  ****  Auto variables  ****

  ****  Scalars and arrays  ****
OctLoc.c.b A Datatyp(siz) R M Lvl/name                 OctLoc.c.b A Datatyp(siz) R M Lvl/name

     4-0-0/w PTR         r     1 @RETURN_ST$                3-0-0/w PTR         r     1 @TERMINAL$
    26-0-0/b BIT         r     1 NO_ERROR_FLAG              6-0-0/d STRC(288)   r     1 QUAL_ID
    *0-0-0/w PTR         r     1 RETURN_ST$                16-0-0/d STRC(288)   r     1 TERMINAL
    *0-0-0/w PTR         r     1 TERMINAL$

  ****  SYMREF variables  ****

  ****  Scalars and arrays  ****
OctLoc.c.b A Datatyp(siz) R M Lvl/name                 OctLoc.c.b A Datatyp(siz) R M Lvl/name

     0-0-0/d STRC(13248)       1 COMCOM
     0-0-0/w STRC(180)         1 HIER_STK(0:50)
     0-0-0/w SBIN              1 HIER_STK_PTR               0-0-0/d STRC(11580)       1 O1COM
     0-0-0/w STRC(144)         1 PAGE_FORMAT                0-0-0/w STRC(153)         1 REP_STK(0:50)
     0-0-0/w SBIN              1 REP_STK_PTR

  ****  BASED and DCB variables  ****

  ****  Scalars and arrays  ****
OctLoc.c.b A Datatyp(siz) R M Lvl/name                 OctLoc.c.b A Datatyp(siz) R M Lvl/name

     0-0-0/w STRC(288)         1 ADD_STMT                   0-0-0/w ASTR(324)   r     1 BASED_LEX_SYMBOL
     0-0-0/w STRC(360)         1 BASED_LEX_SYMBOL_WORDS
     0-0-0/w STRC(288)         1 BINARY_OP                  0-0-0/w STRC(288)         1 CALL_STMT
     0-0-0/w CHAR(4096)        1 CHARS                      0-0-0/w STRC(288)         1 COMPUTE_STMT
PL6.E3A0      #002=Z8DO$QUALIFY_TERMINAL File=Z8DO.:Z8A6TSI                      SAT 08/09/97 11:14 Page:33
     0-0-0/w STRC(72)          1 CONT                       0-0-0/w STRC(288)         1 DEFERED_IDENTIFIER
     0-0-0/w STRC(252)         1 DEFERED_ID_TREE            0-0-0/w STRC(288)         1 DEFERED_QUAL_ID
     0-0-0/w STRC(288)         1 DEFERED_SUM_CLAUSE
     0-0-0/w STRC(288)         1 DEFERED_SUM_CLAUSE_LIST
     0-0-0/w STRC(288)         1 DELETE_STMT                0-0-0/w STRC(288)         1 DIVIDE_STMT
     0-0-0/w STRC(288)         1 ILS_LIST                   0-0-0/w STRC(288)         1 INSPECT_1_STMT
     0-0-0/w STRC(288)         1 INSPECT_2_STMT             0-0-0/w STRC(288)         1 INSPECT_4_STMT
     0-0-0/w STRC(288)         1 LA_ITEM                    0-0-0/w STRC(504)         1 LX_CD_INPUT
     0-0-0/w STRC(324)         1 LX_CD_I_O                  0-0-0/w STRC(396)         1 LX_CD_OUTPUT
     0-0-0/w STRC(288)         1 LX_ETT_ITEM                0-0-0/w STRC(288)   r     1 LX_ITEM
     0-0-0/w STRC(288)         1 LX_LARGE                   0-0-0/w STRC(288)   r     1 LX_LIST
     0-0-0/w STRC(1224)        1 LX_REC_DECL                0-0-0/w STRC(864)         1 LX_REPORT_REC
     0-0-0/w STRC(288)   r     1 LX_TERMINAL                0-0-0/w STRC(288)         1 MULTIPLY_STMT
     0-0-0/w STRC(36864)       1 PAGE                       0-0-0/w STRC(288)         1 READ_STMT
     0-0-0/w STRC(288)         1 REWRITE_STMT               0-0-0/w STRC(288)         1 START_STMT
     0-0-0/w STRC(252)         1 STRING_STMT                0-0-0/w STRC(288)         1 SUBTRACT_STMT
     0-0-0/w STRC(288)         1 UNARY_OP                   0-0-0/w STRC(288)         1 UNSTRING_STMT
     0-0-0/w STRC(288)         1 WRITE_STMT


   Procedure Z8DO$QUALIFY_TERMINAL requires 58 words for executable code.
   Procedure Z8DO$QUALIFY_TERMINAL requires 28 words of local(AUTO) storage.

    No errors detected in file Z8DO.:Z8A6TSI    .
