PL6.E3A0      #002=Z8DP$CURRENCY_SIGN File=Z8DP.:Z8A6TSI                         SAT 08/09/97 11:20 Page:262
     2023        1        /*T***********************************************************/
     2024        2        /*T*                                                         */
     2025        3        /*T* Copyright (c) Bull HN Information Systems Inc., 1997    */
     2026        4        /*T*                                                         */
     2027        5        /*T***********************************************************/
     2028        6        Z8DP$CURRENCY_SIGN: PROC (NEW_SIGN);
     2029        7
     2030        8        %EQU PHASE = 1;
     2031        9
     2032       10        %INCLUDE Z8A_DEFC;
     2033       78        %INCLUDE Z8A_SUPP_MAC;
     2034     2478        %INCLUDE Z8A_ST;
     2035     6137        %INCLUDE Z8A_LTS;
     2036     8214        %INCLUDE Z8E_STACKS;
     2037    10480        %INCLUDE Z8E_O1COM;
     2038    11241
     2039    11242        %INCLUDE Z8D_PIC_TABL;
     2040    11309
     2041    11310        %EQU CURRENCY_SIGN = 36;
     2042    11311
     2043    11312    1   DCL NEW_SIGN           CHAR (1);
     2044    11313
     2045    11314
     2046    11315    1      PIC_XLATE_CH (ASCBIN (NEW_SIGN)) = %X$;
     2047    11316
     2048    11317    1      O1COM.CURRENT_PROC$ -> PROC_.B.CURRENCY_SIGN = TRUE;
     2049    11318    1      O1COM.CURRENT_PROC$ -> PROC_.PROC_SUPP$ ->
     2050    11319    1      PROC_SUPP.CURRENCY_SIGN = NEW_SIGN;
     2051    11320
     2052    11321    1   END Z8DP$CURRENCY_SIGN;
     2053    11322        %EOD;

PL6.E3A0      #002=Z8DP$CURRENCY_SIGN File=Z8DP.:Z8A6TSI                         SAT 08/09/97 11:20 Page:263
--  Include file information  --

   Z8D_PIC_TABL.:Z8A6TOU  cannot be made into a system file and is referenced.
   Z8E_O1COM.:Z8A6TOU  cannot be made into a system file and is referenced.
   Z8A_LEX_SYMB.:Z8A6TOU  cannot be made into a system file and is referenced.
   Z8E_STACKS.:Z8A6TOU  cannot be made into a system file and is referenced.
   Z8A_LTS.:Z8A6TOU  cannot be made into a system file and is referenced.
   Z8A_ST.:Z8A6TOU  cannot be made into a system file and is referenced.
   X8A_COM_MACS.:X8A6TOU  is referenced.
   Z8A_NAMES.:Z8A6TOU  is referenced.
   Z8A_SUPP_MAC.:Z8A6TOU  is referenced.
   Z8A_DEFC.:Z8A6TOU  cannot be made into a system file and is referenced.
      No diagnostics issued in procedure Z8DP$CURRENCY_SIGN.

   Procedure Z8DP$CURRENCY_SIGN requires 19 words for executable code.
   Procedure Z8DP$CURRENCY_SIGN requires 6 words of local(AUTO) storage.

PL6.E3A0      #002=Z8DP$CURRENCY_SIGN File=Z8DP.:Z8A6TSI                         SAT 08/09/97 11:20 Page:264

 Object Unit name= Z8DP$CURRENCY_SIGN                         File name= Z8DP.:Z8A6TOU
 UTS= AUG 09 '97 11:20:36.04 SAT                              Compiler= PL-6/E31         Sev=      00
 SharedLib= :SHARED_SYSTEM                                    Alt SharedLib=


    ****  Control sections  ****

 Sect   Type Bound  Init  Size OctSiz  Section name(segment info)
    0  LblCom even  none     1      1  ITERATION
    1  LblCom even  none     1      1  ST$
    2  LblCom even  none     5      5  ST_
    3  LblCom even  none     1      1  LTS$
    4  LblCom even  none     5      5  LTS_
    5  LblCom even  none    90    132  LEX_SYMBOL
    6  LblCom even  none     1      1  CURRENT_LEX_SYMBOL$
    7  LblCom even  none    90    132  TEMP_LEX_SYMBOL
    8  LblCom even  none    90    132  TEMP_LEX_SYMBOL2
    9   Proc  even  none    19     23  Z8DP$CURRENCY_SIGN
   10  RoData even  none     1      1  Z8DP$CURRENCY_SIGN

    ****  Entry defs  ****

                              Check   Calling
                             calling  sequence
  Sect OctLoc Primary Altret sequence   type   Parms  Name
     9      0   yes            yes      Std        1  Z8DP$CURRENCY_SIGN

  ****  Entry refs  ****

         Check        Calling
        calling       sequence
Altret sequence SRef   type   Args  Name
                       nStd      0 X66_AUTO_1
                       nStd      0 X66_ARET
PL6.E3A0      #002=Z8DP$CURRENCY_SIGN File=Z8DP.:Z8A6TSI                         SAT 08/09/97 11:20 Page:265

  ****  Data refs  ****

  Flags:  r = read only, s = secondary
Flgs Name                             Flgs Name                             Flgs Name
r    LTS_STEP                              O1COM                                 HIER_STK_PTR
     HIER_STK                              PAGE_FORMAT                           REP_STK_PTR
     REP_STK                               XLATE_TBL

  ****  Segment refs  ****

  Flags:  r = read only, s = secondary
Flgs Name                             Flgs Name                             Flgs Name
     NULLSID                               ISSID
PL6.E3A0      #002=Z8DP$CURRENCY_SIGN File=Z8DP.:Z8A6TSI                         SAT 08/09/97 11:20 Page:266


     2023        1        /*T***********************************************************/
     2024        2        /*T*                                                         */
     2025        3        /*T* Copyright (c) Bull HN Information Systems Inc., 1997    */
     2026        4        /*T*                                                         */
     2027        5        /*T***********************************************************/
     2028        6        Z8DP$CURRENCY_SIGN: PROC (NEW_SIGN);

      6  9 000000   000000 700200 xent  Z8DP$CURREN* TSX0  ! X66_AUTO_1
         9 000001   000006 000001                    ZERO    6,1

     2029        7
     2030        8        %EQU PHASE = 1;
     2031        9
     2032       10        %INCLUDE Z8A_DEFC;
     2033       78        %INCLUDE Z8A_SUPP_MAC;
     2034     2478        %INCLUDE Z8A_ST;
     2035     6137        %INCLUDE Z8A_LTS;
     2036     8214        %INCLUDE Z8E_STACKS;
     2037    10480        %INCLUDE Z8E_O1COM;
     2038    11241
     2039    11242        %INCLUDE Z8D_PIC_TABL;
     2040    11309
     2041    11310        %EQU CURRENCY_SIGN = 36;
     2042    11311
     2043    11312    1   DCL NEW_SIGN           CHAR (1);
     2044    11313
     2045    11314
     2046    11315    1      PIC_XLATE_CH (ASCBIN (NEW_SIGN)) = %X$;

  11315  9 000002   200003 470500                    LDP0    @NEW_SIGN,,AUTO
         9 000003   000100 101500                    MRL     fill='000'O
         9 000004   000000 000001                    ADSC9   0,,PR0                   cn=0,n=1
         9 000005   200004 000004                    ADSC9   @NEW_SIGN+1,,AUTO        cn=0,n=4
         9 000006   200004 236100                    LDQ     @NEW_SIGN+1,,AUTO
         9 000007   000006 101400                    MRL     fill='000'O
         9 000010   000000 000004 10                 ADSC9   0                        cn=0,n=4
PL6.E3A0      #002=Z8DP$CURRENCY_SIGN File=Z8DP.:Z8A6TSI                         SAT 08/09/97 11:20 Page:267
         9 000011   000000 000001 xsym               ADSC9   XLATE_TBL,Q              cn=0,n=1

     2047    11316
     2048    11317    1      O1COM.CURRENT_PROC$ -> PROC_.B.CURRENCY_SIGN = TRUE;

  11317  9 000012   000057 471400 xsym               LDP1    O1COM+47
         9 000013   004000 236003                    LDQ     2048,DU
         9 000014   100003 256100                    ORSQ    3,,PR1

     2049    11318    1      O1COM.CURRENT_PROC$ -> PROC_.PROC_SUPP$ ->

  11318  9 000015   000057 471400 xsym               LDP1    O1COM+47
         9 000016   100001 473500                    LDP3    1,,PR1
         9 000017   040100 100500                    MLR     fill='040'O
         9 000020   000000 000001                    ADSC9   0,,PR0                   cn=0,n=1
         9 000021   300001 000001                    ADSC9   1,,PR3                   cn=0,n=1

     2050    11319    1      PROC_SUPP.CURRENCY_SIGN = NEW_SIGN;
     2051    11320
     2052    11321    1   END Z8DP$CURRENCY_SIGN;

  11321  9 000022   000000 702200 xent               TSX2  ! X66_ARET
     2053    11322        %EOD;

PL6.E3A0      #002=Z8DP$CURRENCY_SIGN File=Z8DP.:Z8A6TSI                         SAT 08/09/97 11:20 Page:268
--  Include file information  --

   Z8D_PIC_TABL.:Z8A6TOU  cannot be made into a system file and is referenced.
   Z8E_O1COM.:Z8A6TOU  cannot be made into a system file and is referenced.
   Z8A_LEX_SYMB.:Z8A6TOU  cannot be made into a system file and is referenced.
   Z8E_STACKS.:Z8A6TOU  cannot be made into a system file and is referenced.
   Z8A_LTS.:Z8A6TOU  cannot be made into a system file and is referenced.
   Z8A_ST.:Z8A6TOU  cannot be made into a system file and is referenced.
   X8A_COM_MACS.:X8A6TOU  is referenced.
   Z8A_NAMES.:Z8A6TOU  is referenced.
   Z8A_SUPP_MAC.:Z8A6TOU  is referenced.
   Z8A_DEFC.:Z8A6TOU  cannot be made into a system file and is referenced.
      No diagnostics issued in procedure Z8DP$CURRENCY_SIGN.
PL6.E3A0      #002=Z8DP$CURRENCY_SIGN File=Z8DP.:Z8A6TSI                         SAT 08/09/97 11:20 Page:269

 **** Variables and constants ****

  ****  Section 000 LblCom ITERATION

  ****  Scalars and arrays  ****
OctLoc.c.b A Datatyp(siz) R M Lvl/name                 OctLoc.c.b A Datatyp(siz) R M Lvl/name

     0-0-0/w SBIN              1 ITERATION

  ****  Section 001 LblCom ST$

  ****  Scalars and arrays  ****
OctLoc.c.b A Datatyp(siz) R M Lvl/name                 OctLoc.c.b A Datatyp(siz) R M Lvl/name

     0-0-0/w PTR         r     1 ST$

  ****  Section 002 LblCom ST_

  ****  Scalars and arrays  ****
OctLoc.c.b A Datatyp(siz) R M Lvl/name                 OctLoc.c.b A Datatyp(siz) R M Lvl/name

     0-0-0/w STRC(180)         1 ST_

  ****  Section 003 LblCom LTS$

  ****  Scalars and arrays  ****
OctLoc.c.b A Datatyp(siz) R M Lvl/name                 OctLoc.c.b A Datatyp(siz) R M Lvl/name

     0-0-0/w PTR               1 LONG_ITEM$                 0-0-0/w PTR         r     1 LTS$

  ****  Section 004 LblCom LTS_

  ****  Scalars and arrays  ****
OctLoc.c.b A Datatyp(siz) R M Lvl/name                 OctLoc.c.b A Datatyp(siz) R M Lvl/name

     0-0-0/w STRC(180)         1 LTS_

PL6.E3A0      #002=Z8DP$CURRENCY_SIGN File=Z8DP.:Z8A6TSI                         SAT 08/09/97 11:20 Page:270
  ****  Section 005 LblCom LEX_SYMBOL

  ****  Scalars and arrays  ****
OctLoc.c.b A Datatyp(siz) R M Lvl/name                 OctLoc.c.b A Datatyp(siz) R M Lvl/name

     0-0-0/w STRC(3240)  r     1 LEX_SYMBOL                 0-0-0/w STRC(3240)        1 LEX_SYMBOL_WORDS

  ****  Section 006 LblCom CURRENT_LEX_SYMBOL$

  ****  Scalars and arrays  ****
OctLoc.c.b A Datatyp(siz) R M Lvl/name                 OctLoc.c.b A Datatyp(siz) R M Lvl/name

     0-0-0/w PTR         r     1 CURRENT_LEX_SYMBOL$

  ****  Section 007 LblCom TEMP_LEX_SYMBOL

  ****  Scalars and arrays  ****
OctLoc.c.b A Datatyp(siz) R M Lvl/name                 OctLoc.c.b A Datatyp(siz) R M Lvl/name

     0-0-0/w STRC(3240)        1 TEMP_LEX_SYMBOL

  ****  Section 008 LblCom TEMP_LEX_SYMBOL2

  ****  Scalars and arrays  ****
OctLoc.c.b A Datatyp(siz) R M Lvl/name                 OctLoc.c.b A Datatyp(siz) R M Lvl/name

     0-0-0/w STRC(3240)        1 TEMP_LEX_SYMBOL2

  ****  Auto variables  ****

  ****  Scalars and arrays  ****
OctLoc.c.b A Datatyp(siz) R M Lvl/name                 OctLoc.c.b A Datatyp(siz) R M Lvl/name

     3-0-0/w PTR         r     1 @NEW_SIGN                 *0-0-0/c CHAR        r     1 NEW_SIGN

  ****  SYMREF variables  ****

PL6.E3A0      #002=Z8DP$CURRENCY_SIGN File=Z8DP.:Z8A6TSI                         SAT 08/09/97 11:20 Page:271
  ****  Scalars and arrays  ****
OctLoc.c.b A Datatyp(siz) R M Lvl/name                 OctLoc.c.b A Datatyp(siz) R M Lvl/name

     0-0-0/w STRC(180)         1 HIER_STK(0:50)
     0-0-0/w SBIN              1 HIER_STK_PTR
     0-0-0/w UBIN              1 LTS_STEP(0:37)
     0-0-0/d STRC(11580) r     1 O1COM                      0-0-0/w STRC(144)         1 PAGE_FORMAT
     0-0-0/d UBIN(9)     r     1 PIC_XLATE_CH(0:127)
     0-0-0/w STRC(153)         1 REP_STK(0:50)              0-0-0/w SBIN              1 REP_STK_PTR
     0-0-0/d STRC(1152)  r     1 XLATE_TBL

  ****  BASED and DCB variables  ****

  ****  Scalars and arrays  ****
OctLoc.c.b A Datatyp(siz) R M Lvl/name                 OctLoc.c.b A Datatyp(siz) R M Lvl/name

     0-0-0/w STRC(288)         1 ADD_STMT                   0-0-0/w STRC(396)         1 ALPHABET
     0-0-0/w STRC(144)         1 ALTER_LTS                  0-0-0/w STRC(3672)        1 ALT_KEY
     0-0-0/w STRC(36864)       1 ARGLIST                    0-0-0/w STRC(396)         1 ARRAY
     0-0-0/w STRC(180)         1 ARRAY_PRESET_LTS           0-0-0/w ASTR(324)   r     1 BASED_LEX_SYMBOL
     0-0-0/w STRC(360)         1 BASED_LEX_SYMBOL_WORDS
     0-0-0/w STRC(288)         1 BASE_LTS                   0-0-0/w STRC(288)         1 BINARY_OP
     0-0-0/w STRC(396)         1 BLOCK                      0-0-0/w STRC(144)         1 BT
     0-0-0/w STRC(288)         1 CALL_STMT                  0-0-0/w STRC(396)         1 CD
     0-0-0/w STRC(288)         1 CD_LTS                     0-0-0/w CHAR(4096)        1 CHARS
     0-0-0/w STRC(396)         1 CLASS                      0-0-0/w STRC(288)         1 COMPUTE_STMT
     0-0-0/w STRC(396)         1 CONDITION                  0-0-0/w STRC(396)         1 CONST
     0-0-0/w STRC(72)          1 CONT                       0-0-0/w STRC(540)         1 CONTROL_NAME_LTS
     0-0-0/w STRC(1872)        1 COPY_FILE                  0-0-0/w STRC(396)         1 DB
     0-0-0/w STRC(396)         1 DCB_                       0-0-0/w STRC(288)         1 DEFERED_IDENTIFIER
     0-0-0/w STRC(252)         1 DEFERED_ID_TREE            0-0-0/w STRC(288)         1 DEFERED_QUAL_ID
     0-0-0/w STRC(288)         1 DEFERED_SUM_CLAUSE
     0-0-0/w STRC(288)         1 DEFERED_SUM_CLAUSE_LIST
     0-0-0/w STRC(288)         1 DELETE_STMT                0-0-0/w STRC(108)         1 DEPENDING_SIZE
     0-0-0/w STRC(5472)        1 DIMS                       0-0-0/w STRC(288)         1 DIVIDE_STMT
     0-0-0/w STRC(396)         1 DML_ITEM                   0-0-0/w STRC(216)         1 DML_REC
     0-0-0/w STRC(73836)       1 EVALUATE                   0-0-0/w STRC(396)         1 FD
PL6.E3A0      #002=Z8DP$CURRENCY_SIGN File=Z8DP.:Z8A6TSI                         SAT 08/09/97 11:20 Page:272
     0-0-0/w STRC(1692)        1 FILE_LTS                   0-0-0/w STRC(288)         1 ILS_LIST
     0-0-0/w STRC(108)         1 INDEXES                    0-0-0/w STRC(360)         1 INIT_LTS
     0-0-0/w STRC(288)         1 INSPECT_1_STMT             0-0-0/w STRC(288)         1 INSPECT_2_STMT
     0-0-0/w STRC(288)         1 INSPECT_4_STMT             0-0-0/w STRC(396)         1 INTDEF
     0-0-0/w STRC(180)         1 IO_RESTORE_CHAIN           0-0-0/w STRC(144)         1 KEY
     0-0-0/w STRC(396)         1 LABEL                      0-0-0/w STRC(288)         1 LA_ITEM
     0-0-0/w STRC(36864)       1 LCNST                      0-0-0/w STRC(72)          1 LONG
     0-0-0/w STRC              1 LTS                        0-0-0/w STRC(360)         1 LTSS
     0-0-0/w STRC(36936)       1 LTS_PTR_ARRAY              0-0-0/w STRC(504)         1 LX_CD_INPUT
     0-0-0/w STRC(324)         1 LX_CD_I_O                  0-0-0/w STRC(396)         1 LX_CD_OUTPUT
     0-0-0/w STRC(288)         1 LX_ETT_ITEM                0-0-0/w STRC(288)         1 LX_ITEM
     0-0-0/w STRC(288)         1 LX_LARGE                   0-0-0/w STRC(288)         1 LX_LIST
     0-0-0/w STRC(1224)        1 LX_REC_DECL                0-0-0/w STRC(864)         1 LX_REPORT_REC
     0-0-0/w STRC(288)         1 LX_TERMINAL                0-0-0/w STRC(396)         1 MNEMONIC
     0-0-0/w STRC(288)         1 MULTIPLY_STMT              0-0-0/w STRC(144)         1 NEL
     0-0-0/w STRC(216)         1 OPEN_LTS                   0-0-0/w STRC(36864)       1 PAGE
     0-0-0/w STRC(396)         1 PARA                       0-0-0/w STRC(144)         1 PRIME
     0-0-0/w STRC(396)   r     1 PROC_                      0-0-0/w STRC(396)         1 PROC_DEF
     0-0-0/w STRC(900)   r     1 PROC_SUPP                  0-0-0/w STRC(396)         1 RD
     0-0-0/w STRC(288)         1 READ_STMT                  0-0-0/w STRC(216)         1 REF
     0-0-0/w STRC(108)         1 RENAMES                    0-0-0/w STRC(720)         1 REPORT_01_LTS
     0-0-0/w STRC(432)         1 REPORT_ELEM_LTS            0-0-0/w STRC(252)         1 REPORT_GRP_LTS
     0-0-0/w STRC(1332)        1 REPORT_LTS                 0-0-0/w STRC(288)         1 REWRITE_STMT
     0-0-0/w STRC(144)         1 RVA_LTS                    0-0-0/w STRC(396)         1 SCALAR
     0-0-0/w STRC(396)         1 SD                         0-0-0/w STRC(396)         1 SECTION
     0-0-0/w STRC(396)         1 SEGMENT                    0-0-0/w STRC(360)         1 SEGMENT_LTS
     0-0-0/w STRC(396)         1 ST                         0-0-0/w STRC(288)         1 START_STMT
     0-0-0/w STRC(252)         1 STRING_STMT                0-0-0/w STRC(288)         1 SUBTRACT_STMT
     0-0-0/w STRC(252)         1 SUM_LTS                    0-0-0/w STRC(396)         1 SWITCH
     0-0-0/w STRC(396)         1 SYMBOLIC_CHAR              0-0-0/w STRC(396)         1 SYMDEF_
     0-0-0/w STRC(396)         1 SYMREF_                    0-0-0/w STRC(396)         1 TEMP
     0-0-0/w STRC(288)         1 UNARY_OP                   0-0-0/w STRC(288)         1 UNSTRING_STMT
     0-0-0/d STRC(612)         1 USE                        0-0-0/w STRC(252)         1 USE_SUPP
     0-0-0/w STRC(396)         1 VARIABLE                   0-0-0/w STRC(288)         1 WRITE_STMT

PL6.E3A0      #002=Z8DP$CURRENCY_SIGN File=Z8DP.:Z8A6TSI                         SAT 08/09/97 11:20 Page:273

   Procedure Z8DP$CURRENCY_SIGN requires 19 words for executable code.
   Procedure Z8DP$CURRENCY_SIGN requires 6 words of local(AUTO) storage.

PL6.E3A0      #003=Z8DP$COMMA_DECIMAL_POINT File=Z8DP.:Z8A6TSI                   SAT 08/09/97 11:22 Page:274
     2054        1        /*T***********************************************************/
     2055        2        /*T*                                                         */
     2056        3        /*T* Copyright (c) Bull HN Information Systems Inc., 1997    */
     2057        4        /*T*                                                         */
     2058        5        /*T***********************************************************/
     2059        6        Z8DP$COMMA_DECIMAL_POINT: PROC;
     2060        7
     2061        8        %EQU PHASE = 1;
     2062        9
     2063       10        %INCLUDE Z8A_DEFC;
     2064       78        %INCLUDE Z8A_COMCOM;
     2065      728        %INCLUDE Z8A_SUPP_MAC;
     2066     3128        %INCLUDE Z8A_ST;
     2067     6787        %INCLUDE Z8E_STACKS;
     2068     9053        %INCLUDE Z8E_O1COM;
     2069     9814
     2070     9815        %INCLUDE Z8D_PIC_TABL;
     2071     9882
     2072     9883        %EQU DEC_POINT = 46;
     2073     9884        %EQU COMMA_    = 44;
     2074     9885
     2075     9886    1      O1COM.CURRENT_PROC$ -> PROC_.B.OBJECT_IS_COMMA  = TRUE;
     2076     9887    1      GOTO   TABLE_SWITCH;
     2077     9888
     2078     9889    1   Z8DP$COMMA_DECIMAL_TABLE_SWITCH:   ENTRY;
     2079     9890
     2080     9891    1     TABLE_SWITCH:
     2081     9892
     2082     9893    1      PIC_XLATE_CH (%DEC_POINT) = %XCM;
     2083     9894    1      PIC_XLATE_CH (%COMMA_)    = %XPT;
     2084     9895
     2085     9896    1      O1COM.CURRENT_PROC$ -> PROC_.B.COMMA_IS_DECIMAL = TRUE;
     2086     9897    1      COMCOM.COMMA_DECIMAL_PRESENT = TRUE;
     2087     9898
     2088     9899
     2089     9900    1   END Z8DP$COMMA_DECIMAL_POINT;

PL6.E3A0      #003=Z8DP$COMMA_DECIMAL_POINT File=Z8DP.:Z8A6TSI                   SAT 08/09/97 11:22 Page:275
--  Include file information  --

   Z8D_PIC_TABL.:Z8A6TOU  cannot be made into a system file and is referenced.
   Z8E_O1COM.:Z8A6TOU  cannot be made into a system file and is referenced.
   Z8A_LEX_SYMB.:Z8A6TOU  cannot be made into a system file and is referenced.
   Z8E_STACKS.:Z8A6TOU  cannot be made into a system file and is referenced.
   Z8A_ST.:Z8A6TOU  cannot be made into a system file and is referenced.
   X8A_COM_MACS.:X8A6TOU  is referenced.
   Z8A_NAMES.:Z8A6TOU  is referenced.
   Z8A_SUPP_MAC.:Z8A6TOU  is referenced.
   Z8A_COMCOM.:Z8A6TOU  cannot be made into a system file and is referenced.
   Z8A_DEFC.:Z8A6TOU  cannot be made into a system file and is referenced.
      No diagnostics issued in procedure Z8DP$COMMA_DECIMAL_POINT.

   Procedure Z8DP$COMMA_DECIMAL_POINT requires 18 words for executable code.
   Procedure Z8DP$COMMA_DECIMAL_POINT requires 4 words of local(AUTO) storage.

    No errors detected in file Z8DP.:Z8A6TSI    .

PL6.E3A0      #003=Z8DP$COMMA_DECIMAL_POINT File=Z8DP.:Z8A6TSI                   SAT 08/09/97 11:22 Page:276

 Object Unit name= Z8DP$COMMA_DECIMAL_POINT                   File name= Z8DP.:Z8A6TOU
 UTS= AUG 09 '97 11:22:03.20 SAT                              Compiler= PL-6/E31         Sev=      00
 SharedLib= :SHARED_SYSTEM                                    Alt SharedLib=


    ****  Control sections  ****

 Sect   Type Bound  Init  Size OctSiz  Section name(segment info)
    0  LblCom even  none     1      1  ITERATION
    1  LblCom even  none     1      1  ST$
    2  LblCom even  none     5      5  ST_
    3  LblCom even  none    90    132  LEX_SYMBOL
    4  LblCom even  none     1      1  CURRENT_LEX_SYMBOL$
    5  LblCom even  none    90    132  TEMP_LEX_SYMBOL
    6  LblCom even  none    90    132  TEMP_LEX_SYMBOL2
    7   Proc  even  none    18     22  Z8DP$COMMA_DECIMAL_POINT

    ****  Entry defs  ****

                              Check   Calling
                             calling  sequence
  Sect OctLoc Primary Altret sequence   type   Parms  Name
     7      0   yes            yes      Std        0  Z8DP$COMMA_DECIMAL_POINT
     7      6                  yes      Std        0  Z8DP$COMMA_DECIMAL_TABLE_SWITCH

  ****  Entry refs  ****

         Check        Calling
        calling       sequence
Altret sequence SRef   type   Args  Name
                       nStd      0 X66_AUTO_0
                       nStd      0 X66_ARET
PL6.E3A0      #003=Z8DP$COMMA_DECIMAL_POINT File=Z8DP.:Z8A6TSI                   SAT 08/09/97 11:22 Page:277

  ****  Data refs  ****

  Flags:  r = read only, s = secondary
Flgs Name                             Flgs Name                             Flgs Name
     COMCOM                                O1COM                                 HIER_STK_PTR
     HIER_STK                              PAGE_FORMAT                           REP_STK_PTR
     REP_STK                               XLATE_TBL

  ****  Segment refs  ****

  Flags:  r = read only, s = secondary
Flgs Name                             Flgs Name                             Flgs Name
     NULLSID                               ISSID
PL6.E3A0      #003=Z8DP$COMMA_DECIMAL_POINT File=Z8DP.:Z8A6TSI                   SAT 08/09/97 11:22 Page:278


     2054        1        /*T***********************************************************/
     2055        2        /*T*                                                         */
     2056        3        /*T* Copyright (c) Bull HN Information Systems Inc., 1997    */
     2057        4        /*T*                                                         */
     2058        5        /*T***********************************************************/
     2059        6        Z8DP$COMMA_DECIMAL_POINT: PROC;

      6  7 000000   000000 700200 xent  Z8DP$COMMA_* TSX0  ! X66_AUTO_0
         7 000001   000004 000000                    ZERO    4,0

     2060        7
     2061        8        %EQU PHASE = 1;
     2062        9
     2063       10        %INCLUDE Z8A_DEFC;
     2064       78        %INCLUDE Z8A_COMCOM;
     2065      728        %INCLUDE Z8A_SUPP_MAC;
     2066     3128        %INCLUDE Z8A_ST;
     2067     6787        %INCLUDE Z8E_STACKS;
     2068     9053        %INCLUDE Z8E_O1COM;
     2069     9814
     2070     9815        %INCLUDE Z8D_PIC_TABL;
     2071     9882
     2072     9883        %EQU DEC_POINT = 46;
     2073     9884        %EQU COMMA_    = 44;
     2074     9885
     2075     9886    1      O1COM.CURRENT_PROC$ -> PROC_.B.OBJECT_IS_COMMA  = TRUE;

   9886  7 000002   000057 470400 xsym               LDP0    O1COM+47
         7 000003   002000 236003                    LDQ     1024,DU
         7 000004   000003 256100                    ORSQ    3,,PR0

     2076     9887    1      GOTO   TABLE_SWITCH;

   9887  7 000005   000010 710000 7                  TRA     TABLE_SWITCH

     2077     9888
PL6.E3A0      #003=Z8DP$COMMA_DECIMAL_POINT File=Z8DP.:Z8A6TSI                   SAT 08/09/97 11:22 Page:279
     2078     9889    1   Z8DP$COMMA_DECIMAL_TABLE_SWITCH:   ENTRY;

   9889  7 000006   000000 700200 xent  Z8DP$COMMA_* TSX0  ! X66_AUTO_0
         7 000007   000004 000000                    ZERO    4,0

     2079     9890
     2080     9891    1     TABLE_SWITCH:
     2081     9892
     2082     9893    1      PIC_XLATE_CH (%DEC_POINT) = %XCM;

   9893  7 000010   010000 236007       TABLE_SWITCH LDQ     4096,DL
         7 000011   000013 552010 xsym               STBQ    XLATE_TBL+11,'10'O

     2083     9894    1      PIC_XLATE_CH (%COMMA_)    = %XPT;

   9894  7 000012   002000 236003                    LDQ     1024,DU
         7 000013   000013 552040 xsym               STBQ    XLATE_TBL+11,'40'O

     2084     9895
     2085     9896    1      O1COM.CURRENT_PROC$ -> PROC_.B.COMMA_IS_DECIMAL = TRUE;

   9896  7 000014   000057 470400 xsym               LDP0    O1COM+47
         7 000015   010000 236003                    LDQ     4096,DU
         7 000016   000003 256100                    ORSQ    3,,PR0

     2086     9897    1      COMCOM.COMMA_DECIMAL_PRESENT = TRUE;

   9897  7 000017   400000 236003                    LDQ     -131072,DU
         7 000020   000471 756000 xsym               STQ     COMCOM+313

     2087     9898
     2088     9899
     2089     9900    1   END Z8DP$COMMA_DECIMAL_POINT;

   9900  7 000021   000000 702200 xent               TSX2  ! X66_ARET

PL6.E3A0      #003=Z8DP$COMMA_DECIMAL_POINT File=Z8DP.:Z8A6TSI                   SAT 08/09/97 11:22 Page:280
--  Include file information  --

   Z8D_PIC_TABL.:Z8A6TOU  cannot be made into a system file and is referenced.
   Z8E_O1COM.:Z8A6TOU  cannot be made into a system file and is referenced.
   Z8A_LEX_SYMB.:Z8A6TOU  cannot be made into a system file and is referenced.
   Z8E_STACKS.:Z8A6TOU  cannot be made into a system file and is referenced.
   Z8A_ST.:Z8A6TOU  cannot be made into a system file and is referenced.
   X8A_COM_MACS.:X8A6TOU  is referenced.
   Z8A_NAMES.:Z8A6TOU  is referenced.
   Z8A_SUPP_MAC.:Z8A6TOU  is referenced.
   Z8A_COMCOM.:Z8A6TOU  cannot be made into a system file and is referenced.
   Z8A_DEFC.:Z8A6TOU  cannot be made into a system file and is referenced.
      No diagnostics issued in procedure Z8DP$COMMA_DECIMAL_POINT.
PL6.E3A0      #003=Z8DP$COMMA_DECIMAL_POINT File=Z8DP.:Z8A6TSI                   SAT 08/09/97 11:22 Page:281

 **** Variables and constants ****

  ****  Section 000 LblCom ITERATION

  ****  Scalars and arrays  ****
OctLoc.c.b A Datatyp(siz) R M Lvl/name                 OctLoc.c.b A Datatyp(siz) R M Lvl/name

     0-0-0/w SBIN              1 ITERATION

  ****  Section 001 LblCom ST$

  ****  Scalars and arrays  ****
OctLoc.c.b A Datatyp(siz) R M Lvl/name                 OctLoc.c.b A Datatyp(siz) R M Lvl/name

     0-0-0/w PTR         r     1 ST$

  ****  Section 002 LblCom ST_

  ****  Scalars and arrays  ****
OctLoc.c.b A Datatyp(siz) R M Lvl/name                 OctLoc.c.b A Datatyp(siz) R M Lvl/name

     0-0-0/w STRC(180)         1 ST_

  ****  Section 003 LblCom LEX_SYMBOL

  ****  Scalars and arrays  ****
OctLoc.c.b A Datatyp(siz) R M Lvl/name                 OctLoc.c.b A Datatyp(siz) R M Lvl/name

     0-0-0/w STRC(3240)  r     1 LEX_SYMBOL                 0-0-0/w STRC(3240)        1 LEX_SYMBOL_WORDS

  ****  Section 004 LblCom CURRENT_LEX_SYMBOL$

  ****  Scalars and arrays  ****
OctLoc.c.b A Datatyp(siz) R M Lvl/name                 OctLoc.c.b A Datatyp(siz) R M Lvl/name

     0-0-0/w PTR         r     1 CURRENT_LEX_SYMBOL$

PL6.E3A0      #003=Z8DP$COMMA_DECIMAL_POINT File=Z8DP.:Z8A6TSI                   SAT 08/09/97 11:22 Page:282
  ****  Section 005 LblCom TEMP_LEX_SYMBOL

  ****  Scalars and arrays  ****
OctLoc.c.b A Datatyp(siz) R M Lvl/name                 OctLoc.c.b A Datatyp(siz) R M Lvl/name

     0-0-0/w STRC(3240)        1 TEMP_LEX_SYMBOL

  ****  Section 006 LblCom TEMP_LEX_SYMBOL2

  ****  Scalars and arrays  ****
OctLoc.c.b A Datatyp(siz) R M Lvl/name                 OctLoc.c.b A Datatyp(siz) R M Lvl/name

     0-0-0/w STRC(3240)        1 TEMP_LEX_SYMBOL2

  ****  SYMREF variables  ****

  ****  Scalars and arrays  ****
OctLoc.c.b A Datatyp(siz) R M Lvl/name                 OctLoc.c.b A Datatyp(siz) R M Lvl/name

     0-0-0/d STRC(13248) r     1 COMCOM
     0-0-0/w STRC(180)         1 HIER_STK(0:50)
     0-0-0/w SBIN              1 HIER_STK_PTR               0-0-0/d STRC(11580) r     1 O1COM
     0-0-0/w STRC(144)         1 PAGE_FORMAT
     0-0-0/d UBIN(9)     r     1 PIC_XLATE_CH(0:127)
     0-0-0/w STRC(153)         1 REP_STK(0:50)              0-0-0/w SBIN              1 REP_STK_PTR
     0-0-0/d STRC(1152)  r     1 XLATE_TBL

  ****  BASED and DCB variables  ****

  ****  Scalars and arrays  ****
OctLoc.c.b A Datatyp(siz) R M Lvl/name                 OctLoc.c.b A Datatyp(siz) R M Lvl/name

     0-0-0/w STRC(288)         1 ADD_STMT                   0-0-0/w STRC(396)         1 ALPHABET
     0-0-0/w STRC(396)         1 ARRAY                      0-0-0/w ASTR(324)   r     1 BASED_LEX_SYMBOL
     0-0-0/w STRC(360)         1 BASED_LEX_SYMBOL_WORDS
     0-0-0/w STRC(288)         1 BINARY_OP                  0-0-0/w STRC(396)         1 BLOCK
     0-0-0/w STRC(288)         1 CALL_STMT                  0-0-0/w STRC(396)         1 CD
PL6.E3A0      #003=Z8DP$COMMA_DECIMAL_POINT File=Z8DP.:Z8A6TSI                   SAT 08/09/97 11:22 Page:283
     0-0-0/w CHAR(4096)        1 CHARS                      0-0-0/w STRC(396)         1 CLASS
     0-0-0/w STRC(288)         1 COMPUTE_STMT               0-0-0/w STRC(396)         1 CONDITION
     0-0-0/w STRC(396)         1 CONST                      0-0-0/w STRC(72)          1 CONT
     0-0-0/w STRC(396)         1 DB                         0-0-0/w STRC(396)         1 DCB_
     0-0-0/w STRC(288)         1 DEFERED_IDENTIFIER         0-0-0/w STRC(252)         1 DEFERED_ID_TREE
     0-0-0/w STRC(288)         1 DEFERED_QUAL_ID            0-0-0/w STRC(288)         1 DEFERED_SUM_CLAUSE
     0-0-0/w STRC(288)         1 DEFERED_SUM_CLAUSE_LIST
     0-0-0/w STRC(288)         1 DELETE_STMT                0-0-0/w STRC(288)         1 DIVIDE_STMT
     0-0-0/w STRC(396)         1 DML_ITEM                   0-0-0/w STRC(396)         1 FD
     0-0-0/w STRC(288)         1 ILS_LIST                   0-0-0/w STRC(288)         1 INSPECT_1_STMT
     0-0-0/w STRC(288)         1 INSPECT_2_STMT             0-0-0/w STRC(288)         1 INSPECT_4_STMT
     0-0-0/w STRC(396)         1 INTDEF                     0-0-0/w STRC(396)         1 LABEL
     0-0-0/w STRC(288)         1 LA_ITEM                    0-0-0/w STRC(504)         1 LX_CD_INPUT
     0-0-0/w STRC(324)         1 LX_CD_I_O                  0-0-0/w STRC(396)         1 LX_CD_OUTPUT
     0-0-0/w STRC(288)         1 LX_ETT_ITEM                0-0-0/w STRC(288)         1 LX_ITEM
     0-0-0/w STRC(288)         1 LX_LARGE                   0-0-0/w STRC(288)         1 LX_LIST
     0-0-0/w STRC(1224)        1 LX_REC_DECL                0-0-0/w STRC(864)         1 LX_REPORT_REC
     0-0-0/w STRC(288)         1 LX_TERMINAL                0-0-0/w STRC(396)         1 MNEMONIC
     0-0-0/w STRC(288)         1 MULTIPLY_STMT              0-0-0/w STRC(36864)       1 PAGE
     0-0-0/w STRC(396)         1 PARA                       0-0-0/w STRC(396)   r     1 PROC_
     0-0-0/w STRC(396)         1 PROC_DEF                   0-0-0/w STRC(396)         1 RD
     0-0-0/w STRC(288)         1 READ_STMT                  0-0-0/w STRC(288)         1 REWRITE_STMT
     0-0-0/w STRC(396)         1 SCALAR                     0-0-0/w STRC(396)         1 SD
     0-0-0/w STRC(396)         1 SECTION                    0-0-0/w STRC(396)         1 SEGMENT
     0-0-0/w STRC(396)         1 ST                         0-0-0/w STRC(288)         1 START_STMT
     0-0-0/w STRC(252)         1 STRING_STMT                0-0-0/w STRC(288)         1 SUBTRACT_STMT
     0-0-0/w STRC(396)         1 SWITCH                     0-0-0/w STRC(396)         1 SYMBOLIC_CHAR
     0-0-0/w STRC(396)         1 SYMDEF_                    0-0-0/w STRC(396)         1 SYMREF_
     0-0-0/w STRC(396)         1 TEMP                       0-0-0/w STRC(288)         1 UNARY_OP
     0-0-0/w STRC(288)         1 UNSTRING_STMT              0-0-0/w STRC(396)         1 VARIABLE
     0-0-0/w STRC(288)         1 WRITE_STMT


   Procedure Z8DP$COMMA_DECIMAL_POINT requires 18 words for executable code.
   Procedure Z8DP$COMMA_DECIMAL_POINT requires 4 words of local(AUTO) storage.
PL6.E3A0      #003=Z8DP$COMMA_DECIMAL_POINT File=Z8DP.:Z8A6TSI                   SAT 08/09/97 11:22 Page:284

    No errors detected in file Z8DP.:Z8A6TSI    .
