PL6.E3A0      #005=Z8DQ$BLOCK File=Z8DQ.:Z8A6TSI                                 SAT 08/09/97 11:24 Page:126
      616        1        /*T***********************************************************/
      617        2        /*T*                                                         */
      618        3        /*T* Copyright (c) Bull HN Information Systems Inc., 1997    */
      619        4        /*T*                                                         */
      620        5        /*T***********************************************************/
      621        6        /*==========*/
      622        7          Z8DQ$BLOCK: PROC ;
      623        8        /*==========*/
      624        9
      625       10             %EQU PHASE = 1;
      626       11                                                 /* COBOL74 compatible name */
      627       12             %EQU BLOCK_TEXT = 'BLCK';                              /*#32704*/
      628       13             %EQU BLOCK_TEXT_LENGTH = 6;
      629       14
      630       15             %INCLUDE Z8A_DEFC;
      631       83             %INCLUDE Z8A_SUPP_MAC;
      632     2483             %INCLUDE Z8A_COMCOM;
      633     3133             %INCLUDE Z8A_ST;
      634     6792             %INCLUDE Z8A_QLT;
      635     6898             %INCLUDE Z8A_LTS;
      636     8975             %INCLUDE Z8A_DNT;
      637     9196             %INCLUDE Z8A_ERR_NUMS;
      638     9960
      639     9961             %INCLUDE Z8E_STACKS;
      640    12227             %INCLUDE Z8E_O1COM;
      641    12988             %INCLUDE Z8E_ABSSYN;
      642    13194             %INCLUDE Z8E_MACROS;
      643    13869
      644    13870    1        DCL Z8AE$ERROR    ENTRY(12);
      645    13871    1        DCL Z8DQ$RESET_COUNT ENTRY(2) ALTRET;
      646    13872    1        DCL Z8ED$DISPOSE_ABSSYN_TREE ENTRY(1);
      647    13873    1        DCL Z8EC$INTERNAL_STRING_REP ENTRY(2);
      648    13874    1        DCL Z8CO$QUALIFY_VARIABLE ENTRY(2) ALTRET;
      649    13875    1        DCL Z8AH$SEARCH_  ENTRY;
      650    13876
      651    13877    1        DCL P$            PTR;
      652    13878    1        DCL DNT$$         PTR;
PL6.E3A0      #005=Z8DQ$BLOCK File=Z8DQ.:Z8A6TSI                                 SAT 08/09/97 11:24 Page:127
      653    13879    1        DCL N$            PTR;
      654    13880    1        DCL I$            PTR;
      655    13881    1        DCL BLOCK_TEXT    CHAR (6);
      656    13882    1        DCL COUNT         SBIN;
      657    13883    1        DCL BLK$          PTR;
      658    13884
      659    13885
      660    13886        /*========*/
      661    13887    1     DN_BLOCK: PROC (LIST$, COUNT);
      662    13888        /*========*/
      663    13889
      664    13890    2        DCL LIST$         PTR;
      665    13891    2        DCL COUNT         SBIN;
      666    13892
      667    13893    2        DCL LAST$         PTR;
      668    13894    2        DCL FIRST$        PTR;
      669    13895    2        DCL L_ST$         PTR;
      670    13896    2        DCL F_ST$         PTR;
      671    13897    2        DCL P$            PTR;
      672    13898
      673    13899             /*===============*/
      674    13900    2          DN_BLOCK_CHECKS : PROC (ITEM$, ST$$) ALTRET;
      675    13901             /*===============*/
      676    13902
      677    13903    3              DCL ITEM$   PTR;
      678    13904    3              DCL ST$$    PTR;
      679    13905
      680    13906                   %DCL_AUTO_LX_ITEM (@NAME = QUAL_ID);
      681    13910                   %DCL_AUTO_LX_ITEM (@NAME = ITEM);
      682    13914
      683    13915
      684    13916
      685    13917                   %INIT_LX_LIST (@POINTER = "ADDR(QUAL_ID)");
      686    13927
      687    13928    3              ADDR(ITEM) -> LX_ITEM = ITEM$ -> LX_ITEM;
      688    13929
      689    13930                   %ADD_LX_ITEM_TO_LIST_HEAD (@FROM$ = "ADDR(ITEM)",
PL6.E3A0      #005=Z8DQ$BLOCK File=Z8DQ.:Z8A6TSI                                 SAT 08/09/97 11:24 Page:128
      690    13931                                              @LIST$ = "ADDR(QUAL_ID)");
      691    13940
      692    13941    3              CALL Z8CO$QUALIFY_VARIABLE (ADDR(QUAL_ID), ST$$)
      693    13942    3                WHENALTRETURN
      694    13943    4                  DO;
      695    13944    4                    ALTRETURN;
      696    13945    4                  END;
      697    13946
      698    13947    3              IF ST$$ -> ST.ID ~= %SCALAR AND ST$$ -> ST.ID ~= %ARRAY
      699    13948    4                  AND ST$$ -> ST.ID ~= %CONDITION THEN DO;
      700    13949    4                CALL Z8AE$ERROR (%E$MUST_BE_IN_WORK_STORAGE,
      701    13950    4                                 ITEM$ -> LX_ITEM.LINE,
      702    13951    4                                 ITEM$ -> LX_ITEM.COLUMN);
      703    13952    4                ALTRETURN;
      704    13953    4              END;
      705    13954
      706    13955    3              IF ST$$ -> SCALAR.QLT$ -> QLT.LEVEL_NO ~= 1
      707    13956    3              AND ST$$ -> SCALAR.QLT$ -> QLT.LEVEL_NO ~= 77 THEN
      708    13957    4                DO;
      709    13958                       %CONDITIONAL_ERROR (@LX_ITEM$ = ITEM$,
      710    13959                                           @ERROR#   = %E$LEVEL_MUST_BE_01_OR_77,
      711    13960                                           @LINE     = ITEM$ -> LX_ITEM.LINE,
      712    13961                                           @COLUMN   = ITEM$ -> LX_ITEM.COLUMN);
      713    13991    4                  ALTRETURN;
      714    13992    4                END;
      715    13993
      716    13994    3              CALL WORK_STORAGE (ST$$, ITEM$)
      717    13995    3                WHENALTRETURN
      718    13996    4                  DO;
      719    13997    4                    ALTRETURN;
      720    13998    4                  END;
      721    13999
      722    14000
      723    14001    3         END DN_BLOCK_CHECKS;
      724    14002              %EJECT;
PL6.E3A0      #005=Z8DQ$BLOCK File=Z8DQ.:Z8A6TSI                                 SAT 08/09/97 11:24 Page:129
      725    14003
      726    14004
      727    14005    2        IF LIST$ -> LX_LIST.COUNT = 1 THEN
      728    14006    3          DO;
      729    14007    3            CALL DN_BLOCK_CHECKS (LIST$ -> LX_LIST.HEAD$, F_ST$)
      730    14008    3              WHENALTRETURN
      731    14009    4                DO;
      732    14010    4                  RETURN;
      733    14011    4                END;
      734    14012
      735    14013    3            FIRST$ = LIST$ -> LX_LIST.HEAD$;
      736    14014    3            L_ST$ = ADDR(NIL);
      737    14015    3          END;
      738    14016    2        ELSE
      739    14017    3          DO;
      740    14018    3            CALL DN_BLOCK_CHECKS (LIST$ -> LX_LIST.HEAD$, F_ST$)
      741    14019    3              WHENALTRETURN
      742    14020    4                DO;
      743    14021    4                  RETURN;
      744    14022    4                END;
      745    14023
      746    14024    3            CALL DN_BLOCK_CHECKS (LIST$ -> LX_LIST.TAIL$, L_ST$)
      747    14025    3              WHENALTRETURN
      748    14026    4                DO;
      749    14027    4                  RETURN;
      750    14028    4                END;
      751    14029
      752    14030    3            FIRST$ = LIST$ -> LX_LIST.HEAD$;
      753    14031
      754    14032    3            P$ = F_ST$;
      755    14033
      756    14034    4            DO WHILE (P$ ~= ADDR(NIL));
      757    14035    4              IF P$ = L_ST$ THEN
      758    14036    4                EXIT;
      759    14037
      760    14038    4              IF P$ -> VARIABLE.QLT$ -> QLT.BROTHER ~= ADDR(NIL) THEN
      761    14039    4                P$ = P$ -> VARIABLE.QLT$ -> QLT.BROTHER -> QLT.ST$;
PL6.E3A0      #005=Z8DQ$BLOCK File=Z8DQ.:Z8A6TSI                                 SAT 08/09/97 11:24 Page:130
      762    14040    4              ELSE
      763    14041    4                P$ = ADDR(NIL);
      764    14042    4            END; /* While */
      765    14043
      766    14044    3            IF P$ = ADDR(NIL) THEN
      767    14045    4              DO;
      768    14046                     %CONDITIONAL_ERROR (@LX_ITEM$ = FIRST$,
      769    14047                                         @ERROR#   = %E$WRONG_BLOCK_ORDER,
      770    14048                                         @LINE     = FIRST$ -> LX_ITEM.LINE,
      771    14049                                         @COLUMN   = FIRST$ -> LX_ITEM.COLUMN);
      772    14079    4                RETURN;
      773    14080    4              END;
      774    14081    3          END; /* IF -- LIST$ -> LX_LIST.COUNT ~= 1 */
      775    14082
      776    14083    2        P$ = F_ST$;
      777    14084
      778    14085    2        F_ST$ -> SCALAR.R = %START_BLK;
      779    14086
      780    14087    3        DO FOREVER;
      781    14088    3          IF P$ -> SCALAR.B.EXTERNAL THEN
      782    14089                 %CONDITIONAL_ERROR (@LX_ITEM$ = FIRST$,
      783    14090                                     @ERROR#   = %E$EXTERNAL_AND_BLOCK,
      784    14091                                     @LINE     = FIRST$ -> LX_ITEM.LINE,
      785    14092                                     @COLUMN   = 0);
      786    14122    3          ELSE
      787    14123    3            CALL Z8DQ$RESET_COUNT (P$, COUNT);
      788    14124
      789    14125    3          IF P$ = L_ST$
      790    14126    3          OR L_ST$ = ADDR(NIL) THEN
      791    14127    3            EXIT;
      792    14128    3          ELSE
      793    14129    3            P$ = P$ -> VARIABLE.QLT$ -> QLT.BROTHER -> QLT.ST$;
      794    14130    3        END; /* Until */
      795    14131
      796    14132    2   END DN_BLOCK;
      797    14133        %EJECT;
PL6.E3A0      #005=Z8DQ$BLOCK File=Z8DQ.:Z8A6TSI                                 SAT 08/09/97 11:24 Page:131
      798    14134        /*==========*/
      799    14135    1     FILE_BLOCK: PROC (LIST$, COUNT);
      800    14136        /*==========*/
      801    14137
      802    14138    2        DCL ST$$          PTR;
      803    14139    2        DCL LTS$$         PTR;
      804    14140    2        DCL LIST$         PTR;
      805    14141    2        DCL FILE$         PTR;
      806    14142    2        DCL COUNT         SBIN;
      807    14143
      808    14144             %DCL_AUTO_LX_ITEM (@NAME = QUAL_ID);
      809    14148             %DCL_AUTO_LX_ITEM (@NAME = ITEM);
      810    14152
      811    14153
      812    14154    2        FILE$ = LIST$ -> LX_LIST.HEAD$;
      813    14155
      814    14156             %INIT_LX_LIST (@POINTER = "ADDR(QUAL_ID)");
      815    14166
      816    14167    2        ADDR(ITEM) -> LX_ITEM = FILE$ -> LX_ITEM;
      817    14168
      818    14169             %ADD_LX_ITEM_TO_LIST_HEAD (@FROM$ = "ADDR(ITEM)",
      819    14170                                        @LIST$ = "ADDR(QUAL_ID)");
      820    14179
      821    14180    2        CALL Z8CO$QUALIFY_VARIABLE (ADDR(QUAL_ID), ST$$)
      822    14181    2          WHENALTRETURN
      823    14182    3            DO;
      824    14183    3              RETURN;
      825    14184    3            END;
      826    14185
      827    14186    3        DO CASE (ST$$ -> ST.ID);
      828    14187    3          CASE (
      829    14188                     %SET_OF_FILE_DESCRIPTIONS;
      830    14193    3               );
      831    14194                 /* A OK */
      832    14195
      833    14196    3          CASE (ELSE);
      834    14197    3            CALL DN_BLOCK (LIST$, COUNT);
PL6.E3A0      #005=Z8DQ$BLOCK File=Z8DQ.:Z8A6TSI                                 SAT 08/09/97 11:24 Page:132
      835    14198    3            RETURN;
      836    14199
      837    14200    3        END; /* CASE */
      838    14201
      839    14202    2        ST$$ -> SCALAR.R = %START_BLK;
      840    14203
      841    14204             %GET_LTS (@ID     = %FILE_LTS,
      842    14205                       @ST$    = ST$$,
      843    14206                       @RETURN$ = LTS$$);
      844    14249
      845    14250    2        IF ST$$ -> FD.B.EXTERNAL THEN
      846    14251    3          DO;
      847    14252                 %CONDITIONAL_ERROR (@LX_ITEM$ = FILE$,
      848    14253                                     @ERROR#   = %E$EXTERNAL_AND_BLOCK,
      849    14254                                     @LINE     = FILE$ -> LX_ITEM.LINE,
      850    14255                                     @COLUMN   = FILE$ -> LX_ITEM.COLUMN);
      851    14285    3            RETURN;
      852    14286    3          END;
      853    14287
      854    14288    2        CALL Z8DQ$RESET_COUNT (ST$$, COUNT)
      855    14289    2          WHENALTRETURN
      856    14290    3            DO;
      857    14291    3              RETURN;
      858    14292    3            END;
      859    14293
      860    14294    2        CALL Z8DQ$RESET_COUNT (LTS$$ -> FILE_LTS.FAB$, COUNT)
      861    14295    2          WHENALTRETURN
      862    14296    3            DO;
      863    14297    3              RETURN;
      864    14298    3            END;
      865    14299
      866    14300    2        LTS$$ -> FILE_LTS.B.BLOCK = TRUE;
      867    14301
      868    14302    2   END FILE_BLOCK;
      869    14303        %EJECT;
PL6.E3A0      #005=Z8DQ$BLOCK File=Z8DQ.:Z8A6TSI                                 SAT 08/09/97 11:24 Page:133
      870    14304        /*============*/
      871    14305    1     WORK_STORAGE: PROC (ST$$, ITEM$) ALTRET;
      872    14306        /*============*/
      873    14307
      874    14308    2        DCL ST$$          PTR;
      875    14309    2        DCL ITEM$         PTR;
      876    14310    2        DCL QLT$$         PTR;
      877    14311
      878    14312
      879    14313    2        QLT$$ = ST$$ -> VARIABLE.QLT$;
      880    14314
      881    14315    3        DO WHILE (QLT$$ ~= ADDR(NIL));
      882    14316    3          IF QLT$$ -> QLT.ST$ -> ST.ID = %FD
      883    14317    3          OR QLT$$ -> QLT.ST$ -> ST.ID = %SD
      884    14318    3          OR QLT$$ -> QLT.ST$ -> ST.ID = %RD
      885    14319    3          OR QLT$$ -> QLT.ST$ -> ST.ID = %CD
      886    14320    3          OR QLT$$ -> QLT.ST$ -> VARIABLE.B.LINKAGE THEN
      887    14321    4            DO;
      888    14322                   %CONDITIONAL_ERROR (@LX_ITEM$ = ITEM$,
      889    14323                                       @ERROR#   = %E$MUST_BE_IN_WORK_STORAGE,
      890    14324                                       @LINE     = ITEM$ -> LX_ITEM.LINE,
      891    14325                                       @COLUMN   = ITEM$ -> LX_ITEM.COLUMN);
      892    14355    4              ALTRETURN;
      893    14356    4            END;
      894    14357
      895    14358    3          QLT$$ = QLT$$ -> QLT.FATHER;
      896    14359    3        END; /* WHILE */
      897    14360
      898    14361    2        RETURN;
      899    14362
      900    14363    2   END WORK_STORAGE;
      901    14364        %EJECT;
PL6.E3A0      #005=Z8DQ$BLOCK File=Z8DQ.:Z8A6TSI                                 SAT 08/09/97 11:24 Page:134
      902    14365        /*                     MAIN BODY                    */
      903    14366
      904    14367    1        P$ = O1COM.BLOCK$ -> LX_LIST.HEAD$;
      905    14368
      906    14369    2        DO WHILE (P$ ~= ADDR(NIL));
      907    14370    2          I$ = P$ -> LX_LIST.HEAD$;
      908    14371
      909    14372    2          DNT$$ = I$ -> LX_TERMINAL.DNT$;
      910    14373
      911    14374    3          DO CASE (DNT$$ -> DNT.TEXT.LENGTH);
      912    14375
      913    14376    3            CASE (1);
      914    14377    3              BLOCK_TEXT = %BLOCK_TEXT;
      915    14378    3              SUBSTR (BLOCK_TEXT, SIZEC(BLOCK_TEXT) - 2, 1) = '0';
      916    14379    3              SUBSTR (BLOCK_TEXT, SIZEC(BLOCK_TEXT) - 1, 1) =
      917    14380    3                      DNT$$ -> DNT.TEXT.NAME;
      918    14381
      919    14382    3            CASE (2);
      920    14383    3              BLOCK_TEXT = %BLOCK_TEXT;
      921    14384    3              SUBSTR (BLOCK_TEXT, SIZEC(BLOCK_TEXT) - 2) = DNT$$ -> DNT.TEXT.NAME;
      922    14385
      923    14386    3            CASE (ELSE);
      924    14387                   %CONDITIONAL_ERROR (@LX_ITEM$ = I$,
      925    14388                                       @ERROR#   = %E$MUST_BE_2_CHAR_LONG,
      926    14389                                       @LINE     = I$ -> LX_ITEM.LINE,
      927    14390                                       @COLUMN   = I$ -> LX_ITEM.COLUMN);
      928    14420
      929    14421    3              BLOCK_TEXT = %BLOCK_TEXT;
      930    14422    3              SUBSTR (BLOCK_TEXT, SIZEC(BLOCK_TEXT) - 2) =
      931    14423    3                      SUBSTR (DNT$$ -> DNT.TEXT.NAME, 0, 2);
      932    14424
      933    14425    3          END; /* Case */
      934    14426
      935    14427    2          LEX_SYMBOL.SIZE = %BLOCK_TEXT_LENGTH;
      936    14428    2          SUBSTR (LEX_SYMBOL.SYMBOL,
      937    14429    2                  0,
      938    14430    2                  %BLOCK_TEXT_LENGTH) = BLOCK_TEXT;
PL6.E3A0      #005=Z8DQ$BLOCK File=Z8DQ.:Z8A6TSI                                 SAT 08/09/97 11:24 Page:135
      939    14431
      940    14432    2          CALL Z8AH$SEARCH_;
      941    14433
      942    14434    2          BLK$ = COMCOM.BLOCK$;
      943    14435
      944    14436    3          DO WHILE (BLK$ ~= ADDR(NIL));
      945    14437    3            IF BLK$ -> BLOCK.DNT$ = DNT$ THEN
      946    14438    3              EXIT;
      947    14439    3            BLK$ = BLK$ -> BLOCK.NEXT;
      948    14440    3          END;   /* WHILE */
      949    14441
      950    14442    2          IF BLK$ ~= ADDR(NIL) THEN
      951    14443    2            BLK$ -> BLOCK.B.REDEFINED = TRUE;
      952    14444    2          ELSE
      953    14445                 %NEW_BLOCK (@ST$ = BLK$,
      954    14446                             @DNT$ = DNT$);
      955    14523
      956    14524    2          COUNT = BLK$ -> BLOCK.COUNT;
      957    14525
      958    14526    2          N$ = P$ -> LX_LIST.TAIL$;
      959    14527
      960    14528    2          IF N$ -> LX_LIST.COUNT = 2 THEN
      961    14529    2            CALL DN_BLOCK (N$, COUNT);
      962    14530    2          ELSE
      963    14531    2            CALL FILE_BLOCK (N$, COUNT);
      964    14532
      965    14533    2          P$ = P$ -> LX_LIST.LINK;
      966    14534    2        END; /* While */
      967    14535
      968    14536    1        CALL Z8ED$DISPOSE_ABSSYN_TREE (O1COM.BLOCK$);
      969    14537
      970    14538    1   END Z8DQ$BLOCK;
      971    14539        %EOD;

PL6.E3A0      #005=Z8DQ$BLOCK File=Z8DQ.:Z8A6TSI                                 SAT 08/09/97 11:24 Page:136
--  Include file information  --

   Z8E_NEW_ILL.:Z8A6TOU  is referenced.
   Z8E_MACROS.:Z8A6TOU  cannot be made into a system file and is referenced.
   Z8E_ABSSYN.:Z8A6TOU  cannot be made into a system file and is referenced.
   Z8E_O1COM.:Z8A6TOU  cannot be made into a system file and is referenced.
   Z8A_LEX_SYMB.:Z8A6TOU  cannot be made into a system file and is referenced.
   Z8E_STACKS.:Z8A6TOU  cannot be made into a system file and is referenced.
   Z8A_ERR_NUMS.:Z8A6TOU  is referenced.
   Z8A_DNT.:Z8A6TOU  cannot be made into a system file and is referenced.
   Z8A_LTS.:Z8A6TOU  cannot be made into a system file and is referenced.
   Z8A_QLT.:Z8A6TOU  cannot be made into a system file and is referenced.
   Z8A_ST.:Z8A6TOU  cannot be made into a system file and is referenced.
   Z8A_COMCOM.:Z8A6TOU  cannot be made into a system file and is referenced.
   X8A_COM_MACS.:X8A6TOU  is referenced.
   Z8A_NAMES.:Z8A6TOU  is referenced.
   Z8A_SUPP_MAC.:Z8A6TOU  is referenced.
   Z8A_DEFC.:Z8A6TOU  cannot be made into a system file and is referenced.
      No diagnostics issued in procedure Z8DQ$BLOCK.

   Procedure Z8DQ$BLOCK requires 598 words for executable code.
   Procedure Z8DQ$BLOCK requires 70 words of local(AUTO) storage.

PL6.E3A0      #005=Z8DQ$BLOCK File=Z8DQ.:Z8A6TSI                                 SAT 08/09/97 11:24 Page:137

 Object Unit name= Z8DQ$BLOCK                                 File name= Z8DQ.:Z8A6TOU
 UTS= AUG 09 '97 11:24:59.00 SAT                              Compiler= PL-6/E31         Sev=      00
 SharedLib= :SHARED_SYSTEM                                    Alt SharedLib=


    ****  Control sections  ****

 Sect   Type Bound  Init  Size OctSiz  Section name(segment info)
    0  LblCom even  none     1      1  ITERATION
    1  LblCom even  none     1      1  ST$
    2  LblCom even  none     5      5  ST_
    3  LblCom even  none     1      1  QLT$
    4  LblCom even  none     1      1  PREV_01_QLT$
    5  LblCom even  none     5      5  QLT_
    6  LblCom even  none     1      1  LTS$
    7  LblCom even  none     5      5  LTS_
    8  LblCom even  none     1      1  DNT$
    9  LblCom even  none     5      5  DNT_
   10  LblCom even  none     1      1  DNT_BUCKET_NUMBER
   11  LblCom even  none     1      1  DNT_OF_1$
   12  LblCom even  none    90    132  LEX_SYMBOL
   13  LblCom even  none     1      1  CURRENT_LEX_SYMBOL$
   14  LblCom even  none    90    132  TEMP_LEX_SYMBOL
   15  LblCom even  none    90    132  TEMP_LEX_SYMBOL2
   16  LblCom even  none     8     10  TEMP_LX_NODE
   17  RoData even  UTS      1      1  Z8DQ$BLOCK
   18   Proc  even  none   598   1126  Z8DQ$BLOCK
   19  RoData even  none    18     22  Z8DQ$BLOCK

    ****  Entry defs  ****

                              Check   Calling
                             calling  sequence
  Sect OctLoc Primary Altret sequence   type   Parms  Name
    18      0   yes            yes      Std        0  Z8DQ$BLOCK
PL6.E3A0      #005=Z8DQ$BLOCK File=Z8DQ.:Z8A6TSI                                 SAT 08/09/97 11:24 Page:138

  ****  Entry refs  ****

         Check        Calling
        calling       sequence
Altret sequence SRef   type   Args  Name
         yes           Std      12 Z8AE$ERROR
         yes           Std       0 Z8AH$SEARCH_
         yes           Std       1 Z8AR$RESERVER
         yes           Std       1 Z8ED$DISPOSE_ABSSYN_TREE
 yes     yes           Std       2 Z8DQ$RESET_COUNT
 yes     yes           Std       2 Z8CO$QUALIFY_VARIABLE
                       nStd      0 X66_AUTO_0
                       nStd      0 X66_ARET

  ****  Data refs  ****

  Flags:  r = read only, s = secondary
Flgs Name                             Flgs Name                             Flgs Name
     COMCOM                           r    LTS_STEP                              O1COM
     HIER_STK_PTR                          HIER_STK                              PAGE_FORMAT
     REP_STK_PTR                           REP_STK

  ****  Segment refs  ****

  Flags:  r = read only, s = secondary
Flgs Name                             Flgs Name                             Flgs Name
     NULLSID                               ISSID
PL6.E3A0      #005=Z8DQ$BLOCK File=Z8DQ.:Z8A6TSI                                 SAT 08/09/97 11:24 Page:139


      616        1        /*T***********************************************************/
      617        2        /*T*                                                         */
      618        3        /*T* Copyright (c) Bull HN Information Systems Inc., 1997    */
      619        4        /*T*                                                         */
      620        5        /*T***********************************************************/
      621        6        /*==========*/
      622        7          Z8DQ$BLOCK: PROC ;

      7 18 000000   000000 700200 xent  Z8DQ$BLOCK   TSX0  ! X66_AUTO_0
        18 000001   000106 000000                    ZERO    70,0
        18 000002   000641 710000 18                 TRA     s:14367

      623        8        /*==========*/
      624        9
      625       10             %EQU PHASE = 1;
      626       11                                                 /* COBOL74 compatible name */
      627       12             %EQU BLOCK_TEXT = 'BLCK';                              /*#32704*/
      628       13             %EQU BLOCK_TEXT_LENGTH = 6;
      629       14
      630       15             %INCLUDE Z8A_DEFC;
      631       83             %INCLUDE Z8A_SUPP_MAC;
      632     2483             %INCLUDE Z8A_COMCOM;
      633     3133             %INCLUDE Z8A_ST;
      634     6792             %INCLUDE Z8A_QLT;
      635     6898             %INCLUDE Z8A_LTS;
      636     8975             %INCLUDE Z8A_DNT;
      637     9196             %INCLUDE Z8A_ERR_NUMS;
      638     9960
      639     9961             %INCLUDE Z8E_STACKS;
      640    12227             %INCLUDE Z8E_O1COM;
      641    12988             %INCLUDE Z8E_ABSSYN;
      642    13194             %INCLUDE Z8E_MACROS;
      643    13869
      644    13870    1        DCL Z8AE$ERROR    ENTRY(12);
      645    13871    1        DCL Z8DQ$RESET_COUNT ENTRY(2) ALTRET;
      646    13872    1        DCL Z8ED$DISPOSE_ABSSYN_TREE ENTRY(1);
PL6.E3A0      #005=Z8DQ$BLOCK File=Z8DQ.:Z8A6TSI                                 SAT 08/09/97 11:24 Page:140
      647    13873    1        DCL Z8EC$INTERNAL_STRING_REP ENTRY(2);
      648    13874    1        DCL Z8CO$QUALIFY_VARIABLE ENTRY(2) ALTRET;
      649    13875    1        DCL Z8AH$SEARCH_  ENTRY;
      650    13876
      651    13877    1        DCL P$            PTR;
      652    13878    1        DCL DNT$$         PTR;
      653    13879    1        DCL N$            PTR;
      654    13880    1        DCL I$            PTR;
      655    13881    1        DCL BLOCK_TEXT    CHAR (6);
      656    13882    1        DCL COUNT         SBIN;
      657    13883    1        DCL BLK$          PTR;
      658    13884
      659    13885
      660    13886        /*========*/
      661    13887    1     DN_BLOCK: PROC (LIST$, COUNT);

  13887 18 000003   200042 741300       DN_BLOCK     STX1  ! ITEM+8,,AUTO
        18 000004   000147 710000 18                 TRA     s:14005

      662    13888        /*========*/
      663    13889
      664    13890    2        DCL LIST$         PTR;
      665    13891    2        DCL COUNT         SBIN;
      666    13892
      667    13893    2        DCL LAST$         PTR;
      668    13894    2        DCL FIRST$        PTR;
      669    13895    2        DCL L_ST$         PTR;
      670    13896    2        DCL F_ST$         PTR;
      671    13897    2        DCL P$            PTR;
      672    13898
      673    13899             /*===============*/
      674    13900    2          DN_BLOCK_CHECKS : PROC (ITEM$, ST$$) ALTRET;

  13900 18 000005   200052 741300       DN_BLOCK_CH* STX1  ! P$+1,,AUTO

      675    13901             /*===============*/
      676    13902
PL6.E3A0      #005=Z8DQ$BLOCK File=Z8DQ.:Z8A6TSI                                 SAT 08/09/97 11:24 Page:141
      677    13903    3              DCL ITEM$   PTR;
      678    13904    3              DCL ST$$    PTR;
      679    13905
      680    13906                   %DCL_AUTO_LX_ITEM (@NAME = QUAL_ID);
      681    13910                   %DCL_AUTO_LX_ITEM (@NAME = ITEM);
      682    13914
      683    13915
      684    13916
      685    13917                   %INIT_LX_LIST (@POINTER = "ADDR(QUAL_ID)");

  13919 18 000006   000002 220003                    LDX0    2,DU
        18 000007   200056 740100                    STX0    QUAL_ID,,AUTO

  13920 18 000010   000000 222003                    LDX2    0,DU
        18 000011   200056 442100                    SXL2    QUAL_ID,,AUTO

  13921 18 000012   000000 236000 19                 LDQ     0
        18 000013   200057 756100                    STQ     QUAL_ID+1,,AUTO

  13922 18 000014   200062 756100                    STQ     QUAL_ID+4,,AUTO

  13923 18 000015   200065 756100                    STQ     QUAL_ID+7,,AUTO

  13924 18 000016   200060 450100                    STZ     QUAL_ID+2,,AUTO

      686    13927
      687    13928    3              ADDR(ITEM) -> LX_ITEM = ITEM$ -> LX_ITEM;

  13928 18 000017   200053 470500                    LDP0    @ITEM$,,AUTO
        18 000020   000000 471500                    LDP1    0,,PR0
        18 000021   000100 100500                    MLR     fill='000'O
        18 000022   100000 000040                    ADSC9   0,,PR1                   cn=0,n=32
        18 000023   200066 000040                    ADSC9   ITEM,,AUTO               cn=0,n=32

      688    13929
      689    13930                   %ADD_LX_ITEM_TO_LIST_HEAD (@FROM$ = "ADDR(ITEM)",
      690    13931                                              @LIST$ = "ADDR(QUAL_ID)");
PL6.E3A0      #005=Z8DQ$BLOCK File=Z8DQ.:Z8A6TSI                                 SAT 08/09/97 11:24 Page:142

  13933 18 000024   200075 756100                    STQ     ITEM+7,,AUTO

  13934 18 000025   200066 631500                    EPPR1   ITEM,,AUTO
        18 000026   200062 451500                    STP1    QUAL_ID+4,,AUTO

  13935 18 000027   200060 235100                    LDA     QUAL_ID+2,,AUTO
        18 000030   000033 601000 18                 TNZ     s:13937

  13936 18 000031   200066 633500                    EPPR3   ITEM,,AUTO
        18 000032   200057 453500                    STP3    QUAL_ID+1,,AUTO

  13937 18 000033   200060 054100                    AOS     QUAL_ID+2,,AUTO

      691    13940
      692    13941    3              CALL Z8CO$QUALIFY_VARIABLE (ADDR(QUAL_ID), ST$$)

  13941 18 000034   200056 633500                    EPPR3   QUAL_ID,,AUTO
        18 000035   200102 453500                    STP3    QLT$$+1,,AUTO
        18 000036   200054 236100                    LDQ     @ST$$,,AUTO
        18 000037   200105 756100                    STQ     QLT$$+4,,AUTO
        18 000040   200102 634500                    EPPR4   QLT$$+1,,AUTO
        18 000041   200104 454500                    STP4    QLT$$+3,,AUTO
        18 000042   200104 630500                    EPPR0   QLT$$+3,,AUTO
        18 000043   000001 631400 19                 EPPR1   1
        18 000044   000000 701000 xent               TSX1    Z8CO$QUALIFY_VARIABLE
        18 000045   000047 702000 18                 TSX2    s:13944
        18 000046   000051 710000 18                 TRA     s:13947

      693    13942    3                WHENALTRETURN
      694    13943    4                  DO;

      695    13944    4                    ALTRETURN;

  13944 18 000047   200052 221300                    LDX1  ! P$+1,,AUTO
        18 000050   000000 702211                    TSX2  ! 0,X1

PL6.E3A0      #005=Z8DQ$BLOCK File=Z8DQ.:Z8A6TSI                                 SAT 08/09/97 11:24 Page:143
      696    13945    4                  END;
      697    13946
      698    13947    3              IF ST$$ -> ST.ID ~= %SCALAR AND ST$$ -> ST.ID ~= %ARRAY

  13947 18 000051   200054 470500                    LDP0    @ST$$,,AUTO
        18 000052   000000 471500                    LDP1    0,,PR0
        18 000053   100000 220100                    LDX0    0,,PR1
        18 000054   000766 100003                    CMPX0   502,DU
        18 000055   000100 600000 18                 TZE     s:13955
        18 000056   000765 100003                    CMPX0   501,DU
        18 000057   000100 600000 18                 TZE     s:13955
        18 000060   000764 100003                    CMPX0   500,DU
        18 000061   000100 600000 18                 TZE     s:13955

      699    13948    4                  AND ST$$ -> ST.ID ~= %CONDITION THEN DO;

      700    13949    4                CALL Z8AE$ERROR (%E$MUST_BE_IN_WORK_STORAGE,

  13949 18 000062   200053 473500                    LDP3    @ITEM$,,AUTO
        18 000063   300000 474500                    LDP4    0,,PR3
        18 000064   400006 635500                    EPPR5   6,,PR4
        18 000065   200104 455500                    STP5    QLT$$+3,,AUTO
        18 000066   400005 631500                    EPPR1   5,,PR4
        18 000067   200103 451500                    STP1    QLT$$+2,,AUTO
        18 000070   000004 236000 19                 LDQ     4
        18 000071   200102 756100                    STQ     QLT$$+1,,AUTO
        18 000072   200102 630500                    EPPR0   QLT$$+1,,AUTO
        18 000073   000002 631400 19                 EPPR1   2
        18 000074   000000 701000 xent               TSX1    Z8AE$ERROR
        18 000075   000000 011000                    NOP     0

      701    13950    4                                 ITEM$ -> LX_ITEM.LINE,
      702    13951    4                                 ITEM$ -> LX_ITEM.COLUMN);
      703    13952    4                ALTRETURN;

  13952 18 000076   200052 221300                    LDX1  ! P$+1,,AUTO
        18 000077   000000 702211                    TSX2  ! 0,X1
PL6.E3A0      #005=Z8DQ$BLOCK File=Z8DQ.:Z8A6TSI                                 SAT 08/09/97 11:24 Page:144

      704    13953    4              END;
      705    13954
      706    13955    3              IF ST$$ -> SCALAR.QLT$ -> QLT.LEVEL_NO ~= 1

  13955 18 000100   100007 473500                    LDP3    7,,PR1
        18 000101   300000 236100                    LDQ     0,,PR3
        18 000102   000777 376007                    ANQ     511,DL
        18 000103   000001 116007                    CMPQ    1,DL
        18 000104   000134 600000 18                 TZE     s:13994
        18 000105   000115 116007                    CMPQ    77,DL
        18 000106   000134 600000 18                 TZE     s:13994

      707    13956    3              AND ST$$ -> SCALAR.QLT$ -> QLT.LEVEL_NO ~= 77 THEN
      708    13957    4                DO;

      709    13958                       %CONDITIONAL_ERROR (@LX_ITEM$ = ITEM$,
      710    13959                                           @ERROR#   = %E$LEVEL_MUST_BE_01_OR_77,
      711    13960                                           @LINE     = ITEM$ -> LX_ITEM.LINE,
      712    13961                                           @COLUMN   = ITEM$ -> LX_ITEM.COLUMN);

  13971 18 000107   200053 474500                    LDP4    @ITEM$,,AUTO
        18 000110   400000 475500                    LDP5    0,,PR4
        18 000111   500000 236100                    LDQ     0,,PR5
        18 000112   400000 316007                    CANQ    -131072,DL
        18 000113   000132 601000 18                 TNZ     s:13991

  13973 18 000114   500006 636500                    EPPR6   6,,PR5
        18 000115   200104 456500                    STP6    QLT$$+3,,AUTO
        18 000116   500005 631500                    EPPR1   5,,PR5
        18 000117   200103 451500                    STP1    QLT$$+2,,AUTO
        18 000120   000006 236000 19                 LDQ     6
        18 000121   200102 756100                    STQ     QLT$$+1,,AUTO
        18 000122   200102 630500                    EPPR0   QLT$$+1,,AUTO
        18 000123   000002 631400 19                 EPPR1   2
        18 000124   000000 701000 xent               TSX1    Z8AE$ERROR
        18 000125   000000 011000                    NOP     0
PL6.E3A0      #005=Z8DQ$BLOCK File=Z8DQ.:Z8A6TSI                                 SAT 08/09/97 11:24 Page:145

  13982 18 000126   200053 470500                    LDP0    @ITEM$,,AUTO
        18 000127   000000 471500                    LDP1    0,,PR0
        18 000130   400000 236007                    LDQ     -131072,DL
        18 000131   100000 256100                    ORSQ    0,,PR1

      713    13991    4                  ALTRETURN;

  13991 18 000132   200052 221300                    LDX1  ! P$+1,,AUTO
        18 000133   000000 702211                    TSX2  ! 0,X1

      714    13992    4                END;
      715    13993
      716    13994    3              CALL WORK_STORAGE (ST$$, ITEM$)

  13994 18 000134   200053 236100                    LDQ     @ITEM$,,AUTO
        18 000135   200100 756100                    STQ     @ST$$+1,,AUTO
        18 000136   200054 236100                    LDQ     @ST$$,,AUTO
        18 000137   200077 756100                    STQ     ITEM+9,,AUTO
        18 000140   000562 701000 18                 TSX1    WORK_STORAGE
        18 000141   000143 702000 18                 TSX2    s:13997
        18 000142   000145 710000 18                 TRA     s:14001

      717    13995    3                WHENALTRETURN
      718    13996    4                  DO;

      719    13997    4                    ALTRETURN;

  13997 18 000143   200052 221300                    LDX1  ! P$+1,,AUTO
        18 000144   000000 702211                    TSX2  ! 0,X1

      720    13998    4                  END;
      721    13999
      722    14000
      723    14001    3         END DN_BLOCK_CHECKS;

  14001 18 000145   200052 221300                    LDX1  ! P$+1,,AUTO
PL6.E3A0      #005=Z8DQ$BLOCK File=Z8DQ.:Z8A6TSI                                 SAT 08/09/97 11:24 Page:146
        18 000146   000001 702211                    TSX2  ! 1,X1

      724    14002              %EJECT;
PL6.E3A0      #005=Z8DQ$BLOCK File=Z8DQ.:Z8A6TSI                                 SAT 08/09/97 11:24 Page:147
      725    14003
      726    14004
      727    14005    2        IF LIST$ -> LX_LIST.COUNT = 1 THEN

  14005 18 000147   200043 470500                    LDP0    @LIST$,,AUTO
        18 000150   000000 471500                    LDP1    0,,PR0
        18 000151   100002 235100                    LDA     2,,PR1
        18 000152   000001 115007                    CMPA    1,DL
        18 000153   000174 601000 18                 TNZ     s:14018

      728    14006    3          DO;

      729    14007    3            CALL DN_BLOCK_CHECKS (LIST$ -> LX_LIST.HEAD$, F_ST$)

  14007 18 000154   200050 633500                    EPPR3   F_ST$,,AUTO
        18 000155   200054 453500                    STP3    @ITEM$+1,,AUTO
        18 000156   100004 634500                    EPPR4   4,,PR1
        18 000157   200053 454500                    STP4    P$+2,,AUTO
        18 000160   000005 701000 18                 TSX1    DN_BLOCK_CHECKS
        18 000161   000163 702000 18                 TSX2    s:14010
        18 000162   000165 710000 18                 TRA     s:14013

      730    14008    3              WHENALTRETURN
      731    14009    4                DO;

      732    14010    4                  RETURN;

  14010 18 000163   200042 221300                    LDX1  ! ITEM+8,,AUTO
        18 000164   000001 702211                    TSX2  ! 1,X1

      733    14011    4                END;
      734    14012
      735    14013    3            FIRST$ = LIST$ -> LX_LIST.HEAD$;

  14013 18 000165   200043 470500                    LDP0    @LIST$,,AUTO
        18 000166   000000 471500                    LDP1    0,,PR0
        18 000167   100004 236100                    LDQ     4,,PR1
PL6.E3A0      #005=Z8DQ$BLOCK File=Z8DQ.:Z8A6TSI                                 SAT 08/09/97 11:24 Page:148
        18 000170   200046 756100                    STQ     FIRST$,,AUTO

      736    14014    3            L_ST$ = ADDR(NIL);

  14014 18 000171   000000 236000 19                 LDQ     0
        18 000172   200047 756100                    STQ     L_ST$,,AUTO

      737    14015    3          END;

  14015 18 000173   000275 710000 18                 TRA     s:14083

      738    14016    2        ELSE
      739    14017    3          DO;

      740    14018    3            CALL DN_BLOCK_CHECKS (LIST$ -> LX_LIST.HEAD$, F_ST$)

  14018 18 000174   200050 633500                    EPPR3   F_ST$,,AUTO
        18 000175   200054 453500                    STP3    @ITEM$+1,,AUTO
        18 000176   100004 634500                    EPPR4   4,,PR1
        18 000177   200053 454500                    STP4    P$+2,,AUTO
        18 000200   000005 701000 18                 TSX1    DN_BLOCK_CHECKS
        18 000201   000203 702000 18                 TSX2    s:14021
        18 000202   000205 710000 18                 TRA     s:14024

      741    14019    3              WHENALTRETURN
      742    14020    4                DO;

      743    14021    4                  RETURN;

  14021 18 000203   200042 221300                    LDX1  ! ITEM+8,,AUTO
        18 000204   000001 702211                    TSX2  ! 1,X1

      744    14022    4                END;
      745    14023
      746    14024    3            CALL DN_BLOCK_CHECKS (LIST$ -> LX_LIST.TAIL$, L_ST$)

  14024 18 000205   200043 470500                    LDP0    @LIST$,,AUTO
PL6.E3A0      #005=Z8DQ$BLOCK File=Z8DQ.:Z8A6TSI                                 SAT 08/09/97 11:24 Page:149
        18 000206   000000 471500                    LDP1    0,,PR0
        18 000207   200047 633500                    EPPR3   L_ST$,,AUTO
        18 000210   200054 453500                    STP3    @ITEM$+1,,AUTO
        18 000211   100001 634500                    EPPR4   1,,PR1
        18 000212   200053 454500                    STP4    P$+2,,AUTO
        18 000213   000005 701000 18                 TSX1    DN_BLOCK_CHECKS
        18 000214   000216 702000 18                 TSX2    s:14027
        18 000215   000220 710000 18                 TRA     s:14030

      747    14025    3              WHENALTRETURN
      748    14026    4                DO;

      749    14027    4                  RETURN;

  14027 18 000216   200042 221300                    LDX1  ! ITEM+8,,AUTO
        18 000217   000001 702211                    TSX2  ! 1,X1

      750    14028    4                END;
      751    14029
      752    14030    3            FIRST$ = LIST$ -> LX_LIST.HEAD$;

  14030 18 000220   200043 470500                    LDP0    @LIST$,,AUTO
        18 000221   000000 471500                    LDP1    0,,PR0
        18 000222   100004 236100                    LDQ     4,,PR1
        18 000223   200046 756100                    STQ     FIRST$,,AUTO

      753    14031
      754    14032    3            P$ = F_ST$;

  14032 18 000224   200050 236100                    LDQ     F_ST$,,AUTO
        18 000225   200051 756100                    STQ     P$,,AUTO

      755    14033
      756    14034    4            DO WHILE (P$ ~= ADDR(NIL));

  14034 18 000226   000245 710000 18                 TRA     s:14042

PL6.E3A0      #005=Z8DQ$BLOCK File=Z8DQ.:Z8A6TSI                                 SAT 08/09/97 11:24 Page:150
      757    14035    4              IF P$ = L_ST$ THEN

  14035 18 000227   200051 236100                    LDQ     P$,,AUTO
        18 000230   200047 116100                    CMPQ    L_ST$,,AUTO
        18 000231   000247 600000 18                 TZE     s:14044

      758    14036    4                EXIT;
      759    14037
      760    14038    4              IF P$ -> VARIABLE.QLT$ -> QLT.BROTHER ~= ADDR(NIL) THEN

  14038 18 000232   200051 470500                    LDP0    P$,,AUTO
        18 000233   000007 471500                    LDP1    7,,PR0
        18 000234   100002 236100                    LDQ     2,,PR1
        18 000235   000000 116000 19                 CMPQ    0
        18 000236   000243 600000 18                 TZE     s:14041

      761    14039    4                P$ = P$ -> VARIABLE.QLT$ -> QLT.BROTHER -> QLT.ST$;

  14039 18 000237   100002 473500                    LDP3    2,,PR1
        18 000240   300004 236100                    LDQ     4,,PR3
        18 000241   200051 756100                    STQ     P$,,AUTO
        18 000242   000245 710000 18                 TRA     s:14042

      762    14040    4              ELSE
      763    14041    4                P$ = ADDR(NIL);

  14041 18 000243   000000 236000 19                 LDQ     0
        18 000244   200051 756100                    STQ     P$,,AUTO

      764    14042    4            END; /* While */

  14042 18 000245   000000 116000 19                 CMPQ    0
        18 000246   000227 601000 18                 TNZ     s:14035

      765    14043
      766    14044    3            IF P$ = ADDR(NIL) THEN

PL6.E3A0      #005=Z8DQ$BLOCK File=Z8DQ.:Z8A6TSI                                 SAT 08/09/97 11:24 Page:151
  14044 18 000247   000000 116000 19                 CMPQ    0
        18 000250   000275 601000 18                 TNZ     s:14083

      767    14045    4              DO;

      768    14046                     %CONDITIONAL_ERROR (@LX_ITEM$ = FIRST$,
      769    14047                                         @ERROR#   = %E$WRONG_BLOCK_ORDER,
      770    14048                                         @LINE     = FIRST$ -> LX_ITEM.LINE,
      771    14049                                         @COLUMN   = FIRST$ -> LX_ITEM.COLUMN);

  14059 18 000251   200046 470500                    LDP0    FIRST$,,AUTO
        18 000252   000000 236100                    LDQ     0,,PR0
        18 000253   400000 316007                    CANQ    -131072,DL
        18 000254   000273 601000 18                 TNZ     s:14079

  14061 18 000255   200046 236100                    LDQ     FIRST$,,AUTO
        18 000256   000006 036003                    ADLQ    6,DU
        18 000257   200104 756100                    STQ     QLT$$+3,,AUTO
        18 000260   200046 236100                    LDQ     FIRST$,,AUTO
        18 000261   000005 036003                    ADLQ    5,DU
        18 000262   000010 235000 19                 LDA     8
        18 000263   200102 757100                    STAQ    QLT$$+1,,AUTO
        18 000264   200102 630500                    EPPR0   QLT$$+1,,AUTO
        18 000265   000002 631400 19                 EPPR1   2
        18 000266   000000 701000 xent               TSX1    Z8AE$ERROR
        18 000267   000000 011000                    NOP     0

  14070 18 000270   200046 470500                    LDP0    FIRST$,,AUTO
        18 000271   400000 236007                    LDQ     -131072,DL
        18 000272   000000 256100                    ORSQ    0,,PR0

      772    14079    4                RETURN;

  14079 18 000273   200042 221300                    LDX1  ! ITEM+8,,AUTO
        18 000274   000001 702211                    TSX2  ! 1,X1

      773    14080    4              END;
PL6.E3A0      #005=Z8DQ$BLOCK File=Z8DQ.:Z8A6TSI                                 SAT 08/09/97 11:24 Page:152
      774    14081    3          END; /* IF -- LIST$ -> LX_LIST.COUNT ~= 1 */
      775    14082
      776    14083    2        P$ = F_ST$;

  14083 18 000275   200050 236100                    LDQ     F_ST$,,AUTO
        18 000276   200051 756100                    STQ     P$,,AUTO

      777    14084
      778    14085    2        F_ST$ -> SCALAR.R = %START_BLK;

  14085 18 000277   200050 470500                    LDP0    F_ST$,,AUTO
        18 000300   004000 236007                    LDQ     2048,DL
        18 000301   000000 552110                    STBQ    0,'10'O,PR0

      779    14086
      780    14087    3        DO FOREVER;

      781    14088    3          IF P$ -> SCALAR.B.EXTERNAL THEN

  14088 18 000302   200051 470500                    LDP0    P$,,AUTO
        18 000303   000003 236100                    LDQ     3,,PR0
        18 000304   000004 316003                    CANQ    4,DU
        18 000305   000330 600000 18                 TZE     s:14123

      782    14089                 %CONDITIONAL_ERROR (@LX_ITEM$ = FIRST$,
      783    14090                                     @ERROR#   = %E$EXTERNAL_AND_BLOCK,
      784    14091                                     @LINE     = FIRST$ -> LX_ITEM.LINE,
      785    14092                                     @COLUMN   = 0);

  14102 18 000306   200046 471500                    LDP1    FIRST$,,AUTO
        18 000307   100000 236100                    LDQ     0,,PR1
        18 000310   400000 316007                    CANQ    -131072,DL
        18 000311   000340 601000 18                 TNZ     s:14125

  14104 18 000312   000013 236000 19                 LDQ     11
        18 000313   200104 756100                    STQ     QLT$$+3,,AUTO
        18 000314   200046 236100                    LDQ     FIRST$,,AUTO
PL6.E3A0      #005=Z8DQ$BLOCK File=Z8DQ.:Z8A6TSI                                 SAT 08/09/97 11:24 Page:153
        18 000315   000005 036003                    ADLQ    5,DU
        18 000316   000014 235000 19                 LDA     12
        18 000317   200102 757100                    STAQ    QLT$$+1,,AUTO
        18 000320   200102 630500                    EPPR0   QLT$$+1,,AUTO
        18 000321   000002 631400 19                 EPPR1   2
        18 000322   000000 701000 xent               TSX1    Z8AE$ERROR
        18 000323   000000 011000                    NOP     0

  14113 18 000324   200046 470500                    LDP0    FIRST$,,AUTO
        18 000325   400000 236007                    LDQ     -131072,DL
        18 000326   000000 256100                    ORSQ    0,,PR0

  14120 18 000327   000340 710000 18                 TRA     s:14125

      786    14122    3          ELSE
      787    14123    3            CALL Z8DQ$RESET_COUNT (P$, COUNT);

  14123 18 000330   200044 236100                    LDQ     @COUNT,,AUTO
        18 000331   200103 756100                    STQ     QLT$$+2,,AUTO
        18 000332   200051 631500                    EPPR1   P$,,AUTO
        18 000333   200102 451500                    STP1    QLT$$+1,,AUTO
        18 000334   200102 630500                    EPPR0   QLT$$+1,,AUTO
        18 000335   000001 631400 19                 EPPR1   1
        18 000336   000000 701000 xent               TSX1    Z8DQ$RESET_COUNT
        18 000337   000000 011000                    NOP     0

      788    14124
      789    14125    3          IF P$ = L_ST$

  14125 18 000340   200051 236100                    LDQ     P$,,AUTO
        18 000341   200047 116100                    CMPQ    L_ST$,,AUTO
        18 000342   000354 600000 18                 TZE     s:14132
        18 000343   200047 236100                    LDQ     L_ST$,,AUTO
        18 000344   000000 116000 19                 CMPQ    0
        18 000345   000354 600000 18                 TZE     s:14132

      790    14126    3          OR L_ST$ = ADDR(NIL) THEN
PL6.E3A0      #005=Z8DQ$BLOCK File=Z8DQ.:Z8A6TSI                                 SAT 08/09/97 11:24 Page:154
      791    14127    3            EXIT;
      792    14128    3          ELSE
      793    14129    3            P$ = P$ -> VARIABLE.QLT$ -> QLT.BROTHER -> QLT.ST$;

  14129 18 000346   200051 470500                    LDP0    P$,,AUTO
        18 000347   000007 471500                    LDP1    7,,PR0
        18 000350   100002 473500                    LDP3    2,,PR1
        18 000351   300004 236100                    LDQ     4,,PR3
        18 000352   200051 756100                    STQ     P$,,AUTO

      794    14130    3        END; /* Until */

  14130 18 000353   000302 710000 18                 TRA     s:14088

      795    14131
      796    14132    2   END DN_BLOCK;

  14132 18 000354   200042 221300                    LDX1  ! ITEM+8,,AUTO
        18 000355   000001 702211                    TSX2  ! 1,X1

      797    14133        %EJECT;
PL6.E3A0      #005=Z8DQ$BLOCK File=Z8DQ.:Z8A6TSI                                 SAT 08/09/97 11:24 Page:155
      798    14134        /*==========*/
      799    14135    1     FILE_BLOCK: PROC (LIST$, COUNT);

  14135 18 000356   200014 741300       FILE_BLOCK   STX1  ! BLK$+2,,AUTO

      800    14136        /*==========*/
      801    14137
      802    14138    2        DCL ST$$          PTR;
      803    14139    2        DCL LTS$$         PTR;
      804    14140    2        DCL LIST$         PTR;
      805    14141    2        DCL FILE$         PTR;
      806    14142    2        DCL COUNT         SBIN;
      807    14143
      808    14144             %DCL_AUTO_LX_ITEM (@NAME = QUAL_ID);
      809    14148             %DCL_AUTO_LX_ITEM (@NAME = ITEM);
      810    14152
      811    14153
      812    14154    2        FILE$ = LIST$ -> LX_LIST.HEAD$;

  14154 18 000357   200015 470500                    LDP0    @LIST$,,AUTO
        18 000360   000000 471500                    LDP1    0,,PR0
        18 000361   100004 236100                    LDQ     4,,PR1
        18 000362   200021 756100                    STQ     FILE$,,AUTO

      813    14155
      814    14156             %INIT_LX_LIST (@POINTER = "ADDR(QUAL_ID)");

  14158 18 000363   000002 220003                    LDX0    2,DU
        18 000364   200022 740100                    STX0    QUAL_ID,,AUTO

  14159 18 000365   000000 222003                    LDX2    0,DU
        18 000366   200022 442100                    SXL2    QUAL_ID,,AUTO

  14160 18 000367   000000 236000 19                 LDQ     0
        18 000370   200023 756100                    STQ     QUAL_ID+1,,AUTO

  14161 18 000371   200026 756100                    STQ     QUAL_ID+4,,AUTO
PL6.E3A0      #005=Z8DQ$BLOCK File=Z8DQ.:Z8A6TSI                                 SAT 08/09/97 11:24 Page:156

  14162 18 000372   200031 756100                    STQ     QUAL_ID+7,,AUTO

  14163 18 000373   200024 450100                    STZ     QUAL_ID+2,,AUTO

      815    14166
      816    14167    2        ADDR(ITEM) -> LX_ITEM = FILE$ -> LX_ITEM;

  14167 18 000374   200021 471500                    LDP1    FILE$,,AUTO
        18 000375   000100 100500                    MLR     fill='000'O
        18 000376   100000 000040                    ADSC9   0,,PR1                   cn=0,n=32
        18 000377   200032 000040                    ADSC9   ITEM,,AUTO               cn=0,n=32

      817    14168
      818    14169             %ADD_LX_ITEM_TO_LIST_HEAD (@FROM$ = "ADDR(ITEM)",
      819    14170                                        @LIST$ = "ADDR(QUAL_ID)");

  14172 18 000400   200041 756100                    STQ     ITEM+7,,AUTO

  14173 18 000401   200032 633500                    EPPR3   ITEM,,AUTO
        18 000402   200026 453500                    STP3    QUAL_ID+4,,AUTO

  14174 18 000403   200024 235100                    LDA     QUAL_ID+2,,AUTO
        18 000404   000407 601000 18                 TNZ     s:14176

  14175 18 000405   200032 634500                    EPPR4   ITEM,,AUTO
        18 000406   200023 454500                    STP4    QUAL_ID+1,,AUTO

  14176 18 000407   200024 054100                    AOS     QUAL_ID+2,,AUTO

      820    14179
      821    14180    2        CALL Z8CO$QUALIFY_VARIABLE (ADDR(QUAL_ID), ST$$)

  14180 18 000410   200022 634500                    EPPR4   QUAL_ID,,AUTO
        18 000411   200102 454500                    STP4    QLT$$+1,,AUTO
        18 000412   200017 635500                    EPPR5   ST$$,,AUTO
        18 000413   200105 455500                    STP5    QLT$$+4,,AUTO
PL6.E3A0      #005=Z8DQ$BLOCK File=Z8DQ.:Z8A6TSI                                 SAT 08/09/97 11:24 Page:157
        18 000414   200102 636500                    EPPR6   QLT$$+1,,AUTO
        18 000415   200104 456500                    STP6    QLT$$+3,,AUTO
        18 000416   200104 630500                    EPPR0   QLT$$+3,,AUTO
        18 000417   000001 631400 19                 EPPR1   1
        18 000420   000000 701000 xent               TSX1    Z8CO$QUALIFY_VARIABLE
        18 000421   000423 702000 18                 TSX2    s:14183
        18 000422   000425 710000 18                 TRA     s:14186

      822    14181    2          WHENALTRETURN
      823    14182    3            DO;

      824    14183    3              RETURN;

  14183 18 000423   200014 221300                    LDX1  ! BLK$+2,,AUTO
        18 000424   000001 702211                    TSX2  ! 1,X1

      825    14184    3            END;
      826    14185
      827    14186    3        DO CASE (ST$$ -> ST.ID);

  14186 18 000425   200017 470500                    LDP0    ST$$,,AUTO
        18 000426   000000 236100                    LDQ     0,,PR0
        18 000427   000022 772000                    QRL     18
        18 000430   001002 136007                    SBLQ    514,DL
        18 000431   000004 116007                    CMPQ    4,DL
        18 000432   000434 602006 18                 TNC     s:14186+7,QL
        18 000433   000440 710000 18                 TRA     s:14197
        18 000434   000450 710000 18                 TRA     s:14202
        18 000435   000450 710000 18                 TRA     s:14202
        18 000436   000440 710000 18                 TRA     s:14197
        18 000437   000450 710000 18                 TRA     s:14202

      828    14187    3          CASE (

      829    14188                     %SET_OF_FILE_DESCRIPTIONS;
      830    14193    3               );
      831    14194                 /* A OK */
PL6.E3A0      #005=Z8DQ$BLOCK File=Z8DQ.:Z8A6TSI                                 SAT 08/09/97 11:24 Page:158
      832    14195
      833    14196    3          CASE (ELSE);

      834    14197    3            CALL DN_BLOCK (LIST$, COUNT);

  14197 18 000440   200016 236100                    LDQ     @COUNT,,AUTO
        18 000441   200044 756100                    STQ     @COUNT,,AUTO
        18 000442   200015 236100                    LDQ     @LIST$,,AUTO
        18 000443   200043 756100                    STQ     @LIST$,,AUTO
        18 000444   000003 701000 18                 TSX1    DN_BLOCK
        18 000445   000000 011000                    NOP     0

      835    14198    3            RETURN;

  14198 18 000446   200014 221300                    LDX1  ! BLK$+2,,AUTO
        18 000447   000001 702211                    TSX2  ! 1,X1

      836    14199
      837    14200    3        END; /* CASE */

      838    14201
      839    14202    2        ST$$ -> SCALAR.R = %START_BLK;

  14202 18 000450   004000 236007                    LDQ     2048,DL
        18 000451   000000 552110                    STBQ    0,'10'O,PR0

      840    14203
      841    14204             %GET_LTS (@ID     = %FILE_LTS,
      842    14205                       @ST$    = ST$$,
      843    14206                       @RETURN$ = LTS$$);

  14208 18 000452   200017 470500                    LDP0    ST$$,,AUTO
        18 000453   000005 236100                    LDQ     5,,PR0
        18 000454   000000 116000 19                 CMPQ    0
        18 000455   000465 600000 18                 TZE     s:14242
        18 000456   000005 471500                    LDP1    5,,PR0
        18 000457   100000 220100                    LDX0    0,,PR1
PL6.E3A0      #005=Z8DQ$BLOCK File=Z8DQ.:Z8A6TSI                                 SAT 08/09/97 11:24 Page:159
        18 000460   001105 100003                    CMPX0   581,DU
        18 000461   000465 601000 18                 TNZ     s:14242

  14222 18 000462   100006 236100                    LDQ     6,,PR1
        18 000463   200020 756100                    STQ     LTS$$,,AUTO

  14240 18 000464   000477 710000 18                 TRA     s:14250

  14242 18 000465   000000 116000 19                 CMPQ    0
        18 000466   000475 600000 18                 TZE     s:14246
        18 000467   000005 471500                    LDP1    5,,PR0
        18 000470   100000 220100                    LDX0    0,,PR1
        18 000471   001121 100003                    CMPX0   593,DU
        18 000472   000475 601000 18                 TNZ     s:14246

  14244 18 000473   200020 756100                    STQ     LTS$$,,AUTO
        18 000474   000477 710000 18                 TRA     s:14250

  14246 18 000475   000000 236000 19                 LDQ     0
        18 000476   200020 756100                    STQ     LTS$$,,AUTO

      844    14249
      845    14250    2        IF ST$$ -> FD.B.EXTERNAL THEN

  14250 18 000477   000003 236100                    LDQ     3,,PR0
        18 000500   000004 316003                    CANQ    4,DU
        18 000501   000526 600000 18                 TZE     s:14288

      846    14251    3          DO;

      847    14252                 %CONDITIONAL_ERROR (@LX_ITEM$ = FILE$,
      848    14253                                     @ERROR#   = %E$EXTERNAL_AND_BLOCK,
      849    14254                                     @LINE     = FILE$ -> LX_ITEM.LINE,
      850    14255                                     @COLUMN   = FILE$ -> LX_ITEM.COLUMN);

  14265 18 000502   200021 471500                    LDP1    FILE$,,AUTO
        18 000503   100000 236100                    LDQ     0,,PR1
PL6.E3A0      #005=Z8DQ$BLOCK File=Z8DQ.:Z8A6TSI                                 SAT 08/09/97 11:24 Page:160
        18 000504   400000 316007                    CANQ    -131072,DL
        18 000505   000524 601000 18                 TNZ     s:14285

  14267 18 000506   200021 236100                    LDQ     FILE$,,AUTO
        18 000507   000006 036003                    ADLQ    6,DU
        18 000510   200104 756100                    STQ     QLT$$+3,,AUTO
        18 000511   200021 236100                    LDQ     FILE$,,AUTO
        18 000512   000005 036003                    ADLQ    5,DU
        18 000513   000014 235000 19                 LDA     12
        18 000514   200102 757100                    STAQ    QLT$$+1,,AUTO
        18 000515   200102 630500                    EPPR0   QLT$$+1,,AUTO
        18 000516   000002 631400 19                 EPPR1   2
        18 000517   000000 701000 xent               TSX1    Z8AE$ERROR
        18 000520   000000 011000                    NOP     0

  14276 18 000521   200021 470500                    LDP0    FILE$,,AUTO
        18 000522   400000 236007                    LDQ     -131072,DL
        18 000523   000000 256100                    ORSQ    0,,PR0

      851    14285    3            RETURN;

  14285 18 000524   200014 221300                    LDX1  ! BLK$+2,,AUTO
        18 000525   000001 702211                    TSX2  ! 1,X1

      852    14286    3          END;
      853    14287
      854    14288    2        CALL Z8DQ$RESET_COUNT (ST$$, COUNT)

  14288 18 000526   200016 236100                    LDQ     @COUNT,,AUTO
        18 000527   200103 756100                    STQ     QLT$$+2,,AUTO
        18 000530   200017 631500                    EPPR1   ST$$,,AUTO
        18 000531   200102 451500                    STP1    QLT$$+1,,AUTO
        18 000532   200102 630500                    EPPR0   QLT$$+1,,AUTO
        18 000533   000001 631400 19                 EPPR1   1
        18 000534   000000 701000 xent               TSX1    Z8DQ$RESET_COUNT
        18 000535   000537 702000 18                 TSX2    s:14291
        18 000536   000541 710000 18                 TRA     s:14294
PL6.E3A0      #005=Z8DQ$BLOCK File=Z8DQ.:Z8A6TSI                                 SAT 08/09/97 11:24 Page:161

      855    14289    2          WHENALTRETURN
      856    14290    3            DO;

      857    14291    3              RETURN;

  14291 18 000537   200014 221300                    LDX1  ! BLK$+2,,AUTO
        18 000540   000001 702211                    TSX2  ! 1,X1

      858    14292    3            END;
      859    14293
      860    14294    2        CALL Z8DQ$RESET_COUNT (LTS$$ -> FILE_LTS.FAB$, COUNT)

  14294 18 000541   200016 236100                    LDQ     @COUNT,,AUTO
        18 000542   200103 756100                    STQ     QLT$$+2,,AUTO
        18 000543   200020 236100                    LDQ     LTS$$,,AUTO
        18 000544   000002 036003                    ADLQ    2,DU
        18 000545   200102 756100                    STQ     QLT$$+1,,AUTO
        18 000546   200102 630500                    EPPR0   QLT$$+1,,AUTO
        18 000547   000001 631400 19                 EPPR1   1
        18 000550   000000 701000 xent               TSX1    Z8DQ$RESET_COUNT
        18 000551   000553 702000 18                 TSX2    s:14297
        18 000552   000555 710000 18                 TRA     s:14300

      861    14295    2          WHENALTRETURN
      862    14296    3            DO;

      863    14297    3              RETURN;

  14297 18 000553   200014 221300                    LDX1  ! BLK$+2,,AUTO
        18 000554   000001 702211                    TSX2  ! 1,X1

      864    14298    3            END;
      865    14299
      866    14300    2        LTS$$ -> FILE_LTS.B.BLOCK = TRUE;

  14300 18 000555   200020 470500                    LDP0    LTS$$,,AUTO
PL6.E3A0      #005=Z8DQ$BLOCK File=Z8DQ.:Z8A6TSI                                 SAT 08/09/97 11:24 Page:162
        18 000556   000010 236007                    LDQ     8,DL
        18 000557   000017 256100                    ORSQ    15,,PR0

      867    14301
      868    14302    2   END FILE_BLOCK;

  14302 18 000560   200014 221300                    LDX1  ! BLK$+2,,AUTO
        18 000561   000001 702211                    TSX2  ! 1,X1

      869    14303        %EJECT;
PL6.E3A0      #005=Z8DQ$BLOCK File=Z8DQ.:Z8A6TSI                                 SAT 08/09/97 11:24 Page:163
      870    14304        /*============*/
      871    14305    1     WORK_STORAGE: PROC (ST$$, ITEM$) ALTRET;

  14305 18 000562   200076 741300       WORK_STORAGE STX1  ! ITEM+8,,AUTO

      872    14306        /*============*/
      873    14307
      874    14308    2        DCL ST$$          PTR;
      875    14309    2        DCL ITEM$         PTR;
      876    14310    2        DCL QLT$$         PTR;
      877    14311
      878    14312
      879    14313    2        QLT$$ = ST$$ -> VARIABLE.QLT$;

  14313 18 000563   200077 470500                    LDP0    @ST$$,,AUTO
        18 000564   000000 471500                    LDP1    0,,PR0
        18 000565   100007 236100                    LDQ     7,,PR1
        18 000566   200101 756100                    STQ     QLT$$,,AUTO

      880    14314
      881    14315    3        DO WHILE (QLT$$ ~= ADDR(NIL));

  14315 18 000567   000635 710000 18                 TRA     s:14359

      882    14316    3          IF QLT$$ -> QLT.ST$ -> ST.ID = %FD

  14316 18 000570   200101 470500                    LDP0    QLT$$,,AUTO
        18 000571   000004 471500                    LDP1    4,,PR0
        18 000572   100000 220100                    LDX0    0,,PR1
        18 000573   001002 100003                    CMPX0   514,DU
        18 000574   000606 600000 18                 TZE     s:14335
        18 000575   001003 100003                    CMPX0   515,DU
        18 000576   000606 600000 18                 TZE     s:14335
        18 000577   001005 100003                    CMPX0   517,DU
        18 000600   000606 600000 18                 TZE     s:14335
        18 000601   001004 100003                    CMPX0   516,DU
        18 000602   000606 600000 18                 TZE     s:14335
PL6.E3A0      #005=Z8DQ$BLOCK File=Z8DQ.:Z8A6TSI                                 SAT 08/09/97 11:24 Page:164
        18 000603   100003 236100                    LDQ     3,,PR1
        18 000604   000002 316003                    CANQ    2,DU
        18 000605   000633 600000 18                 TZE     s:14358

      883    14317    3          OR QLT$$ -> QLT.ST$ -> ST.ID = %SD
      884    14318    3          OR QLT$$ -> QLT.ST$ -> ST.ID = %RD
      885    14319    3          OR QLT$$ -> QLT.ST$ -> ST.ID = %CD
      886    14320    3          OR QLT$$ -> QLT.ST$ -> VARIABLE.B.LINKAGE THEN
      887    14321    4            DO;

      888    14322                   %CONDITIONAL_ERROR (@LX_ITEM$ = ITEM$,
      889    14323                                       @ERROR#   = %E$MUST_BE_IN_WORK_STORAGE,
      890    14324                                       @LINE     = ITEM$ -> LX_ITEM.LINE,
      891    14325                                       @COLUMN   = ITEM$ -> LX_ITEM.COLUMN);

  14335 18 000606   200100 473500                    LDP3    @ITEM$,,AUTO
        18 000607   300000 474500                    LDP4    0,,PR3
        18 000610   400000 236100                    LDQ     0,,PR4
        18 000611   400000 316007                    CANQ    -131072,DL
        18 000612   000631 601000 18                 TNZ     s:14355

  14337 18 000613   400006 635500                    EPPR5   6,,PR4
        18 000614   200104 455500                    STP5    QLT$$+3,,AUTO
        18 000615   400005 631500                    EPPR1   5,,PR4
        18 000616   200103 451500                    STP1    QLT$$+2,,AUTO
        18 000617   000004 236000 19                 LDQ     4
        18 000620   200102 756100                    STQ     QLT$$+1,,AUTO
        18 000621   200102 630500                    EPPR0   QLT$$+1,,AUTO
        18 000622   000002 631400 19                 EPPR1   2
        18 000623   000000 701000 xent               TSX1    Z8AE$ERROR
        18 000624   000000 011000                    NOP     0

  14346 18 000625   200100 470500                    LDP0    @ITEM$,,AUTO
        18 000626   000000 471500                    LDP1    0,,PR0
        18 000627   400000 236007                    LDQ     -131072,DL
        18 000630   100000 256100                    ORSQ    0,,PR1

PL6.E3A0      #005=Z8DQ$BLOCK File=Z8DQ.:Z8A6TSI                                 SAT 08/09/97 11:24 Page:165
      892    14355    4              ALTRETURN;

  14355 18 000631   200076 221300                    LDX1  ! ITEM+8,,AUTO
        18 000632   000000 702211                    TSX2  ! 0,X1

      893    14356    4            END;
      894    14357
      895    14358    3          QLT$$ = QLT$$ -> QLT.FATHER;

  14358 18 000633   000001 236100                    LDQ     1,,PR0
        18 000634   200101 756100                    STQ     QLT$$,,AUTO

      896    14359    3        END; /* WHILE */

  14359 18 000635   000000 116000 19                 CMPQ    0
        18 000636   000570 601000 18                 TNZ     s:14316

      897    14360
      898    14361    2        RETURN;

  14361 18 000637   200076 221300                    LDX1  ! ITEM+8,,AUTO
        18 000640   000001 702211                    TSX2  ! 1,X1

      899    14362
      900    14363    2   END WORK_STORAGE;
      901    14364        %EJECT;
PL6.E3A0      #005=Z8DQ$BLOCK File=Z8DQ.:Z8A6TSI                                 SAT 08/09/97 11:24 Page:166
      902    14365        /*                     MAIN BODY                    */
      903    14366
      904    14367    1        P$ = O1COM.BLOCK$ -> LX_LIST.HEAD$;

  14367 18 000641   000060 470400 xsym               LDP0    O1COM+48
        18 000642   000004 236100                    LDQ     4,,PR0
        18 000643   200003 756100                    STQ     P$,,AUTO

      905    14368
      906    14369    2        DO WHILE (P$ ~= ADDR(NIL));

  14369 18 000644   001117 710000 18                 TRA     s:14534

      907    14370    2          I$ = P$ -> LX_LIST.HEAD$;

  14370 18 000645   200003 470500                    LDP0    P$,,AUTO
        18 000646   000004 236100                    LDQ     4,,PR0
        18 000647   200006 756100                    STQ     I$,,AUTO

      908    14371
      909    14372    2          DNT$$ = I$ -> LX_TERMINAL.DNT$;

  14372 18 000650   200006 471500                    LDP1    I$,,AUTO
        18 000651   100002 236100                    LDQ     2,,PR1
        18 000652   200004 756100                    STQ     DNT$$,,AUTO

      910    14373
      911    14374    3          DO CASE (DNT$$ -> DNT.TEXT.LENGTH);

  14374 18 000653   200004 473500                    LDP3    DNT$$,,AUTO
        18 000654   300004 220100                    LDX0    4,,PR3
        18 000655   000003 100003                    CMPX0   3,DU
        18 000656   000660 602010 18                 TNC     s:14374+5,X0
        18 000657   000703 710000 18                 TRA     s:14400
        18 000660   000703 710000 18                 TRA     s:14400
        18 000661   000663 710000 18                 TRA     s:14377
        18 000662   000674 710000 18                 TRA     s:14383
PL6.E3A0      #005=Z8DQ$BLOCK File=Z8DQ.:Z8A6TSI                                 SAT 08/09/97 11:24 Page:167

      912    14375
      913    14376    3            CASE (1);

      914    14377    3              BLOCK_TEXT = %BLOCK_TEXT;

  14377 18 000663   040100 100400                    MLR     fill='040'O
        18 000664   000000 000004 17                 ADSC9   0                        cn=0,n=4
        18 000665   200007 000006                    ADSC9   BLOCK_TEXT,,AUTO         cn=0,n=6

      915    14378    3              SUBSTR (BLOCK_TEXT, SIZEC(BLOCK_TEXT) - 2, 1) = '0';

  14378 18 000666   060000 236003                    LDQ     24576,DU
        18 000667   200010 552140                    STBQ    BLOCK_TEXT+1,'40'O,AUTO

      916    14379    3              SUBSTR (BLOCK_TEXT, SIZEC(BLOCK_TEXT) - 1, 1) =

  14379 18 000670   040100 100540                    MLR     fill='040'O
        18 000671   300004 400010                    ADSC9   4,,PR3                   cn=2,n=*X0
        18 000672   200010 200001                    ADSC9   BLOCK_TEXT+1,,AUTO       cn=1,n=1
        18 000673   000733 710000 18                 TRA     s:14427

      917    14380    3                      DNT$$ -> DNT.TEXT.NAME;
      918    14381
      919    14382    3            CASE (2);

      920    14383    3              BLOCK_TEXT = %BLOCK_TEXT;

  14383 18 000674   040100 100400                    MLR     fill='040'O
        18 000675   000000 000004 17                 ADSC9   0                        cn=0,n=4
        18 000676   200007 000006                    ADSC9   BLOCK_TEXT,,AUTO         cn=0,n=6

      921    14384    3              SUBSTR (BLOCK_TEXT, SIZEC(BLOCK_TEXT) - 2) = DNT$$ -> DNT.TEXT.NAME;

  14384 18 000677   040100 100540                    MLR     fill='040'O
        18 000700   300004 400010                    ADSC9   4,,PR3                   cn=2,n=*X0
        18 000701   200010 000002                    ADSC9   BLOCK_TEXT+1,,AUTO       cn=0,n=2
PL6.E3A0      #005=Z8DQ$BLOCK File=Z8DQ.:Z8A6TSI                                 SAT 08/09/97 11:24 Page:168
        18 000702   000733 710000 18                 TRA     s:14427

      922    14385
      923    14386    3            CASE (ELSE);

      924    14387                   %CONDITIONAL_ERROR (@LX_ITEM$ = I$,
      925    14388                                       @ERROR#   = %E$MUST_BE_2_CHAR_LONG,
      926    14389                                       @LINE     = I$ -> LX_ITEM.LINE,
      927    14390                                       @COLUMN   = I$ -> LX_ITEM.COLUMN);

  14400 18 000703   100000 236100                    LDQ     0,,PR1
        18 000704   400000 316007                    CANQ    -131072,DL
        18 000705   000724 601000 18                 TNZ     s:14421

  14402 18 000706   200006 236100                    LDQ     I$,,AUTO
        18 000707   000006 036003                    ADLQ    6,DU
        18 000710   200104 756100                    STQ     QLT$$+3,,AUTO
        18 000711   200006 236100                    LDQ     I$,,AUTO
        18 000712   000005 036003                    ADLQ    5,DU
        18 000713   000016 235000 19                 LDA     14
        18 000714   200102 757100                    STAQ    QLT$$+1,,AUTO
        18 000715   200102 630500                    EPPR0   QLT$$+1,,AUTO
        18 000716   000002 631400 19                 EPPR1   2
        18 000717   000000 701000 xent               TSX1    Z8AE$ERROR
        18 000720   000000 011000                    NOP     0

  14411 18 000721   200006 470500                    LDP0    I$,,AUTO
        18 000722   400000 236007                    LDQ     -131072,DL
        18 000723   000000 256100                    ORSQ    0,,PR0

      928    14420
      929    14421    3              BLOCK_TEXT = %BLOCK_TEXT;

  14421 18 000724   040100 100400                    MLR     fill='040'O
        18 000725   000000 000004 17                 ADSC9   0                        cn=0,n=4
        18 000726   200007 000006                    ADSC9   BLOCK_TEXT,,AUTO         cn=0,n=6

PL6.E3A0      #005=Z8DQ$BLOCK File=Z8DQ.:Z8A6TSI                                 SAT 08/09/97 11:24 Page:169
      930    14422    3              SUBSTR (BLOCK_TEXT, SIZEC(BLOCK_TEXT) - 2) =

  14422 18 000727   200004 470500                    LDP0    DNT$$,,AUTO
        18 000730   000004 220100                    LDX0    4,,PR0
        18 000731   000004 721100                    LXL1    4,,PR0
        18 000732   200010 741100                    STX1    BLOCK_TEXT+1,,AUTO

      931    14423    3                      SUBSTR (DNT$$ -> DNT.TEXT.NAME, 0, 2);
      932    14424
      933    14425    3          END; /* Case */

      934    14426
      935    14427    2          LEX_SYMBOL.SIZE = %BLOCK_TEXT_LENGTH;

  14427 18 000733   000006 235007                    LDA     6,DL
        18 000734   000010 755000 12                 STA     LEX_SYMBOL+8

      936    14428    2          SUBSTR (LEX_SYMBOL.SYMBOL,

  14428 18 000735   040000 100500                    MLR     fill='040'O
        18 000736   200007 000006                    ADSC9   BLOCK_TEXT,,AUTO         cn=0,n=6
        18 000737   000011 000006 12                 ADSC9   LEX_SYMBOL+9             cn=0,n=6

      937    14429    2                  0,
      938    14430    2                  %BLOCK_TEXT_LENGTH) = BLOCK_TEXT;
      939    14431
      940    14432    2          CALL Z8AH$SEARCH_;

  14432 18 000740   000012 631400 19                 EPPR1   10
        18 000741   000000 701000 xent               TSX1    Z8AH$SEARCH_
        18 000742   000000 011000                    NOP     0

      941    14433
      942    14434    2          BLK$ = COMCOM.BLOCK$;

  14434 18 000743   000145 236000 xsym               LDQ     COMCOM+101
        18 000744   200012 756100                    STQ     BLK$,,AUTO
PL6.E3A0      #005=Z8DQ$BLOCK File=Z8DQ.:Z8A6TSI                                 SAT 08/09/97 11:24 Page:170

      943    14435
      944    14436    3          DO WHILE (BLK$ ~= ADDR(NIL));

  14436 18 000745   000754 710000 18                 TRA     s:14440

      945    14437    3            IF BLK$ -> BLOCK.DNT$ = DNT$ THEN

  14437 18 000746   200012 470500                    LDP0    BLK$,,AUTO
        18 000747   000006 236100                    LDQ     6,,PR0
        18 000750   000000 116000 8                  CMPQ    DNT$
        18 000751   000756 600000 18                 TZE     s:14442

      946    14438    3              EXIT;
      947    14439    3            BLK$ = BLK$ -> BLOCK.NEXT;

  14439 18 000752   000004 236100                    LDQ     4,,PR0
        18 000753   200012 756100                    STQ     BLK$,,AUTO

      948    14440    3          END;   /* WHILE */

  14440 18 000754   000000 116000 19                 CMPQ    0
        18 000755   000746 601000 18                 TNZ     s:14437

      949    14441
      950    14442    2          IF BLK$ ~= ADDR(NIL) THEN

  14442 18 000756   200012 236100                    LDQ     BLK$,,AUTO
        18 000757   000000 116000 19                 CMPQ    0
        18 000760   000765 600000 18                 TZE     s:14450

      951    14443    2            BLK$ -> BLOCK.B.REDEFINED = TRUE;

  14443 18 000761   200012 470500                    LDP0    BLK$,,AUTO
        18 000762   400000 236003                    LDQ     -131072,DU
        18 000763   000003 256100                    ORSQ    3,,PR0
        18 000764   001065 710000 18                 TRA     s:14524
PL6.E3A0      #005=Z8DQ$BLOCK File=Z8DQ.:Z8A6TSI                                 SAT 08/09/97 11:24 Page:171

      952    14444    2          ELSE
      953    14445                 %NEW_BLOCK (@ST$ = BLK$,
      954    14446                             @DNT$ = DNT$);

  14450 18 000765   000002 236000 2                  LDQ     ST_+2
        18 000766   000013 036007                    ADLQ    11,DL
        18 000767   000003 116000 2                  CMPQ    ST_+3
        18 000770   001001 604000 18                 TMI     s:14452

  14451 18 000771   000020 236000 19                 LDQ     16
        18 000772   200102 756100                    STQ     QLT$$+1,,AUTO
        18 000773   200102 630500                    EPPR0   QLT$$+1,,AUTO
        18 000774   200103 450500                    STP0    QLT$$+2,,AUTO
        18 000775   200103 630500                    EPPR0   QLT$$+2,,AUTO
        18 000776   000017 631400 19                 EPPR1   15
        18 000777   000000 701000 xent               TSX1    Z8AR$RESERVER
        18 001000   000000 011000                    NOP     0

  14452 18 001001   000002 236000 2                  LDQ     ST_+2
        18 001002   000022 736000                    QLS     18
        18 001003   000001 036000 2                  ADLQ    ST_+1
        18 001004   200012 756100                    STQ     BLK$,,AUTO

  14453 18 001005   000013 236007                    LDQ     11,DL
        18 001006   000002 056000 2                  ASQ     ST_+2

  14457 18 001007   000144 054000 xsym               AOS     COMCOM+100

  14458 18 001010   200012 470500                    LDP0    BLK$,,AUTO
        18 001011   000144 236000 xsym               LDQ     COMCOM+100
        18 001012   000000 552104                    STBQ    0,'04'O,PR0

  14460 18 001013   200012 236100                    LDQ     BLK$,,AUTO
        18 001014   000004 471400 xsym               LDP1    O1COM+4
        18 001015   100004 756100                    STQ     4,,PR1

PL6.E3A0      #005=Z8DQ$BLOCK File=Z8DQ.:Z8A6TSI                                 SAT 08/09/97 11:24 Page:172
  14461 18 001016   000004 756000 xsym               STQ     O1COM+4

  14466 18 001017   000774 220003                    LDX0    508,DU
        18 001020   000000 740100                    STX0    0,,PR0

  14467 18 001021   003000 236007                    LDQ     1536,DL
        18 001022   000000 552110                    STBQ    0,'10'O,PR0

  14468 18 001023   000000 221003                    LDX1    0,DU
        18 001024   000002 741100                    STX1    2,,PR0

  14469 18 001025   000133 722000 xsym               LXL2    COMCOM+91
        18 001026   000002 442100                    SXL2    2,,PR0

  14470 18 001027   000003 450100                    STZ     3,,PR0

  14471 18 001030   000000 236000 19                 LDQ     0
        18 001031   000004 756100                    STQ     4,,PR0

  14472 18 001032   000000 236000 8                  LDQ     DNT$
        18 001033   000006 756100                    STQ     6,,PR0

  14473 18 001034   000000 236000 19                 LDQ     0
        18 001035   000007 756100                    STQ     7,,PR0

  14483 18 001036   000012 756100                    STQ     10,,PR0

  14486 18 001037   000057 236000 xsym               LDQ     O1COM+47
        18 001040   000011 756100                    STQ     9,,PR0

  14487 18 001041   000057 236000 xsym               LDQ     O1COM+47
        18 001042   000000 116000 19                 CMPQ    0
        18 001043   001065 600000 18                 TZE     s:14524

  14491 18 001044   000057 471400 xsym               LDP1    O1COM+47
        18 001045   100001 473500                    LDP3    1,,PR1
        18 001046   300012 236100                    LDQ     10,,PR3
PL6.E3A0      #005=Z8DQ$BLOCK File=Z8DQ.:Z8A6TSI                                 SAT 08/09/97 11:24 Page:173
        18 001047   000000 116000 19                 CMPQ    0
        18 001050   001057 601000 18                 TNZ     s:14498

  14493 18 001051   200012 236100                    LDQ     BLK$,,AUTO
        18 001052   300011 756100                    STQ     9,,PR3

  14494 18 001053   000057 471400 xsym               LDP1    O1COM+47
        18 001054   100001 473500                    LDP3    1,,PR1
        18 001055   300012 756100                    STQ     10,,PR3

  14495 18 001056   001065 710000 18                 TRA     s:14524

  14498 18 001057   300012 474500                    LDP4    10,,PR3
        18 001060   200012 236100                    LDQ     BLK$,,AUTO
        18 001061   400012 756100                    STQ     10,,PR4

  14499 18 001062   000057 471400 xsym               LDP1    O1COM+47
        18 001063   100001 473500                    LDP3    1,,PR1
        18 001064   300012 756100                    STQ     10,,PR3

      955    14523
      956    14524    2          COUNT = BLK$ -> BLOCK.COUNT;

  14524 18 001065   000000 236100                    LDQ     0,,PR0
        18 001066   000777 376007                    ANQ     511,DL
        18 001067   200011 756100                    STQ     COUNT,,AUTO

      957    14525
      958    14526    2          N$ = P$ -> LX_LIST.TAIL$;

  14526 18 001070   200003 471500                    LDP1    P$,,AUTO
        18 001071   100001 236100                    LDQ     1,,PR1
        18 001072   200005 756100                    STQ     N$,,AUTO

      959    14527
      960    14528    2          IF N$ -> LX_LIST.COUNT = 2 THEN

PL6.E3A0      #005=Z8DQ$BLOCK File=Z8DQ.:Z8A6TSI                                 SAT 08/09/97 11:24 Page:174
  14528 18 001073   200005 473500                    LDP3    N$,,AUTO
        18 001074   300002 235100                    LDA     2,,PR3
        18 001075   000002 115007                    CMPA    2,DL
        18 001076   001106 601000 18                 TNZ     s:14531

      961    14529    2            CALL DN_BLOCK (N$, COUNT);

  14529 18 001077   200011 634500                    EPPR4   COUNT,,AUTO
        18 001100   200044 454500                    STP4    @LIST$+1,,AUTO
        18 001101   200005 635500                    EPPR5   N$,,AUTO
        18 001102   200043 455500                    STP5    ITEM+9,,AUTO
        18 001103   000003 701000 18                 TSX1    DN_BLOCK
        18 001104   000000 011000                    NOP     0
        18 001105   001114 710000 18                 TRA     s:14533

      962    14530    2          ELSE
      963    14531    2            CALL FILE_BLOCK (N$, COUNT);

  14531 18 001106   200011 634500                    EPPR4   COUNT,,AUTO
        18 001107   200016 454500                    STP4    @LIST$+1,,AUTO
        18 001110   200005 635500                    EPPR5   N$,,AUTO
        18 001111   200015 455500                    STP5    BLK$+3,,AUTO
        18 001112   000356 701000 18                 TSX1    FILE_BLOCK
        18 001113   000000 011000                    NOP     0

      964    14532
      965    14533    2          P$ = P$ -> LX_LIST.LINK;

  14533 18 001114   200003 470500                    LDP0    P$,,AUTO
        18 001115   000007 236100                    LDQ     7,,PR0
        18 001116   200003 756100                    STQ     P$,,AUTO

      966    14534    2        END; /* While */

  14534 18 001117   000000 116000 19                 CMPQ    0
        18 001120   000645 601000 18                 TNZ     s:14370

PL6.E3A0      #005=Z8DQ$BLOCK File=Z8DQ.:Z8A6TSI                                 SAT 08/09/97 11:24 Page:175
      967    14535
      968    14536    1        CALL Z8ED$DISPOSE_ABSSYN_TREE (O1COM.BLOCK$);

  14536 18 001121   000021 630400 19                 EPPR0   17
        18 001122   000017 631400 19                 EPPR1   15
        18 001123   000000 701000 xent               TSX1    Z8ED$DISPOSE_ABSSYN_TREE
        18 001124   000000 011000                    NOP     0

      969    14537
      970    14538    1   END Z8DQ$BLOCK;

  14538 18 001125   000000 702200 xent               TSX2  ! X66_ARET
      971    14539        %EOD;

PL6.E3A0      #005=Z8DQ$BLOCK File=Z8DQ.:Z8A6TSI                                 SAT 08/09/97 11:24 Page:176
--  Include file information  --

   Z8E_NEW_ILL.:Z8A6TOU  is referenced.
   Z8E_MACROS.:Z8A6TOU  cannot be made into a system file and is referenced.
   Z8E_ABSSYN.:Z8A6TOU  cannot be made into a system file and is referenced.
   Z8E_O1COM.:Z8A6TOU  cannot be made into a system file and is referenced.
   Z8A_LEX_SYMB.:Z8A6TOU  cannot be made into a system file and is referenced.
   Z8E_STACKS.:Z8A6TOU  cannot be made into a system file and is referenced.
   Z8A_ERR_NUMS.:Z8A6TOU  is referenced.
   Z8A_DNT.:Z8A6TOU  cannot be made into a system file and is referenced.
   Z8A_LTS.:Z8A6TOU  cannot be made into a system file and is referenced.
   Z8A_QLT.:Z8A6TOU  cannot be made into a system file and is referenced.
   Z8A_ST.:Z8A6TOU  cannot be made into a system file and is referenced.
   Z8A_COMCOM.:Z8A6TOU  cannot be made into a system file and is referenced.
   X8A_COM_MACS.:X8A6TOU  is referenced.
   Z8A_NAMES.:Z8A6TOU  is referenced.
   Z8A_SUPP_MAC.:Z8A6TOU  is referenced.
   Z8A_DEFC.:Z8A6TOU  cannot be made into a system file and is referenced.
      No diagnostics issued in procedure Z8DQ$BLOCK.
PL6.E3A0      #005=Z8DQ$BLOCK File=Z8DQ.:Z8A6TSI                                 SAT 08/09/97 11:24 Page:177

 **** Variables and constants ****

  ****  Section 000 LblCom ITERATION

  ****  Scalars and arrays  ****
OctLoc.c.b A Datatyp(siz) R M Lvl/name                 OctLoc.c.b A Datatyp(siz) R M Lvl/name

     0-0-0/w SBIN              1 ITERATION

  ****  Section 001 LblCom ST$

  ****  Scalars and arrays  ****
OctLoc.c.b A Datatyp(siz) R M Lvl/name                 OctLoc.c.b A Datatyp(siz) R M Lvl/name

     0-0-0/w PTR         r     1 ST$

  ****  Section 002 LblCom ST_

  ****  Scalars and arrays  ****
OctLoc.c.b A Datatyp(siz) R M Lvl/name                 OctLoc.c.b A Datatyp(siz) R M Lvl/name

     0-0-0/w STRC(180)   r     1 ST_

  ****  Section 003 LblCom QLT$

  ****  Scalars and arrays  ****
OctLoc.c.b A Datatyp(siz) R M Lvl/name                 OctLoc.c.b A Datatyp(siz) R M Lvl/name

     0-0-0/w PTR         r     1 QLT$

  ****  Section 004 LblCom PREV_01_QLT$

  ****  Scalars and arrays  ****
OctLoc.c.b A Datatyp(siz) R M Lvl/name                 OctLoc.c.b A Datatyp(siz) R M Lvl/name

     0-0-0/w PTR               1 PREV_01_QLT$

PL6.E3A0      #005=Z8DQ$BLOCK File=Z8DQ.:Z8A6TSI                                 SAT 08/09/97 11:24 Page:178
  ****  Section 005 LblCom QLT_

  ****  Scalars and arrays  ****
OctLoc.c.b A Datatyp(siz) R M Lvl/name                 OctLoc.c.b A Datatyp(siz) R M Lvl/name

     0-0-0/w STRC(180)         1 QLT_

  ****  Section 006 LblCom LTS$

  ****  Scalars and arrays  ****
OctLoc.c.b A Datatyp(siz) R M Lvl/name                 OctLoc.c.b A Datatyp(siz) R M Lvl/name

     0-0-0/w PTR               1 LONG_ITEM$                 0-0-0/w PTR         r     1 LTS$

  ****  Section 007 LblCom LTS_

  ****  Scalars and arrays  ****
OctLoc.c.b A Datatyp(siz) R M Lvl/name                 OctLoc.c.b A Datatyp(siz) R M Lvl/name

     0-0-0/w STRC(180)         1 LTS_

  ****  Section 008 LblCom DNT$

  ****  Scalars and arrays  ****
OctLoc.c.b A Datatyp(siz) R M Lvl/name                 OctLoc.c.b A Datatyp(siz) R M Lvl/name

     0-0-0/w PTR         r     1 DNT$

  ****  Section 009 LblCom DNT_

  ****  Scalars and arrays  ****
OctLoc.c.b A Datatyp(siz) R M Lvl/name                 OctLoc.c.b A Datatyp(siz) R M Lvl/name

     0-0-0/w STRC(180)         1 DNT_

  ****  Section 010 LblCom DNT_BUCKET_NUMBER

PL6.E3A0      #005=Z8DQ$BLOCK File=Z8DQ.:Z8A6TSI                                 SAT 08/09/97 11:24 Page:179
  ****  Scalars and arrays  ****
OctLoc.c.b A Datatyp(siz) R M Lvl/name                 OctLoc.c.b A Datatyp(siz) R M Lvl/name

     0-0-0/w UBIN              1 DNT_BUCKET_NUMBER

  ****  Section 011 LblCom DNT_OF_1$

  ****  Scalars and arrays  ****
OctLoc.c.b A Datatyp(siz) R M Lvl/name                 OctLoc.c.b A Datatyp(siz) R M Lvl/name

     0-0-0/w PTR               1 DNT_OF_1$

  ****  Section 012 LblCom LEX_SYMBOL

  ****  Scalars and arrays  ****
OctLoc.c.b A Datatyp(siz) R M Lvl/name                 OctLoc.c.b A Datatyp(siz) R M Lvl/name

     0-0-0/w STRC(3240)  r     1 LEX_SYMBOL                 0-0-0/w STRC(3240)        1 LEX_SYMBOL_WORDS

  ****  Section 013 LblCom CURRENT_LEX_SYMBOL$

  ****  Scalars and arrays  ****
OctLoc.c.b A Datatyp(siz) R M Lvl/name                 OctLoc.c.b A Datatyp(siz) R M Lvl/name

     0-0-0/w PTR         r     1 CURRENT_LEX_SYMBOL$

  ****  Section 014 LblCom TEMP_LEX_SYMBOL

  ****  Scalars and arrays  ****
OctLoc.c.b A Datatyp(siz) R M Lvl/name                 OctLoc.c.b A Datatyp(siz) R M Lvl/name

     0-0-0/w STRC(3240)        1 TEMP_LEX_SYMBOL

  ****  Section 015 LblCom TEMP_LEX_SYMBOL2

  ****  Scalars and arrays  ****
OctLoc.c.b A Datatyp(siz) R M Lvl/name                 OctLoc.c.b A Datatyp(siz) R M Lvl/name
PL6.E3A0      #005=Z8DQ$BLOCK File=Z8DQ.:Z8A6TSI                                 SAT 08/09/97 11:24 Page:180

     0-0-0/w STRC(3240)        1 TEMP_LEX_SYMBOL2

  ****  Section 016 LblCom TEMP_LX_NODE

  ****  Scalars and arrays  ****
OctLoc.c.b A Datatyp(siz) R M Lvl/name                 OctLoc.c.b A Datatyp(siz) R M Lvl/name

     0-0-0/d STRC(288)         1 TEMP_LX_NODE

  ****  Auto variables  ****

  ****  Scalars and arrays  ****
OctLoc.c.b A Datatyp(siz) R M Lvl/name                 OctLoc.c.b A Datatyp(siz) R M Lvl/name

    44-0-0/w PTR         r     1 @COUNT                    16-0-0/w PTR         r     1 @COUNT
    53-0-0/w PTR         r     1 @ITEM$                   100-0-0/w PTR         r     1 @ITEM$
    43-0-0/w PTR         r     1 @LIST$                    15-0-0/w PTR         r     1 @LIST$
    54-0-0/w PTR         r     1 @ST$$                     77-0-0/w PTR         r     1 @ST$$
    12-0-0/w PTR         r     1 BLK$                       7-0-0/c CHAR(6)     r     1 BLOCK_TEXT
    11-0-0/w SBIN        r     1 COUNT                     *0-0-0/w SBIN        r     1 COUNT
    *0-0-0/w SBIN        r     1 COUNT                      4-0-0/w PTR         r     1 DNT$$
    21-0-0/w PTR         r     1 FILE$                     46-0-0/w PTR         r     1 FIRST$
    50-0-0/w PTR         r     1 F_ST$                      6-0-0/w PTR         r     1 I$
    66-0-0/d STRC(288)   r     1 ITEM                      32-0-0/d STRC(288)   r     1 ITEM
    *0-0-0/w PTR         r     1 ITEM$                     *0-0-0/w PTR         r     1 ITEM$
    45-0-0/w PTR               1 LAST$                     *0-0-0/w PTR         r     1 LIST$
    *0-0-0/w PTR         r     1 LIST$                     20-0-0/w PTR         r     1 LTS$$
    47-0-0/w PTR         r     1 L_ST$                      5-0-0/w PTR         r     1 N$
     3-0-0/w PTR         r     1 P$                        51-0-0/w PTR         r     1 P$
   101-0-0/w PTR         r     1 QLT$$                     56-0-0/d STRC(288)   r     1 QUAL_ID
    22-0-0/d STRC(288)   r     1 QUAL_ID                   *0-0-0/w PTR         r     1 ST$$
    17-0-0/w PTR         r     1 ST$$                      *0-0-0/w PTR         r     1 ST$$

  ****  SYMREF variables  ****

  ****  Scalars and arrays  ****
PL6.E3A0      #005=Z8DQ$BLOCK File=Z8DQ.:Z8A6TSI                                 SAT 08/09/97 11:24 Page:181
OctLoc.c.b A Datatyp(siz) R M Lvl/name                 OctLoc.c.b A Datatyp(siz) R M Lvl/name

     0-0-0/d STRC(13248) r     1 COMCOM
     0-0-0/w STRC(180)         1 HIER_STK(0:50)
     0-0-0/w SBIN              1 HIER_STK_PTR
     0-0-0/w UBIN              1 LTS_STEP(0:37)
     0-0-0/d STRC(11580) r     1 O1COM                      0-0-0/w STRC(144)         1 PAGE_FORMAT
     0-0-0/w STRC(153)         1 REP_STK(0:50)              0-0-0/w SBIN              1 REP_STK_PTR

  ****  BASED and DCB variables  ****

  ****  Scalars and arrays  ****
OctLoc.c.b A Datatyp(siz) R M Lvl/name                 OctLoc.c.b A Datatyp(siz) R M Lvl/name

     0-0-0/w STRC(288)         1 ADD_STMT                   0-0-0/w STRC(396)         1 ALPHABET
     0-0-0/w STRC(144)         1 ALTER_LTS                  0-0-0/w STRC(3672)        1 ALT_KEY
     0-0-0/w STRC(36864)       1 ARGLIST                    0-0-0/w STRC(396)         1 ARRAY
     0-0-0/w STRC(180)         1 ARRAY_PRESET_LTS           0-0-0/w ASTR(324)   r     1 BASED_LEX_SYMBOL
     0-0-0/w STRC(360)         1 BASED_LEX_SYMBOL_WORDS
     0-0-0/w STRC(288)         1 BASE_LTS                   0-0-0/w STRC(288)         1 BINARY_OP
     0-0-0/w STRC(396)   r     1 BLOCK                      0-0-0/w STRC(144)         1 BT
     0-0-0/w STRC(288)         1 CALL_STMT                  0-0-0/w STRC(396)         1 CD
     0-0-0/w STRC(288)         1 CD_LTS                     0-0-0/w CHAR(4096)        1 CHARS
     0-0-0/w STRC(396)         1 CLASS                      0-0-0/w STRC(288)         1 COMPUTE_STMT
     0-0-0/w STRC(396)         1 CONDITION                  0-0-0/w STRC(396)         1 CONST
     0-0-0/w STRC(72)          1 CONT                       0-0-0/w STRC(540)         1 CONTROL_NAME_LTS
     0-0-0/w STRC(1872)        1 COPY_FILE                  0-0-0/w STRC(396)         1 DB
     0-0-0/w STRC(396)         1 DCB_                       0-0-0/w STRC(288)         1 DEFERED_IDENTIFIER
     0-0-0/w STRC(252)         1 DEFERED_ID_TREE            0-0-0/w STRC(288)         1 DEFERED_QUAL_ID
     0-0-0/w STRC(288)         1 DEFERED_SUM_CLAUSE
     0-0-0/w STRC(288)         1 DEFERED_SUM_CLAUSE_LIST
     0-0-0/w STRC(288)         1 DELETE_STMT                0-0-0/w STRC(108)         1 DEPENDING_SIZE
     0-0-0/w STRC(5472)        1 DIMS                       0-0-0/w STRC(288)         1 DIVIDE_STMT
     0-0-0/w STRC(396)         1 DML_ITEM                   0-0-0/w STRC(216)         1 DML_REC
     0-0-0/w ASTR(180)   r     1 DNT                        0-0-0/w STRC(73836)       1 EVALUATE
     0-0-0/w STRC(396)   r     1 FD                         0-0-0/w STRC(1692)  r     1 FILE_LTS
     0-0-0/w STRC(288)         1 ILS_LIST                   0-0-0/w STRC(108)         1 INDEXES
PL6.E3A0      #005=Z8DQ$BLOCK File=Z8DQ.:Z8A6TSI                                 SAT 08/09/97 11:24 Page:182
     0-0-0/w STRC(360)         1 INIT_LTS                   0-0-0/w STRC(288)         1 INSPECT_1_STMT
     0-0-0/w STRC(288)         1 INSPECT_2_STMT             0-0-0/w STRC(288)         1 INSPECT_4_STMT
     0-0-0/w STRC(396)         1 INTDEF                     0-0-0/w STRC(180)         1 IO_RESTORE_CHAIN
     0-0-0/w STRC(144)         1 KEY                        0-0-0/w STRC(396)         1 LABEL
     0-0-0/w STRC(288)         1 LA_ITEM                    0-0-0/w STRC(36864)       1 LCNST
     0-0-0/w STRC(72)          1 LONG                       0-0-0/w STRC        r     1 LTS
     0-0-0/w STRC(360)   r     1 LTSS                       0-0-0/w STRC(36936)       1 LTS_PTR_ARRAY
     0-0-0/w STRC(504)         1 LX_CD_INPUT                0-0-0/w STRC(324)         1 LX_CD_I_O
     0-0-0/w STRC(396)         1 LX_CD_OUTPUT               0-0-0/w STRC(288)         1 LX_ETT_ITEM
     0-0-0/w STRC(288)   r     1 LX_ITEM                    0-0-0/w STRC(288)         1 LX_LARGE
     0-0-0/w STRC(288)   r     1 LX_LIST                    0-0-0/w STRC(1224)        1 LX_REC_DECL
     0-0-0/w STRC(864)         1 LX_REPORT_REC              0-0-0/w STRC(288)   r     1 LX_TERMINAL
     0-0-0/w STRC(396)         1 MNEMONIC                   0-0-0/w STRC(288)         1 MULTIPLY_STMT
     0-0-0/w STRC(144)         1 NEL                        0-0-0/w STRC(216)         1 OPEN_LTS
     0-0-0/w STRC(36864)       1 PAGE                       0-0-0/w STRC(396)         1 PARA
     0-0-0/w STRC(144)         1 PRIME                      0-0-0/w STRC(396)   r     1 PROC_
     0-0-0/w STRC(396)         1 PROC_DEF                   0-0-0/w STRC(900)   r     1 PROC_SUPP
     0-0-0/w STRC(216)   r     1 QLT                        0-0-0/w STRC(396)         1 RD
     0-0-0/w STRC(288)         1 READ_STMT                  0-0-0/w STRC(216)         1 REF
     0-0-0/w STRC(108)         1 RENAMES                    0-0-0/w STRC(720)         1 REPORT_01_LTS
     0-0-0/w STRC(432)         1 REPORT_ELEM_LTS            0-0-0/w STRC(252)         1 REPORT_GRP_LTS
     0-0-0/w STRC(1332)        1 REPORT_LTS                 0-0-0/w STRC(288)         1 REWRITE_STMT
     0-0-0/w STRC(144)         1 RVA_LTS                    0-0-0/w STRC(396)   r     1 SCALAR
     0-0-0/w STRC(396)         1 SD                         0-0-0/w STRC(396)         1 SECTION
     0-0-0/w STRC(396)         1 SEGMENT                    0-0-0/w STRC(360)         1 SEGMENT_LTS
     0-0-0/w STRC(396)   r     1 ST                         0-0-0/w STRC(288)         1 START_STMT
     0-0-0/w STRC(252)         1 STRING_STMT                0-0-0/w STRC(288)         1 SUBTRACT_STMT
     0-0-0/w STRC(252)         1 SUM_LTS                    0-0-0/w STRC(396)         1 SWITCH
     0-0-0/w STRC(396)         1 SYMBOLIC_CHAR              0-0-0/w STRC(396)         1 SYMDEF_
     0-0-0/w STRC(396)         1 SYMREF_                    0-0-0/w STRC(396)         1 TEMP
     0-0-0/w STRC(288)         1 UNARY_OP                   0-0-0/w STRC(288)         1 UNSTRING_STMT
     0-0-0/d STRC(612)         1 USE                        0-0-0/w STRC(252)         1 USE_SUPP
     0-0-0/w STRC(396)   r     1 VARIABLE                   0-0-0/w STRC(288)         1 WRITE_STMT


   Procedure Z8DQ$BLOCK requires 598 words for executable code.
PL6.E3A0      #005=Z8DQ$BLOCK File=Z8DQ.:Z8A6TSI                                 SAT 08/09/97 11:24 Page:183
   Procedure Z8DQ$BLOCK requires 70 words of local(AUTO) storage.

PL6.E3A0      #006=Z8DQ$RESET_COUNT File=Z8DQ.:Z8A6TSI                           SAT 08/09/97 11:27 Page:184
      972        1        /*T***********************************************************/
      973        2        /*T*                                                         */
      974        3        /*T* Copyright (c) Bull HN Information Systems Inc., 1997    */
      975        4        /*T*                                                         */
      976        5        /*T***********************************************************/
      977        6        /*================*/
      978        7          Z8DQ$RESET_COUNT: PROC (ST$$, COUNT) ALTRET;
      979        8        /*================*/
      980        9
      981       10             %EQU PHASE = 1;
      982       11
      983       12             %INCLUDE Z8A_DEFC;
      984       80             %INCLUDE Z8A_SUPP_MAC;
      985     2480             %INCLUDE Z8A_COMCOM;
      986     3130             %INCLUDE Z8A_DNT;
      987     3351             %INCLUDE Z8A_ST;
      988     7010             %INCLUDE Z8A_QLT;
      989     7116             %INCLUDE Z8A_ERR_NUMS;
      990     7880
      991     7881    1        DCL Z8AE$ERROR    ENTRY(12);
      992     7882
      993     7883    1        DCL ST$$          PTR;
      994     7884    1        DCL COUNT         SBIN;
      995     7885    1        DCL QLT$$         PTR;
      996     7886
      997     7887
      998     7888
      999     7889    1        IF ST$$ -> ST.COUNT ~= %DATA THEN
     1000     7890    2          DO;
     1001     7891    2            CALL Z8AE$ERROR (%E$ITEM_IN_MULTIPLE_BLOCKS,
     1002     7892    2                             BINBIT(ST$$ -> ST.LINE_NO,36), 0,
     1003     7893    2                             ST$$ -> ST.DNT$);
     1004     7894    2            ALTRETURN;
     1005     7895    2          END;
     1006     7896
     1007     7897    1        QLT$$ = ST$$ -> VARIABLE.QLT$;
     1008     7898
PL6.E3A0      #006=Z8DQ$RESET_COUNT File=Z8DQ.:Z8A6TSI                           SAT 08/09/97 11:27 Page:185
     1009     7899    1        ST$$ -> ST.COUNT = COUNT;
     1010     7900
     1011     7901    1        IF QLT$$ -> QLT.SON ~= ADDR(NIL) THEN
     1012     7902    1          CALL Z8DQ$RESET_COUNT (QLT$$ -> QLT.SON -> QLT.ST$, COUNT)
     1013     7903    1            WHENALTRETURN
     1014     7904    2              DO;
     1015     7905    2                ALTRETURN;
     1016     7906    2              END;
     1017     7907
     1018     7908    1        IF QLT$$ -> QLT.FATHER = ADDR(NIL) THEN
     1019     7909    1          RETURN;
     1020     7910
     1021     7911    1        IF QLT$$ -> QLT.BROTHER ~= ADDR(NIL) THEN
     1022     7912    1          CALL Z8DQ$RESET_COUNT (QLT$$ -> QLT.BROTHER -> QLT.ST$, COUNT)
     1023     7913    1            WHENALTRETURN
     1024     7914    2              DO;
     1025     7915    2                ALTRETURN;
     1026     7916    2              END;
     1027     7917
     1028     7918    1   END Z8DQ$RESET_COUNT;

PL6.E3A0      #006=Z8DQ$RESET_COUNT File=Z8DQ.:Z8A6TSI                           SAT 08/09/97 11:27 Page:186
--  Include file information  --

   Z8A_ERR_NUMS.:Z8A6TOU  is referenced.
   Z8A_QLT.:Z8A6TOU  cannot be made into a system file and is referenced.
   Z8A_ST.:Z8A6TOU  cannot be made into a system file and is referenced.
   Z8A_DNT.:Z8A6TOU  cannot be made into a system file and is referenced.
   Z8A_COMCOM.:Z8A6TOU  cannot be made into a system file and is referenced.
   X8A_COM_MACS.:X8A6TOU  is referenced.
   Z8A_NAMES.:Z8A6TOU  is referenced.
   Z8A_SUPP_MAC.:Z8A6TOU  is referenced.
   Z8A_DEFC.:Z8A6TOU  cannot be made into a system file and is referenced.
      No diagnostics issued in procedure Z8DQ$RESET_COUNT.

   Procedure Z8DQ$RESET_COUNT requires 64 words for executable code.
   Procedure Z8DQ$RESET_COUNT requires 12 words of local(AUTO) storage.

    No errors detected in file Z8DQ.:Z8A6TSI    .

PL6.E3A0      #006=Z8DQ$RESET_COUNT File=Z8DQ.:Z8A6TSI                           SAT 08/09/97 11:27 Page:187

 Object Unit name= Z8DQ$RESET_COUNT                           File name= Z8DQ.:Z8A6TOU
 UTS= AUG 09 '97 11:27:27.16 SAT                              Compiler= PL-6/E31         Sev=      00
 SharedLib= :SHARED_SYSTEM                                    Alt SharedLib=


    ****  Control sections  ****

 Sect   Type Bound  Init  Size OctSiz  Section name(segment info)
    0  LblCom even  none     1      1  ITERATION
    1  LblCom even  none     1      1  DNT$
    2  LblCom even  none     5      5  DNT_
    3  LblCom even  none     1      1  DNT_BUCKET_NUMBER
    4  LblCom even  none     1      1  DNT_OF_1$
    5  LblCom even  none     1      1  ST$
    6  LblCom even  none     5      5  ST_
    7  LblCom even  none     1      1  QLT$
    8  LblCom even  none     1      1  PREV_01_QLT$
    9  LblCom even  none     5      5  QLT_
   10   Proc  even  none    64    100  Z8DQ$RESET_COUNT
   11  RoData even  none     7      7  Z8DQ$RESET_COUNT

    ****  Entry defs  ****

                              Check   Calling
                             calling  sequence
  Sect OctLoc Primary Altret sequence   type   Parms  Name
    10      0   yes    yes     yes      Std        2  Z8DQ$RESET_COUNT

  ****  Entry refs  ****

         Check        Calling
        calling       sequence
Altret sequence SRef   type   Args  Name
         yes           Std      12 Z8AE$ERROR
                       nStd      0 X66_AUTO_2
                       nStd      0 X66_AALT
                       nStd      0 X66_ARET
PL6.E3A0      #006=Z8DQ$RESET_COUNT File=Z8DQ.:Z8A6TSI                           SAT 08/09/97 11:27 Page:188

  ****  Data refs  ****

  Flags:  r = read only, s = secondary
Flgs Name                             Flgs Name                             Flgs Name
     COMCOM

  ****  Segment refs  ****

  Flags:  r = read only, s = secondary
Flgs Name                             Flgs Name                             Flgs Name
     NULLSID                               ISSID
PL6.E3A0      #006=Z8DQ$RESET_COUNT File=Z8DQ.:Z8A6TSI                           SAT 08/09/97 11:27 Page:189


      972        1        /*T***********************************************************/
      973        2        /*T*                                                         */
      974        3        /*T* Copyright (c) Bull HN Information Systems Inc., 1997    */
      975        4        /*T*                                                         */
      976        5        /*T***********************************************************/
      977        6        /*================*/
      978        7          Z8DQ$RESET_COUNT: PROC (ST$$, COUNT) ALTRET;

      7 10 000000   000000 700200 xent  Z8DQ$RESET_* TSX0  ! X66_AUTO_2
        10 000001   000014 000002                    ZERO    12,2

      979        8        /*================*/
      980        9
      981       10             %EQU PHASE = 1;
      982       11
      983       12             %INCLUDE Z8A_DEFC;
      984       80             %INCLUDE Z8A_SUPP_MAC;
      985     2480             %INCLUDE Z8A_COMCOM;
      986     3130             %INCLUDE Z8A_DNT;
      987     3351             %INCLUDE Z8A_ST;
      988     7010             %INCLUDE Z8A_QLT;
      989     7116             %INCLUDE Z8A_ERR_NUMS;
      990     7880
      991     7881    1        DCL Z8AE$ERROR    ENTRY(12);
      992     7882
      993     7883    1        DCL ST$$          PTR;
      994     7884    1        DCL COUNT         SBIN;
      995     7885    1        DCL QLT$$         PTR;
      996     7886
      997     7887
      998     7888
      999     7889    1        IF ST$$ -> ST.COUNT ~= %DATA THEN

   7889 10 000002   200003 470500                    LDP0    @ST$$,,AUTO
        10 000003   000000 471500                    LDP1    0,,PR0
        10 000004   100000 236100                    LDQ     0,,PR1
PL6.E3A0      #006=Z8DQ$RESET_COUNT File=Z8DQ.:Z8A6TSI                           SAT 08/09/97 11:27 Page:190
        10 000005   000777 376007                    ANQ     511,DL
        10 000006   000001 116007                    CMPQ    1,DL
        10 000007   000030 600000 10                 TZE     s:7897

     1000     7890    2          DO;

     1001     7891    2            CALL Z8AE$ERROR (%E$ITEM_IN_MULTIPLE_BLOCKS,

   7891 10 000010   100002 236100                    LDQ     2,,PR1
        10 000011   777777 376007                    ANQ     -1,DL
        10 000012   200006 756100                    STQ     QLT$$+1,,AUTO
        10 000013   100006 633500                    EPPR3   6,,PR1
        10 000014   200013 453500                    STP3    QLT$$+6,,AUTO
        10 000015   000003 236000 11                 LDQ     3
        10 000016   200012 756100                    STQ     QLT$$+5,,AUTO
        10 000017   200006 631500                    EPPR1   QLT$$+1,,AUTO
        10 000020   200011 451500                    STP1    QLT$$+4,,AUTO
        10 000021   000004 236000 11                 LDQ     4
        10 000022   200010 756100                    STQ     QLT$$+3,,AUTO
        10 000023   200010 630500                    EPPR0   QLT$$+3,,AUTO
        10 000024   000000 631400 11                 EPPR1   0
        10 000025   000000 701000 xent               TSX1    Z8AE$ERROR
        10 000026   000000 011000                    NOP     0

     1002     7892    2                             BINBIT(ST$$ -> ST.LINE_NO,36), 0,
     1003     7893    2                             ST$$ -> ST.DNT$);
     1004     7894    2            ALTRETURN;

   7894 10 000027   000000 702200 xent               TSX2  ! X66_AALT

     1005     7895    2          END;
     1006     7896
     1007     7897    1        QLT$$ = ST$$ -> VARIABLE.QLT$;

   7897 10 000030   100007 236100                    LDQ     7,,PR1
        10 000031   200005 756100                    STQ     QLT$$,,AUTO

PL6.E3A0      #006=Z8DQ$RESET_COUNT File=Z8DQ.:Z8A6TSI                           SAT 08/09/97 11:27 Page:191
     1008     7898
     1009     7899    1        ST$$ -> ST.COUNT = COUNT;

   7899 10 000032   200004 473500                    LDP3    @COUNT,,AUTO
        10 000033   300000 236100                    LDQ     0,,PR3
        10 000034   100000 552104                    STBQ    0,'04'O,PR1

     1010     7900
     1011     7901    1        IF QLT$$ -> QLT.SON ~= ADDR(NIL) THEN

   7901 10 000035   200005 471500                    LDP1    QLT$$,,AUTO
        10 000036   100003 236100                    LDQ     3,,PR1
        10 000037   000005 116000 11                 CMPQ    5
        10 000040   000054 600000 10                 TZE     s:7908

     1012     7902    1          CALL Z8DQ$RESET_COUNT (QLT$$ -> QLT.SON -> QLT.ST$, COUNT)

   7902 10 000041   100003 474500                    LDP4    3,,PR1
        10 000042   200004 236100                    LDQ     @COUNT,,AUTO
        10 000043   200007 756100                    STQ     QLT$$+2,,AUTO
        10 000044   400004 635500                    EPPR5   4,,PR4
        10 000045   200006 455500                    STP5    QLT$$+1,,AUTO
        10 000046   200006 630500                    EPPR0   QLT$$+1,,AUTO
        10 000047   000006 631400 11                 EPPR1   6
        10 000050   000000 701000 10                 TSX1    s:7
        10 000051   000053 702000 10                 TSX2    s:7905
        10 000052   000054 710000 10                 TRA     s:7908

     1013     7903    1            WHENALTRETURN
     1014     7904    2              DO;

     1015     7905    2                ALTRETURN;

   7905 10 000053   000000 702200 xent               TSX2  ! X66_AALT

     1016     7906    2              END;
     1017     7907
PL6.E3A0      #006=Z8DQ$RESET_COUNT File=Z8DQ.:Z8A6TSI                           SAT 08/09/97 11:27 Page:192
     1018     7908    1        IF QLT$$ -> QLT.FATHER = ADDR(NIL) THEN

   7908 10 000054   200005 470500                    LDP0    QLT$$,,AUTO
        10 000055   000001 236100                    LDQ     1,,PR0
        10 000056   000005 116000 11                 CMPQ    5
        10 000057   000061 601000 10                 TNZ     s:7911

     1019     7909    1          RETURN;

   7909 10 000060   000000 702200 xent               TSX2  ! X66_ARET

     1020     7910
     1021     7911    1        IF QLT$$ -> QLT.BROTHER ~= ADDR(NIL) THEN

   7911 10 000061   000002 236100                    LDQ     2,,PR0
        10 000062   000005 116000 11                 CMPQ    5
        10 000063   000077 600000 10                 TZE     s:7918

     1022     7912    1          CALL Z8DQ$RESET_COUNT (QLT$$ -> QLT.BROTHER -> QLT.ST$, COUNT)

   7912 10 000064   000002 471500                    LDP1    2,,PR0
        10 000065   200004 236100                    LDQ     @COUNT,,AUTO
        10 000066   200007 756100                    STQ     QLT$$+2,,AUTO
        10 000067   100004 633500                    EPPR3   4,,PR1
        10 000070   200006 453500                    STP3    QLT$$+1,,AUTO
        10 000071   200006 630500                    EPPR0   QLT$$+1,,AUTO
        10 000072   000006 631400 11                 EPPR1   6
        10 000073   000000 701000 10                 TSX1    s:7
        10 000074   000076 702000 10                 TSX2    s:7915
        10 000075   000077 710000 10                 TRA     s:7918

     1023     7913    1            WHENALTRETURN
     1024     7914    2              DO;

     1025     7915    2                ALTRETURN;

   7915 10 000076   000000 702200 xent               TSX2  ! X66_AALT
PL6.E3A0      #006=Z8DQ$RESET_COUNT File=Z8DQ.:Z8A6TSI                           SAT 08/09/97 11:27 Page:193

     1026     7916    2              END;
     1027     7917
     1028     7918    1   END Z8DQ$RESET_COUNT;

   7918 10 000077   000000 702200 xent               TSX2  ! X66_ARET

PL6.E3A0      #006=Z8DQ$RESET_COUNT File=Z8DQ.:Z8A6TSI                           SAT 08/09/97 11:27 Page:194
--  Include file information  --

   Z8A_ERR_NUMS.:Z8A6TOU  is referenced.
   Z8A_QLT.:Z8A6TOU  cannot be made into a system file and is referenced.
   Z8A_ST.:Z8A6TOU  cannot be made into a system file and is referenced.
   Z8A_DNT.:Z8A6TOU  cannot be made into a system file and is referenced.
   Z8A_COMCOM.:Z8A6TOU  cannot be made into a system file and is referenced.
   X8A_COM_MACS.:X8A6TOU  is referenced.
   Z8A_NAMES.:Z8A6TOU  is referenced.
   Z8A_SUPP_MAC.:Z8A6TOU  is referenced.
   Z8A_DEFC.:Z8A6TOU  cannot be made into a system file and is referenced.
      No diagnostics issued in procedure Z8DQ$RESET_COUNT.
PL6.E3A0      #006=Z8DQ$RESET_COUNT File=Z8DQ.:Z8A6TSI                           SAT 08/09/97 11:27 Page:195

 **** Variables and constants ****

  ****  Section 000 LblCom ITERATION

  ****  Scalars and arrays  ****
OctLoc.c.b A Datatyp(siz) R M Lvl/name                 OctLoc.c.b A Datatyp(siz) R M Lvl/name

     0-0-0/w SBIN              1 ITERATION

  ****  Section 001 LblCom DNT$

  ****  Scalars and arrays  ****
OctLoc.c.b A Datatyp(siz) R M Lvl/name                 OctLoc.c.b A Datatyp(siz) R M Lvl/name

     0-0-0/w PTR         r     1 DNT$

  ****  Section 002 LblCom DNT_

  ****  Scalars and arrays  ****
OctLoc.c.b A Datatyp(siz) R M Lvl/name                 OctLoc.c.b A Datatyp(siz) R M Lvl/name

     0-0-0/w STRC(180)         1 DNT_

  ****  Section 003 LblCom DNT_BUCKET_NUMBER

  ****  Scalars and arrays  ****
OctLoc.c.b A Datatyp(siz) R M Lvl/name                 OctLoc.c.b A Datatyp(siz) R M Lvl/name

     0-0-0/w UBIN              1 DNT_BUCKET_NUMBER

  ****  Section 004 LblCom DNT_OF_1$

  ****  Scalars and arrays  ****
OctLoc.c.b A Datatyp(siz) R M Lvl/name                 OctLoc.c.b A Datatyp(siz) R M Lvl/name

     0-0-0/w PTR               1 DNT_OF_1$

PL6.E3A0      #006=Z8DQ$RESET_COUNT File=Z8DQ.:Z8A6TSI                           SAT 08/09/97 11:27 Page:196
  ****  Section 005 LblCom ST$

  ****  Scalars and arrays  ****
OctLoc.c.b A Datatyp(siz) R M Lvl/name                 OctLoc.c.b A Datatyp(siz) R M Lvl/name

     0-0-0/w PTR         r     1 ST$

  ****  Section 006 LblCom ST_

  ****  Scalars and arrays  ****
OctLoc.c.b A Datatyp(siz) R M Lvl/name                 OctLoc.c.b A Datatyp(siz) R M Lvl/name

     0-0-0/w STRC(180)         1 ST_

  ****  Section 007 LblCom QLT$

  ****  Scalars and arrays  ****
OctLoc.c.b A Datatyp(siz) R M Lvl/name                 OctLoc.c.b A Datatyp(siz) R M Lvl/name

     0-0-0/w PTR         r     1 QLT$

  ****  Section 008 LblCom PREV_01_QLT$

  ****  Scalars and arrays  ****
OctLoc.c.b A Datatyp(siz) R M Lvl/name                 OctLoc.c.b A Datatyp(siz) R M Lvl/name

     0-0-0/w PTR               1 PREV_01_QLT$

  ****  Section 009 LblCom QLT_

  ****  Scalars and arrays  ****
OctLoc.c.b A Datatyp(siz) R M Lvl/name                 OctLoc.c.b A Datatyp(siz) R M Lvl/name

     0-0-0/w STRC(180)         1 QLT_

  ****  Auto variables  ****

PL6.E3A0      #006=Z8DQ$RESET_COUNT File=Z8DQ.:Z8A6TSI                           SAT 08/09/97 11:27 Page:197
  ****  Scalars and arrays  ****
OctLoc.c.b A Datatyp(siz) R M Lvl/name                 OctLoc.c.b A Datatyp(siz) R M Lvl/name

     4-0-0/w PTR         r     1 @COUNT                     3-0-0/w PTR         r     1 @ST$$
    *0-0-0/w SBIN        r     1 COUNT                      5-0-0/w PTR         r     1 QLT$$
    *0-0-0/w PTR         r     1 ST$$

  ****  SYMREF variables  ****

  ****  Scalars and arrays  ****
OctLoc.c.b A Datatyp(siz) R M Lvl/name                 OctLoc.c.b A Datatyp(siz) R M Lvl/name

     0-0-0/d STRC(13248)       1 COMCOM

  ****  BASED and DCB variables  ****

  ****  Scalars and arrays  ****
OctLoc.c.b A Datatyp(siz) R M Lvl/name                 OctLoc.c.b A Datatyp(siz) R M Lvl/name

     0-0-0/w STRC(396)         1 ALPHABET                   0-0-0/w STRC(396)         1 ARRAY
     0-0-0/w STRC(396)         1 BLOCK                      0-0-0/w STRC(396)         1 CD
     0-0-0/w CHAR(4096)        1 CHARS                      0-0-0/w STRC(396)         1 CLASS
     0-0-0/w STRC(396)         1 CONDITION                  0-0-0/w STRC(396)         1 CONST
     0-0-0/w STRC(72)          1 CONT                       0-0-0/w STRC(396)         1 DB
     0-0-0/w STRC(396)         1 DCB_                       0-0-0/w STRC(396)         1 DML_ITEM
     0-0-0/w ASTR(180)   r     1 DNT                        0-0-0/w STRC(396)         1 FD
     0-0-0/w STRC(396)         1 INTDEF                     0-0-0/w STRC(396)         1 LABEL
     0-0-0/w STRC(396)         1 MNEMONIC                   0-0-0/w STRC(36864)       1 PAGE
     0-0-0/w STRC(396)         1 PARA                       0-0-0/w STRC(396)         1 PROC_
     0-0-0/w STRC(396)         1 PROC_DEF                   0-0-0/w STRC(216)   r     1 QLT
     0-0-0/w STRC(396)         1 RD                         0-0-0/w STRC(396)         1 SCALAR
     0-0-0/w STRC(396)         1 SD                         0-0-0/w STRC(396)         1 SECTION
     0-0-0/w STRC(396)         1 SEGMENT                    0-0-0/w STRC(396)   r     1 ST
     0-0-0/w STRC(396)         1 SWITCH                     0-0-0/w STRC(396)         1 SYMBOLIC_CHAR
     0-0-0/w STRC(396)         1 SYMDEF_                    0-0-0/w STRC(396)         1 SYMREF_
     0-0-0/w STRC(396)         1 TEMP                       0-0-0/w STRC(396)   r     1 VARIABLE

PL6.E3A0      #006=Z8DQ$RESET_COUNT File=Z8DQ.:Z8A6TSI                           SAT 08/09/97 11:27 Page:198

   Procedure Z8DQ$RESET_COUNT requires 64 words for executable code.
   Procedure Z8DQ$RESET_COUNT requires 12 words of local(AUTO) storage.

    No errors detected in file Z8DQ.:Z8A6TSI    .
