VERSION A06

PL6.E3A0      #001=Z8DQ$QUALIFY_DEPENDING File=Z8DQ.:Z8A6TSI                     SAT 08/09/97 11:17 Page:1
        1        1        /*M* Z8DQ -- After data division cleanup routines */
        2        2        /*T***********************************************************/
        3        3        /*T*                                                         */
        4        4        /*T* Copyright (c) Bull HN Information Systems Inc., 1997    */
        5        5        /*T*                                                         */
        6        6        /*T***********************************************************/
        7        7        Z8DQ$QUALIFY_DEPENDING: PROC (DEPENDING_LIST$);
        8        8
        9        9        /*P*
       10       10             NAME : Z8DQ$QUALIFY_DEPENDING
       11       11             PURPOSE : To qualify and process the OCCURS DEPENDING guys
       12       12               since they need not be defined prior to their reference
       13       13               in the OCCURS CLAUSE.
       14       14        */
       15       15
       16       16        %EQU PHASE = 1;
       17       17
       18       18        %INCLUDE Z8A_DEFC;
       19       86        %INCLUDE Z8A_SUPP_MAC;
       20     2486        %INCLUDE Z8A_COMCOM;
       21     3136        %INCLUDE Z8A_ERR_NUMS;
       22     3900        %INCLUDE Z8A_ST;
       23     7559        %INCLUDE Z8A_ETT;
       24     7860        %INCLUDE Z8A_TYPES;
       25     8034        %INCLUDE Z8A_LTS;
       26    10111        %INCLUDE Z8A_QLT;
       27    10217        %INCLUDE Z8A_DNT;
       28    10438
       29    10439        %INCLUDE Z8E_STACKS;
       30    12705        %INCLUDE Z8E_O1COM;
       31    13466        %INCLUDE Z8E_MACROS;
       32    14141        %INCLUDE Z8E_ABSSYN;
       33    14347        %INCLUDE Z8E_HEAP;
       34    14403
       35    14404    1   DCL Z8ED$DISPOSE_ABSSYN_TREE  ENTRY (1);
       36    14405    1   DCL Z8AF$NEW_BASE             ENTRY (3) ;
       37    14406    1   DCL Z8CO$QUALIFY_VARIABLE     ENTRY (2) ALTRET;
PL6.E3A0      #001=Z8DQ$QUALIFY_DEPENDING File=Z8DQ.:Z8A6TSI                     SAT 08/09/97 11:17 Page:2
       38    14407    1   DCL Z8AE$ERROR                ENTRY (12);
       39    14408    1   DCL Z8EV$CONVERT              ENTRY (3) ;
       40    14409    1   DCL Z8CO$INTEGER_CHECK        ENTRY (1) ALTRET;
       41    14410
       42    14411    1   DCL DEPENDING_LIST$           PTR;
       43    14412    1   DCL DEPEND$                   PTR;
       44    14413    1   DCL QUAL_ST$                  PTR;
       45    14414    1   DCL QUAL_ETT$                 PTR;
       46    14415
       47    14416        %DCL_AUTO_LX_ITEM (@NAME = DEPEND_GUY);
       48    14420
       49    14421    1   DCL LINE#                     SBIN WORD;
       50    14422    1   DCL COLUMN#                   SBIN WORD;
       51    14423
       52    14424        %EJECT;
PL6.E3A0      #001=Z8DQ$QUALIFY_DEPENDING File=Z8DQ.:Z8A6TSI                     SAT 08/09/97 11:17 Page:3
       53    14425    1   DEPENDING_CHECKS: PROC (DEPEND$, DEPEND_ETT$, ASSOC_VAR_ST$) ALTRET;
       54    14426
       55    14427    2   DCL DEPEND_ETT$        PTR;
       56    14428    2   DCL DEPEND_ST$         PTR;
       57    14429    2   DCL ASSOC_VAR_ST$      PTR;
       58    14430    2   DCL DEPEND$            PTR;
       59    14431    2   DCL FATHER$            PTR;
       60    14432    2   DCL OCCURS$            PTR;
       61    14433    2   DCL LINE#              SBIN WORD;
       62    14434    2   DCL COLUMN#            SBIN WORD;
       63    14435
       64    14436    2      COLUMN# = DEPEND$ -> DEFERED_QUAL_ID.QUAL_ID_LIST$ ->
       65    14437    2                LX_LIST.HEAD$ -> LX_ITEM.COLUMN;
       66    14438    2      LINE#   = DEPEND$ -> DEFERED_QUAL_ID.QUAL_ID_LIST$ ->
       67    14439    2                LX_LIST.HEAD$ -> LX_ITEM.LINE;
       68    14440           /*
       69    14441           IF DEPEND_ST$ -> SCALAR.B.GLOBAL
       70    14442           OR DEPEND_ST$ -> SCALAR.B.EXTERNAL THEN
       71    14443             CALL Z8AE$ERROR (%E$DEPEND_ATTR_NOT_MATCH_OCCURS);
       72    14444           */
       73    14445
       74    14446           %FISH (TRIAD = DEPEND_ETT$,
       75    14447                  RTN   = DEPEND_ST$);
       76    14455
       77    14456    2      FATHER$ = ASSOC_VAR_ST$ -> ARRAY.QLT$;
       78    14457
       79    14458    3      DO WHILE (FATHER$ -> QLT.FATHER ~= ADDR(NIL));
       80    14459    4        DO WHILE (FATHER$ -> QLT.BROTHER ~= ADDR(NIL));
       81    14460    4          FATHER$ = FATHER$ -> QLT.BROTHER;
       82    14461    4          IF (NOT FATHER$ -> QLT.B.RENAMES)
       83    14462    4          AND (NOT FATHER$ -> QLT.ST$ -> SCALAR.B.REDEF_SUB) THEN
       84    14463    5            DO;
       85    14464    5              CALL Z8AE$ERROR (%E$OCC_DEP_MUST_BE_LAST,
       86    14465    5                               DEPEND$ -> DEFERED_QUAL_ID.LINE,
       87    14466    5                               DEPEND$ -> DEFERED_QUAL_ID.COLUMN);
       88    14467    5              ALTRETURN;
       89    14468    5            END;
PL6.E3A0      #001=Z8DQ$QUALIFY_DEPENDING File=Z8DQ.:Z8A6TSI                     SAT 08/09/97 11:17 Page:4
       90    14469    4        END; /* WHILE FATHER$ -> QLT.BROTHER ~= ADDR(NIL) */
       91    14470
       92    14471    3        IF FATHER$ -> QLT.FATHER ~= ADDR(NIL) THEN
       93    14472    3          IF FATHER$ -> QLT.FATHER -> QLT.ST$ -> ST.ID = %ARRAY THEN
       94    14473    4            DO;
       95    14474    4              CALL Z8AE$ERROR (%E$OCCURS_DEPEND_UNDER_OCCURS,
       96    14475    4                               DEPEND$ -> DEFERED_QUAL_ID.LINE,
       97    14476    4                               DEPEND$ -> DEFERED_QUAL_ID.COLUMN);
       98    14477    4              ALTRETURN;
       99    14478    4            END;
      100    14479
      101    14480    3        FATHER$ = FATHER$ -> QLT.FATHER;
      102    14481    2      END; /* While */;
      103    14482
      104    14483    2      FATHER$ = DEPEND_ST$ -> SCALAR.QLT$ -> QLT.FATHER;
      105    14484
      106    14485    3      DO WHILE (FATHER$ ~= ADDR(NIL));
      107    14486    3        IF FATHER$ = ASSOC_VAR_ST$ -> ARRAY.QLT$ THEN
      108    14487    4          DO;
      109    14488    4            CALL Z8AE$ERROR (%E$DEPEND_IS_UNDER_OCCURS,
      110    14489    4                             LINE#,
      111    14490    4                             COLUMN#,
      112    14491    4                             DEPEND_ST$ -> SCALAR.DNT$);
      113    14492    4            ALTRETURN;
      114    14493    4          END;
      115    14494
      116    14495    3        FATHER$ = FATHER$ -> QLT.FATHER;
      117    14496
      118    14497    3      END;
      119    14498
      120    14499          /* If the array has attribute GLOBAL or EXTERNAL, then the  */
      121    14500          /* DEPENDING ON ID must have this attribute too.            */
      122    14501
      123    14502    2      OCCURS$ = ASSOC_VAR_ST$ -> ARRAY.QLT$;
      124    14503
      125    14504    3      DO WHILE (OCCURS$ -> QLT.FATHER ~= ADDR(NIL));
      126    14505    3        OCCURS$ = OCCURS$ -> QLT.FATHER;
PL6.E3A0      #001=Z8DQ$QUALIFY_DEPENDING File=Z8DQ.:Z8A6TSI                     SAT 08/09/97 11:17 Page:5
      127    14506    2      END; /* While */;
      128    14507
      129    14508    2      IF OCCURS$ -> QLT.ST$ -> ARRAY.B.GLOBAL THEN
      130    14509    3        DO;
      131    14510    3          FATHER$ = DEPEND_ST$ -> SCALAR.QLT$;
      132    14511
      133    14512    4          DO WHILE (FATHER$ ~= ADDR(NIL) AND FATHER$ -> QLT.FATHER ~= ADDR(NIL));
      134    14513    4            FATHER$ = FATHER$ -> QLT.FATHER;
      135    14514    4          END; /* While */
      136    14515
      137    14516    3          IF FATHER$ = ADDR(NIL)  OR
      138    14517    3             NOT FATHER$ -> QLT.ST$ -> VARIABLE.B.GLOBAL THEN
      139    14518    4            DO;
      140    14519                   %CONDITIONAL_ERROR (@LX_ITEM$ =
             14519                       DEPEND$ -> DEFERED_QUAL_ID.QUAL_ID_LIST$ -> LX_LIST.HEAD$,
      141    14520                                       @ERROR#   = %E$DEPEND_ATTR_NOT_MATCH_OCCURS,
      142    14521                                       @LINE     = LINE#,
      143    14522                                       @COLUMN   = COLUMN#,
      144    14523                                       @PLUG1    = DEPEND_ST$ -> SCALAR.DNT$);
      145    14553    4              ALTRETURN;
      146    14554    4            END;
      147    14555    3        END;
      148    14556
      149    14557    2      IF OCCURS$ -> QLT.ST$ -> ARRAY.B.EXTERNAL THEN
      150    14558    3        DO;
      151    14559    3          FATHER$ = DEPEND_ST$ -> SCALAR.QLT$;
      152    14560
      153    14561    4          DO WHILE (FATHER$ ~= ADDR(NIL) AND FATHER$ -> QLT.FATHER ~= ADDR(NIL));
      154    14562    4            FATHER$ = FATHER$ -> QLT.FATHER;
      155    14563    4          END; /* While */
      156    14564
      157    14565    3          IF FATHER$ = ADDR(NIL)  OR
      158    14566    3             NOT FATHER$ -> QLT.ST$ -> VARIABLE.B.EXTERNAL THEN
      159    14567    4            DO;
      160    14568                   %CONDITIONAL_ERROR (@LX_ITEM$ =
             14568                       DEPEND$ -> DEFERED_QUAL_ID.QUAL_ID_LIST$ -> LX_LIST.HEAD$,
      161    14569                                       @ERROR#   = %E$DEPEND_ATTR_NOT_MATCH_OCCURS,
PL6.E3A0      #001=Z8DQ$QUALIFY_DEPENDING File=Z8DQ.:Z8A6TSI                     SAT 08/09/97 11:17 Page:6
      162    14570                                       @LINE     = LINE#,
      163    14571                                       @COLUMN   = COLUMN#,
      164    14572                                       @PLUG1    = DEPEND_ST$ -> SCALAR.DNT$);
      165    14602    4              ALTRETURN;
      166    14603    4            END;
      167    14604    3        END;
      168    14605
      169    14606    2   END DEPENDING_CHECKS;
      170    14607        %EJECT;
PL6.E3A0      #001=Z8DQ$QUALIFY_DEPENDING File=Z8DQ.:Z8A6TSI                     SAT 08/09/97 11:17 Page:7
      171    14608    1   PROCESS_DEPENDING: PROC (DEPEND_ST$, ASS_VAR_ST$);
      172    14609
      173    14610    2   DCL DEPEND_ST$                PTR;
      174    14611    2   DCL ASS_VAR_ST$               PTR;
      175    14612
      176    14613    2   DCL DIMS$                     PTR;
      177    14614
      178    14615           %GET_LTS (@ID     = %DIMS,
      179    14616                     @ST$    = ASS_VAR_ST$,
      180    14617                     @RETURN$= DIMS$);
      181    14660
      182    14661    2      DIMS$ -> DIMS.DN2 = DEPEND_ST$;
      183    14662
      184    14663    2   END PROCESS_DEPENDING;
      185    14664        %EJECT;
PL6.E3A0      #001=Z8DQ$QUALIFY_DEPENDING File=Z8DQ.:Z8A6TSI                     SAT 08/09/97 11:17 Page:8
      186    14665    1   CLEAR_EVIDENCE: PROC (ST$$);
      187    14666
      188    14667    2        DCL ST$$          PTR;
      189    14668    2        DCL FATHER$       PTR;
      190    14669
      191    14670
      192    14671    2        FATHER$ = ST$$ -> SCALAR.QLT$;
      193    14672
      194    14673    3        DO WHILE (FATHER$ ~= ADDR(NIL));
      195    14674    3          FATHER$ -> QLT.ST$ -> SCALAR.B.OCCURS_DEPENDING = FALSE;
      196    14675    3          FATHER$ = FATHER$ -> QLT.FATHER;
      197    14676    3        END;
      198    14677
      199    14678    2   END CLEAR_EVIDENCE;
      200    14679        %EJECT;
PL6.E3A0      #001=Z8DQ$QUALIFY_DEPENDING File=Z8DQ.:Z8A6TSI                     SAT 08/09/97 11:17 Page:9
      201    14680
      202    14681    1      DEPEND$ = DEPENDING_LIST$;
      203    14682
      204    14683    2      DO WHILE (DEPEND$ ~= ADDR(NIL));
      205    14684    2        CALL Z8CO$QUALIFY_VARIABLE (DEPEND$ -> DEFERED_QUAL_ID.QUAL_ID_LIST$,
      206    14685    2                                    QUAL_ST$);
      207    14686
      208    14687    2        LINE# = DEPEND$ -> DEFERED_QUAL_ID.QUAL_ID_LIST$ -> LX_LIST.HEAD$ ->
      209    14688    2                LX_ITEM.LINE;
      210    14689    2        COLUMN# = DEPEND$ -> DEFERED_QUAL_ID.QUAL_ID_LIST$ -> LX_LIST.HEAD$ ->
      211    14690    2                  LX_ITEM.COLUMN;
      212    14691
      213    14692    2        IF QUAL_ST$ -> VARIABLE.B.OCCURS_DEPENDING THEN
      214    14693    3          DO;
      215    14694                 %GET_LTS (@ID  = %DEPENDING_SIZE,
      216    14695                           @ST$ = QUAL_ST$);
      217    14738    3            IF LTS$ = ADDR(NIL) THEN
      218    14739    4              DO; /* Compiler already has check but this would cause abort
      219    14740                          before compilation gets that far */
      220    14741                     %CONDITIONAL_ERROR (@LX_ITEM$ =
      221    14742                                   DEPEND$ -> DEFERED_QUAL_ID.QUAL_ID_LIST$ -> LX_LIST.HEAD$
             14742                                             ,
      222    14743                                         @ERROR#   = %E$MUST_BE_INTEGER,
      223    14744                                         @LINE     = LINE#,
      224    14745                                         @COLUMN   = COLUMN#);
      225    14775    4                GOTO ERROR;
      226    14776    4              END;
      227    14777    3          END;
      228    14778
      229    14779    2        CALL Z8AF$NEW_BASE (QUAL_ST$, ADDR(NIL), QUAL_ETT$);
      230    14780
      231    14781             %INIT_LX_ETT_ITEM (@POINTER = "ADDR(DEPEND_GUY)",
      232    14782                                @TYPE    = QUAL_ST$ -> VARIABLE.TYPE,
      233    14783                                @ETT$    = QUAL_ETT$,
      234    14784                                @LINE    = LINE#,
      235    14785                                @COLUMN  = COLUMN#);
      236    14807
PL6.E3A0      #001=Z8DQ$QUALIFY_DEPENDING File=Z8DQ.:Z8A6TSI                     SAT 08/09/97 11:17 Page:10
      237    14808    2        CALL Z8CO$INTEGER_CHECK (ADDR(DEPEND_GUY)) ALTRET (ERROR);
      238    14809    2        CALL Z8EV$CONVERT (%TYI, ADDR(DEPEND_GUY), ADDR(DEPEND_GUY));
      239    14810
      240    14811    2        QUAL_ETT$ = ADDR(DEPEND_GUY) -> LX_ETT_ITEM.ETT$;
      241    14812
      242    14813    2        CALL DEPENDING_CHECKS (DEPEND$, QUAL_ETT$,
      243    14814    2                               DEPEND$ -> DEFERED_QUAL_ID.ASSOC_VAR_ST$)
      244    14815    2                               ALTRET (ERROR);
      245    14816
      246    14817    2        CALL PROCESS_DEPENDING (QUAL_ETT$,
      247    14818    2                                DEPEND$ -> DEFERED_QUAL_ID.ASSOC_VAR_ST$);
      248    14819
      249    14820    2        GOTO NO_ERROR;
      250    14821
      251    14822    2   ERROR:
      252    14823    2        CALL CLEAR_EVIDENCE (DEPEND$ -> DEFERED_QUAL_ID.ASSOC_VAR_ST$);
      253    14824
      254    14825    2   NO_ERROR:
      255    14826
      256    14827
      257    14828    2        DEPEND$ = DEPEND$ -> DEFERED_QUAL_ID.LINK;
      258    14829    2      END; /* While depend ~= addr(nil) */
      259    14830
      260    14831    1      CALL Z8ED$DISPOSE_ABSSYN_TREE (O1COM.OCCURS_DEPENDING$);
      261    14832
      262    14833    1      RETURN;
      263    14834
      264    14835    1   END Z8DQ$QUALIFY_DEPENDING;
      265    14836        %EOD;

PL6.E3A0      #001=Z8DQ$QUALIFY_DEPENDING File=Z8DQ.:Z8A6TSI                     SAT 08/09/97 11:17 Page:11
--  Include file information  --

   Z8E_HEAP.:Z8A6TOU  cannot be made into a system file and is referenced.
   Z8E_ABSSYN.:Z8A6TOU  cannot be made into a system file and is referenced.
   Z8E_NEW_ILL.:Z8A6TOU  is referenced.
   Z8E_MACROS.:Z8A6TOU  cannot be made into a system file and is referenced.
   Z8E_O1COM.:Z8A6TOU  cannot be made into a system file and is referenced.
   Z8A_LEX_SYMB.:Z8A6TOU  cannot be made into a system file and is referenced.
   Z8E_STACKS.:Z8A6TOU  cannot be made into a system file and is referenced.
   Z8A_DNT.:Z8A6TOU  cannot be made into a system file and is referenced.
   Z8A_QLT.:Z8A6TOU  cannot be made into a system file and is referenced.
   Z8A_LTS.:Z8A6TOU  cannot be made into a system file and is referenced.
   Z8A_TYPES.:Z8A6TOU  is referenced.
   Z8A_ETT.:Z8A6TOU  cannot be made into a system file and is referenced.
   Z8A_ST.:Z8A6TOU  cannot be made into a system file and is referenced.
   Z8A_ERR_NUMS.:Z8A6TOU  is referenced.
   Z8A_COMCOM.:Z8A6TOU  cannot be made into a system file and is referenced.
   X8A_COM_MACS.:X8A6TOU  is referenced.
   Z8A_NAMES.:Z8A6TOU  is referenced.
   Z8A_SUPP_MAC.:Z8A6TOU  is referenced.
   Z8A_DEFC.:Z8A6TOU  cannot be made into a system file and is referenced.
      No diagnostics issued in procedure Z8DQ$QUALIFY_DEPENDING.

   Procedure Z8DQ$QUALIFY_DEPENDING requires 441 words for executable code.
   Procedure Z8DQ$QUALIFY_DEPENDING requires 34 words of local(AUTO) storage.

PL6.E3A0      #001=Z8DQ$QUALIFY_DEPENDING File=Z8DQ.:Z8A6TSI                     SAT 08/09/97 11:17 Page:12

 Object Unit name= Z8DQ$QUALIFY_DEPENDING                     File name= Z8DQ.:Z8A6TOU
 UTS= AUG 09 '97 11:17:44.16 SAT                              Compiler= PL-6/E31         Sev=      00
 SharedLib= :SHARED_SYSTEM                                    Alt SharedLib=


    ****  Control sections  ****

 Sect   Type Bound  Init  Size OctSiz  Section name(segment info)
    0  LblCom even  none     1      1  ITERATION
    1  LblCom even  none     1      1  ST$
    2  LblCom even  none     5      5  ST_
    3  LblCom even  none     1      1  ETT$
    4  LblCom even  none     1      1  HEAD_ETT$
    5  LblCom even  none   512   1000  ETT_BUCKETS
    6  LblCom even  none     5      5  ETT_
    7  LblCom even  none     1      1  LTS$
    8  LblCom even  none     5      5  LTS_
    9  LblCom even  none     1      1  QLT$
   10  LblCom even  none     1      1  PREV_01_QLT$
   11  LblCom even  none     5      5  QLT_
   12  LblCom even  none     1      1  DNT$
   13  LblCom even  none     5      5  DNT_
   14  LblCom even  none     1      1  DNT_BUCKET_NUMBER
   15  LblCom even  none     1      1  DNT_OF_1$
   16  LblCom even  none    90    132  LEX_SYMBOL
   17  LblCom even  none     1      1  CURRENT_LEX_SYMBOL$
   18  LblCom even  none    90    132  TEMP_LEX_SYMBOL
   19  LblCom even  none    90    132  TEMP_LEX_SYMBOL2
   20  LblCom even  none     8     10  TEMP_LX_NODE
   21  LblCom even  none     1      1  HEAP$
   22   Proc  even  none   441    671  Z8DQ$QUALIFY_DEPENDING
   23  RoData even  none    19     23  Z8DQ$QUALIFY_DEPENDING
PL6.E3A0      #001=Z8DQ$QUALIFY_DEPENDING File=Z8DQ.:Z8A6TSI                     SAT 08/09/97 11:17 Page:13

    ****  Entry defs  ****

                              Check   Calling
                             calling  sequence
  Sect OctLoc Primary Altret sequence   type   Parms  Name
    22      0   yes            yes      Std        1  Z8DQ$QUALIFY_DEPENDING

  ****  Entry refs  ****

         Check        Calling
        calling       sequence
Altret sequence SRef   type   Args  Name
 yes     yes           Std       2 Z8CO$QUALIFY_VARIABLE
         yes           Std      12 Z8AE$ERROR
         yes           Std       3 Z8EV$CONVERT
         yes           Std       3 Z8AF$NEW_BASE
 yes     yes           Std       1 Z8CO$INTEGER_CHECK
         yes           Std       1 Z8ED$DISPOSE_ABSSYN_TREE
                       nStd      0 X66_AUTO_1
                       nStd      0 X66_ARET

  ****  Data refs  ****

  Flags:  r = read only, s = secondary
Flgs Name                             Flgs Name                             Flgs Name
     COMCOM                           r    LTS_STEP                              O1COM
     HIER_STK_PTR                          HIER_STK                              PAGE_FORMAT
     REP_STK_PTR                           REP_STK

  ****  Segment refs  ****

  Flags:  r = read only, s = secondary
Flgs Name                             Flgs Name                             Flgs Name
     NULLSID                               ISSID
PL6.E3A0      #001=Z8DQ$QUALIFY_DEPENDING File=Z8DQ.:Z8A6TSI                     SAT 08/09/97 11:17 Page:14


        1        1        /*M* Z8DQ -- After data division cleanup routines */
        2        2        /*T***********************************************************/
        3        3        /*T*                                                         */
        4        4        /*T* Copyright (c) Bull HN Information Systems Inc., 1997    */
        5        5        /*T*                                                         */
        6        6        /*T***********************************************************/
        7        7        Z8DQ$QUALIFY_DEPENDING: PROC (DEPENDING_LIST$);

      7 22 000000   000000 700200 xent  Z8DQ$QUALIF* TSX0  ! X66_AUTO_1
        22 000001   000042 000001                    ZERO    34,1
        22 000002   000436 710000 22                 TRA     s:14681

        8        8
        9        9        /*P*
       10       10             NAME : Z8DQ$QUALIFY_DEPENDING
       11       11             PURPOSE : To qualify and process the OCCURS DEPENDING guys
       12       12               since they need not be defined prior to their reference
       13       13               in the OCCURS CLAUSE.
       14       14        */
       15       15
       16       16        %EQU PHASE = 1;
       17       17
       18       18        %INCLUDE Z8A_DEFC;
       19       86        %INCLUDE Z8A_SUPP_MAC;
       20     2486        %INCLUDE Z8A_COMCOM;
       21     3136        %INCLUDE Z8A_ERR_NUMS;
       22     3900        %INCLUDE Z8A_ST;
       23     7559        %INCLUDE Z8A_ETT;
       24     7860        %INCLUDE Z8A_TYPES;
       25     8034        %INCLUDE Z8A_LTS;
       26    10111        %INCLUDE Z8A_QLT;
       27    10217        %INCLUDE Z8A_DNT;
       28    10438
       29    10439        %INCLUDE Z8E_STACKS;
       30    12705        %INCLUDE Z8E_O1COM;
       31    13466        %INCLUDE Z8E_MACROS;
PL6.E3A0      #001=Z8DQ$QUALIFY_DEPENDING File=Z8DQ.:Z8A6TSI                     SAT 08/09/97 11:17 Page:15
       32    14141        %INCLUDE Z8E_ABSSYN;
       33    14347        %INCLUDE Z8E_HEAP;
       34    14403
       35    14404    1   DCL Z8ED$DISPOSE_ABSSYN_TREE  ENTRY (1);
       36    14405    1   DCL Z8AF$NEW_BASE             ENTRY (3) ;
       37    14406    1   DCL Z8CO$QUALIFY_VARIABLE     ENTRY (2) ALTRET;
       38    14407    1   DCL Z8AE$ERROR                ENTRY (12);
       39    14408    1   DCL Z8EV$CONVERT              ENTRY (3) ;
       40    14409    1   DCL Z8CO$INTEGER_CHECK        ENTRY (1) ALTRET;
       41    14410
       42    14411    1   DCL DEPENDING_LIST$           PTR;
       43    14412    1   DCL DEPEND$                   PTR;
       44    14413    1   DCL QUAL_ST$                  PTR;
       45    14414    1   DCL QUAL_ETT$                 PTR;
       46    14415
       47    14416        %DCL_AUTO_LX_ITEM (@NAME = DEPEND_GUY);
       48    14420
       49    14421    1   DCL LINE#                     SBIN WORD;
       50    14422    1   DCL COLUMN#                   SBIN WORD;
       51    14423
       52    14424        %EJECT;
PL6.E3A0      #001=Z8DQ$QUALIFY_DEPENDING File=Z8DQ.:Z8A6TSI                     SAT 08/09/97 11:17 Page:16
       53    14425    1   DEPENDING_CHECKS: PROC (DEPEND$, DEPEND_ETT$, ASSOC_VAR_ST$) ALTRET;

  14425 22 000003   200022 741300       DEPENDING_C* STX1  ! COLUMN#+1,,AUTO

       54    14426
       55    14427    2   DCL DEPEND_ETT$        PTR;
       56    14428    2   DCL DEPEND_ST$         PTR;
       57    14429    2   DCL ASSOC_VAR_ST$      PTR;
       58    14430    2   DCL DEPEND$            PTR;
       59    14431    2   DCL FATHER$            PTR;
       60    14432    2   DCL OCCURS$            PTR;
       61    14433    2   DCL LINE#              SBIN WORD;
       62    14434    2   DCL COLUMN#            SBIN WORD;
       63    14435
       64    14436    2      COLUMN# = DEPEND$ -> DEFERED_QUAL_ID.QUAL_ID_LIST$ ->

  14436 22 000004   200023 470500                    LDP0    @DEPEND$,,AUTO
        22 000005   000000 471500                    LDP1    0,,PR0
        22 000006   100001 473500                    LDP3    1,,PR1
        22 000007   300004 474500                    LDP4    4,,PR3
        22 000010   400006 235100                    LDA     6,,PR4
        22 000011   200032 755100                    STA     COLUMN#,,AUTO

       65    14437    2                LX_LIST.HEAD$ -> LX_ITEM.COLUMN;
       66    14438    2      LINE#   = DEPEND$ -> DEFERED_QUAL_ID.QUAL_ID_LIST$ ->

  14438 22 000012   000000 471500                    LDP1    0,,PR0
        22 000013   100001 473500                    LDP3    1,,PR1
        22 000014   300004 474500                    LDP4    4,,PR3
        22 000015   400005 235100                    LDA     5,,PR4
        22 000016   200031 755100                    STA     LINE#,,AUTO

       67    14439    2                LX_LIST.HEAD$ -> LX_ITEM.LINE;
       68    14440           /*
       69    14441           IF DEPEND_ST$ -> SCALAR.B.GLOBAL
       70    14442           OR DEPEND_ST$ -> SCALAR.B.EXTERNAL THEN
       71    14443             CALL Z8AE$ERROR (%E$DEPEND_ATTR_NOT_MATCH_OCCURS);
PL6.E3A0      #001=Z8DQ$QUALIFY_DEPENDING File=Z8DQ.:Z8A6TSI                     SAT 08/09/97 11:17 Page:17
       72    14444           */
       73    14445
       74    14446           %FISH (TRIAD = DEPEND_ETT$,
       75    14447                  RTN   = DEPEND_ST$);

  14449 22 000017   200024 471500                    LDP1    @DEPEND_ETT$,,AUTO
        22 000020   100000 236100                    LDQ     0,,PR1
        22 000021   200026 756100                    STQ     DEPEND_ST$,,AUTO

  14450 22 000022   200026 473500                    LDP3    DEPEND_ST$,,AUTO
        22 000023   300000 220100                    LDX0    0,,PR3
        22 000024   000751 100003                    CMPX0   489,DU
        22 000025   000035 603000 22                 TRC     s:14456

  14451 22 000026   200026 470500                    LDP0    DEPEND_ST$,,AUTO
        22 000027   000001 236100                    LDQ     1,,PR0
        22 000030   200026 756100                    STQ     DEPEND_ST$,,AUTO

  14452 22 000031   200026 470500                    LDP0    DEPEND_ST$,,AUTO
        22 000032   000000 220100                    LDX0    0,,PR0
        22 000033   000751 100003                    CMPX0   489,DU
        22 000034   000026 602000 22                 TNC     s:14451

       76    14455
       77    14456    2      FATHER$ = ASSOC_VAR_ST$ -> ARRAY.QLT$;

  14456 22 000035   200025 470500                    LDP0    @ASSOC_VAR_ST$,,AUTO
        22 000036   000000 471500                    LDP1    0,,PR0
        22 000037   100007 236100                    LDQ     7,,PR1
        22 000040   200027 756100                    STQ     FATHER$,,AUTO

       78    14457
       79    14458    3      DO WHILE (FATHER$ -> QLT.FATHER ~= ADDR(NIL));

  14458 22 000041   000126 710000 22                 TRA     s:14481

       80    14459    4        DO WHILE (FATHER$ -> QLT.BROTHER ~= ADDR(NIL));
PL6.E3A0      #001=Z8DQ$QUALIFY_DEPENDING File=Z8DQ.:Z8A6TSI                     SAT 08/09/97 11:17 Page:18

  14459 22 000042   000073 710000 22                 TRA     s:14469

       81    14460    4          FATHER$ = FATHER$ -> QLT.BROTHER;

  14460 22 000043   200027 470500                    LDP0    FATHER$,,AUTO
        22 000044   000002 236100                    LDQ     2,,PR0
        22 000045   200027 756100                    STQ     FATHER$,,AUTO

       82    14461    4          IF (NOT FATHER$ -> QLT.B.RENAMES)

  14461 22 000046   200027 470500                    LDP0    FATHER$,,AUTO
        22 000047   000000 236100                    LDQ     0,,PR0
        22 000050   040000 316007                    CANQ    16384,DL
        22 000051   000073 601000 22                 TNZ     s:14469
        22 000052   000004 471500                    LDP1    4,,PR0
        22 000053   100003 430100                    FSZN    3,,PR1
        22 000054   000073 604000 22                 TMI     s:14469

       83    14462    4          AND (NOT FATHER$ -> QLT.ST$ -> SCALAR.B.REDEF_SUB) THEN
       84    14463    5            DO;

       85    14464    5              CALL Z8AE$ERROR (%E$OCC_DEP_MUST_BE_LAST,

  14464 22 000055   200023 473500                    LDP3    @DEPEND$,,AUTO
        22 000056   300000 474500                    LDP4    0,,PR3
        22 000057   400006 635500                    EPPR5   6,,PR4
        22 000060   200036 455500                    STP5    COLUMN#+4,,AUTO
        22 000061   400005 631500                    EPPR1   5,,PR4
        22 000062   200035 451500                    STP1    COLUMN#+3,,AUTO
        22 000063   000002 236000 23                 LDQ     2
        22 000064   200034 756100                    STQ     COLUMN#+2,,AUTO
        22 000065   200034 630500                    EPPR0   COLUMN#+2,,AUTO
        22 000066   000000 631400 23                 EPPR1   0
        22 000067   000000 701000 xent               TSX1    Z8AE$ERROR
        22 000070   000000 011000                    NOP     0

PL6.E3A0      #001=Z8DQ$QUALIFY_DEPENDING File=Z8DQ.:Z8A6TSI                     SAT 08/09/97 11:17 Page:19
       86    14465    5                               DEPEND$ -> DEFERED_QUAL_ID.LINE,
       87    14466    5                               DEPEND$ -> DEFERED_QUAL_ID.COLUMN);
       88    14467    5              ALTRETURN;

  14467 22 000071   200022 221300                    LDX1  ! COLUMN#+1,,AUTO
        22 000072   000000 702211                    TSX2  ! 0,X1

       89    14468    5            END;
       90    14469    4        END; /* WHILE FATHER$ -> QLT.BROTHER ~= ADDR(NIL) */

  14469 22 000073   200027 470500                    LDP0    FATHER$,,AUTO
        22 000074   000002 236100                    LDQ     2,,PR0
        22 000075   000003 116000 23                 CMPQ    3
        22 000076   000043 601000 22                 TNZ     s:14460

       91    14470
       92    14471    3        IF FATHER$ -> QLT.FATHER ~= ADDR(NIL) THEN

  14471 22 000077   000001 236100                    LDQ     1,,PR0
        22 000100   000003 116000 23                 CMPQ    3
        22 000101   000125 600000 22                 TZE     s:14480

       93    14472    3          IF FATHER$ -> QLT.FATHER -> QLT.ST$ -> ST.ID = %ARRAY THEN

  14472 22 000102   000001 471500                    LDP1    1,,PR0
        22 000103   100004 473500                    LDP3    4,,PR1
        22 000104   300000 220100                    LDX0    0,,PR3
        22 000105   000765 100003                    CMPX0   501,DU
        22 000106   000125 601000 22                 TNZ     s:14480

       94    14473    4            DO;

       95    14474    4              CALL Z8AE$ERROR (%E$OCCURS_DEPEND_UNDER_OCCURS,

  14474 22 000107   200023 474500                    LDP4    @DEPEND$,,AUTO
        22 000110   400000 475500                    LDP5    0,,PR4
        22 000111   500006 636500                    EPPR6   6,,PR5
PL6.E3A0      #001=Z8DQ$QUALIFY_DEPENDING File=Z8DQ.:Z8A6TSI                     SAT 08/09/97 11:17 Page:20
        22 000112   200036 456500                    STP6    COLUMN#+4,,AUTO
        22 000113   500005 631500                    EPPR1   5,,PR5
        22 000114   200035 451500                    STP1    COLUMN#+3,,AUTO
        22 000115   000005 236000 23                 LDQ     5
        22 000116   200034 756100                    STQ     COLUMN#+2,,AUTO
        22 000117   200034 630500                    EPPR0   COLUMN#+2,,AUTO
        22 000120   000000 631400 23                 EPPR1   0
        22 000121   000000 701000 xent               TSX1    Z8AE$ERROR
        22 000122   000000 011000                    NOP     0

       96    14475    4                               DEPEND$ -> DEFERED_QUAL_ID.LINE,
       97    14476    4                               DEPEND$ -> DEFERED_QUAL_ID.COLUMN);
       98    14477    4              ALTRETURN;

  14477 22 000123   200022 221300                    LDX1  ! COLUMN#+1,,AUTO
        22 000124   000000 702211                    TSX2  ! 0,X1

       99    14478    4            END;
      100    14479
      101    14480    3        FATHER$ = FATHER$ -> QLT.FATHER;

  14480 22 000125   200027 756100                    STQ     FATHER$,,AUTO

      102    14481    2      END; /* While */;

  14481 22 000126   200027 470500                    LDP0    FATHER$,,AUTO
        22 000127   000001 236100                    LDQ     1,,PR0
        22 000130   000003 116000 23                 CMPQ    3
        22 000131   000042 601000 22                 TNZ     s:14459

      103    14482
      104    14483    2      FATHER$ = DEPEND_ST$ -> SCALAR.QLT$ -> QLT.FATHER;

  14483 22 000132   200026 471500                    LDP1    DEPEND_ST$,,AUTO
        22 000133   100007 473500                    LDP3    7,,PR1
        22 000134   300001 236100                    LDQ     1,,PR3
        22 000135   200027 756100                    STQ     FATHER$,,AUTO
PL6.E3A0      #001=Z8DQ$QUALIFY_DEPENDING File=Z8DQ.:Z8A6TSI                     SAT 08/09/97 11:17 Page:21

      105    14484
      106    14485    3      DO WHILE (FATHER$ ~= ADDR(NIL));

  14485 22 000136   000166 710000 22                 TRA     s:14497

      107    14486    3        IF FATHER$ = ASSOC_VAR_ST$ -> ARRAY.QLT$ THEN

  14486 22 000137   200025 470500                    LDP0    @ASSOC_VAR_ST$,,AUTO
        22 000140   000000 471500                    LDP1    0,,PR0
        22 000141   200027 236100                    LDQ     FATHER$,,AUTO
        22 000142   100007 116100                    CMPQ    7,,PR1
        22 000143   000163 601000 22                 TNZ     s:14495

      108    14487    4          DO;

      109    14488    4            CALL Z8AE$ERROR (%E$DEPEND_IS_UNDER_OCCURS,

  14488 22 000144   200026 236100                    LDQ     DEPEND_ST$,,AUTO
        22 000145   000006 036003                    ADLQ    6,DU
        22 000146   200037 756100                    STQ     COLUMN#+5,,AUTO
        22 000147   200032 631500                    EPPR1   COLUMN#,,AUTO
        22 000150   200036 451500                    STP1    COLUMN#+4,,AUTO
        22 000151   200031 633500                    EPPR3   LINE#,,AUTO
        22 000152   200035 453500                    STP3    COLUMN#+3,,AUTO
        22 000153   000010 236000 23                 LDQ     8
        22 000154   200034 756100                    STQ     COLUMN#+2,,AUTO
        22 000155   200034 630500                    EPPR0   COLUMN#+2,,AUTO
        22 000156   000006 631400 23                 EPPR1   6
        22 000157   000000 701000 xent               TSX1    Z8AE$ERROR
        22 000160   000000 011000                    NOP     0

      110    14489    4                             LINE#,
      111    14490    4                             COLUMN#,
      112    14491    4                             DEPEND_ST$ -> SCALAR.DNT$);
      113    14492    4            ALTRETURN;

PL6.E3A0      #001=Z8DQ$QUALIFY_DEPENDING File=Z8DQ.:Z8A6TSI                     SAT 08/09/97 11:17 Page:22
  14492 22 000161   200022 221300                    LDX1  ! COLUMN#+1,,AUTO
        22 000162   000000 702211                    TSX2  ! 0,X1

      114    14493    4          END;
      115    14494
      116    14495    3        FATHER$ = FATHER$ -> QLT.FATHER;

  14495 22 000163   200027 473500                    LDP3    FATHER$,,AUTO
        22 000164   300001 236100                    LDQ     1,,PR3
        22 000165   200027 756100                    STQ     FATHER$,,AUTO

      117    14496
      118    14497    3      END;

  14497 22 000166   000003 116000 23                 CMPQ    3
        22 000167   000137 601000 22                 TNZ     s:14486

      119    14498
      120    14499          /* If the array has attribute GLOBAL or EXTERNAL, then the  */
      121    14500          /* DEPENDING ON ID must have this attribute too.            */
      122    14501
      123    14502    2      OCCURS$ = ASSOC_VAR_ST$ -> ARRAY.QLT$;

  14502 22 000170   200025 470500                    LDP0    @ASSOC_VAR_ST$,,AUTO
        22 000171   000000 471500                    LDP1    0,,PR0
        22 000172   100007 236100                    LDQ     7,,PR1
        22 000173   200030 756100                    STQ     OCCURS$,,AUTO

      124    14503
      125    14504    3      DO WHILE (OCCURS$ -> QLT.FATHER ~= ADDR(NIL));

  14504 22 000174   000200 710000 22                 TRA     s:14506

      126    14505    3        OCCURS$ = OCCURS$ -> QLT.FATHER;

  14505 22 000175   200030 470500                    LDP0    OCCURS$,,AUTO
        22 000176   000001 236100                    LDQ     1,,PR0
PL6.E3A0      #001=Z8DQ$QUALIFY_DEPENDING File=Z8DQ.:Z8A6TSI                     SAT 08/09/97 11:17 Page:23
        22 000177   200030 756100                    STQ     OCCURS$,,AUTO

      127    14506    2      END; /* While */;

  14506 22 000200   200030 470500                    LDP0    OCCURS$,,AUTO
        22 000201   000001 236100                    LDQ     1,,PR0
        22 000202   000003 116000 23                 CMPQ    3
        22 000203   000175 601000 22                 TNZ     s:14505

      128    14507
      129    14508    2      IF OCCURS$ -> QLT.ST$ -> ARRAY.B.GLOBAL THEN

  14508 22 000204   000004 471500                    LDP1    4,,PR0
        22 000205   100003 236100                    LDQ     3,,PR1
        22 000206   000010 316003                    CANQ    8,DU
        22 000207   000271 600000 22                 TZE     s:14557

      130    14509    3        DO;

      131    14510    3          FATHER$ = DEPEND_ST$ -> SCALAR.QLT$;

  14510 22 000210   200026 473500                    LDP3    DEPEND_ST$,,AUTO
        22 000211   300007 236100                    LDQ     7,,PR3
        22 000212   200027 756100                    STQ     FATHER$,,AUTO

      132    14511
      133    14512    4          DO WHILE (FATHER$ ~= ADDR(NIL) AND FATHER$ -> QLT.FATHER ~= ADDR(NIL));

  14512 22 000213   000217 710000 22                 TRA     s:14514

      134    14513    4            FATHER$ = FATHER$ -> QLT.FATHER;

  14513 22 000214   200027 470500                    LDP0    FATHER$,,AUTO
        22 000215   000001 236100                    LDQ     1,,PR0
        22 000216   200027 756100                    STQ     FATHER$,,AUTO

      135    14514    4          END; /* While */
PL6.E3A0      #001=Z8DQ$QUALIFY_DEPENDING File=Z8DQ.:Z8A6TSI                     SAT 08/09/97 11:17 Page:24

  14514 22 000217   000003 116000 23                 CMPQ    3
        22 000220   000225 600000 22                 TZE     s:14516
        22 000221   200027 470500                    LDP0    FATHER$,,AUTO
        22 000222   000001 236100                    LDQ     1,,PR0
        22 000223   000003 116000 23                 CMPQ    3
        22 000224   000214 601000 22                 TNZ     s:14513

      136    14515
      137    14516    3          IF FATHER$ = ADDR(NIL)  OR

  14516 22 000225   200027 236100                    LDQ     FATHER$,,AUTO
        22 000226   000003 116000 23                 CMPQ    3
        22 000227   000235 600000 22                 TZE     s:14533
        22 000230   200027 470500                    LDP0    FATHER$,,AUTO
        22 000231   000004 471500                    LDP1    4,,PR0
        22 000232   100003 236100                    LDQ     3,,PR1
        22 000233   000010 316003                    CANQ    8,DU
        22 000234   000271 601000 22                 TNZ     s:14557

      138    14517    3             NOT FATHER$ -> QLT.ST$ -> VARIABLE.B.GLOBAL THEN
      139    14518    4            DO;

      140    14519                   %CONDITIONAL_ERROR (@LX_ITEM$ =
             14519                       DEPEND$ -> DEFERED_QUAL_ID.QUAL_ID_LIST$ -> LX_LIST.HEAD$,
      141    14520                                       @ERROR#   = %E$DEPEND_ATTR_NOT_MATCH_OCCURS,
      142    14521                                       @LINE     = LINE#,
      143    14522                                       @COLUMN   = COLUMN#,
      144    14523                                       @PLUG1    = DEPEND_ST$ -> SCALAR.DNT$);

  14533 22 000235   200023 470500                    LDP0    @DEPEND$,,AUTO
        22 000236   000000 471500                    LDP1    0,,PR0
        22 000237   100001 473500                    LDP3    1,,PR1
        22 000240   300004 474500                    LDP4    4,,PR3
        22 000241   400000 236100                    LDQ     0,,PR4
        22 000242   400000 316007                    CANQ    -131072,DL
        22 000243   000267 601000 22                 TNZ     s:14553
PL6.E3A0      #001=Z8DQ$QUALIFY_DEPENDING File=Z8DQ.:Z8A6TSI                     SAT 08/09/97 11:17 Page:25

  14535 22 000244   200026 236100                    LDQ     DEPEND_ST$,,AUTO
        22 000245   000006 036003                    ADLQ    6,DU
        22 000246   200037 756100                    STQ     COLUMN#+5,,AUTO
        22 000247   200032 631500                    EPPR1   COLUMN#,,AUTO
        22 000250   200036 451500                    STP1    COLUMN#+4,,AUTO
        22 000251   200031 633500                    EPPR3   LINE#,,AUTO
        22 000252   200035 453500                    STP3    COLUMN#+3,,AUTO
        22 000253   000012 236000 23                 LDQ     10
        22 000254   200034 756100                    STQ     COLUMN#+2,,AUTO
        22 000255   200034 630500                    EPPR0   COLUMN#+2,,AUTO
        22 000256   000006 631400 23                 EPPR1   6
        22 000257   000000 701000 xent               TSX1    Z8AE$ERROR
        22 000260   000000 011000                    NOP     0

  14544 22 000261   200023 470500                    LDP0    @DEPEND$,,AUTO
        22 000262   000000 471500                    LDP1    0,,PR0
        22 000263   100001 473500                    LDP3    1,,PR1
        22 000264   300004 474500                    LDP4    4,,PR3
        22 000265   400000 236007                    LDQ     -131072,DL
        22 000266   400000 256100                    ORSQ    0,,PR4

      145    14553    4              ALTRETURN;

  14553 22 000267   200022 221300                    LDX1  ! COLUMN#+1,,AUTO
        22 000270   000000 702211                    TSX2  ! 0,X1

      146    14554    4            END;
      147    14555    3        END;
      148    14556
      149    14557    2      IF OCCURS$ -> QLT.ST$ -> ARRAY.B.EXTERNAL THEN

  14557 22 000271   200030 470500                    LDP0    OCCURS$,,AUTO
        22 000272   000004 471500                    LDP1    4,,PR0
        22 000273   100003 236100                    LDQ     3,,PR1
        22 000274   000004 316003                    CANQ    4,DU
        22 000275   000357 600000 22                 TZE     s:14606
PL6.E3A0      #001=Z8DQ$QUALIFY_DEPENDING File=Z8DQ.:Z8A6TSI                     SAT 08/09/97 11:17 Page:26

      150    14558    3        DO;

      151    14559    3          FATHER$ = DEPEND_ST$ -> SCALAR.QLT$;

  14559 22 000276   200026 473500                    LDP3    DEPEND_ST$,,AUTO
        22 000277   300007 236100                    LDQ     7,,PR3
        22 000300   200027 756100                    STQ     FATHER$,,AUTO

      152    14560
      153    14561    4          DO WHILE (FATHER$ ~= ADDR(NIL) AND FATHER$ -> QLT.FATHER ~= ADDR(NIL));

  14561 22 000301   000305 710000 22                 TRA     s:14563

      154    14562    4            FATHER$ = FATHER$ -> QLT.FATHER;

  14562 22 000302   200027 470500                    LDP0    FATHER$,,AUTO
        22 000303   000001 236100                    LDQ     1,,PR0
        22 000304   200027 756100                    STQ     FATHER$,,AUTO

      155    14563    4          END; /* While */

  14563 22 000305   000003 116000 23                 CMPQ    3
        22 000306   000313 600000 22                 TZE     s:14565
        22 000307   200027 470500                    LDP0    FATHER$,,AUTO
        22 000310   000001 236100                    LDQ     1,,PR0
        22 000311   000003 116000 23                 CMPQ    3
        22 000312   000302 601000 22                 TNZ     s:14562

      156    14564
      157    14565    3          IF FATHER$ = ADDR(NIL)  OR

  14565 22 000313   200027 236100                    LDQ     FATHER$,,AUTO
        22 000314   000003 116000 23                 CMPQ    3
        22 000315   000323 600000 22                 TZE     s:14582
        22 000316   200027 470500                    LDP0    FATHER$,,AUTO
        22 000317   000004 471500                    LDP1    4,,PR0
PL6.E3A0      #001=Z8DQ$QUALIFY_DEPENDING File=Z8DQ.:Z8A6TSI                     SAT 08/09/97 11:17 Page:27
        22 000320   100003 236100                    LDQ     3,,PR1
        22 000321   000004 316003                    CANQ    4,DU
        22 000322   000357 601000 22                 TNZ     s:14606

      158    14566    3             NOT FATHER$ -> QLT.ST$ -> VARIABLE.B.EXTERNAL THEN
      159    14567    4            DO;

      160    14568                   %CONDITIONAL_ERROR (@LX_ITEM$ =
             14568                       DEPEND$ -> DEFERED_QUAL_ID.QUAL_ID_LIST$ -> LX_LIST.HEAD$,
      161    14569                                       @ERROR#   = %E$DEPEND_ATTR_NOT_MATCH_OCCURS,
      162    14570                                       @LINE     = LINE#,
      163    14571                                       @COLUMN   = COLUMN#,
      164    14572                                       @PLUG1    = DEPEND_ST$ -> SCALAR.DNT$);

  14582 22 000323   200023 470500                    LDP0    @DEPEND$,,AUTO
        22 000324   000000 471500                    LDP1    0,,PR0
        22 000325   100001 473500                    LDP3    1,,PR1
        22 000326   300004 474500                    LDP4    4,,PR3
        22 000327   400000 236100                    LDQ     0,,PR4
        22 000330   400000 316007                    CANQ    -131072,DL
        22 000331   000355 601000 22                 TNZ     s:14602

  14584 22 000332   200026 236100                    LDQ     DEPEND_ST$,,AUTO
        22 000333   000006 036003                    ADLQ    6,DU
        22 000334   200037 756100                    STQ     COLUMN#+5,,AUTO
        22 000335   200032 631500                    EPPR1   COLUMN#,,AUTO
        22 000336   200036 451500                    STP1    COLUMN#+4,,AUTO
        22 000337   200031 633500                    EPPR3   LINE#,,AUTO
        22 000340   200035 453500                    STP3    COLUMN#+3,,AUTO
        22 000341   000012 236000 23                 LDQ     10
        22 000342   200034 756100                    STQ     COLUMN#+2,,AUTO
        22 000343   200034 630500                    EPPR0   COLUMN#+2,,AUTO
        22 000344   000006 631400 23                 EPPR1   6
        22 000345   000000 701000 xent               TSX1    Z8AE$ERROR
        22 000346   000000 011000                    NOP     0

  14593 22 000347   200023 470500                    LDP0    @DEPEND$,,AUTO
PL6.E3A0      #001=Z8DQ$QUALIFY_DEPENDING File=Z8DQ.:Z8A6TSI                     SAT 08/09/97 11:17 Page:28
        22 000350   000000 471500                    LDP1    0,,PR0
        22 000351   100001 473500                    LDP3    1,,PR1
        22 000352   300004 474500                    LDP4    4,,PR3
        22 000353   400000 236007                    LDQ     -131072,DL
        22 000354   400000 256100                    ORSQ    0,,PR4

      165    14602    4              ALTRETURN;

  14602 22 000355   200022 221300                    LDX1  ! COLUMN#+1,,AUTO
        22 000356   000000 702211                    TSX2  ! 0,X1

      166    14603    4            END;
      167    14604    3        END;
      168    14605
      169    14606    2   END DEPENDING_CHECKS;

  14606 22 000357   200022 221300                    LDX1  ! COLUMN#+1,,AUTO
        22 000360   000001 702211                    TSX2  ! 1,X1

      170    14607        %EJECT;
PL6.E3A0      #001=Z8DQ$QUALIFY_DEPENDING File=Z8DQ.:Z8A6TSI                     SAT 08/09/97 11:17 Page:29
      171    14608    1   PROCESS_DEPENDING: PROC (DEPEND_ST$, ASS_VAR_ST$);

  14608 22 000361   200022 741300       PROCESS_DEP* STX1  ! COLUMN#+1,,AUTO

      172    14609
      173    14610    2   DCL DEPEND_ST$                PTR;
      174    14611    2   DCL ASS_VAR_ST$               PTR;
      175    14612
      176    14613    2   DCL DIMS$                     PTR;
      177    14614
      178    14615           %GET_LTS (@ID     = %DIMS,
      179    14616                     @ST$    = ASS_VAR_ST$,
      180    14617                     @RETURN$= DIMS$);

  14619 22 000362   200024 470500                    LDP0    @ASS_VAR_ST$,,AUTO
        22 000363   000000 471500                    LDP1    0,,PR0
        22 000364   100005 236100                    LDQ     5,,PR1
        22 000365   000003 116000 23                 CMPQ    3
        22 000366   000376 600000 22                 TZE     s:14653
        22 000367   100005 473500                    LDP3    5,,PR1
        22 000370   300000 220100                    LDX0    0,,PR3
        22 000371   001105 100003                    CMPX0   581,DU
        22 000372   000376 601000 22                 TNZ     s:14653

  14623 22 000373   300001 236100                    LDQ     1,,PR3
        22 000374   200025 756100                    STQ     DIMS$,,AUTO

  14651 22 000375   000410 710000 22                 TRA     s:14661

  14653 22 000376   000003 116000 23                 CMPQ    3
        22 000377   000406 600000 22                 TZE     s:14657
        22 000400   100005 473500                    LDP3    5,,PR1
        22 000401   300000 220100                    LDX0    0,,PR3
        22 000402   001104 100003                    CMPX0   580,DU
        22 000403   000406 601000 22                 TNZ     s:14657

  14655 22 000404   200025 756100                    STQ     DIMS$,,AUTO
PL6.E3A0      #001=Z8DQ$QUALIFY_DEPENDING File=Z8DQ.:Z8A6TSI                     SAT 08/09/97 11:17 Page:30
        22 000405   000410 710000 22                 TRA     s:14661

  14657 22 000406   000003 236000 23                 LDQ     3
        22 000407   200025 756100                    STQ     DIMS$,,AUTO

      181    14660
      182    14661    2      DIMS$ -> DIMS.DN2 = DEPEND_ST$;

  14661 22 000410   200023 473500                    LDP3    @DEPEND_ST$,,AUTO
        22 000411   300000 236100                    LDQ     0,,PR3
        22 000412   200025 474500                    LDP4    DIMS$,,AUTO
        22 000413   400001 756100                    STQ     1,,PR4

      183    14662
      184    14663    2   END PROCESS_DEPENDING;

  14663 22 000414   200022 221300                    LDX1  ! COLUMN#+1,,AUTO
        22 000415   000001 702211                    TSX2  ! 1,X1

      185    14664        %EJECT;
PL6.E3A0      #001=Z8DQ$QUALIFY_DEPENDING File=Z8DQ.:Z8A6TSI                     SAT 08/09/97 11:17 Page:31
      186    14665    1   CLEAR_EVIDENCE: PROC (ST$$);

  14665 22 000416   200022 741300       CLEAR_EVIDE* STX1  ! COLUMN#+1,,AUTO

      187    14666
      188    14667    2        DCL ST$$          PTR;
      189    14668    2        DCL FATHER$       PTR;
      190    14669
      191    14670
      192    14671    2        FATHER$ = ST$$ -> SCALAR.QLT$;

  14671 22 000417   200023 470500                    LDP0    @ST$$,,AUTO
        22 000420   000000 471500                    LDP1    0,,PR0
        22 000421   100007 236100                    LDQ     7,,PR1
        22 000422   200024 756100                    STQ     FATHER$,,AUTO

      193    14672
      194    14673    3        DO WHILE (FATHER$ ~= ADDR(NIL));

  14673 22 000423   000432 710000 22                 TRA     s:14676

      195    14674    3          FATHER$ -> QLT.ST$ -> SCALAR.B.OCCURS_DEPENDING = FALSE;

  14674 22 000424   200024 470500                    LDP0    FATHER$,,AUTO
        22 000425   000004 471500                    LDP1    4,,PR0
        22 000426   000013 236000 23                 LDQ     11
        22 000427   100003 356100                    ANSQ    3,,PR1

      196    14675    3          FATHER$ = FATHER$ -> QLT.FATHER;

  14675 22 000430   000001 236100                    LDQ     1,,PR0
        22 000431   200024 756100                    STQ     FATHER$,,AUTO

      197    14676    3        END;

  14676 22 000432   000003 116000 23                 CMPQ    3
        22 000433   000424 601000 22                 TNZ     s:14674
PL6.E3A0      #001=Z8DQ$QUALIFY_DEPENDING File=Z8DQ.:Z8A6TSI                     SAT 08/09/97 11:17 Page:32

      198    14677
      199    14678    2   END CLEAR_EVIDENCE;

  14678 22 000434   200022 221300                    LDX1  ! COLUMN#+1,,AUTO
        22 000435   000001 702211                    TSX2  ! 1,X1

      200    14679        %EJECT;
PL6.E3A0      #001=Z8DQ$QUALIFY_DEPENDING File=Z8DQ.:Z8A6TSI                     SAT 08/09/97 11:17 Page:33
      201    14680
      202    14681    1      DEPEND$ = DEPENDING_LIST$;

  14681 22 000436   200003 470500                    LDP0    @DEPENDING_LIST$,,AUTO
        22 000437   000000 236100                    LDQ     0,,PR0
        22 000440   200004 756100                    STQ     DEPEND$,,AUTO

      203    14682
      204    14683    2      DO WHILE (DEPEND$ ~= ADDR(NIL));

  14683 22 000441   000662 710000 22                 TRA     s:14829

      205    14684    2        CALL Z8CO$QUALIFY_VARIABLE (DEPEND$ -> DEFERED_QUAL_ID.QUAL_ID_LIST$,

  14684 22 000442   200005 630500                    EPPR0   QUAL_ST$,,AUTO
        22 000443   200035 450500                    STP0    COLUMN#+3,,AUTO
        22 000444   200004 236100                    LDQ     DEPEND$,,AUTO
        22 000445   000001 036003                    ADLQ    1,DU
        22 000446   200034 756100                    STQ     COLUMN#+2,,AUTO
        22 000447   200034 630500                    EPPR0   COLUMN#+2,,AUTO
        22 000450   000014 631400 23                 EPPR1   12
        22 000451   000000 701000 xent               TSX1    Z8CO$QUALIFY_VARIABLE
        22 000452   000000 011000                    NOP     0

      206    14685    2                                    QUAL_ST$);
      207    14686
      208    14687    2        LINE# = DEPEND$ -> DEFERED_QUAL_ID.QUAL_ID_LIST$ -> LX_LIST.HEAD$ ->

  14687 22 000453   200004 470500                    LDP0    DEPEND$,,AUTO
        22 000454   000001 471500                    LDP1    1,,PR0
        22 000455   100004 473500                    LDP3    4,,PR1
        22 000456   300005 235100                    LDA     5,,PR3
        22 000457   200020 755100                    STA     LINE#,,AUTO

      209    14688    2                LX_ITEM.LINE;
      210    14689    2        COLUMN# = DEPEND$ -> DEFERED_QUAL_ID.QUAL_ID_LIST$ -> LX_LIST.HEAD$ ->

PL6.E3A0      #001=Z8DQ$QUALIFY_DEPENDING File=Z8DQ.:Z8A6TSI                     SAT 08/09/97 11:17 Page:34
  14689 22 000460   000001 471500                    LDP1    1,,PR0
        22 000461   100004 473500                    LDP3    4,,PR1
        22 000462   300006 235100                    LDA     6,,PR3
        22 000463   200021 755100                    STA     COLUMN#,,AUTO

      211    14690    2                  LX_ITEM.COLUMN;
      212    14691
      213    14692    2        IF QUAL_ST$ -> VARIABLE.B.OCCURS_DEPENDING THEN

  14692 22 000464   200005 471500                    LDP1    QUAL_ST$,,AUTO
        22 000465   100003 236100                    LDQ     3,,PR1
        22 000466   000200 316003                    CANQ    128,DU
        22 000467   000543 600000 22                 TZE     s:14779

      214    14693    3          DO;

      215    14694                 %GET_LTS (@ID  = %DEPENDING_SIZE,
      216    14695                           @ST$ = QUAL_ST$);

  14697 22 000470   100005 236100                    LDQ     5,,PR1
        22 000471   000003 116000 23                 CMPQ    3
        22 000472   000502 600000 22                 TZE     s:14731
        22 000473   100005 473500                    LDP3    5,,PR1
        22 000474   300000 220100                    LDX0    0,,PR3
        22 000475   001105 100003                    CMPX0   581,DU
        22 000476   000502 601000 22                 TNZ     s:14731

  14709 22 000477   300004 236100                    LDQ     4,,PR3
        22 000500   000000 756000 7                  STQ     LTS$

  14729 22 000501   000514 710000 22                 TRA     s:14738

  14731 22 000502   000003 116000 23                 CMPQ    3
        22 000503   000512 600000 22                 TZE     s:14735
        22 000504   100005 473500                    LDP3    5,,PR1
        22 000505   300000 220100                    LDX0    0,,PR3
        22 000506   001120 100003                    CMPX0   592,DU
PL6.E3A0      #001=Z8DQ$QUALIFY_DEPENDING File=Z8DQ.:Z8A6TSI                     SAT 08/09/97 11:17 Page:35
        22 000507   000512 601000 22                 TNZ     s:14735

  14733 22 000510   000000 756000 7                  STQ     LTS$
        22 000511   000514 710000 22                 TRA     s:14738

  14735 22 000512   000003 236000 23                 LDQ     3
        22 000513   000000 756000 7                  STQ     LTS$

      217    14738    3            IF LTS$ = ADDR(NIL) THEN

  14738 22 000514   000003 116000 23                 CMPQ    3
        22 000515   000543 601000 22                 TNZ     s:14779

      218    14739    4              DO; /* Compiler already has check but this would cause abort

      219    14740                          before compilation gets that far */
      220    14741                     %CONDITIONAL_ERROR (@LX_ITEM$ =
      221    14742                                  DEPEND$ -> DEFERED_QUAL_ID.QUAL_ID_LIST$ -> LX_LIST.HEAD$
             14742                                             ,
      222    14743                                         @ERROR#   = %E$MUST_BE_INTEGER,
      223    14744                                         @LINE     = LINE#,
      224    14745                                         @COLUMN   = COLUMN#);

  14755 22 000516   000001 473500                    LDP3    1,,PR0
        22 000517   300004 474500                    LDP4    4,,PR3
        22 000520   400000 236100                    LDQ     0,,PR4
        22 000521   400000 316007                    CANQ    -131072,DL
        22 000522   000542 601000 22                 TNZ     s:14775

  14757 22 000523   200021 635500                    EPPR5   COLUMN#,,AUTO
        22 000524   200036 455500                    STP5    COLUMN#+4,,AUTO
        22 000525   200020 633500                    EPPR3   LINE#,,AUTO
        22 000526   200035 453500                    STP3    COLUMN#+3,,AUTO
        22 000527   000016 236000 23                 LDQ     14
        22 000530   200034 756100                    STQ     COLUMN#+2,,AUTO
        22 000531   200034 630500                    EPPR0   COLUMN#+2,,AUTO
        22 000532   000000 631400 23                 EPPR1   0
PL6.E3A0      #001=Z8DQ$QUALIFY_DEPENDING File=Z8DQ.:Z8A6TSI                     SAT 08/09/97 11:17 Page:36
        22 000533   000000 701000 xent               TSX1    Z8AE$ERROR
        22 000534   000000 011000                    NOP     0

  14766 22 000535   200004 470500                    LDP0    DEPEND$,,AUTO
        22 000536   000001 471500                    LDP1    1,,PR0
        22 000537   100004 473500                    LDP3    4,,PR1
        22 000540   400000 236007                    LDQ     -131072,DL
        22 000541   300000 256100                    ORSQ    0,,PR3

      225    14775    4                GOTO ERROR;

  14775 22 000542   000652 710000 22                 TRA     ERROR

      226    14776    4              END;
      227    14777    3          END;
      228    14778
      229    14779    2        CALL Z8AF$NEW_BASE (QUAL_ST$, ADDR(NIL), QUAL_ETT$);

  14779 22 000543   000003 236000 23                 LDQ     3
        22 000544   200034 756100                    STQ     COLUMN#+2,,AUTO
        22 000545   200006 633500                    EPPR3   QUAL_ETT$,,AUTO
        22 000546   200037 453500                    STP3    COLUMN#+5,,AUTO
        22 000547   200034 634500                    EPPR4   COLUMN#+2,,AUTO
        22 000550   200036 454500                    STP4    COLUMN#+4,,AUTO
        22 000551   200005 635500                    EPPR5   QUAL_ST$,,AUTO
        22 000552   200035 455500                    STP5    COLUMN#+3,,AUTO
        22 000553   200035 630500                    EPPR0   COLUMN#+3,,AUTO
        22 000554   000000 631400 23                 EPPR1   0
        22 000555   000000 701000 xent               TSX1    Z8AF$NEW_BASE
        22 000556   000000 011000                    NOP     0

      230    14780
      231    14781             %INIT_LX_ETT_ITEM (@POINTER = "ADDR(DEPEND_GUY)",
      232    14782                                @TYPE    = QUAL_ST$ -> VARIABLE.TYPE,
      233    14783                                @ETT$    = QUAL_ETT$,
      234    14784                                @LINE    = LINE#,
      235    14785                                @COLUMN  = COLUMN#);
PL6.E3A0      #001=Z8DQ$QUALIFY_DEPENDING File=Z8DQ.:Z8A6TSI                     SAT 08/09/97 11:17 Page:37

  14787 22 000557   000004 220003                    LDX0    4,DU
        22 000560   200010 740100                    STX0    DEPEND_GUY,,AUTO

  14788 22 000561   000000 221003                    LDX1    0,DU
        22 000562   200010 441100                    SXL1    DEPEND_GUY,,AUTO

  14789 22 000563   200005 470500                    LDP0    QUAL_ST$,,AUTO
        22 000564   000002 236100                    LDQ     2,,PR0
        22 000565   000022 772000                    QRL     18
        22 000566   200014 756100                    STQ     DEPEND_GUY+4,,AUTO

  14790 22 000567   000003 236000 23                 LDQ     3
        22 000570   200017 756100                    STQ     DEPEND_GUY+7,,AUTO

  14791 22 000571   200006 236100                    LDQ     QUAL_ETT$,,AUTO
        22 000572   200011 756100                    STQ     DEPEND_GUY+1,,AUTO

  14792 22 000573   000003 236000 23                 LDQ     3
        22 000574   200012 756100                    STQ     DEPEND_GUY+2,,AUTO

  14794 22 000575   200020 235100                    LDA     LINE#,,AUTO
        22 000576   200015 755100                    STA     DEPEND_GUY+5,,AUTO

  14795 22 000577   200021 235100                    LDA     COLUMN#,,AUTO
        22 000600   200016 755100                    STA     DEPEND_GUY+6,,AUTO

      236    14807
      237    14808    2        CALL Z8CO$INTEGER_CHECK (ADDR(DEPEND_GUY)) ALTRET (ERROR);

  14808 22 000601   200010 631500                    EPPR1   DEPEND_GUY,,AUTO
        22 000602   200034 451500                    STP1    COLUMN#+2,,AUTO
        22 000603   200034 633500                    EPPR3   COLUMN#+2,,AUTO
        22 000604   200035 453500                    STP3    COLUMN#+3,,AUTO
        22 000605   200035 630500                    EPPR0   COLUMN#+3,,AUTO
        22 000606   000017 631400 23                 EPPR1   15
        22 000607   000000 701000 xent               TSX1    Z8CO$INTEGER_CHECK
PL6.E3A0      #001=Z8DQ$QUALIFY_DEPENDING File=Z8DQ.:Z8A6TSI                     SAT 08/09/97 11:17 Page:38
        22 000610   000652 702000 22                 TSX2    ERROR

      238    14809    2        CALL Z8EV$CONVERT (%TYI, ADDR(DEPEND_GUY), ADDR(DEPEND_GUY));

  14809 22 000611   200010 630500                    EPPR0   DEPEND_GUY,,AUTO
        22 000612   200034 450500                    STP0    COLUMN#+2,,AUTO
        22 000613   200010 631500                    EPPR1   DEPEND_GUY,,AUTO
        22 000614   200035 451500                    STP1    COLUMN#+3,,AUTO
        22 000615   200035 633500                    EPPR3   COLUMN#+3,,AUTO
        22 000616   200040 453500                    STP3    COLUMN#+6,,AUTO
        22 000617   200034 634500                    EPPR4   COLUMN#+2,,AUTO
        22 000620   200037 454500                    STP4    COLUMN#+5,,AUTO
        22 000621   000021 236000 23                 LDQ     17
        22 000622   200036 756100                    STQ     COLUMN#+4,,AUTO
        22 000623   200036 630500                    EPPR0   COLUMN#+4,,AUTO
        22 000624   000000 631400 23                 EPPR1   0
        22 000625   000000 701000 xent               TSX1    Z8EV$CONVERT
        22 000626   000000 011000                    NOP     0

      239    14810
      240    14811    2        QUAL_ETT$ = ADDR(DEPEND_GUY) -> LX_ETT_ITEM.ETT$;

  14811 22 000627   200011 236100                    LDQ     DEPEND_GUY+1,,AUTO
        22 000630   200006 756100                    STQ     QUAL_ETT$,,AUTO

      241    14812
      242    14813    2        CALL DEPENDING_CHECKS (DEPEND$, QUAL_ETT$,

  14813 22 000631   200004 236100                    LDQ     DEPEND$,,AUTO
        22 000632   000002 036003                    ADLQ    2,DU
        22 000633   200025 756100                    STQ     FATHER$+1,,AUTO
        22 000634   200006 630500                    EPPR0   QUAL_ETT$,,AUTO
        22 000635   200024 450500                    STP0    @ST$$+1,,AUTO
        22 000636   200004 631500                    EPPR1   DEPEND$,,AUTO
        22 000637   200023 451500                    STP1    COLUMN#+2,,AUTO
        22 000640   000003 701000 22                 TSX1    DEPENDING_CHECKS
        22 000641   000652 702000 22                 TSX2    ERROR
PL6.E3A0      #001=Z8DQ$QUALIFY_DEPENDING File=Z8DQ.:Z8A6TSI                     SAT 08/09/97 11:17 Page:39

      243    14814    2                               DEPEND$ -> DEFERED_QUAL_ID.ASSOC_VAR_ST$)
      244    14815    2                               ALTRET (ERROR);
      245    14816
      246    14817    2        CALL PROCESS_DEPENDING (QUAL_ETT$,

  14817 22 000642   200004 236100                    LDQ     DEPEND$,,AUTO
        22 000643   000002 036003                    ADLQ    2,DU
        22 000644   200024 756100                    STQ     @ST$$+1,,AUTO
        22 000645   200006 630500                    EPPR0   QUAL_ETT$,,AUTO
        22 000646   200023 450500                    STP0    COLUMN#+2,,AUTO
        22 000647   000361 701000 22                 TSX1    PROCESS_DEPENDING
        22 000650   000000 011000                    NOP     0

      247    14818    2                                DEPEND$ -> DEFERED_QUAL_ID.ASSOC_VAR_ST$);
      248    14819
      249    14820    2        GOTO NO_ERROR;

  14820 22 000651   000657 710000 22                 TRA     NO_ERROR

      250    14821
      251    14822    2   ERROR:
      252    14823    2        CALL CLEAR_EVIDENCE (DEPEND$ -> DEFERED_QUAL_ID.ASSOC_VAR_ST$);

  14823 22 000652   200004 236100       ERROR        LDQ     DEPEND$,,AUTO
        22 000653   000002 036003                    ADLQ    2,DU
        22 000654   200023 756100                    STQ     COLUMN#+2,,AUTO
        22 000655   000416 701000 22                 TSX1    CLEAR_EVIDENCE
        22 000656   000000 011000                    NOP     0

      253    14824
      254    14825    2   NO_ERROR:
      255    14826
      256    14827
      257    14828    2        DEPEND$ = DEPEND$ -> DEFERED_QUAL_ID.LINK;

  14828 22 000657   200004 470500       NO_ERROR     LDP0    DEPEND$,,AUTO
PL6.E3A0      #001=Z8DQ$QUALIFY_DEPENDING File=Z8DQ.:Z8A6TSI                     SAT 08/09/97 11:17 Page:40
        22 000660   000007 236100                    LDQ     7,,PR0
        22 000661   200004 756100                    STQ     DEPEND$,,AUTO

      258    14829    2      END; /* While depend ~= addr(nil) */

  14829 22 000662   000003 116000 23                 CMPQ    3
        22 000663   000442 601000 22                 TNZ     s:14684

      259    14830
      260    14831    1      CALL Z8ED$DISPOSE_ABSSYN_TREE (O1COM.OCCURS_DEPENDING$);

  14831 22 000664   000022 630400 23                 EPPR0   18
        22 000665   000017 631400 23                 EPPR1   15
        22 000666   000000 701000 xent               TSX1    Z8ED$DISPOSE_ABSSYN_TREE
        22 000667   000000 011000                    NOP     0

      261    14832
      262    14833    1      RETURN;

  14833 22 000670   000000 702200 xent               TSX2  ! X66_ARET
      263    14834
      264    14835    1   END Z8DQ$QUALIFY_DEPENDING;
      265    14836        %EOD;

PL6.E3A0      #001=Z8DQ$QUALIFY_DEPENDING File=Z8DQ.:Z8A6TSI                     SAT 08/09/97 11:17 Page:41
--  Include file information  --

   Z8E_HEAP.:Z8A6TOU  cannot be made into a system file and is referenced.
   Z8E_ABSSYN.:Z8A6TOU  cannot be made into a system file and is referenced.
   Z8E_NEW_ILL.:Z8A6TOU  is referenced.
   Z8E_MACROS.:Z8A6TOU  cannot be made into a system file and is referenced.
   Z8E_O1COM.:Z8A6TOU  cannot be made into a system file and is referenced.
   Z8A_LEX_SYMB.:Z8A6TOU  cannot be made into a system file and is referenced.
   Z8E_STACKS.:Z8A6TOU  cannot be made into a system file and is referenced.
   Z8A_DNT.:Z8A6TOU  cannot be made into a system file and is referenced.
   Z8A_QLT.:Z8A6TOU  cannot be made into a system file and is referenced.
   Z8A_LTS.:Z8A6TOU  cannot be made into a system file and is referenced.
   Z8A_TYPES.:Z8A6TOU  is referenced.
   Z8A_ETT.:Z8A6TOU  cannot be made into a system file and is referenced.
   Z8A_ST.:Z8A6TOU  cannot be made into a system file and is referenced.
   Z8A_ERR_NUMS.:Z8A6TOU  is referenced.
   Z8A_COMCOM.:Z8A6TOU  cannot be made into a system file and is referenced.
   X8A_COM_MACS.:X8A6TOU  is referenced.
   Z8A_NAMES.:Z8A6TOU  is referenced.
   Z8A_SUPP_MAC.:Z8A6TOU  is referenced.
   Z8A_DEFC.:Z8A6TOU  cannot be made into a system file and is referenced.
      No diagnostics issued in procedure Z8DQ$QUALIFY_DEPENDING.
PL6.E3A0      #001=Z8DQ$QUALIFY_DEPENDING File=Z8DQ.:Z8A6TSI                     SAT 08/09/97 11:17 Page:42

 **** Variables and constants ****

  ****  Section 000 LblCom ITERATION

  ****  Scalars and arrays  ****
OctLoc.c.b A Datatyp(siz) R M Lvl/name                 OctLoc.c.b A Datatyp(siz) R M Lvl/name

     0-0-0/w SBIN              1 ITERATION

  ****  Section 001 LblCom ST$

  ****  Scalars and arrays  ****
OctLoc.c.b A Datatyp(siz) R M Lvl/name                 OctLoc.c.b A Datatyp(siz) R M Lvl/name

     0-0-0/w PTR         r     1 ST$

  ****  Section 002 LblCom ST_

  ****  Scalars and arrays  ****
OctLoc.c.b A Datatyp(siz) R M Lvl/name                 OctLoc.c.b A Datatyp(siz) R M Lvl/name

     0-0-0/w STRC(180)         1 ST_

  ****  Section 003 LblCom ETT$

  ****  Scalars and arrays  ****
OctLoc.c.b A Datatyp(siz) R M Lvl/name                 OctLoc.c.b A Datatyp(siz) R M Lvl/name

     0-0-0/w PTR         r     1 ETT$

  ****  Section 004 LblCom HEAD_ETT$

  ****  Scalars and arrays  ****
OctLoc.c.b A Datatyp(siz) R M Lvl/name                 OctLoc.c.b A Datatyp(siz) R M Lvl/name

     0-0-0/w PTR               1 HEAD_ETT$

PL6.E3A0      #001=Z8DQ$QUALIFY_DEPENDING File=Z8DQ.:Z8A6TSI                     SAT 08/09/97 11:17 Page:43
  ****  Section 005 LblCom ETT_BUCKETS

  ****  Scalars and arrays  ****
OctLoc.c.b A Datatyp(siz) R M Lvl/name                 OctLoc.c.b A Datatyp(siz) R M Lvl/name

     0-0-0/w PTR               1 ETT_BUCKETS(0:511)

  ****  Section 006 LblCom ETT_

  ****  Scalars and arrays  ****
OctLoc.c.b A Datatyp(siz) R M Lvl/name                 OctLoc.c.b A Datatyp(siz) R M Lvl/name

     0-0-0/w STRC(180)         1 ETT_

  ****  Section 007 LblCom LTS$

  ****  Scalars and arrays  ****
OctLoc.c.b A Datatyp(siz) R M Lvl/name                 OctLoc.c.b A Datatyp(siz) R M Lvl/name

     0-0-0/w PTR               1 LONG_ITEM$                 0-0-0/w PTR         r     1 LTS$

  ****  Section 008 LblCom LTS_

  ****  Scalars and arrays  ****
OctLoc.c.b A Datatyp(siz) R M Lvl/name                 OctLoc.c.b A Datatyp(siz) R M Lvl/name

     0-0-0/w STRC(180)         1 LTS_

  ****  Section 009 LblCom QLT$

  ****  Scalars and arrays  ****
OctLoc.c.b A Datatyp(siz) R M Lvl/name                 OctLoc.c.b A Datatyp(siz) R M Lvl/name

     0-0-0/w PTR         r     1 QLT$

  ****  Section 010 LblCom PREV_01_QLT$

PL6.E3A0      #001=Z8DQ$QUALIFY_DEPENDING File=Z8DQ.:Z8A6TSI                     SAT 08/09/97 11:17 Page:44
  ****  Scalars and arrays  ****
OctLoc.c.b A Datatyp(siz) R M Lvl/name                 OctLoc.c.b A Datatyp(siz) R M Lvl/name

     0-0-0/w PTR               1 PREV_01_QLT$

  ****  Section 011 LblCom QLT_

  ****  Scalars and arrays  ****
OctLoc.c.b A Datatyp(siz) R M Lvl/name                 OctLoc.c.b A Datatyp(siz) R M Lvl/name

     0-0-0/w STRC(180)         1 QLT_

  ****  Section 012 LblCom DNT$

  ****  Scalars and arrays  ****
OctLoc.c.b A Datatyp(siz) R M Lvl/name                 OctLoc.c.b A Datatyp(siz) R M Lvl/name

     0-0-0/w PTR         r     1 DNT$

  ****  Section 013 LblCom DNT_

  ****  Scalars and arrays  ****
OctLoc.c.b A Datatyp(siz) R M Lvl/name                 OctLoc.c.b A Datatyp(siz) R M Lvl/name

     0-0-0/w STRC(180)         1 DNT_

  ****  Section 014 LblCom DNT_BUCKET_NUMBER

  ****  Scalars and arrays  ****
OctLoc.c.b A Datatyp(siz) R M Lvl/name                 OctLoc.c.b A Datatyp(siz) R M Lvl/name

     0-0-0/w UBIN              1 DNT_BUCKET_NUMBER

  ****  Section 015 LblCom DNT_OF_1$

  ****  Scalars and arrays  ****
OctLoc.c.b A Datatyp(siz) R M Lvl/name                 OctLoc.c.b A Datatyp(siz) R M Lvl/name
PL6.E3A0      #001=Z8DQ$QUALIFY_DEPENDING File=Z8DQ.:Z8A6TSI                     SAT 08/09/97 11:17 Page:45

     0-0-0/w PTR               1 DNT_OF_1$

  ****  Section 016 LblCom LEX_SYMBOL

  ****  Scalars and arrays  ****
OctLoc.c.b A Datatyp(siz) R M Lvl/name                 OctLoc.c.b A Datatyp(siz) R M Lvl/name

     0-0-0/w STRC(3240)  r     1 LEX_SYMBOL                 0-0-0/w STRC(3240)        1 LEX_SYMBOL_WORDS

  ****  Section 017 LblCom CURRENT_LEX_SYMBOL$

  ****  Scalars and arrays  ****
OctLoc.c.b A Datatyp(siz) R M Lvl/name                 OctLoc.c.b A Datatyp(siz) R M Lvl/name

     0-0-0/w PTR         r     1 CURRENT_LEX_SYMBOL$

  ****  Section 018 LblCom TEMP_LEX_SYMBOL

  ****  Scalars and arrays  ****
OctLoc.c.b A Datatyp(siz) R M Lvl/name                 OctLoc.c.b A Datatyp(siz) R M Lvl/name

     0-0-0/w STRC(3240)        1 TEMP_LEX_SYMBOL

  ****  Section 019 LblCom TEMP_LEX_SYMBOL2

  ****  Scalars and arrays  ****
OctLoc.c.b A Datatyp(siz) R M Lvl/name                 OctLoc.c.b A Datatyp(siz) R M Lvl/name

     0-0-0/w STRC(3240)        1 TEMP_LEX_SYMBOL2

  ****  Section 020 LblCom TEMP_LX_NODE

  ****  Scalars and arrays  ****
OctLoc.c.b A Datatyp(siz) R M Lvl/name                 OctLoc.c.b A Datatyp(siz) R M Lvl/name

     0-0-0/d STRC(288)         1 TEMP_LX_NODE
PL6.E3A0      #001=Z8DQ$QUALIFY_DEPENDING File=Z8DQ.:Z8A6TSI                     SAT 08/09/97 11:17 Page:46

  ****  Section 021 LblCom HEAP$

  ****  Scalars and arrays  ****
OctLoc.c.b A Datatyp(siz) R M Lvl/name                 OctLoc.c.b A Datatyp(siz) R M Lvl/name

     0-0-0/w PTR               1 HEAP$

  ****  Auto variables  ****

  ****  Scalars and arrays  ****
OctLoc.c.b A Datatyp(siz) R M Lvl/name                 OctLoc.c.b A Datatyp(siz) R M Lvl/name

    25-0-0/w PTR         r     1 @ASSOC_VAR_ST$            24-0-0/w PTR         r     1 @ASS_VAR_ST$
    23-0-0/w PTR         r     1 @DEPEND$                   3-0-0/w PTR         r     1 @DEPENDING_LIST$
    24-0-0/w PTR         r     1 @DEPEND_ETT$              23-0-0/w PTR         r     1 @DEPEND_ST$
    23-0-0/w PTR         r     1 @ST$$                     *0-0-0/w PTR         r     1 ASSOC_VAR_ST$
    *0-0-0/w PTR         r     1 ASS_VAR_ST$               21-0-0/w SBIN        r     1 COLUMN#
    32-0-0/w SBIN        r     1 COLUMN#                    4-0-0/w PTR         r     1 DEPEND$
    *0-0-0/w PTR         r     1 DEPEND$                   *0-0-0/w PTR         r     1 DEPENDING_LIST$
    *0-0-0/w PTR         r     1 DEPEND_ETT$               10-0-0/d STRC(288)   r     1 DEPEND_GUY
    26-0-0/w PTR         r     1 DEPEND_ST$                *0-0-0/w PTR         r     1 DEPEND_ST$
    25-0-0/w PTR         r     1 DIMS$                     27-0-0/w PTR         r     1 FATHER$
    24-0-0/w PTR         r     1 FATHER$                   20-0-0/w SBIN        r     1 LINE#
    31-0-0/w SBIN        r     1 LINE#                     30-0-0/w PTR         r     1 OCCURS$
     6-0-0/w PTR         r     1 QUAL_ETT$                  5-0-0/w PTR         r     1 QUAL_ST$
    *0-0-0/w PTR         r     1 ST$$

  ****  SYMREF variables  ****

  ****  Scalars and arrays  ****
OctLoc.c.b A Datatyp(siz) R M Lvl/name                 OctLoc.c.b A Datatyp(siz) R M Lvl/name

     0-0-0/d STRC(13248)       1 COMCOM
     0-0-0/w STRC(180)         1 HIER_STK(0:50)
     0-0-0/w SBIN              1 HIER_STK_PTR
     0-0-0/w UBIN              1 LTS_STEP(0:37)
PL6.E3A0      #001=Z8DQ$QUALIFY_DEPENDING File=Z8DQ.:Z8A6TSI                     SAT 08/09/97 11:17 Page:47
     0-0-0/d STRC(11580) r     1 O1COM                      0-0-0/w STRC(144)         1 PAGE_FORMAT
     0-0-0/w STRC(153)         1 REP_STK(0:50)              0-0-0/w SBIN              1 REP_STK_PTR

  ****  BASED and DCB variables  ****

  ****  Scalars and arrays  ****
OctLoc.c.b A Datatyp(siz) R M Lvl/name                 OctLoc.c.b A Datatyp(siz) R M Lvl/name

     0-0-0/w STRC(288)         1 ADD_STMT                   0-0-0/w STRC(396)         1 ALPHABET
     0-0-0/w STRC(144)         1 ALTER_LTS                  0-0-0/w STRC(3672)        1 ALT_KEY
     0-0-0/w STRC(36864)       1 ARGLIST                    0-0-0/w STRC(396)   r     1 ARRAY
     0-0-0/w STRC(180)         1 ARRAY_PRESET_LTS           0-0-0/w ASTR(324)   r     1 BASED_LEX_SYMBOL
     0-0-0/w STRC(360)         1 BASED_LEX_SYMBOL_WORDS
     0-0-0/w STRC(288)         1 BASE_LTS                   0-0-0/w STRC(288)         1 BINARY_OP
     0-0-0/w STRC(396)         1 BLOCK                      0-0-0/w STRC(144)         1 BT
     0-0-0/w STRC(288)         1 CALL_STMT                  0-0-0/w STRC(396)         1 CD
     0-0-0/w STRC(288)         1 CD_LTS                     0-0-0/w CHAR(4096)        1 CHARS
     0-0-0/w STRC(396)         1 CLASS                      0-0-0/w STRC(288)         1 COMPUTE_STMT
     0-0-0/w STRC(396)         1 CONDITION                  0-0-0/w STRC(396)         1 CONST
     0-0-0/w STRC(72)          1 CONT                       0-0-0/w STRC(540)         1 CONTROL_NAME_LTS
     0-0-0/w STRC(1872)        1 COPY_FILE                  0-0-0/w STRC(396)         1 DB
     0-0-0/w STRC(396)         1 DCB_                       0-0-0/w STRC(288)         1 DEFERED_IDENTIFIER
     0-0-0/w STRC(252)         1 DEFERED_ID_TREE            0-0-0/w STRC(288)   r     1 DEFERED_QUAL_ID
     0-0-0/w STRC(288)         1 DEFERED_SUM_CLAUSE
     0-0-0/w STRC(288)         1 DEFERED_SUM_CLAUSE_LIST
     0-0-0/w STRC(288)         1 DELETE_STMT                0-0-0/w STRC(108)         1 DEPENDING_SIZE
     0-0-0/w STRC(5472)  r     1 DIMS                       0-0-0/w STRC(288)         1 DIVIDE_STMT
     0-0-0/w STRC(396)         1 DML_ITEM                   0-0-0/w STRC(216)         1 DML_REC
     0-0-0/w ASTR(180)   r     1 DNT                        0-0-0/w STRC(180)   r     1 ETT
     0-0-0/w STRC(73836)       1 EVALUATE                   0-0-0/w STRC(396)         1 FD
     0-0-0/w STRC(1692)        1 FILE_LTS                   0-0-0/w STRC(288)         1 ILS_LIST
     0-0-0/w STRC(108)         1 INDEXES                    0-0-0/w STRC(360)         1 INIT_LTS
     0-0-0/w STRC(288)         1 INSPECT_1_STMT             0-0-0/w STRC(288)         1 INSPECT_2_STMT
     0-0-0/w STRC(288)         1 INSPECT_4_STMT             0-0-0/w STRC(396)         1 INTDEF
     0-0-0/w STRC(180)         1 IO_RESTORE_CHAIN           0-0-0/w STRC(144)         1 KEY
     0-0-0/w STRC(396)         1 LABEL                      0-0-0/w STRC(288)         1 LA_ITEM
     0-0-0/w STRC(36864)       1 LCNST                      0-0-0/w STRC(72)          1 LONG
PL6.E3A0      #001=Z8DQ$QUALIFY_DEPENDING File=Z8DQ.:Z8A6TSI                     SAT 08/09/97 11:17 Page:48
     0-0-0/w STRC        r     1 LTS                        0-0-0/w STRC(360)   r     1 LTSS
     0-0-0/w STRC(36936)       1 LTS_PTR_ARRAY              0-0-0/w STRC(504)         1 LX_CD_INPUT
     0-0-0/w STRC(324)         1 LX_CD_I_O                  0-0-0/w STRC(396)         1 LX_CD_OUTPUT
     0-0-0/w STRC(288)   r     1 LX_ETT_ITEM                0-0-0/w STRC(288)   r     1 LX_ITEM
     0-0-0/w STRC(288)         1 LX_LARGE                   0-0-0/w STRC(288)   r     1 LX_LIST
     0-0-0/w STRC(1224)        1 LX_REC_DECL                0-0-0/w STRC(864)         1 LX_REPORT_REC
     0-0-0/w STRC(288)         1 LX_TERMINAL                0-0-0/w STRC(396)         1 MNEMONIC
     0-0-0/w STRC(288)         1 MULTIPLY_STMT              0-0-0/w STRC(144)         1 NEL
     0-0-0/w STRC(216)         1 OPEN_LTS                   0-0-0/w STRC(36864)       1 PAGE
     0-0-0/w STRC(396)         1 PARA                       0-0-0/w STRC(144)         1 PRIME
     0-0-0/w STRC(396)         1 PROC_                      0-0-0/w STRC(396)         1 PROC_DEF
     0-0-0/w STRC(900)         1 PROC_SUPP                  0-0-0/w STRC(216)   r     1 QLT
     0-0-0/w STRC(396)         1 RD                         0-0-0/w STRC(288)         1 READ_STMT
     0-0-0/w STRC(216)         1 REF                        0-0-0/w STRC(108)         1 RENAMES
     0-0-0/w STRC(720)         1 REPORT_01_LTS              0-0-0/w STRC(432)         1 REPORT_ELEM_LTS
     0-0-0/w STRC(252)         1 REPORT_GRP_LTS             0-0-0/w STRC(1332)        1 REPORT_LTS
     0-0-0/w STRC(288)         1 REWRITE_STMT               0-0-0/w STRC(144)         1 RVA_LTS
     0-0-0/w STRC(396)   r     1 SCALAR                     0-0-0/w STRC(396)         1 SD
     0-0-0/w STRC(396)         1 SECTION                    0-0-0/w STRC(396)         1 SEGMENT
     0-0-0/w STRC(360)         1 SEGMENT_LTS                0-0-0/w STRC(396)   r     1 ST
     0-0-0/w STRC(288)         1 START_STMT                 0-0-0/w STRC(252)         1 STRING_STMT
     0-0-0/w STRC(288)         1 SUBTRACT_STMT              0-0-0/w STRC(252)         1 SUM_LTS
     0-0-0/w STRC(396)         1 SWITCH                     0-0-0/w STRC(396)         1 SYMBOLIC_CHAR
     0-0-0/w STRC(396)         1 SYMDEF_                    0-0-0/w STRC(396)         1 SYMREF_
     0-0-0/w STRC(396)         1 TEMP                       0-0-0/w STRC(288)         1 UNARY_OP
     0-0-0/w STRC(288)         1 UNSTRING_STMT              0-0-0/d STRC(612)         1 USE
     0-0-0/w STRC(252)         1 USE_SUPP                   0-0-0/w STRC(396)   r     1 VARIABLE
     0-0-0/w STRC(288)         1 WRITE_STMT


   Procedure Z8DQ$QUALIFY_DEPENDING requires 441 words for executable code.
   Procedure Z8DQ$QUALIFY_DEPENDING requires 34 words of local(AUTO) storage.

PL6.E3A0      #002=Z8DQ$QUALIFY_KEYS File=Z8DQ.:Z8A6TSI                          SAT 08/09/97 11:19 Page:49
      266        1        /*T***********************************************************/
      267        2        /*T*                                                         */
      268        3        /*T* Copyright (c) Bull HN Information Systems Inc., 1997    */
      269        4        /*T*                                                         */
      270        5        /*T***********************************************************/
      271        6        Z8DQ$QUALIFY_KEYS: PROC;
      272        7        /*P*
      273        8             NAME : Z8DQ$QUALIFY_KEYS
      274        9             PURPOSE : To qualify and process the KEYS since they need
      275       10               not be defined prior to their reference.
      276       11        */
      277       12
      278       13
      279       14        %EQU PHASE = 1;
      280       15
      281       16        %INCLUDE Z8A_DEFC;
      282       84        %INCLUDE Z8A_SUPP_MAC;
      283     2484        %INCLUDE Z8A_COMCOM;
      284     3134        %INCLUDE Z8A_ST;
      285     6793        %INCLUDE Z8A_LTS;
      286     8870        %INCLUDE Z8A_QLT;
      287     8976        %INCLUDE Z8A_ERR_NUMS;
      288     9740
      289     9741        %INCLUDE Z8E_STACKS;
      290    12007        %INCLUDE Z8E_O1COM;
      291    12768        %INCLUDE Z8E_WINDOW;
      292    14838        %INCLUDE Z8E_ABSSYN;
      293    15044        %INCLUDE Z8E_HEAP;
      294    15100        %INCLUDE Z8E_MACROS;
      295    15775
      296    15776    1   DCL Z8CO$QUALIFY_VARIABLE     ENTRY (2)  ALTRET;
      297    15777    1   DCL Z8DQ$CHECK_FOR_OCCURS     ENTRY (2) ALTRET;
      298    15778    1   DCL Z8DO$LINK_WITH_LTS        ENTRY (2);
      299    15779    1   DCL Z8AE$ERROR                ENTRY (12);
      300    15780    1   DCL Z8ED$DISPOSE_ABSSYN_TREE  ENTRY (1);
      301    15781
      302    15782    1   DCL KEYS$              PTR;
PL6.E3A0      #002=Z8DQ$QUALIFY_KEYS File=Z8DQ.:Z8A6TSI                          SAT 08/09/97 11:19 Page:50
      303    15783    1   DCL SET_OF_KEYS$       PTR;
      304    15784    1   DCL KEY_ST$            PTR;
      305    15785    1   DCL LAST_KEY$          PTR;
      306    15786    1   DCL QUAL_KEY_LIST$     PTR;
      307    15787    1   DCL AC_DC              SBIN WORD;
      308    15788
      309    15789
      310    15790        %EJECT;
PL6.E3A0      #002=Z8DQ$QUALIFY_KEYS File=Z8DQ.:Z8A6TSI                          SAT 08/09/97 11:19 Page:51
      311    15791    1   PROCESS_FIRST_KEY: PROC (ASSOC_VAR$, KEY$, LAST_KEY$);
      312    15792
      313    15793    2   DCL ASSOC_VAR$         PTR;
      314    15794    2   DCL LAST_KEY$          PTR;
      315    15795    2   DCL KEY$               PTR;
      316    15796
      317    15797    2   DCL KEY_ST$            PTR;
      318    15798
      319    15799    2      CALL Z8CO$QUALIFY_VARIABLE (KEY$ -> LX_LIST.TAIL$ -> LX_LIST.HEAD$,
      320    15800    2                                  KEY_ST$);
      321    15801
      322    15802    2      IF KEY_ST$ ~= ASSOC_VAR$ THEN
      323    15803    2        CALL CHECK_PLACEMENT (ASSOC_VAR$, KEY$, KEY_ST$)
      324    15804    2          WHENRETURN
      325    15805    3            DO;
      326    15806                   %NEW_KEY (@POINTER = LAST_KEY$,
      327    15807                             @ASCENDING   =
             15807                            "(KEY$ -> LX_LIST.HEAD$ -> LX_ITEM.SYMBOL = %RSV_WRD_ASCENDING)"
             15807                                 ,
      328    15808                             @KEY$    = KEY_ST$);
      329    15904
      330    15905    3              CALL Z8DO$LINK_WITH_LTS (ASSOC_VAR$ -> VARIABLE.LTS$,
      331    15906    3                                       LAST_KEY$);
      332    15907    3            END;
      333    15908    2      ELSE
      334    15909    3        DO;
      335    15910               %NEW_KEY (@POINTER = LAST_KEY$,
      336    15911                         @ASCENDING =
             15911                            "(KEY$ -> LX_LIST.HEAD$ -> LX_ITEM.SYMBOL = %RSV_WRD_ASCENDING)"
             15911                             ,
      337    15912                         @KEY$    = KEY_ST$);
      338    16008
      339    16009    3          CALL Z8DO$LINK_WITH_LTS (ASSOC_VAR$ -> VARIABLE.LTS$,
      340    16010    3                                   LAST_KEY$);
      341    16011    3        END;
      342    16012
      343    16013    2   END PROCESS_FIRST_KEY;
PL6.E3A0      #002=Z8DQ$QUALIFY_KEYS File=Z8DQ.:Z8A6TSI                          SAT 08/09/97 11:19 Page:52
      344    16014        %EJECT;
PL6.E3A0      #002=Z8DQ$QUALIFY_KEYS File=Z8DQ.:Z8A6TSI                          SAT 08/09/97 11:19 Page:53
      345    16015    1   CHECK_PLACEMENT: PROC (ASSOC_VAR$, KEY$, KEY_ST$) ALTRET;
      346    16016
      347    16017    2   DCL ASSOC_VAR$                PTR;
      348    16018    2   DCL KEY$                      PTR;
      349    16019    2   DCL KEY_ST$                   PTR;
      350    16020
      351    16021    2   DCL FATHER$                   PTR;
      352    16022    2   DCL KEY_DIM                   SBIN WORD;
      353    16023    2   DCL KEY_DIM$                  PTR;
      354    16024    2   DCL ARRAY_DIM                 SBIN WORD;
      355    16025    2   DCL ARRAY_DIM$                PTR;
      356    16026
      357    16027    2      FATHER$ = KEY_ST$ -> VARIABLE.QLT$ -> QLT.FATHER;
      358    16028
      359    16029    3      DO WHILE (FATHER$ ~= ADDR(NIL));
      360    16030    3        IF FATHER$ = ASSOC_VAR$ -> VARIABLE.QLT$ THEN
      361    16031    3          EXIT;
      362    16032    3        ELSE
      363    16033    3          FATHER$ = FATHER$ -> QLT.FATHER;
      364    16034    3      END;
      365    16035
      366    16036    2      IF FATHER$ = ADDR(NIL) THEN
      367    16037    3        DO;
      368    16038               %CONDITIONAL_ERROR (@LX_ITEM$ = KEY$ -> LX_LIST.HEAD$,
      369    16039                     @ERROR#  = %E$KEY_MUST_BE_IN_GROUP,
      370    16040                     @LINE    = KEY$ -> LX_LIST.HEAD$ -> LX_ITEM.LINE,
      371    16041                     @COLUMN  = KEY$ -> LX_LIST.HEAD$ -> LX_ITEM.COLUMN);
      372    16071    3          ALTRETURN;
      373    16072    3        END;
      374    16073
      375    16074    2      CALL Z8DQ$CHECK_FOR_OCCURS (ASSOC_VAR$ -> ARRAY.QLT$ -> QLT.SON,
      376    16075    2                                  KEY_ST$ -> VARIABLE.QLT$);
      377    16076
      378    16077           %GET_LTS (@ID       = %DIMS,
      379    16078                     @ST$      = KEY_ST$,
      380    16079                     @RETURN$  = KEY_DIM$);
      381    16122
PL6.E3A0      #002=Z8DQ$QUALIFY_KEYS File=Z8DQ.:Z8A6TSI                          SAT 08/09/97 11:19 Page:54
      382    16123           %GET_LTS (@ID       = %DIMS,
      383    16124                     @ST$      = ASSOC_VAR$,
      384    16125                     @RETURN$  = ARRAY_DIM$);
      385    16168
      386    16169           %FIND_LAST_DIM (POINTER = KEY_DIM$,
      387    16170                           VARIABLE = KEY_DIM);
      388    16175
      389    16176           %FIND_LAST_DIM (POINTER  = ARRAY_DIM$,
      390    16177                           VARIABLE = ARRAY_DIM);
      391    16182
      392    16183    2      IF KEY_DIM ~= ARRAY_DIM THEN
      393    16184    3        DO;
      394    16185               /* The dimensions are not equal therefore an extra
      395    16186                  array is above this one -- error */
      396    16187    3          CALL Z8AE$ERROR (%E$KEY_IS_ARRAY,
      397    16188    3                           KEY$ -> LX_LIST.HEAD$ -> LX_ITEM.LINE,
      398    16189    3                           KEY$ -> LX_LIST.HEAD$ -> LX_ITEM.COLUMN);
      399    16190    3          ALTRETURN;
      400    16191    3        END;
      401    16192
      402    16193    2   END CHECK_PLACEMENT;
      403    16194        %EJECT;
PL6.E3A0      #002=Z8DQ$QUALIFY_KEYS File=Z8DQ.:Z8A6TSI                          SAT 08/09/97 11:19 Page:55
      404    16195    1   UPDATE_KEY_LIST: PROC (KEY_ST$, AC_DC, LAST_KEY$);
      405    16196
      406    16197    2   DCL AC_DC              SBIN WORD;
      407    16198    2   DCL KEY_ST$            PTR;
      408    16199    2   DCL LAST_KEY$          PTR;
      409    16200
      410    16201    2   DCL KEY$$              PTR;
      411    16202
      412    16203           %NEW_KEY (@POINTER = KEY$$,
      413    16204                     @ASCENDING   = "(AC_DC = %RSV_WRD_ASCENDING)",
      414    16205                     @KEY$    = KEY_ST$);
      415    16301
      416    16302    2      LAST_KEY$ -> KEY.LINK = KEY$$;
      417    16303    2      LAST_KEY$ = KEY$$;
      418    16304
      419    16305    2   END UPDATE_KEY_LIST;
      420    16306        %EJECT;
PL6.E3A0      #002=Z8DQ$QUALIFY_KEYS File=Z8DQ.:Z8A6TSI                          SAT 08/09/97 11:19 Page:56
      421    16307
      422    16308    1      SET_OF_KEYS$ = O1COM.KEYS$;
      423    16309
      424    16310    2      DO WHILE (SET_OF_KEYS$ ~= ADDR(NIL));
      425    16311    2        KEYS$ = SET_OF_KEYS$ -> DEFERED_QUAL_ID.QUAL_ID_LIST$ ->
      426    16312    2                LX_LIST.HEAD$;
      427    16313
      428    16314    2        CALL PROCESS_FIRST_KEY (SET_OF_KEYS$ -> DEFERED_QUAL_ID.ASSOC_VAR_ST$,
      429    16315    2                                KEYS$,
      430    16316    2                                LAST_KEY$);
      431    16317
      432    16318    2        QUAL_KEY_LIST$ = KEYS$;
      433    16319    2        KEYS$ = KEYS$ -> LX_LIST.TAIL$ -> LX_LIST.HEAD$ -> LX_LIST.LINK;
      434    16320
      435    16321    3        DO WHILE (QUAL_KEY_LIST$ ~= ADDR(NIL));
      436    16322    3          AC_DC = QUAL_KEY_LIST$ -> LX_LIST.HEAD$ -> LX_TERMINAL.SYMBOL;
      437    16323
      438    16324    4          DO WHILE (KEYS$ ~= ADDR(NIL));
      439    16325    4            CALL Z8CO$QUALIFY_VARIABLE (KEYS$,
      440    16326    4                                        KEY_ST$);
      441    16327
      442    16328    4            CALL CHECK_PLACEMENT (SET_OF_KEYS$ -> DEFERED_QUAL_ID.ASSOC_VAR_ST$,
      443    16329    4                                  KEYS$,
      444    16330    4                                  KEY_ST$)
      445    16331    4              WHENRETURN
      446    16332    5                DO;
      447    16333    5                  CALL UPDATE_KEY_LIST (KEY_ST$, AC_DC, LAST_KEY$);
      448    16334    5                END;
      449    16335
      450    16336    4            KEYS$ = KEYS$ -> LX_ITEM.LINK;
      451    16337    4          END;
      452    16338
      453    16339    3          QUAL_KEY_LIST$ = QUAL_KEY_LIST$ -> LX_LIST.LINK;
      454    16340
      455    16341    3          IF QUAL_KEY_LIST$ ~= ADDR(NIL) THEN
      456    16342    3            KEYS$ = QUAL_KEY_LIST$ -> LX_LIST.TAIL$ -> LX_LIST.HEAD$;
      457    16343    3        END;
PL6.E3A0      #002=Z8DQ$QUALIFY_KEYS File=Z8DQ.:Z8A6TSI                          SAT 08/09/97 11:19 Page:57
      458    16344
      459    16345    2        SET_OF_KEYS$ = SET_OF_KEYS$ -> DEFERED_QUAL_ID.LINK;
      460    16346    2      END;
      461    16347
      462    16348    1      CALL Z8ED$DISPOSE_ABSSYN_TREE (O1COM.KEYS$);
      463    16349
      464    16350    1   END Z8DQ$QUALIFY_KEYS;
      465    16351        %EOD;

PL6.E3A0      #002=Z8DQ$QUALIFY_KEYS File=Z8DQ.:Z8A6TSI                          SAT 08/09/97 11:19 Page:58
--  Include file information  --

   Z8E_NEW_ILL.:Z8A6TOU  is referenced.
   Z8E_MACROS.:Z8A6TOU  cannot be made into a system file and is referenced.
   Z8E_HEAP.:Z8A6TOU  cannot be made into a system file and is referenced.
   Z8E_ABSSYN.:Z8A6TOU  cannot be made into a system file and is referenced.
   Z8E_WINDOW.:Z8A6TOU  is referenced.
   Z8E_O1COM.:Z8A6TOU  cannot be made into a system file and is referenced.
   Z8A_LEX_SYMB.:Z8A6TOU  cannot be made into a system file and is referenced.
   Z8E_STACKS.:Z8A6TOU  cannot be made into a system file and is referenced.
   Z8A_ERR_NUMS.:Z8A6TOU  is referenced.
   Z8A_QLT.:Z8A6TOU  cannot be made into a system file and is referenced.
   Z8A_LTS.:Z8A6TOU  cannot be made into a system file and is referenced.
   Z8A_ST.:Z8A6TOU  cannot be made into a system file and is referenced.
   Z8A_COMCOM.:Z8A6TOU  cannot be made into a system file and is referenced.
   X8A_COM_MACS.:X8A6TOU  is referenced.
   Z8A_NAMES.:Z8A6TOU  is referenced.
   Z8A_SUPP_MAC.:Z8A6TOU  is referenced.
   Z8A_DEFC.:Z8A6TOU  cannot be made into a system file and is referenced.
      No diagnostics issued in procedure Z8DQ$QUALIFY_KEYS.

   Procedure Z8DQ$QUALIFY_KEYS requires 401 words for executable code.
   Procedure Z8DQ$QUALIFY_KEYS requires 30 words of local(AUTO) storage.

PL6.E3A0      #002=Z8DQ$QUALIFY_KEYS File=Z8DQ.:Z8A6TSI                          SAT 08/09/97 11:19 Page:59

 Object Unit name= Z8DQ$QUALIFY_KEYS                          File name= Z8DQ.:Z8A6TOU
 UTS= AUG 09 '97 11:19:51.80 SAT                              Compiler= PL-6/E31         Sev=      00
 SharedLib= :SHARED_SYSTEM                                    Alt SharedLib=


    ****  Control sections  ****

 Sect   Type Bound  Init  Size OctSiz  Section name(segment info)
    0  LblCom even  none     1      1  ITERATION
    1  LblCom even  none     1      1  ST$
    2  LblCom even  none     5      5  ST_
    3  LblCom even  none     1      1  LTS$
    4  LblCom even  none     5      5  LTS_
    5  LblCom even  none     1      1  QLT$
    6  LblCom even  none     1      1  PREV_01_QLT$
    7  LblCom even  none     5      5  QLT_
    8  LblCom even  none    90    132  LEX_SYMBOL
    9  LblCom even  none     1      1  CURRENT_LEX_SYMBOL$
   10  LblCom even  none    90    132  TEMP_LEX_SYMBOL
   11  LblCom even  none    90    132  TEMP_LEX_SYMBOL2
   12  LblCom even  none     8     10  TEMP_LX_NODE
   13  LblCom even  none     1      1  HEAP$
   14   Proc  even  none   401    621  Z8DQ$QUALIFY_KEYS
   15  RoData even  none    11     13  Z8DQ$QUALIFY_KEYS

    ****  Entry defs  ****

                              Check   Calling
                             calling  sequence
  Sect OctLoc Primary Altret sequence   type   Parms  Name
    14      0   yes            yes      Std        0  Z8DQ$QUALIFY_KEYS
PL6.E3A0      #002=Z8DQ$QUALIFY_KEYS File=Z8DQ.:Z8A6TSI                          SAT 08/09/97 11:19 Page:60

  ****  Entry refs  ****

         Check        Calling
        calling       sequence
Altret sequence SRef   type   Args  Name
 yes     yes           Std       2 Z8CO$QUALIFY_VARIABLE
         yes           Std       1 Z8ED$DISPOSE_ABSSYN_TREE
         yes           Std       1 Z8AR$RESERVER
         yes           Std       2 Z8DO$LINK_WITH_LTS
         yes           Std      12 Z8AE$ERROR
 yes     yes           Std       2 Z8DQ$CHECK_FOR_OCCURS
                       nStd      0 X66_AUTO_0
                       nStd      0 X66_ARET

  ****  Data refs  ****

  Flags:  r = read only, s = secondary
Flgs Name                             Flgs Name                             Flgs Name
     COMCOM                           r    LTS_STEP                              O1COM
     HIER_STK_PTR                          HIER_STK                              PAGE_FORMAT
     REP_STK_PTR                           REP_STK

  ****  Segment refs  ****

  Flags:  r = read only, s = secondary
Flgs Name                             Flgs Name                             Flgs Name
     NULLSID                               ISSID
PL6.E3A0      #002=Z8DQ$QUALIFY_KEYS File=Z8DQ.:Z8A6TSI                          SAT 08/09/97 11:19 Page:61


      266        1        /*T***********************************************************/
      267        2        /*T*                                                         */
      268        3        /*T* Copyright (c) Bull HN Information Systems Inc., 1997    */
      269        4        /*T*                                                         */
      270        5        /*T***********************************************************/
      271        6        Z8DQ$QUALIFY_KEYS: PROC;

      6 14 000000   000000 700200 xent  Z8DQ$QUALIF* TSX0  ! X66_AUTO_0
        14 000001   000036 000000                    ZERO    30,0
        14 000002   000477 710000 14                 TRA     s:16308

      272        7        /*P*
      273        8             NAME : Z8DQ$QUALIFY_KEYS
      274        9             PURPOSE : To qualify and process the KEYS since they need
      275       10               not be defined prior to their reference.
      276       11        */
      277       12
      278       13
      279       14        %EQU PHASE = 1;
      280       15
      281       16        %INCLUDE Z8A_DEFC;
      282       84        %INCLUDE Z8A_SUPP_MAC;
      283     2484        %INCLUDE Z8A_COMCOM;
      284     3134        %INCLUDE Z8A_ST;
      285     6793        %INCLUDE Z8A_LTS;
      286     8870        %INCLUDE Z8A_QLT;
      287     8976        %INCLUDE Z8A_ERR_NUMS;
      288     9740
      289     9741        %INCLUDE Z8E_STACKS;
      290    12007        %INCLUDE Z8E_O1COM;
      291    12768        %INCLUDE Z8E_WINDOW;
      292    14838        %INCLUDE Z8E_ABSSYN;
      293    15044        %INCLUDE Z8E_HEAP;
      294    15100        %INCLUDE Z8E_MACROS;
      295    15775
      296    15776    1   DCL Z8CO$QUALIFY_VARIABLE     ENTRY (2)  ALTRET;
PL6.E3A0      #002=Z8DQ$QUALIFY_KEYS File=Z8DQ.:Z8A6TSI                          SAT 08/09/97 11:19 Page:62
      297    15777    1   DCL Z8DQ$CHECK_FOR_OCCURS     ENTRY (2) ALTRET;
      298    15778    1   DCL Z8DO$LINK_WITH_LTS        ENTRY (2);
      299    15779    1   DCL Z8AE$ERROR                ENTRY (12);
      300    15780    1   DCL Z8ED$DISPOSE_ABSSYN_TREE  ENTRY (1);
      301    15781
      302    15782    1   DCL KEYS$              PTR;
      303    15783    1   DCL SET_OF_KEYS$       PTR;
      304    15784    1   DCL KEY_ST$            PTR;
      305    15785    1   DCL LAST_KEY$          PTR;
      306    15786    1   DCL QUAL_KEY_LIST$     PTR;
      307    15787    1   DCL AC_DC              SBIN WORD;
      308    15788
      309    15789
      310    15790        %EJECT;
PL6.E3A0      #002=Z8DQ$QUALIFY_KEYS File=Z8DQ.:Z8A6TSI                          SAT 08/09/97 11:19 Page:63
      311    15791    1   PROCESS_FIRST_KEY: PROC (ASSOC_VAR$, KEY$, LAST_KEY$);

  15791 14 000003   200012 741300       PROCESS_FIR* STX1  ! AC_DC+2,,AUTO

      312    15792
      313    15793    2   DCL ASSOC_VAR$         PTR;
      314    15794    2   DCL LAST_KEY$          PTR;
      315    15795    2   DCL KEY$               PTR;
      316    15796
      317    15797    2   DCL KEY_ST$            PTR;
      318    15798
      319    15799    2      CALL Z8CO$QUALIFY_VARIABLE (KEY$ -> LX_LIST.TAIL$ -> LX_LIST.HEAD$,

  15799 14 000004   200014 470500                    LDP0    @KEY$,,AUTO
        14 000005   000000 471500                    LDP1    0,,PR0
        14 000006   100001 473500                    LDP3    1,,PR1
        14 000007   200016 634500                    EPPR4   KEY_ST$,,AUTO
        14 000010   200033 454500                    STP4    ARRAY_DIM$+3,,AUTO
        14 000011   300004 631500                    EPPR1   4,,PR3
        14 000012   200032 451500                    STP1    ARRAY_DIM$+2,,AUTO
        14 000013   200032 630500                    EPPR0   ARRAY_DIM$+2,,AUTO
        14 000014   000000 631400 15                 EPPR1   0
        14 000015   000000 701000 xent               TSX1    Z8CO$QUALIFY_VARIABLE
        14 000016   000000 011000                    NOP     0

      320    15800    2                                  KEY_ST$);
      321    15801
      322    15802    2      IF KEY_ST$ ~= ASSOC_VAR$ THEN

  15802 14 000017   200013 470500                    LDP0    @ASSOC_VAR$,,AUTO
        14 000020   200016 236100                    LDQ     KEY_ST$,,AUTO
        14 000021   000000 116100                    CMPQ    0,,PR0
        14 000022   000124 600000 14                 TZE     s:15991

      323    15803    2        CALL CHECK_PLACEMENT (ASSOC_VAR$, KEY$, KEY_ST$)

  15803 14 000023   200016 631500                    EPPR1   KEY_ST$,,AUTO
PL6.E3A0      #002=Z8DQ$QUALIFY_KEYS File=Z8DQ.:Z8A6TSI                          SAT 08/09/97 11:19 Page:64
        14 000024   200023 451500                    STP1    @KEY$+1,,AUTO
        14 000025   200014 236100                    LDQ     @KEY$,,AUTO
        14 000026   200022 756100                    STQ     @ASSOC_VAR$+1,,AUTO
        14 000027   200013 236100                    LDQ     @ASSOC_VAR$,,AUTO
        14 000030   200021 756100                    STQ     KEY$$+3,,AUTO
        14 000031   000216 701000 14                 TSX1    CHECK_PLACEMENT
        14 000032   000123 702000 14                 TSX2    s:15907

      324    15804    2          WHENRETURN
      325    15805    3            DO;

      326    15806                   %NEW_KEY (@POINTER = LAST_KEY$,
      327    15807                             @ASCENDING   =
             15807                           "(KEY$ -> LX_LIST.HEAD$ -> LX_ITEM.SYMBOL = %RSV_WRD_ASCENDING)"
             15807                                 ,
      328    15808                             @KEY$    = KEY_ST$);

  15887 14 000033   000002 236000 4                  LDQ     LTS_+2
        14 000034   000004 036007                    ADLQ    4,DL
        14 000035   000003 116000 4                  CMPQ    LTS_+3
        14 000036   000047 604000 14                 TMI     s:15889

  15888 14 000037   000003 236000 15                 LDQ     3
        14 000040   200032 756100                    STQ     ARRAY_DIM$+2,,AUTO
        14 000041   200032 630500                    EPPR0   ARRAY_DIM$+2,,AUTO
        14 000042   200033 450500                    STP0    ARRAY_DIM$+3,,AUTO
        14 000043   200033 630500                    EPPR0   ARRAY_DIM$+3,,AUTO
        14 000044   000002 631400 15                 EPPR1   2
        14 000045   000000 701000 xent               TSX1    Z8AR$RESERVER
        14 000046   000000 011000                    NOP     0

  15889 14 000047   000002 236000 4                  LDQ     LTS_+2
        14 000050   000022 736000                    QLS     18
        14 000051   000001 036000 4                  ADLQ    LTS_+1
        14 000052   200015 470500                    LDP0    @LAST_KEY$,,AUTO
        14 000053   000000 756100                    STQ     0,,PR0

PL6.E3A0      #002=Z8DQ$QUALIFY_KEYS File=Z8DQ.:Z8A6TSI                          SAT 08/09/97 11:19 Page:65
  15890 14 000054   000004 236007                    LDQ     4,DL
        14 000055   000002 056000 4                  ASQ     LTS_+2

  15891 14 000056   000000 471500                    LDP1    0,,PR0
        14 000057   001114 220003                    LDX0    588,DU
        14 000060   100000 740100                    STX0    0,,PR1

  15897 14 000061   000000 471500                    LDP1    0,,PR0
        14 000062   100001 450100                    STZ     1,,PR1

  15898 14 000063   000000 471500                    LDP1    0,,PR0
        14 000064   200014 473500                    LDP3    @KEY$,,AUTO
        14 000065   300000 474500                    LDP4    0,,PR3
        14 000066   400004 475500                    LDP5    4,,PR4
        14 000067   400000 221003                    LDX1    -131072,DU
        14 000070   500003 235100                    LDA     3,,PR5
        14 000071   000067 115007                    CMPA    55,DL
        14 000072   000074 600000 14                 TZE     s:15898+9
        14 000073   000000 221003                    LDX1    0,DU
        14 000074   000000 636011                    EAQ     0,X1
        14 000075   100001 676100                    ERQ     1,,PR1
        14 000076   400000 376003                    ANQ     -131072,DU
        14 000077   100001 656100                    ERSQ    1,,PR1

  15899 14 000100   000000 471500                    LDP1    0,,PR0
        14 000101   000004 236000 15                 LDQ     4
        14 000102   100001 356100                    ANSQ    1,,PR1

  15900 14 000103   000000 471500                    LDP1    0,,PR0
        14 000104   200016 236100                    LDQ     KEY_ST$,,AUTO
        14 000105   100002 756100                    STQ     2,,PR1

  15901 14 000106   000000 471500                    LDP1    0,,PR0
        14 000107   000001 236000 15                 LDQ     1
        14 000110   100003 756100                    STQ     3,,PR1

      329    15904
PL6.E3A0      #002=Z8DQ$QUALIFY_KEYS File=Z8DQ.:Z8A6TSI                          SAT 08/09/97 11:19 Page:66
      330    15905    3              CALL Z8DO$LINK_WITH_LTS (ASSOC_VAR$ -> VARIABLE.LTS$,

  15905 14 000111   200013 471500                    LDP1    @ASSOC_VAR$,,AUTO
        14 000112   100000 474500                    LDP4    0,,PR1
        14 000113   200015 236100                    LDQ     @LAST_KEY$,,AUTO
        14 000114   200033 756100                    STQ     ARRAY_DIM$+3,,AUTO
        14 000115   400005 635500                    EPPR5   5,,PR4
        14 000116   200032 455500                    STP5    ARRAY_DIM$+2,,AUTO
        14 000117   200032 630500                    EPPR0   ARRAY_DIM$+2,,AUTO
        14 000120   000000 631400 15                 EPPR1   0
        14 000121   000000 701000 xent               TSX1    Z8DO$LINK_WITH_LTS
        14 000122   000000 011000                    NOP     0

      331    15906    3                                       LAST_KEY$);
      332    15907    3            END;

  15907 14 000123   000214 710000 14                 TRA     s:16013

      333    15908    2      ELSE
      334    15909    3        DO;

      335    15910               %NEW_KEY (@POINTER = LAST_KEY$,
      336    15911                         @ASCENDING =
             15911                           "(KEY$ -> LX_LIST.HEAD$ -> LX_ITEM.SYMBOL = %RSV_WRD_ASCENDING)"
             15911                             ,
      337    15912                         @KEY$    = KEY_ST$);

  15991 14 000124   000002 236000 4                  LDQ     LTS_+2
        14 000125   000004 036007                    ADLQ    4,DL
        14 000126   000003 116000 4                  CMPQ    LTS_+3
        14 000127   000140 604000 14                 TMI     s:15993

  15992 14 000130   000003 236000 15                 LDQ     3
        14 000131   200032 756100                    STQ     ARRAY_DIM$+2,,AUTO
        14 000132   200032 631500                    EPPR1   ARRAY_DIM$+2,,AUTO
        14 000133   200033 451500                    STP1    ARRAY_DIM$+3,,AUTO
        14 000134   200033 630500                    EPPR0   ARRAY_DIM$+3,,AUTO
PL6.E3A0      #002=Z8DQ$QUALIFY_KEYS File=Z8DQ.:Z8A6TSI                          SAT 08/09/97 11:19 Page:67
        14 000135   000002 631400 15                 EPPR1   2
        14 000136   000000 701000 xent               TSX1    Z8AR$RESERVER
        14 000137   000000 011000                    NOP     0

  15993 14 000140   000002 236000 4                  LDQ     LTS_+2
        14 000141   000022 736000                    QLS     18
        14 000142   000001 036000 4                  ADLQ    LTS_+1
        14 000143   200015 470500                    LDP0    @LAST_KEY$,,AUTO
        14 000144   000000 756100                    STQ     0,,PR0

  15994 14 000145   000004 236007                    LDQ     4,DL
        14 000146   000002 056000 4                  ASQ     LTS_+2

  15995 14 000147   000000 471500                    LDP1    0,,PR0
        14 000150   001114 220003                    LDX0    588,DU
        14 000151   100000 740100                    STX0    0,,PR1

  16001 14 000152   000000 471500                    LDP1    0,,PR0
        14 000153   100001 450100                    STZ     1,,PR1

  16002 14 000154   000000 471500                    LDP1    0,,PR0
        14 000155   200014 473500                    LDP3    @KEY$,,AUTO
        14 000156   300000 474500                    LDP4    0,,PR3
        14 000157   400004 475500                    LDP5    4,,PR4
        14 000160   400000 221003                    LDX1    -131072,DU
        14 000161   500003 235100                    LDA     3,,PR5
        14 000162   000067 115007                    CMPA    55,DL
        14 000163   000165 600000 14                 TZE     s:16002+9
        14 000164   000000 221003                    LDX1    0,DU
        14 000165   000000 636011                    EAQ     0,X1
        14 000166   100001 676100                    ERQ     1,,PR1
        14 000167   400000 376003                    ANQ     -131072,DU
        14 000170   100001 656100                    ERSQ    1,,PR1

  16003 14 000171   000000 471500                    LDP1    0,,PR0
        14 000172   000004 236000 15                 LDQ     4
        14 000173   100001 356100                    ANSQ    1,,PR1
PL6.E3A0      #002=Z8DQ$QUALIFY_KEYS File=Z8DQ.:Z8A6TSI                          SAT 08/09/97 11:19 Page:68

  16004 14 000174   000000 471500                    LDP1    0,,PR0
        14 000175   200016 236100                    LDQ     KEY_ST$,,AUTO
        14 000176   100002 756100                    STQ     2,,PR1

  16005 14 000177   000000 471500                    LDP1    0,,PR0
        14 000200   000001 236000 15                 LDQ     1
        14 000201   100003 756100                    STQ     3,,PR1

      338    16008
      339    16009    3          CALL Z8DO$LINK_WITH_LTS (ASSOC_VAR$ -> VARIABLE.LTS$,

  16009 14 000202   200013 471500                    LDP1    @ASSOC_VAR$,,AUTO
        14 000203   100000 474500                    LDP4    0,,PR1
        14 000204   200015 236100                    LDQ     @LAST_KEY$,,AUTO
        14 000205   200033 756100                    STQ     ARRAY_DIM$+3,,AUTO
        14 000206   400005 635500                    EPPR5   5,,PR4
        14 000207   200032 455500                    STP5    ARRAY_DIM$+2,,AUTO
        14 000210   200032 630500                    EPPR0   ARRAY_DIM$+2,,AUTO
        14 000211   000000 631400 15                 EPPR1   0
        14 000212   000000 701000 xent               TSX1    Z8DO$LINK_WITH_LTS
        14 000213   000000 011000                    NOP     0

      340    16010    3                                   LAST_KEY$);
      341    16011    3        END;

      342    16012
      343    16013    2   END PROCESS_FIRST_KEY;

  16013 14 000214   200012 221300                    LDX1  ! AC_DC+2,,AUTO
        14 000215   000001 702211                    TSX2  ! 1,X1

      344    16014        %EJECT;
PL6.E3A0      #002=Z8DQ$QUALIFY_KEYS File=Z8DQ.:Z8A6TSI                          SAT 08/09/97 11:19 Page:69
      345    16015    1   CHECK_PLACEMENT: PROC (ASSOC_VAR$, KEY$, KEY_ST$) ALTRET;

  16015 14 000216   200020 741300       CHECK_PLACE* STX1  ! KEY$$+2,,AUTO

      346    16016
      347    16017    2   DCL ASSOC_VAR$                PTR;
      348    16018    2   DCL KEY$                      PTR;
      349    16019    2   DCL KEY_ST$                   PTR;
      350    16020
      351    16021    2   DCL FATHER$                   PTR;
      352    16022    2   DCL KEY_DIM                   SBIN WORD;
      353    16023    2   DCL KEY_DIM$                  PTR;
      354    16024    2   DCL ARRAY_DIM                 SBIN WORD;
      355    16025    2   DCL ARRAY_DIM$                PTR;
      356    16026
      357    16027    2      FATHER$ = KEY_ST$ -> VARIABLE.QLT$ -> QLT.FATHER;

  16027 14 000217   200023 470500                    LDP0    @KEY_ST$,,AUTO
        14 000220   000000 471500                    LDP1    0,,PR0
        14 000221   100007 473500                    LDP3    7,,PR1
        14 000222   300001 236100                    LDQ     1,,PR3
        14 000223   200024 756100                    STQ     FATHER$,,AUTO

      358    16028
      359    16029    3      DO WHILE (FATHER$ ~= ADDR(NIL));

  16029 14 000224   000235 710000 14                 TRA     s:16034

      360    16030    3        IF FATHER$ = ASSOC_VAR$ -> VARIABLE.QLT$ THEN

  16030 14 000225   200021 470500                    LDP0    @ASSOC_VAR$,,AUTO
        14 000226   000000 471500                    LDP1    0,,PR0
        14 000227   200024 236100                    LDQ     FATHER$,,AUTO
        14 000230   100007 116100                    CMPQ    7,,PR1
        14 000231   000237 600000 14                 TZE     s:16036

      361    16031    3          EXIT;
PL6.E3A0      #002=Z8DQ$QUALIFY_KEYS File=Z8DQ.:Z8A6TSI                          SAT 08/09/97 11:19 Page:70
      362    16032    3        ELSE
      363    16033    3          FATHER$ = FATHER$ -> QLT.FATHER;

  16033 14 000232   200024 473500                    LDP3    FATHER$,,AUTO
        14 000233   300001 236100                    LDQ     1,,PR3
        14 000234   200024 756100                    STQ     FATHER$,,AUTO

      364    16034    3      END;

  16034 14 000235   000001 116000 15                 CMPQ    1
        14 000236   000225 601000 14                 TNZ     s:16030

      365    16035
      366    16036    2      IF FATHER$ = ADDR(NIL) THEN

  16036 14 000237   000001 116000 15                 CMPQ    1
        14 000240   000270 601000 14                 TNZ     s:16074

      367    16037    3        DO;

      368    16038               %CONDITIONAL_ERROR (@LX_ITEM$ = KEY$ -> LX_LIST.HEAD$,
      369    16039                     @ERROR#  = %E$KEY_MUST_BE_IN_GROUP,
      370    16040                     @LINE    = KEY$ -> LX_LIST.HEAD$ -> LX_ITEM.LINE,
      371    16041                     @COLUMN  = KEY$ -> LX_LIST.HEAD$ -> LX_ITEM.COLUMN);

  16051 14 000241   200022 470500                    LDP0    @KEY$,,AUTO
        14 000242   000000 471500                    LDP1    0,,PR0
        14 000243   100004 473500                    LDP3    4,,PR1
        14 000244   300000 236100                    LDQ     0,,PR3
        14 000245   400000 316007                    CANQ    -131072,DL
        14 000246   000266 601000 14                 TNZ     s:16071

  16053 14 000247   300006 634500                    EPPR4   6,,PR3
        14 000250   200034 454500                    STP4    ARRAY_DIM$+4,,AUTO
        14 000251   300005 631500                    EPPR1   5,,PR3
        14 000252   200033 451500                    STP1    ARRAY_DIM$+3,,AUTO
        14 000253   000007 236000 15                 LDQ     7
PL6.E3A0      #002=Z8DQ$QUALIFY_KEYS File=Z8DQ.:Z8A6TSI                          SAT 08/09/97 11:19 Page:71
        14 000254   200032 756100                    STQ     ARRAY_DIM$+2,,AUTO
        14 000255   200032 630500                    EPPR0   ARRAY_DIM$+2,,AUTO
        14 000256   000005 631400 15                 EPPR1   5
        14 000257   000000 701000 xent               TSX1    Z8AE$ERROR
        14 000260   000000 011000                    NOP     0

  16062 14 000261   200022 470500                    LDP0    @KEY$,,AUTO
        14 000262   000000 471500                    LDP1    0,,PR0
        14 000263   100004 473500                    LDP3    4,,PR1
        14 000264   400000 236007                    LDQ     -131072,DL
        14 000265   300000 256100                    ORSQ    0,,PR3

      372    16071    3          ALTRETURN;

  16071 14 000266   200020 221300                    LDX1  ! KEY$$+2,,AUTO
        14 000267   000000 702211                    TSX2  ! 0,X1

      373    16072    3        END;
      374    16073
      375    16074    2      CALL Z8DQ$CHECK_FOR_OCCURS (ASSOC_VAR$ -> ARRAY.QLT$ -> QLT.SON,

  16074 14 000270   200021 470500                    LDP0    @ASSOC_VAR$,,AUTO
        14 000271   000000 471500                    LDP1    0,,PR0
        14 000272   100007 473500                    LDP3    7,,PR1
        14 000273   200023 474500                    LDP4    @KEY_ST$,,AUTO
        14 000274   400000 475500                    LDP5    0,,PR4
        14 000275   500007 636500                    EPPR6   7,,PR5
        14 000276   200033 456500                    STP6    ARRAY_DIM$+3,,AUTO
        14 000277   300003 631500                    EPPR1   3,,PR3
        14 000300   200032 451500                    STP1    ARRAY_DIM$+2,,AUTO
        14 000301   200032 630500                    EPPR0   ARRAY_DIM$+2,,AUTO
        14 000302   000000 631400 15                 EPPR1   0
        14 000303   000000 701000 xent               TSX1    Z8DQ$CHECK_FOR_OCCURS
        14 000304   000000 011000                    NOP     0

      376    16075    2                                  KEY_ST$ -> VARIABLE.QLT$);
      377    16076
PL6.E3A0      #002=Z8DQ$QUALIFY_KEYS File=Z8DQ.:Z8A6TSI                          SAT 08/09/97 11:19 Page:72
      378    16077           %GET_LTS (@ID       = %DIMS,
      379    16078                     @ST$      = KEY_ST$,
      380    16079                     @RETURN$  = KEY_DIM$);

  16081 14 000305   200023 470500                    LDP0    @KEY_ST$,,AUTO
        14 000306   000000 471500                    LDP1    0,,PR0
        14 000307   100005 236100                    LDQ     5,,PR1
        14 000310   000001 116000 15                 CMPQ    1
        14 000311   000321 600000 14                 TZE     s:16115
        14 000312   100005 473500                    LDP3    5,,PR1
        14 000313   300000 220100                    LDX0    0,,PR3
        14 000314   001105 100003                    CMPX0   581,DU
        14 000315   000321 601000 14                 TNZ     s:16115

  16085 14 000316   300001 236100                    LDQ     1,,PR3
        14 000317   200026 756100                    STQ     KEY_DIM$,,AUTO

  16113 14 000320   000333 710000 14                 TRA     s:16127

  16115 14 000321   000001 116000 15                 CMPQ    1
        14 000322   000331 600000 14                 TZE     s:16119
        14 000323   100005 473500                    LDP3    5,,PR1
        14 000324   300000 220100                    LDX0    0,,PR3
        14 000325   001104 100003                    CMPX0   580,DU
        14 000326   000331 601000 14                 TNZ     s:16119

  16117 14 000327   200026 756100                    STQ     KEY_DIM$,,AUTO
        14 000330   000333 710000 14                 TRA     s:16127

  16119 14 000331   000001 236000 15                 LDQ     1
        14 000332   200026 756100                    STQ     KEY_DIM$,,AUTO

      381    16122
      382    16123           %GET_LTS (@ID       = %DIMS,
      383    16124                     @ST$      = ASSOC_VAR$,
      384    16125                     @RETURN$  = ARRAY_DIM$);

PL6.E3A0      #002=Z8DQ$QUALIFY_KEYS File=Z8DQ.:Z8A6TSI                          SAT 08/09/97 11:19 Page:73
  16127 14 000333   200021 473500                    LDP3    @ASSOC_VAR$,,AUTO
        14 000334   300000 474500                    LDP4    0,,PR3
        14 000335   400005 236100                    LDQ     5,,PR4
        14 000336   000001 116000 15                 CMPQ    1
        14 000337   000347 600000 14                 TZE     s:16161
        14 000340   400005 475500                    LDP5    5,,PR4
        14 000341   500000 220100                    LDX0    0,,PR5
        14 000342   001105 100003                    CMPX0   581,DU
        14 000343   000347 601000 14                 TNZ     s:16161

  16131 14 000344   500001 236100                    LDQ     1,,PR5
        14 000345   200030 756100                    STQ     ARRAY_DIM$,,AUTO

  16159 14 000346   000361 710000 14                 TRA     s:16172

  16161 14 000347   000001 116000 15                 CMPQ    1
        14 000350   000357 600000 14                 TZE     s:16165
        14 000351   400005 475500                    LDP5    5,,PR4
        14 000352   500000 220100                    LDX0    0,,PR5
        14 000353   001104 100003                    CMPX0   580,DU
        14 000354   000357 601000 14                 TNZ     s:16165

  16163 14 000355   200030 756100                    STQ     ARRAY_DIM$,,AUTO
        14 000356   000361 710000 14                 TRA     s:16172

  16165 14 000357   000001 236000 15                 LDQ     1
        14 000360   200030 756100                    STQ     ARRAY_DIM$,,AUTO

      385    16168
      386    16169           %FIND_LAST_DIM (POINTER = KEY_DIM$,
      387    16170                           VARIABLE = KEY_DIM);

  16172 14 000361   200026 475500                    LDP5    KEY_DIM$,,AUTO
        14 000362   500000 236100                    LDQ     0,,PR5
        14 000363   777777 376007                    ANQ     -1,DL
        14 000364   000005 136007                    SBLQ    5,DL
        14 000365   000003 506007                    DIV     3,DL
PL6.E3A0      #002=Z8DQ$QUALIFY_KEYS File=Z8DQ.:Z8A6TSI                          SAT 08/09/97 11:19 Page:74
        14 000366   200025 756100                    STQ     KEY_DIM,,AUTO

      388    16175
      389    16176           %FIND_LAST_DIM (POINTER  = ARRAY_DIM$,
      390    16177                           VARIABLE = ARRAY_DIM);

  16179 14 000367   200030 476500                    LDP6    ARRAY_DIM$,,AUTO
        14 000370   600000 236100                    LDQ     0,,PR6
        14 000371   777777 376007                    ANQ     -1,DL
        14 000372   000005 136007                    SBLQ    5,DL
        14 000373   000003 506007                    DIV     3,DL
        14 000374   200027 756100                    STQ     ARRAY_DIM,,AUTO

      391    16182
      392    16183    2      IF KEY_DIM ~= ARRAY_DIM THEN

  16183 14 000375   200025 116100                    CMPQ    KEY_DIM,,AUTO
        14 000376   000416 600000 14                 TZE     s:16193

      393    16184    3        DO;

      394    16185               /* The dimensions are not equal therefore an extra
      395    16186                  array is above this one -- error */
      396    16187    3          CALL Z8AE$ERROR (%E$KEY_IS_ARRAY,

  16187 14 000377   200022 477500                    LDP7    @KEY$,,AUTO
        14 000400   700000 470500                    LDP0    0,,PR7
        14 000401   000004 471500                    LDP1    4,,PR0
        14 000402   100006 630500                    EPPR0   6,,PR1
        14 000403   200034 450500                    STP0    ARRAY_DIM$+4,,AUTO
        14 000404   100005 634500                    EPPR4   5,,PR1
        14 000405   200033 454500                    STP4    ARRAY_DIM$+3,,AUTO
        14 000406   000011 236000 15                 LDQ     9
        14 000407   200032 756100                    STQ     ARRAY_DIM$+2,,AUTO
        14 000410   200032 630500                    EPPR0   ARRAY_DIM$+2,,AUTO
        14 000411   000005 631400 15                 EPPR1   5
        14 000412   000000 701000 xent               TSX1    Z8AE$ERROR
PL6.E3A0      #002=Z8DQ$QUALIFY_KEYS File=Z8DQ.:Z8A6TSI                          SAT 08/09/97 11:19 Page:75
        14 000413   000000 011000                    NOP     0

      397    16188    3                           KEY$ -> LX_LIST.HEAD$ -> LX_ITEM.LINE,
      398    16189    3                           KEY$ -> LX_LIST.HEAD$ -> LX_ITEM.COLUMN);
      399    16190    3          ALTRETURN;

  16190 14 000414   200020 221300                    LDX1  ! KEY$$+2,,AUTO
        14 000415   000000 702211                    TSX2  ! 0,X1

      400    16191    3        END;
      401    16192
      402    16193    2   END CHECK_PLACEMENT;

  16193 14 000416   200020 221300                    LDX1  ! KEY$$+2,,AUTO
        14 000417   000001 702211                    TSX2  ! 1,X1

      403    16194        %EJECT;
PL6.E3A0      #002=Z8DQ$QUALIFY_KEYS File=Z8DQ.:Z8A6TSI                          SAT 08/09/97 11:19 Page:76
      404    16195    1   UPDATE_KEY_LIST: PROC (KEY_ST$, AC_DC, LAST_KEY$);

  16195 14 000420   200012 741300       UPDATE_KEY_* STX1  ! AC_DC+2,,AUTO

      405    16196
      406    16197    2   DCL AC_DC              SBIN WORD;
      407    16198    2   DCL KEY_ST$            PTR;
      408    16199    2   DCL LAST_KEY$          PTR;
      409    16200
      410    16201    2   DCL KEY$$              PTR;
      411    16202
      412    16203           %NEW_KEY (@POINTER = KEY$$,
      413    16204                     @ASCENDING   = "(AC_DC = %RSV_WRD_ASCENDING)",
      414    16205                     @KEY$    = KEY_ST$);

  16284 14 000421   000002 236000 4                  LDQ     LTS_+2
        14 000422   000004 036007                    ADLQ    4,DL
        14 000423   000003 116000 4                  CMPQ    LTS_+3
        14 000424   000435 604000 14                 TMI     s:16286

  16285 14 000425   000003 236000 15                 LDQ     3
        14 000426   200032 756100                    STQ     ARRAY_DIM$+2,,AUTO
        14 000427   200032 630500                    EPPR0   ARRAY_DIM$+2,,AUTO
        14 000430   200033 450500                    STP0    ARRAY_DIM$+3,,AUTO
        14 000431   200033 630500                    EPPR0   ARRAY_DIM$+3,,AUTO
        14 000432   000002 631400 15                 EPPR1   2
        14 000433   000000 701000 xent               TSX1    Z8AR$RESERVER
        14 000434   000000 011000                    NOP     0

  16286 14 000435   000002 236000 4                  LDQ     LTS_+2
        14 000436   000022 736000                    QLS     18
        14 000437   000001 036000 4                  ADLQ    LTS_+1
        14 000440   200016 756100                    STQ     KEY$$,,AUTO

  16287 14 000441   000004 236007                    LDQ     4,DL
        14 000442   000002 056000 4                  ASQ     LTS_+2

PL6.E3A0      #002=Z8DQ$QUALIFY_KEYS File=Z8DQ.:Z8A6TSI                          SAT 08/09/97 11:19 Page:77
  16288 14 000443   001114 220003                    LDX0    588,DU
        14 000444   200016 470500                    LDP0    KEY$$,,AUTO
        14 000445   000000 740100                    STX0    0,,PR0

  16294 14 000446   000001 450100                    STZ     1,,PR0

  16295 14 000447   400000 221003                    LDX1    -131072,DU
        14 000450   200014 471500                    LDP1    @AC_DC,,AUTO
        14 000451   100000 235100                    LDA     0,,PR1
        14 000452   000067 115007                    CMPA    55,DL
        14 000453   000455 600000 14                 TZE     s:16295+6
        14 000454   000000 221003                    LDX1    0,DU
        14 000455   000000 636011                    EAQ     0,X1
        14 000456   000001 676100                    ERQ     1,,PR0
        14 000457   400000 376003                    ANQ     -131072,DU
        14 000460   000001 656100                    ERSQ    1,,PR0

  16296 14 000461   000004 236000 15                 LDQ     4
        14 000462   000001 356100                    ANSQ    1,,PR0

  16297 14 000463   200013 473500                    LDP3    @KEY_ST$,,AUTO
        14 000464   300000 236100                    LDQ     0,,PR3
        14 000465   000002 756100                    STQ     2,,PR0

  16298 14 000466   000001 236000 15                 LDQ     1
        14 000467   000003 756100                    STQ     3,,PR0

      415    16301
      416    16302    2      LAST_KEY$ -> KEY.LINK = KEY$$;

  16302 14 000470   200015 474500                    LDP4    @LAST_KEY$,,AUTO
        14 000471   400000 475500                    LDP5    0,,PR4
        14 000472   200016 236100                    LDQ     KEY$$,,AUTO
        14 000473   500003 756100                    STQ     3,,PR5

      417    16303    2      LAST_KEY$ = KEY$$;

PL6.E3A0      #002=Z8DQ$QUALIFY_KEYS File=Z8DQ.:Z8A6TSI                          SAT 08/09/97 11:19 Page:78
  16303 14 000474   400000 756100                    STQ     0,,PR4

      418    16304
      419    16305    2   END UPDATE_KEY_LIST;

  16305 14 000475   200012 221300                    LDX1  ! AC_DC+2,,AUTO
        14 000476   000001 702211                    TSX2  ! 1,X1

      420    16306        %EJECT;
PL6.E3A0      #002=Z8DQ$QUALIFY_KEYS File=Z8DQ.:Z8A6TSI                          SAT 08/09/97 11:19 Page:79
      421    16307
      422    16308    1      SET_OF_KEYS$ = O1COM.KEYS$;

  16308 14 000477   000040 236000 xsym               LDQ     O1COM+32
        14 000500   200004 756100                    STQ     SET_OF_KEYS$,,AUTO

      423    16309
      424    16310    2      DO WHILE (SET_OF_KEYS$ ~= ADDR(NIL));

  16310 14 000501   000612 710000 14                 TRA     s:16346

      425    16311    2        KEYS$ = SET_OF_KEYS$ -> DEFERED_QUAL_ID.QUAL_ID_LIST$ ->

  16311 14 000502   200004 470500                    LDP0    SET_OF_KEYS$,,AUTO
        14 000503   000001 471500                    LDP1    1,,PR0
        14 000504   100004 236100                    LDQ     4,,PR1
        14 000505   200003 756100                    STQ     KEYS$,,AUTO

      426    16312    2                LX_LIST.HEAD$;
      427    16313
      428    16314    2        CALL PROCESS_FIRST_KEY (SET_OF_KEYS$ -> DEFERED_QUAL_ID.ASSOC_VAR_ST$,

  16314 14 000506   200006 631500                    EPPR1   LAST_KEY$,,AUTO
        14 000507   200015 451500                    STP1    @AC_DC+1,,AUTO
        14 000510   200003 633500                    EPPR3   KEYS$,,AUTO
        14 000511   200014 453500                    STP3    @KEY_ST$+1,,AUTO
        14 000512   200004 236100                    LDQ     SET_OF_KEYS$,,AUTO
        14 000513   000002 036003                    ADLQ    2,DU
        14 000514   200013 756100                    STQ     AC_DC+3,,AUTO
        14 000515   000003 701000 14                 TSX1    PROCESS_FIRST_KEY
        14 000516   000000 011000                    NOP     0

      429    16315    2                                KEYS$,
      430    16316    2                                LAST_KEY$);
      431    16317
      432    16318    2        QUAL_KEY_LIST$ = KEYS$;

PL6.E3A0      #002=Z8DQ$QUALIFY_KEYS File=Z8DQ.:Z8A6TSI                          SAT 08/09/97 11:19 Page:80
  16318 14 000517   200003 236100                    LDQ     KEYS$,,AUTO
        14 000520   200007 756100                    STQ     QUAL_KEY_LIST$,,AUTO

      433    16319    2        KEYS$ = KEYS$ -> LX_LIST.TAIL$ -> LX_LIST.HEAD$ -> LX_LIST.LINK;

  16319 14 000521   200003 470500                    LDP0    KEYS$,,AUTO
        14 000522   000001 471500                    LDP1    1,,PR0
        14 000523   100004 473500                    LDP3    4,,PR1
        14 000524   300007 236100                    LDQ     7,,PR3
        14 000525   200003 756100                    STQ     KEYS$,,AUTO

      434    16320
      435    16321    3        DO WHILE (QUAL_KEY_LIST$ ~= ADDR(NIL));

  16321 14 000526   000604 710000 14                 TRA     s:16343

      436    16322    3          AC_DC = QUAL_KEY_LIST$ -> LX_LIST.HEAD$ -> LX_TERMINAL.SYMBOL;

  16322 14 000527   200007 470500                    LDP0    QUAL_KEY_LIST$,,AUTO
        14 000530   000004 471500                    LDP1    4,,PR0
        14 000531   100003 235100                    LDA     3,,PR1
        14 000532   200010 755100                    STA     AC_DC,,AUTO

      437    16323
      438    16324    4          DO WHILE (KEYS$ ~= ADDR(NIL));

  16324 14 000533   000570 710000 14                 TRA     s:16337

      439    16325    4            CALL Z8CO$QUALIFY_VARIABLE (KEYS$,

  16325 14 000534   200005 630500                    EPPR0   KEY_ST$,,AUTO
        14 000535   200033 450500                    STP0    ARRAY_DIM$+3,,AUTO
        14 000536   200003 631500                    EPPR1   KEYS$,,AUTO
        14 000537   200032 451500                    STP1    ARRAY_DIM$+2,,AUTO
        14 000540   200032 630500                    EPPR0   ARRAY_DIM$+2,,AUTO
        14 000541   000000 631400 15                 EPPR1   0
        14 000542   000000 701000 xent               TSX1    Z8CO$QUALIFY_VARIABLE
PL6.E3A0      #002=Z8DQ$QUALIFY_KEYS File=Z8DQ.:Z8A6TSI                          SAT 08/09/97 11:19 Page:81
        14 000543   000000 011000                    NOP     0

      440    16326    4                                        KEY_ST$);
      441    16327
      442    16328    4            CALL CHECK_PLACEMENT (SET_OF_KEYS$ -> DEFERED_QUAL_ID.ASSOC_VAR_ST$,

  16328 14 000544   200005 630500                    EPPR0   KEY_ST$,,AUTO
        14 000545   200023 450500                    STP0    @KEY$+1,,AUTO
        14 000546   200003 631500                    EPPR1   KEYS$,,AUTO
        14 000547   200022 451500                    STP1    @ASSOC_VAR$+1,,AUTO
        14 000550   200004 236100                    LDQ     SET_OF_KEYS$,,AUTO
        14 000551   000002 036003                    ADLQ    2,DU
        14 000552   200021 756100                    STQ     KEY$$+3,,AUTO
        14 000553   000216 701000 14                 TSX1    CHECK_PLACEMENT
        14 000554   000565 702000 14                 TSX2    s:16336

      443    16329    4                                  KEYS$,
      444    16330    4                                  KEY_ST$)
      445    16331    4              WHENRETURN
      446    16332    5                DO;

      447    16333    5                  CALL UPDATE_KEY_LIST (KEY_ST$, AC_DC, LAST_KEY$);

  16333 14 000555   200006 630500                    EPPR0   LAST_KEY$,,AUTO
        14 000556   200015 450500                    STP0    @AC_DC+1,,AUTO
        14 000557   200010 631500                    EPPR1   AC_DC,,AUTO
        14 000560   200014 451500                    STP1    @KEY_ST$+1,,AUTO
        14 000561   200005 633500                    EPPR3   KEY_ST$,,AUTO
        14 000562   200013 453500                    STP3    AC_DC+3,,AUTO
        14 000563   000420 701000 14                 TSX1    UPDATE_KEY_LIST
        14 000564   000000 011000                    NOP     0

      448    16334    5                END;

      449    16335
      450    16336    4            KEYS$ = KEYS$ -> LX_ITEM.LINK;

PL6.E3A0      #002=Z8DQ$QUALIFY_KEYS File=Z8DQ.:Z8A6TSI                          SAT 08/09/97 11:19 Page:82
  16336 14 000565   200003 470500                    LDP0    KEYS$,,AUTO
        14 000566   000007 236100                    LDQ     7,,PR0
        14 000567   200003 756100                    STQ     KEYS$,,AUTO

      451    16337    4          END;

  16337 14 000570   200003 236100                    LDQ     KEYS$,,AUTO
        14 000571   000001 116000 15                 CMPQ    1
        14 000572   000534 601000 14                 TNZ     s:16325

      452    16338
      453    16339    3          QUAL_KEY_LIST$ = QUAL_KEY_LIST$ -> LX_LIST.LINK;

  16339 14 000573   200007 470500                    LDP0    QUAL_KEY_LIST$,,AUTO
        14 000574   000007 236100                    LDQ     7,,PR0
        14 000575   200007 756100                    STQ     QUAL_KEY_LIST$,,AUTO

      454    16340
      455    16341    3          IF QUAL_KEY_LIST$ ~= ADDR(NIL) THEN

  16341 14 000576   000001 116000 15                 CMPQ    1
        14 000577   000604 600000 14                 TZE     s:16343

      456    16342    3            KEYS$ = QUAL_KEY_LIST$ -> LX_LIST.TAIL$ -> LX_LIST.HEAD$;

  16342 14 000600   200007 470500                    LDP0    QUAL_KEY_LIST$,,AUTO
        14 000601   000001 471500                    LDP1    1,,PR0
        14 000602   100004 236100                    LDQ     4,,PR1
        14 000603   200003 756100                    STQ     KEYS$,,AUTO

      457    16343    3        END;

  16343 14 000604   200007 236100                    LDQ     QUAL_KEY_LIST$,,AUTO
        14 000605   000001 116000 15                 CMPQ    1
        14 000606   000527 601000 14                 TNZ     s:16322

      458    16344
PL6.E3A0      #002=Z8DQ$QUALIFY_KEYS File=Z8DQ.:Z8A6TSI                          SAT 08/09/97 11:19 Page:83
      459    16345    2        SET_OF_KEYS$ = SET_OF_KEYS$ -> DEFERED_QUAL_ID.LINK;

  16345 14 000607   200004 470500                    LDP0    SET_OF_KEYS$,,AUTO
        14 000610   000007 236100                    LDQ     7,,PR0
        14 000611   200004 756100                    STQ     SET_OF_KEYS$,,AUTO

      460    16346    2      END;

  16346 14 000612   000001 116000 15                 CMPQ    1
        14 000613   000502 601000 14                 TNZ     s:16311

      461    16347
      462    16348    1      CALL Z8ED$DISPOSE_ABSSYN_TREE (O1COM.KEYS$);

  16348 14 000614   000012 630400 15                 EPPR0   10
        14 000615   000002 631400 15                 EPPR1   2
        14 000616   000000 701000 xent               TSX1    Z8ED$DISPOSE_ABSSYN_TREE
        14 000617   000000 011000                    NOP     0

      463    16349
      464    16350    1   END Z8DQ$QUALIFY_KEYS;

  16350 14 000620   000000 702200 xent               TSX2  ! X66_ARET
      465    16351        %EOD;

PL6.E3A0      #002=Z8DQ$QUALIFY_KEYS File=Z8DQ.:Z8A6TSI                          SAT 08/09/97 11:19 Page:84
--  Include file information  --

   Z8E_NEW_ILL.:Z8A6TOU  is referenced.
   Z8E_MACROS.:Z8A6TOU  cannot be made into a system file and is referenced.
   Z8E_HEAP.:Z8A6TOU  cannot be made into a system file and is referenced.
   Z8E_ABSSYN.:Z8A6TOU  cannot be made into a system file and is referenced.
   Z8E_WINDOW.:Z8A6TOU  is referenced.
   Z8E_O1COM.:Z8A6TOU  cannot be made into a system file and is referenced.
   Z8A_LEX_SYMB.:Z8A6TOU  cannot be made into a system file and is referenced.
   Z8E_STACKS.:Z8A6TOU  cannot be made into a system file and is referenced.
   Z8A_ERR_NUMS.:Z8A6TOU  is referenced.
   Z8A_QLT.:Z8A6TOU  cannot be made into a system file and is referenced.
   Z8A_LTS.:Z8A6TOU  cannot be made into a system file and is referenced.
   Z8A_ST.:Z8A6TOU  cannot be made into a system file and is referenced.
   Z8A_COMCOM.:Z8A6TOU  cannot be made into a system file and is referenced.
   X8A_COM_MACS.:X8A6TOU  is referenced.
   Z8A_NAMES.:Z8A6TOU  is referenced.
   Z8A_SUPP_MAC.:Z8A6TOU  is referenced.
   Z8A_DEFC.:Z8A6TOU  cannot be made into a system file and is referenced.
      No diagnostics issued in procedure Z8DQ$QUALIFY_KEYS.
PL6.E3A0      #002=Z8DQ$QUALIFY_KEYS File=Z8DQ.:Z8A6TSI                          SAT 08/09/97 11:19 Page:85

 **** Variables and constants ****

  ****  Section 000 LblCom ITERATION

  ****  Scalars and arrays  ****
OctLoc.c.b A Datatyp(siz) R M Lvl/name                 OctLoc.c.b A Datatyp(siz) R M Lvl/name

     0-0-0/w SBIN              1 ITERATION

  ****  Section 001 LblCom ST$

  ****  Scalars and arrays  ****
OctLoc.c.b A Datatyp(siz) R M Lvl/name                 OctLoc.c.b A Datatyp(siz) R M Lvl/name

     0-0-0/w PTR         r     1 ST$

  ****  Section 002 LblCom ST_

  ****  Scalars and arrays  ****
OctLoc.c.b A Datatyp(siz) R M Lvl/name                 OctLoc.c.b A Datatyp(siz) R M Lvl/name

     0-0-0/w STRC(180)         1 ST_

  ****  Section 003 LblCom LTS$

  ****  Scalars and arrays  ****
OctLoc.c.b A Datatyp(siz) R M Lvl/name                 OctLoc.c.b A Datatyp(siz) R M Lvl/name

     0-0-0/w PTR               1 LONG_ITEM$                 0-0-0/w PTR         r     1 LTS$

  ****  Section 004 LblCom LTS_

  ****  Scalars and arrays  ****
OctLoc.c.b A Datatyp(siz) R M Lvl/name                 OctLoc.c.b A Datatyp(siz) R M Lvl/name

     0-0-0/w STRC(180)   r     1 LTS_

PL6.E3A0      #002=Z8DQ$QUALIFY_KEYS File=Z8DQ.:Z8A6TSI                          SAT 08/09/97 11:19 Page:86
  ****  Section 005 LblCom QLT$

  ****  Scalars and arrays  ****
OctLoc.c.b A Datatyp(siz) R M Lvl/name                 OctLoc.c.b A Datatyp(siz) R M Lvl/name

     0-0-0/w PTR         r     1 QLT$

  ****  Section 006 LblCom PREV_01_QLT$

  ****  Scalars and arrays  ****
OctLoc.c.b A Datatyp(siz) R M Lvl/name                 OctLoc.c.b A Datatyp(siz) R M Lvl/name

     0-0-0/w PTR               1 PREV_01_QLT$

  ****  Section 007 LblCom QLT_

  ****  Scalars and arrays  ****
OctLoc.c.b A Datatyp(siz) R M Lvl/name                 OctLoc.c.b A Datatyp(siz) R M Lvl/name

     0-0-0/w STRC(180)         1 QLT_

  ****  Section 008 LblCom LEX_SYMBOL

  ****  Scalars and arrays  ****
OctLoc.c.b A Datatyp(siz) R M Lvl/name                 OctLoc.c.b A Datatyp(siz) R M Lvl/name

     0-0-0/w STRC(3240)  r     1 LEX_SYMBOL                 0-0-0/w STRC(3240)        1 LEX_SYMBOL_WORDS

  ****  Section 009 LblCom CURRENT_LEX_SYMBOL$

  ****  Scalars and arrays  ****
OctLoc.c.b A Datatyp(siz) R M Lvl/name                 OctLoc.c.b A Datatyp(siz) R M Lvl/name

     0-0-0/w PTR         r     1 CURRENT_LEX_SYMBOL$

  ****  Section 010 LblCom TEMP_LEX_SYMBOL

PL6.E3A0      #002=Z8DQ$QUALIFY_KEYS File=Z8DQ.:Z8A6TSI                          SAT 08/09/97 11:19 Page:87
  ****  Scalars and arrays  ****
OctLoc.c.b A Datatyp(siz) R M Lvl/name                 OctLoc.c.b A Datatyp(siz) R M Lvl/name

     0-0-0/w STRC(3240)        1 TEMP_LEX_SYMBOL

  ****  Section 011 LblCom TEMP_LEX_SYMBOL2

  ****  Scalars and arrays  ****
OctLoc.c.b A Datatyp(siz) R M Lvl/name                 OctLoc.c.b A Datatyp(siz) R M Lvl/name

     0-0-0/w STRC(3240)        1 TEMP_LEX_SYMBOL2

  ****  Section 012 LblCom TEMP_LX_NODE

  ****  Scalars and arrays  ****
OctLoc.c.b A Datatyp(siz) R M Lvl/name                 OctLoc.c.b A Datatyp(siz) R M Lvl/name

     0-0-0/d STRC(288)         1 TEMP_LX_NODE

  ****  Section 013 LblCom HEAP$

  ****  Scalars and arrays  ****
OctLoc.c.b A Datatyp(siz) R M Lvl/name                 OctLoc.c.b A Datatyp(siz) R M Lvl/name

     0-0-0/w PTR               1 HEAP$

  ****  Auto variables  ****

  ****  Scalars and arrays  ****
OctLoc.c.b A Datatyp(siz) R M Lvl/name                 OctLoc.c.b A Datatyp(siz) R M Lvl/name

    14-0-0/w PTR         r     1 @AC_DC                    13-0-0/w PTR         r     1 @ASSOC_VAR$
    21-0-0/w PTR         r     1 @ASSOC_VAR$               14-0-0/w PTR         r     1 @KEY$
    22-0-0/w PTR         r     1 @KEY$                     23-0-0/w PTR         r     1 @KEY_ST$
    13-0-0/w PTR         r     1 @KEY_ST$                  15-0-0/w PTR         r     1 @LAST_KEY$
    15-0-0/w PTR         r     1 @LAST_KEY$                10-0-0/w SBIN        r     1 AC_DC
    *0-0-0/w SBIN        r     1 AC_DC                     27-0-0/w SBIN        r     1 ARRAY_DIM
PL6.E3A0      #002=Z8DQ$QUALIFY_KEYS File=Z8DQ.:Z8A6TSI                          SAT 08/09/97 11:19 Page:88
    30-0-0/w PTR         r     1 ARRAY_DIM$                *0-0-0/w PTR         r     1 ASSOC_VAR$
    *0-0-0/w PTR         r     1 ASSOC_VAR$                24-0-0/w PTR         r     1 FATHER$
    *0-0-0/w PTR         r     1 KEY$                      *0-0-0/w PTR         r     1 KEY$
    16-0-0/w PTR         r     1 KEY$$                      3-0-0/w PTR         r     1 KEYS$
    25-0-0/w SBIN        r     1 KEY_DIM                   26-0-0/w PTR         r     1 KEY_DIM$
     5-0-0/w PTR         r     1 KEY_ST$                   16-0-0/w PTR         r     1 KEY_ST$
    *0-0-0/w PTR         r     1 KEY_ST$                   *0-0-0/w PTR         r     1 KEY_ST$
     6-0-0/w PTR         r     1 LAST_KEY$                 *0-0-0/w PTR         r     1 LAST_KEY$
    *0-0-0/w PTR         r     1 LAST_KEY$                  7-0-0/w PTR         r     1 QUAL_KEY_LIST$
     4-0-0/w PTR         r     1 SET_OF_KEYS$

  ****  SYMREF variables  ****

  ****  Scalars and arrays  ****
OctLoc.c.b A Datatyp(siz) R M Lvl/name                 OctLoc.c.b A Datatyp(siz) R M Lvl/name

     0-0-0/d STRC(13248)       1 COMCOM
     0-0-0/w STRC(180)         1 HIER_STK(0:50)
     0-0-0/w SBIN              1 HIER_STK_PTR
     0-0-0/w UBIN              1 LTS_STEP(0:37)
     0-0-0/d STRC(11580) r     1 O1COM                      0-0-0/w STRC(144)         1 PAGE_FORMAT
     0-0-0/w STRC(153)         1 REP_STK(0:50)              0-0-0/w SBIN              1 REP_STK_PTR

  ****  BASED and DCB variables  ****

  ****  Scalars and arrays  ****
OctLoc.c.b A Datatyp(siz) R M Lvl/name                 OctLoc.c.b A Datatyp(siz) R M Lvl/name

     0-0-0/w STRC(288)         1 ADD_STMT                   0-0-0/w STRC(396)         1 ALPHABET
     0-0-0/w STRC(144)         1 ALTER_LTS                  0-0-0/w STRC(3672)        1 ALT_KEY
     0-0-0/w STRC(36864)       1 ARGLIST                    0-0-0/w STRC(396)   r     1 ARRAY
     0-0-0/w STRC(180)         1 ARRAY_PRESET_LTS           0-0-0/w ASTR(324)   r     1 BASED_LEX_SYMBOL
     0-0-0/w STRC(360)         1 BASED_LEX_SYMBOL_WORDS
     0-0-0/w STRC(288)         1 BASE_LTS                   0-0-0/w STRC(288)         1 BINARY_OP
     0-0-0/w STRC(396)         1 BLOCK                      0-0-0/w STRC(144)         1 BT
     0-0-0/w STRC(288)         1 CALL_STMT                  0-0-0/w STRC(396)         1 CD
     0-0-0/w STRC(288)         1 CD_LTS                     0-0-0/w CHAR(4096)        1 CHARS
PL6.E3A0      #002=Z8DQ$QUALIFY_KEYS File=Z8DQ.:Z8A6TSI                          SAT 08/09/97 11:19 Page:89
     0-0-0/w STRC(396)         1 CLASS                      0-0-0/w STRC(288)         1 COMPUTE_STMT
     0-0-0/w STRC(396)         1 CONDITION                  0-0-0/w STRC(396)         1 CONST
     0-0-0/w STRC(72)          1 CONT                       0-0-0/w STRC(540)         1 CONTROL_NAME_LTS
     0-0-0/w STRC(1872)        1 COPY_FILE                  0-0-0/w STRC(396)         1 DB
     0-0-0/w STRC(396)         1 DCB_                       0-0-0/w STRC(288)         1 DEFERED_IDENTIFIER
     0-0-0/w STRC(252)         1 DEFERED_ID_TREE            0-0-0/w STRC(288)   r     1 DEFERED_QUAL_ID
     0-0-0/w STRC(288)         1 DEFERED_SUM_CLAUSE
     0-0-0/w STRC(288)         1 DEFERED_SUM_CLAUSE_LIST
     0-0-0/w STRC(288)         1 DELETE_STMT                0-0-0/w STRC(108)         1 DEPENDING_SIZE
     0-0-0/w STRC(5472)        1 DIMS                       0-0-0/w STRC(288)         1 DIVIDE_STMT
     0-0-0/w STRC(396)         1 DML_ITEM                   0-0-0/w STRC(216)         1 DML_REC
     0-0-0/w STRC(73836)       1 EVALUATE                   0-0-0/w STRC(396)         1 FD
     0-0-0/w STRC(1692)        1 FILE_LTS                   0-0-0/w STRC(288)         1 ILS_LIST
     0-0-0/w STRC(108)         1 INDEXES                    0-0-0/w STRC(360)         1 INIT_LTS
     0-0-0/w STRC(288)         1 INSPECT_1_STMT             0-0-0/w STRC(288)         1 INSPECT_2_STMT
     0-0-0/w STRC(288)         1 INSPECT_4_STMT             0-0-0/w STRC(396)         1 INTDEF
     0-0-0/w STRC(180)         1 IO_RESTORE_CHAIN           0-0-0/w STRC(144)   r     1 KEY
     0-0-0/w STRC(396)         1 LABEL                      0-0-0/w STRC(288)         1 LA_ITEM
     0-0-0/w STRC(36864)       1 LCNST                      0-0-0/w STRC(72)          1 LONG
     0-0-0/w STRC        r     1 LTS                        0-0-0/w STRC(360)   r     1 LTSS
     0-0-0/w STRC(36936)       1 LTS_PTR_ARRAY              0-0-0/w STRC(504)         1 LX_CD_INPUT
     0-0-0/w STRC(324)         1 LX_CD_I_O                  0-0-0/w STRC(396)         1 LX_CD_OUTPUT
     0-0-0/w STRC(288)         1 LX_ETT_ITEM                0-0-0/w STRC(288)   r     1 LX_ITEM
     0-0-0/w STRC(288)         1 LX_LARGE                   0-0-0/w STRC(288)   r     1 LX_LIST
     0-0-0/w STRC(1224)        1 LX_REC_DECL                0-0-0/w STRC(864)         1 LX_REPORT_REC
     0-0-0/w STRC(288)   r     1 LX_TERMINAL                0-0-0/w STRC(396)         1 MNEMONIC
     0-0-0/w STRC(288)         1 MULTIPLY_STMT              0-0-0/w STRC(144)         1 NEL
     0-0-0/w STRC(216)         1 OPEN_LTS                   0-0-0/w STRC(36864)       1 PAGE
     0-0-0/w STRC(396)         1 PARA                       0-0-0/w STRC(144)         1 PRIME
     0-0-0/w STRC(396)         1 PROC_                      0-0-0/w STRC(396)         1 PROC_DEF
     0-0-0/w STRC(900)         1 PROC_SUPP                  0-0-0/w STRC(216)   r     1 QLT
     0-0-0/w STRC(396)         1 RD                         0-0-0/w STRC(288)         1 READ_STMT
     0-0-0/w STRC(216)         1 REF                        0-0-0/w STRC(108)         1 RENAMES
     0-0-0/w STRC(720)         1 REPORT_01_LTS              0-0-0/w STRC(432)         1 REPORT_ELEM_LTS
     0-0-0/w STRC(252)         1 REPORT_GRP_LTS             0-0-0/w STRC(1332)        1 REPORT_LTS
     0-0-0/w STRC(288)         1 REWRITE_STMT               0-0-0/w STRC(144)         1 RVA_LTS
     0-0-0/w STRC(396)         1 SCALAR                     0-0-0/w STRC(396)         1 SD
PL6.E3A0      #002=Z8DQ$QUALIFY_KEYS File=Z8DQ.:Z8A6TSI                          SAT 08/09/97 11:19 Page:90
     0-0-0/w STRC(396)         1 SECTION                    0-0-0/w STRC(396)         1 SEGMENT
     0-0-0/w STRC(360)         1 SEGMENT_LTS                0-0-0/w STRC(396)         1 ST
     0-0-0/w STRC(288)         1 START_STMT                 0-0-0/w STRC(252)         1 STRING_STMT
     0-0-0/w STRC(288)         1 SUBTRACT_STMT              0-0-0/w STRC(252)         1 SUM_LTS
     0-0-0/w STRC(396)         1 SWITCH                     0-0-0/w STRC(396)         1 SYMBOLIC_CHAR
     0-0-0/w STRC(396)         1 SYMDEF_                    0-0-0/w STRC(396)         1 SYMREF_
     0-0-0/w STRC(396)         1 TEMP                       0-0-0/w STRC(288)         1 UNARY_OP
     0-0-0/w STRC(288)         1 UNSTRING_STMT              0-0-0/d STRC(612)         1 USE
     0-0-0/w STRC(252)         1 USE_SUPP                   0-0-0/w STRC(396)   r     1 VARIABLE
     0-0-0/w STRC(288)         1 WRITE_STMT


   Procedure Z8DQ$QUALIFY_KEYS requires 401 words for executable code.
   Procedure Z8DQ$QUALIFY_KEYS requires 30 words of local(AUTO) storage.

PL6.E3A0      #003=Z8DQ$CHECK_FOR_OCCURS File=Z8DQ.:Z8A6TSI                      SAT 08/09/97 11:21 Page:91
      466        1        /*T***********************************************************/
      467        2        /*T*                                                         */
      468        3        /*T* Copyright (c) Bull HN Information Systems Inc., 1997    */
      469        4        /*T*                                                         */
      470        5        /*T***********************************************************/
      471        6        Z8DQ$CHECK_FOR_OCCURS: PROC (IN_QLT$, TERMINATION_QLT$) ALTRET;
      472        7
      473        8        /*P*
      474        9             NAME : Z8DQ$CHECK_FOR_OCCURS
      475       10             PURPOSE : To check a range of QLT's for an occurs clause.
      476       11        */
      477       12
      478       13
      479       14        %EQU PHASE = 1;
      480       15
      481       16        %INCLUDE Z8A_DEFC;
      482       84        %INCLUDE Z8A_SUPP_MAC;
      483     2484        %INCLUDE Z8A_COMCOM;
      484     3134        %INCLUDE Z8A_ST;
      485     6793        %INCLUDE Z8A_QLT;
      486     6899        %INCLUDE Z8A_ERR_NUMS;
      487     7663
      488     7664    1   DCL Z8AE$ERROR         ENTRY (12);
      489     7665
      490     7666    1   DCL IN_QLT$            PTR;
      491     7667    1   DCL TERMINATION_QLT$   PTR;
      492     7668
      493     7669    1   DCL CURRENT_QLT$       PTR;
      494     7670
      495     7671        %EJECT;
PL6.E3A0      #003=Z8DQ$CHECK_FOR_OCCURS File=Z8DQ.:Z8A6TSI                      SAT 08/09/97 11:21 Page:92
      496     7672    1      CURRENT_QLT$ = IN_QLT$;
      497     7673
      498     7674    2      DO WHILE (CURRENT_QLT$ ~= ADDR(NIL));
      499     7675    2        IF CURRENT_QLT$ = TERMINATION_QLT$ THEN
      500     7676    2          ALTRETURN;
      501     7677
      502     7678    2        IF CURRENT_QLT$ -> QLT.B.OCCURS THEN
      503     7679    3          DO;
      504     7680    3            CALL Z8AE$ERROR (%E$OCCURS_BETWEEN_KEY_AND_ARRAY,
      505     7681    3                             BINBIT( TERMINATION_QLT$ -> QLT.ST$ ->
      506     7682    3                                     VARIABLE.LINE_NO, 36),
      507     7683    3                             0);
      508     7684    3            ALTRETURN;
      509     7685    3          END;
      510     7686
      511     7687    2        IF CURRENT_QLT$ -> QLT.SON ~= ADDR(NIL) THEN
      512     7688    2          CALL Z8DQ$CHECK_FOR_OCCURS (CURRENT_QLT$ -> QLT.SON,
      513     7689    2                                      TERMINATION_QLT$)
      514     7690    2            WHENALTRETURN
      515     7691    3              DO;
      516     7692    3                ALTRETURN;
      517     7693    3              END;
      518     7694
      519     7695    2        CURRENT_QLT$ = CURRENT_QLT$ -> QLT.BROTHER;
      520     7696    2      END; /* While */
      521     7697
      522     7698    1   END Z8DQ$CHECK_FOR_OCCURS;
      523     7699        %EOD;

PL6.E3A0      #003=Z8DQ$CHECK_FOR_OCCURS File=Z8DQ.:Z8A6TSI                      SAT 08/09/97 11:21 Page:93
--  Include file information  --

   Z8A_ERR_NUMS.:Z8A6TOU  is referenced.
   Z8A_QLT.:Z8A6TOU  cannot be made into a system file and is referenced.
   Z8A_ST.:Z8A6TOU  cannot be made into a system file and is referenced.
   Z8A_COMCOM.:Z8A6TOU  cannot be made into a system file and is referenced.
   X8A_COM_MACS.:X8A6TOU  is referenced.
   Z8A_NAMES.:Z8A6TOU  is referenced.
   Z8A_SUPP_MAC.:Z8A6TOU  is referenced.
   Z8A_DEFC.:Z8A6TOU  cannot be made into a system file and is referenced.
      No diagnostics issued in procedure Z8DQ$CHECK_FOR_OCCURS.

   Procedure Z8DQ$CHECK_FOR_OCCURS requires 51 words for executable code.
   Procedure Z8DQ$CHECK_FOR_OCCURS requires 12 words of local(AUTO) storage.

PL6.E3A0      #003=Z8DQ$CHECK_FOR_OCCURS File=Z8DQ.:Z8A6TSI                      SAT 08/09/97 11:21 Page:94

 Object Unit name= Z8DQ$CHECK_FOR_OCCURS                      File name= Z8DQ.:Z8A6TOU
 UTS= AUG 09 '97 11:21:59.36 SAT                              Compiler= PL-6/E31         Sev=      00
 SharedLib= :SHARED_SYSTEM                                    Alt SharedLib=


    ****  Control sections  ****

 Sect   Type Bound  Init  Size OctSiz  Section name(segment info)
    0  LblCom even  none     1      1  ITERATION
    1  LblCom even  none     1      1  ST$
    2  LblCom even  none     5      5  ST_
    3  LblCom even  none     1      1  QLT$
    4  LblCom even  none     1      1  PREV_01_QLT$
    5  LblCom even  none     5      5  QLT_
    6   Proc  even  none    51     63  Z8DQ$CHECK_FOR_OCCURS
    7  RoData even  none     7      7  Z8DQ$CHECK_FOR_OCCURS

    ****  Entry defs  ****

                              Check   Calling
                             calling  sequence
  Sect OctLoc Primary Altret sequence   type   Parms  Name
     6      0   yes    yes     yes      Std        2  Z8DQ$CHECK_FOR_OCCURS

  ****  Entry refs  ****

         Check        Calling
        calling       sequence
Altret sequence SRef   type   Args  Name
         yes           Std      12 Z8AE$ERROR
                       nStd      0 X66_AUTO_2
                       nStd      0 X66_AALT
                       nStd      0 X66_ARET
PL6.E3A0      #003=Z8DQ$CHECK_FOR_OCCURS File=Z8DQ.:Z8A6TSI                      SAT 08/09/97 11:21 Page:95

  ****  Data refs  ****

  Flags:  r = read only, s = secondary
Flgs Name                             Flgs Name                             Flgs Name
     COMCOM

  ****  Segment refs  ****

  Flags:  r = read only, s = secondary
Flgs Name                             Flgs Name                             Flgs Name
     NULLSID                               ISSID
PL6.E3A0      #003=Z8DQ$CHECK_FOR_OCCURS File=Z8DQ.:Z8A6TSI                      SAT 08/09/97 11:21 Page:96


      466        1        /*T***********************************************************/
      467        2        /*T*                                                         */
      468        3        /*T* Copyright (c) Bull HN Information Systems Inc., 1997    */
      469        4        /*T*                                                         */
      470        5        /*T***********************************************************/
      471        6        Z8DQ$CHECK_FOR_OCCURS: PROC (IN_QLT$, TERMINATION_QLT$) ALTRET;

      6  6 000000   000000 700200 xent  Z8DQ$CHECK_* TSX0  ! X66_AUTO_2
         6 000001   000014 000002                    ZERO    12,2

      472        7
      473        8        /*P*
      474        9             NAME : Z8DQ$CHECK_FOR_OCCURS
      475       10             PURPOSE : To check a range of QLT's for an occurs clause.
      476       11        */
      477       12
      478       13
      479       14        %EQU PHASE = 1;
      480       15
      481       16        %INCLUDE Z8A_DEFC;
      482       84        %INCLUDE Z8A_SUPP_MAC;
      483     2484        %INCLUDE Z8A_COMCOM;
      484     3134        %INCLUDE Z8A_ST;
      485     6793        %INCLUDE Z8A_QLT;
      486     6899        %INCLUDE Z8A_ERR_NUMS;
      487     7663
      488     7664    1   DCL Z8AE$ERROR         ENTRY (12);
      489     7665
      490     7666    1   DCL IN_QLT$            PTR;
      491     7667    1   DCL TERMINATION_QLT$   PTR;
      492     7668
      493     7669    1   DCL CURRENT_QLT$       PTR;
      494     7670
      495     7671        %EJECT;
PL6.E3A0      #003=Z8DQ$CHECK_FOR_OCCURS File=Z8DQ.:Z8A6TSI                      SAT 08/09/97 11:21 Page:97
      496     7672    1      CURRENT_QLT$ = IN_QLT$;

   7672  6 000002   200003 470500                    LDP0    @IN_QLT$,,AUTO
         6 000003   000000 236100                    LDQ     0,,PR0
         6 000004   200005 756100                    STQ     CURRENT_QLT$,,AUTO

      497     7673
      498     7674    2      DO WHILE (CURRENT_QLT$ ~= ADDR(NIL));

   7674  6 000005   000060 710000 6                  TRA     s:7696

      499     7675    2        IF CURRENT_QLT$ = TERMINATION_QLT$ THEN

   7675  6 000006   200004 470500                    LDP0    @TERMINATION_QLT$,,AUTO
         6 000007   200005 236100                    LDQ     CURRENT_QLT$,,AUTO
         6 000010   000000 116100                    CMPQ    0,,PR0
         6 000011   000013 601000 6                  TNZ     s:7678

      500     7676    2          ALTRETURN;

   7676  6 000012   000000 702200 xent               TSX2  ! X66_AALT

      501     7677
      502     7678    2        IF CURRENT_QLT$ -> QLT.B.OCCURS THEN

   7678  6 000013   200005 471500                    LDP1    CURRENT_QLT$,,AUTO
         6 000014   100000 236100                    LDQ     0,,PR1
         6 000015   400000 316007                    CANQ    -131072,DL
         6 000016   000037 600000 6                  TZE     s:7687

      503     7679    3          DO;

      504     7680    3            CALL Z8AE$ERROR (%E$OCCURS_BETWEEN_KEY_AND_ARRAY,

   7680  6 000017   000000 473500                    LDP3    0,,PR0
         6 000020   300004 474500                    LDP4    4,,PR3
         6 000021   400002 236100                    LDQ     2,,PR4
PL6.E3A0      #003=Z8DQ$CHECK_FOR_OCCURS File=Z8DQ.:Z8A6TSI                      SAT 08/09/97 11:21 Page:98
         6 000022   777777 376007                    ANQ     -1,DL
         6 000023   200006 756100                    STQ     CURRENT_QLT$+1,,AUTO
         6 000024   000003 236000 7                  LDQ     3
         6 000025   200012 756100                    STQ     CURRENT_QLT$+5,,AUTO
         6 000026   200006 633500                    EPPR3   CURRENT_QLT$+1,,AUTO
         6 000027   200011 453500                    STP3    CURRENT_QLT$+4,,AUTO
         6 000030   000004 236000 7                  LDQ     4
         6 000031   200010 756100                    STQ     CURRENT_QLT$+3,,AUTO
         6 000032   200010 630500                    EPPR0   CURRENT_QLT$+3,,AUTO
         6 000033   000000 631400 7                  EPPR1   0
         6 000034   000000 701000 xent               TSX1    Z8AE$ERROR
         6 000035   000000 011000                    NOP     0

      505     7681    3                             BINBIT( TERMINATION_QLT$ -> QLT.ST$ ->
      506     7682    3                                     VARIABLE.LINE_NO, 36),
      507     7683    3                             0);
      508     7684    3            ALTRETURN;

   7684  6 000036   000000 702200 xent               TSX2  ! X66_AALT

      509     7685    3          END;
      510     7686
      511     7687    2        IF CURRENT_QLT$ -> QLT.SON ~= ADDR(NIL) THEN

   7687  6 000037   100003 236100                    LDQ     3,,PR1
         6 000040   000005 116000 7                  CMPQ    5
         6 000041   000055 600000 6                  TZE     s:7695

      512     7688    2          CALL Z8DQ$CHECK_FOR_OCCURS (CURRENT_QLT$ -> QLT.SON,

   7688  6 000042   200004 236100                    LDQ     @TERMINATION_QLT$,,AUTO
         6 000043   200007 756100                    STQ     CURRENT_QLT$+2,,AUTO
         6 000044   200005 236100                    LDQ     CURRENT_QLT$,,AUTO
         6 000045   000003 036003                    ADLQ    3,DU
         6 000046   200006 756100                    STQ     CURRENT_QLT$+1,,AUTO
         6 000047   200006 630500                    EPPR0   CURRENT_QLT$+1,,AUTO
         6 000050   000006 631400 7                  EPPR1   6
PL6.E3A0      #003=Z8DQ$CHECK_FOR_OCCURS File=Z8DQ.:Z8A6TSI                      SAT 08/09/97 11:21 Page:99
         6 000051   000000 701000 6                  TSX1    s:6
         6 000052   000054 702000 6                  TSX2    s:7692
         6 000053   000055 710000 6                  TRA     s:7695

      513     7689    2                                      TERMINATION_QLT$)
      514     7690    2            WHENALTRETURN
      515     7691    3              DO;

      516     7692    3                ALTRETURN;

   7692  6 000054   000000 702200 xent               TSX2  ! X66_AALT

      517     7693    3              END;
      518     7694
      519     7695    2        CURRENT_QLT$ = CURRENT_QLT$ -> QLT.BROTHER;

   7695  6 000055   200005 470500                    LDP0    CURRENT_QLT$,,AUTO
         6 000056   000002 236100                    LDQ     2,,PR0
         6 000057   200005 756100                    STQ     CURRENT_QLT$,,AUTO

      520     7696    2      END; /* While */

   7696  6 000060   000005 116000 7                  CMPQ    5
         6 000061   000006 601000 6                  TNZ     s:7675

      521     7697
      522     7698    1   END Z8DQ$CHECK_FOR_OCCURS;

   7698  6 000062   000000 702200 xent               TSX2  ! X66_ARET
      523     7699        %EOD;

PL6.E3A0      #003=Z8DQ$CHECK_FOR_OCCURS File=Z8DQ.:Z8A6TSI                      SAT 08/09/97 11:21 Page:100
--  Include file information  --

   Z8A_ERR_NUMS.:Z8A6TOU  is referenced.
   Z8A_QLT.:Z8A6TOU  cannot be made into a system file and is referenced.
   Z8A_ST.:Z8A6TOU  cannot be made into a system file and is referenced.
   Z8A_COMCOM.:Z8A6TOU  cannot be made into a system file and is referenced.
   X8A_COM_MACS.:X8A6TOU  is referenced.
   Z8A_NAMES.:Z8A6TOU  is referenced.
   Z8A_SUPP_MAC.:Z8A6TOU  is referenced.
   Z8A_DEFC.:Z8A6TOU  cannot be made into a system file and is referenced.
      No diagnostics issued in procedure Z8DQ$CHECK_FOR_OCCURS.
PL6.E3A0      #003=Z8DQ$CHECK_FOR_OCCURS File=Z8DQ.:Z8A6TSI                      SAT 08/09/97 11:21 Page:101

 **** Variables and constants ****

  ****  Section 000 LblCom ITERATION

  ****  Scalars and arrays  ****
OctLoc.c.b A Datatyp(siz) R M Lvl/name                 OctLoc.c.b A Datatyp(siz) R M Lvl/name

     0-0-0/w SBIN              1 ITERATION

  ****  Section 001 LblCom ST$

  ****  Scalars and arrays  ****
OctLoc.c.b A Datatyp(siz) R M Lvl/name                 OctLoc.c.b A Datatyp(siz) R M Lvl/name

     0-0-0/w PTR         r     1 ST$

  ****  Section 002 LblCom ST_

  ****  Scalars and arrays  ****
OctLoc.c.b A Datatyp(siz) R M Lvl/name                 OctLoc.c.b A Datatyp(siz) R M Lvl/name

     0-0-0/w STRC(180)         1 ST_

  ****  Section 003 LblCom QLT$

  ****  Scalars and arrays  ****
OctLoc.c.b A Datatyp(siz) R M Lvl/name                 OctLoc.c.b A Datatyp(siz) R M Lvl/name

     0-0-0/w PTR         r     1 QLT$

  ****  Section 004 LblCom PREV_01_QLT$

  ****  Scalars and arrays  ****
OctLoc.c.b A Datatyp(siz) R M Lvl/name                 OctLoc.c.b A Datatyp(siz) R M Lvl/name

     0-0-0/w PTR               1 PREV_01_QLT$

PL6.E3A0      #003=Z8DQ$CHECK_FOR_OCCURS File=Z8DQ.:Z8A6TSI                      SAT 08/09/97 11:21 Page:102
  ****  Section 005 LblCom QLT_

  ****  Scalars and arrays  ****
OctLoc.c.b A Datatyp(siz) R M Lvl/name                 OctLoc.c.b A Datatyp(siz) R M Lvl/name

     0-0-0/w STRC(180)         1 QLT_

  ****  Auto variables  ****

  ****  Scalars and arrays  ****
OctLoc.c.b A Datatyp(siz) R M Lvl/name                 OctLoc.c.b A Datatyp(siz) R M Lvl/name

     3-0-0/w PTR         r     1 @IN_QLT$                   4-0-0/w PTR         r     1 @TERMINATION_QLT$
     5-0-0/w PTR         r     1 CURRENT_QLT$              *0-0-0/w PTR         r     1 IN_QLT$
    *0-0-0/w PTR         r     1 TERMINATION_QLT$

  ****  SYMREF variables  ****

  ****  Scalars and arrays  ****
OctLoc.c.b A Datatyp(siz) R M Lvl/name                 OctLoc.c.b A Datatyp(siz) R M Lvl/name

     0-0-0/d STRC(13248)       1 COMCOM

  ****  BASED and DCB variables  ****

  ****  Scalars and arrays  ****
OctLoc.c.b A Datatyp(siz) R M Lvl/name                 OctLoc.c.b A Datatyp(siz) R M Lvl/name

     0-0-0/w STRC(396)         1 ALPHABET                   0-0-0/w STRC(396)         1 ARRAY
     0-0-0/w STRC(396)         1 BLOCK                      0-0-0/w STRC(396)         1 CD
     0-0-0/w CHAR(4096)        1 CHARS                      0-0-0/w STRC(396)         1 CLASS
     0-0-0/w STRC(396)         1 CONDITION                  0-0-0/w STRC(396)         1 CONST
     0-0-0/w STRC(72)          1 CONT                       0-0-0/w STRC(396)         1 DB
     0-0-0/w STRC(396)         1 DCB_                       0-0-0/w STRC(396)         1 DML_ITEM
     0-0-0/w STRC(396)         1 FD                         0-0-0/w STRC(396)         1 INTDEF
     0-0-0/w STRC(396)         1 LABEL                      0-0-0/w STRC(396)         1 MNEMONIC
     0-0-0/w STRC(36864)       1 PAGE                       0-0-0/w STRC(396)         1 PARA
PL6.E3A0      #003=Z8DQ$CHECK_FOR_OCCURS File=Z8DQ.:Z8A6TSI                      SAT 08/09/97 11:21 Page:103
     0-0-0/w STRC(396)         1 PROC_                      0-0-0/w STRC(396)         1 PROC_DEF
     0-0-0/w STRC(216)   r     1 QLT                        0-0-0/w STRC(396)         1 RD
     0-0-0/w STRC(396)         1 SCALAR                     0-0-0/w STRC(396)         1 SD
     0-0-0/w STRC(396)         1 SECTION                    0-0-0/w STRC(396)         1 SEGMENT
     0-0-0/w STRC(396)         1 ST                         0-0-0/w STRC(396)         1 SWITCH
     0-0-0/w STRC(396)         1 SYMBOLIC_CHAR              0-0-0/w STRC(396)         1 SYMDEF_
     0-0-0/w STRC(396)         1 SYMREF_                    0-0-0/w STRC(396)         1 TEMP
     0-0-0/w STRC(396)   r     1 VARIABLE


   Procedure Z8DQ$CHECK_FOR_OCCURS requires 51 words for executable code.
   Procedure Z8DQ$CHECK_FOR_OCCURS requires 12 words of local(AUTO) storage.

PL6.E3A0      #004=Z8DQ$GROUP_VALUE File=Z8DQ.:Z8A6TSI                           SAT 08/09/97 11:22 Page:104
      524        1        /*T***********************************************************/
      525        2        /*T*                                                         */
      526        3        /*T* Copyright (c) Bull HN Information Systems Inc., 1997    */
      527        4        /*T*                                                         */
      528        5        /*T***********************************************************/
      529        6        Z8DQ$GROUP_VALUE: PROC;
      530        7
      531        8        %EQU PHASE = 1;
      532        9
      533       10        %INCLUDE Z8A_DEFC;
      534       78        %INCLUDE Z8A_SUPP_MAC;
      535     2478        %INCLUDE Z8A_COMCOM;
      536     3128        %INCLUDE Z8A_DNT;
      537     3349        %INCLUDE Z8A_ILL;
      538     4042        %INCLUDE Z8A_LTS;
      539     6119        %INCLUDE Z8A_ERR_NUMS;
      540     6883        %INCLUDE Z8A_ETT;
      541     7184        %INCLUDE Z8A_ST;
      542    10843        %INCLUDE Z8A_TYPES;
      543    11017        %INCLUDE Z8A_MKCN;
      544    11034
      545    11035        %INCLUDE Z8E_STACKS;
      546    13301        %INCLUDE Z8E_O1COM;
      547    14062        %INCLUDE Z8E_MACROS;
      548    14737        %INCLUDE Z8E_ABSSYN;
      549    14943        %INCLUDE Z8E_HEAP;
      550    14999        %INCLUDE Z8E_STATEMNT;
      551    15068
      552    15069    1   DCL Z8AC$MAKE_CONST           ENTRY (1);
      553    15070    1   DCL Z8AE$ERROR                ENTRY (12);
      554    15071    1   DCL Z8ED$DISPOSE_ABSSYN_TREE  ENTRY (1);
      555    15072    1   DCL Z8EC$NEW_CONST_WITH_TYPE_DESC ENTRY (3) ALTRET;
      556    15073    1   DCL Z8DU$BUILD_INITIAL_ITEM       ENTRY (2);
      557    15074
      558    15075    1   DCL 1 TYPE_DESC        ALIGNED,
      559    15076             %TYPE_DESC;
      560    15110
PL6.E3A0      #004=Z8DQ$GROUP_VALUE File=Z8DQ.:Z8A6TSI                           SAT 08/09/97 11:22 Page:105
      561    15111    1   DCL RETURN_ETT$        PTR;
      562    15112    1   DCL CURRENT_GROUP$     PTR;
      563    15113    1   DCL PRESET$            PTR;
      564    15114    1   DCL ITEM$              PTR;
      565    15115    1   DCL ST$$               PTR;
      566    15116    1   DCL LTS$$              PTR;
      567    15117    1   DCL ILL$$              PTR;
      568    15118
      569    15119
      570    15120    1        CURRENT_GROUP$ = O1COM.VALUE$;
      571    15121
      572    15122    2        DO WHILE (CURRENT_GROUP$ ~= ADDR(NIL));
      573    15123    2          ITEM$ = CURRENT_GROUP$ -> DEFERED_QUAL_ID.QUAL_ID_LIST$;
      574    15124    2          ST$$  = CURRENT_GROUP$ -> DEFERED_QUAL_ID.ASSOC_VAR_ST$;
      575    15125    2          ILL$$ = CURRENT_GROUP$ -> DEFERED_QUAL_ID.ILL$;
      576    15126
      577    15127    2          TYPE_DESC.DESC = '0'B;
      578    15128    2          TYPE_DESC.DESC.DESCL = ST$$ -> ST.DESCL;
      579    15129    2          TYPE_DESC.SSOP$ = ADDR(NIL);
      580    15130    2          TYPE_DESC.TYPE  = %TYA;
      581    15131
      582    15132    2          IF ST$$ -> SCALAR.B.LENGTH_4096 THEN
      583    15133    3            DO;
      584    15134                   %GET_LTS (@ID      = %LONG,
      585    15135                             @ST$     = ST$$,
      586    15136                             @RETURN$ = LTS$$);
      587    15179
      588    15180    3              MKCN.CON = LTS$$ -> LONG.LENGTH;
      589    15181    3              CALL Z8AC$MAKE_CONST (TYPE_DESC.SIZ$);
      590    15182    3            END;
      591    15183    2          ELSE
      592    15184    2            TYPE_DESC.SIZ$ = ADDR(NIL);
      593    15185
      594    15186    2          CALL Z8EC$NEW_CONST_WITH_TYPE_DESC (TYPE_DESC,
      595    15187    2                                              ITEM$,
      596    15188    2                                              RETURN_ETT$)
      597    15189    2            WHENALTRETURN
PL6.E3A0      #004=Z8DQ$GROUP_VALUE File=Z8DQ.:Z8A6TSI                           SAT 08/09/97 11:22 Page:106
      598    15190    3              DO;
      599    15191                     %CONDITIONAL_ERROR (@LX_ITEM$ = ITEM$,
      600    15192                                         @ERROR#   = %E$VALUE_OVERFLOW,
      601    15193                                         @LINE     = ITEM$ -> LX_ITEM.LINE,
      602    15194                                         @COLUMN   = ITEM$ -> LX_ITEM.COLUMN);
      603    15224    3              END;
      604    15225
      605    15226    2          ILL$$ -> ILL.ROP = RETURN_ETT$ -> ETT.LOP;
      606    15227
      607    15228    2          CALL Z8DU$BUILD_INITIAL_ITEM (RETURN_ETT$, ST$$);
      608    15229
      609    15230    2          CURRENT_GROUP$ = CURRENT_GROUP$ -> DEFERED_QUAL_ID.LINK;
      610    15231    2        END; /* While */
      611    15232
      612    15233    1        CALL Z8ED$DISPOSE_ABSSYN_TREE (O1COM.VALUE$);
      613    15234
      614    15235    1   END Z8DQ$GROUP_VALUE;
      615    15236        %EOD;

PL6.E3A0      #004=Z8DQ$GROUP_VALUE File=Z8DQ.:Z8A6TSI                           SAT 08/09/97 11:22 Page:107
--  Include file information  --

   Z8E_STATEMNT.:Z8A6TOU  is referenced.
   Z8E_HEAP.:Z8A6TOU  cannot be made into a system file and is referenced.
   Z8E_ABSSYN.:Z8A6TOU  cannot be made into a system file and is referenced.
   Z8E_NEW_ILL.:Z8A6TOU  is referenced.
   Z8E_MACROS.:Z8A6TOU  cannot be made into a system file and is referenced.
   Z8E_O1COM.:Z8A6TOU  cannot be made into a system file and is referenced.
   Z8A_LEX_SYMB.:Z8A6TOU  cannot be made into a system file and is referenced.
   Z8E_STACKS.:Z8A6TOU  cannot be made into a system file and is referenced.
   Z8A_MKCN.:Z8A6TOU  cannot be made into a system file and is referenced.
   Z8A_TYPES.:Z8A6TOU  is referenced.
   Z8A_ST.:Z8A6TOU  cannot be made into a system file and is referenced.
   Z8A_ETT.:Z8A6TOU  cannot be made into a system file and is referenced.
   Z8A_ERR_NUMS.:Z8A6TOU  is referenced.
   Z8A_LTS.:Z8A6TOU  cannot be made into a system file and is referenced.
   Z8A_ILL.:Z8A6TOU  cannot be made into a system file and is referenced.
   Z8A_DNT.:Z8A6TOU  cannot be made into a system file and is referenced.
   Z8A_COMCOM.:Z8A6TOU  cannot be made into a system file and is referenced.
   X8A_COM_MACS.:X8A6TOU  is referenced.
   Z8A_NAMES.:Z8A6TOU  is referenced.
   Z8A_SUPP_MAC.:Z8A6TOU  is referenced.
   Z8A_DEFC.:Z8A6TOU  cannot be made into a system file and is referenced.
      No diagnostics issued in procedure Z8DQ$GROUP_VALUE.

   Procedure Z8DQ$GROUP_VALUE requires 103 words for executable code.
   Procedure Z8DQ$GROUP_VALUE requires 18 words of local(AUTO) storage.

PL6.E3A0      #004=Z8DQ$GROUP_VALUE File=Z8DQ.:Z8A6TSI                           SAT 08/09/97 11:22 Page:108

 Object Unit name= Z8DQ$GROUP_VALUE                           File name= Z8DQ.:Z8A6TOU
 UTS= AUG 09 '97 11:22:57.76 SAT                              Compiler= PL-6/E31         Sev=      00
 SharedLib= :SHARED_SYSTEM                                    Alt SharedLib=


    ****  Control sections  ****

 Sect   Type Bound  Init  Size OctSiz  Section name(segment info)
    0  LblCom even  none     1      1  ITERATION
    1  LblCom even  none     1      1  DNT$
    2  LblCom even  none     5      5  DNT_
    3  LblCom even  none     1      1  DNT_BUCKET_NUMBER
    4  LblCom even  none     1      1  DNT_OF_1$
    5  LblCom even  none     1      1  ILL$
    6  LblCom even  none     5      5  ILL_
    7  LblCom even  none     1      1  LTS$
    8  LblCom even  none     5      5  LTS_
    9  LblCom even  none     1      1  ETT$
   10  LblCom even  none     1      1  HEAD_ETT$
   11  LblCom even  none   512   1000  ETT_BUCKETS
   12  LblCom even  none     5      5  ETT_
   13  LblCom even  none     1      1  ST$
   14  LblCom even  none     5      5  ST_
   15  LblCom even  none     2      2  MKCN
   16  LblCom even  none    90    132  LEX_SYMBOL
   17  LblCom even  none     1      1  CURRENT_LEX_SYMBOL$
   18  LblCom even  none    90    132  TEMP_LEX_SYMBOL
   19  LblCom even  none    90    132  TEMP_LEX_SYMBOL2
   20  LblCom even  none     8     10  TEMP_LX_NODE
   21  LblCom even  none     1      1  HEAP$
   22   Proc  even  none   103    147  Z8DQ$GROUP_VALUE
   23  RoData even  none     7      7  Z8DQ$GROUP_VALUE
PL6.E3A0      #004=Z8DQ$GROUP_VALUE File=Z8DQ.:Z8A6TSI                           SAT 08/09/97 11:22 Page:109

    ****  Entry defs  ****

                              Check   Calling
                             calling  sequence
  Sect OctLoc Primary Altret sequence   type   Parms  Name
    22      0   yes            yes      Std        0  Z8DQ$GROUP_VALUE

  ****  Entry refs  ****

         Check        Calling
        calling       sequence
Altret sequence SRef   type   Args  Name
         yes           Std       1 Z8AC$MAKE_CONST
 yes     yes           Std       3 Z8EC$NEW_CONST_WITH_TYPE_DESC
         yes           Std      12 Z8AE$ERROR
         yes           Std       2 Z8DU$BUILD_INITIAL_ITEM
         yes           Std       1 Z8ED$DISPOSE_ABSSYN_TREE
                       nStd      0 X66_AUTO_0
                       nStd      0 X66_ARET

  ****  Data refs  ****

  Flags:  r = read only, s = secondary
Flgs Name                             Flgs Name                             Flgs Name
     COMCOM                           r    ILL_STEP                         r    LTS_STEP
     O1COM                                 HIER_STK_PTR                          HIER_STK
     PAGE_FORMAT                           REP_STK_PTR                           REP_STK

  ****  Segment refs  ****

  Flags:  r = read only, s = secondary
Flgs Name                             Flgs Name                             Flgs Name
     NULLSID                               ISSID
PL6.E3A0      #004=Z8DQ$GROUP_VALUE File=Z8DQ.:Z8A6TSI                           SAT 08/09/97 11:22 Page:110


      524        1        /*T***********************************************************/
      525        2        /*T*                                                         */
      526        3        /*T* Copyright (c) Bull HN Information Systems Inc., 1997    */
      527        4        /*T*                                                         */
      528        5        /*T***********************************************************/
      529        6        Z8DQ$GROUP_VALUE: PROC;

      6 22 000000   000000 700200 xent  Z8DQ$GROUP_* TSX0  ! X66_AUTO_0
        22 000001   000022 000000                    ZERO    18,0

      530        7
      531        8        %EQU PHASE = 1;
      532        9
      533       10        %INCLUDE Z8A_DEFC;
      534       78        %INCLUDE Z8A_SUPP_MAC;
      535     2478        %INCLUDE Z8A_COMCOM;
      536     3128        %INCLUDE Z8A_DNT;
      537     3349        %INCLUDE Z8A_ILL;
      538     4042        %INCLUDE Z8A_LTS;
      539     6119        %INCLUDE Z8A_ERR_NUMS;
      540     6883        %INCLUDE Z8A_ETT;
      541     7184        %INCLUDE Z8A_ST;
      542    10843        %INCLUDE Z8A_TYPES;
      543    11017        %INCLUDE Z8A_MKCN;
      544    11034
      545    11035        %INCLUDE Z8E_STACKS;
      546    13301        %INCLUDE Z8E_O1COM;
      547    14062        %INCLUDE Z8E_MACROS;
      548    14737        %INCLUDE Z8E_ABSSYN;
      549    14943        %INCLUDE Z8E_HEAP;
      550    14999        %INCLUDE Z8E_STATEMNT;
      551    15068
      552    15069    1   DCL Z8AC$MAKE_CONST           ENTRY (1);
      553    15070    1   DCL Z8AE$ERROR                ENTRY (12);
      554    15071    1   DCL Z8ED$DISPOSE_ABSSYN_TREE  ENTRY (1);
      555    15072    1   DCL Z8EC$NEW_CONST_WITH_TYPE_DESC ENTRY (3) ALTRET;
PL6.E3A0      #004=Z8DQ$GROUP_VALUE File=Z8DQ.:Z8A6TSI                           SAT 08/09/97 11:22 Page:111
      556    15073    1   DCL Z8DU$BUILD_INITIAL_ITEM       ENTRY (2);
      557    15074
      558    15075    1   DCL 1 TYPE_DESC        ALIGNED,
      559    15076             %TYPE_DESC;
      560    15110
      561    15111    1   DCL RETURN_ETT$        PTR;
      562    15112    1   DCL CURRENT_GROUP$     PTR;
      563    15113    1   DCL PRESET$            PTR;
      564    15114    1   DCL ITEM$              PTR;
      565    15115    1   DCL ST$$               PTR;
      566    15116    1   DCL LTS$$              PTR;
      567    15117    1   DCL ILL$$              PTR;
      568    15118
      569    15119
      570    15120    1        CURRENT_GROUP$ = O1COM.VALUE$;

  15120 22 000002   000043 236000 xsym               LDQ     O1COM+35
        22 000003   200010 756100                    STQ     CURRENT_GROUP$,,AUTO

      571    15121
      572    15122    2        DO WHILE (CURRENT_GROUP$ ~= ADDR(NIL));

  15122 22 000004   000140 710000 22                 TRA     s:15231

      573    15123    2          ITEM$ = CURRENT_GROUP$ -> DEFERED_QUAL_ID.QUAL_ID_LIST$;

  15123 22 000005   200010 470500                    LDP0    CURRENT_GROUP$,,AUTO
        22 000006   000001 236100                    LDQ     1,,PR0
        22 000007   200012 756100                    STQ     ITEM$,,AUTO

      574    15124    2          ST$$  = CURRENT_GROUP$ -> DEFERED_QUAL_ID.ASSOC_VAR_ST$;

  15124 22 000010   000002 236100                    LDQ     2,,PR0
        22 000011   200013 756100                    STQ     ST$$,,AUTO

      575    15125    2          ILL$$ = CURRENT_GROUP$ -> DEFERED_QUAL_ID.ILL$;

PL6.E3A0      #004=Z8DQ$GROUP_VALUE File=Z8DQ.:Z8A6TSI                           SAT 08/09/97 11:22 Page:112
  15125 22 000012   000003 236100                    LDQ     3,,PR0
        22 000013   200015 756100                    STQ     ILL$$,,AUTO

      576    15126
      577    15127    2          TYPE_DESC.DESC = '0'B;

  15127 22 000014   200004 450100                    STZ     TYPE_DESC+1,,AUTO

      578    15128    2          TYPE_DESC.DESC.DESCL = ST$$ -> ST.DESCL;

  15128 22 000015   200013 471500                    LDP1    ST$$,,AUTO
        22 000016   100001 720100                    LXL0    1,,PR1
        22 000017   200004 440100                    SXL0    TYPE_DESC+1,,AUTO

      579    15129    2          TYPE_DESC.SSOP$ = ADDR(NIL);

  15129 22 000020   000000 236000 23                 LDQ     0
        22 000021   200006 756100                    STQ     TYPE_DESC+3,,AUTO

      580    15130    2          TYPE_DESC.TYPE  = %TYA;

  15130 22 000022   000010 235007                    LDA     8,DL
        22 000023   200003 755100                    STA     TYPE_DESC,,AUTO

      581    15131
      582    15132    2          IF ST$$ -> SCALAR.B.LENGTH_4096 THEN

  15132 22 000024   100003 236100                    LDQ     3,,PR1
        22 000025   004000 316003                    CANQ    2048,DU
        22 000026   000065 600000 22                 TZE     s:15184

      583    15133    3            DO;

      584    15134                   %GET_LTS (@ID      = %LONG,
      585    15135                             @ST$     = ST$$,
      586    15136                             @RETURN$ = LTS$$);

PL6.E3A0      #004=Z8DQ$GROUP_VALUE File=Z8DQ.:Z8A6TSI                           SAT 08/09/97 11:22 Page:113
  15138 22 000027   100005 236100                    LDQ     5,,PR1
        22 000030   000000 116000 23                 CMPQ    0
        22 000031   000041 600000 22                 TZE     s:15172
        22 000032   100005 473500                    LDP3    5,,PR1
        22 000033   300000 221100                    LDX1    0,,PR3
        22 000034   001105 101003                    CMPX1   581,DU
        22 000035   000041 601000 22                 TNZ     s:15172

  15146 22 000036   300003 236100                    LDQ     3,,PR3
        22 000037   200014 756100                    STQ     LTS$$,,AUTO

  15170 22 000040   000053 710000 22                 TRA     s:15180

  15172 22 000041   000000 116000 23                 CMPQ    0
        22 000042   000051 600000 22                 TZE     s:15176
        22 000043   100005 473500                    LDP3    5,,PR1
        22 000044   300000 221100                    LDX1    0,,PR3
        22 000045   001110 101003                    CMPX1   584,DU
        22 000046   000051 601000 22                 TNZ     s:15176

  15174 22 000047   200014 756100                    STQ     LTS$$,,AUTO
        22 000050   000053 710000 22                 TRA     s:15180

  15176 22 000051   000000 236000 23                 LDQ     0
        22 000052   200014 756100                    STQ     LTS$$,,AUTO

      587    15179
      588    15180    3              MKCN.CON = LTS$$ -> LONG.LENGTH;

  15180 22 000053   200014 473500                    LDP3    LTS$$,,AUTO
        22 000054   300001 235100                    LDA     1,,PR3
        22 000055   000000 755000 15                 STA     MKCN

      589    15181    3              CALL Z8AC$MAKE_CONST (TYPE_DESC.SIZ$);

  15181 22 000056   200005 634500                    EPPR4   TYPE_DESC+2,,AUTO
        22 000057   200016 454500                    STP4    ILL$$+1,,AUTO
PL6.E3A0      #004=Z8DQ$GROUP_VALUE File=Z8DQ.:Z8A6TSI                           SAT 08/09/97 11:22 Page:114
        22 000060   200016 630500                    EPPR0   ILL$$+1,,AUTO
        22 000061   000001 631400 23                 EPPR1   1
        22 000062   000000 701000 xent               TSX1    Z8AC$MAKE_CONST
        22 000063   000000 011000                    NOP     0

      590    15182    3            END;

  15182 22 000064   000067 710000 22                 TRA     s:15186

      591    15183    2          ELSE
      592    15184    2            TYPE_DESC.SIZ$ = ADDR(NIL);

  15184 22 000065   000000 236000 23                 LDQ     0
        22 000066   200005 756100                    STQ     TYPE_DESC+2,,AUTO

      593    15185
      594    15186    2          CALL Z8EC$NEW_CONST_WITH_TYPE_DESC (TYPE_DESC,

  15186 22 000067   200007 630500                    EPPR0   RETURN_ETT$,,AUTO
        22 000070   200020 450500                    STP0    ILL$$+3,,AUTO
        22 000071   200012 631500                    EPPR1   ITEM$,,AUTO
        22 000072   200017 451500                    STP1    ILL$$+2,,AUTO
        22 000073   200003 633500                    EPPR3   TYPE_DESC,,AUTO
        22 000074   200016 453500                    STP3    ILL$$+1,,AUTO
        22 000075   200016 630500                    EPPR0   ILL$$+1,,AUTO
        22 000076   000002 631400 23                 EPPR1   2
        22 000077   000000 701000 xent               TSX1    Z8EC$NEW_CONST_WITH_TYPE_DESC
        22 000100   000102 702000 22                 TSX2    s:15204
        22 000101   000121 710000 22                 TRA     s:15226

      595    15187    2                                              ITEM$,
      596    15188    2                                              RETURN_ETT$)
      597    15189    2            WHENALTRETURN
      598    15190    3              DO;

      599    15191                     %CONDITIONAL_ERROR (@LX_ITEM$ = ITEM$,
      600    15192                                         @ERROR#   = %E$VALUE_OVERFLOW,
PL6.E3A0      #004=Z8DQ$GROUP_VALUE File=Z8DQ.:Z8A6TSI                           SAT 08/09/97 11:22 Page:115
      601    15193                                         @LINE     = ITEM$ -> LX_ITEM.LINE,
      602    15194                                         @COLUMN   = ITEM$ -> LX_ITEM.COLUMN);

  15204 22 000102   200012 470500                    LDP0    ITEM$,,AUTO
        22 000103   000000 236100                    LDQ     0,,PR0
        22 000104   400000 316007                    CANQ    -131072,DL
        22 000105   000121 601000 22                 TNZ     s:15226

  15206 22 000106   200012 236100                    LDQ     ITEM$,,AUTO
        22 000107   000006 036003                    ADLQ    6,DU
        22 000110   200020 756100                    STQ     ILL$$+3,,AUTO
        22 000111   200012 236100                    LDQ     ITEM$,,AUTO
        22 000112   000005 036003                    ADLQ    5,DU
        22 000113   000004 235000 23                 LDA     4
        22 000114   200016 757100                    STAQ    ILL$$+1,,AUTO
        22 000115   200016 630500                    EPPR0   ILL$$+1,,AUTO
        22 000116   000002 631400 23                 EPPR1   2
        22 000117   000000 701000 xent               TSX1    Z8AE$ERROR
        22 000120   000000 011000                    NOP     0

      603    15224    3              END;

      604    15225
      605    15226    2          ILL$$ -> ILL.ROP = RETURN_ETT$ -> ETT.LOP;

  15226 22 000121   200007 470500                    LDP0    RETURN_ETT$,,AUTO
        22 000122   000001 236100                    LDQ     1,,PR0
        22 000123   200015 471500                    LDP1    ILL$$,,AUTO
        22 000124   100002 756100                    STQ     2,,PR1

      606    15227
      607    15228    2          CALL Z8DU$BUILD_INITIAL_ITEM (RETURN_ETT$, ST$$);

  15228 22 000125   200013 630500                    EPPR0   ST$$,,AUTO
        22 000126   200017 450500                    STP0    ILL$$+2,,AUTO
        22 000127   200007 633500                    EPPR3   RETURN_ETT$,,AUTO
        22 000130   200016 453500                    STP3    ILL$$+1,,AUTO
PL6.E3A0      #004=Z8DQ$GROUP_VALUE File=Z8DQ.:Z8A6TSI                           SAT 08/09/97 11:22 Page:116
        22 000131   200016 630500                    EPPR0   ILL$$+1,,AUTO
        22 000132   000005 631400 23                 EPPR1   5
        22 000133   000000 701000 xent               TSX1    Z8DU$BUILD_INITIAL_ITEM
        22 000134   000000 011000                    NOP     0

      608    15229
      609    15230    2          CURRENT_GROUP$ = CURRENT_GROUP$ -> DEFERED_QUAL_ID.LINK;

  15230 22 000135   200010 470500                    LDP0    CURRENT_GROUP$,,AUTO
        22 000136   000007 236100                    LDQ     7,,PR0
        22 000137   200010 756100                    STQ     CURRENT_GROUP$,,AUTO

      610    15231    2        END; /* While */

  15231 22 000140   000000 116000 23                 CMPQ    0
        22 000141   000005 601000 22                 TNZ     s:15123

      611    15232
      612    15233    1        CALL Z8ED$DISPOSE_ABSSYN_TREE (O1COM.VALUE$);

  15233 22 000142   000006 630400 23                 EPPR0   6
        22 000143   000001 631400 23                 EPPR1   1
        22 000144   000000 701000 xent               TSX1    Z8ED$DISPOSE_ABSSYN_TREE
        22 000145   000000 011000                    NOP     0

      613    15234
      614    15235    1   END Z8DQ$GROUP_VALUE;

  15235 22 000146   000000 702200 xent               TSX2  ! X66_ARET
      615    15236        %EOD;

PL6.E3A0      #004=Z8DQ$GROUP_VALUE File=Z8DQ.:Z8A6TSI                           SAT 08/09/97 11:22 Page:117
--  Include file information  --

   Z8E_STATEMNT.:Z8A6TOU  is referenced.
   Z8E_HEAP.:Z8A6TOU  cannot be made into a system file and is referenced.
   Z8E_ABSSYN.:Z8A6TOU  cannot be made into a system file and is referenced.
   Z8E_NEW_ILL.:Z8A6TOU  is referenced.
   Z8E_MACROS.:Z8A6TOU  cannot be made into a system file and is referenced.
   Z8E_O1COM.:Z8A6TOU  cannot be made into a system file and is referenced.
   Z8A_LEX_SYMB.:Z8A6TOU  cannot be made into a system file and is referenced.
   Z8E_STACKS.:Z8A6TOU  cannot be made into a system file and is referenced.
   Z8A_MKCN.:Z8A6TOU  cannot be made into a system file and is referenced.
   Z8A_TYPES.:Z8A6TOU  is referenced.
   Z8A_ST.:Z8A6TOU  cannot be made into a system file and is referenced.
   Z8A_ETT.:Z8A6TOU  cannot be made into a system file and is referenced.
   Z8A_ERR_NUMS.:Z8A6TOU  is referenced.
   Z8A_LTS.:Z8A6TOU  cannot be made into a system file and is referenced.
   Z8A_ILL.:Z8A6TOU  cannot be made into a system file and is referenced.
   Z8A_DNT.:Z8A6TOU  cannot be made into a system file and is referenced.
   Z8A_COMCOM.:Z8A6TOU  cannot be made into a system file and is referenced.
   X8A_COM_MACS.:X8A6TOU  is referenced.
   Z8A_NAMES.:Z8A6TOU  is referenced.
   Z8A_SUPP_MAC.:Z8A6TOU  is referenced.
   Z8A_DEFC.:Z8A6TOU  cannot be made into a system file and is referenced.
      No diagnostics issued in procedure Z8DQ$GROUP_VALUE.
PL6.E3A0      #004=Z8DQ$GROUP_VALUE File=Z8DQ.:Z8A6TSI                           SAT 08/09/97 11:22 Page:118

 **** Variables and constants ****

  ****  Section 000 LblCom ITERATION

  ****  Scalars and arrays  ****
OctLoc.c.b A Datatyp(siz) R M Lvl/name                 OctLoc.c.b A Datatyp(siz) R M Lvl/name

     0-0-0/w SBIN              1 ITERATION

  ****  Section 001 LblCom DNT$

  ****  Scalars and arrays  ****
OctLoc.c.b A Datatyp(siz) R M Lvl/name                 OctLoc.c.b A Datatyp(siz) R M Lvl/name

     0-0-0/w PTR         r     1 DNT$

  ****  Section 002 LblCom DNT_

  ****  Scalars and arrays  ****
OctLoc.c.b A Datatyp(siz) R M Lvl/name                 OctLoc.c.b A Datatyp(siz) R M Lvl/name

     0-0-0/w STRC(180)         1 DNT_

  ****  Section 003 LblCom DNT_BUCKET_NUMBER

  ****  Scalars and arrays  ****
OctLoc.c.b A Datatyp(siz) R M Lvl/name                 OctLoc.c.b A Datatyp(siz) R M Lvl/name

     0-0-0/w UBIN              1 DNT_BUCKET_NUMBER

  ****  Section 004 LblCom DNT_OF_1$

  ****  Scalars and arrays  ****
OctLoc.c.b A Datatyp(siz) R M Lvl/name                 OctLoc.c.b A Datatyp(siz) R M Lvl/name

     0-0-0/w PTR               1 DNT_OF_1$

PL6.E3A0      #004=Z8DQ$GROUP_VALUE File=Z8DQ.:Z8A6TSI                           SAT 08/09/97 11:22 Page:119
  ****  Section 005 LblCom ILL$

  ****  Scalars and arrays  ****
OctLoc.c.b A Datatyp(siz) R M Lvl/name                 OctLoc.c.b A Datatyp(siz) R M Lvl/name

     0-0-0/w PTR         r     1 ILL$

  ****  Section 006 LblCom ILL_

  ****  Scalars and arrays  ****
OctLoc.c.b A Datatyp(siz) R M Lvl/name                 OctLoc.c.b A Datatyp(siz) R M Lvl/name

     0-0-0/w STRC(180)         1 ILL_

  ****  Section 007 LblCom LTS$

  ****  Scalars and arrays  ****
OctLoc.c.b A Datatyp(siz) R M Lvl/name                 OctLoc.c.b A Datatyp(siz) R M Lvl/name

     0-0-0/w PTR               1 LONG_ITEM$                 0-0-0/w PTR         r     1 LTS$

  ****  Section 008 LblCom LTS_

  ****  Scalars and arrays  ****
OctLoc.c.b A Datatyp(siz) R M Lvl/name                 OctLoc.c.b A Datatyp(siz) R M Lvl/name

     0-0-0/w STRC(180)         1 LTS_

  ****  Section 009 LblCom ETT$

  ****  Scalars and arrays  ****
OctLoc.c.b A Datatyp(siz) R M Lvl/name                 OctLoc.c.b A Datatyp(siz) R M Lvl/name

     0-0-0/w PTR         r     1 ETT$

  ****  Section 010 LblCom HEAD_ETT$

PL6.E3A0      #004=Z8DQ$GROUP_VALUE File=Z8DQ.:Z8A6TSI                           SAT 08/09/97 11:22 Page:120
  ****  Scalars and arrays  ****
OctLoc.c.b A Datatyp(siz) R M Lvl/name                 OctLoc.c.b A Datatyp(siz) R M Lvl/name

     0-0-0/w PTR               1 HEAD_ETT$

  ****  Section 011 LblCom ETT_BUCKETS

  ****  Scalars and arrays  ****
OctLoc.c.b A Datatyp(siz) R M Lvl/name                 OctLoc.c.b A Datatyp(siz) R M Lvl/name

     0-0-0/w PTR               1 ETT_BUCKETS(0:511)

  ****  Section 012 LblCom ETT_

  ****  Scalars and arrays  ****
OctLoc.c.b A Datatyp(siz) R M Lvl/name                 OctLoc.c.b A Datatyp(siz) R M Lvl/name

     0-0-0/w STRC(180)         1 ETT_

  ****  Section 013 LblCom ST$

  ****  Scalars and arrays  ****
OctLoc.c.b A Datatyp(siz) R M Lvl/name                 OctLoc.c.b A Datatyp(siz) R M Lvl/name

     0-0-0/w PTR         r     1 ST$

  ****  Section 014 LblCom ST_

  ****  Scalars and arrays  ****
OctLoc.c.b A Datatyp(siz) R M Lvl/name                 OctLoc.c.b A Datatyp(siz) R M Lvl/name

     0-0-0/w STRC(180)         1 ST_

  ****  Section 015 LblCom MKCN

  ****  Scalars and arrays  ****
OctLoc.c.b A Datatyp(siz) R M Lvl/name                 OctLoc.c.b A Datatyp(siz) R M Lvl/name
PL6.E3A0      #004=Z8DQ$GROUP_VALUE File=Z8DQ.:Z8A6TSI                           SAT 08/09/97 11:22 Page:121

     0-0-0/w STRC(72)    r     1 MKCN

  ****  Section 016 LblCom LEX_SYMBOL

  ****  Scalars and arrays  ****
OctLoc.c.b A Datatyp(siz) R M Lvl/name                 OctLoc.c.b A Datatyp(siz) R M Lvl/name

     0-0-0/w STRC(3240)  r     1 LEX_SYMBOL                 0-0-0/w STRC(3240)        1 LEX_SYMBOL_WORDS

  ****  Section 017 LblCom CURRENT_LEX_SYMBOL$

  ****  Scalars and arrays  ****
OctLoc.c.b A Datatyp(siz) R M Lvl/name                 OctLoc.c.b A Datatyp(siz) R M Lvl/name

     0-0-0/w PTR         r     1 CURRENT_LEX_SYMBOL$

  ****  Section 018 LblCom TEMP_LEX_SYMBOL

  ****  Scalars and arrays  ****
OctLoc.c.b A Datatyp(siz) R M Lvl/name                 OctLoc.c.b A Datatyp(siz) R M Lvl/name

     0-0-0/w STRC(3240)        1 TEMP_LEX_SYMBOL

  ****  Section 019 LblCom TEMP_LEX_SYMBOL2

  ****  Scalars and arrays  ****
OctLoc.c.b A Datatyp(siz) R M Lvl/name                 OctLoc.c.b A Datatyp(siz) R M Lvl/name

     0-0-0/w STRC(3240)        1 TEMP_LEX_SYMBOL2

  ****  Section 020 LblCom TEMP_LX_NODE

  ****  Scalars and arrays  ****
OctLoc.c.b A Datatyp(siz) R M Lvl/name                 OctLoc.c.b A Datatyp(siz) R M Lvl/name

     0-0-0/d STRC(288)         1 TEMP_LX_NODE
PL6.E3A0      #004=Z8DQ$GROUP_VALUE File=Z8DQ.:Z8A6TSI                           SAT 08/09/97 11:22 Page:122

  ****  Section 021 LblCom HEAP$

  ****  Scalars and arrays  ****
OctLoc.c.b A Datatyp(siz) R M Lvl/name                 OctLoc.c.b A Datatyp(siz) R M Lvl/name

     0-0-0/w PTR               1 HEAP$

  ****  Auto variables  ****

  ****  Scalars and arrays  ****
OctLoc.c.b A Datatyp(siz) R M Lvl/name                 OctLoc.c.b A Datatyp(siz) R M Lvl/name

    10-0-0/w PTR         r     1 CURRENT_GROUP$            15-0-0/w PTR         r     1 ILL$$
    12-0-0/w PTR         r     1 ITEM$                     14-0-0/w PTR         r     1 LTS$$
    11-0-0/w PTR               1 PRESET$                    7-0-0/w PTR         r     1 RETURN_ETT$
    13-0-0/w PTR         r     1 ST$$                       3-0-0/w STRC(144)   r     1 TYPE_DESC

  ****  SYMREF variables  ****

  ****  Scalars and arrays  ****
OctLoc.c.b A Datatyp(siz) R M Lvl/name                 OctLoc.c.b A Datatyp(siz) R M Lvl/name

     0-0-0/d STRC(13248)       1 COMCOM
     0-0-0/w STRC(180)         1 HIER_STK(0:50)
     0-0-0/w SBIN              1 HIER_STK_PTR               0-0-0/w UBIN              1 ILL_STEP(0:144)
     0-0-0/w UBIN              1 LTS_STEP(0:37)
     0-0-0/d STRC(11580) r     1 O1COM                      0-0-0/w STRC(144)         1 PAGE_FORMAT
     0-0-0/w STRC(153)         1 REP_STK(0:50)              0-0-0/w SBIN              1 REP_STK_PTR

  ****  BASED and DCB variables  ****

  ****  Scalars and arrays  ****
OctLoc.c.b A Datatyp(siz) R M Lvl/name                 OctLoc.c.b A Datatyp(siz) R M Lvl/name

     0-0-0/w STRC(108)         1 ACCEPT_DISPLAY             0-0-0/w STRC(288)         1 ADD_STMT
     0-0-0/w STRC(396)         1 ALPHABET                   0-0-0/w STRC(144)         1 ALTER_LTS
PL6.E3A0      #004=Z8DQ$GROUP_VALUE File=Z8DQ.:Z8A6TSI                           SAT 08/09/97 11:22 Page:123
     0-0-0/w STRC(3672)        1 ALT_KEY                    0-0-0/w STRC(36864)       1 ARGLIST
     0-0-0/w STRC(396)         1 ARRAY                      0-0-0/w STRC(180)         1 ARRAY_PRESET_LTS
     0-0-0/w ASTR(324)   r     1 BASED_LEX_SYMBOL
     0-0-0/w STRC(360)         1 BASED_LEX_SYMBOL_WORDS
     0-0-0/w STRC(288)         1 BASE_LTS                   0-0-0/w STRC(108)         1 BINARY_ILL
     0-0-0/w STRC(288)         1 BINARY_OP                  0-0-0/w STRC(396)         1 BLOCK
     0-0-0/w STRC(144)         1 BRANCH_ILL                 0-0-0/w STRC(144)         1 BT
     0-0-0/w STRC(288)         1 CALL_STMT                  0-0-0/w STRC(216)         1 CCOSU
     0-0-0/w STRC(396)         1 CD                         0-0-0/w STRC(288)         1 CD_LTS
     0-0-0/w CHAR(4096)        1 CHARS                      0-0-0/w STRC(396)         1 CLASS
     0-0-0/w STRC(108)         1 CODED_MOVE                 0-0-0/w STRC(288)         1 COMPUTE_STMT
     0-0-0/w STRC(396)         1 CONDITION                  0-0-0/w STRC(396)         1 CONST
     0-0-0/w STRC(72)          1 CONT                       0-0-0/w STRC(540)         1 CONTROL_NAME_LTS
     0-0-0/w STRC(1872)        1 COPY_FILE                  0-0-0/w STRC(396)         1 DB
     0-0-0/w STRC(396)         1 DCB_                       0-0-0/w STRC(288)         1 DEFERED_IDENTIFIER
     0-0-0/w STRC(252)         1 DEFERED_ID_TREE            0-0-0/w STRC(288)   r     1 DEFERED_QUAL_ID
     0-0-0/w STRC(288)         1 DEFERED_SUM_CLAUSE
     0-0-0/w STRC(288)         1 DEFERED_SUM_CLAUSE_LIST
     0-0-0/w STRC(144)         1 DEFLB                      0-0-0/w STRC(288)         1 DELETE_STMT
     0-0-0/w STRC(108)         1 DEPENDING_SIZE             0-0-0/w STRC(5472)        1 DIMS
     0-0-0/w STRC(288)         1 DIVIDE_STMT                0-0-0/w STRC(396)         1 DML_ITEM
     0-0-0/w STRC(216)         1 DML_REC                    0-0-0/w ASTR(180)   r     1 DNT
     0-0-0/w STRC(144)         1 DOEND                      0-0-0/w STRC(396)         1 DO_N
     0-0-0/w STRC(180)         1 DV4I                       0-0-0/w STRC(180)         1 ENTRY_ILL
     0-0-0/w STRC(180)   r     1 ETT                        0-0-0/w STRC(108)         1 EVALU
     0-0-0/w STRC(73836)       1 EVALUATE                   0-0-0/w STRC(396)         1 FD
     0-0-0/w STRC(1692)        1 FILE_LTS                   0-0-0/w STRC(144)         1 GO
     0-0-0/w STRC(180)   r     1 ILL                        0-0-0/w STRC              1 ILL_NO_OPS
     0-0-0/w STRC(288)         1 ILS_LIST                   0-0-0/w STRC(108)         1 INDEXES
     0-0-0/w STRC(360)         1 INIT_LTS                   0-0-0/w STRC(288)         1 INSPECT_1_STMT
     0-0-0/w STRC(288)         1 INSPECT_2_STMT             0-0-0/w STRC(288)         1 INSPECT_4_STMT
     0-0-0/w STRC(396)         1 INTDEF                     0-0-0/w STRC(180)         1 IO_RESTORE_CHAIN
     0-0-0/w STRC(144)         1 KEY                        0-0-0/w STRC(396)         1 LABEL
     0-0-0/w STRC(288)         1 LA_ITEM                    0-0-0/w STRC(36864)       1 LCNST
     0-0-0/w STRC(108)         1 LINOI                      0-0-0/w STRC(72)    r     1 LONG
     0-0-0/w STRC        r     1 LTS                        0-0-0/w STRC(360)   r     1 LTSS
     0-0-0/w STRC(36936)       1 LTS_PTR_ARRAY              0-0-0/w STRC(504)         1 LX_CD_INPUT
PL6.E3A0      #004=Z8DQ$GROUP_VALUE File=Z8DQ.:Z8A6TSI                           SAT 08/09/97 11:22 Page:124
     0-0-0/w STRC(324)         1 LX_CD_I_O                  0-0-0/w STRC(396)         1 LX_CD_OUTPUT
     0-0-0/w STRC(288)         1 LX_ETT_ITEM                0-0-0/w STRC(288)   r     1 LX_ITEM
     0-0-0/w STRC(288)         1 LX_LARGE                   0-0-0/w STRC(288)         1 LX_LIST
     0-0-0/w STRC(1224)        1 LX_REC_DECL                0-0-0/w STRC(864)         1 LX_REPORT_REC
     0-0-0/w STRC(288)         1 LX_TERMINAL                0-0-0/w STRC(72)          1 MFILL
     0-0-0/w STRC(396)         1 MNEMONIC                   0-0-0/w STRC(288)         1 MULTIPLY_STMT
     0-0-0/w STRC(180)         1 MULTI_GO                   0-0-0/w STRC(180)         1 MVEAL
     0-0-0/w STRC(108)         1 MVFIL                      0-0-0/w STRC(72)          1 MVIIS
     0-0-0/w STRC(144)         1 NEL                        0-0-0/w STRC(216)         1 OPEN_LTS
     0-0-0/w STRC(180)         1 OS_CALL                    0-0-0/w STRC(36864)       1 PAGE
     0-0-0/w STRC(396)         1 PARA                       0-0-0/w STRC(216)         1 PFORM
     0-0-0/w STRC(144)         1 PINC                       0-0-0/w STRC(144)         1 PREOFF
     0-0-0/w STRC(108)         1 PRESET                     0-0-0/w STRC(144)         1 PRIME
     0-0-0/w STRC(396)         1 PROC_                      0-0-0/w STRC(396)         1 PROC_DEF
     0-0-0/w STRC(900)         1 PROC_SUPP                  0-0-0/w STRC(144)         1 P_A_PRESET
     0-0-0/w STRC(144)         1 P_P_PRESET                 0-0-0/w STRC(396)         1 RD
     0-0-0/w STRC(288)         1 READ_STMT                  0-0-0/w STRC(216)         1 REF
     0-0-0/w STRC(144)         1 REMEM                      0-0-0/w STRC(108)         1 RENAMES
     0-0-0/w STRC(720)         1 REPORT_01_LTS              0-0-0/w STRC(432)         1 REPORT_ELEM_LTS
     0-0-0/w STRC(252)         1 REPORT_GRP_LTS             0-0-0/w STRC(1332)        1 REPORT_LTS
     0-0-0/w STRC(288)         1 REWRITE_STMT               0-0-0/w STRC(144)         1 RVA_LTS
     0-0-0/w STRC(396)   r     1 SCALAR                     0-0-0/w STRC(144)         1 SCOPE
     0-0-0/w STRC(396)         1 SD                         0-0-0/w STRC(216)         1 SEARCH_
     0-0-0/w STRC(396)         1 SECTION                    0-0-0/w STRC(396)         1 SEGMENT
     0-0-0/w STRC(360)         1 SEGMENT_LTS                0-0-0/w STRC(396)   r     1 ST
     0-0-0/w STRC(288)         1 START_STMT                 0-0-0/w STRC(72)          1 STP2
     0-0-0/w STRC(252)         1 STRING_STMT                0-0-0/w STRC(288)         1 SUBTRACT_STMT
     0-0-0/w STRC(252)         1 SUM_LTS                    0-0-0/w STRC(396)         1 SWITCH
     0-0-0/w STRC(396)         1 SYMBOLIC_CHAR              0-0-0/w STRC(396)         1 SYMDEF_
     0-0-0/w STRC(396)         1 SYMREF_                    0-0-0/w STRC(396)         1 TEMP
     0-0-0/w STRC(144)         1 TRINARY_ILL                0-0-0/w STRC(72)          1 UNARY_ILL
     0-0-0/w STRC(288)         1 UNARY_OP                   0-0-0/w STRC(288)         1 UNSTRING_STMT
     0-0-0/d STRC(612)         1 USE                        0-0-0/w STRC(216)         1 USER_CALL
     0-0-0/w STRC(252)         1 USE_SUPP                   0-0-0/w STRC(108)         1 VAL
     0-0-0/w STRC(108)         1 VAL_END                    0-0-0/w STRC(396)   r     1 VARIABLE
     0-0-0/w STRC(72)          1 WHEN                       0-0-0/w STRC(288)         1 WRITE_STMT

PL6.E3A0      #004=Z8DQ$GROUP_VALUE File=Z8DQ.:Z8A6TSI                           SAT 08/09/97 11:22 Page:125

   Procedure Z8DQ$GROUP_VALUE requires 103 words for executable code.
   Procedure Z8DQ$GROUP_VALUE requires 18 words of local(AUTO) storage.

