PL6.E3A0      #001=Z8DR$RECORD_DECL File=Z8DR.:Z8A6TSI                           SAT 08/09/97 11:18 Page:557
     3024    25465    7          DO WHILE (CURRENT_QLT$ ~= ADDR(NIL));

  25465 31 016317   016327 710000 31                 TRA     s:25470

     3025    25466    7            IF CURRENT_QLT$ = FATHER$ THEN

  25466 31 016320   000370 470400 0                  LDP0    @FATHER$
        31 016321   000372 236000 0                  LDQ     CURRENT_QLT$
        31 016322   000000 116100                    CMPQ    0,,PR0
        31 016323   016331 600000 31                 TZE     s:25472

     3026    25467    7              EXIT;
     3027    25468    7            ELSE
     3028    25469    7              CURRENT_QLT$ = CURRENT_QLT$ -> QLT.FATHER;

  25469 31 016324   000372 471400 0                  LDP1    CURRENT_QLT$
        31 016325   100001 236100                    LDQ     1,,PR1
        31 016326   000372 756000 0                  STQ     CURRENT_QLT$

     3029    25470    7          END;

  25470 31 016327   000000 116000 32                 CMPQ    0
        31 016330   016320 601000 31                 TNZ     s:25466

     3030    25471
     3031    25472    6          IF CURRENT_QLT$ ~= ADDR(NIL) THEN

  25472 31 016331   000000 116000 32                 CMPQ    0
        31 016332   016375 600000 31                 TZE     s:25494

     3032    25473    6            IF QUALIFIED THEN

  25473 31 016333   000376 234000 0                  SZN     QUALIFIED
        31 016334   016370 605000 31                 TPL     s:25488

     3033    25474    7              DO;

PL6.E3A0      #001=Z8DR$RECORD_DECL File=Z8DR.:Z8A6TSI                           SAT 08/09/97 11:18 Page:558
     3034    25475    7                ST$ = CURRENT_ST$;

  25475 31 016335   000375 236000 0                  LDQ     CURRENT_ST$
        31 016336   000371 470400 0                  LDP0    @ST$
        31 016337   000000 756100                    STQ     0,,PR0

     3035    25476    7                IF QUAL_ID$ -> LX_LIST.HEAD$ -> LX_ITEM.DNT$ -> DNT.ST$

  25476 31 016340   000367 471400 0                  LDP1    @QUAL_ID$
        31 016341   100000 473500                    LDP3    0,,PR1
        31 016342   300004 474500                    LDP4    4,,PR3
        31 016343   400002 475500                    LDP5    2,,PR4
        31 016344   500001 476500                    LDP6    1,,PR5
        31 016345   600003 236100                    LDQ     3,,PR6
        31 016346   100000 316003                    CANQ    32768,DU
        31 016347   016352 600000 31                 TZE     s:25480

     3036    25477    7                     -> SCALAR.B.COMPILER_CREATED  THEN
     3037    25478    7                   ALTRETURN;

  25478 31 016350   000366 221200 0                  LDX1  ! ST$$+2
        31 016351   000000 702211                    TSX2  ! 0,X1

     3038    25479
     3039    25480    7                CALL Z8AE$ERROR (%E$AMBIGUOUS_REFERENCE,

  25480 31 016352   400002 637500                    EPPR7   2,,PR4
        31 016353   000575 457400 0                  STP7    P$+4
        31 016354   400006 633500                    EPPR3   6,,PR4
        31 016355   000574 453400 0                  STP3    P$+3
        31 016356   400005 635500                    EPPR5   5,,PR4
        31 016357   000573 455400 0                  STP5    P$+2
        31 016360   000431 236000 32                 LDQ     281
        31 016361   000572 756000 0                  STQ     P$+1
        31 016362   000572 630400 0                  EPPR0   P$+1
        31 016363   000076 631400 32                 EPPR1   62
        31 016364   000000 701000 xent               TSX1    Z8AE$ERROR
PL6.E3A0      #001=Z8DR$RECORD_DECL File=Z8DR.:Z8A6TSI                           SAT 08/09/97 11:18 Page:559
        31 016365   000000 011000                    NOP     0

     3040    25481    7                     QUAL_ID$ -> LX_LIST.HEAD$ -> LX_ITEM.LINE,
     3041    25482    7                     QUAL_ID$ -> LX_LIST.HEAD$ -> LX_ITEM.COLUMN,
     3042    25483    7                     QUAL_ID$ -> LX_LIST.HEAD$ -> LX_ITEM.DNT$);
     3043    25484    7                ALTRETURN;

  25484 31 016366   000366 221200 0                  LDX1  ! ST$$+2
        31 016367   000000 702211                    TSX2  ! 0,X1

     3044    25485    7              END;
     3045    25486    6            ELSE
     3046    25487    7              DO;

     3047    25488    7                QUALIFIED = TRUE;

  25488 31 016370   400000 236003                    LDQ     -131072,DU
        31 016371   000376 756000 0                  STQ     QUALIFIED

     3048    25489    7                ST$       = CURRENT_ST$;

  25489 31 016372   000375 236000 0                  LDQ     CURRENT_ST$
        31 016373   000371 470400 0                  LDP0    @ST$
        31 016374   000000 756100                    STQ     0,,PR0

     3049    25490    7              END;

     3050    25491
     3051    25492    6        END;

     3052    25493
     3053    25494    5        LIST$ = QUAL_ID$ -> LX_LIST.HEAD$;

  25494 31 016375   000367 470400 0                  LDP0    @QUAL_ID$
        31 016376   000000 471500                    LDP1    0,,PR0
        31 016377   100004 236100                    LDQ     4,,PR1
        31 016400   000373 756000 0                  STQ     LIST$
PL6.E3A0      #001=Z8DR$RECORD_DECL File=Z8DR.:Z8A6TSI                           SAT 08/09/97 11:18 Page:560

     3054    25495    6        DO UNTIL CURRENT_ST$ = ADDR(NIL) OR

     3055    25496    6            CURRENT_ST$ -> ST.ID = %SCALAR OR
     3056    25497    6            CURRENT_ST$ -> ST.ID = %ARRAY;
     3057    25498    6          CURRENT_ST$ = CURRENT_ST$ -> SCALAR.NEXT;

  25498 31 016401   000375 470400 0                  LDP0    CURRENT_ST$
        31 016402   000004 236100                    LDQ     4,,PR0
        31 016403   000375 756000 0                  STQ     CURRENT_ST$

     3058    25499    6        END;

  25499 31 016404   000000 116000 32                 CMPQ    0
        31 016405   016414 600000 31                 TZE     s:25500
        31 016406   000375 470400 0                  LDP0    CURRENT_ST$
        31 016407   000000 220100                    LDX0    0,,PR0
        31 016410   000766 100003                    CMPX0   502,DU
        31 016411   016414 600000 31                 TZE     s:25500
        31 016412   000765 100003                    CMPX0   501,DU
        31 016413   016401 601000 31                 TNZ     s:25498

     3059    25500    5    END; /* Until -- current_st$ = addr(nil) */

  25500 31 016414   000000 116000 32                 CMPQ    0
        31 016415   016422 600000 31                 TZE     s:25502
        31 016416   000375 470400 0                  LDP0    CURRENT_ST$
        31 016417   000011 236100                    LDQ     9,,PR0
        31 016420   000057 116000 xsym               CMPQ    O1COM+47
        31 016421   016257 600000 31                 TZE     s:25448

     3060    25501
     3061    25502    4    IF NOT QUALIFIED THEN

  25502 31 016422   000376 234000 0                  SZN     QUALIFIED
        31 016423   016457 604000 31                 TMI     s:25517

PL6.E3A0      #001=Z8DR$RECORD_DECL File=Z8DR.:Z8A6TSI                           SAT 08/09/97 11:18 Page:561
     3062    25503    5      DO;

     3063    25504    5        ST$ = ADDR(NIL);

  25504 31 016424   000000 236000 32                 LDQ     0
        31 016425   000371 470400 0                  LDP0    @ST$
        31 016426   000000 756100                    STQ     0,,PR0

     3064    25505    5        IF QUAL_ID$ -> LX_LIST.HEAD$ -> LX_ITEM.DNT$ -> DNT.ST$

  25505 31 016427   000367 471400 0                  LDP1    @QUAL_ID$
        31 016430   100000 473500                    LDP3    0,,PR1
        31 016431   300004 474500                    LDP4    4,,PR3
        31 016432   400002 475500                    LDP5    2,,PR4
        31 016433   500001 476500                    LDP6    1,,PR5
        31 016434   600003 236100                    LDQ     3,,PR6
        31 016435   100000 316003                    CANQ    32768,DU
        31 016436   016441 600000 31                 TZE     s:25509

     3065    25506    5             -> SCALAR.B.COMPILER_CREATED  THEN
     3066    25507    5           ALTRETURN;

  25507 31 016437   000366 221200 0                  LDX1  ! ST$$+2
        31 016440   000000 702211                    TSX2  ! 0,X1

     3067    25508
     3068    25509    5        CALL Z8AE$ERROR (%E$DATA_NAME_QUAL_ERROR,

  25509 31 016441   400002 637500                    EPPR7   2,,PR4
        31 016442   000575 457400 0                  STP7    P$+4
        31 016443   400006 633500                    EPPR3   6,,PR4
        31 016444   000574 453400 0                  STP3    P$+3
        31 016445   400005 635500                    EPPR5   5,,PR4
        31 016446   000573 455400 0                  STP5    P$+2
        31 016447   000244 236000 32                 LDQ     164
        31 016450   000572 756000 0                  STQ     P$+1
        31 016451   000572 630400 0                  EPPR0   P$+1
PL6.E3A0      #001=Z8DR$RECORD_DECL File=Z8DR.:Z8A6TSI                           SAT 08/09/97 11:18 Page:562
        31 016452   000076 631400 32                 EPPR1   62
        31 016453   000000 701000 xent               TSX1    Z8AE$ERROR
        31 016454   000000 011000                    NOP     0

     3069    25510    5             QUAL_ID$ -> LX_LIST.HEAD$ -> LX_ITEM.LINE,
     3070    25511    5             QUAL_ID$ -> LX_LIST.HEAD$ -> LX_ITEM.COLUMN,
     3071    25512    5             QUAL_ID$ -> LX_LIST.HEAD$ -> LX_ITEM.DNT$);
     3072    25513    5        ALTRETURN;

  25513 31 016455   000366 221200 0                  LDX1  ! ST$$+2
        31 016456   000000 702211                    TSX2  ! 0,X1

     3073    25514    5      END;
     3074    25515
     3075    25516
     3076    25517    4   END QUALIFY_VARIABLE; /* Proc -- Qualify_variable */

  25517 31 016457   000366 221200 0                  LDX1  ! ST$$+2
        31 016460   000001 702211                    TSX2  ! 1,X1

     3077    25518        %EJECT;
PL6.E3A0      #001=Z8DR$RECORD_DECL File=Z8DR.:Z8A6TSI                           SAT 08/09/97 11:18 Page:563
     3078    25519        /*============*/
     3079    25520    3     VALIDATE_KEY: PROC;

  25520 31 016461   000377 741200 0     VALIDATE_KEY STX1  ! QUALIFIED+1

     3080    25521        /*============*/
     3081    25522
     3082    25523
     3083    25524    4   DCL KEY$                      PTR;
     3084    25525
     3085    25526
     3086    25527    4        IF CDECL$ -> LX_REC_DECL.P.KEY$ ~= ADDR(NIL)

  25527 31 016462   000160 470400 0                  LDP0    CDECL$
        31 016463   000020 236100                    LDQ     16,,PR0
        31 016464   000000 116000 32                 CMPQ    0
        31 016465   016526 600000 31                 TZE     s:25573
        31 016466   000007 236100                    LDQ     7,,PR0
        31 016467   000000 116000 32                 CMPQ    0
        31 016470   016526 601000 31                 TNZ     s:25573

     3087    25528    4        AND CDECL$ -> LX_REC_DECL.P.OCCURS$ = ADDR(NIL) THEN
     3088    25529    5          DO;

     3089    25530    5            KEY$ = CDECL$ -> LX_REC_DECL.P.KEY$ -> LX_LIST.HEAD$ ->

  25530 31 016471   000020 471500                    LDP1    16,,PR0
        31 016472   100004 473500                    LDP3    4,,PR1
        31 016473   300004 236100                    LDQ     4,,PR3
        31 016474   000400 756000 0                  STQ     KEY$

     3090    25531    5                   LX_LIST.HEAD$;
     3091    25532
     3092    25533                 %CONDITIONAL_ERROR (@LX_ITEM$ = KEY$,
     3093    25534                                     @ERROR#   = %E$KEY_MUST_HAVE_OCCURS,
     3094    25535                                     @LINE     = KEY$ -> LX_ITEM.LINE,
     3095    25536                                     @COLUMN   = KEY$ -> LX_ITEM.COLUMN);
PL6.E3A0      #001=Z8DR$RECORD_DECL File=Z8DR.:Z8A6TSI                           SAT 08/09/97 11:18 Page:564

  25546 31 016475   000400 474400 0                  LDP4    KEY$
        31 016476   400000 236100                    LDQ     0,,PR4
        31 016477   400000 316007                    CANQ    -131072,DL
        31 016500   016517 601000 31                 TNZ     s:25568

  25548 31 016501   000400 236000 0                  LDQ     KEY$
        31 016502   000006 036003                    ADLQ    6,DU
        31 016503   000574 756000 0                  STQ     P$+3
        31 016504   000400 236000 0                  LDQ     KEY$
        31 016505   000005 036003                    ADLQ    5,DU
        31 016506   000433 235000 32                 LDA     283
        31 016507   000572 757000 0                  STAQ    P$+1
        31 016510   000572 630400 0                  EPPR0   P$+1
        31 016511   000001 631400 32                 EPPR1   1
        31 016512   000000 701000 xent               TSX1    Z8AE$ERROR
        31 016513   000000 011000                    NOP     0

  25557 31 016514   000400 470400 0                  LDP0    KEY$
        31 016515   400000 236007                    LDQ     -131072,DL
        31 016516   000000 256100                    ORSQ    0,,PR0

     3096    25566                 %DELETE_CLAUSE (@CLAUSE$ = KEY$);

  25568 31 016517   000160 236000 0                  LDQ     CDECL$
        31 016520   000020 036003                    ADLQ    16,DU
        31 016521   000572 756000 0                  STQ     P$+1
        31 016522   000572 630400 0                  EPPR0   P$+1
        31 016523   000005 631400 32                 EPPR1   5
        31 016524   000000 701000 xent               TSX1    Z8ED$DISPOSE_ABSSYN_TREE
        31 016525   000000 011000                    NOP     0

     3097    25571    5          END;

     3098    25572
     3099    25573    4   END VALIDATE_KEY;

PL6.E3A0      #001=Z8DR$RECORD_DECL File=Z8DR.:Z8A6TSI                           SAT 08/09/97 11:18 Page:565
  25573 31 016526   000377 221200 0                  LDX1  ! QUALIFIED+1
        31 016527   000001 702211                    TSX2  ! 1,X1

     3100    25574        %EJECT;
PL6.E3A0      #001=Z8DR$RECORD_DECL File=Z8DR.:Z8A6TSI                           SAT 08/09/97 11:18 Page:566
     3101    25575        /*==============*/
     3102    25576    3     VALIDATE_INDEX: PROC;

  25576 31 016530   000401 741200 0     VALIDATE_IN* STX1  ! KEY$+1

     3103    25577        /*==============*/
     3104    25578
     3105    25579    4   DCL INDEX$                    PTR;
     3106    25580    4   DCL COLUMN#                   SBIN WORD;
     3107    25581    4   DCL LINE#                     SBIN WORD;
     3108    25582
     3109    25583
     3110    25584
     3111    25585    4      INDEX$  = CDECL$ -> LX_REC_DECL.P.INDEXED$ -> LX_LIST.HEAD$;

  25585 31 016531   000160 470400 0                  LDP0    CDECL$
        31 016532   000017 471500                    LDP1    15,,PR0
        31 016533   100004 236100                    LDQ     4,,PR1
        31 016534   000402 756000 0                  STQ     INDEX$

     3112    25586
     3113    25587    4      LINE#   = INDEX$ -> LX_TERMINAL.LINE;

  25587 31 016535   000402 473400 0                  LDP3    INDEX$
        31 016536   300005 235100                    LDA     5,,PR3
        31 016537   000404 755000 0                  STA     LINE#

     3114    25588    4      COLUMN# = INDEX$ -> LX_TERMINAL.COLUMN;

  25588 31 016540   300006 235100                    LDA     6,,PR3
        31 016541   000403 755000 0                  STA     COLUMN#

     3115    25589
     3116    25590    4      IF CDECL$ -> LX_REC_DECL.P.OCCURS$ = ADDR(NIL) THEN

  25590 31 016542   000007 236100                    LDQ     7,,PR0
        31 016543   000000 116000 32                 CMPQ    0
PL6.E3A0      #001=Z8DR$RECORD_DECL File=Z8DR.:Z8A6TSI                           SAT 08/09/97 11:18 Page:567
        31 016544   016570 601000 31                 TNZ     s:25633

     3117    25591    5        DO;

     3118    25592               %CONDITIONAL_ERROR (@LX_ITEM$ = INDEX$,
     3119    25593                                   @ERROR#   = %E$INDEX_MUST_HAVE_OCCURS,
     3120    25594                                   @LINE     = LINE#,
     3121    25595                                   @COLUMN   = COLUMN#);

  25605 31 016545   300000 236100                    LDQ     0,,PR3
        31 016546   400000 316007                    CANQ    -131072,DL
        31 016547   016557 601000 31                 TNZ     s:25627

  25607 31 016550   000435 630400 32                 EPPR0   285
        31 016551   000001 631400 32                 EPPR1   1
        31 016552   000000 701000 xent               TSX1    Z8AE$ERROR
        31 016553   000000 011000                    NOP     0

  25616 31 016554   000402 470400 0                  LDP0    INDEX$
        31 016555   400000 236007                    LDQ     -131072,DL
        31 016556   000000 256100                    ORSQ    0,,PR0

     3122    25625               %DELETE_CLAUSE (@CLAUSE$ = INDEXED$);

  25627 31 016557   000160 236000 0                  LDQ     CDECL$
        31 016560   000017 036003                    ADLQ    15,DU
        31 016561   000572 756000 0                  STQ     P$+1
        31 016562   000572 630400 0                  EPPR0   P$+1
        31 016563   000005 631400 32                 EPPR1   5
        31 016564   000000 701000 xent               TSX1    Z8ED$DISPOSE_ABSSYN_TREE
        31 016565   000000 011000                    NOP     0

     3123    25630    5          RETURN;

  25630 31 016566   000401 221200 0                  LDX1  ! KEY$+1
        31 016567   000001 702211                    TSX2  ! 1,X1

PL6.E3A0      #001=Z8DR$RECORD_DECL File=Z8DR.:Z8A6TSI                           SAT 08/09/97 11:18 Page:568
     3124    25631    5        END;
     3125    25632
     3126    25633    4   END VALIDATE_INDEX;

  25633 31 016570   000001 702211                    TSX2  ! 1,X1

     3127    25634        %EJECT;
PL6.E3A0      #001=Z8DR$RECORD_DECL File=Z8DR.:Z8A6TSI                           SAT 08/09/97 11:18 Page:569
     3128    25635
     3129    25636
     3130    25637        /* Main Body */
     3131    25638
     3132    25639
     3133    25640
     3134    25641    3        CALL VALIDATE_LEVEL;

  25641 31 016571   010066 701000 31                 TSX1    VALIDATE_LEVEL
        31 016572   000000 011000                    NOP     0

     3135    25642    3        CALL VALIDATE_USAGE;

  25642 31 016573   007017 701000 31                 TSX1    VALIDATE_USAGE
        31 016574   000000 011000                    NOP     0

     3136    25643
     3137    25644    3        IF CDECL$ -> LX_REC_DECL.P.PIC_CLAUSE$ ~= ADDR(NIL) THEN

  25644 31 016575   000160 470400 0                  LDP0    CDECL$
        31 016576   000004 236100                    LDQ     4,,PR0
        31 016577   000000 116000 32                 CMPQ    0
        31 016600   016603 600000 31                 TZE     s:25647

     3138    25645    3          CALL VALIDATE_PIC;

  25645 31 016601   010511 701000 31                 TSX1    VALIDATE_PIC
        31 016602   000000 011000                    NOP     0

     3139    25646
     3140    25647    3        IF CDECL$ -> LX_REC_DECL.P.BLANK$ ~= ADDR(NIL) THEN

  25647 31 016603   000160 470400 0                  LDP0    CDECL$
        31 016604   000012 236100                    LDQ     10,,PR0
        31 016605   000000 116000 32                 CMPQ    0
        31 016606   016611 600000 31                 TZE     s:25650

PL6.E3A0      #001=Z8DR$RECORD_DECL File=Z8DR.:Z8A6TSI                           SAT 08/09/97 11:18 Page:570
     3141    25648    3          CALL VALIDATE_BLANK_ZERO;

  25648 31 016607   015773 701000 31                 TSX1    VALIDATE_BLANK_ZERO
        31 016610   000000 011000                    NOP     0

     3142    25649
     3143    25650    3        CALL VALIDATE_VALUE;

  25650 31 016611   012221 701000 31                 TSX1    VALIDATE_VALUE
        31 016612   000000 011000                    NOP     0

     3144    25651
     3145    25652    3        IF CDECL$ -> LX_REC_DECL.P.SIGN$ ~= ADDR(NIL) THEN

  25652 31 016613   000160 470400 0                  LDP0    CDECL$
        31 016614   000011 236100                    LDQ     9,,PR0
        31 016615   000000 116000 32                 CMPQ    0
        31 016616   016621 600000 31                 TZE     s:25655

     3146    25653    3          CALL VALIDATE_SIGN;

  25653 31 016617   013047 701000 31                 TSX1    VALIDATE_SIGN
        31 016620   000000 011000                    NOP     0

     3147    25654
     3148    25655    3        CALL VALIDATE_KEY;

  25655 31 016621   016461 701000 31                 TSX1    VALIDATE_KEY
        31 016622   000000 011000                    NOP     0

     3149    25656
     3150    25657    3        IF CDECL$ -> LX_REC_DECL.P.INDEXED$ ~= ADDR(NIL) THEN

  25657 31 016623   000160 470400 0                  LDP0    CDECL$
        31 016624   000017 236100                    LDQ     15,,PR0
        31 016625   000000 116000 32                 CMPQ    0
        31 016626   016631 600000 31                 TZE     s:25660
PL6.E3A0      #001=Z8DR$RECORD_DECL File=Z8DR.:Z8A6TSI                           SAT 08/09/97 11:18 Page:571

     3151    25658    3          CALL VALIDATE_INDEX;

  25658 31 016627   016530 701000 31                 TSX1    VALIDATE_INDEX
        31 016630   000000 011000                    NOP     0

     3152    25659
     3153    25660    3        IF CDECL$ -> LX_REC_DECL.P.OCCURS$ ~= ADDR(NIL) THEN

  25660 31 016631   000160 470400 0                  LDP0    CDECL$
        31 016632   000007 236100                    LDQ     7,,PR0
        31 016633   000000 116000 32                 CMPQ    0
        31 016634   016637 600000 31                 TZE     s:25663

     3154    25661    3          CALL VALIDATE_OCCURS;

  25661 31 016635   012521 701000 31                 TSX1    VALIDATE_OCCURS
        31 016636   000000 011000                    NOP     0

     3155    25662
     3156    25663    3        IF CDECL$ -> LX_REC_DECL.P.RENAMES$ ~= ADDR(NIL) THEN

  25663 31 016637   000160 470400 0                  LDP0    CDECL$
        31 016640   000006 236100                    LDQ     6,,PR0
        31 016641   000000 116000 32                 CMPQ    0
        31 016642   016645 600000 31                 TZE     s:25666

     3157    25664    3          CALL VALIDATE_RENAMES;

  25664 31 016643   014451 701000 31                 TSX1    VALIDATE_RENAMES
        31 016644   000000 011000                    NOP     0

     3158    25665
     3159    25666    3        IF CDECL$ -> LX_REC_DECL.P.REDEFINES$ ~= ADDR(NIL) THEN

  25666 31 016645   000160 470400 0                  LDP0    CDECL$
        31 016646   000005 236100                    LDQ     5,,PR0
PL6.E3A0      #001=Z8DR$RECORD_DECL File=Z8DR.:Z8A6TSI                           SAT 08/09/97 11:18 Page:572
        31 016647   000000 116000 32                 CMPQ    0
        31 016650   016653 600000 31                 TZE     s:25669

     3160    25667    3          CALL VALIDATE_REDEFINES;

  25667 31 016651   014546 701000 31                 TSX1    VALIDATE_REDEFINES
        31 016652   000000 011000                    NOP     0

     3161    25668
     3162    25669    3        IF CDECL$ -> LX_REC_DECL.P.JUSTIFIED$ ~= ADDR(NIL) THEN

  25669 31 016653   000160 470400 0                  LDP0    CDECL$
        31 016654   000016 236100                    LDQ     14,,PR0
        31 016655   000000 116000 32                 CMPQ    0
        31 016656   016661 600000 31                 TZE     s:25672

     3163    25670    3          CALL VALIDATE_JUSTIFIED;

  25670 31 016657   014731 701000 31                 TSX1    VALIDATE_JUSTIFIED
        31 016660   000000 011000                    NOP     0

     3164    25671
     3165    25672    3        IF CDECL$ -> LX_REC_DECL.P.SYNC$ ~= ADDR(NIL) THEN

  25672 31 016661   000160 470400 0                  LDP0    CDECL$
        31 016662   000014 236100                    LDQ     12,,PR0
        31 016663   000000 116000 32                 CMPQ    0
        31 016664   016667 600000 31                 TZE     s:25675

     3166    25673    3          CALL VALIDATE_SYNC;

  25673 31 016665   015217 701000 31                 TSX1    VALIDATE_SYNC
        31 016666   000000 011000                    NOP     0

     3167    25674
     3168    25675    3        IF CDECL$ -> LX_REC_DECL.P.EXTERNAL$ ~= ADDR(NIL) THEN

PL6.E3A0      #001=Z8DR$RECORD_DECL File=Z8DR.:Z8A6TSI                           SAT 08/09/97 11:18 Page:573
  25675 31 016667   000160 470400 0                  LDP0    CDECL$
        31 016670   000015 236100                    LDQ     13,,PR0
        31 016671   000000 116000 32                 CMPQ    0
        31 016672   016675 600000 31                 TZE     s:25678

     3169    25676    3          CALL VALIDATE_EXTERNAL;

  25676 31 016673   015435 701000 31                 TSX1    VALIDATE_EXTERNAL
        31 016674   000000 011000                    NOP     0

     3170    25677
     3171    25678    3        IF CDECL$ -> LX_REC_DECL.P.GLOBAL$ ~= ADDR(NIL) THEN

  25678 31 016675   000160 470400 0                  LDP0    CDECL$
        31 016676   000013 236100                    LDQ     11,,PR0
        31 016677   000000 116000 32                 CMPQ    0
        31 016700   016703 600000 31                 TZE     s:25682

     3172    25679    3          CALL VALIDATE_GLOBAL;

  25679 31 016701   015657 701000 31                 TSX1    VALIDATE_GLOBAL
        31 016702   000000 011000                    NOP     0

     3173    25680
     3174    25681
     3175    25682    3   END RECORD_VALIDATION;

  25682 31 016703   000201 221200 0                  LDX1  ! OCCURS_INT2$+1
        31 016704   000001 702211                    TSX2  ! 1,X1

     3176    25683        %EJECT;
PL6.E3A0      #001=Z8DR$RECORD_DECL File=Z8DR.:Z8A6TSI                           SAT 08/09/97 11:18 Page:574
     3177    25684        /*===============*/
     3178    25685    2     FIND_HIER_INDEX: PROC (TEMP_LEVEL#, K);

  25685 31 016705   000405 741200 0     FIND_HIER_I* STX1  ! LINE#+1

     3179    25686        /*===============*/
     3180    25687
     3181    25688    3   DCL LEVEL#                    SBIN WORD;
     3182    25689    3   DCL I                         SBIN WORD;
     3183    25690    3   DCL TEMP_LEVEL#               SBIN;
     3184    25691    3   DCL K                         SBIN;
     3185    25692
     3186    25693    3      LEVEL# = TEMP_LEVEL#;

  25693 31 016706   000406 470400 0                  LDP0    @TEMP_LEVEL#
        31 016707   000000 235100                    LDA     0,,PR0
        31 016710   000410 755000 0                  STA     LEVEL#

     3187    25694    3      I = 1;

  25694 31 016711   000001 236007                    LDQ     1,DL
        31 016712   000411 756000 0                  STQ     I

     3188    25695
     3189    25696    3      IF LEVEL# ~= %LEVEL_01 THEN

  25696 31 016713   000001 115007                    CMPA    1,DL
        31 016714   016725 600000 31                 TZE     s:25701

     3190    25697    4        DO UNTIL (HIER_STK.LEVEL#(I) >= LEVEL#);

     3191    25698    4          I = I + 1;

  25698 31 016715   000411 054000 0                  AOS     I

     3192    25699    4        END;

PL6.E3A0      #001=Z8DR$RECORD_DECL File=Z8DR.:Z8A6TSI                           SAT 08/09/97 11:18 Page:575
  25699 31 016716   000411 236000 0                  LDQ     I
        31 016717   000005 402007                    MPY     5,DL
        31 016720   000002 236006 xsym               LDQ     HIER_STK+2,QL
        31 016721   000022 736000                    QLS     18
        31 016722   000033 732000                    QRS     27
        31 016723   000410 116000 0                  CMPQ    LEVEL#
        31 016724   016715 604000 31                 TMI     s:25698

     3193    25700
     3194    25701    3      K = I;

  25701 31 016725   000407 470400 0                  LDP0    @K
        31 016726   000411 235000 0                  LDA     I
        31 016727   000000 755100                    STA     0,,PR0

     3195    25702
     3196    25703    3   END FIND_HIER_INDEX;

  25703 31 016730   000405 221200 0                  LDX1  ! LINE#+1
        31 016731   000001 702211                    TSX2  ! 1,X1

     3197    25704        %EJECT;
PL6.E3A0      #001=Z8DR$RECORD_DECL File=Z8DR.:Z8A6TSI                           SAT 08/09/97 11:18 Page:576
     3198    25705        /*****************************************************************
     3199    25706         *                                                               *
     3200    25707         *                     PROCESS_RECORD_DECL                  *
     3201    25708         *                                                               *
     3202    25709         *                     ************************                  *
     3203    25710         *                                                               *
     3204    25711         *****************************************************************/
     3205    25712        %EJECT;
PL6.E3A0      #001=Z8DR$RECORD_DECL File=Z8DR.:Z8A6TSI                           SAT 08/09/97 11:18 Page:577
     3206    25713        /*===================*/
     3207    25714    2     PROCESS_RECORD_DECL: PROC;

  25714 31 016732   000412 741200 0     PROCESS_REC* STX1  ! I+1
        31 016733   024712 710000 31                 TRA     s:29527

     3208    25715        /*===================*/
     3209    25716
     3210    25717    3   DCL NEW_ST$                   PTR;
     3211    25718    3   DCL DML_TYPE                  UBIN(3);
     3212    25719
     3213    25720        %EJECT;
PL6.E3A0      #001=Z8DR$RECORD_DECL File=Z8DR.:Z8A6TSI                           SAT 08/09/97 11:18 Page:578
     3214    25721
     3215    25722
     3216    25723        /* Internal Procedures */
     3217    25724
     3218    25725        /*===========*/
     3219    25726    3     UPDATE_HIER: PROC;

  25726 31 016734   000415 741200 0     UPDATE_HIER  STX1  ! DML_TYPE+1

     3220    25727        /*===========*/
     3221    25728
     3222    25729    4   DCL QLT$$                     PTR;
     3223    25730    4   DCL PREV_LEVEL                SBIN WORD;
     3224    25731
     3225    25732    4      QLT$$ = NEW_ST$ -> SCALAR.QLT$;

  25732 31 016735   000413 470400 0                  LDP0    NEW_ST$
        31 016736   000007 236100                    LDQ     7,,PR0
        31 016737   000416 756000 0                  STQ     QLT$$

     3226    25733    4      PREV_LEVEL = HIER_STK_PTR;

  25733 31 016740   000000 235000 xsym               LDA     HIER_STK_PTR
        31 016741   000417 755000 0                  STA     PREV_LEVEL

     3227    25734
     3228    25735    5      DO CASE (REDUCED_DATA.LEVEL.CURRENT);

  25735 31 016742   000034 235000 0                  LDA     REDUCED_DATA+1
        31 016743   000103 115007                    CMPA    67,DL
        31 016744   016746 602005 31                 TNC     s:25735+4,AL
        31 016745   017057 710000 31                 TRA     s:25743
        31 016746   017057 710000 31                 TRA     s:25743
        31 016747   017054 710000 31                 TRA     s:25740
        31 016750   017057 710000 31                 TRA     s:25743
        31 016751   017057 710000 31                 TRA     s:25743
        31 016752   017057 710000 31                 TRA     s:25743
PL6.E3A0      #001=Z8DR$RECORD_DECL File=Z8DR.:Z8A6TSI                           SAT 08/09/97 11:18 Page:579
        31 016753   017057 710000 31                 TRA     s:25743
        31 016754   017057 710000 31                 TRA     s:25743
        31 016755   017057 710000 31                 TRA     s:25743
        31 016756   017057 710000 31                 TRA     s:25743
        31 016757   017057 710000 31                 TRA     s:25743
        31 016760   017057 710000 31                 TRA     s:25743
        31 016761   017057 710000 31                 TRA     s:25743
        31 016762   017057 710000 31                 TRA     s:25743
        31 016763   017057 710000 31                 TRA     s:25743
        31 016764   017057 710000 31                 TRA     s:25743
        31 016765   017057 710000 31                 TRA     s:25743
        31 016766   017057 710000 31                 TRA     s:25743
        31 016767   017057 710000 31                 TRA     s:25743
        31 016770   017057 710000 31                 TRA     s:25743
        31 016771   017057 710000 31                 TRA     s:25743
        31 016772   017057 710000 31                 TRA     s:25743
        31 016773   017057 710000 31                 TRA     s:25743
        31 016774   017057 710000 31                 TRA     s:25743
        31 016775   017057 710000 31                 TRA     s:25743
        31 016776   017057 710000 31                 TRA     s:25743
        31 016777   017057 710000 31                 TRA     s:25743
        31 017000   017057 710000 31                 TRA     s:25743
        31 017001   017057 710000 31                 TRA     s:25743
        31 017002   017057 710000 31                 TRA     s:25743
        31 017003   017057 710000 31                 TRA     s:25743
        31 017004   017057 710000 31                 TRA     s:25743
        31 017005   017057 710000 31                 TRA     s:25743
        31 017006   017057 710000 31                 TRA     s:25743
        31 017007   017057 710000 31                 TRA     s:25743
        31 017010   017057 710000 31                 TRA     s:25743
        31 017011   017057 710000 31                 TRA     s:25743
        31 017012   017057 710000 31                 TRA     s:25743
        31 017013   017057 710000 31                 TRA     s:25743
        31 017014   017057 710000 31                 TRA     s:25743
        31 017015   017057 710000 31                 TRA     s:25743
        31 017016   017057 710000 31                 TRA     s:25743
        31 017017   017057 710000 31                 TRA     s:25743
PL6.E3A0      #001=Z8DR$RECORD_DECL File=Z8DR.:Z8A6TSI                           SAT 08/09/97 11:18 Page:580
        31 017020   017057 710000 31                 TRA     s:25743
        31 017021   017057 710000 31                 TRA     s:25743
        31 017022   017057 710000 31                 TRA     s:25743
        31 017023   017057 710000 31                 TRA     s:25743
        31 017024   017057 710000 31                 TRA     s:25743
        31 017025   017057 710000 31                 TRA     s:25743
        31 017026   017057 710000 31                 TRA     s:25743
        31 017027   017057 710000 31                 TRA     s:25743
        31 017030   017057 710000 31                 TRA     s:25743
        31 017031   017057 710000 31                 TRA     s:25743
        31 017032   017057 710000 31                 TRA     s:25743
        31 017033   017057 710000 31                 TRA     s:25743
        31 017034   017057 710000 31                 TRA     s:25743
        31 017035   017057 710000 31                 TRA     s:25743
        31 017036   017057 710000 31                 TRA     s:25743
        31 017037   017057 710000 31                 TRA     s:25743
        31 017040   017057 710000 31                 TRA     s:25743
        31 017041   017057 710000 31                 TRA     s:25743
        31 017042   017057 710000 31                 TRA     s:25743
        31 017043   017057 710000 31                 TRA     s:25743
        31 017044   017057 710000 31                 TRA     s:25743
        31 017045   017057 710000 31                 TRA     s:25743
        31 017046   017057 710000 31                 TRA     s:25743
        31 017047   017057 710000 31                 TRA     s:25743
        31 017050   017051 710000 31                 TRA     s:25737

     3229    25736    5        CASE(%LEVEL_66);

     3230    25737    5          HIER_STK_PTR = 02;

  25737 31 017051   000002 235007                    LDA     2,DL
        31 017052   000000 755000 xsym               STA     HIER_STK_PTR
        31 017053   017070 710000 31                 TRA     s:25750

     3231    25738
     3232    25739    5        CASE(%LEVEL_01);

PL6.E3A0      #001=Z8DR$RECORD_DECL File=Z8DR.:Z8A6TSI                           SAT 08/09/97 11:18 Page:581
     3233    25740    5          HIER_STK_PTR = %LEVEL_01;

  25740 31 017054   000001 235007                    LDA     1,DL
        31 017055   000000 755000 xsym               STA     HIER_STK_PTR
        31 017056   017070 710000 31                 TRA     s:25750

     3234    25741
     3235    25742    5        CASE(ELSE);

     3236    25743    5          IF REDUCED_DATA.LEVEL.CURRENT <= REDUCED_DATA.LEVEL.PREVIOUS THEN

  25743 31 017057   000034 236000 0                  LDQ     REDUCED_DATA+1
        31 017060   000035 116000 0                  CMPQ    REDUCED_DATA+2
        31 017061   017067 605400 31                 TPNZ    s:25746

     3237    25744    5            CALL FIND_HIER_INDEX (REDUCED_DATA.LEVEL.CURRENT, HIER_STK_PTR);

  25744 31 017062   000440 237000 32                 LDAQ    288
        31 017063   000406 757000 0                  STAQ    @TEMP_LEVEL#
        31 017064   016705 701000 31                 TSX1    FIND_HIER_INDEX
        31 017065   000000 011000                    NOP     0
        31 017066   017070 710000 31                 TRA     s:25750

     3238    25745    5          ELSE
     3239    25746    5            HIER_STK_PTR = HIER_STK_PTR + 1;

  25746 31 017067   000000 054000 xsym               AOS     HIER_STK_PTR

     3240    25747
     3241    25748    5      END; /* Case */

     3242    25749
     3243    25750    4      CALL CLEAR_HIER (HIER_STK_PTR, PREV_LEVEL);

  25750 31 017070   000442 236000 32                 LDQ     290
        31 017071   000422 756000 0                  STQ     @FROM_LEVEL+1
        31 017072   000441 236000 32                 LDQ     289
PL6.E3A0      #001=Z8DR$RECORD_DECL File=Z8DR.:Z8A6TSI                           SAT 08/09/97 11:18 Page:582
        31 017073   000421 756000 0                  STQ     PREV_LEVEL+2
        31 017074   017137 701000 31                 TSX1    CLEAR_HIER
        31 017075   000000 011000                    NOP     0

     3244    25751
     3245    25752    4      CALL LINK_HIER_WITH_QLT (HIER_STK_PTR);

  25752 31 017076   000441 236000 32                 LDQ     289
        31 017077   000427 756000 0                  STQ     I+2
        31 017100   017202 701000 31                 TSX1    LINK_HIER_WITH_QLT
        31 017101   000000 011000                    NOP     0

     3246    25753
     3247    25754    4      HIER_STK.DIMS$(HIER_STK_PTR)             = REDUCED_DATA.DIMS$;

  25754 31 017102   000000 236000 xsym               LDQ     HIER_STK_PTR
        31 017103   000005 402007                    MPY     5,DL
        31 017104   000000 620006                    EAX0    0,QL
        31 017105   000051 236000 0                  LDQ     REDUCED_DATA+14
        31 017106   000001 756010 xsym               STQ     HIER_STK+1,X0

     3248    25755    4      HIER_STK.B.SIGN_PRESENT(HIER_STK_PTR)    = REDUCED_DATA.B.SIGN_PRESENT;

  25755 31 017107   000060 236000 0                  LDQ     REDUCED_DATA+21
        31 017110   000015 772000                    QRL     13
        31 017111   000002 676010 xsym               ERQ     HIER_STK+2,X0
        31 017112   000200 376007                    ANQ     128,DL
        31 017113   000002 656010 xsym               ERSQ    HIER_STK+2,X0

     3249    25756    4      HIER_STK.B.SIGN_FOUND(HIER_STK_PTR)      = REDUCED_DATA.B.SIGN_FOUND;

  25756 31 017114   000060 236000 0                  LDQ     REDUCED_DATA+21
        31 017115   000031 772000                    QRL     25
        31 017116   000002 676010 xsym               ERQ     HIER_STK+2,X0
        31 017117   000400 376007                    ANQ     256,DL
        31 017120   000002 656010 xsym               ERSQ    HIER_STK+2,X0

PL6.E3A0      #001=Z8DR$RECORD_DECL File=Z8DR.:Z8A6TSI                           SAT 08/09/97 11:18 Page:583
     3250    25757    4      HIER_STK.SIGN.LOCATION(HIER_STK_PTR)     = REDUCED_DATA.SIGN.LOCATION;

  25757 31 017121   000037 721000 0                  LXL1    REDUCED_DATA+4
        31 017122   000003 741010 xsym               STX1    HIER_STK+3,X0

     3251    25758    4      HIER_STK.SIGN.TYPE(HIER_STK_PTR)         = REDUCED_DATA.SIGN.TYPE;

  25758 31 017123   000040 722000 0                  LXL2    REDUCED_DATA+5
        31 017124   000003 442010 xsym               SXL2    HIER_STK+3,X0

     3252    25759    4      HIER_STK.SIGN.LINE(HIER_STK_PTR)         = REDUCED_DATA.SIGN.LINE;

  25759 31 017125   000041 723000 0                  LXL3    REDUCED_DATA+6
        31 017126   000004 743010 xsym               STX3    HIER_STK+4,X0

     3253    25760    4      HIER_STK.SIGN.COLUMN(HIER_STK_PTR)       = REDUCED_DATA.SIGN.COLUMN;

  25760 31 017127   000042 724000 0                  LXL4    REDUCED_DATA+7
        31 017130   000004 444010 xsym               SXL4    HIER_STK+4,X0

     3254    25761    4      HIER_STK.B.CONDITION_OBJ(HIER_STK_PTR)   = FALSE;

  25761 31 017131   000443 236000 32                 LDQ     291
        31 017132   000002 356010 xsym               ANSQ    HIER_STK+2,X0

     3255    25762    4      HIER_STK.B.VALUE_PRESENTED(HIER_STK_PTR)   = FALSE;

  25762 31 017133   000444 236000 32                 LDQ     292
        31 017134   000002 356010 xsym               ANSQ    HIER_STK+2,X0

     3256    25763
     3257    25764    4   END UPDATE_HIER;

  25764 31 017135   000415 221200 0                  LDX1  ! DML_TYPE+1
        31 017136   000001 702211                    TSX2  ! 1,X1

     3258    25765        %EJECT;
PL6.E3A0      #001=Z8DR$RECORD_DECL File=Z8DR.:Z8A6TSI                           SAT 08/09/97 11:18 Page:584
     3259    25766        /*==========*/
     3260    25767    3     CLEAR_HIER: PROC (FROM_LEVEL, TO_LEVEL);

  25767 31 017137   000420 741200 0     CLEAR_HIER   STX1  ! PREV_LEVEL+1

     3261    25768        /*==========*/
     3262    25769
     3263    25770    4   DCL FROM_LEVEL               SBIN WORD;
     3264    25771    4   DCL TO_LEVEL                 SBIN WORD;
     3265    25772    4   DCL TO#                      SBIN;
     3266    25773    4   DCL FROM#                    SBIN;
     3267    25774
     3268    25775    4   DCL I                  SBIN WORD;
     3269    25776
     3270    25777
     3271    25778    4      FROM# = FROM_LEVEL;

  25778 31 017140   000421 470400 0                  LDP0    @FROM_LEVEL
        31 017141   000000 235100                    LDA     0,,PR0
        31 017142   000424 755000 0                  STA     FROM#

     3272    25779    4      TO#   = TO_LEVEL;

  25779 31 017143   000422 471400 0                  LDP1    @TO_LEVEL
        31 017144   100000 235100                    LDA     0,,PR1
        31 017145   000423 755000 0                  STA     TO#

     3273    25780
     3274    25781    5      DO I = FROM# + 1 TO TO#;

  25781 31 017146   000424 236000 0                  LDQ     FROM#
        31 017147   000001 036007                    ADLQ    1,DL
        31 017150   000425 756000 0                  STQ     I
        31 017151   017175 710000 31                 TRA     s:25795+1

     3275    25782             %UPDATE_HIER_STK (@STK_PTR = I); /* Defaults */

PL6.E3A0      #001=Z8DR$RECORD_DECL File=Z8DR.:Z8A6TSI                           SAT 08/09/97 11:18 Page:585
  25784 31 017152   000425 236000 0                  LDQ     I
        31 017153   000005 402007                    MPY     5,DL
        31 017154   000000 620006                    EAX0    0,QL
        31 017155   000000 236000 32                 LDQ     0
        31 017156   000000 756010 xsym               STQ     HIER_STK,X0

  25785 31 017157   000001 756010 xsym               STQ     HIER_STK+1,X0

  25786 31 017160   000002 236010 xsym               LDQ     HIER_STK+2,X0
        31 017161   000031 376000 32                 ANQ     25
        31 017162   062000 276007                    ORQ     25600,DL
        31 017163   000002 756010 xsym               STQ     HIER_STK+2,X0

  25787 31 017164   000000 221003                    LDX1    0,DU
        31 017165   000002 741010 xsym               STX1    HIER_STK+2,X0

  25788 31 017166   000004 741010 xsym               STX1    HIER_STK+4,X0

  25789 31 017167   000004 441010 xsym               SXL1    HIER_STK+4,X0

  25790 31 017170   000003 741010 xsym               STX1    HIER_STK+3,X0

  25791 31 017171   000003 441010 xsym               SXL1    HIER_STK+3,X0

  25792 31 017172   000032 236000 32                 LDQ     26
        31 017173   000002 356010 xsym               ANSQ    HIER_STK+2,X0

     3276    25795    5      END;

  25795 31 017174   000425 054000 0                  AOS     I
        31 017175   000425 236000 0                  LDQ     I
        31 017176   000423 116000 0                  CMPQ    TO#
        31 017177   017152 604400 31                 TMOZ    s:25784

     3277    25796
     3278    25797    4   END CLEAR_HIER;

PL6.E3A0      #001=Z8DR$RECORD_DECL File=Z8DR.:Z8A6TSI                           SAT 08/09/97 11:18 Page:586
  25797 31 017200   000420 221200 0                  LDX1  ! PREV_LEVEL+1
        31 017201   000001 702211                    TSX2  ! 1,X1

     3279    25798        %EJECT;
PL6.E3A0      #001=Z8DR$RECORD_DECL File=Z8DR.:Z8A6TSI                           SAT 08/09/97 11:18 Page:587
     3280    25799        /*==================*/
     3281    25800    3     LINK_HIER_WITH_QLT: PROC (INDEX#);

  25800 31 017202   000426 741200 0     LINK_HIER_W* STX1  ! I+1

     3282    25801        /*==================*/
     3283    25802
     3284    25803    4   DCL STK_INDEX                 SBIN WORD;
     3285    25804    4   DCL INDEX#                    SBIN;
     3286    25805
     3287    25806    4   DCL I                         SBIN WORD;
     3288    25807    4   DCL BRO$                      PTR;
     3289    25808    4   DCL TEMP_QLT$                 PTR;
     3290    25809
     3291    25810    4      TEMP_QLT$ = NEW_ST$ -> SCALAR.QLT$;

  25810 31 017203   000413 470400 0                  LDP0    NEW_ST$
        31 017204   000007 236100                    LDQ     7,,PR0
        31 017205   000433 756000 0                  STQ     TEMP_QLT$

     3292    25811    4      STK_INDEX = INDEX#;

  25811 31 017206   000427 471400 0                  LDP1    @INDEX#
        31 017207   100000 235100                    LDA     0,,PR1
        31 017210   000430 755000 0                  STA     STK_INDEX

     3293    25812
     3294    25813    4      IF STK_INDEX = %LEVEL_01 THEN

  25813 31 017211   000001 115007                    CMPA    1,DL
        31 017212   017224 601000 31                 TNZ     s:25817

     3295    25814    4        CALL LINK_WITH_LAST_BROTHER (TEMP_QLT$, HIER_STK.QLT$(STK_INDEX));

  25814 31 017213   000430 236000 0                  LDQ     STK_INDEX
        31 017214   000005 402003                    MPY     5,DU
        31 017215   000102 036000 32                 ADLQ    66
PL6.E3A0      #001=Z8DR$RECORD_DECL File=Z8DR.:Z8A6TSI                           SAT 08/09/97 11:18 Page:588
        31 017216   000136 756000 0                  STQ     @BRO_QLT$
        31 017217   000445 236000 32                 LDQ     293
        31 017220   000135 756000 0                  STQ     @QLT$$
        31 017221   001077 701000 31                 TSX1    LINK_WITH_LAST_BROTHER
        31 017222   000000 011000                    NOP     0
        31 017223   017251 710000 31                 TRA     s:25828

     3296    25815    4      ELSE
     3297    25816    5        DO;

     3298    25817    5          I = STK_INDEX - 1;

  25817 31 017224   000001 135007                    SBLA    1,DL
        31 017225   000431 755000 0                  STA     I

     3299    25818
     3300    25819    5          IF HIER_STK.QLT$(I) ~= ADDR(NIL) THEN

  25819 31 017226   000431 236000 0                  LDQ     I
        31 017227   000005 402007                    MPY     5,DL
        31 017230   000000 236006 xsym               LDQ     HIER_STK,QL
        31 017231   000000 116000 32                 CMPQ    0
        31 017232   017251 600000 31                 TZE     s:25828

     3301    25820    6            DO;

     3302    25821    6              CALL LINK_WITH_LAST_BROTHER (TEMP_QLT$,

  25821 31 017233   000431 236000 0                  LDQ     I
        31 017234   000005 402007                    MPY     5,DL
        31 017235   000000 473406 xsym               LDP3    HIER_STK,QL
        31 017236   300003 634500                    EPPR4   3,,PR3
        31 017237   000136 454400 0                  STP4    @BRO_QLT$
        31 017240   000445 236000 32                 LDQ     293
        31 017241   000135 756000 0                  STQ     @QLT$$
        31 017242   001077 701000 31                 TSX1    LINK_WITH_LAST_BROTHER
        31 017243   000000 011000                    NOP     0
PL6.E3A0      #001=Z8DR$RECORD_DECL File=Z8DR.:Z8A6TSI                           SAT 08/09/97 11:18 Page:589

     3303    25822    6                                           HIER_STK.QLT$(I) -> QLT.SON);
     3304    25823
     3305    25824    6              TEMP_QLT$ -> QLT.FATHER = HIER_STK.QLT$(I);

  25824 31 017244   000431 236000 0                  LDQ     I
        31 017245   000005 402007                    MPY     5,DL
        31 017246   000000 236006 xsym               LDQ     HIER_STK,QL
        31 017247   000433 470400 0                  LDP0    TEMP_QLT$
        31 017250   000001 756100                    STQ     1,,PR0

     3306    25825    6            END;

     3307    25826    5        END;

     3308    25827
     3309    25828    4      HIER_STK.QLT$(STK_INDEX)   = TEMP_QLT$;

  25828 31 017251   000430 236000 0                  LDQ     STK_INDEX
        31 017252   000005 402007                    MPY     5,DL
        31 017253   000000 620006                    EAX0    0,QL
        31 017254   000433 236000 0                  LDQ     TEMP_QLT$
        31 017255   000000 756010 xsym               STQ     HIER_STK,X0

     3310    25829    4      HIER_STK.LEVEL#(STK_INDEX) = REDUCED_DATA.LEVEL.CURRENT;

  25829 31 017256   000034 236000 0                  LDQ     REDUCED_DATA+1
        31 017257   000011 736000                    QLS     9
        31 017260   000002 676010 xsym               ERQ     HIER_STK+2,X0
        31 017261   777000 376007                    ANQ     -512,DL
        31 017262   000002 656010 xsym               ERSQ    HIER_STK+2,X0

     3311    25830
     3312    25831
     3313    25832    4   END LINK_HIER_WITH_QLT;

  25832 31 017263   000426 221200 0                  LDX1  ! I+1
PL6.E3A0      #001=Z8DR$RECORD_DECL File=Z8DR.:Z8A6TSI                           SAT 08/09/97 11:18 Page:590
        31 017264   000001 702211                    TSX2  ! 1,X1

     3314    25833        %EJECT;
PL6.E3A0      #001=Z8DR$RECORD_DECL File=Z8DR.:Z8A6TSI                           SAT 08/09/97 11:18 Page:591
     3315    25834        /*===================*/
     3316    25835    3     PROPAGATE_SIGN_INFO: PROC;

  25835 31 017265   000434 741200 0     PROPAGATE_S* STX1  ! TEMP_QLT$+1

     3317    25836        /*===================*/
     3318    25837
     3319    25838    4   DCL I                         SBIN WORD;
     3320    25839
     3321    25840    4      IF REDUCED_DATA.B.SIGN_PRESENT

  25840 31 017266   000060 236000 0                  LDQ     REDUCED_DATA+21
        31 017267   000004 316003                    CANQ    4,DU
        31 017270   017274 601000 31                 TNZ     s:25842
        31 017271   000034 235000 0                  LDA     REDUCED_DATA+1
        31 017272   000001 115007                    CMPA    1,DL
        31 017273   017275 601000 31                 TNZ     s:25845

     3322    25841    4      OR REDUCED_DATA.LEVEL.CURRENT = %LEVEL_01 THEN
     3323    25842    4        RETURN;

  25842 31 017274   000001 702211                    TSX2  ! 1,X1

     3324    25843    4      ELSE
     3325    25844    5        DO;

     3326    25845    5          IF REDUCED_DATA.LEVEL.CURRENT <= REDUCED_DATA.LEVEL.PREVIOUS THEN

  25845 31 017275   000034 236000 0                  LDQ     REDUCED_DATA+1
        31 017276   000035 116000 0                  CMPQ    REDUCED_DATA+2
        31 017277   017305 605400 31                 TPNZ    s:25848

     3327    25846    5              CALL FIND_HIER_INDEX (REDUCED_DATA.LEVEL.CURRENT, I);

  25846 31 017300   000446 237000 32                 LDAQ    294
        31 017301   000406 757000 0                  STAQ    @TEMP_LEVEL#
        31 017302   016705 701000 31                 TSX1    FIND_HIER_INDEX
PL6.E3A0      #001=Z8DR$RECORD_DECL File=Z8DR.:Z8A6TSI                           SAT 08/09/97 11:18 Page:592
        31 017303   000000 011000                    NOP     0
        31 017304   017310 710000 31                 TRA     s:25850

     3328    25847    5          ELSE
     3329    25848    5            I = HIER_STK_PTR + 1;

  25848 31 017305   000000 235000 xsym               LDA     HIER_STK_PTR
        31 017306   000001 035007                    ADLA    1,DL
        31 017307   000435 755000 0                  STA     I

     3330    25849
     3331    25850    5          IF REDUCED_DATA.USAGE.TYPE ~= %RSV_WRD_COMP_4 OR

  25850 31 017310   000033 235000 0                  LDA     REDUCED_DATA
        31 017311   000145 115007                    CMPA    101,DL
        31 017312   017317 601000 31                 TNZ     s:25852
        31 017313   000435 236000 0                  LDQ     I
        31 017314   000005 402007                    MPY     5,DL
        31 017315   777775 220006 xsym               LDX0    HIER_STK-3,QL
        31 017316   017332 600000 31                 TZE     s:25857

     3332    25851    6             HIER_STK.USAGE_TYPE (I - 1) ~= %NO_USAGE THEN DO;

     3333    25852    6            REDUCED_DATA.SIGN.LOCATION = HIER_STK.SIGN.LOCATION (I - 1);

  25852 31 017317   000435 236000 0                  LDQ     I
        31 017320   000005 402007                    MPY     5,DL
        31 017321   777776 236006 xsym               LDQ     HIER_STK-2,QL
        31 017322   000022 732000                    QRS     18
        31 017323   000037 756000 0                  STQ     REDUCED_DATA+4

     3334    25853    6            REDUCED_DATA.SIGN.TYPE     = HIER_STK.SIGN.TYPE     (I - 1);

  25853 31 017324   000435 236000 0                  LDQ     I
        31 017325   000005 402007                    MPY     5,DL
        31 017326   777776 236006 xsym               LDQ     HIER_STK-2,QL
        31 017327   000022 736000                    QLS     18
PL6.E3A0      #001=Z8DR$RECORD_DECL File=Z8DR.:Z8A6TSI                           SAT 08/09/97 11:18 Page:593
        31 017330   000022 732000                    QRS     18
        31 017331   000040 756000 0                  STQ     REDUCED_DATA+5

     3335    25854    6          END;

     3336    25855    5        END;

     3337    25856
     3338    25857    4   END PROPAGATE_SIGN_INFO;

  25857 31 017332   000434 221200 0                  LDX1  ! TEMP_QLT$+1
        31 017333   000001 702211                    TSX2  ! 1,X1

     3339    25858        %EJECT;
PL6.E3A0      #001=Z8DR$RECORD_DECL File=Z8DR.:Z8A6TSI                           SAT 08/09/97 11:18 Page:594
     3340    25859
     3341    25860        /*================*/
     3342    25861    3     CHECK_MAX_DIGITS: PROC (ITEM$, LENGTH, SIGN);

  25861 31 017334   000436 741200 0     CHECK_MAX_D* STX1  ! I+1

     3343    25862        /*================*/
     3344    25863
     3345    25864    4        DCL ITEM$         PTR;
     3346    25865    4        DCL LENGTH        SBIN WORD;
     3347    25866    4        DCL SIGN          BIT (2) ALIGNED;
     3348    25867    4        DCL TEMP_LENGTH   SBIN WORD;
     3349    25868
     3350    25869    4        TEMP_LENGTH = LENGTH;

  25869 31 017335   000440 470400 0                  LDP0    @LENGTH
        31 017336   000000 235100                    LDA     0,,PR0
        31 017337   000442 755000 0                  STA     TEMP_LENGTH

     3351    25870
     3352    25871
     3353    25872    4        IF SIGN ~= %NO_SIGN THEN

  25872 31 017340   000441 471400 0                  LDP1    @SIGN
        31 017341   100000 236100                    LDQ     0,,PR1
        31 017342   600000 376003                    ANQ     -65536,DU
        31 017343   600000 116003                    CMPQ    -65536,DU
        31 017344   017346 600000 31                 TZE     s:25875

     3354    25873    4          TEMP_LENGTH = TEMP_LENGTH + 1;

  25873 31 017345   000442 054000 0                  AOS     TEMP_LENGTH

     3355    25874
     3356    25875    4        IF COMCOM.OB.FIPS.LEVEL >= %HIGH_LEV THEN

  25875 31 017346   000036 720000 xsym               LXL0    COMCOM+30
PL6.E3A0      #001=Z8DR$RECORD_DECL File=Z8DR.:Z8A6TSI                           SAT 08/09/97 11:18 Page:595
        31 017347   017401 604400 31                 TMOZ    s:25914

     3357    25876    4          IF TEMP_LENGTH > %ANSI_MAX_DIGITS THEN

  25876 31 017350   000442 236000 0                  LDQ     TEMP_LENGTH
        31 017351   000022 116007                    CMPQ    18,DL
        31 017352   017401 604400 31                 TMOZ    s:25914

     3358    25877    5            DO;

     3359    25878                   %CONDITIONAL_ERROR (@LX_ITEM$ = ITEM$,
     3360    25879                                       @ERROR#   = %E$ANSI_MAX_PIC_DIGITS,
     3361    25880                                       @LINE     = ITEM$ -> LX_ITEM.LINE,
     3362    25881                                       @COLUMN   = ITEM$ -> LX_ITEM.COLUMN);

  25891 31 017353   000437 473400 0                  LDP3    @ITEM$
        31 017354   300000 474500                    LDP4    0,,PR3
        31 017355   400000 236100                    LDQ     0,,PR4
        31 017356   400000 316007                    CANQ    -131072,DL
        31 017357   017376 601000 31                 TNZ     s:25911

  25893 31 017360   400006 635500                    EPPR5   6,,PR4
        31 017361   000574 455400 0                  STP5    P$+3
        31 017362   400005 636500                    EPPR6   5,,PR4
        31 017363   000573 456400 0                  STP6    P$+2
        31 017364   000451 236000 32                 LDQ     297
        31 017365   000572 756000 0                  STQ     P$+1
        31 017366   000572 630400 0                  EPPR0   P$+1
        31 017367   000001 631400 32                 EPPR1   1
        31 017370   000000 701000 xent               TSX1    Z8AE$ERROR
        31 017371   000000 011000                    NOP     0

  25902 31 017372   000437 470400 0                  LDP0    @ITEM$
        31 017373   000000 471500                    LDP1    0,,PR0
        31 017374   400000 236007                    LDQ     -131072,DL
        31 017375   100000 256100                    ORSQ    0,,PR1

PL6.E3A0      #001=Z8DR$RECORD_DECL File=Z8DR.:Z8A6TSI                           SAT 08/09/97 11:18 Page:596
     3363    25911    5              LENGTH = %ANSI_MAX_DIGITS;

  25911 31 017376   000022 235007                    LDA     18,DL
        31 017377   000440 470400 0                  LDP0    @LENGTH
        31 017400   000000 755100                    STA     0,,PR0

     3364    25912    5            END;

     3365    25913
     3366    25914    4        IF NOT COMCOM.OB.FIPS.LEVEL >= %HIGH_LEV THEN

  25914 31 017401   000036 720000 xsym               LXL0    COMCOM+30
        31 017402   017434 605400 31                 TPNZ    s:25953

     3367    25915    4          IF TEMP_LENGTH > %BULL_MAX_PIC_DIGITS THEN

  25915 31 017403   000442 236000 0                  LDQ     TEMP_LENGTH
        31 017404   000073 116007                    CMPQ    59,DL
        31 017405   017434 604400 31                 TMOZ    s:25953

     3368    25916    5            DO;

     3369    25917                   %CONDITIONAL_ERROR (@LX_ITEM$ = ITEM$,
     3370    25918                                       @ERROR#   = %E$NUMERIC_ITEM_TOO_LONG,
     3371    25919                                       @LINE     = ITEM$ -> LX_ITEM.LINE,
     3372    25920                                       @COLUMN   = ITEM$ -> LX_ITEM.COLUMN);

  25930 31 017406   000437 471400 0                  LDP1    @ITEM$
        31 017407   100000 473500                    LDP3    0,,PR1
        31 017410   300000 236100                    LDQ     0,,PR3
        31 017411   400000 316007                    CANQ    -131072,DL
        31 017412   017431 601000 31                 TNZ     s:25950

  25932 31 017413   300006 634500                    EPPR4   6,,PR3
        31 017414   000574 454400 0                  STP4    P$+3
        31 017415   300005 635500                    EPPR5   5,,PR3
        31 017416   000573 455400 0                  STP5    P$+2
PL6.E3A0      #001=Z8DR$RECORD_DECL File=Z8DR.:Z8A6TSI                           SAT 08/09/97 11:18 Page:597
        31 017417   000453 236000 32                 LDQ     299
        31 017420   000572 756000 0                  STQ     P$+1
        31 017421   000572 630400 0                  EPPR0   P$+1
        31 017422   000001 631400 32                 EPPR1   1
        31 017423   000000 701000 xent               TSX1    Z8AE$ERROR
        31 017424   000000 011000                    NOP     0

  25941 31 017425   000437 470400 0                  LDP0    @ITEM$
        31 017426   000000 471500                    LDP1    0,,PR0
        31 017427   400000 236007                    LDQ     -131072,DL
        31 017430   100000 256100                    ORSQ    0,,PR1

     3373    25950    5              LENGTH = %BULL_MAX_PIC_DIGITS;

  25950 31 017431   000073 235007                    LDA     59,DL
        31 017432   000440 470400 0                  LDP0    @LENGTH
        31 017433   000000 755100                    STA     0,,PR0

     3374    25951    5            END;

     3375    25952
     3376    25953    4   END CHECK_MAX_DIGITS;

  25953 31 017434   000436 221200 0                  LDX1  ! I+1
        31 017435   000001 702211                    TSX2  ! 1,X1

     3377    25954        %EJECT;
PL6.E3A0      #001=Z8DR$RECORD_DECL File=Z8DR.:Z8A6TSI                           SAT 08/09/97 11:18 Page:598
     3378    25955        /*=================*/
     3379    25956    3     PROCESS_NDSC4_PIC: PROC (OUT);

  25956 31 017436   000443 741200 0     PROCESS_NDS* STX1  ! TEMP_LENGTH+1

     3380    25957        /*=================*/
     3381    25958
     3382    25959    4   DCL OUT                UBIN;
     3383    25960
     3384    25961    4   DCL 1 OUT_DESC                ALIGNED,
     3385    25962             %DESCRIPTOR              (LVL = 2, ENDING = YES);
     3386    25990
     3387    25991    4   DCL SIGN                      BIT (2);
     3388    25992    4   DCL LENGTH                    SBIN WORD;
     3389    25993
     3390    25994
     3391    25995           %GET_SIGN (@SIGN     = SIGN,
     3392    25996                      @LOCATION = REDUCED_DATA.SIGN.LOCATION);

  25998 31 017437   000005 220000 28                 LDX0    PIC_OUT+5
        31 017440   000003 100003                    CMPX0   3,DU
        31 017441   017445 601000 31                 TNZ     s:26001

  25999 31 017442   600000 236003                    LDQ     -65536,DU
        31 017443   000446 756000 0                  STQ     SIGN
        31 017444   017460 710000 31                 TRA     s:26012

  26001 31 017445   000037 235000 0                  LDA     REDUCED_DATA+4
        31 017446   000002 115007                    CMPA    2,DL
        31 017447   017451 602005 31                 TNC     s:26001+4,AL
        31 017450   017460 710000 31                 TRA     s:26012
        31 017451   017453 710000 31                 TRA     s:26003
        31 017452   017456 710000 31                 TRA     s:26005

  26003 31 017453   400000 236003                    LDQ     -131072,DU
        31 017454   000446 756000 0                  STQ     SIGN
        31 017455   017460 710000 31                 TRA     s:26012
PL6.E3A0      #001=Z8DR$RECORD_DECL File=Z8DR.:Z8A6TSI                           SAT 08/09/97 11:18 Page:599

  26005 31 017456   200000 236003                    LDQ     65536,DU
        31 017457   000446 756000 0                  STQ     SIGN

     3393    26009
     3394    26010           %DECIPHER_PIC_LENGTH (@LENGTH = LENGTH);

  26012 31 017460   000001 236000 28                 LDQ     PIC_OUT+1
        31 017461   000022 732000                    QRS     18
        31 017462   000225 676000 32                 ERQ     149
        31 017463   000001 036007                    ADLQ    1,DL
        31 017464   017501 604000 31                 TMI     s:26018
        31 017465   000000 116000 28                 CMPQ    PIC_OUT
        31 017466   017501 602000 31                 TNC     s:26018
        31 017467   017501 600000 31                 TZE     s:26018

  26013 31 017470   000003 100003                    CMPX0   3,DU
        31 017471   017476 600000 31                 TZE     s:26016

  26014 31 017472   000000 235000 28                 LDA     PIC_OUT
        31 017473   000001 135007                    SBLA    1,DL
        31 017474   000447 755000 0                  STA     LENGTH
        31 017475   017516 710000 31                 TRA     s:26025

  26016 31 017476   000000 235000 28                 LDA     PIC_OUT
        31 017477   000447 755000 0                  STA     LENGTH
        31 017500   017516 710000 31                 TRA     s:26025

  26018 31 017501   000001 222000 28                 LDX2    PIC_OUT+1
        31 017502   017513 605400 31                 TPNZ    s:26021

  26019 31 017503   000001 235000 28                 LDA     PIC_OUT+1
        31 017504   000022 731000                    ARS     18
        31 017505   000572 755000 0                  STA     P$+1
        31 017506   000001 236000 28                 LDQ     PIC_OUT+1
        31 017507   777777 376007                    ANQ     -1,DL
        31 017510   000572 136000 0                  SBLQ    P$+1
PL6.E3A0      #001=Z8DR$RECORD_DECL File=Z8DR.:Z8A6TSI                           SAT 08/09/97 11:18 Page:600
        31 017511   000447 756000 0                  STQ     LENGTH
        31 017512   017516 710000 31                 TRA     s:26025

  26021 31 017513   000001 236000 28                 LDQ     PIC_OUT+1
        31 017514   777777 376007                    ANQ     -1,DL
        31 017515   000447 756000 0                  STQ     LENGTH

     3395    26024
     3396    26025    4      CALL CHECK_MAX_DIGITS (CDECL$ -> LX_REC_DECL.P.PIC_CLAUSE$,

  26025 31 017516   000454 237000 32                 LDAQ    300
        31 017517   000440 757000 0                  STAQ    @LENGTH
        31 017520   000160 236000 0                  LDQ     CDECL$
        31 017521   000004 036003                    ADLQ    4,DU
        31 017522   000437 756000 0                  STQ     @ITEM$
        31 017523   017334 701000 31                 TSX1    CHECK_MAX_DIGITS
        31 017524   000000 011000                    NOP     0

     3397    26026    4                             LENGTH,
     3398    26027    4                             SIGN);
     3399    26028
     3400    26029           %PACK_NDSC (@DESC   = OUT_DESC,
     3401    26030                       @TN     = %NDSC4,
     3402    26031                       @SIGN   = SIGN,
     3403    26032                       @SCALE  = PIC_OUT.SCALE,
     3404    26033                       @LENGTH = LENGTH);

  26038 31 017525   000000 220003                    LDX0    0,DU
        31 017526   000445 740000 0                  STX0    OUT_DESC

  26039 31 017527   000456 236000 32                 LDQ     302
        31 017530   000445 356000 0                  ANSQ    OUT_DESC

  26040 31 017531   040000 236007                    LDQ     16384,DL
        31 017532   000445 256000 0                  ORSQ    OUT_DESC

  26041 31 017533   000446 236000 0                  LDQ     SIGN
PL6.E3A0      #001=Z8DR$RECORD_DECL File=Z8DR.:Z8A6TSI                           SAT 08/09/97 11:18 Page:601
        31 017534   000026 772000                    QRL     22
        31 017535   000445 676000 0                  ERQ     OUT_DESC
        31 017536   030000 376007                    ANQ     12288,DL
        31 017537   000445 656000 0                  ERSQ    OUT_DESC

  26042 31 017540   000001 236000 28                 LDQ     PIC_OUT+1
        31 017541   000014 772000                    QRL     12
        31 017542   000445 752002 0                  STCQ    OUT_DESC,'02'O

  26043 31 017543   000446 236000 0                  LDQ     SIGN
        31 017544   000042 772000                    QRL     34
        31 017545   000004 116007                    CMPQ    4,DL
        31 017546   017550 602006 31                 TNC     s:26043+5,QL
        31 017547   017566 710000 31                 TRA     s:26083
        31 017550   017563 710000 31                 TRA     s:26077
        31 017551   017557 710000 31                 TRA     s:26050
        31 017552   017557 710000 31                 TRA     s:26050
        31 017553   017554 710000 31                 TRA     s:26045

  26045 31 017554   000447 236000 0                  LDQ     LENGTH
        31 017555   000445 752001 0                  STCQ    OUT_DESC,'01'O
        31 017556   017566 710000 31                 TRA     s:26083

  26050 31 017557   000447 236000 0                  LDQ     LENGTH
        31 017560   000001 036007                    ADLQ    1,DL
        31 017561   000445 752001 0                  STCQ    OUT_DESC,'01'O
        31 017562   017566 710000 31                 TRA     s:26083

  26077 31 017563   000447 236000 0                  LDQ     LENGTH
        31 017564   000003 036007                    ADLQ    3,DL
        31 017565   000445 752001 0                  STCQ    OUT_DESC,'01'O

     3405    26082
     3406    26083    4      REDUCED_DATA.TYPE   = %TYD;

  26083 31 017566   000056 450000 0                  STZ     REDUCED_DATA+19

PL6.E3A0      #001=Z8DR$RECORD_DECL File=Z8DR.:Z8A6TSI                           SAT 08/09/97 11:18 Page:602
     3407    26084
     3408    26085    4      REDUCED_DATA.B.CLASS = %CLASS_NUMERIC;

  26085 31 017567   000060 236000 0                  LDQ     REDUCED_DATA+21
        31 017570   000457 376000 32                 ANQ     303
        31 017571   200000 276007                    ORQ     65536,DL
        31 017572   000060 756000 0                  STQ     REDUCED_DATA+21

     3409    26086
     3410    26087    4      OUT = BITBIN(OUT_DESC);

  26087 31 017573   000444 470400 0                  LDP0    @OUT
        31 017574   000445 235000 0                  LDA     OUT_DESC
        31 017575   000000 755100                    STA     0,,PR0

     3411    26088
     3412    26089    4   END PROCESS_NDSC4_PIC;

  26089 31 017576   000443 221200 0                  LDX1  ! TEMP_LENGTH+1
        31 017577   000001 702211                    TSX2  ! 1,X1

     3413    26090        %EJECT;
PL6.E3A0      #001=Z8DR$RECORD_DECL File=Z8DR.:Z8A6TSI                           SAT 08/09/97 11:18 Page:603
     3414    26091        /*=================*/
     3415    26092    3     PROCESS_NDSC9_PIC: PROC (OUT);

  26092 31 017600   000450 741200 0     PROCESS_NDS* STX1  ! LENGTH+1

     3416    26093        /*=================*/
     3417    26094
     3418    26095    4   DCL OUT                UBIN;
     3419    26096
     3420    26097    4   DCL 1 OUT_DESC                ALIGNED,
     3421    26098             %DESCRIPTOR              (LVL = 2, ENDING = YES);
     3422    26126
     3423    26127    4   DCL SIGN                      BIT (2);
     3424    26128    4   DCL LENGTH                    SBIN WORD;
     3425    26129
     3426    26130           %GET_SIGN (@SIGN      = SIGN,
     3427    26131                      @LOCATION  = REDUCED_DATA.SIGN.LOCATION);

  26133 31 017601   000005 220000 28                 LDX0    PIC_OUT+5
        31 017602   000003 100003                    CMPX0   3,DU
        31 017603   017607 601000 31                 TNZ     s:26136

  26134 31 017604   600000 236003                    LDQ     -65536,DU
        31 017605   000453 756000 0                  STQ     SIGN
        31 017606   017622 710000 31                 TRA     s:26147

  26136 31 017607   000037 235000 0                  LDA     REDUCED_DATA+4
        31 017610   000002 115007                    CMPA    2,DL
        31 017611   017613 602005 31                 TNC     s:26136+4,AL
        31 017612   017622 710000 31                 TRA     s:26147
        31 017613   017615 710000 31                 TRA     s:26138
        31 017614   017620 710000 31                 TRA     s:26140

  26138 31 017615   400000 236003                    LDQ     -131072,DU
        31 017616   000453 756000 0                  STQ     SIGN
        31 017617   017622 710000 31                 TRA     s:26147

PL6.E3A0      #001=Z8DR$RECORD_DECL File=Z8DR.:Z8A6TSI                           SAT 08/09/97 11:18 Page:604
  26140 31 017620   200000 236003                    LDQ     65536,DU
        31 017621   000453 756000 0                  STQ     SIGN

     3428    26144
     3429    26145           %DECIPHER_PIC_LENGTH (@LENGTH = LENGTH);

  26147 31 017622   000001 236000 28                 LDQ     PIC_OUT+1
        31 017623   000022 732000                    QRS     18
        31 017624   000225 676000 32                 ERQ     149
        31 017625   000001 036007                    ADLQ    1,DL
        31 017626   017643 604000 31                 TMI     s:26153
        31 017627   000000 116000 28                 CMPQ    PIC_OUT
        31 017630   017643 602000 31                 TNC     s:26153
        31 017631   017643 600000 31                 TZE     s:26153

  26148 31 017632   000003 100003                    CMPX0   3,DU
        31 017633   017640 600000 31                 TZE     s:26151

  26149 31 017634   000000 235000 28                 LDA     PIC_OUT
        31 017635   000001 135007                    SBLA    1,DL
        31 017636   000454 755000 0                  STA     LENGTH
        31 017637   017660 710000 31                 TRA     s:26160

  26151 31 017640   000000 235000 28                 LDA     PIC_OUT
        31 017641   000454 755000 0                  STA     LENGTH
        31 017642   017660 710000 31                 TRA     s:26160

  26153 31 017643   000001 222000 28                 LDX2    PIC_OUT+1
        31 017644   017655 605400 31                 TPNZ    s:26156

  26154 31 017645   000001 235000 28                 LDA     PIC_OUT+1
        31 017646   000022 731000                    ARS     18
        31 017647   000572 755000 0                  STA     P$+1
        31 017650   000001 236000 28                 LDQ     PIC_OUT+1
        31 017651   777777 376007                    ANQ     -1,DL
        31 017652   000572 136000 0                  SBLQ    P$+1
        31 017653   000454 756000 0                  STQ     LENGTH
PL6.E3A0      #001=Z8DR$RECORD_DECL File=Z8DR.:Z8A6TSI                           SAT 08/09/97 11:18 Page:605
        31 017654   017660 710000 31                 TRA     s:26160

  26156 31 017655   000001 236000 28                 LDQ     PIC_OUT+1
        31 017656   777777 376007                    ANQ     -1,DL
        31 017657   000454 756000 0                  STQ     LENGTH

     3430    26159
     3431    26160    4      IF PIC_OUT.EIS_TYPE ~= %PIC_EIS_NS THEN

  26160 31 017660   000003 100003                    CMPX0   3,DU
        31 017661   017705 600000 31                 TZE     s:26178

     3432    26161             %ADJUST_FOR_OVERPUNCH (@SIGN_TYPE = REDUCED_DATA.SIGN.TYPE,
     3433    26162                                    @LENGTH    = LENGTH,
     3434    26163                                    @TYPE      = REDUCED_DATA.TYPE);

  26164 31 017662   000040 235000 0                  LDA     REDUCED_DATA+5
        31 017663   000002 115007                    CMPA    2,DL
        31 017664   017666 602005 31                 TNC     s:26164+4,AL
        31 017665   017706 710000 31                 TRA     s:26180
        31 017666   017670 710000 31                 TRA     s:26166
        31 017667   017703 710000 31                 TRA     s:26174

  26166 31 017670   000060 236000 0                  LDQ     REDUCED_DATA+21
        31 017671   000460 376000 32                 ANQ     304
        31 017672   000001 116003                    CMPQ    1,DU
        31 017673   017676 601000 31                 TNZ     s:26170

  26167 31 017674   000056 450000 0                  STZ     REDUCED_DATA+19
        31 017675   017706 710000 31                 TRA     s:26180

  26170 31 017676   000003 235007                    LDA     3,DL
        31 017677   000056 755000 0                  STA     REDUCED_DATA+19

  26171 31 017700   000001 336007                    LCQ     1,DL
        31 017701   000454 056000 0                  ASQ     LENGTH

PL6.E3A0      #001=Z8DR$RECORD_DECL File=Z8DR.:Z8A6TSI                           SAT 08/09/97 11:18 Page:606
  26172 31 017702   017706 710000 31                 TRA     s:26180

  26174 31 017703   000056 450000 0                  STZ     REDUCED_DATA+19

  26175 31 017704   017706 710000 31                 TRA     s:26180

     3435    26177    4      ELSE
     3436    26178    4        REDUCED_DATA.TYPE = %TYD;

  26178 31 017705   000056 450000 0                  STZ     REDUCED_DATA+19

     3437    26179
     3438    26180    4      CALL CHECK_MAX_DIGITS (CDECL$ -> LX_REC_DECL.P.PIC_CLAUSE$,

  26180 31 017706   000462 237000 32                 LDAQ    306
        31 017707   000440 757000 0                  STAQ    @LENGTH
        31 017710   000160 236000 0                  LDQ     CDECL$
        31 017711   000004 036003                    ADLQ    4,DU
        31 017712   000437 756000 0                  STQ     @ITEM$
        31 017713   017334 701000 31                 TSX1    CHECK_MAX_DIGITS
        31 017714   000000 011000                    NOP     0

     3439    26181    4                             LENGTH,
     3440    26182    4                             SIGN);
     3441    26183
     3442    26184           %PACK_NDSC (@DESC    = OUT_DESC,
     3443    26185                       @TN      = %NDSC9,
     3444    26186                       @SIGN    = SIGN,
     3445    26187                       @SCALE   = PIC_OUT.SCALE,
     3446    26188                       @LENGTH  = LENGTH);

  26193 31 017715   000000 220003                    LDX0    0,DU
        31 017716   000452 740000 0                  STX0    OUT_DESC

  26194 31 017717   000456 236000 32                 LDQ     302
        31 017720   000452 356000 0                  ANSQ    OUT_DESC

PL6.E3A0      #001=Z8DR$RECORD_DECL File=Z8DR.:Z8A6TSI                           SAT 08/09/97 11:18 Page:607
  26195 31 017721   000047 236000 32                 LDQ     39
        31 017722   000452 356000 0                  ANSQ    OUT_DESC

  26196 31 017723   000453 236000 0                  LDQ     SIGN
        31 017724   000026 772000                    QRL     22
        31 017725   000452 676000 0                  ERQ     OUT_DESC
        31 017726   030000 376007                    ANQ     12288,DL
        31 017727   000452 656000 0                  ERSQ    OUT_DESC

  26197 31 017730   000001 236000 28                 LDQ     PIC_OUT+1
        31 017731   000014 772000                    QRL     12
        31 017732   000452 752002 0                  STCQ    OUT_DESC,'02'O

  26198 31 017733   000453 236000 0                  LDQ     SIGN
        31 017734   000042 772000                    QRL     34
        31 017735   000004 116007                    CMPQ    4,DL
        31 017736   017740 602006 31                 TNC     s:26198+5,QL
        31 017737   017756 710000 31                 TRA     s:26238
        31 017740   017753 710000 31                 TRA     s:26229
        31 017741   017747 710000 31                 TRA     s:26205
        31 017742   017747 710000 31                 TRA     s:26205
        31 017743   017744 710000 31                 TRA     s:26200

  26200 31 017744   000454 236000 0                  LDQ     LENGTH
        31 017745   000452 752001 0                  STCQ    OUT_DESC,'01'O
        31 017746   017756 710000 31                 TRA     s:26238

  26205 31 017747   000454 236000 0                  LDQ     LENGTH
        31 017750   000001 036007                    ADLQ    1,DL
        31 017751   000452 752001 0                  STCQ    OUT_DESC,'01'O
        31 017752   017756 710000 31                 TRA     s:26238

  26229 31 017753   000454 236000 0                  LDQ     LENGTH
        31 017754   000002 036007                    ADLQ    2,DL
        31 017755   000452 752001 0                  STCQ    OUT_DESC,'01'O

     3447    26237
PL6.E3A0      #001=Z8DR$RECORD_DECL File=Z8DR.:Z8A6TSI                           SAT 08/09/97 11:18 Page:608
     3448    26238    4      REDUCED_DATA.B.CLASS = %CLASS_NUMERIC;

  26238 31 017756   000060 236000 0                  LDQ     REDUCED_DATA+21
        31 017757   000457 376000 32                 ANQ     303
        31 017760   200000 276007                    ORQ     65536,DL
        31 017761   000060 756000 0                  STQ     REDUCED_DATA+21

     3449    26239
     3450    26240    4      OUT = BITBIN(OUT_DESC);

  26240 31 017762   000451 470400 0                  LDP0    @OUT
        31 017763   000452 235000 0                  LDA     OUT_DESC
        31 017764   000000 755100                    STA     0,,PR0

     3451    26241
     3452    26242    4   END PROCESS_NDSC9_PIC;

  26242 31 017765   000450 221200 0                  LDX1  ! LENGTH+1
        31 017766   000001 702211                    TSX2  ! 1,X1

     3453    26243        %EJECT;
PL6.E3A0      #001=Z8DR$RECORD_DECL File=Z8DR.:Z8A6TSI                           SAT 08/09/97 11:18 Page:609
     3454    26244        /*=============*/
     3455    26245    3     USAGE_DISPLAY: PROC;

  26245 31 017767   000455 741200 0     USAGE_DISPL* STX1  ! LENGTH+1

     3456    26246        /*=============*/
     3457    26247
     3458    26248
     3459    26249
     3460    26250    5      DO CASE (PIC_OUT.TYPE);

  26250 31 017770   000002 220000 28                 LDX0    PIC_OUT+2
        31 017771   000007 100003                    CMPX0   7,DU
        31 017772   017774 602010 31                 TNC     s:26250+4,X0
        31 017773   020032 710000 31                 TRA     s:26265
        31 017774   020003 710000 31                 TRA     s:26253
        31 017775   020003 710000 31                 TRA     s:26253
        31 017776   020003 710000 31                 TRA     s:26253
        31 017777   020003 710000 31                 TRA     s:26253
        31 020000   020003 710000 31                 TRA     s:26253
        31 020001   020026 710000 31                 TRA     s:26261
        31 020002   020003 710000 31                 TRA     s:26253

     3461    26251    5        CASE(%PIC_TY_A, %PIC_TY_AN, %PIC_TY_ANE, %PIC_TY_NE, %PIC_TY_AE,

     3462    26252    5             %PIC_TY_K) ;
     3463    26253    5          CALL PROCESS_ADSC_PIC;

  26253 31 020003   020034 701000 31                 TSX1    PROCESS_ADSC_PIC
        31 020004   000000 011000                    NOP     0

     3464    26254
     3465    26255    5          IF REDUCED_DATA.B.SIGN_PRESENT THEN        /*#32431*/

  26255 31 020005   000060 236000 0                  LDQ     REDUCED_DATA+21
        31 020006   000004 316003                    CANQ    4,DU
        31 020007   020032 600000 31                 TZE     s:26265
PL6.E3A0      #001=Z8DR$RECORD_DECL File=Z8DR.:Z8A6TSI                           SAT 08/09/97 11:18 Page:610

     3466    26256    5            CALL Z8AE$ERROR( %E$SIGN_CLAUSE_NOT_NUMERIC,

  26256 31 020010   000160 470400 0                  LDP0    CDECL$
        31 020011   000011 471500                    LDP1    9,,PR0
        31 020012   100004 473500                    LDP3    4,,PR1
        31 020013   300006 634500                    EPPR4   6,,PR3
        31 020014   000574 454400 0                  STP4    P$+3
        31 020015   300005 631500                    EPPR1   5,,PR3
        31 020016   000573 451400 0                  STP1    P$+2
        31 020017   000464 236000 32                 LDQ     308
        31 020020   000572 756000 0                  STQ     P$+1
        31 020021   000572 630400 0                  EPPR0   P$+1
        31 020022   000001 631400 32                 EPPR1   1
        31 020023   000000 701000 xent               TSX1    Z8AE$ERROR
        31 020024   000000 011000                    NOP     0
        31 020025   020032 710000 31                 TRA     s:26265

     3467    26257    5                       CDECL$ -> LX_REC_DECL.P.SIGN$ -> LX_LIST.HEAD$ -> LX_ITEM.LINE,
     3468    26258    5                      CDECL$ -> LX_REC_DECL.P.SIGN$ -> LX_LIST.HEAD$ -> LX_ITEM.COLUMN
             26258                                );
     3469    26259
     3470    26260    5        CASE(%PIC_TY_N);

     3471    26261    5          CALL PROCESS_NDSC9_PIC (REDUCED_DATA.DESC);

  26261 31 020026   000465 236000 32                 LDQ     309
        31 020027   000451 756000 0                  STQ     @OUT
        31 020030   017600 701000 31                 TSX1    PROCESS_NDSC9_PIC
        31 020031   000000 011000                    NOP     0

     3472    26262
     3473    26263    5      END; /* Case */

     3474    26264
     3475    26265    4   END USAGE_DISPLAY; /* Proc */

PL6.E3A0      #001=Z8DR$RECORD_DECL File=Z8DR.:Z8A6TSI                           SAT 08/09/97 11:18 Page:611
  26265 31 020032   000455 221200 0                  LDX1  ! LENGTH+1
        31 020033   000001 702211                    TSX2  ! 1,X1

     3476    26266        %EJECT;
PL6.E3A0      #001=Z8DR$RECORD_DECL File=Z8DR.:Z8A6TSI                           SAT 08/09/97 11:18 Page:612
     3477    26267        /*================*/
     3478    26268    3     PROCESS_ADSC_PIC: PROC;

  26268 31 020034   000456 741200 0     PROCESS_ADS* STX1  ! LENGTH+2

     3479    26269        /*================*/
     3480    26270
     3481    26271
     3482    26272    4   DCL MOP_DNT$                  PTR;
     3483    26273    4   DCL NEW_NEL$                  PTR;
     3484    26274    4   DCL MOP$                      PTR;
     3485    26275    4   DCL TA                        BIT (2);
     3486    26276
     3487    26277
     3488    26278    5      DO CASE(PIC_OUT.TYPE);

  26278 31 020035   000002 220000 28                 LDX0    PIC_OUT+2
        31 020036   000007 100003                    CMPX0   7,DU
        31 020037   020041 602010 31                 TNC     s:26278+4,X0
        31 020040   020447 710000 31                 TRA     s:26711
        31 020041   020304 710000 31                 TRA     s:26557
        31 020042   020432 710000 31                 TRA     s:26703
        31 020043   020410 710000 31                 TRA     s:26692
        31 020044   020421 710000 31                 TRA     s:26698
        31 020045   020202 710000 31                 TRA     s:26422
        31 020046   020447 710000 31                 TRA     s:26711
        31 020047   020050 710000 31                 TRA     s:26280

     3489    26279    5        CASE(%PIC_TY_NE);

     3490    26280    5          REDUCED_DATA.B.CLASS = %CLASS_EDITED;

  26280 31 020050   000060 236000 0                  LDQ     REDUCED_DATA+21
        31 020051   000457 376000 32                 ANQ     303
        31 020052   000001 276003                    ORQ     1,DU
        31 020053   000060 756000 0                  STQ     REDUCED_DATA+21

PL6.E3A0      #001=Z8DR$RECORD_DECL File=Z8DR.:Z8A6TSI                           SAT 08/09/97 11:18 Page:613
     3491    26281    5          MOP_DNT$ = CDECL$ -> LX_REC_DECL.P.PIC_CLAUSE$

  26281 31 020054   000160 470400 0                  LDP0    CDECL$
        31 020055   000004 471500                    LDP1    4,,PR0
        31 020056   100002 236100                    LDQ     2,,PR1
        31 020057   000457 756000 0                  STQ     MOP_DNT$

     3492    26282    5                     -> LX_ITEM.DNT$;
     3493    26283
     3494    26284    5          CALL Z8EC$CREATE_CONST (%TYM, MOP_DNT$, MOP$);

  26284 31 020060   000467 630400 32                 EPPR0   311
        31 020061   000001 631400 32                 EPPR1   1
        31 020062   000000 701000 xent               TSX1    Z8EC$CREATE_CONST
        31 020063   000000 011000                    NOP     0

     3495    26285
     3496    26286               %NEW_NEL (@POINTER = NEW_NEL$,
     3497    26287                         @DNT$    = MOP_DNT$,
     3498    26288                         @MOP$    = MOP$);

  26367 31 020064   000002 236000 8                  LDQ     LTS_+2
        31 020065   000004 036007                    ADLQ    4,DL
        31 020066   000003 116000 8                  CMPQ    LTS_+3
        31 020067   020100 604000 31                 TMI     s:26369

  26368 31 020070   000023 236000 32                 LDQ     19
        31 020071   000572 756000 0                  STQ     P$+1
        31 020072   000572 630400 0                  EPPR0   P$+1
        31 020073   000573 450400 0                  STP0    P$+2
        31 020074   000573 630400 0                  EPPR0   P$+2
        31 020075   000005 631400 32                 EPPR1   5
        31 020076   000000 701000 xent               TSX1    Z8AR$RESERVER
        31 020077   000000 011000                    NOP     0

  26369 31 020100   000002 236000 8                  LDQ     LTS_+2
        31 020101   000022 736000                    QLS     18
PL6.E3A0      #001=Z8DR$RECORD_DECL File=Z8DR.:Z8A6TSI                           SAT 08/09/97 11:18 Page:614
        31 020102   000001 036000 8                  ADLQ    LTS_+1
        31 020103   000460 756000 0                  STQ     NEW_NEL$

  26370 31 020104   000004 236007                    LDQ     4,DL
        31 020105   000002 056000 8                  ASQ     LTS_+2

  26371 31 020106   001115 220003                    LDX0    589,DU
        31 020107   000460 470400 0                  LDP0    NEW_NEL$
        31 020110   000000 740100                    STX0    0,,PR0

  26377 31 020111   000461 236000 0                  LDQ     MOP$
        31 020112   000460 470400 0                  LDP0    NEW_NEL$
        31 020113   000002 756100                    STQ     2,,PR0

  26378 31 020114   000457 236000 0                  LDQ     MOP_DNT$
        31 020115   000460 470400 0                  LDP0    NEW_NEL$
        31 020116   000003 756100                    STQ     3,,PR0

  26379 31 020117   000460 470400 0                  LDP0    NEW_NEL$
        31 020120   000001 450100                    STZ     1,,PR0

     3499    26382    5          CALL Z8DO$LINK_WITH_LTS (REDUCED_DATA.LTS$, NEW_NEL$);

  26382 31 020121   000472 630400 32                 EPPR0   314
        31 020122   000011 631400 32                 EPPR1   9
        31 020123   000000 701000 xent               TSX1    Z8DO$LINK_WITH_LTS
        31 020124   000000 011000                    NOP     0

     3500    26383
     3501    26384    5          CALL PROCESS_NDSC9_PIC (NEW_NEL$ -> NEL.DESC);

  26384 31 020125   000460 236000 0                  LDQ     NEW_NEL$
        31 020126   000001 036003                    ADLQ    1,DU
        31 020127   000451 756000 0                  STQ     @OUT
        31 020130   017600 701000 31                 TSX1    PROCESS_NDSC9_PIC
        31 020131   000000 011000                    NOP     0

PL6.E3A0      #001=Z8DR$RECORD_DECL File=Z8DR.:Z8A6TSI                           SAT 08/09/97 11:18 Page:615
     3502    26385
     3503    26386    5          IF REDUCED_DATA.USAGE.TYPE = %RSV_WRD_GBCD

  26386 31 020132   000033 235000 0                  LDA     REDUCED_DATA
        31 020133   000332 115007                    CMPA    218,DL
        31 020134   020140 601000 31                 TNZ     s:26388

     3504    26387    5            THEN TA = %ADSC6;

  26387 31 020135   200000 236003                    LDQ     65536,DU
        31 020136   000462 756000 0                  STQ     TA
        31 020137   020141 710000 31                 TRA     s:26395

     3505    26388    5            ELSE TA = %ADSC9;

  26388 31 020140   000462 450000 0                  STZ     TA

     3506    26389               %PACK_ADSC (@DESC   = REDUCED_DATA.DESC,
     3507    26390                           @TA     = TA,
     3508    26391                           @LENGTH = PIC_OUT.WIDTH);

  26395 31 020141   000000 220003                    LDX0    0,DU
        31 020142   000057 740000 0                  STX0    REDUCED_DATA+20

  26402 31 020143   000462 236000 0                  LDQ     TA
        31 020144   600000 316003                    CANQ    -65536,DU
        31 020145   020153 601000 31                 TNZ     s:26408

  26404 31 020146   000474 236000 32                 LDQ     316
        31 020147   000057 356000 0                  ANSQ    REDUCED_DATA+20

  26405 31 020150   000046 236000 32                 LDQ     38
        31 020151   000057 356000 0                  ANSQ    REDUCED_DATA+20

  26406 31 020152   020155 710000 31                 TRA     s:26410

  26408 31 020153   000456 236000 32                 LDQ     302
PL6.E3A0      #001=Z8DR$RECORD_DECL File=Z8DR.:Z8A6TSI                           SAT 08/09/97 11:18 Page:616
        31 020154   000057 356000 0                  ANSQ    REDUCED_DATA+20

  26410 31 020155   000462 236000 0                  LDQ     TA
        31 020156   000025 772000                    QRL     21
        31 020157   000057 676000 0                  ERQ     REDUCED_DATA+20
        31 020160   060000 376007                    ANQ     24576,DL
        31 020161   000057 656000 0                  ERSQ    REDUCED_DATA+20

  26411 31 020162   000475 236000 32                 LDQ     317
        31 020163   000057 356000 0                  ANSQ    REDUCED_DATA+20

  26412 31 020164   000000 236000 28                 LDQ     PIC_OUT
        31 020165   000057 752003 0                  STCQ    REDUCED_DATA+20,'03'O

     3509    26415    5          REDUCED_DATA.B.CLASS = %CLASS_NUMERIC_EDITED;

  26415 31 020166   000060 236000 0                  LDQ     REDUCED_DATA+21
        31 020167   000457 376000 32                 ANQ     303
        31 020170   000476 276000 32                 ORQ     318
        31 020171   000060 756000 0                  STQ     REDUCED_DATA+21

     3510    26416    5          REDUCED_DATA.TYPE    = %TYA;

  26416 31 020172   000010 235007                    LDA     8,DL
        31 020173   000056 755000 0                  STA     REDUCED_DATA+19

     3511    26417
     3512    26418    5          IF PIC_OUT.B.ASTERISK_SUPRESS THEN

  26418 31 020174   000002 236000 28                 LDQ     PIC_OUT+2
        31 020175   400000 316007                    CANQ    -131072,DL
        31 020176   020447 600000 31                 TZE     s:26711

     3513    26419    5            REDUCED_DATA.B.ASTERISK_SUPRESS = TRUE;

  26419 31 020177   100000 236007                    LDQ     32768,DL
        31 020200   000060 256000 0                  ORSQ    REDUCED_DATA+21
PL6.E3A0      #001=Z8DR$RECORD_DECL File=Z8DR.:Z8A6TSI                           SAT 08/09/97 11:18 Page:617
        31 020201   020447 710000 31                 TRA     s:26711

     3514    26420
     3515    26421    5        CASE(%PIC_TY_ANE);

     3516    26422    5          MOP_DNT$ = CDECL$ -> LX_REC_DECL.P.PIC_CLAUSE$

  26422 31 020202   000160 470400 0                  LDP0    CDECL$
        31 020203   000004 471500                    LDP1    4,,PR0
        31 020204   100002 236100                    LDQ     2,,PR1
        31 020205   000457 756000 0                  STQ     MOP_DNT$

     3517    26423    5                     -> LX_ITEM.DNT$;
     3518    26424
     3519    26425    5          CALL Z8EC$CREATE_CONST (%TYM, MOP_DNT$, MOP$);

  26425 31 020206   000467 630400 32                 EPPR0   311
        31 020207   000001 631400 32                 EPPR1   1
        31 020210   000000 701000 xent               TSX1    Z8EC$CREATE_CONST
        31 020211   000000 011000                    NOP     0

     3520    26426
     3521    26427               %NEW_NEL (@POINTER = NEW_NEL$,
     3522    26428                         @DNT$    = MOP_DNT$,
     3523    26429                         @MOP$    = MOP$);

  26508 31 020212   000002 236000 8                  LDQ     LTS_+2
        31 020213   000004 036007                    ADLQ    4,DL
        31 020214   000003 116000 8                  CMPQ    LTS_+3
        31 020215   020226 604000 31                 TMI     s:26510

  26509 31 020216   000023 236000 32                 LDQ     19
        31 020217   000572 756000 0                  STQ     P$+1
        31 020220   000572 630400 0                  EPPR0   P$+1
        31 020221   000573 450400 0                  STP0    P$+2
        31 020222   000573 630400 0                  EPPR0   P$+2
        31 020223   000005 631400 32                 EPPR1   5
PL6.E3A0      #001=Z8DR$RECORD_DECL File=Z8DR.:Z8A6TSI                           SAT 08/09/97 11:18 Page:618
        31 020224   000000 701000 xent               TSX1    Z8AR$RESERVER
        31 020225   000000 011000                    NOP     0

  26510 31 020226   000002 236000 8                  LDQ     LTS_+2
        31 020227   000022 736000                    QLS     18
        31 020230   000001 036000 8                  ADLQ    LTS_+1
        31 020231   000460 756000 0                  STQ     NEW_NEL$

  26511 31 020232   000004 236007                    LDQ     4,DL
        31 020233   000002 056000 8                  ASQ     LTS_+2

  26512 31 020234   001115 220003                    LDX0    589,DU
        31 020235   000460 470400 0                  LDP0    NEW_NEL$
        31 020236   000000 740100                    STX0    0,,PR0

  26518 31 020237   000461 236000 0                  LDQ     MOP$
        31 020240   000460 470400 0                  LDP0    NEW_NEL$
        31 020241   000002 756100                    STQ     2,,PR0

  26519 31 020242   000457 236000 0                  LDQ     MOP_DNT$
        31 020243   000460 470400 0                  LDP0    NEW_NEL$
        31 020244   000003 756100                    STQ     3,,PR0

  26520 31 020245   000460 470400 0                  LDP0    NEW_NEL$
        31 020246   000001 450100                    STZ     1,,PR0

     3524    26523    5          CALL Z8DO$LINK_WITH_LTS (REDUCED_DATA.LTS$, NEW_NEL$);

  26523 31 020247   000472 630400 32                 EPPR0   314
        31 020250   000011 631400 32                 EPPR1   9
        31 020251   000000 701000 xent               TSX1    Z8DO$LINK_WITH_LTS
        31 020252   000000 011000                    NOP     0

     3525    26524
     3526    26525    5          REDUCED_DATA.TYPE = %TYA;

  26525 31 020253   000010 235007                    LDA     8,DL
PL6.E3A0      #001=Z8DR$RECORD_DECL File=Z8DR.:Z8A6TSI                           SAT 08/09/97 11:18 Page:619
        31 020254   000056 755000 0                  STA     REDUCED_DATA+19

     3527    26526    5          CALL ASSIGN_ADSC_DESC;

  26526 31 020255   020451 701000 31                 TSX1    ASSIGN_ADSC_DESC
        31 020256   000000 011000                    NOP     0

     3528    26527
     3529    26528               %PACK_ADSC (@DESC  = NEW_NEL$ -> NEL.DESC,
     3530    26529                           @LENGTH = PIC_OUT.LEFT);

  26533 31 020257   000000 220003                    LDX0    0,DU
        31 020260   000460 470400 0                  LDP0    NEW_NEL$
        31 020261   000001 740100                    STX0    1,,PR0

  26535 31 020262   000460 470400 0                  LDP0    NEW_NEL$
        31 020263   000474 236000 32                 LDQ     316
        31 020264   000001 356100                    ANSQ    1,,PR0

  26536 31 020265   000460 470400 0                  LDP0    NEW_NEL$
        31 020266   000046 236000 32                 LDQ     38
        31 020267   000001 356100                    ANSQ    1,,PR0

  26548 31 020270   000460 470400 0                  LDP0    NEW_NEL$
        31 020271   000477 236000 32                 LDQ     319
        31 020272   000001 356100                    ANSQ    1,,PR0

  26549 31 020273   000460 470400 0                  LDP0    NEW_NEL$
        31 020274   000475 236000 32                 LDQ     317
        31 020275   000001 356100                    ANSQ    1,,PR0

  26550 31 020276   000460 470400 0                  LDP0    NEW_NEL$
        31 020277   000001 236000 28                 LDQ     PIC_OUT+1
        31 020300   000001 752103                    STCQ    1,'03'O,PR0

     3531    26553
     3532    26554    5          REDUCED_DATA.B.CLASS = %CLASS_ALPHANUMERIC_EDITED;
PL6.E3A0      #001=Z8DR$RECORD_DECL File=Z8DR.:Z8A6TSI                           SAT 08/09/97 11:18 Page:620

  26554 31 020301   000460 236000 32                 LDQ     304
        31 020302   000060 256000 0                  ORSQ    REDUCED_DATA+21
        31 020303   020447 710000 31                 TRA     s:26711

     3533    26555
     3534    26556    5        CASE(%PIC_TY_AE);

     3535    26557    5          MOP_DNT$ = CDECL$ -> LX_REC_DECL.P.PIC_CLAUSE$

  26557 31 020304   000160 470400 0                  LDP0    CDECL$
        31 020305   000004 471500                    LDP1    4,,PR0
        31 020306   100002 236100                    LDQ     2,,PR1
        31 020307   000457 756000 0                  STQ     MOP_DNT$

     3536    26558    5                     -> LX_ITEM.DNT$;
     3537    26559
     3538    26560    5          CALL Z8EC$CREATE_CONST (%TYM, MOP_DNT$, MOP$);

  26560 31 020310   000467 630400 32                 EPPR0   311
        31 020311   000001 631400 32                 EPPR1   1
        31 020312   000000 701000 xent               TSX1    Z8EC$CREATE_CONST
        31 020313   000000 011000                    NOP     0

     3539    26561
     3540    26562               %NEW_NEL (@POINTER = NEW_NEL$,
     3541    26563                         @DNT$    = MOP_DNT$,
     3542    26564                         @MOP$    = MOP$);

  26643 31 020314   000002 236000 8                  LDQ     LTS_+2
        31 020315   000004 036007                    ADLQ    4,DL
        31 020316   000003 116000 8                  CMPQ    LTS_+3
        31 020317   020330 604000 31                 TMI     s:26645

  26644 31 020320   000023 236000 32                 LDQ     19
        31 020321   000572 756000 0                  STQ     P$+1
        31 020322   000572 630400 0                  EPPR0   P$+1
PL6.E3A0      #001=Z8DR$RECORD_DECL File=Z8DR.:Z8A6TSI                           SAT 08/09/97 11:18 Page:621
        31 020323   000573 450400 0                  STP0    P$+2
        31 020324   000573 630400 0                  EPPR0   P$+2
        31 020325   000005 631400 32                 EPPR1   5
        31 020326   000000 701000 xent               TSX1    Z8AR$RESERVER
        31 020327   000000 011000                    NOP     0

  26645 31 020330   000002 236000 8                  LDQ     LTS_+2
        31 020331   000022 736000                    QLS     18
        31 020332   000001 036000 8                  ADLQ    LTS_+1
        31 020333   000460 756000 0                  STQ     NEW_NEL$

  26646 31 020334   000004 236007                    LDQ     4,DL
        31 020335   000002 056000 8                  ASQ     LTS_+2

  26647 31 020336   001115 220003                    LDX0    589,DU
        31 020337   000460 470400 0                  LDP0    NEW_NEL$
        31 020340   000000 740100                    STX0    0,,PR0

  26653 31 020341   000461 236000 0                  LDQ     MOP$
        31 020342   000460 470400 0                  LDP0    NEW_NEL$
        31 020343   000002 756100                    STQ     2,,PR0

  26654 31 020344   000457 236000 0                  LDQ     MOP_DNT$
        31 020345   000460 470400 0                  LDP0    NEW_NEL$
        31 020346   000003 756100                    STQ     3,,PR0

  26655 31 020347   000460 470400 0                  LDP0    NEW_NEL$
        31 020350   000001 450100                    STZ     1,,PR0

     3543    26658    5          CALL Z8DO$LINK_WITH_LTS (REDUCED_DATA.LTS$, NEW_NEL$);

  26658 31 020351   000472 630400 32                 EPPR0   314
        31 020352   000011 631400 32                 EPPR1   9
        31 020353   000000 701000 xent               TSX1    Z8DO$LINK_WITH_LTS
        31 020354   000000 011000                    NOP     0

     3544    26659
PL6.E3A0      #001=Z8DR$RECORD_DECL File=Z8DR.:Z8A6TSI                           SAT 08/09/97 11:18 Page:622
     3545    26660    5          REDUCED_DATA.TYPE = %TYA;

  26660 31 020355   000010 235007                    LDA     8,DL
        31 020356   000056 755000 0                  STA     REDUCED_DATA+19

     3546    26661    5          CALL ASSIGN_ADSC_DESC;

  26661 31 020357   020451 701000 31                 TSX1    ASSIGN_ADSC_DESC
        31 020360   000000 011000                    NOP     0

     3547    26662
     3548    26663               %PACK_ADSC (@DESC  = NEW_NEL$ -> NEL.DESC,
     3549    26664                           @LENGTH = PIC_OUT.LEFT);

  26668 31 020361   000000 220003                    LDX0    0,DU
        31 020362   000460 470400 0                  LDP0    NEW_NEL$
        31 020363   000001 740100                    STX0    1,,PR0

  26670 31 020364   000460 470400 0                  LDP0    NEW_NEL$
        31 020365   000474 236000 32                 LDQ     316
        31 020366   000001 356100                    ANSQ    1,,PR0

  26671 31 020367   000460 470400 0                  LDP0    NEW_NEL$
        31 020370   000046 236000 32                 LDQ     38
        31 020371   000001 356100                    ANSQ    1,,PR0

  26683 31 020372   000460 470400 0                  LDP0    NEW_NEL$
        31 020373   000477 236000 32                 LDQ     319
        31 020374   000001 356100                    ANSQ    1,,PR0

  26684 31 020375   000460 470400 0                  LDP0    NEW_NEL$
        31 020376   000475 236000 32                 LDQ     317
        31 020377   000001 356100                    ANSQ    1,,PR0

  26685 31 020400   000460 470400 0                  LDP0    NEW_NEL$
        31 020401   000001 236000 28                 LDQ     PIC_OUT+1
        31 020402   000001 752103                    STCQ    1,'03'O,PR0
PL6.E3A0      #001=Z8DR$RECORD_DECL File=Z8DR.:Z8A6TSI                           SAT 08/09/97 11:18 Page:623

     3550    26688
     3551    26689    5          REDUCED_DATA.B.CLASS = %CLASS_ALPHABETIC_EDITED;

  26689 31 020403   000060 236000 0                  LDQ     REDUCED_DATA+21
        31 020404   000457 376000 32                 ANQ     303
        31 020405   000500 276000 32                 ORQ     320
        31 020406   000060 756000 0                  STQ     REDUCED_DATA+21
        31 020407   020447 710000 31                 TRA     s:26711

     3552    26690
     3553    26691    5        CASE(%PIC_TY_A);

     3554    26692    5          REDUCED_DATA.B.CLASS = %CLASS_ALPHABETIC;

  26692 31 020410   000060 236000 0                  LDQ     REDUCED_DATA+21
        31 020411   000457 376000 32                 ANQ     303
        31 020412   400000 276007                    ORQ     -131072,DL
        31 020413   000060 756000 0                  STQ     REDUCED_DATA+21

     3555    26693
     3556    26694    5          REDUCED_DATA.TYPE = %TYA;

  26694 31 020414   000010 235007                    LDA     8,DL
        31 020415   000056 755000 0                  STA     REDUCED_DATA+19

     3557    26695    5          CALL ASSIGN_ADSC_DESC;

  26695 31 020416   020451 701000 31                 TSX1    ASSIGN_ADSC_DESC
        31 020417   000000 011000                    NOP     0
        31 020420   020447 710000 31                 TRA     s:26711

     3558    26696
     3559    26697    5        CASE(%PIC_TY_AN);

     3560    26698    5          REDUCED_DATA.B.CLASS = %CLASS_ALPHANUMERIC;

PL6.E3A0      #001=Z8DR$RECORD_DECL File=Z8DR.:Z8A6TSI                           SAT 08/09/97 11:18 Page:624
  26698 31 020421   000060 236000 0                  LDQ     REDUCED_DATA+21
        31 020422   000457 376000 32                 ANQ     303
        31 020423   600000 276007                    ORQ     -65536,DL
        31 020424   000060 756000 0                  STQ     REDUCED_DATA+21

     3561    26699    5          REDUCED_DATA.TYPE = %TYA;

  26699 31 020425   000010 235007                    LDA     8,DL
        31 020426   000056 755000 0                  STA     REDUCED_DATA+19

     3562    26700    5          CALL ASSIGN_ADSC_DESC;

  26700 31 020427   020451 701000 31                 TSX1    ASSIGN_ADSC_DESC
        31 020430   000000 011000                    NOP     0
        31 020431   020447 710000 31                 TRA     s:26711

     3563    26701
     3564    26702    5        CASE(%PIC_TY_K);

     3565    26703    5          REDUCED_DATA.B.CLASS = %CLASS_ALPHANUMERIC;

  26703 31 020432   000060 236000 0                  LDQ     REDUCED_DATA+21
        31 020433   000457 376000 32                 ANQ     303
        31 020434   600000 276007                    ORQ     -65536,DL
        31 020435   000060 756000 0                  STQ     REDUCED_DATA+21

     3566    26704    5          REDUCED_DATA.B.KANJI = %TRUE;

  26704 31 020436   002000 236007                    LDQ     1024,DL
        31 020437   000060 256000 0                  ORSQ    REDUCED_DATA+21

     3567    26705    5          REDUCED_DATA.TYPE = %TYN;

  26705 31 020440   000016 235007                    LDA     14,DL
        31 020441   000056 755000 0                  STA     REDUCED_DATA+19

     3568    26706    5          PIC_OUT.WIDTH = PIC_OUT.WIDTH * 2 ;
PL6.E3A0      #001=Z8DR$RECORD_DECL File=Z8DR.:Z8A6TSI                           SAT 08/09/97 11:18 Page:625

  26706 31 020442   000000 235000 28                 LDA     PIC_OUT
        31 020443   000001 735000                    ALS     1
        31 020444   000000 755000 28                 STA     PIC_OUT

     3569    26707    5          CALL ASSIGN_ADSC_DESC;

  26707 31 020445   020451 701000 31                 TSX1    ASSIGN_ADSC_DESC
        31 020446   000000 011000                    NOP     0

     3570    26708
     3571    26709    5      END; /* Case */

     3572    26710
     3573    26711    4   END PROCESS_ADSC_PIC;

  26711 31 020447   000456 221200 0                  LDX1  ! LENGTH+2
        31 020450   000001 702211                    TSX2  ! 1,X1

     3574    26712        %EJECT;
PL6.E3A0      #001=Z8DR$RECORD_DECL File=Z8DR.:Z8A6TSI                           SAT 08/09/97 11:18 Page:626
     3575    26713        /*================*/
     3576    26714    3     ASSIGN_ADSC_DESC: PROC;

  26714 31 020451   000463 741200 0     ASSIGN_ADSC* STX1  ! TA+1

     3577    26715        /*================*/
     3578    26716
     3579    26717
     3580    26718    4   DCL NEW_LONG$                 PTR;
     3581    26719    4   DCL TA                        BIT (2);
     3582    26720
     3583    26721
     3584    26722    4      IF REDUCED_DATA.USAGE.TYPE = %RSV_WRD_GBCD

  26722 31 020452   000033 235000 0                  LDA     REDUCED_DATA
        31 020453   000332 115007                    CMPA    218,DL
        31 020454   020460 601000 31                 TNZ     s:26724

     3585    26723    4        THEN TA = %ADSC6;

  26723 31 020455   200000 236003                    LDQ     65536,DU
        31 020456   000465 756000 0                  STQ     TA
        31 020457   020461 710000 31                 TRA     s:26725

     3586    26724    4        ELSE TA = %ADSC9;

  26724 31 020460   000465 450000 0                  STZ     TA

     3587    26725    4      IF PIC_OUT.WIDTH > %LENGTH_OF_4095 THEN

  26725 31 020461   000000 236000 28                 LDQ     PIC_OUT
        31 020462   010000 116007                    CMPQ    4096,DL
        31 020463   020555 602000 31                 TNC     s:26861

     3588    26726    5        DO;

     3589    26727    5          REDUCED_DATA.B.LENGTH_4096 = TRUE;
PL6.E3A0      #001=Z8DR$RECORD_DECL File=Z8DR.:Z8A6TSI                           SAT 08/09/97 11:18 Page:627

  26727 31 020464   001000 236003                    LDQ     512,DU
        31 020465   000060 256000 0                  ORSQ    REDUCED_DATA+21

     3590    26728
     3591    26729    5          IF PIC_OUT.WIDTH >= %#256K THEN

  26729 31 020466   000000 235000 28                 LDA     PIC_OUT
        31 020467   000001 115003                    CMPA    1,DU
        31 020470   020473 602000 31                 TNC     s:26812

     3592    26730    5            REDUCED_DATA.B.GREATER_256K = TRUE;

  26730 31 020471   002000 236003                    LDQ     1024,DU
        31 020472   000060 256000 0                  ORSQ    REDUCED_DATA+21

     3593    26731
     3594    26732               %NEW_LONG (@POINTER = NEW_LONG$,
     3595    26733                          @LENGTH  = PIC_OUT.WIDTH);

  26812 31 020473   000002 236000 8                  LDQ     LTS_+2
        31 020474   000002 036007                    ADLQ    2,DL
        31 020475   000003 116000 8                  CMPQ    LTS_+3
        31 020476   020507 604000 31                 TMI     s:26814

  26813 31 020477   000023 236000 32                 LDQ     19
        31 020500   000572 756000 0                  STQ     P$+1
        31 020501   000572 630400 0                  EPPR0   P$+1
        31 020502   000573 450400 0                  STP0    P$+2
        31 020503   000573 630400 0                  EPPR0   P$+2
        31 020504   000005 631400 32                 EPPR1   5
        31 020505   000000 701000 xent               TSX1    Z8AR$RESERVER
        31 020506   000000 011000                    NOP     0

  26814 31 020507   000002 236000 8                  LDQ     LTS_+2
        31 020510   000022 736000                    QLS     18
        31 020511   000001 036000 8                  ADLQ    LTS_+1
PL6.E3A0      #001=Z8DR$RECORD_DECL File=Z8DR.:Z8A6TSI                           SAT 08/09/97 11:18 Page:628
        31 020512   000464 756000 0                  STQ     NEW_LONG$

  26815 31 020513   000002 236007                    LDQ     2,DL
        31 020514   000002 056000 8                  ASQ     LTS_+2

  26816 31 020515   001110 220003                    LDX0    584,DU
        31 020516   000464 470400 0                  LDP0    NEW_LONG$
        31 020517   000000 740100                    STX0    0,,PR0

  26822 31 020520   000464 470400 0                  LDP0    NEW_LONG$
        31 020521   000000 235000 28                 LDA     PIC_OUT
        31 020522   000001 755100                    STA     1,,PR0

     3596    26825    5          CALL Z8DO$LINK_WITH_LTS (REDUCED_DATA.LTS$, NEW_LONG$);

  26825 31 020523   000501 630400 32                 EPPR0   321
        31 020524   000011 631400 32                 EPPR1   9
        31 020525   000000 701000 xent               TSX1    Z8DO$LINK_WITH_LTS
        31 020526   000000 011000                    NOP     0

     3597    26826
     3598    26827               %PACK_ADSC (@DESC    = REDUCED_DATA.DESC,
     3599    26828                           @TA      = TA,
     3600    26829                           @LENGTH  = 0);

  26833 31 020527   000000 220003                    LDX0    0,DU
        31 020530   000057 740000 0                  STX0    REDUCED_DATA+20

  26840 31 020531   000465 236000 0                  LDQ     TA
        31 020532   600000 316003                    CANQ    -65536,DU
        31 020533   020541 601000 31                 TNZ     s:26846

  26842 31 020534   000474 236000 32                 LDQ     316
        31 020535   000057 356000 0                  ANSQ    REDUCED_DATA+20

  26843 31 020536   000046 236000 32                 LDQ     38
        31 020537   000057 356000 0                  ANSQ    REDUCED_DATA+20
PL6.E3A0      #001=Z8DR$RECORD_DECL File=Z8DR.:Z8A6TSI                           SAT 08/09/97 11:18 Page:629

  26844 31 020540   020543 710000 31                 TRA     s:26848

  26846 31 020541   000456 236000 32                 LDQ     302
        31 020542   000057 356000 0                  ANSQ    REDUCED_DATA+20

  26848 31 020543   000465 236000 0                  LDQ     TA
        31 020544   000025 772000                    QRL     21
        31 020545   000057 676000 0                  ERQ     REDUCED_DATA+20
        31 020546   060000 376007                    ANQ     24576,DL
        31 020547   000057 656000 0                  ERSQ    REDUCED_DATA+20

  26849 31 020550   000475 236000 32                 LDQ     317
        31 020551   000057 356000 0                  ANSQ    REDUCED_DATA+20

  26850 31 020552   000000 236003                    LDQ     0,DU
        31 020553   000057 752003 0                  STCQ    REDUCED_DATA+20,'03'O

     3601    26853    5        END;

  26853 31 020554   020602 710000 31                 TRA     s:26882

     3602    26854    4      ELSE
     3603    26855             %PACK_ADSC (@DESC   = REDUCED_DATA.DESC,
     3604    26856                         @TA      = TA,
     3605    26857                         @LENGTH = PIC_OUT.WIDTH);

  26861 31 020555   000000 220003                    LDX0    0,DU
        31 020556   000057 740000 0                  STX0    REDUCED_DATA+20

  26868 31 020557   000465 236000 0                  LDQ     TA
        31 020560   600000 316003                    CANQ    -65536,DU
        31 020561   020567 601000 31                 TNZ     s:26874

  26870 31 020562   000474 236000 32                 LDQ     316
        31 020563   000057 356000 0                  ANSQ    REDUCED_DATA+20

PL6.E3A0      #001=Z8DR$RECORD_DECL File=Z8DR.:Z8A6TSI                           SAT 08/09/97 11:18 Page:630
  26871 31 020564   000046 236000 32                 LDQ     38
        31 020565   000057 356000 0                  ANSQ    REDUCED_DATA+20

  26872 31 020566   020571 710000 31                 TRA     s:26876

  26874 31 020567   000456 236000 32                 LDQ     302
        31 020570   000057 356000 0                  ANSQ    REDUCED_DATA+20

  26876 31 020571   000465 236000 0                  LDQ     TA
        31 020572   000025 772000                    QRL     21
        31 020573   000057 676000 0                  ERQ     REDUCED_DATA+20
        31 020574   060000 376007                    ANQ     24576,DL
        31 020575   000057 656000 0                  ERSQ    REDUCED_DATA+20

  26877 31 020576   000475 236000 32                 LDQ     317
        31 020577   000057 356000 0                  ANSQ    REDUCED_DATA+20

  26878 31 020600   000000 236000 28                 LDQ     PIC_OUT
        31 020601   000057 752003 0                  STCQ    REDUCED_DATA+20,'03'O

     3606    26881
     3607    26882    4   END ASSIGN_ADSC_DESC;

  26882 31 020602   000463 221200 0                  LDX1  ! TA+1
        31 020603   000001 702211                    TSX2  ! 1,X1

     3608    26883        %EJECT;
PL6.E3A0      #001=Z8DR$RECORD_DECL File=Z8DR.:Z8A6TSI                           SAT 08/09/97 11:18 Page:631
     3609    26884        /*========================*/
     3610    26885    3     CHECK_TYPE_OPTIMIZATIONS: PROC;

  26885 31 020604   000466 741200 0     CHECK_TYPE_* STX1  ! TA+1

     3611    26886        /*========================*/
     3612    26887
     3613    26888
     3614    26889    5        DO CASE (REDUCED_DATA.USAGE.TYPE);

  26889 31 020605   000033 235000 0                  LDA     REDUCED_DATA
        31 020606   000365 135007                    SBLA    245,DL
        31 020607   000001 115007                    CMPA    1,DL
        31 020610   020612 602005 31                 TNC     s:26889+5,AL
        31 020611   020631 710000 31                 TRA     s:26914
        31 020612   020613 710000 31                 TRA     s:26900

     3615    26890        /*N*   CASE(%RSV_WRD_COMP_1, %RSV_WRD_COMP_2, %RSV_WRD_COMP_7);
     3616    26891                 IF REDUCED_DATA.LEVEL.CURRENT = %LEVEL_01 THEN
     3617    26892                   DO;
     3618    26893                     REDUCED_DATA.TYPE = %TYI;
     3619    26894
     3620    26895                     %BUILD_BINARY_DESC (@LENGTH = %TYI_LENGTH,
     3621    26896                                         @DESC   = REDUCED_DATA.DESC);
     3622    26897                   END;*/
     3623    26898
     3624    26899    5          CASE (%RSV_WRD_INDEX);

     3625    26900    5            IF COMCOM.OB.COBOL_74      THEN

  26900 31 020613   000015 234000 xsym               SZN     COMCOM+13
        31 020614   020626 605000 31                 TPL     s:26908

     3626    26901    6              DO;

     3627    26902    6                IF REDUCED_DATA.LEVEL.CURRENT = %LEVEL_01 THEN

PL6.E3A0      #001=Z8DR$RECORD_DECL File=Z8DR.:Z8A6TSI                           SAT 08/09/97 11:18 Page:632
  26902 31 020615   000034 236000 0                  LDQ     REDUCED_DATA+1
        31 020616   000001 116007                    CMPQ    1,DL
        31 020617   020623 601000 31                 TNZ     s:26905

     3628    26903    6                  REDUCED_DATA.TYPE = %TYX;

  26903 31 020620   000011 235007                    LDA     9,DL
        31 020621   000056 755000 0                  STA     REDUCED_DATA+19
        31 020622   020631 710000 31                 TRA     s:26914

     3629    26904    6                ELSE
     3630    26905    6                  REDUCED_DATA.TYPE = %TYY;

  26905 31 020623   000012 235007                    LDA     10,DL
        31 020624   000056 755000 0                  STA     REDUCED_DATA+19

     3631    26906    6              END;

  26906 31 020625   020631 710000 31                 TRA     s:26914

     3632    26907    5            ELSE
     3633    26908    5              REDUCED_DATA.TYPE = %TYX;

  26908 31 020626   000011 236007                    LDQ     9,DL
        31 020627   000056 756000 0                  STQ     REDUCED_DATA+19
        31 020630   020631 710000 31                 TRA     s:26914

     3634    26909
     3635    26910    5          CASE(ELSE);

     3636    26911    5            /* No optimizations yet */;
     3637    26912    5        END;

     3638    26913
     3639    26914    4   END CHECK_TYPE_OPTIMIZATIONS;

  26914 31 020631   000001 702211                    TSX2  ! 1,X1
PL6.E3A0      #001=Z8DR$RECORD_DECL File=Z8DR.:Z8A6TSI                           SAT 08/09/97 11:18 Page:633

     3640    26915        %EJECT;
PL6.E3A0      #001=Z8DR$RECORD_DECL File=Z8DR.:Z8A6TSI                           SAT 08/09/97 11:18 Page:634
     3641    26916        /*===============*/
     3642    26917    3     FILL_DESCRIPTOR: PROC;

  26917 31 020632   000467 741200 0     FILL_DESCRI* STX1  ! TA+2

     3643    26918        /*===============*/
     3644    26919
     3645    26920
     3646    26921    4      DML_TYPE = %NO_TYPE;

  26921 31 020633   000414 450000 0                  STZ     DML_TYPE

     3647    26922    4      CALL PROPAGATE_SIGN_INFO;

  26922 31 020634   017265 701000 31                 TSX1    PROPAGATE_SIGN_INFO
        31 020635   000000 011000                    NOP     0

     3648    26923
     3649    26924    4      IF CDECL$ -> LX_REC_DECL.P.RENAMES$ ~= ADDR(NIL) THEN

  26924 31 020636   000160 470400 0                  LDP0    CDECL$
        31 020637   000006 236100                    LDQ     6,,PR0
        31 020640   000000 116000 32                 CMPQ    0
        31 020641   020646 600000 31                 TZE     s:26930

     3650    26925    5        DO;

     3651    26926    5          CALL PROCESS_RENAMES;

  26926 31 020642   023301 701000 31                 TSX1    PROCESS_RENAMES
        31 020643   000000 011000                    NOP     0

     3652    26927    5          RETURN;

  26927 31 020644   000467 221200 0                  LDX1  ! TA+2
        31 020645   000001 702211                    TSX2  ! 1,X1

PL6.E3A0      #001=Z8DR$RECORD_DECL File=Z8DR.:Z8A6TSI                           SAT 08/09/97 11:18 Page:635
     3653    26928    5        END;
     3654    26929
     3655    26930    4      IF NOT O1COM.DATA_DECL_CONTEXT = %LINKAGE_SECTION

  26930 31 020646   000015 235000 xsym               LDA     O1COM+13
        31 020647   000004 115007                    CMPA    4,DL
        31 020650   020656 600000 31                 TZE     s:26934
        31 020651   000015 236100                    LDQ     13,,PR0
        31 020652   000000 116000 32                 CMPQ    0
        31 020653   020656 601000 31                 TNZ     s:26934

     3656    26931    4      AND CDECL$ -> LX_REC_DECL.P.EXTERNAL$ = ADDR(NIL) THEN
     3657    26932    4        CALL CHECK_TYPE_OPTIMIZATIONS;

  26932 31 020654   020604 701000 31                 TSX1    CHECK_TYPE_OPTIMIZATIONS
        31 020655   000000 011000                    NOP     0

     3658    26933
     3659    26934    5      DO CASE (REDUCED_DATA.USAGE.TYPE);

  26934 31 020656   000033 235000 0                  LDA     REDUCED_DATA
        31 020657   000523 115007                    CMPA    339,DL
        31 020660   020662 602005 31                 TNC     s:26934+4,AL
        31 020661   021663 710000 31                 TRA     s:27111
        31 020662   021555 710000 31                 TRA     s:27052
        31 020663   021663 710000 31                 TRA     s:27111
        31 020664   021663 710000 31                 TRA     s:27111
        31 020665   021663 710000 31                 TRA     s:27111
        31 020666   021663 710000 31                 TRA     s:27111
        31 020667   021663 710000 31                 TRA     s:27111
        31 020670   021663 710000 31                 TRA     s:27111
        31 020671   021663 710000 31                 TRA     s:27111
        31 020672   021663 710000 31                 TRA     s:27111
        31 020673   021663 710000 31                 TRA     s:27111
        31 020674   021663 710000 31                 TRA     s:27111
        31 020675   021663 710000 31                 TRA     s:27111
        31 020676   021663 710000 31                 TRA     s:27111
PL6.E3A0      #001=Z8DR$RECORD_DECL File=Z8DR.:Z8A6TSI                           SAT 08/09/97 11:18 Page:636
        31 020677   021663 710000 31                 TRA     s:27111
        31 020700   021663 710000 31                 TRA     s:27111
        31 020701   021663 710000 31                 TRA     s:27111
        31 020702   021663 710000 31                 TRA     s:27111
        31 020703   021663 710000 31                 TRA     s:27111
        31 020704   021663 710000 31                 TRA     s:27111
        31 020705   021663 710000 31                 TRA     s:27111
        31 020706   021663 710000 31                 TRA     s:27111
        31 020707   021663 710000 31                 TRA     s:27111
        31 020710   021663 710000 31                 TRA     s:27111
        31 020711   021663 710000 31                 TRA     s:27111
        31 020712   021663 710000 31                 TRA     s:27111
        31 020713   021663 710000 31                 TRA     s:27111
        31 020714   021663 710000 31                 TRA     s:27111
        31 020715   021663 710000 31                 TRA     s:27111
        31 020716   021663 710000 31                 TRA     s:27111
        31 020717   021663 710000 31                 TRA     s:27111
        31 020720   021663 710000 31                 TRA     s:27111
        31 020721   021663 710000 31                 TRA     s:27111
        31 020722   021663 710000 31                 TRA     s:27111
        31 020723   021663 710000 31                 TRA     s:27111
        31 020724   021663 710000 31                 TRA     s:27111
        31 020725   021663 710000 31                 TRA     s:27111
        31 020726   021663 710000 31                 TRA     s:27111
        31 020727   021663 710000 31                 TRA     s:27111
        31 020730   021663 710000 31                 TRA     s:27111
        31 020731   021663 710000 31                 TRA     s:27111
        31 020732   021663 710000 31                 TRA     s:27111
        31 020733   021663 710000 31                 TRA     s:27111
        31 020734   021663 710000 31                 TRA     s:27111
        31 020735   021663 710000 31                 TRA     s:27111
        31 020736   021663 710000 31                 TRA     s:27111
        31 020737   021663 710000 31                 TRA     s:27111
        31 020740   021663 710000 31                 TRA     s:27111
        31 020741   021663 710000 31                 TRA     s:27111
        31 020742   021663 710000 31                 TRA     s:27111
        31 020743   021663 710000 31                 TRA     s:27111
PL6.E3A0      #001=Z8DR$RECORD_DECL File=Z8DR.:Z8A6TSI                           SAT 08/09/97 11:18 Page:637
        31 020744   021663 710000 31                 TRA     s:27111
        31 020745   021663 710000 31                 TRA     s:27111
        31 020746   021663 710000 31                 TRA     s:27111
        31 020747   021663 710000 31                 TRA     s:27111
        31 020750   021663 710000 31                 TRA     s:27111
        31 020751   021663 710000 31                 TRA     s:27111
        31 020752   021663 710000 31                 TRA     s:27111
        31 020753   021663 710000 31                 TRA     s:27111
        31 020754   021663 710000 31                 TRA     s:27111
        31 020755   021663 710000 31                 TRA     s:27111
        31 020756   021663 710000 31                 TRA     s:27111
        31 020757   021663 710000 31                 TRA     s:27111
        31 020760   021663 710000 31                 TRA     s:27111
        31 020761   021663 710000 31                 TRA     s:27111
        31 020762   021663 710000 31                 TRA     s:27111
        31 020763   021663 710000 31                 TRA     s:27111
        31 020764   021663 710000 31                 TRA     s:27111
        31 020765   021663 710000 31                 TRA     s:27111
        31 020766   021663 710000 31                 TRA     s:27111
        31 020767   021663 710000 31                 TRA     s:27111
        31 020770   021663 710000 31                 TRA     s:27111
        31 020771   021663 710000 31                 TRA     s:27111
        31 020772   021663 710000 31                 TRA     s:27111
        31 020773   021663 710000 31                 TRA     s:27111
        31 020774   021663 710000 31                 TRA     s:27111
        31 020775   021663 710000 31                 TRA     s:27111
        31 020776   021663 710000 31                 TRA     s:27111
        31 020777   021663 710000 31                 TRA     s:27111
        31 021000   021663 710000 31                 TRA     s:27111
        31 021001   021663 710000 31                 TRA     s:27111
        31 021002   021663 710000 31                 TRA     s:27111
        31 021003   021663 710000 31                 TRA     s:27111
        31 021004   021663 710000 31                 TRA     s:27111
        31 021005   021663 710000 31                 TRA     s:27111
        31 021006   021663 710000 31                 TRA     s:27111
        31 021007   021663 710000 31                 TRA     s:27111
        31 021010   021663 710000 31                 TRA     s:27111
PL6.E3A0      #001=Z8DR$RECORD_DECL File=Z8DR.:Z8A6TSI                           SAT 08/09/97 11:18 Page:638
        31 021011   021663 710000 31                 TRA     s:27111
        31 021012   021663 710000 31                 TRA     s:27111
        31 021013   021663 710000 31                 TRA     s:27111
        31 021014   021663 710000 31                 TRA     s:27111
        31 021015   021663 710000 31                 TRA     s:27111
        31 021016   021663 710000 31                 TRA     s:27111
        31 021017   021405 710000 31                 TRA     s:26937
        31 021020   021421 710000 31                 TRA     s:26945
        31 021021   021524 710000 31                 TRA     s:27020
        31 021022   021536 710000 31                 TRA     s:27034
        31 021023   021524 710000 31                 TRA     s:27020
        31 021024   021536 710000 31                 TRA     s:27034
        31 021025   021443 710000 31                 TRA     s:26964
        31 021026   021414 710000 31                 TRA     s:26942
        31 021027   021465 710000 31                 TRA     s:26983
        31 021030   021405 710000 31                 TRA     s:26937
        31 021031   021476 710000 31                 TRA     s:26990
        31 021032   021510 710000 31                 TRA     s:27004
        31 021033   021465 710000 31                 TRA     s:26983
        31 021034   021663 710000 31                 TRA     s:27111
        31 021035   021663 710000 31                 TRA     s:27111
        31 021036   021663 710000 31                 TRA     s:27111
        31 021037   021663 710000 31                 TRA     s:27111
        31 021040   021663 710000 31                 TRA     s:27111
        31 021041   021663 710000 31                 TRA     s:27111
        31 021042   021663 710000 31                 TRA     s:27111
        31 021043   021663 710000 31                 TRA     s:27111
        31 021044   021663 710000 31                 TRA     s:27111
        31 021045   021663 710000 31                 TRA     s:27111
        31 021046   021663 710000 31                 TRA     s:27111
        31 021047   021663 710000 31                 TRA     s:27111
        31 021050   021663 710000 31                 TRA     s:27111
        31 021051   021663 710000 31                 TRA     s:27111
        31 021052   021663 710000 31                 TRA     s:27111
        31 021053   021663 710000 31                 TRA     s:27111
        31 021054   021663 710000 31                 TRA     s:27111
        31 021055   021663 710000 31                 TRA     s:27111
PL6.E3A0      #001=Z8DR$RECORD_DECL File=Z8DR.:Z8A6TSI                           SAT 08/09/97 11:18 Page:639
        31 021056   021663 710000 31                 TRA     s:27111
        31 021057   021663 710000 31                 TRA     s:27111
        31 021060   021663 710000 31                 TRA     s:27111
        31 021061   021663 710000 31                 TRA     s:27111
        31 021062   021663 710000 31                 TRA     s:27111
        31 021063   021663 710000 31                 TRA     s:27111
        31 021064   021637 710000 31                 TRA     s:27082
        31 021065   021663 710000 31                 TRA     s:27111
        31 021066   021663 710000 31                 TRA     s:27111
        31 021067   021663 710000 31                 TRA     s:27111
        31 021070   021663 710000 31                 TRA     s:27111
        31 021071   021663 710000 31                 TRA     s:27111
        31 021072   021663 710000 31                 TRA     s:27111
        31 021073   021663 710000 31                 TRA     s:27111
        31 021074   021663 710000 31                 TRA     s:27111
        31 021075   021663 710000 31                 TRA     s:27111
        31 021076   021663 710000 31                 TRA     s:27111
        31 021077   021663 710000 31                 TRA     s:27111
        31 021100   021663 710000 31                 TRA     s:27111
        31 021101   021663 710000 31                 TRA     s:27111
        31 021102   021663 710000 31                 TRA     s:27111
        31 021103   021663 710000 31                 TRA     s:27111
        31 021104   021663 710000 31                 TRA     s:27111
        31 021105   021663 710000 31                 TRA     s:27111
        31 021106   021663 710000 31                 TRA     s:27111
        31 021107   021663 710000 31                 TRA     s:27111
        31 021110   021663 710000 31                 TRA     s:27111
        31 021111   021663 710000 31                 TRA     s:27111
        31 021112   021663 710000 31                 TRA     s:27111
        31 021113   021663 710000 31                 TRA     s:27111
        31 021114   021663 710000 31                 TRA     s:27111
        31 021115   021663 710000 31                 TRA     s:27111
        31 021116   021663 710000 31                 TRA     s:27111
        31 021117   021663 710000 31                 TRA     s:27111
        31 021120   021555 710000 31                 TRA     s:27052
        31 021121   021663 710000 31                 TRA     s:27111
        31 021122   021663 710000 31                 TRA     s:27111
PL6.E3A0      #001=Z8DR$RECORD_DECL File=Z8DR.:Z8A6TSI                           SAT 08/09/97 11:18 Page:640
        31 021123   021663 710000 31                 TRA     s:27111
        31 021124   021663 710000 31                 TRA     s:27111
        31 021125   021663 710000 31                 TRA     s:27111
        31 021126   021663 710000 31                 TRA     s:27111
        31 021127   021663 710000 31                 TRA     s:27111
        31 021130   021663 710000 31                 TRA     s:27111
        31 021131   021663 710000 31                 TRA     s:27111
        31 021132   021663 710000 31                 TRA     s:27111
        31 021133   021663 710000 31                 TRA     s:27111
        31 021134   021663 710000 31                 TRA     s:27111
        31 021135   021663 710000 31                 TRA     s:27111
        31 021136   021663 710000 31                 TRA     s:27111
        31 021137   021663 710000 31                 TRA     s:27111
        31 021140   021663 710000 31                 TRA     s:27111
        31 021141   021663 710000 31                 TRA     s:27111
        31 021142   021663 710000 31                 TRA     s:27111
        31 021143   021663 710000 31                 TRA     s:27111
        31 021144   021663 710000 31                 TRA     s:27111
        31 021145   021663 710000 31                 TRA     s:27111
        31 021146   021663 710000 31                 TRA     s:27111
        31 021147   021663 710000 31                 TRA     s:27111
        31 021150   021663 710000 31                 TRA     s:27111
        31 021151   021663 710000 31                 TRA     s:27111
        31 021152   021663 710000 31                 TRA     s:27111
        31 021153   021663 710000 31                 TRA     s:27111
        31 021154   021663 710000 31                 TRA     s:27111
        31 021155   021663 710000 31                 TRA     s:27111
        31 021156   021663 710000 31                 TRA     s:27111
        31 021157   021663 710000 31                 TRA     s:27111
        31 021160   021663 710000 31                 TRA     s:27111
        31 021161   021663 710000 31                 TRA     s:27111
        31 021162   021663 710000 31                 TRA     s:27111
        31 021163   021663 710000 31                 TRA     s:27111
        31 021164   021663 710000 31                 TRA     s:27111
        31 021165   021663 710000 31                 TRA     s:27111
        31 021166   021663 710000 31                 TRA     s:27111
        31 021167   021663 710000 31                 TRA     s:27111
PL6.E3A0      #001=Z8DR$RECORD_DECL File=Z8DR.:Z8A6TSI                           SAT 08/09/97 11:18 Page:641
        31 021170   021663 710000 31                 TRA     s:27111
        31 021171   021663 710000 31                 TRA     s:27111
        31 021172   021663 710000 31                 TRA     s:27111
        31 021173   021663 710000 31                 TRA     s:27111
        31 021174   021663 710000 31                 TRA     s:27111
        31 021175   021663 710000 31                 TRA     s:27111
        31 021176   021663 710000 31                 TRA     s:27111
        31 021177   021663 710000 31                 TRA     s:27111
        31 021200   021663 710000 31                 TRA     s:27111
        31 021201   021663 710000 31                 TRA     s:27111
        31 021202   021663 710000 31                 TRA     s:27111
        31 021203   021663 710000 31                 TRA     s:27111
        31 021204   021663 710000 31                 TRA     s:27111
        31 021205   021663 710000 31                 TRA     s:27111
        31 021206   021663 710000 31                 TRA     s:27111
        31 021207   021663 710000 31                 TRA     s:27111
        31 021210   021663 710000 31                 TRA     s:27111
        31 021211   021663 710000 31                 TRA     s:27111
        31 021212   021663 710000 31                 TRA     s:27111
        31 021213   021663 710000 31                 TRA     s:27111
        31 021214   021555 710000 31                 TRA     s:27052
        31 021215   021663 710000 31                 TRA     s:27111
        31 021216   021663 710000 31                 TRA     s:27111
        31 021217   021663 710000 31                 TRA     s:27111
        31 021220   021663 710000 31                 TRA     s:27111
        31 021221   021663 710000 31                 TRA     s:27111
        31 021222   021663 710000 31                 TRA     s:27111
        31 021223   021663 710000 31                 TRA     s:27111
        31 021224   021663 710000 31                 TRA     s:27111
        31 021225   021663 710000 31                 TRA     s:27111
        31 021226   021663 710000 31                 TRA     s:27111
        31 021227   021663 710000 31                 TRA     s:27111
        31 021230   021663 710000 31                 TRA     s:27111
        31 021231   021663 710000 31                 TRA     s:27111
        31 021232   021663 710000 31                 TRA     s:27111
        31 021233   021663 710000 31                 TRA     s:27111
        31 021234   021663 710000 31                 TRA     s:27111
PL6.E3A0      #001=Z8DR$RECORD_DECL File=Z8DR.:Z8A6TSI                           SAT 08/09/97 11:18 Page:642
        31 021235   021663 710000 31                 TRA     s:27111
        31 021236   021663 710000 31                 TRA     s:27111
        31 021237   021663 710000 31                 TRA     s:27111
        31 021240   021663 710000 31                 TRA     s:27111
        31 021241   021663 710000 31                 TRA     s:27111
        31 021242   021663 710000 31                 TRA     s:27111
        31 021243   021663 710000 31                 TRA     s:27111
        31 021244   021663 710000 31                 TRA     s:27111
        31 021245   021663 710000 31                 TRA     s:27111
        31 021246   021663 710000 31                 TRA     s:27111
        31 021247   021550 710000 31                 TRA     s:27048
        31 021250   021663 710000 31                 TRA     s:27111
        31 021251   021663 710000 31                 TRA     s:27111
        31 021252   021663 710000 31                 TRA     s:27111
        31 021253   021663 710000 31                 TRA     s:27111
        31 021254   021663 710000 31                 TRA     s:27111
        31 021255   021663 710000 31                 TRA     s:27111
        31 021256   021663 710000 31                 TRA     s:27111
        31 021257   021663 710000 31                 TRA     s:27111
        31 021260   021663 710000 31                 TRA     s:27111
        31 021261   021663 710000 31                 TRA     s:27111
        31 021262   021663 710000 31                 TRA     s:27111
        31 021263   021663 710000 31                 TRA     s:27111
        31 021264   021663 710000 31                 TRA     s:27111
        31 021265   021663 710000 31                 TRA     s:27111
        31 021266   021663 710000 31                 TRA     s:27111
        31 021267   021663 710000 31                 TRA     s:27111
        31 021270   021663 710000 31                 TRA     s:27111
        31 021271   021663 710000 31                 TRA     s:27111
        31 021272   021663 710000 31                 TRA     s:27111
        31 021273   021663 710000 31                 TRA     s:27111
        31 021274   021663 710000 31                 TRA     s:27111
        31 021275   021663 710000 31                 TRA     s:27111
        31 021276   021663 710000 31                 TRA     s:27111
        31 021277   021663 710000 31                 TRA     s:27111
        31 021300   021663 710000 31                 TRA     s:27111
        31 021301   021663 710000 31                 TRA     s:27111
PL6.E3A0      #001=Z8DR$RECORD_DECL File=Z8DR.:Z8A6TSI                           SAT 08/09/97 11:18 Page:643
        31 021302   021663 710000 31                 TRA     s:27111
        31 021303   021663 710000 31                 TRA     s:27111
        31 021304   021663 710000 31                 TRA     s:27111
        31 021305   021663 710000 31                 TRA     s:27111
        31 021306   021663 710000 31                 TRA     s:27111
        31 021307   021663 710000 31                 TRA     s:27111
        31 021310   021663 710000 31                 TRA     s:27111
        31 021311   021663 710000 31                 TRA     s:27111
        31 021312   021663 710000 31                 TRA     s:27111
        31 021313   021663 710000 31                 TRA     s:27111
        31 021314   021663 710000 31                 TRA     s:27111
        31 021315   021663 710000 31                 TRA     s:27111
        31 021316   021663 710000 31                 TRA     s:27111
        31 021317   021663 710000 31                 TRA     s:27111
        31 021320   021663 710000 31                 TRA     s:27111
        31 021321   021663 710000 31                 TRA     s:27111
        31 021322   021663 710000 31                 TRA     s:27111
        31 021323   021663 710000 31                 TRA     s:27111
        31 021324   021663 710000 31                 TRA     s:27111
        31 021325   021663 710000 31                 TRA     s:27111
        31 021326   021663 710000 31                 TRA     s:27111
        31 021327   021663 710000 31                 TRA     s:27111
        31 021330   021663 710000 31                 TRA     s:27111
        31 021331   021663 710000 31                 TRA     s:27111
        31 021332   021663 710000 31                 TRA     s:27111
        31 021333   021663 710000 31                 TRA     s:27111
        31 021334   021663 710000 31                 TRA     s:27111
        31 021335   021663 710000 31                 TRA     s:27111
        31 021336   021663 710000 31                 TRA     s:27111
        31 021337   021663 710000 31                 TRA     s:27111
        31 021340   021663 710000 31                 TRA     s:27111
        31 021341   021663 710000 31                 TRA     s:27111
        31 021342   021663 710000 31                 TRA     s:27111
        31 021343   021663 710000 31                 TRA     s:27111
        31 021344   021663 710000 31                 TRA     s:27111
        31 021345   021663 710000 31                 TRA     s:27111
        31 021346   021663 710000 31                 TRA     s:27111
PL6.E3A0      #001=Z8DR$RECORD_DECL File=Z8DR.:Z8A6TSI                           SAT 08/09/97 11:18 Page:644
        31 021347   021663 710000 31                 TRA     s:27111
        31 021350   021663 710000 31                 TRA     s:27111
        31 021351   021663 710000 31                 TRA     s:27111
        31 021352   021663 710000 31                 TRA     s:27111
        31 021353   021663 710000 31                 TRA     s:27111
        31 021354   021663 710000 31                 TRA     s:27111
        31 021355   021663 710000 31                 TRA     s:27111
        31 021356   021663 710000 31                 TRA     s:27111
        31 021357   021663 710000 31                 TRA     s:27111
        31 021360   021663 710000 31                 TRA     s:27111
        31 021361   021663 710000 31                 TRA     s:27111
        31 021362   021663 710000 31                 TRA     s:27111
        31 021363   021663 710000 31                 TRA     s:27111
        31 021364   021663 710000 31                 TRA     s:27111
        31 021365   021663 710000 31                 TRA     s:27111
        31 021366   021663 710000 31                 TRA     s:27111
        31 021367   021663 710000 31                 TRA     s:27111
        31 021370   021663 710000 31                 TRA     s:27111
        31 021371   021663 710000 31                 TRA     s:27111
        31 021372   021663 710000 31                 TRA     s:27111
        31 021373   021663 710000 31                 TRA     s:27111
        31 021374   021663 710000 31                 TRA     s:27111
        31 021375   021663 710000 31                 TRA     s:27111
        31 021376   021663 710000 31                 TRA     s:27111
        31 021377   021663 710000 31                 TRA     s:27111
        31 021400   021663 710000 31                 TRA     s:27111
        31 021401   021663 710000 31                 TRA     s:27111
        31 021402   021663 710000 31                 TRA     s:27111
        31 021403   021663 710000 31                 TRA     s:27111
        31 021404   021653 710000 31                 TRA     s:27097

     3660    26935
     3661    26936    5        CASE(%RSV_WRD_COMP, %RSV_WRD_COMP_5);

     3662    26937    5          CALL PROCESS_NDSC4_PIC (REDUCED_DATA.DESC);

  26937 31 021405   000465 236000 32                 LDQ     309
PL6.E3A0      #001=Z8DR$RECORD_DECL File=Z8DR.:Z8A6TSI                           SAT 08/09/97 11:18 Page:645
        31 021406   000444 756000 0                  STQ     @OUT
        31 021407   017436 701000 31                 TSX1    PROCESS_NDSC4_PIC
        31 021410   000000 011000                    NOP     0

     3663    26938
     3664    26939    5          REDUCED_DATA.B.P = TRUE;

  26939 31 021411   040000 236007                    LDQ     16384,DL
        31 021412   000060 256000 0                  ORSQ    REDUCED_DATA+21
        31 021413   021667 710000 31                 TRA     s:27116

     3665    26940
     3666    26941    5        CASE(%RSV_WRD_COMP_3);

     3667    26942    5          CALL PROCESS_NDSC4_PIC (REDUCED_DATA.DESC);

  26942 31 021414   000465 236000 32                 LDQ     309
        31 021415   000444 756000 0                  STQ     @OUT
        31 021416   017436 701000 31                 TSX1    PROCESS_NDSC4_PIC
        31 021417   000000 011000                    NOP     0
        31 021420   021667 710000 31                 TRA     s:27116

     3668    26943
     3669    26944    5        CASE(%RSV_WRD_COMP_1);

     3670    26945    5          IF CDECL$ -> LX_REC_DECL.P.SYNC$ ~= ADDR(NIL) THEN

  26945 31 021421   000160 470400 0                  LDP0    CDECL$
        31 021422   000014 236100                    LDQ     12,,PR0
        31 021423   000000 116000 32                 CMPQ    0
        31 021424   021427 600000 31                 TZE     s:26948

     3671    26946    5            REDUCED_DATA.B.SYNC = TRUE;

  26946 31 021425   000040 236003                    LDQ     32,DU
        31 021426   000060 256000 0                  ORSQ    REDUCED_DATA+21

PL6.E3A0      #001=Z8DR$RECORD_DECL File=Z8DR.:Z8A6TSI                           SAT 08/09/97 11:18 Page:646
     3672    26947
     3673    26948    5          REDUCED_DATA.TYPE        = %TYJ;

  26948 31 021427   000002 236007                    LDQ     2,DL
        31 021430   000056 756000 0                  STQ     REDUCED_DATA+19

     3674    26949    5          REDUCED_DATA.B.CLASS    = %CLASS_NUMERIC;

  26949 31 021431   000060 236000 0                  LDQ     REDUCED_DATA+21
        31 021432   000457 376000 32                 ANQ     303
        31 021433   200000 276007                    ORQ     65536,DL
        31 021434   000060 756000 0                  STQ     REDUCED_DATA+21

     3675    26950
     3676    26951               %BUILD_BINARY_DESC (@LENGTH = %TYJ_LENGTH,
     3677    26952                                   @DESC   = REDUCED_DATA.DESC);

  26956 31 021435   000057 450000 0                  STZ     REDUCED_DATA+20

  26957 31 021436   000002 236007                    LDQ     2,DL
        31 021437   000057 752001 0                  STCQ    REDUCED_DATA+20,'01'O

     3678    26960
     3679    26961    5          CALL CHECK_TYPE_OPTIMIZATIONS;

  26961 31 021440   020604 701000 31                 TSX1    CHECK_TYPE_OPTIMIZATIONS
        31 021441   000000 011000                    NOP     0
        31 021442   021667 710000 31                 TRA     s:27116

     3680    26962
     3681    26963    5        CASE(%RSV_WRD_COMP_2);

     3682    26964    5          IF CDECL$ -> LX_REC_DECL.P.SYNC$ ~= ADDR(NIL) THEN

  26964 31 021443   000160 470400 0                  LDP0    CDECL$
        31 021444   000014 236100                    LDQ     12,,PR0
        31 021445   000000 116000 32                 CMPQ    0
PL6.E3A0      #001=Z8DR$RECORD_DECL File=Z8DR.:Z8A6TSI                           SAT 08/09/97 11:18 Page:647
        31 021446   021451 600000 31                 TZE     s:26967

     3683    26965    5            REDUCED_DATA.B.SYNC = TRUE;

  26965 31 021447   000040 236003                    LDQ     32,DU
        31 021450   000060 256000 0                  ORSQ    REDUCED_DATA+21

     3684    26966
     3685    26967    5          REDUCED_DATA.TYPE        = %TYK;

  26967 31 021451   000017 236007                    LDQ     15,DL
        31 021452   000056 756000 0                  STQ     REDUCED_DATA+19

     3686    26968    5          REDUCED_DATA.B.CLASS    = %CLASS_NUMERIC;

  26968 31 021453   000060 236000 0                  LDQ     REDUCED_DATA+21
        31 021454   000457 376000 32                 ANQ     303
        31 021455   200000 276007                    ORQ     65536,DL
        31 021456   000060 756000 0                  STQ     REDUCED_DATA+21

     3687    26969
     3688    26970               %BUILD_BINARY_DESC (@LENGTH = %TYK_LENGTH,
     3689    26971                                   @DESC   = REDUCED_DATA.DESC);

  26975 31 021457   000057 450000 0                  STZ     REDUCED_DATA+20

  26976 31 021460   000004 236007                    LDQ     4,DL
        31 021461   000057 752001 0                  STCQ    REDUCED_DATA+20,'01'O

     3690    26979
     3691    26980    5          CALL CHECK_TYPE_OPTIMIZATIONS;

  26980 31 021462   020604 701000 31                 TSX1    CHECK_TYPE_OPTIMIZATIONS
        31 021463   000000 011000                    NOP     0
        31 021464   021667 710000 31                 TRA     s:27116

     3692    26981
PL6.E3A0      #001=Z8DR$RECORD_DECL File=Z8DR.:Z8A6TSI                           SAT 08/09/97 11:18 Page:648
     3693    26982    5        CASE(%RSV_WRD_COMP_4, %RSV_WRD_COMP_8);

     3694    26983    5          REDUCED_DATA.B.DIGIT   = TRUE;

  26983 31 021465   000100 236003                    LDQ     64,DU
        31 021466   000060 256000 0                  ORSQ    REDUCED_DATA+21

     3695    26984
     3696    26985    5          CALL PROCESS_NDSC4_PIC (REDUCED_DATA.DESC);

  26985 31 021467   000465 236000 32                 LDQ     309
        31 021470   000444 756000 0                  STQ     @OUT
        31 021471   017436 701000 31                 TSX1    PROCESS_NDSC4_PIC
        31 021472   000000 011000                    NOP     0

     3697    26986
     3698    26987    5          REDUCED_DATA.B.P = TRUE;

  26987 31 021473   040000 236007                    LDQ     16384,DL
        31 021474   000060 256000 0                  ORSQ    REDUCED_DATA+21
        31 021475   021667 710000 31                 TRA     s:27116

     3699    26988
     3700    26989    5        CASE(%RSV_WRD_COMP_6);

     3701    26990    5          REDUCED_DATA.TYPE        = %TYI;

  26990 31 021476   000001 236007                    LDQ     1,DL
        31 021477   000056 756000 0                  STQ     REDUCED_DATA+19

     3702    26991    5          REDUCED_DATA.B.CLASS    = %CLASS_NUMERIC;

  26991 31 021500   000060 236000 0                  LDQ     REDUCED_DATA+21
        31 021501   000457 376000 32                 ANQ     303
        31 021502   200000 276007                    ORQ     65536,DL
        31 021503   000060 756000 0                  STQ     REDUCED_DATA+21

PL6.E3A0      #001=Z8DR$RECORD_DECL File=Z8DR.:Z8A6TSI                           SAT 08/09/97 11:18 Page:649
     3703    26992
     3704    26993               %BUILD_BINARY_DESC (@LENGTH = %TYI_LENGTH,
     3705    26994                                   @DESC   = REDUCED_DATA.DESC);

  26998 31 021504   000057 450000 0                  STZ     REDUCED_DATA+20

  26999 31 021505   000004 236007                    LDQ     4,DL
        31 021506   000057 752001 0                  STCQ    REDUCED_DATA+20,'01'O

  27000 31 021507   021667 710000 31                 TRA     s:27116

     3706    27002
     3707    27003    5        CASE(%RSV_WRD_COMP_7);

     3708    27004    5          REDUCED_DATA.TYPE        = %TYH;

  27004 31 021510   000007 236007                    LDQ     7,DL
        31 021511   000056 756000 0                  STQ     REDUCED_DATA+19

     3709    27005    5          REDUCED_DATA.B.CLASS     = %CLASS_NUMERIC;

  27005 31 021512   000060 236000 0                  LDQ     REDUCED_DATA+21
        31 021513   000457 376000 32                 ANQ     303
        31 021514   200000 276007                    ORQ     65536,DL
        31 021515   000060 756000 0                  STQ     REDUCED_DATA+21

     3710    27006
     3711    27007               %BUILD_BINARY_DESC (@LENGTH = %TYH_LENGTH,
     3712    27008                                   @DESC   = REDUCED_DATA.DESC);

  27012 31 021516   000057 450000 0                  STZ     REDUCED_DATA+20

  27013 31 021517   000002 236007                    LDQ     2,DL
        31 021520   000057 752001 0                  STCQ    REDUCED_DATA+20,'01'O

     3713    27016    5          CALL CHECK_TYPE_OPTIMIZATIONS;

PL6.E3A0      #001=Z8DR$RECORD_DECL File=Z8DR.:Z8A6TSI                           SAT 08/09/97 11:18 Page:650
  27016 31 021521   020604 701000 31                 TSX1    CHECK_TYPE_OPTIMIZATIONS
        31 021522   000000 011000                    NOP     0
        31 021523   021667 710000 31                 TRA     s:27116

     3714    27017
     3715    27018
     3716    27019    5        CASE(%RSV_WRD_COMP_11, %RSV_WRD_COMP_13);

     3717    27020    5          REDUCED_DATA.TYPE        = %TYR;

  27020 31 021524   000004 236007                    LDQ     4,DL
        31 021525   000056 756000 0                  STQ     REDUCED_DATA+19

     3718    27021    5          REDUCED_DATA.B.CLASS    = %CLASS_NUMERIC;

  27021 31 021526   000060 236000 0                  LDQ     REDUCED_DATA+21
        31 021527   000457 376000 32                 ANQ     303
        31 021530   200000 276007                    ORQ     65536,DL
        31 021531   000060 756000 0                  STQ     REDUCED_DATA+21

     3719    27022
     3720    27023               %BUILD_BINARY_DESC (@LENGTH = %TYR_LENGTH,
     3721    27024                                   @DESC   = REDUCED_DATA.DESC);

  27028 31 021532   000057 450000 0                  STZ     REDUCED_DATA+20

  27029 31 021533   000004 236007                    LDQ     4,DL
        31 021534   000057 752001 0                  STCQ    REDUCED_DATA+20,'01'O

  27030 31 021535   021667 710000 31                 TRA     s:27116

     3722    27032
     3723    27033    5        CASE(%RSV_WRD_COMP_12, %RSV_WRD_COMP_14);

     3724    27034    5          REDUCED_DATA.TYPE        = %TYQ;

  27034 31 021536   000005 236007                    LDQ     5,DL
PL6.E3A0      #001=Z8DR$RECORD_DECL File=Z8DR.:Z8A6TSI                           SAT 08/09/97 11:18 Page:651
        31 021537   000056 756000 0                  STQ     REDUCED_DATA+19

     3725    27035    5          REDUCED_DATA.B.CLASS    = %CLASS_NUMERIC;

  27035 31 021540   000060 236000 0                  LDQ     REDUCED_DATA+21
        31 021541   000457 376000 32                 ANQ     303
        31 021542   200000 276007                    ORQ     65536,DL
        31 021543   000060 756000 0                  STQ     REDUCED_DATA+21

     3726    27036
     3727    27037               %BUILD_BINARY_DESC (@LENGTH = %TYQ_LENGTH,
     3728    27038                                   @DESC   = REDUCED_DATA.DESC);

  27042 31 021544   000057 450000 0                  STZ     REDUCED_DATA+20

  27043 31 021545   000010 236007                    LDQ     8,DL
        31 021546   000057 752001 0                  STCQ    REDUCED_DATA+20,'01'O

  27044 31 021547   021667 710000 31                 TRA     s:27116

     3729    27046
     3730    27047    5        CASE(%RSV_WRD_INDEX);

     3731    27048    5          CALL CHECK_TYPE_OPTIMIZATIONS;

  27048 31 021550   020604 701000 31                 TSX1    CHECK_TYPE_OPTIMIZATIONS
        31 021551   000000 011000                    NOP     0

     3732    27049    5          REDUCED_DATA.B.CLASS = %CLASS_UNDEFINED;

  27049 31 021552   000457 236000 32                 LDQ     303
        31 021553   000060 356000 0                  ANSQ    REDUCED_DATA+21
        31 021554   021667 710000 31                 TRA     s:27116

     3733    27050
     3734    27051    5        CASE(%NO_USAGE, %RSV_WRD_GBCD, %RSV_WRD_EBCDIC);

PL6.E3A0      #001=Z8DR$RECORD_DECL File=Z8DR.:Z8A6TSI                           SAT 08/09/97 11:18 Page:652
     3735    27052    5          IF REDUCED_DATA.B.ELEMENTARY THEN

  27052 31 021555   000060 234000 0                  SZN     REDUCED_DATA+21
        31 021556   021630 605000 31                 TPL     s:27078

     3736    27053    6            DO;

     3737    27054    6              CALL USAGE_DISPLAY;

  27054 31 021557   017767 701000 31                 TSX1    USAGE_DISPLAY
        31 021560   000000 011000                    NOP     0

     3738    27055    6              IF REDUCED_DATA.USAGE.TYPE = %RSV_WRD_GBCD THEN

  27055 31 021561   000033 235000 0                  LDA     REDUCED_DATA
        31 021562   000332 115007                    CMPA    218,DL
        31 021563   021605 601000 31                 TNZ     s:27066

     3739    27056    7                DO;

     3740    27057    7                IF REDUCED_DATA.B.CLASS = %CLASS_NUMERIC THEN

  27057 31 021564   000060 236000 0                  LDQ     REDUCED_DATA+21
        31 021565   000460 376000 32                 ANQ     304
        31 021566   200000 116007                    CMPQ    65536,DL
        31 021567   021602 601000 31                 TNZ     s:27064

     3741    27058    8                  DO;

     3742    27059    8                    REDUCED_DATA.TYPE = %TYC;

  27059 31 021570   000023 235007                    LDA     19,DL
        31 021571   000056 755000 0                  STA     REDUCED_DATA+19

     3743    27060    8                    IF REDUCED_DATA.B.SIGN_FOUND AND

  27060 31 021572   000060 236000 0                  LDQ     REDUCED_DATA+21
PL6.E3A0      #001=Z8DR$RECORD_DECL File=Z8DR.:Z8A6TSI                           SAT 08/09/97 11:18 Page:653
        31 021573   100000 316003                    CANQ    32768,DU
        31 021574   021667 600000 31                 TZE     s:27116
        31 021575   000040 235000 0                  LDA     REDUCED_DATA+5
        31 021576   021667 601000 31                 TNZ     s:27116

     3744    27061    8                        REDUCED_DATA.SIGN.TYPE = %SIGN_TYPE_OVERPUNCH THEN
     3745    27062    8                      REDUCED_DATA.DESC.NDSC.TN = %NDSC4;
             27062                               /* Flag for GBCD overpunched */

  27062 31 021577   040000 236007                    LDQ     16384,DL
        31 021600   000057 256000 0                  ORSQ    REDUCED_DATA+20

     3746    27063    8                  END;

  27063 31 021601   021667 710000 31                 TRA     s:27116

     3747    27064    7                ELSE REDUCED_DATA.TYPE = %TYB;

  27064 31 021602   000014 235007                    LDA     12,DL
        31 021603   000056 755000 0                  STA     REDUCED_DATA+19

     3748    27065    7                END;

  27065 31 021604   021667 710000 31                 TRA     s:27116

     3749    27066    6              ELSE IF REDUCED_DATA.USAGE.TYPE = %RSV_WRD_EBCDIC THEN

  27066 31 021605   000236 115007                    CMPA    158,DL
        31 021606   021667 601000 31                 TNZ     s:27116

     3750    27067    6                IF REDUCED_DATA.B.CLASS = %CLASS_NUMERIC THEN

  27067 31 021607   000060 236000 0                  LDQ     REDUCED_DATA+21
        31 021610   000460 376000 32                 ANQ     304
        31 021611   200000 116007                    CMPQ    65536,DL
        31 021612   021625 601000 31                 TNZ     s:27074

PL6.E3A0      #001=Z8DR$RECORD_DECL File=Z8DR.:Z8A6TSI                           SAT 08/09/97 11:18 Page:654
     3751    27068    7                  DO;

     3752    27069    7                    REDUCED_DATA.TYPE = %TYF;

  27069 31 021613   000013 235007                    LDA     11,DL
        31 021614   000056 755000 0                  STA     REDUCED_DATA+19

     3753    27070    7                    IF REDUCED_DATA.B.SIGN_FOUND AND

  27070 31 021615   000060 236000 0                  LDQ     REDUCED_DATA+21
        31 021616   100000 316003                    CANQ    32768,DU
        31 021617   021667 600000 31                 TZE     s:27116
        31 021620   000040 235000 0                  LDA     REDUCED_DATA+5
        31 021621   021667 601000 31                 TNZ     s:27116

     3754    27071    7                        REDUCED_DATA.SIGN.TYPE = %SIGN_TYPE_OVERPUNCH THEN
     3755    27072    7                      REDUCED_DATA.DESC.NDSC.TN = %NDSC4;
             27072                               /* Flag for EBCDIC overpunched */

  27072 31 021622   040000 236007                    LDQ     16384,DL
        31 021623   000057 256000 0                  ORSQ    REDUCED_DATA+20

     3756    27073    7                  END;

  27073 31 021624   021667 710000 31                 TRA     s:27116

     3757    27074    6                ELSE REDUCED_DATA.TYPE = %TYE;

  27074 31 021625   000006 235007                    LDA     6,DL
        31 021626   000056 755000 0                  STA     REDUCED_DATA+19

     3758    27075    6            END;

  27075 31 021627   021667 710000 31                 TRA     s:27116

     3759    27076    5          ELSE
     3760    27077    6            DO;
PL6.E3A0      #001=Z8DR$RECORD_DECL File=Z8DR.:Z8A6TSI                           SAT 08/09/97 11:18 Page:655

     3761    27078    6              REDUCED_DATA.B.CLASS = %CLASS_ALPHANUMERIC;

  27078 31 021630   000060 236000 0                  LDQ     REDUCED_DATA+21
        31 021631   000457 376000 32                 ANQ     303
        31 021632   600000 276007                    ORQ     -65536,DL
        31 021633   000060 756000 0                  STQ     REDUCED_DATA+21

     3762    27079    6              REDUCED_DATA.TYPE = %TYA;

  27079 31 021634   000010 235007                    LDA     8,DL
        31 021635   000056 755000 0                  STA     REDUCED_DATA+19

     3763    27080    6            END;

  27080 31 021636   021667 710000 31                 TRA     s:27116

     3764    27081    5        CASE(%RSV_WRD_DB_KEY);

     3765    27082    5          REDUCED_DATA.TYPE      = %TYI;

  27082 31 021637   000001 236007                    LDQ     1,DL
        31 021640   000056 756000 0                  STQ     REDUCED_DATA+19

     3766    27083    5          REDUCED_DATA.B.CLASS   = %CLASS_NUMERIC;

  27083 31 021641   000060 236000 0                  LDQ     REDUCED_DATA+21
        31 021642   000457 376000 32                 ANQ     303
        31 021643   200000 276007                    ORQ     65536,DL
        31 021644   000060 756000 0                  STQ     REDUCED_DATA+21

     3767    27084    5          DML_TYPE = %DATA_BASE_KEY;

  27084 31 021645   200000 236003                    LDQ     65536,DU
        31 021646   000414 756000 0                  STQ     DML_TYPE

     3768    27085
PL6.E3A0      #001=Z8DR$RECORD_DECL File=Z8DR.:Z8A6TSI                           SAT 08/09/97 11:18 Page:656
     3769    27086               %BUILD_BINARY_DESC (@LENGTH = %TYI_LENGTH,
     3770    27087                                   @DESC   = REDUCED_DATA.DESC);

  27091 31 021647   000057 450000 0                  STZ     REDUCED_DATA+20

  27092 31 021650   000004 236007                    LDQ     4,DL
        31 021651   000057 752001 0                  STCQ    REDUCED_DATA+20,'01'O

  27093 31 021652   021667 710000 31                 TRA     s:27116

     3771    27095
     3772    27096    5        CASE(%RSV_WRD_POINTER);

     3773    27097    5          REDUCED_DATA.TYPE        = %TYP;

  27097 31 021653   000022 236007                    LDQ     18,DL
        31 021654   000056 756000 0                  STQ     REDUCED_DATA+19

     3774    27098    5          REDUCED_DATA.B.CLASS    = %CLASS_UNDEFINED;

  27098 31 021655   000457 236000 32                 LDQ     303
        31 021656   000060 356000 0                  ANSQ    REDUCED_DATA+21

     3775    27099
     3776    27100               %BUILD_BINARY_DESC (@LENGTH = %TYI_LENGTH,
     3777    27101                                   @DESC   = REDUCED_DATA.DESC);

  27105 31 021657   000057 450000 0                  STZ     REDUCED_DATA+20

  27106 31 021660   000004 236007                    LDQ     4,DL
        31 021661   000057 752001 0                  STCQ    REDUCED_DATA+20,'01'O

  27107 31 021662   021667 710000 31                 TRA     s:27116

     3778    27109
     3779    27110    5        CASE(ELSE);

PL6.E3A0      #001=Z8DR$RECORD_DECL File=Z8DR.:Z8A6TSI                           SAT 08/09/97 11:18 Page:657
     3780    27111    5          CALL Z8AE$ERROR(%E$UNEXPECTED_CASE);

  27111 31 021663   000030 630400 32                 EPPR0   24
        31 021664   000005 631400 32                 EPPR1   5
        31 021665   000000 701000 xent               TSX1    Z8AE$ERROR
        31 021666   000000 011000                    NOP     0

     3781    27112
     3782    27113
     3783    27114    5      END; /* CASE */

     3784    27115
     3785    27116    4   END FILL_DESCRIPTOR;

  27116 31 021667   000467 221200 0                  LDX1  ! TA+2
        31 021670   000001 702211                    TSX2  ! 1,X1

     3786    27117        %EJECT;
PL6.E3A0      #001=Z8DR$RECORD_DECL File=Z8DR.:Z8A6TSI                           SAT 08/09/97 11:18 Page:658
     3787    27118        /*=============*/
     3788    27119    3     PROCESS_VALUE: PROC;

  27119 31 021671   000470 741200 0     PROCESS_VAL* STX1  ! TA+3

     3789    27120        /*=============*/
     3790    27121
     3791    27122
     3792    27123    4   DCL RETURN_ETT$               PTR;
     3793    27124    4   DCL CONST$                    PTR;
     3794    27125    4   DCL KANJI_SPACE_ETT$          PTR STATIC INIT (ADDR(NIL)) ;
     3795    27126    4   DCL KANJI_SPACE_ST$           PTR ;
     3796    27127    4   DCL 1 TYPE_DESC               ALIGNED,
     3797    27128             %TYPE_DESC;
     3798    27162
     3799    27163
     3800    27164    4      TYPE_DESC.TYPE         = REDUCED_DATA.TYPE;

  27164 31 021672   000056 235000 0                  LDA     REDUCED_DATA+19
        31 021673   000475 755000 0                  STA     TYPE_DESC

     3801    27165    4      TYPE_DESC.DESC         = REDUCED_DATA.DESC;

  27165 31 021674   000057 236000 0                  LDQ     REDUCED_DATA+20
        31 021675   000476 756000 0                  STQ     TYPE_DESC+1

     3802    27166    4      CONST$ = CDECL$ -> LX_REC_DECL.P.VALUE$ ->

  27166 31 021676   000160 470400 0                  LDP0    CDECL$
        31 021677   000010 471500                    LDP1    8,,PR0
        31 021700   100004 473500                    LDP3    4,,PR1
        31 021701   300004 236100                    LDQ     4,,PR3
        31 021702   000472 756000 0                  STQ     CONST$

     3803    27167    4               LX_LIST.HEAD$ -> LX_LIST.HEAD$;
     3804    27168
     3805    27169    4      IF REDUCED_DATA.B.CLASS = %CLASS_NUMERIC_EDITED THEN
PL6.E3A0      #001=Z8DR$RECORD_DECL File=Z8DR.:Z8A6TSI                           SAT 08/09/97 11:18 Page:659

  27169 31 021703   000060 236000 0                  LDQ     REDUCED_DATA+21
        31 021704   000460 376000 32                 ANQ     304
        31 021705   000476 116000 32                 CMPQ    318
        31 021706   021736 601000 31                 TNZ     s:27216

     3806    27170    5        DO;

     3807    27171    5          TYPE_DESC.SIZ$         = ADDR(NIL);

  27171 31 021707   000000 236000 32                 LDQ     0
        31 021710   000477 756000 0                  STQ     TYPE_DESC+2

     3808    27172
     3809    27173    5          CALL Z8EC$NEW_CONST_WITH_TYPE_DESC (TYPE_DESC,

  27173 31 021711   000503 630400 32                 EPPR0   323
        31 021712   000001 631400 32                 EPPR1   1
        31 021713   000000 701000 xent               TSX1    Z8EC$NEW_CONST_WITH_TYPE_DESC
        31 021714   021716 702000 31                 TSX2    s:27191
        31 021715   021735 710000 31                 TRA     s:27212

     3810    27174    5                                              CONST$,
     3811    27175    5                                              RETURN_ETT$)
     3812    27176    5            WHENALTRETURN
     3813    27177    6              DO;

     3814    27178                     %CONDITIONAL_ERROR (@LX_ITEM$ = CONST$,
     3815    27179                                         @ERROR#   = %E$VALUE_OVERFLOW,
     3816    27180                                         @LINE     = CONST$ -> LX_ITEM.LINE,
     3817    27181                                         @COLUMN   = CONST$ -> LX_ITEM.COLUMN);

  27191 31 021716   000472 470400 0                  LDP0    CONST$
        31 021717   000000 236100                    LDQ     0,,PR0
        31 021720   400000 316007                    CANQ    -131072,DL
        31 021721   021735 601000 31                 TNZ     s:27212

PL6.E3A0      #001=Z8DR$RECORD_DECL File=Z8DR.:Z8A6TSI                           SAT 08/09/97 11:18 Page:660
  27193 31 021722   000472 236000 0                  LDQ     CONST$
        31 021723   000006 036003                    ADLQ    6,DU
        31 021724   000574 756000 0                  STQ     P$+3
        31 021725   000472 236000 0                  LDQ     CONST$
        31 021726   000005 036003                    ADLQ    5,DU
        31 021727   000507 235000 32                 LDA     327
        31 021730   000572 757000 0                  STAQ    P$+1
        31 021731   000572 630400 0                  EPPR0   P$+1
        31 021732   000001 631400 32                 EPPR1   1
        31 021733   000000 701000 xent               TSX1    Z8AE$ERROR
        31 021734   000000 011000                    NOP     0

     3818    27211    6              END;

     3819    27212    5        END;

  27212 31 021735   022164 710000 31                 TRA     s:27367

     3820    27213    4      ELSE
     3821    27214    5        DO;

     3822    27215
     3823    27216    5          IF REDUCED_DATA.B.LENGTH_4096 THEN

  27216 31 021736   000060 430000 0                  FSZN    REDUCED_DATA+21
        31 021737   021757 605000 31                 TPL     s:27226

     3824    27217    6            DO;

     3825    27218    6              IF REDUCED_DATA.LTS$ -> LTS.ID = %LONG THEN

  27218 31 021740   000047 471400 0                  LDP1    REDUCED_DATA+12
        31 021741   100000 220100                    LDX0    0,,PR1
        31 021742   001110 100003                    CMPX0   584,DU
        31 021743   021747 601000 31                 TNZ     s:27221

     3826    27219    6                MKCN.CON = REDUCED_DATA.LTS$ -> LONG.LENGTH;
PL6.E3A0      #001=Z8DR$RECORD_DECL File=Z8DR.:Z8A6TSI                           SAT 08/09/97 11:18 Page:661

  27219 31 021744   100001 235100                    LDA     1,,PR1
        31 021745   000000 755000 21                 STA     MKCN
        31 021746   021752 710000 31                 TRA     s:27223

     3827    27220    6              ELSE
     3828    27221    6                MKCN.CON = REDUCED_DATA.LTS$ -> LTSS.LONG$ -> LONG.LENGTH;

  27221 31 021747   100003 473500                    LDP3    3,,PR1
        31 021750   300001 235100                    LDA     1,,PR3
        31 021751   000000 755000 21                 STA     MKCN

     3829    27222
     3830    27223    6              CALL Z8AC$MAKE_CONST (TYPE_DESC.SIZ$);

  27223 31 021752   000510 630400 32                 EPPR0   328
        31 021753   000005 631400 32                 EPPR1   5
        31 021754   000000 701000 xent               TSX1    Z8AC$MAKE_CONST
        31 021755   000000 011000                    NOP     0

     3831    27224    6            END;

  27224 31 021756   021761 710000 31                 TRA     s:27228

     3832    27225    5          ELSE
     3833    27226    5            TYPE_DESC.SIZ$ = ADDR(NIL);

  27226 31 021757   000000 236000 32                 LDQ     0
        31 021760   000477 756000 0                  STQ     TYPE_DESC+2

     3834    27227
     3835    27228    5            IF REDUCED_DATA.TYPE = %TYP THEN

  27228 31 021761   000056 235000 0                  LDA     REDUCED_DATA+19
        31 021762   000022 115007                    CMPA    18,DL
        31 021763   022002 601000 31                 TNZ     s:27246

PL6.E3A0      #001=Z8DR$RECORD_DECL File=Z8DR.:Z8A6TSI                           SAT 08/09/97 11:18 Page:662
     3836    27229    6              DO;

     3837    27230    6                IF CONST$ -> LX_ITEM.SYMBOL = %RSV_WRD_NULL THEN

  27230 31 021764   000472 470400 0                  LDP0    CONST$
        31 021765   000003 235100                    LDA     3,,PR0
        31 021766   000463 115007                    CMPA    307,DL
        31 021767   021774 601000 31                 TNZ     s:27237

     3838    27231    7                  DO;

     3839    27232
     3840    27233    7                    REDUCED_DATA.CONST$ = COMCOM.NULL_PTR$;

  27233 31 021770   000556 236000 xsym               LDQ     COMCOM+366
        31 021771   000052 756000 0                  STQ     REDUCED_DATA+15

     3841    27234
     3842    27235    7                    RETURN;

  27235 31 021772   000470 221200 0                  LDX1  ! TA+3
        31 021773   000001 702211                    TSX2  ! 1,X1

     3843    27236    7                  END;
     3844    27237    6                IF CONST$ -> LX_ITEM.SYMBOL = %RSV_WRD_LOW_VALUES THEN

  27237 31 021774   000433 115007                    CMPA    283,DL
        31 021775   022002 601000 31                 TNZ     s:27246

     3845    27238    7                  DO;

     3846    27239
     3847    27240    7                    REDUCED_DATA.CONST$ = COMCOM.VALUE_0;

  27240 31 021776   000124 236000 xsym               LDQ     COMCOM+84
        31 021777   000052 756000 0                  STQ     REDUCED_DATA+15

PL6.E3A0      #001=Z8DR$RECORD_DECL File=Z8DR.:Z8A6TSI                           SAT 08/09/97 11:18 Page:663
     3848    27241
     3849    27242    7                    RETURN;

  27242 31 022000   000470 221200 0                  LDX1  ! TA+3
        31 022001   000001 702211                    TSX2  ! 1,X1

     3850    27243    7                  END;
     3851    27244    6              END;
     3852    27245
     3853    27246    5          IF  REDUCED_DATA.TYPE = %TYN

  27246 31 022002   000056 235000 0                  LDA     REDUCED_DATA+19
        31 022003   000016 115007                    CMPA    14,DL
        31 022004   022111 601000 31                 TNZ     s:27306
        31 022005   000472 470400 0                  LDP0    CONST$
        31 022006   000003 235100                    LDA     3,,PR0
        31 022007   000650 115007                    CMPA    424,DL
        31 022010   022111 601000 31                 TNZ     s:27306

     3854    27247    6          AND CONST$ -> LX_ITEM.SYMBOL = %RSV_WRD_SPACES THEN DO ;

     3855    27248
     3856    27249    7            IF KANJI_SPACE_ETT$ = ADDR(NIL) THEN DO ;

  27249 31 022011   000473 236000 0                  LDQ     KANJI_SPACE_ETT$
        31 022012   000000 116000 32                 CMPQ    0
        31 022013   022106 601000 31                 TNZ     s:27300

     3857    27250                   %NEW_CONST (@ST$   = KANJI_SPACE_ST$,
     3858    27251                               @DNT$  = "CONST$ -> LX_TERMINAL.DNT$",
     3859    27252                               @TYPE  = %TYN) ;

  27256 31 022014   000002 236000 3                  LDQ     ST_+2
        31 022015   000013 036007                    ADLQ    11,DL
        31 022016   000003 116000 3                  CMPQ    ST_+3
        31 022017   022030 604000 31                 TMI     s:27258

PL6.E3A0      #001=Z8DR$RECORD_DECL File=Z8DR.:Z8A6TSI                           SAT 08/09/97 11:18 Page:664
  27257 31 022020   000041 236000 32                 LDQ     33
        31 022021   000572 756000 0                  STQ     P$+1
        31 022022   000572 631400 0                  EPPR1   P$+1
        31 022023   000573 451400 0                  STP1    P$+2
        31 022024   000573 630400 0                  EPPR0   P$+2
        31 022025   000005 631400 32                 EPPR1   5
        31 022026   000000 701000 xent               TSX1    Z8AR$RESERVER
        31 022027   000000 011000                    NOP     0

  27258 31 022030   000002 236000 3                  LDQ     ST_+2
        31 022031   000022 736000                    QLS     18
        31 022032   000001 036000 3                  ADLQ    ST_+1
        31 022033   000474 756000 0                  STQ     KANJI_SPACE_ST$

  27259 31 022034   000013 236007                    LDQ     11,DL
        31 022035   000002 056000 3                  ASQ     ST_+2

  27262 31 022036   000767 220003                    LDX0    503,DU
        31 022037   000474 470400 0                  LDP0    KANJI_SPACE_ST$
        31 022040   000000 740100                    STX0    0,,PR0

  27263 31 022041   000474 470400 0                  LDP0    KANJI_SPACE_ST$
        31 022042   001000 236007                    LDQ     512,DL
        31 022043   000000 552110                    STBQ    0,'10'O,PR0

  27264 31 022044   000474 470400 0                  LDP0    KANJI_SPACE_ST$
        31 022045   000126 236000 xsym               LDQ     O1COM+86
        31 022046   000000 552104                    STBQ    0,'04'O,PR0

  27265 31 022047   000016 221003                    LDX1    14,DU
        31 022050   000474 470400 0                  LDP0    KANJI_SPACE_ST$
        31 022051   000002 741100                    STX1    2,,PR0

  27266 31 022052   000474 470400 0                  LDP0    KANJI_SPACE_ST$
        31 022053   000003 450100                    STZ     3,,PR0

  27267 31 022054   000000 236000 32                 LDQ     0
PL6.E3A0      #001=Z8DR$RECORD_DECL File=Z8DR.:Z8A6TSI                           SAT 08/09/97 11:18 Page:665
        31 022055   000474 470400 0                  LDP0    KANJI_SPACE_ST$
        31 022056   000004 756100                    STQ     4,,PR0

  27268 31 022057   000474 470400 0                  LDP0    KANJI_SPACE_ST$
        31 022060   000005 756100                    STQ     5,,PR0

  27269 31 022061   000472 470400 0                  LDP0    CONST$
        31 022062   000002 236100                    LDQ     2,,PR0
        31 022063   000474 471400 0                  LDP1    KANJI_SPACE_ST$
        31 022064   100006 756100                    STQ     6,,PR1

     3860    27293    7              KANJI_SPACE_ST$ -> CONST.CONSTA = %KANJI_SPACE ;

  27293 31 022065   000474 470400 0                  LDP0    KANJI_SPACE_ST$
        31 022066   000511 235000 32                 LDA     329
        31 022067   000512 236000 32                 LDQ     330
        31 022070   000010 755100                    STA     8,,PR0
        31 022071   000011 756100                    STQ     9,,PR0

     3861    27294    7              CALL Z8AF$FORME (%TRIAD,             /* ID     */

  27294 31 022072   000000 236000 32                 LDQ     0
        31 022073   000572 756000 0                  STQ     P$+1
        31 022074   000513 236000 32                 LDQ     331
        31 022075   000577 756000 0                  STQ     P$+6
        31 022076   000572 630400 0                  EPPR0   P$+1
        31 022077   000576 450400 0                  STP0    P$+5
        31 022100   000514 237000 32                 LDAQ    332
        31 022101   000574 757000 0                  STAQ    P$+3
        31 022102   000574 630400 0                  EPPR0   P$+3
        31 022103   000076 631400 32                 EPPR1   62
        31 022104   000000 701000 xent               TSX1    Z8AF$FORME
        31 022105   000000 011000                    NOP     0

     3862    27295    7                               KANJI_SPACE_ST$,    /* LOP    */
     3863    27296    7                               ADDR(NIL),          /* ROP    */
     3864    27297    7                               KANJI_SPACE_ETT$) ; /* Result */
PL6.E3A0      #001=Z8DR$RECORD_DECL File=Z8DR.:Z8A6TSI                           SAT 08/09/97 11:18 Page:666
     3865    27298    7            END ; /* Kanji_Space_ETT$ = nil */

     3866    27299
     3867    27300    6            RETURN_ETT$ = KANJI_SPACE_ETT$ ;

  27300 31 022106   000473 236000 0                  LDQ     KANJI_SPACE_ETT$
        31 022107   000471 756000 0                  STQ     RETURN_ETT$

     3868    27301
     3869    27302    6          END ; /* Kanji variable, SPACE value */

  27302 31 022110   022164 710000 31                 TRA     s:27367

     3870    27303
     3871    27304    5          ELSE  /* Not Kanji VALUE IS SPACES */
     3872    27305    6            DO;

     3873    27306    6              IF REDUCED_DATA.TYPE = %TYC OR

  27306 31 022111   000056 235000 0                  LDA     REDUCED_DATA+19
        31 022112   000023 115007                    CMPA    19,DL
        31 022113   022116 600000 31                 TZE     s:27309
        31 022114   000013 115007                    CMPA    11,DL
        31 022115   022134 601000 31                 TNZ     s:27322

     3874    27307    6                 REDUCED_DATA.TYPE = %TYF THEN
     3875    27308    7                DO;

     3876    27309    7                  IF REDUCED_DATA.B.SIGN_FOUND AND

  27309 31 022116   000060 236000 0                  LDQ     REDUCED_DATA+21
        31 022117   100000 316003                    CANQ    32768,DU
        31 022120   022130 600000 31                 TZE     s:27318
        31 022121   000040 235000 0                  LDA     REDUCED_DATA+5
        31 022122   022130 601000 31                 TNZ     s:27318

     3877    27310    7                      REDUCED_DATA.SIGN.TYPE = %SIGN_TYPE_OVERPUNCH
PL6.E3A0      #001=Z8DR$RECORD_DECL File=Z8DR.:Z8A6TSI                           SAT 08/09/97 11:18 Page:667
     3878    27311    7                    THEN
     3879    27312    8                      DO;

     3880    27313    8                        TYPE_DESC.TYPE = %TYO;

  27313 31 022123   000003 235007                    LDA     3,DL
        31 022124   000475 755000 0                  STA     TYPE_DESC

     3881    27314    8                        TYPE_DESC.DESC.NDSC.TN = %NDSC9;

  27314 31 022125   000047 236000 32                 LDQ     39
        31 022126   000476 356000 0                  ANSQ    TYPE_DESC+1

     3882    27315    8                      END;

  27315 31 022127   022140 710000 31                 TRA     s:27325

     3883    27316    7                    ELSE
     3884    27317    8                      DO;

     3885    27318    8                        TYPE_DESC.TYPE = %TYD;

  27318 31 022130   000475 450000 0                  STZ     TYPE_DESC

     3886    27319    8                        TYPE_DESC.DESC.NDSC.TN = %NDSC4;

  27319 31 022131   040000 236007                    LDQ     16384,DL
        31 022132   000476 256000 0                  ORSQ    TYPE_DESC+1

     3887    27320    8                      END;

     3888    27321    7                END; /* Z8HC will convert */

  27321 31 022133   022140 710000 31                 TRA     s:27325

     3889    27322    6              ELSE IF TYPE_DESC.TYPE = %TYD THEN

PL6.E3A0      #001=Z8DR$RECORD_DECL File=Z8DR.:Z8A6TSI                           SAT 08/09/97 11:18 Page:668
  27322 31 022134   000475 236000 0                  LDQ     TYPE_DESC
        31 022135   022140 601000 31                 TNZ     s:27325

     3890    27323    6                TYPE_DESC.DESC.NDSC.TN = %NDSC4;

  27323 31 022136   040000 236007                    LDQ     16384,DL
        31 022137   000476 256000 0                  ORSQ    TYPE_DESC+1

     3891    27324
     3892    27325    6              CALL Z8EC$NEW_CONST_WITH_TYPE_DESC (TYPE_DESC,

  27325 31 022140   000503 630400 32                 EPPR0   323
        31 022141   000001 631400 32                 EPPR1   1
        31 022142   000000 701000 xent               TSX1    Z8EC$NEW_CONST_WITH_TYPE_DESC
        31 022143   022145 702000 31                 TSX2    s:27343
        31 022144   022164 710000 31                 TRA     s:27367

     3893    27326    6                                                  CONST$,
     3894    27327    6                                                  RETURN_ETT$)
     3895    27328    6              WHENALTRETURN
     3896    27329    7                DO;

     3897    27330                       %CONDITIONAL_ERROR (@LX_ITEM$ = CONST$,
     3898    27331                                           @ERROR#   = %E$VALUE_OVERFLOW,
     3899    27332                                           @LINE     = CONST$ -> LX_ITEM.LINE,
     3900    27333                                           @COLUMN   = CONST$ -> LX_ITEM.COLUMN);

  27343 31 022145   000472 470400 0                  LDP0    CONST$
        31 022146   000000 236100                    LDQ     0,,PR0
        31 022147   400000 316007                    CANQ    -131072,DL
        31 022150   022164 601000 31                 TNZ     s:27367

  27345 31 022151   000472 236000 0                  LDQ     CONST$
        31 022152   000006 036003                    ADLQ    6,DU
        31 022153   000574 756000 0                  STQ     P$+3
        31 022154   000472 236000 0                  LDQ     CONST$
        31 022155   000005 036003                    ADLQ    5,DU
PL6.E3A0      #001=Z8DR$RECORD_DECL File=Z8DR.:Z8A6TSI                           SAT 08/09/97 11:18 Page:669
        31 022156   000507 235000 32                 LDA     327
        31 022157   000572 757000 0                  STAQ    P$+1
        31 022160   000572 630400 0                  EPPR0   P$+1
        31 022161   000001 631400 32                 EPPR1   1
        31 022162   000000 701000 xent               TSX1    Z8AE$ERROR
        31 022163   000000 011000                    NOP     0

     3901    27363    7                END;

     3902    27364    6            END;

     3903    27365    5        END;

     3904    27366
     3905    27367    4      REDUCED_DATA.CONST$ = RETURN_ETT$;

  27367 31 022164   000471 236000 0                  LDQ     RETURN_ETT$
        31 022165   000052 756000 0                  STQ     REDUCED_DATA+15

     3906    27368
     3907    27369    4   END PROCESS_VALUE;

  27369 31 022166   000470 221200 0                  LDX1  ! TA+3
        31 022167   000001 702211                    TSX2  ! 1,X1

     3908    27370        %EJECT;
PL6.E3A0      #001=Z8DR$RECORD_DECL File=Z8DR.:Z8A6TSI                           SAT 08/09/97 11:18 Page:670
     3909    27371        /*=======================*/
     3910    27372    3     CREATE_INDEXED_BY_ITEMS: PROC (DIMS$, DIM#, INDEX_LIST$);

  27372 31 022170   000501 741200 0     CREATE_INDE* STX1  ! TYPE_DESC+4

     3911    27373        /*=======================*/
     3912    27374
     3913    27375    4   DCL DIMS$              PTR;
     3914    27376    4   DCL DIM#               SBIN WORD;
     3915    27377    4   DCL INDEX_LIST$        PTR;
     3916    27378
     3917    27379    4   DCL INDEX_ST$          PTR;
     3918    27380    4   DCL INDEX_DNT$         PTR;
     3919    27381    4   DCL INDEX_QLT$         PTR;
     3920    27382
     3921    27383    4   DCL INDEX$             PTR;
     3922    27384    4   DCL BRO$               PTR;
     3923    27385    4   DCL INDEXES$           PTR;
     3924    27386    4   DCL PREV_INDEXES$      PTR;
     3925    27387    4   DCL QLT_CHAIN$         PTR;
     3926    27388    4   DCL QLT_CHAIN_START$   PTR;
     3927    27389    4   DCL FIRST_INDEX$       PTR;
     3928    27390
     3929    27391    4      INDEX$ = INDEX_LIST$ -> LX_LIST.HEAD$;

  27391 31 022171   000504 470400 0                  LDP0    @INDEX_LIST$
        31 022172   000000 471500                    LDP1    0,,PR0
        31 022173   100004 236100                    LDQ     4,,PR1
        31 022174   000510 756000 0                  STQ     INDEX$

     3930    27392    4      PREV_INDEXES$ = ADDR(NIL);

  27392 31 022175   000000 236000 32                 LDQ     0
        31 022176   000513 756000 0                  STQ     PREV_INDEXES$

     3931    27393    4      QLT_CHAIN_START$ = ADDR(NIL);

PL6.E3A0      #001=Z8DR$RECORD_DECL File=Z8DR.:Z8A6TSI                           SAT 08/09/97 11:18 Page:671
  27393 31 022177   000515 756000 0                  STQ     QLT_CHAIN_START$

     3932    27394    4      INDEXES$      = ADDR(NIL);

  27394 31 022200   000512 756000 0                  STQ     INDEXES$

     3933    27395
     3934    27396    5      DO WHILE (INDEX$ ~= ADDR(NIL));

  27396 31 022201   022304 710000 31                 TRA     s:27515

     3935    27397    5        CALL Z8DR$NEW_INDEX (INDEX$,

  27397 31 022202   000520 630400 32                 EPPR0   336
        31 022203   000072 631400 32                 EPPR1   58
        31 022204   000000 701000 xent               TSX1    Z8DR$NEW_INDEX
        31 022205   000000 011000                    NOP     0

     3936    27398    5                             %TYX,
     3937    27399    5                             01,
     3938    27400    5                             INDEX_QLT$,
     3939    27401    5                             INDEX_ST$);
     3940    27402
     3941    27403    5        INDEX_ST$ -> SCALAR.B.EXTERNAL = REDUCED_DATA.B.EXTERNAL;

  27403 31 022206   000505 470400 0                  LDP0    INDEX_ST$
        31 022207   000060 236000 0                  LDQ     REDUCED_DATA+21
        31 022210   000007 736000                    QLS     7
        31 022211   000003 676100                    ERQ     3,,PR0
        31 022212   000004 376003                    ANQ     4,DU
        31 022213   000003 656100                    ERSQ    3,,PR0

     3942    27404    5        INDEX_ST$ -> SCALAR.B.GLOBAL = REDUCED_DATA.B.GLOBAL;

  27404 31 022214   000505 470400 0                  LDP0    INDEX_ST$
        31 022215   000060 236000 0                  LDQ     REDUCED_DATA+21
        31 022216   000011 736000                    QLS     9
PL6.E3A0      #001=Z8DR$RECORD_DECL File=Z8DR.:Z8A6TSI                           SAT 08/09/97 11:18 Page:672
        31 022217   000003 676100                    ERQ     3,,PR0
        31 022220   000010 376003                    ANQ     8,DU
        31 022221   000003 656100                    ERSQ    3,,PR0

     3943    27405
     3944    27406    5        IF QLT_CHAIN_START$ = ADDR(NIL) THEN

  27406 31 022222   000515 236000 0                  LDQ     QLT_CHAIN_START$
        31 022223   000000 116000 32                 CMPQ    0
        31 022224   022230 601000 31                 TNZ     s:27409

     3945    27407    5          QLT_CHAIN_START$ = INDEX_QLT$;

  27407 31 022225   000507 236000 0                  LDQ     INDEX_QLT$
        31 022226   000515 756000 0                  STQ     QLT_CHAIN_START$
        31 022227   022233 710000 31                 TRA     s:27411

     3946    27408    5        ELSE
     3947    27409    5          QLT_CHAIN$ -> QLT.BROTHER = INDEX_QLT$;

  27409 31 022230   000507 236000 0                  LDQ     INDEX_QLT$
        31 022231   000514 470400 0                  LDP0    QLT_CHAIN$
        31 022232   000002 756100                    STQ     2,,PR0

     3948    27410
     3949    27411    5        QLT_CHAIN$ = INDEX_QLT$ -> QLT.BROTHER;

  27411 31 022233   000507 470400 0                  LDP0    INDEX_QLT$
        31 022234   000002 236100                    LDQ     2,,PR0
        31 022235   000514 756000 0                  STQ     QLT_CHAIN$

     3950    27412
     3951    27413             %NEW_INDEXES (@POINTER = INDEXES$,
     3952    27414                           @INDEX_ST$ = INDEX_ST$);

  27493 31 022236   000002 236000 8                  LDQ     LTS_+2
        31 022237   000003 036007                    ADLQ    3,DL
PL6.E3A0      #001=Z8DR$RECORD_DECL File=Z8DR.:Z8A6TSI                           SAT 08/09/97 11:18 Page:673
        31 022240   000003 116000 8                  CMPQ    LTS_+3
        31 022241   022252 604000 31                 TMI     s:27495

  27494 31 022242   000023 236000 32                 LDQ     19
        31 022243   000572 756000 0                  STQ     P$+1
        31 022244   000572 631400 0                  EPPR1   P$+1
        31 022245   000573 451400 0                  STP1    P$+2
        31 022246   000573 630400 0                  EPPR0   P$+2
        31 022247   000005 631400 32                 EPPR1   5
        31 022250   000000 701000 xent               TSX1    Z8AR$RESERVER
        31 022251   000000 011000                    NOP     0

  27495 31 022252   000002 236000 8                  LDQ     LTS_+2
        31 022253   000022 736000                    QLS     18
        31 022254   000001 036000 8                  ADLQ    LTS_+1
        31 022255   000512 756000 0                  STQ     INDEXES$

  27496 31 022256   000003 236007                    LDQ     3,DL
        31 022257   000002 056000 8                  ASQ     LTS_+2

  27497 31 022260   001116 220003                    LDX0    590,DU
        31 022261   000512 470400 0                  LDP0    INDEXES$
        31 022262   000000 740100                    STX0    0,,PR0

  27503 31 022263   000505 236000 0                  LDQ     INDEX_ST$
        31 022264   000001 756100                    STQ     1,,PR0

  27504 31 022265   000000 236000 32                 LDQ     0
        31 022266   000002 756100                    STQ     2,,PR0

     3953    27507
     3954    27508    5        IF PREV_INDEXES$ ~= ADDR(NIL) THEN

  27508 31 022267   000513 236000 0                  LDQ     PREV_INDEXES$
        31 022270   000000 116000 32                 CMPQ    0
        31 022271   022276 600000 31                 TZE     s:27511

PL6.E3A0      #001=Z8DR$RECORD_DECL File=Z8DR.:Z8A6TSI                           SAT 08/09/97 11:18 Page:674
     3955    27509    5          PREV_INDEXES$ -> INDEXES.LINK = INDEXES$;

  27509 31 022272   000512 236000 0                  LDQ     INDEXES$
        31 022273   000513 471400 0                  LDP1    PREV_INDEXES$
        31 022274   100002 756100                    STQ     2,,PR1
        31 022275   022300 710000 31                 TRA     s:27513

     3956    27510    5        ELSE
     3957    27511    5          FIRST_INDEX$ = INDEXES$;

  27511 31 022276   000512 236000 0                  LDQ     INDEXES$
        31 022277   000516 756000 0                  STQ     FIRST_INDEX$

     3958    27512
     3959    27513    5        PREV_INDEXES$ = INDEXES$;

  27513 31 022300   000513 756000 0                  STQ     PREV_INDEXES$

     3960    27514    5        INDEX$ = INDEX$ -> LX_TERMINAL.LINK;

  27514 31 022301   000510 471400 0                  LDP1    INDEX$
        31 022302   100007 236100                    LDQ     7,,PR1
        31 022303   000510 756000 0                  STQ     INDEX$

     3961    27515    5      END;

  27515 31 022304   000510 236000 0                  LDQ     INDEX$
        31 022305   000000 116000 32                 CMPQ    0
        31 022306   022202 601000 31                 TNZ     s:27397

     3962    27516
     3963    27517    4      DIMS$ -> DIMS.D.INDEX$(DIM#) = FIRST_INDEX$;

  27517 31 022307   000502 470400 0                  LDP0    @DIMS$
        31 022310   000000 471500                    LDP1    0,,PR0
        31 022311   000503 473400 0                  LDP3    @DIM#
        31 022312   300000 236100                    LDQ     0,,PR3
PL6.E3A0      #001=Z8DR$RECORD_DECL File=Z8DR.:Z8A6TSI                           SAT 08/09/97 11:18 Page:675
        31 022313   000003 402007                    MPY     3,DL
        31 022314   000572 756000 0                  STQ     P$+1
        31 022315   000516 236000 0                  LDQ     FIRST_INDEX$
        31 022316   000572 720000 0                  LXL0    P$+1
        31 022317   100004 756110                    STQ     4,X0,PR1

     3964    27518    4      REDUCED_DATA.INDEXES$        = FIRST_INDEX$;

  27518 31 022320   000050 756000 0                  STQ     REDUCED_DATA+13

     3965    27519
     3966    27520    4      BRO$ = QLT_CHAIN_START$;

  27520 31 022321   000515 236000 0                  LDQ     QLT_CHAIN_START$
        31 022322   000511 756000 0                  STQ     BRO$

     3967    27521
     3968    27522    4      IF BRO$ ~= ADDR(NIL) THEN

  27522 31 022323   000000 116000 32                 CMPQ    0
        31 022324   022335 600000 31                 TZE     s:27527

     3969    27523    5        DO WHILE (BRO$ -> QLT.BROTHER ~= ADDR(NIL));

  27523 31 022325   022331 710000 31                 TRA     s:27525

     3970    27524    5          BRO$       = BRO$ -> QLT.BROTHER;

  27524 31 022326   000511 470400 0                  LDP0    BRO$
        31 022327   000002 236100                    LDQ     2,,PR0
        31 022330   000511 756000 0                  STQ     BRO$

     3971    27525    5        END;

  27525 31 022331   000511 470400 0                  LDP0    BRO$
        31 022332   000002 236100                    LDQ     2,,PR0
        31 022333   000000 116000 32                 CMPQ    0
PL6.E3A0      #001=Z8DR$RECORD_DECL File=Z8DR.:Z8A6TSI                           SAT 08/09/97 11:18 Page:676
        31 022334   022326 601000 31                 TNZ     s:27524

     3972    27526
     3973    27527    4      IF O1COM.INDEX_HEAD$ = ADDR(NIL) THEN

  27527 31 022335   000036 236000 xsym               LDQ     O1COM+30
        31 022336   000000 116000 32                 CMPQ    0
        31 022337   022343 601000 31                 TNZ     s:27530

     3974    27528    4        O1COM.INDEX_HEAD$ = QLT_CHAIN_START$;

  27528 31 022340   000515 236000 0                  LDQ     QLT_CHAIN_START$
        31 022341   000036 756000 xsym               STQ     O1COM+30
        31 022342   022346 710000 31                 TRA     s:27532

     3975    27529    4      ELSE
     3976    27530    4        O1COM.INDEX_TAIL$ -> QLT.BROTHER = QLT_CHAIN_START$;

  27530 31 022343   000515 236000 0                  LDQ     QLT_CHAIN_START$
        31 022344   000037 470400 xsym               LDP0    O1COM+31
        31 022345   000002 756100                    STQ     2,,PR0

     3977    27531
     3978    27532    4      O1COM.INDEX_TAIL$ = BRO$;

  27532 31 022346   000511 236000 0                  LDQ     BRO$
        31 022347   000037 756000 xsym               STQ     O1COM+31

     3979    27533
     3980    27534    4   END CREATE_INDEXED_BY_ITEMS;

  27534 31 022350   000501 221200 0                  LDX1  ! TYPE_DESC+4
        31 022351   000001 702211                    TSX2  ! 1,X1

     3981    27535        %EJECT;
PL6.E3A0      #001=Z8DR$RECORD_DECL File=Z8DR.:Z8A6TSI                           SAT 08/09/97 11:18 Page:677
     3982    27536        /*==============*/
     3983    27537    3     PROCESS_OCCURS: PROC;

  27537 31 022352   000517 741200 0     PROCESS_OCC* STX1  ! FIRST_INDEX$+1

     3984    27538        /*==============*/
     3985    27539
     3986    27540
     3987    27541    4   DCL I                         SBIN WORD;
     3988    27542    4   DCL J                         SBIN WORD;
     3989    27543    4   DCL DIM#                      SBIN WORD;
     3990    27544    4   DCL OCCURS$                   PTR;
     3991    27545    4   DCL DIMS$                      PTR;
     3992    27546
     3993    27547
     3994    27548    4      OCCURS$ = CDECL$ -> LX_REC_DECL.P.OCCURS$ ->

  27548 31 022353   000160 470400 0                  LDP0    CDECL$
        31 022354   000007 471500                    LDP1    7,,PR0
        31 022355   100004 473500                    LDP3    4,,PR1
        31 022356   300004 236100                    LDQ     4,,PR3
        31 022357   000523 756000 0                  STQ     OCCURS$

     3995    27549    4                LX_LIST.HEAD$ -> LX_LIST.HEAD$;
     3996    27550
     3997    27551
     3998    27552    4      IF REDUCED_DATA.LEVEL.CURRENT <= REDUCED_DATA.LEVEL.PREVIOUS THEN

  27552 31 022360   000034 236000 0                  LDQ     REDUCED_DATA+1
        31 022361   000035 116000 0                  CMPQ    REDUCED_DATA+2
        31 022362   022370 605400 31                 TPNZ    s:27555

     3999    27553    4        CALL FIND_HIER_INDEX (REDUCED_DATA.LEVEL.CURRENT, J);

  27553 31 022363   000526 237000 32                 LDAQ    342
        31 022364   000406 757000 0                  STAQ    @TEMP_LEVEL#
        31 022365   016705 701000 31                 TSX1    FIND_HIER_INDEX
PL6.E3A0      #001=Z8DR$RECORD_DECL File=Z8DR.:Z8A6TSI                           SAT 08/09/97 11:18 Page:678
        31 022366   000000 011000                    NOP     0
        31 022367   022373 710000 31                 TRA     s:27557

     4000    27554    4      ELSE
     4001    27555    4        J = HIER_STK_PTR + 1;

  27555 31 022370   000000 235000 xsym               LDA     HIER_STK_PTR
        31 022371   000001 035007                    ADLA    1,DL
        31 022372   000521 755000 0                  STA     J

     4002    27556
     4003    27557    5      DO I = J - 1 DOWNTO 1;

  27557 31 022373   000521 235000 0                  LDA     J
        31 022374   000001 135007                    SBLA    1,DL
        31 022375   000520 755000 0                  STA     I
        31 022376   022406 710000 31                 TRA     s:27560+2

     4004    27558    5        IF HIER_STK.DIMS$(I) ~= ADDR(NIL) THEN

  27558 31 022377   000520 236000 0                  LDQ     I
        31 022400   000005 402007                    MPY     5,DL
        31 022401   000001 236006 xsym               LDQ     HIER_STK+1,QL
        31 022402   000000 116000 32                 CMPQ    0
        31 022403   022410 601000 31                 TNZ     s:27562

     4005    27559    5          EXIT;
     4006    27560    5      END;

  27560 31 022404   000001 336007                    LCQ     1,DL
        31 022405   000520 056000 0                  ASQ     I
        31 022406   000520 235000 0                  LDA     I
        31 022407   022377 605400 31                 TPNZ    s:27558

     4007    27561
     4008    27562    4      IF I <= %SINGLE_DIMENSION THEN

PL6.E3A0      #001=Z8DR$RECORD_DECL File=Z8DR.:Z8A6TSI                           SAT 08/09/97 11:18 Page:679
  27562 31 022410   000520 235000 0                  LDA     I
        31 022411   000001 115007                    CMPA    1,DL
        31 022412   022473 605400 31                 TPNZ    s:27677

     4009    27563    5        DO;

     4010    27564    5          DIM# = %SINGLE_DIMENSION;

  27564 31 022413   000001 236007                    LDQ     1,DL
        31 022414   000522 756000 0                  STQ     DIM#

     4011    27565
     4012    27566               %NEW_DIMS (@POINTER = DIMS$,
     4013    27567                          @SIZE    = "%MIN_DIM_SIZE + %NO_WORDS_PER_DIM");

  27569 31 022415   000010 235007                    LDA     8,DL
        31 022416   000000 755000 1                  STA     ITERATION

  27647 31 022417   000002 236000 8                  LDQ     LTS_+2
        31 022420   000000 036000 1                  ADLQ    ITERATION
        31 022421   000003 116000 8                  CMPQ    LTS_+3
        31 022422   022433 604000 31                 TMI     s:27649

  27648 31 022423   000023 236000 32                 LDQ     19
        31 022424   000572 756000 0                  STQ     P$+1
        31 022425   000572 630400 0                  EPPR0   P$+1
        31 022426   000573 450400 0                  STP0    P$+2
        31 022427   000573 630400 0                  EPPR0   P$+2
        31 022430   000005 631400 32                 EPPR1   5
        31 022431   000000 701000 xent               TSX1    Z8AR$RESERVER
        31 022432   000000 011000                    NOP     0

  27649 31 022433   000002 236000 8                  LDQ     LTS_+2
        31 022434   000022 736000                    QLS     18
        31 022435   000001 036000 8                  ADLQ    LTS_+1
        31 022436   000524 756000 0                  STQ     DIMS$

PL6.E3A0      #001=Z8DR$RECORD_DECL File=Z8DR.:Z8A6TSI                           SAT 08/09/97 11:18 Page:680
  27650 31 022437   000002 236000 8                  LDQ     LTS_+2
        31 022440   000000 036000 1                  ADLQ    ITERATION
        31 022441   000002 756000 8                  STQ     LTS_+2

  27651 31 022442   001104 220003                    LDX0    580,DU
        31 022443   000524 470400 0                  LDP0    DIMS$
        31 022444   000000 740100                    STX0    0,,PR0

  27653 31 022445   000000 721000 1                  LXL1    ITERATION
        31 022446   000524 470400 0                  LDP0    DIMS$
        31 022447   000000 441100                    SXL1    0,,PR0

  27657 31 022450   000000 236000 32                 LDQ     0
        31 022451   000524 470400 0                  LDP0    DIMS$
        31 022452   000001 756100                    STQ     1,,PR0

     4014    27660
     4015    27661               %FILL_DIMS (@DIMS$     = DIMS$,
     4016    27662                           @SS#       = DIM#,
     4017    27663                           @DIM       = REDUCED_DATA.OCCURS.INT2);

  27665 31 022453   000522 236000 0                  LDQ     DIM#
        31 022454   000003 402007                    MPY     3,DL
        31 022455   000000 621006                    EAX1    0,QL
        31 022456   000000 236000 32                 LDQ     0
        31 022457   000524 470400 0                  LDP0    DIMS$
        31 022460   000004 756111                    STQ     4,X1,PR0

  27666 31 022461   000522 236000 0                  LDQ     DIM#
        31 022462   000003 402007                    MPY     3,DL
        31 022463   000524 470400 0                  LDP0    DIMS$
        31 022464   000002 450106                    STZ     2,QL,PR0

  27667 31 022465   000522 236000 0                  LDQ     DIM#
        31 022466   000003 402007                    MPY     3,DL
        31 022467   000054 235000 0                  LDA     REDUCED_DATA+17
        31 022470   000524 470400 0                  LDP0    DIMS$
PL6.E3A0      #001=Z8DR$RECORD_DECL File=Z8DR.:Z8A6TSI                           SAT 08/09/97 11:18 Page:681
        31 022471   000003 755106                    STA     3,QL,PR0

     4018    27670
     4019    27671    5        END;

  27671 31 022472   022621 710000 31                 TRA     s:27797

     4020    27672    4      ELSE
     4021    27673    5        DO;

     4022    27674               %NEW_DIMS (@POINTER = DIMS$,
     4023    27675                          @SIZE    = "HIER_STK.DIMS$(I) -> LTS.N + %NO_WORDS_PER_DIM");

  27677 31 022473   000520 236000 0                  LDQ     I
        31 022474   000005 402007                    MPY     5,DL
        31 022475   000001 470406 xsym               LDP0    HIER_STK+1,QL
        31 022476   000000 236100                    LDQ     0,,PR0
        31 022477   777777 376007                    ANQ     -1,DL
        31 022500   000003 036007                    ADLQ    3,DL
        31 022501   000000 756000 1                  STQ     ITERATION

  27755 31 022502   000002 036000 8                  ADLQ    LTS_+2
        31 022503   000003 116000 8                  CMPQ    LTS_+3
        31 022504   022515 604000 31                 TMI     s:27757

  27756 31 022505   000023 236000 32                 LDQ     19
        31 022506   000572 756000 0                  STQ     P$+1
        31 022507   000572 630400 0                  EPPR0   P$+1
        31 022510   000573 450400 0                  STP0    P$+2
        31 022511   000573 630400 0                  EPPR0   P$+2
        31 022512   000005 631400 32                 EPPR1   5
        31 022513   000000 701000 xent               TSX1    Z8AR$RESERVER
        31 022514   000000 011000                    NOP     0

  27757 31 022515   000002 236000 8                  LDQ     LTS_+2
        31 022516   000022 736000                    QLS     18
        31 022517   000001 036000 8                  ADLQ    LTS_+1
PL6.E3A0      #001=Z8DR$RECORD_DECL File=Z8DR.:Z8A6TSI                           SAT 08/09/97 11:18 Page:682
        31 022520   000524 756000 0                  STQ     DIMS$

  27758 31 022521   000002 236000 8                  LDQ     LTS_+2
        31 022522   000000 036000 1                  ADLQ    ITERATION
        31 022523   000002 756000 8                  STQ     LTS_+2

  27759 31 022524   001104 220003                    LDX0    580,DU
        31 022525   000524 470400 0                  LDP0    DIMS$
        31 022526   000000 740100                    STX0    0,,PR0

  27761 31 022527   000000 721000 1                  LXL1    ITERATION
        31 022530   000524 470400 0                  LDP0    DIMS$
        31 022531   000000 441100                    SXL1    0,,PR0

  27765 31 022532   000000 236000 32                 LDQ     0
        31 022533   000524 470400 0                  LDP0    DIMS$
        31 022534   000001 756100                    STQ     1,,PR0

     4024    27768
     4025    27769    5          DIM# = (HIER_STK.DIMS$(I) -> LTS.N - %MIN_DIM_SIZE)

  27769 31 022535   000520 236000 0                  LDQ     I
        31 022536   000005 402007                    MPY     5,DL
        31 022537   000001 470406 xsym               LDP0    HIER_STK+1,QL
        31 022540   000000 236100                    LDQ     0,,PR0
        31 022541   777777 376007                    ANQ     -1,DL
        31 022542   000005 136007                    SBLQ    5,DL
        31 022543   000003 506007                    DIV     3,DL
        31 022544   000001 036007                    ADLQ    1,DL
        31 022545   000522 756000 0                  STQ     DIM#

     4026    27770    5               / %NO_WORDS_PER_DIM + 1;
     4027    27771
     4028    27772
     4029    27773               %FILL_DIMS (@DIMS$   = DIMS$,
     4030    27774                           @SS#     = DIM#,
     4031    27775                           @DIM     = REDUCED_DATA.OCCURS.INT2);
PL6.E3A0      #001=Z8DR$RECORD_DECL File=Z8DR.:Z8A6TSI                           SAT 08/09/97 11:18 Page:683

  27777 31 022546   000003 402007                    MPY     3,DL
        31 022547   000000 621006                    EAX1    0,QL
        31 022550   000000 236000 32                 LDQ     0
        31 022551   000524 470400 0                  LDP0    DIMS$
        31 022552   000004 756111                    STQ     4,X1,PR0

  27778 31 022553   000522 236000 0                  LDQ     DIM#
        31 022554   000003 402007                    MPY     3,DL
        31 022555   000524 470400 0                  LDP0    DIMS$
        31 022556   000002 450106                    STZ     2,QL,PR0

  27779 31 022557   000522 236000 0                  LDQ     DIM#
        31 022560   000003 402007                    MPY     3,DL
        31 022561   000054 235000 0                  LDA     REDUCED_DATA+17
        31 022562   000524 470400 0                  LDP0    DIMS$
        31 022563   000003 755106                    STA     3,QL,PR0

     4032    27782
     4033    27783    6          DO J = 1 TO DIM# - 1;

  27783 31 022564   000001 235007                    LDA     1,DL
        31 022565   000521 755000 0                  STA     J
        31 022566   022616 710000 31                 TRA     s:27794+1

     4034    27784                 %FILL_DIMS (@DIMS$   = DIMS$,
     4035    27785                             @SS#     = J,
     4036    27786                             @INDEX$  = "HIER_STK.DIMS$(I) -> DIMS.D.INDEX$(J)",
     4037    27787                             @DIM     = "HIER_STK.DIMS$(I) -> DIMS.D.DIM(J)");

  27789 31 022567   000521 236000 0                  LDQ     J
        31 022570   000003 402007                    MPY     3,DL
        31 022571   000000 620006                    EAX0    0,QL
        31 022572   000520 236000 0                  LDQ     I
        31 022573   000005 402007                    MPY     5,DL
        31 022574   000001 470406 xsym               LDP0    HIER_STK+1,QL
        31 022575   000004 236110                    LDQ     4,X0,PR0
PL6.E3A0      #001=Z8DR$RECORD_DECL File=Z8DR.:Z8A6TSI                           SAT 08/09/97 11:18 Page:684
        31 022576   000524 470400 0                  LDP0    DIMS$
        31 022577   000004 756110                    STQ     4,X0,PR0

  27790 31 022600   000521 236000 0                  LDQ     J
        31 022601   000003 402007                    MPY     3,DL
        31 022602   000524 470400 0                  LDP0    DIMS$
        31 022603   000002 450106                    STZ     2,QL,PR0

  27791 31 022604   000521 236000 0                  LDQ     J
        31 022605   000003 402007                    MPY     3,DL
        31 022606   000000 620006                    EAX0    0,QL
        31 022607   000520 236000 0                  LDQ     I
        31 022610   000005 402007                    MPY     5,DL
        31 022611   000001 470406 xsym               LDP0    HIER_STK+1,QL
        31 022612   000524 471400 0                  LDP1    DIMS$
        31 022613   000003 235110                    LDA     3,X0,PR0
        31 022614   100003 755110                    STA     3,X0,PR1

     4038    27794    6          END;

  27794 31 022615   000521 054000 0                  AOS     J
        31 022616   000521 236000 0                  LDQ     J
        31 022617   000522 116000 0                  CMPQ    DIM#
        31 022620   022567 604000 31                 TMI     s:27789

     4039    27795    5        END;

     4040    27796
     4041    27797    4        REDUCED_DATA.DIMS$ = DIMS$;

  27797 31 022621   000524 236000 0                  LDQ     DIMS$
        31 022622   000051 756000 0                  STQ     REDUCED_DATA+14

     4042    27798    4        REDUCED_DATA.B.DIMENSIONED = TRUE;

  27798 31 022623   020000 236003                    LDQ     8192,DU
        31 022624   000060 256000 0                  ORSQ    REDUCED_DATA+21
PL6.E3A0      #001=Z8DR$RECORD_DECL File=Z8DR.:Z8A6TSI                           SAT 08/09/97 11:18 Page:685

     4043    27799    4        REDUCED_DATA.B.OCCURS      = TRUE;

  27799 31 022625   000020 236003                    LDQ     16,DU
        31 022626   000060 256000 0                  ORSQ    REDUCED_DATA+21

     4044    27800
     4045    27801    4        IF CDECL$ -> LX_REC_DECL.P.INDEXED$ ~= ADDR(NIL) THEN

  27801 31 022627   000160 470400 0                  LDP0    CDECL$
        31 022630   000017 236100                    LDQ     15,,PR0
        31 022631   000000 116000 32                 CMPQ    0
        31 022632   022642 600000 31                 TZE     s:27806

     4046    27802    4          CALL CREATE_INDEXED_BY_ITEMS (DIMS$,

  27802 31 022633   000160 236000 0                  LDQ     CDECL$
        31 022634   000017 036003                    ADLQ    15,DU
        31 022635   000504 756000 0                  STQ     @INDEX_LIST$
        31 022636   000530 237000 32                 LDAQ    344
        31 022637   000502 757000 0                  STAQ    @DIMS$
        31 022640   022170 701000 31                 TSX1    CREATE_INDEXED_BY_ITEMS
        31 022641   000000 011000                    NOP     0

     4047    27803    4                                        DIM#,
     4048    27804    4                                        CDECL$ -> LX_REC_DECL.P.INDEXED$);
     4049    27805
     4050    27806    4        CALL Z8DO$LINK_WITH_LTS (REDUCED_DATA.LTS$,

  27806 31 022642   000532 630400 32                 EPPR0   346
        31 022643   000011 631400 32                 EPPR1   9
        31 022644   000000 701000 xent               TSX1    Z8DO$LINK_WITH_LTS
        31 022645   000000 011000                    NOP     0

     4051    27807    4                                 DIMS$);
     4052    27808
     4053    27809    4   END PROCESS_OCCURS;
PL6.E3A0      #001=Z8DR$RECORD_DECL File=Z8DR.:Z8A6TSI                           SAT 08/09/97 11:18 Page:686

  27809 31 022646   000517 221200 0                  LDX1  ! FIRST_INDEX$+1
        31 022647   000001 702211                    TSX2  ! 1,X1

     4054    27810        %EJECT;
PL6.E3A0      #001=Z8DR$RECORD_DECL File=Z8DR.:Z8A6TSI                           SAT 08/09/97 11:18 Page:687
     4055    27811        /*=================*/
     4056    27812    3     PROCESS_DEPENDING: PROC;

  27812 31 022650   000525 741200 0     PROCESS_DEP* STX1  ! DIMS$+1

     4057    27813        /*=================*/
     4058    27814
     4059    27815
     4060    27816    4   DCL DEPENDING$                PTR;
     4061    27817    4   DCL I                         SBIN WORD;
     4062    27818    4   DCL LINE#                     SBIN WORD;
     4063    27819    4   DCL COLUMN#                   SBIN WORD;
     4064    27820
     4065    27821
     4066    27822           %NEW (@POINTER = DEPENDING$,
     4067    27823                 @TEMPLATE = DEFERED_QUAL_ID);

  27829 31 022651   000534 630400 32                 EPPR0   348
        31 022652   000011 631400 32                 EPPR1   9
        31 022653   000000 701000 xent               TSX1    Z8ED$NEW_HEAP
        31 022654   000000 011000                    NOP     0

     4068    27833
     4069    27834    4      LINE#   = CDECL$ -> LX_REC_DECL.P.DATA_NAME$ -> LX_ITEM.LINE;

  27834 31 022655   000160 470400 0                  LDP0    CDECL$
        31 022656   000002 471500                    LDP1    2,,PR0
        31 022657   100005 235100                    LDA     5,,PR1
        31 022660   000530 755000 0                  STA     LINE#

     4070    27835    4      COLUMN# = CDECL$ -> LX_REC_DECL.P.DATA_NAME$ -> LX_ITEM.COLUMN;

  27835 31 022661   100006 235100                    LDA     6,,PR1
        31 022662   000531 755000 0                  STA     COLUMN#

     4071    27836
     4072    27837           %INIT_DEFERED_QUAL_ID (@POINTER = DEPENDING$,
PL6.E3A0      #001=Z8DR$RECORD_DECL File=Z8DR.:Z8A6TSI                           SAT 08/09/97 11:18 Page:688
     4073    27838                                  @QUAL_ID_LIST$ = REDUCED_DATA.OCCURS.DEPENDING$,
     4074    27839                                  @ASSOC_VAR_ST$ = NEW_ST$,
     4075    27840                                  @LINE          = LINE#,
     4076    27841                                  @COLUMN        = COLUMN#,
     4077    27842                                  @LINK          = O1COM.OCCURS_DEPENDING$);

  27844 31 022663   000015 220003                    LDX0    13,DU
        31 022664   000526 473400 0                  LDP3    DEPENDING$
        31 022665   300000 740100                    STX0    0,,PR3

  27845 31 022666   000055 236000 0                  LDQ     REDUCED_DATA+18
        31 022667   000526 471400 0                  LDP1    DEPENDING$
        31 022670   100001 756100                    STQ     1,,PR1

  27846 31 022671   000413 236000 0                  LDQ     NEW_ST$
        31 022672   000526 471400 0                  LDP1    DEPENDING$
        31 022673   100002 756100                    STQ     2,,PR1

  27847 31 022674   000000 236000 32                 LDQ     0
        31 022675   000526 471400 0                  LDP1    DEPENDING$
        31 022676   100003 756100                    STQ     3,,PR1

  27848 31 022677   000000 221003                    LDX1    0,DU
        31 022700   000526 471400 0                  LDP1    DEPENDING$
        31 022701   100000 441100                    SXL1    0,,PR1

  27849 31 022702   000526 471400 0                  LDP1    DEPENDING$
        31 022703   000044 236000 32                 LDQ     36
        31 022704   100000 356100                    ANSQ    0,,PR1

  27850 31 022705   000530 235000 0                  LDA     LINE#
        31 022706   000526 471400 0                  LDP1    DEPENDING$
        31 022707   100005 755100                    STA     5,,PR1

  27851 31 022710   000531 235000 0                  LDA     COLUMN#
        31 022711   000526 471400 0                  LDP1    DEPENDING$
        31 022712   100006 755100                    STA     6,,PR1
PL6.E3A0      #001=Z8DR$RECORD_DECL File=Z8DR.:Z8A6TSI                           SAT 08/09/97 11:18 Page:689

  27852 31 022713   000034 236000 xsym               LDQ     O1COM+28
        31 022714   000526 471400 0                  LDP1    DEPENDING$
        31 022715   100007 756100                    STQ     7,,PR1

     4078    27855
     4079    27856    4      O1COM.OCCURS_DEPENDING$ = DEPENDING$;

  27856 31 022716   000526 236000 0                  LDQ     DEPENDING$
        31 022717   000034 756000 xsym               STQ     O1COM+28

     4080    27857
     4081    27858    5      DO I = HIER_STK_PTR - 1 DOWNTO %LEVEL_01;

  27858 31 022720   000000 235000 xsym               LDA     HIER_STK_PTR
        31 022721   000001 135007                    SBLA    1,DL
        31 022722   000527 755000 0                  STA     I
        31 022723   022734 710000 31                 TRA     s:27860+2

     4082    27859    5        HIER_STK.QLT$ (I) -> QLT.ST$ -> SCALAR.B.OCCURS_DEPENDING = TRUE;

  27859 31 022724   000527 236000 0                  LDQ     I
        31 022725   000005 402007                    MPY     5,DL
        31 022726   000000 470406 xsym               LDP0    HIER_STK,QL
        31 022727   000004 471500                    LDP1    4,,PR0
        31 022730   000200 236003                    LDQ     128,DU
        31 022731   100003 256100                    ORSQ    3,,PR1

     4083    27860    5      END;

  27860 31 022732   000001 336007                    LCQ     1,DL
        31 022733   000527 056000 0                  ASQ     I
        31 022734   000527 235000 0                  LDA     I
        31 022735   022724 605400 31                 TPNZ    s:27859

     4084    27861
     4085    27862    4      REDUCED_DATA.DIMS$ -> DIMS.OD.INT1 = REDUCED_DATA.OCCURS.INT1;
PL6.E3A0      #001=Z8DR$RECORD_DECL File=Z8DR.:Z8A6TSI                           SAT 08/09/97 11:18 Page:690

  27862 31 022736   000051 470400 0                  LDP0    REDUCED_DATA+14
        31 022737   000053 236000 0                  LDQ     REDUCED_DATA+16
        31 022740   000002 756100                    STQ     2,,PR0

     4086    27863    4      REDUCED_DATA.DIMS$ -> DIMS.OD.INT2 = REDUCED_DATA.OCCURS.INT2;

  27863 31 022741   000051 470400 0                  LDP0    REDUCED_DATA+14
        31 022742   000054 236000 0                  LDQ     REDUCED_DATA+17
        31 022743   000003 756100                    STQ     3,,PR0

     4087    27864
     4088    27865    4      CALL Z8EU$DELETE_LIST_ITEM (CDECL$ -> LX_REC_DECL.P.OCCURS$,

  27865 31 022744   000160 470400 0                  LDP0    CDECL$
        31 022745   000007 471500                    LDP1    7,,PR0
        31 022746   100001 633500                    EPPR3   1,,PR1
        31 022747   000573 453400 0                  STP3    P$+2
        31 022750   000160 236000 0                  LDQ     CDECL$
        31 022751   000007 036003                    ADLQ    7,DU
        31 022752   000572 756000 0                  STQ     P$+1
        31 022753   000572 630400 0                  EPPR0   P$+1
        31 022754   000011 631400 32                 EPPR1   9
        31 022755   000000 701000 xent               TSX1    Z8EU$DELETE_LIST_ITEM
        31 022756   000000 011000                    NOP     0

     4089    27866    4                                  CDECL$ -> LX_REC_DECL.P.OCCURS$ ->
     4090    27867    4                                  LX_LIST.TAIL$);
     4091    27868
     4092    27869    4   END PROCESS_DEPENDING;

  27869 31 022757   000525 221200 0                  LDX1  ! DIMS$+1
        31 022760   000001 702211                    TSX2  ! 1,X1

     4093    27870        %EJECT;
PL6.E3A0      #001=Z8DR$RECORD_DECL File=Z8DR.:Z8A6TSI                           SAT 08/09/97 11:18 Page:691
     4094    27871        /*=================*/
     4095    27872    3     SAVE_GROUP_VALUES: PROC;

  27872 31 022761   000532 741200 0     SAVE_GROUP_* STX1  ! COLUMN#+1

     4096    27873        /*=================*/
     4097    27874
     4098    27875    4   DCL CONST$             PTR;
     4099    27876    4   DCL VALUE$             PTR;
     4100    27877    4   DCL VAL$               PTR;
     4101    27878
     4102    27879
     4103    27880    4        IF NEW_ST$ -> VARIABLE.B.ELEMENTARY

  27880 31 022762   000413 470400 0                  LDP0    NEW_ST$
        31 022763   000003 236100                    LDQ     3,,PR0
        31 022764   010000 316003                    CANQ    4096,DU
        31 022765   022772 601000 31                 TNZ     s:27882
        31 022766   000160 471400 0                  LDP1    CDECL$
        31 022767   100010 236100                    LDQ     8,,PR1
        31 022770   000000 116000 32                 CMPQ    0
        31 022771   022773 601000 31                 TNZ     s:27891

     4104    27881    4        OR CDECL$ -> LX_REC_DECL.P.VALUE$ = ADDR(NIL) THEN
     4105    27882    4          RETURN;

  27882 31 022772   000001 702211                    TSX2  ! 1,X1

     4106    27883
     4107    27884             %NEW (@POINTER  = VALUE$,
     4108    27885                   @TEMPLATE = DEFERED_QUAL_ID);

  27891 31 022773   000536 630400 32                 EPPR0   350
        31 022774   000011 631400 32                 EPPR1   9
        31 022775   000000 701000 xent               TSX1    Z8ED$NEW_HEAP
        31 022776   000000 011000                    NOP     0

PL6.E3A0      #001=Z8DR$RECORD_DECL File=Z8DR.:Z8A6TSI                           SAT 08/09/97 11:18 Page:692
     4109    27895
     4110    27896    4        CONST$ = CDECL$ -> LX_REC_DECL.P.VALUE$ ->

  27896 31 022777   000160 470400 0                  LDP0    CDECL$
        31 023000   000010 471500                    LDP1    8,,PR0
        31 023001   100004 473500                    LDP3    4,,PR1
        31 023002   300004 236100                    LDQ     4,,PR3
        31 023003   000533 756000 0                  STQ     CONST$

     4111    27897    4                 LX_LIST.HEAD$ -> LX_LIST.HEAD$;
     4112    27898
     4113    27899    5        DO CASE (CONST$ -> LX_ITEM.SYMBOL);

  27899 31 023004   000533 471400 0                  LDP1    CONST$
        31 023005   100003 235100                    LDA     3,,PR1
        31 023006   000027 115007                    CMPA    23,DL
        31 023007   023011 602005 31                 TNC     s:27899+5,AL
        31 023010   023053 710000 31                 TRA     s:27913
        31 023011   023053 710000 31                 TRA     s:27913
        31 023012   023053 710000 31                 TRA     s:27913
        31 023013   023040 710000 31                 TRA     s:27902
        31 023014   023053 710000 31                 TRA     s:27913
        31 023015   023053 710000 31                 TRA     s:27913
        31 023016   023053 710000 31                 TRA     s:27913
        31 023017   023053 710000 31                 TRA     s:27913
        31 023020   023053 710000 31                 TRA     s:27913
        31 023021   023053 710000 31                 TRA     s:27913
        31 023022   023053 710000 31                 TRA     s:27913
        31 023023   023053 710000 31                 TRA     s:27913
        31 023024   023053 710000 31                 TRA     s:27913
        31 023025   023053 710000 31                 TRA     s:27913
        31 023026   023053 710000 31                 TRA     s:27913
        31 023027   023053 710000 31                 TRA     s:27913
        31 023030   023053 710000 31                 TRA     s:27913
        31 023031   023053 710000 31                 TRA     s:27913
        31 023032   023053 710000 31                 TRA     s:27913
        31 023033   023053 710000 31                 TRA     s:27913
PL6.E3A0      #001=Z8DR$RECORD_DECL File=Z8DR.:Z8A6TSI                           SAT 08/09/97 11:18 Page:693
        31 023034   023053 710000 31                 TRA     s:27913
        31 023035   023053 710000 31                 TRA     s:27913
        31 023036   023040 710000 31                 TRA     s:27902
        31 023037   023040 710000 31                 TRA     s:27902

     4114    27900    5          CASE (%NUMBER, %NUMERIC_LITERAL, %NUMBER_OR_PARAGRAPH);

     4115    27901
     4116    27902    5              CALL Z8AE$ERROR (%E$VALUE_NUMERIC_ERR,

  27902 31 023040   000006 036003                    ADLQ    6,DU
        31 023041   000574 756000 0                  STQ     P$+3
        31 023042   000533 236000 0                  LDQ     CONST$
        31 023043   000005 036003                    ADLQ    5,DU
        31 023044   000127 235000 32                 LDA     87
        31 023045   000572 757000 0                  STAQ    P$+1
        31 023046   000572 630400 0                  EPPR0   P$+1
        31 023047   000001 631400 32                 EPPR1   1
        31 023050   000000 701000 xent               TSX1    Z8AE$ERROR
        31 023051   000000 011000                    NOP     0
        31 023052   023053 710000 31                 TRA     s:27913

     4117    27903    5                               CONST$ -> LX_ITEM.LINE,
     4118    27904    5                               CONST$ -> LX_ITEM.COLUMN);
     4119    27905    5          CASE (ELSE);

     4120    27906                 /* OK */
     4121    27907    5        END; /* DO CASE */

     4122    27908
     4123    27909             %SET_PHASE_1_POSITION (@LINE    = CONST$ -> LX_ITEM.LINE,
     4124    27910                                    @COLUMN  = CONST$ -> LX_ITEM.COLUMN,
     4125    27911                                    @TYPE    = %S_TYPE_VALUE_IS);

  27913 31 023053   000533 470400 0                  LDP0    CONST$
        31 023054   000005 235100                    LDA     5,,PR0
        31 023055   000007 755000 xsym               STA     O1COM+7
PL6.E3A0      #001=Z8DR$RECORD_DECL File=Z8DR.:Z8A6TSI                           SAT 08/09/97 11:18 Page:694

  27914 31 023056   000006 235100                    LDA     6,,PR0
        31 023057   000010 755000 xsym               STA     O1COM+8

  27915 31 023060   000011 236000 xsym               LDQ     O1COM+9
        31 023061   023076 600000 31                 TZE     s:28297

  27950 31 023062   000541 236000 32                 LDQ     353
        31 023063   000572 756000 0                  STQ     P$+1
        31 023064   000572 631400 0                  EPPR1   P$+1
        31 023065   000577 451400 0                  STP1    P$+6
        31 023066   000542 236000 32                 LDQ     354
        31 023067   000576 756000 0                  STQ     P$+5
        31 023070   000544 237000 32                 LDAQ    356
        31 023071   000574 757000 0                  STAQ    P$+3
        31 023072   000574 630400 0                  EPPR0   P$+3
        31 023073   000076 631400 32                 EPPR1   62
        31 023074   000000 701000 xent               TSX1    Z8AN$NEW_ILL
        31 023075   000000 011000                    NOP     0

  28297 31 023076   000076 235007                    LDA     62,DL
        31 023077   000011 755000 xsym               STA     O1COM+9

     4126    28300
     4127    28301             %NEW_ILL (@ID     = %PRESET,
     4128    28302                       @LOP    = NEW_ST$,
     4129    28303                       @ROP    = NEW_ST$); /* Temporarily assigned, will BE
     4130    28304                                              corrected in Z8DQ$GROUP_VALUE */

  28524 31 023100   000541 236000 32                 LDQ     353
        31 023101   000572 756000 0                  STQ     P$+1
        31 023102   000572 630400 0                  EPPR0   P$+1
        31 023103   000577 450400 0                  STP0    P$+6
        31 023104   000542 236000 32                 LDQ     354
        31 023105   000576 756000 0                  STQ     P$+5
        31 023106   000550 237000 32                 LDAQ    360
        31 023107   000574 757000 0                  STAQ    P$+3
PL6.E3A0      #001=Z8DR$RECORD_DECL File=Z8DR.:Z8A6TSI                           SAT 08/09/97 11:18 Page:695
        31 023110   000574 630400 0                  EPPR0   P$+3
        31 023111   000076 631400 32                 EPPR1   62
        31 023112   000000 701000 xent               TSX1    Z8AN$NEW_ILL
        31 023113   000000 011000                    NOP     0

  28526 31 023114   000000 220003                    LDX0    0,DU
        31 023115   000000 470400 13                 LDP0    ILL$
        31 023116   000000 440100                    SXL0    0,,PR0

  28530 31 023117   000413 236000 0                  LDQ     NEW_ST$
        31 023120   000000 470400 13                 LDP0    ILL$
        31 023121   000001 756100                    STQ     1,,PR0

  28531 31 023122   000413 236000 0                  LDQ     NEW_ST$
        31 023123   000002 756100                    STQ     2,,PR0

     4131    28683
     4132    28684
     4133    28685             %INIT_DEFERED_QUAL_ID (@POINTER       = VALUE$,
     4134    28686                                    @QUAL_ID_LIST$ = CONST$,
     4135    28687                                    @ASSOC_VAR_ST$ = NEW_ST$,
     4136    28688                                    @ILL$          = ILL$,
     4137    28689                                    @LINE          = CONST$ -> LX_ITEM.LINE,
     4138    28690                                    @COLUMN        = CONST$ -> LX_ITEM.COLUMN,
     4139    28691                                    @LINK          = "ADDR(NIL)");

  28693 31 023124   000015 221003                    LDX1    13,DU
        31 023125   000534 471400 0                  LDP1    VALUE$
        31 023126   100000 741100                    STX1    0,,PR1

  28694 31 023127   000533 236000 0                  LDQ     CONST$
        31 023130   000534 470400 0                  LDP0    VALUE$
        31 023131   000001 756100                    STQ     1,,PR0

  28695 31 023132   000413 236000 0                  LDQ     NEW_ST$
        31 023133   000534 470400 0                  LDP0    VALUE$
        31 023134   000002 756100                    STQ     2,,PR0
PL6.E3A0      #001=Z8DR$RECORD_DECL File=Z8DR.:Z8A6TSI                           SAT 08/09/97 11:18 Page:696

  28696 31 023135   000000 236000 13                 LDQ     ILL$
        31 023136   000534 470400 0                  LDP0    VALUE$
        31 023137   000003 756100                    STQ     3,,PR0

  28697 31 023140   000000 222003                    LDX2    0,DU
        31 023141   000534 470400 0                  LDP0    VALUE$
        31 023142   000000 442100                    SXL2    0,,PR0

  28698 31 023143   000534 470400 0                  LDP0    VALUE$
        31 023144   000044 236000 32                 LDQ     36
        31 023145   000000 356100                    ANSQ    0,,PR0

  28699 31 023146   000533 470400 0                  LDP0    CONST$
        31 023147   000534 471400 0                  LDP1    VALUE$
        31 023150   000005 235100                    LDA     5,,PR0
        31 023151   100005 755100                    STA     5,,PR1

  28700 31 023152   000533 470400 0                  LDP0    CONST$
        31 023153   000534 471400 0                  LDP1    VALUE$
        31 023154   000006 235100                    LDA     6,,PR0
        31 023155   100006 755100                    STA     6,,PR1

  28701 31 023156   000000 236000 32                 LDQ     0
        31 023157   000534 470400 0                  LDP0    VALUE$
        31 023160   000007 756100                    STQ     7,,PR0

     4140    28704
     4141    28705    4        HIER_STK.B.VALUE_PRESENTED(HIER_STK_PTR) = TRUE;

  28705 31 023161   000000 236000 xsym               LDQ     HIER_STK_PTR
        31 023162   000005 402007                    MPY     5,DL
        31 023163   000000 623006                    EAX3    0,QL
        31 023164   000020 236007                    LDQ     16,DL
        31 023165   000002 256013 xsym               ORSQ    HIER_STK+2,X3

     4142    28706
PL6.E3A0      #001=Z8DR$RECORD_DECL File=Z8DR.:Z8A6TSI                           SAT 08/09/97 11:18 Page:697
     4143    28707    4        IF O1COM.VALUE$ = ADDR(NIL) THEN

  28707 31 023166   000043 236000 xsym               LDQ     O1COM+35
        31 023167   000000 116000 32                 CMPQ    0
        31 023170   023174 601000 31                 TNZ     s:28711

     4144    28708    4          O1COM.VALUE$ = VALUE$;

  28708 31 023171   000534 236000 0                  LDQ     VALUE$
        31 023172   000043 756000 xsym               STQ     O1COM+35
        31 023173   023207 710000 31                 TRA     s:28720

     4145    28709    4        ELSE
     4146    28710    5          DO;

     4147    28711    5            VAL$ = O1COM.VALUE$;

  28711 31 023174   000535 756000 0                  STQ     VAL$

     4148    28712
     4149    28713    6            DO WHILE (VAL$ -> DEFERED_QUAL_ID.LINK ~= ADDR(NIL));

  28713 31 023175   023201 710000 31                 TRA     s:28715

     4150    28714    6              VAL$ = VAL$ -> DEFERED_QUAL_ID.LINK;

  28714 31 023176   000535 470400 0                  LDP0    VAL$
        31 023177   000007 236100                    LDQ     7,,PR0
        31 023200   000535 756000 0                  STQ     VAL$

     4151    28715    6            END;

  28715 31 023201   000535 470400 0                  LDP0    VAL$
        31 023202   000007 236100                    LDQ     7,,PR0
        31 023203   000000 116000 32                 CMPQ    0
        31 023204   023176 601000 31                 TNZ     s:28714

PL6.E3A0      #001=Z8DR$RECORD_DECL File=Z8DR.:Z8A6TSI                           SAT 08/09/97 11:18 Page:698
     4152    28716
     4153    28717    5            VAL$ -> DEFERED_QUAL_ID.LINK = VALUE$;

  28717 31 023205   000534 236000 0                  LDQ     VALUE$
        31 023206   000007 756100                    STQ     7,,PR0

     4154    28718    5          END;

     4155    28719
     4156    28720    4        CALL Z8EU$DELETE_LIST_ITEM (CDECL$ -> LX_REC_DECL.P.VALUE$ ->

  28720 31 023207   000160 470400 0                  LDP0    CDECL$
        31 023210   000010 471500                    LDP1    8,,PR0
        31 023211   000547 236000 32                 LDQ     359
        31 023212   000573 756000 0                  STQ     P$+2
        31 023213   100004 633500                    EPPR3   4,,PR1
        31 023214   000572 453400 0                  STP3    P$+1
        31 023215   000572 630400 0                  EPPR0   P$+1
        31 023216   000011 631400 32                 EPPR1   9
        31 023217   000000 701000 xent               TSX1    Z8EU$DELETE_LIST_ITEM
        31 023220   000000 011000                    NOP     0

     4157    28721    4                                    LX_LIST.HEAD$,
     4158    28722    4                                    CONST$);
     4159    28723
     4160    28724    4   END SAVE_GROUP_VALUES;

  28724 31 023221   000532 221200 0                  LDX1  ! COLUMN#+1
        31 023222   000001 702211                    TSX2  ! 1,X1

     4161    28725        %EJECT;
PL6.E3A0      #001=Z8DR$RECORD_DECL File=Z8DR.:Z8A6TSI                           SAT 08/09/97 11:18 Page:699
     4162    28726        /*===========*/
     4163    28727    3     PROCESS_KEY: PROC;

  28727 31 023223   000536 741200 0     PROCESS_KEY  STX1  ! VAL$+1

     4164    28728        /*===========*/
     4165    28729
     4166    28730
     4167    28731    4   DCL KEY$                      PTR;
     4168    28732    4   DCL LINE#                     SBIN WORD;
     4169    28733    4   DCL COLUMN#                   SBIN WORD;
     4170    28734
     4171    28735
     4172    28736           %NEW (@POINTER   = KEY$,
     4173    28737                 @TEMPLATE  = DEFERED_QUAL_ID);

  28743 31 023224   000552 630400 32                 EPPR0   362
        31 023225   000011 631400 32                 EPPR1   9
        31 023226   000000 701000 xent               TSX1    Z8ED$NEW_HEAP
        31 023227   000000 011000                    NOP     0

     4174    28747
     4175    28748    4      LINE#     = CDECL$ -> LX_REC_DECL.P.KEY$ ->

  28748 31 023230   000160 470400 0                  LDP0    CDECL$
        31 023231   000020 471500                    LDP1    16,,PR0
        31 023232   100004 473500                    LDP3    4,,PR1
        31 023233   300004 474500                    LDP4    4,,PR3
        31 023234   400005 235100                    LDA     5,,PR4
        31 023235   000540 755000 0                  STA     LINE#

     4176    28749    4                  LX_LIST.HEAD$ -> LX_LIST.HEAD$ -> LX_ITEM.LINE;
     4177    28750
     4178    28751    4      COLUMN#   = CDECL$ -> LX_REC_DECL.P.KEY$ ->

  28751 31 023236   400006 235100                    LDA     6,,PR4
        31 023237   000541 755000 0                  STA     COLUMN#
PL6.E3A0      #001=Z8DR$RECORD_DECL File=Z8DR.:Z8A6TSI                           SAT 08/09/97 11:18 Page:700

     4179    28752    4                  LX_LIST.HEAD$ -> LX_LIST.HEAD$ -> LX_ITEM.COLUMN;
     4180    28753
     4181    28754           %INIT_DEFERED_QUAL_ID (@POINTER       = KEY$,
     4182    28755                                  @QUAL_ID_LIST$ = CDECL$ -> LX_REC_DECL.P.KEY$,
     4183    28756                                  @ASSOC_VAR_ST$ = NEW_ST$,
     4184    28757                                  @LINE          = LINE#,
     4185    28758                                  @COLUMN        = COLUMN#,
     4186    28759                                  @LINK          = O1COM.KEYS$);

  28761 31 023240   000015 220003                    LDX0    13,DU
        31 023241   000537 475400 0                  LDP5    KEY$
        31 023242   500000 740100                    STX0    0,,PR5

  28762 31 023243   000020 236100                    LDQ     16,,PR0
        31 023244   000537 471400 0                  LDP1    KEY$
        31 023245   100001 756100                    STQ     1,,PR1

  28763 31 023246   000413 236000 0                  LDQ     NEW_ST$
        31 023247   000537 471400 0                  LDP1    KEY$
        31 023250   100002 756100                    STQ     2,,PR1

  28764 31 023251   000000 236000 32                 LDQ     0
        31 023252   000537 471400 0                  LDP1    KEY$
        31 023253   100003 756100                    STQ     3,,PR1

  28765 31 023254   000000 221003                    LDX1    0,DU
        31 023255   000537 471400 0                  LDP1    KEY$
        31 023256   100000 441100                    SXL1    0,,PR1

  28766 31 023257   000537 471400 0                  LDP1    KEY$
        31 023260   000044 236000 32                 LDQ     36
        31 023261   100000 356100                    ANSQ    0,,PR1

  28767 31 023262   000540 235000 0                  LDA     LINE#
        31 023263   000537 471400 0                  LDP1    KEY$
        31 023264   100005 755100                    STA     5,,PR1
PL6.E3A0      #001=Z8DR$RECORD_DECL File=Z8DR.:Z8A6TSI                           SAT 08/09/97 11:18 Page:701

  28768 31 023265   000541 235000 0                  LDA     COLUMN#
        31 023266   000537 471400 0                  LDP1    KEY$
        31 023267   100006 755100                    STA     6,,PR1

  28769 31 023270   000040 236000 xsym               LDQ     O1COM+32
        31 023271   000537 471400 0                  LDP1    KEY$
        31 023272   100007 756100                    STQ     7,,PR1

     4187    28772
     4188    28773    4      O1COM.KEYS$ = KEY$;

  28773 31 023273   000537 236000 0                  LDQ     KEY$
        31 023274   000040 756000 xsym               STQ     O1COM+32

     4189    28774
     4190    28775    4      CDECL$ -> LX_REC_DECL.P.KEY$ = ADDR(NIL);

  28775 31 023275   000000 236000 32                 LDQ     0
        31 023276   000020 756100                    STQ     16,,PR0

     4191    28776
     4192    28777    4   END PROCESS_KEY;

  28777 31 023277   000536 221200 0                  LDX1  ! VAL$+1
        31 023300   000001 702211                    TSX2  ! 1,X1

     4193    28778        %EJECT;
PL6.E3A0      #001=Z8DR$RECORD_DECL File=Z8DR.:Z8A6TSI                           SAT 08/09/97 11:18 Page:702
     4194    28779        /*===============*/
     4195    28780    3     PROCESS_RENAMES: PROC;

  28780 31 023301   000542 741200 0     PROCESS_REN* STX1  ! COLUMN#+1

     4196    28781        /*===============*/
     4197    28782
     4198    28783
     4199    28784
     4200    28785    4      IF CDECL$ -> LX_REC_DECL.P.RENAMES$ = ADDR(NIL) THEN

  28785 31 023302   000160 470400 0                  LDP0    CDECL$
        31 023303   000006 236100                    LDQ     6,,PR0
        31 023304   000000 116000 32                 CMPQ    0
        31 023305   023307 601000 31                 TNZ     s:28869

     4201    28786    4        RETURN;

  28786 31 023306   000001 702211                    TSX2  ! 1,X1

     4202    28787
     4203    28788           %NEW_RENAMES (@POINTER = REDUCED_DATA.RENAMES.NEW_RENAMES$,
     4204    28789                         @START$  = REDUCED_DATA.RENAMES.START_ST$,
     4205    28790                         @END$    = REDUCED_DATA.RENAMES.END_ST$);

  28869 31 023307   000002 236000 8                  LDQ     LTS_+2
        31 023310   000003 036007                    ADLQ    3,DL
        31 023311   000003 116000 8                  CMPQ    LTS_+3
        31 023312   023323 604000 31                 TMI     s:28871

  28870 31 023313   000023 236000 32                 LDQ     19
        31 023314   000572 756000 0                  STQ     P$+1
        31 023315   000572 631400 0                  EPPR1   P$+1
        31 023316   000573 451400 0                  STP1    P$+2
        31 023317   000573 630400 0                  EPPR0   P$+2
        31 023320   000005 631400 32                 EPPR1   5
        31 023321   000000 701000 xent               TSX1    Z8AR$RESERVER
PL6.E3A0      #001=Z8DR$RECORD_DECL File=Z8DR.:Z8A6TSI                           SAT 08/09/97 11:18 Page:703
        31 023322   000000 011000                    NOP     0

  28871 31 023323   000002 236000 8                  LDQ     LTS_+2
        31 023324   000022 736000                    QLS     18
        31 023325   000001 036000 8                  ADLQ    LTS_+1
        31 023326   000045 756000 0                  STQ     REDUCED_DATA+10

  28872 31 023327   000003 236007                    LDQ     3,DL
        31 023330   000002 056000 8                  ASQ     LTS_+2

  28873 31 023331   001117 220003                    LDX0    591,DU
        31 023332   000045 470400 0                  LDP0    REDUCED_DATA+10
        31 023333   000000 740100                    STX0    0,,PR0

  28879 31 023334   000043 236000 0                  LDQ     REDUCED_DATA+8
        31 023335   000045 470400 0                  LDP0    REDUCED_DATA+10
        31 023336   000001 756100                    STQ     1,,PR0

  28880 31 023337   000044 236000 0                  LDQ     REDUCED_DATA+9
        31 023340   000045 470400 0                  LDP0    REDUCED_DATA+10
        31 023341   000002 756100                    STQ     2,,PR0

     4206    28883
     4207    28884    4      IF REDUCED_DATA.RENAMES.END_ST$ = ADDR(NIL) THEN

  28884 31 023342   000044 236000 0                  LDQ     REDUCED_DATA+9
        31 023343   000000 116000 32                 CMPQ    0
        31 023344   023406 601000 31                 TNZ     s:28905

     4208    28885    5        DO;

     4209    28886    5          REDUCED_DATA.B.ELEMENTARY = TRUE;

  28886 31 023345   400000 236003                    LDQ     -131072,DU
        31 023346   000060 256000 0                  ORSQ    REDUCED_DATA+21

     4210    28887    5          REDUCED_DATA.LTS$         = REDUCED_DATA.RENAMES.START_ST$ ->
PL6.E3A0      #001=Z8DR$RECORD_DECL File=Z8DR.:Z8A6TSI                           SAT 08/09/97 11:18 Page:704

  28887 31 023347   000043 470400 0                  LDP0    REDUCED_DATA+8
        31 023350   000005 236100                    LDQ     5,,PR0
        31 023351   000047 756000 0                  STQ     REDUCED_DATA+12

     4211    28888    5                                      SCALAR.LTS$;
     4212    28889    5          REDUCED_DATA.DESC.DESCL = REDUCED_DATA.RENAMES.START_ST$ ->

  28889 31 023352   000001 721100                    LXL1    1,,PR0
        31 023353   000057 441000 0                  SXL1    REDUCED_DATA+20

     4213    28890    5                                    SCALAR.DESCL;
     4214    28891    5          REDUCED_DATA.TYPE       = REDUCED_DATA.RENAMES.START_ST$ ->

  28891 31 023354   000002 236100                    LDQ     2,,PR0
        31 023355   000022 772000                    QRL     18
        31 023356   000056 756000 0                  STQ     REDUCED_DATA+19

     4215    28892    5                                    SCALAR.TYPE;
     4216    28893    5          REDUCED_DATA.B.JUSTIFIED   = REDUCED_DATA.RENAMES.START_ST$ ->

  28893 31 023357   000003 236100                    LDQ     3,,PR0
        31 023360   000015 772000                    QRL     13
        31 023361   000060 676000 0                  ERQ     REDUCED_DATA+21
        31 023362   000002 376003                    ANQ     2,DU
        31 023363   000060 656000 0                  ERSQ    REDUCED_DATA+21

     4217    28894    5                                       SCALAR.B.JUSTIFIED;
     4218    28895    5          REDUCED_DATA.B.LENGTH_4096 = REDUCED_DATA.RENAMES.START_ST$ ->

  28895 31 023364   000003 236100                    LDQ     3,,PR0
        31 023365   000002 772000                    QRL     2
        31 023366   000060 676000 0                  ERQ     REDUCED_DATA+21
        31 023367   001000 376003                    ANQ     512,DU
        31 023370   000060 656000 0                  ERSQ    REDUCED_DATA+21

     4219    28896    5                                       SCALAR.B.LENGTH_4096;
PL6.E3A0      #001=Z8DR$RECORD_DECL File=Z8DR.:Z8A6TSI                           SAT 08/09/97 11:18 Page:705
     4220    28897    5          REDUCED_DATA.B.P           = REDUCED_DATA.RENAMES.START_ST$ ->

  28897 31 023371   000003 236100                    LDQ     3,,PR0
        31 023372   000010 772000                    QRL     8
        31 023373   000060 676000 0                  ERQ     REDUCED_DATA+21
        31 023374   040000 376007                    ANQ     16384,DL
        31 023375   000060 656000 0                  ERSQ    REDUCED_DATA+21

     4221    28898    5                                       SCALAR.B.P;
     4222    28899    5          REDUCED_DATA.B.CLASS       = REDUCED_DATA.RENAMES.START_ST$ ->

  28899 31 023376   000003 236100                    LDQ     3,,PR0
        31 023377   000020 736000                    QLS     16
        31 023400   000060 676000 0                  ERQ     REDUCED_DATA+21
        31 023401   000460 376000 32                 ANQ     304
        31 023402   000060 656000 0                  ERSQ    REDUCED_DATA+21

     4223    28900    5                                       SCALAR.B.CLASS;
     4224    28901    5          REDUCED_DATA.RENAMES.START_ST$ -> SCALAR.B.RENAMED = TRUE;

  28901 31 023403   400000 236007                    LDQ     -131072,DL
        31 023404   000003 256100                    ORSQ    3,,PR0

     4225    28902    5        END;

  28902 31 023405   023422 710000 31                 TRA     s:28913

     4226    28903    4      ELSE
     4227    28904    5        DO;

     4228    28905    5          REDUCED_DATA.B.ELEMENTARY = TRUE;

  28905 31 023406   400000 236003                    LDQ     -131072,DU
        31 023407   000060 256000 0                  ORSQ    REDUCED_DATA+21

     4229    28906    5          REDUCED_DATA.TYPE         = %TYA;

PL6.E3A0      #001=Z8DR$RECORD_DECL File=Z8DR.:Z8A6TSI                           SAT 08/09/97 11:18 Page:706
  28906 31 023410   000010 235007                    LDA     8,DL
        31 023411   000056 755000 0                  STA     REDUCED_DATA+19

     4230    28907    5          REDUCED_DATA.B.CLASS      = %CLASS_ALPHANUMERIC;

  28907 31 023412   000060 236000 0                  LDQ     REDUCED_DATA+21
        31 023413   000457 376000 32                 ANQ     303
        31 023414   600000 276007                    ORQ     -65536,DL
        31 023415   000060 756000 0                  STQ     REDUCED_DATA+21

     4231    28908
     4232    28909    5          CALL Z8DR$SET_RENAMED (REDUCED_DATA.RENAMES.START_ST$,

  28909 31 023416   000554 630400 32                 EPPR0   364
        31 023417   000011 631400 32                 EPPR1   9
        31 023420   000000 701000 xent               TSX1    Z8DR$SET_RENAMED
        31 023421   000000 011000                    NOP     0

     4233    28910    5                                 REDUCED_DATA.RENAMES.END_ST$);
     4234    28911    5        END;

     4235    28912
     4236    28913    4   END PROCESS_RENAMES;

  28913 31 023422   000542 221200 0                  LDX1  ! COLUMN#+1
        31 023423   000001 702211                    TSX2  ! 1,X1

     4237    28914        %EJECT;
PL6.E3A0      #001=Z8DR$RECORD_DECL File=Z8DR.:Z8A6TSI                           SAT 08/09/97 11:18 Page:707
     4238    28915        /*=================*/
     4239    28916    3     PROCESS_REDEFINES: PROC;

  28916 31 023424   000543 741200 0     PROCESS_RED* STX1  ! COLUMN#+2

     4240    28917        /*=================*/
     4241    28918
     4242    28919
     4243    28920
     4244    28921
     4245    28922    4      REDUCED_DATA.B.REDEF_SUB = TRUE;

  28922 31 023425   004000 236003                    LDQ     2048,DU
        31 023426   000060 256000 0                  ORSQ    REDUCED_DATA+21

     4246    28923
     4247    28924             /* In case the IBM option is on, we will allow a data item
     4248    28925                redefines a redefine-subject.                            */
     4249    28926
     4250    28927    4      IF NOT REDUCED_DATA.REDEFINES.OBJECT$ -> SCALAR.B.REDEF_SUB THEN

  28927 31 023427   000046 470400 0                  LDP0    REDUCED_DATA+11
        31 023430   000003 430100                    FSZN    3,,PR0
        31 023431   023434 604000 31                 TMI     s:28930

     4251    28928    4        REDUCED_DATA.REDEFINES.OBJECT$ -> SCALAR.B.REDEF_OBJ = TRUE;

  28928 31 023432   000400 236003                    LDQ     256,DU
        31 023433   000003 256100                    ORSQ    3,,PR0

     4252    28929
     4253    28930    4   END PROCESS_REDEFINES;

  28930 31 023434   000543 221200 0                  LDX1  ! COLUMN#+2
        31 023435   000001 702211                    TSX2  ! 1,X1

     4254    28931        %EJECT;
PL6.E3A0      #001=Z8DR$RECORD_DECL File=Z8DR.:Z8A6TSI                           SAT 08/09/97 11:18 Page:708
     4255    28932        /*=======================*/
     4256    28933    3     RESOLVE_SIGN_REFERENCES: PROC (NEXT_LVL, STK_PTR);

  28933 31 023436   000544 741200 0     RESOLVE_SIG* STX1  ! COLUMN#+3

     4257    28934        /*=======================*/
     4258    28935
     4259    28936    4   DCL NEXT_LVL                  SBIN WORD;
     4260    28937    4   DCL STK_PTR                   SBIN WORD;
     4261    28938    4   DCL NEXT#                     SBIN WORD;
     4262    28939    4   DCL I                         SBIN WORD;
     4263    28940
     4264    28941    4      CALL FIND_HIER_INDEX (NEXT_LVL, NEXT#);

  28941 31 023437   000556 236000 32                 LDQ     366
        31 023440   000545 235000 0                  LDA     @NEXT_LVL
        31 023441   000406 757000 0                  STAQ    @TEMP_LEVEL#
        31 023442   016705 701000 31                 TSX1    FIND_HIER_INDEX
        31 023443   000000 011000                    NOP     0

     4265    28942
     4266    28943    5      DO I = STK_PTR DOWNTO NEXT#;

  28943 31 023444   000546 470400 0                  LDP0    @STK_PTR
        31 023445   000000 235100                    LDA     0,,PR0
        31 023446   000550 755000 0                  STA     I
        31 023447   023534 710000 31                 TRA     s:28952+2

     4267    28944    5        IF HIER_STK.B.SIGN_PRESENT (I) THEN

  28944 31 023450   000550 236000 0                  LDQ     I
        31 023451   000005 402007                    MPY     5,DL
        31 023452   000002 236006 xsym               LDQ     HIER_STK+2,QL
        31 023453   000200 316007                    CANQ    128,DL
        31 023454   023513 600000 31                 TZE     s:28950

     4268    28945    5          IF NOT HIER_STK.B.SIGN_FOUND (I) THEN
PL6.E3A0      #001=Z8DR$RECORD_DECL File=Z8DR.:Z8A6TSI                           SAT 08/09/97 11:18 Page:709

  28945 31 023455   000550 236000 0                  LDQ     I
        31 023456   000005 402007                    MPY     5,DL
        31 023457   000002 236006 xsym               LDQ     HIER_STK+2,QL
        31 023460   000400 316007                    CANQ    256,DL
        31 023461   023513 601000 31                 TNZ     s:28950

     4269    28946    5            CALL Z8AE$ERROR (%E$NO_SIGN_S_FOUND,

  28946 31 023462   000550 236000 0                  LDQ     I
        31 023463   000005 402007                    MPY     5,DL
        31 023464   000004 236006 xsym               LDQ     HIER_STK+4,QL
        31 023465   000022 732000                    QRS     18
        31 023466   000572 756000 0                  STQ     P$+1
        31 023467   000550 236000 0                  LDQ     I
        31 023470   000005 402007                    MPY     5,DL
        31 023471   000004 236006 xsym               LDQ     HIER_STK+4,QL
        31 023472   000022 736000                    QLS     18
        31 023473   000022 732000                    QRS     18
        31 023474   000576 756000 0                  STQ     P$+5
        31 023475   000572 236000 0                  LDQ     P$+1
        31 023476   000574 756000 0                  STQ     P$+3
        31 023477   000576 236000 0                  LDQ     P$+5
        31 023500   000600 756000 0                  STQ     P$+7
        31 023501   000600 630400 0                  EPPR0   P$+7
        31 023502   000604 450400 0                  STP0    P$+11
        31 023503   000574 631400 0                  EPPR1   P$+3
        31 023504   000603 451400 0                  STP1    P$+10
        31 023505   000560 236000 32                 LDQ     368
        31 023506   000602 756000 0                  STQ     P$+9
        31 023507   000602 630400 0                  EPPR0   P$+9
        31 023510   000001 631400 32                 EPPR1   1
        31 023511   000000 701000 xent               TSX1    Z8AE$ERROR
        31 023512   000000 011000                    NOP     0

     4270    28947    5                             BINBIT(HIER_STK.SIGN.LINE(I),36),
     4271    28948    5                             BINBIT(HIER_STK.SIGN.COLUMN(I),36));
PL6.E3A0      #001=Z8DR$RECORD_DECL File=Z8DR.:Z8A6TSI                           SAT 08/09/97 11:18 Page:710
     4272    28949
     4273    28950    5        HIER_STK.B.SIGN_FOUND (I - 1) = (HIER_STK.B.SIGN_FOUND (I - 1)

  28950 31 023513   000550 236000 0                  LDQ     I
        31 023514   000005 402007                    MPY     5,DL
        31 023515   000000 620006                    EAX0    0,QL
        31 023516   000002 236006 xsym               LDQ     HIER_STK+2,QL
        31 023517   000033 736000                    QLS     27
        31 023520   400000 376003                    ANQ     -131072,DU
        31 023521   000572 756000 0                  STQ     P$+1
        31 023522   777775 236010 xsym               LDQ     HIER_STK-3,X0
        31 023523   000033 736000                    QLS     27
        31 023524   400000 376003                    ANQ     -131072,DU
        31 023525   000572 276000 0                  ORQ     P$+1
        31 023526   000033 772000                    QRL     27
        31 023527   777775 676010 xsym               ERQ     HIER_STK-3,X0
        31 023530   000400 376007                    ANQ     256,DL
        31 023531   777775 656010 xsym               ERSQ    HIER_STK-3,X0

     4274    28951    5                                      |  HIER_STK.B.SIGN_FOUND (I));
     4275    28952    5      END;

  28952 31 023532   000001 336007                    LCQ     1,DL
        31 023533   000550 056000 0                  ASQ     I
        31 023534   000550 236000 0                  LDQ     I
        31 023535   000547 116000 0                  CMPQ    NEXT#
        31 023536   023450 605000 31                 TPL     s:28944

     4276    28953
     4277    28954    4   END RESOLVE_SIGN_REFERENCES;

  28954 31 023537   000544 221200 0                  LDX1  ! COLUMN#+3
        31 023540   000001 702211                    TSX2  ! 1,X1

     4278    28955        %EJECT;
PL6.E3A0      #001=Z8DR$RECORD_DECL File=Z8DR.:Z8A6TSI                           SAT 08/09/97 11:18 Page:711
     4279    28956        /*============*/
     4280    28957    3     LINK_INDEXES: PROC;

  28957 31 023541   000551 741200 0     LINK_INDEXES STX1  ! I+1

     4281    28958        /*============*/
     4282    28959
     4283    28960
     4284    28961
     4285    28962
     4286    28963    5        DO WHILE (REDUCED_DATA.INDEXES$ ~= ADDR(NIL));

  28963 31 023542   023552 710000 31                 TRA     s:28966

     4287    28964    5          REDUCED_DATA.INDEXES$ -> INDEXES.INDEX_ST$ -> SCALAR.LTS$ = NEW_ST$;

  28964 31 023543   000050 470400 0                  LDP0    REDUCED_DATA+13
        31 023544   000001 471500                    LDP1    1,,PR0
        31 023545   000413 236000 0                  LDQ     NEW_ST$
        31 023546   100005 756100                    STQ     5,,PR1

     4288    28965    5          REDUCED_DATA.INDEXES$ = REDUCED_DATA.INDEXES$ -> INDEXES.LINK;

  28965 31 023547   000050 470400 0                  LDP0    REDUCED_DATA+13
        31 023550   000002 236100                    LDQ     2,,PR0
        31 023551   000050 756000 0                  STQ     REDUCED_DATA+13

     4289    28966    5        END;

  28966 31 023552   000050 236000 0                  LDQ     REDUCED_DATA+13
        31 023553   000000 116000 32                 CMPQ    0
        31 023554   023543 601000 31                 TNZ     s:28964

     4290    28967
     4291    28968
     4292    28969    4   END LINK_INDEXES;

PL6.E3A0      #001=Z8DR$RECORD_DECL File=Z8DR.:Z8A6TSI                           SAT 08/09/97 11:18 Page:712
  28969 31 023555   000551 221200 0                  LDX1  ! I+1
        31 023556   000001 702211                    TSX2  ! 1,X1

     4293    28970        %EJECT;
PL6.E3A0      #001=Z8DR$RECORD_DECL File=Z8DR.:Z8A6TSI                           SAT 08/09/97 11:18 Page:713
     4294    28971        /*======*/
     4295    28972    3     NEW_ST: PROC;

  28972 31 023557   000552 741200 0     NEW_ST       STX1  ! I+2

     4296    28973        /*======*/
     4297    28974
     4298    28975    4        DCL ID            SBIN;
     4299    28976    4        DCL DN$           PTR;
     4300    28977    4        DCL LINE#         SBIN;
     4301    28978    4        DCL NEW_QLT$      PTR;
     4302    28979    4        DCL ST$$          PTR;
     4303    28980
     4304    28981
     4305    28982    4        LINE# = CDECL$ -> LX_REC_DECL.P.DATA_NAME$ -> LX_ITEM.LINE;

  28982 31 023560   000160 470400 0                  LDP0    CDECL$
        31 023561   000002 471500                    LDP1    2,,PR0
        31 023562   100005 235100                    LDA     5,,PR1
        31 023563   000555 755000 0                  STA     LINE#

     4306    28983    4        DN$   = CDECL$ -> LX_REC_DECL.P.DATA_NAME$ -> LX_ITEM.DNT$;

  28983 31 023564   100002 236100                    LDQ     2,,PR1
        31 023565   000554 756000 0                  STQ     DN$

     4307    28984
     4308    28985             %NEW_SCALAR (@ST$   = ST$$,
     4309    28986                          @DESCL = REDUCED_DATA.DESC.DESCL,
     4310    28987                          @TYPE  = REDUCED_DATA.TYPE,
     4311    28988                          @LINE_NO  = LINE#,
     4312    28989                          @NEXT  = DN$ -> DNT.ST$,
     4313    28990                          @LTS$  = REDUCED_DATA.LTS$,
     4314    28991                          @DNT$  = DN$,
     4315    28992                          @PROC$ = O1COM.CURRENT_PROC$,
     4316    28993                          @ELEMENTARY = REDUCED_DATA.B.ELEMENTARY,
     4317    28994                          @GREATER_256K = REDUCED_DATA.B.GREATER_256K,
PL6.E3A0      #001=Z8DR$RECORD_DECL File=Z8DR.:Z8A6TSI                           SAT 08/09/97 11:18 Page:714
     4318    28995                          @CLASS      = REDUCED_DATA.B.CLASS,
     4319    28996                          @ASTERISK_SUPRESS = REDUCED_DATA.B.ASTERISK_SUPRESS,
     4320    28997                          @LENGTH_4096= REDUCED_DATA.B.LENGTH_4096,
     4321    28998                          @REDEF_SUB  = REDUCED_DATA.B.REDEF_SUB,
     4322    28999                          @LINKAGE    = REDUCED_DATA.B.LINKAGE,
     4323    29000                          @EXTERNAL   = REDUCED_DATA.B.EXTERNAL,
     4324    29001                          @GLOBAL     = REDUCED_DATA.B.GLOBAL,
     4325    29002                          @JUSTIFIED  = REDUCED_DATA.B.JUSTIFIED,
     4326    29003                          @KANJI      = REDUCED_DATA.B.KANJI,
     4327    29004                          @DML_TYPE   = DML_TYPE,
     4328    29005                          @DIGIT      = REDUCED_DATA.B.DIGIT,
     4329    29006                          @P          = REDUCED_DATA.B.P);

  29010 31 023566   000002 236000 3                  LDQ     ST_+2
        31 023567   000013 036007                    ADLQ    11,DL
        31 023570   000003 116000 3                  CMPQ    ST_+3
        31 023571   023602 604000 31                 TMI     s:29012

  29011 31 023572   000041 236000 32                 LDQ     33
        31 023573   000572 756000 0                  STQ     P$+1
        31 023574   000572 631400 0                  EPPR1   P$+1
        31 023575   000573 451400 0                  STP1    P$+2
        31 023576   000573 630400 0                  EPPR0   P$+2
        31 023577   000005 631400 32                 EPPR1   5
        31 023600   000000 701000 xent               TSX1    Z8AR$RESERVER
        31 023601   000000 011000                    NOP     0

  29012 31 023602   000002 236000 3                  LDQ     ST_+2
        31 023603   000022 736000                    QLS     18
        31 023604   000001 036000 3                  ADLQ    ST_+1
        31 023605   000557 756000 0                  STQ     ST$$

  29013 31 023606   000013 236007                    LDQ     11,DL
        31 023607   000002 056000 3                  ASQ     ST_+2

  29061 31 023610   000766 220003                    LDX0    502,DU
        31 023611   000557 470400 0                  LDP0    ST$$
PL6.E3A0      #001=Z8DR$RECORD_DECL File=Z8DR.:Z8A6TSI                           SAT 08/09/97 11:18 Page:715
        31 023612   000000 740100                    STX0    0,,PR0

  29062 31 023613   003000 236007                    LDQ     1536,DL
        31 023614   000000 552110                    STBQ    0,'10'O,PR0

  29063 31 023615   000001 236007                    LDQ     1,DL
        31 023616   000000 552104                    STBQ    0,'04'O,PR0

  29064 31 023617   000000 221003                    LDX1    0,DU
        31 023620   000001 741100                    STX1    1,,PR0

  29065 31 023621   000057 722000 0                  LXL2    REDUCED_DATA+20
        31 023622   000001 442100                    SXL2    1,,PR0

  29066 31 023623   000555 723000 0                  LXL3    LINE#
        31 023624   000002 443100                    SXL3    2,,PR0

  29067 31 023625   000003 450100                    STZ     3,,PR0

  29068 31 023626   000554 471400 0                  LDP1    DN$
        31 023627   100001 236100                    LDQ     1,,PR1
        31 023630   000004 756100                    STQ     4,,PR0

  29069 31 023631   000047 236000 0                  LDQ     REDUCED_DATA+12
        31 023632   000005 756100                    STQ     5,,PR0

  29070 31 023633   000000 236000 32                 LDQ     0
        31 023634   000007 756100                    STQ     7,,PR0

  29071 31 023635   000010 741100                    STX1    8,,PR0

  29072 31 023636   777777 224003                    LDX4    -1,DU
        31 023637   000010 444100                    SXL4    8,,PR0

  29076 31 023640   000012 756100                    STQ     10,,PR0

  29095 31 023641   000057 236000 xsym               LDQ     O1COM+47
PL6.E3A0      #001=Z8DR$RECORD_DECL File=Z8DR.:Z8A6TSI                           SAT 08/09/97 11:18 Page:716
        31 023642   000011 756100                    STQ     9,,PR0

  29096 31 023643   000057 236000 xsym               LDQ     O1COM+47
        31 023644   000000 116000 32                 CMPQ    0
        31 023645   023667 600000 31                 TZE     s:29115

  29100 31 023646   000057 473400 xsym               LDP3    O1COM+47
        31 023647   300001 474500                    LDP4    1,,PR3
        31 023650   400012 236100                    LDQ     10,,PR4
        31 023651   000000 116000 32                 CMPQ    0
        31 023652   023661 601000 31                 TNZ     s:29107

  29102 31 023653   000557 236000 0                  LDQ     ST$$
        31 023654   400011 756100                    STQ     9,,PR4

  29103 31 023655   000057 473400 xsym               LDP3    O1COM+47
        31 023656   300001 474500                    LDP4    1,,PR3
        31 023657   400012 756100                    STQ     10,,PR4

  29104 31 023660   023667 710000 31                 TRA     s:29115

  29107 31 023661   400012 475500                    LDP5    10,,PR4
        31 023662   000557 236000 0                  LDQ     ST$$
        31 023663   500012 756100                    STQ     10,,PR5

  29108 31 023664   000057 473400 xsym               LDP3    O1COM+47
        31 023665   300001 474500                    LDP4    1,,PR3
        31 023666   400012 756100                    STQ     10,,PR4

  29115 31 023667   000056 722000 0                  LXL2    REDUCED_DATA+19
        31 023670   000002 742100                    STX2    2,,PR0

  29120 31 023671   000554 236000 0                  LDQ     DN$
        31 023672   000006 756100                    STQ     6,,PR0

  29131 31 023673   000060 236000 0                  LDQ     REDUCED_DATA+21
        31 023674   000015 736000                    QLS     13
PL6.E3A0      #001=Z8DR$RECORD_DECL File=Z8DR.:Z8A6TSI                           SAT 08/09/97 11:18 Page:717
        31 023675   000003 676100                    ERQ     3,,PR0
        31 023676   040000 376003                    ANQ     16384,DU
        31 023677   000003 656100                    ERSQ    3,,PR0

  29134 31 023700   000060 236000 0                  LDQ     REDUCED_DATA+21
        31 023701   000003 736000                    QLS     3
        31 023702   000003 676100                    ERQ     3,,PR0
        31 023703   020000 376003                    ANQ     8192,DU
        31 023704   000003 656100                    ERSQ    3,,PR0

  29137 31 023705   000060 236000 0                  LDQ     REDUCED_DATA+21
        31 023706   000005 772000                    QRL     5
        31 023707   000003 676100                    ERQ     3,,PR0
        31 023710   010000 376003                    ANQ     4096,DU
        31 023711   000003 656100                    ERSQ    3,,PR0

  29140 31 023712   000060 236000 0                  LDQ     REDUCED_DATA+21
        31 023713   000002 736000                    QLS     2
        31 023714   000003 676100                    ERQ     3,,PR0
        31 023715   004000 376003                    ANQ     2048,DU
        31 023716   000003 656100                    ERSQ    3,,PR0

  29149 31 023717   000060 236000 0                  LDQ     REDUCED_DATA+21
        31 023720   000002 772000                    QRL     2
        31 023721   000003 676100                    ERQ     3,,PR0
        31 023722   001000 376003                    ANQ     512,DU
        31 023723   000003 656100                    ERSQ    3,,PR0

  29158 31 023724   000060 236000 0                  LDQ     REDUCED_DATA+21
        31 023725   000011 736000                    QLS     9
        31 023726   000003 676100                    ERQ     3,,PR0
        31 023727   000100 376003                    ANQ     64,DU
        31 023730   000003 656100                    ERSQ    3,,PR0

  29164 31 023731   000060 236000 0                  LDQ     REDUCED_DATA+21
        31 023732   000010 736000                    QLS     8
        31 023733   000003 676100                    ERQ     3,,PR0
PL6.E3A0      #001=Z8DR$RECORD_DECL File=Z8DR.:Z8A6TSI                           SAT 08/09/97 11:18 Page:718
        31 023734   000020 376003                    ANQ     16,DU
        31 023735   000003 656100                    ERSQ    3,,PR0

  29167 31 023736   000060 236000 0                  LDQ     REDUCED_DATA+21
        31 023737   000007 736000                    QLS     7
        31 023740   000003 676100                    ERQ     3,,PR0
        31 023741   000004 376003                    ANQ     4,DU
        31 023742   000003 656100                    ERSQ    3,,PR0

  29170 31 023743   000060 236000 0                  LDQ     REDUCED_DATA+21
        31 023744   000011 736000                    QLS     9
        31 023745   000003 676100                    ERQ     3,,PR0
        31 023746   000010 376003                    ANQ     8,DU
        31 023747   000003 656100                    ERSQ    3,,PR0

  29173 31 023750   000060 236000 0                  LDQ     REDUCED_DATA+21
        31 023751   000010 736000                    QLS     8
        31 023752   000003 676100                    ERQ     3,,PR0
        31 023753   000002 376003                    ANQ     2,DU
        31 023754   000003 656100                    ERSQ    3,,PR0

  29185 31 023755   000060 236000 0                  LDQ     REDUCED_DATA+21
        31 023756   000020 772000                    QRL     16
        31 023757   000003 676100                    ERQ     3,,PR0
        31 023760   000007 376007                    ANQ     7,DL
        31 023761   000003 656100                    ERSQ    3,,PR0

  29188 31 023762   000414 236000 0                  LDQ     DML_TYPE
        31 023763   000024 772000                    QRL     20
        31 023764   000003 676100                    ERQ     3,,PR0
        31 023765   160000 376007                    ANQ     57344,DL
        31 023766   000003 656100                    ERSQ    3,,PR0

  29194 31 023767   000060 236000 0                  LDQ     REDUCED_DATA+21
        31 023770   000001 772000                    QRL     1
        31 023771   000003 676100                    ERQ     3,,PR0
        31 023772   001000 376007                    ANQ     512,DL
PL6.E3A0      #001=Z8DR$RECORD_DECL File=Z8DR.:Z8A6TSI                           SAT 08/09/97 11:18 Page:719
        31 023773   000003 656100                    ERSQ    3,,PR0

  29197 31 023774   000060 236000 0                  LDQ     REDUCED_DATA+21
        31 023775   000021 772000                    QRL     17
        31 023776   000003 676100                    ERQ     3,,PR0
        31 023777   000200 376007                    ANQ     128,DL
        31 024000   000003 656100                    ERSQ    3,,PR0

     4330    29206
     4331    29207    4        IF CDECL$ -> LX_REC_DECL.P.DATA_NAME$ ->

  29207 31 024001   000160 473400 0                  LDP3    CDECL$
        31 024002   300002 474500                    LDP4    2,,PR3
        31 024003   400003 235100                    LDA     3,,PR4
        31 024004   000320 115007                    CMPA    208,DL
        31 024005   024050 600000 31                 TZE     s:29234

     4332    29208    4        LX_ITEM.SYMBOL ~= %RSV_WRD_FILLER THEN
     4333    29209    5          DO;

     4334    29210                 %ADD_XREF (SYM   = ST$$,
     4335    29211                            ISN   = LINE#,
     4336    29212                            TYPE  = %XREF_DCL);

  29214 31 024006   000055 234000 xsym               SZN     COMCOM+45
        31 024007   024044 605000 31                 TPL     s:29231

  29218 31 024010   000002 236000 20                 LDQ     XREF_+2
        31 024011   000002 036007                    ADLQ    2,DL
        31 024012   000003 116000 20                 CMPQ    XREF_+3
        31 024013   024024 602000 31                 TNC     s:29220

  29219 31 024014   000042 236000 32                 LDQ     34
        31 024015   000572 756000 0                  STQ     P$+1
        31 024016   000572 634400 0                  EPPR4   P$+1
        31 024017   000573 454400 0                  STP4    P$+2
        31 024020   000573 630400 0                  EPPR0   P$+2
PL6.E3A0      #001=Z8DR$RECORD_DECL File=Z8DR.:Z8A6TSI                           SAT 08/09/97 11:18 Page:720
        31 024021   000005 631400 32                 EPPR1   5
        31 024022   000000 701000 xent               TSX1    Z8AR$RESERVER
        31 024023   000000 011000                    NOP     0

  29220 31 024024   000002 236000 20                 LDQ     XREF_+2
        31 024025   000022 736000                    QLS     18
        31 024026   000001 036000 20                 ADLQ    XREF_+1
        31 024027   000000 756000 19                 STQ     XREF$

  29221 31 024030   000002 235000 20                 LDA     XREF_+2
        31 024031   000002 035007                    ADLA    2,DL
        31 024032   000002 755000 20                 STA     XREF_+2

  29222 31 024033   000004 220003                    LDX0    4,DU
        31 024034   000000 470400 19                 LDP0    XREF$
        31 024035   000000 740100                    STX0    0,,PR0

  29225 31 024036   000555 721000 0                  LXL1    LINE#
        31 024037   000000 470400 19                 LDP0    XREF$
        31 024040   000000 441100                    SXL1    0,,PR0

  29226 31 024041   000557 236000 0                  LDQ     ST$$
        31 024042   000000 470400 19                 LDP0    XREF$
        31 024043   000001 756100                    STQ     1,,PR0

     4337    29230
     4338    29231    5            DN$ -> DNT.ST$ = ST$$;

  29231 31 024044   000557 236000 0                  LDQ     ST$$
        31 024045   000554 470400 0                  LDP0    DN$
        31 024046   000001 756100                    STQ     1,,PR0

     4339    29232    5          END;

  29232 31 024047   024052 710000 31                 TRA     s:29249

     4340    29233    4        ELSE
PL6.E3A0      #001=Z8DR$RECORD_DECL File=Z8DR.:Z8A6TSI                           SAT 08/09/97 11:18 Page:721
     4341    29234    4          ST$$ -> SCALAR.B.COMPILER_CREATED = %TRUE;
             29234                   /*  So Schema will not be generated */

  29234 31 024050   100000 236003                    LDQ     32768,DU
        31 024051   000003 256100                    ORSQ    3,,PR0

     4342    29235
     4343    29236             %NEW_QLT  (@POINTER   = NEW_QLT$,
     4344    29237                        @ST$       = ST$$,
     4345    29238                        @SON       = REDUCED_DATA.RENAMES.NEW_RENAMES$,
     4346    29239                        @DNT$      = ST$$ -> SCALAR.DNT$,
     4347    29240                        @LEVEL#    = REDUCED_DATA.LEVEL.CURRENT,
     4348    29241                        @RENAMES   = REDUCED_DATA.B.RENAMES,
     4349    29242                        @OCCURS    = REDUCED_DATA.B.OCCURS,
     4350    29243                        @DIGIT     = REDUCED_DATA.B.DIGIT,
     4351    29244                        @SYNC      = REDUCED_DATA.B.SYNC);

  29249 31 024052   000002 236000 6                  LDQ     QLT_+2
        31 024053   000006 036007                    ADLQ    6,DL
        31 024054   000003 116000 6                  CMPQ    QLT_+3
        31 024055   024066 602000 31                 TNC     s:29251

  29250 31 024056   000043 236000 32                 LDQ     35
        31 024057   000572 756000 0                  STQ     P$+1
        31 024060   000572 630400 0                  EPPR0   P$+1
        31 024061   000573 450400 0                  STP0    P$+2
        31 024062   000573 630400 0                  EPPR0   P$+2
        31 024063   000005 631400 32                 EPPR1   5
        31 024064   000000 701000 xent               TSX1    Z8AR$RESERVER
        31 024065   000000 011000                    NOP     0

  29251 31 024066   000002 236000 6                  LDQ     QLT_+2
        31 024067   000022 736000                    QLS     18
        31 024070   000001 036000 6                  ADLQ    QLT_+1
        31 024071   000556 756000 0                  STQ     NEW_QLT$

  29252 31 024072   000002 235000 6                  LDA     QLT_+2
PL6.E3A0      #001=Z8DR$RECORD_DECL File=Z8DR.:Z8A6TSI                           SAT 08/09/97 11:18 Page:722
        31 024073   000006 035007                    ADLA    6,DL
        31 024074   000002 755000 6                  STA     QLT_+2

  29253 31 024075   001053 220003                    LDX0    555,DU
        31 024076   000556 470400 0                  LDP0    NEW_QLT$
        31 024077   000000 740100                    STX0    0,,PR0

  29256 31 024100   000000 236000 32                 LDQ     0
        31 024101   000001 756100                    STQ     1,,PR0

  29257 31 024102   000002 756100                    STQ     2,,PR0

  29258 31 024103   000045 236000 0                  LDQ     REDUCED_DATA+10
        31 024104   000003 756100                    STQ     3,,PR0

  29259 31 024105   000557 236000 0                  LDQ     ST$$
        31 024106   000004 756100                    STQ     4,,PR0

  29260 31 024107   000557 471400 0                  LDP1    ST$$
        31 024110   100006 236100                    LDQ     6,,PR1
        31 024111   000005 756100                    STQ     5,,PR0

  29261 31 024112   000034 236000 0                  LDQ     REDUCED_DATA+1
        31 024113   000000 552104                    STBQ    0,'04'O,PR0

  29262 31 024114   000000 236003                    LDQ     0,DU
        31 024115   000000 552110                    STBQ    0,'10'O,PR0

  29263 31 024116   000060 236000 0                  LDQ     REDUCED_DATA+21
        31 024117   000005 772000                    QRL     5
        31 024120   000000 676100                    ERQ     0,,PR0
        31 024121   400000 376007                    ANQ     -131072,DL
        31 024122   000000 656100                    ERSQ    0,,PR0

  29264 31 024123   000060 236000 0                  LDQ     REDUCED_DATA+21
        31 024124   000007 772000                    QRL     7
        31 024125   000000 676100                    ERQ     0,,PR0
PL6.E3A0      #001=Z8DR$RECORD_DECL File=Z8DR.:Z8A6TSI                           SAT 08/09/97 11:18 Page:723
        31 024126   200000 376007                    ANQ     65536,DL
        31 024127   000000 656100                    ERSQ    0,,PR0

  29265 31 024130   000060 236000 0                  LDQ     REDUCED_DATA+21
        31 024131   000011 772000                    QRL     9
        31 024132   000000 676100                    ERQ     0,,PR0
        31 024133   100000 376007                    ANQ     32768,DL
        31 024134   000000 656100                    ERSQ    0,,PR0

  29266 31 024135   000060 236000 0                  LDQ     REDUCED_DATA+21
        31 024136   000013 772000                    QRL     11
        31 024137   000000 676100                    ERQ     0,,PR0
        31 024140   040000 376007                    ANQ     16384,DL
        31 024141   000000 656100                    ERSQ    0,,PR0

     4352    29269
     4353    29270    4        ST$$ -> SCALAR.QLT$    = NEW_QLT$;

  29270 31 024142   000556 236000 0                  LDQ     NEW_QLT$
        31 024143   100007 756100                    STQ     7,,PR1

     4354    29271
     4355    29272    4        NEW_ST$ = ST$$;

  29272 31 024144   000557 236000 0                  LDQ     ST$$
        31 024145   000413 756000 0                  STQ     NEW_ST$

     4356    29273
     4357    29274    4   END NEW_ST;

  29274 31 024146   000552 221200 0                  LDX1  ! I+2
        31 024147   000001 702211                    TSX2  ! 1,X1

     4358    29275        %EJECT;
PL6.E3A0      #001=Z8DR$RECORD_DECL File=Z8DR.:Z8A6TSI                           SAT 08/09/97 11:18 Page:724
     4359    29276        /*================*/
     4360    29277    3     PROCESS_EXTERNAL: PROC;

  29277 31 024150   000560 741200 0     PROCESS_EXT* STX1  ! ST$$+1

     4361    29278        /*================*/
     4362    29279
     4363    29280    4        DCL BLOCK$        PTR;
     4364    29281    4        DCL EXT$          PTR;
     4365    29282    4        DCL P$            PTR;
     4366    29283
     4367    29284
     4368    29285             /* Find another external item with same name.
     4369    29286                If found, use its count and get the hell out. */
     4370    29287
     4371    29288    4        EXT$ = CDECL$ -> LX_REC_DECL.P.DATA_NAME$ -> LX_TERMINAL.DNT$ -> DNT.ST$;

  29288 31 024151   000160 470400 0                  LDP0    CDECL$
        31 024152   000002 471500                    LDP1    2,,PR0
        31 024153   100002 473500                    LDP3    2,,PR1
        31 024154   300001 236100                    LDQ     1,,PR3
        31 024155   000562 756000 0                  STQ     EXT$

     4372    29289
     4373    29290    5        DO WHILE (EXT$ ~= ADDR(NIL));

  29290 31 024156   024201 710000 31                 TRA     s:29299

     4374    29291    5          IF (EXT$ -> ST.ID = %SCALAR

  29291 31 024157   000562 470400 0                  LDP0    EXT$
        31 024160   000000 220100                    LDX0    0,,PR0
        31 024161   000766 100003                    CMPX0   502,DU
        31 024162   024165 600000 31                 TZE     s:29291+6
        31 024163   000765 100003                    CMPX0   501,DU
        31 024164   024177 601000 31                 TNZ     s:29298
        31 024165   000413 236000 0                  LDQ     NEW_ST$
PL6.E3A0      #001=Z8DR$RECORD_DECL File=Z8DR.:Z8A6TSI                           SAT 08/09/97 11:18 Page:725
        31 024166   000562 116000 0                  CMPQ    EXT$
        31 024167   024177 600000 31                 TZE     s:29298

     4375    29292    5          OR EXT$ -> ST.ID = %ARRAY)
     4376    29293    5          AND NEW_ST$ ~= EXT$ THEN
     4377    29294    5            IF EXT$ -> SCALAR.B.EXTERNAL

  29294 31 024170   000003 236100                    LDQ     3,,PR0
        31 024171   000004 316003                    CANQ    4,DU
        31 024172   024177 600000 31                 TZE     s:29298
        31 024173   000007 471500                    LDP1    7,,PR0
        31 024174   100001 236100                    LDQ     1,,PR1
        31 024175   000000 116000 32                 CMPQ    0
        31 024176   024203 600000 31                 TZE     s:29301

     4378    29295    5            AND EXT$ -> SCALAR.QLT$ -> QLT.FATHER = ADDR(NIL) THEN
     4379    29296    5              EXIT;
     4380    29297
     4381    29298    5          EXT$ = EXT$ -> ST.NEXT;

  29298 31 024177   000004 236100                    LDQ     4,,PR0
        31 024200   000562 756000 0                  STQ     EXT$

     4382    29299    5        END;

  29299 31 024201   000000 116000 32                 CMPQ    0
        31 024202   024157 601000 31                 TNZ     s:29291

     4383    29300
     4384    29301    4        IF EXT$ ~= ADDR(NIL) THEN

  29301 31 024203   000562 236000 0                  LDQ     EXT$
        31 024204   000000 116000 32                 CMPQ    0
        31 024205   024240 600000 31                 TZE     s:29325

     4385    29302    5          DO;

PL6.E3A0      #001=Z8DR$RECORD_DECL File=Z8DR.:Z8A6TSI                           SAT 08/09/97 11:18 Page:726
     4386    29303    5            NEW_ST$ -> ST.COUNT = EXT$ -> ST.COUNT;

  29303 31 024206   000562 470400 0                  LDP0    EXT$
        31 024207   000413 471400 0                  LDP1    NEW_ST$
        31 024210   000000 236100                    LDQ     0,,PR0
        31 024211   100000 552104                    STBQ    0,'04'O,PR1

     4387    29304    5            NEW_ST$ -> SCALAR.B.ALLOCATED = TRUE;

  29304 31 024212   000413 471400 0                  LDP1    NEW_ST$
        31 024213   000001 236003                    LDQ     1,DU
        31 024214   100003 256100                    ORSQ    3,,PR1

     4388    29305
     4389    29306    5            P$ = COMCOM.BLOCK$;

  29306 31 024215   000145 236000 xsym               LDQ     COMCOM+101
        31 024216   000563 756000 0                  STQ     P$

     4390    29307    6            DO WHILE ( P$ ~= ADDR(NIL) AND

  29307 31 024217   024223 710000 31                 TRA     s:29312

     4391    29308    6                       P$ -> BLOCK.COUNT ~= EXT$ -> ST.COUNT);
     4392    29309
     4393    29310    6              P$ = P$ -> BLOCK.NEXT;

  29310 31 024220   000563 470400 0                  LDP0    P$
        31 024221   000004 236100                    LDQ     4,,PR0
        31 024222   000563 756000 0                  STQ     P$

     4394    29311
     4395    29312    6            END; /* DO WHILE */

  29312 31 024223   000000 116000 32                 CMPQ    0
        31 024224   024233 600000 31                 TZE     s:29314
        31 024225   000562 470400 0                  LDP0    EXT$
PL6.E3A0      #001=Z8DR$RECORD_DECL File=Z8DR.:Z8A6TSI                           SAT 08/09/97 11:18 Page:727
        31 024226   000563 471400 0                  LDP1    P$
        31 024227   100000 236100                    LDQ     0,,PR1
        31 024230   000000 676100                    ERQ     0,,PR0
        31 024231   000777 376007                    ANQ     511,DL
        31 024232   024220 601000 31                 TNZ     s:29310

     4396    29313
     4397    29314    5            P$ -> BLOCK.B.REDEFINED = TRUE;   /* two or more external

  29314 31 024233   000563 470400 0                  LDP0    P$
        31 024234   400000 236003                    LDQ     -131072,DU
        31 024235   000003 256100                    ORSQ    3,,PR0

     4398    29315                                                     item in the same block */
     4399    29316
     4400    29317    5            RETURN;

  29317 31 024236   000560 221200 0                  LDX1  ! ST$$+1
        31 024237   000001 702211                    TSX2  ! 1,X1

     4401    29318    5          END;
     4402    29319
     4403    29320             %NEW_BLOCK (@ST$ = BLOCK$,
     4404    29321                         @DNT$ = NEW_ST$ -> ST.DNT$);

  29325 31 024240   000002 236000 3                  LDQ     ST_+2
        31 024241   000013 036007                    ADLQ    11,DL
        31 024242   000003 116000 3                  CMPQ    ST_+3
        31 024243   024254 604000 31                 TMI     s:29327

  29326 31 024244   000041 236000 32                 LDQ     33
        31 024245   000572 756000 0                  STQ     P$+1
        31 024246   000572 630400 0                  EPPR0   P$+1
        31 024247   000573 450400 0                  STP0    P$+2
        31 024250   000573 630400 0                  EPPR0   P$+2
        31 024251   000005 631400 32                 EPPR1   5
        31 024252   000000 701000 xent               TSX1    Z8AR$RESERVER
PL6.E3A0      #001=Z8DR$RECORD_DECL File=Z8DR.:Z8A6TSI                           SAT 08/09/97 11:18 Page:728
        31 024253   000000 011000                    NOP     0

  29327 31 024254   000002 236000 3                  LDQ     ST_+2
        31 024255   000022 736000                    QLS     18
        31 024256   000001 036000 3                  ADLQ    ST_+1
        31 024257   000561 756000 0                  STQ     BLOCK$

  29328 31 024260   000013 236007                    LDQ     11,DL
        31 024261   000002 056000 3                  ASQ     ST_+2

  29332 31 024262   000144 054000 xsym               AOS     COMCOM+100

  29333 31 024263   000561 470400 0                  LDP0    BLOCK$
        31 024264   000144 236000 xsym               LDQ     COMCOM+100
        31 024265   000000 552104                    STBQ    0,'04'O,PR0

  29335 31 024266   000561 236000 0                  LDQ     BLOCK$
        31 024267   000004 471400 xsym               LDP1    O1COM+4
        31 024270   100004 756100                    STQ     4,,PR1

  29336 31 024271   000004 756000 xsym               STQ     O1COM+4

  29341 31 024272   000774 220003                    LDX0    508,DU
        31 024273   000000 740100                    STX0    0,,PR0

  29342 31 024274   003000 236007                    LDQ     1536,DL
        31 024275   000000 552110                    STBQ    0,'10'O,PR0

  29343 31 024276   000000 221003                    LDX1    0,DU
        31 024277   000002 741100                    STX1    2,,PR0

  29344 31 024300   000133 722000 xsym               LXL2    COMCOM+91
        31 024301   000002 442100                    SXL2    2,,PR0

  29345 31 024302   000003 450100                    STZ     3,,PR0

  29346 31 024303   000000 236000 32                 LDQ     0
PL6.E3A0      #001=Z8DR$RECORD_DECL File=Z8DR.:Z8A6TSI                           SAT 08/09/97 11:18 Page:729
        31 024304   000004 756100                    STQ     4,,PR0

  29347 31 024305   000413 471400 0                  LDP1    NEW_ST$
        31 024306   100006 236100                    LDQ     6,,PR1
        31 024307   000006 756100                    STQ     6,,PR0

  29348 31 024310   000000 236000 32                 LDQ     0
        31 024311   000007 756100                    STQ     7,,PR0

  29358 31 024312   000012 756100                    STQ     10,,PR0

  29361 31 024313   000057 236000 xsym               LDQ     O1COM+47
        31 024314   000011 756100                    STQ     9,,PR0

  29362 31 024315   000057 236000 xsym               LDQ     O1COM+47
        31 024316   000000 116000 32                 CMPQ    0
        31 024317   024341 600000 31                 TZE     s:29399

  29366 31 024320   000057 471400 xsym               LDP1    O1COM+47
        31 024321   100001 473500                    LDP3    1,,PR1
        31 024322   300012 236100                    LDQ     10,,PR3
        31 024323   000000 116000 32                 CMPQ    0
        31 024324   024333 601000 31                 TNZ     s:29373

  29368 31 024325   000561 236000 0                  LDQ     BLOCK$
        31 024326   300011 756100                    STQ     9,,PR3

  29369 31 024327   000057 471400 xsym               LDP1    O1COM+47
        31 024330   100001 473500                    LDP3    1,,PR1
        31 024331   300012 756100                    STQ     10,,PR3

  29370 31 024332   024341 710000 31                 TRA     s:29399

  29373 31 024333   300012 474500                    LDP4    10,,PR3
        31 024334   000561 236000 0                  LDQ     BLOCK$
        31 024335   400012 756100                    STQ     10,,PR4

PL6.E3A0      #001=Z8DR$RECORD_DECL File=Z8DR.:Z8A6TSI                           SAT 08/09/97 11:18 Page:730
  29374 31 024336   000057 471400 xsym               LDP1    O1COM+47
        31 024337   100001 473500                    LDP3    1,,PR1
        31 024340   300012 756100                    STQ     10,,PR3

     4405    29398
     4406    29399    4        NEW_ST$ -> ST.COUNT = BLOCK$ -> BLOCK.COUNT;

  29399 31 024341   000413 471400 0                  LDP1    NEW_ST$
        31 024342   000000 236100                    LDQ     0,,PR0
        31 024343   100000 552104                    STBQ    0,'04'O,PR1

     4407    29400
     4408    29401    4        IF REDUCED_DATA.DIMS$ ~= ADDR(NIL) THEN

  29401 31 024344   000051 236000 0                  LDQ     REDUCED_DATA+14
        31 024345   000000 116000 32                 CMPQ    0
        31 024346   024363 600000 31                 TZE     s:29418

     4409    29402    5          DO;

     4410    29403                 /* It is possible that an index guy associated with this
     4411    29404                    array.  If one exists, we need to allocate it in the same
     4412    29405                    block.
     4413    29406                 */
     4414    29407
     4415    29408
     4416    29409    5            P$ = REDUCED_DATA.INDEXES$;

  29409 31 024347   000050 236000 0                  LDQ     REDUCED_DATA+13
        31 024350   000563 756000 0                  STQ     P$

     4417    29410
     4418    29411    6            DO WHILE (P$ ~= ADDR(NIL));

  29411 31 024351   024361 710000 31                 TRA     s:29415

     4419    29412    6              P$ -> INDEXES.INDEX_ST$ -> ST.COUNT = BLOCK$ -> BLOCK.COUNT;
PL6.E3A0      #001=Z8DR$RECORD_DECL File=Z8DR.:Z8A6TSI                           SAT 08/09/97 11:18 Page:731

  29412 31 024352   000563 470400 0                  LDP0    P$
        31 024353   000001 471500                    LDP1    1,,PR0
        31 024354   000561 473400 0                  LDP3    BLOCK$
        31 024355   300000 236100                    LDQ     0,,PR3
        31 024356   100000 552104                    STBQ    0,'04'O,PR1

     4420    29413
     4421    29414    6              P$ = P$ -> INDEXES.LINK;

  29414 31 024357   000002 236100                    LDQ     2,,PR0
        31 024360   000563 756000 0                  STQ     P$

     4422    29415    6            END; /* While */

  29415 31 024361   000000 116000 32                 CMPQ    0
        31 024362   024352 601000 31                 TNZ     s:29412

     4423    29416    5          END;

     4424    29417
     4425    29418    4   END PROCESS_EXTERNAL;

  29418 31 024363   000560 221200 0                  LDX1  ! ST$$+1
        31 024364   000001 702211                    TSX2  ! 1,X1

     4426    29419        %EJECT;
PL6.E3A0      #001=Z8DR$RECORD_DECL File=Z8DR.:Z8A6TSI                           SAT 08/09/97 11:18 Page:732
     4427    29420        /*==============*/
     4428    29421    3     NEW_IDENTIFIER: PROC;

  29421 31 024365   000564 741200 0     NEW_IDENTIF* STX1  ! P$+1

     4429    29422        /*==============*/
     4430    29423
     4431    29424
     4432    29425    4   DCL NEW_QLT$                  PTR;
     4433    29426    4   DCL LINE#                     SBIN WORD;
     4434    29427    4   DCL DN$                       PTR;
     4435    29428    4   DCL ST$$                      PTR;
     4436    29429    4   DCL P$                        PTR;
     4437    29430
     4438    29431
     4439    29432
     4440    29433    4      IF REDUCED_DATA.USAGE.TYPE = %RSV_WRD_INDEX THEN

  29433 31 024366   000033 235000 0                  LDA     REDUCED_DATA
        31 024367   000365 115007                    CMPA    245,DL
        31 024370   024624 601000 31                 TNZ     s:29490

     4441    29434    5        DO;

     4442    29435    5          CALL Z8DR$NEW_INDEX (CDECL$ -> LX_REC_DECL.P.DATA_NAME$,

  29435 31 024371   000561 236000 32                 LDQ     369
        31 024372   000576 756000 0                  STQ     P$+5
        31 024373   000562 237000 32                 LDAQ    370
        31 024374   000574 757000 0                  STAQ    P$+3
        31 024375   000564 236000 32                 LDQ     372
        31 024376   000573 756000 0                  STQ     P$+2
        31 024377   000160 236000 0                  LDQ     CDECL$
        31 024400   000002 036003                    ADLQ    2,DU
        31 024401   000572 756000 0                  STQ     P$+1
        31 024402   000572 630400 0                  EPPR0   P$+1
        31 024403   000072 631400 32                 EPPR1   58
PL6.E3A0      #001=Z8DR$RECORD_DECL File=Z8DR.:Z8A6TSI                           SAT 08/09/97 11:18 Page:733
        31 024404   000000 701000 xent               TSX1    Z8DR$NEW_INDEX
        31 024405   000000 011000                    NOP     0

     4443    29436    5                               REDUCED_DATA.TYPE,
     4444    29437    5                               REDUCED_DATA.LEVEL.CURRENT,
     4445    29438    5                               NEW_QLT$,
     4446    29439    5                               NEW_ST$);
     4447    29440
     4448    29441    5          NEW_ST$ -> SCALAR.LTS$ = REDUCED_DATA.LTS$;

  29441 31 024406   000047 236000 0                  LDQ     REDUCED_DATA+12
        31 024407   000413 470400 0                  LDP0    NEW_ST$
        31 024410   000005 756100                    STQ     5,,PR0

     4449    29442
     4450    29443    5          NEW_ST$ -> SCALAR.B.LINKAGE   = REDUCED_DATA.B.LINKAGE;

  29443 31 024411   000413 470400 0                  LDP0    NEW_ST$
        31 024412   000060 236000 0                  LDQ     REDUCED_DATA+21
        31 024413   000010 736000                    QLS     8
        31 024414   000003 676100                    ERQ     3,,PR0
        31 024415   000002 376003                    ANQ     2,DU
        31 024416   000003 656100                    ERSQ    3,,PR0

     4451    29444    5          NEW_ST$ -> SCALAR.B.GLOBAL    = REDUCED_DATA.B.GLOBAL;

  29444 31 024417   000413 470400 0                  LDP0    NEW_ST$
        31 024420   000060 236000 0                  LDQ     REDUCED_DATA+21
        31 024421   000011 736000                    QLS     9
        31 024422   000003 676100                    ERQ     3,,PR0
        31 024423   000010 376003                    ANQ     8,DU
        31 024424   000003 656100                    ERSQ    3,,PR0

     4452    29445    5          NEW_ST$ -> SCALAR.B.EXTERNAL  = REDUCED_DATA.B.EXTERNAL;

  29445 31 024425   000413 470400 0                  LDP0    NEW_ST$
        31 024426   000060 236000 0                  LDQ     REDUCED_DATA+21
PL6.E3A0      #001=Z8DR$RECORD_DECL File=Z8DR.:Z8A6TSI                           SAT 08/09/97 11:18 Page:734
        31 024427   000007 736000                    QLS     7
        31 024430   000003 676100                    ERQ     3,,PR0
        31 024431   000004 376003                    ANQ     4,DU
        31 024432   000003 656100                    ERSQ    3,,PR0

     4453    29446
     4454    29447    5          P$ = NEW_ST$ -> SCALAR.QLT$ -> QLT.BROTHER;

  29447 31 024433   000413 470400 0                  LDP0    NEW_ST$
        31 024434   000007 471500                    LDP1    7,,PR0
        31 024435   100002 236100                    LDQ     2,,PR1
        31 024436   000571 756000 0                  STQ     P$

     4455    29448    5          P$ -> QLT.ST$ -> SCALAR.B.LINKAGE  = NEW_ST$ -> SCALAR.B.LINKAGE;

  29448 31 024437   000571 473400 0                  LDP3    P$
        31 024440   300004 474500                    LDP4    4,,PR3
        31 024441   000003 236100                    LDQ     3,,PR0
        31 024442   400003 676100                    ERQ     3,,PR4
        31 024443   000002 376003                    ANQ     2,DU
        31 024444   400003 656100                    ERSQ    3,,PR4

     4456    29449    5          P$ -> QLT.ST$ -> SCALAR.B.EXTERNAL = NEW_ST$ -> SCALAR.B.EXTERNAL;

  29449 31 024445   300004 470500                    LDP0    4,,PR3
        31 024446   000413 471400 0                  LDP1    NEW_ST$
        31 024447   100003 236100                    LDQ     3,,PR1
        31 024450   000003 676100                    ERQ     3,,PR0
        31 024451   000004 376003                    ANQ     4,DU
        31 024452   000003 656100                    ERSQ    3,,PR0

     4457    29450    5          P$ -> QLT.ST$ -> SCALAR.B.GLOBAL   = NEW_ST$ -> SCALAR.B.GLOBAL;

  29450 31 024453   300004 470500                    LDP0    4,,PR3
        31 024454   000413 471400 0                  LDP1    NEW_ST$
        31 024455   100003 236100                    LDQ     3,,PR1
        31 024456   000003 676100                    ERQ     3,,PR0
PL6.E3A0      #001=Z8DR$RECORD_DECL File=Z8DR.:Z8A6TSI                           SAT 08/09/97 11:18 Page:735
        31 024457   000010 376003                    ANQ     8,DU
        31 024460   000003 656100                    ERSQ    3,,PR0

     4458    29451
     4459    29452               /*  Set redef item(#TYA) if the index item has an occurs */
     4460    29453
     4461    29454
     4462    29455    5          IF REDUCED_DATA.DIMS$ ~= ADDR(NIL)   THEN        /*#36261*/

  29455 31 024461   000051 236000 0                  LDQ     REDUCED_DATA+14
        31 024462   000000 116000 32                 CMPQ    0
        31 024463   024505 600000 31                 TZE     s:29464

     4463    29456    6            DO;

     4464    29457    6              P$ -> QLT.ST$ -> ST.ID = %ARRAY;

  29457 31 024464   300004 470500                    LDP0    4,,PR3
        31 024465   000765 220003                    LDX0    501,DU
        31 024466   000000 740100                    STX0    0,,PR0

     4465    29458    6              P$ -> QLT.B.OCCURS = REDUCED_DATA.B.OCCURS;

  29458 31 024467   000060 236000 0                  LDQ     REDUCED_DATA+21
        31 024470   000005 772000                    QRL     5
        31 024471   300000 676100                    ERQ     0,,PR3
        31 024472   400000 376007                    ANQ     -131072,DL
        31 024473   300000 656100                    ERSQ    0,,PR3

     4466    29459    6              CALL Z8DO$LINK_WITH_LTS( P$ -> QLT.ST$ -> SCALAR.LTS$,

  29459 31 024474   300004 470500                    LDP0    4,,PR3
        31 024475   000565 236000 32                 LDQ     373
        31 024476   000573 756000 0                  STQ     P$+2
        31 024477   000005 631500                    EPPR1   5,,PR0
        31 024500   000572 451400 0                  STP1    P$+1
        31 024501   000572 630400 0                  EPPR0   P$+1
PL6.E3A0      #001=Z8DR$RECORD_DECL File=Z8DR.:Z8A6TSI                           SAT 08/09/97 11:18 Page:736
        31 024502   000011 631400 32                 EPPR1   9
        31 024503   000000 701000 xent               TSX1    Z8DO$LINK_WITH_LTS
        31 024504   000000 011000                    NOP     0

     4467    29460    6                                       REDUCED_DATA.DIMS$ );
     4468    29461    6            END;

     4469    29462
     4470    29463
     4471    29464    5          P$ = P$ -> QLT.ST$ -> SCALAR.QLT$ -> QLT.SON;

  29464 31 024505   000571 470400 0                  LDP0    P$
        31 024506   000004 471500                    LDP1    4,,PR0
        31 024507   100007 473500                    LDP3    7,,PR1
        31 024510   300003 236100                    LDQ     3,,PR3
        31 024511   000571 756000 0                  STQ     P$

     4472    29465    5          P$ -> QLT.ST$ -> SCALAR.B.LINKAGE  = NEW_ST$ -> SCALAR.B.LINKAGE;

  29465 31 024512   000571 470400 0                  LDP0    P$
        31 024513   000004 471500                    LDP1    4,,PR0
        31 024514   000413 473400 0                  LDP3    NEW_ST$
        31 024515   300003 236100                    LDQ     3,,PR3
        31 024516   100003 676100                    ERQ     3,,PR1
        31 024517   000002 376003                    ANQ     2,DU
        31 024520   100003 656100                    ERSQ    3,,PR1

     4473    29466    5          P$ -> QLT.ST$ -> SCALAR.B.EXTERNAL = NEW_ST$ -> SCALAR.B.EXTERNAL;

  29466 31 024521   000004 471500                    LDP1    4,,PR0
        31 024522   000413 473400 0                  LDP3    NEW_ST$
        31 024523   300003 236100                    LDQ     3,,PR3
        31 024524   100003 676100                    ERQ     3,,PR1
        31 024525   000004 376003                    ANQ     4,DU
        31 024526   100003 656100                    ERSQ    3,,PR1

     4474    29467    5          P$ -> QLT.ST$ -> SCALAR.B.GLOBAL   = NEW_ST$ -> SCALAR.B.GLOBAL;
PL6.E3A0      #001=Z8DR$RECORD_DECL File=Z8DR.:Z8A6TSI                           SAT 08/09/97 11:18 Page:737

  29467 31 024527   000004 471500                    LDP1    4,,PR0
        31 024530   000413 473400 0                  LDP3    NEW_ST$
        31 024531   300003 236100                    LDQ     3,,PR3
        31 024532   100003 676100                    ERQ     3,,PR1
        31 024533   000010 376003                    ANQ     8,DU
        31 024534   100003 656100                    ERSQ    3,,PR1

     4475    29468
     4476    29469    5          IF REDUCED_DATA.DIMS$ ~= ADDR(NIL)   THEN        /*#36261*/

  29469 31 024535   000051 236000 0                  LDQ     REDUCED_DATA+14
        31 024536   000000 116000 32                 CMPQ    0
        31 024537   024554 600000 31                 TZE     s:29476

     4477    29470    6            DO;

     4478    29471    6              P$ -> QLT.ST$ -> ST.ID = %ARRAY;

  29471 31 024540   000004 471500                    LDP1    4,,PR0
        31 024541   000765 220003                    LDX0    501,DU
        31 024542   100000 740100                    STX0    0,,PR1

     4479    29472    6              CALL Z8DO$LINK_WITH_LTS( P$ -> QLT.ST$ -> SCALAR.LTS$,

  29472 31 024543   000004 471500                    LDP1    4,,PR0
        31 024544   000565 236000 32                 LDQ     373
        31 024545   000573 756000 0                  STQ     P$+2
        31 024546   100005 633500                    EPPR3   5,,PR1
        31 024547   000572 453400 0                  STP3    P$+1
        31 024550   000572 630400 0                  EPPR0   P$+1
        31 024551   000011 631400 32                 EPPR1   9
        31 024552   000000 701000 xent               TSX1    Z8DO$LINK_WITH_LTS
        31 024553   000000 011000                    NOP     0

     4480    29473    6                                       REDUCED_DATA.DIMS$ );
     4481    29474    6            END;
PL6.E3A0      #001=Z8DR$RECORD_DECL File=Z8DR.:Z8A6TSI                           SAT 08/09/97 11:18 Page:738

     4482    29475
     4483    29476    5          P$ = P$ -> QLT.ST$ -> SCALAR.QLT$ -> QLT.BROTHER;

  29476 31 024554   000571 470400 0                  LDP0    P$
        31 024555   000004 471500                    LDP1    4,,PR0
        31 024556   100007 473500                    LDP3    7,,PR1
        31 024557   300002 236100                    LDQ     2,,PR3
        31 024560   000571 756000 0                  STQ     P$

     4484    29477    5          P$ -> QLT.ST$ -> SCALAR.B.LINKAGE  = NEW_ST$ -> SCALAR.B.LINKAGE;

  29477 31 024561   000571 470400 0                  LDP0    P$
        31 024562   000004 471500                    LDP1    4,,PR0
        31 024563   000413 473400 0                  LDP3    NEW_ST$
        31 024564   300003 236100                    LDQ     3,,PR3
        31 024565   100003 676100                    ERQ     3,,PR1
        31 024566   000002 376003                    ANQ     2,DU
        31 024567   100003 656100                    ERSQ    3,,PR1

     4485    29478    5          P$ -> QLT.ST$ -> SCALAR.B.EXTERNAL = NEW_ST$ -> SCALAR.B.EXTERNAL;

  29478 31 024570   000004 471500                    LDP1    4,,PR0
        31 024571   000413 473400 0                  LDP3    NEW_ST$
        31 024572   300003 236100                    LDQ     3,,PR3
        31 024573   100003 676100                    ERQ     3,,PR1
        31 024574   000004 376003                    ANQ     4,DU
        31 024575   100003 656100                    ERSQ    3,,PR1

     4486    29479    5          P$ -> QLT.ST$ -> SCALAR.B.GLOBAL   = NEW_ST$ -> SCALAR.B.GLOBAL;

  29479 31 024576   000004 471500                    LDP1    4,,PR0
        31 024577   000413 473400 0                  LDP3    NEW_ST$
        31 024600   300003 236100                    LDQ     3,,PR3
        31 024601   100003 676100                    ERQ     3,,PR1
        31 024602   000010 376003                    ANQ     8,DU
        31 024603   100003 656100                    ERSQ    3,,PR1
PL6.E3A0      #001=Z8DR$RECORD_DECL File=Z8DR.:Z8A6TSI                           SAT 08/09/97 11:18 Page:739

     4487    29480
     4488    29481    5          IF REDUCED_DATA.DIMS$ ~= ADDR(NIL)   THEN        /*#36261*/

  29481 31 024604   000051 236000 0                  LDQ     REDUCED_DATA+14
        31 024605   000000 116000 32                 CMPQ    0
        31 024606   024626 600000 31                 TZE     s:29492

     4489    29482    6            DO;

     4490    29483    6              P$ -> QLT.ST$ -> ST.ID = %ARRAY;

  29483 31 024607   000004 471500                    LDP1    4,,PR0
        31 024610   000765 220003                    LDX0    501,DU
        31 024611   100000 740100                    STX0    0,,PR1

     4491    29484    6              CALL Z8DO$LINK_WITH_LTS( P$ -> QLT.ST$ -> SCALAR.LTS$,

  29484 31 024612   000004 471500                    LDP1    4,,PR0
        31 024613   000565 236000 32                 LDQ     373
        31 024614   000573 756000 0                  STQ     P$+2
        31 024615   100005 633500                    EPPR3   5,,PR1
        31 024616   000572 453400 0                  STP3    P$+1
        31 024617   000572 630400 0                  EPPR0   P$+1
        31 024620   000011 631400 32                 EPPR1   9
        31 024621   000000 701000 xent               TSX1    Z8DO$LINK_WITH_LTS
        31 024622   000000 011000                    NOP     0

     4492    29485    6                                       REDUCED_DATA.DIMS$ );
     4493    29486    6            END;

     4494    29487
     4495    29488    5        END;

  29488 31 024623   024626 710000 31                 TRA     s:29492

     4496    29489    4      ELSE
PL6.E3A0      #001=Z8DR$RECORD_DECL File=Z8DR.:Z8A6TSI                           SAT 08/09/97 11:18 Page:740
     4497    29490    4        CALL NEW_ST;

  29490 31 024624   023557 701000 31                 TSX1    NEW_ST
        31 024625   000000 011000                    NOP     0

     4498    29491
     4499    29492    4      CALL UPDATE_HIER;

  29492 31 024626   016734 701000 31                 TSX1    UPDATE_HIER
        31 024627   000000 011000                    NOP     0

     4500    29493
     4501    29494    4      IF REDUCED_DATA.USAGE.TYPE = %RSV_WRD_INDEX THEN

  29494 31 024630   000033 235000 0                  LDA     REDUCED_DATA
        31 024631   000365 115007                    CMPA    245,DL
        31 024632   024643 601000 31                 TNZ     s:29498

     4502    29495    4        NEW_ST$ -> SCALAR.QLT$ -> QLT.BROTHER -> QLT.FATHER

  29495 31 024633   000413 470400 0                  LDP0    NEW_ST$
        31 024634   000007 471500                    LDP1    7,,PR0
        31 024635   100002 473500                    LDP3    2,,PR1
        31 024636   000000 236000 xsym               LDQ     HIER_STK_PTR
        31 024637   000005 402007                    MPY     5,DL
        31 024640   000000 474406 xsym               LDP4    HIER_STK,QL
        31 024641   400001 236100                    LDQ     1,,PR4
        31 024642   300001 756100                    STQ     1,,PR3

     4503    29496    4                 = HIER_STK.QLT$(HIER_STK_PTR) -> QLT.FATHER;
     4504    29497
     4505    29498    4      IF REDUCED_DATA.DIMS$ ~= ADDR(NIL) THEN

  29498 31 024643   000051 236000 0                  LDQ     REDUCED_DATA+14
        31 024644   000000 116000 32                 CMPQ    0
        31 024645   024651 600000 31                 TZE     s:29501

PL6.E3A0      #001=Z8DR$RECORD_DECL File=Z8DR.:Z8A6TSI                           SAT 08/09/97 11:18 Page:741
     4506    29499    4        NEW_ST$ -> ARRAY.ID = %ARRAY;

  29499 31 024646   000765 220003                    LDX0    501,DU
        31 024647   000413 470400 0                  LDP0    NEW_ST$
        31 024650   000000 740100                    STX0    0,,PR0

     4507    29500
     4508    29501    4      IF REDUCED_DATA.B.EXTERNAL

  29501 31 024651   000060 236000 0                  LDQ     REDUCED_DATA+21
        31 024652   020000 316007                    CANQ    8192,DL
        31 024653   024662 600000 31                 TZE     s:29505
        31 024654   000034 235000 0                  LDA     REDUCED_DATA+1
        31 024655   000001 115007                    CMPA    1,DL
        31 024656   024662 601000 31                 TNZ     s:29505

     4509    29502    4      AND REDUCED_DATA.LEVEL.CURRENT = %LEVEL_01 THEN
     4510    29503    4        CALL PROCESS_EXTERNAL;

  29503 31 024657   024150 701000 31                 TSX1    PROCESS_EXTERNAL
        31 024660   000000 011000                    NOP     0
        31 024661   024701 710000 31                 TRA     s:29514

     4511    29504    4      ELSE
     4512    29505    4        IF NEW_ST$ -> SCALAR.QLT$ -> QLT.FATHER ~= ADDR(NIL) THEN

  29505 31 024662   000413 470400 0                  LDP0    NEW_ST$
        31 024663   000007 471500                    LDP1    7,,PR0
        31 024664   100001 236100                    LDQ     1,,PR1
        31 024665   000000 116000 32                 CMPQ    0
        31 024666   024701 600000 31                 TZE     s:29514

     4513    29506    4          IF NEW_ST$ -> SCALAR.QLT$ -> QLT.FATHER ->

  29506 31 024667   100001 473500                    LDP3    1,,PR1
        31 024670   300004 474500                    LDP4    4,,PR3
        31 024671   400003 236100                    LDQ     3,,PR4
PL6.E3A0      #001=Z8DR$RECORD_DECL File=Z8DR.:Z8A6TSI                           SAT 08/09/97 11:18 Page:742
        31 024672   000004 316003                    CANQ    4,DU
        31 024673   024701 600000 31                 TZE     s:29514

     4514    29507    4             QLT.ST$ -> SCALAR.B.EXTERNAL THEN
     4515    29508    5            DO;

     4516    29509    5              NEW_ST$ -> ST.COUNT = NEW_ST$ -> SCALAR.QLT$ -> QLT.FATHER

  29509 31 024674   400000 236100                    LDQ     0,,PR4
        31 024675   000000 552104                    STBQ    0,'04'O,PR0

     4517    29510    5                                    -> QLT.ST$ -> ST.COUNT;
     4518    29511    5              NEW_ST$ -> SCALAR.B.EXTERNAL = TRUE;

  29511 31 024676   000413 470400 0                  LDP0    NEW_ST$
        31 024677   000004 236003                    LDQ     4,DU
        31 024700   000003 256100                    ORSQ    3,,PR0

     4519    29512    5            END;

     4520    29513
     4521    29514    4        IF REDUCED_DATA.B.REDEF_SUB THEN

  29514 31 024701   000060 236000 0                  LDQ     REDUCED_DATA+21
        31 024702   004000 316003                    CANQ    2048,DU
        31 024703   024710 600000 31                 TZE     s:29519

     4522    29515    4          NEW_ST$ -> ST.COUNT = REDUCED_DATA.REDEFINES.OBJECT$ -> ST.COUNT;

  29515 31 024704   000046 470400 0                  LDP0    REDUCED_DATA+11
        31 024705   000413 471400 0                  LDP1    NEW_ST$
        31 024706   000000 236100                    LDQ     0,,PR0
        31 024707   100000 552104                    STBQ    0,'04'O,PR1

     4523    29516
     4524    29517
     4525    29518
PL6.E3A0      #001=Z8DR$RECORD_DECL File=Z8DR.:Z8A6TSI                           SAT 08/09/97 11:18 Page:743
     4526    29519    4   END NEW_IDENTIFIER;

  29519 31 024710   000564 221200 0                  LDX1  ! P$+1
        31 024711   000001 702211                    TSX2  ! 1,X1

     4527    29520        %EJECT;
PL6.E3A0      #001=Z8DR$RECORD_DECL File=Z8DR.:Z8A6TSI                           SAT 08/09/97 11:18 Page:744
     4528    29521
     4529    29522
     4530    29523        /* Main Body */
     4531    29524
     4532    29525
     4533    29526
     4534    29527    3        CALL FILL_DESCRIPTOR;

  29527 31 024712   020632 701000 31                 TSX1    FILL_DESCRIPTOR
        31 024713   000000 011000                    NOP     0

     4535    29528
     4536    29529    3        IF  REDUCED_DATA.B.ELEMENTARY

  29529 31 024714   000060 234000 0                  SZN     REDUCED_DATA+21
        31 024715   024724 605000 31                 TPL     s:29533
        31 024716   000160 470400 0                  LDP0    CDECL$
        31 024717   000010 236100                    LDQ     8,,PR0
        31 024720   000000 116000 32                 CMPQ    0
        31 024721   024724 600000 31                 TZE     s:29533

     4537    29530    3        AND CDECL$ -> LX_REC_DECL.P.VALUE$ ~= ADDR(NIL) THEN
     4538    29531    3          CALL PROCESS_VALUE;

  29531 31 024722   021671 701000 31                 TSX1    PROCESS_VALUE
        31 024723   000000 011000                    NOP     0

     4539    29532
     4540    29533    3        IF CDECL$ -> LX_REC_DECL.P.OCCURS$ ~= ADDR(NIL) THEN

  29533 31 024724   000160 470400 0                  LDP0    CDECL$
        31 024725   000007 236100                    LDQ     7,,PR0
        31 024726   000000 116000 32                 CMPQ    0
        31 024727   024732 600000 31                 TZE     s:29536

     4541    29534    3          CALL PROCESS_OCCURS;

PL6.E3A0      #001=Z8DR$RECORD_DECL File=Z8DR.:Z8A6TSI                           SAT 08/09/97 11:18 Page:745
  29534 31 024730   022352 701000 31                 TSX1    PROCESS_OCCURS
        31 024731   000000 011000                    NOP     0

     4542    29535
     4543    29536    3        IF CDECL$ -> LX_REC_DECL.P.REDEFINES$ ~= ADDR(NIL) THEN

  29536 31 024732   000160 470400 0                  LDP0    CDECL$
        31 024733   000005 236100                    LDQ     5,,PR0
        31 024734   000000 116000 32                 CMPQ    0
        31 024735   024740 600000 31                 TZE     s:29539

     4544    29537    3          CALL PROCESS_REDEFINES;

  29537 31 024736   023424 701000 31                 TSX1    PROCESS_REDEFINES
        31 024737   000000 011000                    NOP     0

     4545    29538
     4546    29539    3        CALL NEW_IDENTIFIER;

  29539 31 024740   024365 701000 31                 TSX1    NEW_IDENTIFIER
        31 024741   000000 011000                    NOP     0

     4547    29540
     4548    29541    3        IF REDUCED_DATA.INDEXES$ ~= ADDR(NIL) THEN

  29541 31 024742   000050 236000 0                  LDQ     REDUCED_DATA+13
        31 024743   000000 116000 32                 CMPQ    0
        31 024744   024747 600000 31                 TZE     s:29544

     4549    29542    3          CALL LINK_INDEXES;

  29542 31 024745   023541 701000 31                 TSX1    LINK_INDEXES
        31 024746   000000 011000                    NOP     0

     4550    29543
     4551    29544    3        IF REDUCED_DATA.OCCURS.DEPENDING$ ~= ADDR(NIL) THEN

PL6.E3A0      #001=Z8DR$RECORD_DECL File=Z8DR.:Z8A6TSI                           SAT 08/09/97 11:18 Page:746
  29544 31 024747   000055 236000 0                  LDQ     REDUCED_DATA+18
        31 024750   000000 116000 32                 CMPQ    0
        31 024751   024754 600000 31                 TZE     s:29547

     4552    29545    3          CALL PROCESS_DEPENDING;

  29545 31 024752   022650 701000 31                 TSX1    PROCESS_DEPENDING
        31 024753   000000 011000                    NOP     0

     4553    29546
     4554    29547    3        IF CDECL$ -> LX_REC_DECL.P.KEY$ ~= ADDR(NIL) THEN

  29547 31 024754   000160 470400 0                  LDP0    CDECL$
        31 024755   000020 236100                    LDQ     16,,PR0
        31 024756   000000 116000 32                 CMPQ    0
        31 024757   024762 600000 31                 TZE     s:29550

     4555    29548    3          CALL PROCESS_KEY;

  29548 31 024760   023223 701000 31                 TSX1    PROCESS_KEY
        31 024761   000000 011000                    NOP     0

     4556    29549
     4557    29550    3        IF REDUCED_DATA.CONST$ ~= ADDR(NIL) OR

  29550 31 024762   000052 236000 0                  LDQ     REDUCED_DATA+15
        31 024763   000000 116000 32                 CMPQ    0
        31 024764   024772 601000 31                 TNZ     s:29554
        31 024765   000021 234000 xsym               SZN     COMCOM+17
        31 024766   025111 605000 31                 TPL     s:30355
        31 024767   000015 235000 xsym               LDA     O1COM+13
        31 024770   000004 115007                    CMPA    4,DL
        31 024771   025111 600000 31                 TZE     s:30355

     4558    29551    3            COMCOM.OB.INITIAL AND
     4559    29552    3            O1COM.DATA_DECL_CONTEXT ~= %LINKAGE_SECTION THEN
     4560    29553    4          DO;
PL6.E3A0      #001=Z8DR$RECORD_DECL File=Z8DR.:Z8A6TSI                           SAT 08/09/97 11:18 Page:747

     4561    29554    4            IF REDUCED_DATA.CONST$ = ADDR(NIL) THEN

  29554 31 024772   000000 116000 32                 CMPQ    0
        31 024773   025004 601000 31                 TNZ     s:29563

     4562    29555    5              DO;

     4563    29556    5                O1COM.LINE_NO    = CDECL$ -> LX_REC_DECL.P.DATA_NAME$ ->

  29556 31 024774   000160 470400 0                  LDP0    CDECL$
        31 024775   000002 471500                    LDP1    2,,PR0
        31 024776   100005 235100                    LDA     5,,PR1
        31 024777   000007 755000 xsym               STA     O1COM+7

     4564    29557    5                                   LX_TERMINAL.LINE;
     4565    29558    5                O1COM.COLUMN_NO  = CDECL$ -> LX_REC_DECL.P.DATA_NAME$ ->

  29558 31 025000   000002 471500                    LDP1    2,,PR0
        31 025001   100006 235100                    LDA     6,,PR1
        31 025002   000010 755000 xsym               STA     O1COM+8

     4566    29559    5                                   LX_TERMINAL.COLUMN;
     4567    29560    5              END;

  29560 31 025003   025016 710000 31                 TRA     s:29576

     4568    29561    4            ELSE
     4569    29562    5              DO;

     4570    29563    5                O1COM.LINE_NO    = CDECL$ -> LX_REC_DECL.P.VALUE$ ->

  29563 31 025004   000160 470400 0                  LDP0    CDECL$
        31 025005   000010 471500                    LDP1    8,,PR0
        31 025006   100004 473500                    LDP3    4,,PR1
        31 025007   300004 474500                    LDP4    4,,PR3
        31 025010   400005 235100                    LDA     5,,PR4
PL6.E3A0      #001=Z8DR$RECORD_DECL File=Z8DR.:Z8A6TSI                           SAT 08/09/97 11:18 Page:748
        31 025011   000007 755000 xsym               STA     O1COM+7

     4571    29564    5                                   LX_LIST.HEAD$ -> LX_LIST.HEAD$ ->
     4572    29565    5                                   LX_TERMINAL.LINE;
     4573    29566    5                O1COM.COLUMN_NO  = CDECL$ -> LX_REC_DECL.P.VALUE$ ->

  29566 31 025012   100004 473500                    LDP3    4,,PR1
        31 025013   300004 474500                    LDP4    4,,PR3
        31 025014   400006 235100                    LDA     6,,PR4
        31 025015   000010 755000 xsym               STA     O1COM+8

     4574    29567    5                                   LX_LIST.HEAD$ -> LX_LIST.HEAD$ ->
     4575    29568    5                                   LX_TERMINAL.COLUMN;
     4576    29569    5              END;

     4577    29570                 %SET_PHASE_1_POSITION (@LINE   = O1COM.LINE_NO,
     4578    29571                                        @COLUMN = O1COM.COLUMN_NO,
     4579    29572                                        @TYPE   = %S_TYPE_VALUE_IS);

  29576 31 025016   000011 235000 xsym               LDA     O1COM+9
        31 025017   025034 600000 31                 TZE     s:29958

  29611 31 025020   000541 236000 32                 LDQ     353
        31 025021   000572 756000 0                  STQ     P$+1
        31 025022   000572 631400 0                  EPPR1   P$+1
        31 025023   000577 451400 0                  STP1    P$+6
        31 025024   000542 236000 32                 LDQ     354
        31 025025   000576 756000 0                  STQ     P$+5
        31 025026   000544 237000 32                 LDAQ    356
        31 025027   000574 757000 0                  STAQ    P$+3
        31 025030   000574 630400 0                  EPPR0   P$+3
        31 025031   000076 631400 32                 EPPR1   62
        31 025032   000000 701000 xent               TSX1    Z8AN$NEW_ILL
        31 025033   000000 011000                    NOP     0

  29958 31 025034   000076 235007                    LDA     62,DL
        31 025035   000011 755000 xsym               STA     O1COM+9
PL6.E3A0      #001=Z8DR$RECORD_DECL File=Z8DR.:Z8A6TSI                           SAT 08/09/97 11:18 Page:749

     4580    29961
     4581    29962    4            IF REDUCED_DATA.CONST$ ~= ADDR(NIL) THEN

  29962 31 025036   000052 236000 0                  LDQ     REDUCED_DATA+15
        31 025037   000000 116000 32                 CMPQ    0
        31 025040   025066 600000 31                 TZE     s:30346

     4582    29963                   %NEW_ILL (@ID     = %PRESET,
     4583    29964                             @LOP    = NEW_ST$,
     4584    29965                             @ROP    = REDUCED_DATA.CONST$ -> ETT.LOP);

  30185 31 025041   000541 236000 32                 LDQ     353
        31 025042   000572 756000 0                  STQ     P$+1
        31 025043   000572 630400 0                  EPPR0   P$+1
        31 025044   000577 450400 0                  STP0    P$+6
        31 025045   000542 236000 32                 LDQ     354
        31 025046   000576 756000 0                  STQ     P$+5
        31 025047   000550 237000 32                 LDAQ    360
        31 025050   000574 757000 0                  STAQ    P$+3
        31 025051   000574 630400 0                  EPPR0   P$+3
        31 025052   000076 631400 32                 EPPR1   62
        31 025053   000000 701000 xent               TSX1    Z8AN$NEW_ILL
        31 025054   000000 011000                    NOP     0

  30187 31 025055   000000 220003                    LDX0    0,DU
        31 025056   000000 470400 13                 LDP0    ILL$
        31 025057   000000 440100                    SXL0    0,,PR0

  30191 31 025060   000413 236000 0                  LDQ     NEW_ST$
        31 025061   000000 470400 13                 LDP0    ILL$
        31 025062   000001 756100                    STQ     1,,PR0

  30192 31 025063   000052 471400 0                  LDP1    REDUCED_DATA+15
        31 025064   100001 236100                    LDQ     1,,PR1
        31 025065   000002 756100                    STQ     2,,PR0

PL6.E3A0      #001=Z8DR$RECORD_DECL File=Z8DR.:Z8A6TSI                           SAT 08/09/97 11:18 Page:750
     4585    30344
     4586    30345                 /* Save away TRIAD for Z8GO VALUE optimization */
     4587    30346    4            IF  NEW_ST$ -> VARIABLE.LTS$ = ADDR(NIL)

  30346 31 025066   000413 470400 0                  LDP0    NEW_ST$
        31 025067   000005 236100                    LDQ     5,,PR0
        31 025070   000000 116000 32                 CMPQ    0
        31 025071   025104 601000 31                 TNZ     s:30352
        31 025072   000000 220100                    LDX0    0,,PR0
        31 025073   000766 100003                    CMPX0   502,DU
        31 025074   025104 601000 31                 TNZ     s:30352
        31 025075   000002 221100                    LDX1    2,,PR0
        31 025076   000001 101003                    CMPX1   1,DU
        31 025077   025102 600000 31                 TZE     s:30350
        31 025100   000000 101003                    CMPX1   0,DU
        31 025101   025104 601000 31                 TNZ     s:30352

     4588    30347    4            AND NEW_ST$ -> VARIABLE.ID = %SCALAR
     4589    30348    4            AND (NEW_ST$ -> VARIABLE.TYPE = %TYI
     4590    30349    4              OR NEW_ST$ -> VARIABLE.TYPE = %TYD) THEN
     4591    30350    4                NEW_ST$ -> VARIABLE.LTS$ = REDUCED_DATA.CONST$;

  30350 31 025102   000052 236000 0                  LDQ     REDUCED_DATA+15
        31 025103   000005 756100                    STQ     5,,PR0

     4592    30351
     4593    30352    4            CALL Z8DU$BUILD_INITIAL_ITEM (REDUCED_DATA.CONST$, NEW_ST$);

  30352 31 025104   000566 630400 32                 EPPR0   374
        31 025105   000011 631400 32                 EPPR1   9
        31 025106   000000 701000 xent               TSX1    Z8DU$BUILD_INITIAL_ITEM
        31 025107   000000 011000                    NOP     0

     4594    30353    4          END;

  30353 31 025110   025113 710000 31                 TRA     s:30357

PL6.E3A0      #001=Z8DR$RECORD_DECL File=Z8DR.:Z8A6TSI                           SAT 08/09/97 11:18 Page:751
     4595    30354    3        ELSE
     4596    30355    3          CALL SAVE_GROUP_VALUES;

  30355 31 025111   022761 701000 31                 TSX1    SAVE_GROUP_VALUES
        31 025112   000000 011000                    NOP     0

     4597    30356
     4598    30357    3        IF REDUCED_DATA.LEVEL.NEXT <= REDUCED_DATA.LEVEL.CURRENT THEN

  30357 31 025113   000036 236000 0                  LDQ     REDUCED_DATA+3
        31 025114   000034 116000 0                  CMPQ    REDUCED_DATA+1
        31 025115   025124 605400 31                 TPNZ    s:30361

     4599    30358    3          CALL RESOLVE_SIGN_REFERENCES (REDUCED_DATA.LEVEL.NEXT, HIER_STK_PTR);

  30358 31 025116   000441 236000 32                 LDQ     289
        31 025117   000546 756000 0                  STQ     @NEXT_LVL+1
        31 025120   000570 236000 32                 LDQ     376
        31 025121   000545 756000 0                  STQ     COLUMN#+4
        31 025122   023436 701000 31                 TSX1    RESOLVE_SIGN_REFERENCES
        31 025123   000000 011000                    NOP     0

     4600    30359
     4601    30360
     4602    30361    3   END PROCESS_RECORD_DECL;

  30361 31 025124   000412 221200 0                  LDX1  ! I+1
        31 025125   000001 702211                    TSX2  ! 1,X1

     4603    30362        %EJECT;
PL6.E3A0      #001=Z8DR$RECORD_DECL File=Z8DR.:Z8A6TSI                           SAT 08/09/97 11:18 Page:752
     4604    30363
     4605    30364        /*-----------------------------*
     4606    30365        MAIN BODY -- DATA_DECLARATION
     4607    30366         *-----------------------------*/
     4608    30367
     4609    30368
     4610    30369    2          CDECL$ = PASSED_CDECL$;

  30369 31 025126   000156 470400 0                  LDP0    @PASSED_CDECL$
        31 025127   000000 236100                    LDQ     0,,PR0
        31 025130   000160 756000 0                  STQ     CDECL$

     4611    30370    2          NDECL$ = PASSED_NDECL$;

  30370 31 025131   000157 471400 0                  LDP1    @PASSED_NDECL$
        31 025132   100000 236100                    LDQ     0,,PR1
        31 025133   000161 756000 0                  STQ     NDECL$

     4612    30371
     4613    30372               %INITIALIZE_REDUCED_DATA;

  30374 31 025134   000000 100400                    MLR     fill='000'O
        31 025135   000020 000001 32                 ADSC9   16                       cn=0,n=1
        31 025136   000033 000130 0                  ADSC9   REDUCED_DATA             cn=0,n=88

  30375 31 025137   000000 236000 32                 LDQ     0
        31 025140   000047 756000 0                  STQ     REDUCED_DATA+12

  30376 31 025141   000051 756000 0                  STQ     REDUCED_DATA+14

  30377 31 025142   000050 756000 0                  STQ     REDUCED_DATA+13

  30378 31 025143   000052 756000 0                  STQ     REDUCED_DATA+15

  30379 31 025144   000043 756000 0                  STQ     REDUCED_DATA+8

  30380 31 025145   000044 756000 0                  STQ     REDUCED_DATA+9
PL6.E3A0      #001=Z8DR$RECORD_DECL File=Z8DR.:Z8A6TSI                           SAT 08/09/97 11:18 Page:753

  30381 31 025146   000045 756000 0                  STQ     REDUCED_DATA+10

  30382 31 025147   000046 756000 0                  STQ     REDUCED_DATA+11

  30383 31 025150   000055 756000 0                  STQ     REDUCED_DATA+18

     4614    30386
     4615    30387    2          IF O1COM.DATA_DECL_CONTEXT = %LINKAGE_SECTION THEN

  30387 31 025151   000015 235000 xsym               LDA     O1COM+13
        31 025152   000004 115007                    CMPA    4,DL
        31 025153   025156 601000 31                 TNZ     s:30390

     4616    30388    2            REDUCED_DATA.B.LINKAGE = TRUE;

  30388 31 025154   004000 236007                    LDQ     2048,DL
        31 025155   000060 256000 0                  ORSQ    REDUCED_DATA+21

     4617    30389
     4618    30390    2          CALL DATA_REDUCTION;

  30390 31 025156   002443 701000 31                 TSX1    DATA_REDUCTION
        31 025157   000000 011000                    NOP     0

     4619    30391    2          CALL RECORD_VALIDATION;

  30391 31 025160   004262 701000 31                 TSX1    RECORD_VALIDATION
        31 025161   000000 011000                    NOP     0

     4620    30392    2          CALL PROCESS_RECORD_DECL;

  30392 31 025162   016732 701000 31                 TSX1    PROCESS_RECORD_DECL
        31 025163   000000 011000                    NOP     0

     4621    30393
     4622    30394    2   END DATA_DECLARATION;
PL6.E3A0      #001=Z8DR$RECORD_DECL File=Z8DR.:Z8A6TSI                           SAT 08/09/97 11:18 Page:754

  30394 31 025164   000155 221200 0                  LDX1  ! ST$$+1
        31 025165   000001 702211                    TSX2  ! 1,X1

     4623    30395
     4624    30396
     4625    30397    1   END Z8DR$RECORD_DECL;

  30397 31 025166   000000 221200 0                  LDX1  ! 0
        31 025167   000001 702211                    TSX2  ! 1,X1
     4626    30398        %EOD;

PL6.E3A0      #001=Z8DR$RECORD_DECL File=Z8DR.:Z8A6TSI                           SAT 08/09/97 11:18 Page:755
--  Include file information  --

   Z8E_DML.:Z8A6TOU  is referenced.
   Z8E_STATEMNT.:Z8A6TOU  is referenced.
   Z8E_ABSSYN.:Z8A6TOU  cannot be made into a system file and is referenced.
   Z8E_HEAP.:Z8A6TOU  cannot be made into a system file and is referenced.
   Z8D_PIC_PARM.:Z8A6TOU  is referenced.
   Z8E_NEW_ILL.:Z8A6TOU  is referenced.
   Z8E_MACROS.:Z8A6TOU  cannot be made into a system file and is referenced.
   Z8D_REC_DECL.:Z8A6TOU  is referenced.
   Z8E_O1COM.:Z8A6TOU  cannot be made into a system file and is referenced.
   Z8E_WINDOW.:Z8A6TOU  is referenced.
   Z8A_LEX_SYMB.:Z8A6TOU  cannot be made into a system file and is referenced.
   Z8E_STACKS.:Z8A6TOU  cannot be made into a system file and is referenced.
   Z8A_MKCN.:Z8A6TOU  cannot be made into a system file and is referenced.
   Z8A_XREF.:Z8A6TOU  cannot be made into a system file and is referenced.
   Z8A_ETT.:Z8A6TOU  cannot be made into a system file and is referenced.
   Z8A_ILL.:Z8A6TOU  cannot be made into a system file and is referenced.
   Z8A_ERR_NUMS.:Z8A6TOU  is referenced.
   Z8A_DNT.:Z8A6TOU  cannot be made into a system file and is referenced.
   Z8A_TYPES.:Z8A6TOU  is referenced.
   Z8A_LTS.:Z8A6TOU  cannot be made into a system file and is referenced.
   Z8A_QLT.:Z8A6TOU  cannot be made into a system file and is referenced.
   Z8A_ST.:Z8A6TOU  cannot be made into a system file and is referenced.
   Z8A_COMCOM.:Z8A6TOU  cannot be made into a system file and is referenced.
   X8A_COM_MACS.:X8A6TOU  is referenced.
   Z8A_NAMES.:Z8A6TOU  is referenced.
   Z8A_SUPP_MAC.:Z8A6TOU  is referenced.
   Z8A_DEFC.:Z8A6TOU  cannot be made into a system file and is referenced.
      No diagnostics issued in procedure Z8DR$RECORD_DECL.
PL6.E3A0      #001=Z8DR$RECORD_DECL File=Z8DR.:Z8A6TSI                           SAT 08/09/97 11:18 Page:756

 **** Variables and constants ****

  ****  Section 000  Data  Z8DR$RECORD_DECL

  ****  Scalars and arrays  ****
OctLoc.c.b A Datatyp(siz) R M Lvl/name                 OctLoc.c.b A Datatyp(siz) R M Lvl/name

   173-0-0/w PTR         r     1 @BLANK_WHEN_ZERO         136-0-0/w PTR         r     1 @BRO_QLT$
   141-0-0/w PTR         r     1 @CDECL$                  146-0-0/w PTR         r     1 @CDECL$
    76-0-0/w PTR         r     1 @COND_LIST$                1-0-0/w PTR         r     1 @CURRENT_DECL$
   503-0-0/w PTR         r     1 @DIM#                    502-0-0/w PTR         r     1 @DIMS$
   330-0-0/w PTR         r     1 @DN2$                    337-0-0/w PTR         r     1 @DN2$
   203-0-0/w PTR         r     1 @DN2_ST$                 331-0-0/w PTR         r     1 @DN3$
   204-0-0/w PTR         r     1 @DN3_ST$                 370-0-0/w PTR         r     1 @FATHER$
   421-0-0/w PTR         r     1 @FROM_LEVEL              427-0-0/w PTR         r     1 @INDEX#
   504-0-0/w PTR         r     1 @INDEX_LIST$             437-0-0/w PTR         r     1 @ITEM$
   407-0-0/w PTR         r     1 @K                       440-0-0/w PTR         r     1 @LENGTH
    70-0-0/w PTR         r     1 @LEVEL_88_LIST$           73-0-0/w PTR         r     1 @LEVEL_88_LIST$
   226-0-0/w PTR         r     1 @LX_ITEM$                224-0-0/w PTR         r     1 @LX_LIST1$
   225-0-0/w PTR         r     1 @LX_LIST2$               150-0-0/w PTR         r     1 @NEW_COND$
     2-0-0/w PTR         r     1 @NEXT_DECL$              545-0-0/w PTR         r     1 @NEXT_LVL
   213-0-0/w PTR         r     1 @OBJECT_ST$              212-0-0/w PTR         r     1 @OBJ_DNT$
   444-0-0/w PTR         r     1 @OUT                     451-0-0/w PTR         r     1 @OUT
   156-0-0/w PTR         r     1 @PASSED_CDECL$           157-0-0/w PTR         r     1 @PASSED_NDECL$
   135-0-0/w PTR         r     1 @QLT$$                   367-0-0/w PTR         r     1 @QUAL_ID$
   217-0-0/w PTR         r     1 @REDEF$                  142-0-0/w PTR         r     1 @REDUCED_DATA
   147-0-0/w PTR         r     1 @REDUCED_DATA            205-0-0/w PTR         r     1 @RENAMES$
   227-0-0/w PTR         r     1 @RETURN$                 230-0-0/w PTR         r     1 @RSV_WRD#
   276-0-0/w PTR         r     1 @RSV_WRD#                441-0-0/w PTR         r     1 @SIGN
   167-0-0/w PTR         r     1 @SIGN_TYPE               371-0-0/w PTR         r     1 @ST$
   546-0-0/w PTR         r     1 @STK_PTR                 211-0-0/w PTR         r     1 @TARGET_BRO$
   406-0-0/w PTR         r     1 @TEMP_LEVEL#             422-0-0/w PTR         r     1 @TO_LEVEL
   232-0-0/w PTR         r     1 @VALUE$                  236-0-0/w PTR         r     1 @VALUE$
   275-0-0/w PTR         r     1 @VALUE$                  303-0-0/w PTR         r     1 @VALUE$
    *0-0-0/w BIT         r     1 BLANK_WHEN_ZERO          561-0-0/w PTR         r     1 BLOCK$
    61-0-0/w PTR               1 BRO$                     130-0-0/w PTR         r     1 BRO$
   137-0-0/w PTR         r     1 BRO$                     432-0-0/w PTR               1 BRO$
PL6.E3A0      #001=Z8DR$RECORD_DECL File=Z8DR.:Z8A6TSI                           SAT 08/09/97 11:18 Page:757
   511-0-0/w PTR         r     1 BRO$                      *0-0-0/w PTR         r     1 BRO_QLT$
    31-0-0/w PTR         r     1 CDECL$                    *0-0-0/w PTR         r     1 CDECL$
    *0-0-0/w PTR         r     1 CDECL$                   160-0-0/w PTR         r     1 CDECL$
   305-0-0/w SBIN        r     1 COLUMN                   251-0-0/w SBIN        r     1 COLUMN#
   265-0-0/w SBIN        r     1 COLUMN#                  312-0-0/w SBIN        r     1 COLUMN#
   403-0-0/w SBIN        r     1 COLUMN#                  531-0-0/w SBIN        r     1 COLUMN#
   541-0-0/w SBIN        r     1 COLUMN#                   *0-0-0/w PTR         r     1 COND_LIST$
   472-0-0/w PTR         r     1 CONST$                   533-0-0/w PTR         r     1 CONST$
    64-0-0/w SBIN        r     1 CURRENT#                  77-0-0/w PTR         r     1 CURRENT_88$
    *0-0-0/w PTR         r     1 CURRENT_DECL$            374-0-0/w PTR         r     1 CURRENT_FATHER$
   372-0-0/w PTR         r     1 CURRENT_QLT$             375-0-0/w PTR         r     1 CURRENT_ST$
   307-0-0/w PTR         r     1 DATA_NAME$               343-0-0/w PTR               1 DATA_NAME2_ST$
   346-0-0/w PTR               1 DATA_NAME3_ST$           526-0-0/w PTR         r     1 DEPENDING$
    *0-0-0/w SBIN        r     1 DIM#                     522-0-0/w SBIN        r     1 DIM#
    *0-0-0/w PTR         r     1 DIMS$                    524-0-0/w PTR         r     1 DIMS$
   414-0-0/w UBIN(3)     r     1 DML_TYPE                 152-0-0/w PTR         r     1 DN$
   554-0-0/w PTR         r     1 DN$                      567-0-0/w PTR               1 DN$
    *0-0-0/w PTR         r     1 DN2$                      *0-0-0/w PTR         r     1 DN2$
   347-0-0/w PTR         r     1 DN2$                      *0-0-0/w PTR         r     1 DN2_ST$
   332-0-0/w PTR         r     1 DN2_ST$                  341-0-0/w PTR         r     1 DN2_ST$
    *0-0-0/w PTR         r     1 DN3$                     350-0-0/w PTR         r     1 DN3$
    *0-0-0/w PTR         r     1 DN3_ST$                  333-0-0/w PTR         r     1 DN3_ST$
   562-0-0/w PTR         r     1 EXT$                     131-0-0/w PTR         r     1 FATHER$
    *0-0-0/w PTR         r     1 FATHER$                  516-0-0/w PTR         r     1 FIRST_INDEX$
   424-0-0/w SBIN        r     1 FROM#                     *0-0-0/w SBIN        r     1 FROM_LEVEL
   133-0-0/w SBIN        r     1 I                        165-0-0/w SBIN        r     1 I
   220-0-0/w SBIN        r     1 I                        233-0-0/w SBIN        r     1 I
   237-0-0/w SBIN              1 I                        254-0-0/w SBIN        r     1 I
   271-0-0/w SBIN        r     1 I                        314-0-0/w SBIN        r     1 I
   355-0-0/w SBIN        r     1 I                        360-0-0/w SBIN        r     1 I
   411-0-0/w SBIN        r     1 I                        425-0-0/w SBIN        r     1 I
   431-0-0/w SBIN        r     1 I                        435-0-0/w SBIN        r     1 I
   520-0-0/w SBIN        r     1 I                        527-0-0/w SBIN        r     1 I
   550-0-0/w SBIN        r     1 I                        553-0-0/w SBIN              1 ID
   174-0-0/w SBIN        r     1 INDEX#                    *0-0-0/w SBIN        r     1 INDEX#
   402-0-0/w PTR         r     1 INDEX$                   510-0-0/w PTR         r     1 INDEX$
   512-0-0/w PTR         r     1 INDEXES$                 506-0-0/w PTR               1 INDEX_DNT$
PL6.E3A0      #001=Z8DR$RECORD_DECL File=Z8DR.:Z8A6TSI                           SAT 08/09/97 11:18 Page:758
    *0-0-0/w PTR         r     1 INDEX_LIST$              507-0-0/w PTR         r     1 INDEX_QLT$
   505-0-0/w PTR         r     1 INDEX_ST$                143-0-0/w PTR         r     1 ITEM$
   301-0-0/w PTR         r     1 ITEM$                     *0-0-0/w PTR         r     1 ITEM$
   234-0-0/w SBIN        r     1 J                        521-0-0/w SBIN        r     1 J
    *0-0-0/w SBIN        r     1 K                        473-0-0/w PTR         r     1 KANJI_SPACE_ETT$
   474-0-0/w PTR         r     1 KANJI_SPACE_ST$          400-0-0/w PTR         r     1 KEY$
   537-0-0/w PTR         r     1 KEY$                     326-0-0/w PTR         r     1 L$
    66-0-0/w PTR               1 LARGE$                    71-0-0/w PTR         r     1 LARGE$
    74-0-0/w PTR         r     1 LARGE$                   263-0-0/w SBIN        r     1 LENGTH
    *0-0-0/w SBIN        r     1 LENGTH                   447-0-0/w SBIN        r     1 LENGTH
   454-0-0/w SBIN        r     1 LENGTH                   325-0-0/w SBIN        r     1 LEVEL
   410-0-0/w SBIN        r     1 LEVEL#                    65-0-0/w PTR         r     1 LEVEL$
   256-0-0/w PTR         r     1 LEVEL$                    *0-0-0/w PTR         r     1 LEVEL_88_LIST$
    *0-0-0/w PTR         r     1 LEVEL_88_LIST$           221-0-0/b BIT         r     1 LEVEL_FOUND
   304-0-0/w SBIN        r     1 LINE                     151-0-0/w SBIN        r     1 LINE#
   250-0-0/w SBIN        r     1 LINE#                    266-0-0/w SBIN              1 LINE#
   311-0-0/w SBIN        r     1 LINE#                    404-0-0/w SBIN        r     1 LINE#
   530-0-0/w SBIN        r     1 LINE#                    540-0-0/w SBIN        r     1 LINE#
   555-0-0/w SBIN        r     1 LINE#                    566-0-0/w SBIN              1 LINE#
   373-0-0/w PTR         r     1 LIST$                    277-0-0/w PTR         r     1 LIST1$
   300-0-0/w PTR         r     1 LIST2$                    *0-0-0/w PTR         r     1 LX_ITEM$
    *0-0-0/w PTR         r     1 LX_LIST1$                 *0-0-0/w PTR         r     1 LX_LIST2$
   461-0-0/w PTR         r     1 MOP$                     457-0-0/w PTR         r     1 MOP_DNT$
    32-0-0/w PTR         r     1 NDECL$                   161-0-0/w PTR         r     1 NDECL$
   100-0-0/w PTR         r     1 NEW_COND$                 *0-0-0/w PTR         r     1 NEW_COND$
   464-0-0/w PTR         r     1 NEW_LONG$                460-0-0/w PTR         r     1 NEW_NEL$
   153-0-0/w PTR         r     1 NEW_QLT$                 556-0-0/w PTR         r     1 NEW_QLT$
   565-0-0/w PTR         r     1 NEW_QLT$                 413-0-0/w PTR         r     1 NEW_ST$
    63-0-0/w SBIN        r     1 NEXT#                    547-0-0/w SBIN        r     1 NEXT#
    *0-0-0/w PTR         r     1 NEXT_DECL$               257-0-0/w PTR         r     1 NEXT_LEVEL$
   261-0-0/w SBIN        r     1 NEXT_LINE_LEVEL           *0-0-0/w SBIN        r     1 NEXT_LVL
   240-0-0/w STRC(216)   r     1 NUM_DESC                  *0-0-0/w PTR         r     1 OBJECT_ST$
   214-0-0/w PTR         r     1 OBJ_BRO$                  *0-0-0/w PTR         r     1 OBJ_DNT$
   316-0-0/w PTR         r     1 OCCURS$                  320-0-0/w PTR         r     1 OCCURS$
   523-0-0/w PTR         r     1 OCCURS$                  177-0-0/w PTR         r     1 OCCURS_INT1$
   200-0-0/w PTR         r     1 OCCURS_INT2$              *0-0-0/w UBIN        r     1 OUT
    *0-0-0/w UBIN        r     1 OUT                      445-0-0/w STRC        r     1 OUT_DESC
PL6.E3A0      #001=Z8DR$RECORD_DECL File=Z8DR.:Z8A6TSI                           SAT 08/09/97 11:18 Page:759
   452-0-0/w STRC        r     1 OUT_DESC                 563-0-0/w PTR         r     1 P$
   571-0-0/w PTR         r     1 P$                        *0-0-0/w PTR         r     1 PASSED_CDECL$
    *0-0-0/w PTR         r     1 PASSED_NDECL$            171-0-0/w PTR         r     1 PIC$
   264-0-0/w PTR         r     1 PIC$                       3-0-0/w STRC(72)    r     1 PIC_IN
     5-0-0/c CHAR(80)    r     1 PIC_STR                  252-0-0/w PTR         r     1 PLUG$
   222-0-0/w PTR         r     1 PLUG1$                   260-0-0/w PTR         r     1 PLUG1$
   513-0-0/w PTR         r     1 PREV_INDEXES$            417-0-0/w SBIN        r     1 PREV_LEVEL
    *0-0-0/w PTR         r     1 QLT$$                    144-0-0/w PTR         r     1 QLT$$
   416-0-0/w PTR         r     1 QLT$$                    514-0-0/w PTR         r     1 QLT_CHAIN$
   515-0-0/w PTR         r     1 QLT_CHAIN_START$         376-0-0/b BIT         r     1 QUALIFIED
    *0-0-0/w PTR         r     1 QUAL_ID$                  *0-0-0/w PTR         r     1 REDEF$
   352-0-0/w PTR               1 REDEFINES$                33-0-0/w STRC(792)   r     1 REDUCED_DATA
   101-0-0/w STRC(792)   r     1 REDUCED_DATA              *0-0-0/w STRC(792)   r     1 REDUCED_DATA
    *0-0-0/w STRC(792)   r     1 REDUCED_DATA              *0-0-0/w PTR         r     1 RENAMES$
    *0-0-0/w PTR         r     1 RETURN$                  471-0-0/w PTR         r     1 RETURN_ETT$
    *0-0-0/w UBIN        r     1 RSV_WRD#                  *0-0-0/w UBIN        r     1 RSV_WRD#
   206-0-0/w PTR         r     1 SEARCH_QLT$               *0-0-0/w BIT (2)     r     1 SIGN
   446-0-0/b BIT (2)     r     1 SIGN                     453-0-0/b BIT (2)     r     1 SIGN
   323-0-0/w PTR         r     1 SIGN$                     *0-0-0/w SBIN        r     1 SIGN_TYPE
    *0-0-0/w PTR         r     1 ST$                      154-0-0/w PTR         r     1 ST$$
   362-0-0/w PTR         r     1 ST$$                     364-0-0/w PTR         r     1 ST$$
   557-0-0/w PTR         r     1 ST$$                     570-0-0/w PTR               1 ST$$
   207-0-0/b BIT         r     1 START_FOUND              430-0-0/w SBIN        r     1 STK_INDEX
   253-0-0/w SBIN        r     1 STK_OBJ                  270-0-0/w SBIN        r     1 STK_OBJ
   313-0-0/w SBIN        r     1 STK_OBJ                  354-0-0/w SBIN        r     1 STK_OBJ
   357-0-0/w SBIN        r     1 STK_OBJ                   *0-0-0/w SBIN        r     1 STK_PTR
   272-0-0/w UBIN              1 SYMBOL                   462-0-0/b BIT (2)     r     1 TA
   465-0-0/b BIT (2)     r     1 TA                        *0-0-0/w PTR         r     1 TARGET_BRO$
   215-0-0/b BIT               1 TARGET_FOUND             321-0-0/w SBIN        r     1 TEMP
   442-0-0/w SBIN        r     1 TEMP_LENGTH               *0-0-0/w SBIN        r     1 TEMP_LEVEL#
   433-0-0/w PTR         r     1 TEMP_QLT$                344-0-0/w PTR               1 TERM$
   334-0-0/w PTR         r     1 TERM2$                   340-0-0/w PTR         r     1 TERM2$
   335-0-0/w PTR         r     1 TERM3$                   345-0-0/w PTR               1 TERM3$
   423-0-0/w SBIN        r     1 TO#                       *0-0-0/w SBIN        r     1 TO_LEVEL
   475-0-0/w STRC(144)   r     1 TYPE_DESC                247-0-0/w PTR         r     1 USAGE$
   535-0-0/w PTR         r     1 VAL$                      *0-0-0/w PTR         r     1 VALUE$
    *0-0-0/w PTR         r     1 VALUE$                   273-0-0/w PTR         r     1 VALUE$
PL6.E3A0      #001=Z8DR$RECORD_DECL File=Z8DR.:Z8A6TSI                           SAT 08/09/97 11:18 Page:760
    *0-0-0/w PTR         r     1 VALUE$                    *0-0-0/w PTR         r     1 VALUE$
   310-0-0/w PTR         r     1 VALUE$                   534-0-0/w PTR         r     1 VALUE$

  ****  Section 001 LblCom ITERATION

  ****  Scalars and arrays  ****
OctLoc.c.b A Datatyp(siz) R M Lvl/name                 OctLoc.c.b A Datatyp(siz) R M Lvl/name

     0-0-0/w SBIN        r     1 ITERATION

  ****  Section 002 LblCom ST$

  ****  Scalars and arrays  ****
OctLoc.c.b A Datatyp(siz) R M Lvl/name                 OctLoc.c.b A Datatyp(siz) R M Lvl/name

     0-0-0/w PTR         r     1 ST$

  ****  Section 003 LblCom ST_

  ****  Scalars and arrays  ****
OctLoc.c.b A Datatyp(siz) R M Lvl/name                 OctLoc.c.b A Datatyp(siz) R M Lvl/name

     0-0-0/w STRC(180)   r     1 ST_

  ****  Section 004 LblCom QLT$

  ****  Scalars and arrays  ****
OctLoc.c.b A Datatyp(siz) R M Lvl/name                 OctLoc.c.b A Datatyp(siz) R M Lvl/name

     0-0-0/w PTR         r     1 QLT$

  ****  Section 005 LblCom PREV_01_QLT$

  ****  Scalars and arrays  ****
OctLoc.c.b A Datatyp(siz) R M Lvl/name                 OctLoc.c.b A Datatyp(siz) R M Lvl/name

     0-0-0/w PTR               1 PREV_01_QLT$
PL6.E3A0      #001=Z8DR$RECORD_DECL File=Z8DR.:Z8A6TSI                           SAT 08/09/97 11:18 Page:761

  ****  Section 006 LblCom QLT_

  ****  Scalars and arrays  ****
OctLoc.c.b A Datatyp(siz) R M Lvl/name                 OctLoc.c.b A Datatyp(siz) R M Lvl/name

     0-0-0/w STRC(180)   r     1 QLT_

  ****  Section 007 LblCom LTS$

  ****  Scalars and arrays  ****
OctLoc.c.b A Datatyp(siz) R M Lvl/name                 OctLoc.c.b A Datatyp(siz) R M Lvl/name

     0-0-0/w PTR               1 LONG_ITEM$                 0-0-0/w PTR         r     1 LTS$

  ****  Section 008 LblCom LTS_

  ****  Scalars and arrays  ****
OctLoc.c.b A Datatyp(siz) R M Lvl/name                 OctLoc.c.b A Datatyp(siz) R M Lvl/name

     0-0-0/w STRC(180)   r     1 LTS_

  ****  Section 009 LblCom DNT$

  ****  Scalars and arrays  ****
OctLoc.c.b A Datatyp(siz) R M Lvl/name                 OctLoc.c.b A Datatyp(siz) R M Lvl/name

     0-0-0/w PTR         r     1 DNT$

  ****  Section 010 LblCom DNT_

  ****  Scalars and arrays  ****
OctLoc.c.b A Datatyp(siz) R M Lvl/name                 OctLoc.c.b A Datatyp(siz) R M Lvl/name

     0-0-0/w STRC(180)         1 DNT_

  ****  Section 011 LblCom DNT_BUCKET_NUMBER
PL6.E3A0      #001=Z8DR$RECORD_DECL File=Z8DR.:Z8A6TSI                           SAT 08/09/97 11:18 Page:762

  ****  Scalars and arrays  ****
OctLoc.c.b A Datatyp(siz) R M Lvl/name                 OctLoc.c.b A Datatyp(siz) R M Lvl/name

     0-0-0/w UBIN              1 DNT_BUCKET_NUMBER

  ****  Section 012 LblCom DNT_OF_1$

  ****  Scalars and arrays  ****
OctLoc.c.b A Datatyp(siz) R M Lvl/name                 OctLoc.c.b A Datatyp(siz) R M Lvl/name

     0-0-0/w PTR               1 DNT_OF_1$

  ****  Section 013 LblCom ILL$

  ****  Scalars and arrays  ****
OctLoc.c.b A Datatyp(siz) R M Lvl/name                 OctLoc.c.b A Datatyp(siz) R M Lvl/name

     0-0-0/w PTR         r     1 ILL$

  ****  Section 014 LblCom ILL_

  ****  Scalars and arrays  ****
OctLoc.c.b A Datatyp(siz) R M Lvl/name                 OctLoc.c.b A Datatyp(siz) R M Lvl/name

     0-0-0/w STRC(180)         1 ILL_

  ****  Section 015 LblCom ETT$

  ****  Scalars and arrays  ****
OctLoc.c.b A Datatyp(siz) R M Lvl/name                 OctLoc.c.b A Datatyp(siz) R M Lvl/name

     0-0-0/w PTR         r     1 ETT$

  ****  Section 016 LblCom HEAD_ETT$

  ****  Scalars and arrays  ****
PL6.E3A0      #001=Z8DR$RECORD_DECL File=Z8DR.:Z8A6TSI                           SAT 08/09/97 11:18 Page:763
OctLoc.c.b A Datatyp(siz) R M Lvl/name                 OctLoc.c.b A Datatyp(siz) R M Lvl/name

     0-0-0/w PTR               1 HEAD_ETT$

  ****  Section 017 LblCom ETT_BUCKETS

  ****  Scalars and arrays  ****
OctLoc.c.b A Datatyp(siz) R M Lvl/name                 OctLoc.c.b A Datatyp(siz) R M Lvl/name

     0-0-0/w PTR               1 ETT_BUCKETS(0:511)

  ****  Section 018 LblCom ETT_

  ****  Scalars and arrays  ****
OctLoc.c.b A Datatyp(siz) R M Lvl/name                 OctLoc.c.b A Datatyp(siz) R M Lvl/name

     0-0-0/w STRC(180)         1 ETT_

  ****  Section 019 LblCom XREF$

  ****  Scalars and arrays  ****
OctLoc.c.b A Datatyp(siz) R M Lvl/name                 OctLoc.c.b A Datatyp(siz) R M Lvl/name

     0-0-0/w PTR         r     1 XREF$

  ****  Section 020 LblCom XREF_

  ****  Scalars and arrays  ****
OctLoc.c.b A Datatyp(siz) R M Lvl/name                 OctLoc.c.b A Datatyp(siz) R M Lvl/name

     0-0-0/w STRC(180)   r     1 XREF_

  ****  Section 021 LblCom MKCN

  ****  Scalars and arrays  ****
OctLoc.c.b A Datatyp(siz) R M Lvl/name                 OctLoc.c.b A Datatyp(siz) R M Lvl/name

PL6.E3A0      #001=Z8DR$RECORD_DECL File=Z8DR.:Z8A6TSI                           SAT 08/09/97 11:18 Page:764
     0-0-0/w STRC(72)    r     1 MKCN

  ****  Section 022 LblCom LEX_SYMBOL

  ****  Scalars and arrays  ****
OctLoc.c.b A Datatyp(siz) R M Lvl/name                 OctLoc.c.b A Datatyp(siz) R M Lvl/name

     0-0-0/w STRC(3240)  r     1 LEX_SYMBOL                 0-0-0/w STRC(3240)        1 LEX_SYMBOL_WORDS

  ****  Section 023 LblCom CURRENT_LEX_SYMBOL$

  ****  Scalars and arrays  ****
OctLoc.c.b A Datatyp(siz) R M Lvl/name                 OctLoc.c.b A Datatyp(siz) R M Lvl/name

     0-0-0/w PTR         r     1 CURRENT_LEX_SYMBOL$

  ****  Section 024 LblCom TEMP_LEX_SYMBOL

  ****  Scalars and arrays  ****
OctLoc.c.b A Datatyp(siz) R M Lvl/name                 OctLoc.c.b A Datatyp(siz) R M Lvl/name

     0-0-0/w STRC(3240)        1 TEMP_LEX_SYMBOL

  ****  Section 025 LblCom TEMP_LEX_SYMBOL2

  ****  Scalars and arrays  ****
OctLoc.c.b A Datatyp(siz) R M Lvl/name                 OctLoc.c.b A Datatyp(siz) R M Lvl/name

     0-0-0/w STRC(3240)        1 TEMP_LEX_SYMBOL2

  ****  Section 026 LblCom HEAP$

  ****  Scalars and arrays  ****
OctLoc.c.b A Datatyp(siz) R M Lvl/name                 OctLoc.c.b A Datatyp(siz) R M Lvl/name

     0-0-0/w PTR               1 HEAP$

PL6.E3A0      #001=Z8DR$RECORD_DECL File=Z8DR.:Z8A6TSI                           SAT 08/09/97 11:18 Page:765
  ****  Section 027 LblCom TEMP_LX_NODE

  ****  Scalars and arrays  ****
OctLoc.c.b A Datatyp(siz) R M Lvl/name                 OctLoc.c.b A Datatyp(siz) R M Lvl/name

     0-0-0/d STRC(288)         1 TEMP_LX_NODE

  ****  Section 028 LblCom PIC_OUT

  ****  Scalars and arrays  ****
OctLoc.c.b A Datatyp(siz) R M Lvl/name                 OctLoc.c.b A Datatyp(siz) R M Lvl/name

     0-0-0/w STRC(792)   r     1 PIC_OUT

  ****  Section 029 RtLmCm GROUP

  ****  Scalars and arrays  ****
OctLoc.c.b A Datatyp(siz) R M Lvl/name                 OctLoc.c.b A Datatyp(siz) R M Lvl/name

     0-0-0/w STRC(180)   r     1 GROUP

  ****  SYMREF variables  ****

  ****  Scalars and arrays  ****
OctLoc.c.b A Datatyp(siz) R M Lvl/name                 OctLoc.c.b A Datatyp(siz) R M Lvl/name

     0-0-0/d STRC(13248) r     1 COMCOM
     0-0-0/w PTR         r     1 DNT$_FROM_RSWNO(0:0)
     0-0-0/w STRC(180)   r     1 HIER_STK(0:50)
     0-0-0/w SBIN        r     1 HIER_STK_PTR               0-0-0/w UBIN              1 ILL_STEP(0:144)
     0-0-0/w UBIN              1 LTS_STEP(0:37)
     0-0-0/d STRC(11580) r     1 O1COM                      0-0-0/w STRC(144)         1 PAGE_FORMAT
     0-0-0/w STRC(153)         1 REP_STK(0:50)              0-0-0/w SBIN              1 REP_STK_PTR

  ****  BASED and DCB variables  ****

  ****  Scalars and arrays  ****
PL6.E3A0      #001=Z8DR$RECORD_DECL File=Z8DR.:Z8A6TSI                           SAT 08/09/97 11:18 Page:766
OctLoc.c.b A Datatyp(siz) R M Lvl/name                 OctLoc.c.b A Datatyp(siz) R M Lvl/name

     0-0-0/w STRC(108)         1 ACCEPT_DISPLAY             0-0-0/w STRC(288)         1 ADD_STMT
     0-0-0/w STRC(396)         1 ALPHABET                   0-0-0/w STRC(144)         1 ALTER_LTS
     0-0-0/w STRC(3672)        1 ALT_KEY                    0-0-0/w STRC(36864)       1 ARGLIST
     0-0-0/w STRC(396)   r     1 ARRAY                      0-0-0/w STRC(180)         1 ARRAY_PRESET_LTS
     0-0-0/w ASTR(324)   r     1 BASED_LEX_SYMBOL
     0-0-0/w STRC(360)         1 BASED_LEX_SYMBOL_WORDS
     0-0-0/w STRC(288)   r     1 BASE_LTS                   0-0-0/w STRC(108)         1 BINARY_ILL
     0-0-0/w STRC(288)         1 BINARY_OP                  0-0-0/w STRC(396)   r     1 BLOCK
     0-0-0/w STRC(144)         1 BRANCH_ILL                 0-0-0/w STRC(144)         1 BT
     0-0-0/w STRC(288)         1 CALL_STMT                  0-0-0/w STRC(216)         1 CCOSU
     0-0-0/w STRC(396)         1 CD                         0-0-0/w STRC(288)   r     1 CD_LTS
     0-0-0/w CHAR(4096)        1 CHARS                      0-0-0/w STRC(396)         1 CLASS
     0-0-0/w STRC(108)         1 CODED_MOVE                 0-0-0/w STRC(288)         1 COMPUTE_STMT
     0-0-0/w STRC(396)   r     1 CONDITION                  0-0-0/w STRC(396)   r     1 CONST
     0-0-0/w STRC(72)    r     1 CONT                       0-0-0/w STRC(540)         1 CONTROL_NAME_LTS
     0-0-0/w STRC(1872)        1 COPY_FILE                  0-0-0/w STRC(396)         1 DB
     0-0-0/w STRC(396)         1 DCB_                       0-0-0/w STRC(288)         1 DEFERED_IDENTIFIER
     0-0-0/w STRC(252)         1 DEFERED_ID_TREE            0-0-0/w STRC(288)   r     1 DEFERED_QUAL_ID
     0-0-0/w STRC(288)         1 DEFERED_SUM_CLAUSE
     0-0-0/w STRC(288)         1 DEFERED_SUM_CLAUSE_LIST
     0-0-0/w STRC(144)         1 DEFLB                      0-0-0/w STRC(288)         1 DELETE_STMT
     0-0-0/w STRC(108)         1 DEPENDING_SIZE             0-0-0/w STRC(5472)  r     1 DIMS
     0-0-0/w STRC(288)         1 DIVIDE_STMT                0-0-0/w STRC(396)         1 DML_ITEM
     0-0-0/w STRC(216)         1 DML_REC                    0-0-0/w ASTR(180)   r     1 DNT
     0-0-0/w STRC(144)         1 DOEND                      0-0-0/w STRC(396)         1 DO_N
     0-0-0/w STRC(180)         1 DV4I                       0-0-0/w STRC(180)         1 ENTRY_ILL
     0-0-0/w STRC(180)   r     1 ETT                        0-0-0/w STRC(108)         1 EVALU
     0-0-0/w STRC(73836)       1 EVALUATE                   0-0-0/w STRC(396)   r     1 FD
     0-0-0/w STRC(1692)  r     1 FILE_LTS                   0-0-0/w STRC(144)         1 GO
     0-0-0/w STRC(180)         1 ILL                        0-0-0/w STRC              1 ILL_NO_OPS
     0-0-0/w STRC(288)         1 ILS_LIST                   0-0-0/w STRC(108)   r     1 INDEXES
     0-0-0/w STRC(360)         1 INIT_LTS                   0-0-0/w STRC(288)         1 INSPECT_1_STMT
     0-0-0/w STRC(288)         1 INSPECT_2_STMT             0-0-0/w STRC(288)         1 INSPECT_4_STMT
     0-0-0/w STRC(396)         1 INTDEF                     0-0-0/w STRC(180)         1 IO_RESTORE_CHAIN
     0-0-0/w STRC(144)         1 KEY                        0-0-0/w STRC(396)         1 LABEL
PL6.E3A0      #001=Z8DR$RECORD_DECL File=Z8DR.:Z8A6TSI                           SAT 08/09/97 11:18 Page:767
     0-0-0/w STRC(288)         1 LA_ITEM                    0-0-0/w STRC(36864)       1 LCNST
     0-0-0/w STRC(108)         1 LINOI                      0-0-0/w STRC(72)    r     1 LONG
     0-0-0/w STRC        r     1 LTS                        0-0-0/w STRC(360)   r     1 LTSS
     0-0-0/w STRC(36936)       1 LTS_PTR_ARRAY              0-0-0/w STRC(504)         1 LX_CD_INPUT
     0-0-0/w STRC(324)         1 LX_CD_I_O                  0-0-0/w STRC(396)         1 LX_CD_OUTPUT
     0-0-0/w STRC(288)         1 LX_ETT_ITEM                0-0-0/w STRC(288)   r     1 LX_ITEM
     0-0-0/w STRC(288)   r     1 LX_LARGE                   0-0-0/w STRC(288)   r     1 LX_LIST
     0-0-0/w STRC(1224)  r     1 LX_REC_DECL                0-0-0/w STRC(864)         1 LX_REPORT_REC
     0-0-0/w STRC(288)   r     1 LX_TERMINAL                0-0-0/w STRC(72)          1 MFILL
     0-0-0/w STRC(396)         1 MNEMONIC                   0-0-0/w STRC(288)         1 MULTIPLY_STMT
     0-0-0/w STRC(180)         1 MULTI_GO                   0-0-0/w STRC(180)         1 MVEAL
     0-0-0/w STRC(108)         1 MVFIL                      0-0-0/w STRC(72)          1 MVIIS
     0-0-0/w STRC(144)   r     1 NEL                        0-0-0/w STRC(216)         1 OPEN_LTS
     0-0-0/w STRC(180)         1 OS_CALL                    0-0-0/w STRC(36864)       1 PAGE
     0-0-0/w STRC(396)         1 PARA                       0-0-0/w STRC(216)         1 PFORM
     0-0-0/w STRC(144)         1 PINC                       0-0-0/w STRC(144)         1 PREOFF
     0-0-0/w STRC(108)   r     1 PRESET                     0-0-0/w STRC(144)         1 PRIME
     0-0-0/w STRC(396)   r     1 PROC_                      0-0-0/w STRC(396)         1 PROC_DEF
     0-0-0/w STRC(900)   r     1 PROC_SUPP                  0-0-0/w STRC(144)         1 P_A_PRESET
     0-0-0/w STRC(144)         1 P_P_PRESET                 0-0-0/w STRC(216)   r     1 QLT
     0-0-0/w STRC(396)         1 RD                         0-0-0/w STRC(288)         1 READ_STMT
     0-0-0/w STRC(216)         1 REF                        0-0-0/w STRC(144)         1 REMEM
     0-0-0/w STRC(108)   r     1 RENAMES                    0-0-0/w STRC(720)         1 REPORT_01_LTS
     0-0-0/w STRC(432)         1 REPORT_ELEM_LTS            0-0-0/w STRC(252)         1 REPORT_GRP_LTS
     0-0-0/w STRC(1332)        1 REPORT_LTS                 0-0-0/w STRC(288)         1 REWRITE_STMT
     0-0-0/w STRC(144)         1 RVA_LTS                    0-0-0/w STRC(396)   r     1 SCALAR
     0-0-0/w STRC(144)         1 SCOPE                      0-0-0/w STRC(396)         1 SD
     0-0-0/w STRC(216)         1 SEARCH_                    0-0-0/w STRC(396)         1 SECTION
     0-0-0/w STRC(396)         1 SEGMENT                    0-0-0/w STRC(360)         1 SEGMENT_LTS
     0-0-0/w STRC(396)   r     1 ST                         0-0-0/w STRC(288)         1 START_STMT
     0-0-0/w STRC(72)          1 STP2                       0-0-0/w STRC(252)         1 STRING_STMT
     0-0-0/w STRC(288)         1 SUBTRACT_STMT              0-0-0/w STRC(252)         1 SUM_LTS
     0-0-0/w STRC(396)         1 SWITCH                     0-0-0/w STRC(396)         1 SYMBOLIC_CHAR
     0-0-0/w STRC(396)         1 SYMDEF_                    0-0-0/w STRC(396)         1 SYMREF_
     0-0-0/w STRC(396)         1 TEMP                       0-0-0/w STRC(144)         1 TRINARY_ILL
     0-0-0/w STRC(72)          1 UNARY_ILL                  0-0-0/w STRC(288)         1 UNARY_OP
     0-0-0/w STRC(288)         1 UNSTRING_STMT              0-0-0/d STRC(612)         1 USE
PL6.E3A0      #001=Z8DR$RECORD_DECL File=Z8DR.:Z8A6TSI                           SAT 08/09/97 11:18 Page:768
     0-0-0/w STRC(216)         1 USER_CALL                  0-0-0/w STRC(252)         1 USE_SUPP
     0-0-0/w STRC(108)         1 VAL                        0-0-0/w STRC(108)         1 VAL_END
     0-0-0/w STRC(396)   r     1 VARIABLE                   0-0-0/w STRC(72)          1 WHEN
     0-0-0/w STRC(288)         1 WRITE_STMT                 0-0-0/w STRC(72)    r     1 XREF


   Procedure Z8DR$RECORD_DECL requires 10872 words for executable code.
   Procedure Z8DR$RECORD_DECL is declared NOAUTO and requires 394 words of local(STATIC) storage.

