PL6.E3A0      #002=Z8DR$NEW_INDEX File=Z8DR.:Z8A6TSI                             SAT 08/09/97 11:29 Page:769
     4627        1        /*T***********************************************************/
     4628        2        /*T*                                                         */
     4629        3        /*T* Copyright (c) Bull HN Information Systems Inc., 1997    */
     4630        4        /*T*                                                         */
     4631        5        /*T***********************************************************/
     4632        6        /*==============*/
     4633        7          Z8DR$NEW_INDEX: PROC (INDEX$, TYPE, LEVEL, NEW_QLT$, INDEX_ST$);
     4634        8        /*==============*/
     4635        9
     4636       10        %EQU PHASE = 1;
     4637       11        %EQU #TYA_LENGTH = 4;
     4638       12        %EQU #TYA_TEXT   = '#TYA';
     4639       13        %EQU #COMP1_TEXT = '#COMP1';
     4640       14        %EQU #COMP2_TEXT = '#COMP2';
     4641       15        %EQU #COMP1_LENGTH = 6;
     4642       16        %EQU #COMP2_LENGTH = 6;
     4643       17        %EQU #COMP6_TEXT1 = '#COMP6-1';
     4644       18        %EQU #COMP6_LENGTH = 8;
     4645       19        %EQU #COMP6_TEXT2 = '#COMP6-2';
     4646       20
     4647       21
     4648       22        %INCLUDE Z8A_DEFC;
     4649       90        %INCLUDE Z8A_SUPP_MAC;
     4650     2490        %INCLUDE Z8A_COMCOM;
     4651     3140        %INCLUDE Z8A_ERR_NUMS;
     4652     3904        %INCLUDE Z8A_ST;
     4653     7563        %INCLUDE Z8A_QLT;
     4654     7669        %INCLUDE Z8A_LTS;
     4655     9746        %INCLUDE Z8A_DNT;
     4656     9967        %INCLUDE Z8A_TYPES;
     4657    10141        %INCLUDE Z8A_XREF;
     4658    10213        %INCLUDE Z8E_STACKS;
     4659    12479        %INCLUDE Z8E_O1COM;
     4660    13240        %INCLUDE Z8E_WINDOW;
     4661    15310
     4662    15311    1   DCL Z8AE$ERROR                ENTRY(12);
     4663    15312
PL6.E3A0      #002=Z8DR$NEW_INDEX File=Z8DR.:Z8A6TSI                             SAT 08/09/97 11:29 Page:770
     4664    15313        /* Parameters */
     4665    15314    1   DCL INDEX$                    PTR;      /* Input dnt */
     4666    15315    1   DCL TYPE                      SBIN WORD;/* Input type (tyx or tyy) */
     4667    15316    1   DCL LEVEL                     SBIN WORD;/* Input level#            */
     4668    15317    1   DCL NEW_QLT$                  PTR;      /* Output qlt -- new index */
     4669    15318    1   DCL INDEX_ST$                 PTR;      /* Output st -- new index */
     4670    15319
     4671    15320    1   DCL TYA_ST$                   PTR;
     4672    15321    1   DCL WORD1_ST$                 PTR;
     4673    15322    1   DCL WORD2_ST$                 PTR;
     4674    15323    1   DCL TYA_QLT$                  PTR;
     4675    15324    1   DCL WORD1_QLT$                PTR;
     4676    15325    1   DCL WORD2_QLT$                PTR;
     4677    15326    1   DCL TYA_DNT$                  PTR;
     4678    15327    1   DCL WORD1_DNT$                PTR;
     4679    15328    1   DCL WORD2_DNT$                PTR;
     4680    15329    1   DCL INDEX_DNT$                PTR;
     4681    15330
     4682    15331    1   DCL LENGTH                    SBIN WORD;
     4683    15332    1   DCL WORD1_TYPE                SBIN WORD;
     4684    15333    1   DCL WORD2_TYPE                SBIN WORD;
     4685    15334    1   DCL WORD1_LENGTH              SBIN WORD;
     4686    15335    1   DCL WORD2_LENGTH              SBIN WORD;
     4687    15336
     4688    15337    1   DCL 1 DESC                    ALIGNED,
     4689    15338             %DESCRIPTOR              (LVL = 2, ENDING = YES);
     4690    15366
     4691    15367
     4692    15368        %EJECT;
PL6.E3A0      #002=Z8DR$NEW_INDEX File=Z8DR.:Z8A6TSI                             SAT 08/09/97 11:29 Page:771
     4693    15369        /* Preliminary type checking and info gathering */
     4694    15370
     4695    15371    1      INDEX_DNT$ = INDEX$ -> LX_TERMINAL.DNT$;
     4696    15372
     4697    15373           %NEW_DNT (@POINTER = TYA_DNT$,
     4698    15374                     @SIZE    = "INDEX_DNT$ -> DNT.TEXT.LENGTH + %#TYA_LENGTH");
     4699    15432
     4700    15433    1      CALL CONCAT (TYA_DNT$ -> DNT.TEXT.NAME,
     4701    15434    1                   INDEX_DNT$ -> DNT.TEXT.NAME,
     4702    15435    1                   %#TYA_TEXT);
     4703    15436
     4704    15437    2      DO CASE (TYPE);
     4705    15438    2        CASE(%TYX);
     4706    15439    2          LENGTH       = %TYX_LENGTH;
     4707    15440    2          WORD1_TYPE   = %TYI;
     4708    15441    2          WORD1_LENGTH = %TYI_LENGTH;
     4709    15442    2          WORD2_TYPE   = %TYI;
     4710    15443    2          WORD2_LENGTH = %TYI_LENGTH;
     4711    15444
     4712    15445               %NEW_DNT (@POINTER = WORD1_DNT$,
     4713    15446                         @SIZE    = "INDEX_DNT$ -> DNT.TEXT.LENGTH + %#COMP6_LENGTH");
     4714    15504
     4715    15505    2          CALL CONCAT (WORD1_DNT$ -> DNT.TEXT.NAME,
     4716    15506    2                       INDEX_DNT$ -> DNT.TEXT.NAME,
     4717    15507    2                       %#COMP6_TEXT1);
     4718    15508
     4719    15509               %NEW_DNT (@POINTER = WORD2_DNT$,
     4720    15510                         @SIZE    = "INDEX_DNT$ -> DNT.TEXT.LENGTH + %#COMP6_LENGTH");
     4721    15568
     4722    15569    2          CALL CONCAT (WORD2_DNT$ -> DNT.TEXT.NAME,
     4723    15570    2                       INDEX_DNT$ -> DNT.TEXT.NAME,
     4724    15571    2                       %#COMP6_TEXT2);
     4725    15572
     4726    15573
     4727    15574    2        CASE(%TYY);
     4728    15575    2          LENGTH       = %TYY_LENGTH;
     4729    15576    2          WORD1_TYPE   = %TYK;
PL6.E3A0      #002=Z8DR$NEW_INDEX File=Z8DR.:Z8A6TSI                             SAT 08/09/97 11:29 Page:772
     4730    15577    2          WORD1_LENGTH = %TYK_LENGTH;
     4731    15578    2          WORD2_TYPE   = %TYJ;
     4732    15579    2          WORD2_LENGTH = %TYJ_LENGTH;
     4733    15580
     4734    15581               %NEW_DNT (@POINTER = WORD1_DNT$,
     4735    15582                         @SIZE    = "INDEX_DNT$ -> DNT.TEXT.LENGTH + %#COMP2_LENGTH");
     4736    15640
     4737    15641    2          CALL CONCAT (WORD1_DNT$ -> DNT.TEXT.NAME,
     4738    15642    2                       INDEX_DNT$ -> DNT.TEXT.NAME,
     4739    15643    2                       %#COMP2_TEXT);
     4740    15644
     4741    15645               %NEW_DNT (@POINTER = WORD2_DNT$,
     4742    15646                         @SIZE    = "INDEX_DNT$ -> DNT.TEXT.LENGTH + %#COMP1_LENGTH");
     4743    15704
     4744    15705    2          CALL CONCAT (WORD2_DNT$ -> DNT.TEXT.NAME,
     4745    15706    2                       INDEX_DNT$ -> DNT.TEXT.NAME,
     4746    15707    2                       %#COMP1_TEXT);
     4747    15708
     4748    15709
     4749    15710    2      END;
     4750    15711
     4751    15712        %EJECT;
PL6.E3A0      #002=Z8DR$NEW_INDEX File=Z8DR.:Z8A6TSI                             SAT 08/09/97 11:29 Page:773
     4752    15713        /* Create the index item */
     4753    15714
     4754    15715           %BUILD_BINARY_DESC (@DESC   = DESC,
     4755    15716                               @LENGTH = LENGTH);
     4756    15724
     4757    15725           %NEW_SCALAR        (@ST$   = INDEX_ST$,
     4758    15726                               @DESCL = DESC.DESCL,
     4759    15727                               @TYPE  = TYPE,
     4760    15728                               @LINE_NO = INDEX$ -> LX_TERMINAL.LINE,
     4761    15729                               @CLASS = %CLASS_UNDEFINED,
     4762    15730                               @NEXT  = INDEX_DNT$ -> DNT.ST$,
     4763    15731                               @DNT$  = INDEX_DNT$);
     4764    15931
     4765    15932    1      INDEX_ST$ -> SCALAR.B.ELEMENTARY = TRUE;
     4766    15933    1      INDEX_ST$ -> SCALAR.B.REDEF_OBJ  = TRUE;
     4767    15934
     4768    15935    1      IF INDEX$ -> LX_ITEM.SYMBOL ~= %RSV_WRD_FILLER THEN
     4769    15936    1        INDEX_DNT$ -> DNT.ST$      = INDEX_ST$;
     4770    15937
     4771    15938           %NEW_QLT           (@POINTER = NEW_QLT$,
     4772    15939                               @ST$     = INDEX_ST$,
     4773    15940                               @DNT$    = INDEX_DNT$,
     4774    15941                               @LEVEL#  = LEVEL);
     4775    15966
     4776    15967    1      INDEX_ST$ -> SCALAR.QLT$ = NEW_QLT$;
     4777    15968
     4778    15969           %ADD_XREF (SYM  = INDEX_ST$,
     4779    15970                      ISN  = INDEX$ -> LX_TERMINAL.LINE,
     4780    15971                      TYPE = %XREF_DCL);
     4781    15989
     4782    15990        %EJECT;
PL6.E3A0      #002=Z8DR$NEW_INDEX File=Z8DR.:Z8A6TSI                             SAT 08/09/97 11:29 Page:774
     4783    15991        /* Create REDEF tya group item */
     4784    15992
     4785    15993           %PACK_ADSC    (@DESC   = DESC,
     4786    15994                          @LENGTH = LENGTH);
     4787    16018
     4788    16019           %NEW_SCALAR   (@ST$    = TYA_ST$,
     4789    16020                          @DESCL  = DESC.DESCL,
     4790    16021                          @TYPE   = %TYA,
     4791    16022                          @LINE_NO= INDEX$ -> LX_TERMINAL.LINE,
     4792    16023                          @CLASS  = %CLASS_ALPHANUMERIC,
     4793    16024                          @COMPILER_CREATED = TRUE,         /*#33133*/
     4794    16025                          @DNT$   = TYA_DNT$);
     4795    16225
     4796    16226    1      TYA_ST$ -> SCALAR.B.REDEF_SUB = TRUE;
     4797    16227    1      TYA_DNT$ -> DNT.ST$       = TYA_ST$;
     4798    16228
     4799    16229           %NEW_QLT      (@POINTER = TYA_QLT$,
     4800    16230                          @ST$     = TYA_ST$,
     4801    16231                          @DNT$    = TYA_DNT$,
     4802    16232                          @LEVEL#  = LEVEL);
     4803    16257
     4804    16258    1      NEW_QLT$ -> QLT.BROTHER = TYA_QLT$;
     4805    16259    1      TYA_ST$ -> SCALAR.QLT$      = TYA_QLT$;
     4806    16260
     4807    16261        %EJECT;
PL6.E3A0      #002=Z8DR$NEW_INDEX File=Z8DR.:Z8A6TSI                             SAT 08/09/97 11:29 Page:775
     4808    16262        /* Create the first word of the structure */
     4809    16263
     4810    16264           %BUILD_BINARY_DESC (@DESC    = DESC,
     4811    16265                               @LENGTH  = WORD1_LENGTH);
     4812    16273
     4813    16274           %NEW_SCALAR        (@ST$     = WORD1_ST$,
     4814    16275                               @DESCL   = DESC.DESCL,
     4815    16276                               @TYPE    = WORD1_TYPE,
     4816    16277                               @LINE_NO = INDEX$ -> LX_TERMINAL.LINE,
     4817    16278                               @CLASS   = %CLASS_NUMERIC,
     4818    16279                               @COMPILER_CREATED = TRUE,    /*#33133*/
     4819    16280                               @DNT$    = WORD1_DNT$);
     4820    16480
     4821    16481    1      WORD1_ST$ -> SCALAR.B.ELEMENTARY = TRUE;
     4822    16482    1      WORD1_DNT$ -> DNT.ST$        = WORD1_ST$;
     4823    16483
     4824    16484           %NEW_QLT           (@POINTER = WORD1_QLT$,
     4825    16485                               @ST$     = WORD1_ST$,
     4826    16486                               @FATHER  = TYA_QLT$,
     4827    16487                               @DNT$    = WORD1_DNT$,
     4828    16488                               @LEVEL#  = LEVEL + 1);
     4829    16513
     4830    16514    1      TYA_QLT$ -> QLT.SON = WORD1_QLT$;
     4831    16515    1      WORD1_ST$ -> SCALAR.QLT$ = WORD1_QLT$;
     4832    16516
     4833    16517        %EJECT;
PL6.E3A0      #002=Z8DR$NEW_INDEX File=Z8DR.:Z8A6TSI                             SAT 08/09/97 11:29 Page:776
     4834    16518        /* Create the second word of the structure */
     4835    16519
     4836    16520           %BUILD_BINARY_DESC (@DESC   = DESC,
     4837    16521                               @LENGTH = WORD2_LENGTH);
     4838    16529
     4839    16530           %NEW_SCALAR        (@ST$    = WORD2_ST$,
     4840    16531                               @DESCL  = DESC.DESCL,
     4841    16532                               @TYPE   = WORD2_TYPE,
     4842    16533                               @LINE_NO= INDEX$ -> LX_TERMINAL.LINE,
     4843    16534                               @CLASS  = %CLASS_NUMERIC,
     4844    16535                               @COMPILER_CREATED = TRUE,    /*#33133*/
     4845    16536                               @DNT$   = WORD2_DNT$);
     4846    16736
     4847    16737    1      WORD2_ST$ -> SCALAR.B.ELEMENTARY = TRUE;
     4848    16738    1      WORD2_DNT$ -> DNT.ST$        = WORD2_ST$;
     4849    16739
     4850    16740           %NEW_QLT           (@POINTER = WORD2_QLT$,
     4851    16741                               @ST$     = WORD2_ST$,
     4852    16742                               @FATHER  = TYA_QLT$,
     4853    16743                               @DNT$    = WORD2_DNT$,
     4854    16744                               @LEVEL#  = LEVEL + 1);
     4855    16769
     4856    16770    1      WORD1_QLT$ -> QLT.BROTHER    = WORD2_QLT$;
     4857    16771    1      WORD2_ST$ -> SCALAR.QLT$         = WORD2_QLT$;
     4858    16772
     4859    16773    1   END Z8DR$NEW_INDEX;
     4860    16774        %EOD;

PL6.E3A0      #002=Z8DR$NEW_INDEX File=Z8DR.:Z8A6TSI                             SAT 08/09/97 11:29 Page:777
--  Include file information  --

   Z8E_WINDOW.:Z8A6TOU  is referenced.
   Z8E_O1COM.:Z8A6TOU  cannot be made into a system file and is referenced.
   Z8A_LEX_SYMB.:Z8A6TOU  cannot be made into a system file and is referenced.
   Z8E_STACKS.:Z8A6TOU  cannot be made into a system file and is referenced.
   Z8A_XREF.:Z8A6TOU  cannot be made into a system file and is referenced.
   Z8A_TYPES.:Z8A6TOU  is referenced.
   Z8A_DNT.:Z8A6TOU  cannot be made into a system file and is referenced.
   Z8A_LTS.:Z8A6TOU  cannot be made into a system file and is referenced.
   Z8A_QLT.:Z8A6TOU  cannot be made into a system file and is referenced.
   Z8A_ST.:Z8A6TOU  cannot be made into a system file and is referenced.
   Z8A_ERR_NUMS.:Z8A6TOU  is referenced.
   Z8A_COMCOM.:Z8A6TOU  cannot be made into a system file and is referenced.
   X8A_COM_MACS.:X8A6TOU  is referenced.
   Z8A_NAMES.:Z8A6TOU  is referenced.
   Z8A_SUPP_MAC.:Z8A6TOU  is referenced.
   Z8A_DEFC.:Z8A6TOU  cannot be made into a system file and is referenced.
      No diagnostics issued in procedure Z8DR$NEW_INDEX.

   Procedure Z8DR$NEW_INDEX requires 950 words for executable code.
   Procedure Z8DR$NEW_INDEX requires 26 words of local(AUTO) storage.

PL6.E3A0      #002=Z8DR$NEW_INDEX File=Z8DR.:Z8A6TSI                             SAT 08/09/97 11:29 Page:778

 Object Unit name= Z8DR$NEW_INDEX                             File name= Z8DR.:Z8A6TOU
 UTS= AUG 09 '97 11:29:03.12 SAT                              Compiler= PL-6/E31         Sev=      00
 SharedLib= :SHARED_SYSTEM                                    Alt SharedLib=


    ****  Control sections  ****

 Sect   Type Bound  Init  Size OctSiz  Section name(segment info)
    0  LblCom even  none     1      1  ITERATION
    1  LblCom even  none     1      1  ST$
    2  LblCom even  none     5      5  ST_
    3  LblCom even  none     1      1  QLT$
    4  LblCom even  none     1      1  PREV_01_QLT$
    5  LblCom even  none     5      5  QLT_
    6  LblCom even  none     1      1  LTS$
    7  LblCom even  none     5      5  LTS_
    8  LblCom even  none     1      1  DNT$
    9  LblCom even  none     5      5  DNT_
   10  LblCom even  none     1      1  DNT_BUCKET_NUMBER
   11  LblCom even  none     1      1  DNT_OF_1$
   12  LblCom even  none     1      1  XREF$
   13  LblCom even  none     5      5  XREF_
   14  LblCom even  none    90    132  LEX_SYMBOL
   15  LblCom even  none     1      1  CURRENT_LEX_SYMBOL$
   16  LblCom even  none    90    132  TEMP_LEX_SYMBOL
   17  LblCom even  none    90    132  TEMP_LEX_SYMBOL2
   18  RoData even  UTS      9     11  Z8DR$NEW_INDEX
   19   Proc  even  none   950   1666  Z8DR$NEW_INDEX
   20  RoData even  none    15     17  Z8DR$NEW_INDEX

    ****  Entry defs  ****

                              Check   Calling
                             calling  sequence
  Sect OctLoc Primary Altret sequence   type   Parms  Name
    19      0   yes            yes      Std        5  Z8DR$NEW_INDEX
PL6.E3A0      #002=Z8DR$NEW_INDEX File=Z8DR.:Z8A6TSI                             SAT 08/09/97 11:29 Page:779

  ****  Entry refs  ****

         Check        Calling
        calling       sequence
Altret sequence SRef   type   Args  Name
         yes           Std       1 Z8AR$RESERVER
                       nStd      0 X66_AUTO_5
                       nStd      0 X66_ARET

  ****  Data refs  ****

  Flags:  r = read only, s = secondary
Flgs Name                             Flgs Name                             Flgs Name
     COMCOM                           r    LTS_STEP                              O1COM
     HIER_STK_PTR                          HIER_STK                              PAGE_FORMAT
     REP_STK_PTR                           REP_STK

  ****  Segment refs  ****

  Flags:  r = read only, s = secondary
Flgs Name                             Flgs Name                             Flgs Name
     NULLSID                               ISSID
PL6.E3A0      #002=Z8DR$NEW_INDEX File=Z8DR.:Z8A6TSI                             SAT 08/09/97 11:29 Page:780


     4627        1        /*T***********************************************************/
     4628        2        /*T*                                                         */
     4629        3        /*T* Copyright (c) Bull HN Information Systems Inc., 1997    */
     4630        4        /*T*                                                         */
     4631        5        /*T***********************************************************/
     4632        6        /*==============*/
     4633        7          Z8DR$NEW_INDEX: PROC (INDEX$, TYPE, LEVEL, NEW_QLT$, INDEX_ST$);

      7 19 000000   000000 700200 xent  Z8DR$NEW_IN* TSX0  ! X66_AUTO_5
        19 000001   000032 000005                    ZERO    26,5

     4634        8        /*==============*/
     4635        9
     4636       10        %EQU PHASE = 1;
     4637       11        %EQU #TYA_LENGTH = 4;
     4638       12        %EQU #TYA_TEXT   = '#TYA';
     4639       13        %EQU #COMP1_TEXT = '#COMP1';
     4640       14        %EQU #COMP2_TEXT = '#COMP2';
     4641       15        %EQU #COMP1_LENGTH = 6;
     4642       16        %EQU #COMP2_LENGTH = 6;
     4643       17        %EQU #COMP6_TEXT1 = '#COMP6-1';
     4644       18        %EQU #COMP6_LENGTH = 8;
     4645       19        %EQU #COMP6_TEXT2 = '#COMP6-2';
     4646       20
     4647       21
     4648       22        %INCLUDE Z8A_DEFC;
     4649       90        %INCLUDE Z8A_SUPP_MAC;
     4650     2490        %INCLUDE Z8A_COMCOM;
     4651     3140        %INCLUDE Z8A_ERR_NUMS;
     4652     3904        %INCLUDE Z8A_ST;
     4653     7563        %INCLUDE Z8A_QLT;
     4654     7669        %INCLUDE Z8A_LTS;
     4655     9746        %INCLUDE Z8A_DNT;
     4656     9967        %INCLUDE Z8A_TYPES;
     4657    10141        %INCLUDE Z8A_XREF;
     4658    10213        %INCLUDE Z8E_STACKS;
PL6.E3A0      #002=Z8DR$NEW_INDEX File=Z8DR.:Z8A6TSI                             SAT 08/09/97 11:29 Page:781
     4659    12479        %INCLUDE Z8E_O1COM;
     4660    13240        %INCLUDE Z8E_WINDOW;
     4661    15310
     4662    15311    1   DCL Z8AE$ERROR                ENTRY(12);
     4663    15312
     4664    15313        /* Parameters */
     4665    15314    1   DCL INDEX$                    PTR;      /* Input dnt */
     4666    15315    1   DCL TYPE                      SBIN WORD;/* Input type (tyx or tyy) */
     4667    15316    1   DCL LEVEL                     SBIN WORD;/* Input level#            */
     4668    15317    1   DCL NEW_QLT$                  PTR;      /* Output qlt -- new index */
     4669    15318    1   DCL INDEX_ST$                 PTR;      /* Output st -- new index */
     4670    15319
     4671    15320    1   DCL TYA_ST$                   PTR;
     4672    15321    1   DCL WORD1_ST$                 PTR;
     4673    15322    1   DCL WORD2_ST$                 PTR;
     4674    15323    1   DCL TYA_QLT$                  PTR;
     4675    15324    1   DCL WORD1_QLT$                PTR;
     4676    15325    1   DCL WORD2_QLT$                PTR;
     4677    15326    1   DCL TYA_DNT$                  PTR;
     4678    15327    1   DCL WORD1_DNT$                PTR;
     4679    15328    1   DCL WORD2_DNT$                PTR;
     4680    15329    1   DCL INDEX_DNT$                PTR;
     4681    15330
     4682    15331    1   DCL LENGTH                    SBIN WORD;
     4683    15332    1   DCL WORD1_TYPE                SBIN WORD;
     4684    15333    1   DCL WORD2_TYPE                SBIN WORD;
     4685    15334    1   DCL WORD1_LENGTH              SBIN WORD;
     4686    15335    1   DCL WORD2_LENGTH              SBIN WORD;
     4687    15336
     4688    15337    1   DCL 1 DESC                    ALIGNED,
     4689    15338             %DESCRIPTOR              (LVL = 2, ENDING = YES);
     4690    15366
     4691    15367
     4692    15368        %EJECT;
PL6.E3A0      #002=Z8DR$NEW_INDEX File=Z8DR.:Z8A6TSI                             SAT 08/09/97 11:29 Page:782
     4693    15369        /* Preliminary type checking and info gathering */
     4694    15370
     4695    15371    1      INDEX_DNT$ = INDEX$ -> LX_TERMINAL.DNT$;

  15371 19 000002   200003 470500                    LDP0    @INDEX$,,AUTO
        19 000003   000000 471500                    LDP1    0,,PR0
        19 000004   100002 236100                    LDQ     2,,PR1
        19 000005   200021 756100                    STQ     INDEX_DNT$,,AUTO

     4696    15372
     4697    15373           %NEW_DNT (@POINTER = TYA_DNT$,
     4698    15374                     @SIZE    = "INDEX_DNT$ -> DNT.TEXT.LENGTH + %#TYA_LENGTH");

  15377 19 000006   200021 473500                    LDP3    INDEX_DNT$,,AUTO
        19 000007   300004 236100                    LDQ     4,,PR3
        19 000010   000022 772000                    QRL     18
        19 000011   000031 036007                    ADLQ    25,DL
        19 000012   000002 772000                    QRL     2
        19 000013   000000 756000 0                  STQ     ITERATION

  15378 19 000014   000002 036000 9                  ADLQ    DNT_+2
        19 000015   000030 604000 19                 TMI     s:15380
        19 000016   000003 116000 9                  CMPQ    DNT_+3
        19 000017   000030 602000 19                 TNC     s:15380

  15379 19 000020   000001 236000 20                 LDQ     1
        19 000021   200030 756100                    STQ     DESC+1,,AUTO
        19 000022   200030 631500                    EPPR1   DESC+1,,AUTO
        19 000023   200031 451500                    STP1    DESC+2,,AUTO
        19 000024   200031 630500                    EPPR0   DESC+2,,AUTO
        19 000025   000000 631400 20                 EPPR1   0
        19 000026   000000 701000 xent               TSX1    Z8AR$RESERVER
        19 000027   000000 011000                    NOP     0

  15380 19 000030   000002 236000 9                  LDQ     DNT_+2
        19 000031   000022 736000                    QLS     18
        19 000032   000001 036000 9                  ADLQ    DNT_+1
PL6.E3A0      #002=Z8DR$NEW_INDEX File=Z8DR.:Z8A6TSI                             SAT 08/09/97 11:29 Page:783
        19 000033   200016 756100                    STQ     TYA_DNT$,,AUTO

  15381 19 000034   000002 236000 9                  LDQ     DNT_+2
        19 000035   000000 036000 0                  ADLQ    ITERATION
        19 000036   000002 756000 9                  STQ     DNT_+2

  15382 19 000037   001046 220003                    LDX0    550,DU
        19 000040   200016 470500                    LDP0    TYA_DNT$,,AUTO
        19 000041   000000 740100                    STX0    0,,PR0

  15383 19 000042   000000 721000 0                  LXL1    ITERATION
        19 000043   000000 441100                    SXL1    0,,PR0

  15384 19 000044   200021 471500                    LDP1    INDEX_DNT$,,AUTO
        19 000045   100004 222100                    LDX2    4,,PR1
        19 000046   000004 623012                    EAX3    4,X2
        19 000047   000004 743100                    STX3    4,,PR0

  15387 19 000050   000002 236000 20                 LDQ     2
        19 000051   000001 756100                    STQ     1,,PR0

  15388 19 000052   000002 236000 20                 LDQ     2
        19 000053   000002 756100                    STQ     2,,PR0

  15389 19 000054   000000 222003                    LDX2    0,DU
        19 000055   000003 742100                    STX2    3,,PR0

  15390 19 000056   000000 224003                    LDX4    0,DU
        19 000057   000003 444100                    SXL4    3,,PR0

  15391 19 000060   040140 100400                    MLR     fill='040'O
        19 000061   000003 000001 20                 ADSC9   3                        cn=0,n=1
        19 000062   000004 400013                    ADSC9   4,,PR0                   cn=2,n=*X3

     4699    15432
     4700    15433    1      CALL CONCAT (TYA_DNT$ -> DNT.TEXT.NAME,

PL6.E3A0      #002=Z8DR$NEW_INDEX File=Z8DR.:Z8A6TSI                             SAT 08/09/97 11:29 Page:784
  15433 19 000063   100004 225100                    LDX5    4,,PR1
        19 000064   040140 100540                    MLR     fill='040'O
        19 000065   100004 400015                    ADSC9   4,,PR1                   cn=2,n=*X5
        19 000066   000004 400013                    ADSC9   4,,PR0                   cn=2,n=*X3
        19 000067   000000 635015                    EAA     0,X5
        19 000070   000022 771000                    ARL     18
        19 000071   200030 755100                    STA     DESC+1,,AUTO
        19 000072   000000 636013                    EAQ     0,X3
        19 000073   000022 772000                    QRL     18
        19 000074   200030 136100                    SBLQ    DESC+1,,AUTO
        19 000075   000104 604400 19                 TMOZ    s:15437
        19 000076   000000 621006                    EAX1    0,QL
        19 000077   000000 636015                    EAQ     0,X5
        19 000100   000022 772000                    QRL     18
        19 000101   040146 100400                    MLR     fill='040'O
        19 000102   000000 000004 18                 ADSC9   0                        cn=0,n=4
        19 000103   000004 400011                    ADSC9   4,Q,PR0                  cn=2,n=*X1

     4701    15434    1                   INDEX_DNT$ -> DNT.TEXT.NAME,
     4702    15435    1                   %#TYA_TEXT);
     4703    15436
     4704    15437    2      DO CASE (TYPE);

  15437 19 000104   200004 473500                    LDP3    @TYPE,,AUTO
        19 000105   300000 235100                    LDA     0,,PR3
        19 000106   000011 135007                    SBLA    9,DL
        19 000107   000002 115007                    CMPA    2,DL
        19 000110   000112 602005 19                 TNC     s:15437+6,AL
        19 000111   000524 710000 19                 TRA     s:15720
        19 000112   000114 710000 19                 TRA     s:15439
        19 000113   000321 710000 19                 TRA     s:15575

     4705    15438    2        CASE(%TYX);

     4706    15439    2          LENGTH       = %TYX_LENGTH;

  15439 19 000114   000010 236007                    LDQ     8,DL
PL6.E3A0      #002=Z8DR$NEW_INDEX File=Z8DR.:Z8A6TSI                             SAT 08/09/97 11:29 Page:785
        19 000115   200022 756100                    STQ     LENGTH,,AUTO

     4707    15440    2          WORD1_TYPE   = %TYI;

  15440 19 000116   000001 235007                    LDA     1,DL
        19 000117   200023 755100                    STA     WORD1_TYPE,,AUTO

     4708    15441    2          WORD1_LENGTH = %TYI_LENGTH;

  15441 19 000120   000004 235007                    LDA     4,DL
        19 000121   200025 755100                    STA     WORD1_LENGTH,,AUTO

     4709    15442    2          WORD2_TYPE   = %TYI;

  15442 19 000122   000001 235007                    LDA     1,DL
        19 000123   200024 755100                    STA     WORD2_TYPE,,AUTO

     4710    15443    2          WORD2_LENGTH = %TYI_LENGTH;

  15443 19 000124   000004 235007                    LDA     4,DL
        19 000125   200026 755100                    STA     WORD2_LENGTH,,AUTO

     4711    15444
     4712    15445               %NEW_DNT (@POINTER = WORD1_DNT$,
     4713    15446                         @SIZE    = "INDEX_DNT$ -> DNT.TEXT.LENGTH + %#COMP6_LENGTH");

  15449 19 000126   100004 236100                    LDQ     4,,PR1
        19 000127   000022 772000                    QRL     18
        19 000130   000035 036007                    ADLQ    29,DL
        19 000131   000002 772000                    QRL     2
        19 000132   000000 756000 0                  STQ     ITERATION

  15450 19 000133   000002 036000 9                  ADLQ    DNT_+2
        19 000134   000147 604000 19                 TMI     s:15452
        19 000135   000003 116000 9                  CMPQ    DNT_+3
        19 000136   000147 602000 19                 TNC     s:15452

PL6.E3A0      #002=Z8DR$NEW_INDEX File=Z8DR.:Z8A6TSI                             SAT 08/09/97 11:29 Page:786
  15451 19 000137   000001 236000 20                 LDQ     1
        19 000140   200030 756100                    STQ     DESC+1,,AUTO
        19 000141   200030 634500                    EPPR4   DESC+1,,AUTO
        19 000142   200031 454500                    STP4    DESC+2,,AUTO
        19 000143   200031 630500                    EPPR0   DESC+2,,AUTO
        19 000144   000000 631400 20                 EPPR1   0
        19 000145   000000 701000 xent               TSX1    Z8AR$RESERVER
        19 000146   000000 011000                    NOP     0

  15452 19 000147   000002 236000 9                  LDQ     DNT_+2
        19 000150   000022 736000                    QLS     18
        19 000151   000001 036000 9                  ADLQ    DNT_+1
        19 000152   200017 756100                    STQ     WORD1_DNT$,,AUTO

  15453 19 000153   000002 236000 9                  LDQ     DNT_+2
        19 000154   000000 036000 0                  ADLQ    ITERATION
        19 000155   000002 756000 9                  STQ     DNT_+2

  15454 19 000156   001046 220003                    LDX0    550,DU
        19 000157   200017 470500                    LDP0    WORD1_DNT$,,AUTO
        19 000160   000000 740100                    STX0    0,,PR0

  15455 19 000161   000000 721000 0                  LXL1    ITERATION
        19 000162   000000 441100                    SXL1    0,,PR0

  15456 19 000163   200021 471500                    LDP1    INDEX_DNT$,,AUTO
        19 000164   100004 222100                    LDX2    4,,PR1
        19 000165   000010 623012                    EAX3    8,X2
        19 000166   000004 743100                    STX3    4,,PR0

  15459 19 000167   000002 236000 20                 LDQ     2
        19 000170   000001 756100                    STQ     1,,PR0

  15460 19 000171   000002 236000 20                 LDQ     2
        19 000172   000002 756100                    STQ     2,,PR0

  15461 19 000173   000000 222003                    LDX2    0,DU
PL6.E3A0      #002=Z8DR$NEW_INDEX File=Z8DR.:Z8A6TSI                             SAT 08/09/97 11:29 Page:787
        19 000174   000003 742100                    STX2    3,,PR0

  15462 19 000175   000000 224003                    LDX4    0,DU
        19 000176   000003 444100                    SXL4    3,,PR0

  15463 19 000177   040140 100400                    MLR     fill='040'O
        19 000200   000003 000001 20                 ADSC9   3                        cn=0,n=1
        19 000201   000004 400013                    ADSC9   4,,PR0                   cn=2,n=*X3

     4714    15504
     4715    15505    2          CALL CONCAT (WORD1_DNT$ -> DNT.TEXT.NAME,

  15505 19 000202   100004 225100                    LDX5    4,,PR1
        19 000203   040140 100540                    MLR     fill='040'O
        19 000204   100004 400015                    ADSC9   4,,PR1                   cn=2,n=*X5
        19 000205   000004 400013                    ADSC9   4,,PR0                   cn=2,n=*X3
        19 000206   000000 635015                    EAA     0,X5
        19 000207   000022 771000                    ARL     18
        19 000210   200030 755100                    STA     DESC+1,,AUTO
        19 000211   000000 636013                    EAQ     0,X3
        19 000212   000022 772000                    QRL     18
        19 000213   200030 136100                    SBLQ    DESC+1,,AUTO
        19 000214   000223 604400 19                 TMOZ    s:15513
        19 000215   000000 621006                    EAX1    0,QL
        19 000216   000000 636015                    EAQ     0,X5
        19 000217   000022 772000                    QRL     18
        19 000220   040146 100400                    MLR     fill='040'O
        19 000221   000001 000010 18                 ADSC9   1                        cn=0,n=8
        19 000222   000004 400011                    ADSC9   4,Q,PR0                  cn=2,n=*X1

     4716    15506    2                       INDEX_DNT$ -> DNT.TEXT.NAME,
     4717    15507    2                       %#COMP6_TEXT1);
     4718    15508
     4719    15509               %NEW_DNT (@POINTER = WORD2_DNT$,
     4720    15510                         @SIZE    = "INDEX_DNT$ -> DNT.TEXT.LENGTH + %#COMP6_LENGTH");

  15513 19 000223   100004 236100                    LDQ     4,,PR1
PL6.E3A0      #002=Z8DR$NEW_INDEX File=Z8DR.:Z8A6TSI                             SAT 08/09/97 11:29 Page:788
        19 000224   000022 772000                    QRL     18
        19 000225   000035 036007                    ADLQ    29,DL
        19 000226   000002 772000                    QRL     2
        19 000227   000000 756000 0                  STQ     ITERATION

  15514 19 000230   000002 036000 9                  ADLQ    DNT_+2
        19 000231   000244 604000 19                 TMI     s:15516
        19 000232   000003 116000 9                  CMPQ    DNT_+3
        19 000233   000244 602000 19                 TNC     s:15516

  15515 19 000234   000001 236000 20                 LDQ     1
        19 000235   200030 756100                    STQ     DESC+1,,AUTO
        19 000236   200030 633500                    EPPR3   DESC+1,,AUTO
        19 000237   200031 453500                    STP3    DESC+2,,AUTO
        19 000240   200031 630500                    EPPR0   DESC+2,,AUTO
        19 000241   000000 631400 20                 EPPR1   0
        19 000242   000000 701000 xent               TSX1    Z8AR$RESERVER
        19 000243   000000 011000                    NOP     0

  15516 19 000244   000002 236000 9                  LDQ     DNT_+2
        19 000245   000022 736000                    QLS     18
        19 000246   000001 036000 9                  ADLQ    DNT_+1
        19 000247   200020 756100                    STQ     WORD2_DNT$,,AUTO

  15517 19 000250   000002 236000 9                  LDQ     DNT_+2
        19 000251   000000 036000 0                  ADLQ    ITERATION
        19 000252   000002 756000 9                  STQ     DNT_+2

  15518 19 000253   001046 220003                    LDX0    550,DU
        19 000254   200020 470500                    LDP0    WORD2_DNT$,,AUTO
        19 000255   000000 740100                    STX0    0,,PR0

  15519 19 000256   000000 721000 0                  LXL1    ITERATION
        19 000257   000000 441100                    SXL1    0,,PR0

  15520 19 000260   200021 471500                    LDP1    INDEX_DNT$,,AUTO
        19 000261   100004 222100                    LDX2    4,,PR1
PL6.E3A0      #002=Z8DR$NEW_INDEX File=Z8DR.:Z8A6TSI                             SAT 08/09/97 11:29 Page:789
        19 000262   000010 623012                    EAX3    8,X2
        19 000263   000004 743100                    STX3    4,,PR0

  15523 19 000264   000002 236000 20                 LDQ     2
        19 000265   000001 756100                    STQ     1,,PR0

  15524 19 000266   000002 236000 20                 LDQ     2
        19 000267   000002 756100                    STQ     2,,PR0

  15525 19 000270   000000 222003                    LDX2    0,DU
        19 000271   000003 742100                    STX2    3,,PR0

  15526 19 000272   000000 224003                    LDX4    0,DU
        19 000273   000003 444100                    SXL4    3,,PR0

  15527 19 000274   040140 100400                    MLR     fill='040'O
        19 000275   000003 000001 20                 ADSC9   3                        cn=0,n=1
        19 000276   000004 400013                    ADSC9   4,,PR0                   cn=2,n=*X3

     4721    15568
     4722    15569    2          CALL CONCAT (WORD2_DNT$ -> DNT.TEXT.NAME,

  15569 19 000277   100004 225100                    LDX5    4,,PR1
        19 000300   040140 100540                    MLR     fill='040'O
        19 000301   100004 400015                    ADSC9   4,,PR1                   cn=2,n=*X5
        19 000302   000004 400013                    ADSC9   4,,PR0                   cn=2,n=*X3
        19 000303   000000 635015                    EAA     0,X5
        19 000304   000022 771000                    ARL     18
        19 000305   200030 755100                    STA     DESC+1,,AUTO
        19 000306   000000 636013                    EAQ     0,X3
        19 000307   000022 772000                    QRL     18
        19 000310   200030 136100                    SBLQ    DESC+1,,AUTO
        19 000311   000320 604400 19                 TMOZ    s:15569+17
        19 000312   000000 621006                    EAX1    0,QL
        19 000313   000000 636015                    EAQ     0,X5
        19 000314   000022 772000                    QRL     18
        19 000315   040146 100400                    MLR     fill='040'O
PL6.E3A0      #002=Z8DR$NEW_INDEX File=Z8DR.:Z8A6TSI                             SAT 08/09/97 11:29 Page:790
        19 000316   000003 000010 18                 ADSC9   3                        cn=0,n=8
        19 000317   000004 400011                    ADSC9   4,Q,PR0                  cn=2,n=*X1
        19 000320   000524 710000 19                 TRA     s:15720

     4723    15570    2                       INDEX_DNT$ -> DNT.TEXT.NAME,
     4724    15571    2                       %#COMP6_TEXT2);
     4725    15572
     4726    15573
     4727    15574    2        CASE(%TYY);

     4728    15575    2          LENGTH       = %TYY_LENGTH;

  15575 19 000321   000006 236007                    LDQ     6,DL
        19 000322   200022 756100                    STQ     LENGTH,,AUTO

     4729    15576    2          WORD1_TYPE   = %TYK;

  15576 19 000323   000017 235007                    LDA     15,DL
        19 000324   200023 755100                    STA     WORD1_TYPE,,AUTO

     4730    15577    2          WORD1_LENGTH = %TYK_LENGTH;

  15577 19 000325   000004 235007                    LDA     4,DL
        19 000326   200025 755100                    STA     WORD1_LENGTH,,AUTO

     4731    15578    2          WORD2_TYPE   = %TYJ;

  15578 19 000327   000002 235007                    LDA     2,DL
        19 000330   200024 755100                    STA     WORD2_TYPE,,AUTO

     4732    15579    2          WORD2_LENGTH = %TYJ_LENGTH;

  15579 19 000331   200026 755100                    STA     WORD2_LENGTH,,AUTO

     4733    15580
     4734    15581               %NEW_DNT (@POINTER = WORD1_DNT$,
     4735    15582                         @SIZE    = "INDEX_DNT$ -> DNT.TEXT.LENGTH + %#COMP2_LENGTH");
PL6.E3A0      #002=Z8DR$NEW_INDEX File=Z8DR.:Z8A6TSI                             SAT 08/09/97 11:29 Page:791

  15585 19 000332   100004 236100                    LDQ     4,,PR1
        19 000333   000022 772000                    QRL     18
        19 000334   000033 036007                    ADLQ    27,DL
        19 000335   000002 772000                    QRL     2
        19 000336   000000 756000 0                  STQ     ITERATION

  15586 19 000337   000002 036000 9                  ADLQ    DNT_+2
        19 000340   000353 604000 19                 TMI     s:15588
        19 000341   000003 116000 9                  CMPQ    DNT_+3
        19 000342   000353 602000 19                 TNC     s:15588

  15587 19 000343   000001 236000 20                 LDQ     1
        19 000344   200030 756100                    STQ     DESC+1,,AUTO
        19 000345   200030 634500                    EPPR4   DESC+1,,AUTO
        19 000346   200031 454500                    STP4    DESC+2,,AUTO
        19 000347   200031 630500                    EPPR0   DESC+2,,AUTO
        19 000350   000000 631400 20                 EPPR1   0
        19 000351   000000 701000 xent               TSX1    Z8AR$RESERVER
        19 000352   000000 011000                    NOP     0

  15588 19 000353   000002 236000 9                  LDQ     DNT_+2
        19 000354   000022 736000                    QLS     18
        19 000355   000001 036000 9                  ADLQ    DNT_+1
        19 000356   200017 756100                    STQ     WORD1_DNT$,,AUTO

  15589 19 000357   000002 236000 9                  LDQ     DNT_+2
        19 000360   000000 036000 0                  ADLQ    ITERATION
        19 000361   000002 756000 9                  STQ     DNT_+2

  15590 19 000362   001046 220003                    LDX0    550,DU
        19 000363   200017 470500                    LDP0    WORD1_DNT$,,AUTO
        19 000364   000000 740100                    STX0    0,,PR0

  15591 19 000365   000000 721000 0                  LXL1    ITERATION
        19 000366   000000 441100                    SXL1    0,,PR0

PL6.E3A0      #002=Z8DR$NEW_INDEX File=Z8DR.:Z8A6TSI                             SAT 08/09/97 11:29 Page:792
  15592 19 000367   200021 471500                    LDP1    INDEX_DNT$,,AUTO
        19 000370   100004 222100                    LDX2    4,,PR1
        19 000371   000006 623012                    EAX3    6,X2
        19 000372   000004 743100                    STX3    4,,PR0

  15595 19 000373   000002 236000 20                 LDQ     2
        19 000374   000001 756100                    STQ     1,,PR0

  15596 19 000375   000002 236000 20                 LDQ     2
        19 000376   000002 756100                    STQ     2,,PR0

  15597 19 000377   000000 222003                    LDX2    0,DU
        19 000400   000003 742100                    STX2    3,,PR0

  15598 19 000401   000000 224003                    LDX4    0,DU
        19 000402   000003 444100                    SXL4    3,,PR0

  15599 19 000403   040140 100400                    MLR     fill='040'O
        19 000404   000003 000001 20                 ADSC9   3                        cn=0,n=1
        19 000405   000004 400013                    ADSC9   4,,PR0                   cn=2,n=*X3

     4736    15640
     4737    15641    2          CALL CONCAT (WORD1_DNT$ -> DNT.TEXT.NAME,

  15641 19 000406   100004 225100                    LDX5    4,,PR1
        19 000407   040140 100540                    MLR     fill='040'O
        19 000410   100004 400015                    ADSC9   4,,PR1                   cn=2,n=*X5
        19 000411   000004 400013                    ADSC9   4,,PR0                   cn=2,n=*X3
        19 000412   000000 635015                    EAA     0,X5
        19 000413   000022 771000                    ARL     18
        19 000414   200030 755100                    STA     DESC+1,,AUTO
        19 000415   000000 636013                    EAQ     0,X3
        19 000416   000022 772000                    QRL     18
        19 000417   200030 136100                    SBLQ    DESC+1,,AUTO
        19 000420   000427 604400 19                 TMOZ    s:15649
        19 000421   000000 621006                    EAX1    0,QL
        19 000422   000000 636015                    EAQ     0,X5
PL6.E3A0      #002=Z8DR$NEW_INDEX File=Z8DR.:Z8A6TSI                             SAT 08/09/97 11:29 Page:793
        19 000423   000022 772000                    QRL     18
        19 000424   040146 100400                    MLR     fill='040'O
        19 000425   000005 000006 18                 ADSC9   5                        cn=0,n=6
        19 000426   000004 400011                    ADSC9   4,Q,PR0                  cn=2,n=*X1

     4738    15642    2                       INDEX_DNT$ -> DNT.TEXT.NAME,
     4739    15643    2                       %#COMP2_TEXT);
     4740    15644
     4741    15645               %NEW_DNT (@POINTER = WORD2_DNT$,
     4742    15646                         @SIZE    = "INDEX_DNT$ -> DNT.TEXT.LENGTH + %#COMP1_LENGTH");

  15649 19 000427   100004 236100                    LDQ     4,,PR1
        19 000430   000022 772000                    QRL     18
        19 000431   000033 036007                    ADLQ    27,DL
        19 000432   000002 772000                    QRL     2
        19 000433   000000 756000 0                  STQ     ITERATION

  15650 19 000434   000002 036000 9                  ADLQ    DNT_+2
        19 000435   000450 604000 19                 TMI     s:15652
        19 000436   000003 116000 9                  CMPQ    DNT_+3
        19 000437   000450 602000 19                 TNC     s:15652

  15651 19 000440   000001 236000 20                 LDQ     1
        19 000441   200030 756100                    STQ     DESC+1,,AUTO
        19 000442   200030 633500                    EPPR3   DESC+1,,AUTO
        19 000443   200031 453500                    STP3    DESC+2,,AUTO
        19 000444   200031 630500                    EPPR0   DESC+2,,AUTO
        19 000445   000000 631400 20                 EPPR1   0
        19 000446   000000 701000 xent               TSX1    Z8AR$RESERVER
        19 000447   000000 011000                    NOP     0

  15652 19 000450   000002 236000 9                  LDQ     DNT_+2
        19 000451   000022 736000                    QLS     18
        19 000452   000001 036000 9                  ADLQ    DNT_+1
        19 000453   200020 756100                    STQ     WORD2_DNT$,,AUTO

  15653 19 000454   000002 236000 9                  LDQ     DNT_+2
PL6.E3A0      #002=Z8DR$NEW_INDEX File=Z8DR.:Z8A6TSI                             SAT 08/09/97 11:29 Page:794
        19 000455   000000 036000 0                  ADLQ    ITERATION
        19 000456   000002 756000 9                  STQ     DNT_+2

  15654 19 000457   001046 220003                    LDX0    550,DU
        19 000460   200020 470500                    LDP0    WORD2_DNT$,,AUTO
        19 000461   000000 740100                    STX0    0,,PR0

  15655 19 000462   000000 721000 0                  LXL1    ITERATION
        19 000463   000000 441100                    SXL1    0,,PR0

  15656 19 000464   200021 471500                    LDP1    INDEX_DNT$,,AUTO
        19 000465   100004 222100                    LDX2    4,,PR1
        19 000466   000006 623012                    EAX3    6,X2
        19 000467   000004 743100                    STX3    4,,PR0

  15659 19 000470   000002 236000 20                 LDQ     2
        19 000471   000001 756100                    STQ     1,,PR0

  15660 19 000472   000002 236000 20                 LDQ     2
        19 000473   000002 756100                    STQ     2,,PR0

  15661 19 000474   000000 222003                    LDX2    0,DU
        19 000475   000003 742100                    STX2    3,,PR0

  15662 19 000476   000000 224003                    LDX4    0,DU
        19 000477   000003 444100                    SXL4    3,,PR0

  15663 19 000500   040140 100400                    MLR     fill='040'O
        19 000501   000003 000001 20                 ADSC9   3                        cn=0,n=1
        19 000502   000004 400013                    ADSC9   4,,PR0                   cn=2,n=*X3

     4743    15704
     4744    15705    2          CALL CONCAT (WORD2_DNT$ -> DNT.TEXT.NAME,

  15705 19 000503   100004 225100                    LDX5    4,,PR1
        19 000504   040140 100540                    MLR     fill='040'O
        19 000505   100004 400015                    ADSC9   4,,PR1                   cn=2,n=*X5
PL6.E3A0      #002=Z8DR$NEW_INDEX File=Z8DR.:Z8A6TSI                             SAT 08/09/97 11:29 Page:795
        19 000506   000004 400013                    ADSC9   4,,PR0                   cn=2,n=*X3
        19 000507   000000 635015                    EAA     0,X5
        19 000510   000022 771000                    ARL     18
        19 000511   200030 755100                    STA     DESC+1,,AUTO
        19 000512   000000 636013                    EAQ     0,X3
        19 000513   000022 772000                    QRL     18
        19 000514   200030 136100                    SBLQ    DESC+1,,AUTO
        19 000515   000524 604400 19                 TMOZ    s:15720
        19 000516   000000 621006                    EAX1    0,QL
        19 000517   000000 636015                    EAQ     0,X5
        19 000520   000022 772000                    QRL     18
        19 000521   040146 100400                    MLR     fill='040'O
        19 000522   000007 000006 18                 ADSC9   7                        cn=0,n=6
        19 000523   000004 400011                    ADSC9   4,Q,PR0                  cn=2,n=*X1

     4745    15706    2                       INDEX_DNT$ -> DNT.TEXT.NAME,
     4746    15707    2                       %#COMP1_TEXT);
     4747    15708
     4748    15709
     4749    15710    2      END;

     4750    15711
     4751    15712        %EJECT;
PL6.E3A0      #002=Z8DR$NEW_INDEX File=Z8DR.:Z8A6TSI                             SAT 08/09/97 11:29 Page:796
     4752    15713        /* Create the index item */
     4753    15714
     4754    15715           %BUILD_BINARY_DESC (@DESC   = DESC,
     4755    15716                               @LENGTH = LENGTH);

  15720 19 000524   200027 450100                    STZ     DESC,,AUTO

  15721 19 000525   200022 236100                    LDQ     LENGTH,,AUTO
        19 000526   200027 752101                    STCQ    DESC,'01'O,AUTO

     4756    15724
     4757    15725           %NEW_SCALAR        (@ST$   = INDEX_ST$,
     4758    15726                               @DESCL = DESC.DESCL,
     4759    15727                               @TYPE  = TYPE,
     4760    15728                               @LINE_NO = INDEX$ -> LX_TERMINAL.LINE,
     4761    15729                               @CLASS = %CLASS_UNDEFINED,
     4762    15730                               @NEXT  = INDEX_DNT$ -> DNT.ST$,
     4763    15731                               @DNT$  = INDEX_DNT$);

  15735 19 000527   000002 236000 2                  LDQ     ST_+2
        19 000530   000013 036007                    ADLQ    11,DL
        19 000531   000003 116000 2                  CMPQ    ST_+3
        19 000532   000543 604000 19                 TMI     s:15737

  15736 19 000533   000004 236000 20                 LDQ     4
        19 000534   200030 756100                    STQ     DESC+1,,AUTO
        19 000535   200030 630500                    EPPR0   DESC+1,,AUTO
        19 000536   200031 450500                    STP0    DESC+2,,AUTO
        19 000537   200031 630500                    EPPR0   DESC+2,,AUTO
        19 000540   000000 631400 20                 EPPR1   0
        19 000541   000000 701000 xent               TSX1    Z8AR$RESERVER
        19 000542   000000 011000                    NOP     0

  15737 19 000543   000002 236000 2                  LDQ     ST_+2
        19 000544   000022 736000                    QLS     18
        19 000545   000001 036000 2                  ADLQ    ST_+1
        19 000546   200007 470500                    LDP0    @INDEX_ST$,,AUTO
PL6.E3A0      #002=Z8DR$NEW_INDEX File=Z8DR.:Z8A6TSI                             SAT 08/09/97 11:29 Page:797
        19 000547   000000 756100                    STQ     0,,PR0

  15738 19 000550   000013 236007                    LDQ     11,DL
        19 000551   000002 056000 2                  ASQ     ST_+2

  15786 19 000552   000000 471500                    LDP1    0,,PR0
        19 000553   000766 220003                    LDX0    502,DU
        19 000554   100000 740100                    STX0    0,,PR1

  15787 19 000555   000000 471500                    LDP1    0,,PR0
        19 000556   003000 236007                    LDQ     1536,DL
        19 000557   100000 552110                    STBQ    0,'10'O,PR1

  15788 19 000560   000000 471500                    LDP1    0,,PR0
        19 000561   000001 236007                    LDQ     1,DL
        19 000562   100000 552104                    STBQ    0,'04'O,PR1

  15789 19 000563   000000 471500                    LDP1    0,,PR0
        19 000564   000000 221003                    LDX1    0,DU
        19 000565   100001 741100                    STX1    1,,PR1

  15790 19 000566   000000 471500                    LDP1    0,,PR0
        19 000567   200027 722100                    LXL2    DESC,,AUTO
        19 000570   100001 442100                    SXL2    1,,PR1

  15791 19 000571   000000 471500                    LDP1    0,,PR0
        19 000572   200003 473500                    LDP3    @INDEX$,,AUTO
        19 000573   300000 474500                    LDP4    0,,PR3
        19 000574   400005 723100                    LXL3    5,,PR4
        19 000575   100002 443100                    SXL3    2,,PR1

  15792 19 000576   000000 471500                    LDP1    0,,PR0
        19 000577   100003 450100                    STZ     3,,PR1

  15793 19 000600   000000 471500                    LDP1    0,,PR0
        19 000601   200021 474500                    LDP4    INDEX_DNT$,,AUTO
        19 000602   400001 236100                    LDQ     1,,PR4
PL6.E3A0      #002=Z8DR$NEW_INDEX File=Z8DR.:Z8A6TSI                             SAT 08/09/97 11:29 Page:798
        19 000603   100004 756100                    STQ     4,,PR1

  15794 19 000604   000000 471500                    LDP1    0,,PR0
        19 000605   000002 236000 20                 LDQ     2
        19 000606   100005 756100                    STQ     5,,PR1

  15795 19 000607   000000 471500                    LDP1    0,,PR0
        19 000610   100007 756100                    STQ     7,,PR1

  15796 19 000611   000000 471500                    LDP1    0,,PR0
        19 000612   100010 741100                    STX1    8,,PR1

  15797 19 000613   000000 471500                    LDP1    0,,PR0
        19 000614   777777 223003                    LDX3    -1,DU
        19 000615   100010 443100                    SXL3    8,,PR1

  15801 19 000616   000000 471500                    LDP1    0,,PR0
        19 000617   100012 756100                    STQ     10,,PR1

  15804 19 000620   000000 471500                    LDP1    0,,PR0
        19 000621   000057 236000 xsym               LDQ     O1COM+47
        19 000622   100011 756100                    STQ     9,,PR1

  15805 19 000623   000057 236000 xsym               LDQ     O1COM+47
        19 000624   000002 116000 20                 CMPQ    2
        19 000625   000651 600000 19                 TZE     s:15840

  15809 19 000626   000057 471400 xsym               LDP1    O1COM+47
        19 000627   100001 475500                    LDP5    1,,PR1
        19 000630   500012 236100                    LDQ     10,,PR5
        19 000631   000002 116000 20                 CMPQ    2
        19 000632   000642 601000 19                 TNZ     s:15816

  15811 19 000633   000000 236100                    LDQ     0,,PR0
        19 000634   500011 756100                    STQ     9,,PR5

  15812 19 000635   000057 471400 xsym               LDP1    O1COM+47
PL6.E3A0      #002=Z8DR$NEW_INDEX File=Z8DR.:Z8A6TSI                             SAT 08/09/97 11:29 Page:799
        19 000636   100001 475500                    LDP5    1,,PR1
        19 000637   000000 236100                    LDQ     0,,PR0
        19 000640   500012 756100                    STQ     10,,PR5

  15813 19 000641   000651 710000 19                 TRA     s:15840

  15816 19 000642   500012 476500                    LDP6    10,,PR5
        19 000643   000000 236100                    LDQ     0,,PR0
        19 000644   600012 756100                    STQ     10,,PR6

  15817 19 000645   000057 471400 xsym               LDP1    O1COM+47
        19 000646   100001 475500                    LDP5    1,,PR1
        19 000647   000000 236100                    LDQ     0,,PR0
        19 000650   500012 756100                    STQ     10,,PR5

  15840 19 000651   000000 471500                    LDP1    0,,PR0
        19 000652   200004 475500                    LDP5    @TYPE,,AUTO
        19 000653   500000 724100                    LXL4    0,,PR5
        19 000654   100002 744100                    STX4    2,,PR1

  15845 19 000655   000000 471500                    LDP1    0,,PR0
        19 000656   200021 236100                    LDQ     INDEX_DNT$,,AUTO
        19 000657   100006 756100                    STQ     6,,PR1

  15910 19 000660   000000 471500                    LDP1    0,,PR0
        19 000661   000005 236000 20                 LDQ     5
        19 000662   100003 356100                    ANSQ    3,,PR1

     4764    15931
     4765    15932    1      INDEX_ST$ -> SCALAR.B.ELEMENTARY = TRUE;

  15932 19 000663   000000 471500                    LDP1    0,,PR0
        19 000664   010000 236003                    LDQ     4096,DU
        19 000665   100003 256100                    ORSQ    3,,PR1

     4766    15933    1      INDEX_ST$ -> SCALAR.B.REDEF_OBJ  = TRUE;

PL6.E3A0      #002=Z8DR$NEW_INDEX File=Z8DR.:Z8A6TSI                             SAT 08/09/97 11:29 Page:800
  15933 19 000666   000000 471500                    LDP1    0,,PR0
        19 000667   000400 236003                    LDQ     256,DU
        19 000670   100003 256100                    ORSQ    3,,PR1

     4767    15934
     4768    15935    1      IF INDEX$ -> LX_ITEM.SYMBOL ~= %RSV_WRD_FILLER THEN

  15935 19 000671   300000 471500                    LDP1    0,,PR3
        19 000672   100003 235100                    LDA     3,,PR1
        19 000673   000320 115007                    CMPA    208,DL
        19 000674   000677 600000 19                 TZE     s:15946

     4769    15936    1        INDEX_DNT$ -> DNT.ST$      = INDEX_ST$;

  15936 19 000675   000000 236100                    LDQ     0,,PR0
        19 000676   400001 756100                    STQ     1,,PR4

     4770    15937
     4771    15938           %NEW_QLT           (@POINTER = NEW_QLT$,
     4772    15939                               @ST$     = INDEX_ST$,
     4773    15940                               @DNT$    = INDEX_DNT$,
     4774    15941                               @LEVEL#  = LEVEL);

  15946 19 000677   000002 236000 5                  LDQ     QLT_+2
        19 000700   000006 036007                    ADLQ    6,DL
        19 000701   000003 116000 5                  CMPQ    QLT_+3
        19 000702   000713 602000 19                 TNC     s:15948

  15947 19 000703   000006 236000 20                 LDQ     6
        19 000704   200030 756100                    STQ     DESC+1,,AUTO
        19 000705   200030 631500                    EPPR1   DESC+1,,AUTO
        19 000706   200031 451500                    STP1    DESC+2,,AUTO
        19 000707   200031 630500                    EPPR0   DESC+2,,AUTO
        19 000710   000000 631400 20                 EPPR1   0
        19 000711   000000 701000 xent               TSX1    Z8AR$RESERVER
        19 000712   000000 011000                    NOP     0

PL6.E3A0      #002=Z8DR$NEW_INDEX File=Z8DR.:Z8A6TSI                             SAT 08/09/97 11:29 Page:801
  15948 19 000713   000002 236000 5                  LDQ     QLT_+2
        19 000714   000022 736000                    QLS     18
        19 000715   000001 036000 5                  ADLQ    QLT_+1
        19 000716   200006 470500                    LDP0    @NEW_QLT$,,AUTO
        19 000717   000000 756100                    STQ     0,,PR0

  15949 19 000720   000002 235000 5                  LDA     QLT_+2
        19 000721   000006 035007                    ADLA    6,DL
        19 000722   000002 755000 5                  STA     QLT_+2

  15950 19 000723   000000 471500                    LDP1    0,,PR0
        19 000724   001053 220003                    LDX0    555,DU
        19 000725   100000 740100                    STX0    0,,PR1

  15953 19 000726   000000 471500                    LDP1    0,,PR0
        19 000727   000002 236000 20                 LDQ     2
        19 000730   100001 756100                    STQ     1,,PR1

  15954 19 000731   000000 471500                    LDP1    0,,PR0
        19 000732   000002 236000 20                 LDQ     2
        19 000733   100002 756100                    STQ     2,,PR1

  15955 19 000734   000000 471500                    LDP1    0,,PR0
        19 000735   000002 236000 20                 LDQ     2
        19 000736   100003 756100                    STQ     3,,PR1

  15956 19 000737   000000 471500                    LDP1    0,,PR0
        19 000740   200007 473500                    LDP3    @INDEX_ST$,,AUTO
        19 000741   300000 236100                    LDQ     0,,PR3
        19 000742   100004 756100                    STQ     4,,PR1

  15957 19 000743   000000 471500                    LDP1    0,,PR0
        19 000744   200021 236100                    LDQ     INDEX_DNT$,,AUTO
        19 000745   100005 756100                    STQ     5,,PR1

  15958 19 000746   000000 471500                    LDP1    0,,PR0
        19 000747   200005 474500                    LDP4    @LEVEL,,AUTO
PL6.E3A0      #002=Z8DR$NEW_INDEX File=Z8DR.:Z8A6TSI                             SAT 08/09/97 11:29 Page:802
        19 000750   400000 236100                    LDQ     0,,PR4
        19 000751   100000 552104                    STBQ    0,'04'O,PR1

  15959 19 000752   000000 471500                    LDP1    0,,PR0
        19 000753   000000 236003                    LDQ     0,DU
        19 000754   100000 552110                    STBQ    0,'10'O,PR1

  15960 19 000755   000000 471500                    LDP1    0,,PR0
        19 000756   000007 236000 20                 LDQ     7
        19 000757   100000 356100                    ANSQ    0,,PR1

  15961 19 000760   000000 471500                    LDP1    0,,PR0
        19 000761   000010 236000 20                 LDQ     8
        19 000762   100000 356100                    ANSQ    0,,PR1

  15962 19 000763   000000 471500                    LDP1    0,,PR0
        19 000764   000011 236000 20                 LDQ     9
        19 000765   100000 356100                    ANSQ    0,,PR1

  15963 19 000766   000000 471500                    LDP1    0,,PR0
        19 000767   000012 236000 20                 LDQ     10
        19 000770   100000 356100                    ANSQ    0,,PR1

     4775    15966
     4776    15967    1      INDEX_ST$ -> SCALAR.QLT$ = NEW_QLT$;

  15967 19 000771   300000 471500                    LDP1    0,,PR3
        19 000772   000000 236100                    LDQ     0,,PR0
        19 000773   100007 756100                    STQ     7,,PR1

     4777    15968
     4778    15969           %ADD_XREF (SYM  = INDEX_ST$,
     4779    15970                      ISN  = INDEX$ -> LX_TERMINAL.LINE,
     4780    15971                      TYPE = %XREF_DCL);

  15973 19 000774   000055 234000 xsym               SZN     COMCOM+45
        19 000775   001035 605000 19                 TPL     s:15998
PL6.E3A0      #002=Z8DR$NEW_INDEX File=Z8DR.:Z8A6TSI                             SAT 08/09/97 11:29 Page:803

  15977 19 000776   000002 236000 13                 LDQ     XREF_+2
        19 000777   000002 036007                    ADLQ    2,DL
        19 001000   000003 116000 13                 CMPQ    XREF_+3
        19 001001   001012 602000 19                 TNC     s:15979

  15978 19 001002   000013 236000 20                 LDQ     11
        19 001003   200030 756100                    STQ     DESC+1,,AUTO
        19 001004   200030 631500                    EPPR1   DESC+1,,AUTO
        19 001005   200031 451500                    STP1    DESC+2,,AUTO
        19 001006   200031 630500                    EPPR0   DESC+2,,AUTO
        19 001007   000000 631400 20                 EPPR1   0
        19 001010   000000 701000 xent               TSX1    Z8AR$RESERVER
        19 001011   000000 011000                    NOP     0

  15979 19 001012   000002 236000 13                 LDQ     XREF_+2
        19 001013   000022 736000                    QLS     18
        19 001014   000001 036000 13                 ADLQ    XREF_+1
        19 001015   000000 756000 12                 STQ     XREF$

  15980 19 001016   000002 235000 13                 LDA     XREF_+2
        19 001017   000002 035007                    ADLA    2,DL
        19 001020   000002 755000 13                 STA     XREF_+2

  15981 19 001021   000004 220003                    LDX0    4,DU
        19 001022   000000 470400 12                 LDP0    XREF$
        19 001023   000000 740100                    STX0    0,,PR0

  15984 19 001024   200003 470500                    LDP0    @INDEX$,,AUTO
        19 001025   000000 471500                    LDP1    0,,PR0
        19 001026   100005 721100                    LXL1    5,,PR1
        19 001027   000000 473400 12                 LDP3    XREF$
        19 001030   300000 441100                    SXL1    0,,PR3

  15985 19 001031   200007 471500                    LDP1    @INDEX_ST$,,AUTO
        19 001032   100000 236100                    LDQ     0,,PR1
        19 001033   000000 473400 12                 LDP3    XREF$
PL6.E3A0      #002=Z8DR$NEW_INDEX File=Z8DR.:Z8A6TSI                             SAT 08/09/97 11:29 Page:804
        19 001034   300001 756100                    STQ     1,,PR3

     4781    15989
     4782    15990        %EJECT;
PL6.E3A0      #002=Z8DR$NEW_INDEX File=Z8DR.:Z8A6TSI                             SAT 08/09/97 11:29 Page:805
     4783    15991        /* Create REDEF tya group item */
     4784    15992
     4785    15993           %PACK_ADSC    (@DESC   = DESC,
     4786    15994                          @LENGTH = LENGTH);

  15998 19 001035   000000 220003                    LDX0    0,DU
        19 001036   200027 740100                    STX0    DESC,,AUTO

  16000 19 001037   000014 236000 20                 LDQ     12
        19 001040   200027 356100                    ANSQ    DESC,,AUTO

  16001 19 001041   000011 236000 20                 LDQ     9
        19 001042   200027 356100                    ANSQ    DESC,,AUTO

  16013 19 001043   000015 236000 20                 LDQ     13
        19 001044   200027 356100                    ANSQ    DESC,,AUTO

  16014 19 001045   000016 236000 20                 LDQ     14
        19 001046   200027 356100                    ANSQ    DESC,,AUTO

  16015 19 001047   200022 236100                    LDQ     LENGTH,,AUTO
        19 001050   200027 752103                    STCQ    DESC,'03'O,AUTO

     4787    16018
     4788    16019           %NEW_SCALAR   (@ST$    = TYA_ST$,
     4789    16020                          @DESCL  = DESC.DESCL,
     4790    16021                          @TYPE   = %TYA,
     4791    16022                          @LINE_NO= INDEX$ -> LX_TERMINAL.LINE,
     4792    16023                          @CLASS  = %CLASS_ALPHANUMERIC,
     4793    16024                          @COMPILER_CREATED = TRUE,         /*#33133*/
     4794    16025                          @DNT$   = TYA_DNT$);

  16029 19 001051   000002 236000 2                  LDQ     ST_+2
        19 001052   000013 036007                    ADLQ    11,DL
        19 001053   000003 116000 2                  CMPQ    ST_+3
        19 001054   001065 604000 19                 TMI     s:16031

PL6.E3A0      #002=Z8DR$NEW_INDEX File=Z8DR.:Z8A6TSI                             SAT 08/09/97 11:29 Page:806
  16030 19 001055   000004 236000 20                 LDQ     4
        19 001056   200030 756100                    STQ     DESC+1,,AUTO
        19 001057   200030 630500                    EPPR0   DESC+1,,AUTO
        19 001060   200031 450500                    STP0    DESC+2,,AUTO
        19 001061   200031 630500                    EPPR0   DESC+2,,AUTO
        19 001062   000000 631400 20                 EPPR1   0
        19 001063   000000 701000 xent               TSX1    Z8AR$RESERVER
        19 001064   000000 011000                    NOP     0

  16031 19 001065   000002 236000 2                  LDQ     ST_+2
        19 001066   000022 736000                    QLS     18
        19 001067   000001 036000 2                  ADLQ    ST_+1
        19 001070   200010 756100                    STQ     TYA_ST$,,AUTO

  16032 19 001071   000013 236007                    LDQ     11,DL
        19 001072   000002 056000 2                  ASQ     ST_+2

  16080 19 001073   000766 220003                    LDX0    502,DU
        19 001074   200010 470500                    LDP0    TYA_ST$,,AUTO
        19 001075   000000 740100                    STX0    0,,PR0

  16081 19 001076   003000 236007                    LDQ     1536,DL
        19 001077   000000 552110                    STBQ    0,'10'O,PR0

  16082 19 001100   000001 236007                    LDQ     1,DL
        19 001101   000000 552104                    STBQ    0,'04'O,PR0

  16083 19 001102   000000 221003                    LDX1    0,DU
        19 001103   000001 741100                    STX1    1,,PR0

  16084 19 001104   200027 722100                    LXL2    DESC,,AUTO
        19 001105   000001 442100                    SXL2    1,,PR0

  16085 19 001106   200003 471500                    LDP1    @INDEX$,,AUTO
        19 001107   100000 473500                    LDP3    0,,PR1
        19 001110   300005 723100                    LXL3    5,,PR3
        19 001111   000002 443100                    SXL3    2,,PR0
PL6.E3A0      #002=Z8DR$NEW_INDEX File=Z8DR.:Z8A6TSI                             SAT 08/09/97 11:29 Page:807

  16086 19 001112   000003 450100                    STZ     3,,PR0

  16087 19 001113   000002 236000 20                 LDQ     2
        19 001114   000004 756100                    STQ     4,,PR0

  16088 19 001115   000005 756100                    STQ     5,,PR0

  16089 19 001116   000007 756100                    STQ     7,,PR0

  16090 19 001117   000010 741100                    STX1    8,,PR0

  16091 19 001120   777777 224003                    LDX4    -1,DU
        19 001121   000010 444100                    SXL4    8,,PR0

  16095 19 001122   000012 756100                    STQ     10,,PR0

  16098 19 001123   000057 236000 xsym               LDQ     O1COM+47
        19 001124   000011 756100                    STQ     9,,PR0

  16099 19 001125   000057 236000 xsym               LDQ     O1COM+47
        19 001126   000002 116000 20                 CMPQ    2
        19 001127   001151 600000 19                 TZE     s:16134

  16103 19 001130   000057 473400 xsym               LDP3    O1COM+47
        19 001131   300001 474500                    LDP4    1,,PR3
        19 001132   400012 236100                    LDQ     10,,PR4
        19 001133   000002 116000 20                 CMPQ    2
        19 001134   001143 601000 19                 TNZ     s:16110

  16105 19 001135   200010 236100                    LDQ     TYA_ST$,,AUTO
        19 001136   400011 756100                    STQ     9,,PR4

  16106 19 001137   000057 473400 xsym               LDP3    O1COM+47
        19 001140   300001 474500                    LDP4    1,,PR3
        19 001141   400012 756100                    STQ     10,,PR4

PL6.E3A0      #002=Z8DR$NEW_INDEX File=Z8DR.:Z8A6TSI                             SAT 08/09/97 11:29 Page:808
  16107 19 001142   001151 710000 19                 TRA     s:16134

  16110 19 001143   400012 475500                    LDP5    10,,PR4
        19 001144   200010 236100                    LDQ     TYA_ST$,,AUTO
        19 001145   500012 756100                    STQ     10,,PR5

  16111 19 001146   000057 473400 xsym               LDP3    O1COM+47
        19 001147   300001 474500                    LDP4    1,,PR3
        19 001150   400012 756100                    STQ     10,,PR4

  16134 19 001151   000010 223003                    LDX3    8,DU
        19 001152   000002 743100                    STX3    2,,PR0

  16139 19 001153   200016 236100                    LDQ     TYA_DNT$,,AUTO
        19 001154   000006 756100                    STQ     6,,PR0

  16165 19 001155   100000 236003                    LDQ     32768,DU
        19 001156   000003 256100                    ORSQ    3,,PR0

  16204 19 001157   000003 236100                    LDQ     3,,PR0
        19 001160   000005 376000 20                 ANQ     5
        19 001161   000003 276007                    ORQ     3,DL
        19 001162   000003 756100                    STQ     3,,PR0

     4795    16225
     4796    16226    1      TYA_ST$ -> SCALAR.B.REDEF_SUB = TRUE;

  16226 19 001163   001000 236003                    LDQ     512,DU
        19 001164   000003 256100                    ORSQ    3,,PR0

     4797    16227    1      TYA_DNT$ -> DNT.ST$       = TYA_ST$;

  16227 19 001165   200010 236100                    LDQ     TYA_ST$,,AUTO
        19 001166   200016 473500                    LDP3    TYA_DNT$,,AUTO
        19 001167   300001 756100                    STQ     1,,PR3

     4798    16228
PL6.E3A0      #002=Z8DR$NEW_INDEX File=Z8DR.:Z8A6TSI                             SAT 08/09/97 11:29 Page:809
     4799    16229           %NEW_QLT      (@POINTER = TYA_QLT$,
     4800    16230                          @ST$     = TYA_ST$,
     4801    16231                          @DNT$    = TYA_DNT$,
     4802    16232                          @LEVEL#  = LEVEL);

  16237 19 001170   000002 236000 5                  LDQ     QLT_+2
        19 001171   000006 036007                    ADLQ    6,DL
        19 001172   000003 116000 5                  CMPQ    QLT_+3
        19 001173   001204 602000 19                 TNC     s:16239

  16238 19 001174   000006 236000 20                 LDQ     6
        19 001175   200030 756100                    STQ     DESC+1,,AUTO
        19 001176   200030 634500                    EPPR4   DESC+1,,AUTO
        19 001177   200031 454500                    STP4    DESC+2,,AUTO
        19 001200   200031 630500                    EPPR0   DESC+2,,AUTO
        19 001201   000000 631400 20                 EPPR1   0
        19 001202   000000 701000 xent               TSX1    Z8AR$RESERVER
        19 001203   000000 011000                    NOP     0

  16239 19 001204   000002 236000 5                  LDQ     QLT_+2
        19 001205   000022 736000                    QLS     18
        19 001206   000001 036000 5                  ADLQ    QLT_+1
        19 001207   200013 756100                    STQ     TYA_QLT$,,AUTO

  16240 19 001210   000002 235000 5                  LDA     QLT_+2
        19 001211   000006 035007                    ADLA    6,DL
        19 001212   000002 755000 5                  STA     QLT_+2

  16241 19 001213   001053 220003                    LDX0    555,DU
        19 001214   200013 470500                    LDP0    TYA_QLT$,,AUTO
        19 001215   000000 740100                    STX0    0,,PR0

  16244 19 001216   000002 236000 20                 LDQ     2
        19 001217   000001 756100                    STQ     1,,PR0

  16245 19 001220   000002 236000 20                 LDQ     2
        19 001221   000002 756100                    STQ     2,,PR0
PL6.E3A0      #002=Z8DR$NEW_INDEX File=Z8DR.:Z8A6TSI                             SAT 08/09/97 11:29 Page:810

  16246 19 001222   000002 236000 20                 LDQ     2
        19 001223   000003 756100                    STQ     3,,PR0

  16247 19 001224   200010 236100                    LDQ     TYA_ST$,,AUTO
        19 001225   000004 756100                    STQ     4,,PR0

  16248 19 001226   200016 236100                    LDQ     TYA_DNT$,,AUTO
        19 001227   000005 756100                    STQ     5,,PR0

  16249 19 001230   200005 471500                    LDP1    @LEVEL,,AUTO
        19 001231   100000 236100                    LDQ     0,,PR1
        19 001232   000000 552104                    STBQ    0,'04'O,PR0

  16250 19 001233   000000 236003                    LDQ     0,DU
        19 001234   000000 552110                    STBQ    0,'10'O,PR0

  16251 19 001235   000007 236000 20                 LDQ     7
        19 001236   000000 356100                    ANSQ    0,,PR0

  16252 19 001237   000010 236000 20                 LDQ     8
        19 001240   000000 356100                    ANSQ    0,,PR0

  16253 19 001241   000011 236000 20                 LDQ     9
        19 001242   000000 356100                    ANSQ    0,,PR0

  16254 19 001243   000012 236000 20                 LDQ     10
        19 001244   000000 356100                    ANSQ    0,,PR0

     4803    16257
     4804    16258    1      NEW_QLT$ -> QLT.BROTHER = TYA_QLT$;

  16258 19 001245   200006 473500                    LDP3    @NEW_QLT$,,AUTO
        19 001246   300000 474500                    LDP4    0,,PR3
        19 001247   200013 236100                    LDQ     TYA_QLT$,,AUTO
        19 001250   400002 756100                    STQ     2,,PR4

PL6.E3A0      #002=Z8DR$NEW_INDEX File=Z8DR.:Z8A6TSI                             SAT 08/09/97 11:29 Page:811
     4805    16259    1      TYA_ST$ -> SCALAR.QLT$      = TYA_QLT$;

  16259 19 001251   200010 474500                    LDP4    TYA_ST$,,AUTO
        19 001252   400007 756100                    STQ     7,,PR4

     4806    16260
     4807    16261        %EJECT;
PL6.E3A0      #002=Z8DR$NEW_INDEX File=Z8DR.:Z8A6TSI                             SAT 08/09/97 11:29 Page:812
     4808    16262        /* Create the first word of the structure */
     4809    16263
     4810    16264           %BUILD_BINARY_DESC (@DESC    = DESC,
     4811    16265                               @LENGTH  = WORD1_LENGTH);

  16269 19 001253   200027 450100                    STZ     DESC,,AUTO

  16270 19 001254   200025 236100                    LDQ     WORD1_LENGTH,,AUTO
        19 001255   200027 752101                    STCQ    DESC,'01'O,AUTO

     4812    16273
     4813    16274           %NEW_SCALAR        (@ST$     = WORD1_ST$,
     4814    16275                               @DESCL   = DESC.DESCL,
     4815    16276                               @TYPE    = WORD1_TYPE,
     4816    16277                               @LINE_NO = INDEX$ -> LX_TERMINAL.LINE,
     4817    16278                               @CLASS   = %CLASS_NUMERIC,
     4818    16279                               @COMPILER_CREATED = TRUE,    /*#33133*/
     4819    16280                               @DNT$    = WORD1_DNT$);

  16284 19 001256   000002 236000 2                  LDQ     ST_+2
        19 001257   000013 036007                    ADLQ    11,DL
        19 001260   000003 116000 2                  CMPQ    ST_+3
        19 001261   001272 604000 19                 TMI     s:16286

  16285 19 001262   000004 236000 20                 LDQ     4
        19 001263   200030 756100                    STQ     DESC+1,,AUTO
        19 001264   200030 635500                    EPPR5   DESC+1,,AUTO
        19 001265   200031 455500                    STP5    DESC+2,,AUTO
        19 001266   200031 630500                    EPPR0   DESC+2,,AUTO
        19 001267   000000 631400 20                 EPPR1   0
        19 001270   000000 701000 xent               TSX1    Z8AR$RESERVER
        19 001271   000000 011000                    NOP     0

  16286 19 001272   000002 236000 2                  LDQ     ST_+2
        19 001273   000022 736000                    QLS     18
        19 001274   000001 036000 2                  ADLQ    ST_+1
        19 001275   200011 756100                    STQ     WORD1_ST$,,AUTO
PL6.E3A0      #002=Z8DR$NEW_INDEX File=Z8DR.:Z8A6TSI                             SAT 08/09/97 11:29 Page:813

  16287 19 001276   000013 236007                    LDQ     11,DL
        19 001277   000002 056000 2                  ASQ     ST_+2

  16335 19 001300   000766 220003                    LDX0    502,DU
        19 001301   200011 470500                    LDP0    WORD1_ST$,,AUTO
        19 001302   000000 740100                    STX0    0,,PR0

  16336 19 001303   003000 236007                    LDQ     1536,DL
        19 001304   000000 552110                    STBQ    0,'10'O,PR0

  16337 19 001305   000001 236007                    LDQ     1,DL
        19 001306   000000 552104                    STBQ    0,'04'O,PR0

  16338 19 001307   000000 221003                    LDX1    0,DU
        19 001310   000001 741100                    STX1    1,,PR0

  16339 19 001311   200027 722100                    LXL2    DESC,,AUTO
        19 001312   000001 442100                    SXL2    1,,PR0

  16340 19 001313   200003 471500                    LDP1    @INDEX$,,AUTO
        19 001314   100000 473500                    LDP3    0,,PR1
        19 001315   300005 723100                    LXL3    5,,PR3
        19 001316   000002 443100                    SXL3    2,,PR0

  16341 19 001317   000003 450100                    STZ     3,,PR0

  16342 19 001320   000002 236000 20                 LDQ     2
        19 001321   000004 756100                    STQ     4,,PR0

  16343 19 001322   000005 756100                    STQ     5,,PR0

  16344 19 001323   000007 756100                    STQ     7,,PR0

  16345 19 001324   000010 741100                    STX1    8,,PR0

  16346 19 001325   777777 224003                    LDX4    -1,DU
PL6.E3A0      #002=Z8DR$NEW_INDEX File=Z8DR.:Z8A6TSI                             SAT 08/09/97 11:29 Page:814
        19 001326   000010 444100                    SXL4    8,,PR0

  16350 19 001327   000012 756100                    STQ     10,,PR0

  16353 19 001330   000057 236000 xsym               LDQ     O1COM+47
        19 001331   000011 756100                    STQ     9,,PR0

  16354 19 001332   000057 236000 xsym               LDQ     O1COM+47
        19 001333   000002 116000 20                 CMPQ    2
        19 001334   001356 600000 19                 TZE     s:16389

  16358 19 001335   000057 473400 xsym               LDP3    O1COM+47
        19 001336   300001 474500                    LDP4    1,,PR3
        19 001337   400012 236100                    LDQ     10,,PR4
        19 001340   000002 116000 20                 CMPQ    2
        19 001341   001350 601000 19                 TNZ     s:16365

  16360 19 001342   200011 236100                    LDQ     WORD1_ST$,,AUTO
        19 001343   400011 756100                    STQ     9,,PR4

  16361 19 001344   000057 473400 xsym               LDP3    O1COM+47
        19 001345   300001 474500                    LDP4    1,,PR3
        19 001346   400012 756100                    STQ     10,,PR4

  16362 19 001347   001356 710000 19                 TRA     s:16389

  16365 19 001350   400012 475500                    LDP5    10,,PR4
        19 001351   200011 236100                    LDQ     WORD1_ST$,,AUTO
        19 001352   500012 756100                    STQ     10,,PR5

  16366 19 001353   000057 473400 xsym               LDP3    O1COM+47
        19 001354   300001 474500                    LDP4    1,,PR3
        19 001355   400012 756100                    STQ     10,,PR4

  16389 19 001356   200023 723100                    LXL3    WORD1_TYPE,,AUTO
        19 001357   000002 743100                    STX3    2,,PR0

PL6.E3A0      #002=Z8DR$NEW_INDEX File=Z8DR.:Z8A6TSI                             SAT 08/09/97 11:29 Page:815
  16394 19 001360   200017 236100                    LDQ     WORD1_DNT$,,AUTO
        19 001361   000006 756100                    STQ     6,,PR0

  16420 19 001362   100000 236003                    LDQ     32768,DU
        19 001363   000003 256100                    ORSQ    3,,PR0

  16459 19 001364   000003 236100                    LDQ     3,,PR0
        19 001365   000005 376000 20                 ANQ     5
        19 001366   000001 276007                    ORQ     1,DL
        19 001367   000003 756100                    STQ     3,,PR0

     4820    16480
     4821    16481    1      WORD1_ST$ -> SCALAR.B.ELEMENTARY = TRUE;

  16481 19 001370   010000 236003                    LDQ     4096,DU
        19 001371   000003 256100                    ORSQ    3,,PR0

     4822    16482    1      WORD1_DNT$ -> DNT.ST$        = WORD1_ST$;

  16482 19 001372   200011 236100                    LDQ     WORD1_ST$,,AUTO
        19 001373   200017 473500                    LDP3    WORD1_DNT$,,AUTO
        19 001374   300001 756100                    STQ     1,,PR3

     4823    16483
     4824    16484           %NEW_QLT           (@POINTER = WORD1_QLT$,
     4825    16485                               @ST$     = WORD1_ST$,
     4826    16486                               @FATHER  = TYA_QLT$,
     4827    16487                               @DNT$    = WORD1_DNT$,
     4828    16488                               @LEVEL#  = LEVEL + 1);

  16493 19 001375   000002 236000 5                  LDQ     QLT_+2
        19 001376   000006 036007                    ADLQ    6,DL
        19 001377   000003 116000 5                  CMPQ    QLT_+3
        19 001400   001411 602000 19                 TNC     s:16495

  16494 19 001401   000006 236000 20                 LDQ     6
        19 001402   200030 756100                    STQ     DESC+1,,AUTO
PL6.E3A0      #002=Z8DR$NEW_INDEX File=Z8DR.:Z8A6TSI                             SAT 08/09/97 11:29 Page:816
        19 001403   200030 634500                    EPPR4   DESC+1,,AUTO
        19 001404   200031 454500                    STP4    DESC+2,,AUTO
        19 001405   200031 630500                    EPPR0   DESC+2,,AUTO
        19 001406   000000 631400 20                 EPPR1   0
        19 001407   000000 701000 xent               TSX1    Z8AR$RESERVER
        19 001410   000000 011000                    NOP     0

  16495 19 001411   000002 236000 5                  LDQ     QLT_+2
        19 001412   000022 736000                    QLS     18
        19 001413   000001 036000 5                  ADLQ    QLT_+1
        19 001414   200014 756100                    STQ     WORD1_QLT$,,AUTO

  16496 19 001415   000002 235000 5                  LDA     QLT_+2
        19 001416   000006 035007                    ADLA    6,DL
        19 001417   000002 755000 5                  STA     QLT_+2

  16497 19 001420   001053 220003                    LDX0    555,DU
        19 001421   200014 470500                    LDP0    WORD1_QLT$,,AUTO
        19 001422   000000 740100                    STX0    0,,PR0

  16500 19 001423   200013 236100                    LDQ     TYA_QLT$,,AUTO
        19 001424   000001 756100                    STQ     1,,PR0

  16501 19 001425   000002 236000 20                 LDQ     2
        19 001426   000002 756100                    STQ     2,,PR0

  16502 19 001427   000002 236000 20                 LDQ     2
        19 001430   000003 756100                    STQ     3,,PR0

  16503 19 001431   200011 236100                    LDQ     WORD1_ST$,,AUTO
        19 001432   000004 756100                    STQ     4,,PR0

  16504 19 001433   200017 236100                    LDQ     WORD1_DNT$,,AUTO
        19 001434   000005 756100                    STQ     5,,PR0

  16505 19 001435   200005 471500                    LDP1    @LEVEL,,AUTO
        19 001436   100000 236100                    LDQ     0,,PR1
PL6.E3A0      #002=Z8DR$NEW_INDEX File=Z8DR.:Z8A6TSI                             SAT 08/09/97 11:29 Page:817
        19 001437   000001 036007                    ADLQ    1,DL
        19 001440   000000 552104                    STBQ    0,'04'O,PR0

  16506 19 001441   000000 236003                    LDQ     0,DU
        19 001442   000000 552110                    STBQ    0,'10'O,PR0

  16507 19 001443   000007 236000 20                 LDQ     7
        19 001444   000000 356100                    ANSQ    0,,PR0

  16508 19 001445   000010 236000 20                 LDQ     8
        19 001446   000000 356100                    ANSQ    0,,PR0

  16509 19 001447   000011 236000 20                 LDQ     9
        19 001450   000000 356100                    ANSQ    0,,PR0

  16510 19 001451   000012 236000 20                 LDQ     10
        19 001452   000000 356100                    ANSQ    0,,PR0

     4829    16513
     4830    16514    1      TYA_QLT$ -> QLT.SON = WORD1_QLT$;

  16514 19 001453   200014 236100                    LDQ     WORD1_QLT$,,AUTO
        19 001454   200013 473500                    LDP3    TYA_QLT$,,AUTO
        19 001455   300003 756100                    STQ     3,,PR3

     4831    16515    1      WORD1_ST$ -> SCALAR.QLT$ = WORD1_QLT$;

  16515 19 001456   200011 474500                    LDP4    WORD1_ST$,,AUTO
        19 001457   400007 756100                    STQ     7,,PR4

     4832    16516
     4833    16517        %EJECT;
PL6.E3A0      #002=Z8DR$NEW_INDEX File=Z8DR.:Z8A6TSI                             SAT 08/09/97 11:29 Page:818
     4834    16518        /* Create the second word of the structure */
     4835    16519
     4836    16520           %BUILD_BINARY_DESC (@DESC   = DESC,
     4837    16521                               @LENGTH = WORD2_LENGTH);

  16525 19 001460   200027 450100                    STZ     DESC,,AUTO

  16526 19 001461   200026 236100                    LDQ     WORD2_LENGTH,,AUTO
        19 001462   200027 752101                    STCQ    DESC,'01'O,AUTO

     4838    16529
     4839    16530           %NEW_SCALAR        (@ST$    = WORD2_ST$,
     4840    16531                               @DESCL  = DESC.DESCL,
     4841    16532                               @TYPE   = WORD2_TYPE,
     4842    16533                               @LINE_NO= INDEX$ -> LX_TERMINAL.LINE,
     4843    16534                               @CLASS  = %CLASS_NUMERIC,
     4844    16535                               @COMPILER_CREATED = TRUE,    /*#33133*/
     4845    16536                               @DNT$   = WORD2_DNT$);

  16540 19 001463   000002 236000 2                  LDQ     ST_+2
        19 001464   000013 036007                    ADLQ    11,DL
        19 001465   000003 116000 2                  CMPQ    ST_+3
        19 001466   001477 604000 19                 TMI     s:16542

  16541 19 001467   000004 236000 20                 LDQ     4
        19 001470   200030 756100                    STQ     DESC+1,,AUTO
        19 001471   200030 635500                    EPPR5   DESC+1,,AUTO
        19 001472   200031 455500                    STP5    DESC+2,,AUTO
        19 001473   200031 630500                    EPPR0   DESC+2,,AUTO
        19 001474   000000 631400 20                 EPPR1   0
        19 001475   000000 701000 xent               TSX1    Z8AR$RESERVER
        19 001476   000000 011000                    NOP     0

  16542 19 001477   000002 236000 2                  LDQ     ST_+2
        19 001500   000022 736000                    QLS     18
        19 001501   000001 036000 2                  ADLQ    ST_+1
        19 001502   200012 756100                    STQ     WORD2_ST$,,AUTO
PL6.E3A0      #002=Z8DR$NEW_INDEX File=Z8DR.:Z8A6TSI                             SAT 08/09/97 11:29 Page:819

  16543 19 001503   000013 236007                    LDQ     11,DL
        19 001504   000002 056000 2                  ASQ     ST_+2

  16591 19 001505   000766 220003                    LDX0    502,DU
        19 001506   200012 470500                    LDP0    WORD2_ST$,,AUTO
        19 001507   000000 740100                    STX0    0,,PR0

  16592 19 001510   003000 236007                    LDQ     1536,DL
        19 001511   000000 552110                    STBQ    0,'10'O,PR0

  16593 19 001512   000001 236007                    LDQ     1,DL
        19 001513   000000 552104                    STBQ    0,'04'O,PR0

  16594 19 001514   000000 221003                    LDX1    0,DU
        19 001515   000001 741100                    STX1    1,,PR0

  16595 19 001516   200027 722100                    LXL2    DESC,,AUTO
        19 001517   000001 442100                    SXL2    1,,PR0

  16596 19 001520   200003 471500                    LDP1    @INDEX$,,AUTO
        19 001521   100000 473500                    LDP3    0,,PR1
        19 001522   300005 723100                    LXL3    5,,PR3
        19 001523   000002 443100                    SXL3    2,,PR0

  16597 19 001524   000003 450100                    STZ     3,,PR0

  16598 19 001525   000002 236000 20                 LDQ     2
        19 001526   000004 756100                    STQ     4,,PR0

  16599 19 001527   000005 756100                    STQ     5,,PR0

  16600 19 001530   000007 756100                    STQ     7,,PR0

  16601 19 001531   000010 741100                    STX1    8,,PR0

  16602 19 001532   777777 224003                    LDX4    -1,DU
PL6.E3A0      #002=Z8DR$NEW_INDEX File=Z8DR.:Z8A6TSI                             SAT 08/09/97 11:29 Page:820
        19 001533   000010 444100                    SXL4    8,,PR0

  16606 19 001534   000012 756100                    STQ     10,,PR0

  16609 19 001535   000057 236000 xsym               LDQ     O1COM+47
        19 001536   000011 756100                    STQ     9,,PR0

  16610 19 001537   000057 236000 xsym               LDQ     O1COM+47
        19 001540   000002 116000 20                 CMPQ    2
        19 001541   001563 600000 19                 TZE     s:16645

  16614 19 001542   000057 473400 xsym               LDP3    O1COM+47
        19 001543   300001 474500                    LDP4    1,,PR3
        19 001544   400012 236100                    LDQ     10,,PR4
        19 001545   000002 116000 20                 CMPQ    2
        19 001546   001555 601000 19                 TNZ     s:16621

  16616 19 001547   200012 236100                    LDQ     WORD2_ST$,,AUTO
        19 001550   400011 756100                    STQ     9,,PR4

  16617 19 001551   000057 473400 xsym               LDP3    O1COM+47
        19 001552   300001 474500                    LDP4    1,,PR3
        19 001553   400012 756100                    STQ     10,,PR4

  16618 19 001554   001563 710000 19                 TRA     s:16645

  16621 19 001555   400012 475500                    LDP5    10,,PR4
        19 001556   200012 236100                    LDQ     WORD2_ST$,,AUTO
        19 001557   500012 756100                    STQ     10,,PR5

  16622 19 001560   000057 473400 xsym               LDP3    O1COM+47
        19 001561   300001 474500                    LDP4    1,,PR3
        19 001562   400012 756100                    STQ     10,,PR4

  16645 19 001563   200024 723100                    LXL3    WORD2_TYPE,,AUTO
        19 001564   000002 743100                    STX3    2,,PR0

PL6.E3A0      #002=Z8DR$NEW_INDEX File=Z8DR.:Z8A6TSI                             SAT 08/09/97 11:29 Page:821
  16650 19 001565   200020 236100                    LDQ     WORD2_DNT$,,AUTO
        19 001566   000006 756100                    STQ     6,,PR0

  16676 19 001567   100000 236003                    LDQ     32768,DU
        19 001570   000003 256100                    ORSQ    3,,PR0

  16715 19 001571   000003 236100                    LDQ     3,,PR0
        19 001572   000005 376000 20                 ANQ     5
        19 001573   000001 276007                    ORQ     1,DL
        19 001574   000003 756100                    STQ     3,,PR0

     4846    16736
     4847    16737    1      WORD2_ST$ -> SCALAR.B.ELEMENTARY = TRUE;

  16737 19 001575   010000 236003                    LDQ     4096,DU
        19 001576   000003 256100                    ORSQ    3,,PR0

     4848    16738    1      WORD2_DNT$ -> DNT.ST$        = WORD2_ST$;

  16738 19 001577   200012 236100                    LDQ     WORD2_ST$,,AUTO
        19 001600   200020 473500                    LDP3    WORD2_DNT$,,AUTO
        19 001601   300001 756100                    STQ     1,,PR3

     4849    16739
     4850    16740           %NEW_QLT           (@POINTER = WORD2_QLT$,
     4851    16741                               @ST$     = WORD2_ST$,
     4852    16742                               @FATHER  = TYA_QLT$,
     4853    16743                               @DNT$    = WORD2_DNT$,
     4854    16744                               @LEVEL#  = LEVEL + 1);

  16749 19 001602   000002 236000 5                  LDQ     QLT_+2
        19 001603   000006 036007                    ADLQ    6,DL
        19 001604   000003 116000 5                  CMPQ    QLT_+3
        19 001605   001616 602000 19                 TNC     s:16751

  16750 19 001606   000006 236000 20                 LDQ     6
        19 001607   200030 756100                    STQ     DESC+1,,AUTO
PL6.E3A0      #002=Z8DR$NEW_INDEX File=Z8DR.:Z8A6TSI                             SAT 08/09/97 11:29 Page:822
        19 001610   200030 634500                    EPPR4   DESC+1,,AUTO
        19 001611   200031 454500                    STP4    DESC+2,,AUTO
        19 001612   200031 630500                    EPPR0   DESC+2,,AUTO
        19 001613   000000 631400 20                 EPPR1   0
        19 001614   000000 701000 xent               TSX1    Z8AR$RESERVER
        19 001615   000000 011000                    NOP     0

  16751 19 001616   000002 236000 5                  LDQ     QLT_+2
        19 001617   000022 736000                    QLS     18
        19 001620   000001 036000 5                  ADLQ    QLT_+1
        19 001621   200015 756100                    STQ     WORD2_QLT$,,AUTO

  16752 19 001622   000002 235000 5                  LDA     QLT_+2
        19 001623   000006 035007                    ADLA    6,DL
        19 001624   000002 755000 5                  STA     QLT_+2

  16753 19 001625   001053 220003                    LDX0    555,DU
        19 001626   200015 470500                    LDP0    WORD2_QLT$,,AUTO
        19 001627   000000 740100                    STX0    0,,PR0

  16756 19 001630   200013 236100                    LDQ     TYA_QLT$,,AUTO
        19 001631   000001 756100                    STQ     1,,PR0

  16757 19 001632   000002 236000 20                 LDQ     2
        19 001633   000002 756100                    STQ     2,,PR0

  16758 19 001634   000002 236000 20                 LDQ     2
        19 001635   000003 756100                    STQ     3,,PR0

  16759 19 001636   200012 236100                    LDQ     WORD2_ST$,,AUTO
        19 001637   000004 756100                    STQ     4,,PR0

  16760 19 001640   200020 236100                    LDQ     WORD2_DNT$,,AUTO
        19 001641   000005 756100                    STQ     5,,PR0

  16761 19 001642   200005 471500                    LDP1    @LEVEL,,AUTO
        19 001643   100000 236100                    LDQ     0,,PR1
PL6.E3A0      #002=Z8DR$NEW_INDEX File=Z8DR.:Z8A6TSI                             SAT 08/09/97 11:29 Page:823
        19 001644   000001 036007                    ADLQ    1,DL
        19 001645   000000 552104                    STBQ    0,'04'O,PR0

  16762 19 001646   000000 236003                    LDQ     0,DU
        19 001647   000000 552110                    STBQ    0,'10'O,PR0

  16763 19 001650   000007 236000 20                 LDQ     7
        19 001651   000000 356100                    ANSQ    0,,PR0

  16764 19 001652   000010 236000 20                 LDQ     8
        19 001653   000000 356100                    ANSQ    0,,PR0

  16765 19 001654   000011 236000 20                 LDQ     9
        19 001655   000000 356100                    ANSQ    0,,PR0

  16766 19 001656   000012 236000 20                 LDQ     10
        19 001657   000000 356100                    ANSQ    0,,PR0

     4855    16769
     4856    16770    1      WORD1_QLT$ -> QLT.BROTHER    = WORD2_QLT$;

  16770 19 001660   200015 236100                    LDQ     WORD2_QLT$,,AUTO
        19 001661   200014 473500                    LDP3    WORD1_QLT$,,AUTO
        19 001662   300002 756100                    STQ     2,,PR3

     4857    16771    1      WORD2_ST$ -> SCALAR.QLT$         = WORD2_QLT$;

  16771 19 001663   200012 474500                    LDP4    WORD2_ST$,,AUTO
        19 001664   400007 756100                    STQ     7,,PR4

     4858    16772
     4859    16773    1   END Z8DR$NEW_INDEX;

  16773 19 001665   000000 702200 xent               TSX2  ! X66_ARET
     4860    16774        %EOD;

PL6.E3A0      #002=Z8DR$NEW_INDEX File=Z8DR.:Z8A6TSI                             SAT 08/09/97 11:29 Page:824
--  Include file information  --

   Z8E_WINDOW.:Z8A6TOU  is referenced.
   Z8E_O1COM.:Z8A6TOU  cannot be made into a system file and is referenced.
   Z8A_LEX_SYMB.:Z8A6TOU  cannot be made into a system file and is referenced.
   Z8E_STACKS.:Z8A6TOU  cannot be made into a system file and is referenced.
   Z8A_XREF.:Z8A6TOU  cannot be made into a system file and is referenced.
   Z8A_TYPES.:Z8A6TOU  is referenced.
   Z8A_DNT.:Z8A6TOU  cannot be made into a system file and is referenced.
   Z8A_LTS.:Z8A6TOU  cannot be made into a system file and is referenced.
   Z8A_QLT.:Z8A6TOU  cannot be made into a system file and is referenced.
   Z8A_ST.:Z8A6TOU  cannot be made into a system file and is referenced.
   Z8A_ERR_NUMS.:Z8A6TOU  is referenced.
   Z8A_COMCOM.:Z8A6TOU  cannot be made into a system file and is referenced.
   X8A_COM_MACS.:X8A6TOU  is referenced.
   Z8A_NAMES.:Z8A6TOU  is referenced.
   Z8A_SUPP_MAC.:Z8A6TOU  is referenced.
   Z8A_DEFC.:Z8A6TOU  cannot be made into a system file and is referenced.
      No diagnostics issued in procedure Z8DR$NEW_INDEX.
PL6.E3A0      #002=Z8DR$NEW_INDEX File=Z8DR.:Z8A6TSI                             SAT 08/09/97 11:29 Page:825

 **** Variables and constants ****

  ****  Section 000 LblCom ITERATION

  ****  Scalars and arrays  ****
OctLoc.c.b A Datatyp(siz) R M Lvl/name                 OctLoc.c.b A Datatyp(siz) R M Lvl/name

     0-0-0/w SBIN        r     1 ITERATION

  ****  Section 001 LblCom ST$

  ****  Scalars and arrays  ****
OctLoc.c.b A Datatyp(siz) R M Lvl/name                 OctLoc.c.b A Datatyp(siz) R M Lvl/name

     0-0-0/w PTR         r     1 ST$

  ****  Section 002 LblCom ST_

  ****  Scalars and arrays  ****
OctLoc.c.b A Datatyp(siz) R M Lvl/name                 OctLoc.c.b A Datatyp(siz) R M Lvl/name

     0-0-0/w STRC(180)   r     1 ST_

  ****  Section 003 LblCom QLT$

  ****  Scalars and arrays  ****
OctLoc.c.b A Datatyp(siz) R M Lvl/name                 OctLoc.c.b A Datatyp(siz) R M Lvl/name

     0-0-0/w PTR         r     1 QLT$

  ****  Section 004 LblCom PREV_01_QLT$

  ****  Scalars and arrays  ****
OctLoc.c.b A Datatyp(siz) R M Lvl/name                 OctLoc.c.b A Datatyp(siz) R M Lvl/name

     0-0-0/w PTR               1 PREV_01_QLT$

PL6.E3A0      #002=Z8DR$NEW_INDEX File=Z8DR.:Z8A6TSI                             SAT 08/09/97 11:29 Page:826
  ****  Section 005 LblCom QLT_

  ****  Scalars and arrays  ****
OctLoc.c.b A Datatyp(siz) R M Lvl/name                 OctLoc.c.b A Datatyp(siz) R M Lvl/name

     0-0-0/w STRC(180)   r     1 QLT_

  ****  Section 006 LblCom LTS$

  ****  Scalars and arrays  ****
OctLoc.c.b A Datatyp(siz) R M Lvl/name                 OctLoc.c.b A Datatyp(siz) R M Lvl/name

     0-0-0/w PTR               1 LONG_ITEM$                 0-0-0/w PTR         r     1 LTS$

  ****  Section 007 LblCom LTS_

  ****  Scalars and arrays  ****
OctLoc.c.b A Datatyp(siz) R M Lvl/name                 OctLoc.c.b A Datatyp(siz) R M Lvl/name

     0-0-0/w STRC(180)         1 LTS_

  ****  Section 008 LblCom DNT$

  ****  Scalars and arrays  ****
OctLoc.c.b A Datatyp(siz) R M Lvl/name                 OctLoc.c.b A Datatyp(siz) R M Lvl/name

     0-0-0/w PTR         r     1 DNT$

  ****  Section 009 LblCom DNT_

  ****  Scalars and arrays  ****
OctLoc.c.b A Datatyp(siz) R M Lvl/name                 OctLoc.c.b A Datatyp(siz) R M Lvl/name

     0-0-0/w STRC(180)   r     1 DNT_

  ****  Section 010 LblCom DNT_BUCKET_NUMBER

PL6.E3A0      #002=Z8DR$NEW_INDEX File=Z8DR.:Z8A6TSI                             SAT 08/09/97 11:29 Page:827
  ****  Scalars and arrays  ****
OctLoc.c.b A Datatyp(siz) R M Lvl/name                 OctLoc.c.b A Datatyp(siz) R M Lvl/name

     0-0-0/w UBIN              1 DNT_BUCKET_NUMBER

  ****  Section 011 LblCom DNT_OF_1$

  ****  Scalars and arrays  ****
OctLoc.c.b A Datatyp(siz) R M Lvl/name                 OctLoc.c.b A Datatyp(siz) R M Lvl/name

     0-0-0/w PTR               1 DNT_OF_1$

  ****  Section 012 LblCom XREF$

  ****  Scalars and arrays  ****
OctLoc.c.b A Datatyp(siz) R M Lvl/name                 OctLoc.c.b A Datatyp(siz) R M Lvl/name

     0-0-0/w PTR         r     1 XREF$

  ****  Section 013 LblCom XREF_

  ****  Scalars and arrays  ****
OctLoc.c.b A Datatyp(siz) R M Lvl/name                 OctLoc.c.b A Datatyp(siz) R M Lvl/name

     0-0-0/w STRC(180)   r     1 XREF_

  ****  Section 014 LblCom LEX_SYMBOL

  ****  Scalars and arrays  ****
OctLoc.c.b A Datatyp(siz) R M Lvl/name                 OctLoc.c.b A Datatyp(siz) R M Lvl/name

     0-0-0/w STRC(3240)  r     1 LEX_SYMBOL                 0-0-0/w STRC(3240)        1 LEX_SYMBOL_WORDS

  ****  Section 015 LblCom CURRENT_LEX_SYMBOL$

  ****  Scalars and arrays  ****
OctLoc.c.b A Datatyp(siz) R M Lvl/name                 OctLoc.c.b A Datatyp(siz) R M Lvl/name
PL6.E3A0      #002=Z8DR$NEW_INDEX File=Z8DR.:Z8A6TSI                             SAT 08/09/97 11:29 Page:828

     0-0-0/w PTR         r     1 CURRENT_LEX_SYMBOL$

  ****  Section 016 LblCom TEMP_LEX_SYMBOL

  ****  Scalars and arrays  ****
OctLoc.c.b A Datatyp(siz) R M Lvl/name                 OctLoc.c.b A Datatyp(siz) R M Lvl/name

     0-0-0/w STRC(3240)        1 TEMP_LEX_SYMBOL

  ****  Section 017 LblCom TEMP_LEX_SYMBOL2

  ****  Scalars and arrays  ****
OctLoc.c.b A Datatyp(siz) R M Lvl/name                 OctLoc.c.b A Datatyp(siz) R M Lvl/name

     0-0-0/w STRC(3240)        1 TEMP_LEX_SYMBOL2

  ****  Auto variables  ****

  ****  Scalars and arrays  ****
OctLoc.c.b A Datatyp(siz) R M Lvl/name                 OctLoc.c.b A Datatyp(siz) R M Lvl/name

     3-0-0/w PTR         r     1 @INDEX$                    7-0-0/w PTR         r     1 @INDEX_ST$
     5-0-0/w PTR         r     1 @LEVEL                     6-0-0/w PTR         r     1 @NEW_QLT$
     4-0-0/w PTR         r     1 @TYPE                     27-0-0/w STRC        r     1 DESC
    *0-0-0/w PTR         r     1 INDEX$                    21-0-0/w PTR         r     1 INDEX_DNT$
    *0-0-0/w PTR         r     1 INDEX_ST$                 22-0-0/w SBIN        r     1 LENGTH
    *0-0-0/w SBIN        r     1 LEVEL                     *0-0-0/w PTR         r     1 NEW_QLT$
    16-0-0/w PTR         r     1 TYA_DNT$                  13-0-0/w PTR         r     1 TYA_QLT$
    10-0-0/w PTR         r     1 TYA_ST$                   *0-0-0/w SBIN        r     1 TYPE
    17-0-0/w PTR         r     1 WORD1_DNT$                25-0-0/w SBIN        r     1 WORD1_LENGTH
    14-0-0/w PTR         r     1 WORD1_QLT$                11-0-0/w PTR         r     1 WORD1_ST$
    23-0-0/w SBIN        r     1 WORD1_TYPE                20-0-0/w PTR         r     1 WORD2_DNT$
    26-0-0/w SBIN        r     1 WORD2_LENGTH              15-0-0/w PTR         r     1 WORD2_QLT$
    12-0-0/w PTR         r     1 WORD2_ST$                 24-0-0/w SBIN        r     1 WORD2_TYPE

  ****  SYMREF variables  ****
PL6.E3A0      #002=Z8DR$NEW_INDEX File=Z8DR.:Z8A6TSI                             SAT 08/09/97 11:29 Page:829

  ****  Scalars and arrays  ****
OctLoc.c.b A Datatyp(siz) R M Lvl/name                 OctLoc.c.b A Datatyp(siz) R M Lvl/name

     0-0-0/d STRC(13248) r     1 COMCOM
     0-0-0/w STRC(180)         1 HIER_STK(0:50)
     0-0-0/w SBIN              1 HIER_STK_PTR
     0-0-0/w UBIN              1 LTS_STEP(0:37)
     0-0-0/d STRC(11580) r     1 O1COM                      0-0-0/w STRC(144)         1 PAGE_FORMAT
     0-0-0/w STRC(153)         1 REP_STK(0:50)              0-0-0/w SBIN              1 REP_STK_PTR

  ****  BASED and DCB variables  ****

  ****  Scalars and arrays  ****
OctLoc.c.b A Datatyp(siz) R M Lvl/name                 OctLoc.c.b A Datatyp(siz) R M Lvl/name

     0-0-0/w STRC(288)         1 ADD_STMT                   0-0-0/w STRC(396)         1 ALPHABET
     0-0-0/w STRC(144)         1 ALTER_LTS                  0-0-0/w STRC(3672)        1 ALT_KEY
     0-0-0/w STRC(36864)       1 ARGLIST                    0-0-0/w STRC(396)         1 ARRAY
     0-0-0/w STRC(180)         1 ARRAY_PRESET_LTS           0-0-0/w ASTR(324)   r     1 BASED_LEX_SYMBOL
     0-0-0/w STRC(360)         1 BASED_LEX_SYMBOL_WORDS
     0-0-0/w STRC(288)         1 BASE_LTS                   0-0-0/w STRC(288)         1 BINARY_OP
     0-0-0/w STRC(396)         1 BLOCK                      0-0-0/w STRC(144)         1 BT
     0-0-0/w STRC(288)         1 CALL_STMT                  0-0-0/w STRC(396)         1 CD
     0-0-0/w STRC(288)         1 CD_LTS                     0-0-0/w CHAR(4096)        1 CHARS
     0-0-0/w STRC(396)         1 CLASS                      0-0-0/w STRC(288)         1 COMPUTE_STMT
     0-0-0/w STRC(396)         1 CONDITION                  0-0-0/w STRC(396)         1 CONST
     0-0-0/w STRC(72)          1 CONT                       0-0-0/w STRC(540)         1 CONTROL_NAME_LTS
     0-0-0/w STRC(1872)        1 COPY_FILE                  0-0-0/w STRC(396)         1 DB
     0-0-0/w STRC(396)         1 DCB_                       0-0-0/w STRC(288)         1 DEFERED_IDENTIFIER
     0-0-0/w STRC(252)         1 DEFERED_ID_TREE            0-0-0/w STRC(288)         1 DEFERED_QUAL_ID
     0-0-0/w STRC(288)         1 DEFERED_SUM_CLAUSE
     0-0-0/w STRC(288)         1 DEFERED_SUM_CLAUSE_LIST
     0-0-0/w STRC(288)         1 DELETE_STMT                0-0-0/w STRC(108)         1 DEPENDING_SIZE
     0-0-0/w STRC(5472)        1 DIMS                       0-0-0/w STRC(288)         1 DIVIDE_STMT
     0-0-0/w STRC(396)         1 DML_ITEM                   0-0-0/w STRC(216)         1 DML_REC
     0-0-0/w ASTR(180)   r     1 DNT                        0-0-0/w STRC(73836)       1 EVALUATE
PL6.E3A0      #002=Z8DR$NEW_INDEX File=Z8DR.:Z8A6TSI                             SAT 08/09/97 11:29 Page:830
     0-0-0/w STRC(396)         1 FD                         0-0-0/w STRC(1692)        1 FILE_LTS
     0-0-0/w STRC(288)         1 ILS_LIST                   0-0-0/w STRC(108)         1 INDEXES
     0-0-0/w STRC(360)         1 INIT_LTS                   0-0-0/w STRC(288)         1 INSPECT_1_STMT
     0-0-0/w STRC(288)         1 INSPECT_2_STMT             0-0-0/w STRC(288)         1 INSPECT_4_STMT
     0-0-0/w STRC(396)         1 INTDEF                     0-0-0/w STRC(180)         1 IO_RESTORE_CHAIN
     0-0-0/w STRC(144)         1 KEY                        0-0-0/w STRC(396)         1 LABEL
     0-0-0/w STRC(288)         1 LA_ITEM                    0-0-0/w STRC(36864)       1 LCNST
     0-0-0/w STRC(72)          1 LONG                       0-0-0/w STRC              1 LTS
     0-0-0/w STRC(360)         1 LTSS                       0-0-0/w STRC(36936)       1 LTS_PTR_ARRAY
     0-0-0/w STRC(504)         1 LX_CD_INPUT                0-0-0/w STRC(324)         1 LX_CD_I_O
     0-0-0/w STRC(396)         1 LX_CD_OUTPUT               0-0-0/w STRC(288)         1 LX_ETT_ITEM
     0-0-0/w STRC(288)   r     1 LX_ITEM                    0-0-0/w STRC(288)         1 LX_LARGE
     0-0-0/w STRC(288)         1 LX_LIST                    0-0-0/w STRC(1224)        1 LX_REC_DECL
     0-0-0/w STRC(864)         1 LX_REPORT_REC              0-0-0/w STRC(288)   r     1 LX_TERMINAL
     0-0-0/w STRC(396)         1 MNEMONIC                   0-0-0/w STRC(288)         1 MULTIPLY_STMT
     0-0-0/w STRC(144)         1 NEL                        0-0-0/w STRC(216)         1 OPEN_LTS
     0-0-0/w STRC(36864)       1 PAGE                       0-0-0/w STRC(396)         1 PARA
     0-0-0/w STRC(144)         1 PRIME                      0-0-0/w STRC(396)   r     1 PROC_
     0-0-0/w STRC(396)         1 PROC_DEF                   0-0-0/w STRC(900)   r     1 PROC_SUPP
     0-0-0/w STRC(216)   r     1 QLT                        0-0-0/w STRC(396)         1 RD
     0-0-0/w STRC(288)         1 READ_STMT                  0-0-0/w STRC(216)         1 REF
     0-0-0/w STRC(108)         1 RENAMES                    0-0-0/w STRC(720)         1 REPORT_01_LTS
     0-0-0/w STRC(432)         1 REPORT_ELEM_LTS            0-0-0/w STRC(252)         1 REPORT_GRP_LTS
     0-0-0/w STRC(1332)        1 REPORT_LTS                 0-0-0/w STRC(288)         1 REWRITE_STMT
     0-0-0/w STRC(144)         1 RVA_LTS                    0-0-0/w STRC(396)   r     1 SCALAR
     0-0-0/w STRC(396)         1 SD                         0-0-0/w STRC(396)         1 SECTION
     0-0-0/w STRC(396)         1 SEGMENT                    0-0-0/w STRC(360)         1 SEGMENT_LTS
     0-0-0/w STRC(396)   r     1 ST                         0-0-0/w STRC(288)         1 START_STMT
     0-0-0/w STRC(252)         1 STRING_STMT                0-0-0/w STRC(288)         1 SUBTRACT_STMT
     0-0-0/w STRC(252)         1 SUM_LTS                    0-0-0/w STRC(396)         1 SWITCH
     0-0-0/w STRC(396)         1 SYMBOLIC_CHAR              0-0-0/w STRC(396)         1 SYMDEF_
     0-0-0/w STRC(396)         1 SYMREF_                    0-0-0/w STRC(396)         1 TEMP
     0-0-0/w STRC(288)         1 UNARY_OP                   0-0-0/w STRC(288)         1 UNSTRING_STMT
     0-0-0/d STRC(612)         1 USE                        0-0-0/w STRC(252)         1 USE_SUPP
     0-0-0/w STRC(396)         1 VARIABLE                   0-0-0/w STRC(288)         1 WRITE_STMT
     0-0-0/w STRC(72)    r     1 XREF

PL6.E3A0      #002=Z8DR$NEW_INDEX File=Z8DR.:Z8A6TSI                             SAT 08/09/97 11:29 Page:831

   Procedure Z8DR$NEW_INDEX requires 950 words for executable code.
   Procedure Z8DR$NEW_INDEX requires 26 words of local(AUTO) storage.

PL6.E3A0      #003=Z8DR$SET_RENAMED File=Z8DR.:Z8A6TSI                           SAT 08/09/97 11:31 Page:832
     4861        1        /*T***********************************************************/
     4862        2        /*T*                                                         */
     4863        3        /*T* Copyright (c) Bull HN Information Systems Inc., 1997    */
     4864        4        /*T*                                                         */
     4865        5        /*T***********************************************************/
     4866        6        /*================*/
     4867        7          Z8DR$SET_RENAMED : PROC (CURRENT_ST$, TERM_ST$) ALTRET;
     4868        8        /*================*/
     4869        9
     4870       10         /*P*
     4871       11
     4872       12             NAME : Z8DR$SET_RENAMED
     4873       13
     4874       14             PURPOSE : To set the ST.B.RENAMED bit in a given
     4875       15                       range of ST items.
     4876       16
     4877       17         */
     4878       18         /*D*
     4879       19
     4880       20             NAME : Z8DR$SET_RENAMED
     4881       21
     4882       22             CALL : CALL Z8DR$SET_RENAMED (STARTING_ST$, ENDING_ST$)
     4883       23                      WHENALTRETURN
     4884       24                        DO;
     4885       25                           / * Ok - do what needs to be done on return * /;
     4886       26                        END;
     4887       27
     4888       28             INTERFACE : Recursive -- Calls itself.
     4889       29
     4890       30             PARAMETERS : Current_st$ -- Ptr to ST whose bit must be set
     4891       31                                         and keys the search for its
     4892       32                                         son's and brother's.
     4893       33                          Term_st$ -- Ptr to ST to terminate search.
     4894       34
     4895       35             DESCRIPTION :
     4896       36                           First priority is to set the ST.B.RENAMED.
     4897       37                           Next is to check for the termination condition.
PL6.E3A0      #003=Z8DR$SET_RENAMED File=Z8DR.:Z8A6TSI                           SAT 08/09/97 11:31 Page:833
     4898       38                           If it is time to terminate, altreturn which
     4899       39                           triggers a domino effect of altreturns back
     4900       40                           to the original calling proc.  If not the
     4901       41                           termination condition then walk its sons while
     4902       42                           keeping in the back of your mind an altreturn is
     4903       43                           possible.  Upon a normal return from the son
     4904       44                           searching or never calling it, we do the same for
     4905       45                           its brothers.  Well tha-a-a-a-a-a-a-ts all folks.
     4906       46
     4907       47         */
     4908       48
     4909       49             %EQU PHASE = 1;
     4910       50
     4911       51             %INCLUDE Z8A_DEFC;
     4912      119             %INCLUDE Z8A_SUPP_MAC;
     4913     2519             %INCLUDE Z8A_COMCOM;
     4914     3169             %INCLUDE Z8A_ST;
     4915     6828             %INCLUDE Z8A_QLT;
     4916     6934
     4917     6935    1        DCL CURRENT_ST$   PTR; /* To st item */
     4918     6936    1        DCL TERM_ST$      PTR; /* To st item */
     4919     6937
     4920     6938
     4921     6939
     4922     6940             /* Procedure body */
     4923     6941
     4924     6942    1        CURRENT_ST$ -> VARIABLE.B.RENAMED = TRUE;
     4925     6943
     4926     6944    1        IF CURRENT_ST$ = TERM_ST$ THEN
     4927     6945               /* Termination condition met */
     4928     6946    1          ALTRETURN;
     4929     6947
     4930     6948    1        IF CURRENT_ST$ -> VARIABLE.QLT$ -> QLT.SON ~= ADDR(NIL) THEN
     4931     6949    1          CALL Z8DR$SET_RENAMED (CURRENT_ST$ -> VARIABLE.QLT$ ->
     4932     6950    1                                 QLT.SON -> QLT.ST$,
     4933     6951    1                                 TERM_ST$)
     4934     6952    1            WHENALTRETURN
PL6.E3A0      #003=Z8DR$SET_RENAMED File=Z8DR.:Z8A6TSI                           SAT 08/09/97 11:31 Page:834
     4935     6953    2              DO;
     4936     6954    2                ALTRETURN;
     4937     6955    2              END;
     4938     6956
     4939     6957    1        IF CURRENT_ST$ -> VARIABLE.QLT$ -> QLT.BROTHER ~= ADDR(NIL) THEN
     4940     6958    1          CALL Z8DR$SET_RENAMED (CURRENT_ST$ -> VARIABLE.QLT$ ->
     4941     6959    1                                 QLT.BROTHER -> QLT.ST$,
     4942     6960    1                                 TERM_ST$)
     4943     6961    1            WHENALTRETURN
     4944     6962    2              DO;
     4945     6963    2                ALTRETURN;
     4946     6964    2              END;
     4947     6965
     4948     6966    1        RETURN;
     4949     6967
     4950     6968    1   END Z8DR$SET_RENAMED;

PL6.E3A0      #003=Z8DR$SET_RENAMED File=Z8DR.:Z8A6TSI                           SAT 08/09/97 11:31 Page:835
--  Include file information  --

   Z8A_QLT.:Z8A6TOU  cannot be made into a system file and is referenced.
   Z8A_ST.:Z8A6TOU  cannot be made into a system file and is referenced.
   Z8A_COMCOM.:Z8A6TOU  cannot be made into a system file and is referenced.
   X8A_COM_MACS.:X8A6TOU  is referenced.
   Z8A_NAMES.:Z8A6TOU  is referenced.
   Z8A_SUPP_MAC.:Z8A6TOU  is referenced.
   Z8A_DEFC.:Z8A6TOU  cannot be made into a system file and is referenced.
      No diagnostics issued in procedure Z8DR$SET_RENAMED.

   Procedure Z8DR$SET_RENAMED requires 45 words for executable code.
   Procedure Z8DR$SET_RENAMED requires 8 words of local(AUTO) storage.

    No errors detected in file Z8DR.:Z8A6TSI    .

PL6.E3A0      #003=Z8DR$SET_RENAMED File=Z8DR.:Z8A6TSI                           SAT 08/09/97 11:31 Page:836

 Object Unit name= Z8DR$SET_RENAMED                           File name= Z8DR.:Z8A6TOU
 UTS= AUG 09 '97 11:31:58.68 SAT                              Compiler= PL-6/E31         Sev=      00
 SharedLib= :SHARED_SYSTEM                                    Alt SharedLib=


    ****  Control sections  ****

 Sect   Type Bound  Init  Size OctSiz  Section name(segment info)
    0  LblCom even  none     1      1  ITERATION
    1  LblCom even  none     1      1  ST$
    2  LblCom even  none     5      5  ST_
    3  LblCom even  none     1      1  QLT$
    4  LblCom even  none     1      1  PREV_01_QLT$
    5  LblCom even  none     5      5  QLT_
    6   Proc  even  none    45     55  Z8DR$SET_RENAMED
    7  RoData even  none     2      2  Z8DR$SET_RENAMED

    ****  Entry defs  ****

                              Check   Calling
                             calling  sequence
  Sect OctLoc Primary Altret sequence   type   Parms  Name
     6      0   yes    yes     yes      Std        2  Z8DR$SET_RENAMED

  ****  Entry refs  ****

         Check        Calling
        calling       sequence
Altret sequence SRef   type   Args  Name
                       nStd      0 X66_AUTO_2
                       nStd      0 X66_AALT
                       nStd      0 X66_ARET
PL6.E3A0      #003=Z8DR$SET_RENAMED File=Z8DR.:Z8A6TSI                           SAT 08/09/97 11:31 Page:837

  ****  Data refs  ****

  Flags:  r = read only, s = secondary
Flgs Name                             Flgs Name                             Flgs Name
     COMCOM

  ****  Segment refs  ****

  Flags:  r = read only, s = secondary
Flgs Name                             Flgs Name                             Flgs Name
     NULLSID
PL6.E3A0      #003=Z8DR$SET_RENAMED File=Z8DR.:Z8A6TSI                           SAT 08/09/97 11:31 Page:838


     4861        1        /*T***********************************************************/
     4862        2        /*T*                                                         */
     4863        3        /*T* Copyright (c) Bull HN Information Systems Inc., 1997    */
     4864        4        /*T*                                                         */
     4865        5        /*T***********************************************************/
     4866        6        /*================*/
     4867        7          Z8DR$SET_RENAMED : PROC (CURRENT_ST$, TERM_ST$) ALTRET;

      7  6 000000   000000 700200 xent  Z8DR$SET_RE* TSX0  ! X66_AUTO_2
         6 000001   000010 000002                    ZERO    8,2

     4868        8        /*================*/
     4869        9
     4870       10         /*P*
     4871       11
     4872       12             NAME : Z8DR$SET_RENAMED
     4873       13
     4874       14             PURPOSE : To set the ST.B.RENAMED bit in a given
     4875       15                       range of ST items.
     4876       16
     4877       17         */
     4878       18         /*D*
     4879       19
     4880       20             NAME : Z8DR$SET_RENAMED
     4881       21
     4882       22             CALL : CALL Z8DR$SET_RENAMED (STARTING_ST$, ENDING_ST$)
     4883       23                      WHENALTRETURN
     4884       24                        DO;
     4885       25                           / * Ok - do what needs to be done on return * /;
     4886       26                        END;
     4887       27
     4888       28             INTERFACE : Recursive -- Calls itself.
     4889       29
     4890       30             PARAMETERS : Current_st$ -- Ptr to ST whose bit must be set
     4891       31                                         and keys the search for its
     4892       32                                         son's and brother's.
PL6.E3A0      #003=Z8DR$SET_RENAMED File=Z8DR.:Z8A6TSI                           SAT 08/09/97 11:31 Page:839
     4893       33                          Term_st$ -- Ptr to ST to terminate search.
     4894       34
     4895       35             DESCRIPTION :
     4896       36                           First priority is to set the ST.B.RENAMED.
     4897       37                           Next is to check for the termination condition.
     4898       38                           If it is time to terminate, altreturn which
     4899       39                           triggers a domino effect of altreturns back
     4900       40                           to the original calling proc.  If not the
     4901       41                           termination condition then walk its sons while
     4902       42                           keeping in the back of your mind an altreturn is
     4903       43                           possible.  Upon a normal return from the son
     4904       44                           searching or never calling it, we do the same for
     4905       45                           its brothers.  Well tha-a-a-a-a-a-a-ts all folks.
     4906       46
     4907       47         */
     4908       48
     4909       49             %EQU PHASE = 1;
     4910       50
     4911       51             %INCLUDE Z8A_DEFC;
     4912      119             %INCLUDE Z8A_SUPP_MAC;
     4913     2519             %INCLUDE Z8A_COMCOM;
     4914     3169             %INCLUDE Z8A_ST;
     4915     6828             %INCLUDE Z8A_QLT;
     4916     6934
     4917     6935    1        DCL CURRENT_ST$   PTR; /* To st item */
     4918     6936    1        DCL TERM_ST$      PTR; /* To st item */
     4919     6937
     4920     6938
     4921     6939
     4922     6940             /* Procedure body */
     4923     6941
     4924     6942    1        CURRENT_ST$ -> VARIABLE.B.RENAMED = TRUE;

   6942  6 000002   200003 470500                    LDP0    @CURRENT_ST$,,AUTO
         6 000003   000000 471500                    LDP1    0,,PR0
         6 000004   400000 236007                    LDQ     -131072,DL
         6 000005   100003 256100                    ORSQ    3,,PR1
PL6.E3A0      #003=Z8DR$SET_RENAMED File=Z8DR.:Z8A6TSI                           SAT 08/09/97 11:31 Page:840

     4925     6943
     4926     6944    1        IF CURRENT_ST$ = TERM_ST$ THEN

   6944  6 000006   200004 471500                    LDP1    @TERM_ST$,,AUTO
         6 000007   000000 236100                    LDQ     0,,PR0
         6 000010   100000 116100                    CMPQ    0,,PR1
         6 000011   000013 601000 6                  TNZ     s:6948

     4927     6945               /* Termination condition met */
     4928     6946    1          ALTRETURN;

   6946  6 000012   000000 702200 xent               TSX2  ! X66_AALT

     4929     6947
     4930     6948    1        IF CURRENT_ST$ -> VARIABLE.QLT$ -> QLT.SON ~= ADDR(NIL) THEN

   6948  6 000013   000000 473500                    LDP3    0,,PR0
         6 000014   300007 474500                    LDP4    7,,PR3
         6 000015   400003 236100                    LDQ     3,,PR4
         6 000016   000000 116000 7                  CMPQ    0
         6 000017   000033 600000 6                  TZE     s:6957

     4931     6949    1          CALL Z8DR$SET_RENAMED (CURRENT_ST$ -> VARIABLE.QLT$ ->

   6949  6 000020   400003 475500                    LDP5    3,,PR4
         6 000021   200004 236100                    LDQ     @TERM_ST$,,AUTO
         6 000022   200007 756100                    STQ     @TERM_ST$+3,,AUTO
         6 000023   500004 633500                    EPPR3   4,,PR5
         6 000024   200006 453500                    STP3    @TERM_ST$+2,,AUTO
         6 000025   200006 630500                    EPPR0   @TERM_ST$+2,,AUTO
         6 000026   000001 631400 7                  EPPR1   1
         6 000027   000000 701000 6                  TSX1    s:7
         6 000030   000032 702000 6                  TSX2    s:6954
         6 000031   000033 710000 6                  TRA     s:6957

     4932     6950    1                                 QLT.SON -> QLT.ST$,
PL6.E3A0      #003=Z8DR$SET_RENAMED File=Z8DR.:Z8A6TSI                           SAT 08/09/97 11:31 Page:841
     4933     6951    1                                 TERM_ST$)
     4934     6952    1            WHENALTRETURN
     4935     6953    2              DO;

     4936     6954    2                ALTRETURN;

   6954  6 000032   000000 702200 xent               TSX2  ! X66_AALT

     4937     6955    2              END;
     4938     6956
     4939     6957    1        IF CURRENT_ST$ -> VARIABLE.QLT$ -> QLT.BROTHER ~= ADDR(NIL) THEN

   6957  6 000033   200003 470500                    LDP0    @CURRENT_ST$,,AUTO
         6 000034   000000 471500                    LDP1    0,,PR0
         6 000035   100007 473500                    LDP3    7,,PR1
         6 000036   300002 236100                    LDQ     2,,PR3
         6 000037   000000 116000 7                  CMPQ    0
         6 000040   000054 600000 6                  TZE     s:6966

     4940     6958    1          CALL Z8DR$SET_RENAMED (CURRENT_ST$ -> VARIABLE.QLT$ ->

   6958  6 000041   300002 474500                    LDP4    2,,PR3
         6 000042   200004 236100                    LDQ     @TERM_ST$,,AUTO
         6 000043   200007 756100                    STQ     @TERM_ST$+3,,AUTO
         6 000044   400004 631500                    EPPR1   4,,PR4
         6 000045   200006 451500                    STP1    @TERM_ST$+2,,AUTO
         6 000046   200006 630500                    EPPR0   @TERM_ST$+2,,AUTO
         6 000047   000001 631400 7                  EPPR1   1
         6 000050   000000 701000 6                  TSX1    s:7
         6 000051   000053 702000 6                  TSX2    s:6963
         6 000052   000054 710000 6                  TRA     s:6966

     4941     6959    1                                 QLT.BROTHER -> QLT.ST$,
     4942     6960    1                                 TERM_ST$)
     4943     6961    1            WHENALTRETURN
     4944     6962    2              DO;

PL6.E3A0      #003=Z8DR$SET_RENAMED File=Z8DR.:Z8A6TSI                           SAT 08/09/97 11:31 Page:842
     4945     6963    2                ALTRETURN;

   6963  6 000053   000000 702200 xent               TSX2  ! X66_AALT

     4946     6964    2              END;
     4947     6965
     4948     6966    1        RETURN;

   6966  6 000054   000000 702200 xent               TSX2  ! X66_ARET
     4949     6967
     4950     6968    1   END Z8DR$SET_RENAMED;

PL6.E3A0      #003=Z8DR$SET_RENAMED File=Z8DR.:Z8A6TSI                           SAT 08/09/97 11:31 Page:843
--  Include file information  --

   Z8A_QLT.:Z8A6TOU  cannot be made into a system file and is referenced.
   Z8A_ST.:Z8A6TOU  cannot be made into a system file and is referenced.
   Z8A_COMCOM.:Z8A6TOU  cannot be made into a system file and is referenced.
   X8A_COM_MACS.:X8A6TOU  is referenced.
   Z8A_NAMES.:Z8A6TOU  is referenced.
   Z8A_SUPP_MAC.:Z8A6TOU  is referenced.
   Z8A_DEFC.:Z8A6TOU  cannot be made into a system file and is referenced.
      No diagnostics issued in procedure Z8DR$SET_RENAMED.
PL6.E3A0      #003=Z8DR$SET_RENAMED File=Z8DR.:Z8A6TSI                           SAT 08/09/97 11:31 Page:844

 **** Variables and constants ****

  ****  Section 000 LblCom ITERATION

  ****  Scalars and arrays  ****
OctLoc.c.b A Datatyp(siz) R M Lvl/name                 OctLoc.c.b A Datatyp(siz) R M Lvl/name

     0-0-0/w SBIN              1 ITERATION

  ****  Section 001 LblCom ST$

  ****  Scalars and arrays  ****
OctLoc.c.b A Datatyp(siz) R M Lvl/name                 OctLoc.c.b A Datatyp(siz) R M Lvl/name

     0-0-0/w PTR         r     1 ST$

  ****  Section 002 LblCom ST_

  ****  Scalars and arrays  ****
OctLoc.c.b A Datatyp(siz) R M Lvl/name                 OctLoc.c.b A Datatyp(siz) R M Lvl/name

     0-0-0/w STRC(180)         1 ST_

  ****  Section 003 LblCom QLT$

  ****  Scalars and arrays  ****
OctLoc.c.b A Datatyp(siz) R M Lvl/name                 OctLoc.c.b A Datatyp(siz) R M Lvl/name

     0-0-0/w PTR         r     1 QLT$

  ****  Section 004 LblCom PREV_01_QLT$

  ****  Scalars and arrays  ****
OctLoc.c.b A Datatyp(siz) R M Lvl/name                 OctLoc.c.b A Datatyp(siz) R M Lvl/name

     0-0-0/w PTR               1 PREV_01_QLT$

PL6.E3A0      #003=Z8DR$SET_RENAMED File=Z8DR.:Z8A6TSI                           SAT 08/09/97 11:31 Page:845
  ****  Section 005 LblCom QLT_

  ****  Scalars and arrays  ****
OctLoc.c.b A Datatyp(siz) R M Lvl/name                 OctLoc.c.b A Datatyp(siz) R M Lvl/name

     0-0-0/w STRC(180)         1 QLT_

  ****  Auto variables  ****

  ****  Scalars and arrays  ****
OctLoc.c.b A Datatyp(siz) R M Lvl/name                 OctLoc.c.b A Datatyp(siz) R M Lvl/name

     3-0-0/w PTR         r     1 @CURRENT_ST$               4-0-0/w PTR         r     1 @TERM_ST$
    *0-0-0/w PTR         r     1 CURRENT_ST$               *0-0-0/w PTR         r     1 TERM_ST$

  ****  SYMREF variables  ****

  ****  Scalars and arrays  ****
OctLoc.c.b A Datatyp(siz) R M Lvl/name                 OctLoc.c.b A Datatyp(siz) R M Lvl/name

     0-0-0/d STRC(13248)       1 COMCOM

  ****  BASED and DCB variables  ****

  ****  Scalars and arrays  ****
OctLoc.c.b A Datatyp(siz) R M Lvl/name                 OctLoc.c.b A Datatyp(siz) R M Lvl/name

     0-0-0/w STRC(396)         1 ALPHABET                   0-0-0/w STRC(396)         1 ARRAY
     0-0-0/w STRC(396)         1 BLOCK                      0-0-0/w STRC(396)         1 CD
     0-0-0/w CHAR(4096)        1 CHARS                      0-0-0/w STRC(396)         1 CLASS
     0-0-0/w STRC(396)         1 CONDITION                  0-0-0/w STRC(396)         1 CONST
     0-0-0/w STRC(72)          1 CONT                       0-0-0/w STRC(396)         1 DB
     0-0-0/w STRC(396)         1 DCB_                       0-0-0/w STRC(396)         1 DML_ITEM
     0-0-0/w STRC(396)         1 FD                         0-0-0/w STRC(396)         1 INTDEF
     0-0-0/w STRC(396)         1 LABEL                      0-0-0/w STRC(396)         1 MNEMONIC
     0-0-0/w STRC(36864)       1 PAGE                       0-0-0/w STRC(396)         1 PARA
     0-0-0/w STRC(396)         1 PROC_                      0-0-0/w STRC(396)         1 PROC_DEF
PL6.E3A0      #003=Z8DR$SET_RENAMED File=Z8DR.:Z8A6TSI                           SAT 08/09/97 11:31 Page:846
     0-0-0/w STRC(216)   r     1 QLT                        0-0-0/w STRC(396)         1 RD
     0-0-0/w STRC(396)         1 SCALAR                     0-0-0/w STRC(396)         1 SD
     0-0-0/w STRC(396)         1 SECTION                    0-0-0/w STRC(396)         1 SEGMENT
     0-0-0/w STRC(396)         1 ST                         0-0-0/w STRC(396)         1 SWITCH
     0-0-0/w STRC(396)         1 SYMBOLIC_CHAR              0-0-0/w STRC(396)         1 SYMDEF_
     0-0-0/w STRC(396)         1 SYMREF_                    0-0-0/w STRC(396)         1 TEMP
     0-0-0/w STRC(396)   r     1 VARIABLE


   Procedure Z8DR$SET_RENAMED requires 45 words for executable code.
   Procedure Z8DR$SET_RENAMED requires 8 words of local(AUTO) storage.

    No errors detected in file Z8DR.:Z8A6TSI    .
