PL6.E3A0      #001=Z8DR$RECORD_DECL File=Z8DR.:Z8A6TSI                           SAT 08/09/97 11:18 Page:1
        1        1        /*M* Z8DR -- Data division record declaration processing */
        2        2        /*T***********************************************************/
        3        3        /*T*                                                         */
        4        4        /*T* Copyright (c) Bull HN Information Systems Inc., 1997    */
        5        5        /*T*                                                         */
        6        6        /*T***********************************************************/
        7        7        /*================*/
        8        8          Z8DR$RECORD_DECL: PROC (CURRENT_DECL$, NEXT_DECL$) NOAUTO;
        9        9        /*================*/
       10       10
       11       11        /*P*
       12       12
       13       13          NAME:  Z8DR$RECORD_DECL
       14       14
       15       15          PURPOSE:
       16       16                 To process record declarations in the data div concerning
       17       17                 the (1) WORKING-STORAGE
       18       18                     (2) FILE
       19       19                     (3) LINKAGE
       20       20                     (3) CONSTANT
       21       21                     (5) COMMUNICATION
       22       22                 sections.
       23       23
       24       24        */
       25       25
       26       26        /*D*
       27       27
       28       28          NAME:  Z8DR$RECORD_DECL
       29       29
       30       30          PURPOSE:
       31       31                 To process the record declarations in the data div.
       32       32
       33       33          ENTRY:
       34       34                 Z8DR$RECORD_DECL - The main entry point - 2 parameters in/out
       35       35
       36       36          CALL:
       37       37                 CALL Z8DR$RECORD_DECL (CURRENT_DECLARATION$, NEXT_DECLARATION$);
PL6.E3A0      #001=Z8DR$RECORD_DECL File=Z8DR.:Z8A6TSI                           SAT 08/09/97 11:18 Page:2
       38       38
       39       39          PARAMETERS:
       40       40                 CURRENT_DECL$ -- Points to LX_REC_DECL for the current
       41       41                                  record declaration.
       42       42
       43       43                 NEXT_DECL$ -- Points to LX_REC_DECL for the next record
       44       44                               declaration.
       45       45
       46       46          INTERFACE:
       47       47                 Z8DO$LINK_WITH_LTS
       48       48                 Z8DU$BUILD_INITIAL_ITEM
       49       49                 Z8EU$DELETE_LIST_ITEM
       50       50                 Z8DR$NEW_INDEX
       51       51                 Z8EC$NEW_CONST_WITH_TYPE_DESC
       52       52                 Z8EC$CREATE_CONST
       53       53                 Z8AF$FORME
       54       54                 Z8AC$MAKE_CONST
       55       55                 Z8AE$ERROR
       56       56                 Z8AU$TYPE_DESCRIPTOR
       57       57                 Z8AU$CREATE_NUM_DESC
       58       58                 Z8ED$DISPOSE_ABSSYN_TREE
       59       59                 Z8DP$VALIDATE_PIC
       60       60
       61       61          ENVIRONMENT:
       62       62                 Called from Z8EM$SEMANTICS passing two pointers.  The two pointers
       63       63                 are to LX_REC_DECL items for the current and next decl.  It is ass-
       64       64                 umed that Z8EM will free the lx_rec_decl's.  We may free particular
       65       65                 fields at will.  This routine process everything that can appear
       66       66                 in a record declaration with the exception of the REPORT SECTION.
       67       67
       68       68
       69       69          DATA:
       70       70                 O1COM.HIER_STK -- This is a 50 word array stack.  This contains the
       71       71                                   declaration stack, in other words the last 01..49
       72       72                                   that appeared in the source program.  This is popped
       73       73                                   and pushed when a new decl is processed.  Ex.
       74       74
PL6.E3A0      #001=Z8DR$RECORD_DECL File=Z8DR.:Z8A6TSI                           SAT 08/09/97 11:18 Page:3
       75       75                                      01 a pic 999.  ==The stacks contains info about
       76       76                                                       a in location 1.==
       77       77                                      01 b.          ==The stack contains info about b
       78       78                                                       in location 1 (a info blasted!).
       79       79
       80       80                 O1COM.HIER_STK_PTR -- SBIN guy that is the current pointer into the stack.
       81       81
       82       82                 O1COM.LEVEL_NO -- SBIN guy that contains the source text of the current
       83       83                                   level no.  Ex.
       84       84
       85       85                                              77 a pic 999. ==O1COM.LEVEL_NO is 77,
       86       86                                                              the stack level is 01.  It is
       87       87                                                              at the ordinal level of 1, so
       88       88                                                              that is the stack location for
       89       89                                                              the info about a.
       90       90
       91       91                 Various others not significant.
       92       92                 REDUCED_DATA -- Local in this routine.  This is reinitialized each time.
       93       93                                 This is the "reduced data about a data item".  All the
       94       94                                 picture clauses and usage clauses mean internal types.
       95       95                                 This is the reduced data of a usage clause.  This is
       96       96                                 what this structure contains, the likes of that stuff.
       97       97
       98       98          INPUT:
       99       99                 The parameters and the previous level number contained in O1COM.LEVEL_NO.
      100      100
      101      101          OUTPUT:
      102      102               ST, QLT, [LTS].  This creates the symbol table items, qlt items and sometimes
      103      103             LTS items.  This links all the items it creates together in the proper fashion.
      104      104              If any info is deferred it is deferred through abstract syntax trees.  Usually
      105      105                 if an item is deferred it is processed in Z8DQ.
      106      106
      107      107          SCRATCH:
      108      108                 None
      109      109
      110      110          DESCRIPTION:
      111      111                 This procedure process everything you would ever want to know about record
PL6.E3A0      #001=Z8DR$RECORD_DECL File=Z8DR.:Z8A6TSI                           SAT 08/09/97 11:18 Page:4
      112      112                 declarations.  It is grouped in 2 major declarations.  The 2 declarations
      113      113                 are 88's and all else.  88's are separate because they are like no other.
      114      114                 They can have only a value clause, so why put them through all the code
      115      115                 for checks of other clauses.  Also they are sort of prepassed.  Here's
      116      116                 why....
      117      117
      118      118                    01 A PIC 999.
      119      119                      88 A-COND-1 VALUE "122".
      120      120                      88 A-COND-2 VALUE "222".
      121      121
      122      122                   at the processing of A you don't know if A is elementary or not.  So what
      123      123                  we do is pool A and A-COND-1 and A-COND-2 until the next "real" decl comes
      124      124                    along.  Such as...
      125      125
      126      126                      02 B PIC 999.
      127      127
      128      128                        In this case A is invalid because it is a group item and has a
      129      129                        picture clause.  Upon encountering B we first process the record
      130      130                        A with B as its next item not A-COND-1.  What I mean is
      131      131
      132      132                          like this ==> 01 A PIC 999.
      133      133                                          02 B PIC 999.
      134      134
      135      135                        this then allows us to flag A.  When we return from that then
      136      136                        we process the 88's.
      137      137
      138      138             This routine creates all the internal table entries for any record declarations
      139      139                 in a COBOL85 program.  This flags all the errors concerning these entries
      140      140                 with the exception of duplicate clauses and "pure syntax" errors.  This is
      141      141                 very complicated because of the # of combinations of clauses.
      142      142
      143      143        */
      144      144
      145      145        %EQU PHASE = 1;
      146      146        %EQU LEVEL_02 = 2;
      147      147
      148      148        %INCLUDE Z8A_DEFC;
PL6.E3A0      #001=Z8DR$RECORD_DECL File=Z8DR.:Z8A6TSI                           SAT 08/09/97 11:18 Page:5
      149      216        %INCLUDE Z8A_SUPP_MAC;
      150     2616        %INCLUDE Z8A_COMCOM;
      151     3266        %INCLUDE Z8A_ST;
      152     6925        %INCLUDE Z8A_QLT;
      153     7031        %INCLUDE Z8A_LTS;
      154     9108        %INCLUDE Z8A_TYPES;
      155     9282        %INCLUDE Z8A_DNT;
      156     9503        %INCLUDE Z8A_ERR_NUMS;
      157    10267        %INCLUDE Z8A_ILL;
      158    10960        %INCLUDE Z8A_ETT;
      159    11261        %INCLUDE Z8A_XREF;
      160    11333        %INCLUDE Z8A_MKCN;
      161    11350
      162    11351        %INCLUDE Z8E_STACKS;
      163    13617        %INCLUDE Z8E_WINDOW;
      164    15687        %INCLUDE Z8E_O1COM;
      165    16448        %INCLUDE Z8D_REC_DECL;
      166    16893        %INCLUDE Z8E_MACROS;
      167    17568        %INCLUDE Z8D_PIC_PARM;
      168    17674        %INCLUDE Z8E_HEAP;
      169    17730        %INCLUDE Z8E_ABSSYN;
      170    17936        %INCLUDE Z8E_STATEMNT;
      171    18005        %INCLUDE Z8E_DML;
      172    18125
      173    18126        %PIC_IN;
      174    18139        %PIC_STR (LEN = 80, STCLASS = AUTO);
      175    18143        %PIC_OUT (STCLASS = EXT);
      176    18216        %GROUP_DECL;
      177    18226
      178    18227    1   DCL Z8DO$LINK_WITH_LTS        ENTRY (2);
      179    18228    1   DCL Z8DU$BUILD_INITIAL_ITEM   ENTRY (2);
      180    18229    1   DCL Z8EU$DELETE_LIST_ITEM     ENTRY (2);
      181    18230    1   DCL Z8DR$NEW_INDEX            ENTRY (5);
      182    18231    1   DCL Z8DR$SET_RENAMED          ENTRY (2) ALTRET;
      183    18232    1   DCL Z8EC$NEW_CONST_WITH_TYPE_DESC    ENTRY (3) ALTRET;
      184    18233    1   DCL Z8EC$CREATE_CONST                ENTRY (3) ALTRET;
      185    18234    1   DCL Z8AF$FORME                ENTRY (4);
PL6.E3A0      #001=Z8DR$RECORD_DECL File=Z8DR.:Z8A6TSI                           SAT 08/09/97 11:18 Page:6
      186    18235    1   DCL Z8AC$MAKE_CONST           ENTRY (1);
      187    18236    1   DCL Z8AE$ERROR                ENTRY (12);
      188    18237
      189    18238    1   DCL Z8AU$TYPE_DESCRIPTOR             ENTRY (2);
      190    18239    1   DCL Z8AU$CREATE_NUM_DESC             ENTRY (3);
      191    18240    1   DCL Z8ED$DISPOSE_ABSSYN_TREE         ENTRY (1);
      192    18241    1   DCL Z8DP$VALIDATE_PIC                ENTRY (3) ALTRET;
      193    18242
      194    18243    1   DCL DNT$_FROM_RSWNO                  (0:0) PTR SYMREF READONLY;
      195    18244
      196    18245    1   DCL CDECL$                           PTR;
      197    18246    1   DCL NDECL$                           PTR;
      198    18247    1   DCL CURRENT_DECL$                    PTR;
      199    18248    1   DCL NEXT_DECL$                       PTR;
      200    18249    1   DCL 1 REDUCED_DATA            ALIGNED,
      201    18250             %REDUCED_DATA_INFO       /*(@LVL = 2)*/;
      202    18333    1   DCL BRO$                      PTR;
      203    18334
      204    18335
      205    18336        %EJECT;
PL6.E3A0      #001=Z8DR$RECORD_DECL File=Z8DR.:Z8A6TSI                           SAT 08/09/97 11:18 Page:7
      206    18337
      207    18338        /* Main Body */
      208    18339
      209    18340        %EJECT;
PL6.E3A0      #001=Z8DR$RECORD_DECL File=Z8DR.:Z8A6TSI                           SAT 08/09/97 11:18 Page:8
      210    18341
      211    18342        /*===================*/
      212    18343    1     CHECK_FOR_CONDITION: PROC  ALTRET;
      213    18344        /*===================*/
      214    18345
      215    18346        /*I*
      216    18347
      217    18348          NAME:  CHECK_FOR_CONDITION
      218    18349
      219    18350          PURPOSE:
      220    18351                 To check for 88's (condition names).  If they are here pool them, if
      221    18352                 not return.
      222    18353
      223    18354          CALL:
      224    18355                 CALL CHECK_FOR_CONDITION;  == Global CDECL$ and NDECL$
      225    18356
      226    18357
      227    18358          DESCRIPTION:
      228    18359                 This checks for 88's.   If the first item is an 88 it must be at the top
      229    18360                 of the program.  This is so because we check for the next on being 88's
      230    18361                 and we would have caught it earlier.  If the first item is 88 delete it
      231    18362                 and flag it, she's no good.  We also check for the next item being 88.
      232    18363                 This check is for when a level besides 88 is followed by an 88.  If this
      233    18364                 is the case we start the pooling of 88's as well as the preceding decl.
      234    18365                 We do this because we don't know if the preceding decl is elementary or
      235    18366                 non-elementary which is crucial to our processing.  The pooling is pointed
      236    18367                 to be O1COM.LEVEL_88_LIST$ (Non nil means something in it).  If there
      237    18368                 is already something in the 88 list then 2 possibilities exist. 1st is
      238    18369                 this item is also an 88, simply add it to the pool.  2nd possibility is
      239    18370                 this item is not an 88, simply process it with the regular(non 88) decl
      240    18371                 we saved away using the saved one as the current and this one as the next.
      241    18372                 Then process the 88 list.  That's all there is to it.  Basically 3 cases.
      242    18373
      243    18374                    Scenario 1:  88 first in program, flag and delete it.
      244    18375
      245    18376                    Scenario 2:  0n followed by 88.  Pool both and altreturn (exit Z8DR).
      246    18377
PL6.E3A0      #001=Z8DR$RECORD_DECL File=Z8DR.:Z8A6TSI                           SAT 08/09/97 11:18 Page:9
      247    18378                    Scenario 3:  A.) Current 88, Next 88 - pool both
      248    18379                                 B.) Current 88, Next 0n - Process saved decl then all 88's.
      249    18380
      250    18381
      251    18382        */
      252    18383
      253    18384    2   DCL NEXT#                     SBIN WORD;
      254    18385    2   DCL CURRENT#                  SBIN WORD;
      255    18386    2   DCL LEVEL$                    PTR;
      256    18387    2   DCL LARGE$                    PTR;
      257    18388
      258    18389    2      IF NDECL$ = ADDR(NIL) THEN
      259    18390    2        NEXT# = %LEVEL_01;
      260    18391    3      ELSE DO;
      261    18392    3        CALL CHARBIN (NEXT#,
      262    18393    3                      NDECL$ -> LX_REC_DECL.P.LEVEL_NO$ ->
      263    18394    3                      LX_ITEM.DNT$ -> DNT.TEXT.NAME);
      264    18395    3        IF NEXT# = %LEVEL_88 AND COMCOM.OB.FIPS.LEVEL >= %INT_LEV THEN
      265    18396    3          CALL Z8AE$ERROR (%E$LEVEL_CHECK,
      266    18397    3                           NDECL$ -> LX_REC_DECL.P.LEVEL_NO$ -> LX_TERMINAL.LINE,
      267    18398    3                           NDECL$ -> LX_REC_DECL.P.LEVEL_NO$ -> LX_TERMINAL.COLUMN);
      268    18399    3        END;
      269    18400
      270    18401    2      CALL CHARBIN (CURRENT#,
      271    18402    2                    CDECL$ -> LX_REC_DECL.P.LEVEL_NO$ ->
      272    18403    2                    LX_ITEM.DNT$ -> DNT.TEXT.NAME);
      273    18404
      274    18405    2      IF O1COM.LEVEL_88_LIST$ ~= ADDR(NIL) THEN
      275    18406    2        IF CURRENT# = %LEVEL_88 THEN
      276    18407    3          DO;
      277    18408    3            CALL ADD_TO_88_LIST (O1COM.LEVEL_88_LIST$);
      278    18409
      279    18410    3            IF NDECL$ = ADDR(NIL) THEN
      280    18411    4              DO;
      281    18412    4                CALL DATA_DECLARATION (O1COM.LEVEL_88_LIST$ -> LX_LIST.HEAD$ ->
      282    18413    4                                            LX_LARGE.LARGE_ITEM$,
      283    18414    4                                            ADDR(NIL));
PL6.E3A0      #001=Z8DR$RECORD_DECL File=Z8DR.:Z8A6TSI                           SAT 08/09/97 11:18 Page:10
      284    18415    4                IF HIER_STK_PTR = %LEVEL_01 THEN
      285    18416    4                  CALL LINK_LEVEL_01_WITH_QLT;
      286    18417
      287    18418    4                CALL PROCESS_88_LIST (O1COM.LEVEL_88_LIST$);
      288    18419    4                CALL Z8ED$DISPOSE_ABSSYN_TREE (O1COM.LEVEL_88_LIST$);
      289    18420    4              END;
      290    18421
      291    18422    3            ALTRETURN;
      292    18423    3          END;
      293    18424    2        ELSE
      294    18425    3          DO;
      295    18426    3            CALL DATA_DECLARATION (O1COM.LEVEL_88_LIST$ -> LX_LIST.HEAD$ ->
      296    18427    3                                        LX_LARGE.LARGE_ITEM$,
      297    18428    3                                   CDECL$);
      298    18429
      299    18430    3            IF HIER_STK_PTR = %LEVEL_01 THEN
      300    18431    3              CALL LINK_LEVEL_01_WITH_QLT;
      301    18432
      302    18433    3            CALL PROCESS_88_LIST (O1COM.LEVEL_88_LIST$);
      303    18434    3            CALL Z8ED$DISPOSE_ABSSYN_TREE (O1COM.LEVEL_88_LIST$);
      304    18435
      305    18436    3            IF NEXT# = %LEVEL_88 THEN
      306    18437    4              DO;
      307    18438    4                CALL START_88_LIST (O1COM.LEVEL_88_LIST$);
      308    18439    4                ALTRETURN;
      309    18440    4              END;
      310    18441    3            ELSE
      311    18442    3              RETURN;
      312    18443    3          END;
      313    18444    2      ELSE
      314    18445    2        IF CURRENT# = %LEVEL_88 THEN
      315    18446    3          DO;
      316    18447    3            LEVEL$ = CDECL$ -> LX_REC_DECL.P.LEVEL_NO$;
      317    18448                 %CONDITIONAL_ERROR (@LX_ITEM$ = LEVEL$,
      318    18449                                     @ERROR#   = %E$LEVEL_1_OR_77_AT_TOP,
      319    18450                                     @LINE     = LEVEL$ -> LX_ITEM.LINE,
      320    18451                                     @COLUMN   = LEVEL$ -> LX_ITEM.COLUMN);
PL6.E3A0      #001=Z8DR$RECORD_DECL File=Z8DR.:Z8A6TSI                           SAT 08/09/97 11:18 Page:11
      321    18481    3            ALTRETURN;
      322    18482    3          END;
      323    18483    2        ELSE
      324    18484    2          IF NEXT# = %LEVEL_88 THEN
      325    18485    3            DO;
      326    18486    3              CALL START_88_LIST (O1COM.LEVEL_88_LIST$);
      327    18487    3              ALTRETURN;
      328    18488    3            END;
      329    18489
      330    18490    2      RETURN;
      331    18491
      332    18492    2   END CHECK_FOR_CONDITION;
      333    18493        %EJECT;
PL6.E3A0      #001=Z8DR$RECORD_DECL File=Z8DR.:Z8A6TSI                           SAT 08/09/97 11:18 Page:12
      334    18494        /*=============*/
      335    18495    1     START_88_LIST: PROC (LEVEL_88_LIST$);
      336    18496        /*=============*/
      337    18497
      338    18498    2   DCL LEVEL_88_LIST$            PTR;
      339    18499
      340    18500    2   DCL LARGE$                    PTR;
      341    18501
      342    18502             %NEW (@POINTER = LEVEL_88_LIST$,
      343    18503                   @TEMPLATE = LX_LIST);
      344    18513
      345    18514             %INIT_LX_LIST (@POINTER = LEVEL_88_LIST$);
      346    18524
      347    18525             %NEW (@POINTER   = LARGE$,
      348    18526                   @TEMPLATE  = LX_LARGE);
      349    18536
      350    18537             %INIT_LX_LARGE (@POINTER = LARGE$);
      351    18544
      352    18545    2        LARGE$ -> LX_LARGE.LARGE_ITEM$ = CDECL$;
      353    18546
      354    18547             %ADD_LX_ITEM_TO_LIST_TAIL (@LIST$ = LEVEL_88_LIST$,
      355    18548                                        @FROM$ = LARGE$);
      356    18564
      357    18565    2        CDECL$ = ADDR(NIL);
      358    18566
      359    18567    2   END START_88_LIST;
      360    18568        %EJECT;
PL6.E3A0      #001=Z8DR$RECORD_DECL File=Z8DR.:Z8A6TSI                           SAT 08/09/97 11:18 Page:13
      361    18569        /*==============*/
      362    18570    1     ADD_TO_88_LIST: PROC (LEVEL_88_LIST$);
      363    18571        /*==============*/
      364    18572
      365    18573    2   DCL LEVEL_88_LIST$            PTR;
      366    18574
      367    18575    2   DCL LARGE$                    PTR;
      368    18576
      369    18577             %NEW (@POINTER   = LARGE$,
      370    18578                   @TEMPLATE  = LX_LARGE);
      371    18588
      372    18589             %INIT_LX_LARGE (@POINTER = LARGE$);
      373    18596
      374    18597    2        LARGE$ -> LX_LARGE.LARGE_ITEM$ = CDECL$;
      375    18598
      376    18599             %ADD_LX_ITEM_TO_LIST_TAIL (@LIST$  = O1COM.LEVEL_88_LIST$,
      377    18600                                        @FROM$  = LARGE$);
      378    18616
      379    18617    2        CDECL$ = ADDR(NIL);
      380    18618
      381    18619    2   END ADD_TO_88_LIST;
      382    18620        %EJECT;
PL6.E3A0      #001=Z8DR$RECORD_DECL File=Z8DR.:Z8A6TSI                           SAT 08/09/97 11:18 Page:14
      383    18621        /*===============*/
      384    18622    1     PROCESS_88_LIST: PROC (COND_LIST$);
      385    18623        /*===============*/
      386    18624
      387    18625    2   DCL COND_LIST$                PTR;
      388    18626
      389    18627    2   DCL CURRENT_88$               PTR;
      390    18628    2   DCL NEW_COND$                 PTR;
      391    18629    2   DCL 1 REDUCED_DATA     ALIGNED,
      392    18630             %REDUCED_DATA_INFO;
      393    18713
      394    18714    2      CURRENT_88$ = COND_LIST$ -> LX_LIST.HEAD$ -> LX_ITEM.LINK;
      395    18715
      396    18716    3      DO WHILE (CURRENT_88$ ~= ADDR(NIL));
      397    18717             %INITIALIZE_REDUCED_DATA;
      398    18731
      399    18732    3        CALL VERIFY_88 (CURRENT_88$ -> LX_LARGE.LARGE_ITEM$,
      400    18733    3                        REDUCED_DATA);
      401    18734
      402    18735    3        CALL PROCESS_88 (CURRENT_88$ -> LX_LARGE.LARGE_ITEM$,
      403    18736    3                         REDUCED_DATA,
      404    18737    3                         NEW_COND$);
      405    18738
      406    18739    3        CURRENT_88$ = CURRENT_88$ -> LX_LARGE.LINK;
      407    18740    3      END;
      408    18741
      409    18742    2      HIER_STK.B.CONDITION_OBJ (HIER_STK_PTR) = TRUE;
      410    18743
      411    18744    2   END PROCESS_88_LIST;
      412    18745        %EJECT;
PL6.E3A0      #001=Z8DR$RECORD_DECL File=Z8DR.:Z8A6TSI                           SAT 08/09/97 11:18 Page:15
      413    18746        /*======================*/
      414    18747    1     LINK_LEVEL_01_WITH_QLT: PROC;
      415    18748        /*======================*/
      416    18749
      417    18750    2   DCL BRO$               PTR;
      418    18751    2   DCL FATHER$            PTR;
      419    18752
      420    18753    3        DO CASE (O1COM.DATA_DECL_CONTEXT);
      421    18754
      422    18755    3          CASE (%WORKING_STORAGE, %COMMUNICATION_DESC);
      423    18756    3            BRO$ = HIER_STK.QLT$(1);
      424    18757
      425    18758    4            DO WHILE (BRO$ -> QLT.BROTHER ~= ADDR(NIL));
      426    18759    4              BRO$ = BRO$ -> QLT.BROTHER;
      427    18760    4            END;
      428    18761
      429    18762                 %UPDATE_PREV_QLT$ (@NEW_QLT$ = "HIER_STK.QLT$(1)");
      430    18769
      431    18770    3            IF BRO$ ~= HIER_STK.QLT$ (1) THEN
      432    18771    3              COMCOM.PREV_QLT$ = BRO$;
      433    18772
      434    18773    3          CASE (%LINKAGE_SECTION);
      435    18774    3            BRO$ = HIER_STK.QLT$(1);
      436    18775
      437    18776                 %NEW_BASE_LTS (@POINTER = LTS$,
      438    18777                                @NEXT    = O1COM.BASE_LTS_LIST$,
      439    18778                                @ST$     = "HIER_STK.QLT$(1)->QLT.ST$");
      440    18877
      441    18878    3            O1COM.BASE_LTS_LIST$ = LTS$;
      442    18879
      443    18880    3            CALL Z8DO$LINK_WITH_LTS (HIER_STK.QLT$(1)->QLT.ST$-> SCALAR.LTS$,
      444    18881    3                                     O1COM.BASE_LTS_LIST$);
      445    18882
      446    18883    3            IF REDUCED_DATA.B.REDEF_SUB THEN
      447    18884    3              O1COM.BASE_LTS_LIST$ -> BASE_LTS.REDEFINE$ =
      448    18885    3                  REDUCED_DATA.REDEFINES.OBJECT$;
      449    18886
PL6.E3A0      #001=Z8DR$RECORD_DECL File=Z8DR.:Z8A6TSI                           SAT 08/09/97 11:18 Page:16
      450    18887    4            DO WHILE (BRO$ -> QLT.BROTHER ~= ADDR(NIL));
      451    18888    4              BRO$ = BRO$ -> QLT.BROTHER;
      452    18889
      453    18890                   %NEW_BASE_LTS (@POINTER = LTS$,
      454    18891                                  @NEXT    = O1COM.BASE_LTS_LIST$,
      455    18892                                  @ST$     = "BRO$ -> QLT.ST$");
      456    18991
      457    18992    4              O1COM.BASE_LTS_LIST$ = LTS$;
      458    18993
      459    18994    4              CALL Z8DO$LINK_WITH_LTS (BRO$ -> QLT.ST$ -> SCALAR.LTS$,
      460    18995    4                                       O1COM.BASE_LTS_LIST$);
      461    18996
      462    18997    4              O1COM.BASE_LTS_LIST$ -> BASE_LTS.REDEFINE$ =
      463    18998    4                    HIER_STK.QLT$(1) -> QLT.ST$;
      464    18999
      465    19000    4            END;
      466    19001
      467    19002                 %UPDATE_PREV_QLT$ (@NEW_QLT$ = "HIER_STK.QLT$(1)");
      468    19009
      469    19010    3            IF BRO$ ~= HIER_STK.QLT$ (1) THEN
      470    19011    3              COMCOM.PREV_QLT$ = BRO$;
      471    19012
      472    19013    3          CASE (%FILE_DESCRIPTION, %SORT_DESCRIPTION);
      473    19014    3            O1COM.CURRENT_FILE_LTS$ -> FILE_LTS.RECORD_COUNT =
      474    19015    3            O1COM.CURRENT_FILE_LTS$ -> FILE_LTS.RECORD_COUNT + 1;
      475    19016
      476    19017
      477    19018    3            IF HIER_STK.QLT$(1) -> QLT.ST$ -> SCALAR.B.CLASS
      478    19019    3            ~= %CLASS_ALPHANUMERIC THEN
      479    19020    3              O1COM.CURRENT_FILE_LTS$ -> FILE_LTS.B.NON_TYA_RECORDS = TRUE;
      480    19021    3            FATHER$ = O1COM.CURRENT_FILE_LTS$ -> FILE_LTS.ST$ -> FD.QLT$;
      481    19022
      482    19023    3            BRO$ = FATHER$ -> QLT.SON;
      483    19024
      484    19025    3            IF BRO$ -> QLT.BROTHER = ADDR(NIL) THEN
      485    19026    3              BRO$ -> QLT.BROTHER = HIER_STK.QLT$(1);
      486    19027
PL6.E3A0      #001=Z8DR$RECORD_DECL File=Z8DR.:Z8A6TSI                           SAT 08/09/97 11:18 Page:17
      487    19028    3            FATHER$ -> QLT.SON -> QLT.ST$ -> VARIABLE.B.REDEF_OBJ = TRUE;
      488    19029    3            HIER_STK.QLT$(1) -> QLT.ST$ -> VARIABLE.B.REDEF_SUB   = TRUE;
      489    19030    3            HIER_STK.QLT$(1) -> QLT.ST$ -> VARIABLE.B.RECORD_AREA = TRUE;
      490    19031    3            HIER_STK.QLT$(1) -> QLT.FATHER = FATHER$;
      491    19032
      492    19033    3          CASE (ELSE);
      493    19034    3            CALL Z8AE$ERROR (%E$UNEXPECTED_CASE,
      494    19035    3                             HIER_STK.QLT$(1) -> QLT.ST$ -> ST.LINE_NO, 0);
      495    19036
      496    19037    3        END; /* Case */
      497    19038
      498    19039    2   END LINK_LEVEL_01_WITH_QLT;
      499    19040        %EJECT;
PL6.E3A0      #001=Z8DR$RECORD_DECL File=Z8DR.:Z8A6TSI                           SAT 08/09/97 11:18 Page:18
      500    19041        /*=========*/
      501    19042    1     CLEAR_STK: PROC;
      502    19043        /*=========*/
      503    19044
      504    19045    2        DCL I SBIN;
      505    19046
      506    19047
      507    19048    3        DO I = 0 TO HIER_STK_PTR;
      508    19049               %UPDATE_HIER_STK (@STK_PTR = I);
      509    19062    3        END;
      510    19063
      511    19064    2        HIER_STK_PTR = 0;
      512    19065
      513    19066    2   END CLEAR_STK;
      514    19067        %EJECT;
PL6.E3A0      #001=Z8DR$RECORD_DECL File=Z8DR.:Z8A6TSI                           SAT 08/09/97 11:18 Page:19
      515    19068
      516    19069        /* Main Body */
      517    19070
      518    19071    1      CDECL$ = CURRENT_DECL$;
      519    19072    1      NDECL$ = NEXT_DECL$;
      520    19073
      521    19074    1      CALL CHECK_FOR_CONDITION
      522    19075    1        WHENRETURN
      523    19076    2          DO;
      524    19077    2            CALL DATA_DECLARATION (CDECL$, NDECL$);
      525    19078
      526    19079    2            IF HIER_STK_PTR = %LEVEL_01 THEN
      527    19080    2              CALL LINK_LEVEL_01_WITH_QLT;
      528    19081
      529    19082    2          END;
      530    19083
      531    19084    1      CURRENT_DECL$ = CDECL$;
      532    19085
      533    19086    1      IF NDECL$ = ADDR(NIL) THEN
      534    19087    1        CALL CLEAR_STK;
      535    19088
      536    19089    1      IF NEXT_DECL$ ~= ADDR(NIL) THEN
      537    19090    1        NEXT_DECL$    = NDECL$;
      538    19091
      539    19092
      540    19093
      541    19094        %EJECT;
PL6.E3A0      #001=Z8DR$RECORD_DECL File=Z8DR.:Z8A6TSI                           SAT 08/09/97 11:18 Page:20
      542    19095        /*****************************************************************
      543    19096         *                                                               *
      544    19097         *                     INTERNAL PROCEDURES                       *
      545    19098         *                                                               *
      546    19099         *                     ******** **********                       *
      547    19100         *                                                               *
      548    19101         *****************************************************************/
      549    19102        %EJECT;
PL6.E3A0      #001=Z8DR$RECORD_DECL File=Z8DR.:Z8A6TSI                           SAT 08/09/97 11:18 Page:21
      550    19103        /*****************************************************************
      551    19104         *                                                               *
      552    19105         *                     COMMON   PROCEDURES                       *
      553    19106         *                                                               *
      554    19107         *                     ******   **********                       *
      555    19108         *                                                               *
      556    19109         *****************************************************************/
      557    19110        %EJECT;
PL6.E3A0      #001=Z8DR$RECORD_DECL File=Z8DR.:Z8A6TSI                           SAT 08/09/97 11:18 Page:22
      558    19111        /*======================*/
      559    19112    1     LINK_WITH_LAST_BROTHER: PROC (QLT$$, BRO_QLT$);
      560    19113        /*======================*/
      561    19114
      562    19115    2   DCL QLT$$              PTR;
      563    19116    2   DCL BRO_QLT$           PTR;
      564    19117    2   DCL BRO$               PTR;
      565    19118
      566    19119
      567    19120    2      IF BRO_QLT$ ~= ADDR(NIL) THEN
      568    19121    3        DO;
      569    19122    3          BRO$ = BRO_QLT$;
      570    19123
      571    19124    4          DO WHILE (BRO$ -> QLT.BROTHER ~= ADDR(NIL));
      572    19125    4            BRO$ = BRO$ -> QLT.BROTHER;
      573    19126    4          END;
      574    19127
      575    19128    3          BRO$ -> QLT.BROTHER = QLT$$;
      576    19129    3        END;
      577    19130    2      ELSE
      578    19131    2        BRO_QLT$ = QLT$$;
      579    19132
      580    19133    2   END LINK_WITH_LAST_BROTHER;
      581    19134        %EJECT;
PL6.E3A0      #001=Z8DR$RECORD_DECL File=Z8DR.:Z8A6TSI                           SAT 08/09/97 11:18 Page:23
      582    19135        /*****************************************************************
      583    19136         *                                                               *
      584    19137         *                     CONDITION_NAMES                           *
      585    19138         *                                                               *
      586    19139         *                     ***************                           *
      587    19140         *                                                               *
      588    19141         *****************************************************************/
      589    19142        %EJECT;
PL6.E3A0      #001=Z8DR$RECORD_DECL File=Z8DR.:Z8A6TSI                           SAT 08/09/97 11:18 Page:24
      590    19143        /*=========*/
      591    19144    1     VERIFY_88: PROC (CDECL$, REDUCED_DATA);
      592    19145        /*=========*/
      593    19146
      594    19147    2      DCL CDECL$                 PTR;
      595    19148    2      DCL 1 REDUCED_DATA         ALIGNED,
      596    19149                %REDUCED_DATA_INFO;
      597    19232
      598    19233    2      DCL ITEM$                  PTR;
      599    19234    2      DCL QLT$$                  PTR;
      600    19235
      601    19236
      602    19237    2      IF CDECL$ -> LX_REC_DECL.P.USAGE$~= ADDR(NIL) THEN
      603    19238    3        DO;
      604    19239    3          ITEM$ = CDECL$ -> LX_REC_DECL.P.USAGE$;
      605    19240
      606    19241               %CONDITIONAL_ERROR (@LX_ITEM$ = ITEM$,
      607    19242                                  @ERROR#   = %E$ONLY_VALUE_ON_COND_NAME,
      608    19243                                  @LINE     = ITEM$ -> LX_ITEM.LINE,
      609    19244                                  @COLUMN   = ITEM$ -> LX_ITEM.COLUMN);
      610    19274
      611    19275               %DELETE_CLAUSE    (@CLAUSE$  = USAGE$);
      612    19280    3        END;
      613    19281
      614    19282    2      IF CDECL$ -> LX_REC_DECL.P.PIC_CLAUSE$ ~= ADDR(NIL) THEN
      615    19283    3        DO;
      616    19284    3          ITEM$ = CDECL$ -> LX_REC_DECL.P.PIC_CLAUSE$;
      617    19285
      618    19286               %CONDITIONAL_ERROR (@LX_ITEM$ = ITEM$,
      619    19287                                   @ERROR#   = %E$ONLY_VALUE_ON_COND_NAME,
      620    19288                                   @LINE     = ITEM$ -> LX_ITEM.LINE,
      621    19289                                   @COLUMN   = ITEM$ -> LX_ITEM.COLUMN);
      622    19319
      623    19320               %DELETE_CLAUSE     (@CLAUSE$  = PIC_CLAUSE$);
      624    19325    3        END;
      625    19326
      626    19327    2      IF CDECL$ -> LX_REC_DECL.P.REDEFINES$ ~= ADDR(NIL) THEN
PL6.E3A0      #001=Z8DR$RECORD_DECL File=Z8DR.:Z8A6TSI                           SAT 08/09/97 11:18 Page:25
      627    19328    3        DO;
      628    19329    3          ITEM$ = CDECL$ -> LX_REC_DECL.P.REDEFINES$;
      629    19330
      630    19331               %CONDITIONAL_ERROR (@LX_ITEM$ = ITEM$,
      631    19332                                   @ERROR#   = %E$ONLY_VALUE_ON_COND_NAME,
      632    19333                                   @LINE     = ITEM$ -> LX_ITEM.LINE,
      633    19334                                   @COLUMN   = ITEM$ -> LX_ITEM.COLUMN);
      634    19364
      635    19365               %DELETE_CLAUSE     (@CLAUSE$  = REDEFINES$);
      636    19370    3        END;
      637    19371
      638    19372    2      IF CDECL$ -> LX_REC_DECL.P.RENAMES$ ~= ADDR(NIL) THEN
      639    19373    3        DO;
      640    19374    3          ITEM$ = CDECL$ -> LX_REC_DECL.P.RENAMES$ ->
      641    19375    3                  LX_LIST.HEAD$ -> LX_LIST.HEAD$;
      642    19376
      643    19377               %CONDITIONAL_ERROR (@LX_ITEM$ = ITEM$,
      644    19378                                   @ERROR#   = %E$ONLY_VALUE_ON_COND_NAME,
      645    19379                                   @LINE     = ITEM$ -> LX_ITEM.LINE,
      646    19380                                   @COLUMN   = ITEM$ -> LX_ITEM.COLUMN);
      647    19410
      648    19411               %DELETE_CLAUSE     (@CLAUSE$  = RENAMES$);
      649    19416    3        END;
      650    19417
      651    19418    2      IF CDECL$ -> LX_REC_DECL.P.OCCURS$ ~= ADDR(NIL) THEN
      652    19419    3        DO;
      653    19420    3          ITEM$ = CDECL$ -> LX_REC_DECL.P.OCCURS$ ->
      654    19421    3                  LX_LIST.HEAD$ -> LX_LIST.HEAD$;
      655    19422
      656    19423               %CONDITIONAL_ERROR (@LX_ITEM$ = ITEM$,
      657    19424                                   @ERROR#   = %E$ONLY_VALUE_ON_COND_NAME,
      658    19425                                   @LINE     = ITEM$ -> LX_ITEM.LINE,
      659    19426                                   @COLUMN   = ITEM$ -> LX_ITEM.COLUMN);
      660    19456
      661    19457               %DELETE_CLAUSE     (@CLAUSE$  = OCCURS$);
      662    19462    3        END;
      663    19463
PL6.E3A0      #001=Z8DR$RECORD_DECL File=Z8DR.:Z8A6TSI                           SAT 08/09/97 11:18 Page:26
      664    19464    2      IF CDECL$ -> LX_REC_DECL.P.SIGN$ ~= ADDR(NIL) THEN
      665    19465    3        DO;
      666    19466    3          ITEM$ = CDECL$ -> LX_REC_DECL.P.SIGN$ ->
      667    19467    3                  LX_LIST.HEAD$;
      668    19468
      669    19469               %CONDITIONAL_ERROR (@LX_ITEM$ = ITEM$,
      670    19470                                   @ERROR#   = %E$ONLY_VALUE_ON_COND_NAME,
      671    19471                                   @LINE     = ITEM$ -> LX_ITEM.LINE,
      672    19472                                   @COLUMN   = ITEM$ -> LX_ITEM.COLUMN);
      673    19502
      674    19503               %DELETE_CLAUSE     (@CLAUSE$  = SIGN$);
      675    19508    3        END;
      676    19509
      677    19510    2      IF CDECL$ -> LX_REC_DECL.P.BLANK$ ~= ADDR(NIL) THEN
      678    19511    3        DO;
      679    19512    3          ITEM$ = CDECL$ -> LX_REC_DECL.P.BLANK$;
      680    19513
      681    19514               %CONDITIONAL_ERROR (@LX_ITEM$ = ITEM$,
      682    19515                                   @ERROR#   = %E$ONLY_VALUE_ON_COND_NAME,
      683    19516                                   @LINE     = ITEM$ -> LX_ITEM.LINE,
      684    19517                                   @COLUMN   = ITEM$ -> LX_ITEM.COLUMN);
      685    19547
      686    19548               %DELETE_CLAUSE     (@CLAUSE$  = BLANK$);
      687    19553    3        END;
      688    19554
      689    19555    2      IF CDECL$ -> LX_REC_DECL.P.GLOBAL$ ~= ADDR(NIL) THEN
      690    19556    3        DO;
      691    19557    3          ITEM$ = CDECL$ -> LX_REC_DECL.P.GLOBAL$;
      692    19558
      693    19559               %CONDITIONAL_ERROR (@LX_ITEM$ = ITEM$,
      694    19560                                   @ERROR#   = %E$ONLY_VALUE_ON_COND_NAME,
      695    19561                                   @LINE     = ITEM$ -> LX_ITEM.LINE,
      696    19562                                   @COLUMN   = ITEM$ -> LX_ITEM.COLUMN);
      697    19592
      698    19593               %DELETE_CLAUSE     (@CLAUSE$  = GLOBAL$);
      699    19598    3        END;
      700    19599
PL6.E3A0      #001=Z8DR$RECORD_DECL File=Z8DR.:Z8A6TSI                           SAT 08/09/97 11:18 Page:27
      701    19600    2      IF CDECL$ -> LX_REC_DECL.P.SYNC$ ~= ADDR(NIL) THEN
      702    19601    3        DO;
      703    19602    3          ITEM$ = CDECL$ -> LX_REC_DECL.P.SYNC$;
      704    19603
      705    19604               %CONDITIONAL_ERROR (@LX_ITEM$ = ITEM$,
      706    19605                                   @ERROR#   = %E$ONLY_VALUE_ON_COND_NAME,
      707    19606                                   @LINE     = ITEM$ -> LX_ITEM.LINE,
      708    19607                                   @COLUMN   = ITEM$ -> LX_ITEM.COLUMN);
      709    19637
      710    19638               %DELETE_CLAUSE     (@CLAUSE$  = SYNC$);
      711    19643    3        END;
      712    19644
      713    19645    2      IF CDECL$ -> LX_REC_DECL.P.EXTERNAL$ ~= ADDR(NIL) THEN
      714    19646    3        DO;
      715    19647    3          ITEM$ = CDECL$ -> LX_REC_DECL.P.EXTERNAL$;
      716    19648
      717    19649               %CONDITIONAL_ERROR (@LX_ITEM$ = ITEM$,
      718    19650                                   @ERROR#   = %E$ONLY_VALUE_ON_COND_NAME,
      719    19651                                   @LINE     = ITEM$ -> LX_ITEM.LINE,
      720    19652                                   @COLUMN   = ITEM$ -> LX_ITEM.COLUMN);
      721    19682
      722    19683               %DELETE_CLAUSE     (@CLAUSE$  = EXTERNAL$);
      723    19688    3        END;
      724    19689
      725    19690    2      IF CDECL$ -> LX_REC_DECL.P.JUSTIFIED$ ~= ADDR(NIL) THEN
      726    19691    3        DO;
      727    19692    3          ITEM$ = CDECL$ -> LX_REC_DECL.P.JUSTIFIED$;
      728    19693
      729    19694               %CONDITIONAL_ERROR (@LX_ITEM$ = ITEM$,
      730    19695                                   @ERROR#   = %E$ONLY_VALUE_ON_COND_NAME,
      731    19696                                   @LINE     = ITEM$ -> LX_ITEM.LINE,
      732    19697                                   @COLUMN   = ITEM$ -> LX_ITEM.COLUMN);
      733    19727
      734    19728               %DELETE_CLAUSE     (@CLAUSE$  = JUSTIFIED$);
      735    19733    3        END;
      736    19734
      737    19735    2      IF CDECL$ -> LX_REC_DECL.P.INDEXED$ ~= ADDR(NIL) THEN
PL6.E3A0      #001=Z8DR$RECORD_DECL File=Z8DR.:Z8A6TSI                           SAT 08/09/97 11:18 Page:28
      738    19736    3        DO;
      739    19737    3          ITEM$ = CDECL$ -> LX_REC_DECL.P.INDEXED$ -> LX_LIST.HEAD$;
      740    19738
      741    19739               %CONDITIONAL_ERROR (@LX_ITEM$ = ITEM$,
      742    19740                                   @ERROR#   = %E$ONLY_VALUE_ON_COND_NAME,
      743    19741                                   @LINE     = ITEM$ -> LX_ITEM.LINE,
      744    19742                                   @COLUMN   = ITEM$ -> LX_ITEM.COLUMN);
      745    19772
      746    19773               %DELETE_CLAUSE     (@CLAUSE$  = INDEXED$);
      747    19778    3        END;
      748    19779
      749    19780    2      IF CDECL$ -> LX_REC_DECL.P.KEY$ ~= ADDR(NIL) THEN
      750    19781    3        DO;
      751    19782    3          ITEM$ = CDECL$ -> LX_REC_DECL.P.KEY$ -> LX_LIST.HEAD$;
      752    19783
      753    19784               %CONDITIONAL_ERROR (@LX_ITEM$ = ITEM$,
      754    19785                                   @ERROR#   = %E$ONLY_VALUE_ON_COND_NAME,
      755    19786                                   @LINE     = ITEM$ -> LX_ITEM.LINE,
      756    19787                                   @COLUMN   = ITEM$ -> LX_ITEM.COLUMN);
      757    19817
      758    19818               %DELETE_CLAUSE     (@CLAUSE$  = KEY$);
      759    19823    3        END;
      760    19824
      761    19825    2        QLT$$ = HIER_STK.QLT$(HIER_STK_PTR);
      762    19826
      763    19827    2        IF QLT$$ -> QLT.B.RENAMES OR
      764    19828    2          QLT$$ -> QLT.ST$ -> VARIABLE.TYPE = %TYP  OR
      765    19829    2          QLT$$ -> QLT.ST$ -> VARIABLE.TYPE = %TYX  OR
      766    19830    2          QLT$$ -> QLT.ST$ -> VARIABLE.TYPE = %TYY  THEN
      767    19831    3          DO;
      768    19832    3            ITEM$ = CDECL$ -> LX_REC_DECL.P.LEVEL_NO$;
      769    19833
      770    19834                 %CONDITIONAL_ERROR (@LX_ITEM$ = ITEM$,
      771    19835                                     @ERROR#   = %E$MISPOSITION_OF_88,
      772    19836                                     @LINE     = ITEM$ -> LX_ITEM.LINE,
      773    19837                                     @COLUMN   = ITEM$ -> LX_ITEM.COLUMN);
      774    19867    3          END;
PL6.E3A0      #001=Z8DR$RECORD_DECL File=Z8DR.:Z8A6TSI                           SAT 08/09/97 11:18 Page:29
      775    19868    2      RETURN;
      776    19869
      777    19870    2   END VERIFY_88;
      778    19871        %EJECT;
PL6.E3A0      #001=Z8DR$RECORD_DECL File=Z8DR.:Z8A6TSI                           SAT 08/09/97 11:18 Page:30
      779    19872        /*==========*/
      780    19873    1     PROCESS_88: PROC (CDECL$, REDUCED_DATA, NEW_COND$);
      781    19874        /*==========*/
      782    19875
      783    19876    2      DCL CDECL$                 PTR;
      784    19877    2   DCL NEW_COND$                 PTR;
      785    19878    2      DCL 1 REDUCED_DATA         ALIGNED,
      786    19879                %REDUCED_DATA_INFO;
      787    19962
      788    19963    2      DCL LINE#                  SBIN WORD;
      789    19964    2      DCL DN$                    PTR;
      790    19965    2      DCL NEW_QLT$               PTR;
      791    19966    2      DCL ST$$                   PTR;
      792    19967
      793    19968    2      DN$ = CDECL$ -> LX_REC_DECL.P.DATA_NAME$ -> LX_ITEM.DNT$;
      794    19969    2      LINE# = CDECL$ -> LX_REC_DECL.P.DATA_NAME$ -> LX_ITEM.LINE;
      795    19970
      796    19971    2      ST$$ = HIER_STK.QLT$(HIER_STK_PTR) -> QLT.ST$;
      797    19972
      798    19973           %NEW_CONDITION      (@ST$         = NEW_COND$,
      799    19974                                @NEXT_COND$  = O1COM.CONDITION$,
      800    19975                                @LINE_NO     = LINE#,
      801    19976                                @NEXT        = DN$ -> DNT.ST$,
      802    19977                                @VALUE_LIST$ = CDECL$ -> LX_REC_DECL.P.VALUE$,
      803    19978                                @DNT$        = DN$,
      804    19979                                @ASSOC_VAR$  = "HIER_STK.QLT$(HIER_STK_PTR) -> QLT.ST$",
      805    19980                                @EXTERNAL    = ST$$ -> SCALAR.B.EXTERNAL,
      806    19981                                @LINKAGE     = ST$$ -> SCALAR.B.LINKAGE,
      807    19982                                @GLOBAL      = ST$$ -> SCALAR.B.GLOBAL);
      808    20059
      809    20060    2      CDECL$ -> LX_REC_DECL.P.VALUE$ = ADDR(NIL);
      810    20061    2      O1COM.CONDITION$                      = NEW_COND$;
      811    20062    2      IF NOT DN$ -> DNT.B.RW THEN
      812    20063    2      DN$ -> DNT.ST$                        = NEW_COND$;
      813    20064
      814    20065           %ADD_XREF (SYM    = NEW_COND$,
      815    20066                      ISN    = LINE#,
PL6.E3A0      #001=Z8DR$RECORD_DECL File=Z8DR.:Z8A6TSI                           SAT 08/09/97 11:18 Page:31
      816    20067                      TYPE   = %XREF_DCL);
      817    20085
      818    20086           %NEW_QLT (@POINTER = NEW_QLT$,
      819    20087                     @ST$     = NEW_COND$,
      820    20088                     @DNT$    = DN$,
      821    20089                     @FATHER  = "HIER_STK.QLT$(HIER_STK_PTR)",
      822    20090                     @LEVEL#  = %LEVEL_88);
      823    20115
      824    20116    2      NEW_COND$ -> CONDITION.QLT$ = NEW_QLT$;
      825    20117
      826    20118    2      IF HIER_STK.QLT$(HIER_STK_PTR) -> QLT.SON ~= ADDR(NIL) AND
      827    20119    2         HIER_STK.QLT$(HIER_STK_PTR) -> QLT.SON -> QLT.ID ~= %QUAL THEN
      828    20120            /* Something wrong here but is or will be cought somewhere else */
      829    20121    2          RETURN;
      830    20122
      831    20123    2      CALL LINK_WITH_LAST_BROTHER (NEW_QLT$,
      832    20124    2                                   HIER_STK.QLT$(HIER_STK_PTR) -> QLT.SON);
      833    20125    2   END PROCESS_88;
      834    20126        %EJECT;
PL6.E3A0      #001=Z8DR$RECORD_DECL File=Z8DR.:Z8A6TSI                           SAT 08/09/97 11:18 Page:32
      835    20127        /*================*/
      836    20128    1     DATA_DECLARATION: PROC (PASSED_CDECL$, PASSED_NDECL$);
      837    20129        /*================*/
      838    20130
      839    20131
      840    20132    2      DCL PASSED_CDECL$   PTR;
      841    20133    2      DCL PASSED_NDECL$   PTR;
      842    20134    2      DCL CDECL$          PTR;
      843    20135    2      DCL NDECL$          PTR;
      844    20136
      845    20137
      846    20138        %EJECT;
PL6.E3A0      #001=Z8DR$RECORD_DECL File=Z8DR.:Z8A6TSI                           SAT 08/09/97 11:18 Page:33
      847    20139        /*****************************************************************
      848    20140         *                                                               *
      849    20141         *                     DATA_REDUCTION                       *
      850    20142         *                                                               *
      851    20143         *                     *******************                       *
      852    20144         *                                                               *
      853    20145         *****************************************************************/
      854    20146        %EJECT;
PL6.E3A0      #001=Z8DR$RECORD_DECL File=Z8DR.:Z8A6TSI                           SAT 08/09/97 11:18 Page:34
      855    20147    2   DATA_REDUCTION: PROC;
      856    20148
      857    20149
      858    20150        %EJECT;
PL6.E3A0      #001=Z8DR$RECORD_DECL File=Z8DR.:Z8A6TSI                           SAT 08/09/97 11:18 Page:35
      859    20151
      860    20152        /* Internal Procs */
      861    20153
      862    20154
      863    20155        /*=============*/
      864    20156    3     EXTRACT_USAGE: PROC;
      865    20157        /*=============*/
      866    20158
      867    20159
      868    20160
      869    20161    4      IF CDECL$ -> LX_REC_DECL.P.USAGE$ = ADDR(NIL) THEN
      870    20162    5        DO;
      871    20163
      872    20164    5          IF REDUCED_DATA.LEVEL.CURRENT <= GROUP.USAGE.LEVEL THEN
      873    20165                 %UPDATE_GROUP_USAGE (@USAGE = %NO_USAGE,
      874    20166                                          @LEVEL = REDUCED_DATA.LEVEL.CURRENT);
      875    20172    5          ELSE
      876    20173    5            REDUCED_DATA.USAGE.TYPE = GROUP.USAGE.TYPE;
      877    20174    5        END;
      878    20175    4      ELSE
      879    20176    5        DO;
      880    20177    5          REDUCED_DATA.USAGE.TYPE = CDECL$ -> LX_REC_DECL.P.USAGE$ ->
      881    20178    5                                    LX_ITEM.SYMBOL;
      882    20179
      883    20180    5          IF REDUCED_DATA.USAGE.TYPE = %RSV_WRD_COMP THEN
      884    20181    5            REDUCED_DATA.USAGE.TYPE = O1COM.COMP_DEFAULT;
      885    20182
      886    20183    5          IF REDUCED_DATA.USAGE.TYPE = %RSV_WRD_DISPLAY THEN
      887    20184    5            REDUCED_DATA.USAGE.TYPE  = %NO_USAGE;
      888    20185
      889    20186    5          IF GROUP.USAGE.TYPE ~= %NO_USAGE THEN
      890    20187    6            DO;
      891    20188    6              IF REDUCED_DATA.LEVEL.CURRENT <= GROUP.USAGE.LEVEL THEN
      892    20189                     %UPDATE_GROUP_USAGE (@USAGE = REDUCED_DATA.USAGE.TYPE,
      893    20190                                              @LEVEL = REDUCED_DATA.LEVEL.CURRENT);
      894    20196    6            END;
      895    20197    5          ELSE
PL6.E3A0      #001=Z8DR$RECORD_DECL File=Z8DR.:Z8A6TSI                           SAT 08/09/97 11:18 Page:36
      896    20198                 /* No Group usage specified so the current usage is
      897    20199                    predominant */
      898    20200                 %UPDATE_GROUP_USAGE (@USAGE = REDUCED_DATA.USAGE.TYPE,
      899    20201                                          @LEVEL = REDUCED_DATA.LEVEL.CURRENT);
      900    20207
      901    20208    5        END;
      902    20209
      903    20210    4        IF NOT REDUCED_DATA.B.ELEMENTARY THEN
      904    20211    4          REDUCED_DATA.USAGE.TYPE = %NO_USAGE;
      905    20212
      906    20213
      907    20214
      908    20215    4   END EXTRACT_USAGE;
      909    20216        %EJECT;
PL6.E3A0      #001=Z8DR$RECORD_DECL File=Z8DR.:Z8A6TSI                           SAT 08/09/97 11:18 Page:37
      910    20217        /*=============*/
      911    20218    3     EXTRACT_LEVEL: PROC;
      912    20219        /*=============*/
      913    20220
      914    20221    4      DCL I SBIN;
      915    20222
      916    20223    4      REDUCED_DATA.LEVEL.PREVIOUS = O1COM.LEVEL_NO;
      917    20224
      918    20225    4      CALL CHARBIN (O1COM.LEVEL_NO,
      919    20226    4                    CDECL$ -> LX_REC_DECL.P.LEVEL_NO$ ->
      920    20227    4                    LX_ITEM.DNT$ -> DNT.TEXT.NAME);
      921    20228
      922    20229    4      REDUCED_DATA.LEVEL.CURRENT = O1COM.LEVEL_NO;
      923    20230
      924    20231           %CHANGE_LEVEL_TO_CONSEC (@LEVEL = REDUCED_DATA.LEVEL.PREVIOUS);
      925    20253           %CHANGE_LEVEL_TO_CONSEC(@LEVEL = REDUCED_DATA.LEVEL.CURRENT);
      926    20275
      927    20276    4      IF NDECL$ = ADDR(NIL) THEN
      928    20277    4        REDUCED_DATA.LEVEL.NEXT = %LEVEL_01;
      929    20278    4      ELSE
      930    20279    5        DO;
      931    20280    5          CALL CHARBIN (REDUCED_DATA.LEVEL.NEXT,
      932    20281    5                        NDECL$ -> LX_REC_DECL.P.LEVEL_NO$ ->
      933    20282    5                        LX_ITEM.DNT$ -> DNT.TEXT.NAME);
      934    20283
      935    20284               %CHANGE_LEVEL_TO_CONSEC(@LEVEL = REDUCED_DATA.LEVEL.NEXT);
      936    20306    5        END;
      937    20307
      938    20308    4      IF REDUCED_DATA.LEVEL.CURRENT = %LEVEL_01 THEN
      939    20309    5        DO;
      940    20310    5          GROUP = '0'B;
      941    20311    5          GROUP.USAGE.LEVEL = %LEVEL_01;
      942    20312    5        END;
      943    20313    4      ELSE IF COMCOM.OB.FIPS.LEVEL > 0 AND REDUCED_DATA.LEVEL.CURRENT < REDUCED_DATA.
             20313               LEVEL.PREVIOUS
      944    20314    4          AND CDECL$ -> LX_REC_DECL.P.LEVEL_NO$ -> LX_ITEM.DNT$ ->
      945    20315    4          DNT.TEXT.NAME ~= '66' THEN
PL6.E3A0      #001=Z8DR$RECORD_DECL File=Z8DR.:Z8A6TSI                           SAT 08/09/97 11:18 Page:38
      946    20316    5   SEQ_CHECK: DO;
      947    20317    6          DO I = HIER_STK_PTR DOWNTO 2;
      948    20318    6            IF HIER_STK.LEVEL#(I) = REDUCED_DATA.LEVEL.CURRENT THEN
      949    20319    6              EXIT SEQ_CHECK;
      950    20320    6          END;
      951    20321    5          CALL Z8AE$ERROR (%E$ANSI_LEVEL_SEQ_ERROR,
      952    20322    5                           CDECL$ -> LX_REC_DECL.P.LEVEL_NO$ -> LX_ITEM.LINE,
      953    20323    5                           CDECL$ -> LX_REC_DECL.P.LEVEL_NO$ -> LX_ITEM.COLUMN);
      954    20324    5        END; /* SEQ_CHECK */
      955    20325
      956    20326    4      REDUCED_DATA.B.ELEMENTARY = (REDUCED_DATA.LEVEL.NEXT <=
      957    20327    4                                   REDUCED_DATA.LEVEL.CURRENT);
      958    20328
      959    20329    4   END EXTRACT_LEVEL;
      960    20330        %EJECT;
PL6.E3A0      #001=Z8DR$RECORD_DECL File=Z8DR.:Z8A6TSI                           SAT 08/09/97 11:18 Page:39
      961    20331        /*=====================*/
      962    20332    3     CHECK_FOR_SIGN_IN_PIC: PROC (SIGN_TYPE);
      963    20333        /*=====================*/
      964    20334
      965    20335    4   DCL SIGN_TYPE          SBIN WORD;
      966    20336
      967    20337    5      DO CASE (SIGN_TYPE);
      968    20338
      969    20339    5        CASE(%PIC_EIS_LS, %PIC_EIS_TS, %PIC_EIS_LSTS, %PIC_EIS_FLT);
      970    20340    5          REDUCED_DATA.B.SIGN_FOUND = TRUE;
      971    20341
      972    20342    5        CASE(ELSE);
      973    20343               /* No sign found */
      974    20344    5      END;
      975    20345    4   END CHECK_FOR_SIGN_IN_PIC;
      976    20346        %EJECT;
PL6.E3A0      #001=Z8DR$RECORD_DECL File=Z8DR.:Z8A6TSI                           SAT 08/09/97 11:18 Page:40
      977    20347        /*===========*/
      978    20348    3     EXTRACT_PIC: PROC;
      979    20349        /*===========*/
      980    20350
      981    20351    4   DCL PIC$                      PTR;
      982    20352
      983    20353
      984    20354
      985    20355    4      PIC$ = CDECL$ -> LX_REC_DECL.P.PIC_CLAUSE$;
      986    20356    4      PIC_STR = PIC$ -> LX_ITEM.DNT$ -> DNT.TEXT.NAME;
      987    20357    4      PIC_IN.PIC_L = PIC$ -> LX_ITEM.DNT$ -> DNT.TEXT.LENGTH;
      988    20358    4      PIC_IN.MOP_L  = %MAX_MOP_LENGTH;
      989    20359    4      PIC_OUT.ERROR = %NO_ERROR;
      990    20360
      991    20361    4      IF COMCOM.OB.FIPS.LEVEL >= %INT_LEV AND
      992    20362    4          PIC$ -> LX_ITEM.B.HIGH_LEV THEN
      993    20363    4        CALL Z8AE$ERROR (%E$LEVEL_CHECK,
      994    20364    4                         PIC$ -> LX_ITEM.LINE,
      995    20365    4                         PIC$ -> LX_ITEM.COLUMN);
      996    20366
      997    20367    4      IF PIC_IN.PIC_L > %MAX_PIC_STR_LENGTH THEN
      998    20368    5        DO;
      999    20369               %CONDITIONAL_ERROR (@LX_ITEM$ = PIC$,
     1000    20370                                   @ERROR#   = %E$PIC_STR_TOO_LONG,
     1001    20371                                   @LINE     = PIC$ -> LX_ITEM.LINE,
     1002    20372                                   @COLUMN   = PIC$ -> LX_ITEM.COLUMN);
     1003    20402               %DEFAULT_PIC; /* Recovery */
     1004    20417    5          RETURN;
     1005    20418    5        END;
     1006    20419
     1007    20420    4      CALL EXTRACT_BLANK_WHEN_ZERO (PIC_IN.B.BLANK_WHEN_ZERO);
     1008    20421
     1009    20422           /* If a blank when zero was specified and an asterisk was in
     1010    20423              the pic string it is illegal                              */
     1011    20424
     1012    20425    4      IF CDECL$ -> LX_REC_DECL.P.BLANK$ ~= ADDR(NIL)
     1013    20426    4      AND NOT PIC_IN.B.BLANK_WHEN_ZERO THEN
PL6.E3A0      #001=Z8DR$RECORD_DECL File=Z8DR.:Z8A6TSI                           SAT 08/09/97 11:18 Page:41
     1014    20427    4        REDUCED_DATA.B.ASTERISK = TRUE;
     1015    20428
     1016    20429    4      CALL Z8DP$VALIDATE_PIC (PIC_STR, PIC_IN, PIC_OUT)
     1017    20430    4        WHENALTRETURN
     1018    20431    5          DO;
     1019    20432                 /* Nothing - error flagged later */
     1020    20433    5          END;
     1021    20434
     1022    20435    4      CALL CHECK_FOR_SIGN_IN_PIC (BINBIT(PIC_OUT.EIS_TYPE,36));
     1023    20436    4   END EXTRACT_PIC;
     1024    20437        %EJECT;
PL6.E3A0      #001=Z8DR$RECORD_DECL File=Z8DR.:Z8A6TSI                           SAT 08/09/97 11:18 Page:42
     1025    20438        /*=======================*/
     1026    20439    3     EXTRACT_BLANK_WHEN_ZERO: PROC (BLANK_WHEN_ZERO);
     1027    20440        /*=======================*/
     1028    20441
     1029    20442    4   DCL BLANK_WHEN_ZERO           BIT(1) ALIGNED;
     1030    20443    4   DCL INDEX#                    SBIN WORD;
     1031    20444
     1032    20445
     1033    20446
     1034    20447    4      IF CDECL$ -> LX_REC_DECL.P.BLANK$ ~= ADDR(NIL) THEN
     1035    20448    5        DO;
     1036    20449    5          CALL INDEX (INDEX#,
     1037    20450    5                      %ASTERISK,
     1038    20451    5                      CDECL$ -> LX_REC_DECL.P.PIC_CLAUSE$ ->
     1039    20452    5                      LX_ITEM.DNT$ -> DNT.TEXT.NAME);
     1040    20453
     1041    20454    5          IF INDEX# ~= CDECL$ -> LX_REC_DECL.P.PIC_CLAUSE$ ->
     1042    20455    5                       LX_ITEM.DNT$ -> DNT.TEXT.LENGTH THEN
     1043    20456    5            BLANK_WHEN_ZERO = FALSE;
     1044    20457    5          ELSE
     1045    20458    5            BLANK_WHEN_ZERO = TRUE;
     1046    20459    5        END;
     1047    20460    4      ELSE
     1048    20461    4        BLANK_WHEN_ZERO     = FALSE;
     1049    20462
     1050    20463    4   END EXTRACT_BLANK_WHEN_ZERO;
     1051    20464        %EJECT;
PL6.E3A0      #001=Z8DR$RECORD_DECL File=Z8DR.:Z8A6TSI                           SAT 08/09/97 11:18 Page:43
     1052    20465        /*============*/
     1053    20466    3     EXTRACT_SIGN: PROC;
     1054    20467        /*============*/
     1055    20468
     1056    20469
     1057    20470    4      IF CDECL$ -> LX_REC_DECL.P.SIGN$ ~= ADDR(NIL) THEN
     1058    20471    4        IF CDECL$ -> LX_REC_DECL.P.SIGN$ -> LX_LIST.HEAD$ ->
     1059    20472    4        LX_ITEM.SYMBOL = %RSV_WRD_LEADING THEN
     1060    20473    4          REDUCED_DATA.SIGN.LOCATION = %SIGN_POS_LEADING;
     1061    20474    4        ELSE /* %RSV_WRD_TRAILING */
     1062    20475    4          REDUCED_DATA.SIGN.LOCATION = %SIGN_POS_TRAILING;
     1063    20476    4      ELSE
     1064    20477    5        DO CASE (REDUCED_DATA.USAGE.TYPE);
     1065    20478    5          CASE (%NO_USAGE);
     1066    20479    5            REDUCED_DATA.SIGN.LOCATION = O1COM.DISPLAY_SIGN_POS;
     1067    20480
     1068    20481    5          CASE (%RSV_WRD_COMP_4);
     1069    20482    5            REDUCED_DATA.SIGN.LOCATION = O1COM.COMP_4_SIGN_POS;
     1070    20483
     1071    20484    5          CASE (%RSV_WRD_COMP_8);
     1072    20485    5            REDUCED_DATA.SIGN.LOCATION = %SIGN_POS_LEADING;
     1073    20486
     1074    20487    5          CASE (ELSE);
     1075    20488    5            REDUCED_DATA.SIGN.LOCATION = %SIGN_POS_TRAILING;
     1076    20489    5        END; /* Case */
     1077    20490
     1078    20491    4      IF CDECL$ -> LX_REC_DECL.P.SIGN$ ~= ADDR(NIL)
     1079    20492    4      AND CDECL$ -> LX_REC_DECL.P.SIGN$ -> LX_LIST.TAIL$ ->
     1080    20493    4      LX_ITEM.SYMBOL = %RSV_WRD_SEPARATE THEN
     1081    20494    4        REDUCED_DATA.SIGN.TYPE     = %SIGN_TYPE_SEPARATE;
     1082    20495    4      ELSE
     1083    20496    5        DO CASE (REDUCED_DATA.USAGE.TYPE);
     1084    20497    5          CASE (%NO_USAGE);
     1085    20498    5            REDUCED_DATA.SIGN.TYPE = O1COM.DISPLAY_SIGN_TYPE;
     1086    20499
     1087    20500    5          CASE (%RSV_WRD_EBCDIC, %RSV_WRD_GBCD);
     1088    20501    5            REDUCED_DATA.SIGN.TYPE = %SIGN_TYPE_OVERPUNCH;
PL6.E3A0      #001=Z8DR$RECORD_DECL File=Z8DR.:Z8A6TSI                           SAT 08/09/97 11:18 Page:44
     1089    20502
     1090    20503    5          CASE (ELSE);
     1091    20504    5            REDUCED_DATA.SIGN.TYPE = %SIGN_TYPE_SEPARATE;
     1092    20505    5        END; /* Case */
     1093    20506
     1094    20507    4      IF CDECL$ -> LX_REC_DECL.P.SIGN$ ~= ADDR(NIL) THEN
     1095    20508    5        DO;
     1096    20509    5          REDUCED_DATA.B.SIGN_PRESENT  = TRUE;
     1097    20510    5          REDUCED_DATA.SIGN.LINE       = CDECL$ -> LX_REC_DECL.P.SIGN$ ->
     1098    20511    5                                         LX_LIST.HEAD$ -> LX_ITEM.LINE;
     1099    20512    5          REDUCED_DATA.SIGN.COLUMN     = CDECL$ -> LX_REC_DECL.P.SIGN$ ->
     1100    20513    5                                         LX_LIST.HEAD$ -> LX_ITEM.COLUMN;
     1101    20514    5        END;
     1102    20515
     1103    20516    4   END EXTRACT_SIGN;
     1104    20517        %EJECT;
PL6.E3A0      #001=Z8DR$RECORD_DECL File=Z8DR.:Z8A6TSI                           SAT 08/09/97 11:18 Page:45
     1105    20518        /*==============*/
     1106    20519    3     EXTRACT_OCCURS: PROC;
     1107    20520        /*==============*/
     1108    20521
     1109    20522    4   DCL OCCURS_INT1$              PTR;
     1110    20523    4   DCL OCCURS_INT2$              PTR;
     1111    20524
     1112    20525    4      OCCURS_INT1$ = CDECL$ -> LX_REC_DECL.P.OCCURS$ ->
     1113    20526    4                     LX_LIST.HEAD$ -> LX_LIST.HEAD$;
     1114    20527    4      OCCURS_INT2$ = CDECL$ -> LX_REC_DECL.P.OCCURS$ ->
     1115    20528    4                     LX_LIST.HEAD$ -> LX_LIST.HEAD$ -> LX_ITEM.LINK;
     1116    20529
     1117    20530    4      CALL CHARBIN (REDUCED_DATA.OCCURS.INT1,
     1118    20531    4                    OCCURS_INT1$ -> LX_TERMINAL.DNT$ -> DNT.TEXT.NAME);
     1119    20532
     1120    20533    4      IF OCCURS_INT2$ ~= ADDR(NIL) THEN
     1121    20534    4        CALL CHARBIN (REDUCED_DATA.OCCURS.INT2,
     1122    20535    4                      OCCURS_INT2$ -> LX_TERMINAL.DNT$ -> DNT.TEXT.NAME);
     1123    20536    4      ELSE
     1124    20537    4        REDUCED_DATA.OCCURS.INT2 = REDUCED_DATA.OCCURS.INT1;
     1125    20538
     1126    20539    4      REDUCED_DATA.OCCURS.DEPENDING$ = CDECL$ -> LX_REC_DECL.P.OCCURS$ ->
     1127    20540    4                                       LX_LIST.HEAD$ -> LX_LIST.LINK;
     1128    20541
     1129    20542    4   END EXTRACT_OCCURS;
     1130    20543        %EJECT;
PL6.E3A0      #001=Z8DR$RECORD_DECL File=Z8DR.:Z8A6TSI                           SAT 08/09/97 11:18 Page:46
     1131    20544
     1132    20545        /* Main Body */
     1133    20546
     1134    20547
     1135    20548
     1136    20549    3        CALL EXTRACT_LEVEL;
     1137    20550    3        CALL EXTRACT_USAGE;
     1138    20551
     1139    20552    3        IF CDECL$ -> LX_REC_DECL.P.PIC_CLAUSE$ ~= ADDR(NIL) THEN
     1140    20553    3          CALL EXTRACT_PIC;
     1141    20554
     1142    20555    3        CALL EXTRACT_SIGN;
     1143    20556
     1144    20557    3        IF CDECL$ -> LX_REC_DECL.P.OCCURS$ ~= ADDR(NIL) THEN
     1145    20558    3          CALL EXTRACT_OCCURS;
     1146    20559
     1147    20560    3   END DATA_REDUCTION;
     1148    20561        %EJECT;
PL6.E3A0      #001=Z8DR$RECORD_DECL File=Z8DR.:Z8A6TSI                           SAT 08/09/97 11:18 Page:47
     1149    20562        /*****************************************************************
     1150    20563         *                                                               *
     1151    20564         *                     RECORD_VALIDATION                    *
     1152    20565         *                                                               *
     1153    20566         *                     **********************                    *
     1154    20567         *                                                               *
     1155    20568         *****************************************************************/
     1156    20569        %EJECT;
PL6.E3A0      #001=Z8DR$RECORD_DECL File=Z8DR.:Z8A6TSI                           SAT 08/09/97 11:18 Page:48
     1157    20570        /*=================*/
     1158    20571    2     RECORD_VALIDATION: PROC;
     1159    20572        /*=================*/
     1160    20573
     1161    20574
     1162    20575        %EJECT;
PL6.E3A0      #001=Z8DR$RECORD_DECL File=Z8DR.:Z8A6TSI                           SAT 08/09/97 11:18 Page:49
     1163    20576
     1164    20577
     1165    20578        /* Internal Procedures */
     1166    20579
     1167    20580        /*============*/
     1168    20581    3     VERIFY_ORDER: PROC (DN2_ST$, DN3_ST$, RENAMES$) ALTRET;
     1169    20582        /*============*/
     1170    20583
     1171    20584    4   DCL RENAMES$           PTR;
     1172    20585    4   DCL DN2_ST$            PTR;
     1173    20586    4   DCL DN3_ST$            PTR;
     1174    20587
     1175    20588    4   DCL SEARCH_QLT$        PTR;
     1176    20589    4   DCL START_FOUND        BOOLEAN;
     1177    20590
     1178    20591
     1179    20592    4      START_FOUND = FALSE;
     1180    20593    4      SEARCH_QLT$ = HIER_STK.QLT$(1);
     1181    20594
     1182    20595    5      DO WHILE (SEARCH_QLT$ ~= ADDR(NIL));
     1183    20596    5        IF SEARCH_QLT$ -> QLT.ST$ = DN3_ST$
     1184    20597    5        AND START_FOUND THEN
     1185    20598    5          EXIT;
     1186    20599
     1187    20600    5        IF SEARCH_QLT$ -> QLT.ST$ = DN2_ST$ THEN
     1188    20601    5          START_FOUND = TRUE;
     1189    20602    5        ELSE
     1190    20603    5          IF SEARCH_QLT$ -> QLT.ST$ = DN3_ST$ THEN
     1191    20604    6            DO;
     1192    20605                   %CONDITIONAL_ERROR (@LX_ITEM$ = RENAMES$,
     1193    20606                                       @ERROR#   = %E$END_RENAMES_FOUND_FIRST,
     1194    20607                                       @LINE     = RENAMES$ -> LX_ITEM.LINE,
     1195    20608                                       @COLUMN   = RENAMES$ -> LX_ITEM.COLUMN);
     1196    20638    6              ALTRETURN;
     1197    20639    6            END;
     1198    20640
     1199    20641             %STEP_QLT (POINTER = SEARCH_QLT$);
PL6.E3A0      #001=Z8DR$RECORD_DECL File=Z8DR.:Z8A6TSI                           SAT 08/09/97 11:18 Page:50
     1200    20651    5      END; /* While -- search_qlt$ ~= addr(nil) */
     1201    20652
     1202    20653    4      IF SEARCH_QLT$ = ADDR(NIL) THEN
     1203    20654    5        DO;
     1204    20655               %CONDITIONAL_ERROR (@LX_ITEM$ = RENAMES$,
     1205    20656                                   @ERROR#   = %E$RENAME_MUST_FOLLOW_01,
     1206    20657                                   @LINE     = RENAMES$ -> LX_ITEM.LINE,
     1207    20658                                   @COLUMN   = RENAMES$ -> LX_ITEM.COLUMN);
     1208    20688    5          ALTRETURN;
     1209    20689    5        END;
     1210    20690
     1211    20691    4      SEARCH_QLT$ = SEARCH_QLT$ -> QLT.FATHER;
     1212    20692
     1213    20693    5      DO WHILE (SEARCH_QLT$ ~= ADDR(NIL));
     1214    20694    5        IF SEARCH_QLT$ -> QLT.ST$ -> ARRAY.ID = %ARRAY THEN
     1215    20695    6          DO;
     1216    20696                 %CONDITIONAL_ERROR (@LX_ITEM$ = RENAMES$,
     1217    20697                                     @ERROR#   = %E$OCCURS_IN_RENAMES,
     1218    20698                                     @LINE     = RENAMES$ -> LX_ITEM.LINE,
     1219    20699                                     @COLUMN   = RENAMES$ -> LX_ITEM.COLUMN);
     1220    20729    6            ALTRETURN;
     1221    20730    6          END;
     1222    20731    5        ELSE
     1223    20732    5          IF SEARCH_QLT$ -> QLT.ST$ = DN2_ST$ THEN
     1224    20733    6            DO;
     1225    20734                   %CONDITIONAL_ERROR (@LX_ITEM$ = RENAMES$,
     1226    20735                                       @ERROR#   = %E$RENAME_START_CONTAIN_END,
     1227    20736                                       @LINE     = RENAMES$ -> LX_ITEM.LINE,
     1228    20737                                       @COLUMN   = RENAMES$ -> LX_ITEM.COLUMN);
     1229    20767    6              ALTRETURN;
     1230    20768    6            END;
     1231    20769
     1232    20770    5        SEARCH_QLT$ = SEARCH_QLT$ -> QLT.FATHER;
     1233    20771    5      END; /* While -- search_qlt$ ~= addr(nil) */
     1234    20772
     1235    20773    4   END VERIFY_ORDER;
     1236    20774        %EJECT;
PL6.E3A0      #001=Z8DR$RECORD_DECL File=Z8DR.:Z8A6TSI                           SAT 08/09/97 11:18 Page:51
     1237    20775        /*==================*/
     1238    20776    3     CHECK_REDEF_OBJECT: PROC (TARGET_BRO$, OBJ_DNT$, OBJECT_ST$) ALTRET;
     1239    20777        /*==================*/
     1240    20778
     1241    20779    4   DCL TARGET_BRO$               PTR;
     1242    20780    4   DCL OBJ_DNT$                  PTR;
     1243    20781    4   DCL OBJECT_ST$                PTR;
     1244    20782
     1245    20783    4   DCL OBJ_BRO$                  PTR;
     1246    20784    4   DCL TARGET_FOUND              BOOLEAN;
     1247    20785
     1248    20786
     1249    20787    4      OBJECT_ST$ = OBJ_DNT$ -> DNT.ST$;
     1250    20788
     1251    20789    4   ST_SEARCH:
     1252    20790    5      DO WHILE (OBJECT_ST$ ~= ADDR(NIL));
     1253    20791    5        IF OBJECT_ST$ -> SCALAR.QLT$ -> QLT.LEVEL_NO
     1254    20792    5        ~= REDUCED_DATA.LEVEL.CURRENT THEN
     1255    20793    5          OBJECT_ST$ = OBJECT_ST$ -> SCALAR.NEXT;
     1256    20794    5        ELSE
     1257    20795    5          IF NOT OBJECT_ST$ -> SCALAR.B.REDEF_OBJ AND
     1258    20796    5             NOT ( COMCOM.OB.IBM  AND
     1259    20797    5                   OBJECT_ST$ -> SCALAR.B.REDEF_SUB ) THEN
     1260    20798    5            OBJECT_ST$ = OBJECT_ST$ -> SCALAR.NEXT;
     1261    20799    5          ELSE
     1262    20800    6            DO;
     1263    20801    6              OBJ_BRO$ = OBJECT_ST$ -> SCALAR.QLT$ -> QLT.BROTHER;
     1264    20802
     1265    20803    6   BRO_SEARCH:
     1266    20804    7              DO WHILE (OBJ_BRO$ ~= ADDR(NIL));
     1267    20805    7                IF OBJ_BRO$ = TARGET_BRO$
     1268    20806    7                  AND OBJ_BRO$ -> QLT.ST$ -> SCALAR.B.REDEF_SUB THEN
     1269    20807    7                  RETURN;
     1270    20808    7                ELSE
     1271    20809    7                  IF OBJ_BRO$ -> QLT.ST$ -> SCALAR.B.REDEF_SUB THEN
     1272    20810    7                    OBJ_BRO$ = OBJ_BRO$ -> QLT.BROTHER;
     1273    20811    7                  ELSE
PL6.E3A0      #001=Z8DR$RECORD_DECL File=Z8DR.:Z8A6TSI                           SAT 08/09/97 11:18 Page:52
     1274    20812    7                    EXIT BRO_SEARCH;
     1275    20813    7              END BRO_SEARCH;
     1276    20814
     1277    20815    6              OBJECT_ST$ = OBJECT_ST$ -> SCALAR.NEXT;
     1278    20816    6            END;
     1279    20817    5      END ST_SEARCH;
     1280    20818
     1281    20819    4      ALTRETURN;
     1282    20820
     1283    20821    4   END CHECK_REDEF_OBJECT;
     1284    20822        %EJECT;
PL6.E3A0      #001=Z8DR$RECORD_DECL File=Z8DR.:Z8A6TSI                           SAT 08/09/97 11:18 Page:53
     1285    20823        /*======================*/
     1286    20824    3     VERIFY_REDEF_PLACEMENT: PROC (REDEF$) ALTRET;
     1287    20825        /*======================*/
     1288    20826
     1289    20827    4   DCL REDEF$                    PTR;
     1290    20828
     1291    20829    4   DCL I                         SBIN WORD;
     1292    20830    4   DCL LEVEL_FOUND               BOOLEAN;
     1293    20831    4   DCL PLUG1$                    PTR;
     1294    20832
     1295    20833    4      LEVEL_FOUND = FALSE;
     1296    20834
     1297    20835    4   LEVEL_SEARCH:
     1298    20836    5      DO I = 1 TO HIER_STK_PTR;
     1299    20837    5        IF HIER_STK.LEVEL# (I) = REDUCED_DATA.LEVEL.CURRENT THEN
     1300    20838    6          DO;
     1301    20839    6            LEVEL_FOUND = TRUE;
     1302    20840    6            EXIT LEVEL_SEARCH;
     1303    20841    6          END;
     1304    20842    5      END;
     1305    20843
     1306    20844    4      IF NOT LEVEL_FOUND THEN
     1307    20845    5        DO;
     1308    20846    5          PLUG1$ = CDECL$ -> LX_REC_DECL.P.DATA_NAME$ -> LX_ITEM.DNT$;
     1309    20847
     1310    20848               %CONDITIONAL_ERROR (@LX_ITEM$ = REDEF$,
     1311    20849                                   @ERROR#   = %E$NON_MATCH_REDEF_LEVEL,
     1312    20850                                   @LINE     = REDEF$ -> LX_ITEM.LINE,
     1313    20851                                   @COLUMN   = REDEF$ -> LX_ITEM.COLUMN,
     1314    20852                                   @PLUG1    = PLUG1$,
     1315    20853                                   @PLUG2    = REDEF$ -> LX_ITEM.DNT$);
     1316    20883    5          ALTRETURN;
     1317    20884    5        END;
     1318    20885    4      ELSE
     1319    20886    4        IF HIER_STK.QLT$ (I) -> QLT.ST$ -> SCALAR.DNT$ = REDEF$ -> LX_ITEM.DNT$ THEN
     1320    20887    4          REDUCED_DATA.REDEFINES.OBJECT$ = HIER_STK.QLT$ (I) -> QLT.ST$;
     1321    20888    4        ELSE
PL6.E3A0      #001=Z8DR$RECORD_DECL File=Z8DR.:Z8A6TSI                           SAT 08/09/97 11:18 Page:54
     1322    20889    4          IF REDEF$ -> LX_ITEM.DNT$ -> DNT.ST$ -> ST.ID ~= %SCALAR AND
     1323    20890    4             REDEF$ -> LX_ITEM.DNT$ -> DNT.ST$ -> ST.ID ~= %ARRAY THEN
     1324    20891    5              DO;
     1325    20892    5                REDUCED_DATA.REDEFINES.OBJECT$ = ADDR(NIL);
     1326    20893
     1327    20894    5                CALL Z8AE$ERROR (%E$ILLEGAL_SYMBOL,
     1328    20895    5                                 REDEF$ -> LX_ITEM.LINE,
     1329    20896    5                                 REDEF$ -> LX_ITEM.COLUMN,
     1330    20897    5                                 REDEF$ -> LX_ITEM.DNT$);
     1331    20898    5                ALTRETURN;
     1332    20899    5              END;
     1333    20900    4            ELSE
     1334    20901
     1335    20902    4          CALL CHECK_REDEF_OBJECT (HIER_STK.QLT$ (I),
     1336    20903    4                                   REDEF$ -> LX_ITEM.DNT$,
     1337    20904    4                                   REDUCED_DATA.REDEFINES.OBJECT$)
     1338    20905    4            WHENALTRETURN
     1339    20906    5              DO;
     1340    20907    5                REDUCED_DATA.REDEFINES.OBJECT$ = ADDR(NIL);
     1341    20908
     1342    20909                     %CONDITIONAL_ERROR (@LX_ITEM$ = REDEF$,
     1343    20910                                         @ERROR#   = %E$NON_ADJACENT_REDEF,
     1344    20911                                         @LINE     = REDEF$ -> LX_ITEM.LINE,
     1345    20912                                         @COLUMN   = REDEF$ -> LX_ITEM.COLUMN);
     1346    20942    5                ALTRETURN;
     1347    20943    5              END;
     1348    20944
     1349    20945    4      IF REDUCED_DATA.REDEFINES.OBJECT$ -> ARRAY.ID = %ARRAY THEN
     1350    20946    5        DO;
     1351    20947    5          REDUCED_DATA.REDEFINES.OBJECT$ = ADDR(NIL);
     1352    20948               %CONDITIONAL_ERROR (@LX_ITEM$ = REDEF$,
     1353    20949                                   @ERROR#   = %E$OCCURS_IN_REDEF,
     1354    20950                                   @LINE     = REDEF$ -> LX_ITEM.LINE,
     1355    20951                                   @COLUMN   = REDEF$ -> LX_ITEM.COLUMN);
     1356    20981    5          ALTRETURN;
     1357    20982    5        END;
     1358    20983
PL6.E3A0      #001=Z8DR$RECORD_DECL File=Z8DR.:Z8A6TSI                           SAT 08/09/97 11:18 Page:55
     1359    20984    4      IF REDUCED_DATA.REDEFINES.OBJECT$ -> SCALAR.B.REDEF_SUB THEN
     1360    20985    4        IF NOT COMCOM.OB.IBM THEN
     1361    20986    5          DO;
     1362    20987                 %CONDITIONAL_ERROR (@LX_ITEM$ = REDEF$,
     1363    20988                                     @ERROR#   = %E$REDEF_REDEF_ERROR,
     1364    20989                                     @LINE     = REDEF$ -> LX_TERMINAL.LINE,
     1365    20990                                     @COLUMN   = REDEF$ -> LX_TERMINAL.COLUMN);
     1366    21020    5            ALTRETURN;
     1367    21021    5          END;
     1368    21022
     1369    21023    4      RETURN;
     1370    21024
     1371    21025
     1372    21026    4   END VERIFY_REDEF_PLACEMENT;
     1373    21027        %EJECT;
PL6.E3A0      #001=Z8DR$RECORD_DECL File=Z8DR.:Z8A6TSI                           SAT 08/09/97 11:18 Page:56
     1374    21028        /*=================*/
     1375    21029    3     INIT_VALUE_CLAUSE: PROC (LX_LIST1$, LX_LIST2$, LX_ITEM$, RETURN$,
     1376    21030    3   /*=================*/                                      RSV_WRD#);
     1377    21031
     1378    21032    4   DCL LX_LIST1$                 PTR;
     1379    21033    4   DCL LX_LIST2$                 PTR;
     1380    21034    4   DCL RETURN$                   PTR;
     1381    21035    4   DCL LX_ITEM$                  PTR;
     1382    21036    4   DCL RSV_WRD#                  UBIN WORD;
     1383    21037
     1384    21038           %INIT_LX_LIST (@POINTER    = LX_LIST1$);
     1385    21048
     1386    21049    4      LX_LIST1$ -> LX_LIST.HEAD$ = LX_LIST2$;
     1387    21050    4      LX_LIST1$ -> LX_LIST.TAIL$ = LX_LIST2$;
     1388    21051    4      LX_LIST1$ -> LX_LIST.COUNT = 1;
     1389    21052
     1390    21053           %INIT_LX_LIST (@POINTER    = LX_LIST2$);
     1391    21063
     1392    21064    4      LX_LIST2$ -> LX_LIST.HEAD$ = LX_ITEM$;
     1393    21065    4      LX_LIST2$ -> LX_LIST.TAIL$ = LX_ITEM$;
     1394    21066    4      LX_LIST2$ -> LX_LIST.COUNT = 1;
     1395    21067
     1396    21068           %INIT_LX_TERMINAL (@POINTER= LX_ITEM$,
     1397    21069                              @SYMBOL = RSV_WRD#,
     1398    21070                              @DNT$   = "DNT$_FROM_RSWNO (RSV_WRD#)");
     1399    21088
     1400    21089    4      RETURN$                    = LX_LIST1$;
     1401    21090
     1402    21091    4   END INIT_VALUE_CLAUSE;
     1403    21092        %EJECT;
PL6.E3A0      #001=Z8DR$RECORD_DECL File=Z8DR.:Z8A6TSI                           SAT 08/09/97 11:18 Page:57
     1404    21093        /*======================*/
     1405    21094    3     REDEF_AND_OCCURS_CHECK: PROC (VALUE$) ALTRET;
     1406    21095        /*======================*/
     1407    21096
     1408    21097    4   DCL VALUE$             PTR;
     1409    21098
     1410    21099    4   DCL I                  SBIN WORD;
     1411    21100    4   DCL J                  SBIN WORD;
     1412    21101
     1413    21102    4      IF REDUCED_DATA.LEVEL.CURRENT > REDUCED_DATA.LEVEL.PREVIOUS THEN
     1414    21103    4        I = HIER_STK_PTR + 1;                                 /*#39132*/
     1415    21104    4      ELSE
     1416    21105    5        DO;
     1417    21106    5          I = 1;
     1418    21107
     1419    21108    5          IF REDUCED_DATA.LEVEL.CURRENT ~= %LEVEL_01 THEN
     1420    21109    6            DO UNTIL (HIER_STK.LEVEL#(I) >= REDUCED_DATA.LEVEL.CURRENT);
     1421    21110    6              I = I + 1;
     1422    21111    6            END;
     1423    21112    5        END;
     1424    21113
     1425    21114    5      DO J = I - 1 DOWNTO 1;
     1426    21115          /*
     1427    21116             IF HIER_STK.DIMS$(J) ~= ADDR(NIL) THEN
     1428    21117               DO;
     1429    21118                 %CONDITIONAL_ERROR (@LX_ITEM$ = VALUE$,
     1430    21119                                     @ERROR#   = %E$VALUE_AND_OCCURS,
     1431    21120                                     @LINE     = VALUE$ -> LX_ITEM.LINE,
     1432    21121                                     @COLUMN   = VALUE$ -> LX_ITEM.COLUMN);
     1433    21122                 ALTRETURN;
     1434    21123               END;
     1435    21124          */
     1436    21125
     1437    21126    5        IF HIER_STK.QLT$ (J) -> QLT.ST$ -> VARIABLE.B.REDEF_SUB AND
     1438    21127    5            (O1COM.DATA_DECL_CONTEXT ~= %FILE_DESCRIPTION OR J > 1) THEN
     1439    21128    6          DO;
     1440    21129                 %CONDITIONAL_ERROR (@LX_ITEM$ = VALUE$,
PL6.E3A0      #001=Z8DR$RECORD_DECL File=Z8DR.:Z8A6TSI                           SAT 08/09/97 11:18 Page:58
     1441    21130                                     @ERROR#   = %E$VALUE_AND_REDEFINES,
     1442    21131                                     @LINE     = VALUE$ -> LX_ITEM.LINE,
     1443    21132                                     @COLUMN   = VALUE$ -> LX_ITEM.COLUMN);
     1444    21162    6            ALTRETURN;
     1445    21163    6          END;
     1446    21164    5      END;
     1447    21165
     1448    21166    4   END REDEF_AND_OCCURS_CHECK;
     1449    21167        %EJECT;
PL6.E3A0      #001=Z8DR$RECORD_DECL File=Z8DR.:Z8A6TSI                           SAT 08/09/97 11:18 Page:59
     1450    21168        /*================*/
     1451    21169    3     VALUE_IS_LITERAL: PROC (VALUE$);
     1452    21170        /*================*/
     1453    21171
     1454    21172    4   DCL VALUE$             PTR;
     1455    21173
     1456    21174    4   DCL I                  SBIN WORD;
     1457    21175        %DCL_NUM_DESC (@STRN = NUM_DESC);
     1458    21184
     1459    21185    5      DO CASE(VALUE$ -> LX_ITEM.SYMBOL);
     1460    21186
     1461    21187    5        CASE(%NUMERIC_LITERAL);
     1462    21188    5          IF REDUCED_DATA.B.PIC_CLAUSE THEN
     1463    21189    6            DO;
     1464    21190    6              CALL Z8AU$CREATE_NUM_DESC (VALUE$ -> LX_ITEM.DNT$ -> DNT.TEXT.NAME,
     1465    21191    6                          BINBIT(VALUE$ -> LX_ITEM.DNT$ -> DNT.TEXT.LENGTH,36),
     1466    21192    6                          NUM_DESC);
     1467    21193
     1468    21194    6              IF NUM_DESC.MANTISSA_SIGN_VALUE ~= %NO_SIGN_VALUE THEN
     1469    21195    6                IF PIC_OUT.EIS_TYPE = %PIC_EIS_NS THEN
     1470    21196                       %CONDITIONAL_ERROR (@LX_ITEM$ = VALUE$,
     1471    21197                                           @ERROR#   = %E$PIC_MUST_HAVE_SIGN,
     1472    21198                                           @LINE     = VALUE$ -> LX_ITEM.LINE,
     1473    21199                                           @COLUMN   = VALUE$ -> LX_ITEM.COLUMN);
     1474    21229
     1475    21230    6              IF PIC_OUT.TYPE ~= %PIC_TY_N THEN
     1476    21231                     %CONDITIONAL_ERROR (@ERROR#   = %E$NUM_CONST_W_ALPHA_ITEM,
     1477    21232                                         @LX_ITEM$ = VALUE$,
     1478    21233                                         @LINE     = VALUE$ -> LX_ITEM.LINE,
     1479    21234                                         @COLUMN   = VALUE$ -> LX_ITEM.COLUMN);
     1480    21264    6            END;
     1481    21265
     1482    21266    5        CASE(%NUMBER, %NUMBER_OR_PARAGRAPH);
     1483    21267    5          IF REDUCED_DATA.B.PIC_CLAUSE THEN
     1484    21268    6            DO;
     1485    21269    6              IF PIC_OUT.TYPE ~= %PIC_TY_N THEN
     1486    21270                     %CONDITIONAL_ERROR (@ERROR#   = %E$NUM_CONST_W_ALPHA_ITEM,
PL6.E3A0      #001=Z8DR$RECORD_DECL File=Z8DR.:Z8A6TSI                           SAT 08/09/97 11:18 Page:60
     1487    21271                                         @LX_ITEM$ = VALUE$,
     1488    21272                                         @LINE     = VALUE$ -> LX_ITEM.LINE,
     1489    21273                                         @COLUMN   = VALUE$ -> LX_ITEM.COLUMN);
     1490    21303    6            END;
     1491    21304
     1492    21305    5        CASE(%RSV_WRD_ZEROES);
     1493    21306               /* Peachy */
     1494    21307    5      ;
     1495    21308    5        CASE(%ALPHA_LITERAL,     %RSV_WRD_HIGH_VALUES,
     1496    21309    5             %RSV_WRD_SPACES,    %RSV_WRD_LOW_VALUES,
     1497    21310    5             %RSV_WRD_QUOTES,    %SINGLE_QUOTE);
     1498    21311    5          IF (REDUCED_DATA.USAGE.TYPE ~= %NO_USAGE
     1499    21312    5               AND REDUCED_DATA.USAGE.TYPE ~= %RSV_WRD_EBCDIC
     1500    21313    5               AND REDUCED_DATA.USAGE.TYPE ~= %RSV_WRD_GBCD)
     1501    21314    5          OR (REDUCED_DATA.B.PIC_CLAUSE
     1502    21315    5          AND PIC_OUT.TYPE = %PIC_TY_N) THEN
     1503    21316    6            DO;
     1504    21317    6              IF REDUCED_DATA.USAGE.TYPE = %RSV_WRD_POINTER THEN
     1505    21318                     %CONDITIONAL_ERROR (@ERROR#   = %E$CLAUSE_NOT_VALID,
     1506    21319                                         @LX_ITEM$ = VALUE$,
     1507    21320                                         @LINE     = VALUE$ -> LX_ITEM.LINE,
     1508    21321                                         @COLUMN   = VALUE$ -> LX_ITEM.COLUMN,
     1509    21322                                         @PLUG1 = "DNT$_FROM_RSWNO(%RSV_WRD_USAGE)");
     1510    21352    6              ELSE
     1511    21353                     %CONDITIONAL_ERROR (@ERROR#   = %E$ILLEGAL_CHARS_IN_VALUE,
     1512    21354                                         @LX_ITEM$ = VALUE$,
     1513    21355                                         @LINE     = VALUE$ -> LX_ITEM.LINE,
     1514    21356                                         @COLUMN   = VALUE$ -> LX_ITEM.COLUMN);
     1515    21386                   %DELETE_CLAUSE (@CLAUSE$ = VALUE$);
     1516    21391    6            END; /* END DO */
     1517    21392
     1518    21393    5        CASE(%RSV_WRD_NULL);
     1519    21394    5          IF REDUCED_DATA.B.ELEMENTARY AND
     1520    21395    5             REDUCED_DATA.USAGE.TYPE ~= %RSV_WRD_POINTER THEN
     1521    21396    6            DO;
     1522    21397                   %CONDITIONAL_ERROR (@ERROR#   = %E$CLAUSE_NOT_VALID,
     1523    21398                                       @LX_ITEM$ = VALUE$,
PL6.E3A0      #001=Z8DR$RECORD_DECL File=Z8DR.:Z8A6TSI                           SAT 08/09/97 11:18 Page:61
     1524    21399                                       @LINE     = VALUE$ -> LX_ITEM.LINE,
     1525    21400                                       @COLUMN   = VALUE$ -> LX_ITEM.COLUMN,
     1526    21401                                       @PLUG1 = "DNT$_FROM_RSWNO(%RSV_WRD_USAGE)");
     1527    21431                   %DELETE_CLAUSE (@CLAUSE$ = VALUE$);
     1528    21436    6            END; /* END DO */
     1529    21437    5          ELSE
     1530    21438    5            IF NOT REDUCED_DATA.B.ELEMENTARY THEN
     1531    21439    6              DO;
     1532    21440                     %CONDITIONAL_ERROR (@ERROR#   = %E$VALUE_NUMERIC_ERR,
     1533    21441                                         @LX_ITEM$ = VALUE$,
     1534    21442                                         @LINE     = VALUE$ -> LX_ITEM.LINE,
     1535    21443                                         @COLUMN   = VALUE$ -> LX_ITEM.COLUMN,
     1536    21444                                         @PLUG1 = "DNT$_FROM_RSWNO(%RSV_WRD_USAGE)");
     1537    21474                     %DELETE_CLAUSE (@CLAUSE$ = VALUE$);
     1538    21479    6              END; /* END DO */
     1539    21480    5        CASE(ELSE);
     1540    21481    5          CALL Z8AE$ERROR (%E$UNEXPECTED_CASE);
     1541    21482               %DELETE_CLAUSE (@CLAUSE$ = VALUE$);
     1542    21487    5          RETURN;
     1543    21488
     1544    21489    5      END; /* Case -- value$ -> lx_item.symbol */
     1545    21490
     1546    21491
     1547    21492    4      IF REDUCED_DATA.USAGE.TYPE = %RSV_WRD_POINTER THEN
     1548    21493    4        IF VALUE$ ~= ADDR(NIL) AND
     1549    21494    4          VALUE$ -> LX_ITEM.SYMBOL ~= %RSV_WRD_NULL THEN
     1550    21495    5          DO;
     1551    21496                 %CONDITIONAL_ERROR (@ERROR#   = %E$CLAUSE_NOT_VALID,
     1552    21497                                     @LX_ITEM$ = VALUE$,
     1553    21498                                     @LINE     = VALUE$ -> LX_ITEM.LINE,
     1554    21499                                     @COLUMN   = VALUE$ -> LX_ITEM.COLUMN,
     1555    21500                                     @PLUG1 = "DNT$_FROM_RSWNO(%RSV_WRD_USAGE)");
     1556    21530                 %DELETE_CLAUSE     (@CLAUSE$  = VALUE$);
     1557    21535    5            RETURN;
     1558    21536    5          END;
     1559    21537
     1560    21538
PL6.E3A0      #001=Z8DR$RECORD_DECL File=Z8DR.:Z8A6TSI                           SAT 08/09/97 11:18 Page:62
     1561    21539    4      CALL REDEF_AND_OCCURS_CHECK (VALUE$)
     1562    21540    4        WHENALTRETURN
     1563    21541    5          DO;
     1564    21542                 %DELETE_CLAUSE (@CLAUSE$ = VALUE$);
     1565    21547    5            RETURN;
     1566    21548    5          END;
     1567    21549
     1568    21550    4      IF CDECL$ -> LX_REC_DECL.P.REDEFINES$ ~= ADDR(NIL) THEN
     1569    21551    5        DO;
     1570    21552               %CONDITIONAL_ERROR (@ERROR#   = %E$VALUE_AND_REDEFINES,
     1571    21553                                   @LX_ITEM$ = VALUE$,
     1572    21554                                   @LINE     = VALUE$ -> LX_ITEM.LINE,
     1573    21555                                   @COLUMN   = VALUE$ -> LX_ITEM.COLUMN);
     1574    21585               %DELETE_CLAUSE (@CLAUSE$ = VALUE$);
     1575    21590    5        END;
     1576    21591
     1577    21592    4      IF CDECL$ -> LX_REC_DECL.P.RENAMES$ ~= ADDR(NIL) THEN
     1578    21593    5        DO;
     1579    21594               %CONDITIONAL_ERROR (@ERROR#   = %E$CLAUSE_NOT_VALID,
     1580    21595                                   @LX_ITEM$ = VALUE$,
     1581    21596                                   @LINE     = VALUE$ -> LX_ITEM.LINE,
     1582    21597                                   @COLUMN   = VALUE$ -> LX_ITEM.COLUMN,
     1583    21598                                   @PLUG1    = "DNT$_FROM_RSWNO(%RSV_WRD_RENAMES)");
     1584    21628               %DELETE_CLAUSE (@CLAUSE$ = VALUE$);
     1585    21633    5        END;
     1586    21634
     1587    21635    4   END VALUE_IS_LITERAL;
     1588    21636        %EJECT;
PL6.E3A0      #001=Z8DR$RECORD_DECL File=Z8DR.:Z8A6TSI                           SAT 08/09/97 11:18 Page:63
     1589    21637        /*==============*/
     1590    21638    3     VALIDATE_USAGE: PROC;
     1591    21639        /*==============*/
     1592    21640
     1593    21641
     1594    21642    4   DCL USAGE$                    PTR;
     1595    21643    4   DCL LINE#                     SBIN WORD;
     1596    21644    4   DCL COLUMN#                   SBIN WORD;
     1597    21645    4   DCL PLUG$                     PTR;
     1598    21646    4   DCL STK_OBJ                   SBIN WORD;
     1599    21647    4   DCL I                         SBIN WORD;
     1600    21648
     1601    21649    4      IF CDECL$ -> LX_REC_DECL.P.RENAMES$ ~= ADDR(NIL) THEN
     1602    21650    5        DO;
     1603    21651    5          IF CDECL$ -> LX_REC_DECL.P.USAGE$ ~= ADDR(NIL) THEN
     1604    21652    6            DO;
     1605    21653    6              USAGE$ = CDECL$ -> LX_REC_DECL.P.USAGE$;
     1606    21654
     1607    21655                   %CONDITIONAL_ERROR (@LX_ITEM$ = USAGE$,
     1608    21656                                      @ERROR#   = %E$CLAUSE_NOT_VALID,
     1609    21657                                      @LINE     = USAGE$ -> LX_ITEM.LINE,
     1610    21658                                      @COLUMN   = USAGE$ -> LX_ITEM.COLUMN,
     1611    21659                                      @PLUG1    = "DNT$_FROM_RSWNO(%RSV_WRD_RENAMES)");
     1612    21689
     1613    21690                   %DELETE_CLAUSE (@CLAUSE$ = USAGE$);
     1614    21695    6            END;
     1615    21696
     1616    21697    5          RETURN;
     1617    21698    5        END;
     1618    21699
     1619    21700    4      IF REDUCED_DATA.B.ELEMENTARY THEN
     1620    21701    4        IF REDUCED_DATA.USAGE.TYPE                      = %NO_USAGE
     1621    21702    4        AND GROUP.USAGE.TYPE                            = %NO_USAGE
     1622    21703    4        AND CDECL$ -> LX_REC_DECL.P.PIC_CLAUSE$  = ADDR(NIL) THEN
     1623    21704    5          DO;
     1624    21705    5            LINE# = CDECL$ -> LX_REC_DECL.P.LEVEL_NO$ ->
     1625    21706    5                    LX_ITEM.LINE;
PL6.E3A0      #001=Z8DR$RECORD_DECL File=Z8DR.:Z8A6TSI                           SAT 08/09/97 11:18 Page:64
     1626    21707    5            COLUMN# = CDECL$ -> LX_REC_DECL.P.LEVEL_NO$ ->
     1627    21708    5                      LX_ITEM.COLUMN;
     1628    21709    5            PLUG$ = CDECL$ -> LX_REC_DECL.P.DATA_NAME$ ->
     1629    21710    5                    LX_ITEM.DNT$;
     1630    21711
     1631    21712    5            CALL Z8AE$ERROR (%E$NO_PIC_USAGE_OR_GROUP,
     1632    21713    5                             LINE#,
     1633    21714    5                             COLUMN#,
     1634    21715    5                             PLUG$);
     1635    21716                 %DEFAULT_PIC;
     1636    21731    5            REDUCED_DATA.USAGE.TYPE = %NO_USAGE;
     1637    21732    5          END;
     1638    21733
     1639    21734    4      IF GROUP.USAGE.TYPE ~= REDUCED_DATA.USAGE.TYPE THEN
     1640    21735    4        IF REDUCED_DATA.USAGE.TYPE ~= %NO_USAGE
     1641    21736    4        AND GROUP.USAGE.TYPE       ~= %NO_USAGE THEN
     1642    21737    5          DO;
     1643    21738    5            USAGE$  = CDECL$ -> LX_REC_DECL.P.USAGE$;
     1644    21739    5            LINE#   = USAGE$ -> LX_ITEM.LINE;
     1645    21740    5            COLUMN# = USAGE$ -> LX_ITEM.COLUMN;
     1646    21741    5            PLUG$   = CDECL$ -> LX_REC_DECL.P.DATA_NAME$ -> LX_ITEM.DNT$;
     1647    21742
     1648    21743                 %CONDITIONAL_ERROR (@LX_ITEM$ = USAGE$,
     1649    21744                                     @ERROR#   = %E$CONFLICT_USAGE_CLAUSES,
     1650    21745                                     @LINE     = LINE#,
     1651    21746                                     @COLUMN   = COLUMN#,
     1652    21747                                     @PLUG1    = PLUG$);
     1653    21777    5            REDUCED_DATA.USAGE.TYPE = GROUP.USAGE.TYPE;
     1654    21778    5          END;
     1655    21779
     1656    21780    4      IF COMCOM.OB.FIPS.LEVEL >= %HIGH_LEV THEN
     1657    21781    5        DO CASE(REDUCED_DATA.USAGE.TYPE);
     1658    21782    5          CASE(%RSV_WRD_COMP, %NO_USAGE);
     1659    21783    5            /* Peachy */;
     1660    21784
     1661    21785    5          CASE(ELSE);
     1662    21786    5            USAGE$ = CDECL$ -> LX_REC_DECL.P.USAGE$;
PL6.E3A0      #001=Z8DR$RECORD_DECL File=Z8DR.:Z8A6TSI                           SAT 08/09/97 11:18 Page:65
     1663    21787    6            IF USAGE$ = ADDR (NIL) THEN DO;
     1664    21788    6              LINE# = CDECL$ -> LX_REC_DECL.P.DATA_NAME$ -> LX_ITEM.LINE;
     1665    21789    6              CALL Z8AE$ERROR (%E$COMP_AND_DISPLAY_IN_ANSI,LINE#,0);
     1666    21790    6            END;
     1667    21791    6            ELSE DO;
     1668    21792    6              LINE#  = USAGE$ -> LX_ITEM.LINE;
     1669    21793    6              COLUMN#= USAGE$ -> LX_ITEM.COLUMN;
     1670    21794
     1671    21795                   %CONDITIONAL_ERROR (@LX_ITEM$ = USAGE$,
     1672    21796                                       @ERROR#   = %E$COMP_AND_DISPLAY_IN_ANSI,
     1673    21797                                       @LINE     = LINE#,
     1674    21798                                       @COLUMN   = COLUMN#);
     1675    21828    6            END;
     1676    21829    5        END; /* Case */
     1677    21830
     1678    21831    5      DO CASE (REDUCED_DATA.USAGE.TYPE);
     1679    21832
     1680    21833    5        CASE (%RSV_WRD_COMP,  %RSV_WRD_COMP_3, %RSV_WRD_COMP_4,
     1681    21834    5              %RSV_WRD_COMP_5, %RSV_WRD_COMP_8);
     1682    21835    5          IF REDUCED_DATA.B.ELEMENTARY THEN
     1683    21836    5            IF CDECL$ -> LX_REC_DECL.P.PIC_CLAUSE$ = ADDR(NIL) THEN
     1684    21837    6              DO;
     1685    21838    6                LINE#   = CDECL$ -> LX_REC_DECL.P.DATA_NAME$ ->
     1686    21839    6                          LX_ITEM.LINE;
     1687    21840    6                COLUMN# = CDECL$ -> LX_REC_DECL.P.DATA_NAME$ ->
     1688    21841    6                          LX_ITEM.COLUMN;
     1689    21842
     1690    21843    6                PLUG$ = CDECL$ -> LX_REC_DECL.P.DATA_NAME$ ->
     1691    21844    6                        LX_ITEM.DNT$;
     1692    21845    6                USAGE$ = CDECL$ -> LX_REC_DECL.P.USAGE$;
     1693    21846
     1694    21847    6                IF USAGE$ = ADDR (NIL) THEN
     1695    21848    6                  CALL Z8AE$ERROR (%E$MISSING_DATA_PIC_CLAUSE, LINE#,
     1696    21849    6                      COLUMN#, PLUG$);
     1697    21850    6                ELSE
     1698    21851                       %CONDITIONAL_ERROR (@LX_ITEM$ = USAGE$,
     1699    21852                                           @ERROR#   = %E$MISSING_DATA_PIC_CLAUSE,
PL6.E3A0      #001=Z8DR$RECORD_DECL File=Z8DR.:Z8A6TSI                           SAT 08/09/97 11:18 Page:66
     1700    21853                                           @LINE     = LINE#,
     1701    21854                                           @COLUMN   = COLUMN#,
     1702    21855                                           @PLUG1    = PLUG$);
     1703    21885
     1704    21886                     %DEFAULT_PIC;
     1705    21901    6              END;
     1706    21902
     1707    21903    5        CASE (%RSV_WRD_DB_KEY);
     1708    21904
     1709    21905    5           IF  (CDECL$ -> LX_REC_DECL.P.SYNC$ ~= ADDR(NIL))   OR
     1710    21906    5               (CDECL$ -> LX_REC_DECL.P.PIC_CLAUSE$ ~= ADDR(NIL))    OR
     1711    21907    5               (CDECL$ -> LX_REC_DECL.P.JUSTIFIED$ ~= ADDR(NIL))   OR
     1712    21908    5               (CDECL$ -> LX_REC_DECL.P.VALUE$ ~= ADDR(NIL) ) OR
     1713    21909    6               (CDECL$ -> LX_REC_DECL.P.BLANK$ ~= ADDR(NIL) )     THEN DO;
     1714    21910
     1715    21911    6             USAGE$ = CDECL$ -> LX_REC_DECL.P.USAGE$;
     1716    21912    7             IF USAGE$ = ADDR (NIL) THEN DO;
     1717    21913    7               LINE# = CDECL$ -> LX_REC_DECL.P.DATA_NAME$ -> LX_ITEM.LINE;
     1718    21914    7               CALL Z8AE$ERROR (%E$INVALID_CLAUSE_FOR_DB_KEY, LINE#, 0);
     1719    21915    7             END;
     1720    21916    6             ELSE
     1721    21917                    %CONDITIONAL_ERROR (@LX_ITEM$ = USAGE$,
     1722    21918                                 @ERROR#   = %E$INVALID_CLAUSE_FOR_DB_KEY,
     1723    21919                                 @LINE     = USAGE$ -> LX_ITEM.LINE,
     1724    21920                                 @COLUMN   = USAGE$ -> LX_ITEM.COLUMN);
     1725    21950    6             END;
     1726    21951
     1727    21952    5        CASE (ELSE);
     1728    21953
     1729    21954    5      END; /* CASE */
     1730    21955    4      IF REDUCED_DATA.USAGE.TYPE = %RSV_WRD_INDEX
     1731    21956    4      AND O1COM.DATA_DECL_CONTEXT = %CONSTANT_SECTION THEN
     1732    21957    5        DO;
     1733    21958    5          USAGE$ = CDECL$ -> LX_REC_DECL.P.USAGE$;
     1734    21959
     1735    21960               %CONDITIONAL_ERROR (@LX_ITEM$ = USAGE$,
     1736    21961                                   @ERROR#   = %E$INDEX_IN_CONSTANT_SECT,
PL6.E3A0      #001=Z8DR$RECORD_DECL File=Z8DR.:Z8A6TSI                           SAT 08/09/97 11:18 Page:67
     1737    21962                                   @LINE     = USAGE$ -> LX_ITEM.LINE,
     1738    21963                                   @COLUMN   = USAGE$ -> LX_ITEM.COLUMN);
     1739    21993
     1740    21994    5          REDUCED_DATA.USAGE.TYPE = %NO_USAGE;
     1741    21995               %DEFAULT_PIC;
     1742    22010    5        END;
     1743    22011
     1744    22012    4      IF REDUCED_DATA.LEVEL.CURRENT <= REDUCED_DATA.LEVEL.PREVIOUS
     1745    22013    4        THEN
     1746    22014    4          CALL FIND_HIER_INDEX(REDUCED_DATA.LEVEL.CURRENT,STK_OBJ);
     1747    22015    4        ELSE
     1748    22016    4          STK_OBJ = HIER_STK_PTR + 1;
     1749    22017
     1750    22018    5      DO I = 1 TO STK_OBJ - 1;
     1751    22019    5        IF HIER_STK.B.CONDITION_OBJ (I)  THEN
     1752    22020    5          IF REDUCED_DATA.USAGE.TYPE ~= %NO_USAGE  AND
     1753    22021    5             REDUCED_DATA.USAGE.TYPE ~= %RSV_WRD_DISPLAY THEN
     1754    22022    6            DO;
     1755    22023    6              USAGE$ = CDECL$ -> LX_REC_DECL.P.USAGE$;
     1756    22024
     1757    22025    7              IF USAGE$ = ADDR (NIL) THEN DO;
     1758    22026    7                LINE# = CDECL$ -> LX_REC_DECL.P.DATA_NAME$ -> LX_ITEM.LINE;
     1759    22027    7                CALL Z8AE$ERROR (%E$DISPLAY_ONLY_IN_COND_GROUP, LINE#, 0);
     1760    22028    7              END;
     1761    22029    6              ELSE
     1762    22030                     %CONDITIONAL_ERROR (@LX_ITEM$ = USAGE$,
     1763    22031                                         @ERROR#   = %E$DISPLAY_ONLY_IN_COND_GROUP,
     1764    22032                                         @LINE     = USAGE$ -> LX_ITEM.LINE,
     1765    22033                                         @COLUMN   = USAGE$ -> LX_ITEM.COLUMN);
     1766    22063
     1767    22064    6              REDUCED_DATA.USAGE.TYPE = %NO_USAGE;
     1768    22065                   %DEFAULT_PIC;
     1769    22080    6              RETURN;
     1770    22081    6            END;
     1771    22082    5        IF HIER_STK.B.VALUE_PRESENTED(I)  THEN
     1772    22083    5          IF REDUCED_DATA.USAGE.TYPE ~= %NO_USAGE  AND
     1773    22084    5             REDUCED_DATA.USAGE.TYPE ~= %RSV_WRD_DISPLAY AND
PL6.E3A0      #001=Z8DR$RECORD_DECL File=Z8DR.:Z8A6TSI                           SAT 08/09/97 11:18 Page:68
     1774    22085    5             CDECL$ -> LX_REC_DECL.P.USAGE$ ~= ADDR(NIL) THEN  /*#27931*/
     1775    22086    6            DO;
     1776    22087    6              USAGE$ = CDECL$ -> LX_REC_DECL.P.USAGE$;
     1777    22088
     1778    22089                   %CONDITIONAL_ERROR (@LX_ITEM$ = USAGE$,
     1779    22090                                       @ERROR#   = %E$USAGE_NOT_DISPLAY,
     1780    22091                                       @LINE     = USAGE$ -> LX_ITEM.LINE,
     1781    22092                                       @COLUMN   = USAGE$ -> LX_ITEM.COLUMN);
     1782    22122    6              RETURN;
     1783    22123    6            END;
     1784    22124    5        END;
     1785    22125
     1786    22126    4   END VALIDATE_USAGE;
     1787    22127        %EJECT;
PL6.E3A0      #001=Z8DR$RECORD_DECL File=Z8DR.:Z8A6TSI                           SAT 08/09/97 11:18 Page:69
     1788    22128        /*==============*/
     1789    22129    3     VALIDATE_LEVEL: PROC;
     1790    22130        /*==============*/
     1791    22131
     1792    22132
     1793    22133    4   DCL LEVEL$                    PTR;
     1794    22134    4   DCL NEXT_LEVEL$               PTR;
     1795    22135    4   DCL PLUG1$                    PTR;
     1796    22136    4   DCL NEXT_LINE_LEVEL           SBIN WORD;
     1797    22137
     1798    22138
     1799    22139
     1800    22140    4      IF REDUCED_DATA.LEVEL.PREVIOUS = 0
     1801    22141    4      AND (O1COM.LEVEL_NO ~= %LEVEL_01
     1802    22142    4           AND O1COM.LEVEL_NO ~= %LEVEL_77) THEN
     1803    22143    5        DO;
     1804    22144    5          LEVEL$ = CDECL$ -> LX_REC_DECL.P.LEVEL_NO$;
     1805    22145
     1806    22146               %CONDITIONAL_ERROR (@LX_ITEM$ = LEVEL$,
     1807    22147                                   @ERROR#   = %E$LEVEL_1_OR_77_AT_TOP,
     1808    22148                                   @LINE     = LEVEL$ -> LX_ITEM.LINE,
     1809    22149                                   @COLUMN   = LEVEL$ -> LX_ITEM.COLUMN);
     1810    22179
     1811    22180    5          O1COM.LEVEL_NO = %LEVEL_01;
     1812    22181    5          REDUCED_DATA.LEVEL.CURRENT = %LEVEL_01;
     1813    22182    5          REDUCED_DATA.B.ELEMENTARY = (REDUCED_DATA.LEVEL.NEXT <=
     1814    22183    5                                       REDUCED_DATA.LEVEL.CURRENT);
     1815    22184    5          IF NOT REDUCED_DATA.B.ELEMENTARY THEN
     1816    22185    5            REDUCED_DATA.USAGE.TYPE = %NO_USAGE;
     1817    22186    5        END;
     1818    22187
     1819    22188    4      IF O1COM.LEVEL_NO = %LEVEL_77 THEN
     1820    22189    5        DO;
     1821    22190    6          DO CASE (O1COM.DATA_DECL_CONTEXT);
     1822    22191    6            CASE (%SORT_DESCRIPTION, %FILE_DESCRIPTION, %COMMUNICATION_DESC);
     1823    22192
     1824    22193    6              LEVEL$ = CDECL$ -> LX_REC_DECL.P.LEVEL_NO$;
PL6.E3A0      #001=Z8DR$RECORD_DECL File=Z8DR.:Z8A6TSI                           SAT 08/09/97 11:18 Page:70
     1825    22194
     1826    22195                   %CONDITIONAL_ERROR (@LX_ITEM$ = LEVEL$,
     1827    22196                                       @ERROR#   = %E$LVL_77_NOT_VALID_HERE,
     1828    22197                                       @LINE     = LEVEL$ -> LX_ITEM.LINE,
     1829    22198                                       @COLUMN   = LEVEL$ -> LX_ITEM.COLUMN);
     1830    22228
     1831    22229    6              O1COM.LEVEL_NO = %LEVEL_01;
     1832    22230
     1833    22231    6            CASE (ELSE, 0);
     1834    22232    6          END; /* Case */
     1835    22233
     1836    22234    5          IF NDECL$ ~= ADDR(NIL) THEN
     1837    22235    6            DO;  /* CHECK THE NEXT LINE LEVEL */
     1838    22236
     1839    22237    6              CALL CHARBIN (NEXT_LINE_LEVEL,
     1840    22238    6                            NDECL$ -> LX_REC_DECL.P.LEVEL_NO$ ->
     1841    22239    6                            LX_ITEM.DNT$ -> DNT.TEXT.NAME);
     1842    22240    6              IF NEXT_LINE_LEVEL > %LEVEL_01 AND
     1843    22241    6                 NEXT_LINE_LEVEL <= %LEVEL_49  THEN
     1844    22242    7                DO;  /* ILLEGAL NUMBERS LIKE 99 SPOTTED ELSEWHERE */
     1845    22243
     1846    22244    7                  LEVEL$ = CDECL$ -> LX_REC_DECL.P.LEVEL_NO$;
     1847    22245    7                  NEXT_LEVEL$ = NDECL$ -> LX_REC_DECL.P.LEVEL_NO$;
     1848    22246
     1849    22247                       %CONDITIONAL_ERROR (@LX_ITEM$ = LEVEL$,
     1850    22248                                           @ERROR#   = %E$LEVEL_77_TO_01,
     1851    22249                                           @LINE     = LEVEL$ -> LX_ITEM.LINE,
     1852    22250                                           @COLUMN   = LEVEL$ -> LX_ITEM.COLUMN,
     1853    22251                                           @PLUG1    = NEXT_LEVEL$ -> LX_ITEM.DNT$);
     1854    22281    7                 END; /* END DO */
     1855    22282    6            END; /* END DO */
     1856    22283    5          END; /* END DO */
     1857    22284
     1858    22285    5      IF O1COM.LEVEL_NO = %LEVEL_66 THEN DO;
     1859    22286    5        IF COMCOM.OB.FIPS.LEVEL >= %INT_LEV THEN
     1860    22287    6          DO;
     1861    22288    6            LEVEL$ = CDECL$ -> LX_REC_DECL.P.LEVEL_NO$;
PL6.E3A0      #001=Z8DR$RECORD_DECL File=Z8DR.:Z8A6TSI                           SAT 08/09/97 11:18 Page:71
     1862    22289    6            CALL Z8AE$ERROR (%E$LEVEL_CHECK,
     1863    22290    6                             LEVEL$ -> LX_ITEM.LINE,
     1864    22291    6                             LEVEL$ -> LX_ITEM.COLUMN);
     1865    22292    6          END;
     1866    22293    5        IF CDECL$ -> LX_REC_DECL.P.RENAMES$ = ADDR(NIL) THEN
     1867    22294    6          DO;
     1868    22295    6            LEVEL$ = CDECL$ -> LX_REC_DECL.P.LEVEL_NO$;
     1869    22296
     1870    22297                 %CONDITIONAL_ERROR (@LX_ITEM$ = LEVEL$,
     1871    22298                                     @ERROR#   = %E$ONLY_66_IN_RENAMES,
     1872    22299                                     @LINE     = LEVEL$ -> LX_ITEM.LINE,
     1873    22300                                     @COLUMN   = LEVEL$ -> LX_ITEM.COLUMN);
     1874    22330
     1875    22331    6            O1COM.LEVEL_NO = %LEVEL_01;
     1876    22332    6          END;
     1877    22333    5      END;
     1878    22334
     1879    22335    4      IF CDECL$ -> LX_REC_DECL.P.RENAMES$ ~= ADDR(NIL)
     1880    22336    4      AND O1COM.LEVEL_NO ~= %LEVEL_66 THEN
     1881    22337    5        DO;
     1882    22338    5          LEVEL$ = CDECL$ -> LX_REC_DECL.P.LEVEL_NO$;
     1883    22339
     1884    22340               %CONDITIONAL_ERROR (@LX_ITEM$ = LEVEL$,
     1885    22341                                   @ERROR#   = %E$ONLY_66_IN_RENAMES,
     1886    22342                                   @LINE     = LEVEL$ -> LX_ITEM.LINE,
     1887    22343                                   @COLUMN   = LEVEL$ -> LX_ITEM.COLUMN);
     1888    22373    5          O1COM.LEVEL_NO = %LEVEL_66;
     1889    22374    5          IF REDUCED_DATA.LEVEL.PREVIOUS ~= 0 THEN
     1890    22375    5          REDUCED_DATA.LEVEL.CURRENT = 02;
     1891    22376    5        END;
     1892    22377
     1893    22378    4      IF  O1COM.LEVEL_NO  < %LEVEL_01
     1894    22379    4      OR  O1COM.LEVEL_NO  > %LEVEL_49
     1895    22380    4      AND O1COM.LEVEL_NO ~= %LEVEL_66
     1896    22381    4      AND O1COM.LEVEL_NO ~= %LEVEL_77
     1897    22382    4      AND O1COM.LEVEL_NO ~= %LEVEL_88 THEN
     1898    22383    5        DO;
PL6.E3A0      #001=Z8DR$RECORD_DECL File=Z8DR.:Z8A6TSI                           SAT 08/09/97 11:18 Page:72
     1899    22384    5          LEVEL$ = CDECL$ -> LX_REC_DECL.P.LEVEL_NO$;
     1900    22385    5          PLUG1$ = CDECL$ -> LX_REC_DECL.P.DATA_NAME$ -> LX_ITEM.DNT$;
     1901    22386
     1902    22387               %CONDITIONAL_ERROR (@LX_ITEM$ = LEVEL$,
     1903    22388                                   @ERROR#   = %E$INVALID_LEVEL_NUMBER,
     1904    22389                                   @LINE     = LEVEL$ -> LX_ITEM.LINE,
     1905    22390                                   @COLUMN   = LEVEL$ -> LX_ITEM.COLUMN,
     1906    22391                                   @PLUG1    = PLUG1$);
     1907    22421
     1908    22422    5          IF HIER_STK.QLT$ (HIER_STK_PTR) = ADDR(NIL) OR
     1909    22423    5            HIER_STK.QLT$ (HIER_STK_PTR) -> QLT.ST$ -> VARIABLE.B.ELEMENTARY THEN
     1910    22424    6            DO;
     1911    22425    6              O1COM.LEVEL_NO = %LEVEL_01;
     1912    22426    6              REDUCED_DATA.LEVEL.CURRENT = %LEVEL_01;
     1913    22427    6            END;
     1914    22428    5          ELSE
     1915    22429    6            DO;
     1916    22430    6              O1COM.LEVEL_NO = HIER_STK.LEVEL# (HIER_STK_PTR) + 1;
     1917    22431    6              REDUCED_DATA.LEVEL.CURRENT = HIER_STK.LEVEL# (HIER_STK_PTR) + 1;
     1918    22432    6            END;
     1919    22433
     1920    22434    5          REDUCED_DATA.B.ELEMENTARY = (REDUCED_DATA.LEVEL.NEXT <=
     1921    22435    5                                       REDUCED_DATA.LEVEL.CURRENT);
     1922    22436    5        END;
     1923    22437
     1924    22438    4   END VALIDATE_LEVEL;
     1925    22439        %EJECT;
PL6.E3A0      #001=Z8DR$RECORD_DECL File=Z8DR.:Z8A6TSI                           SAT 08/09/97 11:18 Page:73
     1926    22440        /*============*/
     1927    22441    3     VALIDATE_PIC: PROC;
     1928    22442        /*============*/
     1929    22443
     1930    22444    4   DCL LENGTH                    SBIN WORD;
     1931    22445
     1932    22446    4   DCL PIC$                      PTR;
     1933    22447    4   DCL COLUMN#                   SBIN WORD;
     1934    22448    4   DCL LINE#                     SBIN WORD;
     1935    22449
     1936    22450
     1937    22451
     1938    22452    4      PIC$ = CDECL$ -> LX_REC_DECL.P.PIC_CLAUSE$;
     1939    22453
     1940    22454    4      IF CDECL$ -> LX_REC_DECL.P.RENAMES$ ~= ADDR(NIL) THEN
     1941    22455    5        DO;
     1942    22456               %CONDITIONAL_ERROR (@LX_ITEM$ = PIC$,
     1943    22457                                   @ERROR#   = %E$RENAMES_WITH_PIC,
     1944    22458                                   @LINE     = PIC$ -> LX_ITEM.LINE,
     1945    22459                                   @COLUMN   = PIC$ -> LX_ITEM.COLUMN);
     1946    22489
     1947    22490               %DELETE_CLAUSE (@CLAUSE$ = PIC_CLAUSE$);
     1948    22495    5          RETURN;
     1949    22496    5        END;
     1950    22497    4      IF PIC_OUT.ERROR ~= %NO_ERROR THEN
     1951    22498    5        DO;
     1952    22499    5          COLUMN# = PIC_OUT.ERRCOL + PIC$ -> LX_ITEM.COLUMN;
     1953    22500
     1954    22501               %CONDITIONAL_ERROR (@LX_ITEM$ = PIC$,
     1955    22502                                   @ERROR#   = PIC_OUT.ERROR,
     1956    22503                                   @LINE     = PIC$ -> LX_ITEM.LINE,
     1957    22504                                   @COLUMN   = COLUMN#);
     1958    22534               %DEFAULT_PIC; /* Recovery */
     1959    22549    5          RETURN;
     1960    22550    5        END;
     1961    22551
     1962    22552    4      IF REDUCED_DATA.USAGE.TYPE = %RSV_WRD_INDEX THEN
PL6.E3A0      #001=Z8DR$RECORD_DECL File=Z8DR.:Z8A6TSI                           SAT 08/09/97 11:18 Page:74
     1963    22553    5        DO;
     1964    22554               %CONDITIONAL_ERROR (@LX_ITEM$ = PIC$,
     1965    22555                                   @ERROR#   = %E$PIC_ON_INDEX,
     1966    22556                                   @LINE     = PIC$ -> LX_ITEM.LINE,
     1967    22557                                   @COLUMN   = PIC$ -> LX_ITEM.COLUMN);
     1968    22587               %DELETE_CLAUSE (@CLAUSE$ = PIC_CLAUSE$);
     1969    22592    5          RETURN;
     1970    22593    5        END;
     1971    22594
     1972    22595    4      IF NOT REDUCED_DATA.B.ELEMENTARY THEN
     1973    22596    5        DO;
     1974    22597               %CONDITIONAL_ERROR (@LX_ITEM$ = PIC$,
     1975    22598                                   @ERROR#   = %E$NO_PIC_ALLOWED_ON_GROUP,
     1976    22599                                   @LINE     = PIC$ -> LX_ITEM.LINE,
     1977    22600                                   @COLUMN   = PIC$ -> LX_ITEM.COLUMN);
     1978    22630               %DELETE_CLAUSE (@CLAUSE$ = PIC_CLAUSE$); /* Recovery */
     1979    22635    5          RETURN;
     1980    22636    5        END;
     1981    22637
     1982    22638    4      IF REDUCED_DATA.USAGE.TYPE = %RSV_WRD_GBCD OR
     1983    22639    4          REDUCED_DATA.USAGE.TYPE = %RSV_WRD_EBCDIC THEN
     1984    22640    5        DO;
     1985    22641    5          IF PIC_OUT.TYPE = %PIC_TY_K THEN
     1986    22642    6            DO;
     1987    22643                   %CONDITIONAL_ERROR (@LX_ITEM$ = PIC$,
     1988    22644                                       @ERROR#   = %E$MUST_BE_DISPLAY,
     1989    22645                                       @LINE     = PIC$ -> LX_ITEM.LINE,
     1990    22646                                       @COLUMN   = PIC$ -> LX_ITEM.COLUMN);
     1991    22676                   %DEFAULT_PIC; /* Recovery */
     1992    22691    6            END;
     1993    22692    5        END;
     1994    22693    4      ELSE IF REDUCED_DATA.USAGE.TYPE ~= %NO_USAGE THEN
     1995    22694    5        DO CASE (PIC_OUT.TYPE);
     1996    22695    5          CASE(%PIC_TY_A,   %PIC_TY_AE, %PIC_TY_AN,
     1997    22696    5               %PIC_TY_ANE, %PIC_TY_NE, %PIC_TY_K);
     1998    22697                 %CONDITIONAL_ERROR (@LX_ITEM$ = PIC$,
     1999    22698                                     @ERROR#   = %E$ALPHA_PIC_ON_NUMERIC_ITEM,
PL6.E3A0      #001=Z8DR$RECORD_DECL File=Z8DR.:Z8A6TSI                           SAT 08/09/97 11:18 Page:75
     2000    22699                                     @LINE     = PIC$ -> LX_ITEM.LINE,
     2001    22700                                     @COLUMN   = PIC$ -> LX_ITEM.COLUMN);
     2002    22730                 %DEFAULT_PIC; /* Recovery */
     2003    22745
     2004    22746    5          CASE (ELSE);
     2005    22747    5            /* All ok */;
     2006    22748    5        END;
     2007    22749
     2008    22750    4      IF REDUCED_DATA.USAGE.TYPE = %RSV_WRD_POINTER THEN
     2009    22751    5        DO;
     2010    22752                 %CONDITIONAL_ERROR (@LX_ITEM$ = PIC$,
     2011    22753                                     @ERROR#   = %E$CLAUSE_NOT_VALID,
     2012    22754                                     @LINE     = PIC$ -> LX_ITEM.LINE,
     2013    22755                                     @COLUMN   = PIC$ -> LX_ITEM.COLUMN,
     2014    22756                                     @PLUG1 = "DNT$_FROM_RSWNO(%RSV_WRD_USAGE)");
     2015    22786                 %DELETE_CLAUSE (@CLAUSE$ = PIC_CLAUSE$);
     2016    22791    5        END;
     2017    22792
     2018    22793    4      IF REDUCED_DATA.B.ASTERISK THEN
     2019    22794    5        DO;
     2020    22795               %CONDITIONAL_ERROR (@LX_ITEM$ = PIC$,
     2021    22796                                   @ERROR#   = %E$BWZ_AND_ASTERISK,
     2022    22797                                   @LINE     = PIC$ -> LX_ITEM.LINE,
     2023    22798                                   @COLUMN   = PIC$ -> LX_ITEM.COLUMN);
     2024    22828               %DELETE_CLAUSE (@CLAUSE$ = BLANK$); /* Recovery */
     2025    22833    5        END;
     2026    22834
     2027    22835    4      IF REDUCED_DATA.USAGE.TYPE = %RSV_WRD_COMP_1 THEN
     2028    22836    5        DO;
     2029    22837               %DECIPHER_PIC_LENGTH (@LENGTH = LENGTH);
     2030    22851
     2031    22852    5          IF LENGTH > %COMP1_MAX_PIC_DIGITS THEN
     2032    22853    6            DO;
     2033    22854                   %CONDITIONAL_ERROR (@LX_ITEM$ = PIC$,
     2034    22855                                       @ERROR#   = %E$CONVERT_COMP1_TO_COMP2,
     2035    22856                                       @LINE     = PIC$ -> LX_ITEM.LINE,
     2036    22857                                       @COLUMN   = PIC$ -> LX_ITEM.COLUMN);
PL6.E3A0      #001=Z8DR$RECORD_DECL File=Z8DR.:Z8A6TSI                           SAT 08/09/97 11:18 Page:76
     2037    22887    6              REDUCED_DATA.USAGE.TYPE = %RSV_WRD_COMP_2;
     2038    22888    6            END;
     2039    22889    5        END;
     2040    22890
     2041    22891    4      IF COMCOM.OB.INFO AND REDUCED_DATA.USAGE.TYPE = %RSV_WRD_COMP_2 THEN
     2042    22892    5        DO;
     2043    22893               %DECIPHER_PIC_LENGTH (@LENGTH = LENGTH);
     2044    22907
     2045    22908    5          IF LENGTH > %COMP2_MAX_PIC_DIGITS THEN
     2046    22909                 %CONDITIONAL_ERROR (@LX_ITEM$ = PIC$,
     2047    22910                                     @ERROR#   = %E$COMP2_TOO_LONG,
     2048    22911                                     @LINE     = PIC$ -> LX_ITEM.LINE,
     2049    22912                                     @COLUMN   = PIC$ -> LX_ITEM.COLUMN);
     2050    22942    5        END;
     2051    22943
     2052    22944    4      IF REDUCED_DATA.USAGE.TYPE = %RSV_WRD_COMP_6 AND PIC_OUT.SCALE < %NO_SCALE_FACTOR
             22944               THEN
     2053    22945    5        DO;
     2054    22946               %CONDITIONAL_ERROR (@LX_ITEM$ = PIC$,
     2055    22947                                   @ERROR#   = %E$CONVERT_COMP6_TO_11_12,
     2056    22948                                   @LINE     = PIC$ -> LX_ITEM.LINE,
     2057    22949                                   @COLUMN   = PIC$ -> LX_ITEM.COLUMN);
     2058    22979    5          IF PIC_OUT.WIDTH > %COMP11_MAX_PIC_DIGITS
     2059    22980    5            THEN REDUCED_DATA.USAGE.TYPE = %RSV_WRD_COMP_12;
     2060    22981    5            ELSE REDUCED_DATA.USAGE.TYPE = %RSV_WRD_COMP_11;
     2061    22982    5        END;
     2062    22983
     2063    22984    4      IF PIC_OUT.TYPE = %PIC_TY_K
     2064    22985    4      AND (~ COMCOM.OB.KANJI) THEN
     2065    22986    5        DO;
     2066    22987               %CONDITIONAL_ERROR (@LX_ITEM$ = PIC$,
     2067    22988                                   @ERROR#   = %E$PIC_N_ILLEGAL,
     2068    22989                                   @LINE     = PIC$ -> LX_ITEM.LINE,
     2069    22990                                   @COLUMN   = PIC$ -> LX_ITEM.COLUMN);
     2070    23020    5          RETURN;
     2071    23021    5        END;
     2072    23022
PL6.E3A0      #001=Z8DR$RECORD_DECL File=Z8DR.:Z8A6TSI                           SAT 08/09/97 11:18 Page:77
     2073    23023    4      REDUCED_DATA.B.PIC_CLAUSE = TRUE;
     2074    23024
     2075    23025    4   END VALIDATE_PIC;
     2076    23026        %EJECT;
PL6.E3A0      #001=Z8DR$RECORD_DECL File=Z8DR.:Z8A6TSI                           SAT 08/09/97 11:18 Page:78
     2077    23027         /*========================*/
     2078    23028    3      CREATE_VALUE_FOR_IBM_OPT: PROC;
     2079    23029         /*========================*/
     2080    23030
     2081    23031    4   DCL STK_OBJ            SBIN WORD;
     2082    23032    4   DCL I                  SBIN WORD;
     2083    23033    4   DCL SYMBOL             UBIN WORD;
     2084    23034    4   DCL VALUE$             PTR;
     2085    23035
     2086    23036
     2087    23037
     2088    23038    4      IF REDUCED_DATA.B.ELEMENTARY AND
     2089    23039    4         CDECL$ -> LX_REC_DECL.P.RENAMES$ = ADDR(NIL) AND
     2090    23040    4         CDECL$ -> LX_REC_DECL.P.REDEFINES$ = ADDR(NIL) AND
     2091    23041    4         CDECL$ -> LX_REC_DECL.P.EXTERNAL$ = ADDR(NIL) AND
     2092    23042    4         REDUCED_DATA.USAGE.TYPE ~= %RSV_WRD_INDEX THEN
     2093    23043    5        DO;
     2094    23044    5          IF REDUCED_DATA.LEVEL.CURRENT <= REDUCED_DATA.LEVEL.PREVIOUS THEN
     2095    23045    5            CALL FIND_HIER_INDEX (REDUCED_DATA.LEVEL.CURRENT, STK_OBJ);
     2096    23046    5          ELSE
     2097    23047    5            STK_OBJ = HIER_STK_PTR + 1;
     2098    23048
     2099    23049    6          DO I = 1 TO STK_OBJ - 1;
     2100    23050
     2101    23051    6            IF HIER_STK.B.VALUE_PRESENTED(I) OR
     2102    23052    6               HIER_STK.QLT$(I) -> QLT.ST$ -> VARIABLE.B.REDEF_SUB THEN
     2103    23053    6              RETURN;
     2104    23054
     2105    23055    6          END;
     2106    23056
     2107    23057               /* Don't initialize the external variables */
     2108    23058
     2109    23059    5          IF REDUCED_DATA.LEVEL.CURRENT ~= %LEVEL_01 AND
     2110    23060    5             HIER_STK.QLT$(1) -> QLT.ST$ -> VARIABLE.B.EXTERNAL THEN
     2111    23061    5            RETURN;
     2112    23062
     2113    23063    5          IF REDUCED_DATA.USAGE.TYPE = %NO_USAGE OR
PL6.E3A0      #001=Z8DR$RECORD_DECL File=Z8DR.:Z8A6TSI                           SAT 08/09/97 11:18 Page:79
     2114    23064    5             REDUCED_DATA.USAGE.TYPE = %RSV_WRD_EBCDIC OR
     2115    23065    5             REDUCED_DATA.USAGE.TYPE = %RSV_WRD_GBCD THEN
     2116    23066    6            DO;
     2117    23067    7              DO CASE (PIC_OUT.TYPE);
     2118    23068    7                CASE (%PIC_TY_A, %PIC_TY_AE, %PIC_TY_AN,
     2119    23069    7                      %PIC_TY_ANE, %PIC_TY_K);
     2120    23070
     2121    23071    7                  CALL NEW_VALUE_CLAUSE (VALUE$, %RSV_WRD_SPACES);
     2122    23072
     2123    23073    7                  VALUE$ -> LX_LIST.HEAD$ -> LX_LIST.HEAD$ ->
     2124    23074    7                    LX_TERMINAL.TYPE = %TYA;
     2125    23075
     2126    23076    7                CASE (ELSE);
     2127    23077
     2128    23078    7                   CALL NEW_VALUE_CLAUSE (VALUE$, %RSV_WRD_ZEROES);
     2129    23079
     2130    23080    7                   VALUE$ -> LX_LIST.HEAD$ -> LX_LIST.HEAD$ ->
     2131    23081    7                      LX_TERMINAL.TYPE = %TYI;
     2132    23082
     2133    23083    7              END; /* DO CASE */
     2134    23084    6            END; /* IF ...DO; */
     2135    23085    5          ELSE IF REDUCED_DATA.USAGE.TYPE = %RSV_WRD_POINTER THEN
     2136    23086    6            DO;
     2137    23087
     2138    23088    6                   CALL NEW_VALUE_CLAUSE (VALUE$, %RSV_WRD_NULL);
     2139    23089
     2140    23090    6                   VALUE$ -> LX_LIST.HEAD$ -> LX_LIST.HEAD$ ->
     2141    23091    6                      LX_TERMINAL.TYPE = %TYP;
     2142    23092
     2143    23093    6            END;
     2144    23094    5          ELSE
     2145    23095    6            DO;
     2146    23096
     2147    23097    6                   CALL NEW_VALUE_CLAUSE (VALUE$, %RSV_WRD_ZEROES);
     2148    23098
     2149    23099    6                   VALUE$ -> LX_LIST.HEAD$ -> LX_LIST.HEAD$ ->
     2150    23100    6                      LX_TERMINAL.TYPE = %TYI;
PL6.E3A0      #001=Z8DR$RECORD_DECL File=Z8DR.:Z8A6TSI                           SAT 08/09/97 11:18 Page:80
     2151    23101
     2152    23102    6            END;
     2153    23103
     2154    23104    5          CDECL$ -> LX_REC_DECL.P.VALUE$ = VALUE$;
     2155    23105
     2156    23106    5        END;
     2157    23107
     2158    23108    4    END CREATE_VALUE_FOR_IBM_OPT;
     2159    23109         %EJECT;
PL6.E3A0      #001=Z8DR$RECORD_DECL File=Z8DR.:Z8A6TSI                           SAT 08/09/97 11:18 Page:81
     2160    23110
     2161    23111        /*================*/
     2162    23112    3     NEW_VALUE_CLAUSE: PROC (VALUE$, RSV_WRD#);
     2163    23113        /*================*/
     2164    23114
     2165    23115    4        DCL LIST1$        PTR;
     2166    23116    4        DCL LIST2$        PTR;
     2167    23117    4        DCL ITEM$         PTR;
     2168    23118    4        DCL VALUE$        PTR;
     2169    23119    4        DCL RSV_WRD#      UBIN WORD;
     2170    23120
     2171    23121
     2172    23122             %NEW_HEAP (@POINTER = LIST1$);
     2173    23127             %NEW_HEAP (@POINTER = LIST2$);
     2174    23132             %NEW_HEAP (@POINTER = ITEM$);
     2175    23137
     2176    23138    4        CALL INIT_VALUE_CLAUSE (LIST1$,
     2177    23139    4                                LIST2$,
     2178    23140    4                                ITEM$,
     2179    23141    4                                VALUE$,
     2180    23142    4                                RSV_WRD#);
     2181    23143
     2182    23144
     2183    23145    4   END NEW_VALUE_CLAUSE;
     2184    23146        %EJECT;
PL6.E3A0      #001=Z8DR$RECORD_DECL File=Z8DR.:Z8A6TSI                           SAT 08/09/97 11:18 Page:82
     2185    23147        /*===================*/
     2186    23148    3     VALUE_CONTEXT_CHECK: PROC (VALUE$) ALTRET;
     2187    23149        /*===================*/
     2188    23150
     2189    23151    4        DCL VALUE$        PTR;
     2190    23152    4        DCL LINE          SBIN;
     2191    23153    4        DCL COLUMN        SBIN;
     2192    23154
     2193    23155
     2194    23156    5        DO CASE (O1COM.DATA_DECL_CONTEXT);
     2195    23157
     2196    23158    5          CASE (%SORT_DESCRIPTION);
     2197    23159
     2198    23160    5            IF CDECL$ -> LX_REC_DECL.P.VALUE$ = ADDR(NIL) THEN
     2199    23161    5              ALTRETURN;
     2200    23162
     2201    23163    5            LINE  = CDECL$ -> LX_REC_DECL.P.LEVEL_NO$ -> LX_ITEM.LINE;
     2202    23164    5            COLUMN= CDECL$ -> LX_REC_DECL.P.LEVEL_NO$ -> LX_ITEM.COLUMN;
     2203    23165
     2204    23166    5            IF COMCOM.OB.FIPS.LEVEL >= %HIGH_LEV THEN
     2205    23167                   %CONDITIONAL_ERROR (@LX_ITEM$ = CDECL$ -> LX_REC_DECL.P.VALUE$,
     2206    23168                                       @ERROR#   = %E$VALUE_IN_CONTEXT_NOT_ANSI,
     2207    23169                                       @LINE     = LINE,
     2208    23170                                       @COLUMN   = COLUMN);
     2209    23200
     2210    23201    5            ELSE
     2211    23202                   %CONDITIONAL_ERROR (@LX_ITEM$ = CDECL$ -> LX_REC_DECL.P.VALUE$,
     2212    23203                                       @ERROR#   = %E$VALUE_NOT_VALID_IN_CONTEXT,
     2213    23204                                       @LINE     = LINE,
     2214    23205                                       @COLUMN   = COLUMN);
     2215    23235
     2216    23236                 %DELETE_CLAUSE (@CLAUSE$ = VALUE$);
     2217    23241
     2218    23242    5            ALTRETURN;
     2219    23243
     2220    23244    5          CASE (%FILE_DESCRIPTION);
     2221    23245
PL6.E3A0      #001=Z8DR$RECORD_DECL File=Z8DR.:Z8A6TSI                           SAT 08/09/97 11:18 Page:83
     2222    23246    5            IF CDECL$ -> LX_REC_DECL.P.VALUE$ = ADDR(NIL) THEN
     2223    23247    5              ALTRETURN;
     2224    23248
     2225    23249    5            LINE  = CDECL$ -> LX_REC_DECL.P.LEVEL_NO$ -> LX_ITEM.LINE;
     2226    23250    5            COLUMN= CDECL$ -> LX_REC_DECL.P.LEVEL_NO$ -> LX_ITEM.COLUMN;
     2227    23251
     2228    23252    5            IF COMCOM.OB.FIPS.LEVEL >= %HIGH_LEV THEN
     2229    23253                   %CONDITIONAL_ERROR (@LX_ITEM$ = CDECL$ -> LX_REC_DECL.P.VALUE$,
     2230    23254                                       @ERROR#   = %E$VALUE_IN_CONTEXT_NOT_ANSI,
     2231    23255                                       @LINE     = LINE,
     2232    23256                                       @COLUMN   = COLUMN);
     2233    23286
     2234    23287    5            VALUE$ = CDECL$ -> LX_REC_DECL.P.VALUE$;
     2235    23288
     2236    23289    5            RETURN;
     2237    23290
     2238    23291    5          CASE (%LINKAGE_SECTION);
     2239    23292
     2240    23293    5            IF CDECL$ -> LX_REC_DECL.P.VALUE$ = ADDR(NIL) THEN
     2241    23294    5              ALTRETURN;
     2242    23295
     2243    23296    5            LINE  = CDECL$ -> LX_REC_DECL.P.LEVEL_NO$ -> LX_ITEM.LINE;
     2244    23297    5            COLUMN= CDECL$ -> LX_REC_DECL.P.LEVEL_NO$ -> LX_ITEM.COLUMN;
     2245    23298
     2246    23299    5            IF COMCOM.OB.FIPS.LEVEL >= %HIGH_LEV THEN
     2247    23300                   %CONDITIONAL_ERROR (@LX_ITEM$ = CDECL$ -> LX_REC_DECL.P.VALUE$,
     2248    23301                                       @ERROR#   = %E$VALUE_IN_CONTEXT_NOT_ANSI,
     2249    23302                                       @LINE     = LINE,
     2250    23303                                       @COLUMN   = COLUMN);
     2251    23333
     2252    23334    5            ELSE
     2253    23335                   %CONDITIONAL_ERROR (@LX_ITEM$ = CDECL$ -> LX_REC_DECL.P.VALUE$,
     2254    23336                                       @ERROR#   = %E$VALUE_NOT_VALID_IN_CONTEXT,
     2255    23337                                       @LINE     = LINE,
     2256    23338                                       @COLUMN   = COLUMN);
     2257    23368
     2258    23369                 %DELETE_CLAUSE (@CLAUSE$ = VALUE$);
PL6.E3A0      #001=Z8DR$RECORD_DECL File=Z8DR.:Z8A6TSI                           SAT 08/09/97 11:18 Page:84
     2259    23374
     2260    23375    5            ALTRETURN;
     2261    23376
     2262    23377    5          CASE (%CONSTANT_SECTION);
     2263    23378    5            IF CDECL$ -> LX_REC_DECL.P.VALUE$ ~= ADDR(NIL) THEN
     2264    23379    5              ALTRETURN;
     2265    23380
     2266    23381    5            LINE = CDECL$ -> LX_REC_DECL.P.LEVEL_NO$ -> LX_ITEM.LINE;
     2267    23382    5            COLUMN = CDECL$ -> LX_REC_DECL.P.LEVEL_NO$ -> LX_ITEM.COLUMN;
     2268    23383
     2269    23384                 %CONDITIONAL_ERROR (@LX_ITEM$ = CDECL$ -> LX_REC_DECL.P.LEVEL_NO$,
     2270    23385                                     @ERROR#   = %E$CONSTANT_REQUIRES_VALUE,
     2271    23386                                     @LINE     = LINE,
     2272    23387                                     @COLUMN   = COLUMN);
     2273    23417
     2274    23418    5            CALL NEW_VALUE_CLAUSE (VALUE$, %RSV_WRD_ZEROES);
     2275    23419    5            RETURN;
     2276    23420
     2277    23421    5          CASE (%WORKING_STORAGE);
     2278    23422    5            IF CDECL$ -> LX_REC_DECL.P.VALUE$ = ADDR(NIL) THEN
     2279    23423    6              DO;
     2280    23424    6                IF COMCOM.OB.IBM THEN
     2281    23425    6                  CALL CREATE_VALUE_FOR_IBM_OPT;
     2282    23426
     2283    23427    6                ALTRETURN;
     2284    23428    6              END;
     2285    23429
     2286    23430    5            VALUE$ = CDECL$ -> LX_REC_DECL.P.VALUE$;
     2287    23431
     2288    23432    5            RETURN;
     2289    23433
     2290    23434    5          CASE (%COMMUNICATION_DESC);
     2291    23435    5            IF CDECL$ -> LX_REC_DECL.P.VALUE$ = ADDR(NIL) THEN
     2292    23436    5              ALTRETURN;
     2293    23437
     2294    23438    5            IF O1COM.CURRENT_CD_ENTRY$ -> CD_LTS.CD_ST$ -> SCALAR.QLT$ ->
     2295    23439    5              QLT.BROTHER ~= ADDR(NIL) AND
PL6.E3A0      #001=Z8DR$RECORD_DECL File=Z8DR.:Z8A6TSI                           SAT 08/09/97 11:18 Page:85
     2296    23440    5              O1COM.CURRENT_CD_ENTRY$ -> CD_LTS.CD_ST$ -> SCALAR.QLT$ ->
     2297    23441    5                QLT.BROTHER ~= HIER_STK.QLT$(1) THEN
     2298    23442    6              DO;
     2299    23443    6                LINE  = CDECL$ -> LX_REC_DECL.P.LEVEL_NO$ -> LX_ITEM.LINE;
     2300    23444    6                COLUMN= CDECL$ -> LX_REC_DECL.P.LEVEL_NO$ -> LX_ITEM.COLUMN;
     2301    23445
     2302    23446                     %CONDITIONAL_ERROR (@LX_ITEM$ = CDECL$ -> LX_REC_DECL.P.VALUE$,
     2303    23447                                         @ERROR#   = %E$ONLY_FIRST_MAY_HAVE_VALUE,
     2304    23448                                         @LINE     = LINE,
     2305    23449                                         @COLUMN   = COLUMN);
     2306    23479
     2307    23480                     %DELETE_CLAUSE (@CLAUSE$ = VALUE$);
     2308    23485
     2309    23486    6                ALTRETURN;
     2310    23487    6              END;
     2311    23488
     2312    23489    5            VALUE$ = CDECL$ -> LX_REC_DECL.P.VALUE$;
     2313    23490
     2314    23491    5            RETURN;
     2315    23492
     2316    23493    5          CASE (ELSE);
     2317    23494    5            CALL Z8AE$ERROR (%E$UNEXPECTED_CASE);
     2318    23495    5            ALTRETURN;
     2319    23496
     2320    23497    5        END; /* Case */
     2321    23498
     2322    23499    4   END VALUE_CONTEXT_CHECK;
     2323    23500        %EJECT;
PL6.E3A0      #001=Z8DR$RECORD_DECL File=Z8DR.:Z8A6TSI                           SAT 08/09/97 11:18 Page:86
     2324    23501        /*==============*/
     2325    23502    3     VALIDATE_VALUE: PROC;
     2326    23503        /*==============*/
     2327    23504
     2328    23505    4   DCL DATA_NAME$                PTR;
     2329    23506    4   DCL VALUE$                    PTR;
     2330    23507    4   DCL LINE#                     SBIN WORD;
     2331    23508    4   DCL COLUMN#                   SBIN WORD;
     2332    23509    4   DCL STK_OBJ                   SBIN WORD;
     2333    23510    4   DCL I                         SBIN WORD;
     2334    23511
     2335    23512
     2336    23513
     2337    23514    4      CALL VALUE_CONTEXT_CHECK (VALUE$)
     2338    23515    4        WHENALTRETURN
     2339    23516    5          DO;
     2340    23517    5            RETURN;
     2341    23518    5          END;
     2342    23519
     2343    23520    4      IF REDUCED_DATA.USAGE.TYPE = %RSV_WRD_INDEX THEN
     2344    23521    5        DO;
     2345    23522    5          DATA_NAME$ = CDECL$ -> LX_REC_DECL.P.DATA_NAME$;
     2346    23523
     2347    23524               %CONDITIONAL_ERROR (@LX_ITEM$ = DATA_NAME$,
     2348    23525                                   @ERROR#   = %E$NO_VALUE_FOR_INDEX,
     2349    23526                                   @LINE     = DATA_NAME$ -> LX_ITEM.LINE,
     2350    23527                                   @COLUMN   = DATA_NAME$ -> LX_ITEM.COLUMN);
     2351    23557
     2352    23558               %DELETE_CLAUSE (@CLAUSE$ = VALUE$);
     2353    23563    5          RETURN;
     2354    23564    5        END;
     2355    23565    4      LINE#   = VALUE$ -> LX_LIST.HEAD$ -> LX_LIST.HEAD$ -> LX_ITEM.LINE;
     2356    23566    4      COLUMN# = VALUE$ -> LX_LIST.HEAD$ -> LX_LIST.HEAD$ -> LX_ITEM.COLUMN;
     2357    23567
     2358    23568    4      IF VALUE$ -> LX_LIST.COUNT > 1 THEN
     2359    23569    5        DO;
     2360    23570               /* It is not a condition name yet there is a THRU clause */
PL6.E3A0      #001=Z8DR$RECORD_DECL File=Z8DR.:Z8A6TSI                           SAT 08/09/97 11:18 Page:87
     2361    23571    5          CALL Z8ED$DISPOSE_ABSSYN_TREE (VALUE$ -> LX_LIST.LINK);
     2362    23572               %CONDITIONAL_ERROR (@ERROR#   = %E$MULTIPLE_VALUES_ONLY_FOR_88,
     2363    23573                                   @LX_ITEM$ = VALUE$ -> LX_LIST.HEAD$ -> LX_LIST.HEAD$,
     2364    23574                                   @LINE     = LINE#,
     2365    23575                                   @COLUMN   = COLUMN#);
     2366    23605    5        END;
     2367    23606    4      ELSE
     2368    23607    4        IF VALUE$ -> LX_LIST.HEAD$ -> LX_LIST.HEAD$ ->
     2369    23608    4        LX_ITEM.LINK ~= ADDR(NIL) THEN
     2370    23609    5          DO;
     2371    23610                 /* It is not a Level 88, yet there is a thru clause */
     2372    23611    5            CALL Z8ED$DISPOSE_ABSSYN_TREE (VALUE$ -> LX_LIST.HEAD$ -> LX_ITEM.LINK);
     2373    23612                 %CONDITIONAL_ERROR (@ERROR#   = %E$THRU_CLAUSE_BUT_NOT_88,
     2374    23613                                     @LX_ITEM$ = VALUE$ -> LX_LIST.HEAD$ -> LX_LIST.HEAD$,
     2375    23614                                     @LINE     = LINE#,
     2376    23615                                     @COLUMN   = COLUMN#);
     2377    23645    5          END;
     2378    23646
     2379    23647    4        IF COMCOM.OB.FIPS.LEVEL >= %HIGH_LEV THEN
     2380    23648    4          IF CDECL$ -> LX_REC_DECL.P.EXTERNAL$ ~= ADDR(NIL)  OR
     2381    23649    4          ( HIER_STK.QLT$(1) ~= ADDR(NIL)   AND
     2382    23650    4          HIER_STK.QLT$(1) -> QLT.ST$ -> VARIABLE.B.EXTERNAL  AND
     2383    23651    4          REDUCED_DATA.LEVEL.CURRENT ~= %LEVEL_01 )  THEN
     2384    23652    5            DO;
     2385    23653                   /* VALUE clause for external data is not allowed */
     2386    23654    5              DATA_NAME$ = CDECL$ -> LX_REC_DECL.P.DATA_NAME$;
     2387    23655
     2388    23656                   %CONDITIONAL_ERROR (@LX_ITEM$ = DATA_NAME$,
     2389    23657                                       @ERROR#   = %E$NO_VALUE_FOR_EXTERNAL,
     2390    23658                                       @LINE     = DATA_NAME$ -> LX_ITEM.LINE,
     2391    23659                                       @COLUMN   = DATA_NAME$ -> LX_ITEM.COLUMN);
     2392    23689
     2393    23690                   %DELETE_CLAUSE (@CLAUSE$ = VALUE$);
     2394    23695    5              RETURN;
     2395    23696    5            END;
     2396    23697    4      IF REDUCED_DATA.LEVEL.CURRENT <= REDUCED_DATA.LEVEL.PREVIOUS
     2397    23698    4        THEN
PL6.E3A0      #001=Z8DR$RECORD_DECL File=Z8DR.:Z8A6TSI                           SAT 08/09/97 11:18 Page:88
     2398    23699    4          CALL FIND_HIER_INDEX(REDUCED_DATA.LEVEL.CURRENT,STK_OBJ);
     2399    23700    4        ELSE
     2400    23701    4          STK_OBJ = HIER_STK_PTR + 1;
     2401    23702
     2402    23703    5      DO I = 1 TO STK_OBJ - 1;
     2403    23704    5        IF HIER_STK.B.VALUE_PRESENTED(I) THEN
     2404    23705    6          DO;
     2405    23706    6            CALL Z8AE$ERROR (%E$VALUE_REDUNDANT,
     2406    23707    6                             LINE#,
     2407    23708    6                             COLUMN#);
     2408    23709    6            CALL Z8ED$DISPOSE_ABSSYN_TREE (CDECL$ -> LX_REC_DECL.P.VALUE$);
     2409    23710
     2410    23711    6            RETURN;
     2411    23712    6          END;
     2412    23713    5      END;
     2413    23714
     2414    23715    4      CALL VALUE_IS_LITERAL (VALUE$ -> LX_LIST.HEAD$ -> LX_LIST.HEAD$);
     2415    23716
     2416    23717    4   END VALIDATE_VALUE;
     2417    23718        %EJECT;
PL6.E3A0      #001=Z8DR$RECORD_DECL File=Z8DR.:Z8A6TSI                           SAT 08/09/97 11:18 Page:89
     2418    23719        /*===============*/
     2419    23720    3     VALIDATE_OCCURS: PROC;
     2420    23721        /*===============*/
     2421    23722
     2422    23723    4   DCL OCCURS$                   PTR;
     2423    23724
     2424    23725
     2425    23726
     2426    23727    5      DO CASE (O1COM.LEVEL_NO);
     2427    23728    5        CASE(%LEVEL_01, %LEVEL_66, %LEVEL_77, %LEVEL_88);
     2428    23729    5          OCCURS$ = CDECL$ -> LX_REC_DECL.P.OCCURS$ ->
     2429    23730    5                    LX_LIST.HEAD$ -> LX_LIST.HEAD$;
     2430    23731
     2431    23732               %CONDITIONAL_ERROR (@LX_ITEM$ = OCCURS$,
     2432    23733                                   @ERROR#   = %E$OCCURS_ON_LEVEL_1,
     2433    23734                                   @LINE     = OCCURS$ -> LX_ITEM.LINE,
     2434    23735                                   @COLUMN   = OCCURS$ -> LX_ITEM.COLUMN);
     2435    23765
     2436    23766    5          REDUCED_DATA.LEVEL.CURRENT = %LEVEL_01;
     2437    23767    5          O1COM.LEVEL_NO             = %LEVEL_01;
     2438    23768
     2439    23769    5        CASE(ELSE);
     2440    23770    5          OCCURS$ = CDECL$ -> LX_REC_DECL.P.OCCURS$;
     2441    23771    5          IF OCCURS$ -> LX_LIST.HEAD$ -> LX_LIST.COUNT > 1
     2442    23772    5            AND REDUCED_DATA.OCCURS.DEPENDING$ = ADDR(NIL) THEN
     2443    23773    6            DO;
     2444    23774    6              OCCURS$ -> LX_LIST.HEAD$ -> LX_LIST.COUNT = 1;
     2445    23775    6              OCCURS$ = OCCURS$ -> LX_LIST.HEAD$ -> LX_LIST.TAIL$;
     2446    23776
     2447    23777    6              CALL Z8AE$ERROR(%E$DEPENDING_MISSING,
     2448    23778    6                              OCCURS$ -> LX_ITEM.LINE,
     2449    23779    6                              OCCURS$ -> LX_ITEM.COLUMN);
     2450    23780    6            END;
     2451    23781    5      END;
     2452    23782
     2453    23783    4      IF REDUCED_DATA.OCCURS.DEPENDING$ ~= ADDR(NIL) THEN
     2454    23784    4        CALL VALIDATE_DEPENDING;
PL6.E3A0      #001=Z8DR$RECORD_DECL File=Z8DR.:Z8A6TSI                           SAT 08/09/97 11:18 Page:90
     2455    23785
     2456    23786    4   END VALIDATE_OCCURS;
     2457    23787        %EJECT;
PL6.E3A0      #001=Z8DR$RECORD_DECL File=Z8DR.:Z8A6TSI                           SAT 08/09/97 11:18 Page:91
     2458    23788        /*==================*/
     2459    23789    3     VALIDATE_DEPENDING: PROC;
     2460    23790        /*==================*/
     2461    23791
     2462    23792
     2463    23793    4   DCL OCCURS$                   PTR;
     2464    23794    4   DCL TEMP                      SBIN WORD;
     2465    23795
     2466    23796    4      OCCURS$ = CDECL$ -> LX_REC_DECL.P.OCCURS$;
     2467    23797
     2468    23798    4      IF OCCURS$ -> LX_LIST.HEAD$ -> LX_LIST.COUNT = 1 THEN
     2469    23799    5        DO;
     2470    23800    5          OCCURS$ = OCCURS$ -> LX_LIST.HEAD$ -> LX_LIST.HEAD$;
     2471    23801
     2472    23802               %CONDITIONAL_ERROR (@LX_ITEM$ = OCCURS$,
     2473    23803                                   @ERROR#   = %E$DEPENDING_REQUIRES_RANGE,
     2474    23804                                   @LINE     = OCCURS$ -> LX_ITEM.LINE,
     2475    23805                                   @COLUMN   = OCCURS$ -> LX_ITEM.COLUMN);
     2476    23835
     2477    23836    5          REDUCED_DATA.OCCURS.INT1 = 1;
     2478    23837    5        END;
     2479    23838
     2480    23839    4      IF REDUCED_DATA.OCCURS.INT1 >= REDUCED_DATA.OCCURS.INT2 THEN
     2481    23840    5        DO;
     2482    23841    5          OCCURS$ = OCCURS$ -> LX_LIST.HEAD$ -> LX_LIST.HEAD$;
     2483    23842
     2484    23843               %CONDITIONAL_ERROR (@LX_ITEM$ = OCCURS$,
     2485    23844                                   @ERROR#   = %E$INT2_LSS_INT1,
     2486    23845                                   @LINE     = OCCURS$ -> LX_ITEM.LINE,
     2487    23846                                   @COLUMN   = OCCURS$ -> LX_ITEM.COLUMN);
     2488    23876
     2489    23877    5          TEMP = REDUCED_DATA.OCCURS.INT1;
     2490    23878    5          REDUCED_DATA.OCCURS.INT1 = REDUCED_DATA.OCCURS.INT2;
     2491    23879    5          REDUCED_DATA.OCCURS.INT2 = TEMP;
     2492    23880    5        END;
     2493    23881
     2494    23882    4      /*CALL CHECK_FOR_PREV_DEPENDING;*/;
PL6.E3A0      #001=Z8DR$RECORD_DECL File=Z8DR.:Z8A6TSI                           SAT 08/09/97 11:18 Page:92
     2495    23883
     2496    23884    4   END VALIDATE_DEPENDING;
     2497    23885        %EJECT;
PL6.E3A0      #001=Z8DR$RECORD_DECL File=Z8DR.:Z8A6TSI                           SAT 08/09/97 11:18 Page:93
     2498    23886        /*=============*/
     2499    23887    3     VALIDATE_SIGN: PROC;
     2500    23888        /*=============*/
     2501    23889
     2502    23890    4   DCL SIGN$                     PTR;
     2503    23891
     2504    23892
     2505    23893    5      DO CASE (REDUCED_DATA.USAGE.TYPE);
     2506    23894    5        CASE(%NO_USAGE, %RSV_WRD_EBCDIC, %RSV_WRD_GBCD);
     2507    23895    5          /* Peachy */;
     2508    23896
     2509    23897    5        CASE(%RSV_WRD_COMP, %RSV_WRD_COMP_4, %RSV_WRD_COMP_5,
     2510    23898    5             %RSV_WRD_COMP_8, %RSV_WRD_COMP_3);
     2511    23899    5          REDUCED_DATA.SIGN.TYPE = %SIGN_TYPE_SEPARATE;
     2512    23900
     2513    23901    5        CASE(ELSE);
     2514    23902    5          SIGN$ = CDECL$ -> LX_REC_DECL.P.SIGN$ -> LX_LIST.HEAD$;
     2515    23903
     2516    23904               %CONDITIONAL_ERROR (@ERROR#   = %E$WRONG_SIGN_TYPE,
     2517    23905                                   @LX_ITEM$ = SIGN$,
     2518    23906                                   @LINE     = SIGN$ -> LX_ITEM.LINE,
     2519    23907                                   @COLUMN   = SIGN$ -> LX_ITEM.COLUMN);
     2520    23937
     2521    23938               %DELETE_CLAUSE (@CLAUSE$ = SIGN$);
     2522    23943
     2523    23944    5          REDUCED_DATA.B.SIGN_PRESENT = FALSE;
     2524    23945    5          REDUCED_DATA.SIGN.LOCATION  = %SIGN_POS_TRAILING;
     2525    23946    5          REDUCED_DATA.SIGN.TYPE      = %SIGN_TYPE_SEPARATE;
     2526    23947    5          REDUCED_DATA.SIGN.LINE      = 0;
     2527    23948    5          REDUCED_DATA.SIGN.COLUMN    = 0;
     2528    23949
     2529    23950    5      END; /* Case */
     2530    23951
     2531    23952    4   END VALIDATE_SIGN;
     2532    23953        %EJECT;
PL6.E3A0      #001=Z8DR$RECORD_DECL File=Z8DR.:Z8A6TSI                           SAT 08/09/97 11:18 Page:94
     2533    23954        /*================*/
     2534    23955    3     NEXT_LEVEL_CHECK: PROC;
     2535    23956        /*================*/
     2536    23957
     2537    23958    4        DCL LEVEL         SBIN;
     2538    23959    4        DCL L$            PTR;
     2539    23960
     2540    23961
     2541    23962    4        IF NDECL$ = ADDR(NIL) THEN
     2542    23963    4          RETURN;
     2543    23964
     2544    23965    4        CALL CHARBIN (LEVEL,
     2545    23966    4                      NDECL$ -> LX_REC_DECL.P.LEVEL_NO$ ->
     2546    23967    4                      LX_TERMINAL.DNT$ -> DNT.TEXT.NAME);
     2547    23968
     2548    23969    4        IF LEVEL > %LEVEL_01
     2549    23970    4        AND LEVEL < 50 THEN
     2550    23971    5          DO;
     2551    23972                 /* OOPS */
     2552    23973    5            L$ = NDECL$ -> LX_REC_DECL.P.LEVEL_NO$;
     2553    23974
     2554    23975                 %CONDITIONAL_ERROR (@LX_ITEM$ = L$,
     2555    23976                                     @ERROR#   = %E$ONLY_1_66_77_88,
     2556    23977                                     @LINE     = L$ -> LX_TERMINAL.LINE,
     2557    23978                                     @COLUMN   = L$ -> LX_TERMINAL.COLUMN);
     2558    24008    5          END;
     2559    24009
     2560    24010    4   END NEXT_LEVEL_CHECK;
     2561    24011        %EJECT;
PL6.E3A0      #001=Z8DR$RECORD_DECL File=Z8DR.:Z8A6TSI                           SAT 08/09/97 11:18 Page:95
     2562    24012        /*============*/
     2563    24013    3     RENAMES_THRU: PROC (DN2$, DN3$) ALTRET;
     2564    24014        /*============*/
     2565    24015
     2566    24016    4        DCL DN2$          PTR;
     2567    24017    4        DCL DN3$          PTR;
     2568    24018
     2569    24019    4        DCL DN2_ST$       PTR;
     2570    24020    4        DCL DN3_ST$       PTR;
     2571    24021    4        DCL TERM2$        PTR;
     2572    24022    4        DCL TERM3$        PTR;
     2573    24023
     2574    24024    4        CALL QUALIFY_VARIABLE (DN2$,
     2575    24025    4                               HIER_STK.QLT$ (1),
     2576    24026    4                               DN2_ST$)
     2577    24027    4          WHENALTRETURN
     2578    24028    5            DO;
     2579    24029    5              ALTRETURN;
     2580    24030    5            END;
     2581    24031
     2582    24032    4        CALL QUALIFY_VARIABLE (DN3$,
     2583    24033    4                               HIER_STK.QLT$ (1),
     2584    24034    4                               DN3_ST$)
     2585    24035    4          WHENALTRETURN
     2586    24036    5            DO;
     2587    24037    5              ALTRETURN;
     2588    24038    5            END;
     2589    24039
     2590    24040    4        TERM2$ = DN2$ -> LX_LIST.HEAD$;
     2591    24041    4        TERM3$ = DN3$ -> LX_LIST.HEAD$;
     2592    24042
     2593    24043             %RENAMES_LVL_CHK (@LEVEL# = DN2_ST$ -> SCALAR.QLT$ -> QLT.LEVEL_NO,
     2594    24044                               @ST$$   = DN2_ST$,
     2595    24045                               @LINE#  = TERM2$ -> LX_TERMINAL.LINE,
     2596    24046                               @COL#   = TERM2$ -> LX_TERMINAL.COLUMN);
     2597    24060
     2598    24061             %RENAMES_LVL_CHK (@LEVEL# = DN3_ST$ -> SCALAR.QLT$ -> QLT.LEVEL_NO,
PL6.E3A0      #001=Z8DR$RECORD_DECL File=Z8DR.:Z8A6TSI                           SAT 08/09/97 11:18 Page:96
     2599    24062                               @ST$$   = DN3_ST$,
     2600    24063                               @LINE#  = TERM3$ -> LX_TERMINAL.LINE,
     2601    24064                               @COL#   = TERM3$ -> LX_TERMINAL.COLUMN);
     2602    24078
     2603    24079    4        CALL VERIFY_ORDER (DN2_ST$, DN3_ST$, TERM2$)
     2604    24080    4          WHENALTRETURN
     2605    24081    5            DO;
     2606    24082    5              ALTRETURN;
     2607    24083    5            END;
     2608    24084
     2609    24085    4        CALL NEXT_LEVEL_CHECK ;
     2610    24086
     2611    24087    4        REDUCED_DATA.B.RENAMES      = TRUE;
     2612    24088    4        REDUCED_DATA.B.ELEMENTARY   = TRUE;
     2613    24089    4        REDUCED_DATA.RENAMES.END_ST$   = DN3_ST$;
     2614    24090    4        REDUCED_DATA.RENAMES.START_ST$ = DN2_ST$;
     2615    24091
     2616    24092    4   END RENAMES_THRU;
     2617    24093        %EJECT;
PL6.E3A0      #001=Z8DR$RECORD_DECL File=Z8DR.:Z8A6TSI                           SAT 08/09/97 11:18 Page:97
     2618    24094        /*===============*/
     2619    24095    3     RENAMES_NO_THRU: PROC (DN2$) ALTRET;
     2620    24096        /*===============*/
     2621    24097
     2622    24098    4        DCL DN2$          PTR;
     2623    24099
     2624    24100    4        DCL TERM2$        PTR;
     2625    24101    4        DCL DN2_ST$       PTR;
     2626    24102
     2627    24103
     2628    24104    4        CALL QUALIFY_VARIABLE (DN2$,
     2629    24105    4                               HIER_STK.QLT$ (1),
     2630    24106    4                               DN2_ST$)
     2631    24107    4          WHENALTRETURN
     2632    24108    5            DO;
     2633    24109    5              ALTRETURN;
     2634    24110    5            END;
     2635    24111
     2636    24112    4        TERM2$ = DN2$ -> LX_LIST.HEAD$;
     2637    24113
     2638    24114             %RENAMES_LVL_CHK (@LEVEL# = DN2_ST$ -> SCALAR.QLT$ -> QLT.LEVEL_NO,
     2639    24115                               @ST$$   = DN2_ST$,
     2640    24116                               @LINE#  = TERM2$ -> LX_TERMINAL.LINE,
     2641    24117                               @COL#   = TERM2$ -> LX_TERMINAL.COLUMN);
     2642    24131
     2643    24132    4        IF DN2_ST$ -> ST.ID = %ARRAY THEN
     2644    24133    5          DO;
     2645    24134                 %CONDITIONAL_ERROR (@LX_ITEM$ = DN2$,
     2646    24135                                     @ERROR#   = %E$OCCURS_IN_RENAMES,
     2647    24136                                     @LINE     = TERM2$ -> LX_TERMINAL.LINE,
     2648    24137                                     @COLUMN   = TERM2$ -> LX_TERMINAL.COLUMN);
     2649    24167    5            ALTRETURN;
     2650    24168    5          END;
     2651    24169
     2652    24170    4        CALL NEXT_LEVEL_CHECK;
     2653    24171
     2654    24172    4        REDUCED_DATA.B.RENAMES    = TRUE;
PL6.E3A0      #001=Z8DR$RECORD_DECL File=Z8DR.:Z8A6TSI                           SAT 08/09/97 11:18 Page:98
     2655    24173    4        REDUCED_DATA.B.ELEMENTARY = TRUE;
     2656    24174    4        REDUCED_DATA.RENAMES.START_ST$ = DN2_ST$;
     2657    24175
     2658    24176    4   END RENAMES_NO_THRU;
     2659    24177        %EJECT;
PL6.E3A0      #001=Z8DR$RECORD_DECL File=Z8DR.:Z8A6TSI                           SAT 08/09/97 11:18 Page:99
     2660    24178        /*================*/
     2661    24179    3     VALIDATE_RENAMES: PROC;
     2662    24180        /*================*/
     2663    24181
     2664    24182    4   DCL DATA_NAME2_ST$            PTR;
     2665    24183    4   DCL TERM$                     PTR;
     2666    24184    4   DCL TERM3$                    PTR;
     2667    24185    4   DCL DATA_NAME3_ST$            PTR;
     2668    24186    4   DCL DN2$                      PTR;
     2669    24187    4   DCL DN3$                      PTR;
     2670    24188
     2671    24189        /*   66 DATANAME1 RENAMES DATANAME2 THRU DATANAME3. */
     2672    24190
     2673    24191
     2674    24192    4      DN2$   = CDECL$ -> LX_REC_DECL.P.RENAMES$ ->
     2675    24193    4               LX_LIST.HEAD$;
     2676    24194    4      DN3$   = CDECL$ -> LX_REC_DECL.P.RENAMES$ ->
     2677    24195    4               LX_LIST.TAIL$;
     2678    24196
     2679    24197    4      IF CDECL$ -> LX_REC_DECL.P.RENAMES$ -> LX_LIST.COUNT > 1 THEN
     2680    24198             /* TWO OBJECTS FOR THE RENAMES CLAUSE */
     2681    24199    4        CALL RENAMES_THRU (DN2$, DN3$)
     2682    24200    4          WHENALTRETURN
     2683    24201    5            DO;
     2684    24202    5              GOTO BAD_RENAMES;
     2685    24203    5            END;
     2686    24204    4      ELSE
     2687    24205             /* 66 A RENAMES B. -- One object */
     2688    24206    4        CALL RENAMES_NO_THRU (DN2$)
     2689    24207    4          WHENALTRETURN
     2690    24208    5            DO;
     2691    24209    5              GOTO BAD_RENAMES;
     2692    24210    5            END;
     2693    24211
     2694    24212    4        RETURN;
     2695    24213
     2696    24214    4   BAD_RENAMES:
PL6.E3A0      #001=Z8DR$RECORD_DECL File=Z8DR.:Z8A6TSI                           SAT 08/09/97 11:18 Page:100
     2697    24215                     %DELETE_CLAUSE (@CLAUSE$ = RENAMES$);
     2698    24220                     %DEFAULT_PIC;
     2699    24235    4                O1COM.LEVEL_NO = %LEVEL_01;
     2700    24236    4                REDUCED_DATA.B.ELEMENTARY  = TRUE;
     2701    24237
     2702    24238    4   END VALIDATE_RENAMES;
     2703    24239        %EJECT;
PL6.E3A0      #001=Z8DR$RECORD_DECL File=Z8DR.:Z8A6TSI                           SAT 08/09/97 11:18 Page:101
     2704    24240        /*==================*/
     2705    24241    3     VALIDATE_REDEFINES: PROC;
     2706    24242        /*==================*/
     2707    24243
     2708    24244
     2709    24245    4   DCL REDEFINES$                PTR;
     2710    24246
     2711    24247
     2712    24248
     2713    24249    4      IF O1COM.LEVEL_NO = %LEVEL_66 THEN
     2714    24250    5        DO;
     2715    24251               %REDEFINES_ERROR (@ERROR_# = %E$INVALID_LEVEL#_FOR_REDEF);
     2716    24290               %DELETE_CLAUSE (@CLAUSE$ = REDEFINES$);
     2717    24295    5          RETURN;
     2718    24296    5        END;
     2719    24297
     2720    24298    4      IF O1COM.DATA_DECL_CONTEXT = %FILE_DESCRIPTION
     2721    24299    4      OR O1COM.DATA_DECL_CONTEXT = %COMMUNICATION_DESC THEN
     2722    24300    4        IF O1COM.LEVEL_NO = %LEVEL_01 THEN
     2723    24301    5          DO;
     2724    24302                 %REDEFINES_ERROR (@ERROR_# = %E$REDEF_IN_FD_OR_CD);
     2725    24341                 %DELETE_CLAUSE   (@CLAUSE$ = REDEFINES$);
     2726    24346    5            RETURN;
     2727    24347    5          END;
     2728    24348
     2729    24349    4      IF CDECL$ -> LX_REC_DECL.P.REDEFINES$ -> LX_ITEM.DNT$ -> DNT.ST$ = ADDR(NIL) THEN
     2730    24350    5        DO;
     2731    24351               %REDEFINES_ERROR(@ERROR_# = %E$REDEFINES_NOT_DEFINED);
     2732    24390               %DELETE_CLAUSE(@CLAUSE$ = REDEFINES$);
     2733    24395    5          RETURN;
     2734    24396    5        END;
     2735    24397
     2736    24398    4      CALL VERIFY_REDEF_PLACEMENT (CDECL$ -> LX_REC_DECL.P.REDEFINES$)
     2737    24399    4                                 ALTRET (BAD_REDEF);
     2738    24400
     2739    24401    4      RETURN;
     2740    24402
PL6.E3A0      #001=Z8DR$RECORD_DECL File=Z8DR.:Z8A6TSI                           SAT 08/09/97 11:18 Page:102
     2741    24403    4   BAD_REDEF:
     2742    24404                   %DELETE_CLAUSE (@CLAUSE$ = REDEFINES$);
     2743    24409    4              RETURN;
     2744    24410
     2745    24411    4   END VALIDATE_REDEFINES;
     2746    24412        %EJECT;
PL6.E3A0      #001=Z8DR$RECORD_DECL File=Z8DR.:Z8A6TSI                           SAT 08/09/97 11:18 Page:103
     2747    24413        /*==================*/
     2748    24414    3     VALIDATE_JUSTIFIED: PROC;
     2749    24415        /*==================*/
     2750    24416
     2751    24417    4       DCL STK_OBJ            SBIN  WORD;
     2752    24418    4       DCL I                  SBIN  WORD;
     2753    24419
     2754    24420
     2755    24421    4      IF NOT REDUCED_DATA.B.ELEMENTARY THEN
     2756    24422    5        DO;
     2757    24423               %JUST_ERROR (@ERROR_#   = %E$JUSTIFIED_NOT_ELEMENTARY);
     2758    24461               %DELETE_CLAUSE (@CLAUSE$  = JUSTIFIED$);
     2759    24466    5          RETURN;
     2760    24467    5        END;
     2761    24468
     2762    24469    4      IF CDECL$ -> LX_REC_DECL.P.PIC_CLAUSE$ = ADDR(NIL) THEN
     2763    24470    5        DO;
     2764    24471               %JUST_ERROR (@ERROR_#   = %E$JUSTIFIED_NOT_ON_ALPHA);
     2765    24509               %DELETE_CLAUSE (@CLAUSE$  = JUSTIFIED$);
     2766    24514    5          RETURN;
     2767    24515    5        END;
     2768    24516    4      ELSE
     2769    24517    4        IF PIC_OUT.TYPE ~= %PIC_TY_A
     2770    24518    4        AND PIC_OUT.TYPE ~= %PIC_TY_AN THEN
     2771    24519    5          DO;
     2772    24520                 %JUST_ERROR (@ERROR_#   = %E$JUSTIFIED_NOT_ON_ALPHA);
     2773    24558                 %DELETE_CLAUSE (@CLAUSE$  = JUSTIFIED$);
     2774    24563    5            RETURN;
     2775    24564    5          END;
     2776    24565
     2777    24566    4      IF REDUCED_DATA.LEVEL.CURRENT <= REDUCED_DATA.LEVEL.PREVIOUS
     2778    24567    4        THEN
     2779    24568    4          CALL FIND_HIER_INDEX(REDUCED_DATA.LEVEL.CURRENT,STK_OBJ);
     2780    24569    4        ELSE
     2781    24570    4          STK_OBJ = HIER_STK_PTR + 1;
     2782    24571
     2783    24572    5      DO I = 1 TO STK_OBJ - 1;
PL6.E3A0      #001=Z8DR$RECORD_DECL File=Z8DR.:Z8A6TSI                           SAT 08/09/97 11:18 Page:104
     2784    24573    5        IF HIER_STK.B.CONDITION_OBJ (I)  THEN
     2785    24574    6          DO;
     2786    24575                 %JUST_ERROR (@ERROR_#   = %E$JUST_SYNC_IN_COND_GROUP);
     2787    24613                 %DELETE_CLAUSE (@CLAUSE$  = JUSTIFIED$);
     2788    24618    6            RETURN;
     2789    24619    6          END;
     2790    24620    5        IF HIER_STK.B.VALUE_PRESENTED(I) THEN
     2791    24621    6          DO;
     2792    24622                 %JUST_ERROR (@ERROR_# = %E$JUST_SYNC_UNDER_VALUE);
     2793    24660                 %DELETE_CLAUSE (@CLAUSE$ = JUSTIFIED$);
     2794    24665    6            RETURN;
     2795    24666    6          END;
     2796    24667    5      END;
     2797    24668
     2798    24669    4      REDUCED_DATA.B.JUSTIFIED = TRUE;
     2799    24670
     2800    24671    4   END VALIDATE_JUSTIFIED;
     2801    24672        %EJECT;
PL6.E3A0      #001=Z8DR$RECORD_DECL File=Z8DR.:Z8A6TSI                           SAT 08/09/97 11:18 Page:105
     2802    24673        /*=============*/
     2803    24674    3     VALIDATE_SYNC: PROC;
     2804    24675        /*=============*/
     2805    24676
     2806    24677    4       DCL STK_OBJ                 SBIN WORD;
     2807    24678    4       DCL I                       SBIN WORD;
     2808    24679
     2809    24680
     2810    24681    4      IF NOT REDUCED_DATA.B.ELEMENTARY THEN
     2811    24682    5        DO;
     2812    24683               %SYNC_ERROR (@ERROR_# = %E$SYNC_NOT_ELEMENTARY);
     2813    24721               %DELETE_CLAUSE (@CLAUSE$ = SYNC$);
     2814    24726    5        END;
     2815    24727
     2816    24728    4      IF REDUCED_DATA.LEVEL.CURRENT <= REDUCED_DATA.LEVEL.PREVIOUS
     2817    24729    4        THEN
     2818    24730    4          CALL FIND_HIER_INDEX(REDUCED_DATA.LEVEL.CURRENT,STK_OBJ);
     2819    24731    4        ELSE
     2820    24732    4          STK_OBJ = HIER_STK_PTR + 1;
     2821    24733
     2822    24734    5      DO I = 1 TO STK_OBJ - 1;
     2823    24735    5        IF HIER_STK.B.CONDITION_OBJ (I)  THEN
     2824    24736    6          DO;
     2825    24737                 %SYNC_ERROR (@ERROR_#   = %E$JUST_SYNC_IN_COND_GROUP);
     2826    24775                 %DELETE_CLAUSE (@CLAUSE$  = SYNC$);
     2827    24780    6            RETURN;
     2828    24781    6          END;
     2829    24782    5        IF HIER_STK.B.VALUE_PRESENTED(I) THEN
     2830    24783    6          DO;
     2831    24784                 %SYNC_ERROR (@ERROR_# = %E$JUST_SYNC_UNDER_VALUE);
     2832    24822                 %DELETE_CLAUSE (@CLAUSE$ = SYNC$);
     2833    24827    6            RETURN;
     2834    24828    6          END;
     2835    24829    5      END;
     2836    24830
     2837    24831    4      IF REDUCED_DATA.USAGE.TYPE = %RSV_WRD_INDEX THEN
     2838    24832    5        DO;
PL6.E3A0      #001=Z8DR$RECORD_DECL File=Z8DR.:Z8A6TSI                           SAT 08/09/97 11:18 Page:106
     2839    24833               %SYNC_ERROR (@ERROR_# = %E$SYNC_IN_INDEX);
     2840    24871               %DELETE_CLAUSE(@CLAUSE$ = SYNC$);
     2841    24876    5          RETURN;
     2842    24877    5        END;
     2843    24878    4   END VALIDATE_SYNC;
     2844    24879        %EJECT;
PL6.E3A0      #001=Z8DR$RECORD_DECL File=Z8DR.:Z8A6TSI                           SAT 08/09/97 11:18 Page:107
     2845    24880        /*=================*/
     2846    24881    3     VALIDATE_EXTERNAL: PROC;
     2847    24882        /*=================*/
     2848    24883
     2849    24884    4      DCL ST$$                PTR;
     2850    24885
     2851    24886
     2852    24887
     2853    24888    4      IF CDECL$ -> LX_REC_DECL.P.EXTERNAL$ = ADDR(NIL) THEN
     2854    24889    4        RETURN;
     2855    24890
     2856    24891    4      IF NOT O1COM.DATA_DECL_CONTEXT = %WORKING_STORAGE
     2857    24892    4         OR   O1COM.LEVEL_NO ~= %LEVEL_01 THEN
     2858    24893    5        DO;
     2859    24894               %EXTERNAL_ERROR (@ERROR_# = %E$EXTERNAL_IN_WRONG_CONTEXT);
     2860    24932               %DELETE_CLAUSE (@CLAUSE$ = EXTERNAL$);
     2861    24937    5          RETURN;
     2862    24938    5        END;
     2863    24939
     2864    24940    4      IF CDECL$ -> LX_REC_DECL.P.DATA_NAME$ = ADDR(NIL) THEN
     2865    24941    5        DO;
     2866    24942               %EXTERNAL_ERROR (@ERROR_# = %E$EXT_GLOBAL_NO_DATA_NAME);
     2867    24980               %DELETE_CLAUSE  (@CLAUSE$ = EXTERNAL$);
     2868    24985    5          RETURN;
     2869    24986    5        END;
     2870    24987
     2871    24988    4      IF CDECL$ -> LX_REC_DECL.P.REDEFINES$ ~= ADDR(NIL) THEN
     2872    24989    5        DO;
     2873    24990               %EXTERNAL_ERROR (@ERROR_# = %E$EXTERNAL_AND_REDEFINES);
     2874    25028               %DELETE_CLAUSE  (@CLAUSE$ = EXTERNAL$);
     2875    25033    5          RETURN;
     2876    25034    5        END;
     2877    25035
     2878    25036    4      ST$$ = CDECL$ -> LX_REC_DECL.P.DATA_NAME$ -> LX_ITEM.DNT$ -> DNT.ST$;
     2879    25037
     2880    25038    5      DO WHILE ( ST$$ ~= ADDR(NIL));
     2881    25039    5        IF ST$$ -> VARIABLE.B.EXTERNAL
PL6.E3A0      #001=Z8DR$RECORD_DECL File=Z8DR.:Z8A6TSI                           SAT 08/09/97 11:18 Page:108
     2882    25040    5        AND ST$$ -> VARIABLE.PROC$ = O1COM.CURRENT_PROC$ THEN
     2883    25041    6          DO;
     2884    25042                 %EXTERNAL_ERROR (@ERROR_# = %E$SAME_EXTERNAL_NAMES);
     2885    25080                 %DELETE_CLAUSE (@CLAUSE$ = EXTERNAL$);
     2886    25085    6            RETURN;
     2887    25086    6          END;
     2888    25087    5         ST$$ = ST$$ -> ST.NEXT;
     2889    25088    5       END;
     2890    25089
     2891    25090    4      REDUCED_DATA.B.EXTERNAL = TRUE;
     2892    25091
     2893    25092    4   END VALIDATE_EXTERNAL;
     2894    25093        %EJECT;
PL6.E3A0      #001=Z8DR$RECORD_DECL File=Z8DR.:Z8A6TSI                           SAT 08/09/97 11:18 Page:109
     2895    25094        /*===============*/
     2896    25095    3     VALIDATE_GLOBAL: PROC;
     2897    25096        /*===============*/
     2898    25097
     2899    25098    4      DCL ST$$            PTR;
     2900    25099
     2901    25100    4      IF NOT (O1COM.DATA_DECL_CONTEXT = %WORKING_STORAGE
     2902    25101    4         OR   O1COM.DATA_DECL_CONTEXT = %FILE_DESCRIPTION)
     2903    25102    4         OR  O1COM.LEVEL_NO ~= %LEVEL_01 THEN
     2904    25103             %GLOBAL_ERROR (@ERROR_# = %E$GLOBAL_IN_WRONG_CONTEXT);
     2905    25141
     2906    25142    4      ST$$ = CDECL$ -> LX_REC_DECL.P.DATA_NAME$ -> LX_ITEM.DNT$ -> DNT.ST$;
     2907    25143
     2908    25144    5      DO WHILE (ST$$ ~= ADDR(NIL));
     2909    25145    5        IF ST$$ -> VARIABLE.B.GLOBAL
     2910    25146    5        AND ST$$ -> VARIABLE.PROC$ = O1COM.CURRENT_PROC$ THEN
     2911    25147    6          DO;
     2912    25148                 %GLOBAL_ERROR (@ERROR_# = %E$SAME_GLOBAL_NAMES);
     2913    25186                 %DELETE_CLAUSE (@CLAUSE$ = GLOBAL$);
     2914    25191    6            RETURN;
     2915    25192    6          END;
     2916    25193
     2917    25194    5        ST$$ = ST$$ -> ST.NEXT;
     2918    25195    5      END; /* While */
     2919    25196
     2920    25197
     2921    25198    4      REDUCED_DATA.B.GLOBAL = TRUE;
     2922    25199
     2923    25200    4   END VALIDATE_GLOBAL;
     2924    25201        %EJECT;
PL6.E3A0      #001=Z8DR$RECORD_DECL File=Z8DR.:Z8A6TSI                           SAT 08/09/97 11:18 Page:110
     2925    25202        /*===================*/
     2926    25203    3     VALIDATE_BLANK_ZERO: PROC;
     2927    25204        /*===================*/
     2928    25205
     2929    25206
     2930    25207
     2931    25208
     2932    25209
     2933    25210    4      IF NOT REDUCED_DATA.B.ELEMENTARY THEN
     2934    25211    5        DO;
     2935    25212               %BLANK_ERROR (@ERROR_# = %E$BWZ_NOT_ELEMENTARY);
     2936    25250               %DELETE_CLAUSE (@CLAUSE$ = BLANK$);
     2937    25255    5          RETURN;
     2938    25256    5        END;
     2939    25257
     2940    25258    4      IF CDECL$ -> LX_REC_DECL.P.PIC_CLAUSE$ = ADDR(NIL) THEN
     2941    25259    5        DO;
     2942    25260               %BLANK_ERROR   (@ERROR_# = %E$NO_PIC_WITH_BWZ);
     2943    25298               %DELETE_CLAUSE (@CLAUSE$ = BLANK$);
     2944    25303    5        END;
     2945    25304    4      ELSE
     2946    25305    4        IF REDUCED_DATA.USAGE.TYPE ~= %NO_USAGE AND
     2947    25306    4            REDUCED_DATA.USAGE.TYPE ~= %RSV_WRD_GBCD AND
     2948    25307    4            REDUCED_DATA.USAGE.TYPE ~= %RSV_WRD_EBCDIC THEN
     2949    25308    5          DO;
     2950    25309                 %BLANK_ERROR   (@ERROR_# = %E$BWZ_MUST_BE_DISPLAY);
     2951    25347                 %DELETE_CLAUSE (@CLAUSE$ = BLANK$);
     2952    25352    5          END;
     2953    25353    4        ELSE
     2954    25354    4          IF PIC_OUT.TYPE = %PIC_TY_N THEN
     2955    25355    4            PIC_OUT.TYPE = %PIC_TY_NE;
     2956    25356    4          ELSE
     2957    25357    4            IF PIC_OUT.TYPE ~= %PIC_TY_NE THEN
     2958    25358    5              DO;
     2959    25359                     %BLANK_ERROR   (@ERROR_# = %E$BWZ_MUST_BE_DISPLAY);
     2960    25397                     %DELETE_CLAUSE (@CLAUSE$ = BLANK$);
     2961    25402    5              END;
PL6.E3A0      #001=Z8DR$RECORD_DECL File=Z8DR.:Z8A6TSI                           SAT 08/09/97 11:18 Page:111
     2962    25403
     2963    25404    4   END VALIDATE_BLANK_ZERO;
     2964    25405        %EJECT;
PL6.E3A0      #001=Z8DR$RECORD_DECL File=Z8DR.:Z8A6TSI                           SAT 08/09/97 11:18 Page:112
     2965    25406        /*================*/
     2966    25407    3     QUALIFY_VARIABLE: PROC (QUAL_ID$, FATHER$, ST$) ALTRET;
     2967    25408        /*================*/
     2968    25409
     2969    25410    4   DCL QUAL_ID$ PTR;
     2970    25411    4   DCL ST$ PTR;
     2971    25412    4   DCL FATHER$                   PTR;
     2972    25413    4   DCL CURRENT_QLT$              PTR;
     2973    25414
     2974    25415    4   DCL LIST$                     PTR;
     2975    25416    4   DCL CURRENT_FATHER$           PTR;
     2976    25417    4   DCL CURRENT_ST$               PTR;
     2977    25418
     2978    25419    4   DCL QUALIFIED                 BOOLEAN;
     2979    25420
     2980    25421    4    QUALIFIED   = FALSE;
     2981    25422    4    LIST$       = QUAL_ID$ -> LX_LIST.HEAD$;
     2982    25423    4    CURRENT_ST$ = LIST$ -> LX_ITEM.DNT$ -> DNT.ST$;
     2983    25424    4    ST$         = CURRENT_ST$;
     2984    25425
     2985    25426    4    IF CURRENT_ST$ = ADDR(NIL) THEN
     2986    25427    5      DO;
     2987    25428    5        CALL Z8AE$ERROR (%E$UNDECLARED_DATA_NAME,
     2988    25429    5                         LIST$ -> LX_ITEM.LINE,
     2989    25430    5                         LIST$ -> LX_ITEM.COLUMN,
     2990    25431    5                         LIST$ -> LX_ITEM.DNT$);
     2991    25432    5        ALTRETURN;
     2992    25433    5      END;
     2993    25434
     2994    25435    4    IF  ST$ -> ST.ID ~= %SCALAR AND
     2995    25436    4          ST$ -> ST.ID ~= %ARRAY  THEN
     2996    25437    5      DO;
     2997    25438    5        CALL Z8AE$ERROR (%E$ILLEGAL_SYMBOL,
     2998    25439    5                         LIST$ -> LX_ITEM.LINE,
     2999    25440    5                         LIST$ -> LX_ITEM.COLUMN,
     3000    25441    5                         LIST$ -> LX_ITEM.DNT$);
     3001    25442    5        ALTRETURN;
PL6.E3A0      #001=Z8DR$RECORD_DECL File=Z8DR.:Z8A6TSI                           SAT 08/09/97 11:18 Page:113
     3002    25443    5      END;
     3003    25444
     3004    25445    5    DO UNTIL (CURRENT_ST$ = ADDR(NIL) OR
     3005    25446    5              CURRENT_ST$ -> SCALAR.PROC$ ~= O1COM.CURRENT_PROC$);
     3006    25447
     3007    25448    5      CURRENT_FATHER$ = CURRENT_ST$ -> SCALAR.QLT$ -> QLT.FATHER;
     3008    25449
     3009    25450    6      DO WHILE (CURRENT_FATHER$ ~= ADDR(NIL) AND
     3010    25451    6                LIST$ -> LX_ITEM.LINK ~= ADDR(NIL));
     3011    25452
     3012    25453    6        IF CURRENT_FATHER$ -> QLT.ST$ -> SCALAR.DNT$ -> DNT.ST$
     3013    25454    6           = LIST$ -> LX_ITEM.LINK -> LX_ITEM.DNT$ -> DNT.ST$ THEN
     3014    25455    6          LIST$ = LIST$ -> LX_ITEM.LINK;
     3015    25456
     3016    25457    6        CURRENT_FATHER$ = CURRENT_FATHER$ -> QLT.FATHER;
     3017    25458
     3018    25459    6      END; /* While -- current_father$ ~= nil and list$->lx_item.next ~= nil */
     3019    25460
     3020    25461    5      IF LIST$ = QUAL_ID$ -> LX_LIST.TAIL$ THEN
     3021    25462    6        DO;
     3022    25463    6          CURRENT_QLT$ = CURRENT_ST$ -> SCALAR.QLT$;
     3023    25464
     3024    25465    7          DO WHILE (CURRENT_QLT$ ~= ADDR(NIL));
     3025    25466    7            IF CURRENT_QLT$ = FATHER$ THEN
     3026    25467    7              EXIT;
     3027    25468    7            ELSE
     3028    25469    7              CURRENT_QLT$ = CURRENT_QLT$ -> QLT.FATHER;
     3029    25470    7          END;
     3030    25471
     3031    25472    6          IF CURRENT_QLT$ ~= ADDR(NIL) THEN
     3032    25473    6            IF QUALIFIED THEN
     3033    25474    7              DO;
     3034    25475    7                ST$ = CURRENT_ST$;
     3035    25476    7                IF QUAL_ID$ -> LX_LIST.HEAD$ -> LX_ITEM.DNT$ -> DNT.ST$
     3036    25477    7                     -> SCALAR.B.COMPILER_CREATED  THEN
     3037    25478    7                   ALTRETURN;
     3038    25479
PL6.E3A0      #001=Z8DR$RECORD_DECL File=Z8DR.:Z8A6TSI                           SAT 08/09/97 11:18 Page:114
     3039    25480    7                CALL Z8AE$ERROR (%E$AMBIGUOUS_REFERENCE,
     3040    25481    7                     QUAL_ID$ -> LX_LIST.HEAD$ -> LX_ITEM.LINE,
     3041    25482    7                     QUAL_ID$ -> LX_LIST.HEAD$ -> LX_ITEM.COLUMN,
     3042    25483    7                     QUAL_ID$ -> LX_LIST.HEAD$ -> LX_ITEM.DNT$);
     3043    25484    7                ALTRETURN;
     3044    25485    7              END;
     3045    25486    6            ELSE
     3046    25487    7              DO;
     3047    25488    7                QUALIFIED = TRUE;
     3048    25489    7                ST$       = CURRENT_ST$;
     3049    25490    7              END;
     3050    25491
     3051    25492    6        END;
     3052    25493
     3053    25494    5        LIST$ = QUAL_ID$ -> LX_LIST.HEAD$;
     3054    25495    6        DO UNTIL CURRENT_ST$ = ADDR(NIL) OR
     3055    25496    6            CURRENT_ST$ -> ST.ID = %SCALAR OR
     3056    25497    6            CURRENT_ST$ -> ST.ID = %ARRAY;
     3057    25498    6          CURRENT_ST$ = CURRENT_ST$ -> SCALAR.NEXT;
     3058    25499    6        END;
     3059    25500    5    END; /* Until -- current_st$ = addr(nil) */
     3060    25501
     3061    25502    4    IF NOT QUALIFIED THEN
     3062    25503    5      DO;
     3063    25504    5        ST$ = ADDR(NIL);
     3064    25505    5        IF QUAL_ID$ -> LX_LIST.HEAD$ -> LX_ITEM.DNT$ -> DNT.ST$
     3065    25506    5             -> SCALAR.B.COMPILER_CREATED  THEN
     3066    25507    5           ALTRETURN;
     3067    25508
     3068    25509    5        CALL Z8AE$ERROR (%E$DATA_NAME_QUAL_ERROR,
     3069    25510    5             QUAL_ID$ -> LX_LIST.HEAD$ -> LX_ITEM.LINE,
     3070    25511    5             QUAL_ID$ -> LX_LIST.HEAD$ -> LX_ITEM.COLUMN,
     3071    25512    5             QUAL_ID$ -> LX_LIST.HEAD$ -> LX_ITEM.DNT$);
     3072    25513    5        ALTRETURN;
     3073    25514    5      END;
     3074    25515
     3075    25516
PL6.E3A0      #001=Z8DR$RECORD_DECL File=Z8DR.:Z8A6TSI                           SAT 08/09/97 11:18 Page:115
     3076    25517    4   END QUALIFY_VARIABLE; /* Proc -- Qualify_variable */
     3077    25518        %EJECT;
PL6.E3A0      #001=Z8DR$RECORD_DECL File=Z8DR.:Z8A6TSI                           SAT 08/09/97 11:18 Page:116
     3078    25519        /*============*/
     3079    25520    3     VALIDATE_KEY: PROC;
     3080    25521        /*============*/
     3081    25522
     3082    25523
     3083    25524    4   DCL KEY$                      PTR;
     3084    25525
     3085    25526
     3086    25527    4        IF CDECL$ -> LX_REC_DECL.P.KEY$ ~= ADDR(NIL)
     3087    25528    4        AND CDECL$ -> LX_REC_DECL.P.OCCURS$ = ADDR(NIL) THEN
     3088    25529    5          DO;
     3089    25530    5            KEY$ = CDECL$ -> LX_REC_DECL.P.KEY$ -> LX_LIST.HEAD$ ->
     3090    25531    5                   LX_LIST.HEAD$;
     3091    25532
     3092    25533                 %CONDITIONAL_ERROR (@LX_ITEM$ = KEY$,
     3093    25534                                     @ERROR#   = %E$KEY_MUST_HAVE_OCCURS,
     3094    25535                                     @LINE     = KEY$ -> LX_ITEM.LINE,
     3095    25536                                     @COLUMN   = KEY$ -> LX_ITEM.COLUMN);
     3096    25566                 %DELETE_CLAUSE (@CLAUSE$ = KEY$);
     3097    25571    5          END;
     3098    25572
     3099    25573    4   END VALIDATE_KEY;
     3100    25574        %EJECT;
PL6.E3A0      #001=Z8DR$RECORD_DECL File=Z8DR.:Z8A6TSI                           SAT 08/09/97 11:18 Page:117
     3101    25575        /*==============*/
     3102    25576    3     VALIDATE_INDEX: PROC;
     3103    25577        /*==============*/
     3104    25578
     3105    25579    4   DCL INDEX$                    PTR;
     3106    25580    4   DCL COLUMN#                   SBIN WORD;
     3107    25581    4   DCL LINE#                     SBIN WORD;
     3108    25582
     3109    25583
     3110    25584
     3111    25585    4      INDEX$  = CDECL$ -> LX_REC_DECL.P.INDEXED$ -> LX_LIST.HEAD$;
     3112    25586
     3113    25587    4      LINE#   = INDEX$ -> LX_TERMINAL.LINE;
     3114    25588    4      COLUMN# = INDEX$ -> LX_TERMINAL.COLUMN;
     3115    25589
     3116    25590    4      IF CDECL$ -> LX_REC_DECL.P.OCCURS$ = ADDR(NIL) THEN
     3117    25591    5        DO;
     3118    25592               %CONDITIONAL_ERROR (@LX_ITEM$ = INDEX$,
     3119    25593                                   @ERROR#   = %E$INDEX_MUST_HAVE_OCCURS,
     3120    25594                                   @LINE     = LINE#,
     3121    25595                                   @COLUMN   = COLUMN#);
     3122    25625               %DELETE_CLAUSE (@CLAUSE$ = INDEXED$);
     3123    25630    5          RETURN;
     3124    25631    5        END;
     3125    25632
     3126    25633    4   END VALIDATE_INDEX;
     3127    25634        %EJECT;
PL6.E3A0      #001=Z8DR$RECORD_DECL File=Z8DR.:Z8A6TSI                           SAT 08/09/97 11:18 Page:118
     3128    25635
     3129    25636
     3130    25637        /* Main Body */
     3131    25638
     3132    25639
     3133    25640
     3134    25641    3        CALL VALIDATE_LEVEL;
     3135    25642    3        CALL VALIDATE_USAGE;
     3136    25643
     3137    25644    3        IF CDECL$ -> LX_REC_DECL.P.PIC_CLAUSE$ ~= ADDR(NIL) THEN
     3138    25645    3          CALL VALIDATE_PIC;
     3139    25646
     3140    25647    3        IF CDECL$ -> LX_REC_DECL.P.BLANK$ ~= ADDR(NIL) THEN
     3141    25648    3          CALL VALIDATE_BLANK_ZERO;
     3142    25649
     3143    25650    3        CALL VALIDATE_VALUE;
     3144    25651
     3145    25652    3        IF CDECL$ -> LX_REC_DECL.P.SIGN$ ~= ADDR(NIL) THEN
     3146    25653    3          CALL VALIDATE_SIGN;
     3147    25654
     3148    25655    3        CALL VALIDATE_KEY;
     3149    25656
     3150    25657    3        IF CDECL$ -> LX_REC_DECL.P.INDEXED$ ~= ADDR(NIL) THEN
     3151    25658    3          CALL VALIDATE_INDEX;
     3152    25659
     3153    25660    3        IF CDECL$ -> LX_REC_DECL.P.OCCURS$ ~= ADDR(NIL) THEN
     3154    25661    3          CALL VALIDATE_OCCURS;
     3155    25662
     3156    25663    3        IF CDECL$ -> LX_REC_DECL.P.RENAMES$ ~= ADDR(NIL) THEN
     3157    25664    3          CALL VALIDATE_RENAMES;
     3158    25665
     3159    25666    3        IF CDECL$ -> LX_REC_DECL.P.REDEFINES$ ~= ADDR(NIL) THEN
     3160    25667    3          CALL VALIDATE_REDEFINES;
     3161    25668
     3162    25669    3        IF CDECL$ -> LX_REC_DECL.P.JUSTIFIED$ ~= ADDR(NIL) THEN
     3163    25670    3          CALL VALIDATE_JUSTIFIED;
     3164    25671
PL6.E3A0      #001=Z8DR$RECORD_DECL File=Z8DR.:Z8A6TSI                           SAT 08/09/97 11:18 Page:119
     3165    25672    3        IF CDECL$ -> LX_REC_DECL.P.SYNC$ ~= ADDR(NIL) THEN
     3166    25673    3          CALL VALIDATE_SYNC;
     3167    25674
     3168    25675    3        IF CDECL$ -> LX_REC_DECL.P.EXTERNAL$ ~= ADDR(NIL) THEN
     3169    25676    3          CALL VALIDATE_EXTERNAL;
     3170    25677
     3171    25678    3        IF CDECL$ -> LX_REC_DECL.P.GLOBAL$ ~= ADDR(NIL) THEN
     3172    25679    3          CALL VALIDATE_GLOBAL;
     3173    25680
     3174    25681
     3175    25682    3   END RECORD_VALIDATION;
     3176    25683        %EJECT;
PL6.E3A0      #001=Z8DR$RECORD_DECL File=Z8DR.:Z8A6TSI                           SAT 08/09/97 11:18 Page:120
     3177    25684        /*===============*/
     3178    25685    2     FIND_HIER_INDEX: PROC (TEMP_LEVEL#, K);
     3179    25686        /*===============*/
     3180    25687
     3181    25688    3   DCL LEVEL#                    SBIN WORD;
     3182    25689    3   DCL I                         SBIN WORD;
     3183    25690    3   DCL TEMP_LEVEL#               SBIN;
     3184    25691    3   DCL K                         SBIN;
     3185    25692
     3186    25693    3      LEVEL# = TEMP_LEVEL#;
     3187    25694    3      I = 1;
     3188    25695
     3189    25696    3      IF LEVEL# ~= %LEVEL_01 THEN
     3190    25697    4        DO UNTIL (HIER_STK.LEVEL#(I) >= LEVEL#);
     3191    25698    4          I = I + 1;
     3192    25699    4        END;
     3193    25700
     3194    25701    3      K = I;
     3195    25702
     3196    25703    3   END FIND_HIER_INDEX;
     3197    25704        %EJECT;
PL6.E3A0      #001=Z8DR$RECORD_DECL File=Z8DR.:Z8A6TSI                           SAT 08/09/97 11:18 Page:121
     3198    25705        /*****************************************************************
     3199    25706         *                                                               *
     3200    25707         *                     PROCESS_RECORD_DECL                  *
     3201    25708         *                                                               *
     3202    25709         *                     ************************                  *
     3203    25710         *                                                               *
     3204    25711         *****************************************************************/
     3205    25712        %EJECT;
PL6.E3A0      #001=Z8DR$RECORD_DECL File=Z8DR.:Z8A6TSI                           SAT 08/09/97 11:18 Page:122
     3206    25713        /*===================*/
     3207    25714    2     PROCESS_RECORD_DECL: PROC;
     3208    25715        /*===================*/
     3209    25716
     3210    25717    3   DCL NEW_ST$                   PTR;
     3211    25718    3   DCL DML_TYPE                  UBIN(3);
     3212    25719
     3213    25720        %EJECT;
PL6.E3A0      #001=Z8DR$RECORD_DECL File=Z8DR.:Z8A6TSI                           SAT 08/09/97 11:18 Page:123
     3214    25721
     3215    25722
     3216    25723        /* Internal Procedures */
     3217    25724
     3218    25725        /*===========*/
     3219    25726    3     UPDATE_HIER: PROC;
     3220    25727        /*===========*/
     3221    25728
     3222    25729    4   DCL QLT$$                     PTR;
     3223    25730    4   DCL PREV_LEVEL                SBIN WORD;
     3224    25731
     3225    25732    4      QLT$$ = NEW_ST$ -> SCALAR.QLT$;
     3226    25733    4      PREV_LEVEL = HIER_STK_PTR;
     3227    25734
     3228    25735    5      DO CASE (REDUCED_DATA.LEVEL.CURRENT);
     3229    25736    5        CASE(%LEVEL_66);
     3230    25737    5          HIER_STK_PTR = 02;
     3231    25738
     3232    25739    5        CASE(%LEVEL_01);
     3233    25740    5          HIER_STK_PTR = %LEVEL_01;
     3234    25741
     3235    25742    5        CASE(ELSE);
     3236    25743    5          IF REDUCED_DATA.LEVEL.CURRENT <= REDUCED_DATA.LEVEL.PREVIOUS THEN
     3237    25744    5            CALL FIND_HIER_INDEX (REDUCED_DATA.LEVEL.CURRENT, HIER_STK_PTR);
     3238    25745    5          ELSE
     3239    25746    5            HIER_STK_PTR = HIER_STK_PTR + 1;
     3240    25747
     3241    25748    5      END; /* Case */
     3242    25749
     3243    25750    4      CALL CLEAR_HIER (HIER_STK_PTR, PREV_LEVEL);
     3244    25751
     3245    25752    4      CALL LINK_HIER_WITH_QLT (HIER_STK_PTR);
     3246    25753
     3247    25754    4      HIER_STK.DIMS$(HIER_STK_PTR)             = REDUCED_DATA.DIMS$;
     3248    25755    4      HIER_STK.B.SIGN_PRESENT(HIER_STK_PTR)    = REDUCED_DATA.B.SIGN_PRESENT;
     3249    25756    4      HIER_STK.B.SIGN_FOUND(HIER_STK_PTR)      = REDUCED_DATA.B.SIGN_FOUND;
     3250    25757    4      HIER_STK.SIGN.LOCATION(HIER_STK_PTR)     = REDUCED_DATA.SIGN.LOCATION;
PL6.E3A0      #001=Z8DR$RECORD_DECL File=Z8DR.:Z8A6TSI                           SAT 08/09/97 11:18 Page:124
     3251    25758    4      HIER_STK.SIGN.TYPE(HIER_STK_PTR)         = REDUCED_DATA.SIGN.TYPE;
     3252    25759    4      HIER_STK.SIGN.LINE(HIER_STK_PTR)         = REDUCED_DATA.SIGN.LINE;
     3253    25760    4      HIER_STK.SIGN.COLUMN(HIER_STK_PTR)       = REDUCED_DATA.SIGN.COLUMN;
     3254    25761    4      HIER_STK.B.CONDITION_OBJ(HIER_STK_PTR)   = FALSE;
     3255    25762    4      HIER_STK.B.VALUE_PRESENTED(HIER_STK_PTR)   = FALSE;
     3256    25763
     3257    25764    4   END UPDATE_HIER;
     3258    25765        %EJECT;
PL6.E3A0      #001=Z8DR$RECORD_DECL File=Z8DR.:Z8A6TSI                           SAT 08/09/97 11:18 Page:125
     3259    25766        /*==========*/
     3260    25767    3     CLEAR_HIER: PROC (FROM_LEVEL, TO_LEVEL);
     3261    25768        /*==========*/
     3262    25769
     3263    25770    4   DCL FROM_LEVEL               SBIN WORD;
     3264    25771    4   DCL TO_LEVEL                 SBIN WORD;
     3265    25772    4   DCL TO#                      SBIN;
     3266    25773    4   DCL FROM#                    SBIN;
     3267    25774
     3268    25775    4   DCL I                  SBIN WORD;
     3269    25776
     3270    25777
     3271    25778    4      FROM# = FROM_LEVEL;
     3272    25779    4      TO#   = TO_LEVEL;
     3273    25780
     3274    25781    5      DO I = FROM# + 1 TO TO#;
     3275    25782             %UPDATE_HIER_STK (@STK_PTR = I); /* Defaults */
     3276    25795    5      END;
     3277    25796
     3278    25797    4   END CLEAR_HIER;
     3279    25798        %EJECT;
PL6.E3A0      #001=Z8DR$RECORD_DECL File=Z8DR.:Z8A6TSI                           SAT 08/09/97 11:18 Page:126
     3280    25799        /*==================*/
     3281    25800    3     LINK_HIER_WITH_QLT: PROC (INDEX#);
     3282    25801        /*==================*/
     3283    25802
     3284    25803    4   DCL STK_INDEX                 SBIN WORD;
     3285    25804    4   DCL INDEX#                    SBIN;
     3286    25805
     3287    25806    4   DCL I                         SBIN WORD;
     3288    25807    4   DCL BRO$                      PTR;
     3289    25808    4   DCL TEMP_QLT$                 PTR;
     3290    25809
     3291    25810    4      TEMP_QLT$ = NEW_ST$ -> SCALAR.QLT$;
     3292    25811    4      STK_INDEX = INDEX#;
     3293    25812
     3294    25813    4      IF STK_INDEX = %LEVEL_01 THEN
     3295    25814    4        CALL LINK_WITH_LAST_BROTHER (TEMP_QLT$, HIER_STK.QLT$(STK_INDEX));
     3296    25815    4      ELSE
     3297    25816    5        DO;
     3298    25817    5          I = STK_INDEX - 1;
     3299    25818
     3300    25819    5          IF HIER_STK.QLT$(I) ~= ADDR(NIL) THEN
     3301    25820    6            DO;
     3302    25821    6              CALL LINK_WITH_LAST_BROTHER (TEMP_QLT$,
     3303    25822    6                                           HIER_STK.QLT$(I) -> QLT.SON);
     3304    25823
     3305    25824    6              TEMP_QLT$ -> QLT.FATHER = HIER_STK.QLT$(I);
     3306    25825    6            END;
     3307    25826    5        END;
     3308    25827
     3309    25828    4      HIER_STK.QLT$(STK_INDEX)   = TEMP_QLT$;
     3310    25829    4      HIER_STK.LEVEL#(STK_INDEX) = REDUCED_DATA.LEVEL.CURRENT;
     3311    25830
     3312    25831
     3313    25832    4   END LINK_HIER_WITH_QLT;
     3314    25833        %EJECT;
PL6.E3A0      #001=Z8DR$RECORD_DECL File=Z8DR.:Z8A6TSI                           SAT 08/09/97 11:18 Page:127
     3315    25834        /*===================*/
     3316    25835    3     PROPAGATE_SIGN_INFO: PROC;
     3317    25836        /*===================*/
     3318    25837
     3319    25838    4   DCL I                         SBIN WORD;
     3320    25839
     3321    25840    4      IF REDUCED_DATA.B.SIGN_PRESENT
     3322    25841    4      OR REDUCED_DATA.LEVEL.CURRENT = %LEVEL_01 THEN
     3323    25842    4        RETURN;
     3324    25843    4      ELSE
     3325    25844    5        DO;
     3326    25845    5          IF REDUCED_DATA.LEVEL.CURRENT <= REDUCED_DATA.LEVEL.PREVIOUS THEN
     3327    25846    5              CALL FIND_HIER_INDEX (REDUCED_DATA.LEVEL.CURRENT, I);
     3328    25847    5          ELSE
     3329    25848    5            I = HIER_STK_PTR + 1;
     3330    25849
     3331    25850    5          IF REDUCED_DATA.USAGE.TYPE ~= %RSV_WRD_COMP_4 OR
     3332    25851    6             HIER_STK.USAGE_TYPE (I - 1) ~= %NO_USAGE THEN DO;
     3333    25852    6            REDUCED_DATA.SIGN.LOCATION = HIER_STK.SIGN.LOCATION (I - 1);
     3334    25853    6            REDUCED_DATA.SIGN.TYPE     = HIER_STK.SIGN.TYPE     (I - 1);
     3335    25854    6          END;
     3336    25855    5        END;
     3337    25856
     3338    25857    4   END PROPAGATE_SIGN_INFO;
     3339    25858        %EJECT;
PL6.E3A0      #001=Z8DR$RECORD_DECL File=Z8DR.:Z8A6TSI                           SAT 08/09/97 11:18 Page:128
     3340    25859
     3341    25860        /*================*/
     3342    25861    3     CHECK_MAX_DIGITS: PROC (ITEM$, LENGTH, SIGN);
     3343    25862        /*================*/
     3344    25863
     3345    25864    4        DCL ITEM$         PTR;
     3346    25865    4        DCL LENGTH        SBIN WORD;
     3347    25866    4        DCL SIGN          BIT (2) ALIGNED;
     3348    25867    4        DCL TEMP_LENGTH   SBIN WORD;
     3349    25868
     3350    25869    4        TEMP_LENGTH = LENGTH;
     3351    25870
     3352    25871
     3353    25872    4        IF SIGN ~= %NO_SIGN THEN
     3354    25873    4          TEMP_LENGTH = TEMP_LENGTH + 1;
     3355    25874
     3356    25875    4        IF COMCOM.OB.FIPS.LEVEL >= %HIGH_LEV THEN
     3357    25876    4          IF TEMP_LENGTH > %ANSI_MAX_DIGITS THEN
     3358    25877    5            DO;
     3359    25878                   %CONDITIONAL_ERROR (@LX_ITEM$ = ITEM$,
     3360    25879                                       @ERROR#   = %E$ANSI_MAX_PIC_DIGITS,
     3361    25880                                       @LINE     = ITEM$ -> LX_ITEM.LINE,
     3362    25881                                       @COLUMN   = ITEM$ -> LX_ITEM.COLUMN);
     3363    25911    5              LENGTH = %ANSI_MAX_DIGITS;
     3364    25912    5            END;
     3365    25913
     3366    25914    4        IF NOT COMCOM.OB.FIPS.LEVEL >= %HIGH_LEV THEN
     3367    25915    4          IF TEMP_LENGTH > %BULL_MAX_PIC_DIGITS THEN
     3368    25916    5            DO;
     3369    25917                   %CONDITIONAL_ERROR (@LX_ITEM$ = ITEM$,
     3370    25918                                       @ERROR#   = %E$NUMERIC_ITEM_TOO_LONG,
     3371    25919                                       @LINE     = ITEM$ -> LX_ITEM.LINE,
     3372    25920                                       @COLUMN   = ITEM$ -> LX_ITEM.COLUMN);
     3373    25950    5              LENGTH = %BULL_MAX_PIC_DIGITS;
     3374    25951    5            END;
     3375    25952
     3376    25953    4   END CHECK_MAX_DIGITS;
PL6.E3A0      #001=Z8DR$RECORD_DECL File=Z8DR.:Z8A6TSI                           SAT 08/09/97 11:18 Page:129
     3377    25954        %EJECT;
PL6.E3A0      #001=Z8DR$RECORD_DECL File=Z8DR.:Z8A6TSI                           SAT 08/09/97 11:18 Page:130
     3378    25955        /*=================*/
     3379    25956    3     PROCESS_NDSC4_PIC: PROC (OUT);
     3380    25957        /*=================*/
     3381    25958
     3382    25959    4   DCL OUT                UBIN;
     3383    25960
     3384    25961    4   DCL 1 OUT_DESC                ALIGNED,
     3385    25962             %DESCRIPTOR              (LVL = 2, ENDING = YES);
     3386    25990
     3387    25991    4   DCL SIGN                      BIT (2);
     3388    25992    4   DCL LENGTH                    SBIN WORD;
     3389    25993
     3390    25994
     3391    25995           %GET_SIGN (@SIGN     = SIGN,
     3392    25996                      @LOCATION = REDUCED_DATA.SIGN.LOCATION);
     3393    26009
     3394    26010           %DECIPHER_PIC_LENGTH (@LENGTH = LENGTH);
     3395    26024
     3396    26025    4      CALL CHECK_MAX_DIGITS (CDECL$ -> LX_REC_DECL.P.PIC_CLAUSE$,
     3397    26026    4                             LENGTH,
     3398    26027    4                             SIGN);
     3399    26028
     3400    26029           %PACK_NDSC (@DESC   = OUT_DESC,
     3401    26030                       @TN     = %NDSC4,
     3402    26031                       @SIGN   = SIGN,
     3403    26032                       @SCALE  = PIC_OUT.SCALE,
     3404    26033                       @LENGTH = LENGTH);
     3405    26082
     3406    26083    4      REDUCED_DATA.TYPE   = %TYD;
     3407    26084
     3408    26085    4      REDUCED_DATA.B.CLASS = %CLASS_NUMERIC;
     3409    26086
     3410    26087    4      OUT = BITBIN(OUT_DESC);
     3411    26088
     3412    26089    4   END PROCESS_NDSC4_PIC;
     3413    26090        %EJECT;
PL6.E3A0      #001=Z8DR$RECORD_DECL File=Z8DR.:Z8A6TSI                           SAT 08/09/97 11:18 Page:131
     3414    26091        /*=================*/
     3415    26092    3     PROCESS_NDSC9_PIC: PROC (OUT);
     3416    26093        /*=================*/
     3417    26094
     3418    26095    4   DCL OUT                UBIN;
     3419    26096
     3420    26097    4   DCL 1 OUT_DESC                ALIGNED,
     3421    26098             %DESCRIPTOR              (LVL = 2, ENDING = YES);
     3422    26126
     3423    26127    4   DCL SIGN                      BIT (2);
     3424    26128    4   DCL LENGTH                    SBIN WORD;
     3425    26129
     3426    26130           %GET_SIGN (@SIGN      = SIGN,
     3427    26131                      @LOCATION  = REDUCED_DATA.SIGN.LOCATION);
     3428    26144
     3429    26145           %DECIPHER_PIC_LENGTH (@LENGTH = LENGTH);
     3430    26159
     3431    26160    4      IF PIC_OUT.EIS_TYPE ~= %PIC_EIS_NS THEN
     3432    26161             %ADJUST_FOR_OVERPUNCH (@SIGN_TYPE = REDUCED_DATA.SIGN.TYPE,
     3433    26162                                    @LENGTH    = LENGTH,
     3434    26163                                    @TYPE      = REDUCED_DATA.TYPE);
     3435    26177    4      ELSE
     3436    26178    4        REDUCED_DATA.TYPE = %TYD;
     3437    26179
     3438    26180    4      CALL CHECK_MAX_DIGITS (CDECL$ -> LX_REC_DECL.P.PIC_CLAUSE$,
     3439    26181    4                             LENGTH,
     3440    26182    4                             SIGN);
     3441    26183
     3442    26184           %PACK_NDSC (@DESC    = OUT_DESC,
     3443    26185                       @TN      = %NDSC9,
     3444    26186                       @SIGN    = SIGN,
     3445    26187                       @SCALE   = PIC_OUT.SCALE,
     3446    26188                       @LENGTH  = LENGTH);
     3447    26237
     3448    26238    4      REDUCED_DATA.B.CLASS = %CLASS_NUMERIC;
     3449    26239
     3450    26240    4      OUT = BITBIN(OUT_DESC);
PL6.E3A0      #001=Z8DR$RECORD_DECL File=Z8DR.:Z8A6TSI                           SAT 08/09/97 11:18 Page:132
     3451    26241
     3452    26242    4   END PROCESS_NDSC9_PIC;
     3453    26243        %EJECT;
PL6.E3A0      #001=Z8DR$RECORD_DECL File=Z8DR.:Z8A6TSI                           SAT 08/09/97 11:18 Page:133
     3454    26244        /*=============*/
     3455    26245    3     USAGE_DISPLAY: PROC;
     3456    26246        /*=============*/
     3457    26247
     3458    26248
     3459    26249
     3460    26250    5      DO CASE (PIC_OUT.TYPE);
     3461    26251    5        CASE(%PIC_TY_A, %PIC_TY_AN, %PIC_TY_ANE, %PIC_TY_NE, %PIC_TY_AE,
     3462    26252    5             %PIC_TY_K) ;
     3463    26253    5          CALL PROCESS_ADSC_PIC;
     3464    26254
     3465    26255    5          IF REDUCED_DATA.B.SIGN_PRESENT THEN        /*#32431*/
     3466    26256    5            CALL Z8AE$ERROR( %E$SIGN_CLAUSE_NOT_NUMERIC,
     3467    26257    5                       CDECL$ -> LX_REC_DECL.P.SIGN$ -> LX_LIST.HEAD$ -> LX_ITEM.LINE,
     3468    26258    5                       CDECL$ -> LX_REC_DECL.P.SIGN$ -> LX_LIST.HEAD$ -> LX_ITEM.COLUMN
             26258                                );
     3469    26259
     3470    26260    5        CASE(%PIC_TY_N);
     3471    26261    5          CALL PROCESS_NDSC9_PIC (REDUCED_DATA.DESC);
     3472    26262
     3473    26263    5      END; /* Case */
     3474    26264
     3475    26265    4   END USAGE_DISPLAY; /* Proc */
     3476    26266        %EJECT;
PL6.E3A0      #001=Z8DR$RECORD_DECL File=Z8DR.:Z8A6TSI                           SAT 08/09/97 11:18 Page:134
     3477    26267        /*================*/
     3478    26268    3     PROCESS_ADSC_PIC: PROC;
     3479    26269        /*================*/
     3480    26270
     3481    26271
     3482    26272    4   DCL MOP_DNT$                  PTR;
     3483    26273    4   DCL NEW_NEL$                  PTR;
     3484    26274    4   DCL MOP$                      PTR;
     3485    26275    4   DCL TA                        BIT (2);
     3486    26276
     3487    26277
     3488    26278    5      DO CASE(PIC_OUT.TYPE);
     3489    26279    5        CASE(%PIC_TY_NE);
     3490    26280    5          REDUCED_DATA.B.CLASS = %CLASS_EDITED;
     3491    26281    5          MOP_DNT$ = CDECL$ -> LX_REC_DECL.P.PIC_CLAUSE$
     3492    26282    5                     -> LX_ITEM.DNT$;
     3493    26283
     3494    26284    5          CALL Z8EC$CREATE_CONST (%TYM, MOP_DNT$, MOP$);
     3495    26285
     3496    26286               %NEW_NEL (@POINTER = NEW_NEL$,
     3497    26287                         @DNT$    = MOP_DNT$,
     3498    26288                         @MOP$    = MOP$);
     3499    26382    5          CALL Z8DO$LINK_WITH_LTS (REDUCED_DATA.LTS$, NEW_NEL$);
     3500    26383
     3501    26384    5          CALL PROCESS_NDSC9_PIC (NEW_NEL$ -> NEL.DESC);
     3502    26385
     3503    26386    5          IF REDUCED_DATA.USAGE.TYPE = %RSV_WRD_GBCD
     3504    26387    5            THEN TA = %ADSC6;
     3505    26388    5            ELSE TA = %ADSC9;
     3506    26389               %PACK_ADSC (@DESC   = REDUCED_DATA.DESC,
     3507    26390                           @TA     = TA,
     3508    26391                           @LENGTH = PIC_OUT.WIDTH);
     3509    26415    5          REDUCED_DATA.B.CLASS = %CLASS_NUMERIC_EDITED;
     3510    26416    5          REDUCED_DATA.TYPE    = %TYA;
     3511    26417
     3512    26418    5          IF PIC_OUT.B.ASTERISK_SUPRESS THEN
     3513    26419    5            REDUCED_DATA.B.ASTERISK_SUPRESS = TRUE;
PL6.E3A0      #001=Z8DR$RECORD_DECL File=Z8DR.:Z8A6TSI                           SAT 08/09/97 11:18 Page:135
     3514    26420
     3515    26421    5        CASE(%PIC_TY_ANE);
     3516    26422    5          MOP_DNT$ = CDECL$ -> LX_REC_DECL.P.PIC_CLAUSE$
     3517    26423    5                     -> LX_ITEM.DNT$;
     3518    26424
     3519    26425    5          CALL Z8EC$CREATE_CONST (%TYM, MOP_DNT$, MOP$);
     3520    26426
     3521    26427               %NEW_NEL (@POINTER = NEW_NEL$,
     3522    26428                         @DNT$    = MOP_DNT$,
     3523    26429                         @MOP$    = MOP$);
     3524    26523    5          CALL Z8DO$LINK_WITH_LTS (REDUCED_DATA.LTS$, NEW_NEL$);
     3525    26524
     3526    26525    5          REDUCED_DATA.TYPE = %TYA;
     3527    26526    5          CALL ASSIGN_ADSC_DESC;
     3528    26527
     3529    26528               %PACK_ADSC (@DESC  = NEW_NEL$ -> NEL.DESC,
     3530    26529                           @LENGTH = PIC_OUT.LEFT);
     3531    26553
     3532    26554    5          REDUCED_DATA.B.CLASS = %CLASS_ALPHANUMERIC_EDITED;
     3533    26555
     3534    26556    5        CASE(%PIC_TY_AE);
     3535    26557    5          MOP_DNT$ = CDECL$ -> LX_REC_DECL.P.PIC_CLAUSE$
     3536    26558    5                     -> LX_ITEM.DNT$;
     3537    26559
     3538    26560    5          CALL Z8EC$CREATE_CONST (%TYM, MOP_DNT$, MOP$);
     3539    26561
     3540    26562               %NEW_NEL (@POINTER = NEW_NEL$,
     3541    26563                         @DNT$    = MOP_DNT$,
     3542    26564                         @MOP$    = MOP$);
     3543    26658    5          CALL Z8DO$LINK_WITH_LTS (REDUCED_DATA.LTS$, NEW_NEL$);
     3544    26659
     3545    26660    5          REDUCED_DATA.TYPE = %TYA;
     3546    26661    5          CALL ASSIGN_ADSC_DESC;
     3547    26662
     3548    26663               %PACK_ADSC (@DESC  = NEW_NEL$ -> NEL.DESC,
     3549    26664                           @LENGTH = PIC_OUT.LEFT);
     3550    26688
PL6.E3A0      #001=Z8DR$RECORD_DECL File=Z8DR.:Z8A6TSI                           SAT 08/09/97 11:18 Page:136
     3551    26689    5          REDUCED_DATA.B.CLASS = %CLASS_ALPHABETIC_EDITED;
     3552    26690
     3553    26691    5        CASE(%PIC_TY_A);
     3554    26692    5          REDUCED_DATA.B.CLASS = %CLASS_ALPHABETIC;
     3555    26693
     3556    26694    5          REDUCED_DATA.TYPE = %TYA;
     3557    26695    5          CALL ASSIGN_ADSC_DESC;
     3558    26696
     3559    26697    5        CASE(%PIC_TY_AN);
     3560    26698    5          REDUCED_DATA.B.CLASS = %CLASS_ALPHANUMERIC;
     3561    26699    5          REDUCED_DATA.TYPE = %TYA;
     3562    26700    5          CALL ASSIGN_ADSC_DESC;
     3563    26701
     3564    26702    5        CASE(%PIC_TY_K);
     3565    26703    5          REDUCED_DATA.B.CLASS = %CLASS_ALPHANUMERIC;
     3566    26704    5          REDUCED_DATA.B.KANJI = %TRUE;
     3567    26705    5          REDUCED_DATA.TYPE = %TYN;
     3568    26706    5          PIC_OUT.WIDTH = PIC_OUT.WIDTH * 2 ;
     3569    26707    5          CALL ASSIGN_ADSC_DESC;
     3570    26708
     3571    26709    5      END; /* Case */
     3572    26710
     3573    26711    4   END PROCESS_ADSC_PIC;
     3574    26712        %EJECT;
PL6.E3A0      #001=Z8DR$RECORD_DECL File=Z8DR.:Z8A6TSI                           SAT 08/09/97 11:18 Page:137
     3575    26713        /*================*/
     3576    26714    3     ASSIGN_ADSC_DESC: PROC;
     3577    26715        /*================*/
     3578    26716
     3579    26717
     3580    26718    4   DCL NEW_LONG$                 PTR;
     3581    26719    4   DCL TA                        BIT (2);
     3582    26720
     3583    26721
     3584    26722    4      IF REDUCED_DATA.USAGE.TYPE = %RSV_WRD_GBCD
     3585    26723    4        THEN TA = %ADSC6;
     3586    26724    4        ELSE TA = %ADSC9;
     3587    26725    4      IF PIC_OUT.WIDTH > %LENGTH_OF_4095 THEN
     3588    26726    5        DO;
     3589    26727    5          REDUCED_DATA.B.LENGTH_4096 = TRUE;
     3590    26728
     3591    26729    5          IF PIC_OUT.WIDTH >= %#256K THEN
     3592    26730    5            REDUCED_DATA.B.GREATER_256K = TRUE;
     3593    26731
     3594    26732               %NEW_LONG (@POINTER = NEW_LONG$,
     3595    26733                          @LENGTH  = PIC_OUT.WIDTH);
     3596    26825    5          CALL Z8DO$LINK_WITH_LTS (REDUCED_DATA.LTS$, NEW_LONG$);
     3597    26826
     3598    26827               %PACK_ADSC (@DESC    = REDUCED_DATA.DESC,
     3599    26828                           @TA      = TA,
     3600    26829                           @LENGTH  = 0);
     3601    26853    5        END;
     3602    26854    4      ELSE
     3603    26855             %PACK_ADSC (@DESC   = REDUCED_DATA.DESC,
     3604    26856                         @TA      = TA,
     3605    26857                         @LENGTH = PIC_OUT.WIDTH);
     3606    26881
     3607    26882    4   END ASSIGN_ADSC_DESC;
     3608    26883        %EJECT;
PL6.E3A0      #001=Z8DR$RECORD_DECL File=Z8DR.:Z8A6TSI                           SAT 08/09/97 11:18 Page:138
     3609    26884        /*========================*/
     3610    26885    3     CHECK_TYPE_OPTIMIZATIONS: PROC;
     3611    26886        /*========================*/
     3612    26887
     3613    26888
     3614    26889    5        DO CASE (REDUCED_DATA.USAGE.TYPE);
     3615    26890        /*N*   CASE(%RSV_WRD_COMP_1, %RSV_WRD_COMP_2, %RSV_WRD_COMP_7);
     3616    26891                 IF REDUCED_DATA.LEVEL.CURRENT = %LEVEL_01 THEN
     3617    26892                   DO;
     3618    26893                     REDUCED_DATA.TYPE = %TYI;
     3619    26894
     3620    26895                     %BUILD_BINARY_DESC (@LENGTH = %TYI_LENGTH,
     3621    26896                                         @DESC   = REDUCED_DATA.DESC);
     3622    26897                   END;*/
     3623    26898
     3624    26899    5          CASE (%RSV_WRD_INDEX);
     3625    26900    5            IF COMCOM.OB.COBOL_74      THEN
     3626    26901    6              DO;
     3627    26902    6                IF REDUCED_DATA.LEVEL.CURRENT = %LEVEL_01 THEN
     3628    26903    6                  REDUCED_DATA.TYPE = %TYX;
     3629    26904    6                ELSE
     3630    26905    6                  REDUCED_DATA.TYPE = %TYY;
     3631    26906    6              END;
     3632    26907    5            ELSE
     3633    26908    5              REDUCED_DATA.TYPE = %TYX;
     3634    26909
     3635    26910    5          CASE(ELSE);
     3636    26911    5            /* No optimizations yet */;
     3637    26912    5        END;
     3638    26913
     3639    26914    4   END CHECK_TYPE_OPTIMIZATIONS;
     3640    26915        %EJECT;
PL6.E3A0      #001=Z8DR$RECORD_DECL File=Z8DR.:Z8A6TSI                           SAT 08/09/97 11:18 Page:139
     3641    26916        /*===============*/
     3642    26917    3     FILL_DESCRIPTOR: PROC;
     3643    26918        /*===============*/
     3644    26919
     3645    26920
     3646    26921    4      DML_TYPE = %NO_TYPE;
     3647    26922    4      CALL PROPAGATE_SIGN_INFO;
     3648    26923
     3649    26924    4      IF CDECL$ -> LX_REC_DECL.P.RENAMES$ ~= ADDR(NIL) THEN
     3650    26925    5        DO;
     3651    26926    5          CALL PROCESS_RENAMES;
     3652    26927    5          RETURN;
     3653    26928    5        END;
     3654    26929
     3655    26930    4      IF NOT O1COM.DATA_DECL_CONTEXT = %LINKAGE_SECTION
     3656    26931    4      AND CDECL$ -> LX_REC_DECL.P.EXTERNAL$ = ADDR(NIL) THEN
     3657    26932    4        CALL CHECK_TYPE_OPTIMIZATIONS;
     3658    26933
     3659    26934    5      DO CASE (REDUCED_DATA.USAGE.TYPE);
     3660    26935
     3661    26936    5        CASE(%RSV_WRD_COMP, %RSV_WRD_COMP_5);
     3662    26937    5          CALL PROCESS_NDSC4_PIC (REDUCED_DATA.DESC);
     3663    26938
     3664    26939    5          REDUCED_DATA.B.P = TRUE;
     3665    26940
     3666    26941    5        CASE(%RSV_WRD_COMP_3);
     3667    26942    5          CALL PROCESS_NDSC4_PIC (REDUCED_DATA.DESC);
     3668    26943
     3669    26944    5        CASE(%RSV_WRD_COMP_1);
     3670    26945    5          IF CDECL$ -> LX_REC_DECL.P.SYNC$ ~= ADDR(NIL) THEN
     3671    26946    5            REDUCED_DATA.B.SYNC = TRUE;
     3672    26947
     3673    26948    5          REDUCED_DATA.TYPE        = %TYJ;
     3674    26949    5          REDUCED_DATA.B.CLASS    = %CLASS_NUMERIC;
     3675    26950
     3676    26951               %BUILD_BINARY_DESC (@LENGTH = %TYJ_LENGTH,
     3677    26952                                   @DESC   = REDUCED_DATA.DESC);
PL6.E3A0      #001=Z8DR$RECORD_DECL File=Z8DR.:Z8A6TSI                           SAT 08/09/97 11:18 Page:140
     3678    26960
     3679    26961    5          CALL CHECK_TYPE_OPTIMIZATIONS;
     3680    26962
     3681    26963    5        CASE(%RSV_WRD_COMP_2);
     3682    26964    5          IF CDECL$ -> LX_REC_DECL.P.SYNC$ ~= ADDR(NIL) THEN
     3683    26965    5            REDUCED_DATA.B.SYNC = TRUE;
     3684    26966
     3685    26967    5          REDUCED_DATA.TYPE        = %TYK;
     3686    26968    5          REDUCED_DATA.B.CLASS    = %CLASS_NUMERIC;
     3687    26969
     3688    26970               %BUILD_BINARY_DESC (@LENGTH = %TYK_LENGTH,
     3689    26971                                   @DESC   = REDUCED_DATA.DESC);
     3690    26979
     3691    26980    5          CALL CHECK_TYPE_OPTIMIZATIONS;
     3692    26981
     3693    26982    5        CASE(%RSV_WRD_COMP_4, %RSV_WRD_COMP_8);
     3694    26983    5          REDUCED_DATA.B.DIGIT   = TRUE;
     3695    26984
     3696    26985    5          CALL PROCESS_NDSC4_PIC (REDUCED_DATA.DESC);
     3697    26986
     3698    26987    5          REDUCED_DATA.B.P = TRUE;
     3699    26988
     3700    26989    5        CASE(%RSV_WRD_COMP_6);
     3701    26990    5          REDUCED_DATA.TYPE        = %TYI;
     3702    26991    5          REDUCED_DATA.B.CLASS    = %CLASS_NUMERIC;
     3703    26992
     3704    26993               %BUILD_BINARY_DESC (@LENGTH = %TYI_LENGTH,
     3705    26994                                   @DESC   = REDUCED_DATA.DESC);
     3706    27002
     3707    27003    5        CASE(%RSV_WRD_COMP_7);
     3708    27004    5          REDUCED_DATA.TYPE        = %TYH;
     3709    27005    5          REDUCED_DATA.B.CLASS     = %CLASS_NUMERIC;
     3710    27006
     3711    27007               %BUILD_BINARY_DESC (@LENGTH = %TYH_LENGTH,
     3712    27008                                   @DESC   = REDUCED_DATA.DESC);
     3713    27016    5          CALL CHECK_TYPE_OPTIMIZATIONS;
     3714    27017
PL6.E3A0      #001=Z8DR$RECORD_DECL File=Z8DR.:Z8A6TSI                           SAT 08/09/97 11:18 Page:141
     3715    27018
     3716    27019    5        CASE(%RSV_WRD_COMP_11, %RSV_WRD_COMP_13);
     3717    27020    5          REDUCED_DATA.TYPE        = %TYR;
     3718    27021    5          REDUCED_DATA.B.CLASS    = %CLASS_NUMERIC;
     3719    27022
     3720    27023               %BUILD_BINARY_DESC (@LENGTH = %TYR_LENGTH,
     3721    27024                                   @DESC   = REDUCED_DATA.DESC);
     3722    27032
     3723    27033    5        CASE(%RSV_WRD_COMP_12, %RSV_WRD_COMP_14);
     3724    27034    5          REDUCED_DATA.TYPE        = %TYQ;
     3725    27035    5          REDUCED_DATA.B.CLASS    = %CLASS_NUMERIC;
     3726    27036
     3727    27037               %BUILD_BINARY_DESC (@LENGTH = %TYQ_LENGTH,
     3728    27038                                   @DESC   = REDUCED_DATA.DESC);
     3729    27046
     3730    27047    5        CASE(%RSV_WRD_INDEX);
     3731    27048    5          CALL CHECK_TYPE_OPTIMIZATIONS;
     3732    27049    5          REDUCED_DATA.B.CLASS = %CLASS_UNDEFINED;
     3733    27050
     3734    27051    5        CASE(%NO_USAGE, %RSV_WRD_GBCD, %RSV_WRD_EBCDIC);
     3735    27052    5          IF REDUCED_DATA.B.ELEMENTARY THEN
     3736    27053    6            DO;
     3737    27054    6              CALL USAGE_DISPLAY;
     3738    27055    6              IF REDUCED_DATA.USAGE.TYPE = %RSV_WRD_GBCD THEN
     3739    27056    7                DO;
     3740    27057    7                IF REDUCED_DATA.B.CLASS = %CLASS_NUMERIC THEN
     3741    27058    8                  DO;
     3742    27059    8                    REDUCED_DATA.TYPE = %TYC;
     3743    27060    8                    IF REDUCED_DATA.B.SIGN_FOUND AND
     3744    27061    8                        REDUCED_DATA.SIGN.TYPE = %SIGN_TYPE_OVERPUNCH THEN
     3745    27062    8                      REDUCED_DATA.DESC.NDSC.TN = %NDSC4;
             27062                               /* Flag for GBCD overpunched */
     3746    27063    8                  END;
     3747    27064    7                ELSE REDUCED_DATA.TYPE = %TYB;
     3748    27065    7                END;
     3749    27066    6              ELSE IF REDUCED_DATA.USAGE.TYPE = %RSV_WRD_EBCDIC THEN
     3750    27067    6                IF REDUCED_DATA.B.CLASS = %CLASS_NUMERIC THEN
PL6.E3A0      #001=Z8DR$RECORD_DECL File=Z8DR.:Z8A6TSI                           SAT 08/09/97 11:18 Page:142
     3751    27068    7                  DO;
     3752    27069    7                    REDUCED_DATA.TYPE = %TYF;
     3753    27070    7                    IF REDUCED_DATA.B.SIGN_FOUND AND
     3754    27071    7                        REDUCED_DATA.SIGN.TYPE = %SIGN_TYPE_OVERPUNCH THEN
     3755    27072    7                      REDUCED_DATA.DESC.NDSC.TN = %NDSC4;
             27072                               /* Flag for EBCDIC overpunched */
     3756    27073    7                  END;
     3757    27074    6                ELSE REDUCED_DATA.TYPE = %TYE;
     3758    27075    6            END;
     3759    27076    5          ELSE
     3760    27077    6            DO;
     3761    27078    6              REDUCED_DATA.B.CLASS = %CLASS_ALPHANUMERIC;
     3762    27079    6              REDUCED_DATA.TYPE = %TYA;
     3763    27080    6            END;
     3764    27081    5        CASE(%RSV_WRD_DB_KEY);
     3765    27082    5          REDUCED_DATA.TYPE      = %TYI;
     3766    27083    5          REDUCED_DATA.B.CLASS   = %CLASS_NUMERIC;
     3767    27084    5          DML_TYPE = %DATA_BASE_KEY;
     3768    27085
     3769    27086               %BUILD_BINARY_DESC (@LENGTH = %TYI_LENGTH,
     3770    27087                                   @DESC   = REDUCED_DATA.DESC);
     3771    27095
     3772    27096    5        CASE(%RSV_WRD_POINTER);
     3773    27097    5          REDUCED_DATA.TYPE        = %TYP;
     3774    27098    5          REDUCED_DATA.B.CLASS    = %CLASS_UNDEFINED;
     3775    27099
     3776    27100               %BUILD_BINARY_DESC (@LENGTH = %TYI_LENGTH,
     3777    27101                                   @DESC   = REDUCED_DATA.DESC);
     3778    27109
     3779    27110    5        CASE(ELSE);
     3780    27111    5          CALL Z8AE$ERROR(%E$UNEXPECTED_CASE);
     3781    27112
     3782    27113
     3783    27114    5      END; /* CASE */
     3784    27115
     3785    27116    4   END FILL_DESCRIPTOR;
     3786    27117        %EJECT;
PL6.E3A0      #001=Z8DR$RECORD_DECL File=Z8DR.:Z8A6TSI                           SAT 08/09/97 11:18 Page:143
     3787    27118        /*=============*/
     3788    27119    3     PROCESS_VALUE: PROC;
     3789    27120        /*=============*/
     3790    27121
     3791    27122
     3792    27123    4   DCL RETURN_ETT$               PTR;
     3793    27124    4   DCL CONST$                    PTR;
     3794    27125    4   DCL KANJI_SPACE_ETT$          PTR STATIC INIT (ADDR(NIL)) ;
     3795    27126    4   DCL KANJI_SPACE_ST$           PTR ;
     3796    27127    4   DCL 1 TYPE_DESC               ALIGNED,
     3797    27128             %TYPE_DESC;
     3798    27162
     3799    27163
     3800    27164    4      TYPE_DESC.TYPE         = REDUCED_DATA.TYPE;
     3801    27165    4      TYPE_DESC.DESC         = REDUCED_DATA.DESC;
     3802    27166    4      CONST$ = CDECL$ -> LX_REC_DECL.P.VALUE$ ->
     3803    27167    4               LX_LIST.HEAD$ -> LX_LIST.HEAD$;
     3804    27168
     3805    27169    4      IF REDUCED_DATA.B.CLASS = %CLASS_NUMERIC_EDITED THEN
     3806    27170    5        DO;
     3807    27171    5          TYPE_DESC.SIZ$         = ADDR(NIL);
     3808    27172
     3809    27173    5          CALL Z8EC$NEW_CONST_WITH_TYPE_DESC (TYPE_DESC,
     3810    27174    5                                              CONST$,
     3811    27175    5                                              RETURN_ETT$)
     3812    27176    5            WHENALTRETURN
     3813    27177    6              DO;
     3814    27178                     %CONDITIONAL_ERROR (@LX_ITEM$ = CONST$,
     3815    27179                                         @ERROR#   = %E$VALUE_OVERFLOW,
     3816    27180                                         @LINE     = CONST$ -> LX_ITEM.LINE,
     3817    27181                                         @COLUMN   = CONST$ -> LX_ITEM.COLUMN);
     3818    27211    6              END;
     3819    27212    5        END;
     3820    27213    4      ELSE
     3821    27214    5        DO;
     3822    27215
     3823    27216    5          IF REDUCED_DATA.B.LENGTH_4096 THEN
PL6.E3A0      #001=Z8DR$RECORD_DECL File=Z8DR.:Z8A6TSI                           SAT 08/09/97 11:18 Page:144
     3824    27217    6            DO;
     3825    27218    6              IF REDUCED_DATA.LTS$ -> LTS.ID = %LONG THEN
     3826    27219    6                MKCN.CON = REDUCED_DATA.LTS$ -> LONG.LENGTH;
     3827    27220    6              ELSE
     3828    27221    6                MKCN.CON = REDUCED_DATA.LTS$ -> LTSS.LONG$ -> LONG.LENGTH;
     3829    27222
     3830    27223    6              CALL Z8AC$MAKE_CONST (TYPE_DESC.SIZ$);
     3831    27224    6            END;
     3832    27225    5          ELSE
     3833    27226    5            TYPE_DESC.SIZ$ = ADDR(NIL);
     3834    27227
     3835    27228    5            IF REDUCED_DATA.TYPE = %TYP THEN
     3836    27229    6              DO;
     3837    27230    6                IF CONST$ -> LX_ITEM.SYMBOL = %RSV_WRD_NULL THEN
     3838    27231    7                  DO;
     3839    27232
     3840    27233    7                    REDUCED_DATA.CONST$ = COMCOM.NULL_PTR$;
     3841    27234
     3842    27235    7                    RETURN;
     3843    27236    7                  END;
     3844    27237    6                IF CONST$ -> LX_ITEM.SYMBOL = %RSV_WRD_LOW_VALUES THEN
     3845    27238    7                  DO;
     3846    27239
     3847    27240    7                    REDUCED_DATA.CONST$ = COMCOM.VALUE_0;
     3848    27241
     3849    27242    7                    RETURN;
     3850    27243    7                  END;
     3851    27244    6              END;
     3852    27245
     3853    27246    5          IF  REDUCED_DATA.TYPE = %TYN
     3854    27247    6          AND CONST$ -> LX_ITEM.SYMBOL = %RSV_WRD_SPACES THEN DO ;
     3855    27248
     3856    27249    7            IF KANJI_SPACE_ETT$ = ADDR(NIL) THEN DO ;
     3857    27250                   %NEW_CONST (@ST$   = KANJI_SPACE_ST$,
     3858    27251                               @DNT$  = "CONST$ -> LX_TERMINAL.DNT$",
     3859    27252                               @TYPE  = %TYN) ;
     3860    27293    7              KANJI_SPACE_ST$ -> CONST.CONSTA = %KANJI_SPACE ;
PL6.E3A0      #001=Z8DR$RECORD_DECL File=Z8DR.:Z8A6TSI                           SAT 08/09/97 11:18 Page:145
     3861    27294    7              CALL Z8AF$FORME (%TRIAD,             /* ID     */
     3862    27295    7                               KANJI_SPACE_ST$,    /* LOP    */
     3863    27296    7                               ADDR(NIL),          /* ROP    */
     3864    27297    7                               KANJI_SPACE_ETT$) ; /* Result */
     3865    27298    7            END ; /* Kanji_Space_ETT$ = nil */
     3866    27299
     3867    27300    6            RETURN_ETT$ = KANJI_SPACE_ETT$ ;
     3868    27301
     3869    27302    6          END ; /* Kanji variable, SPACE value */
     3870    27303
     3871    27304    5          ELSE  /* Not Kanji VALUE IS SPACES */
     3872    27305    6            DO;
     3873    27306    6              IF REDUCED_DATA.TYPE = %TYC OR
     3874    27307    6                 REDUCED_DATA.TYPE = %TYF THEN
     3875    27308    7                DO;
     3876    27309    7                  IF REDUCED_DATA.B.SIGN_FOUND AND
     3877    27310    7                      REDUCED_DATA.SIGN.TYPE = %SIGN_TYPE_OVERPUNCH
     3878    27311    7                    THEN
     3879    27312    8                      DO;
     3880    27313    8                        TYPE_DESC.TYPE = %TYO;
     3881    27314    8                        TYPE_DESC.DESC.NDSC.TN = %NDSC9;
     3882    27315    8                      END;
     3883    27316    7                    ELSE
     3884    27317    8                      DO;
     3885    27318    8                        TYPE_DESC.TYPE = %TYD;
     3886    27319    8                        TYPE_DESC.DESC.NDSC.TN = %NDSC4;
     3887    27320    8                      END;
     3888    27321    7                END; /* Z8HC will convert */
     3889    27322    6              ELSE IF TYPE_DESC.TYPE = %TYD THEN
     3890    27323    6                TYPE_DESC.DESC.NDSC.TN = %NDSC4;
     3891    27324
     3892    27325    6              CALL Z8EC$NEW_CONST_WITH_TYPE_DESC (TYPE_DESC,
     3893    27326    6                                                  CONST$,
     3894    27327    6                                                  RETURN_ETT$)
     3895    27328    6              WHENALTRETURN
     3896    27329    7                DO;
     3897    27330                       %CONDITIONAL_ERROR (@LX_ITEM$ = CONST$,
PL6.E3A0      #001=Z8DR$RECORD_DECL File=Z8DR.:Z8A6TSI                           SAT 08/09/97 11:18 Page:146
     3898    27331                                           @ERROR#   = %E$VALUE_OVERFLOW,
     3899    27332                                           @LINE     = CONST$ -> LX_ITEM.LINE,
     3900    27333                                           @COLUMN   = CONST$ -> LX_ITEM.COLUMN);
     3901    27363    7                END;
     3902    27364    6            END;
     3903    27365    5        END;
     3904    27366
     3905    27367    4      REDUCED_DATA.CONST$ = RETURN_ETT$;
     3906    27368
     3907    27369    4   END PROCESS_VALUE;
     3908    27370        %EJECT;
PL6.E3A0      #001=Z8DR$RECORD_DECL File=Z8DR.:Z8A6TSI                           SAT 08/09/97 11:18 Page:147
     3909    27371        /*=======================*/
     3910    27372    3     CREATE_INDEXED_BY_ITEMS: PROC (DIMS$, DIM#, INDEX_LIST$);
     3911    27373        /*=======================*/
     3912    27374
     3913    27375    4   DCL DIMS$              PTR;
     3914    27376    4   DCL DIM#               SBIN WORD;
     3915    27377    4   DCL INDEX_LIST$        PTR;
     3916    27378
     3917    27379    4   DCL INDEX_ST$          PTR;
     3918    27380    4   DCL INDEX_DNT$         PTR;
     3919    27381    4   DCL INDEX_QLT$         PTR;
     3920    27382
     3921    27383    4   DCL INDEX$             PTR;
     3922    27384    4   DCL BRO$               PTR;
     3923    27385    4   DCL INDEXES$           PTR;
     3924    27386    4   DCL PREV_INDEXES$      PTR;
     3925    27387    4   DCL QLT_CHAIN$         PTR;
     3926    27388    4   DCL QLT_CHAIN_START$   PTR;
     3927    27389    4   DCL FIRST_INDEX$       PTR;
     3928    27390
     3929    27391    4      INDEX$ = INDEX_LIST$ -> LX_LIST.HEAD$;
     3930    27392    4      PREV_INDEXES$ = ADDR(NIL);
     3931    27393    4      QLT_CHAIN_START$ = ADDR(NIL);
     3932    27394    4      INDEXES$      = ADDR(NIL);
     3933    27395
     3934    27396    5      DO WHILE (INDEX$ ~= ADDR(NIL));
     3935    27397    5        CALL Z8DR$NEW_INDEX (INDEX$,
     3936    27398    5                             %TYX,
     3937    27399    5                             01,
     3938    27400    5                             INDEX_QLT$,
     3939    27401    5                             INDEX_ST$);
     3940    27402
     3941    27403    5        INDEX_ST$ -> SCALAR.B.EXTERNAL = REDUCED_DATA.B.EXTERNAL;
     3942    27404    5        INDEX_ST$ -> SCALAR.B.GLOBAL = REDUCED_DATA.B.GLOBAL;
     3943    27405
     3944    27406    5        IF QLT_CHAIN_START$ = ADDR(NIL) THEN
     3945    27407    5          QLT_CHAIN_START$ = INDEX_QLT$;
PL6.E3A0      #001=Z8DR$RECORD_DECL File=Z8DR.:Z8A6TSI                           SAT 08/09/97 11:18 Page:148
     3946    27408    5        ELSE
     3947    27409    5          QLT_CHAIN$ -> QLT.BROTHER = INDEX_QLT$;
     3948    27410
     3949    27411    5        QLT_CHAIN$ = INDEX_QLT$ -> QLT.BROTHER;
     3950    27412
     3951    27413             %NEW_INDEXES (@POINTER = INDEXES$,
     3952    27414                           @INDEX_ST$ = INDEX_ST$);
     3953    27507
     3954    27508    5        IF PREV_INDEXES$ ~= ADDR(NIL) THEN
     3955    27509    5          PREV_INDEXES$ -> INDEXES.LINK = INDEXES$;
     3956    27510    5        ELSE
     3957    27511    5          FIRST_INDEX$ = INDEXES$;
     3958    27512
     3959    27513    5        PREV_INDEXES$ = INDEXES$;
     3960    27514    5        INDEX$ = INDEX$ -> LX_TERMINAL.LINK;
     3961    27515    5      END;
     3962    27516
     3963    27517    4      DIMS$ -> DIMS.D.INDEX$(DIM#) = FIRST_INDEX$;
     3964    27518    4      REDUCED_DATA.INDEXES$        = FIRST_INDEX$;
     3965    27519
     3966    27520    4      BRO$ = QLT_CHAIN_START$;
     3967    27521
     3968    27522    4      IF BRO$ ~= ADDR(NIL) THEN
     3969    27523    5        DO WHILE (BRO$ -> QLT.BROTHER ~= ADDR(NIL));
     3970    27524    5          BRO$       = BRO$ -> QLT.BROTHER;
     3971    27525    5        END;
     3972    27526
     3973    27527    4      IF O1COM.INDEX_HEAD$ = ADDR(NIL) THEN
     3974    27528    4        O1COM.INDEX_HEAD$ = QLT_CHAIN_START$;
     3975    27529    4      ELSE
     3976    27530    4        O1COM.INDEX_TAIL$ -> QLT.BROTHER = QLT_CHAIN_START$;
     3977    27531
     3978    27532    4      O1COM.INDEX_TAIL$ = BRO$;
     3979    27533
     3980    27534    4   END CREATE_INDEXED_BY_ITEMS;
     3981    27535        %EJECT;
PL6.E3A0      #001=Z8DR$RECORD_DECL File=Z8DR.:Z8A6TSI                           SAT 08/09/97 11:18 Page:149
     3982    27536        /*==============*/
     3983    27537    3     PROCESS_OCCURS: PROC;
     3984    27538        /*==============*/
     3985    27539
     3986    27540
     3987    27541    4   DCL I                         SBIN WORD;
     3988    27542    4   DCL J                         SBIN WORD;
     3989    27543    4   DCL DIM#                      SBIN WORD;
     3990    27544    4   DCL OCCURS$                   PTR;
     3991    27545    4   DCL DIMS$                      PTR;
     3992    27546
     3993    27547
     3994    27548    4      OCCURS$ = CDECL$ -> LX_REC_DECL.P.OCCURS$ ->
     3995    27549    4                LX_LIST.HEAD$ -> LX_LIST.HEAD$;
     3996    27550
     3997    27551
     3998    27552    4      IF REDUCED_DATA.LEVEL.CURRENT <= REDUCED_DATA.LEVEL.PREVIOUS THEN
     3999    27553    4        CALL FIND_HIER_INDEX (REDUCED_DATA.LEVEL.CURRENT, J);
     4000    27554    4      ELSE
     4001    27555    4        J = HIER_STK_PTR + 1;
     4002    27556
     4003    27557    5      DO I = J - 1 DOWNTO 1;
     4004    27558    5        IF HIER_STK.DIMS$(I) ~= ADDR(NIL) THEN
     4005    27559    5          EXIT;
     4006    27560    5      END;
     4007    27561
     4008    27562    4      IF I <= %SINGLE_DIMENSION THEN
     4009    27563    5        DO;
     4010    27564    5          DIM# = %SINGLE_DIMENSION;
     4011    27565
     4012    27566               %NEW_DIMS (@POINTER = DIMS$,
     4013    27567                          @SIZE    = "%MIN_DIM_SIZE + %NO_WORDS_PER_DIM");
     4014    27660
     4015    27661               %FILL_DIMS (@DIMS$     = DIMS$,
     4016    27662                           @SS#       = DIM#,
     4017    27663                           @DIM       = REDUCED_DATA.OCCURS.INT2);
     4018    27670
PL6.E3A0      #001=Z8DR$RECORD_DECL File=Z8DR.:Z8A6TSI                           SAT 08/09/97 11:18 Page:150
     4019    27671    5        END;
     4020    27672    4      ELSE
     4021    27673    5        DO;
     4022    27674               %NEW_DIMS (@POINTER = DIMS$,
     4023    27675                          @SIZE    = "HIER_STK.DIMS$(I) -> LTS.N + %NO_WORDS_PER_DIM");
     4024    27768
     4025    27769    5          DIM# = (HIER_STK.DIMS$(I) -> LTS.N - %MIN_DIM_SIZE)
     4026    27770    5               / %NO_WORDS_PER_DIM + 1;
     4027    27771
     4028    27772
     4029    27773               %FILL_DIMS (@DIMS$   = DIMS$,
     4030    27774                           @SS#     = DIM#,
     4031    27775                           @DIM     = REDUCED_DATA.OCCURS.INT2);
     4032    27782
     4033    27783    6          DO J = 1 TO DIM# - 1;
     4034    27784                 %FILL_DIMS (@DIMS$   = DIMS$,
     4035    27785                             @SS#     = J,
     4036    27786                             @INDEX$  = "HIER_STK.DIMS$(I) -> DIMS.D.INDEX$(J)",
     4037    27787                             @DIM     = "HIER_STK.DIMS$(I) -> DIMS.D.DIM(J)");
     4038    27794    6          END;
     4039    27795    5        END;
     4040    27796
     4041    27797    4        REDUCED_DATA.DIMS$ = DIMS$;
     4042    27798    4        REDUCED_DATA.B.DIMENSIONED = TRUE;
     4043    27799    4        REDUCED_DATA.B.OCCURS      = TRUE;
     4044    27800
     4045    27801    4        IF CDECL$ -> LX_REC_DECL.P.INDEXED$ ~= ADDR(NIL) THEN
     4046    27802    4          CALL CREATE_INDEXED_BY_ITEMS (DIMS$,
     4047    27803    4                                        DIM#,
     4048    27804    4                                        CDECL$ -> LX_REC_DECL.P.INDEXED$);
     4049    27805
     4050    27806    4        CALL Z8DO$LINK_WITH_LTS (REDUCED_DATA.LTS$,
     4051    27807    4                                 DIMS$);
     4052    27808
     4053    27809    4   END PROCESS_OCCURS;
     4054    27810        %EJECT;
PL6.E3A0      #001=Z8DR$RECORD_DECL File=Z8DR.:Z8A6TSI                           SAT 08/09/97 11:18 Page:151
     4055    27811        /*=================*/
     4056    27812    3     PROCESS_DEPENDING: PROC;
     4057    27813        /*=================*/
     4058    27814
     4059    27815
     4060    27816    4   DCL DEPENDING$                PTR;
     4061    27817    4   DCL I                         SBIN WORD;
     4062    27818    4   DCL LINE#                     SBIN WORD;
     4063    27819    4   DCL COLUMN#                   SBIN WORD;
     4064    27820
     4065    27821
     4066    27822           %NEW (@POINTER = DEPENDING$,
     4067    27823                 @TEMPLATE = DEFERED_QUAL_ID);
     4068    27833
     4069    27834    4      LINE#   = CDECL$ -> LX_REC_DECL.P.DATA_NAME$ -> LX_ITEM.LINE;
     4070    27835    4      COLUMN# = CDECL$ -> LX_REC_DECL.P.DATA_NAME$ -> LX_ITEM.COLUMN;
     4071    27836
     4072    27837           %INIT_DEFERED_QUAL_ID (@POINTER = DEPENDING$,
     4073    27838                                  @QUAL_ID_LIST$ = REDUCED_DATA.OCCURS.DEPENDING$,
     4074    27839                                  @ASSOC_VAR_ST$ = NEW_ST$,
     4075    27840                                  @LINE          = LINE#,
     4076    27841                                  @COLUMN        = COLUMN#,
     4077    27842                                  @LINK          = O1COM.OCCURS_DEPENDING$);
     4078    27855
     4079    27856    4      O1COM.OCCURS_DEPENDING$ = DEPENDING$;
     4080    27857
     4081    27858    5      DO I = HIER_STK_PTR - 1 DOWNTO %LEVEL_01;
     4082    27859    5        HIER_STK.QLT$ (I) -> QLT.ST$ -> SCALAR.B.OCCURS_DEPENDING = TRUE;
     4083    27860    5      END;
     4084    27861
     4085    27862    4      REDUCED_DATA.DIMS$ -> DIMS.OD.INT1 = REDUCED_DATA.OCCURS.INT1;
     4086    27863    4      REDUCED_DATA.DIMS$ -> DIMS.OD.INT2 = REDUCED_DATA.OCCURS.INT2;
     4087    27864
     4088    27865    4      CALL Z8EU$DELETE_LIST_ITEM (CDECL$ -> LX_REC_DECL.P.OCCURS$,
     4089    27866    4                                  CDECL$ -> LX_REC_DECL.P.OCCURS$ ->
     4090    27867    4                                  LX_LIST.TAIL$);
     4091    27868
PL6.E3A0      #001=Z8DR$RECORD_DECL File=Z8DR.:Z8A6TSI                           SAT 08/09/97 11:18 Page:152
     4092    27869    4   END PROCESS_DEPENDING;
     4093    27870        %EJECT;
PL6.E3A0      #001=Z8DR$RECORD_DECL File=Z8DR.:Z8A6TSI                           SAT 08/09/97 11:18 Page:153
     4094    27871        /*=================*/
     4095    27872    3     SAVE_GROUP_VALUES: PROC;
     4096    27873        /*=================*/
     4097    27874
     4098    27875    4   DCL CONST$             PTR;
     4099    27876    4   DCL VALUE$             PTR;
     4100    27877    4   DCL VAL$               PTR;
     4101    27878
     4102    27879
     4103    27880    4        IF NEW_ST$ -> VARIABLE.B.ELEMENTARY
     4104    27881    4        OR CDECL$ -> LX_REC_DECL.P.VALUE$ = ADDR(NIL) THEN
     4105    27882    4          RETURN;
     4106    27883
     4107    27884             %NEW (@POINTER  = VALUE$,
     4108    27885                   @TEMPLATE = DEFERED_QUAL_ID);
     4109    27895
     4110    27896    4        CONST$ = CDECL$ -> LX_REC_DECL.P.VALUE$ ->
     4111    27897    4                 LX_LIST.HEAD$ -> LX_LIST.HEAD$;
     4112    27898
     4113    27899    5        DO CASE (CONST$ -> LX_ITEM.SYMBOL);
     4114    27900    5          CASE (%NUMBER, %NUMERIC_LITERAL, %NUMBER_OR_PARAGRAPH);
     4115    27901
     4116    27902    5              CALL Z8AE$ERROR (%E$VALUE_NUMERIC_ERR,
     4117    27903    5                               CONST$ -> LX_ITEM.LINE,
     4118    27904    5                               CONST$ -> LX_ITEM.COLUMN);
     4119    27905    5          CASE (ELSE);
     4120    27906                 /* OK */
     4121    27907    5        END; /* DO CASE */
     4122    27908
     4123    27909             %SET_PHASE_1_POSITION (@LINE    = CONST$ -> LX_ITEM.LINE,
     4124    27910                                    @COLUMN  = CONST$ -> LX_ITEM.COLUMN,
     4125    27911                                    @TYPE    = %S_TYPE_VALUE_IS);
     4126    28300
     4127    28301             %NEW_ILL (@ID     = %PRESET,
     4128    28302                       @LOP    = NEW_ST$,
     4129    28303                       @ROP    = NEW_ST$); /* Temporarily assigned, will BE
     4130    28304                                              corrected in Z8DQ$GROUP_VALUE */
PL6.E3A0      #001=Z8DR$RECORD_DECL File=Z8DR.:Z8A6TSI                           SAT 08/09/97 11:18 Page:154
     4131    28683
     4132    28684
     4133    28685             %INIT_DEFERED_QUAL_ID (@POINTER       = VALUE$,
     4134    28686                                    @QUAL_ID_LIST$ = CONST$,
     4135    28687                                    @ASSOC_VAR_ST$ = NEW_ST$,
     4136    28688                                    @ILL$          = ILL$,
     4137    28689                                    @LINE          = CONST$ -> LX_ITEM.LINE,
     4138    28690                                    @COLUMN        = CONST$ -> LX_ITEM.COLUMN,
     4139    28691                                    @LINK          = "ADDR(NIL)");
     4140    28704
     4141    28705    4        HIER_STK.B.VALUE_PRESENTED(HIER_STK_PTR) = TRUE;
     4142    28706
     4143    28707    4        IF O1COM.VALUE$ = ADDR(NIL) THEN
     4144    28708    4          O1COM.VALUE$ = VALUE$;
     4145    28709    4        ELSE
     4146    28710    5          DO;
     4147    28711    5            VAL$ = O1COM.VALUE$;
     4148    28712
     4149    28713    6            DO WHILE (VAL$ -> DEFERED_QUAL_ID.LINK ~= ADDR(NIL));
     4150    28714    6              VAL$ = VAL$ -> DEFERED_QUAL_ID.LINK;
     4151    28715    6            END;
     4152    28716
     4153    28717    5            VAL$ -> DEFERED_QUAL_ID.LINK = VALUE$;
     4154    28718    5          END;
     4155    28719
     4156    28720    4        CALL Z8EU$DELETE_LIST_ITEM (CDECL$ -> LX_REC_DECL.P.VALUE$ ->
     4157    28721    4                                    LX_LIST.HEAD$,
     4158    28722    4                                    CONST$);
     4159    28723
     4160    28724    4   END SAVE_GROUP_VALUES;
     4161    28725        %EJECT;
PL6.E3A0      #001=Z8DR$RECORD_DECL File=Z8DR.:Z8A6TSI                           SAT 08/09/97 11:18 Page:155
     4162    28726        /*===========*/
     4163    28727    3     PROCESS_KEY: PROC;
     4164    28728        /*===========*/
     4165    28729
     4166    28730
     4167    28731    4   DCL KEY$                      PTR;
     4168    28732    4   DCL LINE#                     SBIN WORD;
     4169    28733    4   DCL COLUMN#                   SBIN WORD;
     4170    28734
     4171    28735
     4172    28736           %NEW (@POINTER   = KEY$,
     4173    28737                 @TEMPLATE  = DEFERED_QUAL_ID);
     4174    28747
     4175    28748    4      LINE#     = CDECL$ -> LX_REC_DECL.P.KEY$ ->
     4176    28749    4                  LX_LIST.HEAD$ -> LX_LIST.HEAD$ -> LX_ITEM.LINE;
     4177    28750
     4178    28751    4      COLUMN#   = CDECL$ -> LX_REC_DECL.P.KEY$ ->
     4179    28752    4                  LX_LIST.HEAD$ -> LX_LIST.HEAD$ -> LX_ITEM.COLUMN;
     4180    28753
     4181    28754           %INIT_DEFERED_QUAL_ID (@POINTER       = KEY$,
     4182    28755                                  @QUAL_ID_LIST$ = CDECL$ -> LX_REC_DECL.P.KEY$,
     4183    28756                                  @ASSOC_VAR_ST$ = NEW_ST$,
     4184    28757                                  @LINE          = LINE#,
     4185    28758                                  @COLUMN        = COLUMN#,
     4186    28759                                  @LINK          = O1COM.KEYS$);
     4187    28772
     4188    28773    4      O1COM.KEYS$ = KEY$;
     4189    28774
     4190    28775    4      CDECL$ -> LX_REC_DECL.P.KEY$ = ADDR(NIL);
     4191    28776
     4192    28777    4   END PROCESS_KEY;
     4193    28778        %EJECT;
PL6.E3A0      #001=Z8DR$RECORD_DECL File=Z8DR.:Z8A6TSI                           SAT 08/09/97 11:18 Page:156
     4194    28779        /*===============*/
     4195    28780    3     PROCESS_RENAMES: PROC;
     4196    28781        /*===============*/
     4197    28782
     4198    28783
     4199    28784
     4200    28785    4      IF CDECL$ -> LX_REC_DECL.P.RENAMES$ = ADDR(NIL) THEN
     4201    28786    4        RETURN;
     4202    28787
     4203    28788           %NEW_RENAMES (@POINTER = REDUCED_DATA.RENAMES.NEW_RENAMES$,
     4204    28789                         @START$  = REDUCED_DATA.RENAMES.START_ST$,
     4205    28790                         @END$    = REDUCED_DATA.RENAMES.END_ST$);
     4206    28883
     4207    28884    4      IF REDUCED_DATA.RENAMES.END_ST$ = ADDR(NIL) THEN
     4208    28885    5        DO;
     4209    28886    5          REDUCED_DATA.B.ELEMENTARY = TRUE;
     4210    28887    5          REDUCED_DATA.LTS$         = REDUCED_DATA.RENAMES.START_ST$ ->
     4211    28888    5                                      SCALAR.LTS$;
     4212    28889    5          REDUCED_DATA.DESC.DESCL = REDUCED_DATA.RENAMES.START_ST$ ->
     4213    28890    5                                    SCALAR.DESCL;
     4214    28891    5          REDUCED_DATA.TYPE       = REDUCED_DATA.RENAMES.START_ST$ ->
     4215    28892    5                                    SCALAR.TYPE;
     4216    28893    5          REDUCED_DATA.B.JUSTIFIED   = REDUCED_DATA.RENAMES.START_ST$ ->
     4217    28894    5                                       SCALAR.B.JUSTIFIED;
     4218    28895    5          REDUCED_DATA.B.LENGTH_4096 = REDUCED_DATA.RENAMES.START_ST$ ->
     4219    28896    5                                       SCALAR.B.LENGTH_4096;
     4220    28897    5          REDUCED_DATA.B.P           = REDUCED_DATA.RENAMES.START_ST$ ->
     4221    28898    5                                       SCALAR.B.P;
     4222    28899    5          REDUCED_DATA.B.CLASS       = REDUCED_DATA.RENAMES.START_ST$ ->
     4223    28900    5                                       SCALAR.B.CLASS;
     4224    28901    5          REDUCED_DATA.RENAMES.START_ST$ -> SCALAR.B.RENAMED = TRUE;
     4225    28902    5        END;
     4226    28903    4      ELSE
     4227    28904    5        DO;
     4228    28905    5          REDUCED_DATA.B.ELEMENTARY = TRUE;
     4229    28906    5          REDUCED_DATA.TYPE         = %TYA;
     4230    28907    5          REDUCED_DATA.B.CLASS      = %CLASS_ALPHANUMERIC;
PL6.E3A0      #001=Z8DR$RECORD_DECL File=Z8DR.:Z8A6TSI                           SAT 08/09/97 11:18 Page:157
     4231    28908
     4232    28909    5          CALL Z8DR$SET_RENAMED (REDUCED_DATA.RENAMES.START_ST$,
     4233    28910    5                                 REDUCED_DATA.RENAMES.END_ST$);
     4234    28911    5        END;
     4235    28912
     4236    28913    4   END PROCESS_RENAMES;
     4237    28914        %EJECT;
PL6.E3A0      #001=Z8DR$RECORD_DECL File=Z8DR.:Z8A6TSI                           SAT 08/09/97 11:18 Page:158
     4238    28915        /*=================*/
     4239    28916    3     PROCESS_REDEFINES: PROC;
     4240    28917        /*=================*/
     4241    28918
     4242    28919
     4243    28920
     4244    28921
     4245    28922    4      REDUCED_DATA.B.REDEF_SUB = TRUE;
     4246    28923
     4247    28924             /* In case the IBM option is on, we will allow a data item
     4248    28925                redefines a redefine-subject.                            */
     4249    28926
     4250    28927    4      IF NOT REDUCED_DATA.REDEFINES.OBJECT$ -> SCALAR.B.REDEF_SUB THEN
     4251    28928    4        REDUCED_DATA.REDEFINES.OBJECT$ -> SCALAR.B.REDEF_OBJ = TRUE;
     4252    28929
     4253    28930    4   END PROCESS_REDEFINES;
     4254    28931        %EJECT;
PL6.E3A0      #001=Z8DR$RECORD_DECL File=Z8DR.:Z8A6TSI                           SAT 08/09/97 11:18 Page:159
     4255    28932        /*=======================*/
     4256    28933    3     RESOLVE_SIGN_REFERENCES: PROC (NEXT_LVL, STK_PTR);
     4257    28934        /*=======================*/
     4258    28935
     4259    28936    4   DCL NEXT_LVL                  SBIN WORD;
     4260    28937    4   DCL STK_PTR                   SBIN WORD;
     4261    28938    4   DCL NEXT#                     SBIN WORD;
     4262    28939    4   DCL I                         SBIN WORD;
     4263    28940
     4264    28941    4      CALL FIND_HIER_INDEX (NEXT_LVL, NEXT#);
     4265    28942
     4266    28943    5      DO I = STK_PTR DOWNTO NEXT#;
     4267    28944    5        IF HIER_STK.B.SIGN_PRESENT (I) THEN
     4268    28945    5          IF NOT HIER_STK.B.SIGN_FOUND (I) THEN
     4269    28946    5            CALL Z8AE$ERROR (%E$NO_SIGN_S_FOUND,
     4270    28947    5                             BINBIT(HIER_STK.SIGN.LINE(I),36),
     4271    28948    5                             BINBIT(HIER_STK.SIGN.COLUMN(I),36));
     4272    28949
     4273    28950    5        HIER_STK.B.SIGN_FOUND (I - 1) = (HIER_STK.B.SIGN_FOUND (I - 1)
     4274    28951    5                                      |  HIER_STK.B.SIGN_FOUND (I));
     4275    28952    5      END;
     4276    28953
     4277    28954    4   END RESOLVE_SIGN_REFERENCES;
     4278    28955        %EJECT;
PL6.E3A0      #001=Z8DR$RECORD_DECL File=Z8DR.:Z8A6TSI                           SAT 08/09/97 11:18 Page:160
     4279    28956        /*============*/
     4280    28957    3     LINK_INDEXES: PROC;
     4281    28958        /*============*/
     4282    28959
     4283    28960
     4284    28961
     4285    28962
     4286    28963    5        DO WHILE (REDUCED_DATA.INDEXES$ ~= ADDR(NIL));
     4287    28964    5          REDUCED_DATA.INDEXES$ -> INDEXES.INDEX_ST$ -> SCALAR.LTS$ = NEW_ST$;
     4288    28965    5          REDUCED_DATA.INDEXES$ = REDUCED_DATA.INDEXES$ -> INDEXES.LINK;
     4289    28966    5        END;
     4290    28967
     4291    28968
     4292    28969    4   END LINK_INDEXES;
     4293    28970        %EJECT;
PL6.E3A0      #001=Z8DR$RECORD_DECL File=Z8DR.:Z8A6TSI                           SAT 08/09/97 11:18 Page:161
     4294    28971        /*======*/
     4295    28972    3     NEW_ST: PROC;
     4296    28973        /*======*/
     4297    28974
     4298    28975    4        DCL ID            SBIN;
     4299    28976    4        DCL DN$           PTR;
     4300    28977    4        DCL LINE#         SBIN;
     4301    28978    4        DCL NEW_QLT$      PTR;
     4302    28979    4        DCL ST$$          PTR;
     4303    28980
     4304    28981
     4305    28982    4        LINE# = CDECL$ -> LX_REC_DECL.P.DATA_NAME$ -> LX_ITEM.LINE;
     4306    28983    4        DN$   = CDECL$ -> LX_REC_DECL.P.DATA_NAME$ -> LX_ITEM.DNT$;
     4307    28984
     4308    28985             %NEW_SCALAR (@ST$   = ST$$,
     4309    28986                          @DESCL = REDUCED_DATA.DESC.DESCL,
     4310    28987                          @TYPE  = REDUCED_DATA.TYPE,
     4311    28988                          @LINE_NO  = LINE#,
     4312    28989                          @NEXT  = DN$ -> DNT.ST$,
     4313    28990                          @LTS$  = REDUCED_DATA.LTS$,
     4314    28991                          @DNT$  = DN$,
     4315    28992                          @PROC$ = O1COM.CURRENT_PROC$,
     4316    28993                          @ELEMENTARY = REDUCED_DATA.B.ELEMENTARY,
     4317    28994                          @GREATER_256K = REDUCED_DATA.B.GREATER_256K,
     4318    28995                          @CLASS      = REDUCED_DATA.B.CLASS,
     4319    28996                          @ASTERISK_SUPRESS = REDUCED_DATA.B.ASTERISK_SUPRESS,
     4320    28997                          @LENGTH_4096= REDUCED_DATA.B.LENGTH_4096,
     4321    28998                          @REDEF_SUB  = REDUCED_DATA.B.REDEF_SUB,
     4322    28999                          @LINKAGE    = REDUCED_DATA.B.LINKAGE,
     4323    29000                          @EXTERNAL   = REDUCED_DATA.B.EXTERNAL,
     4324    29001                          @GLOBAL     = REDUCED_DATA.B.GLOBAL,
     4325    29002                          @JUSTIFIED  = REDUCED_DATA.B.JUSTIFIED,
     4326    29003                          @KANJI      = REDUCED_DATA.B.KANJI,
     4327    29004                          @DML_TYPE   = DML_TYPE,
     4328    29005                          @DIGIT      = REDUCED_DATA.B.DIGIT,
     4329    29006                          @P          = REDUCED_DATA.B.P);
     4330    29206
PL6.E3A0      #001=Z8DR$RECORD_DECL File=Z8DR.:Z8A6TSI                           SAT 08/09/97 11:18 Page:162
     4331    29207    4        IF CDECL$ -> LX_REC_DECL.P.DATA_NAME$ ->
     4332    29208    4        LX_ITEM.SYMBOL ~= %RSV_WRD_FILLER THEN
     4333    29209    5          DO;
     4334    29210                 %ADD_XREF (SYM   = ST$$,
     4335    29211                            ISN   = LINE#,
     4336    29212                            TYPE  = %XREF_DCL);
     4337    29230
     4338    29231    5            DN$ -> DNT.ST$ = ST$$;
     4339    29232    5          END;
     4340    29233    4        ELSE
     4341    29234    4          ST$$ -> SCALAR.B.COMPILER_CREATED = %TRUE;
             29234                   /*  So Schema will not be generated */
     4342    29235
     4343    29236             %NEW_QLT  (@POINTER   = NEW_QLT$,
     4344    29237                        @ST$       = ST$$,
     4345    29238                        @SON       = REDUCED_DATA.RENAMES.NEW_RENAMES$,
     4346    29239                        @DNT$      = ST$$ -> SCALAR.DNT$,
     4347    29240                        @LEVEL#    = REDUCED_DATA.LEVEL.CURRENT,
     4348    29241                        @RENAMES   = REDUCED_DATA.B.RENAMES,
     4349    29242                        @OCCURS    = REDUCED_DATA.B.OCCURS,
     4350    29243                        @DIGIT     = REDUCED_DATA.B.DIGIT,
     4351    29244                        @SYNC      = REDUCED_DATA.B.SYNC);
     4352    29269
     4353    29270    4        ST$$ -> SCALAR.QLT$    = NEW_QLT$;
     4354    29271
     4355    29272    4        NEW_ST$ = ST$$;
     4356    29273
     4357    29274    4   END NEW_ST;
     4358    29275        %EJECT;
PL6.E3A0      #001=Z8DR$RECORD_DECL File=Z8DR.:Z8A6TSI                           SAT 08/09/97 11:18 Page:163
     4359    29276        /*================*/
     4360    29277    3     PROCESS_EXTERNAL: PROC;
     4361    29278        /*================*/
     4362    29279
     4363    29280    4        DCL BLOCK$        PTR;
     4364    29281    4        DCL EXT$          PTR;
     4365    29282    4        DCL P$            PTR;
     4366    29283
     4367    29284
     4368    29285             /* Find another external item with same name.
     4369    29286                If found, use its count and get the hell out. */
     4370    29287
     4371    29288    4        EXT$ = CDECL$ -> LX_REC_DECL.P.DATA_NAME$ -> LX_TERMINAL.DNT$ -> DNT.ST$;
     4372    29289
     4373    29290    5        DO WHILE (EXT$ ~= ADDR(NIL));
     4374    29291    5          IF (EXT$ -> ST.ID = %SCALAR
     4375    29292    5          OR EXT$ -> ST.ID = %ARRAY)
     4376    29293    5          AND NEW_ST$ ~= EXT$ THEN
     4377    29294    5            IF EXT$ -> SCALAR.B.EXTERNAL
     4378    29295    5            AND EXT$ -> SCALAR.QLT$ -> QLT.FATHER = ADDR(NIL) THEN
     4379    29296    5              EXIT;
     4380    29297
     4381    29298    5          EXT$ = EXT$ -> ST.NEXT;
     4382    29299    5        END;
     4383    29300
     4384    29301    4        IF EXT$ ~= ADDR(NIL) THEN
     4385    29302    5          DO;
     4386    29303    5            NEW_ST$ -> ST.COUNT = EXT$ -> ST.COUNT;
     4387    29304    5            NEW_ST$ -> SCALAR.B.ALLOCATED = TRUE;
     4388    29305
     4389    29306    5            P$ = COMCOM.BLOCK$;
     4390    29307    6            DO WHILE ( P$ ~= ADDR(NIL) AND
     4391    29308    6                       P$ -> BLOCK.COUNT ~= EXT$ -> ST.COUNT);
     4392    29309
     4393    29310    6              P$ = P$ -> BLOCK.NEXT;
     4394    29311
     4395    29312    6            END; /* DO WHILE */
PL6.E3A0      #001=Z8DR$RECORD_DECL File=Z8DR.:Z8A6TSI                           SAT 08/09/97 11:18 Page:164
     4396    29313
     4397    29314    5            P$ -> BLOCK.B.REDEFINED = TRUE;   /* two or more external
     4398    29315                                                     item in the same block */
     4399    29316
     4400    29317    5            RETURN;
     4401    29318    5          END;
     4402    29319
     4403    29320             %NEW_BLOCK (@ST$ = BLOCK$,
     4404    29321                         @DNT$ = NEW_ST$ -> ST.DNT$);
     4405    29398
     4406    29399    4        NEW_ST$ -> ST.COUNT = BLOCK$ -> BLOCK.COUNT;
     4407    29400
     4408    29401    4        IF REDUCED_DATA.DIMS$ ~= ADDR(NIL) THEN
     4409    29402    5          DO;
     4410    29403                 /* It is possible that an index guy associated with this
     4411    29404                    array.  If one exists, we need to allocate it in the same
     4412    29405                    block.
     4413    29406                 */
     4414    29407
     4415    29408
     4416    29409    5            P$ = REDUCED_DATA.INDEXES$;
     4417    29410
     4418    29411    6            DO WHILE (P$ ~= ADDR(NIL));
     4419    29412    6              P$ -> INDEXES.INDEX_ST$ -> ST.COUNT = BLOCK$ -> BLOCK.COUNT;
     4420    29413
     4421    29414    6              P$ = P$ -> INDEXES.LINK;
     4422    29415    6            END; /* While */
     4423    29416    5          END;
     4424    29417
     4425    29418    4   END PROCESS_EXTERNAL;
     4426    29419        %EJECT;
PL6.E3A0      #001=Z8DR$RECORD_DECL File=Z8DR.:Z8A6TSI                           SAT 08/09/97 11:18 Page:165
     4427    29420        /*==============*/
     4428    29421    3     NEW_IDENTIFIER: PROC;
     4429    29422        /*==============*/
     4430    29423
     4431    29424
     4432    29425    4   DCL NEW_QLT$                  PTR;
     4433    29426    4   DCL LINE#                     SBIN WORD;
     4434    29427    4   DCL DN$                       PTR;
     4435    29428    4   DCL ST$$                      PTR;
     4436    29429    4   DCL P$                        PTR;
     4437    29430
     4438    29431
     4439    29432
     4440    29433    4      IF REDUCED_DATA.USAGE.TYPE = %RSV_WRD_INDEX THEN
     4441    29434    5        DO;
     4442    29435    5          CALL Z8DR$NEW_INDEX (CDECL$ -> LX_REC_DECL.P.DATA_NAME$,
     4443    29436    5                               REDUCED_DATA.TYPE,
     4444    29437    5                               REDUCED_DATA.LEVEL.CURRENT,
     4445    29438    5                               NEW_QLT$,
     4446    29439    5                               NEW_ST$);
     4447    29440
     4448    29441    5          NEW_ST$ -> SCALAR.LTS$ = REDUCED_DATA.LTS$;
     4449    29442
     4450    29443    5          NEW_ST$ -> SCALAR.B.LINKAGE   = REDUCED_DATA.B.LINKAGE;
     4451    29444    5          NEW_ST$ -> SCALAR.B.GLOBAL    = REDUCED_DATA.B.GLOBAL;
     4452    29445    5          NEW_ST$ -> SCALAR.B.EXTERNAL  = REDUCED_DATA.B.EXTERNAL;
     4453    29446
     4454    29447    5          P$ = NEW_ST$ -> SCALAR.QLT$ -> QLT.BROTHER;
     4455    29448    5          P$ -> QLT.ST$ -> SCALAR.B.LINKAGE  = NEW_ST$ -> SCALAR.B.LINKAGE;
     4456    29449    5          P$ -> QLT.ST$ -> SCALAR.B.EXTERNAL = NEW_ST$ -> SCALAR.B.EXTERNAL;
     4457    29450    5          P$ -> QLT.ST$ -> SCALAR.B.GLOBAL   = NEW_ST$ -> SCALAR.B.GLOBAL;
     4458    29451
     4459    29452               /*  Set redef item(#TYA) if the index item has an occurs */
     4460    29453
     4461    29454
     4462    29455    5          IF REDUCED_DATA.DIMS$ ~= ADDR(NIL)   THEN        /*#36261*/
     4463    29456    6            DO;
PL6.E3A0      #001=Z8DR$RECORD_DECL File=Z8DR.:Z8A6TSI                           SAT 08/09/97 11:18 Page:166
     4464    29457    6              P$ -> QLT.ST$ -> ST.ID = %ARRAY;
     4465    29458    6              P$ -> QLT.B.OCCURS = REDUCED_DATA.B.OCCURS;
     4466    29459    6              CALL Z8DO$LINK_WITH_LTS( P$ -> QLT.ST$ -> SCALAR.LTS$,
     4467    29460    6                                       REDUCED_DATA.DIMS$ );
     4468    29461    6            END;
     4469    29462
     4470    29463
     4471    29464    5          P$ = P$ -> QLT.ST$ -> SCALAR.QLT$ -> QLT.SON;
     4472    29465    5          P$ -> QLT.ST$ -> SCALAR.B.LINKAGE  = NEW_ST$ -> SCALAR.B.LINKAGE;
     4473    29466    5          P$ -> QLT.ST$ -> SCALAR.B.EXTERNAL = NEW_ST$ -> SCALAR.B.EXTERNAL;
     4474    29467    5          P$ -> QLT.ST$ -> SCALAR.B.GLOBAL   = NEW_ST$ -> SCALAR.B.GLOBAL;
     4475    29468
     4476    29469    5          IF REDUCED_DATA.DIMS$ ~= ADDR(NIL)   THEN        /*#36261*/
     4477    29470    6            DO;
     4478    29471    6              P$ -> QLT.ST$ -> ST.ID = %ARRAY;
     4479    29472    6              CALL Z8DO$LINK_WITH_LTS( P$ -> QLT.ST$ -> SCALAR.LTS$,
     4480    29473    6                                       REDUCED_DATA.DIMS$ );
     4481    29474    6            END;
     4482    29475
     4483    29476    5          P$ = P$ -> QLT.ST$ -> SCALAR.QLT$ -> QLT.BROTHER;
     4484    29477    5          P$ -> QLT.ST$ -> SCALAR.B.LINKAGE  = NEW_ST$ -> SCALAR.B.LINKAGE;
     4485    29478    5          P$ -> QLT.ST$ -> SCALAR.B.EXTERNAL = NEW_ST$ -> SCALAR.B.EXTERNAL;
     4486    29479    5          P$ -> QLT.ST$ -> SCALAR.B.GLOBAL   = NEW_ST$ -> SCALAR.B.GLOBAL;
     4487    29480
     4488    29481    5          IF REDUCED_DATA.DIMS$ ~= ADDR(NIL)   THEN        /*#36261*/
     4489    29482    6            DO;
     4490    29483    6              P$ -> QLT.ST$ -> ST.ID = %ARRAY;
     4491    29484    6              CALL Z8DO$LINK_WITH_LTS( P$ -> QLT.ST$ -> SCALAR.LTS$,
     4492    29485    6                                       REDUCED_DATA.DIMS$ );
     4493    29486    6            END;
     4494    29487
     4495    29488    5        END;
     4496    29489    4      ELSE
     4497    29490    4        CALL NEW_ST;
     4498    29491
     4499    29492    4      CALL UPDATE_HIER;
     4500    29493
PL6.E3A0      #001=Z8DR$RECORD_DECL File=Z8DR.:Z8A6TSI                           SAT 08/09/97 11:18 Page:167
     4501    29494    4      IF REDUCED_DATA.USAGE.TYPE = %RSV_WRD_INDEX THEN
     4502    29495    4        NEW_ST$ -> SCALAR.QLT$ -> QLT.BROTHER -> QLT.FATHER
     4503    29496    4                 = HIER_STK.QLT$(HIER_STK_PTR) -> QLT.FATHER;
     4504    29497
     4505    29498    4      IF REDUCED_DATA.DIMS$ ~= ADDR(NIL) THEN
     4506    29499    4        NEW_ST$ -> ARRAY.ID = %ARRAY;
     4507    29500
     4508    29501    4      IF REDUCED_DATA.B.EXTERNAL
     4509    29502    4      AND REDUCED_DATA.LEVEL.CURRENT = %LEVEL_01 THEN
     4510    29503    4        CALL PROCESS_EXTERNAL;
     4511    29504    4      ELSE
     4512    29505    4        IF NEW_ST$ -> SCALAR.QLT$ -> QLT.FATHER ~= ADDR(NIL) THEN
     4513    29506    4          IF NEW_ST$ -> SCALAR.QLT$ -> QLT.FATHER ->
     4514    29507    4             QLT.ST$ -> SCALAR.B.EXTERNAL THEN
     4515    29508    5            DO;
     4516    29509    5              NEW_ST$ -> ST.COUNT = NEW_ST$ -> SCALAR.QLT$ -> QLT.FATHER
     4517    29510    5                                    -> QLT.ST$ -> ST.COUNT;
     4518    29511    5              NEW_ST$ -> SCALAR.B.EXTERNAL = TRUE;
     4519    29512    5            END;
     4520    29513
     4521    29514    4        IF REDUCED_DATA.B.REDEF_SUB THEN
     4522    29515    4          NEW_ST$ -> ST.COUNT = REDUCED_DATA.REDEFINES.OBJECT$ -> ST.COUNT;
     4523    29516
     4524    29517
     4525    29518
     4526    29519    4   END NEW_IDENTIFIER;
     4527    29520        %EJECT;
PL6.E3A0      #001=Z8DR$RECORD_DECL File=Z8DR.:Z8A6TSI                           SAT 08/09/97 11:18 Page:168
     4528    29521
     4529    29522
     4530    29523        /* Main Body */
     4531    29524
     4532    29525
     4533    29526
     4534    29527    3        CALL FILL_DESCRIPTOR;
     4535    29528
     4536    29529    3        IF  REDUCED_DATA.B.ELEMENTARY
     4537    29530    3        AND CDECL$ -> LX_REC_DECL.P.VALUE$ ~= ADDR(NIL) THEN
     4538    29531    3          CALL PROCESS_VALUE;
     4539    29532
     4540    29533    3        IF CDECL$ -> LX_REC_DECL.P.OCCURS$ ~= ADDR(NIL) THEN
     4541    29534    3          CALL PROCESS_OCCURS;
     4542    29535
     4543    29536    3        IF CDECL$ -> LX_REC_DECL.P.REDEFINES$ ~= ADDR(NIL) THEN
     4544    29537    3          CALL PROCESS_REDEFINES;
     4545    29538
     4546    29539    3        CALL NEW_IDENTIFIER;
     4547    29540
     4548    29541    3        IF REDUCED_DATA.INDEXES$ ~= ADDR(NIL) THEN
     4549    29542    3          CALL LINK_INDEXES;
     4550    29543
     4551    29544    3        IF REDUCED_DATA.OCCURS.DEPENDING$ ~= ADDR(NIL) THEN
     4552    29545    3          CALL PROCESS_DEPENDING;
     4553    29546
     4554    29547    3        IF CDECL$ -> LX_REC_DECL.P.KEY$ ~= ADDR(NIL) THEN
     4555    29548    3          CALL PROCESS_KEY;
     4556    29549
     4557    29550    3        IF REDUCED_DATA.CONST$ ~= ADDR(NIL) OR
     4558    29551    3            COMCOM.OB.INITIAL AND
     4559    29552    3            O1COM.DATA_DECL_CONTEXT ~= %LINKAGE_SECTION THEN
     4560    29553    4          DO;
     4561    29554    4            IF REDUCED_DATA.CONST$ = ADDR(NIL) THEN
     4562    29555    5              DO;
     4563    29556    5                O1COM.LINE_NO    = CDECL$ -> LX_REC_DECL.P.DATA_NAME$ ->
     4564    29557    5                                   LX_TERMINAL.LINE;
PL6.E3A0      #001=Z8DR$RECORD_DECL File=Z8DR.:Z8A6TSI                           SAT 08/09/97 11:18 Page:169
     4565    29558    5                O1COM.COLUMN_NO  = CDECL$ -> LX_REC_DECL.P.DATA_NAME$ ->
     4566    29559    5                                   LX_TERMINAL.COLUMN;
     4567    29560    5              END;
     4568    29561    4            ELSE
     4569    29562    5              DO;
     4570    29563    5                O1COM.LINE_NO    = CDECL$ -> LX_REC_DECL.P.VALUE$ ->
     4571    29564    5                                   LX_LIST.HEAD$ -> LX_LIST.HEAD$ ->
     4572    29565    5                                   LX_TERMINAL.LINE;
     4573    29566    5                O1COM.COLUMN_NO  = CDECL$ -> LX_REC_DECL.P.VALUE$ ->
     4574    29567    5                                   LX_LIST.HEAD$ -> LX_LIST.HEAD$ ->
     4575    29568    5                                   LX_TERMINAL.COLUMN;
     4576    29569    5              END;
     4577    29570                 %SET_PHASE_1_POSITION (@LINE   = O1COM.LINE_NO,
     4578    29571                                        @COLUMN = O1COM.COLUMN_NO,
     4579    29572                                        @TYPE   = %S_TYPE_VALUE_IS);
     4580    29961
     4581    29962    4            IF REDUCED_DATA.CONST$ ~= ADDR(NIL) THEN
     4582    29963                   %NEW_ILL (@ID     = %PRESET,
     4583    29964                             @LOP    = NEW_ST$,
     4584    29965                             @ROP    = REDUCED_DATA.CONST$ -> ETT.LOP);
     4585    30344
     4586    30345                 /* Save away TRIAD for Z8GO VALUE optimization */
     4587    30346    4            IF  NEW_ST$ -> VARIABLE.LTS$ = ADDR(NIL)
     4588    30347    4            AND NEW_ST$ -> VARIABLE.ID = %SCALAR
     4589    30348    4            AND (NEW_ST$ -> VARIABLE.TYPE = %TYI
     4590    30349    4              OR NEW_ST$ -> VARIABLE.TYPE = %TYD) THEN
     4591    30350    4                NEW_ST$ -> VARIABLE.LTS$ = REDUCED_DATA.CONST$;
     4592    30351
     4593    30352    4            CALL Z8DU$BUILD_INITIAL_ITEM (REDUCED_DATA.CONST$, NEW_ST$);
     4594    30353    4          END;
     4595    30354    3        ELSE
     4596    30355    3          CALL SAVE_GROUP_VALUES;
     4597    30356
     4598    30357    3        IF REDUCED_DATA.LEVEL.NEXT <= REDUCED_DATA.LEVEL.CURRENT THEN
     4599    30358    3          CALL RESOLVE_SIGN_REFERENCES (REDUCED_DATA.LEVEL.NEXT, HIER_STK_PTR);
     4600    30359
     4601    30360
PL6.E3A0      #001=Z8DR$RECORD_DECL File=Z8DR.:Z8A6TSI                           SAT 08/09/97 11:18 Page:170
     4602    30361    3   END PROCESS_RECORD_DECL;
     4603    30362        %EJECT;
PL6.E3A0      #001=Z8DR$RECORD_DECL File=Z8DR.:Z8A6TSI                           SAT 08/09/97 11:18 Page:171
     4604    30363
     4605    30364        /*-----------------------------*
     4606    30365        MAIN BODY -- DATA_DECLARATION
     4607    30366         *-----------------------------*/
     4608    30367
     4609    30368
     4610    30369    2          CDECL$ = PASSED_CDECL$;
     4611    30370    2          NDECL$ = PASSED_NDECL$;
     4612    30371
     4613    30372               %INITIALIZE_REDUCED_DATA;
     4614    30386
     4615    30387    2          IF O1COM.DATA_DECL_CONTEXT = %LINKAGE_SECTION THEN
     4616    30388    2            REDUCED_DATA.B.LINKAGE = TRUE;
     4617    30389
     4618    30390    2          CALL DATA_REDUCTION;
     4619    30391    2          CALL RECORD_VALIDATION;
     4620    30392    2          CALL PROCESS_RECORD_DECL;
     4621    30393
     4622    30394    2   END DATA_DECLARATION;
     4623    30395
     4624    30396
     4625    30397    1   END Z8DR$RECORD_DECL;
     4626    30398        %EOD;

PL6.E3A0      #001=Z8DR$RECORD_DECL File=Z8DR.:Z8A6TSI                           SAT 08/09/97 11:18 Page:172
--  Include file information  --

   Z8E_DML.:Z8A6TOU  is referenced.
   Z8E_STATEMNT.:Z8A6TOU  is referenced.
   Z8E_ABSSYN.:Z8A6TOU  cannot be made into a system file and is referenced.
   Z8E_HEAP.:Z8A6TOU  cannot be made into a system file and is referenced.
   Z8D_PIC_PARM.:Z8A6TOU  is referenced.
   Z8E_NEW_ILL.:Z8A6TOU  is referenced.
   Z8E_MACROS.:Z8A6TOU  cannot be made into a system file and is referenced.
   Z8D_REC_DECL.:Z8A6TOU  is referenced.
   Z8E_O1COM.:Z8A6TOU  cannot be made into a system file and is referenced.
   Z8E_WINDOW.:Z8A6TOU  is referenced.
   Z8A_LEX_SYMB.:Z8A6TOU  cannot be made into a system file and is referenced.
   Z8E_STACKS.:Z8A6TOU  cannot be made into a system file and is referenced.
   Z8A_MKCN.:Z8A6TOU  cannot be made into a system file and is referenced.
   Z8A_XREF.:Z8A6TOU  cannot be made into a system file and is referenced.
   Z8A_ETT.:Z8A6TOU  cannot be made into a system file and is referenced.
   Z8A_ILL.:Z8A6TOU  cannot be made into a system file and is referenced.
   Z8A_ERR_NUMS.:Z8A6TOU  is referenced.
   Z8A_DNT.:Z8A6TOU  cannot be made into a system file and is referenced.
   Z8A_TYPES.:Z8A6TOU  is referenced.
   Z8A_LTS.:Z8A6TOU  cannot be made into a system file and is referenced.
   Z8A_QLT.:Z8A6TOU  cannot be made into a system file and is referenced.
   Z8A_ST.:Z8A6TOU  cannot be made into a system file and is referenced.
   Z8A_COMCOM.:Z8A6TOU  cannot be made into a system file and is referenced.
   X8A_COM_MACS.:X8A6TOU  is referenced.
   Z8A_NAMES.:Z8A6TOU  is referenced.
   Z8A_SUPP_MAC.:Z8A6TOU  is referenced.
   Z8A_DEFC.:Z8A6TOU  cannot be made into a system file and is referenced.
      No diagnostics issued in procedure Z8DR$RECORD_DECL.

   Procedure Z8DR$RECORD_DECL requires 10872 words for executable code.
   Procedure Z8DR$RECORD_DECL is declared NOAUTO and requires 394 words of local(STATIC) storage.

PL6.E3A0      #001=Z8DR$RECORD_DECL File=Z8DR.:Z8A6TSI                           SAT 08/09/97 11:18 Page:173

 Object Unit name= Z8DR$RECORD_DECL                           File name= Z8DR.:Z8A6TOU
 UTS= AUG 09 '97 11:18:49.76 SAT                              Compiler= PL-6/E31         Sev=      00
 SharedLib= :SHARED_SYSTEM                                    Alt SharedLib=


    ****  Control sections  ****

 Sect   Type Bound  Init  Size OctSiz  Section name(segment info)
    0   Data  even  none   394    612  Z8DR$RECORD_DECL
    1  LblCom even  none     1      1  ITERATION
    2  LblCom even  none     1      1  ST$
    3  LblCom even  none     5      5  ST_
    4  LblCom even  none     1      1  QLT$
    5  LblCom even  none     1      1  PREV_01_QLT$
    6  LblCom even  none     5      5  QLT_
    7  LblCom even  none     1      1  LTS$
    8  LblCom even  none     5      5  LTS_
    9  LblCom even  none     1      1  DNT$
   10  LblCom even  none     5      5  DNT_
   11  LblCom even  none     1      1  DNT_BUCKET_NUMBER
   12  LblCom even  none     1      1  DNT_OF_1$
   13  LblCom even  none     1      1  ILL$
   14  LblCom even  none     5      5  ILL_
   15  LblCom even  none     1      1  ETT$
   16  LblCom even  none     1      1  HEAD_ETT$
   17  LblCom even  none   512   1000  ETT_BUCKETS
   18  LblCom even  none     5      5  ETT_
   19  LblCom even  none     1      1  XREF$
   20  LblCom even  none     5      5  XREF_
   21  LblCom even  none     2      2  MKCN
   22  LblCom even  none    90    132  LEX_SYMBOL
   23  LblCom even  none     1      1  CURRENT_LEX_SYMBOL$
   24  LblCom even  none    90    132  TEMP_LEX_SYMBOL
   25  LblCom even  none    90    132  TEMP_LEX_SYMBOL2
   26  LblCom even  none     1      1  HEAP$
   27  LblCom even  none     8     10  TEMP_LX_NODE
   28  LblCom even  none    22     26  PIC_OUT
PL6.E3A0      #001=Z8DR$RECORD_DECL File=Z8DR.:Z8A6TSI                           SAT 08/09/97 11:18 Page:174
   29  RtLbCm even  none     5      5  GROUP
   30  RoData even  UTS      1      1  Z8DR$RECORD_DECL
   31   Proc  even  none 10872  25170  Z8DR$RECORD_DECL
   32  RoData even  none   377    571  Z8DR$RECORD_DECL

    ****  Entry defs  ****

                              Check   Calling
                             calling  sequence
  Sect OctLoc Primary Altret sequence   type   Parms  Name
    31      0   yes            yes      Std        2  Z8DR$RECORD_DECL

  ****  Entry refs  ****

         Check        Calling
        calling       sequence
Altret sequence SRef   type   Args  Name
         yes           Std      12 Z8AE$ERROR
         yes           Std       1 Z8ED$DISPOSE_ABSSYN_TREE
         yes           Std       2 Z8ED$NEW_HEAP
         yes           Std       1 Z8AR$RESERVER
         yes           Std       2 Z8DO$LINK_WITH_LTS
 yes     yes           Std       3 Z8DP$VALIDATE_PIC
         yes           Std       3 Z8AU$CREATE_NUM_DESC
         yes           Std       2 Z8DU$BUILD_INITIAL_ITEM
         yes           Std       4 Z8AN$NEW_ILL
 yes     yes           Std       3 Z8EC$CREATE_CONST
 yes     yes           Std       3 Z8EC$NEW_CONST_WITH_TYPE_DESC
         yes           Std       1 Z8AC$MAKE_CONST
         yes           Std       4 Z8AF$FORME
         yes           Std       5 Z8DR$NEW_INDEX
         yes           Std       2 Z8EU$DELETE_LIST_ITEM
 yes     yes           Std       2 Z8DR$SET_RENAMED
                       nStd      0 X66_STATIC_2
PL6.E3A0      #001=Z8DR$RECORD_DECL File=Z8DR.:Z8A6TSI                           SAT 08/09/97 11:18 Page:175

  ****  Data refs  ****

  Flags:  r = read only, s = secondary
Flgs Name                             Flgs Name                             Flgs Name
     COMCOM                           r    LTS_STEP                         r    ILL_STEP
     O1COM                                 HIER_STK_PTR                          HIER_STK
     PAGE_FORMAT                           REP_STK_PTR                           REP_STK
r    DNT$_FROM_RSWNO

  ****  Segment refs  ****

  Flags:  r = read only, s = secondary
Flgs Name                             Flgs Name                             Flgs Name
     NULLSID                               ISSID
PL6.E3A0      #001=Z8DR$RECORD_DECL File=Z8DR.:Z8A6TSI                           SAT 08/09/97 11:18 Page:176


        1        1        /*M* Z8DR -- Data division record declaration processing */
        2        2        /*T***********************************************************/
        3        3        /*T*                                                         */
        4        4        /*T* Copyright (c) Bull HN Information Systems Inc., 1997    */
        5        5        /*T*                                                         */
        6        6        /*T***********************************************************/
        7        7        /*================*/
        8        8          Z8DR$RECORD_DECL: PROC (CURRENT_DECL$, NEXT_DECL$) NOAUTO;

      8 31 000000   000000 700200 xent  Z8DR$RECORD* TSX0  ! X66_STATIC_2
        31 000001   000000 000002 0                  ZERO    0,2
        31 000002   001037 710000 31                 TRA     s:19071

        9        9        /*================*/
       10       10
       11       11        /*P*
       12       12
       13       13          NAME:  Z8DR$RECORD_DECL
       14       14
       15       15          PURPOSE:
       16       16                 To process record declarations in the data div concerning
       17       17                 the (1) WORKING-STORAGE
       18       18                     (2) FILE
       19       19                     (3) LINKAGE
       20       20                     (3) CONSTANT
       21       21                     (5) COMMUNICATION
       22       22                 sections.
       23       23
       24       24        */
       25       25
       26       26        /*D*
       27       27
       28       28          NAME:  Z8DR$RECORD_DECL
       29       29
       30       30          PURPOSE:
       31       31                 To process the record declarations in the data div.
PL6.E3A0      #001=Z8DR$RECORD_DECL File=Z8DR.:Z8A6TSI                           SAT 08/09/97 11:18 Page:177
       32       32
       33       33          ENTRY:
       34       34                 Z8DR$RECORD_DECL - The main entry point - 2 parameters in/out
       35       35
       36       36          CALL:
       37       37                 CALL Z8DR$RECORD_DECL (CURRENT_DECLARATION$, NEXT_DECLARATION$);
       38       38
       39       39          PARAMETERS:
       40       40                 CURRENT_DECL$ -- Points to LX_REC_DECL for the current
       41       41                                  record declaration.
       42       42
       43       43                 NEXT_DECL$ -- Points to LX_REC_DECL for the next record
       44       44                               declaration.
       45       45
       46       46          INTERFACE:
       47       47                 Z8DO$LINK_WITH_LTS
       48       48                 Z8DU$BUILD_INITIAL_ITEM
       49       49                 Z8EU$DELETE_LIST_ITEM
       50       50                 Z8DR$NEW_INDEX
       51       51                 Z8EC$NEW_CONST_WITH_TYPE_DESC
       52       52                 Z8EC$CREATE_CONST
       53       53                 Z8AF$FORME
       54       54                 Z8AC$MAKE_CONST
       55       55                 Z8AE$ERROR
       56       56                 Z8AU$TYPE_DESCRIPTOR
       57       57                 Z8AU$CREATE_NUM_DESC
       58       58                 Z8ED$DISPOSE_ABSSYN_TREE
       59       59                 Z8DP$VALIDATE_PIC
       60       60
       61       61          ENVIRONMENT:
       62       62                 Called from Z8EM$SEMANTICS passing two pointers.  The two pointers
       63       63                 are to LX_REC_DECL items for the current and next decl.  It is ass-
       64       64                 umed that Z8EM will free the lx_rec_decl's.  We may free particular
       65       65                 fields at will.  This routine process everything that can appear
       66       66                 in a record declaration with the exception of the REPORT SECTION.
       67       67
       68       68
PL6.E3A0      #001=Z8DR$RECORD_DECL File=Z8DR.:Z8A6TSI                           SAT 08/09/97 11:18 Page:178
       69       69          DATA:
       70       70                 O1COM.HIER_STK -- This is a 50 word array stack.  This contains the
       71       71                                   declaration stack, in other words the last 01..49
       72       72                                   that appeared in the source program.  This is popped
       73       73                                   and pushed when a new decl is processed.  Ex.
       74       74
       75       75                                      01 a pic 999.  ==The stacks contains info about
       76       76                                                       a in location 1.==
       77       77                                      01 b.          ==The stack contains info about b
       78       78                                                       in location 1 (a info blasted!).
       79       79
       80       80                 O1COM.HIER_STK_PTR -- SBIN guy that is the current pointer into the stack.
       81       81
       82       82                 O1COM.LEVEL_NO -- SBIN guy that contains the source text of the current
       83       83                                   level no.  Ex.
       84       84
       85       85                                              77 a pic 999. ==O1COM.LEVEL_NO is 77,
       86       86                                                              the stack level is 01.  It is
       87       87                                                              at the ordinal level of 1, so
       88       88                                                             that is the stack location for
       89       89                                                              the info about a.
       90       90
       91       91                 Various others not significant.
       92       92                 REDUCED_DATA -- Local in this routine.  This is reinitialized each time.
       93       93                                 This is the "reduced data about a data item".  All the
       94       94                                 picture clauses and usage clauses mean internal types.
       95       95                                 This is the reduced data of a usage clause.  This is
       96       96                                 what this structure contains, the likes of that stuff.
       97       97
       98       98          INPUT:
       99       99                 The parameters and the previous level number contained in O1COM.LEVEL_NO.
      100      100
      101      101          OUTPUT:
      102      102               ST, QLT, [LTS]. This creates the symbol table items, qlt items and sometimes
      103      103             LTS items. This links all the items it creates together in the proper fashion.
      104      104              If any info is deferred it is deferred through abstract syntax trees. Usually
      105      105                 if an item is deferred it is processed in Z8DQ.
PL6.E3A0      #001=Z8DR$RECORD_DECL File=Z8DR.:Z8A6TSI                           SAT 08/09/97 11:18 Page:179
      106      106
      107      107          SCRATCH:
      108      108                 None
      109      109
      110      110          DESCRIPTION:
      111      111                 This procedure process everything you would ever want to know about record
      112      112                 declarations.  It is grouped in 2 major declarations.  The 2 declarations
      113      113                 are 88's and all else.  88's are separate because they are like no other.
      114      114                 They can have only a value clause, so why put them through all the code
      115      115                 for checks of other clauses.  Also they are sort of prepassed.  Here's
      116      116                 why....
      117      117
      118      118                    01 A PIC 999.
      119      119                      88 A-COND-1 VALUE "122".
      120      120                      88 A-COND-2 VALUE "222".
      121      121
      122      122                   at the processing of A you don't know if A is elementary or not. So what
      123      123                 we do is pool A and A-COND-1 and A-COND-2 until the next "real" decl comes
      124      124                    along.  Such as...
      125      125
      126      126                      02 B PIC 999.
      127      127
      128      128                        In this case A is invalid because it is a group item and has a
      129      129                        picture clause.  Upon encountering B we first process the record
      130      130                        A with B as its next item not A-COND-1.  What I mean is
      131      131
      132      132                          like this ==> 01 A PIC 999.
      133      133                                          02 B PIC 999.
      134      134
      135      135                        this then allows us to flag A.  When we return from that then
      136      136                        we process the 88's.
      137      137
      138      138            This routine creates all the internal table entries for any record declarations
      139      139                 in a COBOL85 program.  This flags all the errors concerning these entries
      140      140                 with the exception of duplicate clauses and "pure syntax" errors.  This is
      141      141                 very complicated because of the # of combinations of clauses.
      142      142
PL6.E3A0      #001=Z8DR$RECORD_DECL File=Z8DR.:Z8A6TSI                           SAT 08/09/97 11:18 Page:180
      143      143        */
      144      144
      145      145        %EQU PHASE = 1;
      146      146        %EQU LEVEL_02 = 2;
      147      147
      148      148        %INCLUDE Z8A_DEFC;
      149      216        %INCLUDE Z8A_SUPP_MAC;
      150     2616        %INCLUDE Z8A_COMCOM;
      151     3266        %INCLUDE Z8A_ST;
      152     6925        %INCLUDE Z8A_QLT;
      153     7031        %INCLUDE Z8A_LTS;
      154     9108        %INCLUDE Z8A_TYPES;
      155     9282        %INCLUDE Z8A_DNT;
      156     9503        %INCLUDE Z8A_ERR_NUMS;
      157    10267        %INCLUDE Z8A_ILL;
      158    10960        %INCLUDE Z8A_ETT;
      159    11261        %INCLUDE Z8A_XREF;
      160    11333        %INCLUDE Z8A_MKCN;
      161    11350
      162    11351        %INCLUDE Z8E_STACKS;
      163    13617        %INCLUDE Z8E_WINDOW;
      164    15687        %INCLUDE Z8E_O1COM;
      165    16448        %INCLUDE Z8D_REC_DECL;
      166    16893        %INCLUDE Z8E_MACROS;
      167    17568        %INCLUDE Z8D_PIC_PARM;
      168    17674        %INCLUDE Z8E_HEAP;
      169    17730        %INCLUDE Z8E_ABSSYN;
      170    17936        %INCLUDE Z8E_STATEMNT;
      171    18005        %INCLUDE Z8E_DML;
      172    18125
      173    18126        %PIC_IN;
      174    18139        %PIC_STR (LEN = 80, STCLASS = AUTO);
      175    18143        %PIC_OUT (STCLASS = EXT);
      176    18216        %GROUP_DECL;
      177    18226
      178    18227    1   DCL Z8DO$LINK_WITH_LTS        ENTRY (2);
      179    18228    1   DCL Z8DU$BUILD_INITIAL_ITEM   ENTRY (2);
PL6.E3A0      #001=Z8DR$RECORD_DECL File=Z8DR.:Z8A6TSI                           SAT 08/09/97 11:18 Page:181
      180    18229    1   DCL Z8EU$DELETE_LIST_ITEM     ENTRY (2);
      181    18230    1   DCL Z8DR$NEW_INDEX            ENTRY (5);
      182    18231    1   DCL Z8DR$SET_RENAMED          ENTRY (2) ALTRET;
      183    18232    1   DCL Z8EC$NEW_CONST_WITH_TYPE_DESC    ENTRY (3) ALTRET;
      184    18233    1   DCL Z8EC$CREATE_CONST                ENTRY (3) ALTRET;
      185    18234    1   DCL Z8AF$FORME                ENTRY (4);
      186    18235    1   DCL Z8AC$MAKE_CONST           ENTRY (1);
      187    18236    1   DCL Z8AE$ERROR                ENTRY (12);
      188    18237
      189    18238    1   DCL Z8AU$TYPE_DESCRIPTOR             ENTRY (2);
      190    18239    1   DCL Z8AU$CREATE_NUM_DESC             ENTRY (3);
      191    18240    1   DCL Z8ED$DISPOSE_ABSSYN_TREE         ENTRY (1);
      192    18241    1   DCL Z8DP$VALIDATE_PIC                ENTRY (3) ALTRET;
      193    18242
      194    18243    1   DCL DNT$_FROM_RSWNO                  (0:0) PTR SYMREF READONLY;
      195    18244
      196    18245    1   DCL CDECL$                           PTR;
      197    18246    1   DCL NDECL$                           PTR;
      198    18247    1   DCL CURRENT_DECL$                    PTR;
      199    18248    1   DCL NEXT_DECL$                       PTR;
      200    18249    1   DCL 1 REDUCED_DATA            ALIGNED,
      201    18250             %REDUCED_DATA_INFO       /*(@LVL = 2)*/;
      202    18333    1   DCL BRO$                      PTR;
      203    18334
      204    18335
      205    18336        %EJECT;
PL6.E3A0      #001=Z8DR$RECORD_DECL File=Z8DR.:Z8A6TSI                           SAT 08/09/97 11:18 Page:182
      206    18337
      207    18338        /* Main Body */
      208    18339
      209    18340        %EJECT;
PL6.E3A0      #001=Z8DR$RECORD_DECL File=Z8DR.:Z8A6TSI                           SAT 08/09/97 11:18 Page:183
      210    18341
      211    18342        /*===================*/
      212    18343    1     CHECK_FOR_CONDITION: PROC  ALTRET;

  18343 31 000003   000062 741200 0     CHECK_FOR_C* STX1  ! BRO$+1

      213    18344        /*===================*/
      214    18345
      215    18346        /*I*
      216    18347
      217    18348          NAME:  CHECK_FOR_CONDITION
      218    18349
      219    18350          PURPOSE:
      220    18351                 To check for 88's (condition names).  If they are here pool them, if
      221    18352                 not return.
      222    18353
      223    18354          CALL:
      224    18355                 CALL CHECK_FOR_CONDITION;  == Global CDECL$ and NDECL$
      225    18356
      226    18357
      227    18358          DESCRIPTION:
      228    18359                 This checks for 88's.   If the first item is an 88 it must be at the top
      229    18360                 of the program.  This is so because we check for the next on being 88's
      230    18361                 and we would have caught it earlier.  If the first item is 88 delete it
      231    18362                 and flag it, she's no good.  We also check for the next item being 88.
      232    18363                 This check is for when a level besides 88 is followed by an 88.  If this
      233    18364                 is the case we start the pooling of 88's as well as the preceding decl.
      234    18365                 We do this because we don't know if the preceding decl is elementary or
      235    18366                 non-elementary which is crucial to our processing.  The pooling is pointed
      236    18367                 to be O1COM.LEVEL_88_LIST$ (Non nil means something in it).  If there
      237    18368                 is already something in the 88 list then 2 possibilities exist. 1st is
      238    18369                 this item is also an 88, simply add it to the pool.  2nd possibility is
      239    18370                 this item is not an 88, simply process it with the regular(non 88) decl
      240    18371                 we saved away using the saved one as the current and this one as the next.
      241    18372                 Then process the 88 list.  That's all there is to it.  Basically 3 cases.
      242    18373
      243    18374                    Scenario 1:  88 first in program, flag and delete it.
PL6.E3A0      #001=Z8DR$RECORD_DECL File=Z8DR.:Z8A6TSI                           SAT 08/09/97 11:18 Page:184
      244    18375
      245    18376                    Scenario 2:  0n followed by 88.  Pool both and altreturn (exit Z8DR).
      246    18377
      247    18378                    Scenario 3:  A.) Current 88, Next 88 - pool both
      248    18379                                B.) Current 88, Next 0n - Process saved decl then all 88's.
      249    18380
      250    18381
      251    18382        */
      252    18383
      253    18384    2   DCL NEXT#                     SBIN WORD;
      254    18385    2   DCL CURRENT#                  SBIN WORD;
      255    18386    2   DCL LEVEL$                    PTR;
      256    18387    2   DCL LARGE$                    PTR;
      257    18388
      258    18389    2      IF NDECL$ = ADDR(NIL) THEN

  18389 31 000004   000032 236000 0                  LDQ     NDECL$
        31 000005   000000 116000 32                 CMPQ    0
        31 000006   000012 601000 31                 TNZ     s:18392

      259    18390    2        NEXT# = %LEVEL_01;

  18390 31 000007   000001 235007                    LDA     1,DL
        31 000010   000063 755000 0                  STA     NEXT#
        31 000011   000041 710000 31                 TRA     s:18401

      260    18391    3      ELSE DO;

      261    18392    3        CALL CHARBIN (NEXT#,

  18392 31 000012   000032 470400 0                  LDP0    NDECL$
        31 000013   000001 471500                    LDP1    1,,PR0
        31 000014   100002 473500                    LDP3    2,,PR1
        31 000015   300004 220100                    LDX0    4,,PR3
        31 000016   000000 305540                    DTB
        31 000017   300004 430010                    NDSC9   4,,PR3                   cn=2,s=nosgn,sf=0,n=*X0
        31 000020   000063 000004 0                  NDSC9   NEXT#                    cn=0,s=lsgnf,sf=0,n=4
PL6.E3A0      #001=Z8DR$RECORD_DECL File=Z8DR.:Z8A6TSI                           SAT 08/09/97 11:18 Page:185

      262    18393    3                      NDECL$ -> LX_REC_DECL.P.LEVEL_NO$ ->
      263    18394    3                      LX_ITEM.DNT$ -> DNT.TEXT.NAME);
      264    18395    3        IF NEXT# = %LEVEL_88 AND COMCOM.OB.FIPS.LEVEL >= %INT_LEV THEN

  18395 31 000021   000063 235000 0                  LDA     NEXT#
        31 000022   000130 115007                    CMPA    88,DL
        31 000023   000041 601000 31                 TNZ     s:18401
        31 000024   000036 722000 xsym               LXL2    COMCOM+30
        31 000025   000002 102003                    CMPX2   2,DU
        31 000026   000041 604000 31                 TMI     s:18401

      265    18396    3          CALL Z8AE$ERROR (%E$LEVEL_CHECK,

  18396 31 000027   100006 634500                    EPPR4   6,,PR1
        31 000030   000574 454400 0                  STP4    P$+3
        31 000031   100005 633500                    EPPR3   5,,PR1
        31 000032   000573 453400 0                  STP3    P$+2
        31 000033   000003 236000 32                 LDQ     3
        31 000034   000572 756000 0                  STQ     P$+1
        31 000035   000572 630400 0                  EPPR0   P$+1
        31 000036   000001 631400 32                 EPPR1   1
        31 000037   000000 701000 xent               TSX1    Z8AE$ERROR
        31 000040   000000 011000                    NOP     0

      266    18397    3                           NDECL$ -> LX_REC_DECL.P.LEVEL_NO$ -> LX_TERMINAL.LINE,
      267    18398    3                           NDECL$ -> LX_REC_DECL.P.LEVEL_NO$ -> LX_TERMINAL.COLUMN);
      268    18399    3        END;

      269    18400
      270    18401    2      CALL CHARBIN (CURRENT#,

  18401 31 000041   000031 470400 0                  LDP0    CDECL$
        31 000042   000001 471500                    LDP1    1,,PR0
        31 000043   100002 473500                    LDP3    2,,PR1
        31 000044   300004 220100                    LDX0    4,,PR3
        31 000045   000000 305540                    DTB
PL6.E3A0      #001=Z8DR$RECORD_DECL File=Z8DR.:Z8A6TSI                           SAT 08/09/97 11:18 Page:186
        31 000046   300004 430010                    NDSC9   4,,PR3                   cn=2,s=nosgn,sf=0,n=*X0
        31 000047   000064 000004 0                  NDSC9   CURRENT#                 cn=0,s=lsgnf,sf=0,n=4

      271    18402    2                    CDECL$ -> LX_REC_DECL.P.LEVEL_NO$ ->
      272    18403    2                    LX_ITEM.DNT$ -> DNT.TEXT.NAME);
      273    18404
      274    18405    2      IF O1COM.LEVEL_88_LIST$ ~= ADDR(NIL) THEN

  18405 31 000050   000035 236000 xsym               LDQ     O1COM+29
        31 000051   000000 116000 32                 CMPQ    0
        31 000052   000156 600000 31                 TZE     s:18445

      275    18406    2        IF CURRENT# = %LEVEL_88 THEN

  18406 31 000053   000064 235000 0                  LDA     CURRENT#
        31 000054   000130 115007                    CMPA    88,DL
        31 000055   000116 601000 31                 TNZ     s:18426

      276    18407    3          DO;

      277    18408    3            CALL ADD_TO_88_LIST (O1COM.LEVEL_88_LIST$);

  18408 31 000056   000004 236000 32                 LDQ     4
        31 000057   000073 756000 0                  STQ     LARGE$+2
        31 000060   000322 701000 31                 TSX1    ADD_TO_88_LIST
        31 000061   000000 011000                    NOP     0

      278    18409
      279    18410    3            IF NDECL$ = ADDR(NIL) THEN

  18410 31 000062   000032 236000 0                  LDQ     NDECL$
        31 000063   000000 116000 32                 CMPQ    0
        31 000064   000114 601000 31                 TNZ     s:18422

      280    18411    4              DO;

      281    18412    4                CALL DATA_DECLARATION (O1COM.LEVEL_88_LIST$ -> LX_LIST.HEAD$ ->
PL6.E3A0      #001=Z8DR$RECORD_DECL File=Z8DR.:Z8A6TSI                           SAT 08/09/97 11:18 Page:187

  18412 31 000065   000035 470400 xsym               LDP0    O1COM+29
        31 000066   000004 471500                    LDP1    4,,PR0
        31 000067   000000 236000 32                 LDQ     0
        31 000070   000606 756000 0                  STQ     P$+13
        31 000071   000606 633400 0                  EPPR3   P$+13
        31 000072   000157 453400 0                  STP3    @PASSED_CDECL$+1
        31 000073   100001 634500                    EPPR4   1,,PR1
        31 000074   000156 454400 0                  STP4    ST$$+2
        31 000075   002441 701000 31                 TSX1    DATA_DECLARATION
        31 000076   000000 011000                    NOP     0

      282    18413    4                                            LX_LARGE.LARGE_ITEM$,
      283    18414    4                                            ADDR(NIL));
      284    18415    4                IF HIER_STK_PTR = %LEVEL_01 THEN

  18415 31 000077   000000 235000 xsym               LDA     HIER_STK_PTR
        31 000100   000001 115007                    CMPA    1,DL
        31 000101   000104 601000 31                 TNZ     s:18418

      285    18416    4                  CALL LINK_LEVEL_01_WITH_QLT;

  18416 31 000102   000452 701000 31                 TSX1    LINK_LEVEL_01_WITH_QLT
        31 000103   000000 011000                    NOP     0

      286    18417
      287    18418    4                CALL PROCESS_88_LIST (O1COM.LEVEL_88_LIST$);

  18418 31 000104   000004 236000 32                 LDQ     4
        31 000105   000076 756000 0                  STQ     LARGE$+2
        31 000106   000372 701000 31                 TSX1    PROCESS_88_LIST
        31 000107   000000 011000                    NOP     0

      288    18419    4                CALL Z8ED$DISPOSE_ABSSYN_TREE (O1COM.LEVEL_88_LIST$);

  18419 31 000110   000004 630400 32                 EPPR0   4
        31 000111   000005 631400 32                 EPPR1   5
PL6.E3A0      #001=Z8DR$RECORD_DECL File=Z8DR.:Z8A6TSI                           SAT 08/09/97 11:18 Page:188
        31 000112   000000 701000 xent               TSX1    Z8ED$DISPOSE_ABSSYN_TREE
        31 000113   000000 011000                    NOP     0

      289    18420    4              END;

      290    18421
      291    18422    3            ALTRETURN;

  18422 31 000114   000062 221200 0                  LDX1  ! BRO$+1
        31 000115   000000 702211                    TSX2  ! 0,X1

      292    18423    3          END;
      293    18424    2        ELSE
      294    18425    3          DO;

      295    18426    3            CALL DATA_DECLARATION (O1COM.LEVEL_88_LIST$ -> LX_LIST.HEAD$ ->

  18426 31 000116   000035 474400 xsym               LDP4    O1COM+29
        31 000117   400004 475500                    LDP5    4,,PR4
        31 000120   000006 236000 32                 LDQ     6
        31 000121   000157 756000 0                  STQ     @PASSED_CDECL$+1
        31 000122   500001 631500                    EPPR1   1,,PR5
        31 000123   000156 451400 0                  STP1    ST$$+2
        31 000124   002441 701000 31                 TSX1    DATA_DECLARATION
        31 000125   000000 011000                    NOP     0

      296    18427    3                                        LX_LARGE.LARGE_ITEM$,
      297    18428    3                                   CDECL$);
      298    18429
      299    18430    3            IF HIER_STK_PTR = %LEVEL_01 THEN

  18430 31 000126   000000 235000 xsym               LDA     HIER_STK_PTR
        31 000127   000001 115007                    CMPA    1,DL
        31 000130   000133 601000 31                 TNZ     s:18433

      300    18431    3              CALL LINK_LEVEL_01_WITH_QLT;

PL6.E3A0      #001=Z8DR$RECORD_DECL File=Z8DR.:Z8A6TSI                           SAT 08/09/97 11:18 Page:189
  18431 31 000131   000452 701000 31                 TSX1    LINK_LEVEL_01_WITH_QLT
        31 000132   000000 011000                    NOP     0

      301    18432
      302    18433    3            CALL PROCESS_88_LIST (O1COM.LEVEL_88_LIST$);

  18433 31 000133   000004 236000 32                 LDQ     4
        31 000134   000076 756000 0                  STQ     LARGE$+2
        31 000135   000372 701000 31                 TSX1    PROCESS_88_LIST
        31 000136   000000 011000                    NOP     0

      303    18434    3            CALL Z8ED$DISPOSE_ABSSYN_TREE (O1COM.LEVEL_88_LIST$);

  18434 31 000137   000004 630400 32                 EPPR0   4
        31 000140   000005 631400 32                 EPPR1   5
        31 000141   000000 701000 xent               TSX1    Z8ED$DISPOSE_ABSSYN_TREE
        31 000142   000000 011000                    NOP     0

      304    18435
      305    18436    3            IF NEXT# = %LEVEL_88 THEN

  18436 31 000143   000063 235000 0                  LDA     NEXT#
        31 000144   000130 115007                    CMPA    88,DL
        31 000145   000154 601000 31                 TNZ     s:18442

      306    18437    4              DO;

      307    18438    4                CALL START_88_LIST (O1COM.LEVEL_88_LIST$);

  18438 31 000146   000004 236000 32                 LDQ     4
        31 000147   000070 756000 0                  STQ     LARGE$+2
        31 000150   000222 701000 31                 TSX1    START_88_LIST
        31 000151   000000 011000                    NOP     0

      308    18439    4                ALTRETURN;

  18439 31 000152   000062 221200 0                  LDX1  ! BRO$+1
PL6.E3A0      #001=Z8DR$RECORD_DECL File=Z8DR.:Z8A6TSI                           SAT 08/09/97 11:18 Page:190
        31 000153   000000 702211                    TSX2  ! 0,X1

      309    18440    4              END;
      310    18441    3            ELSE
      311    18442    3              RETURN;

  18442 31 000154   000062 221200 0                  LDX1  ! BRO$+1
        31 000155   000001 702211                    TSX2  ! 1,X1

      312    18443    3          END;
      313    18444    2      ELSE
      314    18445    2        IF CURRENT# = %LEVEL_88 THEN

  18445 31 000156   000064 235000 0                  LDA     CURRENT#
        31 000157   000130 115007                    CMPA    88,DL
        31 000160   000207 601000 31                 TNZ     s:18484

      315    18446    3          DO;

      316    18447    3            LEVEL$ = CDECL$ -> LX_REC_DECL.P.LEVEL_NO$;

  18447 31 000161   000001 236100                    LDQ     1,,PR0
        31 000162   000065 756000 0                  STQ     LEVEL$

      317    18448                 %CONDITIONAL_ERROR (@LX_ITEM$ = LEVEL$,
      318    18449                                     @ERROR#   = %E$LEVEL_1_OR_77_AT_TOP,
      319    18450                                     @LINE     = LEVEL$ -> LX_ITEM.LINE,
      320    18451                                     @COLUMN   = LEVEL$ -> LX_ITEM.COLUMN);

  18461 31 000163   000065 474400 0                  LDP4    LEVEL$
        31 000164   400000 236100                    LDQ     0,,PR4
        31 000165   400000 316007                    CANQ    -131072,DL
        31 000166   000205 601000 31                 TNZ     s:18481

  18463 31 000167   000065 236000 0                  LDQ     LEVEL$
        31 000170   000006 036003                    ADLQ    6,DU
        31 000171   000574 756000 0                  STQ     P$+3
PL6.E3A0      #001=Z8DR$RECORD_DECL File=Z8DR.:Z8A6TSI                           SAT 08/09/97 11:18 Page:191
        31 000172   000065 236000 0                  LDQ     LEVEL$
        31 000173   000005 036003                    ADLQ    5,DU
        31 000174   000010 235000 32                 LDA     8
        31 000175   000572 757000 0                  STAQ    P$+1
        31 000176   000572 630400 0                  EPPR0   P$+1
        31 000177   000001 631400 32                 EPPR1   1
        31 000200   000000 701000 xent               TSX1    Z8AE$ERROR
        31 000201   000000 011000                    NOP     0

  18472 31 000202   000065 470400 0                  LDP0    LEVEL$
        31 000203   400000 236007                    LDQ     -131072,DL
        31 000204   000000 256100                    ORSQ    0,,PR0

      321    18481    3            ALTRETURN;

  18481 31 000205   000062 221200 0                  LDX1  ! BRO$+1
        31 000206   000000 702211                    TSX2  ! 0,X1

      322    18482    3          END;
      323    18483    2        ELSE
      324    18484    2          IF NEXT# = %LEVEL_88 THEN

  18484 31 000207   000063 235000 0                  LDA     NEXT#
        31 000210   000130 115007                    CMPA    88,DL
        31 000211   000220 601000 31                 TNZ     s:18490

      325    18485    3            DO;

      326    18486    3              CALL START_88_LIST (O1COM.LEVEL_88_LIST$);

  18486 31 000212   000004 236000 32                 LDQ     4
        31 000213   000070 756000 0                  STQ     LARGE$+2
        31 000214   000222 701000 31                 TSX1    START_88_LIST
        31 000215   000000 011000                    NOP     0

      327    18487    3              ALTRETURN;

PL6.E3A0      #001=Z8DR$RECORD_DECL File=Z8DR.:Z8A6TSI                           SAT 08/09/97 11:18 Page:192
  18487 31 000216   000062 221200 0                  LDX1  ! BRO$+1
        31 000217   000000 702211                    TSX2  ! 0,X1

      328    18488    3            END;
      329    18489
      330    18490    2      RETURN;

  18490 31 000220   000062 221200 0                  LDX1  ! BRO$+1
        31 000221   000001 702211                    TSX2  ! 1,X1

      331    18491
      332    18492    2   END CHECK_FOR_CONDITION;
      333    18493        %EJECT;
PL6.E3A0      #001=Z8DR$RECORD_DECL File=Z8DR.:Z8A6TSI                           SAT 08/09/97 11:18 Page:193
      334    18494        /*=============*/
      335    18495    1     START_88_LIST: PROC (LEVEL_88_LIST$);

  18495 31 000222   000067 741200 0     START_88_LI* STX1  ! LARGE$+1

      336    18496        /*=============*/
      337    18497
      338    18498    2   DCL LEVEL_88_LIST$            PTR;
      339    18499
      340    18500    2   DCL LARGE$                    PTR;
      341    18501
      342    18502             %NEW (@POINTER = LEVEL_88_LIST$,
      343    18503                   @TEMPLATE = LX_LIST);

  18509 31 000223   000013 236000 32                 LDQ     11
        31 000224   000070 235000 0                  LDA     @LEVEL_88_LIST$
        31 000225   000572 757000 0                  STAQ    P$+1
        31 000226   000572 630400 0                  EPPR0   P$+1
        31 000227   000011 631400 32                 EPPR1   9
        31 000230   000000 701000 xent               TSX1    Z8ED$NEW_HEAP
        31 000231   000000 011000                    NOP     0

      344    18513
      345    18514             %INIT_LX_LIST (@POINTER = LEVEL_88_LIST$);

  18516 31 000232   000070 470400 0                  LDP0    @LEVEL_88_LIST$
        31 000233   000000 471500                    LDP1    0,,PR0
        31 000234   000002 220003                    LDX0    2,DU
        31 000235   100000 740100                    STX0    0,,PR1

  18517 31 000236   000000 471500                    LDP1    0,,PR0
        31 000237   000000 221003                    LDX1    0,DU
        31 000240   100000 441100                    SXL1    0,,PR1

  18518 31 000241   000000 471500                    LDP1    0,,PR0
        31 000242   000000 236000 32                 LDQ     0
        31 000243   100001 756100                    STQ     1,,PR1
PL6.E3A0      #001=Z8DR$RECORD_DECL File=Z8DR.:Z8A6TSI                           SAT 08/09/97 11:18 Page:194

  18519 31 000244   000000 471500                    LDP1    0,,PR0
        31 000245   100004 756100                    STQ     4,,PR1

  18520 31 000246   000000 471500                    LDP1    0,,PR0
        31 000247   100007 756100                    STQ     7,,PR1

  18521 31 000250   000000 471500                    LDP1    0,,PR0
        31 000251   100002 450100                    STZ     2,,PR1

      346    18524
      347    18525             %NEW (@POINTER   = LARGE$,
      348    18526                   @TEMPLATE  = LX_LARGE);

  18532 31 000252   000014 630400 32                 EPPR0   12
        31 000253   000011 631400 32                 EPPR1   9
        31 000254   000000 701000 xent               TSX1    Z8ED$NEW_HEAP
        31 000255   000000 011000                    NOP     0

      349    18536
      350    18537             %INIT_LX_LARGE (@POINTER = LARGE$);

  18539 31 000256   000001 220003                    LDX0    1,DU
        31 000257   000071 470400 0                  LDP0    LARGE$
        31 000260   000000 740100                    STX0    0,,PR0

  18540 31 000261   000000 236000 32                 LDQ     0
        31 000262   000071 470400 0                  LDP0    LARGE$
        31 000263   000001 756100                    STQ     1,,PR0

  18541 31 000264   000071 470400 0                  LDP0    LARGE$
        31 000265   000007 756100                    STQ     7,,PR0

      351    18544
      352    18545    2        LARGE$ -> LX_LARGE.LARGE_ITEM$ = CDECL$;

  18545 31 000266   000031 236000 0                  LDQ     CDECL$
PL6.E3A0      #001=Z8DR$RECORD_DECL File=Z8DR.:Z8A6TSI                           SAT 08/09/97 11:18 Page:195
        31 000267   000071 470400 0                  LDP0    LARGE$
        31 000270   000001 756100                    STQ     1,,PR0

      353    18546
      354    18547             %ADD_LX_ITEM_TO_LIST_TAIL (@LIST$ = LEVEL_88_LIST$,
      355    18548                                        @FROM$ = LARGE$);

  18550 31 000271   000000 236000 32                 LDQ     0
        31 000272   000071 470400 0                  LDP0    LARGE$
        31 000273   000007 756100                    STQ     7,,PR0

  18551 31 000274   000070 470400 0                  LDP0    @LEVEL_88_LIST$
        31 000275   000000 471500                    LDP1    0,,PR0
        31 000276   100002 235100                    LDA     2,,PR1
        31 000277   000306 601000 31                 TNZ     s:18558

  18553 31 000300   000071 236000 0                  LDQ     LARGE$
        31 000301   100004 756100                    STQ     4,,PR1

  18554 31 000302   000000 471500                    LDP1    0,,PR0
        31 000303   000071 236000 0                  LDQ     LARGE$
        31 000304   100001 756100                    STQ     1,,PR1

  18555 31 000305   000314 710000 31                 TRA     s:18561

  18558 31 000306   100001 473500                    LDP3    1,,PR1
        31 000307   000071 236000 0                  LDQ     LARGE$
        31 000310   300007 756100                    STQ     7,,PR3

  18559 31 000311   000000 471500                    LDP1    0,,PR0
        31 000312   000071 236000 0                  LDQ     LARGE$
        31 000313   100001 756100                    STQ     1,,PR1

  18561 31 000314   000000 471500                    LDP1    0,,PR0
        31 000315   100002 054100                    AOS     2,,PR1

      356    18564
PL6.E3A0      #001=Z8DR$RECORD_DECL File=Z8DR.:Z8A6TSI                           SAT 08/09/97 11:18 Page:196
      357    18565    2        CDECL$ = ADDR(NIL);

  18565 31 000316   000000 236000 32                 LDQ     0
        31 000317   000031 756000 0                  STQ     CDECL$

      358    18566
      359    18567    2   END START_88_LIST;

  18567 31 000320   000067 221200 0                  LDX1  ! LARGE$+1
        31 000321   000001 702211                    TSX2  ! 1,X1

      360    18568        %EJECT;
PL6.E3A0      #001=Z8DR$RECORD_DECL File=Z8DR.:Z8A6TSI                           SAT 08/09/97 11:18 Page:197
      361    18569        /*==============*/
      362    18570    1     ADD_TO_88_LIST: PROC (LEVEL_88_LIST$);

  18570 31 000322   000072 741200 0     ADD_TO_88_L* STX1  ! LARGE$+1

      363    18571        /*==============*/
      364    18572
      365    18573    2   DCL LEVEL_88_LIST$            PTR;
      366    18574
      367    18575    2   DCL LARGE$                    PTR;
      368    18576
      369    18577             %NEW (@POINTER   = LARGE$,
      370    18578                   @TEMPLATE  = LX_LARGE);

  18584 31 000323   000016 630400 32                 EPPR0   14
        31 000324   000011 631400 32                 EPPR1   9
        31 000325   000000 701000 xent               TSX1    Z8ED$NEW_HEAP
        31 000326   000000 011000                    NOP     0

      371    18588
      372    18589             %INIT_LX_LARGE (@POINTER = LARGE$);

  18591 31 000327   000001 220003                    LDX0    1,DU
        31 000330   000074 470400 0                  LDP0    LARGE$
        31 000331   000000 740100                    STX0    0,,PR0

  18592 31 000332   000000 236000 32                 LDQ     0
        31 000333   000074 470400 0                  LDP0    LARGE$
        31 000334   000001 756100                    STQ     1,,PR0

  18593 31 000335   000074 470400 0                  LDP0    LARGE$
        31 000336   000007 756100                    STQ     7,,PR0

      373    18596
      374    18597    2        LARGE$ -> LX_LARGE.LARGE_ITEM$ = CDECL$;

  18597 31 000337   000031 236000 0                  LDQ     CDECL$
PL6.E3A0      #001=Z8DR$RECORD_DECL File=Z8DR.:Z8A6TSI                           SAT 08/09/97 11:18 Page:198
        31 000340   000074 470400 0                  LDP0    LARGE$
        31 000341   000001 756100                    STQ     1,,PR0

      375    18598
      376    18599             %ADD_LX_ITEM_TO_LIST_TAIL (@LIST$  = O1COM.LEVEL_88_LIST$,
      377    18600                                        @FROM$  = LARGE$);

  18602 31 000342   000000 236000 32                 LDQ     0
        31 000343   000074 470400 0                  LDP0    LARGE$
        31 000344   000007 756100                    STQ     7,,PR0

  18603 31 000345   000035 470400 xsym               LDP0    O1COM+29
        31 000346   000002 235100                    LDA     2,,PR0
        31 000347   000356 601000 31                 TNZ     s:18610

  18605 31 000350   000074 236000 0                  LDQ     LARGE$
        31 000351   000004 756100                    STQ     4,,PR0

  18606 31 000352   000074 236000 0                  LDQ     LARGE$
        31 000353   000035 470400 xsym               LDP0    O1COM+29
        31 000354   000001 756100                    STQ     1,,PR0

  18607 31 000355   000364 710000 31                 TRA     s:18613

  18610 31 000356   000001 471500                    LDP1    1,,PR0
        31 000357   000074 236000 0                  LDQ     LARGE$
        31 000360   100007 756100                    STQ     7,,PR1

  18611 31 000361   000074 236000 0                  LDQ     LARGE$
        31 000362   000035 470400 xsym               LDP0    O1COM+29
        31 000363   000001 756100                    STQ     1,,PR0

  18613 31 000364   000035 470400 xsym               LDP0    O1COM+29
        31 000365   000002 054100                    AOS     2,,PR0

      378    18616
      379    18617    2        CDECL$ = ADDR(NIL);
PL6.E3A0      #001=Z8DR$RECORD_DECL File=Z8DR.:Z8A6TSI                           SAT 08/09/97 11:18 Page:199

  18617 31 000366   000000 236000 32                 LDQ     0
        31 000367   000031 756000 0                  STQ     CDECL$

      380    18618
      381    18619    2   END ADD_TO_88_LIST;

  18619 31 000370   000072 221200 0                  LDX1  ! LARGE$+1
        31 000371   000001 702211                    TSX2  ! 1,X1

      382    18620        %EJECT;
PL6.E3A0      #001=Z8DR$RECORD_DECL File=Z8DR.:Z8A6TSI                           SAT 08/09/97 11:18 Page:200
      383    18621        /*===============*/
      384    18622    1     PROCESS_88_LIST: PROC (COND_LIST$);

  18622 31 000372   000075 741200 0     PROCESS_88_* STX1  ! LARGE$+1

      385    18623        /*===============*/
      386    18624
      387    18625    2   DCL COND_LIST$                PTR;
      388    18626
      389    18627    2   DCL CURRENT_88$               PTR;
      390    18628    2   DCL NEW_COND$                 PTR;
      391    18629    2   DCL 1 REDUCED_DATA     ALIGNED,
      392    18630             %REDUCED_DATA_INFO;
      393    18713
      394    18714    2      CURRENT_88$ = COND_LIST$ -> LX_LIST.HEAD$ -> LX_ITEM.LINK;

  18714 31 000373   000076 470400 0                  LDP0    @COND_LIST$
        31 000374   000000 471500                    LDP1    0,,PR0
        31 000375   100004 473500                    LDP3    4,,PR1
        31 000376   300007 236100                    LDQ     7,,PR3
        31 000377   000077 756000 0                  STQ     CURRENT_88$

      395    18715
      396    18716    3      DO WHILE (CURRENT_88$ ~= ADDR(NIL));

  18716 31 000400   000441 710000 31                 TRA     s:18740

      397    18717             %INITIALIZE_REDUCED_DATA;

  18719 31 000401   000000 100400                    MLR     fill='000'O
        31 000402   000020 000001 32                 ADSC9   16                       cn=0,n=1
        31 000403   000101 000130 0                  ADSC9   REDUCED_DATA             cn=0,n=88

  18720 31 000404   000000 236000 32                 LDQ     0
        31 000405   000115 756000 0                  STQ     REDUCED_DATA+12

  18721 31 000406   000117 756000 0                  STQ     REDUCED_DATA+14
PL6.E3A0      #001=Z8DR$RECORD_DECL File=Z8DR.:Z8A6TSI                           SAT 08/09/97 11:18 Page:201

  18722 31 000407   000116 756000 0                  STQ     REDUCED_DATA+13

  18723 31 000410   000120 756000 0                  STQ     REDUCED_DATA+15

  18724 31 000411   000111 756000 0                  STQ     REDUCED_DATA+8

  18725 31 000412   000112 756000 0                  STQ     REDUCED_DATA+9

  18726 31 000413   000113 756000 0                  STQ     REDUCED_DATA+10

  18727 31 000414   000114 756000 0                  STQ     REDUCED_DATA+11

  18728 31 000415   000123 756000 0                  STQ     REDUCED_DATA+18

      398    18731
      399    18732    3        CALL VERIFY_88 (CURRENT_88$ -> LX_LARGE.LARGE_ITEM$,

  18732 31 000416   000021 236000 32                 LDQ     17
        31 000417   000142 756000 0                  STQ     @CDECL$+1
        31 000420   000077 236000 0                  LDQ     CURRENT_88$
        31 000421   000001 036003                    ADLQ    1,DU
        31 000422   000141 756000 0                  STQ     BRO$+2
        31 000423   001126 701000 31                 TSX1    VERIFY_88
        31 000424   000000 011000                    NOP     0

      400    18733    3                        REDUCED_DATA);
      401    18734
      402    18735    3        CALL PROCESS_88 (CURRENT_88$ -> LX_LARGE.LARGE_ITEM$,

  18735 31 000425   000022 236000 32                 LDQ     18
        31 000426   000150 756000 0                  STQ     @REDUCED_DATA+1
        31 000427   000021 236000 32                 LDQ     17
        31 000430   000147 756000 0                  STQ     @CDECL$+1
        31 000431   000077 236000 0                  LDQ     CURRENT_88$
        31 000432   000001 036003                    ADLQ    1,DU
        31 000433   000146 756000 0                  STQ     QLT$$+2
PL6.E3A0      #001=Z8DR$RECORD_DECL File=Z8DR.:Z8A6TSI                           SAT 08/09/97 11:18 Page:202
        31 000434   002053 701000 31                 TSX1    PROCESS_88
        31 000435   000000 011000                    NOP     0

      403    18736    3                         REDUCED_DATA,
      404    18737    3                         NEW_COND$);
      405    18738
      406    18739    3        CURRENT_88$ = CURRENT_88$ -> LX_LARGE.LINK;

  18739 31 000436   000077 470400 0                  LDP0    CURRENT_88$
        31 000437   000007 236100                    LDQ     7,,PR0
        31 000440   000077 756000 0                  STQ     CURRENT_88$

      407    18740    3      END;

  18740 31 000441   000000 116000 32                 CMPQ    0
        31 000442   000401 601000 31                 TNZ     s:18719

      408    18741
      409    18742    2      HIER_STK.B.CONDITION_OBJ (HIER_STK_PTR) = TRUE;

  18742 31 000443   000000 236000 xsym               LDQ     HIER_STK_PTR
        31 000444   000005 402007                    MPY     5,DL
        31 000445   000000 620006                    EAX0    0,QL
        31 000446   000040 236007                    LDQ     32,DL
        31 000447   000002 256010 xsym               ORSQ    HIER_STK+2,X0

      410    18743
      411    18744    2   END PROCESS_88_LIST;

  18744 31 000450   000075 221200 0                  LDX1  ! LARGE$+1
        31 000451   000001 702211                    TSX2  ! 1,X1

      412    18745        %EJECT;
PL6.E3A0      #001=Z8DR$RECORD_DECL File=Z8DR.:Z8A6TSI                           SAT 08/09/97 11:18 Page:203
      413    18746        /*======================*/
      414    18747    1     LINK_LEVEL_01_WITH_QLT: PROC;

  18747 31 000452   000127 741200 0     LINK_LEVEL_* STX1  ! REDUCED_DATA+22

      415    18748        /*======================*/
      416    18749
      417    18750    2   DCL BRO$               PTR;
      418    18751    2   DCL FATHER$            PTR;
      419    18752
      420    18753    3        DO CASE (O1COM.DATA_DECL_CONTEXT);

  18753 31 000453   000015 235000 xsym               LDA     O1COM+13
        31 000454   000005 115007                    CMPA    5,DL
        31 000455   000457 602005 31                 TNC     s:18753+4,AL
        31 000456   000764 710000 31                 TRA     s:19034
        31 000457   000464 710000 31                 TRA     s:18756
        31 000460   000713 710000 31                 TRA     s:19014
        31 000461   000713 710000 31                 TRA     s:19014
        31 000462   000464 710000 31                 TRA     s:18756
        31 000463   000513 710000 31                 TRA     s:18774

      421    18754
      422    18755    3          CASE (%WORKING_STORAGE, %COMMUNICATION_DESC);

      423    18756    3            BRO$ = HIER_STK.QLT$(1);

  18756 31 000464   000005 236000 xsym               LDQ     HIER_STK+5
        31 000465   000130 756000 0                  STQ     BRO$

      424    18757
      425    18758    4            DO WHILE (BRO$ -> QLT.BROTHER ~= ADDR(NIL));

  18758 31 000466   000472 710000 31                 TRA     s:18760

      426    18759    4              BRO$ = BRO$ -> QLT.BROTHER;

PL6.E3A0      #001=Z8DR$RECORD_DECL File=Z8DR.:Z8A6TSI                           SAT 08/09/97 11:18 Page:204
  18759 31 000467   000130 470400 0                  LDP0    BRO$
        31 000470   000002 236100                    LDQ     2,,PR0
        31 000471   000130 756000 0                  STQ     BRO$

      427    18760    4            END;

  18760 31 000472   000130 470400 0                  LDP0    BRO$
        31 000473   000002 236100                    LDQ     2,,PR0
        31 000474   000000 116000 32                 CMPQ    0
        31 000475   000467 601000 31                 TNZ     s:18759

      428    18761
      429    18762                 %UPDATE_PREV_QLT$ (@NEW_QLT$ = "HIER_STK.QLT$(1)");

  18764 31 000476   000424 236000 xsym               LDQ     COMCOM+276
        31 000477   000000 116000 32                 CMPQ    0
        31 000500   000504 600000 31                 TZE     s:18766

  18765 31 000501   000005 236000 xsym               LDQ     HIER_STK+5
        31 000502   000424 471400 xsym               LDP1    COMCOM+276
        31 000503   100002 756100                    STQ     2,,PR1

  18766 31 000504   000005 236000 xsym               LDQ     HIER_STK+5
        31 000505   000424 756000 xsym               STQ     COMCOM+276

      430    18769
      431    18770    3            IF BRO$ ~= HIER_STK.QLT$ (1) THEN

  18770 31 000506   000130 116000 0                  CMPQ    BRO$
        31 000507   001001 600000 31                 TZE     s:19039

      432    18771    3              COMCOM.PREV_QLT$ = BRO$;

  18771 31 000510   000130 236000 0                  LDQ     BRO$
        31 000511   000424 756000 xsym               STQ     COMCOM+276
        31 000512   001001 710000 31                 TRA     s:19039

PL6.E3A0      #001=Z8DR$RECORD_DECL File=Z8DR.:Z8A6TSI                           SAT 08/09/97 11:18 Page:205
      433    18772
      434    18773    3          CASE (%LINKAGE_SECTION);

      435    18774    3            BRO$ = HIER_STK.QLT$(1);

  18774 31 000513   000005 236000 xsym               LDQ     HIER_STK+5
        31 000514   000130 756000 0                  STQ     BRO$

      436    18775
      437    18776                 %NEW_BASE_LTS (@POINTER = LTS$,
      438    18777                                @NEXT    = O1COM.BASE_LTS_LIST$,
      439    18778                                @ST$     = "HIER_STK.QLT$(1)->QLT.ST$");

  18857 31 000515   000002 236000 8                  LDQ     LTS_+2
        31 000516   000010 036007                    ADLQ    8,DL
        31 000517   000003 116000 8                  CMPQ    LTS_+3
        31 000520   000531 604000 31                 TMI     s:18859

  18858 31 000521   000023 236000 32                 LDQ     19
        31 000522   000572 756000 0                  STQ     P$+1
        31 000523   000572 630400 0                  EPPR0   P$+1
        31 000524   000573 450400 0                  STP0    P$+2
        31 000525   000573 630400 0                  EPPR0   P$+2
        31 000526   000005 631400 32                 EPPR1   5
        31 000527   000000 701000 xent               TSX1    Z8AR$RESERVER
        31 000530   000000 011000                    NOP     0

  18859 31 000531   000002 236000 8                  LDQ     LTS_+2
        31 000532   000022 736000                    QLS     18
        31 000533   000001 036000 8                  ADLQ    LTS_+1
        31 000534   000000 756000 7                  STQ     LTS$

  18860 31 000535   000010 236007                    LDQ     8,DL
        31 000536   000002 056000 8                  ASQ     LTS_+2

  18861 31 000537   001066 220003                    LDX0    566,DU
        31 000540   000000 470400 7                  LDP0    LTS$
PL6.E3A0      #001=Z8DR$RECORD_DECL File=Z8DR.:Z8A6TSI                           SAT 08/09/97 11:18 Page:206
        31 000541   000000 740100                    STX0    0,,PR0

  18867 31 000542   000000 470400 7                  LDP0    LTS$
        31 000543   000000 740100                    STX0    0,,PR0

  18868 31 000544   000000 236000 32                 LDQ     0
        31 000545   000000 470400 7                  LDP0    LTS$
        31 000546   000002 756100                    STQ     2,,PR0

  18869 31 000547   000112 236000 xsym               LDQ     O1COM+74
        31 000550   000005 756100                    STQ     5,,PR0

  18870 31 000551   000000 236000 32                 LDQ     0
        31 000552   000006 756100                    STQ     6,,PR0

  18871 31 000553   000004 756100                    STQ     4,,PR0

  18872 31 000554   000007 756100                    STQ     7,,PR0

  18873 31 000555   000003 450100                    STZ     3,,PR0

  18874 31 000556   000005 471400 xsym               LDP1    HIER_STK+5
        31 000557   100004 236100                    LDQ     4,,PR1
        31 000560   000001 756100                    STQ     1,,PR0

      440    18877
      441    18878    3            O1COM.BASE_LTS_LIST$ = LTS$;

  18878 31 000561   000000 236000 7                  LDQ     LTS$
        31 000562   000112 756000 xsym               STQ     O1COM+74

      442    18879
      443    18880    3            CALL Z8DO$LINK_WITH_LTS (HIER_STK.QLT$(1)->QLT.ST$-> SCALAR.LTS$,

  18880 31 000563   000005 471400 xsym               LDP1    HIER_STK+5
        31 000564   100004 473500                    LDP3    4,,PR1
        31 000565   000024 236000 32                 LDQ     20
PL6.E3A0      #001=Z8DR$RECORD_DECL File=Z8DR.:Z8A6TSI                           SAT 08/09/97 11:18 Page:207
        31 000566   000573 756000 0                  STQ     P$+2
        31 000567   300005 634500                    EPPR4   5,,PR3
        31 000570   000572 454400 0                  STP4    P$+1
        31 000571   000572 630400 0                  EPPR0   P$+1
        31 000572   000011 631400 32                 EPPR1   9
        31 000573   000000 701000 xent               TSX1    Z8DO$LINK_WITH_LTS
        31 000574   000000 011000                    NOP     0

      444    18881    3                                     O1COM.BASE_LTS_LIST$);
      445    18882
      446    18883    3            IF REDUCED_DATA.B.REDEF_SUB THEN

  18883 31 000575   000060 236000 0                  LDQ     REDUCED_DATA+21
        31 000576   004000 316003                    CANQ    2048,DU
        31 000577   000603 600000 31                 TZE     s:18887

      447    18884    3              O1COM.BASE_LTS_LIST$ -> BASE_LTS.REDEFINE$ =

  18884 31 000600   000046 236000 0                  LDQ     REDUCED_DATA+11
        31 000601   000112 470400 xsym               LDP0    O1COM+74
        31 000602   000004 756100                    STQ     4,,PR0

      448    18885    3                  REDUCED_DATA.REDEFINES.OBJECT$;
      449    18886
      450    18887    4            DO WHILE (BRO$ -> QLT.BROTHER ~= ADDR(NIL));

  18887 31 000603   000672 710000 31                 TRA     s:19000

      451    18888    4              BRO$ = BRO$ -> QLT.BROTHER;

  18888 31 000604   000130 470400 0                  LDP0    BRO$
        31 000605   000002 236100                    LDQ     2,,PR0
        31 000606   000130 756000 0                  STQ     BRO$

      452    18889
      453    18890                   %NEW_BASE_LTS (@POINTER = LTS$,
      454    18891                                  @NEXT    = O1COM.BASE_LTS_LIST$,
PL6.E3A0      #001=Z8DR$RECORD_DECL File=Z8DR.:Z8A6TSI                           SAT 08/09/97 11:18 Page:208
      455    18892                                  @ST$     = "BRO$ -> QLT.ST$");

  18971 31 000607   000002 236000 8                  LDQ     LTS_+2
        31 000610   000010 036007                    ADLQ    8,DL
        31 000611   000003 116000 8                  CMPQ    LTS_+3
        31 000612   000623 604000 31                 TMI     s:18973

  18972 31 000613   000023 236000 32                 LDQ     19
        31 000614   000572 756000 0                  STQ     P$+1
        31 000615   000572 630400 0                  EPPR0   P$+1
        31 000616   000573 450400 0                  STP0    P$+2
        31 000617   000573 630400 0                  EPPR0   P$+2
        31 000620   000005 631400 32                 EPPR1   5
        31 000621   000000 701000 xent               TSX1    Z8AR$RESERVER
        31 000622   000000 011000                    NOP     0

  18973 31 000623   000002 236000 8                  LDQ     LTS_+2
        31 000624   000022 736000                    QLS     18
        31 000625   000001 036000 8                  ADLQ    LTS_+1
        31 000626   000000 756000 7                  STQ     LTS$

  18974 31 000627   000010 236007                    LDQ     8,DL
        31 000630   000002 056000 8                  ASQ     LTS_+2

  18975 31 000631   001066 220003                    LDX0    566,DU
        31 000632   000000 470400 7                  LDP0    LTS$
        31 000633   000000 740100                    STX0    0,,PR0

  18981 31 000634   000000 470400 7                  LDP0    LTS$
        31 000635   000000 740100                    STX0    0,,PR0

  18982 31 000636   000000 236000 32                 LDQ     0
        31 000637   000000 470400 7                  LDP0    LTS$
        31 000640   000002 756100                    STQ     2,,PR0

  18983 31 000641   000112 236000 xsym               LDQ     O1COM+74
        31 000642   000005 756100                    STQ     5,,PR0
PL6.E3A0      #001=Z8DR$RECORD_DECL File=Z8DR.:Z8A6TSI                           SAT 08/09/97 11:18 Page:209

  18984 31 000643   000000 236000 32                 LDQ     0
        31 000644   000006 756100                    STQ     6,,PR0

  18985 31 000645   000004 756100                    STQ     4,,PR0

  18986 31 000646   000007 756100                    STQ     7,,PR0

  18987 31 000647   000003 450100                    STZ     3,,PR0

  18988 31 000650   000130 471400 0                  LDP1    BRO$
        31 000651   100004 236100                    LDQ     4,,PR1
        31 000652   000001 756100                    STQ     1,,PR0

      456    18991
      457    18992    4              O1COM.BASE_LTS_LIST$ = LTS$;

  18992 31 000653   000000 236000 7                  LDQ     LTS$
        31 000654   000112 756000 xsym               STQ     O1COM+74

      458    18993
      459    18994    4              CALL Z8DO$LINK_WITH_LTS (BRO$ -> QLT.ST$ -> SCALAR.LTS$,

  18994 31 000655   100004 473500                    LDP3    4,,PR1
        31 000656   000024 236000 32                 LDQ     20
        31 000657   000573 756000 0                  STQ     P$+2
        31 000660   300005 634500                    EPPR4   5,,PR3
        31 000661   000572 454400 0                  STP4    P$+1
        31 000662   000572 630400 0                  EPPR0   P$+1
        31 000663   000011 631400 32                 EPPR1   9
        31 000664   000000 701000 xent               TSX1    Z8DO$LINK_WITH_LTS
        31 000665   000000 011000                    NOP     0

      460    18995    4                                       O1COM.BASE_LTS_LIST$);
      461    18996
      462    18997    4              O1COM.BASE_LTS_LIST$ -> BASE_LTS.REDEFINE$ =

PL6.E3A0      #001=Z8DR$RECORD_DECL File=Z8DR.:Z8A6TSI                           SAT 08/09/97 11:18 Page:210
  18997 31 000666   000005 470400 xsym               LDP0    HIER_STK+5
        31 000667   000004 236100                    LDQ     4,,PR0
        31 000670   000112 471400 xsym               LDP1    O1COM+74
        31 000671   100004 756100                    STQ     4,,PR1

      463    18998    4                    HIER_STK.QLT$(1) -> QLT.ST$;
      464    18999
      465    19000    4            END;

  19000 31 000672   000130 470400 0                  LDP0    BRO$
        31 000673   000002 236100                    LDQ     2,,PR0
        31 000674   000000 116000 32                 CMPQ    0
        31 000675   000604 601000 31                 TNZ     s:18888

      466    19001
      467    19002                 %UPDATE_PREV_QLT$ (@NEW_QLT$ = "HIER_STK.QLT$(1)");

  19004 31 000676   000424 236000 xsym               LDQ     COMCOM+276
        31 000677   000000 116000 32                 CMPQ    0
        31 000700   000704 600000 31                 TZE     s:19006

  19005 31 000701   000005 236000 xsym               LDQ     HIER_STK+5
        31 000702   000424 471400 xsym               LDP1    COMCOM+276
        31 000703   100002 756100                    STQ     2,,PR1

  19006 31 000704   000005 236000 xsym               LDQ     HIER_STK+5
        31 000705   000424 756000 xsym               STQ     COMCOM+276

      468    19009
      469    19010    3            IF BRO$ ~= HIER_STK.QLT$ (1) THEN

  19010 31 000706   000130 116000 0                  CMPQ    BRO$
        31 000707   001001 600000 31                 TZE     s:19039

      470    19011    3              COMCOM.PREV_QLT$ = BRO$;

  19011 31 000710   000130 236000 0                  LDQ     BRO$
PL6.E3A0      #001=Z8DR$RECORD_DECL File=Z8DR.:Z8A6TSI                           SAT 08/09/97 11:18 Page:211
        31 000711   000424 756000 xsym               STQ     COMCOM+276
        31 000712   001001 710000 31                 TRA     s:19039

      471    19012
      472    19013    3          CASE (%FILE_DESCRIPTION, %SORT_DESCRIPTION);

      473    19014    3            O1COM.CURRENT_FILE_LTS$ -> FILE_LTS.RECORD_COUNT =

  19014 31 000713   000045 470400 xsym               LDP0    O1COM+37
        31 000714   000055 235100                    LDA     45,,PR0
        31 000715   000001 035007                    ADLA    1,DL
        31 000716   000055 755100                    STA     45,,PR0

      474    19015    3            O1COM.CURRENT_FILE_LTS$ -> FILE_LTS.RECORD_COUNT + 1;
      475    19016
      476    19017
      477    19018    3            IF HIER_STK.QLT$(1) -> QLT.ST$ -> SCALAR.B.CLASS

  19018 31 000717   000005 471400 xsym               LDP1    HIER_STK+5
        31 000720   100004 473500                    LDP3    4,,PR1
        31 000721   300003 236100                    LDQ     3,,PR3
        31 000722   000007 376007                    ANQ     7,DL
        31 000723   000003 116007                    CMPQ    3,DL
        31 000724   000727 600000 31                 TZE     s:19021

      478    19019    3            ~= %CLASS_ALPHANUMERIC THEN
      479    19020    3              O1COM.CURRENT_FILE_LTS$ -> FILE_LTS.B.NON_TYA_RECORDS = TRUE;

  19020 31 000725   001000 236007                    LDQ     512,DL
        31 000726   000017 256100                    ORSQ    15,,PR0

      480    19021    3            FATHER$ = O1COM.CURRENT_FILE_LTS$ -> FILE_LTS.ST$ -> FD.QLT$;

  19021 31 000727   000045 470400 xsym               LDP0    O1COM+37
        31 000730   000001 473500                    LDP3    1,,PR0
        31 000731   300007 236100                    LDQ     7,,PR3
        31 000732   000131 756000 0                  STQ     FATHER$
PL6.E3A0      #001=Z8DR$RECORD_DECL File=Z8DR.:Z8A6TSI                           SAT 08/09/97 11:18 Page:212

      481    19022
      482    19023    3            BRO$ = FATHER$ -> QLT.SON;

  19023 31 000733   000131 474400 0                  LDP4    FATHER$
        31 000734   400003 236100                    LDQ     3,,PR4
        31 000735   000130 756000 0                  STQ     BRO$

      483    19024
      484    19025    3            IF BRO$ -> QLT.BROTHER = ADDR(NIL) THEN

  19025 31 000736   000130 475400 0                  LDP5    BRO$
        31 000737   500002 236100                    LDQ     2,,PR5
        31 000740   000000 116000 32                 CMPQ    0
        31 000741   000744 601000 31                 TNZ     s:19028

      485    19026    3              BRO$ -> QLT.BROTHER = HIER_STK.QLT$(1);

  19026 31 000742   000005 236000 xsym               LDQ     HIER_STK+5
        31 000743   500002 756100                    STQ     2,,PR5

      486    19027
      487    19028    3            FATHER$ -> QLT.SON -> QLT.ST$ -> VARIABLE.B.REDEF_OBJ = TRUE;

  19028 31 000744   400003 470500                    LDP0    3,,PR4
        31 000745   000004 471500                    LDP1    4,,PR0
        31 000746   000400 236003                    LDQ     256,DU
        31 000747   100003 256100                    ORSQ    3,,PR1

      488    19029    3            HIER_STK.QLT$(1) -> QLT.ST$ -> VARIABLE.B.REDEF_SUB   = TRUE;

  19029 31 000750   000005 470400 xsym               LDP0    HIER_STK+5
        31 000751   000004 471500                    LDP1    4,,PR0
        31 000752   001000 236003                    LDQ     512,DU
        31 000753   100003 256100                    ORSQ    3,,PR1

      489    19030    3            HIER_STK.QLT$(1) -> QLT.ST$ -> VARIABLE.B.RECORD_AREA = TRUE;
PL6.E3A0      #001=Z8DR$RECORD_DECL File=Z8DR.:Z8A6TSI                           SAT 08/09/97 11:18 Page:213

  19030 31 000754   000005 470400 xsym               LDP0    HIER_STK+5
        31 000755   000004 471500                    LDP1    4,,PR0
        31 000756   000040 236003                    LDQ     32,DU
        31 000757   100003 256100                    ORSQ    3,,PR1

      490    19031    3            HIER_STK.QLT$(1) -> QLT.FATHER = FATHER$;

  19031 31 000760   000131 236000 0                  LDQ     FATHER$
        31 000761   000005 470400 xsym               LDP0    HIER_STK+5
        31 000762   000001 756100                    STQ     1,,PR0
        31 000763   001001 710000 31                 TRA     s:19039

      491    19032
      492    19033    3          CASE (ELSE);

      493    19034    3            CALL Z8AE$ERROR (%E$UNEXPECTED_CASE,

  19034 31 000764   000005 470400 xsym               LDP0    HIER_STK+5
        31 000765   000004 471500                    LDP1    4,,PR0
        31 000766   000026 236000 32                 LDQ     22
        31 000767   000574 756000 0                  STQ     P$+3
        31 000770   000575 451400 0                  STP1    P$+4
        31 000771   000575 236000 0                  LDQ     P$+4
        31 000772   000027 036000 32                 ADLQ    23
        31 000773   000030 235000 32                 LDA     24
        31 000774   000572 757000 0                  STAQ    P$+1
        31 000775   000572 630400 0                  EPPR0   P$+1
        31 000776   000001 631400 32                 EPPR1   1
        31 000777   000000 701000 xent               TSX1    Z8AE$ERROR
        31 001000   000000 011000                    NOP     0

      494    19035    3                             HIER_STK.QLT$(1) -> QLT.ST$ -> ST.LINE_NO, 0);
      495    19036
      496    19037    3        END; /* Case */

      497    19038
PL6.E3A0      #001=Z8DR$RECORD_DECL File=Z8DR.:Z8A6TSI                           SAT 08/09/97 11:18 Page:214
      498    19039    2   END LINK_LEVEL_01_WITH_QLT;

  19039 31 001001   000127 221200 0                  LDX1  ! REDUCED_DATA+22
        31 001002   000001 702211                    TSX2  ! 1,X1

      499    19040        %EJECT;
PL6.E3A0      #001=Z8DR$RECORD_DECL File=Z8DR.:Z8A6TSI                           SAT 08/09/97 11:18 Page:215
      500    19041        /*=========*/
      501    19042    1     CLEAR_STK: PROC;

  19042 31 001003   000132 741200 0     CLEAR_STK    STX1  ! FATHER$+1

      502    19043        /*=========*/
      503    19044
      504    19045    2        DCL I SBIN;
      505    19046
      506    19047
      507    19048    3        DO I = 0 TO HIER_STK_PTR;

  19048 31 001004   000133 450000 0                  STZ     I
        31 001005   001031 710000 31                 TRA     s:19062+1

      508    19049               %UPDATE_HIER_STK (@STK_PTR = I);

  19051 31 001006   000133 236000 0                  LDQ     I
        31 001007   000005 402007                    MPY     5,DL
        31 001010   000000 620006                    EAX0    0,QL
        31 001011   000000 236000 32                 LDQ     0
        31 001012   000000 756010 xsym               STQ     HIER_STK,X0

  19052 31 001013   000001 756010 xsym               STQ     HIER_STK+1,X0

  19053 31 001014   000002 236010 xsym               LDQ     HIER_STK+2,X0
        31 001015   000031 376000 32                 ANQ     25
        31 001016   062000 276007                    ORQ     25600,DL
        31 001017   000002 756010 xsym               STQ     HIER_STK+2,X0

  19054 31 001020   000000 221003                    LDX1    0,DU
        31 001021   000002 741010 xsym               STX1    HIER_STK+2,X0

  19055 31 001022   000004 741010 xsym               STX1    HIER_STK+4,X0

  19056 31 001023   000004 441010 xsym               SXL1    HIER_STK+4,X0

PL6.E3A0      #001=Z8DR$RECORD_DECL File=Z8DR.:Z8A6TSI                           SAT 08/09/97 11:18 Page:216
  19057 31 001024   000003 741010 xsym               STX1    HIER_STK+3,X0

  19058 31 001025   000003 441010 xsym               SXL1    HIER_STK+3,X0

  19059 31 001026   000032 236000 32                 LDQ     26
        31 001027   000002 356010 xsym               ANSQ    HIER_STK+2,X0

      509    19062    3        END;

  19062 31 001030   000133 054000 0                  AOS     I
        31 001031   000133 236000 0                  LDQ     I
        31 001032   000000 116000 xsym               CMPQ    HIER_STK_PTR
        31 001033   001006 604400 31                 TMOZ    s:19051

      510    19063
      511    19064    2        HIER_STK_PTR = 0;

  19064 31 001034   000000 450000 xsym               STZ     HIER_STK_PTR

      512    19065
      513    19066    2   END CLEAR_STK;

  19066 31 001035   000132 221200 0                  LDX1  ! FATHER$+1
        31 001036   000001 702211                    TSX2  ! 1,X1

      514    19067        %EJECT;
PL6.E3A0      #001=Z8DR$RECORD_DECL File=Z8DR.:Z8A6TSI                           SAT 08/09/97 11:18 Page:217
      515    19068
      516    19069        /* Main Body */
      517    19070
      518    19071    1      CDECL$ = CURRENT_DECL$;

  19071 31 001037   000001 470400 0                  LDP0    @CURRENT_DECL$
        31 001040   000000 236100                    LDQ     0,,PR0
        31 001041   000031 756000 0                  STQ     CDECL$

      519    19072    1      NDECL$ = NEXT_DECL$;

  19072 31 001042   000002 471400 0                  LDP1    @NEXT_DECL$
        31 001043   100000 236100                    LDQ     0,,PR1
        31 001044   000032 756000 0                  STQ     NDECL$

      520    19073
      521    19074    1      CALL CHECK_FOR_CONDITION

  19074 31 001045   000003 701000 31                 TSX1    CHECK_FOR_CONDITION
        31 001046   001060 702000 31                 TSX2    s:19084

      522    19075    1        WHENRETURN
      523    19076    2          DO;

      524    19077    2            CALL DATA_DECLARATION (CDECL$, NDECL$);

  19077 31 001047   000034 237000 32                 LDAQ    28
        31 001050   000156 757000 0                  STAQ    ST$$+2
        31 001051   002441 701000 31                 TSX1    DATA_DECLARATION
        31 001052   000000 011000                    NOP     0

      525    19078
      526    19079    2            IF HIER_STK_PTR = %LEVEL_01 THEN

  19079 31 001053   000000 235000 xsym               LDA     HIER_STK_PTR
        31 001054   000001 115007                    CMPA    1,DL
        31 001055   001060 601000 31                 TNZ     s:19084
PL6.E3A0      #001=Z8DR$RECORD_DECL File=Z8DR.:Z8A6TSI                           SAT 08/09/97 11:18 Page:218

      527    19080    2              CALL LINK_LEVEL_01_WITH_QLT;

  19080 31 001056   000452 701000 31                 TSX1    LINK_LEVEL_01_WITH_QLT
        31 001057   000000 011000                    NOP     0

      528    19081
      529    19082    2          END;

      530    19083
      531    19084    1      CURRENT_DECL$ = CDECL$;

  19084 31 001060   000031 236000 0                  LDQ     CDECL$
        31 001061   000001 470400 0                  LDP0    @CURRENT_DECL$
        31 001062   000000 756100                    STQ     0,,PR0

      532    19085
      533    19086    1      IF NDECL$ = ADDR(NIL) THEN

  19086 31 001063   000032 236000 0                  LDQ     NDECL$
        31 001064   000000 116000 32                 CMPQ    0
        31 001065   001070 601000 31                 TNZ     s:19089

      534    19087    1        CALL CLEAR_STK;

  19087 31 001066   001003 701000 31                 TSX1    CLEAR_STK
        31 001067   000000 011000                    NOP     0

      535    19088
      536    19089    1      IF NEXT_DECL$ ~= ADDR(NIL) THEN

  19089 31 001070   000002 470400 0                  LDP0    @NEXT_DECL$
        31 001071   000000 236100                    LDQ     0,,PR0
        31 001072   000000 116000 32                 CMPQ    0
        31 001073   001076 600000 31                 TZE     s:19090+2

      537    19090    1        NEXT_DECL$    = NDECL$;
PL6.E3A0      #001=Z8DR$RECORD_DECL File=Z8DR.:Z8A6TSI                           SAT 08/09/97 11:18 Page:219

  19090 31 001074   000032 236000 0                  LDQ     NDECL$
        31 001075   000000 756100                    STQ     0,,PR0
        31 001076   025166 710000 31                 TRA     s:30397

      538    19091
      539    19092
      540    19093
      541    19094        %EJECT;
PL6.E3A0      #001=Z8DR$RECORD_DECL File=Z8DR.:Z8A6TSI                           SAT 08/09/97 11:18 Page:220
      542    19095        /*****************************************************************
      543    19096         *                                                               *
      544    19097         *                     INTERNAL PROCEDURES                       *
      545    19098         *                                                               *
      546    19099         *                     ******** **********                       *
      547    19100         *                                                               *
      548    19101         *****************************************************************/
      549    19102        %EJECT;
PL6.E3A0      #001=Z8DR$RECORD_DECL File=Z8DR.:Z8A6TSI                           SAT 08/09/97 11:18 Page:221
      550    19103        /*****************************************************************
      551    19104         *                                                               *
      552    19105         *                     COMMON   PROCEDURES                       *
      553    19106         *                                                               *
      554    19107         *                     ******   **********                       *
      555    19108         *                                                               *
      556    19109         *****************************************************************/
      557    19110        %EJECT;
PL6.E3A0      #001=Z8DR$RECORD_DECL File=Z8DR.:Z8A6TSI                           SAT 08/09/97 11:18 Page:222
      558    19111        /*======================*/
      559    19112    1     LINK_WITH_LAST_BROTHER: PROC (QLT$$, BRO_QLT$);

  19112 31 001077   000134 741200 0     LINK_WITH_L* STX1  ! I+1

      560    19113        /*======================*/
      561    19114
      562    19115    2   DCL QLT$$              PTR;
      563    19116    2   DCL BRO_QLT$           PTR;
      564    19117    2   DCL BRO$               PTR;
      565    19118
      566    19119
      567    19120    2      IF BRO_QLT$ ~= ADDR(NIL) THEN

  19120 31 001100   000136 470400 0                  LDP0    @BRO_QLT$
        31 001101   000000 236100                    LDQ     0,,PR0
        31 001102   000000 116000 32                 CMPQ    0
        31 001103   001121 600000 31                 TZE     s:19131

      568    19121    3        DO;

      569    19122    3          BRO$ = BRO_QLT$;

  19122 31 001104   000137 756000 0                  STQ     BRO$

      570    19123
      571    19124    4          DO WHILE (BRO$ -> QLT.BROTHER ~= ADDR(NIL));

  19124 31 001105   001111 710000 31                 TRA     s:19126

      572    19125    4            BRO$ = BRO$ -> QLT.BROTHER;

  19125 31 001106   000137 470400 0                  LDP0    BRO$
        31 001107   000002 236100                    LDQ     2,,PR0
        31 001110   000137 756000 0                  STQ     BRO$

      573    19126    4          END;
PL6.E3A0      #001=Z8DR$RECORD_DECL File=Z8DR.:Z8A6TSI                           SAT 08/09/97 11:18 Page:223

  19126 31 001111   000137 470400 0                  LDP0    BRO$
        31 001112   000002 236100                    LDQ     2,,PR0
        31 001113   000000 116000 32                 CMPQ    0
        31 001114   001106 601000 31                 TNZ     s:19125

      574    19127
      575    19128    3          BRO$ -> QLT.BROTHER = QLT$$;

  19128 31 001115   000135 471400 0                  LDP1    @QLT$$
        31 001116   100000 236100                    LDQ     0,,PR1
        31 001117   000002 756100                    STQ     2,,PR0

      576    19129    3        END;

  19129 31 001120   001124 710000 31                 TRA     s:19133

      577    19130    2      ELSE
      578    19131    2        BRO_QLT$ = QLT$$;

  19131 31 001121   000135 471400 0                  LDP1    @QLT$$
        31 001122   100000 236100                    LDQ     0,,PR1
        31 001123   000000 756100                    STQ     0,,PR0

      579    19132
      580    19133    2   END LINK_WITH_LAST_BROTHER;

  19133 31 001124   000134 221200 0                  LDX1  ! I+1
        31 001125   000001 702211                    TSX2  ! 1,X1

      581    19134        %EJECT;
PL6.E3A0      #001=Z8DR$RECORD_DECL File=Z8DR.:Z8A6TSI                           SAT 08/09/97 11:18 Page:224
      582    19135        /*****************************************************************
      583    19136         *                                                               *
      584    19137         *                     CONDITION_NAMES                           *
      585    19138         *                                                               *
      586    19139         *                     ***************                           *
      587    19140         *                                                               *
      588    19141         *****************************************************************/
      589    19142        %EJECT;
PL6.E3A0      #001=Z8DR$RECORD_DECL File=Z8DR.:Z8A6TSI                           SAT 08/09/97 11:18 Page:225
      590    19143        /*=========*/
      591    19144    1     VERIFY_88: PROC (CDECL$, REDUCED_DATA);

  19144 31 001126   000140 741200 0     VERIFY_88    STX1  ! BRO$+1

      592    19145        /*=========*/
      593    19146
      594    19147    2      DCL CDECL$                 PTR;
      595    19148    2      DCL 1 REDUCED_DATA         ALIGNED,
      596    19149                %REDUCED_DATA_INFO;
      597    19232
      598    19233    2      DCL ITEM$                  PTR;
      599    19234    2      DCL QLT$$                  PTR;
      600    19235
      601    19236
      602    19237    2      IF CDECL$ -> LX_REC_DECL.P.USAGE$~= ADDR(NIL) THEN

  19237 31 001127   000141 470400 0                  LDP0    @CDECL$
        31 001130   000000 471500                    LDP1    0,,PR0
        31 001131   100003 236100                    LDQ     3,,PR1
        31 001132   000000 116000 32                 CMPQ    0
        31 001133   001167 600000 31                 TZE     s:19282

      603    19238    3        DO;

      604    19239    3          ITEM$ = CDECL$ -> LX_REC_DECL.P.USAGE$;

  19239 31 001134   000143 756000 0                  STQ     ITEM$

      605    19240
      606    19241               %CONDITIONAL_ERROR (@LX_ITEM$ = ITEM$,
      607    19242                                  @ERROR#   = %E$ONLY_VALUE_ON_COND_NAME,
      608    19243                                  @LINE     = ITEM$ -> LX_ITEM.LINE,
      609    19244                                  @COLUMN   = ITEM$ -> LX_ITEM.COLUMN);

  19254 31 001135   000143 473400 0                  LDP3    ITEM$
        31 001136   300000 236100                    LDQ     0,,PR3
PL6.E3A0      #001=Z8DR$RECORD_DECL File=Z8DR.:Z8A6TSI                           SAT 08/09/97 11:18 Page:226
        31 001137   400000 316007                    CANQ    -131072,DL
        31 001140   001157 601000 31                 TNZ     s:19277

  19256 31 001141   000143 236000 0                  LDQ     ITEM$
        31 001142   000006 036003                    ADLQ    6,DU
        31 001143   000574 756000 0                  STQ     P$+3
        31 001144   000143 236000 0                  LDQ     ITEM$
        31 001145   000005 036003                    ADLQ    5,DU
        31 001146   000036 235000 32                 LDA     30
        31 001147   000572 757000 0                  STAQ    P$+1
        31 001150   000572 630400 0                  EPPR0   P$+1
        31 001151   000001 631400 32                 EPPR1   1
        31 001152   000000 701000 xent               TSX1    Z8AE$ERROR
        31 001153   000000 011000                    NOP     0

  19265 31 001154   000143 470400 0                  LDP0    ITEM$
        31 001155   400000 236007                    LDQ     -131072,DL
        31 001156   000000 256100                    ORSQ    0,,PR0

      610    19274
      611    19275               %DELETE_CLAUSE    (@CLAUSE$  = USAGE$);

  19277 31 001157   000141 470400 0                  LDP0    @CDECL$
        31 001160   000000 471500                    LDP1    0,,PR0
        31 001161   100003 633500                    EPPR3   3,,PR1
        31 001162   000572 453400 0                  STP3    P$+1
        31 001163   000572 630400 0                  EPPR0   P$+1
        31 001164   000005 631400 32                 EPPR1   5
        31 001165   000000 701000 xent               TSX1    Z8ED$DISPOSE_ABSSYN_TREE
        31 001166   000000 011000                    NOP     0

      612    19280    3        END;

      613    19281
      614    19282    2      IF CDECL$ -> LX_REC_DECL.P.PIC_CLAUSE$ ~= ADDR(NIL) THEN

  19282 31 001167   000141 470400 0                  LDP0    @CDECL$
PL6.E3A0      #001=Z8DR$RECORD_DECL File=Z8DR.:Z8A6TSI                           SAT 08/09/97 11:18 Page:227
        31 001170   000000 471500                    LDP1    0,,PR0
        31 001171   100004 236100                    LDQ     4,,PR1
        31 001172   000000 116000 32                 CMPQ    0
        31 001173   001227 600000 31                 TZE     s:19327

      615    19283    3        DO;

      616    19284    3          ITEM$ = CDECL$ -> LX_REC_DECL.P.PIC_CLAUSE$;

  19284 31 001174   000143 756000 0                  STQ     ITEM$

      617    19285
      618    19286               %CONDITIONAL_ERROR (@LX_ITEM$ = ITEM$,
      619    19287                                   @ERROR#   = %E$ONLY_VALUE_ON_COND_NAME,
      620    19288                                   @LINE     = ITEM$ -> LX_ITEM.LINE,
      621    19289                                   @COLUMN   = ITEM$ -> LX_ITEM.COLUMN);

  19299 31 001175   000143 473400 0                  LDP3    ITEM$
        31 001176   300000 236100                    LDQ     0,,PR3
        31 001177   400000 316007                    CANQ    -131072,DL
        31 001200   001217 601000 31                 TNZ     s:19322

  19301 31 001201   000143 236000 0                  LDQ     ITEM$
        31 001202   000006 036003                    ADLQ    6,DU
        31 001203   000574 756000 0                  STQ     P$+3
        31 001204   000143 236000 0                  LDQ     ITEM$
        31 001205   000005 036003                    ADLQ    5,DU
        31 001206   000036 235000 32                 LDA     30
        31 001207   000572 757000 0                  STAQ    P$+1
        31 001210   000572 630400 0                  EPPR0   P$+1
        31 001211   000001 631400 32                 EPPR1   1
        31 001212   000000 701000 xent               TSX1    Z8AE$ERROR
        31 001213   000000 011000                    NOP     0

  19310 31 001214   000143 470400 0                  LDP0    ITEM$
        31 001215   400000 236007                    LDQ     -131072,DL
        31 001216   000000 256100                    ORSQ    0,,PR0
PL6.E3A0      #001=Z8DR$RECORD_DECL File=Z8DR.:Z8A6TSI                           SAT 08/09/97 11:18 Page:228

      622    19319
      623    19320               %DELETE_CLAUSE     (@CLAUSE$  = PIC_CLAUSE$);

  19322 31 001217   000141 470400 0                  LDP0    @CDECL$
        31 001220   000000 471500                    LDP1    0,,PR0
        31 001221   100004 633500                    EPPR3   4,,PR1
        31 001222   000572 453400 0                  STP3    P$+1
        31 001223   000572 630400 0                  EPPR0   P$+1
        31 001224   000005 631400 32                 EPPR1   5
        31 001225   000000 701000 xent               TSX1    Z8ED$DISPOSE_ABSSYN_TREE
        31 001226   000000 011000                    NOP     0

      624    19325    3        END;

      625    19326
      626    19327    2      IF CDECL$ -> LX_REC_DECL.P.REDEFINES$ ~= ADDR(NIL) THEN

  19327 31 001227   000141 470400 0                  LDP0    @CDECL$
        31 001230   000000 471500                    LDP1    0,,PR0
        31 001231   100005 236100                    LDQ     5,,PR1
        31 001232   000000 116000 32                 CMPQ    0
        31 001233   001267 600000 31                 TZE     s:19372

      627    19328    3        DO;

      628    19329    3          ITEM$ = CDECL$ -> LX_REC_DECL.P.REDEFINES$;

  19329 31 001234   000143 756000 0                  STQ     ITEM$

      629    19330
      630    19331               %CONDITIONAL_ERROR (@LX_ITEM$ = ITEM$,
      631    19332                                   @ERROR#   = %E$ONLY_VALUE_ON_COND_NAME,
      632    19333                                   @LINE     = ITEM$ -> LX_ITEM.LINE,
      633    19334                                   @COLUMN   = ITEM$ -> LX_ITEM.COLUMN);

  19344 31 001235   000143 473400 0                  LDP3    ITEM$
PL6.E3A0      #001=Z8DR$RECORD_DECL File=Z8DR.:Z8A6TSI                           SAT 08/09/97 11:18 Page:229
        31 001236   300000 236100                    LDQ     0,,PR3
        31 001237   400000 316007                    CANQ    -131072,DL
        31 001240   001257 601000 31                 TNZ     s:19367

  19346 31 001241   000143 236000 0                  LDQ     ITEM$
        31 001242   000006 036003                    ADLQ    6,DU
        31 001243   000574 756000 0                  STQ     P$+3
        31 001244   000143 236000 0                  LDQ     ITEM$
        31 001245   000005 036003                    ADLQ    5,DU
        31 001246   000036 235000 32                 LDA     30
        31 001247   000572 757000 0                  STAQ    P$+1
        31 001250   000572 630400 0                  EPPR0   P$+1
        31 001251   000001 631400 32                 EPPR1   1
        31 001252   000000 701000 xent               TSX1    Z8AE$ERROR
        31 001253   000000 011000                    NOP     0

  19355 31 001254   000143 470400 0                  LDP0    ITEM$
        31 001255   400000 236007                    LDQ     -131072,DL
        31 001256   000000 256100                    ORSQ    0,,PR0

      634    19364
      635    19365               %DELETE_CLAUSE     (@CLAUSE$  = REDEFINES$);

  19367 31 001257   000141 470400 0                  LDP0    @CDECL$
        31 001260   000000 471500                    LDP1    0,,PR0
        31 001261   100005 633500                    EPPR3   5,,PR1
        31 001262   000572 453400 0                  STP3    P$+1
        31 001263   000572 630400 0                  EPPR0   P$+1
        31 001264   000005 631400 32                 EPPR1   5
        31 001265   000000 701000 xent               TSX1    Z8ED$DISPOSE_ABSSYN_TREE
        31 001266   000000 011000                    NOP     0

      636    19370    3        END;

      637    19371
      638    19372    2      IF CDECL$ -> LX_REC_DECL.P.RENAMES$ ~= ADDR(NIL) THEN

PL6.E3A0      #001=Z8DR$RECORD_DECL File=Z8DR.:Z8A6TSI                           SAT 08/09/97 11:18 Page:230
  19372 31 001267   000141 470400 0                  LDP0    @CDECL$
        31 001270   000000 471500                    LDP1    0,,PR0
        31 001271   100006 236100                    LDQ     6,,PR1
        31 001272   000000 116000 32                 CMPQ    0
        31 001273   001332 600000 31                 TZE     s:19418

      639    19373    3        DO;

      640    19374    3          ITEM$ = CDECL$ -> LX_REC_DECL.P.RENAMES$ ->

  19374 31 001274   100006 473500                    LDP3    6,,PR1
        31 001275   300004 474500                    LDP4    4,,PR3
        31 001276   400004 236100                    LDQ     4,,PR4
        31 001277   000143 756000 0                  STQ     ITEM$

      641    19375    3                  LX_LIST.HEAD$ -> LX_LIST.HEAD$;
      642    19376
      643    19377               %CONDITIONAL_ERROR (@LX_ITEM$ = ITEM$,
      644    19378                                   @ERROR#   = %E$ONLY_VALUE_ON_COND_NAME,
      645    19379                                   @LINE     = ITEM$ -> LX_ITEM.LINE,
      646    19380                                   @COLUMN   = ITEM$ -> LX_ITEM.COLUMN);

  19390 31 001300   000143 475400 0                  LDP5    ITEM$
        31 001301   500000 236100                    LDQ     0,,PR5
        31 001302   400000 316007                    CANQ    -131072,DL
        31 001303   001322 601000 31                 TNZ     s:19413

  19392 31 001304   000143 236000 0                  LDQ     ITEM$
        31 001305   000006 036003                    ADLQ    6,DU
        31 001306   000574 756000 0                  STQ     P$+3
        31 001307   000143 236000 0                  LDQ     ITEM$
        31 001310   000005 036003                    ADLQ    5,DU
        31 001311   000036 235000 32                 LDA     30
        31 001312   000572 757000 0                  STAQ    P$+1
        31 001313   000572 630400 0                  EPPR0   P$+1
        31 001314   000001 631400 32                 EPPR1   1
        31 001315   000000 701000 xent               TSX1    Z8AE$ERROR
PL6.E3A0      #001=Z8DR$RECORD_DECL File=Z8DR.:Z8A6TSI                           SAT 08/09/97 11:18 Page:231
        31 001316   000000 011000                    NOP     0

  19401 31 001317   000143 470400 0                  LDP0    ITEM$
        31 001320   400000 236007                    LDQ     -131072,DL
        31 001321   000000 256100                    ORSQ    0,,PR0

      647    19410
      648    19411               %DELETE_CLAUSE     (@CLAUSE$  = RENAMES$);

  19413 31 001322   000141 470400 0                  LDP0    @CDECL$
        31 001323   000000 471500                    LDP1    0,,PR0
        31 001324   100006 633500                    EPPR3   6,,PR1
        31 001325   000572 453400 0                  STP3    P$+1
        31 001326   000572 630400 0                  EPPR0   P$+1
        31 001327   000005 631400 32                 EPPR1   5
        31 001330   000000 701000 xent               TSX1    Z8ED$DISPOSE_ABSSYN_TREE
        31 001331   000000 011000                    NOP     0

      649    19416    3        END;

      650    19417
      651    19418    2      IF CDECL$ -> LX_REC_DECL.P.OCCURS$ ~= ADDR(NIL) THEN

  19418 31 001332   000141 470400 0                  LDP0    @CDECL$
        31 001333   000000 471500                    LDP1    0,,PR0
        31 001334   100007 236100                    LDQ     7,,PR1
        31 001335   000000 116000 32                 CMPQ    0
        31 001336   001375 600000 31                 TZE     s:19464

      652    19419    3        DO;

      653    19420    3          ITEM$ = CDECL$ -> LX_REC_DECL.P.OCCURS$ ->

  19420 31 001337   100007 473500                    LDP3    7,,PR1
        31 001340   300004 474500                    LDP4    4,,PR3
        31 001341   400004 236100                    LDQ     4,,PR4
        31 001342   000143 756000 0                  STQ     ITEM$
PL6.E3A0      #001=Z8DR$RECORD_DECL File=Z8DR.:Z8A6TSI                           SAT 08/09/97 11:18 Page:232

      654    19421    3                  LX_LIST.HEAD$ -> LX_LIST.HEAD$;
      655    19422
      656    19423               %CONDITIONAL_ERROR (@LX_ITEM$ = ITEM$,
      657    19424                                   @ERROR#   = %E$ONLY_VALUE_ON_COND_NAME,
      658    19425                                   @LINE     = ITEM$ -> LX_ITEM.LINE,
      659    19426                                   @COLUMN   = ITEM$ -> LX_ITEM.COLUMN);

  19436 31 001343   000143 475400 0                  LDP5    ITEM$
        31 001344   500000 236100                    LDQ     0,,PR5
        31 001345   400000 316007                    CANQ    -131072,DL
        31 001346   001365 601000 31                 TNZ     s:19459

  19438 31 001347   000143 236000 0                  LDQ     ITEM$
        31 001350   000006 036003                    ADLQ    6,DU
        31 001351   000574 756000 0                  STQ     P$+3
        31 001352   000143 236000 0                  LDQ     ITEM$
        31 001353   000005 036003                    ADLQ    5,DU
        31 001354   000036 235000 32                 LDA     30
        31 001355   000572 757000 0                  STAQ    P$+1
        31 001356   000572 630400 0                  EPPR0   P$+1
        31 001357   000001 631400 32                 EPPR1   1
        31 001360   000000 701000 xent               TSX1    Z8AE$ERROR
        31 001361   000000 011000                    NOP     0

  19447 31 001362   000143 470400 0                  LDP0    ITEM$
        31 001363   400000 236007                    LDQ     -131072,DL
        31 001364   000000 256100                    ORSQ    0,,PR0

      660    19456
      661    19457               %DELETE_CLAUSE     (@CLAUSE$  = OCCURS$);

  19459 31 001365   000141 470400 0                  LDP0    @CDECL$
        31 001366   000000 471500                    LDP1    0,,PR0
        31 001367   100007 633500                    EPPR3   7,,PR1
        31 001370   000572 453400 0                  STP3    P$+1
        31 001371   000572 630400 0                  EPPR0   P$+1
PL6.E3A0      #001=Z8DR$RECORD_DECL File=Z8DR.:Z8A6TSI                           SAT 08/09/97 11:18 Page:233
        31 001372   000005 631400 32                 EPPR1   5
        31 001373   000000 701000 xent               TSX1    Z8ED$DISPOSE_ABSSYN_TREE
        31 001374   000000 011000                    NOP     0

      662    19462    3        END;

      663    19463
      664    19464    2      IF CDECL$ -> LX_REC_DECL.P.SIGN$ ~= ADDR(NIL) THEN

  19464 31 001375   000141 470400 0                  LDP0    @CDECL$
        31 001376   000000 471500                    LDP1    0,,PR0
        31 001377   100011 236100                    LDQ     9,,PR1
        31 001400   000000 116000 32                 CMPQ    0
        31 001401   001437 600000 31                 TZE     s:19510

      665    19465    3        DO;

      666    19466    3          ITEM$ = CDECL$ -> LX_REC_DECL.P.SIGN$ ->

  19466 31 001402   100011 473500                    LDP3    9,,PR1
        31 001403   300004 236100                    LDQ     4,,PR3
        31 001404   000143 756000 0                  STQ     ITEM$

      667    19467    3                  LX_LIST.HEAD$;
      668    19468
      669    19469               %CONDITIONAL_ERROR (@LX_ITEM$ = ITEM$,
      670    19470                                   @ERROR#   = %E$ONLY_VALUE_ON_COND_NAME,
      671    19471                                   @LINE     = ITEM$ -> LX_ITEM.LINE,
      672    19472                                   @COLUMN   = ITEM$ -> LX_ITEM.COLUMN);

  19482 31 001405   000143 474400 0                  LDP4    ITEM$
        31 001406   400000 236100                    LDQ     0,,PR4
        31 001407   400000 316007                    CANQ    -131072,DL
        31 001410   001427 601000 31                 TNZ     s:19505

  19484 31 001411   000143 236000 0                  LDQ     ITEM$
        31 001412   000006 036003                    ADLQ    6,DU
PL6.E3A0      #001=Z8DR$RECORD_DECL File=Z8DR.:Z8A6TSI                           SAT 08/09/97 11:18 Page:234
        31 001413   000574 756000 0                  STQ     P$+3
        31 001414   000143 236000 0                  LDQ     ITEM$
        31 001415   000005 036003                    ADLQ    5,DU
        31 001416   000036 235000 32                 LDA     30
        31 001417   000572 757000 0                  STAQ    P$+1
        31 001420   000572 630400 0                  EPPR0   P$+1
        31 001421   000001 631400 32                 EPPR1   1
        31 001422   000000 701000 xent               TSX1    Z8AE$ERROR
        31 001423   000000 011000                    NOP     0

  19493 31 001424   000143 470400 0                  LDP0    ITEM$
        31 001425   400000 236007                    LDQ     -131072,DL
        31 001426   000000 256100                    ORSQ    0,,PR0

      673    19502
      674    19503               %DELETE_CLAUSE     (@CLAUSE$  = SIGN$);

  19505 31 001427   000141 470400 0                  LDP0    @CDECL$
        31 001430   000000 471500                    LDP1    0,,PR0
        31 001431   100011 633500                    EPPR3   9,,PR1
        31 001432   000572 453400 0                  STP3    P$+1
        31 001433   000572 630400 0                  EPPR0   P$+1
        31 001434   000005 631400 32                 EPPR1   5
        31 001435   000000 701000 xent               TSX1    Z8ED$DISPOSE_ABSSYN_TREE
        31 001436   000000 011000                    NOP     0

      675    19508    3        END;

      676    19509
      677    19510    2      IF CDECL$ -> LX_REC_DECL.P.BLANK$ ~= ADDR(NIL) THEN

  19510 31 001437   000141 470400 0                  LDP0    @CDECL$
        31 001440   000000 471500                    LDP1    0,,PR0
        31 001441   100012 236100                    LDQ     10,,PR1
        31 001442   000000 116000 32                 CMPQ    0
        31 001443   001477 600000 31                 TZE     s:19555

PL6.E3A0      #001=Z8DR$RECORD_DECL File=Z8DR.:Z8A6TSI                           SAT 08/09/97 11:18 Page:235
      678    19511    3        DO;

      679    19512    3          ITEM$ = CDECL$ -> LX_REC_DECL.P.BLANK$;

  19512 31 001444   000143 756000 0                  STQ     ITEM$

      680    19513
      681    19514               %CONDITIONAL_ERROR (@LX_ITEM$ = ITEM$,
      682    19515                                   @ERROR#   = %E$ONLY_VALUE_ON_COND_NAME,
      683    19516                                   @LINE     = ITEM$ -> LX_ITEM.LINE,
      684    19517                                   @COLUMN   = ITEM$ -> LX_ITEM.COLUMN);

  19527 31 001445   000143 473400 0                  LDP3    ITEM$
        31 001446   300000 236100                    LDQ     0,,PR3
        31 001447   400000 316007                    CANQ    -131072,DL
        31 001450   001467 601000 31                 TNZ     s:19550

  19529 31 001451   000143 236000 0                  LDQ     ITEM$
        31 001452   000006 036003                    ADLQ    6,DU
        31 001453   000574 756000 0                  STQ     P$+3
        31 001454   000143 236000 0                  LDQ     ITEM$
        31 001455   000005 036003                    ADLQ    5,DU
        31 001456   000036 235000 32                 LDA     30
        31 001457   000572 757000 0                  STAQ    P$+1
        31 001460   000572 630400 0                  EPPR0   P$+1
        31 001461   000001 631400 32                 EPPR1   1
        31 001462   000000 701000 xent               TSX1    Z8AE$ERROR
        31 001463   000000 011000                    NOP     0

  19538 31 001464   000143 470400 0                  LDP0    ITEM$
        31 001465   400000 236007                    LDQ     -131072,DL
        31 001466   000000 256100                    ORSQ    0,,PR0

      685    19547
      686    19548               %DELETE_CLAUSE     (@CLAUSE$  = BLANK$);

  19550 31 001467   000141 470400 0                  LDP0    @CDECL$
PL6.E3A0      #001=Z8DR$RECORD_DECL File=Z8DR.:Z8A6TSI                           SAT 08/09/97 11:18 Page:236
        31 001470   000000 471500                    LDP1    0,,PR0
        31 001471   100012 633500                    EPPR3   10,,PR1
        31 001472   000572 453400 0                  STP3    P$+1
        31 001473   000572 630400 0                  EPPR0   P$+1
        31 001474   000005 631400 32                 EPPR1   5
        31 001475   000000 701000 xent               TSX1    Z8ED$DISPOSE_ABSSYN_TREE
        31 001476   000000 011000                    NOP     0

      687    19553    3        END;

      688    19554
      689    19555    2      IF CDECL$ -> LX_REC_DECL.P.GLOBAL$ ~= ADDR(NIL) THEN

  19555 31 001477   000141 470400 0                  LDP0    @CDECL$
        31 001500   000000 471500                    LDP1    0,,PR0
        31 001501   100013 236100                    LDQ     11,,PR1
        31 001502   000000 116000 32                 CMPQ    0
        31 001503   001537 600000 31                 TZE     s:19600

      690    19556    3        DO;

      691    19557    3          ITEM$ = CDECL$ -> LX_REC_DECL.P.GLOBAL$;

  19557 31 001504   000143 756000 0                  STQ     ITEM$

      692    19558
      693    19559               %CONDITIONAL_ERROR (@LX_ITEM$ = ITEM$,
      694    19560                                   @ERROR#   = %E$ONLY_VALUE_ON_COND_NAME,
      695    19561                                   @LINE     = ITEM$ -> LX_ITEM.LINE,
      696    19562                                   @COLUMN   = ITEM$ -> LX_ITEM.COLUMN);

  19572 31 001505   000143 473400 0                  LDP3    ITEM$
        31 001506   300000 236100                    LDQ     0,,PR3
        31 001507   400000 316007                    CANQ    -131072,DL
        31 001510   001527 601000 31                 TNZ     s:19595

  19574 31 001511   000143 236000 0                  LDQ     ITEM$
PL6.E3A0      #001=Z8DR$RECORD_DECL File=Z8DR.:Z8A6TSI                           SAT 08/09/97 11:18 Page:237
        31 001512   000006 036003                    ADLQ    6,DU
        31 001513   000574 756000 0                  STQ     P$+3
        31 001514   000143 236000 0                  LDQ     ITEM$
        31 001515   000005 036003                    ADLQ    5,DU
        31 001516   000036 235000 32                 LDA     30
        31 001517   000572 757000 0                  STAQ    P$+1
        31 001520   000572 630400 0                  EPPR0   P$+1
        31 001521   000001 631400 32                 EPPR1   1
        31 001522   000000 701000 xent               TSX1    Z8AE$ERROR
        31 001523   000000 011000                    NOP     0

  19583 31 001524   000143 470400 0                  LDP0    ITEM$
        31 001525   400000 236007                    LDQ     -131072,DL
        31 001526   000000 256100                    ORSQ    0,,PR0

      697    19592
      698    19593               %DELETE_CLAUSE     (@CLAUSE$  = GLOBAL$);

  19595 31 001527   000141 470400 0                  LDP0    @CDECL$
        31 001530   000000 471500                    LDP1    0,,PR0
        31 001531   100013 633500                    EPPR3   11,,PR1
        31 001532   000572 453400 0                  STP3    P$+1
        31 001533   000572 630400 0                  EPPR0   P$+1
        31 001534   000005 631400 32                 EPPR1   5
        31 001535   000000 701000 xent               TSX1    Z8ED$DISPOSE_ABSSYN_TREE
        31 001536   000000 011000                    NOP     0

      699    19598    3        END;

      700    19599
      701    19600    2      IF CDECL$ -> LX_REC_DECL.P.SYNC$ ~= ADDR(NIL) THEN

  19600 31 001537   000141 470400 0                  LDP0    @CDECL$
        31 001540   000000 471500                    LDP1    0,,PR0
        31 001541   100014 236100                    LDQ     12,,PR1
        31 001542   000000 116000 32                 CMPQ    0
        31 001543   001577 600000 31                 TZE     s:19645
PL6.E3A0      #001=Z8DR$RECORD_DECL File=Z8DR.:Z8A6TSI                           SAT 08/09/97 11:18 Page:238

      702    19601    3        DO;

      703    19602    3          ITEM$ = CDECL$ -> LX_REC_DECL.P.SYNC$;

  19602 31 001544   000143 756000 0                  STQ     ITEM$

      704    19603
      705    19604               %CONDITIONAL_ERROR (@LX_ITEM$ = ITEM$,
      706    19605                                   @ERROR#   = %E$ONLY_VALUE_ON_COND_NAME,
      707    19606                                   @LINE     = ITEM$ -> LX_ITEM.LINE,
      708    19607                                   @COLUMN   = ITEM$ -> LX_ITEM.COLUMN);

  19617 31 001545   000143 473400 0                  LDP3    ITEM$
        31 001546   300000 236100                    LDQ     0,,PR3
        31 001547   400000 316007                    CANQ    -131072,DL
        31 001550   001567 601000 31                 TNZ     s:19640

  19619 31 001551   000143 236000 0                  LDQ     ITEM$
        31 001552   000006 036003                    ADLQ    6,DU
        31 001553   000574 756000 0                  STQ     P$+3
        31 001554   000143 236000 0                  LDQ     ITEM$
        31 001555   000005 036003                    ADLQ    5,DU
        31 001556   000036 235000 32                 LDA     30
        31 001557   000572 757000 0                  STAQ    P$+1
        31 001560   000572 630400 0                  EPPR0   P$+1
        31 001561   000001 631400 32                 EPPR1   1
        31 001562   000000 701000 xent               TSX1    Z8AE$ERROR
        31 001563   000000 011000                    NOP     0

  19628 31 001564   000143 470400 0                  LDP0    ITEM$
        31 001565   400000 236007                    LDQ     -131072,DL
        31 001566   000000 256100                    ORSQ    0,,PR0

      709    19637
      710    19638               %DELETE_CLAUSE     (@CLAUSE$  = SYNC$);

PL6.E3A0      #001=Z8DR$RECORD_DECL File=Z8DR.:Z8A6TSI                           SAT 08/09/97 11:18 Page:239
  19640 31 001567   000141 470400 0                  LDP0    @CDECL$
        31 001570   000000 471500                    LDP1    0,,PR0
        31 001571   100014 633500                    EPPR3   12,,PR1
        31 001572   000572 453400 0                  STP3    P$+1
        31 001573   000572 630400 0                  EPPR0   P$+1
        31 001574   000005 631400 32                 EPPR1   5
        31 001575   000000 701000 xent               TSX1    Z8ED$DISPOSE_ABSSYN_TREE
        31 001576   000000 011000                    NOP     0

      711    19643    3        END;

      712    19644
      713    19645    2      IF CDECL$ -> LX_REC_DECL.P.EXTERNAL$ ~= ADDR(NIL) THEN

  19645 31 001577   000141 470400 0                  LDP0    @CDECL$
        31 001600   000000 471500                    LDP1    0,,PR0
        31 001601   100015 236100                    LDQ     13,,PR1
        31 001602   000000 116000 32                 CMPQ    0
        31 001603   001637 600000 31                 TZE     s:19690

      714    19646    3        DO;

      715    19647    3          ITEM$ = CDECL$ -> LX_REC_DECL.P.EXTERNAL$;

  19647 31 001604   000143 756000 0                  STQ     ITEM$

      716    19648
      717    19649               %CONDITIONAL_ERROR (@LX_ITEM$ = ITEM$,
      718    19650                                   @ERROR#   = %E$ONLY_VALUE_ON_COND_NAME,
      719    19651                                   @LINE     = ITEM$ -> LX_ITEM.LINE,
      720    19652                                   @COLUMN   = ITEM$ -> LX_ITEM.COLUMN);

  19662 31 001605   000143 473400 0                  LDP3    ITEM$
        31 001606   300000 236100                    LDQ     0,,PR3
        31 001607   400000 316007                    CANQ    -131072,DL
        31 001610   001627 601000 31                 TNZ     s:19685

PL6.E3A0      #001=Z8DR$RECORD_DECL File=Z8DR.:Z8A6TSI                           SAT 08/09/97 11:18 Page:240
  19664 31 001611   000143 236000 0                  LDQ     ITEM$
        31 001612   000006 036003                    ADLQ    6,DU
        31 001613   000574 756000 0                  STQ     P$+3
        31 001614   000143 236000 0                  LDQ     ITEM$
        31 001615   000005 036003                    ADLQ    5,DU
        31 001616   000036 235000 32                 LDA     30
        31 001617   000572 757000 0                  STAQ    P$+1
        31 001620   000572 630400 0                  EPPR0   P$+1
        31 001621   000001 631400 32                 EPPR1   1
        31 001622   000000 701000 xent               TSX1    Z8AE$ERROR
        31 001623   000000 011000                    NOP     0

  19673 31 001624   000143 470400 0                  LDP0    ITEM$
        31 001625   400000 236007                    LDQ     -131072,DL
        31 001626   000000 256100                    ORSQ    0,,PR0

      721    19682
      722    19683               %DELETE_CLAUSE     (@CLAUSE$  = EXTERNAL$);

  19685 31 001627   000141 470400 0                  LDP0    @CDECL$
        31 001630   000000 471500                    LDP1    0,,PR0
        31 001631   100015 633500                    EPPR3   13,,PR1
        31 001632   000572 453400 0                  STP3    P$+1
        31 001633   000572 630400 0                  EPPR0   P$+1
        31 001634   000005 631400 32                 EPPR1   5
        31 001635   000000 701000 xent               TSX1    Z8ED$DISPOSE_ABSSYN_TREE
        31 001636   000000 011000                    NOP     0

      723    19688    3        END;

      724    19689
      725    19690    2      IF CDECL$ -> LX_REC_DECL.P.JUSTIFIED$ ~= ADDR(NIL) THEN

  19690 31 001637   000141 470400 0                  LDP0    @CDECL$
        31 001640   000000 471500                    LDP1    0,,PR0
        31 001641   100016 236100                    LDQ     14,,PR1
        31 001642   000000 116000 32                 CMPQ    0
PL6.E3A0      #001=Z8DR$RECORD_DECL File=Z8DR.:Z8A6TSI                           SAT 08/09/97 11:18 Page:241
        31 001643   001677 600000 31                 TZE     s:19735

      726    19691    3        DO;

      727    19692    3          ITEM$ = CDECL$ -> LX_REC_DECL.P.JUSTIFIED$;

  19692 31 001644   000143 756000 0                  STQ     ITEM$

      728    19693
      729    19694               %CONDITIONAL_ERROR (@LX_ITEM$ = ITEM$,
      730    19695                                   @ERROR#   = %E$ONLY_VALUE_ON_COND_NAME,
      731    19696                                   @LINE     = ITEM$ -> LX_ITEM.LINE,
      732    19697                                   @COLUMN   = ITEM$ -> LX_ITEM.COLUMN);

  19707 31 001645   000143 473400 0                  LDP3    ITEM$
        31 001646   300000 236100                    LDQ     0,,PR3
        31 001647   400000 316007                    CANQ    -131072,DL
        31 001650   001667 601000 31                 TNZ     s:19730

  19709 31 001651   000143 236000 0                  LDQ     ITEM$
        31 001652   000006 036003                    ADLQ    6,DU
        31 001653   000574 756000 0                  STQ     P$+3
        31 001654   000143 236000 0                  LDQ     ITEM$
        31 001655   000005 036003                    ADLQ    5,DU
        31 001656   000036 235000 32                 LDA     30
        31 001657   000572 757000 0                  STAQ    P$+1
        31 001660   000572 630400 0                  EPPR0   P$+1
        31 001661   000001 631400 32                 EPPR1   1
        31 001662   000000 701000 xent               TSX1    Z8AE$ERROR
        31 001663   000000 011000                    NOP     0

  19718 31 001664   000143 470400 0                  LDP0    ITEM$
        31 001665   400000 236007                    LDQ     -131072,DL
        31 001666   000000 256100                    ORSQ    0,,PR0

      733    19727
      734    19728               %DELETE_CLAUSE     (@CLAUSE$  = JUSTIFIED$);
PL6.E3A0      #001=Z8DR$RECORD_DECL File=Z8DR.:Z8A6TSI                           SAT 08/09/97 11:18 Page:242

  19730 31 001667   000141 470400 0                  LDP0    @CDECL$
        31 001670   000000 471500                    LDP1    0,,PR0
        31 001671   100016 633500                    EPPR3   14,,PR1
        31 001672   000572 453400 0                  STP3    P$+1
        31 001673   000572 630400 0                  EPPR0   P$+1
        31 001674   000005 631400 32                 EPPR1   5
        31 001675   000000 701000 xent               TSX1    Z8ED$DISPOSE_ABSSYN_TREE
        31 001676   000000 011000                    NOP     0

      735    19733    3        END;

      736    19734
      737    19735    2      IF CDECL$ -> LX_REC_DECL.P.INDEXED$ ~= ADDR(NIL) THEN

  19735 31 001677   000141 470400 0                  LDP0    @CDECL$
        31 001700   000000 471500                    LDP1    0,,PR0
        31 001701   100017 236100                    LDQ     15,,PR1
        31 001702   000000 116000 32                 CMPQ    0
        31 001703   001741 600000 31                 TZE     s:19780

      738    19736    3        DO;

      739    19737    3          ITEM$ = CDECL$ -> LX_REC_DECL.P.INDEXED$ -> LX_LIST.HEAD$;

  19737 31 001704   100017 473500                    LDP3    15,,PR1
        31 001705   300004 236100                    LDQ     4,,PR3
        31 001706   000143 756000 0                  STQ     ITEM$

      740    19738
      741    19739               %CONDITIONAL_ERROR (@LX_ITEM$ = ITEM$,
      742    19740                                   @ERROR#   = %E$ONLY_VALUE_ON_COND_NAME,
      743    19741                                   @LINE     = ITEM$ -> LX_ITEM.LINE,
      744    19742                                   @COLUMN   = ITEM$ -> LX_ITEM.COLUMN);

  19752 31 001707   000143 474400 0                  LDP4    ITEM$
        31 001710   400000 236100                    LDQ     0,,PR4
PL6.E3A0      #001=Z8DR$RECORD_DECL File=Z8DR.:Z8A6TSI                           SAT 08/09/97 11:18 Page:243
        31 001711   400000 316007                    CANQ    -131072,DL
        31 001712   001731 601000 31                 TNZ     s:19775

  19754 31 001713   000143 236000 0                  LDQ     ITEM$
        31 001714   000006 036003                    ADLQ    6,DU
        31 001715   000574 756000 0                  STQ     P$+3
        31 001716   000143 236000 0                  LDQ     ITEM$
        31 001717   000005 036003                    ADLQ    5,DU
        31 001720   000036 235000 32                 LDA     30
        31 001721   000572 757000 0                  STAQ    P$+1
        31 001722   000572 630400 0                  EPPR0   P$+1
        31 001723   000001 631400 32                 EPPR1   1
        31 001724   000000 701000 xent               TSX1    Z8AE$ERROR
        31 001725   000000 011000                    NOP     0

  19763 31 001726   000143 470400 0                  LDP0    ITEM$
        31 001727   400000 236007                    LDQ     -131072,DL
        31 001730   000000 256100                    ORSQ    0,,PR0

      745    19772
      746    19773               %DELETE_CLAUSE     (@CLAUSE$  = INDEXED$);

  19775 31 001731   000141 470400 0                  LDP0    @CDECL$
        31 001732   000000 471500                    LDP1    0,,PR0
        31 001733   100017 633500                    EPPR3   15,,PR1
        31 001734   000572 453400 0                  STP3    P$+1
        31 001735   000572 630400 0                  EPPR0   P$+1
        31 001736   000005 631400 32                 EPPR1   5
        31 001737   000000 701000 xent               TSX1    Z8ED$DISPOSE_ABSSYN_TREE
        31 001740   000000 011000                    NOP     0

      747    19778    3        END;

      748    19779
      749    19780    2      IF CDECL$ -> LX_REC_DECL.P.KEY$ ~= ADDR(NIL) THEN

  19780 31 001741   000141 470400 0                  LDP0    @CDECL$
PL6.E3A0      #001=Z8DR$RECORD_DECL File=Z8DR.:Z8A6TSI                           SAT 08/09/97 11:18 Page:244
        31 001742   000000 471500                    LDP1    0,,PR0
        31 001743   100020 236100                    LDQ     16,,PR1
        31 001744   000000 116000 32                 CMPQ    0
        31 001745   002003 600000 31                 TZE     s:19825

      750    19781    3        DO;

      751    19782    3          ITEM$ = CDECL$ -> LX_REC_DECL.P.KEY$ -> LX_LIST.HEAD$;

  19782 31 001746   100020 473500                    LDP3    16,,PR1
        31 001747   300004 236100                    LDQ     4,,PR3
        31 001750   000143 756000 0                  STQ     ITEM$

      752    19783
      753    19784               %CONDITIONAL_ERROR (@LX_ITEM$ = ITEM$,
      754    19785                                   @ERROR#   = %E$ONLY_VALUE_ON_COND_NAME,
      755    19786                                   @LINE     = ITEM$ -> LX_ITEM.LINE,
      756    19787                                   @COLUMN   = ITEM$ -> LX_ITEM.COLUMN);

  19797 31 001751   000143 474400 0                  LDP4    ITEM$
        31 001752   400000 236100                    LDQ     0,,PR4
        31 001753   400000 316007                    CANQ    -131072,DL
        31 001754   001773 601000 31                 TNZ     s:19820

  19799 31 001755   000143 236000 0                  LDQ     ITEM$
        31 001756   000006 036003                    ADLQ    6,DU
        31 001757   000574 756000 0                  STQ     P$+3
        31 001760   000143 236000 0                  LDQ     ITEM$
        31 001761   000005 036003                    ADLQ    5,DU
        31 001762   000036 235000 32                 LDA     30
        31 001763   000572 757000 0                  STAQ    P$+1
        31 001764   000572 630400 0                  EPPR0   P$+1
        31 001765   000001 631400 32                 EPPR1   1
        31 001766   000000 701000 xent               TSX1    Z8AE$ERROR
        31 001767   000000 011000                    NOP     0

  19808 31 001770   000143 470400 0                  LDP0    ITEM$
PL6.E3A0      #001=Z8DR$RECORD_DECL File=Z8DR.:Z8A6TSI                           SAT 08/09/97 11:18 Page:245
        31 001771   400000 236007                    LDQ     -131072,DL
        31 001772   000000 256100                    ORSQ    0,,PR0

      757    19817
      758    19818               %DELETE_CLAUSE     (@CLAUSE$  = KEY$);

  19820 31 001773   000141 470400 0                  LDP0    @CDECL$
        31 001774   000000 471500                    LDP1    0,,PR0
        31 001775   100020 633500                    EPPR3   16,,PR1
        31 001776   000572 453400 0                  STP3    P$+1
        31 001777   000572 630400 0                  EPPR0   P$+1
        31 002000   000005 631400 32                 EPPR1   5
        31 002001   000000 701000 xent               TSX1    Z8ED$DISPOSE_ABSSYN_TREE
        31 002002   000000 011000                    NOP     0

      759    19823    3        END;

      760    19824
      761    19825    2        QLT$$ = HIER_STK.QLT$(HIER_STK_PTR);

  19825 31 002003   000000 236000 xsym               LDQ     HIER_STK_PTR
        31 002004   000005 402007                    MPY     5,DL
        31 002005   000000 236006 xsym               LDQ     HIER_STK,QL
        31 002006   000144 756000 0                  STQ     QLT$$

      762    19826
      763    19827    2        IF QLT$$ -> QLT.B.RENAMES OR

  19827 31 002007   000144 470400 0                  LDP0    QLT$$
        31 002010   000000 236100                    LDQ     0,,PR0
        31 002011   040000 316007                    CANQ    16384,DL
        31 002012   002023 601000 31                 TNZ     s:19832
        31 002013   000004 471500                    LDP1    4,,PR0
        31 002014   100002 220100                    LDX0    2,,PR1
        31 002015   000022 100003                    CMPX0   18,DU
        31 002016   002023 600000 31                 TZE     s:19832
        31 002017   000011 100003                    CMPX0   9,DU
PL6.E3A0      #001=Z8DR$RECORD_DECL File=Z8DR.:Z8A6TSI                           SAT 08/09/97 11:18 Page:246
        31 002020   002023 600000 31                 TZE     s:19832
        31 002021   000012 100003                    CMPX0   10,DU
        31 002022   002051 601000 31                 TNZ     s:19868

      764    19828    2          QLT$$ -> QLT.ST$ -> VARIABLE.TYPE = %TYP  OR
      765    19829    2          QLT$$ -> QLT.ST$ -> VARIABLE.TYPE = %TYX  OR
      766    19830    2          QLT$$ -> QLT.ST$ -> VARIABLE.TYPE = %TYY  THEN
      767    19831    3          DO;

      768    19832    3            ITEM$ = CDECL$ -> LX_REC_DECL.P.LEVEL_NO$;

  19832 31 002023   000141 471400 0                  LDP1    @CDECL$
        31 002024   100000 473500                    LDP3    0,,PR1
        31 002025   300001 236100                    LDQ     1,,PR3
        31 002026   000143 756000 0                  STQ     ITEM$

      769    19833
      770    19834                 %CONDITIONAL_ERROR (@LX_ITEM$ = ITEM$,
      771    19835                                     @ERROR#   = %E$MISPOSITION_OF_88,
      772    19836                                     @LINE     = ITEM$ -> LX_ITEM.LINE,
      773    19837                                     @COLUMN   = ITEM$ -> LX_ITEM.COLUMN);

  19847 31 002027   000143 474400 0                  LDP4    ITEM$
        31 002030   400000 236100                    LDQ     0,,PR4
        31 002031   400000 316007                    CANQ    -131072,DL
        31 002032   002051 601000 31                 TNZ     s:19868

  19849 31 002033   000143 236000 0                  LDQ     ITEM$
        31 002034   000006 036003                    ADLQ    6,DU
        31 002035   000574 756000 0                  STQ     P$+3
        31 002036   000143 236000 0                  LDQ     ITEM$
        31 002037   000005 036003                    ADLQ    5,DU
        31 002040   000040 235000 32                 LDA     32
        31 002041   000572 757000 0                  STAQ    P$+1
        31 002042   000572 630400 0                  EPPR0   P$+1
        31 002043   000001 631400 32                 EPPR1   1
        31 002044   000000 701000 xent               TSX1    Z8AE$ERROR
PL6.E3A0      #001=Z8DR$RECORD_DECL File=Z8DR.:Z8A6TSI                           SAT 08/09/97 11:18 Page:247
        31 002045   000000 011000                    NOP     0

  19858 31 002046   000143 470400 0                  LDP0    ITEM$
        31 002047   400000 236007                    LDQ     -131072,DL
        31 002050   000000 256100                    ORSQ    0,,PR0

      774    19867    3          END;

      775    19868    2      RETURN;

  19868 31 002051   000140 221200 0                  LDX1  ! BRO$+1
        31 002052   000001 702211                    TSX2  ! 1,X1

      776    19869
      777    19870    2   END VERIFY_88;
      778    19871        %EJECT;
PL6.E3A0      #001=Z8DR$RECORD_DECL File=Z8DR.:Z8A6TSI                           SAT 08/09/97 11:18 Page:248
      779    19872        /*==========*/
      780    19873    1     PROCESS_88: PROC (CDECL$, REDUCED_DATA, NEW_COND$);

  19873 31 002053   000145 741200 0     PROCESS_88   STX1  ! QLT$$+1

      781    19874        /*==========*/
      782    19875
      783    19876    2      DCL CDECL$                 PTR;
      784    19877    2   DCL NEW_COND$                 PTR;
      785    19878    2      DCL 1 REDUCED_DATA         ALIGNED,
      786    19879                %REDUCED_DATA_INFO;
      787    19962
      788    19963    2      DCL LINE#                  SBIN WORD;
      789    19964    2      DCL DN$                    PTR;
      790    19965    2      DCL NEW_QLT$               PTR;
      791    19966    2      DCL ST$$                   PTR;
      792    19967
      793    19968    2      DN$ = CDECL$ -> LX_REC_DECL.P.DATA_NAME$ -> LX_ITEM.DNT$;

  19968 31 002054   000146 470400 0                  LDP0    @CDECL$
        31 002055   000000 471500                    LDP1    0,,PR0
        31 002056   100002 473500                    LDP3    2,,PR1
        31 002057   300002 236100                    LDQ     2,,PR3
        31 002060   000152 756000 0                  STQ     DN$

      794    19969    2      LINE# = CDECL$ -> LX_REC_DECL.P.DATA_NAME$ -> LX_ITEM.LINE;

  19969 31 002061   300005 235100                    LDA     5,,PR3
        31 002062   000151 755000 0                  STA     LINE#

      795    19970
      796    19971    2      ST$$ = HIER_STK.QLT$(HIER_STK_PTR) -> QLT.ST$;

  19971 31 002063   000000 236000 xsym               LDQ     HIER_STK_PTR
        31 002064   000005 402007                    MPY     5,DL
        31 002065   000000 474406 xsym               LDP4    HIER_STK,QL
        31 002066   400004 236100                    LDQ     4,,PR4
PL6.E3A0      #001=Z8DR$RECORD_DECL File=Z8DR.:Z8A6TSI                           SAT 08/09/97 11:18 Page:249
        31 002067   000154 756000 0                  STQ     ST$$

      797    19972
      798    19973           %NEW_CONDITION      (@ST$         = NEW_COND$,
      799    19974                                @NEXT_COND$  = O1COM.CONDITION$,
      800    19975                                @LINE_NO     = LINE#,
      801    19976                                @NEXT        = DN$ -> DNT.ST$,
      802    19977                                @VALUE_LIST$ = CDECL$ -> LX_REC_DECL.P.VALUE$,
      803    19978                                @DNT$        = DN$,
      804    19979                                @ASSOC_VAR$  = "HIER_STK.QLT$(HIER_STK_PTR) -> QLT.ST$",
      805    19980                                @EXTERNAL    = ST$$ -> SCALAR.B.EXTERNAL,
      806    19981                                @LINKAGE     = ST$$ -> SCALAR.B.LINKAGE,
      807    19982                                @GLOBAL      = ST$$ -> SCALAR.B.GLOBAL);

  19989 31 002070   000002 236000 3                  LDQ     ST_+2
        31 002071   000013 036007                    ADLQ    11,DL
        31 002072   000003 116000 3                  CMPQ    ST_+3
        31 002073   002104 604000 31                 TMI     s:19991

  19990 31 002074   000041 236000 32                 LDQ     33
        31 002075   000572 756000 0                  STQ     P$+1
        31 002076   000572 631400 0                  EPPR1   P$+1
        31 002077   000573 451400 0                  STP1    P$+2
        31 002100   000573 630400 0                  EPPR0   P$+2
        31 002101   000005 631400 32                 EPPR1   5
        31 002102   000000 701000 xent               TSX1    Z8AR$RESERVER
        31 002103   000000 011000                    NOP     0

  19991 31 002104   000002 236000 3                  LDQ     ST_+2
        31 002105   000022 736000                    QLS     18
        31 002106   000001 036000 3                  ADLQ    ST_+1
        31 002107   000150 470400 0                  LDP0    @NEW_COND$
        31 002110   000000 756100                    STQ     0,,PR0

  19992 31 002111   000013 236007                    LDQ     11,DL
        31 002112   000002 056000 3                  ASQ     ST_+2

PL6.E3A0      #001=Z8DR$RECORD_DECL File=Z8DR.:Z8A6TSI                           SAT 08/09/97 11:18 Page:250
  19995 31 002113   000000 471500                    LDP1    0,,PR0
        31 002114   000764 220003                    LDX0    500,DU
        31 002115   100000 740100                    STX0    0,,PR1

  19996 31 002116   000000 471500                    LDP1    0,,PR0
        31 002117   003000 236007                    LDQ     1536,DL
        31 002120   100000 552110                    STBQ    0,'10'O,PR1

  19997 31 002121   000000 471500                    LDP1    0,,PR0
        31 002122   000001 236007                    LDQ     1,DL
        31 002123   100000 552104                    STBQ    0,'04'O,PR1

  19998 31 002124   000000 471500                    LDP1    0,,PR0
        31 002125   000027 236000 xsym               LDQ     O1COM+23
        31 002126   100001 756100                    STQ     1,,PR1

  19999 31 002127   000000 471500                    LDP1    0,,PR0
        31 002130   000020 221003                    LDX1    16,DU
        31 002131   100002 741100                    STX1    2,,PR1

  20000 31 002132   000000 471500                    LDP1    0,,PR0
        31 002133   000151 722000 0                  LXL2    LINE#
        31 002134   100002 442100                    SXL2    2,,PR1

  20001 31 002135   000000 471500                    LDP1    0,,PR0
        31 002136   100003 450100                    STZ     3,,PR1

  20002 31 002137   000000 471500                    LDP1    0,,PR0
        31 002140   000152 473400 0                  LDP3    DN$
        31 002141   300001 236100                    LDQ     1,,PR3
        31 002142   100004 756100                    STQ     4,,PR1

  20003 31 002143   000000 471500                    LDP1    0,,PR0
        31 002144   000146 474400 0                  LDP4    @CDECL$
        31 002145   400000 475500                    LDP5    0,,PR4
        31 002146   500010 236100                    LDQ     8,,PR5
        31 002147   100005 756100                    STQ     5,,PR1
PL6.E3A0      #001=Z8DR$RECORD_DECL File=Z8DR.:Z8A6TSI                           SAT 08/09/97 11:18 Page:251

  20004 31 002150   000000 471500                    LDP1    0,,PR0
        31 002151   000152 236000 0                  LDQ     DN$
        31 002152   100006 756100                    STQ     6,,PR1

  20005 31 002153   000000 471500                    LDP1    0,,PR0
        31 002154   000000 236000 4                  LDQ     QLT$
        31 002155   100007 756100                    STQ     7,,PR1

  20006 31 002156   000000 471500                    LDP1    0,,PR0
        31 002157   000000 236000 xsym               LDQ     HIER_STK_PTR
        31 002160   000005 402007                    MPY     5,DL
        31 002161   000000 475406 xsym               LDP5    HIER_STK,QL
        31 002162   500004 236100                    LDQ     4,,PR5
        31 002163   100010 756100                    STQ     8,,PR1

  20010 31 002164   000000 471500                    LDP1    0,,PR0
        31 002165   000000 236000 32                 LDQ     0
        31 002166   100012 756100                    STQ     10,,PR1

  20013 31 002167   000000 471500                    LDP1    0,,PR0
        31 002170   000057 236000 xsym               LDQ     O1COM+47
        31 002171   100011 756100                    STQ     9,,PR1

  20014 31 002172   000057 236000 xsym               LDQ     O1COM+47
        31 002173   000000 116000 32                 CMPQ    0
        31 002174   002220 600000 31                 TZE     s:20049

  20018 31 002175   000057 471400 xsym               LDP1    O1COM+47
        31 002176   100001 475500                    LDP5    1,,PR1
        31 002177   500012 236100                    LDQ     10,,PR5
        31 002200   000000 116000 32                 CMPQ    0
        31 002201   002211 601000 31                 TNZ     s:20025

  20020 31 002202   000000 236100                    LDQ     0,,PR0
        31 002203   500011 756100                    STQ     9,,PR5

PL6.E3A0      #001=Z8DR$RECORD_DECL File=Z8DR.:Z8A6TSI                           SAT 08/09/97 11:18 Page:252
  20021 31 002204   000057 471400 xsym               LDP1    O1COM+47
        31 002205   100001 475500                    LDP5    1,,PR1
        31 002206   000000 236100                    LDQ     0,,PR0
        31 002207   500012 756100                    STQ     10,,PR5

  20022 31 002210   002220 710000 31                 TRA     s:20049

  20025 31 002211   500012 476500                    LDP6    10,,PR5
        31 002212   000000 236100                    LDQ     0,,PR0
        31 002213   600012 756100                    STQ     10,,PR6

  20026 31 002214   000057 471400 xsym               LDP1    O1COM+47
        31 002215   100001 475500                    LDP5    1,,PR1
        31 002216   000000 236100                    LDQ     0,,PR0
        31 002217   500012 756100                    STQ     10,,PR5

  20049 31 002220   000000 471500                    LDP1    0,,PR0
        31 002221   000154 475400 0                  LDP5    ST$$
        31 002222   500003 236100                    LDQ     3,,PR5
        31 002223   000020 736000                    QLS     16
        31 002224   100003 676100                    ERQ     3,,PR1
        31 002225   400000 376003                    ANQ     -131072,DU
        31 002226   100003 656100                    ERSQ    3,,PR1

  20052 31 002227   000000 471500                    LDP1    0,,PR0
        31 002230   500003 236100                    LDQ     3,,PR5
        31 002231   000014 736000                    QLS     12
        31 002232   100003 676100                    ERQ     3,,PR1
        31 002233   100000 376003                    ANQ     32768,DU
        31 002234   100003 656100                    ERSQ    3,,PR1

  20055 31 002235   000000 471500                    LDP1    0,,PR0
        31 002236   500003 236100                    LDQ     3,,PR5
        31 002237   000016 736000                    QLS     14
        31 002240   100003 676100                    ERQ     3,,PR1
        31 002241   200000 376003                    ANQ     65536,DU
        31 002242   100003 656100                    ERSQ    3,,PR1
PL6.E3A0      #001=Z8DR$RECORD_DECL File=Z8DR.:Z8A6TSI                           SAT 08/09/97 11:18 Page:253

      808    20059
      809    20060    2      CDECL$ -> LX_REC_DECL.P.VALUE$ = ADDR(NIL);

  20060 31 002243   400000 471500                    LDP1    0,,PR4
        31 002244   000000 236000 32                 LDQ     0
        31 002245   100010 756100                    STQ     8,,PR1

      810    20061    2      O1COM.CONDITION$                      = NEW_COND$;

  20061 31 002246   000000 236100                    LDQ     0,,PR0
        31 002247   000027 756000 xsym               STQ     O1COM+23

      811    20062    2      IF NOT DN$ -> DNT.B.RW THEN

  20062 31 002250   300003 234100                    SZN     3,,PR3
        31 002251   002254 604000 31                 TMI     s:20069

      812    20063    2      DN$ -> DNT.ST$                        = NEW_COND$;

  20063 31 002252   000000 236100                    LDQ     0,,PR0
        31 002253   300001 756100                    STQ     1,,PR3

      813    20064
      814    20065           %ADD_XREF (SYM    = NEW_COND$,
      815    20066                      ISN    = LINE#,
      816    20067                      TYPE   = %XREF_DCL);

  20069 31 002254   000055 234000 xsym               SZN     COMCOM+45
        31 002255   002313 605000 31                 TPL     s:20095

  20073 31 002256   000002 236000 20                 LDQ     XREF_+2
        31 002257   000002 036007                    ADLQ    2,DL
        31 002260   000003 116000 20                 CMPQ    XREF_+3
        31 002261   002272 602000 31                 TNC     s:20075

  20074 31 002262   000042 236000 32                 LDQ     34
PL6.E3A0      #001=Z8DR$RECORD_DECL File=Z8DR.:Z8A6TSI                           SAT 08/09/97 11:18 Page:254
        31 002263   000572 756000 0                  STQ     P$+1
        31 002264   000572 631400 0                  EPPR1   P$+1
        31 002265   000573 451400 0                  STP1    P$+2
        31 002266   000573 630400 0                  EPPR0   P$+2
        31 002267   000005 631400 32                 EPPR1   5
        31 002270   000000 701000 xent               TSX1    Z8AR$RESERVER
        31 002271   000000 011000                    NOP     0

  20075 31 002272   000002 236000 20                 LDQ     XREF_+2
        31 002273   000022 736000                    QLS     18
        31 002274   000001 036000 20                 ADLQ    XREF_+1
        31 002275   000000 756000 19                 STQ     XREF$

  20076 31 002276   000002 235000 20                 LDA     XREF_+2
        31 002277   000002 035007                    ADLA    2,DL
        31 002300   000002 755000 20                 STA     XREF_+2

  20077 31 002301   000004 220003                    LDX0    4,DU
        31 002302   000000 470400 19                 LDP0    XREF$
        31 002303   000000 740100                    STX0    0,,PR0

  20080 31 002304   000151 721000 0                  LXL1    LINE#
        31 002305   000000 470400 19                 LDP0    XREF$
        31 002306   000000 441100                    SXL1    0,,PR0

  20081 31 002307   000150 470400 0                  LDP0    @NEW_COND$
        31 002310   000000 236100                    LDQ     0,,PR0
        31 002311   000000 471400 19                 LDP1    XREF$
        31 002312   100001 756100                    STQ     1,,PR1

      817    20085
      818    20086           %NEW_QLT (@POINTER = NEW_QLT$,
      819    20087                     @ST$     = NEW_COND$,
      820    20088                     @DNT$    = DN$,
      821    20089                     @FATHER  = "HIER_STK.QLT$(HIER_STK_PTR)",
      822    20090                     @LEVEL#  = %LEVEL_88);

PL6.E3A0      #001=Z8DR$RECORD_DECL File=Z8DR.:Z8A6TSI                           SAT 08/09/97 11:18 Page:255
  20095 31 002313   000002 236000 6                  LDQ     QLT_+2
        31 002314   000006 036007                    ADLQ    6,DL
        31 002315   000003 116000 6                  CMPQ    QLT_+3
        31 002316   002327 602000 31                 TNC     s:20097

  20096 31 002317   000043 236000 32                 LDQ     35
        31 002320   000572 756000 0                  STQ     P$+1
        31 002321   000572 631400 0                  EPPR1   P$+1
        31 002322   000573 451400 0                  STP1    P$+2
        31 002323   000573 630400 0                  EPPR0   P$+2
        31 002324   000005 631400 32                 EPPR1   5
        31 002325   000000 701000 xent               TSX1    Z8AR$RESERVER
        31 002326   000000 011000                    NOP     0

  20097 31 002327   000002 236000 6                  LDQ     QLT_+2
        31 002330   000022 736000                    QLS     18
        31 002331   000001 036000 6                  ADLQ    QLT_+1
        31 002332   000153 756000 0                  STQ     NEW_QLT$

  20098 31 002333   000002 235000 6                  LDA     QLT_+2
        31 002334   000006 035007                    ADLA    6,DL
        31 002335   000002 755000 6                  STA     QLT_+2

  20099 31 002336   001053 220003                    LDX0    555,DU
        31 002337   000153 470400 0                  LDP0    NEW_QLT$
        31 002340   000000 740100                    STX0    0,,PR0

  20102 31 002341   000000 236000 xsym               LDQ     HIER_STK_PTR
        31 002342   000005 402007                    MPY     5,DL
        31 002343   000000 236006 xsym               LDQ     HIER_STK,QL
        31 002344   000153 470400 0                  LDP0    NEW_QLT$
        31 002345   000001 756100                    STQ     1,,PR0

  20103 31 002346   000000 236000 32                 LDQ     0
        31 002347   000153 470400 0                  LDP0    NEW_QLT$
        31 002350   000002 756100                    STQ     2,,PR0

PL6.E3A0      #001=Z8DR$RECORD_DECL File=Z8DR.:Z8A6TSI                           SAT 08/09/97 11:18 Page:256
  20104 31 002351   000153 470400 0                  LDP0    NEW_QLT$
        31 002352   000003 756100                    STQ     3,,PR0

  20105 31 002353   000150 470400 0                  LDP0    @NEW_COND$
        31 002354   000000 236100                    LDQ     0,,PR0
        31 002355   000153 471400 0                  LDP1    NEW_QLT$
        31 002356   100004 756100                    STQ     4,,PR1

  20106 31 002357   000152 236000 0                  LDQ     DN$
        31 002360   000153 471400 0                  LDP1    NEW_QLT$
        31 002361   100005 756100                    STQ     5,,PR1

  20107 31 002362   000153 471400 0                  LDP1    NEW_QLT$
        31 002363   000130 236007                    LDQ     88,DL
        31 002364   100000 552104                    STBQ    0,'04'O,PR1

  20108 31 002365   000153 471400 0                  LDP1    NEW_QLT$
        31 002366   000000 236003                    LDQ     0,DU
        31 002367   100000 552110                    STBQ    0,'10'O,PR1

  20109 31 002370   000153 471400 0                  LDP1    NEW_QLT$
        31 002371   000044 236000 32                 LDQ     36
        31 002372   100000 356100                    ANSQ    0,,PR1

  20110 31 002373   000153 471400 0                  LDP1    NEW_QLT$
        31 002374   000045 236000 32                 LDQ     37
        31 002375   100000 356100                    ANSQ    0,,PR1

  20111 31 002376   000153 471400 0                  LDP1    NEW_QLT$
        31 002377   000046 236000 32                 LDQ     38
        31 002400   100000 356100                    ANSQ    0,,PR1

  20112 31 002401   000153 471400 0                  LDP1    NEW_QLT$
        31 002402   000047 236000 32                 LDQ     39
        31 002403   100000 356100                    ANSQ    0,,PR1

      823    20115
PL6.E3A0      #001=Z8DR$RECORD_DECL File=Z8DR.:Z8A6TSI                           SAT 08/09/97 11:18 Page:257
      824    20116    2      NEW_COND$ -> CONDITION.QLT$ = NEW_QLT$;

  20116 31 002404   000000 471500                    LDP1    0,,PR0
        31 002405   000153 236000 0                  LDQ     NEW_QLT$
        31 002406   100007 756100                    STQ     7,,PR1

      825    20117
      826    20118    2      IF HIER_STK.QLT$(HIER_STK_PTR) -> QLT.SON ~= ADDR(NIL) AND

  20118 31 002407   000000 236000 xsym               LDQ     HIER_STK_PTR
        31 002410   000005 402007                    MPY     5,DL
        31 002411   000000 471406 xsym               LDP1    HIER_STK,QL
        31 002412   100003 236100                    LDQ     3,,PR1
        31 002413   000000 116000 32                 CMPQ    0
        31 002414   002426 600000 31                 TZE     s:20123
        31 002415   000000 236000 xsym               LDQ     HIER_STK_PTR
        31 002416   000005 402007                    MPY     5,DL
        31 002417   000000 471406 xsym               LDP1    HIER_STK,QL
        31 002420   100003 473500                    LDP3    3,,PR1
        31 002421   300000 221100                    LDX1    0,,PR3
        31 002422   001053 101003                    CMPX1   555,DU
        31 002423   002426 600000 31                 TZE     s:20123

      827    20119    2         HIER_STK.QLT$(HIER_STK_PTR) -> QLT.SON -> QLT.ID ~= %QUAL THEN
      828    20120            /* Something wrong here but is or will be cought somewhere else */
      829    20121    2          RETURN;

  20121 31 002424   000145 221200 0                  LDX1  ! QLT$$+1
        31 002425   000001 702211                    TSX2  ! 1,X1

      830    20122
      831    20123    2      CALL LINK_WITH_LAST_BROTHER (NEW_QLT$,

  20123 31 002426   000000 236000 xsym               LDQ     HIER_STK_PTR
        31 002427   000005 402007                    MPY     5,DL
        31 002430   000000 471406 xsym               LDP1    HIER_STK,QL
        31 002431   100003 633500                    EPPR3   3,,PR1
PL6.E3A0      #001=Z8DR$RECORD_DECL File=Z8DR.:Z8A6TSI                           SAT 08/09/97 11:18 Page:258
        31 002432   000136 453400 0                  STP3    @BRO_QLT$
        31 002433   000050 236000 32                 LDQ     40
        31 002434   000135 756000 0                  STQ     @QLT$$
        31 002435   001077 701000 31                 TSX1    LINK_WITH_LAST_BROTHER
        31 002436   000000 011000                    NOP     0

      832    20124    2                                   HIER_STK.QLT$(HIER_STK_PTR) -> QLT.SON);
      833    20125    2   END PROCESS_88;

  20125 31 002437   000145 221200 0                  LDX1  ! QLT$$+1
        31 002440   000001 702211                    TSX2  ! 1,X1

      834    20126        %EJECT;
PL6.E3A0      #001=Z8DR$RECORD_DECL File=Z8DR.:Z8A6TSI                           SAT 08/09/97 11:18 Page:259
      835    20127        /*================*/
      836    20128    1     DATA_DECLARATION: PROC (PASSED_CDECL$, PASSED_NDECL$);

  20128 31 002441   000155 741200 0     DATA_DECLAR* STX1  ! ST$$+1
        31 002442   025126 710000 31                 TRA     s:30369

      837    20129        /*================*/
      838    20130
      839    20131
      840    20132    2      DCL PASSED_CDECL$   PTR;
      841    20133    2      DCL PASSED_NDECL$   PTR;
      842    20134    2      DCL CDECL$          PTR;
      843    20135    2      DCL NDECL$          PTR;
      844    20136
      845    20137
      846    20138        %EJECT;
PL6.E3A0      #001=Z8DR$RECORD_DECL File=Z8DR.:Z8A6TSI                           SAT 08/09/97 11:18 Page:260
      847    20139        /*****************************************************************
      848    20140         *                                                               *
      849    20141         *                     DATA_REDUCTION                       *
      850    20142         *                                                               *
      851    20143         *                     *******************                       *
      852    20144         *                                                               *
      853    20145         *****************************************************************/
      854    20146        %EJECT;
PL6.E3A0      #001=Z8DR$RECORD_DECL File=Z8DR.:Z8A6TSI                           SAT 08/09/97 11:18 Page:261
      855    20147    2   DATA_REDUCTION: PROC;

  20147 31 002443   000162 741200 0     DATA_REDUCT* STX1  ! NDECL$+1
        31 002444   004236 710000 31                 TRA     s:20549

      856    20148
      857    20149
      858    20150        %EJECT;
PL6.E3A0      #001=Z8DR$RECORD_DECL File=Z8DR.:Z8A6TSI                           SAT 08/09/97 11:18 Page:262
      859    20151
      860    20152        /* Internal Procs */
      861    20153
      862    20154
      863    20155        /*=============*/
      864    20156    3     EXTRACT_USAGE: PROC;

  20156 31 002445   000163 741200 0     EXTRACT_USA* STX1  ! NDECL$+2

      865    20157        /*=============*/
      866    20158
      867    20159
      868    20160
      869    20161    4      IF CDECL$ -> LX_REC_DECL.P.USAGE$ = ADDR(NIL) THEN

  20161 31 002446   000160 470400 0                  LDP0    CDECL$
        31 002447   000003 236100                    LDQ     3,,PR0
        31 002450   000000 116000 32                 CMPQ    0
        31 002451   002463 601000 31                 TNZ     s:20177

      870    20162    5        DO;

      871    20163
      872    20164    5          IF REDUCED_DATA.LEVEL.CURRENT <= GROUP.USAGE.LEVEL THEN

  20164 31 002452   000034 236000 0                  LDQ     REDUCED_DATA+1
        31 002453   000001 116000 29                 CMPQ    GROUP+1
        31 002454   002460 605400 31                 TPNZ    s:20173

      873    20165                 %UPDATE_GROUP_USAGE (@USAGE = %NO_USAGE,
      874    20166                                          @LEVEL = REDUCED_DATA.LEVEL.CURRENT);

  20168 31 002455   000001 756000 29                 STQ     GROUP+1

  20169 31 002456   000000 450000 29                 STZ     GROUP

  20170 31 002457   002513 710000 31                 TRA     s:20210
PL6.E3A0      #001=Z8DR$RECORD_DECL File=Z8DR.:Z8A6TSI                           SAT 08/09/97 11:18 Page:263

      875    20172    5          ELSE
      876    20173    5            REDUCED_DATA.USAGE.TYPE = GROUP.USAGE.TYPE;

  20173 31 002460   000000 235000 29                 LDA     GROUP
        31 002461   000033 755000 0                  STA     REDUCED_DATA

      877    20174    5        END;

  20174 31 002462   002513 710000 31                 TRA     s:20210

      878    20175    4      ELSE
      879    20176    5        DO;

      880    20177    5          REDUCED_DATA.USAGE.TYPE = CDECL$ -> LX_REC_DECL.P.USAGE$ ->

  20177 31 002463   000003 471500                    LDP1    3,,PR0
        31 002464   100003 235100                    LDA     3,,PR1
        31 002465   000033 755000 0                  STA     REDUCED_DATA

      881    20178    5                                    LX_ITEM.SYMBOL;
      882    20179
      883    20180    5          IF REDUCED_DATA.USAGE.TYPE = %RSV_WRD_COMP THEN

  20180 31 002466   000135 115007                    CMPA    93,DL
        31 002467   002472 601000 31                 TNZ     s:20183

      884    20181    5            REDUCED_DATA.USAGE.TYPE = O1COM.COMP_DEFAULT;

  20181 31 002470   000056 236000 xsym               LDQ     O1COM+46
        31 002471   000033 756000 0                  STQ     REDUCED_DATA

      885    20182
      886    20183    5          IF REDUCED_DATA.USAGE.TYPE = %RSV_WRD_DISPLAY THEN

  20183 31 002472   000033 235000 0                  LDA     REDUCED_DATA
        31 002473   000225 115007                    CMPA    149,DL
PL6.E3A0      #001=Z8DR$RECORD_DECL File=Z8DR.:Z8A6TSI                           SAT 08/09/97 11:18 Page:264
        31 002474   002476 601000 31                 TNZ     s:20186

      887    20184    5            REDUCED_DATA.USAGE.TYPE  = %NO_USAGE;

  20184 31 002475   000033 450000 0                  STZ     REDUCED_DATA

      888    20185
      889    20186    5          IF GROUP.USAGE.TYPE ~= %NO_USAGE THEN

  20186 31 002476   000000 235000 29                 LDA     GROUP
        31 002477   002507 600000 31                 TZE     s:20203

      890    20187    6            DO;

      891    20188    6              IF REDUCED_DATA.LEVEL.CURRENT <= GROUP.USAGE.LEVEL THEN

  20188 31 002500   000034 236000 0                  LDQ     REDUCED_DATA+1
        31 002501   000001 116000 29                 CMPQ    GROUP+1
        31 002502   002513 605400 31                 TPNZ    s:20210

      892    20189                     %UPDATE_GROUP_USAGE (@USAGE = REDUCED_DATA.USAGE.TYPE,
      893    20190                                              @LEVEL = REDUCED_DATA.LEVEL.CURRENT);

  20192 31 002503   000001 756000 29                 STQ     GROUP+1

  20193 31 002504   000033 235000 0                  LDA     REDUCED_DATA
        31 002505   000000 755000 29                 STA     GROUP

      894    20196    6            END;

  20196 31 002506   002513 710000 31                 TRA     s:20210

      895    20197    5          ELSE
      896    20198                 /* No Group usage specified so the current usage is
      897    20199                    predominant */
      898    20200                 %UPDATE_GROUP_USAGE (@USAGE = REDUCED_DATA.USAGE.TYPE,
      899    20201                                          @LEVEL = REDUCED_DATA.LEVEL.CURRENT);
PL6.E3A0      #001=Z8DR$RECORD_DECL File=Z8DR.:Z8A6TSI                           SAT 08/09/97 11:18 Page:265

  20203 31 002507   000034 236000 0                  LDQ     REDUCED_DATA+1
        31 002510   000001 756000 29                 STQ     GROUP+1

  20204 31 002511   000033 235000 0                  LDA     REDUCED_DATA
        31 002512   000000 755000 29                 STA     GROUP

      900    20207
      901    20208    5        END;

      902    20209
      903    20210    4        IF NOT REDUCED_DATA.B.ELEMENTARY THEN

  20210 31 002513   000060 234000 0                  SZN     REDUCED_DATA+21
        31 002514   002516 604000 31                 TMI     s:20215

      904    20211    4          REDUCED_DATA.USAGE.TYPE = %NO_USAGE;

  20211 31 002515   000033 450000 0                  STZ     REDUCED_DATA

      905    20212
      906    20213
      907    20214
      908    20215    4   END EXTRACT_USAGE;

  20215 31 002516   000001 702211                    TSX2  ! 1,X1

      909    20216        %EJECT;
PL6.E3A0      #001=Z8DR$RECORD_DECL File=Z8DR.:Z8A6TSI                           SAT 08/09/97 11:18 Page:266
      910    20217        /*=============*/
      911    20218    3     EXTRACT_LEVEL: PROC;

  20218 31 002517   000164 741200 0     EXTRACT_LEV* STX1  ! NDECL$+3

      912    20219        /*=============*/
      913    20220
      914    20221    4      DCL I SBIN;
      915    20222
      916    20223    4      REDUCED_DATA.LEVEL.PREVIOUS = O1COM.LEVEL_NO;

  20223 31 002520   000005 235000 xsym               LDA     O1COM+5
        31 002521   000035 755000 0                  STA     REDUCED_DATA+2

      917    20224
      918    20225    4      CALL CHARBIN (O1COM.LEVEL_NO,

  20225 31 002522   000160 470400 0                  LDP0    CDECL$
        31 002523   000001 471500                    LDP1    1,,PR0
        31 002524   100002 473500                    LDP3    2,,PR1
        31 002525   300004 220100                    LDX0    4,,PR3
        31 002526   000000 305540                    DTB
        31 002527   300004 430010                    NDSC9   4,,PR3                   cn=2,s=nosgn,sf=0,n=*X0
        31 002530   000005 000004 xsym               NDSC9   O1COM+5                  cn=0,s=lsgnf,sf=0,n=4

      919    20226    4                    CDECL$ -> LX_REC_DECL.P.LEVEL_NO$ ->
      920    20227    4                    LX_ITEM.DNT$ -> DNT.TEXT.NAME);
      921    20228
      922    20229    4      REDUCED_DATA.LEVEL.CURRENT = O1COM.LEVEL_NO;

  20229 31 002531   000005 236000 xsym               LDQ     O1COM+5
        31 002532   000034 756000 0                  STQ     REDUCED_DATA+1

      923    20230
      924    20231           %CHANGE_LEVEL_TO_CONSEC (@LEVEL = REDUCED_DATA.LEVEL.PREVIOUS);

  20233 31 002533   000102 115007                    CMPA    66,DL
PL6.E3A0      #001=Z8DR$RECORD_DECL File=Z8DR.:Z8A6TSI                           SAT 08/09/97 11:18 Page:267
        31 002534   002540 601000 31                 TNZ     s:20236

  20234 31 002535   000002 235007                    LDA     2,DL
        31 002536   000035 755000 0                  STA     REDUCED_DATA+2
        31 002537   002634 710000 31                 TRA     s:20255

  20236 31 002540   000115 115007                    CMPA    77,DL
        31 002541   002545 601000 31                 TNZ     s:20239

  20237 31 002542   000001 235007                    LDA     1,DL
        31 002543   000035 755000 0                  STA     REDUCED_DATA+2
        31 002544   002634 710000 31                 TRA     s:20255

  20239 31 002545   000062 115007                    CMPA    50,DL
        31 002546   002550 602005 31                 TNC     s:20239+3,AL
        31 002547   002632 710000 31                 TRA     s:20249
        31 002550   002634 710000 31                 TRA     s:20255
        31 002551   002634 710000 31                 TRA     s:20255
        31 002552   002634 710000 31                 TRA     s:20255
        31 002553   002634 710000 31                 TRA     s:20255
        31 002554   002634 710000 31                 TRA     s:20255
        31 002555   002634 710000 31                 TRA     s:20255
        31 002556   002634 710000 31                 TRA     s:20255
        31 002557   002634 710000 31                 TRA     s:20255
        31 002560   002634 710000 31                 TRA     s:20255
        31 002561   002634 710000 31                 TRA     s:20255
        31 002562   002634 710000 31                 TRA     s:20255
        31 002563   002634 710000 31                 TRA     s:20255
        31 002564   002634 710000 31                 TRA     s:20255
        31 002565   002634 710000 31                 TRA     s:20255
        31 002566   002634 710000 31                 TRA     s:20255
        31 002567   002634 710000 31                 TRA     s:20255
        31 002570   002634 710000 31                 TRA     s:20255
        31 002571   002634 710000 31                 TRA     s:20255
        31 002572   002634 710000 31                 TRA     s:20255
        31 002573   002634 710000 31                 TRA     s:20255
        31 002574   002634 710000 31                 TRA     s:20255
PL6.E3A0      #001=Z8DR$RECORD_DECL File=Z8DR.:Z8A6TSI                           SAT 08/09/97 11:18 Page:268
        31 002575   002634 710000 31                 TRA     s:20255
        31 002576   002634 710000 31                 TRA     s:20255
        31 002577   002634 710000 31                 TRA     s:20255
        31 002600   002634 710000 31                 TRA     s:20255
        31 002601   002634 710000 31                 TRA     s:20255
        31 002602   002634 710000 31                 TRA     s:20255
        31 002603   002634 710000 31                 TRA     s:20255
        31 002604   002634 710000 31                 TRA     s:20255
        31 002605   002634 710000 31                 TRA     s:20255
        31 002606   002634 710000 31                 TRA     s:20255
        31 002607   002634 710000 31                 TRA     s:20255
        31 002610   002634 710000 31                 TRA     s:20255
        31 002611   002634 710000 31                 TRA     s:20255
        31 002612   002634 710000 31                 TRA     s:20255
        31 002613   002634 710000 31                 TRA     s:20255
        31 002614   002634 710000 31                 TRA     s:20255
        31 002615   002634 710000 31                 TRA     s:20255
        31 002616   002634 710000 31                 TRA     s:20255
        31 002617   002634 710000 31                 TRA     s:20255
        31 002620   002634 710000 31                 TRA     s:20255
        31 002621   002634 710000 31                 TRA     s:20255
        31 002622   002634 710000 31                 TRA     s:20255
        31 002623   002634 710000 31                 TRA     s:20255
        31 002624   002634 710000 31                 TRA     s:20255
        31 002625   002634 710000 31                 TRA     s:20255
        31 002626   002634 710000 31                 TRA     s:20255
        31 002627   002634 710000 31                 TRA     s:20255
        31 002630   002634 710000 31                 TRA     s:20255
        31 002631   002634 710000 31                 TRA     s:20255

  20249 31 002632   000001 235007                    LDA     1,DL
        31 002633   000035 755000 0                  STA     REDUCED_DATA+2

      925    20253           %CHANGE_LEVEL_TO_CONSEC(@LEVEL = REDUCED_DATA.LEVEL.CURRENT);

  20255 31 002634   000102 116007                    CMPQ    66,DL
        31 002635   002641 601000 31                 TNZ     s:20258
PL6.E3A0      #001=Z8DR$RECORD_DECL File=Z8DR.:Z8A6TSI                           SAT 08/09/97 11:18 Page:269

  20256 31 002636   000002 235007                    LDA     2,DL
        31 002637   000034 755000 0                  STA     REDUCED_DATA+1
        31 002640   002735 710000 31                 TRA     s:20276

  20258 31 002641   000115 116007                    CMPQ    77,DL
        31 002642   002646 601000 31                 TNZ     s:20261

  20259 31 002643   000001 235007                    LDA     1,DL
        31 002644   000034 755000 0                  STA     REDUCED_DATA+1
        31 002645   002735 710000 31                 TRA     s:20276

  20261 31 002646   000062 116007                    CMPQ    50,DL
        31 002647   002651 602006 31                 TNC     s:20261+3,QL
        31 002650   002733 710000 31                 TRA     s:20271
        31 002651   002735 710000 31                 TRA     s:20276
        31 002652   002735 710000 31                 TRA     s:20276
        31 002653   002735 710000 31                 TRA     s:20276
        31 002654   002735 710000 31                 TRA     s:20276
        31 002655   002735 710000 31                 TRA     s:20276
        31 002656   002735 710000 31                 TRA     s:20276
        31 002657   002735 710000 31                 TRA     s:20276
        31 002660   002735 710000 31                 TRA     s:20276
        31 002661   002735 710000 31                 TRA     s:20276
        31 002662   002735 710000 31                 TRA     s:20276
        31 002663   002735 710000 31                 TRA     s:20276
        31 002664   002735 710000 31                 TRA     s:20276
        31 002665   002735 710000 31                 TRA     s:20276
        31 002666   002735 710000 31                 TRA     s:20276
        31 002667   002735 710000 31                 TRA     s:20276
        31 002670   002735 710000 31                 TRA     s:20276
        31 002671   002735 710000 31                 TRA     s:20276
        31 002672   002735 710000 31                 TRA     s:20276
        31 002673   002735 710000 31                 TRA     s:20276
        31 002674   002735 710000 31                 TRA     s:20276
        31 002675   002735 710000 31                 TRA     s:20276
        31 002676   002735 710000 31                 TRA     s:20276
PL6.E3A0      #001=Z8DR$RECORD_DECL File=Z8DR.:Z8A6TSI                           SAT 08/09/97 11:18 Page:270
        31 002677   002735 710000 31                 TRA     s:20276
        31 002700   002735 710000 31                 TRA     s:20276
        31 002701   002735 710000 31                 TRA     s:20276
        31 002702   002735 710000 31                 TRA     s:20276
        31 002703   002735 710000 31                 TRA     s:20276
        31 002704   002735 710000 31                 TRA     s:20276
        31 002705   002735 710000 31                 TRA     s:20276
        31 002706   002735 710000 31                 TRA     s:20276
        31 002707   002735 710000 31                 TRA     s:20276
        31 002710   002735 710000 31                 TRA     s:20276
        31 002711   002735 710000 31                 TRA     s:20276
        31 002712   002735 710000 31                 TRA     s:20276
        31 002713   002735 710000 31                 TRA     s:20276
        31 002714   002735 710000 31                 TRA     s:20276
        31 002715   002735 710000 31                 TRA     s:20276
        31 002716   002735 710000 31                 TRA     s:20276
        31 002717   002735 710000 31                 TRA     s:20276
        31 002720   002735 710000 31                 TRA     s:20276
        31 002721   002735 710000 31                 TRA     s:20276
        31 002722   002735 710000 31                 TRA     s:20276
        31 002723   002735 710000 31                 TRA     s:20276
        31 002724   002735 710000 31                 TRA     s:20276
        31 002725   002735 710000 31                 TRA     s:20276
        31 002726   002735 710000 31                 TRA     s:20276
        31 002727   002735 710000 31                 TRA     s:20276
        31 002730   002735 710000 31                 TRA     s:20276
        31 002731   002735 710000 31                 TRA     s:20276
        31 002732   002735 710000 31                 TRA     s:20276

  20271 31 002733   000001 235007                    LDA     1,DL
        31 002734   000034 755000 0                  STA     REDUCED_DATA+1

      926    20275
      927    20276    4      IF NDECL$ = ADDR(NIL) THEN

  20276 31 002735   000161 236000 0                  LDQ     NDECL$
        31 002736   000000 116000 32                 CMPQ    0
PL6.E3A0      #001=Z8DR$RECORD_DECL File=Z8DR.:Z8A6TSI                           SAT 08/09/97 11:18 Page:271
        31 002737   002743 601000 31                 TNZ     s:20280

      928    20277    4        REDUCED_DATA.LEVEL.NEXT = %LEVEL_01;

  20277 31 002740   000001 235007                    LDA     1,DL
        31 002741   000036 755000 0                  STA     REDUCED_DATA+3
        31 002742   003054 710000 31                 TRA     s:20308

      929    20278    4      ELSE
      930    20279    5        DO;

      931    20280    5          CALL CHARBIN (REDUCED_DATA.LEVEL.NEXT,

  20280 31 002743   000161 471400 0                  LDP1    NDECL$
        31 002744   100001 473500                    LDP3    1,,PR1
        31 002745   300002 474500                    LDP4    2,,PR3
        31 002746   400004 220100                    LDX0    4,,PR4
        31 002747   000000 305540                    DTB
        31 002750   400004 430010                    NDSC9   4,,PR4                   cn=2,s=nosgn,sf=0,n=*X0
        31 002751   000036 000004 0                  NDSC9   REDUCED_DATA+3           cn=0,s=lsgnf,sf=0,n=4

      932    20281    5                        NDECL$ -> LX_REC_DECL.P.LEVEL_NO$ ->
      933    20282    5                        LX_ITEM.DNT$ -> DNT.TEXT.NAME);
      934    20283
      935    20284               %CHANGE_LEVEL_TO_CONSEC(@LEVEL = REDUCED_DATA.LEVEL.NEXT);

  20286 31 002752   000036 235000 0                  LDA     REDUCED_DATA+3
        31 002753   000102 115007                    CMPA    66,DL
        31 002754   002760 601000 31                 TNZ     s:20289

  20287 31 002755   000002 235007                    LDA     2,DL
        31 002756   000036 755000 0                  STA     REDUCED_DATA+3
        31 002757   003054 710000 31                 TRA     s:20308

  20289 31 002760   000115 115007                    CMPA    77,DL
        31 002761   002765 601000 31                 TNZ     s:20292

PL6.E3A0      #001=Z8DR$RECORD_DECL File=Z8DR.:Z8A6TSI                           SAT 08/09/97 11:18 Page:272
  20290 31 002762   000001 235007                    LDA     1,DL
        31 002763   000036 755000 0                  STA     REDUCED_DATA+3
        31 002764   003054 710000 31                 TRA     s:20308

  20292 31 002765   000062 115007                    CMPA    50,DL
        31 002766   002770 602005 31                 TNC     s:20292+3,AL
        31 002767   003052 710000 31                 TRA     s:20302
        31 002770   003054 710000 31                 TRA     s:20308
        31 002771   003054 710000 31                 TRA     s:20308
        31 002772   003054 710000 31                 TRA     s:20308
        31 002773   003054 710000 31                 TRA     s:20308
        31 002774   003054 710000 31                 TRA     s:20308
        31 002775   003054 710000 31                 TRA     s:20308
        31 002776   003054 710000 31                 TRA     s:20308
        31 002777   003054 710000 31                 TRA     s:20308
        31 003000   003054 710000 31                 TRA     s:20308
        31 003001   003054 710000 31                 TRA     s:20308
        31 003002   003054 710000 31                 TRA     s:20308
        31 003003   003054 710000 31                 TRA     s:20308
        31 003004   003054 710000 31                 TRA     s:20308
        31 003005   003054 710000 31                 TRA     s:20308
        31 003006   003054 710000 31                 TRA     s:20308
        31 003007   003054 710000 31                 TRA     s:20308
        31 003010   003054 710000 31                 TRA     s:20308
        31 003011   003054 710000 31                 TRA     s:20308
        31 003012   003054 710000 31                 TRA     s:20308
        31 003013   003054 710000 31                 TRA     s:20308
        31 003014   003054 710000 31                 TRA     s:20308
        31 003015   003054 710000 31                 TRA     s:20308
        31 003016   003054 710000 31                 TRA     s:20308
        31 003017   003054 710000 31                 TRA     s:20308
        31 003020   003054 710000 31                 TRA     s:20308
        31 003021   003054 710000 31                 TRA     s:20308
        31 003022   003054 710000 31                 TRA     s:20308
        31 003023   003054 710000 31                 TRA     s:20308
        31 003024   003054 710000 31                 TRA     s:20308
        31 003025   003054 710000 31                 TRA     s:20308
PL6.E3A0      #001=Z8DR$RECORD_DECL File=Z8DR.:Z8A6TSI                           SAT 08/09/97 11:18 Page:273
        31 003026   003054 710000 31                 TRA     s:20308
        31 003027   003054 710000 31                 TRA     s:20308
        31 003030   003054 710000 31                 TRA     s:20308
        31 003031   003054 710000 31                 TRA     s:20308
        31 003032   003054 710000 31                 TRA     s:20308
        31 003033   003054 710000 31                 TRA     s:20308
        31 003034   003054 710000 31                 TRA     s:20308
        31 003035   003054 710000 31                 TRA     s:20308
        31 003036   003054 710000 31                 TRA     s:20308
        31 003037   003054 710000 31                 TRA     s:20308
        31 003040   003054 710000 31                 TRA     s:20308
        31 003041   003054 710000 31                 TRA     s:20308
        31 003042   003054 710000 31                 TRA     s:20308
        31 003043   003054 710000 31                 TRA     s:20308
        31 003044   003054 710000 31                 TRA     s:20308
        31 003045   003054 710000 31                 TRA     s:20308
        31 003046   003054 710000 31                 TRA     s:20308
        31 003047   003054 710000 31                 TRA     s:20308
        31 003050   003054 710000 31                 TRA     s:20308
        31 003051   003054 710000 31                 TRA     s:20308

  20302 31 003052   000001 235007                    LDA     1,DL
        31 003053   000036 755000 0                  STA     REDUCED_DATA+3

      936    20306    5        END;

      937    20307
      938    20308    4      IF REDUCED_DATA.LEVEL.CURRENT = %LEVEL_01 THEN

  20308 31 003054   000034 235000 0                  LDA     REDUCED_DATA+1
        31 003055   000001 115007                    CMPA    1,DL
        31 003056   003065 601000 31                 TNZ     s:20313

      939    20309    5        DO;

      940    20310    5          GROUP = '0'B;

PL6.E3A0      #001=Z8DR$RECORD_DECL File=Z8DR.:Z8A6TSI                           SAT 08/09/97 11:18 Page:274
  20310 31 003057   000000 100400                    MLR     fill='000'O
        31 003060   000020 000001 32                 ADSC9   16                       cn=0,n=1
        31 003061   000000 000024 29                 ADSC9   GROUP                    cn=0,n=20

      941    20311    5          GROUP.USAGE.LEVEL = %LEVEL_01;

  20311 31 003062   000001 235007                    LDA     1,DL
        31 003063   000001 755000 29                 STA     GROUP+1

      942    20312    5        END;

  20312 31 003064   003134 710000 31                 TRA     s:20326

      943    20313    4      ELSE IF COMCOM.OB.FIPS.LEVEL > 0 AND REDUCED_DATA.LEVEL.CURRENT < REDUCED_DATA.
             20313               LEVEL.PREVIOUS

  20313 31 003065   000036 720000 xsym               LXL0    COMCOM+30
        31 003066   003134 604400 31                 TMOZ    s:20326
        31 003067   000034 236000 0                  LDQ     REDUCED_DATA+1
        31 003070   000035 116000 0                  CMPQ    REDUCED_DATA+2
        31 003071   003134 605000 31                 TPL     s:20326
        31 003072   000001 471500                    LDP1    1,,PR0
        31 003073   100002 473500                    LDP3    2,,PR1
        31 003074   300004 222100                    LDX2    4,,PR3
        31 003075   040000 106540                    CMPC    fill='040'O
        31 003076   300004 400012                    ADSC9   4,,PR3                   cn=2,n=*X2
        31 003077   000000 000002 30                 ADSC9   0                        cn=0,n=2
        31 003100   003134 600000 31                 TZE     s:20326

      944    20314    4          AND CDECL$ -> LX_REC_DECL.P.LEVEL_NO$ -> LX_ITEM.DNT$ ->
      945    20315    4          DNT.TEXT.NAME ~= '66' THEN
      946    20316    5   SEQ_CHECK: DO;

  20316 31 003101                       SEQ_CHECK    null
      947    20317    6          DO I = HIER_STK_PTR DOWNTO 2;

  20317 31 003101   000000 235000 xsym               LDA     HIER_STK_PTR
PL6.E3A0      #001=Z8DR$RECORD_DECL File=Z8DR.:Z8A6TSI                           SAT 08/09/97 11:18 Page:275
        31 003102   000165 755000 0                  STA     I
        31 003103   003115 710000 31                 TRA     s:20320+2

      948    20318    6            IF HIER_STK.LEVEL#(I) = REDUCED_DATA.LEVEL.CURRENT THEN

  20318 31 003104   000165 236000 0                  LDQ     I
        31 003105   000005 402007                    MPY     5,DL
        31 003106   000002 236006 xsym               LDQ     HIER_STK+2,QL
        31 003107   000022 736000                    QLS     18
        31 003110   000033 732000                    QRS     27
        31 003111   000034 116000 0                  CMPQ    REDUCED_DATA+1
        31 003112   003134 600000 31                 TZE     s:20326

      949    20319    6              EXIT SEQ_CHECK;
      950    20320    6          END;

  20320 31 003113   000001 336007                    LCQ     1,DL
        31 003114   000165 056000 0                  ASQ     I
        31 003115   000165 235000 0                  LDA     I
        31 003116   000002 115007                    CMPA    2,DL
        31 003117   003104 605000 31                 TPL     s:20318

      951    20321    5          CALL Z8AE$ERROR (%E$ANSI_LEVEL_SEQ_ERROR,

  20321 31 003120   000160 470400 0                  LDP0    CDECL$
        31 003121   000001 471500                    LDP1    1,,PR0
        31 003122   100006 633500                    EPPR3   6,,PR1
        31 003123   000574 453400 0                  STP3    P$+3
        31 003124   100005 634500                    EPPR4   5,,PR1
        31 003125   000573 454400 0                  STP4    P$+2
        31 003126   000052 236000 32                 LDQ     42
        31 003127   000572 756000 0                  STQ     P$+1
        31 003130   000572 630400 0                  EPPR0   P$+1
        31 003131   000001 631400 32                 EPPR1   1
        31 003132   000000 701000 xent               TSX1    Z8AE$ERROR
        31 003133   000000 011000                    NOP     0

PL6.E3A0      #001=Z8DR$RECORD_DECL File=Z8DR.:Z8A6TSI                           SAT 08/09/97 11:18 Page:276
      952    20322    5                           CDECL$ -> LX_REC_DECL.P.LEVEL_NO$ -> LX_ITEM.LINE,
      953    20323    5                           CDECL$ -> LX_REC_DECL.P.LEVEL_NO$ -> LX_ITEM.COLUMN);
      954    20324    5        END; /* SEQ_CHECK */

      955    20325
      956    20326    4      REDUCED_DATA.B.ELEMENTARY = (REDUCED_DATA.LEVEL.NEXT <=

  20326 31 003134   400000 220003                    LDX0    -131072,DU
        31 003135   000036 236000 0                  LDQ     REDUCED_DATA+3
        31 003136   000034 116000 0                  CMPQ    REDUCED_DATA+1
        31 003137   003141 604400 31                 TMOZ    s:20326+5
        31 003140   000000 220003                    LDX0    0,DU
        31 003141   000000 636010                    EAQ     0,X0
        31 003142   000060 676000 0                  ERQ     REDUCED_DATA+21
        31 003143   400000 376003                    ANQ     -131072,DU
        31 003144   000060 656000 0                  ERSQ    REDUCED_DATA+21

      957    20327    4                                   REDUCED_DATA.LEVEL.CURRENT);
      958    20328
      959    20329    4   END EXTRACT_LEVEL;

  20329 31 003145   000164 221200 0                  LDX1  ! NDECL$+3
        31 003146   000001 702211                    TSX2  ! 1,X1

      960    20330        %EJECT;
PL6.E3A0      #001=Z8DR$RECORD_DECL File=Z8DR.:Z8A6TSI                           SAT 08/09/97 11:18 Page:277
      961    20331        /*=====================*/
      962    20332    3     CHECK_FOR_SIGN_IN_PIC: PROC (SIGN_TYPE);

  20332 31 003147   000166 741200 0     CHECK_FOR_S* STX1  ! I+1

      963    20333        /*=====================*/
      964    20334
      965    20335    4   DCL SIGN_TYPE          SBIN WORD;
      966    20336
      967    20337    5      DO CASE (SIGN_TYPE);

  20337 31 003150   000167 470400 0                  LDP0    @SIGN_TYPE
        31 003151   000000 235100                    LDA     0,,PR0
        31 003152   000006 115007                    CMPA    6,DL
        31 003153   003155 602005 31                 TNC     s:20337+5,AL
        31 003154   003166 710000 31                 TRA     s:20345
        31 003155   003163 710000 31                 TRA     s:20340
        31 003156   003163 710000 31                 TRA     s:20340
        31 003157   003163 710000 31                 TRA     s:20340
        31 003160   003166 710000 31                 TRA     s:20345
        31 003161   003166 710000 31                 TRA     s:20345
        31 003162   003163 710000 31                 TRA     s:20340

      968    20338
      969    20339    5        CASE(%PIC_EIS_LS, %PIC_EIS_TS, %PIC_EIS_LSTS, %PIC_EIS_FLT);

      970    20340    5          REDUCED_DATA.B.SIGN_FOUND = TRUE;

  20340 31 003163   100000 236003                    LDQ     32768,DU
        31 003164   000060 256000 0                  ORSQ    REDUCED_DATA+21
        31 003165   003166 710000 31                 TRA     s:20345

      971    20341
      972    20342    5        CASE(ELSE);

      973    20343               /* No sign found */
      974    20344    5      END;
PL6.E3A0      #001=Z8DR$RECORD_DECL File=Z8DR.:Z8A6TSI                           SAT 08/09/97 11:18 Page:278

      975    20345    4   END CHECK_FOR_SIGN_IN_PIC;

  20345 31 003166   000001 702211                    TSX2  ! 1,X1

      976    20346        %EJECT;
PL6.E3A0      #001=Z8DR$RECORD_DECL File=Z8DR.:Z8A6TSI                           SAT 08/09/97 11:18 Page:279
      977    20347        /*===========*/
      978    20348    3     EXTRACT_PIC: PROC;

  20348 31 003167   000170 741200 0     EXTRACT_PIC  STX1  ! @SIGN_TYPE+1

      979    20349        /*===========*/
      980    20350
      981    20351    4   DCL PIC$                      PTR;
      982    20352
      983    20353
      984    20354
      985    20355    4      PIC$ = CDECL$ -> LX_REC_DECL.P.PIC_CLAUSE$;

  20355 31 003170   000160 470400 0                  LDP0    CDECL$
        31 003171   000004 236100                    LDQ     4,,PR0
        31 003172   000171 756000 0                  STQ     PIC$

      986    20356    4      PIC_STR = PIC$ -> LX_ITEM.DNT$ -> DNT.TEXT.NAME;

  20356 31 003173   000171 471400 0                  LDP1    PIC$
        31 003174   100002 473500                    LDP3    2,,PR1
        31 003175   300004 220100                    LDX0    4,,PR3
        31 003176   040000 100540                    MLR     fill='040'O
        31 003177   300004 400010                    ADSC9   4,,PR3                   cn=2,n=*X0
        31 003200   000005 000120 0                  ADSC9   PIC_STR                  cn=0,n=80

      987    20357    4      PIC_IN.PIC_L = PIC$ -> LX_ITEM.DNT$ -> DNT.TEXT.LENGTH;

  20357 31 003201   100002 473500                    LDP3    2,,PR1
        31 003202   300004 220100                    LDX0    4,,PR3
        31 003203   000003 740000 0                  STX0    PIC_IN

      988    20358    4      PIC_IN.MOP_L  = %MAX_MOP_LENGTH;

  20358 31 003204   000100 222003                    LDX2    64,DU
        31 003205   000003 442000 0                  SXL2    PIC_IN

PL6.E3A0      #001=Z8DR$RECORD_DECL File=Z8DR.:Z8A6TSI                           SAT 08/09/97 11:18 Page:280
      989    20359    4      PIC_OUT.ERROR = %NO_ERROR;

  20359 31 003206   000003 450000 28                 STZ     PIC_OUT+3

      990    20360
      991    20361    4      IF COMCOM.OB.FIPS.LEVEL >= %INT_LEV AND

  20361 31 003207   000036 723000 xsym               LXL3    COMCOM+30
        31 003210   000002 103003                    CMPX3   2,DU
        31 003211   003230 604000 31                 TMI     s:20367
        31 003212   100000 236100                    LDQ     0,,PR1
        31 003213   004000 316007                    CANQ    2048,DL
        31 003214   003230 600000 31                 TZE     s:20367

      992    20362    4          PIC$ -> LX_ITEM.B.HIGH_LEV THEN
      993    20363    4        CALL Z8AE$ERROR (%E$LEVEL_CHECK,

  20363 31 003215   000171 236000 0                  LDQ     PIC$
        31 003216   000006 036003                    ADLQ    6,DU
        31 003217   000574 756000 0                  STQ     P$+3
        31 003220   000171 236000 0                  LDQ     PIC$
        31 003221   000005 036003                    ADLQ    5,DU
        31 003222   000003 235000 32                 LDA     3
        31 003223   000572 757000 0                  STAQ    P$+1
        31 003224   000572 630400 0                  EPPR0   P$+1
        31 003225   000001 631400 32                 EPPR1   1
        31 003226   000000 701000 xent               TSX1    Z8AE$ERROR
        31 003227   000000 011000                    NOP     0

      994    20364    4                         PIC$ -> LX_ITEM.LINE,
      995    20365    4                         PIC$ -> LX_ITEM.COLUMN);
      996    20366
      997    20367    4      IF PIC_IN.PIC_L > %MAX_PIC_STR_LENGTH THEN

  20367 31 003230   000003 220000 0                  LDX0    PIC_IN
        31 003231   000037 100003                    CMPX0   31,DU
        31 003232   003304 602000 31                 TNC     s:20420
PL6.E3A0      #001=Z8DR$RECORD_DECL File=Z8DR.:Z8A6TSI                           SAT 08/09/97 11:18 Page:281

      998    20368    5        DO;

      999    20369               %CONDITIONAL_ERROR (@LX_ITEM$ = PIC$,
     1000    20370                                   @ERROR#   = %E$PIC_STR_TOO_LONG,
     1001    20371                                   @LINE     = PIC$ -> LX_ITEM.LINE,
     1002    20372                                   @COLUMN   = PIC$ -> LX_ITEM.COLUMN);

  20382 31 003233   000171 470400 0                  LDP0    PIC$
        31 003234   000000 236100                    LDQ     0,,PR0
        31 003235   400000 316007                    CANQ    -131072,DL
        31 003236   003255 601000 31                 TNZ     s:20404

  20384 31 003237   000171 236000 0                  LDQ     PIC$
        31 003240   000006 036003                    ADLQ    6,DU
        31 003241   000574 756000 0                  STQ     P$+3
        31 003242   000171 236000 0                  LDQ     PIC$
        31 003243   000005 036003                    ADLQ    5,DU
        31 003244   000054 235000 32                 LDA     44
        31 003245   000572 757000 0                  STAQ    P$+1
        31 003246   000572 630400 0                  EPPR0   P$+1
        31 003247   000001 631400 32                 EPPR1   1
        31 003250   000000 701000 xent               TSX1    Z8AE$ERROR
        31 003251   000000 011000                    NOP     0

  20393 31 003252   000171 470400 0                  LDP0    PIC$
        31 003253   400000 236007                    LDQ     -131072,DL
        31 003254   000000 256100                    ORSQ    0,,PR0

     1003    20402               %DEFAULT_PIC; /* Recovery */

  20404 31 003255   000005 220003                    LDX0    5,DU
        31 003256   000002 740000 28                 STX0    PIC_OUT+2

  20405 31 003257   000004 221003                    LDX1    4,DU
        31 003260   000001 441000 28                 SXL1    PIC_OUT+1

PL6.E3A0      #001=Z8DR$RECORD_DECL File=Z8DR.:Z8A6TSI                           SAT 08/09/97 11:18 Page:282
  20406 31 003261   000004 235007                    LDA     4,DL
        31 003262   000000 755000 28                 STA     PIC_OUT

  20407 31 003263   000000 222003                    LDX2    0,DU
        31 003264   000001 742000 28                 STX2    PIC_OUT+1

  20408 31 003265   000003 223003                    LDX3    3,DU
        31 003266   000005 743000 28                 STX3    PIC_OUT+5

  20409 31 003267   000160 471400 0                  LDP1    CDECL$
        31 003270   100010 236100                    LDQ     8,,PR1
        31 003271   000000 116000 32                 CMPQ    0
        31 003272   003302 600000 31                 TZE     s:20417

  20412 31 003273   000160 236000 0                  LDQ     CDECL$
        31 003274   000010 036003                    ADLQ    8,DU
        31 003275   000572 756000 0                  STQ     P$+1
        31 003276   000572 630400 0                  EPPR0   P$+1
        31 003277   000005 631400 32                 EPPR1   5
        31 003300   000000 701000 xent               TSX1    Z8ED$DISPOSE_ABSSYN_TREE
        31 003301   000000 011000                    NOP     0

     1004    20417    5          RETURN;

  20417 31 003302   000170 221200 0                  LDX1  ! @SIGN_TYPE+1
        31 003303   000001 702211                    TSX2  ! 1,X1

     1005    20418    5        END;
     1006    20419
     1007    20420    4      CALL EXTRACT_BLANK_WHEN_ZERO (PIC_IN.B.BLANK_WHEN_ZERO);

  20420 31 003304   000055 236000 32                 LDQ     45
        31 003305   000173 756000 0                  STQ     PIC$+2
        31 003306   003336 701000 31                 TSX1    EXTRACT_BLANK_WHEN_ZERO
        31 003307   000000 011000                    NOP     0

     1008    20421
PL6.E3A0      #001=Z8DR$RECORD_DECL File=Z8DR.:Z8A6TSI                           SAT 08/09/97 11:18 Page:283
     1009    20422           /* If a blank when zero was specified and an asterisk was in
     1010    20423              the pic string it is illegal                              */
     1011    20424
     1012    20425    4      IF CDECL$ -> LX_REC_DECL.P.BLANK$ ~= ADDR(NIL)

  20425 31 003310   000160 470400 0                  LDP0    CDECL$
        31 003311   000012 236100                    LDQ     10,,PR0
        31 003312   000000 116000 32                 CMPQ    0
        31 003313   003320 600000 31                 TZE     s:20429
        31 003314   000004 234000 0                  SZN     PIC_IN+1
        31 003315   003320 604000 31                 TMI     s:20429

     1013    20426    4      AND NOT PIC_IN.B.BLANK_WHEN_ZERO THEN
     1014    20427    4        REDUCED_DATA.B.ASTERISK = TRUE;

  20427 31 003316   200000 236003                    LDQ     65536,DU
        31 003317   000060 256000 0                  ORSQ    REDUCED_DATA+21

     1015    20428
     1016    20429    4      CALL Z8DP$VALIDATE_PIC (PIC_STR, PIC_IN, PIC_OUT)

  20429 31 003320   000056 630400 32                 EPPR0   46
        31 003321   000001 631400 32                 EPPR1   1
        31 003322   000000 701000 xent               TSX1    Z8DP$VALIDATE_PIC
        31 003323   003325 702000 31                 TSX2    s:20435
        31 003324   003325 710000 31                 TRA     s:20435

     1017    20430    4        WHENALTRETURN
     1018    20431    5          DO;

     1019    20432                 /* Nothing - error flagged later */
     1020    20433    5          END;

     1021    20434
     1022    20435    4      CALL CHECK_FOR_SIGN_IN_PIC (BINBIT(PIC_OUT.EIS_TYPE,36));

  20435 31 003325   000005 236000 28                 LDQ     PIC_OUT+5
PL6.E3A0      #001=Z8DR$RECORD_DECL File=Z8DR.:Z8A6TSI                           SAT 08/09/97 11:18 Page:284
        31 003326   000022 772000                    QRL     18
        31 003327   000610 756000 0                  STQ     P$+15
        31 003330   000610 630400 0                  EPPR0   P$+15
        31 003331   000167 450400 0                  STP0    @SIGN_TYPE
        31 003332   003147 701000 31                 TSX1    CHECK_FOR_SIGN_IN_PIC
        31 003333   000000 011000                    NOP     0

     1023    20436    4   END EXTRACT_PIC;

  20436 31 003334   000170 221200 0                  LDX1  ! @SIGN_TYPE+1
        31 003335   000001 702211                    TSX2  ! 1,X1

     1024    20437        %EJECT;
PL6.E3A0      #001=Z8DR$RECORD_DECL File=Z8DR.:Z8A6TSI                           SAT 08/09/97 11:18 Page:285
     1025    20438        /*=======================*/
     1026    20439    3     EXTRACT_BLANK_WHEN_ZERO: PROC (BLANK_WHEN_ZERO);

  20439 31 003336   000172 741200 0     EXTRACT_BLA* STX1  ! PIC$+1

     1027    20440        /*=======================*/
     1028    20441
     1029    20442    4   DCL BLANK_WHEN_ZERO           BIT(1) ALIGNED;
     1030    20443    4   DCL INDEX#                    SBIN WORD;
     1031    20444
     1032    20445
     1033    20446
     1034    20447    4      IF CDECL$ -> LX_REC_DECL.P.BLANK$ ~= ADDR(NIL) THEN

  20447 31 003337   000160 470400 0                  LDP0    CDECL$
        31 003340   000012 236100                    LDQ     10,,PR0
        31 003341   000000 116000 32                 CMPQ    0
        31 003342   003365 600000 31                 TZE     s:20461

     1035    20448    5        DO;

     1036    20449    5          CALL INDEX (INDEX#,

  20449 31 003343   000004 471500                    LDP1    4,,PR0
        31 003344   100002 473500                    LDP3    2,,PR1
        31 003345   300004 220100                    LDX0    4,,PR3
        31 003346   000000 124540                    SCM     mask='000'O
        31 003347   300004 400010                    ADSC9   4,,PR3                   cn=2,n=*X0
        31 003350   000061 000001 32                 ADSC9   49                       cn=0,n=1
        31 003351   000174 000000 0                  ARG     INDEX#

     1037    20450    5                      %ASTERISK,
     1038    20451    5                      CDECL$ -> LX_REC_DECL.P.PIC_CLAUSE$ ->
     1039    20452    5                      LX_ITEM.DNT$ -> DNT.TEXT.NAME);
     1040    20453
     1041    20454    5          IF INDEX# ~= CDECL$ -> LX_REC_DECL.P.PIC_CLAUSE$ ->

PL6.E3A0      #001=Z8DR$RECORD_DECL File=Z8DR.:Z8A6TSI                           SAT 08/09/97 11:18 Page:286
  20454 31 003352   300004 236100                    LDQ     4,,PR3
        31 003353   000022 772000                    QRL     18
        31 003354   000174 116000 0                  CMPQ    INDEX#
        31 003355   003361 600000 31                 TZE     s:20458

     1042    20455    5                       LX_ITEM.DNT$ -> DNT.TEXT.LENGTH THEN
     1043    20456    5            BLANK_WHEN_ZERO = FALSE;

  20456 31 003356   000173 474400 0                  LDP4    @BLANK_WHEN_ZERO
        31 003357   400000 450100                    STZ     0,,PR4
        31 003360   003367 710000 31                 TRA     s:20463

     1044    20457    5          ELSE
     1045    20458    5            BLANK_WHEN_ZERO = TRUE;

  20458 31 003361   400000 236003                    LDQ     -131072,DU
        31 003362   000173 474400 0                  LDP4    @BLANK_WHEN_ZERO
        31 003363   400000 756100                    STQ     0,,PR4

     1046    20459    5        END;

  20459 31 003364   003367 710000 31                 TRA     s:20463

     1047    20460    4      ELSE
     1048    20461    4        BLANK_WHEN_ZERO     = FALSE;

  20461 31 003365   000173 471400 0                  LDP1    @BLANK_WHEN_ZERO
        31 003366   100000 450100                    STZ     0,,PR1

     1049    20462
     1050    20463    4   END EXTRACT_BLANK_WHEN_ZERO;

  20463 31 003367   000172 221200 0                  LDX1  ! PIC$+1
        31 003370   000001 702211                    TSX2  ! 1,X1

     1051    20464        %EJECT;
PL6.E3A0      #001=Z8DR$RECORD_DECL File=Z8DR.:Z8A6TSI                           SAT 08/09/97 11:18 Page:287
     1052    20465        /*============*/
     1053    20466    3     EXTRACT_SIGN: PROC;

  20466 31 003371   000175 741200 0     EXTRACT_SIGN STX1  ! INDEX#+1

     1054    20467        /*============*/
     1055    20468
     1056    20469
     1057    20470    4      IF CDECL$ -> LX_REC_DECL.P.SIGN$ ~= ADDR(NIL) THEN

  20470 31 003372   000160 470400 0                  LDP0    CDECL$
        31 003373   000011 236100                    LDQ     9,,PR0
        31 003374   000000 116000 32                 CMPQ    0
        31 003375   003410 600000 31                 TZE     s:20477

     1058    20471    4        IF CDECL$ -> LX_REC_DECL.P.SIGN$ -> LX_LIST.HEAD$ ->

  20471 31 003376   000011 471500                    LDP1    9,,PR0
        31 003377   100004 473500                    LDP3    4,,PR1
        31 003400   300003 235100                    LDA     3,,PR3
        31 003401   000415 115007                    CMPA    269,DL
        31 003402   003406 601000 31                 TNZ     s:20475

     1059    20472    4        LX_ITEM.SYMBOL = %RSV_WRD_LEADING THEN
     1060    20473    4          REDUCED_DATA.SIGN.LOCATION = %SIGN_POS_LEADING;

  20473 31 003403   000001 235007                    LDA     1,DL
        31 003404   000037 755000 0                  STA     REDUCED_DATA+4
        31 003405   003600 710000 31                 TRA     s:20491

     1061    20474    4        ELSE /* %RSV_WRD_TRAILING */
     1062    20475    4          REDUCED_DATA.SIGN.LOCATION = %SIGN_POS_TRAILING;

  20475 31 003406   000037 450000 0                  STZ     REDUCED_DATA+4
        31 003407   003600 710000 31                 TRA     s:20491

     1063    20476    4      ELSE
PL6.E3A0      #001=Z8DR$RECORD_DECL File=Z8DR.:Z8A6TSI                           SAT 08/09/97 11:18 Page:288
     1064    20477    5        DO CASE (REDUCED_DATA.USAGE.TYPE);

  20477 31 003410   000033 235000 0                  LDA     REDUCED_DATA
        31 003411   000152 115007                    CMPA    106,DL
        31 003412   003414 602005 31                 TNC     s:20477+4,AL
        31 003413   003577 710000 31                 TRA     s:20488
        31 003414   003566 710000 31                 TRA     s:20479
        31 003415   003577 710000 31                 TRA     s:20488
        31 003416   003577 710000 31                 TRA     s:20488
        31 003417   003577 710000 31                 TRA     s:20488
        31 003420   003577 710000 31                 TRA     s:20488
        31 003421   003577 710000 31                 TRA     s:20488
        31 003422   003577 710000 31                 TRA     s:20488
        31 003423   003577 710000 31                 TRA     s:20488
        31 003424   003577 710000 31                 TRA     s:20488
        31 003425   003577 710000 31                 TRA     s:20488
        31 003426   003577 710000 31                 TRA     s:20488
        31 003427   003577 710000 31                 TRA     s:20488
        31 003430   003577 710000 31                 TRA     s:20488
        31 003431   003577 710000 31                 TRA     s:20488
        31 003432   003577 710000 31                 TRA     s:20488
        31 003433   003577 710000 31                 TRA     s:20488
        31 003434   003577 710000 31                 TRA     s:20488
        31 003435   003577 710000 31                 TRA     s:20488
        31 003436   003577 710000 31                 TRA     s:20488
        31 003437   003577 710000 31                 TRA     s:20488
        31 003440   003577 710000 31                 TRA     s:20488
        31 003441   003577 710000 31                 TRA     s:20488
        31 003442   003577 710000 31                 TRA     s:20488
        31 003443   003577 710000 31                 TRA     s:20488
        31 003444   003577 710000 31                 TRA     s:20488
        31 003445   003577 710000 31                 TRA     s:20488
        31 003446   003577 710000 31                 TRA     s:20488
        31 003447   003577 710000 31                 TRA     s:20488
        31 003450   003577 710000 31                 TRA     s:20488
        31 003451   003577 710000 31                 TRA     s:20488
        31 003452   003577 710000 31                 TRA     s:20488
PL6.E3A0      #001=Z8DR$RECORD_DECL File=Z8DR.:Z8A6TSI                           SAT 08/09/97 11:18 Page:289
        31 003453   003577 710000 31                 TRA     s:20488
        31 003454   003577 710000 31                 TRA     s:20488
        31 003455   003577 710000 31                 TRA     s:20488
        31 003456   003577 710000 31                 TRA     s:20488
        31 003457   003577 710000 31                 TRA     s:20488
        31 003460   003577 710000 31                 TRA     s:20488
        31 003461   003577 710000 31                 TRA     s:20488
        31 003462   003577 710000 31                 TRA     s:20488
        31 003463   003577 710000 31                 TRA     s:20488
        31 003464   003577 710000 31                 TRA     s:20488
        31 003465   003577 710000 31                 TRA     s:20488
        31 003466   003577 710000 31                 TRA     s:20488
        31 003467   003577 710000 31                 TRA     s:20488
        31 003470   003577 710000 31                 TRA     s:20488
        31 003471   003577 710000 31                 TRA     s:20488
        31 003472   003577 710000 31                 TRA     s:20488
        31 003473   003577 710000 31                 TRA     s:20488
        31 003474   003577 710000 31                 TRA     s:20488
        31 003475   003577 710000 31                 TRA     s:20488
        31 003476   003577 710000 31                 TRA     s:20488
        31 003477   003577 710000 31                 TRA     s:20488
        31 003500   003577 710000 31                 TRA     s:20488
        31 003501   003577 710000 31                 TRA     s:20488
        31 003502   003577 710000 31                 TRA     s:20488
        31 003503   003577 710000 31                 TRA     s:20488
        31 003504   003577 710000 31                 TRA     s:20488
        31 003505   003577 710000 31                 TRA     s:20488
        31 003506   003577 710000 31                 TRA     s:20488
        31 003507   003577 710000 31                 TRA     s:20488
        31 003510   003577 710000 31                 TRA     s:20488
        31 003511   003577 710000 31                 TRA     s:20488
        31 003512   003577 710000 31                 TRA     s:20488
        31 003513   003577 710000 31                 TRA     s:20488
        31 003514   003577 710000 31                 TRA     s:20488
        31 003515   003577 710000 31                 TRA     s:20488
        31 003516   003577 710000 31                 TRA     s:20488
        31 003517   003577 710000 31                 TRA     s:20488
PL6.E3A0      #001=Z8DR$RECORD_DECL File=Z8DR.:Z8A6TSI                           SAT 08/09/97 11:18 Page:290
        31 003520   003577 710000 31                 TRA     s:20488
        31 003521   003577 710000 31                 TRA     s:20488
        31 003522   003577 710000 31                 TRA     s:20488
        31 003523   003577 710000 31                 TRA     s:20488
        31 003524   003577 710000 31                 TRA     s:20488
        31 003525   003577 710000 31                 TRA     s:20488
        31 003526   003577 710000 31                 TRA     s:20488
        31 003527   003577 710000 31                 TRA     s:20488
        31 003530   003577 710000 31                 TRA     s:20488
        31 003531   003577 710000 31                 TRA     s:20488
        31 003532   003577 710000 31                 TRA     s:20488
        31 003533   003577 710000 31                 TRA     s:20488
        31 003534   003577 710000 31                 TRA     s:20488
        31 003535   003577 710000 31                 TRA     s:20488
        31 003536   003577 710000 31                 TRA     s:20488
        31 003537   003577 710000 31                 TRA     s:20488
        31 003540   003577 710000 31                 TRA     s:20488
        31 003541   003577 710000 31                 TRA     s:20488
        31 003542   003577 710000 31                 TRA     s:20488
        31 003543   003577 710000 31                 TRA     s:20488
        31 003544   003577 710000 31                 TRA     s:20488
        31 003545   003577 710000 31                 TRA     s:20488
        31 003546   003577 710000 31                 TRA     s:20488
        31 003547   003577 710000 31                 TRA     s:20488
        31 003550   003577 710000 31                 TRA     s:20488
        31 003551   003577 710000 31                 TRA     s:20488
        31 003552   003577 710000 31                 TRA     s:20488
        31 003553   003577 710000 31                 TRA     s:20488
        31 003554   003577 710000 31                 TRA     s:20488
        31 003555   003577 710000 31                 TRA     s:20488
        31 003556   003577 710000 31                 TRA     s:20488
        31 003557   003577 710000 31                 TRA     s:20488
        31 003560   003577 710000 31                 TRA     s:20488
        31 003561   003571 710000 31                 TRA     s:20482
        31 003562   003577 710000 31                 TRA     s:20488
        31 003563   003577 710000 31                 TRA     s:20488
        31 003564   003577 710000 31                 TRA     s:20488
PL6.E3A0      #001=Z8DR$RECORD_DECL File=Z8DR.:Z8A6TSI                           SAT 08/09/97 11:18 Page:291
        31 003565   003574 710000 31                 TRA     s:20485

     1065    20478    5          CASE (%NO_USAGE);

     1066    20479    5            REDUCED_DATA.SIGN.LOCATION = O1COM.DISPLAY_SIGN_POS;

  20479 31 003566   000053 235000 xsym               LDA     O1COM+43
        31 003567   000037 755000 0                  STA     REDUCED_DATA+4
        31 003570   003600 710000 31                 TRA     s:20491

     1067    20480
     1068    20481    5          CASE (%RSV_WRD_COMP_4);

     1069    20482    5            REDUCED_DATA.SIGN.LOCATION = O1COM.COMP_4_SIGN_POS;

  20482 31 003571   000055 235000 xsym               LDA     O1COM+45
        31 003572   000037 755000 0                  STA     REDUCED_DATA+4
        31 003573   003600 710000 31                 TRA     s:20491

     1070    20483
     1071    20484    5          CASE (%RSV_WRD_COMP_8);

     1072    20485    5            REDUCED_DATA.SIGN.LOCATION = %SIGN_POS_LEADING;

  20485 31 003574   000001 235007                    LDA     1,DL
        31 003575   000037 755000 0                  STA     REDUCED_DATA+4
        31 003576   003600 710000 31                 TRA     s:20491

     1073    20486
     1074    20487    5          CASE (ELSE);

     1075    20488    5            REDUCED_DATA.SIGN.LOCATION = %SIGN_POS_TRAILING;

  20488 31 003577   000037 450000 0                  STZ     REDUCED_DATA+4

     1076    20489    5        END; /* Case */

PL6.E3A0      #001=Z8DR$RECORD_DECL File=Z8DR.:Z8A6TSI                           SAT 08/09/97 11:18 Page:292
     1077    20490
     1078    20491    4      IF CDECL$ -> LX_REC_DECL.P.SIGN$ ~= ADDR(NIL)

  20491 31 003600   000011 236100                    LDQ     9,,PR0
        31 003601   000000 116000 32                 CMPQ    0
        31 003602   003613 600000 31                 TZE     s:20496
        31 003603   000011 471500                    LDP1    9,,PR0
        31 003604   100001 473500                    LDP3    1,,PR1
        31 003605   300003 235100                    LDA     3,,PR3
        31 003606   000635 115007                    CMPA    413,DL
        31 003607   003613 601000 31                 TNZ     s:20496

     1079    20492    4      AND CDECL$ -> LX_REC_DECL.P.SIGN$ -> LX_LIST.TAIL$ ->
     1080    20493    4      LX_ITEM.SYMBOL = %RSV_WRD_SEPARATE THEN
     1081    20494    4        REDUCED_DATA.SIGN.TYPE     = %SIGN_TYPE_SEPARATE;

  20494 31 003610   000001 235007                    LDA     1,DL
        31 003611   000040 755000 0                  STA     REDUCED_DATA+5
        31 003612   004161 710000 31                 TRA     s:20507

     1082    20495    4      ELSE
     1083    20496    5        DO CASE (REDUCED_DATA.USAGE.TYPE);

  20496 31 003613   000033 235000 0                  LDA     REDUCED_DATA
        31 003614   000333 115007                    CMPA    219,DL
        31 003615   003617 602005 31                 TNC     s:20496+4,AL
        31 003616   004157 710000 31                 TRA     s:20504
        31 003617   004152 710000 31                 TRA     s:20498
        31 003620   004157 710000 31                 TRA     s:20504
        31 003621   004157 710000 31                 TRA     s:20504
        31 003622   004157 710000 31                 TRA     s:20504
        31 003623   004157 710000 31                 TRA     s:20504
        31 003624   004157 710000 31                 TRA     s:20504
        31 003625   004157 710000 31                 TRA     s:20504
        31 003626   004157 710000 31                 TRA     s:20504
        31 003627   004157 710000 31                 TRA     s:20504
        31 003630   004157 710000 31                 TRA     s:20504
PL6.E3A0      #001=Z8DR$RECORD_DECL File=Z8DR.:Z8A6TSI                           SAT 08/09/97 11:18 Page:293
        31 003631   004157 710000 31                 TRA     s:20504
        31 003632   004157 710000 31                 TRA     s:20504
        31 003633   004157 710000 31                 TRA     s:20504
        31 003634   004157 710000 31                 TRA     s:20504
        31 003635   004157 710000 31                 TRA     s:20504
        31 003636   004157 710000 31                 TRA     s:20504
        31 003637   004157 710000 31                 TRA     s:20504
        31 003640   004157 710000 31                 TRA     s:20504
        31 003641   004157 710000 31                 TRA     s:20504
        31 003642   004157 710000 31                 TRA     s:20504
        31 003643   004157 710000 31                 TRA     s:20504
        31 003644   004157 710000 31                 TRA     s:20504
        31 003645   004157 710000 31                 TRA     s:20504
        31 003646   004157 710000 31                 TRA     s:20504
        31 003647   004157 710000 31                 TRA     s:20504
        31 003650   004157 710000 31                 TRA     s:20504
        31 003651   004157 710000 31                 TRA     s:20504
        31 003652   004157 710000 31                 TRA     s:20504
        31 003653   004157 710000 31                 TRA     s:20504
        31 003654   004157 710000 31                 TRA     s:20504
        31 003655   004157 710000 31                 TRA     s:20504
        31 003656   004157 710000 31                 TRA     s:20504
        31 003657   004157 710000 31                 TRA     s:20504
        31 003660   004157 710000 31                 TRA     s:20504
        31 003661   004157 710000 31                 TRA     s:20504
        31 003662   004157 710000 31                 TRA     s:20504
        31 003663   004157 710000 31                 TRA     s:20504
        31 003664   004157 710000 31                 TRA     s:20504
        31 003665   004157 710000 31                 TRA     s:20504
        31 003666   004157 710000 31                 TRA     s:20504
        31 003667   004157 710000 31                 TRA     s:20504
        31 003670   004157 710000 31                 TRA     s:20504
        31 003671   004157 710000 31                 TRA     s:20504
        31 003672   004157 710000 31                 TRA     s:20504
        31 003673   004157 710000 31                 TRA     s:20504
        31 003674   004157 710000 31                 TRA     s:20504
        31 003675   004157 710000 31                 TRA     s:20504
PL6.E3A0      #001=Z8DR$RECORD_DECL File=Z8DR.:Z8A6TSI                           SAT 08/09/97 11:18 Page:294
        31 003676   004157 710000 31                 TRA     s:20504
        31 003677   004157 710000 31                 TRA     s:20504
        31 003700   004157 710000 31                 TRA     s:20504
        31 003701   004157 710000 31                 TRA     s:20504
        31 003702   004157 710000 31                 TRA     s:20504
        31 003703   004157 710000 31                 TRA     s:20504
        31 003704   004157 710000 31                 TRA     s:20504
        31 003705   004157 710000 31                 TRA     s:20504
        31 003706   004157 710000 31                 TRA     s:20504
        31 003707   004157 710000 31                 TRA     s:20504
        31 003710   004157 710000 31                 TRA     s:20504
        31 003711   004157 710000 31                 TRA     s:20504
        31 003712   004157 710000 31                 TRA     s:20504
        31 003713   004157 710000 31                 TRA     s:20504
        31 003714   004157 710000 31                 TRA     s:20504
        31 003715   004157 710000 31                 TRA     s:20504
        31 003716   004157 710000 31                 TRA     s:20504
        31 003717   004157 710000 31                 TRA     s:20504
        31 003720   004157 710000 31                 TRA     s:20504
        31 003721   004157 710000 31                 TRA     s:20504
        31 003722   004157 710000 31                 TRA     s:20504
        31 003723   004157 710000 31                 TRA     s:20504
        31 003724   004157 710000 31                 TRA     s:20504
        31 003725   004157 710000 31                 TRA     s:20504
        31 003726   004157 710000 31                 TRA     s:20504
        31 003727   004157 710000 31                 TRA     s:20504
        31 003730   004157 710000 31                 TRA     s:20504
        31 003731   004157 710000 31                 TRA     s:20504
        31 003732   004157 710000 31                 TRA     s:20504
        31 003733   004157 710000 31                 TRA     s:20504
        31 003734   004157 710000 31                 TRA     s:20504
        31 003735   004157 710000 31                 TRA     s:20504
        31 003736   004157 710000 31                 TRA     s:20504
        31 003737   004157 710000 31                 TRA     s:20504
        31 003740   004157 710000 31                 TRA     s:20504
        31 003741   004157 710000 31                 TRA     s:20504
        31 003742   004157 710000 31                 TRA     s:20504
PL6.E3A0      #001=Z8DR$RECORD_DECL File=Z8DR.:Z8A6TSI                           SAT 08/09/97 11:18 Page:295
        31 003743   004157 710000 31                 TRA     s:20504
        31 003744   004157 710000 31                 TRA     s:20504
        31 003745   004157 710000 31                 TRA     s:20504
        31 003746   004157 710000 31                 TRA     s:20504
        31 003747   004157 710000 31                 TRA     s:20504
        31 003750   004157 710000 31                 TRA     s:20504
        31 003751   004157 710000 31                 TRA     s:20504
        31 003752   004157 710000 31                 TRA     s:20504
        31 003753   004157 710000 31                 TRA     s:20504
        31 003754   004157 710000 31                 TRA     s:20504
        31 003755   004157 710000 31                 TRA     s:20504
        31 003756   004157 710000 31                 TRA     s:20504
        31 003757   004157 710000 31                 TRA     s:20504
        31 003760   004157 710000 31                 TRA     s:20504
        31 003761   004157 710000 31                 TRA     s:20504
        31 003762   004157 710000 31                 TRA     s:20504
        31 003763   004157 710000 31                 TRA     s:20504
        31 003764   004157 710000 31                 TRA     s:20504
        31 003765   004157 710000 31                 TRA     s:20504
        31 003766   004157 710000 31                 TRA     s:20504
        31 003767   004157 710000 31                 TRA     s:20504
        31 003770   004157 710000 31                 TRA     s:20504
        31 003771   004157 710000 31                 TRA     s:20504
        31 003772   004157 710000 31                 TRA     s:20504
        31 003773   004157 710000 31                 TRA     s:20504
        31 003774   004157 710000 31                 TRA     s:20504
        31 003775   004157 710000 31                 TRA     s:20504
        31 003776   004157 710000 31                 TRA     s:20504
        31 003777   004157 710000 31                 TRA     s:20504
        31 004000   004157 710000 31                 TRA     s:20504
        31 004001   004157 710000 31                 TRA     s:20504
        31 004002   004157 710000 31                 TRA     s:20504
        31 004003   004157 710000 31                 TRA     s:20504
        31 004004   004157 710000 31                 TRA     s:20504
        31 004005   004157 710000 31                 TRA     s:20504
        31 004006   004157 710000 31                 TRA     s:20504
        31 004007   004157 710000 31                 TRA     s:20504
PL6.E3A0      #001=Z8DR$RECORD_DECL File=Z8DR.:Z8A6TSI                           SAT 08/09/97 11:18 Page:296
        31 004010   004157 710000 31                 TRA     s:20504
        31 004011   004157 710000 31                 TRA     s:20504
        31 004012   004157 710000 31                 TRA     s:20504
        31 004013   004157 710000 31                 TRA     s:20504
        31 004014   004157 710000 31                 TRA     s:20504
        31 004015   004157 710000 31                 TRA     s:20504
        31 004016   004157 710000 31                 TRA     s:20504
        31 004017   004157 710000 31                 TRA     s:20504
        31 004020   004157 710000 31                 TRA     s:20504
        31 004021   004157 710000 31                 TRA     s:20504
        31 004022   004157 710000 31                 TRA     s:20504
        31 004023   004157 710000 31                 TRA     s:20504
        31 004024   004157 710000 31                 TRA     s:20504
        31 004025   004157 710000 31                 TRA     s:20504
        31 004026   004157 710000 31                 TRA     s:20504
        31 004027   004157 710000 31                 TRA     s:20504
        31 004030   004157 710000 31                 TRA     s:20504
        31 004031   004157 710000 31                 TRA     s:20504
        31 004032   004157 710000 31                 TRA     s:20504
        31 004033   004157 710000 31                 TRA     s:20504
        31 004034   004157 710000 31                 TRA     s:20504
        31 004035   004157 710000 31                 TRA     s:20504
        31 004036   004157 710000 31                 TRA     s:20504
        31 004037   004157 710000 31                 TRA     s:20504
        31 004040   004157 710000 31                 TRA     s:20504
        31 004041   004157 710000 31                 TRA     s:20504
        31 004042   004157 710000 31                 TRA     s:20504
        31 004043   004157 710000 31                 TRA     s:20504
        31 004044   004157 710000 31                 TRA     s:20504
        31 004045   004157 710000 31                 TRA     s:20504
        31 004046   004157 710000 31                 TRA     s:20504
        31 004047   004157 710000 31                 TRA     s:20504
        31 004050   004157 710000 31                 TRA     s:20504
        31 004051   004157 710000 31                 TRA     s:20504
        31 004052   004157 710000 31                 TRA     s:20504
        31 004053   004157 710000 31                 TRA     s:20504
        31 004054   004157 710000 31                 TRA     s:20504
PL6.E3A0      #001=Z8DR$RECORD_DECL File=Z8DR.:Z8A6TSI                           SAT 08/09/97 11:18 Page:297
        31 004055   004155 710000 31                 TRA     s:20501
        31 004056   004157 710000 31                 TRA     s:20504
        31 004057   004157 710000 31                 TRA     s:20504
        31 004060   004157 710000 31                 TRA     s:20504
        31 004061   004157 710000 31                 TRA     s:20504
        31 004062   004157 710000 31                 TRA     s:20504
        31 004063   004157 710000 31                 TRA     s:20504
        31 004064   004157 710000 31                 TRA     s:20504
        31 004065   004157 710000 31                 TRA     s:20504
        31 004066   004157 710000 31                 TRA     s:20504
        31 004067   004157 710000 31                 TRA     s:20504
        31 004070   004157 710000 31                 TRA     s:20504
        31 004071   004157 710000 31                 TRA     s:20504
        31 004072   004157 710000 31                 TRA     s:20504
        31 004073   004157 710000 31                 TRA     s:20504
        31 004074   004157 710000 31                 TRA     s:20504
        31 004075   004157 710000 31                 TRA     s:20504
        31 004076   004157 710000 31                 TRA     s:20504
        31 004077   004157 710000 31                 TRA     s:20504
        31 004100   004157 710000 31                 TRA     s:20504
        31 004101   004157 710000 31                 TRA     s:20504
        31 004102   004157 710000 31                 TRA     s:20504
        31 004103   004157 710000 31                 TRA     s:20504
        31 004104   004157 710000 31                 TRA     s:20504
        31 004105   004157 710000 31                 TRA     s:20504
        31 004106   004157 710000 31                 TRA     s:20504
        31 004107   004157 710000 31                 TRA     s:20504
        31 004110   004157 710000 31                 TRA     s:20504
        31 004111   004157 710000 31                 TRA     s:20504
        31 004112   004157 710000 31                 TRA     s:20504
        31 004113   004157 710000 31                 TRA     s:20504
        31 004114   004157 710000 31                 TRA     s:20504
        31 004115   004157 710000 31                 TRA     s:20504
        31 004116   004157 710000 31                 TRA     s:20504
        31 004117   004157 710000 31                 TRA     s:20504
        31 004120   004157 710000 31                 TRA     s:20504
        31 004121   004157 710000 31                 TRA     s:20504
PL6.E3A0      #001=Z8DR$RECORD_DECL File=Z8DR.:Z8A6TSI                           SAT 08/09/97 11:18 Page:298
        31 004122   004157 710000 31                 TRA     s:20504
        31 004123   004157 710000 31                 TRA     s:20504
        31 004124   004157 710000 31                 TRA     s:20504
        31 004125   004157 710000 31                 TRA     s:20504
        31 004126   004157 710000 31                 TRA     s:20504
        31 004127   004157 710000 31                 TRA     s:20504
        31 004130   004157 710000 31                 TRA     s:20504
        31 004131   004157 710000 31                 TRA     s:20504
        31 004132   004157 710000 31                 TRA     s:20504
        31 004133   004157 710000 31                 TRA     s:20504
        31 004134   004157 710000 31                 TRA     s:20504
        31 004135   004157 710000 31                 TRA     s:20504
        31 004136   004157 710000 31                 TRA     s:20504
        31 004137   004157 710000 31                 TRA     s:20504
        31 004140   004157 710000 31                 TRA     s:20504
        31 004141   004157 710000 31                 TRA     s:20504
        31 004142   004157 710000 31                 TRA     s:20504
        31 004143   004157 710000 31                 TRA     s:20504
        31 004144   004157 710000 31                 TRA     s:20504
        31 004145   004157 710000 31                 TRA     s:20504
        31 004146   004157 710000 31                 TRA     s:20504
        31 004147   004157 710000 31                 TRA     s:20504
        31 004150   004157 710000 31                 TRA     s:20504
        31 004151   004155 710000 31                 TRA     s:20501

     1084    20497    5          CASE (%NO_USAGE);

     1085    20498    5            REDUCED_DATA.SIGN.TYPE = O1COM.DISPLAY_SIGN_TYPE;

  20498 31 004152   000054 235000 xsym               LDA     O1COM+44
        31 004153   000040 755000 0                  STA     REDUCED_DATA+5
        31 004154   004161 710000 31                 TRA     s:20507

     1086    20499
     1087    20500    5          CASE (%RSV_WRD_EBCDIC, %RSV_WRD_GBCD);

     1088    20501    5            REDUCED_DATA.SIGN.TYPE = %SIGN_TYPE_OVERPUNCH;
PL6.E3A0      #001=Z8DR$RECORD_DECL File=Z8DR.:Z8A6TSI                           SAT 08/09/97 11:18 Page:299

  20501 31 004155   000040 450000 0                  STZ     REDUCED_DATA+5
        31 004156   004161 710000 31                 TRA     s:20507

     1089    20502
     1090    20503    5          CASE (ELSE);

     1091    20504    5            REDUCED_DATA.SIGN.TYPE = %SIGN_TYPE_SEPARATE;

  20504 31 004157   000001 235007                    LDA     1,DL
        31 004160   000040 755000 0                  STA     REDUCED_DATA+5

     1092    20505    5        END; /* Case */

     1093    20506
     1094    20507    4      IF CDECL$ -> LX_REC_DECL.P.SIGN$ ~= ADDR(NIL) THEN

  20507 31 004161   000011 236100                    LDQ     9,,PR0
        31 004162   000000 116000 32                 CMPQ    0
        31 004163   004176 600000 31                 TZE     s:20516

     1095    20508    5        DO;

     1096    20509    5          REDUCED_DATA.B.SIGN_PRESENT  = TRUE;

  20509 31 004164   000004 236003                    LDQ     4,DU
        31 004165   000060 256000 0                  ORSQ    REDUCED_DATA+21

     1097    20510    5          REDUCED_DATA.SIGN.LINE       = CDECL$ -> LX_REC_DECL.P.SIGN$ ->

  20510 31 004166   000011 471500                    LDP1    9,,PR0
        31 004167   100004 473500                    LDP3    4,,PR1
        31 004170   300005 235100                    LDA     5,,PR3
        31 004171   000041 755000 0                  STA     REDUCED_DATA+6

     1098    20511    5                                         LX_LIST.HEAD$ -> LX_ITEM.LINE;
     1099    20512    5          REDUCED_DATA.SIGN.COLUMN     = CDECL$ -> LX_REC_DECL.P.SIGN$ ->
PL6.E3A0      #001=Z8DR$RECORD_DECL File=Z8DR.:Z8A6TSI                           SAT 08/09/97 11:18 Page:300

  20512 31 004172   000011 471500                    LDP1    9,,PR0
        31 004173   100004 473500                    LDP3    4,,PR1
        31 004174   300006 235100                    LDA     6,,PR3
        31 004175   000042 755000 0                  STA     REDUCED_DATA+7

     1100    20513    5                                         LX_LIST.HEAD$ -> LX_ITEM.COLUMN;
     1101    20514    5        END;

     1102    20515
     1103    20516    4   END EXTRACT_SIGN;

  20516 31 004176   000001 702211                    TSX2  ! 1,X1

     1104    20517        %EJECT;
PL6.E3A0      #001=Z8DR$RECORD_DECL File=Z8DR.:Z8A6TSI                           SAT 08/09/97 11:18 Page:301
     1105    20518        /*==============*/
     1106    20519    3     EXTRACT_OCCURS: PROC;

  20519 31 004177   000176 741200 0     EXTRACT_OCC* STX1  ! INDEX#+2

     1107    20520        /*==============*/
     1108    20521
     1109    20522    4   DCL OCCURS_INT1$              PTR;
     1110    20523    4   DCL OCCURS_INT2$              PTR;
     1111    20524
     1112    20525    4      OCCURS_INT1$ = CDECL$ -> LX_REC_DECL.P.OCCURS$ ->

  20525 31 004200   000160 470400 0                  LDP0    CDECL$
        31 004201   000007 471500                    LDP1    7,,PR0
        31 004202   100004 473500                    LDP3    4,,PR1
        31 004203   300004 236100                    LDQ     4,,PR3
        31 004204   000177 756000 0                  STQ     OCCURS_INT1$

     1113    20526    4                     LX_LIST.HEAD$ -> LX_LIST.HEAD$;
     1114    20527    4      OCCURS_INT2$ = CDECL$ -> LX_REC_DECL.P.OCCURS$ ->

  20527 31 004205   300004 474500                    LDP4    4,,PR3
        31 004206   400007 236100                    LDQ     7,,PR4
        31 004207   000200 756000 0                  STQ     OCCURS_INT2$

     1115    20528    4                     LX_LIST.HEAD$ -> LX_LIST.HEAD$ -> LX_ITEM.LINK;
     1116    20529
     1117    20530    4      CALL CHARBIN (REDUCED_DATA.OCCURS.INT1,

  20530 31 004210   000177 475400 0                  LDP5    OCCURS_INT1$
        31 004211   500002 476500                    LDP6    2,,PR5
        31 004212   600004 220100                    LDX0    4,,PR6
        31 004213   000000 305540                    DTB
        31 004214   600004 430010                    NDSC9   4,,PR6                   cn=2,s=nosgn,sf=0,n=*X0
        31 004215   000053 000004 0                  NDSC9   REDUCED_DATA+16          cn=0,s=lsgnf,sf=0,n=4

     1118    20531    4                    OCCURS_INT1$ -> LX_TERMINAL.DNT$ -> DNT.TEXT.NAME);
PL6.E3A0      #001=Z8DR$RECORD_DECL File=Z8DR.:Z8A6TSI                           SAT 08/09/97 11:18 Page:302
     1119    20532
     1120    20533    4      IF OCCURS_INT2$ ~= ADDR(NIL) THEN

  20533 31 004216   000000 116000 32                 CMPQ    0
        31 004217   004227 600000 31                 TZE     s:20537

     1121    20534    4        CALL CHARBIN (REDUCED_DATA.OCCURS.INT2,

  20534 31 004220   000200 471400 0                  LDP1    OCCURS_INT2$
        31 004221   100002 473500                    LDP3    2,,PR1
        31 004222   300004 220100                    LDX0    4,,PR3
        31 004223   000000 305540                    DTB
        31 004224   300004 430010                    NDSC9   4,,PR3                   cn=2,s=nosgn,sf=0,n=*X0
        31 004225   000054 000004 0                  NDSC9   REDUCED_DATA+17          cn=0,s=lsgnf,sf=0,n=4
        31 004226   004231 710000 31                 TRA     s:20539

     1122    20535    4                      OCCURS_INT2$ -> LX_TERMINAL.DNT$ -> DNT.TEXT.NAME);
     1123    20536    4      ELSE
     1124    20537    4        REDUCED_DATA.OCCURS.INT2 = REDUCED_DATA.OCCURS.INT1;

  20537 31 004227   000053 235000 0                  LDA     REDUCED_DATA+16
        31 004230   000054 755000 0                  STA     REDUCED_DATA+17

     1125    20538
     1126    20539    4      REDUCED_DATA.OCCURS.DEPENDING$ = CDECL$ -> LX_REC_DECL.P.OCCURS$ ->

  20539 31 004231   000007 471500                    LDP1    7,,PR0
        31 004232   100004 473500                    LDP3    4,,PR1
        31 004233   300007 236100                    LDQ     7,,PR3
        31 004234   000055 756000 0                  STQ     REDUCED_DATA+18

     1127    20540    4                                       LX_LIST.HEAD$ -> LX_LIST.LINK;
     1128    20541
     1129    20542    4   END EXTRACT_OCCURS;

  20542 31 004235   000001 702211                    TSX2  ! 1,X1

PL6.E3A0      #001=Z8DR$RECORD_DECL File=Z8DR.:Z8A6TSI                           SAT 08/09/97 11:18 Page:303
     1130    20543        %EJECT;
PL6.E3A0      #001=Z8DR$RECORD_DECL File=Z8DR.:Z8A6TSI                           SAT 08/09/97 11:18 Page:304
     1131    20544
     1132    20545        /* Main Body */
     1133    20546
     1134    20547
     1135    20548
     1136    20549    3        CALL EXTRACT_LEVEL;

  20549 31 004236   002517 701000 31                 TSX1    EXTRACT_LEVEL
        31 004237   000000 011000                    NOP     0

     1137    20550    3        CALL EXTRACT_USAGE;

  20550 31 004240   002445 701000 31                 TSX1    EXTRACT_USAGE
        31 004241   000000 011000                    NOP     0

     1138    20551
     1139    20552    3        IF CDECL$ -> LX_REC_DECL.P.PIC_CLAUSE$ ~= ADDR(NIL) THEN

  20552 31 004242   000160 470400 0                  LDP0    CDECL$
        31 004243   000004 236100                    LDQ     4,,PR0
        31 004244   000000 116000 32                 CMPQ    0
        31 004245   004250 600000 31                 TZE     s:20555

     1140    20553    3          CALL EXTRACT_PIC;

  20553 31 004246   003167 701000 31                 TSX1    EXTRACT_PIC
        31 004247   000000 011000                    NOP     0

     1141    20554
     1142    20555    3        CALL EXTRACT_SIGN;

  20555 31 004250   003371 701000 31                 TSX1    EXTRACT_SIGN
        31 004251   000000 011000                    NOP     0

     1143    20556
     1144    20557    3        IF CDECL$ -> LX_REC_DECL.P.OCCURS$ ~= ADDR(NIL) THEN

PL6.E3A0      #001=Z8DR$RECORD_DECL File=Z8DR.:Z8A6TSI                           SAT 08/09/97 11:18 Page:305
  20557 31 004252   000160 470400 0                  LDP0    CDECL$
        31 004253   000007 236100                    LDQ     7,,PR0
        31 004254   000000 116000 32                 CMPQ    0
        31 004255   004260 600000 31                 TZE     s:20560

     1145    20558    3          CALL EXTRACT_OCCURS;

  20558 31 004256   004177 701000 31                 TSX1    EXTRACT_OCCURS
        31 004257   000000 011000                    NOP     0

     1146    20559
     1147    20560    3   END DATA_REDUCTION;

  20560 31 004260   000162 221200 0                  LDX1  ! NDECL$+1
        31 004261   000001 702211                    TSX2  ! 1,X1

     1148    20561        %EJECT;
PL6.E3A0      #001=Z8DR$RECORD_DECL File=Z8DR.:Z8A6TSI                           SAT 08/09/97 11:18 Page:306
     1149    20562        /*****************************************************************
     1150    20563         *                                                               *
     1151    20564         *                     RECORD_VALIDATION                    *
     1152    20565         *                                                               *
     1153    20566         *                     **********************                    *
     1154    20567         *                                                               *
     1155    20568         *****************************************************************/
     1156    20569        %EJECT;
PL6.E3A0      #001=Z8DR$RECORD_DECL File=Z8DR.:Z8A6TSI                           SAT 08/09/97 11:18 Page:307
     1157    20570        /*=================*/
     1158    20571    2     RECORD_VALIDATION: PROC;

  20571 31 004262   000201 741200 0     RECORD_VALI* STX1  ! OCCURS_INT2$+1
        31 004263   016571 710000 31                 TRA     s:25641

     1159    20572        /*=================*/
     1160    20573
     1161    20574
     1162    20575        %EJECT;
PL6.E3A0      #001=Z8DR$RECORD_DECL File=Z8DR.:Z8A6TSI                           SAT 08/09/97 11:18 Page:308
     1163    20576
     1164    20577
     1165    20578        /* Internal Procedures */
     1166    20579
     1167    20580        /*============*/
     1168    20581    3     VERIFY_ORDER: PROC (DN2_ST$, DN3_ST$, RENAMES$) ALTRET;

  20581 31 004264   000202 741200 0     VERIFY_ORDER STX1  ! OCCURS_INT2$+2

     1169    20582        /*============*/
     1170    20583
     1171    20584    4   DCL RENAMES$           PTR;
     1172    20585    4   DCL DN2_ST$            PTR;
     1173    20586    4   DCL DN3_ST$            PTR;
     1174    20587
     1175    20588    4   DCL SEARCH_QLT$        PTR;
     1176    20589    4   DCL START_FOUND        BOOLEAN;
     1177    20590
     1178    20591
     1179    20592    4      START_FOUND = FALSE;

  20592 31 004265   000207 450000 0                  STZ     START_FOUND

     1180    20593    4      SEARCH_QLT$ = HIER_STK.QLT$(1);

  20593 31 004266   000005 236000 xsym               LDQ     HIER_STK+5
        31 004267   000206 756000 0                  STQ     SEARCH_QLT$

     1181    20594
     1182    20595    5      DO WHILE (SEARCH_QLT$ ~= ADDR(NIL));

  20595 31 004270   004355 710000 31                 TRA     s:20651

     1183    20596    5        IF SEARCH_QLT$ -> QLT.ST$ = DN3_ST$

  20596 31 004271   000206 470400 0                  LDP0    SEARCH_QLT$
        31 004272   000204 471400 0                  LDP1    @DN3_ST$
PL6.E3A0      #001=Z8DR$RECORD_DECL File=Z8DR.:Z8A6TSI                           SAT 08/09/97 11:18 Page:309
        31 004273   000004 236100                    LDQ     4,,PR0
        31 004274   100000 116100                    CMPQ    0,,PR1
        31 004275   004300 601000 31                 TNZ     s:20600
        31 004276   000207 234000 0                  SZN     START_FOUND
        31 004277   004360 604000 31                 TMI     s:20653

     1184    20597    5        AND START_FOUND THEN
     1185    20598    5          EXIT;
     1186    20599
     1187    20600    5        IF SEARCH_QLT$ -> QLT.ST$ = DN2_ST$ THEN

  20600 31 004300   000203 473400 0                  LDP3    @DN2_ST$
        31 004301   300000 116100                    CMPQ    0,,PR3
        31 004302   004306 601000 31                 TNZ     s:20603

     1188    20601    5          START_FOUND = TRUE;

  20601 31 004303   400000 236003                    LDQ     -131072,DU
        31 004304   000207 756000 0                  STQ     START_FOUND
        31 004305   004335 710000 31                 TRA     s:20643

     1189    20602    5        ELSE
     1190    20603    5          IF SEARCH_QLT$ -> QLT.ST$ = DN3_ST$ THEN

  20603 31 004306   100000 116100                    CMPQ    0,,PR1
        31 004307   004335 601000 31                 TNZ     s:20643

     1191    20604    6            DO;

     1192    20605                   %CONDITIONAL_ERROR (@LX_ITEM$ = RENAMES$,
     1193    20606                                       @ERROR#   = %E$END_RENAMES_FOUND_FIRST,
     1194    20607                                       @LINE     = RENAMES$ -> LX_ITEM.LINE,
     1195    20608                                       @COLUMN   = RENAMES$ -> LX_ITEM.COLUMN);

  20618 31 004310   000205 474400 0                  LDP4    @RENAMES$
        31 004311   400000 475500                    LDP5    0,,PR4
        31 004312   500000 236100                    LDQ     0,,PR5
PL6.E3A0      #001=Z8DR$RECORD_DECL File=Z8DR.:Z8A6TSI                           SAT 08/09/97 11:18 Page:310
        31 004313   400000 316007                    CANQ    -131072,DL
        31 004314   004333 601000 31                 TNZ     s:20638

  20620 31 004315   500006 636500                    EPPR6   6,,PR5
        31 004316   000574 456400 0                  STP6    P$+3
        31 004317   500005 637500                    EPPR7   5,,PR5
        31 004320   000573 457400 0                  STP7    P$+2
        31 004321   000063 236000 32                 LDQ     51
        31 004322   000572 756000 0                  STQ     P$+1
        31 004323   000572 630400 0                  EPPR0   P$+1
        31 004324   000001 631400 32                 EPPR1   1
        31 004325   000000 701000 xent               TSX1    Z8AE$ERROR
        31 004326   000000 011000                    NOP     0

  20629 31 004327   000205 470400 0                  LDP0    @RENAMES$
        31 004330   000000 471500                    LDP1    0,,PR0
        31 004331   400000 236007                    LDQ     -131072,DL
        31 004332   100000 256100                    ORSQ    0,,PR1

     1196    20638    6              ALTRETURN;

  20638 31 004333   000202 221200 0                  LDX1  ! OCCURS_INT2$+2
        31 004334   000000 702211                    TSX2  ! 0,X1

     1197    20639    6            END;
     1198    20640
     1199    20641             %STEP_QLT (POINTER = SEARCH_QLT$);

  20643 31 004335   000206 236000 0                  LDQ     SEARCH_QLT$
        31 004336   000006 036003                    ADLQ    6,DU
        31 004337   000206 756000 0                  STQ     SEARCH_QLT$

  20644 31 004340   000002 236000 6                  LDQ     QLT_+2
        31 004341   000022 736000                    QLS     18
        31 004342   000001 036000 6                  ADLQ    QLT_+1
        31 004343   000206 116000 0                  CMPQ    SEARCH_QLT$
        31 004344   004350 601000 31                 TNZ     s:20647
PL6.E3A0      #001=Z8DR$RECORD_DECL File=Z8DR.:Z8A6TSI                           SAT 08/09/97 11:18 Page:311

  20645 31 004345   000000 236000 32                 LDQ     0
        31 004346   000206 756000 0                  STQ     SEARCH_QLT$
        31 004347   004355 710000 31                 TRA     s:20651

  20647 31 004350   000206 470400 0                  LDP0    SEARCH_QLT$
        31 004351   000000 220100                    LDX0    0,,PR0
        31 004352   004355 601000 31                 TNZ     s:20651

  20648 31 004353   000001 236100                    LDQ     1,,PR0
        31 004354   000206 756000 0                  STQ     SEARCH_QLT$

     1200    20651    5      END; /* While -- search_qlt$ ~= addr(nil) */

  20651 31 004355   000206 236000 0                  LDQ     SEARCH_QLT$
        31 004356   000000 116000 32                 CMPQ    0
        31 004357   004271 601000 31                 TNZ     s:20596

     1201    20652
     1202    20653    4      IF SEARCH_QLT$ = ADDR(NIL) THEN

  20653 31 004360   000206 236000 0                  LDQ     SEARCH_QLT$
        31 004361   000000 116000 32                 CMPQ    0
        31 004362   004410 601000 31                 TNZ     s:20691

     1203    20654    5        DO;

     1204    20655               %CONDITIONAL_ERROR (@LX_ITEM$ = RENAMES$,
     1205    20656                                   @ERROR#   = %E$RENAME_MUST_FOLLOW_01,
     1206    20657                                   @LINE     = RENAMES$ -> LX_ITEM.LINE,
     1207    20658                                   @COLUMN   = RENAMES$ -> LX_ITEM.COLUMN);

  20668 31 004363   000205 470400 0                  LDP0    @RENAMES$
        31 004364   000000 471500                    LDP1    0,,PR0
        31 004365   100000 236100                    LDQ     0,,PR1
        31 004366   400000 316007                    CANQ    -131072,DL
        31 004367   004406 601000 31                 TNZ     s:20688
PL6.E3A0      #001=Z8DR$RECORD_DECL File=Z8DR.:Z8A6TSI                           SAT 08/09/97 11:18 Page:312

  20670 31 004370   100006 633500                    EPPR3   6,,PR1
        31 004371   000574 453400 0                  STP3    P$+3
        31 004372   100005 634500                    EPPR4   5,,PR1
        31 004373   000573 454400 0                  STP4    P$+2
        31 004374   000065 236000 32                 LDQ     53
        31 004375   000572 756000 0                  STQ     P$+1
        31 004376   000572 630400 0                  EPPR0   P$+1
        31 004377   000001 631400 32                 EPPR1   1
        31 004400   000000 701000 xent               TSX1    Z8AE$ERROR
        31 004401   000000 011000                    NOP     0

  20679 31 004402   000205 470400 0                  LDP0    @RENAMES$
        31 004403   000000 471500                    LDP1    0,,PR0
        31 004404   400000 236007                    LDQ     -131072,DL
        31 004405   100000 256100                    ORSQ    0,,PR1

     1208    20688    5          ALTRETURN;

  20688 31 004406   000202 221200 0                  LDX1  ! OCCURS_INT2$+2
        31 004407   000000 702211                    TSX2  ! 0,X1

     1209    20689    5        END;
     1210    20690
     1211    20691    4      SEARCH_QLT$ = SEARCH_QLT$ -> QLT.FATHER;

  20691 31 004410   000206 470400 0                  LDP0    SEARCH_QLT$
        31 004411   000001 236100                    LDQ     1,,PR0
        31 004412   000206 756000 0                  STQ     SEARCH_QLT$

     1212    20692
     1213    20693    5      DO WHILE (SEARCH_QLT$ ~= ADDR(NIL));

  20693 31 004413   004501 710000 31                 TRA     s:20771

     1214    20694    5        IF SEARCH_QLT$ -> QLT.ST$ -> ARRAY.ID = %ARRAY THEN

PL6.E3A0      #001=Z8DR$RECORD_DECL File=Z8DR.:Z8A6TSI                           SAT 08/09/97 11:18 Page:313
  20694 31 004414   000206 470400 0                  LDP0    SEARCH_QLT$
        31 004415   000004 471500                    LDP1    4,,PR0
        31 004416   100000 220100                    LDX0    0,,PR1
        31 004417   000765 100003                    CMPX0   501,DU
        31 004420   004446 601000 31                 TNZ     s:20732

     1215    20695    6          DO;

     1216    20696                 %CONDITIONAL_ERROR (@LX_ITEM$ = RENAMES$,
     1217    20697                                     @ERROR#   = %E$OCCURS_IN_RENAMES,
     1218    20698                                     @LINE     = RENAMES$ -> LX_ITEM.LINE,
     1219    20699                                     @COLUMN   = RENAMES$ -> LX_ITEM.COLUMN);

  20709 31 004421   000205 473400 0                  LDP3    @RENAMES$
        31 004422   300000 474500                    LDP4    0,,PR3
        31 004423   400000 236100                    LDQ     0,,PR4
        31 004424   400000 316007                    CANQ    -131072,DL
        31 004425   004444 601000 31                 TNZ     s:20729

  20711 31 004426   400006 635500                    EPPR5   6,,PR4
        31 004427   000574 455400 0                  STP5    P$+3
        31 004430   400005 631500                    EPPR1   5,,PR4
        31 004431   000573 451400 0                  STP1    P$+2
        31 004432   000067 236000 32                 LDQ     55
        31 004433   000572 756000 0                  STQ     P$+1
        31 004434   000572 630400 0                  EPPR0   P$+1
        31 004435   000001 631400 32                 EPPR1   1
        31 004436   000000 701000 xent               TSX1    Z8AE$ERROR
        31 004437   000000 011000                    NOP     0

  20720 31 004440   000205 470400 0                  LDP0    @RENAMES$
        31 004441   000000 471500                    LDP1    0,,PR0
        31 004442   400000 236007                    LDQ     -131072,DL
        31 004443   100000 256100                    ORSQ    0,,PR1

     1220    20729    6            ALTRETURN;

PL6.E3A0      #001=Z8DR$RECORD_DECL File=Z8DR.:Z8A6TSI                           SAT 08/09/97 11:18 Page:314
  20729 31 004444   000202 221200 0                  LDX1  ! OCCURS_INT2$+2
        31 004445   000000 702211                    TSX2  ! 0,X1

     1221    20730    6          END;
     1222    20731    5        ELSE
     1223    20732    5          IF SEARCH_QLT$ -> QLT.ST$ = DN2_ST$ THEN

  20732 31 004446   000203 473400 0                  LDP3    @DN2_ST$
        31 004447   000004 236100                    LDQ     4,,PR0
        31 004450   300000 116100                    CMPQ    0,,PR3
        31 004451   004477 601000 31                 TNZ     s:20770

     1224    20733    6            DO;

     1225    20734                   %CONDITIONAL_ERROR (@LX_ITEM$ = RENAMES$,
     1226    20735                                       @ERROR#   = %E$RENAME_START_CONTAIN_END,
     1227    20736                                       @LINE     = RENAMES$ -> LX_ITEM.LINE,
     1228    20737                                       @COLUMN   = RENAMES$ -> LX_ITEM.COLUMN);

  20747 31 004452   000205 474400 0                  LDP4    @RENAMES$
        31 004453   400000 475500                    LDP5    0,,PR4
        31 004454   500000 236100                    LDQ     0,,PR5
        31 004455   400000 316007                    CANQ    -131072,DL
        31 004456   004475 601000 31                 TNZ     s:20767

  20749 31 004457   500006 636500                    EPPR6   6,,PR5
        31 004460   000574 456400 0                  STP6    P$+3
        31 004461   500005 631500                    EPPR1   5,,PR5
        31 004462   000573 451400 0                  STP1    P$+2
        31 004463   000071 236000 32                 LDQ     57
        31 004464   000572 756000 0                  STQ     P$+1
        31 004465   000572 630400 0                  EPPR0   P$+1
        31 004466   000001 631400 32                 EPPR1   1
        31 004467   000000 701000 xent               TSX1    Z8AE$ERROR
        31 004470   000000 011000                    NOP     0

  20758 31 004471   000205 470400 0                  LDP0    @RENAMES$
PL6.E3A0      #001=Z8DR$RECORD_DECL File=Z8DR.:Z8A6TSI                           SAT 08/09/97 11:18 Page:315
        31 004472   000000 471500                    LDP1    0,,PR0
        31 004473   400000 236007                    LDQ     -131072,DL
        31 004474   100000 256100                    ORSQ    0,,PR1

     1229    20767    6              ALTRETURN;

  20767 31 004475   000202 221200 0                  LDX1  ! OCCURS_INT2$+2
        31 004476   000000 702211                    TSX2  ! 0,X1

     1230    20768    6            END;
     1231    20769
     1232    20770    5        SEARCH_QLT$ = SEARCH_QLT$ -> QLT.FATHER;

  20770 31 004477   000001 236100                    LDQ     1,,PR0
        31 004500   000206 756000 0                  STQ     SEARCH_QLT$

     1233    20771    5      END; /* While -- search_qlt$ ~= addr(nil) */

  20771 31 004501   000000 116000 32                 CMPQ    0
        31 004502   004414 601000 31                 TNZ     s:20694

     1234    20772
     1235    20773    4   END VERIFY_ORDER;

  20773 31 004503   000202 221200 0                  LDX1  ! OCCURS_INT2$+2
        31 004504   000001 702211                    TSX2  ! 1,X1

     1236    20774        %EJECT;
PL6.E3A0      #001=Z8DR$RECORD_DECL File=Z8DR.:Z8A6TSI                           SAT 08/09/97 11:18 Page:316
     1237    20775        /*==================*/
     1238    20776    3     CHECK_REDEF_OBJECT: PROC (TARGET_BRO$, OBJ_DNT$, OBJECT_ST$) ALTRET;

  20776 31 004505   000210 741200 0     CHECK_REDEF* STX1  ! START_FOUND+1

     1239    20777        /*==================*/
     1240    20778
     1241    20779    4   DCL TARGET_BRO$               PTR;
     1242    20780    4   DCL OBJ_DNT$                  PTR;
     1243    20781    4   DCL OBJECT_ST$                PTR;
     1244    20782
     1245    20783    4   DCL OBJ_BRO$                  PTR;
     1246    20784    4   DCL TARGET_FOUND              BOOLEAN;
     1247    20785
     1248    20786
     1249    20787    4      OBJECT_ST$ = OBJ_DNT$ -> DNT.ST$;

  20787 31 004506   000212 470400 0                  LDP0    @OBJ_DNT$
        31 004507   000000 471500                    LDP1    0,,PR0
        31 004510   100001 236100                    LDQ     1,,PR1
        31 004511   000213 473400 0                  LDP3    @OBJECT_ST$
        31 004512   300000 756100                    STQ     0,,PR3

     1250    20788
     1251    20789    4   ST_SEARCH:
     1252    20790    5      DO WHILE (OBJECT_ST$ ~= ADDR(NIL));

  20790 31 004513   004572 710000 31    ST_SEARCH    TRA     s:20817

     1253    20791    5        IF OBJECT_ST$ -> SCALAR.QLT$ -> QLT.LEVEL_NO

  20791 31 004514   000213 470400 0                  LDP0    @OBJECT_ST$
        31 004515   000000 471500                    LDP1    0,,PR0
        31 004516   100007 473500                    LDP3    7,,PR1
        31 004517   300000 236100                    LDQ     0,,PR3
        31 004520   000777 376007                    ANQ     511,DL
        31 004521   000034 116000 0                  CMPQ    REDUCED_DATA+1
PL6.E3A0      #001=Z8DR$RECORD_DECL File=Z8DR.:Z8A6TSI                           SAT 08/09/97 11:18 Page:317
        31 004522   004526 600000 31                 TZE     s:20795

     1254    20792    5        ~= REDUCED_DATA.LEVEL.CURRENT THEN
     1255    20793    5          OBJECT_ST$ = OBJECT_ST$ -> SCALAR.NEXT;

  20793 31 004523   100004 236100                    LDQ     4,,PR1
        31 004524   000000 756100                    STQ     0,,PR0
        31 004525   004572 710000 31                 TRA     s:20817

     1256    20794    5        ELSE
     1257    20795    5          IF NOT OBJECT_ST$ -> SCALAR.B.REDEF_OBJ AND

  20795 31 004526   100003 236100                    LDQ     3,,PR1
        31 004527   000400 316003                    CANQ    256,DU
        31 004530   004540 601000 31                 TNZ     s:20801
        31 004531   000032 234000 xsym               SZN     COMCOM+26
        31 004532   004535 605000 31                 TPL     s:20798
        31 004533   100003 430100                    FSZN    3,,PR1
        31 004534   004540 604000 31                 TMI     s:20801

     1258    20796    5             NOT ( COMCOM.OB.IBM  AND
     1259    20797    5                   OBJECT_ST$ -> SCALAR.B.REDEF_SUB ) THEN
     1260    20798    5            OBJECT_ST$ = OBJECT_ST$ -> SCALAR.NEXT;

  20798 31 004535   100004 236100                    LDQ     4,,PR1
        31 004536   000000 756100                    STQ     0,,PR0
        31 004537   004572 710000 31                 TRA     s:20817

     1261    20799    5          ELSE
     1262    20800    6            DO;

     1263    20801    6              OBJ_BRO$ = OBJECT_ST$ -> SCALAR.QLT$ -> QLT.BROTHER;

  20801 31 004540   300002 236100                    LDQ     2,,PR3
        31 004541   000214 756000 0                  STQ     OBJ_BRO$

     1264    20802
PL6.E3A0      #001=Z8DR$RECORD_DECL File=Z8DR.:Z8A6TSI                           SAT 08/09/97 11:18 Page:318
     1265    20803    6   BRO_SEARCH:
     1266    20804    7              DO WHILE (OBJ_BRO$ ~= ADDR(NIL));

  20804 31 004542   004564 710000 31    BRO_SEARCH   TRA     s:20813

     1267    20805    7                IF OBJ_BRO$ = TARGET_BRO$

  20805 31 004543   000211 470400 0                  LDP0    @TARGET_BRO$
        31 004544   000214 236000 0                  LDQ     OBJ_BRO$
        31 004545   000000 116100                    CMPQ    0,,PR0
        31 004546   004555 601000 31                 TNZ     s:20809
        31 004547   000214 471400 0                  LDP1    OBJ_BRO$
        31 004550   100004 473500                    LDP3    4,,PR1
        31 004551   300003 430100                    FSZN    3,,PR3
        31 004552   004555 605000 31                 TPL     s:20809

     1268    20806    7                  AND OBJ_BRO$ -> QLT.ST$ -> SCALAR.B.REDEF_SUB THEN
     1269    20807    7                  RETURN;

  20807 31 004553   000210 221200 0                  LDX1  ! START_FOUND+1
        31 004554   000001 702211                    TSX2  ! 1,X1

     1270    20808    7                ELSE
     1271    20809    7                  IF OBJ_BRO$ -> QLT.ST$ -> SCALAR.B.REDEF_SUB THEN

  20809 31 004555   000214 471400 0                  LDP1    OBJ_BRO$
        31 004556   100004 473500                    LDP3    4,,PR1
        31 004557   300003 430100                    FSZN    3,,PR3
        31 004560   004566 605000 31                 TPL     s:20815

     1272    20810    7                    OBJ_BRO$ = OBJ_BRO$ -> QLT.BROTHER;

  20810 31 004561   100002 236100                    LDQ     2,,PR1
        31 004562   000214 756000 0                  STQ     OBJ_BRO$
        31 004563   004564 710000 31                 TRA     s:20813

     1273    20811    7                  ELSE
PL6.E3A0      #001=Z8DR$RECORD_DECL File=Z8DR.:Z8A6TSI                           SAT 08/09/97 11:18 Page:319
     1274    20812    7                    EXIT BRO_SEARCH;
     1275    20813    7              END BRO_SEARCH;

  20813 31 004564   000000 116000 32                 CMPQ    0
        31 004565   004543 601000 31                 TNZ     s:20805

     1276    20814
     1277    20815    6              OBJECT_ST$ = OBJECT_ST$ -> SCALAR.NEXT;

  20815 31 004566   000213 470400 0                  LDP0    @OBJECT_ST$
        31 004567   000000 471500                    LDP1    0,,PR0
        31 004570   100004 236100                    LDQ     4,,PR1
        31 004571   000000 756100                    STQ     0,,PR0

     1278    20816    6            END;

     1279    20817    5      END ST_SEARCH;

  20817 31 004572   000213 470400 0                  LDP0    @OBJECT_ST$
        31 004573   000000 236100                    LDQ     0,,PR0
        31 004574   000000 116000 32                 CMPQ    0
        31 004575   004514 601000 31                 TNZ     s:20791

     1280    20818
     1281    20819    4      ALTRETURN;

  20819 31 004576   000210 221200 0                  LDX1  ! START_FOUND+1
        31 004577   000000 702211                    TSX2  ! 0,X1

     1282    20820
     1283    20821    4   END CHECK_REDEF_OBJECT;
     1284    20822        %EJECT;
PL6.E3A0      #001=Z8DR$RECORD_DECL File=Z8DR.:Z8A6TSI                           SAT 08/09/97 11:18 Page:320
     1285    20823        /*======================*/
     1286    20824    3     VERIFY_REDEF_PLACEMENT: PROC (REDEF$) ALTRET;

  20824 31 004600   000216 741200 0     VERIFY_REDE* STX1  ! TARGET_FOUND+1

     1287    20825        /*======================*/
     1288    20826
     1289    20827    4   DCL REDEF$                    PTR;
     1290    20828
     1291    20829    4   DCL I                         SBIN WORD;
     1292    20830    4   DCL LEVEL_FOUND               BOOLEAN;
     1293    20831    4   DCL PLUG1$                    PTR;
     1294    20832
     1295    20833    4      LEVEL_FOUND = FALSE;

  20833 31 004601   000221 450000 0                  STZ     LEVEL_FOUND

     1296    20834
     1297    20835    4   LEVEL_SEARCH:
     1298    20836    5      DO I = 1 TO HIER_STK_PTR;

  20836 31 004602   000001 235007       LEVEL_SEARCH LDA     1,DL
        31 004603   000220 755000 0                  STA     I
        31 004604   004620 710000 31                 TRA     s:20842+1

     1299    20837    5        IF HIER_STK.LEVEL# (I) = REDUCED_DATA.LEVEL.CURRENT THEN

  20837 31 004605   000220 236000 0                  LDQ     I
        31 004606   000005 402007                    MPY     5,DL
        31 004607   000002 236006 xsym               LDQ     HIER_STK+2,QL
        31 004610   000022 736000                    QLS     18
        31 004611   000033 732000                    QRS     27
        31 004612   000034 116000 0                  CMPQ    REDUCED_DATA+1
        31 004613   004617 601000 31                 TNZ     s:20842

     1300    20838    6          DO;

PL6.E3A0      #001=Z8DR$RECORD_DECL File=Z8DR.:Z8A6TSI                           SAT 08/09/97 11:18 Page:321
     1301    20839    6            LEVEL_FOUND = TRUE;

  20839 31 004614   400000 236003                    LDQ     -131072,DU
        31 004615   000221 756000 0                  STQ     LEVEL_FOUND

     1302    20840    6            EXIT LEVEL_SEARCH;

  20840 31 004616   004623 710000 31                 TRA     s:20844

     1303    20841    6          END;
     1304    20842    5      END;

  20842 31 004617   000220 054000 0                  AOS     I
        31 004620   000220 236000 0                  LDQ     I
        31 004621   000000 116000 xsym               CMPQ    HIER_STK_PTR
        31 004622   004605 604400 31                 TMOZ    s:20837

     1305    20843
     1306    20844    4      IF NOT LEVEL_FOUND THEN

  20844 31 004623   000221 234000 0                  SZN     LEVEL_FOUND
        31 004624   004662 604000 31                 TMI     s:20886

     1307    20845    5        DO;

     1308    20846    5          PLUG1$ = CDECL$ -> LX_REC_DECL.P.DATA_NAME$ -> LX_ITEM.DNT$;

  20846 31 004625   000160 470400 0                  LDP0    CDECL$
        31 004626   000002 471500                    LDP1    2,,PR0
        31 004627   100002 236100                    LDQ     2,,PR1
        31 004630   000222 756000 0                  STQ     PLUG1$

     1309    20847
     1310    20848               %CONDITIONAL_ERROR (@LX_ITEM$ = REDEF$,
     1311    20849                                   @ERROR#   = %E$NON_MATCH_REDEF_LEVEL,
     1312    20850                                   @LINE     = REDEF$ -> LX_ITEM.LINE,
     1313    20851                                   @COLUMN   = REDEF$ -> LX_ITEM.COLUMN,
PL6.E3A0      #001=Z8DR$RECORD_DECL File=Z8DR.:Z8A6TSI                           SAT 08/09/97 11:18 Page:322
     1314    20852                                   @PLUG1    = PLUG1$,
     1315    20853                                   @PLUG2    = REDEF$ -> LX_ITEM.DNT$);

  20863 31 004631   000217 471400 0                  LDP1    @REDEF$
        31 004632   100000 473500                    LDP3    0,,PR1
        31 004633   300000 236100                    LDQ     0,,PR3
        31 004634   400000 316007                    CANQ    -131072,DL
        31 004635   004660 601000 31                 TNZ     s:20883

  20865 31 004636   300002 634500                    EPPR4   2,,PR3
        31 004637   000576 454400 0                  STP4    P$+5
        31 004640   000074 236000 32                 LDQ     60
        31 004641   000575 756000 0                  STQ     P$+4
        31 004642   300006 635500                    EPPR5   6,,PR3
        31 004643   000574 455400 0                  STP5    P$+3
        31 004644   300005 636500                    EPPR6   5,,PR3
        31 004645   000573 456400 0                  STP6    P$+2
        31 004646   000075 236000 32                 LDQ     61
        31 004647   000572 756000 0                  STQ     P$+1
        31 004650   000572 630400 0                  EPPR0   P$+1
        31 004651   000072 631400 32                 EPPR1   58
        31 004652   000000 701000 xent               TSX1    Z8AE$ERROR
        31 004653   000000 011000                    NOP     0

  20874 31 004654   000217 470400 0                  LDP0    @REDEF$
        31 004655   000000 471500                    LDP1    0,,PR0
        31 004656   400000 236007                    LDQ     -131072,DL
        31 004657   100000 256100                    ORSQ    0,,PR1

     1316    20883    5          ALTRETURN;

  20883 31 004660   000216 221200 0                  LDX1  ! TARGET_FOUND+1
        31 004661   000000 702211                    TSX2  ! 0,X1

     1317    20884    5        END;
     1318    20885    4      ELSE
     1319    20886    4        IF HIER_STK.QLT$ (I) -> QLT.ST$ -> SCALAR.DNT$ = REDEF$ -> LX_ITEM.DNT$ THEN
PL6.E3A0      #001=Z8DR$RECORD_DECL File=Z8DR.:Z8A6TSI                           SAT 08/09/97 11:18 Page:323

  20886 31 004662   000220 236000 0                  LDQ     I
        31 004663   000005 402007                    MPY     5,DL
        31 004664   000000 470406 xsym               LDP0    HIER_STK,QL
        31 004665   000004 471500                    LDP1    4,,PR0
        31 004666   000217 473400 0                  LDP3    @REDEF$
        31 004667   300000 474500                    LDP4    0,,PR3
        31 004670   100006 236100                    LDQ     6,,PR1
        31 004671   400002 116100                    CMPQ    2,,PR4
        31 004672   004701 601000 31                 TNZ     s:20889

     1320    20887    4          REDUCED_DATA.REDEFINES.OBJECT$ = HIER_STK.QLT$ (I) -> QLT.ST$;

  20887 31 004673   000220 236000 0                  LDQ     I
        31 004674   000005 402007                    MPY     5,DL
        31 004675   000000 470406 xsym               LDP0    HIER_STK,QL
        31 004676   000004 236100                    LDQ     4,,PR0
        31 004677   000046 756000 0                  STQ     REDUCED_DATA+11
        31 004700   004773 710000 31                 TRA     s:20945

     1321    20888    4        ELSE
     1322    20889    4          IF REDEF$ -> LX_ITEM.DNT$ -> DNT.ST$ -> ST.ID ~= %SCALAR AND

  20889 31 004701   400002 470500                    LDP0    2,,PR4
        31 004702   000001 471500                    LDP1    1,,PR0
        31 004703   100000 220100                    LDX0    0,,PR1
        31 004704   000766 100003                    CMPX0   502,DU
        31 004705   004731 600000 31                 TZE     s:20902
        31 004706   000765 100003                    CMPX0   501,DU
        31 004707   004731 600000 31                 TZE     s:20902

     1323    20890    4             REDEF$ -> LX_ITEM.DNT$ -> DNT.ST$ -> ST.ID ~= %ARRAY THEN
     1324    20891    5              DO;

     1325    20892    5                REDUCED_DATA.REDEFINES.OBJECT$ = ADDR(NIL);

  20892 31 004710   000000 236000 32                 LDQ     0
PL6.E3A0      #001=Z8DR$RECORD_DECL File=Z8DR.:Z8A6TSI                           SAT 08/09/97 11:18 Page:324
        31 004711   000046 756000 0                  STQ     REDUCED_DATA+11

     1326    20893
     1327    20894    5                CALL Z8AE$ERROR (%E$ILLEGAL_SYMBOL,

  20894 31 004712   300000 470500                    LDP0    0,,PR3
        31 004713   000002 631500                    EPPR1   2,,PR0
        31 004714   000575 451400 0                  STP1    P$+4
        31 004715   000006 634500                    EPPR4   6,,PR0
        31 004716   000574 454400 0                  STP4    P$+3
        31 004717   000005 635500                    EPPR5   5,,PR0
        31 004720   000573 455400 0                  STP5    P$+2
        31 004721   000100 236000 32                 LDQ     64
        31 004722   000572 756000 0                  STQ     P$+1
        31 004723   000572 630400 0                  EPPR0   P$+1
        31 004724   000076 631400 32                 EPPR1   62
        31 004725   000000 701000 xent               TSX1    Z8AE$ERROR
        31 004726   000000 011000                    NOP     0

     1328    20895    5                                 REDEF$ -> LX_ITEM.LINE,
     1329    20896    5                                 REDEF$ -> LX_ITEM.COLUMN,
     1330    20897    5                                 REDEF$ -> LX_ITEM.DNT$);
     1331    20898    5                ALTRETURN;

  20898 31 004727   000216 221200 0                  LDX1  ! TARGET_FOUND+1
        31 004730   000000 702211                    TSX2  ! 0,X1

     1332    20899    5              END;
     1333    20900    4            ELSE
     1334    20901
     1335    20902    4          CALL CHECK_REDEF_OBJECT (HIER_STK.QLT$ (I),

  20902 31 004731   000101 236000 32                 LDQ     65
        31 004732   000213 756000 0                  STQ     @OBJECT_ST$
        31 004733   400002 630500                    EPPR0   2,,PR4
        31 004734   000212 450400 0                  STP0    @OBJ_DNT$
        31 004735   000220 236000 0                  LDQ     I
PL6.E3A0      #001=Z8DR$RECORD_DECL File=Z8DR.:Z8A6TSI                           SAT 08/09/97 11:18 Page:325
        31 004736   000005 402003                    MPY     5,DU
        31 004737   000102 036000 32                 ADLQ    66
        31 004740   000211 756000 0                  STQ     @TARGET_BRO$
        31 004741   004505 701000 31                 TSX1    CHECK_REDEF_OBJECT
        31 004742   004744 702000 31                 TSX2    s:20907
        31 004743   004773 710000 31                 TRA     s:20945

     1336    20903    4                                   REDEF$ -> LX_ITEM.DNT$,
     1337    20904    4                                   REDUCED_DATA.REDEFINES.OBJECT$)
     1338    20905    4            WHENALTRETURN
     1339    20906    5              DO;

     1340    20907    5                REDUCED_DATA.REDEFINES.OBJECT$ = ADDR(NIL);

  20907 31 004744   000000 236000 32                 LDQ     0
        31 004745   000046 756000 0                  STQ     REDUCED_DATA+11

     1341    20908
     1342    20909                     %CONDITIONAL_ERROR (@LX_ITEM$ = REDEF$,
     1343    20910                                         @ERROR#   = %E$NON_ADJACENT_REDEF,
     1344    20911                                         @LINE     = REDEF$ -> LX_ITEM.LINE,
     1345    20912                                         @COLUMN   = REDEF$ -> LX_ITEM.COLUMN);

  20922 31 004746   000217 470400 0                  LDP0    @REDEF$
        31 004747   000000 471500                    LDP1    0,,PR0
        31 004750   100000 236100                    LDQ     0,,PR1
        31 004751   400000 316007                    CANQ    -131072,DL
        31 004752   004771 601000 31                 TNZ     s:20942

  20924 31 004753   100006 633500                    EPPR3   6,,PR1
        31 004754   000574 453400 0                  STP3    P$+3
        31 004755   100005 634500                    EPPR4   5,,PR1
        31 004756   000573 454400 0                  STP4    P$+2
        31 004757   000104 236000 32                 LDQ     68
        31 004760   000572 756000 0                  STQ     P$+1
        31 004761   000572 630400 0                  EPPR0   P$+1
        31 004762   000001 631400 32                 EPPR1   1
PL6.E3A0      #001=Z8DR$RECORD_DECL File=Z8DR.:Z8A6TSI                           SAT 08/09/97 11:18 Page:326
        31 004763   000000 701000 xent               TSX1    Z8AE$ERROR
        31 004764   000000 011000                    NOP     0

  20933 31 004765   000217 470400 0                  LDP0    @REDEF$
        31 004766   000000 471500                    LDP1    0,,PR0
        31 004767   400000 236007                    LDQ     -131072,DL
        31 004770   100000 256100                    ORSQ    0,,PR1

     1346    20942    5                ALTRETURN;

  20942 31 004771   000216 221200 0                  LDX1  ! TARGET_FOUND+1
        31 004772   000000 702211                    TSX2  ! 0,X1

     1347    20943    5              END;
     1348    20944
     1349    20945    4      IF REDUCED_DATA.REDEFINES.OBJECT$ -> ARRAY.ID = %ARRAY THEN

  20945 31 004773   000046 470400 0                  LDP0    REDUCED_DATA+11
        31 004774   000000 220100                    LDX0    0,,PR0
        31 004775   000765 100003                    CMPX0   501,DU
        31 004776   005026 601000 31                 TNZ     s:20984

     1350    20946    5        DO;

     1351    20947    5          REDUCED_DATA.REDEFINES.OBJECT$ = ADDR(NIL);

  20947 31 004777   000000 236000 32                 LDQ     0
        31 005000   000046 756000 0                  STQ     REDUCED_DATA+11

     1352    20948               %CONDITIONAL_ERROR (@LX_ITEM$ = REDEF$,
     1353    20949                                   @ERROR#   = %E$OCCURS_IN_REDEF,
     1354    20950                                   @LINE     = REDEF$ -> LX_ITEM.LINE,
     1355    20951                                   @COLUMN   = REDEF$ -> LX_ITEM.COLUMN);

  20961 31 005001   000217 470400 0                  LDP0    @REDEF$
        31 005002   000000 471500                    LDP1    0,,PR0
        31 005003   100000 236100                    LDQ     0,,PR1
PL6.E3A0      #001=Z8DR$RECORD_DECL File=Z8DR.:Z8A6TSI                           SAT 08/09/97 11:18 Page:327
        31 005004   400000 316007                    CANQ    -131072,DL
        31 005005   005024 601000 31                 TNZ     s:20981

  20963 31 005006   100006 633500                    EPPR3   6,,PR1
        31 005007   000574 453400 0                  STP3    P$+3
        31 005010   100005 634500                    EPPR4   5,,PR1
        31 005011   000573 454400 0                  STP4    P$+2
        31 005012   000106 236000 32                 LDQ     70
        31 005013   000572 756000 0                  STQ     P$+1
        31 005014   000572 630400 0                  EPPR0   P$+1
        31 005015   000001 631400 32                 EPPR1   1
        31 005016   000000 701000 xent               TSX1    Z8AE$ERROR
        31 005017   000000 011000                    NOP     0

  20972 31 005020   000217 470400 0                  LDP0    @REDEF$
        31 005021   000000 471500                    LDP1    0,,PR0
        31 005022   400000 236007                    LDQ     -131072,DL
        31 005023   100000 256100                    ORSQ    0,,PR1

     1356    20981    5          ALTRETURN;

  20981 31 005024   000216 221200 0                  LDX1  ! TARGET_FOUND+1
        31 005025   000000 702211                    TSX2  ! 0,X1

     1357    20982    5        END;
     1358    20983
     1359    20984    4      IF REDUCED_DATA.REDEFINES.OBJECT$ -> SCALAR.B.REDEF_SUB THEN

  20984 31 005026   000003 430100                    FSZN    3,,PR0
        31 005027   005057 605000 31                 TPL     s:21023

     1360    20985    4        IF NOT COMCOM.OB.IBM THEN

  20985 31 005030   000032 234000 xsym               SZN     COMCOM+26
        31 005031   005057 604000 31                 TMI     s:21023

     1361    20986    5          DO;
PL6.E3A0      #001=Z8DR$RECORD_DECL File=Z8DR.:Z8A6TSI                           SAT 08/09/97 11:18 Page:328

     1362    20987                 %CONDITIONAL_ERROR (@LX_ITEM$ = REDEF$,
     1363    20988                                     @ERROR#   = %E$REDEF_REDEF_ERROR,
     1364    20989                                     @LINE     = REDEF$ -> LX_TERMINAL.LINE,
     1365    20990                                     @COLUMN   = REDEF$ -> LX_TERMINAL.COLUMN);

  21000 31 005032   000217 471400 0                  LDP1    @REDEF$
        31 005033   100000 473500                    LDP3    0,,PR1
        31 005034   300000 236100                    LDQ     0,,PR3
        31 005035   400000 316007                    CANQ    -131072,DL
        31 005036   005055 601000 31                 TNZ     s:21020

  21002 31 005037   300006 634500                    EPPR4   6,,PR3
        31 005040   000574 454400 0                  STP4    P$+3
        31 005041   300005 635500                    EPPR5   5,,PR3
        31 005042   000573 455400 0                  STP5    P$+2
        31 005043   000110 236000 32                 LDQ     72
        31 005044   000572 756000 0                  STQ     P$+1
        31 005045   000572 630400 0                  EPPR0   P$+1
        31 005046   000001 631400 32                 EPPR1   1
        31 005047   000000 701000 xent               TSX1    Z8AE$ERROR
        31 005050   000000 011000                    NOP     0

  21011 31 005051   000217 470400 0                  LDP0    @REDEF$
        31 005052   000000 471500                    LDP1    0,,PR0
        31 005053   400000 236007                    LDQ     -131072,DL
        31 005054   100000 256100                    ORSQ    0,,PR1

     1366    21020    5            ALTRETURN;

  21020 31 005055   000216 221200 0                  LDX1  ! TARGET_FOUND+1
        31 005056   000000 702211                    TSX2  ! 0,X1

     1367    21021    5          END;
     1368    21022
     1369    21023    4      RETURN;

PL6.E3A0      #001=Z8DR$RECORD_DECL File=Z8DR.:Z8A6TSI                           SAT 08/09/97 11:18 Page:329
  21023 31 005057   000216 221200 0                  LDX1  ! TARGET_FOUND+1
        31 005060   000001 702211                    TSX2  ! 1,X1

     1370    21024
     1371    21025
     1372    21026    4   END VERIFY_REDEF_PLACEMENT;
     1373    21027        %EJECT;
PL6.E3A0      #001=Z8DR$RECORD_DECL File=Z8DR.:Z8A6TSI                           SAT 08/09/97 11:18 Page:330
     1374    21028        /*=================*/
     1375    21029    3     INIT_VALUE_CLAUSE: PROC (LX_LIST1$, LX_LIST2$, LX_ITEM$, RETURN$,

  21029 31 005061   000223 741200 0     INIT_VALUE_* STX1  ! PLUG1$+1

     1376    21030    3   /*=================*/                                      RSV_WRD#);
     1377    21031
     1378    21032    4   DCL LX_LIST1$                 PTR;
     1379    21033    4   DCL LX_LIST2$                 PTR;
     1380    21034    4   DCL RETURN$                   PTR;
     1381    21035    4   DCL LX_ITEM$                  PTR;
     1382    21036    4   DCL RSV_WRD#                  UBIN WORD;
     1383    21037
     1384    21038           %INIT_LX_LIST (@POINTER    = LX_LIST1$);

  21040 31 005062   000224 470400 0                  LDP0    @LX_LIST1$
        31 005063   000000 471500                    LDP1    0,,PR0
        31 005064   000002 220003                    LDX0    2,DU
        31 005065   100000 740100                    STX0    0,,PR1

  21041 31 005066   000000 471500                    LDP1    0,,PR0
        31 005067   000000 221003                    LDX1    0,DU
        31 005070   100000 441100                    SXL1    0,,PR1

  21042 31 005071   000000 471500                    LDP1    0,,PR0
        31 005072   000000 236000 32                 LDQ     0
        31 005073   100001 756100                    STQ     1,,PR1

  21043 31 005074   000000 471500                    LDP1    0,,PR0
        31 005075   100004 756100                    STQ     4,,PR1

  21044 31 005076   000000 471500                    LDP1    0,,PR0
        31 005077   100007 756100                    STQ     7,,PR1

  21045 31 005100   000000 471500                    LDP1    0,,PR0
        31 005101   100002 450100                    STZ     2,,PR1

PL6.E3A0      #001=Z8DR$RECORD_DECL File=Z8DR.:Z8A6TSI                           SAT 08/09/97 11:18 Page:331
     1385    21048
     1386    21049    4      LX_LIST1$ -> LX_LIST.HEAD$ = LX_LIST2$;

  21049 31 005102   000000 471500                    LDP1    0,,PR0
        31 005103   000225 473400 0                  LDP3    @LX_LIST2$
        31 005104   300000 236100                    LDQ     0,,PR3
        31 005105   100004 756100                    STQ     4,,PR1

     1387    21050    4      LX_LIST1$ -> LX_LIST.TAIL$ = LX_LIST2$;

  21050 31 005106   000000 471500                    LDP1    0,,PR0
        31 005107   300000 236100                    LDQ     0,,PR3
        31 005110   100001 756100                    STQ     1,,PR1

     1388    21051    4      LX_LIST1$ -> LX_LIST.COUNT = 1;

  21051 31 005111   000000 471500                    LDP1    0,,PR0
        31 005112   000001 235007                    LDA     1,DL
        31 005113   100002 755100                    STA     2,,PR1

     1389    21052
     1390    21053           %INIT_LX_LIST (@POINTER    = LX_LIST2$);

  21055 31 005114   300000 471500                    LDP1    0,,PR3
        31 005115   100000 740100                    STX0    0,,PR1

  21056 31 005116   300000 471500                    LDP1    0,,PR3
        31 005117   100000 441100                    SXL1    0,,PR1

  21057 31 005120   300000 471500                    LDP1    0,,PR3
        31 005121   000000 236000 32                 LDQ     0
        31 005122   100001 756100                    STQ     1,,PR1

  21058 31 005123   300000 471500                    LDP1    0,,PR3
        31 005124   100004 756100                    STQ     4,,PR1

  21059 31 005125   300000 471500                    LDP1    0,,PR3
PL6.E3A0      #001=Z8DR$RECORD_DECL File=Z8DR.:Z8A6TSI                           SAT 08/09/97 11:18 Page:332
        31 005126   100007 756100                    STQ     7,,PR1

  21060 31 005127   300000 471500                    LDP1    0,,PR3
        31 005130   100002 450100                    STZ     2,,PR1

     1391    21063
     1392    21064    4      LX_LIST2$ -> LX_LIST.HEAD$ = LX_ITEM$;

  21064 31 005131   300000 471500                    LDP1    0,,PR3
        31 005132   000226 474400 0                  LDP4    @LX_ITEM$
        31 005133   400000 236100                    LDQ     0,,PR4
        31 005134   100004 756100                    STQ     4,,PR1

     1393    21065    4      LX_LIST2$ -> LX_LIST.TAIL$ = LX_ITEM$;

  21065 31 005135   300000 471500                    LDP1    0,,PR3
        31 005136   400000 236100                    LDQ     0,,PR4
        31 005137   100001 756100                    STQ     1,,PR1

     1394    21066    4      LX_LIST2$ -> LX_LIST.COUNT = 1;

  21066 31 005140   300000 471500                    LDP1    0,,PR3
        31 005141   100002 755100                    STA     2,,PR1

     1395    21067
     1396    21068           %INIT_LX_TERMINAL (@POINTER= LX_ITEM$,
     1397    21069                              @SYMBOL = RSV_WRD#,
     1398    21070                              @DNT$   = "DNT$_FROM_RSWNO (RSV_WRD#)");

  21072 31 005142   400000 471500                    LDP1    0,,PR4
        31 005143   000000 222003                    LDX2    0,DU
        31 005144   100000 742100                    STX2    0,,PR1

  21073 31 005145   400000 471500                    LDP1    0,,PR4
        31 005146   100000 441100                    SXL1    0,,PR1

  21077 31 005147   400000 471500                    LDP1    0,,PR4
PL6.E3A0      #001=Z8DR$RECORD_DECL File=Z8DR.:Z8A6TSI                           SAT 08/09/97 11:18 Page:333
        31 005150   000015 236007                    LDQ     13,DL
        31 005151   100004 756100                    STQ     4,,PR1

  21079 31 005152   400000 471500                    LDP1    0,,PR4
        31 005153   000000 236000 32                 LDQ     0
        31 005154   100007 756100                    STQ     7,,PR1

  21081 31 005155   400000 471500                    LDP1    0,,PR4
        31 005156   100001 756100                    STQ     1,,PR1

  21082 31 005157   400000 471500                    LDP1    0,,PR4
        31 005160   000230 475400 0                  LDP5    @RSV_WRD#
        31 005161   500000 235100                    LDA     0,,PR5
        31 005162   100003 755100                    STA     3,,PR1

  21083 31 005163   400000 471500                    LDP1    0,,PR4
        31 005164   500000 723100                    LXL3    0,,PR5
        31 005165   000000 236013 xsym               LDQ     DNT$_FROM_RSWNO,X3
        31 005166   100002 756100                    STQ     2,,PR1

  21084 31 005167   400000 471500                    LDP1    0,,PR4
        31 005170   000133 235000 xsym               LDA     COMCOM+91
        31 005171   100005 755100                    STA     5,,PR1

  21085 31 005172   400000 471500                    LDP1    0,,PR4
        31 005173   000134 235000 xsym               LDA     COMCOM+92
        31 005174   100006 755100                    STA     6,,PR1

     1399    21088
     1400    21089    4      RETURN$                    = LX_LIST1$;

  21089 31 005175   000000 236100                    LDQ     0,,PR0
        31 005176   000227 471400 0                  LDP1    @RETURN$
        31 005177   100000 756100                    STQ     0,,PR1

     1401    21090
     1402    21091    4   END INIT_VALUE_CLAUSE;
PL6.E3A0      #001=Z8DR$RECORD_DECL File=Z8DR.:Z8A6TSI                           SAT 08/09/97 11:18 Page:334

  21091 31 005200   000223 221200 0                  LDX1  ! PLUG1$+1
        31 005201   000001 702211                    TSX2  ! 1,X1

     1403    21092        %EJECT;
PL6.E3A0      #001=Z8DR$RECORD_DECL File=Z8DR.:Z8A6TSI                           SAT 08/09/97 11:18 Page:335
     1404    21093        /*======================*/
     1405    21094    3     REDEF_AND_OCCURS_CHECK: PROC (VALUE$) ALTRET;

  21094 31 005202   000231 741200 0     REDEF_AND_O* STX1  ! @RSV_WRD#+1

     1406    21095        /*======================*/
     1407    21096
     1408    21097    4   DCL VALUE$             PTR;
     1409    21098
     1410    21099    4   DCL I                  SBIN WORD;
     1411    21100    4   DCL J                  SBIN WORD;
     1412    21101
     1413    21102    4      IF REDUCED_DATA.LEVEL.CURRENT > REDUCED_DATA.LEVEL.PREVIOUS THEN

  21102 31 005203   000034 236000 0                  LDQ     REDUCED_DATA+1
        31 005204   000035 116000 0                  CMPQ    REDUCED_DATA+2
        31 005205   005212 604400 31                 TMOZ    s:21106

     1414    21103    4        I = HIER_STK_PTR + 1;                                 /*#39132*/

  21103 31 005206   000000 235000 xsym               LDA     HIER_STK_PTR
        31 005207   000001 035007                    ADLA    1,DL
        31 005210   000233 755000 0                  STA     I
        31 005211   005226 710000 31                 TRA     s:21114

     1415    21104    4      ELSE
     1416    21105    5        DO;

     1417    21106    5          I = 1;

  21106 31 005212   000001 235007                    LDA     1,DL
        31 005213   000233 755000 0                  STA     I

     1418    21107
     1419    21108    5          IF REDUCED_DATA.LEVEL.CURRENT ~= %LEVEL_01 THEN

  21108 31 005214   000001 116007                    CMPQ    1,DL
PL6.E3A0      #001=Z8DR$RECORD_DECL File=Z8DR.:Z8A6TSI                           SAT 08/09/97 11:18 Page:336
        31 005215   005226 600000 31                 TZE     s:21114

     1420    21109    6            DO UNTIL (HIER_STK.LEVEL#(I) >= REDUCED_DATA.LEVEL.CURRENT);

     1421    21110    6              I = I + 1;

  21110 31 005216   000233 054000 0                  AOS     I

     1422    21111    6            END;

  21111 31 005217   000233 236000 0                  LDQ     I
        31 005220   000005 402007                    MPY     5,DL
        31 005221   000002 236006 xsym               LDQ     HIER_STK+2,QL
        31 005222   000022 736000                    QLS     18
        31 005223   000033 732000                    QRS     27
        31 005224   000034 116000 0                  CMPQ    REDUCED_DATA+1
        31 005225   005216 604000 31                 TMI     s:21110

     1423    21112    5        END;

     1424    21113
     1425    21114    5      DO J = I - 1 DOWNTO 1;

  21114 31 005226   000233 235000 0                  LDA     I
        31 005227   000001 135007                    SBLA    1,DL
        31 005230   000234 755000 0                  STA     J
        31 005231   005275 710000 31                 TRA     s:21164+2

     1426    21115          /*
     1427    21116             IF HIER_STK.DIMS$(J) ~= ADDR(NIL) THEN
     1428    21117               DO;
     1429    21118                 %CONDITIONAL_ERROR (@LX_ITEM$ = VALUE$,
     1430    21119                                     @ERROR#   = %E$VALUE_AND_OCCURS,
     1431    21120                                     @LINE     = VALUE$ -> LX_ITEM.LINE,
     1432    21121                                     @COLUMN   = VALUE$ -> LX_ITEM.COLUMN);
     1433    21122                 ALTRETURN;
     1434    21123               END;
PL6.E3A0      #001=Z8DR$RECORD_DECL File=Z8DR.:Z8A6TSI                           SAT 08/09/97 11:18 Page:337
     1435    21124          */
     1436    21125
     1437    21126    5        IF HIER_STK.QLT$ (J) -> QLT.ST$ -> VARIABLE.B.REDEF_SUB AND

  21126 31 005232   000234 236000 0                  LDQ     J
        31 005233   000005 402007                    MPY     5,DL
        31 005234   000000 470406 xsym               LDP0    HIER_STK,QL
        31 005235   000004 471500                    LDP1    4,,PR0
        31 005236   100003 430100                    FSZN    3,,PR1
        31 005237   005273 605000 31                 TPL     s:21164
        31 005240   000015 235000 xsym               LDA     O1COM+13
        31 005241   000001 115007                    CMPA    1,DL
        31 005242   005246 601000 31                 TNZ     s:21142
        31 005243   000234 235000 0                  LDA     J
        31 005244   000001 115007                    CMPA    1,DL
        31 005245   005273 604400 31                 TMOZ    s:21164

     1438    21127    5            (O1COM.DATA_DECL_CONTEXT ~= %FILE_DESCRIPTION OR J > 1) THEN
     1439    21128    6          DO;

     1440    21129                 %CONDITIONAL_ERROR (@LX_ITEM$ = VALUE$,
     1441    21130                                     @ERROR#   = %E$VALUE_AND_REDEFINES,
     1442    21131                                     @LINE     = VALUE$ -> LX_ITEM.LINE,
     1443    21132                                     @COLUMN   = VALUE$ -> LX_ITEM.COLUMN);

  21142 31 005246   000232 473400 0                  LDP3    @VALUE$
        31 005247   300000 474500                    LDP4    0,,PR3
        31 005250   400000 236100                    LDQ     0,,PR4
        31 005251   400000 316007                    CANQ    -131072,DL
        31 005252   005271 601000 31                 TNZ     s:21162

  21144 31 005253   400006 630500                    EPPR0   6,,PR4
        31 005254   000574 450400 0                  STP0    P$+3
        31 005255   400005 631500                    EPPR1   5,,PR4
        31 005256   000573 451400 0                  STP1    P$+2
        31 005257   000112 236000 32                 LDQ     74
        31 005260   000572 756000 0                  STQ     P$+1
PL6.E3A0      #001=Z8DR$RECORD_DECL File=Z8DR.:Z8A6TSI                           SAT 08/09/97 11:18 Page:338
        31 005261   000572 630400 0                  EPPR0   P$+1
        31 005262   000001 631400 32                 EPPR1   1
        31 005263   000000 701000 xent               TSX1    Z8AE$ERROR
        31 005264   000000 011000                    NOP     0

  21153 31 005265   000232 470400 0                  LDP0    @VALUE$
        31 005266   000000 471500                    LDP1    0,,PR0
        31 005267   400000 236007                    LDQ     -131072,DL
        31 005270   100000 256100                    ORSQ    0,,PR1

     1444    21162    6            ALTRETURN;

  21162 31 005271   000231 221200 0                  LDX1  ! @RSV_WRD#+1
        31 005272   000000 702211                    TSX2  ! 0,X1

     1445    21163    6          END;
     1446    21164    5      END;

  21164 31 005273   000001 336007                    LCQ     1,DL
        31 005274   000234 056000 0                  ASQ     J
        31 005275   000234 235000 0                  LDA     J
        31 005276   005232 605400 31                 TPNZ    s:21126

     1447    21165
     1448    21166    4   END REDEF_AND_OCCURS_CHECK;

  21166 31 005277   000231 221200 0                  LDX1  ! @RSV_WRD#+1
        31 005300   000001 702211                    TSX2  ! 1,X1

     1449    21167        %EJECT;
PL6.E3A0      #001=Z8DR$RECORD_DECL File=Z8DR.:Z8A6TSI                           SAT 08/09/97 11:18 Page:339
     1450    21168        /*================*/
     1451    21169    3     VALUE_IS_LITERAL: PROC (VALUE$);

  21169 31 005301   000235 741200 0     VALUE_IS_LI* STX1  ! J+1

     1452    21170        /*================*/
     1453    21171
     1454    21172    4   DCL VALUE$             PTR;
     1455    21173
     1456    21174    4   DCL I                  SBIN WORD;
     1457    21175        %DCL_NUM_DESC (@STRN = NUM_DESC);
     1458    21184
     1459    21185    5      DO CASE(VALUE$ -> LX_ITEM.SYMBOL);

  21185 31 005302   000236 470400 0                  LDP0    @VALUE$
        31 005303   000000 471500                    LDP1    0,,PR0
        31 005304   100003 235100                    LDA     3,,PR1
        31 005305   000762 115007                    CMPA    498,DL
        31 005306   005310 602005 31                 TNC     s:21185+6,AL
        31 005307   006615 710000 31                 TRA     s:21481
        31 005310   006615 710000 31                 TRA     s:21481
        31 005311   006615 710000 31                 TRA     s:21481
        31 005312   006374 710000 31                 TRA     s:21267
        31 005313   006424 710000 31                 TRA     s:21311
        31 005314   006424 710000 31                 TRA     s:21311
        31 005315   006615 710000 31                 TRA     s:21481
        31 005316   006615 710000 31                 TRA     s:21481
        31 005317   006615 710000 31                 TRA     s:21481
        31 005320   006615 710000 31                 TRA     s:21481
        31 005321   006615 710000 31                 TRA     s:21481
        31 005322   006615 710000 31                 TRA     s:21481
        31 005323   006615 710000 31                 TRA     s:21481
        31 005324   006615 710000 31                 TRA     s:21481
        31 005325   006615 710000 31                 TRA     s:21481
        31 005326   006615 710000 31                 TRA     s:21481
        31 005327   006615 710000 31                 TRA     s:21481
        31 005330   006615 710000 31                 TRA     s:21481
PL6.E3A0      #001=Z8DR$RECORD_DECL File=Z8DR.:Z8A6TSI                           SAT 08/09/97 11:18 Page:340
        31 005331   006615 710000 31                 TRA     s:21481
        31 005332   006615 710000 31                 TRA     s:21481
        31 005333   006615 710000 31                 TRA     s:21481
        31 005334   006615 710000 31                 TRA     s:21481
        31 005335   006374 710000 31                 TRA     s:21267
        31 005336   006272 710000 31                 TRA     s:21188
        31 005337   006615 710000 31                 TRA     s:21481
        31 005340   006615 710000 31                 TRA     s:21481
        31 005341   006615 710000 31                 TRA     s:21481
        31 005342   006615 710000 31                 TRA     s:21481
        31 005343   006615 710000 31                 TRA     s:21481
        31 005344   006615 710000 31                 TRA     s:21481
        31 005345   006615 710000 31                 TRA     s:21481
        31 005346   006615 710000 31                 TRA     s:21481
        31 005347   006615 710000 31                 TRA     s:21481
        31 005350   006615 710000 31                 TRA     s:21481
        31 005351   006615 710000 31                 TRA     s:21481
        31 005352   006615 710000 31                 TRA     s:21481
        31 005353   006615 710000 31                 TRA     s:21481
        31 005354   006615 710000 31                 TRA     s:21481
        31 005355   006615 710000 31                 TRA     s:21481
        31 005356   006615 710000 31                 TRA     s:21481
        31 005357   006615 710000 31                 TRA     s:21481
        31 005360   006615 710000 31                 TRA     s:21481
        31 005361   006615 710000 31                 TRA     s:21481
        31 005362   006615 710000 31                 TRA     s:21481
        31 005363   006615 710000 31                 TRA     s:21481
        31 005364   006615 710000 31                 TRA     s:21481
        31 005365   006615 710000 31                 TRA     s:21481
        31 005366   006615 710000 31                 TRA     s:21481
        31 005367   006615 710000 31                 TRA     s:21481
        31 005370   006615 710000 31                 TRA     s:21481
        31 005371   006615 710000 31                 TRA     s:21481
        31 005372   006615 710000 31                 TRA     s:21481
        31 005373   006615 710000 31                 TRA     s:21481
        31 005374   006615 710000 31                 TRA     s:21481
        31 005375   006615 710000 31                 TRA     s:21481
PL6.E3A0      #001=Z8DR$RECORD_DECL File=Z8DR.:Z8A6TSI                           SAT 08/09/97 11:18 Page:341
        31 005376   006615 710000 31                 TRA     s:21481
        31 005377   006615 710000 31                 TRA     s:21481
        31 005400   006615 710000 31                 TRA     s:21481
        31 005401   006615 710000 31                 TRA     s:21481
        31 005402   006615 710000 31                 TRA     s:21481
        31 005403   006615 710000 31                 TRA     s:21481
        31 005404   006615 710000 31                 TRA     s:21481
        31 005405   006615 710000 31                 TRA     s:21481
        31 005406   006615 710000 31                 TRA     s:21481
        31 005407   006615 710000 31                 TRA     s:21481
        31 005410   006615 710000 31                 TRA     s:21481
        31 005411   006615 710000 31                 TRA     s:21481
        31 005412   006615 710000 31                 TRA     s:21481
        31 005413   006615 710000 31                 TRA     s:21481
        31 005414   006615 710000 31                 TRA     s:21481
        31 005415   006615 710000 31                 TRA     s:21481
        31 005416   006615 710000 31                 TRA     s:21481
        31 005417   006615 710000 31                 TRA     s:21481
        31 005420   006615 710000 31                 TRA     s:21481
        31 005421   006615 710000 31                 TRA     s:21481
        31 005422   006615 710000 31                 TRA     s:21481
        31 005423   006615 710000 31                 TRA     s:21481
        31 005424   006615 710000 31                 TRA     s:21481
        31 005425   006615 710000 31                 TRA     s:21481
        31 005426   006615 710000 31                 TRA     s:21481
        31 005427   006615 710000 31                 TRA     s:21481
        31 005430   006615 710000 31                 TRA     s:21481
        31 005431   006615 710000 31                 TRA     s:21481
        31 005432   006615 710000 31                 TRA     s:21481
        31 005433   006615 710000 31                 TRA     s:21481
        31 005434   006615 710000 31                 TRA     s:21481
        31 005435   006615 710000 31                 TRA     s:21481
        31 005436   006615 710000 31                 TRA     s:21481
        31 005437   006615 710000 31                 TRA     s:21481
        31 005440   006615 710000 31                 TRA     s:21481
        31 005441   006615 710000 31                 TRA     s:21481
        31 005442   006615 710000 31                 TRA     s:21481
PL6.E3A0      #001=Z8DR$RECORD_DECL File=Z8DR.:Z8A6TSI                           SAT 08/09/97 11:18 Page:342
        31 005443   006615 710000 31                 TRA     s:21481
        31 005444   006615 710000 31                 TRA     s:21481
        31 005445   006615 710000 31                 TRA     s:21481
        31 005446   006615 710000 31                 TRA     s:21481
        31 005447   006615 710000 31                 TRA     s:21481
        31 005450   006615 710000 31                 TRA     s:21481
        31 005451   006615 710000 31                 TRA     s:21481
        31 005452   006615 710000 31                 TRA     s:21481
        31 005453   006615 710000 31                 TRA     s:21481
        31 005454   006615 710000 31                 TRA     s:21481
        31 005455   006615 710000 31                 TRA     s:21481
        31 005456   006615 710000 31                 TRA     s:21481
        31 005457   006615 710000 31                 TRA     s:21481
        31 005460   006615 710000 31                 TRA     s:21481
        31 005461   006615 710000 31                 TRA     s:21481
        31 005462   006615 710000 31                 TRA     s:21481
        31 005463   006615 710000 31                 TRA     s:21481
        31 005464   006615 710000 31                 TRA     s:21481
        31 005465   006615 710000 31                 TRA     s:21481
        31 005466   006615 710000 31                 TRA     s:21481
        31 005467   006615 710000 31                 TRA     s:21481
        31 005470   006615 710000 31                 TRA     s:21481
        31 005471   006615 710000 31                 TRA     s:21481
        31 005472   006615 710000 31                 TRA     s:21481
        31 005473   006615 710000 31                 TRA     s:21481
        31 005474   006615 710000 31                 TRA     s:21481
        31 005475   006615 710000 31                 TRA     s:21481
        31 005476   006615 710000 31                 TRA     s:21481
        31 005477   006615 710000 31                 TRA     s:21481
        31 005500   006615 710000 31                 TRA     s:21481
        31 005501   006615 710000 31                 TRA     s:21481
        31 005502   006615 710000 31                 TRA     s:21481
        31 005503   006615 710000 31                 TRA     s:21481
        31 005504   006615 710000 31                 TRA     s:21481
        31 005505   006615 710000 31                 TRA     s:21481
        31 005506   006615 710000 31                 TRA     s:21481
        31 005507   006615 710000 31                 TRA     s:21481
PL6.E3A0      #001=Z8DR$RECORD_DECL File=Z8DR.:Z8A6TSI                           SAT 08/09/97 11:18 Page:343
        31 005510   006615 710000 31                 TRA     s:21481
        31 005511   006615 710000 31                 TRA     s:21481
        31 005512   006615 710000 31                 TRA     s:21481
        31 005513   006615 710000 31                 TRA     s:21481
        31 005514   006615 710000 31                 TRA     s:21481
        31 005515   006615 710000 31                 TRA     s:21481
        31 005516   006615 710000 31                 TRA     s:21481
        31 005517   006615 710000 31                 TRA     s:21481
        31 005520   006615 710000 31                 TRA     s:21481
        31 005521   006615 710000 31                 TRA     s:21481
        31 005522   006615 710000 31                 TRA     s:21481
        31 005523   006615 710000 31                 TRA     s:21481
        31 005524   006615 710000 31                 TRA     s:21481
        31 005525   006615 710000 31                 TRA     s:21481
        31 005526   006615 710000 31                 TRA     s:21481
        31 005527   006615 710000 31                 TRA     s:21481
        31 005530   006615 710000 31                 TRA     s:21481
        31 005531   006615 710000 31                 TRA     s:21481
        31 005532   006615 710000 31                 TRA     s:21481
        31 005533   006615 710000 31                 TRA     s:21481
        31 005534   006615 710000 31                 TRA     s:21481
        31 005535   006615 710000 31                 TRA     s:21481
        31 005536   006615 710000 31                 TRA     s:21481
        31 005537   006615 710000 31                 TRA     s:21481
        31 005540   006615 710000 31                 TRA     s:21481
        31 005541   006615 710000 31                 TRA     s:21481
        31 005542   006615 710000 31                 TRA     s:21481
        31 005543   006615 710000 31                 TRA     s:21481
        31 005544   006615 710000 31                 TRA     s:21481
        31 005545   006615 710000 31                 TRA     s:21481
        31 005546   006615 710000 31                 TRA     s:21481
        31 005547   006615 710000 31                 TRA     s:21481
        31 005550   006615 710000 31                 TRA     s:21481
        31 005551   006615 710000 31                 TRA     s:21481
        31 005552   006615 710000 31                 TRA     s:21481
        31 005553   006615 710000 31                 TRA     s:21481
        31 005554   006615 710000 31                 TRA     s:21481
PL6.E3A0      #001=Z8DR$RECORD_DECL File=Z8DR.:Z8A6TSI                           SAT 08/09/97 11:18 Page:344
        31 005555   006615 710000 31                 TRA     s:21481
        31 005556   006615 710000 31                 TRA     s:21481
        31 005557   006615 710000 31                 TRA     s:21481
        31 005560   006615 710000 31                 TRA     s:21481
        31 005561   006615 710000 31                 TRA     s:21481
        31 005562   006615 710000 31                 TRA     s:21481
        31 005563   006615 710000 31                 TRA     s:21481
        31 005564   006615 710000 31                 TRA     s:21481
        31 005565   006615 710000 31                 TRA     s:21481
        31 005566   006615 710000 31                 TRA     s:21481
        31 005567   006615 710000 31                 TRA     s:21481
        31 005570   006615 710000 31                 TRA     s:21481
        31 005571   006615 710000 31                 TRA     s:21481
        31 005572   006615 710000 31                 TRA     s:21481
        31 005573   006615 710000 31                 TRA     s:21481
        31 005574   006615 710000 31                 TRA     s:21481
        31 005575   006615 710000 31                 TRA     s:21481
        31 005576   006615 710000 31                 TRA     s:21481
        31 005577   006615 710000 31                 TRA     s:21481
        31 005600   006615 710000 31                 TRA     s:21481
        31 005601   006615 710000 31                 TRA     s:21481
        31 005602   006615 710000 31                 TRA     s:21481
        31 005603   006615 710000 31                 TRA     s:21481
        31 005604   006615 710000 31                 TRA     s:21481
        31 005605   006615 710000 31                 TRA     s:21481
        31 005606   006615 710000 31                 TRA     s:21481
        31 005607   006615 710000 31                 TRA     s:21481
        31 005610   006615 710000 31                 TRA     s:21481
        31 005611   006615 710000 31                 TRA     s:21481
        31 005612   006615 710000 31                 TRA     s:21481
        31 005613   006615 710000 31                 TRA     s:21481
        31 005614   006615 710000 31                 TRA     s:21481
        31 005615   006615 710000 31                 TRA     s:21481
        31 005616   006615 710000 31                 TRA     s:21481
        31 005617   006615 710000 31                 TRA     s:21481
        31 005620   006615 710000 31                 TRA     s:21481
        31 005621   006615 710000 31                 TRA     s:21481
PL6.E3A0      #001=Z8DR$RECORD_DECL File=Z8DR.:Z8A6TSI                           SAT 08/09/97 11:18 Page:345
        31 005622   006615 710000 31                 TRA     s:21481
        31 005623   006615 710000 31                 TRA     s:21481
        31 005624   006615 710000 31                 TRA     s:21481
        31 005625   006615 710000 31                 TRA     s:21481
        31 005626   006615 710000 31                 TRA     s:21481
        31 005627   006615 710000 31                 TRA     s:21481
        31 005630   006615 710000 31                 TRA     s:21481
        31 005631   006615 710000 31                 TRA     s:21481
        31 005632   006615 710000 31                 TRA     s:21481
        31 005633   006615 710000 31                 TRA     s:21481
        31 005634   006615 710000 31                 TRA     s:21481
        31 005635   006615 710000 31                 TRA     s:21481
        31 005636   006615 710000 31                 TRA     s:21481
        31 005637   006615 710000 31                 TRA     s:21481
        31 005640   006615 710000 31                 TRA     s:21481
        31 005641   006615 710000 31                 TRA     s:21481
        31 005642   006615 710000 31                 TRA     s:21481
        31 005643   006615 710000 31                 TRA     s:21481
        31 005644   006615 710000 31                 TRA     s:21481
        31 005645   006615 710000 31                 TRA     s:21481
        31 005646   006615 710000 31                 TRA     s:21481
        31 005647   006615 710000 31                 TRA     s:21481
        31 005650   006615 710000 31                 TRA     s:21481
        31 005651   006615 710000 31                 TRA     s:21481
        31 005652   006615 710000 31                 TRA     s:21481
        31 005653   006615 710000 31                 TRA     s:21481
        31 005654   006615 710000 31                 TRA     s:21481
        31 005655   006615 710000 31                 TRA     s:21481
        31 005656   006615 710000 31                 TRA     s:21481
        31 005657   006615 710000 31                 TRA     s:21481
        31 005660   006615 710000 31                 TRA     s:21481
        31 005661   006424 710000 31                 TRA     s:21311
        31 005662   006615 710000 31                 TRA     s:21481
        31 005663   006615 710000 31                 TRA     s:21481
        31 005664   006615 710000 31                 TRA     s:21481
        31 005665   006615 710000 31                 TRA     s:21481
        31 005666   006615 710000 31                 TRA     s:21481
PL6.E3A0      #001=Z8DR$RECORD_DECL File=Z8DR.:Z8A6TSI                           SAT 08/09/97 11:18 Page:346
        31 005667   006615 710000 31                 TRA     s:21481
        31 005670   006615 710000 31                 TRA     s:21481
        31 005671   006615 710000 31                 TRA     s:21481
        31 005672   006615 710000 31                 TRA     s:21481
        31 005673   006615 710000 31                 TRA     s:21481
        31 005674   006615 710000 31                 TRA     s:21481
        31 005675   006615 710000 31                 TRA     s:21481
        31 005676   006615 710000 31                 TRA     s:21481
        31 005677   006615 710000 31                 TRA     s:21481
        31 005700   006615 710000 31                 TRA     s:21481
        31 005701   006615 710000 31                 TRA     s:21481
        31 005702   006615 710000 31                 TRA     s:21481
        31 005703   006615 710000 31                 TRA     s:21481
        31 005704   006615 710000 31                 TRA     s:21481
        31 005705   006615 710000 31                 TRA     s:21481
        31 005706   006615 710000 31                 TRA     s:21481
        31 005707   006615 710000 31                 TRA     s:21481
        31 005710   006615 710000 31                 TRA     s:21481
        31 005711   006615 710000 31                 TRA     s:21481
        31 005712   006615 710000 31                 TRA     s:21481
        31 005713   006615 710000 31                 TRA     s:21481
        31 005714   006615 710000 31                 TRA     s:21481
        31 005715   006615 710000 31                 TRA     s:21481
        31 005716   006615 710000 31                 TRA     s:21481
        31 005717   006615 710000 31                 TRA     s:21481
        31 005720   006615 710000 31                 TRA     s:21481
        31 005721   006615 710000 31                 TRA     s:21481
        31 005722   006615 710000 31                 TRA     s:21481
        31 005723   006615 710000 31                 TRA     s:21481
        31 005724   006615 710000 31                 TRA     s:21481
        31 005725   006615 710000 31                 TRA     s:21481
        31 005726   006615 710000 31                 TRA     s:21481
        31 005727   006615 710000 31                 TRA     s:21481
        31 005730   006615 710000 31                 TRA     s:21481
        31 005731   006615 710000 31                 TRA     s:21481
        31 005732   006615 710000 31                 TRA     s:21481
        31 005733   006615 710000 31                 TRA     s:21481
PL6.E3A0      #001=Z8DR$RECORD_DECL File=Z8DR.:Z8A6TSI                           SAT 08/09/97 11:18 Page:347
        31 005734   006615 710000 31                 TRA     s:21481
        31 005735   006615 710000 31                 TRA     s:21481
        31 005736   006615 710000 31                 TRA     s:21481
        31 005737   006615 710000 31                 TRA     s:21481
        31 005740   006615 710000 31                 TRA     s:21481
        31 005741   006615 710000 31                 TRA     s:21481
        31 005742   006615 710000 31                 TRA     s:21481
        31 005743   006424 710000 31                 TRA     s:21311
        31 005744   006615 710000 31                 TRA     s:21481
        31 005745   006615 710000 31                 TRA     s:21481
        31 005746   006615 710000 31                 TRA     s:21481
        31 005747   006615 710000 31                 TRA     s:21481
        31 005750   006615 710000 31                 TRA     s:21481
        31 005751   006615 710000 31                 TRA     s:21481
        31 005752   006615 710000 31                 TRA     s:21481
        31 005753   006615 710000 31                 TRA     s:21481
        31 005754   006615 710000 31                 TRA     s:21481
        31 005755   006615 710000 31                 TRA     s:21481
        31 005756   006615 710000 31                 TRA     s:21481
        31 005757   006615 710000 31                 TRA     s:21481
        31 005760   006615 710000 31                 TRA     s:21481
        31 005761   006615 710000 31                 TRA     s:21481
        31 005762   006615 710000 31                 TRA     s:21481
        31 005763   006615 710000 31                 TRA     s:21481
        31 005764   006615 710000 31                 TRA     s:21481
        31 005765   006615 710000 31                 TRA     s:21481
        31 005766   006615 710000 31                 TRA     s:21481
        31 005767   006615 710000 31                 TRA     s:21481
        31 005770   006615 710000 31                 TRA     s:21481
        31 005771   006615 710000 31                 TRA     s:21481
        31 005772   006615 710000 31                 TRA     s:21481
        31 005773   006520 710000 31                 TRA     s:21394
        31 005774   006615 710000 31                 TRA     s:21481
        31 005775   006615 710000 31                 TRA     s:21481
        31 005776   006615 710000 31                 TRA     s:21481
        31 005777   006615 710000 31                 TRA     s:21481
        31 006000   006615 710000 31                 TRA     s:21481
PL6.E3A0      #001=Z8DR$RECORD_DECL File=Z8DR.:Z8A6TSI                           SAT 08/09/97 11:18 Page:348
        31 006001   006615 710000 31                 TRA     s:21481
        31 006002   006615 710000 31                 TRA     s:21481
        31 006003   006615 710000 31                 TRA     s:21481
        31 006004   006615 710000 31                 TRA     s:21481
        31 006005   006615 710000 31                 TRA     s:21481
        31 006006   006615 710000 31                 TRA     s:21481
        31 006007   006615 710000 31                 TRA     s:21481
        31 006010   006615 710000 31                 TRA     s:21481
        31 006011   006615 710000 31                 TRA     s:21481
        31 006012   006615 710000 31                 TRA     s:21481
        31 006013   006615 710000 31                 TRA     s:21481
        31 006014   006615 710000 31                 TRA     s:21481
        31 006015   006615 710000 31                 TRA     s:21481
        31 006016   006615 710000 31                 TRA     s:21481
        31 006017   006615 710000 31                 TRA     s:21481
        31 006020   006615 710000 31                 TRA     s:21481
        31 006021   006615 710000 31                 TRA     s:21481
        31 006022   006615 710000 31                 TRA     s:21481
        31 006023   006615 710000 31                 TRA     s:21481
        31 006024   006615 710000 31                 TRA     s:21481
        31 006025   006615 710000 31                 TRA     s:21481
        31 006026   006615 710000 31                 TRA     s:21481
        31 006027   006615 710000 31                 TRA     s:21481
        31 006030   006615 710000 31                 TRA     s:21481
        31 006031   006615 710000 31                 TRA     s:21481
        31 006032   006615 710000 31                 TRA     s:21481
        31 006033   006615 710000 31                 TRA     s:21481
        31 006034   006615 710000 31                 TRA     s:21481
        31 006035   006615 710000 31                 TRA     s:21481
        31 006036   006615 710000 31                 TRA     s:21481
        31 006037   006615 710000 31                 TRA     s:21481
        31 006040   006615 710000 31                 TRA     s:21481
        31 006041   006615 710000 31                 TRA     s:21481
        31 006042   006615 710000 31                 TRA     s:21481
        31 006043   006615 710000 31                 TRA     s:21481
        31 006044   006615 710000 31                 TRA     s:21481
        31 006045   006615 710000 31                 TRA     s:21481
PL6.E3A0      #001=Z8DR$RECORD_DECL File=Z8DR.:Z8A6TSI                           SAT 08/09/97 11:18 Page:349
        31 006046   006615 710000 31                 TRA     s:21481
        31 006047   006615 710000 31                 TRA     s:21481
        31 006050   006615 710000 31                 TRA     s:21481
        31 006051   006615 710000 31                 TRA     s:21481
        31 006052   006615 710000 31                 TRA     s:21481
        31 006053   006424 710000 31                 TRA     s:21311
        31 006054   006615 710000 31                 TRA     s:21481
        31 006055   006615 710000 31                 TRA     s:21481
        31 006056   006615 710000 31                 TRA     s:21481
        31 006057   006615 710000 31                 TRA     s:21481
        31 006060   006615 710000 31                 TRA     s:21481
        31 006061   006615 710000 31                 TRA     s:21481
        31 006062   006615 710000 31                 TRA     s:21481
        31 006063   006615 710000 31                 TRA     s:21481
        31 006064   006615 710000 31                 TRA     s:21481
        31 006065   006615 710000 31                 TRA     s:21481
        31 006066   006615 710000 31                 TRA     s:21481
        31 006067   006615 710000 31                 TRA     s:21481
        31 006070   006615 710000 31                 TRA     s:21481
        31 006071   006615 710000 31                 TRA     s:21481
        31 006072   006615 710000 31                 TRA     s:21481
        31 006073   006615 710000 31                 TRA     s:21481
        31 006074   006615 710000 31                 TRA     s:21481
        31 006075   006615 710000 31                 TRA     s:21481
        31 006076   006615 710000 31                 TRA     s:21481
        31 006077   006615 710000 31                 TRA     s:21481
        31 006100   006615 710000 31                 TRA     s:21481
        31 006101   006615 710000 31                 TRA     s:21481
        31 006102   006615 710000 31                 TRA     s:21481
        31 006103   006615 710000 31                 TRA     s:21481
        31 006104   006615 710000 31                 TRA     s:21481
        31 006105   006615 710000 31                 TRA     s:21481
        31 006106   006615 710000 31                 TRA     s:21481
        31 006107   006615 710000 31                 TRA     s:21481
        31 006110   006615 710000 31                 TRA     s:21481
        31 006111   006615 710000 31                 TRA     s:21481
        31 006112   006615 710000 31                 TRA     s:21481
PL6.E3A0      #001=Z8DR$RECORD_DECL File=Z8DR.:Z8A6TSI                           SAT 08/09/97 11:18 Page:350
        31 006113   006615 710000 31                 TRA     s:21481
        31 006114   006615 710000 31                 TRA     s:21481
        31 006115   006615 710000 31                 TRA     s:21481
        31 006116   006615 710000 31                 TRA     s:21481
        31 006117   006615 710000 31                 TRA     s:21481
        31 006120   006615 710000 31                 TRA     s:21481
        31 006121   006615 710000 31                 TRA     s:21481
        31 006122   006615 710000 31                 TRA     s:21481
        31 006123   006615 710000 31                 TRA     s:21481
        31 006124   006615 710000 31                 TRA     s:21481
        31 006125   006615 710000 31                 TRA     s:21481
        31 006126   006615 710000 31                 TRA     s:21481
        31 006127   006615 710000 31                 TRA     s:21481
        31 006130   006615 710000 31                 TRA     s:21481
        31 006131   006615 710000 31                 TRA     s:21481
        31 006132   006615 710000 31                 TRA     s:21481
        31 006133   006615 710000 31                 TRA     s:21481
        31 006134   006615 710000 31                 TRA     s:21481
        31 006135   006615 710000 31                 TRA     s:21481
        31 006136   006615 710000 31                 TRA     s:21481
        31 006137   006615 710000 31                 TRA     s:21481
        31 006140   006615 710000 31                 TRA     s:21481
        31 006141   006615 710000 31                 TRA     s:21481
        31 006142   006615 710000 31                 TRA     s:21481
        31 006143   006615 710000 31                 TRA     s:21481
        31 006144   006615 710000 31                 TRA     s:21481
        31 006145   006615 710000 31                 TRA     s:21481
        31 006146   006615 710000 31                 TRA     s:21481
        31 006147   006615 710000 31                 TRA     s:21481
        31 006150   006615 710000 31                 TRA     s:21481
        31 006151   006615 710000 31                 TRA     s:21481
        31 006152   006615 710000 31                 TRA     s:21481
        31 006153   006615 710000 31                 TRA     s:21481
        31 006154   006615 710000 31                 TRA     s:21481
        31 006155   006615 710000 31                 TRA     s:21481
        31 006156   006615 710000 31                 TRA     s:21481
        31 006157   006615 710000 31                 TRA     s:21481
PL6.E3A0      #001=Z8DR$RECORD_DECL File=Z8DR.:Z8A6TSI                           SAT 08/09/97 11:18 Page:351
        31 006160   006424 710000 31                 TRA     s:21311
        31 006161   006615 710000 31                 TRA     s:21481
        31 006162   006615 710000 31                 TRA     s:21481
        31 006163   006615 710000 31                 TRA     s:21481
        31 006164   006615 710000 31                 TRA     s:21481
        31 006165   006615 710000 31                 TRA     s:21481
        31 006166   006615 710000 31                 TRA     s:21481
        31 006167   006615 710000 31                 TRA     s:21481
        31 006170   006615 710000 31                 TRA     s:21481
        31 006171   006615 710000 31                 TRA     s:21481
        31 006172   006615 710000 31                 TRA     s:21481
        31 006173   006615 710000 31                 TRA     s:21481
        31 006174   006615 710000 31                 TRA     s:21481
        31 006175   006615 710000 31                 TRA     s:21481
        31 006176   006615 710000 31                 TRA     s:21481
        31 006177   006615 710000 31                 TRA     s:21481
        31 006200   006615 710000 31                 TRA     s:21481
        31 006201   006615 710000 31                 TRA     s:21481
        31 006202   006615 710000 31                 TRA     s:21481
        31 006203   006615 710000 31                 TRA     s:21481
        31 006204   006615 710000 31                 TRA     s:21481
        31 006205   006615 710000 31                 TRA     s:21481
        31 006206   006615 710000 31                 TRA     s:21481
        31 006207   006615 710000 31                 TRA     s:21481
        31 006210   006615 710000 31                 TRA     s:21481
        31 006211   006615 710000 31                 TRA     s:21481
        31 006212   006615 710000 31                 TRA     s:21481
        31 006213   006615 710000 31                 TRA     s:21481
        31 006214   006615 710000 31                 TRA     s:21481
        31 006215   006615 710000 31                 TRA     s:21481
        31 006216   006615 710000 31                 TRA     s:21481
        31 006217   006615 710000 31                 TRA     s:21481
        31 006220   006615 710000 31                 TRA     s:21481
        31 006221   006615 710000 31                 TRA     s:21481
        31 006222   006615 710000 31                 TRA     s:21481
        31 006223   006615 710000 31                 TRA     s:21481
        31 006224   006615 710000 31                 TRA     s:21481
PL6.E3A0      #001=Z8DR$RECORD_DECL File=Z8DR.:Z8A6TSI                           SAT 08/09/97 11:18 Page:352
        31 006225   006615 710000 31                 TRA     s:21481
        31 006226   006615 710000 31                 TRA     s:21481
        31 006227   006615 710000 31                 TRA     s:21481
        31 006230   006615 710000 31                 TRA     s:21481
        31 006231   006615 710000 31                 TRA     s:21481
        31 006232   006615 710000 31                 TRA     s:21481
        31 006233   006615 710000 31                 TRA     s:21481
        31 006234   006615 710000 31                 TRA     s:21481
        31 006235   006615 710000 31                 TRA     s:21481
        31 006236   006615 710000 31                 TRA     s:21481
        31 006237   006615 710000 31                 TRA     s:21481
        31 006240   006615 710000 31                 TRA     s:21481
        31 006241   006615 710000 31                 TRA     s:21481
        31 006242   006615 710000 31                 TRA     s:21481
        31 006243   006615 710000 31                 TRA     s:21481
        31 006244   006615 710000 31                 TRA     s:21481
        31 006245   006615 710000 31                 TRA     s:21481
        31 006246   006615 710000 31                 TRA     s:21481
        31 006247   006615 710000 31                 TRA     s:21481
        31 006250   006615 710000 31                 TRA     s:21481
        31 006251   006615 710000 31                 TRA     s:21481
        31 006252   006615 710000 31                 TRA     s:21481
        31 006253   006615 710000 31                 TRA     s:21481
        31 006254   006615 710000 31                 TRA     s:21481
        31 006255   006615 710000 31                 TRA     s:21481
        31 006256   006615 710000 31                 TRA     s:21481
        31 006257   006615 710000 31                 TRA     s:21481
        31 006260   006615 710000 31                 TRA     s:21481
        31 006261   006615 710000 31                 TRA     s:21481
        31 006262   006615 710000 31                 TRA     s:21481
        31 006263   006615 710000 31                 TRA     s:21481
        31 006264   006615 710000 31                 TRA     s:21481
        31 006265   006615 710000 31                 TRA     s:21481
        31 006266   006615 710000 31                 TRA     s:21481
        31 006267   006615 710000 31                 TRA     s:21481
        31 006270   006615 710000 31                 TRA     s:21481
        31 006271   006632 710000 31                 TRA     s:21492
PL6.E3A0      #001=Z8DR$RECORD_DECL File=Z8DR.:Z8A6TSI                           SAT 08/09/97 11:18 Page:353

     1460    21186
     1461    21187    5        CASE(%NUMERIC_LITERAL);

     1462    21188    5          IF REDUCED_DATA.B.PIC_CLAUSE THEN

  21188 31 006272   000060 236000 0                  LDQ     REDUCED_DATA+21
        31 006273   000400 316003                    CANQ    256,DU
        31 006274   006632 600000 31                 TZE     s:21492

     1463    21189    6            DO;

     1464    21190    6              CALL Z8AU$CREATE_NUM_DESC (VALUE$ -> LX_ITEM.DNT$ -> DNT.TEXT.NAME,

  21190 31 006275   100002 473500                    LDP3    2,,PR1
        31 006276   300004 236100                    LDQ     4,,PR3
        31 006277   000022 772000                    QRL     18
        31 006300   000572 756000 0                  STQ     P$+1
        31 006301   000113 236000 32                 LDQ     75
        31 006302   000576 756000 0                  STQ     P$+5
        31 006303   000572 631400 0                  EPPR1   P$+1
        31 006304   000575 451400 0                  STP1    P$+4
        31 006305   000577 453400 0                  STP3    P$+6
        31 006306   000577 236000 0                  LDQ     P$+6
        31 006307   000114 036000 32                 ADLQ    76
        31 006310   000574 756000 0                  STQ     P$+3
        31 006311   000574 630400 0                  EPPR0   P$+3
        31 006312   000001 631400 32                 EPPR1   1
        31 006313   000000 701000 xent               TSX1    Z8AU$CREATE_NUM_DESC
        31 006314   000000 011000                    NOP     0

     1465    21191    6                          BINBIT(VALUE$ -> LX_ITEM.DNT$ -> DNT.TEXT.LENGTH,36),
     1466    21192    6                          NUM_DESC);
     1467    21193
     1468    21194    6              IF NUM_DESC.MANTISSA_SIGN_VALUE ~= %NO_SIGN_VALUE THEN

  21194 31 006315   000243 235000 0                  LDA     NUM_DESC+3
PL6.E3A0      #001=Z8DR$RECORD_DECL File=Z8DR.:Z8A6TSI                           SAT 08/09/97 11:18 Page:354
        31 006316   006345 600000 31                 TZE     s:21230

     1469    21195    6                IF PIC_OUT.EIS_TYPE = %PIC_EIS_NS THEN

  21195 31 006317   000005 220000 28                 LDX0    PIC_OUT+5
        31 006320   000003 100003                    CMPX0   3,DU
        31 006321   006345 601000 31                 TNZ     s:21230

     1470    21196                       %CONDITIONAL_ERROR (@LX_ITEM$ = VALUE$,
     1471    21197                                           @ERROR#   = %E$PIC_MUST_HAVE_SIGN,
     1472    21198                                           @LINE     = VALUE$ -> LX_ITEM.LINE,
     1473    21199                                           @COLUMN   = VALUE$ -> LX_ITEM.COLUMN);

  21209 31 006322   000236 470400 0                  LDP0    @VALUE$
        31 006323   000000 471500                    LDP1    0,,PR0
        31 006324   100000 236100                    LDQ     0,,PR1
        31 006325   400000 316007                    CANQ    -131072,DL
        31 006326   006345 601000 31                 TNZ     s:21230

  21211 31 006327   100006 633500                    EPPR3   6,,PR1
        31 006330   000574 453400 0                  STP3    P$+3
        31 006331   100005 634500                    EPPR4   5,,PR1
        31 006332   000573 454400 0                  STP4    P$+2
        31 006333   000116 236000 32                 LDQ     78
        31 006334   000572 756000 0                  STQ     P$+1
        31 006335   000572 630400 0                  EPPR0   P$+1
        31 006336   000001 631400 32                 EPPR1   1
        31 006337   000000 701000 xent               TSX1    Z8AE$ERROR
        31 006340   000000 011000                    NOP     0

  21220 31 006341   000236 470400 0                  LDP0    @VALUE$
        31 006342   000000 471500                    LDP1    0,,PR0
        31 006343   400000 236007                    LDQ     -131072,DL
        31 006344   100000 256100                    ORSQ    0,,PR1

     1474    21229
     1475    21230    6              IF PIC_OUT.TYPE ~= %PIC_TY_N THEN
PL6.E3A0      #001=Z8DR$RECORD_DECL File=Z8DR.:Z8A6TSI                           SAT 08/09/97 11:18 Page:355

  21230 31 006345   000002 220000 28                 LDX0    PIC_OUT+2
        31 006346   000005 100003                    CMPX0   5,DU
        31 006347   006632 600000 31                 TZE     s:21492

     1476    21231                     %CONDITIONAL_ERROR (@ERROR#   = %E$NUM_CONST_W_ALPHA_ITEM,
     1477    21232                                         @LX_ITEM$ = VALUE$,
     1478    21233                                         @LINE     = VALUE$ -> LX_ITEM.LINE,
     1479    21234                                         @COLUMN   = VALUE$ -> LX_ITEM.COLUMN);

  21244 31 006350   000236 470400 0                  LDP0    @VALUE$
        31 006351   000000 471500                    LDP1    0,,PR0
        31 006352   100000 236100                    LDQ     0,,PR1
        31 006353   400000 316007                    CANQ    -131072,DL
        31 006354   006632 601000 31                 TNZ     s:21492

  21246 31 006355   100006 633500                    EPPR3   6,,PR1
        31 006356   000574 453400 0                  STP3    P$+3
        31 006357   100005 634500                    EPPR4   5,,PR1
        31 006360   000573 454400 0                  STP4    P$+2
        31 006361   000120 236000 32                 LDQ     80
        31 006362   000572 756000 0                  STQ     P$+1
        31 006363   000572 630400 0                  EPPR0   P$+1
        31 006364   000001 631400 32                 EPPR1   1
        31 006365   000000 701000 xent               TSX1    Z8AE$ERROR
        31 006366   000000 011000                    NOP     0

  21255 31 006367   000236 470400 0                  LDP0    @VALUE$
        31 006370   000000 471500                    LDP1    0,,PR0
        31 006371   400000 236007                    LDQ     -131072,DL
        31 006372   100000 256100                    ORSQ    0,,PR1

     1480    21264    6            END;

  21264 31 006373   006632 710000 31                 TRA     s:21492

     1481    21265
PL6.E3A0      #001=Z8DR$RECORD_DECL File=Z8DR.:Z8A6TSI                           SAT 08/09/97 11:18 Page:356
     1482    21266    5        CASE(%NUMBER, %NUMBER_OR_PARAGRAPH);

     1483    21267    5          IF REDUCED_DATA.B.PIC_CLAUSE THEN

  21267 31 006374   000060 236000 0                  LDQ     REDUCED_DATA+21
        31 006375   000400 316003                    CANQ    256,DU
        31 006376   006632 600000 31                 TZE     s:21492

     1484    21268    6            DO;

     1485    21269    6              IF PIC_OUT.TYPE ~= %PIC_TY_N THEN

  21269 31 006377   000002 220000 28                 LDX0    PIC_OUT+2
        31 006400   000005 100003                    CMPX0   5,DU
        31 006401   006632 600000 31                 TZE     s:21492

     1486    21270                     %CONDITIONAL_ERROR (@ERROR#   = %E$NUM_CONST_W_ALPHA_ITEM,
     1487    21271                                         @LX_ITEM$ = VALUE$,
     1488    21272                                         @LINE     = VALUE$ -> LX_ITEM.LINE,
     1489    21273                                         @COLUMN   = VALUE$ -> LX_ITEM.COLUMN);

  21283 31 006402   100000 236100                    LDQ     0,,PR1
        31 006403   400000 316007                    CANQ    -131072,DL
        31 006404   006632 601000 31                 TNZ     s:21492

  21285 31 006405   100006 633500                    EPPR3   6,,PR1
        31 006406   000574 453400 0                  STP3    P$+3
        31 006407   100005 634500                    EPPR4   5,,PR1
        31 006410   000573 454400 0                  STP4    P$+2
        31 006411   000120 236000 32                 LDQ     80
        31 006412   000572 756000 0                  STQ     P$+1
        31 006413   000572 630400 0                  EPPR0   P$+1
        31 006414   000001 631400 32                 EPPR1   1
        31 006415   000000 701000 xent               TSX1    Z8AE$ERROR
        31 006416   000000 011000                    NOP     0

  21294 31 006417   000236 470400 0                  LDP0    @VALUE$
PL6.E3A0      #001=Z8DR$RECORD_DECL File=Z8DR.:Z8A6TSI                           SAT 08/09/97 11:18 Page:357
        31 006420   000000 471500                    LDP1    0,,PR0
        31 006421   400000 236007                    LDQ     -131072,DL
        31 006422   100000 256100                    ORSQ    0,,PR1

     1490    21303    6            END;

  21303 31 006423   006632 710000 31                 TRA     s:21492

     1491    21304
     1492    21305    5        CASE(%RSV_WRD_ZEROES);

     1493    21306               /* Peachy */
     1494    21307    5      ;
     1495    21308    5        CASE(%ALPHA_LITERAL,     %RSV_WRD_HIGH_VALUES,

     1496    21309    5             %RSV_WRD_SPACES,    %RSV_WRD_LOW_VALUES,
     1497    21310    5             %RSV_WRD_QUOTES,    %SINGLE_QUOTE);
     1498    21311    5          IF (REDUCED_DATA.USAGE.TYPE ~= %NO_USAGE

  21311 31 006424   000033 236000 0                  LDQ     REDUCED_DATA
        31 006425   006432 600000 31                 TZE     s:21311+6
        31 006426   000236 116007                    CMPQ    158,DL
        31 006427   006432 600000 31                 TZE     s:21311+6
        31 006430   000332 116007                    CMPQ    218,DL
        31 006431   006440 601000 31                 TNZ     s:21317
        31 006432   000060 236000 0                  LDQ     REDUCED_DATA+21
        31 006433   000400 316003                    CANQ    256,DU
        31 006434   006632 600000 31                 TZE     s:21492
        31 006435   000002 220000 28                 LDX0    PIC_OUT+2
        31 006436   000005 100003                    CMPX0   5,DU
        31 006437   006632 601000 31                 TNZ     s:21492

     1499    21312    5               AND REDUCED_DATA.USAGE.TYPE ~= %RSV_WRD_EBCDIC
     1500    21313    5               AND REDUCED_DATA.USAGE.TYPE ~= %RSV_WRD_GBCD)
     1501    21314    5          OR (REDUCED_DATA.B.PIC_CLAUSE
     1502    21315    5          AND PIC_OUT.TYPE = %PIC_TY_N) THEN
     1503    21316    6            DO;
PL6.E3A0      #001=Z8DR$RECORD_DECL File=Z8DR.:Z8A6TSI                           SAT 08/09/97 11:18 Page:358

     1504    21317    6              IF REDUCED_DATA.USAGE.TYPE = %RSV_WRD_POINTER THEN

  21317 31 006440   000033 236000 0                  LDQ     REDUCED_DATA
        31 006441   000522 116007                    CMPQ    338,DL
        31 006442   006467 601000 31                 TNZ     s:21366

     1505    21318                     %CONDITIONAL_ERROR (@ERROR#   = %E$CLAUSE_NOT_VALID,
     1506    21319                                         @LX_ITEM$ = VALUE$,
     1507    21320                                         @LINE     = VALUE$ -> LX_ITEM.LINE,
     1508    21321                                         @COLUMN   = VALUE$ -> LX_ITEM.COLUMN,
     1509    21322                                         @PLUG1 = "DNT$_FROM_RSWNO(%RSV_WRD_USAGE)");

  21332 31 006443   100000 236100                    LDQ     0,,PR1
        31 006444   400000 316007                    CANQ    -131072,DL
        31 006445   006510 601000 31                 TNZ     s:21388

  21334 31 006446   000122 236000 32                 LDQ     82
        31 006447   000575 756000 0                  STQ     P$+4
        31 006450   100006 633500                    EPPR3   6,,PR1
        31 006451   000574 453400 0                  STP3    P$+3
        31 006452   100005 634500                    EPPR4   5,,PR1
        31 006453   000573 454400 0                  STP4    P$+2
        31 006454   000123 236000 32                 LDQ     83
        31 006455   000572 756000 0                  STQ     P$+1
        31 006456   000572 630400 0                  EPPR0   P$+1
        31 006457   000076 631400 32                 EPPR1   62
        31 006460   000000 701000 xent               TSX1    Z8AE$ERROR
        31 006461   000000 011000                    NOP     0

  21343 31 006462   000236 470400 0                  LDP0    @VALUE$
        31 006463   000000 471500                    LDP1    0,,PR0
        31 006464   400000 236007                    LDQ     -131072,DL
        31 006465   100000 256100                    ORSQ    0,,PR1

  21350 31 006466   006510 710000 31                 TRA     s:21388

PL6.E3A0      #001=Z8DR$RECORD_DECL File=Z8DR.:Z8A6TSI                           SAT 08/09/97 11:18 Page:359
     1510    21352    6              ELSE
     1511    21353                     %CONDITIONAL_ERROR (@ERROR#   = %E$ILLEGAL_CHARS_IN_VALUE,
     1512    21354                                         @LX_ITEM$ = VALUE$,
     1513    21355                                         @LINE     = VALUE$ -> LX_ITEM.LINE,
     1514    21356                                         @COLUMN   = VALUE$ -> LX_ITEM.COLUMN);

  21366 31 006467   100000 236100                    LDQ     0,,PR1
        31 006470   400000 316007                    CANQ    -131072,DL
        31 006471   006510 601000 31                 TNZ     s:21388

  21368 31 006472   100006 633500                    EPPR3   6,,PR1
        31 006473   000574 453400 0                  STP3    P$+3
        31 006474   100005 634500                    EPPR4   5,,PR1
        31 006475   000573 454400 0                  STP4    P$+2
        31 006476   000125 236000 32                 LDQ     85
        31 006477   000572 756000 0                  STQ     P$+1
        31 006500   000572 630400 0                  EPPR0   P$+1
        31 006501   000001 631400 32                 EPPR1   1
        31 006502   000000 701000 xent               TSX1    Z8AE$ERROR
        31 006503   000000 011000                    NOP     0

  21377 31 006504   000236 470400 0                  LDP0    @VALUE$
        31 006505   000000 471500                    LDP1    0,,PR0
        31 006506   400000 236007                    LDQ     -131072,DL
        31 006507   100000 256100                    ORSQ    0,,PR1

     1515    21386                   %DELETE_CLAUSE (@CLAUSE$ = VALUE$);

  21388 31 006510   000160 236000 0                  LDQ     CDECL$
        31 006511   000010 036003                    ADLQ    8,DU
        31 006512   000572 756000 0                  STQ     P$+1
        31 006513   000572 630400 0                  EPPR0   P$+1
        31 006514   000005 631400 32                 EPPR1   5
        31 006515   000000 701000 xent               TSX1    Z8ED$DISPOSE_ABSSYN_TREE
        31 006516   000000 011000                    NOP     0

     1516    21391    6            END; /* END DO */
PL6.E3A0      #001=Z8DR$RECORD_DECL File=Z8DR.:Z8A6TSI                           SAT 08/09/97 11:18 Page:360

  21391 31 006517   006632 710000 31                 TRA     s:21492

     1517    21392
     1518    21393    5        CASE(%RSV_WRD_NULL);

     1519    21394    5          IF REDUCED_DATA.B.ELEMENTARY AND

  21394 31 006520   000060 234000 0                  SZN     REDUCED_DATA+21
        31 006521   006560 605000 31                 TPL     s:21438
        31 006522   000033 236000 0                  LDQ     REDUCED_DATA
        31 006523   000522 116007                    CMPQ    338,DL
        31 006524   006560 600000 31                 TZE     s:21438

     1520    21395    5             REDUCED_DATA.USAGE.TYPE ~= %RSV_WRD_POINTER THEN
     1521    21396    6            DO;

     1522    21397                   %CONDITIONAL_ERROR (@ERROR#   = %E$CLAUSE_NOT_VALID,
     1523    21398                                       @LX_ITEM$ = VALUE$,
     1524    21399                                       @LINE     = VALUE$ -> LX_ITEM.LINE,
     1525    21400                                       @COLUMN   = VALUE$ -> LX_ITEM.COLUMN,
     1526    21401                                       @PLUG1 = "DNT$_FROM_RSWNO(%RSV_WRD_USAGE)");

  21411 31 006525   100000 236100                    LDQ     0,,PR1
        31 006526   400000 316007                    CANQ    -131072,DL
        31 006527   006550 601000 31                 TNZ     s:21433

  21413 31 006530   000122 236000 32                 LDQ     82
        31 006531   000575 756000 0                  STQ     P$+4
        31 006532   100006 633500                    EPPR3   6,,PR1
        31 006533   000574 453400 0                  STP3    P$+3
        31 006534   100005 634500                    EPPR4   5,,PR1
        31 006535   000573 454400 0                  STP4    P$+2
        31 006536   000123 236000 32                 LDQ     83
        31 006537   000572 756000 0                  STQ     P$+1
        31 006540   000572 630400 0                  EPPR0   P$+1
        31 006541   000076 631400 32                 EPPR1   62
PL6.E3A0      #001=Z8DR$RECORD_DECL File=Z8DR.:Z8A6TSI                           SAT 08/09/97 11:18 Page:361
        31 006542   000000 701000 xent               TSX1    Z8AE$ERROR
        31 006543   000000 011000                    NOP     0

  21422 31 006544   000236 470400 0                  LDP0    @VALUE$
        31 006545   000000 471500                    LDP1    0,,PR0
        31 006546   400000 236007                    LDQ     -131072,DL
        31 006547   100000 256100                    ORSQ    0,,PR1

     1527    21431                   %DELETE_CLAUSE (@CLAUSE$ = VALUE$);

  21433 31 006550   000160 236000 0                  LDQ     CDECL$
        31 006551   000010 036003                    ADLQ    8,DU
        31 006552   000572 756000 0                  STQ     P$+1
        31 006553   000572 630400 0                  EPPR0   P$+1
        31 006554   000005 631400 32                 EPPR1   5
        31 006555   000000 701000 xent               TSX1    Z8ED$DISPOSE_ABSSYN_TREE
        31 006556   000000 011000                    NOP     0

     1528    21436    6            END; /* END DO */

  21436 31 006557   006632 710000 31                 TRA     s:21492

     1529    21437    5          ELSE
     1530    21438    5            IF NOT REDUCED_DATA.B.ELEMENTARY THEN

  21438 31 006560   000060 234000 0                  SZN     REDUCED_DATA+21
        31 006561   006632 604000 31                 TMI     s:21492

     1531    21439    6              DO;

     1532    21440                     %CONDITIONAL_ERROR (@ERROR#   = %E$VALUE_NUMERIC_ERR,
     1533    21441                                         @LX_ITEM$ = VALUE$,
     1534    21442                                         @LINE     = VALUE$ -> LX_ITEM.LINE,
     1535    21443                                         @COLUMN   = VALUE$ -> LX_ITEM.COLUMN,
     1536    21444                                         @PLUG1 = "DNT$_FROM_RSWNO(%RSV_WRD_USAGE)");

  21454 31 006562   100000 236100                    LDQ     0,,PR1
PL6.E3A0      #001=Z8DR$RECORD_DECL File=Z8DR.:Z8A6TSI                           SAT 08/09/97 11:18 Page:362
        31 006563   400000 316007                    CANQ    -131072,DL
        31 006564   006605 601000 31                 TNZ     s:21476

  21456 31 006565   000122 236000 32                 LDQ     82
        31 006566   000575 756000 0                  STQ     P$+4
        31 006567   100006 633500                    EPPR3   6,,PR1
        31 006570   000574 453400 0                  STP3    P$+3
        31 006571   100005 634500                    EPPR4   5,,PR1
        31 006572   000573 454400 0                  STP4    P$+2
        31 006573   000127 236000 32                 LDQ     87
        31 006574   000572 756000 0                  STQ     P$+1
        31 006575   000572 630400 0                  EPPR0   P$+1
        31 006576   000076 631400 32                 EPPR1   62
        31 006577   000000 701000 xent               TSX1    Z8AE$ERROR
        31 006600   000000 011000                    NOP     0

  21465 31 006601   000236 470400 0                  LDP0    @VALUE$
        31 006602   000000 471500                    LDP1    0,,PR0
        31 006603   400000 236007                    LDQ     -131072,DL
        31 006604   100000 256100                    ORSQ    0,,PR1

     1537    21474                     %DELETE_CLAUSE (@CLAUSE$ = VALUE$);

  21476 31 006605   000160 236000 0                  LDQ     CDECL$
        31 006606   000010 036003                    ADLQ    8,DU
        31 006607   000572 756000 0                  STQ     P$+1
        31 006610   000572 630400 0                  EPPR0   P$+1
        31 006611   000005 631400 32                 EPPR1   5
        31 006612   000000 701000 xent               TSX1    Z8ED$DISPOSE_ABSSYN_TREE
        31 006613   000000 011000                    NOP     0

     1538    21479    6              END; /* END DO */

  21479 31 006614   006632 710000 31                 TRA     s:21492

     1539    21480    5        CASE(ELSE);

PL6.E3A0      #001=Z8DR$RECORD_DECL File=Z8DR.:Z8A6TSI                           SAT 08/09/97 11:18 Page:363
     1540    21481    5          CALL Z8AE$ERROR (%E$UNEXPECTED_CASE);

  21481 31 006615   000030 630400 32                 EPPR0   24
        31 006616   000005 631400 32                 EPPR1   5
        31 006617   000000 701000 xent               TSX1    Z8AE$ERROR
        31 006620   000000 011000                    NOP     0

     1541    21482               %DELETE_CLAUSE (@CLAUSE$ = VALUE$);

  21484 31 006621   000160 236000 0                  LDQ     CDECL$
        31 006622   000010 036003                    ADLQ    8,DU
        31 006623   000572 756000 0                  STQ     P$+1
        31 006624   000572 630400 0                  EPPR0   P$+1
        31 006625   000005 631400 32                 EPPR1   5
        31 006626   000000 701000 xent               TSX1    Z8ED$DISPOSE_ABSSYN_TREE
        31 006627   000000 011000                    NOP     0

     1542    21487    5          RETURN;

  21487 31 006630   000235 221200 0                  LDX1  ! J+1
        31 006631   000001 702211                    TSX2  ! 1,X1

     1543    21488
     1544    21489    5      END; /* Case -- value$ -> lx_item.symbol */

     1545    21490
     1546    21491
     1547    21492    4      IF REDUCED_DATA.USAGE.TYPE = %RSV_WRD_POINTER THEN

  21492 31 006632   000033 235000 0                  LDA     REDUCED_DATA
        31 006633   000522 115007                    CMPA    338,DL
        31 006634   006701 601000 31                 TNZ     s:21539

     1548    21493    4        IF VALUE$ ~= ADDR(NIL) AND

  21493 31 006635   000236 470400 0                  LDP0    @VALUE$
        31 006636   000000 236100                    LDQ     0,,PR0
PL6.E3A0      #001=Z8DR$RECORD_DECL File=Z8DR.:Z8A6TSI                           SAT 08/09/97 11:18 Page:364
        31 006637   000000 116000 32                 CMPQ    0
        31 006640   006701 600000 31                 TZE     s:21539
        31 006641   000000 471500                    LDP1    0,,PR0
        31 006642   100003 235100                    LDA     3,,PR1
        31 006643   000463 115007                    CMPA    307,DL
        31 006644   006701 600000 31                 TZE     s:21539

     1549    21494    4          VALUE$ -> LX_ITEM.SYMBOL ~= %RSV_WRD_NULL THEN
     1550    21495    5          DO;

     1551    21496                 %CONDITIONAL_ERROR (@ERROR#   = %E$CLAUSE_NOT_VALID,
     1552    21497                                     @LX_ITEM$ = VALUE$,
     1553    21498                                     @LINE     = VALUE$ -> LX_ITEM.LINE,
     1554    21499                                     @COLUMN   = VALUE$ -> LX_ITEM.COLUMN,
     1555    21500                                     @PLUG1 = "DNT$_FROM_RSWNO(%RSV_WRD_USAGE)");

  21510 31 006645   100000 236100                    LDQ     0,,PR1
        31 006646   400000 316007                    CANQ    -131072,DL
        31 006647   006670 601000 31                 TNZ     s:21532

  21512 31 006650   000122 236000 32                 LDQ     82
        31 006651   000575 756000 0                  STQ     P$+4
        31 006652   100006 633500                    EPPR3   6,,PR1
        31 006653   000574 453400 0                  STP3    P$+3
        31 006654   100005 634500                    EPPR4   5,,PR1
        31 006655   000573 454400 0                  STP4    P$+2
        31 006656   000123 236000 32                 LDQ     83
        31 006657   000572 756000 0                  STQ     P$+1
        31 006660   000572 630400 0                  EPPR0   P$+1
        31 006661   000076 631400 32                 EPPR1   62
        31 006662   000000 701000 xent               TSX1    Z8AE$ERROR
        31 006663   000000 011000                    NOP     0

  21521 31 006664   000236 470400 0                  LDP0    @VALUE$
        31 006665   000000 471500                    LDP1    0,,PR0
        31 006666   400000 236007                    LDQ     -131072,DL
        31 006667   100000 256100                    ORSQ    0,,PR1
PL6.E3A0      #001=Z8DR$RECORD_DECL File=Z8DR.:Z8A6TSI                           SAT 08/09/97 11:18 Page:365

     1556    21530                 %DELETE_CLAUSE     (@CLAUSE$  = VALUE$);

  21532 31 006670   000160 236000 0                  LDQ     CDECL$
        31 006671   000010 036003                    ADLQ    8,DU
        31 006672   000572 756000 0                  STQ     P$+1
        31 006673   000572 630400 0                  EPPR0   P$+1
        31 006674   000005 631400 32                 EPPR1   5
        31 006675   000000 701000 xent               TSX1    Z8ED$DISPOSE_ABSSYN_TREE
        31 006676   000000 011000                    NOP     0

     1557    21535    5            RETURN;

  21535 31 006677   000235 221200 0                  LDX1  ! J+1
        31 006700   000001 702211                    TSX2  ! 1,X1

     1558    21536    5          END;
     1559    21537
     1560    21538
     1561    21539    4      CALL REDEF_AND_OCCURS_CHECK (VALUE$)

  21539 31 006701   000236 236000 0                  LDQ     @VALUE$
        31 006702   000232 756000 0                  STQ     @VALUE$
        31 006703   005202 701000 31                 TSX1    REDEF_AND_OCCURS_CHECK
        31 006704   006706 702000 31                 TSX2    s:21544
        31 006705   006717 710000 31                 TRA     s:21550

     1562    21540    4        WHENALTRETURN
     1563    21541    5          DO;

     1564    21542                 %DELETE_CLAUSE (@CLAUSE$ = VALUE$);

  21544 31 006706   000160 236000 0                  LDQ     CDECL$
        31 006707   000010 036003                    ADLQ    8,DU
        31 006710   000572 756000 0                  STQ     P$+1
        31 006711   000572 630400 0                  EPPR0   P$+1
        31 006712   000005 631400 32                 EPPR1   5
PL6.E3A0      #001=Z8DR$RECORD_DECL File=Z8DR.:Z8A6TSI                           SAT 08/09/97 11:18 Page:366
        31 006713   000000 701000 xent               TSX1    Z8ED$DISPOSE_ABSSYN_TREE
        31 006714   000000 011000                    NOP     0

     1565    21547    5            RETURN;

  21547 31 006715   000235 221200 0                  LDX1  ! J+1
        31 006716   000001 702211                    TSX2  ! 1,X1

     1566    21548    5          END;
     1567    21549
     1568    21550    4      IF CDECL$ -> LX_REC_DECL.P.REDEFINES$ ~= ADDR(NIL) THEN

  21550 31 006717   000160 470400 0                  LDP0    CDECL$
        31 006720   000005 236100                    LDQ     5,,PR0
        31 006721   000000 116000 32                 CMPQ    0
        31 006722   006755 600000 31                 TZE     s:21592

     1569    21551    5        DO;

     1570    21552               %CONDITIONAL_ERROR (@ERROR#   = %E$VALUE_AND_REDEFINES,
     1571    21553                                   @LX_ITEM$ = VALUE$,
     1572    21554                                   @LINE     = VALUE$ -> LX_ITEM.LINE,
     1573    21555                                   @COLUMN   = VALUE$ -> LX_ITEM.COLUMN);

  21565 31 006723   000236 471400 0                  LDP1    @VALUE$
        31 006724   100000 473500                    LDP3    0,,PR1
        31 006725   300000 236100                    LDQ     0,,PR3
        31 006726   400000 316007                    CANQ    -131072,DL
        31 006727   006746 601000 31                 TNZ     s:21587

  21567 31 006730   300006 634500                    EPPR4   6,,PR3
        31 006731   000574 454400 0                  STP4    P$+3
        31 006732   300005 635500                    EPPR5   5,,PR3
        31 006733   000573 455400 0                  STP5    P$+2
        31 006734   000112 236000 32                 LDQ     74
        31 006735   000572 756000 0                  STQ     P$+1
        31 006736   000572 630400 0                  EPPR0   P$+1
PL6.E3A0      #001=Z8DR$RECORD_DECL File=Z8DR.:Z8A6TSI                           SAT 08/09/97 11:18 Page:367
        31 006737   000001 631400 32                 EPPR1   1
        31 006740   000000 701000 xent               TSX1    Z8AE$ERROR
        31 006741   000000 011000                    NOP     0

  21576 31 006742   000236 470400 0                  LDP0    @VALUE$
        31 006743   000000 471500                    LDP1    0,,PR0
        31 006744   400000 236007                    LDQ     -131072,DL
        31 006745   100000 256100                    ORSQ    0,,PR1

     1574    21585               %DELETE_CLAUSE (@CLAUSE$ = VALUE$);

  21587 31 006746   000160 236000 0                  LDQ     CDECL$
        31 006747   000010 036003                    ADLQ    8,DU
        31 006750   000572 756000 0                  STQ     P$+1
        31 006751   000572 630400 0                  EPPR0   P$+1
        31 006752   000005 631400 32                 EPPR1   5
        31 006753   000000 701000 xent               TSX1    Z8ED$DISPOSE_ABSSYN_TREE
        31 006754   000000 011000                    NOP     0

     1575    21590    5        END;

     1576    21591
     1577    21592    4      IF CDECL$ -> LX_REC_DECL.P.RENAMES$ ~= ADDR(NIL) THEN

  21592 31 006755   000160 470400 0                  LDP0    CDECL$
        31 006756   000006 236100                    LDQ     6,,PR0
        31 006757   000000 116000 32                 CMPQ    0
        31 006760   007015 600000 31                 TZE     s:21635

     1578    21593    5        DO;

     1579    21594               %CONDITIONAL_ERROR (@ERROR#   = %E$CLAUSE_NOT_VALID,
     1580    21595                                   @LX_ITEM$ = VALUE$,
     1581    21596                                   @LINE     = VALUE$ -> LX_ITEM.LINE,
     1582    21597                                   @COLUMN   = VALUE$ -> LX_ITEM.COLUMN,
     1583    21598                                   @PLUG1    = "DNT$_FROM_RSWNO(%RSV_WRD_RENAMES)");

PL6.E3A0      #001=Z8DR$RECORD_DECL File=Z8DR.:Z8A6TSI                           SAT 08/09/97 11:18 Page:368
  21608 31 006761   000236 471400 0                  LDP1    @VALUE$
        31 006762   100000 473500                    LDP3    0,,PR1
        31 006763   300000 236100                    LDQ     0,,PR3
        31 006764   400000 316007                    CANQ    -131072,DL
        31 006765   007006 601000 31                 TNZ     s:21630

  21610 31 006766   000130 236000 32                 LDQ     88
        31 006767   000575 756000 0                  STQ     P$+4
        31 006770   300006 634500                    EPPR4   6,,PR3
        31 006771   000574 454400 0                  STP4    P$+3
        31 006772   300005 635500                    EPPR5   5,,PR3
        31 006773   000573 455400 0                  STP5    P$+2
        31 006774   000123 236000 32                 LDQ     83
        31 006775   000572 756000 0                  STQ     P$+1
        31 006776   000572 630400 0                  EPPR0   P$+1
        31 006777   000076 631400 32                 EPPR1   62
        31 007000   000000 701000 xent               TSX1    Z8AE$ERROR
        31 007001   000000 011000                    NOP     0

  21619 31 007002   000236 470400 0                  LDP0    @VALUE$
        31 007003   000000 471500                    LDP1    0,,PR0
        31 007004   400000 236007                    LDQ     -131072,DL
        31 007005   100000 256100                    ORSQ    0,,PR1

     1584    21628               %DELETE_CLAUSE (@CLAUSE$ = VALUE$);

  21630 31 007006   000160 236000 0                  LDQ     CDECL$
        31 007007   000010 036003                    ADLQ    8,DU
        31 007010   000572 756000 0                  STQ     P$+1
        31 007011   000572 630400 0                  EPPR0   P$+1
        31 007012   000005 631400 32                 EPPR1   5
        31 007013   000000 701000 xent               TSX1    Z8ED$DISPOSE_ABSSYN_TREE
        31 007014   000000 011000                    NOP     0

     1585    21633    5        END;

     1586    21634
PL6.E3A0      #001=Z8DR$RECORD_DECL File=Z8DR.:Z8A6TSI                           SAT 08/09/97 11:18 Page:369
     1587    21635    4   END VALUE_IS_LITERAL;

  21635 31 007015   000235 221200 0                  LDX1  ! J+1
        31 007016   000001 702211                    TSX2  ! 1,X1

     1588    21636        %EJECT;
PL6.E3A0      #001=Z8DR$RECORD_DECL File=Z8DR.:Z8A6TSI                           SAT 08/09/97 11:18 Page:370
     1589    21637        /*==============*/
     1590    21638    3     VALIDATE_USAGE: PROC;

  21638 31 007017   000246 741200 0     VALIDATE_US* STX1  ! NUM_DESC+6

     1591    21639        /*==============*/
     1592    21640
     1593    21641
     1594    21642    4   DCL USAGE$                    PTR;
     1595    21643    4   DCL LINE#                     SBIN WORD;
     1596    21644    4   DCL COLUMN#                   SBIN WORD;
     1597    21645    4   DCL PLUG$                     PTR;
     1598    21646    4   DCL STK_OBJ                   SBIN WORD;
     1599    21647    4   DCL I                         SBIN WORD;
     1600    21648
     1601    21649    4      IF CDECL$ -> LX_REC_DECL.P.RENAMES$ ~= ADDR(NIL) THEN

  21649 31 007020   000160 470400 0                  LDP0    CDECL$
        31 007021   000006 236100                    LDQ     6,,PR0
        31 007022   000000 116000 32                 CMPQ    0
        31 007023   007065 600000 31                 TZE     s:21700

     1602    21650    5        DO;

     1603    21651    5          IF CDECL$ -> LX_REC_DECL.P.USAGE$ ~= ADDR(NIL) THEN

  21651 31 007024   000003 236100                    LDQ     3,,PR0
        31 007025   000000 116000 32                 CMPQ    0
        31 007026   007063 600000 31                 TZE     s:21697

     1604    21652    6            DO;

     1605    21653    6              USAGE$ = CDECL$ -> LX_REC_DECL.P.USAGE$;

  21653 31 007027   000247 756000 0                  STQ     USAGE$

     1606    21654
PL6.E3A0      #001=Z8DR$RECORD_DECL File=Z8DR.:Z8A6TSI                           SAT 08/09/97 11:18 Page:371
     1607    21655                   %CONDITIONAL_ERROR (@LX_ITEM$ = USAGE$,
     1608    21656                                      @ERROR#   = %E$CLAUSE_NOT_VALID,
     1609    21657                                      @LINE     = USAGE$ -> LX_ITEM.LINE,
     1610    21658                                      @COLUMN   = USAGE$ -> LX_ITEM.COLUMN,
     1611    21659                                      @PLUG1    = "DNT$_FROM_RSWNO(%RSV_WRD_RENAMES)");

  21669 31 007030   000247 471400 0                  LDP1    USAGE$
        31 007031   100000 236100                    LDQ     0,,PR1
        31 007032   400000 316007                    CANQ    -131072,DL
        31 007033   007054 601000 31                 TNZ     s:21692

  21671 31 007034   000130 236000 32                 LDQ     88
        31 007035   000575 756000 0                  STQ     P$+4
        31 007036   000247 236000 0                  LDQ     USAGE$
        31 007037   000006 036003                    ADLQ    6,DU
        31 007040   000574 756000 0                  STQ     P$+3
        31 007041   000247 236000 0                  LDQ     USAGE$
        31 007042   000005 036003                    ADLQ    5,DU
        31 007043   000123 235000 32                 LDA     83
        31 007044   000572 757000 0                  STAQ    P$+1
        31 007045   000572 630400 0                  EPPR0   P$+1
        31 007046   000076 631400 32                 EPPR1   62
        31 007047   000000 701000 xent               TSX1    Z8AE$ERROR
        31 007050   000000 011000                    NOP     0

  21680 31 007051   000247 470400 0                  LDP0    USAGE$
        31 007052   400000 236007                    LDQ     -131072,DL
        31 007053   000000 256100                    ORSQ    0,,PR0

     1612    21689
     1613    21690                   %DELETE_CLAUSE (@CLAUSE$ = USAGE$);

  21692 31 007054   000160 236000 0                  LDQ     CDECL$
        31 007055   000003 036003                    ADLQ    3,DU
        31 007056   000572 756000 0                  STQ     P$+1
        31 007057   000572 630400 0                  EPPR0   P$+1
        31 007060   000005 631400 32                 EPPR1   5
PL6.E3A0      #001=Z8DR$RECORD_DECL File=Z8DR.:Z8A6TSI                           SAT 08/09/97 11:18 Page:372
        31 007061   000000 701000 xent               TSX1    Z8ED$DISPOSE_ABSSYN_TREE
        31 007062   000000 011000                    NOP     0

     1614    21695    6            END;

     1615    21696
     1616    21697    5          RETURN;

  21697 31 007063   000246 221200 0                  LDX1  ! NUM_DESC+6
        31 007064   000001 702211                    TSX2  ! 1,X1

     1617    21698    5        END;
     1618    21699
     1619    21700    4      IF REDUCED_DATA.B.ELEMENTARY THEN

  21700 31 007065   000060 234000 0                  SZN     REDUCED_DATA+21
        31 007066   007141 605000 31                 TPL     s:21734

     1620    21701    4        IF REDUCED_DATA.USAGE.TYPE                      = %NO_USAGE

  21701 31 007067   000033 235000 0                  LDA     REDUCED_DATA
        31 007070   007141 601000 31                 TNZ     s:21734
        31 007071   000000 235000 29                 LDA     GROUP
        31 007072   007141 601000 31                 TNZ     s:21734
        31 007073   000004 236100                    LDQ     4,,PR0
        31 007074   000000 116000 32                 CMPQ    0
        31 007075   007141 601000 31                 TNZ     s:21734

     1621    21702    4        AND GROUP.USAGE.TYPE                            = %NO_USAGE
     1622    21703    4        AND CDECL$ -> LX_REC_DECL.P.PIC_CLAUSE$  = ADDR(NIL) THEN
     1623    21704    5          DO;

     1624    21705    5            LINE# = CDECL$ -> LX_REC_DECL.P.LEVEL_NO$ ->

  21705 31 007076   000001 471500                    LDP1    1,,PR0
        31 007077   100005 235100                    LDA     5,,PR1
        31 007100   000250 755000 0                  STA     LINE#
PL6.E3A0      #001=Z8DR$RECORD_DECL File=Z8DR.:Z8A6TSI                           SAT 08/09/97 11:18 Page:373

     1625    21706    5                    LX_ITEM.LINE;
     1626    21707    5            COLUMN# = CDECL$ -> LX_REC_DECL.P.LEVEL_NO$ ->

  21707 31 007101   000001 471500                    LDP1    1,,PR0
        31 007102   100006 235100                    LDA     6,,PR1
        31 007103   000251 755000 0                  STA     COLUMN#

     1627    21708    5                      LX_ITEM.COLUMN;
     1628    21709    5            PLUG$ = CDECL$ -> LX_REC_DECL.P.DATA_NAME$ ->

  21709 31 007104   000002 471500                    LDP1    2,,PR0
        31 007105   100002 236100                    LDQ     2,,PR1
        31 007106   000252 756000 0                  STQ     PLUG$

     1629    21710    5                    LX_ITEM.DNT$;
     1630    21711
     1631    21712    5            CALL Z8AE$ERROR (%E$NO_PIC_USAGE_OR_GROUP,

  21712 31 007107   000132 630400 32                 EPPR0   90
        31 007110   000076 631400 32                 EPPR1   62
        31 007111   000000 701000 xent               TSX1    Z8AE$ERROR
        31 007112   000000 011000                    NOP     0

     1632    21713    5                             LINE#,
     1633    21714    5                             COLUMN#,
     1634    21715    5                             PLUG$);
     1635    21716                 %DEFAULT_PIC;

  21718 31 007113   000005 220003                    LDX0    5,DU
        31 007114   000002 740000 28                 STX0    PIC_OUT+2

  21719 31 007115   000004 221003                    LDX1    4,DU
        31 007116   000001 441000 28                 SXL1    PIC_OUT+1

  21720 31 007117   000004 235007                    LDA     4,DL
        31 007120   000000 755000 28                 STA     PIC_OUT
PL6.E3A0      #001=Z8DR$RECORD_DECL File=Z8DR.:Z8A6TSI                           SAT 08/09/97 11:18 Page:374

  21721 31 007121   000000 222003                    LDX2    0,DU
        31 007122   000001 742000 28                 STX2    PIC_OUT+1

  21722 31 007123   000003 223003                    LDX3    3,DU
        31 007124   000005 743000 28                 STX3    PIC_OUT+5

  21723 31 007125   000160 470400 0                  LDP0    CDECL$
        31 007126   000010 236100                    LDQ     8,,PR0
        31 007127   000000 116000 32                 CMPQ    0
        31 007130   007140 600000 31                 TZE     s:21731

  21726 31 007131   000160 236000 0                  LDQ     CDECL$
        31 007132   000010 036003                    ADLQ    8,DU
        31 007133   000572 756000 0                  STQ     P$+1
        31 007134   000572 630400 0                  EPPR0   P$+1
        31 007135   000005 631400 32                 EPPR1   5
        31 007136   000000 701000 xent               TSX1    Z8ED$DISPOSE_ABSSYN_TREE
        31 007137   000000 011000                    NOP     0

     1636    21731    5            REDUCED_DATA.USAGE.TYPE = %NO_USAGE;

  21731 31 007140   000033 450000 0                  STZ     REDUCED_DATA

     1637    21732    5          END;

     1638    21733
     1639    21734    4      IF GROUP.USAGE.TYPE ~= REDUCED_DATA.USAGE.TYPE THEN

  21734 31 007141   000000 236000 29                 LDQ     GROUP
        31 007142   000033 116000 0                  CMPQ    REDUCED_DATA
        31 007143   007177 600000 31                 TZE     s:21780

     1640    21735    4        IF REDUCED_DATA.USAGE.TYPE ~= %NO_USAGE

  21735 31 007144   000033 235000 0                  LDA     REDUCED_DATA
        31 007145   007177 600000 31                 TZE     s:21780
PL6.E3A0      #001=Z8DR$RECORD_DECL File=Z8DR.:Z8A6TSI                           SAT 08/09/97 11:18 Page:375
        31 007146   000000 116003                    CMPQ    0,DU
        31 007147   007177 600000 31                 TZE     s:21780

     1641    21736    4        AND GROUP.USAGE.TYPE       ~= %NO_USAGE THEN
     1642    21737    5          DO;

     1643    21738    5            USAGE$  = CDECL$ -> LX_REC_DECL.P.USAGE$;

  21738 31 007150   000160 470400 0                  LDP0    CDECL$
        31 007151   000003 236100                    LDQ     3,,PR0
        31 007152   000247 756000 0                  STQ     USAGE$

     1644    21739    5            LINE#   = USAGE$ -> LX_ITEM.LINE;

  21739 31 007153   000247 471400 0                  LDP1    USAGE$
        31 007154   100005 235100                    LDA     5,,PR1
        31 007155   000250 755000 0                  STA     LINE#

     1645    21740    5            COLUMN# = USAGE$ -> LX_ITEM.COLUMN;

  21740 31 007156   100006 235100                    LDA     6,,PR1
        31 007157   000251 755000 0                  STA     COLUMN#

     1646    21741    5            PLUG$   = CDECL$ -> LX_REC_DECL.P.DATA_NAME$ -> LX_ITEM.DNT$;

  21741 31 007160   000002 473500                    LDP3    2,,PR0
        31 007161   300002 236100                    LDQ     2,,PR3
        31 007162   000252 756000 0                  STQ     PLUG$

     1647    21742
     1648    21743                 %CONDITIONAL_ERROR (@LX_ITEM$ = USAGE$,
     1649    21744                                     @ERROR#   = %E$CONFLICT_USAGE_CLAUSES,
     1650    21745                                     @LINE     = LINE#,
     1651    21746                                     @COLUMN   = COLUMN#,
     1652    21747                                     @PLUG1    = PLUG$);

  21757 31 007163   100000 236100                    LDQ     0,,PR1
PL6.E3A0      #001=Z8DR$RECORD_DECL File=Z8DR.:Z8A6TSI                           SAT 08/09/97 11:18 Page:376
        31 007164   400000 316007                    CANQ    -131072,DL
        31 007165   007175 601000 31                 TNZ     s:21777

  21759 31 007166   000137 630400 32                 EPPR0   95
        31 007167   000076 631400 32                 EPPR1   62
        31 007170   000000 701000 xent               TSX1    Z8AE$ERROR
        31 007171   000000 011000                    NOP     0

  21768 31 007172   000247 470400 0                  LDP0    USAGE$
        31 007173   400000 236007                    LDQ     -131072,DL
        31 007174   000000 256100                    ORSQ    0,,PR0

     1653    21777    5            REDUCED_DATA.USAGE.TYPE = GROUP.USAGE.TYPE;

  21777 31 007175   000000 235000 29                 LDA     GROUP
        31 007176   000033 755000 0                  STA     REDUCED_DATA

     1654    21778    5          END;

     1655    21779
     1656    21780    4      IF COMCOM.OB.FIPS.LEVEL >= %HIGH_LEV THEN

  21780 31 007177   000036 720000 xsym               LXL0    COMCOM+30
        31 007200   007377 604400 31                 TMOZ    s:21831

     1657    21781    5        DO CASE(REDUCED_DATA.USAGE.TYPE);

  21781 31 007201   000033 235000 0                  LDA     REDUCED_DATA
        31 007202   000136 115007                    CMPA    94,DL
        31 007203   007205 602005 31                 TNC     s:21781+4,AL
        31 007204   007343 710000 31                 TRA     s:21786
        31 007205   007377 710000 31                 TRA     s:21831
        31 007206   007343 710000 31                 TRA     s:21786
        31 007207   007343 710000 31                 TRA     s:21786
        31 007210   007343 710000 31                 TRA     s:21786
        31 007211   007343 710000 31                 TRA     s:21786
        31 007212   007343 710000 31                 TRA     s:21786
PL6.E3A0      #001=Z8DR$RECORD_DECL File=Z8DR.:Z8A6TSI                           SAT 08/09/97 11:18 Page:377
        31 007213   007343 710000 31                 TRA     s:21786
        31 007214   007343 710000 31                 TRA     s:21786
        31 007215   007343 710000 31                 TRA     s:21786
        31 007216   007343 710000 31                 TRA     s:21786
        31 007217   007343 710000 31                 TRA     s:21786
        31 007220   007343 710000 31                 TRA     s:21786
        31 007221   007343 710000 31                 TRA     s:21786
        31 007222   007343 710000 31                 TRA     s:21786
        31 007223   007343 710000 31                 TRA     s:21786
        31 007224   007343 710000 31                 TRA     s:21786
        31 007225   007343 710000 31                 TRA     s:21786
        31 007226   007343 710000 31                 TRA     s:21786
        31 007227   007343 710000 31                 TRA     s:21786
        31 007230   007343 710000 31                 TRA     s:21786
        31 007231   007343 710000 31                 TRA     s:21786
        31 007232   007343 710000 31                 TRA     s:21786
        31 007233   007343 710000 31                 TRA     s:21786
        31 007234   007343 710000 31                 TRA     s:21786
        31 007235   007343 710000 31                 TRA     s:21786
        31 007236   007343 710000 31                 TRA     s:21786
        31 007237   007343 710000 31                 TRA     s:21786
        31 007240   007343 710000 31                 TRA     s:21786
        31 007241   007343 710000 31                 TRA     s:21786
        31 007242   007343 710000 31                 TRA     s:21786
        31 007243   007343 710000 31                 TRA     s:21786
        31 007244   007343 710000 31                 TRA     s:21786
        31 007245   007343 710000 31                 TRA     s:21786
        31 007246   007343 710000 31                 TRA     s:21786
        31 007247   007343 710000 31                 TRA     s:21786
        31 007250   007343 710000 31                 TRA     s:21786
        31 007251   007343 710000 31                 TRA     s:21786
        31 007252   007343 710000 31                 TRA     s:21786
        31 007253   007343 710000 31                 TRA     s:21786
        31 007254   007343 710000 31                 TRA     s:21786
        31 007255   007343 710000 31                 TRA     s:21786
        31 007256   007343 710000 31                 TRA     s:21786
        31 007257   007343 710000 31                 TRA     s:21786
PL6.E3A0      #001=Z8DR$RECORD_DECL File=Z8DR.:Z8A6TSI                           SAT 08/09/97 11:18 Page:378
        31 007260   007343 710000 31                 TRA     s:21786
        31 007261   007343 710000 31                 TRA     s:21786
        31 007262   007343 710000 31                 TRA     s:21786
        31 007263   007343 710000 31                 TRA     s:21786
        31 007264   007343 710000 31                 TRA     s:21786
        31 007265   007343 710000 31                 TRA     s:21786
        31 007266   007343 710000 31                 TRA     s:21786
        31 007267   007343 710000 31                 TRA     s:21786
        31 007270   007343 710000 31                 TRA     s:21786
        31 007271   007343 710000 31                 TRA     s:21786
        31 007272   007343 710000 31                 TRA     s:21786
        31 007273   007343 710000 31                 TRA     s:21786
        31 007274   007343 710000 31                 TRA     s:21786
        31 007275   007343 710000 31                 TRA     s:21786
        31 007276   007343 710000 31                 TRA     s:21786
        31 007277   007343 710000 31                 TRA     s:21786
        31 007300   007343 710000 31                 TRA     s:21786
        31 007301   007343 710000 31                 TRA     s:21786
        31 007302   007343 710000 31                 TRA     s:21786
        31 007303   007343 710000 31                 TRA     s:21786
        31 007304   007343 710000 31                 TRA     s:21786
        31 007305   007343 710000 31                 TRA     s:21786
        31 007306   007343 710000 31                 TRA     s:21786
        31 007307   007343 710000 31                 TRA     s:21786
        31 007310   007343 710000 31                 TRA     s:21786
        31 007311   007343 710000 31                 TRA     s:21786
        31 007312   007343 710000 31                 TRA     s:21786
        31 007313   007343 710000 31                 TRA     s:21786
        31 007314   007343 710000 31                 TRA     s:21786
        31 007315   007343 710000 31                 TRA     s:21786
        31 007316   007343 710000 31                 TRA     s:21786
        31 007317   007343 710000 31                 TRA     s:21786
        31 007320   007343 710000 31                 TRA     s:21786
        31 007321   007343 710000 31                 TRA     s:21786
        31 007322   007343 710000 31                 TRA     s:21786
        31 007323   007343 710000 31                 TRA     s:21786
        31 007324   007343 710000 31                 TRA     s:21786
PL6.E3A0      #001=Z8DR$RECORD_DECL File=Z8DR.:Z8A6TSI                           SAT 08/09/97 11:18 Page:379
        31 007325   007343 710000 31                 TRA     s:21786
        31 007326   007343 710000 31                 TRA     s:21786
        31 007327   007343 710000 31                 TRA     s:21786
        31 007330   007343 710000 31                 TRA     s:21786
        31 007331   007343 710000 31                 TRA     s:21786
        31 007332   007343 710000 31                 TRA     s:21786
        31 007333   007343 710000 31                 TRA     s:21786
        31 007334   007343 710000 31                 TRA     s:21786
        31 007335   007343 710000 31                 TRA     s:21786
        31 007336   007343 710000 31                 TRA     s:21786
        31 007337   007343 710000 31                 TRA     s:21786
        31 007340   007343 710000 31                 TRA     s:21786
        31 007341   007343 710000 31                 TRA     s:21786
        31 007342   007377 710000 31                 TRA     s:21831

     1658    21782    5          CASE(%RSV_WRD_COMP, %NO_USAGE);

     1659    21783    5            /* Peachy */;
     1660    21784
     1661    21785    5          CASE(ELSE);

     1662    21786    5            USAGE$ = CDECL$ -> LX_REC_DECL.P.USAGE$;

  21786 31 007343   000160 470400 0                  LDP0    CDECL$
        31 007344   000003 236100                    LDQ     3,,PR0
        31 007345   000247 756000 0                  STQ     USAGE$

     1663    21787    6            IF USAGE$ = ADDR (NIL) THEN DO;

  21787 31 007346   000000 116000 32                 CMPQ    0
        31 007347   007360 601000 31                 TNZ     s:21792

     1664    21788    6              LINE# = CDECL$ -> LX_REC_DECL.P.DATA_NAME$ -> LX_ITEM.LINE;

  21788 31 007350   000002 471500                    LDP1    2,,PR0
        31 007351   100005 235100                    LDA     5,,PR1
        31 007352   000250 755000 0                  STA     LINE#
PL6.E3A0      #001=Z8DR$RECORD_DECL File=Z8DR.:Z8A6TSI                           SAT 08/09/97 11:18 Page:380

     1665    21789    6              CALL Z8AE$ERROR (%E$COMP_AND_DISPLAY_IN_ANSI,LINE#,0);

  21789 31 007353   000144 630400 32                 EPPR0   100
        31 007354   000001 631400 32                 EPPR1   1
        31 007355   000000 701000 xent               TSX1    Z8AE$ERROR
        31 007356   000000 011000                    NOP     0

     1666    21790    6            END;

  21790 31 007357   007377 710000 31                 TRA     s:21831

     1667    21791    6            ELSE DO;

     1668    21792    6              LINE#  = USAGE$ -> LX_ITEM.LINE;

  21792 31 007360   000247 471400 0                  LDP1    USAGE$
        31 007361   100005 235100                    LDA     5,,PR1
        31 007362   000250 755000 0                  STA     LINE#

     1669    21793    6              COLUMN#= USAGE$ -> LX_ITEM.COLUMN;

  21793 31 007363   100006 235100                    LDA     6,,PR1
        31 007364   000251 755000 0                  STA     COLUMN#

     1670    21794
     1671    21795                   %CONDITIONAL_ERROR (@LX_ITEM$ = USAGE$,
     1672    21796                                       @ERROR#   = %E$COMP_AND_DISPLAY_IN_ANSI,
     1673    21797                                       @LINE     = LINE#,
     1674    21798                                       @COLUMN   = COLUMN#);

  21808 31 007365   100000 236100                    LDQ     0,,PR1
        31 007366   400000 316007                    CANQ    -131072,DL
        31 007367   007377 601000 31                 TNZ     s:21831

  21810 31 007370   000147 630400 32                 EPPR0   103
        31 007371   000001 631400 32                 EPPR1   1
PL6.E3A0      #001=Z8DR$RECORD_DECL File=Z8DR.:Z8A6TSI                           SAT 08/09/97 11:18 Page:381
        31 007372   000000 701000 xent               TSX1    Z8AE$ERROR
        31 007373   000000 011000                    NOP     0

  21819 31 007374   000247 470400 0                  LDP0    USAGE$
        31 007375   400000 236007                    LDQ     -131072,DL
        31 007376   000000 256100                    ORSQ    0,,PR0

     1675    21828    6            END;

     1676    21829    5        END; /* Case */

     1677    21830
     1678    21831    5      DO CASE (REDUCED_DATA.USAGE.TYPE);

  21831 31 007377   000033 235000 0                  LDA     REDUCED_DATA
        31 007400   000135 135007                    SBLA    93,DL
        31 007401   000046 115007                    CMPA    38,DL
        31 007402   007404 602005 31                 TNC     s:21831+5,AL
        31 007403   007622 710000 31                 TRA     s:21955
        31 007404   007452 710000 31                 TRA     s:21835
        31 007405   007622 710000 31                 TRA     s:21955
        31 007406   007622 710000 31                 TRA     s:21955
        31 007407   007622 710000 31                 TRA     s:21955
        31 007410   007622 710000 31                 TRA     s:21955
        31 007411   007622 710000 31                 TRA     s:21955
        31 007412   007622 710000 31                 TRA     s:21955
        31 007413   007452 710000 31                 TRA     s:21835
        31 007414   007452 710000 31                 TRA     s:21835
        31 007415   007452 710000 31                 TRA     s:21835
        31 007416   007622 710000 31                 TRA     s:21955
        31 007417   007622 710000 31                 TRA     s:21955
        31 007420   007452 710000 31                 TRA     s:21835
        31 007421   007622 710000 31                 TRA     s:21955
        31 007422   007622 710000 31                 TRA     s:21955
        31 007423   007622 710000 31                 TRA     s:21955
        31 007424   007622 710000 31                 TRA     s:21955
        31 007425   007622 710000 31                 TRA     s:21955
PL6.E3A0      #001=Z8DR$RECORD_DECL File=Z8DR.:Z8A6TSI                           SAT 08/09/97 11:18 Page:382
        31 007426   007622 710000 31                 TRA     s:21955
        31 007427   007622 710000 31                 TRA     s:21955
        31 007430   007622 710000 31                 TRA     s:21955
        31 007431   007622 710000 31                 TRA     s:21955
        31 007432   007622 710000 31                 TRA     s:21955
        31 007433   007622 710000 31                 TRA     s:21955
        31 007434   007622 710000 31                 TRA     s:21955
        31 007435   007622 710000 31                 TRA     s:21955
        31 007436   007622 710000 31                 TRA     s:21955
        31 007437   007622 710000 31                 TRA     s:21955
        31 007440   007622 710000 31                 TRA     s:21955
        31 007441   007622 710000 31                 TRA     s:21955
        31 007442   007622 710000 31                 TRA     s:21955
        31 007443   007622 710000 31                 TRA     s:21955
        31 007444   007622 710000 31                 TRA     s:21955
        31 007445   007622 710000 31                 TRA     s:21955
        31 007446   007622 710000 31                 TRA     s:21955
        31 007447   007622 710000 31                 TRA     s:21955
        31 007450   007622 710000 31                 TRA     s:21955
        31 007451   007543 710000 31                 TRA     s:21905

     1679    21832
     1680    21833    5        CASE (%RSV_WRD_COMP,  %RSV_WRD_COMP_3, %RSV_WRD_COMP_4,

     1681    21834    5              %RSV_WRD_COMP_5, %RSV_WRD_COMP_8);
     1682    21835    5          IF REDUCED_DATA.B.ELEMENTARY THEN

  21835 31 007452   000060 234000 0                  SZN     REDUCED_DATA+21
        31 007453   007622 605000 31                 TPL     s:21955

     1683    21836    5            IF CDECL$ -> LX_REC_DECL.P.PIC_CLAUSE$ = ADDR(NIL) THEN

  21836 31 007454   000160 470400 0                  LDP0    CDECL$
        31 007455   000004 236100                    LDQ     4,,PR0
        31 007456   000000 116000 32                 CMPQ    0
        31 007457   007622 601000 31                 TNZ     s:21955

PL6.E3A0      #001=Z8DR$RECORD_DECL File=Z8DR.:Z8A6TSI                           SAT 08/09/97 11:18 Page:383
     1684    21837    6              DO;

     1685    21838    6                LINE#   = CDECL$ -> LX_REC_DECL.P.DATA_NAME$ ->

  21838 31 007460   000002 471500                    LDP1    2,,PR0
        31 007461   100005 235100                    LDA     5,,PR1
        31 007462   000250 755000 0                  STA     LINE#

     1686    21839    6                          LX_ITEM.LINE;
     1687    21840    6                COLUMN# = CDECL$ -> LX_REC_DECL.P.DATA_NAME$ ->

  21840 31 007463   000002 471500                    LDP1    2,,PR0
        31 007464   100006 235100                    LDA     6,,PR1
        31 007465   000251 755000 0                  STA     COLUMN#

     1688    21841    6                          LX_ITEM.COLUMN;
     1689    21842
     1690    21843    6                PLUG$ = CDECL$ -> LX_REC_DECL.P.DATA_NAME$ ->

  21843 31 007466   000002 471500                    LDP1    2,,PR0
        31 007467   100002 236100                    LDQ     2,,PR1
        31 007470   000252 756000 0                  STQ     PLUG$

     1691    21844    6                        LX_ITEM.DNT$;
     1692    21845    6                USAGE$ = CDECL$ -> LX_REC_DECL.P.USAGE$;

  21845 31 007471   000003 236100                    LDQ     3,,PR0
        31 007472   000247 756000 0                  STQ     USAGE$

     1693    21846
     1694    21847    6                IF USAGE$ = ADDR (NIL) THEN

  21847 31 007473   000000 116000 32                 CMPQ    0
        31 007474   007502 601000 31                 TNZ     s:21865

     1695    21848    6                  CALL Z8AE$ERROR (%E$MISSING_DATA_PIC_CLAUSE, LINE#,

PL6.E3A0      #001=Z8DR$RECORD_DECL File=Z8DR.:Z8A6TSI                           SAT 08/09/97 11:18 Page:384
  21848 31 007475   000153 630400 32                 EPPR0   107
        31 007476   000076 631400 32                 EPPR1   62
        31 007477   000000 701000 xent               TSX1    Z8AE$ERROR
        31 007500   000000 011000                    NOP     0
        31 007501   007515 710000 31                 TRA     s:21888

     1696    21849    6                      COLUMN#, PLUG$);
     1697    21850    6                ELSE
     1698    21851                       %CONDITIONAL_ERROR (@LX_ITEM$ = USAGE$,
     1699    21852                                           @ERROR#   = %E$MISSING_DATA_PIC_CLAUSE,
     1700    21853                                           @LINE     = LINE#,
     1701    21854                                           @COLUMN   = COLUMN#,
     1702    21855                                           @PLUG1    = PLUG$);

  21865 31 007502   000247 471400 0                  LDP1    USAGE$
        31 007503   100000 236100                    LDQ     0,,PR1
        31 007504   400000 316007                    CANQ    -131072,DL
        31 007505   007515 601000 31                 TNZ     s:21888

  21867 31 007506   000153 630400 32                 EPPR0   107
        31 007507   000076 631400 32                 EPPR1   62
        31 007510   000000 701000 xent               TSX1    Z8AE$ERROR
        31 007511   000000 011000                    NOP     0

  21876 31 007512   000247 470400 0                  LDP0    USAGE$
        31 007513   400000 236007                    LDQ     -131072,DL
        31 007514   000000 256100                    ORSQ    0,,PR0

     1703    21885
     1704    21886                     %DEFAULT_PIC;

  21888 31 007515   000005 220003                    LDX0    5,DU
        31 007516   000002 740000 28                 STX0    PIC_OUT+2

  21889 31 007517   000004 221003                    LDX1    4,DU
        31 007520   000001 441000 28                 SXL1    PIC_OUT+1

PL6.E3A0      #001=Z8DR$RECORD_DECL File=Z8DR.:Z8A6TSI                           SAT 08/09/97 11:18 Page:385
  21890 31 007521   000004 235007                    LDA     4,DL
        31 007522   000000 755000 28                 STA     PIC_OUT

  21891 31 007523   000000 222003                    LDX2    0,DU
        31 007524   000001 742000 28                 STX2    PIC_OUT+1

  21892 31 007525   000003 223003                    LDX3    3,DU
        31 007526   000005 743000 28                 STX3    PIC_OUT+5

  21893 31 007527   000160 470400 0                  LDP0    CDECL$
        31 007530   000010 236100                    LDQ     8,,PR0
        31 007531   000000 116000 32                 CMPQ    0
        31 007532   007622 600000 31                 TZE     s:21955

  21896 31 007533   000160 236000 0                  LDQ     CDECL$
        31 007534   000010 036003                    ADLQ    8,DU
        31 007535   000572 756000 0                  STQ     P$+1
        31 007536   000572 630400 0                  EPPR0   P$+1
        31 007537   000005 631400 32                 EPPR1   5
        31 007540   000000 701000 xent               TSX1    Z8ED$DISPOSE_ABSSYN_TREE
        31 007541   000000 011000                    NOP     0

     1705    21901    6              END;

  21901 31 007542   007622 710000 31                 TRA     s:21955

     1706    21902
     1707    21903    5        CASE (%RSV_WRD_DB_KEY);

     1708    21904
     1709    21905    5           IF  (CDECL$ -> LX_REC_DECL.P.SYNC$ ~= ADDR(NIL))   OR

  21905 31 007543   000160 470400 0                  LDP0    CDECL$
        31 007544   000014 236100                    LDQ     12,,PR0
        31 007545   000000 116000 32                 CMPQ    0
        31 007546   007563 601000 31                 TNZ     s:21911
        31 007547   000004 236100                    LDQ     4,,PR0
PL6.E3A0      #001=Z8DR$RECORD_DECL File=Z8DR.:Z8A6TSI                           SAT 08/09/97 11:18 Page:386
        31 007550   000000 116000 32                 CMPQ    0
        31 007551   007563 601000 31                 TNZ     s:21911
        31 007552   000016 236100                    LDQ     14,,PR0
        31 007553   000000 116000 32                 CMPQ    0
        31 007554   007563 601000 31                 TNZ     s:21911
        31 007555   000010 236100                    LDQ     8,,PR0
        31 007556   000000 116000 32                 CMPQ    0
        31 007557   007563 601000 31                 TNZ     s:21911
        31 007560   000012 236100                    LDQ     10,,PR0
        31 007561   000000 116000 32                 CMPQ    0
        31 007562   007622 600000 31                 TZE     s:21955

     1710    21906    5               (CDECL$ -> LX_REC_DECL.P.PIC_CLAUSE$ ~= ADDR(NIL))    OR
     1711    21907    5               (CDECL$ -> LX_REC_DECL.P.JUSTIFIED$ ~= ADDR(NIL))   OR
     1712    21908    5               (CDECL$ -> LX_REC_DECL.P.VALUE$ ~= ADDR(NIL) ) OR
     1713    21909    6               (CDECL$ -> LX_REC_DECL.P.BLANK$ ~= ADDR(NIL) )     THEN DO;

     1714    21910
     1715    21911    6             USAGE$ = CDECL$ -> LX_REC_DECL.P.USAGE$;

  21911 31 007563   000003 236100                    LDQ     3,,PR0
        31 007564   000247 756000 0                  STQ     USAGE$

     1716    21912    7             IF USAGE$ = ADDR (NIL) THEN DO;

  21912 31 007565   000000 116000 32                 CMPQ    0
        31 007566   007577 601000 31                 TNZ     s:21930

     1717    21913    7               LINE# = CDECL$ -> LX_REC_DECL.P.DATA_NAME$ -> LX_ITEM.LINE;

  21913 31 007567   000002 471500                    LDP1    2,,PR0
        31 007570   100005 235100                    LDA     5,,PR1
        31 007571   000250 755000 0                  STA     LINE#

     1718    21914    7               CALL Z8AE$ERROR (%E$INVALID_CLAUSE_FOR_DB_KEY, LINE#, 0);

  21914 31 007572   000160 630400 32                 EPPR0   112
PL6.E3A0      #001=Z8DR$RECORD_DECL File=Z8DR.:Z8A6TSI                           SAT 08/09/97 11:18 Page:387
        31 007573   000001 631400 32                 EPPR1   1
        31 007574   000000 701000 xent               TSX1    Z8AE$ERROR
        31 007575   000000 011000                    NOP     0

     1719    21915    7             END;

  21915 31 007576   007622 710000 31                 TRA     s:21955

     1720    21916    6             ELSE
     1721    21917                    %CONDITIONAL_ERROR (@LX_ITEM$ = USAGE$,
     1722    21918                                 @ERROR#   = %E$INVALID_CLAUSE_FOR_DB_KEY,
     1723    21919                                 @LINE     = USAGE$ -> LX_ITEM.LINE,
     1724    21920                                 @COLUMN   = USAGE$ -> LX_ITEM.COLUMN);

  21930 31 007577   000247 471400 0                  LDP1    USAGE$
        31 007600   100000 236100                    LDQ     0,,PR1
        31 007601   400000 316007                    CANQ    -131072,DL
        31 007602   007622 601000 31                 TNZ     s:21955

  21932 31 007603   000247 236000 0                  LDQ     USAGE$
        31 007604   000006 036003                    ADLQ    6,DU
        31 007605   000574 756000 0                  STQ     P$+3
        31 007606   000247 236000 0                  LDQ     USAGE$
        31 007607   000005 036003                    ADLQ    5,DU
        31 007610   000160 235000 32                 LDA     112
        31 007611   000572 757000 0                  STAQ    P$+1
        31 007612   000572 630400 0                  EPPR0   P$+1
        31 007613   000001 631400 32                 EPPR1   1
        31 007614   000000 701000 xent               TSX1    Z8AE$ERROR
        31 007615   000000 011000                    NOP     0

  21941 31 007616   000247 470400 0                  LDP0    USAGE$
        31 007617   400000 236007                    LDQ     -131072,DL
        31 007620   000000 256100                    ORSQ    0,,PR0

     1725    21950    6             END;

PL6.E3A0      #001=Z8DR$RECORD_DECL File=Z8DR.:Z8A6TSI                           SAT 08/09/97 11:18 Page:388
  21950 31 007621   007622 710000 31                 TRA     s:21955

     1726    21951
     1727    21952    5        CASE (ELSE);

     1728    21953
     1729    21954    5      END; /* CASE */

     1730    21955    4      IF REDUCED_DATA.USAGE.TYPE = %RSV_WRD_INDEX

  21955 31 007622   000033 235000 0                  LDA     REDUCED_DATA
        31 007623   000365 115007                    CMPA    245,DL
        31 007624   007703 601000 31                 TNZ     s:22012
        31 007625   000015 236000 xsym               LDQ     O1COM+13
        31 007626   000005 116007                    CMPQ    5,DL
        31 007627   007703 601000 31                 TNZ     s:22012

     1731    21956    4      AND O1COM.DATA_DECL_CONTEXT = %CONSTANT_SECTION THEN
     1732    21957    5        DO;

     1733    21958    5          USAGE$ = CDECL$ -> LX_REC_DECL.P.USAGE$;

  21958 31 007630   000160 470400 0                  LDP0    CDECL$
        31 007631   000003 236100                    LDQ     3,,PR0
        31 007632   000247 756000 0                  STQ     USAGE$

     1734    21959
     1735    21960               %CONDITIONAL_ERROR (@LX_ITEM$ = USAGE$,
     1736    21961                                   @ERROR#   = %E$INDEX_IN_CONSTANT_SECT,
     1737    21962                                   @LINE     = USAGE$ -> LX_ITEM.LINE,
     1738    21963                                   @COLUMN   = USAGE$ -> LX_ITEM.COLUMN);

  21973 31 007633   000247 471400 0                  LDP1    USAGE$
        31 007634   100000 236100                    LDQ     0,,PR1
        31 007635   400000 316007                    CANQ    -131072,DL
        31 007636   007655 601000 31                 TNZ     s:21994

PL6.E3A0      #001=Z8DR$RECORD_DECL File=Z8DR.:Z8A6TSI                           SAT 08/09/97 11:18 Page:389
  21975 31 007637   000247 236000 0                  LDQ     USAGE$
        31 007640   000006 036003                    ADLQ    6,DU
        31 007641   000574 756000 0                  STQ     P$+3
        31 007642   000247 236000 0                  LDQ     USAGE$
        31 007643   000005 036003                    ADLQ    5,DU
        31 007644   000164 235000 32                 LDA     116
        31 007645   000572 757000 0                  STAQ    P$+1
        31 007646   000572 630400 0                  EPPR0   P$+1
        31 007647   000001 631400 32                 EPPR1   1
        31 007650   000000 701000 xent               TSX1    Z8AE$ERROR
        31 007651   000000 011000                    NOP     0

  21984 31 007652   000247 470400 0                  LDP0    USAGE$
        31 007653   400000 236007                    LDQ     -131072,DL
        31 007654   000000 256100                    ORSQ    0,,PR0

     1739    21993
     1740    21994    5          REDUCED_DATA.USAGE.TYPE = %NO_USAGE;

  21994 31 007655   000033 450000 0                  STZ     REDUCED_DATA

     1741    21995               %DEFAULT_PIC;

  21997 31 007656   000005 220003                    LDX0    5,DU
        31 007657   000002 740000 28                 STX0    PIC_OUT+2

  21998 31 007660   000004 221003                    LDX1    4,DU
        31 007661   000001 441000 28                 SXL1    PIC_OUT+1

  21999 31 007662   000004 235007                    LDA     4,DL
        31 007663   000000 755000 28                 STA     PIC_OUT

  22000 31 007664   000000 222003                    LDX2    0,DU
        31 007665   000001 742000 28                 STX2    PIC_OUT+1

  22001 31 007666   000003 223003                    LDX3    3,DU
        31 007667   000005 743000 28                 STX3    PIC_OUT+5
PL6.E3A0      #001=Z8DR$RECORD_DECL File=Z8DR.:Z8A6TSI                           SAT 08/09/97 11:18 Page:390

  22002 31 007670   000160 470400 0                  LDP0    CDECL$
        31 007671   000010 236100                    LDQ     8,,PR0
        31 007672   000000 116000 32                 CMPQ    0
        31 007673   007703 600000 31                 TZE     s:22012

  22005 31 007674   000160 236000 0                  LDQ     CDECL$
        31 007675   000010 036003                    ADLQ    8,DU
        31 007676   000572 756000 0                  STQ     P$+1
        31 007677   000572 630400 0                  EPPR0   P$+1
        31 007700   000005 631400 32                 EPPR1   5
        31 007701   000000 701000 xent               TSX1    Z8ED$DISPOSE_ABSSYN_TREE
        31 007702   000000 011000                    NOP     0

     1742    22010    5        END;

     1743    22011
     1744    22012    4      IF REDUCED_DATA.LEVEL.CURRENT <= REDUCED_DATA.LEVEL.PREVIOUS

  22012 31 007703   000034 236000 0                  LDQ     REDUCED_DATA+1
        31 007704   000035 116000 0                  CMPQ    REDUCED_DATA+2
        31 007705   007713 605400 31                 TPNZ    s:22016

     1745    22013    4        THEN
     1746    22014    4          CALL FIND_HIER_INDEX(REDUCED_DATA.LEVEL.CURRENT,STK_OBJ);

  22014 31 007706   000166 237000 32                 LDAQ    118
        31 007707   000406 757000 0                  STAQ    LINE#+2
        31 007710   016705 701000 31                 TSX1    FIND_HIER_INDEX
        31 007711   000000 011000                    NOP     0
        31 007712   007716 710000 31                 TRA     s:22018

     1747    22015    4        ELSE
     1748    22016    4          STK_OBJ = HIER_STK_PTR + 1;

  22016 31 007713   000000 235000 xsym               LDA     HIER_STK_PTR
        31 007714   000001 035007                    ADLA    1,DL
PL6.E3A0      #001=Z8DR$RECORD_DECL File=Z8DR.:Z8A6TSI                           SAT 08/09/97 11:18 Page:391
        31 007715   000253 755000 0                  STA     STK_OBJ

     1749    22017
     1750    22018    5      DO I = 1 TO STK_OBJ - 1;

  22018 31 007716   000001 235007                    LDA     1,DL
        31 007717   000254 755000 0                  STA     I
        31 007720   010061 710000 31                 TRA     s:22124+1

     1751    22019    5        IF HIER_STK.B.CONDITION_OBJ (I)  THEN

  22019 31 007721   000254 236000 0                  LDQ     I
        31 007722   000005 402007                    MPY     5,DL
        31 007723   000002 236006 xsym               LDQ     HIER_STK+2,QL
        31 007724   000040 316007                    CANQ    32,DL
        31 007725   010021 600000 31                 TZE     s:22082

     1752    22020    5          IF REDUCED_DATA.USAGE.TYPE ~= %NO_USAGE  AND

  22020 31 007726   000033 235000 0                  LDA     REDUCED_DATA
        31 007727   010021 600000 31                 TZE     s:22082
        31 007730   000225 115007                    CMPA    149,DL
        31 007731   010021 600000 31                 TZE     s:22082

     1753    22021    5             REDUCED_DATA.USAGE.TYPE ~= %RSV_WRD_DISPLAY THEN
     1754    22022    6            DO;

     1755    22023    6              USAGE$ = CDECL$ -> LX_REC_DECL.P.USAGE$;

  22023 31 007732   000160 470400 0                  LDP0    CDECL$
        31 007733   000003 236100                    LDQ     3,,PR0
        31 007734   000247 756000 0                  STQ     USAGE$

     1756    22024
     1757    22025    7              IF USAGE$ = ADDR (NIL) THEN DO;

  22025 31 007735   000000 116000 32                 CMPQ    0
PL6.E3A0      #001=Z8DR$RECORD_DECL File=Z8DR.:Z8A6TSI                           SAT 08/09/97 11:18 Page:392
        31 007736   007747 601000 31                 TNZ     s:22043

     1758    22026    7                LINE# = CDECL$ -> LX_REC_DECL.P.DATA_NAME$ -> LX_ITEM.LINE;

  22026 31 007737   000002 471500                    LDP1    2,,PR0
        31 007740   100005 235100                    LDA     5,,PR1
        31 007741   000250 755000 0                  STA     LINE#

     1759    22027    7                CALL Z8AE$ERROR (%E$DISPLAY_ONLY_IN_COND_GROUP, LINE#, 0);

  22027 31 007742   000171 630400 32                 EPPR0   121
        31 007743   000001 631400 32                 EPPR1   1
        31 007744   000000 701000 xent               TSX1    Z8AE$ERROR
        31 007745   000000 011000                    NOP     0

     1760    22028    7              END;

  22028 31 007746   007771 710000 31                 TRA     s:22064

     1761    22029    6              ELSE
     1762    22030                     %CONDITIONAL_ERROR (@LX_ITEM$ = USAGE$,
     1763    22031                                         @ERROR#   = %E$DISPLAY_ONLY_IN_COND_GROUP,
     1764    22032                                         @LINE     = USAGE$ -> LX_ITEM.LINE,
     1765    22033                                         @COLUMN   = USAGE$ -> LX_ITEM.COLUMN);

  22043 31 007747   000247 471400 0                  LDP1    USAGE$
        31 007750   100000 236100                    LDQ     0,,PR1
        31 007751   400000 316007                    CANQ    -131072,DL
        31 007752   007771 601000 31                 TNZ     s:22064

  22045 31 007753   000247 236000 0                  LDQ     USAGE$
        31 007754   000006 036003                    ADLQ    6,DU
        31 007755   000574 756000 0                  STQ     P$+3
        31 007756   000247 236000 0                  LDQ     USAGE$
        31 007757   000005 036003                    ADLQ    5,DU
        31 007760   000171 235000 32                 LDA     121
        31 007761   000572 757000 0                  STAQ    P$+1
PL6.E3A0      #001=Z8DR$RECORD_DECL File=Z8DR.:Z8A6TSI                           SAT 08/09/97 11:18 Page:393
        31 007762   000572 630400 0                  EPPR0   P$+1
        31 007763   000001 631400 32                 EPPR1   1
        31 007764   000000 701000 xent               TSX1    Z8AE$ERROR
        31 007765   000000 011000                    NOP     0

  22054 31 007766   000247 470400 0                  LDP0    USAGE$
        31 007767   400000 236007                    LDQ     -131072,DL
        31 007770   000000 256100                    ORSQ    0,,PR0

     1766    22063
     1767    22064    6              REDUCED_DATA.USAGE.TYPE = %NO_USAGE;

  22064 31 007771   000033 450000 0                  STZ     REDUCED_DATA

     1768    22065                   %DEFAULT_PIC;

  22067 31 007772   000005 220003                    LDX0    5,DU
        31 007773   000002 740000 28                 STX0    PIC_OUT+2

  22068 31 007774   000004 221003                    LDX1    4,DU
        31 007775   000001 441000 28                 SXL1    PIC_OUT+1

  22069 31 007776   000004 235007                    LDA     4,DL
        31 007777   000000 755000 28                 STA     PIC_OUT

  22070 31 010000   000000 222003                    LDX2    0,DU
        31 010001   000001 742000 28                 STX2    PIC_OUT+1

  22071 31 010002   000003 223003                    LDX3    3,DU
        31 010003   000005 743000 28                 STX3    PIC_OUT+5

  22072 31 010004   000160 470400 0                  LDP0    CDECL$
        31 010005   000010 236100                    LDQ     8,,PR0
        31 010006   000000 116000 32                 CMPQ    0
        31 010007   010017 600000 31                 TZE     s:22080

  22075 31 010010   000160 236000 0                  LDQ     CDECL$
PL6.E3A0      #001=Z8DR$RECORD_DECL File=Z8DR.:Z8A6TSI                           SAT 08/09/97 11:18 Page:394
        31 010011   000010 036003                    ADLQ    8,DU
        31 010012   000572 756000 0                  STQ     P$+1
        31 010013   000572 630400 0                  EPPR0   P$+1
        31 010014   000005 631400 32                 EPPR1   5
        31 010015   000000 701000 xent               TSX1    Z8ED$DISPOSE_ABSSYN_TREE
        31 010016   000000 011000                    NOP     0

     1769    22080    6              RETURN;

  22080 31 010017   000246 221200 0                  LDX1  ! NUM_DESC+6
        31 010020   000001 702211                    TSX2  ! 1,X1

     1770    22081    6            END;
     1771    22082    5        IF HIER_STK.B.VALUE_PRESENTED(I)  THEN

  22082 31 010021   000254 236000 0                  LDQ     I
        31 010022   000005 402007                    MPY     5,DL
        31 010023   000002 236006 xsym               LDQ     HIER_STK+2,QL
        31 010024   000020 316007                    CANQ    16,DL
        31 010025   010060 600000 31                 TZE     s:22124

     1772    22083    5          IF REDUCED_DATA.USAGE.TYPE ~= %NO_USAGE  AND

  22083 31 010026   000033 235000 0                  LDA     REDUCED_DATA
        31 010027   010060 600000 31                 TZE     s:22124
        31 010030   000225 115007                    CMPA    149,DL
        31 010031   010060 600000 31                 TZE     s:22124
        31 010032   000160 470400 0                  LDP0    CDECL$
        31 010033   000003 236100                    LDQ     3,,PR0
        31 010034   000000 116000 32                 CMPQ    0
        31 010035   010060 600000 31                 TZE     s:22124

     1773    22084    5             REDUCED_DATA.USAGE.TYPE ~= %RSV_WRD_DISPLAY AND
     1774    22085    5             CDECL$ -> LX_REC_DECL.P.USAGE$ ~= ADDR(NIL) THEN  /*#27931*/
     1775    22086    6            DO;

     1776    22087    6              USAGE$ = CDECL$ -> LX_REC_DECL.P.USAGE$;
PL6.E3A0      #001=Z8DR$RECORD_DECL File=Z8DR.:Z8A6TSI                           SAT 08/09/97 11:18 Page:395

  22087 31 010036   000247 756000 0                  STQ     USAGE$

     1777    22088
     1778    22089                   %CONDITIONAL_ERROR (@LX_ITEM$ = USAGE$,
     1779    22090                                       @ERROR#   = %E$USAGE_NOT_DISPLAY,
     1780    22091                                       @LINE     = USAGE$ -> LX_ITEM.LINE,
     1781    22092                                       @COLUMN   = USAGE$ -> LX_ITEM.COLUMN);

  22102 31 010037   000247 471400 0                  LDP1    USAGE$
        31 010040   100000 236100                    LDQ     0,,PR1
        31 010041   400000 316007                    CANQ    -131072,DL
        31 010042   010056 601000 31                 TNZ     s:22122

  22104 31 010043   000247 236000 0                  LDQ     USAGE$
        31 010044   000006 036003                    ADLQ    6,DU
        31 010045   000574 756000 0                  STQ     P$+3
        31 010046   000247 236000 0                  LDQ     USAGE$
        31 010047   000005 036003                    ADLQ    5,DU
        31 010050   000175 235000 32                 LDA     125
        31 010051   000572 757000 0                  STAQ    P$+1
        31 010052   000572 630400 0                  EPPR0   P$+1
        31 010053   000001 631400 32                 EPPR1   1
        31 010054   000000 701000 xent               TSX1    Z8AE$ERROR
        31 010055   000000 011000                    NOP     0

     1782    22122    6              RETURN;

  22122 31 010056   000246 221200 0                  LDX1  ! NUM_DESC+6
        31 010057   000001 702211                    TSX2  ! 1,X1

     1783    22123    6            END;
     1784    22124    5        END;

  22124 31 010060   000254 054000 0                  AOS     I
        31 010061   000254 236000 0                  LDQ     I
        31 010062   000253 116000 0                  CMPQ    STK_OBJ
PL6.E3A0      #001=Z8DR$RECORD_DECL File=Z8DR.:Z8A6TSI                           SAT 08/09/97 11:18 Page:396
        31 010063   007721 604000 31                 TMI     s:22019

     1785    22125
     1786    22126    4   END VALIDATE_USAGE;

  22126 31 010064   000246 221200 0                  LDX1  ! NUM_DESC+6
        31 010065   000001 702211                    TSX2  ! 1,X1

     1787    22127        %EJECT;
PL6.E3A0      #001=Z8DR$RECORD_DECL File=Z8DR.:Z8A6TSI                           SAT 08/09/97 11:18 Page:397
     1788    22128        /*==============*/
     1789    22129    3     VALIDATE_LEVEL: PROC;

  22129 31 010066   000255 741200 0     VALIDATE_LE* STX1  ! I+1

     1790    22130        /*==============*/
     1791    22131
     1792    22132
     1793    22133    4   DCL LEVEL$                    PTR;
     1794    22134    4   DCL NEXT_LEVEL$               PTR;
     1795    22135    4   DCL PLUG1$                    PTR;
     1796    22136    4   DCL NEXT_LINE_LEVEL           SBIN WORD;
     1797    22137
     1798    22138
     1799    22139
     1800    22140    4      IF REDUCED_DATA.LEVEL.PREVIOUS = 0

  22140 31 010067   000035 235000 0                  LDA     REDUCED_DATA+2
        31 010070   010142 601000 31                 TNZ     s:22188
        31 010071   000005 236000 xsym               LDQ     O1COM+5
        31 010072   000001 116007                    CMPQ    1,DL
        31 010073   010142 600000 31                 TZE     s:22188
        31 010074   000115 116007                    CMPQ    77,DL
        31 010075   010142 600000 31                 TZE     s:22188

     1801    22141    4      AND (O1COM.LEVEL_NO ~= %LEVEL_01
     1802    22142    4           AND O1COM.LEVEL_NO ~= %LEVEL_77) THEN
     1803    22143    5        DO;

     1804    22144    5          LEVEL$ = CDECL$ -> LX_REC_DECL.P.LEVEL_NO$;

  22144 31 010076   000160 470400 0                  LDP0    CDECL$
        31 010077   000001 236100                    LDQ     1,,PR0
        31 010100   000256 756000 0                  STQ     LEVEL$

     1805    22145
     1806    22146               %CONDITIONAL_ERROR (@LX_ITEM$ = LEVEL$,
PL6.E3A0      #001=Z8DR$RECORD_DECL File=Z8DR.:Z8A6TSI                           SAT 08/09/97 11:18 Page:398
     1807    22147                                   @ERROR#   = %E$LEVEL_1_OR_77_AT_TOP,
     1808    22148                                   @LINE     = LEVEL$ -> LX_ITEM.LINE,
     1809    22149                                   @COLUMN   = LEVEL$ -> LX_ITEM.COLUMN);

  22159 31 010101   000256 471400 0                  LDP1    LEVEL$
        31 010102   100000 236100                    LDQ     0,,PR1
        31 010103   400000 316007                    CANQ    -131072,DL
        31 010104   010123 601000 31                 TNZ     s:22180

  22161 31 010105   000256 236000 0                  LDQ     LEVEL$
        31 010106   000006 036003                    ADLQ    6,DU
        31 010107   000574 756000 0                  STQ     P$+3
        31 010110   000256 236000 0                  LDQ     LEVEL$
        31 010111   000005 036003                    ADLQ    5,DU
        31 010112   000010 235000 32                 LDA     8
        31 010113   000572 757000 0                  STAQ    P$+1
        31 010114   000572 630400 0                  EPPR0   P$+1
        31 010115   000001 631400 32                 EPPR1   1
        31 010116   000000 701000 xent               TSX1    Z8AE$ERROR
        31 010117   000000 011000                    NOP     0

  22170 31 010120   000256 470400 0                  LDP0    LEVEL$
        31 010121   400000 236007                    LDQ     -131072,DL
        31 010122   000000 256100                    ORSQ    0,,PR0

     1810    22179
     1811    22180    5          O1COM.LEVEL_NO = %LEVEL_01;

  22180 31 010123   000001 235007                    LDA     1,DL
        31 010124   000005 755000 xsym               STA     O1COM+5

     1812    22181    5          REDUCED_DATA.LEVEL.CURRENT = %LEVEL_01;

  22181 31 010125   000034 755000 0                  STA     REDUCED_DATA+1

     1813    22182    5          REDUCED_DATA.B.ELEMENTARY = (REDUCED_DATA.LEVEL.NEXT <=

PL6.E3A0      #001=Z8DR$RECORD_DECL File=Z8DR.:Z8A6TSI                           SAT 08/09/97 11:18 Page:399
  22182 31 010126   400000 220003                    LDX0    -131072,DU
        31 010127   000036 236000 0                  LDQ     REDUCED_DATA+3
        31 010130   000034 116000 0                  CMPQ    REDUCED_DATA+1
        31 010131   010133 604400 31                 TMOZ    s:22182+5
        31 010132   000000 220003                    LDX0    0,DU
        31 010133   000000 636010                    EAQ     0,X0
        31 010134   000060 676000 0                  ERQ     REDUCED_DATA+21
        31 010135   400000 376003                    ANQ     -131072,DU
        31 010136   000060 656000 0                  ERSQ    REDUCED_DATA+21

     1814    22183    5                                       REDUCED_DATA.LEVEL.CURRENT);
     1815    22184    5          IF NOT REDUCED_DATA.B.ELEMENTARY THEN

  22184 31 010137   000060 234000 0                  SZN     REDUCED_DATA+21
        31 010140   010142 604000 31                 TMI     s:22188

     1816    22185    5            REDUCED_DATA.USAGE.TYPE = %NO_USAGE;

  22185 31 010141   000033 450000 0                  STZ     REDUCED_DATA

     1817    22186    5        END;

     1818    22187
     1819    22188    4      IF O1COM.LEVEL_NO = %LEVEL_77 THEN

  22188 31 010142   000005 235000 xsym               LDA     O1COM+5
        31 010143   000115 115007                    CMPA    77,DL
        31 010144   010256 601000 31                 TNZ     s:22285

     1820    22189    5        DO;

     1821    22190    6          DO CASE (O1COM.DATA_DECL_CONTEXT);

  22190 31 010145   000015 236000 xsym               LDQ     O1COM+13
        31 010146   000004 116007                    CMPQ    4,DL
        31 010147   010151 602006 31                 TNC     s:22190+4,QL
        31 010150   010205 710000 31                 TRA     s:22234
PL6.E3A0      #001=Z8DR$RECORD_DECL File=Z8DR.:Z8A6TSI                           SAT 08/09/97 11:18 Page:400
        31 010151   010205 710000 31                 TRA     s:22234
        31 010152   010155 710000 31                 TRA     s:22193
        31 010153   010155 710000 31                 TRA     s:22193
        31 010154   010155 710000 31                 TRA     s:22193

     1822    22191    6            CASE (%SORT_DESCRIPTION, %FILE_DESCRIPTION, %COMMUNICATION_DESC);

     1823    22192
     1824    22193    6              LEVEL$ = CDECL$ -> LX_REC_DECL.P.LEVEL_NO$;

  22193 31 010155   000160 470400 0                  LDP0    CDECL$
        31 010156   000001 236100                    LDQ     1,,PR0
        31 010157   000256 756000 0                  STQ     LEVEL$

     1825    22194
     1826    22195                   %CONDITIONAL_ERROR (@LX_ITEM$ = LEVEL$,
     1827    22196                                       @ERROR#   = %E$LVL_77_NOT_VALID_HERE,
     1828    22197                                       @LINE     = LEVEL$ -> LX_ITEM.LINE,
     1829    22198                                       @COLUMN   = LEVEL$ -> LX_ITEM.COLUMN);

  22208 31 010160   000256 471400 0                  LDP1    LEVEL$
        31 010161   100000 236100                    LDQ     0,,PR1
        31 010162   400000 316007                    CANQ    -131072,DL
        31 010163   010202 601000 31                 TNZ     s:22229

  22210 31 010164   000256 236000 0                  LDQ     LEVEL$
        31 010165   000006 036003                    ADLQ    6,DU
        31 010166   000574 756000 0                  STQ     P$+3
        31 010167   000256 236000 0                  LDQ     LEVEL$
        31 010170   000005 036003                    ADLQ    5,DU
        31 010171   000177 235000 32                 LDA     127
        31 010172   000572 757000 0                  STAQ    P$+1
        31 010173   000572 630400 0                  EPPR0   P$+1
        31 010174   000001 631400 32                 EPPR1   1
        31 010175   000000 701000 xent               TSX1    Z8AE$ERROR
        31 010176   000000 011000                    NOP     0

PL6.E3A0      #001=Z8DR$RECORD_DECL File=Z8DR.:Z8A6TSI                           SAT 08/09/97 11:18 Page:401
  22219 31 010177   000256 470400 0                  LDP0    LEVEL$
        31 010200   400000 236007                    LDQ     -131072,DL
        31 010201   000000 256100                    ORSQ    0,,PR0

     1830    22228
     1831    22229    6              O1COM.LEVEL_NO = %LEVEL_01;

  22229 31 010202   000001 235007                    LDA     1,DL
        31 010203   000005 755000 xsym               STA     O1COM+5
        31 010204   010205 710000 31                 TRA     s:22234

     1832    22230
     1833    22231    6            CASE (ELSE, 0);

     1834    22232    6          END; /* Case */

     1835    22233
     1836    22234    5          IF NDECL$ ~= ADDR(NIL) THEN

  22234 31 010205   000161 236000 0                  LDQ     NDECL$
        31 010206   000000 116000 32                 CMPQ    0
        31 010207   010256 600000 31                 TZE     s:22285

     1837    22235    6            DO;  /* CHECK THE NEXT LINE LEVEL */

     1838    22236
     1839    22237    6              CALL CHARBIN (NEXT_LINE_LEVEL,

  22237 31 010210   000161 470400 0                  LDP0    NDECL$
        31 010211   000001 471500                    LDP1    1,,PR0
        31 010212   100002 473500                    LDP3    2,,PR1
        31 010213   300004 220100                    LDX0    4,,PR3
        31 010214   000000 305540                    DTB
        31 010215   300004 430010                    NDSC9   4,,PR3                   cn=2,s=nosgn,sf=0,n=*X0
        31 010216   000261 000004 0                  NDSC9   NEXT_LINE_LEVEL          cn=0,s=lsgnf,sf=0,n=4

     1840    22238    6                            NDECL$ -> LX_REC_DECL.P.LEVEL_NO$ ->
PL6.E3A0      #001=Z8DR$RECORD_DECL File=Z8DR.:Z8A6TSI                           SAT 08/09/97 11:18 Page:402
     1841    22239    6                            LX_ITEM.DNT$ -> DNT.TEXT.NAME);
     1842    22240    6              IF NEXT_LINE_LEVEL > %LEVEL_01 AND

  22240 31 010217   000261 235000 0                  LDA     NEXT_LINE_LEVEL
        31 010220   000001 115007                    CMPA    1,DL
        31 010221   010256 604400 31                 TMOZ    s:22285
        31 010222   000061 115007                    CMPA    49,DL
        31 010223   010256 605400 31                 TPNZ    s:22285

     1843    22241    6                 NEXT_LINE_LEVEL <= %LEVEL_49  THEN
     1844    22242    7                DO;  /* ILLEGAL NUMBERS LIKE 99 SPOTTED ELSEWHERE */

     1845    22243
     1846    22244    7                  LEVEL$ = CDECL$ -> LX_REC_DECL.P.LEVEL_NO$;

  22244 31 010224   000160 474400 0                  LDP4    CDECL$
        31 010225   400001 236100                    LDQ     1,,PR4
        31 010226   000256 756000 0                  STQ     LEVEL$

     1847    22245    7                  NEXT_LEVEL$ = NDECL$ -> LX_REC_DECL.P.LEVEL_NO$;

  22245 31 010227   000001 236100                    LDQ     1,,PR0
        31 010230   000257 756000 0                  STQ     NEXT_LEVEL$

     1848    22246
     1849    22247                       %CONDITIONAL_ERROR (@LX_ITEM$ = LEVEL$,
     1850    22248                                           @ERROR#   = %E$LEVEL_77_TO_01,
     1851    22249                                           @LINE     = LEVEL$ -> LX_ITEM.LINE,
     1852    22250                                           @COLUMN   = LEVEL$ -> LX_ITEM.COLUMN,
     1853    22251                                           @PLUG1    = NEXT_LEVEL$ -> LX_ITEM.DNT$);

  22261 31 010231   000256 475400 0                  LDP5    LEVEL$
        31 010232   500000 236100                    LDQ     0,,PR5
        31 010233   400000 316007                    CANQ    -131072,DL
        31 010234   010256 601000 31                 TNZ     s:22285

  22263 31 010235   000257 236000 0                  LDQ     NEXT_LEVEL$
PL6.E3A0      #001=Z8DR$RECORD_DECL File=Z8DR.:Z8A6TSI                           SAT 08/09/97 11:18 Page:403
        31 010236   000002 036003                    ADLQ    2,DU
        31 010237   000575 756000 0                  STQ     P$+4
        31 010240   000256 236000 0                  LDQ     LEVEL$
        31 010241   000006 036003                    ADLQ    6,DU
        31 010242   000574 756000 0                  STQ     P$+3
        31 010243   000256 236000 0                  LDQ     LEVEL$
        31 010244   000005 036003                    ADLQ    5,DU
        31 010245   000201 235000 32                 LDA     129
        31 010246   000572 757000 0                  STAQ    P$+1
        31 010247   000572 630400 0                  EPPR0   P$+1
        31 010250   000076 631400 32                 EPPR1   62
        31 010251   000000 701000 xent               TSX1    Z8AE$ERROR
        31 010252   000000 011000                    NOP     0

  22272 31 010253   000256 470400 0                  LDP0    LEVEL$
        31 010254   400000 236007                    LDQ     -131072,DL
        31 010255   000000 256100                    ORSQ    0,,PR0

     1854    22281    7                 END; /* END DO */

     1855    22282    6            END; /* END DO */

     1856    22283    5          END; /* END DO */

     1857    22284
     1858    22285    5      IF O1COM.LEVEL_NO = %LEVEL_66 THEN DO;

  22285 31 010256   000005 235000 xsym               LDA     O1COM+5
        31 010257   000102 115007                    CMPA    66,DL
        31 010260   010333 601000 31                 TNZ     s:22335

     1859    22286    5        IF COMCOM.OB.FIPS.LEVEL >= %INT_LEV THEN

  22286 31 010261   000036 720000 xsym               LXL0    COMCOM+30
        31 010262   000002 100003                    CMPX0   2,DU
        31 010263   010301 604000 31                 TMI     s:22293

PL6.E3A0      #001=Z8DR$RECORD_DECL File=Z8DR.:Z8A6TSI                           SAT 08/09/97 11:18 Page:404
     1860    22287    6          DO;

     1861    22288    6            LEVEL$ = CDECL$ -> LX_REC_DECL.P.LEVEL_NO$;

  22288 31 010264   000160 470400 0                  LDP0    CDECL$
        31 010265   000001 236100                    LDQ     1,,PR0
        31 010266   000256 756000 0                  STQ     LEVEL$

     1862    22289    6            CALL Z8AE$ERROR (%E$LEVEL_CHECK,

  22289 31 010267   000006 036003                    ADLQ    6,DU
        31 010270   000574 756000 0                  STQ     P$+3
        31 010271   000256 236000 0                  LDQ     LEVEL$
        31 010272   000005 036003                    ADLQ    5,DU
        31 010273   000003 235000 32                 LDA     3
        31 010274   000572 757000 0                  STAQ    P$+1
        31 010275   000572 630400 0                  EPPR0   P$+1
        31 010276   000001 631400 32                 EPPR1   1
        31 010277   000000 701000 xent               TSX1    Z8AE$ERROR
        31 010300   000000 011000                    NOP     0

     1863    22290    6                             LEVEL$ -> LX_ITEM.LINE,
     1864    22291    6                             LEVEL$ -> LX_ITEM.COLUMN);
     1865    22292    6          END;

     1866    22293    5        IF CDECL$ -> LX_REC_DECL.P.RENAMES$ = ADDR(NIL) THEN

  22293 31 010301   000160 470400 0                  LDP0    CDECL$
        31 010302   000006 236100                    LDQ     6,,PR0
        31 010303   000000 116000 32                 CMPQ    0
        31 010304   010333 601000 31                 TNZ     s:22335

     1867    22294    6          DO;

     1868    22295    6            LEVEL$ = CDECL$ -> LX_REC_DECL.P.LEVEL_NO$;

  22295 31 010305   000001 236100                    LDQ     1,,PR0
PL6.E3A0      #001=Z8DR$RECORD_DECL File=Z8DR.:Z8A6TSI                           SAT 08/09/97 11:18 Page:405
        31 010306   000256 756000 0                  STQ     LEVEL$

     1869    22296
     1870    22297                 %CONDITIONAL_ERROR (@LX_ITEM$ = LEVEL$,
     1871    22298                                     @ERROR#   = %E$ONLY_66_IN_RENAMES,
     1872    22299                                     @LINE     = LEVEL$ -> LX_ITEM.LINE,
     1873    22300                                     @COLUMN   = LEVEL$ -> LX_ITEM.COLUMN);

  22310 31 010307   000256 471400 0                  LDP1    LEVEL$
        31 010310   100000 236100                    LDQ     0,,PR1
        31 010311   400000 316007                    CANQ    -131072,DL
        31 010312   010331 601000 31                 TNZ     s:22331

  22312 31 010313   000256 236000 0                  LDQ     LEVEL$
        31 010314   000006 036003                    ADLQ    6,DU
        31 010315   000574 756000 0                  STQ     P$+3
        31 010316   000256 236000 0                  LDQ     LEVEL$
        31 010317   000005 036003                    ADLQ    5,DU
        31 010320   000203 235000 32                 LDA     131
        31 010321   000572 757000 0                  STAQ    P$+1
        31 010322   000572 630400 0                  EPPR0   P$+1
        31 010323   000001 631400 32                 EPPR1   1
        31 010324   000000 701000 xent               TSX1    Z8AE$ERROR
        31 010325   000000 011000                    NOP     0

  22321 31 010326   000256 470400 0                  LDP0    LEVEL$
        31 010327   400000 236007                    LDQ     -131072,DL
        31 010330   000000 256100                    ORSQ    0,,PR0

     1874    22330
     1875    22331    6            O1COM.LEVEL_NO = %LEVEL_01;

  22331 31 010331   000001 235007                    LDA     1,DL
        31 010332   000005 755000 xsym               STA     O1COM+5

     1876    22332    6          END;

PL6.E3A0      #001=Z8DR$RECORD_DECL File=Z8DR.:Z8A6TSI                           SAT 08/09/97 11:18 Page:406
     1877    22333    5      END;

     1878    22334
     1879    22335    4      IF CDECL$ -> LX_REC_DECL.P.RENAMES$ ~= ADDR(NIL)

  22335 31 010333   000160 470400 0                  LDP0    CDECL$
        31 010334   000006 236100                    LDQ     6,,PR0
        31 010335   000000 116000 32                 CMPQ    0
        31 010336   010374 600000 31                 TZE     s:22378
        31 010337   000005 235000 xsym               LDA     O1COM+5
        31 010340   000102 115007                    CMPA    66,DL
        31 010341   010374 600000 31                 TZE     s:22378

     1880    22336    4      AND O1COM.LEVEL_NO ~= %LEVEL_66 THEN
     1881    22337    5        DO;

     1882    22338    5          LEVEL$ = CDECL$ -> LX_REC_DECL.P.LEVEL_NO$;

  22338 31 010342   000001 236100                    LDQ     1,,PR0
        31 010343   000256 756000 0                  STQ     LEVEL$

     1883    22339
     1884    22340               %CONDITIONAL_ERROR (@LX_ITEM$ = LEVEL$,
     1885    22341                                   @ERROR#   = %E$ONLY_66_IN_RENAMES,
     1886    22342                                   @LINE     = LEVEL$ -> LX_ITEM.LINE,
     1887    22343                                   @COLUMN   = LEVEL$ -> LX_ITEM.COLUMN);

  22353 31 010344   000256 471400 0                  LDP1    LEVEL$
        31 010345   100000 236100                    LDQ     0,,PR1
        31 010346   400000 316007                    CANQ    -131072,DL
        31 010347   010366 601000 31                 TNZ     s:22373

  22355 31 010350   000256 236000 0                  LDQ     LEVEL$
        31 010351   000006 036003                    ADLQ    6,DU
        31 010352   000574 756000 0                  STQ     P$+3
        31 010353   000256 236000 0                  LDQ     LEVEL$
        31 010354   000005 036003                    ADLQ    5,DU
PL6.E3A0      #001=Z8DR$RECORD_DECL File=Z8DR.:Z8A6TSI                           SAT 08/09/97 11:18 Page:407
        31 010355   000203 235000 32                 LDA     131
        31 010356   000572 757000 0                  STAQ    P$+1
        31 010357   000572 630400 0                  EPPR0   P$+1
        31 010360   000001 631400 32                 EPPR1   1
        31 010361   000000 701000 xent               TSX1    Z8AE$ERROR
        31 010362   000000 011000                    NOP     0

  22364 31 010363   000256 470400 0                  LDP0    LEVEL$
        31 010364   400000 236007                    LDQ     -131072,DL
        31 010365   000000 256100                    ORSQ    0,,PR0

     1888    22373    5          O1COM.LEVEL_NO = %LEVEL_66;

  22373 31 010366   000102 235007                    LDA     66,DL
        31 010367   000005 755000 xsym               STA     O1COM+5

     1889    22374    5          IF REDUCED_DATA.LEVEL.PREVIOUS ~= 0 THEN

  22374 31 010370   000035 236000 0                  LDQ     REDUCED_DATA+2
        31 010371   010374 600000 31                 TZE     s:22378

     1890    22375    5          REDUCED_DATA.LEVEL.CURRENT = 02;

  22375 31 010372   000002 235007                    LDA     2,DL
        31 010373   000034 755000 0                  STA     REDUCED_DATA+1

     1891    22376    5        END;

     1892    22377
     1893    22378    4      IF  O1COM.LEVEL_NO  < %LEVEL_01

  22378 31 010374   000005 235000 xsym               LDA     O1COM+5
        31 010375   010406 604400 31                 TMOZ    s:22384
        31 010376   000061 115007                    CMPA    49,DL
        31 010377   010507 604400 31                 TMOZ    s:22438
        31 010400   000102 115007                    CMPA    66,DL
        31 010401   010507 600000 31                 TZE     s:22438
PL6.E3A0      #001=Z8DR$RECORD_DECL File=Z8DR.:Z8A6TSI                           SAT 08/09/97 11:18 Page:408
        31 010402   000115 115007                    CMPA    77,DL
        31 010403   010507 600000 31                 TZE     s:22438
        31 010404   000130 115007                    CMPA    88,DL
        31 010405   010507 600000 31                 TZE     s:22438

     1894    22379    4      OR  O1COM.LEVEL_NO  > %LEVEL_49
     1895    22380    4      AND O1COM.LEVEL_NO ~= %LEVEL_66
     1896    22381    4      AND O1COM.LEVEL_NO ~= %LEVEL_77
     1897    22382    4      AND O1COM.LEVEL_NO ~= %LEVEL_88 THEN
     1898    22383    5        DO;

     1899    22384    5          LEVEL$ = CDECL$ -> LX_REC_DECL.P.LEVEL_NO$;

  22384 31 010406   000160 470400 0                  LDP0    CDECL$
        31 010407   000001 236100                    LDQ     1,,PR0
        31 010410   000256 756000 0                  STQ     LEVEL$

     1900    22385    5          PLUG1$ = CDECL$ -> LX_REC_DECL.P.DATA_NAME$ -> LX_ITEM.DNT$;

  22385 31 010411   000002 471500                    LDP1    2,,PR0
        31 010412   100002 236100                    LDQ     2,,PR1
        31 010413   000260 756000 0                  STQ     PLUG1$

     1901    22386
     1902    22387               %CONDITIONAL_ERROR (@LX_ITEM$ = LEVEL$,
     1903    22388                                   @ERROR#   = %E$INVALID_LEVEL_NUMBER,
     1904    22389                                   @LINE     = LEVEL$ -> LX_ITEM.LINE,
     1905    22390                                   @COLUMN   = LEVEL$ -> LX_ITEM.COLUMN,
     1906    22391                                   @PLUG1    = PLUG1$);

  22401 31 010414   000256 471400 0                  LDP1    LEVEL$
        31 010415   100000 236100                    LDQ     0,,PR1
        31 010416   400000 316007                    CANQ    -131072,DL
        31 010417   010440 601000 31                 TNZ     s:22422

  22403 31 010420   000205 236000 32                 LDQ     133
        31 010421   000575 756000 0                  STQ     P$+4
PL6.E3A0      #001=Z8DR$RECORD_DECL File=Z8DR.:Z8A6TSI                           SAT 08/09/97 11:18 Page:409
        31 010422   000256 236000 0                  LDQ     LEVEL$
        31 010423   000006 036003                    ADLQ    6,DU
        31 010424   000574 756000 0                  STQ     P$+3
        31 010425   000256 236000 0                  LDQ     LEVEL$
        31 010426   000005 036003                    ADLQ    5,DU
        31 010427   000206 235000 32                 LDA     134
        31 010430   000572 757000 0                  STAQ    P$+1
        31 010431   000572 630400 0                  EPPR0   P$+1
        31 010432   000076 631400 32                 EPPR1   62
        31 010433   000000 701000 xent               TSX1    Z8AE$ERROR
        31 010434   000000 011000                    NOP     0

  22412 31 010435   000256 470400 0                  LDP0    LEVEL$
        31 010436   400000 236007                    LDQ     -131072,DL
        31 010437   000000 256100                    ORSQ    0,,PR0

     1907    22421
     1908    22422    5          IF HIER_STK.QLT$ (HIER_STK_PTR) = ADDR(NIL) OR

  22422 31 010440   000000 236000 xsym               LDQ     HIER_STK_PTR
        31 010441   000005 402007                    MPY     5,DL
        31 010442   000000 236006 xsym               LDQ     HIER_STK,QL
        31 010443   000000 116000 32                 CMPQ    0
        31 010444   010454 600000 31                 TZE     s:22425
        31 010445   000000 236000 xsym               LDQ     HIER_STK_PTR
        31 010446   000005 402007                    MPY     5,DL
        31 010447   000000 470406 xsym               LDP0    HIER_STK,QL
        31 010450   000004 471500                    LDP1    4,,PR0
        31 010451   100003 236100                    LDQ     3,,PR1
        31 010452   010000 316003                    CANQ    4096,DU
        31 010453   010460 600000 31                 TZE     s:22430

     1909    22423    5            HIER_STK.QLT$ (HIER_STK_PTR) -> QLT.ST$ -> VARIABLE.B.ELEMENTARY THEN
     1910    22424    6            DO;

     1911    22425    6              O1COM.LEVEL_NO = %LEVEL_01;

PL6.E3A0      #001=Z8DR$RECORD_DECL File=Z8DR.:Z8A6TSI                           SAT 08/09/97 11:18 Page:410
  22425 31 010454   000001 235007                    LDA     1,DL
        31 010455   000005 755000 xsym               STA     O1COM+5

     1912    22426    6              REDUCED_DATA.LEVEL.CURRENT = %LEVEL_01;

  22426 31 010456   000034 755000 0                  STA     REDUCED_DATA+1

     1913    22427    6            END;

  22427 31 010457   010476 710000 31                 TRA     s:22434

     1914    22428    5          ELSE
     1915    22429    6            DO;

     1916    22430    6              O1COM.LEVEL_NO = HIER_STK.LEVEL# (HIER_STK_PTR) + 1;

  22430 31 010460   000000 236000 xsym               LDQ     HIER_STK_PTR
        31 010461   000005 402007                    MPY     5,DL
        31 010462   000002 236006 xsym               LDQ     HIER_STK+2,QL
        31 010463   000022 736000                    QLS     18
        31 010464   000033 732000                    QRS     27
        31 010465   000001 036007                    ADLQ    1,DL
        31 010466   000005 756000 xsym               STQ     O1COM+5

     1917    22431    6              REDUCED_DATA.LEVEL.CURRENT = HIER_STK.LEVEL# (HIER_STK_PTR) + 1;

  22431 31 010467   000000 236000 xsym               LDQ     HIER_STK_PTR
        31 010470   000005 402007                    MPY     5,DL
        31 010471   000002 236006 xsym               LDQ     HIER_STK+2,QL
        31 010472   000022 736000                    QLS     18
        31 010473   000033 732000                    QRS     27
        31 010474   000001 036007                    ADLQ    1,DL
        31 010475   000034 756000 0                  STQ     REDUCED_DATA+1

     1918    22432    6            END;

     1919    22433
PL6.E3A0      #001=Z8DR$RECORD_DECL File=Z8DR.:Z8A6TSI                           SAT 08/09/97 11:18 Page:411
     1920    22434    5          REDUCED_DATA.B.ELEMENTARY = (REDUCED_DATA.LEVEL.NEXT <=

  22434 31 010476   400000 220003                    LDX0    -131072,DU
        31 010477   000036 236000 0                  LDQ     REDUCED_DATA+3
        31 010500   000034 116000 0                  CMPQ    REDUCED_DATA+1
        31 010501   010503 604400 31                 TMOZ    s:22434+5
        31 010502   000000 220003                    LDX0    0,DU
        31 010503   000000 636010                    EAQ     0,X0
        31 010504   000060 676000 0                  ERQ     REDUCED_DATA+21
        31 010505   400000 376003                    ANQ     -131072,DU
        31 010506   000060 656000 0                  ERSQ    REDUCED_DATA+21

     1921    22435    5                                       REDUCED_DATA.LEVEL.CURRENT);
     1922    22436    5        END;

     1923    22437
     1924    22438    4   END VALIDATE_LEVEL;

  22438 31 010507   000255 221200 0                  LDX1  ! I+1
        31 010510   000001 702211                    TSX2  ! 1,X1

     1925    22439        %EJECT;
PL6.E3A0      #001=Z8DR$RECORD_DECL File=Z8DR.:Z8A6TSI                           SAT 08/09/97 11:18 Page:412
     1926    22440        /*============*/
     1927    22441    3     VALIDATE_PIC: PROC;

  22441 31 010511   000262 741200 0     VALIDATE_PIC STX1  ! NEXT_LINE_LEVEL+1

     1928    22442        /*============*/
     1929    22443
     1930    22444    4   DCL LENGTH                    SBIN WORD;
     1931    22445
     1932    22446    4   DCL PIC$                      PTR;
     1933    22447    4   DCL COLUMN#                   SBIN WORD;
     1934    22448    4   DCL LINE#                     SBIN WORD;
     1935    22449
     1936    22450
     1937    22451
     1938    22452    4      PIC$ = CDECL$ -> LX_REC_DECL.P.PIC_CLAUSE$;

  22452 31 010512   000160 470400 0                  LDP0    CDECL$
        31 010513   000004 236100                    LDQ     4,,PR0
        31 010514   000264 756000 0                  STQ     PIC$

     1939    22453
     1940    22454    4      IF CDECL$ -> LX_REC_DECL.P.RENAMES$ ~= ADDR(NIL) THEN

  22454 31 010515   000006 236100                    LDQ     6,,PR0
        31 010516   000000 116000 32                 CMPQ    0
        31 010517   010553 600000 31                 TZE     s:22497

     1941    22455    5        DO;

     1942    22456               %CONDITIONAL_ERROR (@LX_ITEM$ = PIC$,
     1943    22457                                   @ERROR#   = %E$RENAMES_WITH_PIC,
     1944    22458                                   @LINE     = PIC$ -> LX_ITEM.LINE,
     1945    22459                                   @COLUMN   = PIC$ -> LX_ITEM.COLUMN);

  22469 31 010520   000264 471400 0                  LDP1    PIC$
        31 010521   100000 236100                    LDQ     0,,PR1
PL6.E3A0      #001=Z8DR$RECORD_DECL File=Z8DR.:Z8A6TSI                           SAT 08/09/97 11:18 Page:413
        31 010522   400000 316007                    CANQ    -131072,DL
        31 010523   010542 601000 31                 TNZ     s:22492

  22471 31 010524   000264 236000 0                  LDQ     PIC$
        31 010525   000006 036003                    ADLQ    6,DU
        31 010526   000574 756000 0                  STQ     P$+3
        31 010527   000264 236000 0                  LDQ     PIC$
        31 010530   000005 036003                    ADLQ    5,DU
        31 010531   000210 235000 32                 LDA     136
        31 010532   000572 757000 0                  STAQ    P$+1
        31 010533   000572 630400 0                  EPPR0   P$+1
        31 010534   000001 631400 32                 EPPR1   1
        31 010535   000000 701000 xent               TSX1    Z8AE$ERROR
        31 010536   000000 011000                    NOP     0

  22480 31 010537   000264 470400 0                  LDP0    PIC$
        31 010540   400000 236007                    LDQ     -131072,DL
        31 010541   000000 256100                    ORSQ    0,,PR0

     1946    22489
     1947    22490               %DELETE_CLAUSE (@CLAUSE$ = PIC_CLAUSE$);

  22492 31 010542   000160 236000 0                  LDQ     CDECL$
        31 010543   000004 036003                    ADLQ    4,DU
        31 010544   000572 756000 0                  STQ     P$+1
        31 010545   000572 630400 0                  EPPR0   P$+1
        31 010546   000005 631400 32                 EPPR1   5
        31 010547   000000 701000 xent               TSX1    Z8ED$DISPOSE_ABSSYN_TREE
        31 010550   000000 011000                    NOP     0

     1948    22495    5          RETURN;

  22495 31 010551   000262 221200 0                  LDX1  ! NEXT_LINE_LEVEL+1
        31 010552   000001 702211                    TSX2  ! 1,X1

     1949    22496    5        END;
     1950    22497    4      IF PIC_OUT.ERROR ~= %NO_ERROR THEN
PL6.E3A0      #001=Z8DR$RECORD_DECL File=Z8DR.:Z8A6TSI                           SAT 08/09/97 11:18 Page:414

  22497 31 010553   000003 235000 28                 LDA     PIC_OUT+3
        31 010554   010634 600000 31                 TZE     s:22552

     1951    22498    5        DO;

     1952    22499    5          COLUMN# = PIC_OUT.ERRCOL + PIC$ -> LX_ITEM.COLUMN;

  22499 31 010555   000264 471400 0                  LDP1    PIC$
        31 010556   000004 236000 28                 LDQ     PIC_OUT+4
        31 010557   000022 772000                    QRL     18
        31 010560   100006 036100                    ADLQ    6,,PR1
        31 010561   000265 756000 0                  STQ     COLUMN#

     1953    22500
     1954    22501               %CONDITIONAL_ERROR (@LX_ITEM$ = PIC$,
     1955    22502                                   @ERROR#   = PIC_OUT.ERROR,
     1956    22503                                   @LINE     = PIC$ -> LX_ITEM.LINE,
     1957    22504                                   @COLUMN   = COLUMN#);

  22514 31 010562   100000 236100                    LDQ     0,,PR1
        31 010563   400000 316007                    CANQ    -131072,DL
        31 010564   010605 601000 31                 TNZ     s:22536

  22516 31 010565   000211 236000 32                 LDQ     137
        31 010566   000574 756000 0                  STQ     P$+3
        31 010567   000264 236000 0                  LDQ     PIC$
        31 010570   000005 036003                    ADLQ    5,DU
        31 010571   000212 235000 32                 LDA     138
        31 010572   000572 757000 0                  STAQ    P$+1
        31 010573   000572 630400 0                  EPPR0   P$+1
        31 010574   000001 631400 32                 EPPR1   1
        31 010575   000000 701000 xent               TSX1    Z8AE$ERROR
        31 010576   000000 011000                    NOP     0

  22528 31 010577   000003 235000 28                 LDA     PIC_OUT+3
        31 010600   000310 115007                    CMPA    200,DL
PL6.E3A0      #001=Z8DR$RECORD_DECL File=Z8DR.:Z8A6TSI                           SAT 08/09/97 11:18 Page:415
        31 010601   010605 602000 31                 TNC     s:22536

  22529 31 010602   000264 470400 0                  LDP0    PIC$
        31 010603   400000 236007                    LDQ     -131072,DL
        31 010604   000000 256100                    ORSQ    0,,PR0

     1958    22534               %DEFAULT_PIC; /* Recovery */

  22536 31 010605   000005 220003                    LDX0    5,DU
        31 010606   000002 740000 28                 STX0    PIC_OUT+2

  22537 31 010607   000004 221003                    LDX1    4,DU
        31 010610   000001 441000 28                 SXL1    PIC_OUT+1

  22538 31 010611   000004 235007                    LDA     4,DL
        31 010612   000000 755000 28                 STA     PIC_OUT

  22539 31 010613   000000 222003                    LDX2    0,DU
        31 010614   000001 742000 28                 STX2    PIC_OUT+1

  22540 31 010615   000003 223003                    LDX3    3,DU
        31 010616   000005 743000 28                 STX3    PIC_OUT+5

  22541 31 010617   000160 470400 0                  LDP0    CDECL$
        31 010620   000010 236100                    LDQ     8,,PR0
        31 010621   000000 116000 32                 CMPQ    0
        31 010622   010632 600000 31                 TZE     s:22549

  22544 31 010623   000160 236000 0                  LDQ     CDECL$
        31 010624   000010 036003                    ADLQ    8,DU
        31 010625   000572 756000 0                  STQ     P$+1
        31 010626   000572 630400 0                  EPPR0   P$+1
        31 010627   000005 631400 32                 EPPR1   5
        31 010630   000000 701000 xent               TSX1    Z8ED$DISPOSE_ABSSYN_TREE
        31 010631   000000 011000                    NOP     0

     1959    22549    5          RETURN;
PL6.E3A0      #001=Z8DR$RECORD_DECL File=Z8DR.:Z8A6TSI                           SAT 08/09/97 11:18 Page:416

  22549 31 010632   000262 221200 0                  LDX1  ! NEXT_LINE_LEVEL+1
        31 010633   000001 702211                    TSX2  ! 1,X1

     1960    22550    5        END;
     1961    22551
     1962    22552    4      IF REDUCED_DATA.USAGE.TYPE = %RSV_WRD_INDEX THEN

  22552 31 010634   000033 235000 0                  LDA     REDUCED_DATA
        31 010635   000365 115007                    CMPA    245,DL
        31 010636   010672 601000 31                 TNZ     s:22595

     1963    22553    5        DO;

     1964    22554               %CONDITIONAL_ERROR (@LX_ITEM$ = PIC$,
     1965    22555                                   @ERROR#   = %E$PIC_ON_INDEX,
     1966    22556                                   @LINE     = PIC$ -> LX_ITEM.LINE,
     1967    22557                                   @COLUMN   = PIC$ -> LX_ITEM.COLUMN);

  22567 31 010637   000264 471400 0                  LDP1    PIC$
        31 010640   100000 236100                    LDQ     0,,PR1
        31 010641   400000 316007                    CANQ    -131072,DL
        31 010642   010661 601000 31                 TNZ     s:22589

  22569 31 010643   000264 236000 0                  LDQ     PIC$
        31 010644   000006 036003                    ADLQ    6,DU
        31 010645   000574 756000 0                  STQ     P$+3
        31 010646   000264 236000 0                  LDQ     PIC$
        31 010647   000005 036003                    ADLQ    5,DU
        31 010650   000214 235000 32                 LDA     140
        31 010651   000572 757000 0                  STAQ    P$+1
        31 010652   000572 630400 0                  EPPR0   P$+1
        31 010653   000001 631400 32                 EPPR1   1
        31 010654   000000 701000 xent               TSX1    Z8AE$ERROR
        31 010655   000000 011000                    NOP     0

  22578 31 010656   000264 470400 0                  LDP0    PIC$
PL6.E3A0      #001=Z8DR$RECORD_DECL File=Z8DR.:Z8A6TSI                           SAT 08/09/97 11:18 Page:417
        31 010657   400000 236007                    LDQ     -131072,DL
        31 010660   000000 256100                    ORSQ    0,,PR0

     1968    22587               %DELETE_CLAUSE (@CLAUSE$ = PIC_CLAUSE$);

  22589 31 010661   000160 236000 0                  LDQ     CDECL$
        31 010662   000004 036003                    ADLQ    4,DU
        31 010663   000572 756000 0                  STQ     P$+1
        31 010664   000572 630400 0                  EPPR0   P$+1
        31 010665   000005 631400 32                 EPPR1   5
        31 010666   000000 701000 xent               TSX1    Z8ED$DISPOSE_ABSSYN_TREE
        31 010667   000000 011000                    NOP     0

     1969    22592    5          RETURN;

  22592 31 010670   000262 221200 0                  LDX1  ! NEXT_LINE_LEVEL+1
        31 010671   000001 702211                    TSX2  ! 1,X1

     1970    22593    5        END;
     1971    22594
     1972    22595    4      IF NOT REDUCED_DATA.B.ELEMENTARY THEN

  22595 31 010672   000060 234000 0                  SZN     REDUCED_DATA+21
        31 010673   010727 604000 31                 TMI     s:22638

     1973    22596    5        DO;

     1974    22597               %CONDITIONAL_ERROR (@LX_ITEM$ = PIC$,
     1975    22598                                   @ERROR#   = %E$NO_PIC_ALLOWED_ON_GROUP,
     1976    22599                                   @LINE     = PIC$ -> LX_ITEM.LINE,
     1977    22600                                   @COLUMN   = PIC$ -> LX_ITEM.COLUMN);

  22610 31 010674   000264 471400 0                  LDP1    PIC$
        31 010675   100000 236100                    LDQ     0,,PR1
        31 010676   400000 316007                    CANQ    -131072,DL
        31 010677   010716 601000 31                 TNZ     s:22632

PL6.E3A0      #001=Z8DR$RECORD_DECL File=Z8DR.:Z8A6TSI                           SAT 08/09/97 11:18 Page:418
  22612 31 010700   000264 236000 0                  LDQ     PIC$
        31 010701   000006 036003                    ADLQ    6,DU
        31 010702   000574 756000 0                  STQ     P$+3
        31 010703   000264 236000 0                  LDQ     PIC$
        31 010704   000005 036003                    ADLQ    5,DU
        31 010705   000216 235000 32                 LDA     142
        31 010706   000572 757000 0                  STAQ    P$+1
        31 010707   000572 630400 0                  EPPR0   P$+1
        31 010710   000001 631400 32                 EPPR1   1
        31 010711   000000 701000 xent               TSX1    Z8AE$ERROR
        31 010712   000000 011000                    NOP     0

  22621 31 010713   000264 470400 0                  LDP0    PIC$
        31 010714   400000 236007                    LDQ     -131072,DL
        31 010715   000000 256100                    ORSQ    0,,PR0

     1978    22630               %DELETE_CLAUSE (@CLAUSE$ = PIC_CLAUSE$); /* Recovery */

  22632 31 010716   000160 236000 0                  LDQ     CDECL$
        31 010717   000004 036003                    ADLQ    4,DU
        31 010720   000572 756000 0                  STQ     P$+1
        31 010721   000572 630400 0                  EPPR0   P$+1
        31 010722   000005 631400 32                 EPPR1   5
        31 010723   000000 701000 xent               TSX1    Z8ED$DISPOSE_ABSSYN_TREE
        31 010724   000000 011000                    NOP     0

     1979    22635    5          RETURN;

  22635 31 010725   000262 221200 0                  LDX1  ! NEXT_LINE_LEVEL+1
        31 010726   000001 702211                    TSX2  ! 1,X1

     1980    22636    5        END;
     1981    22637
     1982    22638    4      IF REDUCED_DATA.USAGE.TYPE = %RSV_WRD_GBCD OR

  22638 31 010727   000332 115007                    CMPA    218,DL
        31 010730   010733 600000 31                 TZE     s:22641
PL6.E3A0      #001=Z8DR$RECORD_DECL File=Z8DR.:Z8A6TSI                           SAT 08/09/97 11:18 Page:419
        31 010731   000236 115007                    CMPA    158,DL
        31 010732   011006 601000 31                 TNZ     s:22693

     1983    22639    4          REDUCED_DATA.USAGE.TYPE = %RSV_WRD_EBCDIC THEN
     1984    22640    5        DO;

     1985    22641    5          IF PIC_OUT.TYPE = %PIC_TY_K THEN

  22641 31 010733   000002 220000 28                 LDX0    PIC_OUT+2
        31 010734   000001 100003                    CMPX0   1,DU
        31 010735   011073 601000 31                 TNZ     s:22750

     1986    22642    6            DO;

     1987    22643                   %CONDITIONAL_ERROR (@LX_ITEM$ = PIC$,
     1988    22644                                       @ERROR#   = %E$MUST_BE_DISPLAY,
     1989    22645                                       @LINE     = PIC$ -> LX_ITEM.LINE,
     1990    22646                                       @COLUMN   = PIC$ -> LX_ITEM.COLUMN);

  22656 31 010736   000264 471400 0                  LDP1    PIC$
        31 010737   100000 236100                    LDQ     0,,PR1
        31 010740   400000 316007                    CANQ    -131072,DL
        31 010741   010760 601000 31                 TNZ     s:22678

  22658 31 010742   000264 236000 0                  LDQ     PIC$
        31 010743   000006 036003                    ADLQ    6,DU
        31 010744   000574 756000 0                  STQ     P$+3
        31 010745   000264 236000 0                  LDQ     PIC$
        31 010746   000005 036003                    ADLQ    5,DU
        31 010747   000220 235000 32                 LDA     144
        31 010750   000572 757000 0                  STAQ    P$+1
        31 010751   000572 630400 0                  EPPR0   P$+1
        31 010752   000001 631400 32                 EPPR1   1
        31 010753   000000 701000 xent               TSX1    Z8AE$ERROR
        31 010754   000000 011000                    NOP     0

  22667 31 010755   000264 470400 0                  LDP0    PIC$
PL6.E3A0      #001=Z8DR$RECORD_DECL File=Z8DR.:Z8A6TSI                           SAT 08/09/97 11:18 Page:420
        31 010756   400000 236007                    LDQ     -131072,DL
        31 010757   000000 256100                    ORSQ    0,,PR0

     1991    22676                   %DEFAULT_PIC; /* Recovery */

  22678 31 010760   000005 220003                    LDX0    5,DU
        31 010761   000002 740000 28                 STX0    PIC_OUT+2

  22679 31 010762   000004 221003                    LDX1    4,DU
        31 010763   000001 441000 28                 SXL1    PIC_OUT+1

  22680 31 010764   000004 235007                    LDA     4,DL
        31 010765   000000 755000 28                 STA     PIC_OUT

  22681 31 010766   000000 222003                    LDX2    0,DU
        31 010767   000001 742000 28                 STX2    PIC_OUT+1

  22682 31 010770   000003 223003                    LDX3    3,DU
        31 010771   000005 743000 28                 STX3    PIC_OUT+5

  22683 31 010772   000160 470400 0                  LDP0    CDECL$
        31 010773   000010 236100                    LDQ     8,,PR0
        31 010774   000000 116000 32                 CMPQ    0
        31 010775   011073 600000 31                 TZE     s:22750

  22686 31 010776   000160 236000 0                  LDQ     CDECL$
        31 010777   000010 036003                    ADLQ    8,DU
        31 011000   000572 756000 0                  STQ     P$+1
        31 011001   000572 630400 0                  EPPR0   P$+1
        31 011002   000005 631400 32                 EPPR1   5
        31 011003   000000 701000 xent               TSX1    Z8ED$DISPOSE_ABSSYN_TREE
        31 011004   000000 011000                    NOP     0

     1992    22691    6            END;

     1993    22692    5        END;

PL6.E3A0      #001=Z8DR$RECORD_DECL File=Z8DR.:Z8A6TSI                           SAT 08/09/97 11:18 Page:421
  22692 31 011005   011073 710000 31                 TRA     s:22750

     1994    22693    4      ELSE IF REDUCED_DATA.USAGE.TYPE ~= %NO_USAGE THEN

  22693 31 011006   000000 115003                    CMPA    0,DU
        31 011007   011073 600000 31                 TZE     s:22750

     1995    22694    5        DO CASE (PIC_OUT.TYPE);

  22694 31 011010   000002 220000 28                 LDX0    PIC_OUT+2
        31 011011   000007 100003                    CMPX0   7,DU
        31 011012   011014 602010 31                 TNC     s:22694+4,X0
        31 011013   011073 710000 31                 TRA     s:22750
        31 011014   011023 710000 31                 TRA     s:22710
        31 011015   011023 710000 31                 TRA     s:22710
        31 011016   011023 710000 31                 TRA     s:22710
        31 011017   011023 710000 31                 TRA     s:22710
        31 011020   011023 710000 31                 TRA     s:22710
        31 011021   011073 710000 31                 TRA     s:22750
        31 011022   011023 710000 31                 TRA     s:22710

     1996    22695    5          CASE(%PIC_TY_A,   %PIC_TY_AE, %PIC_TY_AN,

     1997    22696    5               %PIC_TY_ANE, %PIC_TY_NE, %PIC_TY_K);
     1998    22697                 %CONDITIONAL_ERROR (@LX_ITEM$ = PIC$,
     1999    22698                                     @ERROR#   = %E$ALPHA_PIC_ON_NUMERIC_ITEM,
     2000    22699                                     @LINE     = PIC$ -> LX_ITEM.LINE,
     2001    22700                                     @COLUMN   = PIC$ -> LX_ITEM.COLUMN);

  22710 31 011023   000264 471400 0                  LDP1    PIC$
        31 011024   100000 236100                    LDQ     0,,PR1
        31 011025   400000 316007                    CANQ    -131072,DL
        31 011026   011045 601000 31                 TNZ     s:22732

  22712 31 011027   000264 236000 0                  LDQ     PIC$
        31 011030   000006 036003                    ADLQ    6,DU
        31 011031   000574 756000 0                  STQ     P$+3
PL6.E3A0      #001=Z8DR$RECORD_DECL File=Z8DR.:Z8A6TSI                           SAT 08/09/97 11:18 Page:422
        31 011032   000264 236000 0                  LDQ     PIC$
        31 011033   000005 036003                    ADLQ    5,DU
        31 011034   000222 235000 32                 LDA     146
        31 011035   000572 757000 0                  STAQ    P$+1
        31 011036   000572 630400 0                  EPPR0   P$+1
        31 011037   000001 631400 32                 EPPR1   1
        31 011040   000000 701000 xent               TSX1    Z8AE$ERROR
        31 011041   000000 011000                    NOP     0

  22721 31 011042   000264 470400 0                  LDP0    PIC$
        31 011043   400000 236007                    LDQ     -131072,DL
        31 011044   000000 256100                    ORSQ    0,,PR0

     2002    22730                 %DEFAULT_PIC; /* Recovery */

  22732 31 011045   000005 220003                    LDX0    5,DU
        31 011046   000002 740000 28                 STX0    PIC_OUT+2

  22733 31 011047   000004 221003                    LDX1    4,DU
        31 011050   000001 441000 28                 SXL1    PIC_OUT+1

  22734 31 011051   000004 235007                    LDA     4,DL
        31 011052   000000 755000 28                 STA     PIC_OUT

  22735 31 011053   000000 222003                    LDX2    0,DU
        31 011054   000001 742000 28                 STX2    PIC_OUT+1

  22736 31 011055   000003 223003                    LDX3    3,DU
        31 011056   000005 743000 28                 STX3    PIC_OUT+5

  22737 31 011057   000160 470400 0                  LDP0    CDECL$
        31 011060   000010 236100                    LDQ     8,,PR0
        31 011061   000000 116000 32                 CMPQ    0
        31 011062   011073 600000 31                 TZE     s:22750

  22740 31 011063   000160 236000 0                  LDQ     CDECL$
        31 011064   000010 036003                    ADLQ    8,DU
PL6.E3A0      #001=Z8DR$RECORD_DECL File=Z8DR.:Z8A6TSI                           SAT 08/09/97 11:18 Page:423
        31 011065   000572 756000 0                  STQ     P$+1
        31 011066   000572 630400 0                  EPPR0   P$+1
        31 011067   000005 631400 32                 EPPR1   5
        31 011070   000000 701000 xent               TSX1    Z8ED$DISPOSE_ABSSYN_TREE
        31 011071   000000 011000                    NOP     0

  22743 31 011072   011073 710000 31                 TRA     s:22750

     2003    22745
     2004    22746    5          CASE (ELSE);

     2005    22747    5            /* All ok */;
     2006    22748    5        END;

     2007    22749
     2008    22750    4      IF REDUCED_DATA.USAGE.TYPE = %RSV_WRD_POINTER THEN

  22750 31 011073   000033 235000 0                  LDA     REDUCED_DATA
        31 011074   000522 115007                    CMPA    338,DL
        31 011075   011131 601000 31                 TNZ     s:22793

     2009    22751    5        DO;

     2010    22752                 %CONDITIONAL_ERROR (@LX_ITEM$ = PIC$,
     2011    22753                                     @ERROR#   = %E$CLAUSE_NOT_VALID,
     2012    22754                                     @LINE     = PIC$ -> LX_ITEM.LINE,
     2013    22755                                     @COLUMN   = PIC$ -> LX_ITEM.COLUMN,
     2014    22756                                     @PLUG1 = "DNT$_FROM_RSWNO(%RSV_WRD_USAGE)");

  22766 31 011076   000264 470400 0                  LDP0    PIC$
        31 011077   000000 236100                    LDQ     0,,PR0
        31 011100   400000 316007                    CANQ    -131072,DL
        31 011101   011122 601000 31                 TNZ     s:22788

  22768 31 011102   000122 236000 32                 LDQ     82
        31 011103   000575 756000 0                  STQ     P$+4
        31 011104   000264 236000 0                  LDQ     PIC$
PL6.E3A0      #001=Z8DR$RECORD_DECL File=Z8DR.:Z8A6TSI                           SAT 08/09/97 11:18 Page:424
        31 011105   000006 036003                    ADLQ    6,DU
        31 011106   000574 756000 0                  STQ     P$+3
        31 011107   000264 236000 0                  LDQ     PIC$
        31 011110   000005 036003                    ADLQ    5,DU
        31 011111   000123 235000 32                 LDA     83
        31 011112   000572 757000 0                  STAQ    P$+1
        31 011113   000572 630400 0                  EPPR0   P$+1
        31 011114   000076 631400 32                 EPPR1   62
        31 011115   000000 701000 xent               TSX1    Z8AE$ERROR
        31 011116   000000 011000                    NOP     0

  22777 31 011117   000264 470400 0                  LDP0    PIC$
        31 011120   400000 236007                    LDQ     -131072,DL
        31 011121   000000 256100                    ORSQ    0,,PR0

     2015    22786                 %DELETE_CLAUSE (@CLAUSE$ = PIC_CLAUSE$);

  22788 31 011122   000160 236000 0                  LDQ     CDECL$
        31 011123   000004 036003                    ADLQ    4,DU
        31 011124   000572 756000 0                  STQ     P$+1
        31 011125   000572 630400 0                  EPPR0   P$+1
        31 011126   000005 631400 32                 EPPR1   5
        31 011127   000000 701000 xent               TSX1    Z8ED$DISPOSE_ABSSYN_TREE
        31 011130   000000 011000                    NOP     0

     2016    22791    5        END;

     2017    22792
     2018    22793    4      IF REDUCED_DATA.B.ASTERISK THEN

  22793 31 011131   000060 236000 0                  LDQ     REDUCED_DATA+21
        31 011132   200000 316003                    CANQ    65536,DU
        31 011133   011165 600000 31                 TZE     s:22835

     2019    22794    5        DO;

     2020    22795               %CONDITIONAL_ERROR (@LX_ITEM$ = PIC$,
PL6.E3A0      #001=Z8DR$RECORD_DECL File=Z8DR.:Z8A6TSI                           SAT 08/09/97 11:18 Page:425
     2021    22796                                   @ERROR#   = %E$BWZ_AND_ASTERISK,
     2022    22797                                   @LINE     = PIC$ -> LX_ITEM.LINE,
     2023    22798                                   @COLUMN   = PIC$ -> LX_ITEM.COLUMN);

  22808 31 011134   000264 470400 0                  LDP0    PIC$
        31 011135   000000 236100                    LDQ     0,,PR0
        31 011136   400000 316007                    CANQ    -131072,DL
        31 011137   011156 601000 31                 TNZ     s:22830

  22810 31 011140   000264 236000 0                  LDQ     PIC$
        31 011141   000006 036003                    ADLQ    6,DU
        31 011142   000574 756000 0                  STQ     P$+3
        31 011143   000264 236000 0                  LDQ     PIC$
        31 011144   000005 036003                    ADLQ    5,DU
        31 011145   000224 235000 32                 LDA     148
        31 011146   000572 757000 0                  STAQ    P$+1
        31 011147   000572 630400 0                  EPPR0   P$+1
        31 011150   000001 631400 32                 EPPR1   1
        31 011151   000000 701000 xent               TSX1    Z8AE$ERROR
        31 011152   000000 011000                    NOP     0

  22819 31 011153   000264 470400 0                  LDP0    PIC$
        31 011154   400000 236007                    LDQ     -131072,DL
        31 011155   000000 256100                    ORSQ    0,,PR0

     2024    22828               %DELETE_CLAUSE (@CLAUSE$ = BLANK$); /* Recovery */

  22830 31 011156   000160 236000 0                  LDQ     CDECL$
        31 011157   000012 036003                    ADLQ    10,DU
        31 011160   000572 756000 0                  STQ     P$+1
        31 011161   000572 630400 0                  EPPR0   P$+1
        31 011162   000005 631400 32                 EPPR1   5
        31 011163   000000 701000 xent               TSX1    Z8ED$DISPOSE_ABSSYN_TREE
        31 011164   000000 011000                    NOP     0

     2025    22833    5        END;

PL6.E3A0      #001=Z8DR$RECORD_DECL File=Z8DR.:Z8A6TSI                           SAT 08/09/97 11:18 Page:426
     2026    22834
     2027    22835    4      IF REDUCED_DATA.USAGE.TYPE = %RSV_WRD_COMP_1 THEN

  22835 31 011165   000033 235000 0                  LDA     REDUCED_DATA
        31 011166   000136 115007                    CMPA    94,DL
        31 011167   011253 601000 31                 TNZ     s:22891

     2028    22836    5        DO;

     2029    22837               %DECIPHER_PIC_LENGTH (@LENGTH = LENGTH);

  22839 31 011170   000001 236000 28                 LDQ     PIC_OUT+1
        31 011171   000022 732000                    QRS     18
        31 011172   000225 676000 32                 ERQ     149
        31 011173   000001 036007                    ADLQ    1,DL
        31 011174   011212 604000 31                 TMI     s:22845
        31 011175   000000 116000 28                 CMPQ    PIC_OUT
        31 011176   011212 602000 31                 TNC     s:22845
        31 011177   011212 600000 31                 TZE     s:22845

  22840 31 011200   000005 220000 28                 LDX0    PIC_OUT+5
        31 011201   000003 100003                    CMPX0   3,DU
        31 011202   011207 600000 31                 TZE     s:22843

  22841 31 011203   000000 235000 28                 LDA     PIC_OUT
        31 011204   000001 135007                    SBLA    1,DL
        31 011205   000263 755000 0                  STA     LENGTH
        31 011206   011227 710000 31                 TRA     s:22852

  22843 31 011207   000000 235000 28                 LDA     PIC_OUT
        31 011210   000263 755000 0                  STA     LENGTH
        31 011211   011227 710000 31                 TRA     s:22852

  22845 31 011212   000001 220000 28                 LDX0    PIC_OUT+1
        31 011213   011224 605400 31                 TPNZ    s:22848

  22846 31 011214   000001 235000 28                 LDA     PIC_OUT+1
PL6.E3A0      #001=Z8DR$RECORD_DECL File=Z8DR.:Z8A6TSI                           SAT 08/09/97 11:18 Page:427
        31 011215   000022 731000                    ARS     18
        31 011216   000572 755000 0                  STA     P$+1
        31 011217   000001 236000 28                 LDQ     PIC_OUT+1
        31 011220   777777 376007                    ANQ     -1,DL
        31 011221   000572 136000 0                  SBLQ    P$+1
        31 011222   000263 756000 0                  STQ     LENGTH
        31 011223   011227 710000 31                 TRA     s:22852

  22848 31 011224   000001 236000 28                 LDQ     PIC_OUT+1
        31 011225   777777 376007                    ANQ     -1,DL
        31 011226   000263 756000 0                  STQ     LENGTH

     2030    22851
     2031    22852    5          IF LENGTH > %COMP1_MAX_PIC_DIGITS THEN

  22852 31 011227   000263 235000 0                  LDA     LENGTH
        31 011230   000004 115007                    CMPA    4,DL
        31 011231   011253 604400 31                 TMOZ    s:22891

     2032    22853    6            DO;

     2033    22854                   %CONDITIONAL_ERROR (@LX_ITEM$ = PIC$,
     2034    22855                                       @ERROR#   = %E$CONVERT_COMP1_TO_COMP2,
     2035    22856                                       @LINE     = PIC$ -> LX_ITEM.LINE,
     2036    22857                                       @COLUMN   = PIC$ -> LX_ITEM.COLUMN);

  22867 31 011232   000264 470400 0                  LDP0    PIC$
        31 011233   000000 236100                    LDQ     0,,PR0
        31 011234   400000 316007                    CANQ    -131072,DL
        31 011235   011251 601000 31                 TNZ     s:22887

  22869 31 011236   000264 236000 0                  LDQ     PIC$
        31 011237   000006 036003                    ADLQ    6,DU
        31 011240   000574 756000 0                  STQ     P$+3
        31 011241   000264 236000 0                  LDQ     PIC$
        31 011242   000005 036003                    ADLQ    5,DU
        31 011243   000227 235000 32                 LDA     151
PL6.E3A0      #001=Z8DR$RECORD_DECL File=Z8DR.:Z8A6TSI                           SAT 08/09/97 11:18 Page:428
        31 011244   000572 757000 0                  STAQ    P$+1
        31 011245   000572 630400 0                  EPPR0   P$+1
        31 011246   000001 631400 32                 EPPR1   1
        31 011247   000000 701000 xent               TSX1    Z8AE$ERROR
        31 011250   000000 011000                    NOP     0

     2037    22887    6              REDUCED_DATA.USAGE.TYPE = %RSV_WRD_COMP_2;

  22887 31 011251   000143 235007                    LDA     99,DL
        31 011252   000033 755000 0                  STA     REDUCED_DATA

     2038    22888    6            END;

     2039    22889    5        END;

     2040    22890
     2041    22891    4      IF COMCOM.OB.INFO AND REDUCED_DATA.USAGE.TYPE = %RSV_WRD_COMP_2 THEN

  22891 31 011253   000034 234000 xsym               SZN     COMCOM+28
        31 011254   011341 605000 31                 TPL     s:22944
        31 011255   000033 235000 0                  LDA     REDUCED_DATA
        31 011256   000143 115007                    CMPA    99,DL
        31 011257   011341 601000 31                 TNZ     s:22944

     2042    22892    5        DO;

     2043    22893               %DECIPHER_PIC_LENGTH (@LENGTH = LENGTH);

  22895 31 011260   000001 236000 28                 LDQ     PIC_OUT+1
        31 011261   000022 732000                    QRS     18
        31 011262   000225 676000 32                 ERQ     149
        31 011263   000001 036007                    ADLQ    1,DL
        31 011264   011302 604000 31                 TMI     s:22901
        31 011265   000000 116000 28                 CMPQ    PIC_OUT
        31 011266   011302 602000 31                 TNC     s:22901
        31 011267   011302 600000 31                 TZE     s:22901

PL6.E3A0      #001=Z8DR$RECORD_DECL File=Z8DR.:Z8A6TSI                           SAT 08/09/97 11:18 Page:429
  22896 31 011270   000005 220000 28                 LDX0    PIC_OUT+5
        31 011271   000003 100003                    CMPX0   3,DU
        31 011272   011277 600000 31                 TZE     s:22899

  22897 31 011273   000000 235000 28                 LDA     PIC_OUT
        31 011274   000001 135007                    SBLA    1,DL
        31 011275   000263 755000 0                  STA     LENGTH
        31 011276   011317 710000 31                 TRA     s:22908

  22899 31 011277   000000 235000 28                 LDA     PIC_OUT
        31 011300   000263 755000 0                  STA     LENGTH
        31 011301   011317 710000 31                 TRA     s:22908

  22901 31 011302   000001 220000 28                 LDX0    PIC_OUT+1
        31 011303   011314 605400 31                 TPNZ    s:22904

  22902 31 011304   000001 235000 28                 LDA     PIC_OUT+1
        31 011305   000022 731000                    ARS     18
        31 011306   000572 755000 0                  STA     P$+1
        31 011307   000001 236000 28                 LDQ     PIC_OUT+1
        31 011310   777777 376007                    ANQ     -1,DL
        31 011311   000572 136000 0                  SBLQ    P$+1
        31 011312   000263 756000 0                  STQ     LENGTH
        31 011313   011317 710000 31                 TRA     s:22908

  22904 31 011314   000001 236000 28                 LDQ     PIC_OUT+1
        31 011315   777777 376007                    ANQ     -1,DL
        31 011316   000263 756000 0                  STQ     LENGTH

     2044    22907
     2045    22908    5          IF LENGTH > %COMP2_MAX_PIC_DIGITS THEN

  22908 31 011317   000263 235000 0                  LDA     LENGTH
        31 011320   000011 115007                    CMPA    9,DL
        31 011321   011341 604400 31                 TMOZ    s:22944

     2046    22909                 %CONDITIONAL_ERROR (@LX_ITEM$ = PIC$,
PL6.E3A0      #001=Z8DR$RECORD_DECL File=Z8DR.:Z8A6TSI                           SAT 08/09/97 11:18 Page:430
     2047    22910                                     @ERROR#   = %E$COMP2_TOO_LONG,
     2048    22911                                     @LINE     = PIC$ -> LX_ITEM.LINE,
     2049    22912                                     @COLUMN   = PIC$ -> LX_ITEM.COLUMN);

  22922 31 011322   000264 470400 0                  LDP0    PIC$
        31 011323   000000 236100                    LDQ     0,,PR0
        31 011324   400000 316007                    CANQ    -131072,DL
        31 011325   011341 601000 31                 TNZ     s:22944

  22924 31 011326   000264 236000 0                  LDQ     PIC$
        31 011327   000006 036003                    ADLQ    6,DU
        31 011330   000574 756000 0                  STQ     P$+3
        31 011331   000264 236000 0                  LDQ     PIC$
        31 011332   000005 036003                    ADLQ    5,DU
        31 011333   000231 235000 32                 LDA     153
        31 011334   000572 757000 0                  STAQ    P$+1
        31 011335   000572 630400 0                  EPPR0   P$+1
        31 011336   000001 631400 32                 EPPR1   1
        31 011337   000000 701000 xent               TSX1    Z8AE$ERROR
        31 011340   000000 011000                    NOP     0

     2050    22942    5        END;

     2051    22943
     2052    22944    4     IF REDUCED_DATA.USAGE.TYPE = %RSV_WRD_COMP_6 AND PIC_OUT.SCALE < %NO_SCALE_FACTOR
             22944               THEN

  22944 31 011341   000033 235000 0                  LDA     REDUCED_DATA
        31 011342   000147 115007                    CMPA    103,DL
        31 011343   011375 601000 31                 TNZ     s:22984
        31 011344   000001 220000 28                 LDX0    PIC_OUT+1
        31 011345   011375 605000 31                 TPL     s:22984

     2053    22945    5        DO;

     2054    22946               %CONDITIONAL_ERROR (@LX_ITEM$ = PIC$,
     2055    22947                                   @ERROR#   = %E$CONVERT_COMP6_TO_11_12,
PL6.E3A0      #001=Z8DR$RECORD_DECL File=Z8DR.:Z8A6TSI                           SAT 08/09/97 11:18 Page:431
     2056    22948                                   @LINE     = PIC$ -> LX_ITEM.LINE,
     2057    22949                                   @COLUMN   = PIC$ -> LX_ITEM.COLUMN);

  22959 31 011346   000264 470400 0                  LDP0    PIC$
        31 011347   000000 236100                    LDQ     0,,PR0
        31 011350   400000 316007                    CANQ    -131072,DL
        31 011351   011365 601000 31                 TNZ     s:22979

  22961 31 011352   000264 236000 0                  LDQ     PIC$
        31 011353   000006 036003                    ADLQ    6,DU
        31 011354   000574 756000 0                  STQ     P$+3
        31 011355   000264 236000 0                  LDQ     PIC$
        31 011356   000005 036003                    ADLQ    5,DU
        31 011357   000233 235000 32                 LDA     155
        31 011360   000572 757000 0                  STAQ    P$+1
        31 011361   000572 630400 0                  EPPR0   P$+1
        31 011362   000001 631400 32                 EPPR1   1
        31 011363   000000 701000 xent               TSX1    Z8AE$ERROR
        31 011364   000000 011000                    NOP     0

     2058    22979    5          IF PIC_OUT.WIDTH > %COMP11_MAX_PIC_DIGITS

  22979 31 011365   000000 235000 28                 LDA     PIC_OUT
        31 011366   000011 115007                    CMPA    9,DL
        31 011367   011373 602000 31                 TNC     s:22981

     2059    22980    5            THEN REDUCED_DATA.USAGE.TYPE = %RSV_WRD_COMP_12;

  22980 31 011370   000140 236007                    LDQ     96,DL
        31 011371   000033 756000 0                  STQ     REDUCED_DATA
        31 011372   011375 710000 31                 TRA     s:22984

     2060    22981    5            ELSE REDUCED_DATA.USAGE.TYPE = %RSV_WRD_COMP_11;

  22981 31 011373   000137 236007                    LDQ     95,DL
        31 011374   000033 756000 0                  STQ     REDUCED_DATA

PL6.E3A0      #001=Z8DR$RECORD_DECL File=Z8DR.:Z8A6TSI                           SAT 08/09/97 11:18 Page:432
     2061    22982    5        END;

     2062    22983
     2063    22984    4      IF PIC_OUT.TYPE = %PIC_TY_K

  22984 31 011375   000002 220000 28                 LDX0    PIC_OUT+2
        31 011376   000001 100003                    CMPX0   1,DU
        31 011377   011430 601000 31                 TNZ     s:23023
        31 011400   000043 236000 xsym               LDQ     COMCOM+35
        31 011401   400000 376003                    ANQ     -131072,DU
        31 011402   400000 676003                    ERQ     -131072,DU
        31 011403   011430 600000 31                 TZE     s:23023

     2064    22985    4      AND (~ COMCOM.OB.KANJI) THEN
     2065    22986    5        DO;

     2066    22987               %CONDITIONAL_ERROR (@LX_ITEM$ = PIC$,
     2067    22988                                   @ERROR#   = %E$PIC_N_ILLEGAL,
     2068    22989                                   @LINE     = PIC$ -> LX_ITEM.LINE,
     2069    22990                                   @COLUMN   = PIC$ -> LX_ITEM.COLUMN);

  23000 31 011404   000264 470400 0                  LDP0    PIC$
        31 011405   000000 236100                    LDQ     0,,PR0
        31 011406   400000 316007                    CANQ    -131072,DL
        31 011407   011426 601000 31                 TNZ     s:23020

  23002 31 011410   000264 236000 0                  LDQ     PIC$
        31 011411   000006 036003                    ADLQ    6,DU
        31 011412   000574 756000 0                  STQ     P$+3
        31 011413   000264 236000 0                  LDQ     PIC$
        31 011414   000005 036003                    ADLQ    5,DU
        31 011415   000235 235000 32                 LDA     157
        31 011416   000572 757000 0                  STAQ    P$+1
        31 011417   000572 630400 0                  EPPR0   P$+1
        31 011420   000001 631400 32                 EPPR1   1
        31 011421   000000 701000 xent               TSX1    Z8AE$ERROR
        31 011422   000000 011000                    NOP     0
PL6.E3A0      #001=Z8DR$RECORD_DECL File=Z8DR.:Z8A6TSI                           SAT 08/09/97 11:18 Page:433

  23011 31 011423   000264 470400 0                  LDP0    PIC$
        31 011424   400000 236007                    LDQ     -131072,DL
        31 011425   000000 256100                    ORSQ    0,,PR0

     2070    23020    5          RETURN;

  23020 31 011426   000262 221200 0                  LDX1  ! NEXT_LINE_LEVEL+1
        31 011427   000001 702211                    TSX2  ! 1,X1

     2071    23021    5        END;
     2072    23022
     2073    23023    4      REDUCED_DATA.B.PIC_CLAUSE = TRUE;

  23023 31 011430   000400 236003                    LDQ     256,DU
        31 011431   000060 256000 0                  ORSQ    REDUCED_DATA+21

     2074    23024
     2075    23025    4   END VALIDATE_PIC;

  23025 31 011432   000262 221200 0                  LDX1  ! NEXT_LINE_LEVEL+1
        31 011433   000001 702211                    TSX2  ! 1,X1

     2076    23026        %EJECT;
PL6.E3A0      #001=Z8DR$RECORD_DECL File=Z8DR.:Z8A6TSI                           SAT 08/09/97 11:18 Page:434
     2077    23027         /*========================*/
     2078    23028    3      CREATE_VALUE_FOR_IBM_OPT: PROC;

  23028 31 011434   000267 741200 0     CREATE_VALU* STX1  ! LINE#+1

     2079    23029         /*========================*/
     2080    23030
     2081    23031    4   DCL STK_OBJ            SBIN WORD;
     2082    23032    4   DCL I                  SBIN WORD;
     2083    23033    4   DCL SYMBOL             UBIN WORD;
     2084    23034    4   DCL VALUE$             PTR;
     2085    23035
     2086    23036
     2087    23037
     2088    23038    4      IF REDUCED_DATA.B.ELEMENTARY AND

  23038 31 011435   000060 234000 0                  SZN     REDUCED_DATA+21
        31 011436   011630 605000 31                 TPL     s:23108
        31 011437   000160 470400 0                  LDP0    CDECL$
        31 011440   000006 236100                    LDQ     6,,PR0
        31 011441   000000 116000 32                 CMPQ    0
        31 011442   011630 601000 31                 TNZ     s:23108
        31 011443   000005 236100                    LDQ     5,,PR0
        31 011444   000000 116000 32                 CMPQ    0
        31 011445   011630 601000 31                 TNZ     s:23108
        31 011446   000015 236100                    LDQ     13,,PR0
        31 011447   000000 116000 32                 CMPQ    0
        31 011450   011630 601000 31                 TNZ     s:23108
        31 011451   000033 235000 0                  LDA     REDUCED_DATA
        31 011452   000365 115007                    CMPA    245,DL
        31 011453   011630 600000 31                 TZE     s:23108

     2089    23039    4         CDECL$ -> LX_REC_DECL.P.RENAMES$ = ADDR(NIL) AND
     2090    23040    4         CDECL$ -> LX_REC_DECL.P.REDEFINES$ = ADDR(NIL) AND
     2091    23041    4         CDECL$ -> LX_REC_DECL.P.EXTERNAL$ = ADDR(NIL) AND
     2092    23042    4         REDUCED_DATA.USAGE.TYPE ~= %RSV_WRD_INDEX THEN
     2093    23043    5        DO;
PL6.E3A0      #001=Z8DR$RECORD_DECL File=Z8DR.:Z8A6TSI                           SAT 08/09/97 11:18 Page:435

     2094    23044    5          IF REDUCED_DATA.LEVEL.CURRENT <= REDUCED_DATA.LEVEL.PREVIOUS THEN

  23044 31 011454   000034 236000 0                  LDQ     REDUCED_DATA+1
        31 011455   000035 116000 0                  CMPQ    REDUCED_DATA+2
        31 011456   011464 605400 31                 TPNZ    s:23047

     2095    23045    5            CALL FIND_HIER_INDEX (REDUCED_DATA.LEVEL.CURRENT, STK_OBJ);

  23045 31 011457   000236 237000 32                 LDAQ    158
        31 011460   000406 757000 0                  STAQ    LINE#+2
        31 011461   016705 701000 31                 TSX1    FIND_HIER_INDEX
        31 011462   000000 011000                    NOP     0
        31 011463   011467 710000 31                 TRA     s:23049

     2096    23046    5          ELSE
     2097    23047    5            STK_OBJ = HIER_STK_PTR + 1;

  23047 31 011464   000000 235000 xsym               LDA     HIER_STK_PTR
        31 011465   000001 035007                    ADLA    1,DL
        31 011466   000270 755000 0                  STA     STK_OBJ

     2098    23048
     2099    23049    6          DO I = 1 TO STK_OBJ - 1;

  23049 31 011467   000001 235007                    LDA     1,DL
        31 011470   000271 755000 0                  STA     I
        31 011471   011510 710000 31                 TRA     s:23055+1

     2100    23050
     2101    23051    6            IF HIER_STK.B.VALUE_PRESENTED(I) OR

  23051 31 011472   000271 236000 0                  LDQ     I
        31 011473   000005 402007                    MPY     5,DL
        31 011474   000002 236006 xsym               LDQ     HIER_STK+2,QL
        31 011475   000020 316007                    CANQ    16,DL
        31 011476   011505 601000 31                 TNZ     s:23053
PL6.E3A0      #001=Z8DR$RECORD_DECL File=Z8DR.:Z8A6TSI                           SAT 08/09/97 11:18 Page:436
        31 011477   000271 236000 0                  LDQ     I
        31 011500   000005 402007                    MPY     5,DL
        31 011501   000000 470406 xsym               LDP0    HIER_STK,QL
        31 011502   000004 471500                    LDP1    4,,PR0
        31 011503   100003 430100                    FSZN    3,,PR1
        31 011504   011507 605000 31                 TPL     s:23055

     2102    23052    6               HIER_STK.QLT$(I) -> QLT.ST$ -> VARIABLE.B.REDEF_SUB THEN
     2103    23053    6              RETURN;

  23053 31 011505   000267 221200 0                  LDX1  ! LINE#+1
        31 011506   000001 702211                    TSX2  ! 1,X1

     2104    23054
     2105    23055    6          END;

  23055 31 011507   000271 054000 0                  AOS     I
        31 011510   000271 236000 0                  LDQ     I
        31 011511   000270 116000 0                  CMPQ    STK_OBJ
        31 011512   011472 604000 31                 TMI     s:23051

     2106    23056
     2107    23057               /* Don't initialize the external variables */
     2108    23058
     2109    23059    5          IF REDUCED_DATA.LEVEL.CURRENT ~= %LEVEL_01 AND

  23059 31 011513   000034 235000 0                  LDA     REDUCED_DATA+1
        31 011514   000001 115007                    CMPA    1,DL
        31 011515   011525 600000 31                 TZE     s:23063
        31 011516   000005 470400 xsym               LDP0    HIER_STK+5
        31 011517   000004 471500                    LDP1    4,,PR0
        31 011520   100003 236100                    LDQ     3,,PR1
        31 011521   000004 316003                    CANQ    4,DU
        31 011522   011525 600000 31                 TZE     s:23063

     2110    23060    5             HIER_STK.QLT$(1) -> QLT.ST$ -> VARIABLE.B.EXTERNAL THEN
     2111    23061    5            RETURN;
PL6.E3A0      #001=Z8DR$RECORD_DECL File=Z8DR.:Z8A6TSI                           SAT 08/09/97 11:18 Page:437

  23061 31 011523   000267 221200 0                  LDX1  ! LINE#+1
        31 011524   000001 702211                    TSX2  ! 1,X1

     2112    23062
     2113    23063    5          IF REDUCED_DATA.USAGE.TYPE = %NO_USAGE OR

  23063 31 011525   000033 236000 0                  LDQ     REDUCED_DATA
        31 011526   011533 600000 31                 TZE     s:23067
        31 011527   000236 116007                    CMPQ    158,DL
        31 011530   011533 600000 31                 TZE     s:23067
        31 011531   000332 116007                    CMPQ    218,DL
        31 011532   011574 601000 31                 TNZ     s:23085

     2114    23064    5             REDUCED_DATA.USAGE.TYPE = %RSV_WRD_EBCDIC OR
     2115    23065    5             REDUCED_DATA.USAGE.TYPE = %RSV_WRD_GBCD THEN
     2116    23066    6            DO;

     2117    23067    7              DO CASE (PIC_OUT.TYPE);

  23067 31 011533   000002 220000 28                 LDX0    PIC_OUT+2
        31 011534   000005 100003                    CMPX0   5,DU
        31 011535   011537 602010 31                 TNC     s:23067+4,X0
        31 011536   011560 710000 31                 TRA     s:23078
        31 011537   011544 710000 31                 TRA     s:23071
        31 011540   011544 710000 31                 TRA     s:23071
        31 011541   011544 710000 31                 TRA     s:23071
        31 011542   011544 710000 31                 TRA     s:23071
        31 011543   011544 710000 31                 TRA     s:23071

     2118    23068    7                CASE (%PIC_TY_A, %PIC_TY_AE, %PIC_TY_AN,

     2119    23069    7                      %PIC_TY_ANE, %PIC_TY_K);
     2120    23070
     2121    23071    7                  CALL NEW_VALUE_CLAUSE (VALUE$, %RSV_WRD_SPACES);

  23071 31 011544   000241 236000 32                 LDQ     161
PL6.E3A0      #001=Z8DR$RECORD_DECL File=Z8DR.:Z8A6TSI                           SAT 08/09/97 11:18 Page:438
        31 011545   000276 756000 0                  STQ     @VALUE$+1
        31 011546   000242 236000 32                 LDQ     162
        31 011547   000275 756000 0                  STQ     VALUE$+2
        31 011550   011632 701000 31                 TSX1    NEW_VALUE_CLAUSE
        31 011551   000000 011000                    NOP     0

     2122    23072
     2123    23073    7                  VALUE$ -> LX_LIST.HEAD$ -> LX_LIST.HEAD$ ->

  23073 31 011552   000273 470400 0                  LDP0    VALUE$
        31 011553   000004 471500                    LDP1    4,,PR0
        31 011554   100004 473500                    LDP3    4,,PR1
        31 011555   000010 235007                    LDA     8,DL
        31 011556   300004 755100                    STA     4,,PR3
        31 011557   011625 710000 31                 TRA     s:23104

     2124    23074    7                    LX_TERMINAL.TYPE = %TYA;
     2125    23075
     2126    23076    7                CASE (ELSE);

     2127    23077
     2128    23078    7                   CALL NEW_VALUE_CLAUSE (VALUE$, %RSV_WRD_ZEROES);

  23078 31 011560   000244 236000 32                 LDQ     164
        31 011561   000276 756000 0                  STQ     @VALUE$+1
        31 011562   000242 236000 32                 LDQ     162
        31 011563   000275 756000 0                  STQ     VALUE$+2
        31 011564   011632 701000 31                 TSX1    NEW_VALUE_CLAUSE
        31 011565   000000 011000                    NOP     0

     2129    23079
     2130    23080    7                   VALUE$ -> LX_LIST.HEAD$ -> LX_LIST.HEAD$ ->

  23080 31 011566   000273 470400 0                  LDP0    VALUE$
        31 011567   000004 471500                    LDP1    4,,PR0
        31 011570   100004 473500                    LDP3    4,,PR1
        31 011571   000001 235007                    LDA     1,DL
PL6.E3A0      #001=Z8DR$RECORD_DECL File=Z8DR.:Z8A6TSI                           SAT 08/09/97 11:18 Page:439
        31 011572   300004 755100                    STA     4,,PR3

     2131    23081    7                      LX_TERMINAL.TYPE = %TYI;
     2132    23082
     2133    23083    7              END; /* DO CASE */

     2134    23084    6            END; /* IF ...DO; */

  23084 31 011573   011625 710000 31                 TRA     s:23104

     2135    23085    5          ELSE IF REDUCED_DATA.USAGE.TYPE = %RSV_WRD_POINTER THEN

  23085 31 011574   000522 116007                    CMPQ    338,DL
        31 011575   011612 601000 31                 TNZ     s:23097

     2136    23086    6            DO;

     2137    23087
     2138    23088    6                   CALL NEW_VALUE_CLAUSE (VALUE$, %RSV_WRD_NULL);

  23088 31 011576   000246 236000 32                 LDQ     166
        31 011577   000276 756000 0                  STQ     @VALUE$+1
        31 011600   000242 236000 32                 LDQ     162
        31 011601   000275 756000 0                  STQ     VALUE$+2
        31 011602   011632 701000 31                 TSX1    NEW_VALUE_CLAUSE
        31 011603   000000 011000                    NOP     0

     2139    23089
     2140    23090    6                   VALUE$ -> LX_LIST.HEAD$ -> LX_LIST.HEAD$ ->

  23090 31 011604   000273 470400 0                  LDP0    VALUE$
        31 011605   000004 471500                    LDP1    4,,PR0
        31 011606   100004 473500                    LDP3    4,,PR1
        31 011607   000022 235007                    LDA     18,DL
        31 011610   300004 755100                    STA     4,,PR3

     2141    23091    6                      LX_TERMINAL.TYPE = %TYP;
PL6.E3A0      #001=Z8DR$RECORD_DECL File=Z8DR.:Z8A6TSI                           SAT 08/09/97 11:18 Page:440
     2142    23092
     2143    23093    6            END;

  23093 31 011611   011625 710000 31                 TRA     s:23104

     2144    23094    5          ELSE
     2145    23095    6            DO;

     2146    23096
     2147    23097    6                   CALL NEW_VALUE_CLAUSE (VALUE$, %RSV_WRD_ZEROES);

  23097 31 011612   000244 236000 32                 LDQ     164
        31 011613   000276 756000 0                  STQ     @VALUE$+1
        31 011614   000242 236000 32                 LDQ     162
        31 011615   000275 756000 0                  STQ     VALUE$+2
        31 011616   011632 701000 31                 TSX1    NEW_VALUE_CLAUSE
        31 011617   000000 011000                    NOP     0

     2148    23098
     2149    23099    6                   VALUE$ -> LX_LIST.HEAD$ -> LX_LIST.HEAD$ ->

  23099 31 011620   000273 470400 0                  LDP0    VALUE$
        31 011621   000004 471500                    LDP1    4,,PR0
        31 011622   100004 473500                    LDP3    4,,PR1
        31 011623   000001 235007                    LDA     1,DL
        31 011624   300004 755100                    STA     4,,PR3

     2150    23100    6                      LX_TERMINAL.TYPE = %TYI;
     2151    23101
     2152    23102    6            END;

     2153    23103
     2154    23104    5          CDECL$ -> LX_REC_DECL.P.VALUE$ = VALUE$;

  23104 31 011625   000273 236000 0                  LDQ     VALUE$
        31 011626   000160 470400 0                  LDP0    CDECL$
        31 011627   000010 756100                    STQ     8,,PR0
PL6.E3A0      #001=Z8DR$RECORD_DECL File=Z8DR.:Z8A6TSI                           SAT 08/09/97 11:18 Page:441

     2155    23105
     2156    23106    5        END;

     2157    23107
     2158    23108    4    END CREATE_VALUE_FOR_IBM_OPT;

  23108 31 011630   000267 221200 0                  LDX1  ! LINE#+1
        31 011631   000001 702211                    TSX2  ! 1,X1

     2159    23109         %EJECT;
PL6.E3A0      #001=Z8DR$RECORD_DECL File=Z8DR.:Z8A6TSI                           SAT 08/09/97 11:18 Page:442
     2160    23110
     2161    23111        /*================*/
     2162    23112    3     NEW_VALUE_CLAUSE: PROC (VALUE$, RSV_WRD#);

  23112 31 011632   000274 741200 0     NEW_VALUE_C* STX1  ! VALUE$+1

     2163    23113        /*================*/
     2164    23114
     2165    23115    4        DCL LIST1$        PTR;
     2166    23116    4        DCL LIST2$        PTR;
     2167    23117    4        DCL ITEM$         PTR;
     2168    23118    4        DCL VALUE$        PTR;
     2169    23119    4        DCL RSV_WRD#      UBIN WORD;
     2170    23120
     2171    23121
     2172    23122             %NEW_HEAP (@POINTER = LIST1$);

  23124 31 011633   000247 630400 32                 EPPR0   167
        31 011634   000011 631400 32                 EPPR1   9
        31 011635   000000 701000 xent               TSX1    Z8ED$NEW_HEAP
        31 011636   000000 011000                    NOP     0

     2173    23127             %NEW_HEAP (@POINTER = LIST2$);

  23129 31 011637   000251 630400 32                 EPPR0   169
        31 011640   000011 631400 32                 EPPR1   9
        31 011641   000000 701000 xent               TSX1    Z8ED$NEW_HEAP
        31 011642   000000 011000                    NOP     0

     2174    23132             %NEW_HEAP (@POINTER = ITEM$);

  23134 31 011643   000253 630400 32                 EPPR0   171
        31 011644   000011 631400 32                 EPPR1   9
        31 011645   000000 701000 xent               TSX1    Z8ED$NEW_HEAP
        31 011646   000000 011000                    NOP     0

     2175    23137
PL6.E3A0      #001=Z8DR$RECORD_DECL File=Z8DR.:Z8A6TSI                           SAT 08/09/97 11:18 Page:443
     2176    23138    4        CALL INIT_VALUE_CLAUSE (LIST1$,

  23138 31 011647   000276 236000 0                  LDQ     @RSV_WRD#
        31 011650   000230 756000 0                  STQ     @RSV_WRD#
        31 011651   000275 236000 0                  LDQ     @VALUE$
        31 011652   000253 235000 32                 LDA     171
        31 011653   000226 757000 0                  STAQ    @LX_ITEM$
        31 011654   000256 237000 32                 LDAQ    174
        31 011655   000224 757000 0                  STAQ    @LX_LIST1$
        31 011656   005061 701000 31                 TSX1    INIT_VALUE_CLAUSE
        31 011657   000000 011000                    NOP     0

     2177    23139    4                                LIST2$,
     2178    23140    4                                ITEM$,
     2179    23141    4                                VALUE$,
     2180    23142    4                                RSV_WRD#);
     2181    23143
     2182    23144
     2183    23145    4   END NEW_VALUE_CLAUSE;

  23145 31 011660   000274 221200 0                  LDX1  ! VALUE$+1
        31 011661   000001 702211                    TSX2  ! 1,X1

     2184    23146        %EJECT;
PL6.E3A0      #001=Z8DR$RECORD_DECL File=Z8DR.:Z8A6TSI                           SAT 08/09/97 11:18 Page:444
     2185    23147        /*===================*/
     2186    23148    3     VALUE_CONTEXT_CHECK: PROC (VALUE$) ALTRET;

  23148 31 011662   000302 741200 0     VALUE_CONTE* STX1  ! ITEM$+1

     2187    23149        /*===================*/
     2188    23150
     2189    23151    4        DCL VALUE$        PTR;
     2190    23152    4        DCL LINE          SBIN;
     2191    23153    4        DCL COLUMN        SBIN;
     2192    23154
     2193    23155
     2194    23156    5        DO CASE (O1COM.DATA_DECL_CONTEXT);

  23156 31 011663   000015 235000 xsym               LDA     O1COM+13
        31 011664   000006 115007                    CMPA    6,DL
        31 011665   011667 602005 31                 TNC     s:23156+4,AL
        31 011666   012213 710000 31                 TRA     s:23494
        31 011667   012120 710000 31                 TRA     s:23422
        31 011670   011750 710000 31                 TRA     s:23246
        31 011671   011675 710000 31                 TRA     s:23160
        31 011672   012136 710000 31                 TRA     s:23435
        31 011673   012006 710000 31                 TRA     s:23293
        31 011674   012061 710000 31                 TRA     s:23378

     2195    23157
     2196    23158    5          CASE (%SORT_DESCRIPTION);

     2197    23159
     2198    23160    5            IF CDECL$ -> LX_REC_DECL.P.VALUE$ = ADDR(NIL) THEN

  23160 31 011675   000160 470400 0                  LDP0    CDECL$
        31 011676   000010 236100                    LDQ     8,,PR0
        31 011677   000000 116000 32                 CMPQ    0
        31 011700   011702 601000 31                 TNZ     s:23163

     2199    23161    5              ALTRETURN;
PL6.E3A0      #001=Z8DR$RECORD_DECL File=Z8DR.:Z8A6TSI                           SAT 08/09/97 11:18 Page:445

  23161 31 011701   000000 702211                    TSX2  ! 0,X1

     2200    23162
     2201    23163    5            LINE  = CDECL$ -> LX_REC_DECL.P.LEVEL_NO$ -> LX_ITEM.LINE;

  23163 31 011702   000001 471500                    LDP1    1,,PR0
        31 011703   100005 235100                    LDA     5,,PR1
        31 011704   000304 755000 0                  STA     LINE

     2202    23164    5            COLUMN= CDECL$ -> LX_REC_DECL.P.LEVEL_NO$ -> LX_ITEM.COLUMN;

  23164 31 011705   000001 471500                    LDP1    1,,PR0
        31 011706   100006 235100                    LDA     6,,PR1
        31 011707   000305 755000 0                  STA     COLUMN

     2203    23165
     2204    23166    5            IF COMCOM.OB.FIPS.LEVEL >= %HIGH_LEV THEN

  23166 31 011710   000036 720000 xsym               LXL0    COMCOM+30
        31 011711   011727 604400 31                 TMOZ    s:23215

     2205    23167                   %CONDITIONAL_ERROR (@LX_ITEM$ = CDECL$ -> LX_REC_DECL.P.VALUE$,
     2206    23168                                       @ERROR#   = %E$VALUE_IN_CONTEXT_NOT_ANSI,
     2207    23169                                       @LINE     = LINE,
     2208    23170                                       @COLUMN   = COLUMN);

  23180 31 011712   000010 471500                    LDP1    8,,PR0
        31 011713   100000 236100                    LDQ     0,,PR1
        31 011714   400000 316007                    CANQ    -131072,DL
        31 011715   011737 601000 31                 TNZ     s:23238

  23182 31 011716   000261 630400 32                 EPPR0   177
        31 011717   000001 631400 32                 EPPR1   1
        31 011720   000000 701000 xent               TSX1    Z8AE$ERROR
        31 011721   000000 011000                    NOP     0

PL6.E3A0      #001=Z8DR$RECORD_DECL File=Z8DR.:Z8A6TSI                           SAT 08/09/97 11:18 Page:446
  23191 31 011722   000160 470400 0                  LDP0    CDECL$
        31 011723   000010 471500                    LDP1    8,,PR0
        31 011724   400000 236007                    LDQ     -131072,DL
        31 011725   100000 256100                    ORSQ    0,,PR1

  23198 31 011726   011737 710000 31                 TRA     s:23238

     2209    23200
     2210    23201    5            ELSE
     2211    23202                   %CONDITIONAL_ERROR (@LX_ITEM$ = CDECL$ -> LX_REC_DECL.P.VALUE$,
     2212    23203                                       @ERROR#   = %E$VALUE_NOT_VALID_IN_CONTEXT,
     2213    23204                                       @LINE     = LINE,
     2214    23205                                       @COLUMN   = COLUMN);

  23215 31 011727   000010 471500                    LDP1    8,,PR0
        31 011730   100000 236100                    LDQ     0,,PR1
        31 011731   400000 316007                    CANQ    -131072,DL
        31 011732   011737 601000 31                 TNZ     s:23238

  23217 31 011733   000265 630400 32                 EPPR0   181
        31 011734   000001 631400 32                 EPPR1   1
        31 011735   000000 701000 xent               TSX1    Z8AE$ERROR
        31 011736   000000 011000                    NOP     0

     2215    23235
     2216    23236                 %DELETE_CLAUSE (@CLAUSE$ = VALUE$);

  23238 31 011737   000160 236000 0                  LDQ     CDECL$
        31 011740   000010 036003                    ADLQ    8,DU
        31 011741   000572 756000 0                  STQ     P$+1
        31 011742   000572 630400 0                  EPPR0   P$+1
        31 011743   000005 631400 32                 EPPR1   5
        31 011744   000000 701000 xent               TSX1    Z8ED$DISPOSE_ABSSYN_TREE
        31 011745   000000 011000                    NOP     0

     2217    23241
     2218    23242    5            ALTRETURN;
PL6.E3A0      #001=Z8DR$RECORD_DECL File=Z8DR.:Z8A6TSI                           SAT 08/09/97 11:18 Page:447

  23242 31 011746   000302 221200 0                  LDX1  ! ITEM$+1
        31 011747   000000 702211                    TSX2  ! 0,X1

     2219    23243
     2220    23244    5          CASE (%FILE_DESCRIPTION);

     2221    23245
     2222    23246    5            IF CDECL$ -> LX_REC_DECL.P.VALUE$ = ADDR(NIL) THEN

  23246 31 011750   000160 470400 0                  LDP0    CDECL$
        31 011751   000010 236100                    LDQ     8,,PR0
        31 011752   000000 116000 32                 CMPQ    0
        31 011753   011755 601000 31                 TNZ     s:23249

     2223    23247    5              ALTRETURN;

  23247 31 011754   000000 702211                    TSX2  ! 0,X1

     2224    23248
     2225    23249    5            LINE  = CDECL$ -> LX_REC_DECL.P.LEVEL_NO$ -> LX_ITEM.LINE;

  23249 31 011755   000001 471500                    LDP1    1,,PR0
        31 011756   100005 235100                    LDA     5,,PR1
        31 011757   000304 755000 0                  STA     LINE

     2226    23250    5            COLUMN= CDECL$ -> LX_REC_DECL.P.LEVEL_NO$ -> LX_ITEM.COLUMN;

  23250 31 011760   000001 471500                    LDP1    1,,PR0
        31 011761   100006 235100                    LDA     6,,PR1
        31 011762   000305 755000 0                  STA     COLUMN

     2227    23251
     2228    23252    5            IF COMCOM.OB.FIPS.LEVEL >= %HIGH_LEV THEN

  23252 31 011763   000036 720000 xsym               LXL0    COMCOM+30
        31 011764   012001 604400 31                 TMOZ    s:23287
PL6.E3A0      #001=Z8DR$RECORD_DECL File=Z8DR.:Z8A6TSI                           SAT 08/09/97 11:18 Page:448

     2229    23253                   %CONDITIONAL_ERROR (@LX_ITEM$ = CDECL$ -> LX_REC_DECL.P.VALUE$,
     2230    23254                                       @ERROR#   = %E$VALUE_IN_CONTEXT_NOT_ANSI,
     2231    23255                                       @LINE     = LINE,
     2232    23256                                       @COLUMN   = COLUMN);

  23266 31 011765   000010 471500                    LDP1    8,,PR0
        31 011766   100000 236100                    LDQ     0,,PR1
        31 011767   400000 316007                    CANQ    -131072,DL
        31 011770   012001 601000 31                 TNZ     s:23287

  23268 31 011771   000261 630400 32                 EPPR0   177
        31 011772   000001 631400 32                 EPPR1   1
        31 011773   000000 701000 xent               TSX1    Z8AE$ERROR
        31 011774   000000 011000                    NOP     0

  23277 31 011775   000160 470400 0                  LDP0    CDECL$
        31 011776   000010 471500                    LDP1    8,,PR0
        31 011777   400000 236007                    LDQ     -131072,DL
        31 012000   100000 256100                    ORSQ    0,,PR1

     2233    23286
     2234    23287    5            VALUE$ = CDECL$ -> LX_REC_DECL.P.VALUE$;

  23287 31 012001   000010 236100                    LDQ     8,,PR0
        31 012002   000303 471400 0                  LDP1    @VALUE$
        31 012003   100000 756100                    STQ     0,,PR1

     2235    23288
     2236    23289    5            RETURN;

  23289 31 012004   000302 221200 0                  LDX1  ! ITEM$+1
        31 012005   000001 702211                    TSX2  ! 1,X1

     2237    23290
     2238    23291    5          CASE (%LINKAGE_SECTION);

PL6.E3A0      #001=Z8DR$RECORD_DECL File=Z8DR.:Z8A6TSI                           SAT 08/09/97 11:18 Page:449
     2239    23292
     2240    23293    5            IF CDECL$ -> LX_REC_DECL.P.VALUE$ = ADDR(NIL) THEN

  23293 31 012006   000160 470400 0                  LDP0    CDECL$
        31 012007   000010 236100                    LDQ     8,,PR0
        31 012010   000000 116000 32                 CMPQ    0
        31 012011   012013 601000 31                 TNZ     s:23296

     2241    23294    5              ALTRETURN;

  23294 31 012012   000000 702211                    TSX2  ! 0,X1

     2242    23295
     2243    23296    5            LINE  = CDECL$ -> LX_REC_DECL.P.LEVEL_NO$ -> LX_ITEM.LINE;

  23296 31 012013   000001 471500                    LDP1    1,,PR0
        31 012014   100005 235100                    LDA     5,,PR1
        31 012015   000304 755000 0                  STA     LINE

     2244    23297    5            COLUMN= CDECL$ -> LX_REC_DECL.P.LEVEL_NO$ -> LX_ITEM.COLUMN;

  23297 31 012016   000001 471500                    LDP1    1,,PR0
        31 012017   100006 235100                    LDA     6,,PR1
        31 012020   000305 755000 0                  STA     COLUMN

     2245    23298
     2246    23299    5            IF COMCOM.OB.FIPS.LEVEL >= %HIGH_LEV THEN

  23299 31 012021   000036 720000 xsym               LXL0    COMCOM+30
        31 012022   012040 604400 31                 TMOZ    s:23348

     2247    23300                   %CONDITIONAL_ERROR (@LX_ITEM$ = CDECL$ -> LX_REC_DECL.P.VALUE$,
     2248    23301                                       @ERROR#   = %E$VALUE_IN_CONTEXT_NOT_ANSI,
     2249    23302                                       @LINE     = LINE,
     2250    23303                                       @COLUMN   = COLUMN);

  23313 31 012023   000010 471500                    LDP1    8,,PR0
PL6.E3A0      #001=Z8DR$RECORD_DECL File=Z8DR.:Z8A6TSI                           SAT 08/09/97 11:18 Page:450
        31 012024   100000 236100                    LDQ     0,,PR1
        31 012025   400000 316007                    CANQ    -131072,DL
        31 012026   012050 601000 31                 TNZ     s:23371

  23315 31 012027   000261 630400 32                 EPPR0   177
        31 012030   000001 631400 32                 EPPR1   1
        31 012031   000000 701000 xent               TSX1    Z8AE$ERROR
        31 012032   000000 011000                    NOP     0

  23324 31 012033   000160 470400 0                  LDP0    CDECL$
        31 012034   000010 471500                    LDP1    8,,PR0
        31 012035   400000 236007                    LDQ     -131072,DL
        31 012036   100000 256100                    ORSQ    0,,PR1

  23331 31 012037   012050 710000 31                 TRA     s:23371

     2251    23333
     2252    23334    5            ELSE
     2253    23335                   %CONDITIONAL_ERROR (@LX_ITEM$ = CDECL$ -> LX_REC_DECL.P.VALUE$,
     2254    23336                                       @ERROR#   = %E$VALUE_NOT_VALID_IN_CONTEXT,
     2255    23337                                       @LINE     = LINE,
     2256    23338                                       @COLUMN   = COLUMN);

  23348 31 012040   000010 471500                    LDP1    8,,PR0
        31 012041   100000 236100                    LDQ     0,,PR1
        31 012042   400000 316007                    CANQ    -131072,DL
        31 012043   012050 601000 31                 TNZ     s:23371

  23350 31 012044   000265 630400 32                 EPPR0   181
        31 012045   000001 631400 32                 EPPR1   1
        31 012046   000000 701000 xent               TSX1    Z8AE$ERROR
        31 012047   000000 011000                    NOP     0

     2257    23368
     2258    23369                 %DELETE_CLAUSE (@CLAUSE$ = VALUE$);

  23371 31 012050   000160 236000 0                  LDQ     CDECL$
PL6.E3A0      #001=Z8DR$RECORD_DECL File=Z8DR.:Z8A6TSI                           SAT 08/09/97 11:18 Page:451
        31 012051   000010 036003                    ADLQ    8,DU
        31 012052   000572 756000 0                  STQ     P$+1
        31 012053   000572 630400 0                  EPPR0   P$+1
        31 012054   000005 631400 32                 EPPR1   5
        31 012055   000000 701000 xent               TSX1    Z8ED$DISPOSE_ABSSYN_TREE
        31 012056   000000 011000                    NOP     0

     2259    23374
     2260    23375    5            ALTRETURN;

  23375 31 012057   000302 221200 0                  LDX1  ! ITEM$+1
        31 012060   000000 702211                    TSX2  ! 0,X1

     2261    23376
     2262    23377    5          CASE (%CONSTANT_SECTION);

     2263    23378    5            IF CDECL$ -> LX_REC_DECL.P.VALUE$ ~= ADDR(NIL) THEN

  23378 31 012061   000160 470400 0                  LDP0    CDECL$
        31 012062   000010 236100                    LDQ     8,,PR0
        31 012063   000000 116000 32                 CMPQ    0
        31 012064   012066 600000 31                 TZE     s:23381

     2264    23379    5              ALTRETURN;

  23379 31 012065   000000 702211                    TSX2  ! 0,X1

     2265    23380
     2266    23381    5            LINE = CDECL$ -> LX_REC_DECL.P.LEVEL_NO$ -> LX_ITEM.LINE;

  23381 31 012066   000001 471500                    LDP1    1,,PR0
        31 012067   100005 235100                    LDA     5,,PR1
        31 012070   000304 755000 0                  STA     LINE

     2267    23382    5            COLUMN = CDECL$ -> LX_REC_DECL.P.LEVEL_NO$ -> LX_ITEM.COLUMN;

  23382 31 012071   000001 471500                    LDP1    1,,PR0
PL6.E3A0      #001=Z8DR$RECORD_DECL File=Z8DR.:Z8A6TSI                           SAT 08/09/97 11:18 Page:452
        31 012072   100006 235100                    LDA     6,,PR1
        31 012073   000305 755000 0                  STA     COLUMN

     2268    23383
     2269    23384                 %CONDITIONAL_ERROR (@LX_ITEM$ = CDECL$ -> LX_REC_DECL.P.LEVEL_NO$,
     2270    23385                                     @ERROR#   = %E$CONSTANT_REQUIRES_VALUE,
     2271    23386                                     @LINE     = LINE,
     2272    23387                                     @COLUMN   = COLUMN);

  23397 31 012074   000001 471500                    LDP1    1,,PR0
        31 012075   100000 236100                    LDQ     0,,PR1
        31 012076   400000 316007                    CANQ    -131072,DL
        31 012077   012110 601000 31                 TNZ     s:23418

  23399 31 012100   000271 630400 32                 EPPR0   185
        31 012101   000001 631400 32                 EPPR1   1
        31 012102   000000 701000 xent               TSX1    Z8AE$ERROR
        31 012103   000000 011000                    NOP     0

  23408 31 012104   000160 470400 0                  LDP0    CDECL$
        31 012105   000001 471500                    LDP1    1,,PR0
        31 012106   400000 236007                    LDQ     -131072,DL
        31 012107   100000 256100                    ORSQ    0,,PR1

     2273    23417
     2274    23418    5            CALL NEW_VALUE_CLAUSE (VALUE$, %RSV_WRD_ZEROES);

  23418 31 012110   000244 236000 32                 LDQ     164
        31 012111   000276 756000 0                  STQ     @RSV_WRD#
        31 012112   000303 236000 0                  LDQ     @VALUE$
        31 012113   000275 756000 0                  STQ     @VALUE$
        31 012114   011632 701000 31                 TSX1    NEW_VALUE_CLAUSE
        31 012115   000000 011000                    NOP     0

     2275    23419    5            RETURN;

  23419 31 012116   000302 221200 0                  LDX1  ! ITEM$+1
PL6.E3A0      #001=Z8DR$RECORD_DECL File=Z8DR.:Z8A6TSI                           SAT 08/09/97 11:18 Page:453
        31 012117   000001 702211                    TSX2  ! 1,X1

     2276    23420
     2277    23421    5          CASE (%WORKING_STORAGE);

     2278    23422    5            IF CDECL$ -> LX_REC_DECL.P.VALUE$ = ADDR(NIL) THEN

  23422 31 012120   000160 470400 0                  LDP0    CDECL$
        31 012121   000010 236100                    LDQ     8,,PR0
        31 012122   000000 116000 32                 CMPQ    0
        31 012123   012132 601000 31                 TNZ     s:23430

     2279    23423    6              DO;

     2280    23424    6                IF COMCOM.OB.IBM THEN

  23424 31 012124   000032 234000 xsym               SZN     COMCOM+26
        31 012125   012130 605000 31                 TPL     s:23427

     2281    23425    6                  CALL CREATE_VALUE_FOR_IBM_OPT;

  23425 31 012126   011434 701000 31                 TSX1    CREATE_VALUE_FOR_IBM_OPT
        31 012127   000000 011000                    NOP     0

     2282    23426
     2283    23427    6                ALTRETURN;

  23427 31 012130   000302 221200 0                  LDX1  ! ITEM$+1
        31 012131   000000 702211                    TSX2  ! 0,X1

     2284    23428    6              END;
     2285    23429
     2286    23430    5            VALUE$ = CDECL$ -> LX_REC_DECL.P.VALUE$;

  23430 31 012132   000303 471400 0                  LDP1    @VALUE$
        31 012133   100000 756100                    STQ     0,,PR1

PL6.E3A0      #001=Z8DR$RECORD_DECL File=Z8DR.:Z8A6TSI                           SAT 08/09/97 11:18 Page:454
     2287    23431
     2288    23432    5            RETURN;

  23432 31 012134   000302 221200 0                  LDX1  ! ITEM$+1
        31 012135   000001 702211                    TSX2  ! 1,X1

     2289    23433
     2290    23434    5          CASE (%COMMUNICATION_DESC);

     2291    23435    5            IF CDECL$ -> LX_REC_DECL.P.VALUE$ = ADDR(NIL) THEN

  23435 31 012136   000160 470400 0                  LDP0    CDECL$
        31 012137   000010 236100                    LDQ     8,,PR0
        31 012140   000000 116000 32                 CMPQ    0
        31 012141   012143 601000 31                 TNZ     s:23438

     2292    23436    5              ALTRETURN;

  23436 31 012142   000000 702211                    TSX2  ! 0,X1

     2293    23437
     2294    23438    5            IF O1COM.CURRENT_CD_ENTRY$ -> CD_LTS.CD_ST$ -> SCALAR.QLT$ ->

  23438 31 012143   000120 471400 xsym               LDP1    O1COM+80
        31 012144   100002 473500                    LDP3    2,,PR1
        31 012145   300007 474500                    LDP4    7,,PR3
        31 012146   400002 236100                    LDQ     2,,PR4
        31 012147   000000 116000 32                 CMPQ    0
        31 012150   012206 600000 31                 TZE     s:23489
        31 012151   000005 116000 xsym               CMPQ    HIER_STK+5
        31 012152   012206 600000 31                 TZE     s:23489

     2295    23439    5              QLT.BROTHER ~= ADDR(NIL) AND
     2296    23440    5              O1COM.CURRENT_CD_ENTRY$ -> CD_LTS.CD_ST$ -> SCALAR.QLT$ ->
     2297    23441    5                QLT.BROTHER ~= HIER_STK.QLT$(1) THEN
     2298    23442    6              DO;

PL6.E3A0      #001=Z8DR$RECORD_DECL File=Z8DR.:Z8A6TSI                           SAT 08/09/97 11:18 Page:455
     2299    23443    6                LINE  = CDECL$ -> LX_REC_DECL.P.LEVEL_NO$ -> LX_ITEM.LINE;

  23443 31 012153   000001 475500                    LDP5    1,,PR0
        31 012154   500005 235100                    LDA     5,,PR5
        31 012155   000304 755000 0                  STA     LINE

     2300    23444    6                COLUMN= CDECL$ -> LX_REC_DECL.P.LEVEL_NO$ -> LX_ITEM.COLUMN;

  23444 31 012156   000001 473500                    LDP3    1,,PR0
        31 012157   300006 235100                    LDA     6,,PR3
        31 012160   000305 755000 0                  STA     COLUMN

     2301    23445
     2302    23446                     %CONDITIONAL_ERROR (@LX_ITEM$ = CDECL$ -> LX_REC_DECL.P.VALUE$,
     2303    23447                                         @ERROR#   = %E$ONLY_FIRST_MAY_HAVE_VALUE,
     2304    23448                                         @LINE     = LINE,
     2305    23449                                         @COLUMN   = COLUMN);

  23459 31 012161   000010 473500                    LDP3    8,,PR0
        31 012162   300000 236100                    LDQ     0,,PR3
        31 012163   400000 316007                    CANQ    -131072,DL
        31 012164   012175 601000 31                 TNZ     s:23482

  23461 31 012165   000275 630400 32                 EPPR0   189
        31 012166   000001 631400 32                 EPPR1   1
        31 012167   000000 701000 xent               TSX1    Z8AE$ERROR
        31 012170   000000 011000                    NOP     0

  23470 31 012171   000160 470400 0                  LDP0    CDECL$
        31 012172   000010 471500                    LDP1    8,,PR0
        31 012173   400000 236007                    LDQ     -131072,DL
        31 012174   100000 256100                    ORSQ    0,,PR1

     2306    23479
     2307    23480                     %DELETE_CLAUSE (@CLAUSE$ = VALUE$);

  23482 31 012175   000160 236000 0                  LDQ     CDECL$
PL6.E3A0      #001=Z8DR$RECORD_DECL File=Z8DR.:Z8A6TSI                           SAT 08/09/97 11:18 Page:456
        31 012176   000010 036003                    ADLQ    8,DU
        31 012177   000572 756000 0                  STQ     P$+1
        31 012200   000572 630400 0                  EPPR0   P$+1
        31 012201   000005 631400 32                 EPPR1   5
        31 012202   000000 701000 xent               TSX1    Z8ED$DISPOSE_ABSSYN_TREE
        31 012203   000000 011000                    NOP     0

     2308    23485
     2309    23486    6                ALTRETURN;

  23486 31 012204   000302 221200 0                  LDX1  ! ITEM$+1
        31 012205   000000 702211                    TSX2  ! 0,X1

     2310    23487    6              END;
     2311    23488
     2312    23489    5            VALUE$ = CDECL$ -> LX_REC_DECL.P.VALUE$;

  23489 31 012206   000010 236100                    LDQ     8,,PR0
        31 012207   000303 475400 0                  LDP5    @VALUE$
        31 012210   500000 756100                    STQ     0,,PR5

     2313    23490
     2314    23491    5            RETURN;

  23491 31 012211   000302 221200 0                  LDX1  ! ITEM$+1
        31 012212   000001 702211                    TSX2  ! 1,X1

     2315    23492
     2316    23493    5          CASE (ELSE);

     2317    23494    5            CALL Z8AE$ERROR (%E$UNEXPECTED_CASE);

  23494 31 012213   000030 630400 32                 EPPR0   24
        31 012214   000005 631400 32                 EPPR1   5
        31 012215   000000 701000 xent               TSX1    Z8AE$ERROR
        31 012216   000000 011000                    NOP     0

PL6.E3A0      #001=Z8DR$RECORD_DECL File=Z8DR.:Z8A6TSI                           SAT 08/09/97 11:18 Page:457
     2318    23495    5            ALTRETURN;

  23495 31 012217   000302 221200 0                  LDX1  ! ITEM$+1
        31 012220   000000 702211                    TSX2  ! 0,X1

     2319    23496
     2320    23497    5        END; /* Case */

     2321    23498
     2322    23499    4   END VALUE_CONTEXT_CHECK;
     2323    23500        %EJECT;
PL6.E3A0      #001=Z8DR$RECORD_DECL File=Z8DR.:Z8A6TSI                           SAT 08/09/97 11:18 Page:458
     2324    23501        /*==============*/
     2325    23502    3     VALIDATE_VALUE: PROC;

  23502 31 012221   000306 741200 0     VALIDATE_VA* STX1  ! COLUMN+1

     2326    23503        /*==============*/
     2327    23504
     2328    23505    4   DCL DATA_NAME$                PTR;
     2329    23506    4   DCL VALUE$                    PTR;
     2330    23507    4   DCL LINE#                     SBIN WORD;
     2331    23508    4   DCL COLUMN#                   SBIN WORD;
     2332    23509    4   DCL STK_OBJ                   SBIN WORD;
     2333    23510    4   DCL I                         SBIN WORD;
     2334    23511
     2335    23512
     2336    23513
     2337    23514    4      CALL VALUE_CONTEXT_CHECK (VALUE$)

  23514 31 012222   000300 236000 32                 LDQ     192
        31 012223   000303 756000 0                  STQ     @VALUE$
        31 012224   011662 701000 31                 TSX1    VALUE_CONTEXT_CHECK
        31 012225   012227 702000 31                 TSX2    s:23517
        31 012226   012231 710000 31                 TRA     s:23520

     2338    23515    4        WHENALTRETURN
     2339    23516    5          DO;

     2340    23517    5            RETURN;

  23517 31 012227   000306 221200 0                  LDX1  ! COLUMN+1
        31 012230   000001 702211                    TSX2  ! 1,X1

     2341    23518    5          END;
     2342    23519
     2343    23520    4      IF REDUCED_DATA.USAGE.TYPE = %RSV_WRD_INDEX THEN

  23520 31 012231   000033 235000 0                  LDA     REDUCED_DATA
PL6.E3A0      #001=Z8DR$RECORD_DECL File=Z8DR.:Z8A6TSI                           SAT 08/09/97 11:18 Page:459
        31 012232   000365 115007                    CMPA    245,DL
        31 012233   012272 601000 31                 TNZ     s:23565

     2344    23521    5        DO;

     2345    23522    5          DATA_NAME$ = CDECL$ -> LX_REC_DECL.P.DATA_NAME$;

  23522 31 012234   000160 470400 0                  LDP0    CDECL$
        31 012235   000002 236100                    LDQ     2,,PR0
        31 012236   000307 756000 0                  STQ     DATA_NAME$

     2346    23523
     2347    23524               %CONDITIONAL_ERROR (@LX_ITEM$ = DATA_NAME$,
     2348    23525                                   @ERROR#   = %E$NO_VALUE_FOR_INDEX,
     2349    23526                                   @LINE     = DATA_NAME$ -> LX_ITEM.LINE,
     2350    23527                                   @COLUMN   = DATA_NAME$ -> LX_ITEM.COLUMN);

  23537 31 012237   000307 471400 0                  LDP1    DATA_NAME$
        31 012240   100000 236100                    LDQ     0,,PR1
        31 012241   400000 316007                    CANQ    -131072,DL
        31 012242   012261 601000 31                 TNZ     s:23560

  23539 31 012243   000307 236000 0                  LDQ     DATA_NAME$
        31 012244   000006 036003                    ADLQ    6,DU
        31 012245   000574 756000 0                  STQ     P$+3
        31 012246   000307 236000 0                  LDQ     DATA_NAME$
        31 012247   000005 036003                    ADLQ    5,DU
        31 012250   000302 235000 32                 LDA     194
        31 012251   000572 757000 0                  STAQ    P$+1
        31 012252   000572 630400 0                  EPPR0   P$+1
        31 012253   000001 631400 32                 EPPR1   1
        31 012254   000000 701000 xent               TSX1    Z8AE$ERROR
        31 012255   000000 011000                    NOP     0

  23548 31 012256   000307 470400 0                  LDP0    DATA_NAME$
        31 012257   400000 236007                    LDQ     -131072,DL
        31 012260   000000 256100                    ORSQ    0,,PR0
PL6.E3A0      #001=Z8DR$RECORD_DECL File=Z8DR.:Z8A6TSI                           SAT 08/09/97 11:18 Page:460

     2351    23557
     2352    23558               %DELETE_CLAUSE (@CLAUSE$ = VALUE$);

  23560 31 012261   000160 236000 0                  LDQ     CDECL$
        31 012262   000010 036003                    ADLQ    8,DU
        31 012263   000572 756000 0                  STQ     P$+1
        31 012264   000572 630400 0                  EPPR0   P$+1
        31 012265   000005 631400 32                 EPPR1   5
        31 012266   000000 701000 xent               TSX1    Z8ED$DISPOSE_ABSSYN_TREE
        31 012267   000000 011000                    NOP     0

     2353    23563    5          RETURN;

  23563 31 012270   000306 221200 0                  LDX1  ! COLUMN+1
        31 012271   000001 702211                    TSX2  ! 1,X1

     2354    23564    5        END;
     2355    23565    4      LINE#   = VALUE$ -> LX_LIST.HEAD$ -> LX_LIST.HEAD$ -> LX_ITEM.LINE;

  23565 31 012272   000310 470400 0                  LDP0    VALUE$
        31 012273   000004 471500                    LDP1    4,,PR0
        31 012274   100004 473500                    LDP3    4,,PR1
        31 012275   300005 235100                    LDA     5,,PR3
        31 012276   000311 755000 0                  STA     LINE#

     2356    23566    4      COLUMN# = VALUE$ -> LX_LIST.HEAD$ -> LX_LIST.HEAD$ -> LX_ITEM.COLUMN;

  23566 31 012277   000004 471500                    LDP1    4,,PR0
        31 012300   100004 473500                    LDP3    4,,PR1
        31 012301   300006 235100                    LDA     6,,PR3
        31 012302   000312 755000 0                  STA     COLUMN#

     2357    23567
     2358    23568    4      IF VALUE$ -> LX_LIST.COUNT > 1 THEN

  23568 31 012303   000002 235100                    LDA     2,,PR0
PL6.E3A0      #001=Z8DR$RECORD_DECL File=Z8DR.:Z8A6TSI                           SAT 08/09/97 11:18 Page:461
        31 012304   000001 115007                    CMPA    1,DL
        31 012305   012335 604400 31                 TMOZ    s:23607

     2359    23569    5        DO;

     2360    23570               /* It is not a condition name yet there is a THRU clause */
     2361    23571    5          CALL Z8ED$DISPOSE_ABSSYN_TREE (VALUE$ -> LX_LIST.LINK);

  23571 31 012306   000310 236000 0                  LDQ     VALUE$
        31 012307   000007 036003                    ADLQ    7,DU
        31 012310   000572 756000 0                  STQ     P$+1
        31 012311   000572 630400 0                  EPPR0   P$+1
        31 012312   000005 631400 32                 EPPR1   5
        31 012313   000000 701000 xent               TSX1    Z8ED$DISPOSE_ABSSYN_TREE
        31 012314   000000 011000                    NOP     0

     2362    23572               %CONDITIONAL_ERROR (@ERROR#   = %E$MULTIPLE_VALUES_ONLY_FOR_88,
     2363    23573                                   @LX_ITEM$ = VALUE$ -> LX_LIST.HEAD$ -> LX_LIST.HEAD$,
     2364    23574                                   @LINE     = LINE#,
     2365    23575                                   @COLUMN   = COLUMN#);

  23585 31 012315   000310 470400 0                  LDP0    VALUE$
        31 012316   000004 471500                    LDP1    4,,PR0
        31 012317   100004 473500                    LDP3    4,,PR1
        31 012320   300000 236100                    LDQ     0,,PR3
        31 012321   400000 316007                    CANQ    -131072,DL
        31 012322   012367 601000 31                 TNZ     s:23647

  23587 31 012323   000304 630400 32                 EPPR0   196
        31 012324   000001 631400 32                 EPPR1   1
        31 012325   000000 701000 xent               TSX1    Z8AE$ERROR
        31 012326   000000 011000                    NOP     0

  23596 31 012327   000310 470400 0                  LDP0    VALUE$
        31 012330   000004 471500                    LDP1    4,,PR0
        31 012331   100004 473500                    LDP3    4,,PR1
        31 012332   400000 236007                    LDQ     -131072,DL
PL6.E3A0      #001=Z8DR$RECORD_DECL File=Z8DR.:Z8A6TSI                           SAT 08/09/97 11:18 Page:462
        31 012333   300000 256100                    ORSQ    0,,PR3

     2366    23605    5        END;

  23605 31 012334   012367 710000 31                 TRA     s:23647

     2367    23606    4      ELSE
     2368    23607    4        IF VALUE$ -> LX_LIST.HEAD$ -> LX_LIST.HEAD$ ->

  23607 31 012335   000004 471500                    LDP1    4,,PR0
        31 012336   100004 473500                    LDP3    4,,PR1
        31 012337   300007 236100                    LDQ     7,,PR3
        31 012340   000000 116000 32                 CMPQ    0
        31 012341   012367 600000 31                 TZE     s:23647

     2369    23608    4        LX_ITEM.LINK ~= ADDR(NIL) THEN
     2370    23609    5          DO;

     2371    23610                 /* It is not a Level 88, yet there is a thru clause */
     2372    23611    5            CALL Z8ED$DISPOSE_ABSSYN_TREE (VALUE$ -> LX_LIST.HEAD$ -> LX_ITEM.LINK);

  23611 31 012342   100007 634500                    EPPR4   7,,PR1
        31 012343   000572 454400 0                  STP4    P$+1
        31 012344   000572 630400 0                  EPPR0   P$+1
        31 012345   000005 631400 32                 EPPR1   5
        31 012346   000000 701000 xent               TSX1    Z8ED$DISPOSE_ABSSYN_TREE
        31 012347   000000 011000                    NOP     0

     2373    23612                 %CONDITIONAL_ERROR (@ERROR#   = %E$THRU_CLAUSE_BUT_NOT_88,
     2374    23613                                     @LX_ITEM$ = VALUE$ -> LX_LIST.HEAD$ -> LX_LIST.HEAD$,
     2375    23614                                     @LINE     = LINE#,
     2376    23615                                     @COLUMN   = COLUMN#);

  23625 31 012350   000310 470400 0                  LDP0    VALUE$
        31 012351   000004 471500                    LDP1    4,,PR0
        31 012352   100004 473500                    LDP3    4,,PR1
        31 012353   300000 236100                    LDQ     0,,PR3
PL6.E3A0      #001=Z8DR$RECORD_DECL File=Z8DR.:Z8A6TSI                           SAT 08/09/97 11:18 Page:463
        31 012354   400000 316007                    CANQ    -131072,DL
        31 012355   012367 601000 31                 TNZ     s:23647

  23627 31 012356   000310 630400 32                 EPPR0   200
        31 012357   000001 631400 32                 EPPR1   1
        31 012360   000000 701000 xent               TSX1    Z8AE$ERROR
        31 012361   000000 011000                    NOP     0

  23636 31 012362   000310 470400 0                  LDP0    VALUE$
        31 012363   000004 471500                    LDP1    4,,PR0
        31 012364   100004 473500                    LDP3    4,,PR1
        31 012365   400000 236007                    LDQ     -131072,DL
        31 012366   300000 256100                    ORSQ    0,,PR3

     2377    23645    5          END;

     2378    23646
     2379    23647    4        IF COMCOM.OB.FIPS.LEVEL >= %HIGH_LEV THEN

  23647 31 012367   000036 720000 xsym               LXL0    COMCOM+30
        31 012370   012445 604400 31                 TMOZ    s:23697

     2380    23648    4          IF CDECL$ -> LX_REC_DECL.P.EXTERNAL$ ~= ADDR(NIL)  OR

  23648 31 012371   000160 470400 0                  LDP0    CDECL$
        31 012372   000015 236100                    LDQ     13,,PR0
        31 012373   000000 116000 32                 CMPQ    0
        31 012374   012410 601000 31                 TNZ     s:23654
        31 012375   000005 236000 xsym               LDQ     HIER_STK+5
        31 012376   000000 116000 32                 CMPQ    0
        31 012377   012445 600000 31                 TZE     s:23697
        31 012400   000005 471400 xsym               LDP1    HIER_STK+5
        31 012401   100004 473500                    LDP3    4,,PR1
        31 012402   300003 236100                    LDQ     3,,PR3
        31 012403   000004 316003                    CANQ    4,DU
        31 012404   012445 600000 31                 TZE     s:23697
        31 012405   000034 235000 0                  LDA     REDUCED_DATA+1
PL6.E3A0      #001=Z8DR$RECORD_DECL File=Z8DR.:Z8A6TSI                           SAT 08/09/97 11:18 Page:464
        31 012406   000001 115007                    CMPA    1,DL
        31 012407   012445 600000 31                 TZE     s:23697

     2381    23649    4          ( HIER_STK.QLT$(1) ~= ADDR(NIL)   AND
     2382    23650    4          HIER_STK.QLT$(1) -> QLT.ST$ -> VARIABLE.B.EXTERNAL  AND
     2383    23651    4          REDUCED_DATA.LEVEL.CURRENT ~= %LEVEL_01 )  THEN
     2384    23652    5            DO;

     2385    23653                   /* VALUE clause for external data is not allowed */
     2386    23654    5              DATA_NAME$ = CDECL$ -> LX_REC_DECL.P.DATA_NAME$;

  23654 31 012410   000002 236100                    LDQ     2,,PR0
        31 012411   000307 756000 0                  STQ     DATA_NAME$

     2387    23655
     2388    23656                   %CONDITIONAL_ERROR (@LX_ITEM$ = DATA_NAME$,
     2389    23657                                       @ERROR#   = %E$NO_VALUE_FOR_EXTERNAL,
     2390    23658                                       @LINE     = DATA_NAME$ -> LX_ITEM.LINE,
     2391    23659                                       @COLUMN   = DATA_NAME$ -> LX_ITEM.COLUMN);

  23669 31 012412   000307 471400 0                  LDP1    DATA_NAME$
        31 012413   100000 236100                    LDQ     0,,PR1
        31 012414   400000 316007                    CANQ    -131072,DL
        31 012415   012434 601000 31                 TNZ     s:23692

  23671 31 012416   000307 236000 0                  LDQ     DATA_NAME$
        31 012417   000006 036003                    ADLQ    6,DU
        31 012420   000574 756000 0                  STQ     P$+3
        31 012421   000307 236000 0                  LDQ     DATA_NAME$
        31 012422   000005 036003                    ADLQ    5,DU
        31 012423   000314 235000 32                 LDA     204
        31 012424   000572 757000 0                  STAQ    P$+1
        31 012425   000572 630400 0                  EPPR0   P$+1
        31 012426   000001 631400 32                 EPPR1   1
        31 012427   000000 701000 xent               TSX1    Z8AE$ERROR
        31 012430   000000 011000                    NOP     0

PL6.E3A0      #001=Z8DR$RECORD_DECL File=Z8DR.:Z8A6TSI                           SAT 08/09/97 11:18 Page:465
  23680 31 012431   000307 470400 0                  LDP0    DATA_NAME$
        31 012432   400000 236007                    LDQ     -131072,DL
        31 012433   000000 256100                    ORSQ    0,,PR0

     2392    23689
     2393    23690                   %DELETE_CLAUSE (@CLAUSE$ = VALUE$);

  23692 31 012434   000160 236000 0                  LDQ     CDECL$
        31 012435   000010 036003                    ADLQ    8,DU
        31 012436   000572 756000 0                  STQ     P$+1
        31 012437   000572 630400 0                  EPPR0   P$+1
        31 012440   000005 631400 32                 EPPR1   5
        31 012441   000000 701000 xent               TSX1    Z8ED$DISPOSE_ABSSYN_TREE
        31 012442   000000 011000                    NOP     0

     2394    23695    5              RETURN;

  23695 31 012443   000306 221200 0                  LDX1  ! COLUMN+1
        31 012444   000001 702211                    TSX2  ! 1,X1

     2395    23696    5            END;
     2396    23697    4      IF REDUCED_DATA.LEVEL.CURRENT <= REDUCED_DATA.LEVEL.PREVIOUS

  23697 31 012445   000034 236000 0                  LDQ     REDUCED_DATA+1
        31 012446   000035 116000 0                  CMPQ    REDUCED_DATA+2
        31 012447   012455 605400 31                 TPNZ    s:23701

     2397    23698    4        THEN
     2398    23699    4          CALL FIND_HIER_INDEX(REDUCED_DATA.LEVEL.CURRENT,STK_OBJ);

  23699 31 012450   000316 237000 32                 LDAQ    206
        31 012451   000406 757000 0                  STAQ    LINE#+2
        31 012452   016705 701000 31                 TSX1    FIND_HIER_INDEX
        31 012453   000000 011000                    NOP     0
        31 012454   012460 710000 31                 TRA     s:23703

     2399    23700    4        ELSE
PL6.E3A0      #001=Z8DR$RECORD_DECL File=Z8DR.:Z8A6TSI                           SAT 08/09/97 11:18 Page:466
     2400    23701    4          STK_OBJ = HIER_STK_PTR + 1;

  23701 31 012455   000000 235000 xsym               LDA     HIER_STK_PTR
        31 012456   000001 035007                    ADLA    1,DL
        31 012457   000313 755000 0                  STA     STK_OBJ

     2401    23702
     2402    23703    5      DO I = 1 TO STK_OBJ - 1;

  23703 31 012460   000001 235007                    LDA     1,DL
        31 012461   000314 755000 0                  STA     I
        31 012462   012506 710000 31                 TRA     s:23713+1

     2403    23704    5        IF HIER_STK.B.VALUE_PRESENTED(I) THEN

  23704 31 012463   000314 236000 0                  LDQ     I
        31 012464   000005 402007                    MPY     5,DL
        31 012465   000002 236006 xsym               LDQ     HIER_STK+2,QL
        31 012466   000020 316007                    CANQ    16,DL
        31 012467   012505 600000 31                 TZE     s:23713

     2404    23705    6          DO;

     2405    23706    6            CALL Z8AE$ERROR (%E$VALUE_REDUNDANT,

  23706 31 012470   000321 630400 32                 EPPR0   209
        31 012471   000001 631400 32                 EPPR1   1
        31 012472   000000 701000 xent               TSX1    Z8AE$ERROR
        31 012473   000000 011000                    NOP     0

     2406    23707    6                             LINE#,
     2407    23708    6                             COLUMN#);
     2408    23709    6            CALL Z8ED$DISPOSE_ABSSYN_TREE (CDECL$ -> LX_REC_DECL.P.VALUE$);

  23709 31 012474   000160 236000 0                  LDQ     CDECL$
        31 012475   000010 036003                    ADLQ    8,DU
        31 012476   000572 756000 0                  STQ     P$+1
PL6.E3A0      #001=Z8DR$RECORD_DECL File=Z8DR.:Z8A6TSI                           SAT 08/09/97 11:18 Page:467
        31 012477   000572 630400 0                  EPPR0   P$+1
        31 012500   000005 631400 32                 EPPR1   5
        31 012501   000000 701000 xent               TSX1    Z8ED$DISPOSE_ABSSYN_TREE
        31 012502   000000 011000                    NOP     0

     2409    23710
     2410    23711    6            RETURN;

  23711 31 012503   000306 221200 0                  LDX1  ! COLUMN+1
        31 012504   000001 702211                    TSX2  ! 1,X1

     2411    23712    6          END;
     2412    23713    5      END;

  23713 31 012505   000314 054000 0                  AOS     I
        31 012506   000314 236000 0                  LDQ     I
        31 012507   000313 116000 0                  CMPQ    STK_OBJ
        31 012510   012463 604000 31                 TMI     s:23704

     2413    23714
     2414    23715    4      CALL VALUE_IS_LITERAL (VALUE$ -> LX_LIST.HEAD$ -> LX_LIST.HEAD$);

  23715 31 012511   000310 470400 0                  LDP0    VALUE$
        31 012512   000004 471500                    LDP1    4,,PR0
        31 012513   100004 633500                    EPPR3   4,,PR1
        31 012514   000236 453400 0                  STP3    @VALUE$
        31 012515   005301 701000 31                 TSX1    VALUE_IS_LITERAL
        31 012516   000000 011000                    NOP     0

     2415    23716
     2416    23717    4   END VALIDATE_VALUE;

  23717 31 012517   000306 221200 0                  LDX1  ! COLUMN+1
        31 012520   000001 702211                    TSX2  ! 1,X1

     2417    23718        %EJECT;
PL6.E3A0      #001=Z8DR$RECORD_DECL File=Z8DR.:Z8A6TSI                           SAT 08/09/97 11:18 Page:468
     2418    23719        /*===============*/
     2419    23720    3     VALIDATE_OCCURS: PROC;

  23720 31 012521   000315 741200 0     VALIDATE_OC* STX1  ! I+1

     2420    23721        /*===============*/
     2421    23722
     2422    23723    4   DCL OCCURS$                   PTR;
     2423    23724
     2424    23725
     2425    23726
     2426    23727    5      DO CASE (O1COM.LEVEL_NO);

  23727 31 012522   000005 235000 xsym               LDA     O1COM+5
        31 012523   000131 115007                    CMPA    89,DL
        31 012524   012526 602005 31                 TNC     s:23727+4,AL
        31 012525   012712 710000 31                 TRA     s:23770
        31 012526   012712 710000 31                 TRA     s:23770
        31 012527   012657 710000 31                 TRA     s:23729
        31 012530   012712 710000 31                 TRA     s:23770
        31 012531   012712 710000 31                 TRA     s:23770
        31 012532   012712 710000 31                 TRA     s:23770
        31 012533   012712 710000 31                 TRA     s:23770
        31 012534   012712 710000 31                 TRA     s:23770
        31 012535   012712 710000 31                 TRA     s:23770
        31 012536   012712 710000 31                 TRA     s:23770
        31 012537   012712 710000 31                 TRA     s:23770
        31 012540   012712 710000 31                 TRA     s:23770
        31 012541   012712 710000 31                 TRA     s:23770
        31 012542   012712 710000 31                 TRA     s:23770
        31 012543   012712 710000 31                 TRA     s:23770
        31 012544   012712 710000 31                 TRA     s:23770
        31 012545   012712 710000 31                 TRA     s:23770
        31 012546   012712 710000 31                 TRA     s:23770
        31 012547   012712 710000 31                 TRA     s:23770
        31 012550   012712 710000 31                 TRA     s:23770
        31 012551   012712 710000 31                 TRA     s:23770
PL6.E3A0      #001=Z8DR$RECORD_DECL File=Z8DR.:Z8A6TSI                           SAT 08/09/97 11:18 Page:469
        31 012552   012712 710000 31                 TRA     s:23770
        31 012553   012712 710000 31                 TRA     s:23770
        31 012554   012712 710000 31                 TRA     s:23770
        31 012555   012712 710000 31                 TRA     s:23770
        31 012556   012712 710000 31                 TRA     s:23770
        31 012557   012712 710000 31                 TRA     s:23770
        31 012560   012712 710000 31                 TRA     s:23770
        31 012561   012712 710000 31                 TRA     s:23770
        31 012562   012712 710000 31                 TRA     s:23770
        31 012563   012712 710000 31                 TRA     s:23770
        31 012564   012712 710000 31                 TRA     s:23770
        31 012565   012712 710000 31                 TRA     s:23770
        31 012566   012712 710000 31                 TRA     s:23770
        31 012567   012712 710000 31                 TRA     s:23770
        31 012570   012712 710000 31                 TRA     s:23770
        31 012571   012712 710000 31                 TRA     s:23770
        31 012572   012712 710000 31                 TRA     s:23770
        31 012573   012712 710000 31                 TRA     s:23770
        31 012574   012712 710000 31                 TRA     s:23770
        31 012575   012712 710000 31                 TRA     s:23770
        31 012576   012712 710000 31                 TRA     s:23770
        31 012577   012712 710000 31                 TRA     s:23770
        31 012600   012712 710000 31                 TRA     s:23770
        31 012601   012712 710000 31                 TRA     s:23770
        31 012602   012712 710000 31                 TRA     s:23770
        31 012603   012712 710000 31                 TRA     s:23770
        31 012604   012712 710000 31                 TRA     s:23770
        31 012605   012712 710000 31                 TRA     s:23770
        31 012606   012712 710000 31                 TRA     s:23770
        31 012607   012712 710000 31                 TRA     s:23770
        31 012610   012712 710000 31                 TRA     s:23770
        31 012611   012712 710000 31                 TRA     s:23770
        31 012612   012712 710000 31                 TRA     s:23770
        31 012613   012712 710000 31                 TRA     s:23770
        31 012614   012712 710000 31                 TRA     s:23770
        31 012615   012712 710000 31                 TRA     s:23770
        31 012616   012712 710000 31                 TRA     s:23770
PL6.E3A0      #001=Z8DR$RECORD_DECL File=Z8DR.:Z8A6TSI                           SAT 08/09/97 11:18 Page:470
        31 012617   012712 710000 31                 TRA     s:23770
        31 012620   012712 710000 31                 TRA     s:23770
        31 012621   012712 710000 31                 TRA     s:23770
        31 012622   012712 710000 31                 TRA     s:23770
        31 012623   012712 710000 31                 TRA     s:23770
        31 012624   012712 710000 31                 TRA     s:23770
        31 012625   012712 710000 31                 TRA     s:23770
        31 012626   012712 710000 31                 TRA     s:23770
        31 012627   012712 710000 31                 TRA     s:23770
        31 012630   012657 710000 31                 TRA     s:23729
        31 012631   012712 710000 31                 TRA     s:23770
        31 012632   012712 710000 31                 TRA     s:23770
        31 012633   012712 710000 31                 TRA     s:23770
        31 012634   012712 710000 31                 TRA     s:23770
        31 012635   012712 710000 31                 TRA     s:23770
        31 012636   012712 710000 31                 TRA     s:23770
        31 012637   012712 710000 31                 TRA     s:23770
        31 012640   012712 710000 31                 TRA     s:23770
        31 012641   012712 710000 31                 TRA     s:23770
        31 012642   012712 710000 31                 TRA     s:23770
        31 012643   012657 710000 31                 TRA     s:23729
        31 012644   012712 710000 31                 TRA     s:23770
        31 012645   012712 710000 31                 TRA     s:23770
        31 012646   012712 710000 31                 TRA     s:23770
        31 012647   012712 710000 31                 TRA     s:23770
        31 012650   012712 710000 31                 TRA     s:23770
        31 012651   012712 710000 31                 TRA     s:23770
        31 012652   012712 710000 31                 TRA     s:23770
        31 012653   012712 710000 31                 TRA     s:23770
        31 012654   012712 710000 31                 TRA     s:23770
        31 012655   012712 710000 31                 TRA     s:23770
        31 012656   012657 710000 31                 TRA     s:23729

     2427    23728    5        CASE(%LEVEL_01, %LEVEL_66, %LEVEL_77, %LEVEL_88);

     2428    23729    5          OCCURS$ = CDECL$ -> LX_REC_DECL.P.OCCURS$ ->

PL6.E3A0      #001=Z8DR$RECORD_DECL File=Z8DR.:Z8A6TSI                           SAT 08/09/97 11:18 Page:471
  23729 31 012657   000160 470400 0                  LDP0    CDECL$
        31 012660   000007 471500                    LDP1    7,,PR0
        31 012661   100004 473500                    LDP3    4,,PR1
        31 012662   300004 236100                    LDQ     4,,PR3
        31 012663   000316 756000 0                  STQ     OCCURS$

     2429    23730    5                    LX_LIST.HEAD$ -> LX_LIST.HEAD$;
     2430    23731
     2431    23732               %CONDITIONAL_ERROR (@LX_ITEM$ = OCCURS$,
     2432    23733                                   @ERROR#   = %E$OCCURS_ON_LEVEL_1,
     2433    23734                                   @LINE     = OCCURS$ -> LX_ITEM.LINE,
     2434    23735                                   @COLUMN   = OCCURS$ -> LX_ITEM.COLUMN);

  23745 31 012664   000316 474400 0                  LDP4    OCCURS$
        31 012665   400000 236100                    LDQ     0,,PR4
        31 012666   400000 316007                    CANQ    -131072,DL
        31 012667   012706 601000 31                 TNZ     s:23766

  23747 31 012670   000316 236000 0                  LDQ     OCCURS$
        31 012671   000006 036003                    ADLQ    6,DU
        31 012672   000574 756000 0                  STQ     P$+3
        31 012673   000316 236000 0                  LDQ     OCCURS$
        31 012674   000005 036003                    ADLQ    5,DU
        31 012675   000325 235000 32                 LDA     213
        31 012676   000572 757000 0                  STAQ    P$+1
        31 012677   000572 630400 0                  EPPR0   P$+1
        31 012700   000001 631400 32                 EPPR1   1
        31 012701   000000 701000 xent               TSX1    Z8AE$ERROR
        31 012702   000000 011000                    NOP     0

  23756 31 012703   000316 470400 0                  LDP0    OCCURS$
        31 012704   400000 236007                    LDQ     -131072,DL
        31 012705   000000 256100                    ORSQ    0,,PR0

     2435    23765
     2436    23766    5          REDUCED_DATA.LEVEL.CURRENT = %LEVEL_01;

PL6.E3A0      #001=Z8DR$RECORD_DECL File=Z8DR.:Z8A6TSI                           SAT 08/09/97 11:18 Page:472
  23766 31 012706   000001 235007                    LDA     1,DL
        31 012707   000034 755000 0                  STA     REDUCED_DATA+1

     2437    23767    5          O1COM.LEVEL_NO             = %LEVEL_01;

  23767 31 012710   000005 755000 xsym               STA     O1COM+5
        31 012711   012744 710000 31                 TRA     s:23783

     2438    23768
     2439    23769    5        CASE(ELSE);

     2440    23770    5          OCCURS$ = CDECL$ -> LX_REC_DECL.P.OCCURS$;

  23770 31 012712   000160 470400 0                  LDP0    CDECL$
        31 012713   000007 236100                    LDQ     7,,PR0
        31 012714   000316 756000 0                  STQ     OCCURS$

     2441    23771    5          IF OCCURS$ -> LX_LIST.HEAD$ -> LX_LIST.COUNT > 1

  23771 31 012715   000316 471400 0                  LDP1    OCCURS$
        31 012716   100004 473500                    LDP3    4,,PR1
        31 012717   300002 235100                    LDA     2,,PR3
        31 012720   000001 115007                    CMPA    1,DL
        31 012721   012744 604400 31                 TMOZ    s:23783
        31 012722   000055 236000 0                  LDQ     REDUCED_DATA+18
        31 012723   000000 116000 32                 CMPQ    0
        31 012724   012744 601000 31                 TNZ     s:23783

     2442    23772    5            AND REDUCED_DATA.OCCURS.DEPENDING$ = ADDR(NIL) THEN
     2443    23773    6            DO;

     2444    23774    6              OCCURS$ -> LX_LIST.HEAD$ -> LX_LIST.COUNT = 1;

  23774 31 012725   000001 235007                    LDA     1,DL
        31 012726   300002 755100                    STA     2,,PR3

     2445    23775    6              OCCURS$ = OCCURS$ -> LX_LIST.HEAD$ -> LX_LIST.TAIL$;
PL6.E3A0      #001=Z8DR$RECORD_DECL File=Z8DR.:Z8A6TSI                           SAT 08/09/97 11:18 Page:473

  23775 31 012727   100004 473500                    LDP3    4,,PR1
        31 012730   300001 236100                    LDQ     1,,PR3
        31 012731   000316 756000 0                  STQ     OCCURS$

     2446    23776
     2447    23777    6              CALL Z8AE$ERROR(%E$DEPENDING_MISSING,

  23777 31 012732   000006 036003                    ADLQ    6,DU
        31 012733   000574 756000 0                  STQ     P$+3
        31 012734   000316 236000 0                  LDQ     OCCURS$
        31 012735   000005 036003                    ADLQ    5,DU
        31 012736   000327 235000 32                 LDA     215
        31 012737   000572 757000 0                  STAQ    P$+1
        31 012740   000572 630400 0                  EPPR0   P$+1
        31 012741   000001 631400 32                 EPPR1   1
        31 012742   000000 701000 xent               TSX1    Z8AE$ERROR
        31 012743   000000 011000                    NOP     0

     2448    23778    6                              OCCURS$ -> LX_ITEM.LINE,
     2449    23779    6                              OCCURS$ -> LX_ITEM.COLUMN);
     2450    23780    6            END;

     2451    23781    5      END;

     2452    23782
     2453    23783    4      IF REDUCED_DATA.OCCURS.DEPENDING$ ~= ADDR(NIL) THEN

  23783 31 012744   000055 236000 0                  LDQ     REDUCED_DATA+18
        31 012745   000000 116000 32                 CMPQ    0
        31 012746   012751 600000 31                 TZE     s:23786

     2454    23784    4        CALL VALIDATE_DEPENDING;

  23784 31 012747   012753 701000 31                 TSX1    VALIDATE_DEPENDING
        31 012750   000000 011000                    NOP     0

PL6.E3A0      #001=Z8DR$RECORD_DECL File=Z8DR.:Z8A6TSI                           SAT 08/09/97 11:18 Page:474
     2455    23785
     2456    23786    4   END VALIDATE_OCCURS;

  23786 31 012751   000315 221200 0                  LDX1  ! I+1
        31 012752   000001 702211                    TSX2  ! 1,X1

     2457    23787        %EJECT;
PL6.E3A0      #001=Z8DR$RECORD_DECL File=Z8DR.:Z8A6TSI                           SAT 08/09/97 11:18 Page:475
     2458    23788        /*==================*/
     2459    23789    3     VALIDATE_DEPENDING: PROC;

  23789 31 012753   000317 741200 0     VALIDATE_DE* STX1  ! OCCURS$+1

     2460    23790        /*==================*/
     2461    23791
     2462    23792
     2463    23793    4   DCL OCCURS$                   PTR;
     2464    23794    4   DCL TEMP                      SBIN WORD;
     2465    23795
     2466    23796    4      OCCURS$ = CDECL$ -> LX_REC_DECL.P.OCCURS$;

  23796 31 012754   000160 470400 0                  LDP0    CDECL$
        31 012755   000007 236100                    LDQ     7,,PR0
        31 012756   000320 756000 0                  STQ     OCCURS$

     2467    23797
     2468    23798    4      IF OCCURS$ -> LX_LIST.HEAD$ -> LX_LIST.COUNT = 1 THEN

  23798 31 012757   000320 471400 0                  LDP1    OCCURS$
        31 012760   100004 473500                    LDP3    4,,PR1
        31 012761   300002 235100                    LDA     2,,PR3
        31 012762   000001 115007                    CMPA    1,DL
        31 012763   013007 601000 31                 TNZ     s:23839

     2469    23799    5        DO;

     2470    23800    5          OCCURS$ = OCCURS$ -> LX_LIST.HEAD$ -> LX_LIST.HEAD$;

  23800 31 012764   300004 236100                    LDQ     4,,PR3
        31 012765   000320 756000 0                  STQ     OCCURS$

     2471    23801
     2472    23802               %CONDITIONAL_ERROR (@LX_ITEM$ = OCCURS$,
     2473    23803                                   @ERROR#   = %E$DEPENDING_REQUIRES_RANGE,
     2474    23804                                   @LINE     = OCCURS$ -> LX_ITEM.LINE,
PL6.E3A0      #001=Z8DR$RECORD_DECL File=Z8DR.:Z8A6TSI                           SAT 08/09/97 11:18 Page:476
     2475    23805                                   @COLUMN   = OCCURS$ -> LX_ITEM.COLUMN);

  23815 31 012766   000320 471400 0                  LDP1    OCCURS$
        31 012767   100000 236100                    LDQ     0,,PR1
        31 012770   400000 316007                    CANQ    -131072,DL
        31 012771   013005 601000 31                 TNZ     s:23836

  23817 31 012772   000320 236000 0                  LDQ     OCCURS$
        31 012773   000006 036003                    ADLQ    6,DU
        31 012774   000574 756000 0                  STQ     P$+3
        31 012775   000320 236000 0                  LDQ     OCCURS$
        31 012776   000005 036003                    ADLQ    5,DU
        31 012777   000331 235000 32                 LDA     217
        31 013000   000572 757000 0                  STAQ    P$+1
        31 013001   000572 630400 0                  EPPR0   P$+1
        31 013002   000001 631400 32                 EPPR1   1
        31 013003   000000 701000 xent               TSX1    Z8AE$ERROR
        31 013004   000000 011000                    NOP     0

     2476    23835
     2477    23836    5          REDUCED_DATA.OCCURS.INT1 = 1;

  23836 31 013005   000001 235007                    LDA     1,DL
        31 013006   000053 755000 0                  STA     REDUCED_DATA+16

     2478    23837    5        END;

     2479    23838
     2480    23839    4      IF REDUCED_DATA.OCCURS.INT1 >= REDUCED_DATA.OCCURS.INT2 THEN

  23839 31 013007   000053 236000 0                  LDQ     REDUCED_DATA+16
        31 013010   000054 116000 0                  CMPQ    REDUCED_DATA+17
        31 013011   013045 604000 31                 TMI     s:23884

     2481    23840    5        DO;

     2482    23841    5          OCCURS$ = OCCURS$ -> LX_LIST.HEAD$ -> LX_LIST.HEAD$;
PL6.E3A0      #001=Z8DR$RECORD_DECL File=Z8DR.:Z8A6TSI                           SAT 08/09/97 11:18 Page:477

  23841 31 013012   000320 470400 0                  LDP0    OCCURS$
        31 013013   000004 471500                    LDP1    4,,PR0
        31 013014   100004 236100                    LDQ     4,,PR1
        31 013015   000320 756000 0                  STQ     OCCURS$

     2483    23842
     2484    23843               %CONDITIONAL_ERROR (@LX_ITEM$ = OCCURS$,
     2485    23844                                   @ERROR#   = %E$INT2_LSS_INT1,
     2486    23845                                   @LINE     = OCCURS$ -> LX_ITEM.LINE,
     2487    23846                                   @COLUMN   = OCCURS$ -> LX_ITEM.COLUMN);

  23856 31 013016   000320 470400 0                  LDP0    OCCURS$
        31 013017   000000 236100                    LDQ     0,,PR0
        31 013020   400000 316007                    CANQ    -131072,DL
        31 013021   013040 601000 31                 TNZ     s:23877

  23858 31 013022   000320 236000 0                  LDQ     OCCURS$
        31 013023   000006 036003                    ADLQ    6,DU
        31 013024   000574 756000 0                  STQ     P$+3
        31 013025   000320 236000 0                  LDQ     OCCURS$
        31 013026   000005 036003                    ADLQ    5,DU
        31 013027   000333 235000 32                 LDA     219
        31 013030   000572 757000 0                  STAQ    P$+1
        31 013031   000572 630400 0                  EPPR0   P$+1
        31 013032   000001 631400 32                 EPPR1   1
        31 013033   000000 701000 xent               TSX1    Z8AE$ERROR
        31 013034   000000 011000                    NOP     0

  23867 31 013035   000320 470400 0                  LDP0    OCCURS$
        31 013036   400000 236007                    LDQ     -131072,DL
        31 013037   000000 256100                    ORSQ    0,,PR0

     2488    23876
     2489    23877    5          TEMP = REDUCED_DATA.OCCURS.INT1;

  23877 31 013040   000053 235000 0                  LDA     REDUCED_DATA+16
PL6.E3A0      #001=Z8DR$RECORD_DECL File=Z8DR.:Z8A6TSI                           SAT 08/09/97 11:18 Page:478
        31 013041   000321 755000 0                  STA     TEMP

     2490    23878    5          REDUCED_DATA.OCCURS.INT1 = REDUCED_DATA.OCCURS.INT2;

  23878 31 013042   000054 236000 0                  LDQ     REDUCED_DATA+17
        31 013043   000053 756000 0                  STQ     REDUCED_DATA+16

     2491    23879    5          REDUCED_DATA.OCCURS.INT2 = TEMP;

  23879 31 013044   000054 755000 0                  STA     REDUCED_DATA+17

     2492    23880    5        END;

     2493    23881
     2494    23882    4      /*CALL CHECK_FOR_PREV_DEPENDING;*/;
     2495    23883
     2496    23884    4   END VALIDATE_DEPENDING;

  23884 31 013045   000317 221200 0                  LDX1  ! OCCURS$+1
        31 013046   000001 702211                    TSX2  ! 1,X1

     2497    23885        %EJECT;
PL6.E3A0      #001=Z8DR$RECORD_DECL File=Z8DR.:Z8A6TSI                           SAT 08/09/97 11:18 Page:479
     2498    23886        /*=============*/
     2499    23887    3     VALIDATE_SIGN: PROC;

  23887 31 013047   000322 741200 0     VALIDATE_SI* STX1  ! TEMP+1

     2500    23888        /*=============*/
     2501    23889
     2502    23890    4   DCL SIGN$                     PTR;
     2503    23891
     2504    23892
     2505    23893    5      DO CASE (REDUCED_DATA.USAGE.TYPE);

  23893 31 013050   000033 235000 0                  LDA     REDUCED_DATA
        31 013051   000333 115007                    CMPA    219,DL
        31 013052   013054 602005 31                 TNC     s:23893+4,AL
        31 013053   013412 710000 31                 TRA     s:23902
        31 013054   013456 710000 31                 TRA     s:23952
        31 013055   013412 710000 31                 TRA     s:23902
        31 013056   013412 710000 31                 TRA     s:23902
        31 013057   013412 710000 31                 TRA     s:23902
        31 013060   013412 710000 31                 TRA     s:23902
        31 013061   013412 710000 31                 TRA     s:23902
        31 013062   013412 710000 31                 TRA     s:23902
        31 013063   013412 710000 31                 TRA     s:23902
        31 013064   013412 710000 31                 TRA     s:23902
        31 013065   013412 710000 31                 TRA     s:23902
        31 013066   013412 710000 31                 TRA     s:23902
        31 013067   013412 710000 31                 TRA     s:23902
        31 013070   013412 710000 31                 TRA     s:23902
        31 013071   013412 710000 31                 TRA     s:23902
        31 013072   013412 710000 31                 TRA     s:23902
        31 013073   013412 710000 31                 TRA     s:23902
        31 013074   013412 710000 31                 TRA     s:23902
        31 013075   013412 710000 31                 TRA     s:23902
        31 013076   013412 710000 31                 TRA     s:23902
        31 013077   013412 710000 31                 TRA     s:23902
        31 013100   013412 710000 31                 TRA     s:23902
PL6.E3A0      #001=Z8DR$RECORD_DECL File=Z8DR.:Z8A6TSI                           SAT 08/09/97 11:18 Page:480
        31 013101   013412 710000 31                 TRA     s:23902
        31 013102   013412 710000 31                 TRA     s:23902
        31 013103   013412 710000 31                 TRA     s:23902
        31 013104   013412 710000 31                 TRA     s:23902
        31 013105   013412 710000 31                 TRA     s:23902
        31 013106   013412 710000 31                 TRA     s:23902
        31 013107   013412 710000 31                 TRA     s:23902
        31 013110   013412 710000 31                 TRA     s:23902
        31 013111   013412 710000 31                 TRA     s:23902
        31 013112   013412 710000 31                 TRA     s:23902
        31 013113   013412 710000 31                 TRA     s:23902
        31 013114   013412 710000 31                 TRA     s:23902
        31 013115   013412 710000 31                 TRA     s:23902
        31 013116   013412 710000 31                 TRA     s:23902
        31 013117   013412 710000 31                 TRA     s:23902
        31 013120   013412 710000 31                 TRA     s:23902
        31 013121   013412 710000 31                 TRA     s:23902
        31 013122   013412 710000 31                 TRA     s:23902
        31 013123   013412 710000 31                 TRA     s:23902
        31 013124   013412 710000 31                 TRA     s:23902
        31 013125   013412 710000 31                 TRA     s:23902
        31 013126   013412 710000 31                 TRA     s:23902
        31 013127   013412 710000 31                 TRA     s:23902
        31 013130   013412 710000 31                 TRA     s:23902
        31 013131   013412 710000 31                 TRA     s:23902
        31 013132   013412 710000 31                 TRA     s:23902
        31 013133   013412 710000 31                 TRA     s:23902
        31 013134   013412 710000 31                 TRA     s:23902
        31 013135   013412 710000 31                 TRA     s:23902
        31 013136   013412 710000 31                 TRA     s:23902
        31 013137   013412 710000 31                 TRA     s:23902
        31 013140   013412 710000 31                 TRA     s:23902
        31 013141   013412 710000 31                 TRA     s:23902
        31 013142   013412 710000 31                 TRA     s:23902
        31 013143   013412 710000 31                 TRA     s:23902
        31 013144   013412 710000 31                 TRA     s:23902
        31 013145   013412 710000 31                 TRA     s:23902
PL6.E3A0      #001=Z8DR$RECORD_DECL File=Z8DR.:Z8A6TSI                           SAT 08/09/97 11:18 Page:481
        31 013146   013412 710000 31                 TRA     s:23902
        31 013147   013412 710000 31                 TRA     s:23902
        31 013150   013412 710000 31                 TRA     s:23902
        31 013151   013412 710000 31                 TRA     s:23902
        31 013152   013412 710000 31                 TRA     s:23902
        31 013153   013412 710000 31                 TRA     s:23902
        31 013154   013412 710000 31                 TRA     s:23902
        31 013155   013412 710000 31                 TRA     s:23902
        31 013156   013412 710000 31                 TRA     s:23902
        31 013157   013412 710000 31                 TRA     s:23902
        31 013160   013412 710000 31                 TRA     s:23902
        31 013161   013412 710000 31                 TRA     s:23902
        31 013162   013412 710000 31                 TRA     s:23902
        31 013163   013412 710000 31                 TRA     s:23902
        31 013164   013412 710000 31                 TRA     s:23902
        31 013165   013412 710000 31                 TRA     s:23902
        31 013166   013412 710000 31                 TRA     s:23902
        31 013167   013412 710000 31                 TRA     s:23902
        31 013170   013412 710000 31                 TRA     s:23902
        31 013171   013412 710000 31                 TRA     s:23902
        31 013172   013412 710000 31                 TRA     s:23902
        31 013173   013412 710000 31                 TRA     s:23902
        31 013174   013412 710000 31                 TRA     s:23902
        31 013175   013412 710000 31                 TRA     s:23902
        31 013176   013412 710000 31                 TRA     s:23902
        31 013177   013412 710000 31                 TRA     s:23902
        31 013200   013412 710000 31                 TRA     s:23902
        31 013201   013412 710000 31                 TRA     s:23902
        31 013202   013412 710000 31                 TRA     s:23902
        31 013203   013412 710000 31                 TRA     s:23902
        31 013204   013412 710000 31                 TRA     s:23902
        31 013205   013412 710000 31                 TRA     s:23902
        31 013206   013412 710000 31                 TRA     s:23902
        31 013207   013412 710000 31                 TRA     s:23902
        31 013210   013412 710000 31                 TRA     s:23902
        31 013211   013407 710000 31                 TRA     s:23899
        31 013212   013412 710000 31                 TRA     s:23902
PL6.E3A0      #001=Z8DR$RECORD_DECL File=Z8DR.:Z8A6TSI                           SAT 08/09/97 11:18 Page:482
        31 013213   013412 710000 31                 TRA     s:23902
        31 013214   013412 710000 31                 TRA     s:23902
        31 013215   013412 710000 31                 TRA     s:23902
        31 013216   013412 710000 31                 TRA     s:23902
        31 013217   013412 710000 31                 TRA     s:23902
        31 013220   013407 710000 31                 TRA     s:23899
        31 013221   013407 710000 31                 TRA     s:23899
        31 013222   013407 710000 31                 TRA     s:23899
        31 013223   013412 710000 31                 TRA     s:23902
        31 013224   013412 710000 31                 TRA     s:23902
        31 013225   013407 710000 31                 TRA     s:23899
        31 013226   013412 710000 31                 TRA     s:23902
        31 013227   013412 710000 31                 TRA     s:23902
        31 013230   013412 710000 31                 TRA     s:23902
        31 013231   013412 710000 31                 TRA     s:23902
        31 013232   013412 710000 31                 TRA     s:23902
        31 013233   013412 710000 31                 TRA     s:23902
        31 013234   013412 710000 31                 TRA     s:23902
        31 013235   013412 710000 31                 TRA     s:23902
        31 013236   013412 710000 31                 TRA     s:23902
        31 013237   013412 710000 31                 TRA     s:23902
        31 013240   013412 710000 31                 TRA     s:23902
        31 013241   013412 710000 31                 TRA     s:23902
        31 013242   013412 710000 31                 TRA     s:23902
        31 013243   013412 710000 31                 TRA     s:23902
        31 013244   013412 710000 31                 TRA     s:23902
        31 013245   013412 710000 31                 TRA     s:23902
        31 013246   013412 710000 31                 TRA     s:23902
        31 013247   013412 710000 31                 TRA     s:23902
        31 013250   013412 710000 31                 TRA     s:23902
        31 013251   013412 710000 31                 TRA     s:23902
        31 013252   013412 710000 31                 TRA     s:23902
        31 013253   013412 710000 31                 TRA     s:23902
        31 013254   013412 710000 31                 TRA     s:23902
        31 013255   013412 710000 31                 TRA     s:23902
        31 013256   013412 710000 31                 TRA     s:23902
        31 013257   013412 710000 31                 TRA     s:23902
PL6.E3A0      #001=Z8DR$RECORD_DECL File=Z8DR.:Z8A6TSI                           SAT 08/09/97 11:18 Page:483
        31 013260   013412 710000 31                 TRA     s:23902
        31 013261   013412 710000 31                 TRA     s:23902
        31 013262   013412 710000 31                 TRA     s:23902
        31 013263   013412 710000 31                 TRA     s:23902
        31 013264   013412 710000 31                 TRA     s:23902
        31 013265   013412 710000 31                 TRA     s:23902
        31 013266   013412 710000 31                 TRA     s:23902
        31 013267   013412 710000 31                 TRA     s:23902
        31 013270   013412 710000 31                 TRA     s:23902
        31 013271   013412 710000 31                 TRA     s:23902
        31 013272   013412 710000 31                 TRA     s:23902
        31 013273   013412 710000 31                 TRA     s:23902
        31 013274   013412 710000 31                 TRA     s:23902
        31 013275   013412 710000 31                 TRA     s:23902
        31 013276   013412 710000 31                 TRA     s:23902
        31 013277   013412 710000 31                 TRA     s:23902
        31 013300   013412 710000 31                 TRA     s:23902
        31 013301   013412 710000 31                 TRA     s:23902
        31 013302   013412 710000 31                 TRA     s:23902
        31 013303   013412 710000 31                 TRA     s:23902
        31 013304   013412 710000 31                 TRA     s:23902
        31 013305   013412 710000 31                 TRA     s:23902
        31 013306   013412 710000 31                 TRA     s:23902
        31 013307   013412 710000 31                 TRA     s:23902
        31 013310   013412 710000 31                 TRA     s:23902
        31 013311   013412 710000 31                 TRA     s:23902
        31 013312   013456 710000 31                 TRA     s:23952
        31 013313   013412 710000 31                 TRA     s:23902
        31 013314   013412 710000 31                 TRA     s:23902
        31 013315   013412 710000 31                 TRA     s:23902
        31 013316   013412 710000 31                 TRA     s:23902
        31 013317   013412 710000 31                 TRA     s:23902
        31 013320   013412 710000 31                 TRA     s:23902
        31 013321   013412 710000 31                 TRA     s:23902
        31 013322   013412 710000 31                 TRA     s:23902
        31 013323   013412 710000 31                 TRA     s:23902
        31 013324   013412 710000 31                 TRA     s:23902
PL6.E3A0      #001=Z8DR$RECORD_DECL File=Z8DR.:Z8A6TSI                           SAT 08/09/97 11:18 Page:484
        31 013325   013412 710000 31                 TRA     s:23902
        31 013326   013412 710000 31                 TRA     s:23902
        31 013327   013412 710000 31                 TRA     s:23902
        31 013330   013412 710000 31                 TRA     s:23902
        31 013331   013412 710000 31                 TRA     s:23902
        31 013332   013412 710000 31                 TRA     s:23902
        31 013333   013412 710000 31                 TRA     s:23902
        31 013334   013412 710000 31                 TRA     s:23902
        31 013335   013412 710000 31                 TRA     s:23902
        31 013336   013412 710000 31                 TRA     s:23902
        31 013337   013412 710000 31                 TRA     s:23902
        31 013340   013412 710000 31                 TRA     s:23902
        31 013341   013412 710000 31                 TRA     s:23902
        31 013342   013412 710000 31                 TRA     s:23902
        31 013343   013412 710000 31                 TRA     s:23902
        31 013344   013412 710000 31                 TRA     s:23902
        31 013345   013412 710000 31                 TRA     s:23902
        31 013346   013412 710000 31                 TRA     s:23902
        31 013347   013412 710000 31                 TRA     s:23902
        31 013350   013412 710000 31                 TRA     s:23902
        31 013351   013412 710000 31                 TRA     s:23902
        31 013352   013412 710000 31                 TRA     s:23902
        31 013353   013412 710000 31                 TRA     s:23902
        31 013354   013412 710000 31                 TRA     s:23902
        31 013355   013412 710000 31                 TRA     s:23902
        31 013356   013412 710000 31                 TRA     s:23902
        31 013357   013412 710000 31                 TRA     s:23902
        31 013360   013412 710000 31                 TRA     s:23902
        31 013361   013412 710000 31                 TRA     s:23902
        31 013362   013412 710000 31                 TRA     s:23902
        31 013363   013412 710000 31                 TRA     s:23902
        31 013364   013412 710000 31                 TRA     s:23902
        31 013365   013412 710000 31                 TRA     s:23902
        31 013366   013412 710000 31                 TRA     s:23902
        31 013367   013412 710000 31                 TRA     s:23902
        31 013370   013412 710000 31                 TRA     s:23902
        31 013371   013412 710000 31                 TRA     s:23902
PL6.E3A0      #001=Z8DR$RECORD_DECL File=Z8DR.:Z8A6TSI                           SAT 08/09/97 11:18 Page:485
        31 013372   013412 710000 31                 TRA     s:23902
        31 013373   013412 710000 31                 TRA     s:23902
        31 013374   013412 710000 31                 TRA     s:23902
        31 013375   013412 710000 31                 TRA     s:23902
        31 013376   013412 710000 31                 TRA     s:23902
        31 013377   013412 710000 31                 TRA     s:23902
        31 013400   013412 710000 31                 TRA     s:23902
        31 013401   013412 710000 31                 TRA     s:23902
        31 013402   013412 710000 31                 TRA     s:23902
        31 013403   013412 710000 31                 TRA     s:23902
        31 013404   013412 710000 31                 TRA     s:23902
        31 013405   013412 710000 31                 TRA     s:23902
        31 013406   013456 710000 31                 TRA     s:23952

     2506    23894    5        CASE(%NO_USAGE, %RSV_WRD_EBCDIC, %RSV_WRD_GBCD);

     2507    23895    5          /* Peachy */;
     2508    23896
     2509    23897    5        CASE(%RSV_WRD_COMP, %RSV_WRD_COMP_4, %RSV_WRD_COMP_5,

     2510    23898    5             %RSV_WRD_COMP_8, %RSV_WRD_COMP_3);
     2511    23899    5          REDUCED_DATA.SIGN.TYPE = %SIGN_TYPE_SEPARATE;

  23899 31 013407   000001 236007                    LDQ     1,DL
        31 013410   000040 756000 0                  STQ     REDUCED_DATA+5
        31 013411   013456 710000 31                 TRA     s:23952

     2512    23900
     2513    23901    5        CASE(ELSE);

     2514    23902    5          SIGN$ = CDECL$ -> LX_REC_DECL.P.SIGN$ -> LX_LIST.HEAD$;

  23902 31 013412   000160 470400 0                  LDP0    CDECL$
        31 013413   000011 471500                    LDP1    9,,PR0
        31 013414   100004 236100                    LDQ     4,,PR1
        31 013415   000323 756000 0                  STQ     SIGN$

PL6.E3A0      #001=Z8DR$RECORD_DECL File=Z8DR.:Z8A6TSI                           SAT 08/09/97 11:18 Page:486
     2515    23903
     2516    23904               %CONDITIONAL_ERROR (@ERROR#   = %E$WRONG_SIGN_TYPE,
     2517    23905                                   @LX_ITEM$ = SIGN$,
     2518    23906                                   @LINE     = SIGN$ -> LX_ITEM.LINE,
     2519    23907                                   @COLUMN   = SIGN$ -> LX_ITEM.COLUMN);

  23917 31 013416   000323 473400 0                  LDP3    SIGN$
        31 013417   300000 236100                    LDQ     0,,PR3
        31 013420   400000 316007                    CANQ    -131072,DL
        31 013421   013440 601000 31                 TNZ     s:23940

  23919 31 013422   000323 236000 0                  LDQ     SIGN$
        31 013423   000006 036003                    ADLQ    6,DU
        31 013424   000574 756000 0                  STQ     P$+3
        31 013425   000323 236000 0                  LDQ     SIGN$
        31 013426   000005 036003                    ADLQ    5,DU
        31 013427   000335 235000 32                 LDA     221
        31 013430   000572 757000 0                  STAQ    P$+1
        31 013431   000572 630400 0                  EPPR0   P$+1
        31 013432   000001 631400 32                 EPPR1   1
        31 013433   000000 701000 xent               TSX1    Z8AE$ERROR
        31 013434   000000 011000                    NOP     0

  23928 31 013435   000323 470400 0                  LDP0    SIGN$
        31 013436   400000 236007                    LDQ     -131072,DL
        31 013437   000000 256100                    ORSQ    0,,PR0

     2520    23937
     2521    23938               %DELETE_CLAUSE (@CLAUSE$ = SIGN$);

  23940 31 013440   000160 236000 0                  LDQ     CDECL$
        31 013441   000011 036003                    ADLQ    9,DU
        31 013442   000572 756000 0                  STQ     P$+1
        31 013443   000572 630400 0                  EPPR0   P$+1
        31 013444   000005 631400 32                 EPPR1   5
        31 013445   000000 701000 xent               TSX1    Z8ED$DISPOSE_ABSSYN_TREE
        31 013446   000000 011000                    NOP     0
PL6.E3A0      #001=Z8DR$RECORD_DECL File=Z8DR.:Z8A6TSI                           SAT 08/09/97 11:18 Page:487

     2522    23943
     2523    23944    5          REDUCED_DATA.B.SIGN_PRESENT = FALSE;

  23944 31 013447   000336 236000 32                 LDQ     222
        31 013450   000060 356000 0                  ANSQ    REDUCED_DATA+21

     2524    23945    5          REDUCED_DATA.SIGN.LOCATION  = %SIGN_POS_TRAILING;

  23945 31 013451   000037 450000 0                  STZ     REDUCED_DATA+4

     2525    23946    5          REDUCED_DATA.SIGN.TYPE      = %SIGN_TYPE_SEPARATE;

  23946 31 013452   000001 235007                    LDA     1,DL
        31 013453   000040 755000 0                  STA     REDUCED_DATA+5

     2526    23947    5          REDUCED_DATA.SIGN.LINE      = 0;

  23947 31 013454   000041 450000 0                  STZ     REDUCED_DATA+6

     2527    23948    5          REDUCED_DATA.SIGN.COLUMN    = 0;

  23948 31 013455   000042 450000 0                  STZ     REDUCED_DATA+7

     2528    23949
     2529    23950    5      END; /* Case */

     2530    23951
     2531    23952    4   END VALIDATE_SIGN;

  23952 31 013456   000322 221200 0                  LDX1  ! TEMP+1
        31 013457   000001 702211                    TSX2  ! 1,X1

     2532    23953        %EJECT;
PL6.E3A0      #001=Z8DR$RECORD_DECL File=Z8DR.:Z8A6TSI                           SAT 08/09/97 11:18 Page:488
     2533    23954        /*================*/
     2534    23955    3     NEXT_LEVEL_CHECK: PROC;

  23955 31 013460   000324 741200 0     NEXT_LEVEL_* STX1  ! SIGN$+1

     2535    23956        /*================*/
     2536    23957
     2537    23958    4        DCL LEVEL         SBIN;
     2538    23959    4        DCL L$            PTR;
     2539    23960
     2540    23961
     2541    23962    4        IF NDECL$ = ADDR(NIL) THEN

  23962 31 013461   000161 236000 0                  LDQ     NDECL$
        31 013462   000000 116000 32                 CMPQ    0
        31 013463   013465 601000 31                 TNZ     s:23965

     2542    23963    4          RETURN;

  23963 31 013464   000001 702211                    TSX2  ! 1,X1

     2543    23964
     2544    23965    4        CALL CHARBIN (LEVEL,

  23965 31 013465   000161 470400 0                  LDP0    NDECL$
        31 013466   000001 471500                    LDP1    1,,PR0
        31 013467   100002 473500                    LDP3    2,,PR1
        31 013470   300004 220100                    LDX0    4,,PR3
        31 013471   000000 305540                    DTB
        31 013472   300004 430010                    NDSC9   4,,PR3                   cn=2,s=nosgn,sf=0,n=*X0
        31 013473   000325 000004 0                  NDSC9   LEVEL                    cn=0,s=lsgnf,sf=0,n=4

     2545    23966    4                      NDECL$ -> LX_REC_DECL.P.LEVEL_NO$ ->
     2546    23967    4                      LX_TERMINAL.DNT$ -> DNT.TEXT.NAME);
     2547    23968
     2548    23969    4        IF LEVEL > %LEVEL_01

PL6.E3A0      #001=Z8DR$RECORD_DECL File=Z8DR.:Z8A6TSI                           SAT 08/09/97 11:18 Page:489
  23969 31 013474   000325 235000 0                  LDA     LEVEL
        31 013475   000001 115007                    CMPA    1,DL
        31 013476   013525 604400 31                 TMOZ    s:24010
        31 013477   000062 115007                    CMPA    50,DL
        31 013500   013525 605000 31                 TPL     s:24010

     2549    23970    4        AND LEVEL < 50 THEN
     2550    23971    5          DO;

     2551    23972                 /* OOPS */
     2552    23973    5            L$ = NDECL$ -> LX_REC_DECL.P.LEVEL_NO$;

  23973 31 013501   000001 236100                    LDQ     1,,PR0
        31 013502   000326 756000 0                  STQ     L$

     2553    23974
     2554    23975                 %CONDITIONAL_ERROR (@LX_ITEM$ = L$,
     2555    23976                                     @ERROR#   = %E$ONLY_1_66_77_88,
     2556    23977                                     @LINE     = L$ -> LX_TERMINAL.LINE,
     2557    23978                                     @COLUMN   = L$ -> LX_TERMINAL.COLUMN);

  23988 31 013503   000326 474400 0                  LDP4    L$
        31 013504   400000 236100                    LDQ     0,,PR4
        31 013505   400000 316007                    CANQ    -131072,DL
        31 013506   013525 601000 31                 TNZ     s:24010

  23990 31 013507   000326 236000 0                  LDQ     L$
        31 013510   000006 036003                    ADLQ    6,DU
        31 013511   000574 756000 0                  STQ     P$+3
        31 013512   000326 236000 0                  LDQ     L$
        31 013513   000005 036003                    ADLQ    5,DU
        31 013514   000340 235000 32                 LDA     224
        31 013515   000572 757000 0                  STAQ    P$+1
        31 013516   000572 630400 0                  EPPR0   P$+1
        31 013517   000001 631400 32                 EPPR1   1
        31 013520   000000 701000 xent               TSX1    Z8AE$ERROR
        31 013521   000000 011000                    NOP     0
PL6.E3A0      #001=Z8DR$RECORD_DECL File=Z8DR.:Z8A6TSI                           SAT 08/09/97 11:18 Page:490

  23999 31 013522   000326 470400 0                  LDP0    L$
        31 013523   400000 236007                    LDQ     -131072,DL
        31 013524   000000 256100                    ORSQ    0,,PR0

     2558    24008    5          END;

     2559    24009
     2560    24010    4   END NEXT_LEVEL_CHECK;

  24010 31 013525   000324 221200 0                  LDX1  ! SIGN$+1
        31 013526   000001 702211                    TSX2  ! 1,X1

     2561    24011        %EJECT;
PL6.E3A0      #001=Z8DR$RECORD_DECL File=Z8DR.:Z8A6TSI                           SAT 08/09/97 11:18 Page:491
     2562    24012        /*============*/
     2563    24013    3     RENAMES_THRU: PROC (DN2$, DN3$) ALTRET;

  24013 31 013527   000327 741200 0     RENAMES_THRU STX1  ! L$+1

     2564    24014        /*============*/
     2565    24015
     2566    24016    4        DCL DN2$          PTR;
     2567    24017    4        DCL DN3$          PTR;
     2568    24018
     2569    24019    4        DCL DN2_ST$       PTR;
     2570    24020    4        DCL DN3_ST$       PTR;
     2571    24021    4        DCL TERM2$        PTR;
     2572    24022    4        DCL TERM3$        PTR;
     2573    24023
     2574    24024    4        CALL QUALIFY_VARIABLE (DN2$,

  24024 31 013530   000342 237000 32                 LDAQ    226
        31 013531   000370 757000 0                  STAQ    @QUAL_ID$+1
        31 013532   000330 236000 0                  LDQ     @DN2$
        31 013533   000367 756000 0                  STQ     ST$$+3
        31 013534   016173 701000 31                 TSX1    QUALIFY_VARIABLE
        31 013535   013537 702000 31                 TSX2    s:24029
        31 013536   013541 710000 31                 TRA     s:24032

     2575    24025    4                               HIER_STK.QLT$ (1),
     2576    24026    4                               DN2_ST$)
     2577    24027    4          WHENALTRETURN
     2578    24028    5            DO;

     2579    24029    5              ALTRETURN;

  24029 31 013537   000327 221200 0                  LDX1  ! L$+1
        31 013540   000000 702211                    TSX2  ! 0,X1

     2580    24030    5            END;
     2581    24031
PL6.E3A0      #001=Z8DR$RECORD_DECL File=Z8DR.:Z8A6TSI                           SAT 08/09/97 11:18 Page:492
     2582    24032    4        CALL QUALIFY_VARIABLE (DN3$,

  24032 31 013541   000344 237000 32                 LDAQ    228
        31 013542   000370 757000 0                  STAQ    @QUAL_ID$+1
        31 013543   000331 236000 0                  LDQ     @DN3$
        31 013544   000367 756000 0                  STQ     ST$$+3
        31 013545   016173 701000 31                 TSX1    QUALIFY_VARIABLE
        31 013546   013550 702000 31                 TSX2    s:24037
        31 013547   013552 710000 31                 TRA     s:24040

     2583    24033    4                               HIER_STK.QLT$ (1),
     2584    24034    4                               DN3_ST$)
     2585    24035    4          WHENALTRETURN
     2586    24036    5            DO;

     2587    24037    5              ALTRETURN;

  24037 31 013550   000327 221200 0                  LDX1  ! L$+1
        31 013551   000000 702211                    TSX2  ! 0,X1

     2588    24038    5            END;
     2589    24039
     2590    24040    4        TERM2$ = DN2$ -> LX_LIST.HEAD$;

  24040 31 013552   000330 470400 0                  LDP0    @DN2$
        31 013553   000000 471500                    LDP1    0,,PR0
        31 013554   100004 236100                    LDQ     4,,PR1
        31 013555   000334 756000 0                  STQ     TERM2$

     2591    24041    4        TERM3$ = DN3$ -> LX_LIST.HEAD$;

  24041 31 013556   000331 471400 0                  LDP1    @DN3$
        31 013557   100000 473500                    LDP3    0,,PR1
        31 013560   300004 236100                    LDQ     4,,PR3
        31 013561   000335 756000 0                  STQ     TERM3$

     2592    24042
PL6.E3A0      #001=Z8DR$RECORD_DECL File=Z8DR.:Z8A6TSI                           SAT 08/09/97 11:18 Page:493
     2593    24043             %RENAMES_LVL_CHK (@LEVEL# = DN2_ST$ -> SCALAR.QLT$ -> QLT.LEVEL_NO,
     2594    24044                               @ST$$   = DN2_ST$,
     2595    24045                               @LINE#  = TERM2$ -> LX_TERMINAL.LINE,
     2596    24046                               @COL#   = TERM2$ -> LX_TERMINAL.COLUMN);

  24047 31 013562   000332 474400 0                  LDP4    DN2_ST$
        31 013563   400007 475500                    LDP5    7,,PR4
        31 013564   500000 720100                    LXL0    0,,PR5
        31 013565   000777 360003                    ANX0    511,DU
        31 013566   000131 100003                    CMPX0   89,DU
        31 013567   013571 602010 31                 TNC     s:24047+7,X0
        31 013570   013755 710000 31                 TRA     s:24065
        31 013571   013755 710000 31                 TRA     s:24065
        31 013572   013722 710000 31                 TRA     s:24049
        31 013573   013736 710000 31                 TRA     s:24053
        31 013574   013755 710000 31                 TRA     s:24065
        31 013575   013755 710000 31                 TRA     s:24065
        31 013576   013755 710000 31                 TRA     s:24065
        31 013577   013755 710000 31                 TRA     s:24065
        31 013600   013755 710000 31                 TRA     s:24065
        31 013601   013755 710000 31                 TRA     s:24065
        31 013602   013755 710000 31                 TRA     s:24065
        31 013603   013755 710000 31                 TRA     s:24065
        31 013604   013755 710000 31                 TRA     s:24065
        31 013605   013755 710000 31                 TRA     s:24065
        31 013606   013755 710000 31                 TRA     s:24065
        31 013607   013755 710000 31                 TRA     s:24065
        31 013610   013755 710000 31                 TRA     s:24065
        31 013611   013755 710000 31                 TRA     s:24065
        31 013612   013755 710000 31                 TRA     s:24065
        31 013613   013755 710000 31                 TRA     s:24065
        31 013614   013755 710000 31                 TRA     s:24065
        31 013615   013755 710000 31                 TRA     s:24065
        31 013616   013755 710000 31                 TRA     s:24065
        31 013617   013755 710000 31                 TRA     s:24065
        31 013620   013755 710000 31                 TRA     s:24065
        31 013621   013755 710000 31                 TRA     s:24065
PL6.E3A0      #001=Z8DR$RECORD_DECL File=Z8DR.:Z8A6TSI                           SAT 08/09/97 11:18 Page:494
        31 013622   013755 710000 31                 TRA     s:24065
        31 013623   013755 710000 31                 TRA     s:24065
        31 013624   013755 710000 31                 TRA     s:24065
        31 013625   013755 710000 31                 TRA     s:24065
        31 013626   013755 710000 31                 TRA     s:24065
        31 013627   013755 710000 31                 TRA     s:24065
        31 013630   013755 710000 31                 TRA     s:24065
        31 013631   013755 710000 31                 TRA     s:24065
        31 013632   013755 710000 31                 TRA     s:24065
        31 013633   013755 710000 31                 TRA     s:24065
        31 013634   013755 710000 31                 TRA     s:24065
        31 013635   013755 710000 31                 TRA     s:24065
        31 013636   013755 710000 31                 TRA     s:24065
        31 013637   013755 710000 31                 TRA     s:24065
        31 013640   013755 710000 31                 TRA     s:24065
        31 013641   013755 710000 31                 TRA     s:24065
        31 013642   013755 710000 31                 TRA     s:24065
        31 013643   013755 710000 31                 TRA     s:24065
        31 013644   013755 710000 31                 TRA     s:24065
        31 013645   013755 710000 31                 TRA     s:24065
        31 013646   013755 710000 31                 TRA     s:24065
        31 013647   013755 710000 31                 TRA     s:24065
        31 013650   013755 710000 31                 TRA     s:24065
        31 013651   013755 710000 31                 TRA     s:24065
        31 013652   013755 710000 31                 TRA     s:24065
        31 013653   013755 710000 31                 TRA     s:24065
        31 013654   013755 710000 31                 TRA     s:24065
        31 013655   013755 710000 31                 TRA     s:24065
        31 013656   013755 710000 31                 TRA     s:24065
        31 013657   013755 710000 31                 TRA     s:24065
        31 013660   013755 710000 31                 TRA     s:24065
        31 013661   013755 710000 31                 TRA     s:24065
        31 013662   013755 710000 31                 TRA     s:24065
        31 013663   013755 710000 31                 TRA     s:24065
        31 013664   013755 710000 31                 TRA     s:24065
        31 013665   013755 710000 31                 TRA     s:24065
        31 013666   013755 710000 31                 TRA     s:24065
PL6.E3A0      #001=Z8DR$RECORD_DECL File=Z8DR.:Z8A6TSI                           SAT 08/09/97 11:18 Page:495
        31 013667   013755 710000 31                 TRA     s:24065
        31 013670   013755 710000 31                 TRA     s:24065
        31 013671   013755 710000 31                 TRA     s:24065
        31 013672   013755 710000 31                 TRA     s:24065
        31 013673   013722 710000 31                 TRA     s:24049
        31 013674   013755 710000 31                 TRA     s:24065
        31 013675   013755 710000 31                 TRA     s:24065
        31 013676   013755 710000 31                 TRA     s:24065
        31 013677   013755 710000 31                 TRA     s:24065
        31 013700   013755 710000 31                 TRA     s:24065
        31 013701   013755 710000 31                 TRA     s:24065
        31 013702   013755 710000 31                 TRA     s:24065
        31 013703   013755 710000 31                 TRA     s:24065
        31 013704   013755 710000 31                 TRA     s:24065
        31 013705   013755 710000 31                 TRA     s:24065
        31 013706   013722 710000 31                 TRA     s:24049
        31 013707   013755 710000 31                 TRA     s:24065
        31 013710   013755 710000 31                 TRA     s:24065
        31 013711   013755 710000 31                 TRA     s:24065
        31 013712   013755 710000 31                 TRA     s:24065
        31 013713   013755 710000 31                 TRA     s:24065
        31 013714   013755 710000 31                 TRA     s:24065
        31 013715   013755 710000 31                 TRA     s:24065
        31 013716   013755 710000 31                 TRA     s:24065
        31 013717   013755 710000 31                 TRA     s:24065
        31 013720   013755 710000 31                 TRA     s:24065
        31 013721   013722 710000 31                 TRA     s:24049

  24049 31 013722   000334 236000 0                  LDQ     TERM2$
        31 013723   000006 036003                    ADLQ    6,DU
        31 013724   000574 756000 0                  STQ     P$+3
        31 013725   000334 236000 0                  LDQ     TERM2$
        31 013726   000005 036003                    ADLQ    5,DU
        31 013727   000347 235000 32                 LDA     231
        31 013730   000572 757000 0                  STAQ    P$+1
        31 013731   000572 630400 0                  EPPR0   P$+1
        31 013732   000001 631400 32                 EPPR1   1
PL6.E3A0      #001=Z8DR$RECORD_DECL File=Z8DR.:Z8A6TSI                           SAT 08/09/97 11:18 Page:496
        31 013733   000000 701000 xent               TSX1    Z8AE$ERROR
        31 013734   000000 011000                    NOP     0
        31 013735   013755 710000 31                 TRA     s:24065

  24053 31 013736   500000 236100                    LDQ     0,,PR5
        31 013737   040000 316007                    CANQ    16384,DL
        31 013740   013755 600000 31                 TZE     s:24065

  24054 31 013741   000334 236000 0                  LDQ     TERM2$
        31 013742   000006 036003                    ADLQ    6,DU
        31 013743   000574 756000 0                  STQ     P$+3
        31 013744   000334 236000 0                  LDQ     TERM2$
        31 013745   000005 036003                    ADLQ    5,DU
        31 013746   000347 235000 32                 LDA     231
        31 013747   000572 757000 0                  STAQ    P$+1
        31 013750   000572 630400 0                  EPPR0   P$+1
        31 013751   000001 631400 32                 EPPR1   1
        31 013752   000000 701000 xent               TSX1    Z8AE$ERROR
        31 013753   000000 011000                    NOP     0
        31 013754   013755 710000 31                 TRA     s:24065

     2597    24060
     2598    24061             %RENAMES_LVL_CHK (@LEVEL# = DN3_ST$ -> SCALAR.QLT$ -> QLT.LEVEL_NO,
     2599    24062                               @ST$$   = DN3_ST$,
     2600    24063                               @LINE#  = TERM3$ -> LX_TERMINAL.LINE,
     2601    24064                               @COL#   = TERM3$ -> LX_TERMINAL.COLUMN);

  24065 31 013755   000333 470400 0                  LDP0    DN3_ST$
        31 013756   000007 471500                    LDP1    7,,PR0
        31 013757   100000 720100                    LXL0    0,,PR1
        31 013760   000777 360003                    ANX0    511,DU
        31 013761   000131 100003                    CMPX0   89,DU
        31 013762   013764 602010 31                 TNC     s:24065+7,X0
        31 013763   014150 710000 31                 TRA     s:24079
        31 013764   014150 710000 31                 TRA     s:24079
        31 013765   014115 710000 31                 TRA     s:24067
        31 013766   014131 710000 31                 TRA     s:24071
PL6.E3A0      #001=Z8DR$RECORD_DECL File=Z8DR.:Z8A6TSI                           SAT 08/09/97 11:18 Page:497
        31 013767   014150 710000 31                 TRA     s:24079
        31 013770   014150 710000 31                 TRA     s:24079
        31 013771   014150 710000 31                 TRA     s:24079
        31 013772   014150 710000 31                 TRA     s:24079
        31 013773   014150 710000 31                 TRA     s:24079
        31 013774   014150 710000 31                 TRA     s:24079
        31 013775   014150 710000 31                 TRA     s:24079
        31 013776   014150 710000 31                 TRA     s:24079
        31 013777   014150 710000 31                 TRA     s:24079
        31 014000   014150 710000 31                 TRA     s:24079
        31 014001   014150 710000 31                 TRA     s:24079
        31 014002   014150 710000 31                 TRA     s:24079
        31 014003   014150 710000 31                 TRA     s:24079
        31 014004   014150 710000 31                 TRA     s:24079
        31 014005   014150 710000 31                 TRA     s:24079
        31 014006   014150 710000 31                 TRA     s:24079
        31 014007   014150 710000 31                 TRA     s:24079
        31 014010   014150 710000 31                 TRA     s:24079
        31 014011   014150 710000 31                 TRA     s:24079
        31 014012   014150 710000 31                 TRA     s:24079
        31 014013   014150 710000 31                 TRA     s:24079
        31 014014   014150 710000 31                 TRA     s:24079
        31 014015   014150 710000 31                 TRA     s:24079
        31 014016   014150 710000 31                 TRA     s:24079
        31 014017   014150 710000 31                 TRA     s:24079
        31 014020   014150 710000 31                 TRA     s:24079
        31 014021   014150 710000 31                 TRA     s:24079
        31 014022   014150 710000 31                 TRA     s:24079
        31 014023   014150 710000 31                 TRA     s:24079
        31 014024   014150 710000 31                 TRA     s:24079
        31 014025   014150 710000 31                 TRA     s:24079
        31 014026   014150 710000 31                 TRA     s:24079
        31 014027   014150 710000 31                 TRA     s:24079
        31 014030   014150 710000 31                 TRA     s:24079
        31 014031   014150 710000 31                 TRA     s:24079
        31 014032   014150 710000 31                 TRA     s:24079
        31 014033   014150 710000 31                 TRA     s:24079
PL6.E3A0      #001=Z8DR$RECORD_DECL File=Z8DR.:Z8A6TSI                           SAT 08/09/97 11:18 Page:498
        31 014034   014150 710000 31                 TRA     s:24079
        31 014035   014150 710000 31                 TRA     s:24079
        31 014036   014150 710000 31                 TRA     s:24079
        31 014037   014150 710000 31                 TRA     s:24079
        31 014040   014150 710000 31                 TRA     s:24079
        31 014041   014150 710000 31                 TRA     s:24079
        31 014042   014150 710000 31                 TRA     s:24079
        31 014043   014150 710000 31                 TRA     s:24079
        31 014044   014150 710000 31                 TRA     s:24079
        31 014045   014150 710000 31                 TRA     s:24079
        31 014046   014150 710000 31                 TRA     s:24079
        31 014047   014150 710000 31                 TRA     s:24079
        31 014050   014150 710000 31                 TRA     s:24079
        31 014051   014150 710000 31                 TRA     s:24079
        31 014052   014150 710000 31                 TRA     s:24079
        31 014053   014150 710000 31                 TRA     s:24079
        31 014054   014150 710000 31                 TRA     s:24079
        31 014055   014150 710000 31                 TRA     s:24079
        31 014056   014150 710000 31                 TRA     s:24079
        31 014057   014150 710000 31                 TRA     s:24079
        31 014060   014150 710000 31                 TRA     s:24079
        31 014061   014150 710000 31                 TRA     s:24079
        31 014062   014150 710000 31                 TRA     s:24079
        31 014063   014150 710000 31                 TRA     s:24079
        31 014064   014150 710000 31                 TRA     s:24079
        31 014065   014150 710000 31                 TRA     s:24079
        31 014066   014115 710000 31                 TRA     s:24067
        31 014067   014150 710000 31                 TRA     s:24079
        31 014070   014150 710000 31                 TRA     s:24079
        31 014071   014150 710000 31                 TRA     s:24079
        31 014072   014150 710000 31                 TRA     s:24079
        31 014073   014150 710000 31                 TRA     s:24079
        31 014074   014150 710000 31                 TRA     s:24079
        31 014075   014150 710000 31                 TRA     s:24079
        31 014076   014150 710000 31                 TRA     s:24079
        31 014077   014150 710000 31                 TRA     s:24079
        31 014100   014150 710000 31                 TRA     s:24079
PL6.E3A0      #001=Z8DR$RECORD_DECL File=Z8DR.:Z8A6TSI                           SAT 08/09/97 11:18 Page:499
        31 014101   014115 710000 31                 TRA     s:24067
        31 014102   014150 710000 31                 TRA     s:24079
        31 014103   014150 710000 31                 TRA     s:24079
        31 014104   014150 710000 31                 TRA     s:24079
        31 014105   014150 710000 31                 TRA     s:24079
        31 014106   014150 710000 31                 TRA     s:24079
        31 014107   014150 710000 31                 TRA     s:24079
        31 014110   014150 710000 31                 TRA     s:24079
        31 014111   014150 710000 31                 TRA     s:24079
        31 014112   014150 710000 31                 TRA     s:24079
        31 014113   014150 710000 31                 TRA     s:24079
        31 014114   014115 710000 31                 TRA     s:24067

  24067 31 014115   000335 236000 0                  LDQ     TERM3$
        31 014116   000006 036003                    ADLQ    6,DU
        31 014117   000574 756000 0                  STQ     P$+3
        31 014120   000335 236000 0                  LDQ     TERM3$
        31 014121   000005 036003                    ADLQ    5,DU
        31 014122   000347 235000 32                 LDA     231
        31 014123   000572 757000 0                  STAQ    P$+1
        31 014124   000572 630400 0                  EPPR0   P$+1
        31 014125   000001 631400 32                 EPPR1   1
        31 014126   000000 701000 xent               TSX1    Z8AE$ERROR
        31 014127   000000 011000                    NOP     0
        31 014130   014150 710000 31                 TRA     s:24079

  24071 31 014131   100000 236100                    LDQ     0,,PR1
        31 014132   040000 316007                    CANQ    16384,DL
        31 014133   014150 600000 31                 TZE     s:24079

  24072 31 014134   000335 236000 0                  LDQ     TERM3$
        31 014135   000006 036003                    ADLQ    6,DU
        31 014136   000574 756000 0                  STQ     P$+3
        31 014137   000335 236000 0                  LDQ     TERM3$
        31 014140   000005 036003                    ADLQ    5,DU
        31 014141   000347 235000 32                 LDA     231
        31 014142   000572 757000 0                  STAQ    P$+1
PL6.E3A0      #001=Z8DR$RECORD_DECL File=Z8DR.:Z8A6TSI                           SAT 08/09/97 11:18 Page:500
        31 014143   000572 630400 0                  EPPR0   P$+1
        31 014144   000001 631400 32                 EPPR1   1
        31 014145   000000 701000 xent               TSX1    Z8AE$ERROR
        31 014146   000000 011000                    NOP     0
        31 014147   014150 710000 31                 TRA     s:24079

     2602    24078
     2603    24079    4        CALL VERIFY_ORDER (DN2_ST$, DN3_ST$, TERM2$)

  24079 31 014150   000350 237000 32                 LDAQ    232
        31 014151   000204 757000 0                  STAQ    @DN3_ST$
        31 014152   000343 236000 32                 LDQ     227
        31 014153   000203 756000 0                  STQ     @DN2_ST$
        31 014154   004264 701000 31                 TSX1    VERIFY_ORDER
        31 014155   014157 702000 31                 TSX2    s:24082
        31 014156   014161 710000 31                 TRA     s:24085

     2604    24080    4          WHENALTRETURN
     2605    24081    5            DO;

     2606    24082    5              ALTRETURN;

  24082 31 014157   000327 221200 0                  LDX1  ! L$+1
        31 014160   000000 702211                    TSX2  ! 0,X1

     2607    24083    5            END;
     2608    24084
     2609    24085    4        CALL NEXT_LEVEL_CHECK ;

  24085 31 014161   013460 701000 31                 TSX1    NEXT_LEVEL_CHECK
        31 014162   000000 011000                    NOP     0

     2610    24086
     2611    24087    4        REDUCED_DATA.B.RENAMES      = TRUE;

  24087 31 014163   000200 236003                    LDQ     128,DU
        31 014164   000060 256000 0                  ORSQ    REDUCED_DATA+21
PL6.E3A0      #001=Z8DR$RECORD_DECL File=Z8DR.:Z8A6TSI                           SAT 08/09/97 11:18 Page:501

     2612    24088    4        REDUCED_DATA.B.ELEMENTARY   = TRUE;

  24088 31 014165   400000 236003                    LDQ     -131072,DU
        31 014166   000060 256000 0                  ORSQ    REDUCED_DATA+21

     2613    24089    4        REDUCED_DATA.RENAMES.END_ST$   = DN3_ST$;

  24089 31 014167   000333 236000 0                  LDQ     DN3_ST$
        31 014170   000044 756000 0                  STQ     REDUCED_DATA+9

     2614    24090    4        REDUCED_DATA.RENAMES.START_ST$ = DN2_ST$;

  24090 31 014171   000332 236000 0                  LDQ     DN2_ST$
        31 014172   000043 756000 0                  STQ     REDUCED_DATA+8

     2615    24091
     2616    24092    4   END RENAMES_THRU;

  24092 31 014173   000327 221200 0                  LDX1  ! L$+1
        31 014174   000001 702211                    TSX2  ! 1,X1

     2617    24093        %EJECT;
PL6.E3A0      #001=Z8DR$RECORD_DECL File=Z8DR.:Z8A6TSI                           SAT 08/09/97 11:18 Page:502
     2618    24094        /*===============*/
     2619    24095    3     RENAMES_NO_THRU: PROC (DN2$) ALTRET;

  24095 31 014175   000336 741200 0     RENAMES_NO_* STX1  ! TERM3$+1

     2620    24096        /*===============*/
     2621    24097
     2622    24098    4        DCL DN2$          PTR;
     2623    24099
     2624    24100    4        DCL TERM2$        PTR;
     2625    24101    4        DCL DN2_ST$       PTR;
     2626    24102
     2627    24103
     2628    24104    4        CALL QUALIFY_VARIABLE (DN2$,

  24104 31 014176   000352 237000 32                 LDAQ    234
        31 014177   000370 757000 0                  STAQ    @QUAL_ID$+1
        31 014200   000337 236000 0                  LDQ     @DN2$
        31 014201   000367 756000 0                  STQ     ST$$+3
        31 014202   016173 701000 31                 TSX1    QUALIFY_VARIABLE
        31 014203   014205 702000 31                 TSX2    s:24109
        31 014204   014207 710000 31                 TRA     s:24112

     2629    24105    4                               HIER_STK.QLT$ (1),
     2630    24106    4                               DN2_ST$)
     2631    24107    4          WHENALTRETURN
     2632    24108    5            DO;

     2633    24109    5              ALTRETURN;

  24109 31 014205   000336 221200 0                  LDX1  ! TERM3$+1
        31 014206   000000 702211                    TSX2  ! 0,X1

     2634    24110    5            END;
     2635    24111
     2636    24112    4        TERM2$ = DN2$ -> LX_LIST.HEAD$;

PL6.E3A0      #001=Z8DR$RECORD_DECL File=Z8DR.:Z8A6TSI                           SAT 08/09/97 11:18 Page:503
  24112 31 014207   000337 470400 0                  LDP0    @DN2$
        31 014210   000000 471500                    LDP1    0,,PR0
        31 014211   100004 236100                    LDQ     4,,PR1
        31 014212   000340 756000 0                  STQ     TERM2$

     2637    24113
     2638    24114             %RENAMES_LVL_CHK (@LEVEL# = DN2_ST$ -> SCALAR.QLT$ -> QLT.LEVEL_NO,
     2639    24115                               @ST$$   = DN2_ST$,
     2640    24116                               @LINE#  = TERM2$ -> LX_TERMINAL.LINE,
     2641    24117                               @COL#   = TERM2$ -> LX_TERMINAL.COLUMN);

  24118 31 014213   000341 473400 0                  LDP3    DN2_ST$
        31 014214   300007 474500                    LDP4    7,,PR3
        31 014215   400000 720100                    LXL0    0,,PR4
        31 014216   000777 360003                    ANX0    511,DU
        31 014217   000131 100003                    CMPX0   89,DU
        31 014220   014222 602010 31                 TNC     s:24118+7,X0
        31 014221   014405 710000 31                 TRA     s:24132
        31 014222   014405 710000 31                 TRA     s:24132
        31 014223   014353 710000 31                 TRA     s:24120
        31 014224   014366 710000 31                 TRA     s:24124
        31 014225   014405 710000 31                 TRA     s:24132
        31 014226   014405 710000 31                 TRA     s:24132
        31 014227   014405 710000 31                 TRA     s:24132
        31 014230   014405 710000 31                 TRA     s:24132
        31 014231   014405 710000 31                 TRA     s:24132
        31 014232   014405 710000 31                 TRA     s:24132
        31 014233   014405 710000 31                 TRA     s:24132
        31 014234   014405 710000 31                 TRA     s:24132
        31 014235   014405 710000 31                 TRA     s:24132
        31 014236   014405 710000 31                 TRA     s:24132
        31 014237   014405 710000 31                 TRA     s:24132
        31 014240   014405 710000 31                 TRA     s:24132
        31 014241   014405 710000 31                 TRA     s:24132
        31 014242   014405 710000 31                 TRA     s:24132
        31 014243   014405 710000 31                 TRA     s:24132
        31 014244   014405 710000 31                 TRA     s:24132
PL6.E3A0      #001=Z8DR$RECORD_DECL File=Z8DR.:Z8A6TSI                           SAT 08/09/97 11:18 Page:504
        31 014245   014405 710000 31                 TRA     s:24132
        31 014246   014405 710000 31                 TRA     s:24132
        31 014247   014405 710000 31                 TRA     s:24132
        31 014250   014405 710000 31                 TRA     s:24132
        31 014251   014405 710000 31                 TRA     s:24132
        31 014252   014405 710000 31                 TRA     s:24132
        31 014253   014405 710000 31                 TRA     s:24132
        31 014254   014405 710000 31                 TRA     s:24132
        31 014255   014405 710000 31                 TRA     s:24132
        31 014256   014405 710000 31                 TRA     s:24132
        31 014257   014405 710000 31                 TRA     s:24132
        31 014260   014405 710000 31                 TRA     s:24132
        31 014261   014405 710000 31                 TRA     s:24132
        31 014262   014405 710000 31                 TRA     s:24132
        31 014263   014405 710000 31                 TRA     s:24132
        31 014264   014405 710000 31                 TRA     s:24132
        31 014265   014405 710000 31                 TRA     s:24132
        31 014266   014405 710000 31                 TRA     s:24132
        31 014267   014405 710000 31                 TRA     s:24132
        31 014270   014405 710000 31                 TRA     s:24132
        31 014271   014405 710000 31                 TRA     s:24132
        31 014272   014405 710000 31                 TRA     s:24132
        31 014273   014405 710000 31                 TRA     s:24132
        31 014274   014405 710000 31                 TRA     s:24132
        31 014275   014405 710000 31                 TRA     s:24132
        31 014276   014405 710000 31                 TRA     s:24132
        31 014277   014405 710000 31                 TRA     s:24132
        31 014300   014405 710000 31                 TRA     s:24132
        31 014301   014405 710000 31                 TRA     s:24132
        31 014302   014405 710000 31                 TRA     s:24132
        31 014303   014405 710000 31                 TRA     s:24132
        31 014304   014405 710000 31                 TRA     s:24132
        31 014305   014405 710000 31                 TRA     s:24132
        31 014306   014405 710000 31                 TRA     s:24132
        31 014307   014405 710000 31                 TRA     s:24132
        31 014310   014405 710000 31                 TRA     s:24132
        31 014311   014405 710000 31                 TRA     s:24132
PL6.E3A0      #001=Z8DR$RECORD_DECL File=Z8DR.:Z8A6TSI                           SAT 08/09/97 11:18 Page:505
        31 014312   014405 710000 31                 TRA     s:24132
        31 014313   014405 710000 31                 TRA     s:24132
        31 014314   014405 710000 31                 TRA     s:24132
        31 014315   014405 710000 31                 TRA     s:24132
        31 014316   014405 710000 31                 TRA     s:24132
        31 014317   014405 710000 31                 TRA     s:24132
        31 014320   014405 710000 31                 TRA     s:24132
        31 014321   014405 710000 31                 TRA     s:24132
        31 014322   014405 710000 31                 TRA     s:24132
        31 014323   014405 710000 31                 TRA     s:24132
        31 014324   014353 710000 31                 TRA     s:24120
        31 014325   014405 710000 31                 TRA     s:24132
        31 014326   014405 710000 31                 TRA     s:24132
        31 014327   014405 710000 31                 TRA     s:24132
        31 014330   014405 710000 31                 TRA     s:24132
        31 014331   014405 710000 31                 TRA     s:24132
        31 014332   014405 710000 31                 TRA     s:24132
        31 014333   014405 710000 31                 TRA     s:24132
        31 014334   014405 710000 31                 TRA     s:24132
        31 014335   014405 710000 31                 TRA     s:24132
        31 014336   014405 710000 31                 TRA     s:24132
        31 014337   014353 710000 31                 TRA     s:24120
        31 014340   014405 710000 31                 TRA     s:24132
        31 014341   014405 710000 31                 TRA     s:24132
        31 014342   014405 710000 31                 TRA     s:24132
        31 014343   014405 710000 31                 TRA     s:24132
        31 014344   014405 710000 31                 TRA     s:24132
        31 014345   014405 710000 31                 TRA     s:24132
        31 014346   014405 710000 31                 TRA     s:24132
        31 014347   014405 710000 31                 TRA     s:24132
        31 014350   014405 710000 31                 TRA     s:24132
        31 014351   014405 710000 31                 TRA     s:24132
        31 014352   014353 710000 31                 TRA     s:24120

  24120 31 014353   000006 036003                    ADLQ    6,DU
        31 014354   000574 756000 0                  STQ     P$+3
        31 014355   000340 236000 0                  LDQ     TERM2$
PL6.E3A0      #001=Z8DR$RECORD_DECL File=Z8DR.:Z8A6TSI                           SAT 08/09/97 11:18 Page:506
        31 014356   000005 036003                    ADLQ    5,DU
        31 014357   000347 235000 32                 LDA     231
        31 014360   000572 757000 0                  STAQ    P$+1
        31 014361   000572 630400 0                  EPPR0   P$+1
        31 014362   000001 631400 32                 EPPR1   1
        31 014363   000000 701000 xent               TSX1    Z8AE$ERROR
        31 014364   000000 011000                    NOP     0
        31 014365   014405 710000 31                 TRA     s:24132

  24124 31 014366   400000 236100                    LDQ     0,,PR4
        31 014367   040000 316007                    CANQ    16384,DL
        31 014370   014405 600000 31                 TZE     s:24132

  24125 31 014371   000340 236000 0                  LDQ     TERM2$
        31 014372   000006 036003                    ADLQ    6,DU
        31 014373   000574 756000 0                  STQ     P$+3
        31 014374   000340 236000 0                  LDQ     TERM2$
        31 014375   000005 036003                    ADLQ    5,DU
        31 014376   000347 235000 32                 LDA     231
        31 014377   000572 757000 0                  STAQ    P$+1
        31 014400   000572 630400 0                  EPPR0   P$+1
        31 014401   000001 631400 32                 EPPR1   1
        31 014402   000000 701000 xent               TSX1    Z8AE$ERROR
        31 014403   000000 011000                    NOP     0
        31 014404   014405 710000 31                 TRA     s:24132

     2642    24131
     2643    24132    4        IF DN2_ST$ -> ST.ID = %ARRAY THEN

  24132 31 014405   000341 470400 0                  LDP0    DN2_ST$
        31 014406   000000 220100                    LDX0    0,,PR0
        31 014407   000765 100003                    CMPX0   501,DU
        31 014410   014437 601000 31                 TNZ     s:24170

     2644    24133    5          DO;

     2645    24134                 %CONDITIONAL_ERROR (@LX_ITEM$ = DN2$,
PL6.E3A0      #001=Z8DR$RECORD_DECL File=Z8DR.:Z8A6TSI                           SAT 08/09/97 11:18 Page:507
     2646    24135                                     @ERROR#   = %E$OCCURS_IN_RENAMES,
     2647    24136                                     @LINE     = TERM2$ -> LX_TERMINAL.LINE,
     2648    24137                                     @COLUMN   = TERM2$ -> LX_TERMINAL.COLUMN);

  24147 31 014411   000337 471400 0                  LDP1    @DN2$
        31 014412   100000 473500                    LDP3    0,,PR1
        31 014413   300000 236100                    LDQ     0,,PR3
        31 014414   400000 316007                    CANQ    -131072,DL
        31 014415   014435 601000 31                 TNZ     s:24167

  24149 31 014416   000340 236000 0                  LDQ     TERM2$
        31 014417   000006 036003                    ADLQ    6,DU
        31 014420   000574 756000 0                  STQ     P$+3
        31 014421   000340 236000 0                  LDQ     TERM2$
        31 014422   000005 036003                    ADLQ    5,DU
        31 014423   000067 235000 32                 LDA     55
        31 014424   000572 757000 0                  STAQ    P$+1
        31 014425   000572 630400 0                  EPPR0   P$+1
        31 014426   000001 631400 32                 EPPR1   1
        31 014427   000000 701000 xent               TSX1    Z8AE$ERROR
        31 014430   000000 011000                    NOP     0

  24158 31 014431   000337 470400 0                  LDP0    @DN2$
        31 014432   000000 471500                    LDP1    0,,PR0
        31 014433   400000 236007                    LDQ     -131072,DL
        31 014434   100000 256100                    ORSQ    0,,PR1

     2649    24167    5            ALTRETURN;

  24167 31 014435   000336 221200 0                  LDX1  ! TERM3$+1
        31 014436   000000 702211                    TSX2  ! 0,X1

     2650    24168    5          END;
     2651    24169
     2652    24170    4        CALL NEXT_LEVEL_CHECK;

  24170 31 014437   013460 701000 31                 TSX1    NEXT_LEVEL_CHECK
PL6.E3A0      #001=Z8DR$RECORD_DECL File=Z8DR.:Z8A6TSI                           SAT 08/09/97 11:18 Page:508
        31 014440   000000 011000                    NOP     0

     2653    24171
     2654    24172    4        REDUCED_DATA.B.RENAMES    = TRUE;

  24172 31 014441   000200 236003                    LDQ     128,DU
        31 014442   000060 256000 0                  ORSQ    REDUCED_DATA+21

     2655    24173    4        REDUCED_DATA.B.ELEMENTARY = TRUE;

  24173 31 014443   400000 236003                    LDQ     -131072,DU
        31 014444   000060 256000 0                  ORSQ    REDUCED_DATA+21

     2656    24174    4        REDUCED_DATA.RENAMES.START_ST$ = DN2_ST$;

  24174 31 014445   000341 236000 0                  LDQ     DN2_ST$
        31 014446   000043 756000 0                  STQ     REDUCED_DATA+8

     2657    24175
     2658    24176    4   END RENAMES_NO_THRU;

  24176 31 014447   000336 221200 0                  LDX1  ! TERM3$+1
        31 014450   000001 702211                    TSX2  ! 1,X1

     2659    24177        %EJECT;
PL6.E3A0      #001=Z8DR$RECORD_DECL File=Z8DR.:Z8A6TSI                           SAT 08/09/97 11:18 Page:509
     2660    24178        /*================*/
     2661    24179    3     VALIDATE_RENAMES: PROC;

  24179 31 014451   000342 741200 0     VALIDATE_RE* STX1  ! DN2_ST$+1

     2662    24180        /*================*/
     2663    24181
     2664    24182    4   DCL DATA_NAME2_ST$            PTR;
     2665    24183    4   DCL TERM$                     PTR;
     2666    24184    4   DCL TERM3$                    PTR;
     2667    24185    4   DCL DATA_NAME3_ST$            PTR;
     2668    24186    4   DCL DN2$                      PTR;
     2669    24187    4   DCL DN3$                      PTR;
     2670    24188
     2671    24189        /*   66 DATANAME1 RENAMES DATANAME2 THRU DATANAME3. */
     2672    24190
     2673    24191
     2674    24192    4      DN2$   = CDECL$ -> LX_REC_DECL.P.RENAMES$ ->

  24192 31 014452   000160 470400 0                  LDP0    CDECL$
        31 014453   000006 471500                    LDP1    6,,PR0
        31 014454   100004 236100                    LDQ     4,,PR1
        31 014455   000347 756000 0                  STQ     DN2$

     2675    24193    4               LX_LIST.HEAD$;
     2676    24194    4      DN3$   = CDECL$ -> LX_REC_DECL.P.RENAMES$ ->

  24194 31 014456   000006 471500                    LDP1    6,,PR0
        31 014457   100001 236100                    LDQ     1,,PR1
        31 014460   000350 756000 0                  STQ     DN3$

     2677    24195    4               LX_LIST.TAIL$;
     2678    24196
     2679    24197    4      IF CDECL$ -> LX_REC_DECL.P.RENAMES$ -> LX_LIST.COUNT > 1 THEN

  24197 31 014461   000006 471500                    LDP1    6,,PR0
        31 014462   100002 235100                    LDA     2,,PR1
PL6.E3A0      #001=Z8DR$RECORD_DECL File=Z8DR.:Z8A6TSI                           SAT 08/09/97 11:18 Page:510
        31 014463   000001 115007                    CMPA    1,DL
        31 014464   014474 604400 31                 TMOZ    s:24206

     2680    24198             /* TWO OBJECTS FOR THE RENAMES CLAUSE */
     2681    24199    4        CALL RENAMES_THRU (DN2$, DN3$)

  24199 31 014465   000354 237000 32                 LDAQ    236
        31 014466   000330 757000 0                  STAQ    @DN2$
        31 014467   013527 701000 31                 TSX1    RENAMES_THRU
        31 014470   014472 702000 31                 TSX2    s:24202
        31 014471   014473 710000 31                 TRA     s:24202+1

     2682    24200    4          WHENALTRETURN
     2683    24201    5            DO;

     2684    24202    5              GOTO BAD_RENAMES;

  24202 31 014472   014504 710000 31                 TRA     BAD_RENAMES
        31 014473   014502 710000 31                 TRA     s:24212

     2685    24203    5            END;
     2686    24204    4      ELSE
     2687    24205             /* 66 A RENAMES B. -- One object */
     2688    24206    4        CALL RENAMES_NO_THRU (DN2$)

  24206 31 014474   000354 236000 32                 LDQ     236
        31 014475   000337 756000 0                  STQ     @DN2$
        31 014476   014175 701000 31                 TSX1    RENAMES_NO_THRU
        31 014477   014501 702000 31                 TSX2    s:24209
        31 014500   014502 710000 31                 TRA     s:24212

     2689    24207    4          WHENALTRETURN
     2690    24208    5            DO;

     2691    24209    5              GOTO BAD_RENAMES;

  24209 31 014501   014504 710000 31                 TRA     BAD_RENAMES
PL6.E3A0      #001=Z8DR$RECORD_DECL File=Z8DR.:Z8A6TSI                           SAT 08/09/97 11:18 Page:511

     2692    24210    5            END;
     2693    24211
     2694    24212    4        RETURN;

  24212 31 014502   000342 221200 0                  LDX1  ! DN2_ST$+1
        31 014503   000001 702211                    TSX2  ! 1,X1

     2695    24213
     2696    24214    4   BAD_RENAMES:
     2697    24215                     %DELETE_CLAUSE (@CLAUSE$ = RENAMES$);

  24216 31 014504                       BAD_RENAMES  null
  24217 31 014504   000160 236000 0                  LDQ     CDECL$
        31 014505   000006 036003                    ADLQ    6,DU
        31 014506   000572 756000 0                  STQ     P$+1
        31 014507   000572 630400 0                  EPPR0   P$+1
        31 014510   000005 631400 32                 EPPR1   5
        31 014511   000000 701000 xent               TSX1    Z8ED$DISPOSE_ABSSYN_TREE
        31 014512   000000 011000                    NOP     0

     2698    24220                     %DEFAULT_PIC;

  24222 31 014513   000005 220003                    LDX0    5,DU
        31 014514   000002 740000 28                 STX0    PIC_OUT+2

  24223 31 014515   000004 221003                    LDX1    4,DU
        31 014516   000001 441000 28                 SXL1    PIC_OUT+1

  24224 31 014517   000004 235007                    LDA     4,DL
        31 014520   000000 755000 28                 STA     PIC_OUT

  24225 31 014521   000000 222003                    LDX2    0,DU
        31 014522   000001 742000 28                 STX2    PIC_OUT+1

  24226 31 014523   000003 223003                    LDX3    3,DU
        31 014524   000005 743000 28                 STX3    PIC_OUT+5
PL6.E3A0      #001=Z8DR$RECORD_DECL File=Z8DR.:Z8A6TSI                           SAT 08/09/97 11:18 Page:512

  24227 31 014525   000160 470400 0                  LDP0    CDECL$
        31 014526   000010 236100                    LDQ     8,,PR0
        31 014527   000000 116000 32                 CMPQ    0
        31 014530   014540 600000 31                 TZE     s:24235

  24230 31 014531   000160 236000 0                  LDQ     CDECL$
        31 014532   000010 036003                    ADLQ    8,DU
        31 014533   000572 756000 0                  STQ     P$+1
        31 014534   000572 630400 0                  EPPR0   P$+1
        31 014535   000005 631400 32                 EPPR1   5
        31 014536   000000 701000 xent               TSX1    Z8ED$DISPOSE_ABSSYN_TREE
        31 014537   000000 011000                    NOP     0

     2699    24235    4                O1COM.LEVEL_NO = %LEVEL_01;

  24235 31 014540   000001 235007                    LDA     1,DL
        31 014541   000005 755000 xsym               STA     O1COM+5

     2700    24236    4                REDUCED_DATA.B.ELEMENTARY  = TRUE;

  24236 31 014542   400000 236003                    LDQ     -131072,DU
        31 014543   000060 256000 0                  ORSQ    REDUCED_DATA+21

     2701    24237
     2702    24238    4   END VALIDATE_RENAMES;

  24238 31 014544   000342 221200 0                  LDX1  ! DN2_ST$+1
        31 014545   000001 702211                    TSX2  ! 1,X1

     2703    24239        %EJECT;
PL6.E3A0      #001=Z8DR$RECORD_DECL File=Z8DR.:Z8A6TSI                           SAT 08/09/97 11:18 Page:513
     2704    24240        /*==================*/
     2705    24241    3     VALIDATE_REDEFINES: PROC;

  24241 31 014546   000351 741200 0     VALIDATE_RE* STX1  ! DN3$+1

     2706    24242        /*==================*/
     2707    24243
     2708    24244
     2709    24245    4   DCL REDEFINES$                PTR;
     2710    24246
     2711    24247
     2712    24248
     2713    24249    4      IF O1COM.LEVEL_NO = %LEVEL_66 THEN

  24249 31 014547   000005 235000 xsym               LDA     O1COM+5
        31 014550   000102 115007                    CMPA    66,DL
        31 014551   014606 601000 31                 TNZ     s:24298

     2714    24250    5        DO;

     2715    24251               %REDEFINES_ERROR (@ERROR_# = %E$INVALID_LEVEL#_FOR_REDEF);

  24268 31 014552   000160 470400 0                  LDP0    CDECL$
        31 014553   000005 471500                    LDP1    5,,PR0
        31 014554   100000 236100                    LDQ     0,,PR1
        31 014555   400000 316007                    CANQ    -131072,DL
        31 014556   014575 601000 31                 TNZ     s:24292

  24270 31 014557   100006 633500                    EPPR3   6,,PR1
        31 014560   000574 453400 0                  STP3    P$+3
        31 014561   100005 634500                    EPPR4   5,,PR1
        31 014562   000573 454400 0                  STP4    P$+2
        31 014563   000357 236000 32                 LDQ     239
        31 014564   000572 756000 0                  STQ     P$+1
        31 014565   000572 630400 0                  EPPR0   P$+1
        31 014566   000001 631400 32                 EPPR1   1
        31 014567   000000 701000 xent               TSX1    Z8AE$ERROR
PL6.E3A0      #001=Z8DR$RECORD_DECL File=Z8DR.:Z8A6TSI                           SAT 08/09/97 11:18 Page:514
        31 014570   000000 011000                    NOP     0

  24279 31 014571   000160 470400 0                  LDP0    CDECL$
        31 014572   000005 471500                    LDP1    5,,PR0
        31 014573   400000 236007                    LDQ     -131072,DL
        31 014574   100000 256100                    ORSQ    0,,PR1

     2716    24290               %DELETE_CLAUSE (@CLAUSE$ = REDEFINES$);

  24292 31 014575   000160 236000 0                  LDQ     CDECL$
        31 014576   000005 036003                    ADLQ    5,DU
        31 014577   000572 756000 0                  STQ     P$+1
        31 014600   000572 630400 0                  EPPR0   P$+1
        31 014601   000005 631400 32                 EPPR1   5
        31 014602   000000 701000 xent               TSX1    Z8ED$DISPOSE_ABSSYN_TREE
        31 014603   000000 011000                    NOP     0

     2717    24295    5          RETURN;

  24295 31 014604   000351 221200 0                  LDX1  ! DN3$+1
        31 014605   000001 702211                    TSX2  ! 1,X1

     2718    24296    5        END;
     2719    24297
     2720    24298    4      IF O1COM.DATA_DECL_CONTEXT = %FILE_DESCRIPTION

  24298 31 014606   000015 236000 xsym               LDQ     O1COM+13
        31 014607   000001 116007                    CMPQ    1,DL
        31 014610   014613 600000 31                 TZE     s:24300
        31 014611   000003 116007                    CMPQ    3,DL
        31 014612   014651 601000 31                 TNZ     s:24349

     2721    24299    4      OR O1COM.DATA_DECL_CONTEXT = %COMMUNICATION_DESC THEN
     2722    24300    4        IF O1COM.LEVEL_NO = %LEVEL_01 THEN

  24300 31 014613   000001 115007                    CMPA    1,DL
        31 014614   014651 601000 31                 TNZ     s:24349
PL6.E3A0      #001=Z8DR$RECORD_DECL File=Z8DR.:Z8A6TSI                           SAT 08/09/97 11:18 Page:515

     2723    24301    5          DO;

     2724    24302                 %REDEFINES_ERROR (@ERROR_# = %E$REDEF_IN_FD_OR_CD);

  24319 31 014615   000160 470400 0                  LDP0    CDECL$
        31 014616   000005 471500                    LDP1    5,,PR0
        31 014617   100000 236100                    LDQ     0,,PR1
        31 014620   400000 316007                    CANQ    -131072,DL
        31 014621   014640 601000 31                 TNZ     s:24343

  24321 31 014622   100006 633500                    EPPR3   6,,PR1
        31 014623   000574 453400 0                  STP3    P$+3
        31 014624   100005 634500                    EPPR4   5,,PR1
        31 014625   000573 454400 0                  STP4    P$+2
        31 014626   000361 236000 32                 LDQ     241
        31 014627   000572 756000 0                  STQ     P$+1
        31 014630   000572 630400 0                  EPPR0   P$+1
        31 014631   000001 631400 32                 EPPR1   1
        31 014632   000000 701000 xent               TSX1    Z8AE$ERROR
        31 014633   000000 011000                    NOP     0

  24330 31 014634   000160 470400 0                  LDP0    CDECL$
        31 014635   000005 471500                    LDP1    5,,PR0
        31 014636   400000 236007                    LDQ     -131072,DL
        31 014637   100000 256100                    ORSQ    0,,PR1

     2725    24341                 %DELETE_CLAUSE   (@CLAUSE$ = REDEFINES$);

  24343 31 014640   000160 236000 0                  LDQ     CDECL$
        31 014641   000005 036003                    ADLQ    5,DU
        31 014642   000572 756000 0                  STQ     P$+1
        31 014643   000572 630400 0                  EPPR0   P$+1
        31 014644   000005 631400 32                 EPPR1   5
        31 014645   000000 701000 xent               TSX1    Z8ED$DISPOSE_ABSSYN_TREE
        31 014646   000000 011000                    NOP     0

PL6.E3A0      #001=Z8DR$RECORD_DECL File=Z8DR.:Z8A6TSI                           SAT 08/09/97 11:18 Page:516
     2726    24346    5            RETURN;

  24346 31 014647   000351 221200 0                  LDX1  ! DN3$+1
        31 014650   000001 702211                    TSX2  ! 1,X1

     2727    24347    5          END;
     2728    24348
     2729    24349    4     IF CDECL$ -> LX_REC_DECL.P.REDEFINES$ -> LX_ITEM.DNT$ -> DNT.ST$ = ADDR(NIL) THEN

  24349 31 014651   000160 470400 0                  LDP0    CDECL$
        31 014652   000005 471500                    LDP1    5,,PR0
        31 014653   100002 473500                    LDP3    2,,PR1
        31 014654   300001 236100                    LDQ     1,,PR3
        31 014655   000000 116000 32                 CMPQ    0
        31 014656   014711 601000 31                 TNZ     s:24398

     2730    24350    5        DO;

     2731    24351               %REDEFINES_ERROR(@ERROR_# = %E$REDEFINES_NOT_DEFINED);

  24368 31 014657   100000 236100                    LDQ     0,,PR1
        31 014660   400000 316007                    CANQ    -131072,DL
        31 014661   014700 601000 31                 TNZ     s:24392

  24370 31 014662   100006 634500                    EPPR4   6,,PR1
        31 014663   000574 454400 0                  STP4    P$+3
        31 014664   100005 633500                    EPPR3   5,,PR1
        31 014665   000573 453400 0                  STP3    P$+2
        31 014666   000363 236000 32                 LDQ     243
        31 014667   000572 756000 0                  STQ     P$+1
        31 014670   000572 630400 0                  EPPR0   P$+1
        31 014671   000001 631400 32                 EPPR1   1
        31 014672   000000 701000 xent               TSX1    Z8AE$ERROR
        31 014673   000000 011000                    NOP     0

  24379 31 014674   000160 470400 0                  LDP0    CDECL$
        31 014675   000005 471500                    LDP1    5,,PR0
PL6.E3A0      #001=Z8DR$RECORD_DECL File=Z8DR.:Z8A6TSI                           SAT 08/09/97 11:18 Page:517
        31 014676   400000 236007                    LDQ     -131072,DL
        31 014677   100000 256100                    ORSQ    0,,PR1

     2732    24390               %DELETE_CLAUSE(@CLAUSE$ = REDEFINES$);

  24392 31 014700   000160 236000 0                  LDQ     CDECL$
        31 014701   000005 036003                    ADLQ    5,DU
        31 014702   000572 756000 0                  STQ     P$+1
        31 014703   000572 630400 0                  EPPR0   P$+1
        31 014704   000005 631400 32                 EPPR1   5
        31 014705   000000 701000 xent               TSX1    Z8ED$DISPOSE_ABSSYN_TREE
        31 014706   000000 011000                    NOP     0

     2733    24395    5          RETURN;

  24395 31 014707   000351 221200 0                  LDX1  ! DN3$+1
        31 014710   000001 702211                    TSX2  ! 1,X1

     2734    24396    5        END;
     2735    24397
     2736    24398    4      CALL VERIFY_REDEF_PLACEMENT (CDECL$ -> LX_REC_DECL.P.REDEFINES$)

  24398 31 014711   000160 236000 0                  LDQ     CDECL$
        31 014712   000005 036003                    ADLQ    5,DU
        31 014713   000217 756000 0                  STQ     @REDEF$
        31 014714   004600 701000 31                 TSX1    VERIFY_REDEF_PLACEMENT
        31 014715   014720 702000 31                 TSX2    BAD_REDEF

     2737    24399    4                                 ALTRET (BAD_REDEF);
     2738    24400
     2739    24401    4      RETURN;

  24401 31 014716   000351 221200 0                  LDX1  ! DN3$+1
        31 014717   000001 702211                    TSX2  ! 1,X1

     2740    24402
     2741    24403    4   BAD_REDEF:
PL6.E3A0      #001=Z8DR$RECORD_DECL File=Z8DR.:Z8A6TSI                           SAT 08/09/97 11:18 Page:518
     2742    24404                   %DELETE_CLAUSE (@CLAUSE$ = REDEFINES$);

  24405 31 014720                       BAD_REDEF    null
  24406 31 014720   000160 236000 0                  LDQ     CDECL$
        31 014721   000005 036003                    ADLQ    5,DU
        31 014722   000572 756000 0                  STQ     P$+1
        31 014723   000572 630400 0                  EPPR0   P$+1
        31 014724   000005 631400 32                 EPPR1   5
        31 014725   000000 701000 xent               TSX1    Z8ED$DISPOSE_ABSSYN_TREE
        31 014726   000000 011000                    NOP     0

     2743    24409    4              RETURN;

  24409 31 014727   000351 221200 0                  LDX1  ! DN3$+1
        31 014730   000001 702211                    TSX2  ! 1,X1

     2744    24410
     2745    24411    4   END VALIDATE_REDEFINES;
     2746    24412        %EJECT;
PL6.E3A0      #001=Z8DR$RECORD_DECL File=Z8DR.:Z8A6TSI                           SAT 08/09/97 11:18 Page:519
     2747    24413        /*==================*/
     2748    24414    3     VALIDATE_JUSTIFIED: PROC;

  24414 31 014731   000353 741200 0     VALIDATE_JU* STX1  ! REDEFINES$+1

     2749    24415        /*==================*/
     2750    24416
     2751    24417    4       DCL STK_OBJ            SBIN  WORD;
     2752    24418    4       DCL I                  SBIN  WORD;
     2753    24419
     2754    24420
     2755    24421    4      IF NOT REDUCED_DATA.B.ELEMENTARY THEN

  24421 31 014732   000060 234000 0                  SZN     REDUCED_DATA+21
        31 014733   014770 604000 31                 TMI     s:24469

     2756    24422    5        DO;

     2757    24423               %JUST_ERROR (@ERROR_#   = %E$JUSTIFIED_NOT_ELEMENTARY);

  24439 31 014734   000160 470400 0                  LDP0    CDECL$
        31 014735   000016 471500                    LDP1    14,,PR0
        31 014736   100000 236100                    LDQ     0,,PR1
        31 014737   400000 316007                    CANQ    -131072,DL
        31 014740   014757 601000 31                 TNZ     s:24463

  24441 31 014741   100006 633500                    EPPR3   6,,PR1
        31 014742   000574 453400 0                  STP3    P$+3
        31 014743   100005 634500                    EPPR4   5,,PR1
        31 014744   000573 454400 0                  STP4    P$+2
        31 014745   000365 236000 32                 LDQ     245
        31 014746   000572 756000 0                  STQ     P$+1
        31 014747   000572 630400 0                  EPPR0   P$+1
        31 014750   000001 631400 32                 EPPR1   1
        31 014751   000000 701000 xent               TSX1    Z8AE$ERROR
        31 014752   000000 011000                    NOP     0

PL6.E3A0      #001=Z8DR$RECORD_DECL File=Z8DR.:Z8A6TSI                           SAT 08/09/97 11:18 Page:520
  24450 31 014753   000160 470400 0                  LDP0    CDECL$
        31 014754   000016 471500                    LDP1    14,,PR0
        31 014755   400000 236007                    LDQ     -131072,DL
        31 014756   100000 256100                    ORSQ    0,,PR1

     2758    24461               %DELETE_CLAUSE (@CLAUSE$  = JUSTIFIED$);

  24463 31 014757   000160 236000 0                  LDQ     CDECL$
        31 014760   000016 036003                    ADLQ    14,DU
        31 014761   000572 756000 0                  STQ     P$+1
        31 014762   000572 630400 0                  EPPR0   P$+1
        31 014763   000005 631400 32                 EPPR1   5
        31 014764   000000 701000 xent               TSX1    Z8ED$DISPOSE_ABSSYN_TREE
        31 014765   000000 011000                    NOP     0

     2759    24466    5          RETURN;

  24466 31 014766   000353 221200 0                  LDX1  ! REDEFINES$+1
        31 014767   000001 702211                    TSX2  ! 1,X1

     2760    24467    5        END;
     2761    24468
     2762    24469    4      IF CDECL$ -> LX_REC_DECL.P.PIC_CLAUSE$ = ADDR(NIL) THEN

  24469 31 014770   000160 470400 0                  LDP0    CDECL$
        31 014771   000004 236100                    LDQ     4,,PR0
        31 014772   000000 116000 32                 CMPQ    0
        31 014773   015027 601000 31                 TNZ     s:24517

     2763    24470    5        DO;

     2764    24471               %JUST_ERROR (@ERROR_#   = %E$JUSTIFIED_NOT_ON_ALPHA);

  24487 31 014774   000016 471500                    LDP1    14,,PR0
        31 014775   100000 236100                    LDQ     0,,PR1
        31 014776   400000 316007                    CANQ    -131072,DL
        31 014777   015016 601000 31                 TNZ     s:24511
PL6.E3A0      #001=Z8DR$RECORD_DECL File=Z8DR.:Z8A6TSI                           SAT 08/09/97 11:18 Page:521

  24489 31 015000   100006 633500                    EPPR3   6,,PR1
        31 015001   000574 453400 0                  STP3    P$+3
        31 015002   100005 634500                    EPPR4   5,,PR1
        31 015003   000573 454400 0                  STP4    P$+2
        31 015004   000367 236000 32                 LDQ     247
        31 015005   000572 756000 0                  STQ     P$+1
        31 015006   000572 630400 0                  EPPR0   P$+1
        31 015007   000001 631400 32                 EPPR1   1
        31 015010   000000 701000 xent               TSX1    Z8AE$ERROR
        31 015011   000000 011000                    NOP     0

  24498 31 015012   000160 470400 0                  LDP0    CDECL$
        31 015013   000016 471500                    LDP1    14,,PR0
        31 015014   400000 236007                    LDQ     -131072,DL
        31 015015   100000 256100                    ORSQ    0,,PR1

     2765    24509               %DELETE_CLAUSE (@CLAUSE$  = JUSTIFIED$);

  24511 31 015016   000160 236000 0                  LDQ     CDECL$
        31 015017   000016 036003                    ADLQ    14,DU
        31 015020   000572 756000 0                  STQ     P$+1
        31 015021   000572 630400 0                  EPPR0   P$+1
        31 015022   000005 631400 32                 EPPR1   5
        31 015023   000000 701000 xent               TSX1    Z8ED$DISPOSE_ABSSYN_TREE
        31 015024   000000 011000                    NOP     0

     2766    24514    5          RETURN;

  24514 31 015025   000353 221200 0                  LDX1  ! REDEFINES$+1
        31 015026   000001 702211                    TSX2  ! 1,X1

     2767    24515    5        END;
     2768    24516    4      ELSE
     2769    24517    4        IF PIC_OUT.TYPE ~= %PIC_TY_A

  24517 31 015027   000002 220000 28                 LDX0    PIC_OUT+2
PL6.E3A0      #001=Z8DR$RECORD_DECL File=Z8DR.:Z8A6TSI                           SAT 08/09/97 11:18 Page:522
        31 015030   000002 100003                    CMPX0   2,DU
        31 015031   015067 600000 31                 TZE     s:24566
        31 015032   000003 100003                    CMPX0   3,DU
        31 015033   015067 600000 31                 TZE     s:24566

     2770    24518    4        AND PIC_OUT.TYPE ~= %PIC_TY_AN THEN
     2771    24519    5          DO;

     2772    24520                 %JUST_ERROR (@ERROR_#   = %E$JUSTIFIED_NOT_ON_ALPHA);

  24536 31 015034   000016 471500                    LDP1    14,,PR0
        31 015035   100000 236100                    LDQ     0,,PR1
        31 015036   400000 316007                    CANQ    -131072,DL
        31 015037   015056 601000 31                 TNZ     s:24560

  24538 31 015040   100006 633500                    EPPR3   6,,PR1
        31 015041   000574 453400 0                  STP3    P$+3
        31 015042   100005 634500                    EPPR4   5,,PR1
        31 015043   000573 454400 0                  STP4    P$+2
        31 015044   000367 236000 32                 LDQ     247
        31 015045   000572 756000 0                  STQ     P$+1
        31 015046   000572 630400 0                  EPPR0   P$+1
        31 015047   000001 631400 32                 EPPR1   1
        31 015050   000000 701000 xent               TSX1    Z8AE$ERROR
        31 015051   000000 011000                    NOP     0

  24547 31 015052   000160 470400 0                  LDP0    CDECL$
        31 015053   000016 471500                    LDP1    14,,PR0
        31 015054   400000 236007                    LDQ     -131072,DL
        31 015055   100000 256100                    ORSQ    0,,PR1

     2773    24558                 %DELETE_CLAUSE (@CLAUSE$  = JUSTIFIED$);

  24560 31 015056   000160 236000 0                  LDQ     CDECL$
        31 015057   000016 036003                    ADLQ    14,DU
        31 015060   000572 756000 0                  STQ     P$+1
        31 015061   000572 630400 0                  EPPR0   P$+1
PL6.E3A0      #001=Z8DR$RECORD_DECL File=Z8DR.:Z8A6TSI                           SAT 08/09/97 11:18 Page:523
        31 015062   000005 631400 32                 EPPR1   5
        31 015063   000000 701000 xent               TSX1    Z8ED$DISPOSE_ABSSYN_TREE
        31 015064   000000 011000                    NOP     0

     2774    24563    5            RETURN;

  24563 31 015065   000353 221200 0                  LDX1  ! REDEFINES$+1
        31 015066   000001 702211                    TSX2  ! 1,X1

     2775    24564    5          END;
     2776    24565
     2777    24566    4      IF REDUCED_DATA.LEVEL.CURRENT <= REDUCED_DATA.LEVEL.PREVIOUS

  24566 31 015067   000034 236000 0                  LDQ     REDUCED_DATA+1
        31 015070   000035 116000 0                  CMPQ    REDUCED_DATA+2
        31 015071   015077 605400 31                 TPNZ    s:24570

     2778    24567    4        THEN
     2779    24568    4          CALL FIND_HIER_INDEX(REDUCED_DATA.LEVEL.CURRENT,STK_OBJ);

  24568 31 015072   000370 237000 32                 LDAQ    248
        31 015073   000406 757000 0                  STAQ    LINE#+2
        31 015074   016705 701000 31                 TSX1    FIND_HIER_INDEX
        31 015075   000000 011000                    NOP     0
        31 015076   015102 710000 31                 TRA     s:24572

     2780    24569    4        ELSE
     2781    24570    4          STK_OBJ = HIER_STK_PTR + 1;

  24570 31 015077   000000 235000 xsym               LDA     HIER_STK_PTR
        31 015100   000001 035007                    ADLA    1,DL
        31 015101   000354 755000 0                  STA     STK_OBJ

     2782    24571
     2783    24572    5      DO I = 1 TO STK_OBJ - 1;

  24572 31 015102   000001 235007                    LDA     1,DL
PL6.E3A0      #001=Z8DR$RECORD_DECL File=Z8DR.:Z8A6TSI                           SAT 08/09/97 11:18 Page:524
        31 015103   000355 755000 0                  STA     I
        31 015104   015210 710000 31                 TRA     s:24667+1

     2784    24573    5        IF HIER_STK.B.CONDITION_OBJ (I)  THEN

  24573 31 015105   000355 236000 0                  LDQ     I
        31 015106   000005 402007                    MPY     5,DL
        31 015107   000002 236006 xsym               LDQ     HIER_STK+2,QL
        31 015110   000040 316007                    CANQ    32,DL
        31 015111   015146 600000 31                 TZE     s:24620

     2785    24574    6          DO;

     2786    24575                 %JUST_ERROR (@ERROR_#   = %E$JUST_SYNC_IN_COND_GROUP);

  24591 31 015112   000160 470400 0                  LDP0    CDECL$
        31 015113   000016 471500                    LDP1    14,,PR0
        31 015114   100000 236100                    LDQ     0,,PR1
        31 015115   400000 316007                    CANQ    -131072,DL
        31 015116   015135 601000 31                 TNZ     s:24615

  24593 31 015117   100006 633500                    EPPR3   6,,PR1
        31 015120   000574 453400 0                  STP3    P$+3
        31 015121   100005 634500                    EPPR4   5,,PR1
        31 015122   000573 454400 0                  STP4    P$+2
        31 015123   000373 236000 32                 LDQ     251
        31 015124   000572 756000 0                  STQ     P$+1
        31 015125   000572 630400 0                  EPPR0   P$+1
        31 015126   000001 631400 32                 EPPR1   1
        31 015127   000000 701000 xent               TSX1    Z8AE$ERROR
        31 015130   000000 011000                    NOP     0

  24602 31 015131   000160 470400 0                  LDP0    CDECL$
        31 015132   000016 471500                    LDP1    14,,PR0
        31 015133   400000 236007                    LDQ     -131072,DL
        31 015134   100000 256100                    ORSQ    0,,PR1

PL6.E3A0      #001=Z8DR$RECORD_DECL File=Z8DR.:Z8A6TSI                           SAT 08/09/97 11:18 Page:525
     2787    24613                 %DELETE_CLAUSE (@CLAUSE$  = JUSTIFIED$);

  24615 31 015135   000160 236000 0                  LDQ     CDECL$
        31 015136   000016 036003                    ADLQ    14,DU
        31 015137   000572 756000 0                  STQ     P$+1
        31 015140   000572 630400 0                  EPPR0   P$+1
        31 015141   000005 631400 32                 EPPR1   5
        31 015142   000000 701000 xent               TSX1    Z8ED$DISPOSE_ABSSYN_TREE
        31 015143   000000 011000                    NOP     0

     2788    24618    6            RETURN;

  24618 31 015144   000353 221200 0                  LDX1  ! REDEFINES$+1
        31 015145   000001 702211                    TSX2  ! 1,X1

     2789    24619    6          END;
     2790    24620    5        IF HIER_STK.B.VALUE_PRESENTED(I) THEN

  24620 31 015146   000355 236000 0                  LDQ     I
        31 015147   000005 402007                    MPY     5,DL
        31 015150   000002 236006 xsym               LDQ     HIER_STK+2,QL
        31 015151   000020 316007                    CANQ    16,DL
        31 015152   015207 600000 31                 TZE     s:24667

     2791    24621    6          DO;

     2792    24622                 %JUST_ERROR (@ERROR_# = %E$JUST_SYNC_UNDER_VALUE);

  24638 31 015153   000160 470400 0                  LDP0    CDECL$
        31 015154   000016 471500                    LDP1    14,,PR0
        31 015155   100000 236100                    LDQ     0,,PR1
        31 015156   400000 316007                    CANQ    -131072,DL
        31 015157   015176 601000 31                 TNZ     s:24662

  24640 31 015160   100006 633500                    EPPR3   6,,PR1
        31 015161   000574 453400 0                  STP3    P$+3
        31 015162   100005 634500                    EPPR4   5,,PR1
PL6.E3A0      #001=Z8DR$RECORD_DECL File=Z8DR.:Z8A6TSI                           SAT 08/09/97 11:18 Page:526
        31 015163   000573 454400 0                  STP4    P$+2
        31 015164   000375 236000 32                 LDQ     253
        31 015165   000572 756000 0                  STQ     P$+1
        31 015166   000572 630400 0                  EPPR0   P$+1
        31 015167   000001 631400 32                 EPPR1   1
        31 015170   000000 701000 xent               TSX1    Z8AE$ERROR
        31 015171   000000 011000                    NOP     0

  24649 31 015172   000160 470400 0                  LDP0    CDECL$
        31 015173   000016 471500                    LDP1    14,,PR0
        31 015174   400000 236007                    LDQ     -131072,DL
        31 015175   100000 256100                    ORSQ    0,,PR1

     2793    24660                 %DELETE_CLAUSE (@CLAUSE$ = JUSTIFIED$);

  24662 31 015176   000160 236000 0                  LDQ     CDECL$
        31 015177   000016 036003                    ADLQ    14,DU
        31 015200   000572 756000 0                  STQ     P$+1
        31 015201   000572 630400 0                  EPPR0   P$+1
        31 015202   000005 631400 32                 EPPR1   5
        31 015203   000000 701000 xent               TSX1    Z8ED$DISPOSE_ABSSYN_TREE
        31 015204   000000 011000                    NOP     0

     2794    24665    6            RETURN;

  24665 31 015205   000353 221200 0                  LDX1  ! REDEFINES$+1
        31 015206   000001 702211                    TSX2  ! 1,X1

     2795    24666    6          END;
     2796    24667    5      END;

  24667 31 015207   000355 054000 0                  AOS     I
        31 015210   000355 236000 0                  LDQ     I
        31 015211   000354 116000 0                  CMPQ    STK_OBJ
        31 015212   015105 604000 31                 TMI     s:24573

     2797    24668
PL6.E3A0      #001=Z8DR$RECORD_DECL File=Z8DR.:Z8A6TSI                           SAT 08/09/97 11:18 Page:527
     2798    24669    4      REDUCED_DATA.B.JUSTIFIED = TRUE;

  24669 31 015213   000002 236003                    LDQ     2,DU
        31 015214   000060 256000 0                  ORSQ    REDUCED_DATA+21

     2799    24670
     2800    24671    4   END VALIDATE_JUSTIFIED;

  24671 31 015215   000353 221200 0                  LDX1  ! REDEFINES$+1
        31 015216   000001 702211                    TSX2  ! 1,X1

     2801    24672        %EJECT;
PL6.E3A0      #001=Z8DR$RECORD_DECL File=Z8DR.:Z8A6TSI                           SAT 08/09/97 11:18 Page:528
     2802    24673        /*=============*/
     2803    24674    3     VALIDATE_SYNC: PROC;

  24674 31 015217   000356 741200 0     VALIDATE_SY* STX1  ! I+1

     2804    24675        /*=============*/
     2805    24676
     2806    24677    4       DCL STK_OBJ                 SBIN WORD;
     2807    24678    4       DCL I                       SBIN WORD;
     2808    24679
     2809    24680
     2810    24681    4      IF NOT REDUCED_DATA.B.ELEMENTARY THEN

  24681 31 015220   000060 234000 0                  SZN     REDUCED_DATA+21
        31 015221   015250 604000 31                 TMI     s:24728

     2811    24682    5        DO;

     2812    24683               %SYNC_ERROR (@ERROR_# = %E$SYNC_NOT_ELEMENTARY);

  24699 31 015222   000160 470400 0                  LDP0    CDECL$
        31 015223   000014 471500                    LDP1    12,,PR0
        31 015224   100000 236100                    LDQ     0,,PR1
        31 015225   400000 316007                    CANQ    -131072,DL
        31 015226   015241 601000 31                 TNZ     s:24723

  24701 31 015227   100006 633500                    EPPR3   6,,PR1
        31 015230   000574 453400 0                  STP3    P$+3
        31 015231   100005 634500                    EPPR4   5,,PR1
        31 015232   000573 454400 0                  STP4    P$+2
        31 015233   000377 236000 32                 LDQ     255
        31 015234   000572 756000 0                  STQ     P$+1
        31 015235   000572 630400 0                  EPPR0   P$+1
        31 015236   000001 631400 32                 EPPR1   1
        31 015237   000000 701000 xent               TSX1    Z8AE$ERROR
        31 015240   000000 011000                    NOP     0

PL6.E3A0      #001=Z8DR$RECORD_DECL File=Z8DR.:Z8A6TSI                           SAT 08/09/97 11:18 Page:529
     2813    24721               %DELETE_CLAUSE (@CLAUSE$ = SYNC$);

  24723 31 015241   000160 236000 0                  LDQ     CDECL$
        31 015242   000014 036003                    ADLQ    12,DU
        31 015243   000572 756000 0                  STQ     P$+1
        31 015244   000572 630400 0                  EPPR0   P$+1
        31 015245   000005 631400 32                 EPPR1   5
        31 015246   000000 701000 xent               TSX1    Z8ED$DISPOSE_ABSSYN_TREE
        31 015247   000000 011000                    NOP     0

     2814    24726    5        END;

     2815    24727
     2816    24728    4      IF REDUCED_DATA.LEVEL.CURRENT <= REDUCED_DATA.LEVEL.PREVIOUS

  24728 31 015250   000034 236000 0                  LDQ     REDUCED_DATA+1
        31 015251   000035 116000 0                  CMPQ    REDUCED_DATA+2
        31 015252   015260 605400 31                 TPNZ    s:24732

     2817    24729    4        THEN
     2818    24730    4          CALL FIND_HIER_INDEX(REDUCED_DATA.LEVEL.CURRENT,STK_OBJ);

  24730 31 015253   000400 237000 32                 LDAQ    256
        31 015254   000406 757000 0                  STAQ    LINE#+2
        31 015255   016705 701000 31                 TSX1    FIND_HIER_INDEX
        31 015256   000000 011000                    NOP     0
        31 015257   015263 710000 31                 TRA     s:24734

     2819    24731    4        ELSE
     2820    24732    4          STK_OBJ = HIER_STK_PTR + 1;

  24732 31 015260   000000 235000 xsym               LDA     HIER_STK_PTR
        31 015261   000001 035007                    ADLA    1,DL
        31 015262   000357 755000 0                  STA     STK_OBJ

     2821    24733
     2822    24734    5      DO I = 1 TO STK_OBJ - 1;
PL6.E3A0      #001=Z8DR$RECORD_DECL File=Z8DR.:Z8A6TSI                           SAT 08/09/97 11:18 Page:530

  24734 31 015263   000001 235007                    LDA     1,DL
        31 015264   000360 755000 0                  STA     I
        31 015265   015371 710000 31                 TRA     s:24829+1

     2823    24735    5        IF HIER_STK.B.CONDITION_OBJ (I)  THEN

  24735 31 015266   000360 236000 0                  LDQ     I
        31 015267   000005 402007                    MPY     5,DL
        31 015270   000002 236006 xsym               LDQ     HIER_STK+2,QL
        31 015271   000040 316007                    CANQ    32,DL
        31 015272   015327 600000 31                 TZE     s:24782

     2824    24736    6          DO;

     2825    24737                 %SYNC_ERROR (@ERROR_#   = %E$JUST_SYNC_IN_COND_GROUP);

  24753 31 015273   000160 470400 0                  LDP0    CDECL$
        31 015274   000014 471500                    LDP1    12,,PR0
        31 015275   100000 236100                    LDQ     0,,PR1
        31 015276   400000 316007                    CANQ    -131072,DL
        31 015277   015316 601000 31                 TNZ     s:24777

  24755 31 015300   100006 633500                    EPPR3   6,,PR1
        31 015301   000574 453400 0                  STP3    P$+3
        31 015302   100005 634500                    EPPR4   5,,PR1
        31 015303   000573 454400 0                  STP4    P$+2
        31 015304   000373 236000 32                 LDQ     251
        31 015305   000572 756000 0                  STQ     P$+1
        31 015306   000572 630400 0                  EPPR0   P$+1
        31 015307   000001 631400 32                 EPPR1   1
        31 015310   000000 701000 xent               TSX1    Z8AE$ERROR
        31 015311   000000 011000                    NOP     0

  24764 31 015312   000160 470400 0                  LDP0    CDECL$
        31 015313   000014 471500                    LDP1    12,,PR0
        31 015314   400000 236007                    LDQ     -131072,DL
PL6.E3A0      #001=Z8DR$RECORD_DECL File=Z8DR.:Z8A6TSI                           SAT 08/09/97 11:18 Page:531
        31 015315   100000 256100                    ORSQ    0,,PR1

     2826    24775                 %DELETE_CLAUSE (@CLAUSE$  = SYNC$);

  24777 31 015316   000160 236000 0                  LDQ     CDECL$
        31 015317   000014 036003                    ADLQ    12,DU
        31 015320   000572 756000 0                  STQ     P$+1
        31 015321   000572 630400 0                  EPPR0   P$+1
        31 015322   000005 631400 32                 EPPR1   5
        31 015323   000000 701000 xent               TSX1    Z8ED$DISPOSE_ABSSYN_TREE
        31 015324   000000 011000                    NOP     0

     2827    24780    6            RETURN;

  24780 31 015325   000356 221200 0                  LDX1  ! I+1
        31 015326   000001 702211                    TSX2  ! 1,X1

     2828    24781    6          END;
     2829    24782    5        IF HIER_STK.B.VALUE_PRESENTED(I) THEN

  24782 31 015327   000360 236000 0                  LDQ     I
        31 015330   000005 402007                    MPY     5,DL
        31 015331   000002 236006 xsym               LDQ     HIER_STK+2,QL
        31 015332   000020 316007                    CANQ    16,DL
        31 015333   015370 600000 31                 TZE     s:24829

     2830    24783    6          DO;

     2831    24784                 %SYNC_ERROR (@ERROR_# = %E$JUST_SYNC_UNDER_VALUE);

  24800 31 015334   000160 470400 0                  LDP0    CDECL$
        31 015335   000014 471500                    LDP1    12,,PR0
        31 015336   100000 236100                    LDQ     0,,PR1
        31 015337   400000 316007                    CANQ    -131072,DL
        31 015340   015357 601000 31                 TNZ     s:24824

  24802 31 015341   100006 633500                    EPPR3   6,,PR1
PL6.E3A0      #001=Z8DR$RECORD_DECL File=Z8DR.:Z8A6TSI                           SAT 08/09/97 11:18 Page:532
        31 015342   000574 453400 0                  STP3    P$+3
        31 015343   100005 634500                    EPPR4   5,,PR1
        31 015344   000573 454400 0                  STP4    P$+2
        31 015345   000375 236000 32                 LDQ     253
        31 015346   000572 756000 0                  STQ     P$+1
        31 015347   000572 630400 0                  EPPR0   P$+1
        31 015350   000001 631400 32                 EPPR1   1
        31 015351   000000 701000 xent               TSX1    Z8AE$ERROR
        31 015352   000000 011000                    NOP     0

  24811 31 015353   000160 470400 0                  LDP0    CDECL$
        31 015354   000014 471500                    LDP1    12,,PR0
        31 015355   400000 236007                    LDQ     -131072,DL
        31 015356   100000 256100                    ORSQ    0,,PR1

     2832    24822                 %DELETE_CLAUSE (@CLAUSE$ = SYNC$);

  24824 31 015357   000160 236000 0                  LDQ     CDECL$
        31 015360   000014 036003                    ADLQ    12,DU
        31 015361   000572 756000 0                  STQ     P$+1
        31 015362   000572 630400 0                  EPPR0   P$+1
        31 015363   000005 631400 32                 EPPR1   5
        31 015364   000000 701000 xent               TSX1    Z8ED$DISPOSE_ABSSYN_TREE
        31 015365   000000 011000                    NOP     0

     2833    24827    6            RETURN;

  24827 31 015366   000356 221200 0                  LDX1  ! I+1
        31 015367   000001 702211                    TSX2  ! 1,X1

     2834    24828    6          END;
     2835    24829    5      END;

  24829 31 015370   000360 054000 0                  AOS     I
        31 015371   000360 236000 0                  LDQ     I
        31 015372   000357 116000 0                  CMPQ    STK_OBJ
        31 015373   015266 604000 31                 TMI     s:24735
PL6.E3A0      #001=Z8DR$RECORD_DECL File=Z8DR.:Z8A6TSI                           SAT 08/09/97 11:18 Page:533

     2836    24830
     2837    24831    4      IF REDUCED_DATA.USAGE.TYPE = %RSV_WRD_INDEX THEN

  24831 31 015374   000033 235000 0                  LDA     REDUCED_DATA
        31 015375   000365 115007                    CMPA    245,DL
        31 015376   015433 601000 31                 TNZ     s:24878

     2838    24832    5        DO;

     2839    24833               %SYNC_ERROR (@ERROR_# = %E$SYNC_IN_INDEX);

  24849 31 015377   000160 470400 0                  LDP0    CDECL$
        31 015400   000014 471500                    LDP1    12,,PR0
        31 015401   100000 236100                    LDQ     0,,PR1
        31 015402   400000 316007                    CANQ    -131072,DL
        31 015403   015422 601000 31                 TNZ     s:24873

  24851 31 015404   100006 633500                    EPPR3   6,,PR1
        31 015405   000574 453400 0                  STP3    P$+3
        31 015406   100005 634500                    EPPR4   5,,PR1
        31 015407   000573 454400 0                  STP4    P$+2
        31 015410   000403 236000 32                 LDQ     259
        31 015411   000572 756000 0                  STQ     P$+1
        31 015412   000572 630400 0                  EPPR0   P$+1
        31 015413   000001 631400 32                 EPPR1   1
        31 015414   000000 701000 xent               TSX1    Z8AE$ERROR
        31 015415   000000 011000                    NOP     0

  24860 31 015416   000160 470400 0                  LDP0    CDECL$
        31 015417   000014 471500                    LDP1    12,,PR0
        31 015420   400000 236007                    LDQ     -131072,DL
        31 015421   100000 256100                    ORSQ    0,,PR1

     2840    24871               %DELETE_CLAUSE(@CLAUSE$ = SYNC$);

  24873 31 015422   000160 236000 0                  LDQ     CDECL$
PL6.E3A0      #001=Z8DR$RECORD_DECL File=Z8DR.:Z8A6TSI                           SAT 08/09/97 11:18 Page:534
        31 015423   000014 036003                    ADLQ    12,DU
        31 015424   000572 756000 0                  STQ     P$+1
        31 015425   000572 630400 0                  EPPR0   P$+1
        31 015426   000005 631400 32                 EPPR1   5
        31 015427   000000 701000 xent               TSX1    Z8ED$DISPOSE_ABSSYN_TREE
        31 015430   000000 011000                    NOP     0

     2841    24876    5          RETURN;

  24876 31 015431   000356 221200 0                  LDX1  ! I+1
        31 015432   000001 702211                    TSX2  ! 1,X1

     2842    24877    5        END;
     2843    24878    4   END VALIDATE_SYNC;

  24878 31 015433   000356 221200 0                  LDX1  ! I+1
        31 015434   000001 702211                    TSX2  ! 1,X1

     2844    24879        %EJECT;
PL6.E3A0      #001=Z8DR$RECORD_DECL File=Z8DR.:Z8A6TSI                           SAT 08/09/97 11:18 Page:535
     2845    24880        /*=================*/
     2846    24881    3     VALIDATE_EXTERNAL: PROC;

  24881 31 015435   000361 741200 0     VALIDATE_EX* STX1  ! I+1

     2847    24882        /*=================*/
     2848    24883
     2849    24884    4      DCL ST$$                PTR;
     2850    24885
     2851    24886
     2852    24887
     2853    24888    4      IF CDECL$ -> LX_REC_DECL.P.EXTERNAL$ = ADDR(NIL) THEN

  24888 31 015436   000160 470400 0                  LDP0    CDECL$
        31 015437   000015 236100                    LDQ     13,,PR0
        31 015440   000000 116000 32                 CMPQ    0
        31 015441   015443 601000 31                 TNZ     s:24891

     2854    24889    4        RETURN;

  24889 31 015442   000001 702211                    TSX2  ! 1,X1

     2855    24890
     2856    24891    4      IF NOT O1COM.DATA_DECL_CONTEXT = %WORKING_STORAGE

  24891 31 015443   000015 235000 xsym               LDA     O1COM+13
        31 015444   015450 601000 31                 TNZ     s:24910
        31 015445   000005 235000 xsym               LDA     O1COM+5
        31 015446   000001 115007                    CMPA    1,DL
        31 015447   015503 600000 31                 TZE     s:24940

     2857    24892    4         OR   O1COM.LEVEL_NO ~= %LEVEL_01 THEN
     2858    24893    5        DO;

     2859    24894               %EXTERNAL_ERROR (@ERROR_# = %E$EXTERNAL_IN_WRONG_CONTEXT);

  24910 31 015450   000015 471500                    LDP1    13,,PR0
PL6.E3A0      #001=Z8DR$RECORD_DECL File=Z8DR.:Z8A6TSI                           SAT 08/09/97 11:18 Page:536
        31 015451   100000 236100                    LDQ     0,,PR1
        31 015452   400000 316007                    CANQ    -131072,DL
        31 015453   015472 601000 31                 TNZ     s:24934

  24912 31 015454   100006 633500                    EPPR3   6,,PR1
        31 015455   000574 453400 0                  STP3    P$+3
        31 015456   100005 634500                    EPPR4   5,,PR1
        31 015457   000573 454400 0                  STP4    P$+2
        31 015460   000405 236000 32                 LDQ     261
        31 015461   000572 756000 0                  STQ     P$+1
        31 015462   000572 630400 0                  EPPR0   P$+1
        31 015463   000001 631400 32                 EPPR1   1
        31 015464   000000 701000 xent               TSX1    Z8AE$ERROR
        31 015465   000000 011000                    NOP     0

  24921 31 015466   000160 470400 0                  LDP0    CDECL$
        31 015467   000015 471500                    LDP1    13,,PR0
        31 015470   400000 236007                    LDQ     -131072,DL
        31 015471   100000 256100                    ORSQ    0,,PR1

     2860    24932               %DELETE_CLAUSE (@CLAUSE$ = EXTERNAL$);

  24934 31 015472   000160 236000 0                  LDQ     CDECL$
        31 015473   000015 036003                    ADLQ    13,DU
        31 015474   000572 756000 0                  STQ     P$+1
        31 015475   000572 630400 0                  EPPR0   P$+1
        31 015476   000005 631400 32                 EPPR1   5
        31 015477   000000 701000 xent               TSX1    Z8ED$DISPOSE_ABSSYN_TREE
        31 015500   000000 011000                    NOP     0

     2861    24937    5          RETURN;

  24937 31 015501   000361 221200 0                  LDX1  ! I+1
        31 015502   000001 702211                    TSX2  ! 1,X1

     2862    24938    5        END;
     2863    24939
PL6.E3A0      #001=Z8DR$RECORD_DECL File=Z8DR.:Z8A6TSI                           SAT 08/09/97 11:18 Page:537
     2864    24940    4      IF CDECL$ -> LX_REC_DECL.P.DATA_NAME$ = ADDR(NIL) THEN

  24940 31 015503   000002 236100                    LDQ     2,,PR0
        31 015504   000000 116000 32                 CMPQ    0
        31 015505   015541 601000 31                 TNZ     s:24988

     2865    24941    5        DO;

     2866    24942               %EXTERNAL_ERROR (@ERROR_# = %E$EXT_GLOBAL_NO_DATA_NAME);

  24958 31 015506   000015 471500                    LDP1    13,,PR0
        31 015507   100000 236100                    LDQ     0,,PR1
        31 015510   400000 316007                    CANQ    -131072,DL
        31 015511   015530 601000 31                 TNZ     s:24982

  24960 31 015512   100006 633500                    EPPR3   6,,PR1
        31 015513   000574 453400 0                  STP3    P$+3
        31 015514   100005 634500                    EPPR4   5,,PR1
        31 015515   000573 454400 0                  STP4    P$+2
        31 015516   000407 236000 32                 LDQ     263
        31 015517   000572 756000 0                  STQ     P$+1
        31 015520   000572 630400 0                  EPPR0   P$+1
        31 015521   000001 631400 32                 EPPR1   1
        31 015522   000000 701000 xent               TSX1    Z8AE$ERROR
        31 015523   000000 011000                    NOP     0

  24969 31 015524   000160 470400 0                  LDP0    CDECL$
        31 015525   000015 471500                    LDP1    13,,PR0
        31 015526   400000 236007                    LDQ     -131072,DL
        31 015527   100000 256100                    ORSQ    0,,PR1

     2867    24980               %DELETE_CLAUSE  (@CLAUSE$ = EXTERNAL$);

  24982 31 015530   000160 236000 0                  LDQ     CDECL$
        31 015531   000015 036003                    ADLQ    13,DU
        31 015532   000572 756000 0                  STQ     P$+1
        31 015533   000572 630400 0                  EPPR0   P$+1
PL6.E3A0      #001=Z8DR$RECORD_DECL File=Z8DR.:Z8A6TSI                           SAT 08/09/97 11:18 Page:538
        31 015534   000005 631400 32                 EPPR1   5
        31 015535   000000 701000 xent               TSX1    Z8ED$DISPOSE_ABSSYN_TREE
        31 015536   000000 011000                    NOP     0

     2868    24985    5          RETURN;

  24985 31 015537   000361 221200 0                  LDX1  ! I+1
        31 015540   000001 702211                    TSX2  ! 1,X1

     2869    24986    5        END;
     2870    24987
     2871    24988    4      IF CDECL$ -> LX_REC_DECL.P.REDEFINES$ ~= ADDR(NIL) THEN

  24988 31 015541   000005 236100                    LDQ     5,,PR0
        31 015542   000000 116000 32                 CMPQ    0
        31 015543   015577 600000 31                 TZE     s:25036

     2872    24989    5        DO;

     2873    24990               %EXTERNAL_ERROR (@ERROR_# = %E$EXTERNAL_AND_REDEFINES);

  25006 31 015544   000015 471500                    LDP1    13,,PR0
        31 015545   100000 236100                    LDQ     0,,PR1
        31 015546   400000 316007                    CANQ    -131072,DL
        31 015547   015566 601000 31                 TNZ     s:25030

  25008 31 015550   100006 633500                    EPPR3   6,,PR1
        31 015551   000574 453400 0                  STP3    P$+3
        31 015552   100005 634500                    EPPR4   5,,PR1
        31 015553   000573 454400 0                  STP4    P$+2
        31 015554   000411 236000 32                 LDQ     265
        31 015555   000572 756000 0                  STQ     P$+1
        31 015556   000572 630400 0                  EPPR0   P$+1
        31 015557   000001 631400 32                 EPPR1   1
        31 015560   000000 701000 xent               TSX1    Z8AE$ERROR
        31 015561   000000 011000                    NOP     0

PL6.E3A0      #001=Z8DR$RECORD_DECL File=Z8DR.:Z8A6TSI                           SAT 08/09/97 11:18 Page:539
  25017 31 015562   000160 470400 0                  LDP0    CDECL$
        31 015563   000015 471500                    LDP1    13,,PR0
        31 015564   400000 236007                    LDQ     -131072,DL
        31 015565   100000 256100                    ORSQ    0,,PR1

     2874    25028               %DELETE_CLAUSE  (@CLAUSE$ = EXTERNAL$);

  25030 31 015566   000160 236000 0                  LDQ     CDECL$
        31 015567   000015 036003                    ADLQ    13,DU
        31 015570   000572 756000 0                  STQ     P$+1
        31 015571   000572 630400 0                  EPPR0   P$+1
        31 015572   000005 631400 32                 EPPR1   5
        31 015573   000000 701000 xent               TSX1    Z8ED$DISPOSE_ABSSYN_TREE
        31 015574   000000 011000                    NOP     0

     2875    25033    5          RETURN;

  25033 31 015575   000361 221200 0                  LDX1  ! I+1
        31 015576   000001 702211                    TSX2  ! 1,X1

     2876    25034    5        END;
     2877    25035
     2878    25036    4      ST$$ = CDECL$ -> LX_REC_DECL.P.DATA_NAME$ -> LX_ITEM.DNT$ -> DNT.ST$;

  25036 31 015577   000002 471500                    LDP1    2,,PR0
        31 015600   100002 473500                    LDP3    2,,PR1
        31 015601   300001 236100                    LDQ     1,,PR3
        31 015602   000362 756000 0                  STQ     ST$$

     2879    25037
     2880    25038    5      DO WHILE ( ST$$ ~= ADDR(NIL));

  25038 31 015603   015651 710000 31                 TRA     s:25088

     2881    25039    5        IF ST$$ -> VARIABLE.B.EXTERNAL

  25039 31 015604   000362 470400 0                  LDP0    ST$$
PL6.E3A0      #001=Z8DR$RECORD_DECL File=Z8DR.:Z8A6TSI                           SAT 08/09/97 11:18 Page:540
        31 015605   000003 236100                    LDQ     3,,PR0
        31 015606   000004 316003                    CANQ    4,DU
        31 015607   015647 600000 31                 TZE     s:25087
        31 015610   000011 236100                    LDQ     9,,PR0
        31 015611   000057 116000 xsym               CMPQ    O1COM+47
        31 015612   015647 601000 31                 TNZ     s:25087

     2882    25040    5        AND ST$$ -> VARIABLE.PROC$ = O1COM.CURRENT_PROC$ THEN
     2883    25041    6          DO;

     2884    25042                 %EXTERNAL_ERROR (@ERROR_# = %E$SAME_EXTERNAL_NAMES);

  25058 31 015613   000160 471400 0                  LDP1    CDECL$
        31 015614   100015 473500                    LDP3    13,,PR1
        31 015615   300000 236100                    LDQ     0,,PR3
        31 015616   400000 316007                    CANQ    -131072,DL
        31 015617   015636 601000 31                 TNZ     s:25082

  25060 31 015620   300006 634500                    EPPR4   6,,PR3
        31 015621   000574 454400 0                  STP4    P$+3
        31 015622   300005 635500                    EPPR5   5,,PR3
        31 015623   000573 455400 0                  STP5    P$+2
        31 015624   000413 236000 32                 LDQ     267
        31 015625   000572 756000 0                  STQ     P$+1
        31 015626   000572 630400 0                  EPPR0   P$+1
        31 015627   000001 631400 32                 EPPR1   1
        31 015630   000000 701000 xent               TSX1    Z8AE$ERROR
        31 015631   000000 011000                    NOP     0

  25069 31 015632   000160 470400 0                  LDP0    CDECL$
        31 015633   000015 471500                    LDP1    13,,PR0
        31 015634   400000 236007                    LDQ     -131072,DL
        31 015635   100000 256100                    ORSQ    0,,PR1

     2885    25080                 %DELETE_CLAUSE (@CLAUSE$ = EXTERNAL$);

  25082 31 015636   000160 236000 0                  LDQ     CDECL$
PL6.E3A0      #001=Z8DR$RECORD_DECL File=Z8DR.:Z8A6TSI                           SAT 08/09/97 11:18 Page:541
        31 015637   000015 036003                    ADLQ    13,DU
        31 015640   000572 756000 0                  STQ     P$+1
        31 015641   000572 630400 0                  EPPR0   P$+1
        31 015642   000005 631400 32                 EPPR1   5
        31 015643   000000 701000 xent               TSX1    Z8ED$DISPOSE_ABSSYN_TREE
        31 015644   000000 011000                    NOP     0

     2886    25085    6            RETURN;

  25085 31 015645   000361 221200 0                  LDX1  ! I+1
        31 015646   000001 702211                    TSX2  ! 1,X1

     2887    25086    6          END;
     2888    25087    5         ST$$ = ST$$ -> ST.NEXT;

  25087 31 015647   000004 236100                    LDQ     4,,PR0
        31 015650   000362 756000 0                  STQ     ST$$

     2889    25088    5       END;

  25088 31 015651   000000 116000 32                 CMPQ    0
        31 015652   015604 601000 31                 TNZ     s:25039

     2890    25089
     2891    25090    4      REDUCED_DATA.B.EXTERNAL = TRUE;

  25090 31 015653   020000 236007                    LDQ     8192,DL
        31 015654   000060 256000 0                  ORSQ    REDUCED_DATA+21

     2892    25091
     2893    25092    4   END VALIDATE_EXTERNAL;

  25092 31 015655   000361 221200 0                  LDX1  ! I+1
        31 015656   000001 702211                    TSX2  ! 1,X1

     2894    25093        %EJECT;
PL6.E3A0      #001=Z8DR$RECORD_DECL File=Z8DR.:Z8A6TSI                           SAT 08/09/97 11:18 Page:542
     2895    25094        /*===============*/
     2896    25095    3     VALIDATE_GLOBAL: PROC;

  25095 31 015657   000363 741200 0     VALIDATE_GL* STX1  ! ST$$+1

     2897    25096        /*===============*/
     2898    25097
     2899    25098    4      DCL ST$$            PTR;
     2900    25099
     2901    25100    4      IF NOT (O1COM.DATA_DECL_CONTEXT = %WORKING_STORAGE

  25100 31 015660   000015 235000 xsym               LDA     O1COM+13
        31 015661   015664 600000 31                 TZE     s:25100+4
        31 015662   000001 115007                    CMPA    1,DL
        31 015663   015667 601000 31                 TNZ     s:25119
        31 015664   000005 236000 xsym               LDQ     O1COM+5
        31 015665   000001 116007                    CMPQ    1,DL
        31 015666   015712 600000 31                 TZE     s:25142

     2902    25101    4         OR   O1COM.DATA_DECL_CONTEXT = %FILE_DESCRIPTION)
     2903    25102    4         OR  O1COM.LEVEL_NO ~= %LEVEL_01 THEN
     2904    25103             %GLOBAL_ERROR (@ERROR_# = %E$GLOBAL_IN_WRONG_CONTEXT);

  25119 31 015667   000160 470400 0                  LDP0    CDECL$
        31 015670   000013 471500                    LDP1    11,,PR0
        31 015671   100000 236100                    LDQ     0,,PR1
        31 015672   400000 316007                    CANQ    -131072,DL
        31 015673   015712 601000 31                 TNZ     s:25142

  25121 31 015674   100006 633500                    EPPR3   6,,PR1
        31 015675   000574 453400 0                  STP3    P$+3
        31 015676   100005 634500                    EPPR4   5,,PR1
        31 015677   000573 454400 0                  STP4    P$+2
        31 015700   000415 236000 32                 LDQ     269
        31 015701   000572 756000 0                  STQ     P$+1
        31 015702   000572 630400 0                  EPPR0   P$+1
        31 015703   000001 631400 32                 EPPR1   1
PL6.E3A0      #001=Z8DR$RECORD_DECL File=Z8DR.:Z8A6TSI                           SAT 08/09/97 11:18 Page:543
        31 015704   000000 701000 xent               TSX1    Z8AE$ERROR
        31 015705   000000 011000                    NOP     0

  25130 31 015706   000160 470400 0                  LDP0    CDECL$
        31 015707   000013 471500                    LDP1    11,,PR0
        31 015710   400000 236007                    LDQ     -131072,DL
        31 015711   100000 256100                    ORSQ    0,,PR1

     2905    25141
     2906    25142    4      ST$$ = CDECL$ -> LX_REC_DECL.P.DATA_NAME$ -> LX_ITEM.DNT$ -> DNT.ST$;

  25142 31 015712   000160 470400 0                  LDP0    CDECL$
        31 015713   000002 471500                    LDP1    2,,PR0
        31 015714   100002 473500                    LDP3    2,,PR1
        31 015715   300001 236100                    LDQ     1,,PR3
        31 015716   000364 756000 0                  STQ     ST$$

     2907    25143
     2908    25144    5      DO WHILE (ST$$ ~= ADDR(NIL));

  25144 31 015717   015765 710000 31                 TRA     s:25195

     2909    25145    5        IF ST$$ -> VARIABLE.B.GLOBAL

  25145 31 015720   000364 470400 0                  LDP0    ST$$
        31 015721   000003 236100                    LDQ     3,,PR0
        31 015722   000010 316003                    CANQ    8,DU
        31 015723   015763 600000 31                 TZE     s:25194
        31 015724   000011 236100                    LDQ     9,,PR0
        31 015725   000057 116000 xsym               CMPQ    O1COM+47
        31 015726   015763 601000 31                 TNZ     s:25194

     2910    25146    5        AND ST$$ -> VARIABLE.PROC$ = O1COM.CURRENT_PROC$ THEN
     2911    25147    6          DO;

     2912    25148                 %GLOBAL_ERROR (@ERROR_# = %E$SAME_GLOBAL_NAMES);

PL6.E3A0      #001=Z8DR$RECORD_DECL File=Z8DR.:Z8A6TSI                           SAT 08/09/97 11:18 Page:544
  25164 31 015727   000160 471400 0                  LDP1    CDECL$
        31 015730   100013 473500                    LDP3    11,,PR1
        31 015731   300000 236100                    LDQ     0,,PR3
        31 015732   400000 316007                    CANQ    -131072,DL
        31 015733   015752 601000 31                 TNZ     s:25188

  25166 31 015734   300006 634500                    EPPR4   6,,PR3
        31 015735   000574 454400 0                  STP4    P$+3
        31 015736   300005 635500                    EPPR5   5,,PR3
        31 015737   000573 455400 0                  STP5    P$+2
        31 015740   000417 236000 32                 LDQ     271
        31 015741   000572 756000 0                  STQ     P$+1
        31 015742   000572 630400 0                  EPPR0   P$+1
        31 015743   000001 631400 32                 EPPR1   1
        31 015744   000000 701000 xent               TSX1    Z8AE$ERROR
        31 015745   000000 011000                    NOP     0

  25175 31 015746   000160 470400 0                  LDP0    CDECL$
        31 015747   000013 471500                    LDP1    11,,PR0
        31 015750   400000 236007                    LDQ     -131072,DL
        31 015751   100000 256100                    ORSQ    0,,PR1

     2913    25186                 %DELETE_CLAUSE (@CLAUSE$ = GLOBAL$);

  25188 31 015752   000160 236000 0                  LDQ     CDECL$
        31 015753   000013 036003                    ADLQ    11,DU
        31 015754   000572 756000 0                  STQ     P$+1
        31 015755   000572 630400 0                  EPPR0   P$+1
        31 015756   000005 631400 32                 EPPR1   5
        31 015757   000000 701000 xent               TSX1    Z8ED$DISPOSE_ABSSYN_TREE
        31 015760   000000 011000                    NOP     0

     2914    25191    6            RETURN;

  25191 31 015761   000363 221200 0                  LDX1  ! ST$$+1
        31 015762   000001 702211                    TSX2  ! 1,X1

PL6.E3A0      #001=Z8DR$RECORD_DECL File=Z8DR.:Z8A6TSI                           SAT 08/09/97 11:18 Page:545
     2915    25192    6          END;
     2916    25193
     2917    25194    5        ST$$ = ST$$ -> ST.NEXT;

  25194 31 015763   000004 236100                    LDQ     4,,PR0
        31 015764   000364 756000 0                  STQ     ST$$

     2918    25195    5      END; /* While */

  25195 31 015765   000000 116000 32                 CMPQ    0
        31 015766   015720 601000 31                 TNZ     s:25145

     2919    25196
     2920    25197
     2921    25198    4      REDUCED_DATA.B.GLOBAL = TRUE;

  25198 31 015767   010000 236007                    LDQ     4096,DL
        31 015770   000060 256000 0                  ORSQ    REDUCED_DATA+21

     2922    25199
     2923    25200    4   END VALIDATE_GLOBAL;

  25200 31 015771   000363 221200 0                  LDX1  ! ST$$+1
        31 015772   000001 702211                    TSX2  ! 1,X1

     2924    25201        %EJECT;
PL6.E3A0      #001=Z8DR$RECORD_DECL File=Z8DR.:Z8A6TSI                           SAT 08/09/97 11:18 Page:546
     2925    25202        /*===================*/
     2926    25203    3     VALIDATE_BLANK_ZERO: PROC;

  25203 31 015773   000365 741200 0     VALIDATE_BL* STX1  ! ST$$+1

     2927    25204        /*===================*/
     2928    25205
     2929    25206
     2930    25207
     2931    25208
     2932    25209
     2933    25210    4      IF NOT REDUCED_DATA.B.ELEMENTARY THEN

  25210 31 015774   000060 234000 0                  SZN     REDUCED_DATA+21
        31 015775   016032 604000 31                 TMI     s:25258

     2934    25211    5        DO;

     2935    25212               %BLANK_ERROR (@ERROR_# = %E$BWZ_NOT_ELEMENTARY);

  25228 31 015776   000160 470400 0                  LDP0    CDECL$
        31 015777   000012 471500                    LDP1    10,,PR0
        31 016000   100000 236100                    LDQ     0,,PR1
        31 016001   400000 316007                    CANQ    -131072,DL
        31 016002   016021 601000 31                 TNZ     s:25252

  25230 31 016003   100006 633500                    EPPR3   6,,PR1
        31 016004   000574 453400 0                  STP3    P$+3
        31 016005   100005 634500                    EPPR4   5,,PR1
        31 016006   000573 454400 0                  STP4    P$+2
        31 016007   000421 236000 32                 LDQ     273
        31 016010   000572 756000 0                  STQ     P$+1
        31 016011   000572 630400 0                  EPPR0   P$+1
        31 016012   000001 631400 32                 EPPR1   1
        31 016013   000000 701000 xent               TSX1    Z8AE$ERROR
        31 016014   000000 011000                    NOP     0

PL6.E3A0      #001=Z8DR$RECORD_DECL File=Z8DR.:Z8A6TSI                           SAT 08/09/97 11:18 Page:547
  25239 31 016015   000160 470400 0                  LDP0    CDECL$
        31 016016   000012 471500                    LDP1    10,,PR0
        31 016017   400000 236007                    LDQ     -131072,DL
        31 016020   100000 256100                    ORSQ    0,,PR1

     2936    25250               %DELETE_CLAUSE (@CLAUSE$ = BLANK$);

  25252 31 016021   000160 236000 0                  LDQ     CDECL$
        31 016022   000012 036003                    ADLQ    10,DU
        31 016023   000572 756000 0                  STQ     P$+1
        31 016024   000572 630400 0                  EPPR0   P$+1
        31 016025   000005 631400 32                 EPPR1   5
        31 016026   000000 701000 xent               TSX1    Z8ED$DISPOSE_ABSSYN_TREE
        31 016027   000000 011000                    NOP     0

     2937    25255    5          RETURN;

  25255 31 016030   000365 221200 0                  LDX1  ! ST$$+1
        31 016031   000001 702211                    TSX2  ! 1,X1

     2938    25256    5        END;
     2939    25257
     2940    25258    4      IF CDECL$ -> LX_REC_DECL.P.PIC_CLAUSE$ = ADDR(NIL) THEN

  25258 31 016032   000160 470400 0                  LDP0    CDECL$
        31 016033   000004 236100                    LDQ     4,,PR0
        31 016034   000000 116000 32                 CMPQ    0
        31 016035   016070 601000 31                 TNZ     s:25305

     2941    25259    5        DO;

     2942    25260               %BLANK_ERROR   (@ERROR_# = %E$NO_PIC_WITH_BWZ);

  25276 31 016036   000012 471500                    LDP1    10,,PR0
        31 016037   100000 236100                    LDQ     0,,PR1
        31 016040   400000 316007                    CANQ    -131072,DL
        31 016041   016060 601000 31                 TNZ     s:25300
PL6.E3A0      #001=Z8DR$RECORD_DECL File=Z8DR.:Z8A6TSI                           SAT 08/09/97 11:18 Page:548

  25278 31 016042   100006 633500                    EPPR3   6,,PR1
        31 016043   000574 453400 0                  STP3    P$+3
        31 016044   100005 634500                    EPPR4   5,,PR1
        31 016045   000573 454400 0                  STP4    P$+2
        31 016046   000423 236000 32                 LDQ     275
        31 016047   000572 756000 0                  STQ     P$+1
        31 016050   000572 630400 0                  EPPR0   P$+1
        31 016051   000001 631400 32                 EPPR1   1
        31 016052   000000 701000 xent               TSX1    Z8AE$ERROR
        31 016053   000000 011000                    NOP     0

  25287 31 016054   000160 470400 0                  LDP0    CDECL$
        31 016055   000012 471500                    LDP1    10,,PR0
        31 016056   400000 236007                    LDQ     -131072,DL
        31 016057   100000 256100                    ORSQ    0,,PR1

     2943    25298               %DELETE_CLAUSE (@CLAUSE$ = BLANK$);

  25300 31 016060   000160 236000 0                  LDQ     CDECL$
        31 016061   000012 036003                    ADLQ    10,DU
        31 016062   000572 756000 0                  STQ     P$+1
        31 016063   000572 630400 0                  EPPR0   P$+1
        31 016064   000005 631400 32                 EPPR1   5
        31 016065   000000 701000 xent               TSX1    Z8ED$DISPOSE_ABSSYN_TREE
        31 016066   000000 011000                    NOP     0

     2944    25303    5        END;

  25303 31 016067   016171 710000 31                 TRA     s:25404

     2945    25304    4      ELSE
     2946    25305    4        IF REDUCED_DATA.USAGE.TYPE ~= %NO_USAGE AND

  25305 31 016070   000033 235000 0                  LDA     REDUCED_DATA
        31 016071   016130 600000 31                 TZE     s:25354
        31 016072   000332 115007                    CMPA    218,DL
PL6.E3A0      #001=Z8DR$RECORD_DECL File=Z8DR.:Z8A6TSI                           SAT 08/09/97 11:18 Page:549
        31 016073   016130 600000 31                 TZE     s:25354
        31 016074   000236 115007                    CMPA    158,DL
        31 016075   016130 600000 31                 TZE     s:25354

     2947    25306    4            REDUCED_DATA.USAGE.TYPE ~= %RSV_WRD_GBCD AND
     2948    25307    4            REDUCED_DATA.USAGE.TYPE ~= %RSV_WRD_EBCDIC THEN
     2949    25308    5          DO;

     2950    25309                 %BLANK_ERROR   (@ERROR_# = %E$BWZ_MUST_BE_DISPLAY);

  25325 31 016076   000012 471500                    LDP1    10,,PR0
        31 016077   100000 236100                    LDQ     0,,PR1
        31 016100   400000 316007                    CANQ    -131072,DL
        31 016101   016120 601000 31                 TNZ     s:25349

  25327 31 016102   100006 633500                    EPPR3   6,,PR1
        31 016103   000574 453400 0                  STP3    P$+3
        31 016104   100005 634500                    EPPR4   5,,PR1
        31 016105   000573 454400 0                  STP4    P$+2
        31 016106   000425 236000 32                 LDQ     277
        31 016107   000572 756000 0                  STQ     P$+1
        31 016110   000572 630400 0                  EPPR0   P$+1
        31 016111   000001 631400 32                 EPPR1   1
        31 016112   000000 701000 xent               TSX1    Z8AE$ERROR
        31 016113   000000 011000                    NOP     0

  25336 31 016114   000160 470400 0                  LDP0    CDECL$
        31 016115   000012 471500                    LDP1    10,,PR0
        31 016116   400000 236007                    LDQ     -131072,DL
        31 016117   100000 256100                    ORSQ    0,,PR1

     2951    25347                 %DELETE_CLAUSE (@CLAUSE$ = BLANK$);

  25349 31 016120   000160 236000 0                  LDQ     CDECL$
        31 016121   000012 036003                    ADLQ    10,DU
        31 016122   000572 756000 0                  STQ     P$+1
        31 016123   000572 630400 0                  EPPR0   P$+1
PL6.E3A0      #001=Z8DR$RECORD_DECL File=Z8DR.:Z8A6TSI                           SAT 08/09/97 11:18 Page:550
        31 016124   000005 631400 32                 EPPR1   5
        31 016125   000000 701000 xent               TSX1    Z8ED$DISPOSE_ABSSYN_TREE
        31 016126   000000 011000                    NOP     0

     2952    25352    5          END;

  25352 31 016127   016171 710000 31                 TRA     s:25404

     2953    25353    4        ELSE
     2954    25354    4          IF PIC_OUT.TYPE = %PIC_TY_N THEN

  25354 31 016130   000002 220000 28                 LDX0    PIC_OUT+2
        31 016131   000005 100003                    CMPX0   5,DU
        31 016132   016136 601000 31                 TNZ     s:25357

     2955    25355    4            PIC_OUT.TYPE = %PIC_TY_NE;

  25355 31 016133   000006 222003                    LDX2    6,DU
        31 016134   000002 742000 28                 STX2    PIC_OUT+2
        31 016135   016171 710000 31                 TRA     s:25404

     2956    25356    4          ELSE
     2957    25357    4            IF PIC_OUT.TYPE ~= %PIC_TY_NE THEN

  25357 31 016136   000006 100003                    CMPX0   6,DU
        31 016137   016171 600000 31                 TZE     s:25404

     2958    25358    5              DO;

     2959    25359                     %BLANK_ERROR   (@ERROR_# = %E$BWZ_MUST_BE_DISPLAY);

  25375 31 016140   000012 471500                    LDP1    10,,PR0
        31 016141   100000 236100                    LDQ     0,,PR1
        31 016142   400000 316007                    CANQ    -131072,DL
        31 016143   016162 601000 31                 TNZ     s:25399

  25377 31 016144   100006 633500                    EPPR3   6,,PR1
PL6.E3A0      #001=Z8DR$RECORD_DECL File=Z8DR.:Z8A6TSI                           SAT 08/09/97 11:18 Page:551
        31 016145   000574 453400 0                  STP3    P$+3
        31 016146   100005 634500                    EPPR4   5,,PR1
        31 016147   000573 454400 0                  STP4    P$+2
        31 016150   000425 236000 32                 LDQ     277
        31 016151   000572 756000 0                  STQ     P$+1
        31 016152   000572 630400 0                  EPPR0   P$+1
        31 016153   000001 631400 32                 EPPR1   1
        31 016154   000000 701000 xent               TSX1    Z8AE$ERROR
        31 016155   000000 011000                    NOP     0

  25386 31 016156   000160 470400 0                  LDP0    CDECL$
        31 016157   000012 471500                    LDP1    10,,PR0
        31 016160   400000 236007                    LDQ     -131072,DL
        31 016161   100000 256100                    ORSQ    0,,PR1

     2960    25397                     %DELETE_CLAUSE (@CLAUSE$ = BLANK$);

  25399 31 016162   000160 236000 0                  LDQ     CDECL$
        31 016163   000012 036003                    ADLQ    10,DU
        31 016164   000572 756000 0                  STQ     P$+1
        31 016165   000572 630400 0                  EPPR0   P$+1
        31 016166   000005 631400 32                 EPPR1   5
        31 016167   000000 701000 xent               TSX1    Z8ED$DISPOSE_ABSSYN_TREE
        31 016170   000000 011000                    NOP     0

     2961    25402    5              END;

     2962    25403
     2963    25404    4   END VALIDATE_BLANK_ZERO;

  25404 31 016171   000365 221200 0                  LDX1  ! ST$$+1
        31 016172   000001 702211                    TSX2  ! 1,X1

     2964    25405        %EJECT;
PL6.E3A0      #001=Z8DR$RECORD_DECL File=Z8DR.:Z8A6TSI                           SAT 08/09/97 11:18 Page:552
     2965    25406        /*================*/
     2966    25407    3     QUALIFY_VARIABLE: PROC (QUAL_ID$, FATHER$, ST$) ALTRET;

  25407 31 016173   000366 741200 0     QUALIFY_VAR* STX1  ! ST$$+2

     2967    25408        /*================*/
     2968    25409
     2969    25410    4   DCL QUAL_ID$ PTR;
     2970    25411    4   DCL ST$ PTR;
     2971    25412    4   DCL FATHER$                   PTR;
     2972    25413    4   DCL CURRENT_QLT$              PTR;
     2973    25414
     2974    25415    4   DCL LIST$                     PTR;
     2975    25416    4   DCL CURRENT_FATHER$           PTR;
     2976    25417    4   DCL CURRENT_ST$               PTR;
     2977    25418
     2978    25419    4   DCL QUALIFIED                 BOOLEAN;
     2979    25420
     2980    25421    4    QUALIFIED   = FALSE;

  25421 31 016174   000376 450000 0                  STZ     QUALIFIED

     2981    25422    4    LIST$       = QUAL_ID$ -> LX_LIST.HEAD$;

  25422 31 016175   000367 470400 0                  LDP0    @QUAL_ID$
        31 016176   000000 471500                    LDP1    0,,PR0
        31 016177   100004 236100                    LDQ     4,,PR1
        31 016200   000373 756000 0                  STQ     LIST$

     2982    25423    4    CURRENT_ST$ = LIST$ -> LX_ITEM.DNT$ -> DNT.ST$;

  25423 31 016201   000373 473400 0                  LDP3    LIST$
        31 016202   300002 474500                    LDP4    2,,PR3
        31 016203   400001 236100                    LDQ     1,,PR4
        31 016204   000375 756000 0                  STQ     CURRENT_ST$

     2983    25424    4    ST$         = CURRENT_ST$;
PL6.E3A0      #001=Z8DR$RECORD_DECL File=Z8DR.:Z8A6TSI                           SAT 08/09/97 11:18 Page:553

  25424 31 016205   000371 475400 0                  LDP5    @ST$
        31 016206   500000 756100                    STQ     0,,PR5

     2984    25425
     2985    25426    4    IF CURRENT_ST$ = ADDR(NIL) THEN

  25426 31 016207   000000 116000 32                 CMPQ    0
        31 016210   016231 601000 31                 TNZ     s:25435

     2986    25427    5      DO;

     2987    25428    5        CALL Z8AE$ERROR (%E$UNDECLARED_DATA_NAME,

  25428 31 016211   000373 236000 0                  LDQ     LIST$
        31 016212   000002 036003                    ADLQ    2,DU
        31 016213   000575 756000 0                  STQ     P$+4
        31 016214   000373 236000 0                  LDQ     LIST$
        31 016215   000006 036003                    ADLQ    6,DU
        31 016216   000574 756000 0                  STQ     P$+3
        31 016217   000373 236000 0                  LDQ     LIST$
        31 016220   000005 036003                    ADLQ    5,DU
        31 016221   000427 235000 32                 LDA     279
        31 016222   000572 757000 0                  STAQ    P$+1
        31 016223   000572 630400 0                  EPPR0   P$+1
        31 016224   000076 631400 32                 EPPR1   62
        31 016225   000000 701000 xent               TSX1    Z8AE$ERROR
        31 016226   000000 011000                    NOP     0

     2988    25429    5                         LIST$ -> LX_ITEM.LINE,
     2989    25430    5                         LIST$ -> LX_ITEM.COLUMN,
     2990    25431    5                         LIST$ -> LX_ITEM.DNT$);
     2991    25432    5        ALTRETURN;

  25432 31 016227   000366 221200 0                  LDX1  ! ST$$+2
        31 016230   000000 702211                    TSX2  ! 0,X1

PL6.E3A0      #001=Z8DR$RECORD_DECL File=Z8DR.:Z8A6TSI                           SAT 08/09/97 11:18 Page:554
     2992    25433    5      END;
     2993    25434
     2994    25435    4    IF  ST$ -> ST.ID ~= %SCALAR AND

  25435 31 016231   500000 471500                    LDP1    0,,PR5
        31 016232   100000 220100                    LDX0    0,,PR1
        31 016233   000766 100003                    CMPX0   502,DU
        31 016234   016257 600000 31                 TZE     s:25448
        31 016235   000765 100003                    CMPX0   501,DU
        31 016236   016257 600000 31                 TZE     s:25448

     2995    25436    4          ST$ -> ST.ID ~= %ARRAY  THEN
     2996    25437    5      DO;

     2997    25438    5        CALL Z8AE$ERROR (%E$ILLEGAL_SYMBOL,

  25438 31 016237   000373 236000 0                  LDQ     LIST$
        31 016240   000002 036003                    ADLQ    2,DU
        31 016241   000575 756000 0                  STQ     P$+4
        31 016242   000373 236000 0                  LDQ     LIST$
        31 016243   000006 036003                    ADLQ    6,DU
        31 016244   000574 756000 0                  STQ     P$+3
        31 016245   000373 236000 0                  LDQ     LIST$
        31 016246   000005 036003                    ADLQ    5,DU
        31 016247   000100 235000 32                 LDA     64
        31 016250   000572 757000 0                  STAQ    P$+1
        31 016251   000572 630400 0                  EPPR0   P$+1
        31 016252   000076 631400 32                 EPPR1   62
        31 016253   000000 701000 xent               TSX1    Z8AE$ERROR
        31 016254   000000 011000                    NOP     0

     2998    25439    5                         LIST$ -> LX_ITEM.LINE,
     2999    25440    5                         LIST$ -> LX_ITEM.COLUMN,
     3000    25441    5                         LIST$ -> LX_ITEM.DNT$);
     3001    25442    5        ALTRETURN;

  25442 31 016255   000366 221200 0                  LDX1  ! ST$$+2
PL6.E3A0      #001=Z8DR$RECORD_DECL File=Z8DR.:Z8A6TSI                           SAT 08/09/97 11:18 Page:555
        31 016256   000000 702211                    TSX2  ! 0,X1

     3002    25443    5      END;
     3003    25444
     3004    25445    5    DO UNTIL (CURRENT_ST$ = ADDR(NIL) OR

     3005    25446    5              CURRENT_ST$ -> SCALAR.PROC$ ~= O1COM.CURRENT_PROC$);
     3006    25447
     3007    25448    5      CURRENT_FATHER$ = CURRENT_ST$ -> SCALAR.QLT$ -> QLT.FATHER;

  25448 31 016257   000375 470400 0                  LDP0    CURRENT_ST$
        31 016260   000007 471500                    LDP1    7,,PR0
        31 016261   100001 236100                    LDQ     1,,PR1
        31 016262   000374 756000 0                  STQ     CURRENT_FATHER$

     3008    25449
     3009    25450    6      DO WHILE (CURRENT_FATHER$ ~= ADDR(NIL) AND

  25450 31 016263   016301 710000 31                 TRA     s:25459

     3010    25451    6                LIST$ -> LX_ITEM.LINK ~= ADDR(NIL));
     3011    25452
     3012    25453    6        IF CURRENT_FATHER$ -> QLT.ST$ -> SCALAR.DNT$ -> DNT.ST$

  25453 31 016264   000374 470400 0                  LDP0    CURRENT_FATHER$
        31 016265   000004 471500                    LDP1    4,,PR0
        31 016266   100006 473500                    LDP3    6,,PR1
        31 016267   000373 474400 0                  LDP4    LIST$
        31 016270   400007 475500                    LDP5    7,,PR4
        31 016271   500002 476500                    LDP6    2,,PR5
        31 016272   300001 236100                    LDQ     1,,PR3
        31 016273   600001 116100                    CMPQ    1,,PR6
        31 016274   016277 601000 31                 TNZ     s:25457

     3013    25454    6           = LIST$ -> LX_ITEM.LINK -> LX_ITEM.DNT$ -> DNT.ST$ THEN
     3014    25455    6          LIST$ = LIST$ -> LX_ITEM.LINK;

PL6.E3A0      #001=Z8DR$RECORD_DECL File=Z8DR.:Z8A6TSI                           SAT 08/09/97 11:18 Page:556
  25455 31 016275   400007 236100                    LDQ     7,,PR4
        31 016276   000373 756000 0                  STQ     LIST$

     3015    25456
     3016    25457    6        CURRENT_FATHER$ = CURRENT_FATHER$ -> QLT.FATHER;

  25457 31 016277   000001 236100                    LDQ     1,,PR0
        31 016300   000374 756000 0                  STQ     CURRENT_FATHER$

     3017    25458
     3018    25459    6      END; /* While -- current_father$ ~= nil and list$->lx_item.next ~= nil */

  25459 31 016301   000000 116000 32                 CMPQ    0
        31 016302   016307 600000 31                 TZE     s:25461
        31 016303   000373 470400 0                  LDP0    LIST$
        31 016304   000007 236100                    LDQ     7,,PR0
        31 016305   000000 116000 32                 CMPQ    0
        31 016306   016264 601000 31                 TNZ     s:25453

     3019    25460
     3020    25461    5      IF LIST$ = QUAL_ID$ -> LX_LIST.TAIL$ THEN

  25461 31 016307   000367 470400 0                  LDP0    @QUAL_ID$
        31 016310   000000 471500                    LDP1    0,,PR0
        31 016311   000373 236000 0                  LDQ     LIST$
        31 016312   100001 116100                    CMPQ    1,,PR1
        31 016313   016375 601000 31                 TNZ     s:25494

     3021    25462    6        DO;

     3022    25463    6          CURRENT_QLT$ = CURRENT_ST$ -> SCALAR.QLT$;

  25463 31 016314   000375 473400 0                  LDP3    CURRENT_ST$
        31 016315   300007 236100                    LDQ     7,,PR3
        31 016316   000372 756000 0                  STQ     CURRENT_QLT$

     3023    25464
