PL6.E3A0      #003=Z8DT$REPORT_WRAPUP File=Z8DT.:Z8A6TSI                         SAT 08/09/97 11:31 Page:528
     3366        1        /*T***********************************************************/
     3367        2        /*T*                                                         */
     3368        3        /*T* Copyright (c) Bull HN Information Systems Inc., 1997    */
     3369        4        /*T*                                                         */
     3370        5        /*T***********************************************************/
     3371        6
     3372        7        /*M*  Z8DT$REPORT_WRAPUP---Wrapup the REPORT descriptions */
     3373        8
     3374        9
     3375       10        /*P*
     3376       11               NAME:  Z8DT$REPORT_WRAPUP
     3377       12             AUTHOR:  Min Lee.
     3378       13            PURPOSE:  Wrapup the REPORT SECTION  and REPORT run time tables.
     3379       14
     3380       15        */
     3381       16
     3382       17        /*D*
     3383       18               NAME:  Z8DT$REPORT_WRAPUP
     3384       19               CALL:  CALL Z8DT$REPORT_WRAPUP
     3385       20              INPUT:  COMCOM.FILE_LTS_CHAIN$---Used for searching the report
     3386       21                      files.
     3387       22
     3388       23        DESCRIPTION:  This routine will flag some error in the report file,
     3389       24                      creates the output buffer for the report file, creates
     3390       25                      the run time table for each report, create run time table
     3391       26                      for each report group and preset some fields of these
     3392       27                      tables.
     3393       28         */
     3394       29         %EJECT;
PL6.E3A0      #003=Z8DT$REPORT_WRAPUP File=Z8DT.:Z8A6TSI                         SAT 08/09/97 11:31 Page:529
     3395       30
     3396       31         /*==================*/
     3397       32           Z8DT$REPORT_WRAPUP: PROC;
     3398       33         /*==================*/
     3399       34
     3400       35
     3401       36
     3402       37        %EQU PHASE = 1;
     3403       38
     3404       39        %INCLUDE Z8A_DEFC;
     3405      107        %INCLUDE Z8A_SUPP_MAC;
     3406     2507        %INCLUDE Z8A_COMCOM;
     3407     3157        %INCLUDE Z8A_LTS ;
     3408     5234        %INCLUDE Z8A_QLT;
     3409     5340        %INCLUDE Z8A_TYPES;
     3410     5514        %INCLUDE Z8A_ST;
     3411     9173        %INCLUDE Z8A_DNT;
     3412     9394        %INCLUDE Z8A_ETT;
     3413     9695        %INCLUDE Z8A_ILL;
     3414    10388        %INCLUDE Z8A_ILS;
     3415    10497        %INCLUDE Z8A_MKCN;
     3416    10514        %INCLUDE Z8A_SRCH;
     3417    10563        %INCLUDE Z8E_STACKS;
     3418    12829        %INCLUDE Z8E_O1COM;
     3419    13590        %INCLUDE Z8E_WINDOW;
     3420    15660        %INCLUDE Z8E_MACROS;
     3421    16335        %INCLUDE Z8E_HEAP;
     3422    16391        %INCLUDE Z8A_ERR_NUMS;
     3423    17155
     3424    17156
     3425    17157
     3426    17158    1   DCL Z8AC$MAKE_CONST           ENTRY (1);
     3427    17159    1   DCL Z8ED$DISPOSE_ABSSYN_TREE  ENTRY (1);
     3428    17160    1   DCL Z8AE$ERROR                ENTRY (12);
     3429    17161    1   DCL Z8DO$LINK_WITH_LTS        ENTRY (2);
     3430    17162    1   DCL Z8AH$SEARCH_              ENTRY ;
     3431    17163    1   DCL DNT$_FROM_RSWNO                  (0:0) PTR SYMREF READONLY;
PL6.E3A0      #003=Z8DT$REPORT_WRAPUP File=Z8DT.:Z8A6TSI                         SAT 08/09/97 11:31 Page:530
     3432    17164    1   DCL REPORT_CODE_NO UBIN WORD;
     3433    17165    1   DCL FILE_LTS$      PTR;
     3434    17166    1   DCL REP_LTS$       PTR;
     3435    17167    1   DCL TEMP_LTS$      PTR;
     3436    17168    1   DCL CODE_BIT_ON    BIT (1) ALIGNED;
     3437    17169
     3438    17170        %EJECT;
PL6.E3A0      #003=Z8DT$REPORT_WRAPUP File=Z8DT.:Z8A6TSI                         SAT 08/09/97 11:31 Page:531
     3439    17171
     3440    17172         /*================*/
     3441    17173    1      CREATE_FD_RECORD: PROC;
     3442    17174         /*================*/
     3443    17175         /*
     3444    17176               NAME: CREATE_FD_RECORD
     3445    17177
     3446    17178           DESCRIPTION:  This routine will create a print line buffer for
     3447    17179                        every report, the length of the buffer will
     3448    17180                        determined by the longest printable line in this
     3449    17181                        group.
     3450    17182         */
     3451    17183
     3452    17184
     3453    17185           %EQU RD_BUFFER_TEXT = 'RD_BUFFER#';
     3454    17186           %EQU RD_BUFFER_LENGTH = 12;
     3455    17187
     3456    17188
     3457    17189    2   DCL REC_LENGTH         SBIN WORD;
     3458    17190    2   DCL NUM_CHAR           CHAR (2);
     3459    17191    2   DCL BUF_POS            SBIN WORD;
     3460    17192    2   DCL FD_ST$             PTR;
     3461    17193    2   DCL BUF_ST$            PTR;
     3462    17194    2   DCL LINE_NO#           SBIN WORD;
     3463    17195    2   DCL NEW_LONG$          PTR;
     3464    17196    2   DCL FD_BRO$            PTR;
     3465    17197    2   DCL 1 BUF_DESC     ALIGNED,
     3466    17198              %DESCRIPTOR (LVL = 2, ENDING = YES);
     3467    17226
     3468    17227        %EJECT;
PL6.E3A0      #003=Z8DT$REPORT_WRAPUP File=Z8DT.:Z8A6TSI                         SAT 08/09/97 11:31 Page:532
     3469    17228
     3470    17229
     3471    17230    2      IF CODE_BIT_ON THEN
     3472    17231    3        DO;
     3473    17232    3          IF NOT O1COM.CURRENT_REPORT_LTS$ -> REPORT_LTS.B.CODE_ON THEN
     3474    17233    4            DO;
     3475    17234    4              CALL Z8AE$ERROR (%E$CODE_FOR_ALL_REPORT,
     3476    17235    4                BINBIT (O1COM.CURRENT_REPORT_LTS$ -> REPORT_LTS.ST$ -> SCALAR.LINE_NO,
             17235                         36),
     3477    17236    4                        O1COM.CURRENT_REPORT_LTS$ -> REPORT_LTS.COL_NO#);
     3478    17237
     3479    17238    4              O1COM.CURRENT_REPORT_LTS$ -> REPORT_LTS.B.CODE_ON = TRUE;
     3480    17239    4              O1COM.CURRENT_REPORT_LTS$ -> REPORT_LTS.CODE = 'ER';
     3481    17240
     3482    17241    4            END;
     3483    17242
     3484    17243    3          REC_LENGTH = O1COM.CURRENT_REPORT_LTS$ -> REPORT_LTS.RECORD_LENGTH + 2;
     3485    17244    3          REPORT_CODE_NO = REPORT_CODE_NO + 1;
     3486    17245    3          O1COM.CURRENT_REPORT_LTS$ -> REPORT_LTS.B.CODE_NUMBER = REPORT_CODE_NO;
     3487    17246
     3488    17247    3        END;
     3489    17248    2      ELSE
     3490    17249    2          REC_LENGTH = O1COM.CURRENT_REPORT_LTS$ -> REPORT_LTS.RECORD_LENGTH;
     3491    17250
     3492    17251    2      LINE_NO# = O1COM.CURRENT_REPORT_LTS$ -> REPORT_LTS.PAGE_COUNTER$ -> ST.LINE_NO;
     3493    17252    2      FD_ST$ = O1COM.CURRENT_REPORT_LTS$ -> REPORT_LTS.FILE$;
     3494    17253    2      BUF_POS = FD_ST$ -> FD.LTS$ -> FILE_LTS.RECORD_COUNT;
     3495    17254
     3496    17255    2      CALL BINCHAR (NUM_CHAR, BUF_POS);
     3497    17256
     3498    17257    2      LEX_SYMBOL.SIZE = %RD_BUFFER_LENGTH;
     3499    17258
     3500    17259    2      SUBSTR (LEX_SYMBOL.SYMBOL, 0, 10) = %RD_BUFFER_TEXT;
     3501    17260
     3502    17261    2      SUBSTR (LEX_SYMBOL.SYMBOL, 10, 2) = NUM_CHAR;
     3503    17262
     3504    17263    2      CALL Z8AH$SEARCH_;
PL6.E3A0      #003=Z8DT$REPORT_WRAPUP File=Z8DT.:Z8A6TSI                         SAT 08/09/97 11:31 Page:533
     3505    17264
     3506    17265           %NEW_SCALAR (@ST$   = BUF_ST$,
     3507    17266                        @COUNT = FD_ST$ -> FD.COUNT,
     3508    17267                        @LINE_NO = LINE_NO#,
     3509    17268                        @DNT$    = DNT$,
     3510    17269                        @NEXT    = DNT$ -> DNT.ST$,
     3511    17270                        @TYPE    = %TYA,
     3512    17271                        @REDEF_SUB = TRUE,
     3513    17272                        @ELEMENTARY = TRUE,
     3514    17273                        @RECORD_AREA = TRUE,
     3515    17274                        @REPORT_ITEM = TRUE,
     3516    17275                        @CLASS       = %CLASS_ALPHANUMERIC);
     3517    17475
     3518    17476    2      DNT$ -> DNT.ST$ = BUF_ST$;
     3519    17477
     3520    17478    2      O1COM.CURRENT_REPORT_LTS$ -> REPORT_LTS.BUFFER_ST$ = BUF_ST$;
     3521    17479
     3522    17480    2      IF REC_LENGTH > 4095 THEN
     3523    17481    3        DO;
     3524    17482    3          BUF_ST$ -> SCALAR.B.LENGTH_4096 = TRUE;
     3525    17483
     3526    17484    3            IF REC_LENGTH >= %#256K THEN
     3527    17485    3              BUF_ST$ -> SCALAR.B.GREATER_256K = TRUE;
     3528    17486
     3529    17487               %NEW_LONG (@POINTER = NEW_LONG$,
     3530    17488                          @LENGTH  = REC_LENGTH);
     3531    17580
     3532    17581    3          CALL Z8DO$LINK_WITH_LTS (BUF_ST$ -> SCALAR.LTS$,
     3533    17582    3                                   NEW_LONG$);
     3534    17583
     3535    17584               %PACK_ADSC (@DESC = BUF_DESC,
     3536    17585                           @LENGTH = 0);
     3537    17609
     3538    17610    3        END;
     3539    17611
     3540    17612    2      ELSE
     3541    17613             %PACK_ADSC (@DESC   = BUF_DESC,
PL6.E3A0      #003=Z8DT$REPORT_WRAPUP File=Z8DT.:Z8A6TSI                         SAT 08/09/97 11:31 Page:534
     3542    17614                         @LENGTH = REC_LENGTH);
     3543    17638
     3544    17639    2      BUF_ST$ -> SCALAR.DESCL = BUF_DESC.DESCL;
     3545    17640
     3546    17641           %NEW_QLT (@POINTER = BUF_ST$ -> SCALAR.QLT$,
     3547    17642                     @LEVEL#  = 1,
     3548    17643                     @FATHER  = FD_ST$ -> FD.QLT$,
     3549    17644                     @ST$     = BUF_ST$,
     3550    17645                     @DNT$    = DNT$);
     3551    17670
     3552    17671    2      FD_ST$ -> FD.LTS$ -> FILE_LTS.RECORD_COUNT =
     3553    17672    2                FD_ST$ -> FD.LTS$ -> FILE_LTS.RECORD_COUNT + 1;
     3554    17673
     3555    17674    2      FD_BRO$ = FD_ST$ -> FD.QLT$ -> QLT.SON;
     3556    17675
     3557    17676    2      IF FD_BRO$ -> QLT.BROTHER = ADDR(NIL) THEN
     3558    17677    3        DO;
     3559    17678    3          FD_BRO$ -> QLT.BROTHER = BUF_ST$ -> SCALAR.QLT$;
     3560    17679    3          FD_BRO$ -> QLT.ST$ -> VARIABLE.B.REDEF_OBJ = TRUE;
     3561    17680    3        END;
     3562    17681    2      ELSE
     3563    17682    3        DO;
     3564    17683    4          DO WHILE (FD_BRO$ -> QLT.BROTHER ~= ADDR(NIL));
     3565    17684
     3566    17685    4            FD_BRO$ = FD_BRO$ -> QLT.BROTHER;
     3567    17686
     3568    17687    4          END;
     3569    17688
     3570    17689    3          FD_BRO$ -> QLT.BROTHER = BUF_ST$ -> SCALAR.QLT$;
     3571    17690    3        END;
     3572    17691
     3573    17692    2    END CREATE_FD_RECORD;
     3574    17693         %EJECT;
PL6.E3A0      #003=Z8DT$REPORT_WRAPUP File=Z8DT.:Z8A6TSI                         SAT 08/09/97 11:31 Page:535
     3575    17694
     3576    17695         /*===========*/
     3577    17696    1      CREATE_RWCT: PROC;
     3578    17697         /*===========*/
     3579    17698         /*
     3580    17699               NAME: CREATE_RWCT
     3581    17700
     3582    17701           DESCRIPTION:  This routine will create a RWCT table for each report
     3583    17702                         and a RWCT table for each report group, these run
     3584    17703                         time tables are used to communicate with the RWCS
     3585    17704                         on the run time for executing the subroutines.
     3586    17705         */
     3587    17706
     3588    17707
     3589    17708        %EQU RWCT_CGT_TEXT = 'RWCT_CGT';
     3590    17709        %EQU RWCT_DGT_TEXT = 'RWCT_DGT';
     3591    17710        %EQU RWCT_CGT_SIZE = 32;
     3592    17711        %EQU RWCT_DGT_SIZE = 48;
     3593    17712        %EQU RWCT_PRM_TEXT = 'RWCT_PRM';
     3594    17713        %EQU RWCT_TEXT_LENGTH = 8;
     3595    17714        %EQU INDICATOR_TEXT = 'GRP_INDC';
     3596    17715        %EQU INDICATOR_SIZE = 4;
     3597    17716        %EQU CTR_CNTR_TEXT = 'CTR_CNTR';
     3598    17717        %EQU CTR_CNTR_SIZE = 4;
     3599    17718
     3600    17719
     3601    17720    2   DCL CTR_NAME_NO        SBIN WORD;
     3602    17721    2   DCL RWCT_SIZE          SBIN WORD;
     3603    17722    2   DCL RWCT_ST$           PTR;
     3604    17723    2   DCL 1 RWCT_DESC        ALIGNED,
     3605    17724              %DESCRIPTOR (LVL = 2, ENDING = YES);
     3606    17752    2   DCL LINE_NO#           SBIN WORD;
     3607    17753    2   DCL PREV_QLT$          PTR;
     3608    17754    2   DCL RD_QLT$            PTR;
     3609    17755    2   DCL NEXT$              PTR;
     3610    17756
     3611    17757
PL6.E3A0      #003=Z8DT$REPORT_WRAPUP File=Z8DT.:Z8A6TSI                         SAT 08/09/97 11:31 Page:536
     3612    17758        %EJECT;
PL6.E3A0      #003=Z8DT$REPORT_WRAPUP File=Z8DT.:Z8A6TSI                         SAT 08/09/97 11:31 Page:537
     3613    17759
     3614    17760         %MACRO CREATE_NW_RWCT (@TEXT =,
     3615    17761                                @SIZE =,
     3616    17762                                @LINE# =);
     3617    17763           DO;
     3618    17764             LEX_SYMBOL.SIZE = %RWCT_TEXT_LENGTH;
     3619    17765
     3620    17766               SUBSTR (LEX_SYMBOL.SYMBOL,
     3621    17767                       0,
     3622    17768                       LEX_SYMBOL.SIZE) = @TEXT;
     3623    17769
     3624    17770               CALL Z8AH$SEARCH_;
     3625    17771
     3626    17772               %NEW_SCALAR (@ST$       = RWCT_ST$,
     3627    17773                            @LINE_NO   = @LINE#,
     3628    17774                            @DNT$      = DNT$,
     3629    17775                            @NEXT      = DNT$ -> DNT.ST$,
     3630    17776                            @TYPE      = %TYA,
     3631    17777                            @ELEMENTARY = TRUE,
     3632    17778                            @REPORT_ITEM = TRUE,
     3633    17779                            @CLASS     = %CLASS_ALPHANUMERIC);
     3634    17780
     3635    17781               DNT$ -> DNT.ST$ = RWCT_ST$;
     3636    17782
     3637    17783               %PACK_ADSC (@DESC   = RWCT_DESC,
     3638    17784                           @LENGTH = @SIZE);
     3639    17785
     3640    17786               RWCT_ST$ -> SCALAR.DESCL = RWCT_DESC.DESCL;
     3641    17787
     3642    17788               %NEW_QLT (@POINTER = RWCT_ST$ -> SCALAR.QLT$,
     3643    17789                         @LEVEL#  = 1,
     3644    17790                         @ST$     = RWCT_ST$,
     3645    17791                         @DNT$    = DNT$);
     3646    17792
     3647    17793               RWCT_ST$ -> SCALAR.QLT$ -> QLT.FATHER = RD_QLT$;
     3648    17794               PREV_QLT$ -> QLT.BROTHER = RWCT_ST$ -> SCALAR.QLT$;
     3649    17795               PREV_QLT$ = RWCT_ST$ -> SCALAR.QLT$;
PL6.E3A0      #003=Z8DT$REPORT_WRAPUP File=Z8DT.:Z8A6TSI                         SAT 08/09/97 11:31 Page:538
     3650    17796
     3651    17797           END;
     3652    17798         %MEND;
     3653    17799         %EJECT;
PL6.E3A0      #003=Z8DT$REPORT_WRAPUP File=Z8DT.:Z8A6TSI                         SAT 08/09/97 11:31 Page:539
     3654    17800
     3655    17801         %MACRO CREATE_SC_RWCT (@RW_TEXT =,
     3656    17802                                @POINTER =,
     3657    17803                                @RW_SIZE =);
     3658    17804           DO;
     3659    17805               IF @POINTER ~= ADDR(NIL) THEN
     3660    17806                 DO;
     3661    17807                   LINE_NO# = @POINTER -> REPORT_01_LTS.ST$ -> ST.LINE_NO;
     3662    17808
     3663    17809                   %CREATE_NW_RWCT (@TEXT  = @RW_TEXT,
     3664    17810                                    @SIZE  = @RW_SIZE,
     3665    17811                                    @LINE# = LINE_NO#);
     3666    17812
     3667    17813                   @POINTER -> REPORT_01_LTS.RWCT$ = RWCT_ST$;
     3668    17814                 END;
     3669    17815           END;
     3670    17816         %MEND;
     3671    17817         %EJECT;
PL6.E3A0      #003=Z8DT$REPORT_WRAPUP File=Z8DT.:Z8A6TSI                         SAT 08/09/97 11:31 Page:540
     3672    17818
     3673    17819
     3674    17820    2          CTR_NAME_NO = O1COM.CURRENT_REPORT_LTS$ -> REPORT_LTS.NO_CTR_ITEM;
     3675    17821
     3676    17822           /* reserve 5 words at the end of RWCT, first of them for report
     3677    17823              code, second of them for FAB$, because IO8 unable to process
     3678    17824              the report code, RWCS must do it by itself
     3679    17825           */
     3680    17826
     3681    17827    2          RWCT_SIZE = 100 + 20 * CTR_NAME_NO + 20;
     3682    17828    2          LINE_NO# = O1COM.CURRENT_REPORT_LTS$ -> REPORT_LTS.LINE_COUNTER$ -> ST.
             17828                   LINE_NO;
     3683    17829
     3684    17830    2          RD_QLT$ = O1COM.CURRENT_REPORT_LTS$ -> REPORT_LTS.ST$ -> RD.QLT$;
     3685    17831    2          PREV_QLT$ = RD_QLT$ -> QLT.SON;
     3686    17832    3          DO WHILE PREV_QLT$ -> QLT.BROTHER ~= ADDR(NIL);
     3687    17833    3            PREV_QLT$ = PREV_QLT$ -> QLT.BROTHER;
     3688    17834    3          END;
     3689    17835
     3690    17836               %NEW_SCALAR (@ST$       = RWCT_ST$,
     3691    17837                            @LINE_NO   = LINE_NO#,
     3692    17838                            @DNT$      = "DNT$_FROM_RSWNO (%RSV_WRD_FILLER)",
     3693    17839                            @TYPE      = %TYI,
     3694    17840                            @ELEMENTARY = TRUE);
     3695    18040    2          RWCT_ST$ -> SCALAR.B.NON_STORAGE = '1'B;
     3696    18041               /* Use only to force word alignment. */
     3697    18042               %NEW_QLT (@POINTER = PREV_QLT$ -> QLT.BROTHER,
     3698    18043                         @FATHER  = RD_QLT$,
     3699    18044                         @LEVEL#  = 1,
     3700    18045                         @ST$     = RWCT_ST$,
     3701    18046                         @DNT$    = "DNT$_FROM_RSWNO (%RSV_WRD_FILLER)");
     3702    18071    2          PREV_QLT$ = PREV_QLT$ -> QLT.BROTHER;
     3703    18072    2          RWCT_ST$ -> SCALAR.QLT$ = PREV_QLT$;
     3704    18073
     3705    18074               %CREATE_NW_RWCT (@TEXT  = %RWCT_PRM_TEXT,
     3706    18075                                @SIZE  = RWCT_SIZE,
     3707    18076                                @LINE# = LINE_NO#);
PL6.E3A0      #003=Z8DT$REPORT_WRAPUP File=Z8DT.:Z8A6TSI                         SAT 08/09/97 11:31 Page:541
     3708    18350
     3709    18351    2          O1COM.CURRENT_REPORT_LTS$ -> REPORT_LTS.RWCT$ = RWCT_ST$;
     3710    18352
     3711    18353               %CREATE_SC_RWCT (@RW_TEXT = %RWCT_CGT_TEXT,
     3712    18354                 @POINTER = O1COM.CURRENT_REPORT_LTS$ -> REPORT_LTS.REPORT_HEADING$,
     3713    18355                 @RW_SIZE = %RWCT_CGT_SIZE);
     3714    18640
     3715    18641               %CREATE_SC_RWCT (@RW_TEXT = %RWCT_CGT_TEXT,
     3716    18642                 @POINTER = O1COM.CURRENT_REPORT_LTS$ -> REPORT_LTS.REPORT_FOOTING$,
     3717    18643                 @RW_SIZE = %RWCT_CGT_SIZE);
     3718    18928
     3719    18929               %CREATE_SC_RWCT (@RW_TEXT = %RWCT_CGT_TEXT,
     3720    18930                 @POINTER = O1COM.CURRENT_REPORT_LTS$ -> REPORT_LTS.PAGE_HEADING$,
     3721    18931                 @RW_SIZE = %RWCT_CGT_SIZE);
     3722    19216
     3723    19217               %CREATE_SC_RWCT (@RW_TEXT = %RWCT_CGT_TEXT,
     3724    19218                 @POINTER = O1COM.CURRENT_REPORT_LTS$ -> REPORT_LTS.PAGE_FOOTING$,
     3725    19219                 @RW_SIZE = %RWCT_CGT_SIZE);
     3726    19504
     3727    19505               %CREATE_SC_RWCT (@RW_TEXT = %RWCT_CGT_TEXT,
     3728    19506                 @POINTER = O1COM.CURRENT_REPORT_LTS$ -> REPORT_LTS.CONTROL_HEADING_FINAL$,
     3729    19507                 @RW_SIZE = %RWCT_CGT_SIZE);
     3730    19792
     3731    19793               %CREATE_SC_RWCT (@RW_TEXT = %RWCT_CGT_TEXT,
     3732    19794                 @POINTER = O1COM.CURRENT_REPORT_LTS$ -> REPORT_LTS.CONTROL_FOOTING_FINAL$,
     3733    19795                 @RW_SIZE = %RWCT_CGT_SIZE);
     3734    20080
     3735    20081    2          NEXT$ = O1COM.CURRENT_REPORT_LTS$ -> REPORT_LTS.CONTROL_HEADING$;
     3736    20082
     3737    20083    3          DO WHILE (NEXT$ ~= ADDR(NIL));
     3738    20084
     3739    20085                 %CREATE_SC_RWCT (@RW_TEXT = %RWCT_CGT_TEXT,
     3740    20086                                  @POINTER = NEXT$,
     3741    20087                                  @RW_SIZE = %RWCT_CGT_SIZE);
     3742    20372
     3743    20373    3            NEXT$ = NEXT$ -> REPORT_01_LTS.LINK;
     3744    20374    3          END;   /* while */
PL6.E3A0      #003=Z8DT$REPORT_WRAPUP File=Z8DT.:Z8A6TSI                         SAT 08/09/97 11:31 Page:542
     3745    20375
     3746    20376    2          NEXT$ = O1COM.CURRENT_REPORT_LTS$ -> REPORT_LTS.CONTROL_FOOTING$;
     3747    20377
     3748    20378    3          DO WHILE (NEXT$ ~= ADDR(NIL));
     3749    20379
     3750    20380                 %CREATE_SC_RWCT (@RW_TEXT = %RWCT_CGT_TEXT,
     3751    20381                                  @POINTER = NEXT$,
     3752    20382                                  @RW_SIZE = %RWCT_CGT_SIZE);
     3753    20667
     3754    20668    3            NEXT$ = NEXT$ -> REPORT_01_LTS.LINK;
     3755    20669    3          END;   /* while */
     3756    20670
     3757    20671    2          NEXT$ = O1COM.CURRENT_REPORT_LTS$ -> REPORT_LTS.DETAIL$;
     3758    20672
     3759    20673    3          DO WHILE (NEXT$ ~= ADDR(NIL));
     3760    20674
     3761    20675                 %CREATE_SC_RWCT (@RW_TEXT = %RWCT_DGT_TEXT,
     3762    20676                                  @POINTER = NEXT$,
     3763    20677                                  @RW_SIZE = %RWCT_DGT_SIZE);
     3764    20962
     3765    20963    3            IF NEXT$ -> REPORT_01_LTS.B.GROUP_INDICATE THEN
     3766    20964    4              DO;
     3767    20965
     3768    20966                     %CREATE_NW_RWCT (@TEXT = %INDICATOR_TEXT,
     3769    20967                                      @SIZE = %INDICATOR_SIZE,
     3770    20968                                      @LINE# = LINE_NO#);
     3771    21242
     3772    21243    4                NEXT$ -> REPORT_01_LTS.GROUP_INDICATOR$ = RWCT_ST$;
     3773    21244    4              END;
     3774    21245
     3775    21246    3            NEXT$ = NEXT$ -> REPORT_01_LTS.LINK;
     3776    21247    3          END;   /* while */
     3777    21248
     3778    21249    2          IF CTR_NAME_NO > 0 THEN
     3779    21250    3            DO;
     3780    21251                   %CREATE_NW_RWCT (@TEXT = %CTR_CNTR_TEXT,
     3781    21252                                    @SIZE = %CTR_CNTR_SIZE,
PL6.E3A0      #003=Z8DT$REPORT_WRAPUP File=Z8DT.:Z8A6TSI                         SAT 08/09/97 11:31 Page:543
     3782    21253                                    @LINE# = LINE_NO#);
     3783    21527
     3784    21528    3              O1COM.CURRENT_REPORT_LTS$ -> REPORT_LTS.CTR_LVL_COUNTER$ = RWCT_ST$;
     3785    21529    3            END;
     3786    21530
     3787    21531    2    END CREATE_RWCT;
     3788    21532         %EJECT;
PL6.E3A0      #003=Z8DT$REPORT_WRAPUP File=Z8DT.:Z8A6TSI                         SAT 08/09/97 11:31 Page:544
     3789    21533
     3790    21534         /*===========*/
     3791    21535    1      PRESET_RWCT: PROC;
     3792    21536         /*===========*/
     3793    21537         /*
     3794    21538               NAME: PRESET_RWCT
     3795    21539
     3796    21540           DESCRIPTION: This routine will preset the RWCT tables to the
     3797    21541                        PAGE clause information, report group LINE, COLUMN
     3798    21542                        GROUP INDICATE and NEXT GROUP clauses information and
     3799    21543                        all the run time subroutines addresses.
     3800    21544         */
     3801    21545
     3802    21546
     3803    21547         /*  EQUs of RWCT's offset ...
     3804    21548
     3805    21549        %EQU REPORT_HEADING_OFF    = 0;
     3806    21550        %EQU REPORT_FOOTING_OFF    = 1;
     3807    21551        %EQU PAGE_HEADING_OFF      = 2;
     3808    21552        %EQU PAGE_FOOTING_OFF      = 3;
     3809    21553        %EQU ACTUAL_LINE_OFF       = 4;
     3810    21554        %EQU CONTROL_LVL_OFF       = 5;
     3811    21555        %EQU FIRST_DETAIL_TBL_OFF  = 6;
     3812    21556        %EQU FIRST_DETAIL_GI_OFF   = 7;
     3813    21557        %EQU GEN_SUBTOTAL_OFF      = 8;
     3814    21558        %EQU CTR_BREAK_OFF         = 9;
     3815    21559        %EQU CTR_SHADOW_INIT_OFF   = 10;
     3816    21560        %EQU CTR_ITEM_SWAP_OFF     = 11;
     3817    21561        %EQU TOP_OF_PAGE_OFF       = 12;
     3818    21562        %EQU LINE_COUNTER_PTR_OFF  = 13;
     3819    21563        %EQU PAGE_COUNTER_PTR_OFF  = 14;
     3820    21564        %EQU CTR_BREAK_COUNTER_OFF = 15;
     3821    21565        %EQU NEXT_GROUP_INT_OFF    = 16;
     3822    21566        %EQU PAGE_LIMIT_INT_OFF    = 17;
     3823    21567        %EQU HEADING_INT_OFF       = 18;
     3824    21568        %EQU FIRST_DETAIL_INT_OFF  = 19;
     3825    21569        %EQU LAST_DETAIL_INT_OFF   = 20;
PL6.E3A0      #003=Z8DT$REPORT_WRAPUP File=Z8DT.:Z8A6TSI                         SAT 08/09/97 11:31 Page:545
     3826    21570        %EQU FOOTING_INT_OFF       = 21;
     3827    21571        %EQU AFTER_ADVANCE_ADDR_OFF= 22;
     3828    21572        %EQU NO_OF_CTR_ITEM_OFF    = 23;
     3829    21573        %EQU REPORT_CTR_WORD_OFF   = 24;
     3830    21574
     3831    21575        %EQU CTR_HEADING_TBL_OFF   = 0;
     3832    21576        %EQU CTR_FOOTING_TBL_OFF   = 1;
     3833    21577        %EQU RESET_SUB_OFF         = 2;
     3834    21578        %EQU CROSS_ROLL_SUB_OFF    = 3;
     3835    21579        %EQU SUM_CLEAR_SUB_OFF     = 4;
     3836    21580
     3837    21581        %EQU USE_PROC_PTR_OFF      = 0;
     3838    21582        %EQU SUPRESS_PRINT_OFF     = 1;
     3839    21583        %EQU FORMATTING_SUB_OFF    = 2;
     3840    21584        %EQU FIRST_LINE_TYPE_OFF   = 3;
     3841    21585        %EQU FIRST_LINE_INT_OFF    = 4;
     3842    21586        %EQU TOTAL_LINE_INT_OFF    = 5;
     3843    21587        %EQU NEXT_GROUP_LINE_TYPE_OFF = 6;
     3844    21588        %EQU NEXT_GROUP_LINE_INT_OFF  = 7;
     3845    21589        %EQU SPECIAL_SUBTOTAL_SUB_OFF = 8;
     3846    21590        %EQU NEXT_DETAIL_IND_OFF   = 9;
     3847    21591        %EQU RWCT_ADDR_OFF         = 10;
     3848    21592        %EQU GROUP_IND_SWITCH_OFF  = 11;
     3849    21593
     3850    21594        %EQU CTR_TBL_START_OFF     = 25;
     3851    21595        %EQU CTR_TBL_SPAN          =5;
     3852    21596
     3853    21597         */
     3854    21598
     3855    21599        %EQU ROPCON_0 = 0;
     3856    21600
     3857    21601    2   DCL 1 CONSTI              UNAL,
     3858    21602    2         2 BIN_WORD           SBIN WORD,
     3859    21603    2         2 PTR_WORD   REDEF BIN_WORD  PTR;
     3860    21604    2   DCL NIL_PTR_ETT$           PTR;
     3861    21605    2   DCL CONST$$                PTR;
     3862    21606    2   DCL LTS$$                  PTR;
PL6.E3A0      #003=Z8DT$REPORT_WRAPUP File=Z8DT.:Z8A6TSI                         SAT 08/09/97 11:31 Page:546
     3863    21607    2   DCL START_CTR_TBL          SBIN WORD;
     3864    21608    2   DCL I                      SBIN WORD;
     3865    21609    2   DCL CGT_ST$                PTR;
     3866    21610    2   DCL PTR$$                  PTR;
     3867    21611    2   DCL P$$                    PTR;
     3868    21612    2   DCL APPEND_IND_TABLE$      PTR;
     3869    21613    2   DCL APPEND_IND_OFF         SBIN WORD;
     3870    21614
     3871    21615
     3872    21616        %EJECT;
PL6.E3A0      #003=Z8DT$REPORT_WRAPUP File=Z8DT.:Z8A6TSI                         SAT 08/09/97 11:31 Page:547
     3873    21617
     3874    21618
     3875    21619         %MACRO INIT_ZERO_NIL_RWCT (@OFFSET_V = ,
     3876    21620                                    @ROP_ST$ = COMCOM.VALUE_0 -> ETT.LOP,
     3877    21621                                    @LOP_ST$ = O1COM.CURRENT_REPORT_LTS$ -> REPORT_LTS.RWCT$
             21621                                        );
     3878    21622           DO;
     3879    21623               %NEW_ILL (@ID   = %PREOFF,
     3880    21624                         @OFFSET = @OFFSET_V,
     3881    21625                         @LOP    = @LOP_ST$,
     3882    21626                         @ROP    = @ROP_ST$,
     3883    21627                         @N      = 1);
     3884    21628           END;
     3885    21629         %MEND;
     3886    21630
     3887    21631
     3888    21632         %MACRO INIT_CGT_RWCT (@POINTER = LTS$$,
     3889    21633                               @OFFSET_V = );
     3890    21634           DO;
     3891    21635               IF @POINTER ~= ADDR(NIL) THEN
     3892    21636                 DO;
     3893    21637                   CGT_ST$ = @POINTER -> REPORT_01_LTS.RWCT$;
     3894    21638
     3895    21639                   %NEW_ILL (@ID = %P_A_PRESET,
     3896    21640                             @OFFSET = @OFFSET_V,
     3897    21641                             @TO  = O1COM.CURRENT_REPORT_LTS$ -> REPORT_LTS.RWCT$,
     3898    21642                             @LOP = CGT_ST$,
     3899    21643                             @ROPCON = %ROPCON_0);
     3900    21644
     3901    21645                 END;
     3902    21646           /*   if the RWCS is written in PL6 then ---
     3903    21647               ELSE
     3904    21648
     3905    21649                 %INIT_ZERO_NIL_RWCT (@OFFSET_V = @OFFSET_V);
     3906    21650                                      @ROP_ST$ = NIL_PTR_ETT$ -> ETT.LOP);
     3907    21651           */
     3908    21652
PL6.E3A0      #003=Z8DT$REPORT_WRAPUP File=Z8DT.:Z8A6TSI                         SAT 08/09/97 11:31 Page:548
     3909    21653           END;
     3910    21654         %MEND;
     3911    21655         %EJECT;
PL6.E3A0      #003=Z8DT$REPORT_WRAPUP File=Z8DT.:Z8A6TSI                         SAT 08/09/97 11:31 Page:549
     3912    21656
     3913    21657         %MACRO MAKE_CONST_AND_ILL (@OFFSET_V =,
     3914    21658                                    @LOP_ST$  =
             21658                                        O1COM.CURRENT_REPORT_LTS$ -> REPORT_LTS.RWCT$,
     3915    21659                                    @CONSTANT = 0);
     3916    21660           DO;
     3917    21661               MKCN.CON = @CONSTANT;
     3918    21662
     3919    21663               CALL Z8AC$MAKE_CONST (CONST$$);
     3920    21664
     3921    21665               CGT_ST$ = @LOP_ST$;
     3922    21666
     3923    21667               %NEW_ILL (@ID    = %PREOFF,
     3924    21668                         @OFFSET = @OFFSET_V,
     3925    21669                         @LOP    = CGT_ST$,
     3926    21670                         @ROP    = CONST$$ -> ETT.LOP,
     3927    21671                         @N      = 1 );
     3928    21672
     3929    21673           END;
     3930    21674         %MEND;
     3931    21675
     3932    21676
     3933    21677         %MACRO INIT_CGT_RWCT_TBL (@LOP_ST$ = ,
     3934    21678                                   @POINTER = );
     3935    21679           DO;
     3936    21680               P$$ = @POINTER;
     3937    21681
     3938    21682               %MAKE_CONST_AND_ILL (@OFFSET_V = %FIRST_LINE_TYPE_OFF,
     3939    21683                                    @LOP_ST$  = @LOP_ST$,
     3940    21684                                    @CONSTANT = P$$ -> REPORT_01_LTS.FIRST_LINE.TYPE);
     3941    21685
     3942    21686               %MAKE_CONST_AND_ILL (@OFFSET_V = %FIRST_LINE_INT_OFF,
     3943    21687                                    @LOP_ST$  = @LOP_ST$,
     3944    21688                                    @CONSTANT = P$$ -> REPORT_01_LTS.FIRST_LINE.NO#);
     3945    21689
     3946    21690               %MAKE_CONST_AND_ILL (@OFFSET_V = %TOTAL_LINE_INT_OFF,
     3947    21691                                    @LOP_ST$  = @LOP_ST$,
PL6.E3A0      #003=Z8DT$REPORT_WRAPUP File=Z8DT.:Z8A6TSI                         SAT 08/09/97 11:31 Page:550
     3948    21692                                    @CONSTANT = P$$ -> REPORT_01_LTS.TOTAL_LINES);
     3949    21693
     3950    21694               %MAKE_CONST_AND_ILL (@OFFSET_V = %NEXT_GROUP_LINE_TYPE_OFF,
     3951    21695                                    @LOP_ST$  = @LOP_ST$,
     3952    21696                                    @CONSTANT = P$$ -> REPORT_01_LTS.NEXT_GROUP_TYPE);
     3953    21697
     3954    21698               %MAKE_CONST_AND_ILL (@OFFSET_V = %NEXT_GROUP_LINE_INT_OFF,
     3955    21699                                    @LOP_ST$  = @LOP_ST$,
     3956    21700                                    @CONSTANT = P$$ -> REPORT_01_LTS.NEXT_GROUP_NO#);
     3957    21701
     3958    21702           END;
     3959    21703         %MEND;
     3960    21704
     3961    21705
     3962    21706         %MACRO FILL_CGT_TBL (@POINTER = LTS$$);
     3963    21707           DO;
     3964    21708             IF @POINTER ~= ADDR(NIL) THEN
     3965    21709                 DO;
     3966    21710                   PTR$$ = @POINTER;
     3967    21711
     3968    21712                 %INIT_CGT_RWCT_TBL (@LOP_ST$ = PTR$$ -> REPORT_01_LTS.RWCT$,
     3969    21713                                     @POINTER = PTR$$);
     3970    21714
     3971    21715                 END;
     3972    21716           END;
     3973    21717         %MEND;
     3974    21718         %EJECT;
PL6.E3A0      #003=Z8DT$REPORT_WRAPUP File=Z8DT.:Z8A6TSI                         SAT 08/09/97 11:31 Page:551
     3975    21719
     3976    21720           /*   if RWCS is written in PL6 then ---
     3977    21721
     3978    21722               CONSTI.PTR_WORD = ADDR(NIL);
     3979    21723               MKCN.CON = CONSTI.BIN_WORD;
     3980    21724
     3981    21725               CALL Z8AC$MAKE_CONST (NIL_PTR_ETT$);
     3982    21726
     3983    21727               and .. preset every pointer field of RWCT to NIL_PTR_ETT$ ...
     3984    21728           */
     3985    21729
     3986    21730
     3987    21731               %INIT_CGT_RWCT (@POINTER =
             21731                   O1COM.CURRENT_REPORT_LTS$ -> REPORT_LTS.REPORT_HEADING$,
     3988    21732                               @OFFSET_V = %REPORT_HEADING_OFF);
     3989    22128
     3990    22129
     3991    22130               %INIT_CGT_RWCT (@POINTER =
             22130                   O1COM.CURRENT_REPORT_LTS$ -> REPORT_LTS.REPORT_FOOTING$,
     3992    22131                               @OFFSET_V = %REPORT_FOOTING_OFF);
     3993    22527
     3994    22528               %INIT_CGT_RWCT (@POINTER =
             22528                   O1COM.CURRENT_REPORT_LTS$ -> REPORT_LTS.PAGE_HEADING$,
     3995    22529                               @OFFSET_V = %PAGE_HEADING_OFF);
     3996    22925
     3997    22926               %INIT_CGT_RWCT (@POINTER =
             22926                   O1COM.CURRENT_REPORT_LTS$ -> REPORT_LTS.PAGE_FOOTING$,
     3998    22927                               @OFFSET_V = %PAGE_FOOTING_OFF);
     3999    23323
     4000    23324               %INIT_CGT_RWCT (@POINTER = O1COM.CURRENT_REPORT_LTS$ -> REPORT_LTS.DETAIL$,
     4001    23325                               @OFFSET_V = %FIRST_DETAIL_TBL_OFF);
     4002    23721
     4003    23722               %NEW_ILL (@ID   = %P_A_PRESET,
     4004    23723                         @OFFSET = %LINE_COUNTER_PTR_OFF,
     4005    23724                         @TO     = O1COM.CURRENT_REPORT_LTS$ -> REPORT_LTS.RWCT$,
     4006    23725                         @LOP    = O1COM.CURRENT_REPORT_LTS$ -> REPORT_LTS.LINE_COUNTER$,
     4007    23726                         @ROPCON = %ROPCON_0);
PL6.E3A0      #003=Z8DT$REPORT_WRAPUP File=Z8DT.:Z8A6TSI                         SAT 08/09/97 11:31 Page:552
     4008    24105
     4009    24106               %NEW_ILL (@ID   = %P_A_PRESET,
     4010    24107                         @OFFSET = %PAGE_COUNTER_PTR_OFF,
     4011    24108                         @TO     = O1COM.CURRENT_REPORT_LTS$ -> REPORT_LTS.RWCT$,
     4012    24109                         @LOP    = O1COM.CURRENT_REPORT_LTS$ -> REPORT_LTS.PAGE_COUNTER$,
     4013    24110                         @ROPCON = %ROPCON_0);
     4014    24489
     4015    24490    2          IF O1COM.CURRENT_REPORT_LTS$ -> REPORT_LTS.CTR_LVL_COUNTER$ ~= ADDR(NIL) THEN
     4016    24491    3            DO;
     4017    24492
     4018    24493                   %NEW_ILL (@ID   = %P_A_PRESET,
     4019    24494                             @OFFSET = %CTR_BREAK_COUNTER_OFF,
     4020    24495                             @TO     = O1COM.CURRENT_REPORT_LTS$ -> REPORT_LTS.RWCT$,
     4021    24496                             @LOP    =
             24496                                 O1COM.CURRENT_REPORT_LTS$ -> REPORT_LTS.CTR_LVL_COUNTER$,
     4022    24497                             @ROPCON = %ROPCON_0);
     4023    24876    3            END;
     4024    24877
     4025    24878    2          IF O1COM.CURRENT_REPORT_LTS$ -> REPORT_LTS.B.PAGE_LIMIT_ON THEN
     4026    24879    3            DO;
     4027    24880                   %MAKE_CONST_AND_ILL (@OFFSET_V = %PAGE_LIMIT_INT_OFF,
     4028    24881                        @CONSTANT = O1COM.CURRENT_REPORT_LTS$ -> REPORT_LTS.PAGE_LIMIT );
     4029    25271
     4030    25272                   %MAKE_CONST_AND_ILL (@OFFSET_V = %HEADING_INT_OFF,
     4031    25273                        @CONSTANT = O1COM.CURRENT_REPORT_LTS$ -> REPORT_LTS.HEADING);
     4032    25663
     4033    25664                   %MAKE_CONST_AND_ILL (@OFFSET_V = %FOOTING_INT_OFF,
     4034    25665                        @CONSTANT = O1COM.CURRENT_REPORT_LTS$ -> REPORT_LTS.FOOTING);
     4035    26055
     4036    26056                   %MAKE_CONST_AND_ILL (@OFFSET_V = %FIRST_DETAIL_INT_OFF,
     4037    26057                        @CONSTANT = O1COM.CURRENT_REPORT_LTS$ -> REPORT_LTS.FIRST_DETAIL);
     4038    26447
     4039    26448                   %MAKE_CONST_AND_ILL (@OFFSET_V = %LAST_DETAIL_INT_OFF,
     4040    26449                        @CONSTANT = O1COM.CURRENT_REPORT_LTS$ -> REPORT_LTS.LAST_DETAIL);
     4041    26839
     4042    26840    3            END;
     4043    26841    2          ELSE
PL6.E3A0      #003=Z8DT$REPORT_WRAPUP File=Z8DT.:Z8A6TSI                         SAT 08/09/97 11:31 Page:553
     4044    26842    3            DO;
     4045    26843                   %INIT_ZERO_NIL_RWCT (@OFFSET_V = %PAGE_LIMIT_INT_OFF);
     4046    27230
     4047    27231                   %INIT_ZERO_NIL_RWCT (@OFFSET_V = %FIRST_DETAIL_INT_OFF);
     4048    27618
     4049    27619                   %INIT_ZERO_NIL_RWCT (@OFFSET_V = %LAST_DETAIL_INT_OFF);
     4050    28006
     4051    28007                   %INIT_ZERO_NIL_RWCT (@OFFSET_V = %HEADING_INT_OFF);
     4052    28394
     4053    28395                   %INIT_ZERO_NIL_RWCT (@OFFSET_V = %FOOTING_INT_OFF);
     4054    28782
     4055    28783    3            END;
     4056    28784
     4057    28785               %NEW_ILL (@ID     = %P_A_PRESET,
     4058    28786                         @OFFSET = %AFTER_ADVANCE_ADDR_OFF,
     4059    28787                         @TO     = O1COM.CURRENT_REPORT_LTS$ -> REPORT_LTS.RWCT$,
     4060    28788                         @LOP    = O1COM.CURRENT_REPORT_LTS$ -> REPORT_LTS.AFTER_ADVANCE$,
     4061    28789                         @ROPCON = %ROPCON_0);
     4062    29168
     4063    29169               %MAKE_CONST_AND_ILL (@OFFSET_V = %NO_OF_CTR_ITEM_OFF,
     4064    29170                   @CONSTANT = O1COM.CURRENT_REPORT_LTS$ -> REPORT_LTS.NO_CTR_ITEM);
     4065    29560
     4066    29561           /*
     4067    29562              Preset the fields of the REPORT HEADING, REPORT FOOTING
     4068    29563              PAGE HEADING, PAGE FOOTING, DETAIL groups, CONTROL groups...
     4069    29564           */
     4070    29565
     4071    29566               %FILL_CGT_TBL (@POINTER =
             29566                   O1COM.CURRENT_REPORT_LTS$ -> REPORT_LTS.REPORT_HEADING$);
     4072    31540
     4073    31541               %FILL_CGT_TBL (@POINTER =
             31541                   O1COM.CURRENT_REPORT_LTS$ -> REPORT_LTS.REPORT_FOOTING$);
     4074    33515
     4075    33516               %FILL_CGT_TBL (@POINTER =
             33516                   O1COM.CURRENT_REPORT_LTS$ -> REPORT_LTS.PAGE_HEADING$);
     4076    35490
     4077    35491               %FILL_CGT_TBL (@POINTER =
PL6.E3A0      #003=Z8DT$REPORT_WRAPUP File=Z8DT.:Z8A6TSI                         SAT 08/09/97 11:31 Page:554
             35491                   O1COM.CURRENT_REPORT_LTS$ -> REPORT_LTS.PAGE_FOOTING$);
     4078    37465
     4079    37466           %FILL_CGT_TBL (@POINTER =
             37466               O1COM.CURRENT_REPORT_LTS$ -> REPORT_LTS.CONTROL_HEADING_FINAL$);
     4080    39440
     4081    39441           %FILL_CGT_TBL (@POINTER =
             39441               O1COM.CURRENT_REPORT_LTS$ -> REPORT_LTS.CONTROL_FOOTING_FINAL$);
     4082    41415
     4083    41416    2      LTS$$ = O1COM.CURRENT_REPORT_LTS$ -> REPORT_LTS.DETAIL$;
     4084    41417    2      APPEND_IND_TABLE$ = O1COM.CURRENT_REPORT_LTS$ -> REPORT_LTS.RWCT$;
     4085    41418    2      APPEND_IND_OFF    = %FIRST_DETAIL_GI_OFF;
     4086    41419
     4087    41420    3      DO WHILE (LTS$$ ~= ADDR(NIL));
     4088    41421
     4089    41422             %FILL_CGT_TBL (@POINTER = LTS$$);
     4090    43396
     4091    43397             %NEW_ILL (@ID     = %P_A_PRESET,
     4092    43398                       @OFFSET = %RWCT_ADDR_OFF,
     4093    43399                       @TO     = LTS$$ -> REPORT_01_LTS.RWCT$,
     4094    43400                       @LOP    = O1COM.CURRENT_REPORT_LTS$ -> REPORT_LTS.RWCT$,
     4095    43401                       @ROPCON = %ROPCON_0);
     4096    43780
     4097    43781    3        IF LTS$$ -> REPORT_01_LTS.B.GROUP_INDICATE THEN
     4098    43782    4          DO;
     4099    43783                 %NEW_ILL (@ID     = %P_A_PRESET,
     4100    43784                           @OFFSET = %GROUP_IND_SWITCH_OFF,
     4101    43785                           @TO     = LTS$$ -> REPORT_01_LTS.RWCT$,
     4102    43786                           @LOP    = LTS$$ -> REPORT_01_LTS.GROUP_INDICATOR$,
     4103    43787                           @ROPCON = %ROPCON_0);
     4104    44166
     4105    44167                 %NEW_ILL (@ID     = %P_A_PRESET,
     4106    44168                           @OFFSET = APPEND_IND_OFF,
     4107    44169                           @TO     = APPEND_IND_TABLE$,
     4108    44170                           @LOP    = LTS$$ -> REPORT_01_LTS.RWCT$,
     4109    44171                           @ROPCON = %ROPCON_0);
     4110    44550
     4111    44551    4            APPEND_IND_TABLE$ = LTS$$ -> REPORT_01_LTS.RWCT$;
PL6.E3A0      #003=Z8DT$REPORT_WRAPUP File=Z8DT.:Z8A6TSI                         SAT 08/09/97 11:31 Page:555
     4112    44552    4            APPEND_IND_OFF    = %NEXT_DETAIL_IND_OFF;
     4113    44553    4          END;
     4114    44554
     4115    44555    3        LTS$$ = LTS$$ -> REPORT_01_LTS.LINK;
     4116    44556
     4117    44557    3      END;  /* while */
     4118    44558
     4119    44559    2      LTS$$ = O1COM.CURRENT_REPORT_LTS$ -> REPORT_LTS.CONTROL_HEADING$;
     4120    44560
     4121    44561    3      DO WHILE (LTS$$ ~= ADDR(NIL));
     4122    44562
     4123    44563             %FILL_CGT_TBL (@POINTER = LTS$$);
     4124    46537
     4125    46538    3        LTS$$ = LTS$$ -> REPORT_01_LTS.LINK;
     4126    46539
     4127    46540    3      END;  /* while */
     4128    46541
     4129    46542    2      LTS$$ = O1COM.CURRENT_REPORT_LTS$ -> REPORT_LTS.CONTROL_FOOTING$;
     4130    46543
     4131    46544    3      DO WHILE (LTS$$ ~= ADDR(NIL));
     4132    46545
     4133    46546             %FILL_CGT_TBL (@POINTER = LTS$$);
     4134    48520
     4135    48521    3        LTS$$ = LTS$$ -> REPORT_01_LTS.LINK;
     4136    48522
     4137    48523    3      END;  /* while */
     4138    48524
     4139    48525    2      START_CTR_TBL = %CTR_TBL_START_OFF;
     4140    48526
     4141    48527    2      IF O1COM.CURRENT_REPORT_LTS$ -> REPORT_LTS.B.CONTROL_FINAL THEN
     4142    48528    3        DO;
     4143    48529    3          LTS$$ = O1COM.CURRENT_REPORT_LTS$;
     4144    48530
     4145    48531    3          LTS$$ -> REPORT_LTS.CONTROL_FINAL$ -> CONTROL_NAME_LTS.START_OFFSET =
             48531                   START_CTR_TBL;
     4146    48532
     4147    48533               %INIT_CGT_RWCT (@OFFSET_V = "START_CTR_TBL + %CTR_HEADING_TBL_OFF",
PL6.E3A0      #003=Z8DT$REPORT_WRAPUP File=Z8DT.:Z8A6TSI                         SAT 08/09/97 11:31 Page:556
     4148    48534                  @POINTER = "LTS$$ -> REPORT_LTS.CONTROL_HEADING_FINAL$");
     4149    48930
     4150    48931               %INIT_CGT_RWCT (@OFFSET_V = "START_CTR_TBL + %CTR_FOOTING_TBL_OFF",
     4151    48932                  @POINTER = "LTS$$ -> REPORT_LTS.CONTROL_FOOTING_FINAL$");
     4152    49328
     4153    49329
     4154    49330    3          START_CTR_TBL = START_CTR_TBL + %CTR_TBL_SPAN;
     4155    49331
     4156    49332    3      END;
     4157    49333
     4158    49334
     4159    49335    2      IF O1COM.CURRENT_REPORT_LTS$ -> REPORT_LTS.CONTROL$ ~= ADDR(NIL) THEN
     4160    49336    3        DO;
     4161    49337    3          LTS$$ = O1COM.CURRENT_REPORT_LTS$ -> REPORT_LTS.CONTROL$;
     4162    49338
     4163    49339    4          DO I = 1 TO LTS$$ -> LTS_PTR_ARRAY.N - 3;
     4164    49340
     4165    49341    4            LTS$$ -> LTS_PTR_ARRAY.P$(I) -> CONTROL_NAME_LTS.START_OFFSET =
             49341                     START_CTR_TBL;
     4166    49342
     4167    49343                 %INIT_CGT_RWCT (@OFFSET_V = "START_CTR_TBL + %CTR_HEADING_TBL_OFF",
     4168    49344                   @POINTER =
             49344                       "LTS$$ -> LTS_PTR_ARRAY.P$(I) -> CONTROL_NAME_LTS.CONTROL_HEADING$");
     4169    49740
     4170    49741                 %INIT_CGT_RWCT (@OFFSET_V = "START_CTR_TBL + %CTR_FOOTING_TBL_OFF",
     4171    49742                   @POINTER =
             49742                       "LTS$$ -> LTS_PTR_ARRAY.P$(I) -> CONTROL_NAME_LTS.CONTROL_FOOTING$");
     4172    50138
     4173    50139    4            START_CTR_TBL = START_CTR_TBL + %CTR_TBL_SPAN;
     4174    50140
     4175    50141    4          END;
     4176    50142    3        END;
     4177    50143
     4178    50144    2    END PRESET_RWCT;
     4179    50145         %EJECT;
PL6.E3A0      #003=Z8DT$REPORT_WRAPUP File=Z8DT.:Z8A6TSI                         SAT 08/09/97 11:31 Page:557
     4180    50146
     4181    50147         /* main routine */
     4182    50148
     4183    50149    1          FILE_LTS$ = COMCOM.FILE_LTS_CHAIN$;
     4184    50150
     4185    50151    2        DO WHILE (FILE_LTS$ ~= ADDR(NIL));
     4186    50152
     4187    50153    2          IF FILE_LTS$ -> FILE_LTS.ST$ -> FD.PROC$ = O1COM.CURRENT_PROC$ THEN
     4188    50154    3            DO;
     4189    50155    3              IF FILE_LTS$ -> FILE_LTS.REPORT$ ~= ADDR(NIL) THEN
     4190    50156    4                DO;
     4191    50157    4                  REP_LTS$ = FILE_LTS$ -> FILE_LTS.REPORT$;
     4192    50158
     4193    50159    4                  CODE_BIT_ON = FALSE;
     4194    50160    4                  REPORT_CODE_NO = 0;
     4195    50161    4                  TEMP_LTS$ = REP_LTS$;
     4196    50162
     4197    50163    5                  DO WHILE (TEMP_LTS$ ~= ADDR(NIL));
     4198    50164
     4199    50165    5                    IF TEMP_LTS$ -> REPORT_LTS.B.CODE_ON THEN
     4200    50166    6                      DO;
     4201    50167
     4202    50168    6                        FILE_LTS$ -> FILE_LTS.RECORD_CONTAINS.INT_1 =
     4203    50169    6                            FILE_LTS$ -> FILE_LTS.RECORD_CONTAINS.INT_1 + 2;
     4204    50170
     4205    50171    6                        FILE_LTS$ -> FILE_LTS.RECORD_CONTAINS.INT_2 =
     4206    50172    6                            FILE_LTS$ -> FILE_LTS.RECORD_CONTAINS.INT_2 + 2;
     4207    50173    6                        FILE_LTS$ -> FILE_LTS.B.REPORT_CODE = TRUE;
     4208    50174    6                        CODE_BIT_ON = TRUE;
     4209    50175    6                        TEMP_LTS$ = ADDR(NIL);
     4210    50176    6                      END;
     4211    50177    5                    ELSE
     4212    50178    5                      TEMP_LTS$ = TEMP_LTS$ -> REPORT_LTS.LINK;
     4213    50179    5                  END; /* WHILE */
     4214    50180
     4215    50181
     4216    50182    5                  DO WHILE (REP_LTS$ ~= ADDR(NIL));
PL6.E3A0      #003=Z8DT$REPORT_WRAPUP File=Z8DT.:Z8A6TSI                         SAT 08/09/97 11:31 Page:558
     4217    50183
     4218    50184    5                    IF REP_LTS$ -> REPORT_LTS.PAGE_COUNTER$ ~= ADDR(NIL) THEN
     4219    50185    6                      DO;
     4220    50186    6                        O1COM.CURRENT_REPORT_LTS$ = REP_LTS$;
     4221    50187
     4222    50188    6                        CALL CREATE_FD_RECORD;
     4223    50189
     4224    50190    6                        CALL CREATE_RWCT;
     4225    50191
     4226    50192    6                        CALL PRESET_RWCT;
     4227    50193
     4228    50194    6                      END;
     4229    50195
     4230    50196    5                    ELSE
     4231    50197    6                      DO;
     4232    50198    6                        IF REP_LTS$ -> REPORT_LTS.ST$ ~= ADDR(NIL) THEN
     4233    50199
     4234    50200    6                          CALL Z8AE$ERROR (%E$REPORT_DESC_NOT_DEFINED,
     4235    50201    6                            BINBIT (REP_LTS$ -> REPORT_LTS.ST$ -> SCALAR.LINE_NO, 36),
     4236    50202    6                          REP_LTS$ -> REPORT_LTS.COL_NO#);
     4237    50203    6                      END;
     4238    50204
     4239    50205
     4240    50206    5                    REP_LTS$ = REP_LTS$ -> REPORT_LTS.LINK;
     4241    50207
     4242    50208    5                  END;  /* while */
     4243    50209
     4244    50210    4                  IF FILE_LTS$ -> FILE_LTS.LINAGE.NO_OF_LINES$ ~= ADDR(NIL) THEN
     4245    50211    5                    DO;
     4246    50212
     4247    50213    5                      CALL Z8AE$ERROR (%E$NO_LINAGE_IN_REP,
     4248    50214    5                           FILE_LTS$ -> FILE_LTS.LINAGE.NO_OF_LINES$ -> LX_TERMINAL.
             50214                                    LINE,
     4249    50215    5                           FILE_LTS$ -> FILE_LTS.LINAGE.NO_OF_LINES$ -> LX_TERMINAL.
             50215                                    COLUMN);
     4250    50216
     4251    50217    5                      CALL Z8ED$DISPOSE_ABSSYN_TREE (FILE_LTS$ -> FILE_LTS.LINAGE.
PL6.E3A0      #003=Z8DT$REPORT_WRAPUP File=Z8DT.:Z8A6TSI                         SAT 08/09/97 11:31 Page:559
             50217                               NO_OF_LINES$);
     4252    50218
     4253    50219    5                      CALL Z8ED$DISPOSE_ABSSYN_TREE (FILE_LTS$ -> FILE_LTS.LINAGE.
             50219                               FOOTING$);
     4254    50220
     4255    50221    5                      CALL Z8ED$DISPOSE_ABSSYN_TREE (FILE_LTS$ -> FILE_LTS.LINAGE.
             50221                               BOTTOM$);
     4256    50222
     4257    50223    5                      CALL Z8ED$DISPOSE_ABSSYN_TREE (FILE_LTS$ -> FILE_LTS.LINAGE.TOP$)
             50223                               ;
     4258    50224
     4259    50225    5                    END;
     4260    50226    4                END;  /* end if */
     4261    50227    3            END;
     4262    50228
     4263    50229    2          FILE_LTS$ = FILE_LTS$ -> FILE_LTS.FILE_LTS_CHAIN$;
     4264    50230
     4265    50231    2        END;  /* while */
     4266    50232
     4267    50233    1        O1COM.REPORT_DD$ = ADDR(NIL);
     4268    50234
     4269    50235    1    END Z8DT$REPORT_WRAPUP;
     4270    50236         %EJECT;
PL6.E3A0      #003=Z8DT$REPORT_WRAPUP File=Z8DT.:Z8A6TSI                         SAT 08/09/97 11:31 Page:560

PL6.E3A0      #003=Z8DT$REPORT_WRAPUP File=Z8DT.:Z8A6TSI                         SAT 08/09/97 11:31 Page:561
--  Include file information  --

   Z8A_ERR_NUMS.:Z8A6TOU  is referenced.
   Z8E_HEAP.:Z8A6TOU  cannot be made into a system file and is referenced.
   Z8E_NEW_ILL.:Z8A6TOU  is referenced.
   Z8E_MACROS.:Z8A6TOU  cannot be made into a system file and is referenced.
   Z8E_WINDOW.:Z8A6TOU  is referenced.
   Z8E_O1COM.:Z8A6TOU  cannot be made into a system file and is referenced.
   Z8A_LEX_SYMB.:Z8A6TOU  cannot be made into a system file and is referenced.
   Z8E_STACKS.:Z8A6TOU  cannot be made into a system file and is referenced.
   Z8A_SRCH.:Z8A6TOU  cannot be made into a system file and is referenced.
   Z8A_MKCN.:Z8A6TOU  cannot be made into a system file and is referenced.
   Z8A_ILS.:Z8A6TOU  cannot be made into a system file and is referenced.
   Z8A_ILL.:Z8A6TOU  cannot be made into a system file and is referenced.
   Z8A_ETT.:Z8A6TOU  cannot be made into a system file and is referenced.
   Z8A_DNT.:Z8A6TOU  cannot be made into a system file and is referenced.
   Z8A_ST.:Z8A6TOU  cannot be made into a system file and is referenced.
   Z8A_TYPES.:Z8A6TOU  is referenced.
   Z8A_QLT.:Z8A6TOU  cannot be made into a system file and is referenced.
   Z8A_LTS.:Z8A6TOU  cannot be made into a system file and is referenced.
   Z8A_COMCOM.:Z8A6TOU  cannot be made into a system file and is referenced.
   X8A_COM_MACS.:X8A6TOU  is referenced.
   Z8A_NAMES.:Z8A6TOU  is referenced.
   Z8A_SUPP_MAC.:Z8A6TOU  is referenced.
   Z8A_DEFC.:Z8A6TOU  cannot be made into a system file and is referenced.
      No diagnostics issued in procedure Z8DT$REPORT_WRAPUP.

   Procedure Z8DT$REPORT_WRAPUP requires 5160 words for executable code.
   Procedure Z8DT$REPORT_WRAPUP requires 26 words of local(AUTO) storage.

    No errors detected in file Z8DT.:Z8A6TSI    .

PL6.E3A0      #003=Z8DT$REPORT_WRAPUP File=Z8DT.:Z8A6TSI                         SAT 08/09/97 11:31 Page:562

 Object Unit name= Z8DT$REPORT_WRAPUP                         File name= Z8DT.:Z8A6TOU
 UTS= AUG 09 '97 11:31:49.64 SAT                              Compiler= PL-6/E31         Sev=      00
 SharedLib= :SHARED_SYSTEM                                    Alt SharedLib=


    ****  Control sections  ****

 Sect   Type Bound  Init  Size OctSiz  Section name(segment info)
    0  LblCom even  none     1      1  ITERATION
    1  LblCom even  none     1      1  LTS$
    2  LblCom even  none     5      5  LTS_
    3  LblCom even  none     1      1  QLT$
    4  LblCom even  none     1      1  PREV_01_QLT$
    5  LblCom even  none     5      5  QLT_
    6  LblCom even  none     1      1  ST$
    7  LblCom even  none     5      5  ST_
    8  LblCom even  none     1      1  DNT$
    9  LblCom even  none     5      5  DNT_
   10  LblCom even  none     1      1  DNT_BUCKET_NUMBER
   11  LblCom even  none     1      1  DNT_OF_1$
   12  LblCom even  none     1      1  ETT$
   13  LblCom even  none     1      1  HEAD_ETT$
   14  LblCom even  none   512   1000  ETT_BUCKETS
   15  LblCom even  none     5      5  ETT_
   16  LblCom even  none     1      1  ILL$
   17  LblCom even  none     5      5  ILL_
   18  LblCom even  none     1      1  ILS$
   19  LblCom even  none     5      5  ILS_
   20  LblCom even  none     2      2  MKCN
   21  LblCom even  none     3      3  SRCH
   22  LblCom even  none    90    132  LEX_SYMBOL
   23  LblCom even  none     1      1  CURRENT_LEX_SYMBOL$
   24  LblCom even  none    90    132  TEMP_LEX_SYMBOL
   25  LblCom even  none    90    132  TEMP_LEX_SYMBOL2
   26  LblCom even  none     1      1  HEAP$
   27  RoData even  UTS     14     16  Z8DT$REPORT_WRAPUP
   28   Proc  even  none  5160  12050  Z8DT$REPORT_WRAPUP
PL6.E3A0      #003=Z8DT$REPORT_WRAPUP File=Z8DT.:Z8A6TSI                         SAT 08/09/97 11:31 Page:563
   29  RoData even  none    31     37  Z8DT$REPORT_WRAPUP

    ****  Entry defs  ****

                              Check   Calling
                             calling  sequence
  Sect OctLoc Primary Altret sequence   type   Parms  Name
    28      0   yes            yes      Std        0  Z8DT$REPORT_WRAPUP

  ****  Entry refs  ****

         Check        Calling
        calling       sequence
Altret sequence SRef   type   Args  Name
         yes           Std      12 Z8AE$ERROR
         yes           Std       1 Z8ED$DISPOSE_ABSSYN_TREE
         yes           Std       0 Z8AH$SEARCH_
         yes           Std       1 Z8AR$RESERVER
         yes           Std       2 Z8DO$LINK_WITH_LTS
         yes           Std       4 Z8AN$NEW_ILL
         yes           Std       1 Z8AC$MAKE_CONST
                       nStd      0 X66_AUTO_0
                       nStd      0 X66_ARET

  ****  Data refs  ****

  Flags:  r = read only, s = secondary
Flgs Name                             Flgs Name                             Flgs Name
     COMCOM                           r    LTS_STEP                         r    ILL_STEP
r    ILS_STEP_TABLE                        O1COM                                 HIER_STK_PTR
     HIER_STK                              PAGE_FORMAT                           REP_STK_PTR
     REP_STK                          r    DNT$_FROM_RSWNO
PL6.E3A0      #003=Z8DT$REPORT_WRAPUP File=Z8DT.:Z8A6TSI                         SAT 08/09/97 11:31 Page:564

  ****  Segment refs  ****

  Flags:  r = read only, s = secondary
Flgs Name                             Flgs Name                             Flgs Name
     NULLSID                               ISSID
PL6.E3A0      #003=Z8DT$REPORT_WRAPUP File=Z8DT.:Z8A6TSI                         SAT 08/09/97 11:31 Page:565


     3366        1        /*T***********************************************************/
     3367        2        /*T*                                                         */
     3368        3        /*T* Copyright (c) Bull HN Information Systems Inc., 1997    */
     3369        4        /*T*                                                         */
     3370        5        /*T***********************************************************/
     3371        6
     3372        7        /*M*  Z8DT$REPORT_WRAPUP---Wrapup the REPORT descriptions */
     3373        8
     3374        9
     3375       10        /*P*
     3376       11               NAME:  Z8DT$REPORT_WRAPUP
     3377       12             AUTHOR:  Min Lee.
     3378       13            PURPOSE:  Wrapup the REPORT SECTION  and REPORT run time tables.
     3379       14
     3380       15        */
     3381       16
     3382       17        /*D*
     3383       18               NAME:  Z8DT$REPORT_WRAPUP
     3384       19               CALL:  CALL Z8DT$REPORT_WRAPUP
     3385       20              INPUT:  COMCOM.FILE_LTS_CHAIN$---Used for searching the report
     3386       21                      files.
     3387       22
     3388       23        DESCRIPTION:  This routine will flag some error in the report file,
     3389       24                      creates the output buffer for the report file, creates
     3390       25                      the run time table for each report, create run time table
     3391       26                      for each report group and preset some fields of these
     3392       27                      tables.
     3393       28         */
     3394       29         %EJECT;
PL6.E3A0      #003=Z8DT$REPORT_WRAPUP File=Z8DT.:Z8A6TSI                         SAT 08/09/97 11:31 Page:566
     3395       30
     3396       31         /*==================*/
     3397       32           Z8DT$REPORT_WRAPUP: PROC;

     32 28 000000   000000 700200 xent  Z8DT$REPORT* TSX0  ! X66_AUTO_0
        28 000001   000032 000000                    ZERO    26,0
        28 000002   011655 710000 28                 TRA     s:50149

     3398       33         /*==================*/
     3399       34
     3400       35
     3401       36
     3402       37        %EQU PHASE = 1;
     3403       38
     3404       39        %INCLUDE Z8A_DEFC;
     3405      107        %INCLUDE Z8A_SUPP_MAC;
     3406     2507        %INCLUDE Z8A_COMCOM;
     3407     3157        %INCLUDE Z8A_LTS ;
     3408     5234        %INCLUDE Z8A_QLT;
     3409     5340        %INCLUDE Z8A_TYPES;
     3410     5514        %INCLUDE Z8A_ST;
     3411     9173        %INCLUDE Z8A_DNT;
     3412     9394        %INCLUDE Z8A_ETT;
     3413     9695        %INCLUDE Z8A_ILL;
     3414    10388        %INCLUDE Z8A_ILS;
     3415    10497        %INCLUDE Z8A_MKCN;
     3416    10514        %INCLUDE Z8A_SRCH;
     3417    10563        %INCLUDE Z8E_STACKS;
     3418    12829        %INCLUDE Z8E_O1COM;
     3419    13590        %INCLUDE Z8E_WINDOW;
     3420    15660        %INCLUDE Z8E_MACROS;
     3421    16335        %INCLUDE Z8E_HEAP;
     3422    16391        %INCLUDE Z8A_ERR_NUMS;
     3423    17155
     3424    17156
     3425    17157
     3426    17158    1   DCL Z8AC$MAKE_CONST           ENTRY (1);
PL6.E3A0      #003=Z8DT$REPORT_WRAPUP File=Z8DT.:Z8A6TSI                         SAT 08/09/97 11:31 Page:567
     3427    17159    1   DCL Z8ED$DISPOSE_ABSSYN_TREE  ENTRY (1);
     3428    17160    1   DCL Z8AE$ERROR                ENTRY (12);
     3429    17161    1   DCL Z8DO$LINK_WITH_LTS        ENTRY (2);
     3430    17162    1   DCL Z8AH$SEARCH_              ENTRY ;
     3431    17163    1   DCL DNT$_FROM_RSWNO                  (0:0) PTR SYMREF READONLY;
     3432    17164    1   DCL REPORT_CODE_NO UBIN WORD;
     3433    17165    1   DCL FILE_LTS$      PTR;
     3434    17166    1   DCL REP_LTS$       PTR;
     3435    17167    1   DCL TEMP_LTS$      PTR;
     3436    17168    1   DCL CODE_BIT_ON    BIT (1) ALIGNED;
     3437    17169
     3438    17170        %EJECT;
PL6.E3A0      #003=Z8DT$REPORT_WRAPUP File=Z8DT.:Z8A6TSI                         SAT 08/09/97 11:31 Page:568
     3439    17171
     3440    17172         /*================*/
     3441    17173    1      CREATE_FD_RECORD: PROC;

  17173 28 000003   200010 741300       CREATE_FD_R* STX1  ! CODE_BIT_ON+1,,AUTO

     3442    17174         /*================*/
     3443    17175         /*
     3444    17176               NAME: CREATE_FD_RECORD
     3445    17177
     3446    17178           DESCRIPTION:  This routine will create a print line buffer for
     3447    17179                        every report, the length of the buffer will
     3448    17180                        determined by the longest printable line in this
     3449    17181                        group.
     3450    17182         */
     3451    17183
     3452    17184
     3453    17185           %EQU RD_BUFFER_TEXT = 'RD_BUFFER#';
     3454    17186           %EQU RD_BUFFER_LENGTH = 12;
     3455    17187
     3456    17188
     3457    17189    2   DCL REC_LENGTH         SBIN WORD;
     3458    17190    2   DCL NUM_CHAR           CHAR (2);
     3459    17191    2   DCL BUF_POS            SBIN WORD;
     3460    17192    2   DCL FD_ST$             PTR;
     3461    17193    2   DCL BUF_ST$            PTR;
     3462    17194    2   DCL LINE_NO#           SBIN WORD;
     3463    17195    2   DCL NEW_LONG$          PTR;
     3464    17196    2   DCL FD_BRO$            PTR;
     3465    17197    2   DCL 1 BUF_DESC     ALIGNED,
     3466    17198              %DESCRIPTOR (LVL = 2, ENDING = YES);
     3467    17226
     3468    17227        %EJECT;
PL6.E3A0      #003=Z8DT$REPORT_WRAPUP File=Z8DT.:Z8A6TSI                         SAT 08/09/97 11:31 Page:569
     3469    17228
     3470    17229
     3471    17230    2      IF CODE_BIT_ON THEN

  17230 28 000004   200007 234100                    SZN     CODE_BIT_ON,,AUTO
        28 000005   000050 605000 28                 TPL     s:17249

     3472    17231    3        DO;

     3473    17232    3          IF NOT O1COM.CURRENT_REPORT_LTS$ -> REPORT_LTS.B.CODE_ON THEN

  17232 28 000006   000064 470400 xsym               LDP0    O1COM+52
        28 000007   000003 234100                    SZN     3,,PR0
        28 000010   000036 604000 28                 TMI     s:17243

     3474    17233    4            DO;

     3475    17234    4              CALL Z8AE$ERROR (%E$CODE_FOR_ALL_REPORT,

  17234 28 000011   000001 471500                    LDP1    1,,PR0
        28 000012   100002 236100                    LDQ     2,,PR1
        28 000013   777777 376007                    ANQ     -1,DL
        28 000014   200024 756100                    STQ     APPEND_IND_OFF+1,,AUTO
        28 000015   000064 236000 xsym               LDQ     O1COM+52
        28 000016   000036 036003                    ADLQ    30,DU
        28 000017   200030 756100                    STQ     APPEND_IND_OFF+5,,AUTO
        28 000020   200024 631500                    EPPR1   APPEND_IND_OFF+1,,AUTO
        28 000021   200027 451500                    STP1    APPEND_IND_OFF+4,,AUTO
        28 000022   000002 236000 29                 LDQ     2
        28 000023   200026 756100                    STQ     APPEND_IND_OFF+3,,AUTO
        28 000024   200026 630500                    EPPR0   APPEND_IND_OFF+3,,AUTO
        28 000025   000000 631400 29                 EPPR1   0
        28 000026   000000 701000 xent               TSX1    Z8AE$ERROR
        28 000027   000000 011000                    NOP     0

     3476    17235    4                BINBIT (O1COM.CURRENT_REPORT_LTS$ -> REPORT_LTS.ST$ -> SCALAR.LINE_NO,
             17235                         36),
PL6.E3A0      #003=Z8DT$REPORT_WRAPUP File=Z8DT.:Z8A6TSI                         SAT 08/09/97 11:31 Page:570
     3477    17236    4                        O1COM.CURRENT_REPORT_LTS$ -> REPORT_LTS.COL_NO#);
     3478    17237
     3479    17238    4              O1COM.CURRENT_REPORT_LTS$ -> REPORT_LTS.B.CODE_ON = TRUE;

  17238 28 000030   000064 470400 xsym               LDP0    O1COM+52
        28 000031   400000 236003                    LDQ     -131072,DU
        28 000032   000003 256100                    ORSQ    3,,PR0

     3480    17239    4              O1COM.CURRENT_REPORT_LTS$ -> REPORT_LTS.CODE = 'ER';

  17239 28 000033   000000 220000 27                 LDX0    0
        28 000034   000064 470400 xsym               LDP0    O1COM+52
        28 000035   000004 740100                    STX0    4,,PR0

     3481    17240
     3482    17241    4            END;

     3483    17242
     3484    17243    3          REC_LENGTH = O1COM.CURRENT_REPORT_LTS$ -> REPORT_LTS.RECORD_LENGTH + 2;

  17243 28 000036   000064 470400 xsym               LDP0    O1COM+52
        28 000037   000016 235100                    LDA     14,,PR0
        28 000040   000002 035007                    ADLA    2,DL
        28 000041   200011 755100                    STA     REC_LENGTH,,AUTO

     3485    17244    3          REPORT_CODE_NO = REPORT_CODE_NO + 1;

  17244 28 000042   200003 236100                    LDQ     REPORT_CODE_NO,,AUTO
        28 000043   000001 036007                    ADLQ    1,DL
        28 000044   200003 756100                    STQ     REPORT_CODE_NO,,AUTO

     3486    17245    3          O1COM.CURRENT_REPORT_LTS$ -> REPORT_LTS.B.CODE_NUMBER = REPORT_CODE_NO;

  17245 28 000045   000000 620006                    EAX0    0,QL
        28 000046   000003 440100                    SXL0    3,,PR0

     3487    17246
PL6.E3A0      #003=Z8DT$REPORT_WRAPUP File=Z8DT.:Z8A6TSI                         SAT 08/09/97 11:31 Page:571
     3488    17247    3        END;

  17247 28 000047   000053 710000 28                 TRA     s:17251

     3489    17248    2      ELSE
     3490    17249    2          REC_LENGTH = O1COM.CURRENT_REPORT_LTS$ -> REPORT_LTS.RECORD_LENGTH;

  17249 28 000050   000064 470400 xsym               LDP0    O1COM+52
        28 000051   000016 235100                    LDA     14,,PR0
        28 000052   200011 755100                    STA     REC_LENGTH,,AUTO

     3491    17250
     3492    17251    2      LINE_NO# = O1COM.CURRENT_REPORT_LTS$ -> REPORT_LTS.PAGE_COUNTER$ -> ST.LINE_NO;

  17251 28 000053   000064 470400 xsym               LDP0    O1COM+52
        28 000054   000017 471500                    LDP1    15,,PR0
        28 000055   100002 236100                    LDQ     2,,PR1
        28 000056   777777 376007                    ANQ     -1,DL
        28 000057   200016 756100                    STQ     LINE_NO#,,AUTO

     3493    17252    2      FD_ST$ = O1COM.CURRENT_REPORT_LTS$ -> REPORT_LTS.FILE$;

  17252 28 000060   000002 236100                    LDQ     2,,PR0
        28 000061   200014 756100                    STQ     FD_ST$,,AUTO

     3494    17253    2      BUF_POS = FD_ST$ -> FD.LTS$ -> FILE_LTS.RECORD_COUNT;

  17253 28 000062   200014 473500                    LDP3    FD_ST$,,AUTO
        28 000063   300005 474500                    LDP4    5,,PR3
        28 000064   400055 235100                    LDA     45,,PR4
        28 000065   200013 755100                    STA     BUF_POS,,AUTO

     3495    17254
     3496    17255    2      CALL BINCHAR (NUM_CHAR, BUF_POS);

  17255 28 000066   000100 301500                    BTD
        28 000067   200013 000004                    NDSC9   BUF_POS,,AUTO            cn=0,s=lsgnf,sf=0,n=4
PL6.E3A0      #003=Z8DT$REPORT_WRAPUP File=Z8DT.:Z8A6TSI                         SAT 08/09/97 11:31 Page:572
        28 000070   200012 030002                    NDSC9   NUM_CHAR,,AUTO           cn=0,s=nosgn,sf=0,n=2

     3497    17256
     3498    17257    2      LEX_SYMBOL.SIZE = %RD_BUFFER_LENGTH;

  17257 28 000071   000014 235007                    LDA     12,DL
        28 000072   000010 755000 22                 STA     LEX_SYMBOL+8

     3499    17258
     3500    17259    2      SUBSTR (LEX_SYMBOL.SYMBOL, 0, 10) = %RD_BUFFER_TEXT;

  17259 28 000073   040000 100400                    MLR     fill='040'O
        28 000074   000001 000012 27                 ADSC9   1                        cn=0,n=10
        28 000075   000011 000012 22                 ADSC9   LEX_SYMBOL+9             cn=0,n=10

     3501    17260
     3502    17261    2      SUBSTR (LEX_SYMBOL.SYMBOL, 10, 2) = NUM_CHAR;

  17261 28 000076   200012 220100                    LDX0    NUM_CHAR,,AUTO
        28 000077   000013 440000 22                 SXL0    LEX_SYMBOL+11

     3503    17262
     3504    17263    2      CALL Z8AH$SEARCH_;

  17263 28 000100   000003 631400 29                 EPPR1   3
        28 000101   000000 701000 xent               TSX1    Z8AH$SEARCH_
        28 000102   000000 011000                    NOP     0

     3505    17264
     3506    17265           %NEW_SCALAR (@ST$   = BUF_ST$,
     3507    17266                        @COUNT = FD_ST$ -> FD.COUNT,
     3508    17267                        @LINE_NO = LINE_NO#,
     3509    17268                        @DNT$    = DNT$,
     3510    17269                        @NEXT    = DNT$ -> DNT.ST$,
     3511    17270                        @TYPE    = %TYA,
     3512    17271                        @REDEF_SUB = TRUE,
     3513    17272                        @ELEMENTARY = TRUE,
PL6.E3A0      #003=Z8DT$REPORT_WRAPUP File=Z8DT.:Z8A6TSI                         SAT 08/09/97 11:31 Page:573
     3514    17273                        @RECORD_AREA = TRUE,
     3515    17274                        @REPORT_ITEM = TRUE,
     3516    17275                        @CLASS       = %CLASS_ALPHANUMERIC);

  17279 28 000103   000002 236000 7                  LDQ     ST_+2
        28 000104   000013 036007                    ADLQ    11,DL
        28 000105   000003 116000 7                  CMPQ    ST_+3
        28 000106   000117 604000 28                 TMI     s:17281

  17280 28 000107   000006 236000 29                 LDQ     6
        28 000110   200024 756100                    STQ     APPEND_IND_OFF+1,,AUTO
        28 000111   200024 630500                    EPPR0   APPEND_IND_OFF+1,,AUTO
        28 000112   200025 450500                    STP0    APPEND_IND_OFF+2,,AUTO
        28 000113   200025 630500                    EPPR0   APPEND_IND_OFF+2,,AUTO
        28 000114   000005 631400 29                 EPPR1   5
        28 000115   000000 701000 xent               TSX1    Z8AR$RESERVER
        28 000116   000000 011000                    NOP     0

  17281 28 000117   000002 236000 7                  LDQ     ST_+2
        28 000120   000022 736000                    QLS     18
        28 000121   000001 036000 7                  ADLQ    ST_+1
        28 000122   200015 756100                    STQ     BUF_ST$,,AUTO

  17282 28 000123   000013 236007                    LDQ     11,DL
        28 000124   000002 056000 7                  ASQ     ST_+2

  17330 28 000125   000766 220003                    LDX0    502,DU
        28 000126   200015 470500                    LDP0    BUF_ST$,,AUTO
        28 000127   000000 740100                    STX0    0,,PR0

  17331 28 000130   003000 236007                    LDQ     1536,DL
        28 000131   000000 552110                    STBQ    0,'10'O,PR0

  17332 28 000132   200014 471500                    LDP1    FD_ST$,,AUTO
        28 000133   100000 236100                    LDQ     0,,PR1
        28 000134   000000 552104                    STBQ    0,'04'O,PR0

PL6.E3A0      #003=Z8DT$REPORT_WRAPUP File=Z8DT.:Z8A6TSI                         SAT 08/09/97 11:31 Page:574
  17333 28 000135   000000 221003                    LDX1    0,DU
        28 000136   000001 741100                    STX1    1,,PR0

  17334 28 000137   000001 441100                    SXL1    1,,PR0

  17335 28 000140   200016 722100                    LXL2    LINE_NO#,,AUTO
        28 000141   000002 442100                    SXL2    2,,PR0

  17336 28 000142   000003 450100                    STZ     3,,PR0

  17337 28 000143   000000 473400 8                  LDP3    DNT$
        28 000144   300001 236100                    LDQ     1,,PR3
        28 000145   000004 756100                    STQ     4,,PR0

  17338 28 000146   000004 236000 29                 LDQ     4
        28 000147   000005 756100                    STQ     5,,PR0

  17339 28 000150   000007 756100                    STQ     7,,PR0

  17340 28 000151   000010 741100                    STX1    8,,PR0

  17341 28 000152   777777 223003                    LDX3    -1,DU
        28 000153   000010 443100                    SXL3    8,,PR0

  17345 28 000154   000012 756100                    STQ     10,,PR0

  17348 28 000155   000057 236000 xsym               LDQ     O1COM+47
        28 000156   000011 756100                    STQ     9,,PR0

  17349 28 000157   000057 236000 xsym               LDQ     O1COM+47
        28 000160   000004 116000 29                 CMPQ    4
        28 000161   000203 600000 28                 TZE     s:17384

  17353 28 000162   000057 474400 xsym               LDP4    O1COM+47
        28 000163   400001 475500                    LDP5    1,,PR4
        28 000164   500012 236100                    LDQ     10,,PR5
        28 000165   000004 116000 29                 CMPQ    4
PL6.E3A0      #003=Z8DT$REPORT_WRAPUP File=Z8DT.:Z8A6TSI                         SAT 08/09/97 11:31 Page:575
        28 000166   000175 601000 28                 TNZ     s:17360

  17355 28 000167   200015 236100                    LDQ     BUF_ST$,,AUTO
        28 000170   500011 756100                    STQ     9,,PR5

  17356 28 000171   000057 474400 xsym               LDP4    O1COM+47
        28 000172   400001 475500                    LDP5    1,,PR4
        28 000173   500012 756100                    STQ     10,,PR5

  17357 28 000174   000203 710000 28                 TRA     s:17384

  17360 28 000175   500012 476500                    LDP6    10,,PR5
        28 000176   200015 236100                    LDQ     BUF_ST$,,AUTO
        28 000177   600012 756100                    STQ     10,,PR6

  17361 28 000200   000057 474400 xsym               LDP4    O1COM+47
        28 000201   400001 475500                    LDP5    1,,PR4
        28 000202   500012 756100                    STQ     10,,PR5

  17384 28 000203   000010 224003                    LDX4    8,DU
        28 000204   000002 744100                    STX4    2,,PR0

  17389 28 000205   000000 236000 8                  LDQ     DNT$
        28 000206   000006 756100                    STQ     6,,PR0

  17406 28 000207   010000 236003                    LDQ     4096,DU
        28 000210   000003 256100                    ORSQ    3,,PR0

  17418 28 000211   001000 236003                    LDQ     512,DU
        28 000212   000003 256100                    ORSQ    3,,PR0

  17430 28 000213   000040 236003                    LDQ     32,DU
        28 000214   000003 256100                    ORSQ    3,,PR0

  17448 28 000215   010000 236007                    LDQ     4096,DL
        28 000216   000003 256100                    ORSQ    3,,PR0

PL6.E3A0      #003=Z8DT$REPORT_WRAPUP File=Z8DT.:Z8A6TSI                         SAT 08/09/97 11:31 Page:576
  17454 28 000217   000003 236100                    LDQ     3,,PR0
        28 000220   000007 376000 29                 ANQ     7
        28 000221   000003 276007                    ORQ     3,DL
        28 000222   000003 756100                    STQ     3,,PR0

     3517    17475
     3518    17476    2      DNT$ -> DNT.ST$ = BUF_ST$;

  17476 28 000223   200015 236100                    LDQ     BUF_ST$,,AUTO
        28 000224   300001 756100                    STQ     1,,PR3

     3519    17477
     3520    17478    2      O1COM.CURRENT_REPORT_LTS$ -> REPORT_LTS.BUFFER_ST$ = BUF_ST$;

  17478 28 000225   000064 474400 xsym               LDP4    O1COM+52
        28 000226   400034 756100                    STQ     28,,PR4

     3521    17479
     3522    17480    2      IF REC_LENGTH > 4095 THEN

  17480 28 000227   200011 235100                    LDA     REC_LENGTH,,AUTO
        28 000230   007777 115007                    CMPA    4095,DL
        28 000231   000316 604400 28                 TMOZ    s:17618

     3523    17481    3        DO;

     3524    17482    3          BUF_ST$ -> SCALAR.B.LENGTH_4096 = TRUE;

  17482 28 000232   004000 236003                    LDQ     2048,DU
        28 000233   000003 256100                    ORSQ    3,,PR0

     3525    17483
     3526    17484    3            IF REC_LENGTH >= %#256K THEN

  17484 28 000234   000001 115003                    CMPA    1,DU
        28 000235   000240 604000 28                 TMI     s:17567

PL6.E3A0      #003=Z8DT$REPORT_WRAPUP File=Z8DT.:Z8A6TSI                         SAT 08/09/97 11:31 Page:577
     3527    17485    3              BUF_ST$ -> SCALAR.B.GREATER_256K = TRUE;

  17485 28 000236   020000 236003                    LDQ     8192,DU
        28 000237   000003 256100                    ORSQ    3,,PR0

     3528    17486
     3529    17487               %NEW_LONG (@POINTER = NEW_LONG$,
     3530    17488                          @LENGTH  = REC_LENGTH);

  17567 28 000240   000002 236000 2                  LDQ     LTS_+2
        28 000241   000002 036007                    ADLQ    2,DL
        28 000242   000003 116000 2                  CMPQ    LTS_+3
        28 000243   000254 604000 28                 TMI     s:17569

  17568 28 000244   000010 236000 29                 LDQ     8
        28 000245   200024 756100                    STQ     APPEND_IND_OFF+1,,AUTO
        28 000246   200024 634500                    EPPR4   APPEND_IND_OFF+1,,AUTO
        28 000247   200025 454500                    STP4    APPEND_IND_OFF+2,,AUTO
        28 000250   200025 630500                    EPPR0   APPEND_IND_OFF+2,,AUTO
        28 000251   000005 631400 29                 EPPR1   5
        28 000252   000000 701000 xent               TSX1    Z8AR$RESERVER
        28 000253   000000 011000                    NOP     0

  17569 28 000254   000002 236000 2                  LDQ     LTS_+2
        28 000255   000022 736000                    QLS     18
        28 000256   000001 036000 2                  ADLQ    LTS_+1
        28 000257   200017 756100                    STQ     NEW_LONG$,,AUTO

  17570 28 000260   000002 236007                    LDQ     2,DL
        28 000261   000002 056000 2                  ASQ     LTS_+2

  17571 28 000262   001110 220003                    LDX0    584,DU
        28 000263   200017 470500                    LDP0    NEW_LONG$,,AUTO
        28 000264   000000 740100                    STX0    0,,PR0

  17577 28 000265   200011 235100                    LDA     REC_LENGTH,,AUTO
        28 000266   200017 470500                    LDP0    NEW_LONG$,,AUTO
PL6.E3A0      #003=Z8DT$REPORT_WRAPUP File=Z8DT.:Z8A6TSI                         SAT 08/09/97 11:31 Page:578
        28 000267   000001 755100                    STA     1,,PR0

     3531    17580
     3532    17581    3          CALL Z8DO$LINK_WITH_LTS (BUF_ST$ -> SCALAR.LTS$,

  17581 28 000270   200017 630500                    EPPR0   NEW_LONG$,,AUTO
        28 000271   200025 450500                    STP0    APPEND_IND_OFF+2,,AUTO
        28 000272   200015 236100                    LDQ     BUF_ST$,,AUTO
        28 000273   000005 036003                    ADLQ    5,DU
        28 000274   200024 756100                    STQ     APPEND_IND_OFF+1,,AUTO
        28 000275   200024 630500                    EPPR0   APPEND_IND_OFF+1,,AUTO
        28 000276   000011 631400 29                 EPPR1   9
        28 000277   000000 701000 xent               TSX1    Z8DO$LINK_WITH_LTS
        28 000300   000000 011000                    NOP     0

     3533    17582    3                                   NEW_LONG$);
     3534    17583
     3535    17584               %PACK_ADSC (@DESC = BUF_DESC,
     3536    17585                           @LENGTH = 0);

  17589 28 000301   000000 220003                    LDX0    0,DU
        28 000302   200021 740100                    STX0    BUF_DESC,,AUTO

  17591 28 000303   000012 236000 29                 LDQ     10
        28 000304   200021 356100                    ANSQ    BUF_DESC,,AUTO

  17592 28 000305   000013 236000 29                 LDQ     11
        28 000306   200021 356100                    ANSQ    BUF_DESC,,AUTO

  17604 28 000307   000014 236000 29                 LDQ     12
        28 000310   200021 356100                    ANSQ    BUF_DESC,,AUTO

  17605 28 000311   000015 236000 29                 LDQ     13
        28 000312   200021 356100                    ANSQ    BUF_DESC,,AUTO

  17606 28 000313   000000 236003                    LDQ     0,DU
        28 000314   200021 752103                    STCQ    BUF_DESC,'03'O,AUTO
PL6.E3A0      #003=Z8DT$REPORT_WRAPUP File=Z8DT.:Z8A6TSI                         SAT 08/09/97 11:31 Page:579

     3537    17609
     3538    17610    3        END;

  17610 28 000315   000331 710000 28                 TRA     s:17639

     3539    17611
     3540    17612    2      ELSE
     3541    17613             %PACK_ADSC (@DESC   = BUF_DESC,
     3542    17614                         @LENGTH = REC_LENGTH);

  17618 28 000316   200021 741100                    STX1    BUF_DESC,,AUTO

  17620 28 000317   000012 236000 29                 LDQ     10
        28 000320   200021 356100                    ANSQ    BUF_DESC,,AUTO

  17621 28 000321   000013 236000 29                 LDQ     11
        28 000322   200021 356100                    ANSQ    BUF_DESC,,AUTO

  17633 28 000323   000014 236000 29                 LDQ     12
        28 000324   200021 356100                    ANSQ    BUF_DESC,,AUTO

  17634 28 000325   000015 236000 29                 LDQ     13
        28 000326   200021 356100                    ANSQ    BUF_DESC,,AUTO

  17635 28 000327   200011 236100                    LDQ     REC_LENGTH,,AUTO
        28 000330   200021 752103                    STCQ    BUF_DESC,'03'O,AUTO

     3543    17638
     3544    17639    2      BUF_ST$ -> SCALAR.DESCL = BUF_DESC.DESCL;

  17639 28 000331   200021 720100                    LXL0    BUF_DESC,,AUTO
        28 000332   200015 470500                    LDP0    BUF_ST$,,AUTO
        28 000333   000001 440100                    SXL0    1,,PR0

     3545    17640
     3546    17641           %NEW_QLT (@POINTER = BUF_ST$ -> SCALAR.QLT$,
PL6.E3A0      #003=Z8DT$REPORT_WRAPUP File=Z8DT.:Z8A6TSI                         SAT 08/09/97 11:31 Page:580
     3547    17642                     @LEVEL#  = 1,
     3548    17643                     @FATHER  = FD_ST$ -> FD.QLT$,
     3549    17644                     @ST$     = BUF_ST$,
     3550    17645                     @DNT$    = DNT$);

  17650 28 000334   000002 236000 5                  LDQ     QLT_+2
        28 000335   000006 036007                    ADLQ    6,DL
        28 000336   000003 116000 5                  CMPQ    QLT_+3
        28 000337   000350 602000 28                 TNC     s:17652

  17651 28 000340   000016 236000 29                 LDQ     14
        28 000341   200024 756100                    STQ     APPEND_IND_OFF+1,,AUTO
        28 000342   200024 631500                    EPPR1   APPEND_IND_OFF+1,,AUTO
        28 000343   200025 451500                    STP1    APPEND_IND_OFF+2,,AUTO
        28 000344   200025 630500                    EPPR0   APPEND_IND_OFF+2,,AUTO
        28 000345   000005 631400 29                 EPPR1   5
        28 000346   000000 701000 xent               TSX1    Z8AR$RESERVER
        28 000347   000000 011000                    NOP     0

  17652 28 000350   000002 236000 5                  LDQ     QLT_+2
        28 000351   000022 736000                    QLS     18
        28 000352   000001 036000 5                  ADLQ    QLT_+1
        28 000353   200015 470500                    LDP0    BUF_ST$,,AUTO
        28 000354   000007 756100                    STQ     7,,PR0

  17653 28 000355   000002 235000 5                  LDA     QLT_+2
        28 000356   000006 035007                    ADLA    6,DL
        28 000357   000002 755000 5                  STA     QLT_+2

  17654 28 000360   000007 471500                    LDP1    7,,PR0
        28 000361   001053 220003                    LDX0    555,DU
        28 000362   100000 740100                    STX0    0,,PR1

  17657 28 000363   000007 471500                    LDP1    7,,PR0
        28 000364   200014 473500                    LDP3    FD_ST$,,AUTO
        28 000365   300007 236100                    LDQ     7,,PR3
        28 000366   100001 756100                    STQ     1,,PR1
PL6.E3A0      #003=Z8DT$REPORT_WRAPUP File=Z8DT.:Z8A6TSI                         SAT 08/09/97 11:31 Page:581

  17658 28 000367   000007 471500                    LDP1    7,,PR0
        28 000370   000004 236000 29                 LDQ     4
        28 000371   100002 756100                    STQ     2,,PR1

  17659 28 000372   000007 471500                    LDP1    7,,PR0
        28 000373   000004 236000 29                 LDQ     4
        28 000374   100003 756100                    STQ     3,,PR1

  17660 28 000375   000007 471500                    LDP1    7,,PR0
        28 000376   200015 236100                    LDQ     BUF_ST$,,AUTO
        28 000377   100004 756100                    STQ     4,,PR1

  17661 28 000400   000007 471500                    LDP1    7,,PR0
        28 000401   000000 236000 8                  LDQ     DNT$
        28 000402   100005 756100                    STQ     5,,PR1

  17662 28 000403   000007 471500                    LDP1    7,,PR0
        28 000404   000001 236007                    LDQ     1,DL
        28 000405   100000 552104                    STBQ    0,'04'O,PR1

  17663 28 000406   000007 471500                    LDP1    7,,PR0
        28 000407   000000 236003                    LDQ     0,DU
        28 000410   100000 552110                    STBQ    0,'10'O,PR1

  17664 28 000411   000007 471500                    LDP1    7,,PR0
        28 000412   000017 236000 29                 LDQ     15
        28 000413   100000 356100                    ANSQ    0,,PR1

  17665 28 000414   000007 471500                    LDP1    7,,PR0
        28 000415   000020 236000 29                 LDQ     16
        28 000416   100000 356100                    ANSQ    0,,PR1

  17666 28 000417   000007 471500                    LDP1    7,,PR0
        28 000420   000013 236000 29                 LDQ     11
        28 000421   100000 356100                    ANSQ    0,,PR1

PL6.E3A0      #003=Z8DT$REPORT_WRAPUP File=Z8DT.:Z8A6TSI                         SAT 08/09/97 11:31 Page:582
  17667 28 000422   000007 471500                    LDP1    7,,PR0
        28 000423   000021 236000 29                 LDQ     17
        28 000424   100000 356100                    ANSQ    0,,PR1

     3551    17670
     3552    17671    2      FD_ST$ -> FD.LTS$ -> FILE_LTS.RECORD_COUNT =

  17671 28 000425   300005 471500                    LDP1    5,,PR3
        28 000426   100055 235100                    LDA     45,,PR1
        28 000427   000001 035007                    ADLA    1,DL
        28 000430   100055 755100                    STA     45,,PR1

     3553    17672    2                FD_ST$ -> FD.LTS$ -> FILE_LTS.RECORD_COUNT + 1;
     3554    17673
     3555    17674    2      FD_BRO$ = FD_ST$ -> FD.QLT$ -> QLT.SON;

  17674 28 000431   300007 471500                    LDP1    7,,PR3
        28 000432   100003 236100                    LDQ     3,,PR1
        28 000433   200020 756100                    STQ     FD_BRO$,,AUTO

     3556    17675
     3557    17676    2      IF FD_BRO$ -> QLT.BROTHER = ADDR(NIL) THEN

  17676 28 000434   200020 474500                    LDP4    FD_BRO$,,AUTO
        28 000435   400002 236100                    LDQ     2,,PR4
        28 000436   000004 116000 29                 CMPQ    4
        28 000437   000446 601000 28                 TNZ     s:17683

     3558    17677    3        DO;

     3559    17678    3          FD_BRO$ -> QLT.BROTHER = BUF_ST$ -> SCALAR.QLT$;

  17678 28 000440   000007 236100                    LDQ     7,,PR0
        28 000441   400002 756100                    STQ     2,,PR4

     3560    17679    3          FD_BRO$ -> QLT.ST$ -> VARIABLE.B.REDEF_OBJ = TRUE;

PL6.E3A0      #003=Z8DT$REPORT_WRAPUP File=Z8DT.:Z8A6TSI                         SAT 08/09/97 11:31 Page:583
  17679 28 000442   400004 471500                    LDP1    4,,PR4
        28 000443   000400 236003                    LDQ     256,DU
        28 000444   100003 256100                    ORSQ    3,,PR1

     3561    17680    3        END;

  17680 28 000445   000461 710000 28                 TRA     s:17692

     3562    17681    2      ELSE
     3563    17682    3        DO;

     3564    17683    4          DO WHILE (FD_BRO$ -> QLT.BROTHER ~= ADDR(NIL));

  17683 28 000446   000452 710000 28                 TRA     s:17687

     3565    17684
     3566    17685    4            FD_BRO$ = FD_BRO$ -> QLT.BROTHER;

  17685 28 000447   200020 470500                    LDP0    FD_BRO$,,AUTO
        28 000450   000002 236100                    LDQ     2,,PR0
        28 000451   200020 756100                    STQ     FD_BRO$,,AUTO

     3567    17686
     3568    17687    4          END;

  17687 28 000452   200020 470500                    LDP0    FD_BRO$,,AUTO
        28 000453   000002 236100                    LDQ     2,,PR0
        28 000454   000004 116000 29                 CMPQ    4
        28 000455   000447 601000 28                 TNZ     s:17685

     3569    17688
     3570    17689    3          FD_BRO$ -> QLT.BROTHER = BUF_ST$ -> SCALAR.QLT$;

  17689 28 000456   200015 471500                    LDP1    BUF_ST$,,AUTO
        28 000457   100007 236100                    LDQ     7,,PR1
        28 000460   000002 756100                    STQ     2,,PR0

PL6.E3A0      #003=Z8DT$REPORT_WRAPUP File=Z8DT.:Z8A6TSI                         SAT 08/09/97 11:31 Page:584
     3571    17690    3        END;

     3572    17691
     3573    17692    2    END CREATE_FD_RECORD;

  17692 28 000461   200010 221300                    LDX1  ! CODE_BIT_ON+1,,AUTO
        28 000462   000001 702211                    TSX2  ! 1,X1

     3574    17693         %EJECT;
PL6.E3A0      #003=Z8DT$REPORT_WRAPUP File=Z8DT.:Z8A6TSI                         SAT 08/09/97 11:31 Page:585
     3575    17694
     3576    17695         /*===========*/
     3577    17696    1      CREATE_RWCT: PROC;

  17696 28 000463   200010 741300       CREATE_RWCT  STX1  ! CODE_BIT_ON+1,,AUTO

     3578    17697         /*===========*/
     3579    17698         /*
     3580    17699               NAME: CREATE_RWCT
     3581    17700
     3582    17701           DESCRIPTION:  This routine will create a RWCT table for each report
     3583    17702                         and a RWCT table for each report group, these run
     3584    17703                         time tables are used to communicate with the RWCS
     3585    17704                         on the run time for executing the subroutines.
     3586    17705         */
     3587    17706
     3588    17707
     3589    17708        %EQU RWCT_CGT_TEXT = 'RWCT_CGT';
     3590    17709        %EQU RWCT_DGT_TEXT = 'RWCT_DGT';
     3591    17710        %EQU RWCT_CGT_SIZE = 32;
     3592    17711        %EQU RWCT_DGT_SIZE = 48;
     3593    17712        %EQU RWCT_PRM_TEXT = 'RWCT_PRM';
     3594    17713        %EQU RWCT_TEXT_LENGTH = 8;
     3595    17714        %EQU INDICATOR_TEXT = 'GRP_INDC';
     3596    17715        %EQU INDICATOR_SIZE = 4;
     3597    17716        %EQU CTR_CNTR_TEXT = 'CTR_CNTR';
     3598    17717        %EQU CTR_CNTR_SIZE = 4;
     3599    17718
     3600    17719
     3601    17720    2   DCL CTR_NAME_NO        SBIN WORD;
     3602    17721    2   DCL RWCT_SIZE          SBIN WORD;
     3603    17722    2   DCL RWCT_ST$           PTR;
     3604    17723    2   DCL 1 RWCT_DESC        ALIGNED,
     3605    17724              %DESCRIPTOR (LVL = 2, ENDING = YES);
     3606    17752    2   DCL LINE_NO#           SBIN WORD;
     3607    17753    2   DCL PREV_QLT$          PTR;
     3608    17754    2   DCL RD_QLT$            PTR;
PL6.E3A0      #003=Z8DT$REPORT_WRAPUP File=Z8DT.:Z8A6TSI                         SAT 08/09/97 11:31 Page:586
     3609    17755    2   DCL NEXT$              PTR;
     3610    17756
     3611    17757
     3612    17758        %EJECT;
PL6.E3A0      #003=Z8DT$REPORT_WRAPUP File=Z8DT.:Z8A6TSI                         SAT 08/09/97 11:31 Page:587
     3613    17759
     3614    17760         %MACRO CREATE_NW_RWCT (@TEXT =,
     3615    17761                                @SIZE =,
     3616    17762                                @LINE# =);
     3617    17763           DO;
     3618    17764             LEX_SYMBOL.SIZE = %RWCT_TEXT_LENGTH;
     3619    17765
     3620    17766               SUBSTR (LEX_SYMBOL.SYMBOL,
     3621    17767                       0,
     3622    17768                       LEX_SYMBOL.SIZE) = @TEXT;
     3623    17769
     3624    17770               CALL Z8AH$SEARCH_;
     3625    17771
     3626    17772               %NEW_SCALAR (@ST$       = RWCT_ST$,
     3627    17773                            @LINE_NO   = @LINE#,
     3628    17774                            @DNT$      = DNT$,
     3629    17775                            @NEXT      = DNT$ -> DNT.ST$,
     3630    17776                            @TYPE      = %TYA,
     3631    17777                            @ELEMENTARY = TRUE,
     3632    17778                            @REPORT_ITEM = TRUE,
     3633    17779                            @CLASS     = %CLASS_ALPHANUMERIC);
     3634    17780
     3635    17781               DNT$ -> DNT.ST$ = RWCT_ST$;
     3636    17782
     3637    17783               %PACK_ADSC (@DESC   = RWCT_DESC,
     3638    17784                           @LENGTH = @SIZE);
     3639    17785
     3640    17786               RWCT_ST$ -> SCALAR.DESCL = RWCT_DESC.DESCL;
     3641    17787
     3642    17788               %NEW_QLT (@POINTER = RWCT_ST$ -> SCALAR.QLT$,
     3643    17789                         @LEVEL#  = 1,
     3644    17790                         @ST$     = RWCT_ST$,
     3645    17791                         @DNT$    = DNT$);
     3646    17792
     3647    17793               RWCT_ST$ -> SCALAR.QLT$ -> QLT.FATHER = RD_QLT$;
     3648    17794               PREV_QLT$ -> QLT.BROTHER = RWCT_ST$ -> SCALAR.QLT$;
     3649    17795               PREV_QLT$ = RWCT_ST$ -> SCALAR.QLT$;
PL6.E3A0      #003=Z8DT$REPORT_WRAPUP File=Z8DT.:Z8A6TSI                         SAT 08/09/97 11:31 Page:588
     3650    17796
     3651    17797           END;
     3652    17798         %MEND;
     3653    17799         %EJECT;
PL6.E3A0      #003=Z8DT$REPORT_WRAPUP File=Z8DT.:Z8A6TSI                         SAT 08/09/97 11:31 Page:589
     3654    17800
     3655    17801         %MACRO CREATE_SC_RWCT (@RW_TEXT =,
     3656    17802                                @POINTER =,
     3657    17803                                @RW_SIZE =);
     3658    17804           DO;
     3659    17805               IF @POINTER ~= ADDR(NIL) THEN
     3660    17806                 DO;
     3661    17807                   LINE_NO# = @POINTER -> REPORT_01_LTS.ST$ -> ST.LINE_NO;
     3662    17808
     3663    17809                   %CREATE_NW_RWCT (@TEXT  = @RW_TEXT,
     3664    17810                                    @SIZE  = @RW_SIZE,
     3665    17811                                    @LINE# = LINE_NO#);
     3666    17812
     3667    17813                   @POINTER -> REPORT_01_LTS.RWCT$ = RWCT_ST$;
     3668    17814                 END;
     3669    17815           END;
     3670    17816         %MEND;
     3671    17817         %EJECT;
PL6.E3A0      #003=Z8DT$REPORT_WRAPUP File=Z8DT.:Z8A6TSI                         SAT 08/09/97 11:31 Page:590
     3672    17818
     3673    17819
     3674    17820    2          CTR_NAME_NO = O1COM.CURRENT_REPORT_LTS$ -> REPORT_LTS.NO_CTR_ITEM;

  17820 28 000464   000064 470400 xsym               LDP0    O1COM+52
        28 000465   000037 235100                    LDA     31,,PR0
        28 000466   200011 755100                    STA     CTR_NAME_NO,,AUTO

     3675    17821
     3676    17822           /* reserve 5 words at the end of RWCT, first of them for report
     3677    17823              code, second of them for FAB$, because IO8 unable to process
     3678    17824              the report code, RWCS must do it by itself
     3679    17825           */
     3680    17826
     3681    17827    2          RWCT_SIZE = 100 + 20 * CTR_NAME_NO + 20;

  17827 28 000467   200011 236100                    LDQ     CTR_NAME_NO,,AUTO
        28 000470   000024 402007                    MPY     20,DL
        28 000471   000170 036007                    ADLQ    120,DL
        28 000472   200012 756100                    STQ     RWCT_SIZE,,AUTO

     3682    17828    2          LINE_NO# = O1COM.CURRENT_REPORT_LTS$ -> REPORT_LTS.LINE_COUNTER$ -> ST.
             17828                   LINE_NO;

  17828 28 000473   000020 471500                    LDP1    16,,PR0
        28 000474   100002 236100                    LDQ     2,,PR1
        28 000475   777777 376007                    ANQ     -1,DL
        28 000476   200015 756100                    STQ     LINE_NO#,,AUTO

     3683    17829
     3684    17830    2          RD_QLT$ = O1COM.CURRENT_REPORT_LTS$ -> REPORT_LTS.ST$ -> RD.QLT$;

  17830 28 000477   000001 473500                    LDP3    1,,PR0
        28 000500   300007 236100                    LDQ     7,,PR3
        28 000501   200017 756100                    STQ     RD_QLT$,,AUTO

     3685    17831    2          PREV_QLT$ = RD_QLT$ -> QLT.SON;
PL6.E3A0      #003=Z8DT$REPORT_WRAPUP File=Z8DT.:Z8A6TSI                         SAT 08/09/97 11:31 Page:591

  17831 28 000502   200017 474500                    LDP4    RD_QLT$,,AUTO
        28 000503   400003 236100                    LDQ     3,,PR4
        28 000504   200016 756100                    STQ     PREV_QLT$,,AUTO

     3686    17832    3          DO WHILE PREV_QLT$ -> QLT.BROTHER ~= ADDR(NIL);

  17832 28 000505   000511 710000 28                 TRA     s:17834

     3687    17833    3            PREV_QLT$ = PREV_QLT$ -> QLT.BROTHER;

  17833 28 000506   200016 470500                    LDP0    PREV_QLT$,,AUTO
        28 000507   000002 236100                    LDQ     2,,PR0
        28 000510   200016 756100                    STQ     PREV_QLT$,,AUTO

     3688    17834    3          END;

  17834 28 000511   200016 470500                    LDP0    PREV_QLT$,,AUTO
        28 000512   000002 236100                    LDQ     2,,PR0
        28 000513   000004 116000 29                 CMPQ    4
        28 000514   000506 601000 28                 TNZ     s:17833

     3689    17835
     3690    17836               %NEW_SCALAR (@ST$       = RWCT_ST$,
     3691    17837                            @LINE_NO   = LINE_NO#,
     3692    17838                            @DNT$      = "DNT$_FROM_RSWNO (%RSV_WRD_FILLER)",
     3693    17839                            @TYPE      = %TYI,
     3694    17840                            @ELEMENTARY = TRUE);

  17844 28 000515   000002 236000 7                  LDQ     ST_+2
        28 000516   000013 036007                    ADLQ    11,DL
        28 000517   000003 116000 7                  CMPQ    ST_+3
        28 000520   000531 604000 28                 TMI     s:17846

  17845 28 000521   000006 236000 29                 LDQ     6
        28 000522   200024 756100                    STQ     APPEND_IND_OFF+1,,AUTO
        28 000523   200024 631500                    EPPR1   APPEND_IND_OFF+1,,AUTO
PL6.E3A0      #003=Z8DT$REPORT_WRAPUP File=Z8DT.:Z8A6TSI                         SAT 08/09/97 11:31 Page:592
        28 000524   200025 451500                    STP1    APPEND_IND_OFF+2,,AUTO
        28 000525   200025 630500                    EPPR0   APPEND_IND_OFF+2,,AUTO
        28 000526   000005 631400 29                 EPPR1   5
        28 000527   000000 701000 xent               TSX1    Z8AR$RESERVER
        28 000530   000000 011000                    NOP     0

  17846 28 000531   000002 236000 7                  LDQ     ST_+2
        28 000532   000022 736000                    QLS     18
        28 000533   000001 036000 7                  ADLQ    ST_+1
        28 000534   200013 756100                    STQ     RWCT_ST$,,AUTO

  17847 28 000535   000013 236007                    LDQ     11,DL
        28 000536   000002 056000 7                  ASQ     ST_+2

  17895 28 000537   000766 220003                    LDX0    502,DU
        28 000540   200013 470500                    LDP0    RWCT_ST$,,AUTO
        28 000541   000000 740100                    STX0    0,,PR0

  17896 28 000542   003000 236007                    LDQ     1536,DL
        28 000543   000000 552110                    STBQ    0,'10'O,PR0

  17897 28 000544   000001 236007                    LDQ     1,DL
        28 000545   000000 552104                    STBQ    0,'04'O,PR0

  17898 28 000546   000000 221003                    LDX1    0,DU
        28 000547   000001 741100                    STX1    1,,PR0

  17899 28 000550   000001 441100                    SXL1    1,,PR0

  17900 28 000551   200015 722100                    LXL2    LINE_NO#,,AUTO
        28 000552   000002 442100                    SXL2    2,,PR0

  17901 28 000553   000003 450100                    STZ     3,,PR0

  17902 28 000554   000004 236000 29                 LDQ     4
        28 000555   000004 756100                    STQ     4,,PR0

PL6.E3A0      #003=Z8DT$REPORT_WRAPUP File=Z8DT.:Z8A6TSI                         SAT 08/09/97 11:31 Page:593
  17903 28 000556   000004 236000 29                 LDQ     4
        28 000557   000005 756100                    STQ     5,,PR0

  17904 28 000560   000007 756100                    STQ     7,,PR0

  17905 28 000561   000010 741100                    STX1    8,,PR0

  17906 28 000562   777777 223003                    LDX3    -1,DU
        28 000563   000010 443100                    SXL3    8,,PR0

  17910 28 000564   000012 756100                    STQ     10,,PR0

  17913 28 000565   000057 236000 xsym               LDQ     O1COM+47
        28 000566   000011 756100                    STQ     9,,PR0

  17914 28 000567   000057 236000 xsym               LDQ     O1COM+47
        28 000570   000004 116000 29                 CMPQ    4
        28 000571   000613 600000 28                 TZE     s:17949

  17918 28 000572   000057 471400 xsym               LDP1    O1COM+47
        28 000573   100001 473500                    LDP3    1,,PR1
        28 000574   300012 236100                    LDQ     10,,PR3
        28 000575   000004 116000 29                 CMPQ    4
        28 000576   000605 601000 28                 TNZ     s:17925

  17920 28 000577   200013 236100                    LDQ     RWCT_ST$,,AUTO
        28 000600   300011 756100                    STQ     9,,PR3

  17921 28 000601   000057 471400 xsym               LDP1    O1COM+47
        28 000602   100001 473500                    LDP3    1,,PR1
        28 000603   300012 756100                    STQ     10,,PR3

  17922 28 000604   000613 710000 28                 TRA     s:17949

  17925 28 000605   300012 474500                    LDP4    10,,PR3
        28 000606   200013 236100                    LDQ     RWCT_ST$,,AUTO
        28 000607   400012 756100                    STQ     10,,PR4
PL6.E3A0      #003=Z8DT$REPORT_WRAPUP File=Z8DT.:Z8A6TSI                         SAT 08/09/97 11:31 Page:594

  17926 28 000610   000057 471400 xsym               LDP1    O1COM+47
        28 000611   100001 473500                    LDP3    1,,PR1
        28 000612   300012 756100                    STQ     10,,PR3

  17949 28 000613   000001 224003                    LDX4    1,DU
        28 000614   000002 744100                    STX4    2,,PR0

  17954 28 000615   000320 236000 xsym               LDQ     DNT$_FROM_RSWNO+208
        28 000616   000006 756100                    STQ     6,,PR0

  17971 28 000617   010000 236003                    LDQ     4096,DU
        28 000620   000003 256100                    ORSQ    3,,PR0

     3695    18040    2          RWCT_ST$ -> SCALAR.B.NON_STORAGE = '1'B;

  18040 28 000621   000040 236007                    LDQ     32,DL
        28 000622   000003 256100                    ORSQ    3,,PR0

     3696    18041               /* Use only to force word alignment. */
     3697    18042               %NEW_QLT (@POINTER = PREV_QLT$ -> QLT.BROTHER,
     3698    18043                         @FATHER  = RD_QLT$,
     3699    18044                         @LEVEL#  = 1,
     3700    18045                         @ST$     = RWCT_ST$,
     3701    18046                         @DNT$    = "DNT$_FROM_RSWNO (%RSV_WRD_FILLER)");

  18051 28 000623   000002 236000 5                  LDQ     QLT_+2
        28 000624   000006 036007                    ADLQ    6,DL
        28 000625   000003 116000 5                  CMPQ    QLT_+3
        28 000626   000637 602000 28                 TNC     s:18053

  18052 28 000627   000016 236000 29                 LDQ     14
        28 000630   200024 756100                    STQ     APPEND_IND_OFF+1,,AUTO
        28 000631   200024 631500                    EPPR1   APPEND_IND_OFF+1,,AUTO
        28 000632   200025 451500                    STP1    APPEND_IND_OFF+2,,AUTO
        28 000633   200025 630500                    EPPR0   APPEND_IND_OFF+2,,AUTO
        28 000634   000005 631400 29                 EPPR1   5
PL6.E3A0      #003=Z8DT$REPORT_WRAPUP File=Z8DT.:Z8A6TSI                         SAT 08/09/97 11:31 Page:595
        28 000635   000000 701000 xent               TSX1    Z8AR$RESERVER
        28 000636   000000 011000                    NOP     0

  18053 28 000637   000002 236000 5                  LDQ     QLT_+2
        28 000640   000022 736000                    QLS     18
        28 000641   000001 036000 5                  ADLQ    QLT_+1
        28 000642   200016 470500                    LDP0    PREV_QLT$,,AUTO
        28 000643   000002 756100                    STQ     2,,PR0

  18054 28 000644   000002 235000 5                  LDA     QLT_+2
        28 000645   000006 035007                    ADLA    6,DL
        28 000646   000002 755000 5                  STA     QLT_+2

  18055 28 000647   000002 471500                    LDP1    2,,PR0
        28 000650   001053 220003                    LDX0    555,DU
        28 000651   100000 740100                    STX0    0,,PR1

  18058 28 000652   000002 471500                    LDP1    2,,PR0
        28 000653   200017 236100                    LDQ     RD_QLT$,,AUTO
        28 000654   100001 756100                    STQ     1,,PR1

  18059 28 000655   000002 471500                    LDP1    2,,PR0
        28 000656   000004 236000 29                 LDQ     4
        28 000657   100002 756100                    STQ     2,,PR1

  18060 28 000660   000002 471500                    LDP1    2,,PR0
        28 000661   000004 236000 29                 LDQ     4
        28 000662   100003 756100                    STQ     3,,PR1

  18061 28 000663   000002 471500                    LDP1    2,,PR0
        28 000664   200013 236100                    LDQ     RWCT_ST$,,AUTO
        28 000665   100004 756100                    STQ     4,,PR1

  18062 28 000666   000002 471500                    LDP1    2,,PR0
        28 000667   000320 236000 xsym               LDQ     DNT$_FROM_RSWNO+208
        28 000670   100005 756100                    STQ     5,,PR1

PL6.E3A0      #003=Z8DT$REPORT_WRAPUP File=Z8DT.:Z8A6TSI                         SAT 08/09/97 11:31 Page:596
  18063 28 000671   000002 471500                    LDP1    2,,PR0
        28 000672   000001 236007                    LDQ     1,DL
        28 000673   100000 552104                    STBQ    0,'04'O,PR1

  18064 28 000674   000002 471500                    LDP1    2,,PR0
        28 000675   000000 236003                    LDQ     0,DU
        28 000676   100000 552110                    STBQ    0,'10'O,PR1

  18065 28 000677   000002 471500                    LDP1    2,,PR0
        28 000700   000017 236000 29                 LDQ     15
        28 000701   100000 356100                    ANSQ    0,,PR1

  18066 28 000702   000002 471500                    LDP1    2,,PR0
        28 000703   000020 236000 29                 LDQ     16
        28 000704   100000 356100                    ANSQ    0,,PR1

  18067 28 000705   000002 471500                    LDP1    2,,PR0
        28 000706   000013 236000 29                 LDQ     11
        28 000707   100000 356100                    ANSQ    0,,PR1

  18068 28 000710   000002 471500                    LDP1    2,,PR0
        28 000711   000021 236000 29                 LDQ     17
        28 000712   100000 356100                    ANSQ    0,,PR1

     3702    18071    2          PREV_QLT$ = PREV_QLT$ -> QLT.BROTHER;

  18071 28 000713   000002 236100                    LDQ     2,,PR0
        28 000714   200016 756100                    STQ     PREV_QLT$,,AUTO

     3703    18072    2          RWCT_ST$ -> SCALAR.QLT$ = PREV_QLT$;

  18072 28 000715   200013 470500                    LDP0    RWCT_ST$,,AUTO
        28 000716   000007 756100                    STQ     7,,PR0

     3704    18073
     3705    18074               %CREATE_NW_RWCT (@TEXT  = %RWCT_PRM_TEXT,
     3706    18075                                @SIZE  = RWCT_SIZE,
PL6.E3A0      #003=Z8DT$REPORT_WRAPUP File=Z8DT.:Z8A6TSI                         SAT 08/09/97 11:31 Page:597
     3707    18076                                @LINE# = LINE_NO#);

  18078 28 000717   000010 235007                    LDA     8,DL
        28 000720   000010 755000 22                 STA     LEX_SYMBOL+8

  18079 28 000721   000000 621005                    EAX1    0,AL
        28 000722   040040 100400                    MLR     fill='040'O
        28 000723   000004 000010 27                 ADSC9   4                        cn=0,n=8
        28 000724   000011 000011 22                 ADSC9   LEX_SYMBOL+9             cn=0,n=*X1

  18082 28 000725   000003 631400 29                 EPPR1   3
        28 000726   000000 701000 xent               TSX1    Z8AH$SEARCH_
        28 000727   000000 011000                    NOP     0

  18094 28 000730   000002 236000 7                  LDQ     ST_+2
        28 000731   000013 036007                    ADLQ    11,DL
        28 000732   000003 116000 7                  CMPQ    ST_+3
        28 000733   000744 604000 28                 TMI     s:18096

  18095 28 000734   000006 236000 29                 LDQ     6
        28 000735   200024 756100                    STQ     APPEND_IND_OFF+1,,AUTO
        28 000736   200024 630500                    EPPR0   APPEND_IND_OFF+1,,AUTO
        28 000737   200025 450500                    STP0    APPEND_IND_OFF+2,,AUTO
        28 000740   200025 630500                    EPPR0   APPEND_IND_OFF+2,,AUTO
        28 000741   000005 631400 29                 EPPR1   5
        28 000742   000000 701000 xent               TSX1    Z8AR$RESERVER
        28 000743   000000 011000                    NOP     0

  18096 28 000744   000002 236000 7                  LDQ     ST_+2
        28 000745   000022 736000                    QLS     18
        28 000746   000001 036000 7                  ADLQ    ST_+1
        28 000747   200013 756100                    STQ     RWCT_ST$,,AUTO

  18097 28 000750   000013 236007                    LDQ     11,DL
        28 000751   000002 056000 7                  ASQ     ST_+2

  18145 28 000752   000766 220003                    LDX0    502,DU
PL6.E3A0      #003=Z8DT$REPORT_WRAPUP File=Z8DT.:Z8A6TSI                         SAT 08/09/97 11:31 Page:598
        28 000753   200013 470500                    LDP0    RWCT_ST$,,AUTO
        28 000754   000000 740100                    STX0    0,,PR0

  18146 28 000755   003000 236007                    LDQ     1536,DL
        28 000756   000000 552110                    STBQ    0,'10'O,PR0

  18147 28 000757   000001 236007                    LDQ     1,DL
        28 000760   000000 552104                    STBQ    0,'04'O,PR0

  18148 28 000761   000000 221003                    LDX1    0,DU
        28 000762   000001 741100                    STX1    1,,PR0

  18149 28 000763   000001 441100                    SXL1    1,,PR0

  18150 28 000764   200015 722100                    LXL2    LINE_NO#,,AUTO
        28 000765   000002 442100                    SXL2    2,,PR0

  18151 28 000766   000003 450100                    STZ     3,,PR0

  18152 28 000767   000000 471400 8                  LDP1    DNT$
        28 000770   100001 236100                    LDQ     1,,PR1
        28 000771   000004 756100                    STQ     4,,PR0

  18153 28 000772   000004 236000 29                 LDQ     4
        28 000773   000005 756100                    STQ     5,,PR0

  18154 28 000774   000007 756100                    STQ     7,,PR0

  18155 28 000775   000010 741100                    STX1    8,,PR0

  18156 28 000776   777777 223003                    LDX3    -1,DU
        28 000777   000010 443100                    SXL3    8,,PR0

  18160 28 001000   000012 756100                    STQ     10,,PR0

  18163 28 001001   000057 236000 xsym               LDQ     O1COM+47
        28 001002   000011 756100                    STQ     9,,PR0
PL6.E3A0      #003=Z8DT$REPORT_WRAPUP File=Z8DT.:Z8A6TSI                         SAT 08/09/97 11:31 Page:599

  18164 28 001003   000057 236000 xsym               LDQ     O1COM+47
        28 001004   000004 116000 29                 CMPQ    4
        28 001005   001027 600000 28                 TZE     s:18199

  18168 28 001006   000057 473400 xsym               LDP3    O1COM+47
        28 001007   300001 474500                    LDP4    1,,PR3
        28 001010   400012 236100                    LDQ     10,,PR4
        28 001011   000004 116000 29                 CMPQ    4
        28 001012   001021 601000 28                 TNZ     s:18175

  18170 28 001013   200013 236100                    LDQ     RWCT_ST$,,AUTO
        28 001014   400011 756100                    STQ     9,,PR4

  18171 28 001015   000057 473400 xsym               LDP3    O1COM+47
        28 001016   300001 474500                    LDP4    1,,PR3
        28 001017   400012 756100                    STQ     10,,PR4

  18172 28 001020   001027 710000 28                 TRA     s:18199

  18175 28 001021   400012 475500                    LDP5    10,,PR4
        28 001022   200013 236100                    LDQ     RWCT_ST$,,AUTO
        28 001023   500012 756100                    STQ     10,,PR5

  18176 28 001024   000057 473400 xsym               LDP3    O1COM+47
        28 001025   300001 474500                    LDP4    1,,PR3
        28 001026   400012 756100                    STQ     10,,PR4

  18199 28 001027   000010 224003                    LDX4    8,DU
        28 001030   000002 744100                    STX4    2,,PR0

  18204 28 001031   000000 236000 8                  LDQ     DNT$
        28 001032   000006 756100                    STQ     6,,PR0

  18221 28 001033   010000 236003                    LDQ     4096,DU
        28 001034   000003 256100                    ORSQ    3,,PR0

PL6.E3A0      #003=Z8DT$REPORT_WRAPUP File=Z8DT.:Z8A6TSI                         SAT 08/09/97 11:31 Page:600
  18263 28 001035   010000 236007                    LDQ     4096,DL
        28 001036   000003 256100                    ORSQ    3,,PR0

  18269 28 001037   000003 236100                    LDQ     3,,PR0
        28 001040   000007 376000 29                 ANQ     7
        28 001041   000003 276007                    ORQ     3,DL
        28 001042   000003 756100                    STQ     3,,PR0

  18290 28 001043   200013 236100                    LDQ     RWCT_ST$,,AUTO
        28 001044   100001 756100                    STQ     1,,PR1

  18296 28 001045   200014 741100                    STX1    RWCT_DESC,,AUTO

  18298 28 001046   000012 236000 29                 LDQ     10
        28 001047   200014 356100                    ANSQ    RWCT_DESC,,AUTO

  18299 28 001050   000013 236000 29                 LDQ     11
        28 001051   200014 356100                    ANSQ    RWCT_DESC,,AUTO

  18311 28 001052   000014 236000 29                 LDQ     12
        28 001053   200014 356100                    ANSQ    RWCT_DESC,,AUTO

  18312 28 001054   000015 236000 29                 LDQ     13
        28 001055   200014 356100                    ANSQ    RWCT_DESC,,AUTO

  18313 28 001056   200012 236100                    LDQ     RWCT_SIZE,,AUTO
        28 001057   200014 752103                    STCQ    RWCT_DESC,'03'O,AUTO

  18316 28 001060   200014 725100                    LXL5    RWCT_DESC,,AUTO
        28 001061   000001 445100                    SXL5    1,,PR0

  18325 28 001062   000002 236000 5                  LDQ     QLT_+2
        28 001063   000006 036007                    ADLQ    6,DL
        28 001064   000003 116000 5                  CMPQ    QLT_+3
        28 001065   001076 602000 28                 TNC     s:18327

  18326 28 001066   000016 236000 29                 LDQ     14
PL6.E3A0      #003=Z8DT$REPORT_WRAPUP File=Z8DT.:Z8A6TSI                         SAT 08/09/97 11:31 Page:601
        28 001067   200024 756100                    STQ     APPEND_IND_OFF+1,,AUTO
        28 001070   200024 633500                    EPPR3   APPEND_IND_OFF+1,,AUTO
        28 001071   200025 453500                    STP3    APPEND_IND_OFF+2,,AUTO
        28 001072   200025 630500                    EPPR0   APPEND_IND_OFF+2,,AUTO
        28 001073   000005 631400 29                 EPPR1   5
        28 001074   000000 701000 xent               TSX1    Z8AR$RESERVER
        28 001075   000000 011000                    NOP     0

  18327 28 001076   000002 236000 5                  LDQ     QLT_+2
        28 001077   000022 736000                    QLS     18
        28 001100   000001 036000 5                  ADLQ    QLT_+1
        28 001101   200013 470500                    LDP0    RWCT_ST$,,AUTO
        28 001102   000007 756100                    STQ     7,,PR0

  18328 28 001103   000002 235000 5                  LDA     QLT_+2
        28 001104   000006 035007                    ADLA    6,DL
        28 001105   000002 755000 5                  STA     QLT_+2

  18329 28 001106   000007 471500                    LDP1    7,,PR0
        28 001107   001053 220003                    LDX0    555,DU
        28 001110   100000 740100                    STX0    0,,PR1

  18332 28 001111   000007 471500                    LDP1    7,,PR0
        28 001112   000004 236000 29                 LDQ     4
        28 001113   100001 756100                    STQ     1,,PR1

  18333 28 001114   000007 471500                    LDP1    7,,PR0
        28 001115   000004 236000 29                 LDQ     4
        28 001116   100002 756100                    STQ     2,,PR1

  18334 28 001117   000007 471500                    LDP1    7,,PR0
        28 001120   000004 236000 29                 LDQ     4
        28 001121   100003 756100                    STQ     3,,PR1

  18335 28 001122   000007 471500                    LDP1    7,,PR0
        28 001123   200013 236100                    LDQ     RWCT_ST$,,AUTO
        28 001124   100004 756100                    STQ     4,,PR1
PL6.E3A0      #003=Z8DT$REPORT_WRAPUP File=Z8DT.:Z8A6TSI                         SAT 08/09/97 11:31 Page:602

  18336 28 001125   000007 471500                    LDP1    7,,PR0
        28 001126   000000 236000 8                  LDQ     DNT$
        28 001127   100005 756100                    STQ     5,,PR1

  18337 28 001130   000007 471500                    LDP1    7,,PR0
        28 001131   000001 236007                    LDQ     1,DL
        28 001132   100000 552104                    STBQ    0,'04'O,PR1

  18338 28 001133   000007 471500                    LDP1    7,,PR0
        28 001134   000000 236003                    LDQ     0,DU
        28 001135   100000 552110                    STBQ    0,'10'O,PR1

  18339 28 001136   000007 471500                    LDP1    7,,PR0
        28 001137   000017 236000 29                 LDQ     15
        28 001140   100000 356100                    ANSQ    0,,PR1

  18340 28 001141   000007 471500                    LDP1    7,,PR0
        28 001142   000020 236000 29                 LDQ     16
        28 001143   100000 356100                    ANSQ    0,,PR1

  18341 28 001144   000007 471500                    LDP1    7,,PR0
        28 001145   000013 236000 29                 LDQ     11
        28 001146   100000 356100                    ANSQ    0,,PR1

  18342 28 001147   000007 471500                    LDP1    7,,PR0
        28 001150   000021 236000 29                 LDQ     17
        28 001151   100000 356100                    ANSQ    0,,PR1

  18345 28 001152   000007 471500                    LDP1    7,,PR0
        28 001153   200017 236100                    LDQ     RD_QLT$,,AUTO
        28 001154   100001 756100                    STQ     1,,PR1

  18346 28 001155   000007 236100                    LDQ     7,,PR0
        28 001156   200016 471500                    LDP1    PREV_QLT$,,AUTO
        28 001157   100002 756100                    STQ     2,,PR1

PL6.E3A0      #003=Z8DT$REPORT_WRAPUP File=Z8DT.:Z8A6TSI                         SAT 08/09/97 11:31 Page:603
  18347 28 001160   000007 236100                    LDQ     7,,PR0
        28 001161   200016 756100                    STQ     PREV_QLT$,,AUTO

     3708    18350
     3709    18351    2          O1COM.CURRENT_REPORT_LTS$ -> REPORT_LTS.RWCT$ = RWCT_ST$;

  18351 28 001162   200013 236100                    LDQ     RWCT_ST$,,AUTO
        28 001163   000064 471400 xsym               LDP1    O1COM+52
        28 001164   100022 756100                    STQ     18,,PR1

     3710    18352
     3711    18353               %CREATE_SC_RWCT (@RW_TEXT = %RWCT_CGT_TEXT,
     3712    18354                 @POINTER = O1COM.CURRENT_REPORT_LTS$ -> REPORT_LTS.REPORT_HEADING$,
     3713    18355                 @RW_SIZE = %RWCT_CGT_SIZE);

  18357 28 001165   000064 471400 xsym               LDP1    O1COM+52
        28 001166   100023 236100                    LDQ     19,,PR1
        28 001167   000004 116000 29                 CMPQ    4
        28 001170   001445 600000 28                 TZE     s:18645

  18359 28 001171   100023 473500                    LDP3    19,,PR1
        28 001172   300003 474500                    LDP4    3,,PR3
        28 001173   400002 236100                    LDQ     2,,PR4
        28 001174   777777 376007                    ANQ     -1,DL
        28 001175   200015 756100                    STQ     LINE_NO#,,AUTO

  18364 28 001176   000010 235007                    LDA     8,DL
        28 001177   000010 755000 22                 STA     LEX_SYMBOL+8

  18365 28 001200   000000 621005                    EAX1    0,AL
        28 001201   040040 100400                    MLR     fill='040'O
        28 001202   000006 000010 27                 ADSC9   6                        cn=0,n=8
        28 001203   000011 000011 22                 ADSC9   LEX_SYMBOL+9             cn=0,n=*X1

  18368 28 001204   000003 631400 29                 EPPR1   3
        28 001205   000000 701000 xent               TSX1    Z8AH$SEARCH_
        28 001206   000000 011000                    NOP     0
PL6.E3A0      #003=Z8DT$REPORT_WRAPUP File=Z8DT.:Z8A6TSI                         SAT 08/09/97 11:31 Page:604

  18380 28 001207   000002 236000 7                  LDQ     ST_+2
        28 001210   000013 036007                    ADLQ    11,DL
        28 001211   000003 116000 7                  CMPQ    ST_+3
        28 001212   001223 604000 28                 TMI     s:18382

  18381 28 001213   000006 236000 29                 LDQ     6
        28 001214   200024 756100                    STQ     APPEND_IND_OFF+1,,AUTO
        28 001215   200024 630500                    EPPR0   APPEND_IND_OFF+1,,AUTO
        28 001216   200025 450500                    STP0    APPEND_IND_OFF+2,,AUTO
        28 001217   200025 630500                    EPPR0   APPEND_IND_OFF+2,,AUTO
        28 001220   000005 631400 29                 EPPR1   5
        28 001221   000000 701000 xent               TSX1    Z8AR$RESERVER
        28 001222   000000 011000                    NOP     0

  18382 28 001223   000002 236000 7                  LDQ     ST_+2
        28 001224   000022 736000                    QLS     18
        28 001225   000001 036000 7                  ADLQ    ST_+1
        28 001226   200013 756100                    STQ     RWCT_ST$,,AUTO

  18383 28 001227   000013 236007                    LDQ     11,DL
        28 001230   000002 056000 7                  ASQ     ST_+2

  18431 28 001231   000766 220003                    LDX0    502,DU
        28 001232   200013 470500                    LDP0    RWCT_ST$,,AUTO
        28 001233   000000 740100                    STX0    0,,PR0

  18432 28 001234   003000 236007                    LDQ     1536,DL
        28 001235   000000 552110                    STBQ    0,'10'O,PR0

  18433 28 001236   000001 236007                    LDQ     1,DL
        28 001237   000000 552104                    STBQ    0,'04'O,PR0

  18434 28 001240   000000 221003                    LDX1    0,DU
        28 001241   000001 741100                    STX1    1,,PR0

  18435 28 001242   000001 441100                    SXL1    1,,PR0
PL6.E3A0      #003=Z8DT$REPORT_WRAPUP File=Z8DT.:Z8A6TSI                         SAT 08/09/97 11:31 Page:605

  18436 28 001243   200015 722100                    LXL2    LINE_NO#,,AUTO
        28 001244   000002 442100                    SXL2    2,,PR0

  18437 28 001245   000003 450100                    STZ     3,,PR0

  18438 28 001246   000000 471400 8                  LDP1    DNT$
        28 001247   100001 236100                    LDQ     1,,PR1
        28 001250   000004 756100                    STQ     4,,PR0

  18439 28 001251   000004 236000 29                 LDQ     4
        28 001252   000005 756100                    STQ     5,,PR0

  18440 28 001253   000007 756100                    STQ     7,,PR0

  18441 28 001254   000010 741100                    STX1    8,,PR0

  18442 28 001255   777777 223003                    LDX3    -1,DU
        28 001256   000010 443100                    SXL3    8,,PR0

  18446 28 001257   000012 756100                    STQ     10,,PR0

  18449 28 001260   000057 236000 xsym               LDQ     O1COM+47
        28 001261   000011 756100                    STQ     9,,PR0

  18450 28 001262   000057 236000 xsym               LDQ     O1COM+47
        28 001263   000004 116000 29                 CMPQ    4
        28 001264   001306 600000 28                 TZE     s:18485

  18454 28 001265   000057 473400 xsym               LDP3    O1COM+47
        28 001266   300001 474500                    LDP4    1,,PR3
        28 001267   400012 236100                    LDQ     10,,PR4
        28 001270   000004 116000 29                 CMPQ    4
        28 001271   001300 601000 28                 TNZ     s:18461

  18456 28 001272   200013 236100                    LDQ     RWCT_ST$,,AUTO
        28 001273   400011 756100                    STQ     9,,PR4
PL6.E3A0      #003=Z8DT$REPORT_WRAPUP File=Z8DT.:Z8A6TSI                         SAT 08/09/97 11:31 Page:606

  18457 28 001274   000057 473400 xsym               LDP3    O1COM+47
        28 001275   300001 474500                    LDP4    1,,PR3
        28 001276   400012 756100                    STQ     10,,PR4

  18458 28 001277   001306 710000 28                 TRA     s:18485

  18461 28 001300   400012 475500                    LDP5    10,,PR4
        28 001301   200013 236100                    LDQ     RWCT_ST$,,AUTO
        28 001302   500012 756100                    STQ     10,,PR5

  18462 28 001303   000057 473400 xsym               LDP3    O1COM+47
        28 001304   300001 474500                    LDP4    1,,PR3
        28 001305   400012 756100                    STQ     10,,PR4

  18485 28 001306   000010 224003                    LDX4    8,DU
        28 001307   000002 744100                    STX4    2,,PR0

  18490 28 001310   000000 236000 8                  LDQ     DNT$
        28 001311   000006 756100                    STQ     6,,PR0

  18507 28 001312   010000 236003                    LDQ     4096,DU
        28 001313   000003 256100                    ORSQ    3,,PR0

  18549 28 001314   010000 236007                    LDQ     4096,DL
        28 001315   000003 256100                    ORSQ    3,,PR0

  18555 28 001316   000003 236100                    LDQ     3,,PR0
        28 001317   000007 376000 29                 ANQ     7
        28 001320   000003 276007                    ORQ     3,DL
        28 001321   000003 756100                    STQ     3,,PR0

  18576 28 001322   200013 236100                    LDQ     RWCT_ST$,,AUTO
        28 001323   100001 756100                    STQ     1,,PR1

  18582 28 001324   200014 741100                    STX1    RWCT_DESC,,AUTO

PL6.E3A0      #003=Z8DT$REPORT_WRAPUP File=Z8DT.:Z8A6TSI                         SAT 08/09/97 11:31 Page:607
  18584 28 001325   000012 236000 29                 LDQ     10
        28 001326   200014 356100                    ANSQ    RWCT_DESC,,AUTO

  18585 28 001327   000013 236000 29                 LDQ     11
        28 001330   200014 356100                    ANSQ    RWCT_DESC,,AUTO

  18597 28 001331   000014 236000 29                 LDQ     12
        28 001332   200014 356100                    ANSQ    RWCT_DESC,,AUTO

  18598 28 001333   000015 236000 29                 LDQ     13
        28 001334   200014 356100                    ANSQ    RWCT_DESC,,AUTO

  18599 28 001335   000040 236007                    LDQ     32,DL
        28 001336   200014 752103                    STCQ    RWCT_DESC,'03'O,AUTO

  18602 28 001337   200014 725100                    LXL5    RWCT_DESC,,AUTO
        28 001340   000001 445100                    SXL5    1,,PR0

  18611 28 001341   000002 236000 5                  LDQ     QLT_+2
        28 001342   000006 036007                    ADLQ    6,DL
        28 001343   000003 116000 5                  CMPQ    QLT_+3
        28 001344   001355 602000 28                 TNC     s:18613

  18612 28 001345   000016 236000 29                 LDQ     14
        28 001346   200024 756100                    STQ     APPEND_IND_OFF+1,,AUTO
        28 001347   200024 633500                    EPPR3   APPEND_IND_OFF+1,,AUTO
        28 001350   200025 453500                    STP3    APPEND_IND_OFF+2,,AUTO
        28 001351   200025 630500                    EPPR0   APPEND_IND_OFF+2,,AUTO
        28 001352   000005 631400 29                 EPPR1   5
        28 001353   000000 701000 xent               TSX1    Z8AR$RESERVER
        28 001354   000000 011000                    NOP     0

  18613 28 001355   000002 236000 5                  LDQ     QLT_+2
        28 001356   000022 736000                    QLS     18
        28 001357   000001 036000 5                  ADLQ    QLT_+1
        28 001360   200013 470500                    LDP0    RWCT_ST$,,AUTO
        28 001361   000007 756100                    STQ     7,,PR0
PL6.E3A0      #003=Z8DT$REPORT_WRAPUP File=Z8DT.:Z8A6TSI                         SAT 08/09/97 11:31 Page:608

  18614 28 001362   000002 235000 5                  LDA     QLT_+2
        28 001363   000006 035007                    ADLA    6,DL
        28 001364   000002 755000 5                  STA     QLT_+2

  18615 28 001365   000007 471500                    LDP1    7,,PR0
        28 001366   001053 220003                    LDX0    555,DU
        28 001367   100000 740100                    STX0    0,,PR1

  18618 28 001370   000007 471500                    LDP1    7,,PR0
        28 001371   000004 236000 29                 LDQ     4
        28 001372   100001 756100                    STQ     1,,PR1

  18619 28 001373   000007 471500                    LDP1    7,,PR0
        28 001374   000004 236000 29                 LDQ     4
        28 001375   100002 756100                    STQ     2,,PR1

  18620 28 001376   000007 471500                    LDP1    7,,PR0
        28 001377   000004 236000 29                 LDQ     4
        28 001400   100003 756100                    STQ     3,,PR1

  18621 28 001401   000007 471500                    LDP1    7,,PR0
        28 001402   200013 236100                    LDQ     RWCT_ST$,,AUTO
        28 001403   100004 756100                    STQ     4,,PR1

  18622 28 001404   000007 471500                    LDP1    7,,PR0
        28 001405   000000 236000 8                  LDQ     DNT$
        28 001406   100005 756100                    STQ     5,,PR1

  18623 28 001407   000007 471500                    LDP1    7,,PR0
        28 001410   000001 236007                    LDQ     1,DL
        28 001411   100000 552104                    STBQ    0,'04'O,PR1

  18624 28 001412   000007 471500                    LDP1    7,,PR0
        28 001413   000000 236003                    LDQ     0,DU
        28 001414   100000 552110                    STBQ    0,'10'O,PR1

PL6.E3A0      #003=Z8DT$REPORT_WRAPUP File=Z8DT.:Z8A6TSI                         SAT 08/09/97 11:31 Page:609
  18625 28 001415   000007 471500                    LDP1    7,,PR0
        28 001416   000017 236000 29                 LDQ     15
        28 001417   100000 356100                    ANSQ    0,,PR1

  18626 28 001420   000007 471500                    LDP1    7,,PR0
        28 001421   000020 236000 29                 LDQ     16
        28 001422   100000 356100                    ANSQ    0,,PR1

  18627 28 001423   000007 471500                    LDP1    7,,PR0
        28 001424   000013 236000 29                 LDQ     11
        28 001425   100000 356100                    ANSQ    0,,PR1

  18628 28 001426   000007 471500                    LDP1    7,,PR0
        28 001427   000021 236000 29                 LDQ     17
        28 001430   100000 356100                    ANSQ    0,,PR1

  18631 28 001431   000007 471500                    LDP1    7,,PR0
        28 001432   200017 236100                    LDQ     RD_QLT$,,AUTO
        28 001433   100001 756100                    STQ     1,,PR1

  18632 28 001434   000007 236100                    LDQ     7,,PR0
        28 001435   200016 471500                    LDP1    PREV_QLT$,,AUTO
        28 001436   100002 756100                    STQ     2,,PR1

  18633 28 001437   000007 236100                    LDQ     7,,PR0
        28 001440   200016 756100                    STQ     PREV_QLT$,,AUTO

  18636 28 001441   000064 471400 xsym               LDP1    O1COM+52
        28 001442   100023 473500                    LDP3    19,,PR1
        28 001443   200013 236100                    LDQ     RWCT_ST$,,AUTO
        28 001444   300022 756100                    STQ     18,,PR3

     3714    18640
     3715    18641               %CREATE_SC_RWCT (@RW_TEXT = %RWCT_CGT_TEXT,
     3716    18642                 @POINTER = O1COM.CURRENT_REPORT_LTS$ -> REPORT_LTS.REPORT_FOOTING$,
     3717    18643                 @RW_SIZE = %RWCT_CGT_SIZE);

PL6.E3A0      #003=Z8DT$REPORT_WRAPUP File=Z8DT.:Z8A6TSI                         SAT 08/09/97 11:31 Page:610
  18645 28 001445   000064 471400 xsym               LDP1    O1COM+52
        28 001446   100033 236100                    LDQ     27,,PR1
        28 001447   000004 116000 29                 CMPQ    4
        28 001450   001725 600000 28                 TZE     s:18933

  18647 28 001451   100033 473500                    LDP3    27,,PR1
        28 001452   300003 474500                    LDP4    3,,PR3
        28 001453   400002 236100                    LDQ     2,,PR4
        28 001454   777777 376007                    ANQ     -1,DL
        28 001455   200015 756100                    STQ     LINE_NO#,,AUTO

  18652 28 001456   000010 235007                    LDA     8,DL
        28 001457   000010 755000 22                 STA     LEX_SYMBOL+8

  18653 28 001460   000000 621005                    EAX1    0,AL
        28 001461   040040 100400                    MLR     fill='040'O
        28 001462   000006 000010 27                 ADSC9   6                        cn=0,n=8
        28 001463   000011 000011 22                 ADSC9   LEX_SYMBOL+9             cn=0,n=*X1

  18656 28 001464   000003 631400 29                 EPPR1   3
        28 001465   000000 701000 xent               TSX1    Z8AH$SEARCH_
        28 001466   000000 011000                    NOP     0

  18668 28 001467   000002 236000 7                  LDQ     ST_+2
        28 001470   000013 036007                    ADLQ    11,DL
        28 001471   000003 116000 7                  CMPQ    ST_+3
        28 001472   001503 604000 28                 TMI     s:18670

  18669 28 001473   000006 236000 29                 LDQ     6
        28 001474   200024 756100                    STQ     APPEND_IND_OFF+1,,AUTO
        28 001475   200024 630500                    EPPR0   APPEND_IND_OFF+1,,AUTO
        28 001476   200025 450500                    STP0    APPEND_IND_OFF+2,,AUTO
        28 001477   200025 630500                    EPPR0   APPEND_IND_OFF+2,,AUTO
        28 001500   000005 631400 29                 EPPR1   5
        28 001501   000000 701000 xent               TSX1    Z8AR$RESERVER
        28 001502   000000 011000                    NOP     0

PL6.E3A0      #003=Z8DT$REPORT_WRAPUP File=Z8DT.:Z8A6TSI                         SAT 08/09/97 11:31 Page:611
  18670 28 001503   000002 236000 7                  LDQ     ST_+2
        28 001504   000022 736000                    QLS     18
        28 001505   000001 036000 7                  ADLQ    ST_+1
        28 001506   200013 756100                    STQ     RWCT_ST$,,AUTO

  18671 28 001507   000013 236007                    LDQ     11,DL
        28 001510   000002 056000 7                  ASQ     ST_+2

  18719 28 001511   000766 220003                    LDX0    502,DU
        28 001512   200013 470500                    LDP0    RWCT_ST$,,AUTO
        28 001513   000000 740100                    STX0    0,,PR0

  18720 28 001514   003000 236007                    LDQ     1536,DL
        28 001515   000000 552110                    STBQ    0,'10'O,PR0

  18721 28 001516   000001 236007                    LDQ     1,DL
        28 001517   000000 552104                    STBQ    0,'04'O,PR0

  18722 28 001520   000000 221003                    LDX1    0,DU
        28 001521   000001 741100                    STX1    1,,PR0

  18723 28 001522   000001 441100                    SXL1    1,,PR0

  18724 28 001523   200015 722100                    LXL2    LINE_NO#,,AUTO
        28 001524   000002 442100                    SXL2    2,,PR0

  18725 28 001525   000003 450100                    STZ     3,,PR0

  18726 28 001526   000000 471400 8                  LDP1    DNT$
        28 001527   100001 236100                    LDQ     1,,PR1
        28 001530   000004 756100                    STQ     4,,PR0

  18727 28 001531   000004 236000 29                 LDQ     4
        28 001532   000005 756100                    STQ     5,,PR0

  18728 28 001533   000007 756100                    STQ     7,,PR0

PL6.E3A0      #003=Z8DT$REPORT_WRAPUP File=Z8DT.:Z8A6TSI                         SAT 08/09/97 11:31 Page:612
  18729 28 001534   000010 741100                    STX1    8,,PR0

  18730 28 001535   777777 223003                    LDX3    -1,DU
        28 001536   000010 443100                    SXL3    8,,PR0

  18734 28 001537   000012 756100                    STQ     10,,PR0

  18737 28 001540   000057 236000 xsym               LDQ     O1COM+47
        28 001541   000011 756100                    STQ     9,,PR0

  18738 28 001542   000057 236000 xsym               LDQ     O1COM+47
        28 001543   000004 116000 29                 CMPQ    4
        28 001544   001566 600000 28                 TZE     s:18773

  18742 28 001545   000057 473400 xsym               LDP3    O1COM+47
        28 001546   300001 474500                    LDP4    1,,PR3
        28 001547   400012 236100                    LDQ     10,,PR4
        28 001550   000004 116000 29                 CMPQ    4
        28 001551   001560 601000 28                 TNZ     s:18749

  18744 28 001552   200013 236100                    LDQ     RWCT_ST$,,AUTO
        28 001553   400011 756100                    STQ     9,,PR4

  18745 28 001554   000057 473400 xsym               LDP3    O1COM+47
        28 001555   300001 474500                    LDP4    1,,PR3
        28 001556   400012 756100                    STQ     10,,PR4

  18746 28 001557   001566 710000 28                 TRA     s:18773

  18749 28 001560   400012 475500                    LDP5    10,,PR4
        28 001561   200013 236100                    LDQ     RWCT_ST$,,AUTO
        28 001562   500012 756100                    STQ     10,,PR5

  18750 28 001563   000057 473400 xsym               LDP3    O1COM+47
        28 001564   300001 474500                    LDP4    1,,PR3
        28 001565   400012 756100                    STQ     10,,PR4

PL6.E3A0      #003=Z8DT$REPORT_WRAPUP File=Z8DT.:Z8A6TSI                         SAT 08/09/97 11:31 Page:613
  18773 28 001566   000010 224003                    LDX4    8,DU
        28 001567   000002 744100                    STX4    2,,PR0

  18778 28 001570   000000 236000 8                  LDQ     DNT$
        28 001571   000006 756100                    STQ     6,,PR0

  18795 28 001572   010000 236003                    LDQ     4096,DU
        28 001573   000003 256100                    ORSQ    3,,PR0

  18837 28 001574   010000 236007                    LDQ     4096,DL
        28 001575   000003 256100                    ORSQ    3,,PR0

  18843 28 001576   000003 236100                    LDQ     3,,PR0
        28 001577   000007 376000 29                 ANQ     7
        28 001600   000003 276007                    ORQ     3,DL
        28 001601   000003 756100                    STQ     3,,PR0

  18864 28 001602   200013 236100                    LDQ     RWCT_ST$,,AUTO
        28 001603   100001 756100                    STQ     1,,PR1

  18870 28 001604   200014 741100                    STX1    RWCT_DESC,,AUTO

  18872 28 001605   000012 236000 29                 LDQ     10
        28 001606   200014 356100                    ANSQ    RWCT_DESC,,AUTO

  18873 28 001607   000013 236000 29                 LDQ     11
        28 001610   200014 356100                    ANSQ    RWCT_DESC,,AUTO

  18885 28 001611   000014 236000 29                 LDQ     12
        28 001612   200014 356100                    ANSQ    RWCT_DESC,,AUTO

  18886 28 001613   000015 236000 29                 LDQ     13
        28 001614   200014 356100                    ANSQ    RWCT_DESC,,AUTO

  18887 28 001615   000040 236007                    LDQ     32,DL
        28 001616   200014 752103                    STCQ    RWCT_DESC,'03'O,AUTO

PL6.E3A0      #003=Z8DT$REPORT_WRAPUP File=Z8DT.:Z8A6TSI                         SAT 08/09/97 11:31 Page:614
  18890 28 001617   200014 725100                    LXL5    RWCT_DESC,,AUTO
        28 001620   000001 445100                    SXL5    1,,PR0

  18899 28 001621   000002 236000 5                  LDQ     QLT_+2
        28 001622   000006 036007                    ADLQ    6,DL
        28 001623   000003 116000 5                  CMPQ    QLT_+3
        28 001624   001635 602000 28                 TNC     s:18901

  18900 28 001625   000016 236000 29                 LDQ     14
        28 001626   200024 756100                    STQ     APPEND_IND_OFF+1,,AUTO
        28 001627   200024 633500                    EPPR3   APPEND_IND_OFF+1,,AUTO
        28 001630   200025 453500                    STP3    APPEND_IND_OFF+2,,AUTO
        28 001631   200025 630500                    EPPR0   APPEND_IND_OFF+2,,AUTO
        28 001632   000005 631400 29                 EPPR1   5
        28 001633   000000 701000 xent               TSX1    Z8AR$RESERVER
        28 001634   000000 011000                    NOP     0

  18901 28 001635   000002 236000 5                  LDQ     QLT_+2
        28 001636   000022 736000                    QLS     18
        28 001637   000001 036000 5                  ADLQ    QLT_+1
        28 001640   200013 470500                    LDP0    RWCT_ST$,,AUTO
        28 001641   000007 756100                    STQ     7,,PR0

  18902 28 001642   000002 235000 5                  LDA     QLT_+2
        28 001643   000006 035007                    ADLA    6,DL
        28 001644   000002 755000 5                  STA     QLT_+2

  18903 28 001645   000007 471500                    LDP1    7,,PR0
        28 001646   001053 220003                    LDX0    555,DU
        28 001647   100000 740100                    STX0    0,,PR1

  18906 28 001650   000007 471500                    LDP1    7,,PR0
        28 001651   000004 236000 29                 LDQ     4
        28 001652   100001 756100                    STQ     1,,PR1

  18907 28 001653   000007 471500                    LDP1    7,,PR0
        28 001654   000004 236000 29                 LDQ     4
PL6.E3A0      #003=Z8DT$REPORT_WRAPUP File=Z8DT.:Z8A6TSI                         SAT 08/09/97 11:31 Page:615
        28 001655   100002 756100                    STQ     2,,PR1

  18908 28 001656   000007 471500                    LDP1    7,,PR0
        28 001657   000004 236000 29                 LDQ     4
        28 001660   100003 756100                    STQ     3,,PR1

  18909 28 001661   000007 471500                    LDP1    7,,PR0
        28 001662   200013 236100                    LDQ     RWCT_ST$,,AUTO
        28 001663   100004 756100                    STQ     4,,PR1

  18910 28 001664   000007 471500                    LDP1    7,,PR0
        28 001665   000000 236000 8                  LDQ     DNT$
        28 001666   100005 756100                    STQ     5,,PR1

  18911 28 001667   000007 471500                    LDP1    7,,PR0
        28 001670   000001 236007                    LDQ     1,DL
        28 001671   100000 552104                    STBQ    0,'04'O,PR1

  18912 28 001672   000007 471500                    LDP1    7,,PR0
        28 001673   000000 236003                    LDQ     0,DU
        28 001674   100000 552110                    STBQ    0,'10'O,PR1

  18913 28 001675   000007 471500                    LDP1    7,,PR0
        28 001676   000017 236000 29                 LDQ     15
        28 001677   100000 356100                    ANSQ    0,,PR1

  18914 28 001700   000007 471500                    LDP1    7,,PR0
        28 001701   000020 236000 29                 LDQ     16
        28 001702   100000 356100                    ANSQ    0,,PR1

  18915 28 001703   000007 471500                    LDP1    7,,PR0
        28 001704   000013 236000 29                 LDQ     11
        28 001705   100000 356100                    ANSQ    0,,PR1

  18916 28 001706   000007 471500                    LDP1    7,,PR0
        28 001707   000021 236000 29                 LDQ     17
        28 001710   100000 356100                    ANSQ    0,,PR1
PL6.E3A0      #003=Z8DT$REPORT_WRAPUP File=Z8DT.:Z8A6TSI                         SAT 08/09/97 11:31 Page:616

  18919 28 001711   000007 471500                    LDP1    7,,PR0
        28 001712   200017 236100                    LDQ     RD_QLT$,,AUTO
        28 001713   100001 756100                    STQ     1,,PR1

  18920 28 001714   000007 236100                    LDQ     7,,PR0
        28 001715   200016 471500                    LDP1    PREV_QLT$,,AUTO
        28 001716   100002 756100                    STQ     2,,PR1

  18921 28 001717   000007 236100                    LDQ     7,,PR0
        28 001720   200016 756100                    STQ     PREV_QLT$,,AUTO

  18924 28 001721   000064 471400 xsym               LDP1    O1COM+52
        28 001722   100033 473500                    LDP3    27,,PR1
        28 001723   200013 236100                    LDQ     RWCT_ST$,,AUTO
        28 001724   300022 756100                    STQ     18,,PR3

     3718    18928
     3719    18929               %CREATE_SC_RWCT (@RW_TEXT = %RWCT_CGT_TEXT,
     3720    18930                 @POINTER = O1COM.CURRENT_REPORT_LTS$ -> REPORT_LTS.PAGE_HEADING$,
     3721    18931                 @RW_SIZE = %RWCT_CGT_SIZE);

  18933 28 001725   000064 471400 xsym               LDP1    O1COM+52
        28 001726   100024 236100                    LDQ     20,,PR1
        28 001727   000004 116000 29                 CMPQ    4
        28 001730   002205 600000 28                 TZE     s:19221

  18935 28 001731   100024 473500                    LDP3    20,,PR1
        28 001732   300003 474500                    LDP4    3,,PR3
        28 001733   400002 236100                    LDQ     2,,PR4
        28 001734   777777 376007                    ANQ     -1,DL
        28 001735   200015 756100                    STQ     LINE_NO#,,AUTO

  18940 28 001736   000010 235007                    LDA     8,DL
        28 001737   000010 755000 22                 STA     LEX_SYMBOL+8

  18941 28 001740   000000 621005                    EAX1    0,AL
PL6.E3A0      #003=Z8DT$REPORT_WRAPUP File=Z8DT.:Z8A6TSI                         SAT 08/09/97 11:31 Page:617
        28 001741   040040 100400                    MLR     fill='040'O
        28 001742   000006 000010 27                 ADSC9   6                        cn=0,n=8
        28 001743   000011 000011 22                 ADSC9   LEX_SYMBOL+9             cn=0,n=*X1

  18944 28 001744   000003 631400 29                 EPPR1   3
        28 001745   000000 701000 xent               TSX1    Z8AH$SEARCH_
        28 001746   000000 011000                    NOP     0

  18956 28 001747   000002 236000 7                  LDQ     ST_+2
        28 001750   000013 036007                    ADLQ    11,DL
        28 001751   000003 116000 7                  CMPQ    ST_+3
        28 001752   001763 604000 28                 TMI     s:18958

  18957 28 001753   000006 236000 29                 LDQ     6
        28 001754   200024 756100                    STQ     APPEND_IND_OFF+1,,AUTO
        28 001755   200024 630500                    EPPR0   APPEND_IND_OFF+1,,AUTO
        28 001756   200025 450500                    STP0    APPEND_IND_OFF+2,,AUTO
        28 001757   200025 630500                    EPPR0   APPEND_IND_OFF+2,,AUTO
        28 001760   000005 631400 29                 EPPR1   5
        28 001761   000000 701000 xent               TSX1    Z8AR$RESERVER
        28 001762   000000 011000                    NOP     0

  18958 28 001763   000002 236000 7                  LDQ     ST_+2
        28 001764   000022 736000                    QLS     18
        28 001765   000001 036000 7                  ADLQ    ST_+1
        28 001766   200013 756100                    STQ     RWCT_ST$,,AUTO

  18959 28 001767   000013 236007                    LDQ     11,DL
        28 001770   000002 056000 7                  ASQ     ST_+2

  19007 28 001771   000766 220003                    LDX0    502,DU
        28 001772   200013 470500                    LDP0    RWCT_ST$,,AUTO
        28 001773   000000 740100                    STX0    0,,PR0

  19008 28 001774   003000 236007                    LDQ     1536,DL
        28 001775   000000 552110                    STBQ    0,'10'O,PR0

PL6.E3A0      #003=Z8DT$REPORT_WRAPUP File=Z8DT.:Z8A6TSI                         SAT 08/09/97 11:31 Page:618
  19009 28 001776   000001 236007                    LDQ     1,DL
        28 001777   000000 552104                    STBQ    0,'04'O,PR0

  19010 28 002000   000000 221003                    LDX1    0,DU
        28 002001   000001 741100                    STX1    1,,PR0

  19011 28 002002   000001 441100                    SXL1    1,,PR0

  19012 28 002003   200015 722100                    LXL2    LINE_NO#,,AUTO
        28 002004   000002 442100                    SXL2    2,,PR0

  19013 28 002005   000003 450100                    STZ     3,,PR0

  19014 28 002006   000000 471400 8                  LDP1    DNT$
        28 002007   100001 236100                    LDQ     1,,PR1
        28 002010   000004 756100                    STQ     4,,PR0

  19015 28 002011   000004 236000 29                 LDQ     4
        28 002012   000005 756100                    STQ     5,,PR0

  19016 28 002013   000007 756100                    STQ     7,,PR0

  19017 28 002014   000010 741100                    STX1    8,,PR0

  19018 28 002015   777777 223003                    LDX3    -1,DU
        28 002016   000010 443100                    SXL3    8,,PR0

  19022 28 002017   000012 756100                    STQ     10,,PR0

  19025 28 002020   000057 236000 xsym               LDQ     O1COM+47
        28 002021   000011 756100                    STQ     9,,PR0

  19026 28 002022   000057 236000 xsym               LDQ     O1COM+47
        28 002023   000004 116000 29                 CMPQ    4
        28 002024   002046 600000 28                 TZE     s:19061

  19030 28 002025   000057 473400 xsym               LDP3    O1COM+47
PL6.E3A0      #003=Z8DT$REPORT_WRAPUP File=Z8DT.:Z8A6TSI                         SAT 08/09/97 11:31 Page:619
        28 002026   300001 474500                    LDP4    1,,PR3
        28 002027   400012 236100                    LDQ     10,,PR4
        28 002030   000004 116000 29                 CMPQ    4
        28 002031   002040 601000 28                 TNZ     s:19037

  19032 28 002032   200013 236100                    LDQ     RWCT_ST$,,AUTO
        28 002033   400011 756100                    STQ     9,,PR4

  19033 28 002034   000057 473400 xsym               LDP3    O1COM+47
        28 002035   300001 474500                    LDP4    1,,PR3
        28 002036   400012 756100                    STQ     10,,PR4

  19034 28 002037   002046 710000 28                 TRA     s:19061

  19037 28 002040   400012 475500                    LDP5    10,,PR4
        28 002041   200013 236100                    LDQ     RWCT_ST$,,AUTO
        28 002042   500012 756100                    STQ     10,,PR5

  19038 28 002043   000057 473400 xsym               LDP3    O1COM+47
        28 002044   300001 474500                    LDP4    1,,PR3
        28 002045   400012 756100                    STQ     10,,PR4

  19061 28 002046   000010 224003                    LDX4    8,DU
        28 002047   000002 744100                    STX4    2,,PR0

  19066 28 002050   000000 236000 8                  LDQ     DNT$
        28 002051   000006 756100                    STQ     6,,PR0

  19083 28 002052   010000 236003                    LDQ     4096,DU
        28 002053   000003 256100                    ORSQ    3,,PR0

  19125 28 002054   010000 236007                    LDQ     4096,DL
        28 002055   000003 256100                    ORSQ    3,,PR0

  19131 28 002056   000003 236100                    LDQ     3,,PR0
        28 002057   000007 376000 29                 ANQ     7
        28 002060   000003 276007                    ORQ     3,DL
PL6.E3A0      #003=Z8DT$REPORT_WRAPUP File=Z8DT.:Z8A6TSI                         SAT 08/09/97 11:31 Page:620
        28 002061   000003 756100                    STQ     3,,PR0

  19152 28 002062   200013 236100                    LDQ     RWCT_ST$,,AUTO
        28 002063   100001 756100                    STQ     1,,PR1

  19158 28 002064   200014 741100                    STX1    RWCT_DESC,,AUTO

  19160 28 002065   000012 236000 29                 LDQ     10
        28 002066   200014 356100                    ANSQ    RWCT_DESC,,AUTO

  19161 28 002067   000013 236000 29                 LDQ     11
        28 002070   200014 356100                    ANSQ    RWCT_DESC,,AUTO

  19173 28 002071   000014 236000 29                 LDQ     12
        28 002072   200014 356100                    ANSQ    RWCT_DESC,,AUTO

  19174 28 002073   000015 236000 29                 LDQ     13
        28 002074   200014 356100                    ANSQ    RWCT_DESC,,AUTO

  19175 28 002075   000040 236007                    LDQ     32,DL
        28 002076   200014 752103                    STCQ    RWCT_DESC,'03'O,AUTO

  19178 28 002077   200014 725100                    LXL5    RWCT_DESC,,AUTO
        28 002100   000001 445100                    SXL5    1,,PR0

  19187 28 002101   000002 236000 5                  LDQ     QLT_+2
        28 002102   000006 036007                    ADLQ    6,DL
        28 002103   000003 116000 5                  CMPQ    QLT_+3
        28 002104   002115 602000 28                 TNC     s:19189

  19188 28 002105   000016 236000 29                 LDQ     14
        28 002106   200024 756100                    STQ     APPEND_IND_OFF+1,,AUTO
        28 002107   200024 633500                    EPPR3   APPEND_IND_OFF+1,,AUTO
        28 002110   200025 453500                    STP3    APPEND_IND_OFF+2,,AUTO
        28 002111   200025 630500                    EPPR0   APPEND_IND_OFF+2,,AUTO
        28 002112   000005 631400 29                 EPPR1   5
        28 002113   000000 701000 xent               TSX1    Z8AR$RESERVER
PL6.E3A0      #003=Z8DT$REPORT_WRAPUP File=Z8DT.:Z8A6TSI                         SAT 08/09/97 11:31 Page:621
        28 002114   000000 011000                    NOP     0

  19189 28 002115   000002 236000 5                  LDQ     QLT_+2
        28 002116   000022 736000                    QLS     18
        28 002117   000001 036000 5                  ADLQ    QLT_+1
        28 002120   200013 470500                    LDP0    RWCT_ST$,,AUTO
        28 002121   000007 756100                    STQ     7,,PR0

  19190 28 002122   000002 235000 5                  LDA     QLT_+2
        28 002123   000006 035007                    ADLA    6,DL
        28 002124   000002 755000 5                  STA     QLT_+2

  19191 28 002125   000007 471500                    LDP1    7,,PR0
        28 002126   001053 220003                    LDX0    555,DU
        28 002127   100000 740100                    STX0    0,,PR1

  19194 28 002130   000007 471500                    LDP1    7,,PR0
        28 002131   000004 236000 29                 LDQ     4
        28 002132   100001 756100                    STQ     1,,PR1

  19195 28 002133   000007 471500                    LDP1    7,,PR0
        28 002134   000004 236000 29                 LDQ     4
        28 002135   100002 756100                    STQ     2,,PR1

  19196 28 002136   000007 471500                    LDP1    7,,PR0
        28 002137   000004 236000 29                 LDQ     4
        28 002140   100003 756100                    STQ     3,,PR1

  19197 28 002141   000007 471500                    LDP1    7,,PR0
        28 002142   200013 236100                    LDQ     RWCT_ST$,,AUTO
        28 002143   100004 756100                    STQ     4,,PR1

  19198 28 002144   000007 471500                    LDP1    7,,PR0
        28 002145   000000 236000 8                  LDQ     DNT$
        28 002146   100005 756100                    STQ     5,,PR1

  19199 28 002147   000007 471500                    LDP1    7,,PR0
PL6.E3A0      #003=Z8DT$REPORT_WRAPUP File=Z8DT.:Z8A6TSI                         SAT 08/09/97 11:31 Page:622
        28 002150   000001 236007                    LDQ     1,DL
        28 002151   100000 552104                    STBQ    0,'04'O,PR1

  19200 28 002152   000007 471500                    LDP1    7,,PR0
        28 002153   000000 236003                    LDQ     0,DU
        28 002154   100000 552110                    STBQ    0,'10'O,PR1

  19201 28 002155   000007 471500                    LDP1    7,,PR0
        28 002156   000017 236000 29                 LDQ     15
        28 002157   100000 356100                    ANSQ    0,,PR1

  19202 28 002160   000007 471500                    LDP1    7,,PR0
        28 002161   000020 236000 29                 LDQ     16
        28 002162   100000 356100                    ANSQ    0,,PR1

  19203 28 002163   000007 471500                    LDP1    7,,PR0
        28 002164   000013 236000 29                 LDQ     11
        28 002165   100000 356100                    ANSQ    0,,PR1

  19204 28 002166   000007 471500                    LDP1    7,,PR0
        28 002167   000021 236000 29                 LDQ     17
        28 002170   100000 356100                    ANSQ    0,,PR1

  19207 28 002171   000007 471500                    LDP1    7,,PR0
        28 002172   200017 236100                    LDQ     RD_QLT$,,AUTO
        28 002173   100001 756100                    STQ     1,,PR1

  19208 28 002174   000007 236100                    LDQ     7,,PR0
        28 002175   200016 471500                    LDP1    PREV_QLT$,,AUTO
        28 002176   100002 756100                    STQ     2,,PR1

  19209 28 002177   000007 236100                    LDQ     7,,PR0
        28 002200   200016 756100                    STQ     PREV_QLT$,,AUTO

  19212 28 002201   000064 471400 xsym               LDP1    O1COM+52
        28 002202   100024 473500                    LDP3    20,,PR1
        28 002203   200013 236100                    LDQ     RWCT_ST$,,AUTO
PL6.E3A0      #003=Z8DT$REPORT_WRAPUP File=Z8DT.:Z8A6TSI                         SAT 08/09/97 11:31 Page:623
        28 002204   300022 756100                    STQ     18,,PR3

     3722    19216
     3723    19217               %CREATE_SC_RWCT (@RW_TEXT = %RWCT_CGT_TEXT,
     3724    19218                 @POINTER = O1COM.CURRENT_REPORT_LTS$ -> REPORT_LTS.PAGE_FOOTING$,
     3725    19219                 @RW_SIZE = %RWCT_CGT_SIZE);

  19221 28 002205   000064 471400 xsym               LDP1    O1COM+52
        28 002206   100032 236100                    LDQ     26,,PR1
        28 002207   000004 116000 29                 CMPQ    4
        28 002210   002465 600000 28                 TZE     s:19509

  19223 28 002211   100032 473500                    LDP3    26,,PR1
        28 002212   300003 474500                    LDP4    3,,PR3
        28 002213   400002 236100                    LDQ     2,,PR4
        28 002214   777777 376007                    ANQ     -1,DL
        28 002215   200015 756100                    STQ     LINE_NO#,,AUTO

  19228 28 002216   000010 235007                    LDA     8,DL
        28 002217   000010 755000 22                 STA     LEX_SYMBOL+8

  19229 28 002220   000000 621005                    EAX1    0,AL
        28 002221   040040 100400                    MLR     fill='040'O
        28 002222   000006 000010 27                 ADSC9   6                        cn=0,n=8
        28 002223   000011 000011 22                 ADSC9   LEX_SYMBOL+9             cn=0,n=*X1

  19232 28 002224   000003 631400 29                 EPPR1   3
        28 002225   000000 701000 xent               TSX1    Z8AH$SEARCH_
        28 002226   000000 011000                    NOP     0

  19244 28 002227   000002 236000 7                  LDQ     ST_+2
        28 002230   000013 036007                    ADLQ    11,DL
        28 002231   000003 116000 7                  CMPQ    ST_+3
        28 002232   002243 604000 28                 TMI     s:19246

  19245 28 002233   000006 236000 29                 LDQ     6
        28 002234   200024 756100                    STQ     APPEND_IND_OFF+1,,AUTO
PL6.E3A0      #003=Z8DT$REPORT_WRAPUP File=Z8DT.:Z8A6TSI                         SAT 08/09/97 11:31 Page:624
        28 002235   200024 630500                    EPPR0   APPEND_IND_OFF+1,,AUTO
        28 002236   200025 450500                    STP0    APPEND_IND_OFF+2,,AUTO
        28 002237   200025 630500                    EPPR0   APPEND_IND_OFF+2,,AUTO
        28 002240   000005 631400 29                 EPPR1   5
        28 002241   000000 701000 xent               TSX1    Z8AR$RESERVER
        28 002242   000000 011000                    NOP     0

  19246 28 002243   000002 236000 7                  LDQ     ST_+2
        28 002244   000022 736000                    QLS     18
        28 002245   000001 036000 7                  ADLQ    ST_+1
        28 002246   200013 756100                    STQ     RWCT_ST$,,AUTO

  19247 28 002247   000013 236007                    LDQ     11,DL
        28 002250   000002 056000 7                  ASQ     ST_+2

  19295 28 002251   000766 220003                    LDX0    502,DU
        28 002252   200013 470500                    LDP0    RWCT_ST$,,AUTO
        28 002253   000000 740100                    STX0    0,,PR0

  19296 28 002254   003000 236007                    LDQ     1536,DL
        28 002255   000000 552110                    STBQ    0,'10'O,PR0

  19297 28 002256   000001 236007                    LDQ     1,DL
        28 002257   000000 552104                    STBQ    0,'04'O,PR0

  19298 28 002260   000000 221003                    LDX1    0,DU
        28 002261   000001 741100                    STX1    1,,PR0

  19299 28 002262   000001 441100                    SXL1    1,,PR0

  19300 28 002263   200015 722100                    LXL2    LINE_NO#,,AUTO
        28 002264   000002 442100                    SXL2    2,,PR0

  19301 28 002265   000003 450100                    STZ     3,,PR0

  19302 28 002266   000000 471400 8                  LDP1    DNT$
        28 002267   100001 236100                    LDQ     1,,PR1
PL6.E3A0      #003=Z8DT$REPORT_WRAPUP File=Z8DT.:Z8A6TSI                         SAT 08/09/97 11:31 Page:625
        28 002270   000004 756100                    STQ     4,,PR0

  19303 28 002271   000004 236000 29                 LDQ     4
        28 002272   000005 756100                    STQ     5,,PR0

  19304 28 002273   000007 756100                    STQ     7,,PR0

  19305 28 002274   000010 741100                    STX1    8,,PR0

  19306 28 002275   777777 223003                    LDX3    -1,DU
        28 002276   000010 443100                    SXL3    8,,PR0

  19310 28 002277   000012 756100                    STQ     10,,PR0

  19313 28 002300   000057 236000 xsym               LDQ     O1COM+47
        28 002301   000011 756100                    STQ     9,,PR0

  19314 28 002302   000057 236000 xsym               LDQ     O1COM+47
        28 002303   000004 116000 29                 CMPQ    4
        28 002304   002326 600000 28                 TZE     s:19349

  19318 28 002305   000057 473400 xsym               LDP3    O1COM+47
        28 002306   300001 474500                    LDP4    1,,PR3
        28 002307   400012 236100                    LDQ     10,,PR4
        28 002310   000004 116000 29                 CMPQ    4
        28 002311   002320 601000 28                 TNZ     s:19325

  19320 28 002312   200013 236100                    LDQ     RWCT_ST$,,AUTO
        28 002313   400011 756100                    STQ     9,,PR4

  19321 28 002314   000057 473400 xsym               LDP3    O1COM+47
        28 002315   300001 474500                    LDP4    1,,PR3
        28 002316   400012 756100                    STQ     10,,PR4

  19322 28 002317   002326 710000 28                 TRA     s:19349

  19325 28 002320   400012 475500                    LDP5    10,,PR4
PL6.E3A0      #003=Z8DT$REPORT_WRAPUP File=Z8DT.:Z8A6TSI                         SAT 08/09/97 11:31 Page:626
        28 002321   200013 236100                    LDQ     RWCT_ST$,,AUTO
        28 002322   500012 756100                    STQ     10,,PR5

  19326 28 002323   000057 473400 xsym               LDP3    O1COM+47
        28 002324   300001 474500                    LDP4    1,,PR3
        28 002325   400012 756100                    STQ     10,,PR4

  19349 28 002326   000010 224003                    LDX4    8,DU
        28 002327   000002 744100                    STX4    2,,PR0

  19354 28 002330   000000 236000 8                  LDQ     DNT$
        28 002331   000006 756100                    STQ     6,,PR0

  19371 28 002332   010000 236003                    LDQ     4096,DU
        28 002333   000003 256100                    ORSQ    3,,PR0

  19413 28 002334   010000 236007                    LDQ     4096,DL
        28 002335   000003 256100                    ORSQ    3,,PR0

  19419 28 002336   000003 236100                    LDQ     3,,PR0
        28 002337   000007 376000 29                 ANQ     7
        28 002340   000003 276007                    ORQ     3,DL
        28 002341   000003 756100                    STQ     3,,PR0

  19440 28 002342   200013 236100                    LDQ     RWCT_ST$,,AUTO
        28 002343   100001 756100                    STQ     1,,PR1

  19446 28 002344   200014 741100                    STX1    RWCT_DESC,,AUTO

  19448 28 002345   000012 236000 29                 LDQ     10
        28 002346   200014 356100                    ANSQ    RWCT_DESC,,AUTO

  19449 28 002347   000013 236000 29                 LDQ     11
        28 002350   200014 356100                    ANSQ    RWCT_DESC,,AUTO

  19461 28 002351   000014 236000 29                 LDQ     12
        28 002352   200014 356100                    ANSQ    RWCT_DESC,,AUTO
PL6.E3A0      #003=Z8DT$REPORT_WRAPUP File=Z8DT.:Z8A6TSI                         SAT 08/09/97 11:31 Page:627

  19462 28 002353   000015 236000 29                 LDQ     13
        28 002354   200014 356100                    ANSQ    RWCT_DESC,,AUTO

  19463 28 002355   000040 236007                    LDQ     32,DL
        28 002356   200014 752103                    STCQ    RWCT_DESC,'03'O,AUTO

  19466 28 002357   200014 725100                    LXL5    RWCT_DESC,,AUTO
        28 002360   000001 445100                    SXL5    1,,PR0

  19475 28 002361   000002 236000 5                  LDQ     QLT_+2
        28 002362   000006 036007                    ADLQ    6,DL
        28 002363   000003 116000 5                  CMPQ    QLT_+3
        28 002364   002375 602000 28                 TNC     s:19477

  19476 28 002365   000016 236000 29                 LDQ     14
        28 002366   200024 756100                    STQ     APPEND_IND_OFF+1,,AUTO
        28 002367   200024 633500                    EPPR3   APPEND_IND_OFF+1,,AUTO
        28 002370   200025 453500                    STP3    APPEND_IND_OFF+2,,AUTO
        28 002371   200025 630500                    EPPR0   APPEND_IND_OFF+2,,AUTO
        28 002372   000005 631400 29                 EPPR1   5
        28 002373   000000 701000 xent               TSX1    Z8AR$RESERVER
        28 002374   000000 011000                    NOP     0

  19477 28 002375   000002 236000 5                  LDQ     QLT_+2
        28 002376   000022 736000                    QLS     18
        28 002377   000001 036000 5                  ADLQ    QLT_+1
        28 002400   200013 470500                    LDP0    RWCT_ST$,,AUTO
        28 002401   000007 756100                    STQ     7,,PR0

  19478 28 002402   000002 235000 5                  LDA     QLT_+2
        28 002403   000006 035007                    ADLA    6,DL
        28 002404   000002 755000 5                  STA     QLT_+2

  19479 28 002405   000007 471500                    LDP1    7,,PR0
        28 002406   001053 220003                    LDX0    555,DU
        28 002407   100000 740100                    STX0    0,,PR1
PL6.E3A0      #003=Z8DT$REPORT_WRAPUP File=Z8DT.:Z8A6TSI                         SAT 08/09/97 11:31 Page:628

  19482 28 002410   000007 471500                    LDP1    7,,PR0
        28 002411   000004 236000 29                 LDQ     4
        28 002412   100001 756100                    STQ     1,,PR1

  19483 28 002413   000007 471500                    LDP1    7,,PR0
        28 002414   000004 236000 29                 LDQ     4
        28 002415   100002 756100                    STQ     2,,PR1

  19484 28 002416   000007 471500                    LDP1    7,,PR0
        28 002417   000004 236000 29                 LDQ     4
        28 002420   100003 756100                    STQ     3,,PR1

  19485 28 002421   000007 471500                    LDP1    7,,PR0
        28 002422   200013 236100                    LDQ     RWCT_ST$,,AUTO
        28 002423   100004 756100                    STQ     4,,PR1

  19486 28 002424   000007 471500                    LDP1    7,,PR0
        28 002425   000000 236000 8                  LDQ     DNT$
        28 002426   100005 756100                    STQ     5,,PR1

  19487 28 002427   000007 471500                    LDP1    7,,PR0
        28 002430   000001 236007                    LDQ     1,DL
        28 002431   100000 552104                    STBQ    0,'04'O,PR1

  19488 28 002432   000007 471500                    LDP1    7,,PR0
        28 002433   000000 236003                    LDQ     0,DU
        28 002434   100000 552110                    STBQ    0,'10'O,PR1

  19489 28 002435   000007 471500                    LDP1    7,,PR0
        28 002436   000017 236000 29                 LDQ     15
        28 002437   100000 356100                    ANSQ    0,,PR1

  19490 28 002440   000007 471500                    LDP1    7,,PR0
        28 002441   000020 236000 29                 LDQ     16
        28 002442   100000 356100                    ANSQ    0,,PR1

PL6.E3A0      #003=Z8DT$REPORT_WRAPUP File=Z8DT.:Z8A6TSI                         SAT 08/09/97 11:31 Page:629
  19491 28 002443   000007 471500                    LDP1    7,,PR0
        28 002444   000013 236000 29                 LDQ     11
        28 002445   100000 356100                    ANSQ    0,,PR1

  19492 28 002446   000007 471500                    LDP1    7,,PR0
        28 002447   000021 236000 29                 LDQ     17
        28 002450   100000 356100                    ANSQ    0,,PR1

  19495 28 002451   000007 471500                    LDP1    7,,PR0
        28 002452   200017 236100                    LDQ     RD_QLT$,,AUTO
        28 002453   100001 756100                    STQ     1,,PR1

  19496 28 002454   000007 236100                    LDQ     7,,PR0
        28 002455   200016 471500                    LDP1    PREV_QLT$,,AUTO
        28 002456   100002 756100                    STQ     2,,PR1

  19497 28 002457   000007 236100                    LDQ     7,,PR0
        28 002460   200016 756100                    STQ     PREV_QLT$,,AUTO

  19500 28 002461   000064 471400 xsym               LDP1    O1COM+52
        28 002462   100032 473500                    LDP3    26,,PR1
        28 002463   200013 236100                    LDQ     RWCT_ST$,,AUTO
        28 002464   300022 756100                    STQ     18,,PR3

     3726    19504
     3727    19505               %CREATE_SC_RWCT (@RW_TEXT = %RWCT_CGT_TEXT,
     3728    19506                 @POINTER = O1COM.CURRENT_REPORT_LTS$ -> REPORT_LTS.CONTROL_HEADING_FINAL$,
     3729    19507                 @RW_SIZE = %RWCT_CGT_SIZE);

  19509 28 002465   000064 471400 xsym               LDP1    O1COM+52
        28 002466   100025 236100                    LDQ     21,,PR1
        28 002467   000004 116000 29                 CMPQ    4
        28 002470   002745 600000 28                 TZE     s:19797

  19511 28 002471   100025 473500                    LDP3    21,,PR1
        28 002472   300003 474500                    LDP4    3,,PR3
        28 002473   400002 236100                    LDQ     2,,PR4
PL6.E3A0      #003=Z8DT$REPORT_WRAPUP File=Z8DT.:Z8A6TSI                         SAT 08/09/97 11:31 Page:630
        28 002474   777777 376007                    ANQ     -1,DL
        28 002475   200015 756100                    STQ     LINE_NO#,,AUTO

  19516 28 002476   000010 235007                    LDA     8,DL
        28 002477   000010 755000 22                 STA     LEX_SYMBOL+8

  19517 28 002500   000000 621005                    EAX1    0,AL
        28 002501   040040 100400                    MLR     fill='040'O
        28 002502   000006 000010 27                 ADSC9   6                        cn=0,n=8
        28 002503   000011 000011 22                 ADSC9   LEX_SYMBOL+9             cn=0,n=*X1

  19520 28 002504   000003 631400 29                 EPPR1   3
        28 002505   000000 701000 xent               TSX1    Z8AH$SEARCH_
        28 002506   000000 011000                    NOP     0

  19532 28 002507   000002 236000 7                  LDQ     ST_+2
        28 002510   000013 036007                    ADLQ    11,DL
        28 002511   000003 116000 7                  CMPQ    ST_+3
        28 002512   002523 604000 28                 TMI     s:19534

  19533 28 002513   000006 236000 29                 LDQ     6
        28 002514   200024 756100                    STQ     APPEND_IND_OFF+1,,AUTO
        28 002515   200024 630500                    EPPR0   APPEND_IND_OFF+1,,AUTO
        28 002516   200025 450500                    STP0    APPEND_IND_OFF+2,,AUTO
        28 002517   200025 630500                    EPPR0   APPEND_IND_OFF+2,,AUTO
        28 002520   000005 631400 29                 EPPR1   5
        28 002521   000000 701000 xent               TSX1    Z8AR$RESERVER
        28 002522   000000 011000                    NOP     0

  19534 28 002523   000002 236000 7                  LDQ     ST_+2
        28 002524   000022 736000                    QLS     18
        28 002525   000001 036000 7                  ADLQ    ST_+1
        28 002526   200013 756100                    STQ     RWCT_ST$,,AUTO

  19535 28 002527   000013 236007                    LDQ     11,DL
        28 002530   000002 056000 7                  ASQ     ST_+2

PL6.E3A0      #003=Z8DT$REPORT_WRAPUP File=Z8DT.:Z8A6TSI                         SAT 08/09/97 11:31 Page:631
  19583 28 002531   000766 220003                    LDX0    502,DU
        28 002532   200013 470500                    LDP0    RWCT_ST$,,AUTO
        28 002533   000000 740100                    STX0    0,,PR0

  19584 28 002534   003000 236007                    LDQ     1536,DL
        28 002535   000000 552110                    STBQ    0,'10'O,PR0

  19585 28 002536   000001 236007                    LDQ     1,DL
        28 002537   000000 552104                    STBQ    0,'04'O,PR0

  19586 28 002540   000000 221003                    LDX1    0,DU
        28 002541   000001 741100                    STX1    1,,PR0

  19587 28 002542   000001 441100                    SXL1    1,,PR0

  19588 28 002543   200015 722100                    LXL2    LINE_NO#,,AUTO
        28 002544   000002 442100                    SXL2    2,,PR0

  19589 28 002545   000003 450100                    STZ     3,,PR0

  19590 28 002546   000000 471400 8                  LDP1    DNT$
        28 002547   100001 236100                    LDQ     1,,PR1
        28 002550   000004 756100                    STQ     4,,PR0

  19591 28 002551   000004 236000 29                 LDQ     4
        28 002552   000005 756100                    STQ     5,,PR0

  19592 28 002553   000007 756100                    STQ     7,,PR0

  19593 28 002554   000010 741100                    STX1    8,,PR0

  19594 28 002555   777777 223003                    LDX3    -1,DU
        28 002556   000010 443100                    SXL3    8,,PR0

  19598 28 002557   000012 756100                    STQ     10,,PR0

  19601 28 002560   000057 236000 xsym               LDQ     O1COM+47
PL6.E3A0      #003=Z8DT$REPORT_WRAPUP File=Z8DT.:Z8A6TSI                         SAT 08/09/97 11:31 Page:632
        28 002561   000011 756100                    STQ     9,,PR0

  19602 28 002562   000057 236000 xsym               LDQ     O1COM+47
        28 002563   000004 116000 29                 CMPQ    4
        28 002564   002606 600000 28                 TZE     s:19637

  19606 28 002565   000057 473400 xsym               LDP3    O1COM+47
        28 002566   300001 474500                    LDP4    1,,PR3
        28 002567   400012 236100                    LDQ     10,,PR4
        28 002570   000004 116000 29                 CMPQ    4
        28 002571   002600 601000 28                 TNZ     s:19613

  19608 28 002572   200013 236100                    LDQ     RWCT_ST$,,AUTO
        28 002573   400011 756100                    STQ     9,,PR4

  19609 28 002574   000057 473400 xsym               LDP3    O1COM+47
        28 002575   300001 474500                    LDP4    1,,PR3
        28 002576   400012 756100                    STQ     10,,PR4

  19610 28 002577   002606 710000 28                 TRA     s:19637

  19613 28 002600   400012 475500                    LDP5    10,,PR4
        28 002601   200013 236100                    LDQ     RWCT_ST$,,AUTO
        28 002602   500012 756100                    STQ     10,,PR5

  19614 28 002603   000057 473400 xsym               LDP3    O1COM+47
        28 002604   300001 474500                    LDP4    1,,PR3
        28 002605   400012 756100                    STQ     10,,PR4

  19637 28 002606   000010 224003                    LDX4    8,DU
        28 002607   000002 744100                    STX4    2,,PR0

  19642 28 002610   000000 236000 8                  LDQ     DNT$
        28 002611   000006 756100                    STQ     6,,PR0

  19659 28 002612   010000 236003                    LDQ     4096,DU
        28 002613   000003 256100                    ORSQ    3,,PR0
PL6.E3A0      #003=Z8DT$REPORT_WRAPUP File=Z8DT.:Z8A6TSI                         SAT 08/09/97 11:31 Page:633

  19701 28 002614   010000 236007                    LDQ     4096,DL
        28 002615   000003 256100                    ORSQ    3,,PR0

  19707 28 002616   000003 236100                    LDQ     3,,PR0
        28 002617   000007 376000 29                 ANQ     7
        28 002620   000003 276007                    ORQ     3,DL
        28 002621   000003 756100                    STQ     3,,PR0

  19728 28 002622   200013 236100                    LDQ     RWCT_ST$,,AUTO
        28 002623   100001 756100                    STQ     1,,PR1

  19734 28 002624   200014 741100                    STX1    RWCT_DESC,,AUTO

  19736 28 002625   000012 236000 29                 LDQ     10
        28 002626   200014 356100                    ANSQ    RWCT_DESC,,AUTO

  19737 28 002627   000013 236000 29                 LDQ     11
        28 002630   200014 356100                    ANSQ    RWCT_DESC,,AUTO

  19749 28 002631   000014 236000 29                 LDQ     12
        28 002632   200014 356100                    ANSQ    RWCT_DESC,,AUTO

  19750 28 002633   000015 236000 29                 LDQ     13
        28 002634   200014 356100                    ANSQ    RWCT_DESC,,AUTO

  19751 28 002635   000040 236007                    LDQ     32,DL
        28 002636   200014 752103                    STCQ    RWCT_DESC,'03'O,AUTO

  19754 28 002637   200014 725100                    LXL5    RWCT_DESC,,AUTO
        28 002640   000001 445100                    SXL5    1,,PR0

  19763 28 002641   000002 236000 5                  LDQ     QLT_+2
        28 002642   000006 036007                    ADLQ    6,DL
        28 002643   000003 116000 5                  CMPQ    QLT_+3
        28 002644   002655 602000 28                 TNC     s:19765

PL6.E3A0      #003=Z8DT$REPORT_WRAPUP File=Z8DT.:Z8A6TSI                         SAT 08/09/97 11:31 Page:634
  19764 28 002645   000016 236000 29                 LDQ     14
        28 002646   200024 756100                    STQ     APPEND_IND_OFF+1,,AUTO
        28 002647   200024 633500                    EPPR3   APPEND_IND_OFF+1,,AUTO
        28 002650   200025 453500                    STP3    APPEND_IND_OFF+2,,AUTO
        28 002651   200025 630500                    EPPR0   APPEND_IND_OFF+2,,AUTO
        28 002652   000005 631400 29                 EPPR1   5
        28 002653   000000 701000 xent               TSX1    Z8AR$RESERVER
        28 002654   000000 011000                    NOP     0

  19765 28 002655   000002 236000 5                  LDQ     QLT_+2
        28 002656   000022 736000                    QLS     18
        28 002657   000001 036000 5                  ADLQ    QLT_+1
        28 002660   200013 470500                    LDP0    RWCT_ST$,,AUTO
        28 002661   000007 756100                    STQ     7,,PR0

  19766 28 002662   000002 235000 5                  LDA     QLT_+2
        28 002663   000006 035007                    ADLA    6,DL
        28 002664   000002 755000 5                  STA     QLT_+2

  19767 28 002665   000007 471500                    LDP1    7,,PR0
        28 002666   001053 220003                    LDX0    555,DU
        28 002667   100000 740100                    STX0    0,,PR1

  19770 28 002670   000007 471500                    LDP1    7,,PR0
        28 002671   000004 236000 29                 LDQ     4
        28 002672   100001 756100                    STQ     1,,PR1

  19771 28 002673   000007 471500                    LDP1    7,,PR0
        28 002674   000004 236000 29                 LDQ     4
        28 002675   100002 756100                    STQ     2,,PR1

  19772 28 002676   000007 471500                    LDP1    7,,PR0
        28 002677   000004 236000 29                 LDQ     4
        28 002700   100003 756100                    STQ     3,,PR1

  19773 28 002701   000007 471500                    LDP1    7,,PR0
        28 002702   200013 236100                    LDQ     RWCT_ST$,,AUTO
PL6.E3A0      #003=Z8DT$REPORT_WRAPUP File=Z8DT.:Z8A6TSI                         SAT 08/09/97 11:31 Page:635
        28 002703   100004 756100                    STQ     4,,PR1

  19774 28 002704   000007 471500                    LDP1    7,,PR0
        28 002705   000000 236000 8                  LDQ     DNT$
        28 002706   100005 756100                    STQ     5,,PR1

  19775 28 002707   000007 471500                    LDP1    7,,PR0
        28 002710   000001 236007                    LDQ     1,DL
        28 002711   100000 552104                    STBQ    0,'04'O,PR1

  19776 28 002712   000007 471500                    LDP1    7,,PR0
        28 002713   000000 236003                    LDQ     0,DU
        28 002714   100000 552110                    STBQ    0,'10'O,PR1

  19777 28 002715   000007 471500                    LDP1    7,,PR0
        28 002716   000017 236000 29                 LDQ     15
        28 002717   100000 356100                    ANSQ    0,,PR1

  19778 28 002720   000007 471500                    LDP1    7,,PR0
        28 002721   000020 236000 29                 LDQ     16
        28 002722   100000 356100                    ANSQ    0,,PR1

  19779 28 002723   000007 471500                    LDP1    7,,PR0
        28 002724   000013 236000 29                 LDQ     11
        28 002725   100000 356100                    ANSQ    0,,PR1

  19780 28 002726   000007 471500                    LDP1    7,,PR0
        28 002727   000021 236000 29                 LDQ     17
        28 002730   100000 356100                    ANSQ    0,,PR1

  19783 28 002731   000007 471500                    LDP1    7,,PR0
        28 002732   200017 236100                    LDQ     RD_QLT$,,AUTO
        28 002733   100001 756100                    STQ     1,,PR1

  19784 28 002734   000007 236100                    LDQ     7,,PR0
        28 002735   200016 471500                    LDP1    PREV_QLT$,,AUTO
        28 002736   100002 756100                    STQ     2,,PR1
PL6.E3A0      #003=Z8DT$REPORT_WRAPUP File=Z8DT.:Z8A6TSI                         SAT 08/09/97 11:31 Page:636

  19785 28 002737   000007 236100                    LDQ     7,,PR0
        28 002740   200016 756100                    STQ     PREV_QLT$,,AUTO

  19788 28 002741   000064 471400 xsym               LDP1    O1COM+52
        28 002742   100025 473500                    LDP3    21,,PR1
        28 002743   200013 236100                    LDQ     RWCT_ST$,,AUTO
        28 002744   300022 756100                    STQ     18,,PR3

     3730    19792
     3731    19793               %CREATE_SC_RWCT (@RW_TEXT = %RWCT_CGT_TEXT,
     3732    19794                 @POINTER = O1COM.CURRENT_REPORT_LTS$ -> REPORT_LTS.CONTROL_FOOTING_FINAL$,
     3733    19795                 @RW_SIZE = %RWCT_CGT_SIZE);

  19797 28 002745   000064 471400 xsym               LDP1    O1COM+52
        28 002746   100031 236100                    LDQ     25,,PR1
        28 002747   000004 116000 29                 CMPQ    4
        28 002750   003225 600000 28                 TZE     s:20081

  19799 28 002751   100031 473500                    LDP3    25,,PR1
        28 002752   300003 474500                    LDP4    3,,PR3
        28 002753   400002 236100                    LDQ     2,,PR4
        28 002754   777777 376007                    ANQ     -1,DL
        28 002755   200015 756100                    STQ     LINE_NO#,,AUTO

  19804 28 002756   000010 235007                    LDA     8,DL
        28 002757   000010 755000 22                 STA     LEX_SYMBOL+8

  19805 28 002760   000000 621005                    EAX1    0,AL
        28 002761   040040 100400                    MLR     fill='040'O
        28 002762   000006 000010 27                 ADSC9   6                        cn=0,n=8
        28 002763   000011 000011 22                 ADSC9   LEX_SYMBOL+9             cn=0,n=*X1

  19808 28 002764   000003 631400 29                 EPPR1   3
        28 002765   000000 701000 xent               TSX1    Z8AH$SEARCH_
        28 002766   000000 011000                    NOP     0

PL6.E3A0      #003=Z8DT$REPORT_WRAPUP File=Z8DT.:Z8A6TSI                         SAT 08/09/97 11:31 Page:637
  19820 28 002767   000002 236000 7                  LDQ     ST_+2
        28 002770   000013 036007                    ADLQ    11,DL
        28 002771   000003 116000 7                  CMPQ    ST_+3
        28 002772   003003 604000 28                 TMI     s:19822

  19821 28 002773   000006 236000 29                 LDQ     6
        28 002774   200024 756100                    STQ     APPEND_IND_OFF+1,,AUTO
        28 002775   200024 630500                    EPPR0   APPEND_IND_OFF+1,,AUTO
        28 002776   200025 450500                    STP0    APPEND_IND_OFF+2,,AUTO
        28 002777   200025 630500                    EPPR0   APPEND_IND_OFF+2,,AUTO
        28 003000   000005 631400 29                 EPPR1   5
        28 003001   000000 701000 xent               TSX1    Z8AR$RESERVER
        28 003002   000000 011000                    NOP     0

  19822 28 003003   000002 236000 7                  LDQ     ST_+2
        28 003004   000022 736000                    QLS     18
        28 003005   000001 036000 7                  ADLQ    ST_+1
        28 003006   200013 756100                    STQ     RWCT_ST$,,AUTO

  19823 28 003007   000013 236007                    LDQ     11,DL
        28 003010   000002 056000 7                  ASQ     ST_+2

  19871 28 003011   000766 220003                    LDX0    502,DU
        28 003012   200013 470500                    LDP0    RWCT_ST$,,AUTO
        28 003013   000000 740100                    STX0    0,,PR0

  19872 28 003014   003000 236007                    LDQ     1536,DL
        28 003015   000000 552110                    STBQ    0,'10'O,PR0

  19873 28 003016   000001 236007                    LDQ     1,DL
        28 003017   000000 552104                    STBQ    0,'04'O,PR0

  19874 28 003020   000000 221003                    LDX1    0,DU
        28 003021   000001 741100                    STX1    1,,PR0

  19875 28 003022   000001 441100                    SXL1    1,,PR0

PL6.E3A0      #003=Z8DT$REPORT_WRAPUP File=Z8DT.:Z8A6TSI                         SAT 08/09/97 11:31 Page:638
  19876 28 003023   200015 722100                    LXL2    LINE_NO#,,AUTO
        28 003024   000002 442100                    SXL2    2,,PR0

  19877 28 003025   000003 450100                    STZ     3,,PR0

  19878 28 003026   000000 471400 8                  LDP1    DNT$
        28 003027   100001 236100                    LDQ     1,,PR1
        28 003030   000004 756100                    STQ     4,,PR0

  19879 28 003031   000004 236000 29                 LDQ     4
        28 003032   000005 756100                    STQ     5,,PR0

  19880 28 003033   000007 756100                    STQ     7,,PR0

  19881 28 003034   000010 741100                    STX1    8,,PR0

  19882 28 003035   777777 223003                    LDX3    -1,DU
        28 003036   000010 443100                    SXL3    8,,PR0

  19886 28 003037   000012 756100                    STQ     10,,PR0

  19889 28 003040   000057 236000 xsym               LDQ     O1COM+47
        28 003041   000011 756100                    STQ     9,,PR0

  19890 28 003042   000057 236000 xsym               LDQ     O1COM+47
        28 003043   000004 116000 29                 CMPQ    4
        28 003044   003066 600000 28                 TZE     s:19925

  19894 28 003045   000057 473400 xsym               LDP3    O1COM+47
        28 003046   300001 474500                    LDP4    1,,PR3
        28 003047   400012 236100                    LDQ     10,,PR4
        28 003050   000004 116000 29                 CMPQ    4
        28 003051   003060 601000 28                 TNZ     s:19901

  19896 28 003052   200013 236100                    LDQ     RWCT_ST$,,AUTO
        28 003053   400011 756100                    STQ     9,,PR4

PL6.E3A0      #003=Z8DT$REPORT_WRAPUP File=Z8DT.:Z8A6TSI                         SAT 08/09/97 11:31 Page:639
  19897 28 003054   000057 473400 xsym               LDP3    O1COM+47
        28 003055   300001 474500                    LDP4    1,,PR3
        28 003056   400012 756100                    STQ     10,,PR4

  19898 28 003057   003066 710000 28                 TRA     s:19925

  19901 28 003060   400012 475500                    LDP5    10,,PR4
        28 003061   200013 236100                    LDQ     RWCT_ST$,,AUTO
        28 003062   500012 756100                    STQ     10,,PR5

  19902 28 003063   000057 473400 xsym               LDP3    O1COM+47
        28 003064   300001 474500                    LDP4    1,,PR3
        28 003065   400012 756100                    STQ     10,,PR4

  19925 28 003066   000010 224003                    LDX4    8,DU
        28 003067   000002 744100                    STX4    2,,PR0

  19930 28 003070   000000 236000 8                  LDQ     DNT$
        28 003071   000006 756100                    STQ     6,,PR0

  19947 28 003072   010000 236003                    LDQ     4096,DU
        28 003073   000003 256100                    ORSQ    3,,PR0

  19989 28 003074   010000 236007                    LDQ     4096,DL
        28 003075   000003 256100                    ORSQ    3,,PR0

  19995 28 003076   000003 236100                    LDQ     3,,PR0
        28 003077   000007 376000 29                 ANQ     7
        28 003100   000003 276007                    ORQ     3,DL
        28 003101   000003 756100                    STQ     3,,PR0

  20016 28 003102   200013 236100                    LDQ     RWCT_ST$,,AUTO
        28 003103   100001 756100                    STQ     1,,PR1

  20022 28 003104   200014 741100                    STX1    RWCT_DESC,,AUTO

  20024 28 003105   000012 236000 29                 LDQ     10
PL6.E3A0      #003=Z8DT$REPORT_WRAPUP File=Z8DT.:Z8A6TSI                         SAT 08/09/97 11:31 Page:640
        28 003106   200014 356100                    ANSQ    RWCT_DESC,,AUTO

  20025 28 003107   000013 236000 29                 LDQ     11
        28 003110   200014 356100                    ANSQ    RWCT_DESC,,AUTO

  20037 28 003111   000014 236000 29                 LDQ     12
        28 003112   200014 356100                    ANSQ    RWCT_DESC,,AUTO

  20038 28 003113   000015 236000 29                 LDQ     13
        28 003114   200014 356100                    ANSQ    RWCT_DESC,,AUTO

  20039 28 003115   000040 236007                    LDQ     32,DL
        28 003116   200014 752103                    STCQ    RWCT_DESC,'03'O,AUTO

  20042 28 003117   200014 725100                    LXL5    RWCT_DESC,,AUTO
        28 003120   000001 445100                    SXL5    1,,PR0

  20051 28 003121   000002 236000 5                  LDQ     QLT_+2
        28 003122   000006 036007                    ADLQ    6,DL
        28 003123   000003 116000 5                  CMPQ    QLT_+3
        28 003124   003135 602000 28                 TNC     s:20053

  20052 28 003125   000016 236000 29                 LDQ     14
        28 003126   200024 756100                    STQ     APPEND_IND_OFF+1,,AUTO
        28 003127   200024 633500                    EPPR3   APPEND_IND_OFF+1,,AUTO
        28 003130   200025 453500                    STP3    APPEND_IND_OFF+2,,AUTO
        28 003131   200025 630500                    EPPR0   APPEND_IND_OFF+2,,AUTO
        28 003132   000005 631400 29                 EPPR1   5
        28 003133   000000 701000 xent               TSX1    Z8AR$RESERVER
        28 003134   000000 011000                    NOP     0

  20053 28 003135   000002 236000 5                  LDQ     QLT_+2
        28 003136   000022 736000                    QLS     18
        28 003137   000001 036000 5                  ADLQ    QLT_+1
        28 003140   200013 470500                    LDP0    RWCT_ST$,,AUTO
        28 003141   000007 756100                    STQ     7,,PR0

PL6.E3A0      #003=Z8DT$REPORT_WRAPUP File=Z8DT.:Z8A6TSI                         SAT 08/09/97 11:31 Page:641
  20054 28 003142   000002 235000 5                  LDA     QLT_+2
        28 003143   000006 035007                    ADLA    6,DL
        28 003144   000002 755000 5                  STA     QLT_+2

  20055 28 003145   000007 471500                    LDP1    7,,PR0
        28 003146   001053 220003                    LDX0    555,DU
        28 003147   100000 740100                    STX0    0,,PR1

  20058 28 003150   000007 471500                    LDP1    7,,PR0
        28 003151   000004 236000 29                 LDQ     4
        28 003152   100001 756100                    STQ     1,,PR1

  20059 28 003153   000007 471500                    LDP1    7,,PR0
        28 003154   000004 236000 29                 LDQ     4
        28 003155   100002 756100                    STQ     2,,PR1

  20060 28 003156   000007 471500                    LDP1    7,,PR0
        28 003157   000004 236000 29                 LDQ     4
        28 003160   100003 756100                    STQ     3,,PR1

  20061 28 003161   000007 471500                    LDP1    7,,PR0
        28 003162   200013 236100                    LDQ     RWCT_ST$,,AUTO
        28 003163   100004 756100                    STQ     4,,PR1

  20062 28 003164   000007 471500                    LDP1    7,,PR0
        28 003165   000000 236000 8                  LDQ     DNT$
        28 003166   100005 756100                    STQ     5,,PR1

  20063 28 003167   000007 471500                    LDP1    7,,PR0
        28 003170   000001 236007                    LDQ     1,DL
        28 003171   100000 552104                    STBQ    0,'04'O,PR1

  20064 28 003172   000007 471500                    LDP1    7,,PR0
        28 003173   000000 236003                    LDQ     0,DU
        28 003174   100000 552110                    STBQ    0,'10'O,PR1

  20065 28 003175   000007 471500                    LDP1    7,,PR0
PL6.E3A0      #003=Z8DT$REPORT_WRAPUP File=Z8DT.:Z8A6TSI                         SAT 08/09/97 11:31 Page:642
        28 003176   000017 236000 29                 LDQ     15
        28 003177   100000 356100                    ANSQ    0,,PR1

  20066 28 003200   000007 471500                    LDP1    7,,PR0
        28 003201   000020 236000 29                 LDQ     16
        28 003202   100000 356100                    ANSQ    0,,PR1

  20067 28 003203   000007 471500                    LDP1    7,,PR0
        28 003204   000013 236000 29                 LDQ     11
        28 003205   100000 356100                    ANSQ    0,,PR1

  20068 28 003206   000007 471500                    LDP1    7,,PR0
        28 003207   000021 236000 29                 LDQ     17
        28 003210   100000 356100                    ANSQ    0,,PR1

  20071 28 003211   000007 471500                    LDP1    7,,PR0
        28 003212   200017 236100                    LDQ     RD_QLT$,,AUTO
        28 003213   100001 756100                    STQ     1,,PR1

  20072 28 003214   000007 236100                    LDQ     7,,PR0
        28 003215   200016 471500                    LDP1    PREV_QLT$,,AUTO
        28 003216   100002 756100                    STQ     2,,PR1

  20073 28 003217   000007 236100                    LDQ     7,,PR0
        28 003220   200016 756100                    STQ     PREV_QLT$,,AUTO

  20076 28 003221   000064 471400 xsym               LDP1    O1COM+52
        28 003222   100031 473500                    LDP3    25,,PR1
        28 003223   200013 236100                    LDQ     RWCT_ST$,,AUTO
        28 003224   300022 756100                    STQ     18,,PR3

     3734    20080
     3735    20081    2          NEXT$ = O1COM.CURRENT_REPORT_LTS$ -> REPORT_LTS.CONTROL_HEADING$;

  20081 28 003225   000064 471400 xsym               LDP1    O1COM+52
        28 003226   100026 236100                    LDQ     22,,PR1
        28 003227   200020 756100                    STQ     NEXT$,,AUTO
PL6.E3A0      #003=Z8DT$REPORT_WRAPUP File=Z8DT.:Z8A6TSI                         SAT 08/09/97 11:31 Page:643

     3736    20082
     3737    20083    3          DO WHILE (NEXT$ ~= ADDR(NIL));

  20083 28 003230   003512 710000 28                 TRA     s:20374

     3738    20084
     3739    20085                 %CREATE_SC_RWCT (@RW_TEXT = %RWCT_CGT_TEXT,
     3740    20086                                  @POINTER = NEXT$,
     3741    20087                                  @RW_SIZE = %RWCT_CGT_SIZE);

  20089 28 003231   200020 236100                    LDQ     NEXT$,,AUTO
        28 003232   000004 116000 29                 CMPQ    4
        28 003233   003507 600000 28                 TZE     s:20373

  20091 28 003234   200020 470500                    LDP0    NEXT$,,AUTO
        28 003235   000003 471500                    LDP1    3,,PR0
        28 003236   100002 236100                    LDQ     2,,PR1
        28 003237   777777 376007                    ANQ     -1,DL
        28 003240   200015 756100                    STQ     LINE_NO#,,AUTO

  20096 28 003241   000010 235007                    LDA     8,DL
        28 003242   000010 755000 22                 STA     LEX_SYMBOL+8

  20097 28 003243   000000 620005                    EAX0    0,AL
        28 003244   040040 100400                    MLR     fill='040'O
        28 003245   000006 000010 27                 ADSC9   6                        cn=0,n=8
        28 003246   000011 000010 22                 ADSC9   LEX_SYMBOL+9             cn=0,n=*X0

  20100 28 003247   000003 631400 29                 EPPR1   3
        28 003250   000000 701000 xent               TSX1    Z8AH$SEARCH_
        28 003251   000000 011000                    NOP     0

  20112 28 003252   000002 236000 7                  LDQ     ST_+2
        28 003253   000013 036007                    ADLQ    11,DL
        28 003254   000003 116000 7                  CMPQ    ST_+3
        28 003255   003266 604000 28                 TMI     s:20114
PL6.E3A0      #003=Z8DT$REPORT_WRAPUP File=Z8DT.:Z8A6TSI                         SAT 08/09/97 11:31 Page:644

  20113 28 003256   000006 236000 29                 LDQ     6
        28 003257   200024 756100                    STQ     APPEND_IND_OFF+1,,AUTO
        28 003260   200024 630500                    EPPR0   APPEND_IND_OFF+1,,AUTO
        28 003261   200025 450500                    STP0    APPEND_IND_OFF+2,,AUTO
        28 003262   200025 630500                    EPPR0   APPEND_IND_OFF+2,,AUTO
        28 003263   000005 631400 29                 EPPR1   5
        28 003264   000000 701000 xent               TSX1    Z8AR$RESERVER
        28 003265   000000 011000                    NOP     0

  20114 28 003266   000002 236000 7                  LDQ     ST_+2
        28 003267   000022 736000                    QLS     18
        28 003270   000001 036000 7                  ADLQ    ST_+1
        28 003271   200013 756100                    STQ     RWCT_ST$,,AUTO

  20115 28 003272   000013 236007                    LDQ     11,DL
        28 003273   000002 056000 7                  ASQ     ST_+2

  20163 28 003274   000766 220003                    LDX0    502,DU
        28 003275   200013 470500                    LDP0    RWCT_ST$,,AUTO
        28 003276   000000 740100                    STX0    0,,PR0

  20164 28 003277   003000 236007                    LDQ     1536,DL
        28 003300   000000 552110                    STBQ    0,'10'O,PR0

  20165 28 003301   000001 236007                    LDQ     1,DL
        28 003302   000000 552104                    STBQ    0,'04'O,PR0

  20166 28 003303   000000 221003                    LDX1    0,DU
        28 003304   000001 741100                    STX1    1,,PR0

  20167 28 003305   000001 441100                    SXL1    1,,PR0

  20168 28 003306   200015 722100                    LXL2    LINE_NO#,,AUTO
        28 003307   000002 442100                    SXL2    2,,PR0

  20169 28 003310   000003 450100                    STZ     3,,PR0
PL6.E3A0      #003=Z8DT$REPORT_WRAPUP File=Z8DT.:Z8A6TSI                         SAT 08/09/97 11:31 Page:645

  20170 28 003311   000000 471400 8                  LDP1    DNT$
        28 003312   100001 236100                    LDQ     1,,PR1
        28 003313   000004 756100                    STQ     4,,PR0

  20171 28 003314   000004 236000 29                 LDQ     4
        28 003315   000005 756100                    STQ     5,,PR0

  20172 28 003316   000007 756100                    STQ     7,,PR0

  20173 28 003317   000010 741100                    STX1    8,,PR0

  20174 28 003320   777777 223003                    LDX3    -1,DU
        28 003321   000010 443100                    SXL3    8,,PR0

  20178 28 003322   000012 756100                    STQ     10,,PR0

  20181 28 003323   000057 236000 xsym               LDQ     O1COM+47
        28 003324   000011 756100                    STQ     9,,PR0

  20182 28 003325   000057 236000 xsym               LDQ     O1COM+47
        28 003326   000004 116000 29                 CMPQ    4
        28 003327   003351 600000 28                 TZE     s:20217

  20186 28 003330   000057 473400 xsym               LDP3    O1COM+47
        28 003331   300001 474500                    LDP4    1,,PR3
        28 003332   400012 236100                    LDQ     10,,PR4
        28 003333   000004 116000 29                 CMPQ    4
        28 003334   003343 601000 28                 TNZ     s:20193

  20188 28 003335   200013 236100                    LDQ     RWCT_ST$,,AUTO
        28 003336   400011 756100                    STQ     9,,PR4

  20189 28 003337   000057 473400 xsym               LDP3    O1COM+47
        28 003340   300001 474500                    LDP4    1,,PR3
        28 003341   400012 756100                    STQ     10,,PR4

PL6.E3A0      #003=Z8DT$REPORT_WRAPUP File=Z8DT.:Z8A6TSI                         SAT 08/09/97 11:31 Page:646
  20190 28 003342   003351 710000 28                 TRA     s:20217

  20193 28 003343   400012 475500                    LDP5    10,,PR4
        28 003344   200013 236100                    LDQ     RWCT_ST$,,AUTO
        28 003345   500012 756100                    STQ     10,,PR5

  20194 28 003346   000057 473400 xsym               LDP3    O1COM+47
        28 003347   300001 474500                    LDP4    1,,PR3
        28 003350   400012 756100                    STQ     10,,PR4

  20217 28 003351   000010 224003                    LDX4    8,DU
        28 003352   000002 744100                    STX4    2,,PR0

  20222 28 003353   000000 236000 8                  LDQ     DNT$
        28 003354   000006 756100                    STQ     6,,PR0

  20239 28 003355   010000 236003                    LDQ     4096,DU
        28 003356   000003 256100                    ORSQ    3,,PR0

  20281 28 003357   010000 236007                    LDQ     4096,DL
        28 003360   000003 256100                    ORSQ    3,,PR0

  20287 28 003361   000003 236100                    LDQ     3,,PR0
        28 003362   000007 376000 29                 ANQ     7
        28 003363   000003 276007                    ORQ     3,DL
        28 003364   000003 756100                    STQ     3,,PR0

  20308 28 003365   200013 236100                    LDQ     RWCT_ST$,,AUTO
        28 003366   100001 756100                    STQ     1,,PR1

  20314 28 003367   200014 741100                    STX1    RWCT_DESC,,AUTO

  20316 28 003370   000012 236000 29                 LDQ     10
        28 003371   200014 356100                    ANSQ    RWCT_DESC,,AUTO

  20317 28 003372   000013 236000 29                 LDQ     11
        28 003373   200014 356100                    ANSQ    RWCT_DESC,,AUTO
PL6.E3A0      #003=Z8DT$REPORT_WRAPUP File=Z8DT.:Z8A6TSI                         SAT 08/09/97 11:31 Page:647

  20329 28 003374   000014 236000 29                 LDQ     12
        28 003375   200014 356100                    ANSQ    RWCT_DESC,,AUTO

  20330 28 003376   000015 236000 29                 LDQ     13
        28 003377   200014 356100                    ANSQ    RWCT_DESC,,AUTO

  20331 28 003400   000040 236007                    LDQ     32,DL
        28 003401   200014 752103                    STCQ    RWCT_DESC,'03'O,AUTO

  20334 28 003402   200014 725100                    LXL5    RWCT_DESC,,AUTO
        28 003403   000001 445100                    SXL5    1,,PR0

  20343 28 003404   000002 236000 5                  LDQ     QLT_+2
        28 003405   000006 036007                    ADLQ    6,DL
        28 003406   000003 116000 5                  CMPQ    QLT_+3
        28 003407   003420 602000 28                 TNC     s:20345

  20344 28 003410   000016 236000 29                 LDQ     14
        28 003411   200024 756100                    STQ     APPEND_IND_OFF+1,,AUTO
        28 003412   200024 633500                    EPPR3   APPEND_IND_OFF+1,,AUTO
        28 003413   200025 453500                    STP3    APPEND_IND_OFF+2,,AUTO
        28 003414   200025 630500                    EPPR0   APPEND_IND_OFF+2,,AUTO
        28 003415   000005 631400 29                 EPPR1   5
        28 003416   000000 701000 xent               TSX1    Z8AR$RESERVER
        28 003417   000000 011000                    NOP     0

  20345 28 003420   000002 236000 5                  LDQ     QLT_+2
        28 003421   000022 736000                    QLS     18
        28 003422   000001 036000 5                  ADLQ    QLT_+1
        28 003423   200013 470500                    LDP0    RWCT_ST$,,AUTO
        28 003424   000007 756100                    STQ     7,,PR0

  20346 28 003425   000002 235000 5                  LDA     QLT_+2
        28 003426   000006 035007                    ADLA    6,DL
        28 003427   000002 755000 5                  STA     QLT_+2

PL6.E3A0      #003=Z8DT$REPORT_WRAPUP File=Z8DT.:Z8A6TSI                         SAT 08/09/97 11:31 Page:648
  20347 28 003430   000007 471500                    LDP1    7,,PR0
        28 003431   001053 220003                    LDX0    555,DU
        28 003432   100000 740100                    STX0    0,,PR1

  20350 28 003433   000007 471500                    LDP1    7,,PR0
        28 003434   000004 236000 29                 LDQ     4
        28 003435   100001 756100                    STQ     1,,PR1

  20351 28 003436   000007 471500                    LDP1    7,,PR0
        28 003437   000004 236000 29                 LDQ     4
        28 003440   100002 756100                    STQ     2,,PR1

  20352 28 003441   000007 471500                    LDP1    7,,PR0
        28 003442   000004 236000 29                 LDQ     4
        28 003443   100003 756100                    STQ     3,,PR1

  20353 28 003444   000007 471500                    LDP1    7,,PR0
        28 003445   200013 236100                    LDQ     RWCT_ST$,,AUTO
        28 003446   100004 756100                    STQ     4,,PR1

  20354 28 003447   000007 471500                    LDP1    7,,PR0
        28 003450   000000 236000 8                  LDQ     DNT$
        28 003451   100005 756100                    STQ     5,,PR1

  20355 28 003452   000007 471500                    LDP1    7,,PR0
        28 003453   000001 236007                    LDQ     1,DL
        28 003454   100000 552104                    STBQ    0,'04'O,PR1

  20356 28 003455   000007 471500                    LDP1    7,,PR0
        28 003456   000000 236003                    LDQ     0,DU
        28 003457   100000 552110                    STBQ    0,'10'O,PR1

  20357 28 003460   000007 471500                    LDP1    7,,PR0
        28 003461   000017 236000 29                 LDQ     15
        28 003462   100000 356100                    ANSQ    0,,PR1

  20358 28 003463   000007 471500                    LDP1    7,,PR0
PL6.E3A0      #003=Z8DT$REPORT_WRAPUP File=Z8DT.:Z8A6TSI                         SAT 08/09/97 11:31 Page:649
        28 003464   000020 236000 29                 LDQ     16
        28 003465   100000 356100                    ANSQ    0,,PR1

  20359 28 003466   000007 471500                    LDP1    7,,PR0
        28 003467   000013 236000 29                 LDQ     11
        28 003470   100000 356100                    ANSQ    0,,PR1

  20360 28 003471   000007 471500                    LDP1    7,,PR0
        28 003472   000021 236000 29                 LDQ     17
        28 003473   100000 356100                    ANSQ    0,,PR1

  20363 28 003474   000007 471500                    LDP1    7,,PR0
        28 003475   200017 236100                    LDQ     RD_QLT$,,AUTO
        28 003476   100001 756100                    STQ     1,,PR1

  20364 28 003477   000007 236100                    LDQ     7,,PR0
        28 003500   200016 471500                    LDP1    PREV_QLT$,,AUTO
        28 003501   100002 756100                    STQ     2,,PR1

  20365 28 003502   000007 236100                    LDQ     7,,PR0
        28 003503   200016 756100                    STQ     PREV_QLT$,,AUTO

  20368 28 003504   200013 236100                    LDQ     RWCT_ST$,,AUTO
        28 003505   200020 471500                    LDP1    NEXT$,,AUTO
        28 003506   100022 756100                    STQ     18,,PR1

     3742    20372
     3743    20373    3            NEXT$ = NEXT$ -> REPORT_01_LTS.LINK;

  20373 28 003507   200020 470500                    LDP0    NEXT$,,AUTO
        28 003510   000007 236100                    LDQ     7,,PR0
        28 003511   200020 756100                    STQ     NEXT$,,AUTO

     3744    20374    3          END;   /* while */

  20374 28 003512   000004 116000 29                 CMPQ    4
        28 003513   003231 601000 28                 TNZ     s:20089
PL6.E3A0      #003=Z8DT$REPORT_WRAPUP File=Z8DT.:Z8A6TSI                         SAT 08/09/97 11:31 Page:650

     3745    20375
     3746    20376    2          NEXT$ = O1COM.CURRENT_REPORT_LTS$ -> REPORT_LTS.CONTROL_FOOTING$;

  20376 28 003514   000064 470400 xsym               LDP0    O1COM+52
        28 003515   000030 236100                    LDQ     24,,PR0
        28 003516   200020 756100                    STQ     NEXT$,,AUTO

     3747    20377
     3748    20378    3          DO WHILE (NEXT$ ~= ADDR(NIL));

  20378 28 003517   004001 710000 28                 TRA     s:20669

     3749    20379
     3750    20380                 %CREATE_SC_RWCT (@RW_TEXT = %RWCT_CGT_TEXT,
     3751    20381                                  @POINTER = NEXT$,
     3752    20382                                  @RW_SIZE = %RWCT_CGT_SIZE);

  20384 28 003520   200020 236100                    LDQ     NEXT$,,AUTO
        28 003521   000004 116000 29                 CMPQ    4
        28 003522   003776 600000 28                 TZE     s:20668

  20386 28 003523   200020 470500                    LDP0    NEXT$,,AUTO
        28 003524   000003 471500                    LDP1    3,,PR0
        28 003525   100002 236100                    LDQ     2,,PR1
        28 003526   777777 376007                    ANQ     -1,DL
        28 003527   200015 756100                    STQ     LINE_NO#,,AUTO

  20391 28 003530   000010 235007                    LDA     8,DL
        28 003531   000010 755000 22                 STA     LEX_SYMBOL+8

  20392 28 003532   000000 620005                    EAX0    0,AL
        28 003533   040040 100400                    MLR     fill='040'O
        28 003534   000006 000010 27                 ADSC9   6                        cn=0,n=8
        28 003535   000011 000010 22                 ADSC9   LEX_SYMBOL+9             cn=0,n=*X0

  20395 28 003536   000003 631400 29                 EPPR1   3
PL6.E3A0      #003=Z8DT$REPORT_WRAPUP File=Z8DT.:Z8A6TSI                         SAT 08/09/97 11:31 Page:651
        28 003537   000000 701000 xent               TSX1    Z8AH$SEARCH_
        28 003540   000000 011000                    NOP     0

  20407 28 003541   000002 236000 7                  LDQ     ST_+2
        28 003542   000013 036007                    ADLQ    11,DL
        28 003543   000003 116000 7                  CMPQ    ST_+3
        28 003544   003555 604000 28                 TMI     s:20409

  20408 28 003545   000006 236000 29                 LDQ     6
        28 003546   200024 756100                    STQ     APPEND_IND_OFF+1,,AUTO
        28 003547   200024 630500                    EPPR0   APPEND_IND_OFF+1,,AUTO
        28 003550   200025 450500                    STP0    APPEND_IND_OFF+2,,AUTO
        28 003551   200025 630500                    EPPR0   APPEND_IND_OFF+2,,AUTO
        28 003552   000005 631400 29                 EPPR1   5
        28 003553   000000 701000 xent               TSX1    Z8AR$RESERVER
        28 003554   000000 011000                    NOP     0

  20409 28 003555   000002 236000 7                  LDQ     ST_+2
        28 003556   000022 736000                    QLS     18
        28 003557   000001 036000 7                  ADLQ    ST_+1
        28 003560   200013 756100                    STQ     RWCT_ST$,,AUTO

  20410 28 003561   000013 236007                    LDQ     11,DL
        28 003562   000002 056000 7                  ASQ     ST_+2

  20458 28 003563   000766 220003                    LDX0    502,DU
        28 003564   200013 470500                    LDP0    RWCT_ST$,,AUTO
        28 003565   000000 740100                    STX0    0,,PR0

  20459 28 003566   003000 236007                    LDQ     1536,DL
        28 003567   000000 552110                    STBQ    0,'10'O,PR0

  20460 28 003570   000001 236007                    LDQ     1,DL
        28 003571   000000 552104                    STBQ    0,'04'O,PR0

  20461 28 003572   000000 221003                    LDX1    0,DU
        28 003573   000001 741100                    STX1    1,,PR0
PL6.E3A0      #003=Z8DT$REPORT_WRAPUP File=Z8DT.:Z8A6TSI                         SAT 08/09/97 11:31 Page:652

  20462 28 003574   000001 441100                    SXL1    1,,PR0

  20463 28 003575   200015 722100                    LXL2    LINE_NO#,,AUTO
        28 003576   000002 442100                    SXL2    2,,PR0

  20464 28 003577   000003 450100                    STZ     3,,PR0

  20465 28 003600   000000 471400 8                  LDP1    DNT$
        28 003601   100001 236100                    LDQ     1,,PR1
        28 003602   000004 756100                    STQ     4,,PR0

  20466 28 003603   000004 236000 29                 LDQ     4
        28 003604   000005 756100                    STQ     5,,PR0

  20467 28 003605   000007 756100                    STQ     7,,PR0

  20468 28 003606   000010 741100                    STX1    8,,PR0

  20469 28 003607   777777 223003                    LDX3    -1,DU
        28 003610   000010 443100                    SXL3    8,,PR0

  20473 28 003611   000012 756100                    STQ     10,,PR0

  20476 28 003612   000057 236000 xsym               LDQ     O1COM+47
        28 003613   000011 756100                    STQ     9,,PR0

  20477 28 003614   000057 236000 xsym               LDQ     O1COM+47
        28 003615   000004 116000 29                 CMPQ    4
        28 003616   003640 600000 28                 TZE     s:20512

  20481 28 003617   000057 473400 xsym               LDP3    O1COM+47
        28 003620   300001 474500                    LDP4    1,,PR3
        28 003621   400012 236100                    LDQ     10,,PR4
        28 003622   000004 116000 29                 CMPQ    4
        28 003623   003632 601000 28                 TNZ     s:20488

PL6.E3A0      #003=Z8DT$REPORT_WRAPUP File=Z8DT.:Z8A6TSI                         SAT 08/09/97 11:31 Page:653
  20483 28 003624   200013 236100                    LDQ     RWCT_ST$,,AUTO
        28 003625   400011 756100                    STQ     9,,PR4

  20484 28 003626   000057 473400 xsym               LDP3    O1COM+47
        28 003627   300001 474500                    LDP4    1,,PR3
        28 003630   400012 756100                    STQ     10,,PR4

  20485 28 003631   003640 710000 28                 TRA     s:20512

  20488 28 003632   400012 475500                    LDP5    10,,PR4
        28 003633   200013 236100                    LDQ     RWCT_ST$,,AUTO
        28 003634   500012 756100                    STQ     10,,PR5

  20489 28 003635   000057 473400 xsym               LDP3    O1COM+47
        28 003636   300001 474500                    LDP4    1,,PR3
        28 003637   400012 756100                    STQ     10,,PR4

  20512 28 003640   000010 224003                    LDX4    8,DU
        28 003641   000002 744100                    STX4    2,,PR0

  20517 28 003642   000000 236000 8                  LDQ     DNT$
        28 003643   000006 756100                    STQ     6,,PR0

  20534 28 003644   010000 236003                    LDQ     4096,DU
        28 003645   000003 256100                    ORSQ    3,,PR0

  20576 28 003646   010000 236007                    LDQ     4096,DL
        28 003647   000003 256100                    ORSQ    3,,PR0

  20582 28 003650   000003 236100                    LDQ     3,,PR0
        28 003651   000007 376000 29                 ANQ     7
        28 003652   000003 276007                    ORQ     3,DL
        28 003653   000003 756100                    STQ     3,,PR0

  20603 28 003654   200013 236100                    LDQ     RWCT_ST$,,AUTO
        28 003655   100001 756100                    STQ     1,,PR1

PL6.E3A0      #003=Z8DT$REPORT_WRAPUP File=Z8DT.:Z8A6TSI                         SAT 08/09/97 11:31 Page:654
  20609 28 003656   200014 741100                    STX1    RWCT_DESC,,AUTO

  20611 28 003657   000012 236000 29                 LDQ     10
        28 003660   200014 356100                    ANSQ    RWCT_DESC,,AUTO

  20612 28 003661   000013 236000 29                 LDQ     11
        28 003662   200014 356100                    ANSQ    RWCT_DESC,,AUTO

  20624 28 003663   000014 236000 29                 LDQ     12
        28 003664   200014 356100                    ANSQ    RWCT_DESC,,AUTO

  20625 28 003665   000015 236000 29                 LDQ     13
        28 003666   200014 356100                    ANSQ    RWCT_DESC,,AUTO

  20626 28 003667   000040 236007                    LDQ     32,DL
        28 003670   200014 752103                    STCQ    RWCT_DESC,'03'O,AUTO

  20629 28 003671   200014 725100                    LXL5    RWCT_DESC,,AUTO
        28 003672   000001 445100                    SXL5    1,,PR0

  20638 28 003673   000002 236000 5                  LDQ     QLT_+2
        28 003674   000006 036007                    ADLQ    6,DL
        28 003675   000003 116000 5                  CMPQ    QLT_+3
        28 003676   003707 602000 28                 TNC     s:20640

  20639 28 003677   000016 236000 29                 LDQ     14
        28 003700   200024 756100                    STQ     APPEND_IND_OFF+1,,AUTO
        28 003701   200024 633500                    EPPR3   APPEND_IND_OFF+1,,AUTO
        28 003702   200025 453500                    STP3    APPEND_IND_OFF+2,,AUTO
        28 003703   200025 630500                    EPPR0   APPEND_IND_OFF+2,,AUTO
        28 003704   000005 631400 29                 EPPR1   5
        28 003705   000000 701000 xent               TSX1    Z8AR$RESERVER
        28 003706   000000 011000                    NOP     0

  20640 28 003707   000002 236000 5                  LDQ     QLT_+2
        28 003710   000022 736000                    QLS     18
        28 003711   000001 036000 5                  ADLQ    QLT_+1
PL6.E3A0      #003=Z8DT$REPORT_WRAPUP File=Z8DT.:Z8A6TSI                         SAT 08/09/97 11:31 Page:655
        28 003712   200013 470500                    LDP0    RWCT_ST$,,AUTO
        28 003713   000007 756100                    STQ     7,,PR0

  20641 28 003714   000002 235000 5                  LDA     QLT_+2
        28 003715   000006 035007                    ADLA    6,DL
        28 003716   000002 755000 5                  STA     QLT_+2

  20642 28 003717   000007 471500                    LDP1    7,,PR0
        28 003720   001053 220003                    LDX0    555,DU
        28 003721   100000 740100                    STX0    0,,PR1

  20645 28 003722   000007 471500                    LDP1    7,,PR0
        28 003723   000004 236000 29                 LDQ     4
        28 003724   100001 756100                    STQ     1,,PR1

  20646 28 003725   000007 471500                    LDP1    7,,PR0
        28 003726   000004 236000 29                 LDQ     4
        28 003727   100002 756100                    STQ     2,,PR1

  20647 28 003730   000007 471500                    LDP1    7,,PR0
        28 003731   000004 236000 29                 LDQ     4
        28 003732   100003 756100                    STQ     3,,PR1

  20648 28 003733   000007 471500                    LDP1    7,,PR0
        28 003734   200013 236100                    LDQ     RWCT_ST$,,AUTO
        28 003735   100004 756100                    STQ     4,,PR1

  20649 28 003736   000007 471500                    LDP1    7,,PR0
        28 003737   000000 236000 8                  LDQ     DNT$
        28 003740   100005 756100                    STQ     5,,PR1

  20650 28 003741   000007 471500                    LDP1    7,,PR0
        28 003742   000001 236007                    LDQ     1,DL
        28 003743   100000 552104                    STBQ    0,'04'O,PR1

  20651 28 003744   000007 471500                    LDP1    7,,PR0
        28 003745   000000 236003                    LDQ     0,DU
PL6.E3A0      #003=Z8DT$REPORT_WRAPUP File=Z8DT.:Z8A6TSI                         SAT 08/09/97 11:31 Page:656
        28 003746   100000 552110                    STBQ    0,'10'O,PR1

  20652 28 003747   000007 471500                    LDP1    7,,PR0
        28 003750   000017 236000 29                 LDQ     15
        28 003751   100000 356100                    ANSQ    0,,PR1

  20653 28 003752   000007 471500                    LDP1    7,,PR0
        28 003753   000020 236000 29                 LDQ     16
        28 003754   100000 356100                    ANSQ    0,,PR1

  20654 28 003755   000007 471500                    LDP1    7,,PR0
        28 003756   000013 236000 29                 LDQ     11
        28 003757   100000 356100                    ANSQ    0,,PR1

  20655 28 003760   000007 471500                    LDP1    7,,PR0
        28 003761   000021 236000 29                 LDQ     17
        28 003762   100000 356100                    ANSQ    0,,PR1

  20658 28 003763   000007 471500                    LDP1    7,,PR0
        28 003764   200017 236100                    LDQ     RD_QLT$,,AUTO
        28 003765   100001 756100                    STQ     1,,PR1

  20659 28 003766   000007 236100                    LDQ     7,,PR0
        28 003767   200016 471500                    LDP1    PREV_QLT$,,AUTO
        28 003770   100002 756100                    STQ     2,,PR1

  20660 28 003771   000007 236100                    LDQ     7,,PR0
        28 003772   200016 756100                    STQ     PREV_QLT$,,AUTO

  20663 28 003773   200013 236100                    LDQ     RWCT_ST$,,AUTO
        28 003774   200020 471500                    LDP1    NEXT$,,AUTO
        28 003775   100022 756100                    STQ     18,,PR1

     3753    20667
     3754    20668    3            NEXT$ = NEXT$ -> REPORT_01_LTS.LINK;

  20668 28 003776   200020 470500                    LDP0    NEXT$,,AUTO
PL6.E3A0      #003=Z8DT$REPORT_WRAPUP File=Z8DT.:Z8A6TSI                         SAT 08/09/97 11:31 Page:657
        28 003777   000007 236100                    LDQ     7,,PR0
        28 004000   200020 756100                    STQ     NEXT$,,AUTO

     3755    20669    3          END;   /* while */

  20669 28 004001   000004 116000 29                 CMPQ    4
        28 004002   003520 601000 28                 TNZ     s:20384

     3756    20670
     3757    20671    2          NEXT$ = O1COM.CURRENT_REPORT_LTS$ -> REPORT_LTS.DETAIL$;

  20671 28 004003   000064 470400 xsym               LDP0    O1COM+52
        28 004004   000027 236100                    LDQ     23,,PR0
        28 004005   200020 756100                    STQ     NEXT$,,AUTO

     3758    20672
     3759    20673    3          DO WHILE (NEXT$ ~= ADDR(NIL));

  20673 28 004006   004542 710000 28                 TRA     s:21247

     3760    20674
     3761    20675                 %CREATE_SC_RWCT (@RW_TEXT = %RWCT_DGT_TEXT,
     3762    20676                                  @POINTER = NEXT$,
     3763    20677                                  @RW_SIZE = %RWCT_DGT_SIZE);

  20679 28 004007   200020 236100                    LDQ     NEXT$,,AUTO
        28 004010   000004 116000 29                 CMPQ    4
        28 004011   004265 600000 28                 TZE     s:20963

  20681 28 004012   200020 470500                    LDP0    NEXT$,,AUTO
        28 004013   000003 471500                    LDP1    3,,PR0
        28 004014   100002 236100                    LDQ     2,,PR1
        28 004015   777777 376007                    ANQ     -1,DL
        28 004016   200015 756100                    STQ     LINE_NO#,,AUTO

  20686 28 004017   000010 235007                    LDA     8,DL
        28 004020   000010 755000 22                 STA     LEX_SYMBOL+8
PL6.E3A0      #003=Z8DT$REPORT_WRAPUP File=Z8DT.:Z8A6TSI                         SAT 08/09/97 11:31 Page:658

  20687 28 004021   000000 620005                    EAX0    0,AL
        28 004022   040040 100400                    MLR     fill='040'O
        28 004023   000010 000010 27                 ADSC9   8                        cn=0,n=8
        28 004024   000011 000010 22                 ADSC9   LEX_SYMBOL+9             cn=0,n=*X0

  20690 28 004025   000003 631400 29                 EPPR1   3
        28 004026   000000 701000 xent               TSX1    Z8AH$SEARCH_
        28 004027   000000 011000                    NOP     0

  20702 28 004030   000002 236000 7                  LDQ     ST_+2
        28 004031   000013 036007                    ADLQ    11,DL
        28 004032   000003 116000 7                  CMPQ    ST_+3
        28 004033   004044 604000 28                 TMI     s:20704

  20703 28 004034   000006 236000 29                 LDQ     6
        28 004035   200024 756100                    STQ     APPEND_IND_OFF+1,,AUTO
        28 004036   200024 630500                    EPPR0   APPEND_IND_OFF+1,,AUTO
        28 004037   200025 450500                    STP0    APPEND_IND_OFF+2,,AUTO
        28 004040   200025 630500                    EPPR0   APPEND_IND_OFF+2,,AUTO
        28 004041   000005 631400 29                 EPPR1   5
        28 004042   000000 701000 xent               TSX1    Z8AR$RESERVER
        28 004043   000000 011000                    NOP     0

  20704 28 004044   000002 236000 7                  LDQ     ST_+2
        28 004045   000022 736000                    QLS     18
        28 004046   000001 036000 7                  ADLQ    ST_+1
        28 004047   200013 756100                    STQ     RWCT_ST$,,AUTO

  20705 28 004050   000013 236007                    LDQ     11,DL
        28 004051   000002 056000 7                  ASQ     ST_+2

  20753 28 004052   000766 220003                    LDX0    502,DU
        28 004053   200013 470500                    LDP0    RWCT_ST$,,AUTO
        28 004054   000000 740100                    STX0    0,,PR0

  20754 28 004055   003000 236007                    LDQ     1536,DL
PL6.E3A0      #003=Z8DT$REPORT_WRAPUP File=Z8DT.:Z8A6TSI                         SAT 08/09/97 11:31 Page:659
        28 004056   000000 552110                    STBQ    0,'10'O,PR0

  20755 28 004057   000001 236007                    LDQ     1,DL
        28 004060   000000 552104                    STBQ    0,'04'O,PR0

  20756 28 004061   000000 221003                    LDX1    0,DU
        28 004062   000001 741100                    STX1    1,,PR0

  20757 28 004063   000001 441100                    SXL1    1,,PR0

  20758 28 004064   200015 722100                    LXL2    LINE_NO#,,AUTO
        28 004065   000002 442100                    SXL2    2,,PR0

  20759 28 004066   000003 450100                    STZ     3,,PR0

  20760 28 004067   000000 471400 8                  LDP1    DNT$
        28 004070   100001 236100                    LDQ     1,,PR1
        28 004071   000004 756100                    STQ     4,,PR0

  20761 28 004072   000004 236000 29                 LDQ     4
        28 004073   000005 756100                    STQ     5,,PR0

  20762 28 004074   000007 756100                    STQ     7,,PR0

  20763 28 004075   000010 741100                    STX1    8,,PR0

  20764 28 004076   777777 223003                    LDX3    -1,DU
        28 004077   000010 443100                    SXL3    8,,PR0

  20768 28 004100   000012 756100                    STQ     10,,PR0

  20771 28 004101   000057 236000 xsym               LDQ     O1COM+47
        28 004102   000011 756100                    STQ     9,,PR0

  20772 28 004103   000057 236000 xsym               LDQ     O1COM+47
        28 004104   000004 116000 29                 CMPQ    4
        28 004105   004127 600000 28                 TZE     s:20807
PL6.E3A0      #003=Z8DT$REPORT_WRAPUP File=Z8DT.:Z8A6TSI                         SAT 08/09/97 11:31 Page:660

  20776 28 004106   000057 473400 xsym               LDP3    O1COM+47
        28 004107   300001 474500                    LDP4    1,,PR3
        28 004110   400012 236100                    LDQ     10,,PR4
        28 004111   000004 116000 29                 CMPQ    4
        28 004112   004121 601000 28                 TNZ     s:20783

  20778 28 004113   200013 236100                    LDQ     RWCT_ST$,,AUTO
        28 004114   400011 756100                    STQ     9,,PR4

  20779 28 004115   000057 473400 xsym               LDP3    O1COM+47
        28 004116   300001 474500                    LDP4    1,,PR3
        28 004117   400012 756100                    STQ     10,,PR4

  20780 28 004120   004127 710000 28                 TRA     s:20807

  20783 28 004121   400012 475500                    LDP5    10,,PR4
        28 004122   200013 236100                    LDQ     RWCT_ST$,,AUTO
        28 004123   500012 756100                    STQ     10,,PR5

  20784 28 004124   000057 473400 xsym               LDP3    O1COM+47
        28 004125   300001 474500                    LDP4    1,,PR3
        28 004126   400012 756100                    STQ     10,,PR4

  20807 28 004127   000010 224003                    LDX4    8,DU
        28 004130   000002 744100                    STX4    2,,PR0

  20812 28 004131   000000 236000 8                  LDQ     DNT$
        28 004132   000006 756100                    STQ     6,,PR0

  20829 28 004133   010000 236003                    LDQ     4096,DU
        28 004134   000003 256100                    ORSQ    3,,PR0

  20871 28 004135   010000 236007                    LDQ     4096,DL
        28 004136   000003 256100                    ORSQ    3,,PR0

  20877 28 004137   000003 236100                    LDQ     3,,PR0
PL6.E3A0      #003=Z8DT$REPORT_WRAPUP File=Z8DT.:Z8A6TSI                         SAT 08/09/97 11:31 Page:661
        28 004140   000007 376000 29                 ANQ     7
        28 004141   000003 276007                    ORQ     3,DL
        28 004142   000003 756100                    STQ     3,,PR0

  20898 28 004143   200013 236100                    LDQ     RWCT_ST$,,AUTO
        28 004144   100001 756100                    STQ     1,,PR1

  20904 28 004145   200014 741100                    STX1    RWCT_DESC,,AUTO

  20906 28 004146   000012 236000 29                 LDQ     10
        28 004147   200014 356100                    ANSQ    RWCT_DESC,,AUTO

  20907 28 004150   000013 236000 29                 LDQ     11
        28 004151   200014 356100                    ANSQ    RWCT_DESC,,AUTO

  20919 28 004152   000014 236000 29                 LDQ     12
        28 004153   200014 356100                    ANSQ    RWCT_DESC,,AUTO

  20920 28 004154   000015 236000 29                 LDQ     13
        28 004155   200014 356100                    ANSQ    RWCT_DESC,,AUTO

  20921 28 004156   000060 236007                    LDQ     48,DL
        28 004157   200014 752103                    STCQ    RWCT_DESC,'03'O,AUTO

  20924 28 004160   200014 725100                    LXL5    RWCT_DESC,,AUTO
        28 004161   000001 445100                    SXL5    1,,PR0

  20933 28 004162   000002 236000 5                  LDQ     QLT_+2
        28 004163   000006 036007                    ADLQ    6,DL
        28 004164   000003 116000 5                  CMPQ    QLT_+3
        28 004165   004176 602000 28                 TNC     s:20935

  20934 28 004166   000016 236000 29                 LDQ     14
        28 004167   200024 756100                    STQ     APPEND_IND_OFF+1,,AUTO
        28 004170   200024 633500                    EPPR3   APPEND_IND_OFF+1,,AUTO
        28 004171   200025 453500                    STP3    APPEND_IND_OFF+2,,AUTO
        28 004172   200025 630500                    EPPR0   APPEND_IND_OFF+2,,AUTO
PL6.E3A0      #003=Z8DT$REPORT_WRAPUP File=Z8DT.:Z8A6TSI                         SAT 08/09/97 11:31 Page:662
        28 004173   000005 631400 29                 EPPR1   5
        28 004174   000000 701000 xent               TSX1    Z8AR$RESERVER
        28 004175   000000 011000                    NOP     0

  20935 28 004176   000002 236000 5                  LDQ     QLT_+2
        28 004177   000022 736000                    QLS     18
        28 004200   000001 036000 5                  ADLQ    QLT_+1
        28 004201   200013 470500                    LDP0    RWCT_ST$,,AUTO
        28 004202   000007 756100                    STQ     7,,PR0

  20936 28 004203   000002 235000 5                  LDA     QLT_+2
        28 004204   000006 035007                    ADLA    6,DL
        28 004205   000002 755000 5                  STA     QLT_+2

  20937 28 004206   000007 471500                    LDP1    7,,PR0
        28 004207   001053 220003                    LDX0    555,DU
        28 004210   100000 740100                    STX0    0,,PR1

  20940 28 004211   000007 471500                    LDP1    7,,PR0
        28 004212   000004 236000 29                 LDQ     4
        28 004213   100001 756100                    STQ     1,,PR1

  20941 28 004214   000007 471500                    LDP1    7,,PR0
        28 004215   000004 236000 29                 LDQ     4
        28 004216   100002 756100                    STQ     2,,PR1

  20942 28 004217   000007 471500                    LDP1    7,,PR0
        28 004220   000004 236000 29                 LDQ     4
        28 004221   100003 756100                    STQ     3,,PR1

  20943 28 004222   000007 471500                    LDP1    7,,PR0
        28 004223   200013 236100                    LDQ     RWCT_ST$,,AUTO
        28 004224   100004 756100                    STQ     4,,PR1

  20944 28 004225   000007 471500                    LDP1    7,,PR0
        28 004226   000000 236000 8                  LDQ     DNT$
        28 004227   100005 756100                    STQ     5,,PR1
PL6.E3A0      #003=Z8DT$REPORT_WRAPUP File=Z8DT.:Z8A6TSI                         SAT 08/09/97 11:31 Page:663

  20945 28 004230   000007 471500                    LDP1    7,,PR0
        28 004231   000001 236007                    LDQ     1,DL
        28 004232   100000 552104                    STBQ    0,'04'O,PR1

  20946 28 004233   000007 471500                    LDP1    7,,PR0
        28 004234   000000 236003                    LDQ     0,DU
        28 004235   100000 552110                    STBQ    0,'10'O,PR1

  20947 28 004236   000007 471500                    LDP1    7,,PR0
        28 004237   000017 236000 29                 LDQ     15
        28 004240   100000 356100                    ANSQ    0,,PR1

  20948 28 004241   000007 471500                    LDP1    7,,PR0
        28 004242   000020 236000 29                 LDQ     16
        28 004243   100000 356100                    ANSQ    0,,PR1

  20949 28 004244   000007 471500                    LDP1    7,,PR0
        28 004245   000013 236000 29                 LDQ     11
        28 004246   100000 356100                    ANSQ    0,,PR1

  20950 28 004247   000007 471500                    LDP1    7,,PR0
        28 004250   000021 236000 29                 LDQ     17
        28 004251   100000 356100                    ANSQ    0,,PR1

  20953 28 004252   000007 471500                    LDP1    7,,PR0
        28 004253   200017 236100                    LDQ     RD_QLT$,,AUTO
        28 004254   100001 756100                    STQ     1,,PR1

  20954 28 004255   000007 236100                    LDQ     7,,PR0
        28 004256   200016 471500                    LDP1    PREV_QLT$,,AUTO
        28 004257   100002 756100                    STQ     2,,PR1

  20955 28 004260   000007 236100                    LDQ     7,,PR0
        28 004261   200016 756100                    STQ     PREV_QLT$,,AUTO

  20958 28 004262   200013 236100                    LDQ     RWCT_ST$,,AUTO
PL6.E3A0      #003=Z8DT$REPORT_WRAPUP File=Z8DT.:Z8A6TSI                         SAT 08/09/97 11:31 Page:664
        28 004263   200020 471500                    LDP1    NEXT$,,AUTO
        28 004264   100022 756100                    STQ     18,,PR1

     3764    20962
     3765    20963    3            IF NEXT$ -> REPORT_01_LTS.B.GROUP_INDICATE THEN

  20963 28 004265   200020 470500                    LDP0    NEXT$,,AUTO
        28 004266   000000 236100                    LDQ     0,,PR0
        28 004267   020000 316007                    CANQ    8192,DL
        28 004270   004537 600000 28                 TZE     s:21246

     3766    20964    4              DO;

     3767    20965
     3768    20966                     %CREATE_NW_RWCT (@TEXT = %INDICATOR_TEXT,
     3769    20967                                      @SIZE = %INDICATOR_SIZE,
     3770    20968                                      @LINE# = LINE_NO#);

  20970 28 004271   000010 235007                    LDA     8,DL
        28 004272   000010 755000 22                 STA     LEX_SYMBOL+8

  20971 28 004273   000000 620005                    EAX0    0,AL
        28 004274   040040 100400                    MLR     fill='040'O
        28 004275   000012 000010 27                 ADSC9   10                       cn=0,n=8
        28 004276   000011 000010 22                 ADSC9   LEX_SYMBOL+9             cn=0,n=*X0

  20974 28 004277   000003 631400 29                 EPPR1   3
        28 004300   000000 701000 xent               TSX1    Z8AH$SEARCH_
        28 004301   000000 011000                    NOP     0

  20986 28 004302   000002 236000 7                  LDQ     ST_+2
        28 004303   000013 036007                    ADLQ    11,DL
        28 004304   000003 116000 7                  CMPQ    ST_+3
        28 004305   004316 604000 28                 TMI     s:20988

  20987 28 004306   000006 236000 29                 LDQ     6
        28 004307   200024 756100                    STQ     APPEND_IND_OFF+1,,AUTO
PL6.E3A0      #003=Z8DT$REPORT_WRAPUP File=Z8DT.:Z8A6TSI                         SAT 08/09/97 11:31 Page:665
        28 004310   200024 630500                    EPPR0   APPEND_IND_OFF+1,,AUTO
        28 004311   200025 450500                    STP0    APPEND_IND_OFF+2,,AUTO
        28 004312   200025 630500                    EPPR0   APPEND_IND_OFF+2,,AUTO
        28 004313   000005 631400 29                 EPPR1   5
        28 004314   000000 701000 xent               TSX1    Z8AR$RESERVER
        28 004315   000000 011000                    NOP     0

  20988 28 004316   000002 236000 7                  LDQ     ST_+2
        28 004317   000022 736000                    QLS     18
        28 004320   000001 036000 7                  ADLQ    ST_+1
        28 004321   200013 756100                    STQ     RWCT_ST$,,AUTO

  20989 28 004322   000013 236007                    LDQ     11,DL
        28 004323   000002 056000 7                  ASQ     ST_+2

  21037 28 004324   000766 220003                    LDX0    502,DU
        28 004325   200013 470500                    LDP0    RWCT_ST$,,AUTO
        28 004326   000000 740100                    STX0    0,,PR0

  21038 28 004327   003000 236007                    LDQ     1536,DL
        28 004330   000000 552110                    STBQ    0,'10'O,PR0

  21039 28 004331   000001 236007                    LDQ     1,DL
        28 004332   000000 552104                    STBQ    0,'04'O,PR0

  21040 28 004333   000000 221003                    LDX1    0,DU
        28 004334   000001 741100                    STX1    1,,PR0

  21041 28 004335   000001 441100                    SXL1    1,,PR0

  21042 28 004336   200015 722100                    LXL2    LINE_NO#,,AUTO
        28 004337   000002 442100                    SXL2    2,,PR0

  21043 28 004340   000003 450100                    STZ     3,,PR0

  21044 28 004341   000000 471400 8                  LDP1    DNT$
        28 004342   100001 236100                    LDQ     1,,PR1
PL6.E3A0      #003=Z8DT$REPORT_WRAPUP File=Z8DT.:Z8A6TSI                         SAT 08/09/97 11:31 Page:666
        28 004343   000004 756100                    STQ     4,,PR0

  21045 28 004344   000004 236000 29                 LDQ     4
        28 004345   000005 756100                    STQ     5,,PR0

  21046 28 004346   000007 756100                    STQ     7,,PR0

  21047 28 004347   000010 741100                    STX1    8,,PR0

  21048 28 004350   777777 223003                    LDX3    -1,DU
        28 004351   000010 443100                    SXL3    8,,PR0

  21052 28 004352   000012 756100                    STQ     10,,PR0

  21055 28 004353   000057 236000 xsym               LDQ     O1COM+47
        28 004354   000011 756100                    STQ     9,,PR0

  21056 28 004355   000057 236000 xsym               LDQ     O1COM+47
        28 004356   000004 116000 29                 CMPQ    4
        28 004357   004401 600000 28                 TZE     s:21091

  21060 28 004360   000057 473400 xsym               LDP3    O1COM+47
        28 004361   300001 474500                    LDP4    1,,PR3
        28 004362   400012 236100                    LDQ     10,,PR4
        28 004363   000004 116000 29                 CMPQ    4
        28 004364   004373 601000 28                 TNZ     s:21067

  21062 28 004365   200013 236100                    LDQ     RWCT_ST$,,AUTO
        28 004366   400011 756100                    STQ     9,,PR4

  21063 28 004367   000057 473400 xsym               LDP3    O1COM+47
        28 004370   300001 474500                    LDP4    1,,PR3
        28 004371   400012 756100                    STQ     10,,PR4

  21064 28 004372   004401 710000 28                 TRA     s:21091

  21067 28 004373   400012 475500                    LDP5    10,,PR4
PL6.E3A0      #003=Z8DT$REPORT_WRAPUP File=Z8DT.:Z8A6TSI                         SAT 08/09/97 11:31 Page:667
        28 004374   200013 236100                    LDQ     RWCT_ST$,,AUTO
        28 004375   500012 756100                    STQ     10,,PR5

  21068 28 004376   000057 473400 xsym               LDP3    O1COM+47
        28 004377   300001 474500                    LDP4    1,,PR3
        28 004400   400012 756100                    STQ     10,,PR4

  21091 28 004401   000010 224003                    LDX4    8,DU
        28 004402   000002 744100                    STX4    2,,PR0

  21096 28 004403   000000 236000 8                  LDQ     DNT$
        28 004404   000006 756100                    STQ     6,,PR0

  21113 28 004405   010000 236003                    LDQ     4096,DU
        28 004406   000003 256100                    ORSQ    3,,PR0

  21155 28 004407   010000 236007                    LDQ     4096,DL
        28 004410   000003 256100                    ORSQ    3,,PR0

  21161 28 004411   000003 236100                    LDQ     3,,PR0
        28 004412   000007 376000 29                 ANQ     7
        28 004413   000003 276007                    ORQ     3,DL
        28 004414   000003 756100                    STQ     3,,PR0

  21182 28 004415   200013 236100                    LDQ     RWCT_ST$,,AUTO
        28 004416   100001 756100                    STQ     1,,PR1

  21188 28 004417   200014 741100                    STX1    RWCT_DESC,,AUTO

  21190 28 004420   000012 236000 29                 LDQ     10
        28 004421   200014 356100                    ANSQ    RWCT_DESC,,AUTO

  21191 28 004422   000013 236000 29                 LDQ     11
        28 004423   200014 356100                    ANSQ    RWCT_DESC,,AUTO

  21203 28 004424   000014 236000 29                 LDQ     12
        28 004425   200014 356100                    ANSQ    RWCT_DESC,,AUTO
PL6.E3A0      #003=Z8DT$REPORT_WRAPUP File=Z8DT.:Z8A6TSI                         SAT 08/09/97 11:31 Page:668

  21204 28 004426   000015 236000 29                 LDQ     13
        28 004427   200014 356100                    ANSQ    RWCT_DESC,,AUTO

  21205 28 004430   000004 236007                    LDQ     4,DL
        28 004431   200014 752103                    STCQ    RWCT_DESC,'03'O,AUTO

  21208 28 004432   200014 725100                    LXL5    RWCT_DESC,,AUTO
        28 004433   000001 445100                    SXL5    1,,PR0

  21217 28 004434   000002 236000 5                  LDQ     QLT_+2
        28 004435   000006 036007                    ADLQ    6,DL
        28 004436   000003 116000 5                  CMPQ    QLT_+3
        28 004437   004450 602000 28                 TNC     s:21219

  21218 28 004440   000016 236000 29                 LDQ     14
        28 004441   200024 756100                    STQ     APPEND_IND_OFF+1,,AUTO
        28 004442   200024 633500                    EPPR3   APPEND_IND_OFF+1,,AUTO
        28 004443   200025 453500                    STP3    APPEND_IND_OFF+2,,AUTO
        28 004444   200025 630500                    EPPR0   APPEND_IND_OFF+2,,AUTO
        28 004445   000005 631400 29                 EPPR1   5
        28 004446   000000 701000 xent               TSX1    Z8AR$RESERVER
        28 004447   000000 011000                    NOP     0

  21219 28 004450   000002 236000 5                  LDQ     QLT_+2
        28 004451   000022 736000                    QLS     18
        28 004452   000001 036000 5                  ADLQ    QLT_+1
        28 004453   200013 470500                    LDP0    RWCT_ST$,,AUTO
        28 004454   000007 756100                    STQ     7,,PR0

  21220 28 004455   000002 235000 5                  LDA     QLT_+2
        28 004456   000006 035007                    ADLA    6,DL
        28 004457   000002 755000 5                  STA     QLT_+2

  21221 28 004460   000007 471500                    LDP1    7,,PR0
        28 004461   001053 220003                    LDX0    555,DU
        28 004462   100000 740100                    STX0    0,,PR1
PL6.E3A0      #003=Z8DT$REPORT_WRAPUP File=Z8DT.:Z8A6TSI                         SAT 08/09/97 11:31 Page:669

  21224 28 004463   000007 471500                    LDP1    7,,PR0
        28 004464   000004 236000 29                 LDQ     4
        28 004465   100001 756100                    STQ     1,,PR1

  21225 28 004466   000007 471500                    LDP1    7,,PR0
        28 004467   000004 236000 29                 LDQ     4
        28 004470   100002 756100                    STQ     2,,PR1

  21226 28 004471   000007 471500                    LDP1    7,,PR0
        28 004472   000004 236000 29                 LDQ     4
        28 004473   100003 756100                    STQ     3,,PR1

  21227 28 004474   000007 471500                    LDP1    7,,PR0
        28 004475   200013 236100                    LDQ     RWCT_ST$,,AUTO
        28 004476   100004 756100                    STQ     4,,PR1

  21228 28 004477   000007 471500                    LDP1    7,,PR0
        28 004500   000000 236000 8                  LDQ     DNT$
        28 004501   100005 756100                    STQ     5,,PR1

  21229 28 004502   000007 471500                    LDP1    7,,PR0
        28 004503   000001 236007                    LDQ     1,DL
        28 004504   100000 552104                    STBQ    0,'04'O,PR1

  21230 28 004505   000007 471500                    LDP1    7,,PR0
        28 004506   000000 236003                    LDQ     0,DU
        28 004507   100000 552110                    STBQ    0,'10'O,PR1

  21231 28 004510   000007 471500                    LDP1    7,,PR0
        28 004511   000017 236000 29                 LDQ     15
        28 004512   100000 356100                    ANSQ    0,,PR1

  21232 28 004513   000007 471500                    LDP1    7,,PR0
        28 004514   000020 236000 29                 LDQ     16
        28 004515   100000 356100                    ANSQ    0,,PR1

PL6.E3A0      #003=Z8DT$REPORT_WRAPUP File=Z8DT.:Z8A6TSI                         SAT 08/09/97 11:31 Page:670
  21233 28 004516   000007 471500                    LDP1    7,,PR0
        28 004517   000013 236000 29                 LDQ     11
        28 004520   100000 356100                    ANSQ    0,,PR1

  21234 28 004521   000007 471500                    LDP1    7,,PR0
        28 004522   000021 236000 29                 LDQ     17
        28 004523   100000 356100                    ANSQ    0,,PR1

  21237 28 004524   000007 471500                    LDP1    7,,PR0
        28 004525   200017 236100                    LDQ     RD_QLT$,,AUTO
        28 004526   100001 756100                    STQ     1,,PR1

  21238 28 004527   000007 236100                    LDQ     7,,PR0
        28 004530   200016 471500                    LDP1    PREV_QLT$,,AUTO
        28 004531   100002 756100                    STQ     2,,PR1

  21239 28 004532   000007 236100                    LDQ     7,,PR0
        28 004533   200016 756100                    STQ     PREV_QLT$,,AUTO

     3771    21242
     3772    21243    4                NEXT$ -> REPORT_01_LTS.GROUP_INDICATOR$ = RWCT_ST$;

  21243 28 004534   200013 236100                    LDQ     RWCT_ST$,,AUTO
        28 004535   200020 471500                    LDP1    NEXT$,,AUTO
        28 004536   100023 756100                    STQ     19,,PR1

     3773    21244    4              END;

     3774    21245
     3775    21246    3            NEXT$ = NEXT$ -> REPORT_01_LTS.LINK;

  21246 28 004537   200020 470500                    LDP0    NEXT$,,AUTO
        28 004540   000007 236100                    LDQ     7,,PR0
        28 004541   200020 756100                    STQ     NEXT$,,AUTO

     3776    21247    3          END;   /* while */

PL6.E3A0      #003=Z8DT$REPORT_WRAPUP File=Z8DT.:Z8A6TSI                         SAT 08/09/97 11:31 Page:671
  21247 28 004542   000004 116000 29                 CMPQ    4
        28 004543   004007 601000 28                 TNZ     s:20679

     3777    21248
     3778    21249    2          IF CTR_NAME_NO > 0 THEN

  21249 28 004544   200011 235100                    LDA     CTR_NAME_NO,,AUTO
        28 004545   005014 604400 28                 TMOZ    s:21531

     3779    21250    3            DO;

     3780    21251                   %CREATE_NW_RWCT (@TEXT = %CTR_CNTR_TEXT,
     3781    21252                                    @SIZE = %CTR_CNTR_SIZE,
     3782    21253                                    @LINE# = LINE_NO#);

  21255 28 004546   000010 235007                    LDA     8,DL
        28 004547   000010 755000 22                 STA     LEX_SYMBOL+8

  21256 28 004550   000000 620005                    EAX0    0,AL
        28 004551   040040 100400                    MLR     fill='040'O
        28 004552   000014 000010 27                 ADSC9   12                       cn=0,n=8
        28 004553   000011 000010 22                 ADSC9   LEX_SYMBOL+9             cn=0,n=*X0

  21259 28 004554   000003 631400 29                 EPPR1   3
        28 004555   000000 701000 xent               TSX1    Z8AH$SEARCH_
        28 004556   000000 011000                    NOP     0

  21271 28 004557   000002 236000 7                  LDQ     ST_+2
        28 004560   000013 036007                    ADLQ    11,DL
        28 004561   000003 116000 7                  CMPQ    ST_+3
        28 004562   004573 604000 28                 TMI     s:21273

  21272 28 004563   000006 236000 29                 LDQ     6
        28 004564   200024 756100                    STQ     APPEND_IND_OFF+1,,AUTO
        28 004565   200024 630500                    EPPR0   APPEND_IND_OFF+1,,AUTO
        28 004566   200025 450500                    STP0    APPEND_IND_OFF+2,,AUTO
        28 004567   200025 630500                    EPPR0   APPEND_IND_OFF+2,,AUTO
PL6.E3A0      #003=Z8DT$REPORT_WRAPUP File=Z8DT.:Z8A6TSI                         SAT 08/09/97 11:31 Page:672
        28 004570   000005 631400 29                 EPPR1   5
        28 004571   000000 701000 xent               TSX1    Z8AR$RESERVER
        28 004572   000000 011000                    NOP     0

  21273 28 004573   000002 236000 7                  LDQ     ST_+2
        28 004574   000022 736000                    QLS     18
        28 004575   000001 036000 7                  ADLQ    ST_+1
        28 004576   200013 756100                    STQ     RWCT_ST$,,AUTO

  21274 28 004577   000013 236007                    LDQ     11,DL
        28 004600   000002 056000 7                  ASQ     ST_+2

  21322 28 004601   000766 220003                    LDX0    502,DU
        28 004602   200013 470500                    LDP0    RWCT_ST$,,AUTO
        28 004603   000000 740100                    STX0    0,,PR0

  21323 28 004604   003000 236007                    LDQ     1536,DL
        28 004605   000000 552110                    STBQ    0,'10'O,PR0

  21324 28 004606   000001 236007                    LDQ     1,DL
        28 004607   000000 552104                    STBQ    0,'04'O,PR0

  21325 28 004610   000000 221003                    LDX1    0,DU
        28 004611   000001 741100                    STX1    1,,PR0

  21326 28 004612   000001 441100                    SXL1    1,,PR0

  21327 28 004613   200015 722100                    LXL2    LINE_NO#,,AUTO
        28 004614   000002 442100                    SXL2    2,,PR0

  21328 28 004615   000003 450100                    STZ     3,,PR0

  21329 28 004616   000000 471400 8                  LDP1    DNT$
        28 004617   100001 236100                    LDQ     1,,PR1
        28 004620   000004 756100                    STQ     4,,PR0

  21330 28 004621   000004 236000 29                 LDQ     4
PL6.E3A0      #003=Z8DT$REPORT_WRAPUP File=Z8DT.:Z8A6TSI                         SAT 08/09/97 11:31 Page:673
        28 004622   000005 756100                    STQ     5,,PR0

  21331 28 004623   000007 756100                    STQ     7,,PR0

  21332 28 004624   000010 741100                    STX1    8,,PR0

  21333 28 004625   777777 223003                    LDX3    -1,DU
        28 004626   000010 443100                    SXL3    8,,PR0

  21337 28 004627   000012 756100                    STQ     10,,PR0

  21340 28 004630   000057 236000 xsym               LDQ     O1COM+47
        28 004631   000011 756100                    STQ     9,,PR0

  21341 28 004632   000057 236000 xsym               LDQ     O1COM+47
        28 004633   000004 116000 29                 CMPQ    4
        28 004634   004656 600000 28                 TZE     s:21376

  21345 28 004635   000057 473400 xsym               LDP3    O1COM+47
        28 004636   300001 474500                    LDP4    1,,PR3
        28 004637   400012 236100                    LDQ     10,,PR4
        28 004640   000004 116000 29                 CMPQ    4
        28 004641   004650 601000 28                 TNZ     s:21352

  21347 28 004642   200013 236100                    LDQ     RWCT_ST$,,AUTO
        28 004643   400011 756100                    STQ     9,,PR4

  21348 28 004644   000057 473400 xsym               LDP3    O1COM+47
        28 004645   300001 474500                    LDP4    1,,PR3
        28 004646   400012 756100                    STQ     10,,PR4

  21349 28 004647   004656 710000 28                 TRA     s:21376

  21352 28 004650   400012 475500                    LDP5    10,,PR4
        28 004651   200013 236100                    LDQ     RWCT_ST$,,AUTO
        28 004652   500012 756100                    STQ     10,,PR5

PL6.E3A0      #003=Z8DT$REPORT_WRAPUP File=Z8DT.:Z8A6TSI                         SAT 08/09/97 11:31 Page:674
  21353 28 004653   000057 473400 xsym               LDP3    O1COM+47
        28 004654   300001 474500                    LDP4    1,,PR3
        28 004655   400012 756100                    STQ     10,,PR4

  21376 28 004656   000010 224003                    LDX4    8,DU
        28 004657   000002 744100                    STX4    2,,PR0

  21381 28 004660   000000 236000 8                  LDQ     DNT$
        28 004661   000006 756100                    STQ     6,,PR0

  21398 28 004662   010000 236003                    LDQ     4096,DU
        28 004663   000003 256100                    ORSQ    3,,PR0

  21440 28 004664   010000 236007                    LDQ     4096,DL
        28 004665   000003 256100                    ORSQ    3,,PR0

  21446 28 004666   000003 236100                    LDQ     3,,PR0
        28 004667   000007 376000 29                 ANQ     7
        28 004670   000003 276007                    ORQ     3,DL
        28 004671   000003 756100                    STQ     3,,PR0

  21467 28 004672   200013 236100                    LDQ     RWCT_ST$,,AUTO
        28 004673   100001 756100                    STQ     1,,PR1

  21473 28 004674   200014 741100                    STX1    RWCT_DESC,,AUTO

  21475 28 004675   000012 236000 29                 LDQ     10
        28 004676   200014 356100                    ANSQ    RWCT_DESC,,AUTO

  21476 28 004677   000013 236000 29                 LDQ     11
        28 004700   200014 356100                    ANSQ    RWCT_DESC,,AUTO

  21488 28 004701   000014 236000 29                 LDQ     12
        28 004702   200014 356100                    ANSQ    RWCT_DESC,,AUTO

  21489 28 004703   000015 236000 29                 LDQ     13
        28 004704   200014 356100                    ANSQ    RWCT_DESC,,AUTO
PL6.E3A0      #003=Z8DT$REPORT_WRAPUP File=Z8DT.:Z8A6TSI                         SAT 08/09/97 11:31 Page:675

  21490 28 004705   000004 236007                    LDQ     4,DL
        28 004706   200014 752103                    STCQ    RWCT_DESC,'03'O,AUTO

  21493 28 004707   200014 725100                    LXL5    RWCT_DESC,,AUTO
        28 004710   000001 445100                    SXL5    1,,PR0

  21502 28 004711   000002 236000 5                  LDQ     QLT_+2
        28 004712   000006 036007                    ADLQ    6,DL
        28 004713   000003 116000 5                  CMPQ    QLT_+3
        28 004714   004725 602000 28                 TNC     s:21504

  21503 28 004715   000016 236000 29                 LDQ     14
        28 004716   200024 756100                    STQ     APPEND_IND_OFF+1,,AUTO
        28 004717   200024 633500                    EPPR3   APPEND_IND_OFF+1,,AUTO
        28 004720   200025 453500                    STP3    APPEND_IND_OFF+2,,AUTO
        28 004721   200025 630500                    EPPR0   APPEND_IND_OFF+2,,AUTO
        28 004722   000005 631400 29                 EPPR1   5
        28 004723   000000 701000 xent               TSX1    Z8AR$RESERVER
        28 004724   000000 011000                    NOP     0

  21504 28 004725   000002 236000 5                  LDQ     QLT_+2
        28 004726   000022 736000                    QLS     18
        28 004727   000001 036000 5                  ADLQ    QLT_+1
        28 004730   200013 470500                    LDP0    RWCT_ST$,,AUTO
        28 004731   000007 756100                    STQ     7,,PR0

  21505 28 004732   000002 235000 5                  LDA     QLT_+2
        28 004733   000006 035007                    ADLA    6,DL
        28 004734   000002 755000 5                  STA     QLT_+2

  21506 28 004735   000007 471500                    LDP1    7,,PR0
        28 004736   001053 220003                    LDX0    555,DU
        28 004737   100000 740100                    STX0    0,,PR1

  21509 28 004740   000007 471500                    LDP1    7,,PR0
        28 004741   000004 236000 29                 LDQ     4
PL6.E3A0      #003=Z8DT$REPORT_WRAPUP File=Z8DT.:Z8A6TSI                         SAT 08/09/97 11:31 Page:676
        28 004742   100001 756100                    STQ     1,,PR1

  21510 28 004743   000007 471500                    LDP1    7,,PR0
        28 004744   000004 236000 29                 LDQ     4
        28 004745   100002 756100                    STQ     2,,PR1

  21511 28 004746   000007 471500                    LDP1    7,,PR0
        28 004747   000004 236000 29                 LDQ     4
        28 004750   100003 756100                    STQ     3,,PR1

  21512 28 004751   000007 471500                    LDP1    7,,PR0
        28 004752   200013 236100                    LDQ     RWCT_ST$,,AUTO
        28 004753   100004 756100                    STQ     4,,PR1

  21513 28 004754   000007 471500                    LDP1    7,,PR0
        28 004755   000000 236000 8                  LDQ     DNT$
        28 004756   100005 756100                    STQ     5,,PR1

  21514 28 004757   000007 471500                    LDP1    7,,PR0
        28 004760   000001 236007                    LDQ     1,DL
        28 004761   100000 552104                    STBQ    0,'04'O,PR1

  21515 28 004762   000007 471500                    LDP1    7,,PR0
        28 004763   000000 236003                    LDQ     0,DU
        28 004764   100000 552110                    STBQ    0,'10'O,PR1

  21516 28 004765   000007 471500                    LDP1    7,,PR0
        28 004766   000017 236000 29                 LDQ     15
        28 004767   100000 356100                    ANSQ    0,,PR1

  21517 28 004770   000007 471500                    LDP1    7,,PR0
        28 004771   000020 236000 29                 LDQ     16
        28 004772   100000 356100                    ANSQ    0,,PR1

  21518 28 004773   000007 471500                    LDP1    7,,PR0
        28 004774   000013 236000 29                 LDQ     11
        28 004775   100000 356100                    ANSQ    0,,PR1
PL6.E3A0      #003=Z8DT$REPORT_WRAPUP File=Z8DT.:Z8A6TSI                         SAT 08/09/97 11:31 Page:677

  21519 28 004776   000007 471500                    LDP1    7,,PR0
        28 004777   000021 236000 29                 LDQ     17
        28 005000   100000 356100                    ANSQ    0,,PR1

  21522 28 005001   000007 471500                    LDP1    7,,PR0
        28 005002   200017 236100                    LDQ     RD_QLT$,,AUTO
        28 005003   100001 756100                    STQ     1,,PR1

  21523 28 005004   000007 236100                    LDQ     7,,PR0
        28 005005   200016 471500                    LDP1    PREV_QLT$,,AUTO
        28 005006   100002 756100                    STQ     2,,PR1

  21524 28 005007   000007 236100                    LDQ     7,,PR0
        28 005010   200016 756100                    STQ     PREV_QLT$,,AUTO

     3783    21527
     3784    21528    3              O1COM.CURRENT_REPORT_LTS$ -> REPORT_LTS.CTR_LVL_COUNTER$ = RWCT_ST$;

  21528 28 005011   200013 236100                    LDQ     RWCT_ST$,,AUTO
        28 005012   000064 471400 xsym               LDP1    O1COM+52
        28 005013   100035 756100                    STQ     29,,PR1

     3785    21529    3            END;

     3786    21530
     3787    21531    2    END CREATE_RWCT;

  21531 28 005014   200010 221300                    LDX1  ! CODE_BIT_ON+1,,AUTO
        28 005015   000001 702211                    TSX2  ! 1,X1

     3788    21532         %EJECT;
PL6.E3A0      #003=Z8DT$REPORT_WRAPUP File=Z8DT.:Z8A6TSI                         SAT 08/09/97 11:31 Page:678
     3789    21533
     3790    21534         /*===========*/
     3791    21535    1      PRESET_RWCT: PROC;

  21535 28 005016   200010 741300       PRESET_RWCT  STX1  ! CODE_BIT_ON+1,,AUTO

     3792    21536         /*===========*/
     3793    21537         /*
     3794    21538               NAME: PRESET_RWCT
     3795    21539
     3796    21540           DESCRIPTION: This routine will preset the RWCT tables to the
     3797    21541                        PAGE clause information, report group LINE, COLUMN
     3798    21542                        GROUP INDICATE and NEXT GROUP clauses information and
     3799    21543                        all the run time subroutines addresses.
     3800    21544         */
     3801    21545
     3802    21546
     3803    21547         /*  EQUs of RWCT's offset ...
     3804    21548
     3805    21549        %EQU REPORT_HEADING_OFF    = 0;
     3806    21550        %EQU REPORT_FOOTING_OFF    = 1;
     3807    21551        %EQU PAGE_HEADING_OFF      = 2;
     3808    21552        %EQU PAGE_FOOTING_OFF      = 3;
     3809    21553        %EQU ACTUAL_LINE_OFF       = 4;
     3810    21554        %EQU CONTROL_LVL_OFF       = 5;
     3811    21555        %EQU FIRST_DETAIL_TBL_OFF  = 6;
     3812    21556        %EQU FIRST_DETAIL_GI_OFF   = 7;
     3813    21557        %EQU GEN_SUBTOTAL_OFF      = 8;
     3814    21558        %EQU CTR_BREAK_OFF         = 9;
     3815    21559        %EQU CTR_SHADOW_INIT_OFF   = 10;
     3816    21560        %EQU CTR_ITEM_SWAP_OFF     = 11;
     3817    21561        %EQU TOP_OF_PAGE_OFF       = 12;
     3818    21562        %EQU LINE_COUNTER_PTR_OFF  = 13;
     3819    21563        %EQU PAGE_COUNTER_PTR_OFF  = 14;
     3820    21564        %EQU CTR_BREAK_COUNTER_OFF = 15;
     3821    21565        %EQU NEXT_GROUP_INT_OFF    = 16;
     3822    21566        %EQU PAGE_LIMIT_INT_OFF    = 17;
PL6.E3A0      #003=Z8DT$REPORT_WRAPUP File=Z8DT.:Z8A6TSI                         SAT 08/09/97 11:31 Page:679
     3823    21567        %EQU HEADING_INT_OFF       = 18;
     3824    21568        %EQU FIRST_DETAIL_INT_OFF  = 19;
     3825    21569        %EQU LAST_DETAIL_INT_OFF   = 20;
     3826    21570        %EQU FOOTING_INT_OFF       = 21;
     3827    21571        %EQU AFTER_ADVANCE_ADDR_OFF= 22;
     3828    21572        %EQU NO_OF_CTR_ITEM_OFF    = 23;
     3829    21573        %EQU REPORT_CTR_WORD_OFF   = 24;
     3830    21574
     3831    21575        %EQU CTR_HEADING_TBL_OFF   = 0;
     3832    21576        %EQU CTR_FOOTING_TBL_OFF   = 1;
     3833    21577        %EQU RESET_SUB_OFF         = 2;
     3834    21578        %EQU CROSS_ROLL_SUB_OFF    = 3;
     3835    21579        %EQU SUM_CLEAR_SUB_OFF     = 4;
     3836    21580
     3837    21581        %EQU USE_PROC_PTR_OFF      = 0;
     3838    21582        %EQU SUPRESS_PRINT_OFF     = 1;
     3839    21583        %EQU FORMATTING_SUB_OFF    = 2;
     3840    21584        %EQU FIRST_LINE_TYPE_OFF   = 3;
     3841    21585        %EQU FIRST_LINE_INT_OFF    = 4;
     3842    21586        %EQU TOTAL_LINE_INT_OFF    = 5;
     3843    21587        %EQU NEXT_GROUP_LINE_TYPE_OFF = 6;
     3844    21588        %EQU NEXT_GROUP_LINE_INT_OFF  = 7;
     3845    21589        %EQU SPECIAL_SUBTOTAL_SUB_OFF = 8;
     3846    21590        %EQU NEXT_DETAIL_IND_OFF   = 9;
     3847    21591        %EQU RWCT_ADDR_OFF         = 10;
     3848    21592        %EQU GROUP_IND_SWITCH_OFF  = 11;
     3849    21593
     3850    21594        %EQU CTR_TBL_START_OFF     = 25;
     3851    21595        %EQU CTR_TBL_SPAN          =5;
     3852    21596
     3853    21597         */
     3854    21598
     3855    21599        %EQU ROPCON_0 = 0;
     3856    21600
     3857    21601    2   DCL 1 CONSTI              UNAL,
     3858    21602    2         2 BIN_WORD           SBIN WORD,
     3859    21603    2         2 PTR_WORD   REDEF BIN_WORD  PTR;
PL6.E3A0      #003=Z8DT$REPORT_WRAPUP File=Z8DT.:Z8A6TSI                         SAT 08/09/97 11:31 Page:680
     3860    21604    2   DCL NIL_PTR_ETT$           PTR;
     3861    21605    2   DCL CONST$$                PTR;
     3862    21606    2   DCL LTS$$                  PTR;
     3863    21607    2   DCL START_CTR_TBL          SBIN WORD;
     3864    21608    2   DCL I                      SBIN WORD;
     3865    21609    2   DCL CGT_ST$                PTR;
     3866    21610    2   DCL PTR$$                  PTR;
     3867    21611    2   DCL P$$                    PTR;
     3868    21612    2   DCL APPEND_IND_TABLE$      PTR;
     3869    21613    2   DCL APPEND_IND_OFF         SBIN WORD;
     3870    21614
     3871    21615
     3872    21616        %EJECT;
PL6.E3A0      #003=Z8DT$REPORT_WRAPUP File=Z8DT.:Z8A6TSI                         SAT 08/09/97 11:31 Page:681
     3873    21617
     3874    21618
     3875    21619         %MACRO INIT_ZERO_NIL_RWCT (@OFFSET_V = ,
     3876    21620                                    @ROP_ST$ = COMCOM.VALUE_0 -> ETT.LOP,
     3877    21621                                   @LOP_ST$ = O1COM.CURRENT_REPORT_LTS$ -> REPORT_LTS.RWCT$
             21621                                        );
     3878    21622           DO;
     3879    21623               %NEW_ILL (@ID   = %PREOFF,
     3880    21624                         @OFFSET = @OFFSET_V,
     3881    21625                         @LOP    = @LOP_ST$,
     3882    21626                         @ROP    = @ROP_ST$,
     3883    21627                         @N      = 1);
     3884    21628           END;
     3885    21629         %MEND;
     3886    21630
     3887    21631
     3888    21632         %MACRO INIT_CGT_RWCT (@POINTER = LTS$$,
     3889    21633                               @OFFSET_V = );
     3890    21634           DO;
     3891    21635               IF @POINTER ~= ADDR(NIL) THEN
     3892    21636                 DO;
     3893    21637                   CGT_ST$ = @POINTER -> REPORT_01_LTS.RWCT$;
     3894    21638
     3895    21639                   %NEW_ILL (@ID = %P_A_PRESET,
     3896    21640                             @OFFSET = @OFFSET_V,
     3897    21641                             @TO  = O1COM.CURRENT_REPORT_LTS$ -> REPORT_LTS.RWCT$,
     3898    21642                             @LOP = CGT_ST$,
     3899    21643                             @ROPCON = %ROPCON_0);
     3900    21644
     3901    21645                 END;
     3902    21646           /*   if the RWCS is written in PL6 then ---
     3903    21647               ELSE
     3904    21648
     3905    21649                 %INIT_ZERO_NIL_RWCT (@OFFSET_V = @OFFSET_V);
     3906    21650                                      @ROP_ST$ = NIL_PTR_ETT$ -> ETT.LOP);
     3907    21651           */
     3908    21652
PL6.E3A0      #003=Z8DT$REPORT_WRAPUP File=Z8DT.:Z8A6TSI                         SAT 08/09/97 11:31 Page:682
     3909    21653           END;
     3910    21654         %MEND;
     3911    21655         %EJECT;
PL6.E3A0      #003=Z8DT$REPORT_WRAPUP File=Z8DT.:Z8A6TSI                         SAT 08/09/97 11:31 Page:683
     3912    21656
     3913    21657         %MACRO MAKE_CONST_AND_ILL (@OFFSET_V =,
     3914    21658                                    @LOP_ST$  =
             21658                                        O1COM.CURRENT_REPORT_LTS$ -> REPORT_LTS.RWCT$,
     3915    21659                                    @CONSTANT = 0);
     3916    21660           DO;
     3917    21661               MKCN.CON = @CONSTANT;
     3918    21662
     3919    21663               CALL Z8AC$MAKE_CONST (CONST$$);
     3920    21664
     3921    21665               CGT_ST$ = @LOP_ST$;
     3922    21666
     3923    21667               %NEW_ILL (@ID    = %PREOFF,
     3924    21668                         @OFFSET = @OFFSET_V,
     3925    21669                         @LOP    = CGT_ST$,
     3926    21670                         @ROP    = CONST$$ -> ETT.LOP,
     3927    21671                         @N      = 1 );
     3928    21672
     3929    21673           END;
     3930    21674         %MEND;
     3931    21675
     3932    21676
     3933    21677         %MACRO INIT_CGT_RWCT_TBL (@LOP_ST$ = ,
     3934    21678                                   @POINTER = );
     3935    21679           DO;
     3936    21680               P$$ = @POINTER;
     3937    21681
     3938    21682               %MAKE_CONST_AND_ILL (@OFFSET_V = %FIRST_LINE_TYPE_OFF,
     3939    21683                                    @LOP_ST$  = @LOP_ST$,
     3940    21684                                    @CONSTANT = P$$ -> REPORT_01_LTS.FIRST_LINE.TYPE);
     3941    21685
     3942    21686               %MAKE_CONST_AND_ILL (@OFFSET_V = %FIRST_LINE_INT_OFF,
     3943    21687                                    @LOP_ST$  = @LOP_ST$,
     3944    21688                                    @CONSTANT = P$$ -> REPORT_01_LTS.FIRST_LINE.NO#);
     3945    21689
     3946    21690               %MAKE_CONST_AND_ILL (@OFFSET_V = %TOTAL_LINE_INT_OFF,
     3947    21691                                    @LOP_ST$  = @LOP_ST$,
PL6.E3A0      #003=Z8DT$REPORT_WRAPUP File=Z8DT.:Z8A6TSI                         SAT 08/09/97 11:31 Page:684
     3948    21692                                    @CONSTANT = P$$ -> REPORT_01_LTS.TOTAL_LINES);
     3949    21693
     3950    21694               %MAKE_CONST_AND_ILL (@OFFSET_V = %NEXT_GROUP_LINE_TYPE_OFF,
     3951    21695                                    @LOP_ST$  = @LOP_ST$,
     3952    21696                                    @CONSTANT = P$$ -> REPORT_01_LTS.NEXT_GROUP_TYPE);
     3953    21697
     3954    21698               %MAKE_CONST_AND_ILL (@OFFSET_V = %NEXT_GROUP_LINE_INT_OFF,
     3955    21699                                    @LOP_ST$  = @LOP_ST$,
     3956    21700                                    @CONSTANT = P$$ -> REPORT_01_LTS.NEXT_GROUP_NO#);
     3957    21701
     3958    21702           END;
     3959    21703         %MEND;
     3960    21704
     3961    21705
     3962    21706         %MACRO FILL_CGT_TBL (@POINTER = LTS$$);
     3963    21707           DO;
     3964    21708             IF @POINTER ~= ADDR(NIL) THEN
     3965    21709                 DO;
     3966    21710                   PTR$$ = @POINTER;
     3967    21711
     3968    21712                 %INIT_CGT_RWCT_TBL (@LOP_ST$ = PTR$$ -> REPORT_01_LTS.RWCT$,
     3969    21713                                     @POINTER = PTR$$);
     3970    21714
     3971    21715                 END;
     3972    21716           END;
     3973    21717         %MEND;
     3974    21718         %EJECT;
PL6.E3A0      #003=Z8DT$REPORT_WRAPUP File=Z8DT.:Z8A6TSI                         SAT 08/09/97 11:31 Page:685
     3975    21719
     3976    21720           /*   if RWCS is written in PL6 then ---
     3977    21721
     3978    21722               CONSTI.PTR_WORD = ADDR(NIL);
     3979    21723               MKCN.CON = CONSTI.BIN_WORD;
     3980    21724
     3981    21725               CALL Z8AC$MAKE_CONST (NIL_PTR_ETT$);
     3982    21726
     3983    21727               and .. preset every pointer field of RWCT to NIL_PTR_ETT$ ...
     3984    21728           */
     3985    21729
     3986    21730
     3987    21731               %INIT_CGT_RWCT (@POINTER =
             21731                   O1COM.CURRENT_REPORT_LTS$ -> REPORT_LTS.REPORT_HEADING$,
     3988    21732                               @OFFSET_V = %REPORT_HEADING_OFF);

  21734 28 005017   000064 470400 xsym               LDP0    O1COM+52
        28 005020   000023 236100                    LDQ     19,,PR0
        28 005021   000004 116000 29                 CMPQ    4
        28 005022   005054 600000 28                 TZE     s:22133

  21736 28 005023   000023 471500                    LDP1    19,,PR0
        28 005024   100022 236100                    LDQ     18,,PR1
        28 005025   200017 756100                    STQ     CGT_ST$,,AUTO

  21998 28 005026   000024 236000 29                 LDQ     20
        28 005027   200024 756100                    STQ     APPEND_IND_OFF+1,,AUTO
        28 005030   200024 631500                    EPPR1   APPEND_IND_OFF+1,,AUTO
        28 005031   200031 451500                    STP1    APPEND_IND_OFF+6,,AUTO
        28 005032   000025 236000 29                 LDQ     21
        28 005033   200030 756100                    STQ     APPEND_IND_OFF+5,,AUTO
        28 005034   000026 237000 29                 LDAQ    22
        28 005035   200026 757100                    STAQ    APPEND_IND_OFF+3,,AUTO
        28 005036   200026 630500                    EPPR0   APPEND_IND_OFF+3,,AUTO
        28 005037   000022 631400 29                 EPPR1   18
        28 005040   000000 701000 xent               TSX1    Z8AN$NEW_ILL
        28 005041   000000 011000                    NOP     0
PL6.E3A0      #003=Z8DT$REPORT_WRAPUP File=Z8DT.:Z8A6TSI                         SAT 08/09/97 11:31 Page:686

  22002 28 005042   000000 220003                    LDX0    0,DU
        28 005043   000000 470400 16                 LDP0    ILL$
        28 005044   000000 440100                    SXL0    0,,PR0

  22004 28 005045   000000 470400 16                 LDP0    ILL$
        28 005046   000002 450100                    STZ     2,,PR0

  22005 28 005047   200017 236100                    LDQ     CGT_ST$,,AUTO
        28 005050   000001 756100                    STQ     1,,PR0

  22006 28 005051   000064 471400 xsym               LDP1    O1COM+52
        28 005052   100022 236100                    LDQ     18,,PR1
        28 005053   000003 756100                    STQ     3,,PR0

     3989    22128
     3990    22129
     3991    22130               %INIT_CGT_RWCT (@POINTER =
             22130                   O1COM.CURRENT_REPORT_LTS$ -> REPORT_LTS.REPORT_FOOTING$,
     3992    22131                               @OFFSET_V = %REPORT_FOOTING_OFF);

  22133 28 005054   000064 470400 xsym               LDP0    O1COM+52
        28 005055   000033 236100                    LDQ     27,,PR0
        28 005056   000004 116000 29                 CMPQ    4
        28 005057   005111 600000 28                 TZE     s:22531

  22135 28 005060   000033 471500                    LDP1    27,,PR0
        28 005061   100022 236100                    LDQ     18,,PR1
        28 005062   200017 756100                    STQ     CGT_ST$,,AUTO

  22397 28 005063   000024 236000 29                 LDQ     20
        28 005064   200024 756100                    STQ     APPEND_IND_OFF+1,,AUTO
        28 005065   200024 633500                    EPPR3   APPEND_IND_OFF+1,,AUTO
        28 005066   200031 453500                    STP3    APPEND_IND_OFF+6,,AUTO
        28 005067   000025 236000 29                 LDQ     21
        28 005070   200030 756100                    STQ     APPEND_IND_OFF+5,,AUTO
        28 005071   000026 237000 29                 LDAQ    22
PL6.E3A0      #003=Z8DT$REPORT_WRAPUP File=Z8DT.:Z8A6TSI                         SAT 08/09/97 11:31 Page:687
        28 005072   200026 757100                    STAQ    APPEND_IND_OFF+3,,AUTO
        28 005073   200026 630500                    EPPR0   APPEND_IND_OFF+3,,AUTO
        28 005074   000022 631400 29                 EPPR1   18
        28 005075   000000 701000 xent               TSX1    Z8AN$NEW_ILL
        28 005076   000000 011000                    NOP     0

  22401 28 005077   000001 220003                    LDX0    1,DU
        28 005100   000000 470400 16                 LDP0    ILL$
        28 005101   000000 440100                    SXL0    0,,PR0

  22403 28 005102   000000 470400 16                 LDP0    ILL$
        28 005103   000002 450100                    STZ     2,,PR0

  22404 28 005104   200017 236100                    LDQ     CGT_ST$,,AUTO
        28 005105   000001 756100                    STQ     1,,PR0

  22405 28 005106   000064 471400 xsym               LDP1    O1COM+52
        28 005107   100022 236100                    LDQ     18,,PR1
        28 005110   000003 756100                    STQ     3,,PR0

     3993    22527
     3994    22528               %INIT_CGT_RWCT (@POINTER =
             22528                   O1COM.CURRENT_REPORT_LTS$ -> REPORT_LTS.PAGE_HEADING$,
     3995    22529                               @OFFSET_V = %PAGE_HEADING_OFF);

  22531 28 005111   000064 470400 xsym               LDP0    O1COM+52
        28 005112   000024 236100                    LDQ     20,,PR0
        28 005113   000004 116000 29                 CMPQ    4
        28 005114   005146 600000 28                 TZE     s:22929

  22533 28 005115   000024 471500                    LDP1    20,,PR0
        28 005116   100022 236100                    LDQ     18,,PR1
        28 005117   200017 756100                    STQ     CGT_ST$,,AUTO

  22795 28 005120   000024 236000 29                 LDQ     20
        28 005121   200024 756100                    STQ     APPEND_IND_OFF+1,,AUTO
        28 005122   200024 631500                    EPPR1   APPEND_IND_OFF+1,,AUTO
PL6.E3A0      #003=Z8DT$REPORT_WRAPUP File=Z8DT.:Z8A6TSI                         SAT 08/09/97 11:31 Page:688
        28 005123   200031 451500                    STP1    APPEND_IND_OFF+6,,AUTO
        28 005124   000025 236000 29                 LDQ     21
        28 005125   200030 756100                    STQ     APPEND_IND_OFF+5,,AUTO
        28 005126   000026 237000 29                 LDAQ    22
        28 005127   200026 757100                    STAQ    APPEND_IND_OFF+3,,AUTO
        28 005130   200026 630500                    EPPR0   APPEND_IND_OFF+3,,AUTO
        28 005131   000022 631400 29                 EPPR1   18
        28 005132   000000 701000 xent               TSX1    Z8AN$NEW_ILL
        28 005133   000000 011000                    NOP     0

  22799 28 005134   000002 220003                    LDX0    2,DU
        28 005135   000000 470400 16                 LDP0    ILL$
        28 005136   000000 440100                    SXL0    0,,PR0

  22801 28 005137   000000 470400 16                 LDP0    ILL$
        28 005140   000002 450100                    STZ     2,,PR0

  22802 28 005141   200017 236100                    LDQ     CGT_ST$,,AUTO
        28 005142   000001 756100                    STQ     1,,PR0

  22803 28 005143   000064 471400 xsym               LDP1    O1COM+52
        28 005144   100022 236100                    LDQ     18,,PR1
        28 005145   000003 756100                    STQ     3,,PR0

     3996    22925
     3997    22926               %INIT_CGT_RWCT (@POINTER =
             22926                   O1COM.CURRENT_REPORT_LTS$ -> REPORT_LTS.PAGE_FOOTING$,
     3998    22927                               @OFFSET_V = %PAGE_FOOTING_OFF);

  22929 28 005146   000064 470400 xsym               LDP0    O1COM+52
        28 005147   000032 236100                    LDQ     26,,PR0
        28 005150   000004 116000 29                 CMPQ    4
        28 005151   005203 600000 28                 TZE     s:23327

  22931 28 005152   000032 471500                    LDP1    26,,PR0
        28 005153   100022 236100                    LDQ     18,,PR1
        28 005154   200017 756100                    STQ     CGT_ST$,,AUTO
PL6.E3A0      #003=Z8DT$REPORT_WRAPUP File=Z8DT.:Z8A6TSI                         SAT 08/09/97 11:31 Page:689

  23193 28 005155   000024 236000 29                 LDQ     20
        28 005156   200024 756100                    STQ     APPEND_IND_OFF+1,,AUTO
        28 005157   200024 633500                    EPPR3   APPEND_IND_OFF+1,,AUTO
        28 005160   200031 453500                    STP3    APPEND_IND_OFF+6,,AUTO
        28 005161   000025 236000 29                 LDQ     21
        28 005162   200030 756100                    STQ     APPEND_IND_OFF+5,,AUTO
        28 005163   000026 237000 29                 LDAQ    22
        28 005164   200026 757100                    STAQ    APPEND_IND_OFF+3,,AUTO
        28 005165   200026 630500                    EPPR0   APPEND_IND_OFF+3,,AUTO
        28 005166   000022 631400 29                 EPPR1   18
        28 005167   000000 701000 xent               TSX1    Z8AN$NEW_ILL
        28 005170   000000 011000                    NOP     0

  23197 28 005171   000003 220003                    LDX0    3,DU
        28 005172   000000 470400 16                 LDP0    ILL$
        28 005173   000000 440100                    SXL0    0,,PR0

  23199 28 005174   000000 470400 16                 LDP0    ILL$
        28 005175   000002 450100                    STZ     2,,PR0

  23200 28 005176   200017 236100                    LDQ     CGT_ST$,,AUTO
        28 005177   000001 756100                    STQ     1,,PR0

  23201 28 005200   000064 471400 xsym               LDP1    O1COM+52
        28 005201   100022 236100                    LDQ     18,,PR1
        28 005202   000003 756100                    STQ     3,,PR0

     3999    23323
     4000    23324               %INIT_CGT_RWCT (@POINTER = O1COM.CURRENT_REPORT_LTS$ -> REPORT_LTS.DETAIL$,
     4001    23325                               @OFFSET_V = %FIRST_DETAIL_TBL_OFF);

  23327 28 005203   000064 470400 xsym               LDP0    O1COM+52
        28 005204   000027 236100                    LDQ     23,,PR0
        28 005205   000004 116000 29                 CMPQ    4
        28 005206   005240 600000 28                 TZE     s:23983

PL6.E3A0      #003=Z8DT$REPORT_WRAPUP File=Z8DT.:Z8A6TSI                         SAT 08/09/97 11:31 Page:690
  23329 28 005207   000027 471500                    LDP1    23,,PR0
        28 005210   100022 236100                    LDQ     18,,PR1
        28 005211   200017 756100                    STQ     CGT_ST$,,AUTO

  23591 28 005212   000024 236000 29                 LDQ     20
        28 005213   200024 756100                    STQ     APPEND_IND_OFF+1,,AUTO
        28 005214   200024 633500                    EPPR3   APPEND_IND_OFF+1,,AUTO
        28 005215   200031 453500                    STP3    APPEND_IND_OFF+6,,AUTO
        28 005216   000025 236000 29                 LDQ     21
        28 005217   200030 756100                    STQ     APPEND_IND_OFF+5,,AUTO
        28 005220   000026 237000 29                 LDAQ    22
        28 005221   200026 757100                    STAQ    APPEND_IND_OFF+3,,AUTO
        28 005222   200026 630500                    EPPR0   APPEND_IND_OFF+3,,AUTO
        28 005223   000022 631400 29                 EPPR1   18
        28 005224   000000 701000 xent               TSX1    Z8AN$NEW_ILL
        28 005225   000000 011000                    NOP     0

  23595 28 005226   000006 220003                    LDX0    6,DU
        28 005227   000000 470400 16                 LDP0    ILL$
        28 005230   000000 440100                    SXL0    0,,PR0

  23597 28 005231   000000 470400 16                 LDP0    ILL$
        28 005232   000002 450100                    STZ     2,,PR0

  23598 28 005233   200017 236100                    LDQ     CGT_ST$,,AUTO
        28 005234   000001 756100                    STQ     1,,PR0

  23599 28 005235   000064 471400 xsym               LDP1    O1COM+52
        28 005236   100022 236100                    LDQ     18,,PR1
        28 005237   000003 756100                    STQ     3,,PR0

     4002    23721
     4003    23722               %NEW_ILL (@ID   = %P_A_PRESET,
     4004    23723                         @OFFSET = %LINE_COUNTER_PTR_OFF,
     4005    23724                         @TO     = O1COM.CURRENT_REPORT_LTS$ -> REPORT_LTS.RWCT$,
     4006    23725                         @LOP    = O1COM.CURRENT_REPORT_LTS$ -> REPORT_LTS.LINE_COUNTER$,
     4007    23726                         @ROPCON = %ROPCON_0);
PL6.E3A0      #003=Z8DT$REPORT_WRAPUP File=Z8DT.:Z8A6TSI                         SAT 08/09/97 11:31 Page:691

  23983 28 005240   000024 236000 29                 LDQ     20
        28 005241   200024 756100                    STQ     APPEND_IND_OFF+1,,AUTO
        28 005242   200024 630500                    EPPR0   APPEND_IND_OFF+1,,AUTO
        28 005243   200031 450500                    STP0    APPEND_IND_OFF+6,,AUTO
        28 005244   000025 236000 29                 LDQ     21
        28 005245   200030 756100                    STQ     APPEND_IND_OFF+5,,AUTO
        28 005246   000026 237000 29                 LDAQ    22
        28 005247   200026 757100                    STAQ    APPEND_IND_OFF+3,,AUTO
        28 005250   200026 630500                    EPPR0   APPEND_IND_OFF+3,,AUTO
        28 005251   000022 631400 29                 EPPR1   18
        28 005252   000000 701000 xent               TSX1    Z8AN$NEW_ILL
        28 005253   000000 011000                    NOP     0

  23987 28 005254   000015 220003                    LDX0    13,DU
        28 005255   000000 470400 16                 LDP0    ILL$
        28 005256   000000 440100                    SXL0    0,,PR0

  23989 28 005257   000000 470400 16                 LDP0    ILL$
        28 005260   000002 450100                    STZ     2,,PR0

  23990 28 005261   000064 471400 xsym               LDP1    O1COM+52
        28 005262   100020 236100                    LDQ     16,,PR1
        28 005263   000001 756100                    STQ     1,,PR0

  23991 28 005264   000064 471400 xsym               LDP1    O1COM+52
        28 005265   100022 236100                    LDQ     18,,PR1
        28 005266   000003 756100                    STQ     3,,PR0

     4008    24105
     4009    24106               %NEW_ILL (@ID   = %P_A_PRESET,
     4010    24107                         @OFFSET = %PAGE_COUNTER_PTR_OFF,
     4011    24108                         @TO     = O1COM.CURRENT_REPORT_LTS$ -> REPORT_LTS.RWCT$,
     4012    24109                         @LOP    = O1COM.CURRENT_REPORT_LTS$ -> REPORT_LTS.PAGE_COUNTER$,
     4013    24110                         @ROPCON = %ROPCON_0);

  24367 28 005267   000024 236000 29                 LDQ     20
PL6.E3A0      #003=Z8DT$REPORT_WRAPUP File=Z8DT.:Z8A6TSI                         SAT 08/09/97 11:31 Page:692
        28 005270   200024 756100                    STQ     APPEND_IND_OFF+1,,AUTO
        28 005271   200024 631500                    EPPR1   APPEND_IND_OFF+1,,AUTO
        28 005272   200031 451500                    STP1    APPEND_IND_OFF+6,,AUTO
        28 005273   000025 236000 29                 LDQ     21
        28 005274   200030 756100                    STQ     APPEND_IND_OFF+5,,AUTO
        28 005275   000026 237000 29                 LDAQ    22
        28 005276   200026 757100                    STAQ    APPEND_IND_OFF+3,,AUTO
        28 005277   200026 630500                    EPPR0   APPEND_IND_OFF+3,,AUTO
        28 005300   000022 631400 29                 EPPR1   18
        28 005301   000000 701000 xent               TSX1    Z8AN$NEW_ILL
        28 005302   000000 011000                    NOP     0

  24371 28 005303   000016 220003                    LDX0    14,DU
        28 005304   000000 470400 16                 LDP0    ILL$
        28 005305   000000 440100                    SXL0    0,,PR0

  24373 28 005306   000000 470400 16                 LDP0    ILL$
        28 005307   000002 450100                    STZ     2,,PR0

  24374 28 005310   000064 471400 xsym               LDP1    O1COM+52
        28 005311   100017 236100                    LDQ     15,,PR1
        28 005312   000001 756100                    STQ     1,,PR0

  24375 28 005313   000064 471400 xsym               LDP1    O1COM+52
        28 005314   100022 236100                    LDQ     18,,PR1
        28 005315   000003 756100                    STQ     3,,PR0

     4014    24489
     4015    24490    2         IF O1COM.CURRENT_REPORT_LTS$ -> REPORT_LTS.CTR_LVL_COUNTER$ ~= ADDR(NIL) THEN

  24490 28 005316   000064 471400 xsym               LDP1    O1COM+52
        28 005317   100035 236100                    LDQ     29,,PR1
        28 005320   000004 116000 29                 CMPQ    4
        28 005321   005351 600000 28                 TZE     s:24878

     4016    24491    3            DO;

PL6.E3A0      #003=Z8DT$REPORT_WRAPUP File=Z8DT.:Z8A6TSI                         SAT 08/09/97 11:31 Page:693
     4017    24492
     4018    24493                   %NEW_ILL (@ID   = %P_A_PRESET,
     4019    24494                             @OFFSET = %CTR_BREAK_COUNTER_OFF,
     4020    24495                             @TO     = O1COM.CURRENT_REPORT_LTS$ -> REPORT_LTS.RWCT$,
     4021    24496                             @LOP    =
             24496                                 O1COM.CURRENT_REPORT_LTS$ -> REPORT_LTS.CTR_LVL_COUNTER$,
     4022    24497                             @ROPCON = %ROPCON_0);

  24754 28 005322   000024 236000 29                 LDQ     20
        28 005323   200024 756100                    STQ     APPEND_IND_OFF+1,,AUTO
        28 005324   200024 633500                    EPPR3   APPEND_IND_OFF+1,,AUTO
        28 005325   200031 453500                    STP3    APPEND_IND_OFF+6,,AUTO
        28 005326   000025 236000 29                 LDQ     21
        28 005327   200030 756100                    STQ     APPEND_IND_OFF+5,,AUTO
        28 005330   000026 237000 29                 LDAQ    22
        28 005331   200026 757100                    STAQ    APPEND_IND_OFF+3,,AUTO
        28 005332   200026 630500                    EPPR0   APPEND_IND_OFF+3,,AUTO
        28 005333   000022 631400 29                 EPPR1   18
        28 005334   000000 701000 xent               TSX1    Z8AN$NEW_ILL
        28 005335   000000 011000                    NOP     0

  24758 28 005336   000017 220003                    LDX0    15,DU
        28 005337   000000 470400 16                 LDP0    ILL$
        28 005340   000000 440100                    SXL0    0,,PR0

  24760 28 005341   000000 470400 16                 LDP0    ILL$
        28 005342   000002 450100                    STZ     2,,PR0

  24761 28 005343   000064 471400 xsym               LDP1    O1COM+52
        28 005344   100035 236100                    LDQ     29,,PR1
        28 005345   000001 756100                    STQ     1,,PR0

  24762 28 005346   000064 471400 xsym               LDP1    O1COM+52
        28 005347   100022 236100                    LDQ     18,,PR1
        28 005350   000003 756100                    STQ     3,,PR0

     4023    24876    3            END;
PL6.E3A0      #003=Z8DT$REPORT_WRAPUP File=Z8DT.:Z8A6TSI                         SAT 08/09/97 11:31 Page:694

     4024    24877
     4025    24878    2          IF O1COM.CURRENT_REPORT_LTS$ -> REPORT_LTS.B.PAGE_LIMIT_ON THEN

  24878 28 005351   000064 471400 xsym               LDP1    O1COM+52
        28 005352   100003 236100                    LDQ     3,,PR1
        28 005353   100000 316003                    CANQ    32768,DU
        28 005354   005634 600000 28                 TZE     s:27078

     4026    24879    3            DO;

     4027    24880                   %MAKE_CONST_AND_ILL (@OFFSET_V = %PAGE_LIMIT_INT_OFF,
     4028    24881                        @CONSTANT = O1COM.CURRENT_REPORT_LTS$ -> REPORT_LTS.PAGE_LIMIT );

  24883 28 005355   100011 235100                    LDA     9,,PR1
        28 005356   000000 755000 20                 STA     MKCN

  24884 28 005357   200013 633500                    EPPR3   CONST$$,,AUTO
        28 005360   200024 453500                    STP3    APPEND_IND_OFF+1,,AUTO
        28 005361   200024 630500                    EPPR0   APPEND_IND_OFF+1,,AUTO
        28 005362   000005 631400 29                 EPPR1   5
        28 005363   000000 701000 xent               TSX1    Z8AC$MAKE_CONST
        28 005364   000000 011000                    NOP     0

  24885 28 005365   000064 470400 xsym               LDP0    O1COM+52
        28 005366   000022 236100                    LDQ     18,,PR0
        28 005367   200017 756100                    STQ     CGT_ST$,,AUTO

  25119 28 005370   000024 236000 29                 LDQ     20
        28 005371   200024 756100                    STQ     APPEND_IND_OFF+1,,AUTO
        28 005372   200024 631500                    EPPR1   APPEND_IND_OFF+1,,AUTO
        28 005373   200031 451500                    STP1    APPEND_IND_OFF+6,,AUTO
        28 005374   000025 236000 29                 LDQ     21
        28 005375   200030 756100                    STQ     APPEND_IND_OFF+5,,AUTO
        28 005376   000032 237000 29                 LDAQ    26
        28 005377   200026 757100                    STAQ    APPEND_IND_OFF+3,,AUTO
        28 005400   200026 630500                    EPPR0   APPEND_IND_OFF+3,,AUTO
PL6.E3A0      #003=Z8DT$REPORT_WRAPUP File=Z8DT.:Z8A6TSI                         SAT 08/09/97 11:31 Page:695
        28 005401   000022 631400 29                 EPPR1   18
        28 005402   000000 701000 xent               TSX1    Z8AN$NEW_ILL
        28 005403   000000 011000                    NOP     0

  25123 28 005404   000021 220003                    LDX0    17,DU
        28 005405   000000 470400 16                 LDP0    ILL$
        28 005406   000000 440100                    SXL0    0,,PR0

  25128 28 005407   000001 235007                    LDA     1,DL
        28 005410   000000 470400 16                 LDP0    ILL$
        28 005411   000003 755100                    STA     3,,PR0

  25130 28 005412   200017 236100                    LDQ     CGT_ST$,,AUTO
        28 005413   000001 756100                    STQ     1,,PR0

  25131 28 005414   200013 471500                    LDP1    CONST$$,,AUTO
        28 005415   100001 236100                    LDQ     1,,PR1
        28 005416   000002 756100                    STQ     2,,PR0

     4029    25271
     4030    25272                   %MAKE_CONST_AND_ILL (@OFFSET_V = %HEADING_INT_OFF,
     4031    25273                        @CONSTANT = O1COM.CURRENT_REPORT_LTS$ -> REPORT_LTS.HEADING);

  25275 28 005417   000064 471400 xsym               LDP1    O1COM+52
        28 005420   100012 235100                    LDA     10,,PR1
        28 005421   000000 755000 20                 STA     MKCN

  25276 28 005422   200013 633500                    EPPR3   CONST$$,,AUTO
        28 005423   200024 453500                    STP3    APPEND_IND_OFF+1,,AUTO
        28 005424   200024 630500                    EPPR0   APPEND_IND_OFF+1,,AUTO
        28 005425   000005 631400 29                 EPPR1   5
        28 005426   000000 701000 xent               TSX1    Z8AC$MAKE_CONST
        28 005427   000000 011000                    NOP     0

  25277 28 005430   000064 470400 xsym               LDP0    O1COM+52
        28 005431   000022 236100                    LDQ     18,,PR0
        28 005432   200017 756100                    STQ     CGT_ST$,,AUTO
PL6.E3A0      #003=Z8DT$REPORT_WRAPUP File=Z8DT.:Z8A6TSI                         SAT 08/09/97 11:31 Page:696

  25511 28 005433   000024 236000 29                 LDQ     20
        28 005434   200024 756100                    STQ     APPEND_IND_OFF+1,,AUTO
        28 005435   200024 631500                    EPPR1   APPEND_IND_OFF+1,,AUTO
        28 005436   200031 451500                    STP1    APPEND_IND_OFF+6,,AUTO
        28 005437   000025 236000 29                 LDQ     21
        28 005440   200030 756100                    STQ     APPEND_IND_OFF+5,,AUTO
        28 005441   000032 237000 29                 LDAQ    26
        28 005442   200026 757100                    STAQ    APPEND_IND_OFF+3,,AUTO
        28 005443   200026 630500                    EPPR0   APPEND_IND_OFF+3,,AUTO
        28 005444   000022 631400 29                 EPPR1   18
        28 005445   000000 701000 xent               TSX1    Z8AN$NEW_ILL
        28 005446   000000 011000                    NOP     0

  25515 28 005447   000022 220003                    LDX0    18,DU
        28 005450   000000 470400 16                 LDP0    ILL$
        28 005451   000000 440100                    SXL0    0,,PR0

  25520 28 005452   000001 235007                    LDA     1,DL
        28 005453   000000 470400 16                 LDP0    ILL$
        28 005454   000003 755100                    STA     3,,PR0

  25522 28 005455   200017 236100                    LDQ     CGT_ST$,,AUTO
        28 005456   000001 756100                    STQ     1,,PR0

  25523 28 005457   200013 471500                    LDP1    CONST$$,,AUTO
        28 005460   100001 236100                    LDQ     1,,PR1
        28 005461   000002 756100                    STQ     2,,PR0

     4032    25663
     4033    25664                   %MAKE_CONST_AND_ILL (@OFFSET_V = %FOOTING_INT_OFF,
     4034    25665                        @CONSTANT = O1COM.CURRENT_REPORT_LTS$ -> REPORT_LTS.FOOTING);

  25667 28 005462   000064 471400 xsym               LDP1    O1COM+52
        28 005463   100015 235100                    LDA     13,,PR1
        28 005464   000000 755000 20                 STA     MKCN

PL6.E3A0      #003=Z8DT$REPORT_WRAPUP File=Z8DT.:Z8A6TSI                         SAT 08/09/97 11:31 Page:697
  25668 28 005465   200013 633500                    EPPR3   CONST$$,,AUTO
        28 005466   200024 453500                    STP3    APPEND_IND_OFF+1,,AUTO
        28 005467   200024 630500                    EPPR0   APPEND_IND_OFF+1,,AUTO
        28 005470   000005 631400 29                 EPPR1   5
        28 005471   000000 701000 xent               TSX1    Z8AC$MAKE_CONST
        28 005472   000000 011000                    NOP     0

  25669 28 005473   000064 470400 xsym               LDP0    O1COM+52
        28 005474   000022 236100                    LDQ     18,,PR0
        28 005475   200017 756100                    STQ     CGT_ST$,,AUTO

  25903 28 005476   000024 236000 29                 LDQ     20
        28 005477   200024 756100                    STQ     APPEND_IND_OFF+1,,AUTO
        28 005500   200024 631500                    EPPR1   APPEND_IND_OFF+1,,AUTO
        28 005501   200031 451500                    STP1    APPEND_IND_OFF+6,,AUTO
        28 005502   000025 236000 29                 LDQ     21
        28 005503   200030 756100                    STQ     APPEND_IND_OFF+5,,AUTO
        28 005504   000032 237000 29                 LDAQ    26
        28 005505   200026 757100                    STAQ    APPEND_IND_OFF+3,,AUTO
        28 005506   200026 630500                    EPPR0   APPEND_IND_OFF+3,,AUTO
        28 005507   000022 631400 29                 EPPR1   18
        28 005510   000000 701000 xent               TSX1    Z8AN$NEW_ILL
        28 005511   000000 011000                    NOP     0

  25907 28 005512   000025 220003                    LDX0    21,DU
        28 005513   000000 470400 16                 LDP0    ILL$
        28 005514   000000 440100                    SXL0    0,,PR0

  25912 28 005515   000001 235007                    LDA     1,DL
        28 005516   000000 470400 16                 LDP0    ILL$
        28 005517   000003 755100                    STA     3,,PR0

  25914 28 005520   200017 236100                    LDQ     CGT_ST$,,AUTO
        28 005521   000001 756100                    STQ     1,,PR0

  25915 28 005522   200013 471500                    LDP1    CONST$$,,AUTO
        28 005523   100001 236100                    LDQ     1,,PR1
PL6.E3A0      #003=Z8DT$REPORT_WRAPUP File=Z8DT.:Z8A6TSI                         SAT 08/09/97 11:31 Page:698
        28 005524   000002 756100                    STQ     2,,PR0

     4035    26055
     4036    26056                   %MAKE_CONST_AND_ILL (@OFFSET_V = %FIRST_DETAIL_INT_OFF,
     4037    26057                        @CONSTANT = O1COM.CURRENT_REPORT_LTS$ -> REPORT_LTS.FIRST_DETAIL);

  26059 28 005525   000064 471400 xsym               LDP1    O1COM+52
        28 005526   100013 235100                    LDA     11,,PR1
        28 005527   000000 755000 20                 STA     MKCN

  26060 28 005530   200013 633500                    EPPR3   CONST$$,,AUTO
        28 005531   200024 453500                    STP3    APPEND_IND_OFF+1,,AUTO
        28 005532   200024 630500                    EPPR0   APPEND_IND_OFF+1,,AUTO
        28 005533   000005 631400 29                 EPPR1   5
        28 005534   000000 701000 xent               TSX1    Z8AC$MAKE_CONST
        28 005535   000000 011000                    NOP     0

  26061 28 005536   000064 470400 xsym               LDP0    O1COM+52
        28 005537   000022 236100                    LDQ     18,,PR0
        28 005540   200017 756100                    STQ     CGT_ST$,,AUTO

  26295 28 005541   000024 236000 29                 LDQ     20
        28 005542   200024 756100                    STQ     APPEND_IND_OFF+1,,AUTO
        28 005543   200024 631500                    EPPR1   APPEND_IND_OFF+1,,AUTO
        28 005544   200031 451500                    STP1    APPEND_IND_OFF+6,,AUTO
        28 005545   000025 236000 29                 LDQ     21
        28 005546   200030 756100                    STQ     APPEND_IND_OFF+5,,AUTO
        28 005547   000032 237000 29                 LDAQ    26
        28 005550   200026 757100                    STAQ    APPEND_IND_OFF+3,,AUTO
        28 005551   200026 630500                    EPPR0   APPEND_IND_OFF+3,,AUTO
        28 005552   000022 631400 29                 EPPR1   18
        28 005553   000000 701000 xent               TSX1    Z8AN$NEW_ILL
        28 005554   000000 011000                    NOP     0

  26299 28 005555   000023 220003                    LDX0    19,DU
        28 005556   000000 470400 16                 LDP0    ILL$
        28 005557   000000 440100                    SXL0    0,,PR0
PL6.E3A0      #003=Z8DT$REPORT_WRAPUP File=Z8DT.:Z8A6TSI                         SAT 08/09/97 11:31 Page:699

  26304 28 005560   000001 235007                    LDA     1,DL
        28 005561   000000 470400 16                 LDP0    ILL$
        28 005562   000003 755100                    STA     3,,PR0

  26306 28 005563   200017 236100                    LDQ     CGT_ST$,,AUTO
        28 005564   000001 756100                    STQ     1,,PR0

  26307 28 005565   200013 471500                    LDP1    CONST$$,,AUTO
        28 005566   100001 236100                    LDQ     1,,PR1
        28 005567   000002 756100                    STQ     2,,PR0

     4038    26447
     4039    26448                   %MAKE_CONST_AND_ILL (@OFFSET_V = %LAST_DETAIL_INT_OFF,
     4040    26449                        @CONSTANT = O1COM.CURRENT_REPORT_LTS$ -> REPORT_LTS.LAST_DETAIL);

  26451 28 005570   000064 471400 xsym               LDP1    O1COM+52
        28 005571   100014 235100                    LDA     12,,PR1
        28 005572   000000 755000 20                 STA     MKCN

  26452 28 005573   200013 633500                    EPPR3   CONST$$,,AUTO
        28 005574   200024 453500                    STP3    APPEND_IND_OFF+1,,AUTO
        28 005575   200024 630500                    EPPR0   APPEND_IND_OFF+1,,AUTO
        28 005576   000005 631400 29                 EPPR1   5
        28 005577   000000 701000 xent               TSX1    Z8AC$MAKE_CONST
        28 005600   000000 011000                    NOP     0

  26453 28 005601   000064 470400 xsym               LDP0    O1COM+52
        28 005602   000022 236100                    LDQ     18,,PR0
        28 005603   200017 756100                    STQ     CGT_ST$,,AUTO

  26687 28 005604   000024 236000 29                 LDQ     20
        28 005605   200024 756100                    STQ     APPEND_IND_OFF+1,,AUTO
        28 005606   200024 631500                    EPPR1   APPEND_IND_OFF+1,,AUTO
        28 005607   200031 451500                    STP1    APPEND_IND_OFF+6,,AUTO
        28 005610   000025 236000 29                 LDQ     21
        28 005611   200030 756100                    STQ     APPEND_IND_OFF+5,,AUTO
PL6.E3A0      #003=Z8DT$REPORT_WRAPUP File=Z8DT.:Z8A6TSI                         SAT 08/09/97 11:31 Page:700
        28 005612   000032 237000 29                 LDAQ    26
        28 005613   200026 757100                    STAQ    APPEND_IND_OFF+3,,AUTO
        28 005614   200026 630500                    EPPR0   APPEND_IND_OFF+3,,AUTO
        28 005615   000022 631400 29                 EPPR1   18
        28 005616   000000 701000 xent               TSX1    Z8AN$NEW_ILL
        28 005617   000000 011000                    NOP     0

  26691 28 005620   000024 220003                    LDX0    20,DU
        28 005621   000000 470400 16                 LDP0    ILL$
        28 005622   000000 440100                    SXL0    0,,PR0

  26696 28 005623   000001 235007                    LDA     1,DL
        28 005624   000000 470400 16                 LDP0    ILL$
        28 005625   000003 755100                    STA     3,,PR0

  26698 28 005626   200017 236100                    LDQ     CGT_ST$,,AUTO
        28 005627   000001 756100                    STQ     1,,PR0

  26699 28 005630   200013 471500                    LDP1    CONST$$,,AUTO
        28 005631   100001 236100                    LDQ     1,,PR1
        28 005632   000002 756100                    STQ     2,,PR0

     4041    26839
     4042    26840    3            END;

  26840 28 005633   006024 710000 28                 TRA     s:29046

     4043    26841    2          ELSE
     4044    26842    3            DO;

     4045    26843                   %INIT_ZERO_NIL_RWCT (@OFFSET_V = %PAGE_LIMIT_INT_OFF);

  27078 28 005634   000024 236000 29                 LDQ     20
        28 005635   200024 756100                    STQ     APPEND_IND_OFF+1,,AUTO
        28 005636   200024 633500                    EPPR3   APPEND_IND_OFF+1,,AUTO
        28 005637   200031 453500                    STP3    APPEND_IND_OFF+6,,AUTO
        28 005640   000025 236000 29                 LDQ     21
PL6.E3A0      #003=Z8DT$REPORT_WRAPUP File=Z8DT.:Z8A6TSI                         SAT 08/09/97 11:31 Page:701
        28 005641   200030 756100                    STQ     APPEND_IND_OFF+5,,AUTO
        28 005642   000032 237000 29                 LDAQ    26
        28 005643   200026 757100                    STAQ    APPEND_IND_OFF+3,,AUTO
        28 005644   200026 630500                    EPPR0   APPEND_IND_OFF+3,,AUTO
        28 005645   000022 631400 29                 EPPR1   18
        28 005646   000000 701000 xent               TSX1    Z8AN$NEW_ILL
        28 005647   000000 011000                    NOP     0

  27082 28 005650   000021 220003                    LDX0    17,DU
        28 005651   000000 470400 16                 LDP0    ILL$
        28 005652   000000 440100                    SXL0    0,,PR0

  27087 28 005653   000001 235007                    LDA     1,DL
        28 005654   000000 470400 16                 LDP0    ILL$
        28 005655   000003 755100                    STA     3,,PR0

  27089 28 005656   000064 471400 xsym               LDP1    O1COM+52
        28 005657   100022 236100                    LDQ     18,,PR1
        28 005660   000001 756100                    STQ     1,,PR0

  27090 28 005661   000124 471400 xsym               LDP1    COMCOM+84
        28 005662   100001 236100                    LDQ     1,,PR1
        28 005663   000002 756100                    STQ     2,,PR0

     4046    27230
     4047    27231                   %INIT_ZERO_NIL_RWCT (@OFFSET_V = %FIRST_DETAIL_INT_OFF);

  27466 28 005664   000024 236000 29                 LDQ     20
        28 005665   200024 756100                    STQ     APPEND_IND_OFF+1,,AUTO
        28 005666   200024 631500                    EPPR1   APPEND_IND_OFF+1,,AUTO
        28 005667   200031 451500                    STP1    APPEND_IND_OFF+6,,AUTO
        28 005670   000025 236000 29                 LDQ     21
        28 005671   200030 756100                    STQ     APPEND_IND_OFF+5,,AUTO
        28 005672   000032 237000 29                 LDAQ    26
        28 005673   200026 757100                    STAQ    APPEND_IND_OFF+3,,AUTO
        28 005674   200026 630500                    EPPR0   APPEND_IND_OFF+3,,AUTO
        28 005675   000022 631400 29                 EPPR1   18
PL6.E3A0      #003=Z8DT$REPORT_WRAPUP File=Z8DT.:Z8A6TSI                         SAT 08/09/97 11:31 Page:702
        28 005676   000000 701000 xent               TSX1    Z8AN$NEW_ILL
        28 005677   000000 011000                    NOP     0

  27470 28 005700   000023 220003                    LDX0    19,DU
        28 005701   000000 470400 16                 LDP0    ILL$
        28 005702   000000 440100                    SXL0    0,,PR0

  27475 28 005703   000001 235007                    LDA     1,DL
        28 005704   000000 470400 16                 LDP0    ILL$
        28 005705   000003 755100                    STA     3,,PR0

  27477 28 005706   000064 471400 xsym               LDP1    O1COM+52
        28 005707   100022 236100                    LDQ     18,,PR1
        28 005710   000001 756100                    STQ     1,,PR0

  27478 28 005711   000124 471400 xsym               LDP1    COMCOM+84
        28 005712   100001 236100                    LDQ     1,,PR1
        28 005713   000002 756100                    STQ     2,,PR0

     4048    27618
     4049    27619                   %INIT_ZERO_NIL_RWCT (@OFFSET_V = %LAST_DETAIL_INT_OFF);

  27854 28 005714   000024 236000 29                 LDQ     20
        28 005715   200024 756100                    STQ     APPEND_IND_OFF+1,,AUTO
        28 005716   200024 631500                    EPPR1   APPEND_IND_OFF+1,,AUTO
        28 005717   200031 451500                    STP1    APPEND_IND_OFF+6,,AUTO
        28 005720   000025 236000 29                 LDQ     21
        28 005721   200030 756100                    STQ     APPEND_IND_OFF+5,,AUTO
        28 005722   000032 237000 29                 LDAQ    26
        28 005723   200026 757100                    STAQ    APPEND_IND_OFF+3,,AUTO
        28 005724   200026 630500                    EPPR0   APPEND_IND_OFF+3,,AUTO
        28 005725   000022 631400 29                 EPPR1   18
        28 005726   000000 701000 xent               TSX1    Z8AN$NEW_ILL
        28 005727   000000 011000                    NOP     0

  27858 28 005730   000024 220003                    LDX0    20,DU
        28 005731   000000 470400 16                 LDP0    ILL$
PL6.E3A0      #003=Z8DT$REPORT_WRAPUP File=Z8DT.:Z8A6TSI                         SAT 08/09/97 11:31 Page:703
        28 005732   000000 440100                    SXL0    0,,PR0

  27863 28 005733   000001 235007                    LDA     1,DL
        28 005734   000000 470400 16                 LDP0    ILL$
        28 005735   000003 755100                    STA     3,,PR0

  27865 28 005736   000064 471400 xsym               LDP1    O1COM+52
        28 005737   100022 236100                    LDQ     18,,PR1
        28 005740   000001 756100                    STQ     1,,PR0

  27866 28 005741   000124 471400 xsym               LDP1    COMCOM+84
        28 005742   100001 236100                    LDQ     1,,PR1
        28 005743   000002 756100                    STQ     2,,PR0

     4050    28006
     4051    28007                   %INIT_ZERO_NIL_RWCT (@OFFSET_V = %HEADING_INT_OFF);

  28242 28 005744   000024 236000 29                 LDQ     20
        28 005745   200024 756100                    STQ     APPEND_IND_OFF+1,,AUTO
        28 005746   200024 631500                    EPPR1   APPEND_IND_OFF+1,,AUTO
        28 005747   200031 451500                    STP1    APPEND_IND_OFF+6,,AUTO
        28 005750   000025 236000 29                 LDQ     21
        28 005751   200030 756100                    STQ     APPEND_IND_OFF+5,,AUTO
        28 005752   000032 237000 29                 LDAQ    26
        28 005753   200026 757100                    STAQ    APPEND_IND_OFF+3,,AUTO
        28 005754   200026 630500                    EPPR0   APPEND_IND_OFF+3,,AUTO
        28 005755   000022 631400 29                 EPPR1   18
        28 005756   000000 701000 xent               TSX1    Z8AN$NEW_ILL
        28 005757   000000 011000                    NOP     0

  28246 28 005760   000022 220003                    LDX0    18,DU
        28 005761   000000 470400 16                 LDP0    ILL$
        28 005762   000000 440100                    SXL0    0,,PR0

  28251 28 005763   000001 235007                    LDA     1,DL
        28 005764   000000 470400 16                 LDP0    ILL$
        28 005765   000003 755100                    STA     3,,PR0
PL6.E3A0      #003=Z8DT$REPORT_WRAPUP File=Z8DT.:Z8A6TSI                         SAT 08/09/97 11:31 Page:704

  28253 28 005766   000064 471400 xsym               LDP1    O1COM+52
        28 005767   100022 236100                    LDQ     18,,PR1
        28 005770   000001 756100                    STQ     1,,PR0

  28254 28 005771   000124 471400 xsym               LDP1    COMCOM+84
        28 005772   100001 236100                    LDQ     1,,PR1
        28 005773   000002 756100                    STQ     2,,PR0

     4052    28394
     4053    28395                   %INIT_ZERO_NIL_RWCT (@OFFSET_V = %FOOTING_INT_OFF);

  28630 28 005774   000024 236000 29                 LDQ     20
        28 005775   200024 756100                    STQ     APPEND_IND_OFF+1,,AUTO
        28 005776   200024 631500                    EPPR1   APPEND_IND_OFF+1,,AUTO
        28 005777   200031 451500                    STP1    APPEND_IND_OFF+6,,AUTO
        28 006000   000025 236000 29                 LDQ     21
        28 006001   200030 756100                    STQ     APPEND_IND_OFF+5,,AUTO
        28 006002   000032 237000 29                 LDAQ    26
        28 006003   200026 757100                    STAQ    APPEND_IND_OFF+3,,AUTO
        28 006004   200026 630500                    EPPR0   APPEND_IND_OFF+3,,AUTO
        28 006005   000022 631400 29                 EPPR1   18
        28 006006   000000 701000 xent               TSX1    Z8AN$NEW_ILL
        28 006007   000000 011000                    NOP     0

  28634 28 006010   000025 220003                    LDX0    21,DU
        28 006011   000000 470400 16                 LDP0    ILL$
        28 006012   000000 440100                    SXL0    0,,PR0

  28639 28 006013   000001 235007                    LDA     1,DL
        28 006014   000000 470400 16                 LDP0    ILL$
        28 006015   000003 755100                    STA     3,,PR0

  28641 28 006016   000064 471400 xsym               LDP1    O1COM+52
        28 006017   100022 236100                    LDQ     18,,PR1
        28 006020   000001 756100                    STQ     1,,PR0

PL6.E3A0      #003=Z8DT$REPORT_WRAPUP File=Z8DT.:Z8A6TSI                         SAT 08/09/97 11:31 Page:705
  28642 28 006021   000124 471400 xsym               LDP1    COMCOM+84
        28 006022   100001 236100                    LDQ     1,,PR1
        28 006023   000002 756100                    STQ     2,,PR0

     4054    28782
     4055    28783    3            END;

     4056    28784
     4057    28785               %NEW_ILL (@ID     = %P_A_PRESET,
     4058    28786                         @OFFSET = %AFTER_ADVANCE_ADDR_OFF,
     4059    28787                         @TO     = O1COM.CURRENT_REPORT_LTS$ -> REPORT_LTS.RWCT$,
     4060    28788                         @LOP    = O1COM.CURRENT_REPORT_LTS$ -> REPORT_LTS.AFTER_ADVANCE$,
     4061    28789                         @ROPCON = %ROPCON_0);

  29046 28 006024   000024 236000 29                 LDQ     20
        28 006025   200024 756100                    STQ     APPEND_IND_OFF+1,,AUTO
        28 006026   200024 631500                    EPPR1   APPEND_IND_OFF+1,,AUTO
        28 006027   200031 451500                    STP1    APPEND_IND_OFF+6,,AUTO
        28 006030   000025 236000 29                 LDQ     21
        28 006031   200030 756100                    STQ     APPEND_IND_OFF+5,,AUTO
        28 006032   000026 237000 29                 LDAQ    22
        28 006033   200026 757100                    STAQ    APPEND_IND_OFF+3,,AUTO
        28 006034   200026 630500                    EPPR0   APPEND_IND_OFF+3,,AUTO
        28 006035   000022 631400 29                 EPPR1   18
        28 006036   000000 701000 xent               TSX1    Z8AN$NEW_ILL
        28 006037   000000 011000                    NOP     0

  29050 28 006040   000026 220003                    LDX0    22,DU
        28 006041   000000 470400 16                 LDP0    ILL$
        28 006042   000000 440100                    SXL0    0,,PR0

  29052 28 006043   000000 470400 16                 LDP0    ILL$
        28 006044   000002 450100                    STZ     2,,PR0

  29053 28 006045   000064 471400 xsym               LDP1    O1COM+52
        28 006046   100040 236100                    LDQ     32,,PR1
        28 006047   000001 756100                    STQ     1,,PR0
PL6.E3A0      #003=Z8DT$REPORT_WRAPUP File=Z8DT.:Z8A6TSI                         SAT 08/09/97 11:31 Page:706

  29054 28 006050   000064 471400 xsym               LDP1    O1COM+52
        28 006051   100022 236100                    LDQ     18,,PR1
        28 006052   000003 756100                    STQ     3,,PR0

     4062    29168
     4063    29169               %MAKE_CONST_AND_ILL (@OFFSET_V = %NO_OF_CTR_ITEM_OFF,
     4064    29170                   @CONSTANT = O1COM.CURRENT_REPORT_LTS$ -> REPORT_LTS.NO_CTR_ITEM);

  29172 28 006053   000064 471400 xsym               LDP1    O1COM+52
        28 006054   100037 235100                    LDA     31,,PR1
        28 006055   000000 755000 20                 STA     MKCN

  29173 28 006056   200013 633500                    EPPR3   CONST$$,,AUTO
        28 006057   200024 453500                    STP3    APPEND_IND_OFF+1,,AUTO
        28 006060   200024 630500                    EPPR0   APPEND_IND_OFF+1,,AUTO
        28 006061   000005 631400 29                 EPPR1   5
        28 006062   000000 701000 xent               TSX1    Z8AC$MAKE_CONST
        28 006063   000000 011000                    NOP     0

  29174 28 006064   000064 470400 xsym               LDP0    O1COM+52
        28 006065   000022 236100                    LDQ     18,,PR0
        28 006066   200017 756100                    STQ     CGT_ST$,,AUTO

  29408 28 006067   000024 236000 29                 LDQ     20
        28 006070   200024 756100                    STQ     APPEND_IND_OFF+1,,AUTO
        28 006071   200024 631500                    EPPR1   APPEND_IND_OFF+1,,AUTO
        28 006072   200031 451500                    STP1    APPEND_IND_OFF+6,,AUTO
        28 006073   000025 236000 29                 LDQ     21
        28 006074   200030 756100                    STQ     APPEND_IND_OFF+5,,AUTO
        28 006075   000032 237000 29                 LDAQ    26
        28 006076   200026 757100                    STAQ    APPEND_IND_OFF+3,,AUTO
        28 006077   200026 630500                    EPPR0   APPEND_IND_OFF+3,,AUTO
        28 006100   000022 631400 29                 EPPR1   18
        28 006101   000000 701000 xent               TSX1    Z8AN$NEW_ILL
        28 006102   000000 011000                    NOP     0

PL6.E3A0      #003=Z8DT$REPORT_WRAPUP File=Z8DT.:Z8A6TSI                         SAT 08/09/97 11:31 Page:707
  29412 28 006103   000027 220003                    LDX0    23,DU
        28 006104   000000 470400 16                 LDP0    ILL$
        28 006105   000000 440100                    SXL0    0,,PR0

  29417 28 006106   000001 235007                    LDA     1,DL
        28 006107   000000 470400 16                 LDP0    ILL$
        28 006110   000003 755100                    STA     3,,PR0

  29419 28 006111   200017 236100                    LDQ     CGT_ST$,,AUTO
        28 006112   000001 756100                    STQ     1,,PR0

  29420 28 006113   200013 471500                    LDP1    CONST$$,,AUTO
        28 006114   100001 236100                    LDQ     1,,PR1
        28 006115   000002 756100                    STQ     2,,PR0

     4065    29560
     4066    29561           /*
     4067    29562              Preset the fields of the REPORT HEADING, REPORT FOOTING
     4068    29563              PAGE HEADING, PAGE FOOTING, DETAIL groups, CONTROL groups...
     4069    29564           */
     4070    29565
     4071    29566               %FILL_CGT_TBL (@POINTER =
             29566                   O1COM.CURRENT_REPORT_LTS$ -> REPORT_LTS.REPORT_HEADING$);

  29568 28 006116   000064 471400 xsym               LDP1    O1COM+52
        28 006117   100023 236100                    LDQ     19,,PR1
        28 006120   000004 116000 29                 CMPQ    4
        28 006121   006403 600000 28                 TZE     s:31543

  29570 28 006122   200020 756100                    STQ     PTR$$,,AUTO

  29574 28 006123   200021 756100                    STQ     P$$,,AUTO

  29579 28 006124   200021 473500                    LDP3    P$$,,AUTO
        28 006125   300017 235100                    LDA     15,,PR3
        28 006126   000000 755000 20                 STA     MKCN

PL6.E3A0      #003=Z8DT$REPORT_WRAPUP File=Z8DT.:Z8A6TSI                         SAT 08/09/97 11:31 Page:708
  29580 28 006127   200013 634500                    EPPR4   CONST$$,,AUTO
        28 006130   200024 454500                    STP4    APPEND_IND_OFF+1,,AUTO
        28 006131   200024 630500                    EPPR0   APPEND_IND_OFF+1,,AUTO
        28 006132   000005 631400 29                 EPPR1   5
        28 006133   000000 701000 xent               TSX1    Z8AC$MAKE_CONST
        28 006134   000000 011000                    NOP     0

  29581 28 006135   200020 470500                    LDP0    PTR$$,,AUTO
        28 006136   000022 236100                    LDQ     18,,PR0
        28 006137   200017 756100                    STQ     CGT_ST$,,AUTO

  29815 28 006140   000024 236000 29                 LDQ     20
        28 006141   200024 756100                    STQ     APPEND_IND_OFF+1,,AUTO
        28 006142   200024 631500                    EPPR1   APPEND_IND_OFF+1,,AUTO
        28 006143   200031 451500                    STP1    APPEND_IND_OFF+6,,AUTO
        28 006144   000025 236000 29                 LDQ     21
        28 006145   200030 756100                    STQ     APPEND_IND_OFF+5,,AUTO
        28 006146   000032 237000 29                 LDAQ    26
        28 006147   200026 757100                    STAQ    APPEND_IND_OFF+3,,AUTO
        28 006150   200026 630500                    EPPR0   APPEND_IND_OFF+3,,AUTO
        28 006151   000022 631400 29                 EPPR1   18
        28 006152   000000 701000 xent               TSX1    Z8AN$NEW_ILL
        28 006153   000000 011000                    NOP     0

  29819 28 006154   000003 220003                    LDX0    3,DU
        28 006155   000000 470400 16                 LDP0    ILL$
        28 006156   000000 440100                    SXL0    0,,PR0

  29824 28 006157   000001 235007                    LDA     1,DL
        28 006160   000000 470400 16                 LDP0    ILL$
        28 006161   000003 755100                    STA     3,,PR0

  29826 28 006162   200017 236100                    LDQ     CGT_ST$,,AUTO
        28 006163   000001 756100                    STQ     1,,PR0

  29827 28 006164   200013 471500                    LDP1    CONST$$,,AUTO
        28 006165   100001 236100                    LDQ     1,,PR1
PL6.E3A0      #003=Z8DT$REPORT_WRAPUP File=Z8DT.:Z8A6TSI                         SAT 08/09/97 11:31 Page:709
        28 006166   000002 756100                    STQ     2,,PR0

  29971 28 006167   200021 471500                    LDP1    P$$,,AUTO
        28 006170   100020 235100                    LDA     16,,PR1
        28 006171   000000 755000 20                 STA     MKCN

  29972 28 006172   200013 633500                    EPPR3   CONST$$,,AUTO
        28 006173   200024 453500                    STP3    APPEND_IND_OFF+1,,AUTO
        28 006174   200024 630500                    EPPR0   APPEND_IND_OFF+1,,AUTO
        28 006175   000005 631400 29                 EPPR1   5
        28 006176   000000 701000 xent               TSX1    Z8AC$MAKE_CONST
        28 006177   000000 011000                    NOP     0

  29973 28 006200   200020 470500                    LDP0    PTR$$,,AUTO
        28 006201   000022 236100                    LDQ     18,,PR0
        28 006202   200017 756100                    STQ     CGT_ST$,,AUTO

  30207 28 006203   000024 236000 29                 LDQ     20
        28 006204   200024 756100                    STQ     APPEND_IND_OFF+1,,AUTO
        28 006205   200024 631500                    EPPR1   APPEND_IND_OFF+1,,AUTO
        28 006206   200031 451500                    STP1    APPEND_IND_OFF+6,,AUTO
        28 006207   000025 236000 29                 LDQ     21
        28 006210   200030 756100                    STQ     APPEND_IND_OFF+5,,AUTO
        28 006211   000032 237000 29                 LDAQ    26
        28 006212   200026 757100                    STAQ    APPEND_IND_OFF+3,,AUTO
        28 006213   200026 630500                    EPPR0   APPEND_IND_OFF+3,,AUTO
        28 006214   000022 631400 29                 EPPR1   18
        28 006215   000000 701000 xent               TSX1    Z8AN$NEW_ILL
        28 006216   000000 011000                    NOP     0

  30211 28 006217   000004 220003                    LDX0    4,DU
        28 006220   000000 470400 16                 LDP0    ILL$
        28 006221   000000 440100                    SXL0    0,,PR0

  30216 28 006222   000001 235007                    LDA     1,DL
        28 006223   000000 470400 16                 LDP0    ILL$
        28 006224   000003 755100                    STA     3,,PR0
PL6.E3A0      #003=Z8DT$REPORT_WRAPUP File=Z8DT.:Z8A6TSI                         SAT 08/09/97 11:31 Page:710

  30218 28 006225   200017 236100                    LDQ     CGT_ST$,,AUTO
        28 006226   000001 756100                    STQ     1,,PR0

  30219 28 006227   200013 471500                    LDP1    CONST$$,,AUTO
        28 006230   100001 236100                    LDQ     1,,PR1
        28 006231   000002 756100                    STQ     2,,PR0

  30363 28 006232   200021 471500                    LDP1    P$$,,AUTO
        28 006233   100013 235100                    LDA     11,,PR1
        28 006234   000000 755000 20                 STA     MKCN

  30364 28 006235   200013 633500                    EPPR3   CONST$$,,AUTO
        28 006236   200024 453500                    STP3    APPEND_IND_OFF+1,,AUTO
        28 006237   200024 630500                    EPPR0   APPEND_IND_OFF+1,,AUTO
        28 006240   000005 631400 29                 EPPR1   5
        28 006241   000000 701000 xent               TSX1    Z8AC$MAKE_CONST
        28 006242   000000 011000                    NOP     0

  30365 28 006243   200020 470500                    LDP0    PTR$$,,AUTO
        28 006244   000022 236100                    LDQ     18,,PR0
        28 006245   200017 756100                    STQ     CGT_ST$,,AUTO

  30599 28 006246   000024 236000 29                 LDQ     20
        28 006247   200024 756100                    STQ     APPEND_IND_OFF+1,,AUTO
        28 006250   200024 631500                    EPPR1   APPEND_IND_OFF+1,,AUTO
        28 006251   200031 451500                    STP1    APPEND_IND_OFF+6,,AUTO
        28 006252   000025 236000 29                 LDQ     21
        28 006253   200030 756100                    STQ     APPEND_IND_OFF+5,,AUTO
        28 006254   000032 237000 29                 LDAQ    26
        28 006255   200026 757100                    STAQ    APPEND_IND_OFF+3,,AUTO
        28 006256   200026 630500                    EPPR0   APPEND_IND_OFF+3,,AUTO
        28 006257   000022 631400 29                 EPPR1   18
        28 006260   000000 701000 xent               TSX1    Z8AN$NEW_ILL
        28 006261   000000 011000                    NOP     0

  30603 28 006262   000005 220003                    LDX0    5,DU
PL6.E3A0      #003=Z8DT$REPORT_WRAPUP File=Z8DT.:Z8A6TSI                         SAT 08/09/97 11:31 Page:711
        28 006263   000000 470400 16                 LDP0    ILL$
        28 006264   000000 440100                    SXL0    0,,PR0

  30608 28 006265   000001 235007                    LDA     1,DL
        28 006266   000000 470400 16                 LDP0    ILL$
        28 006267   000003 755100                    STA     3,,PR0

  30610 28 006270   200017 236100                    LDQ     CGT_ST$,,AUTO
        28 006271   000001 756100                    STQ     1,,PR0

  30611 28 006272   200013 471500                    LDP1    CONST$$,,AUTO
        28 006273   100001 236100                    LDQ     1,,PR1
        28 006274   000002 756100                    STQ     2,,PR0

  30755 28 006275   200021 471500                    LDP1    P$$,,AUTO
        28 006276   100011 235100                    LDA     9,,PR1
        28 006277   000000 755000 20                 STA     MKCN

  30756 28 006300   200013 633500                    EPPR3   CONST$$,,AUTO
        28 006301   200024 453500                    STP3    APPEND_IND_OFF+1,,AUTO
        28 006302   200024 630500                    EPPR0   APPEND_IND_OFF+1,,AUTO
        28 006303   000005 631400 29                 EPPR1   5
        28 006304   000000 701000 xent               TSX1    Z8AC$MAKE_CONST
        28 006305   000000 011000                    NOP     0

  30757 28 006306   200020 470500                    LDP0    PTR$$,,AUTO
        28 006307   000022 236100                    LDQ     18,,PR0
        28 006310   200017 756100                    STQ     CGT_ST$,,AUTO

  30991 28 006311   000024 236000 29                 LDQ     20
        28 006312   200024 756100                    STQ     APPEND_IND_OFF+1,,AUTO
        28 006313   200024 631500                    EPPR1   APPEND_IND_OFF+1,,AUTO
        28 006314   200031 451500                    STP1    APPEND_IND_OFF+6,,AUTO
        28 006315   000025 236000 29                 LDQ     21
        28 006316   200030 756100                    STQ     APPEND_IND_OFF+5,,AUTO
        28 006317   000032 237000 29                 LDAQ    26
        28 006320   200026 757100                    STAQ    APPEND_IND_OFF+3,,AUTO
PL6.E3A0      #003=Z8DT$REPORT_WRAPUP File=Z8DT.:Z8A6TSI                         SAT 08/09/97 11:31 Page:712
        28 006321   200026 630500                    EPPR0   APPEND_IND_OFF+3,,AUTO
        28 006322   000022 631400 29                 EPPR1   18
        28 006323   000000 701000 xent               TSX1    Z8AN$NEW_ILL
        28 006324   000000 011000                    NOP     0

  30995 28 006325   000006 220003                    LDX0    6,DU
        28 006326   000000 470400 16                 LDP0    ILL$
        28 006327   000000 440100                    SXL0    0,,PR0

  31000 28 006330   000001 235007                    LDA     1,DL
        28 006331   000000 470400 16                 LDP0    ILL$
        28 006332   000003 755100                    STA     3,,PR0

  31002 28 006333   200017 236100                    LDQ     CGT_ST$,,AUTO
        28 006334   000001 756100                    STQ     1,,PR0

  31003 28 006335   200013 471500                    LDP1    CONST$$,,AUTO
        28 006336   100001 236100                    LDQ     1,,PR1
        28 006337   000002 756100                    STQ     2,,PR0

  31147 28 006340   200021 471500                    LDP1    P$$,,AUTO
        28 006341   100012 235100                    LDA     10,,PR1
        28 006342   000000 755000 20                 STA     MKCN

  31148 28 006343   200013 633500                    EPPR3   CONST$$,,AUTO
        28 006344   200024 453500                    STP3    APPEND_IND_OFF+1,,AUTO
        28 006345   200024 630500                    EPPR0   APPEND_IND_OFF+1,,AUTO
        28 006346   000005 631400 29                 EPPR1   5
        28 006347   000000 701000 xent               TSX1    Z8AC$MAKE_CONST
        28 006350   000000 011000                    NOP     0

  31149 28 006351   200020 470500                    LDP0    PTR$$,,AUTO
        28 006352   000022 236100                    LDQ     18,,PR0
        28 006353   200017 756100                    STQ     CGT_ST$,,AUTO

  31383 28 006354   000024 236000 29                 LDQ     20
        28 006355   200024 756100                    STQ     APPEND_IND_OFF+1,,AUTO
PL6.E3A0      #003=Z8DT$REPORT_WRAPUP File=Z8DT.:Z8A6TSI                         SAT 08/09/97 11:31 Page:713
        28 006356   200024 631500                    EPPR1   APPEND_IND_OFF+1,,AUTO
        28 006357   200031 451500                    STP1    APPEND_IND_OFF+6,,AUTO
        28 006360   000025 236000 29                 LDQ     21
        28 006361   200030 756100                    STQ     APPEND_IND_OFF+5,,AUTO
        28 006362   000032 237000 29                 LDAQ    26
        28 006363   200026 757100                    STAQ    APPEND_IND_OFF+3,,AUTO
        28 006364   200026 630500                    EPPR0   APPEND_IND_OFF+3,,AUTO
        28 006365   000022 631400 29                 EPPR1   18
        28 006366   000000 701000 xent               TSX1    Z8AN$NEW_ILL
        28 006367   000000 011000                    NOP     0

  31387 28 006370   000007 220003                    LDX0    7,DU
        28 006371   000000 470400 16                 LDP0    ILL$
        28 006372   000000 440100                    SXL0    0,,PR0

  31392 28 006373   000001 235007                    LDA     1,DL
        28 006374   000000 470400 16                 LDP0    ILL$
        28 006375   000003 755100                    STA     3,,PR0

  31394 28 006376   200017 236100                    LDQ     CGT_ST$,,AUTO
        28 006377   000001 756100                    STQ     1,,PR0

  31395 28 006400   200013 471500                    LDP1    CONST$$,,AUTO
        28 006401   100001 236100                    LDQ     1,,PR1
        28 006402   000002 756100                    STQ     2,,PR0

     4072    31540
     4073    31541               %FILL_CGT_TBL (@POINTER =
             31541                   O1COM.CURRENT_REPORT_LTS$ -> REPORT_LTS.REPORT_FOOTING$);

  31543 28 006403   000064 471400 xsym               LDP1    O1COM+52
        28 006404   100033 236100                    LDQ     27,,PR1
        28 006405   000004 116000 29                 CMPQ    4
        28 006406   006670 600000 28                 TZE     s:33518

  31545 28 006407   200020 756100                    STQ     PTR$$,,AUTO

PL6.E3A0      #003=Z8DT$REPORT_WRAPUP File=Z8DT.:Z8A6TSI                         SAT 08/09/97 11:31 Page:714
  31549 28 006410   200021 756100                    STQ     P$$,,AUTO

  31554 28 006411   200021 473500                    LDP3    P$$,,AUTO
        28 006412   300017 235100                    LDA     15,,PR3
        28 006413   000000 755000 20                 STA     MKCN

  31555 28 006414   200013 634500                    EPPR4   CONST$$,,AUTO
        28 006415   200024 454500                    STP4    APPEND_IND_OFF+1,,AUTO
        28 006416   200024 630500                    EPPR0   APPEND_IND_OFF+1,,AUTO
        28 006417   000005 631400 29                 EPPR1   5
        28 006420   000000 701000 xent               TSX1    Z8AC$MAKE_CONST
        28 006421   000000 011000                    NOP     0

  31556 28 006422   200020 470500                    LDP0    PTR$$,,AUTO
        28 006423   000022 236100                    LDQ     18,,PR0
        28 006424   200017 756100                    STQ     CGT_ST$,,AUTO

  31790 28 006425   000024 236000 29                 LDQ     20
        28 006426   200024 756100                    STQ     APPEND_IND_OFF+1,,AUTO
        28 006427   200024 631500                    EPPR1   APPEND_IND_OFF+1,,AUTO
        28 006430   200031 451500                    STP1    APPEND_IND_OFF+6,,AUTO
        28 006431   000025 236000 29                 LDQ     21
        28 006432   200030 756100                    STQ     APPEND_IND_OFF+5,,AUTO
        28 006433   000032 237000 29                 LDAQ    26
        28 006434   200026 757100                    STAQ    APPEND_IND_OFF+3,,AUTO
        28 006435   200026 630500                    EPPR0   APPEND_IND_OFF+3,,AUTO
        28 006436   000022 631400 29                 EPPR1   18
        28 006437   000000 701000 xent               TSX1    Z8AN$NEW_ILL
        28 006440   000000 011000                    NOP     0

  31794 28 006441   000003 220003                    LDX0    3,DU
        28 006442   000000 470400 16                 LDP0    ILL$
        28 006443   000000 440100                    SXL0    0,,PR0

  31799 28 006444   000001 235007                    LDA     1,DL
        28 006445   000000 470400 16                 LDP0    ILL$
        28 006446   000003 755100                    STA     3,,PR0
PL6.E3A0      #003=Z8DT$REPORT_WRAPUP File=Z8DT.:Z8A6TSI                         SAT 08/09/97 11:31 Page:715

  31801 28 006447   200017 236100                    LDQ     CGT_ST$,,AUTO
        28 006450   000001 756100                    STQ     1,,PR0

  31802 28 006451   200013 471500                    LDP1    CONST$$,,AUTO
        28 006452   100001 236100                    LDQ     1,,PR1
        28 006453   000002 756100                    STQ     2,,PR0

  31946 28 006454   200021 471500                    LDP1    P$$,,AUTO
        28 006455   100020 235100                    LDA     16,,PR1
        28 006456   000000 755000 20                 STA     MKCN

  31947 28 006457   200013 633500                    EPPR3   CONST$$,,AUTO
        28 006460   200024 453500                    STP3    APPEND_IND_OFF+1,,AUTO
        28 006461   200024 630500                    EPPR0   APPEND_IND_OFF+1,,AUTO
        28 006462   000005 631400 29                 EPPR1   5
        28 006463   000000 701000 xent               TSX1    Z8AC$MAKE_CONST
        28 006464   000000 011000                    NOP     0

  31948 28 006465   200020 470500                    LDP0    PTR$$,,AUTO
        28 006466   000022 236100                    LDQ     18,,PR0
        28 006467   200017 756100                    STQ     CGT_ST$,,AUTO

  32182 28 006470   000024 236000 29                 LDQ     20
        28 006471   200024 756100                    STQ     APPEND_IND_OFF+1,,AUTO
        28 006472   200024 631500                    EPPR1   APPEND_IND_OFF+1,,AUTO
        28 006473   200031 451500                    STP1    APPEND_IND_OFF+6,,AUTO
        28 006474   000025 236000 29                 LDQ     21
        28 006475   200030 756100                    STQ     APPEND_IND_OFF+5,,AUTO
        28 006476   000032 237000 29                 LDAQ    26
        28 006477   200026 757100                    STAQ    APPEND_IND_OFF+3,,AUTO
        28 006500   200026 630500                    EPPR0   APPEND_IND_OFF+3,,AUTO
        28 006501   000022 631400 29                 EPPR1   18
        28 006502   000000 701000 xent               TSX1    Z8AN$NEW_ILL
        28 006503   000000 011000                    NOP     0

  32186 28 006504   000004 220003                    LDX0    4,DU
PL6.E3A0      #003=Z8DT$REPORT_WRAPUP File=Z8DT.:Z8A6TSI                         SAT 08/09/97 11:31 Page:716
        28 006505   000000 470400 16                 LDP0    ILL$
        28 006506   000000 440100                    SXL0    0,,PR0

  32191 28 006507   000001 235007                    LDA     1,DL
        28 006510   000000 470400 16                 LDP0    ILL$
        28 006511   000003 755100                    STA     3,,PR0

  32193 28 006512   200017 236100                    LDQ     CGT_ST$,,AUTO
        28 006513   000001 756100                    STQ     1,,PR0

  32194 28 006514   200013 471500                    LDP1    CONST$$,,AUTO
        28 006515   100001 236100                    LDQ     1,,PR1
        28 006516   000002 756100                    STQ     2,,PR0

  32338 28 006517   200021 471500                    LDP1    P$$,,AUTO
        28 006520   100013 235100                    LDA     11,,PR1
        28 006521   000000 755000 20                 STA     MKCN

  32339 28 006522   200013 633500                    EPPR3   CONST$$,,AUTO
        28 006523   200024 453500                    STP3    APPEND_IND_OFF+1,,AUTO
        28 006524   200024 630500                    EPPR0   APPEND_IND_OFF+1,,AUTO
        28 006525   000005 631400 29                 EPPR1   5
        28 006526   000000 701000 xent               TSX1    Z8AC$MAKE_CONST
        28 006527   000000 011000                    NOP     0

  32340 28 006530   200020 470500                    LDP0    PTR$$,,AUTO
        28 006531   000022 236100                    LDQ     18,,PR0
        28 006532   200017 756100                    STQ     CGT_ST$,,AUTO

  32574 28 006533   000024 236000 29                 LDQ     20
        28 006534   200024 756100                    STQ     APPEND_IND_OFF+1,,AUTO
        28 006535   200024 631500                    EPPR1   APPEND_IND_OFF+1,,AUTO
        28 006536   200031 451500                    STP1    APPEND_IND_OFF+6,,AUTO
        28 006537   000025 236000 29                 LDQ     21
        28 006540   200030 756100                    STQ     APPEND_IND_OFF+5,,AUTO
        28 006541   000032 237000 29                 LDAQ    26
        28 006542   200026 757100                    STAQ    APPEND_IND_OFF+3,,AUTO
PL6.E3A0      #003=Z8DT$REPORT_WRAPUP File=Z8DT.:Z8A6TSI                         SAT 08/09/97 11:31 Page:717
        28 006543   200026 630500                    EPPR0   APPEND_IND_OFF+3,,AUTO
        28 006544   000022 631400 29                 EPPR1   18
        28 006545   000000 701000 xent               TSX1    Z8AN$NEW_ILL
        28 006546   000000 011000                    NOP     0

  32578 28 006547   000005 220003                    LDX0    5,DU
        28 006550   000000 470400 16                 LDP0    ILL$
        28 006551   000000 440100                    SXL0    0,,PR0

  32583 28 006552   000001 235007                    LDA     1,DL
        28 006553   000000 470400 16                 LDP0    ILL$
        28 006554   000003 755100                    STA     3,,PR0

  32585 28 006555   200017 236100                    LDQ     CGT_ST$,,AUTO
        28 006556   000001 756100                    STQ     1,,PR0

  32586 28 006557   200013 471500                    LDP1    CONST$$,,AUTO
        28 006560   100001 236100                    LDQ     1,,PR1
        28 006561   000002 756100                    STQ     2,,PR0

  32730 28 006562   200021 471500                    LDP1    P$$,,AUTO
        28 006563   100011 235100                    LDA     9,,PR1
        28 006564   000000 755000 20                 STA     MKCN

  32731 28 006565   200013 633500                    EPPR3   CONST$$,,AUTO
        28 006566   200024 453500                    STP3    APPEND_IND_OFF+1,,AUTO
        28 006567   200024 630500                    EPPR0   APPEND_IND_OFF+1,,AUTO
        28 006570   000005 631400 29                 EPPR1   5
        28 006571   000000 701000 xent               TSX1    Z8AC$MAKE_CONST
        28 006572   000000 011000                    NOP     0

  32732 28 006573   200020 470500                    LDP0    PTR$$,,AUTO
        28 006574   000022 236100                    LDQ     18,,PR0
        28 006575   200017 756100                    STQ     CGT_ST$,,AUTO

  32966 28 006576   000024 236000 29                 LDQ     20
        28 006577   200024 756100                    STQ     APPEND_IND_OFF+1,,AUTO
PL6.E3A0      #003=Z8DT$REPORT_WRAPUP File=Z8DT.:Z8A6TSI                         SAT 08/09/97 11:31 Page:718
        28 006600   200024 631500                    EPPR1   APPEND_IND_OFF+1,,AUTO
        28 006601   200031 451500                    STP1    APPEND_IND_OFF+6,,AUTO
        28 006602   000025 236000 29                 LDQ     21
        28 006603   200030 756100                    STQ     APPEND_IND_OFF+5,,AUTO
        28 006604   000032 237000 29                 LDAQ    26
        28 006605   200026 757100                    STAQ    APPEND_IND_OFF+3,,AUTO
        28 006606   200026 630500                    EPPR0   APPEND_IND_OFF+3,,AUTO
        28 006607   000022 631400 29                 EPPR1   18
        28 006610   000000 701000 xent               TSX1    Z8AN$NEW_ILL
        28 006611   000000 011000                    NOP     0

  32970 28 006612   000006 220003                    LDX0    6,DU
        28 006613   000000 470400 16                 LDP0    ILL$
        28 006614   000000 440100                    SXL0    0,,PR0

  32975 28 006615   000001 235007                    LDA     1,DL
        28 006616   000000 470400 16                 LDP0    ILL$
        28 006617   000003 755100                    STA     3,,PR0

  32977 28 006620   200017 236100                    LDQ     CGT_ST$,,AUTO
        28 006621   000001 756100                    STQ     1,,PR0

  32978 28 006622   200013 471500                    LDP1    CONST$$,,AUTO
        28 006623   100001 236100                    LDQ     1,,PR1
        28 006624   000002 756100                    STQ     2,,PR0

  33122 28 006625   200021 471500                    LDP1    P$$,,AUTO
        28 006626   100012 235100                    LDA     10,,PR1
        28 006627   000000 755000 20                 STA     MKCN

  33123 28 006630   200013 633500                    EPPR3   CONST$$,,AUTO
        28 006631   200024 453500                    STP3    APPEND_IND_OFF+1,,AUTO
        28 006632   200024 630500                    EPPR0   APPEND_IND_OFF+1,,AUTO
        28 006633   000005 631400 29                 EPPR1   5
        28 006634   000000 701000 xent               TSX1    Z8AC$MAKE_CONST
        28 006635   000000 011000                    NOP     0

PL6.E3A0      #003=Z8DT$REPORT_WRAPUP File=Z8DT.:Z8A6TSI                         SAT 08/09/97 11:31 Page:719
  33124 28 006636   200020 470500                    LDP0    PTR$$,,AUTO
        28 006637   000022 236100                    LDQ     18,,PR0
        28 006640   200017 756100                    STQ     CGT_ST$,,AUTO

  33358 28 006641   000024 236000 29                 LDQ     20
        28 006642   200024 756100                    STQ     APPEND_IND_OFF+1,,AUTO
        28 006643   200024 631500                    EPPR1   APPEND_IND_OFF+1,,AUTO
        28 006644   200031 451500                    STP1    APPEND_IND_OFF+6,,AUTO
        28 006645   000025 236000 29                 LDQ     21
        28 006646   200030 756100                    STQ     APPEND_IND_OFF+5,,AUTO
        28 006647   000032 237000 29                 LDAQ    26
        28 006650   200026 757100                    STAQ    APPEND_IND_OFF+3,,AUTO
        28 006651   200026 630500                    EPPR0   APPEND_IND_OFF+3,,AUTO
        28 006652   000022 631400 29                 EPPR1   18
        28 006653   000000 701000 xent               TSX1    Z8AN$NEW_ILL
        28 006654   000000 011000                    NOP     0

  33362 28 006655   000007 220003                    LDX0    7,DU
        28 006656   000000 470400 16                 LDP0    ILL$
        28 006657   000000 440100                    SXL0    0,,PR0

  33367 28 006660   000001 235007                    LDA     1,DL
        28 006661   000000 470400 16                 LDP0    ILL$
        28 006662   000003 755100                    STA     3,,PR0

  33369 28 006663   200017 236100                    LDQ     CGT_ST$,,AUTO
        28 006664   000001 756100                    STQ     1,,PR0

  33370 28 006665   200013 471500                    LDP1    CONST$$,,AUTO
        28 006666   100001 236100                    LDQ     1,,PR1
        28 006667   000002 756100                    STQ     2,,PR0

     4074    33515
     4075    33516               %FILL_CGT_TBL (@POINTER =
             33516                   O1COM.CURRENT_REPORT_LTS$ -> REPORT_LTS.PAGE_HEADING$);

  33518 28 006670   000064 471400 xsym               LDP1    O1COM+52
PL6.E3A0      #003=Z8DT$REPORT_WRAPUP File=Z8DT.:Z8A6TSI                         SAT 08/09/97 11:31 Page:720
        28 006671   100024 236100                    LDQ     20,,PR1
        28 006672   000004 116000 29                 CMPQ    4
        28 006673   007155 600000 28                 TZE     s:35493

  33520 28 006674   200020 756100                    STQ     PTR$$,,AUTO

  33524 28 006675   200021 756100                    STQ     P$$,,AUTO

  33529 28 006676   200021 473500                    LDP3    P$$,,AUTO
        28 006677   300017 235100                    LDA     15,,PR3
        28 006700   000000 755000 20                 STA     MKCN

  33530 28 006701   200013 634500                    EPPR4   CONST$$,,AUTO
        28 006702   200024 454500                    STP4    APPEND_IND_OFF+1,,AUTO
        28 006703   200024 630500                    EPPR0   APPEND_IND_OFF+1,,AUTO
        28 006704   000005 631400 29                 EPPR1   5
        28 006705   000000 701000 xent               TSX1    Z8AC$MAKE_CONST
        28 006706   000000 011000                    NOP     0

  33531 28 006707   200020 470500                    LDP0    PTR$$,,AUTO
        28 006710   000022 236100                    LDQ     18,,PR0
        28 006711   200017 756100                    STQ     CGT_ST$,,AUTO

  33765 28 006712   000024 236000 29                 LDQ     20
        28 006713   200024 756100                    STQ     APPEND_IND_OFF+1,,AUTO
        28 006714   200024 631500                    EPPR1   APPEND_IND_OFF+1,,AUTO
        28 006715   200031 451500                    STP1    APPEND_IND_OFF+6,,AUTO
        28 006716   000025 236000 29                 LDQ     21
        28 006717   200030 756100                    STQ     APPEND_IND_OFF+5,,AUTO
        28 006720   000032 237000 29                 LDAQ    26
        28 006721   200026 757100                    STAQ    APPEND_IND_OFF+3,,AUTO
        28 006722   200026 630500                    EPPR0   APPEND_IND_OFF+3,,AUTO
        28 006723   000022 631400 29                 EPPR1   18
        28 006724   000000 701000 xent               TSX1    Z8AN$NEW_ILL
        28 006725   000000 011000                    NOP     0

  33769 28 006726   000003 220003                    LDX0    3,DU
PL6.E3A0      #003=Z8DT$REPORT_WRAPUP File=Z8DT.:Z8A6TSI                         SAT 08/09/97 11:31 Page:721
        28 006727   000000 470400 16                 LDP0    ILL$
        28 006730   000000 440100                    SXL0    0,,PR0

  33774 28 006731   000001 235007                    LDA     1,DL
        28 006732   000000 470400 16                 LDP0    ILL$
        28 006733   000003 755100                    STA     3,,PR0

  33776 28 006734   200017 236100                    LDQ     CGT_ST$,,AUTO
        28 006735   000001 756100                    STQ     1,,PR0

  33777 28 006736   200013 471500                    LDP1    CONST$$,,AUTO
        28 006737   100001 236100                    LDQ     1,,PR1
        28 006740   000002 756100                    STQ     2,,PR0

  33921 28 006741   200021 471500                    LDP1    P$$,,AUTO
        28 006742   100020 235100                    LDA     16,,PR1
        28 006743   000000 755000 20                 STA     MKCN

  33922 28 006744   200013 633500                    EPPR3   CONST$$,,AUTO
        28 006745   200024 453500                    STP3    APPEND_IND_OFF+1,,AUTO
        28 006746   200024 630500                    EPPR0   APPEND_IND_OFF+1,,AUTO
        28 006747   000005 631400 29                 EPPR1   5
        28 006750   000000 701000 xent               TSX1    Z8AC$MAKE_CONST
        28 006751   000000 011000                    NOP     0

  33923 28 006752   200020 470500                    LDP0    PTR$$,,AUTO
        28 006753   000022 236100                    LDQ     18,,PR0
        28 006754   200017 756100                    STQ     CGT_ST$,,AUTO

  34157 28 006755   000024 236000 29                 LDQ     20
        28 006756   200024 756100                    STQ     APPEND_IND_OFF+1,,AUTO
        28 006757   200024 631500                    EPPR1   APPEND_IND_OFF+1,,AUTO
        28 006760   200031 451500                    STP1    APPEND_IND_OFF+6,,AUTO
        28 006761   000025 236000 29                 LDQ     21
        28 006762   200030 756100                    STQ     APPEND_IND_OFF+5,,AUTO
        28 006763   000032 237000 29                 LDAQ    26
        28 006764   200026 757100                    STAQ    APPEND_IND_OFF+3,,AUTO
PL6.E3A0      #003=Z8DT$REPORT_WRAPUP File=Z8DT.:Z8A6TSI                         SAT 08/09/97 11:31 Page:722
        28 006765   200026 630500                    EPPR0   APPEND_IND_OFF+3,,AUTO
        28 006766   000022 631400 29                 EPPR1   18
        28 006767   000000 701000 xent               TSX1    Z8AN$NEW_ILL
        28 006770   000000 011000                    NOP     0

  34161 28 006771   000004 220003                    LDX0    4,DU
        28 006772   000000 470400 16                 LDP0    ILL$
        28 006773   000000 440100                    SXL0    0,,PR0

  34166 28 006774   000001 235007                    LDA     1,DL
        28 006775   000000 470400 16                 LDP0    ILL$
        28 006776   000003 755100                    STA     3,,PR0

  34168 28 006777   200017 236100                    LDQ     CGT_ST$,,AUTO
        28 007000   000001 756100                    STQ     1,,PR0

  34169 28 007001   200013 471500                    LDP1    CONST$$,,AUTO
        28 007002   100001 236100                    LDQ     1,,PR1
        28 007003   000002 756100                    STQ     2,,PR0

  34313 28 007004   200021 471500                    LDP1    P$$,,AUTO
        28 007005   100013 235100                    LDA     11,,PR1
        28 007006   000000 755000 20                 STA     MKCN

  34314 28 007007   200013 633500                    EPPR3   CONST$$,,AUTO
        28 007010   200024 453500                    STP3    APPEND_IND_OFF+1,,AUTO
        28 007011   200024 630500                    EPPR0   APPEND_IND_OFF+1,,AUTO
        28 007012   000005 631400 29                 EPPR1   5
        28 007013   000000 701000 xent               TSX1    Z8AC$MAKE_CONST
        28 007014   000000 011000                    NOP     0

  34315 28 007015   200020 470500                    LDP0    PTR$$,,AUTO
        28 007016   000022 236100                    LDQ     18,,PR0
        28 007017   200017 756100                    STQ     CGT_ST$,,AUTO

  34549 28 007020   000024 236000 29                 LDQ     20
        28 007021   200024 756100                    STQ     APPEND_IND_OFF+1,,AUTO
PL6.E3A0      #003=Z8DT$REPORT_WRAPUP File=Z8DT.:Z8A6TSI                         SAT 08/09/97 11:31 Page:723
        28 007022   200024 631500                    EPPR1   APPEND_IND_OFF+1,,AUTO
        28 007023   200031 451500                    STP1    APPEND_IND_OFF+6,,AUTO
        28 007024   000025 236000 29                 LDQ     21
        28 007025   200030 756100                    STQ     APPEND_IND_OFF+5,,AUTO
        28 007026   000032 237000 29                 LDAQ    26
        28 007027   200026 757100                    STAQ    APPEND_IND_OFF+3,,AUTO
        28 007030   200026 630500                    EPPR0   APPEND_IND_OFF+3,,AUTO
        28 007031   000022 631400 29                 EPPR1   18
        28 007032   000000 701000 xent               TSX1    Z8AN$NEW_ILL
        28 007033   000000 011000                    NOP     0

  34553 28 007034   000005 220003                    LDX0    5,DU
        28 007035   000000 470400 16                 LDP0    ILL$
        28 007036   000000 440100                    SXL0    0,,PR0

  34558 28 007037   000001 235007                    LDA     1,DL
        28 007040   000000 470400 16                 LDP0    ILL$
        28 007041   000003 755100                    STA     3,,PR0

  34560 28 007042   200017 236100                    LDQ     CGT_ST$,,AUTO
        28 007043   000001 756100                    STQ     1,,PR0

  34561 28 007044   200013 471500                    LDP1    CONST$$,,AUTO
        28 007045   100001 236100                    LDQ     1,,PR1
        28 007046   000002 756100                    STQ     2,,PR0

  34705 28 007047   200021 471500                    LDP1    P$$,,AUTO
        28 007050   100011 235100                    LDA     9,,PR1
        28 007051   000000 755000 20                 STA     MKCN

  34706 28 007052   200013 633500                    EPPR3   CONST$$,,AUTO
        28 007053   200024 453500                    STP3    APPEND_IND_OFF+1,,AUTO
        28 007054   200024 630500                    EPPR0   APPEND_IND_OFF+1,,AUTO
        28 007055   000005 631400 29                 EPPR1   5
        28 007056   000000 701000 xent               TSX1    Z8AC$MAKE_CONST
        28 007057   000000 011000                    NOP     0

PL6.E3A0      #003=Z8DT$REPORT_WRAPUP File=Z8DT.:Z8A6TSI                         SAT 08/09/97 11:31 Page:724
  34707 28 007060   200020 470500                    LDP0    PTR$$,,AUTO
        28 007061   000022 236100                    LDQ     18,,PR0
        28 007062   200017 756100                    STQ     CGT_ST$,,AUTO

  34941 28 007063   000024 236000 29                 LDQ     20
        28 007064   200024 756100                    STQ     APPEND_IND_OFF+1,,AUTO
        28 007065   200024 631500                    EPPR1   APPEND_IND_OFF+1,,AUTO
        28 007066   200031 451500                    STP1    APPEND_IND_OFF+6,,AUTO
        28 007067   000025 236000 29                 LDQ     21
        28 007070   200030 756100                    STQ     APPEND_IND_OFF+5,,AUTO
        28 007071   000032 237000 29                 LDAQ    26
        28 007072   200026 757100                    STAQ    APPEND_IND_OFF+3,,AUTO
        28 007073   200026 630500                    EPPR0   APPEND_IND_OFF+3,,AUTO
        28 007074   000022 631400 29                 EPPR1   18
        28 007075   000000 701000 xent               TSX1    Z8AN$NEW_ILL
        28 007076   000000 011000                    NOP     0

  34945 28 007077   000006 220003                    LDX0    6,DU
        28 007100   000000 470400 16                 LDP0    ILL$
        28 007101   000000 440100                    SXL0    0,,PR0

  34950 28 007102   000001 235007                    LDA     1,DL
        28 007103   000000 470400 16                 LDP0    ILL$
        28 007104   000003 755100                    STA     3,,PR0

  34952 28 007105   200017 236100                    LDQ     CGT_ST$,,AUTO
        28 007106   000001 756100                    STQ     1,,PR0

  34953 28 007107   200013 471500                    LDP1    CONST$$,,AUTO
        28 007110   100001 236100                    LDQ     1,,PR1
        28 007111   000002 756100                    STQ     2,,PR0

  35097 28 007112   200021 471500                    LDP1    P$$,,AUTO
        28 007113   100012 235100                    LDA     10,,PR1
        28 007114   000000 755000 20                 STA     MKCN

  35098 28 007115   200013 633500                    EPPR3   CONST$$,,AUTO
PL6.E3A0      #003=Z8DT$REPORT_WRAPUP File=Z8DT.:Z8A6TSI                         SAT 08/09/97 11:31 Page:725
        28 007116   200024 453500                    STP3    APPEND_IND_OFF+1,,AUTO
        28 007117   200024 630500                    EPPR0   APPEND_IND_OFF+1,,AUTO
        28 007120   000005 631400 29                 EPPR1   5
        28 007121   000000 701000 xent               TSX1    Z8AC$MAKE_CONST
        28 007122   000000 011000                    NOP     0

  35099 28 007123   200020 470500                    LDP0    PTR$$,,AUTO
        28 007124   000022 236100                    LDQ     18,,PR0
        28 007125   200017 756100                    STQ     CGT_ST$,,AUTO

  35333 28 007126   000024 236000 29                 LDQ     20
        28 007127   200024 756100                    STQ     APPEND_IND_OFF+1,,AUTO
        28 007130   200024 631500                    EPPR1   APPEND_IND_OFF+1,,AUTO
        28 007131   200031 451500                    STP1    APPEND_IND_OFF+6,,AUTO
        28 007132   000025 236000 29                 LDQ     21
        28 007133   200030 756100                    STQ     APPEND_IND_OFF+5,,AUTO
        28 007134   000032 237000 29                 LDAQ    26
        28 007135   200026 757100                    STAQ    APPEND_IND_OFF+3,,AUTO
        28 007136   200026 630500                    EPPR0   APPEND_IND_OFF+3,,AUTO
        28 007137   000022 631400 29                 EPPR1   18
        28 007140   000000 701000 xent               TSX1    Z8AN$NEW_ILL
        28 007141   000000 011000                    NOP     0

  35337 28 007142   000007 220003                    LDX0    7,DU
        28 007143   000000 470400 16                 LDP0    ILL$
        28 007144   000000 440100                    SXL0    0,,PR0

  35342 28 007145   000001 235007                    LDA     1,DL
        28 007146   000000 470400 16                 LDP0    ILL$
        28 007147   000003 755100                    STA     3,,PR0

  35344 28 007150   200017 236100                    LDQ     CGT_ST$,,AUTO
        28 007151   000001 756100                    STQ     1,,PR0

  35345 28 007152   200013 471500                    LDP1    CONST$$,,AUTO
        28 007153   100001 236100                    LDQ     1,,PR1
        28 007154   000002 756100                    STQ     2,,PR0
PL6.E3A0      #003=Z8DT$REPORT_WRAPUP File=Z8DT.:Z8A6TSI                         SAT 08/09/97 11:31 Page:726

     4076    35490
     4077    35491               %FILL_CGT_TBL (@POINTER =
             35491                   O1COM.CURRENT_REPORT_LTS$ -> REPORT_LTS.PAGE_FOOTING$);

  35493 28 007155   000064 471400 xsym               LDP1    O1COM+52
        28 007156   100032 236100                    LDQ     26,,PR1
        28 007157   000004 116000 29                 CMPQ    4
        28 007160   007442 600000 28                 TZE     s:37468

  35495 28 007161   200020 756100                    STQ     PTR$$,,AUTO

  35499 28 007162   200021 756100                    STQ     P$$,,AUTO

  35504 28 007163   200021 473500                    LDP3    P$$,,AUTO
        28 007164   300017 235100                    LDA     15,,PR3
        28 007165   000000 755000 20                 STA     MKCN

  35505 28 007166   200013 634500                    EPPR4   CONST$$,,AUTO
        28 007167   200024 454500                    STP4    APPEND_IND_OFF+1,,AUTO
        28 007170   200024 630500                    EPPR0   APPEND_IND_OFF+1,,AUTO
        28 007171   000005 631400 29                 EPPR1   5
        28 007172   000000 701000 xent               TSX1    Z8AC$MAKE_CONST
        28 007173   000000 011000                    NOP     0

  35506 28 007174   200020 470500                    LDP0    PTR$$,,AUTO
        28 007175   000022 236100                    LDQ     18,,PR0
        28 007176   200017 756100                    STQ     CGT_ST$,,AUTO

  35740 28 007177   000024 236000 29                 LDQ     20
        28 007200   200024 756100                    STQ     APPEND_IND_OFF+1,,AUTO
        28 007201   200024 631500                    EPPR1   APPEND_IND_OFF+1,,AUTO
        28 007202   200031 451500                    STP1    APPEND_IND_OFF+6,,AUTO
        28 007203   000025 236000 29                 LDQ     21
        28 007204   200030 756100                    STQ     APPEND_IND_OFF+5,,AUTO
        28 007205   000032 237000 29                 LDAQ    26
        28 007206   200026 757100                    STAQ    APPEND_IND_OFF+3,,AUTO
PL6.E3A0      #003=Z8DT$REPORT_WRAPUP File=Z8DT.:Z8A6TSI                         SAT 08/09/97 11:31 Page:727
        28 007207   200026 630500                    EPPR0   APPEND_IND_OFF+3,,AUTO
        28 007210   000022 631400 29                 EPPR1   18
        28 007211   000000 701000 xent               TSX1    Z8AN$NEW_ILL
        28 007212   000000 011000                    NOP     0

  35744 28 007213   000003 220003                    LDX0    3,DU
        28 007214   000000 470400 16                 LDP0    ILL$
        28 007215   000000 440100                    SXL0    0,,PR0

  35749 28 007216   000001 235007                    LDA     1,DL
        28 007217   000000 470400 16                 LDP0    ILL$
        28 007220   000003 755100                    STA     3,,PR0

  35751 28 007221   200017 236100                    LDQ     CGT_ST$,,AUTO
        28 007222   000001 756100                    STQ     1,,PR0

  35752 28 007223   200013 471500                    LDP1    CONST$$,,AUTO
        28 007224   100001 236100                    LDQ     1,,PR1
        28 007225   000002 756100                    STQ     2,,PR0

  35896 28 007226   200021 471500                    LDP1    P$$,,AUTO
        28 007227   100020 235100                    LDA     16,,PR1
        28 007230   000000 755000 20                 STA     MKCN

  35897 28 007231   200013 633500                    EPPR3   CONST$$,,AUTO
        28 007232   200024 453500                    STP3    APPEND_IND_OFF+1,,AUTO
        28 007233   200024 630500                    EPPR0   APPEND_IND_OFF+1,,AUTO
        28 007234   000005 631400 29                 EPPR1   5
        28 007235   000000 701000 xent               TSX1    Z8AC$MAKE_CONST
        28 007236   000000 011000                    NOP     0

  35898 28 007237   200020 470500                    LDP0    PTR$$,,AUTO
        28 007240   000022 236100                    LDQ     18,,PR0
        28 007241   200017 756100                    STQ     CGT_ST$,,AUTO

  36132 28 007242   000024 236000 29                 LDQ     20
        28 007243   200024 756100                    STQ     APPEND_IND_OFF+1,,AUTO
PL6.E3A0      #003=Z8DT$REPORT_WRAPUP File=Z8DT.:Z8A6TSI                         SAT 08/09/97 11:31 Page:728
        28 007244   200024 631500                    EPPR1   APPEND_IND_OFF+1,,AUTO
        28 007245   200031 451500                    STP1    APPEND_IND_OFF+6,,AUTO
        28 007246   000025 236000 29                 LDQ     21
        28 007247   200030 756100                    STQ     APPEND_IND_OFF+5,,AUTO
        28 007250   000032 237000 29                 LDAQ    26
        28 007251   200026 757100                    STAQ    APPEND_IND_OFF+3,,AUTO
        28 007252   200026 630500                    EPPR0   APPEND_IND_OFF+3,,AUTO
        28 007253   000022 631400 29                 EPPR1   18
        28 007254   000000 701000 xent               TSX1    Z8AN$NEW_ILL
        28 007255   000000 011000                    NOP     0

  36136 28 007256   000004 220003                    LDX0    4,DU
        28 007257   000000 470400 16                 LDP0    ILL$
        28 007260   000000 440100                    SXL0    0,,PR0

  36141 28 007261   000001 235007                    LDA     1,DL
        28 007262   000000 470400 16                 LDP0    ILL$
        28 007263   000003 755100                    STA     3,,PR0

  36143 28 007264   200017 236100                    LDQ     CGT_ST$,,AUTO
        28 007265   000001 756100                    STQ     1,,PR0

  36144 28 007266   200013 471500                    LDP1    CONST$$,,AUTO
        28 007267   100001 236100                    LDQ     1,,PR1
        28 007270   000002 756100                    STQ     2,,PR0

  36288 28 007271   200021 471500                    LDP1    P$$,,AUTO
        28 007272   100013 235100                    LDA     11,,PR1
        28 007273   000000 755000 20                 STA     MKCN

  36289 28 007274   200013 633500                    EPPR3   CONST$$,,AUTO
        28 007275   200024 453500                    STP3    APPEND_IND_OFF+1,,AUTO
        28 007276   200024 630500                    EPPR0   APPEND_IND_OFF+1,,AUTO
        28 007277   000005 631400 29                 EPPR1   5
        28 007300   000000 701000 xent               TSX1    Z8AC$MAKE_CONST
        28 007301   000000 011000                    NOP     0

PL6.E3A0      #003=Z8DT$REPORT_WRAPUP File=Z8DT.:Z8A6TSI                         SAT 08/09/97 11:31 Page:729
  36290 28 007302   200020 470500                    LDP0    PTR$$,,AUTO
        28 007303   000022 236100                    LDQ     18,,PR0
        28 007304   200017 756100                    STQ     CGT_ST$,,AUTO

  36524 28 007305   000024 236000 29                 LDQ     20
        28 007306   200024 756100                    STQ     APPEND_IND_OFF+1,,AUTO
        28 007307   200024 631500                    EPPR1   APPEND_IND_OFF+1,,AUTO
        28 007310   200031 451500                    STP1    APPEND_IND_OFF+6,,AUTO
        28 007311   000025 236000 29                 LDQ     21
        28 007312   200030 756100                    STQ     APPEND_IND_OFF+5,,AUTO
        28 007313   000032 237000 29                 LDAQ    26
        28 007314   200026 757100                    STAQ    APPEND_IND_OFF+3,,AUTO
        28 007315   200026 630500                    EPPR0   APPEND_IND_OFF+3,,AUTO
        28 007316   000022 631400 29                 EPPR1   18
        28 007317   000000 701000 xent               TSX1    Z8AN$NEW_ILL
        28 007320   000000 011000                    NOP     0

  36528 28 007321   000005 220003                    LDX0    5,DU
        28 007322   000000 470400 16                 LDP0    ILL$
        28 007323   000000 440100                    SXL0    0,,PR0

  36533 28 007324   000001 235007                    LDA     1,DL
        28 007325   000000 470400 16                 LDP0    ILL$
        28 007326   000003 755100                    STA     3,,PR0

  36535 28 007327   200017 236100                    LDQ     CGT_ST$,,AUTO
        28 007330   000001 756100                    STQ     1,,PR0

  36536 28 007331   200013 471500                    LDP1    CONST$$,,AUTO
        28 007332   100001 236100                    LDQ     1,,PR1
        28 007333   000002 756100                    STQ     2,,PR0

  36680 28 007334   200021 471500                    LDP1    P$$,,AUTO
        28 007335   100011 235100                    LDA     9,,PR1
        28 007336   000000 755000 20                 STA     MKCN

  36681 28 007337   200013 633500                    EPPR3   CONST$$,,AUTO
PL6.E3A0      #003=Z8DT$REPORT_WRAPUP File=Z8DT.:Z8A6TSI                         SAT 08/09/97 11:31 Page:730
        28 007340   200024 453500                    STP3    APPEND_IND_OFF+1,,AUTO
        28 007341   200024 630500                    EPPR0   APPEND_IND_OFF+1,,AUTO
        28 007342   000005 631400 29                 EPPR1   5
        28 007343   000000 701000 xent               TSX1    Z8AC$MAKE_CONST
        28 007344   000000 011000                    NOP     0

  36682 28 007345   200020 470500                    LDP0    PTR$$,,AUTO
        28 007346   000022 236100                    LDQ     18,,PR0
        28 007347   200017 756100                    STQ     CGT_ST$,,AUTO

  36916 28 007350   000024 236000 29                 LDQ     20
        28 007351   200024 756100                    STQ     APPEND_IND_OFF+1,,AUTO
        28 007352   200024 631500                    EPPR1   APPEND_IND_OFF+1,,AUTO
        28 007353   200031 451500                    STP1    APPEND_IND_OFF+6,,AUTO
        28 007354   000025 236000 29                 LDQ     21
        28 007355   200030 756100                    STQ     APPEND_IND_OFF+5,,AUTO
        28 007356   000032 237000 29                 LDAQ    26
        28 007357   200026 757100                    STAQ    APPEND_IND_OFF+3,,AUTO
        28 007360   200026 630500                    EPPR0   APPEND_IND_OFF+3,,AUTO
        28 007361   000022 631400 29                 EPPR1   18
        28 007362   000000 701000 xent               TSX1    Z8AN$NEW_ILL
        28 007363   000000 011000                    NOP     0

  36920 28 007364   000006 220003                    LDX0    6,DU
        28 007365   000000 470400 16                 LDP0    ILL$
        28 007366   000000 440100                    SXL0    0,,PR0

  36925 28 007367   000001 235007                    LDA     1,DL
        28 007370   000000 470400 16                 LDP0    ILL$
        28 007371   000003 755100                    STA     3,,PR0

  36927 28 007372   200017 236100                    LDQ     CGT_ST$,,AUTO
        28 007373   000001 756100                    STQ     1,,PR0

  36928 28 007374   200013 471500                    LDP1    CONST$$,,AUTO
        28 007375   100001 236100                    LDQ     1,,PR1
        28 007376   000002 756100                    STQ     2,,PR0
PL6.E3A0      #003=Z8DT$REPORT_WRAPUP File=Z8DT.:Z8A6TSI                         SAT 08/09/97 11:31 Page:731

  37072 28 007377   200021 471500                    LDP1    P$$,,AUTO
        28 007400   100012 235100                    LDA     10,,PR1
        28 007401   000000 755000 20                 STA     MKCN

  37073 28 007402   200013 633500                    EPPR3   CONST$$,,AUTO
        28 007403   200024 453500                    STP3    APPEND_IND_OFF+1,,AUTO
        28 007404   200024 630500                    EPPR0   APPEND_IND_OFF+1,,AUTO
        28 007405   000005 631400 29                 EPPR1   5
        28 007406   000000 701000 xent               TSX1    Z8AC$MAKE_CONST
        28 007407   000000 011000                    NOP     0

  37074 28 007410   200020 470500                    LDP0    PTR$$,,AUTO
        28 007411   000022 236100                    LDQ     18,,PR0
        28 007412   200017 756100                    STQ     CGT_ST$,,AUTO

  37308 28 007413   000024 236000 29                 LDQ     20
        28 007414   200024 756100                    STQ     APPEND_IND_OFF+1,,AUTO
        28 007415   200024 631500                    EPPR1   APPEND_IND_OFF+1,,AUTO
        28 007416   200031 451500                    STP1    APPEND_IND_OFF+6,,AUTO
        28 007417   000025 236000 29                 LDQ     21
        28 007420   200030 756100                    STQ     APPEND_IND_OFF+5,,AUTO
        28 007421   000032 237000 29                 LDAQ    26
        28 007422   200026 757100                    STAQ    APPEND_IND_OFF+3,,AUTO
        28 007423   200026 630500                    EPPR0   APPEND_IND_OFF+3,,AUTO
        28 007424   000022 631400 29                 EPPR1   18
        28 007425   000000 701000 xent               TSX1    Z8AN$NEW_ILL
        28 007426   000000 011000                    NOP     0

  37312 28 007427   000007 220003                    LDX0    7,DU
        28 007430   000000 470400 16                 LDP0    ILL$
        28 007431   000000 440100                    SXL0    0,,PR0

  37317 28 007432   000001 235007                    LDA     1,DL
        28 007433   000000 470400 16                 LDP0    ILL$
        28 007434   000003 755100                    STA     3,,PR0

PL6.E3A0      #003=Z8DT$REPORT_WRAPUP File=Z8DT.:Z8A6TSI                         SAT 08/09/97 11:31 Page:732
  37319 28 007435   200017 236100                    LDQ     CGT_ST$,,AUTO
        28 007436   000001 756100                    STQ     1,,PR0

  37320 28 007437   200013 471500                    LDP1    CONST$$,,AUTO
        28 007440   100001 236100                    LDQ     1,,PR1
        28 007441   000002 756100                    STQ     2,,PR0

     4078    37465
     4079    37466           %FILL_CGT_TBL (@POINTER =
             37466               O1COM.CURRENT_REPORT_LTS$ -> REPORT_LTS.CONTROL_HEADING_FINAL$);

  37468 28 007442   000064 471400 xsym               LDP1    O1COM+52
        28 007443   100025 236100                    LDQ     21,,PR1
        28 007444   000004 116000 29                 CMPQ    4
        28 007445   007727 600000 28                 TZE     s:39443

  37470 28 007446   200020 756100                    STQ     PTR$$,,AUTO

  37474 28 007447   200021 756100                    STQ     P$$,,AUTO

  37479 28 007450   200021 473500                    LDP3    P$$,,AUTO
        28 007451   300017 235100                    LDA     15,,PR3
        28 007452   000000 755000 20                 STA     MKCN

  37480 28 007453   200013 634500                    EPPR4   CONST$$,,AUTO
        28 007454   200024 454500                    STP4    APPEND_IND_OFF+1,,AUTO
        28 007455   200024 630500                    EPPR0   APPEND_IND_OFF+1,,AUTO
        28 007456   000005 631400 29                 EPPR1   5
        28 007457   000000 701000 xent               TSX1    Z8AC$MAKE_CONST
        28 007460   000000 011000                    NOP     0

  37481 28 007461   200020 470500                    LDP0    PTR$$,,AUTO
        28 007462   000022 236100                    LDQ     18,,PR0
        28 007463   200017 756100                    STQ     CGT_ST$,,AUTO

  37715 28 007464   000024 236000 29                 LDQ     20
        28 007465   200024 756100                    STQ     APPEND_IND_OFF+1,,AUTO
PL6.E3A0      #003=Z8DT$REPORT_WRAPUP File=Z8DT.:Z8A6TSI                         SAT 08/09/97 11:31 Page:733
        28 007466   200024 631500                    EPPR1   APPEND_IND_OFF+1,,AUTO
        28 007467   200031 451500                    STP1    APPEND_IND_OFF+6,,AUTO
        28 007470   000025 236000 29                 LDQ     21
        28 007471   200030 756100                    STQ     APPEND_IND_OFF+5,,AUTO
        28 007472   000032 237000 29                 LDAQ    26
        28 007473   200026 757100                    STAQ    APPEND_IND_OFF+3,,AUTO
        28 007474   200026 630500                    EPPR0   APPEND_IND_OFF+3,,AUTO
        28 007475   000022 631400 29                 EPPR1   18
        28 007476   000000 701000 xent               TSX1    Z8AN$NEW_ILL
        28 007477   000000 011000                    NOP     0

  37719 28 007500   000003 220003                    LDX0    3,DU
        28 007501   000000 470400 16                 LDP0    ILL$
        28 007502   000000 440100                    SXL0    0,,PR0

  37724 28 007503   000001 235007                    LDA     1,DL
        28 007504   000000 470400 16                 LDP0    ILL$
        28 007505   000003 755100                    STA     3,,PR0

  37726 28 007506   200017 236100                    LDQ     CGT_ST$,,AUTO
        28 007507   000001 756100                    STQ     1,,PR0

  37727 28 007510   200013 471500                    LDP1    CONST$$,,AUTO
        28 007511   100001 236100                    LDQ     1,,PR1
        28 007512   000002 756100                    STQ     2,,PR0

  37871 28 007513   200021 471500                    LDP1    P$$,,AUTO
        28 007514   100020 235100                    LDA     16,,PR1
        28 007515   000000 755000 20                 STA     MKCN

  37872 28 007516   200013 633500                    EPPR3   CONST$$,,AUTO
        28 007517   200024 453500                    STP3    APPEND_IND_OFF+1,,AUTO
        28 007520   200024 630500                    EPPR0   APPEND_IND_OFF+1,,AUTO
        28 007521   000005 631400 29                 EPPR1   5
        28 007522   000000 701000 xent               TSX1    Z8AC$MAKE_CONST
        28 007523   000000 011000                    NOP     0

PL6.E3A0      #003=Z8DT$REPORT_WRAPUP File=Z8DT.:Z8A6TSI                         SAT 08/09/97 11:31 Page:734
  37873 28 007524   200020 470500                    LDP0    PTR$$,,AUTO
        28 007525   000022 236100                    LDQ     18,,PR0
        28 007526   200017 756100                    STQ     CGT_ST$,,AUTO

  38107 28 007527   000024 236000 29                 LDQ     20
        28 007530   200024 756100                    STQ     APPEND_IND_OFF+1,,AUTO
        28 007531   200024 631500                    EPPR1   APPEND_IND_OFF+1,,AUTO
        28 007532   200031 451500                    STP1    APPEND_IND_OFF+6,,AUTO
        28 007533   000025 236000 29                 LDQ     21
        28 007534   200030 756100                    STQ     APPEND_IND_OFF+5,,AUTO
        28 007535   000032 237000 29                 LDAQ    26
        28 007536   200026 757100                    STAQ    APPEND_IND_OFF+3,,AUTO
        28 007537   200026 630500                    EPPR0   APPEND_IND_OFF+3,,AUTO
        28 007540   000022 631400 29                 EPPR1   18
        28 007541   000000 701000 xent               TSX1    Z8AN$NEW_ILL
        28 007542   000000 011000                    NOP     0

  38111 28 007543   000004 220003                    LDX0    4,DU
        28 007544   000000 470400 16                 LDP0    ILL$
        28 007545   000000 440100                    SXL0    0,,PR0

  38116 28 007546   000001 235007                    LDA     1,DL
        28 007547   000000 470400 16                 LDP0    ILL$
        28 007550   000003 755100                    STA     3,,PR0

  38118 28 007551   200017 236100                    LDQ     CGT_ST$,,AUTO
        28 007552   000001 756100                    STQ     1,,PR0

  38119 28 007553   200013 471500                    LDP1    CONST$$,,AUTO
        28 007554   100001 236100                    LDQ     1,,PR1
        28 007555   000002 756100                    STQ     2,,PR0

  38263 28 007556   200021 471500                    LDP1    P$$,,AUTO
        28 007557   100013 235100                    LDA     11,,PR1
        28 007560   000000 755000 20                 STA     MKCN

  38264 28 007561   200013 633500                    EPPR3   CONST$$,,AUTO
PL6.E3A0      #003=Z8DT$REPORT_WRAPUP File=Z8DT.:Z8A6TSI                         SAT 08/09/97 11:31 Page:735
        28 007562   200024 453500                    STP3    APPEND_IND_OFF+1,,AUTO
        28 007563   200024 630500                    EPPR0   APPEND_IND_OFF+1,,AUTO
        28 007564   000005 631400 29                 EPPR1   5
        28 007565   000000 701000 xent               TSX1    Z8AC$MAKE_CONST
        28 007566   000000 011000                    NOP     0

  38265 28 007567   200020 470500                    LDP0    PTR$$,,AUTO
        28 007570   000022 236100                    LDQ     18,,PR0
        28 007571   200017 756100                    STQ     CGT_ST$,,AUTO

  38499 28 007572   000024 236000 29                 LDQ     20
        28 007573   200024 756100                    STQ     APPEND_IND_OFF+1,,AUTO
        28 007574   200024 631500                    EPPR1   APPEND_IND_OFF+1,,AUTO
        28 007575   200031 451500                    STP1    APPEND_IND_OFF+6,,AUTO
        28 007576   000025 236000 29                 LDQ     21
        28 007577   200030 756100                    STQ     APPEND_IND_OFF+5,,AUTO
        28 007600   000032 237000 29                 LDAQ    26
        28 007601   200026 757100                    STAQ    APPEND_IND_OFF+3,,AUTO
        28 007602   200026 630500                    EPPR0   APPEND_IND_OFF+3,,AUTO
        28 007603   000022 631400 29                 EPPR1   18
        28 007604   000000 701000 xent               TSX1    Z8AN$NEW_ILL
        28 007605   000000 011000                    NOP     0

  38503 28 007606   000005 220003                    LDX0    5,DU
        28 007607   000000 470400 16                 LDP0    ILL$
        28 007610   000000 440100                    SXL0    0,,PR0

  38508 28 007611   000001 235007                    LDA     1,DL
        28 007612   000000 470400 16                 LDP0    ILL$
        28 007613   000003 755100                    STA     3,,PR0

  38510 28 007614   200017 236100                    LDQ     CGT_ST$,,AUTO
        28 007615   000001 756100                    STQ     1,,PR0

  38511 28 007616   200013 471500                    LDP1    CONST$$,,AUTO
        28 007617   100001 236100                    LDQ     1,,PR1
        28 007620   000002 756100                    STQ     2,,PR0
PL6.E3A0      #003=Z8DT$REPORT_WRAPUP File=Z8DT.:Z8A6TSI                         SAT 08/09/97 11:31 Page:736

  38655 28 007621   200021 471500                    LDP1    P$$,,AUTO
        28 007622   100011 235100                    LDA     9,,PR1
        28 007623   000000 755000 20                 STA     MKCN

  38656 28 007624   200013 633500                    EPPR3   CONST$$,,AUTO
        28 007625   200024 453500                    STP3    APPEND_IND_OFF+1,,AUTO
        28 007626   200024 630500                    EPPR0   APPEND_IND_OFF+1,,AUTO
        28 007627   000005 631400 29                 EPPR1   5
        28 007630   000000 701000 xent               TSX1    Z8AC$MAKE_CONST
        28 007631   000000 011000                    NOP     0

  38657 28 007632   200020 470500                    LDP0    PTR$$,,AUTO
        28 007633   000022 236100                    LDQ     18,,PR0
        28 007634   200017 756100                    STQ     CGT_ST$,,AUTO

  38891 28 007635   000024 236000 29                 LDQ     20
        28 007636   200024 756100                    STQ     APPEND_IND_OFF+1,,AUTO
        28 007637   200024 631500                    EPPR1   APPEND_IND_OFF+1,,AUTO
        28 007640   200031 451500                    STP1    APPEND_IND_OFF+6,,AUTO
        28 007641   000025 236000 29                 LDQ     21
        28 007642   200030 756100                    STQ     APPEND_IND_OFF+5,,AUTO
        28 007643   000032 237000 29                 LDAQ    26
        28 007644   200026 757100                    STAQ    APPEND_IND_OFF+3,,AUTO
        28 007645   200026 630500                    EPPR0   APPEND_IND_OFF+3,,AUTO
        28 007646   000022 631400 29                 EPPR1   18
        28 007647   000000 701000 xent               TSX1    Z8AN$NEW_ILL
        28 007650   000000 011000                    NOP     0

  38895 28 007651   000006 220003                    LDX0    6,DU
        28 007652   000000 470400 16                 LDP0    ILL$
        28 007653   000000 440100                    SXL0    0,,PR0

  38900 28 007654   000001 235007                    LDA     1,DL
        28 007655   000000 470400 16                 LDP0    ILL$
        28 007656   000003 755100                    STA     3,,PR0

PL6.E3A0      #003=Z8DT$REPORT_WRAPUP File=Z8DT.:Z8A6TSI                         SAT 08/09/97 11:31 Page:737
  38902 28 007657   200017 236100                    LDQ     CGT_ST$,,AUTO
        28 007660   000001 756100                    STQ     1,,PR0

  38903 28 007661   200013 471500                    LDP1    CONST$$,,AUTO
        28 007662   100001 236100                    LDQ     1,,PR1
        28 007663   000002 756100                    STQ     2,,PR0

  39047 28 007664   200021 471500                    LDP1    P$$,,AUTO
        28 007665   100012 235100                    LDA     10,,PR1
        28 007666   000000 755000 20                 STA     MKCN

  39048 28 007667   200013 633500                    EPPR3   CONST$$,,AUTO
        28 007670   200024 453500                    STP3    APPEND_IND_OFF+1,,AUTO
        28 007671   200024 630500                    EPPR0   APPEND_IND_OFF+1,,AUTO
        28 007672   000005 631400 29                 EPPR1   5
        28 007673   000000 701000 xent               TSX1    Z8AC$MAKE_CONST
        28 007674   000000 011000                    NOP     0

  39049 28 007675   200020 470500                    LDP0    PTR$$,,AUTO
        28 007676   000022 236100                    LDQ     18,,PR0
        28 007677   200017 756100                    STQ     CGT_ST$,,AUTO

  39283 28 007700   000024 236000 29                 LDQ     20
        28 007701   200024 756100                    STQ     APPEND_IND_OFF+1,,AUTO
        28 007702   200024 631500                    EPPR1   APPEND_IND_OFF+1,,AUTO
        28 007703   200031 451500                    STP1    APPEND_IND_OFF+6,,AUTO
        28 007704   000025 236000 29                 LDQ     21
        28 007705   200030 756100                    STQ     APPEND_IND_OFF+5,,AUTO
        28 007706   000032 237000 29                 LDAQ    26
        28 007707   200026 757100                    STAQ    APPEND_IND_OFF+3,,AUTO
        28 007710   200026 630500                    EPPR0   APPEND_IND_OFF+3,,AUTO
        28 007711   000022 631400 29                 EPPR1   18
        28 007712   000000 701000 xent               TSX1    Z8AN$NEW_ILL
        28 007713   000000 011000                    NOP     0

  39287 28 007714   000007 220003                    LDX0    7,DU
        28 007715   000000 470400 16                 LDP0    ILL$
PL6.E3A0      #003=Z8DT$REPORT_WRAPUP File=Z8DT.:Z8A6TSI                         SAT 08/09/97 11:31 Page:738
        28 007716   000000 440100                    SXL0    0,,PR0

  39292 28 007717   000001 235007                    LDA     1,DL
        28 007720   000000 470400 16                 LDP0    ILL$
        28 007721   000003 755100                    STA     3,,PR0

  39294 28 007722   200017 236100                    LDQ     CGT_ST$,,AUTO
        28 007723   000001 756100                    STQ     1,,PR0

  39295 28 007724   200013 471500                    LDP1    CONST$$,,AUTO
        28 007725   100001 236100                    LDQ     1,,PR1
        28 007726   000002 756100                    STQ     2,,PR0

     4080    39440
     4081    39441           %FILL_CGT_TBL (@POINTER =
             39441               O1COM.CURRENT_REPORT_LTS$ -> REPORT_LTS.CONTROL_FOOTING_FINAL$);

  39443 28 007727   000064 471400 xsym               LDP1    O1COM+52
        28 007730   100031 236100                    LDQ     25,,PR1
        28 007731   000004 116000 29                 CMPQ    4
        28 007732   010214 600000 28                 TZE     s:41416

  39445 28 007733   200020 756100                    STQ     PTR$$,,AUTO

  39449 28 007734   200021 756100                    STQ     P$$,,AUTO

  39454 28 007735   200021 473500                    LDP3    P$$,,AUTO
        28 007736   300017 235100                    LDA     15,,PR3
        28 007737   000000 755000 20                 STA     MKCN

  39455 28 007740   200013 634500                    EPPR4   CONST$$,,AUTO
        28 007741   200024 454500                    STP4    APPEND_IND_OFF+1,,AUTO
        28 007742   200024 630500                    EPPR0   APPEND_IND_OFF+1,,AUTO
        28 007743   000005 631400 29                 EPPR1   5
        28 007744   000000 701000 xent               TSX1    Z8AC$MAKE_CONST
        28 007745   000000 011000                    NOP     0

PL6.E3A0      #003=Z8DT$REPORT_WRAPUP File=Z8DT.:Z8A6TSI                         SAT 08/09/97 11:31 Page:739
  39456 28 007746   200020 470500                    LDP0    PTR$$,,AUTO
        28 007747   000022 236100                    LDQ     18,,PR0
        28 007750   200017 756100                    STQ     CGT_ST$,,AUTO

  39690 28 007751   000024 236000 29                 LDQ     20
        28 007752   200024 756100                    STQ     APPEND_IND_OFF+1,,AUTO
        28 007753   200024 631500                    EPPR1   APPEND_IND_OFF+1,,AUTO
        28 007754   200031 451500                    STP1    APPEND_IND_OFF+6,,AUTO
        28 007755   000025 236000 29                 LDQ     21
        28 007756   200030 756100                    STQ     APPEND_IND_OFF+5,,AUTO
        28 007757   000032 237000 29                 LDAQ    26
        28 007760   200026 757100                    STAQ    APPEND_IND_OFF+3,,AUTO
        28 007761   200026 630500                    EPPR0   APPEND_IND_OFF+3,,AUTO
        28 007762   000022 631400 29                 EPPR1   18
        28 007763   000000 701000 xent               TSX1    Z8AN$NEW_ILL
        28 007764   000000 011000                    NOP     0

  39694 28 007765   000003 220003                    LDX0    3,DU
        28 007766   000000 470400 16                 LDP0    ILL$
        28 007767   000000 440100                    SXL0    0,,PR0

  39699 28 007770   000001 235007                    LDA     1,DL
        28 007771   000000 470400 16                 LDP0    ILL$
        28 007772   000003 755100                    STA     3,,PR0

  39701 28 007773   200017 236100                    LDQ     CGT_ST$,,AUTO
        28 007774   000001 756100                    STQ     1,,PR0

  39702 28 007775   200013 471500                    LDP1    CONST$$,,AUTO
        28 007776   100001 236100                    LDQ     1,,PR1
        28 007777   000002 756100                    STQ     2,,PR0

  39846 28 010000   200021 471500                    LDP1    P$$,,AUTO
        28 010001   100020 235100                    LDA     16,,PR1
        28 010002   000000 755000 20                 STA     MKCN

  39847 28 010003   200013 633500                    EPPR3   CONST$$,,AUTO
PL6.E3A0      #003=Z8DT$REPORT_WRAPUP File=Z8DT.:Z8A6TSI                         SAT 08/09/97 11:31 Page:740
        28 010004   200024 453500                    STP3    APPEND_IND_OFF+1,,AUTO
        28 010005   200024 630500                    EPPR0   APPEND_IND_OFF+1,,AUTO
        28 010006   000005 631400 29                 EPPR1   5
        28 010007   000000 701000 xent               TSX1    Z8AC$MAKE_CONST
        28 010010   000000 011000                    NOP     0

  39848 28 010011   200020 470500                    LDP0    PTR$$,,AUTO
        28 010012   000022 236100                    LDQ     18,,PR0
        28 010013   200017 756100                    STQ     CGT_ST$,,AUTO

  40082 28 010014   000024 236000 29                 LDQ     20
        28 010015   200024 756100                    STQ     APPEND_IND_OFF+1,,AUTO
        28 010016   200024 631500                    EPPR1   APPEND_IND_OFF+1,,AUTO
        28 010017   200031 451500                    STP1    APPEND_IND_OFF+6,,AUTO
        28 010020   000025 236000 29                 LDQ     21
        28 010021   200030 756100                    STQ     APPEND_IND_OFF+5,,AUTO
        28 010022   000032 237000 29                 LDAQ    26
        28 010023   200026 757100                    STAQ    APPEND_IND_OFF+3,,AUTO
        28 010024   200026 630500                    EPPR0   APPEND_IND_OFF+3,,AUTO
        28 010025   000022 631400 29                 EPPR1   18
        28 010026   000000 701000 xent               TSX1    Z8AN$NEW_ILL
        28 010027   000000 011000                    NOP     0

  40086 28 010030   000004 220003                    LDX0    4,DU
        28 010031   000000 470400 16                 LDP0    ILL$
        28 010032   000000 440100                    SXL0    0,,PR0

  40091 28 010033   000001 235007                    LDA     1,DL
        28 010034   000000 470400 16                 LDP0    ILL$
        28 010035   000003 755100                    STA     3,,PR0

  40093 28 010036   200017 236100                    LDQ     CGT_ST$,,AUTO
        28 010037   000001 756100                    STQ     1,,PR0

  40094 28 010040   200013 471500                    LDP1    CONST$$,,AUTO
        28 010041   100001 236100                    LDQ     1,,PR1
        28 010042   000002 756100                    STQ     2,,PR0
PL6.E3A0      #003=Z8DT$REPORT_WRAPUP File=Z8DT.:Z8A6TSI                         SAT 08/09/97 11:31 Page:741

  40238 28 010043   200021 471500                    LDP1    P$$,,AUTO
        28 010044   100013 235100                    LDA     11,,PR1
        28 010045   000000 755000 20                 STA     MKCN

  40239 28 010046   200013 633500                    EPPR3   CONST$$,,AUTO
        28 010047   200024 453500                    STP3    APPEND_IND_OFF+1,,AUTO
        28 010050   200024 630500                    EPPR0   APPEND_IND_OFF+1,,AUTO
        28 010051   000005 631400 29                 EPPR1   5
        28 010052   000000 701000 xent               TSX1    Z8AC$MAKE_CONST
        28 010053   000000 011000                    NOP     0

  40240 28 010054   200020 470500                    LDP0    PTR$$,,AUTO
        28 010055   000022 236100                    LDQ     18,,PR0
        28 010056   200017 756100                    STQ     CGT_ST$,,AUTO

  40474 28 010057   000024 236000 29                 LDQ     20
        28 010060   200024 756100                    STQ     APPEND_IND_OFF+1,,AUTO
        28 010061   200024 631500                    EPPR1   APPEND_IND_OFF+1,,AUTO
        28 010062   200031 451500                    STP1    APPEND_IND_OFF+6,,AUTO
        28 010063   000025 236000 29                 LDQ     21
        28 010064   200030 756100                    STQ     APPEND_IND_OFF+5,,AUTO
        28 010065   000032 237000 29                 LDAQ    26
        28 010066   200026 757100                    STAQ    APPEND_IND_OFF+3,,AUTO
        28 010067   200026 630500                    EPPR0   APPEND_IND_OFF+3,,AUTO
        28 010070   000022 631400 29                 EPPR1   18
        28 010071   000000 701000 xent               TSX1    Z8AN$NEW_ILL
        28 010072   000000 011000                    NOP     0

  40478 28 010073   000005 220003                    LDX0    5,DU
        28 010074   000000 470400 16                 LDP0    ILL$
        28 010075   000000 440100                    SXL0    0,,PR0

  40483 28 010076   000001 235007                    LDA     1,DL
        28 010077   000000 470400 16                 LDP0    ILL$
        28 010100   000003 755100                    STA     3,,PR0

PL6.E3A0      #003=Z8DT$REPORT_WRAPUP File=Z8DT.:Z8A6TSI                         SAT 08/09/97 11:31 Page:742
  40485 28 010101   200017 236100                    LDQ     CGT_ST$,,AUTO
        28 010102   000001 756100                    STQ     1,,PR0

  40486 28 010103   200013 471500                    LDP1    CONST$$,,AUTO
        28 010104   100001 236100                    LDQ     1,,PR1
        28 010105   000002 756100                    STQ     2,,PR0

  40630 28 010106   200021 471500                    LDP1    P$$,,AUTO
        28 010107   100011 235100                    LDA     9,,PR1
        28 010110   000000 755000 20                 STA     MKCN

  40631 28 010111   200013 633500                    EPPR3   CONST$$,,AUTO
        28 010112   200024 453500                    STP3    APPEND_IND_OFF+1,,AUTO
        28 010113   200024 630500                    EPPR0   APPEND_IND_OFF+1,,AUTO
        28 010114   000005 631400 29                 EPPR1   5
        28 010115   000000 701000 xent               TSX1    Z8AC$MAKE_CONST
        28 010116   000000 011000                    NOP     0

  40632 28 010117   200020 470500                    LDP0    PTR$$,,AUTO
        28 010120   000022 236100                    LDQ     18,,PR0
        28 010121   200017 756100                    STQ     CGT_ST$,,AUTO

  40866 28 010122   000024 236000 29                 LDQ     20
        28 010123   200024 756100                    STQ     APPEND_IND_OFF+1,,AUTO
        28 010124   200024 631500                    EPPR1   APPEND_IND_OFF+1,,AUTO
        28 010125   200031 451500                    STP1    APPEND_IND_OFF+6,,AUTO
        28 010126   000025 236000 29                 LDQ     21
        28 010127   200030 756100                    STQ     APPEND_IND_OFF+5,,AUTO
        28 010130   000032 237000 29                 LDAQ    26
        28 010131   200026 757100                    STAQ    APPEND_IND_OFF+3,,AUTO
        28 010132   200026 630500                    EPPR0   APPEND_IND_OFF+3,,AUTO
        28 010133   000022 631400 29                 EPPR1   18
        28 010134   000000 701000 xent               TSX1    Z8AN$NEW_ILL
        28 010135   000000 011000                    NOP     0

  40870 28 010136   000006 220003                    LDX0    6,DU
        28 010137   000000 470400 16                 LDP0    ILL$
PL6.E3A0      #003=Z8DT$REPORT_WRAPUP File=Z8DT.:Z8A6TSI                         SAT 08/09/97 11:31 Page:743
        28 010140   000000 440100                    SXL0    0,,PR0

  40875 28 010141   000001 235007                    LDA     1,DL
        28 010142   000000 470400 16                 LDP0    ILL$
        28 010143   000003 755100                    STA     3,,PR0

  40877 28 010144   200017 236100                    LDQ     CGT_ST$,,AUTO
        28 010145   000001 756100                    STQ     1,,PR0

  40878 28 010146   200013 471500                    LDP1    CONST$$,,AUTO
        28 010147   100001 236100                    LDQ     1,,PR1
        28 010150   000002 756100                    STQ     2,,PR0

  41022 28 010151   200021 471500                    LDP1    P$$,,AUTO
        28 010152   100012 235100                    LDA     10,,PR1
        28 010153   000000 755000 20                 STA     MKCN

  41023 28 010154   200013 633500                    EPPR3   CONST$$,,AUTO
        28 010155   200024 453500                    STP3    APPEND_IND_OFF+1,,AUTO
        28 010156   200024 630500                    EPPR0   APPEND_IND_OFF+1,,AUTO
        28 010157   000005 631400 29                 EPPR1   5
        28 010160   000000 701000 xent               TSX1    Z8AC$MAKE_CONST
        28 010161   000000 011000                    NOP     0

  41024 28 010162   200020 470500                    LDP0    PTR$$,,AUTO
        28 010163   000022 236100                    LDQ     18,,PR0
        28 010164   200017 756100                    STQ     CGT_ST$,,AUTO

  41258 28 010165   000024 236000 29                 LDQ     20
        28 010166   200024 756100                    STQ     APPEND_IND_OFF+1,,AUTO
        28 010167   200024 631500                    EPPR1   APPEND_IND_OFF+1,,AUTO
        28 010170   200031 451500                    STP1    APPEND_IND_OFF+6,,AUTO
        28 010171   000025 236000 29                 LDQ     21
        28 010172   200030 756100                    STQ     APPEND_IND_OFF+5,,AUTO
        28 010173   000032 237000 29                 LDAQ    26
        28 010174   200026 757100                    STAQ    APPEND_IND_OFF+3,,AUTO
        28 010175   200026 630500                    EPPR0   APPEND_IND_OFF+3,,AUTO
PL6.E3A0      #003=Z8DT$REPORT_WRAPUP File=Z8DT.:Z8A6TSI                         SAT 08/09/97 11:31 Page:744
        28 010176   000022 631400 29                 EPPR1   18
        28 010177   000000 701000 xent               TSX1    Z8AN$NEW_ILL
        28 010200   000000 011000                    NOP     0

  41262 28 010201   000007 220003                    LDX0    7,DU
        28 010202   000000 470400 16                 LDP0    ILL$
        28 010203   000000 440100                    SXL0    0,,PR0

  41267 28 010204   000001 235007                    LDA     1,DL
        28 010205   000000 470400 16                 LDP0    ILL$
        28 010206   000003 755100                    STA     3,,PR0

  41269 28 010207   200017 236100                    LDQ     CGT_ST$,,AUTO
        28 010210   000001 756100                    STQ     1,,PR0

  41270 28 010211   200013 471500                    LDP1    CONST$$,,AUTO
        28 010212   100001 236100                    LDQ     1,,PR1
        28 010213   000002 756100                    STQ     2,,PR0

     4082    41415
     4083    41416    2      LTS$$ = O1COM.CURRENT_REPORT_LTS$ -> REPORT_LTS.DETAIL$;

  41416 28 010214   000064 471400 xsym               LDP1    O1COM+52
        28 010215   100027 236100                    LDQ     23,,PR1
        28 010216   200014 756100                    STQ     LTS$$,,AUTO

     4084    41417    2      APPEND_IND_TABLE$ = O1COM.CURRENT_REPORT_LTS$ -> REPORT_LTS.RWCT$;

  41417 28 010217   100022 236100                    LDQ     18,,PR1
        28 010220   200022 756100                    STQ     APPEND_IND_TABLE$,,AUTO

     4085    41418    2      APPEND_IND_OFF    = %FIRST_DETAIL_GI_OFF;

  41418 28 010221   000007 235007                    LDA     7,DL
        28 010222   200023 755100                    STA     APPEND_IND_OFF,,AUTO

     4086    41419
PL6.E3A0      #003=Z8DT$REPORT_WRAPUP File=Z8DT.:Z8A6TSI                         SAT 08/09/97 11:31 Page:745
     4087    41420    3      DO WHILE (LTS$$ ~= ADDR(NIL));

  41420 28 010223   010624 710000 28                 TRA     s:44557

     4088    41421
     4089    41422             %FILL_CGT_TBL (@POINTER = LTS$$);

  41424 28 010224   200014 236100                    LDQ     LTS$$,,AUTO
        28 010225   000004 116000 29                 CMPQ    4
        28 010226   010510 600000 28                 TZE     s:43658

  41426 28 010227   200020 756100                    STQ     PTR$$,,AUTO

  41430 28 010230   200021 756100                    STQ     P$$,,AUTO

  41435 28 010231   200021 470500                    LDP0    P$$,,AUTO
        28 010232   000017 235100                    LDA     15,,PR0
        28 010233   000000 755000 20                 STA     MKCN

  41436 28 010234   200013 631500                    EPPR1   CONST$$,,AUTO
        28 010235   200024 451500                    STP1    APPEND_IND_OFF+1,,AUTO
        28 010236   200024 630500                    EPPR0   APPEND_IND_OFF+1,,AUTO
        28 010237   000005 631400 29                 EPPR1   5
        28 010240   000000 701000 xent               TSX1    Z8AC$MAKE_CONST
        28 010241   000000 011000                    NOP     0

  41437 28 010242   200020 470500                    LDP0    PTR$$,,AUTO
        28 010243   000022 236100                    LDQ     18,,PR0
        28 010244   200017 756100                    STQ     CGT_ST$,,AUTO

  41671 28 010245   000024 236000 29                 LDQ     20
        28 010246   200024 756100                    STQ     APPEND_IND_OFF+1,,AUTO
        28 010247   200024 631500                    EPPR1   APPEND_IND_OFF+1,,AUTO
        28 010250   200031 451500                    STP1    APPEND_IND_OFF+6,,AUTO
        28 010251   000025 236000 29                 LDQ     21
        28 010252   200030 756100                    STQ     APPEND_IND_OFF+5,,AUTO
        28 010253   000032 237000 29                 LDAQ    26
PL6.E3A0      #003=Z8DT$REPORT_WRAPUP File=Z8DT.:Z8A6TSI                         SAT 08/09/97 11:31 Page:746
        28 010254   200026 757100                    STAQ    APPEND_IND_OFF+3,,AUTO
        28 010255   200026 630500                    EPPR0   APPEND_IND_OFF+3,,AUTO
        28 010256   000022 631400 29                 EPPR1   18
        28 010257   000000 701000 xent               TSX1    Z8AN$NEW_ILL
        28 010260   000000 011000                    NOP     0

  41675 28 010261   000003 220003                    LDX0    3,DU
        28 010262   000000 470400 16                 LDP0    ILL$
        28 010263   000000 440100                    SXL0    0,,PR0

  41680 28 010264   000001 235007                    LDA     1,DL
        28 010265   000000 470400 16                 LDP0    ILL$
        28 010266   000003 755100                    STA     3,,PR0

  41682 28 010267   200017 236100                    LDQ     CGT_ST$,,AUTO
        28 010270   000001 756100                    STQ     1,,PR0

  41683 28 010271   200013 471500                    LDP1    CONST$$,,AUTO
        28 010272   100001 236100                    LDQ     1,,PR1
        28 010273   000002 756100                    STQ     2,,PR0

  41827 28 010274   200021 471500                    LDP1    P$$,,AUTO
        28 010275   100020 235100                    LDA     16,,PR1
        28 010276   000000 755000 20                 STA     MKCN

  41828 28 010277   200013 633500                    EPPR3   CONST$$,,AUTO
        28 010300   200024 453500                    STP3    APPEND_IND_OFF+1,,AUTO
        28 010301   200024 630500                    EPPR0   APPEND_IND_OFF+1,,AUTO
        28 010302   000005 631400 29                 EPPR1   5
        28 010303   000000 701000 xent               TSX1    Z8AC$MAKE_CONST
        28 010304   000000 011000                    NOP     0

  41829 28 010305   200020 470500                    LDP0    PTR$$,,AUTO
        28 010306   000022 236100                    LDQ     18,,PR0
        28 010307   200017 756100                    STQ     CGT_ST$,,AUTO

  42063 28 010310   000024 236000 29                 LDQ     20
PL6.E3A0      #003=Z8DT$REPORT_WRAPUP File=Z8DT.:Z8A6TSI                         SAT 08/09/97 11:31 Page:747
        28 010311   200024 756100                    STQ     APPEND_IND_OFF+1,,AUTO
        28 010312   200024 631500                    EPPR1   APPEND_IND_OFF+1,,AUTO
        28 010313   200031 451500                    STP1    APPEND_IND_OFF+6,,AUTO
        28 010314   000025 236000 29                 LDQ     21
        28 010315   200030 756100                    STQ     APPEND_IND_OFF+5,,AUTO
        28 010316   000032 237000 29                 LDAQ    26
        28 010317   200026 757100                    STAQ    APPEND_IND_OFF+3,,AUTO
        28 010320   200026 630500                    EPPR0   APPEND_IND_OFF+3,,AUTO
        28 010321   000022 631400 29                 EPPR1   18
        28 010322   000000 701000 xent               TSX1    Z8AN$NEW_ILL
        28 010323   000000 011000                    NOP     0

  42067 28 010324   000004 220003                    LDX0    4,DU
        28 010325   000000 470400 16                 LDP0    ILL$
        28 010326   000000 440100                    SXL0    0,,PR0

  42072 28 010327   000001 235007                    LDA     1,DL
        28 010330   000000 470400 16                 LDP0    ILL$
        28 010331   000003 755100                    STA     3,,PR0

  42074 28 010332   200017 236100                    LDQ     CGT_ST$,,AUTO
        28 010333   000001 756100                    STQ     1,,PR0

  42075 28 010334   200013 471500                    LDP1    CONST$$,,AUTO
        28 010335   100001 236100                    LDQ     1,,PR1
        28 010336   000002 756100                    STQ     2,,PR0

  42219 28 010337   200021 471500                    LDP1    P$$,,AUTO
        28 010340   100013 235100                    LDA     11,,PR1
        28 010341   000000 755000 20                 STA     MKCN

  42220 28 010342   200013 633500                    EPPR3   CONST$$,,AUTO
        28 010343   200024 453500                    STP3    APPEND_IND_OFF+1,,AUTO
        28 010344   200024 630500                    EPPR0   APPEND_IND_OFF+1,,AUTO
        28 010345   000005 631400 29                 EPPR1   5
        28 010346   000000 701000 xent               TSX1    Z8AC$MAKE_CONST
        28 010347   000000 011000                    NOP     0
PL6.E3A0      #003=Z8DT$REPORT_WRAPUP File=Z8DT.:Z8A6TSI                         SAT 08/09/97 11:31 Page:748

  42221 28 010350   200020 470500                    LDP0    PTR$$,,AUTO
        28 010351   000022 236100                    LDQ     18,,PR0
        28 010352   200017 756100                    STQ     CGT_ST$,,AUTO

  42455 28 010353   000024 236000 29                 LDQ     20
        28 010354   200024 756100                    STQ     APPEND_IND_OFF+1,,AUTO
        28 010355   200024 631500                    EPPR1   APPEND_IND_OFF+1,,AUTO
        28 010356   200031 451500                    STP1    APPEND_IND_OFF+6,,AUTO
        28 010357   000025 236000 29                 LDQ     21
        28 010360   200030 756100                    STQ     APPEND_IND_OFF+5,,AUTO
        28 010361   000032 237000 29                 LDAQ    26
        28 010362   200026 757100                    STAQ    APPEND_IND_OFF+3,,AUTO
        28 010363   200026 630500                    EPPR0   APPEND_IND_OFF+3,,AUTO
        28 010364   000022 631400 29                 EPPR1   18
        28 010365   000000 701000 xent               TSX1    Z8AN$NEW_ILL
        28 010366   000000 011000                    NOP     0

  42459 28 010367   000005 220003                    LDX0    5,DU
        28 010370   000000 470400 16                 LDP0    ILL$
        28 010371   000000 440100                    SXL0    0,,PR0

  42464 28 010372   000001 235007                    LDA     1,DL
        28 010373   000000 470400 16                 LDP0    ILL$
        28 010374   000003 755100                    STA     3,,PR0

  42466 28 010375   200017 236100                    LDQ     CGT_ST$,,AUTO
        28 010376   000001 756100                    STQ     1,,PR0

  42467 28 010377   200013 471500                    LDP1    CONST$$,,AUTO
        28 010400   100001 236100                    LDQ     1,,PR1
        28 010401   000002 756100                    STQ     2,,PR0

  42611 28 010402   200021 471500                    LDP1    P$$,,AUTO
        28 010403   100011 235100                    LDA     9,,PR1
        28 010404   000000 755000 20                 STA     MKCN

PL6.E3A0      #003=Z8DT$REPORT_WRAPUP File=Z8DT.:Z8A6TSI                         SAT 08/09/97 11:31 Page:749
  42612 28 010405   200013 633500                    EPPR3   CONST$$,,AUTO
        28 010406   200024 453500                    STP3    APPEND_IND_OFF+1,,AUTO
        28 010407   200024 630500                    EPPR0   APPEND_IND_OFF+1,,AUTO
        28 010410   000005 631400 29                 EPPR1   5
        28 010411   000000 701000 xent               TSX1    Z8AC$MAKE_CONST
        28 010412   000000 011000                    NOP     0

  42613 28 010413   200020 470500                    LDP0    PTR$$,,AUTO
        28 010414   000022 236100                    LDQ     18,,PR0
        28 010415   200017 756100                    STQ     CGT_ST$,,AUTO

  42847 28 010416   000024 236000 29                 LDQ     20
        28 010417   200024 756100                    STQ     APPEND_IND_OFF+1,,AUTO
        28 010420   200024 631500                    EPPR1   APPEND_IND_OFF+1,,AUTO
        28 010421   200031 451500                    STP1    APPEND_IND_OFF+6,,AUTO
        28 010422   000025 236000 29                 LDQ     21
        28 010423   200030 756100                    STQ     APPEND_IND_OFF+5,,AUTO
        28 010424   000032 237000 29                 LDAQ    26
        28 010425   200026 757100                    STAQ    APPEND_IND_OFF+3,,AUTO
        28 010426   200026 630500                    EPPR0   APPEND_IND_OFF+3,,AUTO
        28 010427   000022 631400 29                 EPPR1   18
        28 010430   000000 701000 xent               TSX1    Z8AN$NEW_ILL
        28 010431   000000 011000                    NOP     0

  42851 28 010432   000006 220003                    LDX0    6,DU
        28 010433   000000 470400 16                 LDP0    ILL$
        28 010434   000000 440100                    SXL0    0,,PR0

  42856 28 010435   000001 235007                    LDA     1,DL
        28 010436   000000 470400 16                 LDP0    ILL$
        28 010437   000003 755100                    STA     3,,PR0

  42858 28 010440   200017 236100                    LDQ     CGT_ST$,,AUTO
        28 010441   000001 756100                    STQ     1,,PR0

  42859 28 010442   200013 471500                    LDP1    CONST$$,,AUTO
        28 010443   100001 236100                    LDQ     1,,PR1
PL6.E3A0      #003=Z8DT$REPORT_WRAPUP File=Z8DT.:Z8A6TSI                         SAT 08/09/97 11:31 Page:750
        28 010444   000002 756100                    STQ     2,,PR0

  43003 28 010445   200021 471500                    LDP1    P$$,,AUTO
        28 010446   100012 235100                    LDA     10,,PR1
        28 010447   000000 755000 20                 STA     MKCN

  43004 28 010450   200013 633500                    EPPR3   CONST$$,,AUTO
        28 010451   200024 453500                    STP3    APPEND_IND_OFF+1,,AUTO
        28 010452   200024 630500                    EPPR0   APPEND_IND_OFF+1,,AUTO
        28 010453   000005 631400 29                 EPPR1   5
        28 010454   000000 701000 xent               TSX1    Z8AC$MAKE_CONST
        28 010455   000000 011000                    NOP     0

  43005 28 010456   200020 470500                    LDP0    PTR$$,,AUTO
        28 010457   000022 236100                    LDQ     18,,PR0
        28 010460   200017 756100                    STQ     CGT_ST$,,AUTO

  43239 28 010461   000024 236000 29                 LDQ     20
        28 010462   200024 756100                    STQ     APPEND_IND_OFF+1,,AUTO
        28 010463   200024 631500                    EPPR1   APPEND_IND_OFF+1,,AUTO
        28 010464   200031 451500                    STP1    APPEND_IND_OFF+6,,AUTO
        28 010465   000025 236000 29                 LDQ     21
        28 010466   200030 756100                    STQ     APPEND_IND_OFF+5,,AUTO
        28 010467   000032 237000 29                 LDAQ    26
        28 010470   200026 757100                    STAQ    APPEND_IND_OFF+3,,AUTO
        28 010471   200026 630500                    EPPR0   APPEND_IND_OFF+3,,AUTO
        28 010472   000022 631400 29                 EPPR1   18
        28 010473   000000 701000 xent               TSX1    Z8AN$NEW_ILL
        28 010474   000000 011000                    NOP     0

  43243 28 010475   000007 220003                    LDX0    7,DU
        28 010476   000000 470400 16                 LDP0    ILL$
        28 010477   000000 440100                    SXL0    0,,PR0

  43248 28 010500   000001 235007                    LDA     1,DL
        28 010501   000000 470400 16                 LDP0    ILL$
        28 010502   000003 755100                    STA     3,,PR0
PL6.E3A0      #003=Z8DT$REPORT_WRAPUP File=Z8DT.:Z8A6TSI                         SAT 08/09/97 11:31 Page:751

  43250 28 010503   200017 236100                    LDQ     CGT_ST$,,AUTO
        28 010504   000001 756100                    STQ     1,,PR0

  43251 28 010505   200013 471500                    LDP1    CONST$$,,AUTO
        28 010506   100001 236100                    LDQ     1,,PR1
        28 010507   000002 756100                    STQ     2,,PR0

     4090    43396
     4091    43397             %NEW_ILL (@ID     = %P_A_PRESET,
     4092    43398                       @OFFSET = %RWCT_ADDR_OFF,
     4093    43399                       @TO     = LTS$$ -> REPORT_01_LTS.RWCT$,
     4094    43400                       @LOP    = O1COM.CURRENT_REPORT_LTS$ -> REPORT_LTS.RWCT$,
     4095    43401                       @ROPCON = %ROPCON_0);

  43658 28 010510   000024 236000 29                 LDQ     20
        28 010511   200024 756100                    STQ     APPEND_IND_OFF+1,,AUTO
        28 010512   200024 630500                    EPPR0   APPEND_IND_OFF+1,,AUTO
        28 010513   200031 450500                    STP0    APPEND_IND_OFF+6,,AUTO
        28 010514   000025 236000 29                 LDQ     21
        28 010515   200030 756100                    STQ     APPEND_IND_OFF+5,,AUTO
        28 010516   000026 237000 29                 LDAQ    22
        28 010517   200026 757100                    STAQ    APPEND_IND_OFF+3,,AUTO
        28 010520   200026 630500                    EPPR0   APPEND_IND_OFF+3,,AUTO
        28 010521   000022 631400 29                 EPPR1   18
        28 010522   000000 701000 xent               TSX1    Z8AN$NEW_ILL
        28 010523   000000 011000                    NOP     0

  43662 28 010524   000012 220003                    LDX0    10,DU
        28 010525   000000 470400 16                 LDP0    ILL$
        28 010526   000000 440100                    SXL0    0,,PR0

  43664 28 010527   000000 470400 16                 LDP0    ILL$
        28 010530   000002 450100                    STZ     2,,PR0

  43665 28 010531   000064 471400 xsym               LDP1    O1COM+52
        28 010532   100022 236100                    LDQ     18,,PR1
PL6.E3A0      #003=Z8DT$REPORT_WRAPUP File=Z8DT.:Z8A6TSI                         SAT 08/09/97 11:31 Page:752
        28 010533   000001 756100                    STQ     1,,PR0

  43666 28 010534   200014 471500                    LDP1    LTS$$,,AUTO
        28 010535   100022 236100                    LDQ     18,,PR1
        28 010536   000003 756100                    STQ     3,,PR0

     4096    43780
     4097    43781    3        IF LTS$$ -> REPORT_01_LTS.B.GROUP_INDICATE THEN

  43781 28 010537   100000 236100                    LDQ     0,,PR1
        28 010540   020000 316007                    CANQ    8192,DL
        28 010541   010622 600000 28                 TZE     s:44555

     4098    43782    4          DO;

     4099    43783                 %NEW_ILL (@ID     = %P_A_PRESET,
     4100    43784                           @OFFSET = %GROUP_IND_SWITCH_OFF,
     4101    43785                           @TO     = LTS$$ -> REPORT_01_LTS.RWCT$,
     4102    43786                           @LOP    = LTS$$ -> REPORT_01_LTS.GROUP_INDICATOR$,
     4103    43787                           @ROPCON = %ROPCON_0);

  44044 28 010542   000024 236000 29                 LDQ     20
        28 010543   200024 756100                    STQ     APPEND_IND_OFF+1,,AUTO
        28 010544   200024 633500                    EPPR3   APPEND_IND_OFF+1,,AUTO
        28 010545   200031 453500                    STP3    APPEND_IND_OFF+6,,AUTO
        28 010546   000025 236000 29                 LDQ     21
        28 010547   200030 756100                    STQ     APPEND_IND_OFF+5,,AUTO
        28 010550   000026 237000 29                 LDAQ    22
        28 010551   200026 757100                    STAQ    APPEND_IND_OFF+3,,AUTO
        28 010552   200026 630500                    EPPR0   APPEND_IND_OFF+3,,AUTO
        28 010553   000022 631400 29                 EPPR1   18
        28 010554   000000 701000 xent               TSX1    Z8AN$NEW_ILL
        28 010555   000000 011000                    NOP     0

  44048 28 010556   000013 220003                    LDX0    11,DU
        28 010557   000000 470400 16                 LDP0    ILL$
        28 010560   000000 440100                    SXL0    0,,PR0
PL6.E3A0      #003=Z8DT$REPORT_WRAPUP File=Z8DT.:Z8A6TSI                         SAT 08/09/97 11:31 Page:753

  44050 28 010561   000000 470400 16                 LDP0    ILL$
        28 010562   000002 450100                    STZ     2,,PR0

  44051 28 010563   200014 471500                    LDP1    LTS$$,,AUTO
        28 010564   100023 236100                    LDQ     19,,PR1
        28 010565   000001 756100                    STQ     1,,PR0

  44052 28 010566   100022 236100                    LDQ     18,,PR1
        28 010567   000003 756100                    STQ     3,,PR0

     4104    44166
     4105    44167                 %NEW_ILL (@ID     = %P_A_PRESET,
     4106    44168                           @OFFSET = APPEND_IND_OFF,
     4107    44169                           @TO     = APPEND_IND_TABLE$,
     4108    44170                           @LOP    = LTS$$ -> REPORT_01_LTS.RWCT$,
     4109    44171                           @ROPCON = %ROPCON_0);

  44428 28 010570   000024 236000 29                 LDQ     20
        28 010571   200024 756100                    STQ     APPEND_IND_OFF+1,,AUTO
        28 010572   200024 633500                    EPPR3   APPEND_IND_OFF+1,,AUTO
        28 010573   200031 453500                    STP3    APPEND_IND_OFF+6,,AUTO
        28 010574   000025 236000 29                 LDQ     21
        28 010575   200030 756100                    STQ     APPEND_IND_OFF+5,,AUTO
        28 010576   000026 237000 29                 LDAQ    22
        28 010577   200026 757100                    STAQ    APPEND_IND_OFF+3,,AUTO
        28 010600   200026 630500                    EPPR0   APPEND_IND_OFF+3,,AUTO
        28 010601   000022 631400 29                 EPPR1   18
        28 010602   000000 701000 xent               TSX1    Z8AN$NEW_ILL
        28 010603   000000 011000                    NOP     0

  44432 28 010604   200023 720100                    LXL0    APPEND_IND_OFF,,AUTO
        28 010605   000000 470400 16                 LDP0    ILL$
        28 010606   000000 440100                    SXL0    0,,PR0

  44434 28 010607   000000 470400 16                 LDP0    ILL$
        28 010610   000002 450100                    STZ     2,,PR0
PL6.E3A0      #003=Z8DT$REPORT_WRAPUP File=Z8DT.:Z8A6TSI                         SAT 08/09/97 11:31 Page:754

  44435 28 010611   200014 471500                    LDP1    LTS$$,,AUTO
        28 010612   100022 236100                    LDQ     18,,PR1
        28 010613   000001 756100                    STQ     1,,PR0

  44436 28 010614   200022 236100                    LDQ     APPEND_IND_TABLE$,,AUTO
        28 010615   000003 756100                    STQ     3,,PR0

     4110    44550
     4111    44551    4            APPEND_IND_TABLE$ = LTS$$ -> REPORT_01_LTS.RWCT$;

  44551 28 010616   100022 236100                    LDQ     18,,PR1
        28 010617   200022 756100                    STQ     APPEND_IND_TABLE$,,AUTO

     4112    44552    4            APPEND_IND_OFF    = %NEXT_DETAIL_IND_OFF;

  44552 28 010620   000011 235007                    LDA     9,DL
        28 010621   200023 755100                    STA     APPEND_IND_OFF,,AUTO

     4113    44553    4          END;

     4114    44554
     4115    44555    3        LTS$$ = LTS$$ -> REPORT_01_LTS.LINK;

  44555 28 010622   100007 236100                    LDQ     7,,PR1
        28 010623   200014 756100                    STQ     LTS$$,,AUTO

     4116    44556
     4117    44557    3      END;  /* while */

  44557 28 010624   200014 236100                    LDQ     LTS$$,,AUTO
        28 010625   000004 116000 29                 CMPQ    4
        28 010626   010224 601000 28                 TNZ     s:41424

     4118    44558
     4119    44559    2      LTS$$ = O1COM.CURRENT_REPORT_LTS$ -> REPORT_LTS.CONTROL_HEADING$;

PL6.E3A0      #003=Z8DT$REPORT_WRAPUP File=Z8DT.:Z8A6TSI                         SAT 08/09/97 11:31 Page:755
  44559 28 010627   000064 471400 xsym               LDP1    O1COM+52
        28 010630   100026 236100                    LDQ     22,,PR1
        28 010631   200014 756100                    STQ     LTS$$,,AUTO

     4120    44560
     4121    44561    3      DO WHILE (LTS$$ ~= ADDR(NIL));

  44561 28 010632   011122 710000 28                 TRA     s:46540

     4122    44562
     4123    44563             %FILL_CGT_TBL (@POINTER = LTS$$);

  44565 28 010633   200014 236100                    LDQ     LTS$$,,AUTO
        28 010634   000004 116000 29                 CMPQ    4
        28 010635   011117 600000 28                 TZE     s:46538

  44567 28 010636   200020 756100                    STQ     PTR$$,,AUTO

  44571 28 010637   200021 756100                    STQ     P$$,,AUTO

  44576 28 010640   200021 470500                    LDP0    P$$,,AUTO
        28 010641   000017 235100                    LDA     15,,PR0
        28 010642   000000 755000 20                 STA     MKCN

  44577 28 010643   200013 631500                    EPPR1   CONST$$,,AUTO
        28 010644   200024 451500                    STP1    APPEND_IND_OFF+1,,AUTO
        28 010645   200024 630500                    EPPR0   APPEND_IND_OFF+1,,AUTO
        28 010646   000005 631400 29                 EPPR1   5
        28 010647   000000 701000 xent               TSX1    Z8AC$MAKE_CONST
        28 010650   000000 011000                    NOP     0

  44578 28 010651   200020 470500                    LDP0    PTR$$,,AUTO
        28 010652   000022 236100                    LDQ     18,,PR0
        28 010653   200017 756100                    STQ     CGT_ST$,,AUTO

  44812 28 010654   000024 236000 29                 LDQ     20
        28 010655   200024 756100                    STQ     APPEND_IND_OFF+1,,AUTO
PL6.E3A0      #003=Z8DT$REPORT_WRAPUP File=Z8DT.:Z8A6TSI                         SAT 08/09/97 11:31 Page:756
        28 010656   200024 631500                    EPPR1   APPEND_IND_OFF+1,,AUTO
        28 010657   200031 451500                    STP1    APPEND_IND_OFF+6,,AUTO
        28 010660   000025 236000 29                 LDQ     21
        28 010661   200030 756100                    STQ     APPEND_IND_OFF+5,,AUTO
        28 010662   000032 237000 29                 LDAQ    26
        28 010663   200026 757100                    STAQ    APPEND_IND_OFF+3,,AUTO
        28 010664   200026 630500                    EPPR0   APPEND_IND_OFF+3,,AUTO
        28 010665   000022 631400 29                 EPPR1   18
        28 010666   000000 701000 xent               TSX1    Z8AN$NEW_ILL
        28 010667   000000 011000                    NOP     0

  44816 28 010670   000003 220003                    LDX0    3,DU
        28 010671   000000 470400 16                 LDP0    ILL$
        28 010672   000000 440100                    SXL0    0,,PR0

  44821 28 010673   000001 235007                    LDA     1,DL
        28 010674   000000 470400 16                 LDP0    ILL$
        28 010675   000003 755100                    STA     3,,PR0

  44823 28 010676   200017 236100                    LDQ     CGT_ST$,,AUTO
        28 010677   000001 756100                    STQ     1,,PR0

  44824 28 010700   200013 471500                    LDP1    CONST$$,,AUTO
        28 010701   100001 236100                    LDQ     1,,PR1
        28 010702   000002 756100                    STQ     2,,PR0

  44968 28 010703   200021 471500                    LDP1    P$$,,AUTO
        28 010704   100020 235100                    LDA     16,,PR1
        28 010705   000000 755000 20                 STA     MKCN

  44969 28 010706   200013 633500                    EPPR3   CONST$$,,AUTO
        28 010707   200024 453500                    STP3    APPEND_IND_OFF+1,,AUTO
        28 010710   200024 630500                    EPPR0   APPEND_IND_OFF+1,,AUTO
        28 010711   000005 631400 29                 EPPR1   5
        28 010712   000000 701000 xent               TSX1    Z8AC$MAKE_CONST
        28 010713   000000 011000                    NOP     0

PL6.E3A0      #003=Z8DT$REPORT_WRAPUP File=Z8DT.:Z8A6TSI                         SAT 08/09/97 11:31 Page:757
  44970 28 010714   200020 470500                    LDP0    PTR$$,,AUTO
        28 010715   000022 236100                    LDQ     18,,PR0
        28 010716   200017 756100                    STQ     CGT_ST$,,AUTO

  45204 28 010717   000024 236000 29                 LDQ     20
        28 010720   200024 756100                    STQ     APPEND_IND_OFF+1,,AUTO
        28 010721   200024 631500                    EPPR1   APPEND_IND_OFF+1,,AUTO
        28 010722   200031 451500                    STP1    APPEND_IND_OFF+6,,AUTO
        28 010723   000025 236000 29                 LDQ     21
        28 010724   200030 756100                    STQ     APPEND_IND_OFF+5,,AUTO
        28 010725   000032 237000 29                 LDAQ    26
        28 010726   200026 757100                    STAQ    APPEND_IND_OFF+3,,AUTO
        28 010727   200026 630500                    EPPR0   APPEND_IND_OFF+3,,AUTO
        28 010730   000022 631400 29                 EPPR1   18
        28 010731   000000 701000 xent               TSX1    Z8AN$NEW_ILL
        28 010732   000000 011000                    NOP     0

  45208 28 010733   000004 220003                    LDX0    4,DU
        28 010734   000000 470400 16                 LDP0    ILL$
        28 010735   000000 440100                    SXL0    0,,PR0

  45213 28 010736   000001 235007                    LDA     1,DL
        28 010737   000000 470400 16                 LDP0    ILL$
        28 010740   000003 755100                    STA     3,,PR0

  45215 28 010741   200017 236100                    LDQ     CGT_ST$,,AUTO
        28 010742   000001 756100                    STQ     1,,PR0

  45216 28 010743   200013 471500                    LDP1    CONST$$,,AUTO
        28 010744   100001 236100                    LDQ     1,,PR1
        28 010745   000002 756100                    STQ     2,,PR0

  45360 28 010746   200021 471500                    LDP1    P$$,,AUTO
        28 010747   100013 235100                    LDA     11,,PR1
        28 010750   000000 755000 20                 STA     MKCN

  45361 28 010751   200013 633500                    EPPR3   CONST$$,,AUTO
PL6.E3A0      #003=Z8DT$REPORT_WRAPUP File=Z8DT.:Z8A6TSI                         SAT 08/09/97 11:31 Page:758
        28 010752   200024 453500                    STP3    APPEND_IND_OFF+1,,AUTO
        28 010753   200024 630500                    EPPR0   APPEND_IND_OFF+1,,AUTO
        28 010754   000005 631400 29                 EPPR1   5
        28 010755   000000 701000 xent               TSX1    Z8AC$MAKE_CONST
        28 010756   000000 011000                    NOP     0

  45362 28 010757   200020 470500                    LDP0    PTR$$,,AUTO
        28 010760   000022 236100                    LDQ     18,,PR0
        28 010761   200017 756100                    STQ     CGT_ST$,,AUTO

  45596 28 010762   000024 236000 29                 LDQ     20
        28 010763   200024 756100                    STQ     APPEND_IND_OFF+1,,AUTO
        28 010764   200024 631500                    EPPR1   APPEND_IND_OFF+1,,AUTO
        28 010765   200031 451500                    STP1    APPEND_IND_OFF+6,,AUTO
        28 010766   000025 236000 29                 LDQ     21
        28 010767   200030 756100                    STQ     APPEND_IND_OFF+5,,AUTO
        28 010770   000032 237000 29                 LDAQ    26
        28 010771   200026 757100                    STAQ    APPEND_IND_OFF+3,,AUTO
        28 010772   200026 630500                    EPPR0   APPEND_IND_OFF+3,,AUTO
        28 010773   000022 631400 29                 EPPR1   18
        28 010774   000000 701000 xent               TSX1    Z8AN$NEW_ILL
        28 010775   000000 011000                    NOP     0

  45600 28 010776   000005 220003                    LDX0    5,DU
        28 010777   000000 470400 16                 LDP0    ILL$
        28 011000   000000 440100                    SXL0    0,,PR0

  45605 28 011001   000001 235007                    LDA     1,DL
        28 011002   000000 470400 16                 LDP0    ILL$
        28 011003   000003 755100                    STA     3,,PR0

  45607 28 011004   200017 236100                    LDQ     CGT_ST$,,AUTO
        28 011005   000001 756100                    STQ     1,,PR0

  45608 28 011006   200013 471500                    LDP1    CONST$$,,AUTO
        28 011007   100001 236100                    LDQ     1,,PR1
        28 011010   000002 756100                    STQ     2,,PR0
PL6.E3A0      #003=Z8DT$REPORT_WRAPUP File=Z8DT.:Z8A6TSI                         SAT 08/09/97 11:31 Page:759

  45752 28 011011   200021 471500                    LDP1    P$$,,AUTO
        28 011012   100011 235100                    LDA     9,,PR1
        28 011013   000000 755000 20                 STA     MKCN

  45753 28 011014   200013 633500                    EPPR3   CONST$$,,AUTO
        28 011015   200024 453500                    STP3    APPEND_IND_OFF+1,,AUTO
        28 011016   200024 630500                    EPPR0   APPEND_IND_OFF+1,,AUTO
        28 011017   000005 631400 29                 EPPR1   5
        28 011020   000000 701000 xent               TSX1    Z8AC$MAKE_CONST
        28 011021   000000 011000                    NOP     0

  45754 28 011022   200020 470500                    LDP0    PTR$$,,AUTO
        28 011023   000022 236100                    LDQ     18,,PR0
        28 011024   200017 756100                    STQ     CGT_ST$,,AUTO

  45988 28 011025   000024 236000 29                 LDQ     20
        28 011026   200024 756100                    STQ     APPEND_IND_OFF+1,,AUTO
        28 011027   200024 631500                    EPPR1   APPEND_IND_OFF+1,,AUTO
        28 011030   200031 451500                    STP1    APPEND_IND_OFF+6,,AUTO
        28 011031   000025 236000 29                 LDQ     21
        28 011032   200030 756100                    STQ     APPEND_IND_OFF+5,,AUTO
        28 011033   000032 237000 29                 LDAQ    26
        28 011034   200026 757100                    STAQ    APPEND_IND_OFF+3,,AUTO
        28 011035   200026 630500                    EPPR0   APPEND_IND_OFF+3,,AUTO
        28 011036   000022 631400 29                 EPPR1   18
        28 011037   000000 701000 xent               TSX1    Z8AN$NEW_ILL
        28 011040   000000 011000                    NOP     0

  45992 28 011041   000006 220003                    LDX0    6,DU
        28 011042   000000 470400 16                 LDP0    ILL$
        28 011043   000000 440100                    SXL0    0,,PR0

  45997 28 011044   000001 235007                    LDA     1,DL
        28 011045   000000 470400 16                 LDP0    ILL$
        28 011046   000003 755100                    STA     3,,PR0

PL6.E3A0      #003=Z8DT$REPORT_WRAPUP File=Z8DT.:Z8A6TSI                         SAT 08/09/97 11:31 Page:760
  45999 28 011047   200017 236100                    LDQ     CGT_ST$,,AUTO
        28 011050   000001 756100                    STQ     1,,PR0

  46000 28 011051   200013 471500                    LDP1    CONST$$,,AUTO
        28 011052   100001 236100                    LDQ     1,,PR1
        28 011053   000002 756100                    STQ     2,,PR0

  46144 28 011054   200021 471500                    LDP1    P$$,,AUTO
        28 011055   100012 235100                    LDA     10,,PR1
        28 011056   000000 755000 20                 STA     MKCN

  46145 28 011057   200013 633500                    EPPR3   CONST$$,,AUTO
        28 011060   200024 453500                    STP3    APPEND_IND_OFF+1,,AUTO
        28 011061   200024 630500                    EPPR0   APPEND_IND_OFF+1,,AUTO
        28 011062   000005 631400 29                 EPPR1   5
        28 011063   000000 701000 xent               TSX1    Z8AC$MAKE_CONST
        28 011064   000000 011000                    NOP     0

  46146 28 011065   200020 470500                    LDP0    PTR$$,,AUTO
        28 011066   000022 236100                    LDQ     18,,PR0
        28 011067   200017 756100                    STQ     CGT_ST$,,AUTO

  46380 28 011070   000024 236000 29                 LDQ     20
        28 011071   200024 756100                    STQ     APPEND_IND_OFF+1,,AUTO
        28 011072   200024 631500                    EPPR1   APPEND_IND_OFF+1,,AUTO
        28 011073   200031 451500                    STP1    APPEND_IND_OFF+6,,AUTO
        28 011074   000025 236000 29                 LDQ     21
        28 011075   200030 756100                    STQ     APPEND_IND_OFF+5,,AUTO
        28 011076   000032 237000 29                 LDAQ    26
        28 011077   200026 757100                    STAQ    APPEND_IND_OFF+3,,AUTO
        28 011100   200026 630500                    EPPR0   APPEND_IND_OFF+3,,AUTO
        28 011101   000022 631400 29                 EPPR1   18
        28 011102   000000 701000 xent               TSX1    Z8AN$NEW_ILL
        28 011103   000000 011000                    NOP     0

  46384 28 011104   000007 220003                    LDX0    7,DU
        28 011105   000000 470400 16                 LDP0    ILL$
PL6.E3A0      #003=Z8DT$REPORT_WRAPUP File=Z8DT.:Z8A6TSI                         SAT 08/09/97 11:31 Page:761
        28 011106   000000 440100                    SXL0    0,,PR0

  46389 28 011107   000001 235007                    LDA     1,DL
        28 011110   000000 470400 16                 LDP0    ILL$
        28 011111   000003 755100                    STA     3,,PR0

  46391 28 011112   200017 236100                    LDQ     CGT_ST$,,AUTO
        28 011113   000001 756100                    STQ     1,,PR0

  46392 28 011114   200013 471500                    LDP1    CONST$$,,AUTO
        28 011115   100001 236100                    LDQ     1,,PR1
        28 011116   000002 756100                    STQ     2,,PR0

     4124    46537
     4125    46538    3        LTS$$ = LTS$$ -> REPORT_01_LTS.LINK;

  46538 28 011117   200014 470500                    LDP0    LTS$$,,AUTO
        28 011120   000007 236100                    LDQ     7,,PR0
        28 011121   200014 756100                    STQ     LTS$$,,AUTO

     4126    46539
     4127    46540    3      END;  /* while */

  46540 28 011122   000004 116000 29                 CMPQ    4
        28 011123   010633 601000 28                 TNZ     s:44565

     4128    46541
     4129    46542    2      LTS$$ = O1COM.CURRENT_REPORT_LTS$ -> REPORT_LTS.CONTROL_FOOTING$;

  46542 28 011124   000064 470400 xsym               LDP0    O1COM+52
        28 011125   000030 236100                    LDQ     24,,PR0
        28 011126   200014 756100                    STQ     LTS$$,,AUTO

     4130    46543
     4131    46544    3      DO WHILE (LTS$$ ~= ADDR(NIL));

  46544 28 011127   011417 710000 28                 TRA     s:48523
PL6.E3A0      #003=Z8DT$REPORT_WRAPUP File=Z8DT.:Z8A6TSI                         SAT 08/09/97 11:31 Page:762

     4132    46545
     4133    46546             %FILL_CGT_TBL (@POINTER = LTS$$);

  46548 28 011130   200014 236100                    LDQ     LTS$$,,AUTO
        28 011131   000004 116000 29                 CMPQ    4
        28 011132   011414 600000 28                 TZE     s:48521

  46550 28 011133   200020 756100                    STQ     PTR$$,,AUTO

  46554 28 011134   200021 756100                    STQ     P$$,,AUTO

  46559 28 011135   200021 470500                    LDP0    P$$,,AUTO
        28 011136   000017 235100                    LDA     15,,PR0
        28 011137   000000 755000 20                 STA     MKCN

  46560 28 011140   200013 631500                    EPPR1   CONST$$,,AUTO
        28 011141   200024 451500                    STP1    APPEND_IND_OFF+1,,AUTO
        28 011142   200024 630500                    EPPR0   APPEND_IND_OFF+1,,AUTO
        28 011143   000005 631400 29                 EPPR1   5
        28 011144   000000 701000 xent               TSX1    Z8AC$MAKE_CONST
        28 011145   000000 011000                    NOP     0

  46561 28 011146   200020 470500                    LDP0    PTR$$,,AUTO
        28 011147   000022 236100                    LDQ     18,,PR0
        28 011150   200017 756100                    STQ     CGT_ST$,,AUTO

  46795 28 011151   000024 236000 29                 LDQ     20
        28 011152   200024 756100                    STQ     APPEND_IND_OFF+1,,AUTO
        28 011153   200024 631500                    EPPR1   APPEND_IND_OFF+1,,AUTO
        28 011154   200031 451500                    STP1    APPEND_IND_OFF+6,,AUTO
        28 011155   000025 236000 29                 LDQ     21
        28 011156   200030 756100                    STQ     APPEND_IND_OFF+5,,AUTO
        28 011157   000032 237000 29                 LDAQ    26
        28 011160   200026 757100                    STAQ    APPEND_IND_OFF+3,,AUTO
        28 011161   200026 630500                    EPPR0   APPEND_IND_OFF+3,,AUTO
        28 011162   000022 631400 29                 EPPR1   18
PL6.E3A0      #003=Z8DT$REPORT_WRAPUP File=Z8DT.:Z8A6TSI                         SAT 08/09/97 11:31 Page:763
        28 011163   000000 701000 xent               TSX1    Z8AN$NEW_ILL
        28 011164   000000 011000                    NOP     0

  46799 28 011165   000003 220003                    LDX0    3,DU
        28 011166   000000 470400 16                 LDP0    ILL$
        28 011167   000000 440100                    SXL0    0,,PR0

  46804 28 011170   000001 235007                    LDA     1,DL
        28 011171   000000 470400 16                 LDP0    ILL$
        28 011172   000003 755100                    STA     3,,PR0

  46806 28 011173   200017 236100                    LDQ     CGT_ST$,,AUTO
        28 011174   000001 756100                    STQ     1,,PR0

  46807 28 011175   200013 471500                    LDP1    CONST$$,,AUTO
        28 011176   100001 236100                    LDQ     1,,PR1
        28 011177   000002 756100                    STQ     2,,PR0

  46951 28 011200   200021 471500                    LDP1    P$$,,AUTO
        28 011201   100020 235100                    LDA     16,,PR1
        28 011202   000000 755000 20                 STA     MKCN

  46952 28 011203   200013 633500                    EPPR3   CONST$$,,AUTO
        28 011204   200024 453500                    STP3    APPEND_IND_OFF+1,,AUTO
        28 011205   200024 630500                    EPPR0   APPEND_IND_OFF+1,,AUTO
        28 011206   000005 631400 29                 EPPR1   5
        28 011207   000000 701000 xent               TSX1    Z8AC$MAKE_CONST
        28 011210   000000 011000                    NOP     0

  46953 28 011211   200020 470500                    LDP0    PTR$$,,AUTO
        28 011212   000022 236100                    LDQ     18,,PR0
        28 011213   200017 756100                    STQ     CGT_ST$,,AUTO

  47187 28 011214   000024 236000 29                 LDQ     20
        28 011215   200024 756100                    STQ     APPEND_IND_OFF+1,,AUTO
        28 011216   200024 631500                    EPPR1   APPEND_IND_OFF+1,,AUTO
        28 011217   200031 451500                    STP1    APPEND_IND_OFF+6,,AUTO
PL6.E3A0      #003=Z8DT$REPORT_WRAPUP File=Z8DT.:Z8A6TSI                         SAT 08/09/97 11:31 Page:764
        28 011220   000025 236000 29                 LDQ     21
        28 011221   200030 756100                    STQ     APPEND_IND_OFF+5,,AUTO
        28 011222   000032 237000 29                 LDAQ    26
        28 011223   200026 757100                    STAQ    APPEND_IND_OFF+3,,AUTO
        28 011224   200026 630500                    EPPR0   APPEND_IND_OFF+3,,AUTO
        28 011225   000022 631400 29                 EPPR1   18
        28 011226   000000 701000 xent               TSX1    Z8AN$NEW_ILL
        28 011227   000000 011000                    NOP     0

  47191 28 011230   000004 220003                    LDX0    4,DU
        28 011231   000000 470400 16                 LDP0    ILL$
        28 011232   000000 440100                    SXL0    0,,PR0

  47196 28 011233   000001 235007                    LDA     1,DL
        28 011234   000000 470400 16                 LDP0    ILL$
        28 011235   000003 755100                    STA     3,,PR0

  47198 28 011236   200017 236100                    LDQ     CGT_ST$,,AUTO
        28 011237   000001 756100                    STQ     1,,PR0

  47199 28 011240   200013 471500                    LDP1    CONST$$,,AUTO
        28 011241   100001 236100                    LDQ     1,,PR1
        28 011242   000002 756100                    STQ     2,,PR0

  47343 28 011243   200021 471500                    LDP1    P$$,,AUTO
        28 011244   100013 235100                    LDA     11,,PR1
        28 011245   000000 755000 20                 STA     MKCN

  47344 28 011246   200013 633500                    EPPR3   CONST$$,,AUTO
        28 011247   200024 453500                    STP3    APPEND_IND_OFF+1,,AUTO
        28 011250   200024 630500                    EPPR0   APPEND_IND_OFF+1,,AUTO
        28 011251   000005 631400 29                 EPPR1   5
        28 011252   000000 701000 xent               TSX1    Z8AC$MAKE_CONST
        28 011253   000000 011000                    NOP     0

  47345 28 011254   200020 470500                    LDP0    PTR$$,,AUTO
        28 011255   000022 236100                    LDQ     18,,PR0
PL6.E3A0      #003=Z8DT$REPORT_WRAPUP File=Z8DT.:Z8A6TSI                         SAT 08/09/97 11:31 Page:765
        28 011256   200017 756100                    STQ     CGT_ST$,,AUTO

  47579 28 011257   000024 236000 29                 LDQ     20
        28 011260   200024 756100                    STQ     APPEND_IND_OFF+1,,AUTO
        28 011261   200024 631500                    EPPR1   APPEND_IND_OFF+1,,AUTO
        28 011262   200031 451500                    STP1    APPEND_IND_OFF+6,,AUTO
        28 011263   000025 236000 29                 LDQ     21
        28 011264   200030 756100                    STQ     APPEND_IND_OFF+5,,AUTO
        28 011265   000032 237000 29                 LDAQ    26
        28 011266   200026 757100                    STAQ    APPEND_IND_OFF+3,,AUTO
        28 011267   200026 630500                    EPPR0   APPEND_IND_OFF+3,,AUTO
        28 011270   000022 631400 29                 EPPR1   18
        28 011271   000000 701000 xent               TSX1    Z8AN$NEW_ILL
        28 011272   000000 011000                    NOP     0

  47583 28 011273   000005 220003                    LDX0    5,DU
        28 011274   000000 470400 16                 LDP0    ILL$
        28 011275   000000 440100                    SXL0    0,,PR0

  47588 28 011276   000001 235007                    LDA     1,DL
        28 011277   000000 470400 16                 LDP0    ILL$
        28 011300   000003 755100                    STA     3,,PR0

  47590 28 011301   200017 236100                    LDQ     CGT_ST$,,AUTO
        28 011302   000001 756100                    STQ     1,,PR0

  47591 28 011303   200013 471500                    LDP1    CONST$$,,AUTO
        28 011304   100001 236100                    LDQ     1,,PR1
        28 011305   000002 756100                    STQ     2,,PR0

  47735 28 011306   200021 471500                    LDP1    P$$,,AUTO
        28 011307   100011 235100                    LDA     9,,PR1
        28 011310   000000 755000 20                 STA     MKCN

  47736 28 011311   200013 633500                    EPPR3   CONST$$,,AUTO
        28 011312   200024 453500                    STP3    APPEND_IND_OFF+1,,AUTO
        28 011313   200024 630500                    EPPR0   APPEND_IND_OFF+1,,AUTO
PL6.E3A0      #003=Z8DT$REPORT_WRAPUP File=Z8DT.:Z8A6TSI                         SAT 08/09/97 11:31 Page:766
        28 011314   000005 631400 29                 EPPR1   5
        28 011315   000000 701000 xent               TSX1    Z8AC$MAKE_CONST
        28 011316   000000 011000                    NOP     0

  47737 28 011317   200020 470500                    LDP0    PTR$$,,AUTO
        28 011320   000022 236100                    LDQ     18,,PR0
        28 011321   200017 756100                    STQ     CGT_ST$,,AUTO

  47971 28 011322   000024 236000 29                 LDQ     20
        28 011323   200024 756100                    STQ     APPEND_IND_OFF+1,,AUTO
        28 011324   200024 631500                    EPPR1   APPEND_IND_OFF+1,,AUTO
        28 011325   200031 451500                    STP1    APPEND_IND_OFF+6,,AUTO
        28 011326   000025 236000 29                 LDQ     21
        28 011327   200030 756100                    STQ     APPEND_IND_OFF+5,,AUTO
        28 011330   000032 237000 29                 LDAQ    26
        28 011331   200026 757100                    STAQ    APPEND_IND_OFF+3,,AUTO
        28 011332   200026 630500                    EPPR0   APPEND_IND_OFF+3,,AUTO
        28 011333   000022 631400 29                 EPPR1   18
        28 011334   000000 701000 xent               TSX1    Z8AN$NEW_ILL
        28 011335   000000 011000                    NOP     0

  47975 28 011336   000006 220003                    LDX0    6,DU
        28 011337   000000 470400 16                 LDP0    ILL$
        28 011340   000000 440100                    SXL0    0,,PR0

  47980 28 011341   000001 235007                    LDA     1,DL
        28 011342   000000 470400 16                 LDP0    ILL$
        28 011343   000003 755100                    STA     3,,PR0

  47982 28 011344   200017 236100                    LDQ     CGT_ST$,,AUTO
        28 011345   000001 756100                    STQ     1,,PR0

  47983 28 011346   200013 471500                    LDP1    CONST$$,,AUTO
        28 011347   100001 236100                    LDQ     1,,PR1
        28 011350   000002 756100                    STQ     2,,PR0

  48127 28 011351   200021 471500                    LDP1    P$$,,AUTO
PL6.E3A0      #003=Z8DT$REPORT_WRAPUP File=Z8DT.:Z8A6TSI                         SAT 08/09/97 11:31 Page:767
        28 011352   100012 235100                    LDA     10,,PR1
        28 011353   000000 755000 20                 STA     MKCN

  48128 28 011354   200013 633500                    EPPR3   CONST$$,,AUTO
        28 011355   200024 453500                    STP3    APPEND_IND_OFF+1,,AUTO
        28 011356   200024 630500                    EPPR0   APPEND_IND_OFF+1,,AUTO
        28 011357   000005 631400 29                 EPPR1   5
        28 011360   000000 701000 xent               TSX1    Z8AC$MAKE_CONST
        28 011361   000000 011000                    NOP     0

  48129 28 011362   200020 470500                    LDP0    PTR$$,,AUTO
        28 011363   000022 236100                    LDQ     18,,PR0
        28 011364   200017 756100                    STQ     CGT_ST$,,AUTO

  48363 28 011365   000024 236000 29                 LDQ     20
        28 011366   200024 756100                    STQ     APPEND_IND_OFF+1,,AUTO
        28 011367   200024 631500                    EPPR1   APPEND_IND_OFF+1,,AUTO
        28 011370   200031 451500                    STP1    APPEND_IND_OFF+6,,AUTO
        28 011371   000025 236000 29                 LDQ     21
        28 011372   200030 756100                    STQ     APPEND_IND_OFF+5,,AUTO
        28 011373   000032 237000 29                 LDAQ    26
        28 011374   200026 757100                    STAQ    APPEND_IND_OFF+3,,AUTO
        28 011375   200026 630500                    EPPR0   APPEND_IND_OFF+3,,AUTO
        28 011376   000022 631400 29                 EPPR1   18
        28 011377   000000 701000 xent               TSX1    Z8AN$NEW_ILL
        28 011400   000000 011000                    NOP     0

  48367 28 011401   000007 220003                    LDX0    7,DU
        28 011402   000000 470400 16                 LDP0    ILL$
        28 011403   000000 440100                    SXL0    0,,PR0

  48372 28 011404   000001 235007                    LDA     1,DL
        28 011405   000000 470400 16                 LDP0    ILL$
        28 011406   000003 755100                    STA     3,,PR0

  48374 28 011407   200017 236100                    LDQ     CGT_ST$,,AUTO
        28 011410   000001 756100                    STQ     1,,PR0
PL6.E3A0      #003=Z8DT$REPORT_WRAPUP File=Z8DT.:Z8A6TSI                         SAT 08/09/97 11:31 Page:768

  48375 28 011411   200013 471500                    LDP1    CONST$$,,AUTO
        28 011412   100001 236100                    LDQ     1,,PR1
        28 011413   000002 756100                    STQ     2,,PR0

     4134    48520
     4135    48521    3        LTS$$ = LTS$$ -> REPORT_01_LTS.LINK;

  48521 28 011414   200014 470500                    LDP0    LTS$$,,AUTO
        28 011415   000007 236100                    LDQ     7,,PR0
        28 011416   200014 756100                    STQ     LTS$$,,AUTO

     4136    48522
     4137    48523    3      END;  /* while */

  48523 28 011417   000004 116000 29                 CMPQ    4
        28 011420   011130 601000 28                 TNZ     s:46548

     4138    48524
     4139    48525    2      START_CTR_TBL = %CTR_TBL_START_OFF;

  48525 28 011421   000031 235007                    LDA     25,DL
        28 011422   200015 755100                    STA     START_CTR_TBL,,AUTO

     4140    48526
     4141    48527    2      IF O1COM.CURRENT_REPORT_LTS$ -> REPORT_LTS.B.CONTROL_FINAL THEN

  48527 28 011423   000064 470400 xsym               LDP0    O1COM+52
        28 011424   000003 236100                    LDQ     3,,PR0
        28 011425   200000 316003                    CANQ    65536,DU
        28 011426   011530 600000 28                 TZE     s:49335

     4142    48528    3        DO;

     4143    48529    3          LTS$$ = O1COM.CURRENT_REPORT_LTS$;

  48529 28 011427   000064 236000 xsym               LDQ     O1COM+52
PL6.E3A0      #003=Z8DT$REPORT_WRAPUP File=Z8DT.:Z8A6TSI                         SAT 08/09/97 11:31 Page:769
        28 011430   200014 756100                    STQ     LTS$$,,AUTO

     4144    48530
     4145    48531    3          LTS$$ -> REPORT_LTS.CONTROL_FINAL$ -> CONTROL_NAME_LTS.START_OFFSET =
             48531                   START_CTR_TBL;

  48531 28 011431   200014 471500                    LDP1    LTS$$,,AUTO
        28 011432   100006 473500                    LDP3    6,,PR1
        28 011433   300016 755100                    STA     14,,PR3

     4146    48532
     4147    48533               %INIT_CGT_RWCT (@OFFSET_V = "START_CTR_TBL + %CTR_HEADING_TBL_OFF",
     4148    48534                  @POINTER = "LTS$$ -> REPORT_LTS.CONTROL_HEADING_FINAL$");

  48536 28 011434   100025 236100                    LDQ     21,,PR1
        28 011435   000004 116000 29                 CMPQ    4
        28 011436   011470 600000 28                 TZE     s:48934

  48538 28 011437   100025 470500                    LDP0    21,,PR1
        28 011440   000022 236100                    LDQ     18,,PR0
        28 011441   200017 756100                    STQ     CGT_ST$,,AUTO

  48800 28 011442   000024 236000 29                 LDQ     20
        28 011443   200024 756100                    STQ     APPEND_IND_OFF+1,,AUTO
        28 011444   200024 633500                    EPPR3   APPEND_IND_OFF+1,,AUTO
        28 011445   200031 453500                    STP3    APPEND_IND_OFF+6,,AUTO
        28 011446   000025 236000 29                 LDQ     21
        28 011447   200030 756100                    STQ     APPEND_IND_OFF+5,,AUTO
        28 011450   000026 237000 29                 LDAQ    22
        28 011451   200026 757100                    STAQ    APPEND_IND_OFF+3,,AUTO
        28 011452   200026 630500                    EPPR0   APPEND_IND_OFF+3,,AUTO
        28 011453   000022 631400 29                 EPPR1   18
        28 011454   000000 701000 xent               TSX1    Z8AN$NEW_ILL
        28 011455   000000 011000                    NOP     0

  48804 28 011456   200015 720100                    LXL0    START_CTR_TBL,,AUTO
        28 011457   000000 470400 16                 LDP0    ILL$
PL6.E3A0      #003=Z8DT$REPORT_WRAPUP File=Z8DT.:Z8A6TSI                         SAT 08/09/97 11:31 Page:770
        28 011460   000000 440100                    SXL0    0,,PR0

  48806 28 011461   000000 470400 16                 LDP0    ILL$
        28 011462   000002 450100                    STZ     2,,PR0

  48807 28 011463   200017 236100                    LDQ     CGT_ST$,,AUTO
        28 011464   000001 756100                    STQ     1,,PR0

  48808 28 011465   000064 471400 xsym               LDP1    O1COM+52
        28 011466   100022 236100                    LDQ     18,,PR1
        28 011467   000003 756100                    STQ     3,,PR0

     4149    48930
     4150    48931               %INIT_CGT_RWCT (@OFFSET_V = "START_CTR_TBL + %CTR_FOOTING_TBL_OFF",
     4151    48932                  @POINTER = "LTS$$ -> REPORT_LTS.CONTROL_FOOTING_FINAL$");

  48934 28 011470   200014 470500                    LDP0    LTS$$,,AUTO
        28 011471   000031 236100                    LDQ     25,,PR0
        28 011472   000004 116000 29                 CMPQ    4
        28 011473   011526 600000 28                 TZE     s:49330

  48936 28 011474   000031 471500                    LDP1    25,,PR0
        28 011475   100022 236100                    LDQ     18,,PR1
        28 011476   200017 756100                    STQ     CGT_ST$,,AUTO

  49198 28 011477   000024 236000 29                 LDQ     20
        28 011500   200024 756100                    STQ     APPEND_IND_OFF+1,,AUTO
        28 011501   200024 633500                    EPPR3   APPEND_IND_OFF+1,,AUTO
        28 011502   200031 453500                    STP3    APPEND_IND_OFF+6,,AUTO
        28 011503   000025 236000 29                 LDQ     21
        28 011504   200030 756100                    STQ     APPEND_IND_OFF+5,,AUTO
        28 011505   000026 237000 29                 LDAQ    22
        28 011506   200026 757100                    STAQ    APPEND_IND_OFF+3,,AUTO
        28 011507   200026 630500                    EPPR0   APPEND_IND_OFF+3,,AUTO
        28 011510   000022 631400 29                 EPPR1   18
        28 011511   000000 701000 xent               TSX1    Z8AN$NEW_ILL
        28 011512   000000 011000                    NOP     0
PL6.E3A0      #003=Z8DT$REPORT_WRAPUP File=Z8DT.:Z8A6TSI                         SAT 08/09/97 11:31 Page:771

  49202 28 011513   200015 720100                    LXL0    START_CTR_TBL,,AUTO
        28 011514   000001 621010                    EAX1    1,X0
        28 011515   000000 470400 16                 LDP0    ILL$
        28 011516   000000 441100                    SXL1    0,,PR0

  49204 28 011517   000000 470400 16                 LDP0    ILL$
        28 011520   000002 450100                    STZ     2,,PR0

  49205 28 011521   200017 236100                    LDQ     CGT_ST$,,AUTO
        28 011522   000001 756100                    STQ     1,,PR0

  49206 28 011523   000064 471400 xsym               LDP1    O1COM+52
        28 011524   100022 236100                    LDQ     18,,PR1
        28 011525   000003 756100                    STQ     3,,PR0

     4152    49328
     4153    49329
     4154    49330    3          START_CTR_TBL = START_CTR_TBL + %CTR_TBL_SPAN;

  49330 28 011526   000005 236007                    LDQ     5,DL
        28 011527   200015 056100                    ASQ     START_CTR_TBL,,AUTO

     4155    49331
     4156    49332    3      END;

     4157    49333
     4158    49334
     4159    49335    2      IF O1COM.CURRENT_REPORT_LTS$ -> REPORT_LTS.CONTROL$ ~= ADDR(NIL) THEN

  49335 28 011530   000064 470400 xsym               LDP0    O1COM+52
        28 011531   000005 236100                    LDQ     5,,PR0
        28 011532   000004 116000 29                 CMPQ    4
        28 011533   011653 600000 28                 TZE     s:50144

     4160    49336    3        DO;

PL6.E3A0      #003=Z8DT$REPORT_WRAPUP File=Z8DT.:Z8A6TSI                         SAT 08/09/97 11:31 Page:772
     4161    49337    3          LTS$$ = O1COM.CURRENT_REPORT_LTS$ -> REPORT_LTS.CONTROL$;

  49337 28 011534   200014 756100                    STQ     LTS$$,,AUTO

     4162    49338
     4163    49339    4          DO I = 1 TO LTS$$ -> LTS_PTR_ARRAY.N - 3;

  49339 28 011535   000001 235007                    LDA     1,DL
        28 011536   200016 755100                    STA     I,,AUTO
        28 011537   011645 710000 28                 TRA     s:50141+1

     4164    49340
     4165    49341    4            LTS$$ -> LTS_PTR_ARRAY.P$(I) -> CONTROL_NAME_LTS.START_OFFSET =
             49341                     START_CTR_TBL;

  49341 28 011540   200014 470500                    LDP0    LTS$$,,AUTO
        28 011541   200016 720100                    LXL0    I,,AUTO
        28 011542   000002 471510                    LDP1    2,X0,PR0
        28 011543   200015 235100                    LDA     START_CTR_TBL,,AUTO
        28 011544   100016 755100                    STA     14,,PR1

     4166    49342
     4167    49343                 %INIT_CGT_RWCT (@OFFSET_V = "START_CTR_TBL + %CTR_HEADING_TBL_OFF",
     4168    49344                   @POINTER =
             49344                      "LTS$$ -> LTS_PTR_ARRAY.P$(I) -> CONTROL_NAME_LTS.CONTROL_HEADING$");

  49346 28 011545   000002 471510                    LDP1    2,X0,PR0
        28 011546   100002 236100                    LDQ     2,,PR1
        28 011547   000004 116000 29                 CMPQ    4
        28 011550   011602 600000 28                 TZE     s:49744

  49348 28 011551   100002 473500                    LDP3    2,,PR1
        28 011552   300022 236100                    LDQ     18,,PR3
        28 011553   200017 756100                    STQ     CGT_ST$,,AUTO

  49610 28 011554   000024 236000 29                 LDQ     20
        28 011555   200024 756100                    STQ     APPEND_IND_OFF+1,,AUTO
PL6.E3A0      #003=Z8DT$REPORT_WRAPUP File=Z8DT.:Z8A6TSI                         SAT 08/09/97 11:31 Page:773
        28 011556   200024 631500                    EPPR1   APPEND_IND_OFF+1,,AUTO
        28 011557   200031 451500                    STP1    APPEND_IND_OFF+6,,AUTO
        28 011560   000025 236000 29                 LDQ     21
        28 011561   200030 756100                    STQ     APPEND_IND_OFF+5,,AUTO
        28 011562   000026 237000 29                 LDAQ    22
        28 011563   200026 757100                    STAQ    APPEND_IND_OFF+3,,AUTO
        28 011564   200026 630500                    EPPR0   APPEND_IND_OFF+3,,AUTO
        28 011565   000022 631400 29                 EPPR1   18
        28 011566   000000 701000 xent               TSX1    Z8AN$NEW_ILL
        28 011567   000000 011000                    NOP     0

  49614 28 011570   200015 720100                    LXL0    START_CTR_TBL,,AUTO
        28 011571   000000 470400 16                 LDP0    ILL$
        28 011572   000000 440100                    SXL0    0,,PR0

  49616 28 011573   000000 470400 16                 LDP0    ILL$
        28 011574   000002 450100                    STZ     2,,PR0

  49617 28 011575   200017 236100                    LDQ     CGT_ST$,,AUTO
        28 011576   000001 756100                    STQ     1,,PR0

  49618 28 011577   000064 471400 xsym               LDP1    O1COM+52
        28 011600   100022 236100                    LDQ     18,,PR1
        28 011601   000003 756100                    STQ     3,,PR0

     4169    49740
     4170    49741                 %INIT_CGT_RWCT (@OFFSET_V = "START_CTR_TBL + %CTR_FOOTING_TBL_OFF",
     4171    49742                   @POINTER =
             49742                      "LTS$$ -> LTS_PTR_ARRAY.P$(I) -> CONTROL_NAME_LTS.CONTROL_FOOTING$");

  49744 28 011602   200014 470500                    LDP0    LTS$$,,AUTO
        28 011603   200016 720100                    LXL0    I,,AUTO
        28 011604   000002 471510                    LDP1    2,X0,PR0
        28 011605   100003 236100                    LDQ     3,,PR1
        28 011606   000004 116000 29                 CMPQ    4
        28 011607   011642 600000 28                 TZE     s:50139

PL6.E3A0      #003=Z8DT$REPORT_WRAPUP File=Z8DT.:Z8A6TSI                         SAT 08/09/97 11:31 Page:774
  49746 28 011610   100003 473500                    LDP3    3,,PR1
        28 011611   300022 236100                    LDQ     18,,PR3
        28 011612   200017 756100                    STQ     CGT_ST$,,AUTO

  50008 28 011613   000024 236000 29                 LDQ     20
        28 011614   200024 756100                    STQ     APPEND_IND_OFF+1,,AUTO
        28 011615   200024 631500                    EPPR1   APPEND_IND_OFF+1,,AUTO
        28 011616   200031 451500                    STP1    APPEND_IND_OFF+6,,AUTO
        28 011617   000025 236000 29                 LDQ     21
        28 011620   200030 756100                    STQ     APPEND_IND_OFF+5,,AUTO
        28 011621   000026 237000 29                 LDAQ    22
        28 011622   200026 757100                    STAQ    APPEND_IND_OFF+3,,AUTO
        28 011623   200026 630500                    EPPR0   APPEND_IND_OFF+3,,AUTO
        28 011624   000022 631400 29                 EPPR1   18
        28 011625   000000 701000 xent               TSX1    Z8AN$NEW_ILL
        28 011626   000000 011000                    NOP     0

  50012 28 011627   200015 720100                    LXL0    START_CTR_TBL,,AUTO
        28 011630   000001 621010                    EAX1    1,X0
        28 011631   000000 470400 16                 LDP0    ILL$
        28 011632   000000 441100                    SXL1    0,,PR0

  50014 28 011633   000000 470400 16                 LDP0    ILL$
        28 011634   000002 450100                    STZ     2,,PR0

  50015 28 011635   200017 236100                    LDQ     CGT_ST$,,AUTO
        28 011636   000001 756100                    STQ     1,,PR0

  50016 28 011637   000064 471400 xsym               LDP1    O1COM+52
        28 011640   100022 236100                    LDQ     18,,PR1
        28 011641   000003 756100                    STQ     3,,PR0

     4172    50138
     4173    50139    4            START_CTR_TBL = START_CTR_TBL + %CTR_TBL_SPAN;

  50139 28 011642   000005 236007                    LDQ     5,DL
        28 011643   200015 056100                    ASQ     START_CTR_TBL,,AUTO
PL6.E3A0      #003=Z8DT$REPORT_WRAPUP File=Z8DT.:Z8A6TSI                         SAT 08/09/97 11:31 Page:775

     4174    50140
     4175    50141    4          END;

  50141 28 011644   200016 054100                    AOS     I,,AUTO
        28 011645   200014 470500                    LDP0    LTS$$,,AUTO
        28 011646   000000 236100                    LDQ     0,,PR0
        28 011647   777777 376007                    ANQ     -1,DL
        28 011650   000003 136007                    SBLQ    3,DL
        28 011651   200016 116100                    CMPQ    I,,AUTO
        28 011652   011540 605000 28                 TPL     s:49341

     4176    50142    3        END;

     4177    50143
     4178    50144    2    END PRESET_RWCT;

  50144 28 011653   200010 221300                    LDX1  ! CODE_BIT_ON+1,,AUTO
        28 011654   000001 702211                    TSX2  ! 1,X1

     4179    50145         %EJECT;
PL6.E3A0      #003=Z8DT$REPORT_WRAPUP File=Z8DT.:Z8A6TSI                         SAT 08/09/97 11:31 Page:776
     4180    50146
     4181    50147         /* main routine */
     4182    50148
     4183    50149    1          FILE_LTS$ = COMCOM.FILE_LTS_CHAIN$;

  50149 28 011655   000434 236000 xsym               LDQ     COMCOM+284
        28 011656   200004 756100                    STQ     FILE_LTS$,,AUTO

     4184    50150
     4185    50151    2        DO WHILE (FILE_LTS$ ~= ADDR(NIL));

  50151 28 011657   012043 710000 28                 TRA     s:50231

     4186    50152
     4187    50153    2          IF FILE_LTS$ -> FILE_LTS.ST$ -> FD.PROC$ = O1COM.CURRENT_PROC$ THEN

  50153 28 011660   200004 470500                    LDP0    FILE_LTS$,,AUTO
        28 011661   000001 471500                    LDP1    1,,PR0
        28 011662   100011 236100                    LDQ     9,,PR1
        28 011663   000057 116000 xsym               CMPQ    O1COM+47
        28 011664   012040 601000 28                 TNZ     s:50229

     4188    50154    3            DO;

     4189    50155    3              IF FILE_LTS$ -> FILE_LTS.REPORT$ ~= ADDR(NIL) THEN

  50155 28 011665   000040 236100                    LDQ     32,,PR0
        28 011666   000004 116000 29                 CMPQ    4
        28 011667   012040 600000 28                 TZE     s:50229

     4190    50156    4                DO;

     4191    50157    4                  REP_LTS$ = FILE_LTS$ -> FILE_LTS.REPORT$;

  50157 28 011670   200005 756100                    STQ     REP_LTS$,,AUTO

     4192    50158
PL6.E3A0      #003=Z8DT$REPORT_WRAPUP File=Z8DT.:Z8A6TSI                         SAT 08/09/97 11:31 Page:777
     4193    50159    4                  CODE_BIT_ON = FALSE;

  50159 28 011671   200007 450100                    STZ     CODE_BIT_ON,,AUTO

     4194    50160    4                  REPORT_CODE_NO = 0;

  50160 28 011672   200003 450100                    STZ     REPORT_CODE_NO,,AUTO

     4195    50161    4                  TEMP_LTS$ = REP_LTS$;

  50161 28 011673   200006 756100                    STQ     TEMP_LTS$,,AUTO

     4196    50162
     4197    50163    5                  DO WHILE (TEMP_LTS$ ~= ADDR(NIL));

  50163 28 011674   011715 710000 28                 TRA     s:50179

     4198    50164
     4199    50165    5                    IF TEMP_LTS$ -> REPORT_LTS.B.CODE_ON THEN

  50165 28 011675   200006 470500                    LDP0    TEMP_LTS$,,AUTO
        28 011676   000003 234100                    SZN     3,,PR0
        28 011677   011713 605000 28                 TPL     s:50178

     4200    50166    6                      DO;

     4201    50167
     4202    50168    6                        FILE_LTS$ -> FILE_LTS.RECORD_CONTAINS.INT_1 =

  50168 28 011700   200004 471500                    LDP1    FILE_LTS$,,AUTO
        28 011701   000002 236007                    LDQ     2,DL
        28 011702   100023 056100                    ASQ     19,,PR1

     4203    50169    6                            FILE_LTS$ -> FILE_LTS.RECORD_CONTAINS.INT_1 + 2;
     4204    50170
     4205    50171    6                        FILE_LTS$ -> FILE_LTS.RECORD_CONTAINS.INT_2 =

PL6.E3A0      #003=Z8DT$REPORT_WRAPUP File=Z8DT.:Z8A6TSI                         SAT 08/09/97 11:31 Page:778
  50171 28 011703   100024 056100                    ASQ     20,,PR1

     4206    50172    6                            FILE_LTS$ -> FILE_LTS.RECORD_CONTAINS.INT_2 + 2;
     4207    50173    6                        FILE_LTS$ -> FILE_LTS.B.REPORT_CODE = TRUE;

  50173 28 011704   000100 236007                    LDQ     64,DL
        28 011705   100017 256100                    ORSQ    15,,PR1

     4208    50174    6                        CODE_BIT_ON = TRUE;

  50174 28 011706   400000 236003                    LDQ     -131072,DU
        28 011707   200007 756100                    STQ     CODE_BIT_ON,,AUTO

     4209    50175    6                        TEMP_LTS$ = ADDR(NIL);

  50175 28 011710   000004 236000 29                 LDQ     4
        28 011711   200006 756100                    STQ     TEMP_LTS$,,AUTO

     4210    50176    6                      END;

  50176 28 011712   011715 710000 28                 TRA     s:50179

     4211    50177    5                    ELSE
     4212    50178    5                      TEMP_LTS$ = TEMP_LTS$ -> REPORT_LTS.LINK;

  50178 28 011713   000043 236100                    LDQ     35,,PR0
        28 011714   200006 756100                    STQ     TEMP_LTS$,,AUTO

     4213    50179    5                  END; /* WHILE */

  50179 28 011715   000004 116000 29                 CMPQ    4
        28 011716   011675 601000 28                 TNZ     s:50165

     4214    50180
     4215    50181
     4216    50182    5                  DO WHILE (REP_LTS$ ~= ADDR(NIL));

PL6.E3A0      #003=Z8DT$REPORT_WRAPUP File=Z8DT.:Z8A6TSI                         SAT 08/09/97 11:31 Page:779
  50182 28 011717   011762 710000 28                 TRA     s:50208

     4217    50183
     4218    50184    5                    IF REP_LTS$ -> REPORT_LTS.PAGE_COUNTER$ ~= ADDR(NIL) THEN

  50184 28 011720   200005 470500                    LDP0    REP_LTS$,,AUTO
        28 011721   000017 236100                    LDQ     15,,PR0
        28 011722   000004 116000 29                 CMPQ    4
        28 011723   011735 600000 28                 TZE     s:50198

     4219    50185    6                      DO;

     4220    50186    6                        O1COM.CURRENT_REPORT_LTS$ = REP_LTS$;

  50186 28 011724   200005 236100                    LDQ     REP_LTS$,,AUTO
        28 011725   000064 756000 xsym               STQ     O1COM+52

     4221    50187
     4222    50188    6                        CALL CREATE_FD_RECORD;

  50188 28 011726   000003 701000 28                 TSX1    CREATE_FD_RECORD
        28 011727   000000 011000                    NOP     0

     4223    50189
     4224    50190    6                        CALL CREATE_RWCT;

  50190 28 011730   000463 701000 28                 TSX1    CREATE_RWCT
        28 011731   000000 011000                    NOP     0

     4225    50191
     4226    50192    6                        CALL PRESET_RWCT;

  50192 28 011732   005016 701000 28                 TSX1    PRESET_RWCT
        28 011733   000000 011000                    NOP     0

     4227    50193
     4228    50194    6                      END;
PL6.E3A0      #003=Z8DT$REPORT_WRAPUP File=Z8DT.:Z8A6TSI                         SAT 08/09/97 11:31 Page:780

  50194 28 011734   011757 710000 28                 TRA     s:50206

     4229    50195
     4230    50196    5                    ELSE
     4231    50197    6                      DO;

     4232    50198    6                        IF REP_LTS$ -> REPORT_LTS.ST$ ~= ADDR(NIL) THEN

  50198 28 011735   000001 236100                    LDQ     1,,PR0
        28 011736   000004 116000 29                 CMPQ    4
        28 011737   011757 600000 28                 TZE     s:50206

     4233    50199
     4234    50200    6                          CALL Z8AE$ERROR (%E$REPORT_DESC_NOT_DEFINED,

  50200 28 011740   000001 471500                    LDP1    1,,PR0
        28 011741   100002 236100                    LDQ     2,,PR1
        28 011742   777777 376007                    ANQ     -1,DL
        28 011743   200024 756100                    STQ     APPEND_IND_OFF+1,,AUTO
        28 011744   200005 236100                    LDQ     REP_LTS$,,AUTO
        28 011745   000036 036003                    ADLQ    30,DU
        28 011746   200030 756100                    STQ     APPEND_IND_OFF+5,,AUTO
        28 011747   200024 631500                    EPPR1   APPEND_IND_OFF+1,,AUTO
        28 011750   200027 451500                    STP1    APPEND_IND_OFF+4,,AUTO
        28 011751   000034 236000 29                 LDQ     28
        28 011752   200026 756100                    STQ     APPEND_IND_OFF+3,,AUTO
        28 011753   200026 630500                    EPPR0   APPEND_IND_OFF+3,,AUTO
        28 011754   000000 631400 29                 EPPR1   0
        28 011755   000000 701000 xent               TSX1    Z8AE$ERROR
        28 011756   000000 011000                    NOP     0

     4235    50201    6                            BINBIT (REP_LTS$ -> REPORT_LTS.ST$ -> SCALAR.LINE_NO, 36),
     4236    50202    6                          REP_LTS$ -> REPORT_LTS.COL_NO#);
     4237    50203    6                      END;

     4238    50204
PL6.E3A0      #003=Z8DT$REPORT_WRAPUP File=Z8DT.:Z8A6TSI                         SAT 08/09/97 11:31 Page:781
     4239    50205
     4240    50206    5                    REP_LTS$ = REP_LTS$ -> REPORT_LTS.LINK;

  50206 28 011757   200005 470500                    LDP0    REP_LTS$,,AUTO
        28 011760   000043 236100                    LDQ     35,,PR0
        28 011761   200005 756100                    STQ     REP_LTS$,,AUTO

     4241    50207
     4242    50208    5                  END;  /* while */

  50208 28 011762   200005 236100                    LDQ     REP_LTS$,,AUTO
        28 011763   000004 116000 29                 CMPQ    4
        28 011764   011720 601000 28                 TNZ     s:50184

     4243    50209
     4244    50210    4                  IF FILE_LTS$ -> FILE_LTS.LINAGE.NO_OF_LINES$ ~= ADDR(NIL) THEN

  50210 28 011765   200004 470500                    LDP0    FILE_LTS$,,AUTO
        28 011766   000033 236100                    LDQ     27,,PR0
        28 011767   000004 116000 29                 CMPQ    4
        28 011770   012040 600000 28                 TZE     s:50229

     4245    50211    5                    DO;

     4246    50212
     4247    50213    5                      CALL Z8AE$ERROR (%E$NO_LINAGE_IN_REP,

  50213 28 011771   000033 471500                    LDP1    27,,PR0
        28 011772   100006 633500                    EPPR3   6,,PR1
        28 011773   200026 453500                    STP3    APPEND_IND_OFF+3,,AUTO
        28 011774   100005 634500                    EPPR4   5,,PR1
        28 011775   200025 454500                    STP4    APPEND_IND_OFF+2,,AUTO
        28 011776   000036 236000 29                 LDQ     30
        28 011777   200024 756100                    STQ     APPEND_IND_OFF+1,,AUTO
        28 012000   200024 630500                    EPPR0   APPEND_IND_OFF+1,,AUTO
        28 012001   000000 631400 29                 EPPR1   0
        28 012002   000000 701000 xent               TSX1    Z8AE$ERROR
PL6.E3A0      #003=Z8DT$REPORT_WRAPUP File=Z8DT.:Z8A6TSI                         SAT 08/09/97 11:31 Page:782
        28 012003   000000 011000                    NOP     0

     4248    50214    5                           FILE_LTS$ -> FILE_LTS.LINAGE.NO_OF_LINES$ -> LX_TERMINAL.
             50214                                    LINE,
     4249    50215    5                           FILE_LTS$ -> FILE_LTS.LINAGE.NO_OF_LINES$ -> LX_TERMINAL.
             50215                                    COLUMN);
     4250    50216
     4251    50217    5                      CALL Z8ED$DISPOSE_ABSSYN_TREE (FILE_LTS$ -> FILE_LTS.LINAGE.
             50217                               NO_OF_LINES$);

  50217 28 012004   200004 236100                    LDQ     FILE_LTS$,,AUTO
        28 012005   000033 036003                    ADLQ    27,DU
        28 012006   200024 756100                    STQ     APPEND_IND_OFF+1,,AUTO
        28 012007   200024 630500                    EPPR0   APPEND_IND_OFF+1,,AUTO
        28 012010   000005 631400 29                 EPPR1   5
        28 012011   000000 701000 xent               TSX1    Z8ED$DISPOSE_ABSSYN_TREE
        28 012012   000000 011000                    NOP     0

     4252    50218
     4253    50219    5                      CALL Z8ED$DISPOSE_ABSSYN_TREE (FILE_LTS$ -> FILE_LTS.LINAGE.
             50219                               FOOTING$);

  50219 28 012013   200004 236100                    LDQ     FILE_LTS$,,AUTO
        28 012014   000034 036003                    ADLQ    28,DU
        28 012015   200024 756100                    STQ     APPEND_IND_OFF+1,,AUTO
        28 012016   200024 630500                    EPPR0   APPEND_IND_OFF+1,,AUTO
        28 012017   000005 631400 29                 EPPR1   5
        28 012020   000000 701000 xent               TSX1    Z8ED$DISPOSE_ABSSYN_TREE
        28 012021   000000 011000                    NOP     0

     4254    50220
     4255    50221    5                      CALL Z8ED$DISPOSE_ABSSYN_TREE (FILE_LTS$ -> FILE_LTS.LINAGE.
             50221                               BOTTOM$);

  50221 28 012022   200004 236100                    LDQ     FILE_LTS$,,AUTO
        28 012023   000036 036003                    ADLQ    30,DU
        28 012024   200024 756100                    STQ     APPEND_IND_OFF+1,,AUTO
PL6.E3A0      #003=Z8DT$REPORT_WRAPUP File=Z8DT.:Z8A6TSI                         SAT 08/09/97 11:31 Page:783
        28 012025   200024 630500                    EPPR0   APPEND_IND_OFF+1,,AUTO
        28 012026   000005 631400 29                 EPPR1   5
        28 012027   000000 701000 xent               TSX1    Z8ED$DISPOSE_ABSSYN_TREE
        28 012030   000000 011000                    NOP     0

     4256    50222
     4257    50223    5                     CALL Z8ED$DISPOSE_ABSSYN_TREE (FILE_LTS$ -> FILE_LTS.LINAGE.TOP$)
             50223                               ;

  50223 28 012031   200004 236100                    LDQ     FILE_LTS$,,AUTO
        28 012032   000035 036003                    ADLQ    29,DU
        28 012033   200024 756100                    STQ     APPEND_IND_OFF+1,,AUTO
        28 012034   200024 630500                    EPPR0   APPEND_IND_OFF+1,,AUTO
        28 012035   000005 631400 29                 EPPR1   5
        28 012036   000000 701000 xent               TSX1    Z8ED$DISPOSE_ABSSYN_TREE
        28 012037   000000 011000                    NOP     0

     4258    50224
     4259    50225    5                    END;

     4260    50226    4                END;  /* end if */

     4261    50227    3            END;

     4262    50228
     4263    50229    2          FILE_LTS$ = FILE_LTS$ -> FILE_LTS.FILE_LTS_CHAIN$;

  50229 28 012040   200004 470500                    LDP0    FILE_LTS$,,AUTO
        28 012041   000003 236100                    LDQ     3,,PR0
        28 012042   200004 756100                    STQ     FILE_LTS$,,AUTO

     4264    50230
     4265    50231    2        END;  /* while */

  50231 28 012043   000004 116000 29                 CMPQ    4
        28 012044   011660 601000 28                 TNZ     s:50153

PL6.E3A0      #003=Z8DT$REPORT_WRAPUP File=Z8DT.:Z8A6TSI                         SAT 08/09/97 11:31 Page:784
     4266    50232
     4267    50233    1        O1COM.REPORT_DD$ = ADDR(NIL);

  50233 28 012045   000004 236000 29                 LDQ     4
        28 012046   000067 756000 xsym               STQ     O1COM+55

     4268    50234
     4269    50235    1    END Z8DT$REPORT_WRAPUP;

  50235 28 012047   000000 702200 xent               TSX2  ! X66_ARET
     4270    50236         %EJECT;
PL6.E3A0      #003=Z8DT$REPORT_WRAPUP File=Z8DT.:Z8A6TSI                         SAT 08/09/97 11:31 Page:785

PL6.E3A0      #003=Z8DT$REPORT_WRAPUP File=Z8DT.:Z8A6TSI                         SAT 08/09/97 11:31 Page:786
--  Include file information  --

   Z8A_ERR_NUMS.:Z8A6TOU  is referenced.
   Z8E_HEAP.:Z8A6TOU  cannot be made into a system file and is referenced.
   Z8E_NEW_ILL.:Z8A6TOU  is referenced.
   Z8E_MACROS.:Z8A6TOU  cannot be made into a system file and is referenced.
   Z8E_WINDOW.:Z8A6TOU  is referenced.
   Z8E_O1COM.:Z8A6TOU  cannot be made into a system file and is referenced.
   Z8A_LEX_SYMB.:Z8A6TOU  cannot be made into a system file and is referenced.
   Z8E_STACKS.:Z8A6TOU  cannot be made into a system file and is referenced.
   Z8A_SRCH.:Z8A6TOU  cannot be made into a system file and is referenced.
   Z8A_MKCN.:Z8A6TOU  cannot be made into a system file and is referenced.
   Z8A_ILS.:Z8A6TOU  cannot be made into a system file and is referenced.
   Z8A_ILL.:Z8A6TOU  cannot be made into a system file and is referenced.
   Z8A_ETT.:Z8A6TOU  cannot be made into a system file and is referenced.
   Z8A_DNT.:Z8A6TOU  cannot be made into a system file and is referenced.
   Z8A_ST.:Z8A6TOU  cannot be made into a system file and is referenced.
   Z8A_TYPES.:Z8A6TOU  is referenced.
   Z8A_QLT.:Z8A6TOU  cannot be made into a system file and is referenced.
   Z8A_LTS.:Z8A6TOU  cannot be made into a system file and is referenced.
   Z8A_COMCOM.:Z8A6TOU  cannot be made into a system file and is referenced.
   X8A_COM_MACS.:X8A6TOU  is referenced.
   Z8A_NAMES.:Z8A6TOU  is referenced.
   Z8A_SUPP_MAC.:Z8A6TOU  is referenced.
   Z8A_DEFC.:Z8A6TOU  cannot be made into a system file and is referenced.
      No diagnostics issued in procedure Z8DT$REPORT_WRAPUP.
PL6.E3A0      #003=Z8DT$REPORT_WRAPUP File=Z8DT.:Z8A6TSI                         SAT 08/09/97 11:31 Page:787

 **** Variables and constants ****

  ****  Section 000 LblCom ITERATION

  ****  Scalars and arrays  ****
OctLoc.c.b A Datatyp(siz) R M Lvl/name                 OctLoc.c.b A Datatyp(siz) R M Lvl/name

     0-0-0/w SBIN              1 ITERATION

  ****  Section 001 LblCom LTS$

  ****  Scalars and arrays  ****
OctLoc.c.b A Datatyp(siz) R M Lvl/name                 OctLoc.c.b A Datatyp(siz) R M Lvl/name

     0-0-0/w PTR               1 LONG_ITEM$                 0-0-0/w PTR         r     1 LTS$

  ****  Section 002 LblCom LTS_

  ****  Scalars and arrays  ****
OctLoc.c.b A Datatyp(siz) R M Lvl/name                 OctLoc.c.b A Datatyp(siz) R M Lvl/name

     0-0-0/w STRC(180)   r     1 LTS_

  ****  Section 003 LblCom QLT$

  ****  Scalars and arrays  ****
OctLoc.c.b A Datatyp(siz) R M Lvl/name                 OctLoc.c.b A Datatyp(siz) R M Lvl/name

     0-0-0/w PTR         r     1 QLT$

  ****  Section 004 LblCom PREV_01_QLT$

  ****  Scalars and arrays  ****
OctLoc.c.b A Datatyp(siz) R M Lvl/name                 OctLoc.c.b A Datatyp(siz) R M Lvl/name

     0-0-0/w PTR               1 PREV_01_QLT$

PL6.E3A0      #003=Z8DT$REPORT_WRAPUP File=Z8DT.:Z8A6TSI                         SAT 08/09/97 11:31 Page:788
  ****  Section 005 LblCom QLT_

  ****  Scalars and arrays  ****
OctLoc.c.b A Datatyp(siz) R M Lvl/name                 OctLoc.c.b A Datatyp(siz) R M Lvl/name

     0-0-0/w STRC(180)   r     1 QLT_

  ****  Section 006 LblCom ST$

  ****  Scalars and arrays  ****
OctLoc.c.b A Datatyp(siz) R M Lvl/name                 OctLoc.c.b A Datatyp(siz) R M Lvl/name

     0-0-0/w PTR         r     1 ST$

  ****  Section 007 LblCom ST_

  ****  Scalars and arrays  ****
OctLoc.c.b A Datatyp(siz) R M Lvl/name                 OctLoc.c.b A Datatyp(siz) R M Lvl/name

     0-0-0/w STRC(180)   r     1 ST_

  ****  Section 008 LblCom DNT$

  ****  Scalars and arrays  ****
OctLoc.c.b A Datatyp(siz) R M Lvl/name                 OctLoc.c.b A Datatyp(siz) R M Lvl/name

     0-0-0/w PTR         r     1 DNT$

  ****  Section 009 LblCom DNT_

  ****  Scalars and arrays  ****
OctLoc.c.b A Datatyp(siz) R M Lvl/name                 OctLoc.c.b A Datatyp(siz) R M Lvl/name

     0-0-0/w STRC(180)         1 DNT_

  ****  Section 010 LblCom DNT_BUCKET_NUMBER

PL6.E3A0      #003=Z8DT$REPORT_WRAPUP File=Z8DT.:Z8A6TSI                         SAT 08/09/97 11:31 Page:789
  ****  Scalars and arrays  ****
OctLoc.c.b A Datatyp(siz) R M Lvl/name                 OctLoc.c.b A Datatyp(siz) R M Lvl/name

     0-0-0/w UBIN              1 DNT_BUCKET_NUMBER

  ****  Section 011 LblCom DNT_OF_1$

  ****  Scalars and arrays  ****
OctLoc.c.b A Datatyp(siz) R M Lvl/name                 OctLoc.c.b A Datatyp(siz) R M Lvl/name

     0-0-0/w PTR               1 DNT_OF_1$

  ****  Section 012 LblCom ETT$

  ****  Scalars and arrays  ****
OctLoc.c.b A Datatyp(siz) R M Lvl/name                 OctLoc.c.b A Datatyp(siz) R M Lvl/name

     0-0-0/w PTR         r     1 ETT$

  ****  Section 013 LblCom HEAD_ETT$

  ****  Scalars and arrays  ****
OctLoc.c.b A Datatyp(siz) R M Lvl/name                 OctLoc.c.b A Datatyp(siz) R M Lvl/name

     0-0-0/w PTR               1 HEAD_ETT$

  ****  Section 014 LblCom ETT_BUCKETS

  ****  Scalars and arrays  ****
OctLoc.c.b A Datatyp(siz) R M Lvl/name                 OctLoc.c.b A Datatyp(siz) R M Lvl/name

     0-0-0/w PTR               1 ETT_BUCKETS(0:511)

  ****  Section 015 LblCom ETT_

  ****  Scalars and arrays  ****
OctLoc.c.b A Datatyp(siz) R M Lvl/name                 OctLoc.c.b A Datatyp(siz) R M Lvl/name
PL6.E3A0      #003=Z8DT$REPORT_WRAPUP File=Z8DT.:Z8A6TSI                         SAT 08/09/97 11:31 Page:790

     0-0-0/w STRC(180)         1 ETT_

  ****  Section 016 LblCom ILL$

  ****  Scalars and arrays  ****
OctLoc.c.b A Datatyp(siz) R M Lvl/name                 OctLoc.c.b A Datatyp(siz) R M Lvl/name

     0-0-0/w PTR         r     1 ILL$

  ****  Section 017 LblCom ILL_

  ****  Scalars and arrays  ****
OctLoc.c.b A Datatyp(siz) R M Lvl/name                 OctLoc.c.b A Datatyp(siz) R M Lvl/name

     0-0-0/w STRC(180)         1 ILL_

  ****  Section 018 LblCom ILS$

  ****  Scalars and arrays  ****
OctLoc.c.b A Datatyp(siz) R M Lvl/name                 OctLoc.c.b A Datatyp(siz) R M Lvl/name

     0-0-0/w PTR         r     1 ILS$

  ****  Section 019 LblCom ILS_

  ****  Scalars and arrays  ****
OctLoc.c.b A Datatyp(siz) R M Lvl/name                 OctLoc.c.b A Datatyp(siz) R M Lvl/name

     0-0-0/w STRC(180)         1 ILS_

  ****  Section 020 LblCom MKCN

  ****  Scalars and arrays  ****
OctLoc.c.b A Datatyp(siz) R M Lvl/name                 OctLoc.c.b A Datatyp(siz) R M Lvl/name

     0-0-0/w STRC(72)    r     1 MKCN
PL6.E3A0      #003=Z8DT$REPORT_WRAPUP File=Z8DT.:Z8A6TSI                         SAT 08/09/97 11:31 Page:791

  ****  Section 021 LblCom SRCH

  ****  Scalars and arrays  ****
OctLoc.c.b A Datatyp(siz) R M Lvl/name                 OctLoc.c.b A Datatyp(siz) R M Lvl/name

     0-0-0/w STRC(108)         1 SRCH

  ****  Section 022 LblCom LEX_SYMBOL

  ****  Scalars and arrays  ****
OctLoc.c.b A Datatyp(siz) R M Lvl/name                 OctLoc.c.b A Datatyp(siz) R M Lvl/name

     0-0-0/w STRC(3240)  r     1 LEX_SYMBOL                 0-0-0/w STRC(3240)        1 LEX_SYMBOL_WORDS

  ****  Section 023 LblCom CURRENT_LEX_SYMBOL$

  ****  Scalars and arrays  ****
OctLoc.c.b A Datatyp(siz) R M Lvl/name                 OctLoc.c.b A Datatyp(siz) R M Lvl/name

     0-0-0/w PTR         r     1 CURRENT_LEX_SYMBOL$

  ****  Section 024 LblCom TEMP_LEX_SYMBOL

  ****  Scalars and arrays  ****
OctLoc.c.b A Datatyp(siz) R M Lvl/name                 OctLoc.c.b A Datatyp(siz) R M Lvl/name

     0-0-0/w STRC(3240)        1 TEMP_LEX_SYMBOL

  ****  Section 025 LblCom TEMP_LEX_SYMBOL2

  ****  Scalars and arrays  ****
OctLoc.c.b A Datatyp(siz) R M Lvl/name                 OctLoc.c.b A Datatyp(siz) R M Lvl/name

     0-0-0/w STRC(3240)        1 TEMP_LEX_SYMBOL2

  ****  Section 026 LblCom HEAP$
PL6.E3A0      #003=Z8DT$REPORT_WRAPUP File=Z8DT.:Z8A6TSI                         SAT 08/09/97 11:31 Page:792

  ****  Scalars and arrays  ****
OctLoc.c.b A Datatyp(siz) R M Lvl/name                 OctLoc.c.b A Datatyp(siz) R M Lvl/name

     0-0-0/w PTR               1 HEAP$

  ****  Auto variables  ****

  ****  Scalars and arrays  ****
OctLoc.c.b A Datatyp(siz) R M Lvl/name                 OctLoc.c.b A Datatyp(siz) R M Lvl/name

    23-0-0/w SBIN        r     1 APPEND_IND_OFF            22-0-0/w PTR         r     1 APPEND_IND_TABLE$
    21-0-0/w STRC        r     1 BUF_DESC                  13-0-0/w SBIN        r     1 BUF_POS
    15-0-0/w PTR         r     1 BUF_ST$                   17-0-0/w PTR         r     1 CGT_ST$
     7-0-0/w BIT         r     1 CODE_BIT_ON               13-0-0/w PTR         r     1 CONST$$
    11-0-0/w STRC              1 CONSTI                    11-0-0/w SBIN        r     1 CTR_NAME_NO
    20-0-0/w PTR         r     1 FD_BRO$                   14-0-0/w PTR         r     1 FD_ST$
     4-0-0/w PTR         r     1 FILE_LTS$                 16-0-0/w SBIN        r     1 I
    16-0-0/w SBIN        r     1 LINE_NO#                  15-0-0/w SBIN        r     1 LINE_NO#
    14-0-0/w PTR         r     1 LTS$$                     17-0-0/w PTR         r     1 NEW_LONG$
    20-0-0/w PTR         r     1 NEXT$                     12-0-0/w PTR               1 NIL_PTR_ETT$
    12-0-0/c CHAR(2)     r     1 NUM_CHAR                  21-0-0/w PTR         r     1 P$$
    16-0-0/w PTR         r     1 PREV_QLT$                 20-0-0/w PTR         r     1 PTR$$
    17-0-0/w PTR         r     1 RD_QLT$                   11-0-0/w SBIN        r     1 REC_LENGTH
     3-0-0/w UBIN        r     1 REPORT_CODE_NO             5-0-0/w PTR         r     1 REP_LTS$
    14-0-0/w STRC        r     1 RWCT_DESC                 12-0-0/w SBIN        r     1 RWCT_SIZE
    13-0-0/w PTR         r     1 RWCT_ST$                  15-0-0/w SBIN        r     1 START_CTR_TBL
     6-0-0/w PTR         r     1 TEMP_LTS$

  ****  SYMREF variables  ****

  ****  Scalars and arrays  ****
OctLoc.c.b A Datatyp(siz) R M Lvl/name                 OctLoc.c.b A Datatyp(siz) R M Lvl/name

     0-0-0/d STRC(13248) r     1 COMCOM
     0-0-0/w PTR         r     1 DNT$_FROM_RSWNO(0:0)
     0-0-0/w STRC(180)         1 HIER_STK(0:50)
PL6.E3A0      #003=Z8DT$REPORT_WRAPUP File=Z8DT.:Z8A6TSI                         SAT 08/09/97 11:31 Page:793
     0-0-0/w SBIN              1 HIER_STK_PTR               0-0-0/w UBIN              1 ILL_STEP(0:144)
     0-0-0/w UBIN              1 ILS_STEP_TABLE(0:2)
     0-0-0/w UBIN              1 LTS_STEP(0:37)
     0-0-0/d STRC(11580) r     1 O1COM                      0-0-0/w STRC(144)         1 PAGE_FORMAT
     0-0-0/w STRC(153)         1 REP_STK(0:50)              0-0-0/w SBIN              1 REP_STK_PTR

  ****  BASED and DCB variables  ****

  ****  Scalars and arrays  ****
OctLoc.c.b A Datatyp(siz) R M Lvl/name                 OctLoc.c.b A Datatyp(siz) R M Lvl/name

     0-0-0/w STRC(108)         1 ACCEPT_DISPLAY             0-0-0/w STRC(288)         1 ADD_STMT
     0-0-0/w STRC(396)         1 ALPHABET                   0-0-0/w STRC(144)         1 ALTER_LTS
     0-0-0/w STRC(3672)        1 ALT_KEY                    0-0-0/w STRC(36864)       1 ARGLIST
     0-0-0/w STRC(396)         1 ARRAY                      0-0-0/w STRC(180)         1 ARRAY_PRESET_LTS
     0-0-0/w ASTR(324)   r     1 BASED_LEX_SYMBOL
     0-0-0/w STRC(360)         1 BASED_LEX_SYMBOL_WORDS
     0-0-0/w STRC(288)         1 BASE_LTS                   0-0-0/w STRC(108)         1 BINARY_ILL
     0-0-0/w STRC(288)         1 BINARY_OP                  0-0-0/w STRC(396)         1 BLOCK
     0-0-0/w STRC(144)         1 BRANCH_ILL                 0-0-0/w STRC(144)         1 BT
     0-0-0/w STRC(288)         1 CALL_STMT                  0-0-0/w STRC(216)         1 CCOSU
     0-0-0/w STRC(396)         1 CD                         0-0-0/w STRC(288)         1 CD_LTS
     0-0-0/w CHAR(4096)        1 CHARS                      0-0-0/w STRC(396)         1 CLASS
     0-0-0/w STRC(108)         1 CODED_MOVE                 0-0-0/w STRC(288)         1 COMPUTE_STMT
     0-0-0/w STRC(396)         1 CONDITION                  0-0-0/w STRC(396)         1 CONST
     0-0-0/w STRC(72)          1 CONT                       0-0-0/w STRC(540)   r     1 CONTROL_NAME_LTS
     0-0-0/w STRC(1872)        1 COPY_FILE                  0-0-0/w STRC(396)         1 DB
     0-0-0/w STRC(396)         1 DCB_                       0-0-0/w STRC(288)         1 DEFERED_IDENTIFIER
     0-0-0/w STRC(252)         1 DEFERED_ID_TREE            0-0-0/w STRC(288)         1 DEFERED_QUAL_ID
     0-0-0/w STRC(288)         1 DEFERED_SUM_CLAUSE
     0-0-0/w STRC(288)         1 DEFERED_SUM_CLAUSE_LIST
     0-0-0/w STRC(144)         1 DEFLB                      0-0-0/w STRC(288)         1 DELETE_STMT
     0-0-0/w STRC(108)         1 DEPENDING_SIZE             0-0-0/w STRC(5472)        1 DIMS
     0-0-0/w STRC(288)         1 DIVIDE_STMT                0-0-0/w STRC(396)         1 DML_ITEM
     0-0-0/w STRC(216)         1 DML_REC                    0-0-0/w ASTR(180)   r     1 DNT
     0-0-0/w STRC(144)         1 DOEND                      0-0-0/w STRC(396)         1 DO_N
     0-0-0/w STRC(180)         1 DV4I                       0-0-0/w STRC(180)         1 ENTRY_ILL
PL6.E3A0      #003=Z8DT$REPORT_WRAPUP File=Z8DT.:Z8A6TSI                         SAT 08/09/97 11:31 Page:794
     0-0-0/w STRC(180)   r     1 ETT                        0-0-0/w STRC(108)         1 EVALU
     0-0-0/w STRC(73836)       1 EVALUATE                   0-0-0/w STRC(396)   r     1 FD
     0-0-0/w STRC(1692)  r     1 FILE_LTS                   0-0-0/w STRC(144)         1 GO
     0-0-0/w STRC(180)         1 ILL                        0-0-0/w STRC              1 ILL_NO_OPS
     0-0-0/w STRC(180)         1 ILS                        0-0-0/w STRC(288)         1 ILS_LIST
     0-0-0/w STRC(108)         1 INDEXES                    0-0-0/w STRC(360)         1 INIT_LTS
     0-0-0/w STRC(288)         1 INSPECT_1_STMT             0-0-0/w STRC(288)         1 INSPECT_2_STMT
     0-0-0/w STRC(288)         1 INSPECT_4_STMT             0-0-0/w STRC(396)         1 INTDEF
     0-0-0/w STRC(180)         1 IO_RESTORE_CHAIN           0-0-0/w STRC(144)         1 KEY
     0-0-0/w STRC(396)         1 LABEL                      0-0-0/w STRC(288)         1 LA_ITEM
     0-0-0/w STRC(36864)       1 LCNST                      0-0-0/w STRC(108)         1 LINOI
     0-0-0/w STRC(72)    r     1 LONG                       0-0-0/w STRC        r     1 LTS
     0-0-0/w STRC(360)         1 LTSS                       0-0-0/w STRC(36936) r     1 LTS_PTR_ARRAY
     0-0-0/w STRC(504)         1 LX_CD_INPUT                0-0-0/w STRC(324)         1 LX_CD_I_O
     0-0-0/w STRC(396)         1 LX_CD_OUTPUT               0-0-0/w STRC(288)         1 LX_ETT_ITEM
     0-0-0/w STRC(288)         1 LX_ITEM                    0-0-0/w STRC(288)         1 LX_LARGE
     0-0-0/w STRC(288)         1 LX_LIST                    0-0-0/w STRC(1224)        1 LX_REC_DECL
     0-0-0/w STRC(864)         1 LX_REPORT_REC              0-0-0/w STRC(288)   r     1 LX_TERMINAL
     0-0-0/w STRC(72)          1 MFILL                      0-0-0/w STRC(396)         1 MNEMONIC
     0-0-0/w STRC(288)         1 MULTIPLY_STMT              0-0-0/w STRC(180)         1 MULTI_GO
     0-0-0/w STRC(180)         1 MVEAL                      0-0-0/w STRC(108)         1 MVFIL
     0-0-0/w STRC(72)          1 MVIIS                      0-0-0/w STRC(144)         1 NEL
     0-0-0/w STRC(216)         1 OPEN_LTS                   0-0-0/w STRC(144)         1 OPN
     0-0-0/w STRC(180)         1 OS_CALL                    0-0-0/w STRC(36864)       1 PAGE
     0-0-0/w STRC(396)         1 PARA                       0-0-0/w STRC(216)         1 PFORM
     0-0-0/w STRC(144)         1 PINC                       0-0-0/w STRC(144)   r     1 PREOFF
     0-0-0/w STRC(108)         1 PRESET                     0-0-0/w STRC(144)         1 PRIME
     0-0-0/w STRC(396)   r     1 PROC_                      0-0-0/w STRC(396)         1 PROC_DEF
     0-0-0/w STRC(900)   r     1 PROC_SUPP                  0-0-0/w STRC(144)   r     1 P_A_PRESET
     0-0-0/w STRC(144)         1 P_P_PRESET                 0-0-0/w STRC(216)   r     1 QLT
     0-0-0/w STRC(396)   r     1 RD                         0-0-0/w STRC(288)         1 READ_STMT
     0-0-0/w STRC(216)         1 REF                        0-0-0/w STRC(144)         1 REMEM
     0-0-0/w STRC(108)         1 RENAMES                    0-0-0/w STRC(720)   r     1 REPORT_01_LTS
     0-0-0/w STRC(432)         1 REPORT_ELEM_LTS            0-0-0/w STRC(252)         1 REPORT_GRP_LTS
     0-0-0/w STRC(1332)  r     1 REPORT_LTS                 0-0-0/w STRC(288)         1 REWRITE_STMT
     0-0-0/w STRC(144)         1 RVA_LTS                    0-0-0/w STRC(396)   r     1 SCALAR
     0-0-0/w STRC(144)         1 SCOPE                      0-0-0/w STRC(396)         1 SD
PL6.E3A0      #003=Z8DT$REPORT_WRAPUP File=Z8DT.:Z8A6TSI                         SAT 08/09/97 11:31 Page:795
     0-0-0/w STRC(216)         1 SEARCH_                    0-0-0/w STRC(396)         1 SECTION
     0-0-0/w STRC(396)         1 SEGMENT                    0-0-0/w STRC(360)         1 SEGMENT_LTS
     0-0-0/w STRC(396)   r     1 ST                         0-0-0/w STRC(288)         1 START_STMT
     0-0-0/w STRC(72)          1 STP2                       0-0-0/w STRC(252)         1 STRING_STMT
     0-0-0/w STRC(288)         1 SUBTRACT_STMT              0-0-0/w STRC(252)         1 SUM_LTS
     0-0-0/w STRC(396)         1 SWITCH                     0-0-0/w STRC(396)         1 SYMBOLIC_CHAR
     0-0-0/w STRC(396)         1 SYMDEF_                    0-0-0/w STRC(396)         1 SYMREF_
     0-0-0/w STRC(396)         1 TEMP                       0-0-0/w STRC(144)         1 TRINARY_ILL
     0-0-0/w STRC(72)          1 UNARY_ILL                  0-0-0/w STRC(288)         1 UNARY_OP
     0-0-0/w STRC(288)         1 UNSTRING_STMT              0-0-0/d STRC(612)         1 USE
     0-0-0/w STRC(216)         1 USER_CALL                  0-0-0/w STRC(252)         1 USE_SUPP
     0-0-0/w STRC(108)         1 VAL                        0-0-0/w STRC(108)         1 VAL_END
     0-0-0/w STRC(396)   r     1 VARIABLE                   0-0-0/w STRC(72)          1 WHEN
     0-0-0/w STRC(288)         1 WRITE_STMT


   Procedure Z8DT$REPORT_WRAPUP requires 5160 words for executable code.
   Procedure Z8DT$REPORT_WRAPUP requires 26 words of local(AUTO) storage.

    No errors detected in file Z8DT.:Z8A6TSI    .
