PL6.E3A0      #001=Z8DT$REPORT_REC File=Z8DT.:Z8A6TSI                            SAT 08/09/97 11:22 Page:1
        1        1        /*T***********************************************************/
        2        2        /*T*                                                         */
        3        3        /*T* Copyright (c) Bull HN Information Systems Inc., 1997    */
        4        4        /*T*                                                         */
        5        5        /*T***********************************************************/
        6        6
        7        7        /*M*  Z8DT$REPORT_REC---REPORT SECTION record declaration process */
        8        8
        9        9
       10       10        /*P*
       11       11               NAME:  Z8DT$REPORT_REC
       12       12             AUTHOR:  Min Lee.
       13       13            PURPOSE:  To process record declarations in the REPORT SECTION
       14       14
       15       15        */
       16       16
       17       17        /*D*
       18       18               NAME:  Z8DT$REPORT_REC
       19       19               CALL:  CALL Z8DT$REPORT_REC(CURRENT_DECL$, NEXT_DECL$)
       20       20              INPUT:  Current and Next LX_REPORT_REC items that defined in
       21       21                      Z8E_STACKS and created in Z8EM$SEMANTIC_DATA_DIV to store
       22       22                      the address or the information of the data declarations.
       23       23
       24       24        DESCRIPTION:  This routine will validate the data declaration entries
       25       25                      and create the ST, QLT item for every entry and LTS item
       26       26                      for SUM counters and level 01 report group items.
       27       27                      The abstract syntax trees of the identifiers in the SOURCE
       28       28                      and the SUM clauses will be put on the lists pointed by
       29       29                      O1COM.REPORT_SOURCE$ or O1COM.REPORT_SUM$ and the process
       30       30                      is defered until the beginning of the procedure division
       31       31                      and processed in Z8ET$DEFERED_SUM_AND_SOURCE.
       32       32                      The control name of the control group will be saved on
       33       33                      the list pointed by O1COM.CONTROL_NAME$ and will be
       34       34                      processed by Z8DT$CONTROL_ITEMS at the end of data
       35       35                      division.
       36       36         */
       37       37         %EJECT;
PL6.E3A0      #001=Z8DT$REPORT_REC File=Z8DT.:Z8A6TSI                            SAT 08/09/97 11:22 Page:2
       38       38
       39       39         Z8DT$REPORT_REC:  PROC (CURRENT_DECL$, NEXT_DECL$) NOAUTO;
       40       40
       41       41
       42       42
       43       43        %EQU PHASE = 1;
       44       44        %INCLUDE Z8A_DEFC;
       45      112        %INCLUDE Z8A_SUPP_MAC;
       46     2512        %INCLUDE Z8A_COMCOM;
       47     3162        %INCLUDE Z8A_ST;
       48     6821        %INCLUDE Z8A_QLT;
       49     6927        %INCLUDE Z8A_LTS;
       50     9004        %INCLUDE Z8A_TYPES;
       51     9178        %INCLUDE Z8A_DNT;
       52     9399        %INCLUDE Z8A_ERR_NUMS;
       53    10163        %INCLUDE Z8A_ILL;
       54    10856        %INCLUDE Z8A_ETT;
       55    11157        %INCLUDE Z8A_XREF;
       56    11229        %INCLUDE Z8A_MKCN;
       57    11246
       58    11247        %INCLUDE Z8E_STACKS;
       59    13513        %INCLUDE Z8E_WINDOW;
       60    15583        %INCLUDE Z8E_O1COM;
       61    16344        %INCLUDE Z8D_REC_DECL;
       62    16789        %INCLUDE Z8E_MACROS;
       63    17464        %INCLUDE Z8D_PIC_PARM;
       64    17570        %INCLUDE Z8E_HEAP;
       65    17626        %INCLUDE Z8E_ABSSYN;
       66    17832        %INCLUDE Z8E_STATEMNT;
       67    17901
       68    17902        %PIC_IN;
       69    17915        %PIC_STR (LEN = 80, STCLASS = AUTO);
       70    17919        %PIC_OUT (STCLASS = EXT);
       71    17992        %GROUP_DECL;
       72    18002
       73    18003    1   DCL Z8DO$LINK_WITH_LTS        ENTRY (2);
       74    18004    1   DCL Z8EC$CREATE_CONST                ENTRY (3) ALTRET;
PL6.E3A0      #001=Z8DT$REPORT_REC File=Z8DT.:Z8A6TSI                            SAT 08/09/97 11:22 Page:3
       75    18005    1   DCL Z8EC$NEW_CONST_WITH_TYPE_DESC    ENTRY (3) ALTRET;
       76    18006    1   DCL Z8AF$FORME                ENTRY (4);
       77    18007    1   DCL Z8AF$NEW_BASE             ENTRY (3);
       78    18008    1   DCL Z8AE$ERROR                ENTRY (12);
       79    18009
       80    18010    1   DCL Z8AU$TYPE_DESCRIPTOR             ENTRY (2);
       81    18011    1   DCL Z8AU$CREATE_NUM_DESC             ENTRY (3);
       82    18012    1   DCL Z8ED$DISPOSE_ABSSYN_TREE         ENTRY (1);
       83    18013    1   DCL Z8DP$VALIDATE_PIC                ENTRY (3) ALTRET;
       84    18014    1   DCL Z8AH$SEARCH_                     ENTRY ;
       85    18015    1   DCL Z8CO$QUALIFY_VARIABLE            ENTRY (2) ALTRET;
       86    18016    1   DCL Z8AC$MAKE_CONST                  ENTRY (1);
       87    18017    1   DCL Z8DU$BUILD_INITIAL_ITEM          ENTRY (2);
       88    18018
       89    18019    1   DCL DNT$_FROM_RSWNO                  (0:0) PTR SYMREF READONLY;
       90    18020
       91    18021    1   DCL ENTRY_LTS$$                      PTR;
       92    18022    1   DCL CDECL$                           PTR;
       93    18023    1   DCL NDECL$                           PTR;
       94    18024    1   DCL CURRENT_DECL$                    PTR;
       95    18025    1   DCL P$                               PTR;
       96    18026    1   DCL NEXT_DECL$                       PTR;
       97    18027    1    DCL I                               SBIN WORD;
       98    18028
       99    18029
      100    18030    1   DCL  1 REPORT_DATA                  ALIGNED,
      101    18031    1          2 LEVEL                      UNAL,
      102    18032    1            3 CURRENT                  SBIN WORD,
      103    18033    1            3 PREVIOUS                 SBIN WORD,
      104    18034    1            3 NEXT                     SBIN WORD,
      105    18035    1          2 SIGN                       UNAL,
      106    18036    1            3 LOCATION                 SBIN WORD,
      107    18037    1            3 TYPE                     SBIN WORD,
      108    18038    1            3 LINE                     SBIN WORD,
      109    18039    1            3 COLUMN                   SBIN WORD,
      110    18040    1          2 GROUP_TYPE                 UBIN WORD,
      111    18041    1          2 LINE_TYPE                  UBIN WORD,
PL6.E3A0      #001=Z8DT$REPORT_REC File=Z8DT.:Z8A6TSI                            SAT 08/09/97 11:22 Page:4
      112    18042    1          2 TYPE                       SBIN WORD,
      113    18043    1          2 COLUMN_NUMBER              SBIN WORD,
      114    18044    1          2 SPAN                       SBIN WORD,
      115    18045    1          2 NEXT_GROUP_TYPE            UBIN WORD,
      116    18046    1          2 LINE_NUMBER                SBIN WORD,
      117    18047    1          2 STK_PTR                    SBIN WORD,
      118    18048    1          2 LTS$                       PTR,
      119    18049    1          2 DESC,
      120    18050                 %DESCRIPTOR (LVL = 3);
      121    18078    1          2 NEXT_GROUP_NO#             SBIN WORD,
      122    18079    1          2 ATTR                       UBIN WORD,
      123    18080    1          2 B   REDEF ATTR,
      124    18081    1            3 PRINTABLE                BOOLEAN,
      125    18082    1            3 ELEMENTARY               BOOLEAN,
      126    18083    1            3 ASTERISK                 BOOLEAN,
      127    18084    1            3 SIGN_FOUND               BOOLEAN,
      128    18085    1            3 JUSTIFIED                BOOLEAN,
      129    18086    1            3 CLASS                    UBIN(3) UNAL,
      130    18087    1            3 SIGN_PRESENT             BOOLEAN,
      131    18088    1            3 ASTERISK_SUPRESS         BOOLEAN,
      132    18089    1            3 P                        BOOLEAN,
      133    18090    1            3 GROUP_INDICATE           BOOLEAN,
      134    18091    1            3 CONTROL_ERROR            BOOLEAN,
      135    18092    1            3 LENGTH_4096              BOOLEAN,
      136    18093    1            3 GREATER_256K             BOOLEAN,
      137    18094    1            3 LINE_PRESENTED           BOOLEAN,
      138    18095    1            3 COLUMN_PRESENTED         BOOLEAN,
      139    18096    1            3 NEXT_GROUP_PRESENTED     BOOLEAN,
      140    18097    1            3 SUM_PRESENTED            BOOLEAN,
      141    18098    1            3 SOURCE_PRESENTED         BOOLEAN,
      142    18099    1            3 KANJI                    BOOLEAN,
      143    18100    1            3 *                        BIT(15);
      144    18101
      145    18102
      146    18103
      147    18104         %EJECT;
PL6.E3A0      #001=Z8DT$REPORT_REC File=Z8DT.:Z8A6TSI                            SAT 08/09/97 11:22 Page:5
      148    18105         %MACRO INIT_REPORT_DATA;
      149    18106           DO;
      150    18107             REPORT_DATA.LTS$ = ADDR(NIL);
      151    18108             REPORT_DATA.GROUP_TYPE = 0;
      152    18109             REPORT_DATA.LINE_TYPE = 0;
      153    18110             REPORT_DATA.NEXT_GROUP_TYPE = 0;
      154    18111             REPORT_DATA.LINE_NUMBER = 0;
      155    18112             REPORT_DATA.NEXT_GROUP_NO# = 0;
      156    18113             REPORT_DATA.ATTR = 0;
      157    18114           END;
      158    18115         %MEND;
      159    18116         %EJECT;
PL6.E3A0      #001=Z8DT$REPORT_REC File=Z8DT.:Z8A6TSI                            SAT 08/09/97 11:22 Page:6
      160    18117
      161    18118         %MACRO CHECK_NEXT_PAGE_W_TYPE (@GROUP_TYPE = );
      162    18119           DO;
      163    18120             IF REPORT_DATA.LINE_TYPE = %REPORT_LINE_NEXT_PAGE THEN
      164    18121               DO;
      165    18122                 DO CASE (@GROUP_TYPE);
      166    18123                   CASE (%REPORT_HEADING, %PAGE_HEADING, %PAGE_FOOTING);
      167    18124
      168    18125                        CALL Z8AE$ERROR (%E$NEXT_PAGE_IN_WRONG_GRP,
      169    18126                                         LINE$ -> LX_ITEM.LINE,
      170    18127                                         LINE$ -> LX_ITEM.COLUMN);
      171    18128                        REPORT_DATA.LINE_TYPE = %REPORT_LINE_INT;
      172    18129
      173    18130                   CASE (ELSE);
      174    18131                        /* OK */
      175    18132                 END;
      176    18133               END;
      177    18134           END;
      178    18135         %MEND;
      179    18136         %EJECT;
PL6.E3A0      #001=Z8DT$REPORT_REC File=Z8DT.:Z8A6TSI                            SAT 08/09/97 11:22 Page:7
      180    18137
      181    18138
      182    18139        /*============*/
      183    18140    1     PIC_RECOVERY:  PROC ;
      184    18141        /*============*/
      185    18142
      186    18143         /*
      187    18144              NAME: PIC_RECOVERY
      188    18145
      189    18146           DESCRIPTION: When a PICTURE clause is missing from a elementary
      190    18147                        entry, this routine is called to create a PIC 9999
      191    18148                        LX_ITEM for it.
      192    18149          */
      193    18150
      194    18151          %EQU PIC_TEXT = '9999';
      195    18152          %EQU PIC_TEXT_LEN = 4;
      196    18153
      197    18154    2     LEX_SYMBOL.SIZE = %PIC_TEXT_LEN;
      198    18155    2     SUBSTR (LEX_SYMBOL.SYMBOL, 0, %PIC_TEXT_LEN) = %PIC_TEXT;
      199    18156
      200    18157    2     CALL Z8AH$SEARCH_;
      201    18158    2     CALL Z8ED$NEW_HEAP(P$, %LENGTH_LX_ITEM);
      202    18159          %INIT_LX_TERMINAL(@POINTER = P$, @DNT$ = DNT$,
      203    18160              @LINE = CDECL$ -> LX_REPORT_REC.P.DATA_NAME$ -> LX_ITEM.LINE,
      204    18161              @COLUMN = CDECL$ -> LX_REPORT_REC.P.DATA_NAME$ -> LX_ITEM.COLUMN);
      205    18179    2     CDECL$ -> LX_REPORT_REC.P.PICTURE$ = P$;
      206    18180
      207    18181    2     END PIC_RECOVERY;
      208    18182          %EJECT;
PL6.E3A0      #001=Z8DT$REPORT_REC File=Z8DT.:Z8A6TSI                            SAT 08/09/97 11:22 Page:8
      209    18183
      210    18184        /*=============*/
      211    18185    1     EXTRACT_LEVEL:    PROC;
      212    18186        /*=============*/
      213    18187
      214    18188         /*
      215    18189              NAME: EXTRACT_LEVEL
      216    18190
      217    18191           DESCRIPTION: Three data entries level value--previous, current
      218    18192                        and next--will be extracted and saved for later
      219    18193                        use. The elementary entry will be recognized and
      220    18194                        the missing PIC clause will be flagged and recovered.
      221    18195          */
      222    18196
      223    18197
      224    18198
      225    18199    2      REPORT_DATA.LEVEL.PREVIOUS = O1COM.LEVEL_NO;
      226    18200
      227    18201    2      O1COM.LEVEL_NO = CDECL$ -> LX_REPORT_REC.LEVEL_NUMBER;
      228    18202
      229    18203    2      REPORT_DATA.LEVEL.CURRENT = O1COM.LEVEL_NO;
      230    18204
      231    18205    2      IF NDECL$ = ADDR(NIL) THEN
      232    18206    2        REPORT_DATA.LEVEL.NEXT = %LEVEL_01;
      233    18207    2      ELSE
      234    18208    2        REPORT_DATA.LEVEL.NEXT = NDECL$ -> LX_REPORT_REC.LEVEL_NUMBER;
      235    18209
      236    18210    2      IF REPORT_DATA.LEVEL.CURRENT = %LEVEL_01 THEN
      237    18211    3        DO;
      238    18212    3          GROUP = '0'B;
      239    18213    3          GROUP.USAGE.LEVEL = %LEVEL_01;
      240    18214    3          GROUP.VALUE.LEVEL = %LEVEL_01;
      241    18215    3        END;
      242    18216    2      ELSE IF COMCOM.OB.FIPS.LEVEL > 0 AND
      243    18217    2          REPORT_DATA.LEVEL.CURRENT < REPORT_DATA.LEVEL.PREVIOUS THEN
      244    18218    3   SEQ_CHECK: DO;
      245    18219    4          DO I = REP_STK_PTR DOWNTO 2;
PL6.E3A0      #001=Z8DT$REPORT_REC File=Z8DT.:Z8A6TSI                            SAT 08/09/97 11:22 Page:9
      246    18220    4            IF REP_STK.LEVEL#(I) = REPORT_DATA.LEVEL.CURRENT THEN
      247    18221    4              EXIT SEQ_CHECK;
      248    18222    4          END;
      249    18223    3          CALL Z8AE$ERROR (%E$ANSI_LEVEL_SEQ_ERROR,
      250    18224    3                           CDECL$ -> LX_REPORT_REC.P.LEVEL_NO$ -> LX_ITEM.LINE,
      251    18225    3                           CDECL$ -> LX_REPORT_REC.P.LEVEL_NO$ -> LX_ITEM.COLUMN);
      252    18226    3        END; /* SEQ_CHECK */
      253    18227
      254    18228    2      REPORT_DATA.B.ELEMENTARY = (REPORT_DATA.LEVEL.NEXT <=
      255    18229    2                                  REPORT_DATA.LEVEL.CURRENT);
      256    18230
      257    18231    2      IF REPORT_DATA.LEVEL.CURRENT <= GROUP.VALUE.LEVEL THEN
      258    18232    2        GROUP.VALUE.LEVEL = REPORT_DATA.LEVEL.CURRENT;
      259    18233
      260    18234    2      IF REPORT_DATA.B.ELEMENTARY  THEN
      261    18235    2        IF CDECL$ -> LX_REPORT_REC.P.PICTURE$ = ADDR(NIL) THEN
      262    18236    2          IF REPORT_DATA.LEVEL.CURRENT > %LEVEL_01 AND
      263    18237    2              REPORT_DATA.LEVEL.PREVIOUS ~= 0 THEN
      264    18238    3            DO;
      265    18239    3              CALL Z8AE$ERROR(%E$MISSING_DATA_PIC_CLAUSE,
      266    18240    3                    CDECL$ -> LX_REPORT_REC.P.DATA_NAME$ -> LX_ITEM.LINE,
      267    18241    3                    CDECL$ -> LX_REPORT_REC.P.DATA_NAME$ -> LX_ITEM.COLUMN,
      268    18242    3                    CDECL$ -> LX_REPORT_REC.P.DATA_NAME$ -> LX_ITEM.DNT$);
      269    18243    3              CALL PIC_RECOVERY;
      270    18244    3            END;
      271    18245
      272    18246    2   END EXTRACT_LEVEL;
      273    18247        %EJECT;
PL6.E3A0      #001=Z8DT$REPORT_REC File=Z8DT.:Z8A6TSI                            SAT 08/09/97 11:22 Page:10
      274    18248
      275    18249        /*===========*/
      276    18250    1     EXTRACT_PIC: PROC;
      277    18251        /*===========*/
      278    18252
      279    18253         /*
      280    18254              NAME: EXTRACT_PIC
      281    18255
      282    18256           DESCRIPTION: The PICTURE string will be processed here,
      283    18257                        Z8DP$VALIDATE_PIC is called to produce the
      284    18258                        micro-operation strings and some useful information
      285    18259                        like the picture type and length.
      286    18260          */
      287    18261
      288    18262    2   DCL PIC$                      PTR;
      289    18263    2   DCL SIGN_TYPE                 SBIN WORD;
      290    18264
      291    18265
      292    18266    2      PIC$ = CDECL$ -> LX_REPORT_REC.P.PICTURE$;
      293    18267    2      PIC_STR = PIC$ -> LX_ITEM.DNT$ -> DNT.TEXT.NAME;
      294    18268    2      PIC_IN.PIC_L = PIC$ -> LX_ITEM.DNT$ -> DNT.TEXT.LENGTH;
      295    18269    2      PIC_IN.MOP_L  = %MAX_MOP_LENGTH;
      296    18270    2      PIC_OUT.ERROR = %NO_ERROR;
      297    18271
      298    18272    2      IF PIC_IN.PIC_L > %MAX_PIC_STR_LENGTH THEN
      299    18273    3        DO;
      300    18274               %CONDITIONAL_ERROR (@LX_ITEM$ = PIC$,
      301    18275                                   @ERROR#   = %E$PIC_STR_TOO_LONG,
      302    18276                                   @LINE     = PIC$ -> LX_ITEM.LINE,
      303    18277                                   @COLUMN   = PIC$ -> LX_ITEM.COLUMN);
      304    18307    3          RETURN;
      305    18308    3        END;
      306    18309
      307    18310    2      CALL EXTRACT_BLANK_WHEN_ZERO (PIC_IN.B.BLANK_WHEN_ZERO);
      308    18311
      309    18312           /* If a blank when zero was specified and an asterisk was in
      310    18313              the pic string it is illegal                              */
PL6.E3A0      #001=Z8DT$REPORT_REC File=Z8DT.:Z8A6TSI                            SAT 08/09/97 11:22 Page:11
      311    18314
      312    18315    2      IF CDECL$ -> LX_REPORT_REC.P.BLANK$ ~= ADDR(NIL)
      313    18316    2      AND NOT PIC_IN.B.BLANK_WHEN_ZERO THEN
      314    18317    2        REPORT_DATA.B.ASTERISK = TRUE;
      315    18318
      316    18319    2      CALL Z8DP$VALIDATE_PIC (PIC_STR, PIC_IN, PIC_OUT)
      317    18320    2        WHENALTRETURN
      318    18321    3          DO;
      319    18322                 /* Nothing - error flagged later */
      320    18323    3          END;
      321    18324
      322    18325
      323    18326    3      DO CASE(PIC_OUT.EIS_TYPE);
      324    18327    3        CASE (%PIC_EIS_LS, %PIC_EIS_TS, %PIC_EIS_LSTS, %PIC_EIS_FLT);
      325    18328    3            REPORT_DATA.B.SIGN_FOUND = TRUE;
      326    18329    3            REPORT_DATA.SIGN.TYPE = O1COM.DISPLAY_SIGN_TYPE;
      327    18330    3        CASE (ELSE);
      328    18331                 /* No sign found */
      329    18332    3      END;
      330    18333
      331    18334    2   END EXTRACT_PIC;
      332    18335        %EJECT;
PL6.E3A0      #001=Z8DT$REPORT_REC File=Z8DT.:Z8A6TSI                            SAT 08/09/97 11:22 Page:12
      333    18336
      334    18337        /*=======================*/
      335    18338    1     EXTRACT_BLANK_WHEN_ZERO: PROC (BLANK_WHEN_ZERO);
      336    18339        /*=======================*/
      337    18340
      338    18341         /*
      339    18342              NAME: EXTRACT_BLANK_WHEN_ZERO
      340    18343
      341    18344           DESCRIPTION: BLANK WHEN ZERO clause is checked against the
      342    18345                        picture string and the bit BLANK_WHEN_ZERO is
      343    18346                        set.
      344    18347          */
      345    18348
      346    18349    2   DCL BLANK_WHEN_ZERO           BIT(1) ALIGNED;
      347    18350    2   DCL INDEX#                    SBIN WORD;
      348    18351
      349    18352
      350    18353
      351    18354    2      IF CDECL$ -> LX_REPORT_REC.P.BLANK$ ~= ADDR(NIL) THEN
      352    18355    3        DO;
      353    18356    3          CALL INDEX (INDEX#,
      354    18357    3                      %ASTERISK,
      355    18358    3                      CDECL$ -> LX_REPORT_REC.P.PICTURE$ ->
      356    18359    3                      LX_ITEM.DNT$ -> DNT.TEXT.NAME);
      357    18360
      358    18361    3          IF INDEX# ~= CDECL$ -> LX_REPORT_REC.P.PICTURE$ ->
      359    18362    3                       LX_ITEM.DNT$ -> DNT.TEXT.LENGTH THEN
      360    18363    3            BLANK_WHEN_ZERO = FALSE;
      361    18364    3          ELSE
      362    18365    3            BLANK_WHEN_ZERO = TRUE;
      363    18366    3        END;
      364    18367    2      ELSE
      365    18368    2        BLANK_WHEN_ZERO     = FALSE;
      366    18369
      367    18370    2   END EXTRACT_BLANK_WHEN_ZERO;
      368    18371        %EJECT;
PL6.E3A0      #001=Z8DT$REPORT_REC File=Z8DT.:Z8A6TSI                            SAT 08/09/97 11:22 Page:13
      369    18372
      370    18373        /*==============*/
      371    18374    1     VALIDATE_LEVEL: PROC;
      372    18375        /*==============*/
      373    18376
      374    18377         /*
      375    18378              NAME: VALIDATE_LEVEL
      376    18379
      377    18380           DESCRIPTION: Entry level is validated here and the missing TYPE
      378    18381                        clause will be flagged and recovered too.
      379    18382
      380    18383          */
      381    18384
      382    18385
      383    18386    2   DCL LEVEL$                    PTR;
      384    18387
      385    18388
      386    18389
      387    18390    2      IF REPORT_DATA.LEVEL.PREVIOUS = 0  THEN
      388    18391    2        IF REPORT_DATA.LEVEL.CURRENT ~= %LEVEL_01  THEN
      389    18392    3        DO;
      390    18393    3          LEVEL$ = CDECL$ -> LX_REPORT_REC.P.LEVEL_NO$;
      391    18394
      392    18395               %CONDITIONAL_ERROR (@LX_ITEM$ = LEVEL$,
      393    18396                                   @ERROR#   = %E$LEVEL_1_OR_77_AT_TOP,
      394    18397                                   @LINE     = LEVEL$ -> LX_ITEM.LINE,
      395    18398                                   @COLUMN   = LEVEL$ -> LX_ITEM.COLUMN);
      396    18428
      397    18429    3          O1COM.LEVEL_NO = %LEVEL_01;
      398    18430    3          REPORT_DATA.LEVEL.CURRENT = %LEVEL_01;
      399    18431    3          IF REPORT_DATA.LEVEL.NEXT = %LEVEL_01 THEN
      400    18432    3            REPORT_DATA.B.ELEMENTARY = TRUE;
      401    18433    3        END;
      402    18434
      403    18435    2      IF REPORT_DATA.LEVEL.CURRENT < %LEVEL_01  THEN
      404    18436    3        DO;
      405    18437    3          LEVEL$ = CDECL$ -> LX_REPORT_REC.P.LEVEL_NO$;
PL6.E3A0      #001=Z8DT$REPORT_REC File=Z8DT.:Z8A6TSI                            SAT 08/09/97 11:22 Page:14
      406    18438
      407    18439               %CONDITIONAL_ERROR (@LX_ITEM$ = LEVEL$,
      408    18440                                   @ERROR#   = %E$ERR_LEVEL_AND_01_ASSUMED,
      409    18441                                   @LINE     = LEVEL$ -> LX_ITEM.LINE,
      410    18442                                   @COLUMN   = LEVEL$ -> LX_ITEM.COLUMN);
      411    18472
      412    18473    3          O1COM.LEVEL_NO = %LEVEL_01;
      413    18474    3          REPORT_DATA.LEVEL.CURRENT = %LEVEL_01;
      414    18475    3          IF REPORT_DATA.LEVEL.NEXT = %LEVEL_01 THEN
      415    18476    3            REPORT_DATA.B.ELEMENTARY = TRUE;
      416    18477    3        END;
      417    18478
      418    18479    2      IF REPORT_DATA.LEVEL.CURRENT > %LEVEL_49  THEN
      419    18480    3        DO;
      420    18481    3          LEVEL$ = CDECL$ -> LX_REPORT_REC.P.LEVEL_NO$;
      421    18482
      422    18483               %CONDITIONAL_ERROR (@LX_ITEM$ = LEVEL$,
      423    18484                                   @ERROR#   = %E$ERR_LEVEL_AND_49_ASSUMED,
      424    18485                                   @LINE     = LEVEL$ -> LX_ITEM.LINE,
      425    18486                                   @COLUMN   = LEVEL$ -> LX_ITEM.COLUMN);
      426    18516
      427    18517    3          O1COM.LEVEL_NO = %LEVEL_49;
      428    18518    3          REPORT_DATA.LEVEL.CURRENT = %LEVEL_49;
      429    18519    3        END;
      430    18520
      431    18521    2      IF REPORT_DATA.LEVEL.CURRENT = %LEVEL_01  THEN
      432    18522    2        IF CDECL$ -> LX_REPORT_REC.P.TYPE$ = ADDR(NIL) THEN
      433    18523    3        DO;
      434    18524    3          LEVEL$ = CDECL$ -> LX_REPORT_REC.P.LEVEL_NO$;
      435    18525
      436    18526               %CONDITIONAL_ERROR (@LX_ITEM$ = LEVEL$,
      437    18527                                   @ERROR#   = %E$TYPE_CLAUSE_MISSING,
      438    18528                                   @LINE     = LEVEL$ -> LX_ITEM.LINE,
      439    18529                                   @COLUMN   = LEVEL$ -> LX_ITEM.COLUMN);
      440    18559
      441    18560    3          REPORT_DATA.GROUP_TYPE = %TYPE_DETAIL;
      442    18561    3        END;
PL6.E3A0      #001=Z8DT$REPORT_REC File=Z8DT.:Z8A6TSI                            SAT 08/09/97 11:22 Page:15
      443    18562
      444    18563    2    END VALIDATE_LEVEL;
      445    18564         %EJECT;
PL6.E3A0      #001=Z8DT$REPORT_REC File=Z8DT.:Z8A6TSI                            SAT 08/09/97 11:22 Page:16
      446    18565
      447    18566        /*============*/
      448    18567    1     VALIDATE_PIC: PROC;
      449    18568        /*============*/
      450    18569
      451    18570         /*
      452    18571              NAME: VALIDATE_PIC
      453    18572
      454    18573           DESCRIPTION: The PICTURE clause is validated and the BLANK
      455    18574                        WHEN ZERO clause is also checked against the PIC
      456    18575                        clause here.
      457    18576          */
      458    18577
      459    18578
      460    18579    2   DCL PIC$                      PTR;
      461    18580    2   DCL COLUMN#                   SBIN WORD;
      462    18581
      463    18582
      464    18583
      465    18584    2      PIC$ = CDECL$ -> LX_REPORT_REC.P.PICTURE$;
      466    18585
      467    18586    2      IF REPORT_DATA.LEVEL.CURRENT = %LEVEL_01 THEN
      468    18587    3        DO;
      469    18588               %CONDITIONAL_ERROR (@LX_ITEM$ = PIC$,
      470    18589                                   @ERROR#   = %E$ERR_CLAUSE_IN_REP_01_ENTRY,
      471    18590                                   @LINE     = PIC$ -> LX_ITEM.LINE,
      472    18591                                   @COLUMN   = PIC$ -> LX_ITEM.COLUMN,
      473    18592                                   @PLUG1    = "DNT$_FROM_RSWNO(%RSV_WRD_PICTURE)");
      474    18622    3          CALL Z8ED$DISPOSE_ABSSYN_TREE(CDECL$ -> LX_REPORT_REC.P.PICTURE$);
      475    18623    3          RETURN;
      476    18624    3        END;
      477    18625
      478    18626    2      IF NOT REPORT_DATA.B.ELEMENTARY THEN
      479    18627    3        DO;
      480    18628               %CONDITIONAL_ERROR (@LX_ITEM$ = PIC$,
      481    18629                                   @ERROR#   = %E$ERR_CLAUSE_IN_GROUP_ENTRY,
      482    18630                                   @LINE     = PIC$ -> LX_ITEM.LINE,
PL6.E3A0      #001=Z8DT$REPORT_REC File=Z8DT.:Z8A6TSI                            SAT 08/09/97 11:22 Page:17
      483    18631                                   @COLUMN   = PIC$ -> LX_ITEM.COLUMN,
      484    18632                                   @PLUG1    = "DNT$_FROM_RSWNO(%RSV_WRD_PICTURE)");
      485    18662    3          CALL Z8ED$DISPOSE_ABSSYN_TREE(CDECL$ -> LX_REPORT_REC.P.PICTURE$);
      486    18663    3          RETURN;
      487    18664    3        END;
      488    18665
      489    18666    2      IF PIC_OUT.ERROR ~= %NO_ERROR THEN
      490    18667    3        DO;
      491    18668    3          COLUMN# = PIC_OUT.ERRCOL + PIC$ -> LX_ITEM.COLUMN;
      492    18669
      493    18670               %CONDITIONAL_ERROR (@LX_ITEM$ = PIC$,
      494    18671                                   @ERROR#   = PIC_OUT.ERROR,
      495    18672                                   @LINE     = PIC$ -> LX_ITEM.LINE,
      496    18673                                   @COLUMN   = COLUMN#);
      497    18703    3          PIC_OUT.TYPE = %PIC_TY_N;
      498    18704    3          PIC_OUT.LEFT = %DEFAULT_NUMERIC_WIDTH;
      499    18705    3          PIC_OUT.WIDTH = %DEFAULT_NUMERIC_WIDTH;
      500    18706    3          PIC_OUT.SCALE = %DEFAULT_NUMERIC_SCALE;
      501    18707    3          PIC_OUT.EIS_TYPE = %PIC_EIS_NS;
      502    18708
      503    18709    3          RETURN;
      504    18710    3        END;
      505    18711
      506    18712    2      IF REPORT_DATA.B.ASTERISK THEN
      507    18713    3        DO;
      508    18714               %CONDITIONAL_ERROR (@LX_ITEM$ = PIC$,
      509    18715                                   @ERROR#   = %E$BWZ_AND_ASTERISK,
      510    18716                                   @LINE     = PIC$ -> LX_ITEM.LINE,
      511    18717                                   @COLUMN   = PIC$ -> LX_ITEM.COLUMN);
      512    18747    3            CALL Z8ED$DISPOSE_ABSSYN_TREE(CDECL$ -> LX_REPORT_REC.P.BLANK$);
      513    18748    3        END;
      514    18749
      515    18750    2      IF PIC_OUT.TYPE = %PIC_TY_K
      516    18751    2      AND (~ COMCOM.OB.KANJI) THEN
      517    18752    3        DO;
      518    18753               %CONDITIONAL_ERROR (@LX_ITEM$  = PIC$,
      519    18754                                   @ERROR#    = %E$PIC_N_ILLEGAL,
PL6.E3A0      #001=Z8DT$REPORT_REC File=Z8DT.:Z8A6TSI                            SAT 08/09/97 11:22 Page:18
      520    18755                                   @LINE      = PIC$ -> LX_ITEM.LINE,
      521    18756                                   @COLUMN    = PIC$ -> LX_ITEM.COLUMN);
      522    18786    3          RETURN;
      523    18787    3        END;
      524    18788
      525    18789    2   END VALIDATE_PIC;
      526    18790        %EJECT;
PL6.E3A0      #001=Z8DT$REPORT_REC File=Z8DT.:Z8A6TSI                            SAT 08/09/97 11:22 Page:19
      527    18791
      528    18792        /*==============*/
      529    18793    1     VALIDATE_VALUE: PROC;
      530    18794        /*==============*/
      531    18795
      532    18796         /*
      533    18797              NAME: VALIDATE_VALUE
      534    18798
      535    18799           DESCRIPTION: VALUE clause is validated against the PIC clause
      536    18800                        and some other rules.
      537    18801
      538    18802          */
      539    18803
      540    18804
      541    18805    2   DCL VALUE$                    PTR;
      542    18806        %DCL_NUM_DESC (@STRN = NUM_DESC);
      543    18815
      544    18816
      545    18817
      546    18818    2      VALUE$ = CDECL$ -> LX_REPORT_REC.P.VALUE$;
      547    18819
      548    18820    2      IF REPORT_DATA.LEVEL.CURRENT = %LEVEL_01 THEN
      549    18821    3        DO;
      550    18822               %CONDITIONAL_ERROR (@LX_ITEM$ = VALUE$,
      551    18823                                   @ERROR#   = %E$ERR_CLAUSE_IN_REP_01_ENTRY,
      552    18824                                   @LINE     = VALUE$ -> LX_ITEM.LINE,
      553    18825                                   @COLUMN   = VALUE$ -> LX_ITEM.COLUMN,
      554    18826                                   @PLUG1    = "DNT$_FROM_RSWNO(%RSV_WRD_VALUE)");
      555    18856    3          CALL Z8ED$DISPOSE_ABSSYN_TREE(CDECL$ -> LX_REPORT_REC.P.VALUE$);
      556    18857    3          RETURN;
      557    18858    3        END;
      558    18859
      559    18860    2      IF NOT REPORT_DATA.B.ELEMENTARY THEN
      560    18861    3        DO;
      561    18862               %CONDITIONAL_ERROR (@LX_ITEM$ = VALUE$,
      562    18863                                   @ERROR#   = %E$ERR_CLAUSE_IN_GROUP_ENTRY,
      563    18864                                   @LINE     = VALUE$ -> LX_ITEM.LINE,
PL6.E3A0      #001=Z8DT$REPORT_REC File=Z8DT.:Z8A6TSI                            SAT 08/09/97 11:22 Page:20
      564    18865                                   @COLUMN   = VALUE$ -> LX_ITEM.COLUMN,
      565    18866                                   @PLUG1    = "DNT$_FROM_RSWNO(%RSV_WRD_VALUE)");
      566    18896    3          CALL Z8ED$DISPOSE_ABSSYN_TREE(CDECL$ -> LX_REPORT_REC.P.VALUE$);
      567    18897    3          RETURN;
      568    18898    3        END;
      569    18899
      570    18900    3      DO CASE(VALUE$ -> LX_ITEM.SYMBOL);
      571    18901
      572    18902    3        CASE(%NUMERIC_LITERAL);
      573    18903    4            DO;
      574    18904    4              CALL Z8AU$CREATE_NUM_DESC (VALUE$ -> LX_ITEM.DNT$ -> DNT.TEXT.NAME,
      575    18905    4                          BINBIT(VALUE$ -> LX_ITEM.DNT$ -> DNT.TEXT.LENGTH,36),
      576    18906    4                          NUM_DESC);
      577    18907
      578    18908    4              IF NUM_DESC.MANTISSA_SIGN_VALUE ~= %NO_SIGN_VALUE THEN
      579    18909    4                IF PIC_OUT.EIS_TYPE = %PIC_EIS_NS THEN
      580    18910                       %CONDITIONAL_ERROR (@LX_ITEM$ = VALUE$,
      581    18911                                           @ERROR#   = %E$PIC_MUST_HAVE_SIGN,
      582    18912                                           @LINE     = VALUE$ -> LX_ITEM.LINE,
      583    18913                                           @COLUMN   = VALUE$ -> LX_ITEM.COLUMN);
      584    18943
      585    18944    4              IF PIC_OUT.TYPE ~= %PIC_TY_N THEN
      586    18945                     %CONDITIONAL_ERROR (@ERROR#   = %E$NUM_CONST_W_ALPHA_ITEM,
      587    18946                                         @LX_ITEM$ = VALUE$,
      588    18947                                         @LINE     = VALUE$ -> LX_ITEM.LINE,
      589    18948                                         @COLUMN   = VALUE$ -> LX_ITEM.COLUMN);
      590    18978    4            END;
      591    18979
      592    18980    3        CASE(%NUMBER, %NUMBER_OR_PARAGRAPH);
      593    18981    4            DO;
      594    18982    4              IF PIC_OUT.TYPE ~= %PIC_TY_N THEN
      595    18983                     %CONDITIONAL_ERROR (@ERROR#   = %E$NUM_CONST_W_ALPHA_ITEM,
      596    18984                                         @LX_ITEM$ = VALUE$,
      597    18985                                         @LINE     = VALUE$ -> LX_ITEM.LINE,
      598    18986                                         @COLUMN   = VALUE$ -> LX_ITEM.COLUMN);
      599    19016    4            END;
      600    19017
PL6.E3A0      #001=Z8DT$REPORT_REC File=Z8DT.:Z8A6TSI                            SAT 08/09/97 11:22 Page:21
      601    19018    3        CASE(%RSV_WRD_ZEROES);
      602    19019               /* Peachy */
      603    19020    3      ;
      604    19021    3        CASE(%ALPHA_LITERAL,     %RSV_WRD_HIGH_VALUES,
      605    19022    3             %RSV_WRD_SPACES,    %RSV_WRD_LOW_VALUES,
      606    19023    3             %RSV_WRD_QUOTES,    %SINGLE_QUOTE);
      607    19024    3           IF PIC_OUT.TYPE = %PIC_TY_N THEN
      608    19025    4            DO;
      609    19026                   %CONDITIONAL_ERROR (@ERROR#   = %E$ILLEGAL_CHARS_IN_VALUE,
      610    19027                                       @LX_ITEM$ = VALUE$,
      611    19028                                       @LINE     = VALUE$ -> LX_ITEM.LINE,
      612    19029                                       @COLUMN   = VALUE$ -> LX_ITEM.COLUMN);
      613    19059    4              CALL Z8ED$DISPOSE_ABSSYN_TREE (CDECL$ -> LX_REPORT_REC.P.VALUE$);
      614    19060    4            END; /* END DO */
      615    19061
      616    19062    3        CASE(ELSE);
      617    19063    3          CALL Z8AE$ERROR (%E$UNEXPECTED_CASE);
      618    19064    3          CALL Z8ED$DISPOSE_ABSSYN_TREE (CDECL$ -> LX_REPORT_REC.P.VALUE$);
      619    19065
      620    19066    3      END; /* Case */
      621    19067    2     END VALIDATE_VALUE;
      622    19068          %EJECT;
PL6.E3A0      #001=Z8DT$REPORT_REC File=Z8DT.:Z8A6TSI                            SAT 08/09/97 11:22 Page:22
      623    19069
      624    19070        /*==============*/
      625    19071    1     VALIDATE_BLANK: PROC;
      626    19072        /*==============*/
      627    19073
      628    19074         /*
      629    19075              NAME: VALIDATE_BLANK
      630    19076
      631    19077           DESCRIPTION: BLANK WHEN ZERO clause is validated here.
      632    19078
      633    19079          */
      634    19080
      635    19081
      636    19082    2   DCL BLANK$                    PTR;
      637    19083
      638    19084
      639    19085
      640    19086    2      BLANK$ = CDECL$ -> LX_REPORT_REC.P.BLANK$;
      641    19087
      642    19088    2      IF REPORT_DATA.LEVEL.CURRENT = %LEVEL_01 THEN
      643    19089    3        DO;
      644    19090               %CONDITIONAL_ERROR (@LX_ITEM$ = BLANK$,
      645    19091                                   @ERROR#   = %E$ERR_CLAUSE_IN_REP_01_ENTRY,
      646    19092                                   @LINE     = BLANK$ -> LX_ITEM.LINE,
      647    19093                                   @COLUMN   = BLANK$ -> LX_ITEM.COLUMN,
      648    19094                                   @PLUG1    = "DNT$_FROM_RSWNO(%RSV_WRD_BLANK)");
      649    19124    3          CALL Z8ED$DISPOSE_ABSSYN_TREE(CDECL$ -> LX_REPORT_REC.P.BLANK$);
      650    19125    3          RETURN;
      651    19126    3        END;
      652    19127
      653    19128    2      IF NOT REPORT_DATA.B.ELEMENTARY THEN
      654    19129    3        DO;
      655    19130               %CONDITIONAL_ERROR (@LX_ITEM$ = BLANK$,
      656    19131                                   @ERROR#   = %E$ERR_CLAUSE_IN_GROUP_ENTRY,
      657    19132                                   @LINE     = BLANK$ -> LX_ITEM.LINE,
      658    19133                                   @COLUMN   = BLANK$ -> LX_ITEM.COLUMN,
      659    19134                                   @PLUG1    = "DNT$_FROM_RSWNO(%RSV_WRD_BLANK)");
PL6.E3A0      #001=Z8DT$REPORT_REC File=Z8DT.:Z8A6TSI                            SAT 08/09/97 11:22 Page:23
      660    19164    3          CALL Z8ED$DISPOSE_ABSSYN_TREE(CDECL$ -> LX_REPORT_REC.P.BLANK$);
      661    19165    3          RETURN;
      662    19166    3        END;
      663    19167
      664    19168    2      IF PIC_OUT.TYPE = %PIC_TY_N THEN
      665    19169    2        PIC_OUT.TYPE = %PIC_TY_NE;
      666    19170    2      ELSE
      667    19171    2        IF PIC_OUT.TYPE ~= %PIC_TY_NE THEN
      668    19172    3          DO;
      669    19173    3            CALL Z8AE$ERROR (%E$BWZ_MUST_BE_DISPLAY,
      670    19174    3                             BLANK$ -> LX_ITEM.LINE,
      671    19175    3                             BLANK$ -> LX_ITEM.COLUMN);
      672    19176    3            CALL Z8ED$DISPOSE_ABSSYN_TREE (CDECL$ -> LX_REPORT_REC.P.BLANK$);
      673    19177    3          END;
      674    19178
      675    19179
      676    19180    2     END VALIDATE_BLANK;
      677    19181          %EJECT;
PL6.E3A0      #001=Z8DT$REPORT_REC File=Z8DT.:Z8A6TSI                            SAT 08/09/97 11:22 Page:24
      678    19182
      679    19183        /*==================*/
      680    19184    1     VALIDATE_JUSTIFIED: PROC;
      681    19185        /*==================*/
      682    19186
      683    19187         /*
      684    19188              NAME: VALIDATE_JUSTIFIED
      685    19189
      686    19190           DESCRIPTION: JUSTIFIED clause is validated here.
      687    19191
      688    19192          */
      689    19193
      690    19194
      691    19195    2   DCL JUSTIFIED$                    PTR;
      692    19196
      693    19197
      694    19198
      695    19199    2      JUSTIFIED$ = CDECL$ -> LX_REPORT_REC.P.JUSTIFIED$;
      696    19200
      697    19201    2      IF REPORT_DATA.LEVEL.CURRENT = %LEVEL_01 THEN
      698    19202    3        DO;
      699    19203               %CONDITIONAL_ERROR (@LX_ITEM$ = JUSTIFIED$,
      700    19204                                   @ERROR#   = %E$ERR_CLAUSE_IN_REP_01_ENTRY,
      701    19205                                   @LINE     = JUSTIFIED$ -> LX_ITEM.LINE,
      702    19206                                   @COLUMN   = JUSTIFIED$ -> LX_ITEM.COLUMN,
      703    19207                                   @PLUG1    = "DNT$_FROM_RSWNO(%RSV_WRD_JUSTIFIED)");
      704    19237    3          CALL Z8ED$DISPOSE_ABSSYN_TREE(CDECL$ -> LX_REPORT_REC.P.JUSTIFIED$);
      705    19238    3          RETURN;
      706    19239    3        END;
      707    19240
      708    19241    2      IF NOT REPORT_DATA.B.ELEMENTARY THEN
      709    19242    3        DO;
      710    19243               %CONDITIONAL_ERROR (@LX_ITEM$ = JUSTIFIED$,
      711    19244                                   @ERROR#   = %E$ERR_CLAUSE_IN_GROUP_ENTRY,
      712    19245                                   @LINE     = JUSTIFIED$ -> LX_ITEM.LINE,
      713    19246                                   @COLUMN   = JUSTIFIED$ -> LX_ITEM.COLUMN,
      714    19247                                   @PLUG1    = "DNT$_FROM_RSWNO(%RSV_WRD_JUSTIFIED)");
PL6.E3A0      #001=Z8DT$REPORT_REC File=Z8DT.:Z8A6TSI                            SAT 08/09/97 11:22 Page:25
      715    19277    3          CALL Z8ED$DISPOSE_ABSSYN_TREE(CDECL$ -> LX_REPORT_REC.P.JUSTIFIED$);
      716    19278    3          RETURN;
      717    19279    3        END;
      718    19280
      719    19281    2      IF PIC_OUT.TYPE ~= %PIC_TY_A  AND
      720    19282    2         PIC_OUT.TYPE ~= %PIC_TY_K  AND
      721    19283    2         PIC_OUT.TYPE ~= %PIC_TY_AN THEN
      722    19284    3        DO;
      723    19285               %CONDITIONAL_ERROR (@LX_ITEM$ = JUSTIFIED$,
      724    19286                                   @ERROR#   = %E$JUSTIFIED_NOT_ON_ALPHA,
      725    19287                                   @LINE     = JUSTIFIED$ -> LX_ITEM.LINE,
      726    19288                                   @COLUMN   = JUSTIFIED$ -> LX_ITEM.COLUMN);
      727    19318    3          CALL Z8ED$DISPOSE_ABSSYN_TREE(CDECL$ -> LX_REPORT_REC.P.JUSTIFIED$);
      728    19319    3          RETURN;
      729    19320    3        END;
      730    19321
      731    19322    2        REPORT_DATA.B.JUSTIFIED = TRUE;
      732    19323
      733    19324    2     END VALIDATE_JUSTIFIED;
      734    19325          %EJECT;
PL6.E3A0      #001=Z8DT$REPORT_REC File=Z8DT.:Z8A6TSI                            SAT 08/09/97 11:22 Page:26
      735    19326
      736    19327        /*===============*/
      737    19328    1     VALIDATE_COLUMN: PROC;
      738    19329        /*===============*/
      739    19330
      740    19331         /*
      741    19332              NAME: VALIDATE_COLUMN
      742    19333
      743    19334           DESCRIPTION: The COLUMN clause is validated here.
      744    19335
      745    19336          */
      746    19337
      747    19338
      748    19339    2   DCL COLUMN_NUMBER$                    PTR;
      749    19340    2   DCL LINE_PRESENTED             BOOLEAN;
      750    19341    2   DCL LAST_POS                   SBIN WORD;
      751    19342    2   DCL LTS$$                      PTR;
      752    19343    2   DCL PREV_LTS$                  PTR;
      753    19344    2   DCL PREV_LINE                  SBIN WORD;
      754    19345    2   DCL CURRENT_LINE               SBIN WORD;
      755    19346    2   DCL NEXT_LTS$                  PTR;
      756    19347
      757    19348
      758    19349
      759    19350
      760    19351    2      COLUMN_NUMBER$ = CDECL$ -> LX_REPORT_REC.P.COLUMN_NUMBER$;
      761    19352
      762    19353    2      IF REPORT_DATA.LEVEL.CURRENT = %LEVEL_01 THEN
      763    19354    3        DO;
      764    19355               %CONDITIONAL_ERROR (@LX_ITEM$ = COLUMN_NUMBER$,
      765    19356                                   @ERROR#   = %E$ERR_CLAUSE_IN_REP_01_ENTRY,
      766    19357                                   @LINE     = COLUMN_NUMBER$ -> LX_ITEM.LINE,
      767    19358                                   @COLUMN   = COLUMN_NUMBER$ -> LX_ITEM.COLUMN,
      768    19359                                   @PLUG1    = "DNT$_FROM_RSWNO(%RSV_WRD_COLUMN)");
      769    19389    3          CALL Z8ED$DISPOSE_ABSSYN_TREE(CDECL$ -> LX_REPORT_REC.P.COLUMN_NUMBER$);
      770    19390    3          RETURN;
      771    19391    3        END;
PL6.E3A0      #001=Z8DT$REPORT_REC File=Z8DT.:Z8A6TSI                            SAT 08/09/97 11:22 Page:27
      772    19392
      773    19393    2      IF NOT REPORT_DATA.B.ELEMENTARY THEN
      774    19394    3        DO;
      775    19395               %CONDITIONAL_ERROR (@LX_ITEM$ = COLUMN_NUMBER$,
      776    19396                                   @ERROR#   = %E$ERR_CLAUSE_IN_GROUP_ENTRY,
      777    19397                                   @LINE     = COLUMN_NUMBER$ -> LX_ITEM.LINE,
      778    19398                                   @COLUMN   = COLUMN_NUMBER$ -> LX_ITEM.COLUMN,
      779    19399                                   @PLUG1    = "DNT$_FROM_RSWNO(%RSV_WRD_COLUMN)");
      780    19429    3          CALL Z8ED$DISPOSE_ABSSYN_TREE(CDECL$ -> LX_REPORT_REC.P.COLUMN_NUMBER$);
      781    19430    3          RETURN;
      782    19431    3        END;
      783    19432
      784    19433    2      CALL CHARBIN (REPORT_DATA.COLUMN_NUMBER, COLUMN_NUMBER$ -> LX_ITEM.DNT$ -> DNT.
             19433               TEXT.NAME);
      785    19434    2      REPORT_DATA.B.COLUMN_PRESENTED = TRUE;
      786    19435
      787    19436    2      LINE_PRESENTED = FALSE;
      788    19437
      789    19438    2      IF NOT REPORT_DATA.B.LINE_PRESENTED THEN
      790    19439    3        DO;
      791    19440    4          DO I = REPORT_DATA.STK_PTR - 1 DOWNTO 1 BY -1;
      792    19441    4            IF REP_STK.B.LINE_PRESENTED(I)  THEN
      793    19442    5              DO;
      794    19443    5                LINE_PRESENTED = TRUE;
      795    19444    5                I = 0;
      796    19445    5              END;
      797    19446    4          END;
      798    19447
      799    19448    3          IF NOT LINE_PRESENTED THEN
      800    19449    3            CALL Z8AE$ERROR (%E$NO_LINE_FOR_COLUMN,
      801    19450    3                             COLUMN_NUMBER$ -> LX_ITEM.LINE,
      802    19451    3                             COLUMN_NUMBER$ -> LX_ITEM.COLUMN);
      803    19452    3        END;
      804    19453
      805    19454
      806    19455    2      LTS$$ = REP_STK.LTS$(REP_STK_PTR);
      807    19456
PL6.E3A0      #001=Z8DT$REPORT_REC File=Z8DT.:Z8A6TSI                            SAT 08/09/97 11:22 Page:28
      808    19457    3      DO WHILE(LTS$$ -> REPORT_GRP_LTS.ID ~= %REPORT_ELEM_LTS OR
      809    19458    3               NOT LTS$$ -> REPORT_ELEM_LTS.B.COLUMN_PRESENTED);
      810    19459
      811    19460    3        LTS$$ = LTS$$ -> REPORT_GRP_LTS.PREV;
      812    19461    3        IF LTS$$ = ADDR(NIL) THEN
      813    19462    3          RETURN;
      814    19463
      815    19464    3      END;
      816    19465
      817    19466    2      LAST_POS = LTS$$ -> REPORT_ELEM_LTS.COLUMN_NO# + LTS$$ -> REPORT_ELEM_LTS.SPAN;
      818    19467
      819    19468    2      IF REPORT_DATA.COLUMN_NUMBER < LAST_POS THEN
      820    19469    3        DO;
      821    19470
      822    19471               /*  #28199   Next 7 lines is added to prevent the error message
      823    19472                   comes out when user is intended to do the overstriking */
      824    19473
      825    19474    3          NEXT_LTS$ = LTS$$ -> REPORT_ELEM_LTS.NEXT;
      826    19475
      827    19476    4          DO WHILE (NEXT_LTS$ ~= ADDR(NIL));
      828    19477    4            IF NEXT_LTS$ -> REPORT_GRP_LTS.B.LINE_PRESENTED THEN
      829    19478    4              RETURN;
      830    19479    4            NEXT_LTS$ = NEXT_LTS$ -> REPORT_GRP_LTS.NEXT;
      831    19480    4          END;   /* END */
      832    19481
      833    19482    3          PREV_LTS$ = LTS$$;
      834    19483
      835    19484    4          DO WHILE(PREV_LTS$ ~= ADDR(NIL)  AND
      836    19485    4                   NOT PREV_LTS$ -> REPORT_GRP_LTS.B.LINE_PRESENTED);
      837    19486
      838    19487    4            PREV_LTS$ = PREV_LTS$ -> REPORT_GRP_LTS.PREV;
      839    19488    4          END;
      840    19489
      841    19490    3          IF PREV_LTS$ = ADDR(NIL) THEN
      842    19491    4            DO;
      843    19492    4              PREV_LINE = 0;
      844    19493    4              NEXT_LTS$ = REP_STK.LTS$(1) -> REPORT_GRP_LTS.NEXT;
PL6.E3A0      #001=Z8DT$REPORT_REC File=Z8DT.:Z8A6TSI                            SAT 08/09/97 11:22 Page:29
      845    19494    4            END;
      846    19495    3          ELSE
      847    19496    4            DO;
      848    19497    4              PREV_LINE = PREV_LTS$ -> REPORT_GRP_LTS.LINE_NO#;
      849    19498    4              NEXT_LTS$ = PREV_LTS$ -> REPORT_GRP_LTS.NEXT;
      850    19499    4            END;
      851    19500
      852    19501    3          CURRENT_LINE = PREV_LINE;
      853    19502
      854    19503    4          DO WHILE (NEXT_LTS$ ~= ADDR(NIL));
      855    19504    4            IF NEXT_LTS$ -> REPORT_GRP_LTS.B.LINE_PRESENTED THEN
      856    19505    5              DO;
      857    19506    5               IF NEXT_LTS$ -> REPORT_GRP_LTS.LINE_TYPE = %REPORT_LINE_PLUS THEN
      858    19507    5                 CURRENT_LINE = CURRENT_LINE + NEXT_LTS$ -> REPORT_GRP_LTS.LINE_NO#;
      859    19508    5               ELSE
      860    19509    5                 CURRENT_LINE = NEXT_LTS$ -> REPORT_GRP_LTS.LINE_NO#;
      861    19510    5              END;
      862    19511    4            NEXT_LTS$ = NEXT_LTS$ -> REPORT_GRP_LTS.NEXT;
      863    19512    4          END;
      864    19513
      865    19514    3          IF REPORT_DATA.B.LINE_PRESENTED THEN
      866    19515    4            DO;
      867    19516    4              IF REPORT_DATA.LINE_TYPE = %REPORT_LINE_PLUS THEN
      868    19517    4                CURRENT_LINE = CURRENT_LINE + REPORT_DATA.LINE_NUMBER;
      869    19518    4              ELSE
      870    19519    4                CURRENT_LINE = REPORT_DATA.LINE_NUMBER;
      871    19520    4            END;
      872    19521
      873    19522    3          IF CURRENT_LINE <= PREV_LINE THEN
      874    19523    4            DO;
      875    19524    4              CALL Z8AE$ERROR (%E$FIELD_OVERLAPPED,
      876    19525    4                               COLUMN_NUMBER$ -> LX_ITEM.LINE,
      877    19526    4                               COLUMN_NUMBER$ -> LX_ITEM.COLUMN);
      878    19527    4              RETURN;
      879    19528    4            END;
      880    19529    3        END;
      881    19530
PL6.E3A0      #001=Z8DT$REPORT_REC File=Z8DT.:Z8A6TSI                            SAT 08/09/97 11:22 Page:30
      882    19531    2     END VALIDATE_COLUMN;
      883    19532          %EJECT;
PL6.E3A0      #001=Z8DT$REPORT_REC File=Z8DT.:Z8A6TSI                            SAT 08/09/97 11:22 Page:31
      884    19533
      885    19534        /*=============*/
      886    19535    1     VALIDATE_SIGN: PROC;
      887    19536        /*=============*/
      888    19537         /*
      889    19538               NAME: VALIDATE_SIGN
      890    19539
      891    19540           DESCRIPTION: This routine validated the SIGN clause for the
      892    19541                        report data entry.
      893    19542
      894    19543          */
      895    19544
      896    19545    2   DCL SIGN$                     PTR;
      897    19546
      898    19547
      899    19548    2            SIGN$ = CDECL$ -> LX_REPORT_REC.P.SIGN$ -> LX_LIST.TAIL$;
      900    19549
      901    19550    2      IF CDECL$ -> LX_REPORT_REC.P.SIGN$ -> LX_LIST.HEAD$ ->
      902    19551    2          LX_ITEM.SYMBOL = %RSV_WRD_LEADING THEN
      903    19552    2        REPORT_DATA.SIGN.LOCATION = %SIGN_POS_LEADING;
      904    19553    2      ELSE
      905    19554    2        REPORT_DATA.SIGN.LOCATION = %SIGN_POS_TRAILING;
      906    19555
      907    19556    2        IF CDECL$ -> LX_REPORT_REC.P.SIGN$ -> LX_LIST.TAIL$ ->
      908    19557    2          LX_ITEM.SYMBOL = %RSV_WRD_SEPARATE THEN
      909    19558    2            REPORT_DATA.SIGN.TYPE     = %SIGN_TYPE_SEPARATE;
      910    19559    2        ELSE
      911    19560    3          DO;
      912    19561    3            CALL Z8AE$ERROR(%E$SEPARATE_MUST_SPECIFIED,
      913    19562    3                            SIGN$ -> LX_ITEM.LINE,
      914    19563    3                            SIGN$ -> LX_ITEM.COLUMN);
      915    19564    3            REPORT_DATA.SIGN.TYPE = %SIGN_TYPE_SEPARATE;
      916    19565    3          END;
      917    19566
      918    19567    2        REPORT_DATA.B.SIGN_PRESENT  = TRUE;
      919    19568
      920    19569    2          IF REPORT_DATA.LEVEL.CURRENT = %LEVEL_01 THEN
PL6.E3A0      #001=Z8DT$REPORT_REC File=Z8DT.:Z8A6TSI                            SAT 08/09/97 11:22 Page:32
      921    19570    3            DO;
      922    19571                   %CONDITIONAL_ERROR (@LX_ITEM$ = SIGN$,
      923    19572                                       @ERROR#   = %E$ERR_CLAUSE_IN_REP_01_ENTRY,
      924    19573                                       @LINE     = SIGN$ -> LX_ITEM.LINE,
      925    19574                                       @COLUMN   = SIGN$ -> LX_ITEM.COLUMN,
      926    19575                                       @PLUG1    = "DNT$_FROM_RSWNO(%RSV_WRD_SIGN)");
      927    19605    3              CALL Z8ED$DISPOSE_ABSSYN_TREE(CDECL$ -> LX_REPORT_REC.P.SIGN$);
      928    19606    3              RETURN;
      929    19607    3            END;
      930    19608
      931    19609    2          IF NOT REPORT_DATA.B.ELEMENTARY THEN
      932    19610    3            DO;
      933    19611                   %CONDITIONAL_ERROR (@LX_ITEM$ = SIGN$,
      934    19612                                       @ERROR#   = %E$ERR_CLAUSE_IN_GROUP_ENTRY,
      935    19613                                       @LINE     = SIGN$ -> LX_ITEM.LINE,
      936    19614                                       @COLUMN   = SIGN$ -> LX_ITEM.COLUMN,
      937    19615                                       @PLUG1    = "DNT$_FROM_RSWNO(%RSV_WRD_SIGN)");
      938    19645    3              CALL Z8ED$DISPOSE_ABSSYN_TREE(CDECL$ -> LX_REPORT_REC.P.SIGN$);
      939    19646    3              RETURN;
      940    19647    3            END;
      941    19648
      942    19649    2          IF PIC_OUT.TYPE ~= %PIC_TY_N  THEN
      943    19650    3            DO;
      944    19651                   %CONDITIONAL_ERROR (@LX_ITEM$ = SIGN$,
      945    19652                                       @ERROR#   = %E$WRONG_SIGN_TYPE,
      946    19653                                       @LINE     = SIGN$ -> LX_ITEM.LINE,
      947    19654                                       @COLUMN   = SIGN$ -> LX_ITEM.COLUMN);
      948    19684    3              CALL Z8ED$DISPOSE_ABSSYN_TREE(CDECL$ -> LX_REPORT_REC.P.SIGN$);
      949    19685    3            END;
      950    19686    2          ELSE
      951    19687    2            IF NOT REPORT_DATA.B.SIGN_FOUND  THEN
      952    19688    3              DO;
      953    19689                     %CONDITIONAL_ERROR (@LX_ITEM$ = SIGN$,
      954    19690                                         @ERROR#   = %E$NO_SIGN_S_FOUND,
      955    19691                                         @LINE     = SIGN$ -> LX_ITEM.LINE,
      956    19692                                         @COLUMN   = SIGN$ -> LX_ITEM.COLUMN);
      957    19722    3                CALL Z8ED$DISPOSE_ABSSYN_TREE(CDECL$ -> LX_REPORT_REC.P.SIGN$);
PL6.E3A0      #001=Z8DT$REPORT_REC File=Z8DT.:Z8A6TSI                            SAT 08/09/97 11:22 Page:33
      958    19723    3              END;
      959    19724
      960    19725
      961    19726    2   END VALIDATE_SIGN;
      962    19727        %EJECT;
PL6.E3A0      #001=Z8DT$REPORT_REC File=Z8DT.:Z8A6TSI                            SAT 08/09/97 11:22 Page:34
      963    19728
      964    19729        /*===============*/
      965    19730    1     VALIDATE_SOURCE: PROC;
      966    19731        /*===============*/
      967    19732         /*
      968    19733               NAME: VALIDATE_SOURCE
      969    19734
      970    19735           DESCRIPTION: This routine validated the SOURCE clause for the
      971    19736                        report data entry.
      972    19737
      973    19738          */
      974    19739
      975    19740
      976    19741    2   DCL SOURCE$                   PTR;
      977    19742
      978    19743
      979    19744
      980    19745    2      SOURCE$ = CDECL$ -> LX_REPORT_REC.P.SOURCE$ -> LX_LARGE.LARGE_ITEM$ ->
      981    19746    2                DEFERED_ID_TREE.QUAL_ID$ -> LX_LIST.HEAD$;
      982    19747    2      IF REPORT_DATA.LEVEL.CURRENT = %LEVEL_01 THEN
      983    19748    3        DO;
      984    19749               %CONDITIONAL_ERROR (@LX_ITEM$ = SOURCE$,
      985    19750                                   @ERROR#   = %E$ERR_CLAUSE_IN_REP_01_ENTRY,
      986    19751                                   @LINE     = SOURCE$ -> LX_ITEM.LINE,
      987    19752                                   @COLUMN   = SOURCE$ -> LX_ITEM.COLUMN,
      988    19753                                   @PLUG1    = "DNT$_FROM_RSWNO(%RSV_WRD_SOURCE)");
      989    19783    3          CALL Z8ED$DISPOSE_ABSSYN_TREE(CDECL$ -> LX_REPORT_REC.P.SOURCE$);
      990    19784    3          RETURN;
      991    19785    3        END;
      992    19786
      993    19787    2      IF NOT REPORT_DATA.B.ELEMENTARY THEN
      994    19788    3        DO;
      995    19789               %CONDITIONAL_ERROR (@LX_ITEM$ = SOURCE$,
      996    19790                                   @ERROR#   = %E$ERR_CLAUSE_IN_GROUP_ENTRY,
      997    19791                                   @LINE     = SOURCE$ -> LX_ITEM.LINE,
      998    19792                                   @COLUMN   = SOURCE$ -> LX_ITEM.COLUMN,
      999    19793                                   @PLUG1    = "DNT$_FROM_RSWNO(%RSV_WRD_SOURCE)");
PL6.E3A0      #001=Z8DT$REPORT_REC File=Z8DT.:Z8A6TSI                            SAT 08/09/97 11:22 Page:35
     1000    19823    3          CALL Z8ED$DISPOSE_ABSSYN_TREE(CDECL$ -> LX_REPORT_REC.P.SOURCE$);
     1001    19824    3          RETURN;
     1002    19825    3        END;
     1003    19826
     1004    19827    2      IF CDECL$ -> LX_REPORT_REC.P.VALUE$ ~= ADDR(NIL) THEN
     1005    19828    3        DO;
     1006    19829               %CONDITIONAL_ERROR (@LX_ITEM$ = SOURCE$,
     1007    19830                                   @ERROR#   = %E$ERR_CLAUSE1_WITH_CLAUSE2,
     1008    19831                                   @LINE     = SOURCE$ -> LX_ITEM.LINE,
     1009    19832                                   @COLUMN   = SOURCE$ -> LX_ITEM.COLUMN,
     1010    19833                                   @PLUG1    = "DNT$_FROM_RSWNO(%RSV_WRD_VALUE)",
     1011    19834                                   @PLUG2    = "DNT$_FROM_RSWNO(%RSV_WRD_SOURCE)");
     1012    19864    3          CALL Z8ED$DISPOSE_ABSSYN_TREE(CDECL$ -> LX_REPORT_REC.P.SOURCE$);
     1013    19865    3          RETURN;
     1014    19866    3        END;
     1015    19867
     1016    19868    2      REPORT_DATA.B.SOURCE_PRESENTED = TRUE;
     1017    19869
     1018    19870    2     END VALIDATE_SOURCE;
     1019    19871          %EJECT;
PL6.E3A0      #001=Z8DT$REPORT_REC File=Z8DT.:Z8A6TSI                            SAT 08/09/97 11:22 Page:36
     1020    19872
     1021    19873        /*============*/
     1022    19874    1     VALIDATE_SUM: PROC;
     1023    19875        /*============*/
     1024    19876         /*
     1025    19877               NAME: VALIDATE_SUM
     1026    19878
     1027    19879           DESCRIPTION: This routine validated the SUM clause for the
     1028    19880                        data entry.
     1029    19881
     1030    19882          */
     1031    19883
     1032    19884
     1033    19885    2   DCL SUM$                   PTR;
     1034    19886    2    DCL COUNT                 SBIN WORD;
     1035    19887
     1036    19888
     1037    19889    2      SUM$ = CDECL$ -> LX_REPORT_REC.P.SUM$ -> LX_LIST.HEAD$;
     1038    19890
     1039    19891    2      IF REPORT_DATA.LEVEL.CURRENT = %LEVEL_01 THEN
     1040    19892    3        DO;
     1041    19893               %CONDITIONAL_ERROR (@LX_ITEM$ = SUM$,
     1042    19894                                   @ERROR#   = %E$ERR_CLAUSE_IN_REP_01_ENTRY,
     1043    19895                                   @LINE     = SUM$ -> DEFERED_SUM_CLAUSE.LINE,
     1044    19896                                   @COLUMN   = SUM$ -> DEFERED_SUM_CLAUSE.COLUMN,
     1045    19897                                   @PLUG1    = "DNT$_FROM_RSWNO(%RSV_WRD_SUM)");
     1046    19927    3          CALL Z8ED$DISPOSE_ABSSYN_TREE(CDECL$ -> LX_REPORT_REC.P.SUM$);
     1047    19928    3          RETURN;
     1048    19929    3        END;
     1049    19930
     1050    19931    2      IF NOT REPORT_DATA.B.ELEMENTARY THEN
     1051    19932    3        DO;
     1052    19933               %CONDITIONAL_ERROR (@LX_ITEM$ = SUM$,
     1053    19934                                   @ERROR#   = %E$ERR_CLAUSE_IN_GROUP_ENTRY,
     1054    19935                                   @LINE     = SUM$ -> DEFERED_SUM_CLAUSE.LINE,
     1055    19936                                   @COLUMN   = SUM$ -> DEFERED_SUM_CLAUSE.COLUMN,
     1056    19937                                   @PLUG1    = "DNT$_FROM_RSWNO(%RSV_WRD_SUM)");
PL6.E3A0      #001=Z8DT$REPORT_REC File=Z8DT.:Z8A6TSI                            SAT 08/09/97 11:22 Page:37
     1057    19967    3          CALL Z8ED$DISPOSE_ABSSYN_TREE(CDECL$ -> LX_REPORT_REC.P.SUM$);
     1058    19968    3          RETURN;
     1059    19969    3        END;
     1060    19970
     1061    19971    2      IF CDECL$ -> LX_REPORT_REC.P.VALUE$ ~= ADDR(NIL) THEN
     1062    19972    3        DO;
     1063    19973               %CONDITIONAL_ERROR (@LX_ITEM$ = SUM$,
     1064    19974                                   @ERROR#   = %E$ERR_CLAUSE1_WITH_CLAUSE2,
     1065    19975                                   @LINE     = SUM$ -> DEFERED_SUM_CLAUSE.LINE,
     1066    19976                                   @COLUMN   = SUM$ -> DEFERED_SUM_CLAUSE.COLUMN,
     1067    19977                                   @PLUG1    = "DNT$_FROM_RSWNO(%RSV_WRD_VALUE)",
     1068    19978                                   @PLUG2    = "DNT$_FROM_RSWNO(%RSV_WRD_SUM)");
     1069    20008    3          CALL Z8ED$DISPOSE_ABSSYN_TREE(CDECL$ -> LX_REPORT_REC.P.SUM$);
     1070    20009    3          RETURN;
     1071    20010    3        END;
     1072    20011
     1073    20012    2      IF CDECL$ -> LX_REPORT_REC.P.SOURCE$ ~= ADDR(NIL) THEN
     1074    20013    3        DO;
     1075    20014               %CONDITIONAL_ERROR (@LX_ITEM$ = SUM$,
     1076    20015                                   @ERROR#   = %E$ERR_CLAUSE1_WITH_CLAUSE2,
     1077    20016                                   @LINE     = SUM$ -> DEFERED_SUM_CLAUSE.LINE,
     1078    20017                                   @COLUMN   = SUM$ -> DEFERED_SUM_CLAUSE.COLUMN,
     1079    20018                                   @PLUG1    = "DNT$_FROM_RSWNO(%RSV_WRD_SOURCE)",
     1080    20019                                   @PLUG2    = "DNT$_FROM_RSWNO(%RSV_WRD_SUM)");
     1081    20049    3          CALL Z8ED$DISPOSE_ABSSYN_TREE(CDECL$ -> LX_REPORT_REC.P.SUM$);
     1082    20050    3          RETURN;
     1083    20051    3        END;
     1084    20052
     1085    20053    3      DO CASE(REP_STK.GROUP_TYPE(1));
     1086    20054    3        CASE (%CONTROL_FOOTING, %CONTROL_FOOTING_FINAL);
     1087    20055                 /* OK */
     1088    20056
     1089    20057    3        CASE (ELSE);
     1090    20058    4          DO;
     1091    20059                 %CONDITIONAL_ERROR (@LX_ITEM$ = SUM$,
     1092    20060                                     @ERROR#   = %E$SUM_MUST_IN_CF,
     1093    20061                                     @LINE     = SUM$ -> DEFERED_SUM_CLAUSE.LINE,
PL6.E3A0      #001=Z8DT$REPORT_REC File=Z8DT.:Z8A6TSI                            SAT 08/09/97 11:22 Page:38
     1094    20062                                     @COLUMN   = SUM$ -> DEFERED_SUM_CLAUSE.COLUMN);
     1095    20092    4            CALL Z8ED$DISPOSE_ABSSYN_TREE(CDECL$ -> LX_REPORT_REC.P.SUM$);
     1096    20093    4            RETURN;
     1097    20094    4          END;
     1098    20095    3      END; /* end cases */
     1099    20096
     1100    20097    2      COUNT = CDECL$ -> LX_REPORT_REC.P.SUM$ -> LX_LIST.COUNT;
     1101    20098    2      IF COUNT > 1  THEN
     1102    20099    3        DO;
     1103    20100    3          SUM$ = CDECL$ -> LX_REPORT_REC.P.SUM$ -> LX_LIST.HEAD$;
     1104    20101    4          DO I = 1 TO COUNT - 1;
     1105    20102    4            IF SUM$ -> DEFERED_SUM_CLAUSE.SUM_RESET$ ~= ADDR(NIL) THEN
     1106    20103    5              DO;
     1107    20104    5                IF SUM$ -> DEFERED_SUM_CLAUSE.B.RESET_ID THEN
     1108    20105    5                  P$ = SUM$ -> DEFERED_SUM_CLAUSE.SUM_RESET$ -> LX_LIST.HEAD$;
     1109    20106    5                ELSE
     1110    20107    5                  P$ = SUM$ -> DEFERED_SUM_CLAUSE.SUM_RESET$;
     1111    20108    5                CALL Z8AE$ERROR (%E$ERR_RESET_IN_SUM,
     1112    20109    5                                 P$ -> LX_ITEM.LINE,
     1113    20110    5                                 P$ -> LX_ITEM.COLUMN);
     1114    20111    5                CALL Z8ED$DISPOSE_ABSSYN_TREE(SUM$ -> DEFERED_SUM_CLAUSE.SUM_RESET$);
     1115    20112    5              END;
     1116    20113    4            SUM$ = SUM$ -> DEFERED_SUM_CLAUSE.LINK;
     1117    20114    4          END;
     1118    20115    3        END;
     1119    20116
     1120    20117    2       IF COMCOM.OB.FIPS.RPW THEN
     1121    20118    2         CALL Z8AE$ERROR (%E$LEVEL_CHECK,
     1122    20119    2                          SUM$ -> DEFERED_SUM_CLAUSE.LINE,
     1123    20120    2                          SUM$ -> DEFERED_SUM_CLAUSE.COLUMN);
     1124    20121
     1125    20122    2      REPORT_DATA.B.SUM_PRESENTED = TRUE;
     1126    20123
     1127    20124    2     END VALIDATE_SUM;
     1128    20125          %EJECT;
PL6.E3A0      #001=Z8DT$REPORT_REC File=Z8DT.:Z8A6TSI                            SAT 08/09/97 11:22 Page:39
     1129    20126
     1130    20127        /*=======================*/
     1131    20128    1     VALIDATE_GROUP_INDICATE: PROC;
     1132    20129        /*=======================*/
     1133    20130         /*
     1134    20131               NAME: VALIDATE_GROUP_INDICATE
     1135    20132
     1136    20133           DESCRIPTION: This routine validated the GROUP INDICATE clause
     1137    20134                        of this data entry.
     1138    20135
     1139    20136          */
     1140    20137
     1141    20138
     1142    20139    2   DCL GROUP_IND$                    PTR;
     1143    20140
     1144    20141
     1145    20142
     1146    20143    2      GROUP_IND$ = CDECL$ -> LX_REPORT_REC.P.GROUP_INDICATE$;
     1147    20144
     1148    20145    2      IF REPORT_DATA.LEVEL.CURRENT = %LEVEL_01 THEN
     1149    20146    3        DO;
     1150    20147               %CONDITIONAL_ERROR (@LX_ITEM$ = GROUP_IND$,
     1151    20148                                   @ERROR#   = %E$ERR_CLAUSE_IN_REP_01_ENTRY,
     1152    20149                                   @LINE     = GROUP_IND$ -> LX_ITEM.LINE,
     1153    20150                                   @COLUMN   = GROUP_IND$ -> LX_ITEM.COLUMN,
     1154    20151                                   @PLUG1    = "DNT$_FROM_RSWNO(%RSV_WRD_GROUP)");
     1155    20181    3          CALL Z8ED$DISPOSE_ABSSYN_TREE(CDECL$ -> LX_REPORT_REC.P.GROUP_INDICATE$);
     1156    20182    3          RETURN;
     1157    20183    3        END;
     1158    20184
     1159    20185    2      IF NOT REPORT_DATA.B.ELEMENTARY THEN
     1160    20186    3        DO;
     1161    20187               %CONDITIONAL_ERROR (@LX_ITEM$ = GROUP_IND$,
     1162    20188                                   @ERROR#   = %E$ERR_CLAUSE_IN_GROUP_ENTRY,
     1163    20189                                   @LINE     = GROUP_IND$ -> LX_ITEM.LINE,
     1164    20190                                   @COLUMN   = GROUP_IND$ -> LX_ITEM.COLUMN,
     1165    20191                                   @PLUG1    = "DNT$_FROM_RSWNO(%RSV_WRD_GROUP)");
PL6.E3A0      #001=Z8DT$REPORT_REC File=Z8DT.:Z8A6TSI                            SAT 08/09/97 11:22 Page:40
     1166    20221    3          CALL Z8ED$DISPOSE_ABSSYN_TREE(CDECL$ -> LX_REPORT_REC.P.GROUP_INDICATE$);
     1167    20222    3          RETURN;
     1168    20223    3        END;
     1169    20224
     1170    20225
     1171    20226    2      IF REP_STK.GROUP_TYPE(1) ~= %TYPE_DETAIL  THEN
     1172    20227    3        DO;
     1173    20228               %CONDITIONAL_ERROR (@LX_ITEM$ = GROUP_IND$,
     1174    20229                                   @ERROR#   = %E$GROUP_IND_IN_DETAIL_ONLY,
     1175    20230                                   @LINE     = GROUP_IND$ -> LX_ITEM.LINE,
     1176    20231                                   @COLUMN   = GROUP_IND$ -> LX_ITEM.COLUMN);
     1177    20261    3          CALL Z8ED$DISPOSE_ABSSYN_TREE(CDECL$ -> LX_REPORT_REC.P.GROUP_INDICATE$);
     1178    20262    3          RETURN;
     1179    20263    3        END;
     1180    20264
     1181    20265
     1182    20266    2      IF CDECL$ -> LX_REPORT_REC.P.COLUMN_NUMBER$ = ADDR(NIL)  THEN
     1183    20267    3        DO;
     1184    20268               %CONDITIONAL_ERROR (@LX_ITEM$ = GROUP_IND$,
     1185    20269                                   @ERROR#   = %E$GROUP_IND_IN_PRINTABLE_ONLY,
     1186    20270                                   @LINE     = GROUP_IND$ -> LX_ITEM.LINE,
     1187    20271                                   @COLUMN   = GROUP_IND$ -> LX_ITEM.COLUMN);
     1188    20301    3          CALL Z8ED$DISPOSE_ABSSYN_TREE(CDECL$ -> LX_REPORT_REC.P.GROUP_INDICATE$);
     1189    20302    3          RETURN;
     1190    20303    3        END;
     1191    20304
     1192    20305    2       IF COMCOM.OB.FIPS.RPW THEN
     1193    20306    2         CALL Z8AE$ERROR (%E$LEVEL_CHECK,
     1194    20307    2                          GROUP_IND$ -> LX_ITEM.LINE,
     1195    20308    2                          GROUP_IND$ -> LX_ITEM.COLUMN);
     1196    20309
     1197    20310    2       REPORT_DATA.B.GROUP_INDICATE = TRUE;
     1198    20311
     1199    20312    2       REP_STK.LTS$(1) -> REPORT_01_LTS.B.GROUP_INDICATE = TRUE;
     1200    20313
     1201    20314
     1202    20315    2     END VALIDATE_GROUP_INDICATE;
PL6.E3A0      #001=Z8DT$REPORT_REC File=Z8DT.:Z8A6TSI                            SAT 08/09/97 11:22 Page:41
     1203    20316          %EJECT;
PL6.E3A0      #001=Z8DT$REPORT_REC File=Z8DT.:Z8A6TSI                            SAT 08/09/97 11:22 Page:42
     1204    20317
     1205    20318         /*===================*/
     1206    20319    1      VALIDATE_GROUP_TYPE:  PROC;
     1207    20320         /*===================*/
     1208    20321         /*
     1209    20322               NAME: VALIDATE_GROUP_TYPE
     1210    20323
     1211    20324           DESCRIPTION: This routine validated the TYPE clause for the
     1212    20325                        report group.
     1213    20326
     1214    20327          */
     1215    20328
     1216    20329
     1217    20330    2     DCL TYPE$                   PTR;
     1218    20331    2     DCL LTS$$                   PTR;
     1219    20332    2     DCL QUAL_ID$                PTR;
     1220    20333    2     DCL ST$$                    PTR;
     1221    20334    2     DCL CTR_LTS$                PTR;
     1222    20335
     1223    20336
     1224    20337    2      TYPE$ = CDECL$ -> LX_REPORT_REC.P.TYPE$;
     1225    20338    2      LTS$$ = O1COM.CURRENT_REPORT_LTS$;
     1226    20339    2      IF TYPE$ -> LX_ITEM.ID = %LX_LIST THEN
     1227    20340    2        TYPE$ = TYPE$ -> LX_LIST.HEAD$;
     1228    20341
     1229    20342    2      IF REPORT_DATA.LEVEL.CURRENT ~= %LEVEL_01 THEN
     1230    20343    3        DO;
     1231    20344    3          CALL Z8AE$ERROR (%E$TYPE_IN_01_ONLY,
     1232    20345    3                           TYPE$ -> LX_ITEM.LINE,
     1233    20346    3                           TYPE$ -> LX_ITEM.COLUMN);
     1234    20347    3          CALL Z8ED$DISPOSE_ABSSYN_TREE(CDECL$ -> LX_REPORT_REC.P.TYPE$);
     1235    20348    3        END;
     1236    20349
     1237    20350    2      REPORT_DATA.GROUP_TYPE = CDECL$ -> LX_REPORT_REC.D.REPORT_TYPE;
     1238    20351    3      DO CASE (REPORT_DATA.GROUP_TYPE);
     1239    20352    3        CASE (%REPORT_HEADING);
     1240    20353    3          IF LTS$$ -> REPORT_LTS.REPORT_HEADING$ ~= ADDR(NIL) THEN
PL6.E3A0      #001=Z8DT$REPORT_REC File=Z8DT.:Z8A6TSI                            SAT 08/09/97 11:22 Page:43
     1241    20354    4            DO;
     1242    20355    4              CALL Z8AE$ERROR (%E$ONE_REPORT_HEADING_ONLY,
     1243    20356    4                               TYPE$ -> LX_ITEM.LINE,
     1244    20357    4                               TYPE$ -> LX_ITEM.COLUMN);
     1245    20358    4            END;
     1246    20359
     1247    20360    3        CASE (%PAGE_HEADING);
     1248    20361    3          IF LTS$$ -> REPORT_LTS.PAGE_HEADING$ ~= ADDR(NIL) THEN
     1249    20362    4            DO;
     1250    20363    4              CALL Z8AE$ERROR (%E$ONE_PAGE_HEADING_ONLY,
     1251    20364    4                               TYPE$ -> LX_ITEM.LINE,
     1252    20365    4                               TYPE$ -> LX_ITEM.COLUMN);
     1253    20366    4            END;
     1254    20367    3          ELSE
     1255    20368    3            IF NOT LTS$$ -> REPORT_LTS.B.PAGE_LIMIT_ON THEN
     1256    20369    4              DO;
     1257    20370    4                CALL Z8AE$ERROR (%E$ONLY_W_PAGE_IN_RD,
     1258    20371    4                                 TYPE$ -> LX_ITEM.LINE,
     1259    20372    4                                 TYPE$ -> LX_ITEM.COLUMN);
     1260    20373    4              END;
     1261    20374
     1262    20375
     1263    20376    3        CASE (%PAGE_FOOTING);
     1264    20377    3          IF LTS$$ -> REPORT_LTS.PAGE_FOOTING$ ~= ADDR(NIL) THEN
     1265    20378    4            DO;
     1266    20379    4              CALL Z8AE$ERROR (%E$ONE_PAGE_FOOTING_ONLY,
     1267    20380    4                               TYPE$ -> LX_ITEM.LINE,
     1268    20381    4                               TYPE$ -> LX_ITEM.COLUMN);
     1269    20382    4            END;
     1270    20383    3          ELSE
     1271    20384    3            IF NOT LTS$$ -> REPORT_LTS.B.PAGE_LIMIT_ON THEN
     1272    20385    4              DO;
     1273    20386    4                CALL Z8AE$ERROR (%E$ONLY_W_PAGE_IN_RD,
     1274    20387    4                                 TYPE$ -> LX_ITEM.LINE,
     1275    20388    4                                 TYPE$ -> LX_ITEM.COLUMN);
     1276    20389    4              END;
     1277    20390
PL6.E3A0      #001=Z8DT$REPORT_REC File=Z8DT.:Z8A6TSI                            SAT 08/09/97 11:22 Page:44
     1278    20391
     1279    20392    3        CASE (%REPORT_FOOTING);
     1280    20393    3          IF LTS$$ -> REPORT_LTS.REPORT_FOOTING$ ~= ADDR(NIL) THEN
     1281    20394    4            DO;
     1282    20395    4              CALL Z8AE$ERROR (%E$ONE_REPORT_FOOTING_ONLY,
     1283    20396    4                               TYPE$ -> LX_ITEM.LINE,
     1284    20397    4                               TYPE$ -> LX_ITEM.COLUMN);
     1285    20398    4            END;
     1286    20399
     1287    20400    3        CASE (%CONTROL_HEADING_FINAL);
     1288    20401    3            CTR_LTS$ = LTS$$ -> REPORT_LTS.CONTROL_FINAL$;
     1289    20402
     1290    20403    3            IF NOT LTS$$ -> REPORT_LTS.B.CONTROL_FINAL THEN
     1291    20404    4              DO;
     1292    20405    4                CALL Z8AE$ERROR (%E$ONLY_CONTROL_FINAL_IN_RD,
     1293    20406    4                                 TYPE$ -> LX_ITEM.LINE,
     1294    20407    4                                 TYPE$ -> LX_ITEM.COLUMN);
     1295    20408    4              END;
     1296    20409
     1297    20410    3          IF LTS$$ -> REPORT_LTS.CONTROL_HEADING_FINAL$ ~= ADDR(NIL) THEN
     1298    20411    4            DO;
     1299    20412    4              CALL Z8AE$ERROR (%E$ONE_CONTROL_HEAD_FINAL_ONLY,
     1300    20413    4                               TYPE$ -> LX_ITEM.LINE,
     1301    20414    4                               TYPE$ -> LX_ITEM.COLUMN);
     1302    20415
     1303    20416    4              CALL CTR_LTS_RECOVER (CTR_LTS$);
     1304    20417    4            END;
     1305    20418    3          CALL Z8ED$DISPOSE_ABSSYN_TREE (CDECL$ -> LX_REPORT_REC.P.TYPE$);
     1306    20419    3          CDECL$ -> LX_REPORT_REC.P.TYPE$ = CTR_LTS$;
     1307    20420
     1308    20421    3        CASE (%CONTROL_FOOTING_FINAL);
     1309    20422    3            CTR_LTS$ = LTS$$ -> REPORT_LTS.CONTROL_FINAL$;
     1310    20423
     1311    20424    3            IF NOT LTS$$ -> REPORT_LTS.B.CONTROL_FINAL THEN
     1312    20425    4              DO;
     1313    20426    4                CALL Z8AE$ERROR (%E$ONLY_CONTROL_FINAL_IN_RD,
     1314    20427    4                                 TYPE$ -> LX_ITEM.LINE,
PL6.E3A0      #001=Z8DT$REPORT_REC File=Z8DT.:Z8A6TSI                            SAT 08/09/97 11:22 Page:45
     1315    20428    4                                 TYPE$ -> LX_ITEM.COLUMN);
     1316    20429    4              END;
     1317    20430
     1318    20431    3          IF LTS$$ -> REPORT_LTS.CONTROL_FOOTING_FINAL$ ~= ADDR(NIL) THEN
     1319    20432    4            DO;
     1320    20433    4              CALL Z8AE$ERROR (%E$ONE_CONTROL_FOOT_FINAL_ONLY,
     1321    20434    4                               TYPE$ -> LX_ITEM.LINE,
     1322    20435    4                               TYPE$ -> LX_ITEM.COLUMN);
     1323    20436
     1324    20437    4              CALL CTR_LTS_RECOVER (CTR_LTS$);
     1325    20438    4            END;
     1326    20439    3          CALL Z8ED$DISPOSE_ABSSYN_TREE (CDECL$ -> LX_REPORT_REC.P.TYPE$);
     1327    20440    3          CDECL$ -> LX_REPORT_REC.P.TYPE$ = CTR_LTS$;
     1328    20441
     1329    20442    3        CASE (%CONTROL_HEADING, %CONTROL_FOOTING);
     1330    20443               /* NO PROCESS HERE */
     1331    20444
     1332    20445    3        CASE (%TYPE_DETAIL);
     1333    20446               /* OK */
     1334    20447
     1335    20448    3        CASE (ELSE);
     1336    20449    3          CALL Z8AE$ERROR (%E$UNEXPECTED_CASE);
     1337    20450
     1338    20451    3      END;  /* DO CASE */
     1339    20452
     1340    20453    2    END VALIDATE_GROUP_TYPE;
     1341    20454         %EJECT;
PL6.E3A0      #001=Z8DT$REPORT_REC File=Z8DT.:Z8A6TSI                            SAT 08/09/97 11:22 Page:46
     1342    20455
     1343    20456         /*===============*/
     1344    20457    1      CTR_LTS_RECOVER: PROC (CTR_LTS$);
     1345    20458         /*===============*/
     1346    20459         /*
     1347    20460               NAME: CTR_LTS_RECOVER
     1348    20461
     1349    20462           DESCRIPTION: This routine creates a CONTROL_NAME_LTS for the
     1350    20463                        control item created for the error recovery.
     1351    20464          */
     1352    20465
     1353    20466    2      DCL CTR_LTS$        PTR;
     1354    20467    2      DCL NEXT$           PTR;
     1355    20468
     1356    20469
     1357    20470    2      NEXT$ = O1COM.CURRENT_REPORT_LTS$ -> REPORT_LTS.CONTROL_ERROR$;
     1358    20471
     1359    20472    2      IF NEXT$ = ADDR(NIL) THEN
     1360    20473    3        DO;
     1361    20474               %NEW_CONTROL_NAME_LTS (@POINTER =
             20474                   O1COM.CURRENT_REPORT_LTS$ -> REPORT_LTS.CONTROL_ERROR$);
     1362    20581
     1363    20582    3          CTR_LTS$ = O1COM.CURRENT_REPORT_LTS$ -> REPORT_LTS.CONTROL_ERROR$;
     1364    20583    3          RETURN;
     1365    20584    3        END;
     1366    20585
     1367    20586    3      DO WHILE (NEXT$ -> CONTROL_NAME_LTS.LINK ~= ADDR(NIL));
     1368    20587
     1369    20588    3          NEXT$ = NEXT$ -> CONTROL_NAME_LTS.LINK;
     1370    20589
     1371    20590    3      END;
     1372    20591
     1373    20592           %NEW_CONTROL_NAME_LTS (@POINTER = NEXT$ -> CONTROL_NAME_LTS.LINK);
     1374    20699
     1375    20700    2      CTR_LTS$ = NEXT$ -> CONTROL_NAME_LTS.LINK;
     1376    20701
     1377    20702    2    END CTR_LTS_RECOVER;
PL6.E3A0      #001=Z8DT$REPORT_REC File=Z8DT.:Z8A6TSI                            SAT 08/09/97 11:22 Page:47
     1378    20703         %EJECT;
PL6.E3A0      #001=Z8DT$REPORT_REC File=Z8DT.:Z8A6TSI                            SAT 08/09/97 11:22 Page:48
     1379    20704
     1380    20705        /*================*/
     1381    20706    1     CHECK_MAX_DIGITS: PROC (ITEM$, LENGTH, SIGN);
     1382    20707        /*================*/
     1383    20708         /*
     1384    20709               NAME: CHECK_MAX_DIGITS
     1385    20710
     1386    20711           DESCRIPTION: This routine checks the length of the numeric
     1387    20712                        data item allowed in the PICTURE clause.
     1388    20713          */
     1389    20714
     1390    20715    2        DCL ITEM$         PTR;
     1391    20716    2        DCL LENGTH        SBIN WORD;
     1392    20717    2        DCL SIGN          BIT (2) ALIGNED;
     1393    20718    2        DCL TEMP_LENGTH   SBIN WORD;
     1394    20719
     1395    20720    2        TEMP_LENGTH = LENGTH;
     1396    20721
     1397    20722
     1398    20723    2        IF SIGN ~= %NO_SIGN THEN
     1399    20724    2          TEMP_LENGTH = TEMP_LENGTH + 1;
     1400    20725
     1401    20726    2        IF COMCOM.OB.FIPS.LEVEL >= %HIGH_LEV THEN
     1402    20727    2          IF TEMP_LENGTH > %ANSI_MAX_DIGITS THEN
     1403    20728    3            DO;
     1404    20729                   %CONDITIONAL_ERROR (@LX_ITEM$ = ITEM$,
     1405    20730                                       @ERROR#   = %E$ANSI_MAX_PIC_DIGITS,
     1406    20731                                       @LINE     = ITEM$ -> LX_ITEM.LINE,
     1407    20732                                       @COLUMN   = ITEM$ -> LX_ITEM.COLUMN);
     1408    20762    3              LENGTH = %ANSI_MAX_DIGITS;
     1409    20763    3            END;
     1410    20764
     1411    20765    2        IF NOT COMCOM.OB.FIPS.LEVEL >= %HIGH_LEV THEN
     1412    20766    2          IF TEMP_LENGTH > %BULL_MAX_PIC_DIGITS THEN
     1413    20767    3            DO;
     1414    20768                   %CONDITIONAL_ERROR (@LX_ITEM$ = ITEM$,
     1415    20769                                       @ERROR#   = %E$NUMERIC_ITEM_TOO_LONG,
PL6.E3A0      #001=Z8DT$REPORT_REC File=Z8DT.:Z8A6TSI                            SAT 08/09/97 11:22 Page:49
     1416    20770                                       @LINE     = ITEM$ -> LX_ITEM.LINE,
     1417    20771                                       @COLUMN   = ITEM$ -> LX_ITEM.COLUMN);
     1418    20801    3              LENGTH = %BULL_MAX_PIC_DIGITS;
     1419    20802    3            END;
     1420    20803
     1421    20804    2   END CHECK_MAX_DIGITS;
     1422    20805        %EJECT;
PL6.E3A0      #001=Z8DT$REPORT_REC File=Z8DT.:Z8A6TSI                            SAT 08/09/97 11:22 Page:50
     1423    20806
     1424    20807        /*=================*/
     1425    20808    1     PROCESS_NDSC9_PIC: PROC (OUT);
     1426    20809        /*=================*/
     1427    20810         /*
     1428    20811               NAME: PROCESS_NDSC9_PIC
     1429    20812
     1430    20813           DESCRIPTION: This routine process the numeric PICTURE clause
     1431    20814                        to prepare all the information for the ST items.
     1432    20815          */
     1433    20816
     1434    20817    2   DCL OUT                UBIN;
     1435    20818
     1436    20819    2   DCL 1 OUT_DESC                ALIGNED,
     1437    20820             %DESCRIPTOR              (LVL = 2, ENDING = YES);
     1438    20848
     1439    20849    2   DCL SIGN                      BIT (2);
     1440    20850    2   DCL LENGTH                    SBIN WORD;
     1441    20851
     1442    20852           %GET_SIGN (@SIGN      = SIGN,
     1443    20853                      @LOCATION  = REPORT_DATA.SIGN.LOCATION);
     1444    20866
     1445    20867           %DECIPHER_PIC_LENGTH (@LENGTH = LENGTH);
     1446    20881
     1447    20882    2      IF PIC_OUT.EIS_TYPE ~= %PIC_EIS_NS THEN
     1448    20883    3        DO;
     1449    20884    4          DO CASE (REPORT_DATA.SIGN.TYPE);
     1450    20885    4            CASE (%SIGN_TYPE_OVERPUNCH);
     1451    20886    4                IF REPORT_DATA.B.CLASS = %CLASS_EDITED THEN
     1452    20887    4                  REPORT_DATA.TYPE = %TYD;
     1453    20888    4                ELSE
     1454    20889    5                  DO;
     1455    20890    5                    REPORT_DATA.TYPE = %TYO;
     1456    20891    5                    LENGTH = LENGTH - 1;
     1457    20892    5                  END;
     1458    20893
     1459    20894    4            CASE (%SIGN_TYPE_SEPARATE);
PL6.E3A0      #001=Z8DT$REPORT_REC File=Z8DT.:Z8A6TSI                            SAT 08/09/97 11:22 Page:51
     1460    20895    4                REPORT_DATA.TYPE = %TYD;
     1461    20896
     1462    20897    4          END;
     1463    20898    3        END;
     1464    20899    2      ELSE
     1465    20900    2        REPORT_DATA.TYPE = %TYD;
     1466    20901
     1467    20902    2      CALL CHECK_MAX_DIGITS (CDECL$ -> LX_REPORT_REC.P.PICTURE$,
     1468    20903    2                             LENGTH,
     1469    20904    2                             SIGN);
     1470    20905
     1471    20906           %PACK_NDSC (@DESC    = OUT_DESC,
     1472    20907                       @TN      = %NDSC9,
     1473    20908                       @SIGN    = SIGN,
     1474    20909                       @SCALE   = PIC_OUT.SCALE,
     1475    20910                       @LENGTH  = LENGTH);
     1476    20959
     1477    20960    2      REPORT_DATA.B.CLASS = %CLASS_NUMERIC;
     1478    20961
     1479    20962    2      OUT = BITBIN(OUT_DESC);
     1480    20963
     1481    20964    2   END PROCESS_NDSC9_PIC;
     1482    20965        %EJECT;
PL6.E3A0      #001=Z8DT$REPORT_REC File=Z8DT.:Z8A6TSI                            SAT 08/09/97 11:22 Page:52
     1483    20966
     1484    20967        /*================*/
     1485    20968    1     PROCESS_ADSC_PIC: PROC;
     1486    20969        /*================*/
     1487    20970         /*
     1488    20971               NAME: PROCESS_ADSC_PIC
     1489    20972
     1490    20973           DESCRIPTION: This routine process the alphabetic, alphanumeric,
     1491    20974                        alphanumeric edited, numeric edited type PIC strings
     1492    20975                        to prepare all the information for the ST items.
     1493    20976          */
     1494    20977
     1495    20978
     1496    20979    2   DCL MOP_DNT$                  PTR;
     1497    20980    2   DCL NEW_NEL$                  PTR;
     1498    20981    2   DCL MOP$                      PTR;
     1499    20982
     1500    20983
     1501    20984    3      DO CASE(PIC_OUT.TYPE);
     1502    20985    3        CASE(%PIC_TY_NE);
     1503    20986    3          REPORT_DATA.B.CLASS = %CLASS_EDITED;
     1504    20987    3          MOP_DNT$ = CDECL$ -> LX_REPORT_REC.P.PICTURE$
     1505    20988    3                     -> LX_ITEM.DNT$;
     1506    20989
     1507    20990    3          CALL Z8EC$CREATE_CONST (%TYM, MOP_DNT$, MOP$);
     1508    20991
     1509    20992               %NEW_NEL (@POINTER = NEW_NEL$,
     1510    20993                         @DNT$    = MOP_DNT$,
     1511    20994                         @MOP$    = MOP$);
     1512    21088    3          CALL Z8DO$LINK_WITH_LTS (REPORT_DATA.LTS$, NEW_NEL$);
     1513    21089
     1514    21090    3          CALL PROCESS_NDSC9_PIC (NEW_NEL$ -> NEL.DESC);
     1515    21091
     1516    21092               %PACK_ADSC (@DESC   = REPORT_DATA.DESC,
     1517    21093                           @LENGTH = PIC_OUT.WIDTH);
     1518    21117    3          REPORT_DATA.B.CLASS = %CLASS_NUMERIC_EDITED;
     1519    21118    3          REPORT_DATA.TYPE    = %TYA;
PL6.E3A0      #001=Z8DT$REPORT_REC File=Z8DT.:Z8A6TSI                            SAT 08/09/97 11:22 Page:53
     1520    21119
     1521    21120    3          IF PIC_OUT.B.ASTERISK_SUPRESS THEN
     1522    21121    3            REPORT_DATA.B.ASTERISK_SUPRESS = TRUE;
     1523    21122
     1524    21123    3        CASE(%PIC_TY_ANE);
     1525    21124    3          MOP_DNT$ = CDECL$ -> LX_REPORT_REC.P.PICTURE$
     1526    21125    3                     -> LX_ITEM.DNT$;
     1527    21126
     1528    21127    3          CALL Z8EC$CREATE_CONST (%TYM, MOP_DNT$, MOP$);
     1529    21128
     1530    21129               %NEW_NEL (@POINTER = NEW_NEL$,
     1531    21130                         @DNT$    = MOP_DNT$,
     1532    21131                         @MOP$    = MOP$);
     1533    21225    3          CALL Z8DO$LINK_WITH_LTS (REPORT_DATA.LTS$, NEW_NEL$);
     1534    21226
     1535    21227    3          REPORT_DATA.TYPE = %TYA;
     1536    21228    3          CALL ASSIGN_ADSC_DESC;
     1537    21229
     1538    21230               %PACK_ADSC (@DESC  = NEW_NEL$ -> NEL.DESC,
     1539    21231                           @LENGTH = PIC_OUT.LEFT);
     1540    21255
     1541    21256    3          REPORT_DATA.B.CLASS = %CLASS_ALPHANUMERIC_EDITED;
     1542    21257
     1543    21258    3        CASE(%PIC_TY_A);
     1544    21259    3          REPORT_DATA.B.CLASS = %CLASS_ALPHABETIC;
     1545    21260
     1546    21261    3          REPORT_DATA.TYPE = %TYA;
     1547    21262    3          CALL ASSIGN_ADSC_DESC;
     1548    21263
     1549    21264    3        CASE(%PIC_TY_AN);
     1550    21265    3          REPORT_DATA.B.CLASS = %CLASS_ALPHANUMERIC;
     1551    21266    3          REPORT_DATA.TYPE = %TYA;
     1552    21267    3          CALL ASSIGN_ADSC_DESC;
     1553    21268
     1554    21269    3        CASE(%PIC_TY_K);
     1555    21270    3          REPORT_DATA.B.CLASS = %CLASS_ALPHANUMERIC;
     1556    21271    3          REPORT_DATA.TYPE = %TYN;
PL6.E3A0      #001=Z8DT$REPORT_REC File=Z8DT.:Z8A6TSI                            SAT 08/09/97 11:22 Page:54
     1557    21272    3          REPORT_DATA.B.KANJI = %TRUE;
     1558    21273    3          PIC_OUT.WIDTH = PIC_OUT.WIDTH * 2 ;
     1559    21274    3          CALL ASSIGN_ADSC_DESC;
     1560    21275
     1561    21276    3      END; /* Case */
     1562    21277
     1563    21278    2   END PROCESS_ADSC_PIC;
     1564    21279        %EJECT;
PL6.E3A0      #001=Z8DT$REPORT_REC File=Z8DT.:Z8A6TSI                            SAT 08/09/97 11:22 Page:55
     1565    21280
     1566    21281        /*================*/
     1567    21282    1     ASSIGN_ADSC_DESC: PROC;
     1568    21283        /*================*/
     1569    21284         /*
     1570    21285               NAME: ASSIGN_ADSC_DESC
     1571    21286
     1572    21287           DESCRIPTION: This routine packs the descriptor of the alphabetic
     1573    21288                        and alphanumeric data items.
     1574    21289
     1575    21290          */
     1576    21291
     1577    21292
     1578    21293    2   DCL NEW_LONG$                 PTR;
     1579    21294
     1580    21295
     1581    21296    2      IF PIC_OUT.WIDTH > %LENGTH_OF_4095 THEN
     1582    21297    3        DO;
     1583    21298    3          REPORT_DATA.B.LENGTH_4096 = TRUE;
     1584    21299
     1585    21300    3          IF PIC_OUT.WIDTH >= %#256K THEN
     1586    21301    3            REPORT_DATA.B.GREATER_256K = TRUE;
     1587    21302
     1588    21303               %NEW_LONG (@POINTER = NEW_LONG$,
     1589    21304                          @LENGTH  = PIC_OUT.WIDTH);
     1590    21396    3          CALL Z8DO$LINK_WITH_LTS (REPORT_DATA.LTS$, NEW_LONG$);
     1591    21397
     1592    21398               %PACK_ADSC (@DESC    = REPORT_DATA.DESC,
     1593    21399                           @LENGTH  = 0);
     1594    21423    3        END;
     1595    21424    2      ELSE
     1596    21425             %PACK_ADSC (@DESC   = REPORT_DATA.DESC,
     1597    21426                         @LENGTH = PIC_OUT.WIDTH);
     1598    21450
     1599    21451    2   END ASSIGN_ADSC_DESC;
     1600    21452        %EJECT;
PL6.E3A0      #001=Z8DT$REPORT_REC File=Z8DT.:Z8A6TSI                            SAT 08/09/97 11:22 Page:56
     1601    21453
     1602    21454        /*======*/
     1603    21455    1     NEW_ST: PROC (NEW_ST$);
     1604    21456        /*======*/
     1605    21457         /*
     1606    21458               NAME: NEW_ST
     1607    21459
     1608    21460           DESCRIPTION: This routine creates a new ST item for the data
     1609    21461                        item and packs all the information on it, then,
     1610    21462                        create a QLT item to link it to previous ST.
     1611    21463          */
     1612    21464
     1613    21465    2        DCL NEW_ST$       PTR;
     1614    21466    2        DCL ID            SBIN;
     1615    21467    2        DCL DN$           PTR;
     1616    21468    2        DCL LINE#         SBIN;
     1617    21469    2        DCL NEW_QLT$      PTR;
     1618    21470    2        DCL ST$$          PTR;
     1619    21471
     1620    21472
     1621    21473    2        LINE# = CDECL$ -> LX_REPORT_REC.P.DATA_NAME$ -> LX_ITEM.LINE;
     1622    21474    2        DN$   = CDECL$ -> LX_REPORT_REC.P.DATA_NAME$ -> LX_ITEM.DNT$;
     1623    21475
     1624    21476             %NEW_SCALAR (@ST$   = ST$$,
     1625    21477                          @DESCL = REPORT_DATA.DESC.DESCL,
     1626    21478                          @TYPE  = REPORT_DATA.TYPE,
     1627    21479                          @LINE_NO  = LINE#,
     1628    21480                          @NEXT  = DN$ -> DNT.ST$,
     1629    21481                          @LTS$  = REPORT_DATA.LTS$,
     1630    21482                          @DNT$  = DN$,
     1631    21483                          @PROC$ = O1COM.CURRENT_PROC$,
     1632    21484                          @ELEMENTARY = REPORT_DATA.B.ELEMENTARY,
     1633    21485                          @GREATER_256K = REPORT_DATA.B.GREATER_256K,
     1634    21486                          @CLASS      = REPORT_DATA.B.CLASS,
     1635    21487                          @ASTERISK_SUPRESS = REPORT_DATA.B.ASTERISK_SUPRESS,
     1636    21488                          @REPORT_ITEM = TRUE,
     1637    21489                          @GLOBAL = O1COM.CURRENT_REPORT_LTS$ -> REPORT_LTS.B.GLOBAL,
PL6.E3A0      #001=Z8DT$REPORT_REC File=Z8DT.:Z8A6TSI                            SAT 08/09/97 11:22 Page:57
     1638    21490                          @KANJI  = REPORT_DATA.B.KANJI,
     1639    21491                          @LENGTH_4096= REPORT_DATA.B.LENGTH_4096,
     1640    21492                          @JUSTIFIED  = REPORT_DATA.B.JUSTIFIED);
     1641    21692
     1642    21693    2        IF CDECL$ -> LX_REPORT_REC.P.DATA_NAME$ ->
     1643    21694    2        LX_ITEM.SYMBOL ~= %RSV_WRD_FILLER THEN
     1644    21695    3          DO;
     1645    21696                 %ADD_XREF (SYM   = ST$$,
     1646    21697                            ISN   = LINE#,
     1647    21698                            TYPE  = %XREF_DCL);
     1648    21716
     1649    21717    3            DN$ -> DNT.ST$ = ST$$;
     1650    21718    3          END;
     1651    21719
     1652    21720             %NEW_QLT  (@POINTER   = NEW_QLT$,
     1653    21721                        @ST$       = ST$$,
     1654    21722                        @DNT$      = ST$$ -> SCALAR.DNT$,
     1655    21723                        @LEVEL#    = REPORT_DATA.LEVEL.CURRENT);
     1656    21748
     1657    21749    2        ST$$ -> SCALAR.QLT$    = NEW_QLT$;
     1658    21750
     1659    21751    2        NEW_ST$ = ST$$;
     1660    21752
     1661    21753
     1662    21754    2    END NEW_ST;
     1663    21755         %EJECT;
PL6.E3A0      #001=Z8DT$REPORT_REC File=Z8DT.:Z8A6TSI                            SAT 08/09/97 11:22 Page:58
     1664    21756
     1665    21757         /*==============*/
     1666    21758    1      VALIDATE_LINE :  PROC;
     1667    21759         /*==============*/
     1668    21760         /*
     1669    21761               NAME: VALIDATE_LINE
     1670    21762
     1671    21763           DESCRIPTION: This routine validated the LINE clause.
     1672    21764
     1673    21765          */
     1674    21766
     1675    21767
     1676    21768
     1677    21769    2     DCL LINE$                    PTR;
     1678    21770    2     DCL LINE_NO#                 SBIN WORD;
     1679    21771    2     DCL LTS$$                    PTR;
     1680    21772    2     DCL GRP_TYPE                 UBIN WORD;
     1681    21773
     1682    21774
     1683    21775
     1684    21776    2      IF REPORT_DATA.LEVEL.CURRENT = REPORT_DATA.LEVEL.PREVIOUS THEN
     1685    21777    2        REPORT_DATA.STK_PTR = REP_STK_PTR;
     1686    21778    2      ELSE
     1687    21779    2        IF REPORT_DATA.LEVEL.CURRENT > REPORT_DATA.LEVEL.PREVIOUS THEN
     1688    21780    2          REPORT_DATA.STK_PTR = REP_STK_PTR + 1;
     1689    21781    2        ELSE
     1690    21782    2          IF REPORT_DATA.LEVEL.CURRENT = %LEVEL_01 THEN
     1691    21783    2            REPORT_DATA.STK_PTR = %LEVEL_01;
     1692    21784    2          ELSE
     1693    21785    2            CALL FIND_REP_STK_PTR (REPORT_DATA.STK_PTR,REPORT_DATA.LEVEL.CURRENT);
     1694    21786
     1695    21787    2      IF CDECL$ -> LX_REPORT_REC.P.LINE_NUMBER$ = ADDR(NIL) THEN
     1696    21788    2        RETURN;
     1697    21789    2      ELSE
     1698    21790    2        LINE$ = CDECL$ -> LX_REPORT_REC.P.LINE_NUMBER$;
     1699    21791
     1700    21792    3      DO I = REPORT_DATA.STK_PTR - 1 DOWNTO 1 BY -1;
PL6.E3A0      #001=Z8DT$REPORT_REC File=Z8DT.:Z8A6TSI                            SAT 08/09/97 11:22 Page:59
     1701    21793    3        IF REP_STK.B.LINE_PRESENTED (I) THEN
     1702    21794    4          DO;
     1703    21795    4            CALL Z8AE$ERROR (%E$LINE_UNDER_LINE,
     1704    21796    4                              LINE$ -> LX_ITEM.LINE,
     1705    21797    4                              LINE$ -> LX_ITEM.COLUMN);
     1706    21798    4            CALL Z8ED$DISPOSE_ABSSYN_TREE (CDECL$ -> LX_REPORT_REC.P.LINE_NUMBER$);
     1707    21799    4            RETURN;
     1708    21800    4          END;
     1709    21801    3      END;
     1710    21802
     1711    21803    2      REPORT_DATA.LINE_TYPE = CDECL$ -> LX_REPORT_REC.D.LINE_TYPE;
     1712    21804    2      CALL CHARBIN (REPORT_DATA.LINE_NUMBER, LINE$ -> LX_ITEM.DNT$ -> DNT.TEXT.NAME);
     1713    21805    2      REPORT_DATA.B.LINE_PRESENTED = TRUE;
     1714    21806
     1715    21807    2      IF REPORT_DATA.LINE_NUMBER > 999 THEN
     1716    21808    3        DO;
     1717    21809    3          CALL Z8AE$ERROR (%E$NUM_EXCEED_999,
     1718    21810    3                           LINE$ -> LX_ITEM.LINE,
     1719    21811    3                           LINE$ -> LX_ITEM.COLUMN);
     1720    21812    3          REPORT_DATA.LINE_NUMBER = 999;
     1721    21813    3        END;
     1722    21814
     1723    21815    2      IF REPORT_DATA.LINE_TYPE ~= %REPORT_LINE_PLUS THEN
     1724    21816    3        DO;
     1725    21817    3          IF NOT O1COM.CURRENT_REPORT_LTS$ -> REPORT_LTS.B.PAGE_LIMIT_ON THEN
     1726    21818    4            DO;
     1727    21819    4              CALL Z8AE$ERROR ( %E$LINE_W_NO_PAGE,
     1728    21820    4                                LINE$ -> LX_ITEM.LINE,
     1729    21821    4                                LINE$ -> LX_ITEM.COLUMN);
     1730    21822    4              REPORT_DATA.LINE_TYPE = %REPORT_LINE_PLUS;
     1731    21823    4              REPORT_DATA.LINE_NUMBER = 1;
     1732    21824    4            END;
     1733    21825    3          ELSE
     1734    21826    4            DO;
     1735    21827    4              IF REPORT_DATA.LEVEL.CURRENT ~= %LEVEL_01 THEN
     1736    21828    5                DO;
     1737    21829    5              LTS$$ = REP_STK.LTS$ (REP_STK_PTR);
PL6.E3A0      #001=Z8DT$REPORT_REC File=Z8DT.:Z8A6TSI                            SAT 08/09/97 11:22 Page:60
     1738    21830    6              DO WHILE (LTS$$ ~= ADDR(NIL));
     1739    21831    6                IF LTS$$ -> REPORT_GRP_LTS.B.LINE_PRESENTED THEN
     1740    21832    7                  DO;
     1741    21833    7                    IF LTS$$ -> REPORT_GRP_LTS.LINE_TYPE = %REPORT_LINE_PLUS THEN
     1742    21834    8                      DO;
     1743    21835    8                        CALL Z8AE$ERROR (%E$ABSOLUTE_FOLLOW_RELATIVE,
     1744    21836    8                                         LINE$ -> LX_ITEM.LINE,
     1745    21837    8                                         LINE$ -> LX_ITEM.COLUMN);
     1746    21838    8                        REPORT_DATA.LINE_TYPE = %REPORT_LINE_PLUS;
     1747    21839    8                        REPORT_DATA.LINE_NUMBER = 1;
     1748    21840    8                      END;
     1749    21841    7                    ELSE
     1750    21842    7                      IF LTS$$ -> REPORT_GRP_LTS.LINE_NO# > REPORT_DATA.LINE_NUMBER AND
     1751    21843    7                         REPORT_DATA.LINE_TYPE ~= %REPORT_LINE_NEXT_PAGE THEN
     1752    21844    8                        DO;
     1753    21845    8                          CALL Z8AE$ERROR (%E$ABSOLUTE_NOT_ASCENDING,
     1754    21846    8                                           LINE$ -> LX_ITEM.LINE,
     1755    21847    8                                           LINE$ -> LX_ITEM.COLUMN);
     1756    21848    8                          REPORT_DATA.LINE_NUMBER = LTS$$ -> REPORT_GRP_LTS.LINE_NO#;
     1757    21849    8                        END;
     1758    21850
     1759    21851    7                    IF REPORT_DATA.LINE_TYPE = %REPORT_LINE_NEXT_PAGE THEN
     1760    21852    8                      DO;
     1761    21853    8                        CALL Z8AE$ERROR (%E$NEXT_PAGE_NOT_FIRST,
     1762    21854    8                                         LINE$ -> LX_ITEM.LINE,
     1763    21855    8                                         LINE$ -> LX_ITEM.COLUMN);
     1764    21856    8                        REPORT_DATA.LINE_TYPE = %REPORT_LINE_INT;
     1765    21857    8                        REPORT_DATA.LINE_NUMBER = LTS$$ -> REPORT_GRP_LTS.LINE_NO#;
     1766    21858    8                      END;
     1767    21859
     1768    21860    7                    LTS$$ = ADDR(NIL);
     1769    21861    7                  END;
     1770    21862    6                ELSE
     1771    21863    6                  LTS$$ = LTS$$ -> REPORT_GRP_LTS.PREV;
     1772    21864
     1773    21865    6              END;  /* end while */
     1774    21866
PL6.E3A0      #001=Z8DT$REPORT_REC File=Z8DT.:Z8A6TSI                            SAT 08/09/97 11:22 Page:61
     1775    21867    5              GRP_TYPE = REP_STK.LTS$ (1) -> REPORT_01_LTS.GROUP_TYPE;
     1776    21868                   %CHECK_NEXT_PAGE_W_TYPE (@GROUP_TYPE = GRP_TYPE);
     1777    21884    5            END;
     1778    21885
     1779    21886    4          ELSE
     1780    21887                 %CHECK_NEXT_PAGE_W_TYPE (@GROUP_TYPE = REPORT_DATA.GROUP_TYPE);
     1781    21903
     1782    21904    4        END;
     1783    21905    3      END;
     1784    21906
     1785    21907    2    END VALIDATE_LINE;
     1786    21908         %EJECT;
PL6.E3A0      #001=Z8DT$REPORT_REC File=Z8DT.:Z8A6TSI                            SAT 08/09/97 11:22 Page:62
     1787    21909
     1788    21910         /*===================*/
     1789    21911    1      VALIDATE_NEXT_GROUP:  PROC;
     1790    21912         /*===================*/
     1791    21913         /*
     1792    21914               NAME: VALIDATE_NEXT_GROUP
     1793    21915
     1794    21916           DESCRIPTION: This routine validated the NEXT GROUP clause.
     1795    21917
     1796    21918          */
     1797    21919
     1798    21920
     1799    21921    2     DCL GROUP$               PTR;
     1800    21922
     1801    21923
     1802    21924
     1803    21925    2      GROUP$ = CDECL$ -> LX_REPORT_REC.P.NEXT_GROUP$;
     1804    21926
     1805    21927    2      IF REPORT_DATA.LEVEL.CURRENT ~= %LEVEL_01 THEN
     1806    21928    3        DO;
     1807    21929    3          CALL Z8AE$ERROR (%E$NEXT_GROUP_NOT_IN_01,
     1808    21930    3                           GROUP$ -> LX_ITEM.LINE,
     1809    21931    3                           GROUP$ -> LX_ITEM.COLUMN);
     1810    21932    3          CALL Z8ED$DISPOSE_ABSSYN_TREE (CDECL$ -> LX_REPORT_REC.P.NEXT_GROUP$);
     1811    21933    3          RETURN;
     1812    21934    3        END;
     1813    21935
     1814    21936    3      DO CASE (REPORT_DATA.GROUP_TYPE);
     1815    21937    3        CASE (%REPORT_FOOTING, %PAGE_HEADING);
     1816    21938    3             CALL Z8AE$ERROR (%E$NEXT_GROUP_IN_WRONG_GRP,
     1817    21939    3                              GROUP$ -> LX_ITEM.LINE,
     1818    21940    3                              GROUP$ -> LX_ITEM.COLUMN);
     1819    21941    3             CALL Z8ED$DISPOSE_ABSSYN_TREE (CDECL$ -> LX_REPORT_REC.P.NEXT_GROUP$);
     1820    21942    3             RETURN;
     1821    21943
     1822    21944    3        CASE (%PAGE_FOOTING);
     1823    21945    3             IF CDECL$ -> LX_REPORT_REC.D.NEXT_GROUP_TYPE = %NEXT_GROUP_NEXT_PAGE THEN
PL6.E3A0      #001=Z8DT$REPORT_REC File=Z8DT.:Z8A6TSI                            SAT 08/09/97 11:22 Page:63
     1824    21946    4               DO;
     1825    21947    4                 CALL Z8AE$ERROR (%E$NEXT_GROUP_PAGE_IN_PF,
     1826    21948    4                                  GROUP$ -> LX_ITEM.LINE,
     1827    21949    4                                  GROUP$ -> LX_ITEM.COLUMN);
     1828    21950    4                 CALL Z8ED$DISPOSE_ABSSYN_TREE (CDECL$ -> LX_REPORT_REC.P.NEXT_GROUP$);
     1829    21951    4                 RETURN;
     1830    21952    4               END;
     1831    21953
     1832    21954    3        CASE (ELSE);
     1833    21955                  /* OK */
     1834    21956
     1835    21957    3      END;
     1836    21958
     1837    21959    2     REPORT_DATA.NEXT_GROUP_TYPE = CDECL$ -> LX_REPORT_REC.D.NEXT_GROUP_TYPE;
     1838    21960    2     REPORT_DATA.NEXT_GROUP_NO# = CDECL$ -> LX_REPORT_REC.NEXT_GROUP_NO#;
     1839    21961    2     REPORT_DATA.B.NEXT_GROUP_PRESENTED = TRUE;
     1840    21962
     1841    21963    2      IF REPORT_DATA.NEXT_GROUP_TYPE ~= %NEXT_GROUP_PLUS THEN
     1842    21964    2        IF NOT O1COM.CURRENT_REPORT_LTS$ -> REPORT_LTS.B.PAGE_LIMIT_ON THEN
     1843    21965    3          DO;
     1844    21966    3            CALL Z8AE$ERROR (%E$NEXT_GROUP_W_NO_PAGE,
     1845    21967    3                             GROUP$ -> LX_ITEM.LINE,
     1846    21968    3                             GROUP$ -> LX_ITEM.COLUMN);
     1847    21969    3            REPORT_DATA.NEXT_GROUP_TYPE = %NEXT_GROUP_PLUS;
     1848    21970    3            REPORT_DATA.NEXT_GROUP_NO# = 1;
     1849    21971    3          END;
     1850    21972
     1851    21973    2      IF REPORT_DATA.NEXT_GROUP_NO# > 999  THEN
     1852    21974    3        DO;
     1853    21975    3          CALL Z8AE$ERROR (%E$NUM_EXCEED_999,
     1854    21976    3                           GROUP$ -> LX_ITEM.LINE,
     1855    21977    3                           GROUP$ -> LX_ITEM.COLUMN);
     1856    21978    3          REPORT_DATA.NEXT_GROUP_NO# = 999;
     1857    21979    3        END;
     1858    21980
     1859    21981    2    END VALIDATE_NEXT_GROUP;
     1860    21982         %EJECT;
PL6.E3A0      #001=Z8DT$REPORT_REC File=Z8DT.:Z8A6TSI                            SAT 08/09/97 11:22 Page:64
     1861    21983
     1862    21984         /*==============*/
     1863    21985    1      UPDATE_REP_STK:   PROC (LTS$$);
     1864    21986         /*==============*/
     1865    21987         /*
     1866    21988               NAME: UPDATE_REP_STK
     1867    21989
     1868    21990           DESCRIPTION: This routine update the current REP_STK, save
     1869    21991                        the information of the current data entry for
     1870    21992                        later references.
     1871    21993          */
     1872    21994
     1873    21995
     1874    21996    2    DCL LTS$$            PTR;
     1875    21997
     1876    21998
     1877    21999    2      REP_STK_PTR = REPORT_DATA.STK_PTR;
     1878    22000    2      REP_STK.LTS$ (REP_STK_PTR) = LTS$$;
     1879    22001    2      REP_STK.QLT$ (REP_STK_PTR) = LTS$$ -> REPORT_GRP_LTS.QLT$;
     1880    22002    2      REP_STK.GROUP_TYPE (REP_STK_PTR) = REPORT_DATA.GROUP_TYPE;
     1881    22003    2      REP_STK.LEVEL# (REP_STK_PTR) = REPORT_DATA.LEVEL.CURRENT;
     1882    22004    2      REP_STK.B.ELEMENTARY (REP_STK_PTR) = REPORT_DATA.B.ELEMENTARY;
     1883    22005    2      REP_STK.B.COLUMN_PRESENTED (REP_STK_PTR) = REPORT_DATA.B.COLUMN_PRESENTED;
     1884    22006    2      REP_STK.B.LINE_PRESENTED (REP_STK_PTR) = REPORT_DATA.B.LINE_PRESENTED;
     1885    22007
     1886    22008    2    END UPDATE_REP_STK;
     1887    22009         %EJECT;
PL6.E3A0      #001=Z8DT$REPORT_REC File=Z8DT.:Z8A6TSI                            SAT 08/09/97 11:22 Page:65
     1888    22010
     1889    22011         /*=============*/
     1890    22012    1      APPEND_01_LTS: PROC(APPEND$, LTS$$);
     1891    22013         /*=============*/
     1892    22014         /*
     1893    22015               NAME: APPEND_01_LTS
     1894    22016
     1895    22017           DESCRIPTION: In this routine the LTS item of a report group
     1896    22018                        will be appended to a field of the REPORT_LTS
     1897    22019                        of the report that report group belongs to, and
     1898    22020                        the QLT item will be linked to the previous 01
     1899    22021                        level QLT item.
     1900    22022          */
     1901    22023
     1902    22024
     1903    22025    2     DCL APPEND$          PTR;
     1904    22026    2     DCL LTS$$            PTR;
     1905    22027    2     DCL LAST$            PTR;
     1906    22028    2     DCL QLT$$            PTR;
     1907    22029    2     DCL BRO$             PTR;
     1908    22030
     1909    22031
     1910    22032    2      LAST$ = APPEND$;
     1911    22033    2      IF LAST$ = ADDR(NIL) THEN
     1912    22034    2        APPEND$ = LTS$$;
     1913    22035    2      ELSE
     1914    22036    3        DO;
     1915    22037    4          DO WHILE (LAST$ -> REPORT_01_LTS.LINK ~= ADDR(NIL));
     1916    22038    4            LAST$ = LAST$ -> REPORT_01_LTS.LINK;
     1917    22039    4          END;
     1918    22040    3          LAST$ -> REPORT_01_LTS.LINK = LTS$$;
     1919    22041    3        END;
     1920    22042
     1921    22043    2      IF REP_STK_PTR > 0  THEN
     1922    22044    3        DO;
     1923    22045    3          REP_STK.QLT$ (1) -> QLT.BROTHER = LTS$$ -> REPORT_01_LTS.QLT$;
     1924    22046    3        END;
PL6.E3A0      #001=Z8DT$REPORT_REC File=Z8DT.:Z8A6TSI                            SAT 08/09/97 11:22 Page:66
     1925    22047    2      ELSE
     1926    22048    3        DO;
     1927    22049    3          QLT$$ = O1COM.CURRENT_REPORT_LTS$ -> REPORT_LTS.ST$ -> RD.QLT$ -> QLT.SON;
     1928    22050
     1929    22051    4          DO WHILE (QLT$$ -> QLT.BROTHER ~= ADDR(NIL));
     1930    22052
     1931    22053    4            QLT$$ = QLT$$ -> QLT.BROTHER;
     1932    22054
     1933    22055    4          END;
     1934    22056
     1935    22057    3          QLT$$ -> QLT.BROTHER = LTS$$ -> REPORT_01_LTS.QLT$;
     1936    22058    3        END;
     1937    22059
     1938    22060    2      LTS$$ -> REPORT_01_LTS.QLT$ -> QLT.FATHER =
     1939    22061    2        O1COM.CURRENT_REPORT_LTS$ -> REPORT_LTS.ST$ -> RD.QLT$;
     1940    22062
     1941    22063    2    END APPEND_01_LTS;
     1942    22064         %EJECT;
PL6.E3A0      #001=Z8DT$REPORT_REC File=Z8DT.:Z8A6TSI                            SAT 08/09/97 11:22 Page:67
     1943    22065
     1944    22066         /*=================*/
     1945    22067    1      SAVE_CONTROL_NAME: PROC (QUAL_ID$, LTS$$);
     1946    22068         /*=================*/
     1947    22069         /*
     1948    22070               NAME: SAVE_CONTROL_ITEM
     1949    22071
     1950    22072           DESCRIPTION: The control name in the CONTROL clause will be
     1951    22073                        saved and the process will be defered until the
     1952    22074                        end of the data division and processed by
     1953    22075                        Z8DT$CONTROL_ITEMS.
     1954    22076          */
     1955    22077
     1956    22078
     1957    22079    2      DCL QUAL_ID$            PTR;
     1958    22080    2      DCL DEFERED_ID$         PTR;
     1959    22081    2      DCL LTS$$               PTR;
     1960    22082
     1961    22083
     1962    22084           %NEW_HEAP (@POINTER      = DEFERED_ID$);
     1963    22089
     1964    22090           %INIT_DEFERED_IDENTIFIER (@POINTER = DEFERED_ID$,
     1965    22091                      @DEFERED_ID$  = QUAL_ID$,
     1966    22092                      @ASSOC_VAR_LTS$ = LTS$$,
     1967    22093                      @LINK         = O1COM.CONTROL_NAME$);
     1968    22106
     1969    22107    2      O1COM.CONTROL_NAME$ = DEFERED_ID$;
     1970    22108
     1971    22109    2    END SAVE_CONTROL_NAME;
     1972    22110         %EJECT;
PL6.E3A0      #001=Z8DT$REPORT_REC File=Z8DT.:Z8A6TSI                            SAT 08/09/97 11:22 Page:68
     1973    22111
     1974    22112         /*================*/
     1975    22113    1      PROCESS_01_ENTRY: PROC (LTS$$);
     1976    22114         /*================*/
     1977    22115         /*
     1978    22116               NAME: PROCESS_01_ENTRY
     1979    22117
     1980    22118           DESCRIPTION: A new ST item is created for the 01 level entry item
     1981    22119                        and the LTS item of this entry is linked to the
     1982    22120                        appropriate field of the REPORT_LTS item of the
     1983    22121                        current report.
     1984    22122          */
     1985    22123
     1986    22124
     1987    22125    2    DCL LTS$$                PTR;
     1988    22126    2    DCL NEW_ST$              PTR;
     1989    22127
     1990    22128
     1991    22129
     1992    22130    2      IF REPORT_DATA.B.ELEMENTARY THEN
     1993    22131    3        DO;
     1994    22132    3          PIC_OUT.TYPE = %PIC_TY_N;
     1995    22133    3          PIC_OUT.LEFT = %DEFAULT_NUMERIC_WIDTH;
     1996    22134    3          PIC_OUT.WIDTH = %DEFAULT_NUMERIC_WIDTH;
     1997    22135    3          PIC_OUT.SCALE = %DEFAULT_NUMERIC_SCALE;
     1998    22136    3          PIC_OUT.EIS_TYPE = %PIC_EIS_NS;
     1999    22137    3          CALL PROCESS_NDSC9_PIC (REPORT_DATA.DESC);
     2000    22138    3        END;
     2001    22139    2      ELSE
     2002    22140    3        DO;
     2003    22141    3          REPORT_DATA.B.CLASS = %CLASS_ALPHANUMERIC;
     2004    22142    3          REPORT_DATA.TYPE = %TYA;
     2005    22143    3        END;
     2006    22144
     2007    22145    2      CALL NEW_ST (NEW_ST$);
     2008    22146
     2009    22147           %NEW_REPORT_01_LTS (@POINTER = LTS$$,
PL6.E3A0      #001=Z8DT$REPORT_REC File=Z8DT.:Z8A6TSI                            SAT 08/09/97 11:22 Page:69
     2010    22148                               @ST$     = NEW_ST$,
     2011    22149                               @QLT$    = NEW_ST$ -> SCALAR.QLT$,
     2012    22150                               @LINE_TYPE = REPORT_DATA.LINE_TYPE,
     2013    22151                               @LINE_NO#  = REPORT_DATA.LINE_NUMBER,
     2014    22152                               @LINE_PRESENTED  = REPORT_DATA.B.LINE_PRESENTED,
     2015    22153                               @NEXT_GROUP_TYPE = REPORT_DATA.NEXT_GROUP_TYPE,
     2016    22154                               @NEXT_GROUP_PRESENTED = REPORT_DATA.B.NEXT_GROUP_PRESENTED,
     2017    22155                               @NEXT_GROUP_NO# = REPORT_DATA.NEXT_GROUP_NO#,
     2018    22156                               @REPORT_LTS$ = O1COM.CURRENT_REPORT_LTS$,
     2019    22157                               @GROUP_TYPE  = REPORT_DATA.GROUP_TYPE);
     2020    22271    2      CALL Z8DO$LINK_WITH_LTS(NEW_ST$ -> SCALAR.LTS$, LTS$$);
     2021    22272
     2022    22273    3      DO CASE (REPORT_DATA.GROUP_TYPE);
     2023    22274    3        CASE (%REPORT_HEADING);
     2024    22275    3             CALL APPEND_01_LTS (O1COM.CURRENT_REPORT_LTS$ -> REPORT_LTS.
             22275                      REPORT_HEADING$, LTS$$);
     2025    22276
     2026    22277    3        CASE (%REPORT_FOOTING);
     2027    22278    3             CALL APPEND_01_LTS (O1COM.CURRENT_REPORT_LTS$ -> REPORT_LTS.
             22278                      REPORT_FOOTING$, LTS$$);
     2028    22279
     2029    22280    3        CASE (%PAGE_HEADING);
     2030    22281    3             CALL APPEND_01_LTS (O1COM.CURRENT_REPORT_LTS$ -> REPORT_LTS.PAGE_HEADING$,
             22281                      LTS$$);
     2031    22282
     2032    22283    3        CASE (%PAGE_FOOTING);
     2033    22284    3             CALL APPEND_01_LTS (O1COM.CURRENT_REPORT_LTS$ -> REPORT_LTS.PAGE_FOOTING$,
             22284                      LTS$$);
     2034    22285
     2035    22286    3        CASE (%CONTROL_HEADING_FINAL);
     2036    22287    3             CALL APPEND_01_LTS (O1COM.CURRENT_REPORT_LTS$ -> REPORT_LTS.
             22287                      CONTROL_HEADING_FINAL$, LTS$$);
     2037    22288    3             LTS$$ -> REPORT_01_LTS.CONTROL_LTS$ = CDECL$ -> LX_REPORT_REC.P.TYPE$;
     2038    22289    3             CDECL$ -> LX_REPORT_REC.P.TYPE$ -> CONTROL_NAME_LTS.CONTROL_HEADING$ =
             22289                      LTS$$;
     2039    22290    3             CDECL$ -> LX_REPORT_REC.P.TYPE$ = ADDR(NIL);
     2040    22291    3             O1COM.CURRENT_REPORT_LTS$ -> REPORT_LTS.BODY_NO =
PL6.E3A0      #001=Z8DT$REPORT_REC File=Z8DT.:Z8A6TSI                            SAT 08/09/97 11:22 Page:70
     2041    22292    3                 O1COM.CURRENT_REPORT_LTS$ -> REPORT_LTS.BODY_NO + 1;
     2042    22293
     2043    22294    3        CASE (%CONTROL_FOOTING_FINAL);
     2044    22295    3             CALL APPEND_01_LTS (O1COM.CURRENT_REPORT_LTS$ -> REPORT_LTS.
             22295                      CONTROL_FOOTING_FINAL$, LTS$$);
     2045    22296    3             LTS$$ -> REPORT_01_LTS.CONTROL_LTS$ = CDECL$ -> LX_REPORT_REC.P.TYPE$;
     2046    22297    3             CDECL$ -> LX_REPORT_REC.P.TYPE$ -> CONTROL_NAME_LTS.CONTROL_FOOTING$ =
             22297                      LTS$$;
     2047    22298    3             CDECL$ -> LX_REPORT_REC.P.TYPE$ = ADDR(NIL);
     2048    22299    3             O1COM.CURRENT_REPORT_LTS$ -> REPORT_LTS.BODY_NO =
     2049    22300    3                 O1COM.CURRENT_REPORT_LTS$ -> REPORT_LTS.BODY_NO + 1;
     2050    22301
     2051    22302    3        CASE (%TYPE_DETAIL);
     2052    22303    3             CALL APPEND_01_LTS (O1COM.CURRENT_REPORT_LTS$ -> REPORT_LTS.DETAIL$, LTS$$
             22303                      );
     2053    22304    3             O1COM.CURRENT_REPORT_LTS$ -> REPORT_LTS.BODY_NO =
     2054    22305    3                 O1COM.CURRENT_REPORT_LTS$ -> REPORT_LTS.BODY_NO + 1;
     2055    22306    3             O1COM.CURRENT_REPORT_LTS$ -> REPORT_LTS.DETAIL_NO =
     2056    22307    3                 O1COM.CURRENT_REPORT_LTS$ -> REPORT_LTS.DETAIL_NO + 1;
     2057    22308
     2058    22309    3        CASE (%CONTROL_HEADING);
     2059    22310    3             CALL APPEND_01_LTS (O1COM.CURRENT_REPORT_LTS$ -> REPORT_LTS.
             22310                      CONTROL_HEADING$, LTS$$);
     2060    22311    3             CALL SAVE_CONTROL_NAME (CDECL$ -> LX_REPORT_REC.P.TYPE$,
     2061    22312    3                                     LTS$$);
     2062    22313    3             CDECL$ -> LX_REPORT_REC.P.TYPE$ = ADDR(NIL);
     2063    22314    3             O1COM.CURRENT_REPORT_LTS$ -> REPORT_LTS.BODY_NO =
     2064    22315    3                 O1COM.CURRENT_REPORT_LTS$ -> REPORT_LTS.BODY_NO + 1;
     2065    22316
     2066    22317    3        CASE (%CONTROL_FOOTING);
     2067    22318    3             CALL APPEND_01_LTS (O1COM.CURRENT_REPORT_LTS$ -> REPORT_LTS.
             22318                      CONTROL_FOOTING$, LTS$$);
     2068    22319    3             CALL SAVE_CONTROL_NAME (CDECL$ -> LX_REPORT_REC.P.TYPE$,
     2069    22320    3                                     LTS$$);
     2070    22321    3             CDECL$ -> LX_REPORT_REC.P.TYPE$ = ADDR(NIL);
     2071    22322    3             O1COM.CURRENT_REPORT_LTS$ -> REPORT_LTS.BODY_NO =
     2072    22323    3                 O1COM.CURRENT_REPORT_LTS$ -> REPORT_LTS.BODY_NO + 1;
PL6.E3A0      #001=Z8DT$REPORT_REC File=Z8DT.:Z8A6TSI                            SAT 08/09/97 11:22 Page:71
     2073    22324
     2074    22325    3        CASE (ELSE);
     2075    22326    3             CALL Z8AE$ERROR (%E$UNEXPECTED_CASE);
     2076    22327
     2077    22328    3      END;
     2078    22329
     2079    22330    2    END PROCESS_01_ENTRY;
     2080    22331         %EJECT;
PL6.E3A0      #001=Z8DT$REPORT_REC File=Z8DT.:Z8A6TSI                            SAT 08/09/97 11:22 Page:72
     2081    22332
     2082    22333         /*=================*/
     2083    22334    1      PROCESS_GRP_ENTRY: PROC (LTS$$);
     2084    22335         /*=================*/
     2085    22336         /*
     2086    22337               NAME: PROCESS_GRP_ENTRY
     2087    22338
     2088    22339           DESCRIPTION: A new ST item is created for this group entry
     2089    22340                        and the LTS item of this entry is linked to the
     2090    22341                        previous entry's LTS item so you can step through
     2091    22342                        report group through the LTS chain.
     2092    22343          */
     2093    22344
     2094    22345
     2095    22346    2    DCL LTS$$                PTR;
     2096    22347    2    DCL NEW_ST$              PTR;
     2097    22348
     2098    22349
     2099    22350
     2100    22351    2      REPORT_DATA.B.CLASS = %CLASS_ALPHANUMERIC;
     2101    22352    2      REPORT_DATA.TYPE = %TYA;
     2102    22353
     2103    22354    2      CALL NEW_ST (NEW_ST$);
     2104    22355
     2105    22356           %NEW_REPORT_GRP_LTS (@POINTER = LTS$$,
     2106    22357                                @ST$     = NEW_ST$,
     2107    22358                                @QLT$    = NEW_ST$ -> SCALAR.QLT$,
     2108    22359                                @LINE_TYPE = REPORT_DATA.LINE_TYPE,
     2109    22360                                @LINE_NO#  = REPORT_DATA.LINE_NUMBER,
     2110    22361                                @LINE_PRESENTED  = REPORT_DATA.B.LINE_PRESENTED,
     2111    22362                                @PREV   = "REP_STK.LTS$ (REP_STK_PTR)");
     2112    22462    2      CALL Z8DO$LINK_WITH_LTS(NEW_ST$ -> SCALAR.LTS$, LTS$$);
     2113    22463
     2114    22464    2      REP_STK.LTS$ (REP_STK_PTR) -> REPORT_GRP_LTS.NEXT = LTS$$;
     2115    22465    2      LTS$$ -> REPORT_GRP_LTS.QLT$ -> QLT.FATHER =
     2116    22466    2               REP_STK.QLT$ (REPORT_DATA.STK_PTR - 1);
     2117    22467
PL6.E3A0      #001=Z8DT$REPORT_REC File=Z8DT.:Z8A6TSI                            SAT 08/09/97 11:22 Page:73
     2118    22468    2      IF REPORT_DATA.LEVEL.CURRENT <= REPORT_DATA.LEVEL.PREVIOUS  THEN
     2119    22469    2        REP_STK.QLT$ (REPORT_DATA.STK_PTR) -> QLT.BROTHER =
     2120    22470    2               LTS$$ -> REPORT_GRP_LTS.QLT$;
     2121    22471    2      ELSE
     2122    22472    2        REP_STK.QLT$ (REP_STK_PTR) -> QLT.SON = LTS$$ -> REPORT_GRP_LTS.QLT$;
     2123    22473
     2124    22474    2    END PROCESS_GRP_ENTRY;
     2125    22475         %EJECT;
PL6.E3A0      #001=Z8DT$REPORT_REC File=Z8DT.:Z8A6TSI                            SAT 08/09/97 11:22 Page:74
     2126    22476
     2127    22477         /*==================*/
     2128    22478    1      PROCESS_ELEM_ENTRY: PROC (LTS$$);
     2129    22479         /*==================*/
     2130    22480         /*
     2131    22481               NAME: PROCESS_ELEM_ENTRY
     2132    22482
     2133    22483           DESCRIPTION: A new ST item is created for this elementary entry
     2134    22484                        and the LTS item of this entry is linked to the
     2135    22485                        previous entry's LTS item so you can step through
     2136    22486                        report group through the LTS chain.
     2137    22487                        The VALUE, SOURCE and the SUM clauses will be
     2138    22488                        preprocessed by calling other modules, and the
     2139    22489                        print line buffer length is calculated in this
     2140    22490                        routine too.
     2141    22491          */
     2142    22492
     2143    22493
     2144    22494    2    DCL LTS$$                PTR;
     2145    22495    2    DCL NEW_ST$              PTR;
     2146    22496    2    DCL REC_LENGTH           SBIN WORD;
     2147    22497
     2148    22498
     2149    22499    3      DO CASE (PIC_OUT.TYPE);
     2150    22500    3        CASE (%PIC_TY_A, %PIC_TY_AN, %PIC_TY_ANE, %PIC_TY_NE, %PIC_TY_K);
     2151    22501    3             CALL PROCESS_ADSC_PIC;
     2152    22502
     2153    22503    3        CASE (%PIC_TY_N);
     2154    22504    3             CALL PROCESS_NDSC9_PIC (REPORT_DATA.DESC);
     2155    22505
     2156    22506    3      END;
     2157    22507
     2158    22508    2      CALL NEW_ST (NEW_ST$);
     2159    22509
     2160    22510    2      REPORT_DATA.SPAN = PIC_OUT.WIDTH;
     2161    22511
     2162    22512           %NEW_REPORT_ELEM_LTS (@POINTER = LTS$$,
PL6.E3A0      #001=Z8DT$REPORT_REC File=Z8DT.:Z8A6TSI                            SAT 08/09/97 11:22 Page:75
     2163    22513                                 @ST$     = NEW_ST$,
     2164    22514                                 @QLT$    = NEW_ST$ -> SCALAR.QLT$,
     2165    22515                                 @LINE_TYPE = REPORT_DATA.LINE_TYPE,
     2166    22516                                 @LINE_NO#  = REPORT_DATA.LINE_NUMBER,
     2167    22517                                 @LINE_PRESENTED  = REPORT_DATA.B.LINE_PRESENTED,
     2168    22518                                 @SUM_PRESENTED   = REPORT_DATA.B.SUM_PRESENTED,
     2169    22519                                 @SOURCE_PRESENTED = REPORT_DATA.B.SOURCE_PRESENTED,
     2170    22520                                 @PREV   = "REP_STK.LTS$ (REP_STK_PTR)",
     2171    22521                                 @COLUMN_NO# = REPORT_DATA.COLUMN_NUMBER,
     2172    22522                                 @COLUMN_PRESENTED = REPORT_DATA.B.COLUMN_PRESENTED,
     2173    22523                                 @PRINTABLE        = REPORT_DATA.B.COLUMN_PRESENTED,
     2174    22524                                 @SPAN             = REPORT_DATA.SPAN,
     2175    22525                                 @GROUP_INDICATE   = REPORT_DATA.B.GROUP_INDICATE);
     2176    22635    2      CALL Z8DO$LINK_WITH_LTS(NEW_ST$ -> SCALAR.LTS$, LTS$$);
     2177    22636
     2178    22637    2      REP_STK.LTS$ (REP_STK_PTR) -> REPORT_GRP_LTS.NEXT = LTS$$;
     2179    22638    2      LTS$$ -> REPORT_GRP_LTS.QLT$ -> QLT.FATHER =
     2180    22639    2               REP_STK.QLT$ (REPORT_DATA.STK_PTR - 1);
     2181    22640
     2182    22641    2      IF REPORT_DATA.LEVEL.CURRENT <= REPORT_DATA.LEVEL.PREVIOUS  THEN
     2183    22642    2        REP_STK.QLT$ (REPORT_DATA.STK_PTR) -> QLT.BROTHER =
     2184    22643    2               LTS$$ -> REPORT_GRP_LTS.QLT$;
     2185    22644    2      ELSE
     2186    22645    2        REP_STK.QLT$ (REP_STK_PTR) -> QLT.SON = LTS$$ -> REPORT_GRP_LTS.QLT$;
     2187    22646
     2188    22647    2      IF CDECL$ -> LX_REPORT_REC.P.VALUE$ ~= ADDR(NIL) THEN
     2189    22648    2        CALL PROCESS_VALUE (LTS$$);
     2190    22649    2      ELSE
     2191    22650    2        IF CDECL$ -> LX_REPORT_REC.P.SOURCE$ ~= ADDR(NIL) THEN
     2192    22651    2          CALL PROCESS_SOURCE (LTS$$);
     2193    22652    2        ELSE
     2194    22653    2          IF CDECL$ -> LX_REPORT_REC.P.SUM$ ~= ADDR(NIL) THEN
     2195    22654    2            CALL PROCESS_SUM (LTS$$);
     2196    22655    2          ELSE
     2197    22656    2            LTS$$ -> REPORT_ELEM_LTS.B.PRINTABLE = FALSE;
     2198    22657
     2199    22658    2      IF NOT NEW_ST$ -> VARIABLE.B.SUM_COUNTER THEN
PL6.E3A0      #001=Z8DT$REPORT_REC File=Z8DT.:Z8A6TSI                            SAT 08/09/97 11:22 Page:76
     2200    22659    2        NEW_ST$ -> VARIABLE.B.NON_STORAGE = TRUE;
     2201    22660
     2202    22661
     2203    22662    2      IF LTS$$ -> REPORT_ELEM_LTS.B.PRINTABLE THEN
     2204    22663    3        DO;
     2205    22664    3          REC_LENGTH = REPORT_DATA.SPAN + REPORT_DATA.COLUMN_NUMBER - 1;
     2206    22665
     2207    22666    3          IF REC_LENGTH > O1COM.CURRENT_REPORT_LTS$ -> REPORT_LTS.RECORD_LENGTH THEN
     2208    22667    3            O1COM.CURRENT_REPORT_LTS$ -> REPORT_LTS.RECORD_LENGTH = REC_LENGTH;
     2209    22668    3        END;
     2210    22669
     2211    22670
     2212    22671    2    END PROCESS_ELEM_ENTRY;
     2213    22672         %EJECT;
PL6.E3A0      #001=Z8DT$REPORT_REC File=Z8DT.:Z8A6TSI                            SAT 08/09/97 11:22 Page:77
     2214    22673
     2215    22674         /*================*/
     2216    22675    1      FIND_REP_STK_PTR: PROC (STK_PTR, LEVEL#);
     2217    22676         /*================*/
     2218    22677         /*
     2219    22678               NAME: FIND_REP_STK_PTR
     2220    22679
     2221    22680           DESCRIPTION: This routine search the report item entry stacks
     2222    22681                        compare the input level number with that in stacks
     2223    22682                        and return appropriate stack number of the stack
     2224    22683                        that will used for that entry.
     2225    22684         */
     2226    22685
     2227    22686
     2228    22687    2     DCL STK_PTR          SBIN WORD;
     2229    22688    2     DCL LEVEL#           SBIN WORD;
     2230    22689
     2231    22690
     2232    22691    2      I = 1;
     2233    22692
     2234    22693    3      DO UNTIL (REP_STK.LEVEL# (I) >= LEVEL#);
     2235    22694    3        I = I + 1;
     2236    22695    3      END;
     2237    22696
     2238    22697    2      STK_PTR = I;
     2239    22698
     2240    22699    2    END FIND_REP_STK_PTR;
     2241    22700         %EJECT;
PL6.E3A0      #001=Z8DT$REPORT_REC File=Z8DT.:Z8A6TSI                            SAT 08/09/97 11:22 Page:78
     2242    22701
     2243    22702        /*=============*/
     2244    22703    1     PROCESS_VALUE: PROC (LTS$$);
     2245    22704        /*=============*/
     2246    22705         /*
     2247    22706               NAME: PROCESS_VALUE
     2248    22707
     2249    22708           DESCRIPTION: This routine creates a constant st item for the
     2250    22709                        value specified in the VALUE clause and put the
     2251    22710                        ETT item of the constant st on the LTS of this
     2252    22711                        entry.
     2253    22712         */
     2254    22713
     2255    22714
     2256    22715    2   DCL LTS$$                     PTR;
     2257    22716    2   DCL RETURN_ETT$               PTR;
     2258    22717    2   DCL CONST$                    PTR;
     2259    22718    2   DCL 1 TYPE_DESC               ALIGNED,
     2260    22719             %TYPE_DESC;
     2261    22753
     2262    22754
     2263    22755    2      CONST$ = CDECL$ -> LX_REPORT_REC.P.VALUE$;
     2264    22756
     2265    22757    2      IF REPORT_DATA.B.CLASS = %CLASS_NUMERIC_EDITED THEN
     2266    22758    3        DO;
     2267    22759    3          TYPE_DESC.TYPE         = %TYA;
     2268    22760    3          TYPE_DESC.DESC         = REPORT_DATA.DESC;
     2269    22761    3          TYPE_DESC.SIZ$         = ADDR(NIL);
     2270    22762
     2271    22763    3          CALL Z8EC$NEW_CONST_WITH_TYPE_DESC (TYPE_DESC,
     2272    22764    3                                              CONST$,
     2273    22765    3                                              RETURN_ETT$)
     2274    22766    3            WHENALTRETURN
     2275    22767    4              DO;
     2276    22768                     %CONDITIONAL_ERROR (@LX_ITEM$ = CONST$,
     2277    22769                                         @ERROR#   = %E$VALUE_OVERFLOW,
     2278    22770                                         @LINE     = CONST$ -> LX_ITEM.LINE,
PL6.E3A0      #001=Z8DT$REPORT_REC File=Z8DT.:Z8A6TSI                            SAT 08/09/97 11:22 Page:79
     2279    22771                                         @COLUMN   = CONST$ -> LX_ITEM.COLUMN);
     2280    22801    4              END;
     2281    22802    3        END;
     2282    22803    2      ELSE
     2283    22804    3        DO;
     2284    22805    3          TYPE_DESC.TYPE         = REPORT_DATA.TYPE;
     2285    22806    3          TYPE_DESC.DESC         = REPORT_DATA.DESC;
     2286    22807    3          IF TYPE_DESC.TYPE = %TYD THEN
     2287    22808    3            TYPE_DESC.DESC.NDSC.TN = %NDSC4;
     2288    22809
     2289    22810    3          IF REPORT_DATA.B.LENGTH_4096 THEN
     2290    22811    4            DO;
     2291    22812    4              IF REPORT_DATA.LTS$ -> LTS.ID = %LONG THEN
     2292    22813    4                MKCN.CON = REPORT_DATA.LTS$ -> LONG.LENGTH;
     2293    22814    4              ELSE
     2294    22815    4                MKCN.CON = REPORT_DATA.LTS$ -> LTSS.LONG$ -> LONG.LENGTH;
     2295    22816
     2296    22817    4              CALL Z8AC$MAKE_CONST (TYPE_DESC.SIZ$);
     2297    22818    4            END;
     2298    22819    3          ELSE
     2299    22820    3            TYPE_DESC.SIZ$ = ADDR(NIL);
     2300    22821
     2301    22822    3          CALL Z8EC$NEW_CONST_WITH_TYPE_DESC (TYPE_DESC,
     2302    22823    3                                              CONST$,
     2303    22824    3                                              RETURN_ETT$)
     2304    22825    3            WHENALTRETURN
     2305    22826    4              DO;
     2306    22827                     %CONDITIONAL_ERROR (@LX_ITEM$ = CONST$,
     2307    22828                                         @ERROR#   = %E$VALUE_OVERFLOW,
     2308    22829                                         @LINE     = CONST$ -> LX_ITEM.LINE,
     2309    22830                                         @COLUMN   = CONST$ -> LX_ITEM.COLUMN);
     2310    22860    4              END;
     2311    22861    3        END; /* REPORT_DATA.B.CLASS ~= %CLASS_NUMERIC_EDITED */
     2312    22862
     2313    22863    2      LTS$$ -> REPORT_ELEM_LTS.VALUE_ETT$ = RETURN_ETT$;
     2314    22864
     2315    22865
PL6.E3A0      #001=Z8DT$REPORT_REC File=Z8DT.:Z8A6TSI                            SAT 08/09/97 11:22 Page:80
     2316    22866
     2317    22867    2   END PROCESS_VALUE;
     2318    22868        %EJECT;
PL6.E3A0      #001=Z8DT$REPORT_REC File=Z8DT.:Z8A6TSI                            SAT 08/09/97 11:22 Page:81
     2319    22869
     2320    22870         /*==============*/
     2321    22871    1      PROCESS_SOURCE:  PROC (LTS$$);
     2322    22872         /*==============*/
     2323    22873         /*
     2324    22874               NAME: PROCESS_SOURCE
     2325    22875
     2326    22876           DESCRIPTION: This routine save the information of the SOURCE
     2327    22877                        clause on the DEFERED_IDENTIFIER and chain it on
     2328    22878                        the O1COM.REPORT_SOURCE$, the defered process
     2329    22879                        will be done by Z8ET$DEFERED_SUM_AND_SOURCE.
     2330    22880         */
     2331    22881
     2332    22882
     2333    22883    2      DCL LTS$$       PTR;
     2334    22884    2      DCL DEFERED_ID$ PTR;
     2335    22885
     2336    22886
     2337    22887
     2338    22888    2      CALL Z8ED$NEW_HEAP (DEFERED_ID$, %LENGTH_LX_ITEM);
     2339    22889
     2340    22890           %INIT_DEFERED_IDENTIFIER (@POINTER = DEFERED_ID$,
     2341    22891                                     @DEFERED_ID$ = CDECL$ -> LX_REPORT_REC.P.SOURCE$,
     2342    22892                                     @ASSOC_VAR_LTS$ = LTS$$,
     2343    22893                                     @ASSOC_REPORT_LTS$ = O1COM.CURRENT_REPORT_LTS$,
     2344    22894                                     @LINK = O1COM.REPORT_SOURCE$);
     2345    22907
     2346    22908    2      O1COM.REPORT_SOURCE$ = DEFERED_ID$;
     2347    22909    2      LTS$$ -> REPORT_ELEM_LTS.B.SOURCE_PRESENTED = TRUE;
     2348    22910    2      CDECL$ -> LX_REPORT_REC.P.SOURCE$ = ADDR(NIL);
     2349    22911
     2350    22912    2    END PROCESS_SOURCE;
     2351    22913         %EJECT;
PL6.E3A0      #001=Z8DT$REPORT_REC File=Z8DT.:Z8A6TSI                            SAT 08/09/97 11:22 Page:82
     2352    22914
     2353    22915         /*===========*/
     2354    22916    1      PROCESS_SUM:  PROC (LTS$$);
     2355    22917         /*===========*/
     2356    22918         /*
     2357    22919               NAME: PROCESS_SUM
     2358    22920
     2359    22921           DESCRIPTION: This routine save the information of the SUM
     2360    22922                        clause on the DEFERED_SUM_CLAUSE_LIST and chain it on
     2361    22923                        the O1COM.REPORT_SUM$, the defered process
     2362    22924                        will be done by Z8ET$DEFERED_SUM_AND_SOURCE.
     2363    22925         */
     2364    22926
     2365    22927
     2366    22928    2      DCL LTS$$       PTR;
     2367    22929    2      DCL LIST$$      PTR;
     2368    22930
     2369    22931
     2370    22932
     2371    22933    2      CALL Z8ED$NEW_HEAP (LIST$$, %LENGTH_LX_ITEM);
     2372    22934
     2373    22935           %INIT_DEFERED_SUM_CLAUSE_LIST (@POINTER = LIST$$,
     2374    22936                                     @SUM_CLAUSE_LIST$ = CDECL$ -> LX_REPORT_REC.P.SUM$,
     2375    22937                                     @ASSOC_VAR_LTS$ = LTS$$,
     2376    22938                                     @ASSOC_REPORT_LTS$ = O1COM.CURRENT_REPORT_LTS$,
     2377    22939                                     @ASSOC_01_LTS$ = "REP_STK.LTS$(1)",
     2378    22940                                     @LINK = O1COM.REPORT_SUM$);
     2379    22954
     2380    22955    2      O1COM.REPORT_SUM$ = LIST$$;
     2381    22956    2      LTS$$ -> REPORT_ELEM_LTS.B.SUM_PRESENTED = TRUE;
     2382    22957    2      LTS$$ -> REPORT_ELEM_LTS.ST$ -> SCALAR.B.SUM_COUNTER = TRUE;
     2383    22958    2      CDECL$ -> LX_REPORT_REC.P.SUM$ = ADDR(NIL);
     2384    22959    2      CALL CREATE_SUM_COUNTER (LTS$$);
     2385    22960
     2386    22961    2    END PROCESS_SUM;
     2387    22962         %EJECT;
PL6.E3A0      #001=Z8DT$REPORT_REC File=Z8DT.:Z8A6TSI                            SAT 08/09/97 11:22 Page:83
     2388    22963
     2389    22964
     2390    22965         /*==================*/
     2391    22966    1      CREATE_SUM_COUNTER: PROC (LTS$$);
     2392    22967         /*==================*/
     2393    22968         /*
     2394    22969               NAME: CREATE_SUM_COUNTER
     2395    22970
     2396    22971           DESCRIPTION: Because the sum counter must be numeric data
     2397    22972                        item that will be able to add to other sum counter
     2398    22973                        or as a addend, but the PIC string specified for
     2399    22974                        this sum counter may be anything, so we need to
     2400    22975                        create another ST item that is a numeric item.
     2401    22976         */
     2402    22977
     2403    22978
     2404    22979    2      DCL LTS$$               PTR;
     2405    22980    2      DCL ST$$                PTR;
     2406    22981    2      DCL SUM_LTS$$           PTR;
     2407    22982    2      DCL LENGTH              SBIN WORD;
     2408    22983    2      DCL DN$                 PTR;
     2409    22984
     2410    22985
     2411    22986
     2412    22987         %MACRO  FILL_SUM_LTS;
     2413    22988           DO;
     2414    22989             %NEW_SUM_LTS (@POINTER = SUM_LTS$$,
     2415    22990                           @REPORT_LTS$ = O1COM.CURRENT_REPORT_LTS$,
     2416    22991                           @REPORT_01_LTS$ = "REP_STK.LTS$(1)",
     2417    22992                           @EDIT_ST$ = LTS$$ -> REPORT_ELEM_LTS.ST$);
     2418    22993
     2419    22994               CALL Z8AF$NEW_BASE (SUM_LTS$$ -> SUM_LTS.EDIT_ST$,
     2420    22995                                   ADDR(NIL),
     2421    22996                                   SUM_LTS$$ -> SUM_LTS.EDIT_ST_ILL$ );
     2422    22997           END;
     2423    22998         %MEND;
     2424    22999         %EJECT;
PL6.E3A0      #001=Z8DT$REPORT_REC File=Z8DT.:Z8A6TSI                            SAT 08/09/97 11:22 Page:84
     2425    23000
     2426    23001         %MACRO NEW_SUM_LTS_ST;
     2427    23002           DO;
     2428    23003               %FILL_SUM_LTS;
     2429    23004               %RESERVE_ST (POINTER = ST$$);
     2430    23005               ST$$ -> SCALAR = LTS$$ -> REPORT_ELEM_LTS.ST$ -> SCALAR;
     2431    23006               IF ST$$ -> SCALAR.DNT$ -> DNT.RW_NO ~= %RSV_WRD_FILLER THEN
     2432    23007                   ST$$ -> SCALAR.DNT$ -> DNT.ST$ = ST$$;
     2433    23008               SUM_LTS$$ -> SUM_LTS.SUM_ST$ = ST$$;
     2434    23009           END;
     2435    23010         %MEND;
     2436    23011
     2437    23012         %MACRO SUM_QLT_AND_ILL;
     2438    23013           DO;
     2439    23014               %NEW_QLT (@POINTER = ST$$ -> SCALAR.QLT$,
     2440    23015                         @ST$     = ST$$,
     2441    23016                         @DNT$    = ST$$ -> SCALAR.DNT$,
     2442    23017                         @FATHER  = LTS$$ -> REPORT_ELEM_LTS.QLT$ -> QLT.FATHER,
     2443    23018                         @LEVEL#  = REPORT_DATA.LEVEL.CURRENT);
     2444    23019
     2445    23020               LTS$$ -> REPORT_ELEM_LTS.QLT$ -> QLT.BROTHER = ST$$ -> SCALAR.QLT$;
     2446    23021               LTS$$ -> REPORT_ELEM_LTS.QLT$ = ST$$ -> SCALAR.QLT$;
     2447    23022               LTS$$ -> REPORT_ELEM_LTS.ST$ = ST$$;
     2448    23023
     2449    23024               CALL Z8AF$NEW_BASE (SUM_LTS$$ -> SUM_LTS.SUM_ST$,
     2450    23025                                   ADDR(NIL),
     2451    23026                                   SUM_LTS$$ -> SUM_LTS.SUM_ST_ILL$ );
     2452    23027           END;
     2453    23028         %MEND;
     2454    23029
     2455    23030
     2456    23031         %EJECT;
PL6.E3A0      #001=Z8DT$REPORT_REC File=Z8DT.:Z8A6TSI                            SAT 08/09/97 11:22 Page:85
     2457    23032
     2458    23033    2      LTS$$ -> REPORT_ELEM_LTS.ST$ -> SCALAR.B.SUM_COUNTER = TRUE;
     2459    23034
     2460    23035    3      DO CASE (PIC_OUT.TYPE);
     2461    23036    3        CASE (%PIC_TY_N);
     2462    23037
     2463    23038               %NEW_SUM_LTS_ST;
     2464    23162
     2465    23163               %SUM_QLT_AND_ILL;
     2466    23202
     2467    23203    3        CASE (%PIC_TY_A, %PIC_TY_AN, %PIC_TY_K);
     2468    23204
     2469    23205               %GET_ADSC_LEN (ST$ = LTS$$ -> REPORT_ELEM_LTS.ST$,
     2470    23206                              RTN = LENGTH);
     2471    23217
     2472    23218    3          IF LENGTH > %ANSI_MAX_DIGITS THEN
     2473    23219    3              LENGTH = %ANSI_MAX_DIGITS;
     2474    23220
     2475    23221                   %NEW_SUM_LTS_ST;
     2476    23345
     2477    23346    3              ST$$ -> SCALAR.NDSC.TN = %NDSC9;
     2478    23347    3              ST$$ -> SCALAR.NDSC.S = %NO_SIGN;
     2479    23348    3              ST$$ -> SCALAR.NDSC.N = LENGTH;
     2480    23349    3              ST$$ -> SCALAR.NDSC.SF = 0;
     2481    23350    3              ST$$ -> SCALAR.NDSC.CN = 0;
     2482    23351    3              ST$$ -> SCALAR.TYPE = %TYD;
     2483    23352    3              ST$$ -> SCALAR.B.CLASS = %CLASS_NUMERIC;
     2484    23353    3              ST$$ -> SCALAR.B.JUSTIFIED = '0'B;
     2485    23354
     2486    23355                   %SUM_QLT_AND_ILL;
     2487    23394
     2488    23395
     2489    23396    3        CASE (%PIC_TY_NE);
     2490    23397
     2491    23398               %NEW_SUM_LTS_ST;
     2492    23522
     2493    23523    3          ST$$ -> SCALAR.DESCL = ST$$ -> SCALAR.LTS$ -> LTSS.NEL$
PL6.E3A0      #001=Z8DT$REPORT_REC File=Z8DT.:Z8A6TSI                            SAT 08/09/97 11:22 Page:86
     2494    23524    3                                 -> NEL.DESC.DESCL;
     2495    23525    3          ST$$ -> SCALAR.TYPE = %TYD;
     2496    23526    3          ST$$ -> SCALAR.B.CLASS = %CLASS_NUMERIC;
     2497    23527    3          ST$$ -> SCALAR.B.ASTERISK_SUPRESS = FALSE;
     2498    23528
     2499    23529               %SUM_QLT_AND_ILL;
     2500    23568
     2501    23569    3        CASE (%PIC_TY_ANE);
     2502    23570
     2503    23571    3          IF PIC_OUT.LEFT <= %ANSI_MAX_DIGITS THEN
     2504    23572    3              LENGTH = PIC_OUT.LEFT;
     2505    23573    3          ELSE
     2506    23574    3              LENGTH = %ANSI_MAX_DIGITS;
     2507    23575
     2508    23576               %NEW_SUM_LTS_ST;
     2509    23700
     2510    23701    3          ST$$ -> SCALAR.NDSC.TN = %NDSC9;
     2511    23702    3          ST$$ -> SCALAR.NDSC.S = %NO_SIGN;
     2512    23703    3          ST$$ -> SCALAR.NDSC.N = LENGTH;
     2513    23704    3          ST$$ -> SCALAR.NDSC.SF = 0;
     2514    23705    3          ST$$ -> SCALAR.NDSC.CN = 0;
     2515    23706    3          ST$$ -> SCALAR.TYPE = %TYD;
     2516    23707    3          ST$$ -> SCALAR.B.CLASS = %CLASS_NUMERIC;
     2517    23708
     2518    23709               %SUM_QLT_AND_ILL;
     2519    23748
     2520    23749    3        CASE (ELSE);
     2521    23750
     2522    23751    3          CALL Z8AE$ERROR (%E$UNEXPECTED_CASE);
     2523    23752    3          RETURN;
     2524    23753
     2525    23754    3      END;  /* do case */
     2526    23755
     2527    23756    2      LTS$$ -> REPORT_ELEM_LTS.SUM_LTS$ = SUM_LTS$$;
     2528    23757
     2529    23758    2    END CREATE_SUM_COUNTER;
     2530    23759         %EJECT;
PL6.E3A0      #001=Z8DT$REPORT_REC File=Z8DT.:Z8A6TSI                            SAT 08/09/97 11:22 Page:87
     2531    23760
     2532    23761
     2533    23762         /*================*/
     2534    23763    1      PROCESS_PREV_GRP:  PROC;
     2535    23764         /*================*/
     2536    23765         /*
     2537    23766               NAME: PROCESS_PREV_GRP
     2538    23767
     2539    23768           DESCRIPTION:
     2540    23769                 1. Save first LINE clause number of this report group.
     2541    23770                 2. Save first entry LTS$ that contains LINE clause.
     2542    23771                 3. Save first LINE clause TYPE of this report group.
     2543    23772                 4. Calculate the number of total lines needed for this group.
     2544    23773                 5. Check first LINE clause in PAGE FOOTING group.
     2545    23774                 6. Check the fittness with the PAGE clause in RD entry.
     2546    23775          */
     2547    23776
     2548    23777
     2549    23778
     2550    23779
     2551    23780    2      DCL LTS$$               PTR;
     2552    23781    2      DCL NEXT_LTS$           PTR;
     2553    23782    2      DCL FIRST_LTS$          PTR;
     2554    23783    2      DCL FIRST_LINE_TYPE     UBIN WORD;
     2555    23784    2      DCL FIRST_LINE_NO#      SBIN WORD;
     2556    23785    2      DCL TOTAL_LINES         SBIN WORD;
     2557    23786    2      DCL LAST_LINE_NO#       SBIN WORD;
     2558    23787
     2559    23788
     2560    23789
     2561    23790
     2562    23791    2      LTS$$ = REP_STK.LTS$(1);
     2563    23792    2      NEXT_LTS$ = LTS$$;
     2564    23793    2      FIRST_LTS$ = ADDR(NIL);
     2565    23794
     2566    23795    3      DO WHILE (NEXT_LTS$ ~= ADDR(NIL));
     2567    23796
PL6.E3A0      #001=Z8DT$REPORT_REC File=Z8DT.:Z8A6TSI                            SAT 08/09/97 11:22 Page:88
     2568    23797    3        IF NEXT_LTS$ -> REPORT_GRP_LTS.B.LINE_PRESENTED THEN
     2569    23798    4          DO;
     2570    23799    4            FIRST_LTS$ = NEXT_LTS$;
     2571    23800    4            NEXT_LTS$ = ADDR(NIL);
     2572    23801    4            FIRST_LINE_NO# = FIRST_LTS$ -> REPORT_GRP_LTS.LINE_NO#;
     2573    23802    4            LAST_LINE_NO# = FIRST_LINE_NO#;
     2574    23803    4            FIRST_LINE_TYPE = FIRST_LTS$ -> REPORT_GRP_LTS.LINE_TYPE;
     2575    23804    4          END;
     2576    23805    3        ELSE
     2577    23806    3          NEXT_LTS$ = NEXT_LTS$ -> REPORT_GRP_LTS.NEXT;
     2578    23807
     2579    23808    3      END; /* while */
     2580    23809
     2581    23810    2      IF FIRST_LTS$ ~= ADDR(NIL) THEN
     2582    23811    3        DO;
     2583    23812    3          NEXT_LTS$ = FIRST_LTS$ -> REPORT_GRP_LTS.NEXT;
     2584    23813
     2585    23814    4          DO WHILE (NEXT_LTS$ ~= ADDR(NIL));
     2586    23815
     2587    23816    4            IF NEXT_LTS$ -> REPORT_GRP_LTS.B.LINE_PRESENTED THEN
     2588    23817    5              DO;
     2589    23818    5                IF NEXT_LTS$ -> REPORT_GRP_LTS.LINE_TYPE = %REPORT_LINE_PLUS THEN
     2590    23819    5                  LAST_LINE_NO# = LAST_LINE_NO# + NEXT_LTS$ -> REPORT_GRP_LTS.LINE_NO#;
     2591    23820    5                ELSE
     2592    23821    5                  LAST_LINE_NO# = NEXT_LTS$ -> REPORT_GRP_LTS.LINE_NO#;
     2593    23822    5              END;
     2594    23823
     2595    23824    4            NEXT_LTS$ = NEXT_LTS$ -> REPORT_GRP_LTS.NEXT;
     2596    23825    4          END;   /* while */
     2597    23826
     2598    23827    3          TOTAL_LINES = LAST_LINE_NO# - FIRST_LINE_NO# + 1;
     2599    23828
     2600    23829    3          IF FIRST_LINE_TYPE = %REPORT_LINE_PLUS THEN
     2601    23830    3            TOTAL_LINES = TOTAL_LINES + FIRST_LINE_NO# - 1;
     2602    23831    3      END;
     2603    23832
     2604    23833    2      IF FIRST_LTS$ = ADDR(NIL) THEN
PL6.E3A0      #001=Z8DT$REPORT_REC File=Z8DT.:Z8A6TSI                            SAT 08/09/97 11:22 Page:89
     2605    23834    3        DO;
     2606    23835    3          LTS$$ -> REPORT_01_LTS.FIRST_LINE.TYPE = %NO_REPORT_TYPE;
     2607    23836    3          LTS$$ -> REPORT_01_LTS.FIRST_LINE.NO#  = 0;
     2608    23837    3          LTS$$ -> REPORT_01_LTS.FIRST_LINE.LTS$ = ADDR(NIL);
     2609    23838    3          LTS$$ -> REPORT_01_LTS.TOTAL_LINES = 0;
     2610    23839
     2611    23840    3          IF LTS$$ -> REPORT_01_LTS.B.NEXT_GROUP_PRESENTED THEN
     2612    23841    4            DO;
     2613    23842    4              CALL Z8AE$ERROR(%E$NEXT_GROUP_W_NO_LINE,
     2614    23843    4                    BINBIT (LTS$$ -> REPORT_01_LTS.ST$ -> SCALAR.LINE_NO, 36),
     2615    23844    4                              0);
     2616    23845
     2617    23846    4              LTS$$ -> REPORT_01_LTS.B.NEXT_GROUP_PRESENTED = FALSE;
     2618    23847    4              LTS$$ -> REPORT_01_LTS.NEXT_GROUP_TYPE      = %NO_REPORT_TYPE;
     2619    23848    4            END;
     2620    23849    3        END;
     2621    23850    2      ELSE
     2622    23851    3        DO;
     2623    23852    3          IF LTS$$ -> REPORT_01_LTS.GROUP_TYPE = %PAGE_FOOTING THEN
     2624    23853    3            IF O1COM.CURRENT_REPORT_LTS$ -> REPORT_LTS.B.PAGE_LIMIT_ON THEN
     2625    23854    3              IF FIRST_LINE_TYPE = %REPORT_LINE_PLUS THEN
     2626    23855    4              DO;
     2627    23856    4                CALL Z8AE$ERROR (%E$LINE_NOT_ABS_IN_PF,
     2628    23857    4                       BINBIT (FIRST_LTS$ -> REPORT_01_LTS.ST$ -> SCALAR.LINE_NO, 36),
     2629    23858    4                                 0);
     2630    23859    4              END;
     2631    23860
     2632    23861    3          LTS$$ -> REPORT_01_LTS.FIRST_LINE.TYPE = FIRST_LINE_TYPE;
     2633    23862    3          LTS$$ -> REPORT_01_LTS.FIRST_LINE.NO# = FIRST_LINE_NO#;
     2634    23863    3          LTS$$ -> REPORT_01_LTS.FIRST_LINE.LTS$ = FIRST_LTS$;
     2635    23864    3          LTS$$ -> REPORT_01_LTS.TOTAL_LINES = TOTAL_LINES;
     2636    23865
     2637    23866    3          IF O1COM.CURRENT_REPORT_LTS$ -> REPORT_LTS.B.PAGE_LIMIT_ON THEN
     2638    23867    3            CALL FITTNESS_CHECK (LTS$$);
     2639    23868    3        END;
     2640    23869
     2641    23870    2    END PROCESS_PREV_GRP;
PL6.E3A0      #001=Z8DT$REPORT_REC File=Z8DT.:Z8A6TSI                            SAT 08/09/97 11:22 Page:90
     2642    23871         %EJECT;
PL6.E3A0      #001=Z8DT$REPORT_REC File=Z8DT.:Z8A6TSI                            SAT 08/09/97 11:22 Page:91
     2643    23872
     2644    23873         /*==============*/
     2645    23874    1      FITTNESS_CHECK:  PROC (LTS$$);
     2646    23875         /*==============*/
     2647    23876         /*
     2648    23877               NAME: FITTNESS_CHECK
     2649    23878
     2650    23879           DESCRIPTION: This routine calculate the first line and last
     2651    23880                        line positions and then use this positions to check
     2652    23881                        the fittness of the report group against the PAGE
     2653    23882                        clause in the RD entry (or the default values).
     2654    23883
     2655    23884          */
     2656    23885
     2657    23886
     2658    23887
     2659    23888    2      DCL LTS$$               PTR;
     2660    23889    2      DCL REPORT$             PTR;
     2661    23890    2      DCL PAGE_LIMIT          SBIN WORD;
     2662    23891    2      DCL HEADING             SBIN WORD;
     2663    23892    2      DCL FOOTING             SBIN WORD;
     2664    23893    2      DCL LAST_LINE_PERMIT    SBIN WORD;
     2665    23894    2      DCL FIRST_LINE_PERMIT   SBIN WORD;
     2666    23895    2      DCL LAST_LINE_SHOWN     SBIN WORD;
     2667    23896    2      DCL FIRST_LINE_SHOWN    SBIN WORD;
     2668    23897
     2669    23898
     2670    23899
     2671    23900         %MACRO FIRST_LAST (@FIRST = 0);
     2672    23901           DO;
     2673    23902             IF LTS$$ -> REPORT_01_LTS.FIRST_LINE.TYPE = %REPORT_LINE_PLUS THEN
     2674    23903               DO;
     2675    23904                 FIRST_LINE_SHOWN = @FIRST + LTS$$ -> REPORT_01_LTS.FIRST_LINE.NO#;
     2676    23905                 LAST_LINE_SHOWN = @FIRST + LTS$$ -> REPORT_01_LTS.TOTAL_LINES - 1;
     2677    23906               END;
     2678    23907             ELSE
     2679    23908               DO;
PL6.E3A0      #001=Z8DT$REPORT_REC File=Z8DT.:Z8A6TSI                            SAT 08/09/97 11:22 Page:92
     2680    23909                 FIRST_LINE_SHOWN = LTS$$ -> REPORT_01_LTS.FIRST_LINE.NO#;
     2681    23910
     2682    23911                LAST_LINE_SHOWN = FIRST_LINE_SHOWN + LTS$$ -> REPORT_01_LTS.TOTAL_LINES - 1;
     2683    23912               END;
     2684    23913           END;
     2685    23914         %MEND;
     2686    23915         %EJECT;
PL6.E3A0      #001=Z8DT$REPORT_REC File=Z8DT.:Z8A6TSI                            SAT 08/09/97 11:22 Page:93
     2687    23916
     2688    23917    2      REPORT$ = O1COM.CURRENT_REPORT_LTS$;
     2689    23918
     2690    23919    3      DO CASE (LTS$$ -> REPORT_01_LTS.GROUP_TYPE);
     2691    23920    3        CASE (%REPORT_HEADING);
     2692    23921
     2693    23922    3          IF LTS$$ -> REPORT_01_LTS.NEXT_GROUP_TYPE = %NEXT_GROUP_NEXT_PAGE THEN
     2694    23923    3            LAST_LINE_PERMIT = REPORT$ -> REPORT_LTS.PAGE_LIMIT;
     2695    23924    3          ELSE
     2696    23925    3            LAST_LINE_PERMIT = REPORT$ -> REPORT_LTS.FIRST_DETAIL;
     2697    23926
     2698    23927               %FIRST_LAST (@FIRST = REPORT$ -> REPORT_LTS.HEADING);
     2699    23941
     2700    23942    3          IF FIRST_LINE_SHOWN < REPORT$ -> REPORT_LTS.HEADING  OR
     2701    23943    3              LAST_LINE_SHOWN >= LAST_LINE_PERMIT  THEN
     2702    23944    4            DO;
     2703    23945    4              CALL Z8AE$ERROR (%E$FIT_IN_ERROR,
     2704    23946    4                     BINBIT (LTS$$ -> REPORT_01_LTS.ST$ -> SCALAR.LINE_NO, 36),
     2705    23947    4                               0);
     2706    23948    4            END;
     2707    23949
     2708    23950    3          IF LTS$$ -> REPORT_01_LTS.NEXT_GROUP_TYPE = %NEXT_GROUP_INT THEN
     2709    23951    4            DO;
     2710    23952    4              IF LTS$$ -> REPORT_01_LTS.NEXT_GROUP_NO# >=
     2711    23953    4                          REPORT$ -> REPORT_LTS.FIRST_DETAIL  OR
     2712    23954    4                 LTS$$ -> REPORT_01_LTS.NEXT_GROUP_NO# <=
     2713    23955    4                          LAST_LINE_SHOWN  THEN
     2714    23956    5                DO;
     2715    23957    5                  CALL Z8AE$ERROR (%E$NEXT_GROUP_FIT_ERROR,
     2716    23958    5                         BINBIT (LTS$$ -> REPORT_01_LTS.ST$ -> SCALAR.LINE_NO, 36),
     2717    23959    5                                   0);
     2718    23960    5                  LTS$$ -> REPORT_01_LTS.NEXT_GROUP_TYPE = %NO_REPORT_TYPE;
     2719    23961    5                  LTS$$ -> REPORT_01_LTS.B.NEXT_GROUP_PRESENTED = FALSE;
     2720    23962    5                END;
     2721    23963    4            END;
     2722    23964    3          ELSE
     2723    23965    3            IF LTS$$ -> REPORT_01_LTS.NEXT_GROUP_TYPE = %NEXT_GROUP_PLUS THEN
PL6.E3A0      #001=Z8DT$REPORT_REC File=Z8DT.:Z8A6TSI                            SAT 08/09/97 11:22 Page:94
     2724    23966    3              IF LTS$$ -> REPORT_01_LTS.NEXT_GROUP_NO# + LAST_LINE_SHOWN
     2725    23967    3                  >= REPORT$ -> REPORT_LTS.FIRST_DETAIL  THEN
     2726    23968    4                DO;
     2727    23969    4                  CALL Z8AE$ERROR (%E$NEXT_GROUP_FIT_ERROR,
     2728    23970    4                         BINBIT (LTS$$ -> REPORT_01_LTS.ST$ -> SCALAR.LINE_NO, 36),
     2729    23971    4                                   0);
     2730    23972    4                  LTS$$ -> REPORT_01_LTS.NEXT_GROUP_TYPE = %NO_REPORT_TYPE;
     2731    23973    4                  LTS$$ -> REPORT_01_LTS.B.NEXT_GROUP_PRESENTED = FALSE;
     2732    23974    4                END;
     2733    23975
     2734    23976    3        CASE (%PAGE_HEADING);
     2735    23977
     2736    23978               %FIRST_LAST (@FIRST = REPORT$ -> REPORT_LTS.HEADING);
     2737    23992
     2738    23993    3          IF FIRST_LINE_SHOWN < REPORT$ -> REPORT_LTS.HEADING OR
     2739    23994    3              LAST_LINE_SHOWN >= REPORT$ -> REPORT_LTS.FIRST_DETAIL THEN
     2740    23995    4            DO;
     2741    23996    4              CALL Z8AE$ERROR (%E$FIT_IN_ERROR,
     2742    23997    4                     BINBIT (LTS$$ -> REPORT_01_LTS.ST$ -> SCALAR.LINE_NO, 36),
     2743    23998    4                               0);
     2744    23999    4            END;
     2745    24000
     2746    24001    3        CASE (%PAGE_FOOTING);
     2747    24002
     2748    24003               %FIRST_LAST (@FIRST = REPORT$ -> REPORT_LTS.FOOTING);
     2749    24017
     2750    24018    3          IF FIRST_LINE_SHOWN <= REPORT$ -> REPORT_LTS.FOOTING OR
     2751    24019    3              LAST_LINE_SHOWN > REPORT$ -> REPORT_LTS.PAGE_LIMIT THEN
     2752    24020    4            DO;
     2753    24021    4              CALL Z8AE$ERROR (%E$FIT_IN_ERROR,
     2754    24022    4                     BINBIT (LTS$$ -> REPORT_01_LTS.ST$ -> SCALAR.LINE_NO, 36),
     2755    24023    4                               0);
     2756    24024    4            END;
     2757    24025
     2758    24026    3          IF LTS$$ -> REPORT_01_LTS.NEXT_GROUP_TYPE = %NEXT_GROUP_INT THEN
     2759    24027    4            DO;
     2760    24028    4              IF LTS$$ -> REPORT_01_LTS.NEXT_GROUP_NO# >=
PL6.E3A0      #001=Z8DT$REPORT_REC File=Z8DT.:Z8A6TSI                            SAT 08/09/97 11:22 Page:95
     2761    24029    4                          REPORT$ -> REPORT_LTS.PAGE_LIMIT  OR
     2762    24030    4                 LTS$$ -> REPORT_01_LTS.NEXT_GROUP_NO# <=
     2763    24031    4                          LAST_LINE_SHOWN  THEN
     2764    24032    5                DO;
     2765    24033    5                  CALL Z8AE$ERROR (%E$NEXT_GROUP_FIT_ERROR,
     2766    24034    5                         BINBIT (LTS$$ -> REPORT_01_LTS.ST$ -> SCALAR.LINE_NO, 36),
     2767    24035    5                                   0);
     2768    24036    5                  LTS$$ -> REPORT_01_LTS.NEXT_GROUP_TYPE = %NO_REPORT_TYPE;
     2769    24037    5                  LTS$$ -> REPORT_01_LTS.B.NEXT_GROUP_PRESENTED = FALSE;
     2770    24038    5                END;
     2771    24039    4            END;
     2772    24040    3          ELSE
     2773    24041    3            IF LTS$$ -> REPORT_01_LTS.NEXT_GROUP_TYPE = %NEXT_GROUP_PLUS THEN
     2774    24042    3              IF LTS$$ -> REPORT_01_LTS.NEXT_GROUP_NO# + LAST_LINE_SHOWN
     2775    24043    3                  >= REPORT$ -> REPORT_LTS.PAGE_LIMIT THEN
     2776    24044    4                DO;
     2777    24045    4                  CALL Z8AE$ERROR (%E$NEXT_GROUP_FIT_ERROR,
     2778    24046    4                         BINBIT (LTS$$ -> REPORT_01_LTS.ST$ -> SCALAR.LINE_NO, 36),
     2779    24047    4                                   0);
     2780    24048    4                  LTS$$ -> REPORT_01_LTS.NEXT_GROUP_TYPE = %NO_REPORT_TYPE;
     2781    24049    4                  LTS$$ -> REPORT_01_LTS.B.NEXT_GROUP_PRESENTED = FALSE;
     2782    24050    4                END;
     2783    24051
     2784    24052    3        CASE (%REPORT_FOOTING);
     2785    24053
     2786    24054               %FIRST_LAST (@FIRST = REPORT$ -> REPORT_LTS.FOOTING);
     2787    24068
     2788    24069    3          IF LTS$$ -> REPORT_01_LTS.FIRST_LINE.TYPE = %REPORT_LINE_NEXT_PAGE THEN
     2789    24070    3              FOOTING = REPORT$ -> REPORT_LTS.HEADING;
     2790    24071    3          ELSE
     2791    24072    3              FOOTING = REPORT$ -> REPORT_LTS.FOOTING + 1;
     2792    24073
     2793    24074    3          IF FIRST_LINE_SHOWN < FOOTING  OR
     2794    24075    3              LAST_LINE_SHOWN > REPORT$ -> REPORT_LTS.PAGE_LIMIT THEN
     2795    24076    4            DO;
     2796    24077    4              CALL Z8AE$ERROR (%E$FIT_IN_ERROR,
     2797    24078    4                     BINBIT (LTS$$ -> REPORT_01_LTS.ST$ -> SCALAR.LINE_NO, 36),
PL6.E3A0      #001=Z8DT$REPORT_REC File=Z8DT.:Z8A6TSI                            SAT 08/09/97 11:22 Page:96
     2798    24079    4                               0);
     2799    24080    4            END;
     2800    24081
     2801    24082    3        CASE (ELSE);  /* body group */
     2802    24083
     2803    24084               %FIRST_LAST (@FIRST = REPORT$ -> REPORT_LTS.FIRST_DETAIL);
     2804    24098
     2805    24099    3          IF FIRST_LINE_SHOWN < REPORT$ -> REPORT_LTS.FIRST_DETAIL THEN
     2806    24100    4            DO;
     2807    24101    4              CALL Z8AE$ERROR (%E$FIT_IN_ERROR,
     2808    24102    4                     BINBIT (LTS$$ -> REPORT_01_LTS.ST$ -> SCALAR.LINE_NO, 36),
     2809    24103    4                               0);
     2810    24104    4            END;
     2811    24105    3          ELSE
     2812    24106    4            DO;
     2813    24107    5              DO CASE (LTS$$ -> REPORT_01_LTS.GROUP_TYPE);
     2814    24108
     2815    24109    5                CASE (%TYPE_DETAIL, %CONTROL_HEADING, %CONTROL_HEADING_FINAL);
     2816    24110    5                  IF LAST_LINE_SHOWN > REPORT$ -> REPORT_LTS.LAST_DETAIL THEN
     2817    24111    6                    DO;
     2818    24112    6                      CALL Z8AE$ERROR (%E$FIT_IN_ERROR,
     2819    24113    6                     BINBIT (LTS$$ -> REPORT_01_LTS.ST$ -> SCALAR.LINE_NO, 36),
     2820    24114    6                               0);
     2821    24115    6                    END;
     2822    24116
     2823    24117    5                CASE (%CONTROL_FOOTING, %CONTROL_FOOTING_FINAL);
     2824    24118    5                  IF LAST_LINE_SHOWN > REPORT$ -> REPORT_LTS.FOOTING THEN
     2825    24119    6                    DO;
     2826    24120    6                      CALL Z8AE$ERROR (%E$FIT_IN_ERROR,
     2827    24121    6                     BINBIT (LTS$$ -> REPORT_01_LTS.ST$ -> SCALAR.LINE_NO, 36),
     2828    24122    6                               0);
     2829    24123    6                    END;
     2830    24124
     2831    24125    5                CASE (ELSE);
     2832    24126    5                  CALL Z8AE$ERROR (%E$UNEXPECTED_CASE);
     2833    24127
     2834    24128    5              END;  /*  do case  */
PL6.E3A0      #001=Z8DT$REPORT_REC File=Z8DT.:Z8A6TSI                            SAT 08/09/97 11:22 Page:97
     2835    24129    4            END;  /* end DO */
     2836    24130
     2837    24131
     2838    24132    3          IF LTS$$ -> REPORT_01_LTS.NEXT_GROUP_TYPE = %NEXT_GROUP_INT THEN
     2839    24133    3              IF LTS$$ -> REPORT_01_LTS.NEXT_GROUP_NO# <
     2840    24134    3                          REPORT$ -> REPORT_LTS.FIRST_DETAIL  OR
     2841    24135    3                 LTS$$ -> REPORT_01_LTS.NEXT_GROUP_NO# >
     2842    24136    3                          REPORT$ -> REPORT_LTS.FOOTING  THEN
     2843    24137    4                DO;
     2844    24138    4                  CALL Z8AE$ERROR (%E$NEXT_GROUP_FIT_ERROR,
     2845    24139    4                         BINBIT (LTS$$ -> REPORT_01_LTS.ST$ -> SCALAR.LINE_NO, 36),
     2846    24140    4                                   0);
     2847    24141    4                  LTS$$ -> REPORT_01_LTS.NEXT_GROUP_TYPE = %NO_REPORT_TYPE;
     2848    24142    4                  LTS$$ -> REPORT_01_LTS.B.NEXT_GROUP_PRESENTED = FALSE;
     2849    24143    4                END;
     2850    24144
     2851    24145    3      END;  /* DO CASE */
     2852    24146
     2853    24147    2    END FITTNESS_CHECK;
     2854    24148         %EJECT;
PL6.E3A0      #001=Z8DT$REPORT_REC File=Z8DT.:Z8A6TSI                            SAT 08/09/97 11:22 Page:98
     2855    24149
     2856    24150
     2857    24151             /*           MAIN   BODY          */
     2858    24152
     2859    24153
     2860    24154
     2861    24155
     2862    24156    1      CDECL$ = CURRENT_DECL$;
     2863    24157    1      NDECL$ = NEXT_DECL$;
     2864    24158           %INIT_REPORT_DATA;
     2865    24169
     2866    24170    1      CALL EXTRACT_LEVEL;
     2867    24171
     2868    24172    1      IF REPORT_DATA.LEVEL.CURRENT > %LEVEL_01  AND
     2869    24173    1         REPORT_DATA.LEVEL.PREVIOUS ~= 0  AND
     2870    24174    1         REPORT_DATA.B.ELEMENTARY   THEN
     2871    24175    1           CALL EXTRACT_PIC;
     2872    24176
     2873    24177    1      CALL VALIDATE_LEVEL;
     2874    24178
     2875    24179    1      IF CDECL$ -> LX_REPORT_REC.P.PICTURE$ ~= ADDR(NIL) THEN
     2876    24180    1        CALL VALIDATE_PIC;
     2877    24181
     2878    24182    1      IF CDECL$ -> LX_REPORT_REC.P.VALUE$ ~= ADDR(NIL) THEN
     2879    24183    1        CALL VALIDATE_VALUE;
     2880    24184
     2881    24185    1      IF CDECL$ -> LX_REPORT_REC.P.BLANK$ ~= ADDR(NIL) THEN
     2882    24186    1        CALL VALIDATE_BLANK;
     2883    24187
     2884    24188    1      IF CDECL$ -> LX_REPORT_REC.P.SIGN$ ~= ADDR(NIL)  THEN
     2885    24189    1        CALL VALIDATE_SIGN;
     2886    24190    1      ELSE
     2887    24191    1        REPORT_DATA.SIGN.LOCATION = %SIGN_POS_TRAILING;
     2888    24192
     2889    24193    1      IF CDECL$ -> LX_REPORT_REC.P.JUSTIFIED$ ~= ADDR(NIL) THEN
     2890    24194    1        CALL VALIDATE_JUSTIFIED;
     2891    24195
PL6.E3A0      #001=Z8DT$REPORT_REC File=Z8DT.:Z8A6TSI                            SAT 08/09/97 11:22 Page:99
     2892    24196    1      IF CDECL$ -> LX_REPORT_REC.P.SOURCE$ ~= ADDR(NIL) THEN
     2893    24197    1        CALL VALIDATE_SOURCE;
     2894    24198
     2895    24199    1      IF CDECL$ -> LX_REPORT_REC.P.SUM$ ~= ADDR(NIL) THEN
     2896    24200    1        CALL VALIDATE_SUM;
     2897    24201
     2898    24202    1      IF CDECL$ -> LX_REPORT_REC.P.TYPE$ ~= ADDR(NIL) THEN
     2899    24203    1        CALL VALIDATE_GROUP_TYPE;
     2900    24204
     2901    24205    1      IF CDECL$ -> LX_REPORT_REC.P.GROUP_INDICATE$ ~= ADDR(NIL) THEN
     2902    24206    1        CALL VALIDATE_GROUP_INDICATE;
     2903    24207
     2904    24208    1      CALL VALIDATE_LINE;
     2905    24209
     2906    24210    1      IF CDECL$ -> LX_REPORT_REC.P.NEXT_GROUP$ ~= ADDR(NIL) THEN
     2907    24211    1        CALL VALIDATE_NEXT_GROUP;
     2908    24212
     2909    24213    1      IF CDECL$ -> LX_REPORT_REC.P.COLUMN_NUMBER$ ~= ADDR(NIL) THEN
     2910    24214    1        CALL VALIDATE_COLUMN;
     2911    24215
     2912    24216    1      IF REPORT_DATA.LEVEL.CURRENT = %LEVEL_01 THEN
     2913    24217    1        CALL PROCESS_01_ENTRY (ENTRY_LTS$$);
     2914    24218    1      ELSE
     2915    24219    1        IF REPORT_DATA.B.ELEMENTARY THEN
     2916    24220    1          CALL PROCESS_ELEM_ENTRY (ENTRY_LTS$$);
     2917    24221    1        ELSE
     2918    24222    1          CALL PROCESS_GRP_ENTRY (ENTRY_LTS$$);
     2919    24223
     2920    24224    1      CALL UPDATE_REP_STK (ENTRY_LTS$$);
     2921    24225
     2922    24226    1      IF REPORT_DATA.LEVEL.NEXT = %LEVEL_01 THEN
     2923    24227    1          CALL PROCESS_PREV_GRP;
     2924    24228
     2925    24229    1    RETURN;
     2926    24230    1    END Z8DT$REPORT_REC;
     2927    24231        %EOD;

PL6.E3A0      #001=Z8DT$REPORT_REC File=Z8DT.:Z8A6TSI                            SAT 08/09/97 11:22 Page:100
--  Include file information  --

   Z8E_STATEMNT.:Z8A6TOU  is referenced.
   Z8E_ABSSYN.:Z8A6TOU  cannot be made into a system file and is referenced.
   Z8E_HEAP.:Z8A6TOU  cannot be made into a system file and is referenced.
   Z8D_PIC_PARM.:Z8A6TOU  is referenced.
   Z8E_NEW_ILL.:Z8A6TOU  is referenced.
   Z8E_MACROS.:Z8A6TOU  cannot be made into a system file and is referenced.
   Z8D_REC_DECL.:Z8A6TOU  is referenced.
   Z8E_O1COM.:Z8A6TOU  cannot be made into a system file and is referenced.
   Z8E_WINDOW.:Z8A6TOU  is referenced.
   Z8A_LEX_SYMB.:Z8A6TOU  cannot be made into a system file and is referenced.
   Z8E_STACKS.:Z8A6TOU  cannot be made into a system file and is referenced.
   Z8A_MKCN.:Z8A6TOU  cannot be made into a system file and is referenced.
   Z8A_XREF.:Z8A6TOU  cannot be made into a system file and is referenced.
   Z8A_ETT.:Z8A6TOU  cannot be made into a system file and is referenced.
   Z8A_ILL.:Z8A6TOU  cannot be made into a system file and is referenced.
   Z8A_ERR_NUMS.:Z8A6TOU  is referenced.
   Z8A_DNT.:Z8A6TOU  cannot be made into a system file and is referenced.
   Z8A_TYPES.:Z8A6TOU  is referenced.
   Z8A_LTS.:Z8A6TOU  cannot be made into a system file and is referenced.
   Z8A_QLT.:Z8A6TOU  cannot be made into a system file and is referenced.
   Z8A_ST.:Z8A6TOU  cannot be made into a system file and is referenced.
   Z8A_COMCOM.:Z8A6TOU  cannot be made into a system file and is referenced.
   X8A_COM_MACS.:X8A6TOU  is referenced.
   Z8A_NAMES.:Z8A6TOU  is referenced.
   Z8A_SUPP_MAC.:Z8A6TOU  is referenced.
   Z8A_DEFC.:Z8A6TOU  cannot be made into a system file and is referenced.
      No diagnostics issued in procedure Z8DT$REPORT_REC.

   Procedure Z8DT$REPORT_REC requires 6127 words for executable code.
   Procedure Z8DT$REPORT_REC is declared NOAUTO and requires 200 words of local(STATIC) storage.

PL6.E3A0      #001=Z8DT$REPORT_REC File=Z8DT.:Z8A6TSI                            SAT 08/09/97 11:22 Page:101

 Object Unit name= Z8DT$REPORT_REC                            File name= Z8DT.:Z8A6TOU
 UTS= AUG 09 '97 11:22:03.56 SAT                              Compiler= PL-6/E31         Sev=      00
 SharedLib= :SHARED_SYSTEM                                    Alt SharedLib=


    ****  Control sections  ****

 Sect   Type Bound  Init  Size OctSiz  Section name(segment info)
    0   Data  even  none   200    310  Z8DT$REPORT_REC
    1  LblCom even  none     1      1  ITERATION
    2  LblCom even  none     1      1  ST$
    3  LblCom even  none     5      5  ST_
    4  LblCom even  none     1      1  QLT$
    5  LblCom even  none     1      1  PREV_01_QLT$
    6  LblCom even  none     5      5  QLT_
    7  LblCom even  none     1      1  LTS$
    8  LblCom even  none     5      5  LTS_
    9  LblCom even  none     1      1  DNT$
   10  LblCom even  none     5      5  DNT_
   11  LblCom even  none     1      1  DNT_BUCKET_NUMBER
   12  LblCom even  none     1      1  DNT_OF_1$
   13  LblCom even  none     1      1  ILL$
   14  LblCom even  none     5      5  ILL_
   15  LblCom even  none     1      1  ETT$
   16  LblCom even  none     1      1  HEAD_ETT$
   17  LblCom even  none   512   1000  ETT_BUCKETS
   18  LblCom even  none     5      5  ETT_
   19  LblCom even  none     1      1  XREF$
   20  LblCom even  none     5      5  XREF_
   21  LblCom even  none     2      2  MKCN
   22  LblCom even  none    90    132  LEX_SYMBOL
   23  LblCom even  none     1      1  CURRENT_LEX_SYMBOL$
   24  LblCom even  none    90    132  TEMP_LEX_SYMBOL
   25  LblCom even  none    90    132  TEMP_LEX_SYMBOL2
   26  LblCom even  none     1      1  HEAP$
   27  LblCom even  none     8     10  TEMP_LX_NODE
   28  LblCom even  none    22     26  PIC_OUT
PL6.E3A0      #001=Z8DT$REPORT_REC File=Z8DT.:Z8A6TSI                            SAT 08/09/97 11:22 Page:102
   29  RtLbCm even  none     5      5  GROUP
   30  RoData even  UTS      1      1  Z8DT$REPORT_REC
   31   Proc  even  none  6127  13757  Z8DT$REPORT_REC
   32  RoData even  none   185    271  Z8DT$REPORT_REC

    ****  Entry defs  ****

                              Check   Calling
                             calling  sequence
  Sect OctLoc Primary Altret sequence   type   Parms  Name
    31      0   yes            yes      Std        2  Z8DT$REPORT_REC

  ****  Entry refs  ****

         Check        Calling
        calling       sequence
Altret sequence SRef   type   Args  Name
         yes           Std       0 Z8AH$SEARCH_
         yes           Std       2 Z8ED$NEW_HEAP
         yes           Std      12 Z8AE$ERROR
 yes     yes           Std       3 Z8DP$VALIDATE_PIC
         yes           Std       1 Z8ED$DISPOSE_ABSSYN_TREE
         yes           Std       3 Z8AU$CREATE_NUM_DESC
         yes           Std       1 Z8AR$RESERVER
 yes     yes           Std       3 Z8EC$CREATE_CONST
         yes           Std       2 Z8DO$LINK_WITH_LTS
 yes     yes           Std       3 Z8EC$NEW_CONST_WITH_TYPE_DESC
         yes           Std       1 Z8AC$MAKE_CONST
         yes           Std       3 Z8AF$NEW_BASE
                       nStd      0 X66_STATIC_2
PL6.E3A0      #001=Z8DT$REPORT_REC File=Z8DT.:Z8A6TSI                            SAT 08/09/97 11:22 Page:103

  ****  Data refs  ****

  Flags:  r = read only, s = secondary
Flgs Name                             Flgs Name                             Flgs Name
     COMCOM                           r    LTS_STEP                         r    ILL_STEP
     O1COM                                 HIER_STK_PTR                          HIER_STK
     PAGE_FORMAT                           REP_STK_PTR                           REP_STK
r    DNT$_FROM_RSWNO

  ****  Segment refs  ****

  Flags:  r = read only, s = secondary
Flgs Name                             Flgs Name                             Flgs Name
     NULLSID                               ISSID
PL6.E3A0      #001=Z8DT$REPORT_REC File=Z8DT.:Z8A6TSI                            SAT 08/09/97 11:22 Page:104


        1        1        /*T***********************************************************/
        2        2        /*T*                                                         */
        3        3        /*T* Copyright (c) Bull HN Information Systems Inc., 1997    */
        4        4        /*T*                                                         */
        5        5        /*T***********************************************************/
        6        6
        7        7        /*M*  Z8DT$REPORT_REC---REPORT SECTION record declaration process */
        8        8
        9        9
       10       10        /*P*
       11       11               NAME:  Z8DT$REPORT_REC
       12       12             AUTHOR:  Min Lee.
       13       13            PURPOSE:  To process record declarations in the REPORT SECTION
       14       14
       15       15        */
       16       16
       17       17        /*D*
       18       18               NAME:  Z8DT$REPORT_REC
       19       19               CALL:  CALL Z8DT$REPORT_REC(CURRENT_DECL$, NEXT_DECL$)
       20       20              INPUT:  Current and Next LX_REPORT_REC items that defined in
       21       21                      Z8E_STACKS and created in Z8EM$SEMANTIC_DATA_DIV to store
       22       22                      the address or the information of the data declarations.
       23       23
       24       24        DESCRIPTION:  This routine will validate the data declaration entries
       25       25                      and create the ST, QLT item for every entry and LTS item
       26       26                      for SUM counters and level 01 report group items.
       27       27                      The abstract syntax trees of the identifiers in the SOURCE
       28       28                      and the SUM clauses will be put on the lists pointed by
       29       29                      O1COM.REPORT_SOURCE$ or O1COM.REPORT_SUM$ and the process
       30       30                      is defered until the beginning of the procedure division
       31       31                      and processed in Z8ET$DEFERED_SUM_AND_SOURCE.
       32       32                      The control name of the control group will be saved on
       33       33                      the list pointed by O1COM.CONTROL_NAME$ and will be
       34       34                      processed by Z8DT$CONTROL_ITEMS at the end of data
       35       35                      division.
       36       36         */
PL6.E3A0      #001=Z8DT$REPORT_REC File=Z8DT.:Z8A6TSI                            SAT 08/09/97 11:22 Page:105
       37       37         %EJECT;
PL6.E3A0      #001=Z8DT$REPORT_REC File=Z8DT.:Z8A6TSI                            SAT 08/09/97 11:22 Page:106
       38       38
       39       39         Z8DT$REPORT_REC:  PROC (CURRENT_DECL$, NEXT_DECL$) NOAUTO;

     39 31 000000   000000 700200 xent  Z8DT$REPORT* TSX0  ! X66_STATIC_2
        31 000001   000000 000002 0                  ZERO    0,2
        31 000002   013556 710000 31                 TRA     s:24156

       40       40
       41       41
       42       42
       43       43        %EQU PHASE = 1;
       44       44        %INCLUDE Z8A_DEFC;
       45      112        %INCLUDE Z8A_SUPP_MAC;
       46     2512        %INCLUDE Z8A_COMCOM;
       47     3162        %INCLUDE Z8A_ST;
       48     6821        %INCLUDE Z8A_QLT;
       49     6927        %INCLUDE Z8A_LTS;
       50     9004        %INCLUDE Z8A_TYPES;
       51     9178        %INCLUDE Z8A_DNT;
       52     9399        %INCLUDE Z8A_ERR_NUMS;
       53    10163        %INCLUDE Z8A_ILL;
       54    10856        %INCLUDE Z8A_ETT;
       55    11157        %INCLUDE Z8A_XREF;
       56    11229        %INCLUDE Z8A_MKCN;
       57    11246
       58    11247        %INCLUDE Z8E_STACKS;
       59    13513        %INCLUDE Z8E_WINDOW;
       60    15583        %INCLUDE Z8E_O1COM;
       61    16344        %INCLUDE Z8D_REC_DECL;
       62    16789        %INCLUDE Z8E_MACROS;
       63    17464        %INCLUDE Z8D_PIC_PARM;
       64    17570        %INCLUDE Z8E_HEAP;
       65    17626        %INCLUDE Z8E_ABSSYN;
       66    17832        %INCLUDE Z8E_STATEMNT;
       67    17901
       68    17902        %PIC_IN;
       69    17915        %PIC_STR (LEN = 80, STCLASS = AUTO);
PL6.E3A0      #001=Z8DT$REPORT_REC File=Z8DT.:Z8A6TSI                            SAT 08/09/97 11:22 Page:107
       70    17919        %PIC_OUT (STCLASS = EXT);
       71    17992        %GROUP_DECL;
       72    18002
       73    18003    1   DCL Z8DO$LINK_WITH_LTS        ENTRY (2);
       74    18004    1   DCL Z8EC$CREATE_CONST                ENTRY (3) ALTRET;
       75    18005    1   DCL Z8EC$NEW_CONST_WITH_TYPE_DESC    ENTRY (3) ALTRET;
       76    18006    1   DCL Z8AF$FORME                ENTRY (4);
       77    18007    1   DCL Z8AF$NEW_BASE             ENTRY (3);
       78    18008    1   DCL Z8AE$ERROR                ENTRY (12);
       79    18009
       80    18010    1   DCL Z8AU$TYPE_DESCRIPTOR             ENTRY (2);
       81    18011    1   DCL Z8AU$CREATE_NUM_DESC             ENTRY (3);
       82    18012    1   DCL Z8ED$DISPOSE_ABSSYN_TREE         ENTRY (1);
       83    18013    1   DCL Z8DP$VALIDATE_PIC                ENTRY (3) ALTRET;
       84    18014    1   DCL Z8AH$SEARCH_                     ENTRY ;
       85    18015    1   DCL Z8CO$QUALIFY_VARIABLE            ENTRY (2) ALTRET;
       86    18016    1   DCL Z8AC$MAKE_CONST                  ENTRY (1);
       87    18017    1   DCL Z8DU$BUILD_INITIAL_ITEM          ENTRY (2);
       88    18018
       89    18019    1   DCL DNT$_FROM_RSWNO                  (0:0) PTR SYMREF READONLY;
       90    18020
       91    18021    1   DCL ENTRY_LTS$$                      PTR;
       92    18022    1   DCL CDECL$                           PTR;
       93    18023    1   DCL NDECL$                           PTR;
       94    18024    1   DCL CURRENT_DECL$                    PTR;
       95    18025    1   DCL P$                               PTR;
       96    18026    1   DCL NEXT_DECL$                       PTR;
       97    18027    1    DCL I                               SBIN WORD;
       98    18028
       99    18029
      100    18030    1   DCL  1 REPORT_DATA                  ALIGNED,
      101    18031    1          2 LEVEL                      UNAL,
      102    18032    1            3 CURRENT                  SBIN WORD,
      103    18033    1            3 PREVIOUS                 SBIN WORD,
      104    18034    1            3 NEXT                     SBIN WORD,
      105    18035    1          2 SIGN                       UNAL,
      106    18036    1            3 LOCATION                 SBIN WORD,
PL6.E3A0      #001=Z8DT$REPORT_REC File=Z8DT.:Z8A6TSI                            SAT 08/09/97 11:22 Page:108
      107    18037    1            3 TYPE                     SBIN WORD,
      108    18038    1            3 LINE                     SBIN WORD,
      109    18039    1            3 COLUMN                   SBIN WORD,
      110    18040    1          2 GROUP_TYPE                 UBIN WORD,
      111    18041    1          2 LINE_TYPE                  UBIN WORD,
      112    18042    1          2 TYPE                       SBIN WORD,
      113    18043    1          2 COLUMN_NUMBER              SBIN WORD,
      114    18044    1          2 SPAN                       SBIN WORD,
      115    18045    1          2 NEXT_GROUP_TYPE            UBIN WORD,
      116    18046    1          2 LINE_NUMBER                SBIN WORD,
      117    18047    1          2 STK_PTR                    SBIN WORD,
      118    18048    1          2 LTS$                       PTR,
      119    18049    1          2 DESC,
      120    18050                 %DESCRIPTOR (LVL = 3);
      121    18078    1          2 NEXT_GROUP_NO#             SBIN WORD,
      122    18079    1          2 ATTR                       UBIN WORD,
      123    18080    1          2 B   REDEF ATTR,
      124    18081    1            3 PRINTABLE                BOOLEAN,
      125    18082    1            3 ELEMENTARY               BOOLEAN,
      126    18083    1            3 ASTERISK                 BOOLEAN,
      127    18084    1            3 SIGN_FOUND               BOOLEAN,
      128    18085    1            3 JUSTIFIED                BOOLEAN,
      129    18086    1            3 CLASS                    UBIN(3) UNAL,
      130    18087    1            3 SIGN_PRESENT             BOOLEAN,
      131    18088    1            3 ASTERISK_SUPRESS         BOOLEAN,
      132    18089    1            3 P                        BOOLEAN,
      133    18090    1            3 GROUP_INDICATE           BOOLEAN,
      134    18091    1            3 CONTROL_ERROR            BOOLEAN,
      135    18092    1            3 LENGTH_4096              BOOLEAN,
      136    18093    1            3 GREATER_256K             BOOLEAN,
      137    18094    1            3 LINE_PRESENTED           BOOLEAN,
      138    18095    1            3 COLUMN_PRESENTED         BOOLEAN,
      139    18096    1            3 NEXT_GROUP_PRESENTED     BOOLEAN,
      140    18097    1            3 SUM_PRESENTED            BOOLEAN,
      141    18098    1            3 SOURCE_PRESENTED         BOOLEAN,
      142    18099    1            3 KANJI                    BOOLEAN,
      143    18100    1            3 *                        BIT(15);
PL6.E3A0      #001=Z8DT$REPORT_REC File=Z8DT.:Z8A6TSI                            SAT 08/09/97 11:22 Page:109
      144    18101
      145    18102
      146    18103
      147    18104         %EJECT;
PL6.E3A0      #001=Z8DT$REPORT_REC File=Z8DT.:Z8A6TSI                            SAT 08/09/97 11:22 Page:110
      148    18105         %MACRO INIT_REPORT_DATA;
      149    18106           DO;
      150    18107             REPORT_DATA.LTS$ = ADDR(NIL);
      151    18108             REPORT_DATA.GROUP_TYPE = 0;
      152    18109             REPORT_DATA.LINE_TYPE = 0;
      153    18110             REPORT_DATA.NEXT_GROUP_TYPE = 0;
      154    18111             REPORT_DATA.LINE_NUMBER = 0;
      155    18112             REPORT_DATA.NEXT_GROUP_NO# = 0;
      156    18113             REPORT_DATA.ATTR = 0;
      157    18114           END;
      158    18115         %MEND;
      159    18116         %EJECT;
PL6.E3A0      #001=Z8DT$REPORT_REC File=Z8DT.:Z8A6TSI                            SAT 08/09/97 11:22 Page:111
      160    18117
      161    18118         %MACRO CHECK_NEXT_PAGE_W_TYPE (@GROUP_TYPE = );
      162    18119           DO;
      163    18120             IF REPORT_DATA.LINE_TYPE = %REPORT_LINE_NEXT_PAGE THEN
      164    18121               DO;
      165    18122                 DO CASE (@GROUP_TYPE);
      166    18123                   CASE (%REPORT_HEADING, %PAGE_HEADING, %PAGE_FOOTING);
      167    18124
      168    18125                        CALL Z8AE$ERROR (%E$NEXT_PAGE_IN_WRONG_GRP,
      169    18126                                         LINE$ -> LX_ITEM.LINE,
      170    18127                                         LINE$ -> LX_ITEM.COLUMN);
      171    18128                        REPORT_DATA.LINE_TYPE = %REPORT_LINE_INT;
      172    18129
      173    18130                   CASE (ELSE);
      174    18131                        /* OK */
      175    18132                 END;
      176    18133               END;
      177    18134           END;
      178    18135         %MEND;
      179    18136         %EJECT;
PL6.E3A0      #001=Z8DT$REPORT_REC File=Z8DT.:Z8A6TSI                            SAT 08/09/97 11:22 Page:112
      180    18137
      181    18138
      182    18139        /*============*/
      183    18140    1     PIC_RECOVERY:  PROC ;

  18140 31 000003   000061 741200 0     PIC_RECOVERY STX1  ! REPORT_DATA+19

      184    18141        /*============*/
      185    18142
      186    18143         /*
      187    18144              NAME: PIC_RECOVERY
      188    18145
      189    18146           DESCRIPTION: When a PICTURE clause is missing from a elementary
      190    18147                        entry, this routine is called to create a PIC 9999
      191    18148                        LX_ITEM for it.
      192    18149          */
      193    18150
      194    18151          %EQU PIC_TEXT = '9999';
      195    18152          %EQU PIC_TEXT_LEN = 4;
      196    18153
      197    18154    2     LEX_SYMBOL.SIZE = %PIC_TEXT_LEN;

  18154 31 000004   000004 235007                    LDA     4,DL
        31 000005   000010 755000 22                 STA     LEX_SYMBOL+8

      198    18155    2     SUBSTR (LEX_SYMBOL.SYMBOL, 0, %PIC_TEXT_LEN) = %PIC_TEXT;

  18155 31 000006   000000 236000 30                 LDQ     0
        31 000007   000011 756000 22                 STQ     LEX_SYMBOL+9

      199    18156
      200    18157    2     CALL Z8AH$SEARCH_;

  18157 31 000010   000000 631400 32                 EPPR1   0
        31 000011   000000 701000 xent               TSX1    Z8AH$SEARCH_
        31 000012   000000 011000                    NOP     0

PL6.E3A0      #001=Z8DT$REPORT_REC File=Z8DT.:Z8A6TSI                            SAT 08/09/97 11:22 Page:113
      201    18158    2     CALL Z8ED$NEW_HEAP(P$, %LENGTH_LX_ITEM);

  18158 31 000013   000003 630400 32                 EPPR0   3
        31 000014   000001 631400 32                 EPPR1   1
        31 000015   000000 701000 xent               TSX1    Z8ED$NEW_HEAP
        31 000016   000000 011000                    NOP     0

      202    18159          %INIT_LX_TERMINAL(@POINTER = P$, @DNT$ = DNT$,
      203    18160              @LINE = CDECL$ -> LX_REPORT_REC.P.DATA_NAME$ -> LX_ITEM.LINE,
      204    18161              @COLUMN = CDECL$ -> LX_REPORT_REC.P.DATA_NAME$ -> LX_ITEM.COLUMN);

  18163 31 000017   000000 220003                    LDX0    0,DU
        31 000020   000034 470400 0                  LDP0    P$
        31 000021   000000 740100                    STX0    0,,PR0

  18164 31 000022   000000 221003                    LDX1    0,DU
        31 000023   000034 470400 0                  LDP0    P$
        31 000024   000000 441100                    SXL1    0,,PR0

  18168 31 000025   000015 235007                    LDA     13,DL
        31 000026   000034 470400 0                  LDP0    P$
        31 000027   000004 755100                    STA     4,,PR0

  18170 31 000030   000005 236000 32                 LDQ     5
        31 000031   000034 470400 0                  LDP0    P$
        31 000032   000007 756100                    STQ     7,,PR0

  18172 31 000033   000034 470400 0                  LDP0    P$
        31 000034   000001 756100                    STQ     1,,PR0

  18173 31 000035   000761 236007                    LDQ     497,DL
        31 000036   000034 470400 0                  LDP0    P$
        31 000037   000003 756100                    STQ     3,,PR0

  18174 31 000040   000000 236000 9                  LDQ     DNT$
        31 000041   000034 470400 0                  LDP0    P$
        31 000042   000002 756100                    STQ     2,,PR0
PL6.E3A0      #001=Z8DT$REPORT_REC File=Z8DT.:Z8A6TSI                            SAT 08/09/97 11:22 Page:114

  18175 31 000043   000032 470400 0                  LDP0    CDECL$
        31 000044   000005 471500                    LDP1    5,,PR0
        31 000045   000034 473400 0                  LDP3    P$
        31 000046   100005 235100                    LDA     5,,PR1
        31 000047   300005 755100                    STA     5,,PR3

  18176 31 000050   000005 471500                    LDP1    5,,PR0
        31 000051   000034 473400 0                  LDP3    P$
        31 000052   100006 235100                    LDA     6,,PR1
        31 000053   300006 755100                    STA     6,,PR3

      205    18179    2     CDECL$ -> LX_REPORT_REC.P.PICTURE$ = P$;

  18179 31 000054   000034 236000 0                  LDQ     P$
        31 000055   000007 756100                    STQ     7,,PR0

      206    18180
      207    18181    2     END PIC_RECOVERY;

  18181 31 000056   000061 221200 0                  LDX1  ! REPORT_DATA+19
        31 000057   000001 702211                    TSX2  ! 1,X1

      208    18182          %EJECT;
PL6.E3A0      #001=Z8DT$REPORT_REC File=Z8DT.:Z8A6TSI                            SAT 08/09/97 11:22 Page:115
      209    18183
      210    18184        /*=============*/
      211    18185    1     EXTRACT_LEVEL:    PROC;

  18185 31 000060   000062 741200 0     EXTRACT_LEV* STX1  ! REPORT_DATA+20

      212    18186        /*=============*/
      213    18187
      214    18188         /*
      215    18189              NAME: EXTRACT_LEVEL
      216    18190
      217    18191           DESCRIPTION: Three data entries level value--previous, current
      218    18192                        and next--will be extracted and saved for later
      219    18193                        use. The elementary entry will be recognized and
      220    18194                        the missing PIC clause will be flagged and recovered.
      221    18195          */
      222    18196
      223    18197
      224    18198
      225    18199    2      REPORT_DATA.LEVEL.PREVIOUS = O1COM.LEVEL_NO;

  18199 31 000061   000005 235000 xsym               LDA     O1COM+5
        31 000062   000037 755000 0                  STA     REPORT_DATA+1

      226    18200
      227    18201    2      O1COM.LEVEL_NO = CDECL$ -> LX_REPORT_REC.LEVEL_NUMBER;

  18201 31 000063   000032 470400 0                  LDP0    CDECL$
        31 000064   000027 235100                    LDA     23,,PR0
        31 000065   000005 755000 xsym               STA     O1COM+5

      228    18202
      229    18203    2      REPORT_DATA.LEVEL.CURRENT = O1COM.LEVEL_NO;

  18203 31 000066   000036 755000 0                  STA     REPORT_DATA

      230    18204
PL6.E3A0      #001=Z8DT$REPORT_REC File=Z8DT.:Z8A6TSI                            SAT 08/09/97 11:22 Page:116
      231    18205    2      IF NDECL$ = ADDR(NIL) THEN

  18205 31 000067   000033 236000 0                  LDQ     NDECL$
        31 000070   000005 116000 32                 CMPQ    5
        31 000071   000075 601000 31                 TNZ     s:18208

      232    18206    2        REPORT_DATA.LEVEL.NEXT = %LEVEL_01;

  18206 31 000072   000001 235007                    LDA     1,DL
        31 000073   000040 755000 0                  STA     REPORT_DATA+2
        31 000074   000100 710000 31                 TRA     s:18210

      233    18207    2      ELSE
      234    18208    2        REPORT_DATA.LEVEL.NEXT = NDECL$ -> LX_REPORT_REC.LEVEL_NUMBER;

  18208 31 000075   000033 471400 0                  LDP1    NDECL$
        31 000076   100027 235100                    LDA     23,,PR1
        31 000077   000040 755000 0                  STA     REPORT_DATA+2

      235    18209
      236    18210    2      IF REPORT_DATA.LEVEL.CURRENT = %LEVEL_01 THEN

  18210 31 000100   000036 235000 0                  LDA     REPORT_DATA
        31 000101   000001 115007                    CMPA    1,DL
        31 000102   000112 601000 31                 TNZ     s:18216

      237    18211    3        DO;

      238    18212    3          GROUP = '0'B;

  18212 31 000103   000000 100400                    MLR     fill='000'O
        31 000104   000000 000001 32                 ADSC9   0                        cn=0,n=1
        31 000105   000000 000024 29                 ADSC9   GROUP                    cn=0,n=20

      239    18213    3          GROUP.USAGE.LEVEL = %LEVEL_01;

  18213 31 000106   000001 235007                    LDA     1,DL
PL6.E3A0      #001=Z8DT$REPORT_REC File=Z8DT.:Z8A6TSI                            SAT 08/09/97 11:22 Page:117
        31 000107   000001 755000 29                 STA     GROUP+1

      240    18214    3          GROUP.VALUE.LEVEL = %LEVEL_01;

  18214 31 000110   000002 755000 29                 STA     GROUP+2

      241    18215    3        END;

  18215 31 000111   000150 710000 31                 TRA     s:18228

      242    18216    2      ELSE IF COMCOM.OB.FIPS.LEVEL > 0 AND

  18216 31 000112   000036 720000 xsym               LXL0    COMCOM+30
        31 000113   000150 604400 31                 TMOZ    s:18228
        31 000114   000036 236000 0                  LDQ     REPORT_DATA
        31 000115   000037 116000 0                  CMPQ    REPORT_DATA+1
        31 000116   000150 605000 31                 TPL     s:18228

      243    18217    2          REPORT_DATA.LEVEL.CURRENT < REPORT_DATA.LEVEL.PREVIOUS THEN
      244    18218    3   SEQ_CHECK: DO;

  18218 31 000117                       SEQ_CHECK    null
      245    18219    4          DO I = REP_STK_PTR DOWNTO 2;

  18219 31 000117   000000 235000 xsym               LDA     REP_STK_PTR
        31 000120   000035 755000 0                  STA     I
        31 000121   000131 710000 31                 TRA     s:18222+2

      246    18220    4            IF REP_STK.LEVEL#(I) = REPORT_DATA.LEVEL.CURRENT THEN

  18220 31 000122   000035 236000 0                  LDQ     I
        31 000123   000005 402007                    MPY     5,DL
        31 000124   000003 236006 xsym               LDQ     REP_STK+3,QL
        31 000125   000036 116000 0                  CMPQ    REPORT_DATA
        31 000126   000150 600000 31                 TZE     s:18228

      247    18221    4              EXIT SEQ_CHECK;
PL6.E3A0      #001=Z8DT$REPORT_REC File=Z8DT.:Z8A6TSI                            SAT 08/09/97 11:22 Page:118
      248    18222    4          END;

  18222 31 000127   000001 336007                    LCQ     1,DL
        31 000130   000035 056000 0                  ASQ     I
        31 000131   000035 235000 0                  LDA     I
        31 000132   000002 115007                    CMPA    2,DL
        31 000133   000122 605000 31                 TPL     s:18220

      249    18223    3          CALL Z8AE$ERROR (%E$ANSI_LEVEL_SEQ_ERROR,

  18223 31 000134   000032 470400 0                  LDP0    CDECL$
        31 000135   000004 471500                    LDP1    4,,PR0
        31 000136   100006 633500                    EPPR3   6,,PR1
        31 000137   000304 453400 0                  STP3    FIRST_LINE_SHOWN+3
        31 000140   100005 634500                    EPPR4   5,,PR1
        31 000141   000303 454400 0                  STP4    FIRST_LINE_SHOWN+2
        31 000142   000010 236000 32                 LDQ     8
        31 000143   000302 756000 0                  STQ     FIRST_LINE_SHOWN+1
        31 000144   000302 630400 0                  EPPR0   FIRST_LINE_SHOWN+1
        31 000145   000006 631400 32                 EPPR1   6
        31 000146   000000 701000 xent               TSX1    Z8AE$ERROR
        31 000147   000000 011000                    NOP     0

      250    18224    3                           CDECL$ -> LX_REPORT_REC.P.LEVEL_NO$ -> LX_ITEM.LINE,
      251    18225    3                           CDECL$ -> LX_REPORT_REC.P.LEVEL_NO$ -> LX_ITEM.COLUMN);
      252    18226    3        END; /* SEQ_CHECK */

      253    18227
      254    18228    2      REPORT_DATA.B.ELEMENTARY = (REPORT_DATA.LEVEL.NEXT <=

  18228 31 000150   400000 220003                    LDX0    -131072,DU
        31 000151   000040 236000 0                  LDQ     REPORT_DATA+2
        31 000152   000036 116000 0                  CMPQ    REPORT_DATA
        31 000153   000155 604400 31                 TMOZ    s:18228+5
        31 000154   000000 220003                    LDX0    0,DU
        31 000155   000000 636010                    EAQ     0,X0
        31 000156   000001 772000                    QRL     1
PL6.E3A0      #001=Z8DT$REPORT_REC File=Z8DT.:Z8A6TSI                            SAT 08/09/97 11:22 Page:119
        31 000157   000060 676000 0                  ERQ     REPORT_DATA+18
        31 000160   200000 376003                    ANQ     65536,DU
        31 000161   000060 656000 0                  ERSQ    REPORT_DATA+18

      255    18229    2                                  REPORT_DATA.LEVEL.CURRENT);
      256    18230
      257    18231    2      IF REPORT_DATA.LEVEL.CURRENT <= GROUP.VALUE.LEVEL THEN

  18231 31 000162   000036 236000 0                  LDQ     REPORT_DATA
        31 000163   000002 116000 29                 CMPQ    GROUP+2
        31 000164   000166 605400 31                 TPNZ    s:18234

      258    18232    2        GROUP.VALUE.LEVEL = REPORT_DATA.LEVEL.CURRENT;

  18232 31 000165   000002 756000 29                 STQ     GROUP+2

      259    18233
      260    18234    2      IF REPORT_DATA.B.ELEMENTARY  THEN

  18234 31 000166   000060 236000 0                  LDQ     REPORT_DATA+18
        31 000167   200000 316003                    CANQ    65536,DU
        31 000170   000221 600000 31                 TZE     s:18246

      261    18235    2        IF CDECL$ -> LX_REPORT_REC.P.PICTURE$ = ADDR(NIL) THEN

  18235 31 000171   000032 470400 0                  LDP0    CDECL$
        31 000172   000007 236100                    LDQ     7,,PR0
        31 000173   000005 116000 32                 CMPQ    5
        31 000174   000221 601000 31                 TNZ     s:18246

      262    18236    2          IF REPORT_DATA.LEVEL.CURRENT > %LEVEL_01 AND

  18236 31 000175   000036 235000 0                  LDA     REPORT_DATA
        31 000176   000001 115007                    CMPA    1,DL
        31 000177   000221 604400 31                 TMOZ    s:18246
        31 000200   000037 235000 0                  LDA     REPORT_DATA+1
        31 000201   000221 600000 31                 TZE     s:18246
PL6.E3A0      #001=Z8DT$REPORT_REC File=Z8DT.:Z8A6TSI                            SAT 08/09/97 11:22 Page:120

      263    18237    2              REPORT_DATA.LEVEL.PREVIOUS ~= 0 THEN
      264    18238    3            DO;

      265    18239    3              CALL Z8AE$ERROR(%E$MISSING_DATA_PIC_CLAUSE,

  18239 31 000202   000005 471500                    LDP1    5,,PR0
        31 000203   100002 633500                    EPPR3   2,,PR1
        31 000204   000305 453400 0                  STP3    FIRST_LINE_SHOWN+4
        31 000205   100006 634500                    EPPR4   6,,PR1
        31 000206   000304 454400 0                  STP4    FIRST_LINE_SHOWN+3
        31 000207   100005 635500                    EPPR5   5,,PR1
        31 000210   000303 455400 0                  STP5    FIRST_LINE_SHOWN+2
        31 000211   000013 236000 32                 LDQ     11
        31 000212   000302 756000 0                  STQ     FIRST_LINE_SHOWN+1
        31 000213   000302 630400 0                  EPPR0   FIRST_LINE_SHOWN+1
        31 000214   000011 631400 32                 EPPR1   9
        31 000215   000000 701000 xent               TSX1    Z8AE$ERROR
        31 000216   000000 011000                    NOP     0

      266    18240    3                    CDECL$ -> LX_REPORT_REC.P.DATA_NAME$ -> LX_ITEM.LINE,
      267    18241    3                    CDECL$ -> LX_REPORT_REC.P.DATA_NAME$ -> LX_ITEM.COLUMN,
      268    18242    3                    CDECL$ -> LX_REPORT_REC.P.DATA_NAME$ -> LX_ITEM.DNT$);
      269    18243    3              CALL PIC_RECOVERY;

  18243 31 000217   000003 701000 31                 TSX1    PIC_RECOVERY
        31 000220   000000 011000                    NOP     0

      270    18244    3            END;

      271    18245
      272    18246    2   END EXTRACT_LEVEL;

  18246 31 000221   000062 221200 0                  LDX1  ! REPORT_DATA+20
        31 000222   000001 702211                    TSX2  ! 1,X1

      273    18247        %EJECT;
PL6.E3A0      #001=Z8DT$REPORT_REC File=Z8DT.:Z8A6TSI                            SAT 08/09/97 11:22 Page:121
      274    18248
      275    18249        /*===========*/
      276    18250    1     EXTRACT_PIC: PROC;

  18250 31 000223   000063 741200 0     EXTRACT_PIC  STX1  ! REPORT_DATA+21

      277    18251        /*===========*/
      278    18252
      279    18253         /*
      280    18254              NAME: EXTRACT_PIC
      281    18255
      282    18256           DESCRIPTION: The PICTURE string will be processed here,
      283    18257                        Z8DP$VALIDATE_PIC is called to produce the
      284    18258                        micro-operation strings and some useful information
      285    18259                        like the picture type and length.
      286    18260          */
      287    18261
      288    18262    2   DCL PIC$                      PTR;
      289    18263    2   DCL SIGN_TYPE                 SBIN WORD;
      290    18264
      291    18265
      292    18266    2      PIC$ = CDECL$ -> LX_REPORT_REC.P.PICTURE$;

  18266 31 000224   000032 470400 0                  LDP0    CDECL$
        31 000225   000007 236100                    LDQ     7,,PR0
        31 000226   000064 756000 0                  STQ     PIC$

      293    18267    2      PIC_STR = PIC$ -> LX_ITEM.DNT$ -> DNT.TEXT.NAME;

  18267 31 000227   000064 471400 0                  LDP1    PIC$
        31 000230   100002 473500                    LDP3    2,,PR1
        31 000231   300004 220100                    LDX0    4,,PR3
        31 000232   040000 100540                    MLR     fill='040'O
        31 000233   300004 400010                    ADSC9   4,,PR3                   cn=2,n=*X0
        31 000234   000005 000120 0                  ADSC9   PIC_STR                  cn=0,n=80

      294    18268    2      PIC_IN.PIC_L = PIC$ -> LX_ITEM.DNT$ -> DNT.TEXT.LENGTH;
PL6.E3A0      #001=Z8DT$REPORT_REC File=Z8DT.:Z8A6TSI                            SAT 08/09/97 11:22 Page:122

  18268 31 000235   100002 473500                    LDP3    2,,PR1
        31 000236   300004 220100                    LDX0    4,,PR3
        31 000237   000003 740000 0                  STX0    PIC_IN

      295    18269    2      PIC_IN.MOP_L  = %MAX_MOP_LENGTH;

  18269 31 000240   000100 222003                    LDX2    64,DU
        31 000241   000003 442000 0                  SXL2    PIC_IN

      296    18270    2      PIC_OUT.ERROR = %NO_ERROR;

  18270 31 000242   000003 450000 28                 STZ     PIC_OUT+3

      297    18271
      298    18272    2      IF PIC_IN.PIC_L > %MAX_PIC_STR_LENGTH THEN

  18272 31 000243   000037 100003                    CMPX0   31,DU
        31 000244   000270 602000 31                 TNC     s:18310

      299    18273    3        DO;

      300    18274               %CONDITIONAL_ERROR (@LX_ITEM$ = PIC$,
      301    18275                                   @ERROR#   = %E$PIC_STR_TOO_LONG,
      302    18276                                   @LINE     = PIC$ -> LX_ITEM.LINE,
      303    18277                                   @COLUMN   = PIC$ -> LX_ITEM.COLUMN);

  18287 31 000245   100000 236100                    LDQ     0,,PR1
        31 000246   400000 316007                    CANQ    -131072,DL
        31 000247   000266 601000 31                 TNZ     s:18307

  18289 31 000250   000064 236000 0                  LDQ     PIC$
        31 000251   000006 036003                    ADLQ    6,DU
        31 000252   000304 756000 0                  STQ     FIRST_LINE_SHOWN+3
        31 000253   000064 236000 0                  LDQ     PIC$
        31 000254   000005 036003                    ADLQ    5,DU
        31 000255   000015 235000 32                 LDA     13
PL6.E3A0      #001=Z8DT$REPORT_REC File=Z8DT.:Z8A6TSI                            SAT 08/09/97 11:22 Page:123
        31 000256   000302 757000 0                  STAQ    FIRST_LINE_SHOWN+1
        31 000257   000302 630400 0                  EPPR0   FIRST_LINE_SHOWN+1
        31 000260   000006 631400 32                 EPPR1   6
        31 000261   000000 701000 xent               TSX1    Z8AE$ERROR
        31 000262   000000 011000                    NOP     0

  18298 31 000263   000064 470400 0                  LDP0    PIC$
        31 000264   400000 236007                    LDQ     -131072,DL
        31 000265   000000 256100                    ORSQ    0,,PR0

      304    18307    3          RETURN;

  18307 31 000266   000063 221200 0                  LDX1  ! REPORT_DATA+21
        31 000267   000001 702211                    TSX2  ! 1,X1

      305    18308    3        END;
      306    18309
      307    18310    2      CALL EXTRACT_BLANK_WHEN_ZERO (PIC_IN.B.BLANK_WHEN_ZERO);

  18310 31 000270   000016 236000 32                 LDQ     14
        31 000271   000067 756000 0                  STQ     SIGN_TYPE+2
        31 000272   000332 701000 31                 TSX1    EXTRACT_BLANK_WHEN_ZERO
        31 000273   000000 011000                    NOP     0

      308    18311
      309    18312           /* If a blank when zero was specified and an asterisk was in
      310    18313              the pic string it is illegal                              */
      311    18314
      312    18315    2      IF CDECL$ -> LX_REPORT_REC.P.BLANK$ ~= ADDR(NIL)

  18315 31 000274   000032 470400 0                  LDP0    CDECL$
        31 000275   000012 236100                    LDQ     10,,PR0
        31 000276   000005 116000 32                 CMPQ    5
        31 000277   000304 600000 31                 TZE     s:18319
        31 000300   000004 234000 0                  SZN     PIC_IN+1
        31 000301   000304 604000 31                 TMI     s:18319

PL6.E3A0      #001=Z8DT$REPORT_REC File=Z8DT.:Z8A6TSI                            SAT 08/09/97 11:22 Page:124
      313    18316    2      AND NOT PIC_IN.B.BLANK_WHEN_ZERO THEN
      314    18317    2        REPORT_DATA.B.ASTERISK = TRUE;

  18317 31 000302   100000 236003                    LDQ     32768,DU
        31 000303   000060 256000 0                  ORSQ    REPORT_DATA+18

      315    18318
      316    18319    2      CALL Z8DP$VALIDATE_PIC (PIC_STR, PIC_IN, PIC_OUT)

  18319 31 000304   000017 630400 32                 EPPR0   15
        31 000305   000006 631400 32                 EPPR1   6
        31 000306   000000 701000 xent               TSX1    Z8DP$VALIDATE_PIC
        31 000307   000311 702000 31                 TSX2    s:18326
        31 000310   000311 710000 31                 TRA     s:18326

      317    18320    2        WHENALTRETURN
      318    18321    3          DO;

      319    18322                 /* Nothing - error flagged later */
      320    18323    3          END;

      321    18324
      322    18325
      323    18326    3      DO CASE(PIC_OUT.EIS_TYPE);

  18326 31 000311   000005 220000 28                 LDX0    PIC_OUT+5
        31 000312   000006 100003                    CMPX0   6,DU
        31 000313   000315 602010 31                 TNC     s:18326+4,X0
        31 000314   000330 710000 31                 TRA     s:18334
        31 000315   000323 710000 31                 TRA     s:18328
        31 000316   000323 710000 31                 TRA     s:18328
        31 000317   000323 710000 31                 TRA     s:18328
        31 000320   000330 710000 31                 TRA     s:18334
        31 000321   000330 710000 31                 TRA     s:18334
        31 000322   000323 710000 31                 TRA     s:18328

      324    18327    3        CASE (%PIC_EIS_LS, %PIC_EIS_TS, %PIC_EIS_LSTS, %PIC_EIS_FLT);
PL6.E3A0      #001=Z8DT$REPORT_REC File=Z8DT.:Z8A6TSI                            SAT 08/09/97 11:22 Page:125

      325    18328    3            REPORT_DATA.B.SIGN_FOUND = TRUE;

  18328 31 000323   040000 236003                    LDQ     16384,DU
        31 000324   000060 256000 0                  ORSQ    REPORT_DATA+18

      326    18329    3            REPORT_DATA.SIGN.TYPE = O1COM.DISPLAY_SIGN_TYPE;

  18329 31 000325   000054 235000 xsym               LDA     O1COM+44
        31 000326   000042 755000 0                  STA     REPORT_DATA+4
        31 000327   000330 710000 31                 TRA     s:18334

      327    18330    3        CASE (ELSE);

      328    18331                 /* No sign found */
      329    18332    3      END;

      330    18333
      331    18334    2   END EXTRACT_PIC;

  18334 31 000330   000063 221200 0                  LDX1  ! REPORT_DATA+21
        31 000331   000001 702211                    TSX2  ! 1,X1

      332    18335        %EJECT;
PL6.E3A0      #001=Z8DT$REPORT_REC File=Z8DT.:Z8A6TSI                            SAT 08/09/97 11:22 Page:126
      333    18336
      334    18337        /*=======================*/
      335    18338    1     EXTRACT_BLANK_WHEN_ZERO: PROC (BLANK_WHEN_ZERO);

  18338 31 000332   000066 741200 0     EXTRACT_BLA* STX1  ! SIGN_TYPE+1

      336    18339        /*=======================*/
      337    18340
      338    18341         /*
      339    18342              NAME: EXTRACT_BLANK_WHEN_ZERO
      340    18343
      341    18344           DESCRIPTION: BLANK WHEN ZERO clause is checked against the
      342    18345                        picture string and the bit BLANK_WHEN_ZERO is
      343    18346                        set.
      344    18347          */
      345    18348
      346    18349    2   DCL BLANK_WHEN_ZERO           BIT(1) ALIGNED;
      347    18350    2   DCL INDEX#                    SBIN WORD;
      348    18351
      349    18352
      350    18353
      351    18354    2      IF CDECL$ -> LX_REPORT_REC.P.BLANK$ ~= ADDR(NIL) THEN

  18354 31 000333   000032 470400 0                  LDP0    CDECL$
        31 000334   000012 236100                    LDQ     10,,PR0
        31 000335   000005 116000 32                 CMPQ    5
        31 000336   000361 600000 31                 TZE     s:18368

      352    18355    3        DO;

      353    18356    3          CALL INDEX (INDEX#,

  18356 31 000337   000007 471500                    LDP1    7,,PR0
        31 000340   100002 473500                    LDP3    2,,PR1
        31 000341   300004 220100                    LDX0    4,,PR3
        31 000342   000000 124540                    SCM     mask='000'O
        31 000343   300004 400010                    ADSC9   4,,PR3                   cn=2,n=*X0
PL6.E3A0      #001=Z8DT$REPORT_REC File=Z8DT.:Z8A6TSI                            SAT 08/09/97 11:22 Page:127
        31 000344   000022 000001 32                 ADSC9   18                       cn=0,n=1
        31 000345   000070 000000 0                  ARG     INDEX#

      354    18357    3                      %ASTERISK,
      355    18358    3                      CDECL$ -> LX_REPORT_REC.P.PICTURE$ ->
      356    18359    3                      LX_ITEM.DNT$ -> DNT.TEXT.NAME);
      357    18360
      358    18361    3          IF INDEX# ~= CDECL$ -> LX_REPORT_REC.P.PICTURE$ ->

  18361 31 000346   300004 236100                    LDQ     4,,PR3
        31 000347   000022 772000                    QRL     18
        31 000350   000070 116000 0                  CMPQ    INDEX#
        31 000351   000355 600000 31                 TZE     s:18365

      359    18362    3                       LX_ITEM.DNT$ -> DNT.TEXT.LENGTH THEN
      360    18363    3            BLANK_WHEN_ZERO = FALSE;

  18363 31 000352   000067 474400 0                  LDP4    @BLANK_WHEN_ZERO
        31 000353   400000 450100                    STZ     0,,PR4
        31 000354   000363 710000 31                 TRA     s:18370

      361    18364    3          ELSE
      362    18365    3            BLANK_WHEN_ZERO = TRUE;

  18365 31 000355   400000 236003                    LDQ     -131072,DU
        31 000356   000067 474400 0                  LDP4    @BLANK_WHEN_ZERO
        31 000357   400000 756100                    STQ     0,,PR4

      363    18366    3        END;

  18366 31 000360   000363 710000 31                 TRA     s:18370

      364    18367    2      ELSE
      365    18368    2        BLANK_WHEN_ZERO     = FALSE;

  18368 31 000361   000067 471400 0                  LDP1    @BLANK_WHEN_ZERO
        31 000362   100000 450100                    STZ     0,,PR1
PL6.E3A0      #001=Z8DT$REPORT_REC File=Z8DT.:Z8A6TSI                            SAT 08/09/97 11:22 Page:128

      366    18369
      367    18370    2   END EXTRACT_BLANK_WHEN_ZERO;

  18370 31 000363   000066 221200 0                  LDX1  ! SIGN_TYPE+1
        31 000364   000001 702211                    TSX2  ! 1,X1

      368    18371        %EJECT;
PL6.E3A0      #001=Z8DT$REPORT_REC File=Z8DT.:Z8A6TSI                            SAT 08/09/97 11:22 Page:129
      369    18372
      370    18373        /*==============*/
      371    18374    1     VALIDATE_LEVEL: PROC;

  18374 31 000365   000071 741200 0     VALIDATE_LE* STX1  ! INDEX#+1

      372    18375        /*==============*/
      373    18376
      374    18377         /*
      375    18378              NAME: VALIDATE_LEVEL
      376    18379
      377    18380           DESCRIPTION: Entry level is validated here and the missing TYPE
      378    18381                        clause will be flagged and recovered too.
      379    18382
      380    18383          */
      381    18384
      382    18385
      383    18386    2   DCL LEVEL$                    PTR;
      384    18387
      385    18388
      386    18389
      387    18390    2      IF REPORT_DATA.LEVEL.PREVIOUS = 0  THEN

  18390 31 000366   000037 235000 0                  LDA     REPORT_DATA+1
        31 000367   000430 601000 31                 TNZ     s:18435

      388    18391    2        IF REPORT_DATA.LEVEL.CURRENT ~= %LEVEL_01  THEN

  18391 31 000370   000036 236000 0                  LDQ     REPORT_DATA
        31 000371   000001 116007                    CMPQ    1,DL
        31 000372   000430 600000 31                 TZE     s:18435

      389    18392    3        DO;

      390    18393    3          LEVEL$ = CDECL$ -> LX_REPORT_REC.P.LEVEL_NO$;

  18393 31 000373   000032 470400 0                  LDP0    CDECL$
PL6.E3A0      #001=Z8DT$REPORT_REC File=Z8DT.:Z8A6TSI                            SAT 08/09/97 11:22 Page:130
        31 000374   000004 236100                    LDQ     4,,PR0
        31 000375   000072 756000 0                  STQ     LEVEL$

      391    18394
      392    18395               %CONDITIONAL_ERROR (@LX_ITEM$ = LEVEL$,
      393    18396                                   @ERROR#   = %E$LEVEL_1_OR_77_AT_TOP,
      394    18397                                   @LINE     = LEVEL$ -> LX_ITEM.LINE,
      395    18398                                   @COLUMN   = LEVEL$ -> LX_ITEM.COLUMN);

  18408 31 000376   000072 471400 0                  LDP1    LEVEL$
        31 000377   100000 236100                    LDQ     0,,PR1
        31 000400   400000 316007                    CANQ    -131072,DL
        31 000401   000420 601000 31                 TNZ     s:18429

  18410 31 000402   000072 236000 0                  LDQ     LEVEL$
        31 000403   000006 036003                    ADLQ    6,DU
        31 000404   000304 756000 0                  STQ     FIRST_LINE_SHOWN+3
        31 000405   000072 236000 0                  LDQ     LEVEL$
        31 000406   000005 036003                    ADLQ    5,DU
        31 000407   000024 235000 32                 LDA     20
        31 000410   000302 757000 0                  STAQ    FIRST_LINE_SHOWN+1
        31 000411   000302 630400 0                  EPPR0   FIRST_LINE_SHOWN+1
        31 000412   000006 631400 32                 EPPR1   6
        31 000413   000000 701000 xent               TSX1    Z8AE$ERROR
        31 000414   000000 011000                    NOP     0

  18419 31 000415   000072 470400 0                  LDP0    LEVEL$
        31 000416   400000 236007                    LDQ     -131072,DL
        31 000417   000000 256100                    ORSQ    0,,PR0

      396    18428
      397    18429    3          O1COM.LEVEL_NO = %LEVEL_01;

  18429 31 000420   000001 235007                    LDA     1,DL
        31 000421   000005 755000 xsym               STA     O1COM+5

      398    18430    3          REPORT_DATA.LEVEL.CURRENT = %LEVEL_01;
PL6.E3A0      #001=Z8DT$REPORT_REC File=Z8DT.:Z8A6TSI                            SAT 08/09/97 11:22 Page:131

  18430 31 000422   000036 755000 0                  STA     REPORT_DATA

      399    18431    3          IF REPORT_DATA.LEVEL.NEXT = %LEVEL_01 THEN

  18431 31 000423   000040 236000 0                  LDQ     REPORT_DATA+2
        31 000424   000001 116007                    CMPQ    1,DL
        31 000425   000430 601000 31                 TNZ     s:18435

      400    18432    3            REPORT_DATA.B.ELEMENTARY = TRUE;

  18432 31 000426   200000 236003                    LDQ     65536,DU
        31 000427   000060 256000 0                  ORSQ    REPORT_DATA+18

      401    18433    3        END;

      402    18434
      403    18435    2      IF REPORT_DATA.LEVEL.CURRENT < %LEVEL_01  THEN

  18435 31 000430   000036 235000 0                  LDA     REPORT_DATA
        31 000431   000467 605400 31                 TPNZ    s:18479

      404    18436    3        DO;

      405    18437    3          LEVEL$ = CDECL$ -> LX_REPORT_REC.P.LEVEL_NO$;

  18437 31 000432   000032 470400 0                  LDP0    CDECL$
        31 000433   000004 236100                    LDQ     4,,PR0
        31 000434   000072 756000 0                  STQ     LEVEL$

      406    18438
      407    18439               %CONDITIONAL_ERROR (@LX_ITEM$ = LEVEL$,
      408    18440                                   @ERROR#   = %E$ERR_LEVEL_AND_01_ASSUMED,
      409    18441                                   @LINE     = LEVEL$ -> LX_ITEM.LINE,
      410    18442                                   @COLUMN   = LEVEL$ -> LX_ITEM.COLUMN);

  18452 31 000435   000072 471400 0                  LDP1    LEVEL$
PL6.E3A0      #001=Z8DT$REPORT_REC File=Z8DT.:Z8A6TSI                            SAT 08/09/97 11:22 Page:132
        31 000436   100000 236100                    LDQ     0,,PR1
        31 000437   400000 316007                    CANQ    -131072,DL
        31 000440   000457 601000 31                 TNZ     s:18473

  18454 31 000441   000072 236000 0                  LDQ     LEVEL$
        31 000442   000006 036003                    ADLQ    6,DU
        31 000443   000304 756000 0                  STQ     FIRST_LINE_SHOWN+3
        31 000444   000072 236000 0                  LDQ     LEVEL$
        31 000445   000005 036003                    ADLQ    5,DU
        31 000446   000026 235000 32                 LDA     22
        31 000447   000302 757000 0                  STAQ    FIRST_LINE_SHOWN+1
        31 000450   000302 630400 0                  EPPR0   FIRST_LINE_SHOWN+1
        31 000451   000006 631400 32                 EPPR1   6
        31 000452   000000 701000 xent               TSX1    Z8AE$ERROR
        31 000453   000000 011000                    NOP     0

  18463 31 000454   000072 470400 0                  LDP0    LEVEL$
        31 000455   400000 236007                    LDQ     -131072,DL
        31 000456   000000 256100                    ORSQ    0,,PR0

      411    18472
      412    18473    3          O1COM.LEVEL_NO = %LEVEL_01;

  18473 31 000457   000001 235007                    LDA     1,DL
        31 000460   000005 755000 xsym               STA     O1COM+5

      413    18474    3          REPORT_DATA.LEVEL.CURRENT = %LEVEL_01;

  18474 31 000461   000036 755000 0                  STA     REPORT_DATA

      414    18475    3          IF REPORT_DATA.LEVEL.NEXT = %LEVEL_01 THEN

  18475 31 000462   000040 236000 0                  LDQ     REPORT_DATA+2
        31 000463   000001 116007                    CMPQ    1,DL
        31 000464   000467 601000 31                 TNZ     s:18479

      415    18476    3            REPORT_DATA.B.ELEMENTARY = TRUE;
PL6.E3A0      #001=Z8DT$REPORT_REC File=Z8DT.:Z8A6TSI                            SAT 08/09/97 11:22 Page:133

  18476 31 000465   200000 236003                    LDQ     65536,DU
        31 000466   000060 256000 0                  ORSQ    REPORT_DATA+18

      416    18477    3        END;

      417    18478
      418    18479    2      IF REPORT_DATA.LEVEL.CURRENT > %LEVEL_49  THEN

  18479 31 000467   000061 115007                    CMPA    49,DL
        31 000470   000521 604400 31                 TMOZ    s:18521

      419    18480    3        DO;

      420    18481    3          LEVEL$ = CDECL$ -> LX_REPORT_REC.P.LEVEL_NO$;

  18481 31 000471   000032 470400 0                  LDP0    CDECL$
        31 000472   000004 236100                    LDQ     4,,PR0
        31 000473   000072 756000 0                  STQ     LEVEL$

      421    18482
      422    18483               %CONDITIONAL_ERROR (@LX_ITEM$ = LEVEL$,
      423    18484                                   @ERROR#   = %E$ERR_LEVEL_AND_49_ASSUMED,
      424    18485                                   @LINE     = LEVEL$ -> LX_ITEM.LINE,
      425    18486                                   @COLUMN   = LEVEL$ -> LX_ITEM.COLUMN);

  18496 31 000474   000072 471400 0                  LDP1    LEVEL$
        31 000475   100000 236100                    LDQ     0,,PR1
        31 000476   400000 316007                    CANQ    -131072,DL
        31 000477   000516 601000 31                 TNZ     s:18517

  18498 31 000500   000072 236000 0                  LDQ     LEVEL$
        31 000501   000006 036003                    ADLQ    6,DU
        31 000502   000304 756000 0                  STQ     FIRST_LINE_SHOWN+3
        31 000503   000072 236000 0                  LDQ     LEVEL$
        31 000504   000005 036003                    ADLQ    5,DU
        31 000505   000030 235000 32                 LDA     24
PL6.E3A0      #001=Z8DT$REPORT_REC File=Z8DT.:Z8A6TSI                            SAT 08/09/97 11:22 Page:134
        31 000506   000302 757000 0                  STAQ    FIRST_LINE_SHOWN+1
        31 000507   000302 630400 0                  EPPR0   FIRST_LINE_SHOWN+1
        31 000510   000006 631400 32                 EPPR1   6
        31 000511   000000 701000 xent               TSX1    Z8AE$ERROR
        31 000512   000000 011000                    NOP     0

  18507 31 000513   000072 470400 0                  LDP0    LEVEL$
        31 000514   400000 236007                    LDQ     -131072,DL
        31 000515   000000 256100                    ORSQ    0,,PR0

      426    18516
      427    18517    3          O1COM.LEVEL_NO = %LEVEL_49;

  18517 31 000516   000061 235007                    LDA     49,DL
        31 000517   000005 755000 xsym               STA     O1COM+5

      428    18518    3          REPORT_DATA.LEVEL.CURRENT = %LEVEL_49;

  18518 31 000520   000036 755000 0                  STA     REPORT_DATA

      429    18519    3        END;

      430    18520
      431    18521    2      IF REPORT_DATA.LEVEL.CURRENT = %LEVEL_01  THEN

  18521 31 000521   000001 115007                    CMPA    1,DL
        31 000522   000555 601000 31                 TNZ     s:18563

      432    18522    2        IF CDECL$ -> LX_REPORT_REC.P.TYPE$ = ADDR(NIL) THEN

  18522 31 000523   000032 470400 0                  LDP0    CDECL$
        31 000524   000013 236100                    LDQ     11,,PR0
        31 000525   000005 116000 32                 CMPQ    5
        31 000526   000555 601000 31                 TNZ     s:18563

      433    18523    3        DO;

PL6.E3A0      #001=Z8DT$REPORT_REC File=Z8DT.:Z8A6TSI                            SAT 08/09/97 11:22 Page:135
      434    18524    3          LEVEL$ = CDECL$ -> LX_REPORT_REC.P.LEVEL_NO$;

  18524 31 000527   000004 236100                    LDQ     4,,PR0
        31 000530   000072 756000 0                  STQ     LEVEL$

      435    18525
      436    18526               %CONDITIONAL_ERROR (@LX_ITEM$ = LEVEL$,
      437    18527                                   @ERROR#   = %E$TYPE_CLAUSE_MISSING,
      438    18528                                   @LINE     = LEVEL$ -> LX_ITEM.LINE,
      439    18529                                   @COLUMN   = LEVEL$ -> LX_ITEM.COLUMN);

  18539 31 000531   000072 471400 0                  LDP1    LEVEL$
        31 000532   100000 236100                    LDQ     0,,PR1
        31 000533   400000 316007                    CANQ    -131072,DL
        31 000534   000553 601000 31                 TNZ     s:18560

  18541 31 000535   000072 236000 0                  LDQ     LEVEL$
        31 000536   000006 036003                    ADLQ    6,DU
        31 000537   000304 756000 0                  STQ     FIRST_LINE_SHOWN+3
        31 000540   000072 236000 0                  LDQ     LEVEL$
        31 000541   000005 036003                    ADLQ    5,DU
        31 000542   000032 235000 32                 LDA     26
        31 000543   000302 757000 0                  STAQ    FIRST_LINE_SHOWN+1
        31 000544   000302 630400 0                  EPPR0   FIRST_LINE_SHOWN+1
        31 000545   000006 631400 32                 EPPR1   6
        31 000546   000000 701000 xent               TSX1    Z8AE$ERROR
        31 000547   000000 011000                    NOP     0

  18550 31 000550   000072 470400 0                  LDP0    LEVEL$
        31 000551   400000 236007                    LDQ     -131072,DL
        31 000552   000000 256100                    ORSQ    0,,PR0

      440    18559
      441    18560    3          REPORT_DATA.GROUP_TYPE = %TYPE_DETAIL;

  18560 31 000553   000005 235007                    LDA     5,DL
        31 000554   000045 755000 0                  STA     REPORT_DATA+7
PL6.E3A0      #001=Z8DT$REPORT_REC File=Z8DT.:Z8A6TSI                            SAT 08/09/97 11:22 Page:136

      442    18561    3        END;

      443    18562
      444    18563    2    END VALIDATE_LEVEL;

  18563 31 000555   000071 221200 0                  LDX1  ! INDEX#+1
        31 000556   000001 702211                    TSX2  ! 1,X1

      445    18564         %EJECT;
PL6.E3A0      #001=Z8DT$REPORT_REC File=Z8DT.:Z8A6TSI                            SAT 08/09/97 11:22 Page:137
      446    18565
      447    18566        /*============*/
      448    18567    1     VALIDATE_PIC: PROC;

  18567 31 000557   000073 741200 0     VALIDATE_PIC STX1  ! LEVEL$+1

      449    18568        /*============*/
      450    18569
      451    18570         /*
      452    18571              NAME: VALIDATE_PIC
      453    18572
      454    18573           DESCRIPTION: The PICTURE clause is validated and the BLANK
      455    18574                        WHEN ZERO clause is also checked against the PIC
      456    18575                        clause here.
      457    18576          */
      458    18577
      459    18578
      460    18579    2   DCL PIC$                      PTR;
      461    18580    2   DCL COLUMN#                   SBIN WORD;
      462    18581
      463    18582
      464    18583
      465    18584    2      PIC$ = CDECL$ -> LX_REPORT_REC.P.PICTURE$;

  18584 31 000560   000032 470400 0                  LDP0    CDECL$
        31 000561   000007 236100                    LDQ     7,,PR0
        31 000562   000074 756000 0                  STQ     PIC$

      466    18585
      467    18586    2      IF REPORT_DATA.LEVEL.CURRENT = %LEVEL_01 THEN

  18586 31 000563   000036 235000 0                  LDA     REPORT_DATA
        31 000564   000001 115007                    CMPA    1,DL
        31 000565   000623 601000 31                 TNZ     s:18626

      468    18587    3        DO;

PL6.E3A0      #001=Z8DT$REPORT_REC File=Z8DT.:Z8A6TSI                            SAT 08/09/97 11:22 Page:138
      469    18588               %CONDITIONAL_ERROR (@LX_ITEM$ = PIC$,
      470    18589                                   @ERROR#   = %E$ERR_CLAUSE_IN_REP_01_ENTRY,
      471    18590                                   @LINE     = PIC$ -> LX_ITEM.LINE,
      472    18591                                   @COLUMN   = PIC$ -> LX_ITEM.COLUMN,
      473    18592                                   @PLUG1    = "DNT$_FROM_RSWNO(%RSV_WRD_PICTURE)");

  18602 31 000566   000074 471400 0                  LDP1    PIC$
        31 000567   100000 236100                    LDQ     0,,PR1
        31 000570   400000 316007                    CANQ    -131072,DL
        31 000571   000612 601000 31                 TNZ     s:18622

  18604 31 000572   000034 236000 32                 LDQ     28
        31 000573   000305 756000 0                  STQ     FIRST_LINE_SHOWN+4
        31 000574   000074 236000 0                  LDQ     PIC$
        31 000575   000006 036003                    ADLQ    6,DU
        31 000576   000304 756000 0                  STQ     FIRST_LINE_SHOWN+3
        31 000577   000074 236000 0                  LDQ     PIC$
        31 000600   000005 036003                    ADLQ    5,DU
        31 000601   000035 235000 32                 LDA     29
        31 000602   000302 757000 0                  STAQ    FIRST_LINE_SHOWN+1
        31 000603   000302 630400 0                  EPPR0   FIRST_LINE_SHOWN+1
        31 000604   000011 631400 32                 EPPR1   9
        31 000605   000000 701000 xent               TSX1    Z8AE$ERROR
        31 000606   000000 011000                    NOP     0

  18613 31 000607   000074 470400 0                  LDP0    PIC$
        31 000610   400000 236007                    LDQ     -131072,DL
        31 000611   000000 256100                    ORSQ    0,,PR0

      474    18622    3          CALL Z8ED$DISPOSE_ABSSYN_TREE(CDECL$ -> LX_REPORT_REC.P.PICTURE$);

  18622 31 000612   000032 236000 0                  LDQ     CDECL$
        31 000613   000007 036003                    ADLQ    7,DU
        31 000614   000302 756000 0                  STQ     FIRST_LINE_SHOWN+1
        31 000615   000302 630400 0                  EPPR0   FIRST_LINE_SHOWN+1
        31 000616   000036 631400 32                 EPPR1   30
        31 000617   000000 701000 xent               TSX1    Z8ED$DISPOSE_ABSSYN_TREE
PL6.E3A0      #001=Z8DT$REPORT_REC File=Z8DT.:Z8A6TSI                            SAT 08/09/97 11:22 Page:139
        31 000620   000000 011000                    NOP     0

      475    18623    3          RETURN;

  18623 31 000621   000073 221200 0                  LDX1  ! LEVEL$+1
        31 000622   000001 702211                    TSX2  ! 1,X1

      476    18624    3        END;
      477    18625
      478    18626    2      IF NOT REPORT_DATA.B.ELEMENTARY THEN

  18626 31 000623   000060 236000 0                  LDQ     REPORT_DATA+18
        31 000624   200000 316003                    CANQ    65536,DU
        31 000625   000663 601000 31                 TNZ     s:18666

      479    18627    3        DO;

      480    18628               %CONDITIONAL_ERROR (@LX_ITEM$ = PIC$,
      481    18629                                   @ERROR#   = %E$ERR_CLAUSE_IN_GROUP_ENTRY,
      482    18630                                   @LINE     = PIC$ -> LX_ITEM.LINE,
      483    18631                                   @COLUMN   = PIC$ -> LX_ITEM.COLUMN,
      484    18632                                   @PLUG1    = "DNT$_FROM_RSWNO(%RSV_WRD_PICTURE)");

  18642 31 000626   000074 471400 0                  LDP1    PIC$
        31 000627   100000 236100                    LDQ     0,,PR1
        31 000630   400000 316007                    CANQ    -131072,DL
        31 000631   000652 601000 31                 TNZ     s:18662

  18644 31 000632   000034 236000 32                 LDQ     28
        31 000633   000305 756000 0                  STQ     FIRST_LINE_SHOWN+4
        31 000634   000074 236000 0                  LDQ     PIC$
        31 000635   000006 036003                    ADLQ    6,DU
        31 000636   000304 756000 0                  STQ     FIRST_LINE_SHOWN+3
        31 000637   000074 236000 0                  LDQ     PIC$
        31 000640   000005 036003                    ADLQ    5,DU
        31 000641   000040 235000 32                 LDA     32
        31 000642   000302 757000 0                  STAQ    FIRST_LINE_SHOWN+1
PL6.E3A0      #001=Z8DT$REPORT_REC File=Z8DT.:Z8A6TSI                            SAT 08/09/97 11:22 Page:140
        31 000643   000302 630400 0                  EPPR0   FIRST_LINE_SHOWN+1
        31 000644   000011 631400 32                 EPPR1   9
        31 000645   000000 701000 xent               TSX1    Z8AE$ERROR
        31 000646   000000 011000                    NOP     0

  18653 31 000647   000074 470400 0                  LDP0    PIC$
        31 000650   400000 236007                    LDQ     -131072,DL
        31 000651   000000 256100                    ORSQ    0,,PR0

      485    18662    3          CALL Z8ED$DISPOSE_ABSSYN_TREE(CDECL$ -> LX_REPORT_REC.P.PICTURE$);

  18662 31 000652   000032 236000 0                  LDQ     CDECL$
        31 000653   000007 036003                    ADLQ    7,DU
        31 000654   000302 756000 0                  STQ     FIRST_LINE_SHOWN+1
        31 000655   000302 630400 0                  EPPR0   FIRST_LINE_SHOWN+1
        31 000656   000036 631400 32                 EPPR1   30
        31 000657   000000 701000 xent               TSX1    Z8ED$DISPOSE_ABSSYN_TREE
        31 000660   000000 011000                    NOP     0

      486    18663    3          RETURN;

  18663 31 000661   000073 221200 0                  LDX1  ! LEVEL$+1
        31 000662   000001 702211                    TSX2  ! 1,X1

      487    18664    3        END;
      488    18665
      489    18666    2      IF PIC_OUT.ERROR ~= %NO_ERROR THEN

  18666 31 000663   000003 235000 28                 LDA     PIC_OUT+3
        31 000664   000731 600000 31                 TZE     s:18712

      490    18667    3        DO;

      491    18668    3          COLUMN# = PIC_OUT.ERRCOL + PIC$ -> LX_ITEM.COLUMN;

  18668 31 000665   000074 471400 0                  LDP1    PIC$
        31 000666   000004 236000 28                 LDQ     PIC_OUT+4
PL6.E3A0      #001=Z8DT$REPORT_REC File=Z8DT.:Z8A6TSI                            SAT 08/09/97 11:22 Page:141
        31 000667   000022 772000                    QRL     18
        31 000670   100006 036100                    ADLQ    6,,PR1
        31 000671   000075 756000 0                  STQ     COLUMN#

      492    18669
      493    18670               %CONDITIONAL_ERROR (@LX_ITEM$ = PIC$,
      494    18671                                   @ERROR#   = PIC_OUT.ERROR,
      495    18672                                   @LINE     = PIC$ -> LX_ITEM.LINE,
      496    18673                                   @COLUMN   = COLUMN#);

  18683 31 000672   100000 236100                    LDQ     0,,PR1
        31 000673   400000 316007                    CANQ    -131072,DL
        31 000674   000715 601000 31                 TNZ     s:18703

  18685 31 000675   000041 236000 32                 LDQ     33
        31 000676   000304 756000 0                  STQ     FIRST_LINE_SHOWN+3
        31 000677   000074 236000 0                  LDQ     PIC$
        31 000700   000005 036003                    ADLQ    5,DU
        31 000701   000042 235000 32                 LDA     34
        31 000702   000302 757000 0                  STAQ    FIRST_LINE_SHOWN+1
        31 000703   000302 630400 0                  EPPR0   FIRST_LINE_SHOWN+1
        31 000704   000006 631400 32                 EPPR1   6
        31 000705   000000 701000 xent               TSX1    Z8AE$ERROR
        31 000706   000000 011000                    NOP     0

  18697 31 000707   000003 235000 28                 LDA     PIC_OUT+3
        31 000710   000310 115007                    CMPA    200,DL
        31 000711   000715 602000 31                 TNC     s:18703

  18698 31 000712   000074 470400 0                  LDP0    PIC$
        31 000713   400000 236007                    LDQ     -131072,DL
        31 000714   000000 256100                    ORSQ    0,,PR0

      497    18703    3          PIC_OUT.TYPE = %PIC_TY_N;

  18703 31 000715   000005 220003                    LDX0    5,DU
        31 000716   000002 740000 28                 STX0    PIC_OUT+2
PL6.E3A0      #001=Z8DT$REPORT_REC File=Z8DT.:Z8A6TSI                            SAT 08/09/97 11:22 Page:142

      498    18704    3          PIC_OUT.LEFT = %DEFAULT_NUMERIC_WIDTH;

  18704 31 000717   000004 221003                    LDX1    4,DU
        31 000720   000001 441000 28                 SXL1    PIC_OUT+1

      499    18705    3          PIC_OUT.WIDTH = %DEFAULT_NUMERIC_WIDTH;

  18705 31 000721   000004 235007                    LDA     4,DL
        31 000722   000000 755000 28                 STA     PIC_OUT

      500    18706    3          PIC_OUT.SCALE = %DEFAULT_NUMERIC_SCALE;

  18706 31 000723   000000 222003                    LDX2    0,DU
        31 000724   000001 742000 28                 STX2    PIC_OUT+1

      501    18707    3          PIC_OUT.EIS_TYPE = %PIC_EIS_NS;

  18707 31 000725   000003 223003                    LDX3    3,DU
        31 000726   000005 743000 28                 STX3    PIC_OUT+5

      502    18708
      503    18709    3          RETURN;

  18709 31 000727   000073 221200 0                  LDX1  ! LEVEL$+1
        31 000730   000001 702211                    TSX2  ! 1,X1

      504    18710    3        END;
      505    18711
      506    18712    2      IF REPORT_DATA.B.ASTERISK THEN

  18712 31 000731   100000 316003                    CANQ    32768,DU
        31 000732   000764 600000 31                 TZE     s:18750

      507    18713    3        DO;

      508    18714               %CONDITIONAL_ERROR (@LX_ITEM$ = PIC$,
PL6.E3A0      #001=Z8DT$REPORT_REC File=Z8DT.:Z8A6TSI                            SAT 08/09/97 11:22 Page:143
      509    18715                                   @ERROR#   = %E$BWZ_AND_ASTERISK,
      510    18716                                   @LINE     = PIC$ -> LX_ITEM.LINE,
      511    18717                                   @COLUMN   = PIC$ -> LX_ITEM.COLUMN);

  18727 31 000733   000074 471400 0                  LDP1    PIC$
        31 000734   100000 236100                    LDQ     0,,PR1
        31 000735   400000 316007                    CANQ    -131072,DL
        31 000736   000755 601000 31                 TNZ     s:18747

  18729 31 000737   000074 236000 0                  LDQ     PIC$
        31 000740   000006 036003                    ADLQ    6,DU
        31 000741   000304 756000 0                  STQ     FIRST_LINE_SHOWN+3
        31 000742   000074 236000 0                  LDQ     PIC$
        31 000743   000005 036003                    ADLQ    5,DU
        31 000744   000044 235000 32                 LDA     36
        31 000745   000302 757000 0                  STAQ    FIRST_LINE_SHOWN+1
        31 000746   000302 630400 0                  EPPR0   FIRST_LINE_SHOWN+1
        31 000747   000006 631400 32                 EPPR1   6
        31 000750   000000 701000 xent               TSX1    Z8AE$ERROR
        31 000751   000000 011000                    NOP     0

  18738 31 000752   000074 470400 0                  LDP0    PIC$
        31 000753   400000 236007                    LDQ     -131072,DL
        31 000754   000000 256100                    ORSQ    0,,PR0

      512    18747    3            CALL Z8ED$DISPOSE_ABSSYN_TREE(CDECL$ -> LX_REPORT_REC.P.BLANK$);

  18747 31 000755   000032 236000 0                  LDQ     CDECL$
        31 000756   000012 036003                    ADLQ    10,DU
        31 000757   000302 756000 0                  STQ     FIRST_LINE_SHOWN+1
        31 000760   000302 630400 0                  EPPR0   FIRST_LINE_SHOWN+1
        31 000761   000036 631400 32                 EPPR1   30
        31 000762   000000 701000 xent               TSX1    Z8ED$DISPOSE_ABSSYN_TREE
        31 000763   000000 011000                    NOP     0

      513    18748    3        END;

PL6.E3A0      #001=Z8DT$REPORT_REC File=Z8DT.:Z8A6TSI                            SAT 08/09/97 11:22 Page:144
      514    18749
      515    18750    2      IF PIC_OUT.TYPE = %PIC_TY_K

  18750 31 000764   000002 220000 28                 LDX0    PIC_OUT+2
        31 000765   000001 100003                    CMPX0   1,DU
        31 000766   001017 601000 31                 TNZ     s:18789
        31 000767   000043 236000 xsym               LDQ     COMCOM+35
        31 000770   400000 376003                    ANQ     -131072,DU
        31 000771   400000 676003                    ERQ     -131072,DU
        31 000772   001017 600000 31                 TZE     s:18789

      516    18751    2      AND (~ COMCOM.OB.KANJI) THEN
      517    18752    3        DO;

      518    18753               %CONDITIONAL_ERROR (@LX_ITEM$  = PIC$,
      519    18754                                   @ERROR#    = %E$PIC_N_ILLEGAL,
      520    18755                                   @LINE      = PIC$ -> LX_ITEM.LINE,
      521    18756                                   @COLUMN    = PIC$ -> LX_ITEM.COLUMN);

  18766 31 000773   000074 470400 0                  LDP0    PIC$
        31 000774   000000 236100                    LDQ     0,,PR0
        31 000775   400000 316007                    CANQ    -131072,DL
        31 000776   001015 601000 31                 TNZ     s:18786

  18768 31 000777   000074 236000 0                  LDQ     PIC$
        31 001000   000006 036003                    ADLQ    6,DU
        31 001001   000304 756000 0                  STQ     FIRST_LINE_SHOWN+3
        31 001002   000074 236000 0                  LDQ     PIC$
        31 001003   000005 036003                    ADLQ    5,DU
        31 001004   000046 235000 32                 LDA     38
        31 001005   000302 757000 0                  STAQ    FIRST_LINE_SHOWN+1
        31 001006   000302 630400 0                  EPPR0   FIRST_LINE_SHOWN+1
        31 001007   000006 631400 32                 EPPR1   6
        31 001010   000000 701000 xent               TSX1    Z8AE$ERROR
        31 001011   000000 011000                    NOP     0

  18777 31 001012   000074 470400 0                  LDP0    PIC$
PL6.E3A0      #001=Z8DT$REPORT_REC File=Z8DT.:Z8A6TSI                            SAT 08/09/97 11:22 Page:145
        31 001013   400000 236007                    LDQ     -131072,DL
        31 001014   000000 256100                    ORSQ    0,,PR0

      522    18786    3          RETURN;

  18786 31 001015   000073 221200 0                  LDX1  ! LEVEL$+1
        31 001016   000001 702211                    TSX2  ! 1,X1

      523    18787    3        END;
      524    18788
      525    18789    2   END VALIDATE_PIC;

  18789 31 001017   000073 221200 0                  LDX1  ! LEVEL$+1
        31 001020   000001 702211                    TSX2  ! 1,X1

      526    18790        %EJECT;
PL6.E3A0      #001=Z8DT$REPORT_REC File=Z8DT.:Z8A6TSI                            SAT 08/09/97 11:22 Page:146
      527    18791
      528    18792        /*==============*/
      529    18793    1     VALIDATE_VALUE: PROC;

  18793 31 001021   000076 741200 0     VALIDATE_VA* STX1  ! COLUMN#+1

      530    18794        /*==============*/
      531    18795
      532    18796         /*
      533    18797              NAME: VALIDATE_VALUE
      534    18798
      535    18799           DESCRIPTION: VALUE clause is validated against the PIC clause
      536    18800                        and some other rules.
      537    18801
      538    18802          */
      539    18803
      540    18804
      541    18805    2   DCL VALUE$                    PTR;
      542    18806        %DCL_NUM_DESC (@STRN = NUM_DESC);
      543    18815
      544    18816
      545    18817
      546    18818    2      VALUE$ = CDECL$ -> LX_REPORT_REC.P.VALUE$;

  18818 31 001022   000032 470400 0                  LDP0    CDECL$
        31 001023   000010 236100                    LDQ     8,,PR0
        31 001024   000077 756000 0                  STQ     VALUE$

      547    18819
      548    18820    2      IF REPORT_DATA.LEVEL.CURRENT = %LEVEL_01 THEN

  18820 31 001025   000036 235000 0                  LDA     REPORT_DATA
        31 001026   000001 115007                    CMPA    1,DL
        31 001027   001065 601000 31                 TNZ     s:18860

      549    18821    3        DO;

PL6.E3A0      #001=Z8DT$REPORT_REC File=Z8DT.:Z8A6TSI                            SAT 08/09/97 11:22 Page:147
      550    18822               %CONDITIONAL_ERROR (@LX_ITEM$ = VALUE$,
      551    18823                                   @ERROR#   = %E$ERR_CLAUSE_IN_REP_01_ENTRY,
      552    18824                                   @LINE     = VALUE$ -> LX_ITEM.LINE,
      553    18825                                   @COLUMN   = VALUE$ -> LX_ITEM.COLUMN,
      554    18826                                   @PLUG1    = "DNT$_FROM_RSWNO(%RSV_WRD_VALUE)");

  18836 31 001030   000077 471400 0                  LDP1    VALUE$
        31 001031   100000 236100                    LDQ     0,,PR1
        31 001032   400000 316007                    CANQ    -131072,DL
        31 001033   001054 601000 31                 TNZ     s:18856

  18838 31 001034   000047 236000 32                 LDQ     39
        31 001035   000305 756000 0                  STQ     FIRST_LINE_SHOWN+4
        31 001036   000077 236000 0                  LDQ     VALUE$
        31 001037   000006 036003                    ADLQ    6,DU
        31 001040   000304 756000 0                  STQ     FIRST_LINE_SHOWN+3
        31 001041   000077 236000 0                  LDQ     VALUE$
        31 001042   000005 036003                    ADLQ    5,DU
        31 001043   000035 235000 32                 LDA     29
        31 001044   000302 757000 0                  STAQ    FIRST_LINE_SHOWN+1
        31 001045   000302 630400 0                  EPPR0   FIRST_LINE_SHOWN+1
        31 001046   000011 631400 32                 EPPR1   9
        31 001047   000000 701000 xent               TSX1    Z8AE$ERROR
        31 001050   000000 011000                    NOP     0

  18847 31 001051   000077 470400 0                  LDP0    VALUE$
        31 001052   400000 236007                    LDQ     -131072,DL
        31 001053   000000 256100                    ORSQ    0,,PR0

      555    18856    3          CALL Z8ED$DISPOSE_ABSSYN_TREE(CDECL$ -> LX_REPORT_REC.P.VALUE$);

  18856 31 001054   000032 236000 0                  LDQ     CDECL$
        31 001055   000010 036003                    ADLQ    8,DU
        31 001056   000302 756000 0                  STQ     FIRST_LINE_SHOWN+1
        31 001057   000302 630400 0                  EPPR0   FIRST_LINE_SHOWN+1
        31 001060   000036 631400 32                 EPPR1   30
        31 001061   000000 701000 xent               TSX1    Z8ED$DISPOSE_ABSSYN_TREE
PL6.E3A0      #001=Z8DT$REPORT_REC File=Z8DT.:Z8A6TSI                            SAT 08/09/97 11:22 Page:148
        31 001062   000000 011000                    NOP     0

      556    18857    3          RETURN;

  18857 31 001063   000076 221200 0                  LDX1  ! COLUMN#+1
        31 001064   000001 702211                    TSX2  ! 1,X1

      557    18858    3        END;
      558    18859
      559    18860    2      IF NOT REPORT_DATA.B.ELEMENTARY THEN

  18860 31 001065   000060 236000 0                  LDQ     REPORT_DATA+18
        31 001066   200000 316003                    CANQ    65536,DU
        31 001067   001125 601000 31                 TNZ     s:18900

      560    18861    3        DO;

      561    18862               %CONDITIONAL_ERROR (@LX_ITEM$ = VALUE$,
      562    18863                                   @ERROR#   = %E$ERR_CLAUSE_IN_GROUP_ENTRY,
      563    18864                                   @LINE     = VALUE$ -> LX_ITEM.LINE,
      564    18865                                   @COLUMN   = VALUE$ -> LX_ITEM.COLUMN,
      565    18866                                   @PLUG1    = "DNT$_FROM_RSWNO(%RSV_WRD_VALUE)");

  18876 31 001070   000077 471400 0                  LDP1    VALUE$
        31 001071   100000 236100                    LDQ     0,,PR1
        31 001072   400000 316007                    CANQ    -131072,DL
        31 001073   001114 601000 31                 TNZ     s:18896

  18878 31 001074   000047 236000 32                 LDQ     39
        31 001075   000305 756000 0                  STQ     FIRST_LINE_SHOWN+4
        31 001076   000077 236000 0                  LDQ     VALUE$
        31 001077   000006 036003                    ADLQ    6,DU
        31 001100   000304 756000 0                  STQ     FIRST_LINE_SHOWN+3
        31 001101   000077 236000 0                  LDQ     VALUE$
        31 001102   000005 036003                    ADLQ    5,DU
        31 001103   000040 235000 32                 LDA     32
        31 001104   000302 757000 0                  STAQ    FIRST_LINE_SHOWN+1
PL6.E3A0      #001=Z8DT$REPORT_REC File=Z8DT.:Z8A6TSI                            SAT 08/09/97 11:22 Page:149
        31 001105   000302 630400 0                  EPPR0   FIRST_LINE_SHOWN+1
        31 001106   000011 631400 32                 EPPR1   9
        31 001107   000000 701000 xent               TSX1    Z8AE$ERROR
        31 001110   000000 011000                    NOP     0

  18887 31 001111   000077 470400 0                  LDP0    VALUE$
        31 001112   400000 236007                    LDQ     -131072,DL
        31 001113   000000 256100                    ORSQ    0,,PR0

      566    18896    3          CALL Z8ED$DISPOSE_ABSSYN_TREE(CDECL$ -> LX_REPORT_REC.P.VALUE$);

  18896 31 001114   000032 236000 0                  LDQ     CDECL$
        31 001115   000010 036003                    ADLQ    8,DU
        31 001116   000302 756000 0                  STQ     FIRST_LINE_SHOWN+1
        31 001117   000302 630400 0                  EPPR0   FIRST_LINE_SHOWN+1
        31 001120   000036 631400 32                 EPPR1   30
        31 001121   000000 701000 xent               TSX1    Z8ED$DISPOSE_ABSSYN_TREE
        31 001122   000000 011000                    NOP     0

      567    18897    3          RETURN;

  18897 31 001123   000076 221200 0                  LDX1  ! COLUMN#+1
        31 001124   000001 702211                    TSX2  ! 1,X1

      568    18898    3        END;
      569    18899
      570    18900    3      DO CASE(VALUE$ -> LX_ITEM.SYMBOL);

  18900 31 001125   000077 471400 0                  LDP1    VALUE$
        31 001126   100003 235100                    LDA     3,,PR1
        31 001127   000762 115007                    CMPA    498,DL
        31 001130   001132 602005 31                 TNC     s:18900+5,AL
        31 001131   002272 710000 31                 TRA     s:19063
        31 001132   002272 710000 31                 TRA     s:19063
        31 001133   002272 710000 31                 TRA     s:19063
        31 001134   002211 710000 31                 TRA     s:18982
        31 001135   002236 710000 31                 TRA     s:19024
PL6.E3A0      #001=Z8DT$REPORT_REC File=Z8DT.:Z8A6TSI                            SAT 08/09/97 11:22 Page:150
        31 001136   002236 710000 31                 TRA     s:19024
        31 001137   002272 710000 31                 TRA     s:19063
        31 001140   002272 710000 31                 TRA     s:19063
        31 001141   002272 710000 31                 TRA     s:19063
        31 001142   002272 710000 31                 TRA     s:19063
        31 001143   002272 710000 31                 TRA     s:19063
        31 001144   002272 710000 31                 TRA     s:19063
        31 001145   002272 710000 31                 TRA     s:19063
        31 001146   002272 710000 31                 TRA     s:19063
        31 001147   002272 710000 31                 TRA     s:19063
        31 001150   002272 710000 31                 TRA     s:19063
        31 001151   002272 710000 31                 TRA     s:19063
        31 001152   002272 710000 31                 TRA     s:19063
        31 001153   002272 710000 31                 TRA     s:19063
        31 001154   002272 710000 31                 TRA     s:19063
        31 001155   002272 710000 31                 TRA     s:19063
        31 001156   002272 710000 31                 TRA     s:19063
        31 001157   002211 710000 31                 TRA     s:18982
        31 001160   002114 710000 31                 TRA     s:18904
        31 001161   002272 710000 31                 TRA     s:19063
        31 001162   002272 710000 31                 TRA     s:19063
        31 001163   002272 710000 31                 TRA     s:19063
        31 001164   002272 710000 31                 TRA     s:19063
        31 001165   002272 710000 31                 TRA     s:19063
        31 001166   002272 710000 31                 TRA     s:19063
        31 001167   002272 710000 31                 TRA     s:19063
        31 001170   002272 710000 31                 TRA     s:19063
        31 001171   002272 710000 31                 TRA     s:19063
        31 001172   002272 710000 31                 TRA     s:19063
        31 001173   002272 710000 31                 TRA     s:19063
        31 001174   002272 710000 31                 TRA     s:19063
        31 001175   002272 710000 31                 TRA     s:19063
        31 001176   002272 710000 31                 TRA     s:19063
        31 001177   002272 710000 31                 TRA     s:19063
        31 001200   002272 710000 31                 TRA     s:19063
        31 001201   002272 710000 31                 TRA     s:19063
        31 001202   002272 710000 31                 TRA     s:19063
PL6.E3A0      #001=Z8DT$REPORT_REC File=Z8DT.:Z8A6TSI                            SAT 08/09/97 11:22 Page:151
        31 001203   002272 710000 31                 TRA     s:19063
        31 001204   002272 710000 31                 TRA     s:19063
        31 001205   002272 710000 31                 TRA     s:19063
        31 001206   002272 710000 31                 TRA     s:19063
        31 001207   002272 710000 31                 TRA     s:19063
        31 001210   002272 710000 31                 TRA     s:19063
        31 001211   002272 710000 31                 TRA     s:19063
        31 001212   002272 710000 31                 TRA     s:19063
        31 001213   002272 710000 31                 TRA     s:19063
        31 001214   002272 710000 31                 TRA     s:19063
        31 001215   002272 710000 31                 TRA     s:19063
        31 001216   002272 710000 31                 TRA     s:19063
        31 001217   002272 710000 31                 TRA     s:19063
        31 001220   002272 710000 31                 TRA     s:19063
        31 001221   002272 710000 31                 TRA     s:19063
        31 001222   002272 710000 31                 TRA     s:19063
        31 001223   002272 710000 31                 TRA     s:19063
        31 001224   002272 710000 31                 TRA     s:19063
        31 001225   002272 710000 31                 TRA     s:19063
        31 001226   002272 710000 31                 TRA     s:19063
        31 001227   002272 710000 31                 TRA     s:19063
        31 001230   002272 710000 31                 TRA     s:19063
        31 001231   002272 710000 31                 TRA     s:19063
        31 001232   002272 710000 31                 TRA     s:19063
        31 001233   002272 710000 31                 TRA     s:19063
        31 001234   002272 710000 31                 TRA     s:19063
        31 001235   002272 710000 31                 TRA     s:19063
        31 001236   002272 710000 31                 TRA     s:19063
        31 001237   002272 710000 31                 TRA     s:19063
        31 001240   002272 710000 31                 TRA     s:19063
        31 001241   002272 710000 31                 TRA     s:19063
        31 001242   002272 710000 31                 TRA     s:19063
        31 001243   002272 710000 31                 TRA     s:19063
        31 001244   002272 710000 31                 TRA     s:19063
        31 001245   002272 710000 31                 TRA     s:19063
        31 001246   002272 710000 31                 TRA     s:19063
        31 001247   002272 710000 31                 TRA     s:19063
PL6.E3A0      #001=Z8DT$REPORT_REC File=Z8DT.:Z8A6TSI                            SAT 08/09/97 11:22 Page:152
        31 001250   002272 710000 31                 TRA     s:19063
        31 001251   002272 710000 31                 TRA     s:19063
        31 001252   002272 710000 31                 TRA     s:19063
        31 001253   002272 710000 31                 TRA     s:19063
        31 001254   002272 710000 31                 TRA     s:19063
        31 001255   002272 710000 31                 TRA     s:19063
        31 001256   002272 710000 31                 TRA     s:19063
        31 001257   002272 710000 31                 TRA     s:19063
        31 001260   002272 710000 31                 TRA     s:19063
        31 001261   002272 710000 31                 TRA     s:19063
        31 001262   002272 710000 31                 TRA     s:19063
        31 001263   002272 710000 31                 TRA     s:19063
        31 001264   002272 710000 31                 TRA     s:19063
        31 001265   002272 710000 31                 TRA     s:19063
        31 001266   002272 710000 31                 TRA     s:19063
        31 001267   002272 710000 31                 TRA     s:19063
        31 001270   002272 710000 31                 TRA     s:19063
        31 001271   002272 710000 31                 TRA     s:19063
        31 001272   002272 710000 31                 TRA     s:19063
        31 001273   002272 710000 31                 TRA     s:19063
        31 001274   002272 710000 31                 TRA     s:19063
        31 001275   002272 710000 31                 TRA     s:19063
        31 001276   002272 710000 31                 TRA     s:19063
        31 001277   002272 710000 31                 TRA     s:19063
        31 001300   002272 710000 31                 TRA     s:19063
        31 001301   002272 710000 31                 TRA     s:19063
        31 001302   002272 710000 31                 TRA     s:19063
        31 001303   002272 710000 31                 TRA     s:19063
        31 001304   002272 710000 31                 TRA     s:19063
        31 001305   002272 710000 31                 TRA     s:19063
        31 001306   002272 710000 31                 TRA     s:19063
        31 001307   002272 710000 31                 TRA     s:19063
        31 001310   002272 710000 31                 TRA     s:19063
        31 001311   002272 710000 31                 TRA     s:19063
        31 001312   002272 710000 31                 TRA     s:19063
        31 001313   002272 710000 31                 TRA     s:19063
        31 001314   002272 710000 31                 TRA     s:19063
PL6.E3A0      #001=Z8DT$REPORT_REC File=Z8DT.:Z8A6TSI                            SAT 08/09/97 11:22 Page:153
        31 001315   002272 710000 31                 TRA     s:19063
        31 001316   002272 710000 31                 TRA     s:19063
        31 001317   002272 710000 31                 TRA     s:19063
        31 001320   002272 710000 31                 TRA     s:19063
        31 001321   002272 710000 31                 TRA     s:19063
        31 001322   002272 710000 31                 TRA     s:19063
        31 001323   002272 710000 31                 TRA     s:19063
        31 001324   002272 710000 31                 TRA     s:19063
        31 001325   002272 710000 31                 TRA     s:19063
        31 001326   002272 710000 31                 TRA     s:19063
        31 001327   002272 710000 31                 TRA     s:19063
        31 001330   002272 710000 31                 TRA     s:19063
        31 001331   002272 710000 31                 TRA     s:19063
        31 001332   002272 710000 31                 TRA     s:19063
        31 001333   002272 710000 31                 TRA     s:19063
        31 001334   002272 710000 31                 TRA     s:19063
        31 001335   002272 710000 31                 TRA     s:19063
        31 001336   002272 710000 31                 TRA     s:19063
        31 001337   002272 710000 31                 TRA     s:19063
        31 001340   002272 710000 31                 TRA     s:19063
        31 001341   002272 710000 31                 TRA     s:19063
        31 001342   002272 710000 31                 TRA     s:19063
        31 001343   002272 710000 31                 TRA     s:19063
        31 001344   002272 710000 31                 TRA     s:19063
        31 001345   002272 710000 31                 TRA     s:19063
        31 001346   002272 710000 31                 TRA     s:19063
        31 001347   002272 710000 31                 TRA     s:19063
        31 001350   002272 710000 31                 TRA     s:19063
        31 001351   002272 710000 31                 TRA     s:19063
        31 001352   002272 710000 31                 TRA     s:19063
        31 001353   002272 710000 31                 TRA     s:19063
        31 001354   002272 710000 31                 TRA     s:19063
        31 001355   002272 710000 31                 TRA     s:19063
        31 001356   002272 710000 31                 TRA     s:19063
        31 001357   002272 710000 31                 TRA     s:19063
        31 001360   002272 710000 31                 TRA     s:19063
        31 001361   002272 710000 31                 TRA     s:19063
PL6.E3A0      #001=Z8DT$REPORT_REC File=Z8DT.:Z8A6TSI                            SAT 08/09/97 11:22 Page:154
        31 001362   002272 710000 31                 TRA     s:19063
        31 001363   002272 710000 31                 TRA     s:19063
        31 001364   002272 710000 31                 TRA     s:19063
        31 001365   002272 710000 31                 TRA     s:19063
        31 001366   002272 710000 31                 TRA     s:19063
        31 001367   002272 710000 31                 TRA     s:19063
        31 001370   002272 710000 31                 TRA     s:19063
        31 001371   002272 710000 31                 TRA     s:19063
        31 001372   002272 710000 31                 TRA     s:19063
        31 001373   002272 710000 31                 TRA     s:19063
        31 001374   002272 710000 31                 TRA     s:19063
        31 001375   002272 710000 31                 TRA     s:19063
        31 001376   002272 710000 31                 TRA     s:19063
        31 001377   002272 710000 31                 TRA     s:19063
        31 001400   002272 710000 31                 TRA     s:19063
        31 001401   002272 710000 31                 TRA     s:19063
        31 001402   002272 710000 31                 TRA     s:19063
        31 001403   002272 710000 31                 TRA     s:19063
        31 001404   002272 710000 31                 TRA     s:19063
        31 001405   002272 710000 31                 TRA     s:19063
        31 001406   002272 710000 31                 TRA     s:19063
        31 001407   002272 710000 31                 TRA     s:19063
        31 001410   002272 710000 31                 TRA     s:19063
        31 001411   002272 710000 31                 TRA     s:19063
        31 001412   002272 710000 31                 TRA     s:19063
        31 001413   002272 710000 31                 TRA     s:19063
        31 001414   002272 710000 31                 TRA     s:19063
        31 001415   002272 710000 31                 TRA     s:19063
        31 001416   002272 710000 31                 TRA     s:19063
        31 001417   002272 710000 31                 TRA     s:19063
        31 001420   002272 710000 31                 TRA     s:19063
        31 001421   002272 710000 31                 TRA     s:19063
        31 001422   002272 710000 31                 TRA     s:19063
        31 001423   002272 710000 31                 TRA     s:19063
        31 001424   002272 710000 31                 TRA     s:19063
        31 001425   002272 710000 31                 TRA     s:19063
        31 001426   002272 710000 31                 TRA     s:19063
PL6.E3A0      #001=Z8DT$REPORT_REC File=Z8DT.:Z8A6TSI                            SAT 08/09/97 11:22 Page:155
        31 001427   002272 710000 31                 TRA     s:19063
        31 001430   002272 710000 31                 TRA     s:19063
        31 001431   002272 710000 31                 TRA     s:19063
        31 001432   002272 710000 31                 TRA     s:19063
        31 001433   002272 710000 31                 TRA     s:19063
        31 001434   002272 710000 31                 TRA     s:19063
        31 001435   002272 710000 31                 TRA     s:19063
        31 001436   002272 710000 31                 TRA     s:19063
        31 001437   002272 710000 31                 TRA     s:19063
        31 001440   002272 710000 31                 TRA     s:19063
        31 001441   002272 710000 31                 TRA     s:19063
        31 001442   002272 710000 31                 TRA     s:19063
        31 001443   002272 710000 31                 TRA     s:19063
        31 001444   002272 710000 31                 TRA     s:19063
        31 001445   002272 710000 31                 TRA     s:19063
        31 001446   002272 710000 31                 TRA     s:19063
        31 001447   002272 710000 31                 TRA     s:19063
        31 001450   002272 710000 31                 TRA     s:19063
        31 001451   002272 710000 31                 TRA     s:19063
        31 001452   002272 710000 31                 TRA     s:19063
        31 001453   002272 710000 31                 TRA     s:19063
        31 001454   002272 710000 31                 TRA     s:19063
        31 001455   002272 710000 31                 TRA     s:19063
        31 001456   002272 710000 31                 TRA     s:19063
        31 001457   002272 710000 31                 TRA     s:19063
        31 001460   002272 710000 31                 TRA     s:19063
        31 001461   002272 710000 31                 TRA     s:19063
        31 001462   002272 710000 31                 TRA     s:19063
        31 001463   002272 710000 31                 TRA     s:19063
        31 001464   002272 710000 31                 TRA     s:19063
        31 001465   002272 710000 31                 TRA     s:19063
        31 001466   002272 710000 31                 TRA     s:19063
        31 001467   002272 710000 31                 TRA     s:19063
        31 001470   002272 710000 31                 TRA     s:19063
        31 001471   002272 710000 31                 TRA     s:19063
        31 001472   002272 710000 31                 TRA     s:19063
        31 001473   002272 710000 31                 TRA     s:19063
PL6.E3A0      #001=Z8DT$REPORT_REC File=Z8DT.:Z8A6TSI                            SAT 08/09/97 11:22 Page:156
        31 001474   002272 710000 31                 TRA     s:19063
        31 001475   002272 710000 31                 TRA     s:19063
        31 001476   002272 710000 31                 TRA     s:19063
        31 001477   002272 710000 31                 TRA     s:19063
        31 001500   002272 710000 31                 TRA     s:19063
        31 001501   002272 710000 31                 TRA     s:19063
        31 001502   002272 710000 31                 TRA     s:19063
        31 001503   002236 710000 31                 TRA     s:19024
        31 001504   002272 710000 31                 TRA     s:19063
        31 001505   002272 710000 31                 TRA     s:19063
        31 001506   002272 710000 31                 TRA     s:19063
        31 001507   002272 710000 31                 TRA     s:19063
        31 001510   002272 710000 31                 TRA     s:19063
        31 001511   002272 710000 31                 TRA     s:19063
        31 001512   002272 710000 31                 TRA     s:19063
        31 001513   002272 710000 31                 TRA     s:19063
        31 001514   002272 710000 31                 TRA     s:19063
        31 001515   002272 710000 31                 TRA     s:19063
        31 001516   002272 710000 31                 TRA     s:19063
        31 001517   002272 710000 31                 TRA     s:19063
        31 001520   002272 710000 31                 TRA     s:19063
        31 001521   002272 710000 31                 TRA     s:19063
        31 001522   002272 710000 31                 TRA     s:19063
        31 001523   002272 710000 31                 TRA     s:19063
        31 001524   002272 710000 31                 TRA     s:19063
        31 001525   002272 710000 31                 TRA     s:19063
        31 001526   002272 710000 31                 TRA     s:19063
        31 001527   002272 710000 31                 TRA     s:19063
        31 001530   002272 710000 31                 TRA     s:19063
        31 001531   002272 710000 31                 TRA     s:19063
        31 001532   002272 710000 31                 TRA     s:19063
        31 001533   002272 710000 31                 TRA     s:19063
        31 001534   002272 710000 31                 TRA     s:19063
        31 001535   002272 710000 31                 TRA     s:19063
        31 001536   002272 710000 31                 TRA     s:19063
        31 001537   002272 710000 31                 TRA     s:19063
        31 001540   002272 710000 31                 TRA     s:19063
PL6.E3A0      #001=Z8DT$REPORT_REC File=Z8DT.:Z8A6TSI                            SAT 08/09/97 11:22 Page:157
        31 001541   002272 710000 31                 TRA     s:19063
        31 001542   002272 710000 31                 TRA     s:19063
        31 001543   002272 710000 31                 TRA     s:19063
        31 001544   002272 710000 31                 TRA     s:19063
        31 001545   002272 710000 31                 TRA     s:19063
        31 001546   002272 710000 31                 TRA     s:19063
        31 001547   002272 710000 31                 TRA     s:19063
        31 001550   002272 710000 31                 TRA     s:19063
        31 001551   002272 710000 31                 TRA     s:19063
        31 001552   002272 710000 31                 TRA     s:19063
        31 001553   002272 710000 31                 TRA     s:19063
        31 001554   002272 710000 31                 TRA     s:19063
        31 001555   002272 710000 31                 TRA     s:19063
        31 001556   002272 710000 31                 TRA     s:19063
        31 001557   002272 710000 31                 TRA     s:19063
        31 001560   002272 710000 31                 TRA     s:19063
        31 001561   002272 710000 31                 TRA     s:19063
        31 001562   002272 710000 31                 TRA     s:19063
        31 001563   002272 710000 31                 TRA     s:19063
        31 001564   002272 710000 31                 TRA     s:19063
        31 001565   002236 710000 31                 TRA     s:19024
        31 001566   002272 710000 31                 TRA     s:19063
        31 001567   002272 710000 31                 TRA     s:19063
        31 001570   002272 710000 31                 TRA     s:19063
        31 001571   002272 710000 31                 TRA     s:19063
        31 001572   002272 710000 31                 TRA     s:19063
        31 001573   002272 710000 31                 TRA     s:19063
        31 001574   002272 710000 31                 TRA     s:19063
        31 001575   002272 710000 31                 TRA     s:19063
        31 001576   002272 710000 31                 TRA     s:19063
        31 001577   002272 710000 31                 TRA     s:19063
        31 001600   002272 710000 31                 TRA     s:19063
        31 001601   002272 710000 31                 TRA     s:19063
        31 001602   002272 710000 31                 TRA     s:19063
        31 001603   002272 710000 31                 TRA     s:19063
        31 001604   002272 710000 31                 TRA     s:19063
        31 001605   002272 710000 31                 TRA     s:19063
PL6.E3A0      #001=Z8DT$REPORT_REC File=Z8DT.:Z8A6TSI                            SAT 08/09/97 11:22 Page:158
        31 001606   002272 710000 31                 TRA     s:19063
        31 001607   002272 710000 31                 TRA     s:19063
        31 001610   002272 710000 31                 TRA     s:19063
        31 001611   002272 710000 31                 TRA     s:19063
        31 001612   002272 710000 31                 TRA     s:19063
        31 001613   002272 710000 31                 TRA     s:19063
        31 001614   002272 710000 31                 TRA     s:19063
        31 001615   002272 710000 31                 TRA     s:19063
        31 001616   002272 710000 31                 TRA     s:19063
        31 001617   002272 710000 31                 TRA     s:19063
        31 001620   002272 710000 31                 TRA     s:19063
        31 001621   002272 710000 31                 TRA     s:19063
        31 001622   002272 710000 31                 TRA     s:19063
        31 001623   002272 710000 31                 TRA     s:19063
        31 001624   002272 710000 31                 TRA     s:19063
        31 001625   002272 710000 31                 TRA     s:19063
        31 001626   002272 710000 31                 TRA     s:19063
        31 001627   002272 710000 31                 TRA     s:19063
        31 001630   002272 710000 31                 TRA     s:19063
        31 001631   002272 710000 31                 TRA     s:19063
        31 001632   002272 710000 31                 TRA     s:19063
        31 001633   002272 710000 31                 TRA     s:19063
        31 001634   002272 710000 31                 TRA     s:19063
        31 001635   002272 710000 31                 TRA     s:19063
        31 001636   002272 710000 31                 TRA     s:19063
        31 001637   002272 710000 31                 TRA     s:19063
        31 001640   002272 710000 31                 TRA     s:19063
        31 001641   002272 710000 31                 TRA     s:19063
        31 001642   002272 710000 31                 TRA     s:19063
        31 001643   002272 710000 31                 TRA     s:19063
        31 001644   002272 710000 31                 TRA     s:19063
        31 001645   002272 710000 31                 TRA     s:19063
        31 001646   002272 710000 31                 TRA     s:19063
        31 001647   002272 710000 31                 TRA     s:19063
        31 001650   002272 710000 31                 TRA     s:19063
        31 001651   002272 710000 31                 TRA     s:19063
        31 001652   002272 710000 31                 TRA     s:19063
PL6.E3A0      #001=Z8DT$REPORT_REC File=Z8DT.:Z8A6TSI                            SAT 08/09/97 11:22 Page:159
        31 001653   002272 710000 31                 TRA     s:19063
        31 001654   002272 710000 31                 TRA     s:19063
        31 001655   002272 710000 31                 TRA     s:19063
        31 001656   002272 710000 31                 TRA     s:19063
        31 001657   002272 710000 31                 TRA     s:19063
        31 001660   002272 710000 31                 TRA     s:19063
        31 001661   002272 710000 31                 TRA     s:19063
        31 001662   002272 710000 31                 TRA     s:19063
        31 001663   002272 710000 31                 TRA     s:19063
        31 001664   002272 710000 31                 TRA     s:19063
        31 001665   002272 710000 31                 TRA     s:19063
        31 001666   002272 710000 31                 TRA     s:19063
        31 001667   002272 710000 31                 TRA     s:19063
        31 001670   002272 710000 31                 TRA     s:19063
        31 001671   002272 710000 31                 TRA     s:19063
        31 001672   002272 710000 31                 TRA     s:19063
        31 001673   002272 710000 31                 TRA     s:19063
        31 001674   002272 710000 31                 TRA     s:19063
        31 001675   002236 710000 31                 TRA     s:19024
        31 001676   002272 710000 31                 TRA     s:19063
        31 001677   002272 710000 31                 TRA     s:19063
        31 001700   002272 710000 31                 TRA     s:19063
        31 001701   002272 710000 31                 TRA     s:19063
        31 001702   002272 710000 31                 TRA     s:19063
        31 001703   002272 710000 31                 TRA     s:19063
        31 001704   002272 710000 31                 TRA     s:19063
        31 001705   002272 710000 31                 TRA     s:19063
        31 001706   002272 710000 31                 TRA     s:19063
        31 001707   002272 710000 31                 TRA     s:19063
        31 001710   002272 710000 31                 TRA     s:19063
        31 001711   002272 710000 31                 TRA     s:19063
        31 001712   002272 710000 31                 TRA     s:19063
        31 001713   002272 710000 31                 TRA     s:19063
        31 001714   002272 710000 31                 TRA     s:19063
        31 001715   002272 710000 31                 TRA     s:19063
        31 001716   002272 710000 31                 TRA     s:19063
        31 001717   002272 710000 31                 TRA     s:19063
PL6.E3A0      #001=Z8DT$REPORT_REC File=Z8DT.:Z8A6TSI                            SAT 08/09/97 11:22 Page:160
        31 001720   002272 710000 31                 TRA     s:19063
        31 001721   002272 710000 31                 TRA     s:19063
        31 001722   002272 710000 31                 TRA     s:19063
        31 001723   002272 710000 31                 TRA     s:19063
        31 001724   002272 710000 31                 TRA     s:19063
        31 001725   002272 710000 31                 TRA     s:19063
        31 001726   002272 710000 31                 TRA     s:19063
        31 001727   002272 710000 31                 TRA     s:19063
        31 001730   002272 710000 31                 TRA     s:19063
        31 001731   002272 710000 31                 TRA     s:19063
        31 001732   002272 710000 31                 TRA     s:19063
        31 001733   002272 710000 31                 TRA     s:19063
        31 001734   002272 710000 31                 TRA     s:19063
        31 001735   002272 710000 31                 TRA     s:19063
        31 001736   002272 710000 31                 TRA     s:19063
        31 001737   002272 710000 31                 TRA     s:19063
        31 001740   002272 710000 31                 TRA     s:19063
        31 001741   002272 710000 31                 TRA     s:19063
        31 001742   002272 710000 31                 TRA     s:19063
        31 001743   002272 710000 31                 TRA     s:19063
        31 001744   002272 710000 31                 TRA     s:19063
        31 001745   002272 710000 31                 TRA     s:19063
        31 001746   002272 710000 31                 TRA     s:19063
        31 001747   002272 710000 31                 TRA     s:19063
        31 001750   002272 710000 31                 TRA     s:19063
        31 001751   002272 710000 31                 TRA     s:19063
        31 001752   002272 710000 31                 TRA     s:19063
        31 001753   002272 710000 31                 TRA     s:19063
        31 001754   002272 710000 31                 TRA     s:19063
        31 001755   002272 710000 31                 TRA     s:19063
        31 001756   002272 710000 31                 TRA     s:19063
        31 001757   002272 710000 31                 TRA     s:19063
        31 001760   002272 710000 31                 TRA     s:19063
        31 001761   002272 710000 31                 TRA     s:19063
        31 001762   002272 710000 31                 TRA     s:19063
        31 001763   002272 710000 31                 TRA     s:19063
        31 001764   002272 710000 31                 TRA     s:19063
PL6.E3A0      #001=Z8DT$REPORT_REC File=Z8DT.:Z8A6TSI                            SAT 08/09/97 11:22 Page:161
        31 001765   002272 710000 31                 TRA     s:19063
        31 001766   002272 710000 31                 TRA     s:19063
        31 001767   002272 710000 31                 TRA     s:19063
        31 001770   002272 710000 31                 TRA     s:19063
        31 001771   002272 710000 31                 TRA     s:19063
        31 001772   002272 710000 31                 TRA     s:19063
        31 001773   002272 710000 31                 TRA     s:19063
        31 001774   002272 710000 31                 TRA     s:19063
        31 001775   002272 710000 31                 TRA     s:19063
        31 001776   002272 710000 31                 TRA     s:19063
        31 001777   002272 710000 31                 TRA     s:19063
        31 002000   002272 710000 31                 TRA     s:19063
        31 002001   002272 710000 31                 TRA     s:19063
        31 002002   002236 710000 31                 TRA     s:19024
        31 002003   002272 710000 31                 TRA     s:19063
        31 002004   002272 710000 31                 TRA     s:19063
        31 002005   002272 710000 31                 TRA     s:19063
        31 002006   002272 710000 31                 TRA     s:19063
        31 002007   002272 710000 31                 TRA     s:19063
        31 002010   002272 710000 31                 TRA     s:19063
        31 002011   002272 710000 31                 TRA     s:19063
        31 002012   002272 710000 31                 TRA     s:19063
        31 002013   002272 710000 31                 TRA     s:19063
        31 002014   002272 710000 31                 TRA     s:19063
        31 002015   002272 710000 31                 TRA     s:19063
        31 002016   002272 710000 31                 TRA     s:19063
        31 002017   002272 710000 31                 TRA     s:19063
        31 002020   002272 710000 31                 TRA     s:19063
        31 002021   002272 710000 31                 TRA     s:19063
        31 002022   002272 710000 31                 TRA     s:19063
        31 002023   002272 710000 31                 TRA     s:19063
        31 002024   002272 710000 31                 TRA     s:19063
        31 002025   002272 710000 31                 TRA     s:19063
        31 002026   002272 710000 31                 TRA     s:19063
        31 002027   002272 710000 31                 TRA     s:19063
        31 002030   002272 710000 31                 TRA     s:19063
        31 002031   002272 710000 31                 TRA     s:19063
PL6.E3A0      #001=Z8DT$REPORT_REC File=Z8DT.:Z8A6TSI                            SAT 08/09/97 11:22 Page:162
        31 002032   002272 710000 31                 TRA     s:19063
        31 002033   002272 710000 31                 TRA     s:19063
        31 002034   002272 710000 31                 TRA     s:19063
        31 002035   002272 710000 31                 TRA     s:19063
        31 002036   002272 710000 31                 TRA     s:19063
        31 002037   002272 710000 31                 TRA     s:19063
        31 002040   002272 710000 31                 TRA     s:19063
        31 002041   002272 710000 31                 TRA     s:19063
        31 002042   002272 710000 31                 TRA     s:19063
        31 002043   002272 710000 31                 TRA     s:19063
        31 002044   002272 710000 31                 TRA     s:19063
        31 002045   002272 710000 31                 TRA     s:19063
        31 002046   002272 710000 31                 TRA     s:19063
        31 002047   002272 710000 31                 TRA     s:19063
        31 002050   002272 710000 31                 TRA     s:19063
        31 002051   002272 710000 31                 TRA     s:19063
        31 002052   002272 710000 31                 TRA     s:19063
        31 002053   002272 710000 31                 TRA     s:19063
        31 002054   002272 710000 31                 TRA     s:19063
        31 002055   002272 710000 31                 TRA     s:19063
        31 002056   002272 710000 31                 TRA     s:19063
        31 002057   002272 710000 31                 TRA     s:19063
        31 002060   002272 710000 31                 TRA     s:19063
        31 002061   002272 710000 31                 TRA     s:19063
        31 002062   002272 710000 31                 TRA     s:19063
        31 002063   002272 710000 31                 TRA     s:19063
        31 002064   002272 710000 31                 TRA     s:19063
        31 002065   002272 710000 31                 TRA     s:19063
        31 002066   002272 710000 31                 TRA     s:19063
        31 002067   002272 710000 31                 TRA     s:19063
        31 002070   002272 710000 31                 TRA     s:19063
        31 002071   002272 710000 31                 TRA     s:19063
        31 002072   002272 710000 31                 TRA     s:19063
        31 002073   002272 710000 31                 TRA     s:19063
        31 002074   002272 710000 31                 TRA     s:19063
        31 002075   002272 710000 31                 TRA     s:19063
        31 002076   002272 710000 31                 TRA     s:19063
PL6.E3A0      #001=Z8DT$REPORT_REC File=Z8DT.:Z8A6TSI                            SAT 08/09/97 11:22 Page:163
        31 002077   002272 710000 31                 TRA     s:19063
        31 002100   002272 710000 31                 TRA     s:19063
        31 002101   002272 710000 31                 TRA     s:19063
        31 002102   002272 710000 31                 TRA     s:19063
        31 002103   002272 710000 31                 TRA     s:19063
        31 002104   002272 710000 31                 TRA     s:19063
        31 002105   002272 710000 31                 TRA     s:19063
        31 002106   002272 710000 31                 TRA     s:19063
        31 002107   002272 710000 31                 TRA     s:19063
        31 002110   002272 710000 31                 TRA     s:19063
        31 002111   002272 710000 31                 TRA     s:19063
        31 002112   002272 710000 31                 TRA     s:19063
        31 002113   002305 710000 31                 TRA     s:19067

      571    18901
      572    18902    3        CASE(%NUMERIC_LITERAL);

      573    18903    4            DO;

      574    18904    4              CALL Z8AU$CREATE_NUM_DESC (VALUE$ -> LX_ITEM.DNT$ -> DNT.TEXT.NAME,

  18904 31 002114   100002 473500                    LDP3    2,,PR1
        31 002115   300004 236100                    LDQ     4,,PR3
        31 002116   000022 772000                    QRL     18
        31 002117   000302 756000 0                  STQ     FIRST_LINE_SHOWN+1
        31 002120   000050 236000 32                 LDQ     40
        31 002121   000306 756000 0                  STQ     FIRST_LINE_SHOWN+5
        31 002122   000302 634400 0                  EPPR4   FIRST_LINE_SHOWN+1
        31 002123   000305 454400 0                  STP4    FIRST_LINE_SHOWN+4
        31 002124   000307 453400 0                  STP3    FIRST_LINE_SHOWN+6
        31 002125   000307 236000 0                  LDQ     FIRST_LINE_SHOWN+6
        31 002126   000051 036000 32                 ADLQ    41
        31 002127   000304 756000 0                  STQ     FIRST_LINE_SHOWN+3
        31 002130   000304 630400 0                  EPPR0   FIRST_LINE_SHOWN+3
        31 002131   000006 631400 32                 EPPR1   6
        31 002132   000000 701000 xent               TSX1    Z8AU$CREATE_NUM_DESC
        31 002133   000000 011000                    NOP     0
PL6.E3A0      #001=Z8DT$REPORT_REC File=Z8DT.:Z8A6TSI                            SAT 08/09/97 11:22 Page:164

      575    18905    4                          BINBIT(VALUE$ -> LX_ITEM.DNT$ -> DNT.TEXT.LENGTH,36),
      576    18906    4                          NUM_DESC);
      577    18907
      578    18908    4              IF NUM_DESC.MANTISSA_SIGN_VALUE ~= %NO_SIGN_VALUE THEN

  18908 31 002134   000103 235000 0                  LDA     NUM_DESC+3
        31 002135   002163 600000 31                 TZE     s:18944

      579    18909    4                IF PIC_OUT.EIS_TYPE = %PIC_EIS_NS THEN

  18909 31 002136   000005 220000 28                 LDX0    PIC_OUT+5
        31 002137   000003 100003                    CMPX0   3,DU
        31 002140   002163 601000 31                 TNZ     s:18944

      580    18910                       %CONDITIONAL_ERROR (@LX_ITEM$ = VALUE$,
      581    18911                                           @ERROR#   = %E$PIC_MUST_HAVE_SIGN,
      582    18912                                           @LINE     = VALUE$ -> LX_ITEM.LINE,
      583    18913                                           @COLUMN   = VALUE$ -> LX_ITEM.COLUMN);

  18923 31 002141   000077 470400 0                  LDP0    VALUE$
        31 002142   000000 236100                    LDQ     0,,PR0
        31 002143   400000 316007                    CANQ    -131072,DL
        31 002144   002163 601000 31                 TNZ     s:18944

  18925 31 002145   000077 236000 0                  LDQ     VALUE$
        31 002146   000006 036003                    ADLQ    6,DU
        31 002147   000304 756000 0                  STQ     FIRST_LINE_SHOWN+3
        31 002150   000077 236000 0                  LDQ     VALUE$
        31 002151   000005 036003                    ADLQ    5,DU
        31 002152   000053 235000 32                 LDA     43
        31 002153   000302 757000 0                  STAQ    FIRST_LINE_SHOWN+1
        31 002154   000302 630400 0                  EPPR0   FIRST_LINE_SHOWN+1
        31 002155   000006 631400 32                 EPPR1   6
        31 002156   000000 701000 xent               TSX1    Z8AE$ERROR
        31 002157   000000 011000                    NOP     0

PL6.E3A0      #001=Z8DT$REPORT_REC File=Z8DT.:Z8A6TSI                            SAT 08/09/97 11:22 Page:165
  18934 31 002160   000077 470400 0                  LDP0    VALUE$
        31 002161   400000 236007                    LDQ     -131072,DL
        31 002162   000000 256100                    ORSQ    0,,PR0

      584    18943
      585    18944    4              IF PIC_OUT.TYPE ~= %PIC_TY_N THEN

  18944 31 002163   000002 220000 28                 LDX0    PIC_OUT+2
        31 002164   000005 100003                    CMPX0   5,DU
        31 002165   002305 600000 31                 TZE     s:19067

      586    18945                     %CONDITIONAL_ERROR (@ERROR#   = %E$NUM_CONST_W_ALPHA_ITEM,
      587    18946                                         @LX_ITEM$ = VALUE$,
      588    18947                                         @LINE     = VALUE$ -> LX_ITEM.LINE,
      589    18948                                         @COLUMN   = VALUE$ -> LX_ITEM.COLUMN);

  18958 31 002166   000077 470400 0                  LDP0    VALUE$
        31 002167   000000 236100                    LDQ     0,,PR0
        31 002170   400000 316007                    CANQ    -131072,DL
        31 002171   002305 601000 31                 TNZ     s:19067

  18960 31 002172   000077 236000 0                  LDQ     VALUE$
        31 002173   000006 036003                    ADLQ    6,DU
        31 002174   000304 756000 0                  STQ     FIRST_LINE_SHOWN+3
        31 002175   000077 236000 0                  LDQ     VALUE$
        31 002176   000005 036003                    ADLQ    5,DU
        31 002177   000055 235000 32                 LDA     45
        31 002200   000302 757000 0                  STAQ    FIRST_LINE_SHOWN+1
        31 002201   000302 630400 0                  EPPR0   FIRST_LINE_SHOWN+1
        31 002202   000006 631400 32                 EPPR1   6
        31 002203   000000 701000 xent               TSX1    Z8AE$ERROR
        31 002204   000000 011000                    NOP     0

  18969 31 002205   000077 470400 0                  LDP0    VALUE$
        31 002206   400000 236007                    LDQ     -131072,DL
        31 002207   000000 256100                    ORSQ    0,,PR0

PL6.E3A0      #001=Z8DT$REPORT_REC File=Z8DT.:Z8A6TSI                            SAT 08/09/97 11:22 Page:166
      590    18978    4            END;

  18978 31 002210   002305 710000 31                 TRA     s:19067

      591    18979
      592    18980    3        CASE(%NUMBER, %NUMBER_OR_PARAGRAPH);

      593    18981    4            DO;

      594    18982    4              IF PIC_OUT.TYPE ~= %PIC_TY_N THEN

  18982 31 002211   000002 220000 28                 LDX0    PIC_OUT+2
        31 002212   000005 100003                    CMPX0   5,DU
        31 002213   002305 600000 31                 TZE     s:19067

      595    18983                     %CONDITIONAL_ERROR (@ERROR#   = %E$NUM_CONST_W_ALPHA_ITEM,
      596    18984                                         @LX_ITEM$ = VALUE$,
      597    18985                                         @LINE     = VALUE$ -> LX_ITEM.LINE,
      598    18986                                         @COLUMN   = VALUE$ -> LX_ITEM.COLUMN);

  18996 31 002214   100000 236100                    LDQ     0,,PR1
        31 002215   400000 316007                    CANQ    -131072,DL
        31 002216   002305 601000 31                 TNZ     s:19067

  18998 31 002217   000077 236000 0                  LDQ     VALUE$
        31 002220   000006 036003                    ADLQ    6,DU
        31 002221   000304 756000 0                  STQ     FIRST_LINE_SHOWN+3
        31 002222   000077 236000 0                  LDQ     VALUE$
        31 002223   000005 036003                    ADLQ    5,DU
        31 002224   000055 235000 32                 LDA     45
        31 002225   000302 757000 0                  STAQ    FIRST_LINE_SHOWN+1
        31 002226   000302 630400 0                  EPPR0   FIRST_LINE_SHOWN+1
        31 002227   000006 631400 32                 EPPR1   6
        31 002230   000000 701000 xent               TSX1    Z8AE$ERROR
        31 002231   000000 011000                    NOP     0

  19007 31 002232   000077 470400 0                  LDP0    VALUE$
PL6.E3A0      #001=Z8DT$REPORT_REC File=Z8DT.:Z8A6TSI                            SAT 08/09/97 11:22 Page:167
        31 002233   400000 236007                    LDQ     -131072,DL
        31 002234   000000 256100                    ORSQ    0,,PR0

      599    19016    4            END;

  19016 31 002235   002305 710000 31                 TRA     s:19067

      600    19017
      601    19018    3        CASE(%RSV_WRD_ZEROES);

      602    19019               /* Peachy */
      603    19020    3      ;
      604    19021    3        CASE(%ALPHA_LITERAL,     %RSV_WRD_HIGH_VALUES,

      605    19022    3             %RSV_WRD_SPACES,    %RSV_WRD_LOW_VALUES,
      606    19023    3             %RSV_WRD_QUOTES,    %SINGLE_QUOTE);
      607    19024    3           IF PIC_OUT.TYPE = %PIC_TY_N THEN

  19024 31 002236   000002 220000 28                 LDX0    PIC_OUT+2
        31 002237   000005 100003                    CMPX0   5,DU
        31 002240   002305 601000 31                 TNZ     s:19067

      608    19025    4            DO;

      609    19026                   %CONDITIONAL_ERROR (@ERROR#   = %E$ILLEGAL_CHARS_IN_VALUE,
      610    19027                                       @LX_ITEM$ = VALUE$,
      611    19028                                       @LINE     = VALUE$ -> LX_ITEM.LINE,
      612    19029                                       @COLUMN   = VALUE$ -> LX_ITEM.COLUMN);

  19039 31 002241   100000 236100                    LDQ     0,,PR1
        31 002242   400000 316007                    CANQ    -131072,DL
        31 002243   002262 601000 31                 TNZ     s:19059

  19041 31 002244   000077 236000 0                  LDQ     VALUE$
        31 002245   000006 036003                    ADLQ    6,DU
        31 002246   000304 756000 0                  STQ     FIRST_LINE_SHOWN+3
        31 002247   000077 236000 0                  LDQ     VALUE$
PL6.E3A0      #001=Z8DT$REPORT_REC File=Z8DT.:Z8A6TSI                            SAT 08/09/97 11:22 Page:168
        31 002250   000005 036003                    ADLQ    5,DU
        31 002251   000057 235000 32                 LDA     47
        31 002252   000302 757000 0                  STAQ    FIRST_LINE_SHOWN+1
        31 002253   000302 630400 0                  EPPR0   FIRST_LINE_SHOWN+1
        31 002254   000006 631400 32                 EPPR1   6
        31 002255   000000 701000 xent               TSX1    Z8AE$ERROR
        31 002256   000000 011000                    NOP     0

  19050 31 002257   000077 470400 0                  LDP0    VALUE$
        31 002260   400000 236007                    LDQ     -131072,DL
        31 002261   000000 256100                    ORSQ    0,,PR0

      613    19059    4              CALL Z8ED$DISPOSE_ABSSYN_TREE (CDECL$ -> LX_REPORT_REC.P.VALUE$);

  19059 31 002262   000032 236000 0                  LDQ     CDECL$
        31 002263   000010 036003                    ADLQ    8,DU
        31 002264   000302 756000 0                  STQ     FIRST_LINE_SHOWN+1
        31 002265   000302 630400 0                  EPPR0   FIRST_LINE_SHOWN+1
        31 002266   000036 631400 32                 EPPR1   30
        31 002267   000000 701000 xent               TSX1    Z8ED$DISPOSE_ABSSYN_TREE
        31 002270   000000 011000                    NOP     0

      614    19060    4            END; /* END DO */

  19060 31 002271   002305 710000 31                 TRA     s:19067

      615    19061
      616    19062    3        CASE(ELSE);

      617    19063    3          CALL Z8AE$ERROR (%E$UNEXPECTED_CASE);

  19063 31 002272   000061 630400 32                 EPPR0   49
        31 002273   000036 631400 32                 EPPR1   30
        31 002274   000000 701000 xent               TSX1    Z8AE$ERROR
        31 002275   000000 011000                    NOP     0

      618    19064    3          CALL Z8ED$DISPOSE_ABSSYN_TREE (CDECL$ -> LX_REPORT_REC.P.VALUE$);
PL6.E3A0      #001=Z8DT$REPORT_REC File=Z8DT.:Z8A6TSI                            SAT 08/09/97 11:22 Page:169

  19064 31 002276   000032 236000 0                  LDQ     CDECL$
        31 002277   000010 036003                    ADLQ    8,DU
        31 002300   000302 756000 0                  STQ     FIRST_LINE_SHOWN+1
        31 002301   000302 630400 0                  EPPR0   FIRST_LINE_SHOWN+1
        31 002302   000036 631400 32                 EPPR1   30
        31 002303   000000 701000 xent               TSX1    Z8ED$DISPOSE_ABSSYN_TREE
        31 002304   000000 011000                    NOP     0

      619    19065
      620    19066    3      END; /* Case */

      621    19067    2     END VALIDATE_VALUE;

  19067 31 002305   000076 221200 0                  LDX1  ! COLUMN#+1
        31 002306   000001 702211                    TSX2  ! 1,X1

      622    19068          %EJECT;
PL6.E3A0      #001=Z8DT$REPORT_REC File=Z8DT.:Z8A6TSI                            SAT 08/09/97 11:22 Page:170
      623    19069
      624    19070        /*==============*/
      625    19071    1     VALIDATE_BLANK: PROC;

  19071 31 002307   000106 741200 0     VALIDATE_BL* STX1  ! NUM_DESC+6

      626    19072        /*==============*/
      627    19073
      628    19074         /*
      629    19075              NAME: VALIDATE_BLANK
      630    19076
      631    19077           DESCRIPTION: BLANK WHEN ZERO clause is validated here.
      632    19078
      633    19079          */
      634    19080
      635    19081
      636    19082    2   DCL BLANK$                    PTR;
      637    19083
      638    19084
      639    19085
      640    19086    2      BLANK$ = CDECL$ -> LX_REPORT_REC.P.BLANK$;

  19086 31 002310   000032 470400 0                  LDP0    CDECL$
        31 002311   000012 236100                    LDQ     10,,PR0
        31 002312   000107 756000 0                  STQ     BLANK$

      641    19087
      642    19088    2      IF REPORT_DATA.LEVEL.CURRENT = %LEVEL_01 THEN

  19088 31 002313   000036 235000 0                  LDA     REPORT_DATA
        31 002314   000001 115007                    CMPA    1,DL
        31 002315   002353 601000 31                 TNZ     s:19128

      643    19089    3        DO;

      644    19090               %CONDITIONAL_ERROR (@LX_ITEM$ = BLANK$,
      645    19091                                   @ERROR#   = %E$ERR_CLAUSE_IN_REP_01_ENTRY,
PL6.E3A0      #001=Z8DT$REPORT_REC File=Z8DT.:Z8A6TSI                            SAT 08/09/97 11:22 Page:171
      646    19092                                   @LINE     = BLANK$ -> LX_ITEM.LINE,
      647    19093                                   @COLUMN   = BLANK$ -> LX_ITEM.COLUMN,
      648    19094                                   @PLUG1    = "DNT$_FROM_RSWNO(%RSV_WRD_BLANK)");

  19104 31 002316   000107 471400 0                  LDP1    BLANK$
        31 002317   100000 236100                    LDQ     0,,PR1
        31 002320   400000 316007                    CANQ    -131072,DL
        31 002321   002342 601000 31                 TNZ     s:19124

  19106 31 002322   000062 236000 32                 LDQ     50
        31 002323   000305 756000 0                  STQ     FIRST_LINE_SHOWN+4
        31 002324   000107 236000 0                  LDQ     BLANK$
        31 002325   000006 036003                    ADLQ    6,DU
        31 002326   000304 756000 0                  STQ     FIRST_LINE_SHOWN+3
        31 002327   000107 236000 0                  LDQ     BLANK$
        31 002330   000005 036003                    ADLQ    5,DU
        31 002331   000035 235000 32                 LDA     29
        31 002332   000302 757000 0                  STAQ    FIRST_LINE_SHOWN+1
        31 002333   000302 630400 0                  EPPR0   FIRST_LINE_SHOWN+1
        31 002334   000011 631400 32                 EPPR1   9
        31 002335   000000 701000 xent               TSX1    Z8AE$ERROR
        31 002336   000000 011000                    NOP     0

  19115 31 002337   000107 470400 0                  LDP0    BLANK$
        31 002340   400000 236007                    LDQ     -131072,DL
        31 002341   000000 256100                    ORSQ    0,,PR0

      649    19124    3          CALL Z8ED$DISPOSE_ABSSYN_TREE(CDECL$ -> LX_REPORT_REC.P.BLANK$);

  19124 31 002342   000032 236000 0                  LDQ     CDECL$
        31 002343   000012 036003                    ADLQ    10,DU
        31 002344   000302 756000 0                  STQ     FIRST_LINE_SHOWN+1
        31 002345   000302 630400 0                  EPPR0   FIRST_LINE_SHOWN+1
        31 002346   000036 631400 32                 EPPR1   30
        31 002347   000000 701000 xent               TSX1    Z8ED$DISPOSE_ABSSYN_TREE
        31 002350   000000 011000                    NOP     0

PL6.E3A0      #001=Z8DT$REPORT_REC File=Z8DT.:Z8A6TSI                            SAT 08/09/97 11:22 Page:172
      650    19125    3          RETURN;

  19125 31 002351   000106 221200 0                  LDX1  ! NUM_DESC+6
        31 002352   000001 702211                    TSX2  ! 1,X1

      651    19126    3        END;
      652    19127
      653    19128    2      IF NOT REPORT_DATA.B.ELEMENTARY THEN

  19128 31 002353   000060 236000 0                  LDQ     REPORT_DATA+18
        31 002354   200000 316003                    CANQ    65536,DU
        31 002355   002413 601000 31                 TNZ     s:19168

      654    19129    3        DO;

      655    19130               %CONDITIONAL_ERROR (@LX_ITEM$ = BLANK$,
      656    19131                                   @ERROR#   = %E$ERR_CLAUSE_IN_GROUP_ENTRY,
      657    19132                                   @LINE     = BLANK$ -> LX_ITEM.LINE,
      658    19133                                   @COLUMN   = BLANK$ -> LX_ITEM.COLUMN,
      659    19134                                   @PLUG1    = "DNT$_FROM_RSWNO(%RSV_WRD_BLANK)");

  19144 31 002356   000107 471400 0                  LDP1    BLANK$
        31 002357   100000 236100                    LDQ     0,,PR1
        31 002360   400000 316007                    CANQ    -131072,DL
        31 002361   002402 601000 31                 TNZ     s:19164

  19146 31 002362   000062 236000 32                 LDQ     50
        31 002363   000305 756000 0                  STQ     FIRST_LINE_SHOWN+4
        31 002364   000107 236000 0                  LDQ     BLANK$
        31 002365   000006 036003                    ADLQ    6,DU
        31 002366   000304 756000 0                  STQ     FIRST_LINE_SHOWN+3
        31 002367   000107 236000 0                  LDQ     BLANK$
        31 002370   000005 036003                    ADLQ    5,DU
        31 002371   000040 235000 32                 LDA     32
        31 002372   000302 757000 0                  STAQ    FIRST_LINE_SHOWN+1
        31 002373   000302 630400 0                  EPPR0   FIRST_LINE_SHOWN+1
        31 002374   000011 631400 32                 EPPR1   9
PL6.E3A0      #001=Z8DT$REPORT_REC File=Z8DT.:Z8A6TSI                            SAT 08/09/97 11:22 Page:173
        31 002375   000000 701000 xent               TSX1    Z8AE$ERROR
        31 002376   000000 011000                    NOP     0

  19155 31 002377   000107 470400 0                  LDP0    BLANK$
        31 002400   400000 236007                    LDQ     -131072,DL
        31 002401   000000 256100                    ORSQ    0,,PR0

      660    19164    3          CALL Z8ED$DISPOSE_ABSSYN_TREE(CDECL$ -> LX_REPORT_REC.P.BLANK$);

  19164 31 002402   000032 236000 0                  LDQ     CDECL$
        31 002403   000012 036003                    ADLQ    10,DU
        31 002404   000302 756000 0                  STQ     FIRST_LINE_SHOWN+1
        31 002405   000302 630400 0                  EPPR0   FIRST_LINE_SHOWN+1
        31 002406   000036 631400 32                 EPPR1   30
        31 002407   000000 701000 xent               TSX1    Z8ED$DISPOSE_ABSSYN_TREE
        31 002410   000000 011000                    NOP     0

      661    19165    3          RETURN;

  19165 31 002411   000106 221200 0                  LDX1  ! NUM_DESC+6
        31 002412   000001 702211                    TSX2  ! 1,X1

      662    19166    3        END;
      663    19167
      664    19168    2      IF PIC_OUT.TYPE = %PIC_TY_N THEN

  19168 31 002413   000002 220000 28                 LDX0    PIC_OUT+2
        31 002414   000005 100003                    CMPX0   5,DU
        31 002415   002421 601000 31                 TNZ     s:19171

      665    19169    2        PIC_OUT.TYPE = %PIC_TY_NE;

  19169 31 002416   000006 222003                    LDX2    6,DU
        31 002417   000002 742000 28                 STX2    PIC_OUT+2
        31 002420   002445 710000 31                 TRA     s:19180

      666    19170    2      ELSE
PL6.E3A0      #001=Z8DT$REPORT_REC File=Z8DT.:Z8A6TSI                            SAT 08/09/97 11:22 Page:174
      667    19171    2        IF PIC_OUT.TYPE ~= %PIC_TY_NE THEN

  19171 31 002421   000006 100003                    CMPX0   6,DU
        31 002422   002445 600000 31                 TZE     s:19180

      668    19172    3          DO;

      669    19173    3            CALL Z8AE$ERROR (%E$BWZ_MUST_BE_DISPLAY,

  19173 31 002423   000107 236000 0                  LDQ     BLANK$
        31 002424   000006 036003                    ADLQ    6,DU
        31 002425   000304 756000 0                  STQ     FIRST_LINE_SHOWN+3
        31 002426   000107 236000 0                  LDQ     BLANK$
        31 002427   000005 036003                    ADLQ    5,DU
        31 002430   000064 235000 32                 LDA     52
        31 002431   000302 757000 0                  STAQ    FIRST_LINE_SHOWN+1
        31 002432   000302 630400 0                  EPPR0   FIRST_LINE_SHOWN+1
        31 002433   000006 631400 32                 EPPR1   6
        31 002434   000000 701000 xent               TSX1    Z8AE$ERROR
        31 002435   000000 011000                    NOP     0

      670    19174    3                             BLANK$ -> LX_ITEM.LINE,
      671    19175    3                             BLANK$ -> LX_ITEM.COLUMN);
      672    19176    3            CALL Z8ED$DISPOSE_ABSSYN_TREE (CDECL$ -> LX_REPORT_REC.P.BLANK$);

  19176 31 002436   000032 236000 0                  LDQ     CDECL$
        31 002437   000012 036003                    ADLQ    10,DU
        31 002440   000302 756000 0                  STQ     FIRST_LINE_SHOWN+1
        31 002441   000302 630400 0                  EPPR0   FIRST_LINE_SHOWN+1
        31 002442   000036 631400 32                 EPPR1   30
        31 002443   000000 701000 xent               TSX1    Z8ED$DISPOSE_ABSSYN_TREE
        31 002444   000000 011000                    NOP     0

      673    19177    3          END;

      674    19178
      675    19179
PL6.E3A0      #001=Z8DT$REPORT_REC File=Z8DT.:Z8A6TSI                            SAT 08/09/97 11:22 Page:175
      676    19180    2     END VALIDATE_BLANK;

  19180 31 002445   000106 221200 0                  LDX1  ! NUM_DESC+6
        31 002446   000001 702211                    TSX2  ! 1,X1

      677    19181          %EJECT;
PL6.E3A0      #001=Z8DT$REPORT_REC File=Z8DT.:Z8A6TSI                            SAT 08/09/97 11:22 Page:176
      678    19182
      679    19183        /*==================*/
      680    19184    1     VALIDATE_JUSTIFIED: PROC;

  19184 31 002447   000110 741200 0     VALIDATE_JU* STX1  ! BLANK$+1

      681    19185        /*==================*/
      682    19186
      683    19187         /*
      684    19188              NAME: VALIDATE_JUSTIFIED
      685    19189
      686    19190           DESCRIPTION: JUSTIFIED clause is validated here.
      687    19191
      688    19192          */
      689    19193
      690    19194
      691    19195    2   DCL JUSTIFIED$                    PTR;
      692    19196
      693    19197
      694    19198
      695    19199    2      JUSTIFIED$ = CDECL$ -> LX_REPORT_REC.P.JUSTIFIED$;

  19199 31 002450   000032 470400 0                  LDP0    CDECL$
        31 002451   000014 236100                    LDQ     12,,PR0
        31 002452   000111 756000 0                  STQ     JUSTIFIED$

      696    19200
      697    19201    2      IF REPORT_DATA.LEVEL.CURRENT = %LEVEL_01 THEN

  19201 31 002453   000036 235000 0                  LDA     REPORT_DATA
        31 002454   000001 115007                    CMPA    1,DL
        31 002455   002513 601000 31                 TNZ     s:19241

      698    19202    3        DO;

      699    19203               %CONDITIONAL_ERROR (@LX_ITEM$ = JUSTIFIED$,
      700    19204                                   @ERROR#   = %E$ERR_CLAUSE_IN_REP_01_ENTRY,
PL6.E3A0      #001=Z8DT$REPORT_REC File=Z8DT.:Z8A6TSI                            SAT 08/09/97 11:22 Page:177
      701    19205                                   @LINE     = JUSTIFIED$ -> LX_ITEM.LINE,
      702    19206                                   @COLUMN   = JUSTIFIED$ -> LX_ITEM.COLUMN,
      703    19207                                   @PLUG1    = "DNT$_FROM_RSWNO(%RSV_WRD_JUSTIFIED)");

  19217 31 002456   000111 471400 0                  LDP1    JUSTIFIED$
        31 002457   100000 236100                    LDQ     0,,PR1
        31 002460   400000 316007                    CANQ    -131072,DL
        31 002461   002502 601000 31                 TNZ     s:19237

  19219 31 002462   000065 236000 32                 LDQ     53
        31 002463   000305 756000 0                  STQ     FIRST_LINE_SHOWN+4
        31 002464   000111 236000 0                  LDQ     JUSTIFIED$
        31 002465   000006 036003                    ADLQ    6,DU
        31 002466   000304 756000 0                  STQ     FIRST_LINE_SHOWN+3
        31 002467   000111 236000 0                  LDQ     JUSTIFIED$
        31 002470   000005 036003                    ADLQ    5,DU
        31 002471   000035 235000 32                 LDA     29
        31 002472   000302 757000 0                  STAQ    FIRST_LINE_SHOWN+1
        31 002473   000302 630400 0                  EPPR0   FIRST_LINE_SHOWN+1
        31 002474   000011 631400 32                 EPPR1   9
        31 002475   000000 701000 xent               TSX1    Z8AE$ERROR
        31 002476   000000 011000                    NOP     0

  19228 31 002477   000111 470400 0                  LDP0    JUSTIFIED$
        31 002500   400000 236007                    LDQ     -131072,DL
        31 002501   000000 256100                    ORSQ    0,,PR0

      704    19237    3          CALL Z8ED$DISPOSE_ABSSYN_TREE(CDECL$ -> LX_REPORT_REC.P.JUSTIFIED$);

  19237 31 002502   000032 236000 0                  LDQ     CDECL$
        31 002503   000014 036003                    ADLQ    12,DU
        31 002504   000302 756000 0                  STQ     FIRST_LINE_SHOWN+1
        31 002505   000302 630400 0                  EPPR0   FIRST_LINE_SHOWN+1
        31 002506   000036 631400 32                 EPPR1   30
        31 002507   000000 701000 xent               TSX1    Z8ED$DISPOSE_ABSSYN_TREE
        31 002510   000000 011000                    NOP     0

PL6.E3A0      #001=Z8DT$REPORT_REC File=Z8DT.:Z8A6TSI                            SAT 08/09/97 11:22 Page:178
      705    19238    3          RETURN;

  19238 31 002511   000110 221200 0                  LDX1  ! BLANK$+1
        31 002512   000001 702211                    TSX2  ! 1,X1

      706    19239    3        END;
      707    19240
      708    19241    2      IF NOT REPORT_DATA.B.ELEMENTARY THEN

  19241 31 002513   000060 236000 0                  LDQ     REPORT_DATA+18
        31 002514   200000 316003                    CANQ    65536,DU
        31 002515   002553 601000 31                 TNZ     s:19281

      709    19242    3        DO;

      710    19243               %CONDITIONAL_ERROR (@LX_ITEM$ = JUSTIFIED$,
      711    19244                                   @ERROR#   = %E$ERR_CLAUSE_IN_GROUP_ENTRY,
      712    19245                                   @LINE     = JUSTIFIED$ -> LX_ITEM.LINE,
      713    19246                                   @COLUMN   = JUSTIFIED$ -> LX_ITEM.COLUMN,
      714    19247                                   @PLUG1    = "DNT$_FROM_RSWNO(%RSV_WRD_JUSTIFIED)");

  19257 31 002516   000111 471400 0                  LDP1    JUSTIFIED$
        31 002517   100000 236100                    LDQ     0,,PR1
        31 002520   400000 316007                    CANQ    -131072,DL
        31 002521   002542 601000 31                 TNZ     s:19277

  19259 31 002522   000065 236000 32                 LDQ     53
        31 002523   000305 756000 0                  STQ     FIRST_LINE_SHOWN+4
        31 002524   000111 236000 0                  LDQ     JUSTIFIED$
        31 002525   000006 036003                    ADLQ    6,DU
        31 002526   000304 756000 0                  STQ     FIRST_LINE_SHOWN+3
        31 002527   000111 236000 0                  LDQ     JUSTIFIED$
        31 002530   000005 036003                    ADLQ    5,DU
        31 002531   000040 235000 32                 LDA     32
        31 002532   000302 757000 0                  STAQ    FIRST_LINE_SHOWN+1
        31 002533   000302 630400 0                  EPPR0   FIRST_LINE_SHOWN+1
        31 002534   000011 631400 32                 EPPR1   9
PL6.E3A0      #001=Z8DT$REPORT_REC File=Z8DT.:Z8A6TSI                            SAT 08/09/97 11:22 Page:179
        31 002535   000000 701000 xent               TSX1    Z8AE$ERROR
        31 002536   000000 011000                    NOP     0

  19268 31 002537   000111 470400 0                  LDP0    JUSTIFIED$
        31 002540   400000 236007                    LDQ     -131072,DL
        31 002541   000000 256100                    ORSQ    0,,PR0

      715    19277    3          CALL Z8ED$DISPOSE_ABSSYN_TREE(CDECL$ -> LX_REPORT_REC.P.JUSTIFIED$);

  19277 31 002542   000032 236000 0                  LDQ     CDECL$
        31 002543   000014 036003                    ADLQ    12,DU
        31 002544   000302 756000 0                  STQ     FIRST_LINE_SHOWN+1
        31 002545   000302 630400 0                  EPPR0   FIRST_LINE_SHOWN+1
        31 002546   000036 631400 32                 EPPR1   30
        31 002547   000000 701000 xent               TSX1    Z8ED$DISPOSE_ABSSYN_TREE
        31 002550   000000 011000                    NOP     0

      716    19278    3          RETURN;

  19278 31 002551   000110 221200 0                  LDX1  ! BLANK$+1
        31 002552   000001 702211                    TSX2  ! 1,X1

      717    19279    3        END;
      718    19280
      719    19281    2      IF PIC_OUT.TYPE ~= %PIC_TY_A  AND

  19281 31 002553   000002 220000 28                 LDX0    PIC_OUT+2
        31 002554   000002 100003                    CMPX0   2,DU
        31 002555   002615 600000 31                 TZE     s:19322
        31 002556   000001 100003                    CMPX0   1,DU
        31 002557   002615 600000 31                 TZE     s:19322
        31 002560   000003 100003                    CMPX0   3,DU
        31 002561   002615 600000 31                 TZE     s:19322

      720    19282    2         PIC_OUT.TYPE ~= %PIC_TY_K  AND
      721    19283    2         PIC_OUT.TYPE ~= %PIC_TY_AN THEN
      722    19284    3        DO;
PL6.E3A0      #001=Z8DT$REPORT_REC File=Z8DT.:Z8A6TSI                            SAT 08/09/97 11:22 Page:180

      723    19285               %CONDITIONAL_ERROR (@LX_ITEM$ = JUSTIFIED$,
      724    19286                                   @ERROR#   = %E$JUSTIFIED_NOT_ON_ALPHA,
      725    19287                                   @LINE     = JUSTIFIED$ -> LX_ITEM.LINE,
      726    19288                                   @COLUMN   = JUSTIFIED$ -> LX_ITEM.COLUMN);

  19298 31 002562   000111 471400 0                  LDP1    JUSTIFIED$
        31 002563   100000 236100                    LDQ     0,,PR1
        31 002564   400000 316007                    CANQ    -131072,DL
        31 002565   002604 601000 31                 TNZ     s:19318

  19300 31 002566   000111 236000 0                  LDQ     JUSTIFIED$
        31 002567   000006 036003                    ADLQ    6,DU
        31 002570   000304 756000 0                  STQ     FIRST_LINE_SHOWN+3
        31 002571   000111 236000 0                  LDQ     JUSTIFIED$
        31 002572   000005 036003                    ADLQ    5,DU
        31 002573   000067 235000 32                 LDA     55
        31 002574   000302 757000 0                  STAQ    FIRST_LINE_SHOWN+1
        31 002575   000302 630400 0                  EPPR0   FIRST_LINE_SHOWN+1
        31 002576   000006 631400 32                 EPPR1   6
        31 002577   000000 701000 xent               TSX1    Z8AE$ERROR
        31 002600   000000 011000                    NOP     0

  19309 31 002601   000111 470400 0                  LDP0    JUSTIFIED$
        31 002602   400000 236007                    LDQ     -131072,DL
        31 002603   000000 256100                    ORSQ    0,,PR0

      727    19318    3          CALL Z8ED$DISPOSE_ABSSYN_TREE(CDECL$ -> LX_REPORT_REC.P.JUSTIFIED$);

  19318 31 002604   000032 236000 0                  LDQ     CDECL$
        31 002605   000014 036003                    ADLQ    12,DU
        31 002606   000302 756000 0                  STQ     FIRST_LINE_SHOWN+1
        31 002607   000302 630400 0                  EPPR0   FIRST_LINE_SHOWN+1
        31 002610   000036 631400 32                 EPPR1   30
        31 002611   000000 701000 xent               TSX1    Z8ED$DISPOSE_ABSSYN_TREE
        31 002612   000000 011000                    NOP     0

PL6.E3A0      #001=Z8DT$REPORT_REC File=Z8DT.:Z8A6TSI                            SAT 08/09/97 11:22 Page:181
      728    19319    3          RETURN;

  19319 31 002613   000110 221200 0                  LDX1  ! BLANK$+1
        31 002614   000001 702211                    TSX2  ! 1,X1

      729    19320    3        END;
      730    19321
      731    19322    2        REPORT_DATA.B.JUSTIFIED = TRUE;

  19322 31 002615   020000 236003                    LDQ     8192,DU
        31 002616   000060 256000 0                  ORSQ    REPORT_DATA+18

      732    19323
      733    19324    2     END VALIDATE_JUSTIFIED;

  19324 31 002617   000001 702211                    TSX2  ! 1,X1

      734    19325          %EJECT;
PL6.E3A0      #001=Z8DT$REPORT_REC File=Z8DT.:Z8A6TSI                            SAT 08/09/97 11:22 Page:182
      735    19326
      736    19327        /*===============*/
      737    19328    1     VALIDATE_COLUMN: PROC;

  19328 31 002620   000112 741200 0     VALIDATE_CO* STX1  ! JUSTIFIED$+1

      738    19329        /*===============*/
      739    19330
      740    19331         /*
      741    19332              NAME: VALIDATE_COLUMN
      742    19333
      743    19334           DESCRIPTION: The COLUMN clause is validated here.
      744    19335
      745    19336          */
      746    19337
      747    19338
      748    19339    2   DCL COLUMN_NUMBER$                    PTR;
      749    19340    2   DCL LINE_PRESENTED             BOOLEAN;
      750    19341    2   DCL LAST_POS                   SBIN WORD;
      751    19342    2   DCL LTS$$                      PTR;
      752    19343    2   DCL PREV_LTS$                  PTR;
      753    19344    2   DCL PREV_LINE                  SBIN WORD;
      754    19345    2   DCL CURRENT_LINE               SBIN WORD;
      755    19346    2   DCL NEXT_LTS$                  PTR;
      756    19347
      757    19348
      758    19349
      759    19350
      760    19351    2      COLUMN_NUMBER$ = CDECL$ -> LX_REPORT_REC.P.COLUMN_NUMBER$;

  19351 31 002621   000032 470400 0                  LDP0    CDECL$
        31 002622   000017 236100                    LDQ     15,,PR0
        31 002623   000113 756000 0                  STQ     COLUMN_NUMBER$

      761    19352
      762    19353    2      IF REPORT_DATA.LEVEL.CURRENT = %LEVEL_01 THEN

PL6.E3A0      #001=Z8DT$REPORT_REC File=Z8DT.:Z8A6TSI                            SAT 08/09/97 11:22 Page:183
  19353 31 002624   000036 235000 0                  LDA     REPORT_DATA
        31 002625   000001 115007                    CMPA    1,DL
        31 002626   002664 601000 31                 TNZ     s:19393

      763    19354    3        DO;

      764    19355               %CONDITIONAL_ERROR (@LX_ITEM$ = COLUMN_NUMBER$,
      765    19356                                   @ERROR#   = %E$ERR_CLAUSE_IN_REP_01_ENTRY,
      766    19357                                   @LINE     = COLUMN_NUMBER$ -> LX_ITEM.LINE,
      767    19358                                   @COLUMN   = COLUMN_NUMBER$ -> LX_ITEM.COLUMN,
      768    19359                                   @PLUG1    = "DNT$_FROM_RSWNO(%RSV_WRD_COLUMN)");

  19369 31 002627   000113 471400 0                  LDP1    COLUMN_NUMBER$
        31 002630   100000 236100                    LDQ     0,,PR1
        31 002631   400000 316007                    CANQ    -131072,DL
        31 002632   002653 601000 31                 TNZ     s:19389

  19371 31 002633   000070 236000 32                 LDQ     56
        31 002634   000305 756000 0                  STQ     FIRST_LINE_SHOWN+4
        31 002635   000113 236000 0                  LDQ     COLUMN_NUMBER$
        31 002636   000006 036003                    ADLQ    6,DU
        31 002637   000304 756000 0                  STQ     FIRST_LINE_SHOWN+3
        31 002640   000113 236000 0                  LDQ     COLUMN_NUMBER$
        31 002641   000005 036003                    ADLQ    5,DU
        31 002642   000035 235000 32                 LDA     29
        31 002643   000302 757000 0                  STAQ    FIRST_LINE_SHOWN+1
        31 002644   000302 630400 0                  EPPR0   FIRST_LINE_SHOWN+1
        31 002645   000011 631400 32                 EPPR1   9
        31 002646   000000 701000 xent               TSX1    Z8AE$ERROR
        31 002647   000000 011000                    NOP     0

  19380 31 002650   000113 470400 0                  LDP0    COLUMN_NUMBER$
        31 002651   400000 236007                    LDQ     -131072,DL
        31 002652   000000 256100                    ORSQ    0,,PR0

      769    19389    3          CALL Z8ED$DISPOSE_ABSSYN_TREE(CDECL$ -> LX_REPORT_REC.P.COLUMN_NUMBER$);

PL6.E3A0      #001=Z8DT$REPORT_REC File=Z8DT.:Z8A6TSI                            SAT 08/09/97 11:22 Page:184
  19389 31 002653   000032 236000 0                  LDQ     CDECL$
        31 002654   000017 036003                    ADLQ    15,DU
        31 002655   000302 756000 0                  STQ     FIRST_LINE_SHOWN+1
        31 002656   000302 630400 0                  EPPR0   FIRST_LINE_SHOWN+1
        31 002657   000036 631400 32                 EPPR1   30
        31 002660   000000 701000 xent               TSX1    Z8ED$DISPOSE_ABSSYN_TREE
        31 002661   000000 011000                    NOP     0

      770    19390    3          RETURN;

  19390 31 002662   000112 221200 0                  LDX1  ! JUSTIFIED$+1
        31 002663   000001 702211                    TSX2  ! 1,X1

      771    19391    3        END;
      772    19392
      773    19393    2      IF NOT REPORT_DATA.B.ELEMENTARY THEN

  19393 31 002664   000060 236000 0                  LDQ     REPORT_DATA+18
        31 002665   200000 316003                    CANQ    65536,DU
        31 002666   002724 601000 31                 TNZ     s:19433

      774    19394    3        DO;

      775    19395               %CONDITIONAL_ERROR (@LX_ITEM$ = COLUMN_NUMBER$,
      776    19396                                   @ERROR#   = %E$ERR_CLAUSE_IN_GROUP_ENTRY,
      777    19397                                   @LINE     = COLUMN_NUMBER$ -> LX_ITEM.LINE,
      778    19398                                   @COLUMN   = COLUMN_NUMBER$ -> LX_ITEM.COLUMN,
      779    19399                                   @PLUG1    = "DNT$_FROM_RSWNO(%RSV_WRD_COLUMN)");

  19409 31 002667   000113 471400 0                  LDP1    COLUMN_NUMBER$
        31 002670   100000 236100                    LDQ     0,,PR1
        31 002671   400000 316007                    CANQ    -131072,DL
        31 002672   002713 601000 31                 TNZ     s:19429

  19411 31 002673   000070 236000 32                 LDQ     56
        31 002674   000305 756000 0                  STQ     FIRST_LINE_SHOWN+4
        31 002675   000113 236000 0                  LDQ     COLUMN_NUMBER$
PL6.E3A0      #001=Z8DT$REPORT_REC File=Z8DT.:Z8A6TSI                            SAT 08/09/97 11:22 Page:185
        31 002676   000006 036003                    ADLQ    6,DU
        31 002677   000304 756000 0                  STQ     FIRST_LINE_SHOWN+3
        31 002700   000113 236000 0                  LDQ     COLUMN_NUMBER$
        31 002701   000005 036003                    ADLQ    5,DU
        31 002702   000040 235000 32                 LDA     32
        31 002703   000302 757000 0                  STAQ    FIRST_LINE_SHOWN+1
        31 002704   000302 630400 0                  EPPR0   FIRST_LINE_SHOWN+1
        31 002705   000011 631400 32                 EPPR1   9
        31 002706   000000 701000 xent               TSX1    Z8AE$ERROR
        31 002707   000000 011000                    NOP     0

  19420 31 002710   000113 470400 0                  LDP0    COLUMN_NUMBER$
        31 002711   400000 236007                    LDQ     -131072,DL
        31 002712   000000 256100                    ORSQ    0,,PR0

      780    19429    3          CALL Z8ED$DISPOSE_ABSSYN_TREE(CDECL$ -> LX_REPORT_REC.P.COLUMN_NUMBER$);

  19429 31 002713   000032 236000 0                  LDQ     CDECL$
        31 002714   000017 036003                    ADLQ    15,DU
        31 002715   000302 756000 0                  STQ     FIRST_LINE_SHOWN+1
        31 002716   000302 630400 0                  EPPR0   FIRST_LINE_SHOWN+1
        31 002717   000036 631400 32                 EPPR1   30
        31 002720   000000 701000 xent               TSX1    Z8ED$DISPOSE_ABSSYN_TREE
        31 002721   000000 011000                    NOP     0

      781    19430    3          RETURN;

  19430 31 002722   000112 221200 0                  LDX1  ! JUSTIFIED$+1
        31 002723   000001 702211                    TSX2  ! 1,X1

      782    19431    3        END;
      783    19432
      784    19433    2      CALL CHARBIN (REPORT_DATA.COLUMN_NUMBER, COLUMN_NUMBER$ -> LX_ITEM.DNT$ -> DNT.
             19433               TEXT.NAME);

  19433 31 002724   000113 471400 0                  LDP1    COLUMN_NUMBER$
        31 002725   100002 473500                    LDP3    2,,PR1
PL6.E3A0      #001=Z8DT$REPORT_REC File=Z8DT.:Z8A6TSI                            SAT 08/09/97 11:22 Page:186
        31 002726   300004 220100                    LDX0    4,,PR3
        31 002727   000000 305540                    DTB
        31 002730   300004 430010                    NDSC9   4,,PR3                   cn=2,s=nosgn,sf=0,n=*X0
        31 002731   000050 000004 0                  NDSC9   REPORT_DATA+10           cn=0,s=lsgnf,sf=0,n=4

      785    19434    2      REPORT_DATA.B.COLUMN_PRESENTED = TRUE;

  19434 31 002732   000002 236003                    LDQ     2,DU
        31 002733   000060 256000 0                  ORSQ    REPORT_DATA+18

      786    19435
      787    19436    2      LINE_PRESENTED = FALSE;

  19436 31 002734   000114 450000 0                  STZ     LINE_PRESENTED

      788    19437
      789    19438    2      IF NOT REPORT_DATA.B.LINE_PRESENTED THEN

  19438 31 002735   000060 236000 0                  LDQ     REPORT_DATA+18
        31 002736   000004 316003                    CANQ    4,DU
        31 002737   002775 601000 31                 TNZ     s:19455

      790    19439    3        DO;

      791    19440    4          DO I = REPORT_DATA.STK_PTR - 1 DOWNTO 1 BY -1;

  19440 31 002740   000054 235000 0                  LDA     REPORT_DATA+14
        31 002741   000001 135007                    SBLA    1,DL
        31 002742   000035 755000 0                  STA     I
        31 002743   002756 710000 31                 TRA     s:19446+2

      792    19441    4            IF REP_STK.B.LINE_PRESENTED(I)  THEN

  19441 31 002744   000035 236000 0                  LDQ     I
        31 002745   000005 402007                    MPY     5,DL
        31 002746   000004 236006 xsym               LDQ     REP_STK+4,QL
        31 002747   100000 316003                    CANQ    32768,DU
PL6.E3A0      #001=Z8DT$REPORT_REC File=Z8DT.:Z8A6TSI                            SAT 08/09/97 11:22 Page:187
        31 002750   002754 600000 31                 TZE     s:19446

      793    19442    5              DO;

      794    19443    5                LINE_PRESENTED = TRUE;

  19443 31 002751   400000 236003                    LDQ     -131072,DU
        31 002752   000114 756000 0                  STQ     LINE_PRESENTED

      795    19444    5                I = 0;

  19444 31 002753   000035 450000 0                  STZ     I

      796    19445    5              END;

      797    19446    4          END;

  19446 31 002754   000001 336007                    LCQ     1,DL
        31 002755   000035 056000 0                  ASQ     I
        31 002756   000035 235000 0                  LDA     I
        31 002757   002744 605400 31                 TPNZ    s:19441

      798    19447
      799    19448    3          IF NOT LINE_PRESENTED THEN

  19448 31 002760   000114 234000 0                  SZN     LINE_PRESENTED
        31 002761   002775 604000 31                 TMI     s:19455

      800    19449    3            CALL Z8AE$ERROR (%E$NO_LINE_FOR_COLUMN,

  19449 31 002762   000113 236000 0                  LDQ     COLUMN_NUMBER$
        31 002763   000006 036003                    ADLQ    6,DU
        31 002764   000304 756000 0                  STQ     FIRST_LINE_SHOWN+3
        31 002765   000113 236000 0                  LDQ     COLUMN_NUMBER$
        31 002766   000005 036003                    ADLQ    5,DU
        31 002767   000072 235000 32                 LDA     58
        31 002770   000302 757000 0                  STAQ    FIRST_LINE_SHOWN+1
PL6.E3A0      #001=Z8DT$REPORT_REC File=Z8DT.:Z8A6TSI                            SAT 08/09/97 11:22 Page:188
        31 002771   000302 630400 0                  EPPR0   FIRST_LINE_SHOWN+1
        31 002772   000006 631400 32                 EPPR1   6
        31 002773   000000 701000 xent               TSX1    Z8AE$ERROR
        31 002774   000000 011000                    NOP     0

      801    19450    3                             COLUMN_NUMBER$ -> LX_ITEM.LINE,
      802    19451    3                             COLUMN_NUMBER$ -> LX_ITEM.COLUMN);
      803    19452    3        END;

      804    19453
      805    19454
      806    19455    2      LTS$$ = REP_STK.LTS$(REP_STK_PTR);

  19455 31 002775   000000 236000 xsym               LDQ     REP_STK_PTR
        31 002776   000005 402007                    MPY     5,DL
        31 002777   000001 236006 xsym               LDQ     REP_STK+1,QL
        31 003000   000116 756000 0                  STQ     LTS$$

      807    19456
      808    19457    3      DO WHILE(LTS$$ -> REPORT_GRP_LTS.ID ~= %REPORT_ELEM_LTS OR

  19457 31 003001   003011 710000 31                 TRA     s:19464

      809    19458    3               NOT LTS$$ -> REPORT_ELEM_LTS.B.COLUMN_PRESENTED);
      810    19459
      811    19460    3        LTS$$ = LTS$$ -> REPORT_GRP_LTS.PREV;

  19460 31 003002   000116 470400 0                  LDP0    LTS$$
        31 003003   000005 236100                    LDQ     5,,PR0
        31 003004   000116 756000 0                  STQ     LTS$$

      812    19461    3        IF LTS$$ = ADDR(NIL) THEN

  19461 31 003005   000005 116000 32                 CMPQ    5
        31 003006   003011 601000 31                 TNZ     s:19464

      813    19462    3          RETURN;
PL6.E3A0      #001=Z8DT$REPORT_REC File=Z8DT.:Z8A6TSI                            SAT 08/09/97 11:22 Page:189

  19462 31 003007   000112 221200 0                  LDX1  ! JUSTIFIED$+1
        31 003010   000001 702211                    TSX2  ! 1,X1

      814    19463
      815    19464    3      END;

  19464 31 003011   000116 470400 0                  LDP0    LTS$$
        31 003012   000000 220100                    LDX0    0,,PR0
        31 003013   001102 100003                    CMPX0   578,DU
        31 003014   003002 601000 31                 TNZ     s:19460
        31 003015   000000 236100                    LDQ     0,,PR0
        31 003016   200000 316007                    CANQ    65536,DL
        31 003017   003002 600000 31                 TZE     s:19460

      816    19465
      817    19466    2      LAST_POS = LTS$$ -> REPORT_ELEM_LTS.COLUMN_NO# + LTS$$ -> REPORT_ELEM_LTS.SPAN;

  19466 31 003020   000007 236100                    LDQ     7,,PR0
        31 003021   000010 036100                    ADLQ    8,,PR0
        31 003022   000115 756000 0                  STQ     LAST_POS

      818    19467
      819    19468    2      IF REPORT_DATA.COLUMN_NUMBER < LAST_POS THEN

  19468 31 003023   000050 116000 0                  CMPQ    REPORT_DATA+10
        31 003024   003153 604400 31                 TMOZ    s:19531

      820    19469    3        DO;

      821    19470
      822    19471               /*  #28199   Next 7 lines is added to prevent the error message
      823    19472                   comes out when user is intended to do the overstriking */
      824    19473
      825    19474    3          NEXT_LTS$ = LTS$$ -> REPORT_ELEM_LTS.NEXT;

  19474 31 003025   000006 236100                    LDQ     6,,PR0
PL6.E3A0      #001=Z8DT$REPORT_REC File=Z8DT.:Z8A6TSI                            SAT 08/09/97 11:22 Page:190
        31 003026   000122 756000 0                  STQ     NEXT_LTS$

      826    19475
      827    19476    4          DO WHILE (NEXT_LTS$ ~= ADDR(NIL));

  19476 31 003027   003040 710000 31                 TRA     s:19480

      828    19477    4            IF NEXT_LTS$ -> REPORT_GRP_LTS.B.LINE_PRESENTED THEN

  19477 31 003030   000122 470400 0                  LDP0    NEXT_LTS$
        31 003031   000000 236100                    LDQ     0,,PR0
        31 003032   400000 316007                    CANQ    -131072,DL
        31 003033   003036 600000 31                 TZE     s:19479

      829    19478    4              RETURN;

  19478 31 003034   000112 221200 0                  LDX1  ! JUSTIFIED$+1
        31 003035   000001 702211                    TSX2  ! 1,X1

      830    19479    4            NEXT_LTS$ = NEXT_LTS$ -> REPORT_GRP_LTS.NEXT;

  19479 31 003036   000006 236100                    LDQ     6,,PR0
        31 003037   000122 756000 0                  STQ     NEXT_LTS$

      831    19480    4          END;   /* END */

  19480 31 003040   000005 116000 32                 CMPQ    5
        31 003041   003030 601000 31                 TNZ     s:19477

      832    19481
      833    19482    3          PREV_LTS$ = LTS$$;

  19482 31 003042   000116 236000 0                  LDQ     LTS$$
        31 003043   000117 756000 0                  STQ     PREV_LTS$

      834    19483
      835    19484    4          DO WHILE(PREV_LTS$ ~= ADDR(NIL)  AND
PL6.E3A0      #001=Z8DT$REPORT_REC File=Z8DT.:Z8A6TSI                            SAT 08/09/97 11:22 Page:191

  19484 31 003044   003050 710000 31                 TRA     s:19488

      836    19485    4                   NOT PREV_LTS$ -> REPORT_GRP_LTS.B.LINE_PRESENTED);
      837    19486
      838    19487    4            PREV_LTS$ = PREV_LTS$ -> REPORT_GRP_LTS.PREV;

  19487 31 003045   000117 470400 0                  LDP0    PREV_LTS$
        31 003046   000005 236100                    LDQ     5,,PR0
        31 003047   000117 756000 0                  STQ     PREV_LTS$

      839    19488    4          END;

  19488 31 003050   000005 116000 32                 CMPQ    5
        31 003051   003056 600000 31                 TZE     s:19490
        31 003052   000117 470400 0                  LDP0    PREV_LTS$
        31 003053   000000 236100                    LDQ     0,,PR0
        31 003054   400000 316007                    CANQ    -131072,DL
        31 003055   003045 600000 31                 TZE     s:19487

      840    19489
      841    19490    3          IF PREV_LTS$ = ADDR(NIL) THEN

  19490 31 003056   000117 236000 0                  LDQ     PREV_LTS$
        31 003057   000005 116000 32                 CMPQ    5
        31 003060   003066 601000 31                 TNZ     s:19497

      842    19491    4            DO;

      843    19492    4              PREV_LINE = 0;

  19492 31 003061   000120 450000 0                  STZ     PREV_LINE

      844    19493    4              NEXT_LTS$ = REP_STK.LTS$(1) -> REPORT_GRP_LTS.NEXT;

  19493 31 003062   000006 470400 xsym               LDP0    REP_STK+6
        31 003063   000006 236100                    LDQ     6,,PR0
PL6.E3A0      #001=Z8DT$REPORT_REC File=Z8DT.:Z8A6TSI                            SAT 08/09/97 11:22 Page:192
        31 003064   000122 756000 0                  STQ     NEXT_LTS$

      845    19494    4            END;

  19494 31 003065   003073 710000 31                 TRA     s:19501

      846    19495    3          ELSE
      847    19496    4            DO;

      848    19497    4              PREV_LINE = PREV_LTS$ -> REPORT_GRP_LTS.LINE_NO#;

  19497 31 003066   000117 470400 0                  LDP0    PREV_LTS$
        31 003067   000002 235100                    LDA     2,,PR0
        31 003070   000120 755000 0                  STA     PREV_LINE

      849    19498    4              NEXT_LTS$ = PREV_LTS$ -> REPORT_GRP_LTS.NEXT;

  19498 31 003071   000006 236100                    LDQ     6,,PR0
        31 003072   000122 756000 0                  STQ     NEXT_LTS$

      850    19499    4            END;

      851    19500
      852    19501    3          CURRENT_LINE = PREV_LINE;

  19501 31 003073   000120 235000 0                  LDA     PREV_LINE
        31 003074   000121 755000 0                  STA     CURRENT_LINE

      853    19502
      854    19503    4          DO WHILE (NEXT_LTS$ ~= ADDR(NIL));

  19503 31 003075   003115 710000 31                 TRA     s:19512

      855    19504    4            IF NEXT_LTS$ -> REPORT_GRP_LTS.B.LINE_PRESENTED THEN

  19504 31 003076   000122 470400 0                  LDP0    NEXT_LTS$
        31 003077   000000 236100                    LDQ     0,,PR0
PL6.E3A0      #001=Z8DT$REPORT_REC File=Z8DT.:Z8A6TSI                            SAT 08/09/97 11:22 Page:193
        31 003100   400000 316007                    CANQ    -131072,DL
        31 003101   003113 600000 31                 TZE     s:19511

      856    19505    5              DO;

      857    19506    5               IF NEXT_LTS$ -> REPORT_GRP_LTS.LINE_TYPE = %REPORT_LINE_PLUS THEN

  19506 31 003102   000001 235100                    LDA     1,,PR0
        31 003103   000002 115007                    CMPA    2,DL
        31 003104   003111 601000 31                 TNZ     s:19509

      858    19507    5                 CURRENT_LINE = CURRENT_LINE + NEXT_LTS$ -> REPORT_GRP_LTS.LINE_NO#;

  19507 31 003105   000121 236000 0                  LDQ     CURRENT_LINE
        31 003106   000002 036100                    ADLQ    2,,PR0
        31 003107   000121 756000 0                  STQ     CURRENT_LINE
        31 003110   003113 710000 31                 TRA     s:19511

      859    19508    5               ELSE
      860    19509    5                 CURRENT_LINE = NEXT_LTS$ -> REPORT_GRP_LTS.LINE_NO#;

  19509 31 003111   000002 235100                    LDA     2,,PR0
        31 003112   000121 755000 0                  STA     CURRENT_LINE

      861    19510    5              END;

      862    19511    4            NEXT_LTS$ = NEXT_LTS$ -> REPORT_GRP_LTS.NEXT;

  19511 31 003113   000006 236100                    LDQ     6,,PR0
        31 003114   000122 756000 0                  STQ     NEXT_LTS$

      863    19512    4          END;

  19512 31 003115   000005 116000 32                 CMPQ    5
        31 003116   003076 601000 31                 TNZ     s:19504

      864    19513
PL6.E3A0      #001=Z8DT$REPORT_REC File=Z8DT.:Z8A6TSI                            SAT 08/09/97 11:22 Page:194
      865    19514    3          IF REPORT_DATA.B.LINE_PRESENTED THEN

  19514 31 003117   000060 236000 0                  LDQ     REPORT_DATA+18
        31 003120   000004 316003                    CANQ    4,DU
        31 003121   003133 600000 31                 TZE     s:19522

      866    19515    4            DO;

      867    19516    4              IF REPORT_DATA.LINE_TYPE = %REPORT_LINE_PLUS THEN

  19516 31 003122   000046 235000 0                  LDA     REPORT_DATA+8
        31 003123   000002 115007                    CMPA    2,DL
        31 003124   003131 601000 31                 TNZ     s:19519

      868    19517    4                CURRENT_LINE = CURRENT_LINE + REPORT_DATA.LINE_NUMBER;

  19517 31 003125   000121 236000 0                  LDQ     CURRENT_LINE
        31 003126   000053 036000 0                  ADLQ    REPORT_DATA+13
        31 003127   000121 756000 0                  STQ     CURRENT_LINE
        31 003130   003133 710000 31                 TRA     s:19522

      869    19518    4              ELSE
      870    19519    4                CURRENT_LINE = REPORT_DATA.LINE_NUMBER;

  19519 31 003131   000053 235000 0                  LDA     REPORT_DATA+13
        31 003132   000121 755000 0                  STA     CURRENT_LINE

      871    19520    4            END;

      872    19521
      873    19522    3          IF CURRENT_LINE <= PREV_LINE THEN

  19522 31 003133   000121 236000 0                  LDQ     CURRENT_LINE
        31 003134   000120 116000 0                  CMPQ    PREV_LINE
        31 003135   003153 605400 31                 TPNZ    s:19531

      874    19523    4            DO;
PL6.E3A0      #001=Z8DT$REPORT_REC File=Z8DT.:Z8A6TSI                            SAT 08/09/97 11:22 Page:195

      875    19524    4              CALL Z8AE$ERROR (%E$FIELD_OVERLAPPED,

  19524 31 003136   000113 236000 0                  LDQ     COLUMN_NUMBER$
        31 003137   000006 036003                    ADLQ    6,DU
        31 003140   000304 756000 0                  STQ     FIRST_LINE_SHOWN+3
        31 003141   000113 236000 0                  LDQ     COLUMN_NUMBER$
        31 003142   000005 036003                    ADLQ    5,DU
        31 003143   000074 235000 32                 LDA     60
        31 003144   000302 757000 0                  STAQ    FIRST_LINE_SHOWN+1
        31 003145   000302 630400 0                  EPPR0   FIRST_LINE_SHOWN+1
        31 003146   000006 631400 32                 EPPR1   6
        31 003147   000000 701000 xent               TSX1    Z8AE$ERROR
        31 003150   000000 011000                    NOP     0

      876    19525    4                               COLUMN_NUMBER$ -> LX_ITEM.LINE,
      877    19526    4                               COLUMN_NUMBER$ -> LX_ITEM.COLUMN);
      878    19527    4              RETURN;

  19527 31 003151   000112 221200 0                  LDX1  ! JUSTIFIED$+1
        31 003152   000001 702211                    TSX2  ! 1,X1

      879    19528    4            END;
      880    19529    3        END;
      881    19530
      882    19531    2     END VALIDATE_COLUMN;

  19531 31 003153   000112 221200 0                  LDX1  ! JUSTIFIED$+1
        31 003154   000001 702211                    TSX2  ! 1,X1

      883    19532          %EJECT;
PL6.E3A0      #001=Z8DT$REPORT_REC File=Z8DT.:Z8A6TSI                            SAT 08/09/97 11:22 Page:196
      884    19533
      885    19534        /*=============*/
      886    19535    1     VALIDATE_SIGN: PROC;

  19535 31 003155   000123 741200 0     VALIDATE_SI* STX1  ! NEXT_LTS$+1

      887    19536        /*=============*/
      888    19537         /*
      889    19538               NAME: VALIDATE_SIGN
      890    19539
      891    19540           DESCRIPTION: This routine validated the SIGN clause for the
      892    19541                        report data entry.
      893    19542
      894    19543          */
      895    19544
      896    19545    2   DCL SIGN$                     PTR;
      897    19546
      898    19547
      899    19548    2            SIGN$ = CDECL$ -> LX_REPORT_REC.P.SIGN$ -> LX_LIST.TAIL$;

  19548 31 003156   000032 470400 0                  LDP0    CDECL$
        31 003157   000011 471500                    LDP1    9,,PR0
        31 003160   100001 236100                    LDQ     1,,PR1
        31 003161   000124 756000 0                  STQ     SIGN$

      900    19549
      901    19550    2      IF CDECL$ -> LX_REPORT_REC.P.SIGN$ -> LX_LIST.HEAD$ ->

  19550 31 003162   100004 473500                    LDP3    4,,PR1
        31 003163   300003 235100                    LDA     3,,PR3
        31 003164   000415 115007                    CMPA    269,DL
        31 003165   003171 601000 31                 TNZ     s:19554

      902    19551    2          LX_ITEM.SYMBOL = %RSV_WRD_LEADING THEN
      903    19552    2        REPORT_DATA.SIGN.LOCATION = %SIGN_POS_LEADING;

  19552 31 003166   000001 235007                    LDA     1,DL
PL6.E3A0      #001=Z8DT$REPORT_REC File=Z8DT.:Z8A6TSI                            SAT 08/09/97 11:22 Page:197
        31 003167   000041 755000 0                  STA     REPORT_DATA+3
        31 003170   003172 710000 31                 TRA     s:19556

      904    19553    2      ELSE
      905    19554    2        REPORT_DATA.SIGN.LOCATION = %SIGN_POS_TRAILING;

  19554 31 003171   000041 450000 0                  STZ     REPORT_DATA+3

      906    19555
      907    19556    2        IF CDECL$ -> LX_REPORT_REC.P.SIGN$ -> LX_LIST.TAIL$ ->

  19556 31 003172   000011 471500                    LDP1    9,,PR0
        31 003173   100001 473500                    LDP3    1,,PR1
        31 003174   300003 235100                    LDA     3,,PR3
        31 003175   000635 115007                    CMPA    413,DL
        31 003176   003202 601000 31                 TNZ     s:19561

      908    19557    2          LX_ITEM.SYMBOL = %RSV_WRD_SEPARATE THEN
      909    19558    2            REPORT_DATA.SIGN.TYPE     = %SIGN_TYPE_SEPARATE;

  19558 31 003177   000001 235007                    LDA     1,DL
        31 003200   000042 755000 0                  STA     REPORT_DATA+4
        31 003201   003216 710000 31                 TRA     s:19567

      910    19559    2        ELSE
      911    19560    3          DO;

      912    19561    3            CALL Z8AE$ERROR(%E$SEPARATE_MUST_SPECIFIED,

  19561 31 003202   000006 036003                    ADLQ    6,DU
        31 003203   000304 756000 0                  STQ     FIRST_LINE_SHOWN+3
        31 003204   000124 236000 0                  LDQ     SIGN$
        31 003205   000005 036003                    ADLQ    5,DU
        31 003206   000076 235000 32                 LDA     62
        31 003207   000302 757000 0                  STAQ    FIRST_LINE_SHOWN+1
        31 003210   000302 630400 0                  EPPR0   FIRST_LINE_SHOWN+1
        31 003211   000006 631400 32                 EPPR1   6
PL6.E3A0      #001=Z8DT$REPORT_REC File=Z8DT.:Z8A6TSI                            SAT 08/09/97 11:22 Page:198
        31 003212   000000 701000 xent               TSX1    Z8AE$ERROR
        31 003213   000000 011000                    NOP     0

      913    19562    3                            SIGN$ -> LX_ITEM.LINE,
      914    19563    3                            SIGN$ -> LX_ITEM.COLUMN);
      915    19564    3            REPORT_DATA.SIGN.TYPE = %SIGN_TYPE_SEPARATE;

  19564 31 003214   000001 235007                    LDA     1,DL
        31 003215   000042 755000 0                  STA     REPORT_DATA+4

      916    19565    3          END;

      917    19566
      918    19567    2        REPORT_DATA.B.SIGN_PRESENT  = TRUE;

  19567 31 003216   001000 236003                    LDQ     512,DU
        31 003217   000060 256000 0                  ORSQ    REPORT_DATA+18

      919    19568
      920    19569    2          IF REPORT_DATA.LEVEL.CURRENT = %LEVEL_01 THEN

  19569 31 003220   000036 235000 0                  LDA     REPORT_DATA
        31 003221   000001 115007                    CMPA    1,DL
        31 003222   003260 601000 31                 TNZ     s:19609

      921    19570    3            DO;

      922    19571                   %CONDITIONAL_ERROR (@LX_ITEM$ = SIGN$,
      923    19572                                       @ERROR#   = %E$ERR_CLAUSE_IN_REP_01_ENTRY,
      924    19573                                       @LINE     = SIGN$ -> LX_ITEM.LINE,
      925    19574                                       @COLUMN   = SIGN$ -> LX_ITEM.COLUMN,
      926    19575                                       @PLUG1    = "DNT$_FROM_RSWNO(%RSV_WRD_SIGN)");

  19585 31 003223   000124 470400 0                  LDP0    SIGN$
        31 003224   000000 236100                    LDQ     0,,PR0
        31 003225   400000 316007                    CANQ    -131072,DL
        31 003226   003247 601000 31                 TNZ     s:19605
PL6.E3A0      #001=Z8DT$REPORT_REC File=Z8DT.:Z8A6TSI                            SAT 08/09/97 11:22 Page:199

  19587 31 003227   000077 236000 32                 LDQ     63
        31 003230   000305 756000 0                  STQ     FIRST_LINE_SHOWN+4
        31 003231   000124 236000 0                  LDQ     SIGN$
        31 003232   000006 036003                    ADLQ    6,DU
        31 003233   000304 756000 0                  STQ     FIRST_LINE_SHOWN+3
        31 003234   000124 236000 0                  LDQ     SIGN$
        31 003235   000005 036003                    ADLQ    5,DU
        31 003236   000035 235000 32                 LDA     29
        31 003237   000302 757000 0                  STAQ    FIRST_LINE_SHOWN+1
        31 003240   000302 630400 0                  EPPR0   FIRST_LINE_SHOWN+1
        31 003241   000011 631400 32                 EPPR1   9
        31 003242   000000 701000 xent               TSX1    Z8AE$ERROR
        31 003243   000000 011000                    NOP     0

  19596 31 003244   000124 470400 0                  LDP0    SIGN$
        31 003245   400000 236007                    LDQ     -131072,DL
        31 003246   000000 256100                    ORSQ    0,,PR0

      927    19605    3              CALL Z8ED$DISPOSE_ABSSYN_TREE(CDECL$ -> LX_REPORT_REC.P.SIGN$);

  19605 31 003247   000032 236000 0                  LDQ     CDECL$
        31 003250   000011 036003                    ADLQ    9,DU
        31 003251   000302 756000 0                  STQ     FIRST_LINE_SHOWN+1
        31 003252   000302 630400 0                  EPPR0   FIRST_LINE_SHOWN+1
        31 003253   000036 631400 32                 EPPR1   30
        31 003254   000000 701000 xent               TSX1    Z8ED$DISPOSE_ABSSYN_TREE
        31 003255   000000 011000                    NOP     0

      928    19606    3              RETURN;

  19606 31 003256   000123 221200 0                  LDX1  ! NEXT_LTS$+1
        31 003257   000001 702211                    TSX2  ! 1,X1

      929    19607    3            END;
      930    19608
      931    19609    2          IF NOT REPORT_DATA.B.ELEMENTARY THEN
PL6.E3A0      #001=Z8DT$REPORT_REC File=Z8DT.:Z8A6TSI                            SAT 08/09/97 11:22 Page:200

  19609 31 003260   000060 236000 0                  LDQ     REPORT_DATA+18
        31 003261   200000 316003                    CANQ    65536,DU
        31 003262   003320 601000 31                 TNZ     s:19649

      932    19610    3            DO;

      933    19611                   %CONDITIONAL_ERROR (@LX_ITEM$ = SIGN$,
      934    19612                                       @ERROR#   = %E$ERR_CLAUSE_IN_GROUP_ENTRY,
      935    19613                                       @LINE     = SIGN$ -> LX_ITEM.LINE,
      936    19614                                       @COLUMN   = SIGN$ -> LX_ITEM.COLUMN,
      937    19615                                       @PLUG1    = "DNT$_FROM_RSWNO(%RSV_WRD_SIGN)");

  19625 31 003263   000124 470400 0                  LDP0    SIGN$
        31 003264   000000 236100                    LDQ     0,,PR0
        31 003265   400000 316007                    CANQ    -131072,DL
        31 003266   003307 601000 31                 TNZ     s:19645

  19627 31 003267   000077 236000 32                 LDQ     63
        31 003270   000305 756000 0                  STQ     FIRST_LINE_SHOWN+4
        31 003271   000124 236000 0                  LDQ     SIGN$
        31 003272   000006 036003                    ADLQ    6,DU
        31 003273   000304 756000 0                  STQ     FIRST_LINE_SHOWN+3
        31 003274   000124 236000 0                  LDQ     SIGN$
        31 003275   000005 036003                    ADLQ    5,DU
        31 003276   000040 235000 32                 LDA     32
        31 003277   000302 757000 0                  STAQ    FIRST_LINE_SHOWN+1
        31 003300   000302 630400 0                  EPPR0   FIRST_LINE_SHOWN+1
        31 003301   000011 631400 32                 EPPR1   9
        31 003302   000000 701000 xent               TSX1    Z8AE$ERROR
        31 003303   000000 011000                    NOP     0

  19636 31 003304   000124 470400 0                  LDP0    SIGN$
        31 003305   400000 236007                    LDQ     -131072,DL
        31 003306   000000 256100                    ORSQ    0,,PR0

      938    19645    3              CALL Z8ED$DISPOSE_ABSSYN_TREE(CDECL$ -> LX_REPORT_REC.P.SIGN$);
PL6.E3A0      #001=Z8DT$REPORT_REC File=Z8DT.:Z8A6TSI                            SAT 08/09/97 11:22 Page:201

  19645 31 003307   000032 236000 0                  LDQ     CDECL$
        31 003310   000011 036003                    ADLQ    9,DU
        31 003311   000302 756000 0                  STQ     FIRST_LINE_SHOWN+1
        31 003312   000302 630400 0                  EPPR0   FIRST_LINE_SHOWN+1
        31 003313   000036 631400 32                 EPPR1   30
        31 003314   000000 701000 xent               TSX1    Z8ED$DISPOSE_ABSSYN_TREE
        31 003315   000000 011000                    NOP     0

      939    19646    3              RETURN;

  19646 31 003316   000123 221200 0                  LDX1  ! NEXT_LTS$+1
        31 003317   000001 702211                    TSX2  ! 1,X1

      940    19647    3            END;
      941    19648
      942    19649    2          IF PIC_OUT.TYPE ~= %PIC_TY_N  THEN

  19649 31 003320   000002 220000 28                 LDX0    PIC_OUT+2
        31 003321   000005 100003                    CMPX0   5,DU
        31 003322   003355 600000 31                 TZE     s:19687

      943    19650    3            DO;

      944    19651                   %CONDITIONAL_ERROR (@LX_ITEM$ = SIGN$,
      945    19652                                       @ERROR#   = %E$WRONG_SIGN_TYPE,
      946    19653                                       @LINE     = SIGN$ -> LX_ITEM.LINE,
      947    19654                                       @COLUMN   = SIGN$ -> LX_ITEM.COLUMN);

  19664 31 003323   000124 470400 0                  LDP0    SIGN$
        31 003324   000000 236100                    LDQ     0,,PR0
        31 003325   400000 316007                    CANQ    -131072,DL
        31 003326   003345 601000 31                 TNZ     s:19684

  19666 31 003327   000124 236000 0                  LDQ     SIGN$
        31 003330   000006 036003                    ADLQ    6,DU
        31 003331   000304 756000 0                  STQ     FIRST_LINE_SHOWN+3
PL6.E3A0      #001=Z8DT$REPORT_REC File=Z8DT.:Z8A6TSI                            SAT 08/09/97 11:22 Page:202
        31 003332   000124 236000 0                  LDQ     SIGN$
        31 003333   000005 036003                    ADLQ    5,DU
        31 003334   000101 235000 32                 LDA     65
        31 003335   000302 757000 0                  STAQ    FIRST_LINE_SHOWN+1
        31 003336   000302 630400 0                  EPPR0   FIRST_LINE_SHOWN+1
        31 003337   000006 631400 32                 EPPR1   6
        31 003340   000000 701000 xent               TSX1    Z8AE$ERROR
        31 003341   000000 011000                    NOP     0

  19675 31 003342   000124 470400 0                  LDP0    SIGN$
        31 003343   400000 236007                    LDQ     -131072,DL
        31 003344   000000 256100                    ORSQ    0,,PR0

      948    19684    3              CALL Z8ED$DISPOSE_ABSSYN_TREE(CDECL$ -> LX_REPORT_REC.P.SIGN$);

  19684 31 003345   000032 236000 0                  LDQ     CDECL$
        31 003346   000011 036003                    ADLQ    9,DU
        31 003347   000302 756000 0                  STQ     FIRST_LINE_SHOWN+1
        31 003350   000302 630400 0                  EPPR0   FIRST_LINE_SHOWN+1
        31 003351   000036 631400 32                 EPPR1   30
        31 003352   000000 701000 xent               TSX1    Z8ED$DISPOSE_ABSSYN_TREE
        31 003353   000000 011000                    NOP     0

      949    19685    3            END;

  19685 31 003354   003410 710000 31                 TRA     s:19726

      950    19686    2          ELSE
      951    19687    2            IF NOT REPORT_DATA.B.SIGN_FOUND  THEN

  19687 31 003355   040000 316003                    CANQ    16384,DU
        31 003356   003410 601000 31                 TNZ     s:19726

      952    19688    3              DO;

      953    19689                     %CONDITIONAL_ERROR (@LX_ITEM$ = SIGN$,
      954    19690                                         @ERROR#   = %E$NO_SIGN_S_FOUND,
PL6.E3A0      #001=Z8DT$REPORT_REC File=Z8DT.:Z8A6TSI                            SAT 08/09/97 11:22 Page:203
      955    19691                                         @LINE     = SIGN$ -> LX_ITEM.LINE,
      956    19692                                         @COLUMN   = SIGN$ -> LX_ITEM.COLUMN);

  19702 31 003357   000124 470400 0                  LDP0    SIGN$
        31 003360   000000 236100                    LDQ     0,,PR0
        31 003361   400000 316007                    CANQ    -131072,DL
        31 003362   003401 601000 31                 TNZ     s:19722

  19704 31 003363   000124 236000 0                  LDQ     SIGN$
        31 003364   000006 036003                    ADLQ    6,DU
        31 003365   000304 756000 0                  STQ     FIRST_LINE_SHOWN+3
        31 003366   000124 236000 0                  LDQ     SIGN$
        31 003367   000005 036003                    ADLQ    5,DU
        31 003370   000103 235000 32                 LDA     67
        31 003371   000302 757000 0                  STAQ    FIRST_LINE_SHOWN+1
        31 003372   000302 630400 0                  EPPR0   FIRST_LINE_SHOWN+1
        31 003373   000006 631400 32                 EPPR1   6
        31 003374   000000 701000 xent               TSX1    Z8AE$ERROR
        31 003375   000000 011000                    NOP     0

  19713 31 003376   000124 470400 0                  LDP0    SIGN$
        31 003377   400000 236007                    LDQ     -131072,DL
        31 003400   000000 256100                    ORSQ    0,,PR0

      957    19722    3                CALL Z8ED$DISPOSE_ABSSYN_TREE(CDECL$ -> LX_REPORT_REC.P.SIGN$);

  19722 31 003401   000032 236000 0                  LDQ     CDECL$
        31 003402   000011 036003                    ADLQ    9,DU
        31 003403   000302 756000 0                  STQ     FIRST_LINE_SHOWN+1
        31 003404   000302 630400 0                  EPPR0   FIRST_LINE_SHOWN+1
        31 003405   000036 631400 32                 EPPR1   30
        31 003406   000000 701000 xent               TSX1    Z8ED$DISPOSE_ABSSYN_TREE
        31 003407   000000 011000                    NOP     0

      958    19723    3              END;

      959    19724
PL6.E3A0      #001=Z8DT$REPORT_REC File=Z8DT.:Z8A6TSI                            SAT 08/09/97 11:22 Page:204
      960    19725
      961    19726    2   END VALIDATE_SIGN;

  19726 31 003410   000123 221200 0                  LDX1  ! NEXT_LTS$+1
        31 003411   000001 702211                    TSX2  ! 1,X1

      962    19727        %EJECT;
PL6.E3A0      #001=Z8DT$REPORT_REC File=Z8DT.:Z8A6TSI                            SAT 08/09/97 11:22 Page:205
      963    19728
      964    19729        /*===============*/
      965    19730    1     VALIDATE_SOURCE: PROC;

  19730 31 003412   000125 741200 0     VALIDATE_SO* STX1  ! SIGN$+1

      966    19731        /*===============*/
      967    19732         /*
      968    19733               NAME: VALIDATE_SOURCE
      969    19734
      970    19735           DESCRIPTION: This routine validated the SOURCE clause for the
      971    19736                        report data entry.
      972    19737
      973    19738          */
      974    19739
      975    19740
      976    19741    2   DCL SOURCE$                   PTR;
      977    19742
      978    19743
      979    19744
      980    19745    2      SOURCE$ = CDECL$ -> LX_REPORT_REC.P.SOURCE$ -> LX_LARGE.LARGE_ITEM$ ->

  19745 31 003413   000032 470400 0                  LDP0    CDECL$
        31 003414   000021 471500                    LDP1    17,,PR0
        31 003415   100001 473500                    LDP3    1,,PR1
        31 003416   300001 474500                    LDP4    1,,PR3
        31 003417   400004 236100                    LDQ     4,,PR4
        31 003420   000126 756000 0                  STQ     SOURCE$

      981    19746    2                DEFERED_ID_TREE.QUAL_ID$ -> LX_LIST.HEAD$;
      982    19747    2      IF REPORT_DATA.LEVEL.CURRENT = %LEVEL_01 THEN

  19747 31 003421   000036 235000 0                  LDA     REPORT_DATA
        31 003422   000001 115007                    CMPA    1,DL
        31 003423   003461 601000 31                 TNZ     s:19787

      983    19748    3        DO;
PL6.E3A0      #001=Z8DT$REPORT_REC File=Z8DT.:Z8A6TSI                            SAT 08/09/97 11:22 Page:206

      984    19749               %CONDITIONAL_ERROR (@LX_ITEM$ = SOURCE$,
      985    19750                                   @ERROR#   = %E$ERR_CLAUSE_IN_REP_01_ENTRY,
      986    19751                                   @LINE     = SOURCE$ -> LX_ITEM.LINE,
      987    19752                                   @COLUMN   = SOURCE$ -> LX_ITEM.COLUMN,
      988    19753                                   @PLUG1    = "DNT$_FROM_RSWNO(%RSV_WRD_SOURCE)");

  19763 31 003424   000126 475400 0                  LDP5    SOURCE$
        31 003425   500000 236100                    LDQ     0,,PR5
        31 003426   400000 316007                    CANQ    -131072,DL
        31 003427   003450 601000 31                 TNZ     s:19783

  19765 31 003430   000104 236000 32                 LDQ     68
        31 003431   000305 756000 0                  STQ     FIRST_LINE_SHOWN+4
        31 003432   000126 236000 0                  LDQ     SOURCE$
        31 003433   000006 036003                    ADLQ    6,DU
        31 003434   000304 756000 0                  STQ     FIRST_LINE_SHOWN+3
        31 003435   000126 236000 0                  LDQ     SOURCE$
        31 003436   000005 036003                    ADLQ    5,DU
        31 003437   000035 235000 32                 LDA     29
        31 003440   000302 757000 0                  STAQ    FIRST_LINE_SHOWN+1
        31 003441   000302 630400 0                  EPPR0   FIRST_LINE_SHOWN+1
        31 003442   000011 631400 32                 EPPR1   9
        31 003443   000000 701000 xent               TSX1    Z8AE$ERROR
        31 003444   000000 011000                    NOP     0

  19774 31 003445   000126 470400 0                  LDP0    SOURCE$
        31 003446   400000 236007                    LDQ     -131072,DL
        31 003447   000000 256100                    ORSQ    0,,PR0

      989    19783    3          CALL Z8ED$DISPOSE_ABSSYN_TREE(CDECL$ -> LX_REPORT_REC.P.SOURCE$);

  19783 31 003450   000032 236000 0                  LDQ     CDECL$
        31 003451   000021 036003                    ADLQ    17,DU
        31 003452   000302 756000 0                  STQ     FIRST_LINE_SHOWN+1
        31 003453   000302 630400 0                  EPPR0   FIRST_LINE_SHOWN+1
        31 003454   000036 631400 32                 EPPR1   30
PL6.E3A0      #001=Z8DT$REPORT_REC File=Z8DT.:Z8A6TSI                            SAT 08/09/97 11:22 Page:207
        31 003455   000000 701000 xent               TSX1    Z8ED$DISPOSE_ABSSYN_TREE
        31 003456   000000 011000                    NOP     0

      990    19784    3          RETURN;

  19784 31 003457   000125 221200 0                  LDX1  ! SIGN$+1
        31 003460   000001 702211                    TSX2  ! 1,X1

      991    19785    3        END;
      992    19786
      993    19787    2      IF NOT REPORT_DATA.B.ELEMENTARY THEN

  19787 31 003461   000060 236000 0                  LDQ     REPORT_DATA+18
        31 003462   200000 316003                    CANQ    65536,DU
        31 003463   003521 601000 31                 TNZ     s:19827

      994    19788    3        DO;

      995    19789               %CONDITIONAL_ERROR (@LX_ITEM$ = SOURCE$,
      996    19790                                   @ERROR#   = %E$ERR_CLAUSE_IN_GROUP_ENTRY,
      997    19791                                   @LINE     = SOURCE$ -> LX_ITEM.LINE,
      998    19792                                   @COLUMN   = SOURCE$ -> LX_ITEM.COLUMN,
      999    19793                                   @PLUG1    = "DNT$_FROM_RSWNO(%RSV_WRD_SOURCE)");

  19803 31 003464   000126 475400 0                  LDP5    SOURCE$
        31 003465   500000 236100                    LDQ     0,,PR5
        31 003466   400000 316007                    CANQ    -131072,DL
        31 003467   003510 601000 31                 TNZ     s:19823

  19805 31 003470   000104 236000 32                 LDQ     68
        31 003471   000305 756000 0                  STQ     FIRST_LINE_SHOWN+4
        31 003472   000126 236000 0                  LDQ     SOURCE$
        31 003473   000006 036003                    ADLQ    6,DU
        31 003474   000304 756000 0                  STQ     FIRST_LINE_SHOWN+3
        31 003475   000126 236000 0                  LDQ     SOURCE$
        31 003476   000005 036003                    ADLQ    5,DU
        31 003477   000040 235000 32                 LDA     32
PL6.E3A0      #001=Z8DT$REPORT_REC File=Z8DT.:Z8A6TSI                            SAT 08/09/97 11:22 Page:208
        31 003500   000302 757000 0                  STAQ    FIRST_LINE_SHOWN+1
        31 003501   000302 630400 0                  EPPR0   FIRST_LINE_SHOWN+1
        31 003502   000011 631400 32                 EPPR1   9
        31 003503   000000 701000 xent               TSX1    Z8AE$ERROR
        31 003504   000000 011000                    NOP     0

  19814 31 003505   000126 470400 0                  LDP0    SOURCE$
        31 003506   400000 236007                    LDQ     -131072,DL
        31 003507   000000 256100                    ORSQ    0,,PR0

     1000    19823    3          CALL Z8ED$DISPOSE_ABSSYN_TREE(CDECL$ -> LX_REPORT_REC.P.SOURCE$);

  19823 31 003510   000032 236000 0                  LDQ     CDECL$
        31 003511   000021 036003                    ADLQ    17,DU
        31 003512   000302 756000 0                  STQ     FIRST_LINE_SHOWN+1
        31 003513   000302 630400 0                  EPPR0   FIRST_LINE_SHOWN+1
        31 003514   000036 631400 32                 EPPR1   30
        31 003515   000000 701000 xent               TSX1    Z8ED$DISPOSE_ABSSYN_TREE
        31 003516   000000 011000                    NOP     0

     1001    19824    3          RETURN;

  19824 31 003517   000125 221200 0                  LDX1  ! SIGN$+1
        31 003520   000001 702211                    TSX2  ! 1,X1

     1002    19825    3        END;
     1003    19826
     1004    19827    2      IF CDECL$ -> LX_REPORT_REC.P.VALUE$ ~= ADDR(NIL) THEN

  19827 31 003521   000010 236100                    LDQ     8,,PR0
        31 003522   000005 116000 32                 CMPQ    5
        31 003523   003563 600000 31                 TZE     s:19868

     1005    19828    3        DO;

     1006    19829               %CONDITIONAL_ERROR (@LX_ITEM$ = SOURCE$,
     1007    19830                                   @ERROR#   = %E$ERR_CLAUSE1_WITH_CLAUSE2,
PL6.E3A0      #001=Z8DT$REPORT_REC File=Z8DT.:Z8A6TSI                            SAT 08/09/97 11:22 Page:209
     1008    19831                                   @LINE     = SOURCE$ -> LX_ITEM.LINE,
     1009    19832                                   @COLUMN   = SOURCE$ -> LX_ITEM.COLUMN,
     1010    19833                                   @PLUG1    = "DNT$_FROM_RSWNO(%RSV_WRD_VALUE)",
     1011    19834                                   @PLUG2    = "DNT$_FROM_RSWNO(%RSV_WRD_SOURCE)");

  19844 31 003524   000126 475400 0                  LDP5    SOURCE$
        31 003525   500000 236100                    LDQ     0,,PR5
        31 003526   400000 316007                    CANQ    -131072,DL
        31 003527   003552 601000 31                 TNZ     s:19864

  19846 31 003530   000104 236000 32                 LDQ     68
        31 003531   000306 756000 0                  STQ     FIRST_LINE_SHOWN+5
        31 003532   000047 236000 32                 LDQ     39
        31 003533   000305 756000 0                  STQ     FIRST_LINE_SHOWN+4
        31 003534   000126 236000 0                  LDQ     SOURCE$
        31 003535   000006 036003                    ADLQ    6,DU
        31 003536   000304 756000 0                  STQ     FIRST_LINE_SHOWN+3
        31 003537   000126 236000 0                  LDQ     SOURCE$
        31 003540   000005 036003                    ADLQ    5,DU
        31 003541   000107 235000 32                 LDA     71
        31 003542   000302 757000 0                  STAQ    FIRST_LINE_SHOWN+1
        31 003543   000302 630400 0                  EPPR0   FIRST_LINE_SHOWN+1
        31 003544   000105 631400 32                 EPPR1   69
        31 003545   000000 701000 xent               TSX1    Z8AE$ERROR
        31 003546   000000 011000                    NOP     0

  19855 31 003547   000126 470400 0                  LDP0    SOURCE$
        31 003550   400000 236007                    LDQ     -131072,DL
        31 003551   000000 256100                    ORSQ    0,,PR0

     1012    19864    3          CALL Z8ED$DISPOSE_ABSSYN_TREE(CDECL$ -> LX_REPORT_REC.P.SOURCE$);

  19864 31 003552   000032 236000 0                  LDQ     CDECL$
        31 003553   000021 036003                    ADLQ    17,DU
        31 003554   000302 756000 0                  STQ     FIRST_LINE_SHOWN+1
        31 003555   000302 630400 0                  EPPR0   FIRST_LINE_SHOWN+1
        31 003556   000036 631400 32                 EPPR1   30
PL6.E3A0      #001=Z8DT$REPORT_REC File=Z8DT.:Z8A6TSI                            SAT 08/09/97 11:22 Page:210
        31 003557   000000 701000 xent               TSX1    Z8ED$DISPOSE_ABSSYN_TREE
        31 003560   000000 011000                    NOP     0

     1013    19865    3          RETURN;

  19865 31 003561   000125 221200 0                  LDX1  ! SIGN$+1
        31 003562   000001 702211                    TSX2  ! 1,X1

     1014    19866    3        END;
     1015    19867
     1016    19868    2      REPORT_DATA.B.SOURCE_PRESENTED = TRUE;

  19868 31 003563   200000 236007                    LDQ     65536,DL
        31 003564   000060 256000 0                  ORSQ    REPORT_DATA+18

     1017    19869
     1018    19870    2     END VALIDATE_SOURCE;

  19870 31 003565   000001 702211                    TSX2  ! 1,X1

     1019    19871          %EJECT;
PL6.E3A0      #001=Z8DT$REPORT_REC File=Z8DT.:Z8A6TSI                            SAT 08/09/97 11:22 Page:211
     1020    19872
     1021    19873        /*============*/
     1022    19874    1     VALIDATE_SUM: PROC;

  19874 31 003566   000127 741200 0     VALIDATE_SUM STX1  ! SOURCE$+1

     1023    19875        /*============*/
     1024    19876         /*
     1025    19877               NAME: VALIDATE_SUM
     1026    19878
     1027    19879           DESCRIPTION: This routine validated the SUM clause for the
     1028    19880                        data entry.
     1029    19881
     1030    19882          */
     1031    19883
     1032    19884
     1033    19885    2   DCL SUM$                   PTR;
     1034    19886    2    DCL COUNT                 SBIN WORD;
     1035    19887
     1036    19888
     1037    19889    2      SUM$ = CDECL$ -> LX_REPORT_REC.P.SUM$ -> LX_LIST.HEAD$;

  19889 31 003567   000032 470400 0                  LDP0    CDECL$
        31 003570   000022 471500                    LDP1    18,,PR0
        31 003571   100004 236100                    LDQ     4,,PR1
        31 003572   000130 756000 0                  STQ     SUM$

     1038    19890
     1039    19891    2      IF REPORT_DATA.LEVEL.CURRENT = %LEVEL_01 THEN

  19891 31 003573   000036 235000 0                  LDA     REPORT_DATA
        31 003574   000001 115007                    CMPA    1,DL
        31 003575   003633 601000 31                 TNZ     s:19931

     1040    19892    3        DO;

     1041    19893               %CONDITIONAL_ERROR (@LX_ITEM$ = SUM$,
PL6.E3A0      #001=Z8DT$REPORT_REC File=Z8DT.:Z8A6TSI                            SAT 08/09/97 11:22 Page:212
     1042    19894                                   @ERROR#   = %E$ERR_CLAUSE_IN_REP_01_ENTRY,
     1043    19895                                   @LINE     = SUM$ -> DEFERED_SUM_CLAUSE.LINE,
     1044    19896                                   @COLUMN   = SUM$ -> DEFERED_SUM_CLAUSE.COLUMN,
     1045    19897                                   @PLUG1    = "DNT$_FROM_RSWNO(%RSV_WRD_SUM)");

  19907 31 003576   000130 473400 0                  LDP3    SUM$
        31 003577   300000 236100                    LDQ     0,,PR3
        31 003600   400000 316007                    CANQ    -131072,DL
        31 003601   003622 601000 31                 TNZ     s:19927

  19909 31 003602   000110 236000 32                 LDQ     72
        31 003603   000305 756000 0                  STQ     FIRST_LINE_SHOWN+4
        31 003604   000130 236000 0                  LDQ     SUM$
        31 003605   000006 036003                    ADLQ    6,DU
        31 003606   000304 756000 0                  STQ     FIRST_LINE_SHOWN+3
        31 003607   000130 236000 0                  LDQ     SUM$
        31 003610   000005 036003                    ADLQ    5,DU
        31 003611   000035 235000 32                 LDA     29
        31 003612   000302 757000 0                  STAQ    FIRST_LINE_SHOWN+1
        31 003613   000302 630400 0                  EPPR0   FIRST_LINE_SHOWN+1
        31 003614   000011 631400 32                 EPPR1   9
        31 003615   000000 701000 xent               TSX1    Z8AE$ERROR
        31 003616   000000 011000                    NOP     0

  19918 31 003617   000130 470400 0                  LDP0    SUM$
        31 003620   400000 236007                    LDQ     -131072,DL
        31 003621   000000 256100                    ORSQ    0,,PR0

     1046    19927    3          CALL Z8ED$DISPOSE_ABSSYN_TREE(CDECL$ -> LX_REPORT_REC.P.SUM$);

  19927 31 003622   000032 236000 0                  LDQ     CDECL$
        31 003623   000022 036003                    ADLQ    18,DU
        31 003624   000302 756000 0                  STQ     FIRST_LINE_SHOWN+1
        31 003625   000302 630400 0                  EPPR0   FIRST_LINE_SHOWN+1
        31 003626   000036 631400 32                 EPPR1   30
        31 003627   000000 701000 xent               TSX1    Z8ED$DISPOSE_ABSSYN_TREE
        31 003630   000000 011000                    NOP     0
PL6.E3A0      #001=Z8DT$REPORT_REC File=Z8DT.:Z8A6TSI                            SAT 08/09/97 11:22 Page:213

     1047    19928    3          RETURN;

  19928 31 003631   000127 221200 0                  LDX1  ! SOURCE$+1
        31 003632   000001 702211                    TSX2  ! 1,X1

     1048    19929    3        END;
     1049    19930
     1050    19931    2      IF NOT REPORT_DATA.B.ELEMENTARY THEN

  19931 31 003633   000060 236000 0                  LDQ     REPORT_DATA+18
        31 003634   200000 316003                    CANQ    65536,DU
        31 003635   003673 601000 31                 TNZ     s:19971

     1051    19932    3        DO;

     1052    19933               %CONDITIONAL_ERROR (@LX_ITEM$ = SUM$,
     1053    19934                                   @ERROR#   = %E$ERR_CLAUSE_IN_GROUP_ENTRY,
     1054    19935                                   @LINE     = SUM$ -> DEFERED_SUM_CLAUSE.LINE,
     1055    19936                                   @COLUMN   = SUM$ -> DEFERED_SUM_CLAUSE.COLUMN,
     1056    19937                                   @PLUG1    = "DNT$_FROM_RSWNO(%RSV_WRD_SUM)");

  19947 31 003636   000130 473400 0                  LDP3    SUM$
        31 003637   300000 236100                    LDQ     0,,PR3
        31 003640   400000 316007                    CANQ    -131072,DL
        31 003641   003662 601000 31                 TNZ     s:19967

  19949 31 003642   000110 236000 32                 LDQ     72
        31 003643   000305 756000 0                  STQ     FIRST_LINE_SHOWN+4
        31 003644   000130 236000 0                  LDQ     SUM$
        31 003645   000006 036003                    ADLQ    6,DU
        31 003646   000304 756000 0                  STQ     FIRST_LINE_SHOWN+3
        31 003647   000130 236000 0                  LDQ     SUM$
        31 003650   000005 036003                    ADLQ    5,DU
        31 003651   000040 235000 32                 LDA     32
        31 003652   000302 757000 0                  STAQ    FIRST_LINE_SHOWN+1
        31 003653   000302 630400 0                  EPPR0   FIRST_LINE_SHOWN+1
PL6.E3A0      #001=Z8DT$REPORT_REC File=Z8DT.:Z8A6TSI                            SAT 08/09/97 11:22 Page:214
        31 003654   000011 631400 32                 EPPR1   9
        31 003655   000000 701000 xent               TSX1    Z8AE$ERROR
        31 003656   000000 011000                    NOP     0

  19958 31 003657   000130 470400 0                  LDP0    SUM$
        31 003660   400000 236007                    LDQ     -131072,DL
        31 003661   000000 256100                    ORSQ    0,,PR0

     1057    19967    3          CALL Z8ED$DISPOSE_ABSSYN_TREE(CDECL$ -> LX_REPORT_REC.P.SUM$);

  19967 31 003662   000032 236000 0                  LDQ     CDECL$
        31 003663   000022 036003                    ADLQ    18,DU
        31 003664   000302 756000 0                  STQ     FIRST_LINE_SHOWN+1
        31 003665   000302 630400 0                  EPPR0   FIRST_LINE_SHOWN+1
        31 003666   000036 631400 32                 EPPR1   30
        31 003667   000000 701000 xent               TSX1    Z8ED$DISPOSE_ABSSYN_TREE
        31 003670   000000 011000                    NOP     0

     1058    19968    3          RETURN;

  19968 31 003671   000127 221200 0                  LDX1  ! SOURCE$+1
        31 003672   000001 702211                    TSX2  ! 1,X1

     1059    19969    3        END;
     1060    19970
     1061    19971    2      IF CDECL$ -> LX_REPORT_REC.P.VALUE$ ~= ADDR(NIL) THEN

  19971 31 003673   000010 236100                    LDQ     8,,PR0
        31 003674   000005 116000 32                 CMPQ    5
        31 003675   003735 600000 31                 TZE     s:20012

     1062    19972    3        DO;

     1063    19973               %CONDITIONAL_ERROR (@LX_ITEM$ = SUM$,
     1064    19974                                   @ERROR#   = %E$ERR_CLAUSE1_WITH_CLAUSE2,
     1065    19975                                   @LINE     = SUM$ -> DEFERED_SUM_CLAUSE.LINE,
     1066    19976                                   @COLUMN   = SUM$ -> DEFERED_SUM_CLAUSE.COLUMN,
PL6.E3A0      #001=Z8DT$REPORT_REC File=Z8DT.:Z8A6TSI                            SAT 08/09/97 11:22 Page:215
     1067    19977                                   @PLUG1    = "DNT$_FROM_RSWNO(%RSV_WRD_VALUE)",
     1068    19978                                   @PLUG2    = "DNT$_FROM_RSWNO(%RSV_WRD_SUM)");

  19988 31 003676   000130 473400 0                  LDP3    SUM$
        31 003677   300000 236100                    LDQ     0,,PR3
        31 003700   400000 316007                    CANQ    -131072,DL
        31 003701   003724 601000 31                 TNZ     s:20008

  19990 31 003702   000110 236000 32                 LDQ     72
        31 003703   000306 756000 0                  STQ     FIRST_LINE_SHOWN+5
        31 003704   000047 236000 32                 LDQ     39
        31 003705   000305 756000 0                  STQ     FIRST_LINE_SHOWN+4
        31 003706   000130 236000 0                  LDQ     SUM$
        31 003707   000006 036003                    ADLQ    6,DU
        31 003710   000304 756000 0                  STQ     FIRST_LINE_SHOWN+3
        31 003711   000130 236000 0                  LDQ     SUM$
        31 003712   000005 036003                    ADLQ    5,DU
        31 003713   000107 235000 32                 LDA     71
        31 003714   000302 757000 0                  STAQ    FIRST_LINE_SHOWN+1
        31 003715   000302 630400 0                  EPPR0   FIRST_LINE_SHOWN+1
        31 003716   000105 631400 32                 EPPR1   69
        31 003717   000000 701000 xent               TSX1    Z8AE$ERROR
        31 003720   000000 011000                    NOP     0

  19999 31 003721   000130 470400 0                  LDP0    SUM$
        31 003722   400000 236007                    LDQ     -131072,DL
        31 003723   000000 256100                    ORSQ    0,,PR0

     1069    20008    3          CALL Z8ED$DISPOSE_ABSSYN_TREE(CDECL$ -> LX_REPORT_REC.P.SUM$);

  20008 31 003724   000032 236000 0                  LDQ     CDECL$
        31 003725   000022 036003                    ADLQ    18,DU
        31 003726   000302 756000 0                  STQ     FIRST_LINE_SHOWN+1
        31 003727   000302 630400 0                  EPPR0   FIRST_LINE_SHOWN+1
        31 003730   000036 631400 32                 EPPR1   30
        31 003731   000000 701000 xent               TSX1    Z8ED$DISPOSE_ABSSYN_TREE
        31 003732   000000 011000                    NOP     0
PL6.E3A0      #001=Z8DT$REPORT_REC File=Z8DT.:Z8A6TSI                            SAT 08/09/97 11:22 Page:216

     1070    20009    3          RETURN;

  20009 31 003733   000127 221200 0                  LDX1  ! SOURCE$+1
        31 003734   000001 702211                    TSX2  ! 1,X1

     1071    20010    3        END;
     1072    20011
     1073    20012    2      IF CDECL$ -> LX_REPORT_REC.P.SOURCE$ ~= ADDR(NIL) THEN

  20012 31 003735   000021 236100                    LDQ     17,,PR0
        31 003736   000005 116000 32                 CMPQ    5
        31 003737   003777 600000 31                 TZE     s:20053

     1074    20013    3        DO;

     1075    20014               %CONDITIONAL_ERROR (@LX_ITEM$ = SUM$,
     1076    20015                                   @ERROR#   = %E$ERR_CLAUSE1_WITH_CLAUSE2,
     1077    20016                                   @LINE     = SUM$ -> DEFERED_SUM_CLAUSE.LINE,
     1078    20017                                   @COLUMN   = SUM$ -> DEFERED_SUM_CLAUSE.COLUMN,
     1079    20018                                   @PLUG1    = "DNT$_FROM_RSWNO(%RSV_WRD_SOURCE)",
     1080    20019                                   @PLUG2    = "DNT$_FROM_RSWNO(%RSV_WRD_SUM)");

  20029 31 003740   000130 473400 0                  LDP3    SUM$
        31 003741   300000 236100                    LDQ     0,,PR3
        31 003742   400000 316007                    CANQ    -131072,DL
        31 003743   003766 601000 31                 TNZ     s:20049

  20031 31 003744   000110 236000 32                 LDQ     72
        31 003745   000306 756000 0                  STQ     FIRST_LINE_SHOWN+5
        31 003746   000104 236000 32                 LDQ     68
        31 003747   000305 756000 0                  STQ     FIRST_LINE_SHOWN+4
        31 003750   000130 236000 0                  LDQ     SUM$
        31 003751   000006 036003                    ADLQ    6,DU
        31 003752   000304 756000 0                  STQ     FIRST_LINE_SHOWN+3
        31 003753   000130 236000 0                  LDQ     SUM$
        31 003754   000005 036003                    ADLQ    5,DU
PL6.E3A0      #001=Z8DT$REPORT_REC File=Z8DT.:Z8A6TSI                            SAT 08/09/97 11:22 Page:217
        31 003755   000107 235000 32                 LDA     71
        31 003756   000302 757000 0                  STAQ    FIRST_LINE_SHOWN+1
        31 003757   000302 630400 0                  EPPR0   FIRST_LINE_SHOWN+1
        31 003760   000105 631400 32                 EPPR1   69
        31 003761   000000 701000 xent               TSX1    Z8AE$ERROR
        31 003762   000000 011000                    NOP     0

  20040 31 003763   000130 470400 0                  LDP0    SUM$
        31 003764   400000 236007                    LDQ     -131072,DL
        31 003765   000000 256100                    ORSQ    0,,PR0

     1081    20049    3          CALL Z8ED$DISPOSE_ABSSYN_TREE(CDECL$ -> LX_REPORT_REC.P.SUM$);

  20049 31 003766   000032 236000 0                  LDQ     CDECL$
        31 003767   000022 036003                    ADLQ    18,DU
        31 003770   000302 756000 0                  STQ     FIRST_LINE_SHOWN+1
        31 003771   000302 630400 0                  EPPR0   FIRST_LINE_SHOWN+1
        31 003772   000036 631400 32                 EPPR1   30
        31 003773   000000 701000 xent               TSX1    Z8ED$DISPOSE_ABSSYN_TREE
        31 003774   000000 011000                    NOP     0

     1082    20050    3          RETURN;

  20050 31 003775   000127 221200 0                  LDX1  ! SOURCE$+1
        31 003776   000001 702211                    TSX2  ! 1,X1

     1083    20051    3        END;
     1084    20052
     1085    20053    3      DO CASE(REP_STK.GROUP_TYPE(1));

  20053 31 003777   000007 235000 xsym               LDA     REP_STK+7
        31 004000   000006 135007                    SBLA    6,DL
        31 004001   000002 115007                    CMPA    2,DL
        31 004002   004004 602005 31                 TNC     s:20053+5,AL
        31 004003   004006 710000 31                 TRA     s:20072
        31 004004   004041 710000 31                 TRA     s:20097
        31 004005   004041 710000 31                 TRA     s:20097
PL6.E3A0      #001=Z8DT$REPORT_REC File=Z8DT.:Z8A6TSI                            SAT 08/09/97 11:22 Page:218

     1086    20054    3        CASE (%CONTROL_FOOTING, %CONTROL_FOOTING_FINAL);

     1087    20055                 /* OK */
     1088    20056
     1089    20057    3        CASE (ELSE);

     1090    20058    4          DO;

     1091    20059                 %CONDITIONAL_ERROR (@LX_ITEM$ = SUM$,
     1092    20060                                     @ERROR#   = %E$SUM_MUST_IN_CF,
     1093    20061                                     @LINE     = SUM$ -> DEFERED_SUM_CLAUSE.LINE,
     1094    20062                                     @COLUMN   = SUM$ -> DEFERED_SUM_CLAUSE.COLUMN);

  20072 31 004006   000130 473400 0                  LDP3    SUM$
        31 004007   300000 236100                    LDQ     0,,PR3
        31 004010   400000 316007                    CANQ    -131072,DL
        31 004011   004030 601000 31                 TNZ     s:20092

  20074 31 004012   000130 236000 0                  LDQ     SUM$
        31 004013   000006 036003                    ADLQ    6,DU
        31 004014   000304 756000 0                  STQ     FIRST_LINE_SHOWN+3
        31 004015   000130 236000 0                  LDQ     SUM$
        31 004016   000005 036003                    ADLQ    5,DU
        31 004017   000112 235000 32                 LDA     74
        31 004020   000302 757000 0                  STAQ    FIRST_LINE_SHOWN+1
        31 004021   000302 630400 0                  EPPR0   FIRST_LINE_SHOWN+1
        31 004022   000006 631400 32                 EPPR1   6
        31 004023   000000 701000 xent               TSX1    Z8AE$ERROR
        31 004024   000000 011000                    NOP     0

  20083 31 004025   000130 470400 0                  LDP0    SUM$
        31 004026   400000 236007                    LDQ     -131072,DL
        31 004027   000000 256100                    ORSQ    0,,PR0

     1095    20092    4            CALL Z8ED$DISPOSE_ABSSYN_TREE(CDECL$ -> LX_REPORT_REC.P.SUM$);

PL6.E3A0      #001=Z8DT$REPORT_REC File=Z8DT.:Z8A6TSI                            SAT 08/09/97 11:22 Page:219
  20092 31 004030   000032 236000 0                  LDQ     CDECL$
        31 004031   000022 036003                    ADLQ    18,DU
        31 004032   000302 756000 0                  STQ     FIRST_LINE_SHOWN+1
        31 004033   000302 630400 0                  EPPR0   FIRST_LINE_SHOWN+1
        31 004034   000036 631400 32                 EPPR1   30
        31 004035   000000 701000 xent               TSX1    Z8ED$DISPOSE_ABSSYN_TREE
        31 004036   000000 011000                    NOP     0

     1096    20093    4            RETURN;

  20093 31 004037   000127 221200 0                  LDX1  ! SOURCE$+1
        31 004040   000001 702211                    TSX2  ! 1,X1

     1097    20094    4          END;
     1098    20095    3      END; /* end cases */

     1099    20096
     1100    20097    2      COUNT = CDECL$ -> LX_REPORT_REC.P.SUM$ -> LX_LIST.COUNT;

  20097 31 004041   100002 235100                    LDA     2,,PR1
        31 004042   000131 755000 0                  STA     COUNT

     1101    20098    2      IF COUNT > 1  THEN

  20098 31 004043   000001 115007                    CMPA    1,DL
        31 004044   004117 604400 31                 TMOZ    s:20117

     1102    20099    3        DO;

     1103    20100    3          SUM$ = CDECL$ -> LX_REPORT_REC.P.SUM$ -> LX_LIST.HEAD$;

  20100 31 004045   100004 236100                    LDQ     4,,PR1
        31 004046   000130 756000 0                  STQ     SUM$

     1104    20101    4          DO I = 1 TO COUNT - 1;

  20101 31 004047   000001 235007                    LDA     1,DL
PL6.E3A0      #001=Z8DT$REPORT_REC File=Z8DT.:Z8A6TSI                            SAT 08/09/97 11:22 Page:220
        31 004050   000035 755000 0                  STA     I
        31 004051   004114 710000 31                 TRA     s:20114+1

     1105    20102    4            IF SUM$ -> DEFERED_SUM_CLAUSE.SUM_RESET$ ~= ADDR(NIL) THEN

  20102 31 004052   000130 470400 0                  LDP0    SUM$
        31 004053   000004 236100                    LDQ     4,,PR0
        31 004054   000005 116000 32                 CMPQ    5
        31 004055   004110 600000 31                 TZE     s:20113

     1106    20103    5              DO;

     1107    20104    5                IF SUM$ -> DEFERED_SUM_CLAUSE.B.RESET_ID THEN

  20104 31 004056   000000 236100                    LDQ     0,,PR0
        31 004057   200000 316007                    CANQ    65536,DL
        31 004060   004065 600000 31                 TZE     s:20107

     1108    20105    5                  P$ = SUM$ -> DEFERED_SUM_CLAUSE.SUM_RESET$ -> LX_LIST.HEAD$;

  20105 31 004061   000004 471500                    LDP1    4,,PR0
        31 004062   100004 236100                    LDQ     4,,PR1
        31 004063   000034 756000 0                  STQ     P$
        31 004064   004067 710000 31                 TRA     s:20108

     1109    20106    5                ELSE
     1110    20107    5                  P$ = SUM$ -> DEFERED_SUM_CLAUSE.SUM_RESET$;

  20107 31 004065   000004 236100                    LDQ     4,,PR0
        31 004066   000034 756000 0                  STQ     P$

     1111    20108    5                CALL Z8AE$ERROR (%E$ERR_RESET_IN_SUM,

  20108 31 004067   000006 036003                    ADLQ    6,DU
        31 004070   000304 756000 0                  STQ     FIRST_LINE_SHOWN+3
        31 004071   000034 236000 0                  LDQ     P$
        31 004072   000005 036003                    ADLQ    5,DU
PL6.E3A0      #001=Z8DT$REPORT_REC File=Z8DT.:Z8A6TSI                            SAT 08/09/97 11:22 Page:221
        31 004073   000114 235000 32                 LDA     76
        31 004074   000302 757000 0                  STAQ    FIRST_LINE_SHOWN+1
        31 004075   000302 630400 0                  EPPR0   FIRST_LINE_SHOWN+1
        31 004076   000006 631400 32                 EPPR1   6
        31 004077   000000 701000 xent               TSX1    Z8AE$ERROR
        31 004100   000000 011000                    NOP     0

     1112    20109    5                                 P$ -> LX_ITEM.LINE,
     1113    20110    5                                 P$ -> LX_ITEM.COLUMN);
     1114    20111    5                CALL Z8ED$DISPOSE_ABSSYN_TREE(SUM$ -> DEFERED_SUM_CLAUSE.SUM_RESET$);

  20111 31 004101   000130 236000 0                  LDQ     SUM$
        31 004102   000004 036003                    ADLQ    4,DU
        31 004103   000302 756000 0                  STQ     FIRST_LINE_SHOWN+1
        31 004104   000302 630400 0                  EPPR0   FIRST_LINE_SHOWN+1
        31 004105   000036 631400 32                 EPPR1   30
        31 004106   000000 701000 xent               TSX1    Z8ED$DISPOSE_ABSSYN_TREE
        31 004107   000000 011000                    NOP     0

     1115    20112    5              END;

     1116    20113    4            SUM$ = SUM$ -> DEFERED_SUM_CLAUSE.LINK;

  20113 31 004110   000130 470400 0                  LDP0    SUM$
        31 004111   000007 236100                    LDQ     7,,PR0
        31 004112   000130 756000 0                  STQ     SUM$

     1117    20114    4          END;

  20114 31 004113   000035 054000 0                  AOS     I
        31 004114   000035 236000 0                  LDQ     I
        31 004115   000131 116000 0                  CMPQ    COUNT
        31 004116   004052 604000 31                 TMI     s:20102

     1118    20115    3        END;

     1119    20116
PL6.E3A0      #001=Z8DT$REPORT_REC File=Z8DT.:Z8A6TSI                            SAT 08/09/97 11:22 Page:222
     1120    20117    2       IF COMCOM.OB.FIPS.RPW THEN

  20117 31 004117   000036 236000 xsym               LDQ     COMCOM+30
        31 004120   040000 316003                    CANQ    16384,DU
        31 004121   004135 600000 31                 TZE     s:20122

     1121    20118    2         CALL Z8AE$ERROR (%E$LEVEL_CHECK,

  20118 31 004122   000130 236000 0                  LDQ     SUM$
        31 004123   000006 036003                    ADLQ    6,DU
        31 004124   000304 756000 0                  STQ     FIRST_LINE_SHOWN+3
        31 004125   000130 236000 0                  LDQ     SUM$
        31 004126   000005 036003                    ADLQ    5,DU
        31 004127   000116 235000 32                 LDA     78
        31 004130   000302 757000 0                  STAQ    FIRST_LINE_SHOWN+1
        31 004131   000302 630400 0                  EPPR0   FIRST_LINE_SHOWN+1
        31 004132   000006 631400 32                 EPPR1   6
        31 004133   000000 701000 xent               TSX1    Z8AE$ERROR
        31 004134   000000 011000                    NOP     0

     1122    20119    2                          SUM$ -> DEFERED_SUM_CLAUSE.LINE,
     1123    20120    2                          SUM$ -> DEFERED_SUM_CLAUSE.COLUMN);
     1124    20121
     1125    20122    2      REPORT_DATA.B.SUM_PRESENTED = TRUE;

  20122 31 004135   400000 236007                    LDQ     -131072,DL
        31 004136   000060 256000 0                  ORSQ    REPORT_DATA+18

     1126    20123
     1127    20124    2     END VALIDATE_SUM;

  20124 31 004137   000127 221200 0                  LDX1  ! SOURCE$+1
        31 004140   000001 702211                    TSX2  ! 1,X1

     1128    20125          %EJECT;
PL6.E3A0      #001=Z8DT$REPORT_REC File=Z8DT.:Z8A6TSI                            SAT 08/09/97 11:22 Page:223
     1129    20126
     1130    20127        /*=======================*/
     1131    20128    1     VALIDATE_GROUP_INDICATE: PROC;

  20128 31 004141   000132 741200 0     VALIDATE_GR* STX1  ! COUNT+1

     1132    20129        /*=======================*/
     1133    20130         /*
     1134    20131               NAME: VALIDATE_GROUP_INDICATE
     1135    20132
     1136    20133           DESCRIPTION: This routine validated the GROUP INDICATE clause
     1137    20134                        of this data entry.
     1138    20135
     1139    20136          */
     1140    20137
     1141    20138
     1142    20139    2   DCL GROUP_IND$                    PTR;
     1143    20140
     1144    20141
     1145    20142
     1146    20143    2      GROUP_IND$ = CDECL$ -> LX_REPORT_REC.P.GROUP_INDICATE$;

  20143 31 004142   000032 470400 0                  LDP0    CDECL$
        31 004143   000020 236100                    LDQ     16,,PR0
        31 004144   000133 756000 0                  STQ     GROUP_IND$

     1147    20144
     1148    20145    2      IF REPORT_DATA.LEVEL.CURRENT = %LEVEL_01 THEN

  20145 31 004145   000036 235000 0                  LDA     REPORT_DATA
        31 004146   000001 115007                    CMPA    1,DL
        31 004147   004205 601000 31                 TNZ     s:20185

     1149    20146    3        DO;

     1150    20147               %CONDITIONAL_ERROR (@LX_ITEM$ = GROUP_IND$,
     1151    20148                                   @ERROR#   = %E$ERR_CLAUSE_IN_REP_01_ENTRY,
PL6.E3A0      #001=Z8DT$REPORT_REC File=Z8DT.:Z8A6TSI                            SAT 08/09/97 11:22 Page:224
     1152    20149                                   @LINE     = GROUP_IND$ -> LX_ITEM.LINE,
     1153    20150                                   @COLUMN   = GROUP_IND$ -> LX_ITEM.COLUMN,
     1154    20151                                   @PLUG1    = "DNT$_FROM_RSWNO(%RSV_WRD_GROUP)");

  20161 31 004150   000133 471400 0                  LDP1    GROUP_IND$
        31 004151   100000 236100                    LDQ     0,,PR1
        31 004152   400000 316007                    CANQ    -131072,DL
        31 004153   004174 601000 31                 TNZ     s:20181

  20163 31 004154   000117 236000 32                 LDQ     79
        31 004155   000305 756000 0                  STQ     FIRST_LINE_SHOWN+4
        31 004156   000133 236000 0                  LDQ     GROUP_IND$
        31 004157   000006 036003                    ADLQ    6,DU
        31 004160   000304 756000 0                  STQ     FIRST_LINE_SHOWN+3
        31 004161   000133 236000 0                  LDQ     GROUP_IND$
        31 004162   000005 036003                    ADLQ    5,DU
        31 004163   000035 235000 32                 LDA     29
        31 004164   000302 757000 0                  STAQ    FIRST_LINE_SHOWN+1
        31 004165   000302 630400 0                  EPPR0   FIRST_LINE_SHOWN+1
        31 004166   000011 631400 32                 EPPR1   9
        31 004167   000000 701000 xent               TSX1    Z8AE$ERROR
        31 004170   000000 011000                    NOP     0

  20172 31 004171   000133 470400 0                  LDP0    GROUP_IND$
        31 004172   400000 236007                    LDQ     -131072,DL
        31 004173   000000 256100                    ORSQ    0,,PR0

     1155    20181    3          CALL Z8ED$DISPOSE_ABSSYN_TREE(CDECL$ -> LX_REPORT_REC.P.GROUP_INDICATE$);

  20181 31 004174   000032 236000 0                  LDQ     CDECL$
        31 004175   000020 036003                    ADLQ    16,DU
        31 004176   000302 756000 0                  STQ     FIRST_LINE_SHOWN+1
        31 004177   000302 630400 0                  EPPR0   FIRST_LINE_SHOWN+1
        31 004200   000036 631400 32                 EPPR1   30
        31 004201   000000 701000 xent               TSX1    Z8ED$DISPOSE_ABSSYN_TREE
        31 004202   000000 011000                    NOP     0

PL6.E3A0      #001=Z8DT$REPORT_REC File=Z8DT.:Z8A6TSI                            SAT 08/09/97 11:22 Page:225
     1156    20182    3          RETURN;

  20182 31 004203   000132 221200 0                  LDX1  ! COUNT+1
        31 004204   000001 702211                    TSX2  ! 1,X1

     1157    20183    3        END;
     1158    20184
     1159    20185    2      IF NOT REPORT_DATA.B.ELEMENTARY THEN

  20185 31 004205   000060 236000 0                  LDQ     REPORT_DATA+18
        31 004206   200000 316003                    CANQ    65536,DU
        31 004207   004245 601000 31                 TNZ     s:20226

     1160    20186    3        DO;

     1161    20187               %CONDITIONAL_ERROR (@LX_ITEM$ = GROUP_IND$,
     1162    20188                                   @ERROR#   = %E$ERR_CLAUSE_IN_GROUP_ENTRY,
     1163    20189                                   @LINE     = GROUP_IND$ -> LX_ITEM.LINE,
     1164    20190                                   @COLUMN   = GROUP_IND$ -> LX_ITEM.COLUMN,
     1165    20191                                   @PLUG1    = "DNT$_FROM_RSWNO(%RSV_WRD_GROUP)");

  20201 31 004210   000133 471400 0                  LDP1    GROUP_IND$
        31 004211   100000 236100                    LDQ     0,,PR1
        31 004212   400000 316007                    CANQ    -131072,DL
        31 004213   004234 601000 31                 TNZ     s:20221

  20203 31 004214   000117 236000 32                 LDQ     79
        31 004215   000305 756000 0                  STQ     FIRST_LINE_SHOWN+4
        31 004216   000133 236000 0                  LDQ     GROUP_IND$
        31 004217   000006 036003                    ADLQ    6,DU
        31 004220   000304 756000 0                  STQ     FIRST_LINE_SHOWN+3
        31 004221   000133 236000 0                  LDQ     GROUP_IND$
        31 004222   000005 036003                    ADLQ    5,DU
        31 004223   000040 235000 32                 LDA     32
        31 004224   000302 757000 0                  STAQ    FIRST_LINE_SHOWN+1
        31 004225   000302 630400 0                  EPPR0   FIRST_LINE_SHOWN+1
        31 004226   000011 631400 32                 EPPR1   9
PL6.E3A0      #001=Z8DT$REPORT_REC File=Z8DT.:Z8A6TSI                            SAT 08/09/97 11:22 Page:226
        31 004227   000000 701000 xent               TSX1    Z8AE$ERROR
        31 004230   000000 011000                    NOP     0

  20212 31 004231   000133 470400 0                  LDP0    GROUP_IND$
        31 004232   400000 236007                    LDQ     -131072,DL
        31 004233   000000 256100                    ORSQ    0,,PR0

     1166    20221    3          CALL Z8ED$DISPOSE_ABSSYN_TREE(CDECL$ -> LX_REPORT_REC.P.GROUP_INDICATE$);

  20221 31 004234   000032 236000 0                  LDQ     CDECL$
        31 004235   000020 036003                    ADLQ    16,DU
        31 004236   000302 756000 0                  STQ     FIRST_LINE_SHOWN+1
        31 004237   000302 630400 0                  EPPR0   FIRST_LINE_SHOWN+1
        31 004240   000036 631400 32                 EPPR1   30
        31 004241   000000 701000 xent               TSX1    Z8ED$DISPOSE_ABSSYN_TREE
        31 004242   000000 011000                    NOP     0

     1167    20222    3          RETURN;

  20222 31 004243   000132 221200 0                  LDX1  ! COUNT+1
        31 004244   000001 702211                    TSX2  ! 1,X1

     1168    20223    3        END;
     1169    20224
     1170    20225
     1171    20226    2      IF REP_STK.GROUP_TYPE(1) ~= %TYPE_DETAIL  THEN

  20226 31 004245   000007 235000 xsym               LDA     REP_STK+7
        31 004246   000005 115007                    CMPA    5,DL
        31 004247   004303 600000 31                 TZE     s:20266

     1172    20227    3        DO;

     1173    20228               %CONDITIONAL_ERROR (@LX_ITEM$ = GROUP_IND$,
     1174    20229                                   @ERROR#   = %E$GROUP_IND_IN_DETAIL_ONLY,
     1175    20230                                   @LINE     = GROUP_IND$ -> LX_ITEM.LINE,
     1176    20231                                   @COLUMN   = GROUP_IND$ -> LX_ITEM.COLUMN);
PL6.E3A0      #001=Z8DT$REPORT_REC File=Z8DT.:Z8A6TSI                            SAT 08/09/97 11:22 Page:227

  20241 31 004250   000133 471400 0                  LDP1    GROUP_IND$
        31 004251   100000 236100                    LDQ     0,,PR1
        31 004252   400000 316007                    CANQ    -131072,DL
        31 004253   004272 601000 31                 TNZ     s:20261

  20243 31 004254   000133 236000 0                  LDQ     GROUP_IND$
        31 004255   000006 036003                    ADLQ    6,DU
        31 004256   000304 756000 0                  STQ     FIRST_LINE_SHOWN+3
        31 004257   000133 236000 0                  LDQ     GROUP_IND$
        31 004260   000005 036003                    ADLQ    5,DU
        31 004261   000121 235000 32                 LDA     81
        31 004262   000302 757000 0                  STAQ    FIRST_LINE_SHOWN+1
        31 004263   000302 630400 0                  EPPR0   FIRST_LINE_SHOWN+1
        31 004264   000006 631400 32                 EPPR1   6
        31 004265   000000 701000 xent               TSX1    Z8AE$ERROR
        31 004266   000000 011000                    NOP     0

  20252 31 004267   000133 470400 0                  LDP0    GROUP_IND$
        31 004270   400000 236007                    LDQ     -131072,DL
        31 004271   000000 256100                    ORSQ    0,,PR0

     1177    20261    3          CALL Z8ED$DISPOSE_ABSSYN_TREE(CDECL$ -> LX_REPORT_REC.P.GROUP_INDICATE$);

  20261 31 004272   000032 236000 0                  LDQ     CDECL$
        31 004273   000020 036003                    ADLQ    16,DU
        31 004274   000302 756000 0                  STQ     FIRST_LINE_SHOWN+1
        31 004275   000302 630400 0                  EPPR0   FIRST_LINE_SHOWN+1
        31 004276   000036 631400 32                 EPPR1   30
        31 004277   000000 701000 xent               TSX1    Z8ED$DISPOSE_ABSSYN_TREE
        31 004300   000000 011000                    NOP     0

     1178    20262    3          RETURN;

  20262 31 004301   000132 221200 0                  LDX1  ! COUNT+1
        31 004302   000001 702211                    TSX2  ! 1,X1

PL6.E3A0      #001=Z8DT$REPORT_REC File=Z8DT.:Z8A6TSI                            SAT 08/09/97 11:22 Page:228
     1179    20263    3        END;
     1180    20264
     1181    20265
     1182    20266    2      IF CDECL$ -> LX_REPORT_REC.P.COLUMN_NUMBER$ = ADDR(NIL)  THEN

  20266 31 004303   000017 236100                    LDQ     15,,PR0
        31 004304   000005 116000 32                 CMPQ    5
        31 004305   004341 601000 31                 TNZ     s:20305

     1183    20267    3        DO;

     1184    20268               %CONDITIONAL_ERROR (@LX_ITEM$ = GROUP_IND$,
     1185    20269                                   @ERROR#   = %E$GROUP_IND_IN_PRINTABLE_ONLY,
     1186    20270                                   @LINE     = GROUP_IND$ -> LX_ITEM.LINE,
     1187    20271                                   @COLUMN   = GROUP_IND$ -> LX_ITEM.COLUMN);

  20281 31 004306   000133 471400 0                  LDP1    GROUP_IND$
        31 004307   100000 236100                    LDQ     0,,PR1
        31 004310   400000 316007                    CANQ    -131072,DL
        31 004311   004330 601000 31                 TNZ     s:20301

  20283 31 004312   000133 236000 0                  LDQ     GROUP_IND$
        31 004313   000006 036003                    ADLQ    6,DU
        31 004314   000304 756000 0                  STQ     FIRST_LINE_SHOWN+3
        31 004315   000133 236000 0                  LDQ     GROUP_IND$
        31 004316   000005 036003                    ADLQ    5,DU
        31 004317   000123 235000 32                 LDA     83
        31 004320   000302 757000 0                  STAQ    FIRST_LINE_SHOWN+1
        31 004321   000302 630400 0                  EPPR0   FIRST_LINE_SHOWN+1
        31 004322   000006 631400 32                 EPPR1   6
        31 004323   000000 701000 xent               TSX1    Z8AE$ERROR
        31 004324   000000 011000                    NOP     0

  20292 31 004325   000133 470400 0                  LDP0    GROUP_IND$
        31 004326   400000 236007                    LDQ     -131072,DL
        31 004327   000000 256100                    ORSQ    0,,PR0

PL6.E3A0      #001=Z8DT$REPORT_REC File=Z8DT.:Z8A6TSI                            SAT 08/09/97 11:22 Page:229
     1188    20301    3          CALL Z8ED$DISPOSE_ABSSYN_TREE(CDECL$ -> LX_REPORT_REC.P.GROUP_INDICATE$);

  20301 31 004330   000032 236000 0                  LDQ     CDECL$
        31 004331   000020 036003                    ADLQ    16,DU
        31 004332   000302 756000 0                  STQ     FIRST_LINE_SHOWN+1
        31 004333   000302 630400 0                  EPPR0   FIRST_LINE_SHOWN+1
        31 004334   000036 631400 32                 EPPR1   30
        31 004335   000000 701000 xent               TSX1    Z8ED$DISPOSE_ABSSYN_TREE
        31 004336   000000 011000                    NOP     0

     1189    20302    3          RETURN;

  20302 31 004337   000132 221200 0                  LDX1  ! COUNT+1
        31 004340   000001 702211                    TSX2  ! 1,X1

     1190    20303    3        END;
     1191    20304
     1192    20305    2       IF COMCOM.OB.FIPS.RPW THEN

  20305 31 004341   000036 236000 xsym               LDQ     COMCOM+30
        31 004342   040000 316003                    CANQ    16384,DU
        31 004343   004357 600000 31                 TZE     s:20310

     1193    20306    2         CALL Z8AE$ERROR (%E$LEVEL_CHECK,

  20306 31 004344   000133 236000 0                  LDQ     GROUP_IND$
        31 004345   000006 036003                    ADLQ    6,DU
        31 004346   000304 756000 0                  STQ     FIRST_LINE_SHOWN+3
        31 004347   000133 236000 0                  LDQ     GROUP_IND$
        31 004350   000005 036003                    ADLQ    5,DU
        31 004351   000116 235000 32                 LDA     78
        31 004352   000302 757000 0                  STAQ    FIRST_LINE_SHOWN+1
        31 004353   000302 630400 0                  EPPR0   FIRST_LINE_SHOWN+1
        31 004354   000006 631400 32                 EPPR1   6
        31 004355   000000 701000 xent               TSX1    Z8AE$ERROR
        31 004356   000000 011000                    NOP     0

PL6.E3A0      #001=Z8DT$REPORT_REC File=Z8DT.:Z8A6TSI                            SAT 08/09/97 11:22 Page:230
     1194    20307    2                          GROUP_IND$ -> LX_ITEM.LINE,
     1195    20308    2                          GROUP_IND$ -> LX_ITEM.COLUMN);
     1196    20309
     1197    20310    2       REPORT_DATA.B.GROUP_INDICATE = TRUE;

  20310 31 004357   000100 236003                    LDQ     64,DU
        31 004360   000060 256000 0                  ORSQ    REPORT_DATA+18

     1198    20311
     1199    20312    2       REP_STK.LTS$(1) -> REPORT_01_LTS.B.GROUP_INDICATE = TRUE;

  20312 31 004361   000006 470400 xsym               LDP0    REP_STK+6
        31 004362   020000 236007                    LDQ     8192,DL
        31 004363   000000 256100                    ORSQ    0,,PR0

     1200    20313
     1201    20314
     1202    20315    2     END VALIDATE_GROUP_INDICATE;

  20315 31 004364   000132 221200 0                  LDX1  ! COUNT+1
        31 004365   000001 702211                    TSX2  ! 1,X1

     1203    20316          %EJECT;
PL6.E3A0      #001=Z8DT$REPORT_REC File=Z8DT.:Z8A6TSI                            SAT 08/09/97 11:22 Page:231
     1204    20317
     1205    20318         /*===================*/
     1206    20319    1      VALIDATE_GROUP_TYPE:  PROC;

  20319 31 004366   000134 741200 0     VALIDATE_GR* STX1  ! GROUP_IND$+1

     1207    20320         /*===================*/
     1208    20321         /*
     1209    20322               NAME: VALIDATE_GROUP_TYPE
     1210    20323
     1211    20324           DESCRIPTION: This routine validated the TYPE clause for the
     1212    20325                        report group.
     1213    20326
     1214    20327          */
     1215    20328
     1216    20329
     1217    20330    2     DCL TYPE$                   PTR;
     1218    20331    2     DCL LTS$$                   PTR;
     1219    20332    2     DCL QUAL_ID$                PTR;
     1220    20333    2     DCL ST$$                    PTR;
     1221    20334    2     DCL CTR_LTS$                PTR;
     1222    20335
     1223    20336
     1224    20337    2      TYPE$ = CDECL$ -> LX_REPORT_REC.P.TYPE$;

  20337 31 004367   000032 470400 0                  LDP0    CDECL$
        31 004370   000013 236100                    LDQ     11,,PR0
        31 004371   000135 756000 0                  STQ     TYPE$

     1225    20338    2      LTS$$ = O1COM.CURRENT_REPORT_LTS$;

  20338 31 004372   000064 236000 xsym               LDQ     O1COM+52
        31 004373   000136 756000 0                  STQ     LTS$$

     1226    20339    2      IF TYPE$ -> LX_ITEM.ID = %LX_LIST THEN

  20339 31 004374   000135 471400 0                  LDP1    TYPE$
PL6.E3A0      #001=Z8DT$REPORT_REC File=Z8DT.:Z8A6TSI                            SAT 08/09/97 11:22 Page:232
        31 004375   100000 220100                    LDX0    0,,PR1
        31 004376   000002 100003                    CMPX0   2,DU
        31 004377   004402 601000 31                 TNZ     s:20342

     1227    20340    2        TYPE$ = TYPE$ -> LX_LIST.HEAD$;

  20340 31 004400   100004 236100                    LDQ     4,,PR1
        31 004401   000135 756000 0                  STQ     TYPE$

     1228    20341
     1229    20342    2      IF REPORT_DATA.LEVEL.CURRENT ~= %LEVEL_01 THEN

  20342 31 004402   000036 235000 0                  LDA     REPORT_DATA
        31 004403   000001 115007                    CMPA    1,DL
        31 004404   004427 600000 31                 TZE     s:20350

     1230    20343    3        DO;

     1231    20344    3          CALL Z8AE$ERROR (%E$TYPE_IN_01_ONLY,

  20344 31 004405   000135 236000 0                  LDQ     TYPE$
        31 004406   000006 036003                    ADLQ    6,DU
        31 004407   000304 756000 0                  STQ     FIRST_LINE_SHOWN+3
        31 004410   000135 236000 0                  LDQ     TYPE$
        31 004411   000005 036003                    ADLQ    5,DU
        31 004412   000125 235000 32                 LDA     85
        31 004413   000302 757000 0                  STAQ    FIRST_LINE_SHOWN+1
        31 004414   000302 630400 0                  EPPR0   FIRST_LINE_SHOWN+1
        31 004415   000006 631400 32                 EPPR1   6
        31 004416   000000 701000 xent               TSX1    Z8AE$ERROR
        31 004417   000000 011000                    NOP     0

     1232    20345    3                           TYPE$ -> LX_ITEM.LINE,
     1233    20346    3                           TYPE$ -> LX_ITEM.COLUMN);
     1234    20347    3          CALL Z8ED$DISPOSE_ABSSYN_TREE(CDECL$ -> LX_REPORT_REC.P.TYPE$);

  20347 31 004420   000032 236000 0                  LDQ     CDECL$
PL6.E3A0      #001=Z8DT$REPORT_REC File=Z8DT.:Z8A6TSI                            SAT 08/09/97 11:22 Page:233
        31 004421   000013 036003                    ADLQ    11,DU
        31 004422   000302 756000 0                  STQ     FIRST_LINE_SHOWN+1
        31 004423   000302 630400 0                  EPPR0   FIRST_LINE_SHOWN+1
        31 004424   000036 631400 32                 EPPR1   30
        31 004425   000000 701000 xent               TSX1    Z8ED$DISPOSE_ABSSYN_TREE
        31 004426   000000 011000                    NOP     0

     1235    20348    3        END;

     1236    20349
     1237    20350    2      REPORT_DATA.GROUP_TYPE = CDECL$ -> LX_REPORT_REC.D.REPORT_TYPE;

  20350 31 004427   000032 470400 0                  LDP0    CDECL$
        31 004430   000001 235100                    LDA     1,,PR0
        31 004431   000045 755000 0                  STA     REPORT_DATA+7

     1238    20351    3      DO CASE (REPORT_DATA.GROUP_TYPE);

  20351 31 004432   000012 115007                    CMPA    10,DL
        31 004433   004435 602005 31                 TNC     s:20351+3,AL
        31 004434   004743 710000 31                 TRA     s:20449
        31 004435   004743 710000 31                 TRA     s:20449
        31 004436   004447 710000 31                 TRA     s:20353
        31 004437   004467 710000 31                 TRA     s:20361
        31 004440   004747 710000 31                 TRA     s:20453
        31 004441   004605 710000 31                 TRA     s:20401
        31 004442   004747 710000 31                 TRA     s:20453
        31 004443   004747 710000 31                 TRA     s:20453
        31 004444   004664 710000 31                 TRA     s:20422
        31 004445   004526 710000 31                 TRA     s:20377
        31 004446   004565 710000 31                 TRA     s:20393

     1239    20352    3        CASE (%REPORT_HEADING);

     1240    20353    3          IF LTS$$ -> REPORT_LTS.REPORT_HEADING$ ~= ADDR(NIL) THEN

  20353 31 004447   000136 471400 0                  LDP1    LTS$$
PL6.E3A0      #001=Z8DT$REPORT_REC File=Z8DT.:Z8A6TSI                            SAT 08/09/97 11:22 Page:234
        31 004450   100023 236100                    LDQ     19,,PR1
        31 004451   000005 116000 32                 CMPQ    5
        31 004452   004747 600000 31                 TZE     s:20453

     1241    20354    4            DO;

     1242    20355    4              CALL Z8AE$ERROR (%E$ONE_REPORT_HEADING_ONLY,

  20355 31 004453   000135 236000 0                  LDQ     TYPE$
        31 004454   000006 036003                    ADLQ    6,DU
        31 004455   000304 756000 0                  STQ     FIRST_LINE_SHOWN+3
        31 004456   000135 236000 0                  LDQ     TYPE$
        31 004457   000005 036003                    ADLQ    5,DU
        31 004460   000127 235000 32                 LDA     87
        31 004461   000302 757000 0                  STAQ    FIRST_LINE_SHOWN+1
        31 004462   000302 630400 0                  EPPR0   FIRST_LINE_SHOWN+1
        31 004463   000006 631400 32                 EPPR1   6
        31 004464   000000 701000 xent               TSX1    Z8AE$ERROR
        31 004465   000000 011000                    NOP     0

     1243    20356    4                               TYPE$ -> LX_ITEM.LINE,
     1244    20357    4                               TYPE$ -> LX_ITEM.COLUMN);
     1245    20358    4            END;

  20358 31 004466   004747 710000 31                 TRA     s:20453

     1246    20359
     1247    20360    3        CASE (%PAGE_HEADING);

     1248    20361    3          IF LTS$$ -> REPORT_LTS.PAGE_HEADING$ ~= ADDR(NIL) THEN

  20361 31 004467   000136 471400 0                  LDP1    LTS$$
        31 004470   100024 236100                    LDQ     20,,PR1
        31 004471   000005 116000 32                 CMPQ    5
        31 004472   004507 600000 31                 TZE     s:20368

     1249    20362    4            DO;
PL6.E3A0      #001=Z8DT$REPORT_REC File=Z8DT.:Z8A6TSI                            SAT 08/09/97 11:22 Page:235

     1250    20363    4              CALL Z8AE$ERROR (%E$ONE_PAGE_HEADING_ONLY,

  20363 31 004473   000135 236000 0                  LDQ     TYPE$
        31 004474   000006 036003                    ADLQ    6,DU
        31 004475   000304 756000 0                  STQ     FIRST_LINE_SHOWN+3
        31 004476   000135 236000 0                  LDQ     TYPE$
        31 004477   000005 036003                    ADLQ    5,DU
        31 004500   000131 235000 32                 LDA     89
        31 004501   000302 757000 0                  STAQ    FIRST_LINE_SHOWN+1
        31 004502   000302 630400 0                  EPPR0   FIRST_LINE_SHOWN+1
        31 004503   000006 631400 32                 EPPR1   6
        31 004504   000000 701000 xent               TSX1    Z8AE$ERROR
        31 004505   000000 011000                    NOP     0

     1251    20364    4                               TYPE$ -> LX_ITEM.LINE,
     1252    20365    4                               TYPE$ -> LX_ITEM.COLUMN);
     1253    20366    4            END;

  20366 31 004506   004747 710000 31                 TRA     s:20453

     1254    20367    3          ELSE
     1255    20368    3            IF NOT LTS$$ -> REPORT_LTS.B.PAGE_LIMIT_ON THEN

  20368 31 004507   100003 236100                    LDQ     3,,PR1
        31 004510   100000 316003                    CANQ    32768,DU
        31 004511   004747 601000 31                 TNZ     s:20453

     1256    20369    4              DO;

     1257    20370    4                CALL Z8AE$ERROR (%E$ONLY_W_PAGE_IN_RD,

  20370 31 004512   000135 236000 0                  LDQ     TYPE$
        31 004513   000006 036003                    ADLQ    6,DU
        31 004514   000304 756000 0                  STQ     FIRST_LINE_SHOWN+3
        31 004515   000135 236000 0                  LDQ     TYPE$
        31 004516   000005 036003                    ADLQ    5,DU
PL6.E3A0      #001=Z8DT$REPORT_REC File=Z8DT.:Z8A6TSI                            SAT 08/09/97 11:22 Page:236
        31 004517   000133 235000 32                 LDA     91
        31 004520   000302 757000 0                  STAQ    FIRST_LINE_SHOWN+1
        31 004521   000302 630400 0                  EPPR0   FIRST_LINE_SHOWN+1
        31 004522   000006 631400 32                 EPPR1   6
        31 004523   000000 701000 xent               TSX1    Z8AE$ERROR
        31 004524   000000 011000                    NOP     0

     1258    20371    4                                 TYPE$ -> LX_ITEM.LINE,
     1259    20372    4                                 TYPE$ -> LX_ITEM.COLUMN);
     1260    20373    4              END;

  20373 31 004525   004747 710000 31                 TRA     s:20453

     1261    20374
     1262    20375
     1263    20376    3        CASE (%PAGE_FOOTING);

     1264    20377    3          IF LTS$$ -> REPORT_LTS.PAGE_FOOTING$ ~= ADDR(NIL) THEN

  20377 31 004526   000136 471400 0                  LDP1    LTS$$
        31 004527   100032 236100                    LDQ     26,,PR1
        31 004530   000005 116000 32                 CMPQ    5
        31 004531   004546 600000 31                 TZE     s:20384

     1265    20378    4            DO;

     1266    20379    4              CALL Z8AE$ERROR (%E$ONE_PAGE_FOOTING_ONLY,

  20379 31 004532   000135 236000 0                  LDQ     TYPE$
        31 004533   000006 036003                    ADLQ    6,DU
        31 004534   000304 756000 0                  STQ     FIRST_LINE_SHOWN+3
        31 004535   000135 236000 0                  LDQ     TYPE$
        31 004536   000005 036003                    ADLQ    5,DU
        31 004537   000135 235000 32                 LDA     93
        31 004540   000302 757000 0                  STAQ    FIRST_LINE_SHOWN+1
        31 004541   000302 630400 0                  EPPR0   FIRST_LINE_SHOWN+1
        31 004542   000006 631400 32                 EPPR1   6
PL6.E3A0      #001=Z8DT$REPORT_REC File=Z8DT.:Z8A6TSI                            SAT 08/09/97 11:22 Page:237
        31 004543   000000 701000 xent               TSX1    Z8AE$ERROR
        31 004544   000000 011000                    NOP     0

     1267    20380    4                               TYPE$ -> LX_ITEM.LINE,
     1268    20381    4                               TYPE$ -> LX_ITEM.COLUMN);
     1269    20382    4            END;

  20382 31 004545   004747 710000 31                 TRA     s:20453

     1270    20383    3          ELSE
     1271    20384    3            IF NOT LTS$$ -> REPORT_LTS.B.PAGE_LIMIT_ON THEN

  20384 31 004546   100003 236100                    LDQ     3,,PR1
        31 004547   100000 316003                    CANQ    32768,DU
        31 004550   004747 601000 31                 TNZ     s:20453

     1272    20385    4              DO;

     1273    20386    4                CALL Z8AE$ERROR (%E$ONLY_W_PAGE_IN_RD,

  20386 31 004551   000135 236000 0                  LDQ     TYPE$
        31 004552   000006 036003                    ADLQ    6,DU
        31 004553   000304 756000 0                  STQ     FIRST_LINE_SHOWN+3
        31 004554   000135 236000 0                  LDQ     TYPE$
        31 004555   000005 036003                    ADLQ    5,DU
        31 004556   000133 235000 32                 LDA     91
        31 004557   000302 757000 0                  STAQ    FIRST_LINE_SHOWN+1
        31 004560   000302 630400 0                  EPPR0   FIRST_LINE_SHOWN+1
        31 004561   000006 631400 32                 EPPR1   6
        31 004562   000000 701000 xent               TSX1    Z8AE$ERROR
        31 004563   000000 011000                    NOP     0

     1274    20387    4                                 TYPE$ -> LX_ITEM.LINE,
     1275    20388    4                                 TYPE$ -> LX_ITEM.COLUMN);
     1276    20389    4              END;

  20389 31 004564   004747 710000 31                 TRA     s:20453
PL6.E3A0      #001=Z8DT$REPORT_REC File=Z8DT.:Z8A6TSI                            SAT 08/09/97 11:22 Page:238

     1277    20390
     1278    20391
     1279    20392    3        CASE (%REPORT_FOOTING);

     1280    20393    3          IF LTS$$ -> REPORT_LTS.REPORT_FOOTING$ ~= ADDR(NIL) THEN

  20393 31 004565   000136 471400 0                  LDP1    LTS$$
        31 004566   100033 236100                    LDQ     27,,PR1
        31 004567   000005 116000 32                 CMPQ    5
        31 004570   004747 600000 31                 TZE     s:20453

     1281    20394    4            DO;

     1282    20395    4              CALL Z8AE$ERROR (%E$ONE_REPORT_FOOTING_ONLY,

  20395 31 004571   000135 236000 0                  LDQ     TYPE$
        31 004572   000006 036003                    ADLQ    6,DU
        31 004573   000304 756000 0                  STQ     FIRST_LINE_SHOWN+3
        31 004574   000135 236000 0                  LDQ     TYPE$
        31 004575   000005 036003                    ADLQ    5,DU
        31 004576   000137 235000 32                 LDA     95
        31 004577   000302 757000 0                  STAQ    FIRST_LINE_SHOWN+1
        31 004600   000302 630400 0                  EPPR0   FIRST_LINE_SHOWN+1
        31 004601   000006 631400 32                 EPPR1   6
        31 004602   000000 701000 xent               TSX1    Z8AE$ERROR
        31 004603   000000 011000                    NOP     0

     1283    20396    4                               TYPE$ -> LX_ITEM.LINE,
     1284    20397    4                               TYPE$ -> LX_ITEM.COLUMN);
     1285    20398    4            END;

  20398 31 004604   004747 710000 31                 TRA     s:20453

     1286    20399
     1287    20400    3        CASE (%CONTROL_HEADING_FINAL);

PL6.E3A0      #001=Z8DT$REPORT_REC File=Z8DT.:Z8A6TSI                            SAT 08/09/97 11:22 Page:239
     1288    20401    3            CTR_LTS$ = LTS$$ -> REPORT_LTS.CONTROL_FINAL$;

  20401 31 004605   000136 471400 0                  LDP1    LTS$$
        31 004606   100006 236100                    LDQ     6,,PR1
        31 004607   000141 756000 0                  STQ     CTR_LTS$

     1289    20402
     1290    20403    3            IF NOT LTS$$ -> REPORT_LTS.B.CONTROL_FINAL THEN

  20403 31 004610   100003 236100                    LDQ     3,,PR1
        31 004611   200000 316003                    CANQ    65536,DU
        31 004612   004626 601000 31                 TNZ     s:20410

     1291    20404    4              DO;

     1292    20405    4                CALL Z8AE$ERROR (%E$ONLY_CONTROL_FINAL_IN_RD,

  20405 31 004613   000135 236000 0                  LDQ     TYPE$
        31 004614   000006 036003                    ADLQ    6,DU
        31 004615   000304 756000 0                  STQ     FIRST_LINE_SHOWN+3
        31 004616   000135 236000 0                  LDQ     TYPE$
        31 004617   000005 036003                    ADLQ    5,DU
        31 004620   000141 235000 32                 LDA     97
        31 004621   000302 757000 0                  STAQ    FIRST_LINE_SHOWN+1
        31 004622   000302 630400 0                  EPPR0   FIRST_LINE_SHOWN+1
        31 004623   000006 631400 32                 EPPR1   6
        31 004624   000000 701000 xent               TSX1    Z8AE$ERROR
        31 004625   000000 011000                    NOP     0

     1293    20406    4                                 TYPE$ -> LX_ITEM.LINE,
     1294    20407    4                                 TYPE$ -> LX_ITEM.COLUMN);
     1295    20408    4              END;

     1296    20409
     1297    20410    3          IF LTS$$ -> REPORT_LTS.CONTROL_HEADING_FINAL$ ~= ADDR(NIL) THEN

  20410 31 004626   000136 470400 0                  LDP0    LTS$$
PL6.E3A0      #001=Z8DT$REPORT_REC File=Z8DT.:Z8A6TSI                            SAT 08/09/97 11:22 Page:240
        31 004627   000025 236100                    LDQ     21,,PR0
        31 004630   000005 116000 32                 CMPQ    5
        31 004631   004651 600000 31                 TZE     s:20418

     1298    20411    4            DO;

     1299    20412    4              CALL Z8AE$ERROR (%E$ONE_CONTROL_HEAD_FINAL_ONLY,

  20412 31 004632   000135 236000 0                  LDQ     TYPE$
        31 004633   000006 036003                    ADLQ    6,DU
        31 004634   000304 756000 0                  STQ     FIRST_LINE_SHOWN+3
        31 004635   000135 236000 0                  LDQ     TYPE$
        31 004636   000005 036003                    ADLQ    5,DU
        31 004637   000143 235000 32                 LDA     99
        31 004640   000302 757000 0                  STAQ    FIRST_LINE_SHOWN+1
        31 004641   000302 630400 0                  EPPR0   FIRST_LINE_SHOWN+1
        31 004642   000006 631400 32                 EPPR1   6
        31 004643   000000 701000 xent               TSX1    Z8AE$ERROR
        31 004644   000000 011000                    NOP     0

     1300    20413    4                               TYPE$ -> LX_ITEM.LINE,
     1301    20414    4                               TYPE$ -> LX_ITEM.COLUMN);
     1302    20415
     1303    20416    4              CALL CTR_LTS_RECOVER (CTR_LTS$);

  20416 31 004645   000144 236000 32                 LDQ     100
        31 004646   000143 756000 0                  STQ     CTR_LTS$+2
        31 004647   004751 701000 31                 TSX1    CTR_LTS_RECOVER
        31 004650   000000 011000                    NOP     0

     1304    20417    4            END;

     1305    20418    3          CALL Z8ED$DISPOSE_ABSSYN_TREE (CDECL$ -> LX_REPORT_REC.P.TYPE$);

  20418 31 004651   000032 236000 0                  LDQ     CDECL$
        31 004652   000013 036003                    ADLQ    11,DU
        31 004653   000302 756000 0                  STQ     FIRST_LINE_SHOWN+1
PL6.E3A0      #001=Z8DT$REPORT_REC File=Z8DT.:Z8A6TSI                            SAT 08/09/97 11:22 Page:241
        31 004654   000302 630400 0                  EPPR0   FIRST_LINE_SHOWN+1
        31 004655   000036 631400 32                 EPPR1   30
        31 004656   000000 701000 xent               TSX1    Z8ED$DISPOSE_ABSSYN_TREE
        31 004657   000000 011000                    NOP     0

     1306    20419    3          CDECL$ -> LX_REPORT_REC.P.TYPE$ = CTR_LTS$;

  20419 31 004660   000141 236000 0                  LDQ     CTR_LTS$
        31 004661   000032 470400 0                  LDP0    CDECL$
        31 004662   000013 756100                    STQ     11,,PR0
        31 004663   004747 710000 31                 TRA     s:20453

     1307    20420
     1308    20421    3        CASE (%CONTROL_FOOTING_FINAL);

     1309    20422    3            CTR_LTS$ = LTS$$ -> REPORT_LTS.CONTROL_FINAL$;

  20422 31 004664   000136 471400 0                  LDP1    LTS$$
        31 004665   100006 236100                    LDQ     6,,PR1
        31 004666   000141 756000 0                  STQ     CTR_LTS$

     1310    20423
     1311    20424    3            IF NOT LTS$$ -> REPORT_LTS.B.CONTROL_FINAL THEN

  20424 31 004667   100003 236100                    LDQ     3,,PR1
        31 004670   200000 316003                    CANQ    65536,DU
        31 004671   004705 601000 31                 TNZ     s:20431

     1312    20425    4              DO;

     1313    20426    4                CALL Z8AE$ERROR (%E$ONLY_CONTROL_FINAL_IN_RD,

  20426 31 004672   000135 236000 0                  LDQ     TYPE$
        31 004673   000006 036003                    ADLQ    6,DU
        31 004674   000304 756000 0                  STQ     FIRST_LINE_SHOWN+3
        31 004675   000135 236000 0                  LDQ     TYPE$
        31 004676   000005 036003                    ADLQ    5,DU
PL6.E3A0      #001=Z8DT$REPORT_REC File=Z8DT.:Z8A6TSI                            SAT 08/09/97 11:22 Page:242
        31 004677   000141 235000 32                 LDA     97
        31 004700   000302 757000 0                  STAQ    FIRST_LINE_SHOWN+1
        31 004701   000302 630400 0                  EPPR0   FIRST_LINE_SHOWN+1
        31 004702   000006 631400 32                 EPPR1   6
        31 004703   000000 701000 xent               TSX1    Z8AE$ERROR
        31 004704   000000 011000                    NOP     0

     1314    20427    4                                 TYPE$ -> LX_ITEM.LINE,
     1315    20428    4                                 TYPE$ -> LX_ITEM.COLUMN);
     1316    20429    4              END;

     1317    20430
     1318    20431    3          IF LTS$$ -> REPORT_LTS.CONTROL_FOOTING_FINAL$ ~= ADDR(NIL) THEN

  20431 31 004705   000136 470400 0                  LDP0    LTS$$
        31 004706   000031 236100                    LDQ     25,,PR0
        31 004707   000005 116000 32                 CMPQ    5
        31 004710   004730 600000 31                 TZE     s:20439

     1319    20432    4            DO;

     1320    20433    4              CALL Z8AE$ERROR (%E$ONE_CONTROL_FOOT_FINAL_ONLY,

  20433 31 004711   000135 236000 0                  LDQ     TYPE$
        31 004712   000006 036003                    ADLQ    6,DU
        31 004713   000304 756000 0                  STQ     FIRST_LINE_SHOWN+3
        31 004714   000135 236000 0                  LDQ     TYPE$
        31 004715   000005 036003                    ADLQ    5,DU
        31 004716   000146 235000 32                 LDA     102
        31 004717   000302 757000 0                  STAQ    FIRST_LINE_SHOWN+1
        31 004720   000302 630400 0                  EPPR0   FIRST_LINE_SHOWN+1
        31 004721   000006 631400 32                 EPPR1   6
        31 004722   000000 701000 xent               TSX1    Z8AE$ERROR
        31 004723   000000 011000                    NOP     0

     1321    20434    4                               TYPE$ -> LX_ITEM.LINE,
     1322    20435    4                               TYPE$ -> LX_ITEM.COLUMN);
PL6.E3A0      #001=Z8DT$REPORT_REC File=Z8DT.:Z8A6TSI                            SAT 08/09/97 11:22 Page:243
     1323    20436
     1324    20437    4              CALL CTR_LTS_RECOVER (CTR_LTS$);

  20437 31 004724   000144 236000 32                 LDQ     100
        31 004725   000143 756000 0                  STQ     CTR_LTS$+2
        31 004726   004751 701000 31                 TSX1    CTR_LTS_RECOVER
        31 004727   000000 011000                    NOP     0

     1325    20438    4            END;

     1326    20439    3          CALL Z8ED$DISPOSE_ABSSYN_TREE (CDECL$ -> LX_REPORT_REC.P.TYPE$);

  20439 31 004730   000032 236000 0                  LDQ     CDECL$
        31 004731   000013 036003                    ADLQ    11,DU
        31 004732   000302 756000 0                  STQ     FIRST_LINE_SHOWN+1
        31 004733   000302 630400 0                  EPPR0   FIRST_LINE_SHOWN+1
        31 004734   000036 631400 32                 EPPR1   30
        31 004735   000000 701000 xent               TSX1    Z8ED$DISPOSE_ABSSYN_TREE
        31 004736   000000 011000                    NOP     0

     1327    20440    3          CDECL$ -> LX_REPORT_REC.P.TYPE$ = CTR_LTS$;

  20440 31 004737   000141 236000 0                  LDQ     CTR_LTS$
        31 004740   000032 470400 0                  LDP0    CDECL$
        31 004741   000013 756100                    STQ     11,,PR0
        31 004742   004747 710000 31                 TRA     s:20453

     1328    20441
     1329    20442    3        CASE (%CONTROL_HEADING, %CONTROL_FOOTING);

     1330    20443               /* NO PROCESS HERE */
     1331    20444
     1332    20445    3        CASE (%TYPE_DETAIL);

     1333    20446               /* OK */
     1334    20447
     1335    20448    3        CASE (ELSE);
PL6.E3A0      #001=Z8DT$REPORT_REC File=Z8DT.:Z8A6TSI                            SAT 08/09/97 11:22 Page:244

     1336    20449    3          CALL Z8AE$ERROR (%E$UNEXPECTED_CASE);

  20449 31 004743   000061 630400 32                 EPPR0   49
        31 004744   000036 631400 32                 EPPR1   30
        31 004745   000000 701000 xent               TSX1    Z8AE$ERROR
        31 004746   000000 011000                    NOP     0

     1337    20450
     1338    20451    3      END;  /* DO CASE */

     1339    20452
     1340    20453    2    END VALIDATE_GROUP_TYPE;

  20453 31 004747   000134 221200 0                  LDX1  ! GROUP_IND$+1
        31 004750   000001 702211                    TSX2  ! 1,X1

     1341    20454         %EJECT;
PL6.E3A0      #001=Z8DT$REPORT_REC File=Z8DT.:Z8A6TSI                            SAT 08/09/97 11:22 Page:245
     1342    20455
     1343    20456         /*===============*/
     1344    20457    1      CTR_LTS_RECOVER: PROC (CTR_LTS$);

  20457 31 004751   000142 741200 0     CTR_LTS_REC* STX1  ! CTR_LTS$+1

     1345    20458         /*===============*/
     1346    20459         /*
     1347    20460               NAME: CTR_LTS_RECOVER
     1348    20461
     1349    20462           DESCRIPTION: This routine creates a CONTROL_NAME_LTS for the
     1350    20463                        control item created for the error recovery.
     1351    20464          */
     1352    20465
     1353    20466    2      DCL CTR_LTS$        PTR;
     1354    20467    2      DCL NEXT$           PTR;
     1355    20468
     1356    20469
     1357    20470    2      NEXT$ = O1COM.CURRENT_REPORT_LTS$ -> REPORT_LTS.CONTROL_ERROR$;

  20470 31 004752   000064 470400 xsym               LDP0    O1COM+52
        31 004753   000007 236100                    LDQ     7,,PR0
        31 004754   000144 756000 0                  STQ     NEXT$

     1358    20471
     1359    20472    2      IF NEXT$ = ADDR(NIL) THEN

  20472 31 004755   000005 116000 32                 CMPQ    5
        31 004756   005104 601000 31                 TNZ     s:20586

     1360    20473    3        DO;

     1361    20474               %NEW_CONTROL_NAME_LTS (@POINTER =
             20474                   O1COM.CURRENT_REPORT_LTS$ -> REPORT_LTS.CONTROL_ERROR$);

  20553 31 004757   000002 236000 8                  LDQ     LTS_+2
        31 004760   000017 036007                    ADLQ    15,DL
PL6.E3A0      #001=Z8DT$REPORT_REC File=Z8DT.:Z8A6TSI                            SAT 08/09/97 11:22 Page:246
        31 004761   000003 116000 8                  CMPQ    LTS_+3
        31 004762   004773 604000 31                 TMI     s:20555

  20554 31 004763   000147 236000 32                 LDQ     103
        31 004764   000302 756000 0                  STQ     FIRST_LINE_SHOWN+1
        31 004765   000302 631400 0                  EPPR1   FIRST_LINE_SHOWN+1
        31 004766   000303 451400 0                  STP1    FIRST_LINE_SHOWN+2
        31 004767   000303 630400 0                  EPPR0   FIRST_LINE_SHOWN+2
        31 004770   000036 631400 32                 EPPR1   30
        31 004771   000000 701000 xent               TSX1    Z8AR$RESERVER
        31 004772   000000 011000                    NOP     0

  20555 31 004773   000002 236000 8                  LDQ     LTS_+2
        31 004774   000022 736000                    QLS     18
        31 004775   000001 036000 8                  ADLQ    LTS_+1
        31 004776   000064 470400 xsym               LDP0    O1COM+52
        31 004777   000007 756100                    STQ     7,,PR0

  20556 31 005000   000017 236007                    LDQ     15,DL
        31 005001   000002 056000 8                  ASQ     LTS_+2

  20557 31 005002   000064 470400 xsym               LDP0    O1COM+52
        31 005003   000007 471500                    LDP1    7,,PR0
        31 005004   001077 220003                    LDX0    575,DU
        31 005005   100000 740100                    STX0    0,,PR1

  20563 31 005006   000064 470400 xsym               LDP0    O1COM+52
        31 005007   000007 471500                    LDP1    7,,PR0
        31 005010   100000 740100                    STX0    0,,PR1

  20564 31 005011   000064 470400 xsym               LDP0    O1COM+52
        31 005012   000007 471500                    LDP1    7,,PR0
        31 005013   000005 236000 32                 LDQ     5
        31 005014   100001 756100                    STQ     1,,PR1

  20565 31 005015   000064 470400 xsym               LDP0    O1COM+52
        31 005016   000007 471500                    LDP1    7,,PR0
PL6.E3A0      #001=Z8DT$REPORT_REC File=Z8DT.:Z8A6TSI                            SAT 08/09/97 11:22 Page:247
        31 005017   000005 236000 32                 LDQ     5
        31 005020   100013 756100                    STQ     11,,PR1

  20566 31 005021   000064 470400 xsym               LDP0    O1COM+52
        31 005022   000007 471500                    LDP1    7,,PR0
        31 005023   100014 756100                    STQ     12,,PR1

  20567 31 005024   000064 470400 xsym               LDP0    O1COM+52
        31 005025   000007 471500                    LDP1    7,,PR0
        31 005026   100015 756100                    STQ     13,,PR1

  20568 31 005027   000064 470400 xsym               LDP0    O1COM+52
        31 005030   000007 471500                    LDP1    7,,PR0
        31 005031   100002 756100                    STQ     2,,PR1

  20569 31 005032   000064 470400 xsym               LDP0    O1COM+52
        31 005033   000007 471500                    LDP1    7,,PR0
        31 005034   000005 236000 32                 LDQ     5
        31 005035   100003 756100                    STQ     3,,PR1

  20570 31 005036   000064 470400 xsym               LDP0    O1COM+52
        31 005037   000007 471500                    LDP1    7,,PR0
        31 005040   000005 236000 32                 LDQ     5
        31 005041   100004 756100                    STQ     4,,PR1

  20571 31 005042   000064 470400 xsym               LDP0    O1COM+52
        31 005043   000007 471500                    LDP1    7,,PR0
        31 005044   000005 236000 32                 LDQ     5
        31 005045   100005 756100                    STQ     5,,PR1

  20572 31 005046   000064 470400 xsym               LDP0    O1COM+52
        31 005047   000007 471500                    LDP1    7,,PR0
        31 005050   000005 236000 32                 LDQ     5
        31 005051   100006 756100                    STQ     6,,PR1

  20573 31 005052   000064 470400 xsym               LDP0    O1COM+52
        31 005053   000007 471500                    LDP1    7,,PR0
PL6.E3A0      #001=Z8DT$REPORT_REC File=Z8DT.:Z8A6TSI                            SAT 08/09/97 11:22 Page:248
        31 005054   100011 756100                    STQ     9,,PR1

  20574 31 005055   000064 470400 xsym               LDP0    O1COM+52
        31 005056   000007 471500                    LDP1    7,,PR0
        31 005057   100012 756100                    STQ     10,,PR1

  20575 31 005060   000064 470400 xsym               LDP0    O1COM+52
        31 005061   000007 471500                    LDP1    7,,PR0
        31 005062   100007 450100                    STZ     7,,PR1

  20576 31 005063   000064 470400 xsym               LDP0    O1COM+52
        31 005064   000007 471500                    LDP1    7,,PR0
        31 005065   100016 450100                    STZ     14,,PR1

  20577 31 005066   000064 470400 xsym               LDP0    O1COM+52
        31 005067   000007 471500                    LDP1    7,,PR0
        31 005070   000000 221003                    LDX1    0,DU
        31 005071   100000 441100                    SXL1    0,,PR1

  20578 31 005072   000064 470400 xsym               LDP0    O1COM+52
        31 005073   000007 471500                    LDP1    7,,PR0
        31 005074   000005 236000 32                 LDQ     5
        31 005075   100010 756100                    STQ     8,,PR1

     1362    20581
     1363    20582    3          CTR_LTS$ = O1COM.CURRENT_REPORT_LTS$ -> REPORT_LTS.CONTROL_ERROR$;

  20582 31 005076   000064 470400 xsym               LDP0    O1COM+52
        31 005077   000007 236100                    LDQ     7,,PR0
        31 005100   000143 471400 0                  LDP1    @CTR_LTS$
        31 005101   100000 756100                    STQ     0,,PR1

     1364    20583    3          RETURN;

  20583 31 005102   000142 221200 0                  LDX1  ! CTR_LTS$+1
        31 005103   000001 702211                    TSX2  ! 1,X1

PL6.E3A0      #001=Z8DT$REPORT_REC File=Z8DT.:Z8A6TSI                            SAT 08/09/97 11:22 Page:249
     1365    20584    3        END;
     1366    20585
     1367    20586    3      DO WHILE (NEXT$ -> CONTROL_NAME_LTS.LINK ~= ADDR(NIL));

  20586 31 005104   005110 710000 31                 TRA     s:20590

     1368    20587
     1369    20588    3          NEXT$ = NEXT$ -> CONTROL_NAME_LTS.LINK;

  20588 31 005105   000144 470400 0                  LDP0    NEXT$
        31 005106   000010 236100                    LDQ     8,,PR0
        31 005107   000144 756000 0                  STQ     NEXT$

     1370    20589
     1371    20590    3      END;

  20590 31 005110   000144 470400 0                  LDP0    NEXT$
        31 005111   000010 236100                    LDQ     8,,PR0
        31 005112   000005 116000 32                 CMPQ    5
        31 005113   005105 601000 31                 TNZ     s:20588

     1372    20591
     1373    20592           %NEW_CONTROL_NAME_LTS (@POINTER = NEXT$ -> CONTROL_NAME_LTS.LINK);

  20671 31 005114   000002 236000 8                  LDQ     LTS_+2
        31 005115   000017 036007                    ADLQ    15,DL
        31 005116   000003 116000 8                  CMPQ    LTS_+3
        31 005117   005130 604000 31                 TMI     s:20673

  20672 31 005120   000147 236000 32                 LDQ     103
        31 005121   000302 756000 0                  STQ     FIRST_LINE_SHOWN+1
        31 005122   000302 631400 0                  EPPR1   FIRST_LINE_SHOWN+1
        31 005123   000303 451400 0                  STP1    FIRST_LINE_SHOWN+2
        31 005124   000303 630400 0                  EPPR0   FIRST_LINE_SHOWN+2
        31 005125   000036 631400 32                 EPPR1   30
        31 005126   000000 701000 xent               TSX1    Z8AR$RESERVER
        31 005127   000000 011000                    NOP     0
PL6.E3A0      #001=Z8DT$REPORT_REC File=Z8DT.:Z8A6TSI                            SAT 08/09/97 11:22 Page:250

  20673 31 005130   000002 236000 8                  LDQ     LTS_+2
        31 005131   000022 736000                    QLS     18
        31 005132   000001 036000 8                  ADLQ    LTS_+1
        31 005133   000144 470400 0                  LDP0    NEXT$
        31 005134   000010 756100                    STQ     8,,PR0

  20674 31 005135   000017 236007                    LDQ     15,DL
        31 005136   000002 056000 8                  ASQ     LTS_+2

  20675 31 005137   000010 471500                    LDP1    8,,PR0
        31 005140   001077 220003                    LDX0    575,DU
        31 005141   100000 740100                    STX0    0,,PR1

  20681 31 005142   000010 471500                    LDP1    8,,PR0
        31 005143   100000 740100                    STX0    0,,PR1

  20682 31 005144   000010 471500                    LDP1    8,,PR0
        31 005145   000005 236000 32                 LDQ     5
        31 005146   100001 756100                    STQ     1,,PR1

  20683 31 005147   000010 471500                    LDP1    8,,PR0
        31 005150   000005 236000 32                 LDQ     5
        31 005151   100013 756100                    STQ     11,,PR1

  20684 31 005152   000010 471500                    LDP1    8,,PR0
        31 005153   100014 756100                    STQ     12,,PR1

  20685 31 005154   000010 471500                    LDP1    8,,PR0
        31 005155   100015 756100                    STQ     13,,PR1

  20686 31 005156   000010 471500                    LDP1    8,,PR0
        31 005157   100002 756100                    STQ     2,,PR1

  20687 31 005160   000010 471500                    LDP1    8,,PR0
        31 005161   000005 236000 32                 LDQ     5
        31 005162   100003 756100                    STQ     3,,PR1
PL6.E3A0      #001=Z8DT$REPORT_REC File=Z8DT.:Z8A6TSI                            SAT 08/09/97 11:22 Page:251

  20688 31 005163   000010 471500                    LDP1    8,,PR0
        31 005164   000005 236000 32                 LDQ     5
        31 005165   100004 756100                    STQ     4,,PR1

  20689 31 005166   000010 471500                    LDP1    8,,PR0
        31 005167   000005 236000 32                 LDQ     5
        31 005170   100005 756100                    STQ     5,,PR1

  20690 31 005171   000010 471500                    LDP1    8,,PR0
        31 005172   000005 236000 32                 LDQ     5
        31 005173   100006 756100                    STQ     6,,PR1

  20691 31 005174   000010 471500                    LDP1    8,,PR0
        31 005175   100011 756100                    STQ     9,,PR1

  20692 31 005176   000010 471500                    LDP1    8,,PR0
        31 005177   100012 756100                    STQ     10,,PR1

  20693 31 005200   000010 471500                    LDP1    8,,PR0
        31 005201   100007 450100                    STZ     7,,PR1

  20694 31 005202   000010 471500                    LDP1    8,,PR0
        31 005203   100016 450100                    STZ     14,,PR1

  20695 31 005204   000010 471500                    LDP1    8,,PR0
        31 005205   000000 221003                    LDX1    0,DU
        31 005206   100000 441100                    SXL1    0,,PR1

  20696 31 005207   000010 471500                    LDP1    8,,PR0
        31 005210   000005 236000 32                 LDQ     5
        31 005211   100010 756100                    STQ     8,,PR1

     1374    20699
     1375    20700    2      CTR_LTS$ = NEXT$ -> CONTROL_NAME_LTS.LINK;

  20700 31 005212   000010 236100                    LDQ     8,,PR0
PL6.E3A0      #001=Z8DT$REPORT_REC File=Z8DT.:Z8A6TSI                            SAT 08/09/97 11:22 Page:252
        31 005213   000143 471400 0                  LDP1    @CTR_LTS$
        31 005214   100000 756100                    STQ     0,,PR1

     1376    20701
     1377    20702    2    END CTR_LTS_RECOVER;

  20702 31 005215   000142 221200 0                  LDX1  ! CTR_LTS$+1
        31 005216   000001 702211                    TSX2  ! 1,X1

     1378    20703         %EJECT;
PL6.E3A0      #001=Z8DT$REPORT_REC File=Z8DT.:Z8A6TSI                            SAT 08/09/97 11:22 Page:253
     1379    20704
     1380    20705        /*================*/
     1381    20706    1     CHECK_MAX_DIGITS: PROC (ITEM$, LENGTH, SIGN);

  20706 31 005217   000145 741200 0     CHECK_MAX_D* STX1  ! NEXT$+1

     1382    20707        /*================*/
     1383    20708         /*
     1384    20709               NAME: CHECK_MAX_DIGITS
     1385    20710
     1386    20711           DESCRIPTION: This routine checks the length of the numeric
     1387    20712                        data item allowed in the PICTURE clause.
     1388    20713          */
     1389    20714
     1390    20715    2        DCL ITEM$         PTR;
     1391    20716    2        DCL LENGTH        SBIN WORD;
     1392    20717    2        DCL SIGN          BIT (2) ALIGNED;
     1393    20718    2        DCL TEMP_LENGTH   SBIN WORD;
     1394    20719
     1395    20720    2        TEMP_LENGTH = LENGTH;

  20720 31 005220   000147 470400 0                  LDP0    @LENGTH
        31 005221   000000 235100                    LDA     0,,PR0
        31 005222   000151 755000 0                  STA     TEMP_LENGTH

     1396    20721
     1397    20722
     1398    20723    2        IF SIGN ~= %NO_SIGN THEN

  20723 31 005223   000150 471400 0                  LDP1    @SIGN
        31 005224   100000 236100                    LDQ     0,,PR1
        31 005225   600000 376003                    ANQ     -65536,DU
        31 005226   600000 116003                    CMPQ    -65536,DU
        31 005227   005231 600000 31                 TZE     s:20726

     1399    20724    2          TEMP_LENGTH = TEMP_LENGTH + 1;

PL6.E3A0      #001=Z8DT$REPORT_REC File=Z8DT.:Z8A6TSI                            SAT 08/09/97 11:22 Page:254
  20724 31 005230   000151 054000 0                  AOS     TEMP_LENGTH

     1400    20725
     1401    20726    2        IF COMCOM.OB.FIPS.LEVEL >= %HIGH_LEV THEN

  20726 31 005231   000036 720000 xsym               LXL0    COMCOM+30
        31 005232   005264 604400 31                 TMOZ    s:20765

     1402    20727    2          IF TEMP_LENGTH > %ANSI_MAX_DIGITS THEN

  20727 31 005233   000151 236000 0                  LDQ     TEMP_LENGTH
        31 005234   000022 116007                    CMPQ    18,DL
        31 005235   005264 604400 31                 TMOZ    s:20765

     1403    20728    3            DO;

     1404    20729                   %CONDITIONAL_ERROR (@LX_ITEM$ = ITEM$,
     1405    20730                                       @ERROR#   = %E$ANSI_MAX_PIC_DIGITS,
     1406    20731                                       @LINE     = ITEM$ -> LX_ITEM.LINE,
     1407    20732                                       @COLUMN   = ITEM$ -> LX_ITEM.COLUMN);

  20742 31 005236   000146 473400 0                  LDP3    @ITEM$
        31 005237   300000 474500                    LDP4    0,,PR3
        31 005240   400000 236100                    LDQ     0,,PR4
        31 005241   400000 316007                    CANQ    -131072,DL
        31 005242   005261 601000 31                 TNZ     s:20762

  20744 31 005243   400006 635500                    EPPR5   6,,PR4
        31 005244   000304 455400 0                  STP5    FIRST_LINE_SHOWN+3
        31 005245   400005 636500                    EPPR6   5,,PR4
        31 005246   000303 456400 0                  STP6    FIRST_LINE_SHOWN+2
        31 005247   000151 236000 32                 LDQ     105
        31 005250   000302 756000 0                  STQ     FIRST_LINE_SHOWN+1
        31 005251   000302 630400 0                  EPPR0   FIRST_LINE_SHOWN+1
        31 005252   000006 631400 32                 EPPR1   6
        31 005253   000000 701000 xent               TSX1    Z8AE$ERROR
        31 005254   000000 011000                    NOP     0
PL6.E3A0      #001=Z8DT$REPORT_REC File=Z8DT.:Z8A6TSI                            SAT 08/09/97 11:22 Page:255

  20753 31 005255   000146 470400 0                  LDP0    @ITEM$
        31 005256   000000 471500                    LDP1    0,,PR0
        31 005257   400000 236007                    LDQ     -131072,DL
        31 005260   100000 256100                    ORSQ    0,,PR1

     1408    20762    3              LENGTH = %ANSI_MAX_DIGITS;

  20762 31 005261   000022 235007                    LDA     18,DL
        31 005262   000147 470400 0                  LDP0    @LENGTH
        31 005263   000000 755100                    STA     0,,PR0

     1409    20763    3            END;

     1410    20764
     1411    20765    2        IF NOT COMCOM.OB.FIPS.LEVEL >= %HIGH_LEV THEN

  20765 31 005264   000036 720000 xsym               LXL0    COMCOM+30
        31 005265   005317 605400 31                 TPNZ    s:20804

     1412    20766    2          IF TEMP_LENGTH > %BULL_MAX_PIC_DIGITS THEN

  20766 31 005266   000151 236000 0                  LDQ     TEMP_LENGTH
        31 005267   000073 116007                    CMPQ    59,DL
        31 005270   005317 604400 31                 TMOZ    s:20804

     1413    20767    3            DO;

     1414    20768                   %CONDITIONAL_ERROR (@LX_ITEM$ = ITEM$,
     1415    20769                                       @ERROR#   = %E$NUMERIC_ITEM_TOO_LONG,
     1416    20770                                       @LINE     = ITEM$ -> LX_ITEM.LINE,
     1417    20771                                       @COLUMN   = ITEM$ -> LX_ITEM.COLUMN);

  20781 31 005271   000146 471400 0                  LDP1    @ITEM$
        31 005272   100000 473500                    LDP3    0,,PR1
        31 005273   300000 236100                    LDQ     0,,PR3
        31 005274   400000 316007                    CANQ    -131072,DL
PL6.E3A0      #001=Z8DT$REPORT_REC File=Z8DT.:Z8A6TSI                            SAT 08/09/97 11:22 Page:256
        31 005275   005314 601000 31                 TNZ     s:20801

  20783 31 005276   300006 634500                    EPPR4   6,,PR3
        31 005277   000304 454400 0                  STP4    FIRST_LINE_SHOWN+3
        31 005300   300005 635500                    EPPR5   5,,PR3
        31 005301   000303 455400 0                  STP5    FIRST_LINE_SHOWN+2
        31 005302   000153 236000 32                 LDQ     107
        31 005303   000302 756000 0                  STQ     FIRST_LINE_SHOWN+1
        31 005304   000302 630400 0                  EPPR0   FIRST_LINE_SHOWN+1
        31 005305   000006 631400 32                 EPPR1   6
        31 005306   000000 701000 xent               TSX1    Z8AE$ERROR
        31 005307   000000 011000                    NOP     0

  20792 31 005310   000146 470400 0                  LDP0    @ITEM$
        31 005311   000000 471500                    LDP1    0,,PR0
        31 005312   400000 236007                    LDQ     -131072,DL
        31 005313   100000 256100                    ORSQ    0,,PR1

     1418    20801    3              LENGTH = %BULL_MAX_PIC_DIGITS;

  20801 31 005314   000073 235007                    LDA     59,DL
        31 005315   000147 470400 0                  LDP0    @LENGTH
        31 005316   000000 755100                    STA     0,,PR0

     1419    20802    3            END;

     1420    20803
     1421    20804    2   END CHECK_MAX_DIGITS;

  20804 31 005317   000145 221200 0                  LDX1  ! NEXT$+1
        31 005320   000001 702211                    TSX2  ! 1,X1

     1422    20805        %EJECT;
PL6.E3A0      #001=Z8DT$REPORT_REC File=Z8DT.:Z8A6TSI                            SAT 08/09/97 11:22 Page:257
     1423    20806
     1424    20807        /*=================*/
     1425    20808    1     PROCESS_NDSC9_PIC: PROC (OUT);

  20808 31 005321   000152 741200 0     PROCESS_NDS* STX1  ! TEMP_LENGTH+1

     1426    20809        /*=================*/
     1427    20810         /*
     1428    20811               NAME: PROCESS_NDSC9_PIC
     1429    20812
     1430    20813           DESCRIPTION: This routine process the numeric PICTURE clause
     1431    20814                        to prepare all the information for the ST items.
     1432    20815          */
     1433    20816
     1434    20817    2   DCL OUT                UBIN;
     1435    20818
     1436    20819    2   DCL 1 OUT_DESC                ALIGNED,
     1437    20820             %DESCRIPTOR              (LVL = 2, ENDING = YES);
     1438    20848
     1439    20849    2   DCL SIGN                      BIT (2);
     1440    20850    2   DCL LENGTH                    SBIN WORD;
     1441    20851
     1442    20852           %GET_SIGN (@SIGN      = SIGN,
     1443    20853                      @LOCATION  = REPORT_DATA.SIGN.LOCATION);

  20855 31 005322   000005 220000 28                 LDX0    PIC_OUT+5
        31 005323   000003 100003                    CMPX0   3,DU
        31 005324   005330 601000 31                 TNZ     s:20858

  20856 31 005325   600000 236003                    LDQ     -65536,DU
        31 005326   000155 756000 0                  STQ     SIGN
        31 005327   005343 710000 31                 TRA     s:20869

  20858 31 005330   000041 235000 0                  LDA     REPORT_DATA+3
        31 005331   000002 115007                    CMPA    2,DL
        31 005332   005334 602005 31                 TNC     s:20858+4,AL
        31 005333   005343 710000 31                 TRA     s:20869
PL6.E3A0      #001=Z8DT$REPORT_REC File=Z8DT.:Z8A6TSI                            SAT 08/09/97 11:22 Page:258
        31 005334   005336 710000 31                 TRA     s:20860
        31 005335   005341 710000 31                 TRA     s:20862

  20860 31 005336   400000 236003                    LDQ     -131072,DU
        31 005337   000155 756000 0                  STQ     SIGN
        31 005340   005343 710000 31                 TRA     s:20869

  20862 31 005341   200000 236003                    LDQ     65536,DU
        31 005342   000155 756000 0                  STQ     SIGN

     1444    20866
     1445    20867           %DECIPHER_PIC_LENGTH (@LENGTH = LENGTH);

  20869 31 005343   000001 236000 28                 LDQ     PIC_OUT+1
        31 005344   000022 732000                    QRS     18
        31 005345   000154 676000 32                 ERQ     108
        31 005346   000001 036007                    ADLQ    1,DL
        31 005347   005364 604000 31                 TMI     s:20875
        31 005350   000000 116000 28                 CMPQ    PIC_OUT
        31 005351   005364 602000 31                 TNC     s:20875
        31 005352   005364 600000 31                 TZE     s:20875

  20870 31 005353   000003 100003                    CMPX0   3,DU
        31 005354   005361 600000 31                 TZE     s:20873

  20871 31 005355   000000 235000 28                 LDA     PIC_OUT
        31 005356   000001 135007                    SBLA    1,DL
        31 005357   000156 755000 0                  STA     LENGTH
        31 005360   005401 710000 31                 TRA     s:20882

  20873 31 005361   000000 235000 28                 LDA     PIC_OUT
        31 005362   000156 755000 0                  STA     LENGTH
        31 005363   005401 710000 31                 TRA     s:20882

  20875 31 005364   000001 222000 28                 LDX2    PIC_OUT+1
        31 005365   005376 605400 31                 TPNZ    s:20878

PL6.E3A0      #001=Z8DT$REPORT_REC File=Z8DT.:Z8A6TSI                            SAT 08/09/97 11:22 Page:259
  20876 31 005366   000001 235000 28                 LDA     PIC_OUT+1
        31 005367   000022 731000                    ARS     18
        31 005370   000302 755000 0                  STA     FIRST_LINE_SHOWN+1
        31 005371   000001 236000 28                 LDQ     PIC_OUT+1
        31 005372   777777 376007                    ANQ     -1,DL
        31 005373   000302 136000 0                  SBLQ    FIRST_LINE_SHOWN+1
        31 005374   000156 756000 0                  STQ     LENGTH
        31 005375   005401 710000 31                 TRA     s:20882

  20878 31 005376   000001 236000 28                 LDQ     PIC_OUT+1
        31 005377   777777 376007                    ANQ     -1,DL
        31 005400   000156 756000 0                  STQ     LENGTH

     1446    20881
     1447    20882    2      IF PIC_OUT.EIS_TYPE ~= %PIC_EIS_NS THEN

  20882 31 005401   000003 100003                    CMPX0   3,DU
        31 005402   005426 600000 31                 TZE     s:20900

     1448    20883    3        DO;

     1449    20884    4          DO CASE (REPORT_DATA.SIGN.TYPE);

  20884 31 005403   000042 235000 0                  LDA     REPORT_DATA+4
        31 005404   000002 115007                    CMPA    2,DL
        31 005405   005407 602005 31                 TNC     s:20884+4,AL
        31 005406   005427 710000 31                 TRA     s:20902
        31 005407   005411 710000 31                 TRA     s:20886
        31 005410   005424 710000 31                 TRA     s:20895

     1450    20885    4            CASE (%SIGN_TYPE_OVERPUNCH);

     1451    20886    4                IF REPORT_DATA.B.CLASS = %CLASS_EDITED THEN

  20886 31 005411   000060 236000 0                  LDQ     REPORT_DATA+18
        31 005412   016000 376003                    ANQ     7168,DU
        31 005413   010000 116003                    CMPQ    4096,DU
PL6.E3A0      #001=Z8DT$REPORT_REC File=Z8DT.:Z8A6TSI                            SAT 08/09/97 11:22 Page:260
        31 005414   005417 601000 31                 TNZ     s:20890

     1452    20887    4                  REPORT_DATA.TYPE = %TYD;

  20887 31 005415   000047 450000 0                  STZ     REPORT_DATA+9
        31 005416   005427 710000 31                 TRA     s:20902

     1453    20888    4                ELSE
     1454    20889    5                  DO;

     1455    20890    5                    REPORT_DATA.TYPE = %TYO;

  20890 31 005417   000003 235007                    LDA     3,DL
        31 005420   000047 755000 0                  STA     REPORT_DATA+9

     1456    20891    5                    LENGTH = LENGTH - 1;

  20891 31 005421   000001 336007                    LCQ     1,DL
        31 005422   000156 056000 0                  ASQ     LENGTH

     1457    20892    5                  END;

  20892 31 005423   005427 710000 31                 TRA     s:20902

     1458    20893
     1459    20894    4            CASE (%SIGN_TYPE_SEPARATE);

     1460    20895    4                REPORT_DATA.TYPE = %TYD;

  20895 31 005424   000047 450000 0                  STZ     REPORT_DATA+9

     1461    20896
     1462    20897    4          END;

     1463    20898    3        END;

  20898 31 005425   005427 710000 31                 TRA     s:20902
PL6.E3A0      #001=Z8DT$REPORT_REC File=Z8DT.:Z8A6TSI                            SAT 08/09/97 11:22 Page:261

     1464    20899    2      ELSE
     1465    20900    2        REPORT_DATA.TYPE = %TYD;

  20900 31 005426   000047 450000 0                  STZ     REPORT_DATA+9

     1466    20901
     1467    20902    2      CALL CHECK_MAX_DIGITS (CDECL$ -> LX_REPORT_REC.P.PICTURE$,

  20902 31 005427   000155 236000 32                 LDQ     109
        31 005430   000150 756000 0                  STQ     @SIGN
        31 005431   000156 236000 32                 LDQ     110
        31 005432   000147 756000 0                  STQ     @LENGTH
        31 005433   000032 236000 0                  LDQ     CDECL$
        31 005434   000007 036003                    ADLQ    7,DU
        31 005435   000146 756000 0                  STQ     @ITEM$
        31 005436   005217 701000 31                 TSX1    CHECK_MAX_DIGITS
        31 005437   000000 011000                    NOP     0

     1468    20903    2                             LENGTH,
     1469    20904    2                             SIGN);
     1470    20905
     1471    20906           %PACK_NDSC (@DESC    = OUT_DESC,
     1472    20907                       @TN      = %NDSC9,
     1473    20908                       @SIGN    = SIGN,
     1474    20909                       @SCALE   = PIC_OUT.SCALE,
     1475    20910                       @LENGTH  = LENGTH);

  20915 31 005440   000000 220003                    LDX0    0,DU
        31 005441   000154 740000 0                  STX0    OUT_DESC

  20916 31 005442   000157 236000 32                 LDQ     111
        31 005443   000154 356000 0                  ANSQ    OUT_DESC

  20917 31 005444   000160 236000 32                 LDQ     112
        31 005445   000154 356000 0                  ANSQ    OUT_DESC

PL6.E3A0      #001=Z8DT$REPORT_REC File=Z8DT.:Z8A6TSI                            SAT 08/09/97 11:22 Page:262
  20918 31 005446   000155 236000 0                  LDQ     SIGN
        31 005447   000026 772000                    QRL     22
        31 005450   000154 676000 0                  ERQ     OUT_DESC
        31 005451   030000 376007                    ANQ     12288,DL
        31 005452   000154 656000 0                  ERSQ    OUT_DESC

  20919 31 005453   000001 236000 28                 LDQ     PIC_OUT+1
        31 005454   000014 772000                    QRL     12
        31 005455   000154 752002 0                  STCQ    OUT_DESC,'02'O

  20920 31 005456   000155 236000 0                  LDQ     SIGN
        31 005457   000042 772000                    QRL     34
        31 005460   000004 116007                    CMPQ    4,DL
        31 005461   005463 602006 31                 TNC     s:20920+5,QL
        31 005462   005501 710000 31                 TRA     s:20960
        31 005463   005476 710000 31                 TRA     s:20951
        31 005464   005472 710000 31                 TRA     s:20927
        31 005465   005472 710000 31                 TRA     s:20927
        31 005466   005467 710000 31                 TRA     s:20922

  20922 31 005467   000156 236000 0                  LDQ     LENGTH
        31 005470   000154 752001 0                  STCQ    OUT_DESC,'01'O
        31 005471   005501 710000 31                 TRA     s:20960

  20927 31 005472   000156 236000 0                  LDQ     LENGTH
        31 005473   000001 036007                    ADLQ    1,DL
        31 005474   000154 752001 0                  STCQ    OUT_DESC,'01'O
        31 005475   005501 710000 31                 TRA     s:20960

  20951 31 005476   000156 236000 0                  LDQ     LENGTH
        31 005477   000002 036007                    ADLQ    2,DL
        31 005500   000154 752001 0                  STCQ    OUT_DESC,'01'O

     1476    20959
     1477    20960    2      REPORT_DATA.B.CLASS = %CLASS_NUMERIC;

  20960 31 005501   000060 236000 0                  LDQ     REPORT_DATA+18
PL6.E3A0      #001=Z8DT$REPORT_REC File=Z8DT.:Z8A6TSI                            SAT 08/09/97 11:22 Page:263
        31 005502   000161 376000 32                 ANQ     113
        31 005503   002000 276003                    ORQ     1024,DU
        31 005504   000060 756000 0                  STQ     REPORT_DATA+18

     1478    20961
     1479    20962    2      OUT = BITBIN(OUT_DESC);

  20962 31 005505   000153 470400 0                  LDP0    @OUT
        31 005506   000154 235000 0                  LDA     OUT_DESC
        31 005507   000000 755100                    STA     0,,PR0

     1480    20963
     1481    20964    2   END PROCESS_NDSC9_PIC;

  20964 31 005510   000152 221200 0                  LDX1  ! TEMP_LENGTH+1
        31 005511   000001 702211                    TSX2  ! 1,X1

     1482    20965        %EJECT;
PL6.E3A0      #001=Z8DT$REPORT_REC File=Z8DT.:Z8A6TSI                            SAT 08/09/97 11:22 Page:264
     1483    20966
     1484    20967        /*================*/
     1485    20968    1     PROCESS_ADSC_PIC: PROC;

  20968 31 005512   000157 741200 0     PROCESS_ADS* STX1  ! LENGTH+1

     1486    20969        /*================*/
     1487    20970         /*
     1488    20971               NAME: PROCESS_ADSC_PIC
     1489    20972
     1490    20973           DESCRIPTION: This routine process the alphabetic, alphanumeric,
     1491    20974                        alphanumeric edited, numeric edited type PIC strings
     1492    20975                        to prepare all the information for the ST items.
     1493    20976          */
     1494    20977
     1495    20978
     1496    20979    2   DCL MOP_DNT$                  PTR;
     1497    20980    2   DCL NEW_NEL$                  PTR;
     1498    20981    2   DCL MOP$                      PTR;
     1499    20982
     1500    20983
     1501    20984    3      DO CASE(PIC_OUT.TYPE);

  20984 31 005513   000002 220000 28                 LDX0    PIC_OUT+2
        31 005514   000007 100003                    CMPX0   7,DU
        31 005515   005517 602010 31                 TNC     s:20984+4,X0
        31 005516   006001 710000 31                 TRA     s:21278
        31 005517   006001 710000 31                 TRA     s:21278
        31 005520   005764 710000 31                 TRA     s:21270
        31 005521   005742 710000 31                 TRA     s:21259
        31 005522   005753 710000 31                 TRA     s:21265
        31 005523   005640 710000 31                 TRA     s:21124
        31 005524   006001 710000 31                 TRA     s:21278
        31 005525   005526 710000 31                 TRA     s:20986

     1502    20985    3        CASE(%PIC_TY_NE);

PL6.E3A0      #001=Z8DT$REPORT_REC File=Z8DT.:Z8A6TSI                            SAT 08/09/97 11:22 Page:265
     1503    20986    3          REPORT_DATA.B.CLASS = %CLASS_EDITED;

  20986 31 005526   000060 236000 0                  LDQ     REPORT_DATA+18
        31 005527   000161 376000 32                 ANQ     113
        31 005530   010000 276003                    ORQ     4096,DU
        31 005531   000060 756000 0                  STQ     REPORT_DATA+18

     1504    20987    3          MOP_DNT$ = CDECL$ -> LX_REPORT_REC.P.PICTURE$

  20987 31 005532   000032 470400 0                  LDP0    CDECL$
        31 005533   000007 471500                    LDP1    7,,PR0
        31 005534   100002 236100                    LDQ     2,,PR1
        31 005535   000160 756000 0                  STQ     MOP_DNT$

     1505    20988    3                     -> LX_ITEM.DNT$;
     1506    20989
     1507    20990    3          CALL Z8EC$CREATE_CONST (%TYM, MOP_DNT$, MOP$);

  20990 31 005536   000163 630400 32                 EPPR0   115
        31 005537   000006 631400 32                 EPPR1   6
        31 005540   000000 701000 xent               TSX1    Z8EC$CREATE_CONST
        31 005541   000000 011000                    NOP     0

     1508    20991
     1509    20992               %NEW_NEL (@POINTER = NEW_NEL$,
     1510    20993                         @DNT$    = MOP_DNT$,
     1511    20994                         @MOP$    = MOP$);

  21073 31 005542   000002 236000 8                  LDQ     LTS_+2
        31 005543   000004 036007                    ADLQ    4,DL
        31 005544   000003 116000 8                  CMPQ    LTS_+3
        31 005545   005556 604000 31                 TMI     s:21075

  21074 31 005546   000147 236000 32                 LDQ     103
        31 005547   000302 756000 0                  STQ     FIRST_LINE_SHOWN+1
        31 005550   000302 630400 0                  EPPR0   FIRST_LINE_SHOWN+1
        31 005551   000303 450400 0                  STP0    FIRST_LINE_SHOWN+2
PL6.E3A0      #001=Z8DT$REPORT_REC File=Z8DT.:Z8A6TSI                            SAT 08/09/97 11:22 Page:266
        31 005552   000303 630400 0                  EPPR0   FIRST_LINE_SHOWN+2
        31 005553   000036 631400 32                 EPPR1   30
        31 005554   000000 701000 xent               TSX1    Z8AR$RESERVER
        31 005555   000000 011000                    NOP     0

  21075 31 005556   000002 236000 8                  LDQ     LTS_+2
        31 005557   000022 736000                    QLS     18
        31 005560   000001 036000 8                  ADLQ    LTS_+1
        31 005561   000161 756000 0                  STQ     NEW_NEL$

  21076 31 005562   000004 236007                    LDQ     4,DL
        31 005563   000002 056000 8                  ASQ     LTS_+2

  21077 31 005564   001115 220003                    LDX0    589,DU
        31 005565   000161 470400 0                  LDP0    NEW_NEL$
        31 005566   000000 740100                    STX0    0,,PR0

  21083 31 005567   000162 236000 0                  LDQ     MOP$
        31 005570   000161 470400 0                  LDP0    NEW_NEL$
        31 005571   000002 756100                    STQ     2,,PR0

  21084 31 005572   000160 236000 0                  LDQ     MOP_DNT$
        31 005573   000161 470400 0                  LDP0    NEW_NEL$
        31 005574   000003 756100                    STQ     3,,PR0

  21085 31 005575   000161 470400 0                  LDP0    NEW_NEL$
        31 005576   000001 450100                    STZ     1,,PR0

     1512    21088    3          CALL Z8DO$LINK_WITH_LTS (REPORT_DATA.LTS$, NEW_NEL$);

  21088 31 005577   000166 630400 32                 EPPR0   118
        31 005600   000001 631400 32                 EPPR1   1
        31 005601   000000 701000 xent               TSX1    Z8DO$LINK_WITH_LTS
        31 005602   000000 011000                    NOP     0

     1513    21089
     1514    21090    3          CALL PROCESS_NDSC9_PIC (NEW_NEL$ -> NEL.DESC);
PL6.E3A0      #001=Z8DT$REPORT_REC File=Z8DT.:Z8A6TSI                            SAT 08/09/97 11:22 Page:267

  21090 31 005603   000161 236000 0                  LDQ     NEW_NEL$
        31 005604   000001 036003                    ADLQ    1,DU
        31 005605   000153 756000 0                  STQ     @OUT
        31 005606   005321 701000 31                 TSX1    PROCESS_NDSC9_PIC
        31 005607   000000 011000                    NOP     0

     1515    21091
     1516    21092               %PACK_ADSC (@DESC   = REPORT_DATA.DESC,
     1517    21093                           @LENGTH = PIC_OUT.WIDTH);

  21097 31 005610   000000 220003                    LDX0    0,DU
        31 005611   000056 740000 0                  STX0    REPORT_DATA+16

  21099 31 005612   000170 236000 32                 LDQ     120
        31 005613   000056 356000 0                  ANSQ    REPORT_DATA+16

  21100 31 005614   000171 236000 32                 LDQ     121
        31 005615   000056 356000 0                  ANSQ    REPORT_DATA+16

  21112 31 005616   000172 236000 32                 LDQ     122
        31 005617   000056 356000 0                  ANSQ    REPORT_DATA+16

  21113 31 005620   000173 236000 32                 LDQ     123
        31 005621   000056 356000 0                  ANSQ    REPORT_DATA+16

  21114 31 005622   000000 236000 28                 LDQ     PIC_OUT
        31 005623   000056 752003 0                  STCQ    REPORT_DATA+16,'03'O

     1518    21117    3          REPORT_DATA.B.CLASS = %CLASS_NUMERIC_EDITED;

  21117 31 005624   000060 236000 0                  LDQ     REPORT_DATA+18
        31 005625   000161 376000 32                 ANQ     113
        31 005626   012000 276003                    ORQ     5120,DU
        31 005627   000060 756000 0                  STQ     REPORT_DATA+18

     1519    21118    3          REPORT_DATA.TYPE    = %TYA;
PL6.E3A0      #001=Z8DT$REPORT_REC File=Z8DT.:Z8A6TSI                            SAT 08/09/97 11:22 Page:268

  21118 31 005630   000010 235007                    LDA     8,DL
        31 005631   000047 755000 0                  STA     REPORT_DATA+9

     1520    21119
     1521    21120    3          IF PIC_OUT.B.ASTERISK_SUPRESS THEN

  21120 31 005632   000002 236000 28                 LDQ     PIC_OUT+2
        31 005633   400000 316007                    CANQ    -131072,DL
        31 005634   006001 600000 31                 TZE     s:21278

     1522    21121    3            REPORT_DATA.B.ASTERISK_SUPRESS = TRUE;

  21121 31 005635   000400 236003                    LDQ     256,DU
        31 005636   000060 256000 0                  ORSQ    REPORT_DATA+18
        31 005637   006001 710000 31                 TRA     s:21278

     1523    21122
     1524    21123    3        CASE(%PIC_TY_ANE);

     1525    21124    3          MOP_DNT$ = CDECL$ -> LX_REPORT_REC.P.PICTURE$

  21124 31 005640   000032 470400 0                  LDP0    CDECL$
        31 005641   000007 471500                    LDP1    7,,PR0
        31 005642   100002 236100                    LDQ     2,,PR1
        31 005643   000160 756000 0                  STQ     MOP_DNT$

     1526    21125    3                     -> LX_ITEM.DNT$;
     1527    21126
     1528    21127    3          CALL Z8EC$CREATE_CONST (%TYM, MOP_DNT$, MOP$);

  21127 31 005644   000163 630400 32                 EPPR0   115
        31 005645   000006 631400 32                 EPPR1   6
        31 005646   000000 701000 xent               TSX1    Z8EC$CREATE_CONST
        31 005647   000000 011000                    NOP     0

     1529    21128
PL6.E3A0      #001=Z8DT$REPORT_REC File=Z8DT.:Z8A6TSI                            SAT 08/09/97 11:22 Page:269
     1530    21129               %NEW_NEL (@POINTER = NEW_NEL$,
     1531    21130                         @DNT$    = MOP_DNT$,
     1532    21131                         @MOP$    = MOP$);

  21210 31 005650   000002 236000 8                  LDQ     LTS_+2
        31 005651   000004 036007                    ADLQ    4,DL
        31 005652   000003 116000 8                  CMPQ    LTS_+3
        31 005653   005664 604000 31                 TMI     s:21212

  21211 31 005654   000147 236000 32                 LDQ     103
        31 005655   000302 756000 0                  STQ     FIRST_LINE_SHOWN+1
        31 005656   000302 630400 0                  EPPR0   FIRST_LINE_SHOWN+1
        31 005657   000303 450400 0                  STP0    FIRST_LINE_SHOWN+2
        31 005660   000303 630400 0                  EPPR0   FIRST_LINE_SHOWN+2
        31 005661   000036 631400 32                 EPPR1   30
        31 005662   000000 701000 xent               TSX1    Z8AR$RESERVER
        31 005663   000000 011000                    NOP     0

  21212 31 005664   000002 236000 8                  LDQ     LTS_+2
        31 005665   000022 736000                    QLS     18
        31 005666   000001 036000 8                  ADLQ    LTS_+1
        31 005667   000161 756000 0                  STQ     NEW_NEL$

  21213 31 005670   000004 236007                    LDQ     4,DL
        31 005671   000002 056000 8                  ASQ     LTS_+2

  21214 31 005672   001115 220003                    LDX0    589,DU
        31 005673   000161 470400 0                  LDP0    NEW_NEL$
        31 005674   000000 740100                    STX0    0,,PR0

  21220 31 005675   000162 236000 0                  LDQ     MOP$
        31 005676   000161 470400 0                  LDP0    NEW_NEL$
        31 005677   000002 756100                    STQ     2,,PR0

  21221 31 005700   000160 236000 0                  LDQ     MOP_DNT$
        31 005701   000161 470400 0                  LDP0    NEW_NEL$
        31 005702   000003 756100                    STQ     3,,PR0
PL6.E3A0      #001=Z8DT$REPORT_REC File=Z8DT.:Z8A6TSI                            SAT 08/09/97 11:22 Page:270

  21222 31 005703   000161 470400 0                  LDP0    NEW_NEL$
        31 005704   000001 450100                    STZ     1,,PR0

     1533    21225    3          CALL Z8DO$LINK_WITH_LTS (REPORT_DATA.LTS$, NEW_NEL$);

  21225 31 005705   000166 630400 32                 EPPR0   118
        31 005706   000001 631400 32                 EPPR1   1
        31 005707   000000 701000 xent               TSX1    Z8DO$LINK_WITH_LTS
        31 005710   000000 011000                    NOP     0

     1534    21226
     1535    21227    3          REPORT_DATA.TYPE = %TYA;

  21227 31 005711   000010 235007                    LDA     8,DL
        31 005712   000047 755000 0                  STA     REPORT_DATA+9

     1536    21228    3          CALL ASSIGN_ADSC_DESC;

  21228 31 005713   006003 701000 31                 TSX1    ASSIGN_ADSC_DESC
        31 005714   000000 011000                    NOP     0

     1537    21229
     1538    21230               %PACK_ADSC (@DESC  = NEW_NEL$ -> NEL.DESC,
     1539    21231                           @LENGTH = PIC_OUT.LEFT);

  21235 31 005715   000000 220003                    LDX0    0,DU
        31 005716   000161 470400 0                  LDP0    NEW_NEL$
        31 005717   000001 740100                    STX0    1,,PR0

  21237 31 005720   000161 470400 0                  LDP0    NEW_NEL$
        31 005721   000170 236000 32                 LDQ     120
        31 005722   000001 356100                    ANSQ    1,,PR0

  21238 31 005723   000161 470400 0                  LDP0    NEW_NEL$
        31 005724   000171 236000 32                 LDQ     121
        31 005725   000001 356100                    ANSQ    1,,PR0
PL6.E3A0      #001=Z8DT$REPORT_REC File=Z8DT.:Z8A6TSI                            SAT 08/09/97 11:22 Page:271

  21250 31 005726   000161 470400 0                  LDP0    NEW_NEL$
        31 005727   000172 236000 32                 LDQ     122
        31 005730   000001 356100                    ANSQ    1,,PR0

  21251 31 005731   000161 470400 0                  LDP0    NEW_NEL$
        31 005732   000173 236000 32                 LDQ     123
        31 005733   000001 356100                    ANSQ    1,,PR0

  21252 31 005734   000161 470400 0                  LDP0    NEW_NEL$
        31 005735   000001 236000 28                 LDQ     PIC_OUT+1
        31 005736   000001 752103                    STCQ    1,'03'O,PR0

     1540    21255
     1541    21256    3          REPORT_DATA.B.CLASS = %CLASS_ALPHANUMERIC_EDITED;

  21256 31 005737   016000 236003                    LDQ     7168,DU
        31 005740   000060 256000 0                  ORSQ    REPORT_DATA+18
        31 005741   006001 710000 31                 TRA     s:21278

     1542    21257
     1543    21258    3        CASE(%PIC_TY_A);

     1544    21259    3          REPORT_DATA.B.CLASS = %CLASS_ALPHABETIC;

  21259 31 005742   000060 236000 0                  LDQ     REPORT_DATA+18
        31 005743   000161 376000 32                 ANQ     113
        31 005744   004000 276003                    ORQ     2048,DU
        31 005745   000060 756000 0                  STQ     REPORT_DATA+18

     1545    21260
     1546    21261    3          REPORT_DATA.TYPE = %TYA;

  21261 31 005746   000010 235007                    LDA     8,DL
        31 005747   000047 755000 0                  STA     REPORT_DATA+9

     1547    21262    3          CALL ASSIGN_ADSC_DESC;
PL6.E3A0      #001=Z8DT$REPORT_REC File=Z8DT.:Z8A6TSI                            SAT 08/09/97 11:22 Page:272

  21262 31 005750   006003 701000 31                 TSX1    ASSIGN_ADSC_DESC
        31 005751   000000 011000                    NOP     0
        31 005752   006001 710000 31                 TRA     s:21278

     1548    21263
     1549    21264    3        CASE(%PIC_TY_AN);

     1550    21265    3          REPORT_DATA.B.CLASS = %CLASS_ALPHANUMERIC;

  21265 31 005753   000060 236000 0                  LDQ     REPORT_DATA+18
        31 005754   000161 376000 32                 ANQ     113
        31 005755   006000 276003                    ORQ     3072,DU
        31 005756   000060 756000 0                  STQ     REPORT_DATA+18

     1551    21266    3          REPORT_DATA.TYPE = %TYA;

  21266 31 005757   000010 235007                    LDA     8,DL
        31 005760   000047 755000 0                  STA     REPORT_DATA+9

     1552    21267    3          CALL ASSIGN_ADSC_DESC;

  21267 31 005761   006003 701000 31                 TSX1    ASSIGN_ADSC_DESC
        31 005762   000000 011000                    NOP     0
        31 005763   006001 710000 31                 TRA     s:21278

     1553    21268
     1554    21269    3        CASE(%PIC_TY_K);

     1555    21270    3          REPORT_DATA.B.CLASS = %CLASS_ALPHANUMERIC;

  21270 31 005764   000060 236000 0                  LDQ     REPORT_DATA+18
        31 005765   000161 376000 32                 ANQ     113
        31 005766   006000 276003                    ORQ     3072,DU
        31 005767   000060 756000 0                  STQ     REPORT_DATA+18

     1556    21271    3          REPORT_DATA.TYPE = %TYN;
PL6.E3A0      #001=Z8DT$REPORT_REC File=Z8DT.:Z8A6TSI                            SAT 08/09/97 11:22 Page:273

  21271 31 005770   000016 235007                    LDA     14,DL
        31 005771   000047 755000 0                  STA     REPORT_DATA+9

     1557    21272    3          REPORT_DATA.B.KANJI = %TRUE;

  21272 31 005772   100000 236007                    LDQ     32768,DL
        31 005773   000060 256000 0                  ORSQ    REPORT_DATA+18

     1558    21273    3          PIC_OUT.WIDTH = PIC_OUT.WIDTH * 2 ;

  21273 31 005774   000000 235000 28                 LDA     PIC_OUT
        31 005775   000001 735000                    ALS     1
        31 005776   000000 755000 28                 STA     PIC_OUT

     1559    21274    3          CALL ASSIGN_ADSC_DESC;

  21274 31 005777   006003 701000 31                 TSX1    ASSIGN_ADSC_DESC
        31 006000   000000 011000                    NOP     0

     1560    21275
     1561    21276    3      END; /* Case */

     1562    21277
     1563    21278    2   END PROCESS_ADSC_PIC;

  21278 31 006001   000157 221200 0                  LDX1  ! LENGTH+1
        31 006002   000001 702211                    TSX2  ! 1,X1

     1564    21279        %EJECT;
PL6.E3A0      #001=Z8DT$REPORT_REC File=Z8DT.:Z8A6TSI                            SAT 08/09/97 11:22 Page:274
     1565    21280
     1566    21281        /*================*/
     1567    21282    1     ASSIGN_ADSC_DESC: PROC;

  21282 31 006003   000163 741200 0     ASSIGN_ADSC* STX1  ! MOP$+1

     1568    21283        /*================*/
     1569    21284         /*
     1570    21285               NAME: ASSIGN_ADSC_DESC
     1571    21286
     1572    21287           DESCRIPTION: This routine packs the descriptor of the alphabetic
     1573    21288                        and alphanumeric data items.
     1574    21289
     1575    21290          */
     1576    21291
     1577    21292
     1578    21293    2   DCL NEW_LONG$                 PTR;
     1579    21294
     1580    21295
     1581    21296    2      IF PIC_OUT.WIDTH > %LENGTH_OF_4095 THEN

  21296 31 006004   000000 235000 28                 LDA     PIC_OUT
        31 006005   010000 115007                    CMPA    4096,DL
        31 006006   006066 602000 31                 TNC     s:21430

     1582    21297    3        DO;

     1583    21298    3          REPORT_DATA.B.LENGTH_4096 = TRUE;

  21298 31 006007   000020 236003                    LDQ     16,DU
        31 006010   000060 256000 0                  ORSQ    REPORT_DATA+18

     1584    21299
     1585    21300    3          IF PIC_OUT.WIDTH >= %#256K THEN

  21300 31 006011   000001 115003                    CMPA    1,DU
        31 006012   006015 602000 31                 TNC     s:21383
PL6.E3A0      #001=Z8DT$REPORT_REC File=Z8DT.:Z8A6TSI                            SAT 08/09/97 11:22 Page:275

     1586    21301    3            REPORT_DATA.B.GREATER_256K = TRUE;

  21301 31 006013   000010 236003                    LDQ     8,DU
        31 006014   000060 256000 0                  ORSQ    REPORT_DATA+18

     1587    21302
     1588    21303               %NEW_LONG (@POINTER = NEW_LONG$,
     1589    21304                          @LENGTH  = PIC_OUT.WIDTH);

  21383 31 006015   000002 236000 8                  LDQ     LTS_+2
        31 006016   000002 036007                    ADLQ    2,DL
        31 006017   000003 116000 8                  CMPQ    LTS_+3
        31 006020   006031 604000 31                 TMI     s:21385

  21384 31 006021   000147 236000 32                 LDQ     103
        31 006022   000302 756000 0                  STQ     FIRST_LINE_SHOWN+1
        31 006023   000302 630400 0                  EPPR0   FIRST_LINE_SHOWN+1
        31 006024   000303 450400 0                  STP0    FIRST_LINE_SHOWN+2
        31 006025   000303 630400 0                  EPPR0   FIRST_LINE_SHOWN+2
        31 006026   000036 631400 32                 EPPR1   30
        31 006027   000000 701000 xent               TSX1    Z8AR$RESERVER
        31 006030   000000 011000                    NOP     0

  21385 31 006031   000002 236000 8                  LDQ     LTS_+2
        31 006032   000022 736000                    QLS     18
        31 006033   000001 036000 8                  ADLQ    LTS_+1
        31 006034   000164 756000 0                  STQ     NEW_LONG$

  21386 31 006035   000002 236007                    LDQ     2,DL
        31 006036   000002 056000 8                  ASQ     LTS_+2

  21387 31 006037   001110 220003                    LDX0    584,DU
        31 006040   000164 470400 0                  LDP0    NEW_LONG$
        31 006041   000000 740100                    STX0    0,,PR0

  21393 31 006042   000164 470400 0                  LDP0    NEW_LONG$
PL6.E3A0      #001=Z8DT$REPORT_REC File=Z8DT.:Z8A6TSI                            SAT 08/09/97 11:22 Page:276
        31 006043   000000 235000 28                 LDA     PIC_OUT
        31 006044   000001 755100                    STA     1,,PR0

     1590    21396    3          CALL Z8DO$LINK_WITH_LTS (REPORT_DATA.LTS$, NEW_LONG$);

  21396 31 006045   000174 630400 32                 EPPR0   124
        31 006046   000001 631400 32                 EPPR1   1
        31 006047   000000 701000 xent               TSX1    Z8DO$LINK_WITH_LTS
        31 006050   000000 011000                    NOP     0

     1591    21397
     1592    21398               %PACK_ADSC (@DESC    = REPORT_DATA.DESC,
     1593    21399                           @LENGTH  = 0);

  21403 31 006051   000000 220003                    LDX0    0,DU
        31 006052   000056 740000 0                  STX0    REPORT_DATA+16

  21405 31 006053   000170 236000 32                 LDQ     120
        31 006054   000056 356000 0                  ANSQ    REPORT_DATA+16

  21406 31 006055   000171 236000 32                 LDQ     121
        31 006056   000056 356000 0                  ANSQ    REPORT_DATA+16

  21418 31 006057   000172 236000 32                 LDQ     122
        31 006060   000056 356000 0                  ANSQ    REPORT_DATA+16

  21419 31 006061   000173 236000 32                 LDQ     123
        31 006062   000056 356000 0                  ANSQ    REPORT_DATA+16

  21420 31 006063   000000 236003                    LDQ     0,DU
        31 006064   000056 752003 0                  STCQ    REPORT_DATA+16,'03'O

     1594    21423    3        END;

  21423 31 006065   006102 710000 31                 TRA     s:21451

     1595    21424    2      ELSE
PL6.E3A0      #001=Z8DT$REPORT_REC File=Z8DT.:Z8A6TSI                            SAT 08/09/97 11:22 Page:277
     1596    21425             %PACK_ADSC (@DESC   = REPORT_DATA.DESC,
     1597    21426                         @LENGTH = PIC_OUT.WIDTH);

  21430 31 006066   000000 220003                    LDX0    0,DU
        31 006067   000056 740000 0                  STX0    REPORT_DATA+16

  21432 31 006070   000170 236000 32                 LDQ     120
        31 006071   000056 356000 0                  ANSQ    REPORT_DATA+16

  21433 31 006072   000171 236000 32                 LDQ     121
        31 006073   000056 356000 0                  ANSQ    REPORT_DATA+16

  21445 31 006074   000172 236000 32                 LDQ     122
        31 006075   000056 356000 0                  ANSQ    REPORT_DATA+16

  21446 31 006076   000173 236000 32                 LDQ     123
        31 006077   000056 356000 0                  ANSQ    REPORT_DATA+16

  21447 31 006100   000000 236000 28                 LDQ     PIC_OUT
        31 006101   000056 752003 0                  STCQ    REPORT_DATA+16,'03'O

     1598    21450
     1599    21451    2   END ASSIGN_ADSC_DESC;

  21451 31 006102   000163 221200 0                  LDX1  ! MOP$+1
        31 006103   000001 702211                    TSX2  ! 1,X1

     1600    21452        %EJECT;
PL6.E3A0      #001=Z8DT$REPORT_REC File=Z8DT.:Z8A6TSI                            SAT 08/09/97 11:22 Page:278
     1601    21453
     1602    21454        /*======*/
     1603    21455    1     NEW_ST: PROC (NEW_ST$);

  21455 31 006104   000165 741200 0     NEW_ST       STX1  ! NEW_LONG$+1

     1604    21456        /*======*/
     1605    21457         /*
     1606    21458               NAME: NEW_ST
     1607    21459
     1608    21460           DESCRIPTION: This routine creates a new ST item for the data
     1609    21461                        item and packs all the information on it, then,
     1610    21462                        create a QLT item to link it to previous ST.
     1611    21463          */
     1612    21464
     1613    21465    2        DCL NEW_ST$       PTR;
     1614    21466    2        DCL ID            SBIN;
     1615    21467    2        DCL DN$           PTR;
     1616    21468    2        DCL LINE#         SBIN;
     1617    21469    2        DCL NEW_QLT$      PTR;
     1618    21470    2        DCL ST$$          PTR;
     1619    21471
     1620    21472
     1621    21473    2        LINE# = CDECL$ -> LX_REPORT_REC.P.DATA_NAME$ -> LX_ITEM.LINE;

  21473 31 006105   000032 470400 0                  LDP0    CDECL$
        31 006106   000005 471500                    LDP1    5,,PR0
        31 006107   100005 235100                    LDA     5,,PR1
        31 006110   000171 755000 0                  STA     LINE#

     1622    21474    2        DN$   = CDECL$ -> LX_REPORT_REC.P.DATA_NAME$ -> LX_ITEM.DNT$;

  21474 31 006111   100002 236100                    LDQ     2,,PR1
        31 006112   000170 756000 0                  STQ     DN$

     1623    21475
     1624    21476             %NEW_SCALAR (@ST$   = ST$$,
PL6.E3A0      #001=Z8DT$REPORT_REC File=Z8DT.:Z8A6TSI                            SAT 08/09/97 11:22 Page:279
     1625    21477                          @DESCL = REPORT_DATA.DESC.DESCL,
     1626    21478                          @TYPE  = REPORT_DATA.TYPE,
     1627    21479                          @LINE_NO  = LINE#,
     1628    21480                          @NEXT  = DN$ -> DNT.ST$,
     1629    21481                          @LTS$  = REPORT_DATA.LTS$,
     1630    21482                          @DNT$  = DN$,
     1631    21483                          @PROC$ = O1COM.CURRENT_PROC$,
     1632    21484                          @ELEMENTARY = REPORT_DATA.B.ELEMENTARY,
     1633    21485                          @GREATER_256K = REPORT_DATA.B.GREATER_256K,
     1634    21486                          @CLASS      = REPORT_DATA.B.CLASS,
     1635    21487                          @ASTERISK_SUPRESS = REPORT_DATA.B.ASTERISK_SUPRESS,
     1636    21488                          @REPORT_ITEM = TRUE,
     1637    21489                          @GLOBAL = O1COM.CURRENT_REPORT_LTS$ -> REPORT_LTS.B.GLOBAL,
     1638    21490                          @KANJI  = REPORT_DATA.B.KANJI,
     1639    21491                          @LENGTH_4096= REPORT_DATA.B.LENGTH_4096,
     1640    21492                          @JUSTIFIED  = REPORT_DATA.B.JUSTIFIED);

  21496 31 006113   000002 236000 3                  LDQ     ST_+2
        31 006114   000013 036007                    ADLQ    11,DL
        31 006115   000003 116000 3                  CMPQ    ST_+3
        31 006116   006127 604000 31                 TMI     s:21498

  21497 31 006117   000176 236000 32                 LDQ     126
        31 006120   000302 756000 0                  STQ     FIRST_LINE_SHOWN+1
        31 006121   000302 631400 0                  EPPR1   FIRST_LINE_SHOWN+1
        31 006122   000303 451400 0                  STP1    FIRST_LINE_SHOWN+2
        31 006123   000303 630400 0                  EPPR0   FIRST_LINE_SHOWN+2
        31 006124   000036 631400 32                 EPPR1   30
        31 006125   000000 701000 xent               TSX1    Z8AR$RESERVER
        31 006126   000000 011000                    NOP     0

  21498 31 006127   000002 236000 3                  LDQ     ST_+2
        31 006130   000022 736000                    QLS     18
        31 006131   000001 036000 3                  ADLQ    ST_+1
        31 006132   000173 756000 0                  STQ     ST$$

  21499 31 006133   000013 236007                    LDQ     11,DL
PL6.E3A0      #001=Z8DT$REPORT_REC File=Z8DT.:Z8A6TSI                            SAT 08/09/97 11:22 Page:280
        31 006134   000002 056000 3                  ASQ     ST_+2

  21547 31 006135   000766 220003                    LDX0    502,DU
        31 006136   000173 470400 0                  LDP0    ST$$
        31 006137   000000 740100                    STX0    0,,PR0

  21548 31 006140   003000 236007                    LDQ     1536,DL
        31 006141   000000 552110                    STBQ    0,'10'O,PR0

  21549 31 006142   000001 236007                    LDQ     1,DL
        31 006143   000000 552104                    STBQ    0,'04'O,PR0

  21550 31 006144   000000 221003                    LDX1    0,DU
        31 006145   000001 741100                    STX1    1,,PR0

  21551 31 006146   000056 722000 0                  LXL2    REPORT_DATA+16
        31 006147   000001 442100                    SXL2    1,,PR0

  21552 31 006150   000171 723000 0                  LXL3    LINE#
        31 006151   000002 443100                    SXL3    2,,PR0

  21553 31 006152   000003 450100                    STZ     3,,PR0

  21554 31 006153   000170 471400 0                  LDP1    DN$
        31 006154   100001 236100                    LDQ     1,,PR1
        31 006155   000004 756100                    STQ     4,,PR0

  21555 31 006156   000055 236000 0                  LDQ     REPORT_DATA+15
        31 006157   000005 756100                    STQ     5,,PR0

  21556 31 006160   000005 236000 32                 LDQ     5
        31 006161   000007 756100                    STQ     7,,PR0

  21557 31 006162   000010 741100                    STX1    8,,PR0

  21558 31 006163   777777 224003                    LDX4    -1,DU
        31 006164   000010 444100                    SXL4    8,,PR0
PL6.E3A0      #001=Z8DT$REPORT_REC File=Z8DT.:Z8A6TSI                            SAT 08/09/97 11:22 Page:281

  21562 31 006165   000012 756100                    STQ     10,,PR0

  21581 31 006166   000057 236000 xsym               LDQ     O1COM+47
        31 006167   000011 756100                    STQ     9,,PR0

  21582 31 006170   000057 236000 xsym               LDQ     O1COM+47
        31 006171   000005 116000 32                 CMPQ    5
        31 006172   006214 600000 31                 TZE     s:21601

  21586 31 006173   000057 473400 xsym               LDP3    O1COM+47
        31 006174   300001 474500                    LDP4    1,,PR3
        31 006175   400012 236100                    LDQ     10,,PR4
        31 006176   000005 116000 32                 CMPQ    5
        31 006177   006206 601000 31                 TNZ     s:21593

  21588 31 006200   000173 236000 0                  LDQ     ST$$
        31 006201   400011 756100                    STQ     9,,PR4

  21589 31 006202   000057 473400 xsym               LDP3    O1COM+47
        31 006203   300001 474500                    LDP4    1,,PR3
        31 006204   400012 756100                    STQ     10,,PR4

  21590 31 006205   006214 710000 31                 TRA     s:21601

  21593 31 006206   400012 475500                    LDP5    10,,PR4
        31 006207   000173 236000 0                  LDQ     ST$$
        31 006210   500012 756100                    STQ     10,,PR5

  21594 31 006211   000057 473400 xsym               LDP3    O1COM+47
        31 006212   300001 474500                    LDP4    1,,PR3
        31 006213   400012 756100                    STQ     10,,PR4

  21601 31 006214   000047 722000 0                  LXL2    REPORT_DATA+9
        31 006215   000002 742100                    STX2    2,,PR0

  21606 31 006216   000170 236000 0                  LDQ     DN$
PL6.E3A0      #001=Z8DT$REPORT_REC File=Z8DT.:Z8A6TSI                            SAT 08/09/97 11:22 Page:282
        31 006217   000006 756100                    STQ     6,,PR0

  21617 31 006220   000060 236000 0                  LDQ     REPORT_DATA+18
        31 006221   000001 736000                    QLS     1
        31 006222   000003 676100                    ERQ     3,,PR0
        31 006223   040000 376003                    ANQ     16384,DU
        31 006224   000003 656100                    ERSQ    3,,PR0

  21620 31 006225   000060 236000 0                  LDQ     REPORT_DATA+18
        31 006226   000012 736000                    QLS     10
        31 006227   000003 676100                    ERQ     3,,PR0
        31 006230   020000 376003                    ANQ     8192,DU
        31 006231   000003 656100                    ERSQ    3,,PR0

  21623 31 006232   000060 236000 0                  LDQ     REPORT_DATA+18
        31 006233   000004 772000                    QRL     4
        31 006234   000003 676100                    ERQ     3,,PR0
        31 006235   010000 376003                    ANQ     4096,DU
        31 006236   000003 656100                    ERSQ    3,,PR0

  21626 31 006237   000060 236000 0                  LDQ     REPORT_DATA+18
        31 006240   000007 736000                    QLS     7
        31 006241   000003 676100                    ERQ     3,,PR0
        31 006242   004000 376003                    ANQ     2048,DU
        31 006243   000003 656100                    ERSQ    3,,PR0

  21644 31 006244   000060 236000 0                  LDQ     REPORT_DATA+18
        31 006245   000002 772000                    QRL     2
        31 006246   000003 676100                    ERQ     3,,PR0
        31 006247   000100 376003                    ANQ     64,DU
        31 006250   000003 656100                    ERSQ    3,,PR0

  21656 31 006251   000064 473400 xsym               LDP3    O1COM+52
        31 006252   300003 236100                    LDQ     3,,PR3
        31 006253   000007 772000                    QRL     7
        31 006254   000003 676100                    ERQ     3,,PR0
        31 006255   000010 376003                    ANQ     8,DU
PL6.E3A0      #001=Z8DT$REPORT_REC File=Z8DT.:Z8A6TSI                            SAT 08/09/97 11:22 Page:283
        31 006256   000003 656100                    ERSQ    3,,PR0

  21665 31 006257   010000 236007                    LDQ     4096,DL
        31 006260   000003 256100                    ORSQ    3,,PR0

  21671 31 006261   000060 236000 0                  LDQ     REPORT_DATA+18
        31 006262   000034 772000                    QRL     28
        31 006263   000003 676100                    ERQ     3,,PR0
        31 006264   000007 376007                    ANQ     7,DL
        31 006265   000003 656100                    ERSQ    3,,PR0

  21680 31 006266   000060 236000 0                  LDQ     REPORT_DATA+18
        31 006267   000006 772000                    QRL     6
        31 006270   000003 676100                    ERQ     3,,PR0
        31 006271   001000 376007                    ANQ     512,DL
        31 006272   000003 656100                    ERSQ    3,,PR0

     1641    21692
     1642    21693    2        IF CDECL$ -> LX_REPORT_REC.P.DATA_NAME$ ->

  21693 31 006273   000032 473400 0                  LDP3    CDECL$
        31 006274   300005 474500                    LDP4    5,,PR3
        31 006275   400003 235100                    LDA     3,,PR4
        31 006276   000320 115007                    CMPA    208,DL
        31 006277   006341 600000 31                 TZE     s:21728

     1643    21694    2        LX_ITEM.SYMBOL ~= %RSV_WRD_FILLER THEN
     1644    21695    3          DO;

     1645    21696                 %ADD_XREF (SYM   = ST$$,
     1646    21697                            ISN   = LINE#,
     1647    21698                            TYPE  = %XREF_DCL);

  21700 31 006300   000055 234000 xsym               SZN     COMCOM+45
        31 006301   006336 605000 31                 TPL     s:21717

  21704 31 006302   000002 236000 20                 LDQ     XREF_+2
PL6.E3A0      #001=Z8DT$REPORT_REC File=Z8DT.:Z8A6TSI                            SAT 08/09/97 11:22 Page:284
        31 006303   000002 036007                    ADLQ    2,DL
        31 006304   000003 116000 20                 CMPQ    XREF_+3
        31 006305   006316 602000 31                 TNC     s:21706

  21705 31 006306   000177 236000 32                 LDQ     127
        31 006307   000302 756000 0                  STQ     FIRST_LINE_SHOWN+1
        31 006310   000302 634400 0                  EPPR4   FIRST_LINE_SHOWN+1
        31 006311   000303 454400 0                  STP4    FIRST_LINE_SHOWN+2
        31 006312   000303 630400 0                  EPPR0   FIRST_LINE_SHOWN+2
        31 006313   000036 631400 32                 EPPR1   30
        31 006314   000000 701000 xent               TSX1    Z8AR$RESERVER
        31 006315   000000 011000                    NOP     0

  21706 31 006316   000002 236000 20                 LDQ     XREF_+2
        31 006317   000022 736000                    QLS     18
        31 006320   000001 036000 20                 ADLQ    XREF_+1
        31 006321   000000 756000 19                 STQ     XREF$

  21707 31 006322   000002 235000 20                 LDA     XREF_+2
        31 006323   000002 035007                    ADLA    2,DL
        31 006324   000002 755000 20                 STA     XREF_+2

  21708 31 006325   000004 220003                    LDX0    4,DU
        31 006326   000000 470400 19                 LDP0    XREF$
        31 006327   000000 740100                    STX0    0,,PR0

  21711 31 006330   000171 721000 0                  LXL1    LINE#
        31 006331   000000 470400 19                 LDP0    XREF$
        31 006332   000000 441100                    SXL1    0,,PR0

  21712 31 006333   000173 236000 0                  LDQ     ST$$
        31 006334   000000 470400 19                 LDP0    XREF$
        31 006335   000001 756100                    STQ     1,,PR0

     1648    21716
     1649    21717    3            DN$ -> DNT.ST$ = ST$$;

PL6.E3A0      #001=Z8DT$REPORT_REC File=Z8DT.:Z8A6TSI                            SAT 08/09/97 11:22 Page:285
  21717 31 006336   000173 236000 0                  LDQ     ST$$
        31 006337   000170 470400 0                  LDP0    DN$
        31 006340   000001 756100                    STQ     1,,PR0

     1650    21718    3          END;

     1651    21719
     1652    21720             %NEW_QLT  (@POINTER   = NEW_QLT$,
     1653    21721                        @ST$       = ST$$,
     1654    21722                        @DNT$      = ST$$ -> SCALAR.DNT$,
     1655    21723                        @LEVEL#    = REPORT_DATA.LEVEL.CURRENT);

  21728 31 006341   000002 236000 6                  LDQ     QLT_+2
        31 006342   000006 036007                    ADLQ    6,DL
        31 006343   000003 116000 6                  CMPQ    QLT_+3
        31 006344   006355 602000 31                 TNC     s:21730

  21729 31 006345   000200 236000 32                 LDQ     128
        31 006346   000302 756000 0                  STQ     FIRST_LINE_SHOWN+1
        31 006347   000302 630400 0                  EPPR0   FIRST_LINE_SHOWN+1
        31 006350   000303 450400 0                  STP0    FIRST_LINE_SHOWN+2
        31 006351   000303 630400 0                  EPPR0   FIRST_LINE_SHOWN+2
        31 006352   000036 631400 32                 EPPR1   30
        31 006353   000000 701000 xent               TSX1    Z8AR$RESERVER
        31 006354   000000 011000                    NOP     0

  21730 31 006355   000002 236000 6                  LDQ     QLT_+2
        31 006356   000022 736000                    QLS     18
        31 006357   000001 036000 6                  ADLQ    QLT_+1
        31 006360   000172 756000 0                  STQ     NEW_QLT$

  21731 31 006361   000002 235000 6                  LDA     QLT_+2
        31 006362   000006 035007                    ADLA    6,DL
        31 006363   000002 755000 6                  STA     QLT_+2

  21732 31 006364   001053 220003                    LDX0    555,DU
        31 006365   000172 470400 0                  LDP0    NEW_QLT$
PL6.E3A0      #001=Z8DT$REPORT_REC File=Z8DT.:Z8A6TSI                            SAT 08/09/97 11:22 Page:286
        31 006366   000000 740100                    STX0    0,,PR0

  21735 31 006367   000005 236000 32                 LDQ     5
        31 006370   000001 756100                    STQ     1,,PR0

  21736 31 006371   000005 236000 32                 LDQ     5
        31 006372   000002 756100                    STQ     2,,PR0

  21737 31 006373   000005 236000 32                 LDQ     5
        31 006374   000003 756100                    STQ     3,,PR0

  21738 31 006375   000173 236000 0                  LDQ     ST$$
        31 006376   000004 756100                    STQ     4,,PR0

  21739 31 006377   000173 471400 0                  LDP1    ST$$
        31 006400   100006 236100                    LDQ     6,,PR1
        31 006401   000005 756100                    STQ     5,,PR0

  21740 31 006402   000036 236000 0                  LDQ     REPORT_DATA
        31 006403   000000 552104                    STBQ    0,'04'O,PR0

  21741 31 006404   000000 236003                    LDQ     0,DU
        31 006405   000000 552110                    STBQ    0,'10'O,PR0

  21742 31 006406   000201 236000 32                 LDQ     129
        31 006407   000000 356100                    ANSQ    0,,PR0

  21743 31 006410   000202 236000 32                 LDQ     130
        31 006411   000000 356100                    ANSQ    0,,PR0

  21744 31 006412   000171 236000 32                 LDQ     121
        31 006413   000000 356100                    ANSQ    0,,PR0

  21745 31 006414   000160 236000 32                 LDQ     112
        31 006415   000000 356100                    ANSQ    0,,PR0

     1656    21748
PL6.E3A0      #001=Z8DT$REPORT_REC File=Z8DT.:Z8A6TSI                            SAT 08/09/97 11:22 Page:287
     1657    21749    2        ST$$ -> SCALAR.QLT$    = NEW_QLT$;

  21749 31 006416   000172 236000 0                  LDQ     NEW_QLT$
        31 006417   100007 756100                    STQ     7,,PR1

     1658    21750
     1659    21751    2        NEW_ST$ = ST$$;

  21751 31 006420   000173 236000 0                  LDQ     ST$$
        31 006421   000166 473400 0                  LDP3    @NEW_ST$
        31 006422   300000 756100                    STQ     0,,PR3

     1660    21752
     1661    21753
     1662    21754    2    END NEW_ST;

  21754 31 006423   000165 221200 0                  LDX1  ! NEW_LONG$+1
        31 006424   000001 702211                    TSX2  ! 1,X1

     1663    21755         %EJECT;
PL6.E3A0      #001=Z8DT$REPORT_REC File=Z8DT.:Z8A6TSI                            SAT 08/09/97 11:22 Page:288
     1664    21756
     1665    21757         /*==============*/
     1666    21758    1      VALIDATE_LINE :  PROC;

  21758 31 006425   000174 741200 0     VALIDATE_LI* STX1  ! ST$$+1

     1667    21759         /*==============*/
     1668    21760         /*
     1669    21761               NAME: VALIDATE_LINE
     1670    21762
     1671    21763           DESCRIPTION: This routine validated the LINE clause.
     1672    21764
     1673    21765          */
     1674    21766
     1675    21767
     1676    21768
     1677    21769    2     DCL LINE$                    PTR;
     1678    21770    2     DCL LINE_NO#                 SBIN WORD;
     1679    21771    2     DCL LTS$$                    PTR;
     1680    21772    2     DCL GRP_TYPE                 UBIN WORD;
     1681    21773
     1682    21774
     1683    21775
     1684    21776    2      IF REPORT_DATA.LEVEL.CURRENT = REPORT_DATA.LEVEL.PREVIOUS THEN

  21776 31 006426   000036 236000 0                  LDQ     REPORT_DATA
        31 006427   000037 116000 0                  CMPQ    REPORT_DATA+1
        31 006430   006434 601000 31                 TNZ     s:21779

     1685    21777    2        REPORT_DATA.STK_PTR = REP_STK_PTR;

  21777 31 006431   000000 235000 xsym               LDA     REP_STK_PTR
        31 006432   000054 755000 0                  STA     REPORT_DATA+14
        31 006433   006452 710000 31                 TRA     s:21787

     1686    21778    2      ELSE
     1687    21779    2        IF REPORT_DATA.LEVEL.CURRENT > REPORT_DATA.LEVEL.PREVIOUS THEN
PL6.E3A0      #001=Z8DT$REPORT_REC File=Z8DT.:Z8A6TSI                            SAT 08/09/97 11:22 Page:289

  21779 31 006434   006441 604400 31                 TMOZ    s:21782

     1688    21780    2          REPORT_DATA.STK_PTR = REP_STK_PTR + 1;

  21780 31 006435   000000 235000 xsym               LDA     REP_STK_PTR
        31 006436   000001 035007                    ADLA    1,DL
        31 006437   000054 755000 0                  STA     REPORT_DATA+14
        31 006440   006452 710000 31                 TRA     s:21787

     1689    21781    2        ELSE
     1690    21782    2          IF REPORT_DATA.LEVEL.CURRENT = %LEVEL_01 THEN

  21782 31 006441   000001 116007                    CMPQ    1,DL
        31 006442   006446 601000 31                 TNZ     s:21785

     1691    21783    2            REPORT_DATA.STK_PTR = %LEVEL_01;

  21783 31 006443   000001 235007                    LDA     1,DL
        31 006444   000054 755000 0                  STA     REPORT_DATA+14
        31 006445   006452 710000 31                 TRA     s:21787

     1692    21784    2          ELSE
     1693    21785    2            CALL FIND_REP_STK_PTR (REPORT_DATA.STK_PTR,REPORT_DATA.LEVEL.CURRENT);

  21785 31 006446   000204 237000 32                 LDAQ    132
        31 006447   000232 757000 0                  STAQ    REC_LENGTH+2
        31 006450   010523 701000 31                 TSX1    FIND_REP_STK_PTR
        31 006451   000000 011000                    NOP     0

     1694    21786
     1695    21787    2      IF CDECL$ -> LX_REPORT_REC.P.LINE_NUMBER$ = ADDR(NIL) THEN

  21787 31 006452   000032 470400 0                  LDP0    CDECL$
        31 006453   000016 236100                    LDQ     14,,PR0
        31 006454   000005 116000 32                 CMPQ    5
        31 006455   006460 601000 31                 TNZ     s:21790
PL6.E3A0      #001=Z8DT$REPORT_REC File=Z8DT.:Z8A6TSI                            SAT 08/09/97 11:22 Page:290

     1696    21788    2        RETURN;

  21788 31 006456   000174 221200 0                  LDX1  ! ST$$+1
        31 006457   000001 702211                    TSX2  ! 1,X1

     1697    21789    2      ELSE
     1698    21790    2        LINE$ = CDECL$ -> LX_REPORT_REC.P.LINE_NUMBER$;

  21790 31 006460   000175 756000 0                  STQ     LINE$

     1699    21791
     1700    21792    3      DO I = REPORT_DATA.STK_PTR - 1 DOWNTO 1 BY -1;

  21792 31 006461   000054 235000 0                  LDA     REPORT_DATA+14
        31 006462   000001 135007                    SBLA    1,DL
        31 006463   000035 755000 0                  STA     I
        31 006464   006520 710000 31                 TRA     s:21801+2

     1701    21793    3        IF REP_STK.B.LINE_PRESENTED (I) THEN

  21793 31 006465   000035 236000 0                  LDQ     I
        31 006466   000005 402007                    MPY     5,DL
        31 006467   000004 236006 xsym               LDQ     REP_STK+4,QL
        31 006470   100000 316003                    CANQ    32768,DU
        31 006471   006516 600000 31                 TZE     s:21801

     1702    21794    4          DO;

     1703    21795    4            CALL Z8AE$ERROR (%E$LINE_UNDER_LINE,

  21795 31 006472   000175 236000 0                  LDQ     LINE$
        31 006473   000006 036003                    ADLQ    6,DU
        31 006474   000304 756000 0                  STQ     FIRST_LINE_SHOWN+3
        31 006475   000175 236000 0                  LDQ     LINE$
        31 006476   000005 036003                    ADLQ    5,DU
        31 006477   000206 235000 32                 LDA     134
PL6.E3A0      #001=Z8DT$REPORT_REC File=Z8DT.:Z8A6TSI                            SAT 08/09/97 11:22 Page:291
        31 006500   000302 757000 0                  STAQ    FIRST_LINE_SHOWN+1
        31 006501   000302 630400 0                  EPPR0   FIRST_LINE_SHOWN+1
        31 006502   000006 631400 32                 EPPR1   6
        31 006503   000000 701000 xent               TSX1    Z8AE$ERROR
        31 006504   000000 011000                    NOP     0

     1704    21796    4                              LINE$ -> LX_ITEM.LINE,
     1705    21797    4                              LINE$ -> LX_ITEM.COLUMN);
     1706    21798    4            CALL Z8ED$DISPOSE_ABSSYN_TREE (CDECL$ -> LX_REPORT_REC.P.LINE_NUMBER$);

  21798 31 006505   000032 236000 0                  LDQ     CDECL$
        31 006506   000016 036003                    ADLQ    14,DU
        31 006507   000302 756000 0                  STQ     FIRST_LINE_SHOWN+1
        31 006510   000302 630400 0                  EPPR0   FIRST_LINE_SHOWN+1
        31 006511   000036 631400 32                 EPPR1   30
        31 006512   000000 701000 xent               TSX1    Z8ED$DISPOSE_ABSSYN_TREE
        31 006513   000000 011000                    NOP     0

     1707    21799    4            RETURN;

  21799 31 006514   000174 221200 0                  LDX1  ! ST$$+1
        31 006515   000001 702211                    TSX2  ! 1,X1

     1708    21800    4          END;
     1709    21801    3      END;

  21801 31 006516   000001 336007                    LCQ     1,DL
        31 006517   000035 056000 0                  ASQ     I
        31 006520   000035 235000 0                  LDA     I
        31 006521   006465 605400 31                 TPNZ    s:21793

     1710    21802
     1711    21803    2      REPORT_DATA.LINE_TYPE = CDECL$ -> LX_REPORT_REC.D.LINE_TYPE;

  21803 31 006522   000032 470400 0                  LDP0    CDECL$
        31 006523   000002 235100                    LDA     2,,PR0
        31 006524   000046 755000 0                  STA     REPORT_DATA+8
PL6.E3A0      #001=Z8DT$REPORT_REC File=Z8DT.:Z8A6TSI                            SAT 08/09/97 11:22 Page:292

     1712    21804    2      CALL CHARBIN (REPORT_DATA.LINE_NUMBER, LINE$ -> LX_ITEM.DNT$ -> DNT.TEXT.NAME);

  21804 31 006525   000175 471400 0                  LDP1    LINE$
        31 006526   100002 473500                    LDP3    2,,PR1
        31 006527   300004 220100                    LDX0    4,,PR3
        31 006530   000000 305540                    DTB
        31 006531   300004 430010                    NDSC9   4,,PR3                   cn=2,s=nosgn,sf=0,n=*X0
        31 006532   000053 000004 0                  NDSC9   REPORT_DATA+13           cn=0,s=lsgnf,sf=0,n=4

     1713    21805    2      REPORT_DATA.B.LINE_PRESENTED = TRUE;

  21805 31 006533   000004 236003                    LDQ     4,DU
        31 006534   000060 256000 0                  ORSQ    REPORT_DATA+18

     1714    21806
     1715    21807    2      IF REPORT_DATA.LINE_NUMBER > 999 THEN

  21807 31 006535   000053 235000 0                  LDA     REPORT_DATA+13
        31 006536   001747 115007                    CMPA    999,DL
        31 006537   006555 604400 31                 TMOZ    s:21815

     1716    21808    3        DO;

     1717    21809    3          CALL Z8AE$ERROR (%E$NUM_EXCEED_999,

  21809 31 006540   000175 236000 0                  LDQ     LINE$
        31 006541   000006 036003                    ADLQ    6,DU
        31 006542   000304 756000 0                  STQ     FIRST_LINE_SHOWN+3
        31 006543   000175 236000 0                  LDQ     LINE$
        31 006544   000005 036003                    ADLQ    5,DU
        31 006545   000210 235000 32                 LDA     136
        31 006546   000302 757000 0                  STAQ    FIRST_LINE_SHOWN+1
        31 006547   000302 630400 0                  EPPR0   FIRST_LINE_SHOWN+1
        31 006550   000006 631400 32                 EPPR1   6
        31 006551   000000 701000 xent               TSX1    Z8AE$ERROR
        31 006552   000000 011000                    NOP     0
PL6.E3A0      #001=Z8DT$REPORT_REC File=Z8DT.:Z8A6TSI                            SAT 08/09/97 11:22 Page:293

     1718    21810    3                           LINE$ -> LX_ITEM.LINE,
     1719    21811    3                           LINE$ -> LX_ITEM.COLUMN);
     1720    21812    3          REPORT_DATA.LINE_NUMBER = 999;

  21812 31 006553   001747 235007                    LDA     999,DL
        31 006554   000053 755000 0                  STA     REPORT_DATA+13

     1721    21813    3        END;

     1722    21814
     1723    21815    2      IF REPORT_DATA.LINE_TYPE ~= %REPORT_LINE_PLUS THEN

  21815 31 006555   000046 236000 0                  LDQ     REPORT_DATA+8
        31 006556   000002 116007                    CMPQ    2,DL
        31 006557   007021 600000 31                 TZE     s:21907

     1724    21816    3        DO;

     1725    21817    3          IF NOT O1COM.CURRENT_REPORT_LTS$ -> REPORT_LTS.B.PAGE_LIMIT_ON THEN

  21817 31 006560   000064 470400 xsym               LDP0    O1COM+52
        31 006561   000003 236100                    LDQ     3,,PR0
        31 006562   100000 316003                    CANQ    32768,DU
        31 006563   006604 601000 31                 TNZ     s:21827

     1726    21818    4            DO;

     1727    21819    4              CALL Z8AE$ERROR ( %E$LINE_W_NO_PAGE,

  21819 31 006564   000175 236000 0                  LDQ     LINE$
        31 006565   000006 036003                    ADLQ    6,DU
        31 006566   000304 756000 0                  STQ     FIRST_LINE_SHOWN+3
        31 006567   000175 236000 0                  LDQ     LINE$
        31 006570   000005 036003                    ADLQ    5,DU
        31 006571   000212 235000 32                 LDA     138
        31 006572   000302 757000 0                  STAQ    FIRST_LINE_SHOWN+1
PL6.E3A0      #001=Z8DT$REPORT_REC File=Z8DT.:Z8A6TSI                            SAT 08/09/97 11:22 Page:294
        31 006573   000302 630400 0                  EPPR0   FIRST_LINE_SHOWN+1
        31 006574   000006 631400 32                 EPPR1   6
        31 006575   000000 701000 xent               TSX1    Z8AE$ERROR
        31 006576   000000 011000                    NOP     0

     1728    21820    4                                LINE$ -> LX_ITEM.LINE,
     1729    21821    4                                LINE$ -> LX_ITEM.COLUMN);
     1730    21822    4              REPORT_DATA.LINE_TYPE = %REPORT_LINE_PLUS;

  21822 31 006577   000002 235007                    LDA     2,DL
        31 006600   000046 755000 0                  STA     REPORT_DATA+8

     1731    21823    4              REPORT_DATA.LINE_NUMBER = 1;

  21823 31 006601   000001 236007                    LDQ     1,DL
        31 006602   000053 756000 0                  STQ     REPORT_DATA+13

     1732    21824    4            END;

  21824 31 006603   007021 710000 31                 TRA     s:21907

     1733    21825    3          ELSE
     1734    21826    4            DO;

     1735    21827    4              IF REPORT_DATA.LEVEL.CURRENT ~= %LEVEL_01 THEN

  21827 31 006604   000036 235000 0                  LDA     REPORT_DATA
        31 006605   000001 115007                    CMPA    1,DL
        31 006606   006763 600000 31                 TZE     s:21889

     1736    21828    5                DO;

     1737    21829    5              LTS$$ = REP_STK.LTS$ (REP_STK_PTR);

  21829 31 006607   000000 236000 xsym               LDQ     REP_STK_PTR
        31 006610   000005 402007                    MPY     5,DL
        31 006611   000001 236006 xsym               LDQ     REP_STK+1,QL
PL6.E3A0      #001=Z8DT$REPORT_REC File=Z8DT.:Z8A6TSI                            SAT 08/09/97 11:22 Page:295
        31 006612   000177 756000 0                  STQ     LTS$$

     1738    21830    6              DO WHILE (LTS$$ ~= ADDR(NIL));

  21830 31 006613   006717 710000 31                 TRA     s:21865

     1739    21831    6                IF LTS$$ -> REPORT_GRP_LTS.B.LINE_PRESENTED THEN

  21831 31 006614   000177 470400 0                  LDP0    LTS$$
        31 006615   000000 236100                    LDQ     0,,PR0
        31 006616   400000 316007                    CANQ    -131072,DL
        31 006617   006715 600000 31                 TZE     s:21863

     1740    21832    7                  DO;

     1741    21833    7                    IF LTS$$ -> REPORT_GRP_LTS.LINE_TYPE = %REPORT_LINE_PLUS THEN

  21833 31 006620   000001 235100                    LDA     1,,PR0
        31 006621   000002 115007                    CMPA    2,DL
        31 006622   006643 601000 31                 TNZ     s:21842

     1742    21834    8                      DO;

     1743    21835    8                        CALL Z8AE$ERROR (%E$ABSOLUTE_FOLLOW_RELATIVE,

  21835 31 006623   000175 236000 0                  LDQ     LINE$
        31 006624   000006 036003                    ADLQ    6,DU
        31 006625   000304 756000 0                  STQ     FIRST_LINE_SHOWN+3
        31 006626   000175 236000 0                  LDQ     LINE$
        31 006627   000005 036003                    ADLQ    5,DU
        31 006630   000214 235000 32                 LDA     140
        31 006631   000302 757000 0                  STAQ    FIRST_LINE_SHOWN+1
        31 006632   000302 630400 0                  EPPR0   FIRST_LINE_SHOWN+1
        31 006633   000006 631400 32                 EPPR1   6
        31 006634   000000 701000 xent               TSX1    Z8AE$ERROR
        31 006635   000000 011000                    NOP     0

PL6.E3A0      #001=Z8DT$REPORT_REC File=Z8DT.:Z8A6TSI                            SAT 08/09/97 11:22 Page:296
     1744    21836    8                                         LINE$ -> LX_ITEM.LINE,
     1745    21837    8                                         LINE$ -> LX_ITEM.COLUMN);
     1746    21838    8                        REPORT_DATA.LINE_TYPE = %REPORT_LINE_PLUS;

  21838 31 006636   000002 235007                    LDA     2,DL
        31 006637   000046 755000 0                  STA     REPORT_DATA+8

     1747    21839    8                        REPORT_DATA.LINE_NUMBER = 1;

  21839 31 006640   000001 236007                    LDQ     1,DL
        31 006641   000053 756000 0                  STQ     REPORT_DATA+13

     1748    21840    8                      END;

  21840 31 006642   006667 710000 31                 TRA     s:21851

     1749    21841    7                    ELSE
     1750    21842    7                     IF LTS$$ -> REPORT_GRP_LTS.LINE_NO# > REPORT_DATA.LINE_NUMBER AND

  21842 31 006643   000002 236100                    LDQ     2,,PR0
        31 006644   000053 116000 0                  CMPQ    REPORT_DATA+13
        31 006645   006667 604400 31                 TMOZ    s:21851
        31 006646   000046 235000 0                  LDA     REPORT_DATA+8
        31 006647   000003 115007                    CMPA    3,DL
        31 006650   006667 600000 31                 TZE     s:21851

     1751    21843    7                         REPORT_DATA.LINE_TYPE ~= %REPORT_LINE_NEXT_PAGE THEN
     1752    21844    8                        DO;

     1753    21845    8                          CALL Z8AE$ERROR (%E$ABSOLUTE_NOT_ASCENDING,

  21845 31 006651   000175 236000 0                  LDQ     LINE$
        31 006652   000006 036003                    ADLQ    6,DU
        31 006653   000304 756000 0                  STQ     FIRST_LINE_SHOWN+3
        31 006654   000175 236000 0                  LDQ     LINE$
        31 006655   000005 036003                    ADLQ    5,DU
        31 006656   000216 235000 32                 LDA     142
PL6.E3A0      #001=Z8DT$REPORT_REC File=Z8DT.:Z8A6TSI                            SAT 08/09/97 11:22 Page:297
        31 006657   000302 757000 0                  STAQ    FIRST_LINE_SHOWN+1
        31 006660   000302 630400 0                  EPPR0   FIRST_LINE_SHOWN+1
        31 006661   000006 631400 32                 EPPR1   6
        31 006662   000000 701000 xent               TSX1    Z8AE$ERROR
        31 006663   000000 011000                    NOP     0

     1754    21846    8                                           LINE$ -> LX_ITEM.LINE,
     1755    21847    8                                           LINE$ -> LX_ITEM.COLUMN);
     1756    21848    8                          REPORT_DATA.LINE_NUMBER = LTS$$ -> REPORT_GRP_LTS.LINE_NO#;

  21848 31 006664   000177 470400 0                  LDP0    LTS$$
        31 006665   000002 235100                    LDA     2,,PR0
        31 006666   000053 755000 0                  STA     REPORT_DATA+13

     1757    21849    8                        END;

     1758    21850
     1759    21851    7                    IF REPORT_DATA.LINE_TYPE = %REPORT_LINE_NEXT_PAGE THEN

  21851 31 006667   000046 235000 0                  LDA     REPORT_DATA+8
        31 006670   000003 115007                    CMPA    3,DL
        31 006671   006712 601000 31                 TNZ     s:21860

     1760    21852    8                      DO;

     1761    21853    8                        CALL Z8AE$ERROR (%E$NEXT_PAGE_NOT_FIRST,

  21853 31 006672   000175 236000 0                  LDQ     LINE$
        31 006673   000006 036003                    ADLQ    6,DU
        31 006674   000304 756000 0                  STQ     FIRST_LINE_SHOWN+3
        31 006675   000175 236000 0                  LDQ     LINE$
        31 006676   000005 036003                    ADLQ    5,DU
        31 006677   000220 235000 32                 LDA     144
        31 006700   000302 757000 0                  STAQ    FIRST_LINE_SHOWN+1
        31 006701   000302 630400 0                  EPPR0   FIRST_LINE_SHOWN+1
        31 006702   000006 631400 32                 EPPR1   6
        31 006703   000000 701000 xent               TSX1    Z8AE$ERROR
PL6.E3A0      #001=Z8DT$REPORT_REC File=Z8DT.:Z8A6TSI                            SAT 08/09/97 11:22 Page:298
        31 006704   000000 011000                    NOP     0

     1762    21854    8                                         LINE$ -> LX_ITEM.LINE,
     1763    21855    8                                         LINE$ -> LX_ITEM.COLUMN);
     1764    21856    8                        REPORT_DATA.LINE_TYPE = %REPORT_LINE_INT;

  21856 31 006705   000001 235007                    LDA     1,DL
        31 006706   000046 755000 0                  STA     REPORT_DATA+8

     1765    21857    8                        REPORT_DATA.LINE_NUMBER = LTS$$ -> REPORT_GRP_LTS.LINE_NO#;

  21857 31 006707   000177 470400 0                  LDP0    LTS$$
        31 006710   000002 235100                    LDA     2,,PR0
        31 006711   000053 755000 0                  STA     REPORT_DATA+13

     1766    21858    8                      END;

     1767    21859
     1768    21860    7                    LTS$$ = ADDR(NIL);

  21860 31 006712   000005 236000 32                 LDQ     5
        31 006713   000177 756000 0                  STQ     LTS$$

     1769    21861    7                  END;

  21861 31 006714   006717 710000 31                 TRA     s:21865

     1770    21862    6                ELSE
     1771    21863    6                  LTS$$ = LTS$$ -> REPORT_GRP_LTS.PREV;

  21863 31 006715   000005 236100                    LDQ     5,,PR0
        31 006716   000177 756000 0                  STQ     LTS$$

     1772    21864
     1773    21865    6              END;  /* end while */

  21865 31 006717   000005 116000 32                 CMPQ    5
PL6.E3A0      #001=Z8DT$REPORT_REC File=Z8DT.:Z8A6TSI                            SAT 08/09/97 11:22 Page:299
        31 006720   006614 601000 31                 TNZ     s:21831

     1774    21866
     1775    21867    5              GRP_TYPE = REP_STK.LTS$ (1) -> REPORT_01_LTS.GROUP_TYPE;

  21867 31 006721   000006 470400 xsym               LDP0    REP_STK+6
        31 006722   000010 235100                    LDA     8,,PR0
        31 006723   000200 755000 0                  STA     GRP_TYPE

     1776    21868                   %CHECK_NEXT_PAGE_W_TYPE (@GROUP_TYPE = GRP_TYPE);

  21870 31 006724   000046 235000 0                  LDA     REPORT_DATA+8
        31 006725   000003 115007                    CMPA    3,DL
        31 006726   007021 601000 31                 TNZ     s:21907

  21872 31 006727   000200 235000 0                  LDA     GRP_TYPE
        31 006730   000011 115007                    CMPA    9,DL
        31 006731   006733 602005 31                 TNC     s:21872+4,AL
        31 006732   007021 710000 31                 TRA     s:21907
        31 006733   006762 710000 31                 TRA     s:21884
        31 006734   006744 710000 31                 TRA     s:21874
        31 006735   006744 710000 31                 TRA     s:21874
        31 006736   006762 710000 31                 TRA     s:21884
        31 006737   006762 710000 31                 TRA     s:21884
        31 006740   006762 710000 31                 TRA     s:21884
        31 006741   006762 710000 31                 TRA     s:21884
        31 006742   006762 710000 31                 TRA     s:21884
        31 006743   006744 710000 31                 TRA     s:21874

  21874 31 006744   000175 236000 0                  LDQ     LINE$
        31 006745   000006 036003                    ADLQ    6,DU
        31 006746   000304 756000 0                  STQ     FIRST_LINE_SHOWN+3
        31 006747   000175 236000 0                  LDQ     LINE$
        31 006750   000005 036003                    ADLQ    5,DU
        31 006751   000222 235000 32                 LDA     146
        31 006752   000302 757000 0                  STAQ    FIRST_LINE_SHOWN+1
        31 006753   000302 630400 0                  EPPR0   FIRST_LINE_SHOWN+1
PL6.E3A0      #001=Z8DT$REPORT_REC File=Z8DT.:Z8A6TSI                            SAT 08/09/97 11:22 Page:300
        31 006754   000006 631400 32                 EPPR1   6
        31 006755   000000 701000 xent               TSX1    Z8AE$ERROR
        31 006756   000000 011000                    NOP     0

  21877 31 006757   000001 235007                    LDA     1,DL
        31 006760   000046 755000 0                  STA     REPORT_DATA+8
        31 006761   007021 710000 31                 TRA     s:21907

     1777    21884    5            END;

  21884 31 006762   007021 710000 31                 TRA     s:21907

     1778    21885
     1779    21886    4          ELSE
     1780    21887                 %CHECK_NEXT_PAGE_W_TYPE (@GROUP_TYPE = REPORT_DATA.GROUP_TYPE);

  21889 31 006763   000046 235000 0                  LDA     REPORT_DATA+8
        31 006764   000003 115007                    CMPA    3,DL
        31 006765   007021 601000 31                 TNZ     s:21907

  21891 31 006766   000045 235000 0                  LDA     REPORT_DATA+7
        31 006767   000011 115007                    CMPA    9,DL
        31 006770   006772 602005 31                 TNC     s:21891+4,AL
        31 006771   007021 710000 31                 TRA     s:21907
        31 006772   007021 710000 31                 TRA     s:21907
        31 006773   007003 710000 31                 TRA     s:21893
        31 006774   007003 710000 31                 TRA     s:21893
        31 006775   007021 710000 31                 TRA     s:21907
        31 006776   007021 710000 31                 TRA     s:21907
        31 006777   007021 710000 31                 TRA     s:21907
        31 007000   007021 710000 31                 TRA     s:21907
        31 007001   007021 710000 31                 TRA     s:21907
        31 007002   007003 710000 31                 TRA     s:21893

  21893 31 007003   000175 236000 0                  LDQ     LINE$
        31 007004   000006 036003                    ADLQ    6,DU
        31 007005   000304 756000 0                  STQ     FIRST_LINE_SHOWN+3
PL6.E3A0      #001=Z8DT$REPORT_REC File=Z8DT.:Z8A6TSI                            SAT 08/09/97 11:22 Page:301
        31 007006   000175 236000 0                  LDQ     LINE$
        31 007007   000005 036003                    ADLQ    5,DU
        31 007010   000222 235000 32                 LDA     146
        31 007011   000302 757000 0                  STAQ    FIRST_LINE_SHOWN+1
        31 007012   000302 630400 0                  EPPR0   FIRST_LINE_SHOWN+1
        31 007013   000006 631400 32                 EPPR1   6
        31 007014   000000 701000 xent               TSX1    Z8AE$ERROR
        31 007015   000000 011000                    NOP     0

  21896 31 007016   000001 235007                    LDA     1,DL
        31 007017   000046 755000 0                  STA     REPORT_DATA+8
        31 007020   007021 710000 31                 TRA     s:21907

     1781    21903
     1782    21904    4        END;

     1783    21905    3      END;

     1784    21906
     1785    21907    2    END VALIDATE_LINE;

  21907 31 007021   000174 221200 0                  LDX1  ! ST$$+1
        31 007022   000001 702211                    TSX2  ! 1,X1

     1786    21908         %EJECT;
PL6.E3A0      #001=Z8DT$REPORT_REC File=Z8DT.:Z8A6TSI                            SAT 08/09/97 11:22 Page:302
     1787    21909
     1788    21910         /*===================*/
     1789    21911    1      VALIDATE_NEXT_GROUP:  PROC;

  21911 31 007023   000201 741200 0     VALIDATE_NE* STX1  ! GRP_TYPE+1

     1790    21912         /*===================*/
     1791    21913         /*
     1792    21914               NAME: VALIDATE_NEXT_GROUP
     1793    21915
     1794    21916           DESCRIPTION: This routine validated the NEXT GROUP clause.
     1795    21917
     1796    21918          */
     1797    21919
     1798    21920
     1799    21921    2     DCL GROUP$               PTR;
     1800    21922
     1801    21923
     1802    21924
     1803    21925    2      GROUP$ = CDECL$ -> LX_REPORT_REC.P.NEXT_GROUP$;

  21925 31 007024   000032 470400 0                  LDP0    CDECL$
        31 007025   000015 236100                    LDQ     13,,PR0
        31 007026   000202 756000 0                  STQ     GROUP$

     1804    21926
     1805    21927    2      IF REPORT_DATA.LEVEL.CURRENT ~= %LEVEL_01 THEN

  21927 31 007027   000036 235000 0                  LDA     REPORT_DATA
        31 007030   000001 115007                    CMPA    1,DL
        31 007031   007055 600000 31                 TZE     s:21936

     1806    21928    3        DO;

     1807    21929    3          CALL Z8AE$ERROR (%E$NEXT_GROUP_NOT_IN_01,

  21929 31 007032   000006 036003                    ADLQ    6,DU
PL6.E3A0      #001=Z8DT$REPORT_REC File=Z8DT.:Z8A6TSI                            SAT 08/09/97 11:22 Page:303
        31 007033   000304 756000 0                  STQ     FIRST_LINE_SHOWN+3
        31 007034   000202 236000 0                  LDQ     GROUP$
        31 007035   000005 036003                    ADLQ    5,DU
        31 007036   000224 235000 32                 LDA     148
        31 007037   000302 757000 0                  STAQ    FIRST_LINE_SHOWN+1
        31 007040   000302 630400 0                  EPPR0   FIRST_LINE_SHOWN+1
        31 007041   000006 631400 32                 EPPR1   6
        31 007042   000000 701000 xent               TSX1    Z8AE$ERROR
        31 007043   000000 011000                    NOP     0

     1808    21930    3                           GROUP$ -> LX_ITEM.LINE,
     1809    21931    3                           GROUP$ -> LX_ITEM.COLUMN);
     1810    21932    3          CALL Z8ED$DISPOSE_ABSSYN_TREE (CDECL$ -> LX_REPORT_REC.P.NEXT_GROUP$);

  21932 31 007044   000032 236000 0                  LDQ     CDECL$
        31 007045   000015 036003                    ADLQ    13,DU
        31 007046   000302 756000 0                  STQ     FIRST_LINE_SHOWN+1
        31 007047   000302 630400 0                  EPPR0   FIRST_LINE_SHOWN+1
        31 007050   000036 631400 32                 EPPR1   30
        31 007051   000000 701000 xent               TSX1    Z8ED$DISPOSE_ABSSYN_TREE
        31 007052   000000 011000                    NOP     0

     1811    21933    3          RETURN;

  21933 31 007053   000201 221200 0                  LDX1  ! GRP_TYPE+1
        31 007054   000001 702211                    TSX2  ! 1,X1

     1812    21934    3        END;
     1813    21935
     1814    21936    3      DO CASE (REPORT_DATA.GROUP_TYPE);

  21936 31 007055   000045 235000 0                  LDA     REPORT_DATA+7
        31 007056   000012 115007                    CMPA    10,DL
        31 007057   007061 602005 31                 TNC     s:21936+4,AL
        31 007060   007144 710000 31                 TRA     s:21959
        31 007061   007144 710000 31                 TRA     s:21959
        31 007062   007144 710000 31                 TRA     s:21959
PL6.E3A0      #001=Z8DT$REPORT_REC File=Z8DT.:Z8A6TSI                            SAT 08/09/97 11:22 Page:304
        31 007063   007073 710000 31                 TRA     s:21938
        31 007064   007144 710000 31                 TRA     s:21959
        31 007065   007144 710000 31                 TRA     s:21959
        31 007066   007144 710000 31                 TRA     s:21959
        31 007067   007144 710000 31                 TRA     s:21959
        31 007070   007144 710000 31                 TRA     s:21959
        31 007071   007116 710000 31                 TRA     s:21945
        31 007072   007073 710000 31                 TRA     s:21938

     1815    21937    3        CASE (%REPORT_FOOTING, %PAGE_HEADING);

     1816    21938    3             CALL Z8AE$ERROR (%E$NEXT_GROUP_IN_WRONG_GRP,

  21938 31 007073   000006 036003                    ADLQ    6,DU
        31 007074   000304 756000 0                  STQ     FIRST_LINE_SHOWN+3
        31 007075   000202 236000 0                  LDQ     GROUP$
        31 007076   000005 036003                    ADLQ    5,DU
        31 007077   000226 235000 32                 LDA     150
        31 007100   000302 757000 0                  STAQ    FIRST_LINE_SHOWN+1
        31 007101   000302 630400 0                  EPPR0   FIRST_LINE_SHOWN+1
        31 007102   000006 631400 32                 EPPR1   6
        31 007103   000000 701000 xent               TSX1    Z8AE$ERROR
        31 007104   000000 011000                    NOP     0

     1817    21939    3                              GROUP$ -> LX_ITEM.LINE,
     1818    21940    3                              GROUP$ -> LX_ITEM.COLUMN);
     1819    21941    3             CALL Z8ED$DISPOSE_ABSSYN_TREE (CDECL$ -> LX_REPORT_REC.P.NEXT_GROUP$);

  21941 31 007105   000032 236000 0                  LDQ     CDECL$
        31 007106   000015 036003                    ADLQ    13,DU
        31 007107   000302 756000 0                  STQ     FIRST_LINE_SHOWN+1
        31 007110   000302 630400 0                  EPPR0   FIRST_LINE_SHOWN+1
        31 007111   000036 631400 32                 EPPR1   30
        31 007112   000000 701000 xent               TSX1    Z8ED$DISPOSE_ABSSYN_TREE
        31 007113   000000 011000                    NOP     0

     1820    21942    3             RETURN;
PL6.E3A0      #001=Z8DT$REPORT_REC File=Z8DT.:Z8A6TSI                            SAT 08/09/97 11:22 Page:305

  21942 31 007114   000201 221200 0                  LDX1  ! GRP_TYPE+1
        31 007115   000001 702211                    TSX2  ! 1,X1

     1821    21943
     1822    21944    3        CASE (%PAGE_FOOTING);

     1823    21945    3             IF CDECL$ -> LX_REPORT_REC.D.NEXT_GROUP_TYPE = %NEXT_GROUP_NEXT_PAGE THEN

  21945 31 007116   000003 235100                    LDA     3,,PR0
        31 007117   000003 115007                    CMPA    3,DL
        31 007120   007144 601000 31                 TNZ     s:21959

     1824    21946    4               DO;

     1825    21947    4                 CALL Z8AE$ERROR (%E$NEXT_GROUP_PAGE_IN_PF,

  21947 31 007121   000006 036003                    ADLQ    6,DU
        31 007122   000304 756000 0                  STQ     FIRST_LINE_SHOWN+3
        31 007123   000202 236000 0                  LDQ     GROUP$
        31 007124   000005 036003                    ADLQ    5,DU
        31 007125   000230 235000 32                 LDA     152
        31 007126   000302 757000 0                  STAQ    FIRST_LINE_SHOWN+1
        31 007127   000302 630400 0                  EPPR0   FIRST_LINE_SHOWN+1
        31 007130   000006 631400 32                 EPPR1   6
        31 007131   000000 701000 xent               TSX1    Z8AE$ERROR
        31 007132   000000 011000                    NOP     0

     1826    21948    4                                  GROUP$ -> LX_ITEM.LINE,
     1827    21949    4                                  GROUP$ -> LX_ITEM.COLUMN);
     1828    21950    4                CALL Z8ED$DISPOSE_ABSSYN_TREE (CDECL$ -> LX_REPORT_REC.P.NEXT_GROUP$);

  21950 31 007133   000032 236000 0                  LDQ     CDECL$
        31 007134   000015 036003                    ADLQ    13,DU
        31 007135   000302 756000 0                  STQ     FIRST_LINE_SHOWN+1
        31 007136   000302 630400 0                  EPPR0   FIRST_LINE_SHOWN+1
        31 007137   000036 631400 32                 EPPR1   30
PL6.E3A0      #001=Z8DT$REPORT_REC File=Z8DT.:Z8A6TSI                            SAT 08/09/97 11:22 Page:306
        31 007140   000000 701000 xent               TSX1    Z8ED$DISPOSE_ABSSYN_TREE
        31 007141   000000 011000                    NOP     0

     1829    21951    4                 RETURN;

  21951 31 007142   000201 221200 0                  LDX1  ! GRP_TYPE+1
        31 007143   000001 702211                    TSX2  ! 1,X1

     1830    21952    4               END;
     1831    21953
     1832    21954    3        CASE (ELSE);

     1833    21955                  /* OK */
     1834    21956
     1835    21957    3      END;

     1836    21958
     1837    21959    2     REPORT_DATA.NEXT_GROUP_TYPE = CDECL$ -> LX_REPORT_REC.D.NEXT_GROUP_TYPE;

  21959 31 007144   000003 235100                    LDA     3,,PR0
        31 007145   000052 755000 0                  STA     REPORT_DATA+12

     1838    21960    2     REPORT_DATA.NEXT_GROUP_NO# = CDECL$ -> LX_REPORT_REC.NEXT_GROUP_NO#;

  21960 31 007146   000024 235100                    LDA     20,,PR0
        31 007147   000057 755000 0                  STA     REPORT_DATA+17

     1839    21961    2     REPORT_DATA.B.NEXT_GROUP_PRESENTED = TRUE;

  21961 31 007150   000001 236003                    LDQ     1,DU
        31 007151   000060 256000 0                  ORSQ    REPORT_DATA+18

     1840    21962
     1841    21963    2      IF REPORT_DATA.NEXT_GROUP_TYPE ~= %NEXT_GROUP_PLUS THEN

  21963 31 007152   000052 235000 0                  LDA     REPORT_DATA+12
        31 007153   000002 115007                    CMPA    2,DL
PL6.E3A0      #001=Z8DT$REPORT_REC File=Z8DT.:Z8A6TSI                            SAT 08/09/97 11:22 Page:307
        31 007154   007200 600000 31                 TZE     s:21973

     1842    21964    2        IF NOT O1COM.CURRENT_REPORT_LTS$ -> REPORT_LTS.B.PAGE_LIMIT_ON THEN

  21964 31 007155   000064 471400 xsym               LDP1    O1COM+52
        31 007156   100003 236100                    LDQ     3,,PR1
        31 007157   100000 316003                    CANQ    32768,DU
        31 007160   007200 601000 31                 TNZ     s:21973

     1843    21965    3          DO;

     1844    21966    3            CALL Z8AE$ERROR (%E$NEXT_GROUP_W_NO_PAGE,

  21966 31 007161   000202 236000 0                  LDQ     GROUP$
        31 007162   000006 036003                    ADLQ    6,DU
        31 007163   000304 756000 0                  STQ     FIRST_LINE_SHOWN+3
        31 007164   000202 236000 0                  LDQ     GROUP$
        31 007165   000005 036003                    ADLQ    5,DU
        31 007166   000232 235000 32                 LDA     154
        31 007167   000302 757000 0                  STAQ    FIRST_LINE_SHOWN+1
        31 007170   000302 630400 0                  EPPR0   FIRST_LINE_SHOWN+1
        31 007171   000006 631400 32                 EPPR1   6
        31 007172   000000 701000 xent               TSX1    Z8AE$ERROR
        31 007173   000000 011000                    NOP     0

     1845    21967    3                             GROUP$ -> LX_ITEM.LINE,
     1846    21968    3                             GROUP$ -> LX_ITEM.COLUMN);
     1847    21969    3            REPORT_DATA.NEXT_GROUP_TYPE = %NEXT_GROUP_PLUS;

  21969 31 007174   000002 235007                    LDA     2,DL
        31 007175   000052 755000 0                  STA     REPORT_DATA+12

     1848    21970    3            REPORT_DATA.NEXT_GROUP_NO# = 1;

  21970 31 007176   000001 236007                    LDQ     1,DL
        31 007177   000057 756000 0                  STQ     REPORT_DATA+17

PL6.E3A0      #001=Z8DT$REPORT_REC File=Z8DT.:Z8A6TSI                            SAT 08/09/97 11:22 Page:308
     1849    21971    3          END;

     1850    21972
     1851    21973    2      IF REPORT_DATA.NEXT_GROUP_NO# > 999  THEN

  21973 31 007200   000057 236000 0                  LDQ     REPORT_DATA+17
        31 007201   001747 116007                    CMPQ    999,DL
        31 007202   007220 604400 31                 TMOZ    s:21981

     1852    21974    3        DO;

     1853    21975    3          CALL Z8AE$ERROR (%E$NUM_EXCEED_999,

  21975 31 007203   000202 236000 0                  LDQ     GROUP$
        31 007204   000006 036003                    ADLQ    6,DU
        31 007205   000304 756000 0                  STQ     FIRST_LINE_SHOWN+3
        31 007206   000202 236000 0                  LDQ     GROUP$
        31 007207   000005 036003                    ADLQ    5,DU
        31 007210   000210 235000 32                 LDA     136
        31 007211   000302 757000 0                  STAQ    FIRST_LINE_SHOWN+1
        31 007212   000302 630400 0                  EPPR0   FIRST_LINE_SHOWN+1
        31 007213   000006 631400 32                 EPPR1   6
        31 007214   000000 701000 xent               TSX1    Z8AE$ERROR
        31 007215   000000 011000                    NOP     0

     1854    21976    3                           GROUP$ -> LX_ITEM.LINE,
     1855    21977    3                           GROUP$ -> LX_ITEM.COLUMN);
     1856    21978    3          REPORT_DATA.NEXT_GROUP_NO# = 999;

  21978 31 007216   001747 235007                    LDA     999,DL
        31 007217   000057 755000 0                  STA     REPORT_DATA+17

     1857    21979    3        END;

     1858    21980
     1859    21981    2    END VALIDATE_NEXT_GROUP;

PL6.E3A0      #001=Z8DT$REPORT_REC File=Z8DT.:Z8A6TSI                            SAT 08/09/97 11:22 Page:309
  21981 31 007220   000201 221200 0                  LDX1  ! GRP_TYPE+1
        31 007221   000001 702211                    TSX2  ! 1,X1

     1860    21982         %EJECT;
PL6.E3A0      #001=Z8DT$REPORT_REC File=Z8DT.:Z8A6TSI                            SAT 08/09/97 11:22 Page:310
     1861    21983
     1862    21984         /*==============*/
     1863    21985    1      UPDATE_REP_STK:   PROC (LTS$$);

  21985 31 007222   000203 741200 0     UPDATE_REP_* STX1  ! GROUP$+1

     1864    21986         /*==============*/
     1865    21987         /*
     1866    21988               NAME: UPDATE_REP_STK
     1867    21989
     1868    21990           DESCRIPTION: This routine update the current REP_STK, save
     1869    21991                        the information of the current data entry for
     1870    21992                        later references.
     1871    21993          */
     1872    21994
     1873    21995
     1874    21996    2    DCL LTS$$            PTR;
     1875    21997
     1876    21998
     1877    21999    2      REP_STK_PTR = REPORT_DATA.STK_PTR;

  21999 31 007223   000054 235000 0                  LDA     REPORT_DATA+14
        31 007224   000000 755000 xsym               STA     REP_STK_PTR

     1878    22000    2      REP_STK.LTS$ (REP_STK_PTR) = LTS$$;

  22000 31 007225   000000 236000 xsym               LDQ     REP_STK_PTR
        31 007226   000005 402007                    MPY     5,DL
        31 007227   000204 470400 0                  LDP0    @LTS$$
        31 007230   000000 620006                    EAX0    0,QL
        31 007231   000000 236100                    LDQ     0,,PR0
        31 007232   000001 756010 xsym               STQ     REP_STK+1,X0

     1879    22001    2      REP_STK.QLT$ (REP_STK_PTR) = LTS$$ -> REPORT_GRP_LTS.QLT$;

  22001 31 007233   000000 471500                    LDP1    0,,PR0
        31 007234   100004 236100                    LDQ     4,,PR1
PL6.E3A0      #001=Z8DT$REPORT_REC File=Z8DT.:Z8A6TSI                            SAT 08/09/97 11:22 Page:311
        31 007235   000000 756010 xsym               STQ     REP_STK,X0

     1880    22002    2      REP_STK.GROUP_TYPE (REP_STK_PTR) = REPORT_DATA.GROUP_TYPE;

  22002 31 007236   000045 235000 0                  LDA     REPORT_DATA+7
        31 007237   000002 755010 xsym               STA     REP_STK+2,X0

     1881    22003    2      REP_STK.LEVEL# (REP_STK_PTR) = REPORT_DATA.LEVEL.CURRENT;

  22003 31 007240   000036 236000 0                  LDQ     REPORT_DATA
        31 007241   000003 756010 xsym               STQ     REP_STK+3,X0

     1882    22004    2      REP_STK.B.ELEMENTARY (REP_STK_PTR) = REPORT_DATA.B.ELEMENTARY;

  22004 31 007242   000060 236000 0                  LDQ     REPORT_DATA+18
        31 007243   000001 736000                    QLS     1
        31 007244   000004 676010 xsym               ERQ     REP_STK+4,X0
        31 007245   400000 376003                    ANQ     -131072,DU
        31 007246   000004 656010 xsym               ERSQ    REP_STK+4,X0

     1883    22005    2      REP_STK.B.COLUMN_PRESENTED (REP_STK_PTR) = REPORT_DATA.B.COLUMN_PRESENTED;

  22005 31 007247   000060 236000 0                  LDQ     REPORT_DATA+18
        31 007250   000017 736000                    QLS     15
        31 007251   000004 676010 xsym               ERQ     REP_STK+4,X0
        31 007252   200000 376003                    ANQ     65536,DU
        31 007253   000004 656010 xsym               ERSQ    REP_STK+4,X0

     1884    22006    2      REP_STK.B.LINE_PRESENTED (REP_STK_PTR) = REPORT_DATA.B.LINE_PRESENTED;

  22006 31 007254   000060 236000 0                  LDQ     REPORT_DATA+18
        31 007255   000015 736000                    QLS     13
        31 007256   000004 676010 xsym               ERQ     REP_STK+4,X0
        31 007257   100000 376003                    ANQ     32768,DU
        31 007260   000004 656010 xsym               ERSQ    REP_STK+4,X0

     1885    22007
PL6.E3A0      #001=Z8DT$REPORT_REC File=Z8DT.:Z8A6TSI                            SAT 08/09/97 11:22 Page:312
     1886    22008    2    END UPDATE_REP_STK;

  22008 31 007261   000001 702211                    TSX2  ! 1,X1

     1887    22009         %EJECT;
PL6.E3A0      #001=Z8DT$REPORT_REC File=Z8DT.:Z8A6TSI                            SAT 08/09/97 11:22 Page:313
     1888    22010
     1889    22011         /*=============*/
     1890    22012    1      APPEND_01_LTS: PROC(APPEND$, LTS$$);

  22012 31 007262   000205 741200 0     APPEND_01_L* STX1  ! @LTS$$+1

     1891    22013         /*=============*/
     1892    22014         /*
     1893    22015               NAME: APPEND_01_LTS
     1894    22016
     1895    22017           DESCRIPTION: In this routine the LTS item of a report group
     1896    22018                        will be appended to a field of the REPORT_LTS
     1897    22019                        of the report that report group belongs to, and
     1898    22020                        the QLT item will be linked to the previous 01
     1899    22021                        level QLT item.
     1900    22022          */
     1901    22023
     1902    22024
     1903    22025    2     DCL APPEND$          PTR;
     1904    22026    2     DCL LTS$$            PTR;
     1905    22027    2     DCL LAST$            PTR;
     1906    22028    2     DCL QLT$$            PTR;
     1907    22029    2     DCL BRO$             PTR;
     1908    22030
     1909    22031
     1910    22032    2      LAST$ = APPEND$;

  22032 31 007263   000206 470400 0                  LDP0    @APPEND$
        31 007264   000000 236100                    LDQ     0,,PR0
        31 007265   000210 756000 0                  STQ     LAST$

     1911    22033    2      IF LAST$ = ADDR(NIL) THEN

  22033 31 007266   000005 116000 32                 CMPQ    5
        31 007267   007274 601000 31                 TNZ     s:22037

     1912    22034    2        APPEND$ = LTS$$;
PL6.E3A0      #001=Z8DT$REPORT_REC File=Z8DT.:Z8A6TSI                            SAT 08/09/97 11:22 Page:314

  22034 31 007270   000207 471400 0                  LDP1    @LTS$$
        31 007271   100000 236100                    LDQ     0,,PR1
        31 007272   000000 756100                    STQ     0,,PR0
        31 007273   007307 710000 31                 TRA     s:22043

     1913    22035    2      ELSE
     1914    22036    3        DO;

     1915    22037    4          DO WHILE (LAST$ -> REPORT_01_LTS.LINK ~= ADDR(NIL));

  22037 31 007274   007300 710000 31                 TRA     s:22039

     1916    22038    4            LAST$ = LAST$ -> REPORT_01_LTS.LINK;

  22038 31 007275   000210 470400 0                  LDP0    LAST$
        31 007276   000007 236100                    LDQ     7,,PR0
        31 007277   000210 756000 0                  STQ     LAST$

     1917    22039    4          END;

  22039 31 007300   000210 470400 0                  LDP0    LAST$
        31 007301   000007 236100                    LDQ     7,,PR0
        31 007302   000005 116000 32                 CMPQ    5
        31 007303   007275 601000 31                 TNZ     s:22038

     1918    22040    3          LAST$ -> REPORT_01_LTS.LINK = LTS$$;

  22040 31 007304   000207 471400 0                  LDP1    @LTS$$
        31 007305   100000 236100                    LDQ     0,,PR1
        31 007306   000007 756100                    STQ     7,,PR0

     1919    22041    3        END;

     1920    22042
     1921    22043    2      IF REP_STK_PTR > 0  THEN

PL6.E3A0      #001=Z8DT$REPORT_REC File=Z8DT.:Z8A6TSI                            SAT 08/09/97 11:22 Page:315
  22043 31 007307   000000 235000 xsym               LDA     REP_STK_PTR
        31 007310   007316 604400 31                 TMOZ    s:22049

     1922    22044    3        DO;

     1923    22045    3          REP_STK.QLT$ (1) -> QLT.BROTHER = LTS$$ -> REPORT_01_LTS.QLT$;

  22045 31 007311   100000 470500                    LDP0    0,,PR1
        31 007312   000004 236100                    LDQ     4,,PR0
        31 007313   000005 473400 xsym               LDP3    REP_STK+5
        31 007314   300002 756100                    STQ     2,,PR3

     1924    22046    3        END;

  22046 31 007315   007337 710000 31                 TRA     s:22060

     1925    22047    2      ELSE
     1926    22048    3        DO;

     1927    22049    3          QLT$$ = O1COM.CURRENT_REPORT_LTS$ -> REPORT_LTS.ST$ -> RD.QLT$ -> QLT.SON;

  22049 31 007316   000064 470400 xsym               LDP0    O1COM+52
        31 007317   000001 473500                    LDP3    1,,PR0
        31 007320   300007 474500                    LDP4    7,,PR3
        31 007321   400003 236100                    LDQ     3,,PR4
        31 007322   000211 756000 0                  STQ     QLT$$

     1928    22050
     1929    22051    4          DO WHILE (QLT$$ -> QLT.BROTHER ~= ADDR(NIL));

  22051 31 007323   007327 710000 31                 TRA     s:22055

     1930    22052
     1931    22053    4            QLT$$ = QLT$$ -> QLT.BROTHER;

  22053 31 007324   000211 470400 0                  LDP0    QLT$$
        31 007325   000002 236100                    LDQ     2,,PR0
PL6.E3A0      #001=Z8DT$REPORT_REC File=Z8DT.:Z8A6TSI                            SAT 08/09/97 11:22 Page:316
        31 007326   000211 756000 0                  STQ     QLT$$

     1932    22054
     1933    22055    4          END;

  22055 31 007327   000211 470400 0                  LDP0    QLT$$
        31 007330   000002 236100                    LDQ     2,,PR0
        31 007331   000005 116000 32                 CMPQ    5
        31 007332   007324 601000 31                 TNZ     s:22053

     1934    22056
     1935    22057    3          QLT$$ -> QLT.BROTHER = LTS$$ -> REPORT_01_LTS.QLT$;

  22057 31 007333   000207 471400 0                  LDP1    @LTS$$
        31 007334   100000 473500                    LDP3    0,,PR1
        31 007335   300004 236100                    LDQ     4,,PR3
        31 007336   000002 756100                    STQ     2,,PR0

     1936    22058    3        END;

     1937    22059
     1938    22060    2      LTS$$ -> REPORT_01_LTS.QLT$ -> QLT.FATHER =

  22060 31 007337   100000 470500                    LDP0    0,,PR1
        31 007340   000004 473500                    LDP3    4,,PR0
        31 007341   000064 474400 xsym               LDP4    O1COM+52
        31 007342   400001 475500                    LDP5    1,,PR4
        31 007343   500007 236100                    LDQ     7,,PR5
        31 007344   300001 756100                    STQ     1,,PR3

     1939    22061    2        O1COM.CURRENT_REPORT_LTS$ -> REPORT_LTS.ST$ -> RD.QLT$;
     1940    22062
     1941    22063    2    END APPEND_01_LTS;

  22063 31 007345   000205 221200 0                  LDX1  ! @LTS$$+1
        31 007346   000001 702211                    TSX2  ! 1,X1

PL6.E3A0      #001=Z8DT$REPORT_REC File=Z8DT.:Z8A6TSI                            SAT 08/09/97 11:22 Page:317
     1942    22064         %EJECT;
PL6.E3A0      #001=Z8DT$REPORT_REC File=Z8DT.:Z8A6TSI                            SAT 08/09/97 11:22 Page:318
     1943    22065
     1944    22066         /*=================*/
     1945    22067    1      SAVE_CONTROL_NAME: PROC (QUAL_ID$, LTS$$);

  22067 31 007347   000213 741200 0     SAVE_CONTRO* STX1  ! BRO$+1

     1946    22068         /*=================*/
     1947    22069         /*
     1948    22070               NAME: SAVE_CONTROL_ITEM
     1949    22071
     1950    22072           DESCRIPTION: The control name in the CONTROL clause will be
     1951    22073                        saved and the process will be defered until the
     1952    22074                        end of the data division and processed by
     1953    22075                        Z8DT$CONTROL_ITEMS.
     1954    22076          */
     1955    22077
     1956    22078
     1957    22079    2      DCL QUAL_ID$            PTR;
     1958    22080    2      DCL DEFERED_ID$         PTR;
     1959    22081    2      DCL LTS$$               PTR;
     1960    22082
     1961    22083
     1962    22084           %NEW_HEAP (@POINTER      = DEFERED_ID$);

  22086 31 007350   000233 630400 32                 EPPR0   155
        31 007351   000001 631400 32                 EPPR1   1
        31 007352   000000 701000 xent               TSX1    Z8ED$NEW_HEAP
        31 007353   000000 011000                    NOP     0

     1963    22089
     1964    22090           %INIT_DEFERED_IDENTIFIER (@POINTER = DEFERED_ID$,
     1965    22091                      @DEFERED_ID$  = QUAL_ID$,
     1966    22092                      @ASSOC_VAR_LTS$ = LTS$$,
     1967    22093                      @LINK         = O1COM.CONTROL_NAME$);

  22095 31 007354   000030 220003                    LDX0    24,DU
        31 007355   000216 470400 0                  LDP0    DEFERED_ID$
PL6.E3A0      #001=Z8DT$REPORT_REC File=Z8DT.:Z8A6TSI                            SAT 08/09/97 11:22 Page:319
        31 007356   000000 740100                    STX0    0,,PR0

  22096 31 007357   000214 470400 0                  LDP0    @QUAL_ID$
        31 007360   000000 236100                    LDQ     0,,PR0
        31 007361   000216 471400 0                  LDP1    DEFERED_ID$
        31 007362   100001 756100                    STQ     1,,PR1

  22097 31 007363   000215 471400 0                  LDP1    @LTS$$
        31 007364   100000 236100                    LDQ     0,,PR1
        31 007365   000216 473400 0                  LDP3    DEFERED_ID$
        31 007366   300002 756100                    STQ     2,,PR3

  22098 31 007367   000005 236000 32                 LDQ     5
        31 007370   000216 473400 0                  LDP3    DEFERED_ID$
        31 007371   300003 756100                    STQ     3,,PR3

  22099 31 007372   000133 235000 xsym               LDA     COMCOM+91
        31 007373   000216 473400 0                  LDP3    DEFERED_ID$
        31 007374   300005 755100                    STA     5,,PR3

  22100 31 007375   000134 235000 xsym               LDA     COMCOM+92
        31 007376   000216 473400 0                  LDP3    DEFERED_ID$
        31 007377   300006 755100                    STA     6,,PR3

  22101 31 007400   000103 236000 xsym               LDQ     O1COM+67
        31 007401   000216 473400 0                  LDP3    DEFERED_ID$
        31 007402   300007 756100                    STQ     7,,PR3

  22102 31 007403   000000 221003                    LDX1    0,DU
        31 007404   000216 473400 0                  LDP3    DEFERED_ID$
        31 007405   300000 441100                    SXL1    0,,PR3

  22103 31 007406   000216 473400 0                  LDP3    DEFERED_ID$
        31 007407   000201 236000 32                 LDQ     129
        31 007410   300000 356100                    ANSQ    0,,PR3

     1968    22106
PL6.E3A0      #001=Z8DT$REPORT_REC File=Z8DT.:Z8A6TSI                            SAT 08/09/97 11:22 Page:320
     1969    22107    2      O1COM.CONTROL_NAME$ = DEFERED_ID$;

  22107 31 007411   000216 236000 0                  LDQ     DEFERED_ID$
        31 007412   000103 756000 xsym               STQ     O1COM+67

     1970    22108
     1971    22109    2    END SAVE_CONTROL_NAME;

  22109 31 007413   000213 221200 0                  LDX1  ! BRO$+1
        31 007414   000001 702211                    TSX2  ! 1,X1

     1972    22110         %EJECT;
PL6.E3A0      #001=Z8DT$REPORT_REC File=Z8DT.:Z8A6TSI                            SAT 08/09/97 11:22 Page:321
     1973    22111
     1974    22112         /*================*/
     1975    22113    1      PROCESS_01_ENTRY: PROC (LTS$$);

  22113 31 007415   000217 741200 0     PROCESS_01_* STX1  ! DEFERED_ID$+1

     1976    22114         /*================*/
     1977    22115         /*
     1978    22116               NAME: PROCESS_01_ENTRY
     1979    22117
     1980    22118           DESCRIPTION: A new ST item is created for the 01 level entry item
     1981    22119                        and the LTS item of this entry is linked to the
     1982    22120                        appropriate field of the REPORT_LTS item of the
     1983    22121                        current report.
     1984    22122          */
     1985    22123
     1986    22124
     1987    22125    2    DCL LTS$$                PTR;
     1988    22126    2    DCL NEW_ST$              PTR;
     1989    22127
     1990    22128
     1991    22129
     1992    22130    2      IF REPORT_DATA.B.ELEMENTARY THEN

  22130 31 007416   000060 236000 0                  LDQ     REPORT_DATA+18
        31 007417   200000 316003                    CANQ    65536,DU
        31 007420   007440 600000 31                 TZE     s:22141

     1993    22131    3        DO;

     1994    22132    3          PIC_OUT.TYPE = %PIC_TY_N;

  22132 31 007421   000005 220003                    LDX0    5,DU
        31 007422   000002 740000 28                 STX0    PIC_OUT+2

     1995    22133    3          PIC_OUT.LEFT = %DEFAULT_NUMERIC_WIDTH;

PL6.E3A0      #001=Z8DT$REPORT_REC File=Z8DT.:Z8A6TSI                            SAT 08/09/97 11:22 Page:322
  22133 31 007423   000004 222003                    LDX2    4,DU
        31 007424   000001 442000 28                 SXL2    PIC_OUT+1

     1996    22134    3          PIC_OUT.WIDTH = %DEFAULT_NUMERIC_WIDTH;

  22134 31 007425   000004 235007                    LDA     4,DL
        31 007426   000000 755000 28                 STA     PIC_OUT

     1997    22135    3          PIC_OUT.SCALE = %DEFAULT_NUMERIC_SCALE;

  22135 31 007427   000000 223003                    LDX3    0,DU
        31 007430   000001 743000 28                 STX3    PIC_OUT+1

     1998    22136    3          PIC_OUT.EIS_TYPE = %PIC_EIS_NS;

  22136 31 007431   000003 224003                    LDX4    3,DU
        31 007432   000005 744000 28                 STX4    PIC_OUT+5

     1999    22137    3          CALL PROCESS_NDSC9_PIC (REPORT_DATA.DESC);

  22137 31 007433   000235 236000 32                 LDQ     157
        31 007434   000153 756000 0                  STQ     @OUT
        31 007435   005321 701000 31                 TSX1    PROCESS_NDSC9_PIC
        31 007436   000000 011000                    NOP     0

     2000    22138    3        END;

  22138 31 007437   007445 710000 31                 TRA     s:22145

     2001    22139    2      ELSE
     2002    22140    3        DO;

     2003    22141    3          REPORT_DATA.B.CLASS = %CLASS_ALPHANUMERIC;

  22141 31 007440   000161 376000 32                 ANQ     113
        31 007441   006000 276003                    ORQ     3072,DU
        31 007442   000060 756000 0                  STQ     REPORT_DATA+18
PL6.E3A0      #001=Z8DT$REPORT_REC File=Z8DT.:Z8A6TSI                            SAT 08/09/97 11:22 Page:323

     2004    22142    3          REPORT_DATA.TYPE = %TYA;

  22142 31 007443   000010 235007                    LDA     8,DL
        31 007444   000047 755000 0                  STA     REPORT_DATA+9

     2005    22143    3        END;

     2006    22144
     2007    22145    2      CALL NEW_ST (NEW_ST$);

  22145 31 007445   000236 236000 32                 LDQ     158
        31 007446   000166 756000 0                  STQ     @NEW_ST$
        31 007447   006104 701000 31                 TSX1    NEW_ST
        31 007450   000000 011000                    NOP     0

     2008    22146
     2009    22147           %NEW_REPORT_01_LTS (@POINTER = LTS$$,
     2010    22148                               @ST$     = NEW_ST$,
     2011    22149                               @QLT$    = NEW_ST$ -> SCALAR.QLT$,
     2012    22150                               @LINE_TYPE = REPORT_DATA.LINE_TYPE,
     2013    22151                               @LINE_NO#  = REPORT_DATA.LINE_NUMBER,
     2014    22152                               @LINE_PRESENTED  = REPORT_DATA.B.LINE_PRESENTED,
     2015    22153                               @NEXT_GROUP_TYPE = REPORT_DATA.NEXT_GROUP_TYPE,
     2016    22154                               @NEXT_GROUP_PRESENTED = REPORT_DATA.B.NEXT_GROUP_PRESENTED,
     2017    22155                               @NEXT_GROUP_NO# = REPORT_DATA.NEXT_GROUP_NO#,
     2018    22156                               @REPORT_LTS$ = O1COM.CURRENT_REPORT_LTS$,
     2019    22157                               @GROUP_TYPE  = REPORT_DATA.GROUP_TYPE);

  22236 31 007451   000002 236000 8                  LDQ     LTS_+2
        31 007452   000024 036007                    ADLQ    20,DL
        31 007453   000003 116000 8                  CMPQ    LTS_+3
        31 007454   007465 604000 31                 TMI     s:22238

  22237 31 007455   000147 236000 32                 LDQ     103
        31 007456   000302 756000 0                  STQ     FIRST_LINE_SHOWN+1
        31 007457   000302 630400 0                  EPPR0   FIRST_LINE_SHOWN+1
PL6.E3A0      #001=Z8DT$REPORT_REC File=Z8DT.:Z8A6TSI                            SAT 08/09/97 11:22 Page:324
        31 007460   000303 450400 0                  STP0    FIRST_LINE_SHOWN+2
        31 007461   000303 630400 0                  EPPR0   FIRST_LINE_SHOWN+2
        31 007462   000036 631400 32                 EPPR1   30
        31 007463   000000 701000 xent               TSX1    Z8AR$RESERVER
        31 007464   000000 011000                    NOP     0

  22238 31 007465   000002 236000 8                  LDQ     LTS_+2
        31 007466   000022 736000                    QLS     18
        31 007467   000001 036000 8                  ADLQ    LTS_+1
        31 007470   000220 470400 0                  LDP0    @LTS$$
        31 007471   000000 756100                    STQ     0,,PR0

  22239 31 007472   000024 236007                    LDQ     20,DL
        31 007473   000002 056000 8                  ASQ     LTS_+2

  22240 31 007474   000000 471500                    LDP1    0,,PR0
        31 007475   001101 220003                    LDX0    577,DU
        31 007476   100000 740100                    STX0    0,,PR1

  22246 31 007477   000000 471500                    LDP1    0,,PR0
        31 007500   100000 740100                    STX0    0,,PR1

  22247 31 007501   000000 471500                    LDP1    0,,PR0
        31 007502   000221 236000 0                  LDQ     NEW_ST$
        31 007503   100003 756100                    STQ     3,,PR1

  22248 31 007504   000000 471500                    LDP1    0,,PR0
        31 007505   000221 473400 0                  LDP3    NEW_ST$
        31 007506   300007 236100                    LDQ     7,,PR3
        31 007507   100004 756100                    STQ     4,,PR1

  22249 31 007510   000000 471500                    LDP1    0,,PR0
        31 007511   000005 236000 32                 LDQ     5
        31 007512   100006 756100                    STQ     6,,PR1

  22250 31 007513   000000 471500                    LDP1    0,,PR0
        31 007514   100005 756100                    STQ     5,,PR1
PL6.E3A0      #001=Z8DT$REPORT_REC File=Z8DT.:Z8A6TSI                            SAT 08/09/97 11:22 Page:325

  22251 31 007515   000000 471500                    LDP1    0,,PR0
        31 007516   000005 236000 32                 LDQ     5
        31 007517   100007 756100                    STQ     7,,PR1

  22252 31 007520   000000 471500                    LDP1    0,,PR0
        31 007521   100022 756100                    STQ     18,,PR1

  22253 31 007522   000000 471500                    LDP1    0,,PR0
        31 007523   100023 756100                    STQ     19,,PR1

  22254 31 007524   000000 471500                    LDP1    0,,PR0
        31 007525   100014 756100                    STQ     12,,PR1

  22255 31 007526   000000 471500                    LDP1    0,,PR0
        31 007527   000045 235000 0                  LDA     REPORT_DATA+7
        31 007530   100010 755100                    STA     8,,PR1

  22256 31 007531   000000 471500                    LDP1    0,,PR0
        31 007532   000064 236000 xsym               LDQ     O1COM+52
        31 007533   100015 756100                    STQ     13,,PR1

  22257 31 007534   000000 471500                    LDP1    0,,PR0
        31 007535   000005 236000 32                 LDQ     5
        31 007536   100016 756100                    STQ     14,,PR1

  22258 31 007537   000000 471500                    LDP1    0,,PR0
        31 007540   100017 450100                    STZ     15,,PR1

  22259 31 007541   000000 471500                    LDP1    0,,PR0
        31 007542   100021 756100                    STQ     17,,PR1

  22260 31 007543   000000 471500                    LDP1    0,,PR0
        31 007544   100020 450100                    STZ     16,,PR1

  22261 31 007545   000000 471500                    LDP1    0,,PR0
        31 007546   000046 235000 0                  LDA     REPORT_DATA+8
PL6.E3A0      #001=Z8DT$REPORT_REC File=Z8DT.:Z8A6TSI                            SAT 08/09/97 11:22 Page:326
        31 007547   100001 755100                    STA     1,,PR1

  22262 31 007550   000000 471500                    LDP1    0,,PR0
        31 007551   000052 235000 0                  LDA     REPORT_DATA+12
        31 007552   100011 755100                    STA     9,,PR1

  22263 31 007553   000000 471500                    LDP1    0,,PR0
        31 007554   000057 235000 0                  LDA     REPORT_DATA+17
        31 007555   100012 755100                    STA     10,,PR1

  22264 31 007556   000000 471500                    LDP1    0,,PR0
        31 007557   000053 235000 0                  LDA     REPORT_DATA+13
        31 007560   100002 755100                    STA     2,,PR1

  22265 31 007561   000000 471500                    LDP1    0,,PR0
        31 007562   100013 450100                    STZ     11,,PR1

  22266 31 007563   000000 471500                    LDP1    0,,PR0
        31 007564   000000 221003                    LDX1    0,DU
        31 007565   100000 441100                    SXL1    0,,PR1

  22267 31 007566   000000 471500                    LDP1    0,,PR0
        31 007567   000060 236000 0                  LDQ     REPORT_DATA+18
        31 007570   000003 772000                    QRL     3
        31 007571   100000 676100                    ERQ     0,,PR1
        31 007572   400000 376007                    ANQ     -131072,DL
        31 007573   100000 656100                    ERSQ    0,,PR1

  22268 31 007574   000000 471500                    LDP1    0,,PR0
        31 007575   000060 236000 0                  LDQ     REPORT_DATA+18
        31 007576   000003 772000                    QRL     3
        31 007577   100000 676100                    ERQ     0,,PR1
        31 007600   100000 376007                    ANQ     32768,DL
        31 007601   100000 656100                    ERSQ    0,,PR1

     2020    22271    2      CALL Z8DO$LINK_WITH_LTS(NEW_ST$ -> SCALAR.LTS$, LTS$$);

PL6.E3A0      #001=Z8DT$REPORT_REC File=Z8DT.:Z8A6TSI                            SAT 08/09/97 11:22 Page:327
  22271 31 007602   000220 236000 0                  LDQ     @LTS$$
        31 007603   000303 756000 0                  STQ     FIRST_LINE_SHOWN+2
        31 007604   000221 236000 0                  LDQ     NEW_ST$
        31 007605   000005 036003                    ADLQ    5,DU
        31 007606   000302 756000 0                  STQ     FIRST_LINE_SHOWN+1
        31 007607   000302 630400 0                  EPPR0   FIRST_LINE_SHOWN+1
        31 007610   000001 631400 32                 EPPR1   1
        31 007611   000000 701000 xent               TSX1    Z8DO$LINK_WITH_LTS
        31 007612   000000 011000                    NOP     0

     2021    22272
     2022    22273    3      DO CASE (REPORT_DATA.GROUP_TYPE);

  22273 31 007613   000045 235000 0                  LDA     REPORT_DATA+7
        31 007614   000012 115007                    CMPA    10,DL
        31 007615   007617 602005 31                 TNC     s:22273+4,AL
        31 007616   010025 710000 31                 TRA     s:22326
        31 007617   010025 710000 31                 TRA     s:22326
        31 007620   007631 710000 31                 TRA     s:22275
        31 007621   007651 710000 31                 TRA     s:22281
        31 007622   007755 710000 31                 TRA     s:22310
        31 007623   007671 710000 31                 TRA     s:22287
        31 007624   007741 710000 31                 TRA     s:22303
        31 007625   010001 710000 31                 TRA     s:22318
        31 007626   007715 710000 31                 TRA     s:22295
        31 007627   007661 710000 31                 TRA     s:22284
        31 007630   007641 710000 31                 TRA     s:22278

     2023    22274    3        CASE (%REPORT_HEADING);

     2024    22275    3             CALL APPEND_01_LTS (O1COM.CURRENT_REPORT_LTS$ -> REPORT_LTS.
             22275                      REPORT_HEADING$, LTS$$);

  22275 31 007631   000220 236000 0                  LDQ     @LTS$$
        31 007632   000207 756000 0                  STQ     @LTS$$
        31 007633   000064 236000 xsym               LDQ     O1COM+52
        31 007634   000023 036003                    ADLQ    19,DU
PL6.E3A0      #001=Z8DT$REPORT_REC File=Z8DT.:Z8A6TSI                            SAT 08/09/97 11:22 Page:328
        31 007635   000206 756000 0                  STQ     @APPEND$
        31 007636   007262 701000 31                 TSX1    APPEND_01_LTS
        31 007637   000000 011000                    NOP     0
        31 007640   010031 710000 31                 TRA     s:22330

     2025    22276
     2026    22277    3        CASE (%REPORT_FOOTING);

     2027    22278    3             CALL APPEND_01_LTS (O1COM.CURRENT_REPORT_LTS$ -> REPORT_LTS.
             22278                      REPORT_FOOTING$, LTS$$);

  22278 31 007641   000220 236000 0                  LDQ     @LTS$$
        31 007642   000207 756000 0                  STQ     @LTS$$
        31 007643   000064 236000 xsym               LDQ     O1COM+52
        31 007644   000033 036003                    ADLQ    27,DU
        31 007645   000206 756000 0                  STQ     @APPEND$
        31 007646   007262 701000 31                 TSX1    APPEND_01_LTS
        31 007647   000000 011000                    NOP     0
        31 007650   010031 710000 31                 TRA     s:22330

     2028    22279
     2029    22280    3        CASE (%PAGE_HEADING);

     2030    22281    3            CALL APPEND_01_LTS (O1COM.CURRENT_REPORT_LTS$ -> REPORT_LTS.PAGE_HEADING$,
             22281                      LTS$$);

  22281 31 007651   000220 236000 0                  LDQ     @LTS$$
        31 007652   000207 756000 0                  STQ     @LTS$$
        31 007653   000064 236000 xsym               LDQ     O1COM+52
        31 007654   000024 036003                    ADLQ    20,DU
        31 007655   000206 756000 0                  STQ     @APPEND$
        31 007656   007262 701000 31                 TSX1    APPEND_01_LTS
        31 007657   000000 011000                    NOP     0
        31 007660   010031 710000 31                 TRA     s:22330

     2031    22282
     2032    22283    3        CASE (%PAGE_FOOTING);
PL6.E3A0      #001=Z8DT$REPORT_REC File=Z8DT.:Z8A6TSI                            SAT 08/09/97 11:22 Page:329

     2033    22284    3            CALL APPEND_01_LTS (O1COM.CURRENT_REPORT_LTS$ -> REPORT_LTS.PAGE_FOOTING$,
             22284                      LTS$$);

  22284 31 007661   000220 236000 0                  LDQ     @LTS$$
        31 007662   000207 756000 0                  STQ     @LTS$$
        31 007663   000064 236000 xsym               LDQ     O1COM+52
        31 007664   000032 036003                    ADLQ    26,DU
        31 007665   000206 756000 0                  STQ     @APPEND$
        31 007666   007262 701000 31                 TSX1    APPEND_01_LTS
        31 007667   000000 011000                    NOP     0
        31 007670   010031 710000 31                 TRA     s:22330

     2034    22285
     2035    22286    3        CASE (%CONTROL_HEADING_FINAL);

     2036    22287    3             CALL APPEND_01_LTS (O1COM.CURRENT_REPORT_LTS$ -> REPORT_LTS.
             22287                      CONTROL_HEADING_FINAL$, LTS$$);

  22287 31 007671   000220 236000 0                  LDQ     @LTS$$
        31 007672   000207 756000 0                  STQ     @LTS$$
        31 007673   000064 236000 xsym               LDQ     O1COM+52
        31 007674   000025 036003                    ADLQ    21,DU
        31 007675   000206 756000 0                  STQ     @APPEND$
        31 007676   007262 701000 31                 TSX1    APPEND_01_LTS
        31 007677   000000 011000                    NOP     0

     2037    22288    3             LTS$$ -> REPORT_01_LTS.CONTROL_LTS$ = CDECL$ -> LX_REPORT_REC.P.TYPE$;

  22288 31 007700   000220 470400 0                  LDP0    @LTS$$
        31 007701   000000 471500                    LDP1    0,,PR0
        31 007702   000032 473400 0                  LDP3    CDECL$
        31 007703   300013 236100                    LDQ     11,,PR3
        31 007704   100014 756100                    STQ     12,,PR1

     2038    22289    3             CDECL$ -> LX_REPORT_REC.P.TYPE$ -> CONTROL_NAME_LTS.CONTROL_HEADING$ =
             22289                      LTS$$;
PL6.E3A0      #001=Z8DT$REPORT_REC File=Z8DT.:Z8A6TSI                            SAT 08/09/97 11:22 Page:330

  22289 31 007705   300013 471500                    LDP1    11,,PR3
        31 007706   000000 236100                    LDQ     0,,PR0
        31 007707   100002 756100                    STQ     2,,PR1

     2039    22290    3             CDECL$ -> LX_REPORT_REC.P.TYPE$ = ADDR(NIL);

  22290 31 007710   000005 236000 32                 LDQ     5
        31 007711   300013 756100                    STQ     11,,PR3

     2040    22291    3             O1COM.CURRENT_REPORT_LTS$ -> REPORT_LTS.BODY_NO =

  22291 31 007712   000064 471400 xsym               LDP1    O1COM+52
        31 007713   100042 054100                    AOS     34,,PR1
        31 007714   010031 710000 31                 TRA     s:22330

     2041    22292    3                 O1COM.CURRENT_REPORT_LTS$ -> REPORT_LTS.BODY_NO + 1;
     2042    22293
     2043    22294    3        CASE (%CONTROL_FOOTING_FINAL);

     2044    22295    3             CALL APPEND_01_LTS (O1COM.CURRENT_REPORT_LTS$ -> REPORT_LTS.
             22295                      CONTROL_FOOTING_FINAL$, LTS$$);

  22295 31 007715   000220 236000 0                  LDQ     @LTS$$
        31 007716   000207 756000 0                  STQ     @LTS$$
        31 007717   000064 236000 xsym               LDQ     O1COM+52
        31 007720   000031 036003                    ADLQ    25,DU
        31 007721   000206 756000 0                  STQ     @APPEND$
        31 007722   007262 701000 31                 TSX1    APPEND_01_LTS
        31 007723   000000 011000                    NOP     0

     2045    22296    3             LTS$$ -> REPORT_01_LTS.CONTROL_LTS$ = CDECL$ -> LX_REPORT_REC.P.TYPE$;

  22296 31 007724   000220 470400 0                  LDP0    @LTS$$
        31 007725   000000 471500                    LDP1    0,,PR0
        31 007726   000032 473400 0                  LDP3    CDECL$
        31 007727   300013 236100                    LDQ     11,,PR3
PL6.E3A0      #001=Z8DT$REPORT_REC File=Z8DT.:Z8A6TSI                            SAT 08/09/97 11:22 Page:331
        31 007730   100014 756100                    STQ     12,,PR1

     2046    22297    3             CDECL$ -> LX_REPORT_REC.P.TYPE$ -> CONTROL_NAME_LTS.CONTROL_FOOTING$ =
             22297                      LTS$$;

  22297 31 007731   300013 471500                    LDP1    11,,PR3
        31 007732   000000 236100                    LDQ     0,,PR0
        31 007733   100003 756100                    STQ     3,,PR1

     2047    22298    3             CDECL$ -> LX_REPORT_REC.P.TYPE$ = ADDR(NIL);

  22298 31 007734   000005 236000 32                 LDQ     5
        31 007735   300013 756100                    STQ     11,,PR3

     2048    22299    3             O1COM.CURRENT_REPORT_LTS$ -> REPORT_LTS.BODY_NO =

  22299 31 007736   000064 471400 xsym               LDP1    O1COM+52
        31 007737   100042 054100                    AOS     34,,PR1
        31 007740   010031 710000 31                 TRA     s:22330

     2049    22300    3                 O1COM.CURRENT_REPORT_LTS$ -> REPORT_LTS.BODY_NO + 1;
     2050    22301
     2051    22302    3        CASE (%TYPE_DETAIL);

     2052    22303    3            CALL APPEND_01_LTS (O1COM.CURRENT_REPORT_LTS$ -> REPORT_LTS.DETAIL$, LTS$$
             22303                      );

  22303 31 007741   000220 236000 0                  LDQ     @LTS$$
        31 007742   000207 756000 0                  STQ     @LTS$$
        31 007743   000064 236000 xsym               LDQ     O1COM+52
        31 007744   000027 036003                    ADLQ    23,DU
        31 007745   000206 756000 0                  STQ     @APPEND$
        31 007746   007262 701000 31                 TSX1    APPEND_01_LTS
        31 007747   000000 011000                    NOP     0

     2053    22304    3             O1COM.CURRENT_REPORT_LTS$ -> REPORT_LTS.BODY_NO =

PL6.E3A0      #001=Z8DT$REPORT_REC File=Z8DT.:Z8A6TSI                            SAT 08/09/97 11:22 Page:332
  22304 31 007750   000064 470400 xsym               LDP0    O1COM+52
        31 007751   000042 054100                    AOS     34,,PR0

     2054    22305    3                 O1COM.CURRENT_REPORT_LTS$ -> REPORT_LTS.BODY_NO + 1;
     2055    22306    3             O1COM.CURRENT_REPORT_LTS$ -> REPORT_LTS.DETAIL_NO =

  22306 31 007752   000064 470400 xsym               LDP0    O1COM+52
        31 007753   000041 054100                    AOS     33,,PR0
        31 007754   010031 710000 31                 TRA     s:22330

     2056    22307    3                 O1COM.CURRENT_REPORT_LTS$ -> REPORT_LTS.DETAIL_NO + 1;
     2057    22308
     2058    22309    3        CASE (%CONTROL_HEADING);

     2059    22310    3             CALL APPEND_01_LTS (O1COM.CURRENT_REPORT_LTS$ -> REPORT_LTS.
             22310                      CONTROL_HEADING$, LTS$$);

  22310 31 007755   000220 236000 0                  LDQ     @LTS$$
        31 007756   000207 756000 0                  STQ     @LTS$$
        31 007757   000064 236000 xsym               LDQ     O1COM+52
        31 007760   000026 036003                    ADLQ    22,DU
        31 007761   000206 756000 0                  STQ     @APPEND$
        31 007762   007262 701000 31                 TSX1    APPEND_01_LTS
        31 007763   000000 011000                    NOP     0

     2060    22311    3             CALL SAVE_CONTROL_NAME (CDECL$ -> LX_REPORT_REC.P.TYPE$,

  22311 31 007764   000220 236000 0                  LDQ     @LTS$$
        31 007765   000215 756000 0                  STQ     @LTS$$
        31 007766   000032 236000 0                  LDQ     CDECL$
        31 007767   000013 036003                    ADLQ    11,DU
        31 007770   000214 756000 0                  STQ     @QUAL_ID$
        31 007771   007347 701000 31                 TSX1    SAVE_CONTROL_NAME
        31 007772   000000 011000                    NOP     0

     2061    22312    3                                     LTS$$);
     2062    22313    3             CDECL$ -> LX_REPORT_REC.P.TYPE$ = ADDR(NIL);
PL6.E3A0      #001=Z8DT$REPORT_REC File=Z8DT.:Z8A6TSI                            SAT 08/09/97 11:22 Page:333

  22313 31 007773   000005 236000 32                 LDQ     5
        31 007774   000032 470400 0                  LDP0    CDECL$
        31 007775   000013 756100                    STQ     11,,PR0

     2063    22314    3             O1COM.CURRENT_REPORT_LTS$ -> REPORT_LTS.BODY_NO =

  22314 31 007776   000064 471400 xsym               LDP1    O1COM+52
        31 007777   100042 054100                    AOS     34,,PR1
        31 010000   010031 710000 31                 TRA     s:22330

     2064    22315    3                 O1COM.CURRENT_REPORT_LTS$ -> REPORT_LTS.BODY_NO + 1;
     2065    22316
     2066    22317    3        CASE (%CONTROL_FOOTING);

     2067    22318    3             CALL APPEND_01_LTS (O1COM.CURRENT_REPORT_LTS$ -> REPORT_LTS.
             22318                      CONTROL_FOOTING$, LTS$$);

  22318 31 010001   000220 236000 0                  LDQ     @LTS$$
        31 010002   000207 756000 0                  STQ     @LTS$$
        31 010003   000064 236000 xsym               LDQ     O1COM+52
        31 010004   000030 036003                    ADLQ    24,DU
        31 010005   000206 756000 0                  STQ     @APPEND$
        31 010006   007262 701000 31                 TSX1    APPEND_01_LTS
        31 010007   000000 011000                    NOP     0

     2068    22319    3             CALL SAVE_CONTROL_NAME (CDECL$ -> LX_REPORT_REC.P.TYPE$,

  22319 31 010010   000220 236000 0                  LDQ     @LTS$$
        31 010011   000215 756000 0                  STQ     @LTS$$
        31 010012   000032 236000 0                  LDQ     CDECL$
        31 010013   000013 036003                    ADLQ    11,DU
        31 010014   000214 756000 0                  STQ     @QUAL_ID$
        31 010015   007347 701000 31                 TSX1    SAVE_CONTROL_NAME
        31 010016   000000 011000                    NOP     0

     2069    22320    3                                     LTS$$);
PL6.E3A0      #001=Z8DT$REPORT_REC File=Z8DT.:Z8A6TSI                            SAT 08/09/97 11:22 Page:334
     2070    22321    3             CDECL$ -> LX_REPORT_REC.P.TYPE$ = ADDR(NIL);

  22321 31 010017   000005 236000 32                 LDQ     5
        31 010020   000032 470400 0                  LDP0    CDECL$
        31 010021   000013 756100                    STQ     11,,PR0

     2071    22322    3             O1COM.CURRENT_REPORT_LTS$ -> REPORT_LTS.BODY_NO =

  22322 31 010022   000064 471400 xsym               LDP1    O1COM+52
        31 010023   100042 054100                    AOS     34,,PR1
        31 010024   010031 710000 31                 TRA     s:22330

     2072    22323    3                 O1COM.CURRENT_REPORT_LTS$ -> REPORT_LTS.BODY_NO + 1;
     2073    22324
     2074    22325    3        CASE (ELSE);

     2075    22326    3             CALL Z8AE$ERROR (%E$UNEXPECTED_CASE);

  22326 31 010025   000061 630400 32                 EPPR0   49
        31 010026   000036 631400 32                 EPPR1   30
        31 010027   000000 701000 xent               TSX1    Z8AE$ERROR
        31 010030   000000 011000                    NOP     0

     2076    22327
     2077    22328    3      END;

     2078    22329
     2079    22330    2    END PROCESS_01_ENTRY;

  22330 31 010031   000217 221200 0                  LDX1  ! DEFERED_ID$+1
        31 010032   000001 702211                    TSX2  ! 1,X1

     2080    22331         %EJECT;
PL6.E3A0      #001=Z8DT$REPORT_REC File=Z8DT.:Z8A6TSI                            SAT 08/09/97 11:22 Page:335
     2081    22332
     2082    22333         /*=================*/
     2083    22334    1      PROCESS_GRP_ENTRY: PROC (LTS$$);

  22334 31 010033   000222 741200 0     PROCESS_GRP* STX1  ! NEW_ST$+1

     2084    22335         /*=================*/
     2085    22336         /*
     2086    22337               NAME: PROCESS_GRP_ENTRY
     2087    22338
     2088    22339           DESCRIPTION: A new ST item is created for this group entry
     2089    22340                        and the LTS item of this entry is linked to the
     2090    22341                        previous entry's LTS item so you can step through
     2091    22342                        report group through the LTS chain.
     2092    22343          */
     2093    22344
     2094    22345
     2095    22346    2    DCL LTS$$                PTR;
     2096    22347    2    DCL NEW_ST$              PTR;
     2097    22348
     2098    22349
     2099    22350
     2100    22351    2      REPORT_DATA.B.CLASS = %CLASS_ALPHANUMERIC;

  22351 31 010034   000060 236000 0                  LDQ     REPORT_DATA+18
        31 010035   000161 376000 32                 ANQ     113
        31 010036   006000 276003                    ORQ     3072,DU
        31 010037   000060 756000 0                  STQ     REPORT_DATA+18

     2101    22352    2      REPORT_DATA.TYPE = %TYA;

  22352 31 010040   000010 235007                    LDA     8,DL
        31 010041   000047 755000 0                  STA     REPORT_DATA+9

     2102    22353
     2103    22354    2      CALL NEW_ST (NEW_ST$);

PL6.E3A0      #001=Z8DT$REPORT_REC File=Z8DT.:Z8A6TSI                            SAT 08/09/97 11:22 Page:336
  22354 31 010042   000237 236000 32                 LDQ     159
        31 010043   000166 756000 0                  STQ     @NEW_ST$
        31 010044   006104 701000 31                 TSX1    NEW_ST
        31 010045   000000 011000                    NOP     0

     2104    22355
     2105    22356           %NEW_REPORT_GRP_LTS (@POINTER = LTS$$,
     2106    22357                                @ST$     = NEW_ST$,
     2107    22358                                @QLT$    = NEW_ST$ -> SCALAR.QLT$,
     2108    22359                                @LINE_TYPE = REPORT_DATA.LINE_TYPE,
     2109    22360                                @LINE_NO#  = REPORT_DATA.LINE_NUMBER,
     2110    22361                                @LINE_PRESENTED  = REPORT_DATA.B.LINE_PRESENTED,
     2111    22362                                @PREV   = "REP_STK.LTS$ (REP_STK_PTR)");

  22441 31 010046   000002 236000 8                  LDQ     LTS_+2
        31 010047   000007 036007                    ADLQ    7,DL
        31 010050   000003 116000 8                  CMPQ    LTS_+3
        31 010051   010062 604000 31                 TMI     s:22443

  22442 31 010052   000147 236000 32                 LDQ     103
        31 010053   000302 756000 0                  STQ     FIRST_LINE_SHOWN+1
        31 010054   000302 630400 0                  EPPR0   FIRST_LINE_SHOWN+1
        31 010055   000303 450400 0                  STP0    FIRST_LINE_SHOWN+2
        31 010056   000303 630400 0                  EPPR0   FIRST_LINE_SHOWN+2
        31 010057   000036 631400 32                 EPPR1   30
        31 010060   000000 701000 xent               TSX1    Z8AR$RESERVER
        31 010061   000000 011000                    NOP     0

  22443 31 010062   000002 236000 8                  LDQ     LTS_+2
        31 010063   000022 736000                    QLS     18
        31 010064   000001 036000 8                  ADLQ    LTS_+1
        31 010065   000223 470400 0                  LDP0    @LTS$$
        31 010066   000000 756100                    STQ     0,,PR0

  22444 31 010067   000007 236007                    LDQ     7,DL
        31 010070   000002 056000 8                  ASQ     LTS_+2

PL6.E3A0      #001=Z8DT$REPORT_REC File=Z8DT.:Z8A6TSI                            SAT 08/09/97 11:22 Page:337
  22445 31 010071   000000 471500                    LDP1    0,,PR0
        31 010072   001103 220003                    LDX0    579,DU
        31 010073   100000 740100                    STX0    0,,PR1

  22451 31 010074   000000 471500                    LDP1    0,,PR0
        31 010075   100000 740100                    STX0    0,,PR1

  22452 31 010076   000000 471500                    LDP1    0,,PR0
        31 010077   000224 236000 0                  LDQ     NEW_ST$
        31 010100   100003 756100                    STQ     3,,PR1

  22453 31 010101   000000 471500                    LDP1    0,,PR0
        31 010102   000224 473400 0                  LDP3    NEW_ST$
        31 010103   300007 236100                    LDQ     7,,PR3
        31 010104   100004 756100                    STQ     4,,PR1

  22454 31 010105   000000 471500                    LDP1    0,,PR0
        31 010106   000005 236000 32                 LDQ     5
        31 010107   100006 756100                    STQ     6,,PR1

  22455 31 010110   000000 471500                    LDP1    0,,PR0
        31 010111   000000 236000 xsym               LDQ     REP_STK_PTR
        31 010112   000005 402007                    MPY     5,DL
        31 010113   000001 236006 xsym               LDQ     REP_STK+1,QL
        31 010114   100005 756100                    STQ     5,,PR1

  22456 31 010115   000000 471500                    LDP1    0,,PR0
        31 010116   000046 235000 0                  LDA     REPORT_DATA+8
        31 010117   100001 755100                    STA     1,,PR1

  22457 31 010120   000000 471500                    LDP1    0,,PR0
        31 010121   000053 235000 0                  LDA     REPORT_DATA+13
        31 010122   100002 755100                    STA     2,,PR1

  22458 31 010123   000000 471500                    LDP1    0,,PR0
        31 010124   000000 221003                    LDX1    0,DU
        31 010125   100000 441100                    SXL1    0,,PR1
PL6.E3A0      #001=Z8DT$REPORT_REC File=Z8DT.:Z8A6TSI                            SAT 08/09/97 11:22 Page:338

  22459 31 010126   000000 471500                    LDP1    0,,PR0
        31 010127   000060 236000 0                  LDQ     REPORT_DATA+18
        31 010130   000003 772000                    QRL     3
        31 010131   100000 676100                    ERQ     0,,PR1
        31 010132   400000 376007                    ANQ     -131072,DL
        31 010133   100000 656100                    ERSQ    0,,PR1

     2112    22462    2      CALL Z8DO$LINK_WITH_LTS(NEW_ST$ -> SCALAR.LTS$, LTS$$);

  22462 31 010134   000223 236000 0                  LDQ     @LTS$$
        31 010135   000303 756000 0                  STQ     FIRST_LINE_SHOWN+2
        31 010136   000224 236000 0                  LDQ     NEW_ST$
        31 010137   000005 036003                    ADLQ    5,DU
        31 010140   000302 756000 0                  STQ     FIRST_LINE_SHOWN+1
        31 010141   000302 630400 0                  EPPR0   FIRST_LINE_SHOWN+1
        31 010142   000001 631400 32                 EPPR1   1
        31 010143   000000 701000 xent               TSX1    Z8DO$LINK_WITH_LTS
        31 010144   000000 011000                    NOP     0

     2113    22463
     2114    22464    2      REP_STK.LTS$ (REP_STK_PTR) -> REPORT_GRP_LTS.NEXT = LTS$$;

  22464 31 010145   000000 236000 xsym               LDQ     REP_STK_PTR
        31 010146   000005 402007                    MPY     5,DL
        31 010147   000001 470406 xsym               LDP0    REP_STK+1,QL
        31 010150   000223 471400 0                  LDP1    @LTS$$
        31 010151   100000 236100                    LDQ     0,,PR1
        31 010152   000006 756100                    STQ     6,,PR0

     2115    22465    2      LTS$$ -> REPORT_GRP_LTS.QLT$ -> QLT.FATHER =

  22465 31 010153   100000 470500                    LDP0    0,,PR1
        31 010154   000004 473500                    LDP3    4,,PR0
        31 010155   000054 236000 0                  LDQ     REPORT_DATA+14
        31 010156   000005 402007                    MPY     5,DL
        31 010157   777773 236006 xsym               LDQ     REP_STK-5,QL
PL6.E3A0      #001=Z8DT$REPORT_REC File=Z8DT.:Z8A6TSI                            SAT 08/09/97 11:22 Page:339
        31 010160   300001 756100                    STQ     1,,PR3

     2116    22466    2               REP_STK.QLT$ (REPORT_DATA.STK_PTR - 1);
     2117    22467
     2118    22468    2      IF REPORT_DATA.LEVEL.CURRENT <= REPORT_DATA.LEVEL.PREVIOUS  THEN

  22468 31 010161   000036 236000 0                  LDQ     REPORT_DATA
        31 010162   000037 116000 0                  CMPQ    REPORT_DATA+1
        31 010163   010173 605400 31                 TPNZ    s:22472

     2119    22469    2        REP_STK.QLT$ (REPORT_DATA.STK_PTR) -> QLT.BROTHER =

  22469 31 010164   000054 236000 0                  LDQ     REPORT_DATA+14
        31 010165   000005 402007                    MPY     5,DL
        31 010166   000000 470406 xsym               LDP0    REP_STK,QL
        31 010167   100000 473500                    LDP3    0,,PR1
        31 010170   300004 236100                    LDQ     4,,PR3
        31 010171   000002 756100                    STQ     2,,PR0
        31 010172   010201 710000 31                 TRA     s:22474

     2120    22470    2               LTS$$ -> REPORT_GRP_LTS.QLT$;
     2121    22471    2      ELSE
     2122    22472    2        REP_STK.QLT$ (REP_STK_PTR) -> QLT.SON = LTS$$ -> REPORT_GRP_LTS.QLT$;

  22472 31 010173   000000 236000 xsym               LDQ     REP_STK_PTR
        31 010174   000005 402007                    MPY     5,DL
        31 010175   000000 470406 xsym               LDP0    REP_STK,QL
        31 010176   100000 473500                    LDP3    0,,PR1
        31 010177   300004 236100                    LDQ     4,,PR3
        31 010200   000003 756100                    STQ     3,,PR0

     2123    22473
     2124    22474    2    END PROCESS_GRP_ENTRY;

  22474 31 010201   000222 221200 0                  LDX1  ! NEW_ST$+1
        31 010202   000001 702211                    TSX2  ! 1,X1

PL6.E3A0      #001=Z8DT$REPORT_REC File=Z8DT.:Z8A6TSI                            SAT 08/09/97 11:22 Page:340
     2125    22475         %EJECT;
PL6.E3A0      #001=Z8DT$REPORT_REC File=Z8DT.:Z8A6TSI                            SAT 08/09/97 11:22 Page:341
     2126    22476
     2127    22477         /*==================*/
     2128    22478    1      PROCESS_ELEM_ENTRY: PROC (LTS$$);

  22478 31 010203   000225 741200 0     PROCESS_ELE* STX1  ! NEW_ST$+1

     2129    22479         /*==================*/
     2130    22480         /*
     2131    22481               NAME: PROCESS_ELEM_ENTRY
     2132    22482
     2133    22483           DESCRIPTION: A new ST item is created for this elementary entry
     2134    22484                        and the LTS item of this entry is linked to the
     2135    22485                        previous entry's LTS item so you can step through
     2136    22486                        report group through the LTS chain.
     2137    22487                        The VALUE, SOURCE and the SUM clauses will be
     2138    22488                        preprocessed by calling other modules, and the
     2139    22489                        print line buffer length is calculated in this
     2140    22490                        routine too.
     2141    22491          */
     2142    22492
     2143    22493
     2144    22494    2    DCL LTS$$                PTR;
     2145    22495    2    DCL NEW_ST$              PTR;
     2146    22496    2    DCL REC_LENGTH           SBIN WORD;
     2147    22497
     2148    22498
     2149    22499    3      DO CASE (PIC_OUT.TYPE);

  22499 31 010204   000002 220000 28                 LDX0    PIC_OUT+2
        31 010205   000007 100003                    CMPX0   7,DU
        31 010206   010210 602010 31                 TNC     s:22499+4,X0
        31 010207   010226 710000 31                 TRA     s:22508
        31 010210   010226 710000 31                 TRA     s:22508
        31 010211   010217 710000 31                 TRA     s:22501
        31 010212   010217 710000 31                 TRA     s:22501
        31 010213   010217 710000 31                 TRA     s:22501
        31 010214   010217 710000 31                 TRA     s:22501
PL6.E3A0      #001=Z8DT$REPORT_REC File=Z8DT.:Z8A6TSI                            SAT 08/09/97 11:22 Page:342
        31 010215   010222 710000 31                 TRA     s:22504
        31 010216   010217 710000 31                 TRA     s:22501

     2150    22500    3        CASE (%PIC_TY_A, %PIC_TY_AN, %PIC_TY_ANE, %PIC_TY_NE, %PIC_TY_K);

     2151    22501    3             CALL PROCESS_ADSC_PIC;

  22501 31 010217   005512 701000 31                 TSX1    PROCESS_ADSC_PIC
        31 010220   000000 011000                    NOP     0
        31 010221   010226 710000 31                 TRA     s:22508

     2152    22502
     2153    22503    3        CASE (%PIC_TY_N);

     2154    22504    3             CALL PROCESS_NDSC9_PIC (REPORT_DATA.DESC);

  22504 31 010222   000235 236000 32                 LDQ     157
        31 010223   000153 756000 0                  STQ     @OUT
        31 010224   005321 701000 31                 TSX1    PROCESS_NDSC9_PIC
        31 010225   000000 011000                    NOP     0

     2155    22505
     2156    22506    3      END;

     2157    22507
     2158    22508    2      CALL NEW_ST (NEW_ST$);

  22508 31 010226   000240 236000 32                 LDQ     160
        31 010227   000166 756000 0                  STQ     @NEW_ST$
        31 010230   006104 701000 31                 TSX1    NEW_ST
        31 010231   000000 011000                    NOP     0

     2159    22509
     2160    22510    2      REPORT_DATA.SPAN = PIC_OUT.WIDTH;

  22510 31 010232   000000 235000 28                 LDA     PIC_OUT
        31 010233   000051 755000 0                  STA     REPORT_DATA+11
PL6.E3A0      #001=Z8DT$REPORT_REC File=Z8DT.:Z8A6TSI                            SAT 08/09/97 11:22 Page:343

     2161    22511
     2162    22512           %NEW_REPORT_ELEM_LTS (@POINTER = LTS$$,
     2163    22513                                 @ST$     = NEW_ST$,
     2164    22514                                 @QLT$    = NEW_ST$ -> SCALAR.QLT$,
     2165    22515                                 @LINE_TYPE = REPORT_DATA.LINE_TYPE,
     2166    22516                                 @LINE_NO#  = REPORT_DATA.LINE_NUMBER,
     2167    22517                                 @LINE_PRESENTED  = REPORT_DATA.B.LINE_PRESENTED,
     2168    22518                                 @SUM_PRESENTED   = REPORT_DATA.B.SUM_PRESENTED,
     2169    22519                                 @SOURCE_PRESENTED = REPORT_DATA.B.SOURCE_PRESENTED,
     2170    22520                                 @PREV   = "REP_STK.LTS$ (REP_STK_PTR)",
     2171    22521                                 @COLUMN_NO# = REPORT_DATA.COLUMN_NUMBER,
     2172    22522                                 @COLUMN_PRESENTED = REPORT_DATA.B.COLUMN_PRESENTED,
     2173    22523                                 @PRINTABLE        = REPORT_DATA.B.COLUMN_PRESENTED,
     2174    22524                                 @SPAN             = REPORT_DATA.SPAN,
     2175    22525                                 @GROUP_INDICATE   = REPORT_DATA.B.GROUP_INDICATE);

  22604 31 010234   000002 236000 8                  LDQ     LTS_+2
        31 010235   000014 036007                    ADLQ    12,DL
        31 010236   000003 116000 8                  CMPQ    LTS_+3
        31 010237   010250 604000 31                 TMI     s:22606

  22605 31 010240   000147 236000 32                 LDQ     103
        31 010241   000302 756000 0                  STQ     FIRST_LINE_SHOWN+1
        31 010242   000302 630400 0                  EPPR0   FIRST_LINE_SHOWN+1
        31 010243   000303 450400 0                  STP0    FIRST_LINE_SHOWN+2
        31 010244   000303 630400 0                  EPPR0   FIRST_LINE_SHOWN+2
        31 010245   000036 631400 32                 EPPR1   30
        31 010246   000000 701000 xent               TSX1    Z8AR$RESERVER
        31 010247   000000 011000                    NOP     0

  22606 31 010250   000002 236000 8                  LDQ     LTS_+2
        31 010251   000022 736000                    QLS     18
        31 010252   000001 036000 8                  ADLQ    LTS_+1
        31 010253   000226 470400 0                  LDP0    @LTS$$
        31 010254   000000 756100                    STQ     0,,PR0

PL6.E3A0      #001=Z8DT$REPORT_REC File=Z8DT.:Z8A6TSI                            SAT 08/09/97 11:22 Page:344
  22607 31 010255   000014 236007                    LDQ     12,DL
        31 010256   000002 056000 8                  ASQ     LTS_+2

  22608 31 010257   000000 471500                    LDP1    0,,PR0
        31 010260   001102 220003                    LDX0    578,DU
        31 010261   100000 740100                    STX0    0,,PR1

  22614 31 010262   000000 471500                    LDP1    0,,PR0
        31 010263   100000 740100                    STX0    0,,PR1

  22615 31 010264   000000 471500                    LDP1    0,,PR0
        31 010265   000227 236000 0                  LDQ     NEW_ST$
        31 010266   100003 756100                    STQ     3,,PR1

  22616 31 010267   000000 471500                    LDP1    0,,PR0
        31 010270   000227 473400 0                  LDP3    NEW_ST$
        31 010271   300007 236100                    LDQ     7,,PR3
        31 010272   100004 756100                    STQ     4,,PR1

  22617 31 010273   000000 471500                    LDP1    0,,PR0
        31 010274   000005 236000 32                 LDQ     5
        31 010275   100006 756100                    STQ     6,,PR1

  22618 31 010276   000000 471500                    LDP1    0,,PR0
        31 010277   000000 236000 xsym               LDQ     REP_STK_PTR
        31 010300   000005 402007                    MPY     5,DL
        31 010301   000001 236006 xsym               LDQ     REP_STK+1,QL
        31 010302   100005 756100                    STQ     5,,PR1

  22619 31 010303   000000 471500                    LDP1    0,,PR0
        31 010304   000005 236000 32                 LDQ     5
        31 010305   100011 756100                    STQ     9,,PR1

  22620 31 010306   000000 471500                    LDP1    0,,PR0
        31 010307   100013 756100                    STQ     11,,PR1

  22621 31 010310   000000 471500                    LDP1    0,,PR0
PL6.E3A0      #001=Z8DT$REPORT_REC File=Z8DT.:Z8A6TSI                            SAT 08/09/97 11:22 Page:345
        31 010311   100012 756100                    STQ     10,,PR1

  22622 31 010312   000000 471500                    LDP1    0,,PR0
        31 010313   000046 235000 0                  LDA     REPORT_DATA+8
        31 010314   100001 755100                    STA     1,,PR1

  22623 31 010315   000000 471500                    LDP1    0,,PR0
        31 010316   000051 235000 0                  LDA     REPORT_DATA+11
        31 010317   100010 755100                    STA     8,,PR1

  22624 31 010320   000000 471500                    LDP1    0,,PR0
        31 010321   000050 235000 0                  LDA     REPORT_DATA+10
        31 010322   100007 755100                    STA     7,,PR1

  22625 31 010323   000000 471500                    LDP1    0,,PR0
        31 010324   000053 235000 0                  LDA     REPORT_DATA+13
        31 010325   100002 755100                    STA     2,,PR1

  22626 31 010326   000000 471500                    LDP1    0,,PR0
        31 010327   000000 221003                    LDX1    0,DU
        31 010330   100000 441100                    SXL1    0,,PR1

  22627 31 010331   000000 471500                    LDP1    0,,PR0
        31 010332   000060 236000 0                  LDQ     REPORT_DATA+18
        31 010333   000003 772000                    QRL     3
        31 010334   100000 676100                    ERQ     0,,PR1
        31 010335   200000 376007                    ANQ     65536,DL
        31 010336   100000 656100                    ERSQ    0,,PR1

  22628 31 010337   000000 471500                    LDP1    0,,PR0
        31 010340   000060 236000 0                  LDQ     REPORT_DATA+18
        31 010341   000003 772000                    QRL     3
        31 010342   100000 676100                    ERQ     0,,PR1
        31 010343   400000 376007                    ANQ     -131072,DL
        31 010344   100000 656100                    ERSQ    0,,PR1

  22629 31 010345   000000 471500                    LDP1    0,,PR0
PL6.E3A0      #001=Z8DT$REPORT_REC File=Z8DT.:Z8A6TSI                            SAT 08/09/97 11:22 Page:346
        31 010346   000060 236000 0                  LDQ     REPORT_DATA+18
        31 010347   000013 772000                    QRL     11
        31 010350   100000 676100                    ERQ     0,,PR1
        31 010351   020000 376007                    ANQ     8192,DL
        31 010352   100000 656100                    ERSQ    0,,PR1

  22630 31 010353   000000 471500                    LDP1    0,,PR0
        31 010354   000060 236000 0                  LDQ     REPORT_DATA+18
        31 010355   000003 772000                    QRL     3
        31 010356   100000 676100                    ERQ     0,,PR1
        31 010357   040000 376007                    ANQ     16384,DL
        31 010360   100000 656100                    ERSQ    0,,PR1

  22631 31 010361   000000 471500                    LDP1    0,,PR0
        31 010362   000060 236000 0                  LDQ     REPORT_DATA+18
        31 010363   000001 772000                    QRL     1
        31 010364   100000 676100                    ERQ     0,,PR1
        31 010365   100000 376007                    ANQ     32768,DL
        31 010366   100000 656100                    ERSQ    0,,PR1

  22632 31 010367   000000 471500                    LDP1    0,,PR0
        31 010370   000060 236000 0                  LDQ     REPORT_DATA+18
        31 010371   000007 772000                    QRL     7
        31 010372   100000 676100                    ERQ     0,,PR1
        31 010373   010000 376007                    ANQ     4096,DL
        31 010374   100000 656100                    ERSQ    0,,PR1

     2176    22635    2      CALL Z8DO$LINK_WITH_LTS(NEW_ST$ -> SCALAR.LTS$, LTS$$);

  22635 31 010375   000226 236000 0                  LDQ     @LTS$$
        31 010376   000303 756000 0                  STQ     FIRST_LINE_SHOWN+2
        31 010377   000227 236000 0                  LDQ     NEW_ST$
        31 010400   000005 036003                    ADLQ    5,DU
        31 010401   000302 756000 0                  STQ     FIRST_LINE_SHOWN+1
        31 010402   000302 630400 0                  EPPR0   FIRST_LINE_SHOWN+1
        31 010403   000001 631400 32                 EPPR1   1
        31 010404   000000 701000 xent               TSX1    Z8DO$LINK_WITH_LTS
PL6.E3A0      #001=Z8DT$REPORT_REC File=Z8DT.:Z8A6TSI                            SAT 08/09/97 11:22 Page:347
        31 010405   000000 011000                    NOP     0

     2177    22636
     2178    22637    2      REP_STK.LTS$ (REP_STK_PTR) -> REPORT_GRP_LTS.NEXT = LTS$$;

  22637 31 010406   000000 236000 xsym               LDQ     REP_STK_PTR
        31 010407   000005 402007                    MPY     5,DL
        31 010410   000001 470406 xsym               LDP0    REP_STK+1,QL
        31 010411   000226 471400 0                  LDP1    @LTS$$
        31 010412   100000 236100                    LDQ     0,,PR1
        31 010413   000006 756100                    STQ     6,,PR0

     2179    22638    2      LTS$$ -> REPORT_GRP_LTS.QLT$ -> QLT.FATHER =

  22638 31 010414   100000 470500                    LDP0    0,,PR1
        31 010415   000004 473500                    LDP3    4,,PR0
        31 010416   000054 236000 0                  LDQ     REPORT_DATA+14
        31 010417   000005 402007                    MPY     5,DL
        31 010420   777773 236006 xsym               LDQ     REP_STK-5,QL
        31 010421   300001 756100                    STQ     1,,PR3

     2180    22639    2               REP_STK.QLT$ (REPORT_DATA.STK_PTR - 1);
     2181    22640
     2182    22641    2      IF REPORT_DATA.LEVEL.CURRENT <= REPORT_DATA.LEVEL.PREVIOUS  THEN

  22641 31 010422   000036 236000 0                  LDQ     REPORT_DATA
        31 010423   000037 116000 0                  CMPQ    REPORT_DATA+1
        31 010424   010434 605400 31                 TPNZ    s:22645

     2183    22642    2        REP_STK.QLT$ (REPORT_DATA.STK_PTR) -> QLT.BROTHER =

  22642 31 010425   000054 236000 0                  LDQ     REPORT_DATA+14
        31 010426   000005 402007                    MPY     5,DL
        31 010427   000000 470406 xsym               LDP0    REP_STK,QL
        31 010430   100000 473500                    LDP3    0,,PR1
        31 010431   300004 236100                    LDQ     4,,PR3
        31 010432   000002 756100                    STQ     2,,PR0
PL6.E3A0      #001=Z8DT$REPORT_REC File=Z8DT.:Z8A6TSI                            SAT 08/09/97 11:22 Page:348
        31 010433   010442 710000 31                 TRA     s:22647

     2184    22643    2               LTS$$ -> REPORT_GRP_LTS.QLT$;
     2185    22644    2      ELSE
     2186    22645    2        REP_STK.QLT$ (REP_STK_PTR) -> QLT.SON = LTS$$ -> REPORT_GRP_LTS.QLT$;

  22645 31 010434   000000 236000 xsym               LDQ     REP_STK_PTR
        31 010435   000005 402007                    MPY     5,DL
        31 010436   000000 470406 xsym               LDP0    REP_STK,QL
        31 010437   100000 473500                    LDP3    0,,PR1
        31 010440   300004 236100                    LDQ     4,,PR3
        31 010441   000003 756100                    STQ     3,,PR0

     2187    22646
     2188    22647    2      IF CDECL$ -> LX_REPORT_REC.P.VALUE$ ~= ADDR(NIL) THEN

  22647 31 010442   000032 470400 0                  LDP0    CDECL$
        31 010443   000010 236100                    LDQ     8,,PR0
        31 010444   000005 116000 32                 CMPQ    5
        31 010445   010453 600000 31                 TZE     s:22650

     2189    22648    2        CALL PROCESS_VALUE (LTS$$);

  22648 31 010446   000226 236000 0                  LDQ     @LTS$$
        31 010447   000235 756000 0                  STQ     @LEVEL#+2
        31 010450   010542 701000 31                 TSX1    PROCESS_VALUE
        31 010451   000000 011000                    NOP     0
        31 010452   010476 710000 31                 TRA     s:22658

     2190    22649    2      ELSE
     2191    22650    2        IF CDECL$ -> LX_REPORT_REC.P.SOURCE$ ~= ADDR(NIL) THEN

  22650 31 010453   000021 236100                    LDQ     17,,PR0
        31 010454   000005 116000 32                 CMPQ    5
        31 010455   010463 600000 31                 TZE     s:22653

     2192    22651    2          CALL PROCESS_SOURCE (LTS$$);
PL6.E3A0      #001=Z8DT$REPORT_REC File=Z8DT.:Z8A6TSI                            SAT 08/09/97 11:22 Page:349

  22651 31 010456   000226 236000 0                  LDQ     @LTS$$
        31 010457   000245 756000 0                  STQ     TYPE_DESC+5
        31 010460   010673 701000 31                 TSX1    PROCESS_SOURCE
        31 010461   000000 011000                    NOP     0
        31 010462   010476 710000 31                 TRA     s:22658

     2193    22652    2        ELSE
     2194    22653    2          IF CDECL$ -> LX_REPORT_REC.P.SUM$ ~= ADDR(NIL) THEN

  22653 31 010463   000022 236100                    LDQ     18,,PR0
        31 010464   000005 116000 32                 CMPQ    5
        31 010465   010473 600000 31                 TZE     s:22656

     2195    22654    2            CALL PROCESS_SUM (LTS$$);

  22654 31 010466   000226 236000 0                  LDQ     @LTS$$
        31 010467   000250 756000 0                  STQ     DEFERED_ID$+2
        31 010470   010746 701000 31                 TSX1    PROCESS_SUM
        31 010471   000000 011000                    NOP     0
        31 010472   010476 710000 31                 TRA     s:22658

     2196    22655    2          ELSE
     2197    22656    2            LTS$$ -> REPORT_ELEM_LTS.B.PRINTABLE = FALSE;

  22656 31 010473   100000 473500                    LDP3    0,,PR1
        31 010474   000173 236000 32                 LDQ     123
        31 010475   300000 356100                    ANSQ    0,,PR3

     2198    22657
     2199    22658    2      IF NOT NEW_ST$ -> VARIABLE.B.SUM_COUNTER THEN

  22658 31 010476   000227 470400 0                  LDP0    NEW_ST$
        31 010477   000003 236100                    LDQ     3,,PR0
        31 010500   004000 316007                    CANQ    2048,DL
        31 010501   010504 601000 31                 TNZ     s:22662

PL6.E3A0      #001=Z8DT$REPORT_REC File=Z8DT.:Z8A6TSI                            SAT 08/09/97 11:22 Page:350
     2200    22659    2        NEW_ST$ -> VARIABLE.B.NON_STORAGE = TRUE;

  22659 31 010502   000040 236007                    LDQ     32,DL
        31 010503   000003 256100                    ORSQ    3,,PR0

     2201    22660
     2202    22661
     2203    22662    2      IF LTS$$ -> REPORT_ELEM_LTS.B.PRINTABLE THEN

  22662 31 010504   000226 470400 0                  LDP0    @LTS$$
        31 010505   000000 471500                    LDP1    0,,PR0
        31 010506   100000 236100                    LDQ     0,,PR1
        31 010507   010000 316007                    CANQ    4096,DL
        31 010510   010521 600000 31                 TZE     s:22671

     2204    22663    3        DO;

     2205    22664    3          REC_LENGTH = REPORT_DATA.SPAN + REPORT_DATA.COLUMN_NUMBER - 1;

  22664 31 010511   000051 236000 0                  LDQ     REPORT_DATA+11
        31 010512   000050 036000 0                  ADLQ    REPORT_DATA+10
        31 010513   000001 136007                    SBLQ    1,DL
        31 010514   000230 756000 0                  STQ     REC_LENGTH

     2206    22665
     2207    22666    3          IF REC_LENGTH > O1COM.CURRENT_REPORT_LTS$ -> REPORT_LTS.RECORD_LENGTH THEN

  22666 31 010515   000064 473400 xsym               LDP3    O1COM+52
        31 010516   300016 116100                    CMPQ    14,,PR3
        31 010517   010521 604400 31                 TMOZ    s:22671

     2208    22667    3            O1COM.CURRENT_REPORT_LTS$ -> REPORT_LTS.RECORD_LENGTH = REC_LENGTH;

  22667 31 010520   300016 756100                    STQ     14,,PR3

     2209    22668    3        END;

PL6.E3A0      #001=Z8DT$REPORT_REC File=Z8DT.:Z8A6TSI                            SAT 08/09/97 11:22 Page:351
     2210    22669
     2211    22670
     2212    22671    2    END PROCESS_ELEM_ENTRY;

  22671 31 010521   000225 221200 0                  LDX1  ! NEW_ST$+1
        31 010522   000001 702211                    TSX2  ! 1,X1

     2213    22672         %EJECT;
PL6.E3A0      #001=Z8DT$REPORT_REC File=Z8DT.:Z8A6TSI                            SAT 08/09/97 11:22 Page:352
     2214    22673
     2215    22674         /*================*/
     2216    22675    1      FIND_REP_STK_PTR: PROC (STK_PTR, LEVEL#);

  22675 31 010523   000231 741200 0     FIND_REP_ST* STX1  ! REC_LENGTH+1

     2217    22676         /*================*/
     2218    22677         /*
     2219    22678               NAME: FIND_REP_STK_PTR
     2220    22679
     2221    22680           DESCRIPTION: This routine search the report item entry stacks
     2222    22681                        compare the input level number with that in stacks
     2223    22682                        and return appropriate stack number of the stack
     2224    22683                        that will used for that entry.
     2225    22684         */
     2226    22685
     2227    22686
     2228    22687    2     DCL STK_PTR          SBIN WORD;
     2229    22688    2     DCL LEVEL#           SBIN WORD;
     2230    22689
     2231    22690
     2232    22691    2      I = 1;

  22691 31 010524   000001 235007                    LDA     1,DL
        31 010525   000035 755000 0                  STA     I

     2233    22692
     2234    22693    3      DO UNTIL (REP_STK.LEVEL# (I) >= LEVEL#);

     2235    22694    3        I = I + 1;

  22694 31 010526   000035 054000 0                  AOS     I

     2236    22695    3      END;

  22695 31 010527   000233 470400 0                  LDP0    @LEVEL#
        31 010530   000035 236000 0                  LDQ     I
PL6.E3A0      #001=Z8DT$REPORT_REC File=Z8DT.:Z8A6TSI                            SAT 08/09/97 11:22 Page:353
        31 010531   000005 402007                    MPY     5,DL
        31 010532   000003 236006 xsym               LDQ     REP_STK+3,QL
        31 010533   000000 116100                    CMPQ    0,,PR0
        31 010534   010526 604000 31                 TMI     s:22694

     2237    22696
     2238    22697    2      STK_PTR = I;

  22697 31 010535   000232 471400 0                  LDP1    @STK_PTR
        31 010536   000035 235000 0                  LDA     I
        31 010537   100000 755100                    STA     0,,PR1

     2239    22698
     2240    22699    2    END FIND_REP_STK_PTR;

  22699 31 010540   000231 221200 0                  LDX1  ! REC_LENGTH+1
        31 010541   000001 702211                    TSX2  ! 1,X1

     2241    22700         %EJECT;
PL6.E3A0      #001=Z8DT$REPORT_REC File=Z8DT.:Z8A6TSI                            SAT 08/09/97 11:22 Page:354
     2242    22701
     2243    22702        /*=============*/
     2244    22703    1     PROCESS_VALUE: PROC (LTS$$);

  22703 31 010542   000234 741200 0     PROCESS_VAL* STX1  ! @LEVEL#+1

     2245    22704        /*=============*/
     2246    22705         /*
     2247    22706               NAME: PROCESS_VALUE
     2248    22707
     2249    22708           DESCRIPTION: This routine creates a constant st item for the
     2250    22709                        value specified in the VALUE clause and put the
     2251    22710                        ETT item of the constant st on the LTS of this
     2252    22711                        entry.
     2253    22712         */
     2254    22713
     2255    22714
     2256    22715    2   DCL LTS$$                     PTR;
     2257    22716    2   DCL RETURN_ETT$               PTR;
     2258    22717    2   DCL CONST$                    PTR;
     2259    22718    2   DCL 1 TYPE_DESC               ALIGNED,
     2260    22719             %TYPE_DESC;
     2261    22753
     2262    22754
     2263    22755    2      CONST$ = CDECL$ -> LX_REPORT_REC.P.VALUE$;

  22755 31 010543   000032 470400 0                  LDP0    CDECL$
        31 010544   000010 236100                    LDQ     8,,PR0
        31 010545   000237 756000 0                  STQ     CONST$

     2264    22756
     2265    22757    2      IF REPORT_DATA.B.CLASS = %CLASS_NUMERIC_EDITED THEN

  22757 31 010546   000060 236000 0                  LDQ     REPORT_DATA+18
        31 010547   016000 376003                    ANQ     7168,DU
        31 010550   012000 116003                    CMPQ    5120,DU
        31 010551   010605 601000 31                 TNZ     s:22805
PL6.E3A0      #001=Z8DT$REPORT_REC File=Z8DT.:Z8A6TSI                            SAT 08/09/97 11:22 Page:355

     2266    22758    3        DO;

     2267    22759    3          TYPE_DESC.TYPE         = %TYA;

  22759 31 010552   000010 235007                    LDA     8,DL
        31 010553   000240 755000 0                  STA     TYPE_DESC

     2268    22760    3          TYPE_DESC.DESC         = REPORT_DATA.DESC;

  22760 31 010554   000056 236000 0                  LDQ     REPORT_DATA+16
        31 010555   000241 756000 0                  STQ     TYPE_DESC+1

     2269    22761    3          TYPE_DESC.SIZ$         = ADDR(NIL);

  22761 31 010556   000005 236000 32                 LDQ     5
        31 010557   000242 756000 0                  STQ     TYPE_DESC+2

     2270    22762
     2271    22763    3          CALL Z8EC$NEW_CONST_WITH_TYPE_DESC (TYPE_DESC,

  22763 31 010560   000241 630400 32                 EPPR0   161
        31 010561   000006 631400 32                 EPPR1   6
        31 010562   000000 701000 xent               TSX1    Z8EC$NEW_CONST_WITH_TYPE_DESC
        31 010563   010565 702000 31                 TSX2    s:22781
        31 010564   010604 710000 31                 TRA     s:22802

     2272    22764    3                                              CONST$,
     2273    22765    3                                              RETURN_ETT$)
     2274    22766    3            WHENALTRETURN
     2275    22767    4              DO;

     2276    22768                     %CONDITIONAL_ERROR (@LX_ITEM$ = CONST$,
     2277    22769                                         @ERROR#   = %E$VALUE_OVERFLOW,
     2278    22770                                         @LINE     = CONST$ -> LX_ITEM.LINE,
     2279    22771                                         @COLUMN   = CONST$ -> LX_ITEM.COLUMN);

PL6.E3A0      #001=Z8DT$REPORT_REC File=Z8DT.:Z8A6TSI                            SAT 08/09/97 11:22 Page:356
  22781 31 010565   000237 470400 0                  LDP0    CONST$
        31 010566   000000 236100                    LDQ     0,,PR0
        31 010567   400000 316007                    CANQ    -131072,DL
        31 010570   010604 601000 31                 TNZ     s:22802

  22783 31 010571   000237 236000 0                  LDQ     CONST$
        31 010572   000006 036003                    ADLQ    6,DU
        31 010573   000304 756000 0                  STQ     FIRST_LINE_SHOWN+3
        31 010574   000237 236000 0                  LDQ     CONST$
        31 010575   000005 036003                    ADLQ    5,DU
        31 010576   000245 235000 32                 LDA     165
        31 010577   000302 757000 0                  STAQ    FIRST_LINE_SHOWN+1
        31 010600   000302 630400 0                  EPPR0   FIRST_LINE_SHOWN+1
        31 010601   000006 631400 32                 EPPR1   6
        31 010602   000000 701000 xent               TSX1    Z8AE$ERROR
        31 010603   000000 011000                    NOP     0

     2280    22801    4              END;

     2281    22802    3        END;

  22802 31 010604   010665 710000 31                 TRA     s:22863

     2282    22803    2      ELSE
     2283    22804    3        DO;

     2284    22805    3          TYPE_DESC.TYPE         = REPORT_DATA.TYPE;

  22805 31 010605   000047 235000 0                  LDA     REPORT_DATA+9
        31 010606   000240 755000 0                  STA     TYPE_DESC

     2285    22806    3          TYPE_DESC.DESC         = REPORT_DATA.DESC;

  22806 31 010607   000056 236000 0                  LDQ     REPORT_DATA+16
        31 010610   000241 756000 0                  STQ     TYPE_DESC+1

     2286    22807    3          IF TYPE_DESC.TYPE = %TYD THEN
PL6.E3A0      #001=Z8DT$REPORT_REC File=Z8DT.:Z8A6TSI                            SAT 08/09/97 11:22 Page:357

  22807 31 010611   000000 115003                    CMPA    0,DU
        31 010612   010615 601000 31                 TNZ     s:22810

     2287    22808    3            TYPE_DESC.DESC.NDSC.TN = %NDSC4;

  22808 31 010613   040000 236007                    LDQ     16384,DL
        31 010614   000241 256000 0                  ORSQ    TYPE_DESC+1

     2288    22809
     2289    22810    3          IF REPORT_DATA.B.LENGTH_4096 THEN

  22810 31 010615   000060 236000 0                  LDQ     REPORT_DATA+18
        31 010616   000020 316003                    CANQ    16,DU
        31 010617   010637 600000 31                 TZE     s:22820

     2290    22811    4            DO;

     2291    22812    4              IF REPORT_DATA.LTS$ -> LTS.ID = %LONG THEN

  22812 31 010620   000055 471400 0                  LDP1    REPORT_DATA+15
        31 010621   100000 220100                    LDX0    0,,PR1
        31 010622   001110 100003                    CMPX0   584,DU
        31 010623   010627 601000 31                 TNZ     s:22815

     2292    22813    4                MKCN.CON = REPORT_DATA.LTS$ -> LONG.LENGTH;

  22813 31 010624   100001 235100                    LDA     1,,PR1
        31 010625   000000 755000 21                 STA     MKCN
        31 010626   010632 710000 31                 TRA     s:22817

     2293    22814    4              ELSE
     2294    22815    4                MKCN.CON = REPORT_DATA.LTS$ -> LTSS.LONG$ -> LONG.LENGTH;

  22815 31 010627   100003 473500                    LDP3    3,,PR1
        31 010630   300001 235100                    LDA     1,,PR3
        31 010631   000000 755000 21                 STA     MKCN
PL6.E3A0      #001=Z8DT$REPORT_REC File=Z8DT.:Z8A6TSI                            SAT 08/09/97 11:22 Page:358

     2295    22816
     2296    22817    4              CALL Z8AC$MAKE_CONST (TYPE_DESC.SIZ$);

  22817 31 010632   000246 630400 32                 EPPR0   166
        31 010633   000036 631400 32                 EPPR1   30
        31 010634   000000 701000 xent               TSX1    Z8AC$MAKE_CONST
        31 010635   000000 011000                    NOP     0

     2297    22818    4            END;

  22818 31 010636   010641 710000 31                 TRA     s:22822

     2298    22819    3          ELSE
     2299    22820    3            TYPE_DESC.SIZ$ = ADDR(NIL);

  22820 31 010637   000005 236000 32                 LDQ     5
        31 010640   000242 756000 0                  STQ     TYPE_DESC+2

     2300    22821
     2301    22822    3          CALL Z8EC$NEW_CONST_WITH_TYPE_DESC (TYPE_DESC,

  22822 31 010641   000241 630400 32                 EPPR0   161
        31 010642   000006 631400 32                 EPPR1   6
        31 010643   000000 701000 xent               TSX1    Z8EC$NEW_CONST_WITH_TYPE_DESC
        31 010644   010646 702000 31                 TSX2    s:22840
        31 010645   010665 710000 31                 TRA     s:22863

     2302    22823    3                                              CONST$,
     2303    22824    3                                              RETURN_ETT$)
     2304    22825    3            WHENALTRETURN
     2305    22826    4              DO;

     2306    22827                     %CONDITIONAL_ERROR (@LX_ITEM$ = CONST$,
     2307    22828                                         @ERROR#   = %E$VALUE_OVERFLOW,
     2308    22829                                         @LINE     = CONST$ -> LX_ITEM.LINE,
     2309    22830                                         @COLUMN   = CONST$ -> LX_ITEM.COLUMN);
PL6.E3A0      #001=Z8DT$REPORT_REC File=Z8DT.:Z8A6TSI                            SAT 08/09/97 11:22 Page:359

  22840 31 010646   000237 470400 0                  LDP0    CONST$
        31 010647   000000 236100                    LDQ     0,,PR0
        31 010650   400000 316007                    CANQ    -131072,DL
        31 010651   010665 601000 31                 TNZ     s:22863

  22842 31 010652   000237 236000 0                  LDQ     CONST$
        31 010653   000006 036003                    ADLQ    6,DU
        31 010654   000304 756000 0                  STQ     FIRST_LINE_SHOWN+3
        31 010655   000237 236000 0                  LDQ     CONST$
        31 010656   000005 036003                    ADLQ    5,DU
        31 010657   000245 235000 32                 LDA     165
        31 010660   000302 757000 0                  STAQ    FIRST_LINE_SHOWN+1
        31 010661   000302 630400 0                  EPPR0   FIRST_LINE_SHOWN+1
        31 010662   000006 631400 32                 EPPR1   6
        31 010663   000000 701000 xent               TSX1    Z8AE$ERROR
        31 010664   000000 011000                    NOP     0

     2310    22860    4              END;

     2311    22861    3        END; /* REPORT_DATA.B.CLASS ~= %CLASS_NUMERIC_EDITED */

     2312    22862
     2313    22863    2      LTS$$ -> REPORT_ELEM_LTS.VALUE_ETT$ = RETURN_ETT$;

  22863 31 010665   000235 470400 0                  LDP0    @LTS$$
        31 010666   000000 471500                    LDP1    0,,PR0
        31 010667   000236 236000 0                  LDQ     RETURN_ETT$
        31 010670   100013 756100                    STQ     11,,PR1

     2314    22864
     2315    22865
     2316    22866
     2317    22867    2   END PROCESS_VALUE;

  22867 31 010671   000234 221200 0                  LDX1  ! @LEVEL#+1
        31 010672   000001 702211                    TSX2  ! 1,X1
PL6.E3A0      #001=Z8DT$REPORT_REC File=Z8DT.:Z8A6TSI                            SAT 08/09/97 11:22 Page:360

     2318    22868        %EJECT;
PL6.E3A0      #001=Z8DT$REPORT_REC File=Z8DT.:Z8A6TSI                            SAT 08/09/97 11:22 Page:361
     2319    22869
     2320    22870         /*==============*/
     2321    22871    1      PROCESS_SOURCE:  PROC (LTS$$);

  22871 31 010673   000244 741200 0     PROCESS_SOU* STX1  ! TYPE_DESC+4

     2322    22872         /*==============*/
     2323    22873         /*
     2324    22874               NAME: PROCESS_SOURCE
     2325    22875
     2326    22876           DESCRIPTION: This routine save the information of the SOURCE
     2327    22877                        clause on the DEFERED_IDENTIFIER and chain it on
     2328    22878                        the O1COM.REPORT_SOURCE$, the defered process
     2329    22879                        will be done by Z8ET$DEFERED_SUM_AND_SOURCE.
     2330    22880         */
     2331    22881
     2332    22882
     2333    22883    2      DCL LTS$$       PTR;
     2334    22884    2      DCL DEFERED_ID$ PTR;
     2335    22885
     2336    22886
     2337    22887
     2338    22888    2      CALL Z8ED$NEW_HEAP (DEFERED_ID$, %LENGTH_LX_ITEM);

  22888 31 010674   000247 630400 32                 EPPR0   167
        31 010675   000001 631400 32                 EPPR1   1
        31 010676   000000 701000 xent               TSX1    Z8ED$NEW_HEAP
        31 010677   000000 011000                    NOP     0

     2339    22889
     2340    22890           %INIT_DEFERED_IDENTIFIER (@POINTER = DEFERED_ID$,
     2341    22891                                     @DEFERED_ID$ = CDECL$ -> LX_REPORT_REC.P.SOURCE$,
     2342    22892                                     @ASSOC_VAR_LTS$ = LTS$$,
     2343    22893                                     @ASSOC_REPORT_LTS$ = O1COM.CURRENT_REPORT_LTS$,
     2344    22894                                     @LINK = O1COM.REPORT_SOURCE$);

  22896 31 010700   000030 220003                    LDX0    24,DU
PL6.E3A0      #001=Z8DT$REPORT_REC File=Z8DT.:Z8A6TSI                            SAT 08/09/97 11:22 Page:362
        31 010701   000246 470400 0                  LDP0    DEFERED_ID$
        31 010702   000000 740100                    STX0    0,,PR0

  22897 31 010703   000032 470400 0                  LDP0    CDECL$
        31 010704   000021 236100                    LDQ     17,,PR0
        31 010705   000246 471400 0                  LDP1    DEFERED_ID$
        31 010706   100001 756100                    STQ     1,,PR1

  22898 31 010707   000245 471400 0                  LDP1    @LTS$$
        31 010710   100000 236100                    LDQ     0,,PR1
        31 010711   000246 473400 0                  LDP3    DEFERED_ID$
        31 010712   300002 756100                    STQ     2,,PR3

  22899 31 010713   000064 236000 xsym               LDQ     O1COM+52
        31 010714   000246 473400 0                  LDP3    DEFERED_ID$
        31 010715   300003 756100                    STQ     3,,PR3

  22900 31 010716   000133 235000 xsym               LDA     COMCOM+91
        31 010717   000246 473400 0                  LDP3    DEFERED_ID$
        31 010720   300005 755100                    STA     5,,PR3

  22901 31 010721   000134 235000 xsym               LDA     COMCOM+92
        31 010722   000246 473400 0                  LDP3    DEFERED_ID$
        31 010723   300006 755100                    STA     6,,PR3

  22902 31 010724   000066 236000 xsym               LDQ     O1COM+54
        31 010725   000246 473400 0                  LDP3    DEFERED_ID$
        31 010726   300007 756100                    STQ     7,,PR3

  22903 31 010727   000000 221003                    LDX1    0,DU
        31 010730   000246 473400 0                  LDP3    DEFERED_ID$
        31 010731   300000 441100                    SXL1    0,,PR3

  22904 31 010732   000246 473400 0                  LDP3    DEFERED_ID$
        31 010733   000201 236000 32                 LDQ     129
        31 010734   300000 356100                    ANSQ    0,,PR3

PL6.E3A0      #001=Z8DT$REPORT_REC File=Z8DT.:Z8A6TSI                            SAT 08/09/97 11:22 Page:363
     2345    22907
     2346    22908    2      O1COM.REPORT_SOURCE$ = DEFERED_ID$;

  22908 31 010735   000246 236000 0                  LDQ     DEFERED_ID$
        31 010736   000066 756000 xsym               STQ     O1COM+54

     2347    22909    2      LTS$$ -> REPORT_ELEM_LTS.B.SOURCE_PRESENTED = TRUE;

  22909 31 010737   100000 473500                    LDP3    0,,PR1
        31 010740   100000 236007                    LDQ     32768,DL
        31 010741   300000 256100                    ORSQ    0,,PR3

     2348    22910    2      CDECL$ -> LX_REPORT_REC.P.SOURCE$ = ADDR(NIL);

  22910 31 010742   000005 236000 32                 LDQ     5
        31 010743   000021 756100                    STQ     17,,PR0

     2349    22911
     2350    22912    2    END PROCESS_SOURCE;

  22912 31 010744   000244 221200 0                  LDX1  ! TYPE_DESC+4
        31 010745   000001 702211                    TSX2  ! 1,X1

     2351    22913         %EJECT;
PL6.E3A0      #001=Z8DT$REPORT_REC File=Z8DT.:Z8A6TSI                            SAT 08/09/97 11:22 Page:364
     2352    22914
     2353    22915         /*===========*/
     2354    22916    1      PROCESS_SUM:  PROC (LTS$$);

  22916 31 010746   000247 741200 0     PROCESS_SUM  STX1  ! DEFERED_ID$+1

     2355    22917         /*===========*/
     2356    22918         /*
     2357    22919               NAME: PROCESS_SUM
     2358    22920
     2359    22921           DESCRIPTION: This routine save the information of the SUM
     2360    22922                        clause on the DEFERED_SUM_CLAUSE_LIST and chain it on
     2361    22923                        the O1COM.REPORT_SUM$, the defered process
     2362    22924                        will be done by Z8ET$DEFERED_SUM_AND_SOURCE.
     2363    22925         */
     2364    22926
     2365    22927
     2366    22928    2      DCL LTS$$       PTR;
     2367    22929    2      DCL LIST$$      PTR;
     2368    22930
     2369    22931
     2370    22932
     2371    22933    2      CALL Z8ED$NEW_HEAP (LIST$$, %LENGTH_LX_ITEM);

  22933 31 010747   000251 630400 32                 EPPR0   169
        31 010750   000001 631400 32                 EPPR1   1
        31 010751   000000 701000 xent               TSX1    Z8ED$NEW_HEAP
        31 010752   000000 011000                    NOP     0

     2372    22934
     2373    22935           %INIT_DEFERED_SUM_CLAUSE_LIST (@POINTER = LIST$$,
     2374    22936                                     @SUM_CLAUSE_LIST$ = CDECL$ -> LX_REPORT_REC.P.SUM$,
     2375    22937                                     @ASSOC_VAR_LTS$ = LTS$$,
     2376    22938                                     @ASSOC_REPORT_LTS$ = O1COM.CURRENT_REPORT_LTS$,
     2377    22939                                     @ASSOC_01_LTS$ = "REP_STK.LTS$(1)",
     2378    22940                                     @LINK = O1COM.REPORT_SUM$);

PL6.E3A0      #001=Z8DT$REPORT_REC File=Z8DT.:Z8A6TSI                            SAT 08/09/97 11:22 Page:365
  22942 31 010753   000031 220003                    LDX0    25,DU
        31 010754   000251 470400 0                  LDP0    LIST$$
        31 010755   000000 740100                    STX0    0,,PR0

  22943 31 010756   000032 470400 0                  LDP0    CDECL$
        31 010757   000022 236100                    LDQ     18,,PR0
        31 010760   000251 471400 0                  LDP1    LIST$$
        31 010761   100001 756100                    STQ     1,,PR1

  22944 31 010762   000250 471400 0                  LDP1    @LTS$$
        31 010763   100000 236100                    LDQ     0,,PR1
        31 010764   000251 473400 0                  LDP3    LIST$$
        31 010765   300002 756100                    STQ     2,,PR3

  22945 31 010766   000064 236000 xsym               LDQ     O1COM+52
        31 010767   000251 473400 0                  LDP3    LIST$$
        31 010770   300003 756100                    STQ     3,,PR3

  22946 31 010771   000006 236000 xsym               LDQ     REP_STK+6
        31 010772   000251 473400 0                  LDP3    LIST$$
        31 010773   300004 756100                    STQ     4,,PR3

  22947 31 010774   000000 221003                    LDX1    0,DU
        31 010775   000251 473400 0                  LDP3    LIST$$
        31 010776   300000 441100                    SXL1    0,,PR3

  22948 31 010777   000251 473400 0                  LDP3    LIST$$
        31 011000   000201 236000 32                 LDQ     129
        31 011001   300000 356100                    ANSQ    0,,PR3

  22949 31 011002   000133 235000 xsym               LDA     COMCOM+91
        31 011003   000251 473400 0                  LDP3    LIST$$
        31 011004   300005 755100                    STA     5,,PR3

  22950 31 011005   000134 235000 xsym               LDA     COMCOM+92
        31 011006   000251 473400 0                  LDP3    LIST$$
        31 011007   300006 755100                    STA     6,,PR3
PL6.E3A0      #001=Z8DT$REPORT_REC File=Z8DT.:Z8A6TSI                            SAT 08/09/97 11:22 Page:366

  22951 31 011010   000070 236000 xsym               LDQ     O1COM+56
        31 011011   000251 473400 0                  LDP3    LIST$$
        31 011012   300007 756100                    STQ     7,,PR3

     2379    22954
     2380    22955    2      O1COM.REPORT_SUM$ = LIST$$;

  22955 31 011013   000251 236000 0                  LDQ     LIST$$
        31 011014   000070 756000 xsym               STQ     O1COM+56

     2381    22956    2      LTS$$ -> REPORT_ELEM_LTS.B.SUM_PRESENTED = TRUE;

  22956 31 011015   100000 473500                    LDP3    0,,PR1
        31 011016   040000 236007                    LDQ     16384,DL
        31 011017   300000 256100                    ORSQ    0,,PR3

     2382    22957    2      LTS$$ -> REPORT_ELEM_LTS.ST$ -> SCALAR.B.SUM_COUNTER = TRUE;

  22957 31 011020   100000 473500                    LDP3    0,,PR1
        31 011021   300003 474500                    LDP4    3,,PR3
        31 011022   004000 236007                    LDQ     2048,DL
        31 011023   400003 256100                    ORSQ    3,,PR4

     2383    22958    2      CDECL$ -> LX_REPORT_REC.P.SUM$ = ADDR(NIL);

  22958 31 011024   000005 236000 32                 LDQ     5
        31 011025   000022 756100                    STQ     18,,PR0

     2384    22959    2      CALL CREATE_SUM_COUNTER (LTS$$);

  22959 31 011026   000250 236000 0                  LDQ     @LTS$$
        31 011027   000253 756000 0                  STQ     LIST$$+2
        31 011030   011034 701000 31                 TSX1    CREATE_SUM_COUNTER
        31 011031   000000 011000                    NOP     0

     2385    22960
PL6.E3A0      #001=Z8DT$REPORT_REC File=Z8DT.:Z8A6TSI                            SAT 08/09/97 11:22 Page:367
     2386    22961    2    END PROCESS_SUM;

  22961 31 011032   000247 221200 0                  LDX1  ! DEFERED_ID$+1
        31 011033   000001 702211                    TSX2  ! 1,X1

     2387    22962         %EJECT;
PL6.E3A0      #001=Z8DT$REPORT_REC File=Z8DT.:Z8A6TSI                            SAT 08/09/97 11:22 Page:368
     2388    22963
     2389    22964
     2390    22965         /*==================*/
     2391    22966    1      CREATE_SUM_COUNTER: PROC (LTS$$);

  22966 31 011034   000252 741200 0     CREATE_SUM_* STX1  ! LIST$$+1

     2392    22967         /*==================*/
     2393    22968         /*
     2394    22969               NAME: CREATE_SUM_COUNTER
     2395    22970
     2396    22971           DESCRIPTION: Because the sum counter must be numeric data
     2397    22972                        item that will be able to add to other sum counter
     2398    22973                        or as a addend, but the PIC string specified for
     2399    22974                        this sum counter may be anything, so we need to
     2400    22975                        create another ST item that is a numeric item.
     2401    22976         */
     2402    22977
     2403    22978
     2404    22979    2      DCL LTS$$               PTR;
     2405    22980    2      DCL ST$$                PTR;
     2406    22981    2      DCL SUM_LTS$$           PTR;
     2407    22982    2      DCL LENGTH              SBIN WORD;
     2408    22983    2      DCL DN$                 PTR;
     2409    22984
     2410    22985
     2411    22986
     2412    22987         %MACRO  FILL_SUM_LTS;
     2413    22988           DO;
     2414    22989             %NEW_SUM_LTS (@POINTER = SUM_LTS$$,
     2415    22990                           @REPORT_LTS$ = O1COM.CURRENT_REPORT_LTS$,
     2416    22991                           @REPORT_01_LTS$ = "REP_STK.LTS$(1)",
     2417    22992                           @EDIT_ST$ = LTS$$ -> REPORT_ELEM_LTS.ST$);
     2418    22993
     2419    22994               CALL Z8AF$NEW_BASE (SUM_LTS$$ -> SUM_LTS.EDIT_ST$,
     2420    22995                                   ADDR(NIL),
     2421    22996                                   SUM_LTS$$ -> SUM_LTS.EDIT_ST_ILL$ );
PL6.E3A0      #001=Z8DT$REPORT_REC File=Z8DT.:Z8A6TSI                            SAT 08/09/97 11:22 Page:369
     2422    22997           END;
     2423    22998         %MEND;
     2424    22999         %EJECT;
PL6.E3A0      #001=Z8DT$REPORT_REC File=Z8DT.:Z8A6TSI                            SAT 08/09/97 11:22 Page:370
     2425    23000
     2426    23001         %MACRO NEW_SUM_LTS_ST;
     2427    23002           DO;
     2428    23003               %FILL_SUM_LTS;
     2429    23004               %RESERVE_ST (POINTER = ST$$);
     2430    23005               ST$$ -> SCALAR = LTS$$ -> REPORT_ELEM_LTS.ST$ -> SCALAR;
     2431    23006               IF ST$$ -> SCALAR.DNT$ -> DNT.RW_NO ~= %RSV_WRD_FILLER THEN
     2432    23007                   ST$$ -> SCALAR.DNT$ -> DNT.ST$ = ST$$;
     2433    23008               SUM_LTS$$ -> SUM_LTS.SUM_ST$ = ST$$;
     2434    23009           END;
     2435    23010         %MEND;
     2436    23011
     2437    23012         %MACRO SUM_QLT_AND_ILL;
     2438    23013           DO;
     2439    23014               %NEW_QLT (@POINTER = ST$$ -> SCALAR.QLT$,
     2440    23015                         @ST$     = ST$$,
     2441    23016                         @DNT$    = ST$$ -> SCALAR.DNT$,
     2442    23017                         @FATHER  = LTS$$ -> REPORT_ELEM_LTS.QLT$ -> QLT.FATHER,
     2443    23018                         @LEVEL#  = REPORT_DATA.LEVEL.CURRENT);
     2444    23019
     2445    23020               LTS$$ -> REPORT_ELEM_LTS.QLT$ -> QLT.BROTHER = ST$$ -> SCALAR.QLT$;
     2446    23021               LTS$$ -> REPORT_ELEM_LTS.QLT$ = ST$$ -> SCALAR.QLT$;
     2447    23022               LTS$$ -> REPORT_ELEM_LTS.ST$ = ST$$;
     2448    23023
     2449    23024               CALL Z8AF$NEW_BASE (SUM_LTS$$ -> SUM_LTS.SUM_ST$,
     2450    23025                                   ADDR(NIL),
     2451    23026                                   SUM_LTS$$ -> SUM_LTS.SUM_ST_ILL$ );
     2452    23027           END;
     2453    23028         %MEND;
     2454    23029
     2455    23030
     2456    23031         %EJECT;
PL6.E3A0      #001=Z8DT$REPORT_REC File=Z8DT.:Z8A6TSI                            SAT 08/09/97 11:22 Page:371
     2457    23032
     2458    23033    2      LTS$$ -> REPORT_ELEM_LTS.ST$ -> SCALAR.B.SUM_COUNTER = TRUE;

  23033 31 011035   000253 470400 0                  LDP0    @LTS$$
        31 011036   000000 471500                    LDP1    0,,PR0
        31 011037   100003 473500                    LDP3    3,,PR1
        31 011040   004000 236007                    LDQ     2048,DL
        31 011041   300003 256100                    ORSQ    3,,PR3

     2459    23034
     2460    23035    3      DO CASE (PIC_OUT.TYPE);

  23035 31 011042   000002 220000 28                 LDX0    PIC_OUT+2
        31 011043   000007 100003                    CMPX0   7,DU
        31 011044   011046 602010 31                 TNC     s:23035+4,X0
        31 011045   012434 710000 31                 TRA     s:23751
        31 011046   012434 710000 31                 TRA     s:23751
        31 011047   011325 710000 31                 TRA     s:23208
        31 011050   011325 710000 31                 TRA     s:23208
        31 011051   011325 710000 31                 TRA     s:23208
        31 011052   012133 710000 31                 TRA     s:23571
        31 011053   011055 710000 31                 TRA     s:23124
        31 011054   011647 710000 31                 TRA     s:23484

     2461    23036    3        CASE (%PIC_TY_N);

     2462    23037
     2463    23038               %NEW_SUM_LTS_ST;

  23124 31 011055   000002 236000 8                  LDQ     LTS_+2
        31 011056   000007 036007                    ADLQ    7,DL
        31 011057   000003 116000 8                  CMPQ    LTS_+3
        31 011060   011071 604000 31                 TMI     s:23126

  23125 31 011061   000147 236000 32                 LDQ     103
        31 011062   000302 756000 0                  STQ     FIRST_LINE_SHOWN+1
        31 011063   000302 631400 0                  EPPR1   FIRST_LINE_SHOWN+1
PL6.E3A0      #001=Z8DT$REPORT_REC File=Z8DT.:Z8A6TSI                            SAT 08/09/97 11:22 Page:372
        31 011064   000303 451400 0                  STP1    FIRST_LINE_SHOWN+2
        31 011065   000303 630400 0                  EPPR0   FIRST_LINE_SHOWN+2
        31 011066   000036 631400 32                 EPPR1   30
        31 011067   000000 701000 xent               TSX1    Z8AR$RESERVER
        31 011070   000000 011000                    NOP     0

  23126 31 011071   000002 236000 8                  LDQ     LTS_+2
        31 011072   000022 736000                    QLS     18
        31 011073   000001 036000 8                  ADLQ    LTS_+1
        31 011074   000255 756000 0                  STQ     SUM_LTS$$

  23127 31 011075   000007 236007                    LDQ     7,DL
        31 011076   000002 056000 8                  ASQ     LTS_+2

  23128 31 011077   001076 220003                    LDX0    574,DU
        31 011100   000255 470400 0                  LDP0    SUM_LTS$$
        31 011101   000000 740100                    STX0    0,,PR0

  23134 31 011102   000000 740100                    STX0    0,,PR0

  23135 31 011103   000253 471400 0                  LDP1    @LTS$$
        31 011104   100000 473500                    LDP3    0,,PR1
        31 011105   300003 236100                    LDQ     3,,PR3
        31 011106   000001 756100                    STQ     1,,PR0

  23136 31 011107   000064 236000 xsym               LDQ     O1COM+52
        31 011110   000005 756100                    STQ     5,,PR0

  23137 31 011111   000006 236000 xsym               LDQ     REP_STK+6
        31 011112   000006 756100                    STQ     6,,PR0

  23138 31 011113   000005 236000 32                 LDQ     5
        31 011114   000004 756100                    STQ     4,,PR0

  23139 31 011115   000000 221003                    LDX1    0,DU
        31 011116   000000 441100                    SXL1    0,,PR0

PL6.E3A0      #001=Z8DT$REPORT_REC File=Z8DT.:Z8A6TSI                            SAT 08/09/97 11:22 Page:373
  23140 31 011117   000005 236000 32                 LDQ     5
        31 011120   000002 756100                    STQ     2,,PR0

  23143 31 011121   000005 236000 32                 LDQ     5
        31 011122   000302 756000 0                  STQ     FIRST_LINE_SHOWN+1
        31 011123   000255 236000 0                  LDQ     SUM_LTS$$
        31 011124   000002 036003                    ADLQ    2,DU
        31 011125   000305 756000 0                  STQ     FIRST_LINE_SHOWN+4
        31 011126   000302 633400 0                  EPPR3   FIRST_LINE_SHOWN+1
        31 011127   000304 453400 0                  STP3    FIRST_LINE_SHOWN+3
        31 011130   000255 236000 0                  LDQ     SUM_LTS$$
        31 011131   000001 036003                    ADLQ    1,DU
        31 011132   000303 756000 0                  STQ     FIRST_LINE_SHOWN+2
        31 011133   000303 630400 0                  EPPR0   FIRST_LINE_SHOWN+2
        31 011134   000006 631400 32                 EPPR1   6
        31 011135   000000 701000 xent               TSX1    Z8AF$NEW_BASE
        31 011136   000000 011000                    NOP     0

  23150 31 011137   000002 236000 3                  LDQ     ST_+2
        31 011140   000013 036007                    ADLQ    11,DL
        31 011141   000003 116000 3                  CMPQ    ST_+3
        31 011142   011153 604000 31                 TMI     s:23152

  23151 31 011143   000176 236000 32                 LDQ     126
        31 011144   000302 756000 0                  STQ     FIRST_LINE_SHOWN+1
        31 011145   000302 630400 0                  EPPR0   FIRST_LINE_SHOWN+1
        31 011146   000303 450400 0                  STP0    FIRST_LINE_SHOWN+2
        31 011147   000303 630400 0                  EPPR0   FIRST_LINE_SHOWN+2
        31 011150   000036 631400 32                 EPPR1   30
        31 011151   000000 701000 xent               TSX1    Z8AR$RESERVER
        31 011152   000000 011000                    NOP     0

  23152 31 011153   000002 236000 3                  LDQ     ST_+2
        31 011154   000022 736000                    QLS     18
        31 011155   000001 036000 3                  ADLQ    ST_+1
        31 011156   000254 756000 0                  STQ     ST$$

PL6.E3A0      #001=Z8DT$REPORT_REC File=Z8DT.:Z8A6TSI                            SAT 08/09/97 11:22 Page:374
  23153 31 011157   000013 236007                    LDQ     11,DL
        31 011160   000002 056000 3                  ASQ     ST_+2

  23156 31 011161   000253 470400 0                  LDP0    @LTS$$
        31 011162   000000 471500                    LDP1    0,,PR0
        31 011163   100003 473500                    LDP3    3,,PR1
        31 011164   000254 474400 0                  LDP4    ST$$
        31 011165   000100 100500                    MLR     fill='000'O
        31 011166   300000 000054                    ADSC9   0,,PR3                   cn=0,n=44
        31 011167   400000 000054                    ADSC9   0,,PR4                   cn=0,n=44

  23157 31 011170   400006 471500                    LDP1    6,,PR4
        31 011171   100003 720100                    LXL0    3,,PR1
        31 011172   000320 100003                    CMPX0   208,DU
        31 011173   011176 600000 31                 TZE     s:23159

  23158 31 011174   000254 236000 0                  LDQ     ST$$
        31 011175   100001 756100                    STQ     1,,PR1

  23159 31 011176   000254 236000 0                  LDQ     ST$$
        31 011177   000255 471400 0                  LDP1    SUM_LTS$$
        31 011200   100003 756100                    STQ     3,,PR1

     2464    23162
     2465    23163               %SUM_QLT_AND_ILL;

  23174 31 011201   000002 236000 6                  LDQ     QLT_+2
        31 011202   000006 036007                    ADLQ    6,DL
        31 011203   000003 116000 6                  CMPQ    QLT_+3
        31 011204   011215 602000 31                 TNC     s:23176

  23175 31 011205   000200 236000 32                 LDQ     128
        31 011206   000302 756000 0                  STQ     FIRST_LINE_SHOWN+1
        31 011207   000302 633400 0                  EPPR3   FIRST_LINE_SHOWN+1
        31 011210   000303 453400 0                  STP3    FIRST_LINE_SHOWN+2
        31 011211   000303 630400 0                  EPPR0   FIRST_LINE_SHOWN+2
        31 011212   000036 631400 32                 EPPR1   30
PL6.E3A0      #001=Z8DT$REPORT_REC File=Z8DT.:Z8A6TSI                            SAT 08/09/97 11:22 Page:375
        31 011213   000000 701000 xent               TSX1    Z8AR$RESERVER
        31 011214   000000 011000                    NOP     0

  23176 31 011215   000002 236000 6                  LDQ     QLT_+2
        31 011216   000022 736000                    QLS     18
        31 011217   000001 036000 6                  ADLQ    QLT_+1
        31 011220   000254 470400 0                  LDP0    ST$$
        31 011221   000007 756100                    STQ     7,,PR0

  23177 31 011222   000002 235000 6                  LDA     QLT_+2
        31 011223   000006 035007                    ADLA    6,DL
        31 011224   000002 755000 6                  STA     QLT_+2

  23178 31 011225   000007 471500                    LDP1    7,,PR0
        31 011226   001053 220003                    LDX0    555,DU
        31 011227   100000 740100                    STX0    0,,PR1

  23181 31 011230   000007 471500                    LDP1    7,,PR0
        31 011231   000253 473400 0                  LDP3    @LTS$$
        31 011232   300000 474500                    LDP4    0,,PR3
        31 011233   400004 475500                    LDP5    4,,PR4
        31 011234   500001 236100                    LDQ     1,,PR5
        31 011235   100001 756100                    STQ     1,,PR1

  23182 31 011236   000007 471500                    LDP1    7,,PR0
        31 011237   000005 236000 32                 LDQ     5
        31 011240   100002 756100                    STQ     2,,PR1

  23183 31 011241   000007 471500                    LDP1    7,,PR0
        31 011242   000005 236000 32                 LDQ     5
        31 011243   100003 756100                    STQ     3,,PR1

  23184 31 011244   000007 471500                    LDP1    7,,PR0
        31 011245   000254 236000 0                  LDQ     ST$$
        31 011246   100004 756100                    STQ     4,,PR1

  23185 31 011247   000007 471500                    LDP1    7,,PR0
PL6.E3A0      #001=Z8DT$REPORT_REC File=Z8DT.:Z8A6TSI                            SAT 08/09/97 11:22 Page:376
        31 011250   000006 236100                    LDQ     6,,PR0
        31 011251   100005 756100                    STQ     5,,PR1

  23186 31 011252   000007 471500                    LDP1    7,,PR0
        31 011253   000036 236000 0                  LDQ     REPORT_DATA
        31 011254   100000 552104                    STBQ    0,'04'O,PR1

  23187 31 011255   000007 471500                    LDP1    7,,PR0
        31 011256   000000 236003                    LDQ     0,DU
        31 011257   100000 552110                    STBQ    0,'10'O,PR1

  23188 31 011260   000007 471500                    LDP1    7,,PR0
        31 011261   000201 236000 32                 LDQ     129
        31 011262   100000 356100                    ANSQ    0,,PR1

  23189 31 011263   000007 471500                    LDP1    7,,PR0
        31 011264   000202 236000 32                 LDQ     130
        31 011265   100000 356100                    ANSQ    0,,PR1

  23190 31 011266   000007 471500                    LDP1    7,,PR0
        31 011267   000171 236000 32                 LDQ     121
        31 011270   100000 356100                    ANSQ    0,,PR1

  23191 31 011271   000007 471500                    LDP1    7,,PR0
        31 011272   000160 236000 32                 LDQ     112
        31 011273   100000 356100                    ANSQ    0,,PR1

  23194 31 011274   300000 471500                    LDP1    0,,PR3
        31 011275   100004 474500                    LDP4    4,,PR1
        31 011276   000007 236100                    LDQ     7,,PR0
        31 011277   400002 756100                    STQ     2,,PR4

  23195 31 011300   300000 471500                    LDP1    0,,PR3
        31 011301   000007 236100                    LDQ     7,,PR0
        31 011302   100004 756100                    STQ     4,,PR1

  23196 31 011303   300000 471500                    LDP1    0,,PR3
PL6.E3A0      #001=Z8DT$REPORT_REC File=Z8DT.:Z8A6TSI                            SAT 08/09/97 11:22 Page:377
        31 011304   000254 236000 0                  LDQ     ST$$
        31 011305   100003 756100                    STQ     3,,PR1

  23197 31 011306   000005 236000 32                 LDQ     5
        31 011307   000302 756000 0                  STQ     FIRST_LINE_SHOWN+1
        31 011310   000255 236000 0                  LDQ     SUM_LTS$$
        31 011311   000004 036003                    ADLQ    4,DU
        31 011312   000305 756000 0                  STQ     FIRST_LINE_SHOWN+4
        31 011313   000302 631400 0                  EPPR1   FIRST_LINE_SHOWN+1
        31 011314   000304 451400 0                  STP1    FIRST_LINE_SHOWN+3
        31 011315   000255 236000 0                  LDQ     SUM_LTS$$
        31 011316   000003 036003                    ADLQ    3,DU
        31 011317   000303 756000 0                  STQ     FIRST_LINE_SHOWN+2
        31 011320   000303 630400 0                  EPPR0   FIRST_LINE_SHOWN+2
        31 011321   000006 631400 32                 EPPR1   6
        31 011322   000000 701000 xent               TSX1    Z8AF$NEW_BASE
        31 011323   000000 011000                    NOP     0

  23200 31 011324   012442 710000 31                 TRA     s:23756

     2466    23202
     2467    23203    3        CASE (%PIC_TY_A, %PIC_TY_AN, %PIC_TY_K);

     2468    23204
     2469    23205               %GET_ADSC_LEN (ST$ = LTS$$ -> REPORT_ELEM_LTS.ST$,
     2470    23206                              RTN = LENGTH);

  23208 31 011325   000000 471500                    LDP1    0,,PR0
        31 011326   100003 473500                    LDP3    3,,PR1
        31 011327   300003 236100                    LDQ     3,,PR3
        31 011330   004000 316003                    CANQ    2048,DU
        31 011331   011345 600000 31                 TZE     s:23214

  23209 31 011332   300005 474500                    LDP4    5,,PR3
        31 011333   400000 221100                    LDX1    0,,PR4
        31 011334   001105 101003                    CMPX1   581,DU
        31 011335   011342 601000 31                 TNZ     s:23212
PL6.E3A0      #001=Z8DT$REPORT_REC File=Z8DT.:Z8A6TSI                            SAT 08/09/97 11:22 Page:378

  23210 31 011336   400003 475500                    LDP5    3,,PR4
        31 011337   500001 235100                    LDA     1,,PR5
        31 011340   000256 755000 0                  STA     LENGTH
        31 011341   011350 710000 31                 TRA     s:23218

  23212 31 011342   400001 235100                    LDA     1,,PR4
        31 011343   000256 755000 0                  STA     LENGTH
        31 011344   011350 710000 31                 TRA     s:23218

  23214 31 011345   300001 236100                    LDQ     1,,PR3
        31 011346   007777 376007                    ANQ     4095,DL
        31 011347   000256 756000 0                  STQ     LENGTH

     2471    23217
     2472    23218    3          IF LENGTH > %ANSI_MAX_DIGITS THEN

  23218 31 011350   000256 235000 0                  LDA     LENGTH
        31 011351   000022 115007                    CMPA    18,DL
        31 011352   011355 604400 31                 TMOZ    s:23307

     2473    23219    3              LENGTH = %ANSI_MAX_DIGITS;

  23219 31 011353   000022 236007                    LDQ     18,DL
        31 011354   000256 756000 0                  STQ     LENGTH

     2474    23220
     2475    23221                   %NEW_SUM_LTS_ST;

  23307 31 011355   000002 236000 8                  LDQ     LTS_+2
        31 011356   000007 036007                    ADLQ    7,DL
        31 011357   000003 116000 8                  CMPQ    LTS_+3
        31 011360   011371 604000 31                 TMI     s:23309

  23308 31 011361   000147 236000 32                 LDQ     103
        31 011362   000302 756000 0                  STQ     FIRST_LINE_SHOWN+1
        31 011363   000302 631400 0                  EPPR1   FIRST_LINE_SHOWN+1
PL6.E3A0      #001=Z8DT$REPORT_REC File=Z8DT.:Z8A6TSI                            SAT 08/09/97 11:22 Page:379
        31 011364   000303 451400 0                  STP1    FIRST_LINE_SHOWN+2
        31 011365   000303 630400 0                  EPPR0   FIRST_LINE_SHOWN+2
        31 011366   000036 631400 32                 EPPR1   30
        31 011367   000000 701000 xent               TSX1    Z8AR$RESERVER
        31 011370   000000 011000                    NOP     0

  23309 31 011371   000002 236000 8                  LDQ     LTS_+2
        31 011372   000022 736000                    QLS     18
        31 011373   000001 036000 8                  ADLQ    LTS_+1
        31 011374   000255 756000 0                  STQ     SUM_LTS$$

  23310 31 011375   000007 236007                    LDQ     7,DL
        31 011376   000002 056000 8                  ASQ     LTS_+2

  23311 31 011377   001076 220003                    LDX0    574,DU
        31 011400   000255 470400 0                  LDP0    SUM_LTS$$
        31 011401   000000 740100                    STX0    0,,PR0

  23317 31 011402   000000 740100                    STX0    0,,PR0

  23318 31 011403   000253 471400 0                  LDP1    @LTS$$
        31 011404   100000 473500                    LDP3    0,,PR1
        31 011405   300003 236100                    LDQ     3,,PR3
        31 011406   000001 756100                    STQ     1,,PR0

  23319 31 011407   000064 236000 xsym               LDQ     O1COM+52
        31 011410   000005 756100                    STQ     5,,PR0

  23320 31 011411   000006 236000 xsym               LDQ     REP_STK+6
        31 011412   000006 756100                    STQ     6,,PR0

  23321 31 011413   000005 236000 32                 LDQ     5
        31 011414   000004 756100                    STQ     4,,PR0

  23322 31 011415   000000 221003                    LDX1    0,DU
        31 011416   000000 441100                    SXL1    0,,PR0

PL6.E3A0      #001=Z8DT$REPORT_REC File=Z8DT.:Z8A6TSI                            SAT 08/09/97 11:22 Page:380
  23323 31 011417   000005 236000 32                 LDQ     5
        31 011420   000002 756100                    STQ     2,,PR0

  23326 31 011421   000005 236000 32                 LDQ     5
        31 011422   000302 756000 0                  STQ     FIRST_LINE_SHOWN+1
        31 011423   000255 236000 0                  LDQ     SUM_LTS$$
        31 011424   000002 036003                    ADLQ    2,DU
        31 011425   000305 756000 0                  STQ     FIRST_LINE_SHOWN+4
        31 011426   000302 633400 0                  EPPR3   FIRST_LINE_SHOWN+1
        31 011427   000304 453400 0                  STP3    FIRST_LINE_SHOWN+3
        31 011430   000255 236000 0                  LDQ     SUM_LTS$$
        31 011431   000001 036003                    ADLQ    1,DU
        31 011432   000303 756000 0                  STQ     FIRST_LINE_SHOWN+2
        31 011433   000303 630400 0                  EPPR0   FIRST_LINE_SHOWN+2
        31 011434   000006 631400 32                 EPPR1   6
        31 011435   000000 701000 xent               TSX1    Z8AF$NEW_BASE
        31 011436   000000 011000                    NOP     0

  23333 31 011437   000002 236000 3                  LDQ     ST_+2
        31 011440   000013 036007                    ADLQ    11,DL
        31 011441   000003 116000 3                  CMPQ    ST_+3
        31 011442   011453 604000 31                 TMI     s:23335

  23334 31 011443   000176 236000 32                 LDQ     126
        31 011444   000302 756000 0                  STQ     FIRST_LINE_SHOWN+1
        31 011445   000302 630400 0                  EPPR0   FIRST_LINE_SHOWN+1
        31 011446   000303 450400 0                  STP0    FIRST_LINE_SHOWN+2
        31 011447   000303 630400 0                  EPPR0   FIRST_LINE_SHOWN+2
        31 011450   000036 631400 32                 EPPR1   30
        31 011451   000000 701000 xent               TSX1    Z8AR$RESERVER
        31 011452   000000 011000                    NOP     0

  23335 31 011453   000002 236000 3                  LDQ     ST_+2
        31 011454   000022 736000                    QLS     18
        31 011455   000001 036000 3                  ADLQ    ST_+1
        31 011456   000254 756000 0                  STQ     ST$$

PL6.E3A0      #001=Z8DT$REPORT_REC File=Z8DT.:Z8A6TSI                            SAT 08/09/97 11:22 Page:381
  23336 31 011457   000013 236007                    LDQ     11,DL
        31 011460   000002 056000 3                  ASQ     ST_+2

  23339 31 011461   000253 470400 0                  LDP0    @LTS$$
        31 011462   000000 471500                    LDP1    0,,PR0
        31 011463   100003 473500                    LDP3    3,,PR1
        31 011464   000254 474400 0                  LDP4    ST$$
        31 011465   000100 100500                    MLR     fill='000'O
        31 011466   300000 000054                    ADSC9   0,,PR3                   cn=0,n=44
        31 011467   400000 000054                    ADSC9   0,,PR4                   cn=0,n=44

  23340 31 011470   400006 471500                    LDP1    6,,PR4
        31 011471   100003 720100                    LXL0    3,,PR1
        31 011472   000320 100003                    CMPX0   208,DU
        31 011473   011476 600000 31                 TZE     s:23342

  23341 31 011474   000254 236000 0                  LDQ     ST$$
        31 011475   100001 756100                    STQ     1,,PR1

  23342 31 011476   000254 236000 0                  LDQ     ST$$
        31 011477   000255 471400 0                  LDP1    SUM_LTS$$
        31 011500   100003 756100                    STQ     3,,PR1

     2476    23345
     2477    23346    3              ST$$ -> SCALAR.NDSC.TN = %NDSC9;

  23346 31 011501   000160 236000 32                 LDQ     112
        31 011502   400001 356100                    ANSQ    1,,PR4

     2478    23347    3              ST$$ -> SCALAR.NDSC.S = %NO_SIGN;

  23347 31 011503   030000 236007                    LDQ     12288,DL
        31 011504   400001 256100                    ORSQ    1,,PR4

     2479    23348    3              ST$$ -> SCALAR.NDSC.N = LENGTH;

  23348 31 011505   000256 236000 0                  LDQ     LENGTH
PL6.E3A0      #001=Z8DT$REPORT_REC File=Z8DT.:Z8A6TSI                            SAT 08/09/97 11:22 Page:382
        31 011506   400001 752101                    STCQ    1,'01'O,PR4

     2480    23349    3              ST$$ -> SCALAR.NDSC.SF = 0;

  23349 31 011507   000000 236003                    LDQ     0,DU
        31 011510   400001 752102                    STCQ    1,'02'O,PR4

     2481    23350    3              ST$$ -> SCALAR.NDSC.CN = 0;

  23350 31 011511   000157 236000 32                 LDQ     111
        31 011512   400001 356100                    ANSQ    1,,PR4

     2482    23351    3              ST$$ -> SCALAR.TYPE = %TYD;

  23351 31 011513   000000 220003                    LDX0    0,DU
        31 011514   400002 740100                    STX0    2,,PR4

     2483    23352    3              ST$$ -> SCALAR.B.CLASS = %CLASS_NUMERIC;

  23352 31 011515   400003 236100                    LDQ     3,,PR4
        31 011516   000253 376000 32                 ANQ     171
        31 011517   000001 276007                    ORQ     1,DL
        31 011520   400003 756100                    STQ     3,,PR4

     2484    23353    3              ST$$ -> SCALAR.B.JUSTIFIED = '0'B;

  23353 31 011521   000254 236000 32                 LDQ     172
        31 011522   400003 356100                    ANSQ    3,,PR4

     2485    23354
     2486    23355                   %SUM_QLT_AND_ILL;

  23366 31 011523   000002 236000 6                  LDQ     QLT_+2
        31 011524   000006 036007                    ADLQ    6,DL
        31 011525   000003 116000 6                  CMPQ    QLT_+3
        31 011526   011537 602000 31                 TNC     s:23368

PL6.E3A0      #001=Z8DT$REPORT_REC File=Z8DT.:Z8A6TSI                            SAT 08/09/97 11:22 Page:383
  23367 31 011527   000200 236000 32                 LDQ     128
        31 011530   000302 756000 0                  STQ     FIRST_LINE_SHOWN+1
        31 011531   000302 633400 0                  EPPR3   FIRST_LINE_SHOWN+1
        31 011532   000303 453400 0                  STP3    FIRST_LINE_SHOWN+2
        31 011533   000303 630400 0                  EPPR0   FIRST_LINE_SHOWN+2
        31 011534   000036 631400 32                 EPPR1   30
        31 011535   000000 701000 xent               TSX1    Z8AR$RESERVER
        31 011536   000000 011000                    NOP     0

  23368 31 011537   000002 236000 6                  LDQ     QLT_+2
        31 011540   000022 736000                    QLS     18
        31 011541   000001 036000 6                  ADLQ    QLT_+1
        31 011542   000254 470400 0                  LDP0    ST$$
        31 011543   000007 756100                    STQ     7,,PR0

  23369 31 011544   000002 235000 6                  LDA     QLT_+2
        31 011545   000006 035007                    ADLA    6,DL
        31 011546   000002 755000 6                  STA     QLT_+2

  23370 31 011547   000007 471500                    LDP1    7,,PR0
        31 011550   001053 220003                    LDX0    555,DU
        31 011551   100000 740100                    STX0    0,,PR1

  23373 31 011552   000007 471500                    LDP1    7,,PR0
        31 011553   000253 473400 0                  LDP3    @LTS$$
        31 011554   300000 474500                    LDP4    0,,PR3
        31 011555   400004 475500                    LDP5    4,,PR4
        31 011556   500001 236100                    LDQ     1,,PR5
        31 011557   100001 756100                    STQ     1,,PR1

  23374 31 011560   000007 471500                    LDP1    7,,PR0
        31 011561   000005 236000 32                 LDQ     5
        31 011562   100002 756100                    STQ     2,,PR1

  23375 31 011563   000007 471500                    LDP1    7,,PR0
        31 011564   000005 236000 32                 LDQ     5
        31 011565   100003 756100                    STQ     3,,PR1
PL6.E3A0      #001=Z8DT$REPORT_REC File=Z8DT.:Z8A6TSI                            SAT 08/09/97 11:22 Page:384

  23376 31 011566   000007 471500                    LDP1    7,,PR0
        31 011567   000254 236000 0                  LDQ     ST$$
        31 011570   100004 756100                    STQ     4,,PR1

  23377 31 011571   000007 471500                    LDP1    7,,PR0
        31 011572   000006 236100                    LDQ     6,,PR0
        31 011573   100005 756100                    STQ     5,,PR1

  23378 31 011574   000007 471500                    LDP1    7,,PR0
        31 011575   000036 236000 0                  LDQ     REPORT_DATA
        31 011576   100000 552104                    STBQ    0,'04'O,PR1

  23379 31 011577   000007 471500                    LDP1    7,,PR0
        31 011600   000000 236003                    LDQ     0,DU
        31 011601   100000 552110                    STBQ    0,'10'O,PR1

  23380 31 011602   000007 471500                    LDP1    7,,PR0
        31 011603   000201 236000 32                 LDQ     129
        31 011604   100000 356100                    ANSQ    0,,PR1

  23381 31 011605   000007 471500                    LDP1    7,,PR0
        31 011606   000202 236000 32                 LDQ     130
        31 011607   100000 356100                    ANSQ    0,,PR1

  23382 31 011610   000007 471500                    LDP1    7,,PR0
        31 011611   000171 236000 32                 LDQ     121
        31 011612   100000 356100                    ANSQ    0,,PR1

  23383 31 011613   000007 471500                    LDP1    7,,PR0
        31 011614   000160 236000 32                 LDQ     112
        31 011615   100000 356100                    ANSQ    0,,PR1

  23386 31 011616   300000 471500                    LDP1    0,,PR3
        31 011617   100004 474500                    LDP4    4,,PR1
        31 011620   000007 236100                    LDQ     7,,PR0
        31 011621   400002 756100                    STQ     2,,PR4
PL6.E3A0      #001=Z8DT$REPORT_REC File=Z8DT.:Z8A6TSI                            SAT 08/09/97 11:22 Page:385

  23387 31 011622   300000 471500                    LDP1    0,,PR3
        31 011623   000007 236100                    LDQ     7,,PR0
        31 011624   100004 756100                    STQ     4,,PR1

  23388 31 011625   300000 471500                    LDP1    0,,PR3
        31 011626   000254 236000 0                  LDQ     ST$$
        31 011627   100003 756100                    STQ     3,,PR1

  23389 31 011630   000005 236000 32                 LDQ     5
        31 011631   000302 756000 0                  STQ     FIRST_LINE_SHOWN+1
        31 011632   000255 236000 0                  LDQ     SUM_LTS$$
        31 011633   000004 036003                    ADLQ    4,DU
        31 011634   000305 756000 0                  STQ     FIRST_LINE_SHOWN+4
        31 011635   000302 631400 0                  EPPR1   FIRST_LINE_SHOWN+1
        31 011636   000304 451400 0                  STP1    FIRST_LINE_SHOWN+3
        31 011637   000255 236000 0                  LDQ     SUM_LTS$$
        31 011640   000003 036003                    ADLQ    3,DU
        31 011641   000303 756000 0                  STQ     FIRST_LINE_SHOWN+2
        31 011642   000303 630400 0                  EPPR0   FIRST_LINE_SHOWN+2
        31 011643   000006 631400 32                 EPPR1   6
        31 011644   000000 701000 xent               TSX1    Z8AF$NEW_BASE
        31 011645   000000 011000                    NOP     0

  23392 31 011646   012442 710000 31                 TRA     s:23756

     2487    23394
     2488    23395
     2489    23396    3        CASE (%PIC_TY_NE);

     2490    23397
     2491    23398               %NEW_SUM_LTS_ST;

  23484 31 011647   000002 236000 8                  LDQ     LTS_+2
        31 011650   000007 036007                    ADLQ    7,DL
        31 011651   000003 116000 8                  CMPQ    LTS_+3
        31 011652   011663 604000 31                 TMI     s:23486
PL6.E3A0      #001=Z8DT$REPORT_REC File=Z8DT.:Z8A6TSI                            SAT 08/09/97 11:22 Page:386

  23485 31 011653   000147 236000 32                 LDQ     103
        31 011654   000302 756000 0                  STQ     FIRST_LINE_SHOWN+1
        31 011655   000302 631400 0                  EPPR1   FIRST_LINE_SHOWN+1
        31 011656   000303 451400 0                  STP1    FIRST_LINE_SHOWN+2
        31 011657   000303 630400 0                  EPPR0   FIRST_LINE_SHOWN+2
        31 011660   000036 631400 32                 EPPR1   30
        31 011661   000000 701000 xent               TSX1    Z8AR$RESERVER
        31 011662   000000 011000                    NOP     0

  23486 31 011663   000002 236000 8                  LDQ     LTS_+2
        31 011664   000022 736000                    QLS     18
        31 011665   000001 036000 8                  ADLQ    LTS_+1
        31 011666   000255 756000 0                  STQ     SUM_LTS$$

  23487 31 011667   000007 236007                    LDQ     7,DL
        31 011670   000002 056000 8                  ASQ     LTS_+2

  23488 31 011671   001076 220003                    LDX0    574,DU
        31 011672   000255 470400 0                  LDP0    SUM_LTS$$
        31 011673   000000 740100                    STX0    0,,PR0

  23494 31 011674   000000 740100                    STX0    0,,PR0

  23495 31 011675   000253 471400 0                  LDP1    @LTS$$
        31 011676   100000 473500                    LDP3    0,,PR1
        31 011677   300003 236100                    LDQ     3,,PR3
        31 011700   000001 756100                    STQ     1,,PR0

  23496 31 011701   000064 236000 xsym               LDQ     O1COM+52
        31 011702   000005 756100                    STQ     5,,PR0

  23497 31 011703   000006 236000 xsym               LDQ     REP_STK+6
        31 011704   000006 756100                    STQ     6,,PR0

  23498 31 011705   000005 236000 32                 LDQ     5
        31 011706   000004 756100                    STQ     4,,PR0
PL6.E3A0      #001=Z8DT$REPORT_REC File=Z8DT.:Z8A6TSI                            SAT 08/09/97 11:22 Page:387

  23499 31 011707   000000 221003                    LDX1    0,DU
        31 011710   000000 441100                    SXL1    0,,PR0

  23500 31 011711   000005 236000 32                 LDQ     5
        31 011712   000002 756100                    STQ     2,,PR0

  23503 31 011713   000005 236000 32                 LDQ     5
        31 011714   000302 756000 0                  STQ     FIRST_LINE_SHOWN+1
        31 011715   000255 236000 0                  LDQ     SUM_LTS$$
        31 011716   000002 036003                    ADLQ    2,DU
        31 011717   000305 756000 0                  STQ     FIRST_LINE_SHOWN+4
        31 011720   000302 633400 0                  EPPR3   FIRST_LINE_SHOWN+1
        31 011721   000304 453400 0                  STP3    FIRST_LINE_SHOWN+3
        31 011722   000255 236000 0                  LDQ     SUM_LTS$$
        31 011723   000001 036003                    ADLQ    1,DU
        31 011724   000303 756000 0                  STQ     FIRST_LINE_SHOWN+2
        31 011725   000303 630400 0                  EPPR0   FIRST_LINE_SHOWN+2
        31 011726   000006 631400 32                 EPPR1   6
        31 011727   000000 701000 xent               TSX1    Z8AF$NEW_BASE
        31 011730   000000 011000                    NOP     0

  23510 31 011731   000002 236000 3                  LDQ     ST_+2
        31 011732   000013 036007                    ADLQ    11,DL
        31 011733   000003 116000 3                  CMPQ    ST_+3
        31 011734   011745 604000 31                 TMI     s:23512

  23511 31 011735   000176 236000 32                 LDQ     126
        31 011736   000302 756000 0                  STQ     FIRST_LINE_SHOWN+1
        31 011737   000302 630400 0                  EPPR0   FIRST_LINE_SHOWN+1
        31 011740   000303 450400 0                  STP0    FIRST_LINE_SHOWN+2
        31 011741   000303 630400 0                  EPPR0   FIRST_LINE_SHOWN+2
        31 011742   000036 631400 32                 EPPR1   30
        31 011743   000000 701000 xent               TSX1    Z8AR$RESERVER
        31 011744   000000 011000                    NOP     0

  23512 31 011745   000002 236000 3                  LDQ     ST_+2
PL6.E3A0      #001=Z8DT$REPORT_REC File=Z8DT.:Z8A6TSI                            SAT 08/09/97 11:22 Page:388
        31 011746   000022 736000                    QLS     18
        31 011747   000001 036000 3                  ADLQ    ST_+1
        31 011750   000254 756000 0                  STQ     ST$$

  23513 31 011751   000013 236007                    LDQ     11,DL
        31 011752   000002 056000 3                  ASQ     ST_+2

  23516 31 011753   000253 470400 0                  LDP0    @LTS$$
        31 011754   000000 471500                    LDP1    0,,PR0
        31 011755   100003 473500                    LDP3    3,,PR1
        31 011756   000254 474400 0                  LDP4    ST$$
        31 011757   000100 100500                    MLR     fill='000'O
        31 011760   300000 000054                    ADSC9   0,,PR3                   cn=0,n=44
        31 011761   400000 000054                    ADSC9   0,,PR4                   cn=0,n=44

  23517 31 011762   400006 471500                    LDP1    6,,PR4
        31 011763   100003 720100                    LXL0    3,,PR1
        31 011764   000320 100003                    CMPX0   208,DU
        31 011765   011770 600000 31                 TZE     s:23519

  23518 31 011766   000254 236000 0                  LDQ     ST$$
        31 011767   100001 756100                    STQ     1,,PR1

  23519 31 011770   000254 236000 0                  LDQ     ST$$
        31 011771   000255 471400 0                  LDP1    SUM_LTS$$
        31 011772   100003 756100                    STQ     3,,PR1

     2492    23522
     2493    23523    3          ST$$ -> SCALAR.DESCL = ST$$ -> SCALAR.LTS$ -> LTSS.NEL$

  23523 31 011773   400005 473500                    LDP3    5,,PR4
        31 011774   300002 475500                    LDP5    2,,PR3
        31 011775   500001 720100                    LXL0    1,,PR5
        31 011776   400001 440100                    SXL0    1,,PR4

     2494    23524    3                                 -> NEL.DESC.DESCL;
     2495    23525    3          ST$$ -> SCALAR.TYPE = %TYD;
PL6.E3A0      #001=Z8DT$REPORT_REC File=Z8DT.:Z8A6TSI                            SAT 08/09/97 11:22 Page:389

  23525 31 011777   000000 221003                    LDX1    0,DU
        31 012000   400002 741100                    STX1    2,,PR4

     2496    23526    3          ST$$ -> SCALAR.B.CLASS = %CLASS_NUMERIC;

  23526 31 012001   400003 236100                    LDQ     3,,PR4
        31 012002   000253 376000 32                 ANQ     171
        31 012003   000001 276007                    ORQ     1,DL
        31 012004   400003 756100                    STQ     3,,PR4

     2497    23527    3          ST$$ -> SCALAR.B.ASTERISK_SUPRESS = FALSE;

  23527 31 012005   000255 236000 32                 LDQ     173
        31 012006   400003 356100                    ANSQ    3,,PR4

     2498    23528
     2499    23529               %SUM_QLT_AND_ILL;

  23540 31 012007   000002 236000 6                  LDQ     QLT_+2
        31 012010   000006 036007                    ADLQ    6,DL
        31 012011   000003 116000 6                  CMPQ    QLT_+3
        31 012012   012023 602000 31                 TNC     s:23542

  23541 31 012013   000200 236000 32                 LDQ     128
        31 012014   000302 756000 0                  STQ     FIRST_LINE_SHOWN+1
        31 012015   000302 633400 0                  EPPR3   FIRST_LINE_SHOWN+1
        31 012016   000303 453400 0                  STP3    FIRST_LINE_SHOWN+2
        31 012017   000303 630400 0                  EPPR0   FIRST_LINE_SHOWN+2
        31 012020   000036 631400 32                 EPPR1   30
        31 012021   000000 701000 xent               TSX1    Z8AR$RESERVER
        31 012022   000000 011000                    NOP     0

  23542 31 012023   000002 236000 6                  LDQ     QLT_+2
        31 012024   000022 736000                    QLS     18
        31 012025   000001 036000 6                  ADLQ    QLT_+1
        31 012026   000254 470400 0                  LDP0    ST$$
PL6.E3A0      #001=Z8DT$REPORT_REC File=Z8DT.:Z8A6TSI                            SAT 08/09/97 11:22 Page:390
        31 012027   000007 756100                    STQ     7,,PR0

  23543 31 012030   000002 235000 6                  LDA     QLT_+2
        31 012031   000006 035007                    ADLA    6,DL
        31 012032   000002 755000 6                  STA     QLT_+2

  23544 31 012033   000007 471500                    LDP1    7,,PR0
        31 012034   001053 220003                    LDX0    555,DU
        31 012035   100000 740100                    STX0    0,,PR1

  23547 31 012036   000007 471500                    LDP1    7,,PR0
        31 012037   000253 473400 0                  LDP3    @LTS$$
        31 012040   300000 474500                    LDP4    0,,PR3
        31 012041   400004 475500                    LDP5    4,,PR4
        31 012042   500001 236100                    LDQ     1,,PR5
        31 012043   100001 756100                    STQ     1,,PR1

  23548 31 012044   000007 471500                    LDP1    7,,PR0
        31 012045   000005 236000 32                 LDQ     5
        31 012046   100002 756100                    STQ     2,,PR1

  23549 31 012047   000007 471500                    LDP1    7,,PR0
        31 012050   000005 236000 32                 LDQ     5
        31 012051   100003 756100                    STQ     3,,PR1

  23550 31 012052   000007 471500                    LDP1    7,,PR0
        31 012053   000254 236000 0                  LDQ     ST$$
        31 012054   100004 756100                    STQ     4,,PR1

  23551 31 012055   000007 471500                    LDP1    7,,PR0
        31 012056   000006 236100                    LDQ     6,,PR0
        31 012057   100005 756100                    STQ     5,,PR1

  23552 31 012060   000007 471500                    LDP1    7,,PR0
        31 012061   000036 236000 0                  LDQ     REPORT_DATA
        31 012062   100000 552104                    STBQ    0,'04'O,PR1

PL6.E3A0      #001=Z8DT$REPORT_REC File=Z8DT.:Z8A6TSI                            SAT 08/09/97 11:22 Page:391
  23553 31 012063   000007 471500                    LDP1    7,,PR0
        31 012064   000000 236003                    LDQ     0,DU
        31 012065   100000 552110                    STBQ    0,'10'O,PR1

  23554 31 012066   000007 471500                    LDP1    7,,PR0
        31 012067   000201 236000 32                 LDQ     129
        31 012070   100000 356100                    ANSQ    0,,PR1

  23555 31 012071   000007 471500                    LDP1    7,,PR0
        31 012072   000202 236000 32                 LDQ     130
        31 012073   100000 356100                    ANSQ    0,,PR1

  23556 31 012074   000007 471500                    LDP1    7,,PR0
        31 012075   000171 236000 32                 LDQ     121
        31 012076   100000 356100                    ANSQ    0,,PR1

  23557 31 012077   000007 471500                    LDP1    7,,PR0
        31 012100   000160 236000 32                 LDQ     112
        31 012101   100000 356100                    ANSQ    0,,PR1

  23560 31 012102   300000 471500                    LDP1    0,,PR3
        31 012103   100004 474500                    LDP4    4,,PR1
        31 012104   000007 236100                    LDQ     7,,PR0
        31 012105   400002 756100                    STQ     2,,PR4

  23561 31 012106   300000 471500                    LDP1    0,,PR3
        31 012107   000007 236100                    LDQ     7,,PR0
        31 012110   100004 756100                    STQ     4,,PR1

  23562 31 012111   300000 471500                    LDP1    0,,PR3
        31 012112   000254 236000 0                  LDQ     ST$$
        31 012113   100003 756100                    STQ     3,,PR1

  23563 31 012114   000005 236000 32                 LDQ     5
        31 012115   000302 756000 0                  STQ     FIRST_LINE_SHOWN+1
        31 012116   000255 236000 0                  LDQ     SUM_LTS$$
        31 012117   000004 036003                    ADLQ    4,DU
PL6.E3A0      #001=Z8DT$REPORT_REC File=Z8DT.:Z8A6TSI                            SAT 08/09/97 11:22 Page:392
        31 012120   000305 756000 0                  STQ     FIRST_LINE_SHOWN+4
        31 012121   000302 631400 0                  EPPR1   FIRST_LINE_SHOWN+1
        31 012122   000304 451400 0                  STP1    FIRST_LINE_SHOWN+3
        31 012123   000255 236000 0                  LDQ     SUM_LTS$$
        31 012124   000003 036003                    ADLQ    3,DU
        31 012125   000303 756000 0                  STQ     FIRST_LINE_SHOWN+2
        31 012126   000303 630400 0                  EPPR0   FIRST_LINE_SHOWN+2
        31 012127   000006 631400 32                 EPPR1   6
        31 012130   000000 701000 xent               TSX1    Z8AF$NEW_BASE
        31 012131   000000 011000                    NOP     0

  23566 31 012132   012442 710000 31                 TRA     s:23756

     2500    23568
     2501    23569    3        CASE (%PIC_TY_ANE);

     2502    23570
     2503    23571    3          IF PIC_OUT.LEFT <= %ANSI_MAX_DIGITS THEN

  23571 31 012133   000001 721000 28                 LXL1    PIC_OUT+1
        31 012134   000023 101003                    CMPX1   19,DU
        31 012135   012142 603000 31                 TRC     s:23574

     2504    23572    3              LENGTH = PIC_OUT.LEFT;

  23572 31 012136   000001 236000 28                 LDQ     PIC_OUT+1
        31 012137   777777 376007                    ANQ     -1,DL
        31 012140   000256 756000 0                  STQ     LENGTH
        31 012141   012144 710000 31                 TRA     s:23662

     2505    23573    3          ELSE
     2506    23574    3              LENGTH = %ANSI_MAX_DIGITS;

  23574 31 012142   000022 235007                    LDA     18,DL
        31 012143   000256 755000 0                  STA     LENGTH

     2507    23575
PL6.E3A0      #001=Z8DT$REPORT_REC File=Z8DT.:Z8A6TSI                            SAT 08/09/97 11:22 Page:393
     2508    23576               %NEW_SUM_LTS_ST;

  23662 31 012144   000002 236000 8                  LDQ     LTS_+2
        31 012145   000007 036007                    ADLQ    7,DL
        31 012146   000003 116000 8                  CMPQ    LTS_+3
        31 012147   012160 604000 31                 TMI     s:23664

  23663 31 012150   000147 236000 32                 LDQ     103
        31 012151   000302 756000 0                  STQ     FIRST_LINE_SHOWN+1
        31 012152   000302 631400 0                  EPPR1   FIRST_LINE_SHOWN+1
        31 012153   000303 451400 0                  STP1    FIRST_LINE_SHOWN+2
        31 012154   000303 630400 0                  EPPR0   FIRST_LINE_SHOWN+2
        31 012155   000036 631400 32                 EPPR1   30
        31 012156   000000 701000 xent               TSX1    Z8AR$RESERVER
        31 012157   000000 011000                    NOP     0

  23664 31 012160   000002 236000 8                  LDQ     LTS_+2
        31 012161   000022 736000                    QLS     18
        31 012162   000001 036000 8                  ADLQ    LTS_+1
        31 012163   000255 756000 0                  STQ     SUM_LTS$$

  23665 31 012164   000007 236007                    LDQ     7,DL
        31 012165   000002 056000 8                  ASQ     LTS_+2

  23666 31 012166   001076 220003                    LDX0    574,DU
        31 012167   000255 470400 0                  LDP0    SUM_LTS$$
        31 012170   000000 740100                    STX0    0,,PR0

  23672 31 012171   000000 740100                    STX0    0,,PR0

  23673 31 012172   000253 471400 0                  LDP1    @LTS$$
        31 012173   100000 473500                    LDP3    0,,PR1
        31 012174   300003 236100                    LDQ     3,,PR3
        31 012175   000001 756100                    STQ     1,,PR0

  23674 31 012176   000064 236000 xsym               LDQ     O1COM+52
        31 012177   000005 756100                    STQ     5,,PR0
PL6.E3A0      #001=Z8DT$REPORT_REC File=Z8DT.:Z8A6TSI                            SAT 08/09/97 11:22 Page:394

  23675 31 012200   000006 236000 xsym               LDQ     REP_STK+6
        31 012201   000006 756100                    STQ     6,,PR0

  23676 31 012202   000005 236000 32                 LDQ     5
        31 012203   000004 756100                    STQ     4,,PR0

  23677 31 012204   000000 221003                    LDX1    0,DU
        31 012205   000000 441100                    SXL1    0,,PR0

  23678 31 012206   000005 236000 32                 LDQ     5
        31 012207   000002 756100                    STQ     2,,PR0

  23681 31 012210   000005 236000 32                 LDQ     5
        31 012211   000302 756000 0                  STQ     FIRST_LINE_SHOWN+1
        31 012212   000255 236000 0                  LDQ     SUM_LTS$$
        31 012213   000002 036003                    ADLQ    2,DU
        31 012214   000305 756000 0                  STQ     FIRST_LINE_SHOWN+4
        31 012215   000302 633400 0                  EPPR3   FIRST_LINE_SHOWN+1
        31 012216   000304 453400 0                  STP3    FIRST_LINE_SHOWN+3
        31 012217   000255 236000 0                  LDQ     SUM_LTS$$
        31 012220   000001 036003                    ADLQ    1,DU
        31 012221   000303 756000 0                  STQ     FIRST_LINE_SHOWN+2
        31 012222   000303 630400 0                  EPPR0   FIRST_LINE_SHOWN+2
        31 012223   000006 631400 32                 EPPR1   6
        31 012224   000000 701000 xent               TSX1    Z8AF$NEW_BASE
        31 012225   000000 011000                    NOP     0

  23688 31 012226   000002 236000 3                  LDQ     ST_+2
        31 012227   000013 036007                    ADLQ    11,DL
        31 012230   000003 116000 3                  CMPQ    ST_+3
        31 012231   012242 604000 31                 TMI     s:23690

  23689 31 012232   000176 236000 32                 LDQ     126
        31 012233   000302 756000 0                  STQ     FIRST_LINE_SHOWN+1
        31 012234   000302 630400 0                  EPPR0   FIRST_LINE_SHOWN+1
        31 012235   000303 450400 0                  STP0    FIRST_LINE_SHOWN+2
PL6.E3A0      #001=Z8DT$REPORT_REC File=Z8DT.:Z8A6TSI                            SAT 08/09/97 11:22 Page:395
        31 012236   000303 630400 0                  EPPR0   FIRST_LINE_SHOWN+2
        31 012237   000036 631400 32                 EPPR1   30
        31 012240   000000 701000 xent               TSX1    Z8AR$RESERVER
        31 012241   000000 011000                    NOP     0

  23690 31 012242   000002 236000 3                  LDQ     ST_+2
        31 012243   000022 736000                    QLS     18
        31 012244   000001 036000 3                  ADLQ    ST_+1
        31 012245   000254 756000 0                  STQ     ST$$

  23691 31 012246   000013 236007                    LDQ     11,DL
        31 012247   000002 056000 3                  ASQ     ST_+2

  23694 31 012250   000253 470400 0                  LDP0    @LTS$$
        31 012251   000000 471500                    LDP1    0,,PR0
        31 012252   100003 473500                    LDP3    3,,PR1
        31 012253   000254 474400 0                  LDP4    ST$$
        31 012254   000100 100500                    MLR     fill='000'O
        31 012255   300000 000054                    ADSC9   0,,PR3                   cn=0,n=44
        31 012256   400000 000054                    ADSC9   0,,PR4                   cn=0,n=44

  23695 31 012257   400006 471500                    LDP1    6,,PR4
        31 012260   100003 720100                    LXL0    3,,PR1
        31 012261   000320 100003                    CMPX0   208,DU
        31 012262   012265 600000 31                 TZE     s:23697

  23696 31 012263   000254 236000 0                  LDQ     ST$$
        31 012264   100001 756100                    STQ     1,,PR1

  23697 31 012265   000254 236000 0                  LDQ     ST$$
        31 012266   000255 471400 0                  LDP1    SUM_LTS$$
        31 012267   100003 756100                    STQ     3,,PR1

     2509    23700
     2510    23701    3          ST$$ -> SCALAR.NDSC.TN = %NDSC9;

  23701 31 012270   000160 236000 32                 LDQ     112
PL6.E3A0      #001=Z8DT$REPORT_REC File=Z8DT.:Z8A6TSI                            SAT 08/09/97 11:22 Page:396
        31 012271   400001 356100                    ANSQ    1,,PR4

     2511    23702    3          ST$$ -> SCALAR.NDSC.S = %NO_SIGN;

  23702 31 012272   030000 236007                    LDQ     12288,DL
        31 012273   400001 256100                    ORSQ    1,,PR4

     2512    23703    3          ST$$ -> SCALAR.NDSC.N = LENGTH;

  23703 31 012274   000256 236000 0                  LDQ     LENGTH
        31 012275   400001 752101                    STCQ    1,'01'O,PR4

     2513    23704    3          ST$$ -> SCALAR.NDSC.SF = 0;

  23704 31 012276   000000 236003                    LDQ     0,DU
        31 012277   400001 752102                    STCQ    1,'02'O,PR4

     2514    23705    3          ST$$ -> SCALAR.NDSC.CN = 0;

  23705 31 012300   000157 236000 32                 LDQ     111
        31 012301   400001 356100                    ANSQ    1,,PR4

     2515    23706    3          ST$$ -> SCALAR.TYPE = %TYD;

  23706 31 012302   000000 220003                    LDX0    0,DU
        31 012303   400002 740100                    STX0    2,,PR4

     2516    23707    3          ST$$ -> SCALAR.B.CLASS = %CLASS_NUMERIC;

  23707 31 012304   400003 236100                    LDQ     3,,PR4
        31 012305   000253 376000 32                 ANQ     171
        31 012306   000001 276007                    ORQ     1,DL
        31 012307   400003 756100                    STQ     3,,PR4

     2517    23708
     2518    23709               %SUM_QLT_AND_ILL;

PL6.E3A0      #001=Z8DT$REPORT_REC File=Z8DT.:Z8A6TSI                            SAT 08/09/97 11:22 Page:397
  23720 31 012310   000002 236000 6                  LDQ     QLT_+2
        31 012311   000006 036007                    ADLQ    6,DL
        31 012312   000003 116000 6                  CMPQ    QLT_+3
        31 012313   012324 602000 31                 TNC     s:23722

  23721 31 012314   000200 236000 32                 LDQ     128
        31 012315   000302 756000 0                  STQ     FIRST_LINE_SHOWN+1
        31 012316   000302 633400 0                  EPPR3   FIRST_LINE_SHOWN+1
        31 012317   000303 453400 0                  STP3    FIRST_LINE_SHOWN+2
        31 012320   000303 630400 0                  EPPR0   FIRST_LINE_SHOWN+2
        31 012321   000036 631400 32                 EPPR1   30
        31 012322   000000 701000 xent               TSX1    Z8AR$RESERVER
        31 012323   000000 011000                    NOP     0

  23722 31 012324   000002 236000 6                  LDQ     QLT_+2
        31 012325   000022 736000                    QLS     18
        31 012326   000001 036000 6                  ADLQ    QLT_+1
        31 012327   000254 470400 0                  LDP0    ST$$
        31 012330   000007 756100                    STQ     7,,PR0

  23723 31 012331   000002 235000 6                  LDA     QLT_+2
        31 012332   000006 035007                    ADLA    6,DL
        31 012333   000002 755000 6                  STA     QLT_+2

  23724 31 012334   000007 471500                    LDP1    7,,PR0
        31 012335   001053 220003                    LDX0    555,DU
        31 012336   100000 740100                    STX0    0,,PR1

  23727 31 012337   000007 471500                    LDP1    7,,PR0
        31 012340   000253 473400 0                  LDP3    @LTS$$
        31 012341   300000 474500                    LDP4    0,,PR3
        31 012342   400004 475500                    LDP5    4,,PR4
        31 012343   500001 236100                    LDQ     1,,PR5
        31 012344   100001 756100                    STQ     1,,PR1

  23728 31 012345   000007 471500                    LDP1    7,,PR0
        31 012346   000005 236000 32                 LDQ     5
PL6.E3A0      #001=Z8DT$REPORT_REC File=Z8DT.:Z8A6TSI                            SAT 08/09/97 11:22 Page:398
        31 012347   100002 756100                    STQ     2,,PR1

  23729 31 012350   000007 471500                    LDP1    7,,PR0
        31 012351   000005 236000 32                 LDQ     5
        31 012352   100003 756100                    STQ     3,,PR1

  23730 31 012353   000007 471500                    LDP1    7,,PR0
        31 012354   000254 236000 0                  LDQ     ST$$
        31 012355   100004 756100                    STQ     4,,PR1

  23731 31 012356   000007 471500                    LDP1    7,,PR0
        31 012357   000006 236100                    LDQ     6,,PR0
        31 012360   100005 756100                    STQ     5,,PR1

  23732 31 012361   000007 471500                    LDP1    7,,PR0
        31 012362   000036 236000 0                  LDQ     REPORT_DATA
        31 012363   100000 552104                    STBQ    0,'04'O,PR1

  23733 31 012364   000007 471500                    LDP1    7,,PR0
        31 012365   000000 236003                    LDQ     0,DU
        31 012366   100000 552110                    STBQ    0,'10'O,PR1

  23734 31 012367   000007 471500                    LDP1    7,,PR0
        31 012370   000201 236000 32                 LDQ     129
        31 012371   100000 356100                    ANSQ    0,,PR1

  23735 31 012372   000007 471500                    LDP1    7,,PR0
        31 012373   000202 236000 32                 LDQ     130
        31 012374   100000 356100                    ANSQ    0,,PR1

  23736 31 012375   000007 471500                    LDP1    7,,PR0
        31 012376   000171 236000 32                 LDQ     121
        31 012377   100000 356100                    ANSQ    0,,PR1

  23737 31 012400   000007 471500                    LDP1    7,,PR0
        31 012401   000160 236000 32                 LDQ     112
        31 012402   100000 356100                    ANSQ    0,,PR1
PL6.E3A0      #001=Z8DT$REPORT_REC File=Z8DT.:Z8A6TSI                            SAT 08/09/97 11:22 Page:399

  23740 31 012403   300000 471500                    LDP1    0,,PR3
        31 012404   100004 474500                    LDP4    4,,PR1
        31 012405   000007 236100                    LDQ     7,,PR0
        31 012406   400002 756100                    STQ     2,,PR4

  23741 31 012407   300000 471500                    LDP1    0,,PR3
        31 012410   000007 236100                    LDQ     7,,PR0
        31 012411   100004 756100                    STQ     4,,PR1

  23742 31 012412   300000 471500                    LDP1    0,,PR3
        31 012413   000254 236000 0                  LDQ     ST$$
        31 012414   100003 756100                    STQ     3,,PR1

  23743 31 012415   000005 236000 32                 LDQ     5
        31 012416   000302 756000 0                  STQ     FIRST_LINE_SHOWN+1
        31 012417   000255 236000 0                  LDQ     SUM_LTS$$
        31 012420   000004 036003                    ADLQ    4,DU
        31 012421   000305 756000 0                  STQ     FIRST_LINE_SHOWN+4
        31 012422   000302 631400 0                  EPPR1   FIRST_LINE_SHOWN+1
        31 012423   000304 451400 0                  STP1    FIRST_LINE_SHOWN+3
        31 012424   000255 236000 0                  LDQ     SUM_LTS$$
        31 012425   000003 036003                    ADLQ    3,DU
        31 012426   000303 756000 0                  STQ     FIRST_LINE_SHOWN+2
        31 012427   000303 630400 0                  EPPR0   FIRST_LINE_SHOWN+2
        31 012430   000006 631400 32                 EPPR1   6
        31 012431   000000 701000 xent               TSX1    Z8AF$NEW_BASE
        31 012432   000000 011000                    NOP     0

  23746 31 012433   012442 710000 31                 TRA     s:23756

     2519    23748
     2520    23749    3        CASE (ELSE);

     2521    23750
     2522    23751    3          CALL Z8AE$ERROR (%E$UNEXPECTED_CASE);

PL6.E3A0      #001=Z8DT$REPORT_REC File=Z8DT.:Z8A6TSI                            SAT 08/09/97 11:22 Page:400
  23751 31 012434   000061 630400 32                 EPPR0   49
        31 012435   000036 631400 32                 EPPR1   30
        31 012436   000000 701000 xent               TSX1    Z8AE$ERROR
        31 012437   000000 011000                    NOP     0

     2523    23752    3          RETURN;

  23752 31 012440   000252 221200 0                  LDX1  ! LIST$$+1
        31 012441   000001 702211                    TSX2  ! 1,X1

     2524    23753
     2525    23754    3      END;  /* do case */

     2526    23755
     2527    23756    2      LTS$$ -> REPORT_ELEM_LTS.SUM_LTS$ = SUM_LTS$$;

  23756 31 012442   000253 470400 0                  LDP0    @LTS$$
        31 012443   000000 471500                    LDP1    0,,PR0
        31 012444   000255 236000 0                  LDQ     SUM_LTS$$
        31 012445   100012 756100                    STQ     10,,PR1

     2528    23757
     2529    23758    2    END CREATE_SUM_COUNTER;

  23758 31 012446   000252 221200 0                  LDX1  ! LIST$$+1
        31 012447   000001 702211                    TSX2  ! 1,X1

     2530    23759         %EJECT;
PL6.E3A0      #001=Z8DT$REPORT_REC File=Z8DT.:Z8A6TSI                            SAT 08/09/97 11:22 Page:401
     2531    23760
     2532    23761
     2533    23762         /*================*/
     2534    23763    1      PROCESS_PREV_GRP:  PROC;

  23763 31 012450   000260 741200 0     PROCESS_PRE* STX1  ! DN$+1

     2535    23764         /*================*/
     2536    23765         /*
     2537    23766               NAME: PROCESS_PREV_GRP
     2538    23767
     2539    23768           DESCRIPTION:
     2540    23769                 1. Save first LINE clause number of this report group.
     2541    23770                 2. Save first entry LTS$ that contains LINE clause.
     2542    23771                 3. Save first LINE clause TYPE of this report group.
     2543    23772                 4. Calculate the number of total lines needed for this group.
     2544    23773                 5. Check first LINE clause in PAGE FOOTING group.
     2545    23774                 6. Check the fittness with the PAGE clause in RD entry.
     2546    23775          */
     2547    23776
     2548    23777
     2549    23778
     2550    23779
     2551    23780    2      DCL LTS$$               PTR;
     2552    23781    2      DCL NEXT_LTS$           PTR;
     2553    23782    2      DCL FIRST_LTS$          PTR;
     2554    23783    2      DCL FIRST_LINE_TYPE     UBIN WORD;
     2555    23784    2      DCL FIRST_LINE_NO#      SBIN WORD;
     2556    23785    2      DCL TOTAL_LINES         SBIN WORD;
     2557    23786    2      DCL LAST_LINE_NO#       SBIN WORD;
     2558    23787
     2559    23788
     2560    23789
     2561    23790
     2562    23791    2      LTS$$ = REP_STK.LTS$(1);

  23791 31 012451   000006 236000 xsym               LDQ     REP_STK+6
PL6.E3A0      #001=Z8DT$REPORT_REC File=Z8DT.:Z8A6TSI                            SAT 08/09/97 11:22 Page:402
        31 012452   000261 756000 0                  STQ     LTS$$

     2563    23792    2      NEXT_LTS$ = LTS$$;

  23792 31 012453   000262 756000 0                  STQ     NEXT_LTS$

     2564    23793    2      FIRST_LTS$ = ADDR(NIL);

  23793 31 012454   000005 236000 32                 LDQ     5
        31 012455   000263 756000 0                  STQ     FIRST_LTS$

     2565    23794
     2566    23795    3      DO WHILE (NEXT_LTS$ ~= ADDR(NIL));

  23795 31 012456   012500 710000 31                 TRA     s:23808

     2567    23796
     2568    23797    3        IF NEXT_LTS$ -> REPORT_GRP_LTS.B.LINE_PRESENTED THEN

  23797 31 012457   000262 470400 0                  LDP0    NEXT_LTS$
        31 012460   000000 236100                    LDQ     0,,PR0
        31 012461   400000 316007                    CANQ    -131072,DL
        31 012462   012476 600000 31                 TZE     s:23806

     2569    23798    4          DO;

     2570    23799    4            FIRST_LTS$ = NEXT_LTS$;

  23799 31 012463   000262 236000 0                  LDQ     NEXT_LTS$
        31 012464   000263 756000 0                  STQ     FIRST_LTS$

     2571    23800    4            NEXT_LTS$ = ADDR(NIL);

  23800 31 012465   000005 236000 32                 LDQ     5
        31 012466   000262 756000 0                  STQ     NEXT_LTS$

     2572    23801    4            FIRST_LINE_NO# = FIRST_LTS$ -> REPORT_GRP_LTS.LINE_NO#;
PL6.E3A0      #001=Z8DT$REPORT_REC File=Z8DT.:Z8A6TSI                            SAT 08/09/97 11:22 Page:403

  23801 31 012467   000263 470400 0                  LDP0    FIRST_LTS$
        31 012470   000002 235100                    LDA     2,,PR0
        31 012471   000265 755000 0                  STA     FIRST_LINE_NO#

     2573    23802    4            LAST_LINE_NO# = FIRST_LINE_NO#;

  23802 31 012472   000267 755000 0                  STA     LAST_LINE_NO#

     2574    23803    4            FIRST_LINE_TYPE = FIRST_LTS$ -> REPORT_GRP_LTS.LINE_TYPE;

  23803 31 012473   000001 235100                    LDA     1,,PR0
        31 012474   000264 755000 0                  STA     FIRST_LINE_TYPE

     2575    23804    4          END;

  23804 31 012475   012500 710000 31                 TRA     s:23808

     2576    23805    3        ELSE
     2577    23806    3          NEXT_LTS$ = NEXT_LTS$ -> REPORT_GRP_LTS.NEXT;

  23806 31 012476   000006 236100                    LDQ     6,,PR0
        31 012477   000262 756000 0                  STQ     NEXT_LTS$

     2578    23807
     2579    23808    3      END; /* while */

  23808 31 012500   000262 236000 0                  LDQ     NEXT_LTS$
        31 012501   000005 116000 32                 CMPQ    5
        31 012502   012457 601000 31                 TNZ     s:23797

     2580    23809
     2581    23810    2      IF FIRST_LTS$ ~= ADDR(NIL) THEN

  23810 31 012503   000263 236000 0                  LDQ     FIRST_LTS$
        31 012504   000005 116000 32                 CMPQ    5
        31 012505   012545 600000 31                 TZE     s:23833
PL6.E3A0      #001=Z8DT$REPORT_REC File=Z8DT.:Z8A6TSI                            SAT 08/09/97 11:22 Page:404

     2582    23811    3        DO;

     2583    23812    3          NEXT_LTS$ = FIRST_LTS$ -> REPORT_GRP_LTS.NEXT;

  23812 31 012506   000263 470400 0                  LDP0    FIRST_LTS$
        31 012507   000006 236100                    LDQ     6,,PR0
        31 012510   000262 756000 0                  STQ     NEXT_LTS$

     2584    23813
     2585    23814    4          DO WHILE (NEXT_LTS$ ~= ADDR(NIL));

  23814 31 012511   012531 710000 31                 TRA     s:23825

     2586    23815
     2587    23816    4            IF NEXT_LTS$ -> REPORT_GRP_LTS.B.LINE_PRESENTED THEN

  23816 31 012512   000262 470400 0                  LDP0    NEXT_LTS$
        31 012513   000000 236100                    LDQ     0,,PR0
        31 012514   400000 316007                    CANQ    -131072,DL
        31 012515   012527 600000 31                 TZE     s:23824

     2588    23817    5              DO;

     2589    23818    5                IF NEXT_LTS$ -> REPORT_GRP_LTS.LINE_TYPE = %REPORT_LINE_PLUS THEN

  23818 31 012516   000001 235100                    LDA     1,,PR0
        31 012517   000002 115007                    CMPA    2,DL
        31 012520   012525 601000 31                 TNZ     s:23821

     2590    23819    5                 LAST_LINE_NO# = LAST_LINE_NO# + NEXT_LTS$ -> REPORT_GRP_LTS.LINE_NO#;

  23819 31 012521   000267 236000 0                  LDQ     LAST_LINE_NO#
        31 012522   000002 036100                    ADLQ    2,,PR0
        31 012523   000267 756000 0                  STQ     LAST_LINE_NO#
        31 012524   012527 710000 31                 TRA     s:23824

PL6.E3A0      #001=Z8DT$REPORT_REC File=Z8DT.:Z8A6TSI                            SAT 08/09/97 11:22 Page:405
     2591    23820    5                ELSE
     2592    23821    5                  LAST_LINE_NO# = NEXT_LTS$ -> REPORT_GRP_LTS.LINE_NO#;

  23821 31 012525   000002 235100                    LDA     2,,PR0
        31 012526   000267 755000 0                  STA     LAST_LINE_NO#

     2593    23822    5              END;

     2594    23823
     2595    23824    4            NEXT_LTS$ = NEXT_LTS$ -> REPORT_GRP_LTS.NEXT;

  23824 31 012527   000006 236100                    LDQ     6,,PR0
        31 012530   000262 756000 0                  STQ     NEXT_LTS$

     2596    23825    4          END;   /* while */

  23825 31 012531   000005 116000 32                 CMPQ    5
        31 012532   012512 601000 31                 TNZ     s:23816

     2597    23826
     2598    23827    3          TOTAL_LINES = LAST_LINE_NO# - FIRST_LINE_NO# + 1;

  23827 31 012533   000267 236000 0                  LDQ     LAST_LINE_NO#
        31 012534   000265 136000 0                  SBLQ    FIRST_LINE_NO#
        31 012535   000001 036007                    ADLQ    1,DL
        31 012536   000266 756000 0                  STQ     TOTAL_LINES

     2599    23828
     2600    23829    3          IF FIRST_LINE_TYPE = %REPORT_LINE_PLUS THEN

  23829 31 012537   000264 235000 0                  LDA     FIRST_LINE_TYPE
        31 012540   000002 115007                    CMPA    2,DL
        31 012541   012545 601000 31                 TNZ     s:23833

     2601    23830    3            TOTAL_LINES = TOTAL_LINES + FIRST_LINE_NO# - 1;

  23830 31 012542   000265 036000 0                  ADLQ    FIRST_LINE_NO#
PL6.E3A0      #001=Z8DT$REPORT_REC File=Z8DT.:Z8A6TSI                            SAT 08/09/97 11:22 Page:406
        31 012543   000001 136007                    SBLQ    1,DL
        31 012544   000266 756000 0                  STQ     TOTAL_LINES

     2602    23831    3      END;

     2603    23832
     2604    23833    2      IF FIRST_LTS$ = ADDR(NIL) THEN

  23833 31 012545   000263 236000 0                  LDQ     FIRST_LTS$
        31 012546   000005 116000 32                 CMPQ    5
        31 012547   012611 601000 31                 TNZ     s:23852

     2605    23834    3        DO;

     2606    23835    3          LTS$$ -> REPORT_01_LTS.FIRST_LINE.TYPE = %NO_REPORT_TYPE;

  23835 31 012550   000261 470400 0                  LDP0    LTS$$
        31 012551   000017 450100                    STZ     15,,PR0

     2607    23836    3          LTS$$ -> REPORT_01_LTS.FIRST_LINE.NO#  = 0;

  23836 31 012552   000261 470400 0                  LDP0    LTS$$
        31 012553   000020 450100                    STZ     16,,PR0

     2608    23837    3          LTS$$ -> REPORT_01_LTS.FIRST_LINE.LTS$ = ADDR(NIL);

  23837 31 012554   000005 236000 32                 LDQ     5
        31 012555   000261 470400 0                  LDP0    LTS$$
        31 012556   000021 756100                    STQ     17,,PR0

     2609    23838    3          LTS$$ -> REPORT_01_LTS.TOTAL_LINES = 0;

  23838 31 012557   000261 470400 0                  LDP0    LTS$$
        31 012560   000013 450100                    STZ     11,,PR0

     2610    23839
     2611    23840    3          IF LTS$$ -> REPORT_01_LTS.B.NEXT_GROUP_PRESENTED THEN
PL6.E3A0      #001=Z8DT$REPORT_REC File=Z8DT.:Z8A6TSI                            SAT 08/09/97 11:22 Page:407

  23840 31 012561   000261 470400 0                  LDP0    LTS$$
        31 012562   000000 236100                    LDQ     0,,PR0
        31 012563   100000 316007                    CANQ    32768,DL
        31 012564   012667 600000 31                 TZE     s:23870

     2612    23841    4            DO;

     2613    23842    4              CALL Z8AE$ERROR(%E$NEXT_GROUP_W_NO_LINE,

  23842 31 012565   000003 471500                    LDP1    3,,PR0
        31 012566   100002 236100                    LDQ     2,,PR1
        31 012567   777777 376007                    ANQ     -1,DL
        31 012570   000302 756000 0                  STQ     FIRST_LINE_SHOWN+1
        31 012571   000257 236000 32                 LDQ     175
        31 012572   000306 756000 0                  STQ     FIRST_LINE_SHOWN+5
        31 012573   000302 631400 0                  EPPR1   FIRST_LINE_SHOWN+1
        31 012574   000305 451400 0                  STP1    FIRST_LINE_SHOWN+4
        31 012575   000260 236000 32                 LDQ     176
        31 012576   000304 756000 0                  STQ     FIRST_LINE_SHOWN+3
        31 012577   000304 630400 0                  EPPR0   FIRST_LINE_SHOWN+3
        31 012600   000006 631400 32                 EPPR1   6
        31 012601   000000 701000 xent               TSX1    Z8AE$ERROR
        31 012602   000000 011000                    NOP     0

     2614    23843    4                    BINBIT (LTS$$ -> REPORT_01_LTS.ST$ -> SCALAR.LINE_NO, 36),
     2615    23844    4                              0);
     2616    23845
     2617    23846    4              LTS$$ -> REPORT_01_LTS.B.NEXT_GROUP_PRESENTED = FALSE;

  23846 31 012603   000261 470400 0                  LDP0    LTS$$
        31 012604   000171 236000 32                 LDQ     121
        31 012605   000000 356100                    ANSQ    0,,PR0

     2618    23847    4              LTS$$ -> REPORT_01_LTS.NEXT_GROUP_TYPE      = %NO_REPORT_TYPE;

  23847 31 012606   000261 470400 0                  LDP0    LTS$$
PL6.E3A0      #001=Z8DT$REPORT_REC File=Z8DT.:Z8A6TSI                            SAT 08/09/97 11:22 Page:408
        31 012607   000011 450100                    STZ     9,,PR0

     2619    23848    4            END;

     2620    23849    3        END;

  23849 31 012610   012667 710000 31                 TRA     s:23870

     2621    23850    2      ELSE
     2622    23851    3        DO;

     2623    23852    3          IF LTS$$ -> REPORT_01_LTS.GROUP_TYPE = %PAGE_FOOTING THEN

  23852 31 012611   000261 470400 0                  LDP0    LTS$$
        31 012612   000010 235100                    LDA     8,,PR0
        31 012613   000010 115007                    CMPA    8,DL
        31 012614   012643 601000 31                 TNZ     s:23861

     2624    23853    3            IF O1COM.CURRENT_REPORT_LTS$ -> REPORT_LTS.B.PAGE_LIMIT_ON THEN

  23853 31 012615   000064 471400 xsym               LDP1    O1COM+52
        31 012616   100003 236100                    LDQ     3,,PR1
        31 012617   100000 316003                    CANQ    32768,DU
        31 012620   012643 600000 31                 TZE     s:23861

     2625    23854    3              IF FIRST_LINE_TYPE = %REPORT_LINE_PLUS THEN

  23854 31 012621   000264 235000 0                  LDA     FIRST_LINE_TYPE
        31 012622   000002 115007                    CMPA    2,DL
        31 012623   012643 601000 31                 TNZ     s:23861

     2626    23855    4              DO;

     2627    23856    4                CALL Z8AE$ERROR (%E$LINE_NOT_ABS_IN_PF,

  23856 31 012624   000263 473400 0                  LDP3    FIRST_LTS$
        31 012625   300003 474500                    LDP4    3,,PR3
PL6.E3A0      #001=Z8DT$REPORT_REC File=Z8DT.:Z8A6TSI                            SAT 08/09/97 11:22 Page:409
        31 012626   400002 236100                    LDQ     2,,PR4
        31 012627   777777 376007                    ANQ     -1,DL
        31 012630   000302 756000 0                  STQ     FIRST_LINE_SHOWN+1
        31 012631   000257 236000 32                 LDQ     175
        31 012632   000306 756000 0                  STQ     FIRST_LINE_SHOWN+5
        31 012633   000302 634400 0                  EPPR4   FIRST_LINE_SHOWN+1
        31 012634   000305 454400 0                  STP4    FIRST_LINE_SHOWN+4
        31 012635   000262 236000 32                 LDQ     178
        31 012636   000304 756000 0                  STQ     FIRST_LINE_SHOWN+3
        31 012637   000304 630400 0                  EPPR0   FIRST_LINE_SHOWN+3
        31 012640   000006 631400 32                 EPPR1   6
        31 012641   000000 701000 xent               TSX1    Z8AE$ERROR
        31 012642   000000 011000                    NOP     0

     2628    23857    4                       BINBIT (FIRST_LTS$ -> REPORT_01_LTS.ST$ -> SCALAR.LINE_NO, 36),
     2629    23858    4                                 0);
     2630    23859    4              END;

     2631    23860
     2632    23861    3          LTS$$ -> REPORT_01_LTS.FIRST_LINE.TYPE = FIRST_LINE_TYPE;

  23861 31 012643   000261 470400 0                  LDP0    LTS$$
        31 012644   000264 235000 0                  LDA     FIRST_LINE_TYPE
        31 012645   000017 755100                    STA     15,,PR0

     2633    23862    3          LTS$$ -> REPORT_01_LTS.FIRST_LINE.NO# = FIRST_LINE_NO#;

  23862 31 012646   000261 470400 0                  LDP0    LTS$$
        31 012647   000265 236000 0                  LDQ     FIRST_LINE_NO#
        31 012650   000020 756100                    STQ     16,,PR0

     2634    23863    3          LTS$$ -> REPORT_01_LTS.FIRST_LINE.LTS$ = FIRST_LTS$;

  23863 31 012651   000263 236000 0                  LDQ     FIRST_LTS$
        31 012652   000261 470400 0                  LDP0    LTS$$
        31 012653   000021 756100                    STQ     17,,PR0

PL6.E3A0      #001=Z8DT$REPORT_REC File=Z8DT.:Z8A6TSI                            SAT 08/09/97 11:22 Page:410
     2635    23864    3          LTS$$ -> REPORT_01_LTS.TOTAL_LINES = TOTAL_LINES;

  23864 31 012654   000261 470400 0                  LDP0    LTS$$
        31 012655   000266 235000 0                  LDA     TOTAL_LINES
        31 012656   000013 755100                    STA     11,,PR0

     2636    23865
     2637    23866    3          IF O1COM.CURRENT_REPORT_LTS$ -> REPORT_LTS.B.PAGE_LIMIT_ON THEN

  23866 31 012657   000064 470400 xsym               LDP0    O1COM+52
        31 012660   000003 236100                    LDQ     3,,PR0
        31 012661   100000 316003                    CANQ    32768,DU
        31 012662   012667 600000 31                 TZE     s:23870

     2638    23867    3            CALL FITTNESS_CHECK (LTS$$);

  23867 31 012663   000263 236000 32                 LDQ     179
        31 012664   000271 756000 0                  STQ     LAST_LINE_NO#+2
        31 012665   012671 701000 31                 TSX1    FITTNESS_CHECK
        31 012666   000000 011000                    NOP     0

     2639    23868    3        END;

     2640    23869
     2641    23870    2    END PROCESS_PREV_GRP;

  23870 31 012667   000260 221200 0                  LDX1  ! DN$+1
        31 012670   000001 702211                    TSX2  ! 1,X1

     2642    23871         %EJECT;
PL6.E3A0      #001=Z8DT$REPORT_REC File=Z8DT.:Z8A6TSI                            SAT 08/09/97 11:22 Page:411
     2643    23872
     2644    23873         /*==============*/
     2645    23874    1      FITTNESS_CHECK:  PROC (LTS$$);

  23874 31 012671   000270 741200 0     FITTNESS_CH* STX1  ! LAST_LINE_NO#+1

     2646    23875         /*==============*/
     2647    23876         /*
     2648    23877               NAME: FITTNESS_CHECK
     2649    23878
     2650    23879           DESCRIPTION: This routine calculate the first line and last
     2651    23880                        line positions and then use this positions to check
     2652    23881                        the fittness of the report group against the PAGE
     2653    23882                        clause in the RD entry (or the default values).
     2654    23883
     2655    23884          */
     2656    23885
     2657    23886
     2658    23887
     2659    23888    2      DCL LTS$$               PTR;
     2660    23889    2      DCL REPORT$             PTR;
     2661    23890    2      DCL PAGE_LIMIT          SBIN WORD;
     2662    23891    2      DCL HEADING             SBIN WORD;
     2663    23892    2      DCL FOOTING             SBIN WORD;
     2664    23893    2      DCL LAST_LINE_PERMIT    SBIN WORD;
     2665    23894    2      DCL FIRST_LINE_PERMIT   SBIN WORD;
     2666    23895    2      DCL LAST_LINE_SHOWN     SBIN WORD;
     2667    23896    2      DCL FIRST_LINE_SHOWN    SBIN WORD;
     2668    23897
     2669    23898
     2670    23899
     2671    23900         %MACRO FIRST_LAST (@FIRST = 0);
     2672    23901           DO;
     2673    23902             IF LTS$$ -> REPORT_01_LTS.FIRST_LINE.TYPE = %REPORT_LINE_PLUS THEN
     2674    23903               DO;
     2675    23904                 FIRST_LINE_SHOWN = @FIRST + LTS$$ -> REPORT_01_LTS.FIRST_LINE.NO#;
     2676    23905                 LAST_LINE_SHOWN = @FIRST + LTS$$ -> REPORT_01_LTS.TOTAL_LINES - 1;
PL6.E3A0      #001=Z8DT$REPORT_REC File=Z8DT.:Z8A6TSI                            SAT 08/09/97 11:22 Page:412
     2677    23906               END;
     2678    23907             ELSE
     2679    23908               DO;
     2680    23909                 FIRST_LINE_SHOWN = LTS$$ -> REPORT_01_LTS.FIRST_LINE.NO#;
     2681    23910
     2682    23911               LAST_LINE_SHOWN = FIRST_LINE_SHOWN + LTS$$ -> REPORT_01_LTS.TOTAL_LINES - 1;
     2683    23912               END;
     2684    23913           END;
     2685    23914         %MEND;
     2686    23915         %EJECT;
PL6.E3A0      #001=Z8DT$REPORT_REC File=Z8DT.:Z8A6TSI                            SAT 08/09/97 11:22 Page:413
     2687    23916
     2688    23917    2      REPORT$ = O1COM.CURRENT_REPORT_LTS$;

  23917 31 012672   000064 236000 xsym               LDQ     O1COM+52
        31 012673   000272 756000 0                  STQ     REPORT$

     2689    23918
     2690    23919    3      DO CASE (LTS$$ -> REPORT_01_LTS.GROUP_TYPE);

  23919 31 012674   000271 470400 0                  LDP0    @LTS$$
        31 012675   000000 471500                    LDP1    0,,PR0
        31 012676   100010 235100                    LDA     8,,PR1
        31 012677   000012 115007                    CMPA    10,DL
        31 012700   012702 602005 31                 TNC     s:23919+6,AL
        31 012701   013364 710000 31                 TRA     s:24086
        31 012702   013364 710000 31                 TRA     s:24086
        31 012703   012714 710000 31                 TRA     s:23922
        31 012704   013067 710000 31                 TRA     s:23980
        31 012705   013364 710000 31                 TRA     s:24086
        31 012706   013364 710000 31                 TRA     s:24086
        31 012707   013364 710000 31                 TRA     s:24086
        31 012710   013364 710000 31                 TRA     s:24086
        31 012711   013364 710000 31                 TRA     s:24086
        31 012712   013137 710000 31                 TRA     s:24005
        31 012713   013302 710000 31                 TRA     s:24056

     2691    23920    3        CASE (%REPORT_HEADING);

     2692    23921
     2693    23922    3          IF LTS$$ -> REPORT_01_LTS.NEXT_GROUP_TYPE = %NEXT_GROUP_NEXT_PAGE THEN

  23922 31 012714   100011 235100                    LDA     9,,PR1
        31 012715   000003 115007                    CMPA    3,DL
        31 012716   012723 601000 31                 TNZ     s:23925

     2694    23923    3            LAST_LINE_PERMIT = REPORT$ -> REPORT_LTS.PAGE_LIMIT;

PL6.E3A0      #001=Z8DT$REPORT_REC File=Z8DT.:Z8A6TSI                            SAT 08/09/97 11:22 Page:414
  23923 31 012717   000272 473400 0                  LDP3    REPORT$
        31 012720   300011 235100                    LDA     9,,PR3
        31 012721   000276 755000 0                  STA     LAST_LINE_PERMIT
        31 012722   012726 710000 31                 TRA     s:23929

     2695    23924    3          ELSE
     2696    23925    3            LAST_LINE_PERMIT = REPORT$ -> REPORT_LTS.FIRST_DETAIL;

  23925 31 012723   000272 473400 0                  LDP3    REPORT$
        31 012724   300013 235100                    LDA     11,,PR3
        31 012725   000276 755000 0                  STA     LAST_LINE_PERMIT

     2697    23926
     2698    23927               %FIRST_LAST (@FIRST = REPORT$ -> REPORT_LTS.HEADING);

  23929 31 012726   100017 235100                    LDA     15,,PR1
        31 012727   000002 115007                    CMPA    2,DL
        31 012730   012741 601000 31                 TNZ     s:23936

  23931 31 012731   300012 236100                    LDQ     10,,PR3
        31 012732   100020 036100                    ADLQ    16,,PR1
        31 012733   000301 756000 0                  STQ     FIRST_LINE_SHOWN

  23932 31 012734   300012 236100                    LDQ     10,,PR3
        31 012735   100013 036100                    ADLQ    11,,PR1
        31 012736   000001 136007                    SBLQ    1,DL
        31 012737   000300 756000 0                  STQ     LAST_LINE_SHOWN

  23933 31 012740   012747 710000 31                 TRA     s:23942

  23936 31 012741   100020 235100                    LDA     16,,PR1
        31 012742   000301 755000 0                  STA     FIRST_LINE_SHOWN

  23937 31 012743   000301 236000 0                  LDQ     FIRST_LINE_SHOWN
        31 012744   100013 036100                    ADLQ    11,,PR1
        31 012745   000001 136007                    SBLQ    1,DL
        31 012746   000300 756000 0                  STQ     LAST_LINE_SHOWN
PL6.E3A0      #001=Z8DT$REPORT_REC File=Z8DT.:Z8A6TSI                            SAT 08/09/97 11:22 Page:415

     2699    23941
     2700    23942    3          IF FIRST_LINE_SHOWN < REPORT$ -> REPORT_LTS.HEADING  OR

  23942 31 012747   000301 236000 0                  LDQ     FIRST_LINE_SHOWN
        31 012750   300012 116100                    CMPQ    10,,PR3
        31 012751   012755 604000 31                 TMI     s:23945
        31 012752   000300 236000 0                  LDQ     LAST_LINE_SHOWN
        31 012753   000276 116000 0                  CMPQ    LAST_LINE_PERMIT
        31 012754   012773 604000 31                 TMI     s:23950

     2701    23943    3              LAST_LINE_SHOWN >= LAST_LINE_PERMIT  THEN
     2702    23944    4            DO;

     2703    23945    4              CALL Z8AE$ERROR (%E$FIT_IN_ERROR,

  23945 31 012755   100003 474500                    LDP4    3,,PR1
        31 012756   400002 236100                    LDQ     2,,PR4
        31 012757   777777 376007                    ANQ     -1,DL
        31 012760   000302 756000 0                  STQ     FIRST_LINE_SHOWN+1
        31 012761   000257 236000 32                 LDQ     175
        31 012762   000306 756000 0                  STQ     FIRST_LINE_SHOWN+5
        31 012763   000302 631400 0                  EPPR1   FIRST_LINE_SHOWN+1
        31 012764   000305 451400 0                  STP1    FIRST_LINE_SHOWN+4
        31 012765   000265 236000 32                 LDQ     181
        31 012766   000304 756000 0                  STQ     FIRST_LINE_SHOWN+3
        31 012767   000304 630400 0                  EPPR0   FIRST_LINE_SHOWN+3
        31 012770   000006 631400 32                 EPPR1   6
        31 012771   000000 701000 xent               TSX1    Z8AE$ERROR
        31 012772   000000 011000                    NOP     0

     2704    23946    4                     BINBIT (LTS$$ -> REPORT_01_LTS.ST$ -> SCALAR.LINE_NO, 36),
     2705    23947    4                               0);
     2706    23948    4            END;

     2707    23949
     2708    23950    3          IF LTS$$ -> REPORT_01_LTS.NEXT_GROUP_TYPE = %NEXT_GROUP_INT THEN
PL6.E3A0      #001=Z8DT$REPORT_REC File=Z8DT.:Z8A6TSI                            SAT 08/09/97 11:22 Page:416

  23950 31 012773   000271 470400 0                  LDP0    @LTS$$
        31 012774   000000 471500                    LDP1    0,,PR0
        31 012775   100011 235100                    LDA     9,,PR1
        31 012776   000001 115007                    CMPA    1,DL
        31 012777   013033 601000 31                 TNZ     s:23965

     2709    23951    4            DO;

     2710    23952    4              IF LTS$$ -> REPORT_01_LTS.NEXT_GROUP_NO# >=

  23952 31 013000   000272 473400 0                  LDP3    REPORT$
        31 013001   100012 236100                    LDQ     10,,PR1
        31 013002   300013 116100                    CMPQ    11,,PR3
        31 013003   013006 605000 31                 TPL     s:23957
        31 013004   000300 116000 0                  CMPQ    LAST_LINE_SHOWN
        31 013005   013554 605400 31                 TPNZ    s:24147

     2711    23953    4                          REPORT$ -> REPORT_LTS.FIRST_DETAIL  OR
     2712    23954    4                 LTS$$ -> REPORT_01_LTS.NEXT_GROUP_NO# <=
     2713    23955    4                          LAST_LINE_SHOWN  THEN
     2714    23956    5                DO;

     2715    23957    5                  CALL Z8AE$ERROR (%E$NEXT_GROUP_FIT_ERROR,

  23957 31 013006   100003 474500                    LDP4    3,,PR1
        31 013007   400002 236100                    LDQ     2,,PR4
        31 013010   777777 376007                    ANQ     -1,DL
        31 013011   000302 756000 0                  STQ     FIRST_LINE_SHOWN+1
        31 013012   000257 236000 32                 LDQ     175
        31 013013   000306 756000 0                  STQ     FIRST_LINE_SHOWN+5
        31 013014   000302 631400 0                  EPPR1   FIRST_LINE_SHOWN+1
        31 013015   000305 451400 0                  STP1    FIRST_LINE_SHOWN+4
        31 013016   000267 236000 32                 LDQ     183
        31 013017   000304 756000 0                  STQ     FIRST_LINE_SHOWN+3
        31 013020   000304 630400 0                  EPPR0   FIRST_LINE_SHOWN+3
        31 013021   000006 631400 32                 EPPR1   6
PL6.E3A0      #001=Z8DT$REPORT_REC File=Z8DT.:Z8A6TSI                            SAT 08/09/97 11:22 Page:417
        31 013022   000000 701000 xent               TSX1    Z8AE$ERROR
        31 013023   000000 011000                    NOP     0

     2716    23958    5                         BINBIT (LTS$$ -> REPORT_01_LTS.ST$ -> SCALAR.LINE_NO, 36),
     2717    23959    5                                   0);
     2718    23960    5                  LTS$$ -> REPORT_01_LTS.NEXT_GROUP_TYPE = %NO_REPORT_TYPE;

  23960 31 013024   000271 470400 0                  LDP0    @LTS$$
        31 013025   000000 471500                    LDP1    0,,PR0
        31 013026   100011 450100                    STZ     9,,PR1

     2719    23961    5                  LTS$$ -> REPORT_01_LTS.B.NEXT_GROUP_PRESENTED = FALSE;

  23961 31 013027   000000 471500                    LDP1    0,,PR0
        31 013030   000171 236000 32                 LDQ     121
        31 013031   100000 356100                    ANSQ    0,,PR1

     2720    23962    5                END;

     2721    23963    4            END;

  23963 31 013032   013554 710000 31                 TRA     s:24147

     2722    23964    3          ELSE
     2723    23965    3            IF LTS$$ -> REPORT_01_LTS.NEXT_GROUP_TYPE = %NEXT_GROUP_PLUS THEN

  23965 31 013033   000002 115007                    CMPA    2,DL
        31 013034   013554 601000 31                 TNZ     s:24147

     2724    23966    3              IF LTS$$ -> REPORT_01_LTS.NEXT_GROUP_NO# + LAST_LINE_SHOWN

  23966 31 013035   100012 236100                    LDQ     10,,PR1
        31 013036   000300 036000 0                  ADLQ    LAST_LINE_SHOWN
        31 013037   000272 473400 0                  LDP3    REPORT$
        31 013040   300013 116100                    CMPQ    11,,PR3
        31 013041   013554 604000 31                 TMI     s:24147

PL6.E3A0      #001=Z8DT$REPORT_REC File=Z8DT.:Z8A6TSI                            SAT 08/09/97 11:22 Page:418
     2725    23967    3                  >= REPORT$ -> REPORT_LTS.FIRST_DETAIL  THEN
     2726    23968    4                DO;

     2727    23969    4                  CALL Z8AE$ERROR (%E$NEXT_GROUP_FIT_ERROR,

  23969 31 013042   100003 474500                    LDP4    3,,PR1
        31 013043   400002 236100                    LDQ     2,,PR4
        31 013044   777777 376007                    ANQ     -1,DL
        31 013045   000302 756000 0                  STQ     FIRST_LINE_SHOWN+1
        31 013046   000257 236000 32                 LDQ     175
        31 013047   000306 756000 0                  STQ     FIRST_LINE_SHOWN+5
        31 013050   000302 631400 0                  EPPR1   FIRST_LINE_SHOWN+1
        31 013051   000305 451400 0                  STP1    FIRST_LINE_SHOWN+4
        31 013052   000267 236000 32                 LDQ     183
        31 013053   000304 756000 0                  STQ     FIRST_LINE_SHOWN+3
        31 013054   000304 630400 0                  EPPR0   FIRST_LINE_SHOWN+3
        31 013055   000006 631400 32                 EPPR1   6
        31 013056   000000 701000 xent               TSX1    Z8AE$ERROR
        31 013057   000000 011000                    NOP     0

     2728    23970    4                         BINBIT (LTS$$ -> REPORT_01_LTS.ST$ -> SCALAR.LINE_NO, 36),
     2729    23971    4                                   0);
     2730    23972    4                  LTS$$ -> REPORT_01_LTS.NEXT_GROUP_TYPE = %NO_REPORT_TYPE;

  23972 31 013060   000271 470400 0                  LDP0    @LTS$$
        31 013061   000000 471500                    LDP1    0,,PR0
        31 013062   100011 450100                    STZ     9,,PR1

     2731    23973    4                  LTS$$ -> REPORT_01_LTS.B.NEXT_GROUP_PRESENTED = FALSE;

  23973 31 013063   000000 471500                    LDP1    0,,PR0
        31 013064   000171 236000 32                 LDQ     121
        31 013065   100000 356100                    ANSQ    0,,PR1

     2732    23974    4                END;

  23974 31 013066   013554 710000 31                 TRA     s:24147
PL6.E3A0      #001=Z8DT$REPORT_REC File=Z8DT.:Z8A6TSI                            SAT 08/09/97 11:22 Page:419

     2733    23975
     2734    23976    3        CASE (%PAGE_HEADING);

     2735    23977
     2736    23978               %FIRST_LAST (@FIRST = REPORT$ -> REPORT_LTS.HEADING);

  23980 31 013067   100017 235100                    LDA     15,,PR1
        31 013070   000002 115007                    CMPA    2,DL
        31 013071   013103 601000 31                 TNZ     s:23987

  23982 31 013072   000272 473400 0                  LDP3    REPORT$
        31 013073   300012 236100                    LDQ     10,,PR3
        31 013074   100020 036100                    ADLQ    16,,PR1
        31 013075   000301 756000 0                  STQ     FIRST_LINE_SHOWN

  23983 31 013076   300012 236100                    LDQ     10,,PR3
        31 013077   100013 036100                    ADLQ    11,,PR1
        31 013100   000001 136007                    SBLQ    1,DL
        31 013101   000300 756000 0                  STQ     LAST_LINE_SHOWN

  23984 31 013102   013111 710000 31                 TRA     s:23993

  23987 31 013103   100020 235100                    LDA     16,,PR1
        31 013104   000301 755000 0                  STA     FIRST_LINE_SHOWN

  23988 31 013105   000301 236000 0                  LDQ     FIRST_LINE_SHOWN
        31 013106   100013 036100                    ADLQ    11,,PR1
        31 013107   000001 136007                    SBLQ    1,DL
        31 013110   000300 756000 0                  STQ     LAST_LINE_SHOWN

     2737    23992
     2738    23993    3          IF FIRST_LINE_SHOWN < REPORT$ -> REPORT_LTS.HEADING OR

  23993 31 013111   000272 473400 0                  LDP3    REPORT$
        31 013112   000301 236000 0                  LDQ     FIRST_LINE_SHOWN
        31 013113   300012 116100                    CMPQ    10,,PR3
PL6.E3A0      #001=Z8DT$REPORT_REC File=Z8DT.:Z8A6TSI                            SAT 08/09/97 11:22 Page:420
        31 013114   013120 604000 31                 TMI     s:23996
        31 013115   000300 236000 0                  LDQ     LAST_LINE_SHOWN
        31 013116   300013 116100                    CMPQ    11,,PR3
        31 013117   013554 604000 31                 TMI     s:24147

     2739    23994    3              LAST_LINE_SHOWN >= REPORT$ -> REPORT_LTS.FIRST_DETAIL THEN
     2740    23995    4            DO;

     2741    23996    4              CALL Z8AE$ERROR (%E$FIT_IN_ERROR,

  23996 31 013120   100003 474500                    LDP4    3,,PR1
        31 013121   400002 236100                    LDQ     2,,PR4
        31 013122   777777 376007                    ANQ     -1,DL
        31 013123   000302 756000 0                  STQ     FIRST_LINE_SHOWN+1
        31 013124   000257 236000 32                 LDQ     175
        31 013125   000306 756000 0                  STQ     FIRST_LINE_SHOWN+5
        31 013126   000302 631400 0                  EPPR1   FIRST_LINE_SHOWN+1
        31 013127   000305 451400 0                  STP1    FIRST_LINE_SHOWN+4
        31 013130   000265 236000 32                 LDQ     181
        31 013131   000304 756000 0                  STQ     FIRST_LINE_SHOWN+3
        31 013132   000304 630400 0                  EPPR0   FIRST_LINE_SHOWN+3
        31 013133   000006 631400 32                 EPPR1   6
        31 013134   000000 701000 xent               TSX1    Z8AE$ERROR
        31 013135   000000 011000                    NOP     0

     2742    23997    4                     BINBIT (LTS$$ -> REPORT_01_LTS.ST$ -> SCALAR.LINE_NO, 36),
     2743    23998    4                               0);
     2744    23999    4            END;

  23999 31 013136   013554 710000 31                 TRA     s:24147

     2745    24000
     2746    24001    3        CASE (%PAGE_FOOTING);

     2747    24002
     2748    24003               %FIRST_LAST (@FIRST = REPORT$ -> REPORT_LTS.FOOTING);

PL6.E3A0      #001=Z8DT$REPORT_REC File=Z8DT.:Z8A6TSI                            SAT 08/09/97 11:22 Page:421
  24005 31 013137   100017 235100                    LDA     15,,PR1
        31 013140   000002 115007                    CMPA    2,DL
        31 013141   013153 601000 31                 TNZ     s:24012

  24007 31 013142   000272 473400 0                  LDP3    REPORT$
        31 013143   300015 236100                    LDQ     13,,PR3
        31 013144   100020 036100                    ADLQ    16,,PR1
        31 013145   000301 756000 0                  STQ     FIRST_LINE_SHOWN

  24008 31 013146   300015 236100                    LDQ     13,,PR3
        31 013147   100013 036100                    ADLQ    11,,PR1
        31 013150   000001 136007                    SBLQ    1,DL
        31 013151   000300 756000 0                  STQ     LAST_LINE_SHOWN

  24009 31 013152   013161 710000 31                 TRA     s:24018

  24012 31 013153   100020 235100                    LDA     16,,PR1
        31 013154   000301 755000 0                  STA     FIRST_LINE_SHOWN

  24013 31 013155   000301 236000 0                  LDQ     FIRST_LINE_SHOWN
        31 013156   100013 036100                    ADLQ    11,,PR1
        31 013157   000001 136007                    SBLQ    1,DL
        31 013160   000300 756000 0                  STQ     LAST_LINE_SHOWN

     2749    24017
     2750    24018    3          IF FIRST_LINE_SHOWN <= REPORT$ -> REPORT_LTS.FOOTING OR

  24018 31 013161   000272 473400 0                  LDP3    REPORT$
        31 013162   000301 236000 0                  LDQ     FIRST_LINE_SHOWN
        31 013163   300015 116100                    CMPQ    13,,PR3
        31 013164   013170 604400 31                 TMOZ    s:24021
        31 013165   000300 236000 0                  LDQ     LAST_LINE_SHOWN
        31 013166   300011 116100                    CMPQ    9,,PR3
        31 013167   013206 604400 31                 TMOZ    s:24026

     2751    24019    3              LAST_LINE_SHOWN > REPORT$ -> REPORT_LTS.PAGE_LIMIT THEN
     2752    24020    4            DO;
PL6.E3A0      #001=Z8DT$REPORT_REC File=Z8DT.:Z8A6TSI                            SAT 08/09/97 11:22 Page:422

     2753    24021    4              CALL Z8AE$ERROR (%E$FIT_IN_ERROR,

  24021 31 013170   100003 474500                    LDP4    3,,PR1
        31 013171   400002 236100                    LDQ     2,,PR4
        31 013172   777777 376007                    ANQ     -1,DL
        31 013173   000302 756000 0                  STQ     FIRST_LINE_SHOWN+1
        31 013174   000257 236000 32                 LDQ     175
        31 013175   000306 756000 0                  STQ     FIRST_LINE_SHOWN+5
        31 013176   000302 631400 0                  EPPR1   FIRST_LINE_SHOWN+1
        31 013177   000305 451400 0                  STP1    FIRST_LINE_SHOWN+4
        31 013200   000265 236000 32                 LDQ     181
        31 013201   000304 756000 0                  STQ     FIRST_LINE_SHOWN+3
        31 013202   000304 630400 0                  EPPR0   FIRST_LINE_SHOWN+3
        31 013203   000006 631400 32                 EPPR1   6
        31 013204   000000 701000 xent               TSX1    Z8AE$ERROR
        31 013205   000000 011000                    NOP     0

     2754    24022    4                     BINBIT (LTS$$ -> REPORT_01_LTS.ST$ -> SCALAR.LINE_NO, 36),
     2755    24023    4                               0);
     2756    24024    4            END;

     2757    24025
     2758    24026    3          IF LTS$$ -> REPORT_01_LTS.NEXT_GROUP_TYPE = %NEXT_GROUP_INT THEN

  24026 31 013206   000271 470400 0                  LDP0    @LTS$$
        31 013207   000000 471500                    LDP1    0,,PR0
        31 013210   100011 235100                    LDA     9,,PR1
        31 013211   000001 115007                    CMPA    1,DL
        31 013212   013246 601000 31                 TNZ     s:24041

     2759    24027    4            DO;

     2760    24028    4              IF LTS$$ -> REPORT_01_LTS.NEXT_GROUP_NO# >=

  24028 31 013213   000272 473400 0                  LDP3    REPORT$
        31 013214   100012 236100                    LDQ     10,,PR1
PL6.E3A0      #001=Z8DT$REPORT_REC File=Z8DT.:Z8A6TSI                            SAT 08/09/97 11:22 Page:423
        31 013215   300011 116100                    CMPQ    9,,PR3
        31 013216   013221 605000 31                 TPL     s:24033
        31 013217   000300 116000 0                  CMPQ    LAST_LINE_SHOWN
        31 013220   013554 605400 31                 TPNZ    s:24147

     2761    24029    4                          REPORT$ -> REPORT_LTS.PAGE_LIMIT  OR
     2762    24030    4                 LTS$$ -> REPORT_01_LTS.NEXT_GROUP_NO# <=
     2763    24031    4                          LAST_LINE_SHOWN  THEN
     2764    24032    5                DO;

     2765    24033    5                  CALL Z8AE$ERROR (%E$NEXT_GROUP_FIT_ERROR,

  24033 31 013221   100003 474500                    LDP4    3,,PR1
        31 013222   400002 236100                    LDQ     2,,PR4
        31 013223   777777 376007                    ANQ     -1,DL
        31 013224   000302 756000 0                  STQ     FIRST_LINE_SHOWN+1
        31 013225   000257 236000 32                 LDQ     175
        31 013226   000306 756000 0                  STQ     FIRST_LINE_SHOWN+5
        31 013227   000302 631400 0                  EPPR1   FIRST_LINE_SHOWN+1
        31 013230   000305 451400 0                  STP1    FIRST_LINE_SHOWN+4
        31 013231   000267 236000 32                 LDQ     183
        31 013232   000304 756000 0                  STQ     FIRST_LINE_SHOWN+3
        31 013233   000304 630400 0                  EPPR0   FIRST_LINE_SHOWN+3
        31 013234   000006 631400 32                 EPPR1   6
        31 013235   000000 701000 xent               TSX1    Z8AE$ERROR
        31 013236   000000 011000                    NOP     0

     2766    24034    5                         BINBIT (LTS$$ -> REPORT_01_LTS.ST$ -> SCALAR.LINE_NO, 36),
     2767    24035    5                                   0);
     2768    24036    5                  LTS$$ -> REPORT_01_LTS.NEXT_GROUP_TYPE = %NO_REPORT_TYPE;

  24036 31 013237   000271 470400 0                  LDP0    @LTS$$
        31 013240   000000 471500                    LDP1    0,,PR0
        31 013241   100011 450100                    STZ     9,,PR1

     2769    24037    5                  LTS$$ -> REPORT_01_LTS.B.NEXT_GROUP_PRESENTED = FALSE;

PL6.E3A0      #001=Z8DT$REPORT_REC File=Z8DT.:Z8A6TSI                            SAT 08/09/97 11:22 Page:424
  24037 31 013242   000000 471500                    LDP1    0,,PR0
        31 013243   000171 236000 32                 LDQ     121
        31 013244   100000 356100                    ANSQ    0,,PR1

     2770    24038    5                END;

     2771    24039    4            END;

  24039 31 013245   013554 710000 31                 TRA     s:24147

     2772    24040    3          ELSE
     2773    24041    3            IF LTS$$ -> REPORT_01_LTS.NEXT_GROUP_TYPE = %NEXT_GROUP_PLUS THEN

  24041 31 013246   000002 115007                    CMPA    2,DL
        31 013247   013554 601000 31                 TNZ     s:24147

     2774    24042    3              IF LTS$$ -> REPORT_01_LTS.NEXT_GROUP_NO# + LAST_LINE_SHOWN

  24042 31 013250   100012 236100                    LDQ     10,,PR1
        31 013251   000300 036000 0                  ADLQ    LAST_LINE_SHOWN
        31 013252   000272 473400 0                  LDP3    REPORT$
        31 013253   300011 116100                    CMPQ    9,,PR3
        31 013254   013554 604000 31                 TMI     s:24147

     2775    24043    3                  >= REPORT$ -> REPORT_LTS.PAGE_LIMIT THEN
     2776    24044    4                DO;

     2777    24045    4                  CALL Z8AE$ERROR (%E$NEXT_GROUP_FIT_ERROR,

  24045 31 013255   100003 474500                    LDP4    3,,PR1
        31 013256   400002 236100                    LDQ     2,,PR4
        31 013257   777777 376007                    ANQ     -1,DL
        31 013260   000302 756000 0                  STQ     FIRST_LINE_SHOWN+1
        31 013261   000257 236000 32                 LDQ     175
        31 013262   000306 756000 0                  STQ     FIRST_LINE_SHOWN+5
        31 013263   000302 631400 0                  EPPR1   FIRST_LINE_SHOWN+1
        31 013264   000305 451400 0                  STP1    FIRST_LINE_SHOWN+4
PL6.E3A0      #001=Z8DT$REPORT_REC File=Z8DT.:Z8A6TSI                            SAT 08/09/97 11:22 Page:425
        31 013265   000267 236000 32                 LDQ     183
        31 013266   000304 756000 0                  STQ     FIRST_LINE_SHOWN+3
        31 013267   000304 630400 0                  EPPR0   FIRST_LINE_SHOWN+3
        31 013270   000006 631400 32                 EPPR1   6
        31 013271   000000 701000 xent               TSX1    Z8AE$ERROR
        31 013272   000000 011000                    NOP     0

     2778    24046    4                         BINBIT (LTS$$ -> REPORT_01_LTS.ST$ -> SCALAR.LINE_NO, 36),
     2779    24047    4                                   0);
     2780    24048    4                  LTS$$ -> REPORT_01_LTS.NEXT_GROUP_TYPE = %NO_REPORT_TYPE;

  24048 31 013273   000271 470400 0                  LDP0    @LTS$$
        31 013274   000000 471500                    LDP1    0,,PR0
        31 013275   100011 450100                    STZ     9,,PR1

     2781    24049    4                  LTS$$ -> REPORT_01_LTS.B.NEXT_GROUP_PRESENTED = FALSE;

  24049 31 013276   000000 471500                    LDP1    0,,PR0
        31 013277   000171 236000 32                 LDQ     121
        31 013300   100000 356100                    ANSQ    0,,PR1

     2782    24050    4                END;

  24050 31 013301   013554 710000 31                 TRA     s:24147

     2783    24051
     2784    24052    3        CASE (%REPORT_FOOTING);

     2785    24053
     2786    24054               %FIRST_LAST (@FIRST = REPORT$ -> REPORT_LTS.FOOTING);

  24056 31 013302   100017 235100                    LDA     15,,PR1
        31 013303   000002 115007                    CMPA    2,DL
        31 013304   013316 601000 31                 TNZ     s:24063

  24058 31 013305   000272 473400 0                  LDP3    REPORT$
        31 013306   300015 236100                    LDQ     13,,PR3
PL6.E3A0      #001=Z8DT$REPORT_REC File=Z8DT.:Z8A6TSI                            SAT 08/09/97 11:22 Page:426
        31 013307   100020 036100                    ADLQ    16,,PR1
        31 013310   000301 756000 0                  STQ     FIRST_LINE_SHOWN

  24059 31 013311   300015 236100                    LDQ     13,,PR3
        31 013312   100013 036100                    ADLQ    11,,PR1
        31 013313   000001 136007                    SBLQ    1,DL
        31 013314   000300 756000 0                  STQ     LAST_LINE_SHOWN

  24060 31 013315   013324 710000 31                 TRA     s:24069

  24063 31 013316   100020 235100                    LDA     16,,PR1
        31 013317   000301 755000 0                  STA     FIRST_LINE_SHOWN

  24064 31 013320   000301 236000 0                  LDQ     FIRST_LINE_SHOWN
        31 013321   100013 036100                    ADLQ    11,,PR1
        31 013322   000001 136007                    SBLQ    1,DL
        31 013323   000300 756000 0                  STQ     LAST_LINE_SHOWN

     2787    24068
     2788    24069    3          IF LTS$$ -> REPORT_01_LTS.FIRST_LINE.TYPE = %REPORT_LINE_NEXT_PAGE THEN

  24069 31 013324   100017 235100                    LDA     15,,PR1
        31 013325   000003 115007                    CMPA    3,DL
        31 013326   013333 601000 31                 TNZ     s:24072

     2789    24070    3              FOOTING = REPORT$ -> REPORT_LTS.HEADING;

  24070 31 013327   000272 473400 0                  LDP3    REPORT$
        31 013330   300012 235100                    LDA     10,,PR3
        31 013331   000275 755000 0                  STA     FOOTING
        31 013332   013337 710000 31                 TRA     s:24074

     2790    24071    3          ELSE
     2791    24072    3              FOOTING = REPORT$ -> REPORT_LTS.FOOTING + 1;

  24072 31 013333   000272 473400 0                  LDP3    REPORT$
        31 013334   300015 235100                    LDA     13,,PR3
PL6.E3A0      #001=Z8DT$REPORT_REC File=Z8DT.:Z8A6TSI                            SAT 08/09/97 11:22 Page:427
        31 013335   000001 035007                    ADLA    1,DL
        31 013336   000275 755000 0                  STA     FOOTING

     2792    24073
     2793    24074    3          IF FIRST_LINE_SHOWN < FOOTING  OR

  24074 31 013337   000301 236000 0                  LDQ     FIRST_LINE_SHOWN
        31 013340   000275 116000 0                  CMPQ    FOOTING
        31 013341   013345 604000 31                 TMI     s:24077
        31 013342   000300 236000 0                  LDQ     LAST_LINE_SHOWN
        31 013343   300011 116100                    CMPQ    9,,PR3
        31 013344   013554 604400 31                 TMOZ    s:24147

     2794    24075    3              LAST_LINE_SHOWN > REPORT$ -> REPORT_LTS.PAGE_LIMIT THEN
     2795    24076    4            DO;

     2796    24077    4              CALL Z8AE$ERROR (%E$FIT_IN_ERROR,

  24077 31 013345   100003 474500                    LDP4    3,,PR1
        31 013346   400002 236100                    LDQ     2,,PR4
        31 013347   777777 376007                    ANQ     -1,DL
        31 013350   000302 756000 0                  STQ     FIRST_LINE_SHOWN+1
        31 013351   000257 236000 32                 LDQ     175
        31 013352   000306 756000 0                  STQ     FIRST_LINE_SHOWN+5
        31 013353   000302 631400 0                  EPPR1   FIRST_LINE_SHOWN+1
        31 013354   000305 451400 0                  STP1    FIRST_LINE_SHOWN+4
        31 013355   000265 236000 32                 LDQ     181
        31 013356   000304 756000 0                  STQ     FIRST_LINE_SHOWN+3
        31 013357   000304 630400 0                  EPPR0   FIRST_LINE_SHOWN+3
        31 013360   000006 631400 32                 EPPR1   6
        31 013361   000000 701000 xent               TSX1    Z8AE$ERROR
        31 013362   000000 011000                    NOP     0

     2797    24078    4                     BINBIT (LTS$$ -> REPORT_01_LTS.ST$ -> SCALAR.LINE_NO, 36),
     2798    24079    4                               0);
     2799    24080    4            END;

PL6.E3A0      #001=Z8DT$REPORT_REC File=Z8DT.:Z8A6TSI                            SAT 08/09/97 11:22 Page:428
  24080 31 013363   013554 710000 31                 TRA     s:24147

     2800    24081
     2801    24082    3        CASE (ELSE);  /* body group */

     2802    24083
     2803    24084               %FIRST_LAST (@FIRST = REPORT$ -> REPORT_LTS.FIRST_DETAIL);

  24086 31 013364   100017 235100                    LDA     15,,PR1
        31 013365   000002 115007                    CMPA    2,DL
        31 013366   013400 601000 31                 TNZ     s:24093

  24088 31 013367   000272 473400 0                  LDP3    REPORT$
        31 013370   300013 236100                    LDQ     11,,PR3
        31 013371   100020 036100                    ADLQ    16,,PR1
        31 013372   000301 756000 0                  STQ     FIRST_LINE_SHOWN

  24089 31 013373   300013 236100                    LDQ     11,,PR3
        31 013374   100013 036100                    ADLQ    11,,PR1
        31 013375   000001 136007                    SBLQ    1,DL
        31 013376   000300 756000 0                  STQ     LAST_LINE_SHOWN

  24090 31 013377   013406 710000 31                 TRA     s:24099

  24093 31 013400   100020 235100                    LDA     16,,PR1
        31 013401   000301 755000 0                  STA     FIRST_LINE_SHOWN

  24094 31 013402   000301 236000 0                  LDQ     FIRST_LINE_SHOWN
        31 013403   100013 036100                    ADLQ    11,,PR1
        31 013404   000001 136007                    SBLQ    1,DL
        31 013405   000300 756000 0                  STQ     LAST_LINE_SHOWN

     2804    24098
     2805    24099    3          IF FIRST_LINE_SHOWN < REPORT$ -> REPORT_LTS.FIRST_DETAIL THEN

  24099 31 013406   000272 473400 0                  LDP3    REPORT$
        31 013407   000301 236000 0                  LDQ     FIRST_LINE_SHOWN
PL6.E3A0      #001=Z8DT$REPORT_REC File=Z8DT.:Z8A6TSI                            SAT 08/09/97 11:22 Page:429
        31 013410   300013 116100                    CMPQ    11,,PR3
        31 013411   013431 605000 31                 TPL     s:24107

     2806    24100    4            DO;

     2807    24101    4              CALL Z8AE$ERROR (%E$FIT_IN_ERROR,

  24101 31 013412   100003 474500                    LDP4    3,,PR1
        31 013413   400002 236100                    LDQ     2,,PR4
        31 013414   777777 376007                    ANQ     -1,DL
        31 013415   000302 756000 0                  STQ     FIRST_LINE_SHOWN+1
        31 013416   000257 236000 32                 LDQ     175
        31 013417   000306 756000 0                  STQ     FIRST_LINE_SHOWN+5
        31 013420   000302 631400 0                  EPPR1   FIRST_LINE_SHOWN+1
        31 013421   000305 451400 0                  STP1    FIRST_LINE_SHOWN+4
        31 013422   000265 236000 32                 LDQ     181
        31 013423   000304 756000 0                  STQ     FIRST_LINE_SHOWN+3
        31 013424   000304 630400 0                  EPPR0   FIRST_LINE_SHOWN+3
        31 013425   000006 631400 32                 EPPR1   6
        31 013426   000000 701000 xent               TSX1    Z8AE$ERROR
        31 013427   000000 011000                    NOP     0

     2808    24102    4                     BINBIT (LTS$$ -> REPORT_01_LTS.ST$ -> SCALAR.LINE_NO, 36),
     2809    24103    4                               0);
     2810    24104    4            END;

  24104 31 013430   013515 710000 31                 TRA     s:24132

     2811    24105    3          ELSE
     2812    24106    4            DO;

     2813    24107    5              DO CASE (LTS$$ -> REPORT_01_LTS.GROUP_TYPE);

  24107 31 013431   100010 235100                    LDA     8,,PR1
        31 013432   000010 115007                    CMPA    8,DL
        31 013433   013435 602005 31                 TNC     s:24107+4,AL
        31 013434   013511 710000 31                 TRA     s:24126
PL6.E3A0      #001=Z8DT$REPORT_REC File=Z8DT.:Z8A6TSI                            SAT 08/09/97 11:22 Page:430
        31 013435   013511 710000 31                 TRA     s:24126
        31 013436   013511 710000 31                 TRA     s:24126
        31 013437   013511 710000 31                 TRA     s:24126
        31 013440   013445 710000 31                 TRA     s:24110
        31 013441   013445 710000 31                 TRA     s:24110
        31 013442   013445 710000 31                 TRA     s:24110
        31 013443   013467 710000 31                 TRA     s:24118
        31 013444   013467 710000 31                 TRA     s:24118

     2814    24108
     2815    24109    5                CASE (%TYPE_DETAIL, %CONTROL_HEADING, %CONTROL_HEADING_FINAL);

     2816    24110    5                  IF LAST_LINE_SHOWN > REPORT$ -> REPORT_LTS.LAST_DETAIL THEN

  24110 31 013445   000300 236000 0                  LDQ     LAST_LINE_SHOWN
        31 013446   300014 116100                    CMPQ    12,,PR3
        31 013447   013515 604400 31                 TMOZ    s:24132

     2817    24111    6                    DO;

     2818    24112    6                      CALL Z8AE$ERROR (%E$FIT_IN_ERROR,

  24112 31 013450   100003 474500                    LDP4    3,,PR1
        31 013451   400002 236100                    LDQ     2,,PR4
        31 013452   777777 376007                    ANQ     -1,DL
        31 013453   000302 756000 0                  STQ     FIRST_LINE_SHOWN+1
        31 013454   000257 236000 32                 LDQ     175
        31 013455   000306 756000 0                  STQ     FIRST_LINE_SHOWN+5
        31 013456   000302 631400 0                  EPPR1   FIRST_LINE_SHOWN+1
        31 013457   000305 451400 0                  STP1    FIRST_LINE_SHOWN+4
        31 013460   000265 236000 32                 LDQ     181
        31 013461   000304 756000 0                  STQ     FIRST_LINE_SHOWN+3
        31 013462   000304 630400 0                  EPPR0   FIRST_LINE_SHOWN+3
        31 013463   000006 631400 32                 EPPR1   6
        31 013464   000000 701000 xent               TSX1    Z8AE$ERROR
        31 013465   000000 011000                    NOP     0

PL6.E3A0      #001=Z8DT$REPORT_REC File=Z8DT.:Z8A6TSI                            SAT 08/09/97 11:22 Page:431
     2819    24113    6                     BINBIT (LTS$$ -> REPORT_01_LTS.ST$ -> SCALAR.LINE_NO, 36),
     2820    24114    6                               0);
     2821    24115    6                    END;

  24115 31 013466   013515 710000 31                 TRA     s:24132

     2822    24116
     2823    24117    5                CASE (%CONTROL_FOOTING, %CONTROL_FOOTING_FINAL);

     2824    24118    5                  IF LAST_LINE_SHOWN > REPORT$ -> REPORT_LTS.FOOTING THEN

  24118 31 013467   000300 236000 0                  LDQ     LAST_LINE_SHOWN
        31 013470   300015 116100                    CMPQ    13,,PR3
        31 013471   013515 604400 31                 TMOZ    s:24132

     2825    24119    6                    DO;

     2826    24120    6                      CALL Z8AE$ERROR (%E$FIT_IN_ERROR,

  24120 31 013472   100003 474500                    LDP4    3,,PR1
        31 013473   400002 236100                    LDQ     2,,PR4
        31 013474   777777 376007                    ANQ     -1,DL
        31 013475   000302 756000 0                  STQ     FIRST_LINE_SHOWN+1
        31 013476   000257 236000 32                 LDQ     175
        31 013477   000306 756000 0                  STQ     FIRST_LINE_SHOWN+5
        31 013500   000302 631400 0                  EPPR1   FIRST_LINE_SHOWN+1
        31 013501   000305 451400 0                  STP1    FIRST_LINE_SHOWN+4
        31 013502   000265 236000 32                 LDQ     181
        31 013503   000304 756000 0                  STQ     FIRST_LINE_SHOWN+3
        31 013504   000304 630400 0                  EPPR0   FIRST_LINE_SHOWN+3
        31 013505   000006 631400 32                 EPPR1   6
        31 013506   000000 701000 xent               TSX1    Z8AE$ERROR
        31 013507   000000 011000                    NOP     0

     2827    24121    6                     BINBIT (LTS$$ -> REPORT_01_LTS.ST$ -> SCALAR.LINE_NO, 36),
     2828    24122    6                               0);
     2829    24123    6                    END;
PL6.E3A0      #001=Z8DT$REPORT_REC File=Z8DT.:Z8A6TSI                            SAT 08/09/97 11:22 Page:432

  24123 31 013510   013515 710000 31                 TRA     s:24132

     2830    24124
     2831    24125    5                CASE (ELSE);

     2832    24126    5                  CALL Z8AE$ERROR (%E$UNEXPECTED_CASE);

  24126 31 013511   000061 630400 32                 EPPR0   49
        31 013512   000036 631400 32                 EPPR1   30
        31 013513   000000 701000 xent               TSX1    Z8AE$ERROR
        31 013514   000000 011000                    NOP     0

     2833    24127
     2834    24128    5              END;  /*  do case  */

     2835    24129    4            END;  /* end DO */

     2836    24130
     2837    24131
     2838    24132    3          IF LTS$$ -> REPORT_01_LTS.NEXT_GROUP_TYPE = %NEXT_GROUP_INT THEN

  24132 31 013515   000271 470400 0                  LDP0    @LTS$$
        31 013516   000000 471500                    LDP1    0,,PR0
        31 013517   100011 235100                    LDA     9,,PR1
        31 013520   000001 115007                    CMPA    1,DL
        31 013521   013554 601000 31                 TNZ     s:24147

     2839    24133    3              IF LTS$$ -> REPORT_01_LTS.NEXT_GROUP_NO# <

  24133 31 013522   000272 473400 0                  LDP3    REPORT$
        31 013523   100012 236100                    LDQ     10,,PR1
        31 013524   300013 116100                    CMPQ    11,,PR3
        31 013525   013530 604000 31                 TMI     s:24138
        31 013526   300015 116100                    CMPQ    13,,PR3
        31 013527   013554 604400 31                 TMOZ    s:24147

PL6.E3A0      #001=Z8DT$REPORT_REC File=Z8DT.:Z8A6TSI                            SAT 08/09/97 11:22 Page:433
     2840    24134    3                          REPORT$ -> REPORT_LTS.FIRST_DETAIL  OR
     2841    24135    3                 LTS$$ -> REPORT_01_LTS.NEXT_GROUP_NO# >
     2842    24136    3                          REPORT$ -> REPORT_LTS.FOOTING  THEN
     2843    24137    4                DO;

     2844    24138    4                  CALL Z8AE$ERROR (%E$NEXT_GROUP_FIT_ERROR,

  24138 31 013530   100003 474500                    LDP4    3,,PR1
        31 013531   400002 236100                    LDQ     2,,PR4
        31 013532   777777 376007                    ANQ     -1,DL
        31 013533   000302 756000 0                  STQ     FIRST_LINE_SHOWN+1
        31 013534   000257 236000 32                 LDQ     175
        31 013535   000306 756000 0                  STQ     FIRST_LINE_SHOWN+5
        31 013536   000302 631400 0                  EPPR1   FIRST_LINE_SHOWN+1
        31 013537   000305 451400 0                  STP1    FIRST_LINE_SHOWN+4
        31 013540   000267 236000 32                 LDQ     183
        31 013541   000304 756000 0                  STQ     FIRST_LINE_SHOWN+3
        31 013542   000304 630400 0                  EPPR0   FIRST_LINE_SHOWN+3
        31 013543   000006 631400 32                 EPPR1   6
        31 013544   000000 701000 xent               TSX1    Z8AE$ERROR
        31 013545   000000 011000                    NOP     0

     2845    24139    4                         BINBIT (LTS$$ -> REPORT_01_LTS.ST$ -> SCALAR.LINE_NO, 36),
     2846    24140    4                                   0);
     2847    24141    4                  LTS$$ -> REPORT_01_LTS.NEXT_GROUP_TYPE = %NO_REPORT_TYPE;

  24141 31 013546   000271 470400 0                  LDP0    @LTS$$
        31 013547   000000 471500                    LDP1    0,,PR0
        31 013550   100011 450100                    STZ     9,,PR1

     2848    24142    4                  LTS$$ -> REPORT_01_LTS.B.NEXT_GROUP_PRESENTED = FALSE;

  24142 31 013551   000000 471500                    LDP1    0,,PR0
        31 013552   000171 236000 32                 LDQ     121
        31 013553   100000 356100                    ANSQ    0,,PR1

     2849    24143    4                END;
PL6.E3A0      #001=Z8DT$REPORT_REC File=Z8DT.:Z8A6TSI                            SAT 08/09/97 11:22 Page:434

     2850    24144
     2851    24145    3      END;  /* DO CASE */

     2852    24146
     2853    24147    2    END FITTNESS_CHECK;

  24147 31 013554   000270 221200 0                  LDX1  ! LAST_LINE_NO#+1
        31 013555   000001 702211                    TSX2  ! 1,X1

     2854    24148         %EJECT;
PL6.E3A0      #001=Z8DT$REPORT_REC File=Z8DT.:Z8A6TSI                            SAT 08/09/97 11:22 Page:435
     2855    24149
     2856    24150
     2857    24151             /*           MAIN   BODY          */
     2858    24152
     2859    24153
     2860    24154
     2861    24155
     2862    24156    1      CDECL$ = CURRENT_DECL$;

  24156 31 013556   000001 470400 0                  LDP0    @CURRENT_DECL$
        31 013557   000000 236100                    LDQ     0,,PR0
        31 013560   000032 756000 0                  STQ     CDECL$

     2863    24157    1      NDECL$ = NEXT_DECL$;

  24157 31 013561   000002 471400 0                  LDP1    @NEXT_DECL$
        31 013562   100000 236100                    LDQ     0,,PR1
        31 013563   000033 756000 0                  STQ     NDECL$

     2864    24158           %INIT_REPORT_DATA;

  24160 31 013564   000005 236000 32                 LDQ     5
        31 013565   000055 756000 0                  STQ     REPORT_DATA+15

  24161 31 013566   000045 450000 0                  STZ     REPORT_DATA+7

  24162 31 013567   000046 450000 0                  STZ     REPORT_DATA+8

  24163 31 013570   000052 450000 0                  STZ     REPORT_DATA+12

  24164 31 013571   000053 450000 0                  STZ     REPORT_DATA+13

  24165 31 013572   000057 450000 0                  STZ     REPORT_DATA+17

  24166 31 013573   000060 450000 0                  STZ     REPORT_DATA+18

     2865    24169
PL6.E3A0      #001=Z8DT$REPORT_REC File=Z8DT.:Z8A6TSI                            SAT 08/09/97 11:22 Page:436
     2866    24170    1      CALL EXTRACT_LEVEL;

  24170 31 013574   000060 701000 31                 TSX1    EXTRACT_LEVEL
        31 013575   000000 011000                    NOP     0

     2867    24171
     2868    24172    1      IF REPORT_DATA.LEVEL.CURRENT > %LEVEL_01  AND

  24172 31 013576   000036 235000 0                  LDA     REPORT_DATA
        31 013577   000001 115007                    CMPA    1,DL
        31 013600   013610 604400 31                 TMOZ    s:24177
        31 013601   000037 236000 0                  LDQ     REPORT_DATA+1
        31 013602   013610 600000 31                 TZE     s:24177
        31 013603   000060 236000 0                  LDQ     REPORT_DATA+18
        31 013604   200000 316003                    CANQ    65536,DU
        31 013605   013610 600000 31                 TZE     s:24177

     2869    24173    1         REPORT_DATA.LEVEL.PREVIOUS ~= 0  AND
     2870    24174    1         REPORT_DATA.B.ELEMENTARY   THEN
     2871    24175    1           CALL EXTRACT_PIC;

  24175 31 013606   000223 701000 31                 TSX1    EXTRACT_PIC
        31 013607   000000 011000                    NOP     0

     2872    24176
     2873    24177    1      CALL VALIDATE_LEVEL;

  24177 31 013610   000365 701000 31                 TSX1    VALIDATE_LEVEL
        31 013611   000000 011000                    NOP     0

     2874    24178
     2875    24179    1      IF CDECL$ -> LX_REPORT_REC.P.PICTURE$ ~= ADDR(NIL) THEN

  24179 31 013612   000032 470400 0                  LDP0    CDECL$
        31 013613   000007 236100                    LDQ     7,,PR0
        31 013614   000005 116000 32                 CMPQ    5
        31 013615   013620 600000 31                 TZE     s:24182
PL6.E3A0      #001=Z8DT$REPORT_REC File=Z8DT.:Z8A6TSI                            SAT 08/09/97 11:22 Page:437

     2876    24180    1        CALL VALIDATE_PIC;

  24180 31 013616   000557 701000 31                 TSX1    VALIDATE_PIC
        31 013617   000000 011000                    NOP     0

     2877    24181
     2878    24182    1      IF CDECL$ -> LX_REPORT_REC.P.VALUE$ ~= ADDR(NIL) THEN

  24182 31 013620   000032 470400 0                  LDP0    CDECL$
        31 013621   000010 236100                    LDQ     8,,PR0
        31 013622   000005 116000 32                 CMPQ    5
        31 013623   013626 600000 31                 TZE     s:24185

     2879    24183    1        CALL VALIDATE_VALUE;

  24183 31 013624   001021 701000 31                 TSX1    VALIDATE_VALUE
        31 013625   000000 011000                    NOP     0

     2880    24184
     2881    24185    1      IF CDECL$ -> LX_REPORT_REC.P.BLANK$ ~= ADDR(NIL) THEN

  24185 31 013626   000032 470400 0                  LDP0    CDECL$
        31 013627   000012 236100                    LDQ     10,,PR0
        31 013630   000005 116000 32                 CMPQ    5
        31 013631   013634 600000 31                 TZE     s:24188

     2882    24186    1        CALL VALIDATE_BLANK;

  24186 31 013632   002307 701000 31                 TSX1    VALIDATE_BLANK
        31 013633   000000 011000                    NOP     0

     2883    24187
     2884    24188    1      IF CDECL$ -> LX_REPORT_REC.P.SIGN$ ~= ADDR(NIL)  THEN

  24188 31 013634   000032 470400 0                  LDP0    CDECL$
        31 013635   000011 236100                    LDQ     9,,PR0
PL6.E3A0      #001=Z8DT$REPORT_REC File=Z8DT.:Z8A6TSI                            SAT 08/09/97 11:22 Page:438
        31 013636   000005 116000 32                 CMPQ    5
        31 013637   013643 600000 31                 TZE     s:24191

     2885    24189    1        CALL VALIDATE_SIGN;

  24189 31 013640   003155 701000 31                 TSX1    VALIDATE_SIGN
        31 013641   000000 011000                    NOP     0
        31 013642   013644 710000 31                 TRA     s:24193

     2886    24190    1      ELSE
     2887    24191    1        REPORT_DATA.SIGN.LOCATION = %SIGN_POS_TRAILING;

  24191 31 013643   000041 450000 0                  STZ     REPORT_DATA+3

     2888    24192
     2889    24193    1      IF CDECL$ -> LX_REPORT_REC.P.JUSTIFIED$ ~= ADDR(NIL) THEN

  24193 31 013644   000032 470400 0                  LDP0    CDECL$
        31 013645   000014 236100                    LDQ     12,,PR0
        31 013646   000005 116000 32                 CMPQ    5
        31 013647   013652 600000 31                 TZE     s:24196

     2890    24194    1        CALL VALIDATE_JUSTIFIED;

  24194 31 013650   002447 701000 31                 TSX1    VALIDATE_JUSTIFIED
        31 013651   000000 011000                    NOP     0

     2891    24195
     2892    24196    1      IF CDECL$ -> LX_REPORT_REC.P.SOURCE$ ~= ADDR(NIL) THEN

  24196 31 013652   000032 470400 0                  LDP0    CDECL$
        31 013653   000021 236100                    LDQ     17,,PR0
        31 013654   000005 116000 32                 CMPQ    5
        31 013655   013660 600000 31                 TZE     s:24199

     2893    24197    1        CALL VALIDATE_SOURCE;

PL6.E3A0      #001=Z8DT$REPORT_REC File=Z8DT.:Z8A6TSI                            SAT 08/09/97 11:22 Page:439
  24197 31 013656   003412 701000 31                 TSX1    VALIDATE_SOURCE
        31 013657   000000 011000                    NOP     0

     2894    24198
     2895    24199    1      IF CDECL$ -> LX_REPORT_REC.P.SUM$ ~= ADDR(NIL) THEN

  24199 31 013660   000032 470400 0                  LDP0    CDECL$
        31 013661   000022 236100                    LDQ     18,,PR0
        31 013662   000005 116000 32                 CMPQ    5
        31 013663   013666 600000 31                 TZE     s:24202

     2896    24200    1        CALL VALIDATE_SUM;

  24200 31 013664   003566 701000 31                 TSX1    VALIDATE_SUM
        31 013665   000000 011000                    NOP     0

     2897    24201
     2898    24202    1      IF CDECL$ -> LX_REPORT_REC.P.TYPE$ ~= ADDR(NIL) THEN

  24202 31 013666   000032 470400 0                  LDP0    CDECL$
        31 013667   000013 236100                    LDQ     11,,PR0
        31 013670   000005 116000 32                 CMPQ    5
        31 013671   013674 600000 31                 TZE     s:24205

     2899    24203    1        CALL VALIDATE_GROUP_TYPE;

  24203 31 013672   004366 701000 31                 TSX1    VALIDATE_GROUP_TYPE
        31 013673   000000 011000                    NOP     0

     2900    24204
     2901    24205    1      IF CDECL$ -> LX_REPORT_REC.P.GROUP_INDICATE$ ~= ADDR(NIL) THEN

  24205 31 013674   000032 470400 0                  LDP0    CDECL$
        31 013675   000020 236100                    LDQ     16,,PR0
        31 013676   000005 116000 32                 CMPQ    5
        31 013677   013702 600000 31                 TZE     s:24208

PL6.E3A0      #001=Z8DT$REPORT_REC File=Z8DT.:Z8A6TSI                            SAT 08/09/97 11:22 Page:440
     2902    24206    1        CALL VALIDATE_GROUP_INDICATE;

  24206 31 013700   004141 701000 31                 TSX1    VALIDATE_GROUP_INDICATE
        31 013701   000000 011000                    NOP     0

     2903    24207
     2904    24208    1      CALL VALIDATE_LINE;

  24208 31 013702   006425 701000 31                 TSX1    VALIDATE_LINE
        31 013703   000000 011000                    NOP     0

     2905    24209
     2906    24210    1      IF CDECL$ -> LX_REPORT_REC.P.NEXT_GROUP$ ~= ADDR(NIL) THEN

  24210 31 013704   000032 470400 0                  LDP0    CDECL$
        31 013705   000015 236100                    LDQ     13,,PR0
        31 013706   000005 116000 32                 CMPQ    5
        31 013707   013712 600000 31                 TZE     s:24213

     2907    24211    1        CALL VALIDATE_NEXT_GROUP;

  24211 31 013710   007023 701000 31                 TSX1    VALIDATE_NEXT_GROUP
        31 013711   000000 011000                    NOP     0

     2908    24212
     2909    24213    1      IF CDECL$ -> LX_REPORT_REC.P.COLUMN_NUMBER$ ~= ADDR(NIL) THEN

  24213 31 013712   000032 470400 0                  LDP0    CDECL$
        31 013713   000017 236100                    LDQ     15,,PR0
        31 013714   000005 116000 32                 CMPQ    5
        31 013715   013720 600000 31                 TZE     s:24216

     2910    24214    1        CALL VALIDATE_COLUMN;

  24214 31 013716   002620 701000 31                 TSX1    VALIDATE_COLUMN
        31 013717   000000 011000                    NOP     0

PL6.E3A0      #001=Z8DT$REPORT_REC File=Z8DT.:Z8A6TSI                            SAT 08/09/97 11:22 Page:441
     2911    24215
     2912    24216    1      IF REPORT_DATA.LEVEL.CURRENT = %LEVEL_01 THEN

  24216 31 013720   000036 235000 0                  LDA     REPORT_DATA
        31 013721   000001 115007                    CMPA    1,DL
        31 013722   013730 601000 31                 TNZ     s:24219

     2913    24217    1        CALL PROCESS_01_ENTRY (ENTRY_LTS$$);

  24217 31 013723   000270 236000 32                 LDQ     184
        31 013724   000220 756000 0                  STQ     DEFERED_ID$+2
        31 013725   007415 701000 31                 TSX1    PROCESS_01_ENTRY
        31 013726   000000 011000                    NOP     0
        31 013727   013744 710000 31                 TRA     s:24224

     2914    24218    1      ELSE
     2915    24219    1        IF REPORT_DATA.B.ELEMENTARY THEN

  24219 31 013730   000060 236000 0                  LDQ     REPORT_DATA+18
        31 013731   200000 316003                    CANQ    65536,DU
        31 013732   013740 600000 31                 TZE     s:24222

     2916    24220    1          CALL PROCESS_ELEM_ENTRY (ENTRY_LTS$$);

  24220 31 013733   000270 236000 32                 LDQ     184
        31 013734   000226 756000 0                  STQ     NEW_ST$+2
        31 013735   010203 701000 31                 TSX1    PROCESS_ELEM_ENTRY
        31 013736   000000 011000                    NOP     0
        31 013737   013744 710000 31                 TRA     s:24224

     2917    24221    1        ELSE
     2918    24222    1          CALL PROCESS_GRP_ENTRY (ENTRY_LTS$$);

  24222 31 013740   000270 236000 32                 LDQ     184
        31 013741   000223 756000 0                  STQ     NEW_ST$+2
        31 013742   010033 701000 31                 TSX1    PROCESS_GRP_ENTRY
        31 013743   000000 011000                    NOP     0
PL6.E3A0      #001=Z8DT$REPORT_REC File=Z8DT.:Z8A6TSI                            SAT 08/09/97 11:22 Page:442

     2919    24223
     2920    24224    1      CALL UPDATE_REP_STK (ENTRY_LTS$$);

  24224 31 013744   000270 236000 32                 LDQ     184
        31 013745   000204 756000 0                  STQ     GROUP$+2
        31 013746   007222 701000 31                 TSX1    UPDATE_REP_STK
        31 013747   000000 011000                    NOP     0

     2921    24225
     2922    24226    1      IF REPORT_DATA.LEVEL.NEXT = %LEVEL_01 THEN

  24226 31 013750   000040 235000 0                  LDA     REPORT_DATA+2
        31 013751   000001 115007                    CMPA    1,DL
        31 013752   013755 601000 31                 TNZ     s:24229

     2923    24227    1          CALL PROCESS_PREV_GRP;

  24227 31 013753   012450 701000 31                 TSX1    PROCESS_PREV_GRP
        31 013754   000000 011000                    NOP     0

     2924    24228
     2925    24229    1    RETURN;

  24229 31 013755   000000 221200 0                  LDX1  ! 0
        31 013756   000001 702211                    TSX2  ! 1,X1
     2926    24230    1    END Z8DT$REPORT_REC;
     2927    24231        %EOD;

PL6.E3A0      #001=Z8DT$REPORT_REC File=Z8DT.:Z8A6TSI                            SAT 08/09/97 11:22 Page:443
--  Include file information  --

   Z8E_STATEMNT.:Z8A6TOU  is referenced.
   Z8E_ABSSYN.:Z8A6TOU  cannot be made into a system file and is referenced.
   Z8E_HEAP.:Z8A6TOU  cannot be made into a system file and is referenced.
   Z8D_PIC_PARM.:Z8A6TOU  is referenced.
   Z8E_NEW_ILL.:Z8A6TOU  is referenced.
   Z8E_MACROS.:Z8A6TOU  cannot be made into a system file and is referenced.
   Z8D_REC_DECL.:Z8A6TOU  is referenced.
   Z8E_O1COM.:Z8A6TOU  cannot be made into a system file and is referenced.
   Z8E_WINDOW.:Z8A6TOU  is referenced.
   Z8A_LEX_SYMB.:Z8A6TOU  cannot be made into a system file and is referenced.
   Z8E_STACKS.:Z8A6TOU  cannot be made into a system file and is referenced.
   Z8A_MKCN.:Z8A6TOU  cannot be made into a system file and is referenced.
   Z8A_XREF.:Z8A6TOU  cannot be made into a system file and is referenced.
   Z8A_ETT.:Z8A6TOU  cannot be made into a system file and is referenced.
   Z8A_ILL.:Z8A6TOU  cannot be made into a system file and is referenced.
   Z8A_ERR_NUMS.:Z8A6TOU  is referenced.
   Z8A_DNT.:Z8A6TOU  cannot be made into a system file and is referenced.
   Z8A_TYPES.:Z8A6TOU  is referenced.
   Z8A_LTS.:Z8A6TOU  cannot be made into a system file and is referenced.
   Z8A_QLT.:Z8A6TOU  cannot be made into a system file and is referenced.
   Z8A_ST.:Z8A6TOU  cannot be made into a system file and is referenced.
   Z8A_COMCOM.:Z8A6TOU  cannot be made into a system file and is referenced.
   X8A_COM_MACS.:X8A6TOU  is referenced.
   Z8A_NAMES.:Z8A6TOU  is referenced.
   Z8A_SUPP_MAC.:Z8A6TOU  is referenced.
   Z8A_DEFC.:Z8A6TOU  cannot be made into a system file and is referenced.
      No diagnostics issued in procedure Z8DT$REPORT_REC.
PL6.E3A0      #001=Z8DT$REPORT_REC File=Z8DT.:Z8A6TSI                            SAT 08/09/97 11:22 Page:444

 **** Variables and constants ****

  ****  Section 000  Data  Z8DT$REPORT_REC

  ****  Scalars and arrays  ****
OctLoc.c.b A Datatyp(siz) R M Lvl/name                 OctLoc.c.b A Datatyp(siz) R M Lvl/name

   206-0-0/w PTR         r     1 @APPEND$                  67-0-0/w PTR         r     1 @BLANK_WHEN_ZERO
   143-0-0/w PTR         r     1 @CTR_LTS$                  1-0-0/w PTR         r     1 @CURRENT_DECL$
   146-0-0/w PTR         r     1 @ITEM$                   147-0-0/w PTR         r     1 @LENGTH
   233-0-0/w PTR         r     1 @LEVEL#                  204-0-0/w PTR         r     1 @LTS$$
   207-0-0/w PTR         r     1 @LTS$$                   215-0-0/w PTR         r     1 @LTS$$
   220-0-0/w PTR         r     1 @LTS$$                   223-0-0/w PTR         r     1 @LTS$$
   226-0-0/w PTR         r     1 @LTS$$                   235-0-0/w PTR         r     1 @LTS$$
   245-0-0/w PTR         r     1 @LTS$$                   250-0-0/w PTR         r     1 @LTS$$
   253-0-0/w PTR         r     1 @LTS$$                   271-0-0/w PTR         r     1 @LTS$$
   166-0-0/w PTR         r     1 @NEW_ST$                   2-0-0/w PTR         r     1 @NEXT_DECL$
   153-0-0/w PTR         r     1 @OUT                     214-0-0/w PTR         r     1 @QUAL_ID$
   150-0-0/w PTR         r     1 @SIGN                    232-0-0/w PTR         r     1 @STK_PTR
    *0-0-0/w PTR         r     1 APPEND$                  107-0-0/w PTR         r     1 BLANK$
    *0-0-0/w BIT         r     1 BLANK_WHEN_ZERO          212-0-0/w PTR               1 BRO$
    32-0-0/w PTR         r     1 CDECL$                    75-0-0/w SBIN        r     1 COLUMN#
   113-0-0/w PTR         r     1 COLUMN_NUMBER$           237-0-0/w PTR         r     1 CONST$
   131-0-0/w SBIN        r     1 COUNT                    141-0-0/w PTR         r     1 CTR_LTS$
    *0-0-0/w PTR         r     1 CTR_LTS$                  *0-0-0/w PTR         r     1 CURRENT_DECL$
   121-0-0/w SBIN        r     1 CURRENT_LINE             216-0-0/w PTR         r     1 DEFERED_ID$
   246-0-0/w PTR         r     1 DEFERED_ID$              170-0-0/w PTR         r     1 DN$
   257-0-0/w PTR               1 DN$                       31-0-0/w PTR         r     1 ENTRY_LTS$$
   265-0-0/w SBIN        r     1 FIRST_LINE_NO#           277-0-0/w SBIN              1 FIRST_LINE_PERMIT
   301-0-0/w SBIN        r     1 FIRST_LINE_SHOWN         264-0-0/w UBIN        r     1 FIRST_LINE_TYPE
   263-0-0/w PTR         r     1 FIRST_LTS$               275-0-0/w SBIN        r     1 FOOTING
   202-0-0/w PTR         r     1 GROUP$                   133-0-0/w PTR         r     1 GROUP_IND$
   200-0-0/w UBIN        r     1 GRP_TYPE                 274-0-0/w SBIN              1 HEADING
    35-0-0/w SBIN        r     1 I                        167-0-0/w SBIN              1 ID
    70-0-0/w SBIN        r     1 INDEX#                    *0-0-0/w PTR         r     1 ITEM$
   111-0-0/w PTR         r     1 JUSTIFIED$               210-0-0/w PTR         r     1 LAST$
   267-0-0/w SBIN        r     1 LAST_LINE_NO#            276-0-0/w SBIN        r     1 LAST_LINE_PERMIT
PL6.E3A0      #001=Z8DT$REPORT_REC File=Z8DT.:Z8A6TSI                            SAT 08/09/97 11:22 Page:445
   300-0-0/w SBIN        r     1 LAST_LINE_SHOWN          115-0-0/w SBIN        r     1 LAST_POS
    *0-0-0/w SBIN        r     1 LENGTH                   156-0-0/w SBIN        r     1 LENGTH
   256-0-0/w SBIN        r     1 LENGTH                    *0-0-0/w SBIN        r     1 LEVEL#
    72-0-0/w PTR         r     1 LEVEL$                   171-0-0/w SBIN        r     1 LINE#
   175-0-0/w PTR         r     1 LINE$                    176-0-0/w SBIN              1 LINE_NO#
   114-0-0/b BIT         r     1 LINE_PRESENTED           251-0-0/w PTR         r     1 LIST$$
   116-0-0/w PTR         r     1 LTS$$                    136-0-0/w PTR         r     1 LTS$$
   177-0-0/w PTR         r     1 LTS$$                     *0-0-0/w PTR         r     1 LTS$$
    *0-0-0/w PTR         r     1 LTS$$                     *0-0-0/w PTR         r     1 LTS$$
    *0-0-0/w PTR         r     1 LTS$$                     *0-0-0/w PTR         r     1 LTS$$
    *0-0-0/w PTR         r     1 LTS$$                     *0-0-0/w PTR         r     1 LTS$$
    *0-0-0/w PTR         r     1 LTS$$                     *0-0-0/w PTR         r     1 LTS$$
    *0-0-0/w PTR         r     1 LTS$$                    261-0-0/w PTR         r     1 LTS$$
    *0-0-0/w PTR         r     1 LTS$$                    162-0-0/w PTR         r     1 MOP$
   160-0-0/w PTR         r     1 MOP_DNT$                  33-0-0/w PTR         r     1 NDECL$
   164-0-0/w PTR         r     1 NEW_LONG$                161-0-0/w PTR         r     1 NEW_NEL$
   172-0-0/w PTR         r     1 NEW_QLT$                  *0-0-0/w PTR         r     1 NEW_ST$
   221-0-0/w PTR         r     1 NEW_ST$                  224-0-0/w PTR         r     1 NEW_ST$
   227-0-0/w PTR         r     1 NEW_ST$                  144-0-0/w PTR         r     1 NEXT$
    *0-0-0/w PTR         r     1 NEXT_DECL$               122-0-0/w PTR         r     1 NEXT_LTS$
   262-0-0/w PTR         r     1 NEXT_LTS$                100-0-0/w STRC(216)   r     1 NUM_DESC
    *0-0-0/w UBIN        r     1 OUT                      154-0-0/w STRC        r     1 OUT_DESC
    34-0-0/w PTR         r     1 P$                       273-0-0/w SBIN              1 PAGE_LIMIT
    64-0-0/w PTR         r     1 PIC$                      74-0-0/w PTR         r     1 PIC$
     3-0-0/w STRC(72)    r     1 PIC_IN                     5-0-0/c CHAR(80)    r     1 PIC_STR
   120-0-0/w SBIN        r     1 PREV_LINE                117-0-0/w PTR         r     1 PREV_LTS$
   211-0-0/w PTR         r     1 QLT$$                    137-0-0/w PTR               1 QUAL_ID$
    *0-0-0/w PTR         r     1 QUAL_ID$                 230-0-0/w SBIN        r     1 REC_LENGTH
   272-0-0/w PTR         r     1 REPORT$                   36-0-0/w STRC(684)   r     1 REPORT_DATA
   236-0-0/w PTR         r     1 RETURN_ETT$               *0-0-0/w BIT (2)     r     1 SIGN
   155-0-0/b BIT (2)     r     1 SIGN                     124-0-0/w PTR         r     1 SIGN$
    65-0-0/w SBIN              1 SIGN_TYPE                126-0-0/w PTR         r     1 SOURCE$
   140-0-0/w PTR               1 ST$$                     173-0-0/w PTR         r     1 ST$$
   254-0-0/w PTR         r     1 ST$$                      *0-0-0/w SBIN        r     1 STK_PTR
   130-0-0/w PTR         r     1 SUM$                     255-0-0/w PTR         r     1 SUM_LTS$$
   151-0-0/w SBIN        r     1 TEMP_LENGTH              266-0-0/w SBIN        r     1 TOTAL_LINES
   135-0-0/w PTR         r     1 TYPE$                    240-0-0/w STRC(144)   r     1 TYPE_DESC
PL6.E3A0      #001=Z8DT$REPORT_REC File=Z8DT.:Z8A6TSI                            SAT 08/09/97 11:22 Page:446
    77-0-0/w PTR         r     1 VALUE$

  ****  Section 001 LblCom ITERATION

  ****  Scalars and arrays  ****
OctLoc.c.b A Datatyp(siz) R M Lvl/name                 OctLoc.c.b A Datatyp(siz) R M Lvl/name

     0-0-0/w SBIN              1 ITERATION

  ****  Section 002 LblCom ST$

  ****  Scalars and arrays  ****
OctLoc.c.b A Datatyp(siz) R M Lvl/name                 OctLoc.c.b A Datatyp(siz) R M Lvl/name

     0-0-0/w PTR         r     1 ST$

  ****  Section 003 LblCom ST_

  ****  Scalars and arrays  ****
OctLoc.c.b A Datatyp(siz) R M Lvl/name                 OctLoc.c.b A Datatyp(siz) R M Lvl/name

     0-0-0/w STRC(180)   r     1 ST_

  ****  Section 004 LblCom QLT$

  ****  Scalars and arrays  ****
OctLoc.c.b A Datatyp(siz) R M Lvl/name                 OctLoc.c.b A Datatyp(siz) R M Lvl/name

     0-0-0/w PTR         r     1 QLT$

  ****  Section 005 LblCom PREV_01_QLT$

  ****  Scalars and arrays  ****
OctLoc.c.b A Datatyp(siz) R M Lvl/name                 OctLoc.c.b A Datatyp(siz) R M Lvl/name

     0-0-0/w PTR               1 PREV_01_QLT$

PL6.E3A0      #001=Z8DT$REPORT_REC File=Z8DT.:Z8A6TSI                            SAT 08/09/97 11:22 Page:447
  ****  Section 006 LblCom QLT_

  ****  Scalars and arrays  ****
OctLoc.c.b A Datatyp(siz) R M Lvl/name                 OctLoc.c.b A Datatyp(siz) R M Lvl/name

     0-0-0/w STRC(180)   r     1 QLT_

  ****  Section 007 LblCom LTS$

  ****  Scalars and arrays  ****
OctLoc.c.b A Datatyp(siz) R M Lvl/name                 OctLoc.c.b A Datatyp(siz) R M Lvl/name

     0-0-0/w PTR               1 LONG_ITEM$                 0-0-0/w PTR         r     1 LTS$

  ****  Section 008 LblCom LTS_

  ****  Scalars and arrays  ****
OctLoc.c.b A Datatyp(siz) R M Lvl/name                 OctLoc.c.b A Datatyp(siz) R M Lvl/name

     0-0-0/w STRC(180)   r     1 LTS_

  ****  Section 009 LblCom DNT$

  ****  Scalars and arrays  ****
OctLoc.c.b A Datatyp(siz) R M Lvl/name                 OctLoc.c.b A Datatyp(siz) R M Lvl/name

     0-0-0/w PTR         r     1 DNT$

  ****  Section 010 LblCom DNT_

  ****  Scalars and arrays  ****
OctLoc.c.b A Datatyp(siz) R M Lvl/name                 OctLoc.c.b A Datatyp(siz) R M Lvl/name

     0-0-0/w STRC(180)         1 DNT_

  ****  Section 011 LblCom DNT_BUCKET_NUMBER

PL6.E3A0      #001=Z8DT$REPORT_REC File=Z8DT.:Z8A6TSI                            SAT 08/09/97 11:22 Page:448
  ****  Scalars and arrays  ****
OctLoc.c.b A Datatyp(siz) R M Lvl/name                 OctLoc.c.b A Datatyp(siz) R M Lvl/name

     0-0-0/w UBIN              1 DNT_BUCKET_NUMBER

  ****  Section 012 LblCom DNT_OF_1$

  ****  Scalars and arrays  ****
OctLoc.c.b A Datatyp(siz) R M Lvl/name                 OctLoc.c.b A Datatyp(siz) R M Lvl/name

     0-0-0/w PTR               1 DNT_OF_1$

  ****  Section 013 LblCom ILL$

  ****  Scalars and arrays  ****
OctLoc.c.b A Datatyp(siz) R M Lvl/name                 OctLoc.c.b A Datatyp(siz) R M Lvl/name

     0-0-0/w PTR         r     1 ILL$

  ****  Section 014 LblCom ILL_

  ****  Scalars and arrays  ****
OctLoc.c.b A Datatyp(siz) R M Lvl/name                 OctLoc.c.b A Datatyp(siz) R M Lvl/name

     0-0-0/w STRC(180)         1 ILL_

  ****  Section 015 LblCom ETT$

  ****  Scalars and arrays  ****
OctLoc.c.b A Datatyp(siz) R M Lvl/name                 OctLoc.c.b A Datatyp(siz) R M Lvl/name

     0-0-0/w PTR         r     1 ETT$

  ****  Section 016 LblCom HEAD_ETT$

  ****  Scalars and arrays  ****
OctLoc.c.b A Datatyp(siz) R M Lvl/name                 OctLoc.c.b A Datatyp(siz) R M Lvl/name
PL6.E3A0      #001=Z8DT$REPORT_REC File=Z8DT.:Z8A6TSI                            SAT 08/09/97 11:22 Page:449

     0-0-0/w PTR               1 HEAD_ETT$

  ****  Section 017 LblCom ETT_BUCKETS

  ****  Scalars and arrays  ****
OctLoc.c.b A Datatyp(siz) R M Lvl/name                 OctLoc.c.b A Datatyp(siz) R M Lvl/name

     0-0-0/w PTR               1 ETT_BUCKETS(0:511)

  ****  Section 018 LblCom ETT_

  ****  Scalars and arrays  ****
OctLoc.c.b A Datatyp(siz) R M Lvl/name                 OctLoc.c.b A Datatyp(siz) R M Lvl/name

     0-0-0/w STRC(180)         1 ETT_

  ****  Section 019 LblCom XREF$

  ****  Scalars and arrays  ****
OctLoc.c.b A Datatyp(siz) R M Lvl/name                 OctLoc.c.b A Datatyp(siz) R M Lvl/name

     0-0-0/w PTR         r     1 XREF$

  ****  Section 020 LblCom XREF_

  ****  Scalars and arrays  ****
OctLoc.c.b A Datatyp(siz) R M Lvl/name                 OctLoc.c.b A Datatyp(siz) R M Lvl/name

     0-0-0/w STRC(180)   r     1 XREF_

  ****  Section 021 LblCom MKCN

  ****  Scalars and arrays  ****
OctLoc.c.b A Datatyp(siz) R M Lvl/name                 OctLoc.c.b A Datatyp(siz) R M Lvl/name

     0-0-0/w STRC(72)    r     1 MKCN
PL6.E3A0      #001=Z8DT$REPORT_REC File=Z8DT.:Z8A6TSI                            SAT 08/09/97 11:22 Page:450

  ****  Section 022 LblCom LEX_SYMBOL

  ****  Scalars and arrays  ****
OctLoc.c.b A Datatyp(siz) R M Lvl/name                 OctLoc.c.b A Datatyp(siz) R M Lvl/name

     0-0-0/w STRC(3240)  r     1 LEX_SYMBOL                 0-0-0/w STRC(3240)        1 LEX_SYMBOL_WORDS

  ****  Section 023 LblCom CURRENT_LEX_SYMBOL$

  ****  Scalars and arrays  ****
OctLoc.c.b A Datatyp(siz) R M Lvl/name                 OctLoc.c.b A Datatyp(siz) R M Lvl/name

     0-0-0/w PTR         r     1 CURRENT_LEX_SYMBOL$

  ****  Section 024 LblCom TEMP_LEX_SYMBOL

  ****  Scalars and arrays  ****
OctLoc.c.b A Datatyp(siz) R M Lvl/name                 OctLoc.c.b A Datatyp(siz) R M Lvl/name

     0-0-0/w STRC(3240)        1 TEMP_LEX_SYMBOL

  ****  Section 025 LblCom TEMP_LEX_SYMBOL2

  ****  Scalars and arrays  ****
OctLoc.c.b A Datatyp(siz) R M Lvl/name                 OctLoc.c.b A Datatyp(siz) R M Lvl/name

     0-0-0/w STRC(3240)        1 TEMP_LEX_SYMBOL2

  ****  Section 026 LblCom HEAP$

  ****  Scalars and arrays  ****
OctLoc.c.b A Datatyp(siz) R M Lvl/name                 OctLoc.c.b A Datatyp(siz) R M Lvl/name

     0-0-0/w PTR               1 HEAP$

  ****  Section 027 LblCom TEMP_LX_NODE
PL6.E3A0      #001=Z8DT$REPORT_REC File=Z8DT.:Z8A6TSI                            SAT 08/09/97 11:22 Page:451

  ****  Scalars and arrays  ****
OctLoc.c.b A Datatyp(siz) R M Lvl/name                 OctLoc.c.b A Datatyp(siz) R M Lvl/name

     0-0-0/d STRC(288)         1 TEMP_LX_NODE

  ****  Section 028 LblCom PIC_OUT

  ****  Scalars and arrays  ****
OctLoc.c.b A Datatyp(siz) R M Lvl/name                 OctLoc.c.b A Datatyp(siz) R M Lvl/name

     0-0-0/w STRC(792)   r     1 PIC_OUT

  ****  Section 029 RtLmCm GROUP

  ****  Scalars and arrays  ****
OctLoc.c.b A Datatyp(siz) R M Lvl/name                 OctLoc.c.b A Datatyp(siz) R M Lvl/name

     0-0-0/w STRC(180)   r     1 GROUP

  ****  SYMREF variables  ****

  ****  Scalars and arrays  ****
OctLoc.c.b A Datatyp(siz) R M Lvl/name                 OctLoc.c.b A Datatyp(siz) R M Lvl/name

     0-0-0/d STRC(13248) r     1 COMCOM
     0-0-0/w PTR         r     1 DNT$_FROM_RSWNO(0:0)
     0-0-0/w STRC(180)         1 HIER_STK(0:50)
     0-0-0/w SBIN              1 HIER_STK_PTR               0-0-0/w UBIN              1 ILL_STEP(0:144)
     0-0-0/w UBIN              1 LTS_STEP(0:37)
     0-0-0/d STRC(11580) r     1 O1COM                      0-0-0/w STRC(144)         1 PAGE_FORMAT
     0-0-0/w STRC(153)   r     1 REP_STK(0:50)              0-0-0/w SBIN        r     1 REP_STK_PTR

  ****  BASED and DCB variables  ****

  ****  Scalars and arrays  ****
OctLoc.c.b A Datatyp(siz) R M Lvl/name                 OctLoc.c.b A Datatyp(siz) R M Lvl/name
PL6.E3A0      #001=Z8DT$REPORT_REC File=Z8DT.:Z8A6TSI                            SAT 08/09/97 11:22 Page:452

     0-0-0/w STRC(108)         1 ACCEPT_DISPLAY             0-0-0/w STRC(288)         1 ADD_STMT
     0-0-0/w STRC(396)         1 ALPHABET                   0-0-0/w STRC(144)         1 ALTER_LTS
     0-0-0/w STRC(3672)        1 ALT_KEY                    0-0-0/w STRC(36864)       1 ARGLIST
     0-0-0/w STRC(396)         1 ARRAY                      0-0-0/w STRC(180)         1 ARRAY_PRESET_LTS
     0-0-0/w ASTR(324)   r     1 BASED_LEX_SYMBOL
     0-0-0/w STRC(360)         1 BASED_LEX_SYMBOL_WORDS
     0-0-0/w STRC(288)         1 BASE_LTS                   0-0-0/w STRC(108)         1 BINARY_ILL
     0-0-0/w STRC(288)         1 BINARY_OP                  0-0-0/w STRC(396)         1 BLOCK
     0-0-0/w STRC(144)         1 BRANCH_ILL                 0-0-0/w STRC(144)         1 BT
     0-0-0/w STRC(288)         1 CALL_STMT                  0-0-0/w STRC(216)         1 CCOSU
     0-0-0/w STRC(396)         1 CD                         0-0-0/w STRC(288)         1 CD_LTS
     0-0-0/w CHAR(4096)        1 CHARS                      0-0-0/w STRC(396)         1 CLASS
     0-0-0/w STRC(108)         1 CODED_MOVE                 0-0-0/w STRC(288)         1 COMPUTE_STMT
     0-0-0/w STRC(396)         1 CONDITION                  0-0-0/w STRC(396)         1 CONST
     0-0-0/w STRC(72)          1 CONT                       0-0-0/w STRC(540)   r     1 CONTROL_NAME_LTS
     0-0-0/w STRC(1872)        1 COPY_FILE                  0-0-0/w STRC(396)         1 DB
     0-0-0/w STRC(396)         1 DCB_                       0-0-0/w STRC(288)   r     1 DEFERED_IDENTIFIER
     0-0-0/w STRC(252)   r     1 DEFERED_ID_TREE            0-0-0/w STRC(288)         1 DEFERED_QUAL_ID
     0-0-0/w STRC(288)   r     1 DEFERED_SUM_CLAUSE
     0-0-0/w STRC(288)   r     1 DEFERED_SUM_CLAUSE_LIST
     0-0-0/w STRC(144)         1 DEFLB                      0-0-0/w STRC(288)         1 DELETE_STMT
     0-0-0/w STRC(108)         1 DEPENDING_SIZE             0-0-0/w STRC(5472)        1 DIMS
     0-0-0/w STRC(288)         1 DIVIDE_STMT                0-0-0/w STRC(396)         1 DML_ITEM
     0-0-0/w STRC(216)         1 DML_REC                    0-0-0/w ASTR(180)   r     1 DNT
     0-0-0/w STRC(144)         1 DOEND                      0-0-0/w STRC(396)         1 DO_N
     0-0-0/w STRC(180)         1 DV4I                       0-0-0/w STRC(180)         1 ENTRY_ILL
     0-0-0/w STRC(180)         1 ETT                        0-0-0/w STRC(108)         1 EVALU
     0-0-0/w STRC(73836)       1 EVALUATE                   0-0-0/w STRC(396)         1 FD
     0-0-0/w STRC(1692)        1 FILE_LTS                   0-0-0/w STRC(144)         1 GO
     0-0-0/w STRC(180)         1 ILL                        0-0-0/w STRC              1 ILL_NO_OPS
     0-0-0/w STRC(288)         1 ILS_LIST                   0-0-0/w STRC(108)         1 INDEXES
     0-0-0/w STRC(360)         1 INIT_LTS                   0-0-0/w STRC(288)         1 INSPECT_1_STMT
     0-0-0/w STRC(288)         1 INSPECT_2_STMT             0-0-0/w STRC(288)         1 INSPECT_4_STMT
     0-0-0/w STRC(396)         1 INTDEF                     0-0-0/w STRC(180)         1 IO_RESTORE_CHAIN
     0-0-0/w STRC(144)         1 KEY                        0-0-0/w STRC(396)         1 LABEL
     0-0-0/w STRC(288)         1 LA_ITEM                    0-0-0/w STRC(36864)       1 LCNST
PL6.E3A0      #001=Z8DT$REPORT_REC File=Z8DT.:Z8A6TSI                            SAT 08/09/97 11:22 Page:453
     0-0-0/w STRC(108)         1 LINOI                      0-0-0/w STRC(72)    r     1 LONG
     0-0-0/w STRC        r     1 LTS                        0-0-0/w STRC(360)   r     1 LTSS
     0-0-0/w STRC(36936)       1 LTS_PTR_ARRAY              0-0-0/w STRC(504)         1 LX_CD_INPUT
     0-0-0/w STRC(324)         1 LX_CD_I_O                  0-0-0/w STRC(396)         1 LX_CD_OUTPUT
     0-0-0/w STRC(288)         1 LX_ETT_ITEM                0-0-0/w STRC(288)   r     1 LX_ITEM
     0-0-0/w STRC(288)   r     1 LX_LARGE                   0-0-0/w STRC(288)   r     1 LX_LIST
     0-0-0/w STRC(1224)        1 LX_REC_DECL                0-0-0/w STRC(864)   r     1 LX_REPORT_REC
     0-0-0/w STRC(288)   r     1 LX_TERMINAL                0-0-0/w STRC(72)          1 MFILL
     0-0-0/w STRC(396)         1 MNEMONIC                   0-0-0/w STRC(288)         1 MULTIPLY_STMT
     0-0-0/w STRC(180)         1 MULTI_GO                   0-0-0/w STRC(180)         1 MVEAL
     0-0-0/w STRC(108)         1 MVFIL                      0-0-0/w STRC(72)          1 MVIIS
     0-0-0/w STRC(144)   r     1 NEL                        0-0-0/w STRC(216)         1 OPEN_LTS
     0-0-0/w STRC(180)         1 OS_CALL                    0-0-0/w STRC(36864)       1 PAGE
     0-0-0/w STRC(396)         1 PARA                       0-0-0/w STRC(216)         1 PFORM
     0-0-0/w STRC(144)         1 PINC                       0-0-0/w STRC(144)         1 PREOFF
     0-0-0/w STRC(108)         1 PRESET                     0-0-0/w STRC(144)         1 PRIME
     0-0-0/w STRC(396)   r     1 PROC_                      0-0-0/w STRC(396)         1 PROC_DEF
     0-0-0/w STRC(900)   r     1 PROC_SUPP                  0-0-0/w STRC(144)         1 P_A_PRESET
     0-0-0/w STRC(144)         1 P_P_PRESET                 0-0-0/w STRC(216)   r     1 QLT
     0-0-0/w STRC(396)   r     1 RD                         0-0-0/w STRC(288)         1 READ_STMT
     0-0-0/w STRC(216)         1 REF                        0-0-0/w STRC(144)         1 REMEM
     0-0-0/w STRC(108)         1 RENAMES                    0-0-0/w STRC(720)   r     1 REPORT_01_LTS
     0-0-0/w STRC(432)   r     1 REPORT_ELEM_LTS            0-0-0/w STRC(252)   r     1 REPORT_GRP_LTS
     0-0-0/w STRC(1332)  r     1 REPORT_LTS                 0-0-0/w STRC(288)         1 REWRITE_STMT
     0-0-0/w STRC(144)         1 RVA_LTS                    0-0-0/w STRC(396)   r     1 SCALAR
     0-0-0/w STRC(144)         1 SCOPE                      0-0-0/w STRC(396)         1 SD
     0-0-0/w STRC(216)         1 SEARCH_                    0-0-0/w STRC(396)         1 SECTION
     0-0-0/w STRC(396)         1 SEGMENT                    0-0-0/w STRC(360)         1 SEGMENT_LTS
     0-0-0/w STRC(396)   r     1 ST                         0-0-0/w STRC(288)         1 START_STMT
     0-0-0/w STRC(72)          1 STP2                       0-0-0/w STRC(252)         1 STRING_STMT
     0-0-0/w STRC(288)         1 SUBTRACT_STMT              0-0-0/w STRC(252)   r     1 SUM_LTS
     0-0-0/w STRC(396)         1 SWITCH                     0-0-0/w STRC(396)         1 SYMBOLIC_CHAR
     0-0-0/w STRC(396)         1 SYMDEF_                    0-0-0/w STRC(396)         1 SYMREF_
     0-0-0/w STRC(396)         1 TEMP                       0-0-0/w STRC(144)         1 TRINARY_ILL
     0-0-0/w STRC(72)          1 UNARY_ILL                  0-0-0/w STRC(288)         1 UNARY_OP
     0-0-0/w STRC(288)         1 UNSTRING_STMT              0-0-0/d STRC(612)         1 USE
     0-0-0/w STRC(216)         1 USER_CALL                  0-0-0/w STRC(252)         1 USE_SUPP
PL6.E3A0      #001=Z8DT$REPORT_REC File=Z8DT.:Z8A6TSI                            SAT 08/09/97 11:22 Page:454
     0-0-0/w STRC(108)         1 VAL                        0-0-0/w STRC(108)         1 VAL_END
     0-0-0/w STRC(396)   r     1 VARIABLE                   0-0-0/w STRC(72)          1 WHEN
     0-0-0/w STRC(288)         1 WRITE_STMT                 0-0-0/w STRC(72)    r     1 XREF


   Procedure Z8DT$REPORT_REC requires 6127 words for executable code.
   Procedure Z8DT$REPORT_REC is declared NOAUTO and requires 200 words of local(STATIC) storage.

