PL6.E3A0      #002=Z8DT$CONTROL_ITEMS File=Z8DT.:Z8A6TSI                         SAT 08/09/97 11:28 Page:455
     2928        1        /*T***********************************************************/
     2929        2        /*T*                                                         */
     2930        3        /*T* Copyright (c) Bull HN Information Systems Inc., 1997    */
     2931        4        /*T*                                                         */
     2932        5        /*T***********************************************************/
     2933        6
     2934        7        /*M*  Z8DT$CONTROL_ITEMS---process CONTROL items */
     2935        8
     2936        9
     2937       10        /*P*
     2938       11               NAME:  Z8DT$CONTROL_ITEMS
     2939       12             AUTHOR:  Min Lee.
     2940       13            PURPOSE:  To process the CONTROL items in the CONTROL clause
     2941       14                      in RD entry or in report group entry.
     2942       15        */
     2943       16
     2944       17        /*D*
     2945       18               NAME:  Z8DT$CONTROL_ITEMS
     2946       19               CALL:  CALL Z8DT$CONTROL_ITEMS
     2947       20              INPUT:  O1COM.CONTROL_LIST$---point to a list of lists of the
     2948       21                      control items in the CONTROL clauses of the RD entries.
     2949       22                      O1COM.CONTROL_NAME$---point to a list of control items
     2950       23                      of the CONTROL clause of the control group entry.
     2951       24        DESCRIPTION:  This routine will validate the CONTROL clause of the RD
     2952       25                      entry and then build up the CONTROL_NAME_LTS for every
     2953       26                      control item.
     2954       27                      After all the CONTROL clauses have been processed this
     2955       28                      routine will validate the CONTROL clause of the report
     2956       29                      group and update the CONTROL_NAME_LTS.
     2957       30                      This routine is called at the end of data division by
     2958       31                      Z8EM$SEMANTIC_DATA_DIV.
     2959       32         */
     2960       33         %EJECT;
PL6.E3A0      #002=Z8DT$CONTROL_ITEMS File=Z8DT.:Z8A6TSI                         SAT 08/09/97 11:28 Page:456
     2961       34
     2962       35         /*==================*/
     2963       36           Z8DT$CONTROL_ITEMS:  PROC;
     2964       37         /*==================*/
     2965       38
     2966       39
     2967       40
     2968       41        %EQU PHASE = 1;
     2969       42        %INCLUDE Z8A_DEFC;
     2970      110        %INCLUDE Z8A_SUPP_MAC;
     2971     2510        %INCLUDE Z8A_TYPES;
     2972     2684        %INCLUDE Z8A_COMCOM;
     2973     3334        %INCLUDE Z8A_ST;
     2974     6993        %INCLUDE Z8A_QLT;
     2975     7099        %INCLUDE Z8A_LTS;
     2976     9176        %INCLUDE Z8A_DNT;
     2977     9397        %INCLUDE Z8A_ERR_NUMS;
     2978    10161        %INCLUDE Z8A_XREF;
     2979    10233
     2980    10234        %INCLUDE Z8E_STACKS;
     2981    12500        %INCLUDE Z8E_WINDOW;
     2982    14570        %INCLUDE Z8E_O1COM;
     2983    15331        %INCLUDE Z8E_HEAP;
     2984    15387        %INCLUDE Z8E_ABSSYN;
     2985    15593        %INCLUDE Z8E_STATEMNT;
     2986    15662
     2987    15663    1   DCL Z8AE$ERROR                ENTRY (12);
     2988    15664
     2989    15665    1   DCL Z8ED$DISPOSE_ABSSYN_TREE         ENTRY (1);
     2990    15666    1   DCL Z8CO$QUALIFY_VARIABLE            ENTRY (2) ALTRET;
     2991    15667    1   DCL DNT$_FROM_RSWNO                  (0:0) PTR SYMREF READONLY;
     2992    15668
     2993    15669    1   DCL LIST$$             PTR;
     2994    15670    1   DCL NAME$              PTR;
     2995    15671    1   DCL ST$$               PTR;
     2996    15672    1   DCL REPORT_LTS$        PTR;
     2997    15673    1   DCL CTR_TYPE           UBIN WORD;
PL6.E3A0      #002=Z8DT$CONTROL_ITEMS File=Z8DT.:Z8A6TSI                         SAT 08/09/97 11:28 Page:457
     2998    15674    1   DCL CTR_LTS$           PTR;
     2999    15675    1   DCL LTS$$              PTR;
     3000    15676    1   DCL I                  SBIN WORD;
     3001    15677
     3002    15678        %EJECT;
PL6.E3A0      #002=Z8DT$CONTROL_ITEMS File=Z8DT.:Z8A6TSI                         SAT 08/09/97 11:28 Page:458
     3003    15679
     3004    15680         /*====================*/
     3005    15681    1      PROCESS_CONTROL_LIST:  PROC (QUAL_LIST$, REPORT_LTS$$) ;
     3006    15682         /*====================*/
     3007    15683         /*
     3008    15684               NAME: PROCESS_CONTROL_LIST
     3009    15685
     3010    15686           DESCRIPTION: This routine validate the CONTROL clause of the RD
     3011    15687                        entry and create the CONTROL_NAME_LTS for every
     3012    15688                        control data item.
     3013    15689          */
     3014    15690
     3015    15691    2      DCL REPORT_LTS$$         PTR;
     3016    15692    2      DCL QUAL_LIST$           PTR;  /* To <qualified_id_list> */
     3017    15693    2      DCL QUAL_ID$             PTR;
     3018    15694    2      DCL ST$$                 PTR;
     3019    15695    2      DCL ID_COUNT             SBIN WORD;
     3020    15696    2      DCL T$$                  PTR;
     3021    15697    2      DCL 1 PTR_ARRAY     BASED (T$$)   ALIGNED,
     3022    15698    2            2 P$$         (0 : %(PAGE_SIZE - 1))  PTR;
     3023    15699    2      DCL LEN                  SBIN WORD;
     3024    15700    2      DCL LTS$$                PTR;
     3025    15701    2       DCL HLEN                UBIN WORD;
     3026    15702    2       DCL CTR_LTS$            PTR;
     3027    15703
     3028    15704    2       HLEN = QUAL_LIST$ -> LX_LIST.COUNT + 1;
     3029    15705    2       CALL Z8ED$NEW_HEAP (T$$, HLEN);
     3030    15706
     3031    15707    2       ID_COUNT = 0;
     3032    15708    2       QUAL_ID$ = QUAL_LIST$ -> LX_LIST.HEAD$;
     3033    15709
     3034    15710    3       DO WHILE (QUAL_ID$ ~= ADDR(NIL));
     3035    15711
     3036    15712    3         CALL Z8CO$QUALIFY_VARIABLE (QUAL_ID$, ST$$);
     3037    15713              %ADD_XREF (SYM = ST$$,
     3038    15714                         ISN = QUAL_ID$ -> LX_LIST.HEAD$ -> LX_ITEM.LINE,
     3039    15715                         TYPE = %XREF_DCL);
PL6.E3A0      #002=Z8DT$CONTROL_ITEMS File=Z8DT.:Z8A6TSI                         SAT 08/09/97 11:28 Page:459
     3040    15733
     3041    15734    3         CALL VALIDATE_CONTROL_NAME (ST$$, QUAL_ID$, ID_COUNT, T$$)
     3042    15735
     3043    15736    3           WHENRETURN
     3044    15737    4             DO;
     3045    15738    4               ID_COUNT = ID_COUNT + 1;
     3046    15739    4               T$$ -> PTR_ARRAY.P$$(ID_COUNT) = ST$$;
     3047    15740    4             END;
     3048    15741
     3049    15742    3         QUAL_ID$ = QUAL_ID$ -> LX_LIST.LINK;
     3050    15743
     3051    15744    3       END;  /* while */
     3052    15745
     3053    15746    2       IF ID_COUNT ~= 0 THEN
     3054    15747    3         DO;
     3055    15748    3           LEN = ID_COUNT + 3;
     3056    15749                %NEW_LTS_PTR_ARRAY (@POINTER  = LTS$$,
     3057    15750                                    @SIZE     = LEN);
     3058    15843
     3059    15844    4           DO LEN = 1 TO ID_COUNT;
     3060    15845                  %NEW_CONTROL_NAME_LTS (@POINTER = CTR_LTS$,
     3061    15846                                         @LEVEL   = LEN,
     3062    15847                                         @ST$     = "T$$ -> PTR_ARRAY.P$$(LEN)");
     3063    15954    4             LTS$$ -> LTS_PTR_ARRAY.P$(LEN) = CTR_LTS$;
     3064    15955    4           END;
     3065    15956
     3066    15957    3           REPORT_LTS$$ -> REPORT_LTS.CONTROL$ = LTS$$;
     3067    15958
     3068    15959    3         END;
     3069    15960
     3070    15961    2            IF REPORT_LTS$$ -> REPORT_LTS.B.CONTROL_FINAL THEN
     3071    15962    2              REPORT_LTS$$ -> REPORT_LTS.NO_CTR_ITEM = ID_COUNT + 1;
     3072    15963    2            ELSE
     3073    15964    2              REPORT_LTS$$ -> REPORT_LTS.NO_CTR_ITEM = ID_COUNT;
     3074    15965
     3075    15966
     3076    15967    2       CALL Z8ED$DISPOSE_HEAP(T$$, HLEN);
PL6.E3A0      #002=Z8DT$CONTROL_ITEMS File=Z8DT.:Z8A6TSI                         SAT 08/09/97 11:28 Page:460
     3077    15968
     3078    15969    2     END PROCESS_CONTROL_LIST;
     3079    15970          %EJECT;
PL6.E3A0      #002=Z8DT$CONTROL_ITEMS File=Z8DT.:Z8A6TSI                         SAT 08/09/97 11:28 Page:461
     3080    15971
     3081    15972         /*=====================*/
     3082    15973    1      VALIDATE_CONTROL_NAME:  PROC (ST$$, QUAL_ID$, ID_COUNT, T$$) ALTRET;
     3083    15974         /*=====================*/
     3084    15975         /*
     3085    15976               NAME: VALIDATE_CONTROL_NAME
     3086    15977
     3087    15978           DESCRIPTION: This routine validate the control name in the
     3088    15979                        CONTROL clause and return the number and the st items
     3089    15980                        of the valid control items of that clause.
     3090    15981          */
     3091    15982
     3092    15983
     3093    15984    2      DCL CHK_ST$             PTR;
     3094    15985    2      DCL ST$$                PTR;
     3095    15986    2      DCL QUAL_ID$            PTR;
     3096    15987    2      DCL ID_COUNT            SBIN WORD;
     3097    15988    2      DCL T$$                 PTR;
     3098    15989    2      DCL I                   SBIN WORD;
     3099    15990    2      DCL 1 PTR_ARRAY  BASED  ALIGNED,
     3100    15991    2            2 P$$      (0 : %(PAGE_SIZE - 1))  PTR;
     3101    15992    2      DCL SON$                PTR;
     3102    15993    2      DCL DEPEND$             PTR;
     3103    15994
     3104    15995
     3105    15996
     3106    15997    2       IF ST$$ -> SCALAR.B.COMPILER_CREATED  THEN
     3107    15998    3         DO;
     3108    15999    3           ST$$ -> SCALAR.DNT$ -> DNT.ST$ =
     3109    16000    3                ST$$ -> SCALAR.DNT$ -> DNT.ST$ -> ST.NEXT;
     3110    16001    3           ALTRETURN;
     3111    16002    3         END;
     3112    16003
     3113    16004
     3114    16005    2       IF ST$$ -> ST.ID ~= %SCALAR AND ST$$ -> ST.ID ~= %ARRAY THEN
     3115    16006    3         DO;
     3116    16007    3           CALL Z8AE$ERROR (%E$ERR_NAME_IN_CONTROL,
PL6.E3A0      #002=Z8DT$CONTROL_ITEMS File=Z8DT.:Z8A6TSI                         SAT 08/09/97 11:28 Page:462
     3117    16008    3                            QUAL_ID$ -> LX_LIST.HEAD$ -> LX_ITEM.LINE,
     3118    16009    3                            QUAL_ID$ -> LX_LIST.HEAD$ -> LX_ITEM.COLUMN);
     3119    16010    3           ALTRETURN;
     3120    16011    3         END;
     3121    16012    2      ELSE
     3122    16013    2        IF ST$$ -> SCALAR.TYPE = %TYX AND ST$$ -> SCALAR.LTS$ ~= ADDR(NIL) THEN
     3123    16014    3           DO;
     3124    16015    3             CALL Z8AE$ERROR (%E$ERR_NAME_IN_CONTROL,
     3125    16016    3                              QUAL_ID$ -> LX_LIST.HEAD$ -> LX_ITEM.LINE,
     3126    16017    3                              QUAL_ID$ -> LX_LIST.HEAD$ -> LX_ITEM.COLUMN);
     3127    16018    3             ALTRETURN;
     3128    16019    3           END;
     3129    16020
     3130    16021    3       DO I = 1 TO ID_COUNT;
     3131    16022    3         IF ST$$ = T$$ -> PTR_ARRAY.P$$(I)  THEN
     3132    16023    4           DO;
     3133    16024    4             CALL Z8AE$ERROR (%E$DUP_CONTROL_NAME,
     3134    16025    4                              QUAL_ID$ -> LX_LIST.HEAD$ -> LX_ITEM.LINE,
     3135    16026    4                              QUAL_ID$ -> LX_LIST.HEAD$ -> LX_ITEM.COLUMN);
     3136    16027    4             ALTRETURN;
     3137    16028    4           END;
     3138    16029    3       END;
     3139    16030
     3140    16031    2       CHK_ST$ = ST$$;
     3141    16032
     3142    16033    2         IF CHK_ST$ -> SCALAR.B.REPORT_ITEM  THEN
     3143    16034    3           DO;
     3144    16035    3             CALL Z8AE$ERROR (%E$DCL_IN_REPORT,
     3145    16036    3                              QUAL_ID$ -> LX_LIST.HEAD$ -> LX_ITEM.LINE,
     3146    16037    3                              QUAL_ID$ -> LX_LIST.HEAD$ -> LX_ITEM.COLUMN);
     3147    16038    3             ALTRETURN;
     3148    16039    3           END;
     3149    16040
     3150    16041    3       DO WHILE (CHK_ST$ -> SCALAR.QLT$ -> QLT.FATHER ~= ADDR(NIL));
     3151    16042    3         SON$ = CHK_ST$;
     3152    16043    3         CHK_ST$ = CHK_ST$ -> SCALAR.QLT$ -> QLT.FATHER -> QLT.ST$;
     3153    16044
PL6.E3A0      #002=Z8DT$CONTROL_ITEMS File=Z8DT.:Z8A6TSI                         SAT 08/09/97 11:28 Page:463
     3154    16045    3         IF CHK_ST$ -> SCALAR.B.OCCURS_DEPENDING  AND
     3155    16046    3              SON$ -> ST.ID = %ARRAY  THEN
     3156    16047    4           DO;
     3157    16048    4             DEPEND$ = O1COM.OCCURS_DEPENDING$;
     3158    16049    5             DO WHILE (DEPEND$ ~= ADDR(NIL));
     3159    16050    5               IF SON$ = DEPEND$ -> DEFERED_QUAL_ID.ASSOC_VAR_ST$  THEN
     3160    16051    6                 DO;
     3161    16052    6                   CALL Z8AE$ERROR (%E$VAR_OCCUR_NAME,
     3162    16053    6                                    QUAL_ID$ -> LX_LIST.HEAD$ -> LX_ITEM.LINE,
     3163    16054    6                                    QUAL_ID$ -> LX_LIST.HEAD$ -> LX_ITEM.COLUMN);
     3164    16055    6                   ALTRETURN;
     3165    16056    6                 END;
     3166    16057
     3167    16058    5               DEPEND$ = DEPEND$ -> DEFERED_QUAL_ID.LINK;
     3168    16059    5             END;  /* while */
     3169    16060    4           END;
     3170    16061    3       END;  /* while */
     3171    16062
     3172    16063
     3173    16064    2     RETURN;
     3174    16065    2     END VALIDATE_CONTROL_NAME;
     3175    16066          %EJECT;
PL6.E3A0      #002=Z8DT$CONTROL_ITEMS File=Z8DT.:Z8A6TSI                         SAT 08/09/97 11:28 Page:464
     3176    16067
     3177    16068         /*==============*/
     3178    16069    1      CTR_NAME_CHECK:  PROC (ST$$, LTS$$, QUAL_ID$, CTR_LTS$, CTR_TYPE) ALTRET;
     3179    16070         /*==============*/
     3180    16071         /*
     3181    16072               NAME: CONTROL_NAME_CHECK
     3182    16073
     3183    16074           DESCRIPTION: This routine validate the control name in the
     3184    16075                        CONTROL clause of the 01 level report group item
     3185    16076                        and returns the LTS item for that control name.
     3186    16077          */
     3187    16078
     3188    16079
     3189    16080    2     DCL ST$$              PTR;
     3190    16081    2     DCL LTS$$             PTR;
     3191    16082    2     DCL QUAL_ID$           PTR;
     3192    16083    2     DCL LEN               UBIN HALF UNAL;
     3193    16084    2     DCL CTR$              PTR;
     3194    16085    2     DCL CTR_TYPE          UBIN;
     3195    16086    2     DCL RSV_WRD#          SBIN WORD;
     3196    16087    2     DCL CTR_LTS$          PTR;
     3197    16088
     3198    16089
     3199    16090
     3200    16091    2      CTR_LTS$ = ADDR(NIL);
     3201    16092
     3202    16093    2      CALL Z8CO$QUALIFY_VARIABLE (QUAL_ID$, ST$$)
     3203    16094    2        WHENALTRETURN
     3204    16095    3          DO;
     3205    16096    3            IF ST$$ -> SCALAR.B.COMPILER_CREATED THEN
     3206    16097    4              DO;
     3207    16098    4                ST$$ -> SCALAR.DNT$ -> DNT.ST$ =
     3208    16099    4                        ST$$ -> SCALAR.DNT$ -> DNT.ST$ -> ST.NEXT;
     3209    16100    4              END;
     3210    16101    3            ALTRETURN;
     3211    16102    3          END;
     3212    16103
PL6.E3A0      #002=Z8DT$CONTROL_ITEMS File=Z8DT.:Z8A6TSI                         SAT 08/09/97 11:28 Page:465
     3213    16104    2      IF LTS$$ -> REPORT_LTS.CONTROL$ = ADDR(NIL) THEN
     3214    16105    3        DO;
     3215    16106    3          CALL Z8AE$ERROR (%E$NAME_NOT_IN_CONTROL_CLAUSE,
     3216    16107    3                           QUAL_ID$ -> LX_LIST.HEAD$ -> LX_ITEM.LINE,
     3217    16108    3                           QUAL_ID$ -> LX_LIST.HEAD$ -> LX_ITEM.COLUMN);
     3218    16109    3          ALTRETURN;
     3219    16110    3        END;
     3220    16111
     3221    16112    2      IF ST$$ -> SCALAR.B.REPORT_ITEM  THEN
     3222    16113    3        DO;
     3223    16114    3          CALL Z8AE$ERROR (%E$DCL_IN_REPORT,
     3224    16115    3                           QUAL_ID$ -> LX_LIST.HEAD$ -> LX_ITEM.LINE,
     3225    16116    3                           QUAL_ID$ -> LX_LIST.HEAD$ -> LX_ITEM.COLUMN);
     3226    16117    3          ALTRETURN;
     3227    16118    3        END;
     3228    16119
     3229    16120    2      CTR$ = LTS$$ -> REPORT_LTS.CONTROL$;
     3230    16121    2      LEN = CTR$ -> LTS_PTR_ARRAY.N - 3;
     3231    16122
     3232    16123    3      DO I = 1 TO LEN;
     3233    16124    3        IF ST$$ = CTR$ -> LTS_PTR_ARRAY.P$(I) -> CONTROL_NAME_LTS.ST$ THEN
     3234    16125    3          GOTO NEXT_STEP;
     3235    16126    3      END;
     3236    16127    2      CALL Z8AE$ERROR (%E$NAME_NOT_IN_CONTROL_CLAUSE,
     3237    16128    2                       QUAL_ID$ -> LX_LIST.HEAD$ -> LX_ITEM.LINE,
     3238    16129    2                       QUAL_ID$ -> LX_LIST.HEAD$ -> LX_ITEM.COLUMN);
     3239    16130    2      ALTRETURN;
     3240    16131
     3241    16132    2    NEXT_STEP:
     3242    16133    2      CTR_LTS$ = CTR$ -> LTS_PTR_ARRAY.P$(I);
     3243    16134    2      IF CTR_TYPE = %CONTROL_HEADING THEN
     3244    16135    3        DO;
     3245    16136    3        IF CTR_LTS$ -> CONTROL_NAME_LTS.CONTROL_HEADING$ ~= ADDR(NIL) THEN
     3246    16137    4          DO;
     3247    16138    4            CALL Z8AE$ERROR(%E$DUP_REF_CONTROL_NAME,
     3248    16139    4                            QUAL_ID$ -> LX_LIST.HEAD$ -> LX_ITEM.LINE,
     3249    16140    4                            QUAL_ID$ -> LX_LIST.HEAD$ -> LX_ITEM.COLUMN,
PL6.E3A0      #002=Z8DT$CONTROL_ITEMS File=Z8DT.:Z8A6TSI                         SAT 08/09/97 11:28 Page:466
     3250    16141    4                            DNT$_FROM_RSWNO(%RSV_WRD_HEADING));
     3251    16142    4            ALTRETURN;
     3252    16143    4          END;
     3253    16144    3        END;
     3254    16145    2      ELSE
     3255    16146    3        DO;
     3256    16147    3        IF CTR_LTS$ -> CONTROL_NAME_LTS.CONTROL_FOOTING$ ~= ADDR(NIL) THEN
     3257    16148    4          DO;
     3258    16149    4            CALL Z8AE$ERROR(%E$DUP_REF_CONTROL_NAME,
     3259    16150    4                            QUAL_ID$ -> LX_LIST.HEAD$ -> LX_ITEM.LINE,
     3260    16151    4                            QUAL_ID$ -> LX_LIST.HEAD$ -> LX_ITEM.COLUMN,
     3261    16152    4                            DNT$_FROM_RSWNO(%RSV_WRD_FOOTING));
     3262    16153    4            ALTRETURN;
     3263    16154    4          END;
     3264    16155    3        END;
     3265    16156
     3266    16157    2    END CTR_NAME_CHECK;
     3267    16158         %EJECT;
PL6.E3A0      #002=Z8DT$CONTROL_ITEMS File=Z8DT.:Z8A6TSI                         SAT 08/09/97 11:28 Page:467
     3268    16159
     3269    16160         /*===============*/
     3270    16161    1      CTR_LTS_RECOVER: PROC (CTR_LTS$, REPORT$$);
     3271    16162         /*===============*/
     3272    16163         /*
     3273    16164               NAME: CTR_LTS_RECOVER
     3274    16165
     3275    16166           DESCRIPTION: When a control item in the control clause of the
     3276    16167                        01 level group entry is an error item, the error
     3277    16168                        recovery needs this routine to create a LTS item
     3278    16169                        for it.
     3279    16170         */
     3280    16171
     3281    16172    2      DCL CTR_LTS$        PTR;
     3282    16173    2      DCL NEXT$           PTR;
     3283    16174    2      DCL REPORT$$        PTR;
     3284    16175    2      DCL LEVEL           SBIN WORD;
     3285    16176
     3286    16177
     3287    16178
     3288    16179    2      IF CTR_LTS$ = ADDR(NIL) THEN
     3289    16180    2        LEVEL = 0;
     3290    16181    2      ELSE
     3291    16182    2        LEVEL = CTR_LTS$ -> CONTROL_NAME_LTS.LEVEL;
     3292    16183
     3293    16184    2      NEXT$ = REPORT$$ -> REPORT_LTS.CONTROL_ERROR$;
     3294    16185
     3295    16186    2      IF NEXT$ = ADDR(NIL) THEN
     3296    16187    3        DO;
     3297    16188               %NEW_CONTROL_NAME_LTS (@POINTER = REPORT$$ -> REPORT_LTS.CONTROL_ERROR$,
     3298    16189                                      @LEVEL   = LEVEL);
     3299    16296
     3300    16297    3          CTR_LTS$ = REPORT$$ -> REPORT_LTS.CONTROL_ERROR$;
     3301    16298    3          RETURN;
     3302    16299    3        END;
     3303    16300
     3304    16301    3      DO WHILE (NEXT$ -> CONTROL_NAME_LTS.LINK ~= ADDR(NIL));
PL6.E3A0      #002=Z8DT$CONTROL_ITEMS File=Z8DT.:Z8A6TSI                         SAT 08/09/97 11:28 Page:468
     3305    16302
     3306    16303    3          NEXT$ = NEXT$ -> CONTROL_NAME_LTS.LINK;
     3307    16304
     3308    16305    3      END;
     3309    16306
     3310    16307           %NEW_CONTROL_NAME_LTS (@POINTER = NEXT$ -> CONTROL_NAME_LTS.LINK,
     3311    16308                                  @LEVEL   = LEVEL);
     3312    16415
     3313    16416    2      CTR_LTS$ = NEXT$ -> CONTROL_NAME_LTS.LINK;
     3314    16417
     3315    16418    2    END CTR_LTS_RECOVER;
     3316    16419         %EJECT;
PL6.E3A0      #002=Z8DT$CONTROL_ITEMS File=Z8DT.:Z8A6TSI                         SAT 08/09/97 11:28 Page:469
     3317    16420
     3318    16421           /*    main routine    */
     3319    16422
     3320    16423
     3321    16424    1      LIST$$ = O1COM.CONTROL_LIST$;
     3322    16425
     3323    16426    2      DO WHILE (LIST$$ ~= ADDR(NIL));
     3324    16427
     3325    16428    2        CALL PROCESS_CONTROL_LIST (LIST$$ -> DEFERED_IDENTIFIER.DEFERED_ID$,
     3326    16429    2                                   LIST$$ -> DEFERED_IDENTIFIER.ASSOC_VAR_LTS$);
     3327    16430
     3328    16431    2        LIST$$ = LIST$$ -> DEFERED_IDENTIFIER.LINK;
     3329    16432    2      END;
     3330    16433
     3331    16434
     3332    16435    1      NAME$ = O1COM.CONTROL_NAME$;
     3333    16436
     3334    16437    2      DO WHILE (NAME$ ~= ADDR(NIL));
     3335    16438
     3336    16439    2          LTS$$ = NAME$ -> DEFERED_IDENTIFIER.ASSOC_VAR_LTS$;
     3337    16440    2          REPORT_LTS$ = LTS$$ -> REPORT_01_LTS.REPORT_LTS$;
     3338    16441    2          CTR_TYPE = LTS$$ -> REPORT_01_LTS.GROUP_TYPE;
     3339    16442
     3340    16443    2          CALL CTR_NAME_CHECK (ST$$, REPORT_LTS$,
     3341    16444    2                               NAME$ -> DEFERED_IDENTIFIER.DEFERED_ID$,
     3342    16445    2                               CTR_LTS$, CTR_TYPE)
     3343    16446    2            WHENALTRETURN
     3344    16447    3              DO;
     3345    16448
     3346    16449    3                CALL CTR_LTS_RECOVER (CTR_LTS$, REPORT_LTS$);
     3347    16450
     3348    16451    3              END;
     3349    16452
     3350    16453    2          LTS$$ -> REPORT_01_LTS.CONTROL_LTS$ = CTR_LTS$;
     3351    16454
     3352    16455    2          IF LTS$$ -> REPORT_01_LTS.GROUP_TYPE = %CONTROL_HEADING THEN
     3353    16456    2              CTR_LTS$ -> CONTROL_NAME_LTS.CONTROL_HEADING$ = LTS$$;
PL6.E3A0      #002=Z8DT$CONTROL_ITEMS File=Z8DT.:Z8A6TSI                         SAT 08/09/97 11:28 Page:470
     3354    16457    2          ELSE
     3355    16458    2              CTR_LTS$ -> CONTROL_NAME_LTS.CONTROL_FOOTING$ = LTS$$;
     3356    16459
     3357    16460    2          NAME$ = NAME$ -> DEFERED_IDENTIFIER.LINK;
     3358    16461    2      END;   /* while */
     3359    16462
     3360    16463    1      CALL Z8ED$DISPOSE_ABSSYN_TREE (O1COM.CONTROL_LIST$);
     3361    16464    1      CALL Z8ED$DISPOSE_ABSSYN_TREE (O1COM.CONTROL_NAME$);
     3362    16465
     3363    16466    1    END Z8DT$CONTROL_ITEMS;
     3364    16467         %EJECT;
PL6.E3A0      #002=Z8DT$CONTROL_ITEMS File=Z8DT.:Z8A6TSI                         SAT 08/09/97 11:28 Page:471
     3365    16468        %EOD;

PL6.E3A0      #002=Z8DT$CONTROL_ITEMS File=Z8DT.:Z8A6TSI                         SAT 08/09/97 11:28 Page:472
--  Include file information  --

   Z8E_STATEMNT.:Z8A6TOU  is referenced.
   Z8E_ABSSYN.:Z8A6TOU  cannot be made into a system file and is referenced.
   Z8E_HEAP.:Z8A6TOU  cannot be made into a system file and is referenced.
   Z8E_O1COM.:Z8A6TOU  cannot be made into a system file and is referenced.
   Z8E_WINDOW.:Z8A6TOU  is referenced.
   Z8A_LEX_SYMB.:Z8A6TOU  cannot be made into a system file and is referenced.
   Z8E_STACKS.:Z8A6TOU  cannot be made into a system file and is referenced.
   Z8A_XREF.:Z8A6TOU  cannot be made into a system file and is referenced.
   Z8A_ERR_NUMS.:Z8A6TOU  is referenced.
   Z8A_DNT.:Z8A6TOU  cannot be made into a system file and is referenced.
   Z8A_LTS.:Z8A6TOU  cannot be made into a system file and is referenced.
   Z8A_QLT.:Z8A6TOU  cannot be made into a system file and is referenced.
   Z8A_ST.:Z8A6TOU  cannot be made into a system file and is referenced.
   Z8A_COMCOM.:Z8A6TOU  cannot be made into a system file and is referenced.
   Z8A_TYPES.:Z8A6TOU  is referenced.
   X8A_COM_MACS.:X8A6TOU  is referenced.
   Z8A_NAMES.:Z8A6TOU  is referenced.
   Z8A_SUPP_MAC.:Z8A6TOU  is referenced.
   Z8A_DEFC.:Z8A6TOU  cannot be made into a system file and is referenced.
      No diagnostics issued in procedure Z8DT$CONTROL_ITEMS.

   Procedure Z8DT$CONTROL_ITEMS requires 742 words for executable code.
   Procedure Z8DT$CONTROL_ITEMS requires 38 words of local(AUTO) storage.

PL6.E3A0      #002=Z8DT$CONTROL_ITEMS File=Z8DT.:Z8A6TSI                         SAT 08/09/97 11:28 Page:473

 Object Unit name= Z8DT$CONTROL_ITEMS                         File name= Z8DT.:Z8A6TOU
 UTS= AUG 09 '97 11:28:58.24 SAT                              Compiler= PL-6/E31         Sev=      00
 SharedLib= :SHARED_SYSTEM                                    Alt SharedLib=


    ****  Control sections  ****

 Sect   Type Bound  Init  Size OctSiz  Section name(segment info)
    0  LblCom even  none     1      1  ITERATION
    1  LblCom even  none     1      1  ST$
    2  LblCom even  none     5      5  ST_
    3  LblCom even  none     1      1  QLT$
    4  LblCom even  none     1      1  PREV_01_QLT$
    5  LblCom even  none     5      5  QLT_
    6  LblCom even  none     1      1  LTS$
    7  LblCom even  none     5      5  LTS_
    8  LblCom even  none     1      1  DNT$
    9  LblCom even  none     5      5  DNT_
   10  LblCom even  none     1      1  DNT_BUCKET_NUMBER
   11  LblCom even  none     1      1  DNT_OF_1$
   12  LblCom even  none     1      1  XREF$
   13  LblCom even  none     5      5  XREF_
   14  LblCom even  none    90    132  LEX_SYMBOL
   15  LblCom even  none     1      1  CURRENT_LEX_SYMBOL$
   16  LblCom even  none    90    132  TEMP_LEX_SYMBOL
   17  LblCom even  none    90    132  TEMP_LEX_SYMBOL2
   18  LblCom even  none     1      1  HEAP$
   19  LblCom even  none     8     10  TEMP_LX_NODE
   20   Proc  even  none   742   1346  Z8DT$CONTROL_ITEMS
   21  RoData even  none    23     27  Z8DT$CONTROL_ITEMS

    ****  Entry defs  ****

                              Check   Calling
                             calling  sequence
  Sect OctLoc Primary Altret sequence   type   Parms  Name
    20      0   yes            yes      Std        0  Z8DT$CONTROL_ITEMS
PL6.E3A0      #002=Z8DT$CONTROL_ITEMS File=Z8DT.:Z8A6TSI                         SAT 08/09/97 11:28 Page:474

  ****  Entry refs  ****

         Check        Calling
        calling       sequence
Altret sequence SRef   type   Args  Name
         yes           Std       1 Z8ED$DISPOSE_ABSSYN_TREE
         yes           Std       2 Z8ED$NEW_HEAP
 yes     yes           Std       2 Z8CO$QUALIFY_VARIABLE
         yes           Std       1 Z8AR$RESERVER
         yes           Std       2 Z8ED$DISPOSE_HEAP
         yes           Std      12 Z8AE$ERROR
                       nStd      0 X66_AUTO_0
                       nStd      0 X66_ARET

  ****  Data refs  ****

  Flags:  r = read only, s = secondary
Flgs Name                             Flgs Name                             Flgs Name
     COMCOM                           r    LTS_STEP                              O1COM
     HIER_STK_PTR                          HIER_STK                              PAGE_FORMAT
     REP_STK_PTR                           REP_STK                          r    DNT$_FROM_RSWNO

  ****  Segment refs  ****

  Flags:  r = read only, s = secondary
Flgs Name                             Flgs Name                             Flgs Name
     NULLSID                               ISSID
PL6.E3A0      #002=Z8DT$CONTROL_ITEMS File=Z8DT.:Z8A6TSI                         SAT 08/09/97 11:28 Page:475


     2928        1        /*T***********************************************************/
     2929        2        /*T*                                                         */
     2930        3        /*T* Copyright (c) Bull HN Information Systems Inc., 1997    */
     2931        4        /*T*                                                         */
     2932        5        /*T***********************************************************/
     2933        6
     2934        7        /*M*  Z8DT$CONTROL_ITEMS---process CONTROL items */
     2935        8
     2936        9
     2937       10        /*P*
     2938       11               NAME:  Z8DT$CONTROL_ITEMS
     2939       12             AUTHOR:  Min Lee.
     2940       13            PURPOSE:  To process the CONTROL items in the CONTROL clause
     2941       14                      in RD entry or in report group entry.
     2942       15        */
     2943       16
     2944       17        /*D*
     2945       18               NAME:  Z8DT$CONTROL_ITEMS
     2946       19               CALL:  CALL Z8DT$CONTROL_ITEMS
     2947       20              INPUT:  O1COM.CONTROL_LIST$---point to a list of lists of the
     2948       21                      control items in the CONTROL clauses of the RD entries.
     2949       22                      O1COM.CONTROL_NAME$---point to a list of control items
     2950       23                      of the CONTROL clause of the control group entry.
     2951       24        DESCRIPTION:  This routine will validate the CONTROL clause of the RD
     2952       25                      entry and then build up the CONTROL_NAME_LTS for every
     2953       26                      control item.
     2954       27                      After all the CONTROL clauses have been processed this
     2955       28                      routine will validate the CONTROL clause of the report
     2956       29                      group and update the CONTROL_NAME_LTS.
     2957       30                      This routine is called at the end of data division by
     2958       31                      Z8EM$SEMANTIC_DATA_DIV.
     2959       32         */
     2960       33         %EJECT;
PL6.E3A0      #002=Z8DT$CONTROL_ITEMS File=Z8DT.:Z8A6TSI                         SAT 08/09/97 11:28 Page:476
     2961       34
     2962       35         /*==================*/
     2963       36           Z8DT$CONTROL_ITEMS:  PROC;

     36 20 000000   000000 700200 xent  Z8DT$CONTRO* TSX0  ! X66_AUTO_0
        20 000001   000046 000000                    ZERO    38,0
        20 000002   001234 710000 20                 TRA     s:16424

     2964       37         /*==================*/
     2965       38
     2966       39
     2967       40
     2968       41        %EQU PHASE = 1;
     2969       42        %INCLUDE Z8A_DEFC;
     2970      110        %INCLUDE Z8A_SUPP_MAC;
     2971     2510        %INCLUDE Z8A_TYPES;
     2972     2684        %INCLUDE Z8A_COMCOM;
     2973     3334        %INCLUDE Z8A_ST;
     2974     6993        %INCLUDE Z8A_QLT;
     2975     7099        %INCLUDE Z8A_LTS;
     2976     9176        %INCLUDE Z8A_DNT;
     2977     9397        %INCLUDE Z8A_ERR_NUMS;
     2978    10161        %INCLUDE Z8A_XREF;
     2979    10233
     2980    10234        %INCLUDE Z8E_STACKS;
     2981    12500        %INCLUDE Z8E_WINDOW;
     2982    14570        %INCLUDE Z8E_O1COM;
     2983    15331        %INCLUDE Z8E_HEAP;
     2984    15387        %INCLUDE Z8E_ABSSYN;
     2985    15593        %INCLUDE Z8E_STATEMNT;
     2986    15662
     2987    15663    1   DCL Z8AE$ERROR                ENTRY (12);
     2988    15664
     2989    15665    1   DCL Z8ED$DISPOSE_ABSSYN_TREE         ENTRY (1);
     2990    15666    1   DCL Z8CO$QUALIFY_VARIABLE            ENTRY (2) ALTRET;
     2991    15667    1   DCL DNT$_FROM_RSWNO                  (0:0) PTR SYMREF READONLY;
     2992    15668
PL6.E3A0      #002=Z8DT$CONTROL_ITEMS File=Z8DT.:Z8A6TSI                         SAT 08/09/97 11:28 Page:477
     2993    15669    1   DCL LIST$$             PTR;
     2994    15670    1   DCL NAME$              PTR;
     2995    15671    1   DCL ST$$               PTR;
     2996    15672    1   DCL REPORT_LTS$        PTR;
     2997    15673    1   DCL CTR_TYPE           UBIN WORD;
     2998    15674    1   DCL CTR_LTS$           PTR;
     2999    15675    1   DCL LTS$$              PTR;
     3000    15676    1   DCL I                  SBIN WORD;
     3001    15677
     3002    15678        %EJECT;
PL6.E3A0      #002=Z8DT$CONTROL_ITEMS File=Z8DT.:Z8A6TSI                         SAT 08/09/97 11:28 Page:478
     3003    15679
     3004    15680         /*====================*/
     3005    15681    1      PROCESS_CONTROL_LIST:  PROC (QUAL_LIST$, REPORT_LTS$$) ;

  15681 20 000003   200014 741300       PROCESS_CON* STX1  ! I+2,,AUTO

     3006    15682         /*====================*/
     3007    15683         /*
     3008    15684               NAME: PROCESS_CONTROL_LIST
     3009    15685
     3010    15686           DESCRIPTION: This routine validate the CONTROL clause of the RD
     3011    15687                        entry and create the CONTROL_NAME_LTS for every
     3012    15688                        control data item.
     3013    15689          */
     3014    15690
     3015    15691    2      DCL REPORT_LTS$$         PTR;
     3016    15692    2      DCL QUAL_LIST$           PTR;  /* To <qualified_id_list> */
     3017    15693    2      DCL QUAL_ID$             PTR;
     3018    15694    2      DCL ST$$                 PTR;
     3019    15695    2      DCL ID_COUNT             SBIN WORD;
     3020    15696    2      DCL T$$                  PTR;
     3021    15697    2      DCL 1 PTR_ARRAY     BASED (T$$)   ALIGNED,
     3022    15698    2            2 P$$         (0 : %(PAGE_SIZE - 1))  PTR;
     3023    15699    2      DCL LEN                  SBIN WORD;
     3024    15700    2      DCL LTS$$                PTR;
     3025    15701    2       DCL HLEN                UBIN WORD;
     3026    15702    2       DCL CTR_LTS$            PTR;
     3027    15703
     3028    15704    2       HLEN = QUAL_LIST$ -> LX_LIST.COUNT + 1;

  15704 20 000004   200015 470500                    LDP0    @QUAL_LIST$,,AUTO
        20 000005   000000 471500                    LDP1    0,,PR0
        20 000006   100002 235100                    LDA     2,,PR1
        20 000007   000001 035007                    ADLA    1,DL
        20 000010   200025 755100                    STA     HLEN,,AUTO

     3029    15705    2       CALL Z8ED$NEW_HEAP (T$$, HLEN);
PL6.E3A0      #002=Z8DT$CONTROL_ITEMS File=Z8DT.:Z8A6TSI                         SAT 08/09/97 11:28 Page:479

  15705 20 000011   200025 631500                    EPPR1   HLEN,,AUTO
        20 000012   200043 451500                    STP1    DEPEND$+3,,AUTO
        20 000013   200022 633500                    EPPR3   T$$,,AUTO
        20 000014   200042 453500                    STP3    DEPEND$+2,,AUTO
        20 000015   200042 630500                    EPPR0   DEPEND$+2,,AUTO
        20 000016   000000 631400 21                 EPPR1   0
        20 000017   000000 701000 xent               TSX1    Z8ED$NEW_HEAP
        20 000020   000000 011000                    NOP     0

     3030    15706
     3031    15707    2       ID_COUNT = 0;

  15707 20 000021   200021 450100                    STZ     ID_COUNT,,AUTO

     3032    15708    2       QUAL_ID$ = QUAL_LIST$ -> LX_LIST.HEAD$;

  15708 20 000022   200015 470500                    LDP0    @QUAL_LIST$,,AUTO
        20 000023   000000 471500                    LDP1    0,,PR0
        20 000024   100004 236100                    LDQ     4,,PR1
        20 000025   200017 756100                    STQ     QUAL_ID$,,AUTO

     3033    15709
     3034    15710    3       DO WHILE (QUAL_ID$ ~= ADDR(NIL));

  15710 20 000026   000121 710000 20                 TRA     s:15744

     3035    15711
     3036    15712    3         CALL Z8CO$QUALIFY_VARIABLE (QUAL_ID$, ST$$);

  15712 20 000027   200020 630500                    EPPR0   ST$$,,AUTO
        20 000030   200043 450500                    STP0    DEPEND$+3,,AUTO
        20 000031   200017 631500                    EPPR1   QUAL_ID$,,AUTO
        20 000032   200042 451500                    STP1    DEPEND$+2,,AUTO
        20 000033   200042 630500                    EPPR0   DEPEND$+2,,AUTO
        20 000034   000000 631400 21                 EPPR1   0
        20 000035   000000 701000 xent               TSX1    Z8CO$QUALIFY_VARIABLE
PL6.E3A0      #002=Z8DT$CONTROL_ITEMS File=Z8DT.:Z8A6TSI                         SAT 08/09/97 11:28 Page:480
        20 000036   000000 011000                    NOP     0

     3037    15713              %ADD_XREF (SYM = ST$$,
     3038    15714                         ISN = QUAL_ID$ -> LX_LIST.HEAD$ -> LX_ITEM.LINE,
     3039    15715                         TYPE = %XREF_DCL);

  15717 20 000037   000055 234000 xsym               SZN     COMCOM+45
        20 000040   000077 605000 20                 TPL     s:15734

  15721 20 000041   000002 236000 13                 LDQ     XREF_+2
        20 000042   000002 036007                    ADLQ    2,DL
        20 000043   000003 116000 13                 CMPQ    XREF_+3
        20 000044   000055 602000 20                 TNC     s:15723

  15722 20 000045   000003 236000 21                 LDQ     3
        20 000046   200042 756100                    STQ     DEPEND$+2,,AUTO
        20 000047   200042 630500                    EPPR0   DEPEND$+2,,AUTO
        20 000050   200043 450500                    STP0    DEPEND$+3,,AUTO
        20 000051   200043 630500                    EPPR0   DEPEND$+3,,AUTO
        20 000052   000002 631400 21                 EPPR1   2
        20 000053   000000 701000 xent               TSX1    Z8AR$RESERVER
        20 000054   000000 011000                    NOP     0

  15723 20 000055   000002 236000 13                 LDQ     XREF_+2
        20 000056   000022 736000                    QLS     18
        20 000057   000001 036000 13                 ADLQ    XREF_+1
        20 000060   000000 756000 12                 STQ     XREF$

  15724 20 000061   000002 235000 13                 LDA     XREF_+2
        20 000062   000002 035007                    ADLA    2,DL
        20 000063   000002 755000 13                 STA     XREF_+2

  15725 20 000064   000004 220003                    LDX0    4,DU
        20 000065   000000 470400 12                 LDP0    XREF$
        20 000066   000000 740100                    STX0    0,,PR0

  15728 20 000067   200017 470500                    LDP0    QUAL_ID$,,AUTO
PL6.E3A0      #002=Z8DT$CONTROL_ITEMS File=Z8DT.:Z8A6TSI                         SAT 08/09/97 11:28 Page:481
        20 000070   000004 471500                    LDP1    4,,PR0
        20 000071   100005 721100                    LXL1    5,,PR1
        20 000072   000000 473400 12                 LDP3    XREF$
        20 000073   300000 441100                    SXL1    0,,PR3

  15729 20 000074   200020 236100                    LDQ     ST$$,,AUTO
        20 000075   000000 470400 12                 LDP0    XREF$
        20 000076   000001 756100                    STQ     1,,PR0

     3040    15733
     3041    15734    3         CALL VALIDATE_CONTROL_NAME (ST$$, QUAL_ID$, ID_COUNT, T$$)

  15734 20 000077   200022 630500                    EPPR0   T$$,,AUTO
        20 000100   200034 450500                    STP0    @ID_COUNT+1,,AUTO
        20 000101   200021 631500                    EPPR1   ID_COUNT,,AUTO
        20 000102   200033 451500                    STP1    @QUAL_ID$+1,,AUTO
        20 000103   200017 633500                    EPPR3   QUAL_ID$,,AUTO
        20 000104   200032 453500                    STP3    @ST$$+1,,AUTO
        20 000105   200020 634500                    EPPR4   ST$$,,AUTO
        20 000106   200031 454500                    STP4    CTR_LTS$+3,,AUTO
        20 000107   000301 701000 20                 TSX1    VALIDATE_CONTROL_NAME
        20 000110   000116 702000 20                 TSX2    s:15742

     3042    15735
     3043    15736    3           WHENRETURN
     3044    15737    4             DO;

     3045    15738    4               ID_COUNT = ID_COUNT + 1;

  15738 20 000111   200021 054100                    AOS     ID_COUNT,,AUTO

     3046    15739    4               T$$ -> PTR_ARRAY.P$$(ID_COUNT) = ST$$;

  15739 20 000112   200020 236100                    LDQ     ST$$,,AUTO
        20 000113   200022 470500                    LDP0    T$$,,AUTO
        20 000114   200021 720100                    LXL0    ID_COUNT,,AUTO
        20 000115   000000 756110                    STQ     0,X0,PR0
PL6.E3A0      #002=Z8DT$CONTROL_ITEMS File=Z8DT.:Z8A6TSI                         SAT 08/09/97 11:28 Page:482

     3047    15740    4             END;

     3048    15741
     3049    15742    3         QUAL_ID$ = QUAL_ID$ -> LX_LIST.LINK;

  15742 20 000116   200017 470500                    LDP0    QUAL_ID$,,AUTO
        20 000117   000007 236100                    LDQ     7,,PR0
        20 000120   200017 756100                    STQ     QUAL_ID$,,AUTO

     3050    15743
     3051    15744    3       END;  /* while */

  15744 20 000121   000001 116000 21                 CMPQ    1
        20 000122   000027 601000 20                 TNZ     s:15712

     3052    15745
     3053    15746    2       IF ID_COUNT ~= 0 THEN

  15746 20 000123   200021 235100                    LDA     ID_COUNT,,AUTO
        20 000124   000254 600000 20                 TZE     s:15961

     3054    15747    3         DO;

     3055    15748    3           LEN = ID_COUNT + 3;

  15748 20 000125   000003 035007                    ADLA    3,DL
        20 000126   200023 755100                    STA     LEN,,AUTO

     3056    15749                %NEW_LTS_PTR_ARRAY (@POINTER  = LTS$$,
     3057    15750                                    @SIZE     = LEN);

  15752 20 000127   000000 755000 0                  STA     ITERATION

  15830 20 000130   000002 236000 7                  LDQ     LTS_+2
        20 000131   000000 036000 0                  ADLQ    ITERATION
        20 000132   000003 116000 7                  CMPQ    LTS_+3
PL6.E3A0      #002=Z8DT$CONTROL_ITEMS File=Z8DT.:Z8A6TSI                         SAT 08/09/97 11:28 Page:483
        20 000133   000144 604000 20                 TMI     s:15832

  15831 20 000134   000004 236000 21                 LDQ     4
        20 000135   200042 756100                    STQ     DEPEND$+2,,AUTO
        20 000136   200042 630500                    EPPR0   DEPEND$+2,,AUTO
        20 000137   200043 450500                    STP0    DEPEND$+3,,AUTO
        20 000140   200043 630500                    EPPR0   DEPEND$+3,,AUTO
        20 000141   000002 631400 21                 EPPR1   2
        20 000142   000000 701000 xent               TSX1    Z8AR$RESERVER
        20 000143   000000 011000                    NOP     0

  15832 20 000144   000002 236000 7                  LDQ     LTS_+2
        20 000145   000022 736000                    QLS     18
        20 000146   000001 036000 7                  ADLQ    LTS_+1
        20 000147   200024 756100                    STQ     LTS$$,,AUTO

  15833 20 000150   000002 236000 7                  LDQ     LTS_+2
        20 000151   000000 036000 0                  ADLQ    ITERATION
        20 000152   000002 756000 7                  STQ     LTS_+2

  15834 20 000153   001122 220003                    LDX0    594,DU
        20 000154   200024 470500                    LDP0    LTS$$,,AUTO
        20 000155   000000 740100                    STX0    0,,PR0

  15836 20 000156   000000 721000 0                  LXL1    ITERATION
        20 000157   000000 441100                    SXL1    0,,PR0

  15840 20 000160   000001 236000 21                 LDQ     1
        20 000161   000001 756100                    STQ     1,,PR0

     3058    15843
     3059    15844    4           DO LEN = 1 TO ID_COUNT;

  15844 20 000162   000001 235007                    LDA     1,DL
        20 000163   200023 755100                    STA     LEN,,AUTO
        20 000164   000245 710000 20                 TRA     s:15955+1

PL6.E3A0      #002=Z8DT$CONTROL_ITEMS File=Z8DT.:Z8A6TSI                         SAT 08/09/97 11:28 Page:484
     3060    15845                  %NEW_CONTROL_NAME_LTS (@POINTER = CTR_LTS$,
     3061    15846                                         @LEVEL   = LEN,
     3062    15847                                         @ST$     = "T$$ -> PTR_ARRAY.P$$(LEN)");

  15926 20 000165   000002 236000 7                  LDQ     LTS_+2
        20 000166   000017 036007                    ADLQ    15,DL
        20 000167   000003 116000 7                  CMPQ    LTS_+3
        20 000170   000201 604000 20                 TMI     s:15928

  15927 20 000171   000004 236000 21                 LDQ     4
        20 000172   200042 756100                    STQ     DEPEND$+2,,AUTO
        20 000173   200042 630500                    EPPR0   DEPEND$+2,,AUTO
        20 000174   200043 450500                    STP0    DEPEND$+3,,AUTO
        20 000175   200043 630500                    EPPR0   DEPEND$+3,,AUTO
        20 000176   000002 631400 21                 EPPR1   2
        20 000177   000000 701000 xent               TSX1    Z8AR$RESERVER
        20 000200   000000 011000                    NOP     0

  15928 20 000201   000002 236000 7                  LDQ     LTS_+2
        20 000202   000022 736000                    QLS     18
        20 000203   000001 036000 7                  ADLQ    LTS_+1
        20 000204   200026 756100                    STQ     CTR_LTS$,,AUTO

  15929 20 000205   000017 236007                    LDQ     15,DL
        20 000206   000002 056000 7                  ASQ     LTS_+2

  15930 20 000207   001077 220003                    LDX0    575,DU
        20 000210   200026 470500                    LDP0    CTR_LTS$,,AUTO
        20 000211   000000 740100                    STX0    0,,PR0

  15936 20 000212   000000 740100                    STX0    0,,PR0

  15937 20 000213   200022 471500                    LDP1    T$$,,AUTO
        20 000214   200023 721100                    LXL1    LEN,,AUTO
        20 000215   100000 236111                    LDQ     0,X1,PR1
        20 000216   000001 756100                    STQ     1,,PR0

PL6.E3A0      #002=Z8DT$CONTROL_ITEMS File=Z8DT.:Z8A6TSI                         SAT 08/09/97 11:28 Page:485
  15938 20 000217   000001 236000 21                 LDQ     1
        20 000220   000013 756100                    STQ     11,,PR0

  15939 20 000221   000014 756100                    STQ     12,,PR0

  15940 20 000222   000015 756100                    STQ     13,,PR0

  15941 20 000223   000002 756100                    STQ     2,,PR0

  15942 20 000224   000003 756100                    STQ     3,,PR0

  15943 20 000225   000004 756100                    STQ     4,,PR0

  15944 20 000226   000005 756100                    STQ     5,,PR0

  15945 20 000227   000006 756100                    STQ     6,,PR0

  15946 20 000230   000011 756100                    STQ     9,,PR0

  15947 20 000231   000012 756100                    STQ     10,,PR0

  15948 20 000232   200023 235100                    LDA     LEN,,AUTO
        20 000233   000007 755100                    STA     7,,PR0

  15949 20 000234   000016 450100                    STZ     14,,PR0

  15950 20 000235   000000 222003                    LDX2    0,DU
        20 000236   000000 442100                    SXL2    0,,PR0

  15951 20 000237   000001 236000 21                 LDQ     1
        20 000240   000010 756100                    STQ     8,,PR0

     3063    15954    4             LTS$$ -> LTS_PTR_ARRAY.P$(LEN) = CTR_LTS$;

  15954 20 000241   200026 236100                    LDQ     CTR_LTS$,,AUTO
        20 000242   200024 471500                    LDP1    LTS$$,,AUTO
        20 000243   100002 756111                    STQ     2,X1,PR1
PL6.E3A0      #002=Z8DT$CONTROL_ITEMS File=Z8DT.:Z8A6TSI                         SAT 08/09/97 11:28 Page:486

     3064    15955    4           END;

  15955 20 000244   200023 054100                    AOS     LEN,,AUTO
        20 000245   200023 236100                    LDQ     LEN,,AUTO
        20 000246   200021 116100                    CMPQ    ID_COUNT,,AUTO
        20 000247   000165 604400 20                 TMOZ    s:15926

     3065    15956
     3066    15957    3           REPORT_LTS$$ -> REPORT_LTS.CONTROL$ = LTS$$;

  15957 20 000250   200016 470500                    LDP0    @REPORT_LTS$$,,AUTO
        20 000251   000000 471500                    LDP1    0,,PR0
        20 000252   200024 236100                    LDQ     LTS$$,,AUTO
        20 000253   100005 756100                    STQ     5,,PR1

     3067    15958
     3068    15959    3         END;

     3069    15960
     3070    15961    2            IF REPORT_LTS$$ -> REPORT_LTS.B.CONTROL_FINAL THEN

  15961 20 000254   200016 470500                    LDP0    @REPORT_LTS$$,,AUTO
        20 000255   000000 471500                    LDP1    0,,PR0
        20 000256   100003 236100                    LDQ     3,,PR1
        20 000257   200000 316003                    CANQ    65536,DU
        20 000260   000265 600000 20                 TZE     s:15964

     3071    15962    2              REPORT_LTS$$ -> REPORT_LTS.NO_CTR_ITEM = ID_COUNT + 1;

  15962 20 000261   200021 235100                    LDA     ID_COUNT,,AUTO
        20 000262   000001 035007                    ADLA    1,DL
        20 000263   100037 755100                    STA     31,,PR1
        20 000264   000267 710000 20                 TRA     s:15967

     3072    15963    2            ELSE
     3073    15964    2              REPORT_LTS$$ -> REPORT_LTS.NO_CTR_ITEM = ID_COUNT;
PL6.E3A0      #002=Z8DT$CONTROL_ITEMS File=Z8DT.:Z8A6TSI                         SAT 08/09/97 11:28 Page:487

  15964 20 000265   200021 235100                    LDA     ID_COUNT,,AUTO
        20 000266   100037 755100                    STA     31,,PR1

     3074    15965
     3075    15966
     3076    15967    2       CALL Z8ED$DISPOSE_HEAP(T$$, HLEN);

  15967 20 000267   200025 631500                    EPPR1   HLEN,,AUTO
        20 000270   200043 451500                    STP1    DEPEND$+3,,AUTO
        20 000271   200022 633500                    EPPR3   T$$,,AUTO
        20 000272   200042 453500                    STP3    DEPEND$+2,,AUTO
        20 000273   200042 630500                    EPPR0   DEPEND$+2,,AUTO
        20 000274   000000 631400 21                 EPPR1   0
        20 000275   000000 701000 xent               TSX1    Z8ED$DISPOSE_HEAP
        20 000276   000000 011000                    NOP     0

     3077    15968
     3078    15969    2     END PROCESS_CONTROL_LIST;

  15969 20 000277   200014 221300                    LDX1  ! I+2,,AUTO
        20 000300   000001 702211                    TSX2  ! 1,X1

     3079    15970          %EJECT;
PL6.E3A0      #002=Z8DT$CONTROL_ITEMS File=Z8DT.:Z8A6TSI                         SAT 08/09/97 11:28 Page:488
     3080    15971
     3081    15972         /*=====================*/
     3082    15973    1      VALIDATE_CONTROL_NAME:  PROC (ST$$, QUAL_ID$, ID_COUNT, T$$) ALTRET;

  15973 20 000301   200030 741300       VALIDATE_CO* STX1  ! CTR_LTS$+2,,AUTO

     3083    15974         /*=====================*/
     3084    15975         /*
     3085    15976               NAME: VALIDATE_CONTROL_NAME
     3086    15977
     3087    15978           DESCRIPTION: This routine validate the control name in the
     3088    15979                        CONTROL clause and return the number and the st items
     3089    15980                        of the valid control items of that clause.
     3090    15981          */
     3091    15982
     3092    15983
     3093    15984    2      DCL CHK_ST$             PTR;
     3094    15985    2      DCL ST$$                PTR;
     3095    15986    2      DCL QUAL_ID$            PTR;
     3096    15987    2      DCL ID_COUNT            SBIN WORD;
     3097    15988    2      DCL T$$                 PTR;
     3098    15989    2      DCL I                   SBIN WORD;
     3099    15990    2      DCL 1 PTR_ARRAY  BASED  ALIGNED,
     3100    15991    2            2 P$$      (0 : %(PAGE_SIZE - 1))  PTR;
     3101    15992    2      DCL SON$                PTR;
     3102    15993    2      DCL DEPEND$             PTR;
     3103    15994
     3104    15995
     3105    15996
     3106    15997    2       IF ST$$ -> SCALAR.B.COMPILER_CREATED  THEN

  15997 20 000302   200031 470500                    LDP0    @ST$$,,AUTO
        20 000303   000000 471500                    LDP1    0,,PR0
        20 000304   100003 236100                    LDQ     3,,PR1
        20 000305   100000 316003                    CANQ    32768,DU
        20 000306   000315 600000 20                 TZE     s:16005

PL6.E3A0      #002=Z8DT$CONTROL_ITEMS File=Z8DT.:Z8A6TSI                         SAT 08/09/97 11:28 Page:489
     3107    15998    3         DO;

     3108    15999    3           ST$$ -> SCALAR.DNT$ -> DNT.ST$ =

  15999 20 000307   100006 473500                    LDP3    6,,PR1
        20 000310   300001 474500                    LDP4    1,,PR3
        20 000311   400004 236100                    LDQ     4,,PR4
        20 000312   300001 756100                    STQ     1,,PR3

     3109    16000    3                ST$$ -> SCALAR.DNT$ -> DNT.ST$ -> ST.NEXT;
     3110    16001    3           ALTRETURN;

  16001 20 000313   200030 221300                    LDX1  ! CTR_LTS$+2,,AUTO
        20 000314   000000 702211                    TSX2  ! 0,X1

     3111    16002    3         END;
     3112    16003
     3113    16004
     3114    16005    2       IF ST$$ -> ST.ID ~= %SCALAR AND ST$$ -> ST.ID ~= %ARRAY THEN

  16005 20 000315   100000 220100                    LDX0    0,,PR1
        20 000316   000766 100003                    CMPX0   502,DU
        20 000317   000341 600000 20                 TZE     s:16013
        20 000320   000765 100003                    CMPX0   501,DU
        20 000321   000341 600000 20                 TZE     s:16013

     3115    16006    3         DO;

     3116    16007    3           CALL Z8AE$ERROR (%E$ERR_NAME_IN_CONTROL,

  16007 20 000322   200032 473500                    LDP3    @QUAL_ID$,,AUTO
        20 000323   300000 474500                    LDP4    0,,PR3
        20 000324   400004 475500                    LDP5    4,,PR4
        20 000325   500006 636500                    EPPR6   6,,PR5
        20 000326   200044 456500                    STP6    DEPEND$+4,,AUTO
        20 000327   500005 631500                    EPPR1   5,,PR5
        20 000330   200043 451500                    STP1    DEPEND$+3,,AUTO
PL6.E3A0      #002=Z8DT$CONTROL_ITEMS File=Z8DT.:Z8A6TSI                         SAT 08/09/97 11:28 Page:490
        20 000331   000007 236000 21                 LDQ     7
        20 000332   200042 756100                    STQ     DEPEND$+2,,AUTO
        20 000333   200042 630500                    EPPR0   DEPEND$+2,,AUTO
        20 000334   000005 631400 21                 EPPR1   5
        20 000335   000000 701000 xent               TSX1    Z8AE$ERROR
        20 000336   000000 011000                    NOP     0

     3117    16008    3                            QUAL_ID$ -> LX_LIST.HEAD$ -> LX_ITEM.LINE,
     3118    16009    3                            QUAL_ID$ -> LX_LIST.HEAD$ -> LX_ITEM.COLUMN);
     3119    16010    3           ALTRETURN;

  16010 20 000337   200030 221300                    LDX1  ! CTR_LTS$+2,,AUTO
        20 000340   000000 702211                    TSX2  ! 0,X1

     3120    16011    3         END;
     3121    16012    2      ELSE
     3122    16013    2        IF ST$$ -> SCALAR.TYPE = %TYX AND ST$$ -> SCALAR.LTS$ ~= ADDR(NIL) THEN

  16013 20 000341   100002 222100                    LDX2    2,,PR1
        20 000342   000011 102003                    CMPX2   9,DU
        20 000343   000366 601000 20                 TNZ     s:16021
        20 000344   100005 236100                    LDQ     5,,PR1
        20 000345   000001 116000 21                 CMPQ    1
        20 000346   000366 600000 20                 TZE     s:16021

     3123    16014    3           DO;

     3124    16015    3             CALL Z8AE$ERROR (%E$ERR_NAME_IN_CONTROL,

  16015 20 000347   200032 473500                    LDP3    @QUAL_ID$,,AUTO
        20 000350   300000 474500                    LDP4    0,,PR3
        20 000351   400004 475500                    LDP5    4,,PR4
        20 000352   500006 636500                    EPPR6   6,,PR5
        20 000353   200044 456500                    STP6    DEPEND$+4,,AUTO
        20 000354   500005 631500                    EPPR1   5,,PR5
        20 000355   200043 451500                    STP1    DEPEND$+3,,AUTO
        20 000356   000007 236000 21                 LDQ     7
PL6.E3A0      #002=Z8DT$CONTROL_ITEMS File=Z8DT.:Z8A6TSI                         SAT 08/09/97 11:28 Page:491
        20 000357   200042 756100                    STQ     DEPEND$+2,,AUTO
        20 000360   200042 630500                    EPPR0   DEPEND$+2,,AUTO
        20 000361   000005 631400 21                 EPPR1   5
        20 000362   000000 701000 xent               TSX1    Z8AE$ERROR
        20 000363   000000 011000                    NOP     0

     3125    16016    3                              QUAL_ID$ -> LX_LIST.HEAD$ -> LX_ITEM.LINE,
     3126    16017    3                              QUAL_ID$ -> LX_LIST.HEAD$ -> LX_ITEM.COLUMN);
     3127    16018    3             ALTRETURN;

  16018 20 000364   200030 221300                    LDX1  ! CTR_LTS$+2,,AUTO
        20 000365   000000 702211                    TSX2  ! 0,X1

     3128    16019    3           END;
     3129    16020
     3130    16021    3       DO I = 1 TO ID_COUNT;

  16021 20 000366   000001 235007                    LDA     1,DL
        20 000367   200036 755100                    STA     I,,AUTO
        20 000370   000420 710000 20                 TRA     s:16029+1

     3131    16022    3         IF ST$$ = T$$ -> PTR_ARRAY.P$$(I)  THEN

  16022 20 000371   200034 470500                    LDP0    @T$$,,AUTO
        20 000372   000000 471500                    LDP1    0,,PR0
        20 000373   200031 473500                    LDP3    @ST$$,,AUTO
        20 000374   200036 720100                    LXL0    I,,AUTO
        20 000375   300000 236100                    LDQ     0,,PR3
        20 000376   100000 116110                    CMPQ    0,X0,PR1
        20 000377   000417 601000 20                 TNZ     s:16029

     3132    16023    4           DO;

     3133    16024    4             CALL Z8AE$ERROR (%E$DUP_CONTROL_NAME,

  16024 20 000400   200032 474500                    LDP4    @QUAL_ID$,,AUTO
        20 000401   400000 475500                    LDP5    0,,PR4
PL6.E3A0      #002=Z8DT$CONTROL_ITEMS File=Z8DT.:Z8A6TSI                         SAT 08/09/97 11:28 Page:492
        20 000402   500004 476500                    LDP6    4,,PR5
        20 000403   600006 637500                    EPPR7   6,,PR6
        20 000404   200044 457500                    STP7    DEPEND$+4,,AUTO
        20 000405   600005 631500                    EPPR1   5,,PR6
        20 000406   200043 451500                    STP1    DEPEND$+3,,AUTO
        20 000407   000011 236000 21                 LDQ     9
        20 000410   200042 756100                    STQ     DEPEND$+2,,AUTO
        20 000411   200042 630500                    EPPR0   DEPEND$+2,,AUTO
        20 000412   000005 631400 21                 EPPR1   5
        20 000413   000000 701000 xent               TSX1    Z8AE$ERROR
        20 000414   000000 011000                    NOP     0

     3134    16025    4                              QUAL_ID$ -> LX_LIST.HEAD$ -> LX_ITEM.LINE,
     3135    16026    4                              QUAL_ID$ -> LX_LIST.HEAD$ -> LX_ITEM.COLUMN);
     3136    16027    4             ALTRETURN;

  16027 20 000415   200030 221300                    LDX1  ! CTR_LTS$+2,,AUTO
        20 000416   000000 702211                    TSX2  ! 0,X1

     3137    16028    4           END;
     3138    16029    3       END;

  16029 20 000417   200036 054100                    AOS     I,,AUTO
        20 000420   200033 470500                    LDP0    @ID_COUNT,,AUTO
        20 000421   200036 236100                    LDQ     I,,AUTO
        20 000422   000000 116100                    CMPQ    0,,PR0
        20 000423   000371 604400 20                 TMOZ    s:16022

     3139    16030
     3140    16031    2       CHK_ST$ = ST$$;

  16031 20 000424   200031 471500                    LDP1    @ST$$,,AUTO
        20 000425   100000 236100                    LDQ     0,,PR1
        20 000426   200035 756100                    STQ     CHK_ST$,,AUTO

     3141    16032
     3142    16033    2         IF CHK_ST$ -> SCALAR.B.REPORT_ITEM  THEN
PL6.E3A0      #002=Z8DT$CONTROL_ITEMS File=Z8DT.:Z8A6TSI                         SAT 08/09/97 11:28 Page:493

  16033 20 000427   200035 473500                    LDP3    CHK_ST$,,AUTO
        20 000430   300003 236100                    LDQ     3,,PR3
        20 000431   010000 316007                    CANQ    4096,DL
        20 000432   000452 600000 20                 TZE     s:16041

     3143    16034    3           DO;

     3144    16035    3             CALL Z8AE$ERROR (%E$DCL_IN_REPORT,

  16035 20 000433   200032 474500                    LDP4    @QUAL_ID$,,AUTO
        20 000434   400000 475500                    LDP5    0,,PR4
        20 000435   500004 476500                    LDP6    4,,PR5
        20 000436   600006 637500                    EPPR7   6,,PR6
        20 000437   200044 457500                    STP7    DEPEND$+4,,AUTO
        20 000440   600005 635500                    EPPR5   5,,PR6
        20 000441   200043 455500                    STP5    DEPEND$+3,,AUTO
        20 000442   000013 236000 21                 LDQ     11
        20 000443   200042 756100                    STQ     DEPEND$+2,,AUTO
        20 000444   200042 630500                    EPPR0   DEPEND$+2,,AUTO
        20 000445   000005 631400 21                 EPPR1   5
        20 000446   000000 701000 xent               TSX1    Z8AE$ERROR
        20 000447   000000 011000                    NOP     0

     3145    16036    3                              QUAL_ID$ -> LX_LIST.HEAD$ -> LX_ITEM.LINE,
     3146    16037    3                              QUAL_ID$ -> LX_LIST.HEAD$ -> LX_ITEM.COLUMN);
     3147    16038    3             ALTRETURN;

  16038 20 000450   200030 221300                    LDX1  ! CTR_LTS$+2,,AUTO
        20 000451   000000 702211                    TSX2  ! 0,X1

     3148    16039    3           END;
     3149    16040
     3150    16041    3       DO WHILE (CHK_ST$ -> SCALAR.QLT$ -> QLT.FATHER ~= ADDR(NIL));

  16041 20 000452   000524 710000 20                 TRA     s:16061

PL6.E3A0      #002=Z8DT$CONTROL_ITEMS File=Z8DT.:Z8A6TSI                         SAT 08/09/97 11:28 Page:494
     3151    16042    3         SON$ = CHK_ST$;

  16042 20 000453   200035 236100                    LDQ     CHK_ST$,,AUTO
        20 000454   200037 756100                    STQ     SON$,,AUTO

     3152    16043    3         CHK_ST$ = CHK_ST$ -> SCALAR.QLT$ -> QLT.FATHER -> QLT.ST$;

  16043 20 000455   200035 470500                    LDP0    CHK_ST$,,AUTO
        20 000456   000007 471500                    LDP1    7,,PR0
        20 000457   100001 473500                    LDP3    1,,PR1
        20 000460   300004 236100                    LDQ     4,,PR3
        20 000461   200035 756100                    STQ     CHK_ST$,,AUTO

     3153    16044
     3154    16045    3         IF CHK_ST$ -> SCALAR.B.OCCURS_DEPENDING  AND

  16045 20 000462   200035 470500                    LDP0    CHK_ST$,,AUTO
        20 000463   000003 236100                    LDQ     3,,PR0
        20 000464   000200 316003                    CANQ    128,DU
        20 000465   000524 600000 20                 TZE     s:16061
        20 000466   200037 471500                    LDP1    SON$,,AUTO
        20 000467   100000 220100                    LDX0    0,,PR1
        20 000470   000765 100003                    CMPX0   501,DU
        20 000471   000524 601000 20                 TNZ     s:16061

     3155    16046    3              SON$ -> ST.ID = %ARRAY  THEN
     3156    16047    4           DO;

     3157    16048    4             DEPEND$ = O1COM.OCCURS_DEPENDING$;

  16048 20 000472   000034 236000 xsym               LDQ     O1COM+28
        20 000473   200040 756100                    STQ     DEPEND$,,AUTO

     3158    16049    5             DO WHILE (DEPEND$ ~= ADDR(NIL));

  16049 20 000474   000522 710000 20                 TRA     s:16059

PL6.E3A0      #002=Z8DT$CONTROL_ITEMS File=Z8DT.:Z8A6TSI                         SAT 08/09/97 11:28 Page:495
     3159    16050    5               IF SON$ = DEPEND$ -> DEFERED_QUAL_ID.ASSOC_VAR_ST$  THEN

  16050 20 000475   200040 470500                    LDP0    DEPEND$,,AUTO
        20 000476   200037 236100                    LDQ     SON$,,AUTO
        20 000477   000002 116100                    CMPQ    2,,PR0
        20 000500   000520 601000 20                 TNZ     s:16058

     3160    16051    6                 DO;

     3161    16052    6                   CALL Z8AE$ERROR (%E$VAR_OCCUR_NAME,

  16052 20 000501   200032 471500                    LDP1    @QUAL_ID$,,AUTO
        20 000502   100000 473500                    LDP3    0,,PR1
        20 000503   300004 474500                    LDP4    4,,PR3
        20 000504   400006 635500                    EPPR5   6,,PR4
        20 000505   200044 455500                    STP5    DEPEND$+4,,AUTO
        20 000506   400005 633500                    EPPR3   5,,PR4
        20 000507   200043 453500                    STP3    DEPEND$+3,,AUTO
        20 000510   000015 236000 21                 LDQ     13
        20 000511   200042 756100                    STQ     DEPEND$+2,,AUTO
        20 000512   200042 630500                    EPPR0   DEPEND$+2,,AUTO
        20 000513   000005 631400 21                 EPPR1   5
        20 000514   000000 701000 xent               TSX1    Z8AE$ERROR
        20 000515   000000 011000                    NOP     0

     3162    16053    6                                    QUAL_ID$ -> LX_LIST.HEAD$ -> LX_ITEM.LINE,
     3163    16054    6                                    QUAL_ID$ -> LX_LIST.HEAD$ -> LX_ITEM.COLUMN);
     3164    16055    6                   ALTRETURN;

  16055 20 000516   200030 221300                    LDX1  ! CTR_LTS$+2,,AUTO
        20 000517   000000 702211                    TSX2  ! 0,X1

     3165    16056    6                 END;
     3166    16057
     3167    16058    5               DEPEND$ = DEPEND$ -> DEFERED_QUAL_ID.LINK;

  16058 20 000520   000007 236100                    LDQ     7,,PR0
PL6.E3A0      #002=Z8DT$CONTROL_ITEMS File=Z8DT.:Z8A6TSI                         SAT 08/09/97 11:28 Page:496
        20 000521   200040 756100                    STQ     DEPEND$,,AUTO

     3168    16059    5             END;  /* while */

  16059 20 000522   000001 116000 21                 CMPQ    1
        20 000523   000475 601000 20                 TNZ     s:16050

     3169    16060    4           END;

     3170    16061    3       END;  /* while */

  16061 20 000524   200035 470500                    LDP0    CHK_ST$,,AUTO
        20 000525   000007 471500                    LDP1    7,,PR0
        20 000526   100001 236100                    LDQ     1,,PR1
        20 000527   000001 116000 21                 CMPQ    1
        20 000530   000453 601000 20                 TNZ     s:16042

     3171    16062
     3172    16063
     3173    16064    2     RETURN;

  16064 20 000531   200030 221300                    LDX1  ! CTR_LTS$+2,,AUTO
        20 000532   000001 702211                    TSX2  ! 1,X1

     3174    16065    2     END VALIDATE_CONTROL_NAME;
     3175    16066          %EJECT;
PL6.E3A0      #002=Z8DT$CONTROL_ITEMS File=Z8DT.:Z8A6TSI                         SAT 08/09/97 11:28 Page:497
     3176    16067
     3177    16068         /*==============*/
     3178    16069    1      CTR_NAME_CHECK:  PROC (ST$$, LTS$$, QUAL_ID$, CTR_LTS$, CTR_TYPE) ALTRET;

  16069 20 000533   200014 741300       CTR_NAME_CH* STX1  ! I+2,,AUTO

     3179    16070         /*==============*/
     3180    16071         /*
     3181    16072               NAME: CONTROL_NAME_CHECK
     3182    16073
     3183    16074           DESCRIPTION: This routine validate the control name in the
     3184    16075                        CONTROL clause of the 01 level report group item
     3185    16076                        and returns the LTS item for that control name.
     3186    16077          */
     3187    16078
     3188    16079
     3189    16080    2     DCL ST$$              PTR;
     3190    16081    2     DCL LTS$$             PTR;
     3191    16082    2     DCL QUAL_ID$           PTR;
     3192    16083    2     DCL LEN               UBIN HALF UNAL;
     3193    16084    2     DCL CTR$              PTR;
     3194    16085    2     DCL CTR_TYPE          UBIN;
     3195    16086    2     DCL RSV_WRD#          SBIN WORD;
     3196    16087    2     DCL CTR_LTS$          PTR;
     3197    16088
     3198    16089
     3199    16090
     3200    16091    2      CTR_LTS$ = ADDR(NIL);

  16091 20 000534   000001 236000 21                 LDQ     1
        20 000535   200020 470500                    LDP0    @CTR_LTS$,,AUTO
        20 000536   000000 756100                    STQ     0,,PR0

     3201    16092
     3202    16093    2      CALL Z8CO$QUALIFY_VARIABLE (QUAL_ID$, ST$$)

  16093 20 000537   200015 236100                    LDQ     @ST$$,,AUTO
PL6.E3A0      #002=Z8DT$CONTROL_ITEMS File=Z8DT.:Z8A6TSI                         SAT 08/09/97 11:28 Page:498
        20 000540   200017 235100                    LDA     @QUAL_ID$,,AUTO
        20 000541   200042 757100                    STAQ    DEPEND$+2,,AUTO
        20 000542   200042 630500                    EPPR0   DEPEND$+2,,AUTO
        20 000543   000000 631400 21                 EPPR1   0
        20 000544   000000 701000 xent               TSX1    Z8CO$QUALIFY_VARIABLE
        20 000545   000547 702000 20                 TSX2    s:16096
        20 000546   000562 710000 20                 TRA     s:16104

     3203    16094    2        WHENALTRETURN
     3204    16095    3          DO;

     3205    16096    3            IF ST$$ -> SCALAR.B.COMPILER_CREATED THEN

  16096 20 000547   200015 470500                    LDP0    @ST$$,,AUTO
        20 000550   000000 471500                    LDP1    0,,PR0
        20 000551   100003 236100                    LDQ     3,,PR1
        20 000552   100000 316003                    CANQ    32768,DU
        20 000553   000560 600000 20                 TZE     s:16101

     3206    16097    4              DO;

     3207    16098    4                ST$$ -> SCALAR.DNT$ -> DNT.ST$ =

  16098 20 000554   100006 473500                    LDP3    6,,PR1
        20 000555   300001 474500                    LDP4    1,,PR3
        20 000556   400004 236100                    LDQ     4,,PR4
        20 000557   300001 756100                    STQ     1,,PR3

     3208    16099    4                        ST$$ -> SCALAR.DNT$ -> DNT.ST$ -> ST.NEXT;
     3209    16100    4              END;

     3210    16101    3            ALTRETURN;

  16101 20 000560   200014 221300                    LDX1  ! I+2,,AUTO
        20 000561   000000 702211                    TSX2  ! 0,X1

     3211    16102    3          END;
PL6.E3A0      #002=Z8DT$CONTROL_ITEMS File=Z8DT.:Z8A6TSI                         SAT 08/09/97 11:28 Page:499
     3212    16103
     3213    16104    2      IF LTS$$ -> REPORT_LTS.CONTROL$ = ADDR(NIL) THEN

  16104 20 000562   200016 470500                    LDP0    @LTS$$,,AUTO
        20 000563   000000 471500                    LDP1    0,,PR0
        20 000564   100005 236100                    LDQ     5,,PR1
        20 000565   000001 116000 21                 CMPQ    1
        20 000566   000606 601000 20                 TNZ     s:16112

     3214    16105    3        DO;

     3215    16106    3          CALL Z8AE$ERROR (%E$NAME_NOT_IN_CONTROL_CLAUSE,

  16106 20 000567   200017 473500                    LDP3    @QUAL_ID$,,AUTO
        20 000570   300000 474500                    LDP4    0,,PR3
        20 000571   400004 475500                    LDP5    4,,PR4
        20 000572   500006 636500                    EPPR6   6,,PR5
        20 000573   200044 456500                    STP6    DEPEND$+4,,AUTO
        20 000574   500005 631500                    EPPR1   5,,PR5
        20 000575   200043 451500                    STP1    DEPEND$+3,,AUTO
        20 000576   000017 236000 21                 LDQ     15
        20 000577   200042 756100                    STQ     DEPEND$+2,,AUTO
        20 000600   200042 630500                    EPPR0   DEPEND$+2,,AUTO
        20 000601   000005 631400 21                 EPPR1   5
        20 000602   000000 701000 xent               TSX1    Z8AE$ERROR
        20 000603   000000 011000                    NOP     0

     3216    16107    3                           QUAL_ID$ -> LX_LIST.HEAD$ -> LX_ITEM.LINE,
     3217    16108    3                           QUAL_ID$ -> LX_LIST.HEAD$ -> LX_ITEM.COLUMN);
     3218    16109    3          ALTRETURN;

  16109 20 000604   200014 221300                    LDX1  ! I+2,,AUTO
        20 000605   000000 702211                    TSX2  ! 0,X1

     3219    16110    3        END;
     3220    16111
     3221    16112    2      IF ST$$ -> SCALAR.B.REPORT_ITEM  THEN
PL6.E3A0      #002=Z8DT$CONTROL_ITEMS File=Z8DT.:Z8A6TSI                         SAT 08/09/97 11:28 Page:500

  16112 20 000606   200015 473500                    LDP3    @ST$$,,AUTO
        20 000607   300000 474500                    LDP4    0,,PR3
        20 000610   400003 236100                    LDQ     3,,PR4
        20 000611   010000 316007                    CANQ    4096,DL
        20 000612   000632 600000 20                 TZE     s:16120

     3222    16113    3        DO;

     3223    16114    3          CALL Z8AE$ERROR (%E$DCL_IN_REPORT,

  16114 20 000613   200017 475500                    LDP5    @QUAL_ID$,,AUTO
        20 000614   500000 476500                    LDP6    0,,PR5
        20 000615   600004 477500                    LDP7    4,,PR6
        20 000616   700006 630500                    EPPR0   6,,PR7
        20 000617   200044 450500                    STP0    DEPEND$+4,,AUTO
        20 000620   700005 631500                    EPPR1   5,,PR7
        20 000621   200043 451500                    STP1    DEPEND$+3,,AUTO
        20 000622   000013 236000 21                 LDQ     11
        20 000623   200042 756100                    STQ     DEPEND$+2,,AUTO
        20 000624   200042 630500                    EPPR0   DEPEND$+2,,AUTO
        20 000625   000005 631400 21                 EPPR1   5
        20 000626   000000 701000 xent               TSX1    Z8AE$ERROR
        20 000627   000000 011000                    NOP     0

     3224    16115    3                           QUAL_ID$ -> LX_LIST.HEAD$ -> LX_ITEM.LINE,
     3225    16116    3                           QUAL_ID$ -> LX_LIST.HEAD$ -> LX_ITEM.COLUMN);
     3226    16117    3          ALTRETURN;

  16117 20 000630   200014 221300                    LDX1  ! I+2,,AUTO
        20 000631   000000 702211                    TSX2  ! 0,X1

     3227    16118    3        END;
     3228    16119
     3229    16120    2      CTR$ = LTS$$ -> REPORT_LTS.CONTROL$;

  16120 20 000632   100005 236100                    LDQ     5,,PR1
PL6.E3A0      #002=Z8DT$CONTROL_ITEMS File=Z8DT.:Z8A6TSI                         SAT 08/09/97 11:28 Page:501
        20 000633   200023 756100                    STQ     CTR$,,AUTO

     3230    16121    2      LEN = CTR$ -> LTS_PTR_ARRAY.N - 3;

  16121 20 000634   200023 475500                    LDP5    CTR$,,AUTO
        20 000635   500000 720100                    LXL0    0,,PR5
        20 000636   777775 621010                    EAX1    -3,X0
        20 000637   200022 741100                    STX1    LEN,,AUTO

     3231    16122
     3232    16123    3      DO I = 1 TO LEN;

  16123 20 000640   000001 235007                    LDA     1,DL
        20 000641   200012 755100                    STA     I,,AUTO
        20 000642   000653 710000 20                 TRA     s:16126+1

     3233    16124    3        IF ST$$ = CTR$ -> LTS_PTR_ARRAY.P$(I) -> CONTROL_NAME_LTS.ST$ THEN

  16124 20 000643   200023 470500                    LDP0    CTR$,,AUTO
        20 000644   200012 720100                    LXL0    I,,AUTO
        20 000645   000002 471510                    LDP1    2,X0,PR0
        20 000646   200015 473500                    LDP3    @ST$$,,AUTO
        20 000647   300000 236100                    LDQ     0,,PR3
        20 000650   100001 116100                    CMPQ    1,,PR1
        20 000651   000676 600000 20                 TZE     NEXT_STEP

     3234    16125    3          GOTO NEXT_STEP;
     3235    16126    3      END;

  16126 20 000652   200012 054100                    AOS     I,,AUTO
        20 000653   200022 236100                    LDQ     LEN,,AUTO
        20 000654   000022 772000                    QRL     18
        20 000655   200012 116100                    CMPQ    I,,AUTO
        20 000656   000643 605000 20                 TPL     s:16124

     3236    16127    2      CALL Z8AE$ERROR (%E$NAME_NOT_IN_CONTROL_CLAUSE,

PL6.E3A0      #002=Z8DT$CONTROL_ITEMS File=Z8DT.:Z8A6TSI                         SAT 08/09/97 11:28 Page:502
  16127 20 000657   200017 470500                    LDP0    @QUAL_ID$,,AUTO
        20 000660   000000 471500                    LDP1    0,,PR0
        20 000661   100004 474500                    LDP4    4,,PR1
        20 000662   400006 635500                    EPPR5   6,,PR4
        20 000663   200044 455500                    STP5    DEPEND$+4,,AUTO
        20 000664   400005 631500                    EPPR1   5,,PR4
        20 000665   200043 451500                    STP1    DEPEND$+3,,AUTO
        20 000666   000017 236000 21                 LDQ     15
        20 000667   200042 756100                    STQ     DEPEND$+2,,AUTO
        20 000670   200042 630500                    EPPR0   DEPEND$+2,,AUTO
        20 000671   000005 631400 21                 EPPR1   5
        20 000672   000000 701000 xent               TSX1    Z8AE$ERROR
        20 000673   000000 011000                    NOP     0

     3237    16128    2                       QUAL_ID$ -> LX_LIST.HEAD$ -> LX_ITEM.LINE,
     3238    16129    2                       QUAL_ID$ -> LX_LIST.HEAD$ -> LX_ITEM.COLUMN);
     3239    16130    2      ALTRETURN;

  16130 20 000674   200014 221300                    LDX1  ! I+2,,AUTO
        20 000675   000000 702211                    TSX2  ! 0,X1

     3240    16131
     3241    16132    2    NEXT_STEP:
     3242    16133    2      CTR_LTS$ = CTR$ -> LTS_PTR_ARRAY.P$(I);

  16133 20 000676   000002 236110       NEXT_STEP    LDQ     2,X0,PR0
        20 000677   200020 474500                    LDP4    @CTR_LTS$,,AUTO
        20 000700   400000 756100                    STQ     0,,PR4

     3243    16134    2      IF CTR_TYPE = %CONTROL_HEADING THEN

  16134 20 000701   200021 471500                    LDP1    @CTR_TYPE,,AUTO
        20 000702   100000 235100                    LDA     0,,PR1
        20 000703   000003 115007                    CMPA    3,DL
        20 000704   000732 601000 20                 TNZ     s:16147

     3244    16135    3        DO;
PL6.E3A0      #002=Z8DT$CONTROL_ITEMS File=Z8DT.:Z8A6TSI                         SAT 08/09/97 11:28 Page:503

     3245    16136    3        IF CTR_LTS$ -> CONTROL_NAME_LTS.CONTROL_HEADING$ ~= ADDR(NIL) THEN

  16136 20 000705   400000 475500                    LDP5    0,,PR4
        20 000706   500002 236100                    LDQ     2,,PR5
        20 000707   000001 116000 21                 CMPQ    1
        20 000710   000757 600000 20                 TZE     s:16157

     3246    16137    4          DO;

     3247    16138    4            CALL Z8AE$ERROR(%E$DUP_REF_CONTROL_NAME,

  16138 20 000711   200017 476500                    LDP6    @QUAL_ID$,,AUTO
        20 000712   600000 477500                    LDP7    0,,PR6
        20 000713   700004 470500                    LDP0    4,,PR7
        20 000714   000022 236000 21                 LDQ     18
        20 000715   200045 756100                    STQ     DEPEND$+5,,AUTO
        20 000716   000006 635500                    EPPR5   6,,PR0
        20 000717   200044 455500                    STP5    DEPEND$+4,,AUTO
        20 000720   000005 637500                    EPPR7   5,,PR0
        20 000721   200043 457500                    STP7    DEPEND$+3,,AUTO
        20 000722   000023 236000 21                 LDQ     19
        20 000723   200042 756100                    STQ     DEPEND$+2,,AUTO
        20 000724   200042 630500                    EPPR0   DEPEND$+2,,AUTO
        20 000725   000020 631400 21                 EPPR1   16
        20 000726   000000 701000 xent               TSX1    Z8AE$ERROR
        20 000727   000000 011000                    NOP     0

     3248    16139    4                            QUAL_ID$ -> LX_LIST.HEAD$ -> LX_ITEM.LINE,
     3249    16140    4                            QUAL_ID$ -> LX_LIST.HEAD$ -> LX_ITEM.COLUMN,
     3250    16141    4                            DNT$_FROM_RSWNO(%RSV_WRD_HEADING));
     3251    16142    4            ALTRETURN;

  16142 20 000730   200014 221300                    LDX1  ! I+2,,AUTO
        20 000731   000000 702211                    TSX2  ! 0,X1

     3252    16143    4          END;
PL6.E3A0      #002=Z8DT$CONTROL_ITEMS File=Z8DT.:Z8A6TSI                         SAT 08/09/97 11:28 Page:504
     3253    16144    3        END;
     3254    16145    2      ELSE
     3255    16146    3        DO;

     3256    16147    3        IF CTR_LTS$ -> CONTROL_NAME_LTS.CONTROL_FOOTING$ ~= ADDR(NIL) THEN

  16147 20 000732   400000 475500                    LDP5    0,,PR4
        20 000733   500003 236100                    LDQ     3,,PR5
        20 000734   000001 116000 21                 CMPQ    1
        20 000735   000757 600000 20                 TZE     s:16157

     3257    16148    4          DO;

     3258    16149    4            CALL Z8AE$ERROR(%E$DUP_REF_CONTROL_NAME,

  16149 20 000736   200017 476500                    LDP6    @QUAL_ID$,,AUTO
        20 000737   600000 477500                    LDP7    0,,PR6
        20 000740   700004 470500                    LDP0    4,,PR7
        20 000741   000024 236000 21                 LDQ     20
        20 000742   200045 756100                    STQ     DEPEND$+5,,AUTO
        20 000743   000006 635500                    EPPR5   6,,PR0
        20 000744   200044 455500                    STP5    DEPEND$+4,,AUTO
        20 000745   000005 637500                    EPPR7   5,,PR0
        20 000746   200043 457500                    STP7    DEPEND$+3,,AUTO
        20 000747   000023 236000 21                 LDQ     19
        20 000750   200042 756100                    STQ     DEPEND$+2,,AUTO
        20 000751   200042 630500                    EPPR0   DEPEND$+2,,AUTO
        20 000752   000020 631400 21                 EPPR1   16
        20 000753   000000 701000 xent               TSX1    Z8AE$ERROR
        20 000754   000000 011000                    NOP     0

     3259    16150    4                            QUAL_ID$ -> LX_LIST.HEAD$ -> LX_ITEM.LINE,
     3260    16151    4                            QUAL_ID$ -> LX_LIST.HEAD$ -> LX_ITEM.COLUMN,
     3261    16152    4                            DNT$_FROM_RSWNO(%RSV_WRD_FOOTING));
     3262    16153    4            ALTRETURN;

  16153 20 000755   200014 221300                    LDX1  ! I+2,,AUTO
PL6.E3A0      #002=Z8DT$CONTROL_ITEMS File=Z8DT.:Z8A6TSI                         SAT 08/09/97 11:28 Page:505
        20 000756   000000 702211                    TSX2  ! 0,X1

     3263    16154    4          END;
     3264    16155    3        END;
     3265    16156
     3266    16157    2    END CTR_NAME_CHECK;

  16157 20 000757   200014 221300                    LDX1  ! I+2,,AUTO
        20 000760   000001 702211                    TSX2  ! 1,X1

     3267    16158         %EJECT;
PL6.E3A0      #002=Z8DT$CONTROL_ITEMS File=Z8DT.:Z8A6TSI                         SAT 08/09/97 11:28 Page:506
     3268    16159
     3269    16160         /*===============*/
     3270    16161    1      CTR_LTS_RECOVER: PROC (CTR_LTS$, REPORT$$);

  16161 20 000761   200014 741300       CTR_LTS_REC* STX1  ! I+2,,AUTO

     3271    16162         /*===============*/
     3272    16163         /*
     3273    16164               NAME: CTR_LTS_RECOVER
     3274    16165
     3275    16166           DESCRIPTION: When a control item in the control clause of the
     3276    16167                        01 level group entry is an error item, the error
     3277    16168                        recovery needs this routine to create a LTS item
     3278    16169                        for it.
     3279    16170         */
     3280    16171
     3281    16172    2      DCL CTR_LTS$        PTR;
     3282    16173    2      DCL NEXT$           PTR;
     3283    16174    2      DCL REPORT$$        PTR;
     3284    16175    2      DCL LEVEL           SBIN WORD;
     3285    16176
     3286    16177
     3287    16178
     3288    16179    2      IF CTR_LTS$ = ADDR(NIL) THEN

  16179 20 000762   200015 470500                    LDP0    @CTR_LTS$,,AUTO
        20 000763   000000 236100                    LDQ     0,,PR0
        20 000764   000001 116000 21                 CMPQ    1
        20 000765   000770 601000 20                 TNZ     s:16182

     3289    16180    2        LEVEL = 0;

  16180 20 000766   200020 450100                    STZ     LEVEL,,AUTO
        20 000767   000773 710000 20                 TRA     s:16184

     3290    16181    2      ELSE
     3291    16182    2        LEVEL = CTR_LTS$ -> CONTROL_NAME_LTS.LEVEL;
PL6.E3A0      #002=Z8DT$CONTROL_ITEMS File=Z8DT.:Z8A6TSI                         SAT 08/09/97 11:28 Page:507

  16182 20 000770   000000 471500                    LDP1    0,,PR0
        20 000771   100007 235100                    LDA     7,,PR1
        20 000772   200020 755100                    STA     LEVEL,,AUTO

     3292    16183
     3293    16184    2      NEXT$ = REPORT$$ -> REPORT_LTS.CONTROL_ERROR$;

  16184 20 000773   200016 471500                    LDP1    @REPORT$$,,AUTO
        20 000774   100000 473500                    LDP3    0,,PR1
        20 000775   300007 236100                    LDQ     7,,PR3
        20 000776   200017 756100                    STQ     NEXT$,,AUTO

     3294    16185
     3295    16186    2      IF NEXT$ = ADDR(NIL) THEN

  16186 20 000777   000001 116000 21                 CMPQ    1
        20 001000   001124 601000 20                 TNZ     s:16301

     3296    16187    3        DO;

     3297    16188               %NEW_CONTROL_NAME_LTS (@POINTER = REPORT$$ -> REPORT_LTS.CONTROL_ERROR$,
     3298    16189                                      @LEVEL   = LEVEL);

  16268 20 001001   000002 236000 7                  LDQ     LTS_+2
        20 001002   000017 036007                    ADLQ    15,DL
        20 001003   000003 116000 7                  CMPQ    LTS_+3
        20 001004   001015 604000 20                 TMI     s:16270

  16269 20 001005   000004 236000 21                 LDQ     4
        20 001006   200042 756100                    STQ     DEPEND$+2,,AUTO
        20 001007   200042 633500                    EPPR3   DEPEND$+2,,AUTO
        20 001010   200043 453500                    STP3    DEPEND$+3,,AUTO
        20 001011   200043 630500                    EPPR0   DEPEND$+3,,AUTO
        20 001012   000002 631400 21                 EPPR1   2
        20 001013   000000 701000 xent               TSX1    Z8AR$RESERVER
        20 001014   000000 011000                    NOP     0
PL6.E3A0      #002=Z8DT$CONTROL_ITEMS File=Z8DT.:Z8A6TSI                         SAT 08/09/97 11:28 Page:508

  16270 20 001015   200016 470500                    LDP0    @REPORT$$,,AUTO
        20 001016   000000 471500                    LDP1    0,,PR0
        20 001017   000002 236000 7                  LDQ     LTS_+2
        20 001020   000022 736000                    QLS     18
        20 001021   000001 036000 7                  ADLQ    LTS_+1
        20 001022   100007 756100                    STQ     7,,PR1

  16271 20 001023   000017 236007                    LDQ     15,DL
        20 001024   000002 056000 7                  ASQ     LTS_+2

  16272 20 001025   000000 471500                    LDP1    0,,PR0
        20 001026   100007 473500                    LDP3    7,,PR1
        20 001027   001077 220003                    LDX0    575,DU
        20 001030   300000 740100                    STX0    0,,PR3

  16278 20 001031   000000 471500                    LDP1    0,,PR0
        20 001032   100007 473500                    LDP3    7,,PR1
        20 001033   300000 740100                    STX0    0,,PR3

  16279 20 001034   000000 471500                    LDP1    0,,PR0
        20 001035   100007 473500                    LDP3    7,,PR1
        20 001036   000001 236000 21                 LDQ     1
        20 001037   300001 756100                    STQ     1,,PR3

  16280 20 001040   000000 471500                    LDP1    0,,PR0
        20 001041   100007 473500                    LDP3    7,,PR1
        20 001042   000001 236000 21                 LDQ     1
        20 001043   300013 756100                    STQ     11,,PR3

  16281 20 001044   000000 471500                    LDP1    0,,PR0
        20 001045   100007 473500                    LDP3    7,,PR1
        20 001046   300014 756100                    STQ     12,,PR3

  16282 20 001047   000000 471500                    LDP1    0,,PR0
        20 001050   100007 473500                    LDP3    7,,PR1
        20 001051   300015 756100                    STQ     13,,PR3
PL6.E3A0      #002=Z8DT$CONTROL_ITEMS File=Z8DT.:Z8A6TSI                         SAT 08/09/97 11:28 Page:509

  16283 20 001052   000000 471500                    LDP1    0,,PR0
        20 001053   100007 473500                    LDP3    7,,PR1
        20 001054   300002 756100                    STQ     2,,PR3

  16284 20 001055   000000 471500                    LDP1    0,,PR0
        20 001056   100007 473500                    LDP3    7,,PR1
        20 001057   300003 756100                    STQ     3,,PR3

  16285 20 001060   000000 471500                    LDP1    0,,PR0
        20 001061   100007 473500                    LDP3    7,,PR1
        20 001062   300004 756100                    STQ     4,,PR3

  16286 20 001063   000000 471500                    LDP1    0,,PR0
        20 001064   100007 473500                    LDP3    7,,PR1
        20 001065   300005 756100                    STQ     5,,PR3

  16287 20 001066   000000 471500                    LDP1    0,,PR0
        20 001067   100007 473500                    LDP3    7,,PR1
        20 001070   300006 756100                    STQ     6,,PR3

  16288 20 001071   000000 471500                    LDP1    0,,PR0
        20 001072   100007 473500                    LDP3    7,,PR1
        20 001073   300011 756100                    STQ     9,,PR3

  16289 20 001074   000000 471500                    LDP1    0,,PR0
        20 001075   100007 473500                    LDP3    7,,PR1
        20 001076   300012 756100                    STQ     10,,PR3

  16290 20 001077   000000 471500                    LDP1    0,,PR0
        20 001100   100007 473500                    LDP3    7,,PR1
        20 001101   200020 235100                    LDA     LEVEL,,AUTO
        20 001102   300007 755100                    STA     7,,PR3

  16291 20 001103   000000 471500                    LDP1    0,,PR0
        20 001104   100007 473500                    LDP3    7,,PR1
        20 001105   300016 450100                    STZ     14,,PR3
PL6.E3A0      #002=Z8DT$CONTROL_ITEMS File=Z8DT.:Z8A6TSI                         SAT 08/09/97 11:28 Page:510

  16292 20 001106   000000 471500                    LDP1    0,,PR0
        20 001107   100007 473500                    LDP3    7,,PR1
        20 001110   000000 221003                    LDX1    0,DU
        20 001111   300000 441100                    SXL1    0,,PR3

  16293 20 001112   000000 471500                    LDP1    0,,PR0
        20 001113   100007 473500                    LDP3    7,,PR1
        20 001114   000001 236000 21                 LDQ     1
        20 001115   300010 756100                    STQ     8,,PR3

     3299    16296
     3300    16297    3          CTR_LTS$ = REPORT$$ -> REPORT_LTS.CONTROL_ERROR$;

  16297 20 001116   000000 471500                    LDP1    0,,PR0
        20 001117   100007 236100                    LDQ     7,,PR1
        20 001120   200015 473500                    LDP3    @CTR_LTS$,,AUTO
        20 001121   300000 756100                    STQ     0,,PR3

     3301    16298    3          RETURN;

  16298 20 001122   200014 221300                    LDX1  ! I+2,,AUTO
        20 001123   000001 702211                    TSX2  ! 1,X1

     3302    16299    3        END;
     3303    16300
     3304    16301    3      DO WHILE (NEXT$ -> CONTROL_NAME_LTS.LINK ~= ADDR(NIL));

  16301 20 001124   001130 710000 20                 TRA     s:16305

     3305    16302
     3306    16303    3          NEXT$ = NEXT$ -> CONTROL_NAME_LTS.LINK;

  16303 20 001125   200017 470500                    LDP0    NEXT$,,AUTO
        20 001126   000010 236100                    LDQ     8,,PR0
        20 001127   200017 756100                    STQ     NEXT$,,AUTO

PL6.E3A0      #002=Z8DT$CONTROL_ITEMS File=Z8DT.:Z8A6TSI                         SAT 08/09/97 11:28 Page:511
     3307    16304
     3308    16305    3      END;

  16305 20 001130   200017 470500                    LDP0    NEXT$,,AUTO
        20 001131   000010 236100                    LDQ     8,,PR0
        20 001132   000001 116000 21                 CMPQ    1
        20 001133   001125 601000 20                 TNZ     s:16303

     3309    16306
     3310    16307           %NEW_CONTROL_NAME_LTS (@POINTER = NEXT$ -> CONTROL_NAME_LTS.LINK,
     3311    16308                                  @LEVEL   = LEVEL);

  16387 20 001134   000002 236000 7                  LDQ     LTS_+2
        20 001135   000017 036007                    ADLQ    15,DL
        20 001136   000003 116000 7                  CMPQ    LTS_+3
        20 001137   001150 604000 20                 TMI     s:16389

  16388 20 001140   000004 236000 21                 LDQ     4
        20 001141   200042 756100                    STQ     DEPEND$+2,,AUTO
        20 001142   200042 631500                    EPPR1   DEPEND$+2,,AUTO
        20 001143   200043 451500                    STP1    DEPEND$+3,,AUTO
        20 001144   200043 630500                    EPPR0   DEPEND$+3,,AUTO
        20 001145   000002 631400 21                 EPPR1   2
        20 001146   000000 701000 xent               TSX1    Z8AR$RESERVER
        20 001147   000000 011000                    NOP     0

  16389 20 001150   000002 236000 7                  LDQ     LTS_+2
        20 001151   000022 736000                    QLS     18
        20 001152   000001 036000 7                  ADLQ    LTS_+1
        20 001153   200017 470500                    LDP0    NEXT$,,AUTO
        20 001154   000010 756100                    STQ     8,,PR0

  16390 20 001155   000017 236007                    LDQ     15,DL
        20 001156   000002 056000 7                  ASQ     LTS_+2

  16391 20 001157   000010 471500                    LDP1    8,,PR0
        20 001160   001077 220003                    LDX0    575,DU
PL6.E3A0      #002=Z8DT$CONTROL_ITEMS File=Z8DT.:Z8A6TSI                         SAT 08/09/97 11:28 Page:512
        20 001161   100000 740100                    STX0    0,,PR1

  16397 20 001162   000010 471500                    LDP1    8,,PR0
        20 001163   100000 740100                    STX0    0,,PR1

  16398 20 001164   000010 471500                    LDP1    8,,PR0
        20 001165   000001 236000 21                 LDQ     1
        20 001166   100001 756100                    STQ     1,,PR1

  16399 20 001167   000010 471500                    LDP1    8,,PR0
        20 001170   000001 236000 21                 LDQ     1
        20 001171   100013 756100                    STQ     11,,PR1

  16400 20 001172   000010 471500                    LDP1    8,,PR0
        20 001173   100014 756100                    STQ     12,,PR1

  16401 20 001174   000010 471500                    LDP1    8,,PR0
        20 001175   100015 756100                    STQ     13,,PR1

  16402 20 001176   000010 471500                    LDP1    8,,PR0
        20 001177   100002 756100                    STQ     2,,PR1

  16403 20 001200   000010 471500                    LDP1    8,,PR0
        20 001201   100003 756100                    STQ     3,,PR1

  16404 20 001202   000010 471500                    LDP1    8,,PR0
        20 001203   100004 756100                    STQ     4,,PR1

  16405 20 001204   000010 471500                    LDP1    8,,PR0
        20 001205   100005 756100                    STQ     5,,PR1

  16406 20 001206   000010 471500                    LDP1    8,,PR0
        20 001207   100006 756100                    STQ     6,,PR1

  16407 20 001210   000010 471500                    LDP1    8,,PR0
        20 001211   100011 756100                    STQ     9,,PR1

PL6.E3A0      #002=Z8DT$CONTROL_ITEMS File=Z8DT.:Z8A6TSI                         SAT 08/09/97 11:28 Page:513
  16408 20 001212   000010 471500                    LDP1    8,,PR0
        20 001213   100012 756100                    STQ     10,,PR1

  16409 20 001214   000010 471500                    LDP1    8,,PR0
        20 001215   200020 235100                    LDA     LEVEL,,AUTO
        20 001216   100007 755100                    STA     7,,PR1

  16410 20 001217   000010 471500                    LDP1    8,,PR0
        20 001220   100016 450100                    STZ     14,,PR1

  16411 20 001221   000010 471500                    LDP1    8,,PR0
        20 001222   000000 221003                    LDX1    0,DU
        20 001223   100000 441100                    SXL1    0,,PR1

  16412 20 001224   000010 471500                    LDP1    8,,PR0
        20 001225   000001 236000 21                 LDQ     1
        20 001226   100010 756100                    STQ     8,,PR1

     3312    16415
     3313    16416    2      CTR_LTS$ = NEXT$ -> CONTROL_NAME_LTS.LINK;

  16416 20 001227   000010 236100                    LDQ     8,,PR0
        20 001230   200015 471500                    LDP1    @CTR_LTS$,,AUTO
        20 001231   100000 756100                    STQ     0,,PR1

     3314    16417
     3315    16418    2    END CTR_LTS_RECOVER;

  16418 20 001232   200014 221300                    LDX1  ! I+2,,AUTO
        20 001233   000001 702211                    TSX2  ! 1,X1

     3316    16419         %EJECT;
PL6.E3A0      #002=Z8DT$CONTROL_ITEMS File=Z8DT.:Z8A6TSI                         SAT 08/09/97 11:28 Page:514
     3317    16420
     3318    16421           /*    main routine    */
     3319    16422
     3320    16423
     3321    16424    1      LIST$$ = O1COM.CONTROL_LIST$;

  16424 20 001234   000102 236000 xsym               LDQ     O1COM+66
        20 001235   200003 756100                    STQ     LIST$$,,AUTO

     3322    16425
     3323    16426    2      DO WHILE (LIST$$ ~= ADDR(NIL));

  16426 20 001236   001252 710000 20                 TRA     s:16432

     3324    16427
     3325    16428    2        CALL PROCESS_CONTROL_LIST (LIST$$ -> DEFERED_IDENTIFIER.DEFERED_ID$,

  16428 20 001237   200003 236100                    LDQ     LIST$$,,AUTO
        20 001240   000002 036003                    ADLQ    2,DU
        20 001241   200016 756100                    STQ     @CTR_LTS$+1,,AUTO
        20 001242   200003 236100                    LDQ     LIST$$,,AUTO
        20 001243   000001 036003                    ADLQ    1,DU
        20 001244   200015 756100                    STQ     I+3,,AUTO
        20 001245   000003 701000 20                 TSX1    PROCESS_CONTROL_LIST
        20 001246   000000 011000                    NOP     0

     3326    16429    2                                   LIST$$ -> DEFERED_IDENTIFIER.ASSOC_VAR_LTS$);
     3327    16430
     3328    16431    2        LIST$$ = LIST$$ -> DEFERED_IDENTIFIER.LINK;

  16431 20 001247   200003 470500                    LDP0    LIST$$,,AUTO
        20 001250   000007 236100                    LDQ     7,,PR0
        20 001251   200003 756100                    STQ     LIST$$,,AUTO

     3329    16432    2      END;

  16432 20 001252   000001 116000 21                 CMPQ    1
PL6.E3A0      #002=Z8DT$CONTROL_ITEMS File=Z8DT.:Z8A6TSI                         SAT 08/09/97 11:28 Page:515
        20 001253   001237 601000 20                 TNZ     s:16428

     3330    16433
     3331    16434
     3332    16435    1      NAME$ = O1COM.CONTROL_NAME$;

  16435 20 001254   000103 236000 xsym               LDQ     O1COM+67
        20 001255   200004 756100                    STQ     NAME$,,AUTO

     3333    16436
     3334    16437    2      DO WHILE (NAME$ ~= ADDR(NIL));

  16437 20 001256   001333 710000 20                 TRA     s:16461

     3335    16438
     3336    16439    2          LTS$$ = NAME$ -> DEFERED_IDENTIFIER.ASSOC_VAR_LTS$;

  16439 20 001257   200004 470500                    LDP0    NAME$,,AUTO
        20 001260   000002 236100                    LDQ     2,,PR0
        20 001261   200011 756100                    STQ     LTS$$,,AUTO

     3337    16440    2          REPORT_LTS$ = LTS$$ -> REPORT_01_LTS.REPORT_LTS$;

  16440 20 001262   200011 471500                    LDP1    LTS$$,,AUTO
        20 001263   100015 236100                    LDQ     13,,PR1
        20 001264   200006 756100                    STQ     REPORT_LTS$,,AUTO

     3338    16441    2          CTR_TYPE = LTS$$ -> REPORT_01_LTS.GROUP_TYPE;

  16441 20 001265   100010 235100                    LDA     8,,PR1
        20 001266   200007 755100                    STA     CTR_TYPE,,AUTO

     3339    16442
     3340    16443    2          CALL CTR_NAME_CHECK (ST$$, REPORT_LTS$,

  16443 20 001267   200007 633500                    EPPR3   CTR_TYPE,,AUTO
        20 001270   200021 453500                    STP3    LEVEL+1,,AUTO
PL6.E3A0      #002=Z8DT$CONTROL_ITEMS File=Z8DT.:Z8A6TSI                         SAT 08/09/97 11:28 Page:516
        20 001271   200010 634500                    EPPR4   CTR_LTS$,,AUTO
        20 001272   200020 454500                    STP4    NEXT$+1,,AUTO
        20 001273   200004 236100                    LDQ     NAME$,,AUTO
        20 001274   000001 036003                    ADLQ    1,DU
        20 001275   200017 756100                    STQ     @REPORT$$+1,,AUTO
        20 001276   200006 635500                    EPPR5   REPORT_LTS$,,AUTO
        20 001277   200016 455500                    STP5    @CTR_LTS$+1,,AUTO
        20 001300   200005 636500                    EPPR6   ST$$,,AUTO
        20 001301   200015 456500                    STP6    I+3,,AUTO
        20 001302   000533 701000 20                 TSX1    CTR_NAME_CHECK
        20 001303   001305 702000 20                 TSX2    s:16449
        20 001304   001313 710000 20                 TRA     s:16453

     3341    16444    2                               NAME$ -> DEFERED_IDENTIFIER.DEFERED_ID$,
     3342    16445    2                               CTR_LTS$, CTR_TYPE)
     3343    16446    2            WHENALTRETURN
     3344    16447    3              DO;

     3345    16448
     3346    16449    3                CALL CTR_LTS_RECOVER (CTR_LTS$, REPORT_LTS$);

  16449 20 001305   200006 630500                    EPPR0   REPORT_LTS$,,AUTO
        20 001306   200016 450500                    STP0    @CTR_LTS$+1,,AUTO
        20 001307   200010 631500                    EPPR1   CTR_LTS$,,AUTO
        20 001310   200015 451500                    STP1    I+3,,AUTO
        20 001311   000761 701000 20                 TSX1    CTR_LTS_RECOVER
        20 001312   000000 011000                    NOP     0

     3347    16450
     3348    16451    3              END;

     3349    16452
     3350    16453    2          LTS$$ -> REPORT_01_LTS.CONTROL_LTS$ = CTR_LTS$;

  16453 20 001313   200010 236100                    LDQ     CTR_LTS$,,AUTO
        20 001314   200011 470500                    LDP0    LTS$$,,AUTO
        20 001315   000014 756100                    STQ     12,,PR0
PL6.E3A0      #002=Z8DT$CONTROL_ITEMS File=Z8DT.:Z8A6TSI                         SAT 08/09/97 11:28 Page:517

     3351    16454
     3352    16455    2          IF LTS$$ -> REPORT_01_LTS.GROUP_TYPE = %CONTROL_HEADING THEN

  16455 20 001316   000010 235100                    LDA     8,,PR0
        20 001317   000003 115007                    CMPA    3,DL
        20 001320   001325 601000 20                 TNZ     s:16458

     3353    16456    2              CTR_LTS$ -> CONTROL_NAME_LTS.CONTROL_HEADING$ = LTS$$;

  16456 20 001321   200011 236100                    LDQ     LTS$$,,AUTO
        20 001322   200010 471500                    LDP1    CTR_LTS$,,AUTO
        20 001323   100002 756100                    STQ     2,,PR1
        20 001324   001330 710000 20                 TRA     s:16460

     3354    16457    2          ELSE
     3355    16458    2              CTR_LTS$ -> CONTROL_NAME_LTS.CONTROL_FOOTING$ = LTS$$;

  16458 20 001325   200011 236100                    LDQ     LTS$$,,AUTO
        20 001326   200010 471500                    LDP1    CTR_LTS$,,AUTO
        20 001327   100003 756100                    STQ     3,,PR1

     3356    16459
     3357    16460    2          NAME$ = NAME$ -> DEFERED_IDENTIFIER.LINK;

  16460 20 001330   200004 471500                    LDP1    NAME$,,AUTO
        20 001331   100007 236100                    LDQ     7,,PR1
        20 001332   200004 756100                    STQ     NAME$,,AUTO

     3358    16461    2      END;   /* while */

  16461 20 001333   000001 116000 21                 CMPQ    1
        20 001334   001257 601000 20                 TNZ     s:16439

     3359    16462
     3360    16463    1      CALL Z8ED$DISPOSE_ABSSYN_TREE (O1COM.CONTROL_LIST$);

PL6.E3A0      #002=Z8DT$CONTROL_ITEMS File=Z8DT.:Z8A6TSI                         SAT 08/09/97 11:28 Page:518
  16463 20 001335   000025 630400 21                 EPPR0   21
        20 001336   000002 631400 21                 EPPR1   2
        20 001337   000000 701000 xent               TSX1    Z8ED$DISPOSE_ABSSYN_TREE
        20 001340   000000 011000                    NOP     0

     3361    16464    1      CALL Z8ED$DISPOSE_ABSSYN_TREE (O1COM.CONTROL_NAME$);

  16464 20 001341   000026 630400 21                 EPPR0   22
        20 001342   000002 631400 21                 EPPR1   2
        20 001343   000000 701000 xent               TSX1    Z8ED$DISPOSE_ABSSYN_TREE
        20 001344   000000 011000                    NOP     0

     3362    16465
     3363    16466    1    END Z8DT$CONTROL_ITEMS;

  16466 20 001345   000000 702200 xent               TSX2  ! X66_ARET
     3364    16467         %EJECT;
PL6.E3A0      #002=Z8DT$CONTROL_ITEMS File=Z8DT.:Z8A6TSI                         SAT 08/09/97 11:28 Page:519
     3365    16468        %EOD;

PL6.E3A0      #002=Z8DT$CONTROL_ITEMS File=Z8DT.:Z8A6TSI                         SAT 08/09/97 11:28 Page:520
--  Include file information  --

   Z8E_STATEMNT.:Z8A6TOU  is referenced.
   Z8E_ABSSYN.:Z8A6TOU  cannot be made into a system file and is referenced.
   Z8E_HEAP.:Z8A6TOU  cannot be made into a system file and is referenced.
   Z8E_O1COM.:Z8A6TOU  cannot be made into a system file and is referenced.
   Z8E_WINDOW.:Z8A6TOU  is referenced.
   Z8A_LEX_SYMB.:Z8A6TOU  cannot be made into a system file and is referenced.
   Z8E_STACKS.:Z8A6TOU  cannot be made into a system file and is referenced.
   Z8A_XREF.:Z8A6TOU  cannot be made into a system file and is referenced.
   Z8A_ERR_NUMS.:Z8A6TOU  is referenced.
   Z8A_DNT.:Z8A6TOU  cannot be made into a system file and is referenced.
   Z8A_LTS.:Z8A6TOU  cannot be made into a system file and is referenced.
   Z8A_QLT.:Z8A6TOU  cannot be made into a system file and is referenced.
   Z8A_ST.:Z8A6TOU  cannot be made into a system file and is referenced.
   Z8A_COMCOM.:Z8A6TOU  cannot be made into a system file and is referenced.
   Z8A_TYPES.:Z8A6TOU  is referenced.
   X8A_COM_MACS.:X8A6TOU  is referenced.
   Z8A_NAMES.:Z8A6TOU  is referenced.
   Z8A_SUPP_MAC.:Z8A6TOU  is referenced.
   Z8A_DEFC.:Z8A6TOU  cannot be made into a system file and is referenced.
      No diagnostics issued in procedure Z8DT$CONTROL_ITEMS.
PL6.E3A0      #002=Z8DT$CONTROL_ITEMS File=Z8DT.:Z8A6TSI                         SAT 08/09/97 11:28 Page:521

 **** Variables and constants ****

  ****  Section 000 LblCom ITERATION

  ****  Scalars and arrays  ****
OctLoc.c.b A Datatyp(siz) R M Lvl/name                 OctLoc.c.b A Datatyp(siz) R M Lvl/name

     0-0-0/w SBIN        r     1 ITERATION

  ****  Section 001 LblCom ST$

  ****  Scalars and arrays  ****
OctLoc.c.b A Datatyp(siz) R M Lvl/name                 OctLoc.c.b A Datatyp(siz) R M Lvl/name

     0-0-0/w PTR         r     1 ST$

  ****  Section 002 LblCom ST_

  ****  Scalars and arrays  ****
OctLoc.c.b A Datatyp(siz) R M Lvl/name                 OctLoc.c.b A Datatyp(siz) R M Lvl/name

     0-0-0/w STRC(180)         1 ST_

  ****  Section 003 LblCom QLT$

  ****  Scalars and arrays  ****
OctLoc.c.b A Datatyp(siz) R M Lvl/name                 OctLoc.c.b A Datatyp(siz) R M Lvl/name

     0-0-0/w PTR         r     1 QLT$

  ****  Section 004 LblCom PREV_01_QLT$

  ****  Scalars and arrays  ****
OctLoc.c.b A Datatyp(siz) R M Lvl/name                 OctLoc.c.b A Datatyp(siz) R M Lvl/name

     0-0-0/w PTR               1 PREV_01_QLT$

PL6.E3A0      #002=Z8DT$CONTROL_ITEMS File=Z8DT.:Z8A6TSI                         SAT 08/09/97 11:28 Page:522
  ****  Section 005 LblCom QLT_

  ****  Scalars and arrays  ****
OctLoc.c.b A Datatyp(siz) R M Lvl/name                 OctLoc.c.b A Datatyp(siz) R M Lvl/name

     0-0-0/w STRC(180)         1 QLT_

  ****  Section 006 LblCom LTS$

  ****  Scalars and arrays  ****
OctLoc.c.b A Datatyp(siz) R M Lvl/name                 OctLoc.c.b A Datatyp(siz) R M Lvl/name

     0-0-0/w PTR               1 LONG_ITEM$                 0-0-0/w PTR         r     1 LTS$

  ****  Section 007 LblCom LTS_

  ****  Scalars and arrays  ****
OctLoc.c.b A Datatyp(siz) R M Lvl/name                 OctLoc.c.b A Datatyp(siz) R M Lvl/name

     0-0-0/w STRC(180)   r     1 LTS_

  ****  Section 008 LblCom DNT$

  ****  Scalars and arrays  ****
OctLoc.c.b A Datatyp(siz) R M Lvl/name                 OctLoc.c.b A Datatyp(siz) R M Lvl/name

     0-0-0/w PTR         r     1 DNT$

  ****  Section 009 LblCom DNT_

  ****  Scalars and arrays  ****
OctLoc.c.b A Datatyp(siz) R M Lvl/name                 OctLoc.c.b A Datatyp(siz) R M Lvl/name

     0-0-0/w STRC(180)         1 DNT_

  ****  Section 010 LblCom DNT_BUCKET_NUMBER

PL6.E3A0      #002=Z8DT$CONTROL_ITEMS File=Z8DT.:Z8A6TSI                         SAT 08/09/97 11:28 Page:523
  ****  Scalars and arrays  ****
OctLoc.c.b A Datatyp(siz) R M Lvl/name                 OctLoc.c.b A Datatyp(siz) R M Lvl/name

     0-0-0/w UBIN              1 DNT_BUCKET_NUMBER

  ****  Section 011 LblCom DNT_OF_1$

  ****  Scalars and arrays  ****
OctLoc.c.b A Datatyp(siz) R M Lvl/name                 OctLoc.c.b A Datatyp(siz) R M Lvl/name

     0-0-0/w PTR               1 DNT_OF_1$

  ****  Section 012 LblCom XREF$

  ****  Scalars and arrays  ****
OctLoc.c.b A Datatyp(siz) R M Lvl/name                 OctLoc.c.b A Datatyp(siz) R M Lvl/name

     0-0-0/w PTR         r     1 XREF$

  ****  Section 013 LblCom XREF_

  ****  Scalars and arrays  ****
OctLoc.c.b A Datatyp(siz) R M Lvl/name                 OctLoc.c.b A Datatyp(siz) R M Lvl/name

     0-0-0/w STRC(180)   r     1 XREF_

  ****  Section 014 LblCom LEX_SYMBOL

  ****  Scalars and arrays  ****
OctLoc.c.b A Datatyp(siz) R M Lvl/name                 OctLoc.c.b A Datatyp(siz) R M Lvl/name

     0-0-0/w STRC(3240)  r     1 LEX_SYMBOL                 0-0-0/w STRC(3240)        1 LEX_SYMBOL_WORDS

  ****  Section 015 LblCom CURRENT_LEX_SYMBOL$

  ****  Scalars and arrays  ****
OctLoc.c.b A Datatyp(siz) R M Lvl/name                 OctLoc.c.b A Datatyp(siz) R M Lvl/name
PL6.E3A0      #002=Z8DT$CONTROL_ITEMS File=Z8DT.:Z8A6TSI                         SAT 08/09/97 11:28 Page:524

     0-0-0/w PTR         r     1 CURRENT_LEX_SYMBOL$

  ****  Section 016 LblCom TEMP_LEX_SYMBOL

  ****  Scalars and arrays  ****
OctLoc.c.b A Datatyp(siz) R M Lvl/name                 OctLoc.c.b A Datatyp(siz) R M Lvl/name

     0-0-0/w STRC(3240)        1 TEMP_LEX_SYMBOL

  ****  Section 017 LblCom TEMP_LEX_SYMBOL2

  ****  Scalars and arrays  ****
OctLoc.c.b A Datatyp(siz) R M Lvl/name                 OctLoc.c.b A Datatyp(siz) R M Lvl/name

     0-0-0/w STRC(3240)        1 TEMP_LEX_SYMBOL2

  ****  Section 018 LblCom HEAP$

  ****  Scalars and arrays  ****
OctLoc.c.b A Datatyp(siz) R M Lvl/name                 OctLoc.c.b A Datatyp(siz) R M Lvl/name

     0-0-0/w PTR               1 HEAP$

  ****  Section 019 LblCom TEMP_LX_NODE

  ****  Scalars and arrays  ****
OctLoc.c.b A Datatyp(siz) R M Lvl/name                 OctLoc.c.b A Datatyp(siz) R M Lvl/name

     0-0-0/d STRC(288)         1 TEMP_LX_NODE

  ****  Auto variables  ****

  ****  Scalars and arrays  ****
OctLoc.c.b A Datatyp(siz) R M Lvl/name                 OctLoc.c.b A Datatyp(siz) R M Lvl/name

    20-0-0/w PTR         r     1 @CTR_LTS$                 15-0-0/w PTR         r     1 @CTR_LTS$
PL6.E3A0      #002=Z8DT$CONTROL_ITEMS File=Z8DT.:Z8A6TSI                         SAT 08/09/97 11:28 Page:525
    21-0-0/w PTR         r     1 @CTR_TYPE                 33-0-0/w PTR         r     1 @ID_COUNT
    16-0-0/w PTR         r     1 @LTS$$                    32-0-0/w PTR         r     1 @QUAL_ID$
    17-0-0/w PTR         r     1 @QUAL_ID$                 15-0-0/w PTR         r     1 @QUAL_LIST$
    16-0-0/w PTR         r     1 @REPORT$$                 16-0-0/w PTR         r     1 @REPORT_LTS$$
    31-0-0/w PTR         r     1 @ST$$                     15-0-0/w PTR         r     1 @ST$$
    34-0-0/w PTR         r     1 @T$$                      35-0-0/w PTR         r     1 CHK_ST$
    23-0-0/w PTR         r     1 CTR$                      10-0-0/w PTR         r     1 CTR_LTS$
    26-0-0/w PTR         r     1 CTR_LTS$                  *0-0-0/w PTR         r     1 CTR_LTS$
    *0-0-0/w PTR         r     1 CTR_LTS$                   7-0-0/w UBIN        r     1 CTR_TYPE
    *0-0-0/w UBIN        r     1 CTR_TYPE                  40-0-0/w PTR         r     1 DEPEND$
    25-0-0/w UBIN        r     1 HLEN                      12-0-0/w SBIN        r     1 I
    36-0-0/w SBIN        r     1 I                         21-0-0/w SBIN        r     1 ID_COUNT
    *0-0-0/w SBIN        r     1 ID_COUNT                  23-0-0/w SBIN        r     1 LEN
    22-0-0/b UBIN(18)    r     1 LEN                       20-0-0/w SBIN        r     1 LEVEL
     3-0-0/w PTR         r     1 LIST$$                    11-0-0/w PTR         r     1 LTS$$
    24-0-0/w PTR         r     1 LTS$$                     *0-0-0/w PTR         r     1 LTS$$
     4-0-0/w PTR         r     1 NAME$                     17-0-0/w PTR         r     1 NEXT$
    17-0-0/w PTR         r     1 QUAL_ID$                  *0-0-0/w PTR         r     1 QUAL_ID$
    *0-0-0/w PTR         r     1 QUAL_ID$                  *0-0-0/w PTR         r     1 QUAL_LIST$
    *0-0-0/w PTR         r     1 REPORT$$                   6-0-0/w PTR         r     1 REPORT_LTS$
    *0-0-0/w PTR         r     1 REPORT_LTS$$              24-0-0/w SBIN              1 RSV_WRD#
    37-0-0/w PTR         r     1 SON$                       5-0-0/w PTR         r     1 ST$$
    20-0-0/w PTR         r     1 ST$$                      *0-0-0/w PTR         r     1 ST$$
    *0-0-0/w PTR         r     1 ST$$                      22-0-0/w PTR         r     1 T$$
    *0-0-0/w PTR         r     1 T$$

  ****  SYMREF variables  ****

  ****  Scalars and arrays  ****
OctLoc.c.b A Datatyp(siz) R M Lvl/name                 OctLoc.c.b A Datatyp(siz) R M Lvl/name

     0-0-0/d STRC(13248) r     1 COMCOM
     0-0-0/w PTR         r     1 DNT$_FROM_RSWNO(0:0)
     0-0-0/w STRC(180)         1 HIER_STK(0:50)
     0-0-0/w SBIN              1 HIER_STK_PTR
     0-0-0/w UBIN              1 LTS_STEP(0:37)
     0-0-0/d STRC(11580) r     1 O1COM                      0-0-0/w STRC(144)         1 PAGE_FORMAT
PL6.E3A0      #002=Z8DT$CONTROL_ITEMS File=Z8DT.:Z8A6TSI                         SAT 08/09/97 11:28 Page:526
     0-0-0/w STRC(153)         1 REP_STK(0:50)              0-0-0/w SBIN              1 REP_STK_PTR

  ****  BASED and DCB variables  ****

  ****  Scalars and arrays  ****
OctLoc.c.b A Datatyp(siz) R M Lvl/name                 OctLoc.c.b A Datatyp(siz) R M Lvl/name

     0-0-0/w STRC(288)         1 ADD_STMT                   0-0-0/w STRC(396)         1 ALPHABET
     0-0-0/w STRC(144)         1 ALTER_LTS                  0-0-0/w STRC(3672)        1 ALT_KEY
     0-0-0/w STRC(36864)       1 ARGLIST                    0-0-0/w STRC(396)         1 ARRAY
     0-0-0/w STRC(180)         1 ARRAY_PRESET_LTS           0-0-0/w ASTR(324)   r     1 BASED_LEX_SYMBOL
     0-0-0/w STRC(360)         1 BASED_LEX_SYMBOL_WORDS
     0-0-0/w STRC(288)         1 BASE_LTS                   0-0-0/w STRC(288)         1 BINARY_OP
     0-0-0/w STRC(396)         1 BLOCK                      0-0-0/w STRC(144)         1 BT
     0-0-0/w STRC(288)         1 CALL_STMT                  0-0-0/w STRC(396)         1 CD
     0-0-0/w STRC(288)         1 CD_LTS                     0-0-0/w CHAR(4096)        1 CHARS
     0-0-0/w STRC(396)         1 CLASS                      0-0-0/w STRC(288)         1 COMPUTE_STMT
     0-0-0/w STRC(396)         1 CONDITION                  0-0-0/w STRC(396)         1 CONST
     0-0-0/w STRC(72)          1 CONT                       0-0-0/w STRC(540)   r     1 CONTROL_NAME_LTS
     0-0-0/w STRC(1872)        1 COPY_FILE                  0-0-0/w STRC(396)         1 DB
     0-0-0/w STRC(396)         1 DCB_                       0-0-0/w STRC(288)   r     1 DEFERED_IDENTIFIER
     0-0-0/w STRC(252)         1 DEFERED_ID_TREE            0-0-0/w STRC(288)   r     1 DEFERED_QUAL_ID
     0-0-0/w STRC(288)         1 DEFERED_SUM_CLAUSE
     0-0-0/w STRC(288)         1 DEFERED_SUM_CLAUSE_LIST
     0-0-0/w STRC(288)         1 DELETE_STMT                0-0-0/w STRC(108)         1 DEPENDING_SIZE
     0-0-0/w STRC(5472)        1 DIMS                       0-0-0/w STRC(288)         1 DIVIDE_STMT
     0-0-0/w STRC(396)         1 DML_ITEM                   0-0-0/w STRC(216)         1 DML_REC
     0-0-0/w ASTR(180)   r     1 DNT                        0-0-0/w STRC(73836)       1 EVALUATE
     0-0-0/w STRC(396)         1 FD                         0-0-0/w STRC(1692)        1 FILE_LTS
     0-0-0/w STRC(288)         1 ILS_LIST                   0-0-0/w STRC(108)         1 INDEXES
     0-0-0/w STRC(360)         1 INIT_LTS                   0-0-0/w STRC(288)         1 INSPECT_1_STMT
     0-0-0/w STRC(288)         1 INSPECT_2_STMT             0-0-0/w STRC(288)         1 INSPECT_4_STMT
     0-0-0/w STRC(396)         1 INTDEF                     0-0-0/w STRC(180)         1 IO_RESTORE_CHAIN
     0-0-0/w STRC(144)         1 KEY                        0-0-0/w STRC(396)         1 LABEL
     0-0-0/w STRC(288)         1 LA_ITEM                    0-0-0/w STRC(36864)       1 LCNST
     0-0-0/w STRC(72)          1 LONG                       0-0-0/w STRC        r     1 LTS
     0-0-0/w STRC(360)         1 LTSS                       0-0-0/w STRC(36936) r     1 LTS_PTR_ARRAY
PL6.E3A0      #002=Z8DT$CONTROL_ITEMS File=Z8DT.:Z8A6TSI                         SAT 08/09/97 11:28 Page:527
     0-0-0/w STRC(504)         1 LX_CD_INPUT                0-0-0/w STRC(324)         1 LX_CD_I_O
     0-0-0/w STRC(396)         1 LX_CD_OUTPUT               0-0-0/w STRC(288)         1 LX_ETT_ITEM
     0-0-0/w STRC(288)   r     1 LX_ITEM                    0-0-0/w STRC(288)         1 LX_LARGE
     0-0-0/w STRC(288)   r     1 LX_LIST                    0-0-0/w STRC(1224)        1 LX_REC_DECL
     0-0-0/w STRC(864)         1 LX_REPORT_REC              0-0-0/w STRC(288)         1 LX_TERMINAL
     0-0-0/w STRC(396)         1 MNEMONIC                   0-0-0/w STRC(288)         1 MULTIPLY_STMT
     0-0-0/w STRC(144)         1 NEL                        0-0-0/w STRC(216)         1 OPEN_LTS
     0-0-0/w STRC(36864)       1 PAGE                       0-0-0/w STRC(396)         1 PARA
     0-0-0/w STRC(144)         1 PRIME                      0-0-0/w STRC(396)         1 PROC_
     0-0-0/w STRC(396)         1 PROC_DEF                   0-0-0/w STRC(900)         1 PROC_SUPP
     0-0-0/w STRC(36864) r     1 PTR_ARRAY                  0-0-0/w STRC(36864) r     1 PTR_ARRAY
     0-0-0/w STRC(216)   r     1 QLT                        0-0-0/w STRC(396)         1 RD
     0-0-0/w STRC(288)         1 READ_STMT                  0-0-0/w STRC(216)         1 REF
     0-0-0/w STRC(108)         1 RENAMES                    0-0-0/w STRC(720)   r     1 REPORT_01_LTS
     0-0-0/w STRC(432)         1 REPORT_ELEM_LTS            0-0-0/w STRC(252)         1 REPORT_GRP_LTS
     0-0-0/w STRC(1332)  r     1 REPORT_LTS                 0-0-0/w STRC(288)         1 REWRITE_STMT
     0-0-0/w STRC(144)         1 RVA_LTS                    0-0-0/w STRC(396)   r     1 SCALAR
     0-0-0/w STRC(396)         1 SD                         0-0-0/w STRC(396)         1 SECTION
     0-0-0/w STRC(396)         1 SEGMENT                    0-0-0/w STRC(360)         1 SEGMENT_LTS
     0-0-0/w STRC(396)   r     1 ST                         0-0-0/w STRC(288)         1 START_STMT
     0-0-0/w STRC(252)         1 STRING_STMT                0-0-0/w STRC(288)         1 SUBTRACT_STMT
     0-0-0/w STRC(252)         1 SUM_LTS                    0-0-0/w STRC(396)         1 SWITCH
     0-0-0/w STRC(396)         1 SYMBOLIC_CHAR              0-0-0/w STRC(396)         1 SYMDEF_
     0-0-0/w STRC(396)         1 SYMREF_                    0-0-0/w STRC(396)         1 TEMP
     0-0-0/w STRC(288)         1 UNARY_OP                   0-0-0/w STRC(288)         1 UNSTRING_STMT
     0-0-0/d STRC(612)         1 USE                        0-0-0/w STRC(252)         1 USE_SUPP
     0-0-0/w STRC(396)         1 VARIABLE                   0-0-0/w STRC(288)         1 WRITE_STMT
     0-0-0/w STRC(72)    r     1 XREF


   Procedure Z8DT$CONTROL_ITEMS requires 742 words for executable code.
   Procedure Z8DT$CONTROL_ITEMS requires 38 words of local(AUTO) storage.

