VERSION A06

PL6.E3A0      #001=Z8DU$BUILD_INITIAL_ITEM File=Z8DU.:Z8A6TSI                    SAT 08/09/97 11:23 Page:1
        1        1        /*M* Z8DU$BUILD_INITIAL_ITEM */
        2        2        /*T***********************************************************/
        3        3        /*T*                                                         */
        4        4        /*T* Copyright (c) Bull HN Information Systems Inc., 1997    */
        5        5        /*T*                                                         */
        6        6        /*T***********************************************************/
        7        7
        8        8
        9        9        Z8DU$BUILD_INITIAL_ITEM : PROC (CONST_ETT$, ST$$);
       10       10
       11       11             %EQU PHASE = 1;
       12       12
       13       13             %INCLUDE Z8A_DEFC;
       14       81             %INCLUDE Z8A_SUPP_MAC;
       15     2481             %INCLUDE Z8A_COMCOM;
       16     3131             %INCLUDE Z8A_ST;
       17     6790             %INCLUDE Z8A_TYPES;
       18     6964             %INCLUDE Z8A_ETT;
       19     7265             %INCLUDE Z8A_LTS;
       20     9342
       21     9343             %INCLUDE Z8E_STACKS;
       22    11609             %INCLUDE Z8E_O1COM;
       23    12370             %INCLUDE Z8E_HEAP;
       24    12426             %INCLUDE Z8E_ABSSYN;
       25    12632             %INCLUDE Z8E_MACROS;
       26    13307             %INCLUDE Z8E_WINDOW;
       27    15377
       28    15378
       29    15379    1        DCL CONST_ITEM$   PTR;
       30    15380    1        DCL ITEM$         PTR;
       31    15381    1        DCL L$            PTR;
       32    15382    1        DCL P$            PTR;
       33    15383    1        DCL CONST_ETT$    PTR;
       34    15384    1        DCL ST$$          PTR;
       35    15385
       36    15386    1        DCL Z8EU$CREATE_IDENTIFIER_FROM_ST ENTRY (4);
       37    15387
PL6.E3A0      #001=Z8DU$BUILD_INITIAL_ITEM File=Z8DU.:Z8A6TSI                    SAT 08/09/97 11:23 Page:2
       38    15388
       39    15389    1        IF O1COM.CURRENT_PROC$ -> PROC_.PROC_SUPP$ -> PROC_SUPP.INIT_PROC$ = ADDR(NIL)
             15389                 THEN
       40    15390    2          DO;
       41    15391                 %NEW (@POINTER = P$,
       42    15392                       @TEMPLATE = LX_LIST);
       43    15402
       44    15403                 %INIT_LX_LIST (@POINTER = P$);
       45    15413
       46    15414    2            O1COM.CURRENT_PROC$ -> PROC_.PROC_SUPP$ -> PROC_SUPP.INIT_PROC$ = P$;
       47    15415    2          END;
       48    15416    1        ELSE
       49    15417    1          P$ = O1COM.CURRENT_PROC$ -> PROC_.PROC_SUPP$ -> PROC_SUPP.INIT_PROC$;
       50    15418
       51    15419             %NEW (@TEMPLATE = LX_LIST,
       52    15420                   @POINTER  = L$);
       53    15430
       54    15431             %INIT_LX_LIST (@POINTER = L$);
       55    15441
       56    15442             %NEW (@TEMPLATE = LX_ETT_ITEM,
       57    15443                   @POINTER  = ITEM$);
       58    15453
       59    15454    1        CALL Z8EU$CREATE_IDENTIFIER_FROM_ST (ST$$,
       60    15455    1                                             ITEM$);
       61    15456
       62    15457    1        IF ST$$ -> ST.TYPE = %TYP THEN
       63    15458    1          ITEM$ -> LX_ETT_ITEM.TYPE = %TYI;
       64    15459
       65    15460             %ADD_LX_ITEM_TO_LIST_HEAD (@LIST$ = L$,
       66    15461                                        @FROM$ = ITEM$);
       67    15470
       68    15471             %NEW (@TEMPLATE = LX_ETT_ITEM,
       69    15472                   @POINTER  = CONST_ITEM$);
       70    15482
       71    15483             %INIT_LX_ETT_ITEM (@POINTER = CONST_ITEM$,
       72    15484                                @ETT$    = CONST_ETT$);
       73    15506    1        IF CONST_ETT$ = ADDR(NIL) THEN
PL6.E3A0      #001=Z8DU$BUILD_INITIAL_ITEM File=Z8DU.:Z8A6TSI                    SAT 08/09/97 11:23 Page:3
       74    15507    2          DO;
       75    15508    2            CONST_ITEM$ -> LX_ETT_ITEM.B.ALL = TRUE;
       76    15509    2            CONST_ITEM$ -> LX_ETT_ITEM.TYPE = %TYA;
       77    15510    2          END;
       78    15511    1        ELSE
       79    15512    2          DO;
       80    15513    2            CONST_ITEM$ -> LX_ETT_ITEM.B.ALL = CONST_ETT$ -> ETT.LOP  -> CONST.B.ALL;
       81    15514    2            CONST_ITEM$ -> LX_ETT_ITEM.TYPE = CONST_ETT$ -> ETT.LOP  -> CONST.TYPE;
       82    15515    2          END;
       83    15516
       84    15517             %ADD_LX_ITEM_TO_LIST_TAIL (@LIST$ = L$,
       85    15518                                        @FROM$ = CONST_ITEM$);
       86    15534
       87    15535             %ADD_LX_ITEM_TO_LIST_TAIL (@LIST$ = P$,
       88    15536                                        @FROM$ = L$);
       89    15552
       90    15553
       91    15554    1   END Z8DU$BUILD_INITIAL_ITEM;

PL6.E3A0      #001=Z8DU$BUILD_INITIAL_ITEM File=Z8DU.:Z8A6TSI                    SAT 08/09/97 11:23 Page:4
--  Include file information  --

   Z8E_WINDOW.:Z8A6TOU  is referenced.
   Z8E_NEW_ILL.:Z8A6TOU  is referenced.
   Z8E_MACROS.:Z8A6TOU  cannot be made into a system file and is referenced.
   Z8E_ABSSYN.:Z8A6TOU  cannot be made into a system file and is referenced.
   Z8E_HEAP.:Z8A6TOU  cannot be made into a system file and is referenced.
   Z8E_O1COM.:Z8A6TOU  cannot be made into a system file and is referenced.
   Z8A_LEX_SYMB.:Z8A6TOU  cannot be made into a system file and is referenced.
   Z8E_STACKS.:Z8A6TOU  cannot be made into a system file and is referenced.
   Z8A_LTS.:Z8A6TOU  cannot be made into a system file and is referenced.
   Z8A_ETT.:Z8A6TOU  cannot be made into a system file and is referenced.
   Z8A_TYPES.:Z8A6TOU  is referenced.
   Z8A_ST.:Z8A6TOU  cannot be made into a system file and is referenced.
   Z8A_COMCOM.:Z8A6TOU  cannot be made into a system file and is referenced.
   X8A_COM_MACS.:X8A6TOU  is referenced.
   Z8A_NAMES.:Z8A6TOU  is referenced.
   Z8A_SUPP_MAC.:Z8A6TOU  is referenced.
   Z8A_DEFC.:Z8A6TOU  cannot be made into a system file and is referenced.
      No diagnostics issued in procedure Z8DU$BUILD_INITIAL_ITEM.

   Procedure Z8DU$BUILD_INITIAL_ITEM requires 191 words for executable code.
   Procedure Z8DU$BUILD_INITIAL_ITEM requires 12 words of local(AUTO) storage.

    No errors detected in file Z8DU.:Z8A6TSI    .

PL6.E3A0      #001=Z8DU$BUILD_INITIAL_ITEM File=Z8DU.:Z8A6TSI                    SAT 08/09/97 11:23 Page:5

 Object Unit name= Z8DU$BUILD_INITIAL_ITEM                    File name= Z8DU.:Z8A6TOU
 UTS= AUG 09 '97 11:23:45.20 SAT                              Compiler= PL-6/E31         Sev=      00
 SharedLib= :SHARED_SYSTEM                                    Alt SharedLib=


    ****  Control sections  ****

 Sect   Type Bound  Init  Size OctSiz  Section name(segment info)
    0  LblCom even  none     1      1  ITERATION
    1  LblCom even  none     1      1  ST$
    2  LblCom even  none     5      5  ST_
    3  LblCom even  none     1      1  ETT$
    4  LblCom even  none     1      1  HEAD_ETT$
    5  LblCom even  none   512   1000  ETT_BUCKETS
    6  LblCom even  none     5      5  ETT_
    7  LblCom even  none     1      1  LTS$
    8  LblCom even  none     5      5  LTS_
    9  LblCom even  none    90    132  LEX_SYMBOL
   10  LblCom even  none     1      1  CURRENT_LEX_SYMBOL$
   11  LblCom even  none    90    132  TEMP_LEX_SYMBOL
   12  LblCom even  none    90    132  TEMP_LEX_SYMBOL2
   13  LblCom even  none     1      1  HEAP$
   14  LblCom even  none     8     10  TEMP_LX_NODE
   15   Proc  even  none   191    277  Z8DU$BUILD_INITIAL_ITEM
   16  RoData even  none     4      4  Z8DU$BUILD_INITIAL_ITEM

    ****  Entry defs  ****

                              Check   Calling
                             calling  sequence
  Sect OctLoc Primary Altret sequence   type   Parms  Name
    15      0   yes            yes      Std        2  Z8DU$BUILD_INITIAL_ITEM
PL6.E3A0      #001=Z8DU$BUILD_INITIAL_ITEM File=Z8DU.:Z8A6TSI                    SAT 08/09/97 11:23 Page:6

  ****  Entry refs  ****

         Check        Calling
        calling       sequence
Altret sequence SRef   type   Args  Name
         yes           Std       2 Z8ED$NEW_HEAP
         yes           Std       4 Z8EU$CREATE_IDENTIFIER_FROM_ST
                       nStd      0 X66_AUTO_2
                       nStd      0 X66_ARET

  ****  Data refs  ****

  Flags:  r = read only, s = secondary
Flgs Name                             Flgs Name                             Flgs Name
     COMCOM                           r    LTS_STEP                              O1COM
     HIER_STK_PTR                          HIER_STK                              PAGE_FORMAT
     REP_STK_PTR                           REP_STK

  ****  Segment refs  ****

  Flags:  r = read only, s = secondary
Flgs Name                             Flgs Name                             Flgs Name
     NULLSID                               ISSID
PL6.E3A0      #001=Z8DU$BUILD_INITIAL_ITEM File=Z8DU.:Z8A6TSI                    SAT 08/09/97 11:23 Page:7


        1        1        /*M* Z8DU$BUILD_INITIAL_ITEM */
        2        2        /*T***********************************************************/
        3        3        /*T*                                                         */
        4        4        /*T* Copyright (c) Bull HN Information Systems Inc., 1997    */
        5        5        /*T*                                                         */
        6        6        /*T***********************************************************/
        7        7
        8        8
        9        9        Z8DU$BUILD_INITIAL_ITEM : PROC (CONST_ETT$, ST$$);

      9 15 000000   000000 700200 xent  Z8DU$BUILD_* TSX0  ! X66_AUTO_2
        15 000001   000014 000002                    ZERO    12,2

       10       10
       11       11             %EQU PHASE = 1;
       12       12
       13       13             %INCLUDE Z8A_DEFC;
       14       81             %INCLUDE Z8A_SUPP_MAC;
       15     2481             %INCLUDE Z8A_COMCOM;
       16     3131             %INCLUDE Z8A_ST;
       17     6790             %INCLUDE Z8A_TYPES;
       18     6964             %INCLUDE Z8A_ETT;
       19     7265             %INCLUDE Z8A_LTS;
       20     9342
       21     9343             %INCLUDE Z8E_STACKS;
       22    11609             %INCLUDE Z8E_O1COM;
       23    12370             %INCLUDE Z8E_HEAP;
       24    12426             %INCLUDE Z8E_ABSSYN;
       25    12632             %INCLUDE Z8E_MACROS;
       26    13307             %INCLUDE Z8E_WINDOW;
       27    15377
       28    15378
       29    15379    1        DCL CONST_ITEM$   PTR;
       30    15380    1        DCL ITEM$         PTR;
       31    15381    1        DCL L$            PTR;
       32    15382    1        DCL P$            PTR;
PL6.E3A0      #001=Z8DU$BUILD_INITIAL_ITEM File=Z8DU.:Z8A6TSI                    SAT 08/09/97 11:23 Page:8
       33    15383    1        DCL CONST_ETT$    PTR;
       34    15384    1        DCL ST$$          PTR;
       35    15385
       36    15386    1        DCL Z8EU$CREATE_IDENTIFIER_FROM_ST ENTRY (4);
       37    15387
       38    15388
       39    15389    1        IF O1COM.CURRENT_PROC$ -> PROC_.PROC_SUPP$ -> PROC_SUPP.INIT_PROC$ = ADDR(NIL)
             15389                 THEN

  15389 15 000002   000057 470400 xsym               LDP0    O1COM+47
        15 000003   000001 471500                    LDP1    1,,PR0
        15 000004   100003 236100                    LDQ     3,,PR1
        15 000005   000000 116000 16                 CMPQ    0
        15 000006   000043 601000 15                 TNZ     s:15417

       40    15390    2          DO;

       41    15391                 %NEW (@POINTER = P$,
       42    15392                       @TEMPLATE = LX_LIST);

  15398 15 000007   000003 236000 16                 LDQ     3
        15 000010   200013 756100                    STQ     P$+3,,AUTO
        15 000011   200010 631500                    EPPR1   P$,,AUTO
        15 000012   200012 451500                    STP1    P$+2,,AUTO
        15 000013   200012 630500                    EPPR0   P$+2,,AUTO
        15 000014   000001 631400 16                 EPPR1   1
        15 000015   000000 701000 xent               TSX1    Z8ED$NEW_HEAP
        15 000016   000000 011000                    NOP     0

       43    15402
       44    15403                 %INIT_LX_LIST (@POINTER = P$);

  15405 15 000017   000002 220003                    LDX0    2,DU
        15 000020   200010 470500                    LDP0    P$,,AUTO
        15 000021   000000 740100                    STX0    0,,PR0

  15406 15 000022   000000 221003                    LDX1    0,DU
PL6.E3A0      #001=Z8DU$BUILD_INITIAL_ITEM File=Z8DU.:Z8A6TSI                    SAT 08/09/97 11:23 Page:9
        15 000023   200010 470500                    LDP0    P$,,AUTO
        15 000024   000000 441100                    SXL1    0,,PR0

  15407 15 000025   000000 236000 16                 LDQ     0
        15 000026   200010 470500                    LDP0    P$,,AUTO
        15 000027   000001 756100                    STQ     1,,PR0

  15408 15 000030   200010 470500                    LDP0    P$,,AUTO
        15 000031   000004 756100                    STQ     4,,PR0

  15409 15 000032   200010 470500                    LDP0    P$,,AUTO
        15 000033   000007 756100                    STQ     7,,PR0

  15410 15 000034   200010 470500                    LDP0    P$,,AUTO
        15 000035   000002 450100                    STZ     2,,PR0

       45    15413
       46    15414    2            O1COM.CURRENT_PROC$ -> PROC_.PROC_SUPP$ -> PROC_SUPP.INIT_PROC$ = P$;

  15414 15 000036   000057 470400 xsym               LDP0    O1COM+47
        15 000037   000001 471500                    LDP1    1,,PR0
        15 000040   200010 236100                    LDQ     P$,,AUTO
        15 000041   100003 756100                    STQ     3,,PR1

       47    15415    2          END;

  15415 15 000042   000044 710000 15                 TRA     s:15426

       48    15416    1        ELSE
       49    15417    1          P$ = O1COM.CURRENT_PROC$ -> PROC_.PROC_SUPP$ -> PROC_SUPP.INIT_PROC$;

  15417 15 000043   200010 756100                    STQ     P$,,AUTO

       50    15418
       51    15419             %NEW (@TEMPLATE = LX_LIST,
       52    15420                   @POINTER  = L$);

PL6.E3A0      #001=Z8DU$BUILD_INITIAL_ITEM File=Z8DU.:Z8A6TSI                    SAT 08/09/97 11:23 Page:10
  15426 15 000044   000003 236000 16                 LDQ     3
        15 000045   200013 756100                    STQ     P$+3,,AUTO
        15 000046   200007 630500                    EPPR0   L$,,AUTO
        15 000047   200012 450500                    STP0    P$+2,,AUTO
        15 000050   200012 630500                    EPPR0   P$+2,,AUTO
        15 000051   000001 631400 16                 EPPR1   1
        15 000052   000000 701000 xent               TSX1    Z8ED$NEW_HEAP
        15 000053   000000 011000                    NOP     0

       53    15430
       54    15431             %INIT_LX_LIST (@POINTER = L$);

  15433 15 000054   000002 220003                    LDX0    2,DU
        15 000055   200007 470500                    LDP0    L$,,AUTO
        15 000056   000000 740100                    STX0    0,,PR0

  15434 15 000057   000000 221003                    LDX1    0,DU
        15 000060   200007 470500                    LDP0    L$,,AUTO
        15 000061   000000 441100                    SXL1    0,,PR0

  15435 15 000062   000000 236000 16                 LDQ     0
        15 000063   200007 470500                    LDP0    L$,,AUTO
        15 000064   000001 756100                    STQ     1,,PR0

  15436 15 000065   200007 470500                    LDP0    L$,,AUTO
        15 000066   000004 756100                    STQ     4,,PR0

  15437 15 000067   200007 470500                    LDP0    L$,,AUTO
        15 000070   000007 756100                    STQ     7,,PR0

  15438 15 000071   200007 470500                    LDP0    L$,,AUTO
        15 000072   000002 450100                    STZ     2,,PR0

       55    15441
       56    15442             %NEW (@TEMPLATE = LX_ETT_ITEM,
       57    15443                   @POINTER  = ITEM$);

PL6.E3A0      #001=Z8DU$BUILD_INITIAL_ITEM File=Z8DU.:Z8A6TSI                    SAT 08/09/97 11:23 Page:11
  15449 15 000073   000003 236000 16                 LDQ     3
        15 000074   200013 756100                    STQ     P$+3,,AUTO
        15 000075   200006 630500                    EPPR0   ITEM$,,AUTO
        15 000076   200012 450500                    STP0    P$+2,,AUTO
        15 000077   200012 630500                    EPPR0   P$+2,,AUTO
        15 000100   000001 631400 16                 EPPR1   1
        15 000101   000000 701000 xent               TSX1    Z8ED$NEW_HEAP
        15 000102   000000 011000                    NOP     0

       58    15453
       59    15454    1        CALL Z8EU$CREATE_IDENTIFIER_FROM_ST (ST$$,

  15454 15 000103   200006 630500                    EPPR0   ITEM$,,AUTO
        15 000104   200013 450500                    STP0    P$+3,,AUTO
        15 000105   200004 236100                    LDQ     @ST$$,,AUTO
        15 000106   200012 756100                    STQ     P$+2,,AUTO
        15 000107   200012 630500                    EPPR0   P$+2,,AUTO
        15 000110   000001 631400 16                 EPPR1   1
        15 000111   000000 701000 xent               TSX1    Z8EU$CREATE_IDENTIFIER_FROM_ST
        15 000112   000000 011000                    NOP     0

       60    15455    1                                             ITEM$);
       61    15456
       62    15457    1        IF ST$$ -> ST.TYPE = %TYP THEN

  15457 15 000113   200004 470500                    LDP0    @ST$$,,AUTO
        15 000114   000000 471500                    LDP1    0,,PR0
        15 000115   100002 220100                    LDX0    2,,PR1
        15 000116   000022 100003                    CMPX0   18,DU
        15 000117   000123 601000 15                 TNZ     s:15463

       63    15458    1          ITEM$ -> LX_ETT_ITEM.TYPE = %TYI;

  15458 15 000120   000001 235007                    LDA     1,DL
        15 000121   200006 473500                    LDP3    ITEM$,,AUTO
        15 000122   300004 755100                    STA     4,,PR3

PL6.E3A0      #001=Z8DU$BUILD_INITIAL_ITEM File=Z8DU.:Z8A6TSI                    SAT 08/09/97 11:23 Page:12
       64    15459
       65    15460             %ADD_LX_ITEM_TO_LIST_HEAD (@LIST$ = L$,
       66    15461                                        @FROM$ = ITEM$);

  15463 15 000123   200007 471500                    LDP1    L$,,AUTO
        15 000124   100004 236100                    LDQ     4,,PR1
        15 000125   200006 473500                    LDP3    ITEM$,,AUTO
        15 000126   300007 756100                    STQ     7,,PR3

  15464 15 000127   200006 236100                    LDQ     ITEM$,,AUTO
        15 000130   200007 471500                    LDP1    L$,,AUTO
        15 000131   100004 756100                    STQ     4,,PR1

  15465 15 000132   200007 471500                    LDP1    L$,,AUTO
        15 000133   100002 235100                    LDA     2,,PR1
        15 000134   000137 601000 15                 TNZ     s:15467

  15466 15 000135   200006 236100                    LDQ     ITEM$,,AUTO
        15 000136   100001 756100                    STQ     1,,PR1

  15467 15 000137   200007 471500                    LDP1    L$,,AUTO
        15 000140   100002 054100                    AOS     2,,PR1

       67    15470
       68    15471             %NEW (@TEMPLATE = LX_ETT_ITEM,
       69    15472                   @POINTER  = CONST_ITEM$);

  15478 15 000141   000003 236000 16                 LDQ     3
        15 000142   200013 756100                    STQ     P$+3,,AUTO
        15 000143   200005 631500                    EPPR1   CONST_ITEM$,,AUTO
        15 000144   200012 451500                    STP1    P$+2,,AUTO
        15 000145   200012 630500                    EPPR0   P$+2,,AUTO
        15 000146   000001 631400 16                 EPPR1   1
        15 000147   000000 701000 xent               TSX1    Z8ED$NEW_HEAP
        15 000150   000000 011000                    NOP     0

       70    15482
PL6.E3A0      #001=Z8DU$BUILD_INITIAL_ITEM File=Z8DU.:Z8A6TSI                    SAT 08/09/97 11:23 Page:13
       71    15483             %INIT_LX_ETT_ITEM (@POINTER = CONST_ITEM$,
       72    15484                                @ETT$    = CONST_ETT$);

  15486 15 000151   000004 220003                    LDX0    4,DU
        15 000152   200005 470500                    LDP0    CONST_ITEM$,,AUTO
        15 000153   000000 740100                    STX0    0,,PR0

  15487 15 000154   000000 221003                    LDX1    0,DU
        15 000155   200005 470500                    LDP0    CONST_ITEM$,,AUTO
        15 000156   000000 441100                    SXL1    0,,PR0

  15488 15 000157   000015 235007                    LDA     13,DL
        15 000160   200005 470500                    LDP0    CONST_ITEM$,,AUTO
        15 000161   000004 755100                    STA     4,,PR0

  15489 15 000162   000000 236000 16                 LDQ     0
        15 000163   200005 470500                    LDP0    CONST_ITEM$,,AUTO
        15 000164   000007 756100                    STQ     7,,PR0

  15490 15 000165   200003 471500                    LDP1    @CONST_ETT$,,AUTO
        15 000166   100000 236100                    LDQ     0,,PR1
        15 000167   000001 756100                    STQ     1,,PR0

  15491 15 000170   000000 236000 16                 LDQ     0
        15 000171   200005 470500                    LDP0    CONST_ITEM$,,AUTO
        15 000172   000002 756100                    STQ     2,,PR0

  15493 15 000173   000133 235000 xsym               LDA     COMCOM+91
        15 000174   200005 470500                    LDP0    CONST_ITEM$,,AUTO
        15 000175   000005 755100                    STA     5,,PR0

  15494 15 000176   000134 235000 xsym               LDA     COMCOM+92
        15 000177   200005 470500                    LDP0    CONST_ITEM$,,AUTO
        15 000200   000006 755100                    STA     6,,PR0

       73    15506    1        IF CONST_ETT$ = ADDR(NIL) THEN

PL6.E3A0      #001=Z8DU$BUILD_INITIAL_ITEM File=Z8DU.:Z8A6TSI                    SAT 08/09/97 11:23 Page:14
  15506 15 000201   100000 236100                    LDQ     0,,PR1
        15 000202   000000 116000 16                 CMPQ    0
        15 000203   000212 601000 15                 TNZ     s:15513

       74    15507    2          DO;

       75    15508    2            CONST_ITEM$ -> LX_ETT_ITEM.B.ALL = TRUE;

  15508 15 000204   040000 236007                    LDQ     16384,DL
        15 000205   000000 256100                    ORSQ    0,,PR0

       76    15509    2            CONST_ITEM$ -> LX_ETT_ITEM.TYPE = %TYA;

  15509 15 000206   000010 235007                    LDA     8,DL
        15 000207   200005 470500                    LDP0    CONST_ITEM$,,AUTO
        15 000210   000004 755100                    STA     4,,PR0

       77    15510    2          END;

  15510 15 000211   000227 710000 15                 TRA     s:15520

       78    15511    1        ELSE
       79    15512    2          DO;

       80    15513    2            CONST_ITEM$ -> LX_ETT_ITEM.B.ALL = CONST_ETT$ -> ETT.LOP  -> CONST.B.ALL;

  15513 15 000212   100000 473500                    LDP3    0,,PR1
        15 000213   300001 474500                    LDP4    1,,PR3
        15 000214   400003 236100                    LDQ     3,,PR4
        15 000215   000022 772000                    QRL     18
        15 000216   000000 676100                    ERQ     0,,PR0
        15 000217   040000 376007                    ANQ     16384,DL
        15 000220   000000 656100                    ERSQ    0,,PR0

       81    15514    2            CONST_ITEM$ -> LX_ETT_ITEM.TYPE = CONST_ETT$ -> ETT.LOP  -> CONST.TYPE;

  15514 15 000221   100000 470500                    LDP0    0,,PR1
PL6.E3A0      #001=Z8DU$BUILD_INITIAL_ITEM File=Z8DU.:Z8A6TSI                    SAT 08/09/97 11:23 Page:15
        15 000222   000001 473500                    LDP3    1,,PR0
        15 000223   300002 236100                    LDQ     2,,PR3
        15 000224   000022 772000                    QRL     18
        15 000225   200005 474500                    LDP4    CONST_ITEM$,,AUTO
        15 000226   400004 756100                    STQ     4,,PR4

       82    15515    2          END;

       83    15516
       84    15517             %ADD_LX_ITEM_TO_LIST_TAIL (@LIST$ = L$,
       85    15518                                        @FROM$ = CONST_ITEM$);

  15520 15 000227   000000 236000 16                 LDQ     0
        15 000230   200005 470500                    LDP0    CONST_ITEM$,,AUTO
        15 000231   000007 756100                    STQ     7,,PR0

  15521 15 000232   200007 473500                    LDP3    L$,,AUTO
        15 000233   300002 235100                    LDA     2,,PR3
        15 000234   000243 601000 15                 TNZ     s:15528

  15523 15 000235   200005 236100                    LDQ     CONST_ITEM$,,AUTO
        15 000236   300004 756100                    STQ     4,,PR3

  15524 15 000237   200005 236100                    LDQ     CONST_ITEM$,,AUTO
        15 000240   200007 470500                    LDP0    L$,,AUTO
        15 000241   000001 756100                    STQ     1,,PR0

  15525 15 000242   000250 710000 15                 TRA     s:15531

  15528 15 000243   300001 474500                    LDP4    1,,PR3
        15 000244   200005 236100                    LDQ     CONST_ITEM$,,AUTO
        15 000245   400007 756100                    STQ     7,,PR4

  15529 15 000246   200007 473500                    LDP3    L$,,AUTO
        15 000247   300001 756100                    STQ     1,,PR3

  15531 15 000250   200007 470500                    LDP0    L$,,AUTO
PL6.E3A0      #001=Z8DU$BUILD_INITIAL_ITEM File=Z8DU.:Z8A6TSI                    SAT 08/09/97 11:23 Page:16
        15 000251   000002 054100                    AOS     2,,PR0

       86    15534
       87    15535             %ADD_LX_ITEM_TO_LIST_TAIL (@LIST$ = P$,
       88    15536                                        @FROM$ = L$);

  15538 15 000252   000000 236000 16                 LDQ     0
        15 000253   200007 470500                    LDP0    L$,,AUTO
        15 000254   000007 756100                    STQ     7,,PR0

  15539 15 000255   200010 470500                    LDP0    P$,,AUTO
        15 000256   000002 235100                    LDA     2,,PR0
        15 000257   000266 601000 15                 TNZ     s:15546

  15541 15 000260   200007 236100                    LDQ     L$,,AUTO
        15 000261   000004 756100                    STQ     4,,PR0

  15542 15 000262   200007 236100                    LDQ     L$,,AUTO
        15 000263   200010 470500                    LDP0    P$,,AUTO
        15 000264   000001 756100                    STQ     1,,PR0

  15543 15 000265   000274 710000 15                 TRA     s:15549

  15546 15 000266   000001 473500                    LDP3    1,,PR0
        15 000267   200007 236100                    LDQ     L$,,AUTO
        15 000270   300007 756100                    STQ     7,,PR3

  15547 15 000271   200007 236100                    LDQ     L$,,AUTO
        15 000272   200010 470500                    LDP0    P$,,AUTO
        15 000273   000001 756100                    STQ     1,,PR0

  15549 15 000274   200010 470500                    LDP0    P$,,AUTO
        15 000275   000002 054100                    AOS     2,,PR0

       89    15552
       90    15553
       91    15554    1   END Z8DU$BUILD_INITIAL_ITEM;
PL6.E3A0      #001=Z8DU$BUILD_INITIAL_ITEM File=Z8DU.:Z8A6TSI                    SAT 08/09/97 11:23 Page:17

  15554 15 000276   000000 702200 xent               TSX2  ! X66_ARET

PL6.E3A0      #001=Z8DU$BUILD_INITIAL_ITEM File=Z8DU.:Z8A6TSI                    SAT 08/09/97 11:23 Page:18
--  Include file information  --

   Z8E_WINDOW.:Z8A6TOU  is referenced.
   Z8E_NEW_ILL.:Z8A6TOU  is referenced.
   Z8E_MACROS.:Z8A6TOU  cannot be made into a system file and is referenced.
   Z8E_ABSSYN.:Z8A6TOU  cannot be made into a system file and is referenced.
   Z8E_HEAP.:Z8A6TOU  cannot be made into a system file and is referenced.
   Z8E_O1COM.:Z8A6TOU  cannot be made into a system file and is referenced.
   Z8A_LEX_SYMB.:Z8A6TOU  cannot be made into a system file and is referenced.
   Z8E_STACKS.:Z8A6TOU  cannot be made into a system file and is referenced.
   Z8A_LTS.:Z8A6TOU  cannot be made into a system file and is referenced.
   Z8A_ETT.:Z8A6TOU  cannot be made into a system file and is referenced.
   Z8A_TYPES.:Z8A6TOU  is referenced.
   Z8A_ST.:Z8A6TOU  cannot be made into a system file and is referenced.
   Z8A_COMCOM.:Z8A6TOU  cannot be made into a system file and is referenced.
   X8A_COM_MACS.:X8A6TOU  is referenced.
   Z8A_NAMES.:Z8A6TOU  is referenced.
   Z8A_SUPP_MAC.:Z8A6TOU  is referenced.
   Z8A_DEFC.:Z8A6TOU  cannot be made into a system file and is referenced.
      No diagnostics issued in procedure Z8DU$BUILD_INITIAL_ITEM.
PL6.E3A0      #001=Z8DU$BUILD_INITIAL_ITEM File=Z8DU.:Z8A6TSI                    SAT 08/09/97 11:23 Page:19

 **** Variables and constants ****

  ****  Section 000 LblCom ITERATION

  ****  Scalars and arrays  ****
OctLoc.c.b A Datatyp(siz) R M Lvl/name                 OctLoc.c.b A Datatyp(siz) R M Lvl/name

     0-0-0/w SBIN              1 ITERATION

  ****  Section 001 LblCom ST$

  ****  Scalars and arrays  ****
OctLoc.c.b A Datatyp(siz) R M Lvl/name                 OctLoc.c.b A Datatyp(siz) R M Lvl/name

     0-0-0/w PTR         r     1 ST$

  ****  Section 002 LblCom ST_

  ****  Scalars and arrays  ****
OctLoc.c.b A Datatyp(siz) R M Lvl/name                 OctLoc.c.b A Datatyp(siz) R M Lvl/name

     0-0-0/w STRC(180)         1 ST_

  ****  Section 003 LblCom ETT$

  ****  Scalars and arrays  ****
OctLoc.c.b A Datatyp(siz) R M Lvl/name                 OctLoc.c.b A Datatyp(siz) R M Lvl/name

     0-0-0/w PTR         r     1 ETT$

  ****  Section 004 LblCom HEAD_ETT$

  ****  Scalars and arrays  ****
OctLoc.c.b A Datatyp(siz) R M Lvl/name                 OctLoc.c.b A Datatyp(siz) R M Lvl/name

     0-0-0/w PTR               1 HEAD_ETT$

PL6.E3A0      #001=Z8DU$BUILD_INITIAL_ITEM File=Z8DU.:Z8A6TSI                    SAT 08/09/97 11:23 Page:20
  ****  Section 005 LblCom ETT_BUCKETS

  ****  Scalars and arrays  ****
OctLoc.c.b A Datatyp(siz) R M Lvl/name                 OctLoc.c.b A Datatyp(siz) R M Lvl/name

     0-0-0/w PTR               1 ETT_BUCKETS(0:511)

  ****  Section 006 LblCom ETT_

  ****  Scalars and arrays  ****
OctLoc.c.b A Datatyp(siz) R M Lvl/name                 OctLoc.c.b A Datatyp(siz) R M Lvl/name

     0-0-0/w STRC(180)         1 ETT_

  ****  Section 007 LblCom LTS$

  ****  Scalars and arrays  ****
OctLoc.c.b A Datatyp(siz) R M Lvl/name                 OctLoc.c.b A Datatyp(siz) R M Lvl/name

     0-0-0/w PTR               1 LONG_ITEM$                 0-0-0/w PTR         r     1 LTS$

  ****  Section 008 LblCom LTS_

  ****  Scalars and arrays  ****
OctLoc.c.b A Datatyp(siz) R M Lvl/name                 OctLoc.c.b A Datatyp(siz) R M Lvl/name

     0-0-0/w STRC(180)         1 LTS_

  ****  Section 009 LblCom LEX_SYMBOL

  ****  Scalars and arrays  ****
OctLoc.c.b A Datatyp(siz) R M Lvl/name                 OctLoc.c.b A Datatyp(siz) R M Lvl/name

     0-0-0/w STRC(3240)  r     1 LEX_SYMBOL                 0-0-0/w STRC(3240)        1 LEX_SYMBOL_WORDS

  ****  Section 010 LblCom CURRENT_LEX_SYMBOL$

PL6.E3A0      #001=Z8DU$BUILD_INITIAL_ITEM File=Z8DU.:Z8A6TSI                    SAT 08/09/97 11:23 Page:21
  ****  Scalars and arrays  ****
OctLoc.c.b A Datatyp(siz) R M Lvl/name                 OctLoc.c.b A Datatyp(siz) R M Lvl/name

     0-0-0/w PTR         r     1 CURRENT_LEX_SYMBOL$

  ****  Section 011 LblCom TEMP_LEX_SYMBOL

  ****  Scalars and arrays  ****
OctLoc.c.b A Datatyp(siz) R M Lvl/name                 OctLoc.c.b A Datatyp(siz) R M Lvl/name

     0-0-0/w STRC(3240)        1 TEMP_LEX_SYMBOL

  ****  Section 012 LblCom TEMP_LEX_SYMBOL2

  ****  Scalars and arrays  ****
OctLoc.c.b A Datatyp(siz) R M Lvl/name                 OctLoc.c.b A Datatyp(siz) R M Lvl/name

     0-0-0/w STRC(3240)        1 TEMP_LEX_SYMBOL2

  ****  Section 013 LblCom HEAP$

  ****  Scalars and arrays  ****
OctLoc.c.b A Datatyp(siz) R M Lvl/name                 OctLoc.c.b A Datatyp(siz) R M Lvl/name

     0-0-0/w PTR               1 HEAP$

  ****  Section 014 LblCom TEMP_LX_NODE

  ****  Scalars and arrays  ****
OctLoc.c.b A Datatyp(siz) R M Lvl/name                 OctLoc.c.b A Datatyp(siz) R M Lvl/name

     0-0-0/d STRC(288)         1 TEMP_LX_NODE

  ****  Auto variables  ****

  ****  Scalars and arrays  ****
OctLoc.c.b A Datatyp(siz) R M Lvl/name                 OctLoc.c.b A Datatyp(siz) R M Lvl/name
PL6.E3A0      #001=Z8DU$BUILD_INITIAL_ITEM File=Z8DU.:Z8A6TSI                    SAT 08/09/97 11:23 Page:22

     3-0-0/w PTR         r     1 @CONST_ETT$                4-0-0/w PTR         r     1 @ST$$
    *0-0-0/w PTR         r     1 CONST_ETT$                 5-0-0/w PTR         r     1 CONST_ITEM$
     6-0-0/w PTR         r     1 ITEM$                      7-0-0/w PTR         r     1 L$
    10-0-0/w PTR         r     1 P$                        *0-0-0/w PTR         r     1 ST$$

  ****  SYMREF variables  ****

  ****  Scalars and arrays  ****
OctLoc.c.b A Datatyp(siz) R M Lvl/name                 OctLoc.c.b A Datatyp(siz) R M Lvl/name

     0-0-0/d STRC(13248) r     1 COMCOM
     0-0-0/w STRC(180)         1 HIER_STK(0:50)
     0-0-0/w SBIN              1 HIER_STK_PTR
     0-0-0/w UBIN              1 LTS_STEP(0:37)
     0-0-0/d STRC(11580) r     1 O1COM                      0-0-0/w STRC(144)         1 PAGE_FORMAT
     0-0-0/w STRC(153)         1 REP_STK(0:50)              0-0-0/w SBIN              1 REP_STK_PTR

  ****  BASED and DCB variables  ****

  ****  Scalars and arrays  ****
OctLoc.c.b A Datatyp(siz) R M Lvl/name                 OctLoc.c.b A Datatyp(siz) R M Lvl/name

     0-0-0/w STRC(288)         1 ADD_STMT                   0-0-0/w STRC(396)         1 ALPHABET
     0-0-0/w STRC(144)         1 ALTER_LTS                  0-0-0/w STRC(3672)        1 ALT_KEY
     0-0-0/w STRC(36864)       1 ARGLIST                    0-0-0/w STRC(396)         1 ARRAY
     0-0-0/w STRC(180)         1 ARRAY_PRESET_LTS           0-0-0/w ASTR(324)   r     1 BASED_LEX_SYMBOL
     0-0-0/w STRC(360)         1 BASED_LEX_SYMBOL_WORDS
     0-0-0/w STRC(288)         1 BASE_LTS                   0-0-0/w STRC(288)         1 BINARY_OP
     0-0-0/w STRC(396)         1 BLOCK                      0-0-0/w STRC(144)         1 BT
     0-0-0/w STRC(288)         1 CALL_STMT                  0-0-0/w STRC(396)         1 CD
     0-0-0/w STRC(288)         1 CD_LTS                     0-0-0/w CHAR(4096)        1 CHARS
     0-0-0/w STRC(396)         1 CLASS                      0-0-0/w STRC(288)         1 COMPUTE_STMT
     0-0-0/w STRC(396)         1 CONDITION                  0-0-0/w STRC(396)   r     1 CONST
     0-0-0/w STRC(72)          1 CONT                       0-0-0/w STRC(540)         1 CONTROL_NAME_LTS
     0-0-0/w STRC(1872)        1 COPY_FILE                  0-0-0/w STRC(396)         1 DB
     0-0-0/w STRC(396)         1 DCB_                       0-0-0/w STRC(288)         1 DEFERED_IDENTIFIER
PL6.E3A0      #001=Z8DU$BUILD_INITIAL_ITEM File=Z8DU.:Z8A6TSI                    SAT 08/09/97 11:23 Page:23
     0-0-0/w STRC(252)         1 DEFERED_ID_TREE            0-0-0/w STRC(288)         1 DEFERED_QUAL_ID
     0-0-0/w STRC(288)         1 DEFERED_SUM_CLAUSE
     0-0-0/w STRC(288)         1 DEFERED_SUM_CLAUSE_LIST
     0-0-0/w STRC(288)         1 DELETE_STMT                0-0-0/w STRC(108)         1 DEPENDING_SIZE
     0-0-0/w STRC(5472)        1 DIMS                       0-0-0/w STRC(288)         1 DIVIDE_STMT
     0-0-0/w STRC(396)         1 DML_ITEM                   0-0-0/w STRC(216)         1 DML_REC
     0-0-0/w STRC(180)   r     1 ETT                        0-0-0/w STRC(73836)       1 EVALUATE
     0-0-0/w STRC(396)         1 FD                         0-0-0/w STRC(1692)        1 FILE_LTS
     0-0-0/w STRC(288)         1 ILS_LIST                   0-0-0/w STRC(108)         1 INDEXES
     0-0-0/w STRC(360)         1 INIT_LTS                   0-0-0/w STRC(288)         1 INSPECT_1_STMT
     0-0-0/w STRC(288)         1 INSPECT_2_STMT             0-0-0/w STRC(288)         1 INSPECT_4_STMT
     0-0-0/w STRC(396)         1 INTDEF                     0-0-0/w STRC(180)         1 IO_RESTORE_CHAIN
     0-0-0/w STRC(144)         1 KEY                        0-0-0/w STRC(396)         1 LABEL
     0-0-0/w STRC(288)         1 LA_ITEM                    0-0-0/w STRC(36864)       1 LCNST
     0-0-0/w STRC(72)          1 LONG                       0-0-0/w STRC              1 LTS
     0-0-0/w STRC(360)         1 LTSS                       0-0-0/w STRC(36936)       1 LTS_PTR_ARRAY
     0-0-0/w STRC(504)         1 LX_CD_INPUT                0-0-0/w STRC(324)         1 LX_CD_I_O
     0-0-0/w STRC(396)         1 LX_CD_OUTPUT               0-0-0/w STRC(288)   r     1 LX_ETT_ITEM
     0-0-0/w STRC(288)   r     1 LX_ITEM                    0-0-0/w STRC(288)         1 LX_LARGE
     0-0-0/w STRC(288)   r     1 LX_LIST                    0-0-0/w STRC(1224)        1 LX_REC_DECL
     0-0-0/w STRC(864)         1 LX_REPORT_REC              0-0-0/w STRC(288)         1 LX_TERMINAL
     0-0-0/w STRC(396)         1 MNEMONIC                   0-0-0/w STRC(288)         1 MULTIPLY_STMT
     0-0-0/w STRC(144)         1 NEL                        0-0-0/w STRC(216)         1 OPEN_LTS
     0-0-0/w STRC(36864)       1 PAGE                       0-0-0/w STRC(396)         1 PARA
     0-0-0/w STRC(144)         1 PRIME                      0-0-0/w STRC(396)   r     1 PROC_
     0-0-0/w STRC(396)         1 PROC_DEF                   0-0-0/w STRC(900)   r     1 PROC_SUPP
     0-0-0/w STRC(396)         1 RD                         0-0-0/w STRC(288)         1 READ_STMT
     0-0-0/w STRC(216)         1 REF                        0-0-0/w STRC(108)         1 RENAMES
     0-0-0/w STRC(720)         1 REPORT_01_LTS              0-0-0/w STRC(432)         1 REPORT_ELEM_LTS
     0-0-0/w STRC(252)         1 REPORT_GRP_LTS             0-0-0/w STRC(1332)        1 REPORT_LTS
     0-0-0/w STRC(288)         1 REWRITE_STMT               0-0-0/w STRC(144)         1 RVA_LTS
     0-0-0/w STRC(396)         1 SCALAR                     0-0-0/w STRC(396)         1 SD
     0-0-0/w STRC(396)         1 SECTION                    0-0-0/w STRC(396)         1 SEGMENT
     0-0-0/w STRC(360)         1 SEGMENT_LTS                0-0-0/w STRC(396)   r     1 ST
     0-0-0/w STRC(288)         1 START_STMT                 0-0-0/w STRC(252)         1 STRING_STMT
     0-0-0/w STRC(288)         1 SUBTRACT_STMT              0-0-0/w STRC(252)         1 SUM_LTS
     0-0-0/w STRC(396)         1 SWITCH                     0-0-0/w STRC(396)         1 SYMBOLIC_CHAR
PL6.E3A0      #001=Z8DU$BUILD_INITIAL_ITEM File=Z8DU.:Z8A6TSI                    SAT 08/09/97 11:23 Page:24
     0-0-0/w STRC(396)         1 SYMDEF_                    0-0-0/w STRC(396)         1 SYMREF_
     0-0-0/w STRC(396)         1 TEMP                       0-0-0/w STRC(288)         1 UNARY_OP
     0-0-0/w STRC(288)         1 UNSTRING_STMT              0-0-0/d STRC(612)         1 USE
     0-0-0/w STRC(252)         1 USE_SUPP                   0-0-0/w STRC(396)         1 VARIABLE
     0-0-0/w STRC(288)         1 WRITE_STMT


   Procedure Z8DU$BUILD_INITIAL_ITEM requires 191 words for executable code.
   Procedure Z8DU$BUILD_INITIAL_ITEM requires 12 words of local(AUTO) storage.

    No errors detected in file Z8DU.:Z8A6TSI    .
