VERSION A06

PL6.E3A0      #001=Z8E1$PHASE1 File=Z8E1.:Z8A6TSI                                SAT 08/09/97 11:26 Page:1
        1        1        /*T***********************************************************/
        2        2        /*T*                                                         */
        3        3        /*T* Copyright (c) Bull HN Information Systems Inc., 1997    */
        4        4        /*T*                                                         */
        5        5        /*T***********************************************************/
        6        6        Z8E1$PHASE1: PROC NOAUTO;
        7        7        /*M*  Z8E1$PHASE1  Phase 1 executive  */
        8        8
        9        9        /*P*
       10       10               NAME:  Z8E1$PHASE1
       11       11            PURPOSE:  This is the Phase 1 executive.  It initializes the front
       12       12                      end, calls the parser to parse the input and then calls
       13       13                      the wrap up routine.
       14       14        */
       15       15
       16       16        /*D*
       17       17               NAME:  Z8E1$PHASE1
       18       18               CALL:  CALL Z8E1$PHASE1 ;
       19       19          INTERFACE:  Z8EI$INIT, Z9EP$PARSE, and Z8EW$WRAPUP are called to run
       20       20                      the front end.
       21       21
       22       22        DESCRIPTION:  This procedure simply calls three procedures: Z8EI$INIT,
       23       23                      to initialize the front end, Z9EP$PARSE to parse the
       24       24                      COBOL80 program and Z8EW$WRAPUP  to wrap up the front end
       25       25                      after parsing.
       26       26        */
       27       27        %EJECT ;
PL6.E3A0      #001=Z8E1$PHASE1 File=Z8E1.:Z8A6TSI                                SAT 08/09/97 11:26 Page:2
       28       28
       29       29        %SET PHASE = 1;
       30       30        %INCLUDE Z8A_DEFC;
       31       98        %INCLUDE Z8A_SUPP_MAC;
       32     2498        %INCLUDE Z8E_STACKS;
       33     4764        %INCLUDE Z8E_STATEMNT;
       34     4833        %INCLUDE Z8A_ILL ;
       35     5526        %INCLUDE Z8E_WINDOW;
       36     7596        %SET INITIALIZE = '1'B;
       37     7597        %INCLUDE Z8E_TRANSLAT;
       38     8015        %INCLUDE Z8E_TABLES;
       39     8568        %INCLUDE Z8E_O1COM;
       40     9329        %INCLUDE Z8D_PIC_TABL;
       41     9396        %SET INITIALIZE = '0'B;
       42     9397
       43     9398
       44     9399    1   DCL Z8EI$INIT ENTRY;
       45     9400    1   DCL Z8EL$LEX_INIT ENTRY;
       46     9401    1   DCL Z9EP$PARSE ENTRY;
       47     9402    1   DCL Z8EW$WRAPUP ENTRY;
       48     9403
       49     9404    1      CALL Z8EI$INIT;   /* perform PHASE 1 initialization */
       50     9405    1      CALL Z8EL$LEX_INIT; /* Initialize lexical phase */
       51     9406    1      CALL Z9EP$PARSE;  /* begin parsing                  */
       52     9407    1      CALL Z8EW$WRAPUP; /* perform PHASE 1 wrapup         */
       53     9408    1   END Z8E1$PHASE1;

PL6.E3A0      #001=Z8E1$PHASE1 File=Z8E1.:Z8A6TSI                                SAT 08/09/97 11:26 Page:3
--  Include file information  --

   Z8D_PIC_TABL.:Z8A6TOU  cannot be made into a system file and is referenced.
   Z8E_O1COM.:Z8A6TOU  cannot be made into a system file and is referenced.
   Z8E_TABLES.:Z8A6TOU  cannot be made into a system file and is referenced.
   Z8E_TRANSLAT.:Z8A6TOU  cannot be made into a system file and is referenced.
   Z8E_WINDOW.:Z8A6TOU  is referenced.
   Z8A_ILL.:Z8A6TOU  cannot be made into a system file and is referenced.
   Z8E_STATEMNT.:Z8A6TOU  is referenced.
   Z8A_LEX_SYMB.:Z8A6TOU  cannot be made into a system file and is referenced.
   Z8E_STACKS.:Z8A6TOU  cannot be made into a system file and is referenced.
   X8A_COM_MACS.:X8A6TOU  is referenced.
   Z8A_NAMES.:Z8A6TOU  is referenced.
   Z8A_SUPP_MAC.:Z8A6TOU  is referenced.
   Z8A_DEFC.:Z8A6TOU  cannot be made into a system file and is referenced.
      No diagnostics issued in procedure Z8E1$PHASE1.

   Procedure Z8E1$PHASE1 requires 15 words for executable code.
   Procedure Z8E1$PHASE1 is declared NOAUTO and requires 22718 words of local(STATIC) storage.

    No errors detected in file Z8E1.:Z8A6TSI    .

PL6.E3A0      #001=Z8E1$PHASE1 File=Z8E1.:Z8A6TSI                                SAT 08/09/97 11:26 Page:4

 Object Unit name= Z8E1$PHASE1                                File name= Z8E1.:Z8A6TOU
 UTS= AUG 09 '97 11:26:19.20 SAT                              Compiler= PL-6/E31         Sev=      00
 SharedLib= :SHARED_SYSTEM                                    Alt SharedLib=


    ****  Control sections  ****

 Sect   Type Bound  Init  Size OctSiz  Section name(segment info)
    0   Data  even  none 22718  54276  Z8E1$PHASE1
    1  LblCom even  none     1      1  ITERATION
    2  LblCom even  none    90    132  LEX_SYMBOL
    3  LblCom even  none     1      1  CURRENT_LEX_SYMBOL$
    4  LblCom even  none    90    132  TEMP_LEX_SYMBOL
    5  LblCom even  none    90    132  TEMP_LEX_SYMBOL2
    6  LblCom even  none     1      1  ILL$
    7  LblCom even  none     5      5  ILL_
    8  RoData even  UTS   2048   4000  Z8E1$PHASE1
    9   Proc  even  none    15     17  Z8E1$PHASE1
   10  RoData even  none     1      1  Z8E1$PHASE1

    ****  Entry defs  ****

                              Check   Calling
                             calling  sequence
  Sect OctLoc Primary Altret sequence   type   Parms  Name
     9      0   yes            yes      Std        0  Z8E1$PHASE1
PL6.E3A0      #001=Z8E1$PHASE1 File=Z8E1.:Z8A6TSI                                SAT 08/09/97 11:26 Page:5

  ****  Data defs  ****

 Sect OctLoc  Name                           Sect OctLoc  Name
    8      0  HBCD                               8    200  GBCD
    8    400  EBCDIC                             8    600  USERWORD_SCAN_TABLE
    8   1000  ANSI_USERWORD_SCAN_TABLE           8   1200  ASCII_SEARCH_TABLE
    8   1400  BLANK_SCAN_TABLE                   8   1600  DIGIT_SCAN_TABLE
    8   2000  LETTER_SEARCH_TABLE                8   2200  DOUBLE_QUOTE_SEARCH_TABLE
    8   2400  SINGLE_QUOTE_SEARCH_TABLE          8   2600  DBL_QUOTE_PSEUDO_SEARCH_TABLE
    8   3000  SNGL_QUOTE_PSEUDO_SEARCH_TABLE     8   3200  SEPARATORS_TABLE
    8   3400  LOWER_TO_UPPER_CASE                8   3600  CURRENCY_SIGN_CHARS
    0      2  O1COM                              0  53232  HIER_STK_PTR
    0  53233  HIER_STK                           0  53632  PAGE_FORMAT
    0  53636  REP_STK_PTR                        0  53637  REP_STK
    0  54236  XLATE_TBL

  ****  Entry refs  ****

         Check        Calling
        calling       sequence
Altret sequence SRef   type   Args  Name
         yes           Std       0 Z8EI$INIT
         yes           Std       0 Z8EL$LEX_INIT
         yes           Std       0 Z9EP$PARSE
         yes           Std       0 Z8EW$WRAPUP

  ****  Data refs  ****

  Flags:  r = read only, s = secondary
Flgs Name                             Flgs Name                             Flgs Name
r    ILL_STEP
PL6.E3A0      #001=Z8E1$PHASE1 File=Z8E1.:Z8A6TSI                                SAT 08/09/97 11:26 Page:6

  ****  Segment refs  ****

  Flags:  r = read only, s = secondary
Flgs Name                             Flgs Name                             Flgs Name
     ISSID                                 NULLSID
PL6.E3A0      #001=Z8E1$PHASE1 File=Z8E1.:Z8A6TSI                                SAT 08/09/97 11:26 Page:7


        1        1        /*T***********************************************************/
        2        2        /*T*                                                         */
        3        3        /*T* Copyright (c) Bull HN Information Systems Inc., 1997    */
        4        4        /*T*                                                         */
        5        5        /*T***********************************************************/
        6        6        Z8E1$PHASE1: PROC NOAUTO;

      6  9 000000   000000 741200 0     Z8E1$PHASE1  STX1  ! 0

        7        7        /*M*  Z8E1$PHASE1  Phase 1 executive  */
        8        8
        9        9        /*P*
       10       10               NAME:  Z8E1$PHASE1
       11       11            PURPOSE:  This is the Phase 1 executive.  It initializes the front
       12       12                      end, calls the parser to parse the input and then calls
       13       13                      the wrap up routine.
       14       14        */
       15       15
       16       16        /*D*
       17       17               NAME:  Z8E1$PHASE1
       18       18               CALL:  CALL Z8E1$PHASE1 ;
       19       19          INTERFACE:  Z8EI$INIT, Z9EP$PARSE, and Z8EW$WRAPUP are called to run
       20       20                      the front end.
       21       21
       22       22        DESCRIPTION:  This procedure simply calls three procedures: Z8EI$INIT,
       23       23                      to initialize the front end, Z9EP$PARSE to parse the
       24       24                      COBOL80 program and Z8EW$WRAPUP  to wrap up the front end
       25       25                      after parsing.
       26       26        */
       27       27        %EJECT ;
PL6.E3A0      #001=Z8E1$PHASE1 File=Z8E1.:Z8A6TSI                                SAT 08/09/97 11:26 Page:8
       28       28
       29       29        %SET PHASE = 1;
       30       30        %INCLUDE Z8A_DEFC;
       31       98        %INCLUDE Z8A_SUPP_MAC;
       32     2498        %INCLUDE Z8E_STACKS;
       33     4764        %INCLUDE Z8E_STATEMNT;
       34     4833        %INCLUDE Z8A_ILL ;
       35     5526        %INCLUDE Z8E_WINDOW;
       36     7596        %SET INITIALIZE = '1'B;
       37     7597        %INCLUDE Z8E_TRANSLAT;
       38     8015        %INCLUDE Z8E_TABLES;
       39     8568        %INCLUDE Z8E_O1COM;
       40     9329        %INCLUDE Z8D_PIC_TABL;
       41     9396        %SET INITIALIZE = '0'B;
       42     9397
       43     9398
       44     9399    1   DCL Z8EI$INIT ENTRY;
       45     9400    1   DCL Z8EL$LEX_INIT ENTRY;
       46     9401    1   DCL Z9EP$PARSE ENTRY;
       47     9402    1   DCL Z8EW$WRAPUP ENTRY;
       48     9403
       49     9404    1      CALL Z8EI$INIT;   /* perform PHASE 1 initialization */

   9404  9 000001   000000 631400 10                 EPPR1   0
         9 000002   000000 701000 xent               TSX1    Z8EI$INIT
         9 000003   000000 011000                    NOP     0

       50     9405    1      CALL Z8EL$LEX_INIT; /* Initialize lexical phase */

   9405  9 000004   000000 631400 10                 EPPR1   0
         9 000005   000000 701000 xent               TSX1    Z8EL$LEX_INIT
         9 000006   000000 011000                    NOP     0

       51     9406    1      CALL Z9EP$PARSE;  /* begin parsing                  */

   9406  9 000007   000000 631400 10                 EPPR1   0
         9 000010   000000 701000 xent               TSX1    Z9EP$PARSE
PL6.E3A0      #001=Z8E1$PHASE1 File=Z8E1.:Z8A6TSI                                SAT 08/09/97 11:26 Page:9
         9 000011   000000 011000                    NOP     0

       52     9407    1      CALL Z8EW$WRAPUP; /* perform PHASE 1 wrapup         */

   9407  9 000012   000000 631400 10                 EPPR1   0
         9 000013   000000 701000 xent               TSX1    Z8EW$WRAPUP
         9 000014   000000 011000                    NOP     0

       53     9408    1   END Z8E1$PHASE1;

   9408  9 000015   000000 221200 0                  LDX1  ! 0
         9 000016   000001 702211                    TSX2  ! 1,X1

PL6.E3A0      #001=Z8E1$PHASE1 File=Z8E1.:Z8A6TSI                                SAT 08/09/97 11:26 Page:10
--  Include file information  --

   Z8D_PIC_TABL.:Z8A6TOU  cannot be made into a system file and is referenced.
   Z8E_O1COM.:Z8A6TOU  cannot be made into a system file and is referenced.
   Z8E_TABLES.:Z8A6TOU  cannot be made into a system file and is referenced.
   Z8E_TRANSLAT.:Z8A6TOU  cannot be made into a system file and is referenced.
   Z8E_WINDOW.:Z8A6TOU  is referenced.
   Z8A_ILL.:Z8A6TOU  cannot be made into a system file and is referenced.
   Z8E_STATEMNT.:Z8A6TOU  is referenced.
   Z8A_LEX_SYMB.:Z8A6TOU  cannot be made into a system file and is referenced.
   Z8E_STACKS.:Z8A6TOU  cannot be made into a system file and is referenced.
   X8A_COM_MACS.:X8A6TOU  is referenced.
   Z8A_NAMES.:Z8A6TOU  is referenced.
   Z8A_SUPP_MAC.:Z8A6TOU  is referenced.
   Z8A_DEFC.:Z8A6TOU  cannot be made into a system file and is referenced.
      No diagnostics issued in procedure Z8E1$PHASE1.
PL6.E3A0      #001=Z8E1$PHASE1 File=Z8E1.:Z8A6TSI                                SAT 08/09/97 11:26 Page:11

 **** Variables and constants ****

  ****  Section 000  Data  Z8E1$PHASE1

  ****  Scalars and arrays  ****
OctLoc.c.b A Datatyp(siz) R M Lvl/name                 OctLoc.c.b A Datatyp(siz) R M Lvl/name

 53233-0-0/w STRC(180)         1 HIER_STK(0:50)
 53232-0-0/w SBIN              1 HIER_STK_PTR               2-0-0/d STRC(11580)       1 O1COM
 53632-0-0/w STRC(144)         1 PAGE_FORMAT
 54236-0-0/d UBIN(9)           1 PIC_XLATE_CH(0:127)
 53637-0-0/w STRC(153)         1 REP_STK(0:50)          53636-0-0/w SBIN              1 REP_STK_PTR
 54236-0-0/d STRC(1152)        1 XLATE_TBL

  ****  Section 001 LblCom ITERATION

  ****  Scalars and arrays  ****
OctLoc.c.b A Datatyp(siz) R M Lvl/name                 OctLoc.c.b A Datatyp(siz) R M Lvl/name

     0-0-0/w SBIN              1 ITERATION

  ****  Section 002 LblCom LEX_SYMBOL

  ****  Scalars and arrays  ****
OctLoc.c.b A Datatyp(siz) R M Lvl/name                 OctLoc.c.b A Datatyp(siz) R M Lvl/name

     0-0-0/w STRC(3240)  r     1 LEX_SYMBOL                 0-0-0/w STRC(3240)        1 LEX_SYMBOL_WORDS

  ****  Section 003 LblCom CURRENT_LEX_SYMBOL$

  ****  Scalars and arrays  ****
OctLoc.c.b A Datatyp(siz) R M Lvl/name                 OctLoc.c.b A Datatyp(siz) R M Lvl/name

     0-0-0/w PTR         r     1 CURRENT_LEX_SYMBOL$

  ****  Section 004 LblCom TEMP_LEX_SYMBOL

PL6.E3A0      #001=Z8E1$PHASE1 File=Z8E1.:Z8A6TSI                                SAT 08/09/97 11:26 Page:12
  ****  Scalars and arrays  ****
OctLoc.c.b A Datatyp(siz) R M Lvl/name                 OctLoc.c.b A Datatyp(siz) R M Lvl/name

     0-0-0/w STRC(3240)        1 TEMP_LEX_SYMBOL

  ****  Section 005 LblCom TEMP_LEX_SYMBOL2

  ****  Scalars and arrays  ****
OctLoc.c.b A Datatyp(siz) R M Lvl/name                 OctLoc.c.b A Datatyp(siz) R M Lvl/name

     0-0-0/w STRC(3240)        1 TEMP_LEX_SYMBOL2

  ****  Section 006 LblCom ILL$

  ****  Scalars and arrays  ****
OctLoc.c.b A Datatyp(siz) R M Lvl/name                 OctLoc.c.b A Datatyp(siz) R M Lvl/name

     0-0-0/w PTR         r     1 ILL$

  ****  Section 007 LblCom ILL_

  ****  Scalars and arrays  ****
OctLoc.c.b A Datatyp(siz) R M Lvl/name                 OctLoc.c.b A Datatyp(siz) R M Lvl/name

     0-0-0/w STRC(180)         1 ILL_

  ****  Section 008 RoData Z8E1$PHASE1

  ****  Scalars and arrays  ****
OctLoc.c.b A Datatyp(siz) R M Lvl/name                 OctLoc.c.b A Datatyp(siz) R M Lvl/name

  1000-0-0/b UBIN(9)           1 ANSI_USERWORD_SCAN_TABLE(0:511)
  1200-0-0/b UBIN(9)           1 ASCII_SEARCH_TABLE(0:511)
  1400-0-0/b UBIN(9)           1 BLANK_SCAN_TABLE(0:511)
  3600-0-0/b UBIN(9)           1 CURRENCY_SIGN_CHARS(0:511)
  2600-0-0/b UBIN(9)           1 DBL_QUOTE_PSEUDO_SEARCH_TABLE(0:511)
  1600-0-0/b UBIN(9)           1 DIGIT_SCAN_TABLE(0:511)
PL6.E3A0      #001=Z8E1$PHASE1 File=Z8E1.:Z8A6TSI                                SAT 08/09/97 11:26 Page:13
  2200-0-0/b UBIN(9)           1 DOUBLE_QUOTE_SEARCH_TABLE(0:511)
   400-0-0/c STRC(9)           1 EBCDIC(0:511)            200-0-0/c STRC(9)           1 GBCD(0:511)
     0-0-0/c STRC(9)           1 HBCD(0:511)
  2000-0-0/b UBIN(9)           1 LETTER_SEARCH_TABLE(0:511)
  3400-0-0/b UBIN(9)           1 LOWER_TO_UPPER_CASE(0:511)
  3200-0-0/b UBIN(9)           1 SEPARATORS_TABLE(0:511)
  2400-0-0/b UBIN(9)           1 SINGLE_QUOTE_SEARCH_TABLE(0:511)
  3000-0-0/b UBIN(9)           1 SNGL_QUOTE_PSEUDO_SEARCH_TABLE(0:511)
   600-0-0/b UBIN(9)           1 USERWORD_SCAN_TABLE(0:511)

  ****  SYMREF variables  ****

  ****  Scalars and arrays  ****
OctLoc.c.b A Datatyp(siz) R M Lvl/name                 OctLoc.c.b A Datatyp(siz) R M Lvl/name

     0-0-0/w UBIN              1 ILL_STEP(0:144)

  ****  BASED and DCB variables  ****

  ****  Scalars and arrays  ****
OctLoc.c.b A Datatyp(siz) R M Lvl/name                 OctLoc.c.b A Datatyp(siz) R M Lvl/name

     0-0-0/w STRC(108)         1 ACCEPT_DISPLAY             0-0-0/w STRC(288)         1 ADD_STMT
     0-0-0/w ASTR(324)   r     1 BASED_LEX_SYMBOL
     0-0-0/w STRC(360)         1 BASED_LEX_SYMBOL_WORDS
     0-0-0/w STRC(108)         1 BINARY_ILL                 0-0-0/w STRC(288)         1 BINARY_OP
     0-0-0/w STRC(144)         1 BRANCH_ILL                 0-0-0/w STRC(288)         1 CALL_STMT
     0-0-0/w STRC(216)         1 CCOSU                      0-0-0/w CHAR(4096)        1 CHARS
     0-0-0/w STRC(108)         1 CODED_MOVE                 0-0-0/w STRC(288)         1 COMPUTE_STMT
     0-0-0/w STRC(72)          1 CONT                       0-0-0/w STRC(288)         1 DEFERED_IDENTIFIER
     0-0-0/w STRC(252)         1 DEFERED_ID_TREE            0-0-0/w STRC(288)         1 DEFERED_QUAL_ID
     0-0-0/w STRC(288)         1 DEFERED_SUM_CLAUSE
     0-0-0/w STRC(288)         1 DEFERED_SUM_CLAUSE_LIST
     0-0-0/w STRC(144)         1 DEFLB                      0-0-0/w STRC(288)         1 DELETE_STMT
     0-0-0/w STRC(288)         1 DIVIDE_STMT                0-0-0/w STRC(144)         1 DOEND
     0-0-0/w STRC(396)         1 DO_N                       0-0-0/w STRC(180)         1 DV4I
     0-0-0/w STRC(180)         1 ENTRY_ILL                  0-0-0/w STRC(108)         1 EVALU
PL6.E3A0      #001=Z8E1$PHASE1 File=Z8E1.:Z8A6TSI                                SAT 08/09/97 11:26 Page:14
     0-0-0/w STRC(144)         1 GO                         0-0-0/w STRC(180)         1 ILL
     0-0-0/w STRC              1 ILL_NO_OPS                 0-0-0/w STRC(288)         1 ILS_LIST
     0-0-0/w STRC(288)         1 INSPECT_1_STMT             0-0-0/w STRC(288)         1 INSPECT_2_STMT
     0-0-0/w STRC(288)         1 INSPECT_4_STMT             0-0-0/w STRC(288)         1 LA_ITEM
     0-0-0/w STRC(108)         1 LINOI                      0-0-0/w STRC(504)         1 LX_CD_INPUT
     0-0-0/w STRC(324)         1 LX_CD_I_O                  0-0-0/w STRC(396)         1 LX_CD_OUTPUT
     0-0-0/w STRC(288)         1 LX_ETT_ITEM                0-0-0/w STRC(288)         1 LX_ITEM
     0-0-0/w STRC(288)         1 LX_LARGE                   0-0-0/w STRC(288)         1 LX_LIST
     0-0-0/w STRC(1224)        1 LX_REC_DECL                0-0-0/w STRC(864)         1 LX_REPORT_REC
     0-0-0/w STRC(288)         1 LX_TERMINAL                0-0-0/w STRC(72)          1 MFILL
     0-0-0/w STRC(288)         1 MULTIPLY_STMT              0-0-0/w STRC(180)         1 MULTI_GO
     0-0-0/w STRC(180)         1 MVEAL                      0-0-0/w STRC(108)         1 MVFIL
     0-0-0/w STRC(72)          1 MVIIS                      0-0-0/w STRC(180)         1 OS_CALL
     0-0-0/w STRC(36864)       1 PAGE                       0-0-0/w STRC(216)         1 PFORM
     0-0-0/w STRC(144)         1 PINC                       0-0-0/w STRC(144)         1 PREOFF
     0-0-0/w STRC(108)         1 PRESET                     0-0-0/w STRC(144)         1 P_A_PRESET
     0-0-0/w STRC(144)         1 P_P_PRESET                 0-0-0/w STRC(288)         1 READ_STMT
     0-0-0/w STRC(144)         1 REMEM                      0-0-0/w STRC(288)         1 REWRITE_STMT
     0-0-0/w STRC(144)         1 SCOPE                      0-0-0/w STRC(216)         1 SEARCH_
     0-0-0/w STRC(288)         1 START_STMT                 0-0-0/w STRC(72)          1 STP2
     0-0-0/w STRC(252)         1 STRING_STMT                0-0-0/w STRC(288)         1 SUBTRACT_STMT
     0-0-0/w STRC(4608)        1 TRANS                      0-0-0/w STRC(144)         1 TRINARY_ILL
     0-0-0/w STRC(72)          1 UNARY_ILL                  0-0-0/w STRC(288)         1 UNARY_OP
     0-0-0/w STRC(288)         1 UNSTRING_STMT              0-0-0/w STRC(216)         1 USER_CALL
     0-0-0/w STRC(108)         1 VAL                        0-0-0/w STRC(108)         1 VAL_END
     0-0-0/w STRC(72)          1 WHEN                       0-0-0/w STRC(288)         1 WRITE_STMT


   Procedure Z8E1$PHASE1 requires 15 words for executable code.
   Procedure Z8E1$PHASE1 is declared NOAUTO and requires 22718 words of local(STATIC) storage.

    No errors detected in file Z8E1.:Z8A6TSI    .
