VERSION A06

PL6.E3A0      #001=Z8E3$ERROR_CORR_DD File=Z8E3.:Z8A6TSI                         SAT 08/09/97 11:28 Page:1
        1        1        /*T***********************************************************/
        2        2        /*T*                                                         */
        3        3        /*T* Copyright (c) Bull HN Information Systems Inc., 1997    */
        4        4        /*T*                                                         */
        5        5        /*T***********************************************************/
        6        6        Z8E3$ERROR_CORR_DD : PROC;
        7        7
        8        8        %EQU PHASE = 1;
        9        9        %INCLUDE Z8A_DEFC;
       10       77        %INCLUDE Z8A_SUPP_MAC;
       11     2477        %INCLUDE Z8A_ERR_NUMS;
       12     3241        %INCLUDE Z8A_COMCOM;
       13     3891        %INCLUDE Z8A_DNT;
       14     4112
       15     4113        %INCLUDE Z8E_DD_SUBS;
       16     4142        %INCLUDE Z8E_DDPDA_S;
       17     4757
       18     4758        %INCLUDE Z8E_HEAP;
       19     4814        %INCLUDE Z8E_STACKS;
       20     7080        %INCLUDE Z8E_O1COM;
       21     7841        %INCLUDE Z8A_P_STATE;
       22     7851
       23     7852    1   DCL Z8EL$LEX ENTRY;
       24     7853    1   DCL Z9AT$TERMINATOR ENTRY;
       25     7854
       26     7855
       27     7856    1   DCL 1 SQL        STATIC,
       28     7857    1         2 EXEC_LINE      SBIN WORD  INIT (0),
       29     7858    1         2 EXEC_COLUMN    SBIN WORD  INIT (0),
       30     7859    1         2 SQL_LINE       SBIN WORD  INIT (0),
       31     7860    1         2 SQL_COLUMN     SBIN WORD  INIT (0);
       32     7861
       33     7862        %MACRO IF_NOT_SQL_PREFIX_THEN;
       34     7863           IF NOT ( ( O1COM.ERRLINE = SQL.EXEC_LINE   AND
       35     7864                      O1COM.ERRCOL = SQL.EXEC_COLUMN  )  OR
       36     7865                    ( O1COM.ERRLINE = SQL.SQL_LINE   AND
       37     7866                      O1COM.ERRCOL = SQL.SQL_COLUMN ) ) THEN
PL6.E3A0      #001=Z8E3$ERROR_CORR_DD File=Z8E3.:Z8A6TSI                         SAT 08/09/97 11:28 Page:2
       38     7867        %MEND;
       39     7868
       40     7869
       41     7870        %EJECT;
PL6.E3A0      #001=Z8E3$ERROR_CORR_DD File=Z8E3.:Z8A6TSI                         SAT 08/09/97 11:28 Page:3
       42     7871        /* The following macros and code may need to be customized
       43     7872           for a specific application.
       44     7873        */
       45     7874
       46     7875
       47     7876
       48     7877
       49     7878        %MACRO TERMINATE;
       50     7879          /* Insert code for abnormal termination of parser */
       51     7880          CALL Z9AT$TERMINATOR;
       52     7881        %MEND;
       53     7882
       54     7883
       55     7884        %EQU DI_CHAR_LEN_MAX = 100;   /* Maximum length of an error plug-in */
       56     7885
       57     7886
       58     7887        %MACRO ERRORPROC;
       59     7888        ERROR : PROC(ERROR_TYPE, PLUG1$, PLUG2$);
       60     7889
       61     7890        DCL ERROR_TYPE SBIN WORD;
       62     7891        DCL PLUG1$ PTR;  /* TO DNT */
       63     7892        DCL PLUG2$ PTR;  /* TO DNT */
       64     7893
       65     7894        DCL NEWPLUG1$ PTR;
       66     7895        DCL NEWPLUG2$ PTR;
       67     7896        DCL Z8AE$ERROR ENTRY(12);
       68     7897
       69     7898        DCL 1 PARSEDNT BASED ALIGNED,
       70     7899              2 TEXT,
       71     7900                3 LENGTH SBIN WORD,
       72     7901                3 NAME CHAR(PARSEDNT.TEXT.LENGTH);
       73     7902
       74     7903        /* ERROR LOCATION IS SET WITH THE RESET_ERROR_LOC MACRO BEFORE
       75     7904           THE ERROR PROCEDURE IS CALLED */
       76     7905
       77     7906        IF ADDR(PLUG1$) = ADDR(NIL) THEN
       78     7907          /* Only error type is specified */
PL6.E3A0      #001=Z8E3$ERROR_CORR_DD File=Z8E3.:Z8A6TSI                         SAT 08/09/97 11:28 Page:4
       79     7908          CALL Z8AE$ERROR(ERROR_TYPE, O1COM.ERRLINE, O1COM.ERRCOL);
       80     7909        ELSE
       81     7910          IF ADDR(PLUG2$) = ADDR(NIL) THEN
       82     7911            /* Only 1 plug is specified */
       83     7912            DO;
       84     7913              %NEW_DNT(@POINTER = NEWPLUG1$,
       85     7914                          @SIZE = "PLUG1$ -> PARSEDNT.TEXT.LENGTH",
       86     7915                          @NAME = "PLUG1$ -> PARSEDNT.TEXT.NAME");
       87     7916
       88     7917              %IF_NOT_SQL_PREFIX_THEN;
       89     7918              CALL Z8AE$ERROR(ERROR_TYPE, O1COM.ERRLINE, O1COM.ERRCOL, NEWPLUG1$);
       90     7919            END;
       91     7920          ELSE
       92     7921            /* 2 PLUGS WERE SPECIFIED */
       93     7922            DO;
       94     7923              %NEW_DNT(@POINTER = NEWPLUG1$,
       95     7924                            @SIZE = "PLUG1$ -> PARSEDNT.TEXT.LENGTH",
       96     7925                            @NAME = "PLUG1$ -> PARSEDNT.TEXT.NAME");
       97     7926              %NEW_DNT(@POINTER = NEWPLUG2$,
       98     7927                          @SIZE = "PLUG2$ -> PARSEDNT.TEXT.LENGTH",
       99     7928                          @NAME = "PLUG2$ -> PARSEDNT.TEXT.NAME");
      100     7929
      101     7930              %IF_NOT_SQL_PREFIX_THEN;
      102     7931            CALL Z8AE$ERROR (ERROR_TYPE, O1COM.ERRLINE, O1COM.ERRCOL, NEWPLUG1$, NEWPLUG2$);
      103     7932            END;
      104     7933
      105     7934        END ERROR;
      106     7935        %MEND;
      107     7936
      108     7937
      109     7938
      110     7939        %MACRO RESET_ERROR_LOC;
      111     7940
      112     7941          /* RESET THE LINE & COLUMN TO THE POINT OF ERROR */
      113     7942          DO;
      114     7943             O1COM.ERRLINE = O1COM.LA_STK.LINE(O1COM.LA_GET);
      115     7944             O1COM.ERRCOL  = O1COM.LA_STK.COLUMN(O1COM.LA_GET);
PL6.E3A0      #001=Z8E3$ERROR_CORR_DD File=Z8E3.:Z8A6TSI                         SAT 08/09/97 11:28 Page:5
      116     7945          END;
      117     7946        %MEND;
      118     7947
      119     7948
      120     7949
      121     7950
      122     7951
      123     7952
      124     7953
      125     7954        /* Set up the trial parse length to try a sample parse on
      126     7955           any proposed correction during error recovery.  The specified
      127     7956           number designates how many tokens to parse past the proposed
      128     7957           correction.  If the trial parse fails, the cost to insert these
      129     7958           symbols will be doubled.  This will encourage deletion of
      130     7959           symbols when multiple corrections need to be made in adjacent
      131     7960           contexts.  Setting trial  parse length to 0 will disable
      132     7961           the trial parse.
      133     7962        */
      134     7963        %EQU TRAIL_PARSE_LENGTH = 2;
      135     7964
      136     7965        %MACRO CALL_SCANNER;
      137     7966
      138     7967          /* Call the scanner to obtain the next token.  The token should be
      139     7968             placed in LA_STK(LA_PUT).
      140     7969          */
      141     7970          CALL Z8EL$LEX;
      142     7971
      143     7972        %MEND;
      144     7973
      145     7974
      146     7975        %INCLUDE Z8A_P_EC;
      147     9353
      148     9354
      149     9355    1   CHECK_SQL_TOKEN: PROC;
      150     9356
      151     9357
      152     9358        %INCLUDE Z8E_WINDOW;
PL6.E3A0      #001=Z8E3$ERROR_CORR_DD File=Z8E3.:Z8A6TSI                         SAT 08/09/97 11:28 Page:6
      153    11428        %INCLUDE Z8E_REPLACE;
      154    11731
      155    11732
      156    11733
      157    11734    2   DCL CHECK_FIRST_SQL_PREFIX      BIT(1) ALIGNED;
      158    11735
      159    11736    2   DCL Z8AE$ERROR  ENTRY (12);
      160    11737    2   DCL Z8EL$HANDLE_LEVEL_CHANGE  ENTRY (1);
      161    11738        /*  DCL Z9EL$SQL_PREP          ENTRY;  */
      162    11739
      163    11740        %MACRO SKIP_SQL_TOKENS;
      164    11741          DO;
      165    11742                  /* Skips all symbols until the symbol "END-EXEC" or
      166    11743                     end-of-file is hit, also issues an error message to
      167    11744                     tell the user to use SQL option to process SQL statement
      168    11745                  */
      169    11746
      170    11747                  CALL Z8AE$ERROR (%E$USE_SQL_OPTION,
      171    11748                                   LEX_SYMBOL.LINE,
      172    11749                                   LEX_SYMBOL.COLUMN);
      173    11750
      174    11751                  DO WHILE (SUBSTR(LEX_SYMBOL.SYMBOL,0,LEX_SYMBOL.SIZE) ~=
      175    11752                            'END-EXEC'    AND
      176    11753                            LEX_SYMBOL.TYPE ~= %END_OF_FILE );
      177    11754
      178    11755                    %GET_A_TOKEN;
      179    11756
      180    11757                  END; /* DO WHILE */
      181    11758
      182    11759                  IF SUBSTR(LEX_SYMBOL.SYMBOL,0,LEX_SYMBOL.SIZE) = 'END-EXEC' THEN
      183    11760                    DO;
      184    11761
      185    11762                      CHECK_FIRST_SQL_PREFIX = FALSE;
      186    11763
      187    11764                      %GET_A_TOKEN;
      188    11765
      189    11766                      IF SUBSTR(LEX_SYMBOL.SYMBOL,0,LEX_SYMBOL.SIZE) = 'EXEC' THEN
PL6.E3A0      #001=Z8E3$ERROR_CORR_DD File=Z8E3.:Z8A6TSI                         SAT 08/09/97 11:28 Page:7
      190    11767                        GOTO START_SKIP;
      191    11768                      ELSE
      192    11769                        DO;
      193    11770                          %SAVE_TOKEN_ON_THE_QUEUE;
      194    11771                        END;
      195    11772                    END;
      196    11773
      197    11774
      198    11775           END;
      199    11776        %MEND;
      200    11777
      201    11778
      202    11779    2     CHECK_FIRST_SQL_PREFIX = TRUE;
      203    11780
      204    11781    2     START_SKIP:
      205    11782
      206    11783    2     IF SUBSTR (LEX_SYMBOL.SYMBOL, 0, LEX_SYMBOL.SIZE) = 'EXEC' THEN
      207    11784    3       DO;
      208    11785              %SAVE_CURRENT_TOKEN;
      209    11790
      210    11791              %GET_A_TOKEN;
      211    11829
      212    11830    3         IF SUBSTR(LEX_SYMBOL.SYMBOL,0,LEX_SYMBOL.SIZE) = 'SQL' THEN
      213    11831    4           DO;
      214    11832
      215    11833    4            IF CHECK_FIRST_SQL_PREFIX THEN
      216    11834    5              DO;
      217    11835    5                 SQL.EXEC_LINE = TEMP_LEX_SYMBOL.LINE;
      218    11836    5                 SQL.EXEC_COLUMN = TEMP_LEX_SYMBOL.COLUMN;
      219    11837    5                 SQL.SQL_LINE = LEX_SYMBOL.LINE;
      220    11838    5                 SQL.SQL_COLUMN = LEX_SYMBOL.COLUMN;
      221    11839    5                 O1COM.LA_STK.B.ERROR (O1COM.LA_GET) = TRUE;
      222    11840    5              END;
      223    11841
      224    11842                  %SKIP_SQL_TOKENS;
      225    11964
      226    11965    4           END;
PL6.E3A0      #001=Z8E3$ERROR_CORR_DD File=Z8E3.:Z8A6TSI                         SAT 08/09/97 11:28 Page:8
      227    11966    3         ELSE
      228    11967    4           DO;
      229    11968                  %SAVE_TOKEN_ON_THE_QUEUE;
      230    11990
      231    11991                  %LOAD_SAVED_TOKEN;
      232    11996    4           END;
      233    11997    3       END;
      234    11998    2     ELSE
      235    11999    3       DO;
      236    12000    3         IF (SUBSTR (LEX_SYMBOL.SYMBOL, 0, LEX_SYMBOL.SIZE) = 'SQL' AND
      237    12001    3            O1COM.LX_STK.DNT$ (O1COM.LX_TOP) -> DNT.TEXT.NAME = 'EXEC') THEN
      238    12002    4           DO;
      239    12003                    /* next few lines might be revived in the future  */
      240    12004                    /* and needs to be insert into previous block too */
      241    12005                    /*   CALL Z9EL$SQL_PREP;                          */
      242    12006
      243    12007                    /* if returned, SQL preprocessor is not available */
      244    12008                    /*   COMCOM.SQL_NOT_AVAILABLE = TRUE;             */
      245    12009
      246    12010
      247    12011    4             IF CHECK_FIRST_SQL_PREFIX THEN
      248    12012    5               DO;
      249    12013    5                 SQL.EXEC_LINE = O1COM.LX_STK.LINE(O1COM.LX_TOP);
      250    12014    5                 SQL.EXEC_COLUMN = O1COM.LX_STK.COLUMN(O1COM.LX_TOP);
      251    12015    5                 SQL.SQL_LINE = LEX_SYMBOL.LINE;
      252    12016    5                 SQL.SQL_COLUMN = LEX_SYMBOL.COLUMN;
      253    12017    5                 O1COM.LX_STK.B.ERROR (O1COM.LX_TOP) = TRUE;
      254    12018    5                 O1COM.LA_STK.B.ERROR (O1COM.LA_GET) = TRUE;
      255    12019    5               END;
      256    12020
      257    12021
      258    12022                  %SKIP_SQL_TOKENS;
      259    12144
      260    12145    4         END;
      261    12146    3       END;
      262    12147
      263    12148    2   END CHECK_SQL_TOKEN;
PL6.E3A0      #001=Z8E3$ERROR_CORR_DD File=Z8E3.:Z8A6TSI                         SAT 08/09/97 11:28 Page:9
      264    12149
      265    12150    1   CALL CHECK_SQL_TOKEN;
      266    12151
      267    12152
      268    12153    1      CALL LOCALLY_LEAST_COST_CORRECTION;
      269    12154
      270    12155    1   END Z8E3$ERROR_CORR_DD;
      271    12156        %EOD;

PL6.E3A0      #001=Z8E3$ERROR_CORR_DD File=Z8E3.:Z8A6TSI                         SAT 08/09/97 11:28 Page:10
--  Include file information  --

   Z8E_REPLACE.:Z8A6TOU  cannot be made into a system file and is referenced.
   Z8E_WINDOW.:Z8A6TOU  is referenced.
   Z8A_P_EC.:Z8A6TOU  cannot be made into a system file and is referenced.
   Z8A_P_STATE.:Z8A6TOU  cannot be made into a system file and is referenced.
   Z8E_O1COM.:Z8A6TOU  cannot be made into a system file and is referenced.
   Z8A_LEX_SYMB.:Z8A6TOU  cannot be made into a system file and is referenced.
   Z8E_STACKS.:Z8A6TOU  cannot be made into a system file and is referenced.
   Z8E_HEAP.:Z8A6TOU  cannot be made into a system file and is referenced.
   Z8E_DDPDA_S.:Z8A6TOU  is referenced.
   Z8E_DD_SUBS.:Z8A6TOU  is referenced.
   Z8A_DNT.:Z8A6TOU  cannot be made into a system file and is referenced.
   Z8A_COMCOM.:Z8A6TOU  cannot be made into a system file and is referenced.
   Z8A_ERR_NUMS.:Z8A6TOU  is referenced.
   X8A_COM_MACS.:X8A6TOU  is referenced.
   Z8A_NAMES.:Z8A6TOU  is referenced.
   Z8A_SUPP_MAC.:Z8A6TOU  is referenced.
   Z8A_DEFC.:Z8A6TOU  cannot be made into a system file and is referenced.
      No diagnostics issued in procedure Z8E3$ERROR_CORR_DD.

   Procedure Z8E3$ERROR_CORR_DD requires 2759 words for executable code.
   Procedure Z8E3$ERROR_CORR_DD requires 2410 words of local(AUTO) storage.

PL6.E3A0      #001=Z8E3$ERROR_CORR_DD File=Z8E3.:Z8A6TSI                         SAT 08/09/97 11:28 Page:11

 Object Unit name= Z8E3$ERROR_CORR_DD                         File name= Z8E3.:Z8A6TOU
 UTS= AUG 09 '97 11:28:58.40 SAT                              Compiler= PL-6/E31         Sev=      00
 SharedLib= :SHARED_SYSTEM                                    Alt SharedLib=


    ****  Control sections  ****

 Sect   Type Bound  Init  Size OctSiz  Section name(segment info)
    0  LblCom even  none     1      1  ITERATION
    1  LblCom even  none     1      1  DNT$
    2  LblCom even  none     5      5  DNT_
    3  LblCom even  none     1      1  DNT_BUCKET_NUMBER
    4  LblCom even  none     1      1  DNT_OF_1$
    5  LblCom even  none     1      1  HEAP$
    6  LblCom even  none    90    132  LEX_SYMBOL
    7  LblCom even  none     1      1  CURRENT_LEX_SYMBOL$
    8  LblCom even  none    90    132  TEMP_LEX_SYMBOL
    9  LblCom even  none    90    132  TEMP_LEX_SYMBOL2
   10   Data  even  none     5      5  Z8E3$ERROR_CORR_DD
   11  LblCom even  none     1      1  CURRENT_SYMBOL_LEVEL
   12  LblCom even  none     1      1  REPLACE_ACTIVE
   13  LblCom even  none     1      1  IGNORE_COPY_REPLACE
   14  LblCom even  none     1      1  COPY_DEBUG_LEVEL
   15  LblCom even  none     4      4  REPLACE_LIST
   16  LblCom even  none     1      1  LEX_SYMBOL_QUEUE$
   17  RoData even  UTS      5      5  Z8E3$ERROR_CORR_DD
   18   Proc  even  none  2759   5307  Z8E3$ERROR_CORR_DD
   19  RoData even  none    35     43  Z8E3$ERROR_CORR_DD

    ****  Entry defs  ****

                              Check   Calling
                             calling  sequence
  Sect OctLoc Primary Altret sequence   type   Parms  Name
    18      0   yes            yes      Std        0  Z8E3$ERROR_CORR_DD
PL6.E3A0      #001=Z8E3$ERROR_CORR_DD File=Z8E3.:Z8A6TSI                         SAT 08/09/97 11:28 Page:12

  ****  Entry refs  ****

         Check        Calling
        calling       sequence
Altret sequence SRef   type   Args  Name
         yes           Std       0 Z8EL$LEX
         yes           Std      12 Z8AE$ERROR
         yes           Std       1 Z8AR$RESERVER
         yes           Std       0 Z9AT$TERMINATOR
         yes           Std       2 Z8ED$DISPOSE_HEAP
         yes           Std       0 Z8ES$SCANNER
         yes           Std       1 Z8EL$HANDLE_LEVEL_CHANGE
         yes           Std      12 Z8AE$ERROR
         yes           Std       2 Z8ED$NEW_HEAP
         yes           Std       0 Z8EL$GET_NEXT_SCANNER_LINE
                       nStd      0 X66_AUTO_0
                       nStd      0 X66_ARET

  ****  Data refs  ****

  Flags:  r = read only, s = secondary
Flgs Name                             Flgs Name                             Flgs Name
     COMCOM                                O1COM                                 HIER_STK_PTR
     HIER_STK                              PAGE_FORMAT                           REP_STK_PTR
     REP_STK                          r    DD_DEL_COST                      r    DD_LCS
r    DD_LCS_ELEM                      r    DD_LCP                           r    DD_LCP_UBOUND
r    DD_LCP_ELEM                      r    DD_ITEM                          r    DD_STATE_ITEM
r    DD_PATH                          r    DD_PATH_ELEM                     r    DD_TERM_STRING
r    DD_TSTRING_SPACE                 r    DD_PRODR                         r    DD_ACTION_COL
r    DD_ACTION_ROW                    r    DD_GOTO_COL                      r    DD_GOTO_ROW

  ****  Segment refs  ****

  Flags:  r = read only, s = secondary
Flgs Name                             Flgs Name                             Flgs Name
     NULLSID                               ISSID
PL6.E3A0      #001=Z8E3$ERROR_CORR_DD File=Z8E3.:Z8A6TSI                         SAT 08/09/97 11:28 Page:13


        1        1        /*T***********************************************************/
        2        2        /*T*                                                         */
        3        3        /*T* Copyright (c) Bull HN Information Systems Inc., 1997    */
        4        4        /*T*                                                         */
        5        5        /*T***********************************************************/
        6        6        Z8E3$ERROR_CORR_DD : PROC;

      6 18 000000   000000 700200 xent  Z8E3$ERROR_* TSX0  ! X66_AUTO_0
        18 000001   004552 000000                    ZERO    2410,0
        18 000002   005302 710000 18                 TRA     s:12150

        7        7
        8        8        %EQU PHASE = 1;
        9        9        %INCLUDE Z8A_DEFC;
       10       77        %INCLUDE Z8A_SUPP_MAC;
       11     2477        %INCLUDE Z8A_ERR_NUMS;
       12     3241        %INCLUDE Z8A_COMCOM;
       13     3891        %INCLUDE Z8A_DNT;
       14     4112
       15     4113        %INCLUDE Z8E_DD_SUBS;
       16     4142        %INCLUDE Z8E_DDPDA_S;
       17     4757
       18     4758        %INCLUDE Z8E_HEAP;
       19     4814        %INCLUDE Z8E_STACKS;
       20     7080        %INCLUDE Z8E_O1COM;
       21     7841        %INCLUDE Z8A_P_STATE;
       22     7851
       23     7852    1   DCL Z8EL$LEX ENTRY;
       24     7853    1   DCL Z9AT$TERMINATOR ENTRY;
       25     7854
       26     7855
       27     7856    1   DCL 1 SQL        STATIC,
       28     7857    1         2 EXEC_LINE      SBIN WORD  INIT (0),
       29     7858    1         2 EXEC_COLUMN    SBIN WORD  INIT (0),
       30     7859    1         2 SQL_LINE       SBIN WORD  INIT (0),
       31     7860    1         2 SQL_COLUMN     SBIN WORD  INIT (0);
PL6.E3A0      #001=Z8E3$ERROR_CORR_DD File=Z8E3.:Z8A6TSI                         SAT 08/09/97 11:28 Page:14
       32     7861
       33     7862        %MACRO IF_NOT_SQL_PREFIX_THEN;
       34     7863           IF NOT ( ( O1COM.ERRLINE = SQL.EXEC_LINE   AND
       35     7864                      O1COM.ERRCOL = SQL.EXEC_COLUMN  )  OR
       36     7865                    ( O1COM.ERRLINE = SQL.SQL_LINE   AND
       37     7866                      O1COM.ERRCOL = SQL.SQL_COLUMN ) ) THEN
       38     7867        %MEND;
       39     7868
       40     7869
       41     7870        %EJECT;
PL6.E3A0      #001=Z8E3$ERROR_CORR_DD File=Z8E3.:Z8A6TSI                         SAT 08/09/97 11:28 Page:15
       42     7871        /* The following macros and code may need to be customized
       43     7872           for a specific application.
       44     7873        */
       45     7874
       46     7875
       47     7876
       48     7877
       49     7878        %MACRO TERMINATE;
       50     7879          /* Insert code for abnormal termination of parser */
       51     7880          CALL Z9AT$TERMINATOR;
       52     7881        %MEND;
       53     7882
       54     7883
       55     7884        %EQU DI_CHAR_LEN_MAX = 100;   /* Maximum length of an error plug-in */
       56     7885
       57     7886
       58     7887        %MACRO ERRORPROC;
       59     7888        ERROR : PROC(ERROR_TYPE, PLUG1$, PLUG2$);
       60     7889
       61     7890        DCL ERROR_TYPE SBIN WORD;
       62     7891        DCL PLUG1$ PTR;  /* TO DNT */
       63     7892        DCL PLUG2$ PTR;  /* TO DNT */
       64     7893
       65     7894        DCL NEWPLUG1$ PTR;
       66     7895        DCL NEWPLUG2$ PTR;
       67     7896        DCL Z8AE$ERROR ENTRY(12);
       68     7897
       69     7898        DCL 1 PARSEDNT BASED ALIGNED,
       70     7899              2 TEXT,
       71     7900                3 LENGTH SBIN WORD,
       72     7901                3 NAME CHAR(PARSEDNT.TEXT.LENGTH);
       73     7902
       74     7903        /* ERROR LOCATION IS SET WITH THE RESET_ERROR_LOC MACRO BEFORE
       75     7904           THE ERROR PROCEDURE IS CALLED */
       76     7905
       77     7906        IF ADDR(PLUG1$) = ADDR(NIL) THEN
       78     7907          /* Only error type is specified */
PL6.E3A0      #001=Z8E3$ERROR_CORR_DD File=Z8E3.:Z8A6TSI                         SAT 08/09/97 11:28 Page:16
       79     7908          CALL Z8AE$ERROR(ERROR_TYPE, O1COM.ERRLINE, O1COM.ERRCOL);
       80     7909        ELSE
       81     7910          IF ADDR(PLUG2$) = ADDR(NIL) THEN
       82     7911            /* Only 1 plug is specified */
       83     7912            DO;
       84     7913              %NEW_DNT(@POINTER = NEWPLUG1$,
       85     7914                          @SIZE = "PLUG1$ -> PARSEDNT.TEXT.LENGTH",
       86     7915                          @NAME = "PLUG1$ -> PARSEDNT.TEXT.NAME");
       87     7916
       88     7917              %IF_NOT_SQL_PREFIX_THEN;
       89     7918              CALL Z8AE$ERROR(ERROR_TYPE, O1COM.ERRLINE, O1COM.ERRCOL, NEWPLUG1$);
       90     7919            END;
       91     7920          ELSE
       92     7921            /* 2 PLUGS WERE SPECIFIED */
       93     7922            DO;
       94     7923              %NEW_DNT(@POINTER = NEWPLUG1$,
       95     7924                            @SIZE = "PLUG1$ -> PARSEDNT.TEXT.LENGTH",
       96     7925                            @NAME = "PLUG1$ -> PARSEDNT.TEXT.NAME");
       97     7926              %NEW_DNT(@POINTER = NEWPLUG2$,
       98     7927                          @SIZE = "PLUG2$ -> PARSEDNT.TEXT.LENGTH",
       99     7928                          @NAME = "PLUG2$ -> PARSEDNT.TEXT.NAME");
      100     7929
      101     7930              %IF_NOT_SQL_PREFIX_THEN;
      102     7931           CALL Z8AE$ERROR (ERROR_TYPE, O1COM.ERRLINE, O1COM.ERRCOL, NEWPLUG1$, NEWPLUG2$);
      103     7932            END;
      104     7933
      105     7934        END ERROR;
      106     7935        %MEND;
      107     7936
      108     7937
      109     7938
      110     7939        %MACRO RESET_ERROR_LOC;
      111     7940
      112     7941          /* RESET THE LINE & COLUMN TO THE POINT OF ERROR */
      113     7942          DO;
      114     7943             O1COM.ERRLINE = O1COM.LA_STK.LINE(O1COM.LA_GET);
      115     7944             O1COM.ERRCOL  = O1COM.LA_STK.COLUMN(O1COM.LA_GET);
PL6.E3A0      #001=Z8E3$ERROR_CORR_DD File=Z8E3.:Z8A6TSI                         SAT 08/09/97 11:28 Page:17
      116     7945          END;
      117     7946        %MEND;
      118     7947
      119     7948
      120     7949
      121     7950
      122     7951
      123     7952
      124     7953
      125     7954        /* Set up the trial parse length to try a sample parse on
      126     7955           any proposed correction during error recovery.  The specified
      127     7956           number designates how many tokens to parse past the proposed
      128     7957           correction.  If the trial parse fails, the cost to insert these
      129     7958           symbols will be doubled.  This will encourage deletion of
      130     7959           symbols when multiple corrections need to be made in adjacent
      131     7960           contexts.  Setting trial  parse length to 0 will disable
      132     7961           the trial parse.
      133     7962        */
      134     7963        %EQU TRAIL_PARSE_LENGTH = 2;
      135     7964
      136     7965        %MACRO CALL_SCANNER;
      137     7966
      138     7967          /* Call the scanner to obtain the next token.  The token should be
      139     7968             placed in LA_STK(LA_PUT).
      140     7969          */
      141     7970          CALL Z8EL$LEX;
      142     7971
      143     7972        %MEND;
      144     7973
      145     7974
      146     7975        %INCLUDE Z8A_P_EC;

   7981 18 000003   200004 741300       LOCALLY_LEA* STX1  ! PARSE_STACK_IDX_IN_CHARS+1,,AUTO
        18 000004   004132 710000 18                 TRA     s:9259

   8070 18 000005   204520 741300       ERROR        STX1  ! @PREVSTATE+1,,AUTO

PL6.E3A0      #001=Z8E3$ERROR_CORR_DD File=Z8E3.:Z8A6TSI                         SAT 08/09/97 11:28 Page:18
   8083 18 000006   204522 236100                    LDQ     @PLUG1$,,AUTO
        18 000007   000000 116000 19                 CMPQ    0
        18 000010   000023 601000 18                 TNZ     s:8087

   8085 18 000011   000002 236000 19                 LDQ     2
        18 000012   204530 756100                    STQ     NEWPLUG2$+3,,AUTO
        18 000013   000003 236000 19                 LDQ     3
        18 000014   204521 235100                    LDA     @ERROR_TYPE,,AUTO
        18 000015   204526 757100                    STAQ    NEWPLUG2$+1,,AUTO
        18 000016   204526 630500                    EPPR0   NEWPLUG2$+1,,AUTO
        18 000017   000001 631400 19                 EPPR1   1
        18 000020   000000 701000 xent               TSX1    Z8AE$ERROR
        18 000021   000000 011000                    NOP     0
        18 000022   000351 710000 18                 TRA     s:8289

   8087 18 000023   204523 236100                    LDQ     @PLUG2$,,AUTO
        18 000024   000000 116000 19                 CMPQ    0
        18 000025   000144 601000 18                 TNZ     s:8166

   8095 18 000026   204522 470500                    LDP0    @PLUG1$,,AUTO
        18 000027   000000 471500                    LDP1    0,,PR0
        18 000030   100000 236100                    LDQ     0,,PR1
        18 000031   000025 036007                    ADLQ    21,DL
        18 000032   000004 506007                    DIV     4,DL
        18 000033   000000 756000 0                  STQ     ITERATION

   8096 18 000034   000002 036000 2                  ADLQ    DNT_+2
        18 000035   000050 604000 18                 TMI     s:8098
        18 000036   000003 116000 2                  CMPQ    DNT_+3
        18 000037   000050 602000 18                 TNC     s:8098

   8097 18 000040   000005 236000 19                 LDQ     5
        18 000041   204526 756100                    STQ     NEWPLUG2$+1,,AUTO
        18 000042   204526 631500                    EPPR1   NEWPLUG2$+1,,AUTO
        18 000043   204527 451500                    STP1    NEWPLUG2$+2,,AUTO
        18 000044   204527 630500                    EPPR0   NEWPLUG2$+2,,AUTO
        18 000045   000004 631400 19                 EPPR1   4
PL6.E3A0      #001=Z8E3$ERROR_CORR_DD File=Z8E3.:Z8A6TSI                         SAT 08/09/97 11:28 Page:19
        18 000046   000000 701000 xent               TSX1    Z8AR$RESERVER
        18 000047   000000 011000                    NOP     0

   8098 18 000050   000002 236000 2                  LDQ     DNT_+2
        18 000051   000022 736000                    QLS     18
        18 000052   000001 036000 2                  ADLQ    DNT_+1
        18 000053   204524 756100                    STQ     NEWPLUG1$,,AUTO

   8099 18 000054   000002 236000 2                  LDQ     DNT_+2
        18 000055   000000 036000 0                  ADLQ    ITERATION
        18 000056   000002 756000 2                  STQ     DNT_+2

   8100 18 000057   001046 220003                    LDX0    550,DU
        18 000060   204524 470500                    LDP0    NEWPLUG1$,,AUTO
        18 000061   000000 740100                    STX0    0,,PR0

   8101 18 000062   000000 721000 0                  LXL1    ITERATION
        18 000063   204524 470500                    LDP0    NEWPLUG1$,,AUTO
        18 000064   000000 441100                    SXL1    0,,PR0

   8102 18 000065   204522 470500                    LDP0    @PLUG1$,,AUTO
        18 000066   000000 471500                    LDP1    0,,PR0
        18 000067   100000 721100                    LXL1    0,,PR1
        18 000070   204524 473500                    LDP3    NEWPLUG1$,,AUTO
        18 000071   300004 741100                    STX1    4,,PR3

   8105 18 000072   000000 236000 19                 LDQ     0
        18 000073   204524 471500                    LDP1    NEWPLUG1$,,AUTO
        18 000074   100001 756100                    STQ     1,,PR1

   8106 18 000075   204524 471500                    LDP1    NEWPLUG1$,,AUTO
        18 000076   100002 756100                    STQ     2,,PR1

   8107 18 000077   000000 221003                    LDX1    0,DU
        18 000100   204524 471500                    LDP1    NEWPLUG1$,,AUTO
        18 000101   100003 741100                    STX1    3,,PR1

PL6.E3A0      #001=Z8E3$ERROR_CORR_DD File=Z8E3.:Z8A6TSI                         SAT 08/09/97 11:28 Page:20
   8108 18 000102   000000 222003                    LDX2    0,DU
        18 000103   204524 471500                    LDP1    NEWPLUG1$,,AUTO
        18 000104   100003 442100                    SXL2    3,,PR1

   8109 18 000105   204524 471500                    LDP1    NEWPLUG1$,,AUTO
        18 000106   100004 223100                    LDX3    4,,PR1
        18 000107   000000 473500                    LDP3    0,,PR0
        18 000110   300000 724100                    LXL4    0,,PR3
        18 000111   040140 100540                    MLR     fill='040'O
        18 000112   300001 000014                    ADSC9   1,,PR3                   cn=0,n=*X4
        18 000113   100004 400013                    ADSC9   4,,PR1                   cn=2,n=*X3

   8151 18 000114   000136 236000 xsym               LDQ     O1COM+94
        18 000115   000000 116000 10                 CMPQ    SQL
        18 000116   000122 601000 18                 TNZ     s:8151+6
        18 000117   000137 236000 xsym               LDQ     O1COM+95
        18 000120   000001 116000 10                 CMPQ    SQL+1
        18 000121   000351 600000 18                 TZE     s:8289
        18 000122   000136 236000 xsym               LDQ     O1COM+94
        18 000123   000002 116000 10                 CMPQ    SQL+2
        18 000124   000130 601000 18                 TNZ     s:8156
        18 000125   000137 236000 xsym               LDQ     O1COM+95
        18 000126   000003 116000 10                 CMPQ    SQL+3
        18 000127   000351 600000 18                 TZE     s:8289

   8156 18 000130   204524 631500                    EPPR1   NEWPLUG1$,,AUTO
        18 000131   204531 451500                    STP1    NEWPLUG2$+4,,AUTO
        18 000132   000002 236000 19                 LDQ     2
        18 000133   204530 756100                    STQ     NEWPLUG2$+3,,AUTO
        18 000134   000003 236000 19                 LDQ     3
        18 000135   204521 235100                    LDA     @ERROR_TYPE,,AUTO
        18 000136   204526 757100                    STAQ    NEWPLUG2$+1,,AUTO
        18 000137   204526 630500                    EPPR0   NEWPLUG2$+1,,AUTO
        18 000140   000006 631400 19                 EPPR1   6
        18 000141   000000 701000 xent               TSX1    Z8AE$ERROR
        18 000142   000000 011000                    NOP     0

PL6.E3A0      #001=Z8E3$ERROR_CORR_DD File=Z8E3.:Z8A6TSI                         SAT 08/09/97 11:28 Page:21
   8157 18 000143   000351 710000 18                 TRA     s:8289

   8166 18 000144   204522 470500                    LDP0    @PLUG1$,,AUTO
        18 000145   000000 471500                    LDP1    0,,PR0
        18 000146   100000 236100                    LDQ     0,,PR1
        18 000147   000025 036007                    ADLQ    21,DL
        18 000150   000004 506007                    DIV     4,DL
        18 000151   000000 756000 0                  STQ     ITERATION

   8167 18 000152   000002 036000 2                  ADLQ    DNT_+2
        18 000153   000166 604000 18                 TMI     s:8169
        18 000154   000003 116000 2                  CMPQ    DNT_+3
        18 000155   000166 602000 18                 TNC     s:8169

   8168 18 000156   000005 236000 19                 LDQ     5
        18 000157   204526 756100                    STQ     NEWPLUG2$+1,,AUTO
        18 000160   204526 631500                    EPPR1   NEWPLUG2$+1,,AUTO
        18 000161   204527 451500                    STP1    NEWPLUG2$+2,,AUTO
        18 000162   204527 630500                    EPPR0   NEWPLUG2$+2,,AUTO
        18 000163   000004 631400 19                 EPPR1   4
        18 000164   000000 701000 xent               TSX1    Z8AR$RESERVER
        18 000165   000000 011000                    NOP     0

   8169 18 000166   000002 236000 2                  LDQ     DNT_+2
        18 000167   000022 736000                    QLS     18
        18 000170   000001 036000 2                  ADLQ    DNT_+1
        18 000171   204524 756100                    STQ     NEWPLUG1$,,AUTO

   8170 18 000172   000002 236000 2                  LDQ     DNT_+2
        18 000173   000000 036000 0                  ADLQ    ITERATION
        18 000174   000002 756000 2                  STQ     DNT_+2

   8171 18 000175   001046 220003                    LDX0    550,DU
        18 000176   204524 470500                    LDP0    NEWPLUG1$,,AUTO
        18 000177   000000 740100                    STX0    0,,PR0

   8172 18 000200   000000 721000 0                  LXL1    ITERATION
PL6.E3A0      #001=Z8E3$ERROR_CORR_DD File=Z8E3.:Z8A6TSI                         SAT 08/09/97 11:28 Page:22
        18 000201   204524 470500                    LDP0    NEWPLUG1$,,AUTO
        18 000202   000000 441100                    SXL1    0,,PR0

   8173 18 000203   204522 470500                    LDP0    @PLUG1$,,AUTO
        18 000204   000000 471500                    LDP1    0,,PR0
        18 000205   100000 721100                    LXL1    0,,PR1
        18 000206   204524 473500                    LDP3    NEWPLUG1$,,AUTO
        18 000207   300004 741100                    STX1    4,,PR3

   8176 18 000210   000000 236000 19                 LDQ     0
        18 000211   204524 471500                    LDP1    NEWPLUG1$,,AUTO
        18 000212   100001 756100                    STQ     1,,PR1

   8177 18 000213   204524 471500                    LDP1    NEWPLUG1$,,AUTO
        18 000214   100002 756100                    STQ     2,,PR1

   8178 18 000215   000000 221003                    LDX1    0,DU
        18 000216   204524 471500                    LDP1    NEWPLUG1$,,AUTO
        18 000217   100003 741100                    STX1    3,,PR1

   8179 18 000220   000000 222003                    LDX2    0,DU
        18 000221   204524 471500                    LDP1    NEWPLUG1$,,AUTO
        18 000222   100003 442100                    SXL2    3,,PR1

   8180 18 000223   204524 471500                    LDP1    NEWPLUG1$,,AUTO
        18 000224   100004 223100                    LDX3    4,,PR1
        18 000225   000000 473500                    LDP3    0,,PR0
        18 000226   300000 724100                    LXL4    0,,PR3
        18 000227   040140 100540                    MLR     fill='040'O
        18 000230   300001 000014                    ADSC9   1,,PR3                   cn=0,n=*X4
        18 000231   100004 400013                    ADSC9   4,,PR1                   cn=2,n=*X3

   8226 18 000232   204523 471500                    LDP1    @PLUG2$,,AUTO
        18 000233   100000 473500                    LDP3    0,,PR1
        18 000234   300000 236100                    LDQ     0,,PR3
        18 000235   000025 036007                    ADLQ    21,DL
        18 000236   000004 506007                    DIV     4,DL
PL6.E3A0      #001=Z8E3$ERROR_CORR_DD File=Z8E3.:Z8A6TSI                         SAT 08/09/97 11:28 Page:23
        18 000237   000000 756000 0                  STQ     ITERATION

   8227 18 000240   000002 036000 2                  ADLQ    DNT_+2
        18 000241   000254 604000 18                 TMI     s:8229
        18 000242   000003 116000 2                  CMPQ    DNT_+3
        18 000243   000254 602000 18                 TNC     s:8229

   8228 18 000244   000005 236000 19                 LDQ     5
        18 000245   204526 756100                    STQ     NEWPLUG2$+1,,AUTO
        18 000246   204526 633500                    EPPR3   NEWPLUG2$+1,,AUTO
        18 000247   204527 453500                    STP3    NEWPLUG2$+2,,AUTO
        18 000250   204527 630500                    EPPR0   NEWPLUG2$+2,,AUTO
        18 000251   000004 631400 19                 EPPR1   4
        18 000252   000000 701000 xent               TSX1    Z8AR$RESERVER
        18 000253   000000 011000                    NOP     0

   8229 18 000254   000002 236000 2                  LDQ     DNT_+2
        18 000255   000022 736000                    QLS     18
        18 000256   000001 036000 2                  ADLQ    DNT_+1
        18 000257   204525 756100                    STQ     NEWPLUG2$,,AUTO

   8230 18 000260   000002 236000 2                  LDQ     DNT_+2
        18 000261   000000 036000 0                  ADLQ    ITERATION
        18 000262   000002 756000 2                  STQ     DNT_+2

   8231 18 000263   001046 220003                    LDX0    550,DU
        18 000264   204525 470500                    LDP0    NEWPLUG2$,,AUTO
        18 000265   000000 740100                    STX0    0,,PR0

   8232 18 000266   000000 721000 0                  LXL1    ITERATION
        18 000267   204525 470500                    LDP0    NEWPLUG2$,,AUTO
        18 000270   000000 441100                    SXL1    0,,PR0

   8233 18 000271   204523 470500                    LDP0    @PLUG2$,,AUTO
        18 000272   000000 471500                    LDP1    0,,PR0
        18 000273   100000 721100                    LXL1    0,,PR1
        18 000274   204525 473500                    LDP3    NEWPLUG2$,,AUTO
PL6.E3A0      #001=Z8E3$ERROR_CORR_DD File=Z8E3.:Z8A6TSI                         SAT 08/09/97 11:28 Page:24
        18 000275   300004 741100                    STX1    4,,PR3

   8236 18 000276   000000 236000 19                 LDQ     0
        18 000277   204525 471500                    LDP1    NEWPLUG2$,,AUTO
        18 000300   100001 756100                    STQ     1,,PR1

   8237 18 000301   204525 471500                    LDP1    NEWPLUG2$,,AUTO
        18 000302   100002 756100                    STQ     2,,PR1

   8238 18 000303   000000 221003                    LDX1    0,DU
        18 000304   204525 471500                    LDP1    NEWPLUG2$,,AUTO
        18 000305   100003 741100                    STX1    3,,PR1

   8239 18 000306   000000 222003                    LDX2    0,DU
        18 000307   204525 471500                    LDP1    NEWPLUG2$,,AUTO
        18 000310   100003 442100                    SXL2    3,,PR1

   8240 18 000311   204525 471500                    LDP1    NEWPLUG2$,,AUTO
        18 000312   100004 223100                    LDX3    4,,PR1
        18 000313   000000 473500                    LDP3    0,,PR0
        18 000314   300000 724100                    LXL4    0,,PR3
        18 000315   040140 100540                    MLR     fill='040'O
        18 000316   300001 000014                    ADSC9   1,,PR3                   cn=0,n=*X4
        18 000317   100004 400013                    ADSC9   4,,PR1                   cn=2,n=*X3

   8282 18 000320   000136 236000 xsym               LDQ     O1COM+94
        18 000321   000000 116000 10                 CMPQ    SQL
        18 000322   000326 601000 18                 TNZ     s:8282+6
        18 000323   000137 236000 xsym               LDQ     O1COM+95
        18 000324   000001 116000 10                 CMPQ    SQL+1
        18 000325   000351 600000 18                 TZE     s:8289
        18 000326   000136 236000 xsym               LDQ     O1COM+94
        18 000327   000002 116000 10                 CMPQ    SQL+2
        18 000330   000334 601000 18                 TNZ     s:8287
        18 000331   000137 236000 xsym               LDQ     O1COM+95
        18 000332   000003 116000 10                 CMPQ    SQL+3
        18 000333   000351 600000 18                 TZE     s:8289
PL6.E3A0      #001=Z8E3$ERROR_CORR_DD File=Z8E3.:Z8A6TSI                         SAT 08/09/97 11:28 Page:25

   8287 18 000334   204525 631500                    EPPR1   NEWPLUG2$,,AUTO
        18 000335   204532 451500                    STP1    NEWPLUG2$+5,,AUTO
        18 000336   204524 633500                    EPPR3   NEWPLUG1$,,AUTO
        18 000337   204531 453500                    STP3    NEWPLUG2$+4,,AUTO
        18 000340   000002 236000 19                 LDQ     2
        18 000341   204530 756100                    STQ     NEWPLUG2$+3,,AUTO
        18 000342   000003 236000 19                 LDQ     3
        18 000343   204521 235100                    LDA     @ERROR_TYPE,,AUTO
        18 000344   204526 757100                    STAQ    NEWPLUG2$+1,,AUTO
        18 000345   204526 630500                    EPPR0   NEWPLUG2$+1,,AUTO
        18 000346   000007 631400 19                 EPPR1   7
        18 000347   000000 701000 xent               TSX1    Z8AE$ERROR
        18 000350   000000 011000                    NOP     0

   8289 18 000351   204520 221300                    LDX1  ! @PREVSTATE+1,,AUTO
        18 000352   000001 702211                    TSX2  ! 1,X1

   8294 18 000353   200172 741300       CREATE_LARG* STX1  ! ACCUM_INS_TO_SYM+2,,AUTO

   8306 18 000354   000133 235000 xsym               LDA     O1COM+91
        18 000355   200173 755100                    STA     OLA_GET,,AUTO

   8308 18 000356   000003 735000                    ALS     3
        18 000357   000246 235005 xsym               LDA     O1COM+166,AL
        18 000360   000002 735000                    ALS     2
        18 000361   000001 735000                    ALS     1
        18 000362   000246 236005 xsym               LDQ     O1COM+166,AL
        18 000363   000366 604000 18                 TMI     s:8310
        18 000364   000132 116000 xsym               CMPQ    O1COM+90
        18 000365   000402 600000 18                 TZE     s:8314

   8310 18 000366   000133 235000 xsym               LDA     O1COM+91
        18 000367   000003 735000                    ALS     3
        18 000370   000246 235005 xsym               LDA     O1COM+166,AL
        18 000371   000133 755000 xsym               STA     O1COM+91

PL6.E3A0      #001=Z8E3$ERROR_CORR_DD File=Z8E3.:Z8A6TSI                         SAT 08/09/97 11:28 Page:26
   8312 18 000372   000003 735000                    ALS     3
        18 000373   000246 235005 xsym               LDA     O1COM+166,AL
        18 000374   000002 735000                    ALS     2
        18 000375   000001 735000                    ALS     1
        18 000376   000246 236005 xsym               LDQ     O1COM+166,AL
        18 000377   000366 604000 18                 TMI     s:8310
        18 000400   000132 116000 xsym               CMPQ    O1COM+90
        18 000401   000366 601000 18                 TNZ     s:8310

   8314 18 000402   000133 235000 xsym               LDA     O1COM+91
        18 000403   000003 735000                    ALS     3
        18 000404   000246 235005 xsym               LDA     O1COM+166,AL
        18 000405   200174 755100                    STA     OLINK,,AUTO

   8315 18 000406   200173 236100                    LDQ     OLA_GET,,AUTO
        18 000407   000005 736000                    QLS     5
        18 000410   000133 235000 xsym               LDA     O1COM+91
        18 000411   000005 735000                    ALS     5
        18 000412   000005 100406                    MLR     fill='000'O
        18 000413   000237 000040 xsym               ADSC9   O1COM+159,Q              cn=0,n=32
        18 000414   000237 000040 xsym               ADSC9   O1COM+159,A              cn=0,n=32

   8316 18 000415   000133 235000 xsym               LDA     O1COM+91
        18 000416   000003 735000                    ALS     3
        18 000417   200174 236100                    LDQ     OLINK,,AUTO
        18 000420   000246 756005 xsym               STQ     O1COM+166,AL

   8317 18 000421   000133 235000 xsym               LDA     O1COM+91
        18 000422   000003 735000                    ALS     3
        18 000423   000246 235005 xsym               LDA     O1COM+166,AL
        18 000424   200170 755100                    STA     ACCUM_INS_TO_SYM,,AUTO

   8318 18 000425   200077 755100                    STA     LR+2,,AUTO

   8319 18 000426   000002 235007                    LDA     2,DL
        18 000427   200166 755100                    STA     ACCUM_DEL_LEN,,AUTO

PL6.E3A0      #001=Z8E3$ERROR_CORR_DD File=Z8E3.:Z8A6TSI                         SAT 08/09/97 11:28 Page:27
   8320 18 000430   000133 235000 xsym               LDA     O1COM+91
        18 000431   000003 735000                    ALS     3
        18 000432   000242 236005 xsym               LDQ     O1COM+162,AL
        18 000433   000021 402007                    MPY     17,DL
        18 000434   000000 116003                    CMPQ    0,DU
        18 000435   000437 605000 18                 TPL     s:8320+7
        18 000436   000044 036003                    ADLQ    36,DU
        18 000437   003100 061406                    CSR     bolr='003'O
        18 000440   000000 000021 xsym               BDSC    DD_DEL_COST,Q            by=0,bit=0,n=17
        18 000441   200167 000044                    BDSC    ACCUM_DEL_COST,,AUTO     by=0,bit=0,n=36

   8321 18 000442   200167 235100                    LDA     ACCUM_DEL_COST,,AUTO
        18 000443   200076 755100                    STA     LR+1,,AUTO

   8322 18 000444   200166 236100                    LDQ     ACCUM_DEL_LEN,,AUTO
        18 000445   200075 756100                    STQ     LR,,AUTO

   8323 18 000446   000002 235007                    LDA     2,DL
        18 000447   000131 755000 xsym               STA     O1COM+89

   8325 18 000450   400000 236003                    LDQ     -131072,DU
        18 000451   200165 756100                    STQ     LARGE_DELETION,,AUTO

   8328 18 000452   200172 221300                    LDX1  ! ACCUM_INS_TO_SYM+2,,AUTO
        18 000453   000001 702211                    TSX2  ! 1,X1

   8332 18 000454   204516 741300       ABORT_CORRE* STX1  ! PELEM+1,,AUTO

   8340 18 000455   000133 235000 xsym               LDA     O1COM+91
        18 000456   000003 735000                    ALS     3
        18 000457   000244 235005 xsym               LDA     O1COM+164,AL
        18 000460   000136 755000 xsym               STA     O1COM+94

   8341 18 000461   000133 236000 xsym               LDQ     O1COM+91
        18 000462   000003 736000                    QLS     3
        18 000463   000245 235006 xsym               LDA     O1COM+165,QL
        18 000464   000137 755000 xsym               STA     O1COM+95
PL6.E3A0      #001=Z8E3$ERROR_CORR_DD File=Z8E3.:Z8A6TSI                         SAT 08/09/97 11:28 Page:28

   8344 18 000465   000000 236000 19                 LDQ     0
        18 000466   000000 235000 19                 LDA     0
        18 000467   204522 757100                    STAQ    @PLUG1$,,AUTO
        18 000470   000011 236000 19                 LDQ     9
        18 000471   204521 756100                    STQ     @ERROR_TYPE,,AUTO
        18 000472   000005 701000 18                 TSX1    ERROR
        18 000473   000000 011000                    NOP     0

   8347 18 000474   000012 631400 19                 EPPR1   10
        18 000475   000000 701000 xent               TSX1    Z9AT$TERMINATOR
        18 000476   000000 011000                    NOP     0

   8351 18 000477   204516 221300                    LDX1  ! PELEM+1,,AUTO
        18 000500   000001 702211                    TSX2  ! 1,X1

   8353 18 000501   204126 741300       CALC_CORREC* STX1  ! J+2,,AUTO

   8372 18 000502   000152 450000 xsym               STZ     O1COM+106

   8373 18 000503   000153 450000 xsym               STZ     O1COM+107

   8375 18 000504   204130 450100                    STZ     I,,AUTO
        18 000505   000604 710000 18                 TRA     s:8386+1

   8376 18 000506   204130 235100                    LDA     I,,AUTO
        18 000507   000001 735000                    ALS     1
        18 000510   204127 470500                    LDP0    @LRC,,AUTO
        18 000511   000100 100505                    MLR     fill='000'O
        18 000512   000005 000002                    ADSC9   5,A,PR0                  cn=0,n=2
        18 000513   204526 000004                    ADSC9   NEWPLUG2$+1,,AUTO        cn=0,n=4
        18 000514   204526 236100                    LDQ     NEWPLUG2$+1,,AUTO
        18 000515   000022 732000                    QRS     18
        18 000516   000036 402007                    MPY     30,DL
        18 000517   000000 116003                    CMPQ    0,DU
        18 000520   000522 605000 18                 TPL     s:8376+12
        18 000521   000044 036003                    ADLQ    36,DU
PL6.E3A0      #001=Z8E3$ERROR_CORR_DD File=Z8E3.:Z8A6TSI                         SAT 08/09/97 11:28 Page:29
        18 000522   003100 061406                    CSR     bolr='003'O
        18 000523   000000 300012 xsym               BDSC    DD_LCS,Q                 by=1,bit=8,n=10
        18 000524   204131 000044                    BDSC    J,,AUTO                  by=0,bit=0,n=36
        18 000525   000540 710000 18                 TRA     s:8385+1

   8379 18 000526   000152 235000 xsym               LDA     O1COM+106
        18 000527   000144 115007                    CMPA    100,DL
        18 000530   000537 605000 18                 TPL     s:8385

   8381 18 000531   000001 735000                    ALS     1
        18 000532   204131 236100                    LDQ     J,,AUTO
        18 000533   000005 101406                    MRL     fill='000'O
        18 000534   000000 000001 xsym               ADSC9   DD_LCS_ELEM,Q            cn=0,n=1
        18 000535   000154 000002 xsym               ADSC9   O1COM+108,A              cn=0,n=2

   8382 18 000536   000152 054000 xsym               AOS     O1COM+106

   8385 18 000537   204131 054100                    AOS     J,,AUTO
        18 000540   204130 235100                    LDA     I,,AUTO
        18 000541   000001 735000                    ALS     1
        18 000542   204127 470500                    LDP0    @LRC,,AUTO
        18 000543   000100 100505                    MLR     fill='000'O
        18 000544   000005 000002                    ADSC9   5,A,PR0                  cn=0,n=2
        18 000545   204526 000004                    ADSC9   NEWPLUG2$+1,,AUTO        cn=0,n=4
        18 000546   204526 236100                    LDQ     NEWPLUG2$+1,,AUTO
        18 000547   000022 732000                    QRS     18
        18 000550   000036 402007                    MPY     30,DL
        18 000551   204130 235100                    LDA     I,,AUTO
        18 000552   000001 735000                    ALS     1
        18 000553   000100 100505                    MLR     fill='000'O
        18 000554   000005 000002                    ADSC9   5,A,PR0                  cn=0,n=2
        18 000555   204527 000004                    ADSC9   NEWPLUG2$+2,,AUTO        cn=0,n=4
        18 000556   204530 756100                    STQ     NEWPLUG2$+3,,AUTO
        18 000557   204527 236100                    LDQ     NEWPLUG2$+2,,AUTO
        18 000560   000022 732000                    QRS     18
        18 000561   000036 402007                    MPY     30,DL
        18 000562   000000 116003                    CMPQ    0,DU
PL6.E3A0      #001=Z8E3$ERROR_CORR_DD File=Z8E3.:Z8A6TSI                         SAT 08/09/97 11:28 Page:30
        18 000563   000565 605000 18                 TPL     s:8385+22
        18 000564   000044 036003                    ADLQ    36,DU
        18 000565   003100 061406                    CSR     bolr='003'O
        18 000566   000000 600003 xsym               BDSC    DD_LCS,Q                 by=3,bit=0,n=3
        18 000567   204531 000044                    BDSC    NEWPLUG2$+4,,AUTO        by=0,bit=0,n=36
        18 000570   204530 235100                    LDA     NEWPLUG2$+3,,AUTO
        18 000571   000573 605000 18                 TPL     s:8385+28
        18 000572   000044 035003                    ADLA    36,DU
        18 000573   003100 061405                    CSR     bolr='003'O
        18 000574   000000 300012 xsym               BDSC    DD_LCS,A                 by=1,bit=8,n=10
        18 000575   204532 000044                    BDSC    NEWPLUG2$+5,,AUTO        by=0,bit=0,n=36
        18 000576   204532 236100                    LDQ     NEWPLUG2$+5,,AUTO
        18 000577   204531 036100                    ADLQ    NEWPLUG2$+4,,AUTO
        18 000600   000526 604000 18                 TMI     s:8379
        18 000601   204131 116100                    CMPQ    J,,AUTO
        18 000602   000526 605400 18                 TPNZ    s:8379

   8386 18 000603   204130 054100                    AOS     I,,AUTO
        18 000604   204127 470500                    LDP0    @LRC,,AUTO
        18 000605   204130 236100                    LDQ     I,,AUTO
        18 000606   000003 116100                    CMPQ    3,,PR0
        18 000607   000506 604000 18                 TMI     s:8376

   8389 18 000610   204126 221300                    LDX1  ! J+2,,AUTO
        18 000611   000001 702211                    TSX2  ! 1,X1

   8391 18 000612   200172 741300       GIVE_CORREC* STX1  ! ACCUM_INS_TO_SYM+2,,AUTO
        18 000613   001361 710000 18                 TRA     s:8588

   8420 18 000614   200322 741300       PACK_TERM    STX1  ! I+3,,AUTO

   8436 18 000615   200323 470500                    LDP0    @DI,,AUTO
        18 000616   000000 235100                    LDA     0,,PR0
        18 000617   000144 115007                    CMPA    100,DL
        18 000620   000627 605000 18                 TPL     s:8442
        18 000621   000000 115003                    CMPA    0,DU
        18 000622   000627 604400 18                 TMOZ    s:8442
PL6.E3A0      #001=Z8E3$ERROR_CORR_DD File=Z8E3.:Z8A6TSI                         SAT 08/09/97 11:28 Page:31

   8438 18 000623   040105 100400                    MLR     fill='040'O
        18 000624   000013 000001 19                 ADSC9   11                       cn=0,n=1
        18 000625   000001 000001                    ADSC9   1,A,PR0                  cn=0,n=1

   8439 18 000626   000000 054100                    AOS     0,,PR0

   8442 18 000627   200325 471500                    LDP1    @PT_LEN,,AUTO
        18 000630   000144 236007                    LDQ     100,DL
        18 000631   000000 136100                    SBLQ    0,,PR0
        18 000632   100000 116100                    CMPQ    0,,PR1
        18 000633   000650 604000 18                 TMI     s:8448

   8444 18 000634   000000 235100                    LDA     0,,PR0
        18 000635   200326 473500                    LDP3    @PT_PTR,,AUTO
        18 000636   300000 474500                    LDP4    0,,PR3
        18 000637   100000 720100                    LXL0    0,,PR1
        18 000640   000000 621006                    EAX1    0,QL
        18 000641   040145 100540                    MLR     fill='040'O
        18 000642   400000 000010                    ADSC9   0,,PR4                   cn=0,n=*X0
        18 000643   000001 000011                    ADSC9   1,A,PR0                  cn=0,n=*X1

   8445 18 000644   000000 236100                    LDQ     0,,PR0
        18 000645   100000 036100                    ADLQ    0,,PR1
        18 000646   000000 756100                    STQ     0,,PR0

   8446 18 000647   000752 710000 18                 TRA     s:8471

   8448 18 000650   200324 473500                    LDP3    @DI_CHAR_OVERFLOW,,AUTO
        18 000651   300000 235100                    LDA     0,,PR3
        18 000652   000676 604400 18                 TMOZ    s:8455

   8450 18 000653   204526 755100                    STA     NEWPLUG2$+1,,AUTO
        18 000654   300000 235100                    LDA     0,,PR3
        18 000655   000014 675000 19                 ERA     12
        18 000656   000145 035007                    ADLA    101,DL
        18 000657   200326 474500                    LDP4    @PT_PTR,,AUTO
PL6.E3A0      #001=Z8E3$ERROR_CORR_DD File=Z8E3.:Z8A6TSI                         SAT 08/09/97 11:28 Page:32
        18 000660   400000 475500                    LDP5    0,,PR4
        18 000661   100000 720100                    LXL0    0,,PR1
        18 000662   000000 621005                    EAX1    0,AL
        18 000663   204526 235100                    LDA     NEWPLUG2$+1,,AUTO
        18 000664   040145 100540                    MLR     fill='040'O
        18 000665   500000 000010                    ADSC9   0,,PR5                   cn=0,n=*X0
        18 000666   000001 000011                    ADSC9   1,A,PR0                  cn=0,n=*X1

   8451 18 000667   300000 236100                    LDQ     0,,PR3
        18 000670   100000 036100                    ADLQ    0,,PR1
        18 000671   000144 116007                    CMPQ    100,DL
        18 000672   000674 604400 18                 TMOZ    s:8451+5
        18 000673   000144 236007                    LDQ     100,DL
        18 000674   000000 756100                    STQ     0,,PR0

   8453 18 000675   000752 710000 18                 TRA     s:8471

   8455 18 000676   000000 235100                    LDA     0,,PR0
        18 000677   000742 604400 18                 TMOZ    s:8467

   8457 18 000700   000000 236100                    LDQ     0,,PR0
        18 000701   000060 116007                    CMPQ    48,DL
        18 000702   000704 604400 18                 TMOZ    s:8457+4
        18 000703   000060 236007                    LDQ     48,DL
        18 000704   300000 756100                    STQ     0,,PR3

   8459 18 000705   300000 235100                    LDA     0,,PR3
        18 000706   000014 675000 19                 ERA     12
        18 000707   000145 035007                    ADLA    101,DL
        18 000710   000000 620005                    EAX0    0,AL
        18 000711   040146 100400                    MLR     fill='040'O
        18 000712   000000 000004 17                 ADSC9   0                        cn=0,n=4
        18 000713   000001 000010                    ADSC9   1,Q,PR0                  cn=0,n=*X0

   8460 18 000714   000004 236007                    LDQ     4,DL
        18 000715   300000 056100                    ASQ     0,,PR3

PL6.E3A0      #001=Z8E3$ERROR_CORR_DD File=Z8E3.:Z8A6TSI                         SAT 08/09/97 11:28 Page:33
   8461 18 000716   300000 235100                    LDA     0,,PR3
        18 000717   204526 755100                    STA     NEWPLUG2$+1,,AUTO
        18 000720   300000 235100                    LDA     0,,PR3
        18 000721   000014 675000 19                 ERA     12
        18 000722   000145 035007                    ADLA    101,DL
        18 000723   200326 474500                    LDP4    @PT_PTR,,AUTO
        18 000724   400000 475500                    LDP5    0,,PR4
        18 000725   100000 720100                    LXL0    0,,PR1
        18 000726   000000 621005                    EAX1    0,AL
        18 000727   204526 235100                    LDA     NEWPLUG2$+1,,AUTO
        18 000730   040145 100540                    MLR     fill='040'O
        18 000731   500000 000010                    ADSC9   0,,PR5                   cn=0,n=*X0
        18 000732   000001 000011                    ADSC9   1,A,PR0                  cn=0,n=*X1

   8462 18 000733   300000 236100                    LDQ     0,,PR3
        18 000734   100000 036100                    ADLQ    0,,PR1
        18 000735   000144 116007                    CMPQ    100,DL
        18 000736   000740 604400 18                 TMOZ    s:8462+5
        18 000737   000144 236007                    LDQ     100,DL
        18 000740   000000 756100                    STQ     0,,PR0

   8464 18 000741   000752 710000 18                 TRA     s:8471

   8467 18 000742   000144 235007                    LDA     100,DL
        18 000743   000000 755100                    STA     0,,PR0

   8468 18 000744   200326 474500                    LDP4    @PT_PTR,,AUTO
        18 000745   400000 475500                    LDP5    0,,PR4
        18 000746   100000 720100                    LXL0    0,,PR1
        18 000747   040100 100540                    MLR     fill='040'O
        18 000750   500000 000010                    ADSC9   0,,PR5                   cn=0,n=*X0
        18 000751   000001 000144                    ADSC9   1,,PR0                   cn=0,n=100

   8471 18 000752   200322 221300                    LDX1  ! I+3,,AUTO
        18 000753   000001 702211                    TSX2  ! 1,X1

   8476 18 000754   200316 741300       CREATE_DEL_* STX1  ! INS_BEF_DNT$+1,,AUTO
PL6.E3A0      #001=Z8E3$ERROR_CORR_DD File=Z8E3.:Z8A6TSI                         SAT 08/09/97 11:28 Page:34
        18 000755   001070 710000 18                 TRA     s:8504

   8484 18 000756   200320 741300       PACK_DEL_TE* STX1  ! I+1,,AUTO

   8487 18 000757   000133 235000 xsym               LDA     O1COM+91
        18 000760   000003 735000                    ALS     3
        18 000761   000241 236005 xsym               LDQ     O1COM+161,AL
        18 000762   000000 116000 19                 CMPQ    0
        18 000763   001044 601000 18                 TNZ     s:8493

   8491 18 000764   000242 236005 xsym               LDQ     O1COM+162,AL
        18 000765   000021 402007                    MPY     17,DL
        18 000766   000000 116003                    CMPQ    0,DU
        18 000767   000771 605000 18                 TPL     s:8491+5
        18 000770   000044 036003                    ADLQ    36,DU
        18 000771   003100 061406                    CSR     bolr='003'O
        18 000772   000000 230005 xsym               BDSC    DD_TERM_STRING,Q         by=1,bit=3,n=5
        18 000773   204526 000044                    BDSC    NEWPLUG2$+1,,AUTO        by=0,bit=0,n=36
        18 000774   204526 236100                    LDQ     NEWPLUG2$+1,,AUTO
        18 000775   000133 235000 xsym               LDA     O1COM+91
        18 000776   000003 735000                    ALS     3
        18 000777   204527 756100                    STQ     NEWPLUG2$+2,,AUTO
        18 001000   000242 236005 xsym               LDQ     O1COM+162,AL
        18 001001   000021 402007                    MPY     17,DL
        18 001002   204531 756100                    STQ     NEWPLUG2$+4,,AUTO
        18 001003   000000 116003                    CMPQ    0,DU
        18 001004   001006 605000 18                 TPL     s:8491+18
        18 001005   000044 036003                    ADLQ    36,DU
        18 001006   003100 061406                    CSR     bolr='003'O
        18 001007   000000 000014 xsym               BDSC    DD_TERM_STRING,Q         by=0,bit=0,n=12
        18 001010   204530 000044                    BDSC    NEWPLUG2$+3,,AUTO        by=0,bit=0,n=36
        18 001011   204530 236100                    LDQ     NEWPLUG2$+3,,AUTO
        18 001012   204531 235100                    LDA     NEWPLUG2$+4,,AUTO
        18 001013   001015 605000 18                 TPL     s:8491+25
        18 001014   000044 035003                    ADLA    36,DU
        18 001015   003100 061405                    CSR     bolr='003'O
        18 001016   000000 000014 xsym               BDSC    DD_TERM_STRING,A         by=0,bit=0,n=12
PL6.E3A0      #001=Z8E3$ERROR_CORR_DD File=Z8E3.:Z8A6TSI                         SAT 08/09/97 11:28 Page:35
        18 001017   204532 000022                    BDSC    NEWPLUG2$+5,,AUTO        by=0,bit=0,n=18
        18 001020   006060 220003                    LDX0    3120,DU
        18 001021   204532 120100                    SBLX0   NEWPLUG2$+5,,AUTO
        18 001022   204533 756100                    STQ     NEWPLUG2$+6,,AUTO
        18 001023   204527 236100                    LDQ     NEWPLUG2$+2,,AUTO
        18 001024   204536 756100                    STQ     NEWPLUG2$+9,,AUTO
        18 001025   204533 236100                    LDQ     NEWPLUG2$+6,,AUTO
        18 001026   000020 736000                    QLS     16
        18 001027   000015 036000 19                 ADLQ    13
        18 001030   204540 756100                    STQ     NEWPLUG2$+11,,AUTO
        18 001031   204540 630500                    EPPR0   NEWPLUG2$+11,,AUTO
        18 001032   200326 450500                    STP0    @PT_PTR,,AUTO
        18 001033   204536 631500                    EPPR1   NEWPLUG2$+9,,AUTO
        18 001034   200325 451500                    STP1    @PT_LEN,,AUTO
        18 001035   200173 633500                    EPPR3   DEL_CHAR_OVERFLOW,,AUTO
        18 001036   200324 453500                    STP3    @DI_CHAR_OVERFLOW,,AUTO
        18 001037   200174 634500                    EPPR4   DEL,,AUTO
        18 001040   200323 454500                    STP4    @DI,,AUTO
        18 001041   000614 701000 18                 TSX1    PACK_TERM
        18 001042   000000 011000                    NOP     0
        18 001043   001066 710000 18                 TRA     s:8499

   8493 18 001044   000241 470405 xsym               LDP0    O1COM+161,AL
        18 001045   000004 236100                    LDQ     4,,PR0
        18 001046   000022 772000                    QRL     18
        18 001047   204542 756100                    STQ     NEWPLUG2$+13,,AUTO
        18 001050   204526 450500                    STP0    NEWPLUG2$+1,,AUTO
        18 001051   204526 236100                    LDQ     NEWPLUG2$+1,,AUTO
        18 001052   000016 036000 19                 ADLQ    14
        18 001053   204544 756100                    STQ     NEWPLUG2$+15,,AUTO
        18 001054   204544 631500                    EPPR1   NEWPLUG2$+15,,AUTO
        18 001055   200326 451500                    STP1    @PT_PTR,,AUTO
        18 001056   204542 633500                    EPPR3   NEWPLUG2$+13,,AUTO
        18 001057   200325 453500                    STP3    @PT_LEN,,AUTO
        18 001060   200173 634500                    EPPR4   DEL_CHAR_OVERFLOW,,AUTO
        18 001061   200324 454500                    STP4    @DI_CHAR_OVERFLOW,,AUTO
        18 001062   200174 635500                    EPPR5   DEL,,AUTO
PL6.E3A0      #001=Z8E3$ERROR_CORR_DD File=Z8E3.:Z8A6TSI                         SAT 08/09/97 11:28 Page:36
        18 001063   200323 455500                    STP5    @DI,,AUTO
        18 001064   000614 701000 18                 TSX1    PACK_TERM
        18 001065   000000 011000                    NOP     0

   8499 18 001066   200320 221300                    LDX1  ! I+1,,AUTO
        18 001067   000001 702211                    TSX2  ! 1,X1

   8504 18 001070   000000 236000 19                 LDQ     0
        18 001071   200313 756100                    STQ     DEL_DNT$,,AUTO

   8505 18 001072   200174 450100                    STZ     DEL,,AUTO

   8506 18 001073   200173 450100                    STZ     DEL_CHAR_OVERFLOW,,AUTO

   8508 18 001074   200005 235100                    LDA     LC,,AUTO
        18 001075   001147 604400 18                 TMOZ    s:8535

   8510 18 001076   200165 234100                    SZN     LARGE_DELETION,,AUTO
        18 001077   001127 605000 18                 TPL     s:8522

   8512 18 001100   000756 701000 18                 TSX1    PACK_DEL_TERM
        18 001101   000000 011000                    NOP     0

   8513 18 001102   000020 236000 19                 LDQ     16
        18 001103   204545 756100                    STQ     NEWPLUG2$+16,,AUTO
        18 001104   204545 630500                    EPPR0   NEWPLUG2$+16,,AUTO
        18 001105   200326 450500                    STP0    @PT_PTR,,AUTO
        18 001106   000021 236000 19                 LDQ     17
        18 001107   200325 756100                    STQ     @PT_LEN,,AUTO
        18 001110   200173 631500                    EPPR1   DEL_CHAR_OVERFLOW,,AUTO
        18 001111   200324 451500                    STP1    @DI_CHAR_OVERFLOW,,AUTO
        18 001112   200174 633500                    EPPR3   DEL,,AUTO
        18 001113   200323 453500                    STP3    @DI,,AUTO
        18 001114   000614 701000 18                 TSX1    PACK_TERM
        18 001115   000000 011000                    NOP     0

   8517 18 001116   200174 235100                    LDA     DEL,,AUTO
PL6.E3A0      #001=Z8E3$ERROR_CORR_DD File=Z8E3.:Z8A6TSI                         SAT 08/09/97 11:28 Page:37
        18 001117   200173 755100                    STA     DEL_CHAR_OVERFLOW,,AUTO

   8518 18 001120   000133 236000 xsym               LDQ     O1COM+91
        18 001121   000003 736000                    QLS     3
        18 001122   000246 235006 xsym               LDA     O1COM+166,QL
        18 001123   000133 755000 xsym               STA     O1COM+91

   8519 18 001124   000001 336007                    LCQ     1,DL
        18 001125   000131 056000 xsym               ASQ     O1COM+89

   8520 18 001126   200005 056100                    ASQ     LC,,AUTO

   8522 18 001127   200005 235100                    LDA     LC,,AUTO
        18 001130   001143 604400 18                 TMOZ    s:8529

   8523 18 001131   000756 701000 18                 TSX1    PACK_DEL_TERM
        18 001132   000000 011000                    NOP     0

   8524 18 001133   000133 235000 xsym               LDA     O1COM+91
        18 001134   000003 735000                    ALS     3
        18 001135   000246 235005 xsym               LDA     O1COM+166,AL
        18 001136   000133 755000 xsym               STA     O1COM+91

   8525 18 001137   000001 336007                    LCQ     1,DL
        18 001140   000131 056000 xsym               ASQ     O1COM+89

   8526 18 001141   200005 056100                    ASQ     LC,,AUTO

   8527 18 001142   001131 605400 18                 TPNZ    s:8523

   8529 18 001143   200174 235100                    LDA     DEL,,AUTO
        18 001144   001147 604400 18                 TMOZ    s:8535

   8531 18 001145   200174 630500                    EPPR0   DEL,,AUTO
        18 001146   200313 450500                    STP0    DEL_DNT$,,AUTO

   8535 18 001147   200316 221300                    LDX1  ! INS_BEF_DNT$+1,,AUTO
PL6.E3A0      #001=Z8E3$ERROR_CORR_DD File=Z8E3.:Z8A6TSI                         SAT 08/09/97 11:28 Page:38
        18 001150   000001 702211                    TSX2  ! 1,X1

   8539 18 001151   200316 741300       CREATE_INS_* STX1  ! INS_BEF_DNT$+1,,AUTO

   8546 18 001152   000000 236000 19                 LDQ     0
        18 001153   200314 756100                    STQ     INS_DNT$,,AUTO

   8547 18 001154   200315 756100                    STQ     INS_BEF_DNT$,,AUTO

   8548 18 001155   200227 450100                    STZ     INS,,AUTO

   8549 18 001156   200226 450100                    STZ     INS_CHAR_OVERFLOW,,AUTO

   8551 18 001157   000152 235000 xsym               LDA     O1COM+106
        18 001160   001357 604400 18                 TMOZ    s:8580

   8553 18 001161   200317 450100                    STZ     I,,AUTO
        18 001162   001255 710000 18                 TRA     s:8558+1

   8554 18 001163   200317 235100                    LDA     I,,AUTO
        18 001164   000001 735000                    ALS     1
        18 001165   000100 100405                    MLR     fill='000'O
        18 001166   000154 000002 xsym               ADSC9   O1COM+108,A              cn=0,n=2
        18 001167   204526 000004                    ADSC9   NEWPLUG2$+1,,AUTO        cn=0,n=4
        18 001170   204526 236100                    LDQ     NEWPLUG2$+1,,AUTO
        18 001171   000022 732000                    QRS     18
        18 001172   000021 402007                    MPY     17,DL
        18 001173   000000 116003                    CMPQ    0,DU
        18 001174   001176 605000 18                 TPL     s:8554+11
        18 001175   000044 036003                    ADLQ    36,DU
        18 001176   003100 061406                    CSR     bolr='003'O
        18 001177   000000 230005 xsym               BDSC    DD_TERM_STRING,Q         by=1,bit=3,n=5
        18 001200   204527 000044                    BDSC    NEWPLUG2$+2,,AUTO        by=0,bit=0,n=36
        18 001201   204527 236100                    LDQ     NEWPLUG2$+2,,AUTO
        18 001202   200317 235100                    LDA     I,,AUTO
        18 001203   000001 735000                    ALS     1
        18 001204   000100 100405                    MLR     fill='000'O
PL6.E3A0      #001=Z8E3$ERROR_CORR_DD File=Z8E3.:Z8A6TSI                         SAT 08/09/97 11:28 Page:39
        18 001205   000154 000002 xsym               ADSC9   O1COM+108,A              cn=0,n=2
        18 001206   204530 000004                    ADSC9   NEWPLUG2$+3,,AUTO        cn=0,n=4
        18 001207   204531 756100                    STQ     NEWPLUG2$+4,,AUTO
        18 001210   204530 236100                    LDQ     NEWPLUG2$+3,,AUTO
        18 001211   000022 732000                    QRS     18
        18 001212   000021 402007                    MPY     17,DL
        18 001213   204533 756100                    STQ     NEWPLUG2$+6,,AUTO
        18 001214   000000 116003                    CMPQ    0,DU
        18 001215   001217 605000 18                 TPL     s:8554+28
        18 001216   000044 036003                    ADLQ    36,DU
        18 001217   003100 061406                    CSR     bolr='003'O
        18 001220   000000 000014 xsym               BDSC    DD_TERM_STRING,Q         by=0,bit=0,n=12
        18 001221   204532 000044                    BDSC    NEWPLUG2$+5,,AUTO        by=0,bit=0,n=36
        18 001222   204532 236100                    LDQ     NEWPLUG2$+5,,AUTO
        18 001223   204533 235100                    LDA     NEWPLUG2$+6,,AUTO
        18 001224   001226 605000 18                 TPL     s:8554+35
        18 001225   000044 035003                    ADLA    36,DU
        18 001226   003100 061405                    CSR     bolr='003'O
        18 001227   000000 000014 xsym               BDSC    DD_TERM_STRING,A         by=0,bit=0,n=12
        18 001230   204534 000022                    BDSC    NEWPLUG2$+7,,AUTO        by=0,bit=0,n=18
        18 001231   006060 220003                    LDX0    3120,DU
        18 001232   204534 120100                    SBLX0   NEWPLUG2$+7,,AUTO
        18 001233   204535 756100                    STQ     NEWPLUG2$+8,,AUTO
        18 001234   204531 236100                    LDQ     NEWPLUG2$+4,,AUTO
        18 001235   204546 756100                    STQ     NEWPLUG2$+17,,AUTO
        18 001236   204535 236100                    LDQ     NEWPLUG2$+8,,AUTO
        18 001237   000020 736000                    QLS     16
        18 001240   000015 036000 19                 ADLQ    13
        18 001241   204550 756100                    STQ     NEWPLUG2$+19,,AUTO
        18 001242   204550 630500                    EPPR0   NEWPLUG2$+19,,AUTO
        18 001243   200326 450500                    STP0    @PT_PTR,,AUTO
        18 001244   204546 631500                    EPPR1   NEWPLUG2$+17,,AUTO
        18 001245   200325 451500                    STP1    @PT_LEN,,AUTO
        18 001246   200226 633500                    EPPR3   INS_CHAR_OVERFLOW,,AUTO
        18 001247   200324 453500                    STP3    @DI_CHAR_OVERFLOW,,AUTO
        18 001250   200227 634500                    EPPR4   INS,,AUTO
        18 001251   200323 454500                    STP4    @DI,,AUTO
PL6.E3A0      #001=Z8E3$ERROR_CORR_DD File=Z8E3.:Z8A6TSI                         SAT 08/09/97 11:28 Page:40
        18 001252   000614 701000 18                 TSX1    PACK_TERM
        18 001253   000000 011000                    NOP     0

   8558 18 001254   200317 054100                    AOS     I,,AUTO
        18 001255   200317 236100                    LDQ     I,,AUTO
        18 001256   000152 116000 xsym               CMPQ    O1COM+106
        18 001257   001163 604000 18                 TMI     s:8554

   8560 18 001260   200227 235100                    LDA     INS,,AUTO
        18 001261   001264 604400 18                 TMOZ    s:8564

   8562 18 001262   200227 630500                    EPPR0   INS,,AUTO
        18 001263   200314 450500                    STP0    INS_DNT$,,AUTO

   8564 18 001264   000133 235000 xsym               LDA     O1COM+91
        18 001265   000003 735000                    ALS     3
        18 001266   000241 236005 xsym               LDQ     O1COM+161,AL
        18 001267   000000 116000 19                 CMPQ    0
        18 001270   001341 601000 18                 TNZ     s:8572

   8566 18 001271   000242 236005 xsym               LDQ     O1COM+162,AL
        18 001272   000021 402007                    MPY     17,DL
        18 001273   000000 116003                    CMPQ    0,DU
        18 001274   001276 605000 18                 TPL     s:8566+5
        18 001275   000044 036003                    ADLQ    36,DU
        18 001276   003100 061406                    CSR     bolr='003'O
        18 001277   000000 230005 xsym               BDSC    DD_TERM_STRING,Q         by=1,bit=3,n=5
        18 001300   204526 000044                    BDSC    NEWPLUG2$+1,,AUTO        by=0,bit=0,n=36
        18 001301   204526 236100                    LDQ     NEWPLUG2$+1,,AUTO
        18 001302   000144 116007                    CMPQ    100,DL
        18 001303   001306 602000 18                 TNC     s:8566+13
        18 001304   001306 600000 18                 TZE     s:8566+13
        18 001305   000144 236007                    LDQ     100,DL
        18 001306   200261 756100                    STQ     BEF,,AUTO

   8567 18 001307   000133 235000 xsym               LDA     O1COM+91
        18 001310   000003 735000                    ALS     3
PL6.E3A0      #001=Z8E3$ERROR_CORR_DD File=Z8E3.:Z8A6TSI                         SAT 08/09/97 11:28 Page:41
        18 001311   000242 236005 xsym               LDQ     O1COM+162,AL
        18 001312   000021 402007                    MPY     17,DL
        18 001313   204527 756100                    STQ     NEWPLUG2$+2,,AUTO
        18 001314   000000 116003                    CMPQ    0,DU
        18 001315   001317 605000 18                 TPL     s:8567+8
        18 001316   000044 036003                    ADLQ    36,DU
        18 001317   003100 061406                    CSR     bolr='003'O
        18 001320   000000 000014 xsym               BDSC    DD_TERM_STRING,Q         by=0,bit=0,n=12
        18 001321   204526 000044                    BDSC    NEWPLUG2$+1,,AUTO        by=0,bit=0,n=36
        18 001322   204526 236100                    LDQ     NEWPLUG2$+1,,AUTO
        18 001323   204527 235100                    LDA     NEWPLUG2$+2,,AUTO
        18 001324   001326 605000 18                 TPL     s:8567+15
        18 001325   000044 035003                    ADLA    36,DU
        18 001326   003100 061405                    CSR     bolr='003'O
        18 001327   000000 000014 xsym               BDSC    DD_TERM_STRING,A         by=0,bit=0,n=12
        18 001330   204530 000022                    BDSC    NEWPLUG2$+3,,AUTO        by=0,bit=0,n=18
        18 001331   006060 220003                    LDX0    3120,DU
        18 001332   204530 120100                    SBLX0   NEWPLUG2$+3,,AUTO
        18 001333   040100 100446                    MLR     fill='040'O
        18 001334   000000 000010 xsym               ADSC9   DD_TSTRING_SPACE,Q       cn=0,n=*X0
        18 001335   200262 000144                    ADSC9   BEF+1,,AUTO              cn=0,n=100

   8568 18 001336   200261 630500                    EPPR0   BEF,,AUTO
        18 001337   200315 450500                    STP0    INS_BEF_DNT$,,AUTO

   8569 18 001340   001357 710000 18                 TRA     s:8580

   8572 18 001341   000241 470405 xsym               LDP0    O1COM+161,AL
        18 001342   000004 236100                    LDQ     4,,PR0
        18 001343   000022 772000                    QRL     18
        18 001344   000144 116007                    CMPQ    100,DL
        18 001345   001350 602000 18                 TNC     s:8572+7
        18 001346   001350 600000 18                 TZE     s:8572+7
        18 001347   000144 236007                    LDQ     100,DL
        18 001350   200261 756100                    STQ     BEF,,AUTO

   8574 18 001351   000004 220100                    LDX0    4,,PR0
PL6.E3A0      #001=Z8E3$ERROR_CORR_DD File=Z8E3.:Z8A6TSI                         SAT 08/09/97 11:28 Page:42
        18 001352   040100 100540                    MLR     fill='040'O
        18 001353   000004 400010                    ADSC9   4,,PR0                   cn=2,n=*X0
        18 001354   200262 000144                    ADSC9   BEF+1,,AUTO              cn=0,n=100

   8575 18 001355   200261 631500                    EPPR1   BEF,,AUTO
        18 001356   200315 451500                    STP1    INS_BEF_DNT$,,AUTO

   8580 18 001357   200316 221300                    LDX1  ! INS_BEF_DNT$+1,,AUTO
        18 001360   000001 702211                    TSX2  ! 1,X1

   8588 18 001361   000133 235000 xsym               LDA     O1COM+91
        18 001362   000003 735000                    ALS     3
        18 001363   000244 235005 xsym               LDA     O1COM+164,AL
        18 001364   000136 755000 xsym               STA     O1COM+94

   8589 18 001365   000133 236000 xsym               LDQ     O1COM+91
        18 001366   000003 736000                    QLS     3
        18 001367   000245 235006 xsym               LDA     O1COM+165,QL
        18 001370   000137 755000 xsym               STA     O1COM+95

   8593 18 001371   200005 630500                    EPPR0   LC,,AUTO
        18 001372   204127 450500                    STP0    @LRC,,AUTO
        18 001373   000501 701000 18                 TSX1    CALC_CORRECTION
        18 001374   000000 011000                    NOP     0

   8594 18 001375   000754 701000 18                 TSX1    CREATE_DEL_DNT
        18 001376   000000 011000                    NOP     0

   8595 18 001377   001151 701000 18                 TSX1    CREATE_INS_DNT
        18 001400   000000 011000                    NOP     0

   8597 18 001401   200313 236100                    LDQ     DEL_DNT$,,AUTO
        18 001402   000000 116000 19                 CMPQ    0
        18 001403   001415 601000 18                 TNZ     s:8600

   8598 18 001404   200315 630500                    EPPR0   INS_BEF_DNT$,,AUTO
        18 001405   204523 450500                    STP0    @PLUG2$,,AUTO
PL6.E3A0      #001=Z8E3$ERROR_CORR_DD File=Z8E3.:Z8A6TSI                         SAT 08/09/97 11:28 Page:43
        18 001406   200314 631500                    EPPR1   INS_DNT$,,AUTO
        18 001407   204522 451500                    STP1    @PLUG1$,,AUTO
        18 001410   000023 236000 19                 LDQ     19
        18 001411   204521 756100                    STQ     @ERROR_TYPE,,AUTO
        18 001412   000005 701000 18                 TSX1    ERROR
        18 001413   000000 011000                    NOP     0
        18 001414   001441 710000 18                 TRA     s:8605

   8600 18 001415   200314 236100                    LDQ     INS_DNT$,,AUTO
        18 001416   000000 116000 19                 CMPQ    0
        18 001417   001431 601000 18                 TNZ     s:8603

   8601 18 001420   000000 236000 19                 LDQ     0
        18 001421   204523 756100                    STQ     @PLUG2$,,AUTO
        18 001422   200313 630500                    EPPR0   DEL_DNT$,,AUTO
        18 001423   204522 450500                    STP0    @PLUG1$,,AUTO
        18 001424   000025 236000 19                 LDQ     21
        18 001425   204521 756100                    STQ     @ERROR_TYPE,,AUTO
        18 001426   000005 701000 18                 TSX1    ERROR
        18 001427   000000 011000                    NOP     0
        18 001430   001441 710000 18                 TRA     s:8605

   8603 18 001431   200314 630500                    EPPR0   INS_DNT$,,AUTO
        18 001432   204523 450500                    STP0    @PLUG2$,,AUTO
        18 001433   200313 631500                    EPPR1   DEL_DNT$,,AUTO
        18 001434   204522 451500                    STP1    @PLUG1$,,AUTO
        18 001435   000027 236000 19                 LDQ     23
        18 001436   204521 756100                    STQ     @ERROR_TYPE,,AUTO
        18 001437   000005 701000 18                 TSX1    ERROR
        18 001440   000000 011000                    NOP     0

   8605 18 001441   000152 235000 xsym               LDA     O1COM+106
        18 001442   001454 604400 18                 TMOZ    s:8614

   8607 18 001443   000133 236000 xsym               LDQ     O1COM+91
        18 001444   000140 756000 xsym               STQ     O1COM+96

PL6.E3A0      #001=Z8E3$ERROR_CORR_DD File=Z8E3.:Z8A6TSI                         SAT 08/09/97 11:28 Page:44
   8608 18 001445   000132 235000 xsym               LDA     O1COM+90
        18 001446   000141 755000 xsym               STA     O1COM+97

   8609 18 001447   000131 235000 xsym               LDA     O1COM+89
        18 001450   000142 755000 xsym               STA     O1COM+98

   8610 18 001451   000131 450000 xsym               STZ     O1COM+89

   8611 18 001452   000132 235000 xsym               LDA     O1COM+90
        18 001453   000133 755000 xsym               STA     O1COM+91

   8614 18 001454   200172 221300                    LDX1  ! ACCUM_INS_TO_SYM+2,,AUTO
        18 001455   000001 702211                    TSX2  ! 1,X1

   8617 18 001456   200172 741300       CHECK_CONTE* STX1  ! ACCUM_INS_TO_SYM+2,,AUTO
        18 001457   002006 710000 18                 TRA     s:8811

   8647 18 001460   204122 741300       GET_CONTEXT  STX1  ! NT+2,,AUTO

   8649 18 001461   001477 710000 18                 TRA     s:8660

   8654 18 001462   000012 631400 19                 EPPR1   10
        18 001463   000000 701000 xent               TSX1    Z8EL$LEX
        18 001464   000000 011000                    NOP     0

   8656 18 001465   000132 235000 xsym               LDA     O1COM+90
        18 001466   000003 735000                    ALS     3
        18 001467   000246 235005 xsym               LDA     O1COM+166,AL
        18 001470   000132 755000 xsym               STA     O1COM+90

   8657 18 001471   000131 236000 xsym               LDQ     O1COM+89
        18 001472   000106 116007                    CMPQ    70,DL
        18 001473   001476 604400 18                 TMOZ    s:8659

   8658 18 001474   000454 701000 18                 TSX1    ABORT_CORRECTION
        18 001475   000000 011000                    NOP     0

PL6.E3A0      #001=Z8E3$ERROR_CORR_DD File=Z8E3.:Z8A6TSI                         SAT 08/09/97 11:28 Page:45
   8659 18 001476   000131 054000 xsym               AOS     O1COM+89

   8660 18 001477   000131 236000 xsym               LDQ     O1COM+89
        18 001500   000002 136007                    SBLQ    2,DL
        18 001501   200075 116100                    CMPQ    LR,,AUTO
        18 001502   001462 604000 18                 TMI     s:8654

   8662 18 001503   204122 221300                    LDX1  ! NT+2,,AUTO
        18 001504   000001 702211                    TSX2  ! 1,X1

   8665 18 001505   204122 741300       SAVE_STATE   STX1  ! NT+2,,AUTO

   8667 18 001506   017504 220003                    LDX0    8004,DU
        18 001507   000140 100440                    MLR     fill='000'O
        18 001510   001364 000010 xsym               ADSC9   O1COM+756                cn=0,n=*X0
        18 001511   200173 000010                    ADSC9   PS,,AUTO                 cn=0,n=*X0

   8668 18 001512   000135 235000 xsym               LDA     O1COM+93
        18 001513   204114 755100                    STA     PS_IDX,,AUTO

   8669 18 001514   000130 236000 xsym               LDQ     O1COM+88
        18 001515   204115 756100                    STQ     PSTATE,,AUTO

   8670 18 001516   000133 235000 xsym               LDA     O1COM+91
        18 001517   000140 755000 xsym               STA     O1COM+96

   8671 18 001520   000132 235000 xsym               LDA     O1COM+90
        18 001521   000141 755000 xsym               STA     O1COM+97

   8672 18 001522   000131 235000 xsym               LDA     O1COM+89
        18 001523   000142 755000 xsym               STA     O1COM+98

   8674 18 001524   000001 702211                    TSX2  ! 1,X1

   8677 18 001525   204122 741300       RESTORE_STA* STX1  ! NT+2,,AUTO

   8679 18 001526   000142 235000 xsym               LDA     O1COM+98
PL6.E3A0      #001=Z8E3$ERROR_CORR_DD File=Z8E3.:Z8A6TSI                         SAT 08/09/97 11:28 Page:46
        18 001527   000131 755000 xsym               STA     O1COM+89

   8680 18 001530   000140 236000 xsym               LDQ     O1COM+96
        18 001531   000133 756000 xsym               STQ     O1COM+91

   8681 18 001532   000141 235000 xsym               LDA     O1COM+97
        18 001533   000132 755000 xsym               STA     O1COM+90

   8682 18 001534   017504 220003                    LDX0    8004,DU
        18 001535   000040 100540                    MLR     fill='000'O
        18 001536   200173 000010                    ADSC9   PS,,AUTO                 cn=0,n=*X0
        18 001537   001364 000010 xsym               ADSC9   O1COM+756                cn=0,n=*X0

   8683 18 001540   204114 235100                    LDA     PS_IDX,,AUTO
        18 001541   000135 755000 xsym               STA     O1COM+93

   8684 18 001542   204115 235100                    LDA     PSTATE,,AUTO
        18 001543   000130 755000 xsym               STA     O1COM+88

   8685 18 001544   000152 450000 xsym               STZ     O1COM+106

   8686 18 001545   000153 450000 xsym               STZ     O1COM+107

   8688 18 001546   000001 702211                    TSX2  ! 1,X1

   8691 18 001547   204122 741300       BUILD_LOOKA* STX1  ! NT+2,,AUTO

   8696 18 001550   200075 630500                    EPPR0   LR,,AUTO
        18 001551   204127 450500                    STP0    @LRC,,AUTO
        18 001552   000501 701000 18                 TSX1    CALC_CORRECTION
        18 001553   000000 011000                    NOP     0

   8698 18 001554   000152 235000 xsym               LDA     O1COM+106
        18 001555   001562 604400 18                 TMOZ    s:8705

   8700 18 001556   000131 450000 xsym               STZ     O1COM+89

PL6.E3A0      #001=Z8E3$ERROR_CORR_DD File=Z8E3.:Z8A6TSI                         SAT 08/09/97 11:28 Page:47
   8701 18 001557   000132 236000 xsym               LDQ     O1COM+90
        18 001560   000133 756000 xsym               STQ     O1COM+91

   8702 18 001561   001567 710000 18                 TRA     s:8709

   8705 18 001562   000142 236000 xsym               LDQ     O1COM+98
        18 001563   200075 136100                    SBLQ    LR,,AUTO
        18 001564   000131 756000 xsym               STQ     O1COM+89

   8706 18 001565   200077 235100                    LDA     LR+2,,AUTO
        18 001566   000133 755000 xsym               STA     O1COM+91

   8709 18 001567   204122 221300                    LDX1  ! NT+2,,AUTO
        18 001570   000001 702211                    TSX2  ! 1,X1

   8712 18 001571   204122 741300       TRAIL_PARSE  STX1  ! NT+2,,AUTO

   8716 18 001572   000130 720000 xsym               LXL0    O1COM+88
        18 001573   000000 721010 xsym               LXL1    DD_ACTION_COL,X0
        18 001574   001601 601000 18                 TNZ     s:8720

   8717 18 001575   000000 236010 xsym               LDQ     DD_ACTION_COL,X0
        18 001576   000022 732000                    QRS     18
        18 001577   204117 756100                    STQ     ACTION,,AUTO
        18 001600   001665 710000 18                 TRA     s:8749

   8720 18 001601   000131 235000 xsym               LDA     O1COM+89
        18 001602   001641 605400 18                 TPNZ    s:8738

   8721 18 001603   000152 236000 xsym               LDQ     O1COM+106
        18 001604   001607 601000 18                 TNZ     s:8724
        18 001605   000153 235000 xsym               LDA     O1COM+107
        18 001606   002004 600000 18                 TZE     CORRECT_PARSE

   8724 18 001607   000000 116003                    CMPQ    0,DU
        18 001610   001633 604400 18                 TMOZ    s:8734

PL6.E3A0      #001=Z8E3$ERROR_CORR_DD File=Z8E3.:Z8A6TSI                         SAT 08/09/97 11:28 Page:48
   8726 18 001611   000132 235000 xsym               LDA     O1COM+90
        18 001612   000133 755000 xsym               STA     O1COM+91

   8727 18 001613   000001 235007                    LDA     1,DL
        18 001614   000131 755000 xsym               STA     O1COM+89

   8728 18 001615   000133 235000 xsym               LDA     O1COM+91
        18 001616   000003 735000                    ALS     3
        18 001617   000153 236000 xsym               LDQ     O1COM+107
        18 001620   000001 736000                    QLS     1
        18 001621   000100 100406                    MLR     fill='000'O
        18 001622   000154 000002 xsym               ADSC9   O1COM+108,Q              cn=0,n=2
        18 001623   204526 000004                    ADSC9   NEWPLUG2$+1,,AUTO        cn=0,n=4
        18 001624   204526 236100                    LDQ     NEWPLUG2$+1,,AUTO
        18 001625   000022 732000                    QRS     18
        18 001626   000242 756005 xsym               STQ     O1COM+162,AL

   8729 18 001627   000001 336007                    LCQ     1,DL
        18 001630   000152 056000 xsym               ASQ     O1COM+106

   8730 18 001631   000153 054000 xsym               AOS     O1COM+107

   8731 18 001632   001641 710000 18                 TRA     s:8738

   8734 18 001633   000153 450000 xsym               STZ     O1COM+107

   8735 18 001634   000142 236000 xsym               LDQ     O1COM+98
        18 001635   200075 136100                    SBLQ    LR,,AUTO
        18 001636   000131 756000 xsym               STQ     O1COM+89

   8736 18 001637   200077 235100                    LDA     LR+2,,AUTO
        18 001640   000133 755000 xsym               STA     O1COM+91

   8738 18 001641   000133 235000 xsym               LDA     O1COM+91
        18 001642   000003 735000                    ALS     3
        18 001643   000130 720000 xsym               LXL0    O1COM+88
        18 001644   000000 236010 xsym               LDQ     DD_ACTION_COL,X0
PL6.E3A0      #001=Z8E3$ERROR_CORR_DD File=Z8E3.:Z8A6TSI                         SAT 08/09/97 11:28 Page:49
        18 001645   777777 376007                    ANQ     -1,DL
        18 001646   000242 036005 xsym               ADLQ    O1COM+162,AL
        18 001647   204116 756100                    STQ     INDX,,AUTO

   8739 18 001650   000000 236006 xsym               LDQ     DD_ACTION_ROW,QL
        18 001651   777777 376007                    ANQ     -1,DL
        18 001652   000130 116000 xsym               CMPQ    O1COM+88
        18 001653   001662 601000 18                 TNZ     s:8746

   8741 18 001654   204116 721100                    LXL1    INDX,,AUTO
        18 001655   000000 236011 xsym               LDQ     DD_ACTION_ROW,X1
        18 001656   000022 732000                    QRS     18
        18 001657   204117 756100                    STQ     ACTION,,AUTO

   8742 18 001660   002004 600000 18                 TZE     CORRECT_PARSE

   8744 18 001661   001665 710000 18                 TRA     s:8749

   8746 18 001662   000000 236010 xsym               LDQ     DD_ACTION_COL,X0
        18 001663   000022 732000                    QRS     18
        18 001664   204117 756100                    STQ     ACTION,,AUTO

   8749 18 001665   001730 604400 18                 TMOZ    s:8780

   8751 18 001666   000001 336007                    LCQ     1,DL
        18 001667   000131 056000 xsym               ASQ     O1COM+89

   8752 18 001670   000133 235000 xsym               LDA     O1COM+91
        18 001671   000003 735000                    ALS     3
        18 001672   000246 235005 xsym               LDA     O1COM+166,AL
        18 001673   000133 755000 xsym               STA     O1COM+91

   8753 18 001674   000135 235000 xsym               LDA     O1COM+93
        18 001675   003720 115007                    CMPA    2000,DL
        18 001676   001722 604000 18                 TMI     s:8774

   8761 18 001677   000133 235000 xsym               LDA     O1COM+91
PL6.E3A0      #001=Z8E3$ERROR_CORR_DD File=Z8E3.:Z8A6TSI                         SAT 08/09/97 11:28 Page:50
        18 001700   000003 735000                    ALS     3
        18 001701   000244 235005 xsym               LDA     O1COM+164,AL
        18 001702   000136 755000 xsym               STA     O1COM+94

   8762 18 001703   000133 235000 xsym               LDA     O1COM+91
        18 001704   000003 735000                    ALS     3
        18 001705   000245 235005 xsym               LDA     O1COM+165,AL
        18 001706   000137 755000 xsym               STA     O1COM+95

   8765 18 001707   000000 236000 19                 LDQ     0
        18 001710   000000 235000 19                 LDA     0
        18 001711   204522 757100                    STAQ    @PLUG1$,,AUTO
        18 001712   000031 236000 19                 LDQ     25
        18 001713   204521 756100                    STQ     @ERROR_TYPE,,AUTO
        18 001714   000005 701000 18                 TSX1    ERROR
        18 001715   000000 011000                    NOP     0

   8768 18 001716   000012 631400 19                 EPPR1   10
        18 001717   000000 701000 xent               TSX1    Z9AT$TERMINATOR
        18 001720   000000 011000                    NOP     0

   8770 18 001721   001572 710000 18                 TRA     s:8716

   8774 18 001722   204117 235100                    LDA     ACTION,,AUTO
        18 001723   000130 755000 xsym               STA     O1COM+88

   8775 18 001724   000135 054000 xsym               AOS     O1COM+93

   8776 18 001725   000135 720000 xsym               LXL0    O1COM+93
        18 001726   001364 755010 xsym               STA     O1COM+756,X0

   8778 18 001727   001572 710000 18                 TRA     s:8716

   8780 18 001730   002002 605000 18                 TPL     BAD_PARSE

   8782 18 001731   204117 335100                    LCA     ACTION,,AUTO
        18 001732   204117 755100                    STA     ACTION,,AUTO
PL6.E3A0      #001=Z8E3$ERROR_CORR_DD File=Z8E3.:Z8A6TSI                         SAT 08/09/97 11:28 Page:51

   8783 18 001733   000001 735000                    ALS     1
        18 001734   000000 236005 xsym               LDQ     DD_PRODR,AL
        18 001735   777777 376007                    ANQ     -1,DL
        18 001736   204526 756100                    STQ     NEWPLUG2$+1,,AUTO
        18 001737   000135 236000 xsym               LDQ     O1COM+93
        18 001740   204526 136100                    SBLQ    NEWPLUG2$+1,,AUTO
        18 001741   000135 756000 xsym               STQ     O1COM+93

   8784 18 001742   000000 236005 xsym               LDQ     DD_PRODR,AL
        18 001743   000022 772000                    QRL     18
        18 001744   204120 756100                    STQ     NT,,AUTO

   8785 18 001745   000000 721006 xsym               LXL1    DD_GOTO_COL,QL
        18 001746   001754 601000 18                 TNZ     s:8789

   8786 18 001747   204120 721100                    LXL1    NT,,AUTO
        18 001750   000000 236011 xsym               LDQ     DD_GOTO_COL,X1
        18 001751   000022 772000                    QRL     18
        18 001752   000130 756000 xsym               STQ     O1COM+88
        18 001753   001776 710000 18                 TRA     s:8795

   8789 18 001754   000135 721000 xsym               LXL1    O1COM+93
        18 001755   204120 722100                    LXL2    NT,,AUTO
        18 001756   000000 236012 xsym               LDQ     DD_GOTO_COL,X2
        18 001757   777777 376007                    ANQ     -1,DL
        18 001760   001364 036011 xsym               ADLQ    O1COM+756,X1
        18 001761   204116 756100                    STQ     INDX,,AUTO

   8790 18 001762   000000 236006 xsym               LDQ     DD_GOTO_ROW,QL
        18 001763   777777 376007                    ANQ     -1,DL
        18 001764   204120 116100                    CMPQ    NT,,AUTO
        18 001765   001773 601000 18                 TNZ     s:8793

   8791 18 001766   204116 723100                    LXL3    INDX,,AUTO
        18 001767   000000 236013 xsym               LDQ     DD_GOTO_ROW,X3
        18 001770   000022 772000                    QRL     18
PL6.E3A0      #001=Z8E3$ERROR_CORR_DD File=Z8E3.:Z8A6TSI                         SAT 08/09/97 11:28 Page:52
        18 001771   000130 756000 xsym               STQ     O1COM+88
        18 001772   001776 710000 18                 TRA     s:8795

   8793 18 001773   000000 236012 xsym               LDQ     DD_GOTO_COL,X2
        18 001774   000022 772000                    QRL     18
        18 001775   000130 756000 xsym               STQ     O1COM+88

   8795 18 001776   000135 054000 xsym               AOS     O1COM+93

   8796 18 001777   000135 720000 xsym               LXL0    O1COM+93
        18 002000   001364 756010 xsym               STQ     O1COM+756,X0

   8797 18 002001   001572 710000 18                 TRA     s:8716

   8804 18 002002   200101 236100       BAD_PARSE    LDQ     LR+4,,AUTO
        18 002003   200101 056100                    ASQ     LR+4,,AUTO

   8808 18 002004                       CORRECT_PAR* null
   8808 18 002004   204122 221300                    LDX1  ! NT+2,,AUTO
        18 002005   000001 702211                    TSX2  ! 1,X1

   8811 18 002006   001460 701000 18                 TSX1    GET_CONTEXT
        18 002007   000000 011000                    NOP     0

   8812 18 002010   001505 701000 18                 TSX1    SAVE_STATE
        18 002011   000000 011000                    NOP     0

   8813 18 002012   001547 701000 18                 TSX1    BUILD_LOOKAHEAD
        18 002013   000000 011000                    NOP     0

   8814 18 002014   001571 701000 18                 TSX1    TRAIL_PARSE
        18 002015   000000 011000                    NOP     0

   8815 18 002016   001525 701000 18                 TSX1    RESTORE_STATE
        18 002017   000000 011000                    NOP     0

   8817 18 002020   200172 221300                    LDX1  ! ACCUM_INS_TO_SYM+2,,AUTO
PL6.E3A0      #001=Z8E3$ERROR_CORR_DD File=Z8E3.:Z8A6TSI                         SAT 08/09/97 11:28 Page:53
        18 002021   000001 702211                    TSX2  ! 1,X1

   8820 18 002022   200172 741300       LR_INSERT    STX1  ! ACCUM_INS_TO_SYM+2,,AUTO
        18 002023   002175 710000 18                 TRA     s:8989

   8919 18 002024   204516 741300       INITSTAGES   STX1  ! PELEM+1,,AUTO

   8925 18 002025   204517 450100                    STZ     I,,AUTO

   8927 18 002026   204517 236100                    LDQ     I,,AUTO
        18 002027   000064 402007                    MPY     52,DL
        18 002030   200270 630506                    EPPR0   LCC_SPACE,QL,AUTO
        18 002031   204517 720100                    LXL0    I,,AUTO
        18 002032   200216 450510                    STP0    STAGE1$,X0,AUTO

   8928 18 002033   202374 631506                    EPPR1   @PT_PTR+1062,QL,AUTO
        18 002034   200243 451510                    STP1    STAGE2$,X0,AUTO

   8930 18 002035   204517 054100                    AOS     I,,AUTO
        18 002036   204517 235100                    LDA     I,,AUTO
        18 002037   000024 115007                    CMPA    20,DL
        18 002040   002026 604400 18                 TMOZ    s:8927

   8932 18 002041   200216 630500                    EPPR0   STAGE1$,,AUTO
        18 002042   200214 450500                    STP0    CURRSTAGE$,,AUTO

   8933 18 002043   200243 631500                    EPPR1   STAGE2$,,AUTO
        18 002044   200215 451500                    STP1    NEXTSTAGE$,,AUTO

   8934 18 002045   002053 701000 18                 TSX1    NEWSTAGE
        18 002046   000000 011000                    NOP     0

   8935 18 002047   002053 701000 18                 TSX1    NEWSTAGE
        18 002050   000000 011000                    NOP     0

   8937 18 002051   204516 221300                    LDX1  ! PELEM+1,,AUTO
        18 002052   000001 702211                    TSX2  ! 1,X1
PL6.E3A0      #001=Z8E3$ERROR_CORR_DD File=Z8E3.:Z8A6TSI                         SAT 08/09/97 11:28 Page:54

   8940 18 002053   204520 741300       NEWSTAGE     STX1  ! @PREVSTATE+1,,AUTO

   8946 18 002054   200215 236100                    LDQ     NEXTSTAGE$,,AUTO
        18 002055   204522 756100                    STQ     TPTR,,AUTO

   8947 18 002056   200214 236100                    LDQ     CURRSTAGE$,,AUTO
        18 002057   200215 756100                    STQ     NEXTSTAGE$,,AUTO

   8948 18 002060   204522 236100                    LDQ     TPTR,,AUTO
        18 002061   200214 756100                    STQ     CURRSTAGE$,,AUTO

   8950 18 002062   204521 450100                    STZ     I,,AUTO

   8952 18 002063   200215 470500                    LDP0    NEXTSTAGE$,,AUTO
        18 002064   204521 720100                    LXL0    I,,AUTO
        18 002065   000000 471510                    LDP1    0,X0,PR0
        18 002066   000100 101400                    MRL     fill='000'O
        18 002067   000032 000004 19                 ADSC9   26                       cn=0,n=4
        18 002070   100000 000002                    ADSC9   0,,PR1                   cn=0,n=2

   8953 18 002071   000000 471510                    LDP1    0,X0,PR0
        18 002072   000100 101400                    MRL     fill='000'O
        18 002073   000012 000004 19                 ADSC9   10                       cn=0,n=4
        18 002074   100000 400002                    ADSC9   0,,PR1                   cn=2,n=2

   8955 18 002075   204521 054100                    AOS     I,,AUTO
        18 002076   204521 235100                    LDA     I,,AUTO
        18 002077   000024 115007                    CMPA    20,DL
        18 002100   002063 604400 18                 TMOZ    s:8952

   8957 18 002101   204520 221300                    LDX1  ! @PREVSTATE+1,,AUTO
        18 002102   000001 702211                    TSX2  ! 1,X1

   8961 18 002103   204516 741300       FINDPRED     STX1  ! PELEM+1,,AUTO

   8971 18 002104   204517 470500                    LDP0    @PREVSTATE,,AUTO
PL6.E3A0      #001=Z8E3$ERROR_CORR_DD File=Z8E3.:Z8A6TSI                         SAT 08/09/97 11:28 Page:55
        18 002105   000000 236100                    LDQ     0,,PR0
        18 002106   000032 402007                    MPY     26,DL
        18 002107   000000 116003                    CMPQ    0,DU
        18 002110   002112 605000 18                 TPL     s:8971+6
        18 002111   000044 036003                    ADLQ    36,DU
        18 002112   003100 061406                    CSR     bolr='003'O
        18 002113   777777 450015 xsym               BDSC    DD_STATE_ITEM-1,Q        by=2,bit=5,n=13
        18 002114   204526 000044                    BDSC    NEWPLUG2$+1,,AUTO        by=0,bit=0,n=36
        18 002115   204526 236100                    LDQ     NEWPLUG2$+1,,AUTO
        18 002116   000001 036007                    ADLQ    1,DL
        18 002117   204522 756100                    STQ     I,,AUTO

   8973 18 002120   002122 710000 18                 TRA     s:8976

   8975 18 002121   204522 054100                    AOS     I,,AUTO

   8976 18 002122   204520 470500                    LDP0    @SUCCSTATE,,AUTO
        18 002123   204522 235100                    LDA     I,,AUTO
        18 002124   000005 735000                    ALS     5
        18 002125   002127 605000 18                 TPL     s:8976+5
        18 002126   000044 035003                    ADLA    36,DU
        18 002127   003100 060405                    CSL     bolr='003'O
        18 002130   000000 000014 xsym               BDSC    DD_ITEM,A                by=0,bit=0,n=12
        18 002131   204526 000044                    BDSC    NEWPLUG2$+1,,AUTO        by=0,bit=0,n=36
        18 002132   204526 236100                    LDQ     NEWPLUG2$+1,,AUTO
        18 002133   000030 732000                    QRS     24
        18 002134   000000 116100                    CMPQ    0,,PR0
        18 002135   002121 601000 18                 TNZ     s:8975
        18 002136   204521 471500                    LDP1    @ITM,,AUTO
        18 002137   204522 235100                    LDA     I,,AUTO
        18 002140   000005 735000                    ALS     5
        18 002141   002143 605000 18                 TPL     s:8976+17
        18 002142   000044 035003                    ADLA    36,DU
        18 002143   003100 061405                    CSR     bolr='003'O
        18 002144   000000 230005 xsym               BDSC    DD_ITEM,A                by=1,bit=3,n=5
        18 002145   204527 000044                    BDSC    NEWPLUG2$+2,,AUTO        by=0,bit=0,n=36
        18 002146   204527 236100                    LDQ     NEWPLUG2$+2,,AUTO
PL6.E3A0      #001=Z8E3$ERROR_CORR_DD File=Z8E3.:Z8A6TSI                         SAT 08/09/97 11:28 Page:56
        18 002147   100000 116100                    CMPQ    0,,PR1
        18 002150   002121 601000 18                 TNZ     s:8975

   8978 18 002151   204522 235100                    LDA     I,,AUTO
        18 002152   204501 755100                    STA     PRED_ITEM,,AUTO

   8979 18 002153   204517 473500                    LDP3    @PREVSTATE,,AUTO
        18 002154   300000 236100                    LDQ     0,,PR3
        18 002155   000032 402007                    MPY     26,DL
        18 002156   400000 220003                    LDX0    -131072,DU
        18 002157   000000 116003                    CMPQ    0,DU
        18 002160   002162 605000 18                 TPL     s:8979+7
        18 002161   000044 036003                    ADLQ    36,DU
        18 002162   003100 061406                    CSR     bolr='003'O
        18 002163   000000 000015 xsym               BDSC    DD_STATE_ITEM,Q          by=0,bit=0,n=13
        18 002164   204526 000044                    BDSC    NEWPLUG2$+1,,AUTO        by=0,bit=0,n=36
        18 002165   204526 236100                    LDQ     NEWPLUG2$+1,,AUTO
        18 002166   204522 116100                    CMPQ    I,,AUTO
        18 002167   002171 604000 18                 TMI     s:8979+14
        18 002170   000000 220003                    LDX0    0,DU
        18 002171   000000 636010                    EAQ     0,X0
        18 002172   204502 756100                    STQ     PRED_CLOSURE,,AUTO

   8981 18 002173   204516 221300                    LDX1  ! PELEM+1,,AUTO
        18 002174   000001 702211                    TSX2  ! 1,X1

   8989 18 002175   002024 701000 18                 TSX1    INITSTAGES
        18 002176   000000 011000                    NOP     0

   8991 18 002177   000135 235000 xsym               LDA     O1COM+93
        18 002200   200175 755100                    STA     K,,AUTO

   8993 18 002201   303237 236007                    LDQ     99999,DL
        18 002202   200101 756100                    STQ     LR+4,,AUTO

   8994 18 002203   200100 450100                    STZ     LR+3,,AUTO

PL6.E3A0      #001=Z8E3$ERROR_CORR_DD File=Z8E3.:Z8A6TSI                         SAT 08/09/97 11:28 Page:57
   8999 18 002204   001364 236005 xsym               LDQ     O1COM+756,AL
        18 002205   000032 402007                    MPY     26,DL
        18 002206   000000 116003                    CMPQ    0,DU
        18 002207   002211 605000 18                 TPL     s:8999+5
        18 002210   000044 036003                    ADLQ    36,DU
        18 002211   003100 061406                    CSR     bolr='003'O
        18 002212   777777 450015 xsym               BDSC    DD_STATE_ITEM-1,Q        by=2,bit=5,n=13
        18 002213   204526 000044                    BDSC    NEWPLUG2$+1,,AUTO        by=0,bit=0,n=36
        18 002214   204526 236100                    LDQ     NEWPLUG2$+1,,AUTO
        18 002215   000001 036007                    ADLQ    1,DL
        18 002216   200202 756100                    STQ     LOWBASIS,,AUTO

   9000 18 002217   000135 720000 xsym               LXL0    O1COM+93
        18 002220   001364 236010 xsym               LDQ     O1COM+756,X0
        18 002221   000032 402007                    MPY     26,DL
        18 002222   000000 116003                    CMPQ    0,DU
        18 002223   002225 605000 18                 TPL     s:9000+6
        18 002224   000044 036003                    ADLQ    36,DU
        18 002225   003100 061406                    CSR     bolr='003'O
        18 002226   000000 000015 xsym               BDSC    DD_STATE_ITEM,Q          by=0,bit=0,n=13
        18 002227   200203 000044                    BDSC    HIGHBASIS,,AUTO          by=0,bit=0,n=36

   9003 18 002230   303237 235007                    LDA     99999,DL
        18 002231   200205 755100                    STA     MINCOST,,AUTO

   9005 18 002232   200202 236100                    LDQ     LOWBASIS,,AUTO
        18 002233   200173 756100                    STQ     I,,AUTO
        18 002234   002553 710000 18                 TRA     s:9057+1

   9010 18 002235   200173 236100                    LDQ     I,,AUTO
        18 002236   200202 136100                    SBLQ    LOWBASIS,,AUTO
        18 002237   200214 470500                    LDP0    CURRSTAGE$,,AUTO
        18 002240   000000 471506                    LDP1    0,QL,PR0
        18 002241   200173 235100                    LDA     I,,AUTO
        18 002242   000005 735000                    ALS     5
        18 002243   002245 605000 18                 TPL     s:9010+8
        18 002244   000044 035003                    ADLA    36,DU
PL6.E3A0      #001=Z8E3$ERROR_CORR_DD File=Z8E3.:Z8A6TSI                         SAT 08/09/97 11:28 Page:58
        18 002245   003100 061405                    CSR     bolr='003'O
        18 002246   000000 600005 xsym               BDSC    DD_ITEM,A                by=3,bit=0,n=5
        18 002247   100000 400022                    BDSC    0,,PR1                   by=2,bit=0,n=18

   9011 18 002250   200176 450100                    STZ     I2,,AUTO

   9012 18 002251   200212 450100                    STZ     TRYCOST,,AUTO

   9013 18 002252   200173 236100                    LDQ     I,,AUTO
        18 002253   200202 136100                    SBLQ    LOWBASIS,,AUTO
        18 002254   000000 471506                    LDP1    0,QL,PR0
        18 002255   000100 101400                    MRL     fill='000'O
        18 002256   000012 000004 19                 ADSC9   10                       cn=0,n=4
        18 002257   100000 000002                    ADSC9   0,,PR1                   cn=0,n=2

   9015 18 002260   200173 235100                    LDA     I,,AUTO
        18 002261   000005 735000                    ALS     5
        18 002262   002264 605000 18                 TPL     s:9015+4
        18 002263   000044 035003                    ADLA    36,DU
        18 002264   003100 061405                    CSR     bolr='003'O
        18 002265   000000 300012 xsym               BDSC    DD_ITEM,A                by=1,bit=8,n=10
        18 002266   200174 000044                    BDSC    J,,AUTO                  by=0,bit=0,n=36
        18 002267   002527 710000 18                 TRA     s:9055+1

   9019 18 002270   200077 235100                    LDA     LR+2,,AUTO
        18 002271   000003 735000                    ALS     3
        18 002272   000242 236005 xsym               LDQ     O1COM+162,AL
        18 002273   000015 402007                    MPY     13,DL
        18 002274   000000 116003                    CMPQ    0,DU
        18 002275   002277 605000 18                 TPL     s:9019+7
        18 002276   000044 036003                    ADLQ    36,DU
        18 002277   003100 061406                    CSR     bolr='003'O
        18 002300   000000 000015 xsym               BDSC    DD_LCP_UBOUND,Q          by=0,bit=0,n=13
        18 002301   200177 000044                    BDSC    H,,AUTO                  by=0,bit=0,n=36

   9020 18 002302   200077 235100                    LDA     LR+2,,AUTO
        18 002303   000003 735000                    ALS     3
PL6.E3A0      #001=Z8E3$ERROR_CORR_DD File=Z8E3.:Z8A6TSI                         SAT 08/09/97 11:28 Page:59
        18 002304   000242 236005 xsym               LDQ     O1COM+162,AL
        18 002305   000015 402007                    MPY     13,DL
        18 002306   000000 116003                    CMPQ    0,DU
        18 002307   002311 605000 18                 TPL     s:9020+7
        18 002310   000044 036003                    ADLQ    36,DU
        18 002311   003100 061406                    CSR     bolr='003'O
        18 002312   777777 450015 xsym               BDSC    DD_LCP_UBOUND-1,Q        by=2,bit=5,n=13
        18 002313   204526 000044                    BDSC    NEWPLUG2$+1,,AUTO        by=0,bit=0,n=36
        18 002314   204526 236100                    LDQ     NEWPLUG2$+1,,AUTO
        18 002315   000001 036007                    ADLQ    1,DL
        18 002316   200200 756100                    STQ     L,,AUTO

   9021 18 002317   000001 335007                    LCA     1,DL
        18 002320   200211 755100                    STA     LCP_ELEM_RET,,AUTO

   9022 18 002321   200177 116100                    CMPQ    H,,AUTO
        18 002322   002324 600000 18                 TZE     s:9023
        18 002323   002407 603000 18                 TRC     s:9038

   9023 18 002324   200200 236100                    LDQ     L,,AUTO
        18 002325   200177 036100                    ADLQ    H,,AUTO
        18 002326   000001 772000                    QRL     1
        18 002327   200201 756100                    STQ     M,,AUTO

   9024 18 002330   000054 402007                    MPY     44,DL
        18 002331   003100 061406                    CSR     bolr='003'O
        18 002332   000000 000022 xsym               BDSC    DD_LCP,Q                 by=0,bit=0,n=18
        18 002333   204526 000044                    BDSC    NEWPLUG2$+1,,AUTO        by=0,bit=0,n=36
        18 002334   200174 236100                    LDQ     J,,AUTO
        18 002335   000013 402007                    MPY     11,DL
        18 002336   000000 116003                    CMPQ    0,DU
        18 002337   002341 605000 18                 TPL     s:9024+9
        18 002340   000044 036003                    ADLQ    36,DU
        18 002341   003100 061406                    CSR     bolr='003'O
        18 002342   000000 000013 xsym               BDSC    DD_PATH_ELEM,Q           by=0,bit=0,n=11
        18 002343   204527 000044                    BDSC    NEWPLUG2$+2,,AUTO        by=0,bit=0,n=36
        18 002344   204527 236100                    LDQ     NEWPLUG2$+2,,AUTO
PL6.E3A0      #001=Z8E3$ERROR_CORR_DD File=Z8E3.:Z8A6TSI                         SAT 08/09/97 11:28 Page:60
        18 002345   204526 116100                    CMPQ    NEWPLUG2$+1,,AUTO
        18 002346   002355 601000 18                 TNZ     s:9030

   9026 18 002347   200201 235100                    LDA     M,,AUTO
        18 002350   200211 755100                    STA     LCP_ELEM_RET,,AUTO

   9027 18 002351   200200 236100                    LDQ     L,,AUTO
        18 002352   000001 136007                    SBLQ    1,DL
        18 002353   200177 756100                    STQ     H,,AUTO

   9028 18 002354   002404 710000 18                 TRA     s:9034

   9030 18 002355   200201 236100                    LDQ     M,,AUTO
        18 002356   000054 402007                    MPY     44,DL
        18 002357   003100 061406                    CSR     bolr='003'O
        18 002360   000000 000022 xsym               BDSC    DD_LCP,Q                 by=0,bit=0,n=18
        18 002361   204526 000044                    BDSC    NEWPLUG2$+1,,AUTO        by=0,bit=0,n=36
        18 002362   200174 236100                    LDQ     J,,AUTO
        18 002363   000013 402007                    MPY     11,DL
        18 002364   000000 116003                    CMPQ    0,DU
        18 002365   002367 605000 18                 TPL     s:9030+10
        18 002366   000044 036003                    ADLQ    36,DU
        18 002367   003100 061406                    CSR     bolr='003'O
        18 002370   000000 000013 xsym               BDSC    DD_PATH_ELEM,Q           by=0,bit=0,n=11
        18 002371   204527 000044                    BDSC    NEWPLUG2$+2,,AUTO        by=0,bit=0,n=36
        18 002372   204527 236100                    LDQ     NEWPLUG2$+2,,AUTO
        18 002373   204526 116100                    CMPQ    NEWPLUG2$+1,,AUTO
        18 002374   002401 605000 18                 TPL     s:9033

   9031 18 002375   200201 235100                    LDA     M,,AUTO
        18 002376   000001 135007                    SBLA    1,DL
        18 002377   200177 755100                    STA     H,,AUTO
        18 002400   002404 710000 18                 TRA     s:9034

   9033 18 002401   200201 235100                    LDA     M,,AUTO
        18 002402   000001 035007                    ADLA    1,DL
        18 002403   200200 755100                    STA     L,,AUTO
PL6.E3A0      #001=Z8E3$ERROR_CORR_DD File=Z8E3.:Z8A6TSI                         SAT 08/09/97 11:28 Page:61

   9034 18 002404   200177 236100                    LDQ     H,,AUTO
        18 002405   200200 116100                    CMPQ    L,,AUTO
        18 002406   002324 603000 18                 TRC     s:9023

   9038 18 002407   200211 235100                    LDA     LCP_ELEM_RET,,AUTO
        18 002410   002445 604000 18                 TMI     s:9050

   9040 18 002411   200173 236100                    LDQ     I,,AUTO
        18 002412   200202 136100                    SBLQ    LOWBASIS,,AUTO
        18 002413   200214 470500                    LDP0    CURRSTAGE$,,AUTO
        18 002414   000000 471506                    LDP1    0,QL,PR0
        18 002415   200211 236100                    LDQ     LCP_ELEM_RET,,AUTO
        18 002416   000054 402007                    MPY     44,DL
        18 002417   000000 116003                    CMPQ    0,DU
        18 002420   002422 605000 18                 TPL     s:9040+9
        18 002421   000044 036003                    ADLQ    36,DU
        18 002422   003100 061406                    CSR     bolr='003'O
        18 002423   000000 400011 xsym               BDSC    DD_LCP,Q                 by=2,bit=0,n=9
        18 002424   204526 000044                    BDSC    NEWPLUG2$+1,,AUTO        by=0,bit=0,n=36
        18 002425   000100 100500                    MLR     fill='000'O
        18 002426   100000 000002                    ADSC9   0,,PR1                   cn=0,n=2
        18 002427   204527 000004                    ADSC9   NEWPLUG2$+2,,AUTO        cn=0,n=4
        18 002430   204527 236100                    LDQ     NEWPLUG2$+2,,AUTO
        18 002431   000022 732000                    QRS     18
        18 002432   204526 036100                    ADLQ    NEWPLUG2$+1,,AUTO
        18 002433   200212 756100                    STQ     TRYCOST,,AUTO

   9041 18 002434   200205 116100                    CMPQ    MINCOST,,AUTO
        18 002435   002445 605000 18                 TPL     s:9050

   9043 18 002436   200173 235100                    LDA     I,,AUTO
        18 002437   200204 755100                    STA     MINITEM,,AUTO

   9044 18 002440   200174 235100                    LDA     J,,AUTO
        18 002441   200206 755100                    STA     MINPOS,,AUTO

PL6.E3A0      #001=Z8E3$ERROR_CORR_DD File=Z8E3.:Z8A6TSI                         SAT 08/09/97 11:28 Page:62
   9045 18 002442   200205 756100                    STQ     MINCOST,,AUTO

   9046 18 002443   200211 235100                    LDA     LCP_ELEM_RET,,AUTO
        18 002444   200207 755100                    STA     MINLCPINDX,,AUTO

   9050 18 002445   200173 236100                    LDQ     I,,AUTO
        18 002446   200202 136100                    SBLQ    LOWBASIS,,AUTO
        18 002447   200214 470500                    LDP0    CURRSTAGE$,,AUTO
        18 002450   000000 471506                    LDP1    0,QL,PR0
        18 002451   200173 236100                    LDQ     I,,AUTO
        18 002452   200202 136100                    SBLQ    LOWBASIS,,AUTO
        18 002453   000000 473506                    LDP3    0,QL,PR0
        18 002454   200174 236100                    LDQ     J,,AUTO
        18 002455   000013 402007                    MPY     11,DL
        18 002456   000000 116003                    CMPQ    0,DU
        18 002457   002461 605000 18                 TPL     s:9050+12
        18 002460   000044 036003                    ADLQ    36,DU
        18 002461   003100 061406                    CSR     bolr='003'O
        18 002462   000000 000013 xsym               BDSC    DD_PATH_ELEM,Q           by=0,bit=0,n=11
        18 002463   204526 000044                    BDSC    NEWPLUG2$+1,,AUTO        by=0,bit=0,n=36
        18 002464   204526 236100                    LDQ     NEWPLUG2$+1,,AUTO
        18 002465   000036 402007                    MPY     30,DL
        18 002466   003100 061406                    CSR     bolr='003'O
        18 002467   000000 000021 xsym               BDSC    DD_LCS,Q                 by=0,bit=0,n=17
        18 002470   204527 000044                    BDSC    NEWPLUG2$+2,,AUTO        by=0,bit=0,n=36
        18 002471   000100 100500                    MLR     fill='000'O
        18 002472   300000 000002                    ADSC9   0,,PR3                   cn=0,n=2
        18 002473   204530 000004                    ADSC9   NEWPLUG2$+3,,AUTO        cn=0,n=4
        18 002474   204530 236100                    LDQ     NEWPLUG2$+3,,AUTO
        18 002475   000022 732000                    QRS     18
        18 002476   204527 036100                    ADLQ    NEWPLUG2$+2,,AUTO
        18 002477   204531 756100                    STQ     NEWPLUG2$+4,,AUTO
        18 002500   000100 101500                    MRL     fill='000'O
        18 002501   204531 000004                    ADSC9   NEWPLUG2$+4,,AUTO        cn=0,n=4
        18 002502   100000 000002                    ADSC9   0,,PR1                   cn=0,n=2

   9052 18 002503   200173 236100                    LDQ     I,,AUTO
PL6.E3A0      #001=Z8E3$ERROR_CORR_DD File=Z8E3.:Z8A6TSI                         SAT 08/09/97 11:28 Page:63
        18 002504   200202 136100                    SBLQ    LOWBASIS,,AUTO
        18 002505   000000 471506                    LDP1    0,QL,PR0
        18 002506   200174 236100                    LDQ     J,,AUTO
        18 002507   000013 402007                    MPY     11,DL
        18 002510   000000 116003                    CMPQ    0,DU
        18 002511   002513 605000 18                 TPL     s:9052+8
        18 002512   000044 036003                    ADLQ    36,DU
        18 002513   204526 756100                    STQ     NEWPLUG2$+1,,AUTO
        18 002514   200176 236100                    LDQ     I2,,AUTO
        18 002515   000022 402007                    MPY     18,DL
        18 002516   000000 116003                    CMPQ    0,DU
        18 002517   002521 605000 18                 TPL     s:9052+14
        18 002520   000044 036003                    ADLQ    36,DU
        18 002521   204526 235100                    LDA     NEWPLUG2$+1,,AUTO
        18 002522   003106 061405                    CSR     bolr='003'O
        18 002523   000000 000013 xsym               BDSC    DD_PATH_ELEM,A           by=0,bit=0,n=11
        18 002524   100001 000022                    BDSC    1,Q,PR1                  by=0,bit=0,n=18

   9054 18 002525   200176 054100                    AOS     I2,,AUTO

   9055 18 002526   200174 054100                    AOS     J,,AUTO
        18 002527   200173 235100                    LDA     I,,AUTO
        18 002530   000005 735000                    ALS     5
        18 002531   002533 605000 18                 TPL     s:9055+5
        18 002532   000044 035003                    ADLA    36,DU
        18 002533   003100 061405                    CSR     bolr='003'O
        18 002534   000000 600005 xsym               BDSC    DD_ITEM,A                by=3,bit=0,n=5
        18 002535   204526 000044                    BDSC    NEWPLUG2$+1,,AUTO        by=0,bit=0,n=36
        18 002536   200173 235100                    LDA     I,,AUTO
        18 002537   000005 735000                    ALS     5
        18 002540   002542 605000 18                 TPL     s:9055+12
        18 002541   000044 035003                    ADLA    36,DU
        18 002542   003100 061405                    CSR     bolr='003'O
        18 002543   000000 300012 xsym               BDSC    DD_ITEM,A                by=1,bit=8,n=10
        18 002544   204527 000044                    BDSC    NEWPLUG2$+2,,AUTO        by=0,bit=0,n=36
        18 002545   204527 236100                    LDQ     NEWPLUG2$+2,,AUTO
        18 002546   204526 036100                    ADLQ    NEWPLUG2$+1,,AUTO
PL6.E3A0      #001=Z8E3$ERROR_CORR_DD File=Z8E3.:Z8A6TSI                         SAT 08/09/97 11:28 Page:64
        18 002547   002270 604000 18                 TMI     s:9019
        18 002550   200174 116100                    CMPQ    J,,AUTO
        18 002551   002270 605400 18                 TPNZ    s:9019

   9057 18 002552   200173 054100                    AOS     I,,AUTO
        18 002553   200173 236100                    LDQ     I,,AUTO
        18 002554   200203 116100                    CMPQ    HIGHBASIS,,AUTO
        18 002555   002235 604400 18                 TMOZ    s:9010

   9061 18 002556   200205 235100                    LDA     MINCOST,,AUTO
        18 002557   303237 115007                    CMPA    99999,DL
        18 002560   002714 605000 18                 TPL     s:9087

   9063 18 002561   200101 755100                    STA     LR+4,,AUTO

   9064 18 002562   200100 450100                    STZ     LR+3,,AUTO

   9066 18 002563   200204 235100                    LDA     MINITEM,,AUTO
        18 002564   000005 735000                    ALS     5
        18 002565   002567 605000 18                 TPL     s:9066+4
        18 002566   000044 035003                    ADLA    36,DU
        18 002567   003100 061405                    CSR     bolr='003'O
        18 002570   000000 300012 xsym               BDSC    DD_ITEM,A                by=1,bit=8,n=10
        18 002571   200174 000044                    BDSC    J,,AUTO                  by=0,bit=0,n=36
        18 002572   002614 710000 18                 TRA     s:9071+1

   9068 18 002573   200174 236100                    LDQ     J,,AUTO
        18 002574   000013 402007                    MPY     11,DL
        18 002575   000000 116003                    CMPQ    0,DU
        18 002576   002600 605000 18                 TPL     s:9068+5
        18 002577   000044 036003                    ADLQ    36,DU
        18 002600   204526 756100                    STQ     NEWPLUG2$+1,,AUTO
        18 002601   200100 236100                    LDQ     LR+3,,AUTO
        18 002602   000022 402007                    MPY     18,DL
        18 002603   000000 116003                    CMPQ    0,DU
        18 002604   002606 605000 18                 TPL     s:9068+11
        18 002605   000044 036003                    ADLQ    36,DU
PL6.E3A0      #001=Z8E3$ERROR_CORR_DD File=Z8E3.:Z8A6TSI                         SAT 08/09/97 11:28 Page:65
        18 002606   204526 235100                    LDA     NEWPLUG2$+1,,AUTO
        18 002607   003106 061405                    CSR     bolr='003'O
        18 002610   000000 000013 xsym               BDSC    DD_PATH_ELEM,A           by=0,bit=0,n=11
        18 002611   200102 000022                    BDSC    LR+5,Q,AUTO              by=0,bit=0,n=18

   9069 18 002612   200100 054100                    AOS     LR+3,,AUTO

   9071 18 002613   200174 054100                    AOS     J,,AUTO
        18 002614   200174 236100                    LDQ     J,,AUTO
        18 002615   200206 116100                    CMPQ    MINPOS,,AUTO
        18 002616   002573 604000 18                 TMI     s:9068

   9075 18 002617   200207 236100                    LDQ     MINLCPINDX,,AUTO
        18 002620   000054 402007                    MPY     44,DL
        18 002621   000000 116003                    CMPQ    0,DU
        18 002622   002624 605000 18                 TPL     s:9075+5
        18 002623   000044 036003                    ADLQ    36,DU
        18 002624   003100 061406                    CSR     bolr='003'O
        18 002625   000001 030005 xsym               BDSC    DD_LCP+1,Q               by=0,bit=3,n=5
        18 002626   204526 000044                    BDSC    NEWPLUG2$+1,,AUTO        by=0,bit=0,n=36
        18 002627   204526 236100                    LDQ     NEWPLUG2$+1,,AUTO
        18 002630   200100 036100                    ADLQ    LR+3,,AUTO
        18 002631   000144 116007                    CMPQ    100,DL
        18 002632   002635 604400 18                 TMOZ    s:9078

   9076 18 002633   000454 701000 18                 TSX1    ABORT_CORRECTION
        18 002634   000000 011000                    NOP     0

   9078 18 002635   200207 236100                    LDQ     MINLCPINDX,,AUTO
        18 002636   000054 402007                    MPY     44,DL
        18 002637   000000 116003                    CMPQ    0,DU
        18 002640   002642 605000 18                 TPL     s:9078+5
        18 002641   000044 036003                    ADLQ    36,DU
        18 002642   003100 061406                    CSR     bolr='003'O
        18 002643   000000 600014 xsym               BDSC    DD_LCP,Q                 by=3,bit=0,n=12
        18 002644   200174 000044                    BDSC    J,,AUTO                  by=0,bit=0,n=36
        18 002645   002667 710000 18                 TRA     s:9084+1
PL6.E3A0      #001=Z8E3$ERROR_CORR_DD File=Z8E3.:Z8A6TSI                         SAT 08/09/97 11:28 Page:66

   9081 18 002646   200174 236100                    LDQ     J,,AUTO
        18 002647   000013 402007                    MPY     11,DL
        18 002650   000000 116003                    CMPQ    0,DU
        18 002651   002653 605000 18                 TPL     s:9081+5
        18 002652   000044 036003                    ADLQ    36,DU
        18 002653   204526 756100                    STQ     NEWPLUG2$+1,,AUTO
        18 002654   200100 236100                    LDQ     LR+3,,AUTO
        18 002655   000022 402007                    MPY     18,DL
        18 002656   000000 116003                    CMPQ    0,DU
        18 002657   002661 605000 18                 TPL     s:9081+11
        18 002660   000044 036003                    ADLQ    36,DU
        18 002661   204526 235100                    LDA     NEWPLUG2$+1,,AUTO
        18 002662   003106 061405                    CSR     bolr='003'O
        18 002663   000000 000013 xsym               BDSC    DD_LCP_ELEM,A            by=0,bit=0,n=11
        18 002664   200102 000022                    BDSC    LR+5,Q,AUTO              by=0,bit=0,n=18

   9082 18 002665   200100 054100                    AOS     LR+3,,AUTO

   9084 18 002666   200174 054100                    AOS     J,,AUTO
        18 002667   200207 236100                    LDQ     MINLCPINDX,,AUTO
        18 002670   000054 402007                    MPY     44,DL
        18 002671   000000 116003                    CMPQ    0,DU
        18 002672   002674 605000 18                 TPL     s:9084+6
        18 002673   000044 036003                    ADLQ    36,DU
        18 002674   003100 061406                    CSR     bolr='003'O
        18 002675   000001 030005 xsym               BDSC    DD_LCP+1,Q               by=0,bit=3,n=5
        18 002676   204526 000044                    BDSC    NEWPLUG2$+1,,AUTO        by=0,bit=0,n=36
        18 002677   200207 236100                    LDQ     MINLCPINDX,,AUTO
        18 002700   000054 402007                    MPY     44,DL
        18 002701   000000 116003                    CMPQ    0,DU
        18 002702   002704 605000 18                 TPL     s:9084+14
        18 002703   000044 036003                    ADLQ    36,DU
        18 002704   003100 061406                    CSR     bolr='003'O
        18 002705   000000 600014 xsym               BDSC    DD_LCP,Q                 by=3,bit=0,n=12
        18 002706   204527 000044                    BDSC    NEWPLUG2$+2,,AUTO        by=0,bit=0,n=36
        18 002707   204527 236100                    LDQ     NEWPLUG2$+2,,AUTO
PL6.E3A0      #001=Z8E3$ERROR_CORR_DD File=Z8E3.:Z8A6TSI                         SAT 08/09/97 11:28 Page:67
        18 002710   204526 036100                    ADLQ    NEWPLUG2$+1,,AUTO
        18 002711   002646 604000 18                 TMI     s:9081
        18 002712   200174 116100                    CMPQ    J,,AUTO
        18 002713   002646 605400 18                 TPNZ    s:9081

   9087 18 002714   400000 220003                    LDX0    -131072,DU
        18 002715   200175 235100                    LDA     K,,AUTO
        18 002716   002720 605400 18                 TPNZ    s:9087+4
        18 002717   000000 220003                    LDX0    0,DU
        18 002720   000000 636010                    EAQ     0,X0
        18 002721   204503 756100                    STQ     WORTHCONTINUING,,AUTO

   9089 18 002722   204503 234100                    SZN     WORTHCONTINUING,,AUTO
        18 002723   004130 605000 18                 TPL     s:9252

   9091 18 002724   204503 450100                    STZ     WORTHCONTINUING,,AUTO

   9097 18 002725   200175 720100                    LXL0    K,,AUTO
        18 002726   001364 236010 xsym               LDQ     O1COM+756,X0
        18 002727   000032 402007                    MPY     26,DL
        18 002730   000000 116003                    CMPQ    0,DU
        18 002731   002733 605000 18                 TPL     s:9097+6
        18 002732   000044 036003                    ADLQ    36,DU
        18 002733   003100 061406                    CSR     bolr='003'O
        18 002734   777777 450015 xsym               BDSC    DD_STATE_ITEM-1,Q        by=2,bit=5,n=13
        18 002735   204526 000044                    BDSC    NEWPLUG2$+1,,AUTO        by=0,bit=0,n=36
        18 002736   204526 236100                    LDQ     NEWPLUG2$+1,,AUTO
        18 002737   000001 036007                    ADLQ    1,DL
        18 002740   204504 756100                    STQ     CURRLOWBASIS,,AUTO

   9098 18 002741   001364 236010 xsym               LDQ     O1COM+756,X0
        18 002742   000032 402007                    MPY     26,DL
        18 002743   000000 116003                    CMPQ    0,DU
        18 002744   002746 605000 18                 TPL     s:9098+5
        18 002745   000044 036003                    ADLQ    36,DU
        18 002746   003100 061406                    CSR     bolr='003'O
        18 002747   000000 000015 xsym               BDSC    DD_STATE_ITEM,Q          by=0,bit=0,n=13
PL6.E3A0      #001=Z8E3$ERROR_CORR_DD File=Z8E3.:Z8A6TSI                         SAT 08/09/97 11:28 Page:68
        18 002750   204505 000044                    BDSC    CURRHIGHBASIS,,AUTO      by=0,bit=0,n=36

   9102 18 002751   204506 450100                    STZ     ITM,,AUTO
        18 002752   004110 710000 18                 TRA     s:9238+1

   9104 18 002753   200214 470500                    LDP0    CURRSTAGE$,,AUTO
        18 002754   204506 720100                    LXL0    ITM,,AUTO
        18 002755   000000 471510                    LDP1    0,X0,PR0
        18 002756   000100 100500                    MLR     fill='000'O
        18 002757   100000 000002                    ADSC9   0,,PR1                   cn=0,n=2
        18 002760   204526 000004                    ADSC9   NEWPLUG2$+1,,AUTO        cn=0,n=4
        18 002761   204526 236100                    LDQ     NEWPLUG2$+1,,AUTO
        18 002762   000022 732000                    QRS     18
        18 002763   200101 116100                    CMPQ    LR+4,,AUTO
        18 002764   004107 605000 18                 TPL     s:9238

   9106 18 002765   400000 236003                    LDQ     -131072,DU
        18 002766   204503 756100                    STQ     WORTHCONTINUING,,AUTO

   9108 18 002767   204506 631500                    EPPR1   ITM,,AUTO
        18 002770   204521 451500                    STP1    @ERROR_TYPE,,AUTO
        18 002771   200175 721100                    LXL1    K,,AUTO
        18 002772   001364 633411 xsym               EPPR3   O1COM+756,X1
        18 002773   204520 453500                    STP3    @PREVSTATE+1,,AUTO
        18 002774   001363 634411 xsym               EPPR4   O1COM+755,X1
        18 002775   204517 454500                    STP4    PELEM+2,,AUTO
        18 002776   002103 701000 18                 TSX1    FINDPRED
        18 002777   000000 011000                    NOP     0

   9116 18 003000   200175 720100                    LXL0    K,,AUTO
        18 003001   001363 236010 xsym               LDQ     O1COM+755,X0
        18 003002   000032 402007                    MPY     26,DL
        18 003003   000000 116003                    CMPQ    0,DU
        18 003004   003006 605000 18                 TPL     s:9116+6
        18 003005   000044 036003                    ADLQ    36,DU
        18 003006   003100 061406                    CSR     bolr='003'O
        18 003007   777777 450015 xsym               BDSC    DD_STATE_ITEM-1,Q        by=2,bit=5,n=13
PL6.E3A0      #001=Z8E3$ERROR_CORR_DD File=Z8E3.:Z8A6TSI                         SAT 08/09/97 11:28 Page:69
        18 003010   204526 000044                    BDSC    NEWPLUG2$+1,,AUTO        by=0,bit=0,n=36
        18 003011   204526 236100                    LDQ     NEWPLUG2$+1,,AUTO
        18 003012   000001 036007                    ADLQ    1,DL
        18 003013   204507 756100                    STQ     NEXTLOWBASIS,,AUTO

   9117 18 003014   001363 236010 xsym               LDQ     O1COM+755,X0
        18 003015   000032 402007                    MPY     26,DL
        18 003016   000000 116003                    CMPQ    0,DU
        18 003017   003021 605000 18                 TPL     s:9117+5
        18 003020   000044 036003                    ADLQ    36,DU
        18 003021   003100 061406                    CSR     bolr='003'O
        18 003022   000000 000015 xsym               BDSC    DD_STATE_ITEM,Q          by=0,bit=0,n=13
        18 003023   204510 000044                    BDSC    NEXTHIGHBASIS,,AUTO      by=0,bit=0,n=36

   9121 18 003024   204502 234100                    SZN     PRED_CLOSURE,,AUTO
        18 003025   004054 605000 18                 TPL     s:9235

   9124 18 003026   204511 450100                    STZ     NEXTITEM,,AUTO
        18 003027   003340 710000 18                 TRA     s:9155+1

   9128 18 003030   204501 235100                    LDA     PRED_ITEM,,AUTO
        18 003031   000005 735000                    ALS     5
        18 003032   003034 605000 18                 TPL     s:9128+4
        18 003033   000044 035003                    ADLA    36,DU
        18 003034   003100 061405                    CSR     bolr='003'O
        18 003035   000000 300012 xsym               BDSC    DD_ITEM,A                by=1,bit=8,n=10
        18 003036   204526 000044                    BDSC    NEWPLUG2$+1,,AUTO        by=0,bit=0,n=36
        18 003037   204526 236100                    LDQ     NEWPLUG2$+1,,AUTO
        18 003040   204511 036100                    ADLQ    NEXTITEM,,AUTO
        18 003041   204512 756100                    STQ     P,,AUTO

   9130 18 003042   000017 402007                    MPY     15,DL
        18 003043   000000 116003                    CMPQ    0,DU
        18 003044   003046 605000 18                 TPL     s:9130+4
        18 003045   000044 036003                    ADLQ    36,DU
        18 003046   003100 060406                    CSL     bolr='003'O
        18 003047   000000 000013 xsym               BDSC    DD_PATH,Q                by=0,bit=0,n=11
PL6.E3A0      #001=Z8E3$ERROR_CORR_DD File=Z8E3.:Z8A6TSI                         SAT 08/09/97 11:28 Page:70
        18 003050   204526 000044                    BDSC    NEWPLUG2$+1,,AUTO        by=0,bit=0,n=36
        18 003051   204526 236100                    LDQ     NEWPLUG2$+1,,AUTO
        18 003052   000031 732000                    QRS     25
        18 003053   000000 116003                    CMPQ    0,DU
        18 003054   003060 605000 18                 TPL     s:9134

   9131 18 003055   303237 235007                    LDA     99999,DL
        18 003056   204514 755100                    STA     PATH_COST,,AUTO
        18 003057   003143 710000 18                 TRA     s:9139

   9134 18 003060   204514 450100                    STZ     PATH_COST,,AUTO

   9135 18 003061   204512 236100                    LDQ     P,,AUTO
        18 003062   000017 402007                    MPY     15,DL
        18 003063   000000 116003                    CMPQ    0,DU
        18 003064   003066 605000 18                 TPL     s:9135+5
        18 003065   000044 036003                    ADLQ    36,DU
        18 003066   003100 060406                    CSL     bolr='003'O
        18 003067   000000 000013 xsym               BDSC    DD_PATH,Q                by=0,bit=0,n=11
        18 003070   204526 000044                    BDSC    NEWPLUG2$+1,,AUTO        by=0,bit=0,n=36
        18 003071   204526 236100                    LDQ     NEWPLUG2$+1,,AUTO
        18 003072   000031 732000                    QRS     25
        18 003073   204513 756100                    STQ     PE,,AUTO
        18 003074   003116 710000 18                 TRA     s:9137+1

   9136 18 003075   204513 236100                    LDQ     PE,,AUTO
        18 003076   000013 402007                    MPY     11,DL
        18 003077   000000 116003                    CMPQ    0,DU
        18 003100   003102 605000 18                 TPL     s:9136+5
        18 003101   000044 036003                    ADLQ    36,DU
        18 003102   003100 061406                    CSR     bolr='003'O
        18 003103   000000 000013 xsym               BDSC    DD_PATH_ELEM,Q           by=0,bit=0,n=11
        18 003104   204526 000044                    BDSC    NEWPLUG2$+1,,AUTO        by=0,bit=0,n=36
        18 003105   204526 236100                    LDQ     NEWPLUG2$+1,,AUTO
        18 003106   000036 402007                    MPY     30,DL
        18 003107   003100 061406                    CSR     bolr='003'O
        18 003110   000000 000021 xsym               BDSC    DD_LCS,Q                 by=0,bit=0,n=17
PL6.E3A0      #001=Z8E3$ERROR_CORR_DD File=Z8E3.:Z8A6TSI                         SAT 08/09/97 11:28 Page:71
        18 003111   204527 000044                    BDSC    NEWPLUG2$+2,,AUTO        by=0,bit=0,n=36
        18 003112   204527 236100                    LDQ     NEWPLUG2$+2,,AUTO
        18 003113   204514 036100                    ADLQ    PATH_COST,,AUTO
        18 003114   204514 756100                    STQ     PATH_COST,,AUTO

   9137 18 003115   204513 054100                    AOS     PE,,AUTO
        18 003116   204512 236100                    LDQ     P,,AUTO
        18 003117   000017 402007                    MPY     15,DL
        18 003120   000000 116003                    CMPQ    0,DU
        18 003121   003123 605000 18                 TPL     s:9137+6
        18 003122   000044 036003                    ADLQ    36,DU
        18 003123   003100 061406                    CSR     bolr='003'O
        18 003124   000000 220004 xsym               BDSC    DD_PATH,Q                by=1,bit=2,n=4
        18 003125   204526 000044                    BDSC    NEWPLUG2$+1,,AUTO        by=0,bit=0,n=36
        18 003126   204512 236100                    LDQ     P,,AUTO
        18 003127   000017 402007                    MPY     15,DL
        18 003130   000000 116003                    CMPQ    0,DU
        18 003131   003133 605000 18                 TPL     s:9137+14
        18 003132   000044 036003                    ADLQ    36,DU
        18 003133   003100 060406                    CSL     bolr='003'O
        18 003134   000000 000013 xsym               BDSC    DD_PATH,Q                by=0,bit=0,n=11
        18 003135   204527 000044                    BDSC    NEWPLUG2$+2,,AUTO        by=0,bit=0,n=36
        18 003136   204527 236100                    LDQ     NEWPLUG2$+2,,AUTO
        18 003137   000031 732000                    QRS     25
        18 003140   204526 036100                    ADLQ    NEWPLUG2$+1,,AUTO
        18 003141   204513 116100                    CMPQ    PE,,AUTO
        18 003142   003075 605400 18                 TPNZ    s:9136

   9139 18 003143   200214 470500                    LDP0    CURRSTAGE$,,AUTO
        18 003144   204506 720100                    LXL0    ITM,,AUTO
        18 003145   000000 471510                    LDP1    0,X0,PR0
        18 003146   000100 100500                    MLR     fill='000'O
        18 003147   100000 000002                    ADSC9   0,,PR1                   cn=0,n=2
        18 003150   204526 000004                    ADSC9   NEWPLUG2$+1,,AUTO        cn=0,n=4
        18 003151   204526 236100                    LDQ     NEWPLUG2$+1,,AUTO
        18 003152   000022 732000                    QRS     18
        18 003153   204514 036100                    ADLQ    PATH_COST,,AUTO
PL6.E3A0      #001=Z8E3$ERROR_CORR_DD File=Z8E3.:Z8A6TSI                         SAT 08/09/97 11:28 Page:72
        18 003154   200215 471500                    LDP1    NEXTSTAGE$,,AUTO
        18 003155   204511 721100                    LXL1    NEXTITEM,,AUTO
        18 003156   100000 473511                    LDP3    0,X1,PR1
        18 003157   000100 100500                    MLR     fill='000'O
        18 003160   300000 000002                    ADSC9   0,,PR3                   cn=0,n=2
        18 003161   204527 000004                    ADSC9   NEWPLUG2$+2,,AUTO        cn=0,n=4
        18 003162   204530 756100                    STQ     NEWPLUG2$+3,,AUTO
        18 003163   204527 236100                    LDQ     NEWPLUG2$+2,,AUTO
        18 003164   000022 732000                    QRS     18
        18 003165   204531 756100                    STQ     NEWPLUG2$+4,,AUTO
        18 003166   204530 236100                    LDQ     NEWPLUG2$+3,,AUTO
        18 003167   204531 116100                    CMPQ    NEWPLUG2$+4,,AUTO
        18 003170   003337 605000 18                 TPL     s:9155

   9142 18 003171   100000 473511                    LDP3    0,X1,PR1
        18 003172   000000 474510                    LDP4    0,X0,PR0
        18 003173   000100 100500                    MLR     fill='000'O
        18 003174   400000 000316                    ADSC9   0,,PR4                   cn=0,n=206
        18 003175   300000 000316                    ADSC9   0,,PR3                   cn=0,n=206

   9144 18 003176   204512 236100                    LDQ     P,,AUTO
        18 003177   000017 402007                    MPY     15,DL
        18 003200   000000 116003                    CMPQ    0,DU
        18 003201   003203 605000 18                 TPL     s:9144+5
        18 003202   000044 036003                    ADLQ    36,DU
        18 003203   003100 060406                    CSL     bolr='003'O
        18 003204   000000 000013 xsym               BDSC    DD_PATH,Q                by=0,bit=0,n=11
        18 003205   204526 000044                    BDSC    NEWPLUG2$+1,,AUTO        by=0,bit=0,n=36
        18 003206   204526 236100                    LDQ     NEWPLUG2$+1,,AUTO
        18 003207   000031 732000                    QRS     25
        18 003210   204513 756100                    STQ     PE,,AUTO
        18 003211   003272 710000 18                 TRA     s:9151+1

   9145 18 003212   200215 470500                    LDP0    NEXTSTAGE$,,AUTO
        18 003213   204511 720100                    LXL0    NEXTITEM,,AUTO
        18 003214   000000 471510                    LDP1    0,X0,PR0
        18 003215   000100 100500                    MLR     fill='000'O
PL6.E3A0      #001=Z8E3$ERROR_CORR_DD File=Z8E3.:Z8A6TSI                         SAT 08/09/97 11:28 Page:73
        18 003216   100000 400002                    ADSC9   0,,PR1                   cn=2,n=2
        18 003217   204526 000004                    ADSC9   NEWPLUG2$+1,,AUTO        cn=0,n=4
        18 003220   204526 236100                    LDQ     NEWPLUG2$+1,,AUTO
        18 003221   000022 732000                    QRS     18
        18 003222   000144 116007                    CMPQ    100,DL
        18 003223   003226 604000 18                 TMI     s:9147

   9146 18 003224   000454 701000 18                 TSX1    ABORT_CORRECTION
        18 003225   000000 011000                    NOP     0

   9147 18 003226   200215 470500                    LDP0    NEXTSTAGE$,,AUTO
        18 003227   204511 720100                    LXL0    NEXTITEM,,AUTO
        18 003230   000000 471510                    LDP1    0,X0,PR0
        18 003231   000100 100500                    MLR     fill='000'O
        18 003232   100000 400002                    ADSC9   0,,PR1                   cn=2,n=2
        18 003233   204526 000004                    ADSC9   NEWPLUG2$+1,,AUTO        cn=0,n=4
        18 003234   204526 236100                    LDQ     NEWPLUG2$+1,,AUTO
        18 003235   000022 732000                    QRS     18
        18 003236   204527 756100                    STQ     NEWPLUG2$+2,,AUTO
        18 003237   204513 236100                    LDQ     PE,,AUTO
        18 003240   000013 402007                    MPY     11,DL
        18 003241   000000 116003                    CMPQ    0,DU
        18 003242   003244 605000 18                 TPL     s:9147+14
        18 003243   000044 036003                    ADLQ    36,DU
        18 003244   204530 756100                    STQ     NEWPLUG2$+3,,AUTO
        18 003245   204527 236100                    LDQ     NEWPLUG2$+2,,AUTO
        18 003246   000022 402007                    MPY     18,DL
        18 003247   000000 116003                    CMPQ    0,DU
        18 003250   003252 605000 18                 TPL     s:9147+20
        18 003251   000044 036003                    ADLQ    36,DU
        18 003252   204530 235100                    LDA     NEWPLUG2$+3,,AUTO
        18 003253   003106 061405                    CSR     bolr='003'O
        18 003254   000000 000013 xsym               BDSC    DD_PATH_ELEM,A           by=0,bit=0,n=11
        18 003255   100001 000022                    BDSC    1,Q,PR1                  by=0,bit=0,n=18

   9149 18 003256   000000 471510                    LDP1    0,X0,PR0
        18 003257   000100 100500                    MLR     fill='000'O
PL6.E3A0      #001=Z8E3$ERROR_CORR_DD File=Z8E3.:Z8A6TSI                         SAT 08/09/97 11:28 Page:74
        18 003260   100000 400002                    ADSC9   0,,PR1                   cn=2,n=2
        18 003261   204527 000004                    ADSC9   NEWPLUG2$+2,,AUTO        cn=0,n=4
        18 003262   204527 236100                    LDQ     NEWPLUG2$+2,,AUTO
        18 003263   000022 732000                    QRS     18
        18 003264   000001 036007                    ADLQ    1,DL
        18 003265   204526 756100                    STQ     NEWPLUG2$+1,,AUTO
        18 003266   000100 101500                    MRL     fill='000'O
        18 003267   204526 000004                    ADSC9   NEWPLUG2$+1,,AUTO        cn=0,n=4
        18 003270   100000 400002                    ADSC9   0,,PR1                   cn=2,n=2

   9151 18 003271   204513 054100                    AOS     PE,,AUTO
        18 003272   204512 236100                    LDQ     P,,AUTO
        18 003273   000017 402007                    MPY     15,DL
        18 003274   000000 116003                    CMPQ    0,DU
        18 003275   003277 605000 18                 TPL     s:9151+6
        18 003276   000044 036003                    ADLQ    36,DU
        18 003277   003100 061406                    CSR     bolr='003'O
        18 003300   000000 220004 xsym               BDSC    DD_PATH,Q                by=1,bit=2,n=4
        18 003301   204526 000044                    BDSC    NEWPLUG2$+1,,AUTO        by=0,bit=0,n=36
        18 003302   204512 236100                    LDQ     P,,AUTO
        18 003303   000017 402007                    MPY     15,DL
        18 003304   000000 116003                    CMPQ    0,DU
        18 003305   003307 605000 18                 TPL     s:9151+14
        18 003306   000044 036003                    ADLQ    36,DU
        18 003307   003100 060406                    CSL     bolr='003'O
        18 003310   000000 000013 xsym               BDSC    DD_PATH,Q                by=0,bit=0,n=11
        18 003311   204527 000044                    BDSC    NEWPLUG2$+2,,AUTO        by=0,bit=0,n=36
        18 003312   204527 236100                    LDQ     NEWPLUG2$+2,,AUTO
        18 003313   000031 732000                    QRS     25
        18 003314   204526 036100                    ADLQ    NEWPLUG2$+1,,AUTO
        18 003315   204513 116100                    CMPQ    PE,,AUTO
        18 003316   003212 605400 18                 TPNZ    s:9145

   9153 18 003317   200215 470500                    LDP0    NEXTSTAGE$,,AUTO
        18 003320   204511 720100                    LXL0    NEXTITEM,,AUTO
        18 003321   000000 471510                    LDP1    0,X0,PR0
        18 003322   200214 473500                    LDP3    CURRSTAGE$,,AUTO
PL6.E3A0      #001=Z8E3$ERROR_CORR_DD File=Z8E3.:Z8A6TSI                         SAT 08/09/97 11:28 Page:75
        18 003323   204506 721100                    LXL1    ITM,,AUTO
        18 003324   300000 474511                    LDP4    0,X1,PR3
        18 003325   000100 100500                    MLR     fill='000'O
        18 003326   400000 000002                    ADSC9   0,,PR4                   cn=0,n=2
        18 003327   204526 000004                    ADSC9   NEWPLUG2$+1,,AUTO        cn=0,n=4
        18 003330   204526 236100                    LDQ     NEWPLUG2$+1,,AUTO
        18 003331   000022 732000                    QRS     18
        18 003332   204514 036100                    ADLQ    PATH_COST,,AUTO
        18 003333   204527 756100                    STQ     NEWPLUG2$+2,,AUTO
        18 003334   000100 101500                    MRL     fill='000'O
        18 003335   204527 000004                    ADSC9   NEWPLUG2$+2,,AUTO        cn=0,n=4
        18 003336   100000 000002                    ADSC9   0,,PR1                   cn=0,n=2

   9155 18 003337   204511 054100                    AOS     NEXTITEM,,AUTO
        18 003340   204510 236100                    LDQ     NEXTHIGHBASIS,,AUTO
        18 003341   204507 136100                    SBLQ    NEXTLOWBASIS,,AUTO
        18 003342   204511 116100                    CMPQ    NEXTITEM,,AUTO
        18 003343   003030 605000 18                 TPL     s:9128

   9159 18 003344   200214 470500                    LDP0    CURRSTAGE$,,AUTO
        18 003345   204506 720100                    LXL0    ITM,,AUTO
        18 003346   000000 471510                    LDP1    0,X0,PR0
        18 003347   000100 100500                    MLR     fill='000'O
        18 003350   100000 000002                    ADSC9   0,,PR1                   cn=0,n=2
        18 003351   204526 000004                    ADSC9   NEWPLUG2$+1,,AUTO        cn=0,n=4
        18 003352   204526 236100                    LDQ     NEWPLUG2$+1,,AUTO
        18 003353   000022 732000                    QRS     18
        18 003354   200101 116100                    CMPQ    LR+4,,AUTO
        18 003355   004107 605000 18                 TPL     s:9238

   9161 18 003356   303237 235007                    LDA     99999,DL
        18 003357   200205 755100                    STA     MINCOST,,AUTO

   9164 18 003360   204501 236100                    LDQ     PRED_ITEM,,AUTO
        18 003361   000005 736000                    QLS     5
        18 003362   003364 605000 18                 TPL     s:9164+4
        18 003363   000044 036003                    ADLQ    36,DU
PL6.E3A0      #001=Z8E3$ERROR_CORR_DD File=Z8E3.:Z8A6TSI                         SAT 08/09/97 11:28 Page:76
        18 003364   003100 061406                    CSR     bolr='003'O
        18 003365   000000 300012 xsym               BDSC    DD_ITEM,Q                by=1,bit=8,n=10
        18 003366   204512 000044                    BDSC    P,,AUTO                  by=0,bit=0,n=36
        18 003367   003630 710000 18                 TRA     s:9206+1

   9167 18 003370   200212 450100                    STZ     TRYCOST,,AUTO

   9168 18 003371   200213 450100                    STZ     ACCUM_COST,,AUTO

   9169 18 003372   204512 236100                    LDQ     P,,AUTO
        18 003373   000017 402007                    MPY     15,DL
        18 003374   000000 116003                    CMPQ    0,DU
        18 003375   003377 605000 18                 TPL     s:9169+5
        18 003376   000044 036003                    ADLQ    36,DU
        18 003377   003100 060406                    CSL     bolr='003'O
        18 003400   000000 000013 xsym               BDSC    DD_PATH,Q                by=0,bit=0,n=11
        18 003401   204526 000044                    BDSC    NEWPLUG2$+1,,AUTO        by=0,bit=0,n=36
        18 003402   204526 236100                    LDQ     NEWPLUG2$+1,,AUTO
        18 003403   000031 732000                    QRS     25
        18 003404   000000 116003                    CMPQ    0,DU
        18 003405   003627 604000 18                 TMI     s:9206

   9170 18 003406   204512 236100                    LDQ     P,,AUTO
        18 003407   000017 402007                    MPY     15,DL
        18 003410   000000 116003                    CMPQ    0,DU
        18 003411   003413 605000 18                 TPL     s:9170+5
        18 003412   000044 036003                    ADLQ    36,DU
        18 003413   003100 060406                    CSL     bolr='003'O
        18 003414   000000 000013 xsym               BDSC    DD_PATH,Q                by=0,bit=0,n=11
        18 003415   204526 000044                    BDSC    NEWPLUG2$+1,,AUTO        by=0,bit=0,n=36
        18 003416   204526 236100                    LDQ     NEWPLUG2$+1,,AUTO
        18 003417   000031 732000                    QRS     25
        18 003420   204513 756100                    STQ     PE,,AUTO
        18 003421   003602 710000 18                 TRA     s:9205+1

   9171 18 003422   204513 236100                    LDQ     PE,,AUTO
        18 003423   000013 402007                    MPY     11,DL
PL6.E3A0      #001=Z8E3$ERROR_CORR_DD File=Z8E3.:Z8A6TSI                         SAT 08/09/97 11:28 Page:77
        18 003424   000000 116003                    CMPQ    0,DU
        18 003425   003427 605000 18                 TPL     s:9171+5
        18 003426   000044 036003                    ADLQ    36,DU
        18 003427   003100 061406                    CSR     bolr='003'O
        18 003430   000000 000013 xsym               BDSC    DD_PATH_ELEM,Q           by=0,bit=0,n=11
        18 003431   204515 000022                    BDSC    PELEM,,AUTO              by=0,bit=0,n=18

   9174 18 003432   200077 235100                    LDA     LR+2,,AUTO
        18 003433   000003 735000                    ALS     3
        18 003434   000242 236005 xsym               LDQ     O1COM+162,AL
        18 003435   000015 402007                    MPY     13,DL
        18 003436   000000 116003                    CMPQ    0,DU
        18 003437   003441 605000 18                 TPL     s:9174+7
        18 003440   000044 036003                    ADLQ    36,DU
        18 003441   003100 061406                    CSR     bolr='003'O
        18 003442   000000 000015 xsym               BDSC    DD_LCP_UBOUND,Q          by=0,bit=0,n=13
        18 003443   200177 000044                    BDSC    H,,AUTO                  by=0,bit=0,n=36

   9175 18 003444   200077 235100                    LDA     LR+2,,AUTO
        18 003445   000003 735000                    ALS     3
        18 003446   000242 236005 xsym               LDQ     O1COM+162,AL
        18 003447   000015 402007                    MPY     13,DL
        18 003450   000000 116003                    CMPQ    0,DU
        18 003451   003453 605000 18                 TPL     s:9175+7
        18 003452   000044 036003                    ADLQ    36,DU
        18 003453   003100 061406                    CSR     bolr='003'O
        18 003454   777777 450015 xsym               BDSC    DD_LCP_UBOUND-1,Q        by=2,bit=5,n=13
        18 003455   204526 000044                    BDSC    NEWPLUG2$+1,,AUTO        by=0,bit=0,n=36
        18 003456   204526 236100                    LDQ     NEWPLUG2$+1,,AUTO
        18 003457   000001 036007                    ADLQ    1,DL
        18 003460   200200 756100                    STQ     L,,AUTO

   9176 18 003461   000001 335007                    LCA     1,DL
        18 003462   200211 755100                    STA     LCP_ELEM_RET,,AUTO

   9177 18 003463   200177 116100                    CMPQ    H,,AUTO
        18 003464   003466 600000 18                 TZE     s:9178
PL6.E3A0      #001=Z8E3$ERROR_CORR_DD File=Z8E3.:Z8A6TSI                         SAT 08/09/97 11:28 Page:78
        18 003465   003533 603000 18                 TRC     s:9193

   9178 18 003466   200200 236100                    LDQ     L,,AUTO
        18 003467   200177 036100                    ADLQ    H,,AUTO
        18 003470   000001 772000                    QRL     1
        18 003471   200201 756100                    STQ     M,,AUTO

   9179 18 003472   000054 402007                    MPY     44,DL
        18 003473   003100 061406                    CSR     bolr='003'O
        18 003474   000000 000022 xsym               BDSC    DD_LCP,Q                 by=0,bit=0,n=18
        18 003475   204526 000044                    BDSC    NEWPLUG2$+1,,AUTO        by=0,bit=0,n=36
        18 003476   204515 236100                    LDQ     PELEM,,AUTO
        18 003477   000022 772000                    QRL     18
        18 003500   204526 116100                    CMPQ    NEWPLUG2$+1,,AUTO
        18 003501   003510 601000 18                 TNZ     s:9185

   9181 18 003502   200201 235100                    LDA     M,,AUTO
        18 003503   200211 755100                    STA     LCP_ELEM_RET,,AUTO

   9182 18 003504   200200 235100                    LDA     L,,AUTO
        18 003505   000001 135007                    SBLA    1,DL
        18 003506   200177 755100                    STA     H,,AUTO

   9183 18 003507   003530 710000 18                 TRA     s:9189

   9185 18 003510   200201 236100                    LDQ     M,,AUTO
        18 003511   000054 402007                    MPY     44,DL
        18 003512   003100 061406                    CSR     bolr='003'O
        18 003513   000000 000022 xsym               BDSC    DD_LCP,Q                 by=0,bit=0,n=18
        18 003514   204526 000044                    BDSC    NEWPLUG2$+1,,AUTO        by=0,bit=0,n=36
        18 003515   204515 236100                    LDQ     PELEM,,AUTO
        18 003516   000022 772000                    QRL     18
        18 003517   204526 116100                    CMPQ    NEWPLUG2$+1,,AUTO
        18 003520   003525 605000 18                 TPL     s:9188

   9186 18 003521   200201 235100                    LDA     M,,AUTO
        18 003522   000001 135007                    SBLA    1,DL
PL6.E3A0      #001=Z8E3$ERROR_CORR_DD File=Z8E3.:Z8A6TSI                         SAT 08/09/97 11:28 Page:79
        18 003523   200177 755100                    STA     H,,AUTO
        18 003524   003530 710000 18                 TRA     s:9189

   9188 18 003525   200201 235100                    LDA     M,,AUTO
        18 003526   000001 035007                    ADLA    1,DL
        18 003527   200200 755100                    STA     L,,AUTO

   9189 18 003530   200177 236100                    LDQ     H,,AUTO
        18 003531   200200 116100                    CMPQ    L,,AUTO
        18 003532   003466 603000 18                 TRC     s:9178

   9193 18 003533   200211 235100                    LDA     LCP_ELEM_RET,,AUTO
        18 003534   003561 604000 18                 TMI     s:9204

   9195 18 003535   200211 236100                    LDQ     LCP_ELEM_RET,,AUTO
        18 003536   000054 402007                    MPY     44,DL
        18 003537   000000 116003                    CMPQ    0,DU
        18 003540   003542 605000 18                 TPL     s:9195+5
        18 003541   000044 036003                    ADLQ    36,DU
        18 003542   003100 061406                    CSR     bolr='003'O
        18 003543   000000 400011 xsym               BDSC    DD_LCP,Q                 by=2,bit=0,n=9
        18 003544   204526 000044                    BDSC    NEWPLUG2$+1,,AUTO        by=0,bit=0,n=36
        18 003545   204526 236100                    LDQ     NEWPLUG2$+1,,AUTO
        18 003546   200213 036100                    ADLQ    ACCUM_COST,,AUTO
        18 003547   200212 756100                    STQ     TRYCOST,,AUTO

   9196 18 003550   200205 116100                    CMPQ    MINCOST,,AUTO
        18 003551   003561 605000 18                 TPL     s:9204

   9198 18 003552   204512 235100                    LDA     P,,AUTO
        18 003553   200210 755100                    STA     MINPATH,,AUTO

   9199 18 003554   204513 235100                    LDA     PE,,AUTO
        18 003555   200206 755100                    STA     MINPOS,,AUTO

   9200 18 003556   200205 756100                    STQ     MINCOST,,AUTO

PL6.E3A0      #001=Z8E3$ERROR_CORR_DD File=Z8E3.:Z8A6TSI                         SAT 08/09/97 11:28 Page:80
   9201 18 003557   200211 235100                    LDA     LCP_ELEM_RET,,AUTO
        18 003560   200207 755100                    STA     MINLCPINDX,,AUTO

   9204 18 003561   204513 236100                    LDQ     PE,,AUTO
        18 003562   000013 402007                    MPY     11,DL
        18 003563   000000 116003                    CMPQ    0,DU
        18 003564   003566 605000 18                 TPL     s:9204+5
        18 003565   000044 036003                    ADLQ    36,DU
        18 003566   003100 061406                    CSR     bolr='003'O
        18 003567   000000 000013 xsym               BDSC    DD_PATH_ELEM,Q           by=0,bit=0,n=11
        18 003570   204526 000044                    BDSC    NEWPLUG2$+1,,AUTO        by=0,bit=0,n=36
        18 003571   204526 236100                    LDQ     NEWPLUG2$+1,,AUTO
        18 003572   000036 402007                    MPY     30,DL
        18 003573   003100 061406                    CSR     bolr='003'O
        18 003574   000000 000021 xsym               BDSC    DD_LCS,Q                 by=0,bit=0,n=17
        18 003575   204527 000044                    BDSC    NEWPLUG2$+2,,AUTO        by=0,bit=0,n=36
        18 003576   204527 236100                    LDQ     NEWPLUG2$+2,,AUTO
        18 003577   200213 036100                    ADLQ    ACCUM_COST,,AUTO
        18 003600   200213 756100                    STQ     ACCUM_COST,,AUTO

   9205 18 003601   204513 054100                    AOS     PE,,AUTO
        18 003602   204512 236100                    LDQ     P,,AUTO
        18 003603   000017 402007                    MPY     15,DL
        18 003604   000000 116003                    CMPQ    0,DU
        18 003605   003607 605000 18                 TPL     s:9205+6
        18 003606   000044 036003                    ADLQ    36,DU
        18 003607   003100 061406                    CSR     bolr='003'O
        18 003610   000000 220004 xsym               BDSC    DD_PATH,Q                by=1,bit=2,n=4
        18 003611   204526 000044                    BDSC    NEWPLUG2$+1,,AUTO        by=0,bit=0,n=36
        18 003612   204512 236100                    LDQ     P,,AUTO
        18 003613   000017 402007                    MPY     15,DL
        18 003614   000000 116003                    CMPQ    0,DU
        18 003615   003617 605000 18                 TPL     s:9205+14
        18 003616   000044 036003                    ADLQ    36,DU
        18 003617   003100 060406                    CSL     bolr='003'O
        18 003620   000000 000013 xsym               BDSC    DD_PATH,Q                by=0,bit=0,n=11
        18 003621   204527 000044                    BDSC    NEWPLUG2$+2,,AUTO        by=0,bit=0,n=36
PL6.E3A0      #001=Z8E3$ERROR_CORR_DD File=Z8E3.:Z8A6TSI                         SAT 08/09/97 11:28 Page:81
        18 003622   204527 236100                    LDQ     NEWPLUG2$+2,,AUTO
        18 003623   000031 732000                    QRS     25
        18 003624   204526 036100                    ADLQ    NEWPLUG2$+1,,AUTO
        18 003625   204513 116100                    CMPQ    PE,,AUTO
        18 003626   003422 605400 18                 TPNZ    s:9171

   9206 18 003627   204512 054100                    AOS     P,,AUTO
        18 003630   204501 235100                    LDA     PRED_ITEM,,AUTO
        18 003631   000005 735000                    ALS     5
        18 003632   003634 605000 18                 TPL     s:9206+5
        18 003633   000044 035003                    ADLA    36,DU
        18 003634   003100 061405                    CSR     bolr='003'O
        18 003635   000000 600005 xsym               BDSC    DD_ITEM,A                by=3,bit=0,n=5
        18 003636   204526 000044                    BDSC    NEWPLUG2$+1,,AUTO        by=0,bit=0,n=36
        18 003637   204501 235100                    LDA     PRED_ITEM,,AUTO
        18 003640   000005 735000                    ALS     5
        18 003641   003643 605000 18                 TPL     s:9206+12
        18 003642   000044 035003                    ADLA    36,DU
        18 003643   003100 061405                    CSR     bolr='003'O
        18 003644   000000 300012 xsym               BDSC    DD_ITEM,A                by=1,bit=8,n=10
        18 003645   204527 000044                    BDSC    NEWPLUG2$+2,,AUTO        by=0,bit=0,n=36
        18 003646   204527 236100                    LDQ     NEWPLUG2$+2,,AUTO
        18 003647   204526 036100                    ADLQ    NEWPLUG2$+1,,AUTO
        18 003650   003370 604000 18                 TMI     s:9167
        18 003651   204512 116100                    CMPQ    P,,AUTO
        18 003652   003370 605400 18                 TPNZ    s:9167

   9207 18 003653   200214 470500                    LDP0    CURRSTAGE$,,AUTO
        18 003654   204506 720100                    LXL0    ITM,,AUTO
        18 003655   000000 471510                    LDP1    0,X0,PR0
        18 003656   000100 100500                    MLR     fill='000'O
        18 003657   100000 000002                    ADSC9   0,,PR1                   cn=0,n=2
        18 003660   204526 000004                    ADSC9   NEWPLUG2$+1,,AUTO        cn=0,n=4
        18 003661   204526 236100                    LDQ     NEWPLUG2$+1,,AUTO
        18 003662   000022 732000                    QRS     18
        18 003663   200205 036100                    ADLQ    MINCOST,,AUTO
        18 003664   200101 116100                    CMPQ    LR+4,,AUTO
PL6.E3A0      #001=Z8E3$ERROR_CORR_DD File=Z8E3.:Z8A6TSI                         SAT 08/09/97 11:28 Page:82
        18 003665   004107 605000 18                 TPL     s:9238

   9210 18 003666   000000 471510                    LDP1    0,X0,PR0
        18 003667   000100 100500                    MLR     fill='000'O
        18 003670   100000 400002                    ADSC9   0,,PR1                   cn=2,n=2
        18 003671   204526 000004                    ADSC9   NEWPLUG2$+1,,AUTO        cn=0,n=4
        18 003672   204526 236100                    LDQ     NEWPLUG2$+1,,AUTO
        18 003673   000022 732000                    QRS     18
        18 003674   200100 756100                    STQ     LR+3,,AUTO

   9211 18 003675   000000 471510                    LDP1    0,X0,PR0
        18 003676   000100 100500                    MLR     fill='000'O
        18 003677   100001 000312                    ADSC9   1,,PR1                   cn=0,n=202
        18 003700   200102 000312                    ADSC9   LR+5,,AUTO               cn=0,n=202

   9212 18 003701   000000 471510                    LDP1    0,X0,PR0
        18 003702   000100 100500                    MLR     fill='000'O
        18 003703   100000 000002                    ADSC9   0,,PR1                   cn=0,n=2
        18 003704   204526 000004                    ADSC9   NEWPLUG2$+1,,AUTO        cn=0,n=4
        18 003705   204526 236100                    LDQ     NEWPLUG2$+1,,AUTO
        18 003706   000022 732000                    QRS     18
        18 003707   200205 036100                    ADLQ    MINCOST,,AUTO
        18 003710   200101 756100                    STQ     LR+4,,AUTO

   9214 18 003711   200210 236100                    LDQ     MINPATH,,AUTO
        18 003712   000017 402007                    MPY     15,DL
        18 003713   000000 116003                    CMPQ    0,DU
        18 003714   003716 605000 18                 TPL     s:9214+5
        18 003715   000044 036003                    ADLQ    36,DU
        18 003716   003100 060406                    CSL     bolr='003'O
        18 003717   000000 000013 xsym               BDSC    DD_PATH,Q                by=0,bit=0,n=11
        18 003720   204526 000044                    BDSC    NEWPLUG2$+1,,AUTO        by=0,bit=0,n=36
        18 003721   204526 236100                    LDQ     NEWPLUG2$+1,,AUTO
        18 003722   000031 732000                    QRS     25
        18 003723   204513 756100                    STQ     PE,,AUTO
        18 003724   003753 710000 18                 TRA     s:9219+1

PL6.E3A0      #001=Z8E3$ERROR_CORR_DD File=Z8E3.:Z8A6TSI                         SAT 08/09/97 11:28 Page:83
   9215 18 003725   200100 235100                    LDA     LR+3,,AUTO
        18 003726   000144 115007                    CMPA    100,DL
        18 003727   003732 604000 18                 TMI     s:9217

   9216 18 003730   000454 701000 18                 TSX1    ABORT_CORRECTION
        18 003731   000000 011000                    NOP     0

   9217 18 003732   204513 236100                    LDQ     PE,,AUTO
        18 003733   000013 402007                    MPY     11,DL
        18 003734   000000 116003                    CMPQ    0,DU
        18 003735   003737 605000 18                 TPL     s:9217+5
        18 003736   000044 036003                    ADLQ    36,DU
        18 003737   204526 756100                    STQ     NEWPLUG2$+1,,AUTO
        18 003740   200100 236100                    LDQ     LR+3,,AUTO
        18 003741   000022 402007                    MPY     18,DL
        18 003742   000000 116003                    CMPQ    0,DU
        18 003743   003745 605000 18                 TPL     s:9217+11
        18 003744   000044 036003                    ADLQ    36,DU
        18 003745   204526 235100                    LDA     NEWPLUG2$+1,,AUTO
        18 003746   003106 061405                    CSR     bolr='003'O
        18 003747   000000 000013 xsym               BDSC    DD_PATH_ELEM,A           by=0,bit=0,n=11
        18 003750   200102 000022                    BDSC    LR+5,Q,AUTO              by=0,bit=0,n=18

   9218 18 003751   200100 054100                    AOS     LR+3,,AUTO

   9219 18 003752   204513 054100                    AOS     PE,,AUTO
        18 003753   204513 236100                    LDQ     PE,,AUTO
        18 003754   200206 116100                    CMPQ    MINPOS,,AUTO
        18 003755   003725 604000 18                 TMI     s:9215

   9220 18 003756   200207 236100                    LDQ     MINLCPINDX,,AUTO
        18 003757   000054 402007                    MPY     44,DL
        18 003760   000000 116003                    CMPQ    0,DU
        18 003761   003763 605000 18                 TPL     s:9220+5
        18 003762   000044 036003                    ADLQ    36,DU
        18 003763   003100 061406                    CSR     bolr='003'O
        18 003764   000001 030005 xsym               BDSC    DD_LCP+1,Q               by=0,bit=3,n=5
PL6.E3A0      #001=Z8E3$ERROR_CORR_DD File=Z8E3.:Z8A6TSI                         SAT 08/09/97 11:28 Page:84
        18 003765   204526 000044                    BDSC    NEWPLUG2$+1,,AUTO        by=0,bit=0,n=36
        18 003766   204526 236100                    LDQ     NEWPLUG2$+1,,AUTO
        18 003767   200100 036100                    ADLQ    LR+3,,AUTO
        18 003770   000144 116007                    CMPQ    100,DL
        18 003771   003774 604400 18                 TMOZ    s:9223

   9221 18 003772   000454 701000 18                 TSX1    ABORT_CORRECTION
        18 003773   000000 011000                    NOP     0

   9223 18 003774   200207 236100                    LDQ     MINLCPINDX,,AUTO
        18 003775   000054 402007                    MPY     44,DL
        18 003776   000000 116003                    CMPQ    0,DU
        18 003777   004001 605000 18                 TPL     s:9223+5
        18 004000   000044 036003                    ADLQ    36,DU
        18 004001   003100 061406                    CSR     bolr='003'O
        18 004002   000000 600014 xsym               BDSC    DD_LCP,Q                 by=3,bit=0,n=12
        18 004003   200173 000044                    BDSC    I,,AUTO                  by=0,bit=0,n=36
        18 004004   004026 710000 18                 TRA     s:9228+1

   9226 18 004005   200173 236100                    LDQ     I,,AUTO
        18 004006   000013 402007                    MPY     11,DL
        18 004007   000000 116003                    CMPQ    0,DU
        18 004010   004012 605000 18                 TPL     s:9226+5
        18 004011   000044 036003                    ADLQ    36,DU
        18 004012   204526 756100                    STQ     NEWPLUG2$+1,,AUTO
        18 004013   200100 236100                    LDQ     LR+3,,AUTO
        18 004014   000022 402007                    MPY     18,DL
        18 004015   000000 116003                    CMPQ    0,DU
        18 004016   004020 605000 18                 TPL     s:9226+11
        18 004017   000044 036003                    ADLQ    36,DU
        18 004020   204526 235100                    LDA     NEWPLUG2$+1,,AUTO
        18 004021   003106 061405                    CSR     bolr='003'O
        18 004022   000000 000013 xsym               BDSC    DD_LCP_ELEM,A            by=0,bit=0,n=11
        18 004023   200102 000022                    BDSC    LR+5,Q,AUTO              by=0,bit=0,n=18

   9227 18 004024   200100 054100                    AOS     LR+3,,AUTO

PL6.E3A0      #001=Z8E3$ERROR_CORR_DD File=Z8E3.:Z8A6TSI                         SAT 08/09/97 11:28 Page:85
   9228 18 004025   200173 054100                    AOS     I,,AUTO
        18 004026   200207 236100                    LDQ     MINLCPINDX,,AUTO
        18 004027   000054 402007                    MPY     44,DL
        18 004030   000000 116003                    CMPQ    0,DU
        18 004031   004033 605000 18                 TPL     s:9228+6
        18 004032   000044 036003                    ADLQ    36,DU
        18 004033   003100 061406                    CSR     bolr='003'O
        18 004034   000001 030005 xsym               BDSC    DD_LCP+1,Q               by=0,bit=3,n=5
        18 004035   204526 000044                    BDSC    NEWPLUG2$+1,,AUTO        by=0,bit=0,n=36
        18 004036   200207 236100                    LDQ     MINLCPINDX,,AUTO
        18 004037   000054 402007                    MPY     44,DL
        18 004040   000000 116003                    CMPQ    0,DU
        18 004041   004043 605000 18                 TPL     s:9228+14
        18 004042   000044 036003                    ADLQ    36,DU
        18 004043   003100 061406                    CSR     bolr='003'O
        18 004044   000000 600014 xsym               BDSC    DD_LCP,Q                 by=3,bit=0,n=12
        18 004045   204527 000044                    BDSC    NEWPLUG2$+2,,AUTO        by=0,bit=0,n=36
        18 004046   204527 236100                    LDQ     NEWPLUG2$+2,,AUTO
        18 004047   204526 036100                    ADLQ    NEWPLUG2$+1,,AUTO
        18 004050   004005 604000 18                 TMI     s:9226
        18 004051   200173 116100                    CMPQ    I,,AUTO
        18 004052   004005 605400 18                 TPNZ    s:9226

   9232 18 004053   004107 710000 18                 TRA     s:9238

   9235 18 004054   200214 470500                    LDP0    CURRSTAGE$,,AUTO
        18 004055   204506 721100                    LXL1    ITM,,AUTO
        18 004056   000000 471511                    LDP1    0,X1,PR0
        18 004057   204501 236100                    LDQ     PRED_ITEM,,AUTO
        18 004060   204507 136100                    SBLQ    NEXTLOWBASIS,,AUTO
        18 004061   200215 473500                    LDP3    NEXTSTAGE$,,AUTO
        18 004062   300000 474506                    LDP4    0,QL,PR3
        18 004063   000100 100500                    MLR     fill='000'O
        18 004064   400000 000002                    ADSC9   0,,PR4                   cn=0,n=2
        18 004065   204526 000004                    ADSC9   NEWPLUG2$+1,,AUTO        cn=0,n=4
        18 004066   204526 236100                    LDQ     NEWPLUG2$+1,,AUTO
        18 004067   000022 732000                    QRS     18
PL6.E3A0      #001=Z8E3$ERROR_CORR_DD File=Z8E3.:Z8A6TSI                         SAT 08/09/97 11:28 Page:86
        18 004070   204527 756100                    STQ     NEWPLUG2$+2,,AUTO
        18 004071   000100 100500                    MLR     fill='000'O
        18 004072   100000 000002                    ADSC9   0,,PR1                   cn=0,n=2
        18 004073   204530 000004                    ADSC9   NEWPLUG2$+3,,AUTO        cn=0,n=4
        18 004074   204530 236100                    LDQ     NEWPLUG2$+3,,AUTO
        18 004075   000022 732000                    QRS     18
        18 004076   204527 116100                    CMPQ    NEWPLUG2$+2,,AUTO
        18 004077   004107 605000 18                 TPL     s:9238

   9236 18 004100   204501 236100                    LDQ     PRED_ITEM,,AUTO
        18 004101   204507 136100                    SBLQ    NEXTLOWBASIS,,AUTO
        18 004102   300000 471506                    LDP1    0,QL,PR3
        18 004103   000000 474511                    LDP4    0,X1,PR0
        18 004104   000100 100500                    MLR     fill='000'O
        18 004105   400000 000316                    ADSC9   0,,PR4                   cn=0,n=206
        18 004106   100000 000316                    ADSC9   0,,PR1                   cn=0,n=206

   9238 18 004107   204506 054100                    AOS     ITM,,AUTO
        18 004110   204505 236100                    LDQ     CURRHIGHBASIS,,AUTO
        18 004111   204504 136100                    SBLQ    CURRLOWBASIS,,AUTO
        18 004112   204506 116100                    CMPQ    ITM,,AUTO
        18 004113   002753 605000 18                 TPL     s:9104

   9240 18 004114   200175 235100                    LDA     K,,AUTO
        18 004115   000001 115007                    CMPA    1,DL
        18 004116   004120 605400 18                 TPNZ    s:9243

   9241 18 004117   204503 450100                    STZ     WORTHCONTINUING,,AUTO

   9243 18 004120   204503 234100                    SZN     WORTHCONTINUING,,AUTO
        18 004121   004126 605000 18                 TPL     s:9249

   9245 18 004122   000001 336007                    LCQ     1,DL
        18 004123   200175 056100                    ASQ     K,,AUTO

   9246 18 004124   002053 701000 18                 TSX1    NEWSTAGE
        18 004125   000000 011000                    NOP     0
PL6.E3A0      #001=Z8E3$ERROR_CORR_DD File=Z8E3.:Z8A6TSI                         SAT 08/09/97 11:28 Page:87

   9249 18 004126   204503 234100                    SZN     WORTHCONTINUING,,AUTO
        18 004127   002724 604000 18                 TMI     s:9091

   9252 18 004130   200172 221300                    LDX1  ! ACCUM_INS_TO_SYM+2,,AUTO
        18 004131   000001 702211                    TSX2  ! 1,X1

   9259 18 004132   200100 450100                    STZ     LR+3,,AUTO

   9260 18 004133   303237 235007                    LDA     99999,DL
        18 004134   200101 755100                    STA     LR+4,,AUTO

   9261 18 004135   200166 450100                    STZ     ACCUM_DEL_LEN,,AUTO

   9262 18 004136   200167 450100                    STZ     ACCUM_DEL_COST,,AUTO

   9263 18 004137   200166 236100                    LDQ     ACCUM_DEL_LEN,,AUTO
        18 004140   200075 756100                    STQ     LR,,AUTO

   9264 18 004141   200167 235100                    LDA     ACCUM_DEL_COST,,AUTO
        18 004142   200076 755100                    STA     LR+1,,AUTO

   9266 18 004143   200165 450100                    STZ     LARGE_DELETION,,AUTO

   9268 18 004144   000133 235000 xsym               LDA     O1COM+91
        18 004145   200170 755100                    STA     ACCUM_INS_TO_SYM,,AUTO

   9269 18 004146   200077 755100                    STA     LR+2,,AUTO

   9274 18 004147   002022 701000 18                 TSX1    LR_INSERT
        18 004150   000000 011000                    NOP     0

   9276 18 004151   200101 235100                    LDA     LR+4,,AUTO
        18 004152   303237 115007                    CMPA    99999,DL
        18 004153   004225 604000 18                 TMI     s:9300

   9278 18 004154   200166 054100                    AOS     ACCUM_DEL_LEN,,AUTO
PL6.E3A0      #001=Z8E3$ERROR_CORR_DD File=Z8E3.:Z8A6TSI                         SAT 08/09/97 11:28 Page:88

   9279 18 004155   200166 236100                    LDQ     ACCUM_DEL_LEN,,AUTO
        18 004156   200075 756100                    STQ     LR,,AUTO

   9280 18 004157   000106 116007                    CMPQ    70,DL
        18 004160   004163 604000 18                 TMI     s:9282

   9281 18 004161   000353 701000 18                 TSX1    CREATE_LARGE_DELETION
        18 004162   000000 011000                    NOP     0

   9282 18 004163   200170 235100                    LDA     ACCUM_INS_TO_SYM,,AUTO
        18 004164   000003 735000                    ALS     3
        18 004165   000242 236005 xsym               LDQ     O1COM+162,AL
        18 004166   000021 402007                    MPY     17,DL
        18 004167   000000 116003                    CMPQ    0,DU
        18 004170   004172 605000 18                 TPL     s:9282+7
        18 004171   000044 036003                    ADLQ    36,DU
        18 004172   003100 061406                    CSR     bolr='003'O
        18 004173   000000 000021 xsym               BDSC    DD_DEL_COST,Q            by=0,bit=0,n=17
        18 004174   204526 000044                    BDSC    NEWPLUG2$+1,,AUTO        by=0,bit=0,n=36
        18 004175   204526 236100                    LDQ     NEWPLUG2$+1,,AUTO
        18 004176   200167 036100                    ADLQ    ACCUM_DEL_COST,,AUTO
        18 004177   200167 756100                    STQ     ACCUM_DEL_COST,,AUTO

   9283 18 004200   200076 756100                    STQ     LR+1,,AUTO

   9284 18 004201   303237 116007                    CMPQ    99999,DL
        18 004202   004205 604000 18                 TMI     s:9286

   9285 18 004203   000454 701000 18                 TSX1    ABORT_CORRECTION
        18 004204   000000 011000                    NOP     0

   9286 18 004205   200075 236100                    LDQ     LR,,AUTO
        18 004206   000131 116000 xsym               CMPQ    O1COM+89
        18 004207   004220 604000 18                 TMI     s:9297

   9292 18 004210   000012 631400 19                 EPPR1   10
PL6.E3A0      #001=Z8E3$ERROR_CORR_DD File=Z8E3.:Z8A6TSI                         SAT 08/09/97 11:28 Page:89
        18 004211   000000 701000 xent               TSX1    Z8EL$LEX
        18 004212   000000 011000                    NOP     0

   9294 18 004213   000132 235000 xsym               LDA     O1COM+90
        18 004214   000003 735000                    ALS     3
        18 004215   000246 235005 xsym               LDA     O1COM+166,AL
        18 004216   000132 755000 xsym               STA     O1COM+90

   9295 18 004217   000131 054000 xsym               AOS     O1COM+89

   9297 18 004220   200170 235100                    LDA     ACCUM_INS_TO_SYM,,AUTO
        18 004221   000003 735000                    ALS     3
        18 004222   000246 235005 xsym               LDA     O1COM+166,AL
        18 004223   200170 755100                    STA     ACCUM_INS_TO_SYM,,AUTO

   9298 18 004224   200077 755100                    STA     LR+2,,AUTO

   9300 18 004225   200101 235100                    LDA     LR+4,,AUTO
        18 004226   303237 115007                    CMPA    99999,DL
        18 004227   004147 605000 18                 TPL     s:9274

   9303 18 004230   001456 701000 18                 TSX1    CHECK_CONTEXT
        18 004231   000000 011000                    NOP     0

   9305 18 004232   000100 100500                    MLR     fill='000'O
        18 004233   200075 000336                    ADSC9   LR,,AUTO                 cn=0,n=222
        18 004234   200005 000336                    ADSC9   LC,,AUTO                 cn=0,n=222

   9307 18 004235   200170 235100                    LDA     ACCUM_INS_TO_SYM,,AUTO
        18 004236   000003 735000                    ALS     3
        18 004237   000242 236005 xsym               LDQ     O1COM+162,AL
        18 004240   000021 402007                    MPY     17,DL
        18 004241   000000 116003                    CMPQ    0,DU
        18 004242   004244 605000 18                 TPL     s:9307+7
        18 004243   000044 036003                    ADLQ    36,DU
        18 004244   003100 061406                    CSR     bolr='003'O
        18 004245   000000 000021 xsym               BDSC    DD_DEL_COST,Q            by=0,bit=0,n=17
PL6.E3A0      #001=Z8E3$ERROR_CORR_DD File=Z8E3.:Z8A6TSI                         SAT 08/09/97 11:28 Page:90
        18 004246   204526 000044                    BDSC    NEWPLUG2$+1,,AUTO        by=0,bit=0,n=36
        18 004247   204526 236100                    LDQ     NEWPLUG2$+1,,AUTO
        18 004250   200167 036100                    ADLQ    ACCUM_DEL_COST,,AUTO
        18 004251   200167 756100                    STQ     ACCUM_DEL_COST,,AUTO

   9308 18 004252   200076 756100                    STQ     LR+1,,AUTO

   9310 18 004253   004342 710000 18                 TRA     s:9347

   9316 18 004254   200166 054100                    AOS     ACCUM_DEL_LEN,,AUTO

   9317 18 004255   200166 235100                    LDA     ACCUM_DEL_LEN,,AUTO
        18 004256   200075 755100                    STA     LR,,AUTO

   9318 18 004257   200075 236100                    LDQ     LR,,AUTO
        18 004260   000131 116000 xsym               CMPQ    O1COM+89
        18 004261   004272 604000 18                 TMI     s:9331

   9324 18 004262   000012 631400 19                 EPPR1   10
        18 004263   000000 701000 xent               TSX1    Z8EL$LEX
        18 004264   000000 011000                    NOP     0

   9326 18 004265   000132 235000 xsym               LDA     O1COM+90
        18 004266   000003 735000                    ALS     3
        18 004267   000246 235005 xsym               LDA     O1COM+166,AL
        18 004270   000132 755000 xsym               STA     O1COM+90

   9327 18 004271   000131 054000 xsym               AOS     O1COM+89

   9331 18 004272   200170 235100                    LDA     ACCUM_INS_TO_SYM,,AUTO
        18 004273   000003 735000                    ALS     3
        18 004274   000246 235005 xsym               LDA     O1COM+166,AL
        18 004275   200170 755100                    STA     ACCUM_INS_TO_SYM,,AUTO

   9332 18 004276   200077 755100                    STA     LR+2,,AUTO

   9335 18 004277   002022 701000 18                 TSX1    LR_INSERT
PL6.E3A0      #001=Z8E3$ERROR_CORR_DD File=Z8E3.:Z8A6TSI                         SAT 08/09/97 11:28 Page:91
        18 004300   000000 011000                    NOP     0

   9338 18 004301   200101 236100                    LDQ     LR+4,,AUTO
        18 004302   200076 036100                    ADLQ    LR+1,,AUTO
        18 004303   204526 756100                    STQ     NEWPLUG2$+1,,AUTO
        18 004304   200006 236100                    LDQ     CHECK_FIRST_SQL_PREFIX+1,,AUTO
        18 004305   200011 036100                    ADLQ    CHECK_FIRST_SQL_PREFIX+4,,AUTO
        18 004306   204526 116100                    CMPQ    NEWPLUG2$+1,,AUTO
        18 004307   004312 604400 18                 TMOZ    s:9341

   9339 18 004310   001456 701000 18                 TSX1    CHECK_CONTEXT
        18 004311   000000 011000                    NOP     0

   9341 18 004312   200101 236100                    LDQ     LR+4,,AUTO
        18 004313   200076 036100                    ADLQ    LR+1,,AUTO
        18 004314   204526 756100                    STQ     NEWPLUG2$+1,,AUTO
        18 004315   200006 236100                    LDQ     CHECK_FIRST_SQL_PREFIX+1,,AUTO
        18 004316   200011 036100                    ADLQ    CHECK_FIRST_SQL_PREFIX+4,,AUTO
        18 004317   204526 116100                    CMPQ    NEWPLUG2$+1,,AUTO
        18 004320   004324 604400 18                 TMOZ    s:9344

   9342 18 004321   000100 100500                    MLR     fill='000'O
        18 004322   200075 000336                    ADSC9   LR,,AUTO                 cn=0,n=222
        18 004323   200005 000336                    ADSC9   LC,,AUTO                 cn=0,n=222

   9344 18 004324   200170 235100                    LDA     ACCUM_INS_TO_SYM,,AUTO
        18 004325   000003 735000                    ALS     3
        18 004326   000242 236005 xsym               LDQ     O1COM+162,AL
        18 004327   000021 402007                    MPY     17,DL
        18 004330   000000 116003                    CMPQ    0,DU
        18 004331   004333 605000 18                 TPL     s:9344+7
        18 004332   000044 036003                    ADLQ    36,DU
        18 004333   003100 061406                    CSR     bolr='003'O
        18 004334   000000 000021 xsym               BDSC    DD_DEL_COST,Q            by=0,bit=0,n=17
        18 004335   204526 000044                    BDSC    NEWPLUG2$+1,,AUTO        by=0,bit=0,n=36
        18 004336   204526 236100                    LDQ     NEWPLUG2$+1,,AUTO
        18 004337   200167 036100                    ADLQ    ACCUM_DEL_COST,,AUTO
PL6.E3A0      #001=Z8E3$ERROR_CORR_DD File=Z8E3.:Z8A6TSI                         SAT 08/09/97 11:28 Page:92
        18 004340   200167 756100                    STQ     ACCUM_DEL_COST,,AUTO

   9345 18 004341   200076 756100                    STQ     LR+1,,AUTO

   9347 18 004342   200006 236100                    LDQ     CHECK_FIRST_SQL_PREFIX+1,,AUTO
        18 004343   200011 036100                    ADLQ    CHECK_FIRST_SQL_PREFIX+4,,AUTO
        18 004344   200167 116100                    CMPQ    ACCUM_DEL_COST,,AUTO
        18 004345   004351 604400 18                 TMOZ    s:9349
        18 004346   200166 235100                    LDA     ACCUM_DEL_LEN,,AUTO
        18 004347   000105 115007                    CMPA    69,DL
        18 004350   004254 604000 18                 TMI     s:9316

   9349 18 004351   000612 701000 18                 TSX1    GIVE_CORRECTION_MESSAGE
        18 004352   000000 011000                    NOP     0

   9352 18 004353   200004 221300                    LDX1  ! PARSE_STACK_IDX_IN_CHARS+1,,AUTO
        18 004354   000001 702211                    TSX2  ! 1,X1

      147     9353
      148     9354
      149     9355    1   CHECK_SQL_TOKEN: PROC;

   9355 18 004355   200004 741300       CHECK_SQL_T* STX1  ! PARSE_STACK_IDX_IN_CHARS+1,,AUTO

      150     9356
      151     9357
      152     9358        %INCLUDE Z8E_WINDOW;
      153    11428        %INCLUDE Z8E_REPLACE;
      154    11731
      155    11732
      156    11733
      157    11734    2   DCL CHECK_FIRST_SQL_PREFIX      BIT(1) ALIGNED;
      158    11735
      159    11736    2   DCL Z8AE$ERROR  ENTRY (12);
      160    11737    2   DCL Z8EL$HANDLE_LEVEL_CHANGE  ENTRY (1);
      161    11738        /*  DCL Z9EL$SQL_PREP          ENTRY;  */
      162    11739
PL6.E3A0      #001=Z8E3$ERROR_CORR_DD File=Z8E3.:Z8A6TSI                         SAT 08/09/97 11:28 Page:93
      163    11740        %MACRO SKIP_SQL_TOKENS;
      164    11741          DO;
      165    11742                  /* Skips all symbols until the symbol "END-EXEC" or
      166    11743                     end-of-file is hit, also issues an error message to
      167    11744                     tell the user to use SQL option to process SQL statement
      168    11745                  */
      169    11746
      170    11747                  CALL Z8AE$ERROR (%E$USE_SQL_OPTION,
      171    11748                                   LEX_SYMBOL.LINE,
      172    11749                                   LEX_SYMBOL.COLUMN);
      173    11750
      174    11751                  DO WHILE (SUBSTR(LEX_SYMBOL.SYMBOL,0,LEX_SYMBOL.SIZE) ~=
      175    11752                            'END-EXEC'    AND
      176    11753                            LEX_SYMBOL.TYPE ~= %END_OF_FILE );
      177    11754
      178    11755                    %GET_A_TOKEN;
      179    11756
      180    11757                  END; /* DO WHILE */
      181    11758
      182    11759                  IF SUBSTR(LEX_SYMBOL.SYMBOL,0,LEX_SYMBOL.SIZE) = 'END-EXEC' THEN
      183    11760                    DO;
      184    11761
      185    11762                      CHECK_FIRST_SQL_PREFIX = FALSE;
      186    11763
      187    11764                      %GET_A_TOKEN;
      188    11765
      189    11766                      IF SUBSTR(LEX_SYMBOL.SYMBOL,0,LEX_SYMBOL.SIZE) = 'EXEC' THEN
      190    11767                        GOTO START_SKIP;
      191    11768                      ELSE
      192    11769                        DO;
      193    11770                          %SAVE_TOKEN_ON_THE_QUEUE;
      194    11771                        END;
      195    11772                    END;
      196    11773
      197    11774
      198    11775           END;
      199    11776        %MEND;
PL6.E3A0      #001=Z8E3$ERROR_CORR_DD File=Z8E3.:Z8A6TSI                         SAT 08/09/97 11:28 Page:94
      200    11777
      201    11778
      202    11779    2     CHECK_FIRST_SQL_PREFIX = TRUE;

  11779 18 004356   400000 236003                    LDQ     -131072,DU
        18 004357   200005 756100                    STQ     CHECK_FIRST_SQL_PREFIX,,AUTO

      203    11780
      204    11781    2     START_SKIP:
      205    11782
      206    11783    2     IF SUBSTR (LEX_SYMBOL.SYMBOL, 0, LEX_SYMBOL.SIZE) = 'EXEC' THEN

  11783 18 004360   000010 720000 6     START_SKIP   LXL0    LEX_SYMBOL+8
        18 004361   040000 106440                    CMPC    fill='040'O
        18 004362   000011 000010 6                  ADSC9   LEX_SYMBOL+9             cn=0,n=*X0
        18 004363   000001 000004 17                 ADSC9   1                        cn=0,n=4
        18 004364   005002 601000 18                 TNZ     s:12000

      207    11784    3       DO;

      208    11785              %SAVE_CURRENT_TOKEN;

  11787 18 004365   000000 100400                    MLR     fill='000'O
        18 004366   000000 000550 6                  ADSC9   LEX_SYMBOL               cn=0,n=360
        18 004367   000000 000550 8                  ADSC9   TEMP_LEX_SYMBOL          cn=0,n=360

      209    11790
      210    11791              %GET_A_TOKEN;

  11793 18 004370   000000 236000 16                 LDQ     LEX_SYMBOL_QUEUE$
        18 004371   000000 116000 19                 CMPQ    0
        18 004372   004430 600000 18                 TZE     s:11816

  11799 18 004373   000000 470400 16                 LDP0    LEX_SYMBOL_QUEUE$
        18 004374   000010 235100                    LDA     8,,PR0
        18 004375   000010 755000 6                  STA     LEX_SYMBOL+8

PL6.E3A0      #001=Z8E3$ERROR_CORR_DD File=Z8E3.:Z8A6TSI                         SAT 08/09/97 11:28 Page:95
  11800 18 004376   000010 720100                    LXL0    8,,PR0
        18 004377   000044 621010                    EAX1    36,X0
        18 004400   000044 622005                    EAX2    36,AL
        18 004401   000040 100540                    MLR     fill='000'O
        18 004402   000000 000011                    ADSC9   0,,PR0                   cn=0,n=*X1
        18 004403   000000 000012 6                  ADSC9   LEX_SYMBOL               cn=0,n=*X2

  11803 18 004404   000010 720100                    LXL0    8,,PR0
        18 004405   000044 621010                    EAX1    36,X0
        18 004406   000000 636011                    EAQ     0,X1
        18 004407   000022 732000                    QRS     18
        18 004410   000003 036007                    ADLQ    3,DL
        18 004411   000004 506007                    DIV     4,DL
        18 004412   204526 756100                    STQ     NEWPLUG2$+1,,AUTO
        18 004413   204526 631500                    EPPR1   NEWPLUG2$+1,,AUTO
        18 004414   204531 451500                    STP1    NEWPLUG2$+4,,AUTO
        18 004415   000034 236000 19                 LDQ     28
        18 004416   204530 756100                    STQ     NEWPLUG2$+3,,AUTO
        18 004417   204530 630500                    EPPR0   NEWPLUG2$+3,,AUTO
        18 004420   000033 631400 19                 EPPR1   27
        18 004421   000000 701000 xent               TSX1    Z8ED$DISPOSE_HEAP
        18 004422   000000 011000                    NOP     0

  11808 18 004423   000000 236000 6                  LDQ     LEX_SYMBOL
        18 004424   000000 756000 16                 STQ     LEX_SYMBOL_QUEUE$

  11809 18 004425   000000 236000 19                 LDQ     0
        18 004426   000000 756000 6                  STQ     LEX_SYMBOL

  11810 18 004427   004457 710000 18                 TRA     s:11830

  11816 18 004430   000012 631400 19                 EPPR1   10
        18 004431   000000 701000 xent               TSX1    Z8ES$SCANNER
        18 004432   000000 011000                    NOP     0

  11817 18 004433   000001 235000 6                  LDA     LEX_SYMBOL+1
        18 004434   004445 601000 18                 TNZ     s:11823
PL6.E3A0      #001=Z8E3$ERROR_CORR_DD File=Z8E3.:Z8A6TSI                         SAT 08/09/97 11:28 Page:96

  11818 18 004435   000012 631400 19                 EPPR1   10
        18 004436   000000 701000 xent               TSX1    Z8EL$GET_NEXT_SCANNER_LINE
        18 004437   000000 011000                    NOP     0

  11819 18 004440   000012 631400 19                 EPPR1   10
        18 004441   000000 701000 xent               TSX1    Z8ES$SCANNER
        18 004442   000000 011000                    NOP     0

  11820 18 004443   000001 235000 6                  LDA     LEX_SYMBOL+1
        18 004444   004435 600000 18                 TZE     s:11818

  11823 18 004445   000003 236000 6                  LDQ     LEX_SYMBOL+3
        18 004446   000000 116000 11                 CMPQ    CURRENT_SYMBOL_LEVEL
        18 004447   004457 600000 18                 TZE     s:11830
        18 004450   000002 236000 6                  LDQ     LEX_SYMBOL+2
        18 004451   200000 316003                    CANQ    65536,DU
        18 004452   004457 601000 18                 TNZ     s:11830

  11825 18 004453   000035 630400 19                 EPPR0   29
        18 004454   000004 631400 19                 EPPR1   4
        18 004455   000000 701000 xent               TSX1    Z8EL$HANDLE_LEVEL_CHANGE
        18 004456   000000 011000                    NOP     0

      211    11829
      212    11830    3         IF SUBSTR(LEX_SYMBOL.SYMBOL,0,LEX_SYMBOL.SIZE) = 'SQL' THEN

  11830 18 004457   000010 720000 6                  LXL0    LEX_SYMBOL+8
        18 004460   040000 106440                    CMPC    fill='040'O
        18 004461   000011 000010 6                  ADSC9   LEX_SYMBOL+9             cn=0,n=*X0
        18 004462   000002 000003 17                 ADSC9   2                        cn=0,n=3
        18 004463   004743 601000 18                 TNZ     s:11973

      213    11831    4           DO;

      214    11832
      215    11833    4            IF CHECK_FIRST_SQL_PREFIX THEN
PL6.E3A0      #001=Z8E3$ERROR_CORR_DD File=Z8E3.:Z8A6TSI                         SAT 08/09/97 11:28 Page:97

  11833 18 004464   200005 234100                    SZN     CHECK_FIRST_SQL_PREFIX,,AUTO
        18 004465   004502 605000 18                 TPL     s:11848

      216    11834    5              DO;

      217    11835    5                 SQL.EXEC_LINE = TEMP_LEX_SYMBOL.LINE;

  11835 18 004466   000004 235000 8                  LDA     TEMP_LEX_SYMBOL+4
        18 004467   000000 755000 10                 STA     SQL

      218    11836    5                 SQL.EXEC_COLUMN = TEMP_LEX_SYMBOL.COLUMN;

  11836 18 004470   000005 236000 8                  LDQ     TEMP_LEX_SYMBOL+5
        18 004471   000001 756000 10                 STQ     SQL+1

      219    11837    5                 SQL.SQL_LINE = LEX_SYMBOL.LINE;

  11837 18 004472   000004 235000 6                  LDA     LEX_SYMBOL+4
        18 004473   000002 755000 10                 STA     SQL+2

      220    11838    5                 SQL.SQL_COLUMN = LEX_SYMBOL.COLUMN;

  11838 18 004474   000005 235000 6                  LDA     LEX_SYMBOL+5
        18 004475   000003 755000 10                 STA     SQL+3

      221    11839    5                 O1COM.LA_STK.B.ERROR (O1COM.LA_GET) = TRUE;

  11839 18 004476   000133 235000 xsym               LDA     O1COM+91
        18 004477   000003 735000                    ALS     3
        18 004500   400000 236007                    LDQ     -131072,DL
        18 004501   000237 256005 xsym               ORSQ    O1COM+159,AL

      222    11840    5              END;

      223    11841
      224    11842                  %SKIP_SQL_TOKENS;
PL6.E3A0      #001=Z8E3$ERROR_CORR_DD File=Z8E3.:Z8A6TSI                         SAT 08/09/97 11:28 Page:98

  11848 18 004502   000037 630400 19                 EPPR0   31
        18 004503   000001 631400 19                 EPPR1   1
        18 004504   000000 701000 xent               TSX1    Z8AE$ERROR
        18 004505   000000 011000                    NOP     0

  11851 18 004506   004576 710000 18                 TRA     s:11892

  11856 18 004507   000000 236000 16                 LDQ     LEX_SYMBOL_QUEUE$
        18 004510   000000 116000 19                 CMPQ    0
        18 004511   004547 600000 18                 TZE     s:11879

  11862 18 004512   000000 470400 16                 LDP0    LEX_SYMBOL_QUEUE$
        18 004513   000010 235100                    LDA     8,,PR0
        18 004514   000010 755000 6                  STA     LEX_SYMBOL+8

  11863 18 004515   000010 720100                    LXL0    8,,PR0
        18 004516   000044 621010                    EAX1    36,X0
        18 004517   000044 622005                    EAX2    36,AL
        18 004520   000040 100540                    MLR     fill='000'O
        18 004521   000000 000011                    ADSC9   0,,PR0                   cn=0,n=*X1
        18 004522   000000 000012 6                  ADSC9   LEX_SYMBOL               cn=0,n=*X2

  11866 18 004523   000010 720100                    LXL0    8,,PR0
        18 004524   000044 621010                    EAX1    36,X0
        18 004525   000000 636011                    EAQ     0,X1
        18 004526   000022 732000                    QRS     18
        18 004527   000003 036007                    ADLQ    3,DL
        18 004530   000004 506007                    DIV     4,DL
        18 004531   204526 756100                    STQ     NEWPLUG2$+1,,AUTO
        18 004532   204526 631500                    EPPR1   NEWPLUG2$+1,,AUTO
        18 004533   204531 451500                    STP1    NEWPLUG2$+4,,AUTO
        18 004534   000034 236000 19                 LDQ     28
        18 004535   204530 756100                    STQ     NEWPLUG2$+3,,AUTO
        18 004536   204530 630500                    EPPR0   NEWPLUG2$+3,,AUTO
        18 004537   000033 631400 19                 EPPR1   27
        18 004540   000000 701000 xent               TSX1    Z8ED$DISPOSE_HEAP
PL6.E3A0      #001=Z8E3$ERROR_CORR_DD File=Z8E3.:Z8A6TSI                         SAT 08/09/97 11:28 Page:99
        18 004541   000000 011000                    NOP     0

  11871 18 004542   000000 236000 6                  LDQ     LEX_SYMBOL
        18 004543   000000 756000 16                 STQ     LEX_SYMBOL_QUEUE$

  11872 18 004544   000000 236000 19                 LDQ     0
        18 004545   000000 756000 6                  STQ     LEX_SYMBOL

  11873 18 004546   004576 710000 18                 TRA     s:11892

  11879 18 004547   000012 631400 19                 EPPR1   10
        18 004550   000000 701000 xent               TSX1    Z8ES$SCANNER
        18 004551   000000 011000                    NOP     0

  11880 18 004552   000001 235000 6                  LDA     LEX_SYMBOL+1
        18 004553   004564 601000 18                 TNZ     s:11886

  11881 18 004554   000012 631400 19                 EPPR1   10
        18 004555   000000 701000 xent               TSX1    Z8EL$GET_NEXT_SCANNER_LINE
        18 004556   000000 011000                    NOP     0

  11882 18 004557   000012 631400 19                 EPPR1   10
        18 004560   000000 701000 xent               TSX1    Z8ES$SCANNER
        18 004561   000000 011000                    NOP     0

  11883 18 004562   000001 235000 6                  LDA     LEX_SYMBOL+1
        18 004563   004554 600000 18                 TZE     s:11881

  11886 18 004564   000003 236000 6                  LDQ     LEX_SYMBOL+3
        18 004565   000000 116000 11                 CMPQ    CURRENT_SYMBOL_LEVEL
        18 004566   004576 600000 18                 TZE     s:11892
        18 004567   000002 236000 6                  LDQ     LEX_SYMBOL+2
        18 004570   200000 316003                    CANQ    65536,DU
        18 004571   004576 601000 18                 TNZ     s:11892

  11888 18 004572   000035 630400 19                 EPPR0   29
        18 004573   000004 631400 19                 EPPR1   4
PL6.E3A0      #001=Z8E3$ERROR_CORR_DD File=Z8E3.:Z8A6TSI                         SAT 08/09/97 11:28 Page:100
        18 004574   000000 701000 xent               TSX1    Z8EL$HANDLE_LEVEL_CHANGE
        18 004575   000000 011000                    NOP     0

  11892 18 004576   000010 720000 6                  LXL0    LEX_SYMBOL+8
        18 004577   040000 106440                    CMPC    fill='040'O
        18 004600   000011 000010 6                  ADSC9   LEX_SYMBOL+9             cn=0,n=*X0
        18 004601   000003 000010 17                 ADSC9   3                        cn=0,n=8
        18 004602   004606 600000 18                 TZE     s:11893
        18 004603   000001 235000 6                  LDA     LEX_SYMBOL+1
        18 004604   000001 115007                    CMPA    1,DL
        18 004605   004507 601000 18                 TNZ     s:11856

  11893 18 004606   040000 106440                    CMPC    fill='040'O
        18 004607   000011 000010 6                  ADSC9   LEX_SYMBOL+9             cn=0,n=*X0
        18 004610   000003 000010 17                 ADSC9   3                        cn=0,n=8
        18 004611   005300 601000 18                 TNZ     s:12148

  11895 18 004612   200005 450100                    STZ     CHECK_FIRST_SQL_PREFIX,,AUTO

  11898 18 004613   000000 236000 16                 LDQ     LEX_SYMBOL_QUEUE$
        18 004614   000000 116000 19                 CMPQ    0
        18 004615   004653 600000 18                 TZE     s:11921

  11904 18 004616   000000 470400 16                 LDP0    LEX_SYMBOL_QUEUE$
        18 004617   000010 235100                    LDA     8,,PR0
        18 004620   000010 755000 6                  STA     LEX_SYMBOL+8

  11905 18 004621   000010 720100                    LXL0    8,,PR0
        18 004622   000044 621010                    EAX1    36,X0
        18 004623   000044 622005                    EAX2    36,AL
        18 004624   000040 100540                    MLR     fill='000'O
        18 004625   000000 000011                    ADSC9   0,,PR0                   cn=0,n=*X1
        18 004626   000000 000012 6                  ADSC9   LEX_SYMBOL               cn=0,n=*X2

  11908 18 004627   000010 720100                    LXL0    8,,PR0
        18 004630   000044 621010                    EAX1    36,X0
        18 004631   000000 636011                    EAQ     0,X1
PL6.E3A0      #001=Z8E3$ERROR_CORR_DD File=Z8E3.:Z8A6TSI                         SAT 08/09/97 11:28 Page:101
        18 004632   000022 732000                    QRS     18
        18 004633   000003 036007                    ADLQ    3,DL
        18 004634   000004 506007                    DIV     4,DL
        18 004635   204526 756100                    STQ     NEWPLUG2$+1,,AUTO
        18 004636   204526 631500                    EPPR1   NEWPLUG2$+1,,AUTO
        18 004637   204531 451500                    STP1    NEWPLUG2$+4,,AUTO
        18 004640   000034 236000 19                 LDQ     28
        18 004641   204530 756100                    STQ     NEWPLUG2$+3,,AUTO
        18 004642   204530 630500                    EPPR0   NEWPLUG2$+3,,AUTO
        18 004643   000033 631400 19                 EPPR1   27
        18 004644   000000 701000 xent               TSX1    Z8ED$DISPOSE_HEAP
        18 004645   000000 011000                    NOP     0

  11913 18 004646   000000 236000 6                  LDQ     LEX_SYMBOL
        18 004647   000000 756000 16                 STQ     LEX_SYMBOL_QUEUE$

  11914 18 004650   000000 236000 19                 LDQ     0
        18 004651   000000 756000 6                  STQ     LEX_SYMBOL

  11915 18 004652   004702 710000 18                 TRA     s:11934

  11921 18 004653   000012 631400 19                 EPPR1   10
        18 004654   000000 701000 xent               TSX1    Z8ES$SCANNER
        18 004655   000000 011000                    NOP     0

  11922 18 004656   000001 235000 6                  LDA     LEX_SYMBOL+1
        18 004657   004670 601000 18                 TNZ     s:11928

  11923 18 004660   000012 631400 19                 EPPR1   10
        18 004661   000000 701000 xent               TSX1    Z8EL$GET_NEXT_SCANNER_LINE
        18 004662   000000 011000                    NOP     0

  11924 18 004663   000012 631400 19                 EPPR1   10
        18 004664   000000 701000 xent               TSX1    Z8ES$SCANNER
        18 004665   000000 011000                    NOP     0

  11925 18 004666   000001 235000 6                  LDA     LEX_SYMBOL+1
PL6.E3A0      #001=Z8E3$ERROR_CORR_DD File=Z8E3.:Z8A6TSI                         SAT 08/09/97 11:28 Page:102
        18 004667   004660 600000 18                 TZE     s:11923

  11928 18 004670   000003 236000 6                  LDQ     LEX_SYMBOL+3
        18 004671   000000 116000 11                 CMPQ    CURRENT_SYMBOL_LEVEL
        18 004672   004702 600000 18                 TZE     s:11934
        18 004673   000002 236000 6                  LDQ     LEX_SYMBOL+2
        18 004674   200000 316003                    CANQ    65536,DU
        18 004675   004702 601000 18                 TNZ     s:11934

  11930 18 004676   000035 630400 19                 EPPR0   29
        18 004677   000004 631400 19                 EPPR1   4
        18 004700   000000 701000 xent               TSX1    Z8EL$HANDLE_LEVEL_CHANGE
        18 004701   000000 011000                    NOP     0

  11934 18 004702   000010 720000 6                  LXL0    LEX_SYMBOL+8
        18 004703   040000 106440                    CMPC    fill='040'O
        18 004704   000011 000010 6                  ADSC9   LEX_SYMBOL+9             cn=0,n=*X0
        18 004705   000001 000004 17                 ADSC9   1                        cn=0,n=4
        18 004706   004360 600000 18                 TZE     START_SKIP

  11943 18 004707   000010 236000 6                  LDQ     LEX_SYMBOL+8
        18 004710   000047 036007                    ADLQ    39,DL
        18 004711   000004 506007                    DIV     4,DL
        18 004712   204526 756100                    STQ     NEWPLUG2$+1,,AUTO
        18 004713   204526 630500                    EPPR0   NEWPLUG2$+1,,AUTO
        18 004714   204531 450500                    STP0    NEWPLUG2$+4,,AUTO
        18 004715   000042 236000 19                 LDQ     34
        18 004716   204530 756100                    STQ     NEWPLUG2$+3,,AUTO
        18 004717   204530 630500                    EPPR0   NEWPLUG2$+3,,AUTO
        18 004720   000033 631400 19                 EPPR1   27
        18 004721   000000 701000 xent               TSX1    Z8ED$NEW_HEAP
        18 004722   000000 011000                    NOP     0

  11950 18 004723   000000 470400 5                  LDP0    HEAP$
        18 004724   000010 235000 6                  LDA     LEX_SYMBOL+8
        18 004725   000010 755100                    STA     8,,PR0

PL6.E3A0      #001=Z8E3$ERROR_CORR_DD File=Z8E3.:Z8A6TSI                         SAT 08/09/97 11:28 Page:103
  11951 18 004726   000010 720100                    LXL0    8,,PR0
        18 004727   000044 621010                    EAX1    36,X0
        18 004730   000010 722000 6                  LXL2    LEX_SYMBOL+8
        18 004731   000044 623012                    EAX3    36,X2
        18 004732   000140 100440                    MLR     fill='000'O
        18 004733   000000 000013 6                  ADSC9   LEX_SYMBOL               cn=0,n=*X3
        18 004734   000000 000011                    ADSC9   0,,PR0                   cn=0,n=*X1

  11956 18 004735   000000 236000 16                 LDQ     LEX_SYMBOL_QUEUE$
        18 004736   000000 470400 5                  LDP0    HEAP$
        18 004737   000000 756100                    STQ     0,,PR0

  11957 18 004740   000000 236000 5                  LDQ     HEAP$
        18 004741   000000 756000 16                 STQ     LEX_SYMBOL_QUEUE$

      225    11964
      226    11965    4           END;

  11965 18 004742   005300 710000 18                 TRA     s:12148

      227    11966    3         ELSE
      228    11967    4           DO;

      229    11968                  %SAVE_TOKEN_ON_THE_QUEUE;

  11973 18 004743   000010 236000 6                  LDQ     LEX_SYMBOL+8
        18 004744   000047 036007                    ADLQ    39,DL
        18 004745   000004 506007                    DIV     4,DL
        18 004746   204526 756100                    STQ     NEWPLUG2$+1,,AUTO
        18 004747   204526 630500                    EPPR0   NEWPLUG2$+1,,AUTO
        18 004750   204531 450500                    STP0    NEWPLUG2$+4,,AUTO
        18 004751   000042 236000 19                 LDQ     34
        18 004752   204530 756100                    STQ     NEWPLUG2$+3,,AUTO
        18 004753   204530 630500                    EPPR0   NEWPLUG2$+3,,AUTO
        18 004754   000033 631400 19                 EPPR1   27
        18 004755   000000 701000 xent               TSX1    Z8ED$NEW_HEAP
        18 004756   000000 011000                    NOP     0
PL6.E3A0      #001=Z8E3$ERROR_CORR_DD File=Z8E3.:Z8A6TSI                         SAT 08/09/97 11:28 Page:104

  11980 18 004757   000000 470400 5                  LDP0    HEAP$
        18 004760   000010 235000 6                  LDA     LEX_SYMBOL+8
        18 004761   000010 755100                    STA     8,,PR0

  11981 18 004762   000010 720100                    LXL0    8,,PR0
        18 004763   000044 621010                    EAX1    36,X0
        18 004764   000010 722000 6                  LXL2    LEX_SYMBOL+8
        18 004765   000044 623012                    EAX3    36,X2
        18 004766   000140 100440                    MLR     fill='000'O
        18 004767   000000 000013 6                  ADSC9   LEX_SYMBOL               cn=0,n=*X3
        18 004770   000000 000011                    ADSC9   0,,PR0                   cn=0,n=*X1

  11986 18 004771   000000 236000 16                 LDQ     LEX_SYMBOL_QUEUE$
        18 004772   000000 470400 5                  LDP0    HEAP$
        18 004773   000000 756100                    STQ     0,,PR0

  11987 18 004774   000000 236000 5                  LDQ     HEAP$
        18 004775   000000 756000 16                 STQ     LEX_SYMBOL_QUEUE$

      230    11990
      231    11991                  %LOAD_SAVED_TOKEN;

  11993 18 004776   000000 100400                    MLR     fill='000'O
        18 004777   000000 000550 8                  ADSC9   TEMP_LEX_SYMBOL          cn=0,n=360
        18 005000   000000 000550 6                  ADSC9   LEX_SYMBOL               cn=0,n=360

      232    11996    4           END;

      233    11997    3       END;

  11997 18 005001   005300 710000 18                 TRA     s:12148

      234    11998    2     ELSE
      235    11999    3       DO;

      236    12000    3         IF (SUBSTR (LEX_SYMBOL.SYMBOL, 0, LEX_SYMBOL.SIZE) = 'SQL' AND
PL6.E3A0      #001=Z8E3$ERROR_CORR_DD File=Z8E3.:Z8A6TSI                         SAT 08/09/97 11:28 Page:105

  12000 18 005002   040000 106440                    CMPC    fill='040'O
        18 005003   000011 000010 6                  ADSC9   LEX_SYMBOL+9             cn=0,n=*X0
        18 005004   000002 000003 17                 ADSC9   2                        cn=0,n=3
        18 005005   005300 601000 18                 TNZ     s:12148
        18 005006   000151 235000 xsym               LDA     O1COM+105
        18 005007   000003 735000                    ALS     3
        18 005010   014021 470405 xsym               LDP0    O1COM+6161,AL
        18 005011   000004 221100                    LDX1    4,,PR0
        18 005012   040000 106540                    CMPC    fill='040'O
        18 005013   000004 400011                    ADSC9   4,,PR0                   cn=2,n=*X1
        18 005014   000001 000004 17                 ADSC9   1                        cn=0,n=4
        18 005015   005300 601000 18                 TNZ     s:12148

      237    12001    3            O1COM.LX_STK.DNT$ (O1COM.LX_TOP) -> DNT.TEXT.NAME = 'EXEC') THEN
      238    12002    4           DO;

      239    12003                    /* next few lines might be revived in the future  */
      240    12004                    /* and needs to be insert into previous block too */
      241    12005                    /*   CALL Z9EL$SQL_PREP;                          */
      242    12006
      243    12007                    /* if returned, SQL preprocessor is not available */
      244    12008                    /*   COMCOM.SQL_NOT_AVAILABLE = TRUE;             */
      245    12009
      246    12010
      247    12011    4             IF CHECK_FIRST_SQL_PREFIX THEN

  12011 18 005016   200005 234100                    SZN     CHECK_FIRST_SQL_PREFIX,,AUTO
        18 005017   005040 605000 18                 TPL     s:12028

      248    12012    5               DO;

      249    12013    5                 SQL.EXEC_LINE = O1COM.LX_STK.LINE(O1COM.LX_TOP);

  12013 18 005020   014024 235005 xsym               LDA     O1COM+6164,AL
        18 005021   000000 755000 10                 STA     SQL

PL6.E3A0      #001=Z8E3$ERROR_CORR_DD File=Z8E3.:Z8A6TSI                         SAT 08/09/97 11:28 Page:106
      250    12014    5                 SQL.EXEC_COLUMN = O1COM.LX_STK.COLUMN(O1COM.LX_TOP);

  12014 18 005022   000151 236000 xsym               LDQ     O1COM+105
        18 005023   000003 736000                    QLS     3
        18 005024   014025 235006 xsym               LDA     O1COM+6165,QL
        18 005025   000001 755000 10                 STA     SQL+1

      251    12015    5                 SQL.SQL_LINE = LEX_SYMBOL.LINE;

  12015 18 005026   000004 235000 6                  LDA     LEX_SYMBOL+4
        18 005027   000002 755000 10                 STA     SQL+2

      252    12016    5                 SQL.SQL_COLUMN = LEX_SYMBOL.COLUMN;

  12016 18 005030   000005 235000 6                  LDA     LEX_SYMBOL+5
        18 005031   000003 755000 10                 STA     SQL+3

      253    12017    5                 O1COM.LX_STK.B.ERROR (O1COM.LX_TOP) = TRUE;

  12017 18 005032   000000 621006                    EAX1    0,QL
        18 005033   400000 236007                    LDQ     -131072,DL
        18 005034   014017 256011 xsym               ORSQ    O1COM+6159,X1

      254    12018    5                 O1COM.LA_STK.B.ERROR (O1COM.LA_GET) = TRUE;

  12018 18 005035   000133 235000 xsym               LDA     O1COM+91
        18 005036   000003 735000                    ALS     3
        18 005037   000237 256005 xsym               ORSQ    O1COM+159,AL

      255    12019    5               END;

      256    12020
      257    12021
      258    12022                  %SKIP_SQL_TOKENS;

  12028 18 005040   000037 630400 19                 EPPR0   31
        18 005041   000001 631400 19                 EPPR1   1
PL6.E3A0      #001=Z8E3$ERROR_CORR_DD File=Z8E3.:Z8A6TSI                         SAT 08/09/97 11:28 Page:107
        18 005042   000000 701000 xent               TSX1    Z8AE$ERROR
        18 005043   000000 011000                    NOP     0

  12031 18 005044   005134 710000 18                 TRA     s:12072

  12036 18 005045   000000 236000 16                 LDQ     LEX_SYMBOL_QUEUE$
        18 005046   000000 116000 19                 CMPQ    0
        18 005047   005105 600000 18                 TZE     s:12059

  12042 18 005050   000000 470400 16                 LDP0    LEX_SYMBOL_QUEUE$
        18 005051   000010 235100                    LDA     8,,PR0
        18 005052   000010 755000 6                  STA     LEX_SYMBOL+8

  12043 18 005053   000010 720100                    LXL0    8,,PR0
        18 005054   000044 621010                    EAX1    36,X0
        18 005055   000044 622005                    EAX2    36,AL
        18 005056   000040 100540                    MLR     fill='000'O
        18 005057   000000 000011                    ADSC9   0,,PR0                   cn=0,n=*X1
        18 005060   000000 000012 6                  ADSC9   LEX_SYMBOL               cn=0,n=*X2

  12046 18 005061   000010 720100                    LXL0    8,,PR0
        18 005062   000044 621010                    EAX1    36,X0
        18 005063   000000 636011                    EAQ     0,X1
        18 005064   000022 732000                    QRS     18
        18 005065   000003 036007                    ADLQ    3,DL
        18 005066   000004 506007                    DIV     4,DL
        18 005067   204526 756100                    STQ     NEWPLUG2$+1,,AUTO
        18 005070   204526 631500                    EPPR1   NEWPLUG2$+1,,AUTO
        18 005071   204531 451500                    STP1    NEWPLUG2$+4,,AUTO
        18 005072   000034 236000 19                 LDQ     28
        18 005073   204530 756100                    STQ     NEWPLUG2$+3,,AUTO
        18 005074   204530 630500                    EPPR0   NEWPLUG2$+3,,AUTO
        18 005075   000033 631400 19                 EPPR1   27
        18 005076   000000 701000 xent               TSX1    Z8ED$DISPOSE_HEAP
        18 005077   000000 011000                    NOP     0

  12051 18 005100   000000 236000 6                  LDQ     LEX_SYMBOL
PL6.E3A0      #001=Z8E3$ERROR_CORR_DD File=Z8E3.:Z8A6TSI                         SAT 08/09/97 11:28 Page:108
        18 005101   000000 756000 16                 STQ     LEX_SYMBOL_QUEUE$

  12052 18 005102   000000 236000 19                 LDQ     0
        18 005103   000000 756000 6                  STQ     LEX_SYMBOL

  12053 18 005104   005134 710000 18                 TRA     s:12072

  12059 18 005105   000012 631400 19                 EPPR1   10
        18 005106   000000 701000 xent               TSX1    Z8ES$SCANNER
        18 005107   000000 011000                    NOP     0

  12060 18 005110   000001 235000 6                  LDA     LEX_SYMBOL+1
        18 005111   005122 601000 18                 TNZ     s:12066

  12061 18 005112   000012 631400 19                 EPPR1   10
        18 005113   000000 701000 xent               TSX1    Z8EL$GET_NEXT_SCANNER_LINE
        18 005114   000000 011000                    NOP     0

  12062 18 005115   000012 631400 19                 EPPR1   10
        18 005116   000000 701000 xent               TSX1    Z8ES$SCANNER
        18 005117   000000 011000                    NOP     0

  12063 18 005120   000001 235000 6                  LDA     LEX_SYMBOL+1
        18 005121   005112 600000 18                 TZE     s:12061

  12066 18 005122   000003 236000 6                  LDQ     LEX_SYMBOL+3
        18 005123   000000 116000 11                 CMPQ    CURRENT_SYMBOL_LEVEL
        18 005124   005134 600000 18                 TZE     s:12072
        18 005125   000002 236000 6                  LDQ     LEX_SYMBOL+2
        18 005126   200000 316003                    CANQ    65536,DU
        18 005127   005134 601000 18                 TNZ     s:12072

  12068 18 005130   000035 630400 19                 EPPR0   29
        18 005131   000004 631400 19                 EPPR1   4
        18 005132   000000 701000 xent               TSX1    Z8EL$HANDLE_LEVEL_CHANGE
        18 005133   000000 011000                    NOP     0

PL6.E3A0      #001=Z8E3$ERROR_CORR_DD File=Z8E3.:Z8A6TSI                         SAT 08/09/97 11:28 Page:109
  12072 18 005134   000010 720000 6                  LXL0    LEX_SYMBOL+8
        18 005135   040000 106440                    CMPC    fill='040'O
        18 005136   000011 000010 6                  ADSC9   LEX_SYMBOL+9             cn=0,n=*X0
        18 005137   000003 000010 17                 ADSC9   3                        cn=0,n=8
        18 005140   005144 600000 18                 TZE     s:12073
        18 005141   000001 235000 6                  LDA     LEX_SYMBOL+1
        18 005142   000001 115007                    CMPA    1,DL
        18 005143   005045 601000 18                 TNZ     s:12036

  12073 18 005144   040000 106440                    CMPC    fill='040'O
        18 005145   000011 000010 6                  ADSC9   LEX_SYMBOL+9             cn=0,n=*X0
        18 005146   000003 000010 17                 ADSC9   3                        cn=0,n=8
        18 005147   005300 601000 18                 TNZ     s:12148

  12075 18 005150   200005 450100                    STZ     CHECK_FIRST_SQL_PREFIX,,AUTO

  12078 18 005151   000000 236000 16                 LDQ     LEX_SYMBOL_QUEUE$
        18 005152   000000 116000 19                 CMPQ    0
        18 005153   005211 600000 18                 TZE     s:12101

  12084 18 005154   000000 470400 16                 LDP0    LEX_SYMBOL_QUEUE$
        18 005155   000010 235100                    LDA     8,,PR0
        18 005156   000010 755000 6                  STA     LEX_SYMBOL+8

  12085 18 005157   000010 720100                    LXL0    8,,PR0
        18 005160   000044 621010                    EAX1    36,X0
        18 005161   000044 622005                    EAX2    36,AL
        18 005162   000040 100540                    MLR     fill='000'O
        18 005163   000000 000011                    ADSC9   0,,PR0                   cn=0,n=*X1
        18 005164   000000 000012 6                  ADSC9   LEX_SYMBOL               cn=0,n=*X2

  12088 18 005165   000010 720100                    LXL0    8,,PR0
        18 005166   000044 621010                    EAX1    36,X0
        18 005167   000000 636011                    EAQ     0,X1
        18 005170   000022 732000                    QRS     18
        18 005171   000003 036007                    ADLQ    3,DL
        18 005172   000004 506007                    DIV     4,DL
PL6.E3A0      #001=Z8E3$ERROR_CORR_DD File=Z8E3.:Z8A6TSI                         SAT 08/09/97 11:28 Page:110
        18 005173   204526 756100                    STQ     NEWPLUG2$+1,,AUTO
        18 005174   204526 631500                    EPPR1   NEWPLUG2$+1,,AUTO
        18 005175   204531 451500                    STP1    NEWPLUG2$+4,,AUTO
        18 005176   000034 236000 19                 LDQ     28
        18 005177   204530 756100                    STQ     NEWPLUG2$+3,,AUTO
        18 005200   204530 630500                    EPPR0   NEWPLUG2$+3,,AUTO
        18 005201   000033 631400 19                 EPPR1   27
        18 005202   000000 701000 xent               TSX1    Z8ED$DISPOSE_HEAP
        18 005203   000000 011000                    NOP     0

  12093 18 005204   000000 236000 6                  LDQ     LEX_SYMBOL
        18 005205   000000 756000 16                 STQ     LEX_SYMBOL_QUEUE$

  12094 18 005206   000000 236000 19                 LDQ     0
        18 005207   000000 756000 6                  STQ     LEX_SYMBOL

  12095 18 005210   005240 710000 18                 TRA     s:12114

  12101 18 005211   000012 631400 19                 EPPR1   10
        18 005212   000000 701000 xent               TSX1    Z8ES$SCANNER
        18 005213   000000 011000                    NOP     0

  12102 18 005214   000001 235000 6                  LDA     LEX_SYMBOL+1
        18 005215   005226 601000 18                 TNZ     s:12108

  12103 18 005216   000012 631400 19                 EPPR1   10
        18 005217   000000 701000 xent               TSX1    Z8EL$GET_NEXT_SCANNER_LINE
        18 005220   000000 011000                    NOP     0

  12104 18 005221   000012 631400 19                 EPPR1   10
        18 005222   000000 701000 xent               TSX1    Z8ES$SCANNER
        18 005223   000000 011000                    NOP     0

  12105 18 005224   000001 235000 6                  LDA     LEX_SYMBOL+1
        18 005225   005216 600000 18                 TZE     s:12103

  12108 18 005226   000003 236000 6                  LDQ     LEX_SYMBOL+3
PL6.E3A0      #001=Z8E3$ERROR_CORR_DD File=Z8E3.:Z8A6TSI                         SAT 08/09/97 11:28 Page:111
        18 005227   000000 116000 11                 CMPQ    CURRENT_SYMBOL_LEVEL
        18 005230   005240 600000 18                 TZE     s:12114
        18 005231   000002 236000 6                  LDQ     LEX_SYMBOL+2
        18 005232   200000 316003                    CANQ    65536,DU
        18 005233   005240 601000 18                 TNZ     s:12114

  12110 18 005234   000035 630400 19                 EPPR0   29
        18 005235   000004 631400 19                 EPPR1   4
        18 005236   000000 701000 xent               TSX1    Z8EL$HANDLE_LEVEL_CHANGE
        18 005237   000000 011000                    NOP     0

  12114 18 005240   000010 720000 6                  LXL0    LEX_SYMBOL+8
        18 005241   040000 106440                    CMPC    fill='040'O
        18 005242   000011 000010 6                  ADSC9   LEX_SYMBOL+9             cn=0,n=*X0
        18 005243   000001 000004 17                 ADSC9   1                        cn=0,n=4
        18 005244   004360 600000 18                 TZE     START_SKIP

  12123 18 005245   000010 236000 6                  LDQ     LEX_SYMBOL+8
        18 005246   000047 036007                    ADLQ    39,DL
        18 005247   000004 506007                    DIV     4,DL
        18 005250   204526 756100                    STQ     NEWPLUG2$+1,,AUTO
        18 005251   204526 630500                    EPPR0   NEWPLUG2$+1,,AUTO
        18 005252   204531 450500                    STP0    NEWPLUG2$+4,,AUTO
        18 005253   000042 236000 19                 LDQ     34
        18 005254   204530 756100                    STQ     NEWPLUG2$+3,,AUTO
        18 005255   204530 630500                    EPPR0   NEWPLUG2$+3,,AUTO
        18 005256   000033 631400 19                 EPPR1   27
        18 005257   000000 701000 xent               TSX1    Z8ED$NEW_HEAP
        18 005260   000000 011000                    NOP     0

  12130 18 005261   000000 470400 5                  LDP0    HEAP$
        18 005262   000010 235000 6                  LDA     LEX_SYMBOL+8
        18 005263   000010 755100                    STA     8,,PR0

  12131 18 005264   000010 720100                    LXL0    8,,PR0
        18 005265   000044 621010                    EAX1    36,X0
        18 005266   000010 722000 6                  LXL2    LEX_SYMBOL+8
PL6.E3A0      #001=Z8E3$ERROR_CORR_DD File=Z8E3.:Z8A6TSI                         SAT 08/09/97 11:28 Page:112
        18 005267   000044 623012                    EAX3    36,X2
        18 005270   000140 100440                    MLR     fill='000'O
        18 005271   000000 000013 6                  ADSC9   LEX_SYMBOL               cn=0,n=*X3
        18 005272   000000 000011                    ADSC9   0,,PR0                   cn=0,n=*X1

  12136 18 005273   000000 236000 16                 LDQ     LEX_SYMBOL_QUEUE$
        18 005274   000000 470400 5                  LDP0    HEAP$
        18 005275   000000 756100                    STQ     0,,PR0

  12137 18 005276   000000 236000 5                  LDQ     HEAP$
        18 005277   000000 756000 16                 STQ     LEX_SYMBOL_QUEUE$

      259    12144
      260    12145    4         END;

      261    12146    3       END;

      262    12147
      263    12148    2   END CHECK_SQL_TOKEN;

  12148 18 005300   200004 221300                    LDX1  ! PARSE_STACK_IDX_IN_CHARS+1,,AUTO
        18 005301   000001 702211                    TSX2  ! 1,X1

      264    12149
      265    12150    1   CALL CHECK_SQL_TOKEN;

  12150 18 005302   004355 701000 18                 TSX1    CHECK_SQL_TOKEN
        18 005303   000000 011000                    NOP     0

      266    12151
      267    12152
      268    12153    1      CALL LOCALLY_LEAST_COST_CORRECTION;

  12153 18 005304   000003 701000 18                 TSX1    LOCALLY_LEAST_COST_CORRECTION
        18 005305   000000 011000                    NOP     0

      269    12154
PL6.E3A0      #001=Z8E3$ERROR_CORR_DD File=Z8E3.:Z8A6TSI                         SAT 08/09/97 11:28 Page:113
      270    12155    1   END Z8E3$ERROR_CORR_DD;

  12155 18 005306   000000 702200 xent               TSX2  ! X66_ARET
      271    12156        %EOD;

PL6.E3A0      #001=Z8E3$ERROR_CORR_DD File=Z8E3.:Z8A6TSI                         SAT 08/09/97 11:28 Page:114
--  Include file information  --

   Z8E_REPLACE.:Z8A6TOU  cannot be made into a system file and is referenced.
   Z8E_WINDOW.:Z8A6TOU  is referenced.
   Z8A_P_EC.:Z8A6TOU  cannot be made into a system file and is referenced.
   Z8A_P_STATE.:Z8A6TOU  cannot be made into a system file and is referenced.
   Z8E_O1COM.:Z8A6TOU  cannot be made into a system file and is referenced.
   Z8A_LEX_SYMB.:Z8A6TOU  cannot be made into a system file and is referenced.
   Z8E_STACKS.:Z8A6TOU  cannot be made into a system file and is referenced.
   Z8E_HEAP.:Z8A6TOU  cannot be made into a system file and is referenced.
   Z8E_DDPDA_S.:Z8A6TOU  is referenced.
   Z8E_DD_SUBS.:Z8A6TOU  is referenced.
   Z8A_DNT.:Z8A6TOU  cannot be made into a system file and is referenced.
   Z8A_COMCOM.:Z8A6TOU  cannot be made into a system file and is referenced.
   Z8A_ERR_NUMS.:Z8A6TOU  is referenced.
   X8A_COM_MACS.:X8A6TOU  is referenced.
   Z8A_NAMES.:Z8A6TOU  is referenced.
   Z8A_SUPP_MAC.:Z8A6TOU  is referenced.
   Z8A_DEFC.:Z8A6TOU  cannot be made into a system file and is referenced.
      No diagnostics issued in procedure Z8E3$ERROR_CORR_DD.
PL6.E3A0      #001=Z8E3$ERROR_CORR_DD File=Z8E3.:Z8A6TSI                         SAT 08/09/97 11:28 Page:115

 **** Variables and constants ****

  ****  Section 000 LblCom ITERATION

  ****  Scalars and arrays  ****
OctLoc.c.b A Datatyp(siz) R M Lvl/name                 OctLoc.c.b A Datatyp(siz) R M Lvl/name

     0-0-0/w SBIN        r     1 ITERATION

  ****  Section 001 LblCom DNT$

  ****  Scalars and arrays  ****
OctLoc.c.b A Datatyp(siz) R M Lvl/name                 OctLoc.c.b A Datatyp(siz) R M Lvl/name

     0-0-0/w PTR         r     1 DNT$

  ****  Section 002 LblCom DNT_

  ****  Scalars and arrays  ****
OctLoc.c.b A Datatyp(siz) R M Lvl/name                 OctLoc.c.b A Datatyp(siz) R M Lvl/name

     0-0-0/w STRC(180)   r     1 DNT_

  ****  Section 003 LblCom DNT_BUCKET_NUMBER

  ****  Scalars and arrays  ****
OctLoc.c.b A Datatyp(siz) R M Lvl/name                 OctLoc.c.b A Datatyp(siz) R M Lvl/name

     0-0-0/w UBIN              1 DNT_BUCKET_NUMBER

  ****  Section 004 LblCom DNT_OF_1$

  ****  Scalars and arrays  ****
OctLoc.c.b A Datatyp(siz) R M Lvl/name                 OctLoc.c.b A Datatyp(siz) R M Lvl/name

     0-0-0/w PTR               1 DNT_OF_1$

PL6.E3A0      #001=Z8E3$ERROR_CORR_DD File=Z8E3.:Z8A6TSI                         SAT 08/09/97 11:28 Page:116
  ****  Section 005 LblCom HEAP$

  ****  Scalars and arrays  ****
OctLoc.c.b A Datatyp(siz) R M Lvl/name                 OctLoc.c.b A Datatyp(siz) R M Lvl/name

     0-0-0/w PTR         r     1 HEAP$

  ****  Section 006 LblCom LEX_SYMBOL

  ****  Scalars and arrays  ****
OctLoc.c.b A Datatyp(siz) R M Lvl/name                 OctLoc.c.b A Datatyp(siz) R M Lvl/name

     0-0-0/w STRC(3240)  r     1 LEX_SYMBOL                 0-0-0/w STRC(3240)        1 LEX_SYMBOL_WORDS

  ****  Section 007 LblCom CURRENT_LEX_SYMBOL$

  ****  Scalars and arrays  ****
OctLoc.c.b A Datatyp(siz) R M Lvl/name                 OctLoc.c.b A Datatyp(siz) R M Lvl/name

     0-0-0/w PTR         r     1 CURRENT_LEX_SYMBOL$

  ****  Section 008 LblCom TEMP_LEX_SYMBOL

  ****  Scalars and arrays  ****
OctLoc.c.b A Datatyp(siz) R M Lvl/name                 OctLoc.c.b A Datatyp(siz) R M Lvl/name

     0-0-0/w STRC(3240)  r     1 TEMP_LEX_SYMBOL

  ****  Section 009 LblCom TEMP_LEX_SYMBOL2

  ****  Scalars and arrays  ****
OctLoc.c.b A Datatyp(siz) R M Lvl/name                 OctLoc.c.b A Datatyp(siz) R M Lvl/name

     0-0-0/w STRC(3240)        1 TEMP_LEX_SYMBOL2

  ****  Section 010  Data  Z8E3$ERROR_CORR_DD

PL6.E3A0      #001=Z8E3$ERROR_CORR_DD File=Z8E3.:Z8A6TSI                         SAT 08/09/97 11:28 Page:117
  ****  Scalars and arrays  ****
OctLoc.c.b A Datatyp(siz) R M Lvl/name                 OctLoc.c.b A Datatyp(siz) R M Lvl/name

     4-0-0/c CHAR(4)     r     1 CONT_STR                   0-0-0/w STRC(144)   r     1 SQL

  ****  Section 011 LblCom CURRENT_SYMBOL_LEVEL

  ****  Scalars and arrays  ****
OctLoc.c.b A Datatyp(siz) R M Lvl/name                 OctLoc.c.b A Datatyp(siz) R M Lvl/name

     0-0-0/w SBIN        r     1 CURRENT_SYMBOL_LEVEL

  ****  Section 012 LblCom REPLACE_ACTIVE

  ****  Scalars and arrays  ****
OctLoc.c.b A Datatyp(siz) R M Lvl/name                 OctLoc.c.b A Datatyp(siz) R M Lvl/name

     0-0-0/b BIT               1 REPLACE_ACTIVE

  ****  Section 013 LblCom IGNORE_COPY_REPLACE

  ****  Scalars and arrays  ****
OctLoc.c.b A Datatyp(siz) R M Lvl/name                 OctLoc.c.b A Datatyp(siz) R M Lvl/name

     0-0-0/b BIT               1 IGNORE_COPY_REPLACE

  ****  Section 014 LblCom COPY_DEBUG_LEVEL

  ****  Scalars and arrays  ****
OctLoc.c.b A Datatyp(siz) R M Lvl/name                 OctLoc.c.b A Datatyp(siz) R M Lvl/name

     0-0-0/w SBIN              1 COPY_DEBUG_LEVEL

  ****  Section 015 LblCom REPLACE_LIST

  ****  Scalars and arrays  ****
OctLoc.c.b A Datatyp(siz) R M Lvl/name                 OctLoc.c.b A Datatyp(siz) R M Lvl/name
PL6.E3A0      #001=Z8E3$ERROR_CORR_DD File=Z8E3.:Z8A6TSI                         SAT 08/09/97 11:28 Page:118

     0-0-0/w STRC(144)         1 REPLACE_LIST

  ****  Section 016 LblCom LEX_SYMBOL_QUEUE$

  ****  Scalars and arrays  ****
OctLoc.c.b A Datatyp(siz) R M Lvl/name                 OctLoc.c.b A Datatyp(siz) R M Lvl/name

     0-0-0/w PTR         r     1 LEX_SYMBOL_QUEUE$

  ****  Auto variables  ****

  ****  Scalars and arrays  ****
OctLoc.c.b A Datatyp(siz) R M Lvl/name                 OctLoc.c.b A Datatyp(siz) R M Lvl/name

   323-0-0/w PTR         r     1 @DI                      324-0-0/w PTR         r     1 @DI_CHAR_OVERFLOW
  4521-0-0/w PTR         r     1 @ERROR_TYPE             4521-0-0/w PTR         r     1 @ITM
  4127-0-0/w PTR         r     1 @LRC                    4522-0-0/w PTR         r     1 @PLUG1$
  4523-0-0/w PTR         r     1 @PLUG2$                 4517-0-0/w PTR         r     1 @PREVSTATE
   325-0-0/w PTR         r     1 @PT_LEN                  326-0-0/w PTR         r     1 @PT_PTR
  4520-0-0/w PTR         r     1 @SUCCSTATE               213-0-0/w SBIN        r     1 ACCUM_COST
   167-0-0/w SBIN        r     1 ACCUM_DEL_COST           166-0-0/w SBIN        r     1 ACCUM_DEL_LEN
   170-0-0/w SBIN        r     1 ACCUM_INS_TO_SYM        4117-0-0/w SBIN        r     1 ACTION
   261-0-0/w STRC(936)   r     1 BEF
     5-0-0/w BIT         r     1 CHECK_FIRST_SQL_PREFIX
  4505-0-0/w SBIN        r     1 CURRHIGHBASIS           4504-0-0/w SBIN        r     1 CURRLOWBASIS
   214-0-0/w PTR         r     1 CURRSTAGE$               174-0-0/w STRC(936)   r     1 DEL
   173-0-0/w SBIN        r     1 DEL_CHAR_OVERFLOW        313-0-0/w PTR         r     1 DEL_DNT$
    *0-0-0/w STRC(936)   r     1 DI                        *0-0-0/w SBIN        r     1 DI_CHAR_OVERFLOW
    *0-0-0/w SBIN        r     1 ERROR_TYPE               177-0-0/w UBIN        r     1 H
   203-0-0/w SBIN        r     1 HIGHBASIS               4130-0-0/w SBIN        r     1 I
   317-0-0/w SBIN        r     1 I                       4123-0-0/w SBIN              1 I
   173-0-0/w SBIN        r     1 I                       4517-0-0/w SBIN        r     1 I
  4521-0-0/w SBIN        r     1 I                       4522-0-0/w SBIN        r     1 I
   176-0-0/w SBIN        r     1 I2                      4116-0-0/w SBIN        r     1 INDX
   227-0-0/w STRC(936)   r     1 INS                      315-0-0/w PTR         r     1 INS_BEF_DNT$
   226-0-0/w SBIN        r     1 INS_CHAR_OVERFLOW        314-0-0/w PTR         r     1 INS_DNT$
PL6.E3A0      #001=Z8E3$ERROR_CORR_DD File=Z8E3.:Z8A6TSI                         SAT 08/09/97 11:28 Page:119
  4506-0-0/w SBIN        r     1 ITM                       *0-0-0/w SBIN        r     1 ITM
  4131-0-0/w SBIN        r     1 J                       4124-0-0/w SBIN              1 J
   174-0-0/w SBIN        r     1 J                        175-0-0/w SBIN        r     1 K
   200-0-0/w UBIN        r     1 L                        165-0-0/b BIT         r     1 LARGE_DELETION
     5-0-0/w STRC(1998)  r     1 LC                       270-0-0/w SBIN        r     1 LCC_SPACE(0:2184)
   211-0-0/w SBIN        r     1 LCP_ELEM_RET             202-0-0/w SBIN        r     1 LOWBASIS
    75-0-0/w STRC(1998)  r     1 LR                        *0-0-0/w STRC(1998)  r     1 LRC
   201-0-0/w UBIN        r     1 M                        205-0-0/w SBIN        r     1 MINCOST
   204-0-0/w SBIN        r     1 MINITEM                  207-0-0/w SBIN        r     1 MINLCPINDX
   210-0-0/w SBIN        r     1 MINPATH                  206-0-0/w SBIN        r     1 MINPOS
  4524-0-0/w PTR         r     1 NEWPLUG1$               4525-0-0/w PTR         r     1 NEWPLUG2$
  4510-0-0/w SBIN        r     1 NEXTHIGHBASIS           4511-0-0/w SBIN        r     1 NEXTITEM
  4507-0-0/w SBIN        r     1 NEXTLOWBASIS             215-0-0/w PTR         r     1 NEXTSTAGE$
  4120-0-0/w SBIN        r     1 NT                       173-0-0/w SBIN        r     1 OLA_GET
   174-0-0/w SBIN        r     1 OLINK                   4512-0-0/w SBIN        r     1 P
     3-0-0/w SBIN        r     1 PARSE_STACK_IDX_IN_CHARS
  4514-0-0/w SBIN        r     1 PATH_COST               4513-0-0/w SBIN        r     1 PE
  4515-0-0/w UBIN(18)    r     1 PELEM                     *0-0-0/w PTR         r     1 PLUG1$
    *0-0-0/w PTR         r     1 PLUG2$                  4502-0-0/b BIT         r     1 PRED_CLOSURE
  4501-0-0/w SBIN        r     1 PRED_ITEM                 *0-0-0/w SBIN        r     1 PREVSTATE
   173-0-0/w SBIN        r     1 PS(0:2000)              4115-0-0/w SBIN        r     1 PSTATE
  4114-0-0/w SBIN        r     1 PS_IDX                    *0-0-0/w SBIN        r     1 PT_LEN
    *0-0-0/w PTR         r     1 PT_PTR                   216-0-0/w PTR         r     1 STAGE1$(0:20)
   243-0-0/w PTR         r     1 STAGE2$(0:20)             *0-0-0/w SBIN        r     1 SUCCSTATE
  4522-0-0/w PTR         r     1 TPTR                     212-0-0/w SBIN        r     1 TRYCOST
  4503-0-0/b BIT         r     1 WORTHCONTINUING

  ****  SYMREF variables  ****

  ****  Scalars and arrays  ****
OctLoc.c.b A Datatyp(siz) R M Lvl/name                 OctLoc.c.b A Datatyp(siz) R M Lvl/name

     0-0-0/d STRC(13248)       1 COMCOM
     0-0-0/b STRC        r     1 DD_ACTION_COL(0:1149)
     0-0-0/b STRC        r     1 DD_ACTION_ROW(0:3048)
     0-0-0/b UBIN(17)    r     1 DD_DEL_COST(0:498)
     0-0-0/b STRC        r     1 DD_GOTO_COL(0:547)
PL6.E3A0      #001=Z8E3$ERROR_CORR_DD File=Z8E3.:Z8A6TSI                         SAT 08/09/97 11:28 Page:120
     0-0-0/b STRC        r     1 DD_GOTO_ROW(0:902)
     0-0-0/b STRC(32)    r     1 DD_ITEM(0:4339)            0-0-0/b STRC(44)    r     1 DD_LCP(0:7018)
     0-0-0/b UBIN(11)    r     1 DD_LCP_ELEM(0:2575)
     0-0-0/b UBIN(13)    r     1 DD_LCP_UBOUND(0:498)
     0-0-0/b STRC(30)    r     1 DD_LCS(0:1045)
     0-0-0/b UBIN(9)     r     1 DD_LCS_ELEM(0:634)
     0-0-0/b STRC(15)    r     1 DD_PATH(0:886)
     0-0-0/b UBIN(11)    r     1 DD_PATH_ELEM(0:986)
     0-0-0/b STRC(72)    r     1 DD_PRODR(0:769)
     0-0-0/b STRC(26)    r     1 DD_STATE_ITEM(0:1149)
     0-0-0/b STRC(17)    r     1 DD_TERM_STRING(0:498)
     0-0-0/c CHAR(3120)  r     1 DD_TSTRING_SPACE
     0-0-0/w STRC(180)         1 HIER_STK(0:50)
     0-0-0/w SBIN              1 HIER_STK_PTR               0-0-0/d STRC(11580) r     1 O1COM
     0-0-0/w STRC(144)         1 PAGE_FORMAT                0-0-0/w STRC(153)         1 REP_STK(0:50)
     0-0-0/w SBIN              1 REP_STK_PTR

  ****  BASED and DCB variables  ****

  ****  Scalars and arrays  ****
OctLoc.c.b A Datatyp(siz) R M Lvl/name                 OctLoc.c.b A Datatyp(siz) R M Lvl/name

     0-0-0/w STRC(288)         1 ADD_STMT                   0-0-0/w ASTR(324)   r     1 BASED_LEX_SYMBOL
     0-0-0/w STRC(360)         1 BASED_LEX_SYMBOL_WORDS
     0-0-0/w STRC(288)         1 BINARY_OP                  0-0-0/w STRC(288)         1 CALL_STMT
     0-0-0/w CHAR(4096)        1 CHARS                      0-0-0/w STRC(288)         1 COMPUTE_STMT
     0-0-0/w STRC(72)          1 CONT
     0-0-0/w PTR         r     1 CURRSTAGE(0:20)
     0-0-0/w STRC(288)         1 DEFERED_IDENTIFIER         0-0-0/w STRC(252)         1 DEFERED_ID_TREE
     0-0-0/w STRC(288)         1 DEFERED_QUAL_ID            0-0-0/w STRC(288)         1 DEFERED_SUM_CLAUSE
     0-0-0/w STRC(288)         1 DEFERED_SUM_CLAUSE_LIST
     0-0-0/w STRC(288)         1 DELETE_STMT                0-0-0/w STRC(288)         1 DIVIDE_STMT
     0-0-0/w ASTR(180)   r     1 DNT                        0-0-0/w STRC(288)         1 ILS_LIST
     0-0-0/w STRC(288)         1 INSPECT_1_STMT             0-0-0/w STRC(288)         1 INSPECT_2_STMT
     0-0-0/w STRC(288)         1 INSPECT_4_STMT             0-0-0/w STRC(288)         1 LA_ITEM
     0-0-0/h STRC(1854)  r     1 LCC                        0-0-0/w STRC(504)         1 LX_CD_INPUT
     0-0-0/w STRC(324)         1 LX_CD_I_O                  0-0-0/w STRC(396)         1 LX_CD_OUTPUT
PL6.E3A0      #001=Z8E3$ERROR_CORR_DD File=Z8E3.:Z8A6TSI                         SAT 08/09/97 11:28 Page:121
     0-0-0/w STRC(288)         1 LX_ETT_ITEM                0-0-0/w STRC(288)         1 LX_ITEM
     0-0-0/w STRC(288)         1 LX_LARGE                   0-0-0/w STRC(288)         1 LX_LIST
     0-0-0/w STRC(1224)        1 LX_REC_DECL                0-0-0/w STRC(864)         1 LX_REPORT_REC
     0-0-0/w STRC(288)         1 LX_TERMINAL                0-0-0/w STRC(288)         1 MULTIPLY_STMT
     0-0-0/w PTR         r     1 NEXTSTAGE(0:20)
     0-0-0/w STRC(36864)       1 PAGE                       0-0-0/w ASTR        r     1 PARSEDNT
     0-0-0/c ACHR              1 PARSE_STACK_USED           0-0-0/c ACHR        r     1 PT_CHAR
     0-0-0/w STRC(288)         1 READ_STMT                  0-0-0/w STRC(252)         1 REPLACE_ITEM
     0-0-0/w STRC(288)         1 REWRITE_STMT               0-0-0/w STRC(288)         1 START_STMT
     0-0-0/w STRC(252)         1 STRING_STMT                0-0-0/w STRC(288)         1 SUBTRACT_STMT
     0-0-0/w STRC(288)         1 UNARY_OP                   0-0-0/w STRC(288)         1 UNSTRING_STMT
     0-0-0/w STRC(288)         1 WRITE_STMT


   Procedure Z8E3$ERROR_CORR_DD requires 2759 words for executable code.
   Procedure Z8E3$ERROR_CORR_DD requires 2410 words of local(AUTO) storage.

PL6.E3A0      #002=ERROR_TABLES_DATA_DIV File=Z8E3.:Z8A6TSI                      SAT 08/09/97 11:31 Page:122
      272        1        /*T***********************************************************/
      273        2        /*T*                                                         */
      274        3        /*T* Copyright (c) Bull HN Information Systems Inc., 1997    */
      275        4        /*T*                                                         */
      276        5        /*T***********************************************************/
      277        6        ERROR_TABLES_DATA_DIV : PROC;
      278        7
      279        8        /* This dummy procedure is used to compile the
      280        9           parse tables.  This method of separate compilation
      281       10           is required due to size restrictions of the PL/6
      282       11           compiler.
      283       12        */
      284       13
      285       14        %INCLUDE Z8E_DD_SUBS;
      286       43        %INCLUDE Z8E_DDPDA_S;
      287      658        %INCLUDE Z8E_DDPDA_E;
      288    61341
      289    61342
      290    61343    1   END ERROR_TABLES_DATA_DIV;

PL6.E3A0      #002=ERROR_TABLES_DATA_DIV File=Z8E3.:Z8A6TSI                      SAT 08/09/97 11:31 Page:123
--  Include file information  --

   Z8E_DDPDA_E.:Z8A6TOU  cannot be made into a system file and is referenced.
   Z8E_DDPDA_S.:Z8A6TOU  is referenced.
   Z8E_DD_SUBS.:Z8A6TOU  is referenced.
      No diagnostics issued in procedure ERROR_TABLES_DATA_DIV.

   No code generated for procedure ERROR_TABLES_DATA_DIV .
   Procedure ERROR_TABLES_DATA_DIV requires 4 words of local(AUTO) storage.

    No errors detected in file Z8E3.:Z8A6TSI    .

PL6.E3A0      #002=ERROR_TABLES_DATA_DIV File=Z8E3.:Z8A6TSI                      SAT 08/09/97 11:31 Page:124

 Object Unit name= ERROR_TABLES_DATA_DIV                      File name= Z8E3.:Z8A6TOU
 UTS= AUG 09 '97 11:31:58.64 SAT                              Compiler= PL-6/E31         Sev=      00
 SharedLib= :SHARED_SYSTEM                                    Alt SharedLib=


    ****  Control sections  ****

 Sect   Type Bound  Init  Size OctSiz  Section name(segment info)
    0  RoData even  UTS  17192  41450  ERROR_TABLES_DATA_DIV
    1   Proc  even  none     0      0  ERROR_TABLES_DATA_DIV

    ****  Entry defs  ****

                              Check   Calling
                             calling  sequence
  Sect OctLoc Primary Altret sequence   type   Parms  Name
     1      0   yes            yes     ~proc       0  ERROR_TABLES_DATA_DIV

  ****  Data defs  ****

 Sect OctLoc  Name                           Sect OctLoc  Name
    0      0  DD_TERM_STRING                     0    354  DD_TSTRING_SPACE
    0   1770  DD_DEL_COST                        0   2344  DD_LCS
    0   4114  DD_LCS_ELEM                        0   4353  DD_LCP
    0  25156  DD_LCP_UBOUND                      0  25443  DD_LCP_ELEM
    0  27067  DD_ITEM                            0  36511  DD_STATE_ITEM
    0  40210  DD_PATH                            0  40772  DD_PATH_ELEM
PL6.E3A0      #002=ERROR_TABLES_DATA_DIV File=Z8E3.:Z8A6TSI                      SAT 08/09/97 11:31 Page:125

      272        1        /*T***********************************************************/
      273        2        /*T*                                                         */
      274        3        /*T* Copyright (c) Bull HN Information Systems Inc., 1997    */
      275        4        /*T*                                                         */
      276        5        /*T***********************************************************/
      277        6        ERROR_TABLES_DATA_DIV : PROC;
      278        7
      279        8        /* This dummy procedure is used to compile the
      280        9           parse tables.  This method of separate compilation
      281       10           is required due to size restrictions of the PL/6
      282       11           compiler.
      283       12        */
      284       13
      285       14        %INCLUDE Z8E_DD_SUBS;
      286       43        %INCLUDE Z8E_DDPDA_S;
      287      658        %INCLUDE Z8E_DDPDA_E;
      288    61341
      289    61342
      290    61343    1   END ERROR_TABLES_DATA_DIV;

PL6.E3A0      #002=ERROR_TABLES_DATA_DIV File=Z8E3.:Z8A6TSI                      SAT 08/09/97 11:31 Page:126
--  Include file information  --

   Z8E_DDPDA_E.:Z8A6TOU  cannot be made into a system file and is referenced.
   Z8E_DDPDA_S.:Z8A6TOU  is referenced.
   Z8E_DD_SUBS.:Z8A6TOU  is referenced.
      No diagnostics issued in procedure ERROR_TABLES_DATA_DIV.
PL6.E3A0      #002=ERROR_TABLES_DATA_DIV File=Z8E3.:Z8A6TSI                      SAT 08/09/97 11:31 Page:127

 **** Variables and constants ****

  ****  Section 000 RoData ERROR_TABLES_DATA_DIV

  ****  Scalars and arrays  ****
OctLoc.c.b A Datatyp(siz) R M Lvl/name                 OctLoc.c.b A Datatyp(siz) R M Lvl/name

  1770-0-0/b UBIN(17)          1 DD_DEL_COST(0:498)
 27067-0-0/b BIT (32)          1 DD_ITEM(0:4339)         4353-0-0/b BIT (44)          1 DD_LCP(0:7018)
 25443-0-0/b UBIN(11)          1 DD_LCP_ELEM(0:2575)
 25156-0-0/b UBIN(13)          1 DD_LCP_UBOUND(0:498)
  2344-0-0/b BIT (30)          1 DD_LCS(0:1045)
  4114-0-0/b UBIN(9)           1 DD_LCS_ELEM(0:634)
 40210-0-0/b BIT (15)          1 DD_PATH(0:886)
 40772-0-0/b UBIN(11)          1 DD_PATH_ELEM(0:986)
 36511-0-0/b BIT (26)          1 DD_STATE_ITEM(0:1149)
     0-0-0/b BIT (17)          1 DD_TERM_STRING(0:498)
   354-0-0/c CHAR(40)          1 DD_TSTRING_SPACE(0:77)


   No code generated for procedure ERROR_TABLES_DATA_DIV .
   Procedure ERROR_TABLES_DATA_DIV requires 4 words of local(AUTO) storage.

    No errors detected in file Z8E3.:Z8A6TSI    .
