VERSION A06

PL6.E3A0      #001=Z8E5$ARITHMETIC_OPERATIONS File=Z8E5.:Z8A6TSI                 SAT 08/09/97 11:33 Page:1
        1        1        /*T***********************************************************/
        2        2        /*T*                                                         */
        3        3        /*T* Copyright (c) Bull HN Information Systems Inc., 1997    */
        4        4        /*T*                                                         */
        5        5        /*T***********************************************************/
        6        6        Z8E5$ARITHMETIC_OPERATIONS:PROC(NODE$, RETURN$, LABEL$);
        7        7
        8        8
        9        9        /*P*
       10       10             NAME: Z8E5$MATH_PACK
       11       11          PURPOSE: Interface between Abstract Syntax Trees and the internal
       12       12                   language.
       13       13
       14       14        */
       15       15
       16       16        /*V* Interface:
       17       17
       18       18             IN  NODE$: PTR      - Points to Abstract Syntax Tree that
       19       19                                   represents and arithmetic expression.
       20       20
       21       21             OUT RETURN$: PTR    - Points to an empty LX_ETT_ITEM, the results
       22       22                                   of the operation are placed here.
       23       23
       24       24        */
       25       25
       26       26        %EJECT;
PL6.E3A0      #001=Z8E5$ARITHMETIC_OPERATIONS File=Z8E5.:Z8A6TSI                 SAT 08/09/97 11:33 Page:2
       27       27             %EQU PHASE = 1;
       28       28
       29       29             %INCLUDE Z8A_DEFC;
       30       97             %INCLUDE Z8A_SUPP_MAC;
       31     2497             %INCLUDE Z8A_ERR_NUMS;
       32     3261             %INCLUDE Z8A_ETT;
       33     3562             %INCLUDE Z8A_ILL;
       34     4255             %INCLUDE Z8A_ST;
       35     7914             %INCLUDE Z8A_DNT;
       36     8135             %INCLUDE Z8A_COMCOM;
       37     8785             %INCLUDE Z8A_LIBRARY;
       38     8999             %INCLUDE Z8A_SRCH;
       39     9048             %INCLUDE Z8A_TYPES;
       40     9222             %INCLUDE Z8A_DESC;
       41     9268             %INCLUDE Z8E_STACKS;
       42    11534             %INCLUDE Z8E_HEAP;
       43    11590             %INCLUDE Z8E_MACROS;
       44    12265             %INCLUDE Z8E_O1COM;
       45    13026             %INCLUDE Z8E_WINDOW;
       46    15096             %INCLUDE Z8E_DML;
       47    15216
       48    15217    1        DCL NODE$ PTR;
       49    15218    1        DCL LOP$$ PTR;
       50    15219    1        DCL LOP$ PTR;
       51    15220    1        DCL ROP$ PTR;
       52    15221    1        DCL RETURN$ PTR;
       53    15222    1        DCL LABEL$  PTR;
       54    15223    1        DCL ROP$$ PTR;
       55    15224    1        DCL ETT$$ PTR;
       56    15225    1        DCL COMP$ PTR;
       57    15226    1        DCL ZIP$  PTR;
       58    15227    1        DCL TABLE_ETT$ PTR;
       59    15228    1        DCL ON_SIZE      BIT (1) ALIGNED;
       60    15229
       61    15230    1        DCL ID                SBIN WORD;
       62    15231    1        DCL TYPE              SBIN WORD;
       63    15232
PL6.E3A0      #001=Z8E5$ARITHMETIC_OPERATIONS File=Z8E5.:Z8A6TSI                 SAT 08/09/97 11:33 Page:3
       64    15233    1        DCL 1 TYPE_DESC   ALIGNED,
       65    15234                  %TYPE_DESC;
       66    15268
       67    15269             %DCL_AUTO_LX_ITEM( @NAME = TEMP_LOP_ITEM );
       68    15273             %DCL_AUTO_LX_ITEM( @NAME = TEMP_ROP_ITEM );
       69    15277
       70    15278             %DCL_AUTO_LX_ITEM( @NAME = TEMP_LX_ITEM );
       71    15282
       72    15283    1        DCL I          SBIN WORD; /*V* Loop Index                        */
       73    15284
       74    15285    1        DCL Z8AE$ERROR                ENTRY (12);
       75    15286    1        DCL Z8AF$FORME_ON_SIZE        ENTRY (5);
       76    15287    1        DCL Z8AS$SR_ETT               ENTRY (1);
       77    15288    1        DCL Z8CO$CREATE_LIBRARY_BASE  ENTRY(2);
       78    15289    1        DCL Z8EV$LEAST_STRONGEST_TYPE ENTRY(3);
       79    15290    1        DCL Z8EU$NEW_TEMP_FROM_DESC   ENTRY(2);
       80    15291    1        DCL Z8AU$TYPE_DESCRIPTOR      ENTRY(2);
       81    15292    1        DCL Z8EV$COMPATIBLE_TYPES_ON_SIZE ENTRY(4) ALTRET;
       82    15293    1        DCL Z8EV$CONVERT_ON_SIZE          ENTRY(4);
       83    15294    1        DCL Z8AC$LX_ETT_ITEM_TYI_CONST ENTRY(2);
       84    15295    1        DCL Z8EK$BRANCH_TRUE           ENTRY(2);
       85    15296    1        DCL Z8EK$COMPARE               ENTRY(4);
       86    15297    1        DCL Z8ED$DISPOSE_ABSSYN_TREE   ENTRY(1);
       87    15298
       88    15299        %EJECT;
PL6.E3A0      #001=Z8E5$ARITHMETIC_OPERATIONS File=Z8E5.:Z8A6TSI                 SAT 08/09/97 11:33 Page:4
       89    15300
       90    15301        %TYPE_MATRIX_BEGIN(@NAME = ARITHMETIC_MATRIX);
       91    15305          %TYPE_MATRIX_ENTRY(@LOP = %TYI, @ROP = %TYI, @LOP_BECOMES = %TYI, @ROP_BECOMES =
             15305              %TYI);
       92    15314          %TYPE_MATRIX_ENTRY(@LOP = %TYI, @ROP = %TYD, @LOP_BECOMES = %TYD, @ROP_BECOMES =
             15314              %TYD);
       93    15323          %TYPE_MATRIX_ENTRY(@LOP = %TYI, @ROP = %TYH, @LOP_BECOMES = %TYI, @ROP_BECOMES =
             15323              %TYI);
       94    15332          %TYPE_MATRIX_ENTRY(@LOP = %TYI, @ROP = %TYR, @LOP_BECOMES = %TYQ, @ROP_BECOMES =
             15332              %TYQ);
       95    15341          %TYPE_MATRIX_ENTRY(@LOP = %TYI, @ROP = %TYQ, @LOP_BECOMES = %TYQ, @ROP_BECOMES =
             15341              %TYQ);
       96    15350          %TYPE_MATRIX_ENTRY(@LOP = %TYI, @ROP = %TYJ, @LOP_BECOMES = %TYI, @ROP_BECOMES =
             15350              %TYI);
       97    15359          %TYPE_MATRIX_ENTRY(@LOP = %TYI, @ROP = %TYO, @LOP_BECOMES = %TYD, @ROP_BECOMES =
             15359              %TYO);
       98    15368          %TYPE_MATRIX_ENTRY(@LOP = %TYI, @ROP = %TYK, @LOP_BECOMES = %TYI, @ROP_BECOMES =
             15368              %TYI);
       99    15377          %TYPE_MATRIX_ENTRY(@LOP = %TYI, @ROP = %TYF, @LOP_BECOMES = %TYD, @ROP_BECOMES =
             15377              %TYD);
      100    15386          %TYPE_MATRIX_ENTRY(@LOP = %TYD, @ROP = %TYI, @LOP_BECOMES = %TYD, @ROP_BECOMES =
             15386              %TYD);
      101    15395          %TYPE_MATRIX_ENTRY(@LOP = %TYD, @ROP = %TYD, @LOP_BECOMES = %TYD, @ROP_BECOMES =
             15395              %TYD);
      102    15404          %TYPE_MATRIX_ENTRY(@LOP = %TYD, @ROP = %TYH, @LOP_BECOMES = %TYD, @ROP_BECOMES =
             15404              %TYD);
      103    15413          %TYPE_MATRIX_ENTRY(@LOP = %TYD, @ROP = %TYR, @LOP_BECOMES = %TYQ, @ROP_BECOMES =
             15413              %TYQ);
      104    15422          %TYPE_MATRIX_ENTRY(@LOP = %TYD, @ROP = %TYQ, @LOP_BECOMES = %TYQ, @ROP_BECOMES =
             15422              %TYQ);
      105    15431          %TYPE_MATRIX_ENTRY(@LOP = %TYD, @ROP = %TYJ, @LOP_BECOMES = %TYD, @ROP_BECOMES =
             15431              %TYD);
      106    15440          %TYPE_MATRIX_ENTRY(@LOP = %TYD, @ROP = %TYO, @LOP_BECOMES = %TYD, @ROP_BECOMES =
             15440              %TYO);
      107    15449          %TYPE_MATRIX_ENTRY(@LOP = %TYD, @ROP = %TYK, @LOP_BECOMES = %TYD, @ROP_BECOMES =
             15449              %TYD);
      108    15458          %TYPE_MATRIX_ENTRY(@LOP = %TYD, @ROP = %TYF, @LOP_BECOMES = %TYD, @ROP_BECOMES =
PL6.E3A0      #001=Z8E5$ARITHMETIC_OPERATIONS File=Z8E5.:Z8A6TSI                 SAT 08/09/97 11:33 Page:5
             15458              %TYD);
      109    15467          %TYPE_MATRIX_ENTRY(@LOP = %TYH, @ROP = %TYI, @LOP_BECOMES = %TYI, @ROP_BECOMES =
             15467              %TYI);
      110    15476          %TYPE_MATRIX_ENTRY(@LOP = %TYH, @ROP = %TYD, @LOP_BECOMES = %TYD, @ROP_BECOMES =
             15476              %TYD);
      111    15485          %TYPE_MATRIX_ENTRY(@LOP = %TYH, @ROP = %TYH, @LOP_BECOMES = %TYI, @ROP_BECOMES =
             15485              %TYI);
      112    15494          %TYPE_MATRIX_ENTRY(@LOP = %TYH, @ROP = %TYR, @LOP_BECOMES = %TYQ, @ROP_BECOMES =
             15494              %TYQ);
      113    15503          %TYPE_MATRIX_ENTRY(@LOP = %TYH, @ROP = %TYQ, @LOP_BECOMES = %TYQ, @ROP_BECOMES =
             15503              %TYQ);
      114    15512          %TYPE_MATRIX_ENTRY(@LOP = %TYH, @ROP = %TYJ, @LOP_BECOMES = %TYI, @ROP_BECOMES =
             15512              %TYI);
      115    15521          %TYPE_MATRIX_ENTRY(@LOP = %TYH, @ROP = %TYO, @LOP_BECOMES = %TYD, @ROP_BECOMES =
             15521              %TYO);
      116    15530          %TYPE_MATRIX_ENTRY(@LOP = %TYH, @ROP = %TYK, @LOP_BECOMES = %TYI, @ROP_BECOMES =
             15530              %TYI);
      117    15539          %TYPE_MATRIX_ENTRY(@LOP = %TYH, @ROP = %TYF, @LOP_BECOMES = %TYD, @ROP_BECOMES =
             15539              %TYD);
      118    15548          %TYPE_MATRIX_ENTRY(@LOP = %TYR, @ROP = %TYI, @LOP_BECOMES = %TYR, @ROP_BECOMES =
             15548              %TYR);
      119    15557          %TYPE_MATRIX_ENTRY(@LOP = %TYR, @ROP = %TYD, @LOP_BECOMES = %TYQ, @ROP_BECOMES =
             15557              %TYQ);
      120    15566          %TYPE_MATRIX_ENTRY(@LOP = %TYR, @ROP = %TYH, @LOP_BECOMES = %TYR, @ROP_BECOMES =
             15566              %TYR);
      121    15575          %TYPE_MATRIX_ENTRY(@LOP = %TYR, @ROP = %TYR, @LOP_BECOMES = %TYR, @ROP_BECOMES =
             15575              %TYR);
      122    15584          %TYPE_MATRIX_ENTRY(@LOP = %TYR, @ROP = %TYQ, @LOP_BECOMES = %TYQ, @ROP_BECOMES =
             15584              %TYQ);
      123    15593          %TYPE_MATRIX_ENTRY(@LOP = %TYR, @ROP = %TYJ, @LOP_BECOMES = %TYR, @ROP_BECOMES =
             15593              %TYR);
      124    15602          %TYPE_MATRIX_ENTRY(@LOP = %TYR, @ROP = %TYO, @LOP_BECOMES = %TYQ, @ROP_BECOMES =
             15602              %TYQ);
      125    15611          %TYPE_MATRIX_ENTRY(@LOP = %TYR, @ROP = %TYK, @LOP_BECOMES = %TYR, @ROP_BECOMES =
             15611              %TYR);
      126    15620          %TYPE_MATRIX_ENTRY(@LOP = %TYR, @ROP = %TYF, @LOP_BECOMES = %TYQ, @ROP_BECOMES =
             15620              %TYQ);
PL6.E3A0      #001=Z8E5$ARITHMETIC_OPERATIONS File=Z8E5.:Z8A6TSI                 SAT 08/09/97 11:33 Page:6
      127    15629          %TYPE_MATRIX_ENTRY(@LOP = %TYQ, @ROP = %TYI, @LOP_BECOMES = %TYQ, @ROP_BECOMES =
             15629              %TYQ);
      128    15638          %TYPE_MATRIX_ENTRY(@LOP = %TYQ, @ROP = %TYD, @LOP_BECOMES = %TYQ, @ROP_BECOMES =
             15638              %TYQ);
      129    15647          %TYPE_MATRIX_ENTRY(@LOP = %TYQ, @ROP = %TYH, @LOP_BECOMES = %TYQ, @ROP_BECOMES =
             15647              %TYQ);
      130    15656          %TYPE_MATRIX_ENTRY(@LOP = %TYQ, @ROP = %TYR, @LOP_BECOMES = %TYQ, @ROP_BECOMES =
             15656              %TYQ);
      131    15665          %TYPE_MATRIX_ENTRY(@LOP = %TYQ, @ROP = %TYQ, @LOP_BECOMES = %TYQ, @ROP_BECOMES =
             15665              %TYQ);
      132    15674          %TYPE_MATRIX_ENTRY(@LOP = %TYQ, @ROP = %TYJ, @LOP_BECOMES = %TYQ, @ROP_BECOMES =
             15674              %TYQ);
      133    15683          %TYPE_MATRIX_ENTRY(@LOP = %TYQ, @ROP = %TYO, @LOP_BECOMES = %TYQ, @ROP_BECOMES =
             15683              %TYQ);
      134    15692          %TYPE_MATRIX_ENTRY(@LOP = %TYQ, @ROP = %TYK, @LOP_BECOMES = %TYQ, @ROP_BECOMES =
             15692              %TYQ);
      135    15701          %TYPE_MATRIX_ENTRY(@LOP = %TYQ, @ROP = %TYF, @LOP_BECOMES = %TYQ, @ROP_BECOMES =
             15701              %TYQ);
      136    15710          %TYPE_MATRIX_ENTRY(@LOP = %TYJ, @ROP = %TYI, @LOP_BECOMES = %TYI, @ROP_BECOMES =
             15710              %TYI);
      137    15719          %TYPE_MATRIX_ENTRY(@LOP = %TYJ, @ROP = %TYD, @LOP_BECOMES = %TYD, @ROP_BECOMES =
             15719              %TYD);
      138    15728          %TYPE_MATRIX_ENTRY(@LOP = %TYJ, @ROP = %TYH, @LOP_BECOMES = %TYI, @ROP_BECOMES =
             15728              %TYI);
      139    15737          %TYPE_MATRIX_ENTRY(@LOP = %TYJ, @ROP = %TYR, @LOP_BECOMES = %TYR, @ROP_BECOMES =
             15737              %TYR);
      140    15746          %TYPE_MATRIX_ENTRY(@LOP = %TYJ, @ROP = %TYQ, @LOP_BECOMES = %TYQ, @ROP_BECOMES =
             15746              %TYQ);
      141    15755          %TYPE_MATRIX_ENTRY(@LOP = %TYJ, @ROP = %TYJ, @LOP_BECOMES = %TYI, @ROP_BECOMES =
             15755              %TYI);
      142    15764          %TYPE_MATRIX_ENTRY(@LOP = %TYJ, @ROP = %TYO, @LOP_BECOMES = %TYD, @ROP_BECOMES =
             15764              %TYO);
      143    15773          %TYPE_MATRIX_ENTRY(@LOP = %TYJ, @ROP = %TYK, @LOP_BECOMES = %TYI, @ROP_BECOMES =
             15773              %TYI);
      144    15782          %TYPE_MATRIX_ENTRY(@LOP = %TYJ, @ROP = %TYF, @LOP_BECOMES = %TYD, @ROP_BECOMES =
             15782              %TYD);
      145    15791          %TYPE_MATRIX_ENTRY(@LOP = %TYO, @ROP = %TYI, @LOP_BECOMES = %TYO, @ROP_BECOMES =
PL6.E3A0      #001=Z8E5$ARITHMETIC_OPERATIONS File=Z8E5.:Z8A6TSI                 SAT 08/09/97 11:33 Page:7
             15791              %TYD);
      146    15800          %TYPE_MATRIX_ENTRY(@LOP = %TYO, @ROP = %TYD, @LOP_BECOMES = %TYO, @ROP_BECOMES =
             15800              %TYD);
      147    15809          %TYPE_MATRIX_ENTRY(@LOP = %TYO, @ROP = %TYH, @LOP_BECOMES = %TYO, @ROP_BECOMES =
             15809              %TYD);
      148    15818          %TYPE_MATRIX_ENTRY(@LOP = %TYO, @ROP = %TYR, @LOP_BECOMES = %TYQ, @ROP_BECOMES =
             15818              %TYQ);
      149    15827          %TYPE_MATRIX_ENTRY(@LOP = %TYO, @ROP = %TYQ, @LOP_BECOMES = %TYQ, @ROP_BECOMES =
             15827              %TYQ);
      150    15836          %TYPE_MATRIX_ENTRY(@LOP = %TYO, @ROP = %TYJ, @LOP_BECOMES = %TYO, @ROP_BECOMES =
             15836              %TYD);
      151    15845          %TYPE_MATRIX_ENTRY(@LOP = %TYO, @ROP = %TYO, @LOP_BECOMES = %TYO, @ROP_BECOMES =
             15845              %TYO);
      152    15854          %TYPE_MATRIX_ENTRY(@LOP = %TYO, @ROP = %TYK, @LOP_BECOMES = %TYO, @ROP_BECOMES =
             15854              %TYD);
      153    15863          %TYPE_MATRIX_ENTRY(@LOP = %TYO, @ROP = %TYF, @LOP_BECOMES = %TYO, @ROP_BECOMES =
             15863              %TYD);
      154    15872          %TYPE_MATRIX_ENTRY(@LOP = %TYK, @ROP = %TYI, @LOP_BECOMES = %TYI, @ROP_BECOMES =
             15872              %TYI);
      155    15881          %TYPE_MATRIX_ENTRY(@LOP = %TYK, @ROP = %TYD, @LOP_BECOMES = %TYD, @ROP_BECOMES =
             15881              %TYD);
      156    15890          %TYPE_MATRIX_ENTRY(@LOP = %TYK, @ROP = %TYH, @LOP_BECOMES = %TYI, @ROP_BECOMES =
             15890              %TYI);
      157    15899          %TYPE_MATRIX_ENTRY(@LOP = %TYK, @ROP = %TYR, @LOP_BECOMES = %TYR, @ROP_BECOMES =
             15899              %TYR);
      158    15908          %TYPE_MATRIX_ENTRY(@LOP = %TYK, @ROP = %TYQ, @LOP_BECOMES = %TYQ, @ROP_BECOMES =
             15908              %TYQ);
      159    15917          %TYPE_MATRIX_ENTRY(@LOP = %TYK, @ROP = %TYJ, @LOP_BECOMES = %TYI, @ROP_BECOMES =
             15917              %TYI);
      160    15926          %TYPE_MATRIX_ENTRY(@LOP = %TYK, @ROP = %TYO, @LOP_BECOMES = %TYD, @ROP_BECOMES =
             15926              %TYO);
      161    15935          %TYPE_MATRIX_ENTRY(@LOP = %TYK, @ROP = %TYK, @LOP_BECOMES = %TYI, @ROP_BECOMES =
             15935              %TYI);
      162    15944          %TYPE_MATRIX_ENTRY(@LOP = %TYK, @ROP = %TYF, @LOP_BECOMES = %TYD, @ROP_BECOMES =
             15944              %TYD);
      163    15953          %TYPE_MATRIX_ENTRY(@LOP = %TYF, @ROP = %TYI, @LOP_BECOMES = %TYD, @ROP_BECOMES =
             15953              %TYD);
PL6.E3A0      #001=Z8E5$ARITHMETIC_OPERATIONS File=Z8E5.:Z8A6TSI                 SAT 08/09/97 11:33 Page:8
      164    15962          %TYPE_MATRIX_ENTRY(@LOP = %TYF, @ROP = %TYD, @LOP_BECOMES = %TYD, @ROP_BECOMES =
             15962              %TYD);
      165    15971          %TYPE_MATRIX_ENTRY(@LOP = %TYF, @ROP = %TYH, @LOP_BECOMES = %TYD, @ROP_BECOMES =
             15971              %TYD);
      166    15980          %TYPE_MATRIX_ENTRY(@LOP = %TYF, @ROP = %TYR, @LOP_BECOMES = %TYR, @ROP_BECOMES =
             15980              %TYR);
      167    15989          %TYPE_MATRIX_ENTRY(@LOP = %TYF, @ROP = %TYQ, @LOP_BECOMES = %TYQ, @ROP_BECOMES =
             15989              %TYQ);
      168    15998          %TYPE_MATRIX_ENTRY(@LOP = %TYF, @ROP = %TYJ, @LOP_BECOMES = %TYD, @ROP_BECOMES =
             15998              %TYD);
      169    16007          %TYPE_MATRIX_ENTRY(@LOP = %TYF, @ROP = %TYO, @LOP_BECOMES = %TYD, @ROP_BECOMES =
             16007              %TYD);
      170    16016          %TYPE_MATRIX_ENTRY(@LOP = %TYF, @ROP = %TYK, @LOP_BECOMES = %TYD, @ROP_BECOMES =
             16016              %TYD);
      171    16025          %TYPE_MATRIX_ENTRY(@LOP = %TYF, @ROP = %TYF, @LOP_BECOMES = %TYD, @ROP_BECOMES =
             16025              %TYD);
      172    16034        %TYPE_MATRIX_END;
      173    16043
      174    16044        %EJECT;
PL6.E3A0      #001=Z8E5$ARITHMETIC_OPERATIONS File=Z8E5.:Z8A6TSI                 SAT 08/09/97 11:33 Page:9
      175    16045
      176    16046        %TYPE_MATRIX_BEGIN(@NAME = EXPONENT_MATRIX);
      177    16050          %TYPE_MATRIX_ENTRY(@LOP = %TYI, @ROP = %TYI, @LOP_BECOMES = %TYI, @ROP_BECOMES =
             16050              %TYI);
      178    16059          %TYPE_MATRIX_ENTRY(@LOP = %TYI, @ROP = %TYD, @LOP_BECOMES = %TYD, @ROP_BECOMES =
             16059              %TYD);
      179    16068          %TYPE_MATRIX_ENTRY(@LOP = %TYI, @ROP = %TYH, @LOP_BECOMES = %TYI, @ROP_BECOMES =
             16068              %TYI);
      180    16077          %TYPE_MATRIX_ENTRY(@LOP = %TYI, @ROP = %TYR, @LOP_BECOMES = %TYR, @ROP_BECOMES =
             16077              %TYR);
      181    16086          %TYPE_MATRIX_ENTRY(@LOP = %TYI, @ROP = %TYQ, @LOP_BECOMES = %TYQ, @ROP_BECOMES =
             16086              %TYQ);
      182    16095          %TYPE_MATRIX_ENTRY(@LOP = %TYI, @ROP = %TYJ, @LOP_BECOMES = %TYI, @ROP_BECOMES =
             16095              %TYI);
      183    16104          %TYPE_MATRIX_ENTRY(@LOP = %TYI, @ROP = %TYO, @LOP_BECOMES = %TYD, @ROP_BECOMES =
             16104              %TYD);
      184    16113          %TYPE_MATRIX_ENTRY(@LOP = %TYI, @ROP = %TYK, @LOP_BECOMES = %TYI, @ROP_BECOMES =
             16113              %TYI);
      185    16122          %TYPE_MATRIX_ENTRY(@LOP = %TYI, @ROP = %TYF, @LOP_BECOMES = %TYD, @ROP_BECOMES =
             16122              %TYD);
      186    16131          %TYPE_MATRIX_ENTRY(@LOP = %TYD, @ROP = %TYI, @LOP_BECOMES = %TYD, @ROP_BECOMES =
             16131              %TYI);
      187    16140          %TYPE_MATRIX_ENTRY(@LOP = %TYD, @ROP = %TYD, @LOP_BECOMES = %TYD, @ROP_BECOMES =
             16140              %TYD);
      188    16149          %TYPE_MATRIX_ENTRY(@LOP = %TYD, @ROP = %TYH, @LOP_BECOMES = %TYD, @ROP_BECOMES =
             16149              %TYI);
      189    16158          %TYPE_MATRIX_ENTRY(@LOP = %TYD, @ROP = %TYR, @LOP_BECOMES = %TYQ, @ROP_BECOMES =
             16158              %TYQ);
      190    16167          %TYPE_MATRIX_ENTRY(@LOP = %TYD, @ROP = %TYQ, @LOP_BECOMES = %TYQ, @ROP_BECOMES =
             16167              %TYQ);
      191    16176          %TYPE_MATRIX_ENTRY(@LOP = %TYD, @ROP = %TYJ, @LOP_BECOMES = %TYD, @ROP_BECOMES =
             16176              %TYI);
      192    16185          %TYPE_MATRIX_ENTRY(@LOP = %TYD, @ROP = %TYO, @LOP_BECOMES = %TYD, @ROP_BECOMES =
             16185              %TYD);
      193    16194          %TYPE_MATRIX_ENTRY(@LOP = %TYD, @ROP = %TYK, @LOP_BECOMES = %TYD, @ROP_BECOMES =
             16194              %TYI);
      194    16203          %TYPE_MATRIX_ENTRY(@LOP = %TYD, @ROP = %TYF, @LOP_BECOMES = %TYD, @ROP_BECOMES =
PL6.E3A0      #001=Z8E5$ARITHMETIC_OPERATIONS File=Z8E5.:Z8A6TSI                 SAT 08/09/97 11:33 Page:10
             16203              %TYD);
      195    16212          %TYPE_MATRIX_ENTRY(@LOP = %TYH, @ROP = %TYI, @LOP_BECOMES = %TYI, @ROP_BECOMES =
             16212              %TYI);
      196    16221          %TYPE_MATRIX_ENTRY(@LOP = %TYH, @ROP = %TYD, @LOP_BECOMES = %TYD, @ROP_BECOMES =
             16221              %TYD);
      197    16230          %TYPE_MATRIX_ENTRY(@LOP = %TYH, @ROP = %TYH, @LOP_BECOMES = %TYI, @ROP_BECOMES =
             16230              %TYI);
      198    16239          %TYPE_MATRIX_ENTRY(@LOP = %TYH, @ROP = %TYR, @LOP_BECOMES = %TYQ, @ROP_BECOMES =
             16239              %TYQ);
      199    16248          %TYPE_MATRIX_ENTRY(@LOP = %TYH, @ROP = %TYQ, @LOP_BECOMES = %TYQ, @ROP_BECOMES =
             16248              %TYQ);
      200    16257          %TYPE_MATRIX_ENTRY(@LOP = %TYH, @ROP = %TYJ, @LOP_BECOMES = %TYI, @ROP_BECOMES =
             16257              %TYI);
      201    16266          %TYPE_MATRIX_ENTRY(@LOP = %TYH, @ROP = %TYO, @LOP_BECOMES = %TYD, @ROP_BECOMES =
             16266              %TYD);
      202    16275          %TYPE_MATRIX_ENTRY(@LOP = %TYH, @ROP = %TYK, @LOP_BECOMES = %TYI, @ROP_BECOMES =
             16275              %TYI);
      203    16284          %TYPE_MATRIX_ENTRY(@LOP = %TYH, @ROP = %TYF, @LOP_BECOMES = %TYD, @ROP_BECOMES =
             16284              %TYD);
      204    16293          %TYPE_MATRIX_ENTRY(@LOP = %TYR, @ROP = %TYI, @LOP_BECOMES = %TYR, @ROP_BECOMES =
             16293              %TYI);
      205    16302          %TYPE_MATRIX_ENTRY(@LOP = %TYR, @ROP = %TYD, @LOP_BECOMES = %TYQ, @ROP_BECOMES =
             16302              %TYQ);
      206    16311          %TYPE_MATRIX_ENTRY(@LOP = %TYR, @ROP = %TYH, @LOP_BECOMES = %TYR, @ROP_BECOMES =
             16311              %TYI);
      207    16320          %TYPE_MATRIX_ENTRY(@LOP = %TYR, @ROP = %TYR, @LOP_BECOMES = %TYR, @ROP_BECOMES =
             16320              %TYR);
      208    16329          %TYPE_MATRIX_ENTRY(@LOP = %TYR, @ROP = %TYQ, @LOP_BECOMES = %TYQ, @ROP_BECOMES =
             16329              %TYQ);
      209    16338          %TYPE_MATRIX_ENTRY(@LOP = %TYR, @ROP = %TYJ, @LOP_BECOMES = %TYR, @ROP_BECOMES =
             16338              %TYI);
      210    16347          %TYPE_MATRIX_ENTRY(@LOP = %TYR, @ROP = %TYO, @LOP_BECOMES = %TYQ, @ROP_BECOMES =
             16347              %TYQ);
      211    16356          %TYPE_MATRIX_ENTRY(@LOP = %TYR, @ROP = %TYK, @LOP_BECOMES = %TYR, @ROP_BECOMES =
             16356              %TYI);
      212    16365          %TYPE_MATRIX_ENTRY(@LOP = %TYR, @ROP = %TYF, @LOP_BECOMES = %TYQ, @ROP_BECOMES =
             16365              %TYQ);
PL6.E3A0      #001=Z8E5$ARITHMETIC_OPERATIONS File=Z8E5.:Z8A6TSI                 SAT 08/09/97 11:33 Page:11
      213    16374          %TYPE_MATRIX_ENTRY(@LOP = %TYQ, @ROP = %TYI, @LOP_BECOMES = %TYQ, @ROP_BECOMES =
             16374              %TYI);
      214    16383          %TYPE_MATRIX_ENTRY(@LOP = %TYQ, @ROP = %TYD, @LOP_BECOMES = %TYQ, @ROP_BECOMES =
             16383              %TYQ);
      215    16392          %TYPE_MATRIX_ENTRY(@LOP = %TYQ, @ROP = %TYH, @LOP_BECOMES = %TYQ, @ROP_BECOMES =
             16392              %TYI);
      216    16401          %TYPE_MATRIX_ENTRY(@LOP = %TYQ, @ROP = %TYR, @LOP_BECOMES = %TYQ, @ROP_BECOMES =
             16401              %TYQ);
      217    16410          %TYPE_MATRIX_ENTRY(@LOP = %TYQ, @ROP = %TYQ, @LOP_BECOMES = %TYQ, @ROP_BECOMES =
             16410              %TYQ);
      218    16419          %TYPE_MATRIX_ENTRY(@LOP = %TYQ, @ROP = %TYJ, @LOP_BECOMES = %TYQ, @ROP_BECOMES =
             16419              %TYI);
      219    16428          %TYPE_MATRIX_ENTRY(@LOP = %TYQ, @ROP = %TYO, @LOP_BECOMES = %TYQ, @ROP_BECOMES =
             16428              %TYQ);
      220    16437          %TYPE_MATRIX_ENTRY(@LOP = %TYQ, @ROP = %TYK, @LOP_BECOMES = %TYQ, @ROP_BECOMES =
             16437              %TYI);
      221    16446          %TYPE_MATRIX_ENTRY(@LOP = %TYQ, @ROP = %TYF, @LOP_BECOMES = %TYQ, @ROP_BECOMES =
             16446              %TYQ);
      222    16455          %TYPE_MATRIX_ENTRY(@LOP = %TYJ, @ROP = %TYI, @LOP_BECOMES = %TYI, @ROP_BECOMES =
             16455              %TYI);
      223    16464          %TYPE_MATRIX_ENTRY(@LOP = %TYJ, @ROP = %TYD, @LOP_BECOMES = %TYD, @ROP_BECOMES =
             16464              %TYD);
      224    16473          %TYPE_MATRIX_ENTRY(@LOP = %TYJ, @ROP = %TYH, @LOP_BECOMES = %TYI, @ROP_BECOMES =
             16473              %TYI);
      225    16482          %TYPE_MATRIX_ENTRY(@LOP = %TYJ, @ROP = %TYR, @LOP_BECOMES = %TYR, @ROP_BECOMES =
             16482              %TYR);
      226    16491          %TYPE_MATRIX_ENTRY(@LOP = %TYJ, @ROP = %TYQ, @LOP_BECOMES = %TYQ, @ROP_BECOMES =
             16491              %TYQ);
      227    16500          %TYPE_MATRIX_ENTRY(@LOP = %TYJ, @ROP = %TYJ, @LOP_BECOMES = %TYI, @ROP_BECOMES =
             16500              %TYI);
      228    16509          %TYPE_MATRIX_ENTRY(@LOP = %TYJ, @ROP = %TYO, @LOP_BECOMES = %TYD, @ROP_BECOMES =
             16509              %TYD);
      229    16518          %TYPE_MATRIX_ENTRY(@LOP = %TYJ, @ROP = %TYK, @LOP_BECOMES = %TYI, @ROP_BECOMES =
             16518              %TYI);
      230    16527          %TYPE_MATRIX_ENTRY(@LOP = %TYJ, @ROP = %TYF, @LOP_BECOMES = %TYD, @ROP_BECOMES =
             16527              %TYD);
      231    16536          %TYPE_MATRIX_ENTRY(@LOP = %TYO, @ROP = %TYI, @LOP_BECOMES = %TYD, @ROP_BECOMES =
PL6.E3A0      #001=Z8E5$ARITHMETIC_OPERATIONS File=Z8E5.:Z8A6TSI                 SAT 08/09/97 11:33 Page:12
             16536              %TYI);
      232    16545          %TYPE_MATRIX_ENTRY(@LOP = %TYO, @ROP = %TYD, @LOP_BECOMES = %TYD, @ROP_BECOMES =
             16545              %TYD);
      233    16554          %TYPE_MATRIX_ENTRY(@LOP = %TYO, @ROP = %TYH, @LOP_BECOMES = %TYD, @ROP_BECOMES =
             16554              %TYI);
      234    16563          %TYPE_MATRIX_ENTRY(@LOP = %TYO, @ROP = %TYR, @LOP_BECOMES = %TYQ, @ROP_BECOMES =
             16563              %TYQ);
      235    16572          %TYPE_MATRIX_ENTRY(@LOP = %TYO, @ROP = %TYQ, @LOP_BECOMES = %TYQ, @ROP_BECOMES =
             16572              %TYQ);
      236    16581          %TYPE_MATRIX_ENTRY(@LOP = %TYO, @ROP = %TYJ, @LOP_BECOMES = %TYD, @ROP_BECOMES =
             16581              %TYI);
      237    16590          %TYPE_MATRIX_ENTRY(@LOP = %TYO, @ROP = %TYO, @LOP_BECOMES = %TYD, @ROP_BECOMES =
             16590              %TYD);
      238    16599          %TYPE_MATRIX_ENTRY(@LOP = %TYO, @ROP = %TYK, @LOP_BECOMES = %TYD, @ROP_BECOMES =
             16599              %TYI);
      239    16608          %TYPE_MATRIX_ENTRY(@LOP = %TYO, @ROP = %TYF, @LOP_BECOMES = %TYD, @ROP_BECOMES =
             16608              %TYD);
      240    16617          %TYPE_MATRIX_ENTRY(@LOP = %TYK, @ROP = %TYI, @LOP_BECOMES = %TYI, @ROP_BECOMES =
             16617              %TYI);
      241    16626          %TYPE_MATRIX_ENTRY(@LOP = %TYK, @ROP = %TYD, @LOP_BECOMES = %TYD, @ROP_BECOMES =
             16626              %TYD);
      242    16635          %TYPE_MATRIX_ENTRY(@LOP = %TYK, @ROP = %TYH, @LOP_BECOMES = %TYI, @ROP_BECOMES =
             16635              %TYI);
      243    16644          %TYPE_MATRIX_ENTRY(@LOP = %TYK, @ROP = %TYR, @LOP_BECOMES = %TYR, @ROP_BECOMES =
             16644              %TYR);
      244    16653          %TYPE_MATRIX_ENTRY(@LOP = %TYK, @ROP = %TYQ, @LOP_BECOMES = %TYQ, @ROP_BECOMES =
             16653              %TYQ);
      245    16662          %TYPE_MATRIX_ENTRY(@LOP = %TYK, @ROP = %TYJ, @LOP_BECOMES = %TYI, @ROP_BECOMES =
             16662              %TYI);
      246    16671          %TYPE_MATRIX_ENTRY(@LOP = %TYK, @ROP = %TYO, @LOP_BECOMES = %TYD, @ROP_BECOMES =
             16671              %TYD);
      247    16680          %TYPE_MATRIX_ENTRY(@LOP = %TYK, @ROP = %TYK, @LOP_BECOMES = %TYI, @ROP_BECOMES =
             16680              %TYI);
      248    16689          %TYPE_MATRIX_ENTRY(@LOP = %TYK, @ROP = %TYF, @LOP_BECOMES = %TYD, @ROP_BECOMES =
             16689              %TYD);
      249    16698          %TYPE_MATRIX_ENTRY(@LOP = %TYF, @ROP = %TYI, @LOP_BECOMES = %TYD, @ROP_BECOMES =
             16698              %TYD);
PL6.E3A0      #001=Z8E5$ARITHMETIC_OPERATIONS File=Z8E5.:Z8A6TSI                 SAT 08/09/97 11:33 Page:13
      250    16707          %TYPE_MATRIX_ENTRY(@LOP = %TYF, @ROP = %TYD, @LOP_BECOMES = %TYD, @ROP_BECOMES =
             16707              %TYD);
      251    16716          %TYPE_MATRIX_ENTRY(@LOP = %TYF, @ROP = %TYH, @LOP_BECOMES = %TYD, @ROP_BECOMES =
             16716              %TYD);
      252    16725          %TYPE_MATRIX_ENTRY(@LOP = %TYF, @ROP = %TYR, @LOP_BECOMES = %TYR, @ROP_BECOMES =
             16725              %TYR);
      253    16734          %TYPE_MATRIX_ENTRY(@LOP = %TYF, @ROP = %TYQ, @LOP_BECOMES = %TYQ, @ROP_BECOMES =
             16734              %TYQ);
      254    16743          %TYPE_MATRIX_ENTRY(@LOP = %TYF, @ROP = %TYJ, @LOP_BECOMES = %TYD, @ROP_BECOMES =
             16743              %TYD);
      255    16752          %TYPE_MATRIX_ENTRY(@LOP = %TYF, @ROP = %TYO, @LOP_BECOMES = %TYD, @ROP_BECOMES =
             16752              %TYD);
      256    16761          %TYPE_MATRIX_ENTRY(@LOP = %TYF, @ROP = %TYK, @LOP_BECOMES = %TYD, @ROP_BECOMES =
             16761              %TYD);
      257    16770          %TYPE_MATRIX_ENTRY(@LOP = %TYF, @ROP = %TYF, @LOP_BECOMES = %TYD, @ROP_BECOMES =
             16770              %TYD);
      258    16779        %TYPE_MATRIX_END;
      259    16788    1   DEC_OVERP_INST : PROC (OETT_ID, ETT_ID);
      260    16789
      261    16790    2     DCL OETT_ID SBIN;
      262    16791    2     DCL ETT_ID SBIN;
      263    16792
      264    16793    2   IF LOP$$ -> LX_ETT_ITEM.TYPE = %TYO OR
      265    16794    2       LOP$$ -> LX_ETT_ITEM.TYPE = %TYF THEN
      266    16795    3     DO;
      267    16796    3       IF COMCOM.OB.ELS THEN
      268    16797    3         CALL Z8AF$FORME_ON_SIZE (OETT_ID,
      269    16798    3                                  LOP$$ -> LX_ETT_ITEM.ETT$,
      270    16799    3                                  ROP$$ -> LX_ETT_ITEM.ETT$,
      271    16800    3                                  ETT$$,
      272    16801    3                                  ON_SIZE);
      273    16802    3       ELSE
      274    16803    4         DO;
      275    16804    4           CALL Z8EV$CONVERT_ON_SIZE (%TYD, LOP$$, LOP$$, ON_SIZE);
      276    16805    4           CALL Z8AF$FORME_ON_SIZE (ETT_ID,
      277    16806    4                                    LOP$$ -> LX_ETT_ITEM.ETT$,
      278    16807    4                                    ROP$$ -> LX_ETT_ITEM.ETT$,
PL6.E3A0      #001=Z8E5$ARITHMETIC_OPERATIONS File=Z8E5.:Z8A6TSI                 SAT 08/09/97 11:33 Page:14
      279    16808    4                                    ETT$$,
      280    16809    4                                    ON_SIZE);
      281    16810    4         END;
      282    16811    3     END;
      283    16812    2   ELSE
      284    16813    2     CALL Z8AF$FORME_ON_SIZE (ETT_ID,
      285    16814    2                              LOP$$ -> LX_ETT_ITEM.ETT$,
      286    16815    2                              ROP$$ -> LX_ETT_ITEM.ETT$,
      287    16816    2                              ETT$$,
      288    16817    2                              ON_SIZE);
      289    16818
      290    16819    2   END DEC_OVERP_INST;
      291    16820        %EJECT;
PL6.E3A0      #001=Z8E5$ARITHMETIC_OPERATIONS File=Z8E5.:Z8A6TSI                 SAT 08/09/97 11:33 Page:15
      292    16821    1   OVERP_DEC_INST : PROC (OETT_ID, ETT_ID);
      293    16822
      294    16823    2     DCL OETT_ID SBIN;
      295    16824    2     DCL ETT_ID SBIN;
      296    16825
      297    16826    2   IF COMCOM.OB.ELS THEN
      298    16827    3     DO;
      299    16828    3       CALL Z8AF$FORME_ON_SIZE (OETT_ID,
      300    16829    3                                LOP$$ -> LX_ETT_ITEM.ETT$,
      301    16830    3                                ROP$$ -> LX_ETT_ITEM.ETT$,
      302    16831    3                                ETT$$,
      303    16832    3                                ON_SIZE);
      304    16833    3     END;
      305    16834    2   ELSE
      306    16835    3     DO;
      307    16836    3       CALL Z8EV$CONVERT_ON_SIZE (%TYD, LOP$$, LOP$$, ON_SIZE);
      308    16837    3       CALL Z8EV$CONVERT_ON_SIZE (%TYD, ROP$$, ROP$$, ON_SIZE);
      309    16838    3       CALL Z8AF$FORME_ON_SIZE (ETT_ID,
      310    16839    3                                LOP$$ -> LX_ETT_ITEM.ETT$,
      311    16840    3                                ROP$$ -> LX_ETT_ITEM.ETT$,
      312    16841    3                                ETT$$,
      313    16842    3                                ON_SIZE);
      314    16843    3     END;
      315    16844
      316    16845    2   END OVERP_DEC_INST;
      317    16846        %EJECT;
PL6.E3A0      #001=Z8E5$ARITHMETIC_OPERATIONS File=Z8E5.:Z8A6TSI                 SAT 08/09/97 11:33 Page:16
      318    16847    1   Z8E5$MATH_PACK_ON_SIZE:ENTRY(NODE$, RETURN$, LABEL$);
      319    16848
      320    16849    1        ON_SIZE = TRUE;
      321    16850
      322    16851    1        GOTO COMMON_MATH_PACK;
      323    16852
      324    16853
      325    16854        %EJECT;
PL6.E3A0      #001=Z8E5$ARITHMETIC_OPERATIONS File=Z8E5.:Z8A6TSI                 SAT 08/09/97 11:33 Page:17
      326    16855    1   Z8E5$MATH_PACK: ENTRY (NODE$, RETURN$);
      327    16856
      328    16857    1        ON_SIZE = FALSE;
      329    16858
      330    16859    1   COMMON_MATH_PACK:
      331    16860
      332    16861
      333    16862    2        DO CASE(NODE$ -> LX_ITEM.ID);
      334    16863    2          CASE(%UNARY_OP);
      335    16864    2            LOP$$ = ADDR(TEMP_LOP_ITEM);
      336    16865
      337    16866    2            IF ON_SIZE THEN
      338    16867    2              CALL Z8E5$MATH_PACK_ON_SIZE (NODE$ -> UNARY_OP.LOP$,
      339    16868    2                                           LOP$$,
      340    16869    2                                           LABEL$);
      341    16870    2            ELSE
      342    16871    2              CALL Z8E5$MATH_PACK(NODE$ -> UNARY_OP.LOP$, LOP$$);
      343    16872
      344    16873    3            DO CASE(NODE$ -> UNARY_OP.OP);
      345    16874    3              CASE(%OP_UNARY_MINUS);
      346    16875    4                DO CASE(LOP$$ -> LX_ETT_ITEM.TYPE);
      347    16876    4                  CASE(%TYI);
      348    16877    4                    ID = %USI;
      349    16878
      350    16879    4                  CASE(%TYD);
      351    16880    4                    ID = %USD;
      352    16881
      353    16882    4                  CASE(%TYR);
      354    16883    4                    ID = %USR;
      355    16884
      356    16885    4                  CASE(%TYQ);
      357    16886    4                    ID = %USQ;
      358    16887
      359    16888    4                  CASE(%TYO);
      360    16889    4                    IF COMCOM.OB.ELS THEN
      361    16890    4                      ID = %USO;
      362    16891    4                    ELSE
PL6.E3A0      #001=Z8E5$ARITHMETIC_OPERATIONS File=Z8E5.:Z8A6TSI                 SAT 08/09/97 11:33 Page:18
      363    16892    5                      DO;
      364    16893    5                        CALL Z8EV$CONVERT_ON_SIZE (%TYD, LOP$$, LOP$$, ON_SIZE);
      365    16894    5                        ID = %USD;
      366    16895    5                      END;
      367    16896
      368    16897    4                  CASE(%TYF);
      369    16898    4                    CALL Z8EV$CONVERT_ON_SIZE (%TYD, LOP$$, LOP$$, ON_SIZE);
      370    16899    4                    ID = %USD;
      371    16900
      372    16901    4                  CASE(%TYJ, %TYH, %TYK);
      373    16902    4                    CALL Z8EV$CONVERT_ON_SIZE (%TYI, LOP$$, LOP$$, ON_SIZE);
      374    16903    4                    ID = %USI;
      375    16904
      376    16905    4                  CASE(ELSE);
      377    16906    4                    CALL ERROR_AND_RECOVERY (NODE$, RETURN$);
      378    16907    4                    RETURN;
      379    16908
      380    16909    4                END /*V* Case */;
      381    16910
      382    16911    3                CALL Z8AF$FORME_ON_SIZE(ID,
      383    16912    3                                LOP$$ -> LX_ETT_ITEM.ETT$,
      384    16913    3                                0,
      385    16914    3                                ETT$$, ON_SIZE);
      386    16915    3                ETT$$ -> ETT.B.MPI = LOP$$ -> LX_ETT_ITEM.ETT$ -> ETT.B.MPI;
      387    16916    3              CASE(%OP_PAREN);
      388    16917    3                ETT$$ = LOP$$ -> LX_ETT_ITEM.ETT$;
      389    16918
      390    16919    3              CASE(ELSE);
      391    16920    3                CALL ERROR_AND_RECOVERY (NODE$, RETURN$);
      392    16921    3                RETURN;
      393    16922
      394    16923    3            END /*V* Case */;
      395    16924
      396    16925    2            CALL Z8AU$TYPE_DESCRIPTOR(ETT$$, TYPE_DESC);
      397    16926
      398    16927                 %INIT_LX_ETT_ITEM ( @POINTER = RETURN$ ,
      399    16928                                     @TYPE    = TYPE_DESC.TYPE ,
PL6.E3A0      #001=Z8E5$ARITHMETIC_OPERATIONS File=Z8E5.:Z8A6TSI                 SAT 08/09/97 11:33 Page:19
      400    16929                                     @ETT$    = ETT$$ );
      401    16951
      402    16952        %EJECT;
PL6.E3A0      #001=Z8E5$ARITHMETIC_OPERATIONS File=Z8E5.:Z8A6TSI                 SAT 08/09/97 11:33 Page:20
      403    16953
      404    16954    2          CASE(%BINARY_OP);
      405    16955    2            LOP$$ = ADDR(TEMP_LOP_ITEM);
      406    16956    2            ROP$$ = ADDR(TEMP_ROP_ITEM);
      407    16957
      408    16958    2            IF ON_SIZE THEN
      409    16959    3              DO;
      410    16960    3                CALL Z8E5$MATH_PACK_ON_SIZE (NODE$ -> BINARY_OP.LOP$,
      411    16961    3                                             LOP$$,
      412    16962    3                                             LABEL$);
      413    16963    3                CALL Z8E5$MATH_PACK_ON_SIZE (NODE$ -> BINARY_OP.ROP$,
      414    16964    3                                             ROP$$,
      415    16965    3                                             LABEL$);
      416    16966    3              END;
      417    16967    2            ELSE
      418    16968    3              DO;
      419    16969    3                CALL Z8E5$MATH_PACK(NODE$ -> BINARY_OP.LOP$, LOP$$);
      420    16970    3                CALL Z8E5$MATH_PACK(NODE$ -> BINARY_OP.ROP$, ROP$$);
      421    16971    3              END;
      422    16972
      423    16973    2            IF O1COM.CURRENT_PROC$ -> PROC_.B.SUB_SCHEMA    THEN
      424    16974
      425    16975    2                CALL DML_TYPE_CHECK(LOP$$,ROP$$)
      426    16976    2                   WHENALTRETURN
      427    16977    3                     DO;
      428    16978    3                       CALL ERROR_AND_RECOVERY (NODE$, RETURN$);
      429    16979    3                       RETURN;
      430    16980    3                     END;
      431    16981
      432    16982    3            DO CASE(NODE$ -> BINARY_OP.OP);
      433    16983
      434    16984        %EJECT;
PL6.E3A0      #001=Z8E5$ARITHMETIC_OPERATIONS File=Z8E5.:Z8A6TSI                 SAT 08/09/97 11:33 Page:21
      435    16985    3              CASE(%OP_PLUS);
      436    16986
      437    16987    3                CALL Z8EV$COMPATIBLE_TYPES_ON_SIZE(LOP$$, ROP$$, ARITHMETIC_MATRIX,
             16987                         ON_SIZE)
      438    16988    3                  WHENALTRETURN
      439    16989    4                    DO;
      440    16990    4                      CALL ERROR_AND_RECOVERY (NODE$, RETURN$);
      441    16991
      442    16992    4                      RETURN;
      443    16993    4                    END;
      444    16994
      445    16995    4                DO CASE(ROP$$->LX_ITEM.TYPE);
      446    16996    4                  CASE(%TYI);
      447    16997    4                    CALL Z8AF$FORME_ON_SIZE(%ADI,
      448    16998    4                                    LOP$$ -> LX_ETT_ITEM.ETT$,
      449    16999    4                                    ROP$$ -> LX_ETT_ITEM.ETT$,
      450    17000    4                                    ETT$$, ON_SIZE);
      451    17001    4                    IF LOP$$ -> LX_ETT_ITEM.ETT$ -> ETT.B.MPI OR
      452    17002    4                        ROP$$ -> LX_ETT_ITEM.ETT$ -> ETT.B.MPI THEN
      453    17003    4                      ETT$$ -> ETT.B.MPI = TRUE;
      454    17004
      455    17005    4                  CASE(%TYD);
      456    17006    4                    CALL DEC_OVERP_INST (%ADO, %ADD);
      457    17007
      458    17008    4                  CASE(%TYR);
      459    17009    4                    CALL Z8AF$FORME_ON_SIZE(%ADR, LOP$$->LX_ETT_ITEM.ETT$, ROP$$->
             17009                             LX_ETT_ITEM.ETT$, ETT$$, ON_SIZE);
      460    17010
      461    17011    4                  CASE(%TYQ);
      462    17012    4                    CALL Z8AF$FORME_ON_SIZE(%ADQ, LOP$$->LX_ETT_ITEM.ETT$, ROP$$->
             17012                             LX_ETT_ITEM.ETT$, ETT$$, ON_SIZE);
      463    17013
      464    17014    4                  CASE(%TYO, %TYF);
      465    17015    4                    CALL OVERP_DEC_INST (%ADO, %ADD);
      466    17016
      467    17017    4                  CASE(ELSE);
      468    17018    4                    CALL Z8AE$ERROR(%E$UNEXPECTED_CASE,
PL6.E3A0      #001=Z8E5$ARITHMETIC_OPERATIONS File=Z8E5.:Z8A6TSI                 SAT 08/09/97 11:33 Page:22
      469    17019    4                                    ROP$$ -> LX_ETT_ITEM.LINE,
      470    17020    4                                    ROP$$ -> LX_ETT_ITEM.COLUMN);
      471    17021    4                    ETT$$ = LOP$$ -> LX_ETT_ITEM.ETT$;
      472    17022    4                END /*V* CASE */;
      473    17023
      474    17024
      475    17025        %EJECT;
PL6.E3A0      #001=Z8E5$ARITHMETIC_OPERATIONS File=Z8E5.:Z8A6TSI                 SAT 08/09/97 11:33 Page:23
      476    17026    3              CASE(%OP_BINARY_MINUS);
      477    17027
      478    17028    3                CALL Z8EV$COMPATIBLE_TYPES_ON_SIZE(LOP$$, ROP$$, ARITHMETIC_MATRIX,
             17028                         ON_SIZE)
      479    17029    3                  WHENALTRETURN
      480    17030    4                    DO;
      481    17031    4                      CALL ERROR_AND_RECOVERY (NODE$, RETURN$);
      482    17032
      483    17033    4                      RETURN;
      484    17034    4                    END;
      485    17035
      486    17036    4                DO CASE(ROP$$->LX_ITEM.TYPE);
      487    17037    4                  CASE(%TYI);
      488    17038    4                    CALL Z8AF$FORME_ON_SIZE(%SBI, LOP$$->LX_ETT_ITEM.ETT$, ROP$$->
             17038                             LX_ETT_ITEM.ETT$, ETT$$, ON_SIZE);
      489    17039    4                    IF LOP$$ -> LX_ETT_ITEM.ETT$ -> ETT.B.MPI OR
      490    17040    4                        ROP$$ -> LX_ETT_ITEM.ETT$ -> ETT.B.MPI THEN
      491    17041    4                      ETT$$ -> ETT.B.MPI = TRUE;
      492    17042
      493    17043    4                  CASE(%TYD);
      494    17044    4                    CALL DEC_OVERP_INST (%SBO, %SBD);
      495    17045
      496    17046    4                  CASE(%TYR);
      497    17047    4                    CALL Z8AF$FORME_ON_SIZE(%SBR, LOP$$->LX_ETT_ITEM.ETT$, ROP$$->
             17047                             LX_ETT_ITEM.ETT$, ETT$$, ON_SIZE);
      498    17048
      499    17049    4                  CASE(%TYQ);
      500    17050    4                    CALL Z8AF$FORME_ON_SIZE(%SBQ, LOP$$->LX_ETT_ITEM.ETT$, ROP$$->
             17050                             LX_ETT_ITEM.ETT$, ETT$$, ON_SIZE);
      501    17051
      502    17052    4                  CASE(%TYO, %TYF);
      503    17053    4                    CALL OVERP_DEC_INST (%SBO, %SBD);
      504    17054
      505    17055    4                  CASE(ELSE);
      506    17056    4                    CALL Z8AE$ERROR(%E$UNEXPECTED_CASE,
      507    17057    4                                    ROP$$ -> LX_ETT_ITEM.LINE,
      508    17058    4                                    ROP$$ -> LX_ETT_ITEM.COLUMN);
PL6.E3A0      #001=Z8E5$ARITHMETIC_OPERATIONS File=Z8E5.:Z8A6TSI                 SAT 08/09/97 11:33 Page:24
      509    17059    4                  ETT$$ = LOP$$ -> LX_ETT_ITEM.ETT$;
      510    17060    4                END /*V* CASE */;
      511    17061
      512    17062
      513    17063        %EJECT;
PL6.E3A0      #001=Z8E5$ARITHMETIC_OPERATIONS File=Z8E5.:Z8A6TSI                 SAT 08/09/97 11:33 Page:25
      514    17064    3              CASE(%OP_STAR);
      515    17065
      516    17066    3                CALL Z8EV$COMPATIBLE_TYPES_ON_SIZE(LOP$$, ROP$$, ARITHMETIC_MATRIX,
             17066                         ON_SIZE)
      517    17067    3                  WHENALTRETURN
      518    17068    4                    DO;
      519    17069    4                      CALL ERROR_AND_RECOVERY (NODE$, RETURN$);
      520    17070
      521    17071    4                      RETURN;
      522    17072    4                    END;
      523    17073
      524    17074    4                DO CASE(ROP$$->LX_ITEM.TYPE);
      525    17075    4                  CASE(%TYI);
      526    17076    4                    IF ON_SIZE THEN
      527    17077    5                      DO;
      528    17078                             %SRCH_ETT (@ID     = %MPI,
      529    17079                                        @LOP    = LOP$$ -> LX_ETT_ITEM.ETT$,
      530    17080                                        @ROP    = ROP$$ -> LX_ETT_ITEM.ETT$,
      531    17081                                        @ETT$   = ETT$$);
      532    17096
      533    17097                             %NEW_ILL (@ID     = %GO,
      534    17098                                       @CODE   = %GO_MPI_OVERFLOW,
      535    17099                                       @EXPR$  = ETT$$,
      536    17100                                       @LABEL$ = LABEL$);
      537    17479    5                      END;
      538    17480    4                    ELSE
      539    17481    4                      CALL Z8AF$FORME_ON_SIZE(%MPI,
      540    17482    4                                      LOP$$ -> LX_ETT_ITEM.ETT$,
      541    17483    4                                      ROP$$ -> LX_ETT_ITEM.ETT$,
      542    17484    4                                      ETT$$, ON_SIZE);
      543    17485    5                    DO CASE (ETT$$ -> ETT.ID);
      544    17486    5                      CASE (%MPI, %MPI2);
      545    17487    5                        ETT$$ -> ETT.B.MPI = TRUE;
      546    17488    5                      CASE (%USI); /* Optimization of multiply by -1 */
      547    17489    5                        ETT$$ -> ETT.B.MPI = ETT$$ -> ETT.LOP -> ETT.B.MPI;
      548    17490                           /* Other cases, do not set the MPI bit */
      549    17491    5                    END;
PL6.E3A0      #001=Z8E5$ARITHMETIC_OPERATIONS File=Z8E5.:Z8A6TSI                 SAT 08/09/97 11:33 Page:26
      550    17492
      551    17493    4                  CASE(%TYD);
      552    17494    4                    CALL DEC_OVERP_INST (%MPO, %MPD);
      553    17495
      554    17496    4                  CASE(%TYR);
      555    17497    4                    CALL Z8AF$FORME_ON_SIZE(%MPR, LOP$$->LX_ETT_ITEM.ETT$, ROP$$->
             17497                             LX_ETT_ITEM.ETT$, ETT$$, ON_SIZE);
      556    17498
      557    17499    4                  CASE(%TYQ);
      558    17500    4                    CALL Z8AF$FORME_ON_SIZE(%MPQ, LOP$$->LX_ETT_ITEM.ETT$, ROP$$->
             17500                             LX_ETT_ITEM.ETT$, ETT$$, ON_SIZE);
      559    17501
      560    17502    4                  CASE(%TYO, %TYF);
      561    17503    4                    CALL OVERP_DEC_INST (%MPO, %MPD);
      562    17504
      563    17505    4                  CASE(ELSE);
      564    17506    4                    CALL Z8AE$ERROR(%E$UNEXPECTED_CASE,
      565    17507    4                                    ROP$$ -> LX_ETT_ITEM.LINE,
      566    17508    4                                    ROP$$ -> LX_ETT_ITEM.COLUMN);
      567    17509    4                  ETT$$ = LOP$$ -> LX_ETT_ITEM.ETT$;
      568    17510    4                END /*V* CASE */;
      569    17511
      570    17512
      571    17513        %EJECT;
PL6.E3A0      #001=Z8E5$ARITHMETIC_OPERATIONS File=Z8E5.:Z8A6TSI                 SAT 08/09/97 11:33 Page:27
      572    17514    3              CASE(%OP_SLASH);
      573    17515
      574    17516    3                IF ON_SIZE THEN
      575    17517    4                  DO;
      576    17518    4                    ZIP$ = ADDR(TEMP_LX_ITEM);
      577    17519
      578    17520    4                    CALL Z8AC$LX_ETT_ITEM_TYI_CONST (0, ZIP$);
      579    17521
      580    17522    4                    CALL Z8EK$COMPARE (ROP$$,
      581    17523    4                                       %OP_EQUAL,
      582    17524    4                                       ZIP$,
      583    17525    4                                       COMP$);
      584    17526
      585    17527    4                    CALL Z8EK$BRANCH_TRUE (LABEL$, COMP$);
      586    17528
      587    17529    4                    CALL Z8ED$DISPOSE_ABSSYN_TREE (COMP$);
      588    17530    4                  END;
      589    17531
      590    17532    3                CALL Z8EV$COMPATIBLE_TYPES_ON_SIZE(LOP$$, ROP$$, ARITHMETIC_MATRIX,
             17532                         ON_SIZE)
      591    17533    3                  WHENALTRETURN
      592    17534    4                    DO;
      593    17535    4                      CALL ERROR_AND_RECOVERY (NODE$, RETURN$);
      594    17536
      595    17537    4                      RETURN;
      596    17538    4                    END;
      597    17539
      598    17540    4                DO CASE(ROP$$->LX_ITEM.TYPE);
      599    17541    4                  CASE(%TYI);
      600    17542    4                    CALL Z8EV$CONVERT_ON_SIZE(%TYD, LOP$$, LOP$$, ON_SIZE);
      601    17543    4                    CALL Z8EV$CONVERT_ON_SIZE(%TYD, ROP$$, ROP$$, ON_SIZE);
      602    17544
      603    17545    4                    CALL Z8AF$FORME_ON_SIZE(%DVDR, LOP$$->LX_ETT_ITEM.ETT$, ROP$$->
             17545                             LX_ETT_ITEM.ETT$, ETT$$, ON_SIZE);
      604    17546
      605    17547    4                  CASE(%TYD);
      606    17548    4                    CALL DEC_OVERP_INST (%DVOR, %DVDR);
PL6.E3A0      #001=Z8E5$ARITHMETIC_OPERATIONS File=Z8E5.:Z8A6TSI                 SAT 08/09/97 11:33 Page:28
      607    17549
      608    17550    4                  CASE(%TYR);
      609    17551    4                    CALL Z8AF$FORME_ON_SIZE(%DVR, LOP$$->LX_ETT_ITEM.ETT$, ROP$$->
             17551                             LX_ETT_ITEM.ETT$, ETT$$, ON_SIZE);
      610    17552
      611    17553    4                  CASE(%TYQ);
      612    17554    4                    CALL Z8AF$FORME_ON_SIZE(%DVQ, LOP$$->LX_ETT_ITEM.ETT$, ROP$$->
             17554                             LX_ETT_ITEM.ETT$, ETT$$, ON_SIZE);
      613    17555
      614    17556    4                  CASE(%TYO, %TYF);
      615    17557    4                    CALL OVERP_DEC_INST (%DVOR, %DVDR);
      616    17558
      617    17559    4                  CASE(ELSE);
      618    17560    4                    CALL Z8AE$ERROR(%E$UNEXPECTED_CASE,
      619    17561    4                                    ROP$$ -> LX_ETT_ITEM.LINE,
      620    17562    4                                    ROP$$ -> LX_ETT_ITEM.COLUMN);
      621    17563    4                  ETT$$ = LOP$$ -> LX_ETT_ITEM.ETT$;
      622    17564    4                END /*V* CASE */;
      623    17565
      624    17566        %EJECT;
PL6.E3A0      #001=Z8E5$ARITHMETIC_OPERATIONS File=Z8E5.:Z8A6TSI                 SAT 08/09/97 11:33 Page:29
      625    17567    3              CASE(%OP_STAR_STAR);
      626    17568    3                CALL Z8EV$COMPATIBLE_TYPES_ON_SIZE(LOP$$, ROP$$, EXPONENT_MATRIX,
             17568                         ON_SIZE)
      627    17569    3                  WHENALTRETURN
      628    17570    4                    DO;
      629    17571    4                      CALL ERROR_AND_RECOVERY (NODE$, RETURN$);
      630    17572
      631    17573    4                      RETURN;
      632    17574    4                    END;
      633    17575
      634    17576    4                DO CASE (ROP$$->LX_ITEM.TYPE);
      635    17577    4                  CASE (%TYI);
      636    17578    5                    DO CASE (LOP$$->LX_ITEM.TYPE);
      637    17579    5                      CASE (%TYI);
      638    17580    5                        CALL Z8EV$CONVERT_ON_SIZE(%TYD, LOP$$, LOP$$, ON_SIZE);
      639    17581
      640    17582    5                        CALL Z8AF$FORME_ON_SIZE(%EXDI, LOP$$->LX_ETT_ITEM.ETT$, ROP$$->
             17582                                 LX_ETT_ITEM.ETT$, ETT$$, ON_SIZE);
      641    17583
      642    17584    5                      CASE (%TYD);
      643    17585    5                        CALL Z8AF$FORME_ON_SIZE(%EXDI, LOP$$->LX_ETT_ITEM.ETT$, ROP$$->
             17585                                 LX_ETT_ITEM.ETT$, ETT$$, ON_SIZE);
      644    17586
      645    17587    5                      CASE (%TYQ);
      646    17588    5                        CALL Z8AF$FORME_ON_SIZE(%EXQI, LOP$$->LX_ETT_ITEM.ETT$, ROP$$->
             17588                                 LX_ETT_ITEM.ETT$, ETT$$, ON_SIZE);
      647    17589
      648    17590    5                      CASE (%TYR);
      649    17591    5                        CALL Z8AF$FORME_ON_SIZE(%EXRI, LOP$$->LX_ETT_ITEM.ETT$, ROP$$->
             17591                                 LX_ETT_ITEM.ETT$, ETT$$, ON_SIZE);
      650    17592
      651    17593    5                      CASE(ELSE);
      652    17594    5                        CALL Z8AE$ERROR(%E$UNEXPECTED_CASE,
      653    17595    5                                        LOP$$ -> LX_ITEM.LINE,
      654    17596    5                                        LOP$$ -> LX_ITEM.COLUMN);
      655    17597    5                      ETT$$ = LOP$$ -> LX_ETT_ITEM.ETT$;
      656    17598    5                    END;
PL6.E3A0      #001=Z8E5$ARITHMETIC_OPERATIONS File=Z8E5.:Z8A6TSI                 SAT 08/09/97 11:33 Page:30
      657    17599
      658    17600    4                  CASE (%TYD);
      659    17601    4                    CALL Z8AF$FORME_ON_SIZE(%EXDD, LOP$$->LX_ETT_ITEM.ETT$, ROP$$->
             17601                             LX_ETT_ITEM.ETT$, ETT$$, ON_SIZE);
      660    17602
      661    17603    4                  CASE (%TYR);
      662    17604    4                    CALL Z8AF$FORME_ON_SIZE(%EXRR, LOP$$->LX_ETT_ITEM.ETT$, ROP$$->
             17604                             LX_ETT_ITEM.ETT$, ETT$$, ON_SIZE);
      663    17605
      664    17606    4                  CASE (%TYQ);
      665    17607    4                    CALL Z8AF$FORME_ON_SIZE(%EXQQ, LOP$$->LX_ETT_ITEM.ETT$, ROP$$->
             17607                             LX_ETT_ITEM.ETT$, ETT$$, ON_SIZE);
      666    17608
      667    17609    4                  CASE(ELSE);
      668    17610    4                    CALL Z8AE$ERROR(%E$UNEXPECTED_CASE,
      669    17611    4                                    ROP$$ -> LX_ITEM.LINE,
      670    17612    4                                    ROP$$ -> LX_ITEM.COLUMN);
      671    17613    4                    ETT$$ = LOP$$ -> LX_ETT_ITEM.ETT$;
      672    17614
      673    17615    4                END /*V* Case */;
      674    17616
      675    17617        %EJECT;
PL6.E3A0      #001=Z8E5$ARITHMETIC_OPERATIONS File=Z8E5.:Z8A6TSI                 SAT 08/09/97 11:33 Page:31
      676    17618    3          CASE(%OP_MINIMUM);
      677    17619    3            CALL Z8EV$COMPATIBLE_TYPES_ON_SIZE(LOP$$, ROP$$, ARITHMETIC_MATRIX, ON_SIZE
             17619                     )
      678    17620    3              WHENALTRETURN
      679    17621    4                DO;
      680    17622    4                  CALL ERROR_AND_RECOVERY (NODE$, RETURN$);
      681    17623
      682    17624    4                  RETURN;
      683    17625    4                END;
      684    17626
      685    17627    4          DO CASE(ROP$$ -> LX_ETT_ITEM.TYPE);
      686    17628    4            CASE(%TYI);
      687    17629    4              CALL Z8AF$FORME_ON_SIZE(%MINI,
      688    17630    4                              LOP$$ -> LX_ETT_ITEM.ETT$,
      689    17631    4                              ROP$$ -> LX_ETT_ITEM.ETT$,
      690    17632    4                              ETT$$, ON_SIZE);
      691    17633
      692    17634    4            CASE(%TYD);
      693    17635    4              CALL DEC_OVERP_INST (%MINO, %MIND);
      694    17636
      695    17637    4            CASE(%TYR);
      696    17638    4              CALL Z8AF$FORME_ON_SIZE(%MINR,
      697    17639    4                              LOP$$ -> LX_ETT_ITEM.ETT$,
      698    17640    4                              ROP$$ -> LX_ETT_ITEM.ETT$,
      699    17641    4                              ETT$$, ON_SIZE);
      700    17642
      701    17643    4            CASE(%TYQ);
      702    17644    4              CALL Z8AF$FORME_ON_SIZE(%MINQ,
      703    17645    4                              LOP$$ -> LX_ETT_ITEM.ETT$,
      704    17646    4                              ROP$$ -> LX_ETT_ITEM.ETT$,
      705    17647    4                              ETT$$, ON_SIZE);
      706    17648
      707    17649    4            CASE(%TYO);
      708    17650    4              CALL OVERP_DEC_INST (%MINO, %MIND);
      709    17651
      710    17652    4            CASE(ELSE);
      711    17653    4              CALL Z8AE$ERROR(%E$UNEXPECTED_CASE,
PL6.E3A0      #001=Z8E5$ARITHMETIC_OPERATIONS File=Z8E5.:Z8A6TSI                 SAT 08/09/97 11:33 Page:32
      712    17654    4                              ROP$$ -> LX_ETT_ITEM.LINE,
      713    17655    4                              ROP$$ -> LX_ETT_ITEM.COLUMN);
      714    17656    4              ETT$$ = LOP$$ -> LX_ETT_ITEM.ETT$;
      715    17657    4          END /*V* Case */;
      716    17658
      717    17659        %EJECT;
PL6.E3A0      #001=Z8E5$ARITHMETIC_OPERATIONS File=Z8E5.:Z8A6TSI                 SAT 08/09/97 11:33 Page:33
      718    17660    3              CASE(%OP_INDEX);
      719    17661    3                CALL Z8EV$CONVERT_ON_SIZE(%TYA, LOP$$, LOP$$, ON_SIZE);
      720    17662    3                CALL Z8EV$CONVERT_ON_SIZE(%TYA, ROP$$, ROP$$, ON_SIZE);
      721    17663
      722    17664    3                CALL Z8AF$FORME_ON_SIZE(%INDEX,
      723    17665    3                                LOP$$ -> LX_ETT_ITEM.ETT$,
      724    17666    3                                ROP$$ -> LX_ETT_ITEM.ETT$,
      725    17667    3                                ETT$$, ON_SIZE);
      726    17668
      727    17669
      728    17670    3              CASE(ELSE);
      729    17671    3                CALL ERROR_AND_RECOVERY (NODE$, RETURN$);
      730    17672
      731    17673    3                RETURN;
      732    17674    3            END /*V* Case */;
      733    17675
      734    17676    2            CALL Z8AU$TYPE_DESCRIPTOR(ETT$$, TYPE_DESC);
      735    17677
      736    17678                 %INIT_LX_ETT_ITEM ( @POINTER = RETURN$ ,
      737    17679                                     @TYPE    = TYPE_DESC.TYPE ,
      738    17680                                     @ETT$    = ETT$$ );
      739    17702
      740    17703        %EJECT;
PL6.E3A0      #001=Z8E5$ARITHMETIC_OPERATIONS File=Z8E5.:Z8A6TSI                 SAT 08/09/97 11:33 Page:34
      741    17704    2          CASE(%LX_ETT_ITEM);
      742    17705    2            RETURN$ -> LX_ETT_ITEM = NODE$ -> LX_ETT_ITEM;
      743    17706    2            IF NODE$ -> LX_ETT_ITEM.TYPE = %TYC THEN
      744    17707    3              DO;
      745    17708    3                CALL Z8CO$CREATE_LIBRARY_BASE(%OP_GBCD_TO_ASCII, TABLE_ETT$);
      746    17709    3                CALL Z8AF$FORME_ON_SIZE(%CVT,
      747    17710    3                                        RETURN$ -> LX_ETT_ITEM.ETT$,
      748    17711    3                                        TABLE_ETT$,
      749    17712    3                                        RETURN$ -> LX_ETT_ITEM.ETT$,
      750    17713    3                                        ON_SIZE);
      751    17714    3                CALL Z8AU$TYPE_DESCRIPTOR(RETURN$ -> LX_ETT_ITEM.ETT$, TYPE_DESC);
      752    17715    3                RETURN$ -> LX_ETT_ITEM.TYPE = TYPE_DESC.TYPE;
      753    17716    3              END;
      754    17717
      755    17718    2          CASE(%LX_TERMINAL);
      756    17719    2            CALL Z8EV$LEAST_STRONGEST_TYPE(NODE$, %CONTEXT_NUMERIC, RETURN$);
      757    17720
      758    17721    2          CASE(ELSE);
      759    17722    2            CALL ERROR_AND_RECOVERY (NODE$, RETURN$);
      760    17723
      761    17724    2            RETURN;
      762    17725
      763    17726    2        END /*V* Case */;
      764    17727
      765    17728    1        RETURN;
      766    17729
      767    17730        %EJECT;
PL6.E3A0      #001=Z8E5$ARITHMETIC_OPERATIONS File=Z8E5.:Z8A6TSI                 SAT 08/09/97 11:33 Page:35
      768    17731    1   ERROR_AND_RECOVERY: PROC (NODE$, RETURN$);
      769    17732
      770    17733    2        DCL NODE$         PTR;
      771    17734    2        DCL RETURN$       PTR;
      772    17735
      773    17736    2        DCL 1 TYPE_DESC   ALIGNED,
      774    17737                  %TYPE_DESC;
      775    17771
      776    17772
      777    17773             %CONDITIONAL_ERROR (@LX_ITEM$ = NODE$,
      778    17774                                 @ERROR# = %E$INVALID_MATH_OPERANDS,
      779    17775                                 @LINE = NODE$ -> LX_ITEM.LINE,
      780    17776                                 @COLUMN = NODE$ -> LX_ITEM.COLUMN);
      781    17806
      782    17807             %INIT_TYPE_DESC (@TYPE_DESC = TYPE_DESC,
      783    17808                              @TYPE      = %TYI);
      784    17852
      785    17853    2        CALL Z8EU$NEW_TEMP_FROM_DESC (TYPE_DESC, RETURN$);
      786    17854
      787    17855    2   END ERROR_AND_RECOVERY;
      788    17856         %EJECT;
PL6.E3A0      #001=Z8E5$ARITHMETIC_OPERATIONS File=Z8E5.:Z8A6TSI                 SAT 08/09/97 11:33 Page:36
      789    17857    1   DML_TYPE_CHECK:  PROC (LOP$,ROP$) ALTRET;
      790    17858
      791    17859    2       DCL LOP$        PTR;
      792    17860    2       DCL ROP$        PTR;
      793    17861    2       DCL LOP_ST$     PTR;
      794    17862    2       DCL ROP_ST$     PTR;
      795    17863
      796    17864
      797    17865    2       IF ROP$ -> LX_ITEM.ID = %LX_ETT_ITEM     THEN
      798    17866    3         DO;
      799    17867                %FISH(TRIAD = ROP$ -> LX_ETT_ITEM.ETT$,
      800    17868                      RTN = ROP_ST$);
      801    17876    3           IF ROP_ST$ -> VARIABLE.B.DML_TYPE = %DATA_BASE_KEY    THEN
      802    17877    4             DO;
      803    17878    4               ROP$ -> LX_ITEM.B.ERROR = %TRUE;
      804    17879    4               ALTRETURN;
      805    17880    4             END;
      806    17881    3         END;
      807    17882
      808    17883    2       IF LOP$ -> LX_ITEM.ID = %LX_ETT_ITEM     THEN
      809    17884    3         DO;
      810    17885                %FISH(TRIAD = LOP$ -> LX_ETT_ITEM.ETT$,
      811    17886                      RTN = LOP_ST$);
      812    17894    3           IF LOP_ST$ -> VARIABLE.B.DML_TYPE = %DML_REG   THEN
      813    17895    4             DO;
      814    17896    4               IF O1COM.SECTION_FOUND.DECLARATIVES    AND
      815    17897    4                    LOP_ST$ -> VARIABLE.DNT$ -> DNT.TEXT.NAME ~= 'DB-PRIVACY-KEY'  THEN
      816    17898    5                   DO;
      817    17899    5                     LOP$ -> LX_ITEM.B.ERROR = %TRUE;
      818    17900    5                     ALTRETURN;
      819    17901    5                   END;
      820    17902    4              IF NOT O1COM.SECTION_FOUND.DECLARATIVES   THEN
      821    17903    5                DO;
      822    17904    5                  LOP$ -> LX_ITEM.B.ERROR = %TRUE;
      823    17905    5                  ALTRETURN;
      824    17906    5                END;
      825    17907    4             END;
PL6.E3A0      #001=Z8E5$ARITHMETIC_OPERATIONS File=Z8E5.:Z8A6TSI                 SAT 08/09/97 11:33 Page:37
      826    17908    3         END;
      827    17909
      828    17910    2       RETURN;
      829    17911    2   END DML_TYPE_CHECK;
      830    17912
      831    17913    1   END Z8E5$ARITHMETIC_OPERATIONS;

PL6.E3A0      #001=Z8E5$ARITHMETIC_OPERATIONS File=Z8E5.:Z8A6TSI                 SAT 08/09/97 11:33 Page:38
--  Include file information  --

   Z8E_DML.:Z8A6TOU  is referenced.
   Z8E_WINDOW.:Z8A6TOU  is referenced.
   Z8E_O1COM.:Z8A6TOU  cannot be made into a system file and is referenced.
   Z8E_NEW_ILL.:Z8A6TOU  is referenced.
   Z8E_MACROS.:Z8A6TOU  cannot be made into a system file and is referenced.
   Z8E_HEAP.:Z8A6TOU  cannot be made into a system file and is referenced.
   Z8A_LEX_SYMB.:Z8A6TOU  cannot be made into a system file and is referenced.
   Z8E_STACKS.:Z8A6TOU  cannot be made into a system file and is referenced.
   Z8A_DESC.:Z8A6TOU  cannot be made into a system file and is referenced.
   Z8A_TYPES.:Z8A6TOU  is referenced.
   Z8A_SRCH.:Z8A6TOU  cannot be made into a system file and is referenced.
   Z8A_LIBRARY.:Z8A6TOU  cannot be made into a system file and is referenced.
   Z8A_COMCOM.:Z8A6TOU  cannot be made into a system file and is referenced.
   Z8A_DNT.:Z8A6TOU  cannot be made into a system file and is referenced.
   Z8A_ST.:Z8A6TOU  cannot be made into a system file and is referenced.
   Z8A_ILL.:Z8A6TOU  cannot be made into a system file and is referenced.
   Z8A_ETT.:Z8A6TOU  cannot be made into a system file and is referenced.
   Z8A_ERR_NUMS.:Z8A6TOU  is referenced.
   X8A_COM_MACS.:X8A6TOU  is referenced.
   Z8A_NAMES.:Z8A6TOU  is referenced.
   Z8A_SUPP_MAC.:Z8A6TOU  is referenced.
   Z8A_DEFC.:Z8A6TOU  cannot be made into a system file and is referenced.
      No diagnostics issued in procedure Z8E5$ARITHMETIC_OPERATIONS.

   Procedure Z8E5$ARITHMETIC_OPERATIONS requires 1611 words for executable code.
   Procedure Z8E5$ARITHMETIC_OPERATIONS requires 78 words of local(AUTO) storage.

    No errors detected in file Z8E5.:Z8A6TSI    .

PL6.E3A0      #001=Z8E5$ARITHMETIC_OPERATIONS File=Z8E5.:Z8A6TSI                 SAT 08/09/97 11:33 Page:39

 Object Unit name= Z8E5$ARITHMETIC_OPERATIONS                 File name= Z8E5.:Z8A6TOU
 UTS= AUG 09 '97 11:33:35.40 SAT                              Compiler= PL-6/E31         Sev=      00
 SharedLib= :SHARED_SYSTEM                                    Alt SharedLib=


    ****  Control sections  ****

 Sect   Type Bound  Init  Size OctSiz  Section name(segment info)
    0  LblCom even  none     1      1  ITERATION
    1  LblCom even  none     1      1  ETT$
    2  LblCom even  none     1      1  HEAD_ETT$
    3  LblCom even  none   512   1000  ETT_BUCKETS
    4  LblCom even  none     5      5  ETT_
    5  LblCom even  none     1      1  ILL$
    6  LblCom even  none     5      5  ILL_
    7  LblCom even  none     1      1  ST$
    8  LblCom even  none     5      5  ST_
    9  LblCom even  none     1      1  DNT$
   10  LblCom even  none     5      5  DNT_
   11  LblCom even  none     1      1  DNT_BUCKET_NUMBER
   12  LblCom even  none     1      1  DNT_OF_1$
   13  LblCom even  none     3      3  SRCH
   14  LblCom even  none    90    132  LEX_SYMBOL
   15  LblCom even  none     1      1  CURRENT_LEX_SYMBOL$
   16  LblCom even  none    90    132  TEMP_LEX_SYMBOL
   17  LblCom even  none    90    132  TEMP_LEX_SYMBOL2
   18  LblCom even  none     1      1  HEAP$
   19  RoData even  UTS    196    304  Z8E5$ARITHMETIC_OPERATIONS
   20   Proc  even  none  1611   3113  Z8E5$ARITHMETIC_OPERATIONS
   21  RoData even  none    91    133  Z8E5$ARITHMETIC_OPERATIONS
PL6.E3A0      #001=Z8E5$ARITHMETIC_OPERATIONS File=Z8E5.:Z8A6TSI                 SAT 08/09/97 11:33 Page:40

    ****  Entry defs  ****

                              Check   Calling
                             calling  sequence
  Sect OctLoc Primary Altret sequence   type   Parms  Name
    20      0   yes            yes      Std        3  Z8E5$ARITHMETIC_OPERATIONS
    20    206                  yes      Std        3  Z8E5$MATH_PACK_ON_SIZE
    20    213                  yes      Std        2  Z8E5$MATH_PACK

  ****  Entry refs  ****

         Check        Calling
        calling       sequence
Altret sequence SRef   type   Args  Name
         yes           Std       4 Z8EV$CONVERT_ON_SIZE
         yes           Std       5 Z8AF$FORME_ON_SIZE
         yes           Std      12 Z8AE$ERROR
         yes           Std       2 Z8CO$CREATE_LIBRARY_BASE
         yes           Std       2 Z8AU$TYPE_DESCRIPTOR
 yes     yes           Std       4 Z8EV$COMPATIBLE_TYPES_ON_SIZE
         yes           Std       4 Z8AN$NEW_ILL
         yes           Std       4 Z8EK$COMPARE
         yes           Std       1 Z8AS$SR_ETT
         yes           Std       3 Z8EV$LEAST_STRONGEST_TYPE
         yes           Std       2 Z8EK$BRANCH_TRUE
         yes           Std       2 Z8AC$LX_ETT_ITEM_TYI_CONST
         yes           Std       1 Z8ED$DISPOSE_ABSSYN_TREE
         yes           Std       2 Z8EU$NEW_TEMP_FROM_DESC
                       nStd      0 X66_AUTO_3
                       nStd      0 X66_ARET
PL6.E3A0      #001=Z8E5$ARITHMETIC_OPERATIONS File=Z8E5.:Z8A6TSI                 SAT 08/09/97 11:33 Page:41

  ****  Data refs  ****

  Flags:  r = read only, s = secondary
Flgs Name                             Flgs Name                             Flgs Name
r    ILL_STEP                              COMCOM                                O1COM
     HIER_STK_PTR                          HIER_STK                              PAGE_FORMAT
     REP_STK_PTR                           REP_STK

  ****  Segment refs  ****

  Flags:  r = read only, s = secondary
Flgs Name                             Flgs Name                             Flgs Name
     NULLSID                               ISSID
PL6.E3A0      #001=Z8E5$ARITHMETIC_OPERATIONS File=Z8E5.:Z8A6TSI                 SAT 08/09/97 11:33 Page:42


        1        1        /*T***********************************************************/
        2        2        /*T*                                                         */
        3        3        /*T* Copyright (c) Bull HN Information Systems Inc., 1997    */
        4        4        /*T*                                                         */
        5        5        /*T***********************************************************/
        6        6        Z8E5$ARITHMETIC_OPERATIONS:PROC(NODE$, RETURN$, LABEL$);

      6 20 000000   000000 700200 xent  Z8E5$ARITHM* TSX0  ! X66_AUTO_3
        20 000001   000116 000003                    ZERO    78,3
        20 000002   000205 710000 20                 TRA     s:16845+2

        7        7
        8        8
        9        9        /*P*
       10       10             NAME: Z8E5$MATH_PACK
       11       11          PURPOSE: Interface between Abstract Syntax Trees and the internal
       12       12                   language.
       13       13
       14       14        */
       15       15
       16       16        /*V* Interface:
       17       17
       18       18             IN  NODE$: PTR      - Points to Abstract Syntax Tree that
       19       19                                   represents and arithmetic expression.
       20       20
       21       21             OUT RETURN$: PTR    - Points to an empty LX_ETT_ITEM, the results
       22       22                                   of the operation are placed here.
       23       23
       24       24        */
       25       25
       26       26        %EJECT;
PL6.E3A0      #001=Z8E5$ARITHMETIC_OPERATIONS File=Z8E5.:Z8A6TSI                 SAT 08/09/97 11:33 Page:43
       27       27             %EQU PHASE = 1;
       28       28
       29       29             %INCLUDE Z8A_DEFC;
       30       97             %INCLUDE Z8A_SUPP_MAC;
       31     2497             %INCLUDE Z8A_ERR_NUMS;
       32     3261             %INCLUDE Z8A_ETT;
       33     3562             %INCLUDE Z8A_ILL;
       34     4255             %INCLUDE Z8A_ST;
       35     7914             %INCLUDE Z8A_DNT;
       36     8135             %INCLUDE Z8A_COMCOM;
       37     8785             %INCLUDE Z8A_LIBRARY;
       38     8999             %INCLUDE Z8A_SRCH;
       39     9048             %INCLUDE Z8A_TYPES;
       40     9222             %INCLUDE Z8A_DESC;
       41     9268             %INCLUDE Z8E_STACKS;
       42    11534             %INCLUDE Z8E_HEAP;
       43    11590             %INCLUDE Z8E_MACROS;
       44    12265             %INCLUDE Z8E_O1COM;
       45    13026             %INCLUDE Z8E_WINDOW;
       46    15096             %INCLUDE Z8E_DML;
       47    15216
       48    15217    1        DCL NODE$ PTR;
       49    15218    1        DCL LOP$$ PTR;
       50    15219    1        DCL LOP$ PTR;
       51    15220    1        DCL ROP$ PTR;
       52    15221    1        DCL RETURN$ PTR;
       53    15222    1        DCL LABEL$  PTR;
       54    15223    1        DCL ROP$$ PTR;
       55    15224    1        DCL ETT$$ PTR;
       56    15225    1        DCL COMP$ PTR;
       57    15226    1        DCL ZIP$  PTR;
       58    15227    1        DCL TABLE_ETT$ PTR;
       59    15228    1        DCL ON_SIZE      BIT (1) ALIGNED;
       60    15229
       61    15230    1        DCL ID                SBIN WORD;
       62    15231    1        DCL TYPE              SBIN WORD;
       63    15232
PL6.E3A0      #001=Z8E5$ARITHMETIC_OPERATIONS File=Z8E5.:Z8A6TSI                 SAT 08/09/97 11:33 Page:44
       64    15233    1        DCL 1 TYPE_DESC   ALIGNED,
       65    15234                  %TYPE_DESC;
       66    15268
       67    15269             %DCL_AUTO_LX_ITEM( @NAME = TEMP_LOP_ITEM );
       68    15273             %DCL_AUTO_LX_ITEM( @NAME = TEMP_ROP_ITEM );
       69    15277
       70    15278             %DCL_AUTO_LX_ITEM( @NAME = TEMP_LX_ITEM );
       71    15282
       72    15283    1        DCL I          SBIN WORD; /*V* Loop Index                        */
       73    15284
       74    15285    1        DCL Z8AE$ERROR                ENTRY (12);
       75    15286    1        DCL Z8AF$FORME_ON_SIZE        ENTRY (5);
       76    15287    1        DCL Z8AS$SR_ETT               ENTRY (1);
       77    15288    1        DCL Z8CO$CREATE_LIBRARY_BASE  ENTRY(2);
       78    15289    1        DCL Z8EV$LEAST_STRONGEST_TYPE ENTRY(3);
       79    15290    1        DCL Z8EU$NEW_TEMP_FROM_DESC   ENTRY(2);
       80    15291    1        DCL Z8AU$TYPE_DESCRIPTOR      ENTRY(2);
       81    15292    1        DCL Z8EV$COMPATIBLE_TYPES_ON_SIZE ENTRY(4) ALTRET;
       82    15293    1        DCL Z8EV$CONVERT_ON_SIZE          ENTRY(4);
       83    15294    1        DCL Z8AC$LX_ETT_ITEM_TYI_CONST ENTRY(2);
       84    15295    1        DCL Z8EK$BRANCH_TRUE           ENTRY(2);
       85    15296    1        DCL Z8EK$COMPARE               ENTRY(4);
       86    15297    1        DCL Z8ED$DISPOSE_ABSSYN_TREE   ENTRY(1);
       87    15298
       88    15299        %EJECT;
PL6.E3A0      #001=Z8E5$ARITHMETIC_OPERATIONS File=Z8E5.:Z8A6TSI                 SAT 08/09/97 11:33 Page:45
       89    15300
       90    15301        %TYPE_MATRIX_BEGIN(@NAME = ARITHMETIC_MATRIX);
       91    15305          %TYPE_MATRIX_ENTRY(@LOP = %TYI, @ROP = %TYI, @LOP_BECOMES = %TYI, @ROP_BECOMES =
             15305              %TYI);
       92    15314          %TYPE_MATRIX_ENTRY(@LOP = %TYI, @ROP = %TYD, @LOP_BECOMES = %TYD, @ROP_BECOMES =
             15314              %TYD);
       93    15323          %TYPE_MATRIX_ENTRY(@LOP = %TYI, @ROP = %TYH, @LOP_BECOMES = %TYI, @ROP_BECOMES =
             15323              %TYI);
       94    15332          %TYPE_MATRIX_ENTRY(@LOP = %TYI, @ROP = %TYR, @LOP_BECOMES = %TYQ, @ROP_BECOMES =
             15332              %TYQ);
       95    15341          %TYPE_MATRIX_ENTRY(@LOP = %TYI, @ROP = %TYQ, @LOP_BECOMES = %TYQ, @ROP_BECOMES =
             15341              %TYQ);
       96    15350          %TYPE_MATRIX_ENTRY(@LOP = %TYI, @ROP = %TYJ, @LOP_BECOMES = %TYI, @ROP_BECOMES =
             15350              %TYI);
       97    15359          %TYPE_MATRIX_ENTRY(@LOP = %TYI, @ROP = %TYO, @LOP_BECOMES = %TYD, @ROP_BECOMES =
             15359              %TYO);
       98    15368          %TYPE_MATRIX_ENTRY(@LOP = %TYI, @ROP = %TYK, @LOP_BECOMES = %TYI, @ROP_BECOMES =
             15368              %TYI);
       99    15377          %TYPE_MATRIX_ENTRY(@LOP = %TYI, @ROP = %TYF, @LOP_BECOMES = %TYD, @ROP_BECOMES =
             15377              %TYD);
      100    15386          %TYPE_MATRIX_ENTRY(@LOP = %TYD, @ROP = %TYI, @LOP_BECOMES = %TYD, @ROP_BECOMES =
             15386              %TYD);
      101    15395          %TYPE_MATRIX_ENTRY(@LOP = %TYD, @ROP = %TYD, @LOP_BECOMES = %TYD, @ROP_BECOMES =
             15395              %TYD);
      102    15404          %TYPE_MATRIX_ENTRY(@LOP = %TYD, @ROP = %TYH, @LOP_BECOMES = %TYD, @ROP_BECOMES =
             15404              %TYD);
      103    15413          %TYPE_MATRIX_ENTRY(@LOP = %TYD, @ROP = %TYR, @LOP_BECOMES = %TYQ, @ROP_BECOMES =
             15413              %TYQ);
      104    15422          %TYPE_MATRIX_ENTRY(@LOP = %TYD, @ROP = %TYQ, @LOP_BECOMES = %TYQ, @ROP_BECOMES =
             15422              %TYQ);
      105    15431          %TYPE_MATRIX_ENTRY(@LOP = %TYD, @ROP = %TYJ, @LOP_BECOMES = %TYD, @ROP_BECOMES =
             15431              %TYD);
      106    15440          %TYPE_MATRIX_ENTRY(@LOP = %TYD, @ROP = %TYO, @LOP_BECOMES = %TYD, @ROP_BECOMES =
             15440              %TYO);
      107    15449          %TYPE_MATRIX_ENTRY(@LOP = %TYD, @ROP = %TYK, @LOP_BECOMES = %TYD, @ROP_BECOMES =
             15449              %TYD);
      108    15458          %TYPE_MATRIX_ENTRY(@LOP = %TYD, @ROP = %TYF, @LOP_BECOMES = %TYD, @ROP_BECOMES =
PL6.E3A0      #001=Z8E5$ARITHMETIC_OPERATIONS File=Z8E5.:Z8A6TSI                 SAT 08/09/97 11:33 Page:46
             15458              %TYD);
      109    15467          %TYPE_MATRIX_ENTRY(@LOP = %TYH, @ROP = %TYI, @LOP_BECOMES = %TYI, @ROP_BECOMES =
             15467              %TYI);
      110    15476          %TYPE_MATRIX_ENTRY(@LOP = %TYH, @ROP = %TYD, @LOP_BECOMES = %TYD, @ROP_BECOMES =
             15476              %TYD);
      111    15485          %TYPE_MATRIX_ENTRY(@LOP = %TYH, @ROP = %TYH, @LOP_BECOMES = %TYI, @ROP_BECOMES =
             15485              %TYI);
      112    15494          %TYPE_MATRIX_ENTRY(@LOP = %TYH, @ROP = %TYR, @LOP_BECOMES = %TYQ, @ROP_BECOMES =
             15494              %TYQ);
      113    15503          %TYPE_MATRIX_ENTRY(@LOP = %TYH, @ROP = %TYQ, @LOP_BECOMES = %TYQ, @ROP_BECOMES =
             15503              %TYQ);
      114    15512          %TYPE_MATRIX_ENTRY(@LOP = %TYH, @ROP = %TYJ, @LOP_BECOMES = %TYI, @ROP_BECOMES =
             15512              %TYI);
      115    15521          %TYPE_MATRIX_ENTRY(@LOP = %TYH, @ROP = %TYO, @LOP_BECOMES = %TYD, @ROP_BECOMES =
             15521              %TYO);
      116    15530          %TYPE_MATRIX_ENTRY(@LOP = %TYH, @ROP = %TYK, @LOP_BECOMES = %TYI, @ROP_BECOMES =
             15530              %TYI);
      117    15539          %TYPE_MATRIX_ENTRY(@LOP = %TYH, @ROP = %TYF, @LOP_BECOMES = %TYD, @ROP_BECOMES =
             15539              %TYD);
      118    15548          %TYPE_MATRIX_ENTRY(@LOP = %TYR, @ROP = %TYI, @LOP_BECOMES = %TYR, @ROP_BECOMES =
             15548              %TYR);
      119    15557          %TYPE_MATRIX_ENTRY(@LOP = %TYR, @ROP = %TYD, @LOP_BECOMES = %TYQ, @ROP_BECOMES =
             15557              %TYQ);
      120    15566          %TYPE_MATRIX_ENTRY(@LOP = %TYR, @ROP = %TYH, @LOP_BECOMES = %TYR, @ROP_BECOMES =
             15566              %TYR);
      121    15575          %TYPE_MATRIX_ENTRY(@LOP = %TYR, @ROP = %TYR, @LOP_BECOMES = %TYR, @ROP_BECOMES =
             15575              %TYR);
      122    15584          %TYPE_MATRIX_ENTRY(@LOP = %TYR, @ROP = %TYQ, @LOP_BECOMES = %TYQ, @ROP_BECOMES =
             15584              %TYQ);
      123    15593          %TYPE_MATRIX_ENTRY(@LOP = %TYR, @ROP = %TYJ, @LOP_BECOMES = %TYR, @ROP_BECOMES =
             15593              %TYR);
      124    15602          %TYPE_MATRIX_ENTRY(@LOP = %TYR, @ROP = %TYO, @LOP_BECOMES = %TYQ, @ROP_BECOMES =
             15602              %TYQ);
      125    15611          %TYPE_MATRIX_ENTRY(@LOP = %TYR, @ROP = %TYK, @LOP_BECOMES = %TYR, @ROP_BECOMES =
             15611              %TYR);
      126    15620          %TYPE_MATRIX_ENTRY(@LOP = %TYR, @ROP = %TYF, @LOP_BECOMES = %TYQ, @ROP_BECOMES =
             15620              %TYQ);
PL6.E3A0      #001=Z8E5$ARITHMETIC_OPERATIONS File=Z8E5.:Z8A6TSI                 SAT 08/09/97 11:33 Page:47
      127    15629          %TYPE_MATRIX_ENTRY(@LOP = %TYQ, @ROP = %TYI, @LOP_BECOMES = %TYQ, @ROP_BECOMES =
             15629              %TYQ);
      128    15638          %TYPE_MATRIX_ENTRY(@LOP = %TYQ, @ROP = %TYD, @LOP_BECOMES = %TYQ, @ROP_BECOMES =
             15638              %TYQ);
      129    15647          %TYPE_MATRIX_ENTRY(@LOP = %TYQ, @ROP = %TYH, @LOP_BECOMES = %TYQ, @ROP_BECOMES =
             15647              %TYQ);
      130    15656          %TYPE_MATRIX_ENTRY(@LOP = %TYQ, @ROP = %TYR, @LOP_BECOMES = %TYQ, @ROP_BECOMES =
             15656              %TYQ);
      131    15665          %TYPE_MATRIX_ENTRY(@LOP = %TYQ, @ROP = %TYQ, @LOP_BECOMES = %TYQ, @ROP_BECOMES =
             15665              %TYQ);
      132    15674          %TYPE_MATRIX_ENTRY(@LOP = %TYQ, @ROP = %TYJ, @LOP_BECOMES = %TYQ, @ROP_BECOMES =
             15674              %TYQ);
      133    15683          %TYPE_MATRIX_ENTRY(@LOP = %TYQ, @ROP = %TYO, @LOP_BECOMES = %TYQ, @ROP_BECOMES =
             15683              %TYQ);
      134    15692          %TYPE_MATRIX_ENTRY(@LOP = %TYQ, @ROP = %TYK, @LOP_BECOMES = %TYQ, @ROP_BECOMES =
             15692              %TYQ);
      135    15701          %TYPE_MATRIX_ENTRY(@LOP = %TYQ, @ROP = %TYF, @LOP_BECOMES = %TYQ, @ROP_BECOMES =
             15701              %TYQ);
      136    15710          %TYPE_MATRIX_ENTRY(@LOP = %TYJ, @ROP = %TYI, @LOP_BECOMES = %TYI, @ROP_BECOMES =
             15710              %TYI);
      137    15719          %TYPE_MATRIX_ENTRY(@LOP = %TYJ, @ROP = %TYD, @LOP_BECOMES = %TYD, @ROP_BECOMES =
             15719              %TYD);
      138    15728          %TYPE_MATRIX_ENTRY(@LOP = %TYJ, @ROP = %TYH, @LOP_BECOMES = %TYI, @ROP_BECOMES =
             15728              %TYI);
      139    15737          %TYPE_MATRIX_ENTRY(@LOP = %TYJ, @ROP = %TYR, @LOP_BECOMES = %TYR, @ROP_BECOMES =
             15737              %TYR);
      140    15746          %TYPE_MATRIX_ENTRY(@LOP = %TYJ, @ROP = %TYQ, @LOP_BECOMES = %TYQ, @ROP_BECOMES =
             15746              %TYQ);
      141    15755          %TYPE_MATRIX_ENTRY(@LOP = %TYJ, @ROP = %TYJ, @LOP_BECOMES = %TYI, @ROP_BECOMES =
             15755              %TYI);
      142    15764          %TYPE_MATRIX_ENTRY(@LOP = %TYJ, @ROP = %TYO, @LOP_BECOMES = %TYD, @ROP_BECOMES =
             15764              %TYO);
      143    15773          %TYPE_MATRIX_ENTRY(@LOP = %TYJ, @ROP = %TYK, @LOP_BECOMES = %TYI, @ROP_BECOMES =
             15773              %TYI);
      144    15782          %TYPE_MATRIX_ENTRY(@LOP = %TYJ, @ROP = %TYF, @LOP_BECOMES = %TYD, @ROP_BECOMES =
             15782              %TYD);
      145    15791          %TYPE_MATRIX_ENTRY(@LOP = %TYO, @ROP = %TYI, @LOP_BECOMES = %TYO, @ROP_BECOMES =
PL6.E3A0      #001=Z8E5$ARITHMETIC_OPERATIONS File=Z8E5.:Z8A6TSI                 SAT 08/09/97 11:33 Page:48
             15791              %TYD);
      146    15800          %TYPE_MATRIX_ENTRY(@LOP = %TYO, @ROP = %TYD, @LOP_BECOMES = %TYO, @ROP_BECOMES =
             15800              %TYD);
      147    15809          %TYPE_MATRIX_ENTRY(@LOP = %TYO, @ROP = %TYH, @LOP_BECOMES = %TYO, @ROP_BECOMES =
             15809              %TYD);
      148    15818          %TYPE_MATRIX_ENTRY(@LOP = %TYO, @ROP = %TYR, @LOP_BECOMES = %TYQ, @ROP_BECOMES =
             15818              %TYQ);
      149    15827          %TYPE_MATRIX_ENTRY(@LOP = %TYO, @ROP = %TYQ, @LOP_BECOMES = %TYQ, @ROP_BECOMES =
             15827              %TYQ);
      150    15836          %TYPE_MATRIX_ENTRY(@LOP = %TYO, @ROP = %TYJ, @LOP_BECOMES = %TYO, @ROP_BECOMES =
             15836              %TYD);
      151    15845          %TYPE_MATRIX_ENTRY(@LOP = %TYO, @ROP = %TYO, @LOP_BECOMES = %TYO, @ROP_BECOMES =
             15845              %TYO);
      152    15854          %TYPE_MATRIX_ENTRY(@LOP = %TYO, @ROP = %TYK, @LOP_BECOMES = %TYO, @ROP_BECOMES =
             15854              %TYD);
      153    15863          %TYPE_MATRIX_ENTRY(@LOP = %TYO, @ROP = %TYF, @LOP_BECOMES = %TYO, @ROP_BECOMES =
             15863              %TYD);
      154    15872          %TYPE_MATRIX_ENTRY(@LOP = %TYK, @ROP = %TYI, @LOP_BECOMES = %TYI, @ROP_BECOMES =
             15872              %TYI);
      155    15881          %TYPE_MATRIX_ENTRY(@LOP = %TYK, @ROP = %TYD, @LOP_BECOMES = %TYD, @ROP_BECOMES =
             15881              %TYD);
      156    15890          %TYPE_MATRIX_ENTRY(@LOP = %TYK, @ROP = %TYH, @LOP_BECOMES = %TYI, @ROP_BECOMES =
             15890              %TYI);
      157    15899          %TYPE_MATRIX_ENTRY(@LOP = %TYK, @ROP = %TYR, @LOP_BECOMES = %TYR, @ROP_BECOMES =
             15899              %TYR);
      158    15908          %TYPE_MATRIX_ENTRY(@LOP = %TYK, @ROP = %TYQ, @LOP_BECOMES = %TYQ, @ROP_BECOMES =
             15908              %TYQ);
      159    15917          %TYPE_MATRIX_ENTRY(@LOP = %TYK, @ROP = %TYJ, @LOP_BECOMES = %TYI, @ROP_BECOMES =
             15917              %TYI);
      160    15926          %TYPE_MATRIX_ENTRY(@LOP = %TYK, @ROP = %TYO, @LOP_BECOMES = %TYD, @ROP_BECOMES =
             15926              %TYO);
      161    15935          %TYPE_MATRIX_ENTRY(@LOP = %TYK, @ROP = %TYK, @LOP_BECOMES = %TYI, @ROP_BECOMES =
             15935              %TYI);
      162    15944          %TYPE_MATRIX_ENTRY(@LOP = %TYK, @ROP = %TYF, @LOP_BECOMES = %TYD, @ROP_BECOMES =
             15944              %TYD);
      163    15953          %TYPE_MATRIX_ENTRY(@LOP = %TYF, @ROP = %TYI, @LOP_BECOMES = %TYD, @ROP_BECOMES =
             15953              %TYD);
PL6.E3A0      #001=Z8E5$ARITHMETIC_OPERATIONS File=Z8E5.:Z8A6TSI                 SAT 08/09/97 11:33 Page:49
      164    15962          %TYPE_MATRIX_ENTRY(@LOP = %TYF, @ROP = %TYD, @LOP_BECOMES = %TYD, @ROP_BECOMES =
             15962              %TYD);
      165    15971          %TYPE_MATRIX_ENTRY(@LOP = %TYF, @ROP = %TYH, @LOP_BECOMES = %TYD, @ROP_BECOMES =
             15971              %TYD);
      166    15980          %TYPE_MATRIX_ENTRY(@LOP = %TYF, @ROP = %TYR, @LOP_BECOMES = %TYR, @ROP_BECOMES =
             15980              %TYR);
      167    15989          %TYPE_MATRIX_ENTRY(@LOP = %TYF, @ROP = %TYQ, @LOP_BECOMES = %TYQ, @ROP_BECOMES =
             15989              %TYQ);
      168    15998          %TYPE_MATRIX_ENTRY(@LOP = %TYF, @ROP = %TYJ, @LOP_BECOMES = %TYD, @ROP_BECOMES =
             15998              %TYD);
      169    16007          %TYPE_MATRIX_ENTRY(@LOP = %TYF, @ROP = %TYO, @LOP_BECOMES = %TYD, @ROP_BECOMES =
             16007              %TYD);
      170    16016          %TYPE_MATRIX_ENTRY(@LOP = %TYF, @ROP = %TYK, @LOP_BECOMES = %TYD, @ROP_BECOMES =
             16016              %TYD);
      171    16025          %TYPE_MATRIX_ENTRY(@LOP = %TYF, @ROP = %TYF, @LOP_BECOMES = %TYD, @ROP_BECOMES =
             16025              %TYD);
      172    16034        %TYPE_MATRIX_END;
      173    16043
      174    16044        %EJECT;
PL6.E3A0      #001=Z8E5$ARITHMETIC_OPERATIONS File=Z8E5.:Z8A6TSI                 SAT 08/09/97 11:33 Page:50
      175    16045
      176    16046        %TYPE_MATRIX_BEGIN(@NAME = EXPONENT_MATRIX);
      177    16050          %TYPE_MATRIX_ENTRY(@LOP = %TYI, @ROP = %TYI, @LOP_BECOMES = %TYI, @ROP_BECOMES =
             16050              %TYI);
      178    16059          %TYPE_MATRIX_ENTRY(@LOP = %TYI, @ROP = %TYD, @LOP_BECOMES = %TYD, @ROP_BECOMES =
             16059              %TYD);
      179    16068          %TYPE_MATRIX_ENTRY(@LOP = %TYI, @ROP = %TYH, @LOP_BECOMES = %TYI, @ROP_BECOMES =
             16068              %TYI);
      180    16077          %TYPE_MATRIX_ENTRY(@LOP = %TYI, @ROP = %TYR, @LOP_BECOMES = %TYR, @ROP_BECOMES =
             16077              %TYR);
      181    16086          %TYPE_MATRIX_ENTRY(@LOP = %TYI, @ROP = %TYQ, @LOP_BECOMES = %TYQ, @ROP_BECOMES =
             16086              %TYQ);
      182    16095          %TYPE_MATRIX_ENTRY(@LOP = %TYI, @ROP = %TYJ, @LOP_BECOMES = %TYI, @ROP_BECOMES =
             16095              %TYI);
      183    16104          %TYPE_MATRIX_ENTRY(@LOP = %TYI, @ROP = %TYO, @LOP_BECOMES = %TYD, @ROP_BECOMES =
             16104              %TYD);
      184    16113          %TYPE_MATRIX_ENTRY(@LOP = %TYI, @ROP = %TYK, @LOP_BECOMES = %TYI, @ROP_BECOMES =
             16113              %TYI);
      185    16122          %TYPE_MATRIX_ENTRY(@LOP = %TYI, @ROP = %TYF, @LOP_BECOMES = %TYD, @ROP_BECOMES =
             16122              %TYD);
      186    16131          %TYPE_MATRIX_ENTRY(@LOP = %TYD, @ROP = %TYI, @LOP_BECOMES = %TYD, @ROP_BECOMES =
             16131              %TYI);
      187    16140          %TYPE_MATRIX_ENTRY(@LOP = %TYD, @ROP = %TYD, @LOP_BECOMES = %TYD, @ROP_BECOMES =
             16140              %TYD);
      188    16149          %TYPE_MATRIX_ENTRY(@LOP = %TYD, @ROP = %TYH, @LOP_BECOMES = %TYD, @ROP_BECOMES =
             16149              %TYI);
      189    16158          %TYPE_MATRIX_ENTRY(@LOP = %TYD, @ROP = %TYR, @LOP_BECOMES = %TYQ, @ROP_BECOMES =
             16158              %TYQ);
      190    16167          %TYPE_MATRIX_ENTRY(@LOP = %TYD, @ROP = %TYQ, @LOP_BECOMES = %TYQ, @ROP_BECOMES =
             16167              %TYQ);
      191    16176          %TYPE_MATRIX_ENTRY(@LOP = %TYD, @ROP = %TYJ, @LOP_BECOMES = %TYD, @ROP_BECOMES =
             16176              %TYI);
      192    16185          %TYPE_MATRIX_ENTRY(@LOP = %TYD, @ROP = %TYO, @LOP_BECOMES = %TYD, @ROP_BECOMES =
             16185              %TYD);
      193    16194          %TYPE_MATRIX_ENTRY(@LOP = %TYD, @ROP = %TYK, @LOP_BECOMES = %TYD, @ROP_BECOMES =
             16194              %TYI);
      194    16203          %TYPE_MATRIX_ENTRY(@LOP = %TYD, @ROP = %TYF, @LOP_BECOMES = %TYD, @ROP_BECOMES =
PL6.E3A0      #001=Z8E5$ARITHMETIC_OPERATIONS File=Z8E5.:Z8A6TSI                 SAT 08/09/97 11:33 Page:51
             16203              %TYD);
      195    16212          %TYPE_MATRIX_ENTRY(@LOP = %TYH, @ROP = %TYI, @LOP_BECOMES = %TYI, @ROP_BECOMES =
             16212              %TYI);
      196    16221          %TYPE_MATRIX_ENTRY(@LOP = %TYH, @ROP = %TYD, @LOP_BECOMES = %TYD, @ROP_BECOMES =
             16221              %TYD);
      197    16230          %TYPE_MATRIX_ENTRY(@LOP = %TYH, @ROP = %TYH, @LOP_BECOMES = %TYI, @ROP_BECOMES =
             16230              %TYI);
      198    16239          %TYPE_MATRIX_ENTRY(@LOP = %TYH, @ROP = %TYR, @LOP_BECOMES = %TYQ, @ROP_BECOMES =
             16239              %TYQ);
      199    16248          %TYPE_MATRIX_ENTRY(@LOP = %TYH, @ROP = %TYQ, @LOP_BECOMES = %TYQ, @ROP_BECOMES =
             16248              %TYQ);
      200    16257          %TYPE_MATRIX_ENTRY(@LOP = %TYH, @ROP = %TYJ, @LOP_BECOMES = %TYI, @ROP_BECOMES =
             16257              %TYI);
      201    16266          %TYPE_MATRIX_ENTRY(@LOP = %TYH, @ROP = %TYO, @LOP_BECOMES = %TYD, @ROP_BECOMES =
             16266              %TYD);
      202    16275          %TYPE_MATRIX_ENTRY(@LOP = %TYH, @ROP = %TYK, @LOP_BECOMES = %TYI, @ROP_BECOMES =
             16275              %TYI);
      203    16284          %TYPE_MATRIX_ENTRY(@LOP = %TYH, @ROP = %TYF, @LOP_BECOMES = %TYD, @ROP_BECOMES =
             16284              %TYD);
      204    16293          %TYPE_MATRIX_ENTRY(@LOP = %TYR, @ROP = %TYI, @LOP_BECOMES = %TYR, @ROP_BECOMES =
             16293              %TYI);
      205    16302          %TYPE_MATRIX_ENTRY(@LOP = %TYR, @ROP = %TYD, @LOP_BECOMES = %TYQ, @ROP_BECOMES =
             16302              %TYQ);
      206    16311          %TYPE_MATRIX_ENTRY(@LOP = %TYR, @ROP = %TYH, @LOP_BECOMES = %TYR, @ROP_BECOMES =
             16311              %TYI);
      207    16320          %TYPE_MATRIX_ENTRY(@LOP = %TYR, @ROP = %TYR, @LOP_BECOMES = %TYR, @ROP_BECOMES =
             16320              %TYR);
      208    16329          %TYPE_MATRIX_ENTRY(@LOP = %TYR, @ROP = %TYQ, @LOP_BECOMES = %TYQ, @ROP_BECOMES =
             16329              %TYQ);
      209    16338          %TYPE_MATRIX_ENTRY(@LOP = %TYR, @ROP = %TYJ, @LOP_BECOMES = %TYR, @ROP_BECOMES =
             16338              %TYI);
      210    16347          %TYPE_MATRIX_ENTRY(@LOP = %TYR, @ROP = %TYO, @LOP_BECOMES = %TYQ, @ROP_BECOMES =
             16347              %TYQ);
      211    16356          %TYPE_MATRIX_ENTRY(@LOP = %TYR, @ROP = %TYK, @LOP_BECOMES = %TYR, @ROP_BECOMES =
             16356              %TYI);
      212    16365          %TYPE_MATRIX_ENTRY(@LOP = %TYR, @ROP = %TYF, @LOP_BECOMES = %TYQ, @ROP_BECOMES =
             16365              %TYQ);
PL6.E3A0      #001=Z8E5$ARITHMETIC_OPERATIONS File=Z8E5.:Z8A6TSI                 SAT 08/09/97 11:33 Page:52
      213    16374          %TYPE_MATRIX_ENTRY(@LOP = %TYQ, @ROP = %TYI, @LOP_BECOMES = %TYQ, @ROP_BECOMES =
             16374              %TYI);
      214    16383          %TYPE_MATRIX_ENTRY(@LOP = %TYQ, @ROP = %TYD, @LOP_BECOMES = %TYQ, @ROP_BECOMES =
             16383              %TYQ);
      215    16392          %TYPE_MATRIX_ENTRY(@LOP = %TYQ, @ROP = %TYH, @LOP_BECOMES = %TYQ, @ROP_BECOMES =
             16392              %TYI);
      216    16401          %TYPE_MATRIX_ENTRY(@LOP = %TYQ, @ROP = %TYR, @LOP_BECOMES = %TYQ, @ROP_BECOMES =
             16401              %TYQ);
      217    16410          %TYPE_MATRIX_ENTRY(@LOP = %TYQ, @ROP = %TYQ, @LOP_BECOMES = %TYQ, @ROP_BECOMES =
             16410              %TYQ);
      218    16419          %TYPE_MATRIX_ENTRY(@LOP = %TYQ, @ROP = %TYJ, @LOP_BECOMES = %TYQ, @ROP_BECOMES =
             16419              %TYI);
      219    16428          %TYPE_MATRIX_ENTRY(@LOP = %TYQ, @ROP = %TYO, @LOP_BECOMES = %TYQ, @ROP_BECOMES =
             16428              %TYQ);
      220    16437          %TYPE_MATRIX_ENTRY(@LOP = %TYQ, @ROP = %TYK, @LOP_BECOMES = %TYQ, @ROP_BECOMES =
             16437              %TYI);
      221    16446          %TYPE_MATRIX_ENTRY(@LOP = %TYQ, @ROP = %TYF, @LOP_BECOMES = %TYQ, @ROP_BECOMES =
             16446              %TYQ);
      222    16455          %TYPE_MATRIX_ENTRY(@LOP = %TYJ, @ROP = %TYI, @LOP_BECOMES = %TYI, @ROP_BECOMES =
             16455              %TYI);
      223    16464          %TYPE_MATRIX_ENTRY(@LOP = %TYJ, @ROP = %TYD, @LOP_BECOMES = %TYD, @ROP_BECOMES =
             16464              %TYD);
      224    16473          %TYPE_MATRIX_ENTRY(@LOP = %TYJ, @ROP = %TYH, @LOP_BECOMES = %TYI, @ROP_BECOMES =
             16473              %TYI);
      225    16482          %TYPE_MATRIX_ENTRY(@LOP = %TYJ, @ROP = %TYR, @LOP_BECOMES = %TYR, @ROP_BECOMES =
             16482              %TYR);
      226    16491          %TYPE_MATRIX_ENTRY(@LOP = %TYJ, @ROP = %TYQ, @LOP_BECOMES = %TYQ, @ROP_BECOMES =
             16491              %TYQ);
      227    16500          %TYPE_MATRIX_ENTRY(@LOP = %TYJ, @ROP = %TYJ, @LOP_BECOMES = %TYI, @ROP_BECOMES =
             16500              %TYI);
      228    16509          %TYPE_MATRIX_ENTRY(@LOP = %TYJ, @ROP = %TYO, @LOP_BECOMES = %TYD, @ROP_BECOMES =
             16509              %TYD);
      229    16518          %TYPE_MATRIX_ENTRY(@LOP = %TYJ, @ROP = %TYK, @LOP_BECOMES = %TYI, @ROP_BECOMES =
             16518              %TYI);
      230    16527          %TYPE_MATRIX_ENTRY(@LOP = %TYJ, @ROP = %TYF, @LOP_BECOMES = %TYD, @ROP_BECOMES =
             16527              %TYD);
      231    16536          %TYPE_MATRIX_ENTRY(@LOP = %TYO, @ROP = %TYI, @LOP_BECOMES = %TYD, @ROP_BECOMES =
PL6.E3A0      #001=Z8E5$ARITHMETIC_OPERATIONS File=Z8E5.:Z8A6TSI                 SAT 08/09/97 11:33 Page:53
             16536              %TYI);
      232    16545          %TYPE_MATRIX_ENTRY(@LOP = %TYO, @ROP = %TYD, @LOP_BECOMES = %TYD, @ROP_BECOMES =
             16545              %TYD);
      233    16554          %TYPE_MATRIX_ENTRY(@LOP = %TYO, @ROP = %TYH, @LOP_BECOMES = %TYD, @ROP_BECOMES =
             16554              %TYI);
      234    16563          %TYPE_MATRIX_ENTRY(@LOP = %TYO, @ROP = %TYR, @LOP_BECOMES = %TYQ, @ROP_BECOMES =
             16563              %TYQ);
      235    16572          %TYPE_MATRIX_ENTRY(@LOP = %TYO, @ROP = %TYQ, @LOP_BECOMES = %TYQ, @ROP_BECOMES =
             16572              %TYQ);
      236    16581          %TYPE_MATRIX_ENTRY(@LOP = %TYO, @ROP = %TYJ, @LOP_BECOMES = %TYD, @ROP_BECOMES =
             16581              %TYI);
      237    16590          %TYPE_MATRIX_ENTRY(@LOP = %TYO, @ROP = %TYO, @LOP_BECOMES = %TYD, @ROP_BECOMES =
             16590              %TYD);
      238    16599          %TYPE_MATRIX_ENTRY(@LOP = %TYO, @ROP = %TYK, @LOP_BECOMES = %TYD, @ROP_BECOMES =
             16599              %TYI);
      239    16608          %TYPE_MATRIX_ENTRY(@LOP = %TYO, @ROP = %TYF, @LOP_BECOMES = %TYD, @ROP_BECOMES =
             16608              %TYD);
      240    16617          %TYPE_MATRIX_ENTRY(@LOP = %TYK, @ROP = %TYI, @LOP_BECOMES = %TYI, @ROP_BECOMES =
             16617              %TYI);
      241    16626          %TYPE_MATRIX_ENTRY(@LOP = %TYK, @ROP = %TYD, @LOP_BECOMES = %TYD, @ROP_BECOMES =
             16626              %TYD);
      242    16635          %TYPE_MATRIX_ENTRY(@LOP = %TYK, @ROP = %TYH, @LOP_BECOMES = %TYI, @ROP_BECOMES =
             16635              %TYI);
      243    16644          %TYPE_MATRIX_ENTRY(@LOP = %TYK, @ROP = %TYR, @LOP_BECOMES = %TYR, @ROP_BECOMES =
             16644              %TYR);
      244    16653          %TYPE_MATRIX_ENTRY(@LOP = %TYK, @ROP = %TYQ, @LOP_BECOMES = %TYQ, @ROP_BECOMES =
             16653              %TYQ);
      245    16662          %TYPE_MATRIX_ENTRY(@LOP = %TYK, @ROP = %TYJ, @LOP_BECOMES = %TYI, @ROP_BECOMES =
             16662              %TYI);
      246    16671          %TYPE_MATRIX_ENTRY(@LOP = %TYK, @ROP = %TYO, @LOP_BECOMES = %TYD, @ROP_BECOMES =
             16671              %TYD);
      247    16680          %TYPE_MATRIX_ENTRY(@LOP = %TYK, @ROP = %TYK, @LOP_BECOMES = %TYI, @ROP_BECOMES =
             16680              %TYI);
      248    16689          %TYPE_MATRIX_ENTRY(@LOP = %TYK, @ROP = %TYF, @LOP_BECOMES = %TYD, @ROP_BECOMES =
             16689              %TYD);
      249    16698          %TYPE_MATRIX_ENTRY(@LOP = %TYF, @ROP = %TYI, @LOP_BECOMES = %TYD, @ROP_BECOMES =
             16698              %TYD);
PL6.E3A0      #001=Z8E5$ARITHMETIC_OPERATIONS File=Z8E5.:Z8A6TSI                 SAT 08/09/97 11:33 Page:54
      250    16707          %TYPE_MATRIX_ENTRY(@LOP = %TYF, @ROP = %TYD, @LOP_BECOMES = %TYD, @ROP_BECOMES =
             16707              %TYD);
      251    16716          %TYPE_MATRIX_ENTRY(@LOP = %TYF, @ROP = %TYH, @LOP_BECOMES = %TYD, @ROP_BECOMES =
             16716              %TYD);
      252    16725          %TYPE_MATRIX_ENTRY(@LOP = %TYF, @ROP = %TYR, @LOP_BECOMES = %TYR, @ROP_BECOMES =
             16725              %TYR);
      253    16734          %TYPE_MATRIX_ENTRY(@LOP = %TYF, @ROP = %TYQ, @LOP_BECOMES = %TYQ, @ROP_BECOMES =
             16734              %TYQ);
      254    16743          %TYPE_MATRIX_ENTRY(@LOP = %TYF, @ROP = %TYJ, @LOP_BECOMES = %TYD, @ROP_BECOMES =
             16743              %TYD);
      255    16752          %TYPE_MATRIX_ENTRY(@LOP = %TYF, @ROP = %TYO, @LOP_BECOMES = %TYD, @ROP_BECOMES =
             16752              %TYD);
      256    16761          %TYPE_MATRIX_ENTRY(@LOP = %TYF, @ROP = %TYK, @LOP_BECOMES = %TYD, @ROP_BECOMES =
             16761              %TYD);
      257    16770          %TYPE_MATRIX_ENTRY(@LOP = %TYF, @ROP = %TYF, @LOP_BECOMES = %TYD, @ROP_BECOMES =
             16770              %TYD);
      258    16779        %TYPE_MATRIX_END;
      259    16788    1   DEC_OVERP_INST : PROC (OETT_ID, ETT_ID);

  16788 20 000003   200100 741300       DEC_OVERP_I* STX1  ! I+2,,AUTO

      260    16789
      261    16790    2     DCL OETT_ID SBIN;
      262    16791    2     DCL ETT_ID SBIN;
      263    16792
      264    16793    2   IF LOP$$ -> LX_ETT_ITEM.TYPE = %TYO OR

  16793 20 000004   200027 470500                    LDP0    LOP$$,,AUTO
        20 000005   000004 235100                    LDA     4,,PR0
        20 000006   000003 115007                    CMPA    3,DL
        20 000007   000012 600000 20                 TZE     s:16796
        20 000010   000013 115007                    CMPA    11,DL
        20 000011   000070 601000 20                 TNZ     s:16813

      265    16794    2       LOP$$ -> LX_ETT_ITEM.TYPE = %TYF THEN
      266    16795    3     DO;

PL6.E3A0      #001=Z8E5$ARITHMETIC_OPERATIONS File=Z8E5.:Z8A6TSI                 SAT 08/09/97 11:33 Page:55
      267    16796    3       IF COMCOM.OB.ELS THEN

  16796 20 000012   000026 234000 xsym               SZN     COMCOM+22
        20 000013   000034 605000 20                 TPL     s:16804

      268    16797    3         CALL Z8AF$FORME_ON_SIZE (OETT_ID,

  16797 20 000014   200037 631500                    EPPR1   ON_SIZE,,AUTO
        20 000015   200114 451500                    STP1    ROP_ST$+8,,AUTO
        20 000016   200033 633500                    EPPR3   ETT$$,,AUTO
        20 000017   200113 453500                    STP3    ROP_ST$+7,,AUTO
        20 000020   200032 236100                    LDQ     ROP$$,,AUTO
        20 000021   000001 036003                    ADLQ    1,DU
        20 000022   200112 756100                    STQ     ROP_ST$+6,,AUTO
        20 000023   200027 236100                    LDQ     LOP$$,,AUTO
        20 000024   000001 036003                    ADLQ    1,DU
        20 000025   200101 235100                    LDA     @OETT_ID,,AUTO
        20 000026   200110 757100                    STAQ    ROP_ST$+4,,AUTO
        20 000027   200110 630500                    EPPR0   ROP_ST$+4,,AUTO
        20 000030   000000 631400 21                 EPPR1   0
        20 000031   000000 701000 xent               TSX1    Z8AF$FORME_ON_SIZE
        20 000032   000000 011000                    NOP     0
        20 000033   000107 710000 20                 TRA     s:16819

      269    16798    3                                  LOP$$ -> LX_ETT_ITEM.ETT$,
      270    16799    3                                  ROP$$ -> LX_ETT_ITEM.ETT$,
      271    16800    3                                  ETT$$,
      272    16801    3                                  ON_SIZE);
      273    16802    3       ELSE
      274    16803    4         DO;

      275    16804    4           CALL Z8EV$CONVERT_ON_SIZE (%TYD, LOP$$, LOP$$, ON_SIZE);

  16804 20 000034   200037 631500                    EPPR1   ON_SIZE,,AUTO
        20 000035   200113 451500                    STP1    ROP_ST$+7,,AUTO
        20 000036   200027 633500                    EPPR3   LOP$$,,AUTO
        20 000037   200112 453500                    STP3    ROP_ST$+6,,AUTO
PL6.E3A0      #001=Z8E5$ARITHMETIC_OPERATIONS File=Z8E5.:Z8A6TSI                 SAT 08/09/97 11:33 Page:56
        20 000040   200027 634500                    EPPR4   LOP$$,,AUTO
        20 000041   200111 454500                    STP4    ROP_ST$+5,,AUTO
        20 000042   000003 236000 21                 LDQ     3
        20 000043   200110 756100                    STQ     ROP_ST$+4,,AUTO
        20 000044   200110 630500                    EPPR0   ROP_ST$+4,,AUTO
        20 000045   000001 631400 21                 EPPR1   1
        20 000046   000000 701000 xent               TSX1    Z8EV$CONVERT_ON_SIZE
        20 000047   000000 011000                    NOP     0

      276    16805    4           CALL Z8AF$FORME_ON_SIZE (ETT_ID,

  16805 20 000050   200037 630500                    EPPR0   ON_SIZE,,AUTO
        20 000051   200114 450500                    STP0    ROP_ST$+8,,AUTO
        20 000052   200033 631500                    EPPR1   ETT$$,,AUTO
        20 000053   200113 451500                    STP1    ROP_ST$+7,,AUTO
        20 000054   200032 236100                    LDQ     ROP$$,,AUTO
        20 000055   000001 036003                    ADLQ    1,DU
        20 000056   200112 756100                    STQ     ROP_ST$+6,,AUTO
        20 000057   200027 236100                    LDQ     LOP$$,,AUTO
        20 000060   000001 036003                    ADLQ    1,DU
        20 000061   200102 235100                    LDA     @ETT_ID,,AUTO
        20 000062   200110 757100                    STAQ    ROP_ST$+4,,AUTO
        20 000063   200110 630500                    EPPR0   ROP_ST$+4,,AUTO
        20 000064   000000 631400 21                 EPPR1   0
        20 000065   000000 701000 xent               TSX1    Z8AF$FORME_ON_SIZE
        20 000066   000000 011000                    NOP     0

      277    16806    4                                    LOP$$ -> LX_ETT_ITEM.ETT$,
      278    16807    4                                    ROP$$ -> LX_ETT_ITEM.ETT$,
      279    16808    4                                    ETT$$,
      280    16809    4                                    ON_SIZE);
      281    16810    4         END;

      282    16811    3     END;

  16811 20 000067   000107 710000 20                 TRA     s:16819

PL6.E3A0      #001=Z8E5$ARITHMETIC_OPERATIONS File=Z8E5.:Z8A6TSI                 SAT 08/09/97 11:33 Page:57
      283    16812    2   ELSE
      284    16813    2     CALL Z8AF$FORME_ON_SIZE (ETT_ID,

  16813 20 000070   200037 631500                    EPPR1   ON_SIZE,,AUTO
        20 000071   200114 451500                    STP1    ROP_ST$+8,,AUTO
        20 000072   200033 633500                    EPPR3   ETT$$,,AUTO
        20 000073   200113 453500                    STP3    ROP_ST$+7,,AUTO
        20 000074   200032 236100                    LDQ     ROP$$,,AUTO
        20 000075   000001 036003                    ADLQ    1,DU
        20 000076   200112 756100                    STQ     ROP_ST$+6,,AUTO
        20 000077   200027 236100                    LDQ     LOP$$,,AUTO
        20 000100   000001 036003                    ADLQ    1,DU
        20 000101   200102 235100                    LDA     @ETT_ID,,AUTO
        20 000102   200110 757100                    STAQ    ROP_ST$+4,,AUTO
        20 000103   200110 630500                    EPPR0   ROP_ST$+4,,AUTO
        20 000104   000000 631400 21                 EPPR1   0
        20 000105   000000 701000 xent               TSX1    Z8AF$FORME_ON_SIZE
        20 000106   000000 011000                    NOP     0

      285    16814    2                              LOP$$ -> LX_ETT_ITEM.ETT$,
      286    16815    2                              ROP$$ -> LX_ETT_ITEM.ETT$,
      287    16816    2                              ETT$$,
      288    16817    2                              ON_SIZE);
      289    16818
      290    16819    2   END DEC_OVERP_INST;

  16819 20 000107   200100 221300                    LDX1  ! I+2,,AUTO
        20 000110   000001 702211                    TSX2  ! 1,X1

      291    16820        %EJECT;
PL6.E3A0      #001=Z8E5$ARITHMETIC_OPERATIONS File=Z8E5.:Z8A6TSI                 SAT 08/09/97 11:33 Page:58
      292    16821    1   OVERP_DEC_INST : PROC (OETT_ID, ETT_ID);

  16821 20 000111   200100 741300       OVERP_DEC_I* STX1  ! I+2,,AUTO

      293    16822
      294    16823    2     DCL OETT_ID SBIN;
      295    16824    2     DCL ETT_ID SBIN;
      296    16825
      297    16826    2   IF COMCOM.OB.ELS THEN

  16826 20 000112   000026 234000 xsym               SZN     COMCOM+22
        20 000113   000134 605000 20                 TPL     s:16836

      298    16827    3     DO;

      299    16828    3       CALL Z8AF$FORME_ON_SIZE (OETT_ID,

  16828 20 000114   200037 630500                    EPPR0   ON_SIZE,,AUTO
        20 000115   200114 450500                    STP0    ROP_ST$+8,,AUTO
        20 000116   200033 631500                    EPPR1   ETT$$,,AUTO
        20 000117   200113 451500                    STP1    ROP_ST$+7,,AUTO
        20 000120   200032 236100                    LDQ     ROP$$,,AUTO
        20 000121   000001 036003                    ADLQ    1,DU
        20 000122   200112 756100                    STQ     ROP_ST$+6,,AUTO
        20 000123   200027 236100                    LDQ     LOP$$,,AUTO
        20 000124   000001 036003                    ADLQ    1,DU
        20 000125   200101 235100                    LDA     @OETT_ID,,AUTO
        20 000126   200110 757100                    STAQ    ROP_ST$+4,,AUTO
        20 000127   200110 630500                    EPPR0   ROP_ST$+4,,AUTO
        20 000130   000000 631400 21                 EPPR1   0
        20 000131   000000 701000 xent               TSX1    Z8AF$FORME_ON_SIZE
        20 000132   000000 011000                    NOP     0

      300    16829    3                                LOP$$ -> LX_ETT_ITEM.ETT$,
      301    16830    3                                ROP$$ -> LX_ETT_ITEM.ETT$,
      302    16831    3                                ETT$$,
      303    16832    3                                ON_SIZE);
PL6.E3A0      #001=Z8E5$ARITHMETIC_OPERATIONS File=Z8E5.:Z8A6TSI                 SAT 08/09/97 11:33 Page:59
      304    16833    3     END;

  16833 20 000133   000203 710000 20                 TRA     s:16845

      305    16834    2   ELSE
      306    16835    3     DO;

      307    16836    3       CALL Z8EV$CONVERT_ON_SIZE (%TYD, LOP$$, LOP$$, ON_SIZE);

  16836 20 000134   200037 630500                    EPPR0   ON_SIZE,,AUTO
        20 000135   200113 450500                    STP0    ROP_ST$+7,,AUTO
        20 000136   200027 631500                    EPPR1   LOP$$,,AUTO
        20 000137   200112 451500                    STP1    ROP_ST$+6,,AUTO
        20 000140   200027 633500                    EPPR3   LOP$$,,AUTO
        20 000141   200111 453500                    STP3    ROP_ST$+5,,AUTO
        20 000142   000003 236000 21                 LDQ     3
        20 000143   200110 756100                    STQ     ROP_ST$+4,,AUTO
        20 000144   200110 630500                    EPPR0   ROP_ST$+4,,AUTO
        20 000145   000001 631400 21                 EPPR1   1
        20 000146   000000 701000 xent               TSX1    Z8EV$CONVERT_ON_SIZE
        20 000147   000000 011000                    NOP     0

      308    16837    3       CALL Z8EV$CONVERT_ON_SIZE (%TYD, ROP$$, ROP$$, ON_SIZE);

  16837 20 000150   200037 630500                    EPPR0   ON_SIZE,,AUTO
        20 000151   200113 450500                    STP0    ROP_ST$+7,,AUTO
        20 000152   200032 631500                    EPPR1   ROP$$,,AUTO
        20 000153   200112 451500                    STP1    ROP_ST$+6,,AUTO
        20 000154   200032 633500                    EPPR3   ROP$$,,AUTO
        20 000155   200111 453500                    STP3    ROP_ST$+5,,AUTO
        20 000156   000003 236000 21                 LDQ     3
        20 000157   200110 756100                    STQ     ROP_ST$+4,,AUTO
        20 000160   200110 630500                    EPPR0   ROP_ST$+4,,AUTO
        20 000161   000001 631400 21                 EPPR1   1
        20 000162   000000 701000 xent               TSX1    Z8EV$CONVERT_ON_SIZE
        20 000163   000000 011000                    NOP     0

PL6.E3A0      #001=Z8E5$ARITHMETIC_OPERATIONS File=Z8E5.:Z8A6TSI                 SAT 08/09/97 11:33 Page:60
      309    16838    3       CALL Z8AF$FORME_ON_SIZE (ETT_ID,

  16838 20 000164   200037 630500                    EPPR0   ON_SIZE,,AUTO
        20 000165   200114 450500                    STP0    ROP_ST$+8,,AUTO
        20 000166   200033 631500                    EPPR1   ETT$$,,AUTO
        20 000167   200113 451500                    STP1    ROP_ST$+7,,AUTO
        20 000170   200032 236100                    LDQ     ROP$$,,AUTO
        20 000171   000001 036003                    ADLQ    1,DU
        20 000172   200112 756100                    STQ     ROP_ST$+6,,AUTO
        20 000173   200027 236100                    LDQ     LOP$$,,AUTO
        20 000174   000001 036003                    ADLQ    1,DU
        20 000175   200102 235100                    LDA     @ETT_ID,,AUTO
        20 000176   200110 757100                    STAQ    ROP_ST$+4,,AUTO
        20 000177   200110 630500                    EPPR0   ROP_ST$+4,,AUTO
        20 000200   000000 631400 21                 EPPR1   0
        20 000201   000000 701000 xent               TSX1    Z8AF$FORME_ON_SIZE
        20 000202   000000 011000                    NOP     0

      310    16839    3                                LOP$$ -> LX_ETT_ITEM.ETT$,
      311    16840    3                                ROP$$ -> LX_ETT_ITEM.ETT$,
      312    16841    3                                ETT$$,
      313    16842    3                                ON_SIZE);
      314    16843    3     END;

      315    16844
      316    16845    2   END OVERP_DEC_INST;

  16845 20 000203   200100 221300                    LDX1  ! I+2,,AUTO
        20 000204   000001 702211                    TSX2  ! 1,X1
        20 000205   000210 710000 20                 TRA     s:16849

      317    16846        %EJECT;
PL6.E3A0      #001=Z8E5$ARITHMETIC_OPERATIONS File=Z8E5.:Z8A6TSI                 SAT 08/09/97 11:33 Page:61
      318    16847    1   Z8E5$MATH_PACK_ON_SIZE:ENTRY(NODE$, RETURN$, LABEL$);

  16847 20 000206   000000 700200 xent  Z8E5$MATH_P* TSX0  ! X66_AUTO_3
        20 000207   000116 000003                    ZERO    78,3

      319    16848
      320    16849    1        ON_SIZE = TRUE;

  16849 20 000210   400000 236003                    LDQ     -131072,DU
        20 000211   200037 756100                    STQ     ON_SIZE,,AUTO

      321    16850
      322    16851    1        GOTO COMMON_MATH_PACK;

  16851 20 000212   000216 710000 20                 TRA     COMMON_MATH_PACK

      323    16852
      324    16853
      325    16854        %EJECT;
PL6.E3A0      #001=Z8E5$ARITHMETIC_OPERATIONS File=Z8E5.:Z8A6TSI                 SAT 08/09/97 11:33 Page:62
      326    16855    1   Z8E5$MATH_PACK: ENTRY (NODE$, RETURN$);

  16855 20 000213   000000 700200 xent  Z8E5$MATH_P* TSX0  ! X66_AUTO_3
        20 000214   000116 000003                    ZERO    78,3

      327    16856
      328    16857    1        ON_SIZE = FALSE;

  16857 20 000215   200037 450100                    STZ     ON_SIZE,,AUTO

      329    16858
      330    16859    1   COMMON_MATH_PACK:
      331    16860
      332    16861
      333    16862    2        DO CASE(NODE$ -> LX_ITEM.ID);

  16862 20 000216   200003 470500       COMMON_MATH* LDP0    @NODE$,,AUTO
        20 000217   000000 471500                    LDP1    0,,PR0
        20 000220   100000 220100                    LDX0    0,,PR1
        20 000221   000007 100003                    CMPX0   7,DU
        20 000222   000224 602010 20                 TNC     COMMON_MATH_PACK+6,X0
        20 000223   002717 710000 20                 TRA     s:17722
        20 000224   002705 710000 20                 TRA     s:17719
        20 000225   002717 710000 20                 TRA     s:17722
        20 000226   002717 710000 20                 TRA     s:17722
        20 000227   002717 710000 20                 TRA     s:17722
        20 000230   002625 710000 20                 TRA     s:17705
        20 000231   000533 710000 20                 TRA     s:16955
        20 000232   000233 710000 20                 TRA     s:16864

      334    16863    2          CASE(%UNARY_OP);

      335    16864    2            LOP$$ = ADDR(TEMP_LOP_ITEM);

  16864 20 000233   200046 633500                    EPPR3   TEMP_LOP_ITEM,,AUTO
        20 000234   200027 453500                    STP3    LOP$$,,AUTO

PL6.E3A0      #001=Z8E5$ARITHMETIC_OPERATIONS File=Z8E5.:Z8A6TSI                 SAT 08/09/97 11:33 Page:63
      336    16865
      337    16866    2            IF ON_SIZE THEN

  16866 20 000235   200037 234100                    SZN     ON_SIZE,,AUTO
        20 000236   000253 605000 20                 TPL     s:16871

      338    16867    2              CALL Z8E5$MATH_PACK_ON_SIZE (NODE$ -> UNARY_OP.LOP$,

  16867 20 000237   000000 471500                    LDP1    0,,PR0
        20 000240   200005 236100                    LDQ     @LABEL$,,AUTO
        20 000241   200112 756100                    STQ     ROP_ST$+6,,AUTO
        20 000242   200027 634500                    EPPR4   LOP$$,,AUTO
        20 000243   200111 454500                    STP4    ROP_ST$+5,,AUTO
        20 000244   100001 635500                    EPPR5   1,,PR1
        20 000245   200110 455500                    STP5    ROP_ST$+4,,AUTO
        20 000246   200110 630500                    EPPR0   ROP_ST$+4,,AUTO
        20 000247   000004 631400 21                 EPPR1   4
        20 000250   000206 701000 20                 TSX1    s:16847
        20 000251   000000 011000                    NOP     0
        20 000252   000264 710000 20                 TRA     s:16873

      339    16868    2                                           LOP$$,
      340    16869    2                                           LABEL$);
      341    16870    2            ELSE
      342    16871    2              CALL Z8E5$MATH_PACK(NODE$ -> UNARY_OP.LOP$, LOP$$);

  16871 20 000253   000000 471500                    LDP1    0,,PR0
        20 000254   200027 634500                    EPPR4   LOP$$,,AUTO
        20 000255   200111 454500                    STP4    ROP_ST$+5,,AUTO
        20 000256   100001 635500                    EPPR5   1,,PR1
        20 000257   200110 455500                    STP5    ROP_ST$+4,,AUTO
        20 000260   200110 630500                    EPPR0   ROP_ST$+4,,AUTO
        20 000261   000005 631400 21                 EPPR1   5
        20 000262   000213 701000 20                 TSX1    s:16855
        20 000263   000000 011000                    NOP     0

      343    16872
PL6.E3A0      #001=Z8E5$ARITHMETIC_OPERATIONS File=Z8E5.:Z8A6TSI                 SAT 08/09/97 11:33 Page:64
      344    16873    3            DO CASE(NODE$ -> UNARY_OP.OP);

  16873 20 000264   200003 470500                    LDP0    @NODE$,,AUTO
        20 000265   000000 471500                    LDP1    0,,PR0
        20 000266   100003 235100                    LDA     3,,PR1
        20 000267   000003 115007                    CMPA    3,DL
        20 000270   000272 602005 20                 TNC     s:16873+6,AL
        20 000271   000462 710000 20                 TRA     s:16920
        20 000272   000462 710000 20                 TRA     s:16920
        20 000273   000275 710000 20                 TRA     s:16875
        20 000274   000456 710000 20                 TRA     s:16917

      345    16874    3              CASE(%OP_UNARY_MINUS);

      346    16875    4                DO CASE(LOP$$ -> LX_ETT_ITEM.TYPE);

  16875 20 000275   200027 473500                    LDP3    LOP$$,,AUTO
        20 000276   300004 235100                    LDA     4,,PR3
        20 000277   000020 115007                    CMPA    16,DL
        20 000300   000302 602005 20                 TNC     s:16875+5,AL
        20 000301   000420 710000 20                 TRA     s:16906
        20 000302   000325 710000 20                 TRA     s:16880
        20 000303   000322 710000 20                 TRA     s:16877
        20 000304   000401 710000 20                 TRA     s:16902
        20 000305   000336 710000 20                 TRA     s:16889
        20 000306   000330 710000 20                 TRA     s:16883
        20 000307   000333 710000 20                 TRA     s:16886
        20 000310   000420 710000 20                 TRA     s:16906
        20 000311   000401 710000 20                 TRA     s:16902
        20 000312   000420 710000 20                 TRA     s:16906
        20 000313   000420 710000 20                 TRA     s:16906
        20 000314   000420 710000 20                 TRA     s:16906
        20 000315   000362 710000 20                 TRA     s:16898
        20 000316   000420 710000 20                 TRA     s:16906
        20 000317   000420 710000 20                 TRA     s:16906
        20 000320   000420 710000 20                 TRA     s:16906
        20 000321   000401 710000 20                 TRA     s:16902
PL6.E3A0      #001=Z8E5$ARITHMETIC_OPERATIONS File=Z8E5.:Z8A6TSI                 SAT 08/09/97 11:33 Page:65

      347    16876    4                  CASE(%TYI);

      348    16877    4                    ID = %USI;

  16877 20 000322   000066 236007                    LDQ     54,DL
        20 000323   200040 756100                    STQ     ID,,AUTO
        20 000324   000427 710000 20                 TRA     s:16911

      349    16878
      350    16879    4                  CASE(%TYD);

      351    16880    4                    ID = %USD;

  16880 20 000325   000065 236007                    LDQ     53,DL
        20 000326   200040 756100                    STQ     ID,,AUTO
        20 000327   000427 710000 20                 TRA     s:16911

      352    16881
      353    16882    4                  CASE(%TYR);

      354    16883    4                    ID = %USR;

  16883 20 000330   000073 236007                    LDQ     59,DL
        20 000331   200040 756100                    STQ     ID,,AUTO
        20 000332   000427 710000 20                 TRA     s:16911

      355    16884
      356    16885    4                  CASE(%TYQ);

      357    16886    4                    ID = %USQ;

  16886 20 000333   000051 236007                    LDQ     41,DL
        20 000334   200040 756100                    STQ     ID,,AUTO
        20 000335   000427 710000 20                 TRA     s:16911

      358    16887
PL6.E3A0      #001=Z8E5$ARITHMETIC_OPERATIONS File=Z8E5.:Z8A6TSI                 SAT 08/09/97 11:33 Page:66
      359    16888    4                  CASE(%TYO);

      360    16889    4                    IF COMCOM.OB.ELS THEN

  16889 20 000336   000026 234000 xsym               SZN     COMCOM+22
        20 000337   000343 605000 20                 TPL     s:16893

      361    16890    4                      ID = %USO;

  16890 20 000340   000172 236007                    LDQ     122,DL
        20 000341   200040 756100                    STQ     ID,,AUTO
        20 000342   000427 710000 20                 TRA     s:16911

      362    16891    4                    ELSE
      363    16892    5                      DO;

      364    16893    5                        CALL Z8EV$CONVERT_ON_SIZE (%TYD, LOP$$, LOP$$, ON_SIZE);

  16893 20 000343   200037 634500                    EPPR4   ON_SIZE,,AUTO
        20 000344   200113 454500                    STP4    ROP_ST$+7,,AUTO
        20 000345   200027 631500                    EPPR1   LOP$$,,AUTO
        20 000346   200112 451500                    STP1    ROP_ST$+6,,AUTO
        20 000347   200027 635500                    EPPR5   LOP$$,,AUTO
        20 000350   200111 455500                    STP5    ROP_ST$+5,,AUTO
        20 000351   000003 236000 21                 LDQ     3
        20 000352   200110 756100                    STQ     ROP_ST$+4,,AUTO
        20 000353   200110 630500                    EPPR0   ROP_ST$+4,,AUTO
        20 000354   000001 631400 21                 EPPR1   1
        20 000355   000000 701000 xent               TSX1    Z8EV$CONVERT_ON_SIZE
        20 000356   000000 011000                    NOP     0

      365    16894    5                        ID = %USD;

  16894 20 000357   000065 235007                    LDA     53,DL
        20 000360   200040 755100                    STA     ID,,AUTO

      366    16895    5                      END;
PL6.E3A0      #001=Z8E5$ARITHMETIC_OPERATIONS File=Z8E5.:Z8A6TSI                 SAT 08/09/97 11:33 Page:67

  16895 20 000361   000427 710000 20                 TRA     s:16911

      367    16896
      368    16897    4                  CASE(%TYF);

      369    16898    4                    CALL Z8EV$CONVERT_ON_SIZE (%TYD, LOP$$, LOP$$, ON_SIZE);

  16898 20 000362   200037 634500                    EPPR4   ON_SIZE,,AUTO
        20 000363   200113 454500                    STP4    ROP_ST$+7,,AUTO
        20 000364   200027 631500                    EPPR1   LOP$$,,AUTO
        20 000365   200112 451500                    STP1    ROP_ST$+6,,AUTO
        20 000366   200027 635500                    EPPR5   LOP$$,,AUTO
        20 000367   200111 455500                    STP5    ROP_ST$+5,,AUTO
        20 000370   000003 236000 21                 LDQ     3
        20 000371   200110 756100                    STQ     ROP_ST$+4,,AUTO
        20 000372   200110 630500                    EPPR0   ROP_ST$+4,,AUTO
        20 000373   000001 631400 21                 EPPR1   1
        20 000374   000000 701000 xent               TSX1    Z8EV$CONVERT_ON_SIZE
        20 000375   000000 011000                    NOP     0

      370    16899    4                    ID = %USD;

  16899 20 000376   000065 235007                    LDA     53,DL
        20 000377   200040 755100                    STA     ID,,AUTO
        20 000400   000427 710000 20                 TRA     s:16911

      371    16900
      372    16901    4                  CASE(%TYJ, %TYH, %TYK);

      373    16902    4                    CALL Z8EV$CONVERT_ON_SIZE (%TYI, LOP$$, LOP$$, ON_SIZE);

  16902 20 000401   200037 634500                    EPPR4   ON_SIZE,,AUTO
        20 000402   200113 454500                    STP4    ROP_ST$+7,,AUTO
        20 000403   200027 631500                    EPPR1   LOP$$,,AUTO
        20 000404   200112 451500                    STP1    ROP_ST$+6,,AUTO
        20 000405   200027 635500                    EPPR5   LOP$$,,AUTO
PL6.E3A0      #001=Z8E5$ARITHMETIC_OPERATIONS File=Z8E5.:Z8A6TSI                 SAT 08/09/97 11:33 Page:68
        20 000406   200111 455500                    STP5    ROP_ST$+5,,AUTO
        20 000407   000007 236000 21                 LDQ     7
        20 000410   200110 756100                    STQ     ROP_ST$+4,,AUTO
        20 000411   200110 630500                    EPPR0   ROP_ST$+4,,AUTO
        20 000412   000001 631400 21                 EPPR1   1
        20 000413   000000 701000 xent               TSX1    Z8EV$CONVERT_ON_SIZE
        20 000414   000000 011000                    NOP     0

      374    16903    4                    ID = %USI;

  16903 20 000415   000066 235007                    LDA     54,DL
        20 000416   200040 755100                    STA     ID,,AUTO
        20 000417   000427 710000 20                 TRA     s:16911

      375    16904
      376    16905    4                  CASE(ELSE);

      377    16906    4                    CALL ERROR_AND_RECOVERY (NODE$, RETURN$);

  16906 20 000420   200004 236100                    LDQ     @RETURN$,,AUTO
        20 000421   200102 756100                    STQ     @LOP$+1,,AUTO
        20 000422   200003 236100                    LDQ     @NODE$,,AUTO
        20 000423   200101 756100                    STQ     I+3,,AUTO
        20 000424   002727 701000 20                 TSX1    ERROR_AND_RECOVERY
        20 000425   000000 011000                    NOP     0

      378    16907    4                    RETURN;

  16907 20 000426   000000 702200 xent               TSX2  ! X66_ARET

      379    16908
      380    16909    4                END /*V* Case */;

      381    16910
      382    16911    3                CALL Z8AF$FORME_ON_SIZE(ID,

  16911 20 000427   200037 630500                    EPPR0   ON_SIZE,,AUTO
PL6.E3A0      #001=Z8E5$ARITHMETIC_OPERATIONS File=Z8E5.:Z8A6TSI                 SAT 08/09/97 11:33 Page:69
        20 000430   200114 450500                    STP0    ROP_ST$+8,,AUTO
        20 000431   200033 631500                    EPPR1   ETT$$,,AUTO
        20 000432   200113 451500                    STP1    ROP_ST$+7,,AUTO
        20 000433   000003 236000 21                 LDQ     3
        20 000434   200112 756100                    STQ     ROP_ST$+6,,AUTO
        20 000435   200027 236100                    LDQ     LOP$$,,AUTO
        20 000436   000001 036003                    ADLQ    1,DU
        20 000437   200111 756100                    STQ     ROP_ST$+5,,AUTO
        20 000440   200040 633500                    EPPR3   ID,,AUTO
        20 000441   200110 453500                    STP3    ROP_ST$+4,,AUTO
        20 000442   200110 630500                    EPPR0   ROP_ST$+4,,AUTO
        20 000443   000000 631400 21                 EPPR1   0
        20 000444   000000 701000 xent               TSX1    Z8AF$FORME_ON_SIZE
        20 000445   000000 011000                    NOP     0

      383    16912    3                                LOP$$ -> LX_ETT_ITEM.ETT$,
      384    16913    3                                0,
      385    16914    3                                ETT$$, ON_SIZE);
      386    16915    3                ETT$$ -> ETT.B.MPI = LOP$$ -> LX_ETT_ITEM.ETT$ -> ETT.B.MPI;

  16915 20 000446   200027 470500                    LDP0    LOP$$,,AUTO
        20 000447   000001 471500                    LDP1    1,,PR0
        20 000450   200033 473500                    LDP3    ETT$$,,AUTO
        20 000451   100004 236100                    LDQ     4,,PR1
        20 000452   300004 676100                    ERQ     4,,PR3
        20 000453   000010 376007                    ANQ     8,DL
        20 000454   300004 656100                    ERSQ    4,,PR3
        20 000455   000471 710000 20                 TRA     s:16925

      387    16916    3              CASE(%OP_PAREN);

      388    16917    3                ETT$$ = LOP$$ -> LX_ETT_ITEM.ETT$;

  16917 20 000456   200027 473500                    LDP3    LOP$$,,AUTO
        20 000457   300001 236100                    LDQ     1,,PR3
        20 000460   200033 756100                    STQ     ETT$$,,AUTO
        20 000461   000471 710000 20                 TRA     s:16925
PL6.E3A0      #001=Z8E5$ARITHMETIC_OPERATIONS File=Z8E5.:Z8A6TSI                 SAT 08/09/97 11:33 Page:70

      389    16918
      390    16919    3              CASE(ELSE);

      391    16920    3                CALL ERROR_AND_RECOVERY (NODE$, RETURN$);

  16920 20 000462   200004 236100                    LDQ     @RETURN$,,AUTO
        20 000463   200102 756100                    STQ     @LOP$+1,,AUTO
        20 000464   200003 236100                    LDQ     @NODE$,,AUTO
        20 000465   200101 756100                    STQ     I+3,,AUTO
        20 000466   002727 701000 20                 TSX1    ERROR_AND_RECOVERY
        20 000467   000000 011000                    NOP     0

      392    16921    3                RETURN;

  16921 20 000470   000000 702200 xent               TSX2  ! X66_ARET

      393    16922
      394    16923    3            END /*V* Case */;

      395    16924
      396    16925    2            CALL Z8AU$TYPE_DESCRIPTOR(ETT$$, TYPE_DESC);

  16925 20 000471   200042 630500                    EPPR0   TYPE_DESC,,AUTO
        20 000472   200111 450500                    STP0    ROP_ST$+5,,AUTO
        20 000473   200033 631500                    EPPR1   ETT$$,,AUTO
        20 000474   200110 451500                    STP1    ROP_ST$+4,,AUTO
        20 000475   200110 630500                    EPPR0   ROP_ST$+4,,AUTO
        20 000476   000005 631400 21                 EPPR1   5
        20 000477   000000 701000 xent               TSX1    Z8AU$TYPE_DESCRIPTOR
        20 000500   000000 011000                    NOP     0

      397    16926
      398    16927                 %INIT_LX_ETT_ITEM ( @POINTER = RETURN$ ,
      399    16928                                     @TYPE    = TYPE_DESC.TYPE ,
      400    16929                                     @ETT$    = ETT$$ );

PL6.E3A0      #001=Z8E5$ARITHMETIC_OPERATIONS File=Z8E5.:Z8A6TSI                 SAT 08/09/97 11:33 Page:71
  16931 20 000501   200004 470500                    LDP0    @RETURN$,,AUTO
        20 000502   000000 471500                    LDP1    0,,PR0
        20 000503   000004 220003                    LDX0    4,DU
        20 000504   100000 740100                    STX0    0,,PR1

  16932 20 000505   000000 471500                    LDP1    0,,PR0
        20 000506   000000 221003                    LDX1    0,DU
        20 000507   100000 441100                    SXL1    0,,PR1

  16933 20 000510   000000 471500                    LDP1    0,,PR0
        20 000511   200042 235100                    LDA     TYPE_DESC,,AUTO
        20 000512   100004 755100                    STA     4,,PR1

  16934 20 000513   000000 471500                    LDP1    0,,PR0
        20 000514   000010 236000 21                 LDQ     8
        20 000515   100007 756100                    STQ     7,,PR1

  16935 20 000516   000000 471500                    LDP1    0,,PR0
        20 000517   200033 236100                    LDQ     ETT$$,,AUTO
        20 000520   100001 756100                    STQ     1,,PR1

  16936 20 000521   000000 471500                    LDP1    0,,PR0
        20 000522   000010 236000 21                 LDQ     8
        20 000523   100002 756100                    STQ     2,,PR1

  16938 20 000524   000000 471500                    LDP1    0,,PR0
        20 000525   000133 235000 xsym               LDA     COMCOM+91
        20 000526   100005 755100                    STA     5,,PR1

  16939 20 000527   000000 471500                    LDP1    0,,PR0
        20 000530   000134 235000 xsym               LDA     COMCOM+92
        20 000531   100006 755100                    STA     6,,PR1

  16949 20 000532   002726 710000 20                 TRA     s:17728

      401    16951
      402    16952        %EJECT;
PL6.E3A0      #001=Z8E5$ARITHMETIC_OPERATIONS File=Z8E5.:Z8A6TSI                 SAT 08/09/97 11:33 Page:72
      403    16953
      404    16954    2          CASE(%BINARY_OP);

      405    16955    2            LOP$$ = ADDR(TEMP_LOP_ITEM);

  16955 20 000533   200046 633500                    EPPR3   TEMP_LOP_ITEM,,AUTO
        20 000534   200027 453500                    STP3    LOP$$,,AUTO

      406    16956    2            ROP$$ = ADDR(TEMP_ROP_ITEM);

  16956 20 000535   200056 631500                    EPPR1   TEMP_ROP_ITEM,,AUTO
        20 000536   200032 451500                    STP1    ROP$$,,AUTO

      407    16957
      408    16958    2            IF ON_SIZE THEN

  16958 20 000537   200037 234100                    SZN     ON_SIZE,,AUTO
        20 000540   000571 605000 20                 TPL     s:16969

      409    16959    3              DO;

      410    16960    3                CALL Z8E5$MATH_PACK_ON_SIZE (NODE$ -> BINARY_OP.LOP$,

  16960 20 000541   000000 474500                    LDP4    0,,PR0
        20 000542   200005 236100                    LDQ     @LABEL$,,AUTO
        20 000543   200112 756100                    STQ     ROP_ST$+6,,AUTO
        20 000544   200027 635500                    EPPR5   LOP$$,,AUTO
        20 000545   200111 455500                    STP5    ROP_ST$+5,,AUTO
        20 000546   400001 636500                    EPPR6   1,,PR4
        20 000547   200110 456500                    STP6    ROP_ST$+4,,AUTO
        20 000550   200110 630500                    EPPR0   ROP_ST$+4,,AUTO
        20 000551   000004 631400 21                 EPPR1   4
        20 000552   000206 701000 20                 TSX1    s:16847
        20 000553   000000 011000                    NOP     0

      411    16961    3                                             LOP$$,
      412    16962    3                                             LABEL$);
PL6.E3A0      #001=Z8E5$ARITHMETIC_OPERATIONS File=Z8E5.:Z8A6TSI                 SAT 08/09/97 11:33 Page:73
      413    16963    3                CALL Z8E5$MATH_PACK_ON_SIZE (NODE$ -> BINARY_OP.ROP$,

  16963 20 000554   200003 470500                    LDP0    @NODE$,,AUTO
        20 000555   000000 471500                    LDP1    0,,PR0
        20 000556   200005 236100                    LDQ     @LABEL$,,AUTO
        20 000557   200112 756100                    STQ     ROP_ST$+6,,AUTO
        20 000560   200032 633500                    EPPR3   ROP$$,,AUTO
        20 000561   200111 453500                    STP3    ROP_ST$+5,,AUTO
        20 000562   100002 634500                    EPPR4   2,,PR1
        20 000563   200110 454500                    STP4    ROP_ST$+4,,AUTO
        20 000564   200110 630500                    EPPR0   ROP_ST$+4,,AUTO
        20 000565   000004 631400 21                 EPPR1   4
        20 000566   000206 701000 20                 TSX1    s:16847
        20 000567   000000 011000                    NOP     0

      414    16964    3                                             ROP$$,
      415    16965    3                                             LABEL$);
      416    16966    3              END;

  16966 20 000570   000614 710000 20                 TRA     s:16973

      417    16967    2            ELSE
      418    16968    3              DO;

      419    16969    3                CALL Z8E5$MATH_PACK(NODE$ -> BINARY_OP.LOP$, LOP$$);

  16969 20 000571   000000 474500                    LDP4    0,,PR0
        20 000572   200027 635500                    EPPR5   LOP$$,,AUTO
        20 000573   200111 455500                    STP5    ROP_ST$+5,,AUTO
        20 000574   400001 636500                    EPPR6   1,,PR4
        20 000575   200110 456500                    STP6    ROP_ST$+4,,AUTO
        20 000576   200110 630500                    EPPR0   ROP_ST$+4,,AUTO
        20 000577   000005 631400 21                 EPPR1   5
        20 000600   000213 701000 20                 TSX1    s:16855
        20 000601   000000 011000                    NOP     0

      420    16970    3                CALL Z8E5$MATH_PACK(NODE$ -> BINARY_OP.ROP$, ROP$$);
PL6.E3A0      #001=Z8E5$ARITHMETIC_OPERATIONS File=Z8E5.:Z8A6TSI                 SAT 08/09/97 11:33 Page:74

  16970 20 000602   200003 470500                    LDP0    @NODE$,,AUTO
        20 000603   000000 471500                    LDP1    0,,PR0
        20 000604   200032 633500                    EPPR3   ROP$$,,AUTO
        20 000605   200111 453500                    STP3    ROP_ST$+5,,AUTO
        20 000606   100002 634500                    EPPR4   2,,PR1
        20 000607   200110 454500                    STP4    ROP_ST$+4,,AUTO
        20 000610   200110 630500                    EPPR0   ROP_ST$+4,,AUTO
        20 000611   000005 631400 21                 EPPR1   5
        20 000612   000213 701000 20                 TSX1    s:16855
        20 000613   000000 011000                    NOP     0

      421    16971    3              END;

      422    16972
      423    16973    2            IF O1COM.CURRENT_PROC$ -> PROC_.B.SUB_SCHEMA    THEN

  16973 20 000614   000057 470400 xsym               LDP0    O1COM+47
        20 000615   000003 236100                    LDQ     3,,PR0
        20 000616   000200 316003                    CANQ    128,DU
        20 000617   000636 600000 20                 TZE     s:16982

      424    16974
      425    16975    2                CALL DML_TYPE_CHECK(LOP$$,ROP$$)

  16975 20 000620   200032 631500                    EPPR1   ROP$$,,AUTO
        20 000621   200102 451500                    STP1    @LOP$+1,,AUTO
        20 000622   200027 633500                    EPPR3   LOP$$,,AUTO
        20 000623   200101 453500                    STP3    I+3,,AUTO
        20 000624   002775 701000 20                 TSX1    DML_TYPE_CHECK
        20 000625   000627 702000 20                 TSX2    s:16978
        20 000626   000636 710000 20                 TRA     s:16982

      426    16976    2                   WHENALTRETURN
      427    16977    3                     DO;

      428    16978    3                       CALL ERROR_AND_RECOVERY (NODE$, RETURN$);
PL6.E3A0      #001=Z8E5$ARITHMETIC_OPERATIONS File=Z8E5.:Z8A6TSI                 SAT 08/09/97 11:33 Page:75

  16978 20 000627   200004 236100                    LDQ     @RETURN$,,AUTO
        20 000630   200102 756100                    STQ     @LOP$+1,,AUTO
        20 000631   200003 236100                    LDQ     @NODE$,,AUTO
        20 000632   200101 756100                    STQ     I+3,,AUTO
        20 000633   002727 701000 20                 TSX1    ERROR_AND_RECOVERY
        20 000634   000000 011000                    NOP     0

      429    16979    3                       RETURN;

  16979 20 000635   000000 702200 xent               TSX2  ! X66_ARET

      430    16980    3                     END;
      431    16981
      432    16982    3            DO CASE(NODE$ -> BINARY_OP.OP);

  16982 20 000636   200003 470500                    LDP0    @NODE$,,AUTO
        20 000637   000000 471500                    LDP1    0,,PR0
        20 000640   100003 235100                    LDA     3,,PR1
        20 000641   000020 135007                    SBLA    16,DL
        20 000642   000016 115007                    CMPA    14,DL
        20 000643   000645 602005 20                 TNC     s:16982+7,AL
        20 000644   002554 710000 20                 TRA     s:17671
        20 000645   000663 710000 20                 TRA     s:16987
        20 000646   001062 710000 20                 TRA     s:17028
        20 000647   001261 710000 20                 TRA     s:17066
        20 000650   001544 710000 20                 TRA     s:17516
        20 000651   002024 710000 20                 TRA     s:17568
        20 000652   002554 710000 20                 TRA     s:17671
        20 000653   002554 710000 20                 TRA     s:17671
        20 000654   002554 710000 20                 TRA     s:17671
        20 000655   002554 710000 20                 TRA     s:17671
        20 000656   002554 710000 20                 TRA     s:17671
        20 000657   002554 710000 20                 TRA     s:17671
        20 000660   002554 710000 20                 TRA     s:17671
        20 000661   002330 710000 20                 TRA     s:17619
        20 000662   002504 710000 20                 TRA     s:17661
PL6.E3A0      #001=Z8E5$ARITHMETIC_OPERATIONS File=Z8E5.:Z8A6TSI                 SAT 08/09/97 11:33 Page:76

      433    16983
      434    16984        %EJECT;
PL6.E3A0      #001=Z8E5$ARITHMETIC_OPERATIONS File=Z8E5.:Z8A6TSI                 SAT 08/09/97 11:33 Page:77
      435    16985    3              CASE(%OP_PLUS);

      436    16986
      437    16987    3                CALL Z8EV$COMPATIBLE_TYPES_ON_SIZE(LOP$$, ROP$$, ARITHMETIC_MATRIX,
             16987                         ON_SIZE)

  16987 20 000663   200037 633500                    EPPR3   ON_SIZE,,AUTO
        20 000664   200113 453500                    STP3    ROP_ST$+7,,AUTO
        20 000665   000011 236000 21                 LDQ     9
        20 000666   200112 756100                    STQ     ROP_ST$+6,,AUTO
        20 000667   200032 631500                    EPPR1   ROP$$,,AUTO
        20 000670   200111 451500                    STP1    ROP_ST$+5,,AUTO
        20 000671   200027 634500                    EPPR4   LOP$$,,AUTO
        20 000672   200110 454500                    STP4    ROP_ST$+4,,AUTO
        20 000673   200110 630500                    EPPR0   ROP_ST$+4,,AUTO
        20 000674   000001 631400 21                 EPPR1   1
        20 000675   000000 701000 xent               TSX1    Z8EV$COMPATIBLE_TYPES_ON_SIZE
        20 000676   000700 702000 20                 TSX2    s:16990
        20 000677   000707 710000 20                 TRA     s:16995

      438    16988    3                  WHENALTRETURN
      439    16989    4                    DO;

      440    16990    4                      CALL ERROR_AND_RECOVERY (NODE$, RETURN$);

  16990 20 000700   200004 236100                    LDQ     @RETURN$,,AUTO
        20 000701   200102 756100                    STQ     @LOP$+1,,AUTO
        20 000702   200003 236100                    LDQ     @NODE$,,AUTO
        20 000703   200101 756100                    STQ     I+3,,AUTO
        20 000704   002727 701000 20                 TSX1    ERROR_AND_RECOVERY
        20 000705   000000 011000                    NOP     0

      441    16991
      442    16992    4                      RETURN;

  16992 20 000706   000000 702200 xent               TSX2  ! X66_ARET

PL6.E3A0      #001=Z8E5$ARITHMETIC_OPERATIONS File=Z8E5.:Z8A6TSI                 SAT 08/09/97 11:33 Page:78
      443    16993    4                    END;
      444    16994
      445    16995    4                DO CASE(ROP$$->LX_ITEM.TYPE);

  16995 20 000707   200032 470500                    LDP0    ROP$$,,AUTO
        20 000710   000004 235100                    LDA     4,,PR0
        20 000711   000014 115007                    CMPA    12,DL
        20 000712   000714 602005 20                 TNC     s:16995+5,AL
        20 000713   001043 710000 20                 TRA     s:17018
        20 000714   000765 710000 20                 TRA     s:17006
        20 000715   000730 710000 20                 TRA     s:16997
        20 000716   001043 710000 20                 TRA     s:17018
        20 000717   001034 710000 20                 TRA     s:17015
        20 000720   000774 710000 20                 TRA     s:17009
        20 000721   001014 710000 20                 TRA     s:17012
        20 000722   001043 710000 20                 TRA     s:17018
        20 000723   001043 710000 20                 TRA     s:17018
        20 000724   001043 710000 20                 TRA     s:17018
        20 000725   001043 710000 20                 TRA     s:17018
        20 000726   001043 710000 20                 TRA     s:17018
        20 000727   001034 710000 20                 TRA     s:17015

      446    16996    4                  CASE(%TYI);

      447    16997    4                    CALL Z8AF$FORME_ON_SIZE(%ADI,

  16997 20 000730   200037 631500                    EPPR1   ON_SIZE,,AUTO
        20 000731   200114 451500                    STP1    ROP_ST$+8,,AUTO
        20 000732   200033 633500                    EPPR3   ETT$$,,AUTO
        20 000733   200113 453500                    STP3    ROP_ST$+7,,AUTO
        20 000734   200032 236100                    LDQ     ROP$$,,AUTO
        20 000735   000001 036003                    ADLQ    1,DU
        20 000736   200112 756100                    STQ     ROP_ST$+6,,AUTO
        20 000737   200027 236100                    LDQ     LOP$$,,AUTO
        20 000740   000001 036003                    ADLQ    1,DU
        20 000741   000013 235000 21                 LDA     11
        20 000742   200110 757100                    STAQ    ROP_ST$+4,,AUTO
PL6.E3A0      #001=Z8E5$ARITHMETIC_OPERATIONS File=Z8E5.:Z8A6TSI                 SAT 08/09/97 11:33 Page:79
        20 000743   200110 630500                    EPPR0   ROP_ST$+4,,AUTO
        20 000744   000000 631400 21                 EPPR1   0
        20 000745   000000 701000 xent               TSX1    Z8AF$FORME_ON_SIZE
        20 000746   000000 011000                    NOP     0

      448    16998    4                                    LOP$$ -> LX_ETT_ITEM.ETT$,
      449    16999    4                                    ROP$$ -> LX_ETT_ITEM.ETT$,
      450    17000    4                                    ETT$$, ON_SIZE);
      451    17001    4                    IF LOP$$ -> LX_ETT_ITEM.ETT$ -> ETT.B.MPI OR

  17001 20 000747   200027 470500                    LDP0    LOP$$,,AUTO
        20 000750   000001 471500                    LDP1    1,,PR0
        20 000751   100004 236100                    LDQ     4,,PR1
        20 000752   000010 316007                    CANQ    8,DL
        20 000753   000761 601000 20                 TNZ     s:17003
        20 000754   200032 473500                    LDP3    ROP$$,,AUTO
        20 000755   300001 474500                    LDP4    1,,PR3
        20 000756   400004 236100                    LDQ     4,,PR4
        20 000757   000010 316007                    CANQ    8,DL
        20 000760   002563 600000 20                 TZE     s:17676

      452    17002    4                        ROP$$ -> LX_ETT_ITEM.ETT$ -> ETT.B.MPI THEN
      453    17003    4                      ETT$$ -> ETT.B.MPI = TRUE;

  17003 20 000761   200033 473500                    LDP3    ETT$$,,AUTO
        20 000762   000010 236007                    LDQ     8,DL
        20 000763   300004 256100                    ORSQ    4,,PR3
        20 000764   002563 710000 20                 TRA     s:17676

      454    17004
      455    17005    4                  CASE(%TYD);

      456    17006    4                    CALL DEC_OVERP_INST (%ADO, %ADD);

  17006 20 000765   000016 236000 21                 LDQ     14
        20 000766   200102 756100                    STQ     @LOP$+1,,AUTO
        20 000767   000017 236000 21                 LDQ     15
PL6.E3A0      #001=Z8E5$ARITHMETIC_OPERATIONS File=Z8E5.:Z8A6TSI                 SAT 08/09/97 11:33 Page:80
        20 000770   200101 756100                    STQ     I+3,,AUTO
        20 000771   000003 701000 20                 TSX1    DEC_OVERP_INST
        20 000772   000000 011000                    NOP     0
        20 000773   002563 710000 20                 TRA     s:17676

      457    17007
      458    17008    4                  CASE(%TYR);

      459    17009    4                    CALL Z8AF$FORME_ON_SIZE(%ADR, LOP$$->LX_ETT_ITEM.ETT$, ROP$$->
             17009                             LX_ETT_ITEM.ETT$, ETT$$, ON_SIZE);

  17009 20 000774   200037 631500                    EPPR1   ON_SIZE,,AUTO
        20 000775   200114 451500                    STP1    ROP_ST$+8,,AUTO
        20 000776   200033 633500                    EPPR3   ETT$$,,AUTO
        20 000777   200113 453500                    STP3    ROP_ST$+7,,AUTO
        20 001000   200032 236100                    LDQ     ROP$$,,AUTO
        20 001001   000001 036003                    ADLQ    1,DU
        20 001002   200112 756100                    STQ     ROP_ST$+6,,AUTO
        20 001003   200027 236100                    LDQ     LOP$$,,AUTO
        20 001004   000001 036003                    ADLQ    1,DU
        20 001005   000021 235000 21                 LDA     17
        20 001006   200110 757100                    STAQ    ROP_ST$+4,,AUTO
        20 001007   200110 630500                    EPPR0   ROP_ST$+4,,AUTO
        20 001010   000000 631400 21                 EPPR1   0
        20 001011   000000 701000 xent               TSX1    Z8AF$FORME_ON_SIZE
        20 001012   000000 011000                    NOP     0
        20 001013   002563 710000 20                 TRA     s:17676

      460    17010
      461    17011    4                  CASE(%TYQ);

      462    17012    4                    CALL Z8AF$FORME_ON_SIZE(%ADQ, LOP$$->LX_ETT_ITEM.ETT$, ROP$$->
             17012                             LX_ETT_ITEM.ETT$, ETT$$, ON_SIZE);

  17012 20 001014   200037 631500                    EPPR1   ON_SIZE,,AUTO
        20 001015   200114 451500                    STP1    ROP_ST$+8,,AUTO
        20 001016   200033 633500                    EPPR3   ETT$$,,AUTO
PL6.E3A0      #001=Z8E5$ARITHMETIC_OPERATIONS File=Z8E5.:Z8A6TSI                 SAT 08/09/97 11:33 Page:81
        20 001017   200113 453500                    STP3    ROP_ST$+7,,AUTO
        20 001020   200032 236100                    LDQ     ROP$$,,AUTO
        20 001021   000001 036003                    ADLQ    1,DU
        20 001022   200112 756100                    STQ     ROP_ST$+6,,AUTO
        20 001023   200027 236100                    LDQ     LOP$$,,AUTO
        20 001024   000001 036003                    ADLQ    1,DU
        20 001025   000023 235000 21                 LDA     19
        20 001026   200110 757100                    STAQ    ROP_ST$+4,,AUTO
        20 001027   200110 630500                    EPPR0   ROP_ST$+4,,AUTO
        20 001030   000000 631400 21                 EPPR1   0
        20 001031   000000 701000 xent               TSX1    Z8AF$FORME_ON_SIZE
        20 001032   000000 011000                    NOP     0
        20 001033   002563 710000 20                 TRA     s:17676

      463    17013
      464    17014    4                  CASE(%TYO, %TYF);

      465    17015    4                    CALL OVERP_DEC_INST (%ADO, %ADD);

  17015 20 001034   000016 236000 21                 LDQ     14
        20 001035   200102 756100                    STQ     @LOP$+1,,AUTO
        20 001036   000017 236000 21                 LDQ     15
        20 001037   200101 756100                    STQ     I+3,,AUTO
        20 001040   000111 701000 20                 TSX1    OVERP_DEC_INST
        20 001041   000000 011000                    NOP     0
        20 001042   002563 710000 20                 TRA     s:17676

      466    17016
      467    17017    4                  CASE(ELSE);

      468    17018    4                    CALL Z8AE$ERROR(%E$UNEXPECTED_CASE,

  17018 20 001043   200032 236100                    LDQ     ROP$$,,AUTO
        20 001044   000006 036003                    ADLQ    6,DU
        20 001045   200112 756100                    STQ     ROP_ST$+6,,AUTO
        20 001046   200032 236100                    LDQ     ROP$$,,AUTO
        20 001047   000005 036003                    ADLQ    5,DU
PL6.E3A0      #001=Z8E5$ARITHMETIC_OPERATIONS File=Z8E5.:Z8A6TSI                 SAT 08/09/97 11:33 Page:82
        20 001050   000025 235000 21                 LDA     21
        20 001051   200110 757100                    STAQ    ROP_ST$+4,,AUTO
        20 001052   200110 630500                    EPPR0   ROP_ST$+4,,AUTO
        20 001053   000004 631400 21                 EPPR1   4
        20 001054   000000 701000 xent               TSX1    Z8AE$ERROR
        20 001055   000000 011000                    NOP     0

      469    17019    4                                    ROP$$ -> LX_ETT_ITEM.LINE,
      470    17020    4                                    ROP$$ -> LX_ETT_ITEM.COLUMN);
      471    17021    4                    ETT$$ = LOP$$ -> LX_ETT_ITEM.ETT$;

  17021 20 001056   200027 470500                    LDP0    LOP$$,,AUTO
        20 001057   000001 236100                    LDQ     1,,PR0
        20 001060   200033 756100                    STQ     ETT$$,,AUTO

      472    17022    4                END /*V* CASE */;

  17022 20 001061   002563 710000 20                 TRA     s:17676

      473    17023
      474    17024
      475    17025        %EJECT;
PL6.E3A0      #001=Z8E5$ARITHMETIC_OPERATIONS File=Z8E5.:Z8A6TSI                 SAT 08/09/97 11:33 Page:83
      476    17026    3              CASE(%OP_BINARY_MINUS);

      477    17027
      478    17028    3                CALL Z8EV$COMPATIBLE_TYPES_ON_SIZE(LOP$$, ROP$$, ARITHMETIC_MATRIX,
             17028                         ON_SIZE)

  17028 20 001062   200037 633500                    EPPR3   ON_SIZE,,AUTO
        20 001063   200113 453500                    STP3    ROP_ST$+7,,AUTO
        20 001064   000011 236000 21                 LDQ     9
        20 001065   200112 756100                    STQ     ROP_ST$+6,,AUTO
        20 001066   200032 631500                    EPPR1   ROP$$,,AUTO
        20 001067   200111 451500                    STP1    ROP_ST$+5,,AUTO
        20 001070   200027 634500                    EPPR4   LOP$$,,AUTO
        20 001071   200110 454500                    STP4    ROP_ST$+4,,AUTO
        20 001072   200110 630500                    EPPR0   ROP_ST$+4,,AUTO
        20 001073   000001 631400 21                 EPPR1   1
        20 001074   000000 701000 xent               TSX1    Z8EV$COMPATIBLE_TYPES_ON_SIZE
        20 001075   001077 702000 20                 TSX2    s:17031
        20 001076   001106 710000 20                 TRA     s:17036

      479    17029    3                  WHENALTRETURN
      480    17030    4                    DO;

      481    17031    4                      CALL ERROR_AND_RECOVERY (NODE$, RETURN$);

  17031 20 001077   200004 236100                    LDQ     @RETURN$,,AUTO
        20 001100   200102 756100                    STQ     @LOP$+1,,AUTO
        20 001101   200003 236100                    LDQ     @NODE$,,AUTO
        20 001102   200101 756100                    STQ     I+3,,AUTO
        20 001103   002727 701000 20                 TSX1    ERROR_AND_RECOVERY
        20 001104   000000 011000                    NOP     0

      482    17032
      483    17033    4                      RETURN;

  17033 20 001105   000000 702200 xent               TSX2  ! X66_ARET

PL6.E3A0      #001=Z8E5$ARITHMETIC_OPERATIONS File=Z8E5.:Z8A6TSI                 SAT 08/09/97 11:33 Page:84
      484    17034    4                    END;
      485    17035
      486    17036    4                DO CASE(ROP$$->LX_ITEM.TYPE);

  17036 20 001106   200032 470500                    LDP0    ROP$$,,AUTO
        20 001107   000004 235100                    LDA     4,,PR0
        20 001110   000014 115007                    CMPA    12,DL
        20 001111   001113 602005 20                 TNC     s:17036+5,AL
        20 001112   001242 710000 20                 TRA     s:17056
        20 001113   001164 710000 20                 TRA     s:17044
        20 001114   001127 710000 20                 TRA     s:17038
        20 001115   001242 710000 20                 TRA     s:17056
        20 001116   001233 710000 20                 TRA     s:17053
        20 001117   001173 710000 20                 TRA     s:17047
        20 001120   001213 710000 20                 TRA     s:17050
        20 001121   001242 710000 20                 TRA     s:17056
        20 001122   001242 710000 20                 TRA     s:17056
        20 001123   001242 710000 20                 TRA     s:17056
        20 001124   001242 710000 20                 TRA     s:17056
        20 001125   001242 710000 20                 TRA     s:17056
        20 001126   001233 710000 20                 TRA     s:17053

      487    17037    4                  CASE(%TYI);

      488    17038    4                    CALL Z8AF$FORME_ON_SIZE(%SBI, LOP$$->LX_ETT_ITEM.ETT$, ROP$$->
             17038                             LX_ETT_ITEM.ETT$, ETT$$, ON_SIZE);

  17038 20 001127   200037 631500                    EPPR1   ON_SIZE,,AUTO
        20 001130   200114 451500                    STP1    ROP_ST$+8,,AUTO
        20 001131   200033 633500                    EPPR3   ETT$$,,AUTO
        20 001132   200113 453500                    STP3    ROP_ST$+7,,AUTO
        20 001133   200032 236100                    LDQ     ROP$$,,AUTO
        20 001134   000001 036003                    ADLQ    1,DU
        20 001135   200112 756100                    STQ     ROP_ST$+6,,AUTO
        20 001136   200027 236100                    LDQ     LOP$$,,AUTO
        20 001137   000001 036003                    ADLQ    1,DU
        20 001140   000027 235000 21                 LDA     23
PL6.E3A0      #001=Z8E5$ARITHMETIC_OPERATIONS File=Z8E5.:Z8A6TSI                 SAT 08/09/97 11:33 Page:85
        20 001141   200110 757100                    STAQ    ROP_ST$+4,,AUTO
        20 001142   200110 630500                    EPPR0   ROP_ST$+4,,AUTO
        20 001143   000000 631400 21                 EPPR1   0
        20 001144   000000 701000 xent               TSX1    Z8AF$FORME_ON_SIZE
        20 001145   000000 011000                    NOP     0

      489    17039    4                    IF LOP$$ -> LX_ETT_ITEM.ETT$ -> ETT.B.MPI OR

  17039 20 001146   200027 470500                    LDP0    LOP$$,,AUTO
        20 001147   000001 471500                    LDP1    1,,PR0
        20 001150   100004 236100                    LDQ     4,,PR1
        20 001151   000010 316007                    CANQ    8,DL
        20 001152   001160 601000 20                 TNZ     s:17041
        20 001153   200032 473500                    LDP3    ROP$$,,AUTO
        20 001154   300001 474500                    LDP4    1,,PR3
        20 001155   400004 236100                    LDQ     4,,PR4
        20 001156   000010 316007                    CANQ    8,DL
        20 001157   002563 600000 20                 TZE     s:17676

      490    17040    4                        ROP$$ -> LX_ETT_ITEM.ETT$ -> ETT.B.MPI THEN
      491    17041    4                      ETT$$ -> ETT.B.MPI = TRUE;

  17041 20 001160   200033 473500                    LDP3    ETT$$,,AUTO
        20 001161   000010 236007                    LDQ     8,DL
        20 001162   300004 256100                    ORSQ    4,,PR3
        20 001163   002563 710000 20                 TRA     s:17676

      492    17042
      493    17043    4                  CASE(%TYD);

      494    17044    4                    CALL DEC_OVERP_INST (%SBO, %SBD);

  17044 20 001164   000032 236000 21                 LDQ     26
        20 001165   200102 756100                    STQ     @LOP$+1,,AUTO
        20 001166   000033 236000 21                 LDQ     27
        20 001167   200101 756100                    STQ     I+3,,AUTO
        20 001170   000003 701000 20                 TSX1    DEC_OVERP_INST
PL6.E3A0      #001=Z8E5$ARITHMETIC_OPERATIONS File=Z8E5.:Z8A6TSI                 SAT 08/09/97 11:33 Page:86
        20 001171   000000 011000                    NOP     0
        20 001172   002563 710000 20                 TRA     s:17676

      495    17045
      496    17046    4                  CASE(%TYR);

      497    17047    4                    CALL Z8AF$FORME_ON_SIZE(%SBR, LOP$$->LX_ETT_ITEM.ETT$, ROP$$->
             17047                             LX_ETT_ITEM.ETT$, ETT$$, ON_SIZE);

  17047 20 001173   200037 631500                    EPPR1   ON_SIZE,,AUTO
        20 001174   200114 451500                    STP1    ROP_ST$+8,,AUTO
        20 001175   200033 633500                    EPPR3   ETT$$,,AUTO
        20 001176   200113 453500                    STP3    ROP_ST$+7,,AUTO
        20 001177   200032 236100                    LDQ     ROP$$,,AUTO
        20 001200   000001 036003                    ADLQ    1,DU
        20 001201   200112 756100                    STQ     ROP_ST$+6,,AUTO
        20 001202   200027 236100                    LDQ     LOP$$,,AUTO
        20 001203   000001 036003                    ADLQ    1,DU
        20 001204   000035 235000 21                 LDA     29
        20 001205   200110 757100                    STAQ    ROP_ST$+4,,AUTO
        20 001206   200110 630500                    EPPR0   ROP_ST$+4,,AUTO
        20 001207   000000 631400 21                 EPPR1   0
        20 001210   000000 701000 xent               TSX1    Z8AF$FORME_ON_SIZE
        20 001211   000000 011000                    NOP     0
        20 001212   002563 710000 20                 TRA     s:17676

      498    17048
      499    17049    4                  CASE(%TYQ);

      500    17050    4                    CALL Z8AF$FORME_ON_SIZE(%SBQ, LOP$$->LX_ETT_ITEM.ETT$, ROP$$->
             17050                             LX_ETT_ITEM.ETT$, ETT$$, ON_SIZE);

  17050 20 001213   200037 631500                    EPPR1   ON_SIZE,,AUTO
        20 001214   200114 451500                    STP1    ROP_ST$+8,,AUTO
        20 001215   200033 633500                    EPPR3   ETT$$,,AUTO
        20 001216   200113 453500                    STP3    ROP_ST$+7,,AUTO
        20 001217   200032 236100                    LDQ     ROP$$,,AUTO
PL6.E3A0      #001=Z8E5$ARITHMETIC_OPERATIONS File=Z8E5.:Z8A6TSI                 SAT 08/09/97 11:33 Page:87
        20 001220   000001 036003                    ADLQ    1,DU
        20 001221   200112 756100                    STQ     ROP_ST$+6,,AUTO
        20 001222   200027 236100                    LDQ     LOP$$,,AUTO
        20 001223   000001 036003                    ADLQ    1,DU
        20 001224   000037 235000 21                 LDA     31
        20 001225   200110 757100                    STAQ    ROP_ST$+4,,AUTO
        20 001226   200110 630500                    EPPR0   ROP_ST$+4,,AUTO
        20 001227   000000 631400 21                 EPPR1   0
        20 001230   000000 701000 xent               TSX1    Z8AF$FORME_ON_SIZE
        20 001231   000000 011000                    NOP     0
        20 001232   002563 710000 20                 TRA     s:17676

      501    17051
      502    17052    4                  CASE(%TYO, %TYF);

      503    17053    4                    CALL OVERP_DEC_INST (%SBO, %SBD);

  17053 20 001233   000032 236000 21                 LDQ     26
        20 001234   200102 756100                    STQ     @LOP$+1,,AUTO
        20 001235   000033 236000 21                 LDQ     27
        20 001236   200101 756100                    STQ     I+3,,AUTO
        20 001237   000111 701000 20                 TSX1    OVERP_DEC_INST
        20 001240   000000 011000                    NOP     0
        20 001241   002563 710000 20                 TRA     s:17676

      504    17054
      505    17055    4                  CASE(ELSE);

      506    17056    4                    CALL Z8AE$ERROR(%E$UNEXPECTED_CASE,

  17056 20 001242   200032 236100                    LDQ     ROP$$,,AUTO
        20 001243   000006 036003                    ADLQ    6,DU
        20 001244   200112 756100                    STQ     ROP_ST$+6,,AUTO
        20 001245   200032 236100                    LDQ     ROP$$,,AUTO
        20 001246   000005 036003                    ADLQ    5,DU
        20 001247   000025 235000 21                 LDA     21
        20 001250   200110 757100                    STAQ    ROP_ST$+4,,AUTO
PL6.E3A0      #001=Z8E5$ARITHMETIC_OPERATIONS File=Z8E5.:Z8A6TSI                 SAT 08/09/97 11:33 Page:88
        20 001251   200110 630500                    EPPR0   ROP_ST$+4,,AUTO
        20 001252   000004 631400 21                 EPPR1   4
        20 001253   000000 701000 xent               TSX1    Z8AE$ERROR
        20 001254   000000 011000                    NOP     0

      507    17057    4                                    ROP$$ -> LX_ETT_ITEM.LINE,
      508    17058    4                                    ROP$$ -> LX_ETT_ITEM.COLUMN);
      509    17059    4                  ETT$$ = LOP$$ -> LX_ETT_ITEM.ETT$;

  17059 20 001255   200027 470500                    LDP0    LOP$$,,AUTO
        20 001256   000001 236100                    LDQ     1,,PR0
        20 001257   200033 756100                    STQ     ETT$$,,AUTO

      510    17060    4                END /*V* CASE */;

  17060 20 001260   002563 710000 20                 TRA     s:17676

      511    17061
      512    17062
      513    17063        %EJECT;
PL6.E3A0      #001=Z8E5$ARITHMETIC_OPERATIONS File=Z8E5.:Z8A6TSI                 SAT 08/09/97 11:33 Page:89
      514    17064    3              CASE(%OP_STAR);

      515    17065
      516    17066    3                CALL Z8EV$COMPATIBLE_TYPES_ON_SIZE(LOP$$, ROP$$, ARITHMETIC_MATRIX,
             17066                         ON_SIZE)

  17066 20 001261   200037 633500                    EPPR3   ON_SIZE,,AUTO
        20 001262   200113 453500                    STP3    ROP_ST$+7,,AUTO
        20 001263   000011 236000 21                 LDQ     9
        20 001264   200112 756100                    STQ     ROP_ST$+6,,AUTO
        20 001265   200032 631500                    EPPR1   ROP$$,,AUTO
        20 001266   200111 451500                    STP1    ROP_ST$+5,,AUTO
        20 001267   200027 634500                    EPPR4   LOP$$,,AUTO
        20 001270   200110 454500                    STP4    ROP_ST$+4,,AUTO
        20 001271   200110 630500                    EPPR0   ROP_ST$+4,,AUTO
        20 001272   000001 631400 21                 EPPR1   1
        20 001273   000000 701000 xent               TSX1    Z8EV$COMPATIBLE_TYPES_ON_SIZE
        20 001274   001276 702000 20                 TSX2    s:17069
        20 001275   001305 710000 20                 TRA     s:17074

      517    17067    3                  WHENALTRETURN
      518    17068    4                    DO;

      519    17069    4                      CALL ERROR_AND_RECOVERY (NODE$, RETURN$);

  17069 20 001276   200004 236100                    LDQ     @RETURN$,,AUTO
        20 001277   200102 756100                    STQ     @LOP$+1,,AUTO
        20 001300   200003 236100                    LDQ     @NODE$,,AUTO
        20 001301   200101 756100                    STQ     I+3,,AUTO
        20 001302   002727 701000 20                 TSX1    ERROR_AND_RECOVERY
        20 001303   000000 011000                    NOP     0

      520    17070
      521    17071    4                      RETURN;

  17071 20 001304   000000 702200 xent               TSX2  ! X66_ARET

PL6.E3A0      #001=Z8E5$ARITHMETIC_OPERATIONS File=Z8E5.:Z8A6TSI                 SAT 08/09/97 11:33 Page:90
      522    17072    4                    END;
      523    17073
      524    17074    4                DO CASE(ROP$$->LX_ITEM.TYPE);

  17074 20 001305   200032 470500                    LDP0    ROP$$,,AUTO
        20 001306   000004 235100                    LDA     4,,PR0
        20 001307   000014 115007                    CMPA    12,DL
        20 001310   001312 602005 20                 TNC     s:17074+5,AL
        20 001311   001525 710000 20                 TRA     s:17506
        20 001312   001447 710000 20                 TRA     s:17494
        20 001313   001326 710000 20                 TRA     s:17076
        20 001314   001525 710000 20                 TRA     s:17506
        20 001315   001516 710000 20                 TRA     s:17503
        20 001316   001456 710000 20                 TRA     s:17497
        20 001317   001476 710000 20                 TRA     s:17500
        20 001320   001525 710000 20                 TRA     s:17506
        20 001321   001525 710000 20                 TRA     s:17506
        20 001322   001525 710000 20                 TRA     s:17506
        20 001323   001525 710000 20                 TRA     s:17506
        20 001324   001525 710000 20                 TRA     s:17506
        20 001325   001516 710000 20                 TRA     s:17503

      525    17075    4                  CASE(%TYI);

      526    17076    4                    IF ON_SIZE THEN

  17076 20 001326   200037 234100                    SZN     ON_SIZE,,AUTO
        20 001327   001373 605000 20                 TPL     s:17481

      527    17077    5                      DO;

      528    17078                             %SRCH_ETT (@ID     = %MPI,
      529    17079                                        @LOP    = LOP$$ -> LX_ETT_ITEM.ETT$,
      530    17080                                        @ROP    = ROP$$ -> LX_ETT_ITEM.ETT$,
      531    17081                                        @ETT$   = ETT$$);

  17083 20 001330   000060 236007                    LDQ     48,DL
PL6.E3A0      #001=Z8E5$ARITHMETIC_OPERATIONS File=Z8E5.:Z8A6TSI                 SAT 08/09/97 11:33 Page:91
        20 001331   000000 756000 13                 STQ     SRCH

  17084 20 001332   200027 471500                    LDP1    LOP$$,,AUTO
        20 001333   100001 236100                    LDQ     1,,PR1
        20 001334   000001 756000 13                 STQ     SRCH+1

  17086 20 001335   000001 236100                    LDQ     1,,PR0
        20 001336   000002 756000 13                 STQ     SRCH+2

  17093 20 001337   200033 633500                    EPPR3   ETT$$,,AUTO
        20 001340   200110 453500                    STP3    ROP_ST$+4,,AUTO
        20 001341   200110 630500                    EPPR0   ROP_ST$+4,,AUTO
        20 001342   000040 631400 21                 EPPR1   32
        20 001343   000000 701000 xent               TSX1    Z8AS$SR_ETT
        20 001344   000000 011000                    NOP     0

      532    17096
      533    17097                             %NEW_ILL (@ID     = %GO,
      534    17098                                       @CODE   = %GO_MPI_OVERFLOW,
      535    17099                                       @EXPR$  = ETT$$,
      536    17100                                       @LABEL$ = LABEL$);

  17261 20 001345   000042 236000 21                 LDQ     34
        20 001346   200110 756100                    STQ     ROP_ST$+4,,AUTO
        20 001347   200110 630500                    EPPR0   ROP_ST$+4,,AUTO
        20 001350   200115 450500                    STP0    ROP_ST$+9,,AUTO
        20 001351   000043 236000 21                 LDQ     35
        20 001352   200114 756100                    STQ     ROP_ST$+8,,AUTO
        20 001353   000044 237000 21                 LDAQ    36
        20 001354   200112 757100                    STAQ    ROP_ST$+6,,AUTO
        20 001355   200112 630500                    EPPR0   ROP_ST$+6,,AUTO
        20 001356   000001 631400 21                 EPPR1   1
        20 001357   000000 701000 xent               TSX1    Z8AN$NEW_ILL
        20 001360   000000 011000                    NOP     0

  17262 20 001361   000017 220003                    LDX0    15,DU
        20 001362   000000 470400 5                  LDP0    ILL$
PL6.E3A0      #001=Z8E5$ARITHMETIC_OPERATIONS File=Z8E5.:Z8A6TSI                 SAT 08/09/97 11:33 Page:92
        20 001363   000000 440100                    SXL0    0,,PR0

  17263 20 001364   200005 470500                    LDP0    @LABEL$,,AUTO
        20 001365   000000 236100                    LDQ     0,,PR0
        20 001366   000000 471400 5                  LDP1    ILL$
        20 001367   100001 756100                    STQ     1,,PR1

  17264 20 001370   200033 236100                    LDQ     ETT$$,,AUTO
        20 001371   100002 756100                    STQ     2,,PR1

      537    17479    5                      END;

  17479 20 001372   001412 710000 20                 TRA     s:17485

      538    17480    4                    ELSE
      539    17481    4                      CALL Z8AF$FORME_ON_SIZE(%MPI,

  17481 20 001373   200037 631500                    EPPR1   ON_SIZE,,AUTO
        20 001374   200114 451500                    STP1    ROP_ST$+8,,AUTO
        20 001375   200033 633500                    EPPR3   ETT$$,,AUTO
        20 001376   200113 453500                    STP3    ROP_ST$+7,,AUTO
        20 001377   200032 236100                    LDQ     ROP$$,,AUTO
        20 001400   000001 036003                    ADLQ    1,DU
        20 001401   200112 756100                    STQ     ROP_ST$+6,,AUTO
        20 001402   200027 236100                    LDQ     LOP$$,,AUTO
        20 001403   000001 036003                    ADLQ    1,DU
        20 001404   000047 235000 21                 LDA     39
        20 001405   200110 757100                    STAQ    ROP_ST$+4,,AUTO
        20 001406   200110 630500                    EPPR0   ROP_ST$+4,,AUTO
        20 001407   000000 631400 21                 EPPR1   0
        20 001410   000000 701000 xent               TSX1    Z8AF$FORME_ON_SIZE
        20 001411   000000 011000                    NOP     0

      540    17482    4                                      LOP$$ -> LX_ETT_ITEM.ETT$,
      541    17483    4                                      ROP$$ -> LX_ETT_ITEM.ETT$,
      542    17484    4                                      ETT$$, ON_SIZE);
      543    17485    5                    DO CASE (ETT$$ -> ETT.ID);
PL6.E3A0      #001=Z8E5$ARITHMETIC_OPERATIONS File=Z8E5.:Z8A6TSI                 SAT 08/09/97 11:33 Page:93

  17485 20 001412   200033 470500                    LDP0    ETT$$,,AUTO
        20 001413   000000 236100                    LDQ     0,,PR0
        20 001414   000022 772000                    QRL     18
        20 001415   000052 136007                    SBLQ    42,DL
        20 001416   000015 116007                    CMPQ    13,DL
        20 001417   001421 602006 20                 TNC     s:17485+7,QL
        20 001420   002563 710000 20                 TRA     s:17676
        20 001421   001436 710000 20                 TRA     s:17487
        20 001422   001446 710000 20                 TRA     s:17491
        20 001423   001446 710000 20                 TRA     s:17491
        20 001424   001446 710000 20                 TRA     s:17491
        20 001425   001446 710000 20                 TRA     s:17491
        20 001426   001446 710000 20                 TRA     s:17491
        20 001427   001436 710000 20                 TRA     s:17487
        20 001430   001446 710000 20                 TRA     s:17491
        20 001431   001446 710000 20                 TRA     s:17491
        20 001432   001446 710000 20                 TRA     s:17491
        20 001433   001446 710000 20                 TRA     s:17491
        20 001434   001446 710000 20                 TRA     s:17491
        20 001435   001441 710000 20                 TRA     s:17489

      544    17486    5                      CASE (%MPI, %MPI2);

      545    17487    5                        ETT$$ -> ETT.B.MPI = TRUE;

  17487 20 001436   000010 236007                    LDQ     8,DL
        20 001437   000004 256100                    ORSQ    4,,PR0
        20 001440   002563 710000 20                 TRA     s:17676

      546    17488    5                      CASE (%USI); /* Optimization of multiply by -1 */

      547    17489    5                        ETT$$ -> ETT.B.MPI = ETT$$ -> ETT.LOP -> ETT.B.MPI;

  17489 20 001441   000001 471500                    LDP1    1,,PR0
        20 001442   100004 236100                    LDQ     4,,PR1
        20 001443   000004 676100                    ERQ     4,,PR0
PL6.E3A0      #001=Z8E5$ARITHMETIC_OPERATIONS File=Z8E5.:Z8A6TSI                 SAT 08/09/97 11:33 Page:94
        20 001444   000010 376007                    ANQ     8,DL
        20 001445   000004 656100                    ERSQ    4,,PR0

      548    17490                           /* Other cases, do not set the MPI bit */
      549    17491    5                    END;

  17491 20 001446   002563 710000 20                 TRA     s:17676

      550    17492
      551    17493    4                  CASE(%TYD);

      552    17494    4                    CALL DEC_OVERP_INST (%MPO, %MPD);

  17494 20 001447   000052 236000 21                 LDQ     42
        20 001450   200102 756100                    STQ     @LOP$+1,,AUTO
        20 001451   000053 236000 21                 LDQ     43
        20 001452   200101 756100                    STQ     I+3,,AUTO
        20 001453   000003 701000 20                 TSX1    DEC_OVERP_INST
        20 001454   000000 011000                    NOP     0
        20 001455   002563 710000 20                 TRA     s:17676

      553    17495
      554    17496    4                  CASE(%TYR);

      555    17497    4                    CALL Z8AF$FORME_ON_SIZE(%MPR, LOP$$->LX_ETT_ITEM.ETT$, ROP$$->
             17497                             LX_ETT_ITEM.ETT$, ETT$$, ON_SIZE);

  17497 20 001456   200037 631500                    EPPR1   ON_SIZE,,AUTO
        20 001457   200114 451500                    STP1    ROP_ST$+8,,AUTO
        20 001460   200033 633500                    EPPR3   ETT$$,,AUTO
        20 001461   200113 453500                    STP3    ROP_ST$+7,,AUTO
        20 001462   200032 236100                    LDQ     ROP$$,,AUTO
        20 001463   000001 036003                    ADLQ    1,DU
        20 001464   200112 756100                    STQ     ROP_ST$+6,,AUTO
        20 001465   200027 236100                    LDQ     LOP$$,,AUTO
        20 001466   000001 036003                    ADLQ    1,DU
        20 001467   000055 235000 21                 LDA     45
PL6.E3A0      #001=Z8E5$ARITHMETIC_OPERATIONS File=Z8E5.:Z8A6TSI                 SAT 08/09/97 11:33 Page:95
        20 001470   200110 757100                    STAQ    ROP_ST$+4,,AUTO
        20 001471   200110 630500                    EPPR0   ROP_ST$+4,,AUTO
        20 001472   000000 631400 21                 EPPR1   0
        20 001473   000000 701000 xent               TSX1    Z8AF$FORME_ON_SIZE
        20 001474   000000 011000                    NOP     0
        20 001475   002563 710000 20                 TRA     s:17676

      556    17498
      557    17499    4                  CASE(%TYQ);

      558    17500    4                    CALL Z8AF$FORME_ON_SIZE(%MPQ, LOP$$->LX_ETT_ITEM.ETT$, ROP$$->
             17500                             LX_ETT_ITEM.ETT$, ETT$$, ON_SIZE);

  17500 20 001476   200037 631500                    EPPR1   ON_SIZE,,AUTO
        20 001477   200114 451500                    STP1    ROP_ST$+8,,AUTO
        20 001500   200033 633500                    EPPR3   ETT$$,,AUTO
        20 001501   200113 453500                    STP3    ROP_ST$+7,,AUTO
        20 001502   200032 236100                    LDQ     ROP$$,,AUTO
        20 001503   000001 036003                    ADLQ    1,DU
        20 001504   200112 756100                    STQ     ROP_ST$+6,,AUTO
        20 001505   200027 236100                    LDQ     LOP$$,,AUTO
        20 001506   000001 036003                    ADLQ    1,DU
        20 001507   000057 235000 21                 LDA     47
        20 001510   200110 757100                    STAQ    ROP_ST$+4,,AUTO
        20 001511   200110 630500                    EPPR0   ROP_ST$+4,,AUTO
        20 001512   000000 631400 21                 EPPR1   0
        20 001513   000000 701000 xent               TSX1    Z8AF$FORME_ON_SIZE
        20 001514   000000 011000                    NOP     0
        20 001515   002563 710000 20                 TRA     s:17676

      559    17501
      560    17502    4                  CASE(%TYO, %TYF);

      561    17503    4                    CALL OVERP_DEC_INST (%MPO, %MPD);

  17503 20 001516   000052 236000 21                 LDQ     42
        20 001517   200102 756100                    STQ     @LOP$+1,,AUTO
PL6.E3A0      #001=Z8E5$ARITHMETIC_OPERATIONS File=Z8E5.:Z8A6TSI                 SAT 08/09/97 11:33 Page:96
        20 001520   000053 236000 21                 LDQ     43
        20 001521   200101 756100                    STQ     I+3,,AUTO
        20 001522   000111 701000 20                 TSX1    OVERP_DEC_INST
        20 001523   000000 011000                    NOP     0
        20 001524   002563 710000 20                 TRA     s:17676

      562    17504
      563    17505    4                  CASE(ELSE);

      564    17506    4                    CALL Z8AE$ERROR(%E$UNEXPECTED_CASE,

  17506 20 001525   200032 236100                    LDQ     ROP$$,,AUTO
        20 001526   000006 036003                    ADLQ    6,DU
        20 001527   200112 756100                    STQ     ROP_ST$+6,,AUTO
        20 001530   200032 236100                    LDQ     ROP$$,,AUTO
        20 001531   000005 036003                    ADLQ    5,DU
        20 001532   000025 235000 21                 LDA     21
        20 001533   200110 757100                    STAQ    ROP_ST$+4,,AUTO
        20 001534   200110 630500                    EPPR0   ROP_ST$+4,,AUTO
        20 001535   000004 631400 21                 EPPR1   4
        20 001536   000000 701000 xent               TSX1    Z8AE$ERROR
        20 001537   000000 011000                    NOP     0

      565    17507    4                                    ROP$$ -> LX_ETT_ITEM.LINE,
      566    17508    4                                    ROP$$ -> LX_ETT_ITEM.COLUMN);
      567    17509    4                  ETT$$ = LOP$$ -> LX_ETT_ITEM.ETT$;

  17509 20 001540   200027 470500                    LDP0    LOP$$,,AUTO
        20 001541   000001 236100                    LDQ     1,,PR0
        20 001542   200033 756100                    STQ     ETT$$,,AUTO

      568    17510    4                END /*V* CASE */;

  17510 20 001543   002563 710000 20                 TRA     s:17676

      569    17511
      570    17512
PL6.E3A0      #001=Z8E5$ARITHMETIC_OPERATIONS File=Z8E5.:Z8A6TSI                 SAT 08/09/97 11:33 Page:97
      571    17513        %EJECT;
PL6.E3A0      #001=Z8E5$ARITHMETIC_OPERATIONS File=Z8E5.:Z8A6TSI                 SAT 08/09/97 11:33 Page:98
      572    17514    3              CASE(%OP_SLASH);

      573    17515
      574    17516    3                IF ON_SIZE THEN

  17516 20 001544   200037 234100                    SZN     ON_SIZE,,AUTO
        20 001545   001612 605000 20                 TPL     s:17532

      575    17517    4                  DO;

      576    17518    4                    ZIP$ = ADDR(TEMP_LX_ITEM);

  17518 20 001546   200066 633500                    EPPR3   TEMP_LX_ITEM,,AUTO
        20 001547   200035 453500                    STP3    ZIP$,,AUTO

      577    17519
      578    17520    4                    CALL Z8AC$LX_ETT_ITEM_TYI_CONST (0, ZIP$);

  17520 20 001550   200035 631500                    EPPR1   ZIP$,,AUTO
        20 001551   200111 451500                    STP1    ROP_ST$+5,,AUTO
        20 001552   000003 236000 21                 LDQ     3
        20 001553   200110 756100                    STQ     ROP_ST$+4,,AUTO
        20 001554   200110 630500                    EPPR0   ROP_ST$+4,,AUTO
        20 001555   000005 631400 21                 EPPR1   5
        20 001556   000000 701000 xent               TSX1    Z8AC$LX_ETT_ITEM_TYI_CONST
        20 001557   000000 011000                    NOP     0

      579    17521
      580    17522    4                    CALL Z8EK$COMPARE (ROP$$,

  17522 20 001560   200034 630500                    EPPR0   COMP$,,AUTO
        20 001561   200113 450500                    STP0    ROP_ST$+7,,AUTO
        20 001562   200035 631500                    EPPR1   ZIP$,,AUTO
        20 001563   200112 451500                    STP1    ROP_ST$+6,,AUTO
        20 001564   000061 236000 21                 LDQ     49
        20 001565   200111 756100                    STQ     ROP_ST$+5,,AUTO
        20 001566   200032 633500                    EPPR3   ROP$$,,AUTO
PL6.E3A0      #001=Z8E5$ARITHMETIC_OPERATIONS File=Z8E5.:Z8A6TSI                 SAT 08/09/97 11:33 Page:99
        20 001567   200110 453500                    STP3    ROP_ST$+4,,AUTO
        20 001570   200110 630500                    EPPR0   ROP_ST$+4,,AUTO
        20 001571   000001 631400 21                 EPPR1   1
        20 001572   000000 701000 xent               TSX1    Z8EK$COMPARE
        20 001573   000000 011000                    NOP     0

      581    17523    4                                       %OP_EQUAL,
      582    17524    4                                       ZIP$,
      583    17525    4                                       COMP$);
      584    17526
      585    17527    4                    CALL Z8EK$BRANCH_TRUE (LABEL$, COMP$);

  17527 20 001574   200034 630500                    EPPR0   COMP$,,AUTO
        20 001575   200111 450500                    STP0    ROP_ST$+5,,AUTO
        20 001576   200005 236100                    LDQ     @LABEL$,,AUTO
        20 001577   200110 756100                    STQ     ROP_ST$+4,,AUTO
        20 001600   200110 630500                    EPPR0   ROP_ST$+4,,AUTO
        20 001601   000005 631400 21                 EPPR1   5
        20 001602   000000 701000 xent               TSX1    Z8EK$BRANCH_TRUE
        20 001603   000000 011000                    NOP     0

      586    17528
      587    17529    4                    CALL Z8ED$DISPOSE_ABSSYN_TREE (COMP$);

  17529 20 001604   200034 630500                    EPPR0   COMP$,,AUTO
        20 001605   200110 450500                    STP0    ROP_ST$+4,,AUTO
        20 001606   200110 630500                    EPPR0   ROP_ST$+4,,AUTO
        20 001607   000040 631400 21                 EPPR1   32
        20 001610   000000 701000 xent               TSX1    Z8ED$DISPOSE_ABSSYN_TREE
        20 001611   000000 011000                    NOP     0

      588    17530    4                  END;

      589    17531
      590    17532    3                CALL Z8EV$COMPATIBLE_TYPES_ON_SIZE(LOP$$, ROP$$, ARITHMETIC_MATRIX,
             17532                         ON_SIZE)

PL6.E3A0      #001=Z8E5$ARITHMETIC_OPERATIONS File=Z8E5.:Z8A6TSI                 SAT 08/09/97 11:33 Page:100
  17532 20 001612   200037 630500                    EPPR0   ON_SIZE,,AUTO
        20 001613   200113 450500                    STP0    ROP_ST$+7,,AUTO
        20 001614   000011 236000 21                 LDQ     9
        20 001615   200112 756100                    STQ     ROP_ST$+6,,AUTO
        20 001616   200032 631500                    EPPR1   ROP$$,,AUTO
        20 001617   200111 451500                    STP1    ROP_ST$+5,,AUTO
        20 001620   200027 633500                    EPPR3   LOP$$,,AUTO
        20 001621   200110 453500                    STP3    ROP_ST$+4,,AUTO
        20 001622   200110 630500                    EPPR0   ROP_ST$+4,,AUTO
        20 001623   000001 631400 21                 EPPR1   1
        20 001624   000000 701000 xent               TSX1    Z8EV$COMPATIBLE_TYPES_ON_SIZE
        20 001625   001627 702000 20                 TSX2    s:17535
        20 001626   001636 710000 20                 TRA     s:17540

      591    17533    3                  WHENALTRETURN
      592    17534    4                    DO;

      593    17535    4                      CALL ERROR_AND_RECOVERY (NODE$, RETURN$);

  17535 20 001627   200004 236100                    LDQ     @RETURN$,,AUTO
        20 001630   200102 756100                    STQ     @LOP$+1,,AUTO
        20 001631   200003 236100                    LDQ     @NODE$,,AUTO
        20 001632   200101 756100                    STQ     I+3,,AUTO
        20 001633   002727 701000 20                 TSX1    ERROR_AND_RECOVERY
        20 001634   000000 011000                    NOP     0

      594    17536
      595    17537    4                      RETURN;

  17537 20 001635   000000 702200 xent               TSX2  ! X66_ARET

      596    17538    4                    END;
      597    17539
      598    17540    4                DO CASE(ROP$$->LX_ITEM.TYPE);

  17540 20 001636   200032 470500                    LDP0    ROP$$,,AUTO
        20 001637   000004 235100                    LDA     4,,PR0
PL6.E3A0      #001=Z8E5$ARITHMETIC_OPERATIONS File=Z8E5.:Z8A6TSI                 SAT 08/09/97 11:33 Page:101
        20 001640   000014 115007                    CMPA    12,DL
        20 001641   001643 602005 20                 TNC     s:17540+5,AL
        20 001642   002005 710000 20                 TRA     s:17560
        20 001643   001727 710000 20                 TRA     s:17548
        20 001644   001657 710000 20                 TRA     s:17542
        20 001645   002005 710000 20                 TRA     s:17560
        20 001646   001776 710000 20                 TRA     s:17557
        20 001647   001736 710000 20                 TRA     s:17551
        20 001650   001756 710000 20                 TRA     s:17554
        20 001651   002005 710000 20                 TRA     s:17560
        20 001652   002005 710000 20                 TRA     s:17560
        20 001653   002005 710000 20                 TRA     s:17560
        20 001654   002005 710000 20                 TRA     s:17560
        20 001655   002005 710000 20                 TRA     s:17560
        20 001656   001776 710000 20                 TRA     s:17557

      599    17541    4                  CASE(%TYI);

      600    17542    4                    CALL Z8EV$CONVERT_ON_SIZE(%TYD, LOP$$, LOP$$, ON_SIZE);

  17542 20 001657   200037 631500                    EPPR1   ON_SIZE,,AUTO
        20 001660   200113 451500                    STP1    ROP_ST$+7,,AUTO
        20 001661   200027 633500                    EPPR3   LOP$$,,AUTO
        20 001662   200112 453500                    STP3    ROP_ST$+6,,AUTO
        20 001663   200027 634500                    EPPR4   LOP$$,,AUTO
        20 001664   200111 454500                    STP4    ROP_ST$+5,,AUTO
        20 001665   000003 236000 21                 LDQ     3
        20 001666   200110 756100                    STQ     ROP_ST$+4,,AUTO
        20 001667   200110 630500                    EPPR0   ROP_ST$+4,,AUTO
        20 001670   000001 631400 21                 EPPR1   1
        20 001671   000000 701000 xent               TSX1    Z8EV$CONVERT_ON_SIZE
        20 001672   000000 011000                    NOP     0

      601    17543    4                    CALL Z8EV$CONVERT_ON_SIZE(%TYD, ROP$$, ROP$$, ON_SIZE);

  17543 20 001673   200037 630500                    EPPR0   ON_SIZE,,AUTO
        20 001674   200113 450500                    STP0    ROP_ST$+7,,AUTO
PL6.E3A0      #001=Z8E5$ARITHMETIC_OPERATIONS File=Z8E5.:Z8A6TSI                 SAT 08/09/97 11:33 Page:102
        20 001675   200032 631500                    EPPR1   ROP$$,,AUTO
        20 001676   200112 451500                    STP1    ROP_ST$+6,,AUTO
        20 001677   200032 633500                    EPPR3   ROP$$,,AUTO
        20 001700   200111 453500                    STP3    ROP_ST$+5,,AUTO
        20 001701   000003 236000 21                 LDQ     3
        20 001702   200110 756100                    STQ     ROP_ST$+4,,AUTO
        20 001703   200110 630500                    EPPR0   ROP_ST$+4,,AUTO
        20 001704   000001 631400 21                 EPPR1   1
        20 001705   000000 701000 xent               TSX1    Z8EV$CONVERT_ON_SIZE
        20 001706   000000 011000                    NOP     0

      602    17544
      603    17545    4                    CALL Z8AF$FORME_ON_SIZE(%DVDR, LOP$$->LX_ETT_ITEM.ETT$, ROP$$->
             17545                             LX_ETT_ITEM.ETT$, ETT$$, ON_SIZE);

  17545 20 001707   200037 630500                    EPPR0   ON_SIZE,,AUTO
        20 001710   200114 450500                    STP0    ROP_ST$+8,,AUTO
        20 001711   200033 631500                    EPPR1   ETT$$,,AUTO
        20 001712   200113 451500                    STP1    ROP_ST$+7,,AUTO
        20 001713   200032 236100                    LDQ     ROP$$,,AUTO
        20 001714   000001 036003                    ADLQ    1,DU
        20 001715   200112 756100                    STQ     ROP_ST$+6,,AUTO
        20 001716   200027 236100                    LDQ     LOP$$,,AUTO
        20 001717   000001 036003                    ADLQ    1,DU
        20 001720   000063 235000 21                 LDA     51
        20 001721   200110 757100                    STAQ    ROP_ST$+4,,AUTO
        20 001722   200110 630500                    EPPR0   ROP_ST$+4,,AUTO
        20 001723   000000 631400 21                 EPPR1   0
        20 001724   000000 701000 xent               TSX1    Z8AF$FORME_ON_SIZE
        20 001725   000000 011000                    NOP     0
        20 001726   002563 710000 20                 TRA     s:17676

      604    17546
      605    17547    4                  CASE(%TYD);

      606    17548    4                    CALL DEC_OVERP_INST (%DVOR, %DVDR);

PL6.E3A0      #001=Z8E5$ARITHMETIC_OPERATIONS File=Z8E5.:Z8A6TSI                 SAT 08/09/97 11:33 Page:103
  17548 20 001727   000063 236000 21                 LDQ     51
        20 001730   200102 756100                    STQ     @LOP$+1,,AUTO
        20 001731   000065 236000 21                 LDQ     53
        20 001732   200101 756100                    STQ     I+3,,AUTO
        20 001733   000003 701000 20                 TSX1    DEC_OVERP_INST
        20 001734   000000 011000                    NOP     0
        20 001735   002563 710000 20                 TRA     s:17676

      607    17549
      608    17550    4                  CASE(%TYR);

      609    17551    4                    CALL Z8AF$FORME_ON_SIZE(%DVR, LOP$$->LX_ETT_ITEM.ETT$, ROP$$->
             17551                             LX_ETT_ITEM.ETT$, ETT$$, ON_SIZE);

  17551 20 001736   200037 631500                    EPPR1   ON_SIZE,,AUTO
        20 001737   200114 451500                    STP1    ROP_ST$+8,,AUTO
        20 001740   200033 633500                    EPPR3   ETT$$,,AUTO
        20 001741   200113 453500                    STP3    ROP_ST$+7,,AUTO
        20 001742   200032 236100                    LDQ     ROP$$,,AUTO
        20 001743   000001 036003                    ADLQ    1,DU
        20 001744   200112 756100                    STQ     ROP_ST$+6,,AUTO
        20 001745   200027 236100                    LDQ     LOP$$,,AUTO
        20 001746   000001 036003                    ADLQ    1,DU
        20 001747   000067 235000 21                 LDA     55
        20 001750   200110 757100                    STAQ    ROP_ST$+4,,AUTO
        20 001751   200110 630500                    EPPR0   ROP_ST$+4,,AUTO
        20 001752   000000 631400 21                 EPPR1   0
        20 001753   000000 701000 xent               TSX1    Z8AF$FORME_ON_SIZE
        20 001754   000000 011000                    NOP     0
        20 001755   002563 710000 20                 TRA     s:17676

      610    17552
      611    17553    4                  CASE(%TYQ);

      612    17554    4                    CALL Z8AF$FORME_ON_SIZE(%DVQ, LOP$$->LX_ETT_ITEM.ETT$, ROP$$->
             17554                             LX_ETT_ITEM.ETT$, ETT$$, ON_SIZE);

PL6.E3A0      #001=Z8E5$ARITHMETIC_OPERATIONS File=Z8E5.:Z8A6TSI                 SAT 08/09/97 11:33 Page:104
  17554 20 001756   200037 631500                    EPPR1   ON_SIZE,,AUTO
        20 001757   200114 451500                    STP1    ROP_ST$+8,,AUTO
        20 001760   200033 633500                    EPPR3   ETT$$,,AUTO
        20 001761   200113 453500                    STP3    ROP_ST$+7,,AUTO
        20 001762   200032 236100                    LDQ     ROP$$,,AUTO
        20 001763   000001 036003                    ADLQ    1,DU
        20 001764   200112 756100                    STQ     ROP_ST$+6,,AUTO
        20 001765   200027 236100                    LDQ     LOP$$,,AUTO
        20 001766   000001 036003                    ADLQ    1,DU
        20 001767   000071 235000 21                 LDA     57
        20 001770   200110 757100                    STAQ    ROP_ST$+4,,AUTO
        20 001771   200110 630500                    EPPR0   ROP_ST$+4,,AUTO
        20 001772   000000 631400 21                 EPPR1   0
        20 001773   000000 701000 xent               TSX1    Z8AF$FORME_ON_SIZE
        20 001774   000000 011000                    NOP     0
        20 001775   002563 710000 20                 TRA     s:17676

      613    17555
      614    17556    4                  CASE(%TYO, %TYF);

      615    17557    4                    CALL OVERP_DEC_INST (%DVOR, %DVDR);

  17557 20 001776   000063 236000 21                 LDQ     51
        20 001777   200102 756100                    STQ     @LOP$+1,,AUTO
        20 002000   000065 236000 21                 LDQ     53
        20 002001   200101 756100                    STQ     I+3,,AUTO
        20 002002   000111 701000 20                 TSX1    OVERP_DEC_INST
        20 002003   000000 011000                    NOP     0
        20 002004   002563 710000 20                 TRA     s:17676

      616    17558
      617    17559    4                  CASE(ELSE);

      618    17560    4                    CALL Z8AE$ERROR(%E$UNEXPECTED_CASE,

  17560 20 002005   200032 236100                    LDQ     ROP$$,,AUTO
        20 002006   000006 036003                    ADLQ    6,DU
PL6.E3A0      #001=Z8E5$ARITHMETIC_OPERATIONS File=Z8E5.:Z8A6TSI                 SAT 08/09/97 11:33 Page:105
        20 002007   200112 756100                    STQ     ROP_ST$+6,,AUTO
        20 002010   200032 236100                    LDQ     ROP$$,,AUTO
        20 002011   000005 036003                    ADLQ    5,DU
        20 002012   000025 235000 21                 LDA     21
        20 002013   200110 757100                    STAQ    ROP_ST$+4,,AUTO
        20 002014   200110 630500                    EPPR0   ROP_ST$+4,,AUTO
        20 002015   000004 631400 21                 EPPR1   4
        20 002016   000000 701000 xent               TSX1    Z8AE$ERROR
        20 002017   000000 011000                    NOP     0

      619    17561    4                                    ROP$$ -> LX_ETT_ITEM.LINE,
      620    17562    4                                    ROP$$ -> LX_ETT_ITEM.COLUMN);
      621    17563    4                  ETT$$ = LOP$$ -> LX_ETT_ITEM.ETT$;

  17563 20 002020   200027 470500                    LDP0    LOP$$,,AUTO
        20 002021   000001 236100                    LDQ     1,,PR0
        20 002022   200033 756100                    STQ     ETT$$,,AUTO

      622    17564    4                END /*V* CASE */;

  17564 20 002023   002563 710000 20                 TRA     s:17676

      623    17565
      624    17566        %EJECT;
PL6.E3A0      #001=Z8E5$ARITHMETIC_OPERATIONS File=Z8E5.:Z8A6TSI                 SAT 08/09/97 11:33 Page:106
      625    17567    3              CASE(%OP_STAR_STAR);

      626    17568    3                CALL Z8EV$COMPATIBLE_TYPES_ON_SIZE(LOP$$, ROP$$, EXPONENT_MATRIX,
             17568                         ON_SIZE)

  17568 20 002024   200037 633500                    EPPR3   ON_SIZE,,AUTO
        20 002025   200113 453500                    STP3    ROP_ST$+7,,AUTO
        20 002026   000072 236000 21                 LDQ     58
        20 002027   200112 756100                    STQ     ROP_ST$+6,,AUTO
        20 002030   200032 631500                    EPPR1   ROP$$,,AUTO
        20 002031   200111 451500                    STP1    ROP_ST$+5,,AUTO
        20 002032   200027 634500                    EPPR4   LOP$$,,AUTO
        20 002033   200110 454500                    STP4    ROP_ST$+4,,AUTO
        20 002034   200110 630500                    EPPR0   ROP_ST$+4,,AUTO
        20 002035   000001 631400 21                 EPPR1   1
        20 002036   000000 701000 xent               TSX1    Z8EV$COMPATIBLE_TYPES_ON_SIZE
        20 002037   002041 702000 20                 TSX2    s:17571
        20 002040   002050 710000 20                 TRA     s:17576

      627    17569    3                  WHENALTRETURN
      628    17570    4                    DO;

      629    17571    4                      CALL ERROR_AND_RECOVERY (NODE$, RETURN$);

  17571 20 002041   200004 236100                    LDQ     @RETURN$,,AUTO
        20 002042   200102 756100                    STQ     @LOP$+1,,AUTO
        20 002043   200003 236100                    LDQ     @NODE$,,AUTO
        20 002044   200101 756100                    STQ     I+3,,AUTO
        20 002045   002727 701000 20                 TSX1    ERROR_AND_RECOVERY
        20 002046   000000 011000                    NOP     0

      630    17572
      631    17573    4                      RETURN;

  17573 20 002047   000000 702200 xent               TSX2  ! X66_ARET

      632    17574    4                    END;
PL6.E3A0      #001=Z8E5$ARITHMETIC_OPERATIONS File=Z8E5.:Z8A6TSI                 SAT 08/09/97 11:33 Page:107
      633    17575
      634    17576    4                DO CASE (ROP$$->LX_ITEM.TYPE);

  17576 20 002050   200032 470500                    LDP0    ROP$$,,AUTO
        20 002051   000004 235100                    LDA     4,,PR0
        20 002052   000006 115007                    CMPA    6,DL
        20 002053   002055 602005 20                 TNC     s:17576+5,AL
        20 002054   002311 710000 20                 TRA     s:17610
        20 002055   002231 710000 20                 TRA     s:17601
        20 002056   002063 710000 20                 TRA     s:17578
        20 002057   002311 710000 20                 TRA     s:17610
        20 002060   002311 710000 20                 TRA     s:17610
        20 002061   002251 710000 20                 TRA     s:17604
        20 002062   002271 710000 20                 TRA     s:17607

      635    17577    4                  CASE (%TYI);

      636    17578    5                    DO CASE (LOP$$->LX_ITEM.TYPE);

  17578 20 002063   200027 471500                    LDP1    LOP$$,,AUTO
        20 002064   100004 235100                    LDA     4,,PR1
        20 002065   000006 115007                    CMPA    6,DL
        20 002066   002070 602005 20                 TNC     s:17578+5,AL
        20 002067   002212 710000 20                 TRA     s:17594
        20 002070   002132 710000 20                 TRA     s:17585
        20 002071   002076 710000 20                 TRA     s:17580
        20 002072   002212 710000 20                 TRA     s:17594
        20 002073   002212 710000 20                 TRA     s:17594
        20 002074   002172 710000 20                 TRA     s:17591
        20 002075   002152 710000 20                 TRA     s:17588

      637    17579    5                      CASE (%TYI);

      638    17580    5                        CALL Z8EV$CONVERT_ON_SIZE(%TYD, LOP$$, LOP$$, ON_SIZE);

  17580 20 002076   200037 633500                    EPPR3   ON_SIZE,,AUTO
        20 002077   200113 453500                    STP3    ROP_ST$+7,,AUTO
PL6.E3A0      #001=Z8E5$ARITHMETIC_OPERATIONS File=Z8E5.:Z8A6TSI                 SAT 08/09/97 11:33 Page:108
        20 002100   200027 634500                    EPPR4   LOP$$,,AUTO
        20 002101   200112 454500                    STP4    ROP_ST$+6,,AUTO
        20 002102   200027 635500                    EPPR5   LOP$$,,AUTO
        20 002103   200111 455500                    STP5    ROP_ST$+5,,AUTO
        20 002104   000003 236000 21                 LDQ     3
        20 002105   200110 756100                    STQ     ROP_ST$+4,,AUTO
        20 002106   200110 630500                    EPPR0   ROP_ST$+4,,AUTO
        20 002107   000001 631400 21                 EPPR1   1
        20 002110   000000 701000 xent               TSX1    Z8EV$CONVERT_ON_SIZE
        20 002111   000000 011000                    NOP     0

      639    17581
      640    17582    5                       CALL Z8AF$FORME_ON_SIZE(%EXDI, LOP$$->LX_ETT_ITEM.ETT$, ROP$$->
             17582                                 LX_ETT_ITEM.ETT$, ETT$$, ON_SIZE);

  17582 20 002112   200037 630500                    EPPR0   ON_SIZE,,AUTO
        20 002113   200114 450500                    STP0    ROP_ST$+8,,AUTO
        20 002114   200033 631500                    EPPR1   ETT$$,,AUTO
        20 002115   200113 451500                    STP1    ROP_ST$+7,,AUTO
        20 002116   200032 236100                    LDQ     ROP$$,,AUTO
        20 002117   000001 036003                    ADLQ    1,DU
        20 002120   200112 756100                    STQ     ROP_ST$+6,,AUTO
        20 002121   200027 236100                    LDQ     LOP$$,,AUTO
        20 002122   000001 036003                    ADLQ    1,DU
        20 002123   000074 235000 21                 LDA     60
        20 002124   200110 757100                    STAQ    ROP_ST$+4,,AUTO
        20 002125   200110 630500                    EPPR0   ROP_ST$+4,,AUTO
        20 002126   000000 631400 21                 EPPR1   0
        20 002127   000000 701000 xent               TSX1    Z8AF$FORME_ON_SIZE
        20 002130   000000 011000                    NOP     0
        20 002131   002563 710000 20                 TRA     s:17676

      641    17583
      642    17584    5                      CASE (%TYD);

      643    17585    5                       CALL Z8AF$FORME_ON_SIZE(%EXDI, LOP$$->LX_ETT_ITEM.ETT$, ROP$$->
             17585                                 LX_ETT_ITEM.ETT$, ETT$$, ON_SIZE);
PL6.E3A0      #001=Z8E5$ARITHMETIC_OPERATIONS File=Z8E5.:Z8A6TSI                 SAT 08/09/97 11:33 Page:109

  17585 20 002132   200037 633500                    EPPR3   ON_SIZE,,AUTO
        20 002133   200114 453500                    STP3    ROP_ST$+8,,AUTO
        20 002134   200033 634500                    EPPR4   ETT$$,,AUTO
        20 002135   200113 454500                    STP4    ROP_ST$+7,,AUTO
        20 002136   200032 236100                    LDQ     ROP$$,,AUTO
        20 002137   000001 036003                    ADLQ    1,DU
        20 002140   200112 756100                    STQ     ROP_ST$+6,,AUTO
        20 002141   200027 236100                    LDQ     LOP$$,,AUTO
        20 002142   000001 036003                    ADLQ    1,DU
        20 002143   000074 235000 21                 LDA     60
        20 002144   200110 757100                    STAQ    ROP_ST$+4,,AUTO
        20 002145   200110 630500                    EPPR0   ROP_ST$+4,,AUTO
        20 002146   000000 631400 21                 EPPR1   0
        20 002147   000000 701000 xent               TSX1    Z8AF$FORME_ON_SIZE
        20 002150   000000 011000                    NOP     0
        20 002151   002563 710000 20                 TRA     s:17676

      644    17586
      645    17587    5                      CASE (%TYQ);

      646    17588    5                       CALL Z8AF$FORME_ON_SIZE(%EXQI, LOP$$->LX_ETT_ITEM.ETT$, ROP$$->
             17588                                 LX_ETT_ITEM.ETT$, ETT$$, ON_SIZE);

  17588 20 002152   200037 633500                    EPPR3   ON_SIZE,,AUTO
        20 002153   200114 453500                    STP3    ROP_ST$+8,,AUTO
        20 002154   200033 634500                    EPPR4   ETT$$,,AUTO
        20 002155   200113 454500                    STP4    ROP_ST$+7,,AUTO
        20 002156   200032 236100                    LDQ     ROP$$,,AUTO
        20 002157   000001 036003                    ADLQ    1,DU
        20 002160   200112 756100                    STQ     ROP_ST$+6,,AUTO
        20 002161   200027 236100                    LDQ     LOP$$,,AUTO
        20 002162   000001 036003                    ADLQ    1,DU
        20 002163   000076 235000 21                 LDA     62
        20 002164   200110 757100                    STAQ    ROP_ST$+4,,AUTO
        20 002165   200110 630500                    EPPR0   ROP_ST$+4,,AUTO
        20 002166   000000 631400 21                 EPPR1   0
PL6.E3A0      #001=Z8E5$ARITHMETIC_OPERATIONS File=Z8E5.:Z8A6TSI                 SAT 08/09/97 11:33 Page:110
        20 002167   000000 701000 xent               TSX1    Z8AF$FORME_ON_SIZE
        20 002170   000000 011000                    NOP     0
        20 002171   002563 710000 20                 TRA     s:17676

      647    17589
      648    17590    5                      CASE (%TYR);

      649    17591    5                       CALL Z8AF$FORME_ON_SIZE(%EXRI, LOP$$->LX_ETT_ITEM.ETT$, ROP$$->
             17591                                 LX_ETT_ITEM.ETT$, ETT$$, ON_SIZE);

  17591 20 002172   200037 633500                    EPPR3   ON_SIZE,,AUTO
        20 002173   200114 453500                    STP3    ROP_ST$+8,,AUTO
        20 002174   200033 634500                    EPPR4   ETT$$,,AUTO
        20 002175   200113 454500                    STP4    ROP_ST$+7,,AUTO
        20 002176   200032 236100                    LDQ     ROP$$,,AUTO
        20 002177   000001 036003                    ADLQ    1,DU
        20 002200   200112 756100                    STQ     ROP_ST$+6,,AUTO
        20 002201   200027 236100                    LDQ     LOP$$,,AUTO
        20 002202   000001 036003                    ADLQ    1,DU
        20 002203   000100 235000 21                 LDA     64
        20 002204   200110 757100                    STAQ    ROP_ST$+4,,AUTO
        20 002205   200110 630500                    EPPR0   ROP_ST$+4,,AUTO
        20 002206   000000 631400 21                 EPPR1   0
        20 002207   000000 701000 xent               TSX1    Z8AF$FORME_ON_SIZE
        20 002210   000000 011000                    NOP     0
        20 002211   002563 710000 20                 TRA     s:17676

      650    17592
      651    17593    5                      CASE(ELSE);

      652    17594    5                        CALL Z8AE$ERROR(%E$UNEXPECTED_CASE,

  17594 20 002212   200027 236100                    LDQ     LOP$$,,AUTO
        20 002213   000006 036003                    ADLQ    6,DU
        20 002214   200112 756100                    STQ     ROP_ST$+6,,AUTO
        20 002215   200027 236100                    LDQ     LOP$$,,AUTO
        20 002216   000005 036003                    ADLQ    5,DU
PL6.E3A0      #001=Z8E5$ARITHMETIC_OPERATIONS File=Z8E5.:Z8A6TSI                 SAT 08/09/97 11:33 Page:111
        20 002217   000025 235000 21                 LDA     21
        20 002220   200110 757100                    STAQ    ROP_ST$+4,,AUTO
        20 002221   200110 630500                    EPPR0   ROP_ST$+4,,AUTO
        20 002222   000004 631400 21                 EPPR1   4
        20 002223   000000 701000 xent               TSX1    Z8AE$ERROR
        20 002224   000000 011000                    NOP     0

      653    17595    5                                        LOP$$ -> LX_ITEM.LINE,
      654    17596    5                                        LOP$$ -> LX_ITEM.COLUMN);
      655    17597    5                      ETT$$ = LOP$$ -> LX_ETT_ITEM.ETT$;

  17597 20 002225   200027 470500                    LDP0    LOP$$,,AUTO
        20 002226   000001 236100                    LDQ     1,,PR0
        20 002227   200033 756100                    STQ     ETT$$,,AUTO

      656    17598    5                    END;

  17598 20 002230   002563 710000 20                 TRA     s:17676

      657    17599
      658    17600    4                  CASE (%TYD);

      659    17601    4                    CALL Z8AF$FORME_ON_SIZE(%EXDD, LOP$$->LX_ETT_ITEM.ETT$, ROP$$->
             17601                             LX_ETT_ITEM.ETT$, ETT$$, ON_SIZE);

  17601 20 002231   200037 631500                    EPPR1   ON_SIZE,,AUTO
        20 002232   200114 451500                    STP1    ROP_ST$+8,,AUTO
        20 002233   200033 633500                    EPPR3   ETT$$,,AUTO
        20 002234   200113 453500                    STP3    ROP_ST$+7,,AUTO
        20 002235   200032 236100                    LDQ     ROP$$,,AUTO
        20 002236   000001 036003                    ADLQ    1,DU
        20 002237   200112 756100                    STQ     ROP_ST$+6,,AUTO
        20 002240   200027 236100                    LDQ     LOP$$,,AUTO
        20 002241   000001 036003                    ADLQ    1,DU
        20 002242   000102 235000 21                 LDA     66
        20 002243   200110 757100                    STAQ    ROP_ST$+4,,AUTO
        20 002244   200110 630500                    EPPR0   ROP_ST$+4,,AUTO
PL6.E3A0      #001=Z8E5$ARITHMETIC_OPERATIONS File=Z8E5.:Z8A6TSI                 SAT 08/09/97 11:33 Page:112
        20 002245   000000 631400 21                 EPPR1   0
        20 002246   000000 701000 xent               TSX1    Z8AF$FORME_ON_SIZE
        20 002247   000000 011000                    NOP     0
        20 002250   002563 710000 20                 TRA     s:17676

      660    17602
      661    17603    4                  CASE (%TYR);

      662    17604    4                    CALL Z8AF$FORME_ON_SIZE(%EXRR, LOP$$->LX_ETT_ITEM.ETT$, ROP$$->
             17604                             LX_ETT_ITEM.ETT$, ETT$$, ON_SIZE);

  17604 20 002251   200037 631500                    EPPR1   ON_SIZE,,AUTO
        20 002252   200114 451500                    STP1    ROP_ST$+8,,AUTO
        20 002253   200033 633500                    EPPR3   ETT$$,,AUTO
        20 002254   200113 453500                    STP3    ROP_ST$+7,,AUTO
        20 002255   200032 236100                    LDQ     ROP$$,,AUTO
        20 002256   000001 036003                    ADLQ    1,DU
        20 002257   200112 756100                    STQ     ROP_ST$+6,,AUTO
        20 002260   200027 236100                    LDQ     LOP$$,,AUTO
        20 002261   000001 036003                    ADLQ    1,DU
        20 002262   000104 235000 21                 LDA     68
        20 002263   200110 757100                    STAQ    ROP_ST$+4,,AUTO
        20 002264   200110 630500                    EPPR0   ROP_ST$+4,,AUTO
        20 002265   000000 631400 21                 EPPR1   0
        20 002266   000000 701000 xent               TSX1    Z8AF$FORME_ON_SIZE
        20 002267   000000 011000                    NOP     0
        20 002270   002563 710000 20                 TRA     s:17676

      663    17605
      664    17606    4                  CASE (%TYQ);

      665    17607    4                    CALL Z8AF$FORME_ON_SIZE(%EXQQ, LOP$$->LX_ETT_ITEM.ETT$, ROP$$->
             17607                             LX_ETT_ITEM.ETT$, ETT$$, ON_SIZE);

  17607 20 002271   200037 631500                    EPPR1   ON_SIZE,,AUTO
        20 002272   200114 451500                    STP1    ROP_ST$+8,,AUTO
        20 002273   200033 633500                    EPPR3   ETT$$,,AUTO
PL6.E3A0      #001=Z8E5$ARITHMETIC_OPERATIONS File=Z8E5.:Z8A6TSI                 SAT 08/09/97 11:33 Page:113
        20 002274   200113 453500                    STP3    ROP_ST$+7,,AUTO
        20 002275   200032 236100                    LDQ     ROP$$,,AUTO
        20 002276   000001 036003                    ADLQ    1,DU
        20 002277   200112 756100                    STQ     ROP_ST$+6,,AUTO
        20 002300   200027 236100                    LDQ     LOP$$,,AUTO
        20 002301   000001 036003                    ADLQ    1,DU
        20 002302   000106 235000 21                 LDA     70
        20 002303   200110 757100                    STAQ    ROP_ST$+4,,AUTO
        20 002304   200110 630500                    EPPR0   ROP_ST$+4,,AUTO
        20 002305   000000 631400 21                 EPPR1   0
        20 002306   000000 701000 xent               TSX1    Z8AF$FORME_ON_SIZE
        20 002307   000000 011000                    NOP     0
        20 002310   002563 710000 20                 TRA     s:17676

      666    17608
      667    17609    4                  CASE(ELSE);

      668    17610    4                    CALL Z8AE$ERROR(%E$UNEXPECTED_CASE,

  17610 20 002311   200032 236100                    LDQ     ROP$$,,AUTO
        20 002312   000006 036003                    ADLQ    6,DU
        20 002313   200112 756100                    STQ     ROP_ST$+6,,AUTO
        20 002314   200032 236100                    LDQ     ROP$$,,AUTO
        20 002315   000005 036003                    ADLQ    5,DU
        20 002316   000025 235000 21                 LDA     21
        20 002317   200110 757100                    STAQ    ROP_ST$+4,,AUTO
        20 002320   200110 630500                    EPPR0   ROP_ST$+4,,AUTO
        20 002321   000004 631400 21                 EPPR1   4
        20 002322   000000 701000 xent               TSX1    Z8AE$ERROR
        20 002323   000000 011000                    NOP     0

      669    17611    4                                    ROP$$ -> LX_ITEM.LINE,
      670    17612    4                                    ROP$$ -> LX_ITEM.COLUMN);
      671    17613    4                    ETT$$ = LOP$$ -> LX_ETT_ITEM.ETT$;

  17613 20 002324   200027 470500                    LDP0    LOP$$,,AUTO
        20 002325   000001 236100                    LDQ     1,,PR0
PL6.E3A0      #001=Z8E5$ARITHMETIC_OPERATIONS File=Z8E5.:Z8A6TSI                 SAT 08/09/97 11:33 Page:114
        20 002326   200033 756100                    STQ     ETT$$,,AUTO

      672    17614
      673    17615    4                END /*V* Case */;

  17615 20 002327   002563 710000 20                 TRA     s:17676

      674    17616
      675    17617        %EJECT;
PL6.E3A0      #001=Z8E5$ARITHMETIC_OPERATIONS File=Z8E5.:Z8A6TSI                 SAT 08/09/97 11:33 Page:115
      676    17618    3          CASE(%OP_MINIMUM);

      677    17619    3           CALL Z8EV$COMPATIBLE_TYPES_ON_SIZE(LOP$$, ROP$$, ARITHMETIC_MATRIX, ON_SIZE
             17619                     )

  17619 20 002330   200037 633500                    EPPR3   ON_SIZE,,AUTO
        20 002331   200113 453500                    STP3    ROP_ST$+7,,AUTO
        20 002332   000011 236000 21                 LDQ     9
        20 002333   200112 756100                    STQ     ROP_ST$+6,,AUTO
        20 002334   200032 631500                    EPPR1   ROP$$,,AUTO
        20 002335   200111 451500                    STP1    ROP_ST$+5,,AUTO
        20 002336   200027 634500                    EPPR4   LOP$$,,AUTO
        20 002337   200110 454500                    STP4    ROP_ST$+4,,AUTO
        20 002340   200110 630500                    EPPR0   ROP_ST$+4,,AUTO
        20 002341   000001 631400 21                 EPPR1   1
        20 002342   000000 701000 xent               TSX1    Z8EV$COMPATIBLE_TYPES_ON_SIZE
        20 002343   002345 702000 20                 TSX2    s:17622
        20 002344   002354 710000 20                 TRA     s:17627

      678    17620    3              WHENALTRETURN
      679    17621    4                DO;

      680    17622    4                  CALL ERROR_AND_RECOVERY (NODE$, RETURN$);

  17622 20 002345   200004 236100                    LDQ     @RETURN$,,AUTO
        20 002346   200102 756100                    STQ     @LOP$+1,,AUTO
        20 002347   200003 236100                    LDQ     @NODE$,,AUTO
        20 002350   200101 756100                    STQ     I+3,,AUTO
        20 002351   002727 701000 20                 TSX1    ERROR_AND_RECOVERY
        20 002352   000000 011000                    NOP     0

      681    17623
      682    17624    4                  RETURN;

  17624 20 002353   000000 702200 xent               TSX2  ! X66_ARET

      683    17625    4                END;
PL6.E3A0      #001=Z8E5$ARITHMETIC_OPERATIONS File=Z8E5.:Z8A6TSI                 SAT 08/09/97 11:33 Page:116
      684    17626
      685    17627    4          DO CASE(ROP$$ -> LX_ETT_ITEM.TYPE);

  17627 20 002354   200032 470500                    LDP0    ROP$$,,AUTO
        20 002355   000004 235100                    LDA     4,,PR0
        20 002356   000006 115007                    CMPA    6,DL
        20 002357   002361 602005 20                 TNC     s:17627+5,AL
        20 002360   002465 710000 20                 TRA     s:17653
        20 002361   002407 710000 20                 TRA     s:17635
        20 002362   002367 710000 20                 TRA     s:17629
        20 002363   002465 710000 20                 TRA     s:17653
        20 002364   002456 710000 20                 TRA     s:17650
        20 002365   002416 710000 20                 TRA     s:17638
        20 002366   002436 710000 20                 TRA     s:17644

      686    17628    4            CASE(%TYI);

      687    17629    4              CALL Z8AF$FORME_ON_SIZE(%MINI,

  17629 20 002367   200037 631500                    EPPR1   ON_SIZE,,AUTO
        20 002370   200114 451500                    STP1    ROP_ST$+8,,AUTO
        20 002371   200033 633500                    EPPR3   ETT$$,,AUTO
        20 002372   200113 453500                    STP3    ROP_ST$+7,,AUTO
        20 002373   200032 236100                    LDQ     ROP$$,,AUTO
        20 002374   000001 036003                    ADLQ    1,DU
        20 002375   200112 756100                    STQ     ROP_ST$+6,,AUTO
        20 002376   200027 236100                    LDQ     LOP$$,,AUTO
        20 002377   000001 036003                    ADLQ    1,DU
        20 002400   000110 235000 21                 LDA     72
        20 002401   200110 757100                    STAQ    ROP_ST$+4,,AUTO
        20 002402   200110 630500                    EPPR0   ROP_ST$+4,,AUTO
        20 002403   000000 631400 21                 EPPR1   0
        20 002404   000000 701000 xent               TSX1    Z8AF$FORME_ON_SIZE
        20 002405   000000 011000                    NOP     0
        20 002406   002563 710000 20                 TRA     s:17676

      688    17630    4                              LOP$$ -> LX_ETT_ITEM.ETT$,
PL6.E3A0      #001=Z8E5$ARITHMETIC_OPERATIONS File=Z8E5.:Z8A6TSI                 SAT 08/09/97 11:33 Page:117
      689    17631    4                              ROP$$ -> LX_ETT_ITEM.ETT$,
      690    17632    4                              ETT$$, ON_SIZE);
      691    17633
      692    17634    4            CASE(%TYD);

      693    17635    4              CALL DEC_OVERP_INST (%MINO, %MIND);

  17635 20 002407   000113 236000 21                 LDQ     75
        20 002410   200102 756100                    STQ     @LOP$+1,,AUTO
        20 002411   000114 236000 21                 LDQ     76
        20 002412   200101 756100                    STQ     I+3,,AUTO
        20 002413   000003 701000 20                 TSX1    DEC_OVERP_INST
        20 002414   000000 011000                    NOP     0
        20 002415   002563 710000 20                 TRA     s:17676

      694    17636
      695    17637    4            CASE(%TYR);

      696    17638    4              CALL Z8AF$FORME_ON_SIZE(%MINR,

  17638 20 002416   200037 631500                    EPPR1   ON_SIZE,,AUTO
        20 002417   200114 451500                    STP1    ROP_ST$+8,,AUTO
        20 002420   200033 633500                    EPPR3   ETT$$,,AUTO
        20 002421   200113 453500                    STP3    ROP_ST$+7,,AUTO
        20 002422   200032 236100                    LDQ     ROP$$,,AUTO
        20 002423   000001 036003                    ADLQ    1,DU
        20 002424   200112 756100                    STQ     ROP_ST$+6,,AUTO
        20 002425   200027 236100                    LDQ     LOP$$,,AUTO
        20 002426   000001 036003                    ADLQ    1,DU
        20 002427   000116 235000 21                 LDA     78
        20 002430   200110 757100                    STAQ    ROP_ST$+4,,AUTO
        20 002431   200110 630500                    EPPR0   ROP_ST$+4,,AUTO
        20 002432   000000 631400 21                 EPPR1   0
        20 002433   000000 701000 xent               TSX1    Z8AF$FORME_ON_SIZE
        20 002434   000000 011000                    NOP     0
        20 002435   002563 710000 20                 TRA     s:17676

PL6.E3A0      #001=Z8E5$ARITHMETIC_OPERATIONS File=Z8E5.:Z8A6TSI                 SAT 08/09/97 11:33 Page:118
      697    17639    4                              LOP$$ -> LX_ETT_ITEM.ETT$,
      698    17640    4                              ROP$$ -> LX_ETT_ITEM.ETT$,
      699    17641    4                              ETT$$, ON_SIZE);
      700    17642
      701    17643    4            CASE(%TYQ);

      702    17644    4              CALL Z8AF$FORME_ON_SIZE(%MINQ,

  17644 20 002436   200037 631500                    EPPR1   ON_SIZE,,AUTO
        20 002437   200114 451500                    STP1    ROP_ST$+8,,AUTO
        20 002440   200033 633500                    EPPR3   ETT$$,,AUTO
        20 002441   200113 453500                    STP3    ROP_ST$+7,,AUTO
        20 002442   200032 236100                    LDQ     ROP$$,,AUTO
        20 002443   000001 036003                    ADLQ    1,DU
        20 002444   200112 756100                    STQ     ROP_ST$+6,,AUTO
        20 002445   200027 236100                    LDQ     LOP$$,,AUTO
        20 002446   000001 036003                    ADLQ    1,DU
        20 002447   000120 235000 21                 LDA     80
        20 002450   200110 757100                    STAQ    ROP_ST$+4,,AUTO
        20 002451   200110 630500                    EPPR0   ROP_ST$+4,,AUTO
        20 002452   000000 631400 21                 EPPR1   0
        20 002453   000000 701000 xent               TSX1    Z8AF$FORME_ON_SIZE
        20 002454   000000 011000                    NOP     0
        20 002455   002563 710000 20                 TRA     s:17676

      703    17645    4                              LOP$$ -> LX_ETT_ITEM.ETT$,
      704    17646    4                              ROP$$ -> LX_ETT_ITEM.ETT$,
      705    17647    4                              ETT$$, ON_SIZE);
      706    17648
      707    17649    4            CASE(%TYO);

      708    17650    4              CALL OVERP_DEC_INST (%MINO, %MIND);

  17650 20 002456   000113 236000 21                 LDQ     75
        20 002457   200102 756100                    STQ     @LOP$+1,,AUTO
        20 002460   000114 236000 21                 LDQ     76
        20 002461   200101 756100                    STQ     I+3,,AUTO
PL6.E3A0      #001=Z8E5$ARITHMETIC_OPERATIONS File=Z8E5.:Z8A6TSI                 SAT 08/09/97 11:33 Page:119
        20 002462   000111 701000 20                 TSX1    OVERP_DEC_INST
        20 002463   000000 011000                    NOP     0
        20 002464   002563 710000 20                 TRA     s:17676

      709    17651
      710    17652    4            CASE(ELSE);

      711    17653    4              CALL Z8AE$ERROR(%E$UNEXPECTED_CASE,

  17653 20 002465   200032 236100                    LDQ     ROP$$,,AUTO
        20 002466   000006 036003                    ADLQ    6,DU
        20 002467   200112 756100                    STQ     ROP_ST$+6,,AUTO
        20 002470   200032 236100                    LDQ     ROP$$,,AUTO
        20 002471   000005 036003                    ADLQ    5,DU
        20 002472   000025 235000 21                 LDA     21
        20 002473   200110 757100                    STAQ    ROP_ST$+4,,AUTO
        20 002474   200110 630500                    EPPR0   ROP_ST$+4,,AUTO
        20 002475   000004 631400 21                 EPPR1   4
        20 002476   000000 701000 xent               TSX1    Z8AE$ERROR
        20 002477   000000 011000                    NOP     0

      712    17654    4                              ROP$$ -> LX_ETT_ITEM.LINE,
      713    17655    4                              ROP$$ -> LX_ETT_ITEM.COLUMN);
      714    17656    4              ETT$$ = LOP$$ -> LX_ETT_ITEM.ETT$;

  17656 20 002500   200027 470500                    LDP0    LOP$$,,AUTO
        20 002501   000001 236100                    LDQ     1,,PR0
        20 002502   200033 756100                    STQ     ETT$$,,AUTO

      715    17657    4          END /*V* Case */;

  17657 20 002503   002563 710000 20                 TRA     s:17676

      716    17658
      717    17659        %EJECT;
PL6.E3A0      #001=Z8E5$ARITHMETIC_OPERATIONS File=Z8E5.:Z8A6TSI                 SAT 08/09/97 11:33 Page:120
      718    17660    3              CASE(%OP_INDEX);

      719    17661    3                CALL Z8EV$CONVERT_ON_SIZE(%TYA, LOP$$, LOP$$, ON_SIZE);

  17661 20 002504   200037 633500                    EPPR3   ON_SIZE,,AUTO
        20 002505   200113 453500                    STP3    ROP_ST$+7,,AUTO
        20 002506   200027 631500                    EPPR1   LOP$$,,AUTO
        20 002507   200112 451500                    STP1    ROP_ST$+6,,AUTO
        20 002510   200027 634500                    EPPR4   LOP$$,,AUTO
        20 002511   200111 454500                    STP4    ROP_ST$+5,,AUTO
        20 002512   000122 236000 21                 LDQ     82
        20 002513   200110 756100                    STQ     ROP_ST$+4,,AUTO
        20 002514   200110 630500                    EPPR0   ROP_ST$+4,,AUTO
        20 002515   000001 631400 21                 EPPR1   1
        20 002516   000000 701000 xent               TSX1    Z8EV$CONVERT_ON_SIZE
        20 002517   000000 011000                    NOP     0

      720    17662    3                CALL Z8EV$CONVERT_ON_SIZE(%TYA, ROP$$, ROP$$, ON_SIZE);

  17662 20 002520   200037 630500                    EPPR0   ON_SIZE,,AUTO
        20 002521   200113 450500                    STP0    ROP_ST$+7,,AUTO
        20 002522   200032 631500                    EPPR1   ROP$$,,AUTO
        20 002523   200112 451500                    STP1    ROP_ST$+6,,AUTO
        20 002524   200032 633500                    EPPR3   ROP$$,,AUTO
        20 002525   200111 453500                    STP3    ROP_ST$+5,,AUTO
        20 002526   000122 236000 21                 LDQ     82
        20 002527   200110 756100                    STQ     ROP_ST$+4,,AUTO
        20 002530   200110 630500                    EPPR0   ROP_ST$+4,,AUTO
        20 002531   000001 631400 21                 EPPR1   1
        20 002532   000000 701000 xent               TSX1    Z8EV$CONVERT_ON_SIZE
        20 002533   000000 011000                    NOP     0

      721    17663
      722    17664    3                CALL Z8AF$FORME_ON_SIZE(%INDEX,

  17664 20 002534   200037 630500                    EPPR0   ON_SIZE,,AUTO
        20 002535   200114 450500                    STP0    ROP_ST$+8,,AUTO
PL6.E3A0      #001=Z8E5$ARITHMETIC_OPERATIONS File=Z8E5.:Z8A6TSI                 SAT 08/09/97 11:33 Page:121
        20 002536   200033 631500                    EPPR1   ETT$$,,AUTO
        20 002537   200113 451500                    STP1    ROP_ST$+7,,AUTO
        20 002540   200032 236100                    LDQ     ROP$$,,AUTO
        20 002541   000001 036003                    ADLQ    1,DU
        20 002542   200112 756100                    STQ     ROP_ST$+6,,AUTO
        20 002543   200027 236100                    LDQ     LOP$$,,AUTO
        20 002544   000001 036003                    ADLQ    1,DU
        20 002545   000124 235000 21                 LDA     84
        20 002546   200110 757100                    STAQ    ROP_ST$+4,,AUTO
        20 002547   200110 630500                    EPPR0   ROP_ST$+4,,AUTO
        20 002550   000000 631400 21                 EPPR1   0
        20 002551   000000 701000 xent               TSX1    Z8AF$FORME_ON_SIZE
        20 002552   000000 011000                    NOP     0
        20 002553   002563 710000 20                 TRA     s:17676

      723    17665    3                                LOP$$ -> LX_ETT_ITEM.ETT$,
      724    17666    3                                ROP$$ -> LX_ETT_ITEM.ETT$,
      725    17667    3                                ETT$$, ON_SIZE);
      726    17668
      727    17669
      728    17670    3              CASE(ELSE);

      729    17671    3                CALL ERROR_AND_RECOVERY (NODE$, RETURN$);

  17671 20 002554   200004 236100                    LDQ     @RETURN$,,AUTO
        20 002555   200102 756100                    STQ     @LOP$+1,,AUTO
        20 002556   200003 236100                    LDQ     @NODE$,,AUTO
        20 002557   200101 756100                    STQ     I+3,,AUTO
        20 002560   002727 701000 20                 TSX1    ERROR_AND_RECOVERY
        20 002561   000000 011000                    NOP     0

      730    17672
      731    17673    3                RETURN;

  17673 20 002562   000000 702200 xent               TSX2  ! X66_ARET

      732    17674    3            END /*V* Case */;
PL6.E3A0      #001=Z8E5$ARITHMETIC_OPERATIONS File=Z8E5.:Z8A6TSI                 SAT 08/09/97 11:33 Page:122

      733    17675
      734    17676    2            CALL Z8AU$TYPE_DESCRIPTOR(ETT$$, TYPE_DESC);

  17676 20 002563   200042 630500                    EPPR0   TYPE_DESC,,AUTO
        20 002564   200111 450500                    STP0    ROP_ST$+5,,AUTO
        20 002565   200033 631500                    EPPR1   ETT$$,,AUTO
        20 002566   200110 451500                    STP1    ROP_ST$+4,,AUTO
        20 002567   200110 630500                    EPPR0   ROP_ST$+4,,AUTO
        20 002570   000005 631400 21                 EPPR1   5
        20 002571   000000 701000 xent               TSX1    Z8AU$TYPE_DESCRIPTOR
        20 002572   000000 011000                    NOP     0

      735    17677
      736    17678                 %INIT_LX_ETT_ITEM ( @POINTER = RETURN$ ,
      737    17679                                     @TYPE    = TYPE_DESC.TYPE ,
      738    17680                                     @ETT$    = ETT$$ );

  17682 20 002573   200004 470500                    LDP0    @RETURN$,,AUTO
        20 002574   000000 471500                    LDP1    0,,PR0
        20 002575   000004 220003                    LDX0    4,DU
        20 002576   100000 740100                    STX0    0,,PR1

  17683 20 002577   000000 471500                    LDP1    0,,PR0
        20 002600   000000 221003                    LDX1    0,DU
        20 002601   100000 441100                    SXL1    0,,PR1

  17684 20 002602   000000 471500                    LDP1    0,,PR0
        20 002603   200042 235100                    LDA     TYPE_DESC,,AUTO
        20 002604   100004 755100                    STA     4,,PR1

  17685 20 002605   000000 471500                    LDP1    0,,PR0
        20 002606   000010 236000 21                 LDQ     8
        20 002607   100007 756100                    STQ     7,,PR1

  17686 20 002610   000000 471500                    LDP1    0,,PR0
        20 002611   200033 236100                    LDQ     ETT$$,,AUTO
PL6.E3A0      #001=Z8E5$ARITHMETIC_OPERATIONS File=Z8E5.:Z8A6TSI                 SAT 08/09/97 11:33 Page:123
        20 002612   100001 756100                    STQ     1,,PR1

  17687 20 002613   000000 471500                    LDP1    0,,PR0
        20 002614   000010 236000 21                 LDQ     8
        20 002615   100002 756100                    STQ     2,,PR1

  17689 20 002616   000000 471500                    LDP1    0,,PR0
        20 002617   000133 235000 xsym               LDA     COMCOM+91
        20 002620   100005 755100                    STA     5,,PR1

  17690 20 002621   000000 471500                    LDP1    0,,PR0
        20 002622   000134 235000 xsym               LDA     COMCOM+92
        20 002623   100006 755100                    STA     6,,PR1

  17700 20 002624   002726 710000 20                 TRA     s:17728

      739    17702
      740    17703        %EJECT;
PL6.E3A0      #001=Z8E5$ARITHMETIC_OPERATIONS File=Z8E5.:Z8A6TSI                 SAT 08/09/97 11:33 Page:124
      741    17704    2          CASE(%LX_ETT_ITEM);

      742    17705    2            RETURN$ -> LX_ETT_ITEM = NODE$ -> LX_ETT_ITEM;

  17705 20 002625   200004 473500                    LDP3    @RETURN$,,AUTO
        20 002626   300000 474500                    LDP4    0,,PR3
        20 002627   000100 100500                    MLR     fill='000'O
        20 002630   100000 000040                    ADSC9   0,,PR1                   cn=0,n=32
        20 002631   400000 000040                    ADSC9   0,,PR4                   cn=0,n=32

      743    17706    2            IF NODE$ -> LX_ETT_ITEM.TYPE = %TYC THEN

  17706 20 002632   000000 471500                    LDP1    0,,PR0
        20 002633   100004 235100                    LDA     4,,PR1
        20 002634   000023 115007                    CMPA    19,DL
        20 002635   002726 601000 20                 TNZ     s:17728

      744    17707    3              DO;

      745    17708    3                CALL Z8CO$CREATE_LIBRARY_BASE(%OP_GBCD_TO_ASCII, TABLE_ETT$);

  17708 20 002636   200036 634500                    EPPR4   TABLE_ETT$,,AUTO
        20 002637   200111 454500                    STP4    ROP_ST$+5,,AUTO
        20 002640   000126 236000 21                 LDQ     86
        20 002641   200110 756100                    STQ     ROP_ST$+4,,AUTO
        20 002642   200110 630500                    EPPR0   ROP_ST$+4,,AUTO
        20 002643   000005 631400 21                 EPPR1   5
        20 002644   000000 701000 xent               TSX1    Z8CO$CREATE_LIBRARY_BASE
        20 002645   000000 011000                    NOP     0

      746    17709    3                CALL Z8AF$FORME_ON_SIZE(%CVT,

  17709 20 002646   200004 470500                    LDP0    @RETURN$,,AUTO
        20 002647   000000 471500                    LDP1    0,,PR0
        20 002650   200037 633500                    EPPR3   ON_SIZE,,AUTO
        20 002651   200114 453500                    STP3    ROP_ST$+8,,AUTO
        20 002652   100001 634500                    EPPR4   1,,PR1
PL6.E3A0      #001=Z8E5$ARITHMETIC_OPERATIONS File=Z8E5.:Z8A6TSI                 SAT 08/09/97 11:33 Page:125
        20 002653   200113 454500                    STP4    ROP_ST$+7,,AUTO
        20 002654   200036 635500                    EPPR5   TABLE_ETT$,,AUTO
        20 002655   200112 455500                    STP5    ROP_ST$+6,,AUTO
        20 002656   100001 636500                    EPPR6   1,,PR1
        20 002657   200111 456500                    STP6    ROP_ST$+5,,AUTO
        20 002660   000130 236000 21                 LDQ     88
        20 002661   200110 756100                    STQ     ROP_ST$+4,,AUTO
        20 002662   200110 630500                    EPPR0   ROP_ST$+4,,AUTO
        20 002663   000000 631400 21                 EPPR1   0
        20 002664   000000 701000 xent               TSX1    Z8AF$FORME_ON_SIZE
        20 002665   000000 011000                    NOP     0

      747    17710    3                                        RETURN$ -> LX_ETT_ITEM.ETT$,
      748    17711    3                                        TABLE_ETT$,
      749    17712    3                                        RETURN$ -> LX_ETT_ITEM.ETT$,
      750    17713    3                                        ON_SIZE);
      751    17714    3                CALL Z8AU$TYPE_DESCRIPTOR(RETURN$ -> LX_ETT_ITEM.ETT$, TYPE_DESC);

  17714 20 002666   200004 470500                    LDP0    @RETURN$,,AUTO
        20 002667   000000 471500                    LDP1    0,,PR0
        20 002670   200042 633500                    EPPR3   TYPE_DESC,,AUTO
        20 002671   200111 453500                    STP3    ROP_ST$+5,,AUTO
        20 002672   100001 634500                    EPPR4   1,,PR1
        20 002673   200110 454500                    STP4    ROP_ST$+4,,AUTO
        20 002674   200110 630500                    EPPR0   ROP_ST$+4,,AUTO
        20 002675   000005 631400 21                 EPPR1   5
        20 002676   000000 701000 xent               TSX1    Z8AU$TYPE_DESCRIPTOR
        20 002677   000000 011000                    NOP     0

      752    17715    3                RETURN$ -> LX_ETT_ITEM.TYPE = TYPE_DESC.TYPE;

  17715 20 002700   200004 470500                    LDP0    @RETURN$,,AUTO
        20 002701   000000 471500                    LDP1    0,,PR0
        20 002702   200042 235100                    LDA     TYPE_DESC,,AUTO
        20 002703   100004 755100                    STA     4,,PR1

      753    17716    3              END;
PL6.E3A0      #001=Z8E5$ARITHMETIC_OPERATIONS File=Z8E5.:Z8A6TSI                 SAT 08/09/97 11:33 Page:126

  17716 20 002704   002726 710000 20                 TRA     s:17728

      754    17717
      755    17718    2          CASE(%LX_TERMINAL);

      756    17719    2            CALL Z8EV$LEAST_STRONGEST_TYPE(NODE$, %CONTEXT_NUMERIC, RETURN$);

  17719 20 002705   200004 236100                    LDQ     @RETURN$,,AUTO
        20 002706   200112 756100                    STQ     ROP_ST$+6,,AUTO
        20 002707   000003 236000 21                 LDQ     3
        20 002710   200003 235100                    LDA     @NODE$,,AUTO
        20 002711   200110 757100                    STAQ    ROP_ST$+4,,AUTO
        20 002712   200110 630500                    EPPR0   ROP_ST$+4,,AUTO
        20 002713   000004 631400 21                 EPPR1   4
        20 002714   000000 701000 xent               TSX1    Z8EV$LEAST_STRONGEST_TYPE
        20 002715   000000 011000                    NOP     0
        20 002716   002726 710000 20                 TRA     s:17728

      757    17720
      758    17721    2          CASE(ELSE);

      759    17722    2            CALL ERROR_AND_RECOVERY (NODE$, RETURN$);

  17722 20 002717   200004 236100                    LDQ     @RETURN$,,AUTO
        20 002720   200102 756100                    STQ     @LOP$+1,,AUTO
        20 002721   200003 236100                    LDQ     @NODE$,,AUTO
        20 002722   200101 756100                    STQ     I+3,,AUTO
        20 002723   002727 701000 20                 TSX1    ERROR_AND_RECOVERY
        20 002724   000000 011000                    NOP     0

      760    17723
      761    17724    2            RETURN;

  17724 20 002725   000000 702200 xent               TSX2  ! X66_ARET

      762    17725
PL6.E3A0      #001=Z8E5$ARITHMETIC_OPERATIONS File=Z8E5.:Z8A6TSI                 SAT 08/09/97 11:33 Page:127
      763    17726    2        END /*V* Case */;

      764    17727
      765    17728    1        RETURN;

  17728 20 002726   000000 702200 xent               TSX2  ! X66_ARET

      766    17729
      767    17730        %EJECT;
PL6.E3A0      #001=Z8E5$ARITHMETIC_OPERATIONS File=Z8E5.:Z8A6TSI                 SAT 08/09/97 11:33 Page:128
      768    17731    1   ERROR_AND_RECOVERY: PROC (NODE$, RETURN$);

  17731 20 002727   200100 741300       ERROR_AND_R* STX1  ! I+2,,AUTO

      769    17732
      770    17733    2        DCL NODE$         PTR;
      771    17734    2        DCL RETURN$       PTR;
      772    17735
      773    17736    2        DCL 1 TYPE_DESC   ALIGNED,
      774    17737                  %TYPE_DESC;
      775    17771
      776    17772
      777    17773             %CONDITIONAL_ERROR (@LX_ITEM$ = NODE$,
      778    17774                                 @ERROR# = %E$INVALID_MATH_OPERANDS,
      779    17775                                 @LINE = NODE$ -> LX_ITEM.LINE,
      780    17776                                 @COLUMN = NODE$ -> LX_ITEM.COLUMN);

  17786 20 002730   200101 470500                    LDP0    @NODE$,,AUTO
        20 002731   000000 471500                    LDP1    0,,PR0
        20 002732   100000 236100                    LDQ     0,,PR1
        20 002733   400000 316007                    CANQ    -131072,DL
        20 002734   002753 601000 20                 TNZ     s:17818

  17788 20 002735   100006 633500                    EPPR3   6,,PR1
        20 002736   200112 453500                    STP3    ROP_ST$+6,,AUTO
        20 002737   100005 634500                    EPPR4   5,,PR1
        20 002740   200111 454500                    STP4    ROP_ST$+5,,AUTO
        20 002741   000132 236000 21                 LDQ     90
        20 002742   200110 756100                    STQ     ROP_ST$+4,,AUTO
        20 002743   200110 630500                    EPPR0   ROP_ST$+4,,AUTO
        20 002744   000004 631400 21                 EPPR1   4
        20 002745   000000 701000 xent               TSX1    Z8AE$ERROR
        20 002746   000000 011000                    NOP     0

  17797 20 002747   200101 470500                    LDP0    @NODE$,,AUTO
        20 002750   000000 471500                    LDP1    0,,PR0
        20 002751   400000 236007                    LDQ     -131072,DL
PL6.E3A0      #001=Z8E5$ARITHMETIC_OPERATIONS File=Z8E5.:Z8A6TSI                 SAT 08/09/97 11:33 Page:129
        20 002752   100000 256100                    ORSQ    0,,PR1

      781    17806
      782    17807             %INIT_TYPE_DESC (@TYPE_DESC = TYPE_DESC,
      783    17808                              @TYPE      = %TYI);

  17818 20 002753   200104 450100                    STZ     LOP_ST$+1,,AUTO

  17819 20 002754   000004 236007                    LDQ     4,DL
        20 002755   200104 752101                    STCQ    LOP_ST$+1,'01'O,AUTO

  17825 20 002756   000001 235007                    LDA     1,DL
        20 002757   200103 755100                    STA     TYPE_DESC,,AUTO

  17826 20 002760   000010 236000 21                 LDQ     8
        20 002761   200105 756100                    STQ     ROP_ST$+1,,AUTO

  17827 20 002762   200106 756100                    STQ     ROP_ST$+2,,AUTO

      784    17852
      785    17853    2        CALL Z8EU$NEW_TEMP_FROM_DESC (TYPE_DESC, RETURN$);

  17853 20 002763   200102 236100                    LDQ     @RETURN$,,AUTO
        20 002764   200111 756100                    STQ     ROP_ST$+5,,AUTO
        20 002765   200103 631500                    EPPR1   TYPE_DESC,,AUTO
        20 002766   200110 451500                    STP1    ROP_ST$+4,,AUTO
        20 002767   200110 630500                    EPPR0   ROP_ST$+4,,AUTO
        20 002770   000005 631400 21                 EPPR1   5
        20 002771   000000 701000 xent               TSX1    Z8EU$NEW_TEMP_FROM_DESC
        20 002772   000000 011000                    NOP     0

      786    17854
      787    17855    2   END ERROR_AND_RECOVERY;

  17855 20 002773   200100 221300                    LDX1  ! I+2,,AUTO
        20 002774   000001 702211                    TSX2  ! 1,X1

PL6.E3A0      #001=Z8E5$ARITHMETIC_OPERATIONS File=Z8E5.:Z8A6TSI                 SAT 08/09/97 11:33 Page:130
      788    17856         %EJECT;
PL6.E3A0      #001=Z8E5$ARITHMETIC_OPERATIONS File=Z8E5.:Z8A6TSI                 SAT 08/09/97 11:33 Page:131
      789    17857    1   DML_TYPE_CHECK:  PROC (LOP$,ROP$) ALTRET;

  17857 20 002775   200100 741300       DML_TYPE_CH* STX1  ! I+2,,AUTO

      790    17858
      791    17859    2       DCL LOP$        PTR;
      792    17860    2       DCL ROP$        PTR;
      793    17861    2       DCL LOP_ST$     PTR;
      794    17862    2       DCL ROP_ST$     PTR;
      795    17863
      796    17864
      797    17865    2       IF ROP$ -> LX_ITEM.ID = %LX_ETT_ITEM     THEN

  17865 20 002776   200102 470500                    LDP0    @ROP$,,AUTO
        20 002777   000000 471500                    LDP1    0,,PR0
        20 003000   100000 220100                    LDX0    0,,PR1
        20 003001   000004 100003                    CMPX0   4,DU
        20 003002   003033 601000 20                 TNZ     s:17883

      798    17866    3         DO;

      799    17867                %FISH(TRIAD = ROP$ -> LX_ETT_ITEM.ETT$,
      800    17868                      RTN = ROP_ST$);

  17870 20 003003   100001 236100                    LDQ     1,,PR1
        20 003004   200104 756100                    STQ     ROP_ST$,,AUTO

  17871 20 003005   200104 473500                    LDP3    ROP_ST$,,AUTO
        20 003006   300000 222100                    LDX2    0,,PR3
        20 003007   000751 102003                    CMPX2   489,DU
        20 003010   003020 603000 20                 TRC     s:17876

  17872 20 003011   200104 470500                    LDP0    ROP_ST$,,AUTO
        20 003012   000001 236100                    LDQ     1,,PR0
        20 003013   200104 756100                    STQ     ROP_ST$,,AUTO

  17873 20 003014   200104 470500                    LDP0    ROP_ST$,,AUTO
PL6.E3A0      #001=Z8E5$ARITHMETIC_OPERATIONS File=Z8E5.:Z8A6TSI                 SAT 08/09/97 11:33 Page:132
        20 003015   000000 220100                    LDX0    0,,PR0
        20 003016   000751 100003                    CMPX0   489,DU
        20 003017   003011 602000 20                 TNC     s:17872

      801    17876    3           IF ROP_ST$ -> VARIABLE.B.DML_TYPE = %DATA_BASE_KEY    THEN

  17876 20 003020   200104 470500                    LDP0    ROP_ST$,,AUTO
        20 003021   000003 236100                    LDQ     3,,PR0
        20 003022   160000 376007                    ANQ     57344,DL
        20 003023   040000 116007                    CMPQ    16384,DL
        20 003024   003033 601000 20                 TNZ     s:17883

      802    17877    4             DO;

      803    17878    4               ROP$ -> LX_ITEM.B.ERROR = %TRUE;

  17878 20 003025   200102 471500                    LDP1    @ROP$,,AUTO
        20 003026   100000 473500                    LDP3    0,,PR1
        20 003027   400000 236007                    LDQ     -131072,DL
        20 003030   300000 256100                    ORSQ    0,,PR3

      804    17879    4               ALTRETURN;

  17879 20 003031   200100 221300                    LDX1  ! I+2,,AUTO
        20 003032   000000 702211                    TSX2  ! 0,X1

      805    17880    4             END;
      806    17881    3         END;
      807    17882
      808    17883    2       IF LOP$ -> LX_ITEM.ID = %LX_ETT_ITEM     THEN

  17883 20 003033   200101 470500                    LDP0    @LOP$,,AUTO
        20 003034   000000 471500                    LDP1    0,,PR0
        20 003035   100000 220100                    LDX0    0,,PR1
        20 003036   000004 100003                    CMPX0   4,DU
        20 003037   003111 601000 20                 TNZ     s:17910

PL6.E3A0      #001=Z8E5$ARITHMETIC_OPERATIONS File=Z8E5.:Z8A6TSI                 SAT 08/09/97 11:33 Page:133
      809    17884    3         DO;

      810    17885                %FISH(TRIAD = LOP$ -> LX_ETT_ITEM.ETT$,
      811    17886                      RTN = LOP_ST$);

  17888 20 003040   100001 236100                    LDQ     1,,PR1
        20 003041   200103 756100                    STQ     LOP_ST$,,AUTO

  17889 20 003042   200103 473500                    LDP3    LOP_ST$,,AUTO
        20 003043   300000 221100                    LDX1    0,,PR3
        20 003044   000751 101003                    CMPX1   489,DU
        20 003045   003055 603000 20                 TRC     s:17894

  17890 20 003046   200103 470500                    LDP0    LOP_ST$,,AUTO
        20 003047   000001 236100                    LDQ     1,,PR0
        20 003050   200103 756100                    STQ     LOP_ST$,,AUTO

  17891 20 003051   200103 470500                    LDP0    LOP_ST$,,AUTO
        20 003052   000000 220100                    LDX0    0,,PR0
        20 003053   000751 100003                    CMPX0   489,DU
        20 003054   003046 602000 20                 TNC     s:17890

      812    17894    3           IF LOP_ST$ -> VARIABLE.B.DML_TYPE = %DML_REG   THEN

  17894 20 003055   200103 470500                    LDP0    LOP_ST$,,AUTO
        20 003056   000003 236100                    LDQ     3,,PR0
        20 003057   160000 376007                    ANQ     57344,DL
        20 003060   100000 116007                    CMPQ    32768,DL
        20 003061   003111 601000 20                 TNZ     s:17910

      813    17895    4             DO;

      814    17896    4               IF O1COM.SECTION_FOUND.DECLARATIVES    AND

  17896 20 003062   000063 236000 xsym               LDQ     O1COM+51
        20 003063   002000 316003                    CANQ    1024,DU
        20 003064   003101 600000 20                 TZE     s:17902
PL6.E3A0      #001=Z8E5$ARITHMETIC_OPERATIONS File=Z8E5.:Z8A6TSI                 SAT 08/09/97 11:33 Page:134
        20 003065   000006 471500                    LDP1    6,,PR0
        20 003066   100004 220100                    LDX0    4,,PR1
        20 003067   040000 106540                    CMPC    fill='040'O
        20 003070   100004 400010                    ADSC9   4,,PR1                   cn=2,n=*X0
        20 003071   000300 000016 19                 ADSC9   EXPONENT_MATRIX+96       cn=0,n=14
        20 003072   003101 600000 20                 TZE     s:17902

      815    17897    4                    LOP_ST$ -> VARIABLE.DNT$ -> DNT.TEXT.NAME ~= 'DB-PRIVACY-KEY' THEN
      816    17898    5                   DO;

      817    17899    5                     LOP$ -> LX_ITEM.B.ERROR = %TRUE;

  17899 20 003073   200101 473500                    LDP3    @LOP$,,AUTO
        20 003074   300000 474500                    LDP4    0,,PR3
        20 003075   400000 236007                    LDQ     -131072,DL
        20 003076   400000 256100                    ORSQ    0,,PR4

      818    17900    5                     ALTRETURN;

  17900 20 003077   200100 221300                    LDX1  ! I+2,,AUTO
        20 003100   000000 702211                    TSX2  ! 0,X1

      819    17901    5                   END;
      820    17902    4              IF NOT O1COM.SECTION_FOUND.DECLARATIVES   THEN

  17902 20 003101   002000 316003                    CANQ    1024,DU
        20 003102   003111 601000 20                 TNZ     s:17910

      821    17903    5                DO;

      822    17904    5                  LOP$ -> LX_ITEM.B.ERROR = %TRUE;

  17904 20 003103   200101 471500                    LDP1    @LOP$,,AUTO
        20 003104   100000 473500                    LDP3    0,,PR1
        20 003105   400000 236007                    LDQ     -131072,DL
        20 003106   300000 256100                    ORSQ    0,,PR3

PL6.E3A0      #001=Z8E5$ARITHMETIC_OPERATIONS File=Z8E5.:Z8A6TSI                 SAT 08/09/97 11:33 Page:135
      823    17905    5                  ALTRETURN;

  17905 20 003107   200100 221300                    LDX1  ! I+2,,AUTO
        20 003110   000000 702211                    TSX2  ! 0,X1

      824    17906    5                END;
      825    17907    4             END;
      826    17908    3         END;
      827    17909
      828    17910    2       RETURN;

  17910 20 003111   200100 221300                    LDX1  ! I+2,,AUTO
        20 003112   000001 702211                    TSX2  ! 1,X1
      829    17911    2   END DML_TYPE_CHECK;
      830    17912
      831    17913    1   END Z8E5$ARITHMETIC_OPERATIONS;

PL6.E3A0      #001=Z8E5$ARITHMETIC_OPERATIONS File=Z8E5.:Z8A6TSI                 SAT 08/09/97 11:33 Page:136
--  Include file information  --

   Z8E_DML.:Z8A6TOU  is referenced.
   Z8E_WINDOW.:Z8A6TOU  is referenced.
   Z8E_O1COM.:Z8A6TOU  cannot be made into a system file and is referenced.
   Z8E_NEW_ILL.:Z8A6TOU  is referenced.
   Z8E_MACROS.:Z8A6TOU  cannot be made into a system file and is referenced.
   Z8E_HEAP.:Z8A6TOU  cannot be made into a system file and is referenced.
   Z8A_LEX_SYMB.:Z8A6TOU  cannot be made into a system file and is referenced.
   Z8E_STACKS.:Z8A6TOU  cannot be made into a system file and is referenced.
   Z8A_DESC.:Z8A6TOU  cannot be made into a system file and is referenced.
   Z8A_TYPES.:Z8A6TOU  is referenced.
   Z8A_SRCH.:Z8A6TOU  cannot be made into a system file and is referenced.
   Z8A_LIBRARY.:Z8A6TOU  cannot be made into a system file and is referenced.
   Z8A_COMCOM.:Z8A6TOU  cannot be made into a system file and is referenced.
   Z8A_DNT.:Z8A6TOU  cannot be made into a system file and is referenced.
   Z8A_ST.:Z8A6TOU  cannot be made into a system file and is referenced.
   Z8A_ILL.:Z8A6TOU  cannot be made into a system file and is referenced.
   Z8A_ETT.:Z8A6TOU  cannot be made into a system file and is referenced.
   Z8A_ERR_NUMS.:Z8A6TOU  is referenced.
   X8A_COM_MACS.:X8A6TOU  is referenced.
   Z8A_NAMES.:Z8A6TOU  is referenced.
   Z8A_SUPP_MAC.:Z8A6TOU  is referenced.
   Z8A_DEFC.:Z8A6TOU  cannot be made into a system file and is referenced.
      No diagnostics issued in procedure Z8E5$ARITHMETIC_OPERATIONS.
PL6.E3A0      #001=Z8E5$ARITHMETIC_OPERATIONS File=Z8E5.:Z8A6TSI                 SAT 08/09/97 11:33 Page:137

 **** Variables and constants ****

  ****  Section 000 LblCom ITERATION

  ****  Scalars and arrays  ****
OctLoc.c.b A Datatyp(siz) R M Lvl/name                 OctLoc.c.b A Datatyp(siz) R M Lvl/name

     0-0-0/w SBIN              1 ITERATION

  ****  Section 001 LblCom ETT$

  ****  Scalars and arrays  ****
OctLoc.c.b A Datatyp(siz) R M Lvl/name                 OctLoc.c.b A Datatyp(siz) R M Lvl/name

     0-0-0/w PTR         r     1 ETT$

  ****  Section 002 LblCom HEAD_ETT$

  ****  Scalars and arrays  ****
OctLoc.c.b A Datatyp(siz) R M Lvl/name                 OctLoc.c.b A Datatyp(siz) R M Lvl/name

     0-0-0/w PTR               1 HEAD_ETT$

  ****  Section 003 LblCom ETT_BUCKETS

  ****  Scalars and arrays  ****
OctLoc.c.b A Datatyp(siz) R M Lvl/name                 OctLoc.c.b A Datatyp(siz) R M Lvl/name

     0-0-0/w PTR               1 ETT_BUCKETS(0:511)

  ****  Section 004 LblCom ETT_

  ****  Scalars and arrays  ****
OctLoc.c.b A Datatyp(siz) R M Lvl/name                 OctLoc.c.b A Datatyp(siz) R M Lvl/name

     0-0-0/w STRC(180)         1 ETT_

PL6.E3A0      #001=Z8E5$ARITHMETIC_OPERATIONS File=Z8E5.:Z8A6TSI                 SAT 08/09/97 11:33 Page:138
  ****  Section 005 LblCom ILL$

  ****  Scalars and arrays  ****
OctLoc.c.b A Datatyp(siz) R M Lvl/name                 OctLoc.c.b A Datatyp(siz) R M Lvl/name

     0-0-0/w PTR         r     1 ILL$

  ****  Section 006 LblCom ILL_

  ****  Scalars and arrays  ****
OctLoc.c.b A Datatyp(siz) R M Lvl/name                 OctLoc.c.b A Datatyp(siz) R M Lvl/name

     0-0-0/w STRC(180)         1 ILL_

  ****  Section 007 LblCom ST$

  ****  Scalars and arrays  ****
OctLoc.c.b A Datatyp(siz) R M Lvl/name                 OctLoc.c.b A Datatyp(siz) R M Lvl/name

     0-0-0/w PTR         r     1 ST$

  ****  Section 008 LblCom ST_

  ****  Scalars and arrays  ****
OctLoc.c.b A Datatyp(siz) R M Lvl/name                 OctLoc.c.b A Datatyp(siz) R M Lvl/name

     0-0-0/w STRC(180)         1 ST_

  ****  Section 009 LblCom DNT$

  ****  Scalars and arrays  ****
OctLoc.c.b A Datatyp(siz) R M Lvl/name                 OctLoc.c.b A Datatyp(siz) R M Lvl/name

     0-0-0/w PTR         r     1 DNT$

  ****  Section 010 LblCom DNT_

PL6.E3A0      #001=Z8E5$ARITHMETIC_OPERATIONS File=Z8E5.:Z8A6TSI                 SAT 08/09/97 11:33 Page:139
  ****  Scalars and arrays  ****
OctLoc.c.b A Datatyp(siz) R M Lvl/name                 OctLoc.c.b A Datatyp(siz) R M Lvl/name

     0-0-0/w STRC(180)         1 DNT_

  ****  Section 011 LblCom DNT_BUCKET_NUMBER

  ****  Scalars and arrays  ****
OctLoc.c.b A Datatyp(siz) R M Lvl/name                 OctLoc.c.b A Datatyp(siz) R M Lvl/name

     0-0-0/w UBIN              1 DNT_BUCKET_NUMBER

  ****  Section 012 LblCom DNT_OF_1$

  ****  Scalars and arrays  ****
OctLoc.c.b A Datatyp(siz) R M Lvl/name                 OctLoc.c.b A Datatyp(siz) R M Lvl/name

     0-0-0/w PTR               1 DNT_OF_1$

  ****  Section 013 LblCom SRCH

  ****  Scalars and arrays  ****
OctLoc.c.b A Datatyp(siz) R M Lvl/name                 OctLoc.c.b A Datatyp(siz) R M Lvl/name

     0-0-0/w STRC(108)   r     1 SRCH

  ****  Section 014 LblCom LEX_SYMBOL

  ****  Scalars and arrays  ****
OctLoc.c.b A Datatyp(siz) R M Lvl/name                 OctLoc.c.b A Datatyp(siz) R M Lvl/name

     0-0-0/w STRC(3240)  r     1 LEX_SYMBOL                 0-0-0/w STRC(3240)        1 LEX_SYMBOL_WORDS

  ****  Section 015 LblCom CURRENT_LEX_SYMBOL$

  ****  Scalars and arrays  ****
OctLoc.c.b A Datatyp(siz) R M Lvl/name                 OctLoc.c.b A Datatyp(siz) R M Lvl/name
PL6.E3A0      #001=Z8E5$ARITHMETIC_OPERATIONS File=Z8E5.:Z8A6TSI                 SAT 08/09/97 11:33 Page:140

     0-0-0/w PTR         r     1 CURRENT_LEX_SYMBOL$

  ****  Section 016 LblCom TEMP_LEX_SYMBOL

  ****  Scalars and arrays  ****
OctLoc.c.b A Datatyp(siz) R M Lvl/name                 OctLoc.c.b A Datatyp(siz) R M Lvl/name

     0-0-0/w STRC(3240)        1 TEMP_LEX_SYMBOL

  ****  Section 017 LblCom TEMP_LEX_SYMBOL2

  ****  Scalars and arrays  ****
OctLoc.c.b A Datatyp(siz) R M Lvl/name                 OctLoc.c.b A Datatyp(siz) R M Lvl/name

     0-0-0/w STRC(3240)        1 TEMP_LEX_SYMBOL2

  ****  Section 018 LblCom HEAP$

  ****  Scalars and arrays  ****
OctLoc.c.b A Datatyp(siz) R M Lvl/name                 OctLoc.c.b A Datatyp(siz) R M Lvl/name

     0-0-0/w PTR               1 HEAP$

  ****  Section 019 RoData Z8E5$ARITHMETIC_OPERATIONS

  ****  Scalars and arrays  ****
OctLoc.c.b A Datatyp(siz) R M Lvl/name                 OctLoc.c.b A Datatyp(siz) R M Lvl/name

     0-0-0/w STRC(3438)  r     1 ARITHMETIC_MATRIX        140-0-0/w STRC(3438)  r     1 EXPONENT_MATRIX

  ****  Auto variables  ****

  ****  Scalars and arrays  ****
OctLoc.c.b A Datatyp(siz) R M Lvl/name                 OctLoc.c.b A Datatyp(siz) R M Lvl/name

   102-0-0/w PTR         r     1 @ETT_ID                  102-0-0/w PTR         r     1 @ETT_ID
PL6.E3A0      #001=Z8E5$ARITHMETIC_OPERATIONS File=Z8E5.:Z8A6TSI                 SAT 08/09/97 11:33 Page:141
     5-0-0/w PTR         r     1 @LABEL$                  101-0-0/w PTR         r     1 @LOP$
     3-0-0/w PTR         r     1 @NODE$                   101-0-0/w PTR         r     1 @NODE$
   101-0-0/w PTR         r     1 @OETT_ID                 101-0-0/w PTR         r     1 @OETT_ID
     4-0-0/w PTR         r     1 @RETURN$                 102-0-0/w PTR         r     1 @RETURN$
   102-0-0/w PTR         r     1 @ROP$                     25-0-0/w UBIN              1 CN
    34-0-0/w PTR         r     1 COMP$                     17-0-0/w STRC              1 DESC
    33-0-0/w PTR         r     1 ETT$$                     *0-0-0/w SBIN        r     1 ETT_ID
    *0-0-0/w SBIN        r     1 ETT_ID                    76-0-0/w SBIN              1 I
    40-0-0/w SBIN        r     1 ID                        *0-0-0/w PTR         r     1 LABEL$
    24-0-0/w SBIN              1 LENGTH                    30-0-0/w PTR               1 LOP$
    *0-0-0/w PTR         r     1 LOP$                      27-0-0/w PTR         r     1 LOP$$
   103-0-0/w PTR         r     1 LOP_ST$                    6-0-0/w STRC(324)         1 NAME
    *0-0-0/w PTR         r     1 NODE$                     *0-0-0/w PTR         r     1 NODE$
    *0-0-0/w SBIN        r     1 OETT_ID                   *0-0-0/w SBIN        r     1 OETT_ID
    37-0-0/w BIT         r     1 ON_SIZE                   *0-0-0/w PTR         r     1 RETURN$
    *0-0-0/w PTR         r     1 RETURN$                   31-0-0/w PTR               1 ROP$
    *0-0-0/w PTR         r     1 ROP$                      32-0-0/w PTR         r     1 ROP$$
   104-0-0/w PTR         r     1 ROP_ST$                   26-0-0/w UBIN              1 SA
    23-0-0/w SBIN              1 SCALE                     20-0-0/w BIT (2)           1 SIGN
    22-0-0/w BIT (2)           1 TA                        36-0-0/w PTR         r     1 TABLE_ETT$
    46-0-0/d STRC(288)   r     1 TEMP_LOP_ITEM             66-0-0/d STRC(288)   r     1 TEMP_LX_ITEM
    56-0-0/d STRC(288)   r     1 TEMP_ROP_ITEM             21-0-0/w BIT               1 TN
    41-0-0/w SBIN              1 TYPE                      42-0-0/w STRC(144)   r     1 TYPE_DESC
   103-0-0/w STRC(144)   r     1 TYPE_DESC                 35-0-0/w PTR         r     1 ZIP$

  ****  SYMREF variables  ****

  ****  Scalars and arrays  ****
OctLoc.c.b A Datatyp(siz) R M Lvl/name                 OctLoc.c.b A Datatyp(siz) R M Lvl/name

     0-0-0/d STRC(13248) r     1 COMCOM
     0-0-0/w STRC(180)         1 HIER_STK(0:50)
     0-0-0/w SBIN              1 HIER_STK_PTR               0-0-0/w UBIN              1 ILL_STEP(0:144)
     0-0-0/d STRC(11580) r     1 O1COM                      0-0-0/w STRC(144)         1 PAGE_FORMAT
     0-0-0/w STRC(153)         1 REP_STK(0:50)              0-0-0/w SBIN              1 REP_STK_PTR

  ****  BASED and DCB variables  ****
PL6.E3A0      #001=Z8E5$ARITHMETIC_OPERATIONS File=Z8E5.:Z8A6TSI                 SAT 08/09/97 11:33 Page:142

  ****  Scalars and arrays  ****
OctLoc.c.b A Datatyp(siz) R M Lvl/name                 OctLoc.c.b A Datatyp(siz) R M Lvl/name

     0-0-0/w STRC(108)         1 ACCEPT_DISPLAY             0-0-0/w STRC(288)         1 ADD_STMT
     0-0-0/w STRC(396)         1 ALPHABET                   0-0-0/w STRC(396)         1 ARRAY
     0-0-0/w ASTR(324)   r     1 BASED_LEX_SYMBOL
     0-0-0/w STRC(360)         1 BASED_LEX_SYMBOL_WORDS
     0-0-0/w STRC(108)         1 BINARY_ILL                 0-0-0/w STRC(288)   r     1 BINARY_OP
     0-0-0/w STRC(396)         1 BLOCK                      0-0-0/w STRC(144)         1 BRANCH_ILL
     0-0-0/w STRC(288)         1 CALL_STMT                  0-0-0/w STRC(216)         1 CCOSU
     0-0-0/w STRC(396)         1 CD                         0-0-0/w CHAR(4096)        1 CHARS
     0-0-0/w STRC(396)         1 CLASS                      0-0-0/w STRC(108)         1 CODED_MOVE
     0-0-0/w STRC(288)         1 COMPUTE_STMT               0-0-0/w STRC(396)         1 CONDITION
     0-0-0/w STRC(396)         1 CONST                      0-0-0/w STRC(72)          1 CONT
     0-0-0/w STRC(396)         1 DB                         0-0-0/w STRC(396)         1 DCB_
     0-0-0/w STRC(288)         1 DEFERED_IDENTIFIER         0-0-0/w STRC(252)         1 DEFERED_ID_TREE
     0-0-0/w STRC(288)         1 DEFERED_QUAL_ID            0-0-0/w STRC(288)         1 DEFERED_SUM_CLAUSE
     0-0-0/w STRC(288)         1 DEFERED_SUM_CLAUSE_LIST
     0-0-0/w STRC(144)         1 DEFLB                      0-0-0/w STRC(288)         1 DELETE_STMT
     0-0-0/w STRC(288)         1 DIVIDE_STMT                0-0-0/w STRC(396)         1 DML_ITEM
     0-0-0/w ASTR(180)   r     1 DNT                        0-0-0/w STRC(144)         1 DOEND
     0-0-0/w STRC(396)         1 DO_N                       0-0-0/w STRC(180)         1 DV4I
     0-0-0/w STRC(180)         1 ENTRY_ILL                  0-0-0/w STRC(180)   r     1 ETT
     0-0-0/w STRC(108)         1 EVALU                      0-0-0/w STRC(396)         1 FD
     0-0-0/w STRC(144)   r     1 GO                         0-0-0/w STRC(180)         1 ILL
     0-0-0/w STRC              1 ILL_NO_OPS                 0-0-0/w STRC(288)         1 ILS_LIST
     0-0-0/w STRC(288)         1 INSPECT_1_STMT             0-0-0/w STRC(288)         1 INSPECT_2_STMT
     0-0-0/w STRC(288)         1 INSPECT_4_STMT             0-0-0/w STRC(396)         1 INTDEF
     0-0-0/w STRC(396)         1 LABEL                      0-0-0/w STRC(288)         1 LA_ITEM
     0-0-0/w STRC(108)         1 LINOI                      0-0-0/w STRC(504)         1 LX_CD_INPUT
     0-0-0/w STRC(324)         1 LX_CD_I_O                  0-0-0/w STRC(396)         1 LX_CD_OUTPUT
     0-0-0/w STRC(288)   r     1 LX_ETT_ITEM                0-0-0/w STRC(288)   r     1 LX_ITEM
     0-0-0/w STRC(288)         1 LX_LARGE                   0-0-0/w STRC(288)         1 LX_LIST
     0-0-0/w STRC(1224)        1 LX_REC_DECL                0-0-0/w STRC(864)         1 LX_REPORT_REC
     0-0-0/w STRC(288)         1 LX_TERMINAL                0-0-0/w STRC(72)          1 MFILL
     0-0-0/w STRC(396)         1 MNEMONIC                   0-0-0/w STRC(288)         1 MULTIPLY_STMT
PL6.E3A0      #001=Z8E5$ARITHMETIC_OPERATIONS File=Z8E5.:Z8A6TSI                 SAT 08/09/97 11:33 Page:143
     0-0-0/w STRC(180)         1 MULTI_GO                   0-0-0/w STRC(180)         1 MVEAL
     0-0-0/w STRC(108)         1 MVFIL                      0-0-0/w STRC(72)          1 MVIIS
     0-0-0/w STRC(180)         1 OS_CALL                    0-0-0/w STRC(36864)       1 PAGE
     0-0-0/w STRC(396)         1 PARA                       0-0-0/w STRC(216)         1 PFORM
     0-0-0/w STRC(144)         1 PINC                       0-0-0/w STRC(144)         1 PREOFF
     0-0-0/w STRC(108)         1 PRESET                     0-0-0/w STRC(396)   r     1 PROC_
     0-0-0/w STRC(396)         1 PROC_DEF                   0-0-0/w STRC(144)         1 P_A_PRESET
     0-0-0/w STRC(144)         1 P_P_PRESET                 0-0-0/w STRC(396)         1 RD
     0-0-0/w STRC(288)         1 READ_STMT                  0-0-0/w STRC(144)         1 REMEM
     0-0-0/w STRC(288)         1 REWRITE_STMT               0-0-0/w STRC(396)         1 SCALAR
     0-0-0/w STRC(144)         1 SCOPE                      0-0-0/w STRC(396)         1 SD
     0-0-0/w STRC(216)         1 SEARCH_                    0-0-0/w STRC(396)         1 SECTION
     0-0-0/w STRC(396)         1 SEGMENT                    0-0-0/w STRC(396)         1 ST
     0-0-0/w STRC(288)         1 START_STMT                 0-0-0/w STRC(72)          1 STP2
     0-0-0/w STRC(252)         1 STRING_STMT                0-0-0/w STRC(288)         1 SUBTRACT_STMT
     0-0-0/w STRC(396)         1 SWITCH                     0-0-0/w STRC(396)         1 SYMBOLIC_CHAR
     0-0-0/w STRC(396)         1 SYMDEF_                    0-0-0/w STRC(396)         1 SYMREF_
     0-0-0/w STRC(396)         1 TEMP                       0-0-0/w STRC(144)         1 TRINARY_ILL
     0-0-0/w STRC(72)          1 UNARY_ILL                  0-0-0/w STRC(288)   r     1 UNARY_OP
     0-0-0/w STRC(288)         1 UNSTRING_STMT              0-0-0/w STRC(216)         1 USER_CALL
     0-0-0/w STRC(108)         1 VAL                        0-0-0/w STRC(108)         1 VAL_END
     0-0-0/w STRC(396)   r     1 VARIABLE                   0-0-0/w STRC(72)          1 WHEN
     0-0-0/w STRC(288)         1 WRITE_STMT


   Procedure Z8E5$ARITHMETIC_OPERATIONS requires 1611 words for executable code.
   Procedure Z8E5$ARITHMETIC_OPERATIONS requires 78 words of local(AUTO) storage.

    No errors detected in file Z8E5.:Z8A6TSI    .
